{
  "address": "0x968c3C14C0B534a9D4aeB537eD23Aa143cC32f59",
  "abi": [
    {
      "inputs": [],
      "stateMutability": "nonpayable",
      "type": "constructor"
    },
    {
      "inputs": [
        {
          "internalType": "address",
          "name": "target",
          "type": "address"
        }
      ],
      "name": "AddressEmptyCode",
      "type": "error"
    },
    {
      "inputs": [
        {
          "internalType": "address",
          "name": "account",
          "type": "address"
        }
      ],
      "name": "AddressInsufficientBalance",
      "type": "error"
    },
    {
      "inputs": [
        {
          "internalType": "address",
          "name": "operator",
          "type": "address"
        }
      ],
      "name": "AlreadyRegistered",
      "type": "error"
    },
    {
      "inputs": [
        {
          "internalType": "enum INFTCollection.MintDenialReason",
          "name": "reason",
          "type": "uint8"
        },
        {
          "internalType": "address",
          "name": "wallet",
          "type": "address"
        },
        {
          "internalType": "uint256",
          "name": "amount",
          "type": "uint256"
        },
        {
          "internalType": "uint256",
          "name": "waveIndex",
          "type": "uint256"
        }
      ],
      "name": "CannotMint",
      "type": "error"
    },
    {
      "inputs": [],
      "name": "ContractNotConfigured",
      "type": "error"
    },
    {
      "inputs": [],
      "name": "ECDSAInvalidSignature",
      "type": "error"
    },
    {
      "inputs": [
        {
          "internalType": "uint256",
          "name": "length",
          "type": "uint256"
        }
      ],
      "name": "ECDSAInvalidSignatureLength",
      "type": "error"
    },
    {
      "inputs": [
        {
          "internalType": "bytes32",
          "name": "s",
          "type": "bytes32"
        }
      ],
      "name": "ECDSAInvalidSignatureS",
      "type": "error"
    },
    {
      "inputs": [
        {
          "internalType": "uint256",
          "name": "numerator",
          "type": "uint256"
        },
        {
          "internalType": "uint256",
          "name": "denominator",
          "type": "uint256"
        }
      ],
      "name": "ERC2981InvalidDefaultRoyalty",
      "type": "error"
    },
    {
      "inputs": [
        {
          "internalType": "address",
          "name": "receiver",
          "type": "address"
        }
      ],
      "name": "ERC2981InvalidDefaultRoyaltyReceiver",
      "type": "error"
    },
    {
      "inputs": [
        {
          "internalType": "uint256",
          "name": "tokenId",
          "type": "uint256"
        },
        {
          "internalType": "uint256",
          "name": "numerator",
          "type": "uint256"
        },
        {
          "internalType": "uint256",
          "name": "denominator",
          "type": "uint256"
        }
      ],
      "name": "ERC2981InvalidTokenRoyalty",
      "type": "error"
    },
    {
      "inputs": [
        {
          "internalType": "uint256",
          "name": "tokenId",
          "type": "uint256"
        },
        {
          "internalType": "address",
          "name": "receiver",
          "type": "address"
        }
      ],
      "name": "ERC2981InvalidTokenRoyaltyReceiver",
      "type": "error"
    },
    {
      "inputs": [
        {
          "internalType": "address",
          "name": "sender",
          "type": "address"
        },
        {
          "internalType": "uint256",
          "name": "tokenId",
          "type": "uint256"
        },
        {
          "internalType": "address",
          "name": "owner",
          "type": "address"
        }
      ],
      "name": "ERC721IncorrectOwner",
      "type": "error"
    },
    {
      "inputs": [
        {
          "internalType": "address",
          "name": "operator",
          "type": "address"
        },
        {
          "internalType": "uint256",
          "name": "tokenId",
          "type": "uint256"
        }
      ],
      "name": "ERC721InsufficientApproval",
      "type": "error"
    },
    {
      "inputs": [
        {
          "internalType": "address",
          "name": "approver",
          "type": "address"
        }
      ],
      "name": "ERC721InvalidApprover",
      "type": "error"
    },
    {
      "inputs": [
        {
          "internalType": "address",
          "name": "operator",
          "type": "address"
        }
      ],
      "name": "ERC721InvalidOperator",
      "type": "error"
    },
    {
      "inputs": [
        {
          "internalType": "address",
          "name": "owner",
          "type": "address"
        }
      ],
      "name": "ERC721InvalidOwner",
      "type": "error"
    },
    {
      "inputs": [
        {
          "internalType": "address",
          "name": "receiver",
          "type": "address"
        }
      ],
      "name": "ERC721InvalidReceiver",
      "type": "error"
    },
    {
      "inputs": [
        {
          "internalType": "address",
          "name": "sender",
          "type": "address"
        }
      ],
      "name": "ERC721InvalidSender",
      "type": "error"
    },
    {
      "inputs": [
        {
          "internalType": "uint256",
          "name": "tokenId",
          "type": "uint256"
        }
      ],
      "name": "ERC721NonexistentToken",
      "type": "error"
    },
    {
      "inputs": [],
      "name": "EnforcedBurn",
      "type": "error"
    },
    {
      "inputs": [],
      "name": "EnforcedPause",
      "type": "error"
    },
    {
      "inputs": [],
      "name": "ExpectedBurn",
      "type": "error"
    },
    {
      "inputs": [],
      "name": "ExpectedPause",
      "type": "error"
    },
    {
      "inputs": [],
      "name": "FailedInnerCall",
      "type": "error"
    },
    {
      "inputs": [
        {
          "internalType": "contract IERC20Metadata",
          "name": "allowedToExecuteMint",
          "type": "address"
        }
      ],
      "name": "InvalidAllowedToExecuteMint",
      "type": "error"
    },
    {
      "inputs": [
        {
          "internalType": "string",
          "name": "baseURI",
          "type": "string"
        }
      ],
      "name": "InvalidBaseTokenURI",
      "type": "error"
    },
    {
      "inputs": [],
      "name": "InvalidBatchData",
      "type": "error"
    },
    {
      "inputs": [],
      "name": "InvalidInitialization",
      "type": "error"
    },
    {
      "inputs": [
        {
          "internalType": "uint256",
          "name": "maxTokensPerWallet",
          "type": "uint256"
        },
        {
          "internalType": "uint256",
          "name": "maxSupply",
          "type": "uint256"
        }
      ],
      "name": "InvalidMaxTokensPerWallet",
      "type": "error"
    },
    {
      "inputs": [
        {
          "internalType": "string",
          "name": "name",
          "type": "string"
        }
      ],
      "name": "InvalidName",
      "type": "error"
    },
    {
      "inputs": [
        {
          "internalType": "address",
          "name": "signAddress",
          "type": "address"
        }
      ],
      "name": "InvalidSignAddress",
      "type": "error"
    },
    {
      "inputs": [
        {
          "internalType": "uint256",
          "name": "signatureId",
          "type": "uint256"
        }
      ],
      "name": "InvalidSignature",
      "type": "error"
    },
    {
      "inputs": [
        {
          "internalType": "string",
          "name": "symbol",
          "type": "string"
        }
      ],
      "name": "InvalidSymbol",
      "type": "error"
    },
    {
      "inputs": [
        {
          "internalType": "address",
          "name": "mintTreasury",
          "type": "address"
        }
      ],
      "name": "InvalidTreasury",
      "type": "error"
    },
    {
      "inputs": [
        {
          "internalType": "uint256",
          "name": "waveMaxTokensOverall",
          "type": "uint256"
        },
        {
          "internalType": "uint256",
          "name": "waveMaxTokensPerWallet",
          "type": "uint256"
        }
      ],
      "name": "InvalidWaveData",
      "type": "error"
    },
    {
      "inputs": [
        {
          "internalType": "uint256",
          "name": "maxSupply",
          "type": "uint256"
        },
        {
          "internalType": "uint256",
          "name": "totalSupply",
          "type": "uint256"
        }
      ],
      "name": "LowMaxSupply",
      "type": "error"
    },
    {
      "inputs": [],
      "name": "NotInitializing",
      "type": "error"
    },
    {
      "inputs": [
        {
          "internalType": "address",
          "name": "operator",
          "type": "address"
        }
      ],
      "name": "OperatorNotAllowed",
      "type": "error"
    },
    {
      "inputs": [
        {
          "internalType": "address",
          "name": "owner",
          "type": "address"
        }
      ],
      "name": "OwnableInvalidOwner",
      "type": "error"
    },
    {
      "inputs": [
        {
          "internalType": "address",
          "name": "account",
          "type": "address"
        }
      ],
      "name": "OwnableUnauthorizedAccount",
      "type": "error"
    },
    {
      "inputs": [],
      "name": "ReentrancyGuardReentrantCall",
      "type": "error"
    },
    {
      "inputs": [
        {
          "internalType": "address",
          "name": "operator",
          "type": "address"
        }
      ],
      "name": "RegistryNotSet",
      "type": "error"
    },
    {
      "inputs": [
        {
          "internalType": "address",
          "name": "token",
          "type": "address"
        }
      ],
      "name": "SafeERC20FailedOperation",
      "type": "error"
    },
    {
      "inputs": [
        {
          "internalType": "uint256",
          "name": "waveMaxTokensPerWallet",
          "type": "uint256"
        },
        {
          "internalType": "uint256",
          "name": "maxTokensPerWallet",
          "type": "uint256"
        }
      ],
      "name": "WaveMaxTokensHigherThanGlobalMax",
      "type": "error"
    },
    {
      "anonymous": false,
      "inputs": [
        {
          "indexed": true,
          "internalType": "address",
          "name": "operator",
          "type": "address"
        },
        {
          "indexed": true,
          "internalType": "address",
          "name": "wallet",
          "type": "address"
        },
        {
          "indexed": false,
          "internalType": "bool",
          "name": "isAgentControlled",
          "type": "bool"
        }
      ],
      "name": "AgentControlledSet",
      "type": "event"
    },
    {
      "anonymous": false,
      "inputs": [
        {
          "indexed": true,
          "internalType": "address",
          "name": "operator",
          "type": "address"
        },
        {
          "indexed": true,
          "internalType": "contract IERC20",
          "name": "oldToken",
          "type": "address"
        },
        {
          "indexed": true,
          "internalType": "contract IERC20",
          "name": "newToken",
          "type": "address"
        }
      ],
      "name": "AllowedExecuteMintSet",
      "type": "event"
    },
    {
      "anonymous": false,
      "inputs": [
        {
          "indexed": true,
          "internalType": "address",
          "name": "owner",
          "type": "address"
        },
        {
          "indexed": true,
          "internalType": "address",
          "name": "approved",
          "type": "address"
        },
        {
          "indexed": true,
          "internalType": "uint256",
          "name": "tokenId",
          "type": "uint256"
        }
      ],
      "name": "Approval",
      "type": "event"
    },
    {
      "anonymous": false,
      "inputs": [
        {
          "indexed": true,
          "internalType": "address",
          "name": "owner",
          "type": "address"
        },
        {
          "indexed": true,
          "internalType": "address",
          "name": "operator",
          "type": "address"
        },
        {
          "indexed": false,
          "internalType": "bool",
          "name": "approved",
          "type": "bool"
        }
      ],
      "name": "ApprovalForAll",
      "type": "event"
    },
    {
      "anonymous": false,
      "inputs": [
        {
          "indexed": true,
          "internalType": "address",
          "name": "operator",
          "type": "address"
        },
        {
          "indexed": false,
          "internalType": "string",
          "name": "oldBaseURI",
          "type": "string"
        },
        {
          "indexed": false,
          "internalType": "string",
          "name": "newBaseURI",
          "type": "string"
        }
      ],
      "name": "BaseURISet",
      "type": "event"
    },
    {
      "anonymous": false,
      "inputs": [
        {
          "indexed": true,
          "internalType": "uint256",
          "name": "_fromTokenId",
          "type": "uint256"
        },
        {
          "indexed": true,
          "internalType": "uint256",
          "name": "_toTokenId",
          "type": "uint256"
        }
      ],
      "name": "BatchMetadataUpdate",
      "type": "event"
    },
    {
      "anonymous": false,
      "inputs": [
        {
          "indexed": true,
          "internalType": "string",
          "name": "baseURI",
          "type": "string"
        },
        {
          "indexed": true,
          "internalType": "string",
          "name": "name",
          "type": "string"
        },
        {
          "indexed": true,
          "internalType": "string",
          "name": "symbol",
          "type": "string"
        },
        {
          "indexed": false,
          "internalType": "address",
          "name": "mintTreasury",
          "type": "address"
        },
        {
          "indexed": false,
          "internalType": "address",
          "name": "signAddress",
          "type": "address"
        },
        {
          "indexed": false,
          "internalType": "contract IERC20Metadata",
          "name": "allowedToExecuteMint",
          "type": "address"
        },
        {
          "indexed": false,
          "internalType": "uint256",
          "name": "maxSupply",
          "type": "uint256"
        },
        {
          "indexed": false,
          "internalType": "uint256",
          "name": "maxTokensPerWallet",
          "type": "uint256"
        }
      ],
      "name": "ContractInitialized",
      "type": "event"
    },
    {
      "anonymous": false,
      "inputs": [
        {
          "indexed": true,
          "internalType": "address",
          "name": "operator",
          "type": "address"
        },
        {
          "indexed": true,
          "internalType": "contract IOperatorFilterRegistry",
          "name": "registry",
          "type": "address"
        },
        {
          "indexed": true,
          "internalType": "address",
          "name": "subscriptionOrRegistrant",
          "type": "address"
        },
        {
          "indexed": false,
          "internalType": "bool",
          "name": "subscribe",
          "type": "bool"
        }
      ],
      "name": "ContractRegistered",
      "type": "event"
    },
    {
      "anonymous": false,
      "inputs": [
        {
          "indexed": true,
          "internalType": "address",
          "name": "operator",
          "type": "address"
        }
      ],
      "name": "DefaultRoyaltyReset",
      "type": "event"
    },
    {
      "anonymous": false,
      "inputs": [
        {
          "indexed": true,
          "internalType": "address",
          "name": "operator",
          "type": "address"
        },
        {
          "indexed": true,
          "internalType": "address",
          "name": "receiver",
          "type": "address"
        },
        {
          "indexed": false,
          "internalType": "uint96",
          "name": "feeNumerator",
          "type": "uint96"
        }
      ],
      "name": "DefaultRoyaltySet",
      "type": "event"
    },
    {
      "anonymous": false,
      "inputs": [
        {
          "indexed": false,
          "internalType": "uint64",
          "name": "version",
          "type": "uint64"
        }
      ],
      "name": "Initialized",
      "type": "event"
    },
    {
      "anonymous": false,
      "inputs": [
        {
          "indexed": true,
          "internalType": "address",
          "name": "operator",
          "type": "address"
        },
        {
          "indexed": false,
          "internalType": "uint256",
          "name": "oldMaxSupply",
          "type": "uint256"
        },
        {
          "indexed": false,
          "internalType": "uint256",
          "name": "newMaxSupply",
          "type": "uint256"
        }
      ],
      "name": "MaxSupplySet",
      "type": "event"
    },
    {
      "anonymous": false,
      "inputs": [
        {
          "indexed": true,
          "internalType": "address",
          "name": "operator",
          "type": "address"
        },
        {
          "indexed": false,
          "internalType": "uint256",
          "name": "oldMaxTokensPerWallet",
          "type": "uint256"
        },
        {
          "indexed": false,
          "internalType": "uint256",
          "name": "newMaxTokensPerWallet",
          "type": "uint256"
        }
      ],
      "name": "MaxTokensPerWalletSet",
      "type": "event"
    },
    {
      "anonymous": false,
      "inputs": [
        {
          "indexed": true,
          "internalType": "uint256",
          "name": "_tokenId",
          "type": "uint256"
        }
      ],
      "name": "MetadataUpdate",
      "type": "event"
    },
    {
      "anonymous": false,
      "inputs": [
        {
          "indexed": true,
          "internalType": "address",
          "name": "operator",
          "type": "address"
        },
        {
          "indexed": true,
          "internalType": "contract IOperatorFilterRegistry",
          "name": "oldRegistry",
          "type": "address"
        },
        {
          "indexed": true,
          "internalType": "address",
          "name": "newRegistry",
          "type": "address"
        }
      ],
      "name": "OperatorRegistrySet",
      "type": "event"
    },
    {
      "anonymous": false,
      "inputs": [
        {
          "indexed": true,
          "internalType": "address",
          "name": "previousOwner",
          "type": "address"
        },
        {
          "indexed": true,
          "internalType": "address",
          "name": "newOwner",
          "type": "address"
        }
      ],
      "name": "OwnershipTransferStarted",
      "type": "event"
    },
    {
      "anonymous": false,
      "inputs": [
        {
          "indexed": true,
          "internalType": "address",
          "name": "previousOwner",
          "type": "address"
        },
        {
          "indexed": true,
          "internalType": "address",
          "name": "newOwner",
          "type": "address"
        }
      ],
      "name": "OwnershipTransferred",
      "type": "event"
    },
    {
      "anonymous": false,
      "inputs": [
        {
          "indexed": false,
          "internalType": "address",
          "name": "account",
          "type": "address"
        }
      ],
      "name": "Paused",
      "type": "event"
    },
    {
      "anonymous": false,
      "inputs": [
        {
          "indexed": true,
          "internalType": "address",
          "name": "operator",
          "type": "address"
        },
        {
          "indexed": true,
          "internalType": "uint256",
          "name": "tokenId",
          "type": "uint256"
        },
        {
          "indexed": true,
          "internalType": "uint256",
          "name": "personalizationMask",
          "type": "uint256"
        }
      ],
      "name": "Personalized",
      "type": "event"
    },
    {
      "anonymous": false,
      "inputs": [
        {
          "indexed": true,
          "internalType": "address",
          "name": "operator",
          "type": "address"
        },
        {
          "indexed": true,
          "internalType": "address",
          "name": "purchaseAgent",
          "type": "address"
        }
      ],
      "name": "PurchaseAgentSet",
      "type": "event"
    },
    {
      "anonymous": false,
      "inputs": [
        {
          "indexed": true,
          "internalType": "address",
          "name": "operator",
          "type": "address"
        },
        {
          "indexed": true,
          "internalType": "address",
          "name": "oldSignAddress",
          "type": "address"
        },
        {
          "indexed": true,
          "internalType": "address",
          "name": "newSignAddress",
          "type": "address"
        }
      ],
      "name": "SignAddressSet",
      "type": "event"
    },
    {
      "anonymous": false,
      "inputs": [
        {
          "indexed": true,
          "internalType": "address",
          "name": "operator",
          "type": "address"
        },
        {
          "indexed": true,
          "internalType": "uint256",
          "name": "tokenId",
          "type": "uint256"
        },
        {
          "indexed": true,
          "internalType": "address",
          "name": "burner",
          "type": "address"
        }
      ],
      "name": "TokenBurned",
      "type": "event"
    },
    {
      "anonymous": false,
      "inputs": [
        {
          "indexed": true,
          "internalType": "address",
          "name": "operator",
          "type": "address"
        }
      ],
      "name": "TokenBurningDisabled",
      "type": "event"
    },
    {
      "anonymous": false,
      "inputs": [
        {
          "indexed": true,
          "internalType": "address",
          "name": "operator",
          "type": "address"
        }
      ],
      "name": "TokenBurningEnabled",
      "type": "event"
    },
    {
      "anonymous": false,
      "inputs": [
        {
          "indexed": true,
          "internalType": "address",
          "name": "operator",
          "type": "address"
        },
        {
          "indexed": true,
          "internalType": "uint256",
          "name": "tokenId",
          "type": "uint256"
        }
      ],
      "name": "TokenRoyaltyReset",
      "type": "event"
    },
    {
      "anonymous": false,
      "inputs": [
        {
          "indexed": true,
          "internalType": "address",
          "name": "operator",
          "type": "address"
        },
        {
          "indexed": true,
          "internalType": "uint256",
          "name": "tokenId",
          "type": "uint256"
        },
        {
          "indexed": true,
          "internalType": "address",
          "name": "receiver",
          "type": "address"
        },
        {
          "indexed": false,
          "internalType": "uint96",
          "name": "feeNumerator",
          "type": "uint96"
        }
      ],
      "name": "TokenRoyaltySet",
      "type": "event"
    },
    {
      "anonymous": false,
      "inputs": [
        {
          "indexed": true,
          "internalType": "address",
          "name": "from",
          "type": "address"
        },
        {
          "indexed": true,
          "internalType": "address",
          "name": "to",
          "type": "address"
        },
        {
          "indexed": true,
          "internalType": "uint256",
          "name": "tokenId",
          "type": "uint256"
        }
      ],
      "name": "Transfer",
      "type": "event"
    },
    {
      "anonymous": false,
      "inputs": [
        {
          "indexed": true,
          "internalType": "address",
          "name": "operator",
          "type": "address"
        },
        {
          "indexed": true,
          "internalType": "address",
          "name": "oldTreasury",
          "type": "address"
        },
        {
          "indexed": true,
          "internalType": "address",
          "name": "newTreasury",
          "type": "address"
        }
      ],
      "name": "TreasurySet",
      "type": "event"
    },
    {
      "anonymous": false,
      "inputs": [
        {
          "indexed": true,
          "internalType": "address",
          "name": "operator",
          "type": "address"
        },
        {
          "indexed": true,
          "internalType": "address",
          "name": "oldForwarder",
          "type": "address"
        },
        {
          "indexed": true,
          "internalType": "address",
          "name": "newForwarder",
          "type": "address"
        }
      ],
      "name": "TrustedForwarderSet",
      "type": "event"
    },
    {
      "anonymous": false,
      "inputs": [
        {
          "indexed": false,
          "internalType": "address",
          "name": "account",
          "type": "address"
        }
      ],
      "name": "Unpaused",
      "type": "event"
    },
    {
      "anonymous": false,
      "inputs": [
        {
          "indexed": false,
          "internalType": "uint256",
          "name": "tokenId",
          "type": "uint256"
        },
        {
          "indexed": true,
          "internalType": "address",
          "name": "wallet",
          "type": "address"
        },
        {
          "indexed": false,
          "internalType": "uint256",
          "name": "waveIndex",
          "type": "uint256"
        }
      ],
      "name": "WaveMint",
      "type": "event"
    },
    {
      "anonymous": false,
      "inputs": [
        {
          "indexed": true,
          "internalType": "address",
          "name": "operator",
          "type": "address"
        },
        {
          "indexed": false,
          "internalType": "uint256",
          "name": "waveMaxTokens",
          "type": "uint256"
        },
        {
          "indexed": false,
          "internalType": "uint256",
          "name": "waveMaxTokensToBuy",
          "type": "uint256"
        },
        {
          "indexed": false,
          "internalType": "uint256",
          "name": "waveSingleTokenPrice",
          "type": "uint256"
        },
        {
          "indexed": false,
          "internalType": "uint256",
          "name": "waveIndex",
          "type": "uint256"
        }
      ],
      "name": "WaveSetup",
      "type": "event"
    },
    {
      "inputs": [],
      "name": "acceptOwnership",
      "outputs": [],
      "stateMutability": "nonpayable",
      "type": "function"
    },
    {
      "inputs": [],
      "name": "allowedToExecuteMint",
      "outputs": [
        {
          "internalType": "contract IERC20",
          "name": "",
          "type": "address"
        }
      ],
      "stateMutability": "view",
      "type": "function"
    },
    {
      "inputs": [
        {
          "internalType": "address",
          "name": "operator",
          "type": "address"
        },
        {
          "internalType": "uint256",
          "name": "tokenId",
          "type": "uint256"
        }
      ],
      "name": "approve",
      "outputs": [],
      "stateMutability": "nonpayable",
      "type": "function"
    },
    {
      "inputs": [
        {
          "internalType": "address",
          "name": "owner",
          "type": "address"
        }
      ],
      "name": "balanceOf",
      "outputs": [
        {
          "internalType": "uint256",
          "name": "",
          "type": "uint256"
        }
      ],
      "stateMutability": "view",
      "type": "function"
    },
    {
      "inputs": [],
      "name": "baseTokenURI",
      "outputs": [
        {
          "internalType": "string",
          "name": "",
          "type": "string"
        }
      ],
      "stateMutability": "view",
      "type": "function"
    },
    {
      "inputs": [
        {
          "internalType": "uint256",
          "name": "waveIndex",
          "type": "uint256"
        },
        {
          "components": [
            {
              "internalType": "address",
              "name": "wallet",
              "type": "address"
            },
            {
              "internalType": "uint256",
              "name": "amount",
              "type": "uint256"
            }
          ],
          "internalType": "struct INFTCollection.BatchMintingData[]",
          "name": "wallets",
          "type": "tuple[]"
        }
      ],
      "name": "batchMint",
      "outputs": [],
      "stateMutability": "nonpayable",
      "type": "function"
    },
    {
      "inputs": [
        {
          "internalType": "address",
          "name": "from",
          "type": "address"
        },
        {
          "internalType": "address",
          "name": "to",
          "type": "address"
        },
        {
          "internalType": "uint256[]",
          "name": "ids",
          "type": "uint256[]"
        }
      ],
      "name": "batchTransferFrom",
      "outputs": [],
      "stateMutability": "nonpayable",
      "type": "function"
    },
    {
      "inputs": [
        {
          "internalType": "uint256",
          "name": "tokenId",
          "type": "uint256"
        }
      ],
      "name": "burn",
      "outputs": [],
      "stateMutability": "nonpayable",
      "type": "function"
    },
    {
      "inputs": [
        {
          "internalType": "uint256",
          "name": "waveIndex",
          "type": "uint256"
        }
      ],
      "name": "cancelWave",
      "outputs": [],
      "stateMutability": "nonpayable",
      "type": "function"
    },
    {
      "inputs": [],
      "name": "chain",
      "outputs": [
        {
          "internalType": "uint256",
          "name": "",
          "type": "uint256"
        }
      ],
      "stateMutability": "view",
      "type": "function"
    },
    {
      "inputs": [],
      "name": "disableBurning",
      "outputs": [],
      "stateMutability": "nonpayable",
      "type": "function"
    },
    {
      "inputs": [],
      "name": "enableBurning",
      "outputs": [],
      "stateMutability": "nonpayable",
      "type": "function"
    },
    {
      "inputs": [],
      "name": "feeDenominator",
      "outputs": [
        {
          "internalType": "uint96",
          "name": "",
          "type": "uint96"
        }
      ],
      "stateMutability": "pure",
      "type": "function"
    },
    {
      "inputs": [
        {
          "internalType": "uint256",
          "name": "tokenId",
          "type": "uint256"
        }
      ],
      "name": "getApproved",
      "outputs": [
        {
          "internalType": "address",
          "name": "",
          "type": "address"
        }
      ],
      "stateMutability": "view",
      "type": "function"
    },
    {
      "inputs": [
        {
          "internalType": "uint256",
          "name": "signatureId",
          "type": "uint256"
        }
      ],
      "name": "getSignatureType",
      "outputs": [
        {
          "internalType": "enum NFTCollectionSignature.SignatureType",
          "name": "",
          "type": "uint8"
        }
      ],
      "stateMutability": "view",
      "type": "function"
    },
    {
      "inputs": [
        {
          "components": [
            {
              "internalType": "address",
              "name": "collectionOwner",
              "type": "address"
            },
            {
              "internalType": "string",
              "name": "initialBaseURI",
              "type": "string"
            },
            {
              "internalType": "string",
              "name": "name",
              "type": "string"
            },
            {
              "internalType": "string",
              "name": "symbol",
              "type": "string"
            },
            {
              "internalType": "address payable",
              "name": "mintTreasury",
              "type": "address"
            },
            {
              "internalType": "address",
              "name": "signAddress",
              "type": "address"
            },
            {
              "internalType": "address",
              "name": "initialTrustedForwarder",
              "type": "address"
            },
            {
              "internalType": "contract IERC20Metadata",
              "name": "allowedToExecuteMint",
              "type": "address"
            },
            {
              "internalType": "uint256",
              "name": "maxSupply",
              "type": "uint256"
            },
            {
              "internalType": "uint256",
              "name": "maxTokensPerWallet",
              "type": "uint256"
            }
          ],
          "internalType": "struct INFTCollection.InitializationParams",
          "name": "params",
          "type": "tuple"
        }
      ],
      "name": "initialize",
      "outputs": [],
      "stateMutability": "nonpayable",
      "type": "function"
    },
    {
      "inputs": [
        {
          "internalType": "address",
          "name": "wallet",
          "type": "address"
        }
      ],
      "name": "isAgentControlled",
      "outputs": [
        {
          "internalType": "bool",
          "name": "",
          "type": "bool"
        }
      ],
      "stateMutability": "view",
      "type": "function"
    },
    {
      "inputs": [
        {
          "internalType": "address",
          "name": "owner",
          "type": "address"
        },
        {
          "internalType": "address",
          "name": "operator",
          "type": "address"
        }
      ],
      "name": "isApprovedForAll",
      "outputs": [
        {
          "internalType": "bool",
          "name": "",
          "type": "bool"
        }
      ],
      "stateMutability": "view",
      "type": "function"
    },
    {
      "inputs": [],
      "name": "isBurnEnabled",
      "outputs": [
        {
          "internalType": "bool",
          "name": "",
          "type": "bool"
        }
      ],
      "stateMutability": "view",
      "type": "function"
    },
    {
      "inputs": [
        {
          "internalType": "uint256",
          "name": "waveIndex",
          "type": "uint256"
        },
        {
          "internalType": "address",
          "name": "wallet",
          "type": "address"
        },
        {
          "internalType": "uint256",
          "name": "amount",
          "type": "uint256"
        }
      ],
      "name": "isMintDenied",
      "outputs": [
        {
          "internalType": "enum INFTCollection.MintDenialReason",
          "name": "",
          "type": "uint8"
        }
      ],
      "stateMutability": "view",
      "type": "function"
    },
    {
      "inputs": [
        {
          "internalType": "address",
          "name": "forwarder",
          "type": "address"
        }
      ],
      "name": "isTrustedForwarder",
      "outputs": [
        {
          "internalType": "bool",
          "name": "",
          "type": "bool"
        }
      ],
      "stateMutability": "view",
      "type": "function"
    },
    {
      "inputs": [],
      "name": "maxSupply",
      "outputs": [
        {
          "internalType": "uint256",
          "name": "",
          "type": "uint256"
        }
      ],
      "stateMutability": "view",
      "type": "function"
    },
    {
      "inputs": [],
      "name": "maxTokensPerWallet",
      "outputs": [
        {
          "internalType": "uint256",
          "name": "",
          "type": "uint256"
        }
      ],
      "stateMutability": "view",
      "type": "function"
    },
    {
      "inputs": [
        {
          "internalType": "address",
          "name": "wallet",
          "type": "address"
        },
        {
          "internalType": "uint256",
          "name": "amount",
          "type": "uint256"
        },
        {
          "internalType": "uint256",
          "name": "signatureId",
          "type": "uint256"
        },
        {
          "internalType": "bytes",
          "name": "signature",
          "type": "bytes"
        }
      ],
      "name": "mint",
      "outputs": [],
      "stateMutability": "nonpayable",
      "type": "function"
    },
    {
      "inputs": [],
      "name": "mintTreasury",
      "outputs": [
        {
          "internalType": "address",
          "name": "",
          "type": "address"
        }
      ],
      "stateMutability": "view",
      "type": "function"
    },
    {
      "inputs": [
        {
          "internalType": "address",
          "name": "wallet",
          "type": "address"
        }
      ],
      "name": "mintedCount",
      "outputs": [
        {
          "internalType": "uint256",
          "name": "",
          "type": "uint256"
        }
      ],
      "stateMutability": "view",
      "type": "function"
    },
    {
      "inputs": [],
      "name": "name",
      "outputs": [
        {
          "internalType": "string",
          "name": "",
          "type": "string"
        }
      ],
      "stateMutability": "view",
      "type": "function"
    },
    {
      "inputs": [],
      "name": "operatorFilterRegistry",
      "outputs": [
        {
          "internalType": "contract IOperatorFilterRegistry",
          "name": "",
          "type": "address"
        }
      ],
      "stateMutability": "view",
      "type": "function"
    },
    {
      "inputs": [
        {
          "internalType": "uint256",
          "name": "tokenId",
          "type": "uint256"
        },
        {
          "internalType": "uint256",
          "name": "personalizationMask",
          "type": "uint256"
        }
      ],
      "name": "operatorPersonalize",
      "outputs": [],
      "stateMutability": "nonpayable",
      "type": "function"
    },
    {
      "inputs": [],
      "name": "owner",
      "outputs": [
        {
          "internalType": "address",
          "name": "",
          "type": "address"
        }
      ],
      "stateMutability": "view",
      "type": "function"
    },
    {
      "inputs": [
        {
          "internalType": "uint256",
          "name": "tokenId",
          "type": "uint256"
        }
      ],
      "name": "ownerOf",
      "outputs": [
        {
          "internalType": "address",
          "name": "",
          "type": "address"
        }
      ],
      "stateMutability": "view",
      "type": "function"
    },
    {
      "inputs": [],
      "name": "pause",
      "outputs": [],
      "stateMutability": "nonpayable",
      "type": "function"
    },
    {
      "inputs": [],
      "name": "paused",
      "outputs": [
        {
          "internalType": "bool",
          "name": "",
          "type": "bool"
        }
      ],
      "stateMutability": "view",
      "type": "function"
    },
    {
      "inputs": [],
      "name": "pendingOwner",
      "outputs": [
        {
          "internalType": "address",
          "name": "",
          "type": "address"
        }
      ],
      "stateMutability": "view",
      "type": "function"
    },
    {
      "inputs": [
        {
          "internalType": "uint256",
          "name": "tokenId",
          "type": "uint256"
        }
      ],
      "name": "personalizationOf",
      "outputs": [
        {
          "internalType": "uint256",
          "name": "",
          "type": "uint256"
        }
      ],
      "stateMutability": "view",
      "type": "function"
    },
    {
      "inputs": [
        {
          "internalType": "uint256",
          "name": "tokenId",
          "type": "uint256"
        },
        {
          "internalType": "uint256",
          "name": "personalizationMask",
          "type": "uint256"
        },
        {
          "internalType": "uint256",
          "name": "signatureId",
          "type": "uint256"
        },
        {
          "internalType": "bytes",
          "name": "signature",
          "type": "bytes"
        }
      ],
      "name": "personalize",
      "outputs": [],
      "stateMutability": "nonpayable",
      "type": "function"
    },
    {
      "inputs": [],
      "name": "purchaseAgent",
      "outputs": [
        {
          "internalType": "address",
          "name": "",
          "type": "address"
        }
      ],
      "stateMutability": "view",
      "type": "function"
    },
    {
      "inputs": [
        {
          "internalType": "address",
          "name": "subscriptionOrRegistrantToCopy",
          "type": "address"
        },
        {
          "internalType": "bool",
          "name": "subscribe",
          "type": "bool"
        }
      ],
      "name": "register",
      "outputs": [],
      "stateMutability": "nonpayable",
      "type": "function"
    },
    {
      "inputs": [],
      "name": "renounceOwnership",
      "outputs": [],
      "stateMutability": "nonpayable",
      "type": "function"
    },
    {
      "inputs": [],
      "name": "resetDefaultRoyalty",
      "outputs": [],
      "stateMutability": "nonpayable",
      "type": "function"
    },
    {
      "inputs": [
        {
          "internalType": "uint256",
          "name": "tokenId",
          "type": "uint256"
        }
      ],
      "name": "resetTokenRoyalty",
      "outputs": [],
      "stateMutability": "nonpayable",
      "type": "function"
    },
    {
      "inputs": [
        {
          "internalType": "uint256",
          "name": "tokenId",
          "type": "uint256"
        },
        {
          "internalType": "uint256",
          "name": "signatureId",
          "type": "uint256"
        },
        {
          "internalType": "bytes",
          "name": "signature",
          "type": "bytes"
        }
      ],
      "name": "reveal",
      "outputs": [],
      "stateMutability": "nonpayable",
      "type": "function"
    },
    {
      "inputs": [
        {
          "internalType": "uint256",
          "name": "tokenId",
          "type": "uint256"
        },
        {
          "internalType": "uint256",
          "name": "salePrice",
          "type": "uint256"
        }
      ],
      "name": "royaltyInfo",
      "outputs": [
        {
          "internalType": "address",
          "name": "",
          "type": "address"
        },
        {
          "internalType": "uint256",
          "name": "",
          "type": "uint256"
        }
      ],
      "stateMutability": "view",
      "type": "function"
    },
    {
      "inputs": [
        {
          "internalType": "address",
          "name": "from",
          "type": "address"
        },
        {
          "internalType": "address",
          "name": "to",
          "type": "address"
        },
        {
          "internalType": "uint256[]",
          "name": "ids",
          "type": "uint256[]"
        },
        {
          "internalType": "bytes",
          "name": "data",
          "type": "bytes"
        }
      ],
      "name": "safeBatchTransferFrom",
      "outputs": [],
      "stateMutability": "nonpayable",
      "type": "function"
    },
    {
      "inputs": [
        {
          "internalType": "address",
          "name": "from",
          "type": "address"
        },
        {
          "internalType": "address",
          "name": "to",
          "type": "address"
        },
        {
          "internalType": "uint256",
          "name": "tokenId",
          "type": "uint256"
        }
      ],
      "name": "safeTransferFrom",
      "outputs": [],
      "stateMutability": "nonpayable",
      "type": "function"
    },
    {
      "inputs": [
        {
          "internalType": "address",
          "name": "from",
          "type": "address"
        },
        {
          "internalType": "address",
          "name": "to",
          "type": "address"
        },
        {
          "internalType": "uint256",
          "name": "tokenId",
          "type": "uint256"
        },
        {
          "internalType": "bytes",
          "name": "data",
          "type": "bytes"
        }
      ],
      "name": "safeTransferFrom",
      "outputs": [],
      "stateMutability": "nonpayable",
      "type": "function"
    },
    {
      "inputs": [
        {
          "internalType": "contract IERC20Metadata",
          "name": "minterToken",
          "type": "address"
        }
      ],
      "name": "setAllowedExecuteMint",
      "outputs": [],
      "stateMutability": "nonpayable",
      "type": "function"
    },
    {
      "inputs": [
        {
          "internalType": "address",
          "name": "operator",
          "type": "address"
        },
        {
          "internalType": "bool",
          "name": "approved",
          "type": "bool"
        }
      ],
      "name": "setApprovalForAll",
      "outputs": [],
      "stateMutability": "nonpayable",
      "type": "function"
    },
    {
      "inputs": [
        {
          "internalType": "string",
          "name": "baseURI",
          "type": "string"
        }
      ],
      "name": "setBaseURI",
      "outputs": [],
      "stateMutability": "nonpayable",
      "type": "function"
    },
    {
      "inputs": [
        {
          "internalType": "address[]",
          "name": "wallets",
          "type": "address[]"
        },
        {
          "internalType": "bool[]",
          "name": "agentControlledFlags",
          "type": "bool[]"
        }
      ],
      "name": "setBatchAgentControlled",
      "outputs": [],
      "stateMutability": "nonpayable",
      "type": "function"
    },
    {
      "inputs": [
        {
          "internalType": "address",
          "name": "receiver",
          "type": "address"
        },
        {
          "internalType": "uint96",
          "name": "feeNumerator",
          "type": "uint96"
        }
      ],
      "name": "setDefaultRoyalty",
      "outputs": [],
      "stateMutability": "nonpayable",
      "type": "function"
    },
    {
      "inputs": [
        {
          "internalType": "uint256",
          "name": "_maxSupply",
          "type": "uint256"
        }
      ],
      "name": "setMaxSupply",
      "outputs": [],
      "stateMutability": "nonpayable",
      "type": "function"
    },
    {
      "inputs": [
        {
          "internalType": "uint256",
          "name": "_maxTokensPerWallet",
          "type": "uint256"
        }
      ],
      "name": "setMaxTokensPerWallet",
      "outputs": [],
      "stateMutability": "nonpayable",
      "type": "function"
    },
    {
      "inputs": [
        {
          "internalType": "address",
          "name": "registry",
          "type": "address"
        }
      ],
      "name": "setOperatorRegistry",
      "outputs": [],
      "stateMutability": "nonpayable",
      "type": "function"
    },
    {
      "inputs": [
        {
          "internalType": "address",
          "name": "_purchaseAgent",
          "type": "address"
        }
      ],
      "name": "setPurchaseAgent",
      "outputs": [],
      "stateMutability": "nonpayable",
      "type": "function"
    },
    {
      "inputs": [
        {
          "internalType": "address",
          "name": "_signAddress",
          "type": "address"
        }
      ],
      "name": "setSignAddress",
      "outputs": [],
      "stateMutability": "nonpayable",
      "type": "function"
    },
    {
      "inputs": [
        {
          "internalType": "uint256",
          "name": "tokenId",
          "type": "uint256"
        },
        {
          "internalType": "address",
          "name": "receiver",
          "type": "address"
        },
        {
          "internalType": "uint96",
          "name": "feeNumerator",
          "type": "uint96"
        }
      ],
      "name": "setTokenRoyalty",
      "outputs": [],
      "stateMutability": "nonpayable",
      "type": "function"
    },
    {
      "inputs": [
        {
          "internalType": "address",
          "name": "treasury",
          "type": "address"
        }
      ],
      "name": "setTreasury",
      "outputs": [],
      "stateMutability": "nonpayable",
      "type": "function"
    },
    {
      "inputs": [
        {
          "internalType": "address",
          "name": "forwarder",
          "type": "address"
        }
      ],
      "name": "setTrustedForwarder",
      "outputs": [],
      "stateMutability": "nonpayable",
      "type": "function"
    },
    {
      "inputs": [
        {
          "internalType": "uint256",
          "name": "_waveMaxTokensOverall",
          "type": "uint256"
        },
        {
          "internalType": "uint256",
          "name": "_waveMaxTokensPerWallet",
          "type": "uint256"
        },
        {
          "internalType": "uint256",
          "name": "_waveSingleTokenPrice",
          "type": "uint256"
        }
      ],
      "name": "setupWave",
      "outputs": [],
      "stateMutability": "nonpayable",
      "type": "function"
    },
    {
      "inputs": [],
      "name": "signAddress",
      "outputs": [
        {
          "internalType": "address",
          "name": "",
          "type": "address"
        }
      ],
      "stateMutability": "view",
      "type": "function"
    },
    {
      "inputs": [
        {
          "internalType": "bytes4",
          "name": "interfaceId",
          "type": "bytes4"
        }
      ],
      "name": "supportsInterface",
      "outputs": [
        {
          "internalType": "bool",
          "name": "",
          "type": "bool"
        }
      ],
      "stateMutability": "view",
      "type": "function"
    },
    {
      "inputs": [],
      "name": "symbol",
      "outputs": [
        {
          "internalType": "string",
          "name": "",
          "type": "string"
        }
      ],
      "stateMutability": "view",
      "type": "function"
    },
    {
      "inputs": [
        {
          "internalType": "uint256",
          "name": "tokenId",
          "type": "uint256"
        }
      ],
      "name": "tokenURI",
      "outputs": [
        {
          "internalType": "string",
          "name": "",
          "type": "string"
        }
      ],
      "stateMutability": "view",
      "type": "function"
    },
    {
      "inputs": [],
      "name": "totalSupply",
      "outputs": [
        {
          "internalType": "uint256",
          "name": "",
          "type": "uint256"
        }
      ],
      "stateMutability": "view",
      "type": "function"
    },
    {
      "inputs": [
        {
          "internalType": "address",
          "name": "from",
          "type": "address"
        },
        {
          "internalType": "address",
          "name": "to",
          "type": "address"
        },
        {
          "internalType": "uint256",
          "name": "tokenId",
          "type": "uint256"
        }
      ],
      "name": "transferFrom",
      "outputs": [],
      "stateMutability": "nonpayable",
      "type": "function"
    },
    {
      "inputs": [
        {
          "internalType": "address",
          "name": "newOwner",
          "type": "address"
        }
      ],
      "name": "transferOwnership",
      "outputs": [],
      "stateMutability": "nonpayable",
      "type": "function"
    },
    {
      "inputs": [],
      "name": "trustedForwarder",
      "outputs": [
        {
          "internalType": "address",
          "name": "",
          "type": "address"
        }
      ],
      "stateMutability": "view",
      "type": "function"
    },
    {
      "inputs": [],
      "name": "unpause",
      "outputs": [],
      "stateMutability": "nonpayable",
      "type": "function"
    },
    {
      "inputs": [],
      "name": "waveCount",
      "outputs": [
        {
          "internalType": "uint256",
          "name": "",
          "type": "uint256"
        }
      ],
      "stateMutability": "view",
      "type": "function"
    },
    {
      "inputs": [
        {
          "internalType": "uint256",
          "name": "waveIndex",
          "type": "uint256"
        }
      ],
      "name": "waveMaxTokensOverall",
      "outputs": [
        {
          "internalType": "uint256",
          "name": "",
          "type": "uint256"
        }
      ],
      "stateMutability": "view",
      "type": "function"
    },
    {
      "inputs": [
        {
          "internalType": "uint256",
          "name": "waveIndex",
          "type": "uint256"
        }
      ],
      "name": "waveMaxTokensPerWallet",
      "outputs": [
        {
          "internalType": "uint256",
          "name": "",
          "type": "uint256"
        }
      ],
      "stateMutability": "view",
      "type": "function"
    },
    {
      "inputs": [
        {
          "internalType": "address",
          "name": "wallet",
          "type": "address"
        },
        {
          "internalType": "uint256",
          "name": "amount",
          "type": "uint256"
        },
        {
          "internalType": "uint256",
          "name": "waveIndex",
          "type": "uint256"
        },
        {
          "internalType": "uint256",
          "name": "signatureId",
          "type": "uint256"
        },
        {
          "internalType": "bytes",
          "name": "signature",
          "type": "bytes"
        }
      ],
      "name": "waveMint",
      "outputs": [
        {
          "internalType": "uint256[]",
          "name": "",
          "type": "uint256[]"
        }
      ],
      "stateMutability": "nonpayable",
      "type": "function"
    },
    {
      "inputs": [
        {
          "internalType": "uint256",
          "name": "waveIndex",
          "type": "uint256"
        },
        {
          "internalType": "address",
          "name": "owner",
          "type": "address"
        }
      ],
      "name": "waveOwnerToClaimedCounts",
      "outputs": [
        {
          "internalType": "uint256",
          "name": "",
          "type": "uint256"
        }
      ],
      "stateMutability": "view",
      "type": "function"
    },
    {
      "inputs": [
        {
          "internalType": "uint256",
          "name": "waveIndex",
          "type": "uint256"
        }
      ],
      "name": "waveSingleTokenPrice",
      "outputs": [
        {
          "internalType": "uint256",
          "name": "",
          "type": "uint256"
        }
      ],
      "stateMutability": "view",
      "type": "function"
    },
    {
      "inputs": [
        {
          "internalType": "uint256",
          "name": "waveIndex",
          "type": "uint256"
        }
      ],
      "name": "waveTotalMinted",
      "outputs": [
        {
          "internalType": "uint256",
          "name": "",
          "type": "uint256"
        }
      ],
      "stateMutability": "view",
      "type": "function"
    }
  ],
  "transactionHash": "0x4f695e8366b136f738db8c6240bc13311200b45f44b501df3799ec6d01a8e103",
  "args": [],
  "numDeployments": 1,
  "solcInputHash": "9c17b2177a2b52fc929e3fb63a2ae40f",
  "bytecode": "0x6080604052348015600f57600080fd5b506016601a565b60ca565b7ff0c57e16840df040f15088dc2f81fe391c3923bec73e23a9662efc9c229c6a00805468010000000000000000900460ff161560695760405163f92ee8a960e01b815260040160405180910390fd5b80546001600160401b039081161460c75780546001600160401b0319166001600160401b0390811782556040519081527fc7f505b2f371ae2175ee4913f4499e1f2633a7b5936321eed1cdaeb6115181d29060200160405180910390a15b50565b615795806100d96000396000f3fe608060405234801561001057600080fd5b50600436106104535760003560e01c80637581a8e611610241578063b0ccc31e1161013b578063da742228116100c3578063ee437dae11610087578063ee437dae1461094d578063f0f4426014610955578063f2fde38b14610968578063f3993d111461097b578063fddcb5ea1461098e57600080fd5b8063da7422281461090f578063e30c397814610922578063e3e350621461092a578063e985e9c514610932578063ee3e46df1461094557600080fd5b8063c763e5a11161010a578063c763e5a1146108de578063c87b56dd146108e4578063d2669199146108f7578063d547cfb7146108ff578063d5abeb011461090757600080fd5b8063b0ccc31e1461089d578063b19f15ba146108a5578063b88d4fde146108b8578063c5a2824e146108cb57600080fd5b806397f5c1b5116101c9578063a6e3ec261161018d578063a6e3ec2614610849578063a90fe8611461085c578063aac5d69f1461086f578063ab01b46914610882578063ac3149e31461089557600080fd5b806397f5c1b5146107e857806398603cca146107fb5780639d28fb8614610803578063a0f9b83914610816578063a22cb4651461083657600080fd5b80638456cb59116102105780638456cb59146107aa5780638a616bc0146107b25780638da5cb5b146107c557806395d89b41146107cd57806397944ba2146107d557600080fd5b80637581a8e61461077f57806379ba5097146107875780637da0a8771461078f57806382bc78771461079757600080fd5b80632a55205a1161035257806355f804b3116102da5780636352211e1161029e5780636352211e1461072b5780636f8b44b01461073e57806370a0823114610751578063715018a614610764578063731133e91461076c57600080fd5b806355f804b3146106c7578063572b6c05146106da5780635944c753146106ed5780635c975abb146107005780636178d2ad1461071857600080fd5b806342966c681161032157806342966c6814610673578063469132ce1461068657806349c55c5e1461068e57806349c95a31146106a15780635375e898146106b457600080fd5b80632a55205a146106135780633ee462c2146106455780633f4ba83a1461065857806342842e0e1461066057600080fd5b80630f0a3e6d116103e05780631992c3f3116103a45780631992c3f3146105a75780631c00ff5b146105ba57806323b872dd146105cd57806326b3af64146105e057806328cfbd461461060057600080fd5b80630f0a3e6d146105565780631513704514610569578063179573d31461057c578063180b0d7e1461058f57806318160ddd1461059f57600080fd5b806306fdde031161042757806306fdde03146104d657806307ebec27146104eb578063081812fc146104f3578063095ea7b31461050657806309b450971461051957600080fd5b80626cddce1461045857806301ffc9a71461047e57806304634d8d146104a15780630682bdbc146104b6575b600080fd5b61046b610466366004614880565b6109a1565b6040519081526020015b60405180910390f35b61049161048c3660046148af565b6109b8565b6040519015158152602001610475565b6104b46104af3660046148fd565b6109e3565b005b6104be610a54565b6040516001600160a01b039091168152602001610475565b6104de610a77565b6040516104759190614982565b610491610b1b565b6104be610501366004614880565b610b33565b6104b4610514366004614995565b610b48565b610549610527366004614880565b60009081526000805160206156c0833981519152602052604090205460ff1690565b60405161047591906149d7565b6104b46105643660046149f1565b610b6a565b6104b4610577366004614a70565b610d4f565b61046b61058a366004614880565b610d63565b6040516127108152602001610475565b61046b610d7f565b6104b46105b5366004614a8d565b610d94565b6104b46105c8366004614afa565b610f1e565b6104b46105db366004614b5a565b610f98565b6105f36105ee366004614b9b565b610fe3565b6040516104759190614c0d565b6104b461060e366004614c94565b6110c2565b610626610621366004614d0e565b6111f5565b604080516001600160a01b039093168352602083019190915201610475565b61046b610653366004614880565b6112d3565b6104b46112ea565b6104b461066e366004614b5a565b611304565b6104b4610681366004614880565b61131f565b61046b611330565b6104b461069c366004614880565b611345565b61046b6106af366004614d30565b6113a9565b61046b6106c2366004614880565b6113da565b6104b46106d5366004614d60565b6113ee565b6104916106e8366004614a70565b611433565b6104b46106fb366004614da1565b611459565b6000805160206156e08339815191525460ff16610491565b6104b4610726366004614a70565b6114c8565b6104be610739366004614880565b61154c565b6104b461074c366004614880565b611557565b61046b61075f366004614a70565b611568565b6104b46115c4565b6104b461077a366004614ddf565b6115d6565b6104b46116b6565b6104b4611740565b6104be611799565b6104b46107a5366004614a70565b6117b0565b6104b46117c1565b6104b46107c0366004614880565b6117d9565b6104be61184f565b6104de611878565b61046b6107e3366004614880565b6118b7565b6104b46107f6366004614e2b565b6118d7565b6104b4611a36565b6104b4610811366004614a70565b611abc565b610829610824366004614e9a565b611acd565b6040516104759190614ed5565b6104b4610844366004614ef1565b611b2f565b6104b4610857366004614d0e565b611b4c565b6104b461086a366004614f1f565b611b95565b6104b461087d366004614880565b611c2d565b6104b4610890366004614ef1565b611c3e565b6104be611c50565b6104be611c6e565b6104916108b3366004614a70565b611c85565b6104b46108c6366004614f7b565b611cb5565b6104b46108d9366004615060565b611cf6565b4661046b565b6104de6108f2366004614880565b611e03565b61046b611e6a565b6104de611e7f565b61046b611e9c565b6104b461091d366004614a70565b611eae565b6104be611ebf565b6104be611ee8565b61049161094036600461509b565b611f06565b6104be611f53565b6104b4611f76565b6104b4610963366004614a70565b611fd2565b6104b4610976366004614a70565b611fe3565b6104b46109893660046150c9565b612068565b61046b61099c366004614a70565b612157565b6000806109ad83612184565b600101549392505050565b60006001600160e01b03198216632483248360e11b14806109dd57506109dd826121d8565b92915050565b6109eb6121fd565b816001600160a01b03166109fd612251565b6040516001600160601b03841681526001600160a01b0391909116907f1266dd9a36c3109e9494da97febae6bb0a79426e9c9aaa8763387454373e1f529060200160405180910390a3610a50828261225b565b5050565b6000806000805160206156608339815191525b546001600160a01b031692915050565b6000805160206156808339815191528054606091908190610a9790615115565b80601f0160208091040260200160405190810160405280929190818152602001828054610ac390615115565b8015610b105780601f10610ae557610100808354040283529160200191610b10565b820191906000526020600020905b815481529060010190602001808311610af357829003601f168201915b505050505091505090565b600080610b2661230c565b6009015460ff1692915050565b6000610b3e82612330565b506109dd82612368565b610b506123a2565b81610b5b30826123d3565b610b6583836124cb565b505050565b610b726123a2565b610b7a6121fd565b6000610b8461230c565b9050816000819003610ba957604051631949fde760e01b815260040160405180910390fd5b6004820154600003610bcd57604051622dc1c960e71b815260040160405180910390fd5b60005b81811015610d475760088301546000868684818110610bf157610bf161514f565b610c079260206040909202019081019150614a70565b90506000878785818110610c1d57610c1d61514f565b90506040020160200135905080600003610c5c57600282828b60405163f75947bd60e01b8152600401610c539493929190615165565b60405180910390fd5b85546008870154610c6e9083906151ad565b1115610c9657600682828b60405163f75947bd60e01b8152600401610c539493929190615165565b60005b81811015610d1e57610cbf83610caf83876151ad565b610cba9060016151ad565b6124dd565b6001600160a01b0383167fedfe61821f246e642ef4a67939984404b1f429fe98452fe84992ec60c5b42777610cf483876151ad565b610cff9060016151ad565b60408051918252602082018e90520160405180910390a2600101610c99565b5080866008016000828254610d3391906151ad565b909155505060019093019250610bd0915050565b505050505050565b610d576121fd565b610d6081612542565b50565b600080610d6f83612184565b600201549392505050565b905090565b600080610d8a61230c565b6008015492915050565b610d9c6121fd565b6000610da661230c565b8054909150841180610db6575083155b80610dbf575082155b80610dc957508383115b15610df1576040516379e57de160e11b81526004810185905260248101849052604401610c53565b8060010154831115610e265760018101546040516313adb2a960e11b8152610c53918591600401918252602082015260400190565b6004810154610e33612251565b6040805187815260208101879052908101859052606081018390526001600160a01b0391909116907f21e1aa7f400a90a7e77ab0176b81222f0f927b289ef67fabcb30a56da2c506b19060800160405180910390a2600482018054600101808255600082905286919083908110610eac57610eac61514f565b90600052602060002090600502016000018190555083826004018281548110610ed757610ed761514f565b90600052602060002090600502016001018190555082826004018281548110610f0257610f0261514f565b9060005260206000209060050201600201819055505050505050565b610f266123a2565b6000610f30612251565b90506000610f3d8761154c565b9050816001600160a01b0316816001600160a01b031614610f77578187826040516364283d7b60e01b8152600401610c53939291906151c0565b610f858288888888886125ef565b610f8f87876126a1565b50505050505050565b610fa06123a2565b82610fa9612251565b6001600160a01b0316816001600160a01b031614610fd257610fd230610fcd612251565b6123d3565b610fdd84848461272f565b50505050565b6060610fed6123a2565b610ff56127a7565b6000610fff61230c565b600481015490915060000361102657604051622dc1c960e71b815260040160405180910390fd5b60058101546001600160a01b031661103c612251565b6001600160a01b03161461107757611052612251565b6040516339e3563760e11b81526001600160a01b039091166004820152602401610c53565b61108488878787876127df565b600061108f87612184565b905061109d818a8a8a61288f565b925050506110b8600160008051602061570083398151915255565b9695505050505050565b6110ca6123a2565b856110d3612251565b6001600160a01b0316816001600160a01b0316146110f7576110f730610fcd612251565b6001600160a01b03861661112157604051633250574960e11b815260006004820152602401610c53565b600061112b612251565b90508460005b818110156111e957600088888381811061114d5761114d61514f565b90506020020135905060006111638b8387612af6565b90508b6001600160a01b0316816001600160a01b03161461119d578b82826040516364283d7b60e01b8152600401610c53939291906151c0565b6111df8c8c848b8b8080601f016020809104026020016040519081016040528093929190818152602001838380828437600092019190915250612c0092505050565b5050600101611131565b50505050505050505050565b60008281527fdaedc9ab023613a7caf35e703657e986ccfad7e3eb0af93a2853f8d65dd86b01602090815260408083208151808301909252546001600160a01b038116808352600160a01b9091046001600160601b0316928201929092528291600080516020615740833981519152919061129957506040805180820190915281546001600160a01b0381168252600160a01b90046001600160601b031660208201525b6020810151600090612710906112b8906001600160601b0316886151e3565b6112c291906151fa565b9151945090925050505b9250929050565b6000806112df83612184565b600301549392505050565b6112f26121fd565b6112fa612d29565b611302612d59565b565b610b6583838360405180602001604052806000815250611cb5565b6113276123a2565b610d6081612dbf565b60008061133b61230c565b6001015492915050565b61134d6121fd565b600061135761230c565b6004810154909150821061137d57604051622dc1c960e71b815260040160405180910390fd5b60008160040183815481106113945761139461514f565b60009182526020909120600590910201555050565b6000806113b584612184565b6001600160a01b03841660009081526004909101602052604090205491505092915050565b6000806113e683612184565b549392505050565b6113f66121fd565b6114008282612e54565b604051600019906000907f6bd5c950a8d8df17f772f5af37cb3655737899cbf903264b9795592da439661c908290a35050565b6000805160206156a0833981519152546000906001600160a01b038084169116146109dd565b6114616121fd565b816001600160a01b031683611474612251565b6040516001600160601b03851681526001600160a01b0391909116907f80398053543636fe8ebda0b83661b13671543aa7c4ff209b9989e22df937c93f9060200160405180910390a4610b65838383612ee4565b6114d06121fd565b60006114da61230c565b9050816001600160a01b03166114ee612251565b6001600160a01b03167fe5abd32cd7fbfdeddb287246fb85d294ac6065fe51ce497c5c6119849e726ca860405160405180910390a360090180546001600160a01b0390921661010002610100600160a81b0319909216919091179055565b60006109dd82612330565b61155f6121fd565b610d6081612fb7565b60006000805160206156808339815191526001600160a01b0383166115a3576040516322718ad960e21b815260006004820152602401610c53565b6001600160a01b039092166000908152600390920160205250604090205490565b6115cc6121fd565b6113026000613083565b6115de6123a2565b6115e66127a7565b60006115f061230c565b6004810154909150600081900361161957604051622dc1c960e71b815260040160405180910390fd5b60058201546001600160a01b031661162f612251565b6001600160a01b03161461164557611052612251565b611651878686866130bb565b600061165e60018361521c565b905060008360040182815481106116775761167761514f565b90600052602060002090600502019050611693818a8a8561288f565b50505050506116af600160008051602061570083398151915255565b5050505050565b6116be6121fd565b60006116c861230c565b600981015490915060ff16156116f1576040516309877f3560e31b815260040160405180910390fd5b60098101805460ff19166001179055611708612251565b6001600160a01b03167f87c17d0e9338ee3c159be69a99891df1590dd083a3777b03bfdb241d41e9d30460405160405180910390a250565b600061174a612251565b9050806001600160a01b031661175e611ebf565b6001600160a01b0316146117905760405163118cdaa760e01b81526001600160a01b0382166004820152602401610c53565b610d6081613083565b6000806000805160206156a0833981519152610a67565b6117b86121fd565b610d6081613171565b6117c96121fd565b6117d16123a2565b611302613222565b6117e16121fd565b806117ea612251565b6001600160a01b03167fdf2990aaa44e731e41ae9d23d42384a4b75061aa55d335606115b3deb765944c60405160405180910390a360009081527fdaedc9ab023613a7caf35e703657e986ccfad7e3eb0af93a2853f8d65dd86b016020526040812055565b6000807f9016d09d72d40fdae2fd8ceac6b6234c7706214fd39c1cd1e609a0528c199300610a67565b7f80bb2b638cc20bc4d0a60d66940f3ab4a00c1d7b313497ca82fb0b4ab0079301805460609160008051602061568083398151915291610a9790615115565b6000806118c261230c565b60009384526006016020525050604090205490565b6118df6121fd565b60006118e961230c565b905083821461190b57604051631949fde760e01b815260040160405180910390fd5b60005b84811015610d47578383828181106119285761192861514f565b905060200201602081019061193d919061522f565b82600a0160008888858181106119555761195561514f565b905060200201602081019061196a9190614a70565b6001600160a01b031681526020810191909152604001600020805460ff19169115159190911790558585828181106119a4576119a461514f565b90506020020160208101906119b99190614a70565b6001600160a01b03166119ca612251565b6001600160a01b03167f0be9858ec98f56c4daff03a3b7f8d15b33a7c1d2e0f1429b7f968f854b5d676d868685818110611a0657611a0661514f565b9050602002016020810190611a1b919061522f565b604051901515815260200160405180910390a360010161190e565b611a3e6121fd565b6000611a4861230c565b600981015490915060ff16611a7057604051633f77cf0b60e21b815260040160405180910390fd5b60098101805460ff19169055611a84612251565b6001600160a01b03167fc1258e2781f6fca80c30c40200f57fd8171a2737a63ef1375dea6fae520ede6060405160405180910390a250565b611ac46121fd565b610d608161326d565b600080611ad861230c565b60048101549091508510611af0576001915050611b28565b6000816004018681548110611b0757611b0761514f565b90600052602060002090600502019050611b23828287876132e8565b925050505b9392505050565b611b376123a2565b81611b4230826123d3565b610b6583836133b8565b611b546121fd565b6000611b5f836133ca565b90506001600160a01b038116611b8b57604051637e27328960e01b815260048101849052602401610c53565b610b6583836126a1565b611b9d6123a2565b6000611ba7612251565b90506000611bb48661154c565b9050816001600160a01b0316816001600160a01b031614611bee578186826040516364283d7b60e01b8152600401610c53939291906151c0565b611bfa82868686613404565b60405186907ff8e1a15aba9398e019f0b49df1a4fde98ee17ae345cb5f6b5e2c27f5033e8ce790600090a2505050505050565b611c356121fd565b610d60816134b7565b611c466121fd565b610a508282613558565b600080611c5b61230c565b600501546001600160a01b031692915050565b600080600080516020615720833981519152610a67565b600080611c9061230c565b6001600160a01b039093166000908152600a9093016020525050604090205460ff1690565b611cbd6123a2565b83611cc6612251565b6001600160a01b0316816001600160a01b031614611cea57611cea30610fcd612251565b6116af858585856137b5565b7ff0c57e16840df040f15088dc2f81fe391c3923bec73e23a9662efc9c229c6a008054600160401b810460ff1615906001600160401b0316600081158015611d3b5750825b90506000826001600160401b03166001148015611d575750303b155b905081158015611d65575080155b15611d835760405163f92ee8a960e01b815260040160405180910390fd5b845467ffffffffffffffff191660011785558315611dad57845460ff60401b1916600160401b1785555b611db6866137cc565b8315610d4757845460ff60401b19168555604051600181527fc7f505b2f371ae2175ee4913f4499e1f2633a7b5936321eed1cdaeb6115181d29060200160405180910390a1505050505050565b6060611e0e82612330565b506000611e19611e7f565b90506000815111611e395760405180602001604052806000815250611b28565b80611e4384613a9e565b604051602001611e5492919061524c565b6040516020818303038152906040529392505050565b600080611e7561230c565b6004015492915050565b60606000611e8b61230c565b9050806003018054610a9790615115565b600080611ea761230c565b5492915050565b611eb66121fd565b610d6081613b30565b6000807f237e158222e3e6968b72b9db0d8043aacf074ad9f650f0d1606b4d82ee432c00610a67565b600080611ef361230c565b600201546001600160a01b031692915050565b6001600160a01b0391821660009081527f80bb2b638cc20bc4d0a60d66940f3ab4a00c1d7b313497ca82fb0b4ab00793056020908152604080832093909416825291909152205460ff1690565b600080611f5e61230c565b6009015461010090046001600160a01b031692915050565b611f7e6121fd565b611f86612251565b6001600160a01b03167f2dfe49916b7d76a5f1ebe1ab9a2618777c34ea6e0ba6c52d9369929a43a4a6de60405160405180910390a2611302600060008051602061574083398151915255565b611fda6121fd565b610d6081613bab565b611feb6121fd565b7f237e158222e3e6968b72b9db0d8043aacf074ad9f650f0d1606b4d82ee432c0080546001600160a01b0319166001600160a01b038316908117825561202f61184f565b6001600160a01b03167f38d16b8cac22d99fc7c124b9cd0de2d3fa1faef420bfe791d8c362d765e2270060405160405180910390a35050565b6120706123a2565b83612079612251565b6001600160a01b0316816001600160a01b03161461209d5761209d30610fcd612251565b6001600160a01b0384166120c757604051633250574960e11b815260006004820152602401610c53565b60006120d1612251565b90508260005b8181101561214d5760008686838181106120f3576120f361514f565b9050602002013590506000612109898387612af6565b9050896001600160a01b0316816001600160a01b031614612143578982826040516364283d7b60e01b8152600401610c53939291906151c0565b50506001016120d7565b5050505050505050565b60008061216261230c565b6001600160a01b03909316600090815260079093016020525050604090205490565b60008061218f61230c565b60048101549091508084106121ac576121a960018261521c565b93505b8160040184815481106121c1576121c161514f565b906000526020600020906005020192505050919050565b60006001600160e01b0319821663152a902d60e11b14806109dd57506109dd82613c5b565b612205612251565b6001600160a01b031661221661184f565b6001600160a01b0316146113025761222c612251565b60405163118cdaa760e01b81526001600160a01b039091166004820152602401610c53565b6000610d7a613cab565b6000805160206157408339815191526127106001600160601b0383168110156122a957604051636f483d0960e01b81526001600160601b038416600482015260248101829052604401610c53565b6001600160a01b0384166122d357604051635b6cc80560e11b815260006004820152602401610c53565b50604080518082019091526001600160a01b039093168084526001600160601b039092166020909301839052600160a01b909202179055565b7f54137d560768c3c24834e09621a4fafd063f4a5812823197e84bcd3fbaff7d0090565b60008061233c836133ca565b90506001600160a01b0381166109dd57604051637e27328960e01b815260048101849052602401610c53565b60009081527f80bb2b638cc20bc4d0a60d66940f3ab4a00c1d7b313497ca82fb0b4ab007930460205260409020546001600160a01b031690565b6000805160206156e08339815191525460ff16156113025760405163d93c066560e01b815260040160405180910390fd5b60008051602061572083398151915280546001600160a01b0316803b15610fdd57604051633185c44d60e21b81526001600160a01b038581166004830152848116602483015282169063c617113490604401602060405180830381865afa92505050801561245e575060408051601f3d908101601f1916820190925261245b9181019061527b565b60015b612498573d80801561248c576040519150601f19603f3d011682016040523d82523d6000602084013e612491565b606091505b50506124a7565b80156124a5575050505050565b505b604051633b79c77360e21b81526001600160a01b0384166004820152602401610c53565b610a5082826124d8612251565b613d13565b6001600160a01b03821661250757604051633250574960e11b815260006004820152602401610c53565b600061251583836000612af6565b90506001600160a01b03811615610b65576040516339e3563760e11b815260006004820152602401610c53565b6000805160206156608339815191526001600160a01b0382166125835760405163a6ff6cd160e01b81526001600160a01b0383166004820152602401610c53565b80546001600160a01b03808416911661259a612251565b6001600160a01b03167f827b059b420f2ae50bebd7002ab386062a31770f2e54269507162880bfb793b960405160405180910390a480546001600160a01b0319166001600160a01b0392909216919091179055565b60008381526000805160206156c08339815191526020526040812054600080516020615660833981519152919060ff166004811115612630576126306149c1565b14158061265f575080546001600160a01b0316612653888630468b8b8a8a613d20565b6001600160a01b031614155b1561268057604051630a57f30960e31b815260048101859052602401610c53565b6000938452600101602052505060409020805460ff19166002179055505050565b60006126ab61230c565b60008481526006820160205260409020839055905081836126ca612251565b6001600160a01b03167f8f5bc4e4444be2e737fe62ea6160f37981fd2ecfcda061928373d882eceaf3fa60405160405180910390a460405183907ff8e1a15aba9398e019f0b49df1a4fde98ee17ae345cb5f6b5e2c27f5033e8ce790600090a2505050565b6001600160a01b03821661275957604051633250574960e11b815260006004820152602401610c53565b600061276d8383612768612251565b612af6565b9050836001600160a01b0316816001600160a01b031614610fdd578382826040516364283d7b60e01b8152600401610c53939291906151c0565b6000805160206157008339815191528054600119016127d957604051633ee5aeb560e01b815260040160405180910390fd5b60029055565b60008381526000805160206156c08339815191526020526040812054600080516020615660833981519152919060ff166004811115612820576128206149c1565b14158061284e575080546001600160a01b031661284287878730468989613e0a565b6001600160a01b031614155b1561286f57604051630a57f30960e31b815260048101859052602401610c53565b6000938452600101602052505060409020805460ff191660041790555050565b6060600061289b61230c565b905060006128ab828888886132e8565b905060008160068111156128c1576128c16149c1565b146128e7578086868660405163f75947bd60e01b8152600401610c539493929190615165565b60008588600201546128f991906151e3565b905080156129245760058301546002840154612924916001600160a01b03908116918a911684613e55565b60088301546001600160a01b038816600090815260048a016020526040812080548992906129539084906151ad565b925050819055508689600301600082825461296e91906151ad565b925050819055508684600801600082825461298991906151ad565b90915550506001600160a01b0388166000908152600785016020526040812080548992906129b89084906151ad565b9091555060009050876001600160401b038111156129d8576129d8614f65565b604051908082528060200260200182016040528015612a01578160200160208202803683370190505b50905060005b88811015612ad257612a1981846151ad565b612a249060016151ad565b828281518110612a3657612a3661514f565b602002602001018181525050612a658a838381518110612a5857612a5861514f565b6020026020010151613eaf565b896001600160a01b03167fedfe61821f246e642ef4a67939984404b1f429fe98452fe84992ec60c5b42777838381518110612aa257612aa261514f565b60200260200101518a604051612ac2929190918252602082015260400190565b60405180910390a2600101612a07565b509450505050505b949350505050565b600160008051602061570083398151915255565b600060008051602061568083398151915281612b11856133ca565b90506001600160a01b03841615612b2d57612b2d818587613ec9565b6001600160a01b03811615612b6d57612b4a600086600080613f2d565b6001600160a01b0381166000908152600383016020526040902080546000190190555b6001600160a01b03861615612b9e576001600160a01b03861660009081526003830160205260409020805460010190555b600085815260028301602052604080822080546001600160a01b0319166001600160a01b038a811691821790925591518893918516917fddf252ad1be2c89b69c2b068fc378daa952ba7f163c4a11628f55a4df523b3ef91a495945050505050565b6001600160a01b0383163b15610fdd57826001600160a01b031663150b7a02612c27612251565b8685856040518563ffffffff1660e01b8152600401612c499493929190615298565b6020604051808303816000875af1925050508015612c84575060408051601f3d908101601f19168201909252612c81918101906152cb565b60015b612ced573d808015612cb2576040519150601f19603f3d011682016040523d82523d6000602084013e612cb7565b606091505b508051600003612ce557604051633250574960e11b81526001600160a01b0385166004820152602401610c53565b805181602001fd5b6001600160e01b03198116630a85bd0160e11b146116af57604051633250574960e11b81526001600160a01b0385166004820152602401610c53565b6000805160206156e08339815191525460ff1661130257604051638dfc202b60e01b815260040160405180910390fd5b612d61612d29565b6000805160206156e0833981519152805460ff191681557f5db9ee0a495bf2e6ff9c91a7834c1ba4fdd244a5e8aa4e537bd38aeae4b073aa612da1612251565b6040516001600160a01b03909116815260200160405180910390a150565b6000612dc961230c565b600981015490915060ff16612df157604051633f77cf0b60e21b815260040160405180910390fd5b6000612dfb612251565b90506000612e0b60008584612af6565b9050806001600160a01b031684836001600160a01b03167f0fb81ee2634a482264d8193cc9e1703d814cb3f5a1e239dc2580496bf571df7760405160405180910390a450505050565b6000612e5e61230c565b90506000829003612e8657828260405163293f95fd60e21b8152600401610c53929190615311565b612e8e612251565b6001600160a01b03167f0589f6de204c3ac121129f5111ee5b702672a7e80758887b289d4b23a17b743a826003018585604051612ecd93929190615325565b60405180910390a260038101610fdd838583615403565b6000805160206157408339815191526127106001600160601b038316811015612f395760405163dfd1fc1b60e01b8152600481018690526001600160601b038416602482015260448101829052606401610c53565b6001600160a01b038416612f6a57604051634b4f842960e11b81526004810186905260006024820152604401610c53565b506040805180820182526001600160a01b0394851681526001600160601b03938416602080830191825260009788526001909401909352942093519051909116600160a01b029116179055565b6000612fc161230c565b905081600003612ff4576008810154604051637c26552b60e01b8152600060048201526024810191909152604401610c53565b8060080154821015613029576008810154604051637c26552b60e01b8152610c53918491600401918252602082015260400190565b613031612251565b6001600160a01b03167fccc3b7560f9d81f26c619129ba9fa74ded9a6edb555a04655baaeca673e0a809826000015484604051613078929190918252602082015260400190565b60405180910390a255565b7f237e158222e3e6968b72b9db0d8043aacf074ad9f650f0d1606b4d82ee432c0080546001600160a01b0319168155610a5082614043565b60008381526000805160206156c08339815191526020526040812054600080516020615660833981519152919060ff1660048111156130fc576130fc6149c1565b141580613129575080546001600160a01b031661311d8686304688886140b4565b6001600160a01b031614155b1561314a57604051630a57f30960e31b815260048101859052602401610c53565b600084815260018281016020526040909120805460ff191682805b02179055505050505050565b600061317b61230c565b90506001600160a01b0382163b6131b05760405163e5f21c1160e01b81526001600160a01b0383166004820152602401610c53565b60058101546001600160a01b0380841691166131ca612251565b6001600160a01b03167f5d3eb288d70f5778687463132ce6b9fbf9196273269c75cf04deec982da5b6ef60405160405180910390a460050180546001600160a01b0319166001600160a01b0392909216919091179055565b61322a6123a2565b6000805160206156e0833981519152805460ff191660011781557f62e78cea01bee320cd4e420270b5ea74000d11b0c9f74754ebdbfc544b05a258612da1612251565b60008051602061572083398151915280546001600160a01b038381169116613293612251565b6001600160a01b03167f843ddfc5ccee52d319111d9be8a67a9f91517b207a5242a2faa1cbb10b621fee60405160405180910390a480546001600160a01b0319166001600160a01b0392909216919091179055565b60018401546001600160a01b03831660009081526007860160205260408120549091906133169084906151ad565b111561332457506003612ada565b8160000361333457506002612ada565b835460038501546133469084906151ad565b111561335457506004612ada565b60018401546001600160a01b038416600090815260048601602052604090205461337f9084906151ad565b111561338d57506005612ada565b8454600886015461339f9084906151ad565b11156133ad57506006612ada565b506000949350505050565b610a506133c3612251565b83836140f7565b60009081527f80bb2b638cc20bc4d0a60d66940f3ab4a00c1d7b313497ca82fb0b4ab007930260205260409020546001600160a01b031690565b60008381526000805160206156c08339815191526020526040812054600080516020615660833981519152919060ff166004811115613445576134456149c1565b141580613472575080546001600160a01b03166134668686304688886141a8565b6001600160a01b031614155b1561349357604051630a57f30960e31b815260048101859052602401610c53565b600084815260018083016020526040909120805460039260ff199091169083613165565b60006134c161230c565b90508115806134d05750805482115b156134fb578054604051632318a67f60e01b8152610c53918491600401918252602082015260400190565b613503612251565b6001600160a01b03167fed69b973701d6149c56f9e20d02a3f2b5664904a87de656aceb500894a2f04f582600101548460405161354a929190918252602082015260400190565b60405180910390a260010155565b60008051602061572083398151915280546001600160a01b0316803b1515806135a857613583612251565b60405163f5d5226760e01b81526001600160a01b039091166004820152602401610c53565b60405163c3c5a54760e01b81523060048201526001600160a01b0383169063c3c5a547906024016020604051808303816000875af11580156135ee573d6000803e3d6000fd5b505050506040513d601f19601f82011682018060405250810190613612919061527b565b156136445761361f612251565b6040516345ed80e960e01b81526001600160a01b039091166004820152602401610c53565b83156136b157604051633e9f1edf60e11b81523060048201526001600160a01b038681166024830152831690637d3e3dbe906044015b600060405180830381600087803b15801561369457600080fd5b505af11580156136a8573d6000803e3d6000fd5b5050505061374e565b6001600160a01b038516156136f45760405163a0af290360e01b81523060048201526001600160a01b03868116602483015283169063a0af29039060440161367a565b604051632210724360e11b81523060048201526001600160a01b03831690634420e48690602401600060405180830381600087803b15801561373557600080fd5b505af1158015613749573d6000803e3d6000fd5b505050505b846001600160a01b0316826001600160a01b031661376a612251565b6001600160a01b03167f3ff6751845562342150f01f256e77e1a7f0a5c3e49cd1307c5f142062fb2f105876040516137a6911515815260200190565b60405180910390a45050505050565b6137c0848484610f98565b610fdd84848484612c00565b6137d46141fd565b6137e160408201826154c2565b9050600003613812576137f760408201826154c2565b604051637f19f48d60e01b8152600401610c53929190615311565b61381f60608201826154c2565b90506000036138505761383560608201826154c2565b60405163bc7e3f5560e01b8152600401610c53929190615311565b613858614246565b61386d6138686020830183614a70565b614256565b613875614267565b61388d61388860e0830160c08401614a70565b613b30565b61391961389d60408301836154c2565b8080601f0160208091040260200160405190810160405280939291908181526020018383808284376000920191909152506138df9250505060608401846154c2565b8080601f01602080910402602001604051908101604052809392919081815260200183838082843760009201919091525061426f92505050565b613921614281565b61393661393160208301836154c2565b612e54565b61394e61394960a0830160808401614a70565b613bab565b61396661396160c0830160a08401614a70565b612542565b61397f61397a610100830160e08401614a70565b613171565b61398d816101000135612fb7565b61399b8161012001356134b7565b6139a860608201826154c2565b6040516139b6929190615508565b60405180910390208180604001906139ce91906154c2565b6040516139dc929190615508565b6040519081900390206139f260208401846154c2565b604051613a00929190615508565b6040519081900390207f5d35db76f96b892d6ad10744ed938e685ef7da161e34e163fc21a97feca5b8b7613a3a60a0860160808701614a70565b613a4a60c0870160a08801614a70565b613a5b610100880160e08901614a70565b604080516001600160a01b03948516815292841660208401529216818301526101008701356060820152610120870135608082015290519081900360a00190a450565b60606000613aab83614291565b60010190506000816001600160401b03811115613aca57613aca614f65565b6040519080825280601f01601f191660200182016040528015613af4576020820181803683370190505b5090508181016020015b600019016f181899199a1a9b1b9c1cb0b131b232b360811b600a86061a8153600a8504945084613afe57509392505050565b6000805160206156a083398151915280546001600160a01b038381169116613b56612251565b6001600160a01b03167f8ca022029d8ff7ad974913f8970aeed6c5e0e7eaf494a0c5b262249f6b5759e560405160405180910390a480546001600160a01b0319166001600160a01b0392909216919091179055565b6000613bb561230c565b90506001600160a01b038216613be9576040516312b31bfd60e11b81526001600160a01b0383166004820152602401610c53565b60028101546001600160a01b038084169116613c03612251565b6001600160a01b03167fdaeb4cc3125e2ffb3c047d15e86dbcaac1e656b8d615dcbe28767cd8aac289ad60405160405180910390a460020180546001600160a01b0319166001600160a01b0392909216919091179055565b60006001600160e01b031982166380ac58cd60e01b1480613c8c57506001600160e01b03198216635b5e139f60e01b145b806109dd57506301ffc9a760e01b6001600160e01b03198316146109dd565b6000368160146000805160206156a0833981519152549091506001600160a01b031633148015613cdb5750808210155b15613d0b57600036613ced838561521c565b613cf8928290615518565b613d0191615542565b60601c9250505090565b339250505090565b610b658383836001613f2d565b604080516001600160a01b03808b16602083015291810189905290871660608201526080810186905260a0810185905260c08101849052600090613dfd9060e0015b60408051601f198184030181529082905280516020918201207f19457468657265756d205369676e6564204d6573736167653a0a33320000000091830191909152603c820152605c016040516020818303038152906040528051906020012084848080601f01602080910402602001604051908101604052809392919081815260200183838082843760009201919091525061436992505050565b9998505050505050505050565b604080516001600160a01b03808a16602083015291810188905260608101879052908516608082015260a08101849052600090613e499060c001613d62565b98975050505050505050565b604080516001600160a01b0385811660248301528416604482015260648082018490528251808303909101815260849091019091526020810180516001600160e01b03166323b872dd60e01b179052610fdd908590614393565b610a508282604051806020016040528060008152506143f6565b613ed483838361440d565b610b65576001600160a01b038316613f0257604051637e27328960e01b815260048101829052602401610c53565b60405163177e802f60e01b81526001600160a01b038316600482015260248101829052604401610c53565b6000805160206156808339815191528180613f5057506001600160a01b03831615155b15614012576000613f6085612330565b90506001600160a01b03841615801590613f8c5750836001600160a01b0316816001600160a01b031614155b8015613f9f5750613f9d8185611f06565b155b15613fc85760405163a9fbf51f60e01b81526001600160a01b0385166004820152602401610c53565b82156140105784866001600160a01b0316826001600160a01b03167f8c5be1e5ebec7d5bd14f71427d1e84f3dd0314c0f7b2291e5b200ac8c7c3b92560405160405180910390a45b505b600093845260040160205250506040902080546001600160a01b0319166001600160a01b0392909216919091179055565b7f9016d09d72d40fdae2fd8ceac6b6234c7706214fd39c1cd1e609a0528c19930080546001600160a01b031981166001600160a01b03848116918217845560405192169182907f8be0079c531659141344cd1fd0a4f28419497f9722a3daafe3b4186f6b6457e090600090a3505050565b604080516001600160a01b0380891660208301529181018790529085166060820152608081018490526000906140ec9060a001613d62565b979650505050505050565b6000805160206156808339815191526001600160a01b03831661413857604051630b61174360e31b81526001600160a01b0384166004820152602401610c53565b6001600160a01b038481166000818152600584016020908152604080832094881680845294825291829020805460ff191687151590811790915591519182527f17307eab39ab6107e8899845ad3d59bd9653f200f220920489ca2b5937696c31910160405180910390a350505050565b604080516001600160a01b03808916602083015291810187905290851660608201526080810184905260a080820152600660c0820152651c995d99585b60d21b60e08201526000906140ec9061010001613d62565b7ff0c57e16840df040f15088dc2f81fe391c3923bec73e23a9662efc9c229c6a0054600160401b900460ff1661130257604051631afcd79f60e31b815260040160405180910390fd5b61424e6141fd565b611302614499565b61425e6141fd565b610d60816144a1565b6113026141fd565b6142776141fd565b610a5082826144d3565b6142896141fd565b611302614504565b60008072184f03e93ff9f4daa797ed6e38ed64bf6a1f0160401b83106142d05772184f03e93ff9f4daa797ed6e38ed64bf6a1f0160401b830492506040015b6d04ee2d6d415b85acef810000000083106142fc576d04ee2d6d415b85acef8100000000830492506020015b662386f26fc10000831061431a57662386f26fc10000830492506010015b6305f5e1008310614332576305f5e100830492506008015b612710831061434657612710830492506004015b60648310614358576064830492506002015b600a83106109dd5760010192915050565b6000806000806143798686614525565b9250925092506143898282614572565b5090949350505050565b60006143a86001600160a01b0384168361462b565b905080516000141580156143cd5750808060200190518101906143cb919061527b565b155b15610b6557604051635274afe760e01b81526001600160a01b0384166004820152602401610c53565b61440083836124dd565b610b656000848484612c00565b60008061441861230c565b600981015490915061010090046001600160a01b031615801590614450575060098101546001600160a01b0385811661010090920416145b801561447657506001600160a01b0385166000908152600a8201602052604090205460ff165b15614485576001915050611b28565b614490858585614639565b95945050505050565b612ae26141fd565b6144a96141fd565b6001600160a01b03811661179057604051631e4fbdf760e01b815260006004820152602401610c53565b6144db6141fd565b600080516020615680833981519152806144f58482615585565b5060018101610fdd8382615585565b61450c6141fd565b6000805160206156e0833981519152805460ff19169055565b6000806000835160410361455f5760208401516040850151606086015160001a6145518882858561469e565b95509550955050505061456b565b50508151600091506002905b9250925092565b6000826003811115614586576145866149c1565b0361458f575050565b60018260038111156145a3576145a36149c1565b036145c15760405163f645eedf60e01b815260040160405180910390fd5b60028260038111156145d5576145d56149c1565b036145f65760405163fce698f760e01b815260048101829052602401610c53565b600382600381111561460a5761460a6149c1565b03610a50576040516335e2f38360e21b815260048101829052602401610c53565b6060611b288383600061476d565b60006001600160a01b03831615801590612ada5750826001600160a01b0316846001600160a01b0316148061467357506146738484611f06565b80612ada5750826001600160a01b031661468c83612368565b6001600160a01b031614949350505050565b600080807f7fffffffffffffffffffffffffffffff5d576e7357a4501ddfe92f46681b20a08411156146d95750600091506003905082614763565b604080516000808252602082018084528a905260ff891692820192909252606081018790526080810186905260019060a0016020604051602081039080840390855afa15801561472d573d6000803e3d6000fd5b5050604051601f1901519150506001600160a01b03811661475957506000925060019150829050614763565b9250600091508190505b9450945094915050565b6060814710156147925760405163cd78605960e01b8152306004820152602401610c53565b600080856001600160a01b031684866040516147ae9190615643565b60006040518083038185875af1925050503d80600081146147eb576040519150601f19603f3d011682016040523d82523d6000602084013e6147f0565b606091505b5091509150611b238683836060826148105761480b82614857565b611b28565b815115801561482757506001600160a01b0384163b155b1561485057604051639996b31560e01b81526001600160a01b0385166004820152602401610c53565b5080611b28565b8051156148675780518082602001fd5b604051630a12f52160e11b815260040160405180910390fd5b60006020828403121561489257600080fd5b5035919050565b6001600160e01b031981168114610d6057600080fd5b6000602082840312156148c157600080fd5b8135611b2881614899565b6001600160a01b0381168114610d6057600080fd5b80356001600160601b03811681146148f857600080fd5b919050565b6000806040838503121561491057600080fd5b823561491b816148cc565b9150614929602084016148e1565b90509250929050565b60005b8381101561494d578181015183820152602001614935565b50506000910152565b6000815180845261496e816020860160208601614932565b601f01601f19169290920160200192915050565b602081526000611b286020830184614956565b600080604083850312156149a857600080fd5b82356149b3816148cc565b946020939093013593505050565b634e487b7160e01b600052602160045260246000fd5b60208101600583106149eb576149eb6149c1565b91905290565b600080600060408486031215614a0657600080fd5b8335925060208401356001600160401b03811115614a2357600080fd5b8401601f81018613614a3457600080fd5b80356001600160401b03811115614a4a57600080fd5b8660208260061b8401011115614a5f57600080fd5b939660209190910195509293505050565b600060208284031215614a8257600080fd5b8135611b28816148cc565b600080600060608486031215614aa257600080fd5b505081359360208301359350604090920135919050565b60008083601f840112614acb57600080fd5b5081356001600160401b03811115614ae257600080fd5b6020830191508360208285010111156112cc57600080fd5b600080600080600060808688031215614b1257600080fd5b85359450602086013593506040860135925060608601356001600160401b03811115614b3d57600080fd5b614b4988828901614ab9565b969995985093965092949392505050565b600080600060608486031215614b6f57600080fd5b8335614b7a816148cc565b92506020840135614b8a816148cc565b929592945050506040919091013590565b60008060008060008060a08789031215614bb457600080fd5b8635614bbf816148cc565b955060208701359450604087013593506060870135925060808701356001600160401b03811115614bef57600080fd5b614bfb89828a01614ab9565b979a9699509497509295939492505050565b602080825282518282018190526000918401906040840190835b81811015614c45578351835260209384019390920191600101614c27565b509095945050505050565b60008083601f840112614c6257600080fd5b5081356001600160401b03811115614c7957600080fd5b6020830191508360208260051b85010111156112cc57600080fd5b60008060008060008060808789031215614cad57600080fd5b8635614cb8816148cc565b95506020870135614cc8816148cc565b945060408701356001600160401b03811115614ce357600080fd5b614cef89828a01614c50565b90955093505060608701356001600160401b03811115614bef57600080fd5b60008060408385031215614d2157600080fd5b50508035926020909101359150565b60008060408385031215614d4357600080fd5b823591506020830135614d55816148cc565b809150509250929050565b60008060208385031215614d7357600080fd5b82356001600160401b03811115614d8957600080fd5b614d9585828601614ab9565b90969095509350505050565b600080600060608486031215614db657600080fd5b833592506020840135614dc8816148cc565b9150614dd6604085016148e1565b90509250925092565b600080600080600060808688031215614df757600080fd5b8535614e02816148cc565b9450602086013593506040860135925060608601356001600160401b03811115614b3d57600080fd5b60008060008060408587031215614e4157600080fd5b84356001600160401b03811115614e5757600080fd5b614e6387828801614c50565b90955093505060208501356001600160401b03811115614e8257600080fd5b614e8e87828801614c50565b95989497509550505050565b600080600060608486031215614eaf57600080fd5b833592506020840135614b8a816148cc565b60078110614ed157614ed16149c1565b9052565b602081016109dd8284614ec1565b8015158114610d6057600080fd5b60008060408385031215614f0457600080fd5b8235614f0f816148cc565b91506020830135614d5581614ee3565b60008060008060608587031215614f3557600080fd5b843593506020850135925060408501356001600160401b03811115614f5957600080fd5b614e8e87828801614ab9565b634e487b7160e01b600052604160045260246000fd5b60008060008060808587031215614f9157600080fd5b8435614f9c816148cc565b93506020850135614fac816148cc565b92506040850135915060608501356001600160401b03811115614fce57600080fd5b8501601f81018713614fdf57600080fd5b80356001600160401b03811115614ff857614ff8614f65565b604051601f8201601f19908116603f011681016001600160401b038111828210171561502657615026614f65565b60405281815282820160200189101561503e57600080fd5b8160208401602083013760006020838301015280935050505092959194509250565b60006020828403121561507257600080fd5b81356001600160401b0381111561508857600080fd5b82016101408185031215611b2857600080fd5b600080604083850312156150ae57600080fd5b82356150b9816148cc565b91506020830135614d55816148cc565b600080600080606085870312156150df57600080fd5b84356150ea816148cc565b935060208501356150fa816148cc565b925060408501356001600160401b03811115614e8257600080fd5b600181811c9082168061512957607f821691505b60208210810361514957634e487b7160e01b600052602260045260246000fd5b50919050565b634e487b7160e01b600052603260045260246000fd5b608081016151738287614ec1565b6001600160a01b039490941660208201526040810192909252606090910152919050565b634e487b7160e01b600052601160045260246000fd5b808201808211156109dd576109dd615197565b6001600160a01b0393841681526020810192909252909116604082015260600190565b80820281158282048414176109dd576109dd615197565b60008261521757634e487b7160e01b600052601260045260246000fd5b500490565b818103818111156109dd576109dd615197565b60006020828403121561524157600080fd5b8135611b2881614ee3565b6000835161525e818460208801614932565b835190830190615272818360208801614932565b01949350505050565b60006020828403121561528d57600080fd5b8151611b2881614ee3565b6001600160a01b03858116825284166020820152604081018390526080606082018190526000906110b890830184614956565b6000602082840312156152dd57600080fd5b8151611b2881614899565b81835281816020850137506000828201602090810191909152601f909101601f19169091010190565b602081526000612ada6020830184866152e8565b60408152600080855461533781615115565b80604086015260018216600081146153565760018114615372576153a6565b60ff1983166060870152606082151560051b87010193506153a6565b88600052602060002060005b8381101561539d5781548882016060015260019091019060200161537e565b87016060019450505b50505082810360208401526110b88185876152e8565b601f821115610b6557806000526020600020601f840160051c810160208510156153e35750805b601f840160051c820191505b818110156116af57600081556001016153ef565b6001600160401b0383111561541a5761541a614f65565b61542e836154288354615115565b836153bc565b6000601f841160018114615462576000851561544a5750838201355b600019600387901b1c1916600186901b1783556116af565b600083815260209020601f19861690835b828110156154935786850135825560209485019460019092019101615473565b50868210156154b05760001960f88860031b161c19848701351681555b505060018560011b0183555050505050565b6000808335601e198436030181126154d957600080fd5b8301803591506001600160401b038211156154f357600080fd5b6020019150368190038213156112cc57600080fd5b8183823760009101908152919050565b6000808585111561552857600080fd5b8386111561553557600080fd5b5050820193919092039150565b80356bffffffffffffffffffffffff19811690601484101561557e576001600160601b03196001600160601b03198560140360031b1b82161691505b5092915050565b81516001600160401b0381111561559e5761559e614f65565b6155b2816155ac8454615115565b846153bc565b6020601f8211600181146155e657600083156155ce5750848201515b600019600385901b1c1916600184901b1784556116af565b600084815260208120601f198516915b8281101561561657878501518255602094850194600190920191016155f6565b50848210156156345786840151600019600387901b60f8161c191681555b50505050600190811b01905550565b60008251615655818460208701614932565b919091019291505056fe40778db7ee4c29e622e04906f2c4ade86f805ca9734a7b64bb0f84f33335790080bb2b638cc20bc4d0a60d66940f3ab4a00c1d7b313497ca82fb0b4ab0079300269c7d123624135714769792dd28ef6db020f837bcb105cea22203ad17aa700040778db7ee4c29e622e04906f2c4ade86f805ca9734a7b64bb0f84f333357901cd5ed15c6e187e77e9aee88184c21f4f2182ab5827cb3b7e07fbedcd63f033009b779b17422d0df92223018b32b4d1fa46e071723d6817e2486d003becc55f0071a93d37b91262fe5ff5f64b534078b04fa3ca1f04b63abeac7b60ede712e800daedc9ab023613a7caf35e703657e986ccfad7e3eb0af93a2853f8d65dd86b00a26469706673582212200081f4260a0a5627d54693d319dec7622a6295dba95c631bcac79cf25607e5c164736f6c634300081a0033",
  "devdoc": {
    "author": "The Sandbox",
    "custom:security-contact": "contact-blockchain@sandbox.game",
    "details": "Implements the following features: - Upgradeable proxy pattern - Two-step ownership transfer - OpenSea and ERC2981 royalty standards - ERC4906 metadata update notifications - ERC165 interface detection - ERC2771 meta-transaction support - Burn tracking for game access control - ERC20-based minting with approveAndCall pattern - Batch minting and transfer operations",
    "errors": {
      "AddressEmptyCode(address)": [
        {
          "details": "There's no code at `target` (it is not a contract)."
        }
      ],
      "AddressInsufficientBalance(address)": [
        {
          "details": "The ETH balance of the account is not enough to perform the operation."
        }
      ],
      "AlreadyRegistered(address)": [
        {
          "params": {
            "operator": "that does the call"
          }
        }
      ],
      "CannotMint(uint8,address,uint256,uint256)": [
        {
          "params": {
            "amount": "amount to be checked if can be minted",
            "reason": "the reason for the denial",
            "wallet": "wallet to be checked if it can mint",
            "waveIndex": "the current wave index"
          }
        }
      ],
      "ECDSAInvalidSignature()": [
        {
          "details": "The signature derives the `address(0)`."
        }
      ],
      "ECDSAInvalidSignatureLength(uint256)": [
        {
          "details": "The signature has an invalid length."
        }
      ],
      "ECDSAInvalidSignatureS(bytes32)": [
        {
          "details": "The signature has an S value that is in the upper half order."
        }
      ],
      "ERC2981InvalidDefaultRoyalty(uint256,uint256)": [
        {
          "details": "The default royalty set is invalid (eg. (numerator / denominator) >= 1)."
        }
      ],
      "ERC2981InvalidDefaultRoyaltyReceiver(address)": [
        {
          "details": "The default royalty receiver is invalid."
        }
      ],
      "ERC2981InvalidTokenRoyalty(uint256,uint256,uint256)": [
        {
          "details": "The royalty set for an specific `tokenId` is invalid (eg. (numerator / denominator) >= 1)."
        }
      ],
      "ERC2981InvalidTokenRoyaltyReceiver(uint256,address)": [
        {
          "details": "The royalty receiver for `tokenId` is invalid."
        }
      ],
      "ERC721IncorrectOwner(address,uint256,address)": [
        {
          "details": "Indicates an error related to the ownership over a particular token. Used in transfers.",
          "params": {
            "owner": "Address of the current owner of a token.",
            "sender": "Address whose tokens are being transferred.",
            "tokenId": "Identifier number of a token."
          }
        }
      ],
      "ERC721InsufficientApproval(address,uint256)": [
        {
          "details": "Indicates a failure with the `operator`s approval. Used in transfers.",
          "params": {
            "operator": "Address that may be allowed to operate on tokens without being their owner.",
            "tokenId": "Identifier number of a token."
          }
        }
      ],
      "ERC721InvalidApprover(address)": [
        {
          "details": "Indicates a failure with the `approver` of a token to be approved. Used in approvals.",
          "params": {
            "approver": "Address initiating an approval operation."
          }
        }
      ],
      "ERC721InvalidOperator(address)": [
        {
          "details": "Indicates a failure with the `operator` to be approved. Used in approvals.",
          "params": {
            "operator": "Address that may be allowed to operate on tokens without being their owner."
          }
        }
      ],
      "ERC721InvalidOwner(address)": [
        {
          "details": "Indicates that an address can't be an owner. For example, `address(0)` is a forbidden owner in EIP-20. Used in balance queries.",
          "params": {
            "owner": "Address of the current owner of a token."
          }
        }
      ],
      "ERC721InvalidReceiver(address)": [
        {
          "details": "Indicates a failure with the token `receiver`. Used in transfers.",
          "params": {
            "receiver": "Address to which tokens are being transferred."
          }
        }
      ],
      "ERC721InvalidSender(address)": [
        {
          "details": "Indicates a failure with the token `sender`. Used in transfers.",
          "params": {
            "sender": "Address whose tokens are being transferred."
          }
        }
      ],
      "ERC721NonexistentToken(uint256)": [
        {
          "details": "Indicates a `tokenId` whose `owner` is the zero address.",
          "params": {
            "tokenId": "Identifier number of a token."
          }
        }
      ],
      "EnforcedPause()": [
        {
          "details": "The operation failed because the contract is paused."
        }
      ],
      "ExpectedPause()": [
        {
          "details": "The operation failed because the contract is not paused."
        }
      ],
      "FailedInnerCall()": [
        {
          "details": "A call to an address target failed. The target may have reverted."
        }
      ],
      "InvalidAllowedToExecuteMint(address)": [
        {
          "params": {
            "allowedToExecuteMint": "token address that is used for payments and that is allowed to execute mint"
          }
        }
      ],
      "InvalidBaseTokenURI(string)": [
        {
          "params": {
            "baseURI": "an URI that will be used as the base for token URI"
          }
        }
      ],
      "InvalidInitialization()": [
        {
          "details": "The contract is already initialized."
        }
      ],
      "InvalidMaxTokensPerWallet(uint256,uint256)": [
        {
          "params": {
            "maxTokensPerWallet": "max tokens per wallet"
          }
        }
      ],
      "InvalidName(string)": [
        {
          "params": {
            "name": "name of the ERC721 token"
          }
        }
      ],
      "InvalidSignAddress(address)": [
        {
          "params": {
            "signAddress": "signer address that is allowed to create mint signatures"
          }
        }
      ],
      "InvalidSignature(uint256)": [
        {
          "params": {
            "signatureId": "the ID of the provided signature"
          }
        }
      ],
      "InvalidSymbol(string)": [
        {
          "params": {
            "symbol": "token symbol of the ERC721 token"
          }
        }
      ],
      "InvalidTreasury(address)": [
        {
          "params": {
            "mintTreasury": "collection treasury address (where the payments are sent)"
          }
        }
      ],
      "InvalidWaveData(uint256,uint256)": [
        {
          "params": {
            "waveMaxTokensOverall": "the allowed number of tokens to be minted in this wave (cumulative by all minting wallets)",
            "waveMaxTokensPerWallet": "max tokens to buy, per wallet in a given wave"
          }
        }
      ],
      "LowMaxSupply(uint256,uint256)": [
        {
          "params": {
            "maxSupply": "max supply of tokens to be allowed to be minted per contract",
            "totalSupply": "amount of tokens minted till now"
          }
        }
      ],
      "NotInitializing()": [
        {
          "details": "The contract is not initializing."
        }
      ],
      "OperatorNotAllowed(address)": [
        {
          "params": {
            "operator": "that does the call"
          }
        }
      ],
      "OwnableInvalidOwner(address)": [
        {
          "details": "The owner is not a valid owner account. (eg. `address(0)`)"
        }
      ],
      "OwnableUnauthorizedAccount(address)": [
        {
          "details": "The caller account is not authorized to perform an operation."
        }
      ],
      "ReentrancyGuardReentrantCall()": [
        {
          "details": "Unauthorized reentrant call."
        }
      ],
      "RegistryNotSet(address)": [
        {
          "params": {
            "operator": "that does the call"
          }
        }
      ],
      "SafeERC20FailedOperation(address)": [
        {
          "details": "An operation with an ERC20 token failed."
        }
      ],
      "WaveMaxTokensHigherThanGlobalMax(uint256,uint256)": [
        {
          "params": {
            "maxTokensPerWallet": "global max tokens per wallet",
            "waveMaxTokensPerWallet": "wave max tokens per wallet"
          }
        }
      ]
    },
    "events": {
      "AgentControlledSet(address,address,bool)": {
        "params": {
          "isAgentControlled": "true if the wallet is agent-controlled",
          "operator": "the sender of the transaction",
          "wallet": "the wallet address"
        }
      },
      "AllowedExecuteMintSet(address,address,address)": {
        "details": "emitted when setAllowedExecuteMint is called",
        "params": {
          "newToken": "new address that is used for payments and that is allowed to execute mint",
          "oldToken": "old address that is used for payments and that is allowed to execute mint",
          "operator": "the sender of the transaction"
        }
      },
      "Approval(address,address,uint256)": {
        "details": "Emitted when `owner` enables `approved` to manage the `tokenId` token."
      },
      "ApprovalForAll(address,address,bool)": {
        "details": "Emitted when `owner` enables or disables (`approved`) `operator` to manage all of its assets."
      },
      "BaseURISet(address,string,string)": {
        "details": "emitted when setBaseURI is called",
        "params": {
          "newBaseURI": "new URI that will be used as the base for token metadata URI",
          "oldBaseURI": "old URI that will be used as the base for token metadata URI",
          "operator": "the sender of the transaction"
        }
      },
      "BatchMetadataUpdate(uint256,uint256)": {
        "details": "This event emits when the metadata of a range of tokens is changed. So that the third-party platforms such as NFT market could timely update the images and related attributes of the NFTs."
      },
      "ContractInitialized(string,string,string,address,address,address,uint256,uint256)": {
        "details": "emitted at proxy startup, only once",
        "params": {
          "allowedToExecuteMint": "token address that is used for payments and that is allowed to execute mint",
          "baseURI": "an URI that will be used as the base for token URI",
          "maxSupply": "max supply of tokens to be allowed to be minted per contract",
          "maxTokensPerWallet": "maximum amount of tokens that can be minted per wallet across all waves",
          "mintTreasury": "collection treasury address (where the payments are sent)",
          "name": "name of the ERC721 token",
          "signAddress": "signer address that is allowed to create mint signatures",
          "symbol": "token symbol of the ERC721 token"
        }
      },
      "ContractRegistered(address,address,address,bool)": {
        "params": {
          "operator": "the sender of the transaction",
          "registry": "address of the registry to set",
          "subscribe": "should it subscribe",
          "subscriptionOrRegistrant": "address to subscribe or copy entries from"
        }
      },
      "DefaultRoyaltyReset(address)": {
        "params": {
          "operator": "the sender of the transaction"
        }
      },
      "DefaultRoyaltySet(address,address,uint96)": {
        "params": {
          "feeNumerator": "percentage of the royalties in feeDenominator units",
          "operator": "the sender of the transaction",
          "receiver": "the receiver of the royalties"
        }
      },
      "Initialized(uint64)": {
        "details": "Triggered when the contract has been initialized or reinitialized."
      },
      "MaxSupplySet(address,uint256,uint256)": {
        "details": "emitted when setSignAddress is called",
        "params": {
          "newMaxSupply": "new maximum amount of tokens that can be minted",
          "oldMaxSupply": "old maximum amount of tokens that can be minted",
          "operator": "the sender of the transaction"
        }
      },
      "MaxTokensPerWalletSet(address,uint256,uint256)": {
        "params": {
          "newMaxTokensPerWallet": "new maximum tokens per wallet",
          "oldMaxTokensPerWallet": "old maximum tokens per wallet",
          "operator": "the sender of the transaction"
        }
      },
      "MetadataUpdate(uint256)": {
        "details": "This event emits when the metadata of a token is changed. So that the third-party platforms such as NFT market could timely update the images and related attributes of the NFT."
      },
      "OperatorRegistrySet(address,address,address)": {
        "params": {
          "newRegistry": "address of the new registry to set",
          "oldRegistry": "address of the old registry",
          "operator": "the sender of the transaction"
        }
      },
      "Paused(address)": {
        "details": "Emitted when the pause is triggered by `account`."
      },
      "Personalized(address,uint256,uint256)": {
        "details": "emitted when personalize is called",
        "params": {
          "operator": "the sender of the transaction",
          "personalizationMask": "the exact personalization that was done, as a custom meaning bit-mask",
          "tokenId": "id of the token which had the personalization done"
        }
      },
      "PurchaseAgentSet(address,address)": {
        "params": {
          "operator": "the sender of the transaction",
          "purchaseAgent": "the address of the purchase agent"
        }
      },
      "SignAddressSet(address,address,address)": {
        "details": "emitted when setSignAddress is called",
        "params": {
          "newSignAddress": "new signer address that is allowed to create mint signatures",
          "oldSignAddress": "old signer address that is allowed to create mint signatures",
          "operator": "the sender of the transaction"
        }
      },
      "TokenBurned(address,uint256,address)": {
        "params": {
          "burner": "the owner that burned the token",
          "operator": "the sender of the transaction",
          "tokenId": "the id of the token that was burned"
        }
      },
      "TokenBurningDisabled(address)": {
        "params": {
          "operator": "the sender of the transaction"
        }
      },
      "TokenBurningEnabled(address)": {
        "params": {
          "operator": "the sender of the transaction"
        }
      },
      "TokenRoyaltyReset(address,uint256)": {
        "params": {
          "operator": "the sender of the transaction",
          "tokenId": "the token id"
        }
      },
      "TokenRoyaltySet(address,uint256,address,uint96)": {
        "params": {
          "feeNumerator": "percentage of the royalties in feeDenominator units",
          "operator": "the sender of the transaction",
          "receiver": "the receiver of the royalties",
          "tokenId": "the token id"
        }
      },
      "Transfer(address,address,uint256)": {
        "details": "Emitted when `tokenId` token is transferred from `from` to `to`."
      },
      "TreasurySet(address,address,address)": {
        "details": "emitted when setTreasury is called",
        "params": {
          "newTreasury": "new collection treasury address (where the payments are sent)",
          "oldTreasury": "old collection treasury address (where the payments are sent)",
          "operator": "the sender of the transaction"
        }
      },
      "TrustedForwarderSet(address,address,address)": {
        "params": {
          "newForwarder": "the new trusted forwarder address",
          "oldForwarder": "the old trusted forwarder address",
          "operator": "the sender of the transaction"
        }
      },
      "Unpaused(address)": {
        "details": "Emitted when the pause is lifted by `account`."
      },
      "WaveMint(uint256,address,uint256)": {
        "params": {
          "tokenId": "the token id",
          "wallet": "the wallet address of the receiver",
          "waveIndex": "the wave index"
        }
      },
      "WaveSetup(address,uint256,uint256,uint256,uint256)": {
        "details": "emitted when setupWave is called",
        "params": {
          "operator": "the sender of the transaction",
          "waveIndex": "the current wave index",
          "waveMaxTokens": "the allowed number of tokens to be minted in this wave (cumulative by all minting wallets)",
          "waveMaxTokensToBuy": "max tokens to buy, per wallet in a given wave",
          "waveSingleTokenPrice": "the price to mint a token in a given wave, in wei"
        }
      }
    },
    "kind": "dev",
    "methods": {
      "acceptOwnership()": {
        "details": "The new owner accepts the ownership transfer."
      },
      "allowedToExecuteMint()": {
        "returns": {
          "_0": "Address of the payment token contract."
        }
      },
      "approve(address,uint256)": {
        "details": "Overrides ERC721 implementation to add operator filtering.",
        "params": {
          "operator": "Address to grant approval to.",
          "tokenId": "ID of token to approve."
        }
      },
      "balanceOf(address)": {
        "details": "See {IERC721-balanceOf}."
      },
      "baseTokenURI()": {
        "returns": {
          "_0": "Base URI string."
        }
      },
      "batchMint(uint256,(address,uint256)[])": {
        "details": "Owner-only function for airdrops. Bypasses wave restrictions but respects maxSupply.",
        "params": {
          "wallets": "Array of recipient addresses and mint amounts.",
          "waveIndex": "Index of the wave configuration to use."
        }
      },
      "batchTransferFrom(address,address,uint256[])": {
        "details": "Requires approval or ownership. Does not verify receiver compatibility.",
        "params": {
          "from": "Source address.",
          "ids": "Array of token IDs to transfer.",
          "to": "Destination address."
        }
      },
      "burn(uint256)": {
        "details": "Requires burning to be enabled. Caller must own or be approved for token.",
        "params": {
          "tokenId": "ID of the token to burn."
        }
      },
      "cancelWave(uint256)": {
        "details": "Cannot cancel the most recent wave to prevent disruption of mint function.",
        "params": {
          "waveIndex": "Index of the wave to cancel."
        }
      },
      "chain()": {
        "returns": {
          "_0": "Current blockchain network ID."
        }
      },
      "constructor": {
        "custom:oz-upgrades-unsafe-allow": "constructor"
      },
      "disableBurning()": {
        "details": "Reverts if burning is already disabled. Only callable by owner."
      },
      "enableBurning()": {
        "details": "Reverts if burning is already enabled. Only callable by owner."
      },
      "feeDenominator()": {
        "details": "Used in conjunction with royalty fee numerator.",
        "returns": {
          "_0": "Fee denominator value (10000 for basis points)."
        }
      },
      "getApproved(uint256)": {
        "details": "See {IERC721-getApproved}."
      },
      "getSignatureType(uint256)": {
        "params": {
          "signatureId": "signing signature ID"
        },
        "returns": {
          "_0": "the type of signature used"
        }
      },
      "initialize((address,string,string,string,address,address,address,address,uint256,uint256))": {
        "details": "External initialization entry point following the upgradeable pattern.",
        "params": {
          "params": "Struct containing all initialization parameters, see InitializationParams for details."
        }
      },
      "isAgentControlled(address)": {
        "params": {
          "wallet": "The address to check."
        },
        "returns": {
          "_0": "True if the wallet is controlled by the purchase agent."
        }
      },
      "isApprovedForAll(address,address)": {
        "details": "See {IERC721-isApprovedForAll}."
      },
      "isBurnEnabled()": {
        "returns": {
          "_0": "True if token burning is enabled."
        }
      },
      "isMintDenied(uint256,address,uint256)": {
        "params": {
          "amount": "Number of tokens to check.",
          "wallet": "Address to check.",
          "waveIndex": "Wave configuration index."
        },
        "returns": {
          "_0": "Reason code indicating mint permission status."
        }
      },
      "isTrustedForwarder(address)": {
        "params": {
          "forwarder": "the address ot the trusted forwarder to check"
        },
        "returns": {
          "_0": "true if forwarder is the trusted forwarder address"
        }
      },
      "maxSupply()": {
        "returns": {
          "_0": "Maximum number of tokens that can be minted."
        }
      },
      "maxTokensPerWallet()": {
        "returns": {
          "_0": "Maximum tokens allowed per wallet across all waves."
        }
      },
      "mint(address,uint256,uint256,bytes)": {
        "details": "Only callable by allowedToExecuteMint contract. Uses the most recent wave configuration.",
        "params": {
          "amount": "Number of tokens to mint.",
          "signature": "Cryptographic signature authorizing the mint.",
          "signatureId": "Unique identifier for the minting signature.",
          "wallet": "Address receiving the minted tokens."
        }
      },
      "mintTreasury()": {
        "returns": {
          "_0": "Address receiving minting payments."
        }
      },
      "mintedCount(address)": {
        "params": {
          "wallet": "Address to query."
        },
        "returns": {
          "_0": "Number of tokens minted by the address."
        }
      },
      "name()": {
        "details": "See {IERC721Metadata-name}."
      },
      "operatorFilterRegistry()": {
        "returns": {
          "_0": "the operatorFilterRegistry address"
        }
      },
      "operatorPersonalize(uint256,uint256)": {
        "details": "Owner-only function for game-driven trait updates.",
        "params": {
          "personalizationMask": "Bit mask encoding trait configurations.",
          "tokenId": "ID of the token to personalize."
        }
      },
      "owner()": {
        "details": "Returns the address of the current owner."
      },
      "ownerOf(uint256)": {
        "details": "See {IERC721-ownerOf}."
      },
      "pause()": {
        "details": "Reverts if contract is already paused. Only callable by owner."
      },
      "paused()": {
        "details": "Returns true if the contract is paused, and false otherwise."
      },
      "pendingOwner()": {
        "details": "Returns the address of the pending owner."
      },
      "personalizationOf(uint256)": {
        "params": {
          "tokenId": "Token ID to query."
        },
        "returns": {
          "_0": "Bit mask of token's personalization traits."
        }
      },
      "personalize(uint256,uint256,uint256,bytes)": {
        "details": "Caller must be token owner. Emits MetadataUpdate event.",
        "params": {
          "personalizationMask": "Bit mask encoding trait configurations.",
          "signature": "Cryptographic signature authorizing the personalization.",
          "signatureId": "Unique identifier for the personalization signature.",
          "tokenId": "ID of the token to personalize."
        }
      },
      "purchaseAgent()": {
        "returns": {
          "_0": "Address that can transfer tokens on behalf of agent-controlled wallets."
        }
      },
      "register(address,bool)": {
        "details": "Pass address(0) to register without subscription. Only callable by owner.",
        "params": {
          "subscribe": "True to subscribe, false to copy the list.",
          "subscriptionOrRegistrantToCopy": "Address to copy or subscribe to."
        }
      },
      "renounceOwnership()": {
        "details": "Leaves the contract without owner. It will not be possible to call `onlyOwner` functions. Can only be called by the current owner. NOTE: Renouncing ownership will leave the contract without an owner, thereby disabling any functionality that is only available to the owner."
      },
      "resetDefaultRoyalty()": {
        "details": "Only callable by owner."
      },
      "resetTokenRoyalty(uint256)": {
        "details": "Returns token to default royalty configuration. Only callable by owner.",
        "params": {
          "tokenId": "Token ID to reset."
        }
      },
      "reveal(uint256,uint256,bytes)": {
        "details": "Emits MetadataUpdate for marketplace integration. Caller must be token owner.",
        "params": {
          "signature": "Cryptographic signature authorizing the reveal.",
          "signatureId": "Unique identifier for the reveal signature.",
          "tokenId": "ID of the token to refresh."
        }
      },
      "royaltyInfo(uint256,uint256)": {
        "details": "Returns how much royalty is owed and to whom, based on a sale price that may be denominated in any unit of exchange. The royalty amount is denominated and should be paid in that same unit of exchange."
      },
      "safeBatchTransferFrom(address,address,uint256[],bytes)": {
        "details": "Verifies receiver contract compatibility. Requires approval or ownership.",
        "params": {
          "data": "Additional data for receiver callback.",
          "from": "Source address.",
          "ids": "Array of token IDs to transfer.",
          "to": "Destination address."
        }
      },
      "safeTransferFrom(address,address,uint256)": {
        "details": "See {IERC721-safeTransferFrom}."
      },
      "safeTransferFrom(address,address,uint256,bytes)": {
        "details": "Overrides ERC721 implementation to add operator filtering.",
        "params": {
          "data": "Additional data for receiver callback.",
          "from": "Source address.",
          "to": "Destination address.",
          "tokenId": "ID of token to transfer."
        }
      },
      "setAllowedExecuteMint(address)": {
        "details": "Must be a valid contract address. Only callable by owner.",
        "params": {
          "minterToken": "Address of the ERC20 token contract."
        }
      },
      "setApprovalForAll(address,bool)": {
        "details": "Overrides ERC721 implementation to add operator filtering.",
        "params": {
          "approved": "True to approve, false to revoke.",
          "operator": "Address to grant approval to."
        }
      },
      "setBaseURI(string)": {
        "details": "Emits BatchMetadataUpdate for the entire collection. Only callable by owner.",
        "params": {
          "baseURI": "New base URI string."
        }
      },
      "setBatchAgentControlled(address[],bool[])": {
        "details": "Only callable by owner.",
        "params": {
          "agentControlledFlags": "Flags indicating if wallets are agent-controlled.",
          "wallets": "The wallet addresses."
        }
      },
      "setDefaultRoyalty(address,uint96)": {
        "details": "Only callable by owner.",
        "params": {
          "feeNumerator": "Royalty fee in basis points.",
          "receiver": "Royalty recipient address."
        }
      },
      "setMaxSupply(uint256)": {
        "details": "Must be greater than current supply. Only callable by owner.",
        "params": {
          "_maxSupply": "New maximum token supply."
        }
      },
      "setMaxTokensPerWallet(uint256)": {
        "details": "Must be greater than zero and less than maxSupply. Only callable by owner.",
        "params": {
          "_maxTokensPerWallet": "New maximum tokens per wallet."
        }
      },
      "setOperatorRegistry(address)": {
        "details": "Used for marketplace filtering. Only callable by owner.",
        "params": {
          "registry": "Address of the registry contract."
        }
      },
      "setPurchaseAgent(address)": {
        "details": "Only callable by owner.",
        "params": {
          "_purchaseAgent": "The address of the purchase agent."
        }
      },
      "setSignAddress(address)": {
        "details": "Only callable by owner.",
        "params": {
          "_signAddress": "New signer address."
        }
      },
      "setTokenRoyalty(uint256,address,uint96)": {
        "details": "Overrides default royalty for the specified token. Only callable by owner.",
        "params": {
          "feeNumerator": "Royalty fee in basis points.",
          "receiver": "Royalty recipient address.",
          "tokenId": "Token ID to configure."
        }
      },
      "setTreasury(address)": {
        "details": "Reverts if treasury address is zero. Only callable by owner.",
        "params": {
          "treasury": "New treasury address."
        }
      },
      "setTrustedForwarder(address)": {
        "details": "Set to address(0) to disable meta-transactions. Only callable by owner.",
        "params": {
          "forwarder": "New forwarder address."
        }
      },
      "setupWave(uint256,uint256,uint256)": {
        "details": "Validates wave parameters against global limits and current supply.",
        "params": {
          "_waveMaxTokensOverall": "Maximum tokens that can be minted in this wave.",
          "_waveMaxTokensPerWallet": "Maximum tokens per wallet for this wave.",
          "_waveSingleTokenPrice": "Price per token in wave, denominated in allowedToExecuteMint token."
        }
      },
      "signAddress()": {
        "returns": {
          "_0": "the signer address"
        }
      },
      "supportsInterface(bytes4)": {
        "details": "Adds support for ERC4906 interface.",
        "params": {
          "interfaceId": "Interface identifier to check."
        },
        "returns": {
          "_0": "True if interface is supported."
        }
      },
      "symbol()": {
        "details": "See {IERC721Metadata-symbol}."
      },
      "tokenURI(uint256)": {
        "details": "See {IERC721Metadata-tokenURI}."
      },
      "totalSupply()": {
        "returns": {
          "_0": "Current number of minted tokens."
        }
      },
      "transferFrom(address,address,uint256)": {
        "details": "Overrides ERC721 implementation to add operator filtering.",
        "params": {
          "from": "Source address.",
          "to": "Destination address.",
          "tokenId": "ID of token to transfer."
        }
      },
      "transferOwnership(address)": {
        "details": "Starts the ownership transfer of the contract to a new account. Replaces the pending transfer if there is one. Can only be called by the current owner."
      },
      "trustedForwarder()": {
        "returns": {
          "_0": "the trusted forwarder address"
        }
      },
      "unpause()": {
        "details": "Reverts if contract is not paused. Only callable by owner."
      },
      "waveCount()": {
        "returns": {
          "_0": "Number of minting waves configured."
        }
      },
      "waveMaxTokensOverall(uint256)": {
        "params": {
          "waveIndex": "Wave configuration index."
        },
        "returns": {
          "_0": "Maximum tokens allowed in the wave."
        }
      },
      "waveMaxTokensPerWallet(uint256)": {
        "params": {
          "waveIndex": "Wave configuration index."
        },
        "returns": {
          "_0": "Maximum tokens allowed per wallet in the wave."
        }
      },
      "waveMint(address,uint256,uint256,uint256,bytes)": {
        "details": "Only callable by allowedToExecuteMint contract.",
        "params": {
          "amount": "Number of tokens to mint.",
          "signature": "Cryptographic signature authorizing the mint.",
          "signatureId": "Unique identifier for the minting signature.",
          "wallet": "Address receiving the minted tokens.",
          "waveIndex": "Index of the wave configuration to use."
        }
      },
      "waveOwnerToClaimedCounts(uint256,address)": {
        "params": {
          "owner": "Address to query.",
          "waveIndex": "Wave configuration index."
        },
        "returns": {
          "_0": "Number of tokens minted by the address in the wave."
        }
      },
      "waveSingleTokenPrice(uint256)": {
        "params": {
          "waveIndex": "Wave configuration index."
        },
        "returns": {
          "_0": "Price per token in the wave's payment token."
        }
      },
      "waveTotalMinted(uint256)": {
        "params": {
          "waveIndex": "Wave configuration index."
        },
        "returns": {
          "_0": "Total tokens minted in the wave."
        }
      }
    },
    "title": "NFTCollection",
    "version": 1
  },
  "userdoc": {
    "errors": {
      "AlreadyRegistered(address)": [
        {
          "notice": "this contract is already registered"
        }
      ],
      "CannotMint(uint8,address,uint256,uint256)": [
        {
          "notice": "The operation failed because the wave is completed"
        }
      ],
      "ContractNotConfigured()": [
        {
          "notice": "The operation failed the wave index is zero, no wave was ever configured"
        }
      ],
      "EnforcedBurn()": [
        {
          "notice": "The operation failed because burning is enabled."
        }
      ],
      "ExpectedBurn()": [
        {
          "notice": "The operation failed because burning is disabled."
        }
      ],
      "InvalidAllowedToExecuteMint(address)": [
        {
          "notice": "The operation failed because the allowedToExecuteMint is not a contract or wrong"
        }
      ],
      "InvalidBaseTokenURI(string)": [
        {
          "notice": "The operation failed because the base token uri is empty."
        }
      ],
      "InvalidBatchData()": [
        {
          "notice": "The operation failed because the batch data len is zero"
        }
      ],
      "InvalidMaxTokensPerWallet(uint256,uint256)": [
        {
          "notice": "The operation failed because the max tokens per wallet is invalid"
        }
      ],
      "InvalidName(string)": [
        {
          "notice": "The operation failed because the token name is invalid"
        }
      ],
      "InvalidSignAddress(address)": [
        {
          "notice": "The operation failed because the signAddress is wrong"
        }
      ],
      "InvalidSignature(uint256)": [
        {
          "notice": "The operation failed because signature is invalid or it was already used"
        }
      ],
      "InvalidSymbol(string)": [
        {
          "notice": "The operation failed because the token symbol is invalid"
        }
      ],
      "InvalidTreasury(address)": [
        {
          "notice": "The operation failed because the treasury is wrong"
        }
      ],
      "InvalidWaveData(uint256,uint256)": [
        {
          "notice": "The operation failed because the wave arguments are wrong"
        }
      ],
      "LowMaxSupply(uint256,uint256)": [
        {
          "notice": "The operation failed because the maxSupply is lower than totalSupply"
        }
      ],
      "OperatorNotAllowed(address)": [
        {
          "notice": "the caller is not the operator"
        }
      ],
      "RegistryNotSet(address)": [
        {
          "notice": "the registry is not configured"
        }
      ],
      "WaveMaxTokensHigherThanGlobalMax(uint256,uint256)": [
        {
          "notice": "The operation failed because the wave max tokens per wallet is higher than the global max tokens per wallet"
        }
      ]
    },
    "events": {
      "AgentControlledSet(address,address,bool)": {
        "notice": "Event emitted when a wallet is marked as agent-controlled"
      },
      "AllowedExecuteMintSet(address,address,address)": {
        "notice": "Event emitted when an address was set as allowed to mint"
      },
      "BaseURISet(address,string,string)": {
        "notice": "Event emitted when the base token URI for the contract was set or changed"
      },
      "ContractInitialized(string,string,string,address,address,address,uint256,uint256)": {
        "notice": "Event emitted when the contract was initialized."
      },
      "ContractRegistered(address,address,address,bool)": {
        "notice": "emitted when the contract is registered into the registry"
      },
      "DefaultRoyaltyReset(address)": {
        "notice": "Event emitted when default royalties are reset"
      },
      "DefaultRoyaltySet(address,address,uint96)": {
        "notice": "Event emitted when a token personalization was made."
      },
      "MaxSupplySet(address,uint256,uint256)": {
        "notice": "Event emitted when the max supply is set or changed"
      },
      "MaxTokensPerWalletSet(address,uint256,uint256)": {
        "notice": "Event emitted when the max tokens per wallet is set"
      },
      "OperatorRegistrySet(address,address,address)": {
        "notice": "emitted when a registry is set"
      },
      "Personalized(address,uint256,uint256)": {
        "notice": "Event emitted when a token personalization was made."
      },
      "PurchaseAgentSet(address,address)": {
        "notice": "Event emitted when the purchase agent is set"
      },
      "SignAddressSet(address,address,address)": {
        "notice": "Event emitted when the signer address was set or changed"
      },
      "TokenBurned(address,uint256,address)": {
        "notice": "event emitted when a token was burned"
      },
      "TokenBurningDisabled(address)": {
        "notice": "event emitted when token burning was disabled"
      },
      "TokenBurningEnabled(address)": {
        "notice": "event emitted when token burning was enabled"
      },
      "TokenRoyaltyReset(address,uint256)": {
        "notice": "Event emitted when default royalties are reset"
      },
      "TokenRoyaltySet(address,uint256,address,uint96)": {
        "notice": "Event emitted when a token personalization was made."
      },
      "TreasurySet(address,address,address)": {
        "notice": "Event emitted when the treasury address was saved"
      },
      "TrustedForwarderSet(address,address,address)": {
        "notice": "emitted when the trusted forwarder is set"
      },
      "WaveMint(uint256,address,uint256)": {
        "notice": "Event emitted when a wave mint is completed"
      },
      "WaveSetup(address,uint256,uint256,uint256,uint256)": {
        "notice": "Event emitted when a wave was set up"
      }
    },
    "kind": "user",
    "methods": {
      "allowedToExecuteMint()": {
        "notice": "Returns the ERC20 token used for minting payments."
      },
      "approve(address,uint256)": {
        "notice": "Approves an operator to transfer a specific token."
      },
      "baseTokenURI()": {
        "notice": "Returns the base URI for token metadata."
      },
      "batchMint(uint256,(address,uint256)[])": {
        "notice": "Performs batch minting for multiple addresses."
      },
      "batchTransferFrom(address,address,uint256[])": {
        "notice": "Transfers multiple tokens between addresses."
      },
      "burn(uint256)": {
        "notice": "Burns a token."
      },
      "cancelWave(uint256)": {
        "notice": "Deactivates a minting wave by setting its maximum tokens to zero."
      },
      "chain()": {
        "notice": "Returns the current chain ID."
      },
      "disableBurning()": {
        "notice": "Disables token burning functionality."
      },
      "enableBurning()": {
        "notice": "Enables token burning functionality."
      },
      "feeDenominator()": {
        "notice": "Returns the fee denominator for royalty calculations."
      },
      "getSignatureType(uint256)": {
        "notice": "returns the type of signature used for a specific Id"
      },
      "initialize((address,string,string,string,address,address,address,address,uint256,uint256))": {
        "notice": "Initializes the NFT collection with configuration parameters."
      },
      "isAgentControlled(address)": {
        "notice": "Returns if a wallet is controlled by the purchase agent."
      },
      "isBurnEnabled()": {
        "notice": "Returns the burn functionality status."
      },
      "isMintDenied(uint256,address,uint256)": {
        "notice": "Checks if an address can mint tokens in a specific wave."
      },
      "isTrustedForwarder(address)": {
        "notice": "Indicates whether any particular address is the trusted forwarder."
      },
      "maxSupply()": {
        "notice": "Returns the maximum token supply cap."
      },
      "maxTokensPerWallet()": {
        "notice": "Returns the global maximum tokens per wallet limit."
      },
      "mint(address,uint256,uint256,bytes)": {
        "notice": "Mints tokens using the latest wave configuration."
      },
      "mintTreasury()": {
        "notice": "Returns the treasury address for minting payments."
      },
      "mintedCount(address)": {
        "notice": "Returns the number of tokens minted by an address."
      },
      "operatorFilterRegistry()": {
        "notice": "return the operatorFilterRegistry address"
      },
      "operatorPersonalize(uint256,uint256)": {
        "notice": "Updates token traits with privileged access."
      },
      "pause()": {
        "notice": "Pauses all token operations."
      },
      "personalizationOf(uint256)": {
        "notice": "Retrieves personalization traits for a token."
      },
      "personalize(uint256,uint256,uint256,bytes)": {
        "notice": "Updates token traits using a bit mask."
      },
      "purchaseAgent()": {
        "notice": "Returns the purchase agent address."
      },
      "register(address,bool)": {
        "notice": "Registers the contract with OpenSea's operator filter registry."
      },
      "resetDefaultRoyalty()": {
        "notice": "Removes default royalty configuration."
      },
      "resetTokenRoyalty(uint256)": {
        "notice": "Resets token-specific royalty configuration."
      },
      "reveal(uint256,uint256,bytes)": {
        "notice": "Triggers metadata refresh for a specific token."
      },
      "safeBatchTransferFrom(address,address,uint256[],bytes)": {
        "notice": "Safely transfers multiple tokens between addresses."
      },
      "safeTransferFrom(address,address,uint256,bytes)": {
        "notice": "Safely transfers a token between addresses."
      },
      "setAllowedExecuteMint(address)": {
        "notice": "Updates the ERC20 token contract used for minting payments."
      },
      "setApprovalForAll(address,bool)": {
        "notice": "Sets approval for an operator to manage caller's tokens."
      },
      "setBaseURI(string)": {
        "notice": "Updates the base URI for token metadata."
      },
      "setBatchAgentControlled(address[],bool[])": {
        "notice": "Sets wallets as agent-controlled by the purchase agent."
      },
      "setDefaultRoyalty(address,uint96)": {
        "notice": "Sets default royalty information for all tokens."
      },
      "setMaxSupply(uint256)": {
        "notice": "Updates the maximum supply cap."
      },
      "setMaxTokensPerWallet(uint256)": {
        "notice": "Updates the maximum tokens per wallet limit."
      },
      "setOperatorRegistry(address)": {
        "notice": "Sets the operator filter registry address."
      },
      "setPurchaseAgent(address)": {
        "notice": "Sets the purchase agent address."
      },
      "setSignAddress(address)": {
        "notice": "Updates the signing address for validating operations."
      },
      "setTokenRoyalty(uint256,address,uint96)": {
        "notice": "Sets royalty information for a specific token."
      },
      "setTreasury(address)": {
        "notice": "Updates the treasury address for minting payments."
      },
      "setTrustedForwarder(address)": {
        "notice": "Updates the trusted forwarder for meta-transactions."
      },
      "setupWave(uint256,uint256,uint256)": {
        "notice": "Creates a new minting wave."
      },
      "signAddress()": {
        "notice": "return the address from which all signatures must come from this specific address, otherwise they are invalid"
      },
      "supportsInterface(bytes4)": {
        "notice": "Checks interface support using ERC165."
      },
      "totalSupply()": {
        "notice": "Returns the current total supply of minted tokens."
      },
      "transferFrom(address,address,uint256)": {
        "notice": "Transfers a token between addresses."
      },
      "trustedForwarder()": {
        "notice": "Returns the address of the trusted forwarder."
      },
      "unpause()": {
        "notice": "Unpauses all token operations."
      },
      "waveCount()": {
        "notice": "Returns the total number of configured waves."
      },
      "waveMaxTokensOverall(uint256)": {
        "notice": "Returns the maximum tokens allowed for a specific wave."
      },
      "waveMaxTokensPerWallet(uint256)": {
        "notice": "Returns the maximum tokens per wallet for a specific wave."
      },
      "waveMint(address,uint256,uint256,uint256,bytes)": {
        "notice": "Mints tokens using a specific wave configuration."
      },
      "waveOwnerToClaimedCounts(uint256,address)": {
        "notice": "Returns the number of tokens minted by an address in a specific wave."
      },
      "waveSingleTokenPrice(uint256)": {
        "notice": "Returns the token price for a specific wave."
      },
      "waveTotalMinted(uint256)": {
        "notice": "Returns the total tokens minted in a specific wave."
      }
    },
    "notice": "Implements an upgradeable ERC721 contract for Avatar NFT collections.",
    "version": 1
  },
  "storageLayout": {
    "storage": [],
    "types": null
  }
}