{
  "address": "0x5473C32F1502dc6eAe7B350610D8490455892f54",
  "abi": [
    {
      "inputs": [
        {
          "internalType": "address",
          "name": "landAddress",
          "type": "address"
        },
        {
          "internalType": "address",
          "name": "sandContractAddress",
          "type": "address"
        },
        {
          "internalType": "address",
          "name": "initialMetaTx",
          "type": "address"
        },
        {
          "internalType": "address",
          "name": "admin",
          "type": "address"
        },
        {
          "internalType": "address payable",
          "name": "initialWalletAddress",
          "type": "address"
        },
        {
          "internalType": "bytes32",
          "name": "merkleRoot",
          "type": "bytes32"
        },
        {
          "internalType": "uint256",
          "name": "expiryTime",
          "type": "uint256"
        },
        {
          "internalType": "address",
          "name": "initialSigningWallet",
          "type": "address"
        },
        {
          "internalType": "uint256",
          "name": "initialMaxCommissionRate",
          "type": "uint256"
        },
        {
          "internalType": "address",
          "name": "estate",
          "type": "address"
        },
        {
          "internalType": "address",
          "name": "asset",
          "type": "address"
        },
        {
          "internalType": "address",
          "name": "feeDistributor",
          "type": "address"
        },
        {
          "internalType": "address",
          "name": "authValidator",
          "type": "address"
        }
      ],
      "stateMutability": "nonpayable",
      "type": "constructor"
    },
    {
      "anonymous": false,
      "inputs": [
        {
          "indexed": false,
          "internalType": "address",
          "name": "oldAdmin",
          "type": "address"
        },
        {
          "indexed": false,
          "internalType": "address",
          "name": "newAdmin",
          "type": "address"
        }
      ],
      "name": "AdminChanged",
      "type": "event"
    },
    {
      "anonymous": false,
      "inputs": [
        {
          "indexed": true,
          "internalType": "address",
          "name": "buyer",
          "type": "address"
        },
        {
          "indexed": true,
          "internalType": "address",
          "name": "to",
          "type": "address"
        },
        {
          "indexed": true,
          "internalType": "uint256",
          "name": "topCornerId",
          "type": "uint256"
        },
        {
          "indexed": false,
          "internalType": "uint256",
          "name": "size",
          "type": "uint256"
        },
        {
          "indexed": false,
          "internalType": "uint256",
          "name": "price",
          "type": "uint256"
        },
        {
          "indexed": false,
          "internalType": "address",
          "name": "token",
          "type": "address"
        },
        {
          "indexed": false,
          "internalType": "uint256",
          "name": "amountPaid",
          "type": "uint256"
        }
      ],
      "name": "LandQuadPurchased",
      "type": "event"
    },
    {
      "anonymous": false,
      "inputs": [
        {
          "indexed": true,
          "internalType": "uint256",
          "name": "newMaxCommissionRate",
          "type": "uint256"
        }
      ],
      "name": "MaxCommissionRateUpdated",
      "type": "event"
    },
    {
      "anonymous": false,
      "inputs": [
        {
          "indexed": false,
          "internalType": "address",
          "name": "metaTransactionProcessor",
          "type": "address"
        },
        {
          "indexed": false,
          "internalType": "bool",
          "name": "enabled",
          "type": "bool"
        }
      ],
      "name": "MetaTransactionProcessor",
      "type": "event"
    },
    {
      "anonymous": false,
      "inputs": [
        {
          "indexed": true,
          "internalType": "address",
          "name": "newWallet",
          "type": "address"
        }
      ],
      "name": "NewReceivingWallet",
      "type": "event"
    },
    {
      "anonymous": false,
      "inputs": [
        {
          "indexed": true,
          "internalType": "address",
          "name": "referrer",
          "type": "address"
        },
        {
          "indexed": true,
          "internalType": "address",
          "name": "referee",
          "type": "address"
        },
        {
          "indexed": true,
          "internalType": "address",
          "name": "token",
          "type": "address"
        },
        {
          "indexed": false,
          "internalType": "uint256",
          "name": "amount",
          "type": "uint256"
        },
        {
          "indexed": false,
          "internalType": "uint256",
          "name": "commission",
          "type": "uint256"
        },
        {
          "indexed": false,
          "internalType": "uint256",
          "name": "commissionRate",
          "type": "uint256"
        }
      ],
      "name": "ReferralUsed",
      "type": "event"
    },
    {
      "anonymous": false,
      "inputs": [
        {
          "indexed": true,
          "internalType": "address",
          "name": "newSigningWallet",
          "type": "address"
        }
      ],
      "name": "SigningWalletUpdated",
      "type": "event"
    },
    {
      "inputs": [
        {
          "internalType": "address",
          "name": "buyer",
          "type": "address"
        },
        {
          "internalType": "address",
          "name": "to",
          "type": "address"
        },
        {
          "internalType": "address",
          "name": "reserved",
          "type": "address"
        },
        {
          "internalType": "uint256[]",
          "name": "info",
          "type": "uint256[]"
        },
        {
          "internalType": "bytes32",
          "name": "salt",
          "type": "bytes32"
        },
        {
          "internalType": "uint256[]",
          "name": "assetIds",
          "type": "uint256[]"
        },
        {
          "internalType": "bytes32[]",
          "name": "proof",
          "type": "bytes32[]"
        },
        {
          "internalType": "bytes",
          "name": "referral",
          "type": "bytes"
        },
        {
          "internalType": "bytes",
          "name": "signature",
          "type": "bytes"
        }
      ],
      "name": "buyLandWithSand",
      "outputs": [],
      "stateMutability": "nonpayable",
      "type": "function"
    },
    {
      "inputs": [
        {
          "internalType": "address",
          "name": "newAdmin",
          "type": "address"
        }
      ],
      "name": "changeAdmin",
      "outputs": [],
      "stateMutability": "nonpayable",
      "type": "function"
    },
    {
      "inputs": [
        {
          "internalType": "bytes",
          "name": "referral",
          "type": "bytes"
        }
      ],
      "name": "decodeReferral",
      "outputs": [
        {
          "internalType": "bytes",
          "name": "",
          "type": "bytes"
        },
        {
          "internalType": "address",
          "name": "",
          "type": "address"
        },
        {
          "internalType": "address",
          "name": "",
          "type": "address"
        },
        {
          "internalType": "uint256",
          "name": "",
          "type": "uint256"
        },
        {
          "internalType": "uint256",
          "name": "",
          "type": "uint256"
        }
      ],
      "stateMutability": "pure",
      "type": "function"
    },
    {
      "inputs": [
        {
          "internalType": "address",
          "name": "disableWallet",
          "type": "address"
        }
      ],
      "name": "disablePreviousSigningWallet",
      "outputs": [],
      "stateMutability": "nonpayable",
      "type": "function"
    },
    {
      "inputs": [],
      "name": "getAdmin",
      "outputs": [
        {
          "internalType": "address",
          "name": "",
          "type": "address"
        }
      ],
      "stateMutability": "view",
      "type": "function"
    },
    {
      "inputs": [],
      "name": "getExpiryTime",
      "outputs": [
        {
          "internalType": "uint256",
          "name": "",
          "type": "uint256"
        }
      ],
      "stateMutability": "view",
      "type": "function"
    },
    {
      "inputs": [],
      "name": "getMaxCommissionRate",
      "outputs": [
        {
          "internalType": "uint256",
          "name": "",
          "type": "uint256"
        }
      ],
      "stateMutability": "view",
      "type": "function"
    },
    {
      "inputs": [],
      "name": "getMerkleRoot",
      "outputs": [
        {
          "internalType": "bytes32",
          "name": "",
          "type": "bytes32"
        }
      ],
      "stateMutability": "view",
      "type": "function"
    },
    {
      "inputs": [],
      "name": "getSigningWallet",
      "outputs": [
        {
          "internalType": "address",
          "name": "",
          "type": "address"
        }
      ],
      "stateMutability": "view",
      "type": "function"
    },
    {
      "inputs": [
        {
          "internalType": "address",
          "name": "who",
          "type": "address"
        }
      ],
      "name": "isMetaTransactionProcessor",
      "outputs": [
        {
          "internalType": "bool",
          "name": "",
          "type": "bool"
        }
      ],
      "stateMutability": "view",
      "type": "function"
    },
    {
      "inputs": [
        {
          "internalType": "bytes",
          "name": "signature",
          "type": "bytes"
        },
        {
          "internalType": "address",
          "name": "referrer",
          "type": "address"
        },
        {
          "internalType": "address",
          "name": "referee",
          "type": "address"
        },
        {
          "internalType": "uint256",
          "name": "expiryTime",
          "type": "uint256"
        },
        {
          "internalType": "uint256",
          "name": "commissionRate",
          "type": "uint256"
        }
      ],
      "name": "isReferralValid",
      "outputs": [
        {
          "internalType": "bool",
          "name": "",
          "type": "bool"
        }
      ],
      "stateMutability": "view",
      "type": "function"
    },
    {
      "inputs": [
        {
          "internalType": "address",
          "name": "",
          "type": "address"
        },
        {
          "internalType": "address",
          "name": "",
          "type": "address"
        },
        {
          "internalType": "uint256[]",
          "name": "",
          "type": "uint256[]"
        },
        {
          "internalType": "uint256[]",
          "name": "",
          "type": "uint256[]"
        },
        {
          "internalType": "bytes",
          "name": "",
          "type": "bytes"
        }
      ],
      "name": "onERC1155BatchReceived",
      "outputs": [
        {
          "internalType": "bytes4",
          "name": "",
          "type": "bytes4"
        }
      ],
      "stateMutability": "pure",
      "type": "function"
    },
    {
      "inputs": [
        {
          "internalType": "address",
          "name": "",
          "type": "address"
        },
        {
          "internalType": "address",
          "name": "",
          "type": "address"
        },
        {
          "internalType": "uint256",
          "name": "",
          "type": "uint256"
        },
        {
          "internalType": "uint256",
          "name": "",
          "type": "uint256"
        },
        {
          "internalType": "bytes",
          "name": "",
          "type": "bytes"
        }
      ],
      "name": "onERC1155Received",
      "outputs": [
        {
          "internalType": "bytes4",
          "name": "",
          "type": "bytes4"
        }
      ],
      "stateMutability": "pure",
      "type": "function"
    },
    {
      "inputs": [
        {
          "internalType": "address",
          "name": "metaTransactionProcessor",
          "type": "address"
        },
        {
          "internalType": "bool",
          "name": "enabled",
          "type": "bool"
        }
      ],
      "name": "setMetaTransactionProcessor",
      "outputs": [],
      "stateMutability": "nonpayable",
      "type": "function"
    },
    {
      "inputs": [
        {
          "internalType": "address payable",
          "name": "newWallet",
          "type": "address"
        }
      ],
      "name": "setReceivingWallet",
      "outputs": [],
      "stateMutability": "nonpayable",
      "type": "function"
    },
    {
      "inputs": [
        {
          "internalType": "uint256",
          "name": "newMaxCommissionRate",
          "type": "uint256"
        }
      ],
      "name": "updateMaxCommissionRate",
      "outputs": [],
      "stateMutability": "nonpayable",
      "type": "function"
    },
    {
      "inputs": [
        {
          "internalType": "address",
          "name": "newSigningWallet",
          "type": "address"
        }
      ],
      "name": "updateSigningWallet",
      "outputs": [],
      "stateMutability": "nonpayable",
      "type": "function"
    },
    {
      "inputs": [
        {
          "internalType": "address",
          "name": "to",
          "type": "address"
        },
        {
          "internalType": "uint256[]",
          "name": "assetIds",
          "type": "uint256[]"
        },
        {
          "internalType": "uint256[]",
          "name": "values",
          "type": "uint256[]"
        }
      ],
      "name": "withdrawAssets",
      "outputs": [],
      "stateMutability": "nonpayable",
      "type": "function"
    }
  ],
  "transactionHash": "0x12f478f00a5e07741a0ef33b6694dc95ae11bf320f306eb57d6401072ca00019",
  "args": [
    "0xEdE111C053616a91975488F8aB3B51382A32979b",
    "0xD20fbd836e80DabFb777E6AaBbe52e96c07eCD1B",
    "0xD20fbd836e80DabFb777E6AaBbe52e96c07eCD1B",
    "0x49c4D4C94829B9c44052C5f5Cb164Fc612181165",
    "0xa5Eb9C9Eb4F4c35B9Be8cFaAA7909F9ebe6Cb609",
    "0x6dec21de838e2d82823f79a91f317d54030459cf26b8173883aa7d6a43b4498a",
    1767268800,
    "0xB7060D3FeCAC3AE1F0A0AA416E3e8E472257950e",
    2000,
    "0x0000000000000000000000000000000000000000",
    "0x2D0f3dfe9B7e86b36d188A3AAdE83898d4BeE7a2",
    "0xAc3ff31f526Af7f386ea43649e3fa67e329AeF93",
    "0x34C87E3A9eD80D50a146C1833043265221c5Abd2"
  ],
  "numDeployments": 1,
  "linkedData": [
    {
      "x": 114,
      "y": 300,
      "size": 1,
      "price": "1011000000000000000000",
      "reserved": "",
      "salt": "0x5dabd0cefd1de2edafffb0c48297d3e9f5c30e3ca57663313f2a870e66997db4",
      "assetIds": []
    },
    {
      "x": 114,
      "y": 301,
      "size": 1,
      "price": "1011000000000000000000",
      "reserved": "",
      "salt": "0x15188a3e557735831d33ffb9643dfd26fda4bcd49ed6d8cfe0cfeb9fa6539a9a",
      "assetIds": []
    },
    {
      "x": 114,
      "y": 302,
      "size": 1,
      "price": "1011000000000000000000",
      "reserved": "0x7a9fe22691c811ea339d9b73150e6911a5343dca",
      "salt": "0x1a87ca8790ce51f2451672bc3fb7850b7eb65be7dd81d67a643da339761fd44a",
      "assetIds": []
    },
    {
      "x": 114,
      "y": 306,
      "size": 1,
      "price": "4683000000000000000000",
      "reserved": "",
      "salt": "0xfd1f29f70c43ac343891f9fdff85411d61a8e7966474f536436261582f5bc358",
      "assetIds": []
    },
    {
      "x": 114,
      "y": 308,
      "size": 1,
      "price": "1011000000000000000000",
      "reserved": "",
      "salt": "0x102385ff3623d2eb81b571acfdd9bd23e30477ed6792a59a3cd71612a299f217",
      "assetIds": []
    },
    {
      "x": 115,
      "y": 300,
      "size": 1,
      "price": "1011000000000000000000",
      "reserved": "0x7a9fe22691c811ea339d9b73150e6911a5343dca",
      "salt": "0x2b9fd313fe204e9ef38dc919593065b13e8a919361a198427118c84599032ee8",
      "assetIds": []
    },
    {
      "x": 115,
      "y": 302,
      "size": 1,
      "price": "1011000000000000000000",
      "reserved": "",
      "salt": "0xc717cb4d4e9bd2f8db2e7e93602558fc7e8e0542e0d2863fd6b4b965915df24f",
      "assetIds": []
    },
    {
      "x": 115,
      "y": 306,
      "size": 1,
      "price": "1011000000000000000000",
      "reserved": "",
      "salt": "0xeef1cbffd5529549ee9c38b6c32e8d81884d0a19e005f047aba61e48dab01d93",
      "assetIds": []
    },
    {
      "x": 115,
      "y": 307,
      "size": 1,
      "price": "1011000000000000000000",
      "reserved": "0x7a9fe22691c811ea339d9b73150e6911a5343dca",
      "salt": "0xf61cc32981c5b88a70cba6bc5e1869e2704ab118b4df69a198cb45c015378e96",
      "assetIds": []
    },
    {
      "x": 115,
      "y": 308,
      "size": 1,
      "price": "1011000000000000000000",
      "reserved": "0x7a9fe22691c811ea339d9b73150e6911a5343dca",
      "salt": "0x95d5894e3cff1fe8639090e30a3d892bc53c1b09319bcb791880106eda2ff4b0",
      "assetIds": []
    },
    {
      "x": 116,
      "y": 300,
      "size": 1,
      "price": "1011000000000000000000",
      "reserved": "",
      "salt": "0x1193a82a0ef866ca5784affed93d1416cb8f2099d386995364843e52b48dd5ad",
      "assetIds": []
    },
    {
      "x": 116,
      "y": 301,
      "size": 1,
      "price": "1011000000000000000000",
      "reserved": "0x7a9fe22691c811ea339d9b73150e6911a5343dca",
      "salt": "0x1658e690f0d20543210a3d745e75150539d7d079aed3b0910b2bf2ccdb899b80",
      "assetIds": []
    },
    {
      "x": 116,
      "y": 302,
      "size": 1,
      "price": "1011000000000000000000",
      "reserved": "0x7a9fe22691c811ea339d9b73150e6911a5343dca",
      "salt": "0x27977c386dcfa5c5018c0241996db03ab08dfb79d150e4f46197a26430d73765",
      "assetIds": []
    },
    {
      "x": 116,
      "y": 306,
      "size": 1,
      "price": "4683000000000000000000",
      "reserved": "",
      "salt": "0x5e400e8725d11925aa5d311ac8fe6d4729c0d9179b63d610839264dbbd32f06a",
      "assetIds": []
    },
    {
      "x": 116,
      "y": 307,
      "size": 1,
      "price": "1011000000000000000000",
      "reserved": "",
      "salt": "0xb393836f185908b820ad22e08e3225747ddfb3b9b8a9ff559cfecacf3332afa5",
      "assetIds": []
    },
    {
      "x": 117,
      "y": 301,
      "size": 1,
      "price": "1011000000000000000000",
      "reserved": "",
      "salt": "0x7331ef7586a3b471f75949530a747b1649434208c19473f46d5013643f54cc15",
      "assetIds": []
    },
    {
      "x": 117,
      "y": 302,
      "size": 1,
      "price": "1011000000000000000000",
      "reserved": "",
      "salt": "0x94226a9a3cbe3047fc7b50297113d4e1560d207dd5d5c1a68349335f7277fc73",
      "assetIds": []
    },
    {
      "x": 117,
      "y": 304,
      "size": 1,
      "price": "1011000000000000000000",
      "reserved": "",
      "salt": "0x80863cb5df88f69a5a7a28db3b44018b0f03e0f5836416079a64a020879492ee",
      "assetIds": []
    },
    {
      "x": 117,
      "y": 307,
      "size": 1,
      "price": "1011000000000000000000",
      "reserved": "",
      "salt": "0xba7b305dc25435f072dd923eeb1d6b59791f024442fa6e6dadc9158d44cd6134",
      "assetIds": []
    },
    {
      "x": 117,
      "y": 308,
      "size": 1,
      "price": "1011000000000000000000",
      "reserved": "0x7a9fe22691c811ea339d9b73150e6911a5343dca",
      "salt": "0x12b68e755c5a04952fe4be2d6f586a563966d75a09e0b49912026de6fe40453f",
      "assetIds": []
    },
    {
      "x": 117,
      "y": 309,
      "size": 1,
      "price": "1011000000000000000000",
      "reserved": "",
      "salt": "0xc67691ff71393836bd238adec36dda2ee8a2dab05acf8d65ebe7e287360f5b3a",
      "assetIds": []
    },
    {
      "x": 117,
      "y": 310,
      "size": 1,
      "price": "1011000000000000000000",
      "reserved": "0x7a9fe22691c811ea339d9b73150e6911a5343dca",
      "salt": "0xc6d7028a7123eb2de0d379ce44ed3d31c0219825a958ce6d4e00a9d28660d319",
      "assetIds": []
    },
    {
      "x": 118,
      "y": 300,
      "size": 1,
      "price": "1011000000000000000000",
      "reserved": "",
      "salt": "0x2f9458d83aa3be0ee1cedd8a029cfe7de776b9a3e548d6ab66d3462270f94c06",
      "assetIds": []
    },
    {
      "x": 118,
      "y": 301,
      "size": 1,
      "price": "1011000000000000000000",
      "reserved": "0x7a9fe22691c811ea339d9b73150e6911a5343dca",
      "salt": "0xa28a107b8e36e562377659878d558a9cb5cf98d91d722f8970946e6b9eedb919",
      "assetIds": []
    },
    {
      "x": 118,
      "y": 303,
      "size": 1,
      "price": "1011000000000000000000",
      "reserved": "",
      "salt": "0x3708288e00a22996947d6006f2e18ad377fb500af3c513d1196a8d77d6f83208",
      "assetIds": []
    },
    {
      "x": 118,
      "y": 305,
      "size": 1,
      "price": "1011000000000000000000",
      "reserved": "",
      "salt": "0x8cc56bfca94ca81faac227c685c614cc103dc0908f4134d6f79378c80c7d0cb3",
      "assetIds": []
    },
    {
      "x": 118,
      "y": 306,
      "size": 1,
      "price": "1011000000000000000000",
      "reserved": "0x7a9fe22691c811ea339d9b73150e6911a5343dca",
      "salt": "0xeec579d69308cf126db2b1a186aec32021dccc290dbabe08db3ec6a0c077ebda",
      "assetIds": []
    },
    {
      "x": 118,
      "y": 307,
      "size": 1,
      "price": "1011000000000000000000",
      "reserved": "",
      "salt": "0x84b5ba744b10f726d67ea2c5230a6baf6de180912e99563775cae30b66786a76",
      "assetIds": []
    },
    {
      "x": 118,
      "y": 309,
      "size": 1,
      "price": "1011000000000000000000",
      "reserved": "",
      "salt": "0x05fc025d91e2a071c6f6288047a547ff8cfc9d59be95a76b78d7e2ffe423df13",
      "assetIds": []
    },
    {
      "x": 118,
      "y": 311,
      "size": 1,
      "price": "1011000000000000000000",
      "reserved": "",
      "salt": "0x62c5027fd142e3bfd4133703cd821d6878d450c7211cd4bff794c541e88a812f",
      "assetIds": []
    },
    {
      "x": 119,
      "y": 302,
      "size": 1,
      "price": "1011000000000000000000",
      "reserved": "",
      "salt": "0x42e6e317543120a6a72248a4f5f89b3557187b475a266f693ceca7a7617d3c76",
      "assetIds": []
    },
    {
      "x": 119,
      "y": 304,
      "size": 1,
      "price": "1011000000000000000000",
      "reserved": "0x7a9fe22691c811ea339d9b73150e6911a5343dca",
      "salt": "0x0128d5056a9c600c31541a28ff086d9ac8a7c1f46b3376e60e723cea983bebcc",
      "assetIds": []
    },
    {
      "x": 119,
      "y": 306,
      "size": 1,
      "price": "1011000000000000000000",
      "reserved": "",
      "salt": "0x3e2132c2903723fd9418dc3513364aa82ee90940e3fedc83c1fbce2e4ff49ae8",
      "assetIds": []
    },
    {
      "x": 119,
      "y": 308,
      "size": 1,
      "price": "1011000000000000000000",
      "reserved": "0x7a9fe22691c811ea339d9b73150e6911a5343dca",
      "salt": "0xe88cc67ed9b89ae32e27f52eb25c11a05a9928eb0d6456e2e90b8accb607ca70",
      "assetIds": []
    },
    {
      "x": 119,
      "y": 310,
      "size": 1,
      "price": "1011000000000000000000",
      "reserved": "",
      "salt": "0x9f0413180187cefad36e9d28dbde9bb55653d0e33b86190a3482714497c55d36",
      "assetIds": []
    },
    {
      "x": 120,
      "y": 295,
      "size": 1,
      "price": "1011000000000000000000",
      "reserved": "0x7a9fe22691c811ea339d9b73150e6911a5343dca",
      "salt": "0x182851ebf15a1153f9a78e8d269d9fc737f869fb4df8176f6a03de9b2e0e6124",
      "assetIds": []
    },
    {
      "x": 120,
      "y": 296,
      "size": 1,
      "price": "1011000000000000000000",
      "reserved": "",
      "salt": "0x1fb7aef7aaaa67f7719ba73fdea398d29abc6903b77840841ca721dd149d90d4",
      "assetIds": []
    },
    {
      "x": 120,
      "y": 297,
      "size": 1,
      "price": "1011000000000000000000",
      "reserved": "",
      "salt": "0xc2e916fbba578c5cbdcd2e2f395e1314067600373c3e4b6f2a4e7462f8295a40",
      "assetIds": []
    },
    {
      "x": 120,
      "y": 298,
      "size": 1,
      "price": "1011000000000000000000",
      "reserved": "",
      "salt": "0x793367a89ed4bc2915e8b5aa74d83d03edf8e1bbefa822e96e5fd28de31ab26b",
      "assetIds": []
    },
    {
      "x": 120,
      "y": 315,
      "size": 1,
      "price": "1011000000000000000000",
      "reserved": "",
      "salt": "0x8aaaafc7831b5c94fa8acdc460d2758d48d1fe6488a4cbec31064db4fd24251e",
      "assetIds": []
    },
    {
      "x": 120,
      "y": 316,
      "size": 1,
      "price": "1011000000000000000000",
      "reserved": "0x7a9fe22691c811ea339d9b73150e6911a5343dca",
      "salt": "0x85b9fd5715882c8cdae9f38005afac815b7da57fcbaf55e1fa8c621741832eae",
      "assetIds": []
    },
    {
      "x": 120,
      "y": 325,
      "size": 1,
      "price": "1011000000000000000000",
      "reserved": "",
      "salt": "0x58f403f7e1609382dfe52c54f2dc5334625f9aaf2f8f5edba18496eef74ab6f3",
      "assetIds": []
    },
    {
      "x": 121,
      "y": 294,
      "size": 1,
      "price": "1011000000000000000000",
      "reserved": "",
      "salt": "0xbc5319b738c1d4584b19d904a800a23bd3b28579db4558831e0ecae0da48d217",
      "assetIds": []
    },
    {
      "x": 121,
      "y": 297,
      "size": 1,
      "price": "1011000000000000000000",
      "reserved": "",
      "salt": "0xbf99dc9ee3fe56f06340b7397bdced1f3cd32327fd6c6dab080c453aca188db0",
      "assetIds": []
    },
    {
      "x": 121,
      "y": 299,
      "size": 1,
      "price": "1011000000000000000000",
      "reserved": "0x7a9fe22691c811ea339d9b73150e6911a5343dca",
      "salt": "0x369b04dcfa0b5a080a93106b88ff99616ddd12d19b23b5fa8fd6e64e1405203e",
      "assetIds": []
    },
    {
      "x": 121,
      "y": 317,
      "size": 1,
      "price": "1011000000000000000000",
      "reserved": "",
      "salt": "0x50dbcb17cbf78849320bbbf2cafcad9e46081d0ca8c13a9e65e17d122487e7c6",
      "assetIds": []
    },
    {
      "x": 121,
      "y": 318,
      "size": 1,
      "price": "1011000000000000000000",
      "reserved": "0x7a9fe22691c811ea339d9b73150e6911a5343dca",
      "salt": "0x2f5aab70060a5b39be47b3eaccb6fd959e86617595e74d0321c825ca16f46d3e",
      "assetIds": []
    },
    {
      "x": 121,
      "y": 319,
      "size": 1,
      "price": "1011000000000000000000",
      "reserved": "",
      "salt": "0xc38a1119fb5041beda690618177042f32b351dc74d5de52d2742f91a7487ef88",
      "assetIds": []
    },
    {
      "x": 121,
      "y": 320,
      "size": 1,
      "price": "1011000000000000000000",
      "reserved": "",
      "salt": "0xd0406f7b98be0d09cdc41424b104a9bf654d840c4404bb0dbfeb4cdb51b5e9f9",
      "assetIds": []
    },
    {
      "x": 121,
      "y": 324,
      "size": 1,
      "price": "1011000000000000000000",
      "reserved": "",
      "salt": "0x8615122c40f1b457d2489786d055107838d4fbcb8de95b8adb3f20245d5bf13f",
      "assetIds": []
    },
    {
      "x": 121,
      "y": 326,
      "size": 1,
      "price": "1011000000000000000000",
      "reserved": "",
      "salt": "0xb28e1a155d299eaed4591bbba95d607dca67343b4832b5d5ec0ddf1d7d6199c6",
      "assetIds": []
    },
    {
      "x": 122,
      "y": 295,
      "size": 1,
      "price": "1011000000000000000000",
      "reserved": "",
      "salt": "0xaa04ca5425f1d9d2c03840eeabf80c498dcf3373efa430b497143c56cfa87c61",
      "assetIds": []
    },
    {
      "x": 122,
      "y": 296,
      "size": 1,
      "price": "4683000000000000000000",
      "reserved": "",
      "salt": "0xc2f09f7e999a210b0e5423ff3a65ef1b1c5d2eb1e7c5180c61243ac53f158f01",
      "assetIds": []
    },
    {
      "x": 122,
      "y": 298,
      "size": 1,
      "price": "1011000000000000000000",
      "reserved": "",
      "salt": "0x89849b9bb7b412876c2fa0b8686a0445da838ec2a47c94b8575758cecdfc2dd5",
      "assetIds": []
    },
    {
      "x": 122,
      "y": 299,
      "size": 1,
      "price": "4683000000000000000000",
      "reserved": "",
      "salt": "0xca2d47e053778be9497b8b449c5dd1cb735597b2be1e48e14adb130532fc901f",
      "assetIds": []
    },
    {
      "x": 122,
      "y": 315,
      "size": 1,
      "price": "1011000000000000000000",
      "reserved": "",
      "salt": "0x987d3df863a06460d5168fbdb579e4e91556b04d806d5a4a18412ab4c27609ff",
      "assetIds": []
    },
    {
      "x": 122,
      "y": 316,
      "size": 1,
      "price": "1011000000000000000000",
      "reserved": "0x7a9fe22691c811ea339d9b73150e6911a5343dca",
      "salt": "0x03edb64514b1d4f81b950c0ccf131e1d656a1233df1aea1a48a9192ac910555c",
      "assetIds": []
    },
    {
      "x": 122,
      "y": 318,
      "size": 1,
      "price": "4683000000000000000000",
      "reserved": "",
      "salt": "0x257971ae02953c4c0239b8f8ff05cadecc76df6ff791f60350e8664237751ef3",
      "assetIds": []
    },
    {
      "x": 122,
      "y": 319,
      "size": 1,
      "price": "1011000000000000000000",
      "reserved": "0x7a9fe22691c811ea339d9b73150e6911a5343dca",
      "salt": "0x46151815f9d30766d5b6087f59d00aec6abb055175622155754afb7d8e0ff8b1",
      "assetIds": []
    },
    {
      "x": 122,
      "y": 325,
      "size": 1,
      "price": "1011000000000000000000",
      "reserved": "0x7a9fe22691c811ea339d9b73150e6911a5343dca",
      "salt": "0xc4543225c36b303f515b0e8b2838db03271e4cd78162854875af0f3b4a8ec4aa",
      "assetIds": []
    },
    {
      "x": 123,
      "y": 297,
      "size": 1,
      "price": "4683000000000000000000",
      "reserved": "",
      "salt": "0xc26a25a97d602e7b327d82c9938757743c026126220afb647e06869945321d5d",
      "assetIds": []
    },
    {
      "x": 123,
      "y": 298,
      "size": 1,
      "price": "1011000000000000000000",
      "reserved": "",
      "salt": "0x10228200c1cc8f64a2294701de9018aba74d61c7d6203d0eebc2ca9f5b3ed687",
      "assetIds": []
    },
    {
      "x": 123,
      "y": 299,
      "size": 1,
      "price": "1011000000000000000000",
      "reserved": "",
      "salt": "0xd8b10c45b8ad95b8ea592598987f54d170b72630d62cd8da8508b1d652514e23",
      "assetIds": []
    },
    {
      "x": 123,
      "y": 312,
      "size": 1,
      "price": "4683000000000000000000",
      "reserved": "",
      "salt": "0x74102fa8bb5ea713ecbc9e58ea8aa1bced5d898e71d4ec71f27692d6c2c69793",
      "assetIds": []
    },
    {
      "x": 123,
      "y": 314,
      "size": 1,
      "price": "1011000000000000000000",
      "reserved": "",
      "salt": "0x9a015264ec59289cb3a320ae0440b943a28a91825ee5ed3b7aa468b136e319f6",
      "assetIds": []
    },
    {
      "x": 123,
      "y": 317,
      "size": 1,
      "price": "4683000000000000000000",
      "reserved": "",
      "salt": "0x6bcde4454e958a22e2f00301f05aed74d667a72b22d3ee68b58e9364cbbbc92a",
      "assetIds": []
    },
    {
      "x": 123,
      "y": 323,
      "size": 1,
      "price": "1011000000000000000000",
      "reserved": "",
      "salt": "0xf2a10dcc878afe76c4605e7089d2f288818b9c2d187858e136d3ff9ae310a482",
      "assetIds": []
    },
    {
      "x": 123,
      "y": 324,
      "size": 1,
      "price": "1011000000000000000000",
      "reserved": "0x7a9fe22691c811ea339d9b73150e6911a5343dca",
      "salt": "0x2bf86f7cd1f4404c8949d80e7a0adc58ca9b5e35ff451a285432e41410e258a5",
      "assetIds": []
    },
    {
      "x": 123,
      "y": 326,
      "size": 1,
      "price": "1011000000000000000000",
      "reserved": "",
      "salt": "0xafd39a54302e748c5d9a1fd8f11feaccd8717a08ddeb9a93e9d1d92f1eaa6d17",
      "assetIds": []
    },
    {
      "x": 123,
      "y": 328,
      "size": 1,
      "price": "1011000000000000000000",
      "reserved": "0x7a9fe22691c811ea339d9b73150e6911a5343dca",
      "salt": "0xc531555c68bd7bdaf46da6fb3dd3aab146fd91a9c52d8abaeeb543f3a3875b17",
      "assetIds": []
    },
    {
      "x": 124,
      "y": 297,
      "size": 1,
      "price": "1011000000000000000000",
      "reserved": "",
      "salt": "0xfd5cc136f0f1304ea31d55d572a54837ad7d87f89d96fde7e73ba4201ed303ea",
      "assetIds": []
    },
    {
      "x": 124,
      "y": 298,
      "size": 1,
      "price": "1011000000000000000000",
      "reserved": "",
      "salt": "0x3b4f8a93dae7ef40b4d3c106c1155c89ae48f8cdb0303f7fdee8b4efe3fc7acd",
      "assetIds": []
    },
    {
      "x": 124,
      "y": 299,
      "size": 1,
      "price": "4683000000000000000000",
      "reserved": "",
      "salt": "0x6c2a7652ed9f886d7af1c8c60ad03058ce62ac5043497ddb14fe66eb569e5696",
      "assetIds": []
    },
    {
      "x": 124,
      "y": 312,
      "size": 1,
      "price": "1011000000000000000000",
      "reserved": "0x7a9fe22691c811ea339d9b73150e6911a5343dca",
      "salt": "0xdc1bb3f985e17133058822e76889e86f6387eae712feb3c2d2792425a2acfa28",
      "assetIds": []
    },
    {
      "x": 124,
      "y": 313,
      "size": 1,
      "price": "1011000000000000000000",
      "reserved": "",
      "salt": "0x8b9cf57475a42c6e5813e74068b281e836aa38564cc7e760fe223206ef1d9125",
      "assetIds": []
    },
    {
      "x": 124,
      "y": 315,
      "size": 1,
      "price": "1011000000000000000000",
      "reserved": "0x7a9fe22691c811ea339d9b73150e6911a5343dca",
      "salt": "0x3c0976b2a2384a22b5c7be403fc0e3f3b67017de69604fab8ad926e11d233d0e",
      "assetIds": []
    },
    {
      "x": 124,
      "y": 316,
      "size": 1,
      "price": "1011000000000000000000",
      "reserved": "",
      "salt": "0xb503ff8c77931d53e57c58286a1441ed86f2f01e6efc68ef090f052f08805c77",
      "assetIds": []
    },
    {
      "x": 124,
      "y": 317,
      "size": 1,
      "price": "1011000000000000000000",
      "reserved": "0x7a9fe22691c811ea339d9b73150e6911a5343dca",
      "salt": "0xee6cce59120839508784b916eb1499184aaa4025a76b791ea27acecf6fd163fd",
      "assetIds": []
    },
    {
      "x": 124,
      "y": 321,
      "size": 1,
      "price": "1011000000000000000000",
      "reserved": "",
      "salt": "0x8df195bca43d11635bf1108eff9bb8329c487bf3b7b72f594d01cb016fe3bcc2",
      "assetIds": []
    },
    {
      "x": 124,
      "y": 322,
      "size": 1,
      "price": "1011000000000000000000",
      "reserved": "0x7a9fe22691c811ea339d9b73150e6911a5343dca",
      "salt": "0x946c079b73bdc59dd2094d0ecb55115e584cb8f1e336659e4b37ff1568bc3787",
      "assetIds": []
    },
    {
      "x": 124,
      "y": 325,
      "size": 1,
      "price": "1011000000000000000000",
      "reserved": "0x7a9fe22691c811ea339d9b73150e6911a5343dca",
      "salt": "0xc6fb54f0b649530d3799a215e1df7fbd29635ce43ae50b261677a44f27c1c17d",
      "assetIds": []
    },
    {
      "x": 124,
      "y": 327,
      "size": 1,
      "price": "1011000000000000000000",
      "reserved": "",
      "salt": "0x28f02465e41b43faf7df3520af30f6f421928479532de4ead8965cfac5889f23",
      "assetIds": []
    },
    {
      "x": 124,
      "y": 329,
      "size": 1,
      "price": "1011000000000000000000",
      "reserved": "",
      "salt": "0x52f42afa8cd110bf6a3e24463eb69d0181fdd0bb44d3156a1ebb49927884776f",
      "assetIds": []
    },
    {
      "x": 125,
      "y": 297,
      "size": 1,
      "price": "4683000000000000000000",
      "reserved": "",
      "salt": "0x27d4e98848ee44c14cedc4d500213b920530500c2d4bf9b8d20fedc2cc33c23b",
      "assetIds": []
    },
    {
      "x": 125,
      "y": 299,
      "size": 1,
      "price": "1011000000000000000000",
      "reserved": "0x7a9fe22691c811ea339d9b73150e6911a5343dca",
      "salt": "0x298668257fe98693b30b9d0e2b4573a2de1c8b201a91149dac4caf0f5a89c05a",
      "assetIds": []
    },
    {
      "x": 125,
      "y": 312,
      "size": 1,
      "price": "4683000000000000000000",
      "reserved": "",
      "salt": "0x6b7a84b6c27afea3226a8f03b44287292d31a8bee91e083ba70e010df3320323",
      "assetIds": []
    },
    {
      "x": 125,
      "y": 314,
      "size": 1,
      "price": "1011000000000000000000",
      "reserved": "",
      "salt": "0xa7b79a3cbb98522e378b4ac42ef039dfe4cb8df4d44653cbcb5ca23d81f6c6be",
      "assetIds": []
    },
    {
      "x": 125,
      "y": 315,
      "size": 1,
      "price": "1011000000000000000000",
      "reserved": "",
      "salt": "0xedf0427c2f83e36996a6698a25e7e01ea934d3cdece32715c20c6eb037514ab4",
      "assetIds": []
    },
    {
      "x": 125,
      "y": 316,
      "size": 1,
      "price": "1011000000000000000000",
      "reserved": "",
      "salt": "0xa2daddf7ebf117b60760487040dfa89545b65b223aa2e233edc320ad29d71d64",
      "assetIds": []
    },
    {
      "x": 125,
      "y": 323,
      "size": 1,
      "price": "1011000000000000000000",
      "reserved": "",
      "salt": "0xe5aefe80c194d637612668c830f3f3c124f94326401120b53356ede44c9344e5",
      "assetIds": []
    },
    {
      "x": 125,
      "y": 324,
      "size": 1,
      "price": "1011000000000000000000",
      "reserved": "",
      "salt": "0xc30afa093257de8f09f4c9ddb76ba7f3fa2a3eb9f1b0cb782a2f394c177c643f",
      "assetIds": []
    },
    {
      "x": 125,
      "y": 326,
      "size": 1,
      "price": "1011000000000000000000",
      "reserved": "",
      "salt": "0x36da67428defa288fc4cd0bcd8262dca330ee101f35bceaba835483e2069a4e0",
      "assetIds": []
    },
    {
      "x": 125,
      "y": 327,
      "size": 1,
      "price": "1011000000000000000000",
      "reserved": "0x7a9fe22691c811ea339d9b73150e6911a5343dca",
      "salt": "0x5a88248bdba313c2bff91db6525f22b0f6f11e0cfc34eb4792280715d4cad37f",
      "assetIds": []
    },
    {
      "x": 125,
      "y": 328,
      "size": 1,
      "price": "1011000000000000000000",
      "reserved": "0x7a9fe22691c811ea339d9b73150e6911a5343dca",
      "salt": "0xa0f45ed4c52c5c1045ca83c40cc0f58512e990cca098676231458b02e72445b2",
      "assetIds": []
    },
    {
      "x": 126,
      "y": 294,
      "size": 1,
      "price": "1011000000000000000000",
      "reserved": "",
      "salt": "0xb5b34944ba3047c7c4e1933572ac993b65ed434d5b4fdd461bf91af3aff989b0",
      "assetIds": []
    },
    {
      "x": 126,
      "y": 295,
      "size": 1,
      "price": "4683000000000000000000",
      "reserved": "",
      "salt": "0x723b94762797d8736a044263620d1989a1e01c46bcaeca8717c9b3573718231f",
      "assetIds": []
    },
    {
      "x": 126,
      "y": 297,
      "size": 1,
      "price": "1011000000000000000000",
      "reserved": "",
      "salt": "0x576532aaf9862b9d102e76af556d6390e4bde81fcdc1a98b81d44c9f59d67bd9",
      "assetIds": []
    },
    {
      "x": 126,
      "y": 298,
      "size": 1,
      "price": "1011000000000000000000",
      "reserved": "",
      "salt": "0xee0fcab4b2762a8d6d2038abfdbc6fd99935bf929005bba4b3f0650165c7200e",
      "assetIds": []
    },
    {
      "x": 126,
      "y": 299,
      "size": 1,
      "price": "4683000000000000000000",
      "reserved": "",
      "salt": "0x0a4a419809d4c6dab8d34f0b1e413427755b906f9715a638de8fb51b6a708809",
      "assetIds": []
    },
    {
      "x": 126,
      "y": 313,
      "size": 1,
      "price": "1011000000000000000000",
      "reserved": "",
      "salt": "0x388986176c2ba4ce1bc24daa390868ebe02e4adef812d9000336c70c1479f636",
      "assetIds": []
    },
    {
      "x": 126,
      "y": 314,
      "size": 1,
      "price": "1011000000000000000000",
      "reserved": "0x7a9fe22691c811ea339d9b73150e6911a5343dca",
      "salt": "0x443c587fa25e0a791a8e98934c450c13010ab473073318e02e819ad689d4defb",
      "assetIds": []
    },
    {
      "x": 126,
      "y": 318,
      "size": 1,
      "price": "4683000000000000000000",
      "reserved": "",
      "salt": "0xbddf7e7e1ad69fd9b0c2b15a40de63de8bd8bfa6f743f05378f62dbc6b6bd18f",
      "assetIds": []
    },
    {
      "x": 126,
      "y": 320,
      "size": 1,
      "price": "4683000000000000000000",
      "reserved": "",
      "salt": "0x817bf0c1504147ef483331492a1f61813535f76e0c9334e0018ee3f9bf7fdf3e",
      "assetIds": []
    },
    {
      "x": 126,
      "y": 322,
      "size": 1,
      "price": "1011000000000000000000",
      "reserved": "",
      "salt": "0xc17fde896139467cd2fd66239b6c4449ed5eff23108a54566315b32cf5ead44e",
      "assetIds": []
    },
    {
      "x": 126,
      "y": 327,
      "size": 1,
      "price": "1011000000000000000000",
      "reserved": "",
      "salt": "0x0c9189c9648a3f291dda28a12bd1688dab232fa5f7cf62dccad42511ae70e80c",
      "assetIds": []
    },
    {
      "x": 126,
      "y": 329,
      "size": 1,
      "price": "1011000000000000000000",
      "reserved": "0x7a9fe22691c811ea339d9b73150e6911a5343dca",
      "salt": "0x65cfd5c9e69c3fa33b5999793c07081fd909c6d6d2305e51b8417c3827570f98",
      "assetIds": []
    },
    {
      "x": 127,
      "y": 294,
      "size": 1,
      "price": "1011000000000000000000",
      "reserved": "",
      "salt": "0xca86a71d404c2c4012f5ae269da7564a5b4d12d51be71700bfeefef292062c29",
      "assetIds": []
    },
    {
      "x": 127,
      "y": 296,
      "size": 1,
      "price": "1011000000000000000000",
      "reserved": "",
      "salt": "0xe4edf6a1044ba1f73a4a58a2b5d3b0b4c2a19abd3875c92c2551ce3da346f30d",
      "assetIds": []
    },
    {
      "x": 127,
      "y": 298,
      "size": 1,
      "price": "1011000000000000000000",
      "reserved": "",
      "salt": "0x882f158e4a6f7c43be55a923ccbeb6cc851d06f9acb33ad46ed890151456b078",
      "assetIds": []
    },
    {
      "x": 127,
      "y": 299,
      "size": 1,
      "price": "4683000000000000000000",
      "reserved": "",
      "salt": "0x4712a593bec163d899786c58e8ea4fb907a8c466db67b2ba06fd35a1bdeacd61",
      "assetIds": []
    },
    {
      "x": 127,
      "y": 312,
      "size": 1,
      "price": "4683000000000000000000",
      "reserved": "",
      "salt": "0xeff86959b436754c7c3164109dee79644058f86b8b6bdee8217863624f6b95e0",
      "assetIds": []
    },
    {
      "x": 127,
      "y": 314,
      "size": 1,
      "price": "1011000000000000000000",
      "reserved": "",
      "salt": "0x7538ec32d1934094cc2af0b8315239ce44d5a01243965cff48a58ade249595c7",
      "assetIds": []
    },
    {
      "x": 127,
      "y": 318,
      "size": 1,
      "price": "1011000000000000000000",
      "reserved": "",
      "salt": "0xa6d8d24059cdba98bc118c007a802d672504d535b5e4f1dbfb1afa0f42506391",
      "assetIds": []
    },
    {
      "x": 127,
      "y": 319,
      "size": 1,
      "price": "1011000000000000000000",
      "reserved": "0x7a9fe22691c811ea339d9b73150e6911a5343dca",
      "salt": "0xd1c127a1540a5f24a710bf402f45faef5c03b11c288129a8de58e6e36131cb6b",
      "assetIds": []
    },
    {
      "x": 127,
      "y": 320,
      "size": 1,
      "price": "1011000000000000000000",
      "reserved": "",
      "salt": "0x00f1a24d17e997162a0ba6768e2dd32ae6dff20eb4995e40aeb131fbdf64fa49",
      "assetIds": []
    },
    {
      "x": 127,
      "y": 321,
      "size": 1,
      "price": "1011000000000000000000",
      "reserved": "",
      "salt": "0xaef1e960f4ff94fa2c3c8445765ea1d889952c7f6659ebae29dffbda2f146402",
      "assetIds": []
    },
    {
      "x": 127,
      "y": 322,
      "size": 1,
      "price": "1011000000000000000000",
      "reserved": "",
      "salt": "0x07421f6721df9bb2025262fefbe1607004031c0512855543f5405b4c1d894a04",
      "assetIds": []
    },
    {
      "x": 127,
      "y": 323,
      "size": 1,
      "price": "1011000000000000000000",
      "reserved": "0x7a9fe22691c811ea339d9b73150e6911a5343dca",
      "salt": "0xb006551d58e85283ccca6f04080ff82b7835685029c9417c75e7407b8fe57422",
      "assetIds": []
    },
    {
      "x": 127,
      "y": 328,
      "size": 1,
      "price": "1011000000000000000000",
      "reserved": "",
      "salt": "0x061372ceedd90362a76f486793dad916ddd536fcba87469ff84820853a5abcf8",
      "assetIds": []
    },
    {
      "x": 128,
      "y": 294,
      "size": 1,
      "price": "1011000000000000000000",
      "reserved": "0x7a9fe22691c811ea339d9b73150e6911a5343dca",
      "salt": "0xe0af2912f763087e2e5b51bbe67a3f45eb34be746ec8292a833a5d2c7ff70724",
      "assetIds": []
    },
    {
      "x": 128,
      "y": 295,
      "size": 1,
      "price": "1011000000000000000000",
      "reserved": "",
      "salt": "0x758922b2577674ebc642df52239cde5892f779b8365a94447124af440cf54cb9",
      "assetIds": []
    },
    {
      "x": 128,
      "y": 296,
      "size": 1,
      "price": "1011000000000000000000",
      "reserved": "",
      "salt": "0xd6d477840a500205659700e49f79b1f4c3ce2e5caf5d6905f9973a7ee89c7a30",
      "assetIds": []
    },
    {
      "x": 128,
      "y": 297,
      "size": 1,
      "price": "1011000000000000000000",
      "reserved": "",
      "salt": "0x9d11d0e04cebfa9e619bedb6225353a5e94a9db3a36ce3171f7bfcca48234e94",
      "assetIds": []
    },
    {
      "x": 128,
      "y": 298,
      "size": 1,
      "price": "1011000000000000000000",
      "reserved": "0x7a9fe22691c811ea339d9b73150e6911a5343dca",
      "salt": "0x848bbb05b1e36005ee25774073bce34b2be630934087f9bd6f50e4a760ae8efd",
      "assetIds": []
    },
    {
      "x": 128,
      "y": 299,
      "size": 1,
      "price": "4683000000000000000000",
      "reserved": "",
      "salt": "0x1c24504ece3754c6d17eb1cbbf8c9f4183dc7fdc8f9c67fd4bfea9ebcfdd2475",
      "assetIds": []
    },
    {
      "x": 128,
      "y": 312,
      "size": 1,
      "price": "1011000000000000000000",
      "reserved": "0x7a9fe22691c811ea339d9b73150e6911a5343dca",
      "salt": "0xe746b4715e63cb88d9ff4a40632d4f5e3a301be155e5451ab168a56fa67cd341",
      "assetIds": []
    },
    {
      "x": 128,
      "y": 313,
      "size": 1,
      "price": "1011000000000000000000",
      "reserved": "",
      "salt": "0x1a61cff6effb148af0306f71f77229b24f04b1227eb35ff47267d5506bb3b32e",
      "assetIds": []
    },
    {
      "x": 128,
      "y": 314,
      "size": 1,
      "price": "1011000000000000000000",
      "reserved": "0x7a9fe22691c811ea339d9b73150e6911a5343dca",
      "salt": "0xa74fe8a41a2651ee9465dbd190a362f23a351608f2e504bc4f0136199b1bd159",
      "assetIds": []
    },
    {
      "x": 128,
      "y": 318,
      "size": 1,
      "price": "1011000000000000000000",
      "reserved": "",
      "salt": "0x701d877e4e7af3687b15d4ce5c9112a99d764ef1ed7f030acc0f20211250088d",
      "assetIds": []
    },
    {
      "x": 128,
      "y": 319,
      "size": 1,
      "price": "1011000000000000000000",
      "reserved": "0x7a9fe22691c811ea339d9b73150e6911a5343dca",
      "salt": "0xebd3d02a29c0bc5a9a2eab02574f042fbce0acbbf7a96a1426c0f6b4068ad1a0",
      "assetIds": []
    },
    {
      "x": 128,
      "y": 321,
      "size": 1,
      "price": "1011000000000000000000",
      "reserved": "0x7a9fe22691c811ea339d9b73150e6911a5343dca",
      "salt": "0xcbe34a95bbb9f3353bb802541688e5863f3910cdb02de489b95cdb7a54a28e4d",
      "assetIds": []
    },
    {
      "x": 128,
      "y": 322,
      "size": 1,
      "price": "1011000000000000000000",
      "reserved": "",
      "salt": "0x988ff0076a4ae8f5c5489f2a133069a19df74793411ba7414912b63639f3c5a9",
      "assetIds": []
    },
    {
      "x": 128,
      "y": 323,
      "size": 1,
      "price": "4683000000000000000000",
      "reserved": "",
      "salt": "0x08b4c012f477cfdc70e65d1cc866669c35eef73e934fd8ef84cb9dc835d1a11b",
      "assetIds": []
    },
    {
      "x": 128,
      "y": 327,
      "size": 1,
      "price": "1011000000000000000000",
      "reserved": "",
      "salt": "0xdca1e79989e64baed46d511d2305d42dbba4bcfd376dd774669a9ce2a14cc473",
      "assetIds": []
    },
    {
      "x": 128,
      "y": 329,
      "size": 1,
      "price": "1011000000000000000000",
      "reserved": "",
      "salt": "0xc7507cfd6e0fc50ad2e87c15f78a8d5aad032a080045bd8c18e7439a6b20f5f0",
      "assetIds": []
    },
    {
      "x": 129,
      "y": 297,
      "size": 1,
      "price": "1011000000000000000000",
      "reserved": "",
      "salt": "0xf4e70ee23f00ee8f7ff4e5b8411b0dc81a5c76ca3475bc63e7b6a2be532667d7",
      "assetIds": []
    },
    {
      "x": 129,
      "y": 299,
      "size": 1,
      "price": "1011000000000000000000",
      "reserved": "",
      "salt": "0x3f040caf9613d6073b7ee130c0375b6defdbd687e844a735144f1499b9be9566",
      "assetIds": []
    },
    {
      "x": 129,
      "y": 312,
      "size": 1,
      "price": "4683000000000000000000",
      "reserved": "",
      "salt": "0x368e644a7a3d3ab60984ed039e825c88fcd1c83c2aef0a94da3b54714873c1a4",
      "assetIds": []
    },
    {
      "x": 129,
      "y": 314,
      "size": 1,
      "price": "1011000000000000000000",
      "reserved": "",
      "salt": "0xfdcd5c224b439be19cfd0303de803b93cd88562354b2031766da0726f85772dc",
      "assetIds": []
    },
    {
      "x": 129,
      "y": 315,
      "size": 1,
      "price": "1011000000000000000000",
      "reserved": "",
      "salt": "0x54b38e693b4cb7a5ac8feb4cd4e710f64d8626ef73c852081ff870a0b2f06c26",
      "assetIds": []
    },
    {
      "x": 129,
      "y": 316,
      "size": 1,
      "price": "1011000000000000000000",
      "reserved": "",
      "salt": "0x53686f3f73aea6b9386a8d229fc6f36a305fb4b90d3029a9f26ea125d93485bb",
      "assetIds": []
    },
    {
      "x": 129,
      "y": 317,
      "size": 1,
      "price": "1011000000000000000000",
      "reserved": "",
      "salt": "0x6c86377d164e4003710ccaa68a809e19dba49dad3efe4bae930f79e856f00b0a",
      "assetIds": []
    },
    {
      "x": 129,
      "y": 318,
      "size": 1,
      "price": "1011000000000000000000",
      "reserved": "0x7a9fe22691c811ea339d9b73150e6911a5343dca",
      "salt": "0xd6733178d49b687fbeb8d582e241dfcd85362af25b65bb3b5e8bf5075cda70e5",
      "assetIds": []
    },
    {
      "x": 129,
      "y": 320,
      "size": 1,
      "price": "1011000000000000000000",
      "reserved": "",
      "salt": "0x179646dec59a32e2e041d1053978ec3901d9cd1f1877717ea70b236535c2ce08",
      "assetIds": []
    },
    {
      "x": 129,
      "y": 326,
      "size": 1,
      "price": "1011000000000000000000",
      "reserved": "",
      "salt": "0x6906359bd7267791c7b3fb7ab0d1205bba0f881ffa269bd08fe32e156d207022",
      "assetIds": []
    },
    {
      "x": 129,
      "y": 328,
      "size": 1,
      "price": "1011000000000000000000",
      "reserved": "0x7a9fe22691c811ea339d9b73150e6911a5343dca",
      "salt": "0x1d00bf12ab92c6a45d0e8ff2499d90763107426b09a40bca04e410455413563b",
      "assetIds": []
    },
    {
      "x": 130,
      "y": 297,
      "size": 1,
      "price": "1011000000000000000000",
      "reserved": "0x7a9fe22691c811ea339d9b73150e6911a5343dca",
      "salt": "0xfdd072007257bcff950389931d451a569d8f115bacead229e5ff1083fafd8eb4",
      "assetIds": []
    },
    {
      "x": 130,
      "y": 298,
      "size": 1,
      "price": "1011000000000000000000",
      "reserved": "",
      "salt": "0x3b5755bbcad107b9fce9dbf467b022c2b6836729389ebc16ae3b7be8b6a104f7",
      "assetIds": []
    },
    {
      "x": 130,
      "y": 299,
      "size": 1,
      "price": "4683000000000000000000",
      "reserved": "",
      "salt": "0x7bc5544e2c718045bc17234ae41c885433a5fb5789f80ec91c99f3126c100972",
      "assetIds": []
    },
    {
      "x": 130,
      "y": 312,
      "size": 1,
      "price": "1011000000000000000000",
      "reserved": "",
      "salt": "0x5d88074f3c163ebf386c4bb066bd84b76253ae6528b5b31931214dc70424c9a8",
      "assetIds": []
    },
    {
      "x": 130,
      "y": 313,
      "size": 1,
      "price": "1011000000000000000000",
      "reserved": "",
      "salt": "0xd575c74b7c04d2600623f0d690ab7797e96319e0ffb7c527b8b470fd637f058e",
      "assetIds": []
    },
    {
      "x": 130,
      "y": 315,
      "size": 1,
      "price": "1011000000000000000000",
      "reserved": "",
      "salt": "0x64800de9b2b058566bcb07458d231e3617da910add55dbf3bd29e3469abcf4c6",
      "assetIds": []
    },
    {
      "x": 130,
      "y": 316,
      "size": 1,
      "price": "1011000000000000000000",
      "reserved": "0x7a9fe22691c811ea339d9b73150e6911a5343dca",
      "salt": "0xb61ae708744986f77790c1f40125cc702d305ce68882f2f32abff22549598794",
      "assetIds": []
    },
    {
      "x": 130,
      "y": 317,
      "size": 1,
      "price": "1011000000000000000000",
      "reserved": "0x7a9fe22691c811ea339d9b73150e6911a5343dca",
      "salt": "0xe841003053b547783bb4bfd40098fd97d2a1fe98bcb00b164f6a2d7a5af5c036",
      "assetIds": []
    },
    {
      "x": 130,
      "y": 319,
      "size": 1,
      "price": "1011000000000000000000",
      "reserved": "",
      "salt": "0x374c57639469baed74a2207e2a0b8a02b2af1c190e22eebf807e8e9b5e353068",
      "assetIds": []
    },
    {
      "x": 130,
      "y": 320,
      "size": 1,
      "price": "1011000000000000000000",
      "reserved": "0x7a9fe22691c811ea339d9b73150e6911a5343dca",
      "salt": "0xb18a10a9645c5ea18b052ffcf96e4e20e59cc25998ddc74c6faba0cd5629545b",
      "assetIds": []
    },
    {
      "x": 130,
      "y": 324,
      "size": 1,
      "price": "1011000000000000000000",
      "reserved": "",
      "salt": "0x7de4af6f01e85ef8183801889d486fc69a76874324b39fbb444faf2b98ed4960",
      "assetIds": []
    },
    {
      "x": 130,
      "y": 325,
      "size": 1,
      "price": "1011000000000000000000",
      "reserved": "0x7a9fe22691c811ea339d9b73150e6911a5343dca",
      "salt": "0x97ea6357abb5b7dcc4737445428146317084f41b97352de7b37f2b686b233c31",
      "assetIds": []
    },
    {
      "x": 130,
      "y": 326,
      "size": 1,
      "price": "1011000000000000000000",
      "reserved": "0x7a9fe22691c811ea339d9b73150e6911a5343dca",
      "salt": "0x9d2f7caab9dea10491c00b417fc9bf1dfd10c36664e845e748728559c318b6b9",
      "assetIds": []
    },
    {
      "x": 130,
      "y": 327,
      "size": 1,
      "price": "1011000000000000000000",
      "reserved": "",
      "salt": "0x170ddf0123ba42267c22cc8cedef104e04321e2902273f4748debf8f53197f0e",
      "assetIds": []
    },
    {
      "x": 130,
      "y": 328,
      "size": 1,
      "price": "1011000000000000000000",
      "reserved": "",
      "salt": "0xe9d6acef512e078d186b02642d4ebe7c2cf1273b6c8eef6e01d0be6ff2c8b1d5",
      "assetIds": []
    },
    {
      "x": 130,
      "y": 329,
      "size": 1,
      "price": "1011000000000000000000",
      "reserved": "0x7a9fe22691c811ea339d9b73150e6911a5343dca",
      "salt": "0x138a87336623c3eb0b183fee977336016a9a36ffa886091be4f2104e6a817fd4",
      "assetIds": []
    },
    {
      "x": 131,
      "y": 298,
      "size": 1,
      "price": "1011000000000000000000",
      "reserved": "0x7a9fe22691c811ea339d9b73150e6911a5343dca",
      "salt": "0x1fd295c25f17551a209089ee556f704e99b42f3d15ad01bdffe3939acfcfd0f9",
      "assetIds": []
    },
    {
      "x": 131,
      "y": 299,
      "size": 1,
      "price": "1011000000000000000000",
      "reserved": "0x7a9fe22691c811ea339d9b73150e6911a5343dca",
      "salt": "0x91c78ea7411cb7644cea94ad57e6fbf2452c0c067dab5eb1ed829152188b108a",
      "assetIds": []
    },
    {
      "x": 131,
      "y": 312,
      "size": 1,
      "price": "4683000000000000000000",
      "reserved": "",
      "salt": "0xaf1a9f0eee19e2cd358cb1caa59ad9e18fddd494358948f5cf8be1ce5d6d30dd",
      "assetIds": []
    },
    {
      "x": 131,
      "y": 314,
      "size": 1,
      "price": "1011000000000000000000",
      "reserved": "",
      "salt": "0x8a25c786dbbaf97ab9ab60fb19bff2a51d5f617c66b11dc7f77678f566218fce",
      "assetIds": []
    },
    {
      "x": 131,
      "y": 317,
      "size": 1,
      "price": "1011000000000000000000",
      "reserved": "",
      "salt": "0x9fbc33cf5ccf0649e74750df5f7818e43f3df12521fced948ace4749d3ccf2d5",
      "assetIds": []
    },
    {
      "x": 131,
      "y": 318,
      "size": 1,
      "price": "1011000000000000000000",
      "reserved": "",
      "salt": "0x935025fe8c199269cd2d9ef485745f3f92165c442a15515550f84a0550cf69b4",
      "assetIds": []
    },
    {
      "x": 131,
      "y": 320,
      "size": 1,
      "price": "4683000000000000000000",
      "reserved": "",
      "salt": "0x66f3717bd1e27600ccf9d7a17ebb995c9c92438fc2946fca3bb9b1fb113b5467",
      "assetIds": []
    },
    {
      "x": 131,
      "y": 326,
      "size": 1,
      "price": "1011000000000000000000",
      "reserved": "0x7a9fe22691c811ea339d9b73150e6911a5343dca",
      "salt": "0xb9d7e1780342f98096bf4642efc7ae3dbe35e71c6fbaa4131e1714e9b3b2d832",
      "assetIds": []
    },
    {
      "x": 131,
      "y": 328,
      "size": 1,
      "price": "1011000000000000000000",
      "reserved": "",
      "salt": "0x4a00bebf5f475f80af2c3f1968d7cf99a995d622ad0601983a07ee017b4dc24f",
      "assetIds": []
    },
    {
      "x": 131,
      "y": 329,
      "size": 1,
      "price": "1011000000000000000000",
      "reserved": "",
      "salt": "0xe2d41cb3e019b7a58d3aa18f2a5629bd947a9b2b81a78270adc70f011bb55574",
      "assetIds": []
    },
    {
      "x": 132,
      "y": 309,
      "size": 1,
      "price": "1011000000000000000000",
      "reserved": "",
      "salt": "0x11159a2df38845016de1c142c61de8a7aedf980094246ff652088a5c02c61acf",
      "assetIds": []
    },
    {
      "x": 132,
      "y": 318,
      "size": 1,
      "price": "1011000000000000000000",
      "reserved": "0x7a9fe22691c811ea339d9b73150e6911a5343dca",
      "salt": "0x7fed397d3aadcd5ceab9ceab43b4b34b839e6087d38d167a37a315672f0ca954",
      "assetIds": []
    },
    {
      "x": 132,
      "y": 320,
      "size": 1,
      "price": "1011000000000000000000",
      "reserved": "",
      "salt": "0xec197f1fd89398930e62ed6975703070263a86e8978de370e863e8bf2b58512b",
      "assetIds": []
    },
    {
      "x": 133,
      "y": 309,
      "size": 1,
      "price": "1011000000000000000000",
      "reserved": "0x7a9fe22691c811ea339d9b73150e6911a5343dca",
      "salt": "0xaa77557876e9ddbc85aa68fc26f749d2d7d040b02687dd3b37d0795178773154",
      "assetIds": []
    },
    {
      "x": 133,
      "y": 311,
      "size": 1,
      "price": "1011000000000000000000",
      "reserved": "0x7a9fe22691c811ea339d9b73150e6911a5343dca",
      "salt": "0x7dd5be1f7989a1d353ac8d93671abe92c601c6a6bf99352a285e9f24c0856803",
      "assetIds": []
    },
    {
      "x": 133,
      "y": 319,
      "size": 1,
      "price": "1011000000000000000000",
      "reserved": "",
      "salt": "0x3d62ebe4d513b3a71c8ee107851fc0f752da156ae4872784f0bd939cd2333daa",
      "assetIds": []
    },
    {
      "x": 134,
      "y": 308,
      "size": 1,
      "price": "1011000000000000000000",
      "reserved": "",
      "salt": "0x66c6b8061b03f38bab2a95f70d5d0c62718b647bc8609fee9110d53e1ac95577",
      "assetIds": []
    },
    {
      "x": 134,
      "y": 309,
      "size": 1,
      "price": "4683000000000000000000",
      "reserved": "",
      "salt": "0xb84f07f5f51f1861a28ab80b27ecd3e240046a6806c7bdd4015720d8504a8c6a",
      "assetIds": []
    },
    {
      "x": 134,
      "y": 310,
      "size": 1,
      "price": "4683000000000000000000",
      "reserved": "",
      "salt": "0x55d4ad98eb59af2df779504aa42a8ea22cada03b5b78340719a7a63e0ba163b8",
      "assetIds": []
    },
    {
      "x": 134,
      "y": 311,
      "size": 1,
      "price": "4683000000000000000000",
      "reserved": "",
      "salt": "0xce24eecf4b4a98273ee447cebbe19042b64d1e3a052aab138c1897e9d75f97a9",
      "assetIds": []
    },
    {
      "x": 134,
      "y": 318,
      "size": 1,
      "price": "1011000000000000000000",
      "reserved": "0x7a9fe22691c811ea339d9b73150e6911a5343dca",
      "salt": "0x1bfdcea3186ee744fc29836ca40c94d05ee32b929d4726a597070e7132cbf34a",
      "assetIds": []
    },
    {
      "x": 134,
      "y": 320,
      "size": 1,
      "price": "1011000000000000000000",
      "reserved": "0x7a9fe22691c811ea339d9b73150e6911a5343dca",
      "salt": "0x9cf2d1dfea8e88e95bf6d0db9d1779d2256f3a0851140e8dfbfb8178a21c01c1",
      "assetIds": []
    },
    {
      "x": 135,
      "y": 319,
      "size": 1,
      "price": "1011000000000000000000",
      "reserved": "",
      "salt": "0x19458322e514d15ddbdf81f7ae308220057cc4013ac5174c67a3cacdc9f49a1f",
      "assetIds": []
    },
    {
      "x": 136,
      "y": 318,
      "size": 1,
      "price": "1011000000000000000000",
      "reserved": "0x7a9fe22691c811ea339d9b73150e6911a5343dca",
      "salt": "0x12a1bdb8bd7a5bc113a9f27d58b74e4e904dbaf41881f2a18272ed320cd125bc",
      "assetIds": []
    },
    {
      "x": 136,
      "y": 320,
      "size": 1,
      "price": "1011000000000000000000",
      "reserved": "",
      "salt": "0xfcb2e3837172bc9e33b9be383d88be60a6cc3412aebdf461d09226cfe8b569fe",
      "assetIds": []
    },
    {
      "x": 137,
      "y": 319,
      "size": 1,
      "price": "1011000000000000000000",
      "reserved": "0x7a9fe22691c811ea339d9b73150e6911a5343dca",
      "salt": "0x8ee70ea450a3ef49775e0ad4b21ac25c2ee8664854b74ae6e4eb5f83c0d36e03",
      "assetIds": []
    }
  ],
  "solcInputHash": "8858f9e6ab4f09df358810b0137a379b",
  "bytecode": "0x6101606040523480156200001257600080fd5b50604051620031e9380380620031e983398181016040526101a08110156200003957600080fd5b508051602082015160408301516060840151608085015160a086015160c087015160e08801516101008901516101208a01516101408b01516101608c0151610180909c015160016000559a9b999a9899979896979596949593949293919290919085856001600160a01b038216620000f8576040805162461bcd60e51b815260206004820152601f60248201527f526566657272616c56616c696461746f723a207a65726f206164647265737300604482015290519081900360640190fd5b600380546001600160a01b0319166001600160a01b0393841617905560045562000130908e1662000459602090811b62002adc17901c565b6200016d5760405162461bcd60e51b8152600401808060200182810382526025815260200180620031c46025913960400191505060405180910390fd5b6200018c8c6001600160a01b03166200045960201b62002adc1760201c565b620001c95760405162461bcd60e51b8152600401808060200182810382526025815260200180620031c46025913960400191505060405180910390fd5b6001600160a01b038b1662000214576040805162461bcd60e51b815260206004820181905260248201526000805160206200317f833981519152604482015290519081900360640190fd5b6001600160a01b038a166200025f576040805162461bcd60e51b815260206004820181905260248201526000805160206200317f833981519152604482015290519081900360640190fd5b6001600160a01b038916620002aa576040805162461bcd60e51b815260206004820181905260248201526000805160206200317f833981519152604482015290519081900360640190fd5b620002c9836001600160a01b03166200045960201b62002adc1760201c565b620003065760405162461bcd60e51b8152600401808060200182810382526025815260200180620031c46025913960400191505060405180910390fd5b6001600160a01b03821662000351576040805162461bcd60e51b815260206004820181905260248201526000805160206200317f833981519152604482015290519081900360640190fd5b62000370816001600160a01b03166200045960201b62002adc1760201c565b620003ad5760405162461bcd60e51b8152600401808060200182810382526025815260200180620031c46025913960400191505060405180910390fd5b6001600160601b031960608e811b821660a0528d901b1660c052620003dd8b60016001600160e01b036200045f16565b600680546001600160a01b039a8b166001600160a01b031991821617909155610140989098526101209690965260018054998916998816999099179098556001600160601b0319606092831b811660e05290821b811660805296901b909516610100525060078054919093169116179055506200050a92505050565b3b151590565b6001600160a01b038216620004a65760405162461bcd60e51b81526004018080602001828103825260258152602001806200319f6025913960400191505060405180910390fd5b6001600160a01b038216600081815260026020908152604091829020805460ff191685151590811790915582519384529083015280517fb21eb88b4e33b3f1281830a7178d74d8aa73220416215726b68ae23d539515cb9281900390910190a15050565b60805160601c60a05160601c60c05160601c60e05160601c6101005160601c6101205161014051612bef6200059060003980610be0528061247e525080610bbc528061159d5250806124fc525080611af25280611c4f525080611aa85280611e4e52806124d9525080611b235280611c205250806111075280611f3a5250612bef6000f3fe608060405234801561001057600080fd5b50600436106101365760003560e01c8063984d6252116100b2578063c10a420811610081578063dc5074af11610066578063dc5074af146108a0578063e56f8a9e146108c6578063f23a6e61146108e357610136565b8063c10a4208146107c1578063caed35001461089857610136565b8063984d62521461055f578063ab1cc78c14610631578063b522ecff14610639578063bc197c811461065f57610136565b806365194ce71161010957806378e6e5b9116100ee57806378e6e5b9146104e55780638a04af6a1461050b5780638f2839701461053957610136565b806365194ce7146103635780636e9960c3146104c157610136565b80631187fd3c1461013b57806325cb5bc01461031b578063495906571461033557806358bc29441461033d575b600080fd5b610319600480360361012081101561015257600080fd5b6001600160a01b038235811692602081013582169260408201359092169181019060808101606082013564010000000081111561018e57600080fd5b8201836020820111156101a057600080fd5b803590602001918460208302840111640100000000831117156101c257600080fd5b919390928235926040810190602001356401000000008111156101e457600080fd5b8201836020820111156101f657600080fd5b8035906020019184602083028401116401000000008311171561021857600080fd5b91939092909160208101903564010000000081111561023657600080fd5b82018360208201111561024857600080fd5b8035906020019184602083028401116401000000008311171561026a57600080fd5b91939092909160208101903564010000000081111561028857600080fd5b82018360208201111561029a57600080fd5b803590602001918460018302840111640100000000831117156102bc57600080fd5b9193909290916020810190356401000000008111156102da57600080fd5b8201836020820111156102ec57600080fd5b8035906020019184600183028401116401000000008311171561030e57600080fd5b509092509050610978565b005b610323610bba565b60408051918252519081900360200190f35b610323610bde565b6103196004803603602081101561035357600080fd5b50356001600160a01b0316610c02565b6104096004803603602081101561037957600080fd5b81019060208101813564010000000081111561039457600080fd5b8201836020820111156103a657600080fd5b803590602001918460018302840111640100000000831117156103c857600080fd5b91908080601f016020809104026020016040519081016040528093929190818152602001838380828437600092019190915250929550610d2e945050505050565b6040518080602001866001600160a01b03166001600160a01b03168152602001856001600160a01b03166001600160a01b03168152602001848152602001838152602001828103825287818151815260200191508051906020019080838360005b8381101561048257818101518382015260200161046a565b50505050905090810190601f1680156104af5780820380516001836020036101000a031916815260200191505b50965050505050505060405180910390f35b6104c9610e33565b604080516001600160a01b039092168252519081900360200190f35b610319600480360360208110156104fb57600080fd5b50356001600160a01b0316610e42565b6103196004803603604081101561052157600080fd5b506001600160a01b0381351690602001351515610f00565b6103196004803603602081101561054f57600080fd5b50356001600160a01b0316610f6d565b6103196004803603606081101561057557600080fd5b6001600160a01b0382351691908101906040810160208201356401000000008111156105a057600080fd5b8201836020820111156105b257600080fd5b803590602001918460208302840111640100000000831117156105d457600080fd5b9193909290916020810190356401000000008111156105f257600080fd5b82018360208201111561060457600080fd5b8035906020019184602083028401116401000000008311171561062657600080fd5b5090925090506110a6565b610323611231565b6103196004803603602081101561064f57600080fd5b50356001600160a01b0316611237565b61078c600480360360a081101561067557600080fd5b6001600160a01b0382358116926020810135909116918101906060810160408201356401000000008111156106a957600080fd5b8201836020820111156106bb57600080fd5b803590602001918460208302840111640100000000831117156106dd57600080fd5b9193909290916020810190356401000000008111156106fb57600080fd5b82018360208201111561070d57600080fd5b8035906020019184602083028401116401000000008311171561072f57600080fd5b91939092909160208101903564010000000081111561074d57600080fd5b82018360208201111561075f57600080fd5b8035906020019184600183028401116401000000008311171561078157600080fd5b509092509050611348565b604080517fffffffff000000000000000000000000000000000000000000000000000000009092168252519081900360200190f35b610884600480360360a08110156107d757600080fd5b8101906020810181356401000000008111156107f257600080fd5b82018360208201111561080457600080fd5b8035906020019184600183028401116401000000008311171561082657600080fd5b91908080601f016020809104026020016040519081016040528093929190818152602001838380828437600092019190915250929550506001600160a01b038335811694506020840135169260408101359250606001359050611375565b604080519115158252519081900360200190f35b6104c96114b1565b610884600480360360208110156108b657600080fd5b50356001600160a01b03166114c0565b610319600480360360208110156108dc57600080fd5b50356114de565b61078c600480360360a08110156108f957600080fd5b6001600160a01b03823581169260208101359091169160408201359160608101359181019060a08101608082013564010000000081111561093957600080fd5b82018360208201111561094b57600080fd5b8035906020019184600183028401116401000000008311171561096d57600080fd5b509092509050611570565b600260005414156109d0576040805162461bcd60e51b815260206004820152601f60248201527f5265656e7472616e637947756172643a207265656e7472616e742063616c6c00604482015290519081900360640190fd5b60026000556109df8e8d61159b565b610ad68d8d8d8d80806020026020016040519081016040528093929190818152602001838360200280828437600081840152601f19601f820116905080830192505050505050508c8c8c80806020026020016040519081016040528093929190818152602001838360200280828437600081840152601f19601f820116905080830192505050505050508b8b8080602002602001604051908101604052809392919081815260200183836020028082843760009201919091525050604080516020601f8d018190048102820181019092528b815292508b91508a90819084018382808284376000920191909152506116fe92505050565b610b2a8e8c8c6003818110610ae757fe5b9050602002013586868080601f016020809104026020016040519081016040528093929190818152602001838380828437600092019190915250611a8192505050565b610b688e8e8d8d80806020026020016040519081016040528093929190818152602001838360200280828437600092019190915250611ad292505050565b610ba58d898980806020026020016040519081016040528093929190818152602001838360200280828437600092019190915250611ec392505050565b50506001600055505050505050505050505050565b7f000000000000000000000000000000000000000000000000000000000000000090565b7f000000000000000000000000000000000000000000000000000000000000000090565b6001546001600160a01b03163314610c61576040805162461bcd60e51b815260206004820152601260248201527f6f6e6c792061646d696e20616c6c6f7765640000000000000000000000000000604482015290519081900360640190fd5b6001600160a01b038116610cbc576040805162461bcd60e51b815260206004820152601f60248201527f526566657272616c56616c696461746f723a207a65726f206164647265737300604482015290519081900360640190fd5b600380546001600160a01b03908116600090815260056020526040808220620d2f0042019055835473ffffffffffffffffffffffffffffffffffffffff1916928516928317909355915190917fbbb5fb2ee7e707ae0c968f63e94211ea81e66a718c34e2f810a7619e5678a21791a250565b606060008060008060606000806000808a80602001905160a0811015610d5357600080fd5b8101908080516040519392919084640100000000821115610d7357600080fd5b908301906020820185811115610d8857600080fd5b8251640100000000811182820188101715610da257600080fd5b82525081516020918201929091019080838360005b83811015610dcf578181015183820152602001610db7565b50505050905090810190601f168015610dfc5780820380516001836020036101000a031916815260200191505b5060409081526020820151908201516060830151608090930151959f50909d509b5099509197505050505050505091939590929450565b6001546001600160a01b031690565b6001546001600160a01b03163314610e8b5760405162461bcd60e51b8152600401808060200182810382526023815260200180612b056023913960400191505060405180910390fd5b6001600160a01b038116610ee6576040805162461bcd60e51b815260206004820152601f60248201527f526566657272616c56616c696461746f723a207a65726f206164647265737300604482015290519081900360640190fd5b6001600160a01b0316600090815260056020526040812055565b6001546001600160a01b03163314610f5f576040805162461bcd60e51b815260206004820152601260248201527f6f6e6c792061646d696e20616c6c6f7765640000000000000000000000000000604482015290519081900360640190fd5b610f698282612087565b5050565b6001546001600160a01b03163314610fcc576040805162461bcd60e51b815260206004820152601b60248201527f6f6e6c792061646d696e2063616e206368616e67652061646d696e0000000000604482015290519081900360640190fd5b6001546001600160a01b038281169116141561102f576040805162461bcd60e51b815260206004820152600d60248201527f616c72656164792061646d696e00000000000000000000000000000000000000604482015290519081900360640190fd5b600154604080516001600160a01b039283168152918316602083015280517f7e644d79422f17c01e4894b5f4f588d331ebfa28653d42ae832dc59e38c9798f9281900390910190a16001805473ffffffffffffffffffffffffffffffffffffffff19166001600160a01b0392909216919091179055565b6001546001600160a01b03163314611105576040805162461bcd60e51b815260206004820152600e60248201527f4e4f545f415554484f52495a4544000000000000000000000000000000000000604482015290519081900360640190fd5b7f00000000000000000000000000000000000000000000000000000000000000006001600160a01b0316632eb2c2d63087878787876040518763ffffffff1660e01b815260040180876001600160a01b03166001600160a01b03168152602001866001600160a01b03166001600160a01b031681526020018060200180602001806020018481038452888882818152602001925060200280828437600083820152601f01601f19169091018581038452868152602090810191508790870280828437600081840152601f19601f8201169050808301925050508481038252600081526020016020019950505050505050505050600060405180830381600087803b15801561121257600080fd5b505af1158015611226573d6000803e3d6000fd5b505050505050505050565b60045490565b6001600160a01b038116611292576040805162461bcd60e51b815260206004820152600c60248201527f5a45524f5f414444524553530000000000000000000000000000000000000000604482015290519081900360640190fd5b6001546001600160a01b031633146112f1576040805162461bcd60e51b815260206004820152600e60248201527f4e4f545f415554484f52495a4544000000000000000000000000000000000000604482015290519081900360640190fd5b6006805473ffffffffffffffffffffffffffffffffffffffff19166001600160a01b0383169081179091556040517f4d66958b757eb92a1b43d02be4c38c9500b73f532420ee3706cb43d420ba023690600090a250565b7fbc197c810000000000000000000000000000000000000000000000000000000098975050505050505050565b60006004548211806113985750836001600160a01b0316856001600160a01b0316145b806113a257508242115b156113af575060006114a8565b60408051606087811b7fffffffffffffffffffffffffffffffffffffffff0000000000000000000000009081166020808501919091529188901b166034830152604882018690526068808301869052835180840390910181526088830184528051908201207f19457468657265756d205369676e6564204d6573736167653a0a33320000000060a884015260c48084018290528451808503909101815260e49093019093528151910120600090611466908961214e565b6001600160a01b0381166000908152600560205260409020549091504211611493576001925050506114a8565b6003546001600160a01b039081169116149150505b95945050505050565b6003546001600160a01b031690565b6001600160a01b031660009081526002602052604090205460ff1690565b6001546001600160a01b0316331461153d576040805162461bcd60e51b815260206004820152601260248201527f6f6e6c792061646d696e20616c6c6f7765640000000000000000000000000000604482015290519081900360640190fd5b600481905560405181907f774069781371d65424b3b0b101c1d40014532cac040f979595b99a3fcf8ce08c90600090a250565b7ff23a6e61000000000000000000000000000000000000000000000000000000009695505050505050565b7f0000000000000000000000000000000000000000000000000000000000000000421061160f576040805162461bcd60e51b815260206004820152600c60248201527f53414c455f49535f4f5645520000000000000000000000000000000000000000604482015290519081900360640190fd5b6001600160a01b03821633148061163557503360009081526002602052604090205460ff165b611686576040805162461bcd60e51b815260206004820152600e60248201527f4e4f545f415554484f52495a4544000000000000000000000000000000000000604482015290519081900360640190fd5b6001600160a01b03811615806116ad5750816001600160a01b0316816001600160a01b0316145b610f69576040805162461bcd60e51b815260206004820152600d60248201527f52455345525645445f4c414e4400000000000000000000000000000000000000604482015290519081900360640190fd5b600087878760008151811061170f57fe5b60200260200101518860018151811061172457fe5b60200260200101518960028151811061173957fe5b60200260200101518a60038151811061174e57fe5b60200260200101518a8a60405160200180828051906020019060200280838360005b83811015611788578181015183820152602001611770565b50505050905001915050604051602081830303815290604052805190602001208a60405160200180828051906020019060200280838360005b838110156117d95781810151838201526020016117c1565b5050505090500191505060405160208183030381529060405280519060200120604051602001808a6001600160a01b03166001600160a01b031660601b8152601401896001600160a01b03166001600160a01b031660601b81526014018881526020018781526020018681526020018581526020018481526020018381526020018281526020019950505050505050505050604051602081830303815290604052805190602001209050600760009054906101000a90046001600160a01b03166001600160a01b031663012847ed83836040518363ffffffff1660e01b81526004018080602001838152602001828103825284818151815260200191508051906020019080838360005b838110156118fb5781810151838201526020016118e3565b50505050905090810190601f1680156119285780820380516001836020036101000a031916815260200191505b50935050505060206040518083038186803b15801561194657600080fd5b505afa15801561195a573d6000803e3d6000fd5b505050506040513d602081101561197057600080fd5b50516119c3576040805162461bcd60e51b815260206004820152600c60248201527f494e56414c49445f415554480000000000000000000000000000000000000000604482015290519081900360640190fd5b6000611a24876000815181106119d557fe5b6020026020010151886001815181106119ea57fe5b6020026020010151896002815181106119ff57fe5b60200260200101518a600381518110611a1457fe5b60200260200101518c8b8b612337565b9050611a3084826123dc565b611226576040805162461bcd60e51b815260206004820152600c60248201527f494e56414c49445f4c414e440000000000000000000000000000000000000000604482015290519081900360640190fd5b6000611a8d84846124a5565b600654909150611acc908590839085906001600160a01b03167f000000000000000000000000000000000000000000000000000000000000000061253f565b50505050565b80600281518110611adf57fe5b602002602001015160011480611b1c57507f00000000000000000000000000000000000000000000000000000000000000006001600160a01b0316155b15611c1e577f00000000000000000000000000000000000000000000000000000000000000006001600160a01b0316636e1e3bbf8383600281518110611b5e57fe5b602002602001015184600081518110611b7357fe5b602002602001015185600181518110611b8857fe5b60200260200101516040518563ffffffff1660e01b815260040180856001600160a01b03166001600160a01b031681526020018481526020018381526020018281526020018060200182810382526000815260200160200195505050505050600060405180830381600087803b158015611c0157600080fd5b505af1158015611c15573d6000803e3d6000fd5b50505050611dbe565b7f00000000000000000000000000000000000000000000000000000000000000006001600160a01b0316636e1e3bbf7f000000000000000000000000000000000000000000000000000000000000000083600281518110611c7b57fe5b602002602001015184600081518110611c9057fe5b602002602001015185600181518110611ca557fe5b60200260200101518760405160200180826001600160a01b03166001600160a01b031681526020019150506040516020818303038152906040526040518663ffffffff1660e01b815260040180866001600160a01b03166001600160a01b0316815260200185815260200184815260200183815260200180602001828103825283818151815260200191508051906020019080838360005b83811015611d55578181015183820152602001611d3d565b50505050905090810190601f168015611d825780820380516001836020036101000a031916815260200191505b509650505050505050600060405180830381600087803b158015611da557600080fd5b505af1158015611db9573d6000803e3d6000fd5b505050505b61019881600181518110611dce57fe5b60200260200101510281600081518110611de457fe5b602002602001015101826001600160a01b0316846001600160a01b03167fe4dfa6ac11314892f3029b34a25b1a887da3b1cab2bbf8506d87128ba6e3ac0284600281518110611e2f57fe5b602002602001015185600381518110611e4457fe5b60200260200101517f000000000000000000000000000000000000000000000000000000000000000087600381518110611e7a57fe5b602002602001015160405180858152602001848152602001836001600160a01b03166001600160a01b0316815260200182815260200194505050505060405180910390a4505050565b6060815167ffffffffffffffff81118015611edd57600080fd5b50604051908082528060200260200182016040528015611f07578160200160208202803683370190505b50905060005b8251811015611f37576001828281518110611f2457fe5b6020908102919091010152600101611f0d565b507f00000000000000000000000000000000000000000000000000000000000000006001600160a01b0316632eb2c2d6308585856040518563ffffffff1660e01b815260040180856001600160a01b03166001600160a01b03168152602001846001600160a01b03166001600160a01b03168152602001806020018060200180602001848103845286818151815260200191508051906020019060200280838360005b83811015611ff2578181015183820152602001611fda565b50505050905001848103835285818151815260200191508051906020019060200280838360005b83811015612031578181015183820152602001612019565b50505050905001848103825260008152602001602001975050505050505050600060405180830381600087803b15801561206a57600080fd5b505af115801561207e573d6000803e3d6000fd5b50505050505050565b6001600160a01b0382166120cc5760405162461bcd60e51b8152600401808060200182810382526025815260200180612b6b6025913960400191505060405180910390fd5b6001600160a01b03821660008181526002602090815260409182902080547fffffffffffffffffffffffffffffffffffffffffffffffffffffffffffffff001685151590811790915582519384529083015280517fb21eb88b4e33b3f1281830a7178d74d8aa73220416215726b68ae23d539515cb9281900390910190a15050565b600081516041146121a6576040805162461bcd60e51b815260206004820152601f60248201527f45434453413a20696e76616c6964207369676e6174757265206c656e67746800604482015290519081900360640190fd5b60208201516040830151606084015160001a7f7fffffffffffffffffffffffffffffff5d576e7357a4501ddfe92f46681b20a08211156122175760405162461bcd60e51b8152600401808060200182810382526022815260200180612ae36022913960400191505060405180910390fd5b8060ff16601b1415801561222f57508060ff16601c14155b1561226b5760405162461bcd60e51b8152600401808060200182810382526022815260200180612b286022913960400191505060405180910390fd5b60408051600080825260208083018085528a905260ff85168385015260608301879052608083018690529251909260019260a080820193601f1981019281900390910190855afa1580156122c3573d6000803e3d6000fd5b5050604051601f1901519150506001600160a01b03811661232b576040805162461bcd60e51b815260206004820152601860248201527f45434453413a20696e76616c6964207369676e61747572650000000000000000604482015290519081900360640190fd5b93505050505b92915050565b60008787878787878760405160200180888152602001878152602001868152602001858152602001846001600160a01b03166001600160a01b031660601b8152601401838152602001828051906020019060200280838360005b838110156123a9578181015183820152602001612391565b50505050905001975050505050505050604051602081830303815290604052805190602001209050979650505050505050565b600081815b845181101561247b5760008582815181106123f857fe5b60200260200101519050808310156124405782816040516020018083815260200182815260200192505050604051602081830303815290604052805190602001209250612472565b808360405160200180838152602001828152602001925050506040516020818303038152906040528051906020012092505b506001016123e1565b507f0000000000000000000000000000000000000000000000000000000000000000149392505050565b6000806124ca60646124be85600563ffffffff61264716565b9063ffffffff6126a716565b90506125276001600160a01b037f000000000000000000000000000000000000000000000000000000000000000016857f00000000000000000000000000000000000000000000000000000000000000008463ffffffff6126e916565b612537838263ffffffff61277116565b949350505050565b8251819085901561262c57606060008060008061255b8a610d2e565b93985091965094509250905060006125768686868686611375565b15612604576125906125888d84612647565b6127106126a7565b9050886001600160a01b0316846001600160a01b0316866001600160a01b03167fac7a699eb95c3c6d390ec4626de17ef9a67b35891efdb197beba7c7fdd45fac48f858760405180848152602001838152602001828152602001935050505060405180910390a46126018782612771565b96505b8015612625576126256001600160a01b0389168e878463ffffffff6126e916565b5050505050505b61207e6001600160a01b03831688868463ffffffff6126e916565b60008261265657506000612331565b8282028284828161266357fe5b04146126a05760405162461bcd60e51b8152600401808060200182810382526021815260200180612b4a6021913960400191505060405180910390fd5b9392505050565b60006126a083836040518060400160405280601a81526020017f536166654d6174683a206469766973696f6e206279207a65726f0000000000008152506127b3565b604080516001600160a01b0380861660248301528416604482015260648082018490528251808303909101815260849091019091526020810180517bffffffffffffffffffffffffffffffffffffffffffffffffffffffff167f23b872dd00000000000000000000000000000000000000000000000000000000179052611acc908590612855565b60006126a083836040518060400160405280601e81526020017f536166654d6174683a207375627472616374696f6e206f766572666c6f77000081525061290b565b6000818361283f5760405162461bcd60e51b81526004018080602001828103825283818151815260200191508051906020019080838360005b838110156128045781810151838201526020016127ec565b50505050905090810190601f1680156128315780820380516001836020036101000a031916815260200191505b509250505060405180910390fd5b50600083858161284b57fe5b0495945050505050565b60606128aa826040518060400160405280602081526020017f5361666545524332303a206c6f772d6c6576656c2063616c6c206661696c6564815250856001600160a01b03166129659092919063ffffffff16565b805190915015612906578080602001905160208110156128c957600080fd5b50516129065760405162461bcd60e51b815260040180806020018281038252602a815260200180612b90602a913960400191505060405180910390fd5b505050565b6000818484111561295d5760405162461bcd60e51b81526020600482018181528351602484015283519092839260449091019190850190808383600083156128045781810151838201526020016127ec565b505050900390565b60606125378484600085606061297a85612adc565b6129cb576040805162461bcd60e51b815260206004820152601d60248201527f416464726573733a2063616c6c20746f206e6f6e2d636f6e7472616374000000604482015290519081900360640190fd5b60006060866001600160a01b031685876040518082805190602001908083835b60208310612a0a5780518252601f1990920191602091820191016129eb565b6001836020036101000a03801982511681845116808217855250505050505090500191505060006040518083038185875af1925050503d8060008114612a6c576040519150601f19603f3d011682016040523d82523d6000602084013e612a71565b606091505b50915091508115612a855791506125379050565b805115612a955780518082602001fd5b60405162461bcd60e51b81526020600482018181528651602484015286518793919283926044019190850190808383600083156128045781810151838201526020016127ec565b3b15159056fe45434453413a20696e76616c6964207369676e6174757265202773272076616c7565526566657272616c56616c696461746f723a2053656e646572206e6f742061646d696e45434453413a20696e76616c6964207369676e6174757265202776272076616c7565536166654d6174683a206d756c7469706c69636174696f6e206f766572666c6f774d6574615472616e73616374696f6e52656365697665723a207a65726f20616464726573735361666545524332303a204552433230206f7065726174696f6e20646964206e6f742073756363656564a2646970667358221220a5670b1ad93b092eb46ba00923ea8f6c7cf8a0b44a1214b01f8ac6fb833c6f6064736f6c6343000605003345737461746553616c6557697468417574683a207a65726f20616464726573734d6574615472616e73616374696f6e52656365697665723a207a65726f206164647265737345737461746553616c6557697468417574683a206973206e6f74206120636f6e7472616374",
  "devdoc": {
    "methods": {
      "buyLandWithSand(address,address,address,uint256[],bytes32,uint256[],bytes32[],bytes,bytes)": {
        "params": {
          "assetIds": "asset ids (lands) that will be bought",
          "buyer": "address that perform the payment",
          "info": "[X_INDEX=0] x coordinate of the Land [Y_INDEX=1] y coordinate of the Land [SIZE_INDEX=2] size of the pack of Land to purchase [PRICE_INDEX=3] price in SAND to purchase that Land",
          "proof": "merkleProof for that particular Land",
          "referral": "referral id",
          "reserved": "the reserved address (if any)",
          "salt": "The salt submitted for verification.",
          "signature": "A signed message specifying tx details",
          "to": "address that will own the purchased Land"
        }
      },
      "changeAdmin(address)": {
        "details": "change the administrator to be `newAdmin`.",
        "params": {
          "newAdmin": "address of the new administrator."
        }
      },
      "disablePreviousSigningWallet(address)": {
        "details": "Disable compromised signing wallet",
        "params": {
          "disableWallet": "The wallet address to be disabled"
        }
      },
      "getAdmin()": {
        "details": "gives the current administrator of this contract.",
        "returns": {
          "_0": "the current administrator of this contract."
        }
      },
      "getSigningWallet()": {
        "details": "signing wallet authorized for referral",
        "returns": {
          "_0": "the address of the signing wallet"
        }
      },
      "isMetaTransactionProcessor(address)": {
        "details": "check whether address `who` is given meta-transaction execution rights.",
        "params": {
          "who": "The address to query."
        },
        "returns": {
          "_0": "whether the address has meta-transaction execution rights."
        }
      },
      "isReferralValid(bytes,address,address,uint256,uint256)": {
        "params": {
          "commissionRate": "The commissionRate of the referral",
          "expiryTime": "The expiry time of the referral",
          "referee": "The address of the referee",
          "referrer": "The address of the referrer",
          "signature": "The signature to check (signed referral)"
        },
        "returns": {
          "_0": "True if the referral is valid"
        }
      },
      "setMetaTransactionProcessor(address,bool)": {
        "details": "Enable or disable the ability of `metaTransactionProcessor` to perform meta-tx (metaTransactionProcessor rights).",
        "params": {
          "enabled": "set whether the metaTransactionProcessor is enabled or disabled.",
          "metaTransactionProcessor": "address that will be given/removed metaTransactionProcessor rights."
        }
      },
      "setReceivingWallet(address)": {
        "params": {
          "newWallet": "address of the new receiving wallet"
        }
      },
      "updateMaxCommissionRate(uint256)": {
        "details": "Update the maximum commission rate",
        "params": {
          "newMaxCommissionRate": "The new maximum commission rate"
        }
      },
      "updateSigningWallet(address)": {
        "details": "Update the signing wallet The previous wallet is still valid for a grace period (_previousSigningDelay). If you want to disable the previous wallet, use the disablePreviousSigningWallet function.",
        "params": {
          "newSigningWallet": "The new address of the signing wallet"
        }
      },
      "withdrawAssets(address,uint256[],uint256[])": {
        "params": {
          "assetIds": "the assetIds to be transferred",
          "to": "intended recipient of the asset tokens",
          "values": "the quantities of the assetIds to be transferred"
        }
      }
    },
    "title": "Estate Sale contract with referral"
  },
  "userdoc": {
    "methods": {
      "buyLandWithSand(address,address,address,uint256[],bytes32,uint256[],bytes32[],bytes,bytes)": {
        "notice": "buy Land with SAND using the merkle proof associated with it"
      },
      "getExpiryTime()": {
        "notice": "Gets the expiry time for the current sale"
      },
      "getMaxCommissionRate()": {
        "notice": "the max commission rate"
      },
      "getMerkleRoot()": {
        "notice": "Gets the Merkle root associated with the current sale"
      },
      "isReferralValid(bytes,address,address,uint256,uint256)": {
        "notice": "Check if a referral is valid"
      },
      "setReceivingWallet(address)": {
        "notice": "set the wallet receiving the proceeds"
      },
      "withdrawAssets(address,uint256[],uint256[])": {
        "notice": "enable Admin to withdraw remaining assets from EstateSaleWithFee contract"
      }
    },
    "notice": "This contract manages the sale of our lands as Estates"
  },
  "storageLayout": {
    "storage": [
      {
        "astId": 924,
        "contract": "@sandbox-smart-contracts/land-sale/contracts/EstateSaleWithAuth.sol:EstateSaleWithAuth",
        "label": "_status",
        "offset": 0,
        "slot": "0",
        "type": "t_uint256"
      },
      {
        "astId": 2455,
        "contract": "@sandbox-smart-contracts/land-sale/contracts/EstateSaleWithAuth.sol:EstateSaleWithAuth",
        "label": "_admin",
        "offset": 0,
        "slot": "1",
        "type": "t_address"
      },
      {
        "astId": 2524,
        "contract": "@sandbox-smart-contracts/land-sale/contracts/EstateSaleWithAuth.sol:EstateSaleWithAuth",
        "label": "_metaTransactionContracts",
        "offset": 0,
        "slot": "2",
        "type": "t_mapping(t_address,t_bool)"
      },
      {
        "astId": 1935,
        "contract": "@sandbox-smart-contracts/land-sale/contracts/EstateSaleWithAuth.sol:EstateSaleWithAuth",
        "label": "_signingWallet",
        "offset": 0,
        "slot": "3",
        "type": "t_address"
      },
      {
        "astId": 1937,
        "contract": "@sandbox-smart-contracts/land-sale/contracts/EstateSaleWithAuth.sol:EstateSaleWithAuth",
        "label": "_maxCommissionRate",
        "offset": 0,
        "slot": "4",
        "type": "t_uint256"
      },
      {
        "astId": 1941,
        "contract": "@sandbox-smart-contracts/land-sale/contracts/EstateSaleWithAuth.sol:EstateSaleWithAuth",
        "label": "_previousSigningWallets",
        "offset": 0,
        "slot": "5",
        "type": "t_mapping(t_address,t_uint256)"
      },
      {
        "astId": 1740,
        "contract": "@sandbox-smart-contracts/land-sale/contracts/EstateSaleWithAuth.sol:EstateSaleWithAuth",
        "label": "_wallet",
        "offset": 0,
        "slot": "6",
        "type": "t_address_payable"
      },
      {
        "astId": 1742,
        "contract": "@sandbox-smart-contracts/land-sale/contracts/EstateSaleWithAuth.sol:EstateSaleWithAuth",
        "label": "_authValidator",
        "offset": 0,
        "slot": "7",
        "type": "t_contract(AuthValidator)1053"
      }
    ],
    "types": {
      "t_address": {
        "encoding": "inplace",
        "label": "address",
        "numberOfBytes": "20"
      },
      "t_address_payable": {
        "encoding": "inplace",
        "label": "address payable",
        "numberOfBytes": "20"
      },
      "t_bool": {
        "encoding": "inplace",
        "label": "bool",
        "numberOfBytes": "1"
      },
      "t_contract(AuthValidator)1053": {
        "encoding": "inplace",
        "label": "contract AuthValidator",
        "numberOfBytes": "20"
      },
      "t_mapping(t_address,t_bool)": {
        "encoding": "mapping",
        "key": "t_address",
        "label": "mapping(address => bool)",
        "numberOfBytes": "32",
        "value": "t_bool"
      },
      "t_mapping(t_address,t_uint256)": {
        "encoding": "mapping",
        "key": "t_address",
        "label": "mapping(address => uint256)",
        "numberOfBytes": "32",
        "value": "t_uint256"
      },
      "t_uint256": {
        "encoding": "inplace",
        "label": "uint256",
        "numberOfBytes": "32"
      }
    }
  }
}