{
  "address": "0xcb871DA52aEF46f87Fd4d12854Cdc1EcE4C55129",
  "abi": [
    {
      "anonymous": false,
      "inputs": [
        {
          "indexed": true,
          "internalType": "address",
          "name": "oldAdmin",
          "type": "address"
        },
        {
          "indexed": true,
          "internalType": "address",
          "name": "newAdmin",
          "type": "address"
        }
      ],
      "name": "AdminChanged",
      "type": "event"
    },
    {
      "anonymous": false,
      "inputs": [
        {
          "indexed": true,
          "internalType": "address",
          "name": "owner",
          "type": "address"
        },
        {
          "indexed": true,
          "internalType": "address",
          "name": "approved",
          "type": "address"
        },
        {
          "indexed": true,
          "internalType": "uint256",
          "name": "tokenId",
          "type": "uint256"
        }
      ],
      "name": "Approval",
      "type": "event"
    },
    {
      "anonymous": false,
      "inputs": [
        {
          "indexed": true,
          "internalType": "address",
          "name": "owner",
          "type": "address"
        },
        {
          "indexed": true,
          "internalType": "address",
          "name": "operator",
          "type": "address"
        },
        {
          "indexed": false,
          "internalType": "bool",
          "name": "approved",
          "type": "bool"
        }
      ],
      "name": "ApprovalForAll",
      "type": "event"
    },
    {
      "anonymous": false,
      "inputs": [
        {
          "indexed": true,
          "internalType": "address",
          "name": "subscriptionOrRegistrant",
          "type": "address"
        },
        {
          "indexed": false,
          "internalType": "bool",
          "name": "subscribe",
          "type": "bool"
        }
      ],
      "name": "ContractRegistered",
      "type": "event"
    },
    {
      "anonymous": false,
      "inputs": [
        {
          "indexed": true,
          "internalType": "address",
          "name": "minter",
          "type": "address"
        },
        {
          "indexed": false,
          "internalType": "bool",
          "name": "enabled",
          "type": "bool"
        }
      ],
      "name": "Minter",
      "type": "event"
    },
    {
      "anonymous": false,
      "inputs": [
        {
          "indexed": true,
          "internalType": "address",
          "name": "registry",
          "type": "address"
        }
      ],
      "name": "OperatorRegistrySet",
      "type": "event"
    },
    {
      "anonymous": false,
      "inputs": [
        {
          "indexed": true,
          "internalType": "address",
          "name": "superOperator",
          "type": "address"
        },
        {
          "indexed": true,
          "internalType": "bool",
          "name": "enabled",
          "type": "bool"
        }
      ],
      "name": "SuperOperator",
      "type": "event"
    },
    {
      "anonymous": false,
      "inputs": [
        {
          "indexed": true,
          "internalType": "address",
          "name": "from",
          "type": "address"
        },
        {
          "indexed": true,
          "internalType": "address",
          "name": "to",
          "type": "address"
        },
        {
          "indexed": true,
          "internalType": "uint256",
          "name": "tokenId",
          "type": "uint256"
        }
      ],
      "name": "Transfer",
      "type": "event"
    },
    {
      "anonymous": false,
      "inputs": [
        {
          "indexed": true,
          "internalType": "address",
          "name": "newForwarder",
          "type": "address"
        }
      ],
      "name": "TrustedForwarderSet",
      "type": "event"
    },
    {
      "inputs": [
        {
          "internalType": "address",
          "name": "operator",
          "type": "address"
        },
        {
          "internalType": "uint256",
          "name": "id",
          "type": "uint256"
        }
      ],
      "name": "approve",
      "outputs": [],
      "stateMutability": "nonpayable",
      "type": "function"
    },
    {
      "inputs": [
        {
          "internalType": "address",
          "name": "sender",
          "type": "address"
        },
        {
          "internalType": "address",
          "name": "operator",
          "type": "address"
        },
        {
          "internalType": "uint256",
          "name": "id",
          "type": "uint256"
        }
      ],
      "name": "approveFor",
      "outputs": [],
      "stateMutability": "nonpayable",
      "type": "function"
    },
    {
      "inputs": [
        {
          "internalType": "address",
          "name": "owner",
          "type": "address"
        }
      ],
      "name": "balanceOf",
      "outputs": [
        {
          "internalType": "uint256",
          "name": "",
          "type": "uint256"
        }
      ],
      "stateMutability": "view",
      "type": "function"
    },
    {
      "inputs": [
        {
          "internalType": "address",
          "name": "from",
          "type": "address"
        },
        {
          "internalType": "address",
          "name": "to",
          "type": "address"
        },
        {
          "internalType": "uint256[]",
          "name": "ids",
          "type": "uint256[]"
        },
        {
          "internalType": "bytes",
          "name": "data",
          "type": "bytes"
        }
      ],
      "name": "batchTransferFrom",
      "outputs": [],
      "stateMutability": "nonpayable",
      "type": "function"
    },
    {
      "inputs": [
        {
          "internalType": "address",
          "name": "from",
          "type": "address"
        },
        {
          "internalType": "address",
          "name": "to",
          "type": "address"
        },
        {
          "internalType": "uint256[]",
          "name": "sizes",
          "type": "uint256[]"
        },
        {
          "internalType": "uint256[]",
          "name": "xs",
          "type": "uint256[]"
        },
        {
          "internalType": "uint256[]",
          "name": "ys",
          "type": "uint256[]"
        },
        {
          "internalType": "bytes",
          "name": "data",
          "type": "bytes"
        }
      ],
      "name": "batchTransferQuad",
      "outputs": [],
      "stateMutability": "nonpayable",
      "type": "function"
    },
    {
      "inputs": [
        {
          "internalType": "uint256",
          "name": "id",
          "type": "uint256"
        }
      ],
      "name": "burn",
      "outputs": [],
      "stateMutability": "nonpayable",
      "type": "function"
    },
    {
      "inputs": [
        {
          "internalType": "address",
          "name": "from",
          "type": "address"
        },
        {
          "internalType": "uint256",
          "name": "id",
          "type": "uint256"
        }
      ],
      "name": "burnFrom",
      "outputs": [],
      "stateMutability": "nonpayable",
      "type": "function"
    },
    {
      "inputs": [
        {
          "internalType": "address",
          "name": "newAdmin",
          "type": "address"
        }
      ],
      "name": "changeAdmin",
      "outputs": [],
      "stateMutability": "nonpayable",
      "type": "function"
    },
    {
      "inputs": [
        {
          "internalType": "uint256",
          "name": "size",
          "type": "uint256"
        },
        {
          "internalType": "uint256",
          "name": "x",
          "type": "uint256"
        },
        {
          "internalType": "uint256",
          "name": "y",
          "type": "uint256"
        }
      ],
      "name": "exists",
      "outputs": [
        {
          "internalType": "bool",
          "name": "",
          "type": "bool"
        }
      ],
      "stateMutability": "view",
      "type": "function"
    },
    {
      "inputs": [],
      "name": "getAdmin",
      "outputs": [
        {
          "internalType": "address",
          "name": "",
          "type": "address"
        }
      ],
      "stateMutability": "view",
      "type": "function"
    },
    {
      "inputs": [
        {
          "internalType": "uint256",
          "name": "id",
          "type": "uint256"
        }
      ],
      "name": "getApproved",
      "outputs": [
        {
          "internalType": "address",
          "name": "",
          "type": "address"
        }
      ],
      "stateMutability": "view",
      "type": "function"
    },
    {
      "inputs": [],
      "name": "getTrustedForwarder",
      "outputs": [
        {
          "internalType": "address",
          "name": "",
          "type": "address"
        }
      ],
      "stateMutability": "view",
      "type": "function"
    },
    {
      "inputs": [
        {
          "internalType": "uint256",
          "name": "id",
          "type": "uint256"
        }
      ],
      "name": "getX",
      "outputs": [
        {
          "internalType": "uint256",
          "name": "",
          "type": "uint256"
        }
      ],
      "stateMutability": "pure",
      "type": "function"
    },
    {
      "inputs": [
        {
          "internalType": "uint256",
          "name": "id",
          "type": "uint256"
        }
      ],
      "name": "getY",
      "outputs": [
        {
          "internalType": "uint256",
          "name": "",
          "type": "uint256"
        }
      ],
      "stateMutability": "pure",
      "type": "function"
    },
    {
      "inputs": [],
      "name": "height",
      "outputs": [
        {
          "internalType": "uint256",
          "name": "",
          "type": "uint256"
        }
      ],
      "stateMutability": "pure",
      "type": "function"
    },
    {
      "inputs": [
        {
          "internalType": "address",
          "name": "trustedForwarder",
          "type": "address"
        }
      ],
      "name": "initialize",
      "outputs": [],
      "stateMutability": "nonpayable",
      "type": "function"
    },
    {
      "inputs": [
        {
          "internalType": "address",
          "name": "owner",
          "type": "address"
        },
        {
          "internalType": "address",
          "name": "operator",
          "type": "address"
        }
      ],
      "name": "isApprovedForAll",
      "outputs": [
        {
          "internalType": "bool",
          "name": "",
          "type": "bool"
        }
      ],
      "stateMutability": "view",
      "type": "function"
    },
    {
      "inputs": [
        {
          "internalType": "address",
          "name": "who",
          "type": "address"
        }
      ],
      "name": "isMinter",
      "outputs": [
        {
          "internalType": "bool",
          "name": "",
          "type": "bool"
        }
      ],
      "stateMutability": "view",
      "type": "function"
    },
    {
      "inputs": [
        {
          "internalType": "address",
          "name": "who",
          "type": "address"
        }
      ],
      "name": "isSuperOperator",
      "outputs": [
        {
          "internalType": "bool",
          "name": "",
          "type": "bool"
        }
      ],
      "stateMutability": "view",
      "type": "function"
    },
    {
      "inputs": [
        {
          "internalType": "address",
          "name": "forwarder",
          "type": "address"
        }
      ],
      "name": "isTrustedForwarder",
      "outputs": [
        {
          "internalType": "bool",
          "name": "",
          "type": "bool"
        }
      ],
      "stateMutability": "view",
      "type": "function"
    },
    {
      "inputs": [
        {
          "internalType": "address",
          "name": "to",
          "type": "address"
        },
        {
          "internalType": "uint256",
          "name": "size",
          "type": "uint256"
        },
        {
          "internalType": "uint256",
          "name": "x",
          "type": "uint256"
        },
        {
          "internalType": "uint256",
          "name": "y",
          "type": "uint256"
        },
        {
          "internalType": "bytes",
          "name": "data",
          "type": "bytes"
        }
      ],
      "name": "mintAndTransferQuad",
      "outputs": [],
      "stateMutability": "nonpayable",
      "type": "function"
    },
    {
      "inputs": [
        {
          "internalType": "address",
          "name": "user",
          "type": "address"
        },
        {
          "internalType": "uint256",
          "name": "size",
          "type": "uint256"
        },
        {
          "internalType": "uint256",
          "name": "x",
          "type": "uint256"
        },
        {
          "internalType": "uint256",
          "name": "y",
          "type": "uint256"
        },
        {
          "internalType": "bytes",
          "name": "data",
          "type": "bytes"
        }
      ],
      "name": "mintQuad",
      "outputs": [],
      "stateMutability": "nonpayable",
      "type": "function"
    },
    {
      "inputs": [],
      "name": "name",
      "outputs": [
        {
          "internalType": "string",
          "name": "",
          "type": "string"
        }
      ],
      "stateMutability": "pure",
      "type": "function"
    },
    {
      "inputs": [],
      "name": "operatorFilterRegistry",
      "outputs": [
        {
          "internalType": "contract IOperatorFilterRegistry",
          "name": "",
          "type": "address"
        }
      ],
      "stateMutability": "view",
      "type": "function"
    },
    {
      "inputs": [
        {
          "internalType": "uint256",
          "name": "id",
          "type": "uint256"
        }
      ],
      "name": "ownerOf",
      "outputs": [
        {
          "internalType": "address",
          "name": "owner",
          "type": "address"
        }
      ],
      "stateMutability": "view",
      "type": "function"
    },
    {
      "inputs": [
        {
          "internalType": "address",
          "name": "subscriptionOrRegistrantToCopy",
          "type": "address"
        },
        {
          "internalType": "bool",
          "name": "subscribe",
          "type": "bool"
        }
      ],
      "name": "register",
      "outputs": [],
      "stateMutability": "nonpayable",
      "type": "function"
    },
    {
      "inputs": [
        {
          "internalType": "address",
          "name": "from",
          "type": "address"
        },
        {
          "internalType": "address",
          "name": "to",
          "type": "address"
        },
        {
          "internalType": "uint256[]",
          "name": "ids",
          "type": "uint256[]"
        },
        {
          "internalType": "bytes",
          "name": "data",
          "type": "bytes"
        }
      ],
      "name": "safeBatchTransferFrom",
      "outputs": [],
      "stateMutability": "nonpayable",
      "type": "function"
    },
    {
      "inputs": [
        {
          "internalType": "address",
          "name": "from",
          "type": "address"
        },
        {
          "internalType": "address",
          "name": "to",
          "type": "address"
        },
        {
          "internalType": "uint256",
          "name": "id",
          "type": "uint256"
        }
      ],
      "name": "safeTransferFrom",
      "outputs": [],
      "stateMutability": "nonpayable",
      "type": "function"
    },
    {
      "inputs": [
        {
          "internalType": "address",
          "name": "from",
          "type": "address"
        },
        {
          "internalType": "address",
          "name": "to",
          "type": "address"
        },
        {
          "internalType": "uint256",
          "name": "id",
          "type": "uint256"
        },
        {
          "internalType": "bytes",
          "name": "data",
          "type": "bytes"
        }
      ],
      "name": "safeTransferFrom",
      "outputs": [],
      "stateMutability": "nonpayable",
      "type": "function"
    },
    {
      "inputs": [
        {
          "internalType": "address",
          "name": "operator",
          "type": "address"
        },
        {
          "internalType": "bool",
          "name": "approved",
          "type": "bool"
        }
      ],
      "name": "setApprovalForAll",
      "outputs": [],
      "stateMutability": "nonpayable",
      "type": "function"
    },
    {
      "inputs": [
        {
          "internalType": "address",
          "name": "sender",
          "type": "address"
        },
        {
          "internalType": "address",
          "name": "operator",
          "type": "address"
        },
        {
          "internalType": "bool",
          "name": "approved",
          "type": "bool"
        }
      ],
      "name": "setApprovalForAllFor",
      "outputs": [],
      "stateMutability": "nonpayable",
      "type": "function"
    },
    {
      "inputs": [
        {
          "internalType": "address",
          "name": "minter",
          "type": "address"
        },
        {
          "internalType": "bool",
          "name": "enabled",
          "type": "bool"
        }
      ],
      "name": "setMinter",
      "outputs": [],
      "stateMutability": "nonpayable",
      "type": "function"
    },
    {
      "inputs": [
        {
          "internalType": "address",
          "name": "registry",
          "type": "address"
        }
      ],
      "name": "setOperatorRegistry",
      "outputs": [],
      "stateMutability": "nonpayable",
      "type": "function"
    },
    {
      "inputs": [
        {
          "internalType": "address",
          "name": "superOperator",
          "type": "address"
        },
        {
          "internalType": "bool",
          "name": "enabled",
          "type": "bool"
        }
      ],
      "name": "setSuperOperator",
      "outputs": [],
      "stateMutability": "nonpayable",
      "type": "function"
    },
    {
      "inputs": [
        {
          "internalType": "address",
          "name": "trustedForwarder",
          "type": "address"
        }
      ],
      "name": "setTrustedForwarder",
      "outputs": [],
      "stateMutability": "nonpayable",
      "type": "function"
    },
    {
      "inputs": [
        {
          "internalType": "bytes4",
          "name": "id",
          "type": "bytes4"
        }
      ],
      "name": "supportsInterface",
      "outputs": [
        {
          "internalType": "bool",
          "name": "",
          "type": "bool"
        }
      ],
      "stateMutability": "pure",
      "type": "function"
    },
    {
      "inputs": [],
      "name": "symbol",
      "outputs": [
        {
          "internalType": "string",
          "name": "",
          "type": "string"
        }
      ],
      "stateMutability": "pure",
      "type": "function"
    },
    {
      "inputs": [
        {
          "internalType": "uint256",
          "name": "id",
          "type": "uint256"
        }
      ],
      "name": "tokenURI",
      "outputs": [
        {
          "internalType": "string",
          "name": "",
          "type": "string"
        }
      ],
      "stateMutability": "view",
      "type": "function"
    },
    {
      "inputs": [
        {
          "internalType": "address",
          "name": "from",
          "type": "address"
        },
        {
          "internalType": "address",
          "name": "to",
          "type": "address"
        },
        {
          "internalType": "uint256",
          "name": "id",
          "type": "uint256"
        }
      ],
      "name": "transferFrom",
      "outputs": [],
      "stateMutability": "nonpayable",
      "type": "function"
    },
    {
      "inputs": [
        {
          "internalType": "address",
          "name": "from",
          "type": "address"
        },
        {
          "internalType": "address",
          "name": "to",
          "type": "address"
        },
        {
          "internalType": "uint256",
          "name": "size",
          "type": "uint256"
        },
        {
          "internalType": "uint256",
          "name": "x",
          "type": "uint256"
        },
        {
          "internalType": "uint256",
          "name": "y",
          "type": "uint256"
        },
        {
          "internalType": "bytes",
          "name": "data",
          "type": "bytes"
        }
      ],
      "name": "transferQuad",
      "outputs": [],
      "stateMutability": "nonpayable",
      "type": "function"
    },
    {
      "inputs": [],
      "name": "width",
      "outputs": [
        {
          "internalType": "uint256",
          "name": "",
          "type": "uint256"
        }
      ],
      "stateMutability": "pure",
      "type": "function"
    }
  ],
  "transactionHash": "0xbcdcf2fb9144119f0880b23576e839260a48c5832f9d468b6a917f2673c58755",
  "args": [],
  "numDeployments": 2,
  "solcInputHash": "8647b3c46fdd7d95d4038ddf2cc1e589",
  "bytecode": "0x608060405234801561001057600080fd5b50615e9c80620000216000396000f3fe608060405234801561001057600080fd5b50600436106102d35760003560e01c806379cc679011610186578063ac9fe421116100e3578063ce1b815f11610097578063e985e9c511610071578063e985e9c51461062a578063eaa5e0671461063d578063eeb5a5d114610650576102d3565b8063ce1b815f146105f3578063cf456ae714610604578063da74222814610617576102d3565b8063b88d4fde116100c8578063b88d4fde146105ba578063c4d66de8146105cd578063c87b56dd146105e0576102d3565b8063ac9fe42114610594578063b0ccc31e146105a7576102d3565b80639d28fb861161013a578063a22cb4651161011f578063a22cb46514610542578063aa271e1a14610555578063ab01b46914610581576102d3565b80639d28fb861461052f5780639ededf7714610355576102d3565b80638e5cb5f61161016b5780638e5cb5f6146104d05780638f283970146104e357806395d89b41146104f6576102d3565b806379cc6790146104aa578063845a4697146104bd576102d3565b806342842e0e116102345780636352211e116101e85780636e1e3bbf116101cd5780636e1e3bbf146104735780636e9960c31461048657806370a0823114610497576102d3565b80636352211e14610434578063654b748a14610447576102d3565b80634e6a0f44116102195780634e6a0f44146103ec57806355064d85146103ff578063572b6c0514610412576102d3565b806342842e0e146103c657806342966c68146103d9576102d3565b806315ddc5351161028b57806328cfbd461161027057806328cfbd461461038d5780632b991746146103a057806338bb305a146103b3576102d3565b806315ddc5351461036757806323b872dd1461037a576102d3565b8063081812fc116102bc578063081812fc14610315578063095ea7b3146103405780630ef2674314610355576102d3565b806301ffc9a7146102d857806306fdde0314610300575b600080fd5b6102eb6102e6366004615b5f565b610663565b60405190151581526020015b60405180910390f35b610308610702565b6040516102f79190615d19565b610328610323366004615b97565b61073a565b6040516001600160a01b0390911681526020016102f7565b61035361034e366004615a54565b6107d9565b005b6101985b6040519081526020016102f7565b610353610375366004615829565b6108c2565b6103536103883660046158fd565b6108d8565b61035361039b366004615829565b610a09565b6103536103ae3660046158fd565b610a7e565b6103536103c136600461599e565b610b63565b6103536103d43660046158fd565b610dbb565b6103536103e7366004615b97565b610ee1565b6103536103fa366004615a7d565b610efe565b6102eb61040d366004615baf565b6110c5565b6102eb6104203660046156fa565b606b546001600160a01b0390811691161490565b610328610442366004615b97565b6110f4565b6102eb6104553660046156fa565b6001600160a01b031660009081526034602052604090205460ff1690565b610353610481366004615ada565b611157565b6033546001600160a01b0316610328565b6103596104a53660046156fa565b6111cd565b6103536104b8366004615a54565b611241565b6103596104cb366004615b97565b61139e565b6103596104de366004615b97565b6113a9565b6103536104f13660046156fa565b6113b4565b60408051808201909152600481527f4c414e44000000000000000000000000000000000000000000000000000000006020820152610308565b61035361053d3660046156fa565b61148f565b610353610550366004615a1e565b61153d565b6102eb6105633660046156fa565b6001600160a01b031660009081526039602052604090205460ff1690565b61035361058f366004615a1e565b611621565b6103536105a2366004615a1e565b611702565b606c54610328906001600160a01b031681565b6103536105c8366004615938565b61183d565b6103536105db3660046156fa565b61196a565b6103086105ee366004615b97565b611ab3565b606b546001600160a01b0316610328565b610353610612366004615a1e565b611b46565b6103536106253660046156fa565b611c53565b6102eb610638366004615714565b611d01565b61035361064b366004615746565b611d58565b61035361065e3660046158b7565b612337565b60007f01ffc9a7000000000000000000000000000000000000000000000000000000006001600160e01b0319831614806106c657507f80ac58cd000000000000000000000000000000000000000000000000000000006001600160e01b03198316145b806106fa57507f5b5e139f000000000000000000000000000000000000000000000000000000006001600160e01b03198316145b90505b919050565b60408051808201909152600f81527f53616e64626f782773204c414e4473000000000000000000000000000000000060208201525b90565b60008060006107488461241c565b90925090506001600160a01b0382166107a85760405162461bcd60e51b815260206004820152601160248201527f4e4f4e4558495354454e545f544f4b454e00000000000000000000000000000060448201526064015b60405180910390fd5b80156107ce575050506000818152603860205260409020546001600160a01b03166106fd565b6000925050506106fd565b606c5482906001600160a01b03163b156108b357606c54604051633185c44d60e21b81523060048201526001600160a01b0383811660248301529091169063c61711349060440160206040518083038186803b15801561083857600080fd5b505afa15801561084c573d6000803e3d6000fd5b505050506040513d601f19601f820116820180604052508101906108709190615b43565b6108b35760405162461bcd60e51b815260206004820152601460248201527313dc195c985d1bdc88139bdd08105b1b1bddd95960621b604482015260640161079f565b6108bd8383612542565b505050565b6108d086868686868661267e565b505050505050565b606c5483906001600160a01b03163b156109f8576108f46126f0565b6001600160a01b0316816001600160a01b0316141561091d576109188484846126ff565b610a03565b606c546001600160a01b031663c6171134306109376126f0565b6040516001600160e01b031960e085901b1681526001600160a01b0392831660048201529116602482015260440160206040518083038186803b15801561097d57600080fd5b505afa158015610991573d6000803e3d6000fd5b505050506040513d601f19601f820116820180604052508101906109b59190615b43565b6109f85760405162461bcd60e51b815260206004820152601460248201527313dc195c985d1bdc88139bdd08105b1b1bddd95960621b604482015260640161079f565b610a038484846126ff565b50505050565b6108d0868686868080602002602001604051908101604052809392919081815260200183836020028082843760009201919091525050604080516020601f8a018190048102820181019092528881529250889150879081908401838280828437600092019190915250600192506127ae915050565b606c5482906001600160a01b03163b15610b5857606c54604051633185c44d60e21b81523060048201526001600160a01b0383811660248301529091169063c61711349060440160206040518083038186803b158015610add57600080fd5b505afa158015610af1573d6000803e3d6000fd5b505050506040513d601f19601f82011682018060405250810190610b159190615b43565b610b585760405162461bcd60e51b815260206004820152601460248201527313dc195c985d1bdc88139bdd08105b1b1bddd95960621b604482015260640161079f565b610a03848484612c11565b6001600160a01b038716610bb95760405162461bcd60e51b815260206004820152601460248201527f66726f6d206973207a65726f2061646472657373000000000000000000000000604482015260640161079f565b6001600160a01b038616610c0f5760405162461bcd60e51b815260206004820152601a60248201527f63616e27742073656e6420746f207a65726f2061646472657373000000000000604482015260640161079f565b866001600160a01b0316610c216126f0565b6001600160a01b031614610ce9576001600160a01b038716600090815260376020526040812090610c506126f0565b6001600160a01b0316815260208101919091526040016000205460ff1680610c9d575060346000610c7f6126f0565b6001600160a01b0316815260208101919091526040016000205460ff165b610ce95760405162461bcd60e51b815260206004820152601e60248201527f6e6f7420617574686f72697a656420746f207472616e73666572517561640000604482015260640161079f565b610cf68787878787612e04565b610d008580615d58565b6001600160a01b03881660009081526035602052604081208054909190610d28908490615d77565b90915550610d3890508580615d58565b6001600160a01b03871660009081526035602052604081208054909190610d60908490615d2c565b90915550610db29050610d716126f0565b888888888888888080601f016020809104026020016040519081016040528093929190818152602001838380828437600092019190915250612fb492505050565b50505050505050565b606c5483906001600160a01b03163b15610ed657610dd76126f0565b6001600160a01b0316816001600160a01b03161415610dfb576109188484846130ff565b606c546001600160a01b031663c617113430610e156126f0565b6040516001600160e01b031960e085901b1681526001600160a01b0392831660048201529116602482015260440160206040518083038186803b158015610e5b57600080fd5b505afa158015610e6f573d6000803e3d6000fd5b505050506040513d601f19601f82011682018060405250810190610e939190615b43565b610ed65760405162461bcd60e51b815260206004820152601460248201527313dc195c985d1bdc88139bdd08105b1b1bddd95960621b604482015260640161079f565b610a038484846130ff565b610efb610eec6126f0565b610ef58361311a565b836132a6565b50565b3360009081526039602052604090205460ff16610f5d5760405162461bcd60e51b815260206004820152600b60248201527f21415554484f52495a4544000000000000000000000000000000000000000000604482015260640161079f565b6001600160a01b038616610fb35760405162461bcd60e51b815260206004820152601260248201527f746f206973207a65726f20616464726573730000000000000000000000000000604482015260640161079f565b610fbe8585856110c5565b1561108257610fd03387878787612e04565b610fda8580615d58565b3360009081526035602052604081208054909190610ff9908490615d77565b9091555061100990508580615d58565b6001600160a01b03871660009081526035602052604081208054909190611031908490615d2c565b9250508190555061107d33338888888888888080601f016020809104026020016040519081016040528093929190818152602001838380828437600092019190915250612fb492505050565b6108d0565b6108d08686868686868080601f01602080910402602001604051908101604052809392919081815260200183838082843760009201919091525061339d92505050565b60006110d28484846136d0565b60006110df8585856138b0565b6001600160a01b0316141590505b9392505050565b60006110ff8261311a565b90506001600160a01b0381166106fd5760405162461bcd60e51b815260206004820152601160248201527f4e4f4e4558495354414e545f544f4b454e000000000000000000000000000000604482015260640161079f565b6111628484846136d0565b61116d6105636126f0565b6111b95760405162461bcd60e51b815260206004820152600b60248201527f21415554484f52495a4544000000000000000000000000000000000000000000604482015260640161079f565b6111c68585858585613953565b5050505050565b60006001600160a01b0382166112255760405162461bcd60e51b815260206004820152601260248201527f5a45524f5f414444524553535f4f574e45520000000000000000000000000000604482015260640161079f565b506001600160a01b031660009081526035602052604090205490565b6001600160a01b0382166112975760405162461bcd60e51b815260206004820152601460248201527f4e4f545f46524f4d5f5a45524f41444452455353000000000000000000000000604482015260640161079f565b6000806112a38361241c565b9150915060006112b16126f0565b9050846001600160a01b0316816001600160a01b031614806112f457508180156112f457506000848152603860205260409020546001600160a01b038281169116145b8061131757506001600160a01b03811660009081526034602052604090205460ff165b8061134757506001600160a01b0380861660009081526037602090815260408083209385168352929052205460ff165b6113935760405162461bcd60e51b815260206004820152601160248201527f554e415554484f52495a45445f4255524e000000000000000000000000000000604482015260640161079f565b6111c68584866132a6565b60006106fa82613af4565b60006106fa82613b23565b6033546001600160a01b0316806113c96126f0565b6001600160a01b03161461141f5760405162461bcd60e51b815260206004820152601360248201527f41444d494e5f4143434553535f44454e49454400000000000000000000000000604482015260640161079f565b816001600160a01b0316816001600160a01b03167f7e644d79422f17c01e4894b5f4f588d331ebfa28653d42ae832dc59e38c9798f60405160405180910390a3506033805473ffffffffffffffffffffffffffffffffffffffff19166001600160a01b0392909216919091179055565b6033546001600160a01b03166114a36126f0565b6001600160a01b0316146114e65760405162461bcd60e51b815260206004820152600a60248201526941444d494e5f4f4e4c5960b01b604482015260640161079f565b606c805473ffffffffffffffffffffffffffffffffffffffff19166001600160a01b0383169081179091556040517fc6df119c56c99171b170652a3c4750ba46dcaacbdb3b7ab4847a9fa339659bd490600090a250565b606c5482906001600160a01b03163b1561161757606c54604051633185c44d60e21b81523060048201526001600160a01b0383811660248301529091169063c61711349060440160206040518083038186803b15801561159c57600080fd5b505afa1580156115b0573d6000803e3d6000fd5b505050506040513d601f19601f820116820180604052508101906115d49190615b43565b6116175760405162461bcd60e51b815260206004820152601460248201527313dc195c985d1bdc88139bdd08105b1b1bddd95960621b604482015260640161079f565b6108bd8383613b52565b6033546001600160a01b03166116356126f0565b6001600160a01b0316146116785760405162461bcd60e51b815260206004820152600a60248201526941444d494e5f4f4e4c5960b01b604482015260640161079f565b6001600160a01b0382166116f45760405162461bcd60e51b815260206004820152603160248201527f506f6c79676f6e4c616e6456323a20737562736372697074696f6e2063616e2760448201527f74206265207a65726f2061646472657373000000000000000000000000000000606482015260840161079f565b6116fe8282613b64565b5050565b6033546001600160a01b03166117166126f0565b6001600160a01b0316146117595760405162461bcd60e51b815260206004820152600a60248201526941444d494e5f4f4e4c5960b01b604482015260640161079f565b6033546001600160a01b031661176d6126f0565b6001600160a01b0316146117e95760405162461bcd60e51b815260206004820152602c60248201527f6f6e6c792061646d696e20697320616c6c6f77656420746f206164642073757060448201527f6572206f70657261746f72730000000000000000000000000000000000000000606482015260840161079f565b6001600160a01b038216600081815260346020526040808220805460ff191685151590811790915590519092917f44f92d27abdf4cfb6a7d712c3af68f3be086d4ca747ab802c36f67d6790060d891a35050565b606c5484906001600160a01b03163b1561195e576118596126f0565b6001600160a01b0316816001600160a01b031614156118835761187e85858585613dae565b6111c6565b606c546001600160a01b031663c61711343061189d6126f0565b6040516001600160e01b031960e085901b1681526001600160a01b0392831660048201529116602482015260440160206040518083038186803b1580156118e357600080fd5b505afa1580156118f7573d6000803e3d6000fd5b505050506040513d601f19601f8201168201806040525081019061191b9190615b43565b61195e5760405162461bcd60e51b815260206004820152601460248201527313dc195c985d1bdc88139bdd08105b1b1bddd95960621b604482015260640161079f565b6111c685858585613dae565b600054610100900460ff166119855760005460ff1615611989565b303b155b6119fb5760405162461bcd60e51b815260206004820152602e60248201527f496e697469616c697a61626c653a20636f6e747261637420697320616c72656160448201527f647920696e697469616c697a6564000000000000000000000000000000000000606482015260840161079f565b600054610100900460ff16158015611a26576000805460ff1961ff0019909116610100171660011790555b611a2e6126f0565b6033805473ffffffffffffffffffffffffffffffffffffffff19166001600160a01b0392909216919091179055611a6482613e34565b6033546040516001600160a01b03909116906000907f7e644d79422f17c01e4894b5f4f588d331ebfa28653d42ae832dc59e38c9798f908290a380156116fe576000805461ff00191690555050565b60606000611ac08361311a565b6001600160a01b03161415611b175760405162461bcd60e51b815260206004820152601160248201527f496420646f6573206e6f74206578697374000000000000000000000000000000604482015260640161079f565b611b2082613e91565b604051602001611b309190615c06565b6040516020818303038152906040529050919050565b6033546001600160a01b0316611b5a6126f0565b6001600160a01b031614611b9d5760405162461bcd60e51b815260206004820152600a60248201526941444d494e5f4f4e4c5960b01b604482015260640161079f565b6001600160a01b038216611bf35760405162461bcd60e51b815260206004820152601c60248201527f506f6c79676f6e4c616e643a20496e76616c6964206164647265737300000000604482015260640161079f565b6001600160a01b038216600081815260396020908152604091829020805460ff191685151590811790915591519182527fff452b3b9159b024a9098f0058c63eccd90d36b3584608202800d662f962bb6091015b60405180910390a25050565b6033546001600160a01b0316611c676126f0565b6001600160a01b031614611caa5760405162461bcd60e51b815260206004820152600a60248201526941444d494e5f4f4e4c5960b01b604482015260640161079f565b606b805473ffffffffffffffffffffffffffffffffffffffff19166001600160a01b0383169081179091556040517fd91237492a9e30cd2faf361fc103998a382ff0ec2b1b07dc1cbebb76ae2f1ea290600090a250565b6001600160a01b03808316600090815260376020908152604080832093851683529290529081205460ff1680611d4f57506001600160a01b03821660009081526034602052604090205460ff165b90505b92915050565b6001600160a01b038a16611dae5760405162461bcd60e51b815260206004820152601460248201527f66726f6d206973207a65726f2061646472657373000000000000000000000000604482015260640161079f565b6001600160a01b038916611e045760405162461bcd60e51b815260206004820152601a60248201527f63616e27742073656e6420746f207a65726f2061646472657373000000000000604482015260640161079f565b868514611e795760405162461bcd60e51b815260206004820152603c60248201527f506f6c79676f6e4c616e6442617365546f6b656e56323a2073697a657327732060448201527f616e6420782773206c656e6774682061726520646966666572656e7400000000606482015260840161079f565b848314611eee5760405162461bcd60e51b815260206004820152603860248201527f506f6c79676f6e4c616e6442617365546f6b656e56323a2078277320616e642060448201527f792773206c656e6774682061726520646966666572656e740000000000000000606482015260840161079f565b896001600160a01b0316611f006126f0565b6001600160a01b031614611fed576001600160a01b038a16600090815260376020526040812090611f2f6126f0565b6001600160a01b0316815260208101919091526040016000205460ff1680611f7c575060346000611f5e6126f0565b6001600160a01b0316815260208101919091526040016000205460ff165b611fed5760405162461bcd60e51b8152602060048201526024808201527f6e6f7420617574686f72697a656420746f207472616e736665724d756c74695160448201527f7561647300000000000000000000000000000000000000000000000000000000606482015260840161079f565b6000805b888110156120a75760008a8a8381811061201b57634e487b7160e01b600052603260045260246000fd5b90506020020135905061207d8d8d838c8c8781811061204a57634e487b7160e01b600052603260045260246000fd5b905060200201358b8b8881811061207157634e487b7160e01b600052603260045260246000fd5b90506020020135612e04565b6120878180615d58565b6120919084615d2c565b925050808061209f90615dd1565b915050611ff1565b506001600160a01b038b16600090815260356020526040812080548392906120d0908490615d77565b90915550506001600160a01b038a16600090815260356020526040812080548392906120fd908490615d2c565b90915550506001600160a01b038a163b1515801561212757506121278a6317a2fd9160e21b613fe8565b1561232a5760008167ffffffffffffffff81111561215557634e487b7160e01b600052604160045260246000fd5b60405190808252806020026020018201604052801561217e578160200160208202803683370190505b5090506000805b8a8110156122845760008c8c838181106121af57634e487b7160e01b600052603260045260246000fd5b90506020020135905060005b6121c58280615d58565b81101561226f5761222481838e8e878181106121f157634e487b7160e01b600052603260045260246000fd5b905060200201358d8d8881811061221857634e487b7160e01b600052603260045260246000fd5b905060200201356140af565b85858151811061224457634e487b7160e01b600052603260045260246000fd5b60209081029190910101528361225981615dd1565b945050808061226790615dd1565b9150506121bb565b5050808061227c90615dd1565b915050612185565b506122cf6122906126f0565b8e8e8589898080601f01602080910402602001604051908101604052809392919081815260200183838082843760009201919091525061412692505050565b6123275760405162461bcd60e51b8152602060048201526024808201527f657263373231206261746368207472616e736665722072656a656374656420626044820152637920746f60e01b606482015260840161079f565b50505b5050505050505050505050565b606c5482906001600160a01b03163b1561241157606c54604051633185c44d60e21b81523060048201526001600160a01b0383811660248301529091169063c61711349060440160206040518083038186803b15801561239657600080fd5b505afa1580156123aa573d6000803e3d6000fd5b505050506040513d601f19601f820116820180604052508101906123ce9190615b43565b6124115760405162461bcd60e51b815260206004820152601460248201527313dc195c985d1bdc88139bdd08105b1b1bddd95960621b604482015260640161079f565b610a038484846141e5565b6000807fff0000000000000000000000000000000000000000000000000000000000000083161561248f5760405162461bcd60e51b815260206004820152601060248201527f496e76616c696420746f6b656e20696400000000000000000000000000000000604482015260640161079f565b600061249d61019885615dec565b905060006124ad61019886615d44565b600086815260366020526040902054909150600160a01b80821614156124e45760009450600160ff1b80821614935050505061253d565b80156124fd57809450600160ff1b808216149350612539565b61253260038061250d8682615d58565b6125179190615d44565b60036125238682615d58565b61252d9190615d44565b6138b0565b9450600093505b5050505b915091565b6000818152603660205260408120549061255b8361311a565b905060006125676126f0565b90506001600160a01b0382166125bf5760405162461bcd60e51b815260206004820152601160248201527f4e4f4e4558495354454e545f544f4b454e000000000000000000000000000000604482015260640161079f565b806001600160a01b0316826001600160a01b0316148061260457506001600160a01b0380831660009081526037602090815260408083209385168352929052205460ff165b8061262757506001600160a01b03811660009081526034602052604090205460ff165b6126735760405162461bcd60e51b815260206004820152601560248201527f554e415554484f52495a45445f415050524f56414c0000000000000000000000604482015260640161079f565b6111c68386866142d6565b6108d0868686868080602002602001604051908101604052809392919081815260200183836020028082843760009201919091525050604080516020601f8a018190048102820181019092528881529250889150879081908401838280828437600092018290525092506127ae915050565b60006126fa61438c565b905090565b61270a8383836143d6565b6127158383836145df565b6001600160a01b0382163b1515801561273a575061273a826317a2fd9160e21b613fe8565b156108bd5761276261274a6126f0565b8484846040518060200160405280600081525061469d565b6108bd5760405162461bcd60e51b815260206004820152601860248201527f4552433732315f5452414e534645525f52454a45435445440000000000000000604482015260640161079f565b60006127b86126f0565b90506000866001600160a01b0316826001600160a01b0316148061280157506001600160a01b0380881660009081526037602090815260408083209386168352929052205460ff165b8061282457506001600160a01b03821660009081526034602052604090205460ff165b90506001600160a01b03871661287c5760405162461bcd60e51b815260206004820152601460248201527f4e4f545f46524f4d5f5a45524f41444452455353000000000000000000000000604482015260640161079f565b6001600160a01b0386166128d25760405162461bcd60e51b815260206004820152601260248201527f4e4f545f544f5f5a45524f414444524553530000000000000000000000000000604482015260640161079f565b845160005b81811015612a6957600087828151811061290157634e487b7160e01b600052603260045260246000fd5b602002602001015190506000806129178361241c565b915091508b6001600160a01b0316826001600160a01b03161461297c5760405162461bcd60e51b815260206004820152601b60248201527f42415443485452414e5346455246524f4d5f4e4f545f4f574e45520000000000604482015260640161079f565b85806129a957508080156129a957506000838152603860205260409020546001600160a01b038881169116145b6129f55760405162461bcd60e51b815260206004820152600e60248201527f4e4f545f415554484f52495a4544000000000000000000000000000000000000604482015260640161079f565b600083815260366020526040812054612a12918591908e9061475c565b828b6001600160a01b03168d6001600160a01b03167fddf252ad1be2c89b69c2b068fc378daa952ba7f163c4a11628f55a4df523b3ef60405160405180910390a45050508080612a6190615dd1565b9150506128d7565b50866001600160a01b0316886001600160a01b031614612ade576001600160a01b03881660009081526035602052604081208054839290612aab908490615d77565b90915550506001600160a01b03871660009081526035602052604081208054839290612ad8908490615d2c565b90915550505b6001600160a01b0387163b15612c0757612aff876317a2fd9160e21b613fe8565b15612b6257612b118389898989614126565b612b5d5760405162461bcd60e51b815260206004820152601e60248201527f4552433732315f42415443485f52454345495645445f52454a45435445440000604482015260640161079f565b612c07565b8315612c075760005b81811015612c0557612ba7848a8a8a8581518110612b9957634e487b7160e01b600052603260045260246000fd5b60200260200101518a61469d565b612bf35760405162461bcd60e51b815260206004820152601860248201527f4552433732315f52454345495645445f52454a45435445440000000000000000604482015260640161079f565b80612bfd81615dd1565b915050612b6b565b505b5050505050505050565b60008181526036602052604081205490612c2a8361311a565b90506000612c366126f0565b90506001600160a01b038616612c8e5760405162461bcd60e51b815260206004820152601360248201527f5a45524f5f414444524553535f53454e44455200000000000000000000000000604482015260640161079f565b6001600160a01b038216612ce45760405162461bcd60e51b815260206004820152601160248201527f4e4f4e4558495354454e545f544f4b454e000000000000000000000000000000604482015260640161079f565b856001600160a01b0316816001600160a01b03161480612d2957506001600160a01b0380871660009081526037602090815260408083209385168352929052205460ff165b80612d4c57506001600160a01b03811660009081526034602052604090205460ff165b612d985760405162461bcd60e51b815260206004820152601560248201527f554e415554484f52495a45445f415050524f56414c0000000000000000000000604482015260640161079f565b856001600160a01b0316836001600160a01b031614612df95760405162461bcd60e51b815260206004820152601060248201527f4f574e45525f4e4f545f53454e44455200000000000000000000000000000000604482015260640161079f565b6108d08386866142d6565b612e0f8383836136d0565b8260011415612f0c576000612e26600084846147ef565b90506000612e338261311a565b90506001600160a01b038116612e8b5760405162461bcd60e51b815260206004820152601460248201527f746f6b656e20646f6573206e6f74206578697374000000000000000000000000604482015260640161079f565b866001600160a01b0316816001600160a01b031614612eec5760405162461bcd60e51b815260206004820152601a60248201527f6e6f74206f776e657220696e205f7472616e7366657251756164000000000000604482015260640161079f565b5060009081526036602052604090206001600160a01b0385169055612f42565b612f4085856040518060600160405280868152602001858152602001878152506001600288612f3b9190615d44565b614811565b505b60005b612f4f8480615d58565b8110156108d057612f62818585856140af565b856001600160a01b0316876001600160a01b03167fddf252ad1be2c89b69c2b068fc378daa952ba7f163c4a11628f55a4df523b3ef60405160405180910390a480612fac81615dd1565b915050612f45565b6001600160a01b0385163b15158015612fd95750612fd9856317a2fd9160e21b613fe8565b15610db2576000612fea8580615d58565b67ffffffffffffffff81111561301057634e487b7160e01b600052604160045260246000fd5b604051908082528060200260200182016040528015613039578160200160208202803683370190505b50905060005b6130498680615d58565b8110156130995761305c818787876140af565b82828151811061307c57634e487b7160e01b600052603260045260246000fd5b60209081029190910101528061309181615dd1565b91505061303f565b506130a78888888486614126565b612c075760405162461bcd60e51b8152602060048201526024808201527f657263373231206261746368207472616e736665722072656a656374656420626044820152637920746f60e01b606482015260840161079f565b6108bd8383836040518060200160405280600081525061183d565b60007fff0000000000000000000000000000000000000000000000000000000000000082161561318c5760405162461bcd60e51b815260206004820152601060248201527f496e76616c696420746f6b656e20696400000000000000000000000000000000604482015260640161079f565b600080600061319a85614a90565b919450925090506131ab8383615dec565b156131f85760405162461bcd60e51b815260206004820152601e60248201527f7820636f6f7264696e6174653a20496e76616c696420746f6b656e2069640000604482015260640161079f565b6132028382615dec565b1561324f5760405162461bcd60e51b815260206004820152601e60248201527f7920636f6f7264696e6174653a20496e76616c696420746f6b656e2069640000604482015260640161079f565b826001141561329257600085815260366020526040902054600160a01b808216146132845761327f8484846138b0565b613287565b60005b9450505050506106fd565b61329d8383836138b0565b95945050505050565b816001600160a01b0316836001600160a01b0316146133075760405162461bcd60e51b815260206004820152600960248201527f4e4f545f4f574e45520000000000000000000000000000000000000000000000604482015260640161079f565b80600160a01b61331c6001600160ff1b615d77565b6000838152603660209081526040808320805494909416949094179092556001600160a01b0387168152603590915290812080549161335a83615dba565b909155505060405182906000906001600160a01b038716907fddf252ad1be2c89b69c2b068fc378daa952ba7f163c4a11628f55a4df523b3ef908390a450505050565b60006133a885614b9c565b5050905060006133b98286866147ef565b604080518181526108208101825291925060009190816020015b6133f760405180606001604052806000815260200160008152602001600081525090565b8152602001906001900390816133d357905050905060008060038911156134515761344b60405180606001604052808a81526020018981526020018b81525084838560028e6134469190615d44565b614c94565b90925090505b60005b61345e8a80615d58565b81101561363e576000613473828c8c8c6140af565b905060006134ad86604051806060016040528061348f86613b23565b815260200161349d86613af4565b8152602001600181525087614e74565b905080156134f25760405182906001600160a01b038f169033907fddf252ad1be2c89b69c2b068fc378daa952ba7f163c4a11628f55a4df523b3ef90600090a4613629565b6000828152603660205260409020546001600160a01b03163314156135a3576000828152603860205260409020546001600160a01b031615613558576000828152603860205260409020805473ffffffffffffffffffffffffffffffffffffffff191690555b613563600185615d2c565b60405190945082906001600160a01b038f169033907fddf252ad1be2c89b69c2b068fc378daa952ba7f163c4a11628f55a4df523b3ef90600090a4613629565b600082815260366020526040902054156135f05760405162461bcd60e51b815260206004820152600e60248201526d105b1c9958591e481b5a5b9d195960921b604482015260640161079f565b60405182906001600160a01b038f16906000907fddf252ad1be2c89b69c2b068fc378daa952ba7f163c4a11628f55a4df523b3ef908290a45b5050808061363690615dd1565b915050613454565b5061364f8383838d8d8d8d8d614f45565b60008481526036602052604090206001600160a01b038b1690556136738980615d58565b6001600160a01b038b166000908152603560205260408120805490919061369b908490615d2c565b909155505033600090815260356020526040812080548392906136bf908490615d77565b909155505050505050505050505050565b82600114806136df5750826003145b806136ea5750826006145b806136f5575082600c145b806137005750826018145b61374c5760405162461bcd60e51b815260206004820152600c60248201527f496e76616c69642073697a650000000000000000000000000000000000000000604482015260640161079f565b6137568383615dec565b156137a35760405162461bcd60e51b815260206004820152601460248201527f496e76616c6964207820636f6f7264696e617465000000000000000000000000604482015260640161079f565b6137ad8382615dec565b156137fa5760405162461bcd60e51b815260206004820152601460248201527f496e76616c6964207920636f6f7264696e617465000000000000000000000000604482015260640161079f565b61380683610198615d77565b8211156138555760405162461bcd60e51b815260206004820152600f60248201527f78206f7574206f6620626f756e64730000000000000000000000000000000000604482015260640161079f565b61386183610198615d77565b8111156108bd5760405162461bcd60e51b815260206004820152600f60248201527f79206f7574206f6620626f756e64730000000000000000000000000000000000604482015260640161079f565b60008060006138be86614b9c565b50909250905060006036816138fc858a6138d8818c615d44565b6138e29190615d58565b8b6138ed818c615d44565b6138f79190615d58565b6147ef565b815260208101919091526040016000205490506001600160a01b038116156139285792506110ed915050565b60188710156139465761393c8287876138b0565b93505050506110ed565b5060009695505050505050565b6001600160a01b0385166139a95760405162461bcd60e51b815260206004820152601260248201527f746f206973207a65726f20616464726573730000000000000000000000000000604482015260640161079f565b60006139b485614b9c565b5050905060006139c58286866147ef565b90506139d486868660186152a7565b60005b6139e18780615d58565b811015613a915760006139f6828989896140af565b60008181526036602052604090205490915015613a465760405162461bcd60e51b815260206004820152600e60248201526d105b1c9958591e481b5a5b9d195960921b604482015260640161079f565b60405181906001600160a01b038b16906000907fddf252ad1be2c89b69c2b068fc378daa952ba7f163c4a11628f55a4df523b3ef908290a45080613a8981615dd1565b9150506139d7565b5060008181526036602052604090206001600160a01b0388169055613ab68680615d58565b6001600160a01b03881660009081526035602052604081208054909190613ade908490615d2c565b90915550610db290503360008989898989612fb4565b60006106fa6101987effffffffffffffffffffffffffffffffffffffffffffffffffffffffffffff8416615d44565b60006106fa6101987effffffffffffffffffffffffffffffffffffffffffffffffffffffffffffff8416615dec565b6116fe613b5d6126f0565b838361540f565b606c546001600160a01b03163b15613d7157606c546040517fc3c5a5470000000000000000000000000000000000000000000000000000000081523060048201526001600160a01b039091169063c3c5a54790602401602060405180830381600087803b158015613bd457600080fd5b505af1158015613be8573d6000803e3d6000fd5b505050506040513d601f19601f82011682018060405250810190613c0c9190615b43565b613d71578015613c9a57606c546040517f7d3e3dbe0000000000000000000000000000000000000000000000000000000081523060048201526001600160a01b03848116602483015290911690637d3e3dbe906044015b600060405180830381600087803b158015613c7d57600080fd5b505af1158015613c91573d6000803e3d6000fd5b50505050613d71565b6001600160a01b03821615613cfa57606c546040517fa0af29030000000000000000000000000000000000000000000000000000000081523060048201526001600160a01b0384811660248301529091169063a0af290390604401613c63565b606c546040517f4420e4860000000000000000000000000000000000000000000000000000000081523060048201526001600160a01b0390911690634420e48690602401600060405180830381600087803b158015613d5857600080fd5b505af1158015613d6c573d6000803e3d6000fd5b505050505b816001600160a01b03167f3c7a9c847c035e45b84027e44ad55724873d5921b3a6abb8c0926b415d9241b182604051611c47911515815260200190565b613db98484846143d6565b613dc48484846145df565b6001600160a01b0383163b15610a0357613de8613ddf6126f0565b8585858561469d565b610a035760405162461bcd60e51b815260206004820152601860248201527f4552433732315f5452414e534645525f52454a45435445440000000000000000604482015260640161079f565b606b805473ffffffffffffffffffffffffffffffffffffffff19166001600160a01b0383811691909117918290556040519116907fd91237492a9e30cd2faf361fc103998a382ff0ec2b1b07dc1cbebb76ae2f1ea290600090a250565b606081613ed2575060408051808201909152600181527f300000000000000000000000000000000000000000000000000000000000000060208201526106fd565b8160005b8115613efc5780613ee681615dd1565b9150613ef59050600a83615d44565b9150613ed6565b60008167ffffffffffffffff811115613f2557634e487b7160e01b600052604160045260246000fd5b6040519080825280601f01601f191660200182016040528015613f4f576020820181803683370190505b5090505b8415613fe057613f64600183615d77565b9150613f71600a86615dec565b613f7c906030615d2c565b60f81b818381518110613f9f57634e487b7160e01b600052603260045260246000fd5b60200101907effffffffffffffffffffffffffffffffffffffffffffffffffffffffffffff1916908160001a905350613fd9600a86615d44565b9450613f53565b949350505050565b604080516001600160e01b031983166024808301919091528251808303909101815260449091018252602080820180517bffffffffffffffffffffffffffffffffffffffffffffffffffffffff167f01ffc9a7000000000000000000000000000000000000000000000000000000001781528251935160008082529485948594909392908183858c612710fa955080519450505050609e5a1161409b57634e487b7160e01b600052600160045260246000fd5b8280156140a55750815b9695505050505050565b6000806140bc8587615d44565b90506140c9600282615dec565b6140f8576140f060006140dc8789615dec565b6140e69087615d2c565b6138f78487615d2c565b915050613fe0565b6140f060006141078789615dec565b614112906001615d2c565b61411c8888615d2c565b6140e69190615d77565b600080846001600160a01b0316634b808c46888887876040518563ffffffff1660e01b815260040161415b9493929190615c72565b602060405180830381600087803b15801561417557600080fd5b505af1158015614189573d6000803e3d6000fd5b505050506040513d601f19601f820116820180604052508101906141ad9190615b7b565b6001600160e01b0319167f4b808c46000000000000000000000000000000000000000000000000000000001491505095945050505050565b6001600160a01b03831661423b5760405162461bcd60e51b815260206004820152601660248201527f496e76616c69642073656e646572206164647265737300000000000000000000604482015260640161079f565b60006142456126f0565b9050836001600160a01b0316816001600160a01b0316148061427f57506001600160a01b03811660009081526034602052604090205460ff165b6142cb5760405162461bcd60e51b815260206004820152601c60248201527f554e415554484f52495a45445f415050524f56455f464f525f414c4c00000000604482015260640161079f565b610a0384848461540f565b60006142e18261311a565b90506001600160a01b038316614303576142fe828583600061475c565b614345565b614310828583600161475c565b6000828152603860205260409020805473ffffffffffffffffffffffffffffffffffffffff19166001600160a01b0385161790555b81836001600160a01b0316826001600160a01b03167f8c5be1e5ebec7d5bd14f71427d1e84f3dd0314c0f7b2291e5b200ac8c7c3b92560405160405180910390a450505050565b606b546000906001600160a01b03163314156143cf57507fffffffffffffffffffffffffffffffffffffffffffffffffffffffffffffffec36013560601c610737565b5033610737565b6000806143e28361241c565b9150915060006143f06126f0565b90506001600160a01b0383166144485760405162461bcd60e51b815260206004820152601160248201527f4e4f4e4558495354454e545f544f4b454e000000000000000000000000000000604482015260640161079f565b856001600160a01b0316836001600160a01b0316146144a95760405162461bcd60e51b815260206004820152601760248201527f434845434b5452414e534645525f4e4f545f4f574e4552000000000000000000604482015260640161079f565b6001600160a01b0385166144ff5760405162461bcd60e51b815260206004820152601260248201527f4e4f545f544f5f5a45524f414444524553530000000000000000000000000000604482015260640161079f565b826001600160a01b0316816001600160a01b0316148061453757506001600160a01b03811660009081526034602052604090205460ff165b8061456757506001600160a01b0380871660009081526037602090815260408083209385168352929052205460ff165b80614593575081801561459357506000848152603860205260409020546001600160a01b038281169116145b6108d05760405162461bcd60e51b815260206004820152601560248201527f554e415554484f52495a45445f5452414e534645520000000000000000000000604482015260640161079f565b6001600160a01b038316600090815260356020526040812080549161460383615dba565b90915550506001600160a01b038216600090815260356020526040812080549161462c83615dd1565b919050555061465781603660006146408590565b81526020019081526020016000205484600061475c565b80826001600160a01b0316846001600160a01b03167fddf252ad1be2c89b69c2b068fc378daa952ba7f163c4a11628f55a4df523b3ef60405160405180910390a4505050565b600080846001600160a01b031663150b7a02888887876040518563ffffffff1660e01b81526004016146d29493929190615ce7565b602060405180830381600087803b1580156146ec57600080fd5b505af1158015614700573d6000803e3d6000fd5b505050506040513d601f19601f820116820180604052508101906147249190615b7b565b6001600160e01b0319167f150b7a02000000000000000000000000000000000000000000000000000000001491505095945050505050565b80156147a0576000848152603660205260409020600160ff1b6001600160a01b03841673ffffffffffffffffffffffffffffffffffffffff19861617179055610a03565b6001600160a01b0382166147b96001600160ff1b615d77565b841673ffffffffffffffffffffffffffffffffffffffff1916176036600086815260208101919091526040016000205550505050565b60006147fd61019883615d58565b6148078486615d2c565b613fe09190615d2c565b60008060006148238660400151614b9c565b9250509150600061483d83886000015189602001516147ef565b87519091506001905b604089015189516148579190615d2c565b8110156149b35760208901515b89604001518a602001516148789190615d2c565b8110156149a15760008060038a10156148b0576148a08e61489b600087876147ef565b6154e5565b80156148a95750845b9050614976565b6148df8e8e60405180606001604052808881526020018781526020018e815250600060028f612f3b9190615d44565b905060006148ee8886866147ef565b6000818152603660205260409020549350905082156149745781614964578e6001600160a01b031683146149645760405162461bcd60e51b815260206004820152601760248201527f6e6f74206f776e6572206f66206368696c642051756164000000000000000000604482015260640161079f565b6000818152603660205260408120555b505b808061498157508115155b801561498a5750845b94505050878161499a9190615d2c565b9050614864565b506149ac8782615d2c565b9050614846565b508615614a835780614a5c57896001600160a01b03166149e089604001518a600001518b602001516138b0565b6001600160a01b031614614a5c5760405162461bcd60e51b815260206004820152602b60248201527f6e6f74206f776e6572206f6620616c6c20737562207175616473206e6f72207060448201527f6172656e74207175616473000000000000000000000000000000000000000000606482015260840161079f565b5060009081526036602052604090206001600160a01b0388169055506001915061329d9050565b9998505050505050505050565b6000806000614a9e84613b23565b9150614aa984613af4565b90507fff00000000000000000000000000000000000000000000000000000000000000841680614adc5760019350614b94565b600160f81b811415614af15760039350614b94565b600160f91b811415614b065760069350614b94565b600360f81b811415614b1b57600c9350614b94565b7f0400000000000000000000000000000000000000000000000000000000000000811415614b4c5760189350614b94565b60405162461bcd60e51b815260206004820152601060248201527f496e76616c696420746f6b656e20696400000000000000000000000000000000604482015260640161079f565b509193909250565b60008060008360011415614bb7576000925060039150614c8d565b8360031415614bd057600160f81b925060069150614c8d565b8360061415614bef5750600160f91b9150600c9050600160f81b614c8d565b83600c1415614c0e5750600360f81b915060189050600160f91b614c8d565b8360181415614c4557507f04000000000000000000000000000000000000000000000000000000000000009150600360f81b614c8d565b60405162461bcd60e51b815260206004820152600c60248201527f496e76616c69642073697a650000000000000000000000000000000000000000604482015260640161079f565b9193909250565b6000806000614ca284614b9c565b50509050600088604001518960000151614cbc9190615d2c565b9050600089604001518a60200151614cd49190615d2c565b8a519091505b82811015614e3c5760208b01515b82811015614e2a576000614d178c60405180606001604052808681526020018581526020018c8152508c614e74565b905080614e18576000614d2b8785856147ef565b6000818152603660205260409020549091506001600160a01b038116331415614dcd5760405180606001604052808681526020018581526020018c8152508e8d81518110614d8957634e487b7160e01b600052603260045260246000fd5b60200260200101819052508b80614d9f90615dd1565b9c50614dad90508b80615d58565b614db7908e615d2c565b6000838152603660205260408120559c50614e15565b6001600160a01b03811615614e155760405162461bcd60e51b815260206004820152600e60248201526d105b1c9958591e481b5a5b9d195960921b604482015260640161079f565b50505b50614e238882615d2c565b9050614ce8565b50614e358782615d2c565b9050614cda565b50614e48600287615d44565b955060038610614e6457614e5f8a8a8a8a8a614c94565b985096505b5094989597509495505050505050565b6000805b82811015614f3a576000858281518110614ea257634e487b7160e01b600052603260045260246000fd5b6020026020010151905084604001518160400151118015614ec557508051855110155b8015614ee1575060408101518151614edd9190615d2c565b8551105b8015614ef557508060200151856020015110155b8015614f17575080604001518160200151614f109190615d2c565b8560200151105b15614f27576001925050506110ed565b5080614f3281615dd1565b915050614e78565b506000949350505050565b6001600160a01b0385163b15158015614f6a5750614f6a856317a2fd9160e21b613fe8565b156152405760008667ffffffffffffffff811115614f9857634e487b7160e01b600052604160045260246000fd5b604051908082528060200260200182016040528015614fc1578160200160208202803683370190505b50905060008088614fd28880615d58565b614fdc9190615d77565b67ffffffffffffffff81111561500257634e487b7160e01b600052604160045260246000fd5b60405190808252806020026020018201604052801561502b578160200160208202803683370190505b5090506000805b61503c8980615d58565b81101561516b576000615051828b8b8b6140af565b90506150898e604051806060016040528061506b85613b23565b815260200161507985613af4565b815260200160018152508f614e74565b156150cc57808686815181106150af57634e487b7160e01b600052603260045260246000fd5b6020908102919091010152846150c481615dd1565b955050615158565b6000818152603660205260409020546001600160a01b031633141561511e57600081815260366020526040812055855181908790879081106150af57634e487b7160e01b600052603260045260246000fd5b8084848151811061513f57634e487b7160e01b600052603260045260246000fd5b60209081029190910101528261515481615dd1565b9350505b508061516381615dd1565b915050615032565b5061517a3360008b8589614126565b6151d25760405162461bcd60e51b8152602060048201526024808201527f657263373231206261746368207472616e736665722072656a656374656420626044820152637920746f60e01b606482015260840161079f565b6151df33338b8789614126565b6152375760405162461bcd60e51b8152602060048201526024808201527f657263373231206261746368207472616e736665722072656a656374656420626044820152637920746f60e01b606482015260840161079f565b50505050612c07565b60005b61524d8580615d58565b811015612c05576000615262828787876140af565b6000818152603660205260409020549091506001600160a01b0316331415615294576000818152603660205260408120555b508061529f81615dd1565b915050615243565b60006152b282614b9c565b5050905081851161533957603660006152e583856152d0818a615d44565b6152da9190615d58565b866138ed818a615d44565b8152602001908152602001600020546000146153345760405162461bcd60e51b815260206004820152600e60248201526d105b1c9958591e481b5a5b9d195960921b604482015260640161079f565b6153ee565b60006153458686615d2c565b905060006153538786615d2c565b9050855b828110156153ea57855b828110156153d857603660006153788785856147ef565b8152602001908152602001600020546000146153c75760405162461bcd60e51b815260206004820152600e60248201526d105b1c9958591e481b5a5b9d195960921b604482015260640161079f565b6153d18682615d2c565b9050615361565b506153e38582615d2c565b9050615357565b5050505b6153f9600283615d44565b9150600382106111c6576111c6858585856152a7565b6001600160a01b03821660009081526034602052604090205460ff16156154785760405162461bcd60e51b815260206004820152601760248201527f494e56414c49445f415050524f56414c5f4348414e4745000000000000000000604482015260640161079f565b6001600160a01b03838116600081815260376020908152604080832094871680845294825291829020805460ff191686151590811790915591519182527f17307eab39ab6107e8899845ad3d59bd9653f200f220920489ca2b5937696c31910160405180910390a3505050565b60008181526036602052604081205480156155c957600160a01b80821614156155505760405162461bcd60e51b815260206004820152600960248201527f6e6f74206f776e65720000000000000000000000000000000000000000000000604482015260640161079f565b836001600160a01b0316816001600160a01b0316146155b15760405162461bcd60e51b815260206004820152600960248201527f6e6f74206f776e65720000000000000000000000000000000000000000000000604482015260640161079f565b50506000818152603660205260408120556001611d52565b5060009392505050565b80356001600160a01b03811681146106fd57600080fd5b60008083601f8401126155fb578081fd5b50813567ffffffffffffffff811115615612578182fd5b602083019150836020808302850101111561562c57600080fd5b9250929050565b60008083601f840112615644578182fd5b50813567ffffffffffffffff81111561565b578182fd5b60208301915083602082850101111561562c57600080fd5b600082601f830112615683578081fd5b813567ffffffffffffffff8082111561569e5761569e615e2c565b604051601f8301601f19908116603f011681019082821181831017156156c6576156c6615e2c565b816040528381528660208588010111156156de578485fd5b8360208701602083013792830160200193909352509392505050565b60006020828403121561570b578081fd5b611d4f826155d3565b60008060408385031215615726578081fd5b61572f836155d3565b915061573d602084016155d3565b90509250929050565b60008060008060008060008060008060c08b8d031215615764578586fd5b61576d8b6155d3565b995061577b60208c016155d3565b985060408b013567ffffffffffffffff80821115615797578788fd5b6157a38e838f016155ea565b909a50985060608d01359150808211156157bb578788fd5b6157c78e838f016155ea565b909850965060808d01359150808211156157df578586fd5b6157eb8e838f016155ea565b909650945060a08d0135915080821115615803578384fd5b506158108d828e01615633565b915080935050809150509295989b9194979a5092959850565b60008060008060008060808789031215615841578182fd5b61584a876155d3565b9550615858602088016155d3565b9450604087013567ffffffffffffffff80821115615874578384fd5b6158808a838b016155ea565b90965094506060890135915080821115615898578384fd5b506158a589828a01615633565b979a9699509497509295939492505050565b6000806000606084860312156158cb578283fd5b6158d4846155d3565b92506158e2602085016155d3565b915060408401356158f281615e42565b809150509250925092565b600080600060608486031215615911578283fd5b61591a846155d3565b9250615928602085016155d3565b9150604084013590509250925092565b6000806000806080858703121561594d578384fd5b615956856155d3565b9350615964602086016155d3565b925060408501359150606085013567ffffffffffffffff811115615986578182fd5b61599287828801615673565b91505092959194509250565b600080600080600080600060c0888a0312156159b8578283fd5b6159c1886155d3565b96506159cf602089016155d3565b955060408801359450606088013593506080880135925060a088013567ffffffffffffffff8111156159ff578283fd5b615a0b8a828b01615633565b989b979a50959850939692959293505050565b60008060408385031215615a30578081fd5b615a39836155d3565b91506020830135615a4981615e42565b809150509250929050565b60008060408385031215615a66578182fd5b615a6f836155d3565b946020939093013593505050565b60008060008060008060a08789031215615a95578384fd5b615a9e876155d3565b9550602087013594506040870135935060608701359250608087013567ffffffffffffffff811115615ace578283fd5b6158a589828a01615633565b600080600080600060a08688031215615af1578283fd5b615afa866155d3565b9450602086013593506040860135925060608601359150608086013567ffffffffffffffff811115615b2a578182fd5b615b3688828901615673565b9150509295509295909350565b600060208284031215615b54578081fd5b81516110ed81615e42565b600060208284031215615b70578081fd5b81356110ed81615e50565b600060208284031215615b8c578081fd5b81516110ed81615e50565b600060208284031215615ba8578081fd5b5035919050565b600080600060608486031215615bc3578081fd5b505081359360208301359350604090920135919050565b60008151808452615bf2816020860160208601615d8e565b601f01601f19169290920160200192915050565b60007f68747470733a2f2f6170692e73616e64626f782e67616d652f6c616e64732f0082528251615c3e81601f850160208701615d8e565b7f2f6d657461646174612e6a736f6e000000000000000000000000000000000000601f939091019283015250602d01919050565b6000608082016001600160a01b03808816845260208188168186015260806040860152829150865180845260a0860192508188019350845b81811015615cc657845184529382019392820192600101615caa565b5050508381036060850152615cdb8186615bda565b98975050505050505050565b60006001600160a01b038087168352808616602084015250836040830152608060608301526140a56080830184615bda565b600060208252611d4f6020830184615bda565b60008219821115615d3f57615d3f615e00565b500190565b600082615d5357615d53615e16565b500490565b6000816000190483118215151615615d7257615d72615e00565b500290565b600082821015615d8957615d89615e00565b500390565b60005b83811015615da9578181015183820152602001615d91565b83811115610a035750506000910152565b600081615dc957615dc9615e00565b506000190190565b6000600019821415615de557615de5615e00565b5060010190565b600082615dfb57615dfb615e16565b500690565b634e487b7160e01b600052601160045260246000fd5b634e487b7160e01b600052601260045260246000fd5b634e487b7160e01b600052604160045260246000fd5b8015158114610efb57600080fd5b6001600160e01b031981168114610efb57600080fdfea26469706673582212202f00bade401d38e048836aa9a97bca4db995f998866ba696bdcfaf359a1a99c164736f6c63430008020033",
  "devdoc": {
    "kind": "dev",
    "methods": {
      "approve(address,uint256)": {
        "params": {
          "id": "The id of the token",
          "operator": "The address receiving the approval"
        }
      },
      "approveFor(address,address,uint256)": {
        "params": {
          "id": "The id of the token",
          "operator": "The address receiving the approval",
          "sender": "The address giving the approval"
        }
      },
      "balanceOf(address)": {
        "params": {
          "owner": "The address to look for."
        },
        "returns": {
          "_0": "The number of tokens owned by the address."
        }
      },
      "batchTransferFrom(address,address,uint256[],bytes)": {
        "params": {
          "data": "Additional data.",
          "from": "The sender of the token.",
          "ids": "The ids of the tokens.",
          "to": "The recipient of the token."
        }
      },
      "batchTransferQuad(address,address,uint256[],uint256[],uint256[],bytes)": {
        "params": {
          "data": "additional data",
          "from": "current owner of the quad",
          "sizes": "list of sizes for each quad",
          "to": "destination",
          "xs": "list of bottom left x coordinates for each quad",
          "ys": "list of bottom left y coordinates for each quad"
        }
      },
      "burn(uint256)": {
        "params": {
          "id": "The token which will be burnt."
        }
      },
      "burnFrom(address,uint256)": {
        "params": {
          "from": "address whose token is to be burnt.",
          "id": "The token which will be burnt."
        }
      },
      "changeAdmin(address)": {
        "details": "Change the administrator to be `newAdmin`.",
        "params": {
          "newAdmin": "The address of the new administrator."
        }
      },
      "exists(uint256,uint256,uint256)": {
        "params": {
          "size": "size of the",
          "x": "x coordinate of the quad",
          "y": "y coordinate of the quad"
        },
        "returns": {
          "_0": "bool for if Land has been minted or not"
        }
      },
      "getAdmin()": {
        "details": "Get the current administrator of this contract.",
        "returns": {
          "_0": "The current administrator of this contract."
        }
      },
      "getApproved(uint256)": {
        "params": {
          "id": "The id of the token."
        },
        "returns": {
          "_0": "The address of the operator."
        }
      },
      "getTrustedForwarder()": {
        "returns": {
          "_0": "trustedForwarder address of the trusted forwarder"
        }
      },
      "getX(uint256)": {
        "params": {
          "id": "tokenId"
        },
        "returns": {
          "_0": "the x coordinates"
        }
      },
      "getY(uint256)": {
        "params": {
          "id": "tokenId"
        },
        "returns": {
          "_0": "the y coordinates"
        }
      },
      "height()": {
        "returns": {
          "_0": "height"
        }
      },
      "isApprovedForAll(address,address)": {
        "params": {
          "operator": "The address of the operator.",
          "owner": "The address of the owner."
        },
        "returns": {
          "_0": "isOperator The status of the approval."
        }
      },
      "isMinter(address)": {
        "params": {
          "who": "The address to query."
        },
        "returns": {
          "_0": "whether the address has minter rights."
        }
      },
      "isSuperOperator(address)": {
        "params": {
          "who": "The address to query."
        },
        "returns": {
          "_0": "whether the address has superOperator rights."
        }
      },
      "isTrustedForwarder(address)": {
        "params": {
          "forwarder": "address to check"
        },
        "returns": {
          "_0": "is trusted"
        }
      },
      "mintAndTransferQuad(address,uint256,uint256,uint256,bytes)": {
        "params": {
          "data": "extra data to pass to the transfer",
          "size": "The size of the new quad",
          "to": "The recipient of the new quad",
          "x": "The top left x coordinate of the new quad",
          "y": "The top left y coordinate of the new quad"
        }
      },
      "mintQuad(address,uint256,uint256,uint256,bytes)": {
        "params": {
          "data": "extra data to pass to the transfer",
          "size": "The size of the new quad",
          "user": "The recipient of the new quad",
          "x": "The top left x coordinate of the new quad",
          "y": "The top left y coordinate of the new quad"
        }
      },
      "name()": {
        "returns": {
          "_0": "The name of the token contract"
        }
      },
      "ownerOf(uint256)": {
        "params": {
          "id": "The id of the token."
        },
        "returns": {
          "owner": "The address of the token owner."
        }
      },
      "register(address,bool)": {
        "details": "can only be called by admin.",
        "params": {
          "subscribe": "bool to signify subscription 'true' or to copy the list 'false'.",
          "subscriptionOrRegistrantToCopy": "registration address of the list to subscribe."
        }
      },
      "safeBatchTransferFrom(address,address,uint256[],bytes)": {
        "params": {
          "data": "Additional data.",
          "from": "The sender of the token.",
          "ids": "The ids of the tokens.",
          "to": "The recipient of the token."
        }
      },
      "safeTransferFrom(address,address,uint256)": {
        "params": {
          "from": "The send of the token",
          "id": "The id of the token",
          "to": "The recipient of the token"
        }
      },
      "safeTransferFrom(address,address,uint256,bytes)": {
        "params": {
          "data": "Additional data",
          "from": "The sender of the token",
          "id": "The id of the token",
          "to": "The recipient of the token"
        }
      },
      "setApprovalForAll(address,bool)": {
        "params": {
          "approved": "The determination of the approval",
          "operator": "The address receiving the approval"
        }
      },
      "setApprovalForAllFor(address,address,bool)": {
        "params": {
          "approved": "The determination of the approval",
          "operator": "The address receiving the approval",
          "sender": "The address giving the approval"
        }
      },
      "setMinter(address,bool)": {
        "params": {
          "enabled": "set whether the minter is enabled or disabled.",
          "minter": "address that will be given/removed minter right."
        }
      },
      "setOperatorRegistry(address)": {
        "params": {
          "registry": "the address of the registry"
        }
      },
      "setSuperOperator(address,bool)": {
        "params": {
          "enabled": "set whether the superOperator is enabled or disabled.",
          "superOperator": "address that will be given/removed superOperator right."
        }
      },
      "setTrustedForwarder(address)": {
        "details": "Change the address of the trusted forwarder for meta-TX",
        "params": {
          "trustedForwarder": "The new trustedForwarder"
        }
      },
      "supportsInterface(bytes4)": {
        "params": {
          "id": "The id of the interface"
        },
        "returns": {
          "_0": "True if the interface is supported"
        }
      },
      "symbol()": {
        "returns": {
          "_0": "The symbol of the token contract"
        }
      },
      "tokenURI(uint256)": {
        "params": {
          "id": "The id of the token"
        },
        "returns": {
          "_0": "The URI of the token"
        }
      },
      "transferFrom(address,address,uint256)": {
        "params": {
          "from": "The sender of the token",
          "id": "The id of the token",
          "to": "The recipient of the token"
        }
      },
      "transferQuad(address,address,uint256,uint256,uint256,bytes)": {
        "params": {
          "data": "additional data for transfer",
          "from": "current owner of the quad",
          "size": "size of the quad",
          "to": "destination",
          "x": "The top left x coordinate of the quad",
          "y": "The top left y coordinate of the quad"
        }
      },
      "width()": {
        "returns": {
          "_0": "width"
        }
      }
    },
    "title": "LAND token on L2",
    "version": 1
  },
  "userdoc": {
    "kind": "user",
    "methods": {
      "approve(address,uint256)": {
        "notice": "Approve an operator to spend tokens on the sender behalf"
      },
      "approveFor(address,address,uint256)": {
        "notice": "Approve an operator to spend tokens on the sender behalf"
      },
      "balanceOf(address)": {
        "notice": "Get the number of tokens owned by an address."
      },
      "batchTransferFrom(address,address,uint256[],bytes)": {
        "notice": "Transfer many tokens between 2 addresses."
      },
      "batchTransferQuad(address,address,uint256[],uint256[],uint256[],bytes)": {
        "notice": "transfer multiple quad (aligned to a quad tree with size 3, 6, 12 or 24 only)"
      },
      "burn(uint256)": {
        "notice": "Burns token `id`."
      },
      "burnFrom(address,uint256)": {
        "notice": "Burn token `id` from `from`."
      },
      "changeAdmin(address)": {
        "notice": "Change the admin of the contract"
      },
      "exists(uint256,uint256,uint256)": {
        "notice": "checks if Land has been minted or not"
      },
      "getAdmin()": {
        "notice": "Get the current admin"
      },
      "getApproved(uint256)": {
        "notice": "Get the approved operator for a specific token."
      },
      "getTrustedForwarder()": {
        "notice": "Get the current trusted forwarder"
      },
      "getX(uint256)": {
        "notice": "x coordinate of Land token"
      },
      "getY(uint256)": {
        "notice": "y coordinate of Land token"
      },
      "height()": {
        "notice": "total height of the map"
      },
      "isApprovedForAll(address,address)": {
        "notice": "Check if the sender approved the operator."
      },
      "isMinter(address)": {
        "notice": "check whether address `who` is given minter rights."
      },
      "isSuperOperator(address)": {
        "notice": "check whether address `who` is given superOperator rights."
      },
      "isTrustedForwarder(address)": {
        "notice": "Checks if an address is a trusted forwarder"
      },
      "mintAndTransferQuad(address,uint256,uint256,uint256,bytes)": {
        "notice": "Checks if a parent quad has child quads already minted.  Then mints the rest child quads and transfers the parent quad.  Should only be called by the tunnel."
      },
      "mintQuad(address,uint256,uint256,uint256,bytes)": {
        "notice": "Mint a new quad (aligned to a quad tree with size 1, 3, 6, 12 or 24 only)"
      },
      "name()": {
        "notice": "Return the name of the token contract"
      },
      "ownerOf(uint256)": {
        "notice": "Get the owner of a token."
      },
      "register(address,bool)": {
        "notice": "This function is used to register Land contract on the Operator Filterer Registry of Opensea."
      },
      "safeBatchTransferFrom(address,address,uint256[],bytes)": {
        "notice": "Transfer many tokens between 2 addresses, while ensuring the receiving contract has a receiver method."
      },
      "safeTransferFrom(address,address,uint256)": {
        "notice": "Transfer a token between 2 addresses letting the receiver knows of the transfer"
      },
      "safeTransferFrom(address,address,uint256,bytes)": {
        "notice": "Transfer a token between 2 addresses letting the receiver knows of the transfer"
      },
      "setApprovalForAll(address,bool)": {
        "notice": "Set the approval for an operator to manage all the tokens of the sender"
      },
      "setApprovalForAllFor(address,address,bool)": {
        "notice": "Set the approval for an operator to manage all the tokens of the sender"
      },
      "setMinter(address,bool)": {
        "notice": "Enable or disable the ability of `minter` to transfer tokens of all (minter rights)."
      },
      "setOperatorRegistry(address)": {
        "notice": "sets filter registry address deployed in test"
      },
      "setSuperOperator(address,bool)": {
        "notice": "Enable or disable the ability of `superOperator` to transfer tokens of all (superOperator rights)."
      },
      "supportsInterface(bytes4)": {
        "notice": "Check if the contract supports an interface 0x01ffc9a7 is ERC-165 0x80ac58cd is ERC-721 0x5b5e139f is ERC-721 metadata"
      },
      "symbol()": {
        "notice": "Return the symbol of the token contract"
      },
      "tokenURI(uint256)": {
        "notice": "Return the URI of a specific token"
      },
      "transferFrom(address,address,uint256)": {
        "notice": "Transfer a token between 2 addresses"
      },
      "transferQuad(address,address,uint256,uint256,uint256,bytes)": {
        "notice": "transfer one quad (aligned to a quad tree with size 3, 6, 12 or 24 only)"
      },
      "width()": {
        "notice": "total width of the map"
      }
    },
    "version": 1
  },
  "storageLayout": {
    "storage": [
      {
        "astId": 10217,
        "contract": "src/solc_0.8/polygon/child/land/PolygonLandV2.sol:PolygonLandV2",
        "label": "_initialized",
        "offset": 0,
        "slot": "0",
        "type": "t_bool"
      },
      {
        "astId": 10220,
        "contract": "src/solc_0.8/polygon/child/land/PolygonLandV2.sol:PolygonLandV2",
        "label": "_initializing",
        "offset": 1,
        "slot": "0",
        "type": "t_bool"
      },
      {
        "astId": 12276,
        "contract": "src/solc_0.8/polygon/child/land/PolygonLandV2.sol:PolygonLandV2",
        "label": "__gap",
        "offset": 0,
        "slot": "1",
        "type": "t_array(t_uint256)50_storage"
      },
      {
        "astId": 25799,
        "contract": "src/solc_0.8/polygon/child/land/PolygonLandV2.sol:PolygonLandV2",
        "label": "_admin",
        "offset": 0,
        "slot": "51",
        "type": "t_address"
      },
      {
        "astId": 26204,
        "contract": "src/solc_0.8/polygon/child/land/PolygonLandV2.sol:PolygonLandV2",
        "label": "_superOperators",
        "offset": 0,
        "slot": "52",
        "type": "t_mapping(t_address,t_bool)"
      },
      {
        "astId": 24365,
        "contract": "src/solc_0.8/polygon/child/land/PolygonLandV2.sol:PolygonLandV2",
        "label": "_numNFTPerAddress",
        "offset": 0,
        "slot": "53",
        "type": "t_mapping(t_address,t_uint256)"
      },
      {
        "astId": 24370,
        "contract": "src/solc_0.8/polygon/child/land/PolygonLandV2.sol:PolygonLandV2",
        "label": "_owners",
        "offset": 0,
        "slot": "54",
        "type": "t_mapping(t_uint256,t_uint256)"
      },
      {
        "astId": 24376,
        "contract": "src/solc_0.8/polygon/child/land/PolygonLandV2.sol:PolygonLandV2",
        "label": "_operatorsForAll",
        "offset": 0,
        "slot": "55",
        "type": "t_mapping(t_address,t_mapping(t_address,t_bool))"
      },
      {
        "astId": 24380,
        "contract": "src/solc_0.8/polygon/child/land/PolygonLandV2.sol:PolygonLandV2",
        "label": "_operators",
        "offset": 0,
        "slot": "56",
        "type": "t_mapping(t_uint256,t_address)"
      },
      {
        "astId": 45027,
        "contract": "src/solc_0.8/polygon/child/land/PolygonLandV2.sol:PolygonLandV2",
        "label": "_minters",
        "offset": 0,
        "slot": "57",
        "type": "t_mapping(t_address,t_bool)"
      },
      {
        "astId": 47707,
        "contract": "src/solc_0.8/polygon/child/land/PolygonLandV2.sol:PolygonLandV2",
        "label": "__gap",
        "offset": 0,
        "slot": "58",
        "type": "t_array(t_uint256)49_storage"
      },
      {
        "astId": 22610,
        "contract": "src/solc_0.8/polygon/child/land/PolygonLandV2.sol:PolygonLandV2",
        "label": "_trustedForwarder",
        "offset": 0,
        "slot": "107",
        "type": "t_address"
      },
      {
        "astId": 15630,
        "contract": "src/solc_0.8/polygon/child/land/PolygonLandV2.sol:PolygonLandV2",
        "label": "operatorFilterRegistry",
        "offset": 0,
        "slot": "108",
        "type": "t_contract(IOperatorFilterRegistry)16012"
      }
    ],
    "types": {
      "t_address": {
        "encoding": "inplace",
        "label": "address",
        "numberOfBytes": "20"
      },
      "t_array(t_uint256)49_storage": {
        "base": "t_uint256",
        "encoding": "inplace",
        "label": "uint256[49]",
        "numberOfBytes": "1568"
      },
      "t_array(t_uint256)50_storage": {
        "base": "t_uint256",
        "encoding": "inplace",
        "label": "uint256[50]",
        "numberOfBytes": "1600"
      },
      "t_bool": {
        "encoding": "inplace",
        "label": "bool",
        "numberOfBytes": "1"
      },
      "t_contract(IOperatorFilterRegistry)16012": {
        "encoding": "inplace",
        "label": "contract IOperatorFilterRegistry",
        "numberOfBytes": "20"
      },
      "t_mapping(t_address,t_bool)": {
        "encoding": "mapping",
        "key": "t_address",
        "label": "mapping(address => bool)",
        "numberOfBytes": "32",
        "value": "t_bool"
      },
      "t_mapping(t_address,t_mapping(t_address,t_bool))": {
        "encoding": "mapping",
        "key": "t_address",
        "label": "mapping(address => mapping(address => bool))",
        "numberOfBytes": "32",
        "value": "t_mapping(t_address,t_bool)"
      },
      "t_mapping(t_address,t_uint256)": {
        "encoding": "mapping",
        "key": "t_address",
        "label": "mapping(address => uint256)",
        "numberOfBytes": "32",
        "value": "t_uint256"
      },
      "t_mapping(t_uint256,t_address)": {
        "encoding": "mapping",
        "key": "t_uint256",
        "label": "mapping(uint256 => address)",
        "numberOfBytes": "32",
        "value": "t_address"
      },
      "t_mapping(t_uint256,t_uint256)": {
        "encoding": "mapping",
        "key": "t_uint256",
        "label": "mapping(uint256 => uint256)",
        "numberOfBytes": "32",
        "value": "t_uint256"
      },
      "t_uint256": {
        "encoding": "inplace",
        "label": "uint256",
        "numberOfBytes": "32"
      }
    }
  }
}