{
  "address": "0x02Dc1129bA01dBb6ED92e8f819Fa92530eb55A7e",
  "abi": [
    {
      "inputs": [
        {
          "internalType": "address",
          "name": "landAddress",
          "type": "address"
        },
        {
          "internalType": "address",
          "name": "sandContractAddress",
          "type": "address"
        },
        {
          "internalType": "address",
          "name": "initialMetaTx",
          "type": "address"
        },
        {
          "internalType": "address",
          "name": "admin",
          "type": "address"
        },
        {
          "internalType": "address payable",
          "name": "initialWalletAddress",
          "type": "address"
        },
        {
          "internalType": "bytes32",
          "name": "merkleRoot",
          "type": "bytes32"
        },
        {
          "internalType": "uint256",
          "name": "expiryTime",
          "type": "uint256"
        },
        {
          "internalType": "address",
          "name": "initialSigningWallet",
          "type": "address"
        },
        {
          "internalType": "uint256",
          "name": "initialMaxCommissionRate",
          "type": "uint256"
        },
        {
          "internalType": "address",
          "name": "estate",
          "type": "address"
        },
        {
          "internalType": "address",
          "name": "asset",
          "type": "address"
        },
        {
          "internalType": "address",
          "name": "feeDistributor",
          "type": "address"
        },
        {
          "internalType": "address",
          "name": "authValidator",
          "type": "address"
        }
      ],
      "stateMutability": "nonpayable",
      "type": "constructor"
    },
    {
      "anonymous": false,
      "inputs": [
        {
          "indexed": false,
          "internalType": "address",
          "name": "oldAdmin",
          "type": "address"
        },
        {
          "indexed": false,
          "internalType": "address",
          "name": "newAdmin",
          "type": "address"
        }
      ],
      "name": "AdminChanged",
      "type": "event"
    },
    {
      "anonymous": false,
      "inputs": [
        {
          "indexed": true,
          "internalType": "address",
          "name": "buyer",
          "type": "address"
        },
        {
          "indexed": true,
          "internalType": "address",
          "name": "to",
          "type": "address"
        },
        {
          "indexed": true,
          "internalType": "uint256",
          "name": "topCornerId",
          "type": "uint256"
        },
        {
          "indexed": false,
          "internalType": "uint256",
          "name": "size",
          "type": "uint256"
        },
        {
          "indexed": false,
          "internalType": "uint256",
          "name": "price",
          "type": "uint256"
        },
        {
          "indexed": false,
          "internalType": "address",
          "name": "token",
          "type": "address"
        },
        {
          "indexed": false,
          "internalType": "uint256",
          "name": "amountPaid",
          "type": "uint256"
        }
      ],
      "name": "LandQuadPurchased",
      "type": "event"
    },
    {
      "anonymous": false,
      "inputs": [
        {
          "indexed": true,
          "internalType": "uint256",
          "name": "newMaxCommissionRate",
          "type": "uint256"
        }
      ],
      "name": "MaxCommissionRateUpdated",
      "type": "event"
    },
    {
      "anonymous": false,
      "inputs": [
        {
          "indexed": false,
          "internalType": "address",
          "name": "metaTransactionProcessor",
          "type": "address"
        },
        {
          "indexed": false,
          "internalType": "bool",
          "name": "enabled",
          "type": "bool"
        }
      ],
      "name": "MetaTransactionProcessor",
      "type": "event"
    },
    {
      "anonymous": false,
      "inputs": [
        {
          "indexed": true,
          "internalType": "address",
          "name": "newWallet",
          "type": "address"
        }
      ],
      "name": "NewReceivingWallet",
      "type": "event"
    },
    {
      "anonymous": false,
      "inputs": [
        {
          "indexed": true,
          "internalType": "address",
          "name": "referrer",
          "type": "address"
        },
        {
          "indexed": true,
          "internalType": "address",
          "name": "referee",
          "type": "address"
        },
        {
          "indexed": true,
          "internalType": "address",
          "name": "token",
          "type": "address"
        },
        {
          "indexed": false,
          "internalType": "uint256",
          "name": "amount",
          "type": "uint256"
        },
        {
          "indexed": false,
          "internalType": "uint256",
          "name": "commission",
          "type": "uint256"
        },
        {
          "indexed": false,
          "internalType": "uint256",
          "name": "commissionRate",
          "type": "uint256"
        }
      ],
      "name": "ReferralUsed",
      "type": "event"
    },
    {
      "anonymous": false,
      "inputs": [
        {
          "indexed": true,
          "internalType": "address",
          "name": "newSigningWallet",
          "type": "address"
        }
      ],
      "name": "SigningWalletUpdated",
      "type": "event"
    },
    {
      "inputs": [
        {
          "internalType": "address",
          "name": "buyer",
          "type": "address"
        },
        {
          "internalType": "address",
          "name": "to",
          "type": "address"
        },
        {
          "internalType": "address",
          "name": "reserved",
          "type": "address"
        },
        {
          "internalType": "uint256[]",
          "name": "info",
          "type": "uint256[]"
        },
        {
          "internalType": "bytes32",
          "name": "salt",
          "type": "bytes32"
        },
        {
          "internalType": "uint256[]",
          "name": "assetIds",
          "type": "uint256[]"
        },
        {
          "internalType": "bytes32[]",
          "name": "proof",
          "type": "bytes32[]"
        },
        {
          "internalType": "bytes",
          "name": "referral",
          "type": "bytes"
        },
        {
          "internalType": "bytes",
          "name": "signature",
          "type": "bytes"
        }
      ],
      "name": "buyLandWithSand",
      "outputs": [],
      "stateMutability": "nonpayable",
      "type": "function"
    },
    {
      "inputs": [
        {
          "internalType": "address",
          "name": "newAdmin",
          "type": "address"
        }
      ],
      "name": "changeAdmin",
      "outputs": [],
      "stateMutability": "nonpayable",
      "type": "function"
    },
    {
      "inputs": [
        {
          "internalType": "bytes",
          "name": "referral",
          "type": "bytes"
        }
      ],
      "name": "decodeReferral",
      "outputs": [
        {
          "internalType": "bytes",
          "name": "",
          "type": "bytes"
        },
        {
          "internalType": "address",
          "name": "",
          "type": "address"
        },
        {
          "internalType": "address",
          "name": "",
          "type": "address"
        },
        {
          "internalType": "uint256",
          "name": "",
          "type": "uint256"
        },
        {
          "internalType": "uint256",
          "name": "",
          "type": "uint256"
        }
      ],
      "stateMutability": "pure",
      "type": "function"
    },
    {
      "inputs": [
        {
          "internalType": "address",
          "name": "disableWallet",
          "type": "address"
        }
      ],
      "name": "disablePreviousSigningWallet",
      "outputs": [],
      "stateMutability": "nonpayable",
      "type": "function"
    },
    {
      "inputs": [],
      "name": "getAdmin",
      "outputs": [
        {
          "internalType": "address",
          "name": "",
          "type": "address"
        }
      ],
      "stateMutability": "view",
      "type": "function"
    },
    {
      "inputs": [],
      "name": "getExpiryTime",
      "outputs": [
        {
          "internalType": "uint256",
          "name": "",
          "type": "uint256"
        }
      ],
      "stateMutability": "view",
      "type": "function"
    },
    {
      "inputs": [],
      "name": "getMaxCommissionRate",
      "outputs": [
        {
          "internalType": "uint256",
          "name": "",
          "type": "uint256"
        }
      ],
      "stateMutability": "view",
      "type": "function"
    },
    {
      "inputs": [],
      "name": "getMerkleRoot",
      "outputs": [
        {
          "internalType": "bytes32",
          "name": "",
          "type": "bytes32"
        }
      ],
      "stateMutability": "view",
      "type": "function"
    },
    {
      "inputs": [],
      "name": "getSigningWallet",
      "outputs": [
        {
          "internalType": "address",
          "name": "",
          "type": "address"
        }
      ],
      "stateMutability": "view",
      "type": "function"
    },
    {
      "inputs": [
        {
          "internalType": "address",
          "name": "who",
          "type": "address"
        }
      ],
      "name": "isMetaTransactionProcessor",
      "outputs": [
        {
          "internalType": "bool",
          "name": "",
          "type": "bool"
        }
      ],
      "stateMutability": "view",
      "type": "function"
    },
    {
      "inputs": [
        {
          "internalType": "bytes",
          "name": "signature",
          "type": "bytes"
        },
        {
          "internalType": "address",
          "name": "referrer",
          "type": "address"
        },
        {
          "internalType": "address",
          "name": "referee",
          "type": "address"
        },
        {
          "internalType": "uint256",
          "name": "expiryTime",
          "type": "uint256"
        },
        {
          "internalType": "uint256",
          "name": "commissionRate",
          "type": "uint256"
        }
      ],
      "name": "isReferralValid",
      "outputs": [
        {
          "internalType": "bool",
          "name": "",
          "type": "bool"
        }
      ],
      "stateMutability": "view",
      "type": "function"
    },
    {
      "inputs": [
        {
          "internalType": "address",
          "name": "",
          "type": "address"
        },
        {
          "internalType": "address",
          "name": "",
          "type": "address"
        },
        {
          "internalType": "uint256[]",
          "name": "",
          "type": "uint256[]"
        },
        {
          "internalType": "uint256[]",
          "name": "",
          "type": "uint256[]"
        },
        {
          "internalType": "bytes",
          "name": "",
          "type": "bytes"
        }
      ],
      "name": "onERC1155BatchReceived",
      "outputs": [
        {
          "internalType": "bytes4",
          "name": "",
          "type": "bytes4"
        }
      ],
      "stateMutability": "pure",
      "type": "function"
    },
    {
      "inputs": [
        {
          "internalType": "address",
          "name": "",
          "type": "address"
        },
        {
          "internalType": "address",
          "name": "",
          "type": "address"
        },
        {
          "internalType": "uint256",
          "name": "",
          "type": "uint256"
        },
        {
          "internalType": "uint256",
          "name": "",
          "type": "uint256"
        },
        {
          "internalType": "bytes",
          "name": "",
          "type": "bytes"
        }
      ],
      "name": "onERC1155Received",
      "outputs": [
        {
          "internalType": "bytes4",
          "name": "",
          "type": "bytes4"
        }
      ],
      "stateMutability": "pure",
      "type": "function"
    },
    {
      "inputs": [
        {
          "internalType": "address",
          "name": "metaTransactionProcessor",
          "type": "address"
        },
        {
          "internalType": "bool",
          "name": "enabled",
          "type": "bool"
        }
      ],
      "name": "setMetaTransactionProcessor",
      "outputs": [],
      "stateMutability": "nonpayable",
      "type": "function"
    },
    {
      "inputs": [
        {
          "internalType": "address payable",
          "name": "newWallet",
          "type": "address"
        }
      ],
      "name": "setReceivingWallet",
      "outputs": [],
      "stateMutability": "nonpayable",
      "type": "function"
    },
    {
      "inputs": [
        {
          "internalType": "uint256",
          "name": "newMaxCommissionRate",
          "type": "uint256"
        }
      ],
      "name": "updateMaxCommissionRate",
      "outputs": [],
      "stateMutability": "nonpayable",
      "type": "function"
    },
    {
      "inputs": [
        {
          "internalType": "address",
          "name": "newSigningWallet",
          "type": "address"
        }
      ],
      "name": "updateSigningWallet",
      "outputs": [],
      "stateMutability": "nonpayable",
      "type": "function"
    },
    {
      "inputs": [
        {
          "internalType": "address",
          "name": "to",
          "type": "address"
        },
        {
          "internalType": "uint256[]",
          "name": "assetIds",
          "type": "uint256[]"
        },
        {
          "internalType": "uint256[]",
          "name": "values",
          "type": "uint256[]"
        }
      ],
      "name": "withdrawAssets",
      "outputs": [],
      "stateMutability": "nonpayable",
      "type": "function"
    }
  ],
  "transactionHash": "0x1cc89940b495184a026362984f4dd0a2c01acca3dd38b38f86e1d66f395fa628",
  "args": [
    "0xEdE111C053616a91975488F8aB3B51382A32979b",
    "0xD20fbd836e80DabFb777E6AaBbe52e96c07eCD1B",
    "0xD20fbd836e80DabFb777E6AaBbe52e96c07eCD1B",
    "0x49c4D4C94829B9c44052C5f5Cb164Fc612181165",
    "0xa5Eb9C9Eb4F4c35B9Be8cFaAA7909F9ebe6Cb609",
    "0xc7604221fd4344e919675f311ccc18860ba11af8a23e105d78cb8ef1b9c95b19",
    1764590400,
    "0xB7060D3FeCAC3AE1F0A0AA416E3e8E472257950e",
    2000,
    "0x0000000000000000000000000000000000000000",
    "0x2D0f3dfe9B7e86b36d188A3AAdE83898d4BeE7a2",
    "0xAc3ff31f526Af7f386ea43649e3fa67e329AeF93",
    "0x34C87E3A9eD80D50a146C1833043265221c5Abd2"
  ],
  "numDeployments": 1,
  "linkedData": [
    {
      "x": 180,
      "y": 51,
      "size": 1,
      "price": "1011000000000000000000",
      "reserved": "",
      "salt": "0x2c1c47b235a2e3eda15b259b8bdcab7baa2047d6d80c7d9160fc7653955a2b38",
      "assetIds": []
    },
    {
      "x": 180,
      "y": 52,
      "size": 1,
      "price": "1011000000000000000000",
      "reserved": "",
      "salt": "0xb8b2924c64f2327221029e93eb39a45b7fd971123e65b4d1d57fc158dc47a89e",
      "assetIds": []
    },
    {
      "x": 180,
      "y": 53,
      "size": 1,
      "price": "1011000000000000000000",
      "reserved": "",
      "salt": "0x4a6a1c307d4a783002d6385950cb0e9c7782ee0ba8093145fdaa9e251616bb07",
      "assetIds": []
    },
    {
      "x": 181,
      "y": 51,
      "size": 1,
      "price": "1011000000000000000000",
      "reserved": "",
      "salt": "0x45279ef47a92afd90a3a730c28f6fb9c2641c85dc935a6d31d77f1c6a287bb5d",
      "assetIds": []
    },
    {
      "x": 181,
      "y": 52,
      "size": 1,
      "price": "1011000000000000000000",
      "reserved": "",
      "salt": "0xf0ae80ba0cb9699e11e23ba2086d3c278ba73c9b95134fa53584029d04a25221",
      "assetIds": []
    },
    {
      "x": 181,
      "y": 53,
      "size": 1,
      "price": "1011000000000000000000",
      "reserved": "",
      "salt": "0xfd009cb732d7b59b5956a3c0eea3726cf21b9103c30cc9f894cbcc9d8983c09c",
      "assetIds": []
    },
    {
      "x": 182,
      "y": 51,
      "size": 1,
      "price": "1011000000000000000000",
      "reserved": "",
      "salt": "0x40021edc16b05ca2aee92edd20bdbb8b3eb13fa3b2799008650a24bfd289496b",
      "assetIds": []
    },
    {
      "x": 182,
      "y": 52,
      "size": 1,
      "price": "1011000000000000000000",
      "reserved": "0x7a9fe22691c811ea339d9b73150e6911a5343dca",
      "salt": "0xe34e3a8d5a258b573f407ea15b49b12769398b26ac3319cd5e2e41f766ffb638",
      "assetIds": []
    },
    {
      "x": 182,
      "y": 53,
      "size": 1,
      "price": "1011000000000000000000",
      "reserved": "",
      "salt": "0x84c4c5908099f5d1e711f959128d46b71dba10b7d3baea8649e548bb606d4715",
      "assetIds": []
    },
    {
      "x": 183,
      "y": 48,
      "size": 1,
      "price": "1011000000000000000000",
      "reserved": "",
      "salt": "0x4dad9ae7e5ff723665acc2e2a0ee21d9da6a29ef3b6eb2af318d9af0b260fd2d",
      "assetIds": []
    },
    {
      "x": 183,
      "y": 49,
      "size": 1,
      "price": "1011000000000000000000",
      "reserved": "",
      "salt": "0xa1f96b51af10130af23f460e123f7ecb496a5ab6ca9f06d00ca032b03070e34b",
      "assetIds": []
    },
    {
      "x": 183,
      "y": 50,
      "size": 1,
      "price": "1011000000000000000000",
      "reserved": "",
      "salt": "0x6f0b759410d16c91b03642110caf3e587e6e05ede5f33dceedbb83bef72b8c94",
      "assetIds": []
    },
    {
      "x": 183,
      "y": 51,
      "size": 1,
      "price": "1011000000000000000000",
      "reserved": "",
      "salt": "0x70f1ebcd9b58d59600f7dc8f123e5faab54676f5fe19e13fab3e1f5b0d5249a9",
      "assetIds": []
    },
    {
      "x": 183,
      "y": 52,
      "size": 1,
      "price": "1011000000000000000000",
      "reserved": "",
      "salt": "0xc5262f67e3f31040424abce031d1a35eab8ea48cf421203c4e1e1f0e220cfa4d",
      "assetIds": []
    },
    {
      "x": 183,
      "y": 53,
      "size": 1,
      "price": "1011000000000000000000",
      "reserved": "",
      "salt": "0x37e3136fbe7279302214ff6c4e295b410ba2f378f49aa6b7f3b635348deb2682",
      "assetIds": []
    },
    {
      "x": 184,
      "y": 48,
      "size": 1,
      "price": "1011000000000000000000",
      "reserved": "",
      "salt": "0xdc7750468fc9e052880b7a2e4de35050a719153a694554e52c29fa5664e00299",
      "assetIds": []
    },
    {
      "x": 184,
      "y": 49,
      "size": 1,
      "price": "1011000000000000000000",
      "reserved": "",
      "salt": "0x875c02452ace99fe96ba1551e73d3fad6ddf0da693fc883cd442bd159b674943",
      "assetIds": []
    },
    {
      "x": 184,
      "y": 50,
      "size": 1,
      "price": "1011000000000000000000",
      "reserved": "",
      "salt": "0x9ce67cf82a2c89c3abceec9f37a4b98b8105b064fecd4e5cee0f73e82abe8ca4",
      "assetIds": []
    },
    {
      "x": 184,
      "y": 51,
      "size": 1,
      "price": "1011000000000000000000",
      "reserved": "",
      "salt": "0x6c0baa2c1a2645f539009e1efcbeab9a17e23399aaf1c047883df6bcb73abdf5",
      "assetIds": []
    },
    {
      "x": 184,
      "y": 52,
      "size": 1,
      "price": "1011000000000000000000",
      "reserved": "",
      "salt": "0x2b61fec8d1a1e482bfa539c9b9039026ecc9608b27550be10983b6583f063bff",
      "assetIds": []
    },
    {
      "x": 184,
      "y": 53,
      "size": 1,
      "price": "1011000000000000000000",
      "reserved": "",
      "salt": "0xabacdf3c6f427e3c7de98bb6da03c1e7318c7f2f49308f5b42c46a8fbb30039c",
      "assetIds": []
    },
    {
      "x": 185,
      "y": 51,
      "size": 1,
      "price": "1011000000000000000000",
      "reserved": "",
      "salt": "0xa2a503618d904a952f4775b1ad4b8b068ff07ed849718d4b1b5b7d45739dfd18",
      "assetIds": []
    },
    {
      "x": 185,
      "y": 52,
      "size": 1,
      "price": "1011000000000000000000",
      "reserved": "0x7a9fe22691c811ea339d9b73150e6911a5343dca",
      "salt": "0x726177f765359ce7d8dd42a3650c8c967d7750b7ce376cf10d74d6186b7db765",
      "assetIds": []
    },
    {
      "x": 185,
      "y": 53,
      "size": 1,
      "price": "1011000000000000000000",
      "reserved": "",
      "salt": "0x3716b72af5cfa0650532330e229169d1edd52498878161344e2d09c2ed726c90",
      "assetIds": []
    },
    {
      "x": 186,
      "y": 51,
      "size": 1,
      "price": "1011000000000000000000",
      "reserved": "",
      "salt": "0x52595fd8183f94bff71e2cef54551c1b5d1068a4034c228c1202f25f0d8dd0e9",
      "assetIds": []
    },
    {
      "x": 186,
      "y": 52,
      "size": 1,
      "price": "1011000000000000000000",
      "reserved": "",
      "salt": "0x8f777b1865516f839f26835c036cf41f11d80fd6e37870eab5f48f1a2fee67c3",
      "assetIds": []
    },
    {
      "x": 186,
      "y": 53,
      "size": 1,
      "price": "1011000000000000000000",
      "reserved": "",
      "salt": "0x4f72fc0d3af7f3d963c8a0695bbff666f7123e9c7c1c1f4578bc9dfe7a128856",
      "assetIds": []
    },
    {
      "x": 187,
      "y": 52,
      "size": 1,
      "price": "1011000000000000000000",
      "reserved": "",
      "salt": "0x163abae9160f04a89057fc2d4229f8cc8488cb54c2350d45b90a6d1f94819146",
      "assetIds": []
    },
    {
      "x": 187,
      "y": 53,
      "size": 1,
      "price": "1011000000000000000000",
      "reserved": "",
      "salt": "0xc9df3dec99a3962c1338127c3522e74fa9182ee366b3e3f839714e1e0eb410cd",
      "assetIds": []
    },
    {
      "x": 188,
      "y": 52,
      "size": 1,
      "price": "1011000000000000000000",
      "reserved": "",
      "salt": "0x4f39d8c49becf74c35f4cc2e32c48b755eca81289cff269bdea14377dddc20fa",
      "assetIds": []
    },
    {
      "x": 188,
      "y": 53,
      "size": 1,
      "price": "1011000000000000000000",
      "reserved": "",
      "salt": "0xa969d4f922f2f20e3550583f3b09766de21c25ed06c33bc4504c47824dd220a2",
      "assetIds": []
    },
    {
      "x": 189,
      "y": 33,
      "size": 1,
      "price": "1011000000000000000000",
      "reserved": "",
      "salt": "0x0bfbd2b8da3e75349a177a45660719235b22b070a9b421690f63b4e0351474eb",
      "assetIds": []
    },
    {
      "x": 189,
      "y": 34,
      "size": 1,
      "price": "1011000000000000000000",
      "reserved": "",
      "salt": "0x193b7ed2543460c42fb44217c31de6c2ca8a70568516938643d38d0e06bf625d",
      "assetIds": []
    },
    {
      "x": 189,
      "y": 35,
      "size": 1,
      "price": "1011000000000000000000",
      "reserved": "",
      "salt": "0x6ad2ddbff2edbf490a2dbf1b4a9068105b53a0b07a3ad150a43c4d9208f8d102",
      "assetIds": []
    },
    {
      "x": 189,
      "y": 39,
      "size": 1,
      "price": "1011000000000000000000",
      "reserved": "",
      "salt": "0x80330ab82f322f71a9871122da7c7f4593e83b831f6256b50fa9d097df60a473",
      "assetIds": []
    },
    {
      "x": 189,
      "y": 40,
      "size": 1,
      "price": "1011000000000000000000",
      "reserved": "",
      "salt": "0xe16c6d0f448fbaa1787facddc8f49a79b523875bb03020ec9dc2a7cb3cb2de70",
      "assetIds": []
    },
    {
      "x": 189,
      "y": 41,
      "size": 1,
      "price": "1011000000000000000000",
      "reserved": "0x7a9fe22691c811ea339d9b73150e6911a5343dca",
      "salt": "0x7e0e2116994993125727bcac7f609660923e84589f387335fc062edc33c6dde2",
      "assetIds": []
    },
    {
      "x": 189,
      "y": 42,
      "size": 1,
      "price": "1011000000000000000000",
      "reserved": "",
      "salt": "0x4c75bff2c27677895b401c12f39be24e0a2eb33a17cc0ec78d8f9b4cc1133dae",
      "assetIds": []
    },
    {
      "x": 189,
      "y": 43,
      "size": 1,
      "price": "1011000000000000000000",
      "reserved": "",
      "salt": "0x754c178ee81600bda56d7fd0fa185f57ea5ce73b255f7dd7945d4c748ad86a84",
      "assetIds": []
    },
    {
      "x": 189,
      "y": 44,
      "size": 1,
      "price": "1011000000000000000000",
      "reserved": "",
      "salt": "0xd72048a788e81eb1e5f4867111b995fcafcc5eb11ff7b646c19bd35c0c281b47",
      "assetIds": []
    },
    {
      "x": 189,
      "y": 45,
      "size": 1,
      "price": "1011000000000000000000",
      "reserved": "",
      "salt": "0x30d57fd31c80f0de913a56b757f54e273dc58db04e5560660c2108943f15e2f9",
      "assetIds": []
    },
    {
      "x": 189,
      "y": 46,
      "size": 1,
      "price": "1011000000000000000000",
      "reserved": "",
      "salt": "0x802f305b83809d446f4fe50545cfdfbc5d2d6ad3110e65e619ec1de60b73c527",
      "assetIds": []
    },
    {
      "x": 189,
      "y": 47,
      "size": 1,
      "price": "1011000000000000000000",
      "reserved": "",
      "salt": "0xc8ccef19c12fa08b68e2a0827f934fade90a0dbf5840a93176063e67b2f185d2",
      "assetIds": []
    },
    {
      "x": 189,
      "y": 51,
      "size": 1,
      "price": "1011000000000000000000",
      "reserved": "",
      "salt": "0x4cca45fe7fedc179545f3a44efabe9dc5d8fb14cea279ab37bc04b2d10b69de2",
      "assetIds": []
    },
    {
      "x": 189,
      "y": 52,
      "size": 1,
      "price": "1011000000000000000000",
      "reserved": "",
      "salt": "0x8077050cdcdb015974488d6511c3d899abb8d532e7f49132d1fd8c08f4cf5869",
      "assetIds": []
    },
    {
      "x": 189,
      "y": 53,
      "size": 1,
      "price": "1011000000000000000000",
      "reserved": "",
      "salt": "0x461cfaba2c3eebb9caa81341ff2791e7b98a0da1d1dd69d57f1a39619297bd90",
      "assetIds": []
    },
    {
      "x": 190,
      "y": 33,
      "size": 1,
      "price": "1011000000000000000000",
      "reserved": "",
      "salt": "0xcadeab9a096fe68e6957844139ffa640aa884bd2ca5d5b020af32f3dcd8c33f7",
      "assetIds": []
    },
    {
      "x": 190,
      "y": 34,
      "size": 1,
      "price": "1011000000000000000000",
      "reserved": "0x7a9fe22691c811ea339d9b73150e6911a5343dca",
      "salt": "0x7dae032bdf89cc27de4b30968138560f5764773a08ccb87fdc6040e4abcebc2d",
      "assetIds": []
    },
    {
      "x": 190,
      "y": 35,
      "size": 1,
      "price": "1011000000000000000000",
      "reserved": "",
      "salt": "0x80d3007dc8585d7d2ad316c9ee64436cd09a9abd6472b9f9fc88d54dfb3478f9",
      "assetIds": []
    },
    {
      "x": 190,
      "y": 39,
      "size": 1,
      "price": "1011000000000000000000",
      "reserved": "",
      "salt": "0x2b4b7c25787a62322399e053894ecc3d267d737a8986920dc24e87bb436ee119",
      "assetIds": []
    },
    {
      "x": 190,
      "y": 40,
      "size": 1,
      "price": "1011000000000000000000",
      "reserved": "",
      "salt": "0xf17c58317e4fcc0c4703deb9849b214564959d276502c59fc29794eb5bfb655b",
      "assetIds": []
    },
    {
      "x": 190,
      "y": 41,
      "size": 1,
      "price": "1011000000000000000000",
      "reserved": "",
      "salt": "0x11a5808e19b5ee6dec4e89106b6e5eb2cf34dd5cda5b9eaab9f4ff99ee5dc6b9",
      "assetIds": []
    },
    {
      "x": 190,
      "y": 42,
      "size": 1,
      "price": "1011000000000000000000",
      "reserved": "",
      "salt": "0x4c81c10cf685f4f75d51db308dc3687628f324f15837e368d002fdc4b3fed3cc",
      "assetIds": []
    },
    {
      "x": 190,
      "y": 43,
      "size": 1,
      "price": "1011000000000000000000",
      "reserved": "",
      "salt": "0xc2823a4c82507d97b9791b1e7a82c8480b13a91747c2dcd25e0204f9898bc8ff",
      "assetIds": []
    },
    {
      "x": 190,
      "y": 44,
      "size": 1,
      "price": "1011000000000000000000",
      "reserved": "",
      "salt": "0x20114ffd24a156a03cd22a923736bd66705f62fb37d53b6336a0daab2482bc29",
      "assetIds": []
    },
    {
      "x": 190,
      "y": 45,
      "size": 1,
      "price": "1011000000000000000000",
      "reserved": "",
      "salt": "0x72639a85519848f3031fa2445af569c3f911aabfc8968f1554958ab5c7ebf021",
      "assetIds": []
    },
    {
      "x": 190,
      "y": 46,
      "size": 1,
      "price": "1011000000000000000000",
      "reserved": "",
      "salt": "0x12d940a990098817f509cb98e33426ad379589614bf24621cb1ca2c2d43da939",
      "assetIds": []
    },
    {
      "x": 190,
      "y": 47,
      "size": 1,
      "price": "1011000000000000000000",
      "reserved": "",
      "salt": "0xe7f343fa822fb6028a19a3e541ee0ce1fffee27ac459cc3505c0d9d5c58221e3",
      "assetIds": []
    },
    {
      "x": 190,
      "y": 51,
      "size": 1,
      "price": "1011000000000000000000",
      "reserved": "",
      "salt": "0xa038762c2600eeabbe33d9c7a838609e0adae87b7c06aebd41124b14f62e66bf",
      "assetIds": []
    },
    {
      "x": 190,
      "y": 52,
      "size": 1,
      "price": "1011000000000000000000",
      "reserved": "",
      "salt": "0x89ec91a45a8378721f58305cb9ead7dadc81026455256fbc4d15785c7d1b9a9c",
      "assetIds": []
    },
    {
      "x": 190,
      "y": 53,
      "size": 1,
      "price": "1011000000000000000000",
      "reserved": "",
      "salt": "0xaa9a5a47be729c6836bf7d50b7ce2b64b2c279f08e4725d096b562e4fd4f11e3",
      "assetIds": []
    },
    {
      "x": 191,
      "y": 33,
      "size": 1,
      "price": "1011000000000000000000",
      "reserved": "",
      "salt": "0xd66346c2a1601abf4b89945c2f1423a939da9146f6fd6d4e5eb230e45c2a9b58",
      "assetIds": []
    },
    {
      "x": 191,
      "y": 34,
      "size": 1,
      "price": "1011000000000000000000",
      "reserved": "",
      "salt": "0xfac2aff55a2b8ea7f147045c6e41b7faf57c4d6b460a910d807f50895b11f2c0",
      "assetIds": []
    },
    {
      "x": 191,
      "y": 35,
      "size": 1,
      "price": "1011000000000000000000",
      "reserved": "",
      "salt": "0x87d675ff9085b49b8036bfa09bc8f67a35bafb47154e1ed6e6da95e8813cd131",
      "assetIds": []
    },
    {
      "x": 191,
      "y": 40,
      "size": 1,
      "price": "4683000000000000000000",
      "reserved": "",
      "salt": "0x34ef0664f1424a9f77b8046cfa6006f74d9a91eeda198b2b52dda0fbf0830eb7",
      "assetIds": []
    },
    {
      "x": 191,
      "y": 42,
      "size": 1,
      "price": "4683000000000000000000",
      "reserved": "",
      "salt": "0x22b424ecc8de15639dbe48282068c3116611a77e8635cdf38386ffb617fd2d02",
      "assetIds": []
    },
    {
      "x": 191,
      "y": 44,
      "size": 1,
      "price": "4683000000000000000000",
      "reserved": "",
      "salt": "0x976248be0f47b7614a8f09b49fb22e11134fa3853ee0a42053e2e7b8f3eb6a10",
      "assetIds": []
    },
    {
      "x": 191,
      "y": 46,
      "size": 1,
      "price": "4683000000000000000000",
      "reserved": "",
      "salt": "0x2f093ad74fa2d26ac9f0f8c764a4f4acd67ba993b0485bcf69a6e2ee0812c22f",
      "assetIds": []
    },
    {
      "x": 191,
      "y": 51,
      "size": 1,
      "price": "1011000000000000000000",
      "reserved": "",
      "salt": "0x972e91a0255ab3305358bb9660e696a3b2bcc284583b1910e4a57df7b3b29c8c",
      "assetIds": []
    },
    {
      "x": 191,
      "y": 52,
      "size": 1,
      "price": "1011000000000000000000",
      "reserved": "",
      "salt": "0x52d5acb683b3cf6a6379710e36774681613890d8e09f851cacdc8e64133246fb",
      "assetIds": []
    },
    {
      "x": 191,
      "y": 53,
      "size": 1,
      "price": "1011000000000000000000",
      "reserved": "",
      "salt": "0x480692f9cd5ca4fb342f032112e23ff4638c3e9cfdcafd33c47da24c5b821e67",
      "assetIds": []
    },
    {
      "x": 192,
      "y": 33,
      "size": 1,
      "price": "1011000000000000000000",
      "reserved": "",
      "salt": "0x2450865be3ab9f4c3e49e29b866fa1941e7b2cb3f935d2cbe1555876741a7a23",
      "assetIds": []
    },
    {
      "x": 192,
      "y": 34,
      "size": 1,
      "price": "1011000000000000000000",
      "reserved": "",
      "salt": "0x8a9ef9f596bbe918df8dfab175152cc5272d3f6152423bfb8a8ff442b0453ecf",
      "assetIds": []
    },
    {
      "x": 192,
      "y": 35,
      "size": 1,
      "price": "4683000000000000000000",
      "reserved": "",
      "salt": "0x350e588e45d4b664eade198445d88df2cf99d190dd2d5a2244b708ba37964d37",
      "assetIds": []
    },
    {
      "x": 193,
      "y": 33,
      "size": 1,
      "price": "1011000000000000000000",
      "reserved": "",
      "salt": "0x7c1a13319a612c267840c714c7115e2c76259e5f629b21e24f855a0c345a5b4b",
      "assetIds": []
    },
    {
      "x": 193,
      "y": 34,
      "size": 1,
      "price": "1011000000000000000000",
      "reserved": "0x7a9fe22691c811ea339d9b73150e6911a5343dca",
      "salt": "0xdf0995e77c5992203877a50bac4dda095467e75fd0d88ef026771acf91a75bf5",
      "assetIds": []
    },
    {
      "x": 193,
      "y": 35,
      "size": 1,
      "price": "4683000000000000000000",
      "reserved": "",
      "salt": "0x63d1917c3169bed1d2d00f983a4db3181e7f089621a3a4d5936ad916437b20df",
      "assetIds": []
    },
    {
      "x": 194,
      "y": 33,
      "size": 1,
      "price": "1011000000000000000000",
      "reserved": "",
      "salt": "0x53b45324ac004847f0653dc0907ee00b281d7740c8de5014c10bb746c13670da",
      "assetIds": []
    },
    {
      "x": 194,
      "y": 34,
      "size": 1,
      "price": "1011000000000000000000",
      "reserved": "",
      "salt": "0xe1cbffdb35e4197d6147069ed4d533748d0a8f9d393fad23946ac11fb1e3d1d1",
      "assetIds": []
    },
    {
      "x": 194,
      "y": 35,
      "size": 1,
      "price": "1011000000000000000000",
      "reserved": "",
      "salt": "0x2d2e4882dd9e0ae9649bb1c6955eeb255e274dd8f2c9262947aa3a8d065dad32",
      "assetIds": []
    },
    {
      "x": 195,
      "y": 33,
      "size": 1,
      "price": "1011000000000000000000",
      "reserved": "",
      "salt": "0xb3718a395f4e443b6e66027f01b2bc5d60dfe5abe30e54a84bbb98c95a68b197",
      "assetIds": []
    },
    {
      "x": 195,
      "y": 34,
      "size": 1,
      "price": "1011000000000000000000",
      "reserved": "",
      "salt": "0x5cb1113817c18737b3aba64273c0acbd1ee9a12a729273cfdcd57c4f45257737",
      "assetIds": []
    },
    {
      "x": 195,
      "y": 35,
      "size": 1,
      "price": "4683000000000000000000",
      "reserved": "",
      "salt": "0xc5f411f56c8872a8f75057323406072d8b33f8ba2e1e71a0113c75ffa13b2dc1",
      "assetIds": []
    },
    {
      "x": 196,
      "y": 33,
      "size": 1,
      "price": "1011000000000000000000",
      "reserved": "",
      "salt": "0x4e1534cbc083ceb7791520ea940168498ff1e498b0aed11ff632e03fbb0acc6a",
      "assetIds": []
    },
    {
      "x": 196,
      "y": 34,
      "size": 1,
      "price": "1011000000000000000000",
      "reserved": "0x7a9fe22691c811ea339d9b73150e6911a5343dca",
      "salt": "0xd49c406e39438b626797750564a1f07019ffd53fa1a88c00f5ac6848efdb6985",
      "assetIds": []
    },
    {
      "x": 196,
      "y": 35,
      "size": 1,
      "price": "4683000000000000000000",
      "reserved": "",
      "salt": "0x84a1c90a1d846a429c7f6eabe9b3325620462665f81dc70cd6d9f969356cc159",
      "assetIds": []
    },
    {
      "x": 197,
      "y": 33,
      "size": 1,
      "price": "1011000000000000000000",
      "reserved": "",
      "salt": "0x5ee01b852a7663545d4e9943e2e5c7be169dc3cf0f5242a2f43448f077adfa78",
      "assetIds": []
    },
    {
      "x": 197,
      "y": 34,
      "size": 1,
      "price": "1011000000000000000000",
      "reserved": "",
      "salt": "0x9d937e8d4767843e7187d63ccc32b9b8bdff6e93c675bf2ec8b116ec338e4e4e",
      "assetIds": []
    },
    {
      "x": 197,
      "y": 35,
      "size": 1,
      "price": "1011000000000000000000",
      "reserved": "",
      "salt": "0x411a7a8cdeea7673a891db79f454416751fd639c9d3cd78b9276131d6fe90022",
      "assetIds": []
    },
    {
      "x": 198,
      "y": 33,
      "size": 1,
      "price": "1011000000000000000000",
      "reserved": "",
      "salt": "0xa900a45f609b77436a3b8fdd5df48608ee18f36664a7b03b9ee68952c5cc5cc1",
      "assetIds": []
    },
    {
      "x": 198,
      "y": 34,
      "size": 1,
      "price": "1011000000000000000000",
      "reserved": "",
      "salt": "0xcbbb6ca71232293a5643e13066edd9f3963f617b1fce1a0818b6b15241e47104",
      "assetIds": []
    },
    {
      "x": 198,
      "y": 35,
      "size": 1,
      "price": "4683000000000000000000",
      "reserved": "",
      "salt": "0x5781d265c8b213436857606af3754a647ca7a1bee03267a31f0d13aac018880c",
      "assetIds": []
    },
    {
      "x": 198,
      "y": 49,
      "size": 1,
      "price": "1011000000000000000000",
      "reserved": "",
      "salt": "0xe77c2298e8e68de995c3c263c3023f9608eaca2979e69e13ca6ca148b47e7322",
      "assetIds": []
    },
    {
      "x": 198,
      "y": 50,
      "size": 1,
      "price": "1011000000000000000000",
      "reserved": "",
      "salt": "0x9aefd0c22d7fd0dc482dd954e68e1dd349ddac4af010465972c253cf634ebf88",
      "assetIds": []
    },
    {
      "x": 198,
      "y": 54,
      "size": 1,
      "price": "1011000000000000000000",
      "reserved": "",
      "salt": "0x42e48406d3a7ddd031e7068ffd88d62d4167ed6e6e3b128309b4de0ff33bb101",
      "assetIds": []
    },
    {
      "x": 198,
      "y": 55,
      "size": 1,
      "price": "1011000000000000000000",
      "reserved": "",
      "salt": "0x30f0d0eaf5d92dd6046ef7b7b78f3d95dbd165c5d1435557a655c36fab0ae1d7",
      "assetIds": []
    },
    {
      "x": 198,
      "y": 56,
      "size": 1,
      "price": "1011000000000000000000",
      "reserved": "",
      "salt": "0x1b579b6ba28d8b6312c4c5282fd8cce9851510b0a8123ed99a51a28fece54472",
      "assetIds": []
    },
    {
      "x": 198,
      "y": 57,
      "size": 1,
      "price": "1011000000000000000000",
      "reserved": "",
      "salt": "0x26edf3873398d978866de46eb684f652cce78ebaae3a98c280d9adcd5f6bcbea",
      "assetIds": []
    },
    {
      "x": 198,
      "y": 58,
      "size": 1,
      "price": "1011000000000000000000",
      "reserved": "",
      "salt": "0x45b1a67a89b0af5fe8fe9062ba9164165f302d60dde109e506ef3579c66b2272",
      "assetIds": []
    },
    {
      "x": 198,
      "y": 59,
      "size": 1,
      "price": "1011000000000000000000",
      "reserved": "",
      "salt": "0x46c689392d93f1c95346ef17daa9eceb0d4fecdcbcc128b97f357d1fbf5ce0fc",
      "assetIds": []
    },
    {
      "x": 199,
      "y": 33,
      "size": 1,
      "price": "1011000000000000000000",
      "reserved": "",
      "salt": "0xf5ada15f5aad2cbae6ec503204d95b70fe9f19c939446d74aeb106a3d27b3d54",
      "assetIds": []
    },
    {
      "x": 199,
      "y": 34,
      "size": 1,
      "price": "1011000000000000000000",
      "reserved": "0x7a9fe22691c811ea339d9b73150e6911a5343dca",
      "salt": "0xe266b0446ed0fdf947ab800f1cc43c4bcfa56bf73b44c7396ae4665b778377d9",
      "assetIds": []
    },
    {
      "x": 199,
      "y": 35,
      "size": 1,
      "price": "4683000000000000000000",
      "reserved": "",
      "salt": "0x2542e6639bcf8558ee0bdc2cfe6699603078a6b83ac70a0a59a28a40a0d1eabe",
      "assetIds": []
    },
    {
      "x": 199,
      "y": 48,
      "size": 1,
      "price": "4683000000000000000000",
      "reserved": "",
      "salt": "0xa4e1de43a7f67cd62ec1151d93c0179836c778201a8e40b856c5c1921bbb2a70",
      "assetIds": []
    },
    {
      "x": 199,
      "y": 49,
      "size": 1,
      "price": "1011000000000000000000",
      "reserved": "",
      "salt": "0xcf58cd21c97e7fbd14d25f2c6392f9b7f7c39429dd9e0c9c058f05220d45dc1d",
      "assetIds": []
    },
    {
      "x": 199,
      "y": 50,
      "size": 1,
      "price": "1011000000000000000000",
      "reserved": "",
      "salt": "0x16a03d7d1c057eb838b6010a45baf9260a5ca18238238a171cc8cbd29fd320a4",
      "assetIds": []
    },
    {
      "x": 199,
      "y": 54,
      "size": 1,
      "price": "1011000000000000000000",
      "reserved": "",
      "salt": "0x09ff3fcfa39d0d33e3fbba4a81ec7d7a43bc4f0bb41f484f967fc44856d21f79",
      "assetIds": []
    },
    {
      "x": 199,
      "y": 55,
      "size": 1,
      "price": "1011000000000000000000",
      "reserved": "",
      "salt": "0x453df59b6da03e35a000c79e6b022c3a0d41aa6d9850a185591c296f319f3ff3",
      "assetIds": []
    },
    {
      "x": 199,
      "y": 56,
      "size": 1,
      "price": "1011000000000000000000",
      "reserved": "",
      "salt": "0xbb51290564deda5355537d9604ba49abcaaababee13a9f6c4ff8e18724dbd4b9",
      "assetIds": []
    },
    {
      "x": 199,
      "y": 57,
      "size": 1,
      "price": "1011000000000000000000",
      "reserved": "",
      "salt": "0x4bbbfca9ddb4a9ccc076a51b5b0bf1bda7368d497030c7d507c96ee804b75096",
      "assetIds": []
    },
    {
      "x": 199,
      "y": 58,
      "size": 1,
      "price": "1011000000000000000000",
      "reserved": "",
      "salt": "0xed458e3815658a55e744706fa129aae0af9e49e7a2b87154e7267cffe6f2f5d9",
      "assetIds": []
    },
    {
      "x": 199,
      "y": 59,
      "size": 1,
      "price": "1011000000000000000000",
      "reserved": "",
      "salt": "0xee15fa7f57d3736fc194d5e307cd2f610fd631e0345a0b5992a9e0fe6bf4dd0d",
      "assetIds": []
    },
    {
      "x": 200,
      "y": 33,
      "size": 1,
      "price": "1011000000000000000000",
      "reserved": "",
      "salt": "0x9273e90e3916b6e65860465589f73efdd2e1e46c19386141f64b4e2f2c52ff6c",
      "assetIds": []
    },
    {
      "x": 200,
      "y": 34,
      "size": 1,
      "price": "1011000000000000000000",
      "reserved": "",
      "salt": "0x1451a2b740106f89946dc038531efadd2dca4709409e4b5d46cdccb61e88b028",
      "assetIds": []
    },
    {
      "x": 200,
      "y": 35,
      "size": 1,
      "price": "1011000000000000000000",
      "reserved": "",
      "salt": "0x863e4f5d880ed0cc96a4b59b12af0a6c1185d452336ecbe6e3c56f42515ac181",
      "assetIds": []
    },
    {
      "x": 200,
      "y": 49,
      "size": 1,
      "price": "1011000000000000000000",
      "reserved": "",
      "salt": "0xd69e87235577a8d3af66cb524fe030e9c2c56ea8e61ff559e652140841c41e4d",
      "assetIds": []
    },
    {
      "x": 200,
      "y": 50,
      "size": 1,
      "price": "1011000000000000000000",
      "reserved": "",
      "salt": "0x65977a79e35be91567c4956e3c3b7540393570d76fbb0722ce5d186f27f25411",
      "assetIds": []
    },
    {
      "x": 200,
      "y": 54,
      "size": 1,
      "price": "1011000000000000000000",
      "reserved": "",
      "salt": "0x799bda558d22b1d47abc579a0ecb5116918905d458f7d744e3ce88007bbea418",
      "assetIds": []
    },
    {
      "x": 200,
      "y": 56,
      "size": 1,
      "price": "1011000000000000000000",
      "reserved": "",
      "salt": "0x9770d2b78f6cacac1ba5ce68a08b5fe9391be32b6838ccfd3eb856e40e97ba7d",
      "assetIds": []
    },
    {
      "x": 200,
      "y": 57,
      "size": 1,
      "price": "1011000000000000000000",
      "reserved": "",
      "salt": "0x40f62fcd4d0303eb6ab19bf4420da68e66ccac1f327d371bc9389ab1da7fa4bf",
      "assetIds": []
    },
    {
      "x": 200,
      "y": 58,
      "size": 1,
      "price": "1011000000000000000000",
      "reserved": "",
      "salt": "0x7161c56a246c38b4ee407c1e9eed863c41f3d2397b4f374fdac159d1299eb2b4",
      "assetIds": []
    },
    {
      "x": 200,
      "y": 59,
      "size": 1,
      "price": "1011000000000000000000",
      "reserved": "",
      "salt": "0xbf2023805af4013fc9e87ac6e668c1748a5e0ce0b2b155e76e54fd23d0b62933",
      "assetIds": []
    },
    {
      "x": 201,
      "y": 33,
      "size": 1,
      "price": "1011000000000000000000",
      "reserved": "",
      "salt": "0x44b890e0890fd2e5137131f1c497d45a54bf9042bf130aa2bef4284561ed818d",
      "assetIds": []
    },
    {
      "x": 201,
      "y": 34,
      "size": 1,
      "price": "1011000000000000000000",
      "reserved": "",
      "salt": "0x17c2b6259ff74d244f5b328966e1cb2beb172ed168416f55e319b398f992915b",
      "assetIds": []
    },
    {
      "x": 201,
      "y": 35,
      "size": 1,
      "price": "4683000000000000000000",
      "reserved": "",
      "salt": "0x98b39f1f8356a25169a1b602d33fdad0daea1bb9d6ac09534a24a0f68d68de4e",
      "assetIds": []
    },
    {
      "x": 201,
      "y": 48,
      "size": 1,
      "price": "4683000000000000000000",
      "reserved": "",
      "salt": "0x500a5a2906f5bbb008ec83f790a6d038c99aaeb6551565a302107dd658f39db3",
      "assetIds": []
    },
    {
      "x": 201,
      "y": 49,
      "size": 1,
      "price": "1011000000000000000000",
      "reserved": "",
      "salt": "0xcadc692d077ac1640163cedfb9f7033e240050f1aecf6e1779afe50440a7f499",
      "assetIds": []
    },
    {
      "x": 201,
      "y": 50,
      "size": 1,
      "price": "1011000000000000000000",
      "reserved": "",
      "salt": "0x6172841e199ed30ef629bdb4a0db3dce4d34de20c615aa9839bd5819f6c85367",
      "assetIds": []
    },
    {
      "x": 201,
      "y": 54,
      "size": 1,
      "price": "1011000000000000000000",
      "reserved": "",
      "salt": "0x6e90a72a19e3a0f9a77d376a2c4ccd8d77a1992d71755bb6812b7b7d9f66ca8c",
      "assetIds": []
    },
    {
      "x": 201,
      "y": 55,
      "size": 1,
      "price": "1011000000000000000000",
      "reserved": "0x7a9fe22691c811ea339d9b73150e6911a5343dca",
      "salt": "0xab3458013e2ef451c4796502199d795e7e1fe0881690a5fa3b1ab1f10f891a4c",
      "assetIds": []
    },
    {
      "x": 201,
      "y": 56,
      "size": 1,
      "price": "1011000000000000000000",
      "reserved": "",
      "salt": "0x0b01d3a08078b586383b1979bc5f633b1e90970e9f02900884aa3f1db3ee7546",
      "assetIds": []
    },
    {
      "x": 201,
      "y": 57,
      "size": 1,
      "price": "1011000000000000000000",
      "reserved": "",
      "salt": "0x53d7063c08217e8dba2abdb097c7341e8f81d4ee8fbe17ba04b58e0cc053d490",
      "assetIds": []
    },
    {
      "x": 201,
      "y": 58,
      "size": 1,
      "price": "1011000000000000000000",
      "reserved": "",
      "salt": "0x08aa781a14ec602e424788d6d6e1c611243deeb556a7b14d2f76e80291b12ee2",
      "assetIds": []
    },
    {
      "x": 201,
      "y": 59,
      "size": 1,
      "price": "1011000000000000000000",
      "reserved": "",
      "salt": "0xca7c0f02e97a63e6b91ec4e90a56c829d7e075e7c96e6e0eac6dff8689e84cf7",
      "assetIds": []
    },
    {
      "x": 202,
      "y": 33,
      "size": 1,
      "price": "1011000000000000000000",
      "reserved": "",
      "salt": "0xb9a9667aab9fcf933d35f2f8e203d6781536a4923b9c54e5c06f34e513409908",
      "assetIds": []
    },
    {
      "x": 202,
      "y": 34,
      "size": 1,
      "price": "1011000000000000000000",
      "reserved": "0x7a9fe22691c811ea339d9b73150e6911a5343dca",
      "salt": "0x7a56e4fefb8041abf696557086ee797e55ef99792e530f0a5650e7658e78e566",
      "assetIds": []
    },
    {
      "x": 202,
      "y": 35,
      "size": 1,
      "price": "4683000000000000000000",
      "reserved": "",
      "salt": "0xb4ac7a0d61abec4d9dac5fac95139ca4a9f8b007007826f621360317e1577ea6",
      "assetIds": []
    },
    {
      "x": 202,
      "y": 49,
      "size": 1,
      "price": "1011000000000000000000",
      "reserved": "",
      "salt": "0x96c1d70790d8d1fa4e1465655d628319b84ec00e0f047bc884c1a0d505b6eef9",
      "assetIds": []
    },
    {
      "x": 202,
      "y": 50,
      "size": 1,
      "price": "1011000000000000000000",
      "reserved": "",
      "salt": "0x675909b56323d283b1b5f34bc273e7e4d50628e2938bf60c2c4bf8b6a408a02c",
      "assetIds": []
    },
    {
      "x": 202,
      "y": 54,
      "size": 1,
      "price": "1011000000000000000000",
      "reserved": "",
      "salt": "0xa00a0c97c6d2b785b3218f8fb9f6044eec860d780def56ce4368a898aa599a7d",
      "assetIds": []
    },
    {
      "x": 202,
      "y": 55,
      "size": 1,
      "price": "1011000000000000000000",
      "reserved": "",
      "salt": "0x4f987e56ca4f60fe4e6b903cf8e2a0a73aabab8da0e2df05ad960b5e56538a9a",
      "assetIds": []
    },
    {
      "x": 202,
      "y": 56,
      "size": 1,
      "price": "1011000000000000000000",
      "reserved": "",
      "salt": "0x8dcac0d68f7375df26eb447b6eeaa709a7bc5fe4eaeb163aa898fbce44f56eab",
      "assetIds": []
    },
    {
      "x": 202,
      "y": 57,
      "size": 1,
      "price": "1011000000000000000000",
      "reserved": "",
      "salt": "0x13d01c47b2aaae0a92f38ade5dc7cafc14ca4d2bdb88e98c2c2be385e4fa3064",
      "assetIds": []
    },
    {
      "x": 202,
      "y": 58,
      "size": 1,
      "price": "1011000000000000000000",
      "reserved": "",
      "salt": "0x5931f0a21e6f17a414d6884834ae50cc8cb3fdb189f90c9ff41a6ce935448a03",
      "assetIds": []
    },
    {
      "x": 202,
      "y": 59,
      "size": 1,
      "price": "1011000000000000000000",
      "reserved": "",
      "salt": "0xcfe205180e14459c610ec9f2138fa9fbeadad3b1f9f0aadbcc1bdac8e49b7d6b",
      "assetIds": []
    },
    {
      "x": 203,
      "y": 33,
      "size": 1,
      "price": "1011000000000000000000",
      "reserved": "",
      "salt": "0x072db5042add374aab2edbf741b125d8c0f4d58ebf710b34f348e7d31c657b08",
      "assetIds": []
    },
    {
      "x": 203,
      "y": 34,
      "size": 1,
      "price": "1011000000000000000000",
      "reserved": "",
      "salt": "0xd251a9ebaae2868728b02fad14303a6ac4e3f0e171aceb8980973e7dec7f78de",
      "assetIds": []
    },
    {
      "x": 203,
      "y": 35,
      "size": 1,
      "price": "1011000000000000000000",
      "reserved": "",
      "salt": "0xb5309f814eb9ce3c31bda9f2ad32eaa56f7240c8983152a7eb1f4d4b3dddb09e",
      "assetIds": []
    },
    {
      "x": 203,
      "y": 48,
      "size": 1,
      "price": "4683000000000000000000",
      "reserved": "",
      "salt": "0x8983892fcf345a46515279dd0da99f9b70b3f630440e687a3b61c5ea3a2a87c6",
      "assetIds": []
    },
    {
      "x": 203,
      "y": 49,
      "size": 1,
      "price": "1011000000000000000000",
      "reserved": "",
      "salt": "0xf706c21b72cb4461966ac1ece5f168a9ae748095aac3de184f892380b85218e7",
      "assetIds": []
    },
    {
      "x": 203,
      "y": 50,
      "size": 1,
      "price": "1011000000000000000000",
      "reserved": "",
      "salt": "0x473ff6c1cbc2782a2c3a023ef630f516ceec173fa1a73e88f3789421fee961b5",
      "assetIds": []
    },
    {
      "x": 203,
      "y": 54,
      "size": 1,
      "price": "1011000000000000000000",
      "reserved": "0x7a9fe22691c811ea339d9b73150e6911a5343dca",
      "salt": "0xe3d85ce19ee41b419495346c25270dde929e1e878ee56235dc5feb0a3bce90e3",
      "assetIds": []
    },
    {
      "x": 203,
      "y": 55,
      "size": 1,
      "price": "1011000000000000000000",
      "reserved": "",
      "salt": "0xd42e3d98eda2305334e58755deff6af4beeb374ffd05e2ac4429044a0c2b43a1",
      "assetIds": []
    },
    {
      "x": 203,
      "y": 56,
      "size": 1,
      "price": "1011000000000000000000",
      "reserved": "",
      "salt": "0xade6ff0a3ea174767aaa5b9ddea9ea709fae7ca244b354d9dfbf8b2e87a82bbc",
      "assetIds": []
    },
    {
      "x": 203,
      "y": 57,
      "size": 1,
      "price": "1011000000000000000000",
      "reserved": "",
      "salt": "0xff20ba1a1ae40c5541aae5e083a95eed2a3dd46a8a02732d58ccc334bfe22aa8",
      "assetIds": []
    },
    {
      "x": 203,
      "y": 58,
      "size": 1,
      "price": "1011000000000000000000",
      "reserved": "",
      "salt": "0x6320205a756f72d847c4380cd0563f2db587abbe8d0e849e1180a7b3a63b7769",
      "assetIds": []
    },
    {
      "x": 203,
      "y": 59,
      "size": 1,
      "price": "1011000000000000000000",
      "reserved": "",
      "salt": "0xe9839aa7b6bcb9c2f23cbf636728c8be0058d98cce26b5accd1c03409b7124a2",
      "assetIds": []
    },
    {
      "x": 204,
      "y": 33,
      "size": 1,
      "price": "1011000000000000000000",
      "reserved": "",
      "salt": "0xfbcc9e7fe6c7509b8c9096ee2f022f2a6065bcd5aa994c26f85f8c702218ebdd",
      "assetIds": []
    },
    {
      "x": 204,
      "y": 34,
      "size": 1,
      "price": "1011000000000000000000",
      "reserved": "",
      "salt": "0xac7972a3c242d9e27836be9bf1eb79fea3c4d756dae3cc627d01012bf0fe09ee",
      "assetIds": []
    },
    {
      "x": 204,
      "y": 35,
      "size": 1,
      "price": "1011000000000000000000",
      "reserved": "0x7a9fe22691c811ea339d9b73150e6911a5343dca",
      "salt": "0x51a0164dd30cfae9280168005bed3bf242f241d4cc7273032dca11d7ae579ee9",
      "assetIds": []
    },
    {
      "x": 204,
      "y": 40,
      "size": 1,
      "price": "4683000000000000000000",
      "reserved": "",
      "salt": "0x8d4e67e87fad4c25f84bff474e3dcdcccdfc3769baa5c0ddbc743dd27ab2fcc5",
      "assetIds": []
    },
    {
      "x": 204,
      "y": 42,
      "size": 1,
      "price": "4683000000000000000000",
      "reserved": "",
      "salt": "0xa9659e222b2db7d22600479d4449b4035c561e676f078f8be607cbb6ae4e6de0",
      "assetIds": []
    },
    {
      "x": 204,
      "y": 46,
      "size": 1,
      "price": "4683000000000000000000",
      "reserved": "",
      "salt": "0x6271de167f14bb61c491570404ba8256579ebb79d63b257b722405dea24b1105",
      "assetIds": []
    },
    {
      "x": 204,
      "y": 57,
      "size": 1,
      "price": "1011000000000000000000",
      "reserved": "",
      "salt": "0x13577e3c806bc980d6d6f1647600acdf88502418e9a1de8d903cadcdeddb418d",
      "assetIds": []
    },
    {
      "x": 204,
      "y": 58,
      "size": 1,
      "price": "1011000000000000000000",
      "reserved": "",
      "salt": "0x67240cc1c9166a048c0fd54efb48b003a93d90e7a597d239a462cf111ea68495",
      "assetIds": []
    },
    {
      "x": 204,
      "y": 59,
      "size": 1,
      "price": "1011000000000000000000",
      "reserved": "",
      "salt": "0x4bc46defa940bae8ab6786cfe108c963546fc631b2e02bdac62f4fa88cc3aad1",
      "assetIds": []
    },
    {
      "x": 205,
      "y": 33,
      "size": 1,
      "price": "1011000000000000000000",
      "reserved": "",
      "salt": "0xa9480046e65c5f6f7caeb4b35ab357f9e623c5d8f94af76597b9bdac37db7a35",
      "assetIds": []
    },
    {
      "x": 205,
      "y": 34,
      "size": 1,
      "price": "1011000000000000000000",
      "reserved": "0x7a9fe22691c811ea339d9b73150e6911a5343dca",
      "salt": "0x5822f433a4913179929bdecd1465fc80d597a3bdf3faf61cb0d5307dae093696",
      "assetIds": []
    },
    {
      "x": 205,
      "y": 35,
      "size": 1,
      "price": "1011000000000000000000",
      "reserved": "",
      "salt": "0x05ef81dacbbccd14f2439d8f5743f84a49573f02cc8a93aeb763cfbbbb5dbcbc",
      "assetIds": []
    },
    {
      "x": 205,
      "y": 40,
      "size": 1,
      "price": "1011000000000000000000",
      "reserved": "",
      "salt": "0xa2ebc258fe55c0ab65385da7326d4b3b839417626b73d808b247e567927ef244",
      "assetIds": []
    },
    {
      "x": 205,
      "y": 41,
      "size": 1,
      "price": "1011000000000000000000",
      "reserved": "0x7a9fe22691c811ea339d9b73150e6911a5343dca",
      "salt": "0x084c84a270c37403615af50aaf630a9c4fb30d25bc3c90f898296681c08a8cdc",
      "assetIds": []
    },
    {
      "x": 205,
      "y": 42,
      "size": 1,
      "price": "1011000000000000000000",
      "reserved": "",
      "salt": "0xf44c647da308f3aeb1b3cfc31bf00a895c3202fc595046974b386e8386565e7b",
      "assetIds": []
    },
    {
      "x": 205,
      "y": 43,
      "size": 1,
      "price": "1011000000000000000000",
      "reserved": "",
      "salt": "0x8f5a7fba9070c23041d87452f41cca5b2d37bbaccc1a365caddf3a894bb7fadb",
      "assetIds": []
    },
    {
      "x": 205,
      "y": 44,
      "size": 1,
      "price": "1011000000000000000000",
      "reserved": "",
      "salt": "0x74932fc1e2e06efbd36adfd8daef7e41bd93787643af86efca4ff506caceba3c",
      "assetIds": []
    },
    {
      "x": 205,
      "y": 45,
      "size": 1,
      "price": "1011000000000000000000",
      "reserved": "",
      "salt": "0x9680a4482a80f97a6728468572d3cd4a5de5fdc844849f489a5182dfbfc4234b",
      "assetIds": []
    },
    {
      "x": 205,
      "y": 46,
      "size": 1,
      "price": "1011000000000000000000",
      "reserved": "0x7a9fe22691c811ea339d9b73150e6911a5343dca",
      "salt": "0xfd2b49e52ad1646b1c7b3c206b96fca56064fc3b9002ea1c0b8b3530663af425",
      "assetIds": []
    },
    {
      "x": 205,
      "y": 47,
      "size": 1,
      "price": "1011000000000000000000",
      "reserved": "",
      "salt": "0x9ea1fa3fd3fb27d560786536254c3729e7606174323ef72c787382b874c2d23b",
      "assetIds": []
    },
    {
      "x": 205,
      "y": 57,
      "size": 1,
      "price": "1011000000000000000000",
      "reserved": "",
      "salt": "0xb716440a67f6e50a877978873e47a41f390288f15cdac3d1225b921fb8e233de",
      "assetIds": []
    },
    {
      "x": 205,
      "y": 59,
      "size": 1,
      "price": "1011000000000000000000",
      "reserved": "",
      "salt": "0x20e6ecf2abbc2e53636d50568671f889bb0e053e4c619046c388aaaf1dab836c",
      "assetIds": []
    },
    {
      "x": 206,
      "y": 33,
      "size": 1,
      "price": "1011000000000000000000",
      "reserved": "",
      "salt": "0x9d10c30e09e1c0985e1f1ba266a6ed356da99cf930d5d64da23a3780339838ab",
      "assetIds": []
    },
    {
      "x": 206,
      "y": 34,
      "size": 1,
      "price": "1011000000000000000000",
      "reserved": "",
      "salt": "0xe42a50085ff75eeb1b714076b3f852a4b74ad66ad0ee407fc7b4de7d17edc9db",
      "assetIds": []
    },
    {
      "x": 206,
      "y": 35,
      "size": 1,
      "price": "1011000000000000000000",
      "reserved": "",
      "salt": "0x21c00cf8c58bf5c81c73fe985552e69076eed744983d796606c95a1940255757",
      "assetIds": []
    },
    {
      "x": 206,
      "y": 39,
      "size": 1,
      "price": "1011000000000000000000",
      "reserved": "",
      "salt": "0xa37767eb918695951a47666b10045347effc0072148f027175258497fb68a230",
      "assetIds": []
    },
    {
      "x": 206,
      "y": 40,
      "size": 1,
      "price": "1011000000000000000000",
      "reserved": "",
      "salt": "0x730c06656977dc8a735e886e071ff115c8c86d5305821cb9e0f4051bd6660f6e",
      "assetIds": []
    },
    {
      "x": 206,
      "y": 41,
      "size": 1,
      "price": "1011000000000000000000",
      "reserved": "",
      "salt": "0x1d51443922b16d25bb0de6dd70795986a0055aae9510a2b88717bf86433d7974",
      "assetIds": []
    },
    {
      "x": 206,
      "y": 42,
      "size": 1,
      "price": "1011000000000000000000",
      "reserved": "",
      "salt": "0xc8d1f642d6ed6ce8ce13c9d91966dcb95e1c83e27d4829c15b5eac3f2d1577c4",
      "assetIds": []
    },
    {
      "x": 206,
      "y": 43,
      "size": 1,
      "price": "1011000000000000000000",
      "reserved": "",
      "salt": "0x61a8f0ba82cf5fabe4dcadc84f7f55c26325f2ab9275756efb7f8ee862f9a1bf",
      "assetIds": []
    },
    {
      "x": 206,
      "y": 44,
      "size": 1,
      "price": "1011000000000000000000",
      "reserved": "",
      "salt": "0x5297d7268b8a54ecbb073366e8d19576057255115ee1e3d50c13074f3cb0d4b8",
      "assetIds": []
    },
    {
      "x": 206,
      "y": 45,
      "size": 1,
      "price": "1011000000000000000000",
      "reserved": "",
      "salt": "0xb1053dce89d5e4bdeb811f691251ffd9e33fbe4defdcb480fcf37b8348da8566",
      "assetIds": []
    },
    {
      "x": 206,
      "y": 46,
      "size": 1,
      "price": "1011000000000000000000",
      "reserved": "",
      "salt": "0x4903b56832a0bce5086f6d6bf568eeb9e929128d8f6b7191b6243d2eda9b2605",
      "assetIds": []
    },
    {
      "x": 206,
      "y": 47,
      "size": 1,
      "price": "1011000000000000000000",
      "reserved": "",
      "salt": "0x92fd2eac9641e37a0e94c4aa02a8c346e9e9f07d21b7b9bf095454e2db9cc303",
      "assetIds": []
    },
    {
      "x": 206,
      "y": 57,
      "size": 1,
      "price": "1011000000000000000000",
      "reserved": "",
      "salt": "0xce6d7060f0edda89591cb9ab54edda738dc09e1b8ac91b6b0ea31b0ff26be3fb",
      "assetIds": []
    },
    {
      "x": 206,
      "y": 58,
      "size": 1,
      "price": "1011000000000000000000",
      "reserved": "",
      "salt": "0x3893ba229ec58a8ede964b8299481a220f085a0a0da97f22aab50ac36edf32b4",
      "assetIds": []
    },
    {
      "x": 206,
      "y": 59,
      "size": 1,
      "price": "1011000000000000000000",
      "reserved": "",
      "salt": "0xf80eef6df8c6fda4b5f8a280a4a01c9496a2e9c481ee298a6c71fbaccb33ae5e",
      "assetIds": []
    },
    {
      "x": 207,
      "y": 33,
      "size": 1,
      "price": "1011000000000000000000",
      "reserved": "",
      "salt": "0x0b7785b5813d6fe7d18117193104942ed050a18af68df16010fd768ab6a20380",
      "assetIds": []
    },
    {
      "x": 207,
      "y": 34,
      "size": 1,
      "price": "1011000000000000000000",
      "reserved": "",
      "salt": "0xa4adf221f9d8693ceb885cdf034e469c5319fe36470684579b8143db12789b27",
      "assetIds": []
    },
    {
      "x": 207,
      "y": 35,
      "size": 1,
      "price": "1011000000000000000000",
      "reserved": "",
      "salt": "0x217ecc0c6948b670781622d4c739485665a9db7c110939c10bc73f82a23e78aa",
      "assetIds": []
    },
    {
      "x": 207,
      "y": 36,
      "size": 1,
      "price": "1011000000000000000000",
      "reserved": "",
      "salt": "0x7b0ea17d6f437e58e0ac877da9bca72a2e45ba480ca98779e0bef7423360aa53",
      "assetIds": []
    },
    {
      "x": 207,
      "y": 37,
      "size": 1,
      "price": "1011000000000000000000",
      "reserved": "",
      "salt": "0x844307a26fea00a2ce58ba18e677344b42d550980bb70ab840368aea2429047f",
      "assetIds": []
    },
    {
      "x": 207,
      "y": 38,
      "size": 1,
      "price": "1011000000000000000000",
      "reserved": "",
      "salt": "0xd7b8e648eb6b85a06e15917db35ad1fec439e3b38fedc8f795aba06da930f4c9",
      "assetIds": []
    },
    {
      "x": 207,
      "y": 39,
      "size": 1,
      "price": "1011000000000000000000",
      "reserved": "",
      "salt": "0xe296a5f9942c1e9ded5918d374535ee0435b06729a3f381a015e87c45826ae8d",
      "assetIds": []
    },
    {
      "x": 207,
      "y": 40,
      "size": 1,
      "price": "1011000000000000000000",
      "reserved": "",
      "salt": "0x36d1b6ce6abba6668cb0d8a07d8be158c51c94f4d8ba32a35dad75737383d346",
      "assetIds": []
    },
    {
      "x": 207,
      "y": 41,
      "size": 1,
      "price": "1011000000000000000000",
      "reserved": "",
      "salt": "0x8820fc52e499842e3691ece7c224b17d9c3fb363cb8ecbb1ab2a892be362f5ed",
      "assetIds": []
    },
    {
      "x": 207,
      "y": 42,
      "size": 1,
      "price": "1011000000000000000000",
      "reserved": "",
      "salt": "0xd61d25a420d8a430d5cf1d445050f6552452301e84d81a2ab4a64c3b192a7ba3",
      "assetIds": []
    },
    {
      "x": 207,
      "y": 43,
      "size": 1,
      "price": "1011000000000000000000",
      "reserved": "",
      "salt": "0x917677f15a98929cffa92d96009ac321b83af7024912f71e55222b5990c96523",
      "assetIds": []
    },
    {
      "x": 207,
      "y": 44,
      "size": 1,
      "price": "1011000000000000000000",
      "reserved": "",
      "salt": "0xadb67937219e16e42f6b598e3b5952319a44460e254ee4b91949c155d6915e55",
      "assetIds": []
    },
    {
      "x": 207,
      "y": 45,
      "size": 1,
      "price": "1011000000000000000000",
      "reserved": "",
      "salt": "0x24028c1076b8955e1e80201466c15a1543c252c5151abf8f788b58611fb06866",
      "assetIds": []
    },
    {
      "x": 207,
      "y": 46,
      "size": 1,
      "price": "1011000000000000000000",
      "reserved": "",
      "salt": "0x2e46a24ee2bf3e6afb387b42e2446616f1fab7be7893bac5fc3a34c3e708c8b7",
      "assetIds": []
    },
    {
      "x": 207,
      "y": 47,
      "size": 1,
      "price": "1011000000000000000000",
      "reserved": "",
      "salt": "0x50c683cedd7bb08f315e44313cd03f9bdd16ff2a2a7e37b3db5654c323666f44",
      "assetIds": []
    },
    {
      "x": 207,
      "y": 57,
      "size": 1,
      "price": "1011000000000000000000",
      "reserved": "",
      "salt": "0x06a3cbf52d0c29c0d70a77d8cae419f6bccc1a87a2d6d4232facc41f4363443a",
      "assetIds": []
    },
    {
      "x": 207,
      "y": 58,
      "size": 1,
      "price": "1011000000000000000000",
      "reserved": "",
      "salt": "0xbeef52a849bfa70550e5caf94a802513e6a47d36ccfad44a3e630ac956fa5c84",
      "assetIds": []
    },
    {
      "x": 207,
      "y": 59,
      "size": 1,
      "price": "1011000000000000000000",
      "reserved": "",
      "salt": "0x99ac15ed785913a485314180994f5ad1e340761940358f8632a47cea108e698e",
      "assetIds": []
    },
    {
      "x": 208,
      "y": 33,
      "size": 1,
      "price": "1011000000000000000000",
      "reserved": "",
      "salt": "0x90b8724562d1fc8f43dc3135410aeabcf6d4a8e98fa80531127fd06b5f2bcfc8",
      "assetIds": []
    },
    {
      "x": 208,
      "y": 34,
      "size": 1,
      "price": "1011000000000000000000",
      "reserved": "0x7a9fe22691c811ea339d9b73150e6911a5343dca",
      "salt": "0x269bb4dc7d9772b578ac2b1fc8024dc4f22a331245d6552ab677d7580f64810b",
      "assetIds": []
    },
    {
      "x": 208,
      "y": 35,
      "size": 1,
      "price": "1011000000000000000000",
      "reserved": "",
      "salt": "0x79a5d25af0c2ce1b6e2ef12cabda937f65e847dc78954bb7045897022f5d13c6",
      "assetIds": []
    },
    {
      "x": 208,
      "y": 36,
      "size": 1,
      "price": "1011000000000000000000",
      "reserved": "",
      "salt": "0x6809de3a5bbbe5bb9eb3bd60bc2904b3e62d5f99131d70662041f5f160be4cb5",
      "assetIds": []
    },
    {
      "x": 208,
      "y": 37,
      "size": 1,
      "price": "1011000000000000000000",
      "reserved": "",
      "salt": "0xae883caa9df6dd6faa6ba70a5a0b66a8f45d2c69c3e385abe502b6e59c13d98a",
      "assetIds": []
    },
    {
      "x": 208,
      "y": 38,
      "size": 1,
      "price": "1011000000000000000000",
      "reserved": "",
      "salt": "0x1bbeeabbab7b95fb4333ddf3401184eb3f50e34f012d6d65ca66102863614539",
      "assetIds": []
    },
    {
      "x": 208,
      "y": 39,
      "size": 1,
      "price": "1011000000000000000000",
      "reserved": "0x7a9fe22691c811ea339d9b73150e6911a5343dca",
      "salt": "0xb1bc0301c29a8d409c49ff2fe1a745a3b79ed3a18730be41d96025a47efd19b4",
      "assetIds": []
    },
    {
      "x": 208,
      "y": 40,
      "size": 1,
      "price": "1011000000000000000000",
      "reserved": "",
      "salt": "0x4fdccaaca32cfd1bf44daf0dc1d0127afe2ce5d4e2beb99caaecdde01a55b165",
      "assetIds": []
    },
    {
      "x": 208,
      "y": 41,
      "size": 1,
      "price": "1011000000000000000000",
      "reserved": "",
      "salt": "0x0548d7e91b7277b6d831a5880d4b66ed116f87feafc288859a2dcc88e25b13af",
      "assetIds": []
    },
    {
      "x": 208,
      "y": 42,
      "size": 1,
      "price": "1011000000000000000000",
      "reserved": "",
      "salt": "0xc8ae47080992dfd82e6d4c01a4c442eaa404c49233d8d776bca3ac26af251967",
      "assetIds": []
    },
    {
      "x": 208,
      "y": 43,
      "size": 1,
      "price": "1011000000000000000000",
      "reserved": "0x7a9fe22691c811ea339d9b73150e6911a5343dca",
      "salt": "0x4faac3b5f377e100696bbe4df3f7d29e9587c8f48ed933890d3f8956dcbbb5a0",
      "assetIds": []
    },
    {
      "x": 208,
      "y": 44,
      "size": 1,
      "price": "1011000000000000000000",
      "reserved": "",
      "salt": "0x02e6ab1bda7bb9cfb5d852b653ae9fdd262ded736ff0e07fff78ad1a3ff32164",
      "assetIds": []
    },
    {
      "x": 208,
      "y": 45,
      "size": 1,
      "price": "1011000000000000000000",
      "reserved": "",
      "salt": "0x89f122ddc5f537f1ecc401687e78a463556ad51dcafd1714ab546cb5ca3b0fae",
      "assetIds": []
    },
    {
      "x": 208,
      "y": 46,
      "size": 1,
      "price": "1011000000000000000000",
      "reserved": "0x7a9fe22691c811ea339d9b73150e6911a5343dca",
      "salt": "0x1ae285ee92dfc1f2b54a9cbfb119d5edef323943265ea2720ddef653ad9c9f50",
      "assetIds": []
    },
    {
      "x": 208,
      "y": 47,
      "size": 1,
      "price": "1011000000000000000000",
      "reserved": "",
      "salt": "0xac77f3bc5e80d74e6df3530d793b3fd7ce76a26efb6ec63f0c3079343354f0cf",
      "assetIds": []
    },
    {
      "x": 208,
      "y": 57,
      "size": 1,
      "price": "1011000000000000000000",
      "reserved": "",
      "salt": "0x544425c15b8044feee09c79e4366f73d535b056f707c4721ff277626b400b29e",
      "assetIds": []
    },
    {
      "x": 208,
      "y": 58,
      "size": 1,
      "price": "1011000000000000000000",
      "reserved": "0x7a9fe22691c811ea339d9b73150e6911a5343dca",
      "salt": "0xe3c921bc90dcac203e62dd3d8fce87875a8209deab287400ad156ba25242cdb3",
      "assetIds": []
    },
    {
      "x": 208,
      "y": 59,
      "size": 1,
      "price": "1011000000000000000000",
      "reserved": "",
      "salt": "0x89c160e5d2f6a3624f2dde4ec1e3e7de896b875b4b6825cfd47ca9875e8071c9",
      "assetIds": []
    },
    {
      "x": 209,
      "y": 33,
      "size": 1,
      "price": "1011000000000000000000",
      "reserved": "",
      "salt": "0x03ad599e8ec89e4816e6bf8b769dccb5ca9dd25312a1ae283415f3c2c977e2ec",
      "assetIds": []
    },
    {
      "x": 209,
      "y": 34,
      "size": 1,
      "price": "1011000000000000000000",
      "reserved": "",
      "salt": "0x6e5a58cae7bed74cc655b177edc6f7486bb6af12ec10a72c1e9ca528e24a6b3c",
      "assetIds": []
    },
    {
      "x": 209,
      "y": 35,
      "size": 1,
      "price": "1011000000000000000000",
      "reserved": "",
      "salt": "0x76fa9ceda5eff6d28942a4c51faf96ec13dc4a83050ae1d6883b5f0b9e7ee288",
      "assetIds": []
    },
    {
      "x": 209,
      "y": 36,
      "size": 1,
      "price": "1011000000000000000000",
      "reserved": "",
      "salt": "0x07874caf11a43cf7b39b357696f4b43a9e143da145ee914c1eb26051234db96c",
      "assetIds": []
    },
    {
      "x": 209,
      "y": 37,
      "size": 1,
      "price": "1011000000000000000000",
      "reserved": "",
      "salt": "0x72c34c0f9ac3229647c5dfb22eee0ea65e0403fa9fa21b173e81ef7f0e965670",
      "assetIds": []
    },
    {
      "x": 209,
      "y": 38,
      "size": 1,
      "price": "1011000000000000000000",
      "reserved": "",
      "salt": "0xd88dce56846f52ba77790812ee59b42cc4fb690a72c0fce2ac5507efacef1d6b",
      "assetIds": []
    },
    {
      "x": 209,
      "y": 39,
      "size": 1,
      "price": "1011000000000000000000",
      "reserved": "",
      "salt": "0x315dfedeeb8bec0a2a2dcbe9a129287df04d80d68eff83562de9e7677c42bda8",
      "assetIds": []
    },
    {
      "x": 209,
      "y": 40,
      "size": 1,
      "price": "1011000000000000000000",
      "reserved": "",
      "salt": "0x697e3afceab18a37e09dd2d75d9cdda4fa26989366b520cae445e4707dd7ed88",
      "assetIds": []
    },
    {
      "x": 209,
      "y": 41,
      "size": 1,
      "price": "1011000000000000000000",
      "reserved": "",
      "salt": "0xa4ae5828f874b32405e68557f62be40a09ad5c8b0afdfdffc43ae205c8e1d3f7",
      "assetIds": []
    },
    {
      "x": 209,
      "y": 42,
      "size": 1,
      "price": "1011000000000000000000",
      "reserved": "",
      "salt": "0xd623a5453eaa55c48d1df822fb164f34bcc32b52a3dcf70770ea92f6d96eadfc",
      "assetIds": []
    },
    {
      "x": 209,
      "y": 43,
      "size": 1,
      "price": "1011000000000000000000",
      "reserved": "",
      "salt": "0x651534e360b10758cdad0660221f177d7db7d8d63aaceedf81cd68b200d04434",
      "assetIds": []
    },
    {
      "x": 209,
      "y": 44,
      "size": 1,
      "price": "1011000000000000000000",
      "reserved": "",
      "salt": "0x22cb4010b91427d39f5973dc9b6f895291942e0dd0b0d36d40a177473d71c238",
      "assetIds": []
    },
    {
      "x": 209,
      "y": 45,
      "size": 1,
      "price": "1011000000000000000000",
      "reserved": "",
      "salt": "0xc326aad4e18dd912b6850f46e840a69b0472633587b7a9a04e84a934d7bf6785",
      "assetIds": []
    },
    {
      "x": 209,
      "y": 46,
      "size": 1,
      "price": "1011000000000000000000",
      "reserved": "",
      "salt": "0x7b899059a78ee077e9eb393fde5a320dd2cd58102c579733126b688a573bf6ee",
      "assetIds": []
    },
    {
      "x": 209,
      "y": 47,
      "size": 1,
      "price": "1011000000000000000000",
      "reserved": "",
      "salt": "0x11305b8949afe8653988d821d4baa488a1f848847acfdbb31d267b89ad399b75",
      "assetIds": []
    },
    {
      "x": 209,
      "y": 57,
      "size": 1,
      "price": "1011000000000000000000",
      "reserved": "",
      "salt": "0x411367aab2eb8738c2fc9ec330d5dbb0138bd77f4e64775c8bbb314ea2414f4b",
      "assetIds": []
    },
    {
      "x": 209,
      "y": 58,
      "size": 1,
      "price": "1011000000000000000000",
      "reserved": "",
      "salt": "0x37aef6c0b9216c8fe5e0f298008bde018b1835294b2c7139fe53189dba3177c6",
      "assetIds": []
    },
    {
      "x": 209,
      "y": 59,
      "size": 1,
      "price": "1011000000000000000000",
      "reserved": "",
      "salt": "0x61191cae4fd580d3384dd576b0ac957370f112ebd24e9e333fa853ada2dcb964",
      "assetIds": []
    },
    {
      "x": 210,
      "y": 36,
      "size": 1,
      "price": "1011000000000000000000",
      "reserved": "",
      "salt": "0x32d96f097dff2e18bc4a2fc25dee6f2e428c3a491bb9b4e3a917148d9f3fc5ed",
      "assetIds": []
    },
    {
      "x": 210,
      "y": 37,
      "size": 1,
      "price": "1011000000000000000000",
      "reserved": "",
      "salt": "0x293920f62646fb544f26b9406b180f4be8882f6da01f8563d56c54f7efd248fe",
      "assetIds": []
    },
    {
      "x": 210,
      "y": 38,
      "size": 1,
      "price": "1011000000000000000000",
      "reserved": "",
      "salt": "0xcdba2ebfb8cd466b2fb49bac75dc2d0ccd34c67d054a4f3a32a99eec23de0a3a",
      "assetIds": []
    },
    {
      "x": 210,
      "y": 39,
      "size": 1,
      "price": "1011000000000000000000",
      "reserved": "",
      "salt": "0x929b1a12fef84d8ffd580d5c2ebbd1f4df2495b8628e1f1b9be83db93c70e7aa",
      "assetIds": []
    },
    {
      "x": 210,
      "y": 40,
      "size": 1,
      "price": "1011000000000000000000",
      "reserved": "",
      "salt": "0xe63dfc21b9875b9d59256dbe61ff634f4503e38db1507596730feb6feac5f032",
      "assetIds": []
    },
    {
      "x": 210,
      "y": 41,
      "size": 1,
      "price": "1011000000000000000000",
      "reserved": "0x7a9fe22691c811ea339d9b73150e6911a5343dca",
      "salt": "0xa761141ee8a08d7addf177a719e76a69c77262feb989d8191923fcbb47823e95",
      "assetIds": []
    },
    {
      "x": 210,
      "y": 48,
      "size": 1,
      "price": "1011000000000000000000",
      "reserved": "",
      "salt": "0xd5eafd484d153ca0b9ad14da943dfc5b27102803b32109ab4838d6e508d42c3b",
      "assetIds": []
    },
    {
      "x": 210,
      "y": 49,
      "size": 1,
      "price": "1011000000000000000000",
      "reserved": "",
      "salt": "0x7eaee6df699a7fcb6adbbd798ba9846a25b2d292bdfdc428c7b6a5a1228edd74",
      "assetIds": []
    },
    {
      "x": 210,
      "y": 50,
      "size": 1,
      "price": "1011000000000000000000",
      "reserved": "",
      "salt": "0xa3c987ac414d7a185e7c46944b291e2b7188242314fd12b95a2dc9978f01e93c",
      "assetIds": []
    },
    {
      "x": 210,
      "y": 51,
      "size": 1,
      "price": "1011000000000000000000",
      "reserved": "",
      "salt": "0xca32ee2fb1630ee7b5e4a8ceae3a0dc94120fd09b20809398981aa72f1b5fd61",
      "assetIds": []
    },
    {
      "x": 210,
      "y": 52,
      "size": 1,
      "price": "1011000000000000000000",
      "reserved": "",
      "salt": "0x8ed14292aafae653b0ded370bb03175ed336f5d3b29c86566b29ac487a02e127",
      "assetIds": []
    },
    {
      "x": 210,
      "y": 53,
      "size": 1,
      "price": "1011000000000000000000",
      "reserved": "",
      "salt": "0xa0469c6e2242df62d3c0b32ec0e7d5287c7ed4aa05f0c34947b5d4a36fac0af2",
      "assetIds": []
    },
    {
      "x": 210,
      "y": 57,
      "size": 1,
      "price": "4683000000000000000000",
      "reserved": "",
      "salt": "0x7bb5786cc9043094cf9ed5c64006fdc4fea6908707e9112aa4d5d66aa785eda7",
      "assetIds": []
    },
    {
      "x": 210,
      "y": 58,
      "size": 1,
      "price": "1011000000000000000000",
      "reserved": "",
      "salt": "0xbfdba1f44c559be6189664a20836e62079edfb97fe195bc813d905ba98e68601",
      "assetIds": []
    },
    {
      "x": 210,
      "y": 59,
      "size": 1,
      "price": "1011000000000000000000",
      "reserved": "",
      "salt": "0xa5746c43686e24f184b3c31489ea44c37c401b167848c77cbaf393dc5cb026e5",
      "assetIds": []
    },
    {
      "x": 211,
      "y": 36,
      "size": 1,
      "price": "1011000000000000000000",
      "reserved": "",
      "salt": "0xa436ab2f08bb59bfb4cc6420d0f14c44a23435dd7afcc0454c5f978b3337ef2f",
      "assetIds": []
    },
    {
      "x": 211,
      "y": 37,
      "size": 1,
      "price": "1011000000000000000000",
      "reserved": "0x7a9fe22691c811ea339d9b73150e6911a5343dca",
      "salt": "0xe5d9be82e23ff6d8e36fcab7a3ab689f02b7e6caf99aa2f16e04ec20b125a05b",
      "assetIds": []
    },
    {
      "x": 211,
      "y": 38,
      "size": 1,
      "price": "1011000000000000000000",
      "reserved": "",
      "salt": "0x0a931ef14a8c8198e7c6611d468e85b021e4208fd8c43eac4dcb1b7632643445",
      "assetIds": []
    },
    {
      "x": 211,
      "y": 39,
      "size": 1,
      "price": "1011000000000000000000",
      "reserved": "",
      "salt": "0x00471967c0a6398c9aedfbdcaa24ab8599adbdcf7e3a3fd73a06428de7624024",
      "assetIds": []
    },
    {
      "x": 211,
      "y": 40,
      "size": 1,
      "price": "1011000000000000000000",
      "reserved": "",
      "salt": "0xc504d384e0a178660bf2f9bd638b3844caedff83ca6b5613a1769032e1278f65",
      "assetIds": []
    },
    {
      "x": 211,
      "y": 41,
      "size": 1,
      "price": "1011000000000000000000",
      "reserved": "",
      "salt": "0x6245ad5c80cd744c6bfe57ccae625b8010dc966ecdcf609b83a3d069b1f7dbd2",
      "assetIds": []
    },
    {
      "x": 211,
      "y": 48,
      "size": 1,
      "price": "1011000000000000000000",
      "reserved": "",
      "salt": "0xb49fcb079d2661ee5252259d6382bbb3520d084a54f6448c8901bbc76a6cb37a",
      "assetIds": []
    },
    {
      "x": 211,
      "y": 49,
      "size": 1,
      "price": "1011000000000000000000",
      "reserved": "",
      "salt": "0xaa4fbc2c1a7794499fd2dd07b0375fa6e06de0e6e0249aa8724702d414063920",
      "assetIds": []
    },
    {
      "x": 211,
      "y": 50,
      "size": 1,
      "price": "1011000000000000000000",
      "reserved": "",
      "salt": "0x14637859c0ce6b7a58d262f6ad817cdbc5ac2f57d980c918e96826e18519a626",
      "assetIds": []
    },
    {
      "x": 211,
      "y": 51,
      "size": 1,
      "price": "1011000000000000000000",
      "reserved": "",
      "salt": "0xcce16f7b27aa0c920b060562f4cf1ed94523aa165d5e72c750de6d135d001acb",
      "assetIds": []
    },
    {
      "x": 211,
      "y": 52,
      "size": 1,
      "price": "1011000000000000000000",
      "reserved": "",
      "salt": "0x8bbfec8f9333d7f39d9b9db5e1228b11ba5d9f68da81879cabe192690fb48f62",
      "assetIds": []
    },
    {
      "x": 211,
      "y": 53,
      "size": 1,
      "price": "4683000000000000000000",
      "reserved": "",
      "salt": "0xb718b897a82350c447a9fb940ce1a71fb8a0973777f41838fc9dbd403da13865",
      "assetIds": []
    },
    {
      "x": 211,
      "y": 57,
      "size": 1,
      "price": "4683000000000000000000",
      "reserved": "",
      "salt": "0xd94aa063b51c6d73d1d066046acbcccf717c3b9ea3381cd5745549e045244cd8",
      "assetIds": []
    },
    {
      "x": 211,
      "y": 58,
      "size": 1,
      "price": "1011000000000000000000",
      "reserved": "",
      "salt": "0x3466e152b0a48f741e58a4e921e9c3cb47556d515a56b199b56ddaa5605c3db6",
      "assetIds": []
    },
    {
      "x": 211,
      "y": 59,
      "size": 1,
      "price": "1011000000000000000000",
      "reserved": "",
      "salt": "0x8fc236ddf6779d8d90f34ce125514ba3891b8dafeb52d6fbca785ebd84ada688",
      "assetIds": []
    },
    {
      "x": 212,
      "y": 36,
      "size": 1,
      "price": "1011000000000000000000",
      "reserved": "",
      "salt": "0x4ec4988b5d4fe8427438c8fb34159f0d6f6529d9ed7318872b13fa95dba9fcc6",
      "assetIds": []
    },
    {
      "x": 212,
      "y": 37,
      "size": 1,
      "price": "1011000000000000000000",
      "reserved": "",
      "salt": "0x55fea1ab6e72ca98a28c9e39616dd3dcdee804b4908334a335def2e75df463c0",
      "assetIds": []
    },
    {
      "x": 212,
      "y": 38,
      "size": 1,
      "price": "1011000000000000000000",
      "reserved": "",
      "salt": "0xf01df17f4668952182d5a9dedbea9f4f7776c0f8b536d0d59303a4873dc9ffa9",
      "assetIds": []
    },
    {
      "x": 212,
      "y": 39,
      "size": 1,
      "price": "1011000000000000000000",
      "reserved": "",
      "salt": "0xb252808ae45ccff3ef30c3e7463200ddab1ea4d2f35b1cc5694bf3f18589bc3a",
      "assetIds": []
    },
    {
      "x": 212,
      "y": 40,
      "size": 1,
      "price": "1011000000000000000000",
      "reserved": "",
      "salt": "0x34c6bfec8400d825e606492222879b0c12791ee1d3a6c448776e48c7efb35b7f",
      "assetIds": []
    },
    {
      "x": 212,
      "y": 41,
      "size": 1,
      "price": "1011000000000000000000",
      "reserved": "",
      "salt": "0xb745d13a5cd65a79bd7bcb3cc4a6a719b184087e80ccf38576be4b3cde070f65",
      "assetIds": []
    },
    {
      "x": 212,
      "y": 48,
      "size": 1,
      "price": "1011000000000000000000",
      "reserved": "0x7a9fe22691c811ea339d9b73150e6911a5343dca",
      "salt": "0xba7438e6c3582039d8a207d4ed87a5df220532815edf0ca9ed331be7915973b1",
      "assetIds": []
    },
    {
      "x": 212,
      "y": 49,
      "size": 1,
      "price": "1011000000000000000000",
      "reserved": "",
      "salt": "0xcb68060313cc6c81ab798c084aa4e410a7b6cd2a8ca88802ec52825fabbbeeb8",
      "assetIds": []
    },
    {
      "x": 212,
      "y": 50,
      "size": 1,
      "price": "1011000000000000000000",
      "reserved": "",
      "salt": "0x27ea100709be2740a1c34570ad05dad13f2f9454aeb4ef53b37ad15b58d089ba",
      "assetIds": []
    },
    {
      "x": 212,
      "y": 51,
      "size": 1,
      "price": "1011000000000000000000",
      "reserved": "0x7a9fe22691c811ea339d9b73150e6911a5343dca",
      "salt": "0x855eac989bec3ffe728197dcf9493bdfc94fe89c1d190a7153531b262f97ea52",
      "assetIds": []
    },
    {
      "x": 212,
      "y": 52,
      "size": 1,
      "price": "1011000000000000000000",
      "reserved": "",
      "salt": "0x148e2259e3ce6cb1c40c0092132285ddca678b832dbed5b7f4fa8ca791e20709",
      "assetIds": []
    },
    {
      "x": 212,
      "y": 53,
      "size": 1,
      "price": "4683000000000000000000",
      "reserved": "",
      "salt": "0x66b29eab3c11098b8f6209121c4934f0aa21fefe3dba1895e3cdf7277468a54f",
      "assetIds": []
    },
    {
      "x": 212,
      "y": 57,
      "size": 1,
      "price": "1011000000000000000000",
      "reserved": "0x7a9fe22691c811ea339d9b73150e6911a5343dca",
      "salt": "0xefcfeb166887749ff80e1ffa2c8dc9729bb2b8bf0c04e8ce8cbd15ebd78b473a",
      "assetIds": []
    },
    {
      "x": 212,
      "y": 58,
      "size": 1,
      "price": "1011000000000000000000",
      "reserved": "",
      "salt": "0xb454b86054533a7082a6b4a1b24247fa4e7bb684206b2a8ae016341d60be970c",
      "assetIds": []
    },
    {
      "x": 212,
      "y": 59,
      "size": 1,
      "price": "1011000000000000000000",
      "reserved": "",
      "salt": "0x4c7b2c55217c65c7444dcea630a0231f6040b784c0e05fccec9ad55d200ff0e0",
      "assetIds": []
    },
    {
      "x": 213,
      "y": 36,
      "size": 1,
      "price": "1011000000000000000000",
      "reserved": "",
      "salt": "0xb6eaaee1839f69cbf841854a5214f1ec4d1ca1ff071b6ce71df015e596c2d6a3",
      "assetIds": []
    },
    {
      "x": 213,
      "y": 37,
      "size": 1,
      "price": "1011000000000000000000",
      "reserved": "",
      "salt": "0x72a8571f4c00e997d39ac6cdf7e9e92584039c156e63eff4adee63d5d0a28005",
      "assetIds": []
    },
    {
      "x": 213,
      "y": 38,
      "size": 1,
      "price": "1011000000000000000000",
      "reserved": "",
      "salt": "0xe76be4486690e479ed379978211162a428c21a31acdee504ed0b3be282405be7",
      "assetIds": []
    },
    {
      "x": 213,
      "y": 39,
      "size": 1,
      "price": "1011000000000000000000",
      "reserved": "",
      "salt": "0x7837aa47be82539b4b98ec71fc7d17dd6fc878f1fb439c476de198fae50bcefd",
      "assetIds": []
    },
    {
      "x": 213,
      "y": 40,
      "size": 1,
      "price": "1011000000000000000000",
      "reserved": "",
      "salt": "0x18f7717ca6ea2828cb218434fa0487e093f80554ae3970fe5a243f4f8b8f5c8b",
      "assetIds": []
    },
    {
      "x": 213,
      "y": 41,
      "size": 1,
      "price": "1011000000000000000000",
      "reserved": "0x7a9fe22691c811ea339d9b73150e6911a5343dca",
      "salt": "0xc8ff5ecd68601c4d6613e2f8137926f4fecaeaef3ebcc888a0628bc9f8c2aa60",
      "assetIds": []
    },
    {
      "x": 213,
      "y": 51,
      "size": 1,
      "price": "1011000000000000000000",
      "reserved": "",
      "salt": "0x7a05a6722120c1b64872f398f913b4545db8f2765bd184286eec4a6ea27a656d",
      "assetIds": []
    },
    {
      "x": 213,
      "y": 52,
      "size": 1,
      "price": "1011000000000000000000",
      "reserved": "",
      "salt": "0x93875e2c7375dfcaf3cf3687651e7f8a3c0169ff7936ba8fe9363e79039f4c26",
      "assetIds": []
    },
    {
      "x": 213,
      "y": 53,
      "size": 1,
      "price": "1011000000000000000000",
      "reserved": "",
      "salt": "0xfe3486572eb645267f3fa5cb189cc15e87a1e35365fd9bfbb9a4811ba0f02900",
      "assetIds": []
    },
    {
      "x": 213,
      "y": 54,
      "size": 1,
      "price": "1011000000000000000000",
      "reserved": "0x7a9fe22691c811ea339d9b73150e6911a5343dca",
      "salt": "0x99c6e97c48deb5cffaa642b3cf59377ff4a2af8c75cd1f2dbafc3199fdd7bd4c",
      "assetIds": []
    },
    {
      "x": 213,
      "y": 55,
      "size": 1,
      "price": "4683000000000000000000",
      "reserved": "",
      "salt": "0xd8037da946649b911bb2ddfee2d0e380a7b98258e4f8f21ecf1caf8a75ccfc5a",
      "assetIds": []
    },
    {
      "x": 213,
      "y": 56,
      "size": 1,
      "price": "4683000000000000000000",
      "reserved": "",
      "salt": "0x8deb8e295c630ce6834af2c1f90821720e720e9c3b4fadb8fc1e1b1546d3524b",
      "assetIds": []
    },
    {
      "x": 213,
      "y": 57,
      "size": 1,
      "price": "1011000000000000000000",
      "reserved": "",
      "salt": "0x62d8518cc7c69839536da989341899d8f85f83ddf6e848e6b616025bc98c8b39",
      "assetIds": []
    },
    {
      "x": 213,
      "y": 58,
      "size": 1,
      "price": "1011000000000000000000",
      "reserved": "",
      "salt": "0xd578bfc10b82ef0ca0c270e1176fa9a41f5c5651367bf1e2c6b0a7655c454625",
      "assetIds": []
    },
    {
      "x": 213,
      "y": 59,
      "size": 1,
      "price": "1011000000000000000000",
      "reserved": "",
      "salt": "0x5e228f6ea422f49cf88a2ad68d385b5b906904b5f7e0b5040790aed32698c5a4",
      "assetIds": []
    },
    {
      "x": 214,
      "y": 36,
      "size": 1,
      "price": "1011000000000000000000",
      "reserved": "",
      "salt": "0x23cf6f6bac74ee00a4728137728c12624dc1c916ee34324b643a695b0a85002a",
      "assetIds": []
    },
    {
      "x": 214,
      "y": 37,
      "size": 1,
      "price": "1011000000000000000000",
      "reserved": "0x7a9fe22691c811ea339d9b73150e6911a5343dca",
      "salt": "0x069a04c4f40d913e23fe03d27b947caebe4ca51d70e5972bd79222b0022a333b",
      "assetIds": []
    },
    {
      "x": 214,
      "y": 38,
      "size": 1,
      "price": "1011000000000000000000",
      "reserved": "",
      "salt": "0xf3e71f95602a2a23ad086ecbd1d9c342b3966a7adc75d63af509d154b7f130ab",
      "assetIds": []
    },
    {
      "x": 214,
      "y": 39,
      "size": 1,
      "price": "1011000000000000000000",
      "reserved": "",
      "salt": "0xa398498cb0ceec78dcbcde56b66e6bc3e78a955f60f39bd5151c0951aeb58bf3",
      "assetIds": []
    },
    {
      "x": 214,
      "y": 40,
      "size": 1,
      "price": "1011000000000000000000",
      "reserved": "",
      "salt": "0xc55ad5131ef2e257dc62ce7ab26fe5907228beafa20ba577db19272db563e6c6",
      "assetIds": []
    },
    {
      "x": 214,
      "y": 41,
      "size": 1,
      "price": "1011000000000000000000",
      "reserved": "",
      "salt": "0x037a627fecac53557d31f7ac8f34bc969b26122cad99f41aee365245261775be",
      "assetIds": []
    },
    {
      "x": 214,
      "y": 51,
      "size": 1,
      "price": "1011000000000000000000",
      "reserved": "",
      "salt": "0x1bc79f57c34f19fac89a97426987ad4b2e1c9fd519d45556a16172822b0beaa3",
      "assetIds": []
    },
    {
      "x": 214,
      "y": 52,
      "size": 1,
      "price": "1011000000000000000000",
      "reserved": "",
      "salt": "0x3448af2ffdf1c838fdc2be82a6f223dbcaabb1aef365c3a7d9dec51de06c255c",
      "assetIds": []
    },
    {
      "x": 214,
      "y": 53,
      "size": 1,
      "price": "1011000000000000000000",
      "reserved": "",
      "salt": "0x26d80e521d6962435d96404e7a01b13f03c65e8662958a5c9d303c447025c845",
      "assetIds": []
    },
    {
      "x": 214,
      "y": 54,
      "size": 1,
      "price": "1011000000000000000000",
      "reserved": "",
      "salt": "0x446fe5ec0402ba342255985d15a9309170d5f58cdea2bce016bbb1e9988c3adc",
      "assetIds": []
    },
    {
      "x": 214,
      "y": 55,
      "size": 1,
      "price": "1011000000000000000000",
      "reserved": "",
      "salt": "0xf3eacc6faed234aa383b3d1bf9beeb7a00e12f0ab28aec266b5c1a66772ad3d7",
      "assetIds": []
    },
    {
      "x": 214,
      "y": 56,
      "size": 1,
      "price": "1011000000000000000000",
      "reserved": "",
      "salt": "0x12585c9e01a707fdcf0570d30f7a3c0ad0e7476f7f0cab874b86b82ebecd19f1",
      "assetIds": []
    },
    {
      "x": 214,
      "y": 57,
      "size": 1,
      "price": "1011000000000000000000",
      "reserved": "",
      "salt": "0x94f9bc88ebe1dce25ee31aa9343e6d9d80734aee77c4d10fbf377ade071ad617",
      "assetIds": []
    },
    {
      "x": 214,
      "y": 59,
      "size": 1,
      "price": "1011000000000000000000",
      "reserved": "",
      "salt": "0x2821de69cf6d26ab6f6b4cab17ca36a76989ee38fbfc2dfc925af69974762664",
      "assetIds": []
    },
    {
      "x": 215,
      "y": 36,
      "size": 1,
      "price": "1011000000000000000000",
      "reserved": "0x7a9fe22691c811ea339d9b73150e6911a5343dca",
      "salt": "0x09e98acffe9f86167b83993077fac04e7a351cfa33cefe7c323361731a00062d",
      "assetIds": []
    },
    {
      "x": 215,
      "y": 37,
      "size": 1,
      "price": "1011000000000000000000",
      "reserved": "",
      "salt": "0x5d66cf9d270b2a1cabf036d8d30f7d6c266363a91e28293c26aa8aa2fef84cf9",
      "assetIds": []
    },
    {
      "x": 215,
      "y": 38,
      "size": 1,
      "price": "1011000000000000000000",
      "reserved": "",
      "salt": "0x96644629874030c4c818d3f889cf1dd4e8de6138eeb1745b15f22303681b7fb6",
      "assetIds": []
    },
    {
      "x": 215,
      "y": 39,
      "size": 1,
      "price": "1011000000000000000000",
      "reserved": "0x7a9fe22691c811ea339d9b73150e6911a5343dca",
      "salt": "0x4b24f835bb96f17ef70b6f6848005afc420ee60527208e0c470d11cd9c541c87",
      "assetIds": []
    },
    {
      "x": 215,
      "y": 40,
      "size": 1,
      "price": "1011000000000000000000",
      "reserved": "",
      "salt": "0x9a987573898663937840e849d893d6552e9e447f443344c67abd6074f03b55b5",
      "assetIds": []
    },
    {
      "x": 215,
      "y": 41,
      "size": 1,
      "price": "1011000000000000000000",
      "reserved": "",
      "salt": "0x4e5bf05c28511f90dd5713f59bc77a554d4c51b92f3c60182eac7a35370ae2b1",
      "assetIds": []
    },
    {
      "x": 215,
      "y": 51,
      "size": 1,
      "price": "1011000000000000000000",
      "reserved": "",
      "salt": "0x3f369b3e250cf2ca59356d29cc3a855b12755cfa611ef026954d13b15083f0e0",
      "assetIds": []
    },
    {
      "x": 215,
      "y": 52,
      "size": 1,
      "price": "1011000000000000000000",
      "reserved": "0x7a9fe22691c811ea339d9b73150e6911a5343dca",
      "salt": "0xedf5ff87d4838091dfa937b317a7876797c06fef7dad6e09c44835ac19d86964",
      "assetIds": []
    },
    {
      "x": 215,
      "y": 53,
      "size": 1,
      "price": "1011000000000000000000",
      "reserved": "",
      "salt": "0x8d75924a11fd47528ccc783d9a181f0c1b20e1de7a90a6b7392a932ac27911cb",
      "assetIds": []
    },
    {
      "x": 215,
      "y": 54,
      "size": 1,
      "price": "1011000000000000000000",
      "reserved": "",
      "salt": "0x628e2676caff0055575c725a559fe2b6724981ddb7490c196964af2d76eaf77b",
      "assetIds": []
    },
    {
      "x": 215,
      "y": 55,
      "size": 1,
      "price": "1011000000000000000000",
      "reserved": "",
      "salt": "0x1ed6a65bc92403bfbdd0fcee85c06b460419cc994915afb2019d2d0f93ad86af",
      "assetIds": []
    },
    {
      "x": 215,
      "y": 56,
      "size": 1,
      "price": "1011000000000000000000",
      "reserved": "",
      "salt": "0x34236e1bcbf2126f4d44a8e093f4f25fb17b68abc2c0c6b43e912e8ae682f94a",
      "assetIds": []
    },
    {
      "x": 215,
      "y": 57,
      "size": 1,
      "price": "1011000000000000000000",
      "reserved": "",
      "salt": "0xb681cd377b0dee4aaab8a2ca00f0edbb816c25c8c9e0dec1a836f8640fa17e2e",
      "assetIds": []
    },
    {
      "x": 215,
      "y": 58,
      "size": 1,
      "price": "1011000000000000000000",
      "reserved": "",
      "salt": "0xc7b512568ce01b13f0d1d18088fae4a40ce70da5fd2ac0ac40116d9134c87a16",
      "assetIds": []
    },
    {
      "x": 215,
      "y": 59,
      "size": 1,
      "price": "1011000000000000000000",
      "reserved": "",
      "salt": "0xb0ea3b782292aea2bd1c8fc39a3bffe97fca469ca819ff598987e54c01bf69b7",
      "assetIds": []
    },
    {
      "x": 216,
      "y": 42,
      "size": 1,
      "price": "1011000000000000000000",
      "reserved": "0x7a9fe22691c811ea339d9b73150e6911a5343dca",
      "salt": "0x13dc492e2a88a778f3a07af1345db4acc1119e7f4a4f34a89e8be6aa49f6dd6b",
      "assetIds": []
    },
    {
      "x": 216,
      "y": 43,
      "size": 1,
      "price": "1011000000000000000000",
      "reserved": "",
      "salt": "0x728b44e8f723343be2832d2d588ea0b6ed94155ca822e4c90cdbc977ce31d889",
      "assetIds": []
    },
    {
      "x": 216,
      "y": 44,
      "size": 1,
      "price": "1011000000000000000000",
      "reserved": "",
      "salt": "0x6da9b41cddc446c1139b3ddf044f50b0b93b6c197654ab2b9277e8ad978e2fc3",
      "assetIds": []
    },
    {
      "x": 216,
      "y": 45,
      "size": 1,
      "price": "1011000000000000000000",
      "reserved": "",
      "salt": "0x079e8d3a2a9ea67a598e463ba9204d384e0e55c667bc808409926e14628a7474",
      "assetIds": []
    },
    {
      "x": 216,
      "y": 46,
      "size": 1,
      "price": "1011000000000000000000",
      "reserved": "",
      "salt": "0x2ed6a3de183ec3c45eba6f4a71fa3b842169ea694d0e10058c770f04bc91d929",
      "assetIds": []
    },
    {
      "x": 216,
      "y": 47,
      "size": 1,
      "price": "1011000000000000000000",
      "reserved": "",
      "salt": "0xe77cda23b8c10f446ca7ed7dba7abb0b190b31dbab366f01009b82e0da8cd57d",
      "assetIds": []
    },
    {
      "x": 216,
      "y": 54,
      "size": 1,
      "price": "1011000000000000000000",
      "reserved": "0x7a9fe22691c811ea339d9b73150e6911a5343dca",
      "salt": "0x014cde933afa245e409c6a02f7bc2c0f40c48cf0eb7b92e98d09b7b8542064f8",
      "assetIds": []
    },
    {
      "x": 216,
      "y": 55,
      "size": 1,
      "price": "1011000000000000000000",
      "reserved": "",
      "salt": "0xf814695193eed7453eb2915defbcdaaedc316cbbe7b8af63e509d0335fe5edba",
      "assetIds": []
    },
    {
      "x": 216,
      "y": 56,
      "size": 1,
      "price": "1011000000000000000000",
      "reserved": "",
      "salt": "0x8c05bae530547e1509891983cc29f99e13939dd63ebd40b345489cff61139dce",
      "assetIds": []
    },
    {
      "x": 216,
      "y": 57,
      "size": 1,
      "price": "1011000000000000000000",
      "reserved": "",
      "salt": "0x627b82b08afcaae6c5921694aa7b8d87e21f78e1f00abde5470d7c65dc8edb1d",
      "assetIds": []
    },
    {
      "x": 216,
      "y": 58,
      "size": 1,
      "price": "1011000000000000000000",
      "reserved": "",
      "salt": "0x0c3cb0111099081ea26d7acd9e02fda4462f731d8a9dc263c130cd712a52fd85",
      "assetIds": []
    },
    {
      "x": 216,
      "y": 59,
      "size": 1,
      "price": "1011000000000000000000",
      "reserved": "",
      "salt": "0xb25948b69dab3e4fc2a13ba913f880dc4ccd82ec764e1845690b81fe50315a74",
      "assetIds": []
    },
    {
      "x": 217,
      "y": 42,
      "size": 1,
      "price": "1011000000000000000000",
      "reserved": "",
      "salt": "0x5ddd156dd664c91e2e4f84a61986ad815f98ab916ce2f6cbc9bbe87b31123da9",
      "assetIds": []
    },
    {
      "x": 217,
      "y": 43,
      "size": 1,
      "price": "1011000000000000000000",
      "reserved": "0x7a9fe22691c811ea339d9b73150e6911a5343dca",
      "salt": "0xdbb9f1af6291c08d9e139aa408e239d300b37f0c8c3dd4e29d703de48b92c022",
      "assetIds": []
    },
    {
      "x": 217,
      "y": 44,
      "size": 1,
      "price": "1011000000000000000000",
      "reserved": "",
      "salt": "0x539d9db21668a09ea3dd080c4462baa6c4dd936aa49be1122b8dffd81084f533",
      "assetIds": []
    },
    {
      "x": 217,
      "y": 45,
      "size": 1,
      "price": "1011000000000000000000",
      "reserved": "",
      "salt": "0xd25b5661f787a853fe5fce03cf4c0abde00e0d6668ff47f498fcd22606389572",
      "assetIds": []
    },
    {
      "x": 217,
      "y": 46,
      "size": 1,
      "price": "1011000000000000000000",
      "reserved": "0x7a9fe22691c811ea339d9b73150e6911a5343dca",
      "salt": "0x784e90e0420e4e87a9b93600cfa41a76580e75c3bc0a5d4ce9656d94665a44c5",
      "assetIds": []
    },
    {
      "x": 217,
      "y": 47,
      "size": 1,
      "price": "1011000000000000000000",
      "reserved": "",
      "salt": "0x82a6778cd4778ccdae740d07b9f370af16488062bdbe22b85b274c3564eecb8e",
      "assetIds": []
    },
    {
      "x": 217,
      "y": 54,
      "size": 1,
      "price": "1011000000000000000000",
      "reserved": "",
      "salt": "0x15d15504e45ae49bf1befc7fe9878655caaa86d5828a189a9db74af9b725c5cc",
      "assetIds": []
    },
    {
      "x": 217,
      "y": 55,
      "size": 1,
      "price": "1011000000000000000000",
      "reserved": "0x7a9fe22691c811ea339d9b73150e6911a5343dca",
      "salt": "0x6f6ba9a13a7f4478407c7480f8b9907242a71ee0ad1244aac8f9f89d5d834aaa",
      "assetIds": []
    },
    {
      "x": 217,
      "y": 56,
      "size": 1,
      "price": "1011000000000000000000",
      "reserved": "",
      "salt": "0x1ae919297d585959ce7c89209fdea62d2008d2262966877866f3426865bf1752",
      "assetIds": []
    },
    {
      "x": 217,
      "y": 57,
      "size": 1,
      "price": "1011000000000000000000",
      "reserved": "",
      "salt": "0x02d9b469c2abf409fa29c29c27bdf98237df334721a757f91c415d9dc4a66a95",
      "assetIds": []
    },
    {
      "x": 217,
      "y": 58,
      "size": 1,
      "price": "1011000000000000000000",
      "reserved": "0x7a9fe22691c811ea339d9b73150e6911a5343dca",
      "salt": "0xed2b5794052c0d6cf2b16db367abd321aa0d5f0347d534fdc42959cddaaf0226",
      "assetIds": []
    },
    {
      "x": 217,
      "y": 59,
      "size": 1,
      "price": "1011000000000000000000",
      "reserved": "",
      "salt": "0x54e69423f31395913ff4e76e747f5cea0d8641e80b1993fb816ccd203465ee37",
      "assetIds": []
    },
    {
      "x": 218,
      "y": 42,
      "size": 1,
      "price": "1011000000000000000000",
      "reserved": "",
      "salt": "0x0b5b84828099dd4d0da9eda0d883897311e268302d948cc0672bf573a10b60cf",
      "assetIds": []
    },
    {
      "x": 218,
      "y": 43,
      "size": 1,
      "price": "1011000000000000000000",
      "reserved": "",
      "salt": "0x79d86e35d3da57b3be2c54e019b281de5d226ff8ae848ecf389599a4e944293d",
      "assetIds": []
    },
    {
      "x": 218,
      "y": 44,
      "size": 1,
      "price": "1011000000000000000000",
      "reserved": "",
      "salt": "0xe32bb3846354185952726c328222c7b056fdb4f4cc52b5480713ac5aebdd013e",
      "assetIds": []
    },
    {
      "x": 218,
      "y": 45,
      "size": 1,
      "price": "1011000000000000000000",
      "reserved": "",
      "salt": "0xe8cc01df673e7342f0e2c49f53f77a1e23080d1a2ca57c023a24347153ea305b",
      "assetIds": []
    },
    {
      "x": 218,
      "y": 46,
      "size": 1,
      "price": "1011000000000000000000",
      "reserved": "",
      "salt": "0x6ddafa0abf8724bd57574d059e947e9c6cfe5637f28e4b16db1c7c0eb254c074",
      "assetIds": []
    },
    {
      "x": 218,
      "y": 47,
      "size": 1,
      "price": "1011000000000000000000",
      "reserved": "0x7a9fe22691c811ea339d9b73150e6911a5343dca",
      "salt": "0x19f7c7c0583dca6e470d978cc8bdffebb4d71f8b36ce85fdf9340dc3a5666026",
      "assetIds": []
    },
    {
      "x": 218,
      "y": 54,
      "size": 1,
      "price": "1011000000000000000000",
      "reserved": "",
      "salt": "0xf23f26f5f658b42fe8aad6a3b8a352bd6a99595472af4e6d5c36f74fcb44072f",
      "assetIds": []
    },
    {
      "x": 218,
      "y": 55,
      "size": 1,
      "price": "1011000000000000000000",
      "reserved": "",
      "salt": "0x5c2f934862d7f43c267a9db4e11b569a715f350f729e15243f0cc7dcc171c8d1",
      "assetIds": []
    },
    {
      "x": 218,
      "y": 56,
      "size": 1,
      "price": "1011000000000000000000",
      "reserved": "",
      "salt": "0xd652212825a703ba720cc7a07589fe1627f49d150107959f7a9db63264a19686",
      "assetIds": []
    },
    {
      "x": 218,
      "y": 57,
      "size": 1,
      "price": "1011000000000000000000",
      "reserved": "",
      "salt": "0xc163a86e8bc9288610cfdbdd09c869a3f140cf903f3f124a370bfddade43f7a2",
      "assetIds": []
    },
    {
      "x": 218,
      "y": 58,
      "size": 1,
      "price": "1011000000000000000000",
      "reserved": "",
      "salt": "0xb3bdb8c82eb858bf7468e496a98705b36340bf0f1f9b6fbe1504d43b33d73bef",
      "assetIds": []
    },
    {
      "x": 218,
      "y": 59,
      "size": 1,
      "price": "1011000000000000000000",
      "reserved": "",
      "salt": "0xdd978c428a4547f930c7d48b75f2cbf41e997f000d8628372bf2a112c399aa35",
      "assetIds": []
    },
    {
      "x": 219,
      "y": 42,
      "size": 1,
      "price": "1011000000000000000000",
      "reserved": "0x7a9fe22691c811ea339d9b73150e6911a5343dca",
      "salt": "0xe83ac392e61a4b0925d185c4db2ebcd1009f652435cec3679faa47330cb44b0d",
      "assetIds": []
    },
    {
      "x": 219,
      "y": 43,
      "size": 1,
      "price": "1011000000000000000000",
      "reserved": "",
      "salt": "0xd0b7fdecd92bc9ca2629d0ca701b83eb83ad26eab58012c686f644c9b1d13705",
      "assetIds": []
    },
    {
      "x": 219,
      "y": 44,
      "size": 1,
      "price": "1011000000000000000000",
      "reserved": "",
      "salt": "0x852cdd55da2895e9e754bbd57c6feaa86b74be2e579c8986e0c06ee7932b336c",
      "assetIds": []
    },
    {
      "x": 219,
      "y": 45,
      "size": 1,
      "price": "1011000000000000000000",
      "reserved": "",
      "salt": "0x90d369e6cff42843156861ebeef746ddaaeecd8ef980da0eeed16d03b10da599",
      "assetIds": []
    },
    {
      "x": 219,
      "y": 46,
      "size": 1,
      "price": "1011000000000000000000",
      "reserved": "",
      "salt": "0x78af441b3484975d9c43308044af6f04b2c04bff89bb127452b960a52edc73e1",
      "assetIds": []
    },
    {
      "x": 219,
      "y": 47,
      "size": 1,
      "price": "1011000000000000000000",
      "reserved": "",
      "salt": "0xd9650b1c6451a5f2adc8203b338a1f71c9c4106d80c8fcb9be415f954d95f585",
      "assetIds": []
    },
    {
      "x": 219,
      "y": 54,
      "size": 1,
      "price": "1011000000000000000000",
      "reserved": "0x7a9fe22691c811ea339d9b73150e6911a5343dca",
      "salt": "0xae943bb5c1dd0b468693b62f88e6b7b96c0895d1302bb6276df071f3cd9b4b09",
      "assetIds": []
    },
    {
      "x": 219,
      "y": 55,
      "size": 1,
      "price": "1011000000000000000000",
      "reserved": "",
      "salt": "0x125809b530675bfdbe5b263fd19aaa383cfcaa7933cce2c0e23fec9f5cfa870f",
      "assetIds": []
    },
    {
      "x": 219,
      "y": 56,
      "size": 1,
      "price": "1011000000000000000000",
      "reserved": "",
      "salt": "0xcada632f5f09dbf9a962833d2b17fb14d4a73b766057d492fec017ca8c52f186",
      "assetIds": []
    },
    {
      "x": 219,
      "y": 57,
      "size": 1,
      "price": "1011000000000000000000",
      "reserved": "",
      "salt": "0xc740410254593e50aadf3c0ecef6daac252ecf5ad62e2fd1685fc7a1ef2125da",
      "assetIds": []
    },
    {
      "x": 219,
      "y": 58,
      "size": 1,
      "price": "1011000000000000000000",
      "reserved": "",
      "salt": "0xe204e83cc3b5e5dadd237048ce2c6389efb616c4d417192a4a08d6e9ae2d2353",
      "assetIds": []
    },
    {
      "x": 219,
      "y": 59,
      "size": 1,
      "price": "1011000000000000000000",
      "reserved": "",
      "salt": "0xf5394ebe74d87ad98eca0bcd429e16e2e92b29d5075344f2d41287ab96de308e",
      "assetIds": []
    },
    {
      "x": 220,
      "y": 42,
      "size": 1,
      "price": "1011000000000000000000",
      "reserved": "",
      "salt": "0xeddb6983bb8ba2b5bb7e94de8246a2c24be5e3198e0e6ea3ed290e86db4b0596",
      "assetIds": []
    },
    {
      "x": 220,
      "y": 43,
      "size": 1,
      "price": "1011000000000000000000",
      "reserved": "0x7a9fe22691c811ea339d9b73150e6911a5343dca",
      "salt": "0x030eebc7dd80f5da1f89a7c743eb1d7bd5260b1dc916b2056e5f7c8da2b1109a",
      "assetIds": []
    },
    {
      "x": 220,
      "y": 44,
      "size": 1,
      "price": "1011000000000000000000",
      "reserved": "",
      "salt": "0x7cc89a1da0314b6209dfec2d6f5c87dd59beee2f089f3ca0be5ac4bfbca7b1cf",
      "assetIds": []
    },
    {
      "x": 220,
      "y": 45,
      "size": 1,
      "price": "1011000000000000000000",
      "reserved": "",
      "salt": "0xb450dca944cced50d0dfe56f5278f3d3aff2830dc6476cd3f9b11af08d197f13",
      "assetIds": []
    },
    {
      "x": 220,
      "y": 46,
      "size": 1,
      "price": "1011000000000000000000",
      "reserved": "0x7a9fe22691c811ea339d9b73150e6911a5343dca",
      "salt": "0x65cf8cada0fdf149f2ef61fd673d3d3426ecd3f087e84a9c1222821ce155bf17",
      "assetIds": []
    },
    {
      "x": 220,
      "y": 47,
      "size": 1,
      "price": "1011000000000000000000",
      "reserved": "",
      "salt": "0x0ccce0cd1b0d5a7fe6ca94f2074766feb0a9034b972dca8defec666f66b2adef",
      "assetIds": []
    },
    {
      "x": 220,
      "y": 54,
      "size": 1,
      "price": "1011000000000000000000",
      "reserved": "",
      "salt": "0x7bd4530dca534455a498c487a8e4e7088e1918b2c07fb8a072e95284841da8b3",
      "assetIds": []
    },
    {
      "x": 220,
      "y": 55,
      "size": 1,
      "price": "1011000000000000000000",
      "reserved": "0x7a9fe22691c811ea339d9b73150e6911a5343dca",
      "salt": "0xbb5b639230ab5b0d7ad8b8eeca582facf8280fd196dcd58f153775bef2bc485c",
      "assetIds": []
    },
    {
      "x": 220,
      "y": 56,
      "size": 1,
      "price": "1011000000000000000000",
      "reserved": "",
      "salt": "0xba7715b066416e427bda9cca25366863e2511e8c14711819e61f0b3b671bbfd5",
      "assetIds": []
    },
    {
      "x": 220,
      "y": 57,
      "size": 1,
      "price": "1011000000000000000000",
      "reserved": "",
      "salt": "0x6c61efe169f00f88f324cc629992c119e4c43e0d9fce35175b562d014847953c",
      "assetIds": []
    },
    {
      "x": 220,
      "y": 58,
      "size": 1,
      "price": "1011000000000000000000",
      "reserved": "0x7a9fe22691c811ea339d9b73150e6911a5343dca",
      "salt": "0xbcee204f2941528ca4fa4fde080f84454505982a23eda5873af6d97e79ade35c",
      "assetIds": []
    },
    {
      "x": 220,
      "y": 59,
      "size": 1,
      "price": "1011000000000000000000",
      "reserved": "",
      "salt": "0x078b71c37965e37a178b345ba7d5d76da044eb3f3b7b20b12815f0cf4290fae7",
      "assetIds": []
    },
    {
      "x": 221,
      "y": 42,
      "size": 1,
      "price": "1011000000000000000000",
      "reserved": "",
      "salt": "0x0645e00047a6ac32be936cf9eda4717ffb616f80baf21f6a5349ff50df4f219d",
      "assetIds": []
    },
    {
      "x": 221,
      "y": 43,
      "size": 1,
      "price": "1011000000000000000000",
      "reserved": "",
      "salt": "0x53b9c0dc9ac67ab4c8cee340e7705ffa10d1f900838d8536272d6dbb1ac22e4f",
      "assetIds": []
    },
    {
      "x": 221,
      "y": 44,
      "size": 1,
      "price": "1011000000000000000000",
      "reserved": "",
      "salt": "0x2d145d15a91af9f9fbee383698a11594bc891d655a4d0400b3dc08cccc5c0309",
      "assetIds": []
    },
    {
      "x": 221,
      "y": 45,
      "size": 1,
      "price": "1011000000000000000000",
      "reserved": "",
      "salt": "0xea18513cd1696a625c61adb7f0abbd802450aedcd1a030c1fdc01e9bfcaa1bd0",
      "assetIds": []
    },
    {
      "x": 221,
      "y": 46,
      "size": 1,
      "price": "1011000000000000000000",
      "reserved": "",
      "salt": "0x85578d463a0474b8edf91aa65a2427c7dfb5f911d0bb230798a8ba234e4638cd",
      "assetIds": []
    },
    {
      "x": 221,
      "y": 47,
      "size": 1,
      "price": "1011000000000000000000",
      "reserved": "0x7a9fe22691c811ea339d9b73150e6911a5343dca",
      "salt": "0x5ffe8d598b98ae380f88572c0786c704d4ed80ce1b4c9146e130267fb2097f24",
      "assetIds": []
    },
    {
      "x": 221,
      "y": 54,
      "size": 1,
      "price": "1011000000000000000000",
      "reserved": "",
      "salt": "0xde202fefb6364ae1dbb082788651c74509ac8935ed666f166b4138984097110c",
      "assetIds": []
    },
    {
      "x": 221,
      "y": 55,
      "size": 1,
      "price": "1011000000000000000000",
      "reserved": "",
      "salt": "0x8fc7d8e79a7a35e5de01608ecaa8d24d4a64c2b276fd5cfe780cdf7fb8240bca",
      "assetIds": []
    },
    {
      "x": 221,
      "y": 56,
      "size": 1,
      "price": "1011000000000000000000",
      "reserved": "",
      "salt": "0x85dcbaf0dd0823ef36854bab46588afbd263702b0ba4b667ba8d9fe7b2ea2487",
      "assetIds": []
    },
    {
      "x": 221,
      "y": 57,
      "size": 1,
      "price": "1011000000000000000000",
      "reserved": "",
      "salt": "0x606c610b524ecacf42417a671ad8b0909d71781de95dd847fcbede6998c5f315",
      "assetIds": []
    },
    {
      "x": 221,
      "y": 58,
      "size": 1,
      "price": "1011000000000000000000",
      "reserved": "",
      "salt": "0x68c4518f9e7831c2a1b7aea977f7c37d54b4957d3a7bb202598f518e383925e4",
      "assetIds": []
    },
    {
      "x": 221,
      "y": 59,
      "size": 1,
      "price": "1011000000000000000000",
      "reserved": "",
      "salt": "0x03ca5813499a68b8131af84be046ec2750f6994fa102ce4e708f90668ab09003",
      "assetIds": []
    },
    {
      "x": 222,
      "y": 42,
      "size": 1,
      "price": "1011000000000000000000",
      "reserved": "",
      "salt": "0x5d72cb1bfd7951452298acf540c4a252a26ed012c70864b52df91b07cab08abe",
      "assetIds": []
    },
    {
      "x": 222,
      "y": 43,
      "size": 1,
      "price": "1011000000000000000000",
      "reserved": "",
      "salt": "0x96dee3a87db63ac9e25037da36e4adf879483c2d77d58204240dbb4453a5bdf2",
      "assetIds": []
    },
    {
      "x": 222,
      "y": 44,
      "size": 1,
      "price": "1011000000000000000000",
      "reserved": "0x7a9fe22691c811ea339d9b73150e6911a5343dca",
      "salt": "0x8be505c9acf6da11d193d7789b95329615d94fe4cc335669677be547eb99aad6",
      "assetIds": []
    },
    {
      "x": 222,
      "y": 48,
      "size": 1,
      "price": "1011000000000000000000",
      "reserved": "0x7a9fe22691c811ea339d9b73150e6911a5343dca",
      "salt": "0xad962ef0958e44da1b8100fb13cf22dee8d5804bf6c2bcb7000c459abfd2e970",
      "assetIds": []
    },
    {
      "x": 222,
      "y": 49,
      "size": 1,
      "price": "1011000000000000000000",
      "reserved": "",
      "salt": "0x91b4d4f5bce0c16a5a6d0d2fb7c0e69cb55037f1c038cda35a6f08389c1db61b",
      "assetIds": []
    },
    {
      "x": 222,
      "y": 50,
      "size": 1,
      "price": "1011000000000000000000",
      "reserved": "",
      "salt": "0x164f2ab6a1fc89944fed3b4a2b3180f016fe9b25a69bfc9027ea64bc201c1c2d",
      "assetIds": []
    },
    {
      "x": 222,
      "y": 51,
      "size": 1,
      "price": "1011000000000000000000",
      "reserved": "0x7a9fe22691c811ea339d9b73150e6911a5343dca",
      "salt": "0xcccee629035f6c7166ba6a03daae8be6146f25b63dbb64ccfcba5b74c2041969",
      "assetIds": []
    },
    {
      "x": 222,
      "y": 52,
      "size": 1,
      "price": "1011000000000000000000",
      "reserved": "",
      "salt": "0x3ff14edbeac1063e2bf29d2c8884feed5b2ce4f1987eb8ed1674e946c86ccd15",
      "assetIds": []
    },
    {
      "x": 222,
      "y": 53,
      "size": 1,
      "price": "1011000000000000000000",
      "reserved": "",
      "salt": "0xdbf7446a81fff3e9f5dd6b425199b2bcc470ea2e682b58c6093913066a29f554",
      "assetIds": []
    },
    {
      "x": 222,
      "y": 54,
      "size": 1,
      "price": "1011000000000000000000",
      "reserved": "",
      "salt": "0xec0292f650696f8b0b1aa4728288a903925fa4056a692543eb70d82316bda345",
      "assetIds": []
    },
    {
      "x": 222,
      "y": 55,
      "size": 1,
      "price": "1011000000000000000000",
      "reserved": "",
      "salt": "0x9a8022e35b19852e3b1d68bf5401a78fc29207b9ec0ce95c75dbe78251d5dba0",
      "assetIds": []
    },
    {
      "x": 222,
      "y": 56,
      "size": 1,
      "price": "1011000000000000000000",
      "reserved": "",
      "salt": "0xeb54d2ecd278b50a3c92c33945ff529c435ad44de6b4b6754c6082c770b54b02",
      "assetIds": []
    },
    {
      "x": 222,
      "y": 57,
      "size": 1,
      "price": "1011000000000000000000",
      "reserved": "",
      "salt": "0x3928982ef8eecc52a6d5dedfd638c701b3469ac66984ebeb6178bb120e0f7183",
      "assetIds": []
    },
    {
      "x": 222,
      "y": 58,
      "size": 1,
      "price": "1011000000000000000000",
      "reserved": "",
      "salt": "0x4d73468bd57c928882e40d3e08ea0b6d545c5bba5ffc5605e0d8d0e189b7654e",
      "assetIds": []
    },
    {
      "x": 222,
      "y": 59,
      "size": 1,
      "price": "1011000000000000000000",
      "reserved": "",
      "salt": "0xeecce555d00724cd569fda1c43e65d51d83c0af3715c3cce4ae00cd35d33886f",
      "assetIds": []
    },
    {
      "x": 223,
      "y": 42,
      "size": 1,
      "price": "1011000000000000000000",
      "reserved": "",
      "salt": "0xce0e1b89c8aa9fdd8daa5ba97f6aaca1b6a452c881597e166fd1805ceae919cf",
      "assetIds": []
    },
    {
      "x": 223,
      "y": 43,
      "size": 1,
      "price": "1011000000000000000000",
      "reserved": "0x7a9fe22691c811ea339d9b73150e6911a5343dca",
      "salt": "0x2f1e506c89fb08448836975b3a69beb5d0ec2a773c903d48f44dfb2a59e9916b",
      "assetIds": []
    },
    {
      "x": 223,
      "y": 44,
      "size": 1,
      "price": "1011000000000000000000",
      "reserved": "",
      "salt": "0xe88452ea2d971810389e22c3318fce1e5ce2ce3853504de664503b5e02c33269",
      "assetIds": []
    },
    {
      "x": 223,
      "y": 48,
      "size": 1,
      "price": "1011000000000000000000",
      "reserved": "",
      "salt": "0x23fbc384bc2bccd4260d406de4e3091a7ee1155b8642c414c207b99d28f7eb15",
      "assetIds": []
    },
    {
      "x": 223,
      "y": 49,
      "size": 1,
      "price": "1011000000000000000000",
      "reserved": "0x7a9fe22691c811ea339d9b73150e6911a5343dca",
      "salt": "0xebedd8a7e7fb5b48ceaa7e24385813843aabbaafbdffa845d038f659971694df",
      "assetIds": []
    },
    {
      "x": 223,
      "y": 50,
      "size": 1,
      "price": "1011000000000000000000",
      "reserved": "",
      "salt": "0x200a5f9d182bc57ad55da4e9b12f09d03d9c761ee6227b3aa21065f76b4f4be1",
      "assetIds": []
    },
    {
      "x": 223,
      "y": 51,
      "size": 1,
      "price": "1011000000000000000000",
      "reserved": "",
      "salt": "0x411fda714989ac826f37b4ae57063d7e7b780c36e1153ce67ffb4caff853af63",
      "assetIds": []
    },
    {
      "x": 223,
      "y": 52,
      "size": 1,
      "price": "1011000000000000000000",
      "reserved": "0x7a9fe22691c811ea339d9b73150e6911a5343dca",
      "salt": "0x8c55d14bf97195601619ebe1b4a844b5571cec2b8c541a56cb1d92ab705e0eaa",
      "assetIds": []
    },
    {
      "x": 223,
      "y": 53,
      "size": 1,
      "price": "1011000000000000000000",
      "reserved": "",
      "salt": "0x70e9dee06d4c08010f244e014090da992ac0945088232a2b15e538865403842f",
      "assetIds": []
    },
    {
      "x": 223,
      "y": 54,
      "size": 1,
      "price": "1011000000000000000000",
      "reserved": "",
      "salt": "0xf15033b00216875a138af9b175c94f8ea6ea71f24eae45b125d2787e32ef0e74",
      "assetIds": []
    },
    {
      "x": 223,
      "y": 55,
      "size": 1,
      "price": "1011000000000000000000",
      "reserved": "0x7a9fe22691c811ea339d9b73150e6911a5343dca",
      "salt": "0x6dc6800bd5862d90aed0ba18a3130f2dd1b21260d9826857d4eb7cc4fa474a9a",
      "assetIds": []
    },
    {
      "x": 223,
      "y": 56,
      "size": 1,
      "price": "1011000000000000000000",
      "reserved": "",
      "salt": "0xd5f6f4b79e59359778b94bb4ac61a8353705fb2255389b67093ef8c6c8f08386",
      "assetIds": []
    },
    {
      "x": 223,
      "y": 57,
      "size": 1,
      "price": "1011000000000000000000",
      "reserved": "",
      "salt": "0x1be5d5d983b1dabd1177077a5614edbca412e26d834de905e6afcef633bc5998",
      "assetIds": []
    },
    {
      "x": 223,
      "y": 58,
      "size": 1,
      "price": "1011000000000000000000",
      "reserved": "0x7a9fe22691c811ea339d9b73150e6911a5343dca",
      "salt": "0x9b50ca5cc85c51f67a5277fb19cda674a9f05de27123340dd4b7cdb7d82d8e43",
      "assetIds": []
    },
    {
      "x": 223,
      "y": 59,
      "size": 1,
      "price": "1011000000000000000000",
      "reserved": "",
      "salt": "0x3a2174ebef6cebd877e3bff8e9aee8e5a933c7d4df938b3f82f15ea70cb58812",
      "assetIds": []
    },
    {
      "x": 224,
      "y": 42,
      "size": 1,
      "price": "1011000000000000000000",
      "reserved": "",
      "salt": "0x10d0044c8da3c80a37f1edd07260112c49a4be9fe3935897f5911d8c41d7b336",
      "assetIds": []
    },
    {
      "x": 224,
      "y": 43,
      "size": 1,
      "price": "1011000000000000000000",
      "reserved": "",
      "salt": "0x12db278ae41bb9cbfba831102c531a6a197f2ecfde01c962736f72cae08a4e90",
      "assetIds": []
    },
    {
      "x": 224,
      "y": 44,
      "size": 1,
      "price": "1011000000000000000000",
      "reserved": "",
      "salt": "0x7ebfb95eea54f910029fd494fa0fe32619b9a65ed058e71bde0e4d4fc6070a03",
      "assetIds": []
    },
    {
      "x": 224,
      "y": 48,
      "size": 1,
      "price": "1011000000000000000000",
      "reserved": "",
      "salt": "0x11cc1adac60559cebb12d6f0518eedffb5431c4aee64273628ffbd0f84696054",
      "assetIds": []
    },
    {
      "x": 224,
      "y": 49,
      "size": 1,
      "price": "1011000000000000000000",
      "reserved": "",
      "salt": "0x9e7bd37752286befdf351a59ae7d993a0242b84851336d2b629bdc15b0249781",
      "assetIds": []
    },
    {
      "x": 224,
      "y": 50,
      "size": 1,
      "price": "1011000000000000000000",
      "reserved": "",
      "salt": "0x6842022c07744b07a25352cde71b8bf35b709adfa7a7ac28e666d7996626574e",
      "assetIds": []
    },
    {
      "x": 224,
      "y": 51,
      "size": 1,
      "price": "1011000000000000000000",
      "reserved": "",
      "salt": "0xcf5388d14e9c05ff038b1041d8e9050ca560c0d2a65e52df258161d58ce631af",
      "assetIds": []
    },
    {
      "x": 224,
      "y": 52,
      "size": 1,
      "price": "1011000000000000000000",
      "reserved": "",
      "salt": "0x821187f885b3ed800616ef9694ba3ea23e7ab6d97fedc7a9a806917765abe184",
      "assetIds": []
    },
    {
      "x": 224,
      "y": 53,
      "size": 1,
      "price": "1011000000000000000000",
      "reserved": "",
      "salt": "0xa2133acecb47827848cb83854def324c39b567091ea4c41cae1843fe3fa83cc7",
      "assetIds": []
    },
    {
      "x": 224,
      "y": 54,
      "size": 1,
      "price": "1011000000000000000000",
      "reserved": "",
      "salt": "0xe8fe503eca7d600f8d44d9dbf08deb8135ffb38aa0446508c5d7a895533faf7a",
      "assetIds": []
    },
    {
      "x": 224,
      "y": 55,
      "size": 1,
      "price": "1011000000000000000000",
      "reserved": "",
      "salt": "0x05173a19191fa54b1a7bc3deaf7fc98995499163166d34e50305f93a36a4fc03",
      "assetIds": []
    },
    {
      "x": 224,
      "y": 56,
      "size": 1,
      "price": "1011000000000000000000",
      "reserved": "",
      "salt": "0x07abb13a2ffb7785cd49a6611cabc389d576bb5c93133774ca206b73cb7b7f64",
      "assetIds": []
    },
    {
      "x": 224,
      "y": 57,
      "size": 1,
      "price": "1011000000000000000000",
      "reserved": "",
      "salt": "0x7ac18710970937650f2065a0f236c88326fa0a5d2d85ff2c5169b791d14d8691",
      "assetIds": []
    },
    {
      "x": 224,
      "y": 58,
      "size": 1,
      "price": "1011000000000000000000",
      "reserved": "",
      "salt": "0x01bdd7cf9125fd87477fc249503b77a1005e72ec439caffaf8a3378f9c1ce301",
      "assetIds": []
    },
    {
      "x": 224,
      "y": 59,
      "size": 1,
      "price": "1011000000000000000000",
      "reserved": "",
      "salt": "0x3eb51f13301ec4287e60208b0f6803f66751ebc716d3b77cf3023dceff131a50",
      "assetIds": []
    },
    {
      "x": 225,
      "y": 45,
      "size": 1,
      "price": "1011000000000000000000",
      "reserved": "0x7a9fe22691c811ea339d9b73150e6911a5343dca",
      "salt": "0xc27a0b9600e65f781887950541f7d2e9c8e7b5a592b231c88250378bb168b0c4",
      "assetIds": []
    },
    {
      "x": 225,
      "y": 46,
      "size": 1,
      "price": "1011000000000000000000",
      "reserved": "",
      "salt": "0x1b7e9e329f7b2b22d129ae2a52956f01954f07a5312abc7ddbadd9691a8f32b4",
      "assetIds": []
    },
    {
      "x": 225,
      "y": 47,
      "size": 1,
      "price": "1011000000000000000000",
      "reserved": "",
      "salt": "0xdca03f14e9b71b01729fac76ee2d70933fbf0081e843378c956377181d331504",
      "assetIds": []
    },
    {
      "x": 225,
      "y": 48,
      "size": 1,
      "price": "1011000000000000000000",
      "reserved": "",
      "salt": "0x36dd50e67424d35166cd596bd9ea3a9fc6624203ec7c25eae5ffa6a6ba045147",
      "assetIds": []
    },
    {
      "x": 225,
      "y": 49,
      "size": 1,
      "price": "1011000000000000000000",
      "reserved": "",
      "salt": "0xadc213dfd7fa7a828dd31951e16dea16ae78f12926b313ac03cde1ea9ee8943e",
      "assetIds": []
    },
    {
      "x": 225,
      "y": 50,
      "size": 1,
      "price": "1011000000000000000000",
      "reserved": "",
      "salt": "0x92beb6639c48195bb0385e3b9effa97aa5d49b8b4c9acc47f78b08ec2b78b6bf",
      "assetIds": []
    },
    {
      "x": 225,
      "y": 51,
      "size": 1,
      "price": "1011000000000000000000",
      "reserved": "",
      "salt": "0x58c61ff113d10486a35984c5d39eb80b6e62b134aef92e2cba42a19cd5fbf311",
      "assetIds": []
    },
    {
      "x": 225,
      "y": 52,
      "size": 1,
      "price": "1011000000000000000000",
      "reserved": "",
      "salt": "0xf066895532e75b7d1e83af3bf003d6cce6636b21cadebca3e06a6c44d7b53014",
      "assetIds": []
    },
    {
      "x": 225,
      "y": 53,
      "size": 1,
      "price": "1011000000000000000000",
      "reserved": "",
      "salt": "0xcbc30415dad84f0114e6d39132137dc30f4721a83e03ca960b6ebde18f2a7c7f",
      "assetIds": []
    },
    {
      "x": 225,
      "y": 54,
      "size": 1,
      "price": "1011000000000000000000",
      "reserved": "",
      "salt": "0x405790ab2a51662082aa7729e28c16bc3cf607c29211b409808aa3ba48d45d01",
      "assetIds": []
    },
    {
      "x": 225,
      "y": 55,
      "size": 1,
      "price": "1011000000000000000000",
      "reserved": "",
      "salt": "0xbacc8965b0a50be3923b4d128ef6509cb2b837c97c1fd5d687f9b83791328313",
      "assetIds": []
    },
    {
      "x": 225,
      "y": 56,
      "size": 1,
      "price": "1011000000000000000000",
      "reserved": "",
      "salt": "0x7ac9620d994672f31779d83f60be97b8e64125487041c90ce78c5a7d5dcf7ab6",
      "assetIds": []
    },
    {
      "x": 225,
      "y": 57,
      "size": 1,
      "price": "1011000000000000000000",
      "reserved": "",
      "salt": "0x2433bc8a8f4249bff2a9c7415f41ca67e40558e30b55991c5f14b370c9f66f92",
      "assetIds": []
    },
    {
      "x": 225,
      "y": 58,
      "size": 1,
      "price": "1011000000000000000000",
      "reserved": "",
      "salt": "0x65e6c418490a991e2f16a66bff868e42764f13791bc16ef9830e817f5798dd70",
      "assetIds": []
    },
    {
      "x": 225,
      "y": 59,
      "size": 1,
      "price": "1011000000000000000000",
      "reserved": "",
      "salt": "0x4b171c08c779fcda0555db97775191e4bc83fc781e2c0c2d6828a4c2bf4630db",
      "assetIds": []
    },
    {
      "x": 226,
      "y": 45,
      "size": 1,
      "price": "1011000000000000000000",
      "reserved": "",
      "salt": "0x97da16d20cc274442628334db5e1f12f17629b6fa0eefa690d5140bc432e37b8",
      "assetIds": []
    },
    {
      "x": 226,
      "y": 46,
      "size": 1,
      "price": "1011000000000000000000",
      "reserved": "0x7a9fe22691c811ea339d9b73150e6911a5343dca",
      "salt": "0x4b0f0c36dd2bd7562b2482b847eac70f5c35c161fd3540d47cbd62d6f18f3163",
      "assetIds": []
    },
    {
      "x": 226,
      "y": 47,
      "size": 1,
      "price": "1011000000000000000000",
      "reserved": "",
      "salt": "0x1b56c77386c37d64ac6e2caea113637cf698f5b935435c6a75d9cce5bff299de",
      "assetIds": []
    },
    {
      "x": 226,
      "y": 48,
      "size": 1,
      "price": "1011000000000000000000",
      "reserved": "",
      "salt": "0x266b988cc5c84969dbcd6804fac49f5d94910af81a046f2c1b4ab1cc0bc4130d",
      "assetIds": []
    },
    {
      "x": 226,
      "y": 49,
      "size": 1,
      "price": "1011000000000000000000",
      "reserved": "0x7a9fe22691c811ea339d9b73150e6911a5343dca",
      "salt": "0x93fec6f764394f808b0dcc48aa464a8f18fe4c0860fb8c9deef19268ae47a2ec",
      "assetIds": []
    },
    {
      "x": 226,
      "y": 50,
      "size": 1,
      "price": "1011000000000000000000",
      "reserved": "",
      "salt": "0xa0f3b79484ef3f184431fb338e78d6b13d925110b260a8a3189db3e872a38692",
      "assetIds": []
    },
    {
      "x": 226,
      "y": 51,
      "size": 1,
      "price": "1011000000000000000000",
      "reserved": "",
      "salt": "0xc8a1dd69898d2201438e394b3fda1a16e72c086766b160a76169a1a0bc28e3ed",
      "assetIds": []
    },
    {
      "x": 226,
      "y": 52,
      "size": 1,
      "price": "1011000000000000000000",
      "reserved": "0x7a9fe22691c811ea339d9b73150e6911a5343dca",
      "salt": "0x25a4803d3ba29c95526a7096d6c598aaa9a40fb68ff4af58a18e8cf27c05a861",
      "assetIds": []
    },
    {
      "x": 226,
      "y": 53,
      "size": 1,
      "price": "1011000000000000000000",
      "reserved": "",
      "salt": "0xd2315d2d0ef2d356574827c30adfd5b41e41ec55067fd81191066c40f51983bf",
      "assetIds": []
    },
    {
      "x": 226,
      "y": 54,
      "size": 1,
      "price": "1011000000000000000000",
      "reserved": "",
      "salt": "0xe2e803c3d3cbaa59a4268db50ea470e595bce853eb4331e3a8368361bc580f02",
      "assetIds": []
    },
    {
      "x": 226,
      "y": 55,
      "size": 1,
      "price": "1011000000000000000000",
      "reserved": "0x7a9fe22691c811ea339d9b73150e6911a5343dca",
      "salt": "0x1f3c0a74fdfe6f6278169fe1a379c3b36340ab59dbdbc53060d948839eeba02a",
      "assetIds": []
    },
    {
      "x": 226,
      "y": 56,
      "size": 1,
      "price": "1011000000000000000000",
      "reserved": "",
      "salt": "0xf63df57e33931cf3213d0eabd3fee1ab5422bf4a89ca3e526bb5dfcf11091460",
      "assetIds": []
    },
    {
      "x": 226,
      "y": 57,
      "size": 1,
      "price": "1011000000000000000000",
      "reserved": "",
      "salt": "0x9ee14ec85c5f649109f98be8221ff6546efaf5e4ec005933a4b66fab1041fd90",
      "assetIds": []
    },
    {
      "x": 226,
      "y": 58,
      "size": 1,
      "price": "1011000000000000000000",
      "reserved": "0x7a9fe22691c811ea339d9b73150e6911a5343dca",
      "salt": "0x42a920defbc0fd03a0680c137e130f12973b827f0e3fe66e3d4f9817b073aefe",
      "assetIds": []
    },
    {
      "x": 226,
      "y": 59,
      "size": 1,
      "price": "1011000000000000000000",
      "reserved": "",
      "salt": "0xf9d9ea4221c31289708694c0f20efd737150e487e274a24bcae3c60c8a592756",
      "assetIds": []
    },
    {
      "x": 227,
      "y": 45,
      "size": 1,
      "price": "1011000000000000000000",
      "reserved": "",
      "salt": "0xccfdb7f045e9e584205f29fcf60dd93cb0c87213b71399cb95f0bb0df07a8c0d",
      "assetIds": []
    },
    {
      "x": 227,
      "y": 46,
      "size": 1,
      "price": "1011000000000000000000",
      "reserved": "",
      "salt": "0x783f52efee436af3c132e0fbf48052b94f62cf13019918a075f25ce6d730283a",
      "assetIds": []
    },
    {
      "x": 227,
      "y": 47,
      "size": 1,
      "price": "1011000000000000000000",
      "reserved": "",
      "salt": "0x5827eb0ff29b7a55ae77c581b309a3e7ab04ae52b162b3c00cf81f3cdb58e870",
      "assetIds": []
    },
    {
      "x": 227,
      "y": 48,
      "size": 1,
      "price": "1011000000000000000000",
      "reserved": "",
      "salt": "0xf28b645d284caf9a185e996430b90fb668fc06ae231bba23340f7fc45e972ff3",
      "assetIds": []
    },
    {
      "x": 227,
      "y": 49,
      "size": 1,
      "price": "1011000000000000000000",
      "reserved": "",
      "salt": "0xadc8b9a6ee92911570b8cb94b62f15630ef79e984ffef86cbfde986eb2799bed",
      "assetIds": []
    },
    {
      "x": 227,
      "y": 50,
      "size": 1,
      "price": "1011000000000000000000",
      "reserved": "",
      "salt": "0x8a6c7ca8ae38b72b8e8b26681b473bd58e6d2d7e54c465540c7105ee0b7b0ac4",
      "assetIds": []
    },
    {
      "x": 227,
      "y": 51,
      "size": 1,
      "price": "1011000000000000000000",
      "reserved": "",
      "salt": "0xbb6fe8becbaec55043012066bf296c085a026d95762fc1010c1db07bae6523a4",
      "assetIds": []
    },
    {
      "x": 227,
      "y": 52,
      "size": 1,
      "price": "1011000000000000000000",
      "reserved": "",
      "salt": "0xcb779059b82ec9984969f60b7c89f4e183ae97c6811450ccaafcf2024510c581",
      "assetIds": []
    },
    {
      "x": 227,
      "y": 53,
      "size": 1,
      "price": "1011000000000000000000",
      "reserved": "",
      "salt": "0x7ef600b510bf439fc8bae64fb02d1e68354cf00d8c51dca4126257566b9925e5",
      "assetIds": []
    },
    {
      "x": 227,
      "y": 54,
      "size": 1,
      "price": "1011000000000000000000",
      "reserved": "",
      "salt": "0x911520853533637393f7495b516d0b1733e5783c38f8e4fc34eeed1812035146",
      "assetIds": []
    },
    {
      "x": 227,
      "y": 55,
      "size": 1,
      "price": "1011000000000000000000",
      "reserved": "",
      "salt": "0x502fba2d0037268bf039d16e6af037fc5b979889f2476256e6383cbdd5379507",
      "assetIds": []
    },
    {
      "x": 227,
      "y": 56,
      "size": 1,
      "price": "1011000000000000000000",
      "reserved": "",
      "salt": "0x316808334ebd1a5bedac77b8ec931e3c4a97ada9c02588eb8cc370ddf91f9212",
      "assetIds": []
    },
    {
      "x": 227,
      "y": 57,
      "size": 1,
      "price": "1011000000000000000000",
      "reserved": "",
      "salt": "0x8617e873f1b19330aa2234c2684f73ef01abe123363da9ff60f6e121eccb507a",
      "assetIds": []
    },
    {
      "x": 227,
      "y": 58,
      "size": 1,
      "price": "1011000000000000000000",
      "reserved": "",
      "salt": "0xa39bbd9097158faa1fdd3e25a3533baf9ecd52188f58414751bbdd3ee2e3171c",
      "assetIds": []
    },
    {
      "x": 227,
      "y": 59,
      "size": 1,
      "price": "1011000000000000000000",
      "reserved": "",
      "salt": "0xd618504bc4fd6e0f788c1f1392a3134abafdd1dd432d0629cf5ae2a571d64133",
      "assetIds": []
    },
    {
      "x": 228,
      "y": 54,
      "size": 1,
      "price": "1011000000000000000000",
      "reserved": "",
      "salt": "0x8ec6c9cdde024158c1bde4f7841547c4be5a7b74d604f103d20de1036ff6c78f",
      "assetIds": []
    },
    {
      "x": 228,
      "y": 55,
      "size": 1,
      "price": "1011000000000000000000",
      "reserved": "",
      "salt": "0x8da613bd775bde75fef79a6600325912db205f05113e60c333c4c4c370a006f5",
      "assetIds": []
    },
    {
      "x": 228,
      "y": 56,
      "size": 1,
      "price": "1011000000000000000000",
      "reserved": "",
      "salt": "0x0936af851498148b64049192d274ea050777b9e2bb0a0da90771a3ec4bae79be",
      "assetIds": []
    },
    {
      "x": 229,
      "y": 54,
      "size": 1,
      "price": "1011000000000000000000",
      "reserved": "",
      "salt": "0x2d5ebf25f6e20b8196333a346a75b6470df0736e603e0b5cddabdec3bed2ec53",
      "assetIds": []
    },
    {
      "x": 229,
      "y": 55,
      "size": 1,
      "price": "1011000000000000000000",
      "reserved": "0x7a9fe22691c811ea339d9b73150e6911a5343dca",
      "salt": "0x32618d1031a45ceda5dd5b155398b06b9edfc96238bf45448e8473a3f6b9e53d",
      "assetIds": []
    },
    {
      "x": 229,
      "y": 56,
      "size": 1,
      "price": "1011000000000000000000",
      "reserved": "",
      "salt": "0xec0d6662c8ff45707dffb75ea5f359bf1893feae6b066893a7c605188708075a",
      "assetIds": []
    },
    {
      "x": 230,
      "y": 54,
      "size": 1,
      "price": "1011000000000000000000",
      "reserved": "",
      "salt": "0xc6ea691daee8717a78a0479c3acb3697cd3e6e460083bc9a000c67d09948f239",
      "assetIds": []
    },
    {
      "x": 230,
      "y": 55,
      "size": 1,
      "price": "1011000000000000000000",
      "reserved": "",
      "salt": "0x59f54e9bbc2c20ff5736b9df8139fad03e1b0af1987fc8779a3e03f84d42f7ca",
      "assetIds": []
    },
    {
      "x": 230,
      "y": 56,
      "size": 1,
      "price": "1011000000000000000000",
      "reserved": "",
      "salt": "0x396a1b1a24216f98dcdb548d55dc7bda930dc62325acb4d2e02f3253eb377900",
      "assetIds": []
    },
    {
      "x": 231,
      "y": 54,
      "size": 1,
      "price": "1011000000000000000000",
      "reserved": "",
      "salt": "0x40b99b4420ec253095800099bd9470c0687cd0d82140fb5056bc4af62e637a6c",
      "assetIds": []
    },
    {
      "x": 231,
      "y": 55,
      "size": 1,
      "price": "1011000000000000000000",
      "reserved": "",
      "salt": "0xd533dc4c65bf2c88d8c859b977a6871d812c8e6c2c55e1d3c65fc659baca3719",
      "assetIds": []
    },
    {
      "x": 231,
      "y": 56,
      "size": 1,
      "price": "1011000000000000000000",
      "reserved": "",
      "salt": "0x228ed88a505e40541dbd193fa341361f2fb8491d8077165a8eea4f4fea8ab2c1",
      "assetIds": []
    },
    {
      "x": 231,
      "y": 57,
      "size": 1,
      "price": "1011000000000000000000",
      "reserved": "",
      "salt": "0xa1c81683a9d8eca88c6f8d2b0208e47345d2c67f444088f64f0eb56e528dc67d",
      "assetIds": []
    },
    {
      "x": 231,
      "y": 58,
      "size": 1,
      "price": "1011000000000000000000",
      "reserved": "",
      "salt": "0x739ac012748e4e02475aa7d2fa4482b8d1bf15d4c6547d009e2b0148e501f828",
      "assetIds": []
    },
    {
      "x": 231,
      "y": 59,
      "size": 1,
      "price": "1011000000000000000000",
      "reserved": "",
      "salt": "0x2c49d0b1e9fe86b06053180af528a46adfca824bcea08990dff8638a4d1158b9",
      "assetIds": []
    },
    {
      "x": 232,
      "y": 54,
      "size": 1,
      "price": "1011000000000000000000",
      "reserved": "",
      "salt": "0x2daec72d9479902d783605e720508d2c11c6f0c0d5a53993c075d9b32f5e3c91",
      "assetIds": []
    },
    {
      "x": 232,
      "y": 55,
      "size": 1,
      "price": "1011000000000000000000",
      "reserved": "0x7a9fe22691c811ea339d9b73150e6911a5343dca",
      "salt": "0xd6f24ee413f21acb187ca0f4fbe6a76583297ebda7ba177a34b11f11529d0ef9",
      "assetIds": []
    },
    {
      "x": 232,
      "y": 56,
      "size": 1,
      "price": "1011000000000000000000",
      "reserved": "",
      "salt": "0xed4d6b3c47972560e09b3c9589ce913c468b1672a30e55036fc17ec45869ef73",
      "assetIds": []
    },
    {
      "x": 232,
      "y": 57,
      "size": 1,
      "price": "1011000000000000000000",
      "reserved": "",
      "salt": "0x2a7b95b60cd52f849436348220d772d33f8859d0f16157c75611c64bd4d3cfe7",
      "assetIds": []
    },
    {
      "x": 232,
      "y": 58,
      "size": 1,
      "price": "1011000000000000000000",
      "reserved": "0x7a9fe22691c811ea339d9b73150e6911a5343dca",
      "salt": "0x6dd31acf403ed3957b69ba491ce84742767724da08cb0c59d773c1c04a5764dc",
      "assetIds": []
    },
    {
      "x": 232,
      "y": 59,
      "size": 1,
      "price": "1011000000000000000000",
      "reserved": "",
      "salt": "0x5fe8b4fb30d1b903c04f586133717fa237e90ba1f8453c4a65ddf96a1bee3722",
      "assetIds": []
    },
    {
      "x": 233,
      "y": 54,
      "size": 1,
      "price": "1011000000000000000000",
      "reserved": "",
      "salt": "0x363e18d1637e0c469b2208284a5188b2f37e333453daaee88a1406b551476af8",
      "assetIds": []
    },
    {
      "x": 233,
      "y": 55,
      "size": 1,
      "price": "1011000000000000000000",
      "reserved": "",
      "salt": "0xc7226785ad33e678f9841719911c5832b045f55be429f7a4d4f0ec769cfe0e1d",
      "assetIds": []
    },
    {
      "x": 233,
      "y": 56,
      "size": 1,
      "price": "1011000000000000000000",
      "reserved": "",
      "salt": "0x79279096513d517811009e608332eb73f13d2f3f533e68d4db20db0177b7a3c5",
      "assetIds": []
    },
    {
      "x": 233,
      "y": 57,
      "size": 1,
      "price": "1011000000000000000000",
      "reserved": "",
      "salt": "0xf242dbc05f80cc336823e35667ff4dc3dd8c28ddbd89c9a03524f1d3bbbbf80d",
      "assetIds": []
    },
    {
      "x": 233,
      "y": 58,
      "size": 1,
      "price": "1011000000000000000000",
      "reserved": "",
      "salt": "0x0a894af32541ff707cf6f5e814c20b55b1c47456a911b0f538aeb269adff3774",
      "assetIds": []
    },
    {
      "x": 233,
      "y": 59,
      "size": 1,
      "price": "1011000000000000000000",
      "reserved": "",
      "salt": "0x95bcea60eaca241fbbecb02b854dcb50cee4b7b4394983bb0c708b720dc1cd05",
      "assetIds": []
    }
  ],
  "solcInputHash": "8858f9e6ab4f09df358810b0137a379b",
  "bytecode": "0x6101606040523480156200001257600080fd5b50604051620031e9380380620031e983398181016040526101a08110156200003957600080fd5b508051602082015160408301516060840151608085015160a086015160c087015160e08801516101008901516101208a01516101408b01516101608c0151610180909c015160016000559a9b999a9899979896979596949593949293919290919085856001600160a01b038216620000f8576040805162461bcd60e51b815260206004820152601f60248201527f526566657272616c56616c696461746f723a207a65726f206164647265737300604482015290519081900360640190fd5b600380546001600160a01b0319166001600160a01b0393841617905560045562000130908e1662000459602090811b62002adc17901c565b6200016d5760405162461bcd60e51b8152600401808060200182810382526025815260200180620031c46025913960400191505060405180910390fd5b6200018c8c6001600160a01b03166200045960201b62002adc1760201c565b620001c95760405162461bcd60e51b8152600401808060200182810382526025815260200180620031c46025913960400191505060405180910390fd5b6001600160a01b038b1662000214576040805162461bcd60e51b815260206004820181905260248201526000805160206200317f833981519152604482015290519081900360640190fd5b6001600160a01b038a166200025f576040805162461bcd60e51b815260206004820181905260248201526000805160206200317f833981519152604482015290519081900360640190fd5b6001600160a01b038916620002aa576040805162461bcd60e51b815260206004820181905260248201526000805160206200317f833981519152604482015290519081900360640190fd5b620002c9836001600160a01b03166200045960201b62002adc1760201c565b620003065760405162461bcd60e51b8152600401808060200182810382526025815260200180620031c46025913960400191505060405180910390fd5b6001600160a01b03821662000351576040805162461bcd60e51b815260206004820181905260248201526000805160206200317f833981519152604482015290519081900360640190fd5b62000370816001600160a01b03166200045960201b62002adc1760201c565b620003ad5760405162461bcd60e51b8152600401808060200182810382526025815260200180620031c46025913960400191505060405180910390fd5b6001600160601b031960608e811b821660a0528d901b1660c052620003dd8b60016001600160e01b036200045f16565b600680546001600160a01b039a8b166001600160a01b031991821617909155610140989098526101209690965260018054998916998816999099179098556001600160601b0319606092831b811660e05290821b811660805296901b909516610100525060078054919093169116179055506200050a92505050565b3b151590565b6001600160a01b038216620004a65760405162461bcd60e51b81526004018080602001828103825260258152602001806200319f6025913960400191505060405180910390fd5b6001600160a01b038216600081815260026020908152604091829020805460ff191685151590811790915582519384529083015280517fb21eb88b4e33b3f1281830a7178d74d8aa73220416215726b68ae23d539515cb9281900390910190a15050565b60805160601c60a05160601c60c05160601c60e05160601c6101005160601c6101205161014051612bef6200059060003980610be0528061247e525080610bbc528061159d5250806124fc525080611af25280611c4f525080611aa85280611e4e52806124d9525080611b235280611c205250806111075280611f3a5250612bef6000f3fe608060405234801561001057600080fd5b50600436106101365760003560e01c8063984d6252116100b2578063c10a420811610081578063dc5074af11610066578063dc5074af146108a0578063e56f8a9e146108c6578063f23a6e61146108e357610136565b8063c10a4208146107c1578063caed35001461089857610136565b8063984d62521461055f578063ab1cc78c14610631578063b522ecff14610639578063bc197c811461065f57610136565b806365194ce71161010957806378e6e5b9116100ee57806378e6e5b9146104e55780638a04af6a1461050b5780638f2839701461053957610136565b806365194ce7146103635780636e9960c3146104c157610136565b80631187fd3c1461013b57806325cb5bc01461031b578063495906571461033557806358bc29441461033d575b600080fd5b610319600480360361012081101561015257600080fd5b6001600160a01b038235811692602081013582169260408201359092169181019060808101606082013564010000000081111561018e57600080fd5b8201836020820111156101a057600080fd5b803590602001918460208302840111640100000000831117156101c257600080fd5b919390928235926040810190602001356401000000008111156101e457600080fd5b8201836020820111156101f657600080fd5b8035906020019184602083028401116401000000008311171561021857600080fd5b91939092909160208101903564010000000081111561023657600080fd5b82018360208201111561024857600080fd5b8035906020019184602083028401116401000000008311171561026a57600080fd5b91939092909160208101903564010000000081111561028857600080fd5b82018360208201111561029a57600080fd5b803590602001918460018302840111640100000000831117156102bc57600080fd5b9193909290916020810190356401000000008111156102da57600080fd5b8201836020820111156102ec57600080fd5b8035906020019184600183028401116401000000008311171561030e57600080fd5b509092509050610978565b005b610323610bba565b60408051918252519081900360200190f35b610323610bde565b6103196004803603602081101561035357600080fd5b50356001600160a01b0316610c02565b6104096004803603602081101561037957600080fd5b81019060208101813564010000000081111561039457600080fd5b8201836020820111156103a657600080fd5b803590602001918460018302840111640100000000831117156103c857600080fd5b91908080601f016020809104026020016040519081016040528093929190818152602001838380828437600092019190915250929550610d2e945050505050565b6040518080602001866001600160a01b03166001600160a01b03168152602001856001600160a01b03166001600160a01b03168152602001848152602001838152602001828103825287818151815260200191508051906020019080838360005b8381101561048257818101518382015260200161046a565b50505050905090810190601f1680156104af5780820380516001836020036101000a031916815260200191505b50965050505050505060405180910390f35b6104c9610e33565b604080516001600160a01b039092168252519081900360200190f35b610319600480360360208110156104fb57600080fd5b50356001600160a01b0316610e42565b6103196004803603604081101561052157600080fd5b506001600160a01b0381351690602001351515610f00565b6103196004803603602081101561054f57600080fd5b50356001600160a01b0316610f6d565b6103196004803603606081101561057557600080fd5b6001600160a01b0382351691908101906040810160208201356401000000008111156105a057600080fd5b8201836020820111156105b257600080fd5b803590602001918460208302840111640100000000831117156105d457600080fd5b9193909290916020810190356401000000008111156105f257600080fd5b82018360208201111561060457600080fd5b8035906020019184602083028401116401000000008311171561062657600080fd5b5090925090506110a6565b610323611231565b6103196004803603602081101561064f57600080fd5b50356001600160a01b0316611237565b61078c600480360360a081101561067557600080fd5b6001600160a01b0382358116926020810135909116918101906060810160408201356401000000008111156106a957600080fd5b8201836020820111156106bb57600080fd5b803590602001918460208302840111640100000000831117156106dd57600080fd5b9193909290916020810190356401000000008111156106fb57600080fd5b82018360208201111561070d57600080fd5b8035906020019184602083028401116401000000008311171561072f57600080fd5b91939092909160208101903564010000000081111561074d57600080fd5b82018360208201111561075f57600080fd5b8035906020019184600183028401116401000000008311171561078157600080fd5b509092509050611348565b604080517fffffffff000000000000000000000000000000000000000000000000000000009092168252519081900360200190f35b610884600480360360a08110156107d757600080fd5b8101906020810181356401000000008111156107f257600080fd5b82018360208201111561080457600080fd5b8035906020019184600183028401116401000000008311171561082657600080fd5b91908080601f016020809104026020016040519081016040528093929190818152602001838380828437600092019190915250929550506001600160a01b038335811694506020840135169260408101359250606001359050611375565b604080519115158252519081900360200190f35b6104c96114b1565b610884600480360360208110156108b657600080fd5b50356001600160a01b03166114c0565b610319600480360360208110156108dc57600080fd5b50356114de565b61078c600480360360a08110156108f957600080fd5b6001600160a01b03823581169260208101359091169160408201359160608101359181019060a08101608082013564010000000081111561093957600080fd5b82018360208201111561094b57600080fd5b8035906020019184600183028401116401000000008311171561096d57600080fd5b509092509050611570565b600260005414156109d0576040805162461bcd60e51b815260206004820152601f60248201527f5265656e7472616e637947756172643a207265656e7472616e742063616c6c00604482015290519081900360640190fd5b60026000556109df8e8d61159b565b610ad68d8d8d8d80806020026020016040519081016040528093929190818152602001838360200280828437600081840152601f19601f820116905080830192505050505050508c8c8c80806020026020016040519081016040528093929190818152602001838360200280828437600081840152601f19601f820116905080830192505050505050508b8b8080602002602001604051908101604052809392919081815260200183836020028082843760009201919091525050604080516020601f8d018190048102820181019092528b815292508b91508a90819084018382808284376000920191909152506116fe92505050565b610b2a8e8c8c6003818110610ae757fe5b9050602002013586868080601f016020809104026020016040519081016040528093929190818152602001838380828437600092019190915250611a8192505050565b610b688e8e8d8d80806020026020016040519081016040528093929190818152602001838360200280828437600092019190915250611ad292505050565b610ba58d898980806020026020016040519081016040528093929190818152602001838360200280828437600092019190915250611ec392505050565b50506001600055505050505050505050505050565b7f000000000000000000000000000000000000000000000000000000000000000090565b7f000000000000000000000000000000000000000000000000000000000000000090565b6001546001600160a01b03163314610c61576040805162461bcd60e51b815260206004820152601260248201527f6f6e6c792061646d696e20616c6c6f7765640000000000000000000000000000604482015290519081900360640190fd5b6001600160a01b038116610cbc576040805162461bcd60e51b815260206004820152601f60248201527f526566657272616c56616c696461746f723a207a65726f206164647265737300604482015290519081900360640190fd5b600380546001600160a01b03908116600090815260056020526040808220620d2f0042019055835473ffffffffffffffffffffffffffffffffffffffff1916928516928317909355915190917fbbb5fb2ee7e707ae0c968f63e94211ea81e66a718c34e2f810a7619e5678a21791a250565b606060008060008060606000806000808a80602001905160a0811015610d5357600080fd5b8101908080516040519392919084640100000000821115610d7357600080fd5b908301906020820185811115610d8857600080fd5b8251640100000000811182820188101715610da257600080fd5b82525081516020918201929091019080838360005b83811015610dcf578181015183820152602001610db7565b50505050905090810190601f168015610dfc5780820380516001836020036101000a031916815260200191505b5060409081526020820151908201516060830151608090930151959f50909d509b5099509197505050505050505091939590929450565b6001546001600160a01b031690565b6001546001600160a01b03163314610e8b5760405162461bcd60e51b8152600401808060200182810382526023815260200180612b056023913960400191505060405180910390fd5b6001600160a01b038116610ee6576040805162461bcd60e51b815260206004820152601f60248201527f526566657272616c56616c696461746f723a207a65726f206164647265737300604482015290519081900360640190fd5b6001600160a01b0316600090815260056020526040812055565b6001546001600160a01b03163314610f5f576040805162461bcd60e51b815260206004820152601260248201527f6f6e6c792061646d696e20616c6c6f7765640000000000000000000000000000604482015290519081900360640190fd5b610f698282612087565b5050565b6001546001600160a01b03163314610fcc576040805162461bcd60e51b815260206004820152601b60248201527f6f6e6c792061646d696e2063616e206368616e67652061646d696e0000000000604482015290519081900360640190fd5b6001546001600160a01b038281169116141561102f576040805162461bcd60e51b815260206004820152600d60248201527f616c72656164792061646d696e00000000000000000000000000000000000000604482015290519081900360640190fd5b600154604080516001600160a01b039283168152918316602083015280517f7e644d79422f17c01e4894b5f4f588d331ebfa28653d42ae832dc59e38c9798f9281900390910190a16001805473ffffffffffffffffffffffffffffffffffffffff19166001600160a01b0392909216919091179055565b6001546001600160a01b03163314611105576040805162461bcd60e51b815260206004820152600e60248201527f4e4f545f415554484f52495a4544000000000000000000000000000000000000604482015290519081900360640190fd5b7f00000000000000000000000000000000000000000000000000000000000000006001600160a01b0316632eb2c2d63087878787876040518763ffffffff1660e01b815260040180876001600160a01b03166001600160a01b03168152602001866001600160a01b03166001600160a01b031681526020018060200180602001806020018481038452888882818152602001925060200280828437600083820152601f01601f19169091018581038452868152602090810191508790870280828437600081840152601f19601f8201169050808301925050508481038252600081526020016020019950505050505050505050600060405180830381600087803b15801561121257600080fd5b505af1158015611226573d6000803e3d6000fd5b505050505050505050565b60045490565b6001600160a01b038116611292576040805162461bcd60e51b815260206004820152600c60248201527f5a45524f5f414444524553530000000000000000000000000000000000000000604482015290519081900360640190fd5b6001546001600160a01b031633146112f1576040805162461bcd60e51b815260206004820152600e60248201527f4e4f545f415554484f52495a4544000000000000000000000000000000000000604482015290519081900360640190fd5b6006805473ffffffffffffffffffffffffffffffffffffffff19166001600160a01b0383169081179091556040517f4d66958b757eb92a1b43d02be4c38c9500b73f532420ee3706cb43d420ba023690600090a250565b7fbc197c810000000000000000000000000000000000000000000000000000000098975050505050505050565b60006004548211806113985750836001600160a01b0316856001600160a01b0316145b806113a257508242115b156113af575060006114a8565b60408051606087811b7fffffffffffffffffffffffffffffffffffffffff0000000000000000000000009081166020808501919091529188901b166034830152604882018690526068808301869052835180840390910181526088830184528051908201207f19457468657265756d205369676e6564204d6573736167653a0a33320000000060a884015260c48084018290528451808503909101815260e49093019093528151910120600090611466908961214e565b6001600160a01b0381166000908152600560205260409020549091504211611493576001925050506114a8565b6003546001600160a01b039081169116149150505b95945050505050565b6003546001600160a01b031690565b6001600160a01b031660009081526002602052604090205460ff1690565b6001546001600160a01b0316331461153d576040805162461bcd60e51b815260206004820152601260248201527f6f6e6c792061646d696e20616c6c6f7765640000000000000000000000000000604482015290519081900360640190fd5b600481905560405181907f774069781371d65424b3b0b101c1d40014532cac040f979595b99a3fcf8ce08c90600090a250565b7ff23a6e61000000000000000000000000000000000000000000000000000000009695505050505050565b7f0000000000000000000000000000000000000000000000000000000000000000421061160f576040805162461bcd60e51b815260206004820152600c60248201527f53414c455f49535f4f5645520000000000000000000000000000000000000000604482015290519081900360640190fd5b6001600160a01b03821633148061163557503360009081526002602052604090205460ff165b611686576040805162461bcd60e51b815260206004820152600e60248201527f4e4f545f415554484f52495a4544000000000000000000000000000000000000604482015290519081900360640190fd5b6001600160a01b03811615806116ad5750816001600160a01b0316816001600160a01b0316145b610f69576040805162461bcd60e51b815260206004820152600d60248201527f52455345525645445f4c414e4400000000000000000000000000000000000000604482015290519081900360640190fd5b600087878760008151811061170f57fe5b60200260200101518860018151811061172457fe5b60200260200101518960028151811061173957fe5b60200260200101518a60038151811061174e57fe5b60200260200101518a8a60405160200180828051906020019060200280838360005b83811015611788578181015183820152602001611770565b50505050905001915050604051602081830303815290604052805190602001208a60405160200180828051906020019060200280838360005b838110156117d95781810151838201526020016117c1565b5050505090500191505060405160208183030381529060405280519060200120604051602001808a6001600160a01b03166001600160a01b031660601b8152601401896001600160a01b03166001600160a01b031660601b81526014018881526020018781526020018681526020018581526020018481526020018381526020018281526020019950505050505050505050604051602081830303815290604052805190602001209050600760009054906101000a90046001600160a01b03166001600160a01b031663012847ed83836040518363ffffffff1660e01b81526004018080602001838152602001828103825284818151815260200191508051906020019080838360005b838110156118fb5781810151838201526020016118e3565b50505050905090810190601f1680156119285780820380516001836020036101000a031916815260200191505b50935050505060206040518083038186803b15801561194657600080fd5b505afa15801561195a573d6000803e3d6000fd5b505050506040513d602081101561197057600080fd5b50516119c3576040805162461bcd60e51b815260206004820152600c60248201527f494e56414c49445f415554480000000000000000000000000000000000000000604482015290519081900360640190fd5b6000611a24876000815181106119d557fe5b6020026020010151886001815181106119ea57fe5b6020026020010151896002815181106119ff57fe5b60200260200101518a600381518110611a1457fe5b60200260200101518c8b8b612337565b9050611a3084826123dc565b611226576040805162461bcd60e51b815260206004820152600c60248201527f494e56414c49445f4c414e440000000000000000000000000000000000000000604482015290519081900360640190fd5b6000611a8d84846124a5565b600654909150611acc908590839085906001600160a01b03167f000000000000000000000000000000000000000000000000000000000000000061253f565b50505050565b80600281518110611adf57fe5b602002602001015160011480611b1c57507f00000000000000000000000000000000000000000000000000000000000000006001600160a01b0316155b15611c1e577f00000000000000000000000000000000000000000000000000000000000000006001600160a01b0316636e1e3bbf8383600281518110611b5e57fe5b602002602001015184600081518110611b7357fe5b602002602001015185600181518110611b8857fe5b60200260200101516040518563ffffffff1660e01b815260040180856001600160a01b03166001600160a01b031681526020018481526020018381526020018281526020018060200182810382526000815260200160200195505050505050600060405180830381600087803b158015611c0157600080fd5b505af1158015611c15573d6000803e3d6000fd5b50505050611dbe565b7f00000000000000000000000000000000000000000000000000000000000000006001600160a01b0316636e1e3bbf7f000000000000000000000000000000000000000000000000000000000000000083600281518110611c7b57fe5b602002602001015184600081518110611c9057fe5b602002602001015185600181518110611ca557fe5b60200260200101518760405160200180826001600160a01b03166001600160a01b031681526020019150506040516020818303038152906040526040518663ffffffff1660e01b815260040180866001600160a01b03166001600160a01b0316815260200185815260200184815260200183815260200180602001828103825283818151815260200191508051906020019080838360005b83811015611d55578181015183820152602001611d3d565b50505050905090810190601f168015611d825780820380516001836020036101000a031916815260200191505b509650505050505050600060405180830381600087803b158015611da557600080fd5b505af1158015611db9573d6000803e3d6000fd5b505050505b61019881600181518110611dce57fe5b60200260200101510281600081518110611de457fe5b602002602001015101826001600160a01b0316846001600160a01b03167fe4dfa6ac11314892f3029b34a25b1a887da3b1cab2bbf8506d87128ba6e3ac0284600281518110611e2f57fe5b602002602001015185600381518110611e4457fe5b60200260200101517f000000000000000000000000000000000000000000000000000000000000000087600381518110611e7a57fe5b602002602001015160405180858152602001848152602001836001600160a01b03166001600160a01b0316815260200182815260200194505050505060405180910390a4505050565b6060815167ffffffffffffffff81118015611edd57600080fd5b50604051908082528060200260200182016040528015611f07578160200160208202803683370190505b50905060005b8251811015611f37576001828281518110611f2457fe5b6020908102919091010152600101611f0d565b507f00000000000000000000000000000000000000000000000000000000000000006001600160a01b0316632eb2c2d6308585856040518563ffffffff1660e01b815260040180856001600160a01b03166001600160a01b03168152602001846001600160a01b03166001600160a01b03168152602001806020018060200180602001848103845286818151815260200191508051906020019060200280838360005b83811015611ff2578181015183820152602001611fda565b50505050905001848103835285818151815260200191508051906020019060200280838360005b83811015612031578181015183820152602001612019565b50505050905001848103825260008152602001602001975050505050505050600060405180830381600087803b15801561206a57600080fd5b505af115801561207e573d6000803e3d6000fd5b50505050505050565b6001600160a01b0382166120cc5760405162461bcd60e51b8152600401808060200182810382526025815260200180612b6b6025913960400191505060405180910390fd5b6001600160a01b03821660008181526002602090815260409182902080547fffffffffffffffffffffffffffffffffffffffffffffffffffffffffffffff001685151590811790915582519384529083015280517fb21eb88b4e33b3f1281830a7178d74d8aa73220416215726b68ae23d539515cb9281900390910190a15050565b600081516041146121a6576040805162461bcd60e51b815260206004820152601f60248201527f45434453413a20696e76616c6964207369676e6174757265206c656e67746800604482015290519081900360640190fd5b60208201516040830151606084015160001a7f7fffffffffffffffffffffffffffffff5d576e7357a4501ddfe92f46681b20a08211156122175760405162461bcd60e51b8152600401808060200182810382526022815260200180612ae36022913960400191505060405180910390fd5b8060ff16601b1415801561222f57508060ff16601c14155b1561226b5760405162461bcd60e51b8152600401808060200182810382526022815260200180612b286022913960400191505060405180910390fd5b60408051600080825260208083018085528a905260ff85168385015260608301879052608083018690529251909260019260a080820193601f1981019281900390910190855afa1580156122c3573d6000803e3d6000fd5b5050604051601f1901519150506001600160a01b03811661232b576040805162461bcd60e51b815260206004820152601860248201527f45434453413a20696e76616c6964207369676e61747572650000000000000000604482015290519081900360640190fd5b93505050505b92915050565b60008787878787878760405160200180888152602001878152602001868152602001858152602001846001600160a01b03166001600160a01b031660601b8152601401838152602001828051906020019060200280838360005b838110156123a9578181015183820152602001612391565b50505050905001975050505050505050604051602081830303815290604052805190602001209050979650505050505050565b600081815b845181101561247b5760008582815181106123f857fe5b60200260200101519050808310156124405782816040516020018083815260200182815260200192505050604051602081830303815290604052805190602001209250612472565b808360405160200180838152602001828152602001925050506040516020818303038152906040528051906020012092505b506001016123e1565b507f0000000000000000000000000000000000000000000000000000000000000000149392505050565b6000806124ca60646124be85600563ffffffff61264716565b9063ffffffff6126a716565b90506125276001600160a01b037f000000000000000000000000000000000000000000000000000000000000000016857f00000000000000000000000000000000000000000000000000000000000000008463ffffffff6126e916565b612537838263ffffffff61277116565b949350505050565b8251819085901561262c57606060008060008061255b8a610d2e565b93985091965094509250905060006125768686868686611375565b15612604576125906125888d84612647565b6127106126a7565b9050886001600160a01b0316846001600160a01b0316866001600160a01b03167fac7a699eb95c3c6d390ec4626de17ef9a67b35891efdb197beba7c7fdd45fac48f858760405180848152602001838152602001828152602001935050505060405180910390a46126018782612771565b96505b8015612625576126256001600160a01b0389168e878463ffffffff6126e916565b5050505050505b61207e6001600160a01b03831688868463ffffffff6126e916565b60008261265657506000612331565b8282028284828161266357fe5b04146126a05760405162461bcd60e51b8152600401808060200182810382526021815260200180612b4a6021913960400191505060405180910390fd5b9392505050565b60006126a083836040518060400160405280601a81526020017f536166654d6174683a206469766973696f6e206279207a65726f0000000000008152506127b3565b604080516001600160a01b0380861660248301528416604482015260648082018490528251808303909101815260849091019091526020810180517bffffffffffffffffffffffffffffffffffffffffffffffffffffffff167f23b872dd00000000000000000000000000000000000000000000000000000000179052611acc908590612855565b60006126a083836040518060400160405280601e81526020017f536166654d6174683a207375627472616374696f6e206f766572666c6f77000081525061290b565b6000818361283f5760405162461bcd60e51b81526004018080602001828103825283818151815260200191508051906020019080838360005b838110156128045781810151838201526020016127ec565b50505050905090810190601f1680156128315780820380516001836020036101000a031916815260200191505b509250505060405180910390fd5b50600083858161284b57fe5b0495945050505050565b60606128aa826040518060400160405280602081526020017f5361666545524332303a206c6f772d6c6576656c2063616c6c206661696c6564815250856001600160a01b03166129659092919063ffffffff16565b805190915015612906578080602001905160208110156128c957600080fd5b50516129065760405162461bcd60e51b815260040180806020018281038252602a815260200180612b90602a913960400191505060405180910390fd5b505050565b6000818484111561295d5760405162461bcd60e51b81526020600482018181528351602484015283519092839260449091019190850190808383600083156128045781810151838201526020016127ec565b505050900390565b60606125378484600085606061297a85612adc565b6129cb576040805162461bcd60e51b815260206004820152601d60248201527f416464726573733a2063616c6c20746f206e6f6e2d636f6e7472616374000000604482015290519081900360640190fd5b60006060866001600160a01b031685876040518082805190602001908083835b60208310612a0a5780518252601f1990920191602091820191016129eb565b6001836020036101000a03801982511681845116808217855250505050505090500191505060006040518083038185875af1925050503d8060008114612a6c576040519150601f19603f3d011682016040523d82523d6000602084013e612a71565b606091505b50915091508115612a855791506125379050565b805115612a955780518082602001fd5b60405162461bcd60e51b81526020600482018181528651602484015286518793919283926044019190850190808383600083156128045781810151838201526020016127ec565b3b15159056fe45434453413a20696e76616c6964207369676e6174757265202773272076616c7565526566657272616c56616c696461746f723a2053656e646572206e6f742061646d696e45434453413a20696e76616c6964207369676e6174757265202776272076616c7565536166654d6174683a206d756c7469706c69636174696f6e206f766572666c6f774d6574615472616e73616374696f6e52656365697665723a207a65726f20616464726573735361666545524332303a204552433230206f7065726174696f6e20646964206e6f742073756363656564a2646970667358221220a5670b1ad93b092eb46ba00923ea8f6c7cf8a0b44a1214b01f8ac6fb833c6f6064736f6c6343000605003345737461746553616c6557697468417574683a207a65726f20616464726573734d6574615472616e73616374696f6e52656365697665723a207a65726f206164647265737345737461746553616c6557697468417574683a206973206e6f74206120636f6e7472616374",
  "devdoc": {
    "methods": {
      "buyLandWithSand(address,address,address,uint256[],bytes32,uint256[],bytes32[],bytes,bytes)": {
        "params": {
          "assetIds": "asset ids (lands) that will be bought",
          "buyer": "address that perform the payment",
          "info": "[X_INDEX=0] x coordinate of the Land [Y_INDEX=1] y coordinate of the Land [SIZE_INDEX=2] size of the pack of Land to purchase [PRICE_INDEX=3] price in SAND to purchase that Land",
          "proof": "merkleProof for that particular Land",
          "referral": "referral id",
          "reserved": "the reserved address (if any)",
          "salt": "The salt submitted for verification.",
          "signature": "A signed message specifying tx details",
          "to": "address that will own the purchased Land"
        }
      },
      "changeAdmin(address)": {
        "details": "change the administrator to be `newAdmin`.",
        "params": {
          "newAdmin": "address of the new administrator."
        }
      },
      "disablePreviousSigningWallet(address)": {
        "details": "Disable compromised signing wallet",
        "params": {
          "disableWallet": "The wallet address to be disabled"
        }
      },
      "getAdmin()": {
        "details": "gives the current administrator of this contract.",
        "returns": {
          "_0": "the current administrator of this contract."
        }
      },
      "getSigningWallet()": {
        "details": "signing wallet authorized for referral",
        "returns": {
          "_0": "the address of the signing wallet"
        }
      },
      "isMetaTransactionProcessor(address)": {
        "details": "check whether address `who` is given meta-transaction execution rights.",
        "params": {
          "who": "The address to query."
        },
        "returns": {
          "_0": "whether the address has meta-transaction execution rights."
        }
      },
      "isReferralValid(bytes,address,address,uint256,uint256)": {
        "params": {
          "commissionRate": "The commissionRate of the referral",
          "expiryTime": "The expiry time of the referral",
          "referee": "The address of the referee",
          "referrer": "The address of the referrer",
          "signature": "The signature to check (signed referral)"
        },
        "returns": {
          "_0": "True if the referral is valid"
        }
      },
      "setMetaTransactionProcessor(address,bool)": {
        "details": "Enable or disable the ability of `metaTransactionProcessor` to perform meta-tx (metaTransactionProcessor rights).",
        "params": {
          "enabled": "set whether the metaTransactionProcessor is enabled or disabled.",
          "metaTransactionProcessor": "address that will be given/removed metaTransactionProcessor rights."
        }
      },
      "setReceivingWallet(address)": {
        "params": {
          "newWallet": "address of the new receiving wallet"
        }
      },
      "updateMaxCommissionRate(uint256)": {
        "details": "Update the maximum commission rate",
        "params": {
          "newMaxCommissionRate": "The new maximum commission rate"
        }
      },
      "updateSigningWallet(address)": {
        "details": "Update the signing wallet The previous wallet is still valid for a grace period (_previousSigningDelay). If you want to disable the previous wallet, use the disablePreviousSigningWallet function.",
        "params": {
          "newSigningWallet": "The new address of the signing wallet"
        }
      },
      "withdrawAssets(address,uint256[],uint256[])": {
        "params": {
          "assetIds": "the assetIds to be transferred",
          "to": "intended recipient of the asset tokens",
          "values": "the quantities of the assetIds to be transferred"
        }
      }
    },
    "title": "Estate Sale contract with referral"
  },
  "userdoc": {
    "methods": {
      "buyLandWithSand(address,address,address,uint256[],bytes32,uint256[],bytes32[],bytes,bytes)": {
        "notice": "buy Land with SAND using the merkle proof associated with it"
      },
      "getExpiryTime()": {
        "notice": "Gets the expiry time for the current sale"
      },
      "getMaxCommissionRate()": {
        "notice": "the max commission rate"
      },
      "getMerkleRoot()": {
        "notice": "Gets the Merkle root associated with the current sale"
      },
      "isReferralValid(bytes,address,address,uint256,uint256)": {
        "notice": "Check if a referral is valid"
      },
      "setReceivingWallet(address)": {
        "notice": "set the wallet receiving the proceeds"
      },
      "withdrawAssets(address,uint256[],uint256[])": {
        "notice": "enable Admin to withdraw remaining assets from EstateSaleWithFee contract"
      }
    },
    "notice": "This contract manages the sale of our lands as Estates"
  },
  "storageLayout": {
    "storage": [
      {
        "astId": 924,
        "contract": "@sandbox-smart-contracts/land-sale/contracts/EstateSaleWithAuth.sol:EstateSaleWithAuth",
        "label": "_status",
        "offset": 0,
        "slot": "0",
        "type": "t_uint256"
      },
      {
        "astId": 2455,
        "contract": "@sandbox-smart-contracts/land-sale/contracts/EstateSaleWithAuth.sol:EstateSaleWithAuth",
        "label": "_admin",
        "offset": 0,
        "slot": "1",
        "type": "t_address"
      },
      {
        "astId": 2524,
        "contract": "@sandbox-smart-contracts/land-sale/contracts/EstateSaleWithAuth.sol:EstateSaleWithAuth",
        "label": "_metaTransactionContracts",
        "offset": 0,
        "slot": "2",
        "type": "t_mapping(t_address,t_bool)"
      },
      {
        "astId": 1935,
        "contract": "@sandbox-smart-contracts/land-sale/contracts/EstateSaleWithAuth.sol:EstateSaleWithAuth",
        "label": "_signingWallet",
        "offset": 0,
        "slot": "3",
        "type": "t_address"
      },
      {
        "astId": 1937,
        "contract": "@sandbox-smart-contracts/land-sale/contracts/EstateSaleWithAuth.sol:EstateSaleWithAuth",
        "label": "_maxCommissionRate",
        "offset": 0,
        "slot": "4",
        "type": "t_uint256"
      },
      {
        "astId": 1941,
        "contract": "@sandbox-smart-contracts/land-sale/contracts/EstateSaleWithAuth.sol:EstateSaleWithAuth",
        "label": "_previousSigningWallets",
        "offset": 0,
        "slot": "5",
        "type": "t_mapping(t_address,t_uint256)"
      },
      {
        "astId": 1740,
        "contract": "@sandbox-smart-contracts/land-sale/contracts/EstateSaleWithAuth.sol:EstateSaleWithAuth",
        "label": "_wallet",
        "offset": 0,
        "slot": "6",
        "type": "t_address_payable"
      },
      {
        "astId": 1742,
        "contract": "@sandbox-smart-contracts/land-sale/contracts/EstateSaleWithAuth.sol:EstateSaleWithAuth",
        "label": "_authValidator",
        "offset": 0,
        "slot": "7",
        "type": "t_contract(AuthValidator)1053"
      }
    ],
    "types": {
      "t_address": {
        "encoding": "inplace",
        "label": "address",
        "numberOfBytes": "20"
      },
      "t_address_payable": {
        "encoding": "inplace",
        "label": "address payable",
        "numberOfBytes": "20"
      },
      "t_bool": {
        "encoding": "inplace",
        "label": "bool",
        "numberOfBytes": "1"
      },
      "t_contract(AuthValidator)1053": {
        "encoding": "inplace",
        "label": "contract AuthValidator",
        "numberOfBytes": "20"
      },
      "t_mapping(t_address,t_bool)": {
        "encoding": "mapping",
        "key": "t_address",
        "label": "mapping(address => bool)",
        "numberOfBytes": "32",
        "value": "t_bool"
      },
      "t_mapping(t_address,t_uint256)": {
        "encoding": "mapping",
        "key": "t_address",
        "label": "mapping(address => uint256)",
        "numberOfBytes": "32",
        "value": "t_uint256"
      },
      "t_uint256": {
        "encoding": "inplace",
        "label": "uint256",
        "numberOfBytes": "32"
      }
    }
  }
}