{
  "address": "0x75186207ffB06174e1CC6D98a59A819F11377Cf0",
  "abi": [
    {
      "inputs": [
        {
          "internalType": "address",
          "name": "_sandToken",
          "type": "address"
        }
      ],
      "stateMutability": "nonpayable",
      "type": "constructor"
    },
    {
      "inputs": [
        {
          "internalType": "address",
          "name": "owner",
          "type": "address"
        }
      ],
      "name": "OwnableInvalidOwner",
      "type": "error"
    },
    {
      "inputs": [
        {
          "internalType": "address",
          "name": "account",
          "type": "address"
        }
      ],
      "name": "OwnableUnauthorizedAccount",
      "type": "error"
    },
    {
      "anonymous": false,
      "inputs": [
        {
          "indexed": true,
          "internalType": "address",
          "name": "previousOwner",
          "type": "address"
        },
        {
          "indexed": true,
          "internalType": "address",
          "name": "newOwner",
          "type": "address"
        }
      ],
      "name": "OwnershipTransferred",
      "type": "event"
    },
    {
      "inputs": [
        {
          "internalType": "address",
          "name": "to",
          "type": "address"
        },
        {
          "internalType": "uint256",
          "name": "tokenId",
          "type": "uint256"
        }
      ],
      "name": "approve",
      "outputs": [],
      "stateMutability": "nonpayable",
      "type": "function"
    },
    {
      "inputs": [
        {
          "internalType": "address",
          "name": "owner",
          "type": "address"
        }
      ],
      "name": "balanceOf",
      "outputs": [
        {
          "internalType": "uint256",
          "name": "",
          "type": "uint256"
        }
      ],
      "stateMutability": "view",
      "type": "function"
    },
    {
      "inputs": [
        {
          "internalType": "address",
          "name": "sender",
          "type": "address"
        },
        {
          "internalType": "address",
          "name": "nftCollection",
          "type": "address"
        },
        {
          "internalType": "uint256",
          "name": "amount",
          "type": "uint256"
        },
        {
          "internalType": "address",
          "name": "wallet",
          "type": "address"
        },
        {
          "internalType": "uint256",
          "name": "waveIndex",
          "type": "uint256"
        },
        {
          "internalType": "uint256",
          "name": "tokenAmount",
          "type": "uint256"
        },
        {
          "internalType": "uint256",
          "name": "signatureId",
          "type": "uint256"
        },
        {
          "internalType": "bytes",
          "name": "signature",
          "type": "bytes"
        }
      ],
      "name": "confirmPurchase",
      "outputs": [
        {
          "internalType": "bytes",
          "name": "",
          "type": "bytes"
        }
      ],
      "stateMutability": "payable",
      "type": "function"
    },
    {
      "inputs": [
        {
          "internalType": "uint256",
          "name": "tokenId",
          "type": "uint256"
        }
      ],
      "name": "getApproved",
      "outputs": [
        {
          "internalType": "address",
          "name": "",
          "type": "address"
        }
      ],
      "stateMutability": "view",
      "type": "function"
    },
    {
      "inputs": [
        {
          "internalType": "address",
          "name": "owner",
          "type": "address"
        },
        {
          "internalType": "address",
          "name": "operator",
          "type": "address"
        }
      ],
      "name": "isApprovedForAll",
      "outputs": [
        {
          "internalType": "bool",
          "name": "",
          "type": "bool"
        }
      ],
      "stateMutability": "view",
      "type": "function"
    },
    {
      "inputs": [
        {
          "internalType": "address",
          "name": "operator",
          "type": "address"
        },
        {
          "internalType": "address",
          "name": "from",
          "type": "address"
        },
        {
          "internalType": "uint256",
          "name": "tokenId",
          "type": "uint256"
        },
        {
          "internalType": "bytes",
          "name": "data",
          "type": "bytes"
        }
      ],
      "name": "onERC721Received",
      "outputs": [
        {
          "internalType": "bytes4",
          "name": "",
          "type": "bytes4"
        }
      ],
      "stateMutability": "nonpayable",
      "type": "function"
    },
    {
      "inputs": [],
      "name": "owner",
      "outputs": [
        {
          "internalType": "address",
          "name": "",
          "type": "address"
        }
      ],
      "stateMutability": "view",
      "type": "function"
    },
    {
      "inputs": [
        {
          "internalType": "uint256",
          "name": "tokenId",
          "type": "uint256"
        }
      ],
      "name": "ownerOf",
      "outputs": [
        {
          "internalType": "address",
          "name": "",
          "type": "address"
        }
      ],
      "stateMutability": "view",
      "type": "function"
    },
    {
      "inputs": [],
      "name": "renounceOwnership",
      "outputs": [],
      "stateMutability": "nonpayable",
      "type": "function"
    },
    {
      "inputs": [],
      "name": "resetMintState",
      "outputs": [],
      "stateMutability": "nonpayable",
      "type": "function"
    },
    {
      "inputs": [
        {
          "internalType": "address",
          "name": "from",
          "type": "address"
        },
        {
          "internalType": "address",
          "name": "to",
          "type": "address"
        },
        {
          "internalType": "uint256",
          "name": "tokenId",
          "type": "uint256"
        }
      ],
      "name": "safeTransferFrom",
      "outputs": [],
      "stateMutability": "nonpayable",
      "type": "function"
    },
    {
      "inputs": [
        {
          "internalType": "address",
          "name": "from",
          "type": "address"
        },
        {
          "internalType": "address",
          "name": "to",
          "type": "address"
        },
        {
          "internalType": "uint256",
          "name": "tokenId",
          "type": "uint256"
        },
        {
          "internalType": "bytes",
          "name": "data",
          "type": "bytes"
        }
      ],
      "name": "safeTransferFrom",
      "outputs": [],
      "stateMutability": "nonpayable",
      "type": "function"
    },
    {
      "inputs": [],
      "name": "sandToken",
      "outputs": [
        {
          "internalType": "contract IERC20",
          "name": "",
          "type": "address"
        }
      ],
      "stateMutability": "view",
      "type": "function"
    },
    {
      "inputs": [
        {
          "internalType": "address",
          "name": "operator",
          "type": "address"
        },
        {
          "internalType": "bool",
          "name": "approved",
          "type": "bool"
        }
      ],
      "name": "setApprovalForAll",
      "outputs": [],
      "stateMutability": "nonpayable",
      "type": "function"
    },
    {
      "inputs": [
        {
          "internalType": "address",
          "name": "_sandToken",
          "type": "address"
        }
      ],
      "name": "setSandToken",
      "outputs": [],
      "stateMutability": "nonpayable",
      "type": "function"
    },
    {
      "inputs": [
        {
          "internalType": "address",
          "name": "from",
          "type": "address"
        },
        {
          "internalType": "address",
          "name": "to",
          "type": "address"
        },
        {
          "internalType": "uint256",
          "name": "tokenId",
          "type": "uint256"
        }
      ],
      "name": "transferFrom",
      "outputs": [],
      "stateMutability": "nonpayable",
      "type": "function"
    },
    {
      "inputs": [
        {
          "internalType": "address",
          "name": "newOwner",
          "type": "address"
        }
      ],
      "name": "transferOwnership",
      "outputs": [],
      "stateMutability": "nonpayable",
      "type": "function"
    }
  ],
  "transactionHash": "0xce3375536cd979fb0d0441cb054244464d36f482ff965a8126ce574133575a3d",
  "args": [
    "0xD20fbd836e80DabFb777E6AaBbe52e96c07eCD1B"
  ],
  "numDeployments": 1,
  "solcInputHash": "5339b48c68354bf2f69d5c985f6666af",
  "bytecode": "0x608060405234801561001057600080fd5b50604051610e35380380610e3583398101604081905261002f916100d4565b338061005557604051631e4fbdf760e01b81526000600482015260240160405180910390fd5b61005e81610084565b50600180546001600160a01b0319166001600160a01b0392909216919091179055610104565b600080546001600160a01b038381166001600160a01b0319831681178455604051919092169283917f8be0079c531659141344cd1fd0a4f28419497f9722a3daafe3b4186f6b6457e09190a35050565b6000602082840312156100e657600080fd5b81516001600160a01b03811681146100fd57600080fd5b9392505050565b610d22806101136000396000f3fe6080604052600436106100fe5760003560e01c80636352211e116100955780638da5cb5b116100645780638da5cb5b1461026e578063a22cb4651461028c578063b88d4fde146102a7578063e985e9c5146102c9578063f2fde38b146102fc57600080fd5b80636352211e1461010357806370a0823114610210578063715018a614610239578063818a304b1461024e57600080fd5b806323b872dd116100d157806323b872dd146101bb578063322490ad146101db57806338cc39a2146101f057806342842e0e146101bb57600080fd5b8063081812fc14610103578063095ea7b31461014157806309b9dfd614610162578063150b7a0214610182575b600080fd5b34801561010f57600080fd5b5061012461011e366004610927565b50600090565b6040516001600160a01b0390911681526020015b60405180910390f35b34801561014d57600080fd5b5061016061015c36600461095c565b5050565b005b6101756101703660046109cf565b61031c565b6040516101389190610abe565b34801561018e57600080fd5b506101a261019d366004610ad8565b6106e2565b6040516001600160e01b03199091168152602001610138565b3480156101c757600080fd5b506101606101d6366004610b47565b505050565b3480156101e757600080fd5b50610160610814565b3480156101fc57600080fd5b5061016061020b366004610b84565b61082e565b34801561021c57600080fd5b5061022b61011e366004610b84565b604051908152602001610138565b34801561024557600080fd5b50610160610858565b34801561025a57600080fd5b50600154610124906001600160a01b031681565b34801561027a57600080fd5b506000546001600160a01b0316610124565b34801561029857600080fd5b5061016061015c366004610bad565b3480156102b357600080fd5b506101606102c2366004610ad8565b5050505050565b3480156102d557600080fd5b506102ec6102e4366004610be4565b600092915050565b6040519015158152602001610138565b34801561030857600080fd5b50610160610317366004610b84565b61086c565b600254606090600160a01b900460ff161561037e5760405162461bcd60e51b815260206004820152601b60248201527f416e6f74686572206d696e7420697320696e2070726f6772657373000000000060448201526064015b60405180910390fd5b6001600160a01b0387166103d45760405162461bcd60e51b815260206004820152601960248201527f496e76616c696420726563697069656e742061646472657373000000000000006044820152606401610375565b600280546001600160a81b0319166001600160a01b0389811691909117600160a01b179091556001546040516323b872dd60e01b81528c83166004820152306024820152604481018b90529116906323b872dd906064016020604051808303816000875af115801561044a573d6000803e3d6000fd5b505050506040513d601f19601f8201168201806040525081019061046e9190610c17565b506001546040516370a0823160e01b815230600482015289916001600160a01b0316906370a0823190602401602060405180830381865afa1580156104b7573d6000803e3d6000fd5b505050506040513d601f19601f820116820180604052508101906104db9190610c34565b10156105295760405162461bcd60e51b815260206004820152601860248201527f496e73756666696369656e742053616e6420746f6b656e7300000000000000006044820152606401610375565b60007f26b3af647ad734a02816068f498fe06b7f55b1a1a4a4e2a86b321f99e916045b905060008130888a89898960405160240161056c96959493929190610c4d565b604051602081830303815290604052906001600160e01b0319166020820180516001600160e01b0383818316178352505050509050600080600160009054906101000a90046001600160a01b03166001600160a01b03167fcae9ca5133009d821214ac8231b3d170f22d822ee165adb631578070b6316fc98e8e866040516024016105f993929190610ca0565b60408051601f198184030181529181526020820180516001600160e01b03166001600160e01b03199094169390931790925290516106379190610cd0565b6000604051808303816000865af19150503d8060008114610674576040519150601f19603f3d011682016040523d82523d6000602084013e610679565b606091505b5091509150816106d157600280546001600160a81b031916905560405162461bcd60e51b8152602060048201526013602482015272139195081c1d5c98da185cd94819985a5b1959606a1b6044820152606401610375565b9d9c50505050505050505050505050565b600254600090600160a01b900460ff166107345760405162461bcd60e51b81526020600482015260136024820152724e6f206d696e7420696e2070726f677265737360681b6044820152606401610375565b6002546001600160a01b03166107855760405162461bcd60e51b8152602060048201526016602482015275139bc81c9958da5c1a595b9d081cdc1958da599a595960521b6044820152606401610375565b600280546001600160a81b031981169091556040516323b872dd60e01b81523060048201526001600160a01b0390911660248201819052604482018690529033906323b872dd90606401600060405180830381600087803b1580156107e957600080fd5b505af11580156107fd573d6000803e3d6000fd5b50630a85bd0160e11b9a9950505050505050505050565b61081c6108aa565b600280546001600160a81b0319169055565b6108366108aa565b600180546001600160a01b0319166001600160a01b0392909216919091179055565b6108606108aa565b61086a60006108d7565b565b6108746108aa565b6001600160a01b03811661089e57604051631e4fbdf760e01b815260006004820152602401610375565b6108a7816108d7565b50565b6000546001600160a01b0316331461086a5760405163118cdaa760e01b8152336004820152602401610375565b600080546001600160a01b038381166001600160a01b0319831681178455604051919092169283917f8be0079c531659141344cd1fd0a4f28419497f9722a3daafe3b4186f6b6457e09190a35050565b60006020828403121561093957600080fd5b5035919050565b80356001600160a01b038116811461095757600080fd5b919050565b6000806040838503121561096f57600080fd5b61097883610940565b946020939093013593505050565b60008083601f84011261099857600080fd5b50813567ffffffffffffffff8111156109b057600080fd5b6020830191508360208285010111156109c857600080fd5b9250929050565b60008060008060008060008060006101008a8c0312156109ee57600080fd5b6109f78a610940565b9850610a0560208b01610940565b975060408a01359650610a1a60608b01610940565b955060808a0135945060a08a0135935060c08a0135925060e08a013567ffffffffffffffff811115610a4b57600080fd5b610a578c828d01610986565b915080935050809150509295985092959850929598565b60005b83811015610a89578181015183820152602001610a71565b50506000910152565b60008151808452610aaa816020860160208601610a6e565b601f01601f19169290920160200192915050565b602081526000610ad16020830184610a92565b9392505050565b600080600080600060808688031215610af057600080fd5b610af986610940565b9450610b0760208701610940565b935060408601359250606086013567ffffffffffffffff811115610b2a57600080fd5b610b3688828901610986565b969995985093965092949392505050565b600080600060608486031215610b5c57600080fd5b610b6584610940565b9250610b7360208501610940565b929592945050506040919091013590565b600060208284031215610b9657600080fd5b610ad182610940565b80151581146108a757600080fd5b60008060408385031215610bc057600080fd5b610bc983610940565b91506020830135610bd981610b9f565b809150509250929050565b60008060408385031215610bf757600080fd5b610c0083610940565b9150610c0e60208401610940565b90509250929050565b600060208284031215610c2957600080fd5b8151610ad181610b9f565b600060208284031215610c4657600080fd5b5051919050565b60018060a01b038716815285602082015284604082015283606082015260a060808201528160a0820152818360c0830137600081830160c090810191909152601f909201601f1916010195945050505050565b60018060a01b0384168152826020820152606060408201526000610cc76060830184610a92565b95945050505050565b60008251610ce2818460208701610a6e565b919091019291505056fea264697066735822122039014b4e192ba1a5ff6fbdfbc767c5b92aa0098980bc41db03b0949a8dba51aa64736f6c634300081a0033",
  "devdoc": {
    "author": "The Sandbox",
    "details": "Implements a fake ERC721 interface and acts as an intermediary for NFT purchases",
    "errors": {
      "OwnableInvalidOwner(address)": [
        {
          "details": "The owner is not a valid owner account. (eg. `address(0)`)"
        }
      ],
      "OwnableUnauthorizedAccount(address)": [
        {
          "details": "The caller account is not authorized to perform an operation."
        }
      ]
    },
    "kind": "dev",
    "methods": {
      "approve(address,uint256)": {
        "details": "Required for interface compatibility, but no actual functionality"
      },
      "balanceOf(address)": {
        "details": "Required for interface compatibility"
      },
      "confirmPurchase(address,address,uint256,address,uint256,uint256,uint256,bytes)": {
        "params": {
          "amount": "The amount of tokens approved for the purchase",
          "nftCollection": "Address of the NFT Collection contract",
          "sender": "The original sender of the approveAndCall transaction",
          "signature": "The signature data for verification",
          "signatureId": "The signature ID for verification",
          "tokenAmount": "The number of tokens to mint",
          "wallet": "The wallet to receive the NFT",
          "waveIndex": "The wave index for minting"
        },
        "returns": {
          "_0": "The result of the NFT minting operation"
        }
      },
      "constructor": {
        "params": {
          "_sandToken": "Address of the Sand token contract"
        }
      },
      "getApproved(uint256)": {
        "details": "Required for interface compatibility"
      },
      "isApprovedForAll(address,address)": {
        "details": "Required for interface compatibility"
      },
      "onERC721Received(address,address,uint256,bytes)": {
        "details": "Forwards the received token to the intended recipient",
        "params": {
          "data": "Additional data with no specified format",
          "from": "The address which previously owned the token",
          "operator": "The address which called the `safeTransferFrom` function",
          "tokenId": "The ID of the token being transferred"
        },
        "returns": {
          "_0": "bytes4 `bytes4(keccak256(\"onERC721Received(address,address,uint256,bytes)\"))`"
        }
      },
      "owner()": {
        "details": "Returns the address of the current owner."
      },
      "ownerOf(uint256)": {
        "details": "Required for interface compatibility"
      },
      "renounceOwnership()": {
        "details": "Leaves the contract without owner. It will not be possible to call `onlyOwner` functions. Can only be called by the current owner. NOTE: Renouncing ownership will leave the contract without an owner, thereby disabling any functionality that is only available to the owner."
      },
      "resetMintState()": {
        "details": "Only callable by owner"
      },
      "safeTransferFrom(address,address,uint256)": {
        "details": "Required for interface compatibility, but no actual functionality"
      },
      "safeTransferFrom(address,address,uint256,bytes)": {
        "details": "Required for interface compatibility, but no actual functionality"
      },
      "setApprovalForAll(address,bool)": {
        "details": "Required for interface compatibility, but no actual functionality"
      },
      "setSandToken(address)": {
        "params": {
          "_sandToken": "Address of the new Sand token contract"
        }
      },
      "transferFrom(address,address,uint256)": {
        "details": "Required for interface compatibility, but no actual functionality"
      },
      "transferOwnership(address)": {
        "details": "Transfers ownership of the contract to a new account (`newOwner`). Can only be called by the current owner."
      }
    },
    "title": "PurchaseWrapper",
    "version": 1
  },
  "userdoc": {
    "kind": "user",
    "methods": {
      "approve(address,uint256)": {
        "notice": "Fake ERC721 approval implementation that does nothing"
      },
      "balanceOf(address)": {
        "notice": "Fake ERC721 balanceOf implementation"
      },
      "confirmPurchase(address,address,uint256,address,uint256,uint256,uint256,bytes)": {
        "notice": "Handles the purchase confirmation and initiates the NFT minting"
      },
      "constructor": {
        "notice": "Constructor to set initial configuration"
      },
      "getApproved(uint256)": {
        "notice": "Fake ERC721 getApproved implementation"
      },
      "isApprovedForAll(address,address)": {
        "notice": "Fake ERC721 isApprovedForAll implementation"
      },
      "onERC721Received(address,address,uint256,bytes)": {
        "notice": "Handles the receipt of an ERC721 token"
      },
      "ownerOf(uint256)": {
        "notice": "Fake ERC721 ownerOf implementation"
      },
      "resetMintState()": {
        "notice": "Emergency function to reset mint state if stuck"
      },
      "safeTransferFrom(address,address,uint256)": {
        "notice": "Fake ERC721 safe transfer implementation that does nothing"
      },
      "safeTransferFrom(address,address,uint256,bytes)": {
        "notice": "Fake ERC721 safe transfer with data implementation that does nothing"
      },
      "setApprovalForAll(address,bool)": {
        "notice": "Fake ERC721 setApprovalForAll implementation that does nothing"
      },
      "setSandToken(address)": {
        "notice": "Updates the Sand token contract address"
      },
      "transferFrom(address,address,uint256)": {
        "notice": "Fake ERC721 transfer implementation that does nothing"
      }
    },
    "notice": "Contract that facilitates NFT purchases through ERC20 tokens",
    "version": 1
  },
  "storageLayout": {
    "storage": [
      {
        "astId": 112,
        "contract": "@sandbox-smart-contracts/avatar/contracts/nft-collection/PurchaseWrapper.sol:PurchaseWrapper",
        "label": "_owner",
        "offset": 0,
        "slot": "0",
        "type": "t_address"
      },
      {
        "astId": 814,
        "contract": "@sandbox-smart-contracts/avatar/contracts/nft-collection/PurchaseWrapper.sol:PurchaseWrapper",
        "label": "sandToken",
        "offset": 0,
        "slot": "1",
        "type": "t_contract(IERC20)329"
      },
      {
        "astId": 816,
        "contract": "@sandbox-smart-contracts/avatar/contracts/nft-collection/PurchaseWrapper.sol:PurchaseWrapper",
        "label": "_currentRecipient",
        "offset": 0,
        "slot": "2",
        "type": "t_address"
      },
      {
        "astId": 818,
        "contract": "@sandbox-smart-contracts/avatar/contracts/nft-collection/PurchaseWrapper.sol:PurchaseWrapper",
        "label": "_mintInProgress",
        "offset": 20,
        "slot": "2",
        "type": "t_bool"
      }
    ],
    "types": {
      "t_address": {
        "encoding": "inplace",
        "label": "address",
        "numberOfBytes": "20"
      },
      "t_bool": {
        "encoding": "inplace",
        "label": "bool",
        "numberOfBytes": "1"
      },
      "t_contract(IERC20)329": {
        "encoding": "inplace",
        "label": "contract IERC20",
        "numberOfBytes": "20"
      }
    }
  }
}