{
  "address": "0x3dB6D51D8de507615f643C27B6351F3bFeB8880C",
  "abi": [
    {
      "inputs": [
        {
          "internalType": "string",
          "name": "name_",
          "type": "string"
        },
        {
          "internalType": "string",
          "name": "symbol_",
          "type": "string"
        },
        {
          "internalType": "uint96",
          "name": "initialTokenSupply",
          "type": "uint96"
        },
        {
          "internalType": "address",
          "name": "initialSupplyOwner",
          "type": "address"
        }
      ],
      "stateMutability": "nonpayable",
      "type": "constructor"
    },
    {
      "inputs": [],
      "name": "AlreadyInitialized",
      "type": "error"
    },
    {
      "inputs": [],
      "name": "ApprovalCallerNotOwnerNorApproved",
      "type": "error"
    },
    {
      "inputs": [],
      "name": "DNAlreadyInitialized",
      "type": "error"
    },
    {
      "inputs": [],
      "name": "DNNotInitialized",
      "type": "error"
    },
    {
      "inputs": [],
      "name": "FnSelectorNotRecognized",
      "type": "error"
    },
    {
      "inputs": [],
      "name": "InsufficientAllowance",
      "type": "error"
    },
    {
      "inputs": [],
      "name": "InsufficientBalance",
      "type": "error"
    },
    {
      "inputs": [],
      "name": "InvalidUnit",
      "type": "error"
    },
    {
      "inputs": [],
      "name": "LinkMirrorContractFailed",
      "type": "error"
    },
    {
      "inputs": [],
      "name": "MirrorAddressIsZero",
      "type": "error"
    },
    {
      "inputs": [],
      "name": "NewOwnerIsZeroAddress",
      "type": "error"
    },
    {
      "inputs": [],
      "name": "NoHandoverRequest",
      "type": "error"
    },
    {
      "inputs": [],
      "name": "SenderNotMirror",
      "type": "error"
    },
    {
      "inputs": [],
      "name": "TokenDoesNotExist",
      "type": "error"
    },
    {
      "inputs": [],
      "name": "TotalSupplyOverflow",
      "type": "error"
    },
    {
      "inputs": [],
      "name": "TransferCallerNotOwnerNorApproved",
      "type": "error"
    },
    {
      "inputs": [],
      "name": "TransferFromIncorrectOwner",
      "type": "error"
    },
    {
      "inputs": [],
      "name": "TransferToZeroAddress",
      "type": "error"
    },
    {
      "inputs": [],
      "name": "Unauthorized",
      "type": "error"
    },
    {
      "anonymous": false,
      "inputs": [
        {
          "indexed": true,
          "internalType": "address",
          "name": "owner",
          "type": "address"
        },
        {
          "indexed": true,
          "internalType": "address",
          "name": "spender",
          "type": "address"
        },
        {
          "indexed": false,
          "internalType": "uint256",
          "name": "amount",
          "type": "uint256"
        }
      ],
      "name": "Approval",
      "type": "event"
    },
    {
      "anonymous": false,
      "inputs": [
        {
          "indexed": true,
          "internalType": "address",
          "name": "pendingOwner",
          "type": "address"
        }
      ],
      "name": "OwnershipHandoverCanceled",
      "type": "event"
    },
    {
      "anonymous": false,
      "inputs": [
        {
          "indexed": true,
          "internalType": "address",
          "name": "pendingOwner",
          "type": "address"
        }
      ],
      "name": "OwnershipHandoverRequested",
      "type": "event"
    },
    {
      "anonymous": false,
      "inputs": [
        {
          "indexed": true,
          "internalType": "address",
          "name": "oldOwner",
          "type": "address"
        },
        {
          "indexed": true,
          "internalType": "address",
          "name": "newOwner",
          "type": "address"
        }
      ],
      "name": "OwnershipTransferred",
      "type": "event"
    },
    {
      "anonymous": false,
      "inputs": [
        {
          "indexed": true,
          "internalType": "address",
          "name": "owner",
          "type": "address"
        },
        {
          "indexed": false,
          "internalType": "bool",
          "name": "status",
          "type": "bool"
        }
      ],
      "name": "SkipNFTSet",
      "type": "event"
    },
    {
      "anonymous": false,
      "inputs": [
        {
          "indexed": true,
          "internalType": "address",
          "name": "from",
          "type": "address"
        },
        {
          "indexed": true,
          "internalType": "address",
          "name": "to",
          "type": "address"
        },
        {
          "indexed": false,
          "internalType": "uint256",
          "name": "amount",
          "type": "uint256"
        }
      ],
      "name": "Transfer",
      "type": "event"
    },
    {
      "stateMutability": "payable",
      "type": "fallback"
    },
    {
      "inputs": [
        {
          "internalType": "address",
          "name": "owner",
          "type": "address"
        },
        {
          "internalType": "address",
          "name": "spender",
          "type": "address"
        }
      ],
      "name": "allowance",
      "outputs": [
        {
          "internalType": "uint256",
          "name": "",
          "type": "uint256"
        }
      ],
      "stateMutability": "view",
      "type": "function"
    },
    {
      "inputs": [
        {
          "internalType": "address",
          "name": "spender",
          "type": "address"
        },
        {
          "internalType": "uint256",
          "name": "amount",
          "type": "uint256"
        }
      ],
      "name": "approve",
      "outputs": [
        {
          "internalType": "bool",
          "name": "",
          "type": "bool"
        }
      ],
      "stateMutability": "nonpayable",
      "type": "function"
    },
    {
      "inputs": [
        {
          "internalType": "address",
          "name": "owner",
          "type": "address"
        }
      ],
      "name": "balanceOf",
      "outputs": [
        {
          "internalType": "uint256",
          "name": "",
          "type": "uint256"
        }
      ],
      "stateMutability": "view",
      "type": "function"
    },
    {
      "inputs": [],
      "name": "cancelOwnershipHandover",
      "outputs": [],
      "stateMutability": "payable",
      "type": "function"
    },
    {
      "inputs": [
        {
          "internalType": "address",
          "name": "pendingOwner",
          "type": "address"
        }
      ],
      "name": "completeOwnershipHandover",
      "outputs": [],
      "stateMutability": "payable",
      "type": "function"
    },
    {
      "inputs": [],
      "name": "decimals",
      "outputs": [
        {
          "internalType": "uint8",
          "name": "",
          "type": "uint8"
        }
      ],
      "stateMutability": "view",
      "type": "function"
    },
    {
      "inputs": [
        {
          "internalType": "address",
          "name": "owner",
          "type": "address"
        }
      ],
      "name": "getSkipNFT",
      "outputs": [
        {
          "internalType": "bool",
          "name": "",
          "type": "bool"
        }
      ],
      "stateMutability": "view",
      "type": "function"
    },
    {
      "inputs": [
        {
          "internalType": "address",
          "name": "to",
          "type": "address"
        },
        {
          "internalType": "uint256",
          "name": "amount",
          "type": "uint256"
        }
      ],
      "name": "mint",
      "outputs": [],
      "stateMutability": "nonpayable",
      "type": "function"
    },
    {
      "inputs": [],
      "name": "mirrorERC721",
      "outputs": [
        {
          "internalType": "address",
          "name": "",
          "type": "address"
        }
      ],
      "stateMutability": "view",
      "type": "function"
    },
    {
      "inputs": [],
      "name": "name",
      "outputs": [
        {
          "internalType": "string",
          "name": "",
          "type": "string"
        }
      ],
      "stateMutability": "view",
      "type": "function"
    },
    {
      "inputs": [],
      "name": "owner",
      "outputs": [
        {
          "internalType": "address",
          "name": "result",
          "type": "address"
        }
      ],
      "stateMutability": "view",
      "type": "function"
    },
    {
      "inputs": [
        {
          "internalType": "address",
          "name": "pendingOwner",
          "type": "address"
        }
      ],
      "name": "ownershipHandoverExpiresAt",
      "outputs": [
        {
          "internalType": "uint256",
          "name": "result",
          "type": "uint256"
        }
      ],
      "stateMutability": "view",
      "type": "function"
    },
    {
      "inputs": [],
      "name": "renounceOwnership",
      "outputs": [],
      "stateMutability": "payable",
      "type": "function"
    },
    {
      "inputs": [],
      "name": "requestOwnershipHandover",
      "outputs": [],
      "stateMutability": "payable",
      "type": "function"
    },
    {
      "inputs": [
        {
          "internalType": "string",
          "name": "baseURI_",
          "type": "string"
        }
      ],
      "name": "setBaseURI",
      "outputs": [],
      "stateMutability": "nonpayable",
      "type": "function"
    },
    {
      "inputs": [
        {
          "internalType": "bool",
          "name": "skipNFT",
          "type": "bool"
        }
      ],
      "name": "setSkipNFT",
      "outputs": [
        {
          "internalType": "bool",
          "name": "",
          "type": "bool"
        }
      ],
      "stateMutability": "nonpayable",
      "type": "function"
    },
    {
      "inputs": [],
      "name": "symbol",
      "outputs": [
        {
          "internalType": "string",
          "name": "",
          "type": "string"
        }
      ],
      "stateMutability": "view",
      "type": "function"
    },
    {
      "inputs": [],
      "name": "totalSupply",
      "outputs": [
        {
          "internalType": "uint256",
          "name": "",
          "type": "uint256"
        }
      ],
      "stateMutability": "view",
      "type": "function"
    },
    {
      "inputs": [
        {
          "internalType": "address",
          "name": "to",
          "type": "address"
        },
        {
          "internalType": "uint256",
          "name": "amount",
          "type": "uint256"
        }
      ],
      "name": "transfer",
      "outputs": [
        {
          "internalType": "bool",
          "name": "",
          "type": "bool"
        }
      ],
      "stateMutability": "nonpayable",
      "type": "function"
    },
    {
      "inputs": [
        {
          "internalType": "address",
          "name": "from",
          "type": "address"
        },
        {
          "internalType": "address",
          "name": "to",
          "type": "address"
        },
        {
          "internalType": "uint256",
          "name": "amount",
          "type": "uint256"
        }
      ],
      "name": "transferFrom",
      "outputs": [
        {
          "internalType": "bool",
          "name": "",
          "type": "bool"
        }
      ],
      "stateMutability": "nonpayable",
      "type": "function"
    },
    {
      "inputs": [
        {
          "internalType": "address",
          "name": "newOwner",
          "type": "address"
        }
      ],
      "name": "transferOwnership",
      "outputs": [],
      "stateMutability": "payable",
      "type": "function"
    },
    {
      "inputs": [],
      "name": "withdraw",
      "outputs": [],
      "stateMutability": "nonpayable",
      "type": "function"
    },
    {
      "stateMutability": "payable",
      "type": "receive"
    }
  ],
  "transactionHash": "0xa87c2a7f80c5cb9c008d99557b326cfcb531e8f4d01d353519d5cc691935cc47",
  "args": [
    "Simples",
    "SIMP",
    "5000000000000000000000",
    "0x49c4D4C94829B9c44052C5f5Cb164Fc612181165"
  ],
  "numDeployments": 1,
  "solcInputHash": "efe1133fb66c7fcb6c05f983751390cd",
  "bytecode": "0x608060405234801561001057600080fd5b50604051613db7380380613db783398101604081905261002f91610460565b610038336100ae565b6000610044858261058e565b506001610051848261058e565b5060003360405161006190610395565b6001600160a01b039091168152602001604051809103906000f08015801561008d573d6000803e3d6000fd5b5090506100a46001600160601b03841683836100ea565b505050505061064d565b6001600160a01b0316638b78c6d8198190558060007f8be0079c531659141344cd1fd0a4f28419497f9722a3daafe3b4186f6b6457e08180a350565b68a20d6e21d0e52553095468a20d6e21d0e5255308906001600160a01b03161561012757604051633ab534b960e21b815260040160405180910390fd5b6001600160a01b03821661014e576040516339a84a7b60e01b815260040160405180910390fd5b630f4599e560005233602052602060006024601c6000865af1600160005114166101805763d125259c6000526004601cfd5b805463ffffffff60201b19166401000000001781556001810180546001600160a01b0384166001600160a01b0319909116179055831561029c576001600160a01b0383166101e157604051633a954ecd60e21b815260040160405180910390fd5b606084901c670de0b6b3a7640000850463fffffffe1017156102165760405163e5cfe95760e01b815260040160405180910390fd5b80546001600160a01b0316600160a01b6001600160601b03861602178155600061023f846102a2565b80546001600160601b038716600160a01b026001600160a01b0391821617825560008781529192508516907fddf252ad1be2c89b69c2b068fc378daa952ba7f163c4a11628f55a4df523b3ef602082a361029a846001610307565b505b50505050565b6001600160a01b038116600090815268a20d6e21d0e52553136020526040902080546b010000000000000000000000900460011661030257805460ff60581b19166b01000000000000000000000060ff843b151560020260011716021781555b919050565b6000610312836102a2565b80549091506b010000000000000000000000900460021615158215151461035d57805460ff6b01000000000000000000000080830482166002189091160260ff60581b199091161781555b8115156000528260601b60601c7fb5a1de456fff688115a4f75380060c23c8532d14ff85f687cc871456d642039360206000a2505050565b610ea180612f1683390190565b634e487b7160e01b600052604160045260246000fd5b600082601f8301126103c957600080fd5b81516001600160401b03808211156103e3576103e36103a2565b604051601f8301601f19908116603f0116810190828211818310171561040b5761040b6103a2565b816040528381526020925086602085880101111561042857600080fd5b600091505b8382101561044a578582018301518183018401529082019061042d565b6000602085830101528094505050505092915050565b6000806000806080858703121561047657600080fd5b84516001600160401b038082111561048d57600080fd5b610499888389016103b8565b955060208701519150808211156104af57600080fd5b506104bc878288016103b8565b604087015190945090506001600160601b03811681146104db57600080fd5b60608601519092506001600160a01b03811681146104f857600080fd5b939692955090935050565b600181811c9082168061051757607f821691505b60208210810361053757634e487b7160e01b600052602260045260246000fd5b50919050565b601f821115610589576000816000526020600020601f850160051c810160208610156105665750805b601f850160051c820191505b8181101561058557828155600101610572565b5050505b505050565b81516001600160401b038111156105a7576105a76103a2565b6105bb816105b58454610503565b8461053d565b602080601f8311600181146105f057600084156105d85750858301515b600019600386901b1c1916600185901b178555610585565b600085815260208120601f198616915b8281101561061f57888601518255948401946001909101908401610600565b508582101561063d5787850151600019600388901b60f8161c191681555b5050505050600190811b01905550565b6128ba8061065c6000396000f3fe6080604052600436106101795760003560e01c806354d1f13d116100cb57806395d89b411161007f578063f04e283e11610059578063f04e283e146106cc578063f2fde38b146106df578063fee81cf4146106f25761018b565b806395d89b4114610658578063a9059cbb1461066d578063dd62ed3e1461068d5761018b565b806370a08231116100b057806370a08231146105e4578063715018a6146106375780638da5cb5b1461063f5761018b565b806354d1f13d146105bc57806355f804b3146105c45761018b565b8063274e430b1161012d5780633ccfd60b116101075780633ccfd60b1461054d57806340c10f19146105625780634ef41efc146105825761018b565b8063274e430b146104f15780632a6a935d14610511578063313ce567146105315761018b565b806318160ddd1161015e57806318160ddd1461048d57806323b872dd146104c957806325692962146104e95761018b565b806306fdde0314610432578063095ea7b31461045d5761018b565b3661018b57341561018957600080fd5b005b68a20d6e21d0e525530860003560e01c63e5eb36c88190036101f25760018201546001600160a01b031633146101d45760405163ce5a776b60e01b815260040160405180910390fd5b6101e8600435602435604435606435610725565b6101f26001610bc2565b8063813500fc0361025e5760018201546001600160a01b0316331461022a5760405163ce5a776b60e01b815260040160405180910390fd5b600435602890815260443560145268a20d6e21d0e525530b60009081526048812091526024351515905561025e6001610bc2565b8063e985e9c503610288576000610279600435602435610bcc565b9050610286811515610bc2565b505b80636352211e036102af576102af6102a1600435610bf5565b6001600160a01b0316610bc2565b806324359879036102c8576102c86102a1600435610c3b565b8063d10b6e0c036103295760018201546001600160a01b031633146103005760405163ce5a776b60e01b815260040160405180910390fd5b6000610313600435602435604435610c98565b9050610327816001600160a01b0316610bc2565b505b8063081812fc03610342576103426102a1600435610da3565b8063f5b100ea03610386576001600160a01b0360043516600090815268a20d6e21d0e5255313602052604090205461038690600160801b900463ffffffff16610bc2565b8063e2c79281036103b25768a20d6e21d0e5255308546103b290600160801b900463ffffffff16610bc2565b8063c87b56dd036103eb5760206040510160405260006103d96103d460043590565b610e08565b90506020810360208152815160600181f35b8063b7a94eb803610400576104006001610bc2565b6040517f3c10b94e00000000000000000000000000000000000000000000000000000000815260040160405180910390fd5b34801561043e57600080fd5b50610447610e51565b60405161045491906124d6565b60405180910390f35b34801561046957600080fd5b5061047d610478366004612520565b610ee3565b6040519015158152602001610454565b34801561049957600080fd5b5068a20d6e21d0e525530854600160a01b90046bffffffffffffffffffffffff165b604051908152602001610454565b3480156104d557600080fd5b5061047d6104e436600461254a565b610ef9565b610189610f80565b3480156104fd57600080fd5b5061047d61050c366004612586565b610fd0565b34801561051d57600080fd5b5061047d61052c3660046125a1565b61101d565b34801561053d57600080fd5b5060405160128152602001610454565b34801561055957600080fd5b50610189611031565b34801561056e57600080fd5b5061018961057d366004612520565b611044565b34801561058e57600080fd5b5068a20d6e21d0e5255309546001600160a01b03165b6040516001600160a01b039091168152602001610454565b61018961105a565b3480156105d057600080fd5b506101896105df3660046125c3565b611096565b3480156105f057600080fd5b506104bb6105ff366004612586565b6001600160a01b0316600090815268a20d6e21d0e52553136020526040902054600160a01b90046bffffffffffffffffffffffff1690565b6101896110b0565b34801561064b57600080fd5b50638b78c6d819546105a4565b34801561066457600080fd5b506104476110c2565b34801561067957600080fd5b5061047d610688366004612520565b6110d1565b34801561069957600080fd5b506104bb6106a8366004612635565b602890815260149190915268a20d6e21d0e525530f60009081526048812091525490565b6101896106da366004612586565b6110de565b6101896106ed366004612586565b61111e565b3480156106fe57600080fd5b506104bb61070d366004612586565b63389a75e1600c908152600091909152602090205490565b6001600160a01b03831661074c57604051633a954ecd60e21b815260040160405180910390fd5b68a20d6e21d0e52553095468a20d6e21d0e5255308906001600160a01b03166107885760405163040739bf60e41b815260040160405180910390fd5b600a81016002820160006107d2836107ae640100000000891089025b6000190160011b90565b60008160031c8360601b0180546007841660051b1c63ffffffff1691505092915050565b63ffffffff1681526020810191909152604001600020546001600160a01b0387811691161461082d576040517fa114810000000000000000000000000000000000000000000000000000000000815260040160405180910390fd5b856001600160a01b0316836001600160a01b0316146108a7576108508684610bcc565b6108a757826001600160a01b031661086785610da3565b6001600160a01b0316146108a7576040517f59c896be00000000000000000000000000000000000000000000000000000000815260040160405180910390fd5b6001600160a01b038681166000908152600b84016020526040808220928816825290208154670de0b6b3a7640000906008860190600160a01b90046bffffffffffffffffffffffff168083111561092a576040517ff4d678b800000000000000000000000000000000000000000000000000000000815260040160405180910390fd5b84546bffffffffffffffffffffffff918490038216600160a01b9081026001600160a01b039283161787558554818104841686019093160291161783556005860160601b600889901c015460ff89161c600116156109c8576005860160601b600889901c018054600160ff8b161b1916905560008881526004870160205260409020805473ffffffffffffffffffffffffffffffffffffffff191690555b6001600160a01b038a166000908152602082905260408120855460001963ffffffff600160801b80840482169290920180821690920263ffffffff60801b19909316929092178855600381901c631fffffff16606084901b015492939260059190911b60e0161c1690506000610a48886000198d01600190811b016107ae565b606084901b631fffffff600383901c1601805460e0600584901b1681811c861863ffffffff16901b1890559050610ab68860001963ffffffff851601600190811b01838160031c8360601b016007831660051b815480821c841863ffffffff16821b81188355505050505050565b5050835463ffffffff60801b198116600160801b9182900463ffffffff8181166001810182169094029290921787556001600160a01b038d16600090815260208690526040902060601b631fffffff600383901c1601805460e060059390931b9290921682811c8e1890931690921b1890559050610b7d868a610b39878e611145565b84600183038060021c8560601b0180546003831660061b92508463ffffffff168460201b178082851c1867ffffffffffffffff16841b821883555050505050505050565b50816000528860601b60601c8a60601b60601c7fddf252ad1be2c89b69c2b068fc378daa952ba7f163c4a11628f55a4df523b3ef60206000a350505050505050505050565b8060005260206000f35b6028818152601483905268a20d6e21d0e525530b60009081526048812091525415155b92915050565b6000610c0082611224565b610c36576040517fceea21b600000000000000000000000000000000000000000000000000000000815260040160405180910390fd5b610bef825b600068a20d6e21d0e525530868a20d6e21d0e525530a82610c7168a20d6e21d0e52553126107ae640100000000881088026107a4565b63ffffffff1681526020810191909152604001600020546001600160a01b03169392505050565b600068a20d6e21d0e525530868a20d6e21d0e525530a82610cce68a20d6e21d0e52553126107ae640100000000891089026107a4565b63ffffffff1681526020810191909152604001600020546001600160a01b03908116925083168214610d3a57610d048284610bcc565b610d3a576040517fcfb3b94200000000000000000000000000000000000000000000000000000000815260040160405180910390fd5b60008481526004820160205260409020805473ffffffffffffffffffffffffffffffffffffffff19166001600160a01b0387169081179091556005820160601b600886901c018054600160ff881690811b1991909116921515901b919091179055509392505050565b6000610dae82611224565b610de4576040517fceea21b600000000000000000000000000000000000000000000000000000000815260040160405180910390fd5b50600090815268a20d6e21d0e525530c60205260409020546001600160a01b031690565b606060028054610e1790612668565b159050610e4c576002610e2983611241565b604051602001610e3a9291906126a2565b60405160208183030381529060405290505b919050565b606060008054610e6090612668565b80601f0160208091040260200160405190810160405280929190818152602001828054610e8c90612668565b8015610ed95780601f10610eae57610100808354040283529160200191610ed9565b820191906000526020600020905b815481529060010190602001808311610ebc57829003601f168201915b5050505050905090565b6000610ef0338484611285565b50600192915050565b336028908152601484905268a20d6e21d0e525530f6000908152604881209181905281549091906000198114610f695780841115610f63576040517f13be252b00000000000000000000000000000000000000000000000000000000815260040160405180910390fd5b83810382555b610f748686866112e7565b50600195945050505050565b60006202a30067ffffffffffffffff164201905063389a75e1600c5233600052806020600c2055337fdbf36a107da19e49527a7176a1babf963b4b0ff8cde35ee35d6cd8f1f9ac7e1d600080a250565b6001600160a01b038116600090815268a20d6e21d0e5255313602052604081208054600160581b900460011661100a57823b5b9392505050565b54600160581b9004600216151592915050565b60006110293383611d17565b506001919050565b611039611d9d565b61104233611db8565b565b61104c611d9d565b6110568282611dd4565b5050565b63389a75e1600c523360005260006020600c2055337ffa7b8eab7da67f412cc9575ed43464468f9bfbae89d1675917346ca6d8fe3c92600080a2565b61109e611d9d565b60026110ab8284836127ad565b505050565b6110b8611d9d565b611042600061225e565b606060018054610e6090612668565b6000610ef03384846112e7565b6110e6611d9d565b63389a75e1600c52806000526020600c20805442111561110e57636f5e88186000526004601cfd5b6000905561111b8161225e565b50565b611126611d9d565b8060601b61113c57637448fbae6000526004601cfd5b61111b8161225e565b81546c01000000000000000000000000900463ffffffff1668a20d6e21d0e52553088161121d5780547fffffffffffffffffffffffffffffffffffffffffffffffffffffffff000000008116600163ffffffff92831601918216908117835585547fffffffffffffffffffffffffffffffff00000000ffffffffffffffffffffffff166c01000000000000000000000000820217865560008181526002840160205260409020805473ffffffffffffffffffffffffffffffffffffffff19166001600160a01b03871617905590925061121d57600080fd5b5092915050565b60008061123083610c3b565b6001600160a01b0316141592915050565b60606080604051019050602081016040526000815280600019835b928101926030600a8206018453600a90048061125c575050819003601f19909101908152919050565b6028828152601484905268a20d6e21d0e525530f600090815260488120915281905560008181526001600160a01b0380841691908516907f8c5be1e5ebec7d5bd14f71427d1e84f3dd0314c0f7b2291e5b200ac8c7c3b92590602090a3505050565b6001600160a01b03821661130e57604051633a954ecd60e21b815260040160405180910390fd5b6001600160a01b038316600090815268a20d6e21d0e52553136020526040812068a20d6e21d0e5255308916113428561229c565b60018401549091506001600160a01b03166113705760405163040739bf60e41b815260040160405180910390fd5b6113d260405180610140016040528060008152602001600081526020016000815260200160008152602001600081526020016000815260200160008152602001600063ffffffff16815260200160008152602001600063ffffffff1681525090565b825463ffffffff600160801b808304821660408501528454041660608301526bffffffffffffffffffffffff600160a01b9091041680861115611441576040517ff4d678b800000000000000000000000000000000000000000000000000000000815260040160405180910390fd5b83546bffffffffffffffffffffffff91879003828116600160a01b9081026001600160a01b03938416178755855481810485168a01948516909102921691909117845560408301519091906114b79061149f670de0b6b3a764000090565b84816114ad576114ad61286e565b0480821191030290565b83528354600160581b900460021661151257876001600160a01b0316896001600160a01b0316036114f057825160408401510360608401525b61150c670de0b6b3a76400008204846060015180821191030290565b60208401525b505061151c600190565b156117b457600061154e826040015161154384600001518560200151808218908211021890565b808218908211021890565b90508061155b57506117b4565b8151819003825260208201805182900390526001600160a01b03808816908916036115905760608201805190910190526117b4565b60006115f7828a8a6040805180820182526000815260606020808301828152845163144027d381526001600160a01b03978816928101929092529490951685840152848101526080840185815260059590951b840160a09081019092529390915201815290565b6001600160a01b03808b166000908152600889016020526040808220928c168252902091925090611628868b611145565b63ffffffff1660e08601526060850151938401935b6040860180516000190190819052600381901c606085901b015460009160051b60e0161c63ffffffff16606084901b600384901c01805460e0600586901b1681811c63ffffffff948516908118909416901b18905590506116e58a600a01828960e0015185600183038060021c8560601b0180546003831660061b92508463ffffffff168460201b178082851c1867ffffffffffffffff16841b821883555050505050505050565b84518181526020018552600881901c60058b0160601b015460ff82161c600116156117505760058a0160601b600882901c018054600160ff84161b19169055600081815260048b0160205260409020805473ffffffffffffffffffffffffffffffffffffffff191690555b5084816001019150810361163d5760608601819052865463ffffffff808316600160801b90810263ffffffff60801b19938416178a5560408901518b54921602911617885560018901546117ae9085906001600160a01b03166122ff565b50505050505b80516020820151855463ffffffff600160801b80830482168401859003608087018190529091160263ffffffff60801b19909116178655600a8601916000916117fd9101612334565b86546c01000000000000000000000000900463ffffffff16610120850152835190915015611a1457606089901b6001176020828101919091526001600160a01b038a166000908152600888019091526040808220908501518551810360a08701819052885463ffffffff909116600160801b0263ffffffff60801b199091161788556101208601515b60001991909101600381901c606084901b0154909190600090600584901b60e0161c63ffffffff1663ffffffff166000198101600281901c60608a901b01805460069290921b60c01682811c67ffffffffffffffff16901b909118905590508551602080880151600884901b17825201865260011561191a5760068b0160601b600882901c018054600160ff84161b191690555b84156119545760098b0160601b631fffffff600384901c1601805460e0600585901b1681811c841863ffffffff16901b1890556001909101905b600881901c60058c0160601b015460ff82161c600116156119b55760058b0160601b600882901c018054600160ff84161b19169055600081815260048c0160205260409020805473ffffffffffffffffffffffffffffffffffffffff191690555b508660a001518203611886578315611a0f5763ffffffff811661012088018190528a547fffffffffffffffffffffffffffffffff00000000ffffffffffffffffffffffff166c01000000000000000000000000909102178a555b505050505b602083015115611cb057606088901b60208201526001600160a01b03881660009081526008870160205260409020611a4c858a611145565b63ffffffff1660e08501526000670de0b6b3a76400008854600160a01b90046bffffffffffffffffffffffff1681611a8657611a8661286e565b89549190049150640100000000900463ffffffff1681811180159091021761010086015260608501516020860151810160c08701819052875463ffffffff60801b1916600160801b63ffffffff928316021788558954680100000000000000009004165b600087610120015163ffffffff168263ffffffff1614611b3a5760098b0160601b631fffffff600384901c160154600183019260e060059190911b161c63ffffffff1663ffffffff169050611b99565b506101008701515b611b5387600019830160011b6107ae565b63ffffffff1615611b8557611b7e611b728c600601836001018761237b565b85811180159091021790565b9050611b42565b600181018481118015909102176101008901525b600881901c60068c0160601b018054600160ff84161b8019909116179055600383901c606086901b018054600585901b60e01681811c841863ffffffff16901b189055611c3087828a60e0015186806001019750600183038060021c8560601b0180546003831660061b92508463ffffffff168460201b178082851c1867ffffffffffffffff16841b821883555050505050505050565b8551602080880151600884901b178252018652508660c001518203611aea57895461010088015163ffffffff908116640100000000027fffffffffffffffffffffffffffffffffffffffffffffffff00000000ffffffff919093166801000000000000000002166bffffffffffffffff0000000019909116171789555050505b60408101515115611cd4576001860154611cd49082906001600160a01b0316612476565b5050846000528560601b60601c8760601b60601c7fddf252ad1be2c89b69c2b068fc378daa952ba7f163c4a11628f55a4df523b3ef60206000a350505050505050565b6000611d228361229c565b8054909150600160581b9004600216151582151514611d6557805460ff600160581b8083048216600218909116026bff0000000000000000000000199091161781555b8115156000528260601b60601c7fb5a1de456fff688115a4f75380060c23c8532d14ff85f687cc871456d642039360206000a2505050565b638b78c6d819543314611042576382b429006000526004601cfd5b60003860003847855af161111b5763b12d13eb6000526004601cfd5b6001600160a01b038216611dfb57604051633a954ecd60e21b815260040160405180910390fd5b6000611e068361229c565b68a20d6e21d0e52553095490915068a20d6e21d0e5255308906001600160a01b0316611e455760405163040739bf60e41b815260040160405180910390fd5b60408051608081018252600080825260208201819052918101829052606081019190915282546bffffffffffffffffffffffff600160a01b80830482168701918216026001600160a01b03909216919091178455670de0b6b3a7640000810460408301525081546001600160a01b038116600160a01b918290046bffffffffffffffffffffffff908116870190811690920217835560009081611eff606083901c670de0b6b3a7640000840463fffffffe10171515151590565b9050868210811715611f3d576040517fe5cfe95700000000000000000000000000000000000000000000000000000000815260040160405180910390fd5b508454670de0b6b3a76400009091049150600160581b9004600216612221576001600160a01b03861660009081526008840160205260408082208654918501519092600a870192600160801b900463ffffffff1691611fa29083810390841002612334565b905080604001515160001461221c5760608a901b602082015260408082015151885463ffffffff600160801b80830482169093018116830263ffffffff60801b19928316178b55928901518b5493169091029116178855612003888b611145565b63ffffffff908116606088015287546c01000000000000000000000000810482166020890152640100000000810482168781118015909102178852680100000000000000009004165b6000876020015163ffffffff168263ffffffff161461209b576009890160601b631fffffff600384901c160154600183019260e060059190911b161c63ffffffff1663ffffffff1690506120f2565b5086515b6120b085600019830160011b6107ae565b63ffffffff16156120e2576120db6120cf8a600601836001018a61237b565b88811180159091021790565b905061209f565b6001810187811180159091021788525b600881901c60068a0160601b018054600160ff84161b8019909116179055600384901c606087901b018054600586901b60e01681811c841863ffffffff16901b18905561218985828a6060015187806001019850600183038060021c8560601b0180546003831660061b92508463ffffffff168460201b178082851c1867ffffffffffffffff16841b821883555050505050505050565b8251602080850151600884901b178252018352508660400151830361204c578651885463ffffffff83811668010000000000000000027fffffffffffffffffffffffffffffffffffffffff00000000ffffffffffffffff9190931664010000000002166bffffffffffffffff000000001990911617178855600188015461221a9083906001600160a01b0316612476565b505b505050505b60008581526001600160a01b038716907fddf252ad1be2c89b69c2b068fc378daa952ba7f163c4a11628f55a4df523b3ef602082a3505050505050565b638b78c6d81980546001600160a01b039092169182907f8be0079c531659141344cd1fd0a4f28419497f9722a3daafe3b4186f6b6457e0600080a355565b6001600160a01b038116600090815268a20d6e21d0e5255313602052604090208054600160581b9004600116610e4c5780546bff00000000000000000000001916600160581b60ff933b1515600202600117939093169290920291909117815590565b6020820151805160051b60840160808203915060208282601c85016000875af160018351141661232e57600082fd5b50505050565b61235860405180606001604052806000815260200160008152602001606081525090565b604051828152806020018360051b81016040528183604001528083525050919050565b6000801990508360601b8360081c81018054198560ff161c8560ff161b806123d0578460081c83015b60018301925082541991508083118217156123a457808311156123ce5760ff86191691821b90911c905b505b801561246c5782820360081b7e1f0d1e100c1d070f090b19131c1706010e11080a1a141802121b1503160405821960010183166101e07a1412563212c14164235266736f7425221143267a4524367526767760fc7b2aaaaaaaba69a69a6db6db6db2cb2cb2ce739ce73def7bdeffffffff840260f81c161b60f71c1690811c63d76453e004601f169190911a1717858111878210176000031793505b5050509392505050565b60408201516040810363263c69d68152602080820152815160051b604401915060208183601c84016000875af160018251141661232e57600081fd5b60005b838110156124cd5781810151838201526020016124b5565b50506000910152565b60208152600082518060208401526124f58160408501602087016124b2565b601f01601f19169190910160400192915050565b80356001600160a01b0381168114610e4c57600080fd5b6000806040838503121561253357600080fd5b61253c83612509565b946020939093013593505050565b60008060006060848603121561255f57600080fd5b61256884612509565b925061257660208501612509565b9150604084013590509250925092565b60006020828403121561259857600080fd5b61100382612509565b6000602082840312156125b357600080fd5b8135801515811461100357600080fd5b600080602083850312156125d657600080fd5b823567ffffffffffffffff808211156125ee57600080fd5b818501915085601f83011261260257600080fd5b81358181111561261157600080fd5b86602082850101111561262357600080fd5b60209290920196919550909350505050565b6000806040838503121561264857600080fd5b61265183612509565b915061265f60208401612509565b90509250929050565b600181811c9082168061267c57607f821691505b60208210810361269c57634e487b7160e01b600052602260045260246000fd5b50919050565b60008084546126b081612668565b600182811680156126c857600181146126fb5761272a565b7fffffffffffffffffffffffffffffffffffffffffffffffffffffffffffffff008416875282151583028701945061272a565b8860005260208060002060005b858110156127215781548a820152908401908201612708565b50505082870194505b50505050835161273e8183602088016124b2565b01949350505050565b634e487b7160e01b600052604160045260246000fd5b601f8211156110ab576000816000526020600020601f850160051c810160208610156127865750805b601f850160051c820191505b818110156127a557828155600101612792565b505050505050565b67ffffffffffffffff8311156127c5576127c5612747565b6127d9836127d38354612668565b8361275d565b6000601f84116001811461280d57600085156127f55750838201355b600019600387901b1c1916600186901b178355612867565b600083815260209020601f19861690835b8281101561283e578685013582556020948501946001909201910161281e565b508682101561285b5760001960f88860031b161c19848701351681555b505060018560011b0183555b5050505050565b634e487b7160e01b600052601260045260246000fdfea26469706673582212207ae5e05fd866b7d0bc52310edcae4f8a7dd62c70624f0e7e8df8292e71250b5b64736f6c634300081900336080604052348015600f57600080fd5b50604051610ea1380380610ea1833981016040819052602c916058565b683602298b8c10b0123180546001600160a01b0319166001600160a01b03929092169190911790556086565b600060208284031215606957600080fd5b81516001600160a01b0381168114607f57600080fd5b9392505050565b610e0c806100956000396000f3fe60806040526004361061012d5760003560e01c80636cef16e6116100a557806397e5311c11610074578063b88d4fde11610059578063b88d4fde146105c1578063c87b56dd146105d4578063e985e9c5146105f45761013f565b806397e5311c1461058c578063a22cb465146105a15761013f565b80636cef16e61461051c57806370a08231146105315780638da5cb5b1461055157806395d89b41146105775761013f565b806318160ddd116100fc57806324359879116100e157806324359879146104c957806342842e0e146104e95780636352211e146104fc5761013f565b806318160ddd1461049357806323b872dd146104b65761013f565b806301ffc9a7146103d457806306fdde0314610426578063081812fc14610448578063095ea7b3146104805761013f565b3661013f57341561013d57600080fd5b005b683602298b8c10b0123060003560e01c63263c69d681900361020e5781546001600160a01b0316331461019e576040517f363cb31200000000000000000000000000000000000000000000000000000000815260040160405180910390fd5b600435602401602081033560051b81015b8082146102015781358060601c816001168260a01b60a81c811583028284027fddf252ad1be2c89b69c2b068fc378daa952ba7f163c4a11628f55a4df523b3ef600038a45050508160200191506101af565b5050600160005260206000f35b8063144027d3036102bd5781546001600160a01b0316331461025c576040517f363cb31200000000000000000000000000000000000000000000000000000000815260040160405180910390fd5b600435602435604435602401602081033560051b81015b8082146102ae57813583857fddf252ad1be2c89b69c2b068fc378daa952ba7f163c4a11628f55a4df523b3ef600038a4816020019150610273565b50505050600160005260206000f35b80630f4599e5036103a25760018201546001600160a01b03161561032c5760018201546001600160a01b03166004356001600160a01b03161461032c576040517fc59ec47a00000000000000000000000000000000000000000000000000000000815260040160405180910390fd5b81546001600160a01b03161561036e576040517fbf656a4600000000000000000000000000000000000000000000000000000000815260040160405180910390fd5b81547fffffffffffffffffffffffff0000000000000000000000000000000000000000163317825560016000908152602090f35b6040517f3c10b94e00000000000000000000000000000000000000000000000000000000815260040160405180910390fd5b3480156103e057600080fd5b506104116103ef366004610b60565b6301ffc9a760e09190911c9081146380ac58cd821417635b5e139f9091141790565b60405190151581526020015b60405180910390f35b34801561043257600080fd5b5061043b610614565b60405161041d9190610ba9565b34801561045457600080fd5b50610468610463366004610c16565b61062a565b6040516001600160a01b03909116815260200161041d565b61013d61048e366004610c4b565b610642565b34801561049f57600080fd5b506104a86106c8565b60405190815260200161041d565b61013d6104c4366004610c75565b6106da565b3480156104d557600080fd5b506104686104e4366004610c16565b610769565b61013d6104f7366004610c75565b61077b565b34801561050857600080fd5b50610468610517366004610c16565b6107ad565b34801561052857600080fd5b506104116107bf565b34801561053d57600080fd5b506104a861054c366004610cb1565b610892565b34801561055d57600080fd5b50683602298b8c10b01232546001600160a01b0316610468565b34801561058357600080fd5b5061043b6108ad565b34801561059857600080fd5b506104686108be565b3480156105ad57600080fd5b5061013d6105bc366004610ccc565b61090c565b61013d6105cf366004610d08565b61098f565b3480156105e057600080fd5b5061043b6105ef366004610c16565b6109ea565b34801561060057600080fd5b5061041161060f366004610da3565b6109fa565b60606106256306fdde036000610a26565b905090565b600061063c63081812fc836000610a8c565b92915050565b600061064c6108be565b90508260601b60601c925060405163d10b6e0c600052836020528260405233606052602060006064601c34865af1601f3d111661068c573d6000823e3d81fd5b806040525060006060528183600c5160601c7f8c5be1e5ebec7d5bd14f71427d1e84f3dd0314c0f7b2291e5b200ac8c7c3b925600038a4505050565b600061062563e2c79281600080610a8c565b60006106e46108be565b90508360601b60601c93508260601b60601c925060405163e5eb36c881528460208201528360408201528260608201523360808201526020816084601c840134865af160018251141661073a573d6000823e3d81fd5b508183857fddf252ad1be2c89b69c2b068fc378daa952ba7f163c4a11628f55a4df523b3ef600038a450505050565b600061063c6324359879836000610a8c565b6107868383836106da565b813b156107a8576107a883838360405180602001604052806000815250610ad4565b505050565b600061063c636352211e836000610a8c565b60008060006107cc6108be565b9050638da5cb5b600052602060006004601c845afa600c51683602298b8c10b0123254601f3d119290921660609190911c029250683602298b8c10b01230906001600160a01b039081169084168114610887576002820180547fffffffffffffffffffffffff0000000000000000000000000000000000000000166001600160a01b0386811691821790925560405190918316907f8be0079c531659141344cd1fd0a4f28419497f9722a3daafe3b4186f6b6457e090600090a35b600194505050505090565b600061063c63f5b100ea836001600160a01b03166000610a8c565b60606106256395d89b416000610a26565b683602298b8c10b01230546001600160a01b031680610909576040517f5b2a47ae00000000000000000000000000000000000000000000000000000000815260040160405180910390fd5b90565b60006109166108be565b90508260601b60601c925060405163813500fc6000528360205282151560405233606052602060006064601c34865af16001600051141661095a573d6000823e3d81fd5b83337f17307eab39ab6107e8899845ad3d59bd9653f200f220920489ca2b5937696c3160206040a36040525050600060605250565b61099a8585856106da565b833b156109e3576109e385858585858080601f016020809104026020016040519081016040528093929190818152602001838380828437600092019190915250610ad492505050565b5050505050565b606061063c63c87b56dd83610a26565b6000610a1d63e985e9c5846001600160a01b0316846001600160a01b0316610a8c565b15159392505050565b60606000610a326108be565b9050604051915083600052826020526000806024601c845afa610a58573d6000833e3d82fd5b60206000803e6020600051833e8151602060005101602084013e815160208301016000815260208101604052505092915050565b600080610a976108be565b9050604051856000528460205283604052602060006044601c855afa601f3d1116610ac5573d6000823e3d81fd5b60405250506000519392505050565b60405163150b7a028082523360208301528560601b60601c604083015283606083015260808083015282518060a08401528015610b1b578060c08401826020870160045afa505b60208360a48301601c860160008a5af1610b3e573d15610b3e573d6000843e3d83fd5b508060e01b825114610b585763d1a57ed66000526004601cfd5b505050505050565b600060208284031215610b7257600080fd5b81357fffffffff0000000000000000000000000000000000000000000000000000000081168114610ba257600080fd5b9392505050565b60006020808352835180602085015260005b81811015610bd757858101830151858201604001528201610bbb565b5060006040828601015260407fffffffffffffffffffffffffffffffffffffffffffffffffffffffffffffffe0601f8301168501019250505092915050565b600060208284031215610c2857600080fd5b5035919050565b80356001600160a01b0381168114610c4657600080fd5b919050565b60008060408385031215610c5e57600080fd5b610c6783610c2f565b946020939093013593505050565b600080600060608486031215610c8a57600080fd5b610c9384610c2f565b9250610ca160208501610c2f565b9150604084013590509250925092565b600060208284031215610cc357600080fd5b610ba282610c2f565b60008060408385031215610cdf57600080fd5b610ce883610c2f565b915060208301358015158114610cfd57600080fd5b809150509250929050565b600080600080600060808688031215610d2057600080fd5b610d2986610c2f565b9450610d3760208701610c2f565b935060408601359250606086013567ffffffffffffffff80821115610d5b57600080fd5b818801915088601f830112610d6f57600080fd5b813581811115610d7e57600080fd5b896020828501011115610d9057600080fd5b9699959850939650602001949392505050565b60008060408385031215610db657600080fd5b610dbf83610c2f565b9150610dcd60208401610c2f565b9050925092905056fea2646970667358221220abfdbd4f65aae35e4082870df5d855d74739c3551476f95b56478fb7badbf2a264736f6c63430008190033",
  "devdoc": {
    "errors": {
      "AlreadyInitialized()": [
        {
          "details": "Cannot double-initialize."
        }
      ],
      "ApprovalCallerNotOwnerNorApproved()": [
        {
          "details": "Thrown when setting an NFT token approval and the caller is not the owner or an approved operator."
        }
      ],
      "DNAlreadyInitialized()": [
        {
          "details": "Thrown when attempting to double-initialize the contract."
        }
      ],
      "DNNotInitialized()": [
        {
          "details": "The function can only be called after the contract has been initialized."
        }
      ],
      "FnSelectorNotRecognized()": [
        {
          "details": "The function selector is not recognized."
        }
      ],
      "InsufficientAllowance()": [
        {
          "details": "Thrown when a spender attempts to transfer tokens with an insufficient allowance."
        }
      ],
      "InsufficientBalance()": [
        {
          "details": "Thrown when attempting to transfer or burn more tokens than sender's balance."
        }
      ],
      "InvalidUnit()": [
        {
          "details": "The unit must be greater than zero and less than `2**96`."
        }
      ],
      "LinkMirrorContractFailed()": [
        {
          "details": "Thrown when the link call to the mirror contract reverts."
        }
      ],
      "MirrorAddressIsZero()": [
        {
          "details": "Thrown when the mirror address provided for initialization is the zero address."
        }
      ],
      "NewOwnerIsZeroAddress()": [
        {
          "details": "The `newOwner` cannot be the zero address."
        }
      ],
      "NoHandoverRequest()": [
        {
          "details": "The `pendingOwner` does not have a valid handover request."
        }
      ],
      "SenderNotMirror()": [
        {
          "details": "Thrown when the caller for a fallback NFT function is not the mirror contract."
        }
      ],
      "TokenDoesNotExist()": [
        {
          "details": "Thrown when checking the owner or approved address for a non-existent NFT."
        }
      ],
      "TotalSupplyOverflow()": [
        {
          "details": "Thrown when minting an amount of tokens that would overflow the max tokens."
        }
      ],
      "TransferCallerNotOwnerNorApproved()": [
        {
          "details": "Thrown when transferring an NFT and the caller is not the owner or an approved operator."
        }
      ],
      "TransferFromIncorrectOwner()": [
        {
          "details": "Thrown when transferring an NFT and the from address is not the current owner."
        }
      ],
      "TransferToZeroAddress()": [
        {
          "details": "Thrown when attempting to transfer tokens to the zero address."
        }
      ],
      "Unauthorized()": [
        {
          "details": "The caller is not authorized to call the function."
        }
      ]
    },
    "events": {
      "Approval(address,address,uint256)": {
        "details": "Emitted when `amount` tokens is approved by `owner` to be used by `spender`."
      },
      "OwnershipHandoverCanceled(address)": {
        "details": "The ownership handover to `pendingOwner` has been canceled."
      },
      "OwnershipHandoverRequested(address)": {
        "details": "An ownership handover to `pendingOwner` has been requested."
      },
      "OwnershipTransferred(address,address)": {
        "details": "The ownership is transferred from `oldOwner` to `newOwner`. This event is intentionally kept the same as OpenZeppelin's Ownable to be compatible with indexers and [EIP-173](https://eips.ethereum.org/EIPS/eip-173), despite it not being as lightweight as a single argument event."
      },
      "SkipNFTSet(address,bool)": {
        "details": "Emitted when `owner` sets their skipNFT flag to `status`."
      },
      "Transfer(address,address,uint256)": {
        "details": "Emitted when `amount` tokens is transferred from `from` to `to`."
      }
    },
    "kind": "dev",
    "methods": {
      "allowance(address,address)": {
        "details": "Returns the amount of tokens that `spender` can spend on behalf of `owner`."
      },
      "approve(address,uint256)": {
        "details": "Sets `amount` as the allowance of `spender` over the caller's tokens. Emits a {Approval} event."
      },
      "balanceOf(address)": {
        "details": "Returns the amount of tokens owned by `owner`."
      },
      "cancelOwnershipHandover()": {
        "details": "Cancels the two-step ownership handover to the caller, if any."
      },
      "completeOwnershipHandover(address)": {
        "details": "Allows the owner to complete the two-step ownership handover to `pendingOwner`. Reverts if there is no existing ownership handover requested by `pendingOwner`."
      },
      "decimals()": {
        "details": "Returns the decimals places of the token. Defaults to 18. Does not affect DN404's internal calculations. Will only affect the frontend UI on most protocols."
      },
      "getSkipNFT(address)": {
        "details": "Returns true if minting and transferring ERC20s to `owner` will skip minting NFTs. Returns false otherwise."
      },
      "mirrorERC721()": {
        "details": "Returns the address of the mirror NFT contract."
      },
      "name()": {
        "details": "Returns the name of the token."
      },
      "owner()": {
        "details": "Returns the owner of the contract."
      },
      "ownershipHandoverExpiresAt(address)": {
        "details": "Returns the expiry timestamp for the two-step ownership handover to `pendingOwner`."
      },
      "renounceOwnership()": {
        "details": "Allows the owner to renounce their ownership."
      },
      "requestOwnershipHandover()": {
        "details": "Request a two-step ownership handover to the caller. The request will automatically expire in 48 hours (172800 seconds) by default."
      },
      "setSkipNFT(bool)": {
        "details": "Sets the caller's skipNFT flag to `skipNFT`. Returns true. Emits a {SkipNFTSet} event."
      },
      "symbol()": {
        "details": "Returns the symbol of the token."
      },
      "totalSupply()": {
        "details": "Returns the amount of tokens in existence."
      },
      "transfer(address,uint256)": {
        "details": "Transfer `amount` tokens from the caller to `to`. Will burn sender NFTs if balance after transfer is less than the amount required to support the current NFT balance. Will mint NFTs to `to` if the recipient's new balance supports additional NFTs ***AND*** the `to` address's skipNFT flag is set to false. Requirements: - `from` must at least have `amount`. Emits a {Transfer} event."
      },
      "transferFrom(address,address,uint256)": {
        "details": "Transfers `amount` tokens from `from` to `to`. Note: Does not update the allowance if it is the maximum uint256 value. Will burn sender NFTs if balance after transfer is less than the amount required to support the current NFT balance. Will mint NFTs to `to` if the recipient's new balance supports additional NFTs ***AND*** the `to` address's skipNFT flag is set to false. Requirements: - `from` must at least have `amount`. - The caller must have at least `amount` of allowance to transfer the tokens of `from`. Emits a {Transfer} event."
      },
      "transferOwnership(address)": {
        "details": "Allows the owner to transfer the ownership to `newOwner`."
      }
    },
    "title": "SimpleDN404",
    "version": 1
  },
  "userdoc": {
    "kind": "user",
    "methods": {},
    "notice": "Sample DN404 contract that demonstrates the owner selling fungible tokens. When a user has at least one base unit (10^18) amount of tokens, they will automatically receive an NFT. NFTs are minted as an address accumulates each base unit amount of tokens.",
    "version": 1
  },
  "storageLayout": {
    "storage": [
      {
        "astId": 410,
        "contract": "@sandbox-smart-contracts/dn404/contracts/SimpleDN404.sol:SimpleDN404",
        "label": "_name",
        "offset": 0,
        "slot": "0",
        "type": "t_string_storage"
      },
      {
        "astId": 412,
        "contract": "@sandbox-smart-contracts/dn404/contracts/SimpleDN404.sol:SimpleDN404",
        "label": "_symbol",
        "offset": 0,
        "slot": "1",
        "type": "t_string_storage"
      },
      {
        "astId": 414,
        "contract": "@sandbox-smart-contracts/dn404/contracts/SimpleDN404.sol:SimpleDN404",
        "label": "_baseURI",
        "offset": 0,
        "slot": "2",
        "type": "t_string_storage"
      }
    ],
    "types": {
      "t_string_storage": {
        "encoding": "bytes",
        "label": "string",
        "numberOfBytes": "32"
      }
    }
  }
}