{
  "address": "0x3C4055B484bd02ae0516C1975dB7dB5985A3c970",
  "abi": [
    {
      "inputs": [
        {
          "internalType": "address",
          "name": "metaTransactionContract",
          "type": "address"
        },
        {
          "internalType": "address",
          "name": "admin",
          "type": "address"
        },
        {
          "internalType": "address",
          "name": "initialMinter",
          "type": "address"
        }
      ],
      "stateMutability": "nonpayable",
      "type": "constructor"
    },
    {
      "anonymous": false,
      "inputs": [
        {
          "indexed": false,
          "internalType": "address",
          "name": "oldAdmin",
          "type": "address"
        },
        {
          "indexed": false,
          "internalType": "address",
          "name": "newAdmin",
          "type": "address"
        }
      ],
      "name": "AdminChanged",
      "type": "event"
    },
    {
      "anonymous": false,
      "inputs": [
        {
          "indexed": true,
          "internalType": "address",
          "name": "owner",
          "type": "address"
        },
        {
          "indexed": true,
          "internalType": "address",
          "name": "operator",
          "type": "address"
        },
        {
          "indexed": false,
          "internalType": "bool",
          "name": "approved",
          "type": "bool"
        }
      ],
      "name": "ApprovalForAll",
      "type": "event"
    },
    {
      "anonymous": false,
      "inputs": [
        {
          "indexed": true,
          "internalType": "uint256",
          "name": "id",
          "type": "uint256"
        },
        {
          "indexed": false,
          "internalType": "uint16",
          "name": "minQuantity",
          "type": "uint16"
        },
        {
          "indexed": false,
          "internalType": "uint16",
          "name": "maxQuantity",
          "type": "uint16"
        },
        {
          "indexed": false,
          "internalType": "uint256",
          "name": "sandMintingFee",
          "type": "uint256"
        },
        {
          "indexed": false,
          "internalType": "uint256",
          "name": "sandUpdateFee",
          "type": "uint256"
        }
      ],
      "name": "CatalystConfiguration",
      "type": "event"
    },
    {
      "anonymous": false,
      "inputs": [
        {
          "indexed": false,
          "internalType": "address",
          "name": "metaTransactionProcessor",
          "type": "address"
        },
        {
          "indexed": false,
          "internalType": "bool",
          "name": "enabled",
          "type": "bool"
        }
      ],
      "name": "MetaTransactionProcessor",
      "type": "event"
    },
    {
      "anonymous": false,
      "inputs": [
        {
          "indexed": false,
          "internalType": "address",
          "name": "minter",
          "type": "address"
        },
        {
          "indexed": false,
          "internalType": "bool",
          "name": "enabled",
          "type": "bool"
        }
      ],
      "name": "Minter",
      "type": "event"
    },
    {
      "anonymous": false,
      "inputs": [
        {
          "indexed": false,
          "internalType": "contract ERC20SubToken",
          "name": "subToken",
          "type": "address"
        }
      ],
      "name": "SubToken",
      "type": "event"
    },
    {
      "anonymous": false,
      "inputs": [
        {
          "indexed": false,
          "internalType": "address",
          "name": "superOperator",
          "type": "address"
        },
        {
          "indexed": false,
          "internalType": "bool",
          "name": "enabled",
          "type": "bool"
        }
      ],
      "name": "SuperOperator",
      "type": "event"
    },
    {
      "inputs": [
        {
          "internalType": "contract ERC20SubToken",
          "name": "catalyst",
          "type": "address"
        },
        {
          "components": [
            {
              "internalType": "uint88",
              "name": "sandMintingFee",
              "type": "uint88"
            },
            {
              "internalType": "uint88",
              "name": "sandUpdateFee",
              "type": "uint88"
            },
            {
              "internalType": "uint16",
              "name": "minQuantity",
              "type": "uint16"
            },
            {
              "internalType": "uint16",
              "name": "maxQuantity",
              "type": "uint16"
            },
            {
              "internalType": "uint16",
              "name": "maxGems",
              "type": "uint16"
            }
          ],
          "internalType": "struct CatalystDataBase.MintData",
          "name": "mintData",
          "type": "tuple"
        },
        {
          "internalType": "contract CatalystValue",
          "name": "valueOverride",
          "type": "address"
        }
      ],
      "name": "addCatalyst",
      "outputs": [],
      "stateMutability": "nonpayable",
      "type": "function"
    },
    {
      "inputs": [
        {
          "internalType": "contract ERC20SubToken[]",
          "name": "catalysts",
          "type": "address[]"
        },
        {
          "components": [
            {
              "internalType": "uint88",
              "name": "sandMintingFee",
              "type": "uint88"
            },
            {
              "internalType": "uint88",
              "name": "sandUpdateFee",
              "type": "uint88"
            },
            {
              "internalType": "uint16",
              "name": "minQuantity",
              "type": "uint16"
            },
            {
              "internalType": "uint16",
              "name": "maxQuantity",
              "type": "uint16"
            },
            {
              "internalType": "uint16",
              "name": "maxGems",
              "type": "uint16"
            }
          ],
          "internalType": "struct CatalystDataBase.MintData[]",
          "name": "mintData",
          "type": "tuple[]"
        },
        {
          "internalType": "contract CatalystValue[]",
          "name": "valueOverrides",
          "type": "address[]"
        }
      ],
      "name": "addCatalysts",
      "outputs": [],
      "stateMutability": "nonpayable",
      "type": "function"
    },
    {
      "inputs": [
        {
          "internalType": "address",
          "name": "owner",
          "type": "address"
        },
        {
          "internalType": "uint256",
          "name": "id",
          "type": "uint256"
        }
      ],
      "name": "balanceOf",
      "outputs": [
        {
          "internalType": "uint256",
          "name": "balance",
          "type": "uint256"
        }
      ],
      "stateMutability": "view",
      "type": "function"
    },
    {
      "inputs": [
        {
          "internalType": "address[]",
          "name": "owners",
          "type": "address[]"
        },
        {
          "internalType": "uint256[]",
          "name": "ids",
          "type": "uint256[]"
        }
      ],
      "name": "balanceOfBatch",
      "outputs": [
        {
          "internalType": "uint256[]",
          "name": "balances",
          "type": "uint256[]"
        }
      ],
      "stateMutability": "view",
      "type": "function"
    },
    {
      "inputs": [
        {
          "internalType": "address",
          "name": "from",
          "type": "address"
        },
        {
          "internalType": "uint256[]",
          "name": "ids",
          "type": "uint256[]"
        },
        {
          "internalType": "uint256[]",
          "name": "amounts",
          "type": "uint256[]"
        }
      ],
      "name": "batchBurnFrom",
      "outputs": [],
      "stateMutability": "nonpayable",
      "type": "function"
    },
    {
      "inputs": [
        {
          "internalType": "address",
          "name": "to",
          "type": "address"
        },
        {
          "internalType": "uint256[]",
          "name": "ids",
          "type": "uint256[]"
        },
        {
          "internalType": "uint256[]",
          "name": "amounts",
          "type": "uint256[]"
        }
      ],
      "name": "batchMint",
      "outputs": [],
      "stateMutability": "nonpayable",
      "type": "function"
    },
    {
      "inputs": [
        {
          "internalType": "address",
          "name": "from",
          "type": "address"
        },
        {
          "internalType": "address",
          "name": "to",
          "type": "address"
        },
        {
          "internalType": "uint256[]",
          "name": "ids",
          "type": "uint256[]"
        },
        {
          "internalType": "uint256[]",
          "name": "values",
          "type": "uint256[]"
        }
      ],
      "name": "batchTransferFrom",
      "outputs": [],
      "stateMutability": "nonpayable",
      "type": "function"
    },
    {
      "inputs": [
        {
          "internalType": "uint256",
          "name": "id",
          "type": "uint256"
        },
        {
          "internalType": "uint256",
          "name": "value",
          "type": "uint256"
        }
      ],
      "name": "burn",
      "outputs": [],
      "stateMutability": "nonpayable",
      "type": "function"
    },
    {
      "inputs": [
        {
          "internalType": "address",
          "name": "from",
          "type": "address"
        },
        {
          "internalType": "uint256",
          "name": "id",
          "type": "uint256"
        },
        {
          "internalType": "uint256",
          "name": "value",
          "type": "uint256"
        }
      ],
      "name": "burnFrom",
      "outputs": [],
      "stateMutability": "nonpayable",
      "type": "function"
    },
    {
      "inputs": [
        {
          "internalType": "address",
          "name": "newAdmin",
          "type": "address"
        }
      ],
      "name": "changeAdmin",
      "outputs": [],
      "stateMutability": "nonpayable",
      "type": "function"
    },
    {
      "inputs": [],
      "name": "getAdmin",
      "outputs": [
        {
          "internalType": "address",
          "name": "",
          "type": "address"
        }
      ],
      "stateMutability": "view",
      "type": "function"
    },
    {
      "inputs": [
        {
          "internalType": "uint256",
          "name": "catalystId",
          "type": "uint256"
        }
      ],
      "name": "getMintData",
      "outputs": [
        {
          "internalType": "uint16",
          "name": "maxGems",
          "type": "uint16"
        },
        {
          "internalType": "uint16",
          "name": "minQuantity",
          "type": "uint16"
        },
        {
          "internalType": "uint16",
          "name": "maxQuantity",
          "type": "uint16"
        },
        {
          "internalType": "uint256",
          "name": "sandMintingFee",
          "type": "uint256"
        },
        {
          "internalType": "uint256",
          "name": "sandUpdateFee",
          "type": "uint256"
        }
      ],
      "stateMutability": "view",
      "type": "function"
    },
    {
      "inputs": [
        {
          "internalType": "uint256",
          "name": "catalystId",
          "type": "uint256"
        },
        {
          "internalType": "uint256",
          "name": "seed",
          "type": "uint256"
        },
        {
          "components": [
            {
              "internalType": "uint256[]",
              "name": "gemIds",
              "type": "uint256[]"
            },
            {
              "internalType": "bytes32",
              "name": "blockHash",
              "type": "bytes32"
            }
          ],
          "internalType": "struct CatalystValue.GemEvent[]",
          "name": "events",
          "type": "tuple[]"
        },
        {
          "internalType": "uint32",
          "name": "totalNumberOfGemTypes",
          "type": "uint32"
        }
      ],
      "name": "getValues",
      "outputs": [
        {
          "internalType": "uint32[]",
          "name": "values",
          "type": "uint32[]"
        }
      ],
      "stateMutability": "view",
      "type": "function"
    },
    {
      "inputs": [
        {
          "internalType": "address",
          "name": "owner",
          "type": "address"
        },
        {
          "internalType": "address",
          "name": "operator",
          "type": "address"
        }
      ],
      "name": "isApprovedForAll",
      "outputs": [
        {
          "internalType": "bool",
          "name": "isOperator",
          "type": "bool"
        }
      ],
      "stateMutability": "view",
      "type": "function"
    },
    {
      "inputs": [
        {
          "internalType": "address",
          "name": "sender",
          "type": "address"
        }
      ],
      "name": "isAuthorizedToApprove",
      "outputs": [
        {
          "internalType": "bool",
          "name": "",
          "type": "bool"
        }
      ],
      "stateMutability": "view",
      "type": "function"
    },
    {
      "inputs": [
        {
          "internalType": "address",
          "name": "owner",
          "type": "address"
        },
        {
          "internalType": "address",
          "name": "sender",
          "type": "address"
        }
      ],
      "name": "isAuthorizedToTransfer",
      "outputs": [
        {
          "internalType": "bool",
          "name": "",
          "type": "bool"
        }
      ],
      "stateMutability": "view",
      "type": "function"
    },
    {
      "inputs": [
        {
          "internalType": "address",
          "name": "who",
          "type": "address"
        }
      ],
      "name": "isMetaTransactionProcessor",
      "outputs": [
        {
          "internalType": "bool",
          "name": "",
          "type": "bool"
        }
      ],
      "stateMutability": "view",
      "type": "function"
    },
    {
      "inputs": [
        {
          "internalType": "address",
          "name": "who",
          "type": "address"
        }
      ],
      "name": "isMinter",
      "outputs": [
        {
          "internalType": "bool",
          "name": "",
          "type": "bool"
        }
      ],
      "stateMutability": "view",
      "type": "function"
    },
    {
      "inputs": [
        {
          "internalType": "address",
          "name": "who",
          "type": "address"
        }
      ],
      "name": "isSuperOperator",
      "outputs": [
        {
          "internalType": "bool",
          "name": "",
          "type": "bool"
        }
      ],
      "stateMutability": "view",
      "type": "function"
    },
    {
      "inputs": [
        {
          "internalType": "address",
          "name": "to",
          "type": "address"
        },
        {
          "internalType": "uint256",
          "name": "id",
          "type": "uint256"
        },
        {
          "internalType": "uint256",
          "name": "amount",
          "type": "uint256"
        }
      ],
      "name": "mint",
      "outputs": [],
      "stateMutability": "nonpayable",
      "type": "function"
    },
    {
      "inputs": [
        {
          "internalType": "address",
          "name": "operator",
          "type": "address"
        },
        {
          "internalType": "bool",
          "name": "approved",
          "type": "bool"
        }
      ],
      "name": "setApprovalForAll",
      "outputs": [],
      "stateMutability": "nonpayable",
      "type": "function"
    },
    {
      "inputs": [
        {
          "internalType": "address",
          "name": "sender",
          "type": "address"
        },
        {
          "internalType": "address",
          "name": "operator",
          "type": "address"
        },
        {
          "internalType": "bool",
          "name": "approved",
          "type": "bool"
        }
      ],
      "name": "setApprovalForAllFor",
      "outputs": [],
      "stateMutability": "nonpayable",
      "type": "function"
    },
    {
      "inputs": [
        {
          "internalType": "uint256",
          "name": "id",
          "type": "uint256"
        },
        {
          "internalType": "uint16",
          "name": "minQuantity",
          "type": "uint16"
        },
        {
          "internalType": "uint16",
          "name": "maxQuantity",
          "type": "uint16"
        },
        {
          "internalType": "uint256",
          "name": "sandMintingFee",
          "type": "uint256"
        },
        {
          "internalType": "uint256",
          "name": "sandUpdateFee",
          "type": "uint256"
        }
      ],
      "name": "setConfiguration",
      "outputs": [],
      "stateMutability": "nonpayable",
      "type": "function"
    },
    {
      "inputs": [
        {
          "internalType": "address",
          "name": "metaTransactionProcessor",
          "type": "address"
        },
        {
          "internalType": "bool",
          "name": "enabled",
          "type": "bool"
        }
      ],
      "name": "setMetaTransactionProcessor",
      "outputs": [],
      "stateMutability": "nonpayable",
      "type": "function"
    },
    {
      "inputs": [
        {
          "internalType": "address",
          "name": "minter",
          "type": "address"
        },
        {
          "internalType": "bool",
          "name": "enabled",
          "type": "bool"
        }
      ],
      "name": "setMinter",
      "outputs": [],
      "stateMutability": "nonpayable",
      "type": "function"
    },
    {
      "inputs": [
        {
          "internalType": "address",
          "name": "superOperator",
          "type": "address"
        },
        {
          "internalType": "bool",
          "name": "enabled",
          "type": "bool"
        }
      ],
      "name": "setSuperOperator",
      "outputs": [],
      "stateMutability": "nonpayable",
      "type": "function"
    },
    {
      "inputs": [
        {
          "internalType": "address",
          "name": "from",
          "type": "address"
        },
        {
          "internalType": "address",
          "name": "to",
          "type": "address"
        },
        {
          "internalType": "uint256",
          "name": "id",
          "type": "uint256"
        },
        {
          "internalType": "uint256",
          "name": "value",
          "type": "uint256"
        }
      ],
      "name": "singleTransferFrom",
      "outputs": [],
      "stateMutability": "nonpayable",
      "type": "function"
    },
    {
      "inputs": [
        {
          "internalType": "uint256",
          "name": "id",
          "type": "uint256"
        }
      ],
      "name": "supplyOf",
      "outputs": [
        {
          "internalType": "uint256",
          "name": "supply",
          "type": "uint256"
        }
      ],
      "stateMutability": "view",
      "type": "function"
    }
  ],
  "transactionHash": "0x0b30331409dedd06a749b9f361f7ca2aacbb8464a2728c1d69a90175ef3eaf50",
  "args": [
    "0x0DD44c60565b3c1A4a6b97013e722940FD37580E",
    "0xA796AE911621E00809E0E7C8f0AD6BF118E5139e",
    "0xA796AE911621E00809E0E7C8f0AD6BF118E5139e"
  ],
  "numDeployments": 1,
  "solcInputHash": "b42a863a795806b4ea3a8f05dfa42539",
  "bytecode": "0x60806040523480156200001157600080fd5b506040516200389a3803806200389a83398101604081905262000034916200016f565b600280546001600160a01b0319166001600160a01b0384161790558282826200005f83600162000081565b620000758160016001600160e01b036200011716565b5050505050506200023b565b6001600160a01b038216620000b35760405162461bcd60e51b8152600401620000aa90620001dd565b60405180910390fd5b6001600160a01b03821660009081526004602052604090819020805460ff1916831515179055517fb21eb88b4e33b3f1281830a7178d74d8aa73220416215726b68ae23d539515cb906200010b9084908490620001c2565b60405180910390a15050565b6001600160a01b03821660009081526009602052604090819020805460ff1916831515179055517fff452b3b9159b024a9098f0058c63eccd90d36b3584608202800d662f962bb60906200010b9084908490620001c2565b60008060006060848603121562000184578283fd5b8351620001918162000222565b6020850151909350620001a48162000222565b6040850151909250620001b78162000222565b809150509250925092565b6001600160a01b039290921682521515602082015260400190565b60208082526025908201527f4d6574615472616e73616374696f6e52656365697665723a207a65726f206164604082015264647265737360d81b606082015260800190565b6001600160a01b03811681146200023857600080fd5b50565b61364f806200024b6000396000f3fe608060405234801561001057600080fd5b50600436106101c35760003560e01c80638cc48b1c116100f9578063b155af6f11610097578063dc5074af11610071578063dc5074af146103e2578063e985e9c5146103f5578063eaa5125114610408578063eeb5a5d11461041b576101c3565b8063b155af6f146103a9578063b390c0ab146103bc578063cf456ae7146103cf576101c3565b8063a4cb552b116100d3578063a4cb552b1461035d578063a531e0fa14610370578063aa271e1a14610383578063ac9fe42114610396576101c3565b80638cc48b1c146103175780638f28397014610337578063a22cb4651461034a576101c3565b8063654b748a1161016657806376b756411161014057806376b75641146102cb57806380534934146102de5780638806792f146102f15780638a04af6a14610304576101c3565b8063654b748a1461027f5780636e9960c31461029257806373f16425146102a7576101c3565b8063124d91e5116101a2578063124d91e514610226578063156e29f61461023957806317fad7fc1461024c5780634e1273f41461025f576101c3565b8062fdd58e146101c85780630ca83480146101f15780630d70e29c14610206575b600080fd5b6101db6101d6366004612a15565b61042e565b6040516101e89190613488565b60405180910390f35b6102046101ff366004612964565b610480565b005b610219610214366004612807565b61054c565b6040516101e89190612f46565b610204610234366004612a40565b6105c2565b610204610247366004612a40565b61065c565b61020461025a36600461283f565b610797565b61027261026d366004612a74565b6108dd565b6040516101e89190612ec4565b61021961028d3660046127cf565b6109b1565b61029a6109cf565b6040516101e89190612e57565b6102ba6102b5366004612c9b565b6109de565b6040516101e8959493929190613435565b6102046102d9366004612add565b610a5d565b6102046102ec366004612964565b610b26565b6101db6102ff366004612c9b565b610c44565b6102046103123660046129e4565b610c7e565b61032a610325366004612d3b565b610cb6565b6040516101e89190612f08565b6102046103453660046127cf565b6110b8565b6102046103583660046129e4565b611186565b61020461036b366004612c5d565b611191565b61020461037e36600461291f565b6111dc565b6102196103913660046127cf565b6113c0565b6102046103a43660046129e4565b6113de565b6102046103b7366004612ccb565b61146a565b6102046103ca366004612d1a565b6114a1565b6102046103dd3660046129e4565b6114ac565b6102196103f03660046127cf565b6114e0565b610219610403366004612807565b6114fe565b6102196104163660046127cf565b611550565b6102046104293660046128d1565b611591565b600080600061043c846115f8565b6001600160a01b03871660009081526006602090815260408083208584529091529020549193509150610475908263ffffffff61160916565b925050505b92915050565b3360009081526009602052604090205460ff166104b85760405162461bcd60e51b81526004016104af906133fe565b60405180910390fd5b8281146104d75760405162461bcd60e51b81526004016104af9061302d565b610545858585808060200260200160405190810160405280939291908181526020018383602002808284376000920191909152505060408051602080890282810182019093528882529093508892508791829185019084908082843760009201919091525061162392505050565b5050505050565b6001600160a01b03811660009081526004602052604081205460ff168061058b57506001600160a01b03821660009081526003602052604090205460ff165b806105bb57506001600160a01b0380841660009081526007602090815260408083209386168352929052205460ff165b9392505050565b6001600160a01b0383163314806105e857503360009081526003602052604090205460ff165b8061061657506001600160a01b038316600090815260076020908152604080832033845290915290205460ff165b8061063057503360009081526004602052604090205460ff165b61064c5760405162461bcd60e51b81526004016104af906133c7565b610657838383611888565b505050565b3360009081526009602052604090205460ff1661068b5760405162461bcd60e51b81526004016104af906133fe565b600080610697846115f8565b6001600160a01b03871660009081526006602090815260408083208584529182905282205493955091935090916106d7918490879063ffffffff61199216565b600084815260208381526040808320939093556005905290812054610705918490879063ffffffff61199216565b600084815260056020526040902055600880548690811061072257fe5b600091825260208220015460405163536a4ee560e11b81526001600160a01b039091169163a6d49dca9161075d91908a908990600401612e6b565b600060405180830381600087803b15801561077757600080fd5b505af115801561078b573d6000803e3d6000fd5b50505050505050505050565b8281146107b65760405162461bcd60e51b81526004016104af9061302d565b6001600160a01b0385166107dc5760405162461bcd60e51b81526004016104af9061309b565b6001600160a01b03861633148061080257503360009081526003602052604090205460ff165b8061083057506001600160a01b038616600090815260076020908152604080832033845290915290205460ff165b8061084a57503360009081526004602052604090205460ff165b6108665760405162461bcd60e51b81526004016104af906133c7565b6108d5868686868080602002602001604051908101604052809392919081815260200183836020028082843760009201919091525050604080516020808a02828101820190935289825290935089925088918291850190849080828437600092019190915250611a6192505050565b505050505050565b60608382146108fe5760405162461bcd60e51b81526004016104af9061302d565b8167ffffffffffffffff8111801561091557600080fd5b5060405190808252806020026020018201604052801561093f578160200160208202803683370190505b50905060005b828110156109a85761098986868381811061095c57fe5b905060200201602081019061097191906127cf565b85858481811061097d57fe5b9050602002013561042e565b82828151811061099557fe5b6020908102919091010152600101610945565b50949350505050565b6001600160a01b031660009081526003602052604090205460ff1690565b6002546001600160a01b031690565b60009081526020819052604090205461ffff7a01000000000000000000000000000000000000000000000000000082048116927601000000000000000000000000000000000000000000008304821692600160c01b8104909216916affffffffffffffffffffff808216926b0100000000000000000000009092041690565b6002546001600160a01b03163314610a875760405162461bcd60e51b81526004016104af9061319d565b8151835114610aa85760405162461bcd60e51b81526004016104af9061302d565b60005b8251811015610b20576000610ad2858381518110610ac557fe5b6020026020010151611cae565b9050610af181858481518110610ae457fe5b6020026020010151611e7d565b8183511115610b1757610b1781848481518110610b0a57fe5b6020026020010151611fc9565b50600101610aab565b50505050565b6001600160a01b038516610b4c5760405162461bcd60e51b81526004016104af906131d4565b6001600160a01b038516331480610b7257503360009081526004602052604090205460ff165b80610b8c57503360009081526003602052604090205460ff165b80610bba57506001600160a01b038516600090815260076020908152604080832033845290915290205460ff165b610bd65760405162461bcd60e51b81526004016104af906133c7565b610545858585808060200260200160405190810160405280939291908181526020018383602002808284376000920191909152505060408051602080890282810182019093528882529093508892508791829185019084908082843760009201919091525061200492505050565b6000806000610c52846115f8565b6000828152600560205260409020549193509150610c76908263ffffffff61160916565b949350505050565b6002546001600160a01b03163314610ca85760405162461bcd60e51b81526004016104af90613166565b610cb2828261224a565b5050565b6000858152600160205260409020546060906001600160a01b03168015610d9e576040517f8cc48b1c0000000000000000000000000000000000000000000000000000000081526001600160a01b03821690638cc48b1c90610d24908a908a908a908a908a90600401613491565b60006040518083038186803b158015610d3c57600080fd5b505afa158015610d50573d6000803e3d6000fd5b505050506040513d6000823e601f3d9081017fffffffffffffffffffffffffffffffffffffffffffffffffffffffffffffffe0168201604052610d969190810190612bc2565b9150506110af565b8263ffffffff1667ffffffffffffffff81118015610dbb57600080fd5b50604051908082528060200260200182016040528015610de5578160200160208202803683370190505b5091506000805b85811015610e2a57868682818110610e0057fe5b9050602002810190610e129190613589565b610e1c908061353e565b929092019150600101610dec565b5063ffffffff8181161115610e515760405162461bcd60e51b81526004016104af90612ff6565b60056000198201026001016000805b878110156110a957888882818110610e7457fe5b9050602002810190610e869190613589565b610e90908061353e565b92909201915060005b898983818110610ea557fe5b9050602002810190610eb79190613589565b610ec1908061353e565b90508110156110a05760008a8a84818110610ed857fe5b9050602002810190610eea9190613589565b610ef4908061353e565b83818110610efe57fe5b9050602002013590506000828c8c86818110610f1657fe5b9050602002810190610f289190613589565b610f32908061353e565b90508603019050888281518110610f4557fe5b602002602001015163ffffffff166000141561100c57610f928d838e8e88818110610f6c57fe5b9050602002810190610f7e9190613589565b602001358460018a036005026001016122c6565b898381518110610f9e57fe5b602002602001019063ffffffff16908163ffffffff16815250508563ffffffff16898381518110610fcb57fe5b602002602001015163ffffffff1610156110075785898381518110610fec57fe5b602002602001019063ffffffff16908163ffffffff16815250505b611096565b600061103d8e848f8f8981811061101f57fe5b90506020028101906110319190613589565b602001358560016122c6565b905080601960018c868151811061105057fe5b60200260200101510363ffffffff168161106657fe5b04600101601902018a848151811061107a57fe5b602002602001019063ffffffff16908163ffffffff1681525050505b5050600101610e99565b50600101610e60565b50505050505b95945050505050565b6002546001600160a01b031633146110e25760405162461bcd60e51b81526004016104af90613359565b6002546001600160a01b03828116911614156111105760405162461bcd60e51b81526004016104af90612f88565b6002546040517f7e644d79422f17c01e4894b5f4f588d331ebfa28653d42ae832dc59e38c9798f9161114f916001600160a01b03909116908490612e8f565b60405180910390a16002805473ffffffffffffffffffffffffffffffffffffffff19166001600160a01b0392909216919091179055565b610cb233838361231b565b6002546001600160a01b031633146111bb5760405162461bcd60e51b81526004016104af9061319d565b60006111c684611cae565b90506111d28184611e7d565b610b208183611fc9565b6001600160a01b0383166112025760405162461bcd60e51b81526004016104af9061309b565b60006008838154811061121157fe5b6000918252602090912001546001600160a01b03908116915085163314806112415750336001600160a01b038216145b8061125b57503360009081526004602052604090205460ff165b8061127557503360009081526003602052604090205460ff165b806112a357506001600160a01b038516600090815260076020908152604080832033845290915290205460ff165b6112bf5760405162461bcd60e51b81526004016104af906133c7565b6000806112cb856115f8565b6001600160a01b03808a166000908152600660209081526040808320938c168352808320868452918490529091205493955091935091611314908488600163ffffffff61199216565b6000858152602084815260408083209390935583905290812054611341918590899063ffffffff61199216565b60008581526020839052604090819020919091555163536a4ee560e11b81526001600160a01b0386169063a6d49dca90611383908c908c908b90600401612e6b565b600060405180830381600087803b15801561139d57600080fd5b505af11580156113b1573d6000803e3d6000fd5b50505050505050505050505050565b6001600160a01b031660009081526009602052604090205460ff1690565b6002546001600160a01b031633146114085760405162461bcd60e51b81526004016104af90613268565b6001600160a01b03821660009081526003602052604090819020805460ff1916831515179055517f44f92d27abdf4cfb6a7d712c3af68f3be086d4ca747ab802c36f67d6790060d89061145e9084908490612ea9565b60405180910390a15050565b6002546001600160a01b031633146114945760405162461bcd60e51b81526004016104af9061319d565b61054585858585856123c5565b610cb2338383611888565b6002546001600160a01b031633146114d65760405162461bcd60e51b81526004016104af9061319d565b610cb282826124b2565b6001600160a01b031660009081526004602052604090205460ff1690565b6001600160a01b03808316600090815260076020908152604080832093851683529290529081205460ff16806105bb5750506001600160a01b031660009081526003602052604090205460ff16919050565b6001600160a01b03811660009081526004602052604081205460ff168061047a5750506001600160a01b031660009081526003602052604090205460ff1690565b336001600160a01b03841614806115b757503360009081526004602052604090205460ff165b806115d157503360009081526003602052604090205460ff165b6115ed5760405162461bcd60e51b81526004016104af906133c7565b61065783838361231b565b610100602082020491600790911690565b600181016020026101000382901c63ffffffff1692915050565b6001600160a01b038316600090815260066020526040812060001991908190815b86518110156118585785818151811061165957fe5b60200260200101516000146118505760008061168789848151811061167a57fe5b60200260200101516115f8565b91509150600019871415611710578196506116cf818985815181106116a857fe5b6020908102919091018101516000868152918890526040822054929163ffffffff61199216565b9550611709818985815181106116e157fe5b602090810291909101810151600086815260059092526040822054929163ffffffff61199216565b94506117a8565b86821461174d5760008781526020858152604080832098909855838252878220549882526005905286812095909555818552949093205492949385905b6117788189858151811061175d57fe5b6020026020010151600089611992909392919063ffffffff16565b95506117a58189858151811061178a57fe5b6020026020010151600088611992909392919063ffffffff16565b94505b60088984815181106117b657fe5b6020026020010151815481106117c857fe5b600091825260208220015489516001600160a01b039091169163a6d49dca918d908c90889081106117f557fe5b60200260200101516040518463ffffffff1660e01b815260040161181b93929190612e6b565b600060405180830381600087803b15801561183557600080fd5b505af1158015611849573d6000803e3d6000fd5b5050505050505b600101611644565b50600019841461187f57600084815260208281526040808320869055600590915290208290555b50505050505050565b60006008838154811061189757fe5b60009182526020822001546001600160a01b03169150806118b7856115f8565b6001600160a01b03881660009081526006602090815260408083208584529182905290912054929450909250906118f19083876001611992565b600084815260208381526040808320939093556005905220546119179083876001611992565b60008481526005602052604080822092909255905163536a4ee560e11b81526001600160a01b0386169163a6d49dca91611957918b918a90600401612e6b565b600060405180830381600087803b15801561197157600080fd5b505af1158015611985573d6000803e3d6000fd5b5050505050505050505050565b600080808360028111156119a257fe5b14156119d5576119b28686611609565b90506119ce86866119c9848863ffffffff61250816565b61252b565b91506109a8565b60018360028111156119e357fe5b1415611a2a576119f38686611609565b905083811015611a155760405162461bcd60e51b81526004016104af906132fc565b6119ce86866119c9848863ffffffff61257416565b6002836002811115611a3857fe5b1415611a49576119ce86868661252b565b60405162461bcd60e51b81526004016104af9061312f565b6001600160a01b0380851660009081526006602052604080822092861682528120600019928291825b8751811015611c7d57868181518110611a9f57fe5b6020026020010151600014611c7557600080611ac08a848151811061167a57fe5b91509150600019881415611b3e57819750611b0385600084815260200190815260200160002054828b8681518110611af457fe5b60200260200101516001611992565b9650611b3784600084815260200190815260200160002054828b8681518110611b2857fe5b60200260200101516000611992565b9550611bba565b878214611b7a57600097885260208581526040808a20989098558481528789209690965581885284865286882054958490529590962054939486905b611ba5818a8581518110611b8a57fe5b602002602001015160018a611992909392919063ffffffff16565b9650611bb7818a858151811061175d57fe5b95505b600060088b8581518110611bca57fe5b602002602001015181548110611bdc57fe5b9060005260206000200160009054906101000a90046001600160a01b03169050806001600160a01b031663a6d49dca8e8e8d8881518110611c1957fe5b60200260200101516040518463ffffffff1660e01b8152600401611c3f93929190612e6b565b600060405180830381600087803b158015611c5957600080fd5b505af1158015611c6d573d6000803e3d6000fd5b505050505050505b600101611a8a565b506000198514611ca3576000858152602083815260408083208790559083905290208390555b505050505050505050565b60006008805490509050306001600160a01b0316826001600160a01b0316638b7b59d06040518163ffffffff1660e01b815260040160206040518083038186803b158015611cfb57600080fd5b505afa158015611d0f573d6000803e3d6000fd5b505050506040513d601f19601f82011682018060405250810190611d3391906127eb565b6001600160a01b031614611d595760405162461bcd60e51b81526004016104af90612fbf565b80826001600160a01b031663b8f9260b6040518163ffffffff1660e01b815260040160206040518083038186803b158015611d9357600080fd5b505afa158015611da7573d6000803e3d6000fd5b505050506040513d601f19601f82011682018060405250810190611dcb9190612cb3565b14611de85760405162461bcd60e51b81526004016104af906132c5565b600880546001810182556000919091527ff3f7a9fe364faab93b216da50a3214154f22a0a2b415b23a84c8169e8b636ee301805473ffffffffffffffffffffffffffffffffffffffff19166001600160a01b0384161790556040517f2f334d8c412c0143e93911652cc34f5fcaae2f287a574eae9736d648f9b4363190611e70908490612e57565b60405180910390a1919050565b60008281526020818152604091829020835181549285015193850151606086015160808701516affffffffffffffffffffff199095166affffffffffffffffffffff9384169081177fffffffffffffffffffff0000000000000000000000ffffffffffffffffffffff166b01000000000000000000000094909716938402969096177fffffffffffffffff0000ffffffffffffffffffffffffffffffffffffffffffff1676010000000000000000000000000000000000000000000061ffff80851691909102919091177fffffffffffff0000ffffffffffffffffffffffffffffffffffffffffffffffff16600160c01b82841602177fffffffff0000ffffffffffffffffffffffffffffffffffffffffffffffffffff167a010000000000000000000000000000000000000000000000000000919096160294909417909255610cb29386939161259c565b600091825260016020526040909120805473ffffffffffffffffffffffffffffffffffffffff19166001600160a01b03909216919091179055565b6001600160a01b0383166000908152600660205260408120819060001990825b865181101561221f5785818151811061203957fe5b60200260200101516000146122175760008061205a89848151811061167a57fe5b915091506000198514156120ef578194506120a88189858151811061207b57fe5b6020026020010151600187600087815260200190815260200160002054611992909392919063ffffffff16565b96506120e8818985815181106120ba57fe5b602002602001015160016005600087815260200190815260200160002054611992909392919063ffffffff16565b955061216e565b84821461212e57600085815260208581526040808320999099558382528882205496825260059052878120969096558186529590942054929492939283905b61213e81898581518110611b8a57fe5b965061216b8189858151811061215057fe5b6020026020010151600189611992909392919063ffffffff16565b95505b600889848151811061217c57fe5b60200260200101518154811061218e57fe5b600091825260208220015489516001600160a01b039091169163a6d49dca918d91908c90889081106121bc57fe5b60200260200101516040518463ffffffff1660e01b81526004016121e293929190612e6b565b600060405180830381600087803b1580156121fc57600080fd5b505af1158015612210573d6000803e3d6000fd5b5050505050505b600101612024565b50600019821461187f5760009182526020908152604080832094909455600590529190912055505050565b6001600160a01b0382166122705760405162461bcd60e51b81526004016104af9061320b565b6001600160a01b03821660009081526004602052604090819020805460ff1916831515179055517fb21eb88b4e33b3f1281830a7178d74d8aa73220416215726b68ae23d539515cb9061145e9084908490612ea9565b600081601a0363ffffffff16858786866040516020016122e99493929190612e3c565b6040516020818303038152906040528051906020012060001c8161230957fe5b0661ffff168201905095945050505050565b6001600160a01b03821660009081526003602052604090205460ff16156123545760405162461bcd60e51b81526004016104af90613064565b6001600160a01b0383811660008181526007602090815260408083209487168084529490915290819020805460ff1916851515179055517f17307eab39ab6107e8899845ad3d59bd9653f200f220920489ca2b5937696c31906123b8908590612f46565b60405180910390a3505050565b600085815260208190526040902080546affffffffffffffffffffff8381166b010000000000000000000000027fffffffffffffffffffff0000000000000000000000ffffffffffffffffffffff9186166affffffffffffffffffffff1961ffff898116600160c01b027fffffffffffff0000ffffffffffffffffffffffffffffffffffffffffffffffff918c16760100000000000000000000000000000000000000000000027fffffffffffffffff0000ffffffffffffffffffffffffffffffffffffffffffff909716969096171694909417939093169290921716179055610545858585858561259c565b6001600160a01b03821660009081526009602052604090819020805460ff1916831515179055517fff452b3b9159b024a9098f0058c63eccd90d36b3584608202800d662f962bb609061145e9084908490612ea9565b8181018281101561047a5760405162461bcd60e51b81526004016104af90613390565b600064010000000082106125515760405162461bcd60e51b81526004016104af906130d2565b5063ffffffff600183016020026101000390811b1984169082901b179392505050565b6000828211156125965760405162461bcd60e51b81526004016104af90612f51565b50900390565b847fb1df053d0fe1c3de4fe1b9235b36fd01de0941e459f189464c91c9ae26b17778858585856040516125d29493929190613464565b60405180910390a25050505050565b60008083601f8401126125f2578182fd5b50813567ffffffffffffffff811115612609578182fd5b602083019150836020808302850101111561262357600080fd5b9250929050565b600082601f83011261263a578081fd5b813561264d612648826135cf565b6135a8565b81815291506020808301908481018184028601820187101561266e57600080fd5b60005b84811015612696578135612684816135ef565b84529282019290820190600101612671565b505050505092915050565b600082601f8301126126b1578081fd5b81356126bf612648826135cf565b818152915060208083019084810160a0808502870183018810156126e257600080fd5b60005b85811015612709576126f78984612720565b855293830193918101916001016126e5565b50505050505092915050565b803561047a816135ef565b600060a08284031215612731578081fd5b61273b60a06135a8565b905061274783836127b4565b815261275683602084016127b4565b60208201526127688360408401612797565b604082015261277a8360608401612797565b606082015261278c8360808401612797565b608082015292915050565b803561ffff8116811461047a57600080fd5b805161047a81613607565b80356affffffffffffffffffffff8116811461047a57600080fd5b6000602082840312156127e0578081fd5b81356105bb816135ef565b6000602082840312156127fc578081fd5b81516105bb816135ef565b60008060408385031215612819578081fd5b8235612824816135ef565b91506020830135612834816135ef565b809150509250929050565b60008060008060008060808789031215612857578182fd5b8635612862816135ef565b95506020870135612872816135ef565b9450604087013567ffffffffffffffff8082111561288e578384fd5b61289a8a838b016125e1565b909650945060608901359150808211156128b2578384fd5b506128bf89828a016125e1565b979a9699509497509295939492505050565b6000806000606084860312156128e5578081fd5b83356128f0816135ef565b92506020840135612900816135ef565b915060408401358015158114612914578182fd5b809150509250925092565b60008060008060808587031215612934578182fd5b843561293f816135ef565b9350602085013561294f816135ef565b93969395505050506040820135916060013590565b60008060008060006060868803121561297b578283fd5b8535612986816135ef565b9450602086013567ffffffffffffffff808211156129a2578485fd5b6129ae89838a016125e1565b909650945060408801359150808211156129c6578283fd5b506129d3888289016125e1565b969995985093965092949392505050565b600080604083850312156129f6578182fd5b8235612a01816135ef565b915060208301358015158114612834578182fd5b60008060408385031215612a27578182fd5b8235612a32816135ef565b946020939093013593505050565b600080600060608486031215612a54578081fd5b8335612a5f816135ef565b95602085013595506040909401359392505050565b60008060008060408587031215612a89578182fd5b843567ffffffffffffffff80821115612aa0578384fd5b612aac888389016125e1565b90965094506020870135915080821115612ac4578384fd5b50612ad1878288016125e1565b95989497509550505050565b600080600060608486031215612af1578081fd5b833567ffffffffffffffff80821115612b08578283fd5b81860187601f820112612b19578384fd5b80359250612b29612648846135cf565b80848252602080830192508084018b828389028701011115612b49578788fd5b8794505b86851015612b7357612b5f8c82612715565b845260019490940193928101928101612b4d565b509097508801359350505080821115612b8a578283fd5b612b96878388016126a1565b93506040860135915080821115612bab578283fd5b50612bb88682870161262a565b9150509250925092565b60006020808385031215612bd4578182fd5b825167ffffffffffffffff811115612bea578283fd5b80840185601f820112612bfb578384fd5b80519150612c0b612648836135cf565b8281528381019082850185850284018601891015612c27578687fd5b8693505b84841015612c5157612c3d89826127a9565b835260019390930192918501918501612c2b565b50979650505050505050565b600080600060e08486031215612c71578081fd5b8335612c7c816135ef565b9250612c8b8560208601612720565b915060c0840135612914816135ef565b600060208284031215612cac578081fd5b5035919050565b600060208284031215612cc4578081fd5b5051919050565b600080600080600060a08688031215612ce2578283fd5b85359450612cf38760208801612797565b9350612d028760408801612797565b94979396509394606081013594506080013592915050565b60008060408385031215612d2c578182fd5b50508035926020909101359150565b600080600080600060808688031215612d52578283fd5b8535945060208601359350604086013567ffffffffffffffff811115612d76578384fd5b612d82888289016125e1565b9094509250506060860135612d9681613607565b809150509295509295909350565b60008135601e19833603018112612db9578182fd5b820180359067ffffffffffffffff821115612dd2578283fd5b60208202803603851315612de4578384fd5b604086528260408701527f07ffffffffffffffffffffffffffffffffffffffffffffffffffffffffffffff831115612e1a578384fd5b8060208301606088013785016060019283525050602091820135919092015290565b93845260208401929092526040830152606082015260800190565b6001600160a01b0391909116815260200190565b6001600160a01b039384168152919092166020820152604081019190915260600190565b6001600160a01b0392831681529116602082015260400190565b6001600160a01b039290921682521515602082015260400190565b6020808252825182820181905260009190848201906040850190845b81811015612efc57835183529284019291840191600101612ee0565b50909695505050505050565b6020808252825182820181905260009190848201906040850190845b81811015612efc57835163ffffffff1683529284019291840191600101612f24565b901515815260200190565b60208082526009908201527f756e646572666c6f770000000000000000000000000000000000000000000000604082015260600190565b6020808252600d908201527f616c72656164792061646d696e00000000000000000000000000000000000000604082015260600190565b6020808252600d908201527f494e56414c49445f47524f555000000000000000000000000000000000000000604082015260600190565b6020808252600d908201527f544f4f5f4d414e595f47454d5300000000000000000000000000000000000000604082015260600190565b6020808252601b908201527f494e56414c49445f494e434f4e53495354454e545f4c454e4754480000000000604082015260600190565b60208082526016908201527f494e56414c49445f53555045525f4f50455241544f5200000000000000000000604082015260600190565b60208082526017908201527f494e56414c49445f544f5f5a45524f5f41444452455353000000000000000000604082015260600190565b60208082526023908201527f416d6f756e7420746f20777269746520696e2062696e20697320746f6f206c6160408201527f7267650000000000000000000000000000000000000000000000000000000000606082015260800190565b60208082526011908201527f496e76616c6964206f7065726174696f6e000000000000000000000000000000604082015260600190565b60208082526012908201527f6f6e6c792061646d696e20616c6c6f7765640000000000000000000000000000604082015260600190565b60208082526014908201527f4e4f545f415554484f52495a45445f41444d494e000000000000000000000000604082015260600190565b60208082526019908201527f494e56414c49445f46524f4d5f5a45524f5f4144445245535300000000000000604082015260600190565b60208082526025908201527f4d6574615472616e73616374696f6e52656365697665723a207a65726f20616460408201527f6472657373000000000000000000000000000000000000000000000000000000606082015260800190565b6020808252602c908201527f6f6e6c792061646d696e20697320616c6c6f77656420746f206164642073757060408201527f6572206f70657261746f72730000000000000000000000000000000000000000606082015260800190565b6020808252600a908201527f494e56414c49445f494400000000000000000000000000000000000000000000604082015260600190565b60208082526022908201527f63616e277420737562737472616374206d6f7265207468616e2074686572652060408201527f6973000000000000000000000000000000000000000000000000000000000000606082015260800190565b6020808252601b908201527f6f6e6c792061646d696e2063616e206368616e67652061646d696e0000000000604082015260600190565b60208082526008908201527f6f766572666c6f77000000000000000000000000000000000000000000000000604082015260600190565b6020808252600e908201527f4e4f545f415554484f52495a4544000000000000000000000000000000000000604082015260600190565b60208082526015908201527f4e4f545f415554484f52495a45445f4d494e5445520000000000000000000000604082015260600190565b61ffff958616815293851660208501529190931660408301526060820192909252608081019190915260a00190565b61ffff94851681529290931660208301526040820152606081019190915260800190565b90815260200190565b60006080820187835260208781850152608060408501528186835260a08501905060a0828802860101925087845b88811015613520577fffffffffffffffffffffffffffffffffffffffffffffffffffffffffffffff608786030183528135603e198b3603018112613501578687fd5b61350d868c8301612da4565b95505091830191908301906001016134bf565b505050508091505063ffffffff831660608301529695505050505050565b6000808335601e19843603018112613554578283fd5b8084018035925067ffffffffffffffff83111561356f578384fd5b602081019350505060208102360382131561262357600080fd5b60008235603e1983360301811261359e578182fd5b9190910192915050565b60405181810167ffffffffffffffff811182821017156135c757600080fd5b604052919050565b600067ffffffffffffffff8211156135e5578081fd5b5060209081020190565b6001600160a01b038116811461360457600080fd5b50565b63ffffffff8116811461360457600080fdfea2646970667358221220bcbf0d14ed12574c770d9edc6d8c3062d13f9da60dfc6d0058cd0e0a72579cb264736f6c63430006050033",
  "devdoc": {
    "methods": {
      "addCatalysts(address[],(uint88,uint88,uint16,uint16,uint16)[],address[])": {
        "details": "add Catalyst, if one of the catalyst to be added in the batch need to have a value override, all catalyst added in that batch need to have override if this is not desired, they can be added in a separated batch if no override are needed, the valueOverrides can be left emopty"
      },
      "balanceOf(address,uint256)": {
        "params": {
          "id": "subToken id.",
          "owner": "whose balance it is of."
        },
        "returns": {
          "balance": "of the owner"
        }
      },
      "balanceOfBatch(address[],uint256[])": {
        "params": {
          "ids": "list of subTokens's addresses.",
          "owners": "list of addresses to which we want to know the balance."
        },
        "returns": {
          "balances": "list of balances for each request."
        }
      },
      "batchMint(address,uint256[],uint256[])": {
        "details": "mint more tokens of a several subToken .",
        "params": {
          "amounts": "for each token minted.",
          "ids": "subToken ids (also the index at which it was added).",
          "to": "address receiving the tokens."
        }
      },
      "batchTransferFrom(address,address,uint256[],uint256[])": {
        "params": {
          "from": "owner to transfer from.",
          "ids": "list of subToken ids to transfer.",
          "to": "destination address that will receive the tokens.",
          "values": "list of amount for eacg subTokens to transfer."
        }
      },
      "burn(uint256,uint256)": {
        "params": {
          "id": "subToken id.",
          "value": "amount of tokens to burn."
        }
      },
      "burnFrom(address,uint256,uint256)": {
        "params": {
          "from": "fron which address the token are burned from.",
          "id": "subToken id.",
          "value": "amount of tokens to burn."
        }
      },
      "changeAdmin(address)": {
        "details": "change the administrator to be `newAdmin`.",
        "params": {
          "newAdmin": "address of the new administrator."
        }
      },
      "getAdmin()": {
        "details": "gives the current administrator of this contract.",
        "returns": {
          "_0": "the current administrator of this contract."
        }
      },
      "isApprovedForAll(address,address)": {
        "params": {
          "operator": "address being given the ability to transfer.",
          "owner": "address who would have granted the rights."
        },
        "returns": {
          "isOperator": "whether the operator has approval rigths or not."
        }
      },
      "isMetaTransactionProcessor(address)": {
        "details": "check whether address `who` is given meta-transaction execution rights.",
        "params": {
          "who": "The address to query."
        },
        "returns": {
          "_0": "whether the address has meta-transaction execution rights."
        }
      },
      "isMinter(address)": {
        "params": {
          "who": "The address to query."
        },
        "returns": {
          "_0": "whether the address has minter rights."
        }
      },
      "isSuperOperator(address)": {
        "params": {
          "who": "The address to query."
        },
        "returns": {
          "_0": "whether the address has superOperator rights."
        }
      },
      "mint(address,uint256,uint256)": {
        "details": "mint more tokens of a specific subToken .",
        "params": {
          "amount": "of token minted.",
          "id": "subToken id (also the index at which it was added).",
          "to": "address receiving the tokens."
        }
      },
      "setApprovalForAll(address,bool)": {
        "params": {
          "approved": "whether the operator is revoked or approved.",
          "operator": "address being granted/revoked ability to transfer."
        }
      },
      "setApprovalForAllFor(address,address,bool)": {
        "params": {
          "approved": "whether the operator is revoked or approved.",
          "operator": "address being granted/revoked ability to transfer.",
          "sender": "address granting/revoking the approval."
        }
      },
      "setMetaTransactionProcessor(address,bool)": {
        "details": "Enable or disable the ability of `metaTransactionProcessor` to perform meta-tx (metaTransactionProcessor rights).",
        "params": {
          "enabled": "set whether the metaTransactionProcessor is enabled or disabled.",
          "metaTransactionProcessor": "address that will be given/removed metaTransactionProcessor rights."
        }
      },
      "setMinter(address,bool)": {
        "params": {
          "enabled": "set whether the minter is enabled or disabled.",
          "minter": "address that will be given/removed minter right."
        }
      },
      "setSuperOperator(address,bool)": {
        "params": {
          "enabled": "set whether the superOperator is enabled or disabled.",
          "superOperator": "address that will be given/removed superOperator right."
        }
      },
      "singleTransferFrom(address,address,uint256,uint256)": {
        "params": {
          "from": "owner to transfer from.",
          "id": "subToken id.",
          "to": "destination address that will receive the tokens.",
          "value": "amount of tokens to transfer."
        }
      },
      "supplyOf(uint256)": {
        "params": {
          "id": "subToken id."
        },
        "returns": {
          "supply": "current total number of tokens."
        }
      }
    }
  },
  "userdoc": {
    "methods": {
      "balanceOf(address,uint256)": {
        "notice": "return the balance of a particular owner for a particular subToken."
      },
      "balanceOfBatch(address[],uint256[])": {
        "notice": "return the balances of a list of owners / subTokens."
      },
      "batchTransferFrom(address,address,uint256[],uint256[])": {
        "notice": "transfer a number of different subTokens from one address to another."
      },
      "burn(uint256,uint256)": {
        "notice": "burn token for a specific subToken."
      },
      "burnFrom(address,uint256,uint256)": {
        "notice": "burn token for a specific owner and subToken."
      },
      "isApprovedForAll(address,address)": {
        "notice": "return whether an oeprator has the ability to transfer on behalf of another address."
      },
      "isMinter(address)": {
        "notice": "check whether address `who` is given minter rights."
      },
      "isSuperOperator(address)": {
        "notice": "check whether address `who` is given superOperator rights."
      },
      "setApprovalForAll(address,bool)": {
        "notice": "grant or revoke the ability for an address to transfer token on your behalf."
      },
      "setApprovalForAllFor(address,address,bool)": {
        "notice": "grant or revoke the ability for an address to transfer token on behalf of another address."
      },
      "setMinter(address,bool)": {
        "notice": "Enable or disable the ability of `minter` to mint tokens"
      },
      "setSuperOperator(address,bool)": {
        "notice": "Enable or disable the ability of `superOperator` to transfer tokens of all (superOperator rights)."
      },
      "singleTransferFrom(address,address,uint256,uint256)": {
        "notice": "transfer a number of subToken from one address to another."
      },
      "supplyOf(uint256)": {
        "notice": "return the current total supply of a specific subToken."
      }
    }
  },
  "storageLayout": {
    "storage": [
      {
        "astId": 4864,
        "contract": "src/solc_0.6/Catalyst/ERC20GroupCatalyst.sol:ERC20GroupCatalyst",
        "label": "_data",
        "offset": 0,
        "slot": "0",
        "type": "t_mapping(t_uint256,t_struct(MintData)4853_storage)"
      },
      {
        "astId": 4868,
        "contract": "src/solc_0.6/Catalyst/ERC20GroupCatalyst.sol:ERC20GroupCatalyst",
        "label": "_valueOverrides",
        "offset": 0,
        "slot": "1",
        "type": "t_mapping(t_uint256,t_contract(CatalystValue)4933)"
      },
      {
        "astId": 14099,
        "contract": "src/solc_0.6/Catalyst/ERC20GroupCatalyst.sol:ERC20GroupCatalyst",
        "label": "_admin",
        "offset": 0,
        "slot": "2",
        "type": "t_address"
      },
      {
        "astId": 14316,
        "contract": "src/solc_0.6/Catalyst/ERC20GroupCatalyst.sol:ERC20GroupCatalyst",
        "label": "_superOperators",
        "offset": 0,
        "slot": "3",
        "type": "t_mapping(t_address,t_bool)"
      },
      {
        "astId": 14168,
        "contract": "src/solc_0.6/Catalyst/ERC20GroupCatalyst.sol:ERC20GroupCatalyst",
        "label": "_metaTransactionContracts",
        "offset": 0,
        "slot": "4",
        "type": "t_mapping(t_address,t_bool)"
      },
      {
        "astId": 2683,
        "contract": "src/solc_0.6/Catalyst/ERC20GroupCatalyst.sol:ERC20GroupCatalyst",
        "label": "_packedSupplies",
        "offset": 0,
        "slot": "5",
        "type": "t_mapping(t_uint256,t_uint256)"
      },
      {
        "astId": 2689,
        "contract": "src/solc_0.6/Catalyst/ERC20GroupCatalyst.sol:ERC20GroupCatalyst",
        "label": "_packedTokenBalance",
        "offset": 0,
        "slot": "6",
        "type": "t_mapping(t_address,t_mapping(t_uint256,t_uint256))"
      },
      {
        "astId": 2695,
        "contract": "src/solc_0.6/Catalyst/ERC20GroupCatalyst.sol:ERC20GroupCatalyst",
        "label": "_operatorsForAll",
        "offset": 0,
        "slot": "7",
        "type": "t_mapping(t_address,t_mapping(t_address,t_bool))"
      },
      {
        "astId": 2698,
        "contract": "src/solc_0.6/Catalyst/ERC20GroupCatalyst.sol:ERC20GroupCatalyst",
        "label": "_erc20s",
        "offset": 0,
        "slot": "8",
        "type": "t_array(t_contract(ERC20SubToken)3120)dyn_storage"
      },
      {
        "astId": 2702,
        "contract": "src/solc_0.6/Catalyst/ERC20GroupCatalyst.sol:ERC20GroupCatalyst",
        "label": "_minters",
        "offset": 0,
        "slot": "9",
        "type": "t_mapping(t_address,t_bool)"
      }
    ],
    "types": {
      "t_address": {
        "encoding": "inplace",
        "label": "address",
        "numberOfBytes": "20"
      },
      "t_array(t_contract(ERC20SubToken)3120)dyn_storage": {
        "base": "t_contract(ERC20SubToken)3120",
        "encoding": "dynamic_array",
        "label": "contract ERC20SubToken[]",
        "numberOfBytes": "32"
      },
      "t_bool": {
        "encoding": "inplace",
        "label": "bool",
        "numberOfBytes": "1"
      },
      "t_contract(CatalystValue)4933": {
        "encoding": "inplace",
        "label": "contract CatalystValue",
        "numberOfBytes": "20"
      },
      "t_contract(ERC20SubToken)3120": {
        "encoding": "inplace",
        "label": "contract ERC20SubToken",
        "numberOfBytes": "20"
      },
      "t_mapping(t_address,t_bool)": {
        "encoding": "mapping",
        "key": "t_address",
        "label": "mapping(address => bool)",
        "numberOfBytes": "32",
        "value": "t_bool"
      },
      "t_mapping(t_address,t_mapping(t_address,t_bool))": {
        "encoding": "mapping",
        "key": "t_address",
        "label": "mapping(address => mapping(address => bool))",
        "numberOfBytes": "32",
        "value": "t_mapping(t_address,t_bool)"
      },
      "t_mapping(t_address,t_mapping(t_uint256,t_uint256))": {
        "encoding": "mapping",
        "key": "t_address",
        "label": "mapping(address => mapping(uint256 => uint256))",
        "numberOfBytes": "32",
        "value": "t_mapping(t_uint256,t_uint256)"
      },
      "t_mapping(t_uint256,t_contract(CatalystValue)4933)": {
        "encoding": "mapping",
        "key": "t_uint256",
        "label": "mapping(uint256 => contract CatalystValue)",
        "numberOfBytes": "32",
        "value": "t_contract(CatalystValue)4933"
      },
      "t_mapping(t_uint256,t_struct(MintData)4853_storage)": {
        "encoding": "mapping",
        "key": "t_uint256",
        "label": "mapping(uint256 => struct CatalystDataBase.MintData)",
        "numberOfBytes": "32",
        "value": "t_struct(MintData)4853_storage"
      },
      "t_mapping(t_uint256,t_uint256)": {
        "encoding": "mapping",
        "key": "t_uint256",
        "label": "mapping(uint256 => uint256)",
        "numberOfBytes": "32",
        "value": "t_uint256"
      },
      "t_struct(MintData)4853_storage": {
        "encoding": "inplace",
        "label": "struct CatalystDataBase.MintData",
        "members": [
          {
            "astId": 4844,
            "contract": "src/solc_0.6/Catalyst/ERC20GroupCatalyst.sol:ERC20GroupCatalyst",
            "label": "sandMintingFee",
            "offset": 0,
            "slot": "0",
            "type": "t_uint88"
          },
          {
            "astId": 4846,
            "contract": "src/solc_0.6/Catalyst/ERC20GroupCatalyst.sol:ERC20GroupCatalyst",
            "label": "sandUpdateFee",
            "offset": 11,
            "slot": "0",
            "type": "t_uint88"
          },
          {
            "astId": 4848,
            "contract": "src/solc_0.6/Catalyst/ERC20GroupCatalyst.sol:ERC20GroupCatalyst",
            "label": "minQuantity",
            "offset": 22,
            "slot": "0",
            "type": "t_uint16"
          },
          {
            "astId": 4850,
            "contract": "src/solc_0.6/Catalyst/ERC20GroupCatalyst.sol:ERC20GroupCatalyst",
            "label": "maxQuantity",
            "offset": 24,
            "slot": "0",
            "type": "t_uint16"
          },
          {
            "astId": 4852,
            "contract": "src/solc_0.6/Catalyst/ERC20GroupCatalyst.sol:ERC20GroupCatalyst",
            "label": "maxGems",
            "offset": 26,
            "slot": "0",
            "type": "t_uint16"
          }
        ],
        "numberOfBytes": "32"
      },
      "t_uint16": {
        "encoding": "inplace",
        "label": "uint16",
        "numberOfBytes": "2"
      },
      "t_uint256": {
        "encoding": "inplace",
        "label": "uint256",
        "numberOfBytes": "32"
      },
      "t_uint88": {
        "encoding": "inplace",
        "label": "uint88",
        "numberOfBytes": "11"
      }
    }
  }
}