{
  "address": "0x4A5bF3DF3295f8aad602DACda2Da8bee774281c3",
  "abi": [
    {
      "inputs": [
        {
          "internalType": "contract CatalystValue",
          "name": "catalystValue",
          "type": "address"
        },
        {
          "internalType": "address",
          "name": "admin",
          "type": "address"
        }
      ],
      "stateMutability": "nonpayable",
      "type": "constructor"
    },
    {
      "anonymous": false,
      "inputs": [
        {
          "indexed": false,
          "internalType": "address",
          "name": "oldAdmin",
          "type": "address"
        },
        {
          "indexed": false,
          "internalType": "address",
          "name": "newAdmin",
          "type": "address"
        }
      ],
      "name": "AdminChanged",
      "type": "event"
    },
    {
      "anonymous": false,
      "inputs": [
        {
          "indexed": true,
          "internalType": "uint256",
          "name": "assetId",
          "type": "uint256"
        },
        {
          "indexed": true,
          "internalType": "uint256",
          "name": "catalystId",
          "type": "uint256"
        },
        {
          "indexed": false,
          "internalType": "uint256",
          "name": "seed",
          "type": "uint256"
        },
        {
          "indexed": false,
          "internalType": "uint256[]",
          "name": "gemIds",
          "type": "uint256[]"
        },
        {
          "indexed": false,
          "internalType": "uint64",
          "name": "blockNumber",
          "type": "uint64"
        }
      ],
      "name": "CatalystApplied",
      "type": "event"
    },
    {
      "anonymous": false,
      "inputs": [
        {
          "indexed": true,
          "internalType": "uint256",
          "name": "assetId",
          "type": "uint256"
        },
        {
          "indexed": false,
          "internalType": "uint256",
          "name": "seed",
          "type": "uint256"
        },
        {
          "indexed": false,
          "internalType": "uint256[]",
          "name": "gemIds",
          "type": "uint256[]"
        },
        {
          "indexed": false,
          "internalType": "uint64",
          "name": "blockNumber",
          "type": "uint64"
        }
      ],
      "name": "GemsAdded",
      "type": "event"
    },
    {
      "anonymous": false,
      "inputs": [
        {
          "indexed": true,
          "internalType": "address",
          "name": "newMinter",
          "type": "address"
        }
      ],
      "name": "Minter",
      "type": "event"
    },
    {
      "inputs": [
        {
          "internalType": "uint256",
          "name": "assetId",
          "type": "uint256"
        },
        {
          "internalType": "uint256[]",
          "name": "gemIds",
          "type": "uint256[]"
        }
      ],
      "name": "addGems",
      "outputs": [],
      "stateMutability": "nonpayable",
      "type": "function"
    },
    {
      "inputs": [
        {
          "internalType": "address",
          "name": "newAdmin",
          "type": "address"
        }
      ],
      "name": "changeAdmin",
      "outputs": [],
      "stateMutability": "nonpayable",
      "type": "function"
    },
    {
      "inputs": [],
      "name": "getAdmin",
      "outputs": [
        {
          "internalType": "address",
          "name": "",
          "type": "address"
        }
      ],
      "stateMutability": "view",
      "type": "function"
    },
    {
      "inputs": [
        {
          "internalType": "uint256",
          "name": "assetId",
          "type": "uint256"
        }
      ],
      "name": "getCatalyst",
      "outputs": [
        {
          "internalType": "bool",
          "name": "exists",
          "type": "bool"
        },
        {
          "internalType": "uint256",
          "name": "catalystId",
          "type": "uint256"
        }
      ],
      "stateMutability": "view",
      "type": "function"
    },
    {
      "inputs": [],
      "name": "getMinter",
      "outputs": [
        {
          "internalType": "address",
          "name": "",
          "type": "address"
        }
      ],
      "stateMutability": "view",
      "type": "function"
    },
    {
      "inputs": [
        {
          "internalType": "uint256",
          "name": "catalystId",
          "type": "uint256"
        },
        {
          "internalType": "uint256",
          "name": "seed",
          "type": "uint256"
        },
        {
          "components": [
            {
              "internalType": "uint256[]",
              "name": "gemIds",
              "type": "uint256[]"
            },
            {
              "internalType": "bytes32",
              "name": "blockHash",
              "type": "bytes32"
            }
          ],
          "internalType": "struct CatalystValue.GemEvent[]",
          "name": "events",
          "type": "tuple[]"
        },
        {
          "internalType": "uint32",
          "name": "totalNumberOfGemTypes",
          "type": "uint32"
        }
      ],
      "name": "getValues",
      "outputs": [
        {
          "internalType": "uint32[]",
          "name": "values",
          "type": "uint32[]"
        }
      ],
      "stateMutability": "view",
      "type": "function"
    },
    {
      "inputs": [
        {
          "internalType": "uint256",
          "name": "assetId",
          "type": "uint256"
        },
        {
          "internalType": "uint256",
          "name": "catalystId",
          "type": "uint256"
        },
        {
          "internalType": "uint256",
          "name": "maxGems",
          "type": "uint256"
        },
        {
          "internalType": "uint256[]",
          "name": "gemIds",
          "type": "uint256[]"
        }
      ],
      "name": "setCatalyst",
      "outputs": [],
      "stateMutability": "nonpayable",
      "type": "function"
    },
    {
      "inputs": [
        {
          "internalType": "address",
          "name": "minter",
          "type": "address"
        }
      ],
      "name": "setMinter",
      "outputs": [],
      "stateMutability": "nonpayable",
      "type": "function"
    }
  ],
  "transactionHash": "0xea27178b052af1a097321d4fe3fcaa97dc8379fd588567eedfe84d27ee494390",
  "args": [
    "0x3C4055B484bd02ae0516C1975dB7dB5985A3c970",
    "0xA796AE911621E00809E0E7C8f0AD6BF118E5139e"
  ],
  "numDeployments": 1,
  "solcInputHash": "b42a863a795806b4ea3a8f05dfa42539",
  "bytecode": "0x60a060405234801561001057600080fd5b5060405161105238038061105283398101604081905261002f91610064565b600080546001600160a01b0319166001600160a01b039290921691909117905560601b6001600160601b0319166080526100b5565b60008060408385031215610076578182fd5b82516100818161009d565b60208401519092506100928161009d565b809150509250929050565b6001600160a01b03811681146100b257600080fd5b50565b60805160601c610f806100d2600039806103e85250610f806000f3fe608060405234801561001057600080fd5b50600436106100885760003560e01c80638f2839701161005b5780638f28397014610101578063b07fdd1f14610114578063f366751714610127578063fca3b5aa1461012f57610088565b80631b74ea651461008d5780636e9960c3146100a25780637a528ea5146100c05780638cc48b1c146100e1575b600080fd5b6100a061009b366004610a7a565b610142565b005b6100aa6102a3565b6040516100b79190610bae565b60405180910390f35b6100d36100ce3660046109af565b6102b2565b6040516100b7929190610c26565b6100f46100ef366004610a11565b6103b5565b6040516100b79190610bdc565b6100a061010f3660046108e1565b6104a1565b6100a06101223660046109c7565b61057a565b6100aa61069d565b6100a061013d3660046108e1565b6106ac565b6001546001600160a01b031633146101755760405162461bcd60e51b815260040161016c90610db7565b60405180910390fd5b828111156101955760405162461bcd60e51b815260040161016c90610d49565b6040805160608101825282850367ffffffffffffffff81811683528781166020808501918252600185870190815260008c81526002909252958120945185549251965167ffffffffffffffff19909316908416177fffffffffffffffffffffffffffffffff0000000000000000ffffffffffffffff166801000000000000000096841696909602959095177fffffffffffffffff0000000000000000ffffffffffffffffffffffffffffffff16600160801b91909216021790915590610259610766565b905085877fafece0d710ade702a82d755ffd5b7a46d2705b9845a3be706736bb8aab7cde13898787866040516102929493929190610dee565b60405180910390a350505050505050565b6000546001600160a01b031690565b6000806102bd610867565b506000838152600260209081526040918290208251606081018452905467ffffffffffffffff8082168352680100000000000000008204811693830193909352600160801b9004909116918101829052901561032c57602001516001925067ffffffffffffffff1690506103b0565b6b8000000000000000000000008416156103a7576002600061034d8661076d565b815260208082019290925260409081016000208151606081018352905467ffffffffffffffff80821683526801000000000000000082048116948301859052600160801b9091041691018190521515935091506103b09050565b50600091508190505b915091565b6040517f8cc48b1c0000000000000000000000000000000000000000000000000000000081526060906001600160a01b037f00000000000000000000000000000000000000000000000000000000000000001690638cc48b1c906104259089908990899089908990600401610e23565b60006040518083038186803b15801561043d57600080fd5b505afa158015610451573d6000803e3d6000fd5b505050506040513d6000823e601f3d9081017fffffffffffffffffffffffffffffffffffffffffffffffffffffffffffffffe0168201604052610497919081019061090f565b9695505050505050565b6000546001600160a01b031633146104cb5760405162461bcd60e51b815260040161016c90610d80565b6000546001600160a01b03828116911614156104f95760405162461bcd60e51b815260040161016c90610c36565b6000546040517f7e644d79422f17c01e4894b5f4f588d331ebfa28653d42ae832dc59e38c9798f91610538916001600160a01b03909116908490610bc2565b60405180910390a1600080547fffffffffffffffffffffffff0000000000000000000000000000000000000000166001600160a01b0392909216919091179055565b6001546001600160a01b031633146105a45760405162461bcd60e51b815260040161016c90610db7565b6b80000000000000000000000083166105cf5760405162461bcd60e51b815260040161016c90610c6d565b806105ec5760405162461bcd60e51b815260040161016c90610d12565b6000806105f885610792565b90925090508282101561061d5760405162461bcd60e51b815260040161016c90610d49565b6000858152600260205260408120805467ffffffffffffffff9486900394851667ffffffffffffffff19909116179055610655610766565b9050857f2bf412519a9530b3eb1f35f50a9ea1aa482bec60101aa3ddfe7c46539500ba638387878560405161068d9493929190610dee565b60405180910390a2505050505050565b6001546001600160a01b031690565b6000546001600160a01b031633146106d65760405162461bcd60e51b815260040161016c90610cdb565b6001546001600160a01b03828116911614156107045760405162461bcd60e51b815260040161016c90610ca4565b600180547fffffffffffffffffffffffff0000000000000000000000000000000000000000166001600160a01b0383169081179091556040517f21ffb9a0b86ae3fac1c74b9687a1f60074ca118d66f641fb58ec34d8611dc24c90600090a250565b6001430190565b7fffffffffffffffffffffffffffffffffffffffff000000007fffffffffffffff1690565b60008161079d610867565b506000838152600260209081526040918290208251606081018452905467ffffffffffffffff8082168352680100000000000000008204811693830193909352600160801b90049091169181018290529015610805575167ffffffffffffffff1691506103b0565b61080e8461076d565b6000818152600260209081526040918290208251606081018452905467ffffffffffffffff808216808452680100000000000000008304821694840194909452600160801b909104169201919091529350915050915091565b604080516060810182526000808252602082018190529181019190915290565b60008083601f840112610898578182fd5b50813567ffffffffffffffff8111156108af578182fd5b60208301915083602080830285010111156108c957600080fd5b9250929050565b80516108db81610f35565b92915050565b6000602082840312156108f2578081fd5b81356001600160a01b0381168114610908578182fd5b9392505050565b60006020808385031215610921578182fd5b825167ffffffffffffffff811115610937578283fd5b80840185601f820112610948578384fd5b8051915061095d61095883610f15565b610eee565b8281528381019082850185850284018601891015610979578687fd5b8693505b848410156109a35761098f89826108d0565b83526001939093019291850191850161097d565b50979650505050505050565b6000602082840312156109c0578081fd5b5035919050565b6000806000604084860312156109db578182fd5b83359250602084013567ffffffffffffffff8111156109f8578283fd5b610a0486828701610887565b9497909650939450505050565b600080600080600060808688031215610a28578081fd5b8535945060208601359350604086013567ffffffffffffffff811115610a4c578182fd5b610a5888828901610887565b9094509250506060860135610a6c81610f35565b809150509295509295909350565b600080600080600060808688031215610a91578081fd5b853594506020860135935060408601359250606086013567ffffffffffffffff811115610abc578182fd5b610ac888828901610887565b969995985093965092949392505050565b600081357fffffffffffffffffffffffffffffffffffffffffffffffffffffffffffffffe1833603018112610b0c578182fd5b820180359067ffffffffffffffff821115610b25578283fd5b602082023603841315610b36578283fd5b60408552610b4b604086018360208401610b61565b6020850135602087015280935050505092915050565b60008284527f07ffffffffffffffffffffffffffffffffffffffffffffffffffffffffffffff831115610b92578081fd5b6020830280836020870137939093016020019283525090919050565b6001600160a01b0391909116815260200190565b6001600160a01b0392831681529116602082015260400190565b6020808252825182820181905260009190848201906040850190845b81811015610c1a57835163ffffffff1683529284019291840191600101610bf8565b50909695505050505050565b9115158252602082015260400190565b6020808252600d908201527f616c72656164792061646d696e00000000000000000000000000000000000000604082015260600190565b6020808252600f908201527f494e56414c49445f4e4f545f4e46540000000000000000000000000000000000604082015260600190565b6020808252601f908201527f494e56414c49445f4d494e5445525f53414d455f414c52454144595f53455400604082015260600190565b60208082526014908201527f4e4f545f415554484f52495a45445f41444d494e000000000000000000000000604082015260600190565b6020808252600e908201527f494e56414c49445f47454d535f30000000000000000000000000000000000000604082015260600190565b60208082526015908201527f494e56414c49445f47454d535f544f4f5f4d414e590000000000000000000000604082015260600190565b6020808252601b908201527f6f6e6c792061646d696e2063616e206368616e67652061646d696e0000000000604082015260600190565b60208082526015908201527f4e4f545f415554484f52495a45445f4d494e5445520000000000000000000000604082015260600190565b600085825260606020830152610e08606083018587610b61565b905067ffffffffffffffff8316604083015295945050505050565b60006080820187835260208781850152608060408501528186835260a08501905060a0828802860101925087845b88811015610ed0577fffffffffffffffffffffffffffffffffffffffffffffffffffffffffffffff6087860301835281357fffffffffffffffffffffffffffffffffffffffffffffffffffffffffffffffc18b3603018112610eb1578687fd5b610ebd868c8301610ad9565b9550509183019190830190600101610e51565b505050508091505063ffffffff831660608301529695505050505050565b60405181810167ffffffffffffffff81118282101715610f0d57600080fd5b604052919050565b600067ffffffffffffffff821115610f2b578081fd5b5060209081020190565b63ffffffff81168114610f4757600080fd5b5056fea264697066735822122012a55eed2b80f6cc4a6a317cc69b61399dc40f6b5ebf3a7b5e2d153e2e2b3a2764736f6c63430006050033",
  "devdoc": {
    "methods": {
      "changeAdmin(address)": {
        "details": "change the administrator to be `newAdmin`.",
        "params": {
          "newAdmin": "address of the new administrator."
        }
      },
      "getAdmin()": {
        "details": "gives the current administrator of this contract.",
        "returns": {
          "_0": "the current administrator of this contract."
        }
      },
      "getMinter()": {
        "details": "return the current minter"
      },
      "setMinter(address)": {
        "details": "Set the Minter that will be the only address able to create Estate",
        "params": {
          "minter": "address of the minter"
        }
      }
    }
  },
  "userdoc": {
    "methods": {}
  },
  "storageLayout": {
    "storage": [
      {
        "astId": 14099,
        "contract": "src/solc_0.6/CatalystRegistry.sol:CatalystRegistry",
        "label": "_admin",
        "offset": 0,
        "slot": "0",
        "type": "t_address"
      },
      {
        "astId": 6956,
        "contract": "src/solc_0.6/CatalystRegistry.sol:CatalystRegistry",
        "label": "_minter",
        "offset": 0,
        "slot": "1",
        "type": "t_address"
      },
      {
        "astId": 6962,
        "contract": "src/solc_0.6/CatalystRegistry.sol:CatalystRegistry",
        "label": "_catalysts",
        "offset": 0,
        "slot": "2",
        "type": "t_mapping(t_uint256,t_struct(CatalystStored)6954_storage)"
      }
    ],
    "types": {
      "t_address": {
        "encoding": "inplace",
        "label": "address",
        "numberOfBytes": "20"
      },
      "t_mapping(t_uint256,t_struct(CatalystStored)6954_storage)": {
        "encoding": "mapping",
        "key": "t_uint256",
        "label": "mapping(uint256 => struct CatalystRegistry.CatalystStored)",
        "numberOfBytes": "32",
        "value": "t_struct(CatalystStored)6954_storage"
      },
      "t_struct(CatalystStored)6954_storage": {
        "encoding": "inplace",
        "label": "struct CatalystRegistry.CatalystStored",
        "members": [
          {
            "astId": 6949,
            "contract": "src/solc_0.6/CatalystRegistry.sol:CatalystRegistry",
            "label": "emptySockets",
            "offset": 0,
            "slot": "0",
            "type": "t_uint64"
          },
          {
            "astId": 6951,
            "contract": "src/solc_0.6/CatalystRegistry.sol:CatalystRegistry",
            "label": "catalystId",
            "offset": 8,
            "slot": "0",
            "type": "t_uint64"
          },
          {
            "astId": 6953,
            "contract": "src/solc_0.6/CatalystRegistry.sol:CatalystRegistry",
            "label": "set",
            "offset": 16,
            "slot": "0",
            "type": "t_uint64"
          }
        ],
        "numberOfBytes": "32"
      },
      "t_uint256": {
        "encoding": "inplace",
        "label": "uint256",
        "numberOfBytes": "32"
      },
      "t_uint64": {
        "encoding": "inplace",
        "label": "uint64",
        "numberOfBytes": "8"
      }
    }
  }
}