{
  "address": "0xf7A26A843D65d0E2F3f94C7c9FB65afB18e32fD5",
  "abi": [
    {
      "inputs": [
        {
          "internalType": "address",
          "name": "metaTransactionContract",
          "type": "address"
        },
        {
          "internalType": "address",
          "name": "admin",
          "type": "address"
        },
        {
          "internalType": "address",
          "name": "initialMinter",
          "type": "address"
        }
      ],
      "stateMutability": "nonpayable",
      "type": "constructor"
    },
    {
      "anonymous": false,
      "inputs": [
        {
          "indexed": false,
          "internalType": "address",
          "name": "oldAdmin",
          "type": "address"
        },
        {
          "indexed": false,
          "internalType": "address",
          "name": "newAdmin",
          "type": "address"
        }
      ],
      "name": "AdminChanged",
      "type": "event"
    },
    {
      "anonymous": false,
      "inputs": [
        {
          "indexed": true,
          "internalType": "address",
          "name": "owner",
          "type": "address"
        },
        {
          "indexed": true,
          "internalType": "address",
          "name": "operator",
          "type": "address"
        },
        {
          "indexed": false,
          "internalType": "bool",
          "name": "approved",
          "type": "bool"
        }
      ],
      "name": "ApprovalForAll",
      "type": "event"
    },
    {
      "anonymous": false,
      "inputs": [
        {
          "indexed": false,
          "internalType": "address",
          "name": "metaTransactionProcessor",
          "type": "address"
        },
        {
          "indexed": false,
          "internalType": "bool",
          "name": "enabled",
          "type": "bool"
        }
      ],
      "name": "MetaTransactionProcessor",
      "type": "event"
    },
    {
      "anonymous": false,
      "inputs": [
        {
          "indexed": false,
          "internalType": "address",
          "name": "minter",
          "type": "address"
        },
        {
          "indexed": false,
          "internalType": "bool",
          "name": "enabled",
          "type": "bool"
        }
      ],
      "name": "Minter",
      "type": "event"
    },
    {
      "anonymous": false,
      "inputs": [
        {
          "indexed": false,
          "internalType": "contract ERC20SubToken",
          "name": "subToken",
          "type": "address"
        }
      ],
      "name": "SubToken",
      "type": "event"
    },
    {
      "anonymous": false,
      "inputs": [
        {
          "indexed": false,
          "internalType": "address",
          "name": "superOperator",
          "type": "address"
        },
        {
          "indexed": false,
          "internalType": "bool",
          "name": "enabled",
          "type": "bool"
        }
      ],
      "name": "SuperOperator",
      "type": "event"
    },
    {
      "inputs": [
        {
          "internalType": "contract ERC20SubToken[]",
          "name": "catalysts",
          "type": "address[]"
        }
      ],
      "name": "addGems",
      "outputs": [],
      "stateMutability": "nonpayable",
      "type": "function"
    },
    {
      "inputs": [
        {
          "internalType": "address",
          "name": "owner",
          "type": "address"
        },
        {
          "internalType": "uint256",
          "name": "id",
          "type": "uint256"
        }
      ],
      "name": "balanceOf",
      "outputs": [
        {
          "internalType": "uint256",
          "name": "balance",
          "type": "uint256"
        }
      ],
      "stateMutability": "view",
      "type": "function"
    },
    {
      "inputs": [
        {
          "internalType": "address[]",
          "name": "owners",
          "type": "address[]"
        },
        {
          "internalType": "uint256[]",
          "name": "ids",
          "type": "uint256[]"
        }
      ],
      "name": "balanceOfBatch",
      "outputs": [
        {
          "internalType": "uint256[]",
          "name": "balances",
          "type": "uint256[]"
        }
      ],
      "stateMutability": "view",
      "type": "function"
    },
    {
      "inputs": [
        {
          "internalType": "address",
          "name": "from",
          "type": "address"
        },
        {
          "internalType": "uint256[]",
          "name": "ids",
          "type": "uint256[]"
        },
        {
          "internalType": "uint256[]",
          "name": "amounts",
          "type": "uint256[]"
        }
      ],
      "name": "batchBurnFrom",
      "outputs": [],
      "stateMutability": "nonpayable",
      "type": "function"
    },
    {
      "inputs": [
        {
          "internalType": "address",
          "name": "to",
          "type": "address"
        },
        {
          "internalType": "uint256[]",
          "name": "ids",
          "type": "uint256[]"
        },
        {
          "internalType": "uint256[]",
          "name": "amounts",
          "type": "uint256[]"
        }
      ],
      "name": "batchMint",
      "outputs": [],
      "stateMutability": "nonpayable",
      "type": "function"
    },
    {
      "inputs": [
        {
          "internalType": "address",
          "name": "from",
          "type": "address"
        },
        {
          "internalType": "address",
          "name": "to",
          "type": "address"
        },
        {
          "internalType": "uint256[]",
          "name": "ids",
          "type": "uint256[]"
        },
        {
          "internalType": "uint256[]",
          "name": "values",
          "type": "uint256[]"
        }
      ],
      "name": "batchTransferFrom",
      "outputs": [],
      "stateMutability": "nonpayable",
      "type": "function"
    },
    {
      "inputs": [
        {
          "internalType": "uint256",
          "name": "id",
          "type": "uint256"
        },
        {
          "internalType": "uint256",
          "name": "value",
          "type": "uint256"
        }
      ],
      "name": "burn",
      "outputs": [],
      "stateMutability": "nonpayable",
      "type": "function"
    },
    {
      "inputs": [
        {
          "internalType": "address",
          "name": "from",
          "type": "address"
        },
        {
          "internalType": "uint256",
          "name": "id",
          "type": "uint256"
        },
        {
          "internalType": "uint256",
          "name": "value",
          "type": "uint256"
        }
      ],
      "name": "burnFrom",
      "outputs": [],
      "stateMutability": "nonpayable",
      "type": "function"
    },
    {
      "inputs": [
        {
          "internalType": "address",
          "name": "newAdmin",
          "type": "address"
        }
      ],
      "name": "changeAdmin",
      "outputs": [],
      "stateMutability": "nonpayable",
      "type": "function"
    },
    {
      "inputs": [],
      "name": "getAdmin",
      "outputs": [
        {
          "internalType": "address",
          "name": "",
          "type": "address"
        }
      ],
      "stateMutability": "view",
      "type": "function"
    },
    {
      "inputs": [
        {
          "internalType": "address",
          "name": "owner",
          "type": "address"
        },
        {
          "internalType": "address",
          "name": "operator",
          "type": "address"
        }
      ],
      "name": "isApprovedForAll",
      "outputs": [
        {
          "internalType": "bool",
          "name": "isOperator",
          "type": "bool"
        }
      ],
      "stateMutability": "view",
      "type": "function"
    },
    {
      "inputs": [
        {
          "internalType": "address",
          "name": "sender",
          "type": "address"
        }
      ],
      "name": "isAuthorizedToApprove",
      "outputs": [
        {
          "internalType": "bool",
          "name": "",
          "type": "bool"
        }
      ],
      "stateMutability": "view",
      "type": "function"
    },
    {
      "inputs": [
        {
          "internalType": "address",
          "name": "owner",
          "type": "address"
        },
        {
          "internalType": "address",
          "name": "sender",
          "type": "address"
        }
      ],
      "name": "isAuthorizedToTransfer",
      "outputs": [
        {
          "internalType": "bool",
          "name": "",
          "type": "bool"
        }
      ],
      "stateMutability": "view",
      "type": "function"
    },
    {
      "inputs": [
        {
          "internalType": "address",
          "name": "who",
          "type": "address"
        }
      ],
      "name": "isMetaTransactionProcessor",
      "outputs": [
        {
          "internalType": "bool",
          "name": "",
          "type": "bool"
        }
      ],
      "stateMutability": "view",
      "type": "function"
    },
    {
      "inputs": [
        {
          "internalType": "address",
          "name": "who",
          "type": "address"
        }
      ],
      "name": "isMinter",
      "outputs": [
        {
          "internalType": "bool",
          "name": "",
          "type": "bool"
        }
      ],
      "stateMutability": "view",
      "type": "function"
    },
    {
      "inputs": [
        {
          "internalType": "address",
          "name": "who",
          "type": "address"
        }
      ],
      "name": "isSuperOperator",
      "outputs": [
        {
          "internalType": "bool",
          "name": "",
          "type": "bool"
        }
      ],
      "stateMutability": "view",
      "type": "function"
    },
    {
      "inputs": [
        {
          "internalType": "address",
          "name": "to",
          "type": "address"
        },
        {
          "internalType": "uint256",
          "name": "id",
          "type": "uint256"
        },
        {
          "internalType": "uint256",
          "name": "amount",
          "type": "uint256"
        }
      ],
      "name": "mint",
      "outputs": [],
      "stateMutability": "nonpayable",
      "type": "function"
    },
    {
      "inputs": [
        {
          "internalType": "address",
          "name": "operator",
          "type": "address"
        },
        {
          "internalType": "bool",
          "name": "approved",
          "type": "bool"
        }
      ],
      "name": "setApprovalForAll",
      "outputs": [],
      "stateMutability": "nonpayable",
      "type": "function"
    },
    {
      "inputs": [
        {
          "internalType": "address",
          "name": "sender",
          "type": "address"
        },
        {
          "internalType": "address",
          "name": "operator",
          "type": "address"
        },
        {
          "internalType": "bool",
          "name": "approved",
          "type": "bool"
        }
      ],
      "name": "setApprovalForAllFor",
      "outputs": [],
      "stateMutability": "nonpayable",
      "type": "function"
    },
    {
      "inputs": [
        {
          "internalType": "address",
          "name": "metaTransactionProcessor",
          "type": "address"
        },
        {
          "internalType": "bool",
          "name": "enabled",
          "type": "bool"
        }
      ],
      "name": "setMetaTransactionProcessor",
      "outputs": [],
      "stateMutability": "nonpayable",
      "type": "function"
    },
    {
      "inputs": [
        {
          "internalType": "address",
          "name": "minter",
          "type": "address"
        },
        {
          "internalType": "bool",
          "name": "enabled",
          "type": "bool"
        }
      ],
      "name": "setMinter",
      "outputs": [],
      "stateMutability": "nonpayable",
      "type": "function"
    },
    {
      "inputs": [
        {
          "internalType": "address",
          "name": "superOperator",
          "type": "address"
        },
        {
          "internalType": "bool",
          "name": "enabled",
          "type": "bool"
        }
      ],
      "name": "setSuperOperator",
      "outputs": [],
      "stateMutability": "nonpayable",
      "type": "function"
    },
    {
      "inputs": [
        {
          "internalType": "address",
          "name": "from",
          "type": "address"
        },
        {
          "internalType": "address",
          "name": "to",
          "type": "address"
        },
        {
          "internalType": "uint256",
          "name": "id",
          "type": "uint256"
        },
        {
          "internalType": "uint256",
          "name": "value",
          "type": "uint256"
        }
      ],
      "name": "singleTransferFrom",
      "outputs": [],
      "stateMutability": "nonpayable",
      "type": "function"
    },
    {
      "inputs": [
        {
          "internalType": "uint256",
          "name": "id",
          "type": "uint256"
        }
      ],
      "name": "supplyOf",
      "outputs": [
        {
          "internalType": "uint256",
          "name": "supply",
          "type": "uint256"
        }
      ],
      "stateMutability": "view",
      "type": "function"
    }
  ],
  "transactionHash": "0xe071b4c4b32966fba59b9d9ef0863e03bd0357eadd4363f12bad3e81d2a15dd0",
  "args": [
    "0x0DD44c60565b3c1A4a6b97013e722940FD37580E",
    "0xA796AE911621E00809E0E7C8f0AD6BF118E5139e",
    "0xA796AE911621E00809E0E7C8f0AD6BF118E5139e"
  ],
  "numDeployments": 1,
  "solcInputHash": "b42a863a795806b4ea3a8f05dfa42539",
  "bytecode": "0x60806040523480156200001157600080fd5b50604051620028e3380380620028e383398101604081905262000034916200016f565b600080546001600160a01b0319166001600160a01b0384161790558282826200005f83600162000081565b620000758160016001600160e01b036200011716565b5050505050506200023b565b6001600160a01b038216620000b35760405162461bcd60e51b8152600401620000aa90620001dd565b60405180910390fd5b6001600160a01b03821660009081526002602052604090819020805460ff1916831515179055517fb21eb88b4e33b3f1281830a7178d74d8aa73220416215726b68ae23d539515cb906200010b9084908490620001c2565b60405180910390a15050565b6001600160a01b03821660009081526007602052604090819020805460ff1916831515179055517fff452b3b9159b024a9098f0058c63eccd90d36b3584608202800d662f962bb60906200010b9084908490620001c2565b60008060006060848603121562000184578283fd5b8351620001918162000222565b6020850151909350620001a48162000222565b6040850151909250620001b78162000222565b809150509250925092565b6001600160a01b039290921682521515602082015260400190565b60208082526025908201527f4d6574615472616e73616374696f6e52656365697665723a207a65726f206164604082015264647265737360d81b606082015260800190565b6001600160a01b03811681146200023857600080fd5b50565b612698806200024b6000396000f3fe608060405234801561001057600080fd5b50600436106101975760003560e01c80638f283970116100e3578063b390c0ab1161008c578063e985e9c511610066578063e985e9c51461035f578063eaa5125114610372578063eeb5a5d11461038557610197565b8063b390c0ab14610326578063cf456ae714610339578063dc5074af1461034c57610197565b8063aa271e1a116100bd578063aa271e1a146102ed578063ab1c2cf314610300578063ac9fe4211461031357610197565b80638f283970146102b4578063a22cb465146102c7578063a531e0fa146102da57610197565b80634e1273f411610145578063805349341161011f578063805349341461027b5780638806792f1461028e5780638a04af6a146102a157610197565b80634e1273f414610233578063654b748a146102535780636e9960c31461026657610197565b8063124d91e511610176578063124d91e5146101fa578063156e29f61461020d57806317fad7fc1461022057610197565b8062fdd58e1461019c5780630ca83480146101c55780630d70e29c146101da575b600080fd5b6101af6101aa366004611f7f565b610398565b6040516101bc9190612641565b60405180910390f35b6101d86101d3366004611ece565b6103e8565b005b6101ed6101e8366004611d71565b6104b4565b6040516101bc9190612189565b6101d8610208366004611faa565b61052a565b6101d861021b366004611faa565b6105c4565b6101d861022e366004611da9565b6106ff565b610246610241366004611fde565b610845565b6040516101bc9190612145565b6101ed610261366004611d39565b610919565b61026e610937565b6040516101bc91906120d8565b6101d8610289366004611ece565b610946565b6101af61029c366004612087565b610a64565b6101d86102af366004611f4e565b610a9e565b6101d86102c2366004611d39565b610ad6565b6101d86102d5366004611f4e565b610baf565b6101d86102e8366004611e89565b610bba565b6101ed6102fb366004611d39565b610d9e565b6101d861030e366004612047565b610dbc565b6101d8610321366004611f4e565b610e23565b6101d86103343660046120b7565b610eaf565b6101d8610347366004611f4e565b610eba565b6101ed61035a366004611d39565b610eee565b6101ed61036d366004611d71565b610f0c565b6101ed610380366004611d39565b610f5e565b6101d8610393366004611e3b565b610fa3565b60008060006103a68461100a565b6001600160a01b038716600090815260046020908152604080832085845290915290205491935091506103df908263ffffffff61101b16565b95945050505050565b3360009081526007602052604090205460ff166104205760405162461bcd60e51b81526004016104179061260a565b60405180910390fd5b82811461043f5760405162461bcd60e51b815260040161041790612239565b6104ad858585808060200260200160405190810160405280939291908181526020018383602002808284376000920191909152505060408051602080890282810182019093528882529093508892508791829185019084908082843760009201919091525061103592505050565b5050505050565b6001600160a01b03811660009081526002602052604081205460ff16806104f357506001600160a01b03821660009081526001602052604090205460ff165b8061052357506001600160a01b0380841660009081526005602090815260408083209386168352929052205460ff165b9392505050565b6001600160a01b03831633148061055057503360009081526001602052604090205460ff165b8061057e57506001600160a01b038316600090815260056020908152604080832033845290915290205460ff165b8061059857503360009081526002602052604090205460ff165b6105b45760405162461bcd60e51b8152600401610417906125d3565b6105bf83838361129a565b505050565b3360009081526007602052604090205460ff166105f35760405162461bcd60e51b81526004016104179061260a565b6000806105ff8461100a565b6001600160a01b038716600090815260046020908152604080832085845291829052822054939550919350909161063f918490879063ffffffff6113a416565b60008481526020838152604080832093909355600390529081205461066d918490879063ffffffff6113a416565b600084815260036020526040902055600680548690811061068a57fe5b600091825260208220015460405163536a4ee560e11b81526001600160a01b039091169163a6d49dca916106c591908a9089906004016120ec565b600060405180830381600087803b1580156106df57600080fd5b505af11580156106f3573d6000803e3d6000fd5b50505050505050505050565b82811461071e5760405162461bcd60e51b815260040161041790612239565b6001600160a01b0385166107445760405162461bcd60e51b8152600401610417906122a7565b6001600160a01b03861633148061076a57503360009081526001602052604090205460ff165b8061079857506001600160a01b038616600090815260056020908152604080832033845290915290205460ff165b806107b257503360009081526002602052604090205460ff165b6107ce5760405162461bcd60e51b8152600401610417906125d3565b61083d868686868080602002602001604051908101604052809392919081815260200183836020028082843760009201919091525050604080516020808a0282810182019093528982529093508992508891829185019084908082843760009201919091525061147392505050565b505050505050565b60608382146108665760405162461bcd60e51b815260040161041790612239565b8167ffffffffffffffff8111801561087d57600080fd5b506040519080825280602002602001820160405280156108a7578160200160208202803683370190505b50905060005b82811015610910576108f18686838181106108c457fe5b90506020020160208101906108d99190611d39565b8585848181106108e557fe5b90506020020135610398565b8282815181106108fd57fe5b60209081029190910101526001016108ad565b50949350505050565b6001600160a01b031660009081526001602052604090205460ff1690565b6000546001600160a01b031690565b6001600160a01b03851661096c5760405162461bcd60e51b8152600401610417906123e0565b6001600160a01b03851633148061099257503360009081526002602052604090205460ff165b806109ac57503360009081526001602052604090205460ff165b806109da57506001600160a01b038516600090815260056020908152604080832033845290915290205460ff165b6109f65760405162461bcd60e51b8152600401610417906125d3565b6104ad85858580806020026020016040519081016040528093929190818152602001838360200280828437600092019190915250506040805160208089028281018201909352888252909350889250879182918501908490808284376000920191909152506116c092505050565b6000806000610a728461100a565b6000828152600360205260409020549193509150610a96908263ffffffff61101b16565b949350505050565b6000546001600160a01b03163314610ac85760405162461bcd60e51b815260040161041790612372565b610ad28282611906565b5050565b6000546001600160a01b03163314610b005760405162461bcd60e51b815260040161041790612565565b6000546001600160a01b0382811691161415610b2e5760405162461bcd60e51b8152600401610417906121cb565b6000546040517f7e644d79422f17c01e4894b5f4f588d331ebfa28653d42ae832dc59e38c9798f91610b6d916001600160a01b03909116908490612110565b60405180910390a1600080547fffffffffffffffffffffffff0000000000000000000000000000000000000000166001600160a01b0392909216919091179055565b610ad2338383611982565b6001600160a01b038316610be05760405162461bcd60e51b8152600401610417906122a7565b600060068381548110610bef57fe5b6000918252602090912001546001600160a01b0390811691508516331480610c1f5750336001600160a01b038216145b80610c3957503360009081526002602052604090205460ff165b80610c5357503360009081526001602052604090205460ff165b80610c8157506001600160a01b038516600090815260056020908152604080832033845290915290205460ff165b610c9d5760405162461bcd60e51b8152600401610417906125d3565b600080610ca98561100a565b6001600160a01b03808a166000908152600460209081526040808320938c168352808320868452918490529091205493955091935091610cf2908488600163ffffffff6113a416565b6000858152602084815260408083209390935583905290812054610d1f918590899063ffffffff6113a416565b60008581526020839052604090819020919091555163536a4ee560e11b81526001600160a01b0386169063a6d49dca90610d61908c908c908b906004016120ec565b600060405180830381600087803b158015610d7b57600080fd5b505af1158015610d8f573d6000803e3d6000fd5b50505050505050505050505050565b6001600160a01b031660009081526007602052604090205460ff1690565b6000546001600160a01b03163314610de65760405162461bcd60e51b8152600401610417906123a9565b60005b818110156105bf57610e1a838383818110610e0057fe5b9050602002016020810190610e159190611d39565b611a2c565b50600101610de9565b6000546001600160a01b03163314610e4d5760405162461bcd60e51b815260040161041790612474565b6001600160a01b03821660009081526001602052604090819020805460ff1916831515179055517f44f92d27abdf4cfb6a7d712c3af68f3be086d4ca747ab802c36f67d6790060d890610ea3908490849061212a565b60405180910390a15050565b610ad233838361129a565b6000546001600160a01b03163314610ee45760405162461bcd60e51b8152600401610417906123a9565b610ad28282611c06565b6001600160a01b031660009081526002602052604090205460ff1690565b6001600160a01b03808316600090815260056020908152604080832093851683529290529081205460ff16806105235750506001600160a01b031660009081526001602052604090205460ff16919050565b6001600160a01b03811660009081526002602052604081205460ff1680610f9d57506001600160a01b03821660009081526001602052604090205460ff165b92915050565b336001600160a01b0384161480610fc957503360009081526002602052604090205460ff165b80610fe357503360009081526001602052604090205460ff165b610fff5760405162461bcd60e51b8152600401610417906125d3565b6105bf838383611982565b610100602082020491600790911690565b600181016020026101000382901c63ffffffff1692915050565b6001600160a01b038316600090815260046020526040812060001991908190815b865181101561126a5785818151811061106b57fe5b60200260200101516000146112625760008061109989848151811061108c57fe5b602002602001015161100a565b91509150600019871415611122578196506110e1818985815181106110ba57fe5b6020908102919091018101516000868152918890526040822054929163ffffffff6113a416565b955061111b818985815181106110f357fe5b602090810291909101810151600086815260039092526040822054929163ffffffff6113a416565b94506111ba565b86821461115f5760008781526020858152604080832098909855838252878220549882526003905286812095909555818552949093205492949385905b61118a8189858151811061116f57fe5b60200260200101516000896113a4909392919063ffffffff16565b95506111b78189858151811061119c57fe5b60200260200101516000886113a4909392919063ffffffff16565b94505b60068984815181106111c857fe5b6020026020010151815481106111da57fe5b600091825260208220015489516001600160a01b039091169163a6d49dca918d908c908890811061120757fe5b60200260200101516040518463ffffffff1660e01b815260040161122d939291906120ec565b600060405180830381600087803b15801561124757600080fd5b505af115801561125b573d6000803e3d6000fd5b5050505050505b600101611056565b50600019841461129157600084815260208281526040808320869055600390915290208290555b50505050505050565b6000600683815481106112a957fe5b60009182526020822001546001600160a01b03169150806112c98561100a565b6001600160a01b038816600090815260046020908152604080832085845291829052909120549294509092509061130390838760016113a4565b6000848152602083815260408083209390935560039052205461132990838760016113a4565b60008481526003602052604080822092909255905163536a4ee560e11b81526001600160a01b0386169163a6d49dca91611369918b918a906004016120ec565b600060405180830381600087803b15801561138357600080fd5b505af1158015611397573d6000803e3d6000fd5b5050505050505050505050565b600080808360028111156113b457fe5b14156113e7576113c4868661101b565b90506113e086866113db848863ffffffff611c5c16565b611c7f565b9150610910565b60018360028111156113f557fe5b141561143c57611405868661101b565b9050838110156114275760405162461bcd60e51b815260040161041790612508565b6113e086866113db848863ffffffff611cc816565b600283600281111561144a57fe5b141561145b576113e0868686611c7f565b60405162461bcd60e51b81526004016104179061233b565b6001600160a01b0380851660009081526004602052604080822092861682528120600019928291825b875181101561168f578681815181106114b157fe5b6020026020010151600014611687576000806114d28a848151811061108c57fe5b915091506000198814156115505781975061151585600084815260200190815260200160002054828b868151811061150657fe5b602002602001015160016113a4565b965061154984600084815260200190815260200160002054828b868151811061153a57fe5b602002602001015160006113a4565b95506115cc565b87821461158c57600097885260208581526040808a20989098558481528789209690965581885284865286882054958490529590962054939486905b6115b7818a858151811061159c57fe5b602002602001015160018a6113a4909392919063ffffffff16565b96506115c9818a858151811061116f57fe5b95505b600060068b85815181106115dc57fe5b6020026020010151815481106115ee57fe5b9060005260206000200160009054906101000a90046001600160a01b03169050806001600160a01b031663a6d49dca8e8e8d888151811061162b57fe5b60200260200101516040518463ffffffff1660e01b8152600401611651939291906120ec565b600060405180830381600087803b15801561166b57600080fd5b505af115801561167f573d6000803e3d6000fd5b505050505050505b60010161149c565b5060001985146116b5576000858152602083815260408083208790559083905290208390555b505050505050505050565b6001600160a01b0383166000908152600460205260408120819060001990825b86518110156118db578581815181106116f557fe5b60200260200101516000146118d35760008061171689848151811061108c57fe5b915091506000198514156117ab578194506117648189858151811061173757fe5b60200260200101516001876000878152602001908152602001600020546113a4909392919063ffffffff16565b96506117a48189858151811061177657fe5b6020026020010151600160036000878152602001908152602001600020546113a4909392919063ffffffff16565b955061182a565b8482146117ea57600085815260208581526040808320999099558382528882205496825260039052878120969096558186529590942054929492939283905b6117fa8189858151811061159c57fe5b96506118278189858151811061180c57fe5b60200260200101516001896113a4909392919063ffffffff16565b95505b600689848151811061183857fe5b60200260200101518154811061184a57fe5b600091825260208220015489516001600160a01b039091169163a6d49dca918d91908c908890811061187857fe5b60200260200101516040518463ffffffff1660e01b815260040161189e939291906120ec565b600060405180830381600087803b1580156118b857600080fd5b505af11580156118cc573d6000803e3d6000fd5b5050505050505b6001016116e0565b5060001982146112915760009182526020908152604080832094909455600390529190912055505050565b6001600160a01b03821661192c5760405162461bcd60e51b815260040161041790612417565b6001600160a01b03821660009081526002602052604090819020805460ff1916831515179055517fb21eb88b4e33b3f1281830a7178d74d8aa73220416215726b68ae23d539515cb90610ea3908490849061212a565b6001600160a01b03821660009081526001602052604090205460ff16156119bb5760405162461bcd60e51b815260040161041790612270565b6001600160a01b0383811660008181526005602090815260408083209487168084529490915290819020805460ff1916851515179055517f17307eab39ab6107e8899845ad3d59bd9653f200f220920489ca2b5937696c3190611a1f908590612189565b60405180910390a3505050565b60006006805490509050306001600160a01b0316826001600160a01b0316638b7b59d06040518163ffffffff1660e01b815260040160206040518083038186803b158015611a7957600080fd5b505afa158015611a8d573d6000803e3d6000fd5b505050506040513d601f19601f82011682018060405250810190611ab19190611d55565b6001600160a01b031614611ad75760405162461bcd60e51b815260040161041790612202565b80826001600160a01b031663b8f9260b6040518163ffffffff1660e01b815260040160206040518083038186803b158015611b1157600080fd5b505afa158015611b25573d6000803e3d6000fd5b505050506040513d601f19601f82011682018060405250810190611b49919061209f565b14611b665760405162461bcd60e51b8152600401610417906124d1565b600680546001810182556000919091527ff652222313e28459528d920b65115c16c04f3efc82aaedc97be59f3f377c0d3f0180547fffffffffffffffffffffffff0000000000000000000000000000000000000000166001600160a01b0384161790556040517f2f334d8c412c0143e93911652cc34f5fcaae2f287a574eae9736d648f9b4363190611bf99084906120d8565b60405180910390a1919050565b6001600160a01b03821660009081526007602052604090819020805460ff1916831515179055517fff452b3b9159b024a9098f0058c63eccd90d36b3584608202800d662f962bb6090610ea3908490849061212a565b81810182811015610f9d5760405162461bcd60e51b81526004016104179061259c565b60006401000000008210611ca55760405162461bcd60e51b8152600401610417906122de565b5063ffffffff600183016020026101000390811b1984169082901b179392505050565b600082821115611cea5760405162461bcd60e51b815260040161041790612194565b50900390565b60008083601f840112611d01578182fd5b50813567ffffffffffffffff811115611d18578182fd5b6020830191508360208083028501011115611d3257600080fd5b9250929050565b600060208284031215611d4a578081fd5b81356105238161264a565b600060208284031215611d66578081fd5b81516105238161264a565b60008060408385031215611d83578081fd5b8235611d8e8161264a565b91506020830135611d9e8161264a565b809150509250929050565b60008060008060008060808789031215611dc1578182fd5b8635611dcc8161264a565b95506020870135611ddc8161264a565b9450604087013567ffffffffffffffff80821115611df8578384fd5b611e048a838b01611cf0565b90965094506060890135915080821115611e1c578384fd5b50611e2989828a01611cf0565b979a9699509497509295939492505050565b600080600060608486031215611e4f578283fd5b8335611e5a8161264a565b92506020840135611e6a8161264a565b915060408401358015158114611e7e578182fd5b809150509250925092565b60008060008060808587031215611e9e578384fd5b8435611ea98161264a565b93506020850135611eb98161264a565b93969395505050506040820135916060013590565b600080600080600060608688031215611ee5578081fd5b8535611ef08161264a565b9450602086013567ffffffffffffffff80821115611f0c578283fd5b611f1889838a01611cf0565b90965094506040880135915080821115611f30578283fd5b50611f3d88828901611cf0565b969995985093965092949392505050565b60008060408385031215611f60578182fd5b8235611f6b8161264a565b915060208301358015158114611d9e578182fd5b60008060408385031215611f91578182fd5b8235611f9c8161264a565b946020939093013593505050565b600080600060608486031215611fbe578283fd5b8335611fc98161264a565b95602085013595506040909401359392505050565b60008060008060408587031215611ff3578384fd5b843567ffffffffffffffff8082111561200a578586fd5b61201688838901611cf0565b9096509450602087013591508082111561202e578384fd5b5061203b87828801611cf0565b95989497509550505050565b60008060208385031215612059578182fd5b823567ffffffffffffffff81111561206f578283fd5b61207b85828601611cf0565b90969095509350505050565b600060208284031215612098578081fd5b5035919050565b6000602082840312156120b0578081fd5b5051919050565b600080604083850312156120c9578182fd5b50508035926020909101359150565b6001600160a01b0391909116815260200190565b6001600160a01b039384168152919092166020820152604081019190915260600190565b6001600160a01b0392831681529116602082015260400190565b6001600160a01b039290921682521515602082015260400190565b6020808252825182820181905260009190848201906040850190845b8181101561217d57835183529284019291840191600101612161565b50909695505050505050565b901515815260200190565b60208082526009908201527f756e646572666c6f770000000000000000000000000000000000000000000000604082015260600190565b6020808252600d908201527f616c72656164792061646d696e00000000000000000000000000000000000000604082015260600190565b6020808252600d908201527f494e56414c49445f47524f555000000000000000000000000000000000000000604082015260600190565b6020808252601b908201527f494e56414c49445f494e434f4e53495354454e545f4c454e4754480000000000604082015260600190565b60208082526016908201527f494e56414c49445f53555045525f4f50455241544f5200000000000000000000604082015260600190565b60208082526017908201527f494e56414c49445f544f5f5a45524f5f41444452455353000000000000000000604082015260600190565b60208082526023908201527f416d6f756e7420746f20777269746520696e2062696e20697320746f6f206c6160408201527f7267650000000000000000000000000000000000000000000000000000000000606082015260800190565b60208082526011908201527f496e76616c6964206f7065726174696f6e000000000000000000000000000000604082015260600190565b60208082526012908201527f6f6e6c792061646d696e20616c6c6f7765640000000000000000000000000000604082015260600190565b60208082526014908201527f4e4f545f415554484f52495a45445f41444d494e000000000000000000000000604082015260600190565b60208082526019908201527f494e56414c49445f46524f4d5f5a45524f5f4144445245535300000000000000604082015260600190565b60208082526025908201527f4d6574615472616e73616374696f6e52656365697665723a207a65726f20616460408201527f6472657373000000000000000000000000000000000000000000000000000000606082015260800190565b6020808252602c908201527f6f6e6c792061646d696e20697320616c6c6f77656420746f206164642073757060408201527f6572206f70657261746f72730000000000000000000000000000000000000000606082015260800190565b6020808252600a908201527f494e56414c49445f494400000000000000000000000000000000000000000000604082015260600190565b60208082526022908201527f63616e277420737562737472616374206d6f7265207468616e2074686572652060408201527f6973000000000000000000000000000000000000000000000000000000000000606082015260800190565b6020808252601b908201527f6f6e6c792061646d696e2063616e206368616e67652061646d696e0000000000604082015260600190565b60208082526008908201527f6f766572666c6f77000000000000000000000000000000000000000000000000604082015260600190565b6020808252600e908201527f4e4f545f415554484f52495a4544000000000000000000000000000000000000604082015260600190565b60208082526015908201527f4e4f545f415554484f52495a45445f4d494e5445520000000000000000000000604082015260600190565b90815260200190565b6001600160a01b038116811461265f57600080fd5b5056fea264697066735822122023be4ad05816983597cf28186a7a87cb6f729f98eefc504cddd15f4a4b8ccf8064736f6c63430006050033",
  "devdoc": {
    "methods": {
      "balanceOf(address,uint256)": {
        "params": {
          "id": "subToken id.",
          "owner": "whose balance it is of."
        },
        "returns": {
          "balance": "of the owner"
        }
      },
      "balanceOfBatch(address[],uint256[])": {
        "params": {
          "ids": "list of subTokens's addresses.",
          "owners": "list of addresses to which we want to know the balance."
        },
        "returns": {
          "balances": "list of balances for each request."
        }
      },
      "batchMint(address,uint256[],uint256[])": {
        "details": "mint more tokens of a several subToken .",
        "params": {
          "amounts": "for each token minted.",
          "ids": "subToken ids (also the index at which it was added).",
          "to": "address receiving the tokens."
        }
      },
      "batchTransferFrom(address,address,uint256[],uint256[])": {
        "params": {
          "from": "owner to transfer from.",
          "ids": "list of subToken ids to transfer.",
          "to": "destination address that will receive the tokens.",
          "values": "list of amount for eacg subTokens to transfer."
        }
      },
      "burn(uint256,uint256)": {
        "params": {
          "id": "subToken id.",
          "value": "amount of tokens to burn."
        }
      },
      "burnFrom(address,uint256,uint256)": {
        "params": {
          "from": "fron which address the token are burned from.",
          "id": "subToken id.",
          "value": "amount of tokens to burn."
        }
      },
      "changeAdmin(address)": {
        "details": "change the administrator to be `newAdmin`.",
        "params": {
          "newAdmin": "address of the new administrator."
        }
      },
      "getAdmin()": {
        "details": "gives the current administrator of this contract.",
        "returns": {
          "_0": "the current administrator of this contract."
        }
      },
      "isApprovedForAll(address,address)": {
        "params": {
          "operator": "address being given the ability to transfer.",
          "owner": "address who would have granted the rights."
        },
        "returns": {
          "isOperator": "whether the operator has approval rigths or not."
        }
      },
      "isMetaTransactionProcessor(address)": {
        "details": "check whether address `who` is given meta-transaction execution rights.",
        "params": {
          "who": "The address to query."
        },
        "returns": {
          "_0": "whether the address has meta-transaction execution rights."
        }
      },
      "isMinter(address)": {
        "params": {
          "who": "The address to query."
        },
        "returns": {
          "_0": "whether the address has minter rights."
        }
      },
      "isSuperOperator(address)": {
        "params": {
          "who": "The address to query."
        },
        "returns": {
          "_0": "whether the address has superOperator rights."
        }
      },
      "mint(address,uint256,uint256)": {
        "details": "mint more tokens of a specific subToken .",
        "params": {
          "amount": "of token minted.",
          "id": "subToken id (also the index at which it was added).",
          "to": "address receiving the tokens."
        }
      },
      "setApprovalForAll(address,bool)": {
        "params": {
          "approved": "whether the operator is revoked or approved.",
          "operator": "address being granted/revoked ability to transfer."
        }
      },
      "setApprovalForAllFor(address,address,bool)": {
        "params": {
          "approved": "whether the operator is revoked or approved.",
          "operator": "address being granted/revoked ability to transfer.",
          "sender": "address granting/revoking the approval."
        }
      },
      "setMetaTransactionProcessor(address,bool)": {
        "details": "Enable or disable the ability of `metaTransactionProcessor` to perform meta-tx (metaTransactionProcessor rights).",
        "params": {
          "enabled": "set whether the metaTransactionProcessor is enabled or disabled.",
          "metaTransactionProcessor": "address that will be given/removed metaTransactionProcessor rights."
        }
      },
      "setMinter(address,bool)": {
        "params": {
          "enabled": "set whether the minter is enabled or disabled.",
          "minter": "address that will be given/removed minter right."
        }
      },
      "setSuperOperator(address,bool)": {
        "params": {
          "enabled": "set whether the superOperator is enabled or disabled.",
          "superOperator": "address that will be given/removed superOperator right."
        }
      },
      "singleTransferFrom(address,address,uint256,uint256)": {
        "params": {
          "from": "owner to transfer from.",
          "id": "subToken id.",
          "to": "destination address that will receive the tokens.",
          "value": "amount of tokens to transfer."
        }
      },
      "supplyOf(uint256)": {
        "params": {
          "id": "subToken id."
        },
        "returns": {
          "supply": "current total number of tokens."
        }
      }
    }
  },
  "userdoc": {
    "methods": {
      "balanceOf(address,uint256)": {
        "notice": "return the balance of a particular owner for a particular subToken."
      },
      "balanceOfBatch(address[],uint256[])": {
        "notice": "return the balances of a list of owners / subTokens."
      },
      "batchTransferFrom(address,address,uint256[],uint256[])": {
        "notice": "transfer a number of different subTokens from one address to another."
      },
      "burn(uint256,uint256)": {
        "notice": "burn token for a specific subToken."
      },
      "burnFrom(address,uint256,uint256)": {
        "notice": "burn token for a specific owner and subToken."
      },
      "isApprovedForAll(address,address)": {
        "notice": "return whether an oeprator has the ability to transfer on behalf of another address."
      },
      "isMinter(address)": {
        "notice": "check whether address `who` is given minter rights."
      },
      "isSuperOperator(address)": {
        "notice": "check whether address `who` is given superOperator rights."
      },
      "setApprovalForAll(address,bool)": {
        "notice": "grant or revoke the ability for an address to transfer token on your behalf."
      },
      "setApprovalForAllFor(address,address,bool)": {
        "notice": "grant or revoke the ability for an address to transfer token on behalf of another address."
      },
      "setMinter(address,bool)": {
        "notice": "Enable or disable the ability of `minter` to mint tokens"
      },
      "setSuperOperator(address,bool)": {
        "notice": "Enable or disable the ability of `superOperator` to transfer tokens of all (superOperator rights)."
      },
      "singleTransferFrom(address,address,uint256,uint256)": {
        "notice": "transfer a number of subToken from one address to another."
      },
      "supplyOf(uint256)": {
        "notice": "return the current total supply of a specific subToken."
      }
    }
  },
  "storageLayout": {
    "storage": [
      {
        "astId": 14099,
        "contract": "src/solc_0.6/Catalyst/ERC20GroupGem.sol:ERC20GroupGem",
        "label": "_admin",
        "offset": 0,
        "slot": "0",
        "type": "t_address"
      },
      {
        "astId": 14316,
        "contract": "src/solc_0.6/Catalyst/ERC20GroupGem.sol:ERC20GroupGem",
        "label": "_superOperators",
        "offset": 0,
        "slot": "1",
        "type": "t_mapping(t_address,t_bool)"
      },
      {
        "astId": 14168,
        "contract": "src/solc_0.6/Catalyst/ERC20GroupGem.sol:ERC20GroupGem",
        "label": "_metaTransactionContracts",
        "offset": 0,
        "slot": "2",
        "type": "t_mapping(t_address,t_bool)"
      },
      {
        "astId": 2683,
        "contract": "src/solc_0.6/Catalyst/ERC20GroupGem.sol:ERC20GroupGem",
        "label": "_packedSupplies",
        "offset": 0,
        "slot": "3",
        "type": "t_mapping(t_uint256,t_uint256)"
      },
      {
        "astId": 2689,
        "contract": "src/solc_0.6/Catalyst/ERC20GroupGem.sol:ERC20GroupGem",
        "label": "_packedTokenBalance",
        "offset": 0,
        "slot": "4",
        "type": "t_mapping(t_address,t_mapping(t_uint256,t_uint256))"
      },
      {
        "astId": 2695,
        "contract": "src/solc_0.6/Catalyst/ERC20GroupGem.sol:ERC20GroupGem",
        "label": "_operatorsForAll",
        "offset": 0,
        "slot": "5",
        "type": "t_mapping(t_address,t_mapping(t_address,t_bool))"
      },
      {
        "astId": 2698,
        "contract": "src/solc_0.6/Catalyst/ERC20GroupGem.sol:ERC20GroupGem",
        "label": "_erc20s",
        "offset": 0,
        "slot": "6",
        "type": "t_array(t_contract(ERC20SubToken)3120)dyn_storage"
      },
      {
        "astId": 2702,
        "contract": "src/solc_0.6/Catalyst/ERC20GroupGem.sol:ERC20GroupGem",
        "label": "_minters",
        "offset": 0,
        "slot": "7",
        "type": "t_mapping(t_address,t_bool)"
      }
    ],
    "types": {
      "t_address": {
        "encoding": "inplace",
        "label": "address",
        "numberOfBytes": "20"
      },
      "t_array(t_contract(ERC20SubToken)3120)dyn_storage": {
        "base": "t_contract(ERC20SubToken)3120",
        "encoding": "dynamic_array",
        "label": "contract ERC20SubToken[]",
        "numberOfBytes": "32"
      },
      "t_bool": {
        "encoding": "inplace",
        "label": "bool",
        "numberOfBytes": "1"
      },
      "t_contract(ERC20SubToken)3120": {
        "encoding": "inplace",
        "label": "contract ERC20SubToken",
        "numberOfBytes": "20"
      },
      "t_mapping(t_address,t_bool)": {
        "encoding": "mapping",
        "key": "t_address",
        "label": "mapping(address => bool)",
        "numberOfBytes": "32",
        "value": "t_bool"
      },
      "t_mapping(t_address,t_mapping(t_address,t_bool))": {
        "encoding": "mapping",
        "key": "t_address",
        "label": "mapping(address => mapping(address => bool))",
        "numberOfBytes": "32",
        "value": "t_mapping(t_address,t_bool)"
      },
      "t_mapping(t_address,t_mapping(t_uint256,t_uint256))": {
        "encoding": "mapping",
        "key": "t_address",
        "label": "mapping(address => mapping(uint256 => uint256))",
        "numberOfBytes": "32",
        "value": "t_mapping(t_uint256,t_uint256)"
      },
      "t_mapping(t_uint256,t_uint256)": {
        "encoding": "mapping",
        "key": "t_uint256",
        "label": "mapping(uint256 => uint256)",
        "numberOfBytes": "32",
        "value": "t_uint256"
      },
      "t_uint256": {
        "encoding": "inplace",
        "label": "uint256",
        "numberOfBytes": "32"
      }
    }
  }
}