{
  "@sandbox-smart-contracts/core/src/solc_0.8/defi/rewardCalculation/TwoPeriodsRewardCalculatorV2.sol": {
    "TwoPeriodsRewardCalculatorV2": {
      "abi": [
        {
          "inputs": [
            {
              "internalType": "address",
              "name": "rewardPool_",
              "type": "address"
            }
          ],
          "stateMutability": "nonpayable",
          "type": "constructor"
        },
        {
          "anonymous": false,
          "inputs": [
            {
              "indexed": false,
              "internalType": "uint256",
              "name": "reward",
              "type": "uint256"
            },
            {
              "indexed": false,
              "internalType": "uint256",
              "name": "duration",
              "type": "uint256"
            },
            {
              "indexed": false,
              "internalType": "uint256",
              "name": "finish1",
              "type": "uint256"
            },
            {
              "indexed": false,
              "internalType": "uint256",
              "name": "rate1",
              "type": "uint256"
            },
            {
              "indexed": false,
              "internalType": "uint256",
              "name": "finish2",
              "type": "uint256"
            },
            {
              "indexed": false,
              "internalType": "uint256",
              "name": "rate2",
              "type": "uint256"
            }
          ],
          "name": "InitialCampaign",
          "type": "event"
        },
        {
          "anonymous": false,
          "inputs": [
            {
              "indexed": false,
              "internalType": "uint256",
              "name": "reward",
              "type": "uint256"
            },
            {
              "indexed": false,
              "internalType": "uint256",
              "name": "duration",
              "type": "uint256"
            },
            {
              "indexed": false,
              "internalType": "uint256",
              "name": "finish1",
              "type": "uint256"
            },
            {
              "indexed": false,
              "internalType": "uint256",
              "name": "rate1",
              "type": "uint256"
            },
            {
              "indexed": false,
              "internalType": "uint256",
              "name": "finish2",
              "type": "uint256"
            },
            {
              "indexed": false,
              "internalType": "uint256",
              "name": "rate2",
              "type": "uint256"
            }
          ],
          "name": "NextCampaign",
          "type": "event"
        },
        {
          "anonymous": false,
          "inputs": [
            {
              "indexed": true,
              "internalType": "bytes32",
              "name": "role",
              "type": "bytes32"
            },
            {
              "indexed": true,
              "internalType": "bytes32",
              "name": "previousAdminRole",
              "type": "bytes32"
            },
            {
              "indexed": true,
              "internalType": "bytes32",
              "name": "newAdminRole",
              "type": "bytes32"
            }
          ],
          "name": "RoleAdminChanged",
          "type": "event"
        },
        {
          "anonymous": false,
          "inputs": [
            {
              "indexed": true,
              "internalType": "bytes32",
              "name": "role",
              "type": "bytes32"
            },
            {
              "indexed": true,
              "internalType": "address",
              "name": "account",
              "type": "address"
            },
            {
              "indexed": true,
              "internalType": "address",
              "name": "sender",
              "type": "address"
            }
          ],
          "name": "RoleGranted",
          "type": "event"
        },
        {
          "anonymous": false,
          "inputs": [
            {
              "indexed": true,
              "internalType": "bytes32",
              "name": "role",
              "type": "bytes32"
            },
            {
              "indexed": true,
              "internalType": "address",
              "name": "account",
              "type": "address"
            },
            {
              "indexed": true,
              "internalType": "address",
              "name": "sender",
              "type": "address"
            }
          ],
          "name": "RoleRevoked",
          "type": "event"
        },
        {
          "anonymous": false,
          "inputs": [
            {
              "indexed": true,
              "internalType": "uint256",
              "name": "reward",
              "type": "uint256"
            }
          ],
          "name": "SavedRewardsSet",
          "type": "event"
        },
        {
          "anonymous": false,
          "inputs": [
            {
              "indexed": false,
              "internalType": "uint256",
              "name": "reward",
              "type": "uint256"
            },
            {
              "indexed": false,
              "internalType": "uint256",
              "name": "duration",
              "type": "uint256"
            },
            {
              "indexed": false,
              "internalType": "uint256",
              "name": "finish1",
              "type": "uint256"
            },
            {
              "indexed": false,
              "internalType": "uint256",
              "name": "rate1",
              "type": "uint256"
            },
            {
              "indexed": false,
              "internalType": "uint256",
              "name": "finish2",
              "type": "uint256"
            },
            {
              "indexed": false,
              "internalType": "uint256",
              "name": "rate2",
              "type": "uint256"
            }
          ],
          "name": "UpdateCampaign",
          "type": "event"
        },
        {
          "inputs": [],
          "name": "DEFAULT_ADMIN_ROLE",
          "outputs": [
            {
              "internalType": "bytes32",
              "name": "",
              "type": "bytes32"
            }
          ],
          "stateMutability": "view",
          "type": "function"
        },
        {
          "inputs": [],
          "name": "REWARD_DISTRIBUTION",
          "outputs": [
            {
              "internalType": "bytes32",
              "name": "",
              "type": "bytes32"
            }
          ],
          "stateMutability": "view",
          "type": "function"
        },
        {
          "inputs": [],
          "name": "finish1",
          "outputs": [
            {
              "internalType": "uint256",
              "name": "",
              "type": "uint256"
            }
          ],
          "stateMutability": "view",
          "type": "function"
        },
        {
          "inputs": [],
          "name": "finish2",
          "outputs": [
            {
              "internalType": "uint256",
              "name": "",
              "type": "uint256"
            }
          ],
          "stateMutability": "view",
          "type": "function"
        },
        {
          "inputs": [],
          "name": "getFinish",
          "outputs": [
            {
              "internalType": "uint256",
              "name": "",
              "type": "uint256"
            }
          ],
          "stateMutability": "view",
          "type": "function"
        },
        {
          "inputs": [],
          "name": "getRate",
          "outputs": [
            {
              "internalType": "uint256",
              "name": "",
              "type": "uint256"
            }
          ],
          "stateMutability": "view",
          "type": "function"
        },
        {
          "inputs": [],
          "name": "getRewards",
          "outputs": [
            {
              "internalType": "uint256",
              "name": "",
              "type": "uint256"
            }
          ],
          "stateMutability": "view",
          "type": "function"
        },
        {
          "inputs": [
            {
              "internalType": "bytes32",
              "name": "role",
              "type": "bytes32"
            }
          ],
          "name": "getRoleAdmin",
          "outputs": [
            {
              "internalType": "bytes32",
              "name": "",
              "type": "bytes32"
            }
          ],
          "stateMutability": "view",
          "type": "function"
        },
        {
          "inputs": [
            {
              "internalType": "bytes32",
              "name": "role",
              "type": "bytes32"
            },
            {
              "internalType": "address",
              "name": "account",
              "type": "address"
            }
          ],
          "name": "grantRole",
          "outputs": [],
          "stateMutability": "nonpayable",
          "type": "function"
        },
        {
          "inputs": [
            {
              "internalType": "bytes32",
              "name": "role",
              "type": "bytes32"
            },
            {
              "internalType": "address",
              "name": "account",
              "type": "address"
            }
          ],
          "name": "hasRole",
          "outputs": [
            {
              "internalType": "bool",
              "name": "",
              "type": "bool"
            }
          ],
          "stateMutability": "view",
          "type": "function"
        },
        {
          "inputs": [],
          "name": "isCampaignFinished",
          "outputs": [
            {
              "internalType": "bool",
              "name": "",
              "type": "bool"
            }
          ],
          "stateMutability": "view",
          "type": "function"
        },
        {
          "inputs": [],
          "name": "isCampaignRunning",
          "outputs": [
            {
              "internalType": "bool",
              "name": "",
              "type": "bool"
            }
          ],
          "stateMutability": "view",
          "type": "function"
        },
        {
          "inputs": [],
          "name": "lastUpdateTime",
          "outputs": [
            {
              "internalType": "uint256",
              "name": "",
              "type": "uint256"
            }
          ],
          "stateMutability": "view",
          "type": "function"
        },
        {
          "inputs": [],
          "name": "rate1",
          "outputs": [
            {
              "internalType": "uint256",
              "name": "",
              "type": "uint256"
            }
          ],
          "stateMutability": "view",
          "type": "function"
        },
        {
          "inputs": [],
          "name": "rate2",
          "outputs": [
            {
              "internalType": "uint256",
              "name": "",
              "type": "uint256"
            }
          ],
          "stateMutability": "view",
          "type": "function"
        },
        {
          "inputs": [
            {
              "internalType": "bytes32",
              "name": "role",
              "type": "bytes32"
            },
            {
              "internalType": "address",
              "name": "account",
              "type": "address"
            }
          ],
          "name": "renounceRole",
          "outputs": [],
          "stateMutability": "nonpayable",
          "type": "function"
        },
        {
          "inputs": [],
          "name": "restartRewards",
          "outputs": [],
          "stateMutability": "nonpayable",
          "type": "function"
        },
        {
          "inputs": [
            {
              "internalType": "bytes32",
              "name": "role",
              "type": "bytes32"
            },
            {
              "internalType": "address",
              "name": "account",
              "type": "address"
            }
          ],
          "name": "revokeRole",
          "outputs": [],
          "stateMutability": "nonpayable",
          "type": "function"
        },
        {
          "inputs": [],
          "name": "rewardPool",
          "outputs": [
            {
              "internalType": "address",
              "name": "",
              "type": "address"
            }
          ],
          "stateMutability": "view",
          "type": "function"
        },
        {
          "inputs": [
            {
              "internalType": "uint256",
              "name": "reward",
              "type": "uint256"
            },
            {
              "internalType": "uint256",
              "name": "duration",
              "type": "uint256"
            }
          ],
          "name": "runCampaign",
          "outputs": [],
          "stateMutability": "nonpayable",
          "type": "function"
        },
        {
          "inputs": [],
          "name": "savedRewards",
          "outputs": [
            {
              "internalType": "uint256",
              "name": "",
              "type": "uint256"
            }
          ],
          "stateMutability": "view",
          "type": "function"
        },
        {
          "inputs": [
            {
              "internalType": "uint256",
              "name": "reward",
              "type": "uint256"
            },
            {
              "internalType": "uint256",
              "name": "duration",
              "type": "uint256"
            }
          ],
          "name": "setInitialCampaign",
          "outputs": [],
          "stateMutability": "nonpayable",
          "type": "function"
        },
        {
          "inputs": [
            {
              "internalType": "uint256",
              "name": "reward",
              "type": "uint256"
            }
          ],
          "name": "setSavedRewards",
          "outputs": [],
          "stateMutability": "nonpayable",
          "type": "function"
        },
        {
          "inputs": [
            {
              "internalType": "bytes4",
              "name": "interfaceId",
              "type": "bytes4"
            }
          ],
          "name": "supportsInterface",
          "outputs": [
            {
              "internalType": "bool",
              "name": "",
              "type": "bool"
            }
          ],
          "stateMutability": "view",
          "type": "function"
        },
        {
          "inputs": [
            {
              "internalType": "uint256",
              "name": "reward",
              "type": "uint256"
            },
            {
              "internalType": "uint256",
              "name": "duration",
              "type": "uint256"
            }
          ],
          "name": "updateCurrentCampaign",
          "outputs": [],
          "stateMutability": "nonpayable",
          "type": "function"
        },
        {
          "inputs": [
            {
              "internalType": "uint256",
              "name": "reward",
              "type": "uint256"
            },
            {
              "internalType": "uint256",
              "name": "duration",
              "type": "uint256"
            }
          ],
          "name": "updateNextCampaign",
          "outputs": [],
          "stateMutability": "nonpayable",
          "type": "function"
        }
      ],
      "devdoc": {
        "kind": "dev",
        "methods": {
          "getRoleAdmin(bytes32)": {
            "details": "Returns the admin role that controls `role`. See {grantRole} and {revokeRole}. To change a role's admin, use {_setRoleAdmin}."
          },
          "grantRole(bytes32,address)": {
            "details": "Grants `role` to `account`. If `account` had not been already granted `role`, emits a {RoleGranted} event. Requirements: - the caller must have ``role``'s admin role."
          },
          "hasRole(bytes32,address)": {
            "details": "Returns `true` if `account` has been granted `role`."
          },
          "renounceRole(bytes32,address)": {
            "details": "Revokes `role` from the calling account. Roles are often managed via {grantRole} and {revokeRole}: this function's purpose is to provide a mechanism for accounts to lose their privileges if they are compromised (such as when a trusted device is misplaced). If the calling account had been revoked `role`, emits a {RoleRevoked} event. Requirements: - the caller must be `account`."
          },
          "revokeRole(bytes32,address)": {
            "details": "Revokes `role` from `account`. If `account` had been granted `role`, emits a {RoleRevoked} event. Requirements: - the caller must have ``role``'s admin role."
          },
          "supportsInterface(bytes4)": {
            "details": "See {IERC165-supportsInterface}."
          }
        },
        "version": 1
      },
      "evm": {
        "bytecode": {
          "linkReferences": {},
          "object": "60a060405234801561001057600080fd5b50604051620015073803806200150783398101604081905261003191610100565b606081901b6001600160601b03191660805261004e600033610054565b5061012e565b61005e8282610062565b5050565b6000828152602081815260408083206001600160a01b038516845290915290205460ff1661005e576000828152602081815260408083206001600160a01b03851684529091529020805460ff191660011790556100bc3390565b6001600160a01b0316816001600160a01b0316837f2f8788117e7eff1d82e926ec794901d17c78024a50270940304540a733656f0d60405160405180910390a45050565b600060208284031215610111578081fd5b81516001600160a01b0381168114610127578182fd5b9392505050565b60805160601c6113b3620001546000396000818161029601526106ff01526113b36000f3fe608060405234801561001057600080fd5b50600436106101ae5760003560e01c80637da73d18116100ee578063cf85496911610097578063db63233d11610071578063db63233d14610388578063e9fcdd101461039b578063f555b815146103a4578063fbfe5bd3146103ad576101ae565b8063cf85496914610359578063d4bd8fed14610362578063d547741f14610375576101ae565b8063b0165840116100c8578063b016584014610335578063b073f3421461033d578063c8f33c9114610350576101ae565b80637da73d18146102e357806391d14854146102f6578063a217fddf1461032d576101ae565b8063360f60b11161015b5780634df98bfc116101355780634df98bfc1461026a57806366666aa914610291578063679aefce146102d057806376eb43e9146102d8576101ae565b8063360f60b11461024557806336568abe1461024f5780633ec8ec5a14610262576101ae565b80632ddc40f71161018c5780632ddc40f7146102145780632ede53a3146102295780632f2ff15d14610232576101ae565b806301ffc9a7146101b35780630572b0cc146101db578063248a9ca3146101f1575b600080fd5b6101c66101c136600461119d565b6103b6565b60405190151581526020015b60405180910390f35b6101e361044f565b6040519081526020016101d2565b6101e36101ff36600461114b565b60009081526020819052604090206001015490565b6102276102223660046111dd565b61046c565b005b6101e360035481565b610227610240366004611163565b61050d565b60055442106101c6565b61022761025d366004611163565b610539565b6101e36105c1565b6101e37f4a46aaaa31bd6eb7c4586d8b31ef0034f45e1cd695217392f1dd55078385ce0b81565b6102b87f000000000000000000000000000000000000000000000000000000000000000081565b6040516001600160a01b0390911681526020016101d2565b6101e36105f7565b6005544210156101c6565b6102276102f13660046111dd565b61062d565b6101c6610304366004611163565b6000918252602082815260408084206001600160a01b0393909316845291905290205460ff1690565b6101e3600081565b6102276106f4565b61022761034b36600461114b565b610777565b6101e360015481565b6101e360045481565b6102276103703660046111dd565b610824565b610227610383366004611163565b6108f6565b6102276103963660046111dd565b61091c565b6101e360025481565b6101e360065481565b6101e360055481565b60007fffffffff0000000000000000000000000000000000000000000000000000000082167f7965db0b00000000000000000000000000000000000000000000000000000000148061044957507f01ffc9a7000000000000000000000000000000000000000000000000000000007fffffffff000000000000000000000000000000000000000000000000000000008316145b92915050565b60006104596109ed565b60025461046691906112b2565b90505b90565b6104967f4a46aaaa31bd6eb7c4586d8b31ef0034f45e1cd695217392f1dd55078385ce0b33610304565b6104e75760405162461bcd60e51b815260206004820152601760248201527f6e6f742072657761726420646973747269627574696f6e00000000000000000060448201526064015b60405180910390fd5b60055442106104ff576104fa8282610adf565b610509565b6105098282610b76565b5050565b60008281526020819052604090206001015461052a81335b610c11565b6105348383610c8f565b505050565b6001600160a01b03811633146105b75760405162461bcd60e51b815260206004820152602f60248201527f416363657373436f6e74726f6c3a2063616e206f6e6c792072656e6f756e636560448201527f20726f6c657320666f722073656c66000000000000000000000000000000000060648201526084016104de565b6105098282610d2d565b60006105cf60055442101590565b156105dc57506000610469565b60035442106105ee5750600554610469565b50600354610469565b600061060560055442101590565b1561061257506000610469565b60035442106106245750600654610469565b50600454610469565b6106577f4a46aaaa31bd6eb7c4586d8b31ef0034f45e1cd695217392f1dd55078385ce0b33610304565b6106a35760405162461bcd60e51b815260206004820152601760248201527f6e6f742072657761726420646973747269627574696f6e00000000000000000060448201526064016104de565b60055442106104ff5760405162461bcd60e51b815260206004820152601c60248201527f696e697469616c2063616d706169676e206e6f742072756e6e696e670000000060448201526064016104de565b336001600160a01b037f0000000000000000000000000000000000000000000000000000000000000000161461076c5760405162461bcd60e51b815260206004820152600f60248201527f6e6f742072657761726420706f6f6c000000000000000000000000000000000060448201526064016104de565b426001556000600255565b6107a17f4a46aaaa31bd6eb7c4586d8b31ef0034f45e1cd695217392f1dd55078385ce0b33610304565b6107ed5760405162461bcd60e51b815260206004820152601760248201527f6e6f742072657761726420646973747269627574696f6e00000000000000000060448201526064016104de565b60028190554260015560405181907ff91e227e0af8c84666c293a63113658d1e1d54a869daab59bc728233d73ea83f90600090a250565b61084e7f4a46aaaa31bd6eb7c4586d8b31ef0034f45e1cd695217392f1dd55078385ce0b33610304565b61089a5760405162461bcd60e51b815260206004820152601760248201527f6e6f742072657761726420646973747269627574696f6e00000000000000000060448201526064016104de565b6005544210156108ec5760405162461bcd60e51b815260206004820152601860248201527f696e697469616c2063616d706169676e2072756e6e696e67000000000000000060448201526064016104de565b6105098282610adf565b6000828152602081905260409020600101546109128133610525565b6105348383610d2d565b6109467f4a46aaaa31bd6eb7c4586d8b31ef0034f45e1cd695217392f1dd55078385ce0b33610304565b6109925760405162461bcd60e51b815260206004820152601760248201527f6e6f742072657761726420646973747269627574696f6e00000000000000000060448201526064016104de565b60055442106109e35760405162461bcd60e51b815260206004820152601c60248201527f696e697469616c2063616d706169676e206e6f742072756e6e696e670000000060448201526064016104de565b6105098282610dac565b6000426001541115610a0f57634e487b7160e01b600052600160045260246000fd5b6005546003541115610a3157634e487b7160e01b600052600160045260246000fd5b60055460015410610a4457506000610469565b6003544211610a6e57600454600154610a5d9042611309565b610a6791906112ea565b9050610469565b6000600654610a81600154600354610e96565b610a8d42600554610eaf565b610a979190611309565b610aa191906112ea565b905060035460015410156104665780600454600154600354610ac39190611309565b610acd91906112ea565b610ad791906112b2565b915050610469565b610ae7610ebe565b610af181426112b2565b600355610afe81836112ca565b600455610b0b81426112b2565b6005819055600060068190556003546004546040805187815260208101879052908101929092526060820152608081019290925260a08201527f6613481053266930293e519022ee89096bd8adba04d23586c5e64e20d640ec519060c0015b60405180910390a15050565b610b7e610ebe565b6003544210610b94576005546003556006546004555b80600354610ba291906112b2565b600555610baf81836112ca565b60068190556003546004546005546040805187815260208101879052908101939093526060830191909152608082015260a08101919091527f62fe920d1258e46a0c0ad6ae0720652679e9991ca4205c12358d7c4f1d9a73d09060c001610b6a565b6000828152602081815260408083206001600160a01b038516845290915290205460ff1661050957610c4d816001600160a01b03166014610edc565b610c58836020610edc565b604051602001610c699291906111fe565b60408051601f198184030181529082905262461bcd60e51b82526104de9160040161127f565b6000828152602081815260408083206001600160a01b038516845290915290205460ff16610509576000828152602081815260408083206001600160a01b03851684529091529020805460ff19166001179055610ce93390565b6001600160a01b0316816001600160a01b0316837f2f8788117e7eff1d82e926ec794901d17c78024a50270940304540a733656f0d60405160405180910390a45050565b6000828152602081815260408083206001600160a01b038516845290915290205460ff1615610509576000828152602081815260408083206001600160a01b0385168085529252808320805460ff1916905551339285917ff6391f5c32d9c69d2a47ea670b442974b53935d1edc7fd64eb21e047a839171b9190a45050565b610db4610ebe565b6003544210610dcf5760055460035560068054600455600090555b6005546003541115610df157634e487b7160e01b600052600160045260246000fd5b6000600354600554610e039190611309565b9050610e0f82426112b2565b6003819055610e1f9082906112b2565b600555610e2c82846112ca565b60048190556003546005546006546040805188815260208101889052908101939093526060830193909352608082015260a08101919091527f19902fdc8a70bd6ba84e7161fb544495b8d6e4524914e2df32b024acc5e67fe89060c00160405180910390a1505050565b600081831015610ea65781610ea8565b825b9392505050565b6000818310610ea65781610ea8565b610ec66109ed565b600254610ed391906112b2565b60025542600155565b60606000610eeb8360026112ea565b610ef69060026112b2565b67ffffffffffffffff811115610f1c57634e487b7160e01b600052604160045260246000fd5b6040519080825280601f01601f191660200182016040528015610f46576020820181803683370190505b5090507f300000000000000000000000000000000000000000000000000000000000000081600081518110610f8b57634e487b7160e01b600052603260045260246000fd5b60200101907effffffffffffffffffffffffffffffffffffffffffffffffffffffffffffff1916908160001a9053507f780000000000000000000000000000000000000000000000000000000000000081600181518110610ffc57634e487b7160e01b600052603260045260246000fd5b60200101907effffffffffffffffffffffffffffffffffffffffffffffffffffffffffffff1916908160001a90535060006110388460026112ea565b6110439060016112b2565b90505b60018111156110fc577f303132333435363738396162636465660000000000000000000000000000000085600f166010811061109257634e487b7160e01b600052603260045260246000fd5b1a60f81b8282815181106110b657634e487b7160e01b600052603260045260246000fd5b60200101907effffffffffffffffffffffffffffffffffffffffffffffffffffffffffffff1916908160001a90535060049490941c936110f581611350565b9050611046565b508315610ea85760405162461bcd60e51b815260206004820181905260248201527f537472696e67733a20686578206c656e67746820696e73756666696369656e7460448201526064016104de565b60006020828403121561115c578081fd5b5035919050565b60008060408385031215611175578081fd5b8235915060208301356001600160a01b0381168114611192578182fd5b809150509250929050565b6000602082840312156111ae578081fd5b81357fffffffff0000000000000000000000000000000000000000000000000000000081168114610ea8578182fd5b600080604083850312156111ef578182fd5b50508035926020909101359150565b60007f416363657373436f6e74726f6c3a206163636f756e742000000000000000000082528351611236816017850160208801611320565b7f206973206d697373696e6720726f6c65200000000000000000000000000000006017918401918201528351611273816028840160208801611320565b01602801949350505050565b600060208252825180602084015261129e816040850160208701611320565b601f01601f19169190910160400192915050565b600082198211156112c5576112c5611367565b500190565b6000826112e557634e487b7160e01b81526012600452602481fd5b500490565b600081600019048311821515161561130457611304611367565b500290565b60008282101561131b5761131b611367565b500390565b60005b8381101561133b578181015183820152602001611323565b8381111561134a576000848401525b50505050565b60008161135f5761135f611367565b506000190190565b634e487b7160e01b600052601160045260246000fdfea2646970667358221220e4b17f1fc8ff937622487a96f00858e5366f14f3a92d2373efa284df0a721fdd64736f6c63430008020033",
          "opcodes": "PUSH1 0xA0 PUSH1 0x40 MSTORE CALLVALUE DUP1 ISZERO PUSH2 0x10 JUMPI PUSH1 0x0 DUP1 REVERT JUMPDEST POP PUSH1 0x40 MLOAD PUSH3 0x1507 CODESIZE SUB DUP1 PUSH3 0x1507 DUP4 CODECOPY DUP2 ADD PUSH1 0x40 DUP2 SWAP1 MSTORE PUSH2 0x31 SWAP2 PUSH2 0x100 JUMP JUMPDEST PUSH1 0x60 DUP2 SWAP1 SHL PUSH1 0x1 PUSH1 0x1 PUSH1 0x60 SHL SUB NOT AND PUSH1 0x80 MSTORE PUSH2 0x4E PUSH1 0x0 CALLER PUSH2 0x54 JUMP JUMPDEST POP PUSH2 0x12E JUMP JUMPDEST PUSH2 0x5E DUP3 DUP3 PUSH2 0x62 JUMP JUMPDEST POP POP JUMP JUMPDEST PUSH1 0x0 DUP3 DUP2 MSTORE PUSH1 0x20 DUP2 DUP2 MSTORE PUSH1 0x40 DUP1 DUP4 KECCAK256 PUSH1 0x1 PUSH1 0x1 PUSH1 0xA0 SHL SUB DUP6 AND DUP5 MSTORE SWAP1 SWAP2 MSTORE SWAP1 KECCAK256 SLOAD PUSH1 0xFF AND PUSH2 0x5E JUMPI PUSH1 0x0 DUP3 DUP2 MSTORE PUSH1 0x20 DUP2 DUP2 MSTORE PUSH1 0x40 DUP1 DUP4 KECCAK256 PUSH1 0x1 PUSH1 0x1 PUSH1 0xA0 SHL SUB DUP6 AND DUP5 MSTORE SWAP1 SWAP2 MSTORE SWAP1 KECCAK256 DUP1 SLOAD PUSH1 0xFF NOT AND PUSH1 0x1 OR SWAP1 SSTORE PUSH2 0xBC CALLER SWAP1 JUMP JUMPDEST PUSH1 0x1 PUSH1 0x1 PUSH1 0xA0 SHL SUB AND DUP2 PUSH1 0x1 PUSH1 0x1 PUSH1 0xA0 SHL SUB AND DUP4 PUSH32 0x2F8788117E7EFF1D82E926EC794901D17C78024A50270940304540A733656F0D PUSH1 0x40 MLOAD PUSH1 0x40 MLOAD DUP1 SWAP2 SUB SWAP1 LOG4 POP POP JUMP JUMPDEST PUSH1 0x0 PUSH1 0x20 DUP3 DUP5 SUB SLT ISZERO PUSH2 0x111 JUMPI DUP1 DUP2 REVERT JUMPDEST DUP2 MLOAD PUSH1 0x1 PUSH1 0x1 PUSH1 0xA0 SHL SUB DUP2 AND DUP2 EQ PUSH2 0x127 JUMPI DUP2 DUP3 REVERT JUMPDEST SWAP4 SWAP3 POP POP POP JUMP JUMPDEST PUSH1 0x80 MLOAD PUSH1 0x60 SHR PUSH2 0x13B3 PUSH3 0x154 PUSH1 0x0 CODECOPY PUSH1 0x0 DUP2 DUP2 PUSH2 0x296 ADD MSTORE PUSH2 0x6FF ADD MSTORE PUSH2 0x13B3 PUSH1 0x0 RETURN INVALID PUSH1 0x80 PUSH1 0x40 MSTORE CALLVALUE DUP1 ISZERO PUSH2 0x10 JUMPI PUSH1 0x0 DUP1 REVERT JUMPDEST POP PUSH1 0x4 CALLDATASIZE LT PUSH2 0x1AE JUMPI PUSH1 0x0 CALLDATALOAD PUSH1 0xE0 SHR DUP1 PUSH4 0x7DA73D18 GT PUSH2 0xEE JUMPI DUP1 PUSH4 0xCF854969 GT PUSH2 0x97 JUMPI DUP1 PUSH4 0xDB63233D GT PUSH2 0x71 JUMPI DUP1 PUSH4 0xDB63233D EQ PUSH2 0x388 JUMPI DUP1 PUSH4 0xE9FCDD10 EQ PUSH2 0x39B JUMPI DUP1 PUSH4 0xF555B815 EQ PUSH2 0x3A4 JUMPI DUP1 PUSH4 0xFBFE5BD3 EQ PUSH2 0x3AD JUMPI PUSH2 0x1AE JUMP JUMPDEST DUP1 PUSH4 0xCF854969 EQ PUSH2 0x359 JUMPI DUP1 PUSH4 0xD4BD8FED EQ PUSH2 0x362 JUMPI DUP1 PUSH4 0xD547741F EQ PUSH2 0x375 JUMPI PUSH2 0x1AE JUMP JUMPDEST DUP1 PUSH4 0xB0165840 GT PUSH2 0xC8 JUMPI DUP1 PUSH4 0xB0165840 EQ PUSH2 0x335 JUMPI DUP1 PUSH4 0xB073F342 EQ PUSH2 0x33D JUMPI DUP1 PUSH4 0xC8F33C91 EQ PUSH2 0x350 JUMPI PUSH2 0x1AE JUMP JUMPDEST DUP1 PUSH4 0x7DA73D18 EQ PUSH2 0x2E3 JUMPI DUP1 PUSH4 0x91D14854 EQ PUSH2 0x2F6 JUMPI DUP1 PUSH4 0xA217FDDF EQ PUSH2 0x32D JUMPI PUSH2 0x1AE JUMP JUMPDEST DUP1 PUSH4 0x360F60B1 GT PUSH2 0x15B JUMPI DUP1 PUSH4 0x4DF98BFC GT PUSH2 0x135 JUMPI DUP1 PUSH4 0x4DF98BFC EQ PUSH2 0x26A JUMPI DUP1 PUSH4 0x66666AA9 EQ PUSH2 0x291 JUMPI DUP1 PUSH4 0x679AEFCE EQ PUSH2 0x2D0 JUMPI DUP1 PUSH4 0x76EB43E9 EQ PUSH2 0x2D8 JUMPI PUSH2 0x1AE JUMP JUMPDEST DUP1 PUSH4 0x360F60B1 EQ PUSH2 0x245 JUMPI DUP1 PUSH4 0x36568ABE EQ PUSH2 0x24F JUMPI DUP1 PUSH4 0x3EC8EC5A EQ PUSH2 0x262 JUMPI PUSH2 0x1AE JUMP JUMPDEST DUP1 PUSH4 0x2DDC40F7 GT PUSH2 0x18C JUMPI DUP1 PUSH4 0x2DDC40F7 EQ PUSH2 0x214 JUMPI DUP1 PUSH4 0x2EDE53A3 EQ PUSH2 0x229 JUMPI DUP1 PUSH4 0x2F2FF15D EQ PUSH2 0x232 JUMPI PUSH2 0x1AE JUMP JUMPDEST DUP1 PUSH4 0x1FFC9A7 EQ PUSH2 0x1B3 JUMPI DUP1 PUSH4 0x572B0CC EQ PUSH2 0x1DB JUMPI DUP1 PUSH4 0x248A9CA3 EQ PUSH2 0x1F1 JUMPI JUMPDEST PUSH1 0x0 DUP1 REVERT JUMPDEST PUSH2 0x1C6 PUSH2 0x1C1 CALLDATASIZE PUSH1 0x4 PUSH2 0x119D JUMP JUMPDEST PUSH2 0x3B6 JUMP JUMPDEST PUSH1 0x40 MLOAD SWAP1 ISZERO ISZERO DUP2 MSTORE PUSH1 0x20 ADD JUMPDEST PUSH1 0x40 MLOAD DUP1 SWAP2 SUB SWAP1 RETURN JUMPDEST PUSH2 0x1E3 PUSH2 0x44F JUMP JUMPDEST PUSH1 0x40 MLOAD SWAP1 DUP2 MSTORE PUSH1 0x20 ADD PUSH2 0x1D2 JUMP JUMPDEST PUSH2 0x1E3 PUSH2 0x1FF CALLDATASIZE PUSH1 0x4 PUSH2 0x114B JUMP JUMPDEST PUSH1 0x0 SWAP1 DUP2 MSTORE PUSH1 0x20 DUP2 SWAP1 MSTORE PUSH1 0x40 SWAP1 KECCAK256 PUSH1 0x1 ADD SLOAD SWAP1 JUMP JUMPDEST PUSH2 0x227 PUSH2 0x222 CALLDATASIZE PUSH1 0x4 PUSH2 0x11DD JUMP JUMPDEST PUSH2 0x46C JUMP JUMPDEST STOP JUMPDEST PUSH2 0x1E3 PUSH1 0x3 SLOAD DUP2 JUMP JUMPDEST PUSH2 0x227 PUSH2 0x240 CALLDATASIZE PUSH1 0x4 PUSH2 0x1163 JUMP JUMPDEST PUSH2 0x50D JUMP JUMPDEST PUSH1 0x5 SLOAD TIMESTAMP LT PUSH2 0x1C6 JUMP JUMPDEST PUSH2 0x227 PUSH2 0x25D CALLDATASIZE PUSH1 0x4 PUSH2 0x1163 JUMP JUMPDEST PUSH2 0x539 JUMP JUMPDEST PUSH2 0x1E3 PUSH2 0x5C1 JUMP JUMPDEST PUSH2 0x1E3 PUSH32 0x4A46AAAA31BD6EB7C4586D8B31EF0034F45E1CD695217392F1DD55078385CE0B DUP2 JUMP JUMPDEST PUSH2 0x2B8 PUSH32 0x0 DUP2 JUMP JUMPDEST PUSH1 0x40 MLOAD PUSH1 0x1 PUSH1 0x1 PUSH1 0xA0 SHL SUB SWAP1 SWAP2 AND DUP2 MSTORE PUSH1 0x20 ADD PUSH2 0x1D2 JUMP JUMPDEST PUSH2 0x1E3 PUSH2 0x5F7 JUMP JUMPDEST PUSH1 0x5 SLOAD TIMESTAMP LT ISZERO PUSH2 0x1C6 JUMP JUMPDEST PUSH2 0x227 PUSH2 0x2F1 CALLDATASIZE PUSH1 0x4 PUSH2 0x11DD JUMP JUMPDEST PUSH2 0x62D JUMP JUMPDEST PUSH2 0x1C6 PUSH2 0x304 CALLDATASIZE PUSH1 0x4 PUSH2 0x1163 JUMP JUMPDEST PUSH1 0x0 SWAP2 DUP3 MSTORE PUSH1 0x20 DUP3 DUP2 MSTORE PUSH1 0x40 DUP1 DUP5 KECCAK256 PUSH1 0x1 PUSH1 0x1 PUSH1 0xA0 SHL SUB SWAP4 SWAP1 SWAP4 AND DUP5 MSTORE SWAP2 SWAP1 MSTORE SWAP1 KECCAK256 SLOAD PUSH1 0xFF AND SWAP1 JUMP JUMPDEST PUSH2 0x1E3 PUSH1 0x0 DUP2 JUMP JUMPDEST PUSH2 0x227 PUSH2 0x6F4 JUMP JUMPDEST PUSH2 0x227 PUSH2 0x34B CALLDATASIZE PUSH1 0x4 PUSH2 0x114B JUMP JUMPDEST PUSH2 0x777 JUMP JUMPDEST PUSH2 0x1E3 PUSH1 0x1 SLOAD DUP2 JUMP JUMPDEST PUSH2 0x1E3 PUSH1 0x4 SLOAD DUP2 JUMP JUMPDEST PUSH2 0x227 PUSH2 0x370 CALLDATASIZE PUSH1 0x4 PUSH2 0x11DD JUMP JUMPDEST PUSH2 0x824 JUMP JUMPDEST PUSH2 0x227 PUSH2 0x383 CALLDATASIZE PUSH1 0x4 PUSH2 0x1163 JUMP JUMPDEST PUSH2 0x8F6 JUMP JUMPDEST PUSH2 0x227 PUSH2 0x396 CALLDATASIZE PUSH1 0x4 PUSH2 0x11DD JUMP JUMPDEST PUSH2 0x91C JUMP JUMPDEST PUSH2 0x1E3 PUSH1 0x2 SLOAD DUP2 JUMP JUMPDEST PUSH2 0x1E3 PUSH1 0x6 SLOAD DUP2 JUMP JUMPDEST PUSH2 0x1E3 PUSH1 0x5 SLOAD DUP2 JUMP JUMPDEST PUSH1 0x0 PUSH32 0xFFFFFFFF00000000000000000000000000000000000000000000000000000000 DUP3 AND PUSH32 0x7965DB0B00000000000000000000000000000000000000000000000000000000 EQ DUP1 PUSH2 0x449 JUMPI POP PUSH32 0x1FFC9A700000000000000000000000000000000000000000000000000000000 PUSH32 0xFFFFFFFF00000000000000000000000000000000000000000000000000000000 DUP4 AND EQ JUMPDEST SWAP3 SWAP2 POP POP JUMP JUMPDEST PUSH1 0x0 PUSH2 0x459 PUSH2 0x9ED JUMP JUMPDEST PUSH1 0x2 SLOAD PUSH2 0x466 SWAP2 SWAP1 PUSH2 0x12B2 JUMP JUMPDEST SWAP1 POP JUMPDEST SWAP1 JUMP JUMPDEST PUSH2 0x496 PUSH32 0x4A46AAAA31BD6EB7C4586D8B31EF0034F45E1CD695217392F1DD55078385CE0B CALLER PUSH2 0x304 JUMP JUMPDEST PUSH2 0x4E7 JUMPI PUSH1 0x40 MLOAD PUSH3 0x461BCD PUSH1 0xE5 SHL DUP2 MSTORE PUSH1 0x20 PUSH1 0x4 DUP3 ADD MSTORE PUSH1 0x17 PUSH1 0x24 DUP3 ADD MSTORE PUSH32 0x6E6F742072657761726420646973747269627574696F6E000000000000000000 PUSH1 0x44 DUP3 ADD MSTORE PUSH1 0x64 ADD JUMPDEST PUSH1 0x40 MLOAD DUP1 SWAP2 SUB SWAP1 REVERT JUMPDEST PUSH1 0x5 SLOAD TIMESTAMP LT PUSH2 0x4FF JUMPI PUSH2 0x4FA DUP3 DUP3 PUSH2 0xADF JUMP JUMPDEST PUSH2 0x509 JUMP JUMPDEST PUSH2 0x509 DUP3 DUP3 PUSH2 0xB76 JUMP JUMPDEST POP POP JUMP JUMPDEST PUSH1 0x0 DUP3 DUP2 MSTORE PUSH1 0x20 DUP2 SWAP1 MSTORE PUSH1 0x40 SWAP1 KECCAK256 PUSH1 0x1 ADD SLOAD PUSH2 0x52A DUP2 CALLER JUMPDEST PUSH2 0xC11 JUMP JUMPDEST PUSH2 0x534 DUP4 DUP4 PUSH2 0xC8F JUMP JUMPDEST POP POP POP JUMP JUMPDEST PUSH1 0x1 PUSH1 0x1 PUSH1 0xA0 SHL SUB DUP2 AND CALLER EQ PUSH2 0x5B7 JUMPI PUSH1 0x40 MLOAD PUSH3 0x461BCD PUSH1 0xE5 SHL DUP2 MSTORE PUSH1 0x20 PUSH1 0x4 DUP3 ADD MSTORE PUSH1 0x2F PUSH1 0x24 DUP3 ADD MSTORE PUSH32 0x416363657373436F6E74726F6C3A2063616E206F6E6C792072656E6F756E6365 PUSH1 0x44 DUP3 ADD MSTORE PUSH32 0x20726F6C657320666F722073656C660000000000000000000000000000000000 PUSH1 0x64 DUP3 ADD MSTORE PUSH1 0x84 ADD PUSH2 0x4DE JUMP JUMPDEST PUSH2 0x509 DUP3 DUP3 PUSH2 0xD2D JUMP JUMPDEST PUSH1 0x0 PUSH2 0x5CF PUSH1 0x5 SLOAD TIMESTAMP LT ISZERO SWAP1 JUMP JUMPDEST ISZERO PUSH2 0x5DC JUMPI POP PUSH1 0x0 PUSH2 0x469 JUMP JUMPDEST PUSH1 0x3 SLOAD TIMESTAMP LT PUSH2 0x5EE JUMPI POP PUSH1 0x5 SLOAD PUSH2 0x469 JUMP JUMPDEST POP PUSH1 0x3 SLOAD PUSH2 0x469 JUMP JUMPDEST PUSH1 0x0 PUSH2 0x605 PUSH1 0x5 SLOAD TIMESTAMP LT ISZERO SWAP1 JUMP JUMPDEST ISZERO PUSH2 0x612 JUMPI POP PUSH1 0x0 PUSH2 0x469 JUMP JUMPDEST PUSH1 0x3 SLOAD TIMESTAMP LT PUSH2 0x624 JUMPI POP PUSH1 0x6 SLOAD PUSH2 0x469 JUMP JUMPDEST POP PUSH1 0x4 SLOAD PUSH2 0x469 JUMP JUMPDEST PUSH2 0x657 PUSH32 0x4A46AAAA31BD6EB7C4586D8B31EF0034F45E1CD695217392F1DD55078385CE0B CALLER PUSH2 0x304 JUMP JUMPDEST PUSH2 0x6A3 JUMPI PUSH1 0x40 MLOAD PUSH3 0x461BCD PUSH1 0xE5 SHL DUP2 MSTORE PUSH1 0x20 PUSH1 0x4 DUP3 ADD MSTORE PUSH1 0x17 PUSH1 0x24 DUP3 ADD MSTORE PUSH32 0x6E6F742072657761726420646973747269627574696F6E000000000000000000 PUSH1 0x44 DUP3 ADD MSTORE PUSH1 0x64 ADD PUSH2 0x4DE JUMP JUMPDEST PUSH1 0x5 SLOAD TIMESTAMP LT PUSH2 0x4FF JUMPI PUSH1 0x40 MLOAD PUSH3 0x461BCD PUSH1 0xE5 SHL DUP2 MSTORE PUSH1 0x20 PUSH1 0x4 DUP3 ADD MSTORE PUSH1 0x1C PUSH1 0x24 DUP3 ADD MSTORE PUSH32 0x696E697469616C2063616D706169676E206E6F742072756E6E696E6700000000 PUSH1 0x44 DUP3 ADD MSTORE PUSH1 0x64 ADD PUSH2 0x4DE JUMP JUMPDEST CALLER PUSH1 0x1 PUSH1 0x1 PUSH1 0xA0 SHL SUB PUSH32 0x0 AND EQ PUSH2 0x76C JUMPI PUSH1 0x40 MLOAD PUSH3 0x461BCD PUSH1 0xE5 SHL DUP2 MSTORE PUSH1 0x20 PUSH1 0x4 DUP3 ADD MSTORE PUSH1 0xF PUSH1 0x24 DUP3 ADD MSTORE PUSH32 0x6E6F742072657761726420706F6F6C0000000000000000000000000000000000 PUSH1 0x44 DUP3 ADD MSTORE PUSH1 0x64 ADD PUSH2 0x4DE JUMP JUMPDEST TIMESTAMP PUSH1 0x1 SSTORE PUSH1 0x0 PUSH1 0x2 SSTORE JUMP JUMPDEST PUSH2 0x7A1 PUSH32 0x4A46AAAA31BD6EB7C4586D8B31EF0034F45E1CD695217392F1DD55078385CE0B CALLER PUSH2 0x304 JUMP JUMPDEST PUSH2 0x7ED JUMPI PUSH1 0x40 MLOAD PUSH3 0x461BCD PUSH1 0xE5 SHL DUP2 MSTORE PUSH1 0x20 PUSH1 0x4 DUP3 ADD MSTORE PUSH1 0x17 PUSH1 0x24 DUP3 ADD MSTORE PUSH32 0x6E6F742072657761726420646973747269627574696F6E000000000000000000 PUSH1 0x44 DUP3 ADD MSTORE PUSH1 0x64 ADD PUSH2 0x4DE JUMP JUMPDEST PUSH1 0x2 DUP2 SWAP1 SSTORE TIMESTAMP PUSH1 0x1 SSTORE PUSH1 0x40 MLOAD DUP2 SWAP1 PUSH32 0xF91E227E0AF8C84666C293A63113658D1E1D54A869DAAB59BC728233D73EA83F SWAP1 PUSH1 0x0 SWAP1 LOG2 POP JUMP JUMPDEST PUSH2 0x84E PUSH32 0x4A46AAAA31BD6EB7C4586D8B31EF0034F45E1CD695217392F1DD55078385CE0B CALLER PUSH2 0x304 JUMP JUMPDEST PUSH2 0x89A JUMPI PUSH1 0x40 MLOAD PUSH3 0x461BCD PUSH1 0xE5 SHL DUP2 MSTORE PUSH1 0x20 PUSH1 0x4 DUP3 ADD MSTORE PUSH1 0x17 PUSH1 0x24 DUP3 ADD MSTORE PUSH32 0x6E6F742072657761726420646973747269627574696F6E000000000000000000 PUSH1 0x44 DUP3 ADD MSTORE PUSH1 0x64 ADD PUSH2 0x4DE JUMP JUMPDEST PUSH1 0x5 SLOAD TIMESTAMP LT ISZERO PUSH2 0x8EC JUMPI PUSH1 0x40 MLOAD PUSH3 0x461BCD PUSH1 0xE5 SHL DUP2 MSTORE PUSH1 0x20 PUSH1 0x4 DUP3 ADD MSTORE PUSH1 0x18 PUSH1 0x24 DUP3 ADD MSTORE PUSH32 0x696E697469616C2063616D706169676E2072756E6E696E670000000000000000 PUSH1 0x44 DUP3 ADD MSTORE PUSH1 0x64 ADD PUSH2 0x4DE JUMP JUMPDEST PUSH2 0x509 DUP3 DUP3 PUSH2 0xADF JUMP JUMPDEST PUSH1 0x0 DUP3 DUP2 MSTORE PUSH1 0x20 DUP2 SWAP1 MSTORE PUSH1 0x40 SWAP1 KECCAK256 PUSH1 0x1 ADD SLOAD PUSH2 0x912 DUP2 CALLER PUSH2 0x525 JUMP JUMPDEST PUSH2 0x534 DUP4 DUP4 PUSH2 0xD2D JUMP JUMPDEST PUSH2 0x946 PUSH32 0x4A46AAAA31BD6EB7C4586D8B31EF0034F45E1CD695217392F1DD55078385CE0B CALLER PUSH2 0x304 JUMP JUMPDEST PUSH2 0x992 JUMPI PUSH1 0x40 MLOAD PUSH3 0x461BCD PUSH1 0xE5 SHL DUP2 MSTORE PUSH1 0x20 PUSH1 0x4 DUP3 ADD MSTORE PUSH1 0x17 PUSH1 0x24 DUP3 ADD MSTORE PUSH32 0x6E6F742072657761726420646973747269627574696F6E000000000000000000 PUSH1 0x44 DUP3 ADD MSTORE PUSH1 0x64 ADD PUSH2 0x4DE JUMP JUMPDEST PUSH1 0x5 SLOAD TIMESTAMP LT PUSH2 0x9E3 JUMPI PUSH1 0x40 MLOAD PUSH3 0x461BCD PUSH1 0xE5 SHL DUP2 MSTORE PUSH1 0x20 PUSH1 0x4 DUP3 ADD MSTORE PUSH1 0x1C PUSH1 0x24 DUP3 ADD MSTORE PUSH32 0x696E697469616C2063616D706169676E206E6F742072756E6E696E6700000000 PUSH1 0x44 DUP3 ADD MSTORE PUSH1 0x64 ADD PUSH2 0x4DE JUMP JUMPDEST PUSH2 0x509 DUP3 DUP3 PUSH2 0xDAC JUMP JUMPDEST PUSH1 0x0 TIMESTAMP PUSH1 0x1 SLOAD GT ISZERO PUSH2 0xA0F JUMPI PUSH4 0x4E487B71 PUSH1 0xE0 SHL PUSH1 0x0 MSTORE PUSH1 0x1 PUSH1 0x4 MSTORE PUSH1 0x24 PUSH1 0x0 REVERT JUMPDEST PUSH1 0x5 SLOAD PUSH1 0x3 SLOAD GT ISZERO PUSH2 0xA31 JUMPI PUSH4 0x4E487B71 PUSH1 0xE0 SHL PUSH1 0x0 MSTORE PUSH1 0x1 PUSH1 0x4 MSTORE PUSH1 0x24 PUSH1 0x0 REVERT JUMPDEST PUSH1 0x5 SLOAD PUSH1 0x1 SLOAD LT PUSH2 0xA44 JUMPI POP PUSH1 0x0 PUSH2 0x469 JUMP JUMPDEST PUSH1 0x3 SLOAD TIMESTAMP GT PUSH2 0xA6E JUMPI PUSH1 0x4 SLOAD PUSH1 0x1 SLOAD PUSH2 0xA5D SWAP1 TIMESTAMP PUSH2 0x1309 JUMP JUMPDEST PUSH2 0xA67 SWAP2 SWAP1 PUSH2 0x12EA JUMP JUMPDEST SWAP1 POP PUSH2 0x469 JUMP JUMPDEST PUSH1 0x0 PUSH1 0x6 SLOAD PUSH2 0xA81 PUSH1 0x1 SLOAD PUSH1 0x3 SLOAD PUSH2 0xE96 JUMP JUMPDEST PUSH2 0xA8D TIMESTAMP PUSH1 0x5 SLOAD PUSH2 0xEAF JUMP JUMPDEST PUSH2 0xA97 SWAP2 SWAP1 PUSH2 0x1309 JUMP JUMPDEST PUSH2 0xAA1 SWAP2 SWAP1 PUSH2 0x12EA JUMP JUMPDEST SWAP1 POP PUSH1 0x3 SLOAD PUSH1 0x1 SLOAD LT ISZERO PUSH2 0x466 JUMPI DUP1 PUSH1 0x4 SLOAD PUSH1 0x1 SLOAD PUSH1 0x3 SLOAD PUSH2 0xAC3 SWAP2 SWAP1 PUSH2 0x1309 JUMP JUMPDEST PUSH2 0xACD SWAP2 SWAP1 PUSH2 0x12EA JUMP JUMPDEST PUSH2 0xAD7 SWAP2 SWAP1 PUSH2 0x12B2 JUMP JUMPDEST SWAP2 POP POP PUSH2 0x469 JUMP JUMPDEST PUSH2 0xAE7 PUSH2 0xEBE JUMP JUMPDEST PUSH2 0xAF1 DUP2 TIMESTAMP PUSH2 0x12B2 JUMP JUMPDEST PUSH1 0x3 SSTORE PUSH2 0xAFE DUP2 DUP4 PUSH2 0x12CA JUMP JUMPDEST PUSH1 0x4 SSTORE PUSH2 0xB0B DUP2 TIMESTAMP PUSH2 0x12B2 JUMP JUMPDEST PUSH1 0x5 DUP2 SWAP1 SSTORE PUSH1 0x0 PUSH1 0x6 DUP2 SWAP1 SSTORE PUSH1 0x3 SLOAD PUSH1 0x4 SLOAD PUSH1 0x40 DUP1 MLOAD DUP8 DUP2 MSTORE PUSH1 0x20 DUP2 ADD DUP8 SWAP1 MSTORE SWAP1 DUP2 ADD SWAP3 SWAP1 SWAP3 MSTORE PUSH1 0x60 DUP3 ADD MSTORE PUSH1 0x80 DUP2 ADD SWAP3 SWAP1 SWAP3 MSTORE PUSH1 0xA0 DUP3 ADD MSTORE PUSH32 0x6613481053266930293E519022EE89096BD8ADBA04D23586C5E64E20D640EC51 SWAP1 PUSH1 0xC0 ADD JUMPDEST PUSH1 0x40 MLOAD DUP1 SWAP2 SUB SWAP1 LOG1 POP POP JUMP JUMPDEST PUSH2 0xB7E PUSH2 0xEBE JUMP JUMPDEST PUSH1 0x3 SLOAD TIMESTAMP LT PUSH2 0xB94 JUMPI PUSH1 0x5 SLOAD PUSH1 0x3 SSTORE PUSH1 0x6 SLOAD PUSH1 0x4 SSTORE JUMPDEST DUP1 PUSH1 0x3 SLOAD PUSH2 0xBA2 SWAP2 SWAP1 PUSH2 0x12B2 JUMP JUMPDEST PUSH1 0x5 SSTORE PUSH2 0xBAF DUP2 DUP4 PUSH2 0x12CA JUMP JUMPDEST PUSH1 0x6 DUP2 SWAP1 SSTORE PUSH1 0x3 SLOAD PUSH1 0x4 SLOAD PUSH1 0x5 SLOAD PUSH1 0x40 DUP1 MLOAD DUP8 DUP2 MSTORE PUSH1 0x20 DUP2 ADD DUP8 SWAP1 MSTORE SWAP1 DUP2 ADD SWAP4 SWAP1 SWAP4 MSTORE PUSH1 0x60 DUP4 ADD SWAP2 SWAP1 SWAP2 MSTORE PUSH1 0x80 DUP3 ADD MSTORE PUSH1 0xA0 DUP2 ADD SWAP2 SWAP1 SWAP2 MSTORE PUSH32 0x62FE920D1258E46A0C0AD6AE0720652679E9991CA4205C12358D7C4F1D9A73D0 SWAP1 PUSH1 0xC0 ADD PUSH2 0xB6A JUMP JUMPDEST PUSH1 0x0 DUP3 DUP2 MSTORE PUSH1 0x20 DUP2 DUP2 MSTORE PUSH1 0x40 DUP1 DUP4 KECCAK256 PUSH1 0x1 PUSH1 0x1 PUSH1 0xA0 SHL SUB DUP6 AND DUP5 MSTORE SWAP1 SWAP2 MSTORE SWAP1 KECCAK256 SLOAD PUSH1 0xFF AND PUSH2 0x509 JUMPI PUSH2 0xC4D DUP2 PUSH1 0x1 PUSH1 0x1 PUSH1 0xA0 SHL SUB AND PUSH1 0x14 PUSH2 0xEDC JUMP JUMPDEST PUSH2 0xC58 DUP4 PUSH1 0x20 PUSH2 0xEDC JUMP JUMPDEST PUSH1 0x40 MLOAD PUSH1 0x20 ADD PUSH2 0xC69 SWAP3 SWAP2 SWAP1 PUSH2 0x11FE JUMP JUMPDEST PUSH1 0x40 DUP1 MLOAD PUSH1 0x1F NOT DUP2 DUP5 SUB ADD DUP2 MSTORE SWAP1 DUP3 SWAP1 MSTORE PUSH3 0x461BCD PUSH1 0xE5 SHL DUP3 MSTORE PUSH2 0x4DE SWAP2 PUSH1 0x4 ADD PUSH2 0x127F JUMP JUMPDEST PUSH1 0x0 DUP3 DUP2 MSTORE PUSH1 0x20 DUP2 DUP2 MSTORE PUSH1 0x40 DUP1 DUP4 KECCAK256 PUSH1 0x1 PUSH1 0x1 PUSH1 0xA0 SHL SUB DUP6 AND DUP5 MSTORE SWAP1 SWAP2 MSTORE SWAP1 KECCAK256 SLOAD PUSH1 0xFF AND PUSH2 0x509 JUMPI PUSH1 0x0 DUP3 DUP2 MSTORE PUSH1 0x20 DUP2 DUP2 MSTORE PUSH1 0x40 DUP1 DUP4 KECCAK256 PUSH1 0x1 PUSH1 0x1 PUSH1 0xA0 SHL SUB DUP6 AND DUP5 MSTORE SWAP1 SWAP2 MSTORE SWAP1 KECCAK256 DUP1 SLOAD PUSH1 0xFF NOT AND PUSH1 0x1 OR SWAP1 SSTORE PUSH2 0xCE9 CALLER SWAP1 JUMP JUMPDEST PUSH1 0x1 PUSH1 0x1 PUSH1 0xA0 SHL SUB AND DUP2 PUSH1 0x1 PUSH1 0x1 PUSH1 0xA0 SHL SUB AND DUP4 PUSH32 0x2F8788117E7EFF1D82E926EC794901D17C78024A50270940304540A733656F0D PUSH1 0x40 MLOAD PUSH1 0x40 MLOAD DUP1 SWAP2 SUB SWAP1 LOG4 POP POP JUMP JUMPDEST PUSH1 0x0 DUP3 DUP2 MSTORE PUSH1 0x20 DUP2 DUP2 MSTORE PUSH1 0x40 DUP1 DUP4 KECCAK256 PUSH1 0x1 PUSH1 0x1 PUSH1 0xA0 SHL SUB DUP6 AND DUP5 MSTORE SWAP1 SWAP2 MSTORE SWAP1 KECCAK256 SLOAD PUSH1 0xFF AND ISZERO PUSH2 0x509 JUMPI PUSH1 0x0 DUP3 DUP2 MSTORE PUSH1 0x20 DUP2 DUP2 MSTORE PUSH1 0x40 DUP1 DUP4 KECCAK256 PUSH1 0x1 PUSH1 0x1 PUSH1 0xA0 SHL SUB DUP6 AND DUP1 DUP6 MSTORE SWAP3 MSTORE DUP1 DUP4 KECCAK256 DUP1 SLOAD PUSH1 0xFF NOT AND SWAP1 SSTORE MLOAD CALLER SWAP3 DUP6 SWAP2 PUSH32 0xF6391F5C32D9C69D2A47EA670B442974B53935D1EDC7FD64EB21E047A839171B SWAP2 SWAP1 LOG4 POP POP JUMP JUMPDEST PUSH2 0xDB4 PUSH2 0xEBE JUMP JUMPDEST PUSH1 0x3 SLOAD TIMESTAMP LT PUSH2 0xDCF JUMPI PUSH1 0x5 SLOAD PUSH1 0x3 SSTORE PUSH1 0x6 DUP1 SLOAD PUSH1 0x4 SSTORE PUSH1 0x0 SWAP1 SSTORE JUMPDEST PUSH1 0x5 SLOAD PUSH1 0x3 SLOAD GT ISZERO PUSH2 0xDF1 JUMPI PUSH4 0x4E487B71 PUSH1 0xE0 SHL PUSH1 0x0 MSTORE PUSH1 0x1 PUSH1 0x4 MSTORE PUSH1 0x24 PUSH1 0x0 REVERT JUMPDEST PUSH1 0x0 PUSH1 0x3 SLOAD PUSH1 0x5 SLOAD PUSH2 0xE03 SWAP2 SWAP1 PUSH2 0x1309 JUMP JUMPDEST SWAP1 POP PUSH2 0xE0F DUP3 TIMESTAMP PUSH2 0x12B2 JUMP JUMPDEST PUSH1 0x3 DUP2 SWAP1 SSTORE PUSH2 0xE1F SWAP1 DUP3 SWAP1 PUSH2 0x12B2 JUMP JUMPDEST PUSH1 0x5 SSTORE PUSH2 0xE2C DUP3 DUP5 PUSH2 0x12CA JUMP JUMPDEST PUSH1 0x4 DUP2 SWAP1 SSTORE PUSH1 0x3 SLOAD PUSH1 0x5 SLOAD PUSH1 0x6 SLOAD PUSH1 0x40 DUP1 MLOAD DUP9 DUP2 MSTORE PUSH1 0x20 DUP2 ADD DUP9 SWAP1 MSTORE SWAP1 DUP2 ADD SWAP4 SWAP1 SWAP4 MSTORE PUSH1 0x60 DUP4 ADD SWAP4 SWAP1 SWAP4 MSTORE PUSH1 0x80 DUP3 ADD MSTORE PUSH1 0xA0 DUP2 ADD SWAP2 SWAP1 SWAP2 MSTORE PUSH32 0x19902FDC8A70BD6BA84E7161FB544495B8D6E4524914E2DF32B024ACC5E67FE8 SWAP1 PUSH1 0xC0 ADD PUSH1 0x40 MLOAD DUP1 SWAP2 SUB SWAP1 LOG1 POP POP POP JUMP JUMPDEST PUSH1 0x0 DUP2 DUP4 LT ISZERO PUSH2 0xEA6 JUMPI DUP2 PUSH2 0xEA8 JUMP JUMPDEST DUP3 JUMPDEST SWAP4 SWAP3 POP POP POP JUMP JUMPDEST PUSH1 0x0 DUP2 DUP4 LT PUSH2 0xEA6 JUMPI DUP2 PUSH2 0xEA8 JUMP JUMPDEST PUSH2 0xEC6 PUSH2 0x9ED JUMP JUMPDEST PUSH1 0x2 SLOAD PUSH2 0xED3 SWAP2 SWAP1 PUSH2 0x12B2 JUMP JUMPDEST PUSH1 0x2 SSTORE TIMESTAMP PUSH1 0x1 SSTORE JUMP JUMPDEST PUSH1 0x60 PUSH1 0x0 PUSH2 0xEEB DUP4 PUSH1 0x2 PUSH2 0x12EA JUMP JUMPDEST PUSH2 0xEF6 SWAP1 PUSH1 0x2 PUSH2 0x12B2 JUMP JUMPDEST PUSH8 0xFFFFFFFFFFFFFFFF DUP2 GT ISZERO PUSH2 0xF1C JUMPI PUSH4 0x4E487B71 PUSH1 0xE0 SHL PUSH1 0x0 MSTORE PUSH1 0x41 PUSH1 0x4 MSTORE PUSH1 0x24 PUSH1 0x0 REVERT JUMPDEST PUSH1 0x40 MLOAD SWAP1 DUP1 DUP3 MSTORE DUP1 PUSH1 0x1F ADD PUSH1 0x1F NOT AND PUSH1 0x20 ADD DUP3 ADD PUSH1 0x40 MSTORE DUP1 ISZERO PUSH2 0xF46 JUMPI PUSH1 0x20 DUP3 ADD DUP2 DUP1 CALLDATASIZE DUP4 CALLDATACOPY ADD SWAP1 POP JUMPDEST POP SWAP1 POP PUSH32 0x3000000000000000000000000000000000000000000000000000000000000000 DUP2 PUSH1 0x0 DUP2 MLOAD DUP2 LT PUSH2 0xF8B JUMPI PUSH4 0x4E487B71 PUSH1 0xE0 SHL PUSH1 0x0 MSTORE PUSH1 0x32 PUSH1 0x4 MSTORE PUSH1 0x24 PUSH1 0x0 REVERT JUMPDEST PUSH1 0x20 ADD ADD SWAP1 PUSH31 0xFFFFFFFFFFFFFFFFFFFFFFFFFFFFFFFFFFFFFFFFFFFFFFFFFFFFFFFFFFFFFF NOT AND SWAP1 DUP2 PUSH1 0x0 BYTE SWAP1 MSTORE8 POP PUSH32 0x7800000000000000000000000000000000000000000000000000000000000000 DUP2 PUSH1 0x1 DUP2 MLOAD DUP2 LT PUSH2 0xFFC JUMPI PUSH4 0x4E487B71 PUSH1 0xE0 SHL PUSH1 0x0 MSTORE PUSH1 0x32 PUSH1 0x4 MSTORE PUSH1 0x24 PUSH1 0x0 REVERT JUMPDEST PUSH1 0x20 ADD ADD SWAP1 PUSH31 0xFFFFFFFFFFFFFFFFFFFFFFFFFFFFFFFFFFFFFFFFFFFFFFFFFFFFFFFFFFFFFF NOT AND SWAP1 DUP2 PUSH1 0x0 BYTE SWAP1 MSTORE8 POP PUSH1 0x0 PUSH2 0x1038 DUP5 PUSH1 0x2 PUSH2 0x12EA JUMP JUMPDEST PUSH2 0x1043 SWAP1 PUSH1 0x1 PUSH2 0x12B2 JUMP JUMPDEST SWAP1 POP JUMPDEST PUSH1 0x1 DUP2 GT ISZERO PUSH2 0x10FC JUMPI PUSH32 0x3031323334353637383961626364656600000000000000000000000000000000 DUP6 PUSH1 0xF AND PUSH1 0x10 DUP2 LT PUSH2 0x1092 JUMPI PUSH4 0x4E487B71 PUSH1 0xE0 SHL PUSH1 0x0 MSTORE PUSH1 0x32 PUSH1 0x4 MSTORE PUSH1 0x24 PUSH1 0x0 REVERT JUMPDEST BYTE PUSH1 0xF8 SHL DUP3 DUP3 DUP2 MLOAD DUP2 LT PUSH2 0x10B6 JUMPI PUSH4 0x4E487B71 PUSH1 0xE0 SHL PUSH1 0x0 MSTORE PUSH1 0x32 PUSH1 0x4 MSTORE PUSH1 0x24 PUSH1 0x0 REVERT JUMPDEST PUSH1 0x20 ADD ADD SWAP1 PUSH31 0xFFFFFFFFFFFFFFFFFFFFFFFFFFFFFFFFFFFFFFFFFFFFFFFFFFFFFFFFFFFFFF NOT AND SWAP1 DUP2 PUSH1 0x0 BYTE SWAP1 MSTORE8 POP PUSH1 0x4 SWAP5 SWAP1 SWAP5 SHR SWAP4 PUSH2 0x10F5 DUP2 PUSH2 0x1350 JUMP JUMPDEST SWAP1 POP PUSH2 0x1046 JUMP JUMPDEST POP DUP4 ISZERO PUSH2 0xEA8 JUMPI PUSH1 0x40 MLOAD PUSH3 0x461BCD PUSH1 0xE5 SHL DUP2 MSTORE PUSH1 0x20 PUSH1 0x4 DUP3 ADD DUP2 SWAP1 MSTORE PUSH1 0x24 DUP3 ADD MSTORE PUSH32 0x537472696E67733A20686578206C656E67746820696E73756666696369656E74 PUSH1 0x44 DUP3 ADD MSTORE PUSH1 0x64 ADD PUSH2 0x4DE JUMP JUMPDEST PUSH1 0x0 PUSH1 0x20 DUP3 DUP5 SUB SLT ISZERO PUSH2 0x115C JUMPI DUP1 DUP2 REVERT JUMPDEST POP CALLDATALOAD SWAP2 SWAP1 POP JUMP JUMPDEST PUSH1 0x0 DUP1 PUSH1 0x40 DUP4 DUP6 SUB SLT ISZERO PUSH2 0x1175 JUMPI DUP1 DUP2 REVERT JUMPDEST DUP3 CALLDATALOAD SWAP2 POP PUSH1 0x20 DUP4 ADD CALLDATALOAD PUSH1 0x1 PUSH1 0x1 PUSH1 0xA0 SHL SUB DUP2 AND DUP2 EQ PUSH2 0x1192 JUMPI DUP2 DUP3 REVERT JUMPDEST DUP1 SWAP2 POP POP SWAP3 POP SWAP3 SWAP1 POP JUMP JUMPDEST PUSH1 0x0 PUSH1 0x20 DUP3 DUP5 SUB SLT ISZERO PUSH2 0x11AE JUMPI DUP1 DUP2 REVERT JUMPDEST DUP2 CALLDATALOAD PUSH32 0xFFFFFFFF00000000000000000000000000000000000000000000000000000000 DUP2 AND DUP2 EQ PUSH2 0xEA8 JUMPI DUP2 DUP3 REVERT JUMPDEST PUSH1 0x0 DUP1 PUSH1 0x40 DUP4 DUP6 SUB SLT ISZERO PUSH2 0x11EF JUMPI DUP2 DUP3 REVERT JUMPDEST POP POP DUP1 CALLDATALOAD SWAP3 PUSH1 0x20 SWAP1 SWAP2 ADD CALLDATALOAD SWAP2 POP JUMP JUMPDEST PUSH1 0x0 PUSH32 0x416363657373436F6E74726F6C3A206163636F756E7420000000000000000000 DUP3 MSTORE DUP4 MLOAD PUSH2 0x1236 DUP2 PUSH1 0x17 DUP6 ADD PUSH1 0x20 DUP9 ADD PUSH2 0x1320 JUMP JUMPDEST PUSH32 0x206973206D697373696E6720726F6C6520000000000000000000000000000000 PUSH1 0x17 SWAP2 DUP5 ADD SWAP2 DUP3 ADD MSTORE DUP4 MLOAD PUSH2 0x1273 DUP2 PUSH1 0x28 DUP5 ADD PUSH1 0x20 DUP9 ADD PUSH2 0x1320 JUMP JUMPDEST ADD PUSH1 0x28 ADD SWAP5 SWAP4 POP POP POP POP JUMP JUMPDEST PUSH1 0x0 PUSH1 0x20 DUP3 MSTORE DUP3 MLOAD DUP1 PUSH1 0x20 DUP5 ADD MSTORE PUSH2 0x129E DUP2 PUSH1 0x40 DUP6 ADD PUSH1 0x20 DUP8 ADD PUSH2 0x1320 JUMP JUMPDEST PUSH1 0x1F ADD PUSH1 0x1F NOT AND SWAP2 SWAP1 SWAP2 ADD PUSH1 0x40 ADD SWAP3 SWAP2 POP POP JUMP JUMPDEST PUSH1 0x0 DUP3 NOT DUP3 GT ISZERO PUSH2 0x12C5 JUMPI PUSH2 0x12C5 PUSH2 0x1367 JUMP JUMPDEST POP ADD SWAP1 JUMP JUMPDEST PUSH1 0x0 DUP3 PUSH2 0x12E5 JUMPI PUSH4 0x4E487B71 PUSH1 0xE0 SHL DUP2 MSTORE PUSH1 0x12 PUSH1 0x4 MSTORE PUSH1 0x24 DUP2 REVERT JUMPDEST POP DIV SWAP1 JUMP JUMPDEST PUSH1 0x0 DUP2 PUSH1 0x0 NOT DIV DUP4 GT DUP3 ISZERO ISZERO AND ISZERO PUSH2 0x1304 JUMPI PUSH2 0x1304 PUSH2 0x1367 JUMP JUMPDEST POP MUL SWAP1 JUMP JUMPDEST PUSH1 0x0 DUP3 DUP3 LT ISZERO PUSH2 0x131B JUMPI PUSH2 0x131B PUSH2 0x1367 JUMP JUMPDEST POP SUB SWAP1 JUMP JUMPDEST PUSH1 0x0 JUMPDEST DUP4 DUP2 LT ISZERO PUSH2 0x133B JUMPI DUP2 DUP2 ADD MLOAD DUP4 DUP3 ADD MSTORE PUSH1 0x20 ADD PUSH2 0x1323 JUMP JUMPDEST DUP4 DUP2 GT ISZERO PUSH2 0x134A JUMPI PUSH1 0x0 DUP5 DUP5 ADD MSTORE JUMPDEST POP POP POP POP JUMP JUMPDEST PUSH1 0x0 DUP2 PUSH2 0x135F JUMPI PUSH2 0x135F PUSH2 0x1367 JUMP JUMPDEST POP PUSH1 0x0 NOT ADD SWAP1 JUMP JUMPDEST PUSH4 0x4E487B71 PUSH1 0xE0 SHL PUSH1 0x0 MSTORE PUSH1 0x11 PUSH1 0x4 MSTORE PUSH1 0x24 PUSH1 0x0 REVERT INVALID LOG2 PUSH5 0x6970667358 0x22 SLT KECCAK256 0xE4 0xB1 PUSH32 0x1FC8FF937622487A96F00858E5366F14F3A92D2373EFA284DF0A721FDD64736F PUSH13 0x63430008020033000000000000 "
        },
        "gasEstimates": {
          "creation": {
            "codeDepositCost": "1008600",
            "executionCost": "infinite",
            "totalCost": "infinite"
          },
          "external": {
            "DEFAULT_ADMIN_ROLE()": "285",
            "REWARD_DISTRIBUTION()": "240",
            "finish1()": "1063",
            "finish2()": "1105",
            "getFinish()": "2779",
            "getRate()": "2778",
            "getRewards()": "infinite",
            "getRoleAdmin(bytes32)": "1238",
            "grantRole(bytes32,address)": "infinite",
            "hasRole(bytes32,address)": "1377",
            "isCampaignFinished()": "1106",
            "isCampaignRunning()": "1038",
            "lastUpdateTime()": "1084",
            "rate1()": "1040",
            "rate2()": "1083",
            "renounceRole(bytes32,address)": "24294",
            "restartRewards()": "infinite",
            "revokeRole(bytes32,address)": "infinite",
            "rewardPool()": "infinite",
            "runCampaign(uint256,uint256)": "infinite",
            "savedRewards()": "1061",
            "setInitialCampaign(uint256,uint256)": "infinite",
            "setSavedRewards(uint256)": "42467",
            "supportsInterface(bytes4)": "416",
            "updateCurrentCampaign(uint256,uint256)": "infinite",
            "updateNextCampaign(uint256,uint256)": "infinite"
          },
          "internal": {
            "_getRewards()": "infinite",
            "_initialCampaign(uint256,uint256)": "infinite",
            "_saveRewards()": "infinite",
            "_updateCurrentCampaign(uint256,uint256)": "infinite",
            "_updateNextCampaign(uint256,uint256)": "infinite"
          }
        },
        "methodIdentifiers": {
          "DEFAULT_ADMIN_ROLE()": "a217fddf",
          "REWARD_DISTRIBUTION()": "4df98bfc",
          "finish1()": "2ede53a3",
          "finish2()": "fbfe5bd3",
          "getFinish()": "3ec8ec5a",
          "getRate()": "679aefce",
          "getRewards()": "0572b0cc",
          "getRoleAdmin(bytes32)": "248a9ca3",
          "grantRole(bytes32,address)": "2f2ff15d",
          "hasRole(bytes32,address)": "91d14854",
          "isCampaignFinished()": "76eb43e9",
          "isCampaignRunning()": "360f60b1",
          "lastUpdateTime()": "c8f33c91",
          "rate1()": "cf854969",
          "rate2()": "f555b815",
          "renounceRole(bytes32,address)": "36568abe",
          "restartRewards()": "b0165840",
          "revokeRole(bytes32,address)": "d547741f",
          "rewardPool()": "66666aa9",
          "runCampaign(uint256,uint256)": "2ddc40f7",
          "savedRewards()": "e9fcdd10",
          "setInitialCampaign(uint256,uint256)": "d4bd8fed",
          "setSavedRewards(uint256)": "b073f342",
          "supportsInterface(bytes4)": "01ffc9a7",
          "updateCurrentCampaign(uint256,uint256)": "db63233d",
          "updateNextCampaign(uint256,uint256)": "7da73d18"
        }
      },
      "storageLayout": {
        "storage": [
          {
            "astId": 24,
            "contract": "@sandbox-smart-contracts/core/src/solc_0.8/defi/rewardCalculation/TwoPeriodsRewardCalculatorV2.sol:TwoPeriodsRewardCalculatorV2",
            "label": "_roles",
            "offset": 0,
            "slot": "0",
            "type": "t_mapping(t_bytes32,t_struct(RoleData)19_storage)"
          },
          {
            "astId": 1708,
            "contract": "@sandbox-smart-contracts/core/src/solc_0.8/defi/rewardCalculation/TwoPeriodsRewardCalculatorV2.sol:TwoPeriodsRewardCalculatorV2",
            "label": "lastUpdateTime",
            "offset": 0,
            "slot": "1",
            "type": "t_uint256"
          },
          {
            "astId": 1710,
            "contract": "@sandbox-smart-contracts/core/src/solc_0.8/defi/rewardCalculation/TwoPeriodsRewardCalculatorV2.sol:TwoPeriodsRewardCalculatorV2",
            "label": "savedRewards",
            "offset": 0,
            "slot": "2",
            "type": "t_uint256"
          },
          {
            "astId": 1712,
            "contract": "@sandbox-smart-contracts/core/src/solc_0.8/defi/rewardCalculation/TwoPeriodsRewardCalculatorV2.sol:TwoPeriodsRewardCalculatorV2",
            "label": "finish1",
            "offset": 0,
            "slot": "3",
            "type": "t_uint256"
          },
          {
            "astId": 1714,
            "contract": "@sandbox-smart-contracts/core/src/solc_0.8/defi/rewardCalculation/TwoPeriodsRewardCalculatorV2.sol:TwoPeriodsRewardCalculatorV2",
            "label": "rate1",
            "offset": 0,
            "slot": "4",
            "type": "t_uint256"
          },
          {
            "astId": 1716,
            "contract": "@sandbox-smart-contracts/core/src/solc_0.8/defi/rewardCalculation/TwoPeriodsRewardCalculatorV2.sol:TwoPeriodsRewardCalculatorV2",
            "label": "finish2",
            "offset": 0,
            "slot": "5",
            "type": "t_uint256"
          },
          {
            "astId": 1718,
            "contract": "@sandbox-smart-contracts/core/src/solc_0.8/defi/rewardCalculation/TwoPeriodsRewardCalculatorV2.sol:TwoPeriodsRewardCalculatorV2",
            "label": "rate2",
            "offset": 0,
            "slot": "6",
            "type": "t_uint256"
          }
        ],
        "types": {
          "t_address": {
            "encoding": "inplace",
            "label": "address",
            "numberOfBytes": "20"
          },
          "t_bool": {
            "encoding": "inplace",
            "label": "bool",
            "numberOfBytes": "1"
          },
          "t_bytes32": {
            "encoding": "inplace",
            "label": "bytes32",
            "numberOfBytes": "32"
          },
          "t_mapping(t_address,t_bool)": {
            "encoding": "mapping",
            "key": "t_address",
            "label": "mapping(address => bool)",
            "numberOfBytes": "32",
            "value": "t_bool"
          },
          "t_mapping(t_bytes32,t_struct(RoleData)19_storage)": {
            "encoding": "mapping",
            "key": "t_bytes32",
            "label": "mapping(bytes32 => struct AccessControl.RoleData)",
            "numberOfBytes": "32",
            "value": "t_struct(RoleData)19_storage"
          },
          "t_struct(RoleData)19_storage": {
            "encoding": "inplace",
            "label": "struct AccessControl.RoleData",
            "members": [
              {
                "astId": 16,
                "contract": "@sandbox-smart-contracts/core/src/solc_0.8/defi/rewardCalculation/TwoPeriodsRewardCalculatorV2.sol:TwoPeriodsRewardCalculatorV2",
                "label": "members",
                "offset": 0,
                "slot": "0",
                "type": "t_mapping(t_address,t_bool)"
              },
              {
                "astId": 18,
                "contract": "@sandbox-smart-contracts/core/src/solc_0.8/defi/rewardCalculation/TwoPeriodsRewardCalculatorV2.sol:TwoPeriodsRewardCalculatorV2",
                "label": "adminRole",
                "offset": 0,
                "slot": "1",
                "type": "t_bytes32"
              }
            ],
            "numberOfBytes": "64"
          },
          "t_uint256": {
            "encoding": "inplace",
            "label": "uint256",
            "numberOfBytes": "32"
          }
        }
      },
      "userdoc": {
        "kind": "user",
        "methods": {
          "getFinish()": {
            "notice": "For the UI"
          },
          "getRate()": {
            "notice": "For the UI"
          },
          "getRewards()": {
            "notice": "At any point in time this function must return the accumulated rewards from last call to restartRewards"
          },
          "isCampaignRunning()": {
            "notice": "Check if some of the periods are still running"
          },
          "restartRewards()": {
            "notice": "The main contract has distributed the rewards until this point, this must start from scratch => getRewards() == 0"
          },
          "runCampaign(uint256,uint256)": {
            "notice": "This is a helper function, it is better to call setInitialCampaign or updateNextCampaign directly"
          },
          "setInitialCampaign(uint256,uint256)": {
            "notice": "Start an initial campaign, set the period1 of reward distribution, period2 rate is zero"
          },
          "setSavedRewards(uint256)": {
            "notice": "Useful when switching reward calculators to set an initial reward."
          },
          "updateCurrentCampaign(uint256,uint256)": {
            "notice": "Update the period1 (current campaign) of rate distribution, must be called after an initial campaign is set"
          },
          "updateNextCampaign(uint256,uint256)": {
            "notice": "Update the period2 of rate distribution, must be called after an initial campaign is set If period1 is running, period2 is set with the rate reward/duration. If period1 is finished it is updated with the values of period2 and period2 is set with the rate reward/duration."
          }
        },
        "notice": "This contract has two periods and two corresponding rates and durations. After an initial call that sets the first period duration and rate another call can be done to set the duration and rate for the next period. When the first period finishes, the next period becomes the current one, and then the parameters for the future next period can be set again. This way the rate for the next period can be set at any moment.",
        "version": 1
      }
    }
  }
}