{
  "@sandbox-smart-contracts/core/src/solc_0.8/defi/rules-v2/ContributionRulesV2.sol": {
    "ContributionRulesV2": {
      "abi": [
        {
          "anonymous": false,
          "inputs": [
            {
              "indexed": false,
              "internalType": "uint256",
              "name": "newERC1155MultiplierLimit",
              "type": "uint256"
            }
          ],
          "name": "ERC1155MultiplierLimitSet",
          "type": "event"
        },
        {
          "anonymous": false,
          "inputs": [
            {
              "indexed": true,
              "internalType": "address",
              "name": "contractERC1155",
              "type": "address"
            }
          ],
          "name": "ERC1155MultiplierListDeleted",
          "type": "event"
        },
        {
          "anonymous": false,
          "inputs": [
            {
              "indexed": true,
              "internalType": "address",
              "name": "contractERC1155",
              "type": "address"
            },
            {
              "indexed": false,
              "internalType": "uint256[]",
              "name": "multipliers",
              "type": "uint256[]"
            },
            {
              "indexed": false,
              "internalType": "uint256[]",
              "name": "ids",
              "type": "uint256[]"
            }
          ],
          "name": "ERC1155MultiplierListSet",
          "type": "event"
        },
        {
          "anonymous": false,
          "inputs": [
            {
              "indexed": false,
              "internalType": "uint256",
              "name": "newERC721MultiplierLimit",
              "type": "uint256"
            }
          ],
          "name": "ERC721MultiplierLimitSet",
          "type": "event"
        },
        {
          "anonymous": false,
          "inputs": [
            {
              "indexed": true,
              "internalType": "address",
              "name": "contractERC721",
              "type": "address"
            }
          ],
          "name": "ERC721MultiplierListDeleted",
          "type": "event"
        },
        {
          "anonymous": false,
          "inputs": [
            {
              "indexed": true,
              "internalType": "address",
              "name": "contractERC721",
              "type": "address"
            },
            {
              "indexed": false,
              "internalType": "uint256[]",
              "name": "multipliers",
              "type": "uint256[]"
            },
            {
              "indexed": false,
              "internalType": "uint256[]",
              "name": "ids",
              "type": "uint256[]"
            },
            {
              "indexed": false,
              "internalType": "bool",
              "name": "balanceOf",
              "type": "bool"
            }
          ],
          "name": "ERC721MultiplierListSet",
          "type": "event"
        },
        {
          "anonymous": false,
          "inputs": [
            {
              "indexed": true,
              "internalType": "address",
              "name": "previousOwner",
              "type": "address"
            },
            {
              "indexed": true,
              "internalType": "address",
              "name": "newOwner",
              "type": "address"
            }
          ],
          "name": "OwnershipTransferred",
          "type": "event"
        },
        {
          "inputs": [],
          "name": "CONTRACTS_LIMIT",
          "outputs": [
            {
              "internalType": "uint256",
              "name": "",
              "type": "uint256"
            }
          ],
          "stateMutability": "view",
          "type": "function"
        },
        {
          "inputs": [],
          "name": "IDS_LIMIT",
          "outputs": [
            {
              "internalType": "uint256",
              "name": "",
              "type": "uint256"
            }
          ],
          "stateMutability": "view",
          "type": "function"
        },
        {
          "inputs": [],
          "name": "MAX_MULTIPLIER",
          "outputs": [
            {
              "internalType": "uint256",
              "name": "",
              "type": "uint256"
            }
          ],
          "stateMutability": "view",
          "type": "function"
        },
        {
          "inputs": [
            {
              "internalType": "address",
              "name": "account",
              "type": "address"
            },
            {
              "internalType": "uint256",
              "name": "amountStaked",
              "type": "uint256"
            }
          ],
          "name": "computeMultiplier",
          "outputs": [
            {
              "internalType": "uint256",
              "name": "",
              "type": "uint256"
            }
          ],
          "stateMutability": "view",
          "type": "function"
        },
        {
          "inputs": [
            {
              "internalType": "address",
              "name": "contractERC1155",
              "type": "address"
            }
          ],
          "name": "deleteERC1155MultiplierList",
          "outputs": [],
          "stateMutability": "nonpayable",
          "type": "function"
        },
        {
          "inputs": [
            {
              "internalType": "address",
              "name": "contractERC721",
              "type": "address"
            }
          ],
          "name": "deleteERC721MultiplierList",
          "outputs": [],
          "stateMutability": "nonpayable",
          "type": "function"
        },
        {
          "inputs": [
            {
              "internalType": "address",
              "name": "reqContract",
              "type": "address"
            }
          ],
          "name": "getERC1155MultiplierList",
          "outputs": [
            {
              "components": [
                {
                  "internalType": "uint256[]",
                  "name": "ids",
                  "type": "uint256[]"
                },
                {
                  "internalType": "uint256[]",
                  "name": "multipliers",
                  "type": "uint256[]"
                },
                {
                  "internalType": "bool",
                  "name": "balanceOf",
                  "type": "bool"
                },
                {
                  "internalType": "uint256",
                  "name": "index",
                  "type": "uint256"
                }
              ],
              "internalType": "struct ContributionRulesV2.MultiplierRule",
              "name": "",
              "type": "tuple"
            }
          ],
          "stateMutability": "view",
          "type": "function"
        },
        {
          "inputs": [
            {
              "internalType": "address",
              "name": "reqContract",
              "type": "address"
            }
          ],
          "name": "getERC721MultiplierList",
          "outputs": [
            {
              "components": [
                {
                  "internalType": "uint256[]",
                  "name": "ids",
                  "type": "uint256[]"
                },
                {
                  "internalType": "uint256[]",
                  "name": "multipliers",
                  "type": "uint256[]"
                },
                {
                  "internalType": "bool",
                  "name": "balanceOf",
                  "type": "bool"
                },
                {
                  "internalType": "uint256",
                  "name": "index",
                  "type": "uint256"
                }
              ],
              "internalType": "struct ContributionRulesV2.MultiplierRule",
              "name": "",
              "type": "tuple"
            }
          ],
          "stateMutability": "view",
          "type": "function"
        },
        {
          "inputs": [
            {
              "internalType": "address",
              "name": "account",
              "type": "address"
            }
          ],
          "name": "getMaxGlobalMultiplier",
          "outputs": [
            {
              "internalType": "uint256",
              "name": "",
              "type": "uint256"
            }
          ],
          "stateMutability": "view",
          "type": "function"
        },
        {
          "inputs": [
            {
              "internalType": "contract IERC1155",
              "name": "reqContract",
              "type": "address"
            }
          ],
          "name": "isERC1155MemberMultiplierList",
          "outputs": [
            {
              "internalType": "bool",
              "name": "",
              "type": "bool"
            }
          ],
          "stateMutability": "view",
          "type": "function"
        },
        {
          "inputs": [
            {
              "internalType": "contract IERC721",
              "name": "reqContract",
              "type": "address"
            }
          ],
          "name": "isERC721MemberMultiplierList",
          "outputs": [
            {
              "internalType": "bool",
              "name": "",
              "type": "bool"
            }
          ],
          "stateMutability": "view",
          "type": "function"
        },
        {
          "inputs": [
            {
              "internalType": "address",
              "name": "account",
              "type": "address"
            }
          ],
          "name": "multiplierBalanceOfERC1155",
          "outputs": [
            {
              "internalType": "uint256",
              "name": "",
              "type": "uint256"
            }
          ],
          "stateMutability": "view",
          "type": "function"
        },
        {
          "inputs": [
            {
              "internalType": "address",
              "name": "account",
              "type": "address"
            }
          ],
          "name": "multiplierBalanceOfERC721",
          "outputs": [
            {
              "internalType": "uint256",
              "name": "",
              "type": "uint256"
            }
          ],
          "stateMutability": "view",
          "type": "function"
        },
        {
          "inputs": [],
          "name": "multiplierLimitERC1155",
          "outputs": [
            {
              "internalType": "uint256",
              "name": "",
              "type": "uint256"
            }
          ],
          "stateMutability": "view",
          "type": "function"
        },
        {
          "inputs": [],
          "name": "multiplierLimitERC721",
          "outputs": [
            {
              "internalType": "uint256",
              "name": "",
              "type": "uint256"
            }
          ],
          "stateMutability": "view",
          "type": "function"
        },
        {
          "inputs": [
            {
              "internalType": "address",
              "name": "account",
              "type": "address"
            },
            {
              "internalType": "contract IERC721",
              "name": "contractERC721",
              "type": "address"
            }
          ],
          "name": "multiplierLogarithm",
          "outputs": [
            {
              "internalType": "uint256",
              "name": "",
              "type": "uint256"
            }
          ],
          "stateMutability": "view",
          "type": "function"
        },
        {
          "inputs": [],
          "name": "owner",
          "outputs": [
            {
              "internalType": "address",
              "name": "",
              "type": "address"
            }
          ],
          "stateMutability": "view",
          "type": "function"
        },
        {
          "inputs": [],
          "name": "renounceOwnership",
          "outputs": [],
          "stateMutability": "view",
          "type": "function"
        },
        {
          "inputs": [
            {
              "internalType": "uint256",
              "name": "_newLimit",
              "type": "uint256"
            }
          ],
          "name": "setERC1155MultiplierLimit",
          "outputs": [],
          "stateMutability": "nonpayable",
          "type": "function"
        },
        {
          "inputs": [
            {
              "internalType": "address",
              "name": "contractERC1155",
              "type": "address"
            },
            {
              "internalType": "uint256[]",
              "name": "ids",
              "type": "uint256[]"
            },
            {
              "internalType": "uint256[]",
              "name": "multipliers",
              "type": "uint256[]"
            }
          ],
          "name": "setERC1155MultiplierList",
          "outputs": [],
          "stateMutability": "nonpayable",
          "type": "function"
        },
        {
          "inputs": [
            {
              "internalType": "uint256",
              "name": "_newLimit",
              "type": "uint256"
            }
          ],
          "name": "setERC721MultiplierLimit",
          "outputs": [],
          "stateMutability": "nonpayable",
          "type": "function"
        },
        {
          "inputs": [
            {
              "internalType": "address",
              "name": "contractERC721",
              "type": "address"
            },
            {
              "internalType": "uint256[]",
              "name": "ids",
              "type": "uint256[]"
            },
            {
              "internalType": "uint256[]",
              "name": "multipliers",
              "type": "uint256[]"
            },
            {
              "internalType": "bool",
              "name": "balanceOf",
              "type": "bool"
            }
          ],
          "name": "setERC721MultiplierList",
          "outputs": [],
          "stateMutability": "nonpayable",
          "type": "function"
        },
        {
          "inputs": [
            {
              "internalType": "address",
              "name": "newOwner",
              "type": "address"
            }
          ],
          "name": "transferOwnership",
          "outputs": [],
          "stateMutability": "nonpayable",
          "type": "function"
        }
      ],
      "devdoc": {
        "kind": "dev",
        "methods": {
          "computeMultiplier(address,uint256)": {
            "params": {
              "account": "account to compute the multiplier",
              "amountStaked": "amount stake for the given account"
            },
            "returns": {
              "_0": "amountStaked"
            }
          },
          "deleteERC1155MultiplierList(address)": {
            "params": {
              "contractERC1155": "contract address to be removed from the list"
            }
          },
          "deleteERC721MultiplierList(address)": {
            "params": {
              "contractERC721": "contract address to be removed from the list"
            }
          },
          "getERC1155MultiplierList(address)": {
            "params": {
              "reqContract": "ERC1155 contract address to retrieve"
            }
          },
          "getERC721MultiplierList(address)": {
            "params": {
              "reqContract": "ERC721 contract address to retrieve"
            }
          },
          "getMaxGlobalMultiplier(address)": {
            "params": {
              "account": "account address to retrieve the max multiplier"
            }
          },
          "isERC1155MemberMultiplierList(address)": {
            "params": {
              "reqContract": "contract address to check"
            },
            "returns": {
              "_0": "true if the contract is in the list"
            }
          },
          "isERC721MemberMultiplierList(address)": {
            "params": {
              "reqContract": "contract address to check"
            },
            "returns": {
              "_0": "true if the contract is in the list"
            }
          },
          "multiplierBalanceOfERC1155(address)": {
            "params": {
              "account": "user address to calculate the multiplier"
            }
          },
          "multiplierBalanceOfERC721(address)": {
            "params": {
              "account": "user address to calculate the multiplier"
            }
          },
          "multiplierLogarithm(address,address)": {
            "params": {
              "account": "user address to calculate the multiplier",
              "contractERC721": "contract address to check"
            },
            "returns": {
              "_0": "ERC721 _multiplier based on the balance"
            }
          },
          "owner()": {
            "details": "Returns the address of the current owner."
          },
          "setERC1155MultiplierLimit(uint256)": {
            "params": {
              "_newLimit": "new limit value - should be less then the max limit allowed by the system."
            }
          },
          "setERC1155MultiplierList(address,uint256[],uint256[])": {
            "params": {
              "contractERC1155": "ERC1155 contract address to add to the list",
              "ids": "ID user should hold to earn the multiplier",
              "multipliers": "multiplier applied if the user has the respective id"
            }
          },
          "setERC721MultiplierLimit(uint256)": {
            "params": {
              "_newLimit": "new limit value - should be less then the max limit allowed by the system."
            }
          },
          "setERC721MultiplierList(address,uint256[],uint256[],bool)": {
            "params": {
              "balanceOf": "if true, will use balanceOf instead of ID - id.length should be = 0",
              "contractERC721": "ERC721 contract address to add to the list",
              "ids": "ID user should hold to earn the multiplier",
              "multipliers": "multiplier applied if the user has the respective id"
            }
          },
          "transferOwnership(address)": {
            "details": "Transfers ownership of the contract to a new account (`newOwner`). Can only be called by the current owner."
          }
        },
        "version": 1
      },
      "evm": {
        "bytecode": {
          "linkReferences": {},
          "object": "60806040526103e86001556103e860025534801561001c57600080fd5b506100263361002b565b61007b565b600080546001600160a01b038381166001600160a01b0319831681178455604051919092169283917f8be0079c531659141344cd1fd0a4f28419497f9722a3daafe3b4186f6b6457e09190a35050565b61255d8061008a6000396000f3fe608060405234801561001057600080fd5b506004361061018d5760003560e01c80638da5cb5b116100e3578063d71df33b1161008c578063e5604c5611610066578063e5604c5614610313578063f2fde38b1461031c578063f47398661461032f5761018d565b8063d71df33b146102e5578063dfe8d78b146102f8578063e4c5afa41461030b5761018d565b8063c51520d7116100bd578063c51520d7146102ac578063c6ee034c146102bf578063ccf144b0146102d25761018d565b80638da5cb5b1461025b578063bb04b74914610276578063bd53c876146102995761018d565b80634eb2a85f11610145578063715018a61161011f578063715018a614610238578063723d25d91461024057806383d8a49b146102485761018d565b80634eb2a85f146102135780635d6a618d1461021c57806360423854146102255761018d565b80632dbbf782116101765780632dbbf782146101cd57806337490e5b146101e05780633f6f66f5146102005761018d565b806311b2dc1614610192578063254c77a4146101a7575b600080fd5b6101a56101a036600461223e565b610342565b005b6101ba6101b536600461209f565b610455565b6040519081526020015b60405180910390f35b6101a56101db36600461209f565b610479565b6101f36101ee36600461209f565b610710565b6040516101c49190612305565b6101ba61020e366004612213565b610909565b6101ba60015481565b6101ba6103e881565b6101a561023336600461223e565b610976565b6101a5610a7d565b6101ba604081565b6101ba61025636600461209f565b610b45565b6000546040516001600160a01b0390911681526020016101c4565b61028961028436600461209f565b610d39565b60405190151581526020016101c4565b6101f36102a736600461209f565b610da4565b6101ba6102ba3660046121db565b610f99565b6101a56102cd3660046120de565b6110cc565b6101ba6102e036600461209f565b61150c565b6101a56102f336600461209f565b6116c4565b61028961030636600461209f565b61195a565b6101ba600481565b6101ba60025481565b6101a561032a36600461209f565b6119a8565b6101a561033d366004612151565b611a8a565b6000546001600160a01b031633146103a15760405162461bcd60e51b815260206004820181905260248201527f4f776e61626c653a2063616c6c6572206973206e6f7420746865206f776e657260448201526064015b60405180910390fd5b6103e88111156104195760405162461bcd60e51b815260206004820152602360248201527f436f6e747269627574696f6e52756c65733a20696e76616c6964206e65774c6960448201527f6d697400000000000000000000000000000000000000000000000000000000006064820152608401610398565b60018190556040518181527fa8a94b42c787336b81afae8b2a2f11f8eb5f176aca98cfeb0e67f99aac0ae76a906020015b60405180910390a150565b60006104608261150c565b61046983610b45565b6104739190612361565b92915050565b806001600160a01b0381163b6104dc5760405162461bcd60e51b815260206004820152602260248201527f436f6e747269627574696f6e52756c65733a206973206e6f7420636f6e74726160448201526118dd60f21b6064820152608401610398565b816104e68161195a565b6105585760405162461bcd60e51b815260206004820152602e60248201527f436f6e747269627574696f6e52756c65733a20636f6e7472616374206973206e60448201527f6f7420696e20746865206c6973740000000000000000000000000000000000006064820152608401610398565b6000546001600160a01b031633146105b25760405162461bcd60e51b815260206004820181905260248201527f4f776e61626c653a2063616c6c6572206973206e6f7420746865206f776e65726044820152606401610398565b6001600160a01b03831660009081526004602052604081206003015460068054869391906105e2906001906124cf565b8154811061060057634e487b7160e01b600052603260045260246000fd5b600091825260209091200154600680546001600160a01b03909216925082918490811061063d57634e487b7160e01b600052603260045260246000fd5b6000918252602080832091909101805473ffffffffffffffffffffffffffffffffffffffff19166001600160a01b03948516179055918316815260049091526040902060030182905560068054806106a557634e487b7160e01b600052603160045260246000fd5b6000828152602081208201600019908101805473ffffffffffffffffffffffffffffffffffffffff191690559091019091556040516001600160a01b038516917fee22cfa3793184abd6ebfbb6c11480b34c2cef4faf388b801e80660ee64b579f91a2505050505050565b61073d60405180608001604052806060815260200160608152602001600015158152602001600081525090565b816001600160a01b0381163b6107a05760405162461bcd60e51b815260206004820152602260248201527f436f6e747269627574696f6e52756c65733a206973206e6f7420636f6e74726160448201526118dd60f21b6064820152608401610398565b826107aa8161195a565b61081c5760405162461bcd60e51b815260206004820152602e60248201527f436f6e747269627574696f6e52756c65733a20636f6e7472616374206973206e60448201527f6f7420696e20746865206c6973740000000000000000000000000000000000006064820152608401610398565b6001600160a01b0384166000908152600460209081526040918290208251815460a09381028201840190945260808101848152909391928492849184018282801561088657602002820191906000526020600020905b815481526020019060010190808311610872575b50505050508152602001600182018054806020026020016040519081016040528092919081815260200182805480156108de57602002820191906000526020600020905b8154815260200190600101908083116108ca575b5050509183525050600282015460ff1615156020820152600390910154604090910152949350505050565b60008061091584610b45565b905060006109228561150c565b90508160015410156109345760015491505b80600254101561094357506002545b606461094f8284612361565b61095990866124b0565b6109639190612379565b61096d9085612361565b95945050505050565b6000546001600160a01b031633146109d05760405162461bcd60e51b815260206004820181905260248201527f4f776e61626c653a2063616c6c6572206973206e6f7420746865206f776e65726044820152606401610398565b6103e8811115610a485760405162461bcd60e51b815260206004820152602360248201527f436f6e747269627574696f6e52756c65733a20696e76616c6964206e65774c6960448201527f6d697400000000000000000000000000000000000000000000000000000000006064820152608401610398565b60028190556040518181527fb3b5f59f1f2b30b5f1c0e5c569c9737f2557713e082b60b911ce49a28a17e1f79060200161044a565b6000546001600160a01b03163314610ad75760405162461bcd60e51b815260206004820181905260248201527f4f776e61626c653a2063616c6c6572206973206e6f7420746865206f776e65726044820152606401610398565b60405162461bcd60e51b815260206004820152602a60248201527f436f6e747269627574696f6e52756c65733a2063616e27742072656e6f756e6360448201527f654f776e657273686970000000000000000000000000000000000000000000006064820152608401610398565b6005546000908190815b81811015610d3057600060058281548110610b7a57634e487b7160e01b600052603260045260246000fd5b60009182526020808320909101546001600160a01b0316808352600390915260409091206002015490915060ff16151560011415610bcd57610bbc8682610f99565b610bc69085612361565b9350610d27565b6001600160a01b038116600090815260036020526040812054905b81811015610d24576001600160a01b03831660008181526003602052604081208054919291636352211e919085908110610c3257634e487b7160e01b600052603260045260246000fd5b90600052602060002001546040518263ffffffff1660e01b8152600401610c5b91815260200190565b60206040518083038186803b158015610c7357600080fd5b505afa158015610c87573d6000803e3d6000fd5b505050506040513d601f19601f82011682018060405250810190610cab91906120c2565b9050886001600160a01b0316816001600160a01b03161415610d1b576001600160a01b0384166000908152600360205260409020600101805483908110610d0257634e487b7160e01b600052603260045260246000fd5b906000526020600020015487610d189190612361565b96505b50600101610be8565b50505b50600101610b4f565b50909392505050565b6005546000901580159061047357506001600160a01b03821660008181526003602081905260409091200154600580549091908110610d8857634e487b7160e01b600052603260045260246000fd5b6000918252602090912001546001600160a01b03161492915050565b610dd160405180608001604052806060815260200160608152602001600015158152602001600081525090565b816001600160a01b0381163b610e345760405162461bcd60e51b815260206004820152602260248201527f436f6e747269627574696f6e52756c65733a206973206e6f7420636f6e74726160448201526118dd60f21b6064820152608401610398565b82610e3e81610d39565b610eb05760405162461bcd60e51b815260206004820152602e60248201527f436f6e747269627574696f6e52756c65733a20636f6e7472616374206973206e60448201527f6f7420696e20746865206c6973740000000000000000000000000000000000006064820152608401610398565b6001600160a01b0384166000908152600360209081526040918290208251815460a09381028201840190945260808101848152909391928492849184018282801561088657602002820191906000526020600020908154815260200190600101908083116108725750505050508152602001600182018054806020026020016040519081016040528092919081815260200182805480156108de57602002820191906000526020600020908154815260200190600101908083116108ca575050509183525050600282015460ff1615156020820152600390910154604090910152949350505050565b6040517f70a082310000000000000000000000000000000000000000000000000000000081526001600160a01b03838116600483015260009182918416906370a082319060240160206040518083038186803b158015610ff857600080fd5b505afa15801561100c573d6000803e3d6000fd5b505050506040513d601f19601f820116820180604052508101906110309190612256565b905080611041576000915050610473565b600061106e6102b96110546001856124cf565b61105e91906124b0565b611069906001612361565b611e72565b61107a90612328612361565b611086906127106124b0565b9050631dcd65008111156110bf57600a6110a4631dcd6500836124cf565b6110ae9190612379565b6110bc90631dcd6500612361565b90505b61096d6298968082612379565b6000546001600160a01b031633146111265760405162461bcd60e51b815260206004820181905260248201527f4f776e61626c653a2063616c6c6572206973206e6f7420746865206f776e65726044820152606401610398565b826001600160a01b0381163b6111895760405162461bcd60e51b815260206004820152602260248201527f436f6e747269627574696f6e52756c65733a206973206e6f7420636f6e74726160448201526118dd60f21b6064820152608401610398565b60008351116111da5760405162461bcd60e51b815260206004820152601b60248201527f436f6e747269627574696f6e52756c65733a20696473203c3d203000000000006044820152606401610398565b6040835111156112525760405162461bcd60e51b815260206004820152602760248201527f436f6e747269627574696f6e52756c65733a20696e76616c696420617272617960448201527f206f6620696473000000000000000000000000000000000000000000000000006064820152608401610398565b60008251116112c95760405162461bcd60e51b815260206004820152602f60248201527f436f6e747269627574696f6e52756c65733a20696e76616c696420617272617960448201527f206f66206d756c7469706c6965727300000000000000000000000000000000006064820152608401610398565b82518251146113405760405162461bcd60e51b815260206004820152603160248201527f436f6e747269627574696f6e52756c65733a206d756c7469706c69657273206160448201527f7272617920213d206964732061727261790000000000000000000000000000006064820152608401610398565b8361134a8161195a565b611449576006546004116113c65760405162461bcd60e51b815260206004820152602b60248201527f436f6e747269627574696f6e52756c65733a20434f4e5452414354535f4c494d60448201527f49542065786365656465640000000000000000000000000000000000000000006064820152608401610398565b600680546001808201835560008390527ff652222313e28459528d920b65115c16c04f3efc82aaedc97be59f3f377c0d3f909101805473ffffffffffffffffffffffffffffffffffffffff19166001600160a01b038516179055905461142c91906124cf565b6001600160a01b0382166000908152600460205260409020600301555b6001600160a01b0381166000908152600460209081526040909120855161147292870190611fa2565b506001600160a01b038116600090815260046020908152604090912084516114a292600190920191860190611fa2565b506001600160a01b0380821660009081526004602052604090819020600201805460ff1916905551908616907f7b486d93ca562a4cdffc23976220456f031607475580f6ffafae799291624ab2906114fd90869088906122a8565b60405180910390a25050505050565b6006546000908190815b81811015610d305760006006828154811061154157634e487b7160e01b600052603260045260246000fd5b60009182526020808320909101546001600160a01b031680835260049091526040822054909250905b818110156116b9576001600160a01b0383166000818152600460205260408120805491929162fdd58e918c91869081106115b457634e487b7160e01b600052603260045260246000fd5b6000918252602090912001546040517fffffffff0000000000000000000000000000000000000000000000000000000060e085901b1681526001600160a01b039092166004830152602482015260440160206040518083038186803b15801561161c57600080fd5b505afa158015611630573d6000803e3d6000fd5b505050506040513d601f19601f820116820180604052508101906116549190612256565b905080156116b0576001600160a01b038416600090815260046020526040902060010180548390811061169757634e487b7160e01b600052603260045260246000fd5b9060005260206000200154876116ad9190612361565b96505b5060010161156a565b505050600101611516565b806001600160a01b0381163b6117275760405162461bcd60e51b815260206004820152602260248201527f436f6e747269627574696f6e52756c65733a206973206e6f7420636f6e74726160448201526118dd60f21b6064820152608401610398565b8161173181610d39565b6117a35760405162461bcd60e51b815260206004820152602e60248201527f436f6e747269627574696f6e52756c65733a20636f6e7472616374206973206e60448201527f6f7420696e20746865206c6973740000000000000000000000000000000000006064820152608401610398565b6000546001600160a01b031633146117fd5760405162461bcd60e51b815260206004820181905260248201527f4f776e61626c653a2063616c6c6572206973206e6f7420746865206f776e65726044820152606401610398565b6001600160a01b038316600090815260036020819052604082200154600580548693919061182d906001906124cf565b8154811061184b57634e487b7160e01b600052603260045260246000fd5b600091825260209091200154600580546001600160a01b03909216925082918490811061188857634e487b7160e01b600052603260045260246000fd5b6000918252602080832091909101805473ffffffffffffffffffffffffffffffffffffffff19166001600160a01b039485161790559183168152600391829052604090200182905560058054806118ef57634e487b7160e01b600052603160045260246000fd5b6000828152602081208201600019908101805473ffffffffffffffffffffffffffffffffffffffff191690559091019091556040516001600160a01b038516917fd48581b30704212f3e5a542f84e0a344663c83bfad12110bcca49d4861f5952b91a2505050505050565b6006546000901580159061047357506001600160a01b038216600081815260046020526040902060030154600680549091908110610d8857634e487b7160e01b600052603260045260246000fd5b6000546001600160a01b03163314611a025760405162461bcd60e51b815260206004820181905260248201527f4f776e61626c653a2063616c6c6572206973206e6f7420746865206f776e65726044820152606401610398565b6001600160a01b038116611a7e5760405162461bcd60e51b815260206004820152602660248201527f4f776e61626c653a206e6577206f776e657220697320746865207a65726f206160448201527f64647265737300000000000000000000000000000000000000000000000000006064820152608401610398565b611a8781611f45565b50565b6000546001600160a01b03163314611ae45760405162461bcd60e51b815260206004820181905260248201527f4f776e61626c653a2063616c6c6572206973206e6f7420746865206f776e65726044820152606401610398565b836001600160a01b0381163b611b475760405162461bcd60e51b815260206004820152602260248201527f436f6e747269627574696f6e52756c65733a206973206e6f7420636f6e74726160448201526118dd60f21b6064820152608401610398565b81611c39576000845111611bc25760405162461bcd60e51b8152602060048201526024808201527f436f6e747269627574696f6e52756c65733a20696e76616c696420696473206160448201527f72726179000000000000000000000000000000000000000000000000000000006064820152608401610398565b8351835114611c395760405162461bcd60e51b815260206004820152603160248201527f436f6e747269627574696f6e52756c65733a2069647320617272617920213d2060448201527f6d756c7469706c696572732061727261790000000000000000000000000000006064820152608401610398565b604084511115611cb15760405162461bcd60e51b815260206004820152602760248201527f436f6e747269627574696f6e52756c65733a20696e76616c696420617272617960448201527f206f6620696473000000000000000000000000000000000000000000000000006064820152608401610398565b84611cbb81610d39565b611dbb57600554600411611d375760405162461bcd60e51b815260206004820152602b60248201527f436f6e747269627574696f6e52756c65733a20434f4e5452414354535f4c494d60448201527f49542065786365656465640000000000000000000000000000000000000000006064820152608401610398565b600580546001808201835560008390527f036b6384b5eca791c62761152d0c79bb0604c104a5fb6f4eb0703f3154bb3db0909101805473ffffffffffffffffffffffffffffffffffffffff19166001600160a01b0385161790559054611d9d91906124cf565b6001600160a01b038216600090815260036020819052604090912001555b6001600160a01b03811660009081526003602090815260409091208551611dea92600190920191870190611fa2565b506001600160a01b038116600090815260036020908152604090912060028101805460ff19168615151790558651611e2492880190611fa2565b50856001600160a01b03167fc899474e882f1c85ac4f9de43336e3796e75a275390fdec75969fa031e23b7f5858786604051611e62939291906122cd565b60405180910390a2505050505050565b6000611e82633b9aca00836124b0565b915060006003611e93846002612361565b611e9d9190612379565b90508291505b81811015611f3f579050806000611ebb6002836123df565b9050818111611f0c5760405162461bcd60e51b815260206004820152600860248201527f6f766572666c6f770000000000000000000000000000000000000000000000006044820152606401610398565b6003611f198360026124b0565b611f238387612379565b611f2d9190612361565b611f379190612379565b915050611ea3565b50919050565b600080546001600160a01b0383811673ffffffffffffffffffffffffffffffffffffffff19831681178455604051919092169283917f8be0079c531659141344cd1fd0a4f28419497f9722a3daafe3b4186f6b6457e09190a35050565b828054828255906000526020600020908101928215611fdd579160200282015b82811115611fdd578251825591602001919060010190611fc2565b50611fe9929150611fed565b5090565b5b80821115611fe95760008155600101611fee565b600082601f830112612012578081fd5b8135602067ffffffffffffffff8083111561202f5761202f6124fc565b818302604051601f19603f83011681018181108482111715612053576120536124fc565b60405284815283810192508684018288018501891015612071578687fd5b8692505b85831015612093578035845292840192600192909201918401612075565b50979650505050505050565b6000602082840312156120b0578081fd5b81356120bb81612512565b9392505050565b6000602082840312156120d3578081fd5b81516120bb81612512565b6000806000606084860312156120f2578182fd5b83356120fd81612512565b9250602084013567ffffffffffffffff80821115612119578384fd5b61212587838801612002565b9350604086013591508082111561213a578283fd5b5061214786828701612002565b9150509250925092565b60008060008060808587031215612166578081fd5b843561217181612512565b9350602085013567ffffffffffffffff8082111561218d578283fd5b61219988838901612002565b945060408701359150808211156121ae578283fd5b506121bb87828801612002565b925050606085013580151581146121d0578182fd5b939692955090935050565b600080604083850312156121ed578182fd5b82356121f881612512565b9150602083013561220881612512565b809150509250929050565b60008060408385031215612225578182fd5b823561223081612512565b946020939093013593505050565b60006020828403121561224f578081fd5b5035919050565b600060208284031215612267578081fd5b5051919050565b6000815180845260208085019450808401835b8381101561229d57815187529582019590820190600101612281565b509495945050505050565b6000604082526122bb604083018561226e565b828103602084015261096d818561226e565b6000606082526122e0606083018661226e565b82810360208401526122f2818661226e565b9150508215156040830152949350505050565b60006020825282516080602084015261232160a084018261226e565b90506020840151601f1984830301604085015261233e828261226e565b915050604084015115156060840152606084015160808401528091505092915050565b60008219821115612374576123746124e6565b500190565b60008261239457634e487b7160e01b81526012600452602481fd5b500490565b80825b60018086116123ab57506123d6565b8187048211156123bd576123bd6124e6565b808616156123ca57918102915b9490941c93800261239c565b94509492505050565b60006120bb60001960ff8516846000826123fb575060016120bb565b81612408575060006120bb565b816001811461241e576002811461242857612455565b60019150506120bb565b60ff841115612439576124396124e6565b6001841b91508482111561244f5761244f6124e6565b506120bb565b5060208310610133831016604e8410600b8410161715612488575081810a83811115612483576124836124e6565b6120bb565b6124958484846001612399565b8086048211156124a7576124a76124e6565b02949350505050565b60008160001904831182151516156124ca576124ca6124e6565b500290565b6000828210156124e1576124e16124e6565b500390565b634e487b7160e01b600052601160045260246000fd5b634e487b7160e01b600052604160045260246000fd5b6001600160a01b0381168114611a8757600080fdfea26469706673582212201d53390f74717ab0c4ebfa59b33de5fce94a84c0bac86d58186fbe6d0059324c64736f6c63430008020033",
          "opcodes": "PUSH1 0x80 PUSH1 0x40 MSTORE PUSH2 0x3E8 PUSH1 0x1 SSTORE PUSH2 0x3E8 PUSH1 0x2 SSTORE CALLVALUE DUP1 ISZERO PUSH2 0x1C JUMPI PUSH1 0x0 DUP1 REVERT JUMPDEST POP PUSH2 0x26 CALLER PUSH2 0x2B JUMP JUMPDEST PUSH2 0x7B JUMP JUMPDEST PUSH1 0x0 DUP1 SLOAD PUSH1 0x1 PUSH1 0x1 PUSH1 0xA0 SHL SUB DUP4 DUP2 AND PUSH1 0x1 PUSH1 0x1 PUSH1 0xA0 SHL SUB NOT DUP4 AND DUP2 OR DUP5 SSTORE PUSH1 0x40 MLOAD SWAP2 SWAP1 SWAP3 AND SWAP3 DUP4 SWAP2 PUSH32 0x8BE0079C531659141344CD1FD0A4F28419497F9722A3DAAFE3B4186F6B6457E0 SWAP2 SWAP1 LOG3 POP POP JUMP JUMPDEST PUSH2 0x255D DUP1 PUSH2 0x8A PUSH1 0x0 CODECOPY PUSH1 0x0 RETURN INVALID PUSH1 0x80 PUSH1 0x40 MSTORE CALLVALUE DUP1 ISZERO PUSH2 0x10 JUMPI PUSH1 0x0 DUP1 REVERT JUMPDEST POP PUSH1 0x4 CALLDATASIZE LT PUSH2 0x18D JUMPI PUSH1 0x0 CALLDATALOAD PUSH1 0xE0 SHR DUP1 PUSH4 0x8DA5CB5B GT PUSH2 0xE3 JUMPI DUP1 PUSH4 0xD71DF33B GT PUSH2 0x8C JUMPI DUP1 PUSH4 0xE5604C56 GT PUSH2 0x66 JUMPI DUP1 PUSH4 0xE5604C56 EQ PUSH2 0x313 JUMPI DUP1 PUSH4 0xF2FDE38B EQ PUSH2 0x31C JUMPI DUP1 PUSH4 0xF4739866 EQ PUSH2 0x32F JUMPI PUSH2 0x18D JUMP JUMPDEST DUP1 PUSH4 0xD71DF33B EQ PUSH2 0x2E5 JUMPI DUP1 PUSH4 0xDFE8D78B EQ PUSH2 0x2F8 JUMPI DUP1 PUSH4 0xE4C5AFA4 EQ PUSH2 0x30B JUMPI PUSH2 0x18D JUMP JUMPDEST DUP1 PUSH4 0xC51520D7 GT PUSH2 0xBD JUMPI DUP1 PUSH4 0xC51520D7 EQ PUSH2 0x2AC JUMPI DUP1 PUSH4 0xC6EE034C EQ PUSH2 0x2BF JUMPI DUP1 PUSH4 0xCCF144B0 EQ PUSH2 0x2D2 JUMPI PUSH2 0x18D JUMP JUMPDEST DUP1 PUSH4 0x8DA5CB5B EQ PUSH2 0x25B JUMPI DUP1 PUSH4 0xBB04B749 EQ PUSH2 0x276 JUMPI DUP1 PUSH4 0xBD53C876 EQ PUSH2 0x299 JUMPI PUSH2 0x18D JUMP JUMPDEST DUP1 PUSH4 0x4EB2A85F GT PUSH2 0x145 JUMPI DUP1 PUSH4 0x715018A6 GT PUSH2 0x11F JUMPI DUP1 PUSH4 0x715018A6 EQ PUSH2 0x238 JUMPI DUP1 PUSH4 0x723D25D9 EQ PUSH2 0x240 JUMPI DUP1 PUSH4 0x83D8A49B EQ PUSH2 0x248 JUMPI PUSH2 0x18D JUMP JUMPDEST DUP1 PUSH4 0x4EB2A85F EQ PUSH2 0x213 JUMPI DUP1 PUSH4 0x5D6A618D EQ PUSH2 0x21C JUMPI DUP1 PUSH4 0x60423854 EQ PUSH2 0x225 JUMPI PUSH2 0x18D JUMP JUMPDEST DUP1 PUSH4 0x2DBBF782 GT PUSH2 0x176 JUMPI DUP1 PUSH4 0x2DBBF782 EQ PUSH2 0x1CD JUMPI DUP1 PUSH4 0x37490E5B EQ PUSH2 0x1E0 JUMPI DUP1 PUSH4 0x3F6F66F5 EQ PUSH2 0x200 JUMPI PUSH2 0x18D JUMP JUMPDEST DUP1 PUSH4 0x11B2DC16 EQ PUSH2 0x192 JUMPI DUP1 PUSH4 0x254C77A4 EQ PUSH2 0x1A7 JUMPI JUMPDEST PUSH1 0x0 DUP1 REVERT JUMPDEST PUSH2 0x1A5 PUSH2 0x1A0 CALLDATASIZE PUSH1 0x4 PUSH2 0x223E JUMP JUMPDEST PUSH2 0x342 JUMP JUMPDEST STOP JUMPDEST PUSH2 0x1BA PUSH2 0x1B5 CALLDATASIZE PUSH1 0x4 PUSH2 0x209F JUMP JUMPDEST PUSH2 0x455 JUMP JUMPDEST PUSH1 0x40 MLOAD SWAP1 DUP2 MSTORE PUSH1 0x20 ADD JUMPDEST PUSH1 0x40 MLOAD DUP1 SWAP2 SUB SWAP1 RETURN JUMPDEST PUSH2 0x1A5 PUSH2 0x1DB CALLDATASIZE PUSH1 0x4 PUSH2 0x209F JUMP JUMPDEST PUSH2 0x479 JUMP JUMPDEST PUSH2 0x1F3 PUSH2 0x1EE CALLDATASIZE PUSH1 0x4 PUSH2 0x209F JUMP JUMPDEST PUSH2 0x710 JUMP JUMPDEST PUSH1 0x40 MLOAD PUSH2 0x1C4 SWAP2 SWAP1 PUSH2 0x2305 JUMP JUMPDEST PUSH2 0x1BA PUSH2 0x20E CALLDATASIZE PUSH1 0x4 PUSH2 0x2213 JUMP JUMPDEST PUSH2 0x909 JUMP JUMPDEST PUSH2 0x1BA PUSH1 0x1 SLOAD DUP2 JUMP JUMPDEST PUSH2 0x1BA PUSH2 0x3E8 DUP2 JUMP JUMPDEST PUSH2 0x1A5 PUSH2 0x233 CALLDATASIZE PUSH1 0x4 PUSH2 0x223E JUMP JUMPDEST PUSH2 0x976 JUMP JUMPDEST PUSH2 0x1A5 PUSH2 0xA7D JUMP JUMPDEST PUSH2 0x1BA PUSH1 0x40 DUP2 JUMP JUMPDEST PUSH2 0x1BA PUSH2 0x256 CALLDATASIZE PUSH1 0x4 PUSH2 0x209F JUMP JUMPDEST PUSH2 0xB45 JUMP JUMPDEST PUSH1 0x0 SLOAD PUSH1 0x40 MLOAD PUSH1 0x1 PUSH1 0x1 PUSH1 0xA0 SHL SUB SWAP1 SWAP2 AND DUP2 MSTORE PUSH1 0x20 ADD PUSH2 0x1C4 JUMP JUMPDEST PUSH2 0x289 PUSH2 0x284 CALLDATASIZE PUSH1 0x4 PUSH2 0x209F JUMP JUMPDEST PUSH2 0xD39 JUMP JUMPDEST PUSH1 0x40 MLOAD SWAP1 ISZERO ISZERO DUP2 MSTORE PUSH1 0x20 ADD PUSH2 0x1C4 JUMP JUMPDEST PUSH2 0x1F3 PUSH2 0x2A7 CALLDATASIZE PUSH1 0x4 PUSH2 0x209F JUMP JUMPDEST PUSH2 0xDA4 JUMP JUMPDEST PUSH2 0x1BA PUSH2 0x2BA CALLDATASIZE PUSH1 0x4 PUSH2 0x21DB JUMP JUMPDEST PUSH2 0xF99 JUMP JUMPDEST PUSH2 0x1A5 PUSH2 0x2CD CALLDATASIZE PUSH1 0x4 PUSH2 0x20DE JUMP JUMPDEST PUSH2 0x10CC JUMP JUMPDEST PUSH2 0x1BA PUSH2 0x2E0 CALLDATASIZE PUSH1 0x4 PUSH2 0x209F JUMP JUMPDEST PUSH2 0x150C JUMP JUMPDEST PUSH2 0x1A5 PUSH2 0x2F3 CALLDATASIZE PUSH1 0x4 PUSH2 0x209F JUMP JUMPDEST PUSH2 0x16C4 JUMP JUMPDEST PUSH2 0x289 PUSH2 0x306 CALLDATASIZE PUSH1 0x4 PUSH2 0x209F JUMP JUMPDEST PUSH2 0x195A JUMP JUMPDEST PUSH2 0x1BA PUSH1 0x4 DUP2 JUMP JUMPDEST PUSH2 0x1BA PUSH1 0x2 SLOAD DUP2 JUMP JUMPDEST PUSH2 0x1A5 PUSH2 0x32A CALLDATASIZE PUSH1 0x4 PUSH2 0x209F JUMP JUMPDEST PUSH2 0x19A8 JUMP JUMPDEST PUSH2 0x1A5 PUSH2 0x33D CALLDATASIZE PUSH1 0x4 PUSH2 0x2151 JUMP JUMPDEST PUSH2 0x1A8A JUMP JUMPDEST PUSH1 0x0 SLOAD PUSH1 0x1 PUSH1 0x1 PUSH1 0xA0 SHL SUB AND CALLER EQ PUSH2 0x3A1 JUMPI PUSH1 0x40 MLOAD PUSH3 0x461BCD PUSH1 0xE5 SHL DUP2 MSTORE PUSH1 0x20 PUSH1 0x4 DUP3 ADD DUP2 SWAP1 MSTORE PUSH1 0x24 DUP3 ADD MSTORE PUSH32 0x4F776E61626C653A2063616C6C6572206973206E6F7420746865206F776E6572 PUSH1 0x44 DUP3 ADD MSTORE PUSH1 0x64 ADD JUMPDEST PUSH1 0x40 MLOAD DUP1 SWAP2 SUB SWAP1 REVERT JUMPDEST PUSH2 0x3E8 DUP2 GT ISZERO PUSH2 0x419 JUMPI PUSH1 0x40 MLOAD PUSH3 0x461BCD PUSH1 0xE5 SHL DUP2 MSTORE PUSH1 0x20 PUSH1 0x4 DUP3 ADD MSTORE PUSH1 0x23 PUSH1 0x24 DUP3 ADD MSTORE PUSH32 0x436F6E747269627574696F6E52756C65733A20696E76616C6964206E65774C69 PUSH1 0x44 DUP3 ADD MSTORE PUSH32 0x6D69740000000000000000000000000000000000000000000000000000000000 PUSH1 0x64 DUP3 ADD MSTORE PUSH1 0x84 ADD PUSH2 0x398 JUMP JUMPDEST PUSH1 0x1 DUP2 SWAP1 SSTORE PUSH1 0x40 MLOAD DUP2 DUP2 MSTORE PUSH32 0xA8A94B42C787336B81AFAE8B2A2F11F8EB5F176ACA98CFEB0E67F99AAC0AE76A SWAP1 PUSH1 0x20 ADD JUMPDEST PUSH1 0x40 MLOAD DUP1 SWAP2 SUB SWAP1 LOG1 POP JUMP JUMPDEST PUSH1 0x0 PUSH2 0x460 DUP3 PUSH2 0x150C JUMP JUMPDEST PUSH2 0x469 DUP4 PUSH2 0xB45 JUMP JUMPDEST PUSH2 0x473 SWAP2 SWAP1 PUSH2 0x2361 JUMP JUMPDEST SWAP3 SWAP2 POP POP JUMP JUMPDEST DUP1 PUSH1 0x1 PUSH1 0x1 PUSH1 0xA0 SHL SUB DUP2 AND EXTCODESIZE PUSH2 0x4DC JUMPI PUSH1 0x40 MLOAD PUSH3 0x461BCD PUSH1 0xE5 SHL DUP2 MSTORE PUSH1 0x20 PUSH1 0x4 DUP3 ADD MSTORE PUSH1 0x22 PUSH1 0x24 DUP3 ADD MSTORE PUSH32 0x436F6E747269627574696F6E52756C65733A206973206E6F7420636F6E747261 PUSH1 0x44 DUP3 ADD MSTORE PUSH2 0x18DD PUSH1 0xF2 SHL PUSH1 0x64 DUP3 ADD MSTORE PUSH1 0x84 ADD PUSH2 0x398 JUMP JUMPDEST DUP2 PUSH2 0x4E6 DUP2 PUSH2 0x195A JUMP JUMPDEST PUSH2 0x558 JUMPI PUSH1 0x40 MLOAD PUSH3 0x461BCD PUSH1 0xE5 SHL DUP2 MSTORE PUSH1 0x20 PUSH1 0x4 DUP3 ADD MSTORE PUSH1 0x2E PUSH1 0x24 DUP3 ADD MSTORE PUSH32 0x436F6E747269627574696F6E52756C65733A20636F6E7472616374206973206E PUSH1 0x44 DUP3 ADD MSTORE PUSH32 0x6F7420696E20746865206C697374000000000000000000000000000000000000 PUSH1 0x64 DUP3 ADD MSTORE PUSH1 0x84 ADD PUSH2 0x398 JUMP JUMPDEST PUSH1 0x0 SLOAD PUSH1 0x1 PUSH1 0x1 PUSH1 0xA0 SHL SUB AND CALLER EQ PUSH2 0x5B2 JUMPI PUSH1 0x40 MLOAD PUSH3 0x461BCD PUSH1 0xE5 SHL DUP2 MSTORE PUSH1 0x20 PUSH1 0x4 DUP3 ADD DUP2 SWAP1 MSTORE PUSH1 0x24 DUP3 ADD MSTORE PUSH32 0x4F776E61626C653A2063616C6C6572206973206E6F7420746865206F776E6572 PUSH1 0x44 DUP3 ADD MSTORE PUSH1 0x64 ADD PUSH2 0x398 JUMP JUMPDEST PUSH1 0x1 PUSH1 0x1 PUSH1 0xA0 SHL SUB DUP4 AND PUSH1 0x0 SWAP1 DUP2 MSTORE PUSH1 0x4 PUSH1 0x20 MSTORE PUSH1 0x40 DUP2 KECCAK256 PUSH1 0x3 ADD SLOAD PUSH1 0x6 DUP1 SLOAD DUP7 SWAP4 SWAP2 SWAP1 PUSH2 0x5E2 SWAP1 PUSH1 0x1 SWAP1 PUSH2 0x24CF JUMP JUMPDEST DUP2 SLOAD DUP2 LT PUSH2 0x600 JUMPI PUSH4 0x4E487B71 PUSH1 0xE0 SHL PUSH1 0x0 MSTORE PUSH1 0x32 PUSH1 0x4 MSTORE PUSH1 0x24 PUSH1 0x0 REVERT JUMPDEST PUSH1 0x0 SWAP2 DUP3 MSTORE PUSH1 0x20 SWAP1 SWAP2 KECCAK256 ADD SLOAD PUSH1 0x6 DUP1 SLOAD PUSH1 0x1 PUSH1 0x1 PUSH1 0xA0 SHL SUB SWAP1 SWAP3 AND SWAP3 POP DUP3 SWAP2 DUP5 SWAP1 DUP2 LT PUSH2 0x63D JUMPI PUSH4 0x4E487B71 PUSH1 0xE0 SHL PUSH1 0x0 MSTORE PUSH1 0x32 PUSH1 0x4 MSTORE PUSH1 0x24 PUSH1 0x0 REVERT JUMPDEST PUSH1 0x0 SWAP2 DUP3 MSTORE PUSH1 0x20 DUP1 DUP4 KECCAK256 SWAP2 SWAP1 SWAP2 ADD DUP1 SLOAD PUSH20 0xFFFFFFFFFFFFFFFFFFFFFFFFFFFFFFFFFFFFFFFF NOT AND PUSH1 0x1 PUSH1 0x1 PUSH1 0xA0 SHL SUB SWAP5 DUP6 AND OR SWAP1 SSTORE SWAP2 DUP4 AND DUP2 MSTORE PUSH1 0x4 SWAP1 SWAP2 MSTORE PUSH1 0x40 SWAP1 KECCAK256 PUSH1 0x3 ADD DUP3 SWAP1 SSTORE PUSH1 0x6 DUP1 SLOAD DUP1 PUSH2 0x6A5 JUMPI PUSH4 0x4E487B71 PUSH1 0xE0 SHL PUSH1 0x0 MSTORE PUSH1 0x31 PUSH1 0x4 MSTORE PUSH1 0x24 PUSH1 0x0 REVERT JUMPDEST PUSH1 0x0 DUP3 DUP2 MSTORE PUSH1 0x20 DUP2 KECCAK256 DUP3 ADD PUSH1 0x0 NOT SWAP1 DUP2 ADD DUP1 SLOAD PUSH20 0xFFFFFFFFFFFFFFFFFFFFFFFFFFFFFFFFFFFFFFFF NOT AND SWAP1 SSTORE SWAP1 SWAP2 ADD SWAP1 SWAP2 SSTORE PUSH1 0x40 MLOAD PUSH1 0x1 PUSH1 0x1 PUSH1 0xA0 SHL SUB DUP6 AND SWAP2 PUSH32 0xEE22CFA3793184ABD6EBFBB6C11480B34C2CEF4FAF388B801E80660EE64B579F SWAP2 LOG2 POP POP POP POP POP POP JUMP JUMPDEST PUSH2 0x73D PUSH1 0x40 MLOAD DUP1 PUSH1 0x80 ADD PUSH1 0x40 MSTORE DUP1 PUSH1 0x60 DUP2 MSTORE PUSH1 0x20 ADD PUSH1 0x60 DUP2 MSTORE PUSH1 0x20 ADD PUSH1 0x0 ISZERO ISZERO DUP2 MSTORE PUSH1 0x20 ADD PUSH1 0x0 DUP2 MSTORE POP SWAP1 JUMP JUMPDEST DUP2 PUSH1 0x1 PUSH1 0x1 PUSH1 0xA0 SHL SUB DUP2 AND EXTCODESIZE PUSH2 0x7A0 JUMPI PUSH1 0x40 MLOAD PUSH3 0x461BCD PUSH1 0xE5 SHL DUP2 MSTORE PUSH1 0x20 PUSH1 0x4 DUP3 ADD MSTORE PUSH1 0x22 PUSH1 0x24 DUP3 ADD MSTORE PUSH32 0x436F6E747269627574696F6E52756C65733A206973206E6F7420636F6E747261 PUSH1 0x44 DUP3 ADD MSTORE PUSH2 0x18DD PUSH1 0xF2 SHL PUSH1 0x64 DUP3 ADD MSTORE PUSH1 0x84 ADD PUSH2 0x398 JUMP JUMPDEST DUP3 PUSH2 0x7AA DUP2 PUSH2 0x195A JUMP JUMPDEST PUSH2 0x81C JUMPI PUSH1 0x40 MLOAD PUSH3 0x461BCD PUSH1 0xE5 SHL DUP2 MSTORE PUSH1 0x20 PUSH1 0x4 DUP3 ADD MSTORE PUSH1 0x2E PUSH1 0x24 DUP3 ADD MSTORE PUSH32 0x436F6E747269627574696F6E52756C65733A20636F6E7472616374206973206E PUSH1 0x44 DUP3 ADD MSTORE PUSH32 0x6F7420696E20746865206C697374000000000000000000000000000000000000 PUSH1 0x64 DUP3 ADD MSTORE PUSH1 0x84 ADD PUSH2 0x398 JUMP JUMPDEST PUSH1 0x1 PUSH1 0x1 PUSH1 0xA0 SHL SUB DUP5 AND PUSH1 0x0 SWAP1 DUP2 MSTORE PUSH1 0x4 PUSH1 0x20 SWAP1 DUP2 MSTORE PUSH1 0x40 SWAP2 DUP3 SWAP1 KECCAK256 DUP3 MLOAD DUP2 SLOAD PUSH1 0xA0 SWAP4 DUP2 MUL DUP3 ADD DUP5 ADD SWAP1 SWAP5 MSTORE PUSH1 0x80 DUP2 ADD DUP5 DUP2 MSTORE SWAP1 SWAP4 SWAP2 SWAP3 DUP5 SWAP3 DUP5 SWAP2 DUP5 ADD DUP3 DUP3 DUP1 ISZERO PUSH2 0x886 JUMPI PUSH1 0x20 MUL DUP3 ADD SWAP2 SWAP1 PUSH1 0x0 MSTORE PUSH1 0x20 PUSH1 0x0 KECCAK256 SWAP1 JUMPDEST DUP2 SLOAD DUP2 MSTORE PUSH1 0x20 ADD SWAP1 PUSH1 0x1 ADD SWAP1 DUP1 DUP4 GT PUSH2 0x872 JUMPI JUMPDEST POP POP POP POP POP DUP2 MSTORE PUSH1 0x20 ADD PUSH1 0x1 DUP3 ADD DUP1 SLOAD DUP1 PUSH1 0x20 MUL PUSH1 0x20 ADD PUSH1 0x40 MLOAD SWAP1 DUP2 ADD PUSH1 0x40 MSTORE DUP1 SWAP3 SWAP2 SWAP1 DUP2 DUP2 MSTORE PUSH1 0x20 ADD DUP3 DUP1 SLOAD DUP1 ISZERO PUSH2 0x8DE JUMPI PUSH1 0x20 MUL DUP3 ADD SWAP2 SWAP1 PUSH1 0x0 MSTORE PUSH1 0x20 PUSH1 0x0 KECCAK256 SWAP1 JUMPDEST DUP2 SLOAD DUP2 MSTORE PUSH1 0x20 ADD SWAP1 PUSH1 0x1 ADD SWAP1 DUP1 DUP4 GT PUSH2 0x8CA JUMPI JUMPDEST POP POP POP SWAP2 DUP4 MSTORE POP POP PUSH1 0x2 DUP3 ADD SLOAD PUSH1 0xFF AND ISZERO ISZERO PUSH1 0x20 DUP3 ADD MSTORE PUSH1 0x3 SWAP1 SWAP2 ADD SLOAD PUSH1 0x40 SWAP1 SWAP2 ADD MSTORE SWAP5 SWAP4 POP POP POP POP JUMP JUMPDEST PUSH1 0x0 DUP1 PUSH2 0x915 DUP5 PUSH2 0xB45 JUMP JUMPDEST SWAP1 POP PUSH1 0x0 PUSH2 0x922 DUP6 PUSH2 0x150C JUMP JUMPDEST SWAP1 POP DUP2 PUSH1 0x1 SLOAD LT ISZERO PUSH2 0x934 JUMPI PUSH1 0x1 SLOAD SWAP2 POP JUMPDEST DUP1 PUSH1 0x2 SLOAD LT ISZERO PUSH2 0x943 JUMPI POP PUSH1 0x2 SLOAD JUMPDEST PUSH1 0x64 PUSH2 0x94F DUP3 DUP5 PUSH2 0x2361 JUMP JUMPDEST PUSH2 0x959 SWAP1 DUP7 PUSH2 0x24B0 JUMP JUMPDEST PUSH2 0x963 SWAP2 SWAP1 PUSH2 0x2379 JUMP JUMPDEST PUSH2 0x96D SWAP1 DUP6 PUSH2 0x2361 JUMP JUMPDEST SWAP6 SWAP5 POP POP POP POP POP JUMP JUMPDEST PUSH1 0x0 SLOAD PUSH1 0x1 PUSH1 0x1 PUSH1 0xA0 SHL SUB AND CALLER EQ PUSH2 0x9D0 JUMPI PUSH1 0x40 MLOAD PUSH3 0x461BCD PUSH1 0xE5 SHL DUP2 MSTORE PUSH1 0x20 PUSH1 0x4 DUP3 ADD DUP2 SWAP1 MSTORE PUSH1 0x24 DUP3 ADD MSTORE PUSH32 0x4F776E61626C653A2063616C6C6572206973206E6F7420746865206F776E6572 PUSH1 0x44 DUP3 ADD MSTORE PUSH1 0x64 ADD PUSH2 0x398 JUMP JUMPDEST PUSH2 0x3E8 DUP2 GT ISZERO PUSH2 0xA48 JUMPI PUSH1 0x40 MLOAD PUSH3 0x461BCD PUSH1 0xE5 SHL DUP2 MSTORE PUSH1 0x20 PUSH1 0x4 DUP3 ADD MSTORE PUSH1 0x23 PUSH1 0x24 DUP3 ADD MSTORE PUSH32 0x436F6E747269627574696F6E52756C65733A20696E76616C6964206E65774C69 PUSH1 0x44 DUP3 ADD MSTORE PUSH32 0x6D69740000000000000000000000000000000000000000000000000000000000 PUSH1 0x64 DUP3 ADD MSTORE PUSH1 0x84 ADD PUSH2 0x398 JUMP JUMPDEST PUSH1 0x2 DUP2 SWAP1 SSTORE PUSH1 0x40 MLOAD DUP2 DUP2 MSTORE PUSH32 0xB3B5F59F1F2B30B5F1C0E5C569C9737F2557713E082B60B911CE49A28A17E1F7 SWAP1 PUSH1 0x20 ADD PUSH2 0x44A JUMP JUMPDEST PUSH1 0x0 SLOAD PUSH1 0x1 PUSH1 0x1 PUSH1 0xA0 SHL SUB AND CALLER EQ PUSH2 0xAD7 JUMPI PUSH1 0x40 MLOAD PUSH3 0x461BCD PUSH1 0xE5 SHL DUP2 MSTORE PUSH1 0x20 PUSH1 0x4 DUP3 ADD DUP2 SWAP1 MSTORE PUSH1 0x24 DUP3 ADD MSTORE PUSH32 0x4F776E61626C653A2063616C6C6572206973206E6F7420746865206F776E6572 PUSH1 0x44 DUP3 ADD MSTORE PUSH1 0x64 ADD PUSH2 0x398 JUMP JUMPDEST PUSH1 0x40 MLOAD PUSH3 0x461BCD PUSH1 0xE5 SHL DUP2 MSTORE PUSH1 0x20 PUSH1 0x4 DUP3 ADD MSTORE PUSH1 0x2A PUSH1 0x24 DUP3 ADD MSTORE PUSH32 0x436F6E747269627574696F6E52756C65733A2063616E27742072656E6F756E63 PUSH1 0x44 DUP3 ADD MSTORE PUSH32 0x654F776E65727368697000000000000000000000000000000000000000000000 PUSH1 0x64 DUP3 ADD MSTORE PUSH1 0x84 ADD PUSH2 0x398 JUMP JUMPDEST PUSH1 0x5 SLOAD PUSH1 0x0 SWAP1 DUP2 SWAP1 DUP2 JUMPDEST DUP2 DUP2 LT ISZERO PUSH2 0xD30 JUMPI PUSH1 0x0 PUSH1 0x5 DUP3 DUP2 SLOAD DUP2 LT PUSH2 0xB7A JUMPI PUSH4 0x4E487B71 PUSH1 0xE0 SHL PUSH1 0x0 MSTORE PUSH1 0x32 PUSH1 0x4 MSTORE PUSH1 0x24 PUSH1 0x0 REVERT JUMPDEST PUSH1 0x0 SWAP2 DUP3 MSTORE PUSH1 0x20 DUP1 DUP4 KECCAK256 SWAP1 SWAP2 ADD SLOAD PUSH1 0x1 PUSH1 0x1 PUSH1 0xA0 SHL SUB AND DUP1 DUP4 MSTORE PUSH1 0x3 SWAP1 SWAP2 MSTORE PUSH1 0x40 SWAP1 SWAP2 KECCAK256 PUSH1 0x2 ADD SLOAD SWAP1 SWAP2 POP PUSH1 0xFF AND ISZERO ISZERO PUSH1 0x1 EQ ISZERO PUSH2 0xBCD JUMPI PUSH2 0xBBC DUP7 DUP3 PUSH2 0xF99 JUMP JUMPDEST PUSH2 0xBC6 SWAP1 DUP6 PUSH2 0x2361 JUMP JUMPDEST SWAP4 POP PUSH2 0xD27 JUMP JUMPDEST PUSH1 0x1 PUSH1 0x1 PUSH1 0xA0 SHL SUB DUP2 AND PUSH1 0x0 SWAP1 DUP2 MSTORE PUSH1 0x3 PUSH1 0x20 MSTORE PUSH1 0x40 DUP2 KECCAK256 SLOAD SWAP1 JUMPDEST DUP2 DUP2 LT ISZERO PUSH2 0xD24 JUMPI PUSH1 0x1 PUSH1 0x1 PUSH1 0xA0 SHL SUB DUP4 AND PUSH1 0x0 DUP2 DUP2 MSTORE PUSH1 0x3 PUSH1 0x20 MSTORE PUSH1 0x40 DUP2 KECCAK256 DUP1 SLOAD SWAP2 SWAP3 SWAP2 PUSH4 0x6352211E SWAP2 SWAP1 DUP6 SWAP1 DUP2 LT PUSH2 0xC32 JUMPI PUSH4 0x4E487B71 PUSH1 0xE0 SHL PUSH1 0x0 MSTORE PUSH1 0x32 PUSH1 0x4 MSTORE PUSH1 0x24 PUSH1 0x0 REVERT JUMPDEST SWAP1 PUSH1 0x0 MSTORE PUSH1 0x20 PUSH1 0x0 KECCAK256 ADD SLOAD PUSH1 0x40 MLOAD DUP3 PUSH4 0xFFFFFFFF AND PUSH1 0xE0 SHL DUP2 MSTORE PUSH1 0x4 ADD PUSH2 0xC5B SWAP2 DUP2 MSTORE PUSH1 0x20 ADD SWAP1 JUMP JUMPDEST PUSH1 0x20 PUSH1 0x40 MLOAD DUP1 DUP4 SUB DUP2 DUP7 DUP1 EXTCODESIZE ISZERO DUP1 ISZERO PUSH2 0xC73 JUMPI PUSH1 0x0 DUP1 REVERT JUMPDEST POP GAS STATICCALL ISZERO DUP1 ISZERO PUSH2 0xC87 JUMPI RETURNDATASIZE PUSH1 0x0 DUP1 RETURNDATACOPY RETURNDATASIZE PUSH1 0x0 REVERT JUMPDEST POP POP POP POP PUSH1 0x40 MLOAD RETURNDATASIZE PUSH1 0x1F NOT PUSH1 0x1F DUP3 ADD AND DUP3 ADD DUP1 PUSH1 0x40 MSTORE POP DUP2 ADD SWAP1 PUSH2 0xCAB SWAP2 SWAP1 PUSH2 0x20C2 JUMP JUMPDEST SWAP1 POP DUP9 PUSH1 0x1 PUSH1 0x1 PUSH1 0xA0 SHL SUB AND DUP2 PUSH1 0x1 PUSH1 0x1 PUSH1 0xA0 SHL SUB AND EQ ISZERO PUSH2 0xD1B JUMPI PUSH1 0x1 PUSH1 0x1 PUSH1 0xA0 SHL SUB DUP5 AND PUSH1 0x0 SWAP1 DUP2 MSTORE PUSH1 0x3 PUSH1 0x20 MSTORE PUSH1 0x40 SWAP1 KECCAK256 PUSH1 0x1 ADD DUP1 SLOAD DUP4 SWAP1 DUP2 LT PUSH2 0xD02 JUMPI PUSH4 0x4E487B71 PUSH1 0xE0 SHL PUSH1 0x0 MSTORE PUSH1 0x32 PUSH1 0x4 MSTORE PUSH1 0x24 PUSH1 0x0 REVERT JUMPDEST SWAP1 PUSH1 0x0 MSTORE PUSH1 0x20 PUSH1 0x0 KECCAK256 ADD SLOAD DUP8 PUSH2 0xD18 SWAP2 SWAP1 PUSH2 0x2361 JUMP JUMPDEST SWAP7 POP JUMPDEST POP PUSH1 0x1 ADD PUSH2 0xBE8 JUMP JUMPDEST POP POP JUMPDEST POP PUSH1 0x1 ADD PUSH2 0xB4F JUMP JUMPDEST POP SWAP1 SWAP4 SWAP3 POP POP POP JUMP JUMPDEST PUSH1 0x5 SLOAD PUSH1 0x0 SWAP1 ISZERO DUP1 ISZERO SWAP1 PUSH2 0x473 JUMPI POP PUSH1 0x1 PUSH1 0x1 PUSH1 0xA0 SHL SUB DUP3 AND PUSH1 0x0 DUP2 DUP2 MSTORE PUSH1 0x3 PUSH1 0x20 DUP2 SWAP1 MSTORE PUSH1 0x40 SWAP1 SWAP2 KECCAK256 ADD SLOAD PUSH1 0x5 DUP1 SLOAD SWAP1 SWAP2 SWAP1 DUP2 LT PUSH2 0xD88 JUMPI PUSH4 0x4E487B71 PUSH1 0xE0 SHL PUSH1 0x0 MSTORE PUSH1 0x32 PUSH1 0x4 MSTORE PUSH1 0x24 PUSH1 0x0 REVERT JUMPDEST PUSH1 0x0 SWAP2 DUP3 MSTORE PUSH1 0x20 SWAP1 SWAP2 KECCAK256 ADD SLOAD PUSH1 0x1 PUSH1 0x1 PUSH1 0xA0 SHL SUB AND EQ SWAP3 SWAP2 POP POP JUMP JUMPDEST PUSH2 0xDD1 PUSH1 0x40 MLOAD DUP1 PUSH1 0x80 ADD PUSH1 0x40 MSTORE DUP1 PUSH1 0x60 DUP2 MSTORE PUSH1 0x20 ADD PUSH1 0x60 DUP2 MSTORE PUSH1 0x20 ADD PUSH1 0x0 ISZERO ISZERO DUP2 MSTORE PUSH1 0x20 ADD PUSH1 0x0 DUP2 MSTORE POP SWAP1 JUMP JUMPDEST DUP2 PUSH1 0x1 PUSH1 0x1 PUSH1 0xA0 SHL SUB DUP2 AND EXTCODESIZE PUSH2 0xE34 JUMPI PUSH1 0x40 MLOAD PUSH3 0x461BCD PUSH1 0xE5 SHL DUP2 MSTORE PUSH1 0x20 PUSH1 0x4 DUP3 ADD MSTORE PUSH1 0x22 PUSH1 0x24 DUP3 ADD MSTORE PUSH32 0x436F6E747269627574696F6E52756C65733A206973206E6F7420636F6E747261 PUSH1 0x44 DUP3 ADD MSTORE PUSH2 0x18DD PUSH1 0xF2 SHL PUSH1 0x64 DUP3 ADD MSTORE PUSH1 0x84 ADD PUSH2 0x398 JUMP JUMPDEST DUP3 PUSH2 0xE3E DUP2 PUSH2 0xD39 JUMP JUMPDEST PUSH2 0xEB0 JUMPI PUSH1 0x40 MLOAD PUSH3 0x461BCD PUSH1 0xE5 SHL DUP2 MSTORE PUSH1 0x20 PUSH1 0x4 DUP3 ADD MSTORE PUSH1 0x2E PUSH1 0x24 DUP3 ADD MSTORE PUSH32 0x436F6E747269627574696F6E52756C65733A20636F6E7472616374206973206E PUSH1 0x44 DUP3 ADD MSTORE PUSH32 0x6F7420696E20746865206C697374000000000000000000000000000000000000 PUSH1 0x64 DUP3 ADD MSTORE PUSH1 0x84 ADD PUSH2 0x398 JUMP JUMPDEST PUSH1 0x1 PUSH1 0x1 PUSH1 0xA0 SHL SUB DUP5 AND PUSH1 0x0 SWAP1 DUP2 MSTORE PUSH1 0x3 PUSH1 0x20 SWAP1 DUP2 MSTORE PUSH1 0x40 SWAP2 DUP3 SWAP1 KECCAK256 DUP3 MLOAD DUP2 SLOAD PUSH1 0xA0 SWAP4 DUP2 MUL DUP3 ADD DUP5 ADD SWAP1 SWAP5 MSTORE PUSH1 0x80 DUP2 ADD DUP5 DUP2 MSTORE SWAP1 SWAP4 SWAP2 SWAP3 DUP5 SWAP3 DUP5 SWAP2 DUP5 ADD DUP3 DUP3 DUP1 ISZERO PUSH2 0x886 JUMPI PUSH1 0x20 MUL DUP3 ADD SWAP2 SWAP1 PUSH1 0x0 MSTORE PUSH1 0x20 PUSH1 0x0 KECCAK256 SWAP1 DUP2 SLOAD DUP2 MSTORE PUSH1 0x20 ADD SWAP1 PUSH1 0x1 ADD SWAP1 DUP1 DUP4 GT PUSH2 0x872 JUMPI POP POP POP POP POP DUP2 MSTORE PUSH1 0x20 ADD PUSH1 0x1 DUP3 ADD DUP1 SLOAD DUP1 PUSH1 0x20 MUL PUSH1 0x20 ADD PUSH1 0x40 MLOAD SWAP1 DUP2 ADD PUSH1 0x40 MSTORE DUP1 SWAP3 SWAP2 SWAP1 DUP2 DUP2 MSTORE PUSH1 0x20 ADD DUP3 DUP1 SLOAD DUP1 ISZERO PUSH2 0x8DE JUMPI PUSH1 0x20 MUL DUP3 ADD SWAP2 SWAP1 PUSH1 0x0 MSTORE PUSH1 0x20 PUSH1 0x0 KECCAK256 SWAP1 DUP2 SLOAD DUP2 MSTORE PUSH1 0x20 ADD SWAP1 PUSH1 0x1 ADD SWAP1 DUP1 DUP4 GT PUSH2 0x8CA JUMPI POP POP POP SWAP2 DUP4 MSTORE POP POP PUSH1 0x2 DUP3 ADD SLOAD PUSH1 0xFF AND ISZERO ISZERO PUSH1 0x20 DUP3 ADD MSTORE PUSH1 0x3 SWAP1 SWAP2 ADD SLOAD PUSH1 0x40 SWAP1 SWAP2 ADD MSTORE SWAP5 SWAP4 POP POP POP POP JUMP JUMPDEST PUSH1 0x40 MLOAD PUSH32 0x70A0823100000000000000000000000000000000000000000000000000000000 DUP2 MSTORE PUSH1 0x1 PUSH1 0x1 PUSH1 0xA0 SHL SUB DUP4 DUP2 AND PUSH1 0x4 DUP4 ADD MSTORE PUSH1 0x0 SWAP2 DUP3 SWAP2 DUP5 AND SWAP1 PUSH4 0x70A08231 SWAP1 PUSH1 0x24 ADD PUSH1 0x20 PUSH1 0x40 MLOAD DUP1 DUP4 SUB DUP2 DUP7 DUP1 EXTCODESIZE ISZERO DUP1 ISZERO PUSH2 0xFF8 JUMPI PUSH1 0x0 DUP1 REVERT JUMPDEST POP GAS STATICCALL ISZERO DUP1 ISZERO PUSH2 0x100C JUMPI RETURNDATASIZE PUSH1 0x0 DUP1 RETURNDATACOPY RETURNDATASIZE PUSH1 0x0 REVERT JUMPDEST POP POP POP POP PUSH1 0x40 MLOAD RETURNDATASIZE PUSH1 0x1F NOT PUSH1 0x1F DUP3 ADD AND DUP3 ADD DUP1 PUSH1 0x40 MSTORE POP DUP2 ADD SWAP1 PUSH2 0x1030 SWAP2 SWAP1 PUSH2 0x2256 JUMP JUMPDEST SWAP1 POP DUP1 PUSH2 0x1041 JUMPI PUSH1 0x0 SWAP2 POP POP PUSH2 0x473 JUMP JUMPDEST PUSH1 0x0 PUSH2 0x106E PUSH2 0x2B9 PUSH2 0x1054 PUSH1 0x1 DUP6 PUSH2 0x24CF JUMP JUMPDEST PUSH2 0x105E SWAP2 SWAP1 PUSH2 0x24B0 JUMP JUMPDEST PUSH2 0x1069 SWAP1 PUSH1 0x1 PUSH2 0x2361 JUMP JUMPDEST PUSH2 0x1E72 JUMP JUMPDEST PUSH2 0x107A SWAP1 PUSH2 0x2328 PUSH2 0x2361 JUMP JUMPDEST PUSH2 0x1086 SWAP1 PUSH2 0x2710 PUSH2 0x24B0 JUMP JUMPDEST SWAP1 POP PUSH4 0x1DCD6500 DUP2 GT ISZERO PUSH2 0x10BF JUMPI PUSH1 0xA PUSH2 0x10A4 PUSH4 0x1DCD6500 DUP4 PUSH2 0x24CF JUMP JUMPDEST PUSH2 0x10AE SWAP2 SWAP1 PUSH2 0x2379 JUMP JUMPDEST PUSH2 0x10BC SWAP1 PUSH4 0x1DCD6500 PUSH2 0x2361 JUMP JUMPDEST SWAP1 POP JUMPDEST PUSH2 0x96D PUSH3 0x989680 DUP3 PUSH2 0x2379 JUMP JUMPDEST PUSH1 0x0 SLOAD PUSH1 0x1 PUSH1 0x1 PUSH1 0xA0 SHL SUB AND CALLER EQ PUSH2 0x1126 JUMPI PUSH1 0x40 MLOAD PUSH3 0x461BCD PUSH1 0xE5 SHL DUP2 MSTORE PUSH1 0x20 PUSH1 0x4 DUP3 ADD DUP2 SWAP1 MSTORE PUSH1 0x24 DUP3 ADD MSTORE PUSH32 0x4F776E61626C653A2063616C6C6572206973206E6F7420746865206F776E6572 PUSH1 0x44 DUP3 ADD MSTORE PUSH1 0x64 ADD PUSH2 0x398 JUMP JUMPDEST DUP3 PUSH1 0x1 PUSH1 0x1 PUSH1 0xA0 SHL SUB DUP2 AND EXTCODESIZE PUSH2 0x1189 JUMPI PUSH1 0x40 MLOAD PUSH3 0x461BCD PUSH1 0xE5 SHL DUP2 MSTORE PUSH1 0x20 PUSH1 0x4 DUP3 ADD MSTORE PUSH1 0x22 PUSH1 0x24 DUP3 ADD MSTORE PUSH32 0x436F6E747269627574696F6E52756C65733A206973206E6F7420636F6E747261 PUSH1 0x44 DUP3 ADD MSTORE PUSH2 0x18DD PUSH1 0xF2 SHL PUSH1 0x64 DUP3 ADD MSTORE PUSH1 0x84 ADD PUSH2 0x398 JUMP JUMPDEST PUSH1 0x0 DUP4 MLOAD GT PUSH2 0x11DA JUMPI PUSH1 0x40 MLOAD PUSH3 0x461BCD PUSH1 0xE5 SHL DUP2 MSTORE PUSH1 0x20 PUSH1 0x4 DUP3 ADD MSTORE PUSH1 0x1B PUSH1 0x24 DUP3 ADD MSTORE PUSH32 0x436F6E747269627574696F6E52756C65733A20696473203C3D20300000000000 PUSH1 0x44 DUP3 ADD MSTORE PUSH1 0x64 ADD PUSH2 0x398 JUMP JUMPDEST PUSH1 0x40 DUP4 MLOAD GT ISZERO PUSH2 0x1252 JUMPI PUSH1 0x40 MLOAD PUSH3 0x461BCD PUSH1 0xE5 SHL DUP2 MSTORE PUSH1 0x20 PUSH1 0x4 DUP3 ADD MSTORE PUSH1 0x27 PUSH1 0x24 DUP3 ADD MSTORE PUSH32 0x436F6E747269627574696F6E52756C65733A20696E76616C6964206172726179 PUSH1 0x44 DUP3 ADD MSTORE PUSH32 0x206F662069647300000000000000000000000000000000000000000000000000 PUSH1 0x64 DUP3 ADD MSTORE PUSH1 0x84 ADD PUSH2 0x398 JUMP JUMPDEST PUSH1 0x0 DUP3 MLOAD GT PUSH2 0x12C9 JUMPI PUSH1 0x40 MLOAD PUSH3 0x461BCD PUSH1 0xE5 SHL DUP2 MSTORE PUSH1 0x20 PUSH1 0x4 DUP3 ADD MSTORE PUSH1 0x2F PUSH1 0x24 DUP3 ADD MSTORE PUSH32 0x436F6E747269627574696F6E52756C65733A20696E76616C6964206172726179 PUSH1 0x44 DUP3 ADD MSTORE PUSH32 0x206F66206D756C7469706C696572730000000000000000000000000000000000 PUSH1 0x64 DUP3 ADD MSTORE PUSH1 0x84 ADD PUSH2 0x398 JUMP JUMPDEST DUP3 MLOAD DUP3 MLOAD EQ PUSH2 0x1340 JUMPI PUSH1 0x40 MLOAD PUSH3 0x461BCD PUSH1 0xE5 SHL DUP2 MSTORE PUSH1 0x20 PUSH1 0x4 DUP3 ADD MSTORE PUSH1 0x31 PUSH1 0x24 DUP3 ADD MSTORE PUSH32 0x436F6E747269627574696F6E52756C65733A206D756C7469706C696572732061 PUSH1 0x44 DUP3 ADD MSTORE PUSH32 0x7272617920213D20696473206172726179000000000000000000000000000000 PUSH1 0x64 DUP3 ADD MSTORE PUSH1 0x84 ADD PUSH2 0x398 JUMP JUMPDEST DUP4 PUSH2 0x134A DUP2 PUSH2 0x195A JUMP JUMPDEST PUSH2 0x1449 JUMPI PUSH1 0x6 SLOAD PUSH1 0x4 GT PUSH2 0x13C6 JUMPI PUSH1 0x40 MLOAD PUSH3 0x461BCD PUSH1 0xE5 SHL DUP2 MSTORE PUSH1 0x20 PUSH1 0x4 DUP3 ADD MSTORE PUSH1 0x2B PUSH1 0x24 DUP3 ADD MSTORE PUSH32 0x436F6E747269627574696F6E52756C65733A20434F4E5452414354535F4C494D PUSH1 0x44 DUP3 ADD MSTORE PUSH32 0x4954206578636565646564000000000000000000000000000000000000000000 PUSH1 0x64 DUP3 ADD MSTORE PUSH1 0x84 ADD PUSH2 0x398 JUMP JUMPDEST PUSH1 0x6 DUP1 SLOAD PUSH1 0x1 DUP1 DUP3 ADD DUP4 SSTORE PUSH1 0x0 DUP4 SWAP1 MSTORE PUSH32 0xF652222313E28459528D920B65115C16C04F3EFC82AAEDC97BE59F3F377C0D3F SWAP1 SWAP2 ADD DUP1 SLOAD PUSH20 0xFFFFFFFFFFFFFFFFFFFFFFFFFFFFFFFFFFFFFFFF NOT AND PUSH1 0x1 PUSH1 0x1 PUSH1 0xA0 SHL SUB DUP6 AND OR SWAP1 SSTORE SWAP1 SLOAD PUSH2 0x142C SWAP2 SWAP1 PUSH2 0x24CF JUMP JUMPDEST PUSH1 0x1 PUSH1 0x1 PUSH1 0xA0 SHL SUB DUP3 AND PUSH1 0x0 SWAP1 DUP2 MSTORE PUSH1 0x4 PUSH1 0x20 MSTORE PUSH1 0x40 SWAP1 KECCAK256 PUSH1 0x3 ADD SSTORE JUMPDEST PUSH1 0x1 PUSH1 0x1 PUSH1 0xA0 SHL SUB DUP2 AND PUSH1 0x0 SWAP1 DUP2 MSTORE PUSH1 0x4 PUSH1 0x20 SWAP1 DUP2 MSTORE PUSH1 0x40 SWAP1 SWAP2 KECCAK256 DUP6 MLOAD PUSH2 0x1472 SWAP3 DUP8 ADD SWAP1 PUSH2 0x1FA2 JUMP JUMPDEST POP PUSH1 0x1 PUSH1 0x1 PUSH1 0xA0 SHL SUB DUP2 AND PUSH1 0x0 SWAP1 DUP2 MSTORE PUSH1 0x4 PUSH1 0x20 SWAP1 DUP2 MSTORE PUSH1 0x40 SWAP1 SWAP2 KECCAK256 DUP5 MLOAD PUSH2 0x14A2 SWAP3 PUSH1 0x1 SWAP1 SWAP3 ADD SWAP2 DUP7 ADD SWAP1 PUSH2 0x1FA2 JUMP JUMPDEST POP PUSH1 0x1 PUSH1 0x1 PUSH1 0xA0 SHL SUB DUP1 DUP3 AND PUSH1 0x0 SWAP1 DUP2 MSTORE PUSH1 0x4 PUSH1 0x20 MSTORE PUSH1 0x40 SWAP1 DUP2 SWAP1 KECCAK256 PUSH1 0x2 ADD DUP1 SLOAD PUSH1 0xFF NOT AND SWAP1 SSTORE MLOAD SWAP1 DUP7 AND SWAP1 PUSH32 0x7B486D93CA562A4CDFFC23976220456F031607475580F6FFAFAE799291624AB2 SWAP1 PUSH2 0x14FD SWAP1 DUP7 SWAP1 DUP9 SWAP1 PUSH2 0x22A8 JUMP JUMPDEST PUSH1 0x40 MLOAD DUP1 SWAP2 SUB SWAP1 LOG2 POP POP POP POP POP JUMP JUMPDEST PUSH1 0x6 SLOAD PUSH1 0x0 SWAP1 DUP2 SWAP1 DUP2 JUMPDEST DUP2 DUP2 LT ISZERO PUSH2 0xD30 JUMPI PUSH1 0x0 PUSH1 0x6 DUP3 DUP2 SLOAD DUP2 LT PUSH2 0x1541 JUMPI PUSH4 0x4E487B71 PUSH1 0xE0 SHL PUSH1 0x0 MSTORE PUSH1 0x32 PUSH1 0x4 MSTORE PUSH1 0x24 PUSH1 0x0 REVERT JUMPDEST PUSH1 0x0 SWAP2 DUP3 MSTORE PUSH1 0x20 DUP1 DUP4 KECCAK256 SWAP1 SWAP2 ADD SLOAD PUSH1 0x1 PUSH1 0x1 PUSH1 0xA0 SHL SUB AND DUP1 DUP4 MSTORE PUSH1 0x4 SWAP1 SWAP2 MSTORE PUSH1 0x40 DUP3 KECCAK256 SLOAD SWAP1 SWAP3 POP SWAP1 JUMPDEST DUP2 DUP2 LT ISZERO PUSH2 0x16B9 JUMPI PUSH1 0x1 PUSH1 0x1 PUSH1 0xA0 SHL SUB DUP4 AND PUSH1 0x0 DUP2 DUP2 MSTORE PUSH1 0x4 PUSH1 0x20 MSTORE PUSH1 0x40 DUP2 KECCAK256 DUP1 SLOAD SWAP2 SWAP3 SWAP2 PUSH3 0xFDD58E SWAP2 DUP13 SWAP2 DUP7 SWAP1 DUP2 LT PUSH2 0x15B4 JUMPI PUSH4 0x4E487B71 PUSH1 0xE0 SHL PUSH1 0x0 MSTORE PUSH1 0x32 PUSH1 0x4 MSTORE PUSH1 0x24 PUSH1 0x0 REVERT JUMPDEST PUSH1 0x0 SWAP2 DUP3 MSTORE PUSH1 0x20 SWAP1 SWAP2 KECCAK256 ADD SLOAD PUSH1 0x40 MLOAD PUSH32 0xFFFFFFFF00000000000000000000000000000000000000000000000000000000 PUSH1 0xE0 DUP6 SWAP1 SHL AND DUP2 MSTORE PUSH1 0x1 PUSH1 0x1 PUSH1 0xA0 SHL SUB SWAP1 SWAP3 AND PUSH1 0x4 DUP4 ADD MSTORE PUSH1 0x24 DUP3 ADD MSTORE PUSH1 0x44 ADD PUSH1 0x20 PUSH1 0x40 MLOAD DUP1 DUP4 SUB DUP2 DUP7 DUP1 EXTCODESIZE ISZERO DUP1 ISZERO PUSH2 0x161C JUMPI PUSH1 0x0 DUP1 REVERT JUMPDEST POP GAS STATICCALL ISZERO DUP1 ISZERO PUSH2 0x1630 JUMPI RETURNDATASIZE PUSH1 0x0 DUP1 RETURNDATACOPY RETURNDATASIZE PUSH1 0x0 REVERT JUMPDEST POP POP POP POP PUSH1 0x40 MLOAD RETURNDATASIZE PUSH1 0x1F NOT PUSH1 0x1F DUP3 ADD AND DUP3 ADD DUP1 PUSH1 0x40 MSTORE POP DUP2 ADD SWAP1 PUSH2 0x1654 SWAP2 SWAP1 PUSH2 0x2256 JUMP JUMPDEST SWAP1 POP DUP1 ISZERO PUSH2 0x16B0 JUMPI PUSH1 0x1 PUSH1 0x1 PUSH1 0xA0 SHL SUB DUP5 AND PUSH1 0x0 SWAP1 DUP2 MSTORE PUSH1 0x4 PUSH1 0x20 MSTORE PUSH1 0x40 SWAP1 KECCAK256 PUSH1 0x1 ADD DUP1 SLOAD DUP4 SWAP1 DUP2 LT PUSH2 0x1697 JUMPI PUSH4 0x4E487B71 PUSH1 0xE0 SHL PUSH1 0x0 MSTORE PUSH1 0x32 PUSH1 0x4 MSTORE PUSH1 0x24 PUSH1 0x0 REVERT JUMPDEST SWAP1 PUSH1 0x0 MSTORE PUSH1 0x20 PUSH1 0x0 KECCAK256 ADD SLOAD DUP8 PUSH2 0x16AD SWAP2 SWAP1 PUSH2 0x2361 JUMP JUMPDEST SWAP7 POP JUMPDEST POP PUSH1 0x1 ADD PUSH2 0x156A JUMP JUMPDEST POP POP POP PUSH1 0x1 ADD PUSH2 0x1516 JUMP JUMPDEST DUP1 PUSH1 0x1 PUSH1 0x1 PUSH1 0xA0 SHL SUB DUP2 AND EXTCODESIZE PUSH2 0x1727 JUMPI PUSH1 0x40 MLOAD PUSH3 0x461BCD PUSH1 0xE5 SHL DUP2 MSTORE PUSH1 0x20 PUSH1 0x4 DUP3 ADD MSTORE PUSH1 0x22 PUSH1 0x24 DUP3 ADD MSTORE PUSH32 0x436F6E747269627574696F6E52756C65733A206973206E6F7420636F6E747261 PUSH1 0x44 DUP3 ADD MSTORE PUSH2 0x18DD PUSH1 0xF2 SHL PUSH1 0x64 DUP3 ADD MSTORE PUSH1 0x84 ADD PUSH2 0x398 JUMP JUMPDEST DUP2 PUSH2 0x1731 DUP2 PUSH2 0xD39 JUMP JUMPDEST PUSH2 0x17A3 JUMPI PUSH1 0x40 MLOAD PUSH3 0x461BCD PUSH1 0xE5 SHL DUP2 MSTORE PUSH1 0x20 PUSH1 0x4 DUP3 ADD MSTORE PUSH1 0x2E PUSH1 0x24 DUP3 ADD MSTORE PUSH32 0x436F6E747269627574696F6E52756C65733A20636F6E7472616374206973206E PUSH1 0x44 DUP3 ADD MSTORE PUSH32 0x6F7420696E20746865206C697374000000000000000000000000000000000000 PUSH1 0x64 DUP3 ADD MSTORE PUSH1 0x84 ADD PUSH2 0x398 JUMP JUMPDEST PUSH1 0x0 SLOAD PUSH1 0x1 PUSH1 0x1 PUSH1 0xA0 SHL SUB AND CALLER EQ PUSH2 0x17FD JUMPI PUSH1 0x40 MLOAD PUSH3 0x461BCD PUSH1 0xE5 SHL DUP2 MSTORE PUSH1 0x20 PUSH1 0x4 DUP3 ADD DUP2 SWAP1 MSTORE PUSH1 0x24 DUP3 ADD MSTORE PUSH32 0x4F776E61626C653A2063616C6C6572206973206E6F7420746865206F776E6572 PUSH1 0x44 DUP3 ADD MSTORE PUSH1 0x64 ADD PUSH2 0x398 JUMP JUMPDEST PUSH1 0x1 PUSH1 0x1 PUSH1 0xA0 SHL SUB DUP4 AND PUSH1 0x0 SWAP1 DUP2 MSTORE PUSH1 0x3 PUSH1 0x20 DUP2 SWAP1 MSTORE PUSH1 0x40 DUP3 KECCAK256 ADD SLOAD PUSH1 0x5 DUP1 SLOAD DUP7 SWAP4 SWAP2 SWAP1 PUSH2 0x182D SWAP1 PUSH1 0x1 SWAP1 PUSH2 0x24CF JUMP JUMPDEST DUP2 SLOAD DUP2 LT PUSH2 0x184B JUMPI PUSH4 0x4E487B71 PUSH1 0xE0 SHL PUSH1 0x0 MSTORE PUSH1 0x32 PUSH1 0x4 MSTORE PUSH1 0x24 PUSH1 0x0 REVERT JUMPDEST PUSH1 0x0 SWAP2 DUP3 MSTORE PUSH1 0x20 SWAP1 SWAP2 KECCAK256 ADD SLOAD PUSH1 0x5 DUP1 SLOAD PUSH1 0x1 PUSH1 0x1 PUSH1 0xA0 SHL SUB SWAP1 SWAP3 AND SWAP3 POP DUP3 SWAP2 DUP5 SWAP1 DUP2 LT PUSH2 0x1888 JUMPI PUSH4 0x4E487B71 PUSH1 0xE0 SHL PUSH1 0x0 MSTORE PUSH1 0x32 PUSH1 0x4 MSTORE PUSH1 0x24 PUSH1 0x0 REVERT JUMPDEST PUSH1 0x0 SWAP2 DUP3 MSTORE PUSH1 0x20 DUP1 DUP4 KECCAK256 SWAP2 SWAP1 SWAP2 ADD DUP1 SLOAD PUSH20 0xFFFFFFFFFFFFFFFFFFFFFFFFFFFFFFFFFFFFFFFF NOT AND PUSH1 0x1 PUSH1 0x1 PUSH1 0xA0 SHL SUB SWAP5 DUP6 AND OR SWAP1 SSTORE SWAP2 DUP4 AND DUP2 MSTORE PUSH1 0x3 SWAP2 DUP3 SWAP1 MSTORE PUSH1 0x40 SWAP1 KECCAK256 ADD DUP3 SWAP1 SSTORE PUSH1 0x5 DUP1 SLOAD DUP1 PUSH2 0x18EF JUMPI PUSH4 0x4E487B71 PUSH1 0xE0 SHL PUSH1 0x0 MSTORE PUSH1 0x31 PUSH1 0x4 MSTORE PUSH1 0x24 PUSH1 0x0 REVERT JUMPDEST PUSH1 0x0 DUP3 DUP2 MSTORE PUSH1 0x20 DUP2 KECCAK256 DUP3 ADD PUSH1 0x0 NOT SWAP1 DUP2 ADD DUP1 SLOAD PUSH20 0xFFFFFFFFFFFFFFFFFFFFFFFFFFFFFFFFFFFFFFFF NOT AND SWAP1 SSTORE SWAP1 SWAP2 ADD SWAP1 SWAP2 SSTORE PUSH1 0x40 MLOAD PUSH1 0x1 PUSH1 0x1 PUSH1 0xA0 SHL SUB DUP6 AND SWAP2 PUSH32 0xD48581B30704212F3E5A542F84E0A344663C83BFAD12110BCCA49D4861F5952B SWAP2 LOG2 POP POP POP POP POP POP JUMP JUMPDEST PUSH1 0x6 SLOAD PUSH1 0x0 SWAP1 ISZERO DUP1 ISZERO SWAP1 PUSH2 0x473 JUMPI POP PUSH1 0x1 PUSH1 0x1 PUSH1 0xA0 SHL SUB DUP3 AND PUSH1 0x0 DUP2 DUP2 MSTORE PUSH1 0x4 PUSH1 0x20 MSTORE PUSH1 0x40 SWAP1 KECCAK256 PUSH1 0x3 ADD SLOAD PUSH1 0x6 DUP1 SLOAD SWAP1 SWAP2 SWAP1 DUP2 LT PUSH2 0xD88 JUMPI PUSH4 0x4E487B71 PUSH1 0xE0 SHL PUSH1 0x0 MSTORE PUSH1 0x32 PUSH1 0x4 MSTORE PUSH1 0x24 PUSH1 0x0 REVERT JUMPDEST PUSH1 0x0 SLOAD PUSH1 0x1 PUSH1 0x1 PUSH1 0xA0 SHL SUB AND CALLER EQ PUSH2 0x1A02 JUMPI PUSH1 0x40 MLOAD PUSH3 0x461BCD PUSH1 0xE5 SHL DUP2 MSTORE PUSH1 0x20 PUSH1 0x4 DUP3 ADD DUP2 SWAP1 MSTORE PUSH1 0x24 DUP3 ADD MSTORE PUSH32 0x4F776E61626C653A2063616C6C6572206973206E6F7420746865206F776E6572 PUSH1 0x44 DUP3 ADD MSTORE PUSH1 0x64 ADD PUSH2 0x398 JUMP JUMPDEST PUSH1 0x1 PUSH1 0x1 PUSH1 0xA0 SHL SUB DUP2 AND PUSH2 0x1A7E JUMPI PUSH1 0x40 MLOAD PUSH3 0x461BCD PUSH1 0xE5 SHL DUP2 MSTORE PUSH1 0x20 PUSH1 0x4 DUP3 ADD MSTORE PUSH1 0x26 PUSH1 0x24 DUP3 ADD MSTORE PUSH32 0x4F776E61626C653A206E6577206F776E657220697320746865207A65726F2061 PUSH1 0x44 DUP3 ADD MSTORE PUSH32 0x6464726573730000000000000000000000000000000000000000000000000000 PUSH1 0x64 DUP3 ADD MSTORE PUSH1 0x84 ADD PUSH2 0x398 JUMP JUMPDEST PUSH2 0x1A87 DUP2 PUSH2 0x1F45 JUMP JUMPDEST POP JUMP JUMPDEST PUSH1 0x0 SLOAD PUSH1 0x1 PUSH1 0x1 PUSH1 0xA0 SHL SUB AND CALLER EQ PUSH2 0x1AE4 JUMPI PUSH1 0x40 MLOAD PUSH3 0x461BCD PUSH1 0xE5 SHL DUP2 MSTORE PUSH1 0x20 PUSH1 0x4 DUP3 ADD DUP2 SWAP1 MSTORE PUSH1 0x24 DUP3 ADD MSTORE PUSH32 0x4F776E61626C653A2063616C6C6572206973206E6F7420746865206F776E6572 PUSH1 0x44 DUP3 ADD MSTORE PUSH1 0x64 ADD PUSH2 0x398 JUMP JUMPDEST DUP4 PUSH1 0x1 PUSH1 0x1 PUSH1 0xA0 SHL SUB DUP2 AND EXTCODESIZE PUSH2 0x1B47 JUMPI PUSH1 0x40 MLOAD PUSH3 0x461BCD PUSH1 0xE5 SHL DUP2 MSTORE PUSH1 0x20 PUSH1 0x4 DUP3 ADD MSTORE PUSH1 0x22 PUSH1 0x24 DUP3 ADD MSTORE PUSH32 0x436F6E747269627574696F6E52756C65733A206973206E6F7420636F6E747261 PUSH1 0x44 DUP3 ADD MSTORE PUSH2 0x18DD PUSH1 0xF2 SHL PUSH1 0x64 DUP3 ADD MSTORE PUSH1 0x84 ADD PUSH2 0x398 JUMP JUMPDEST DUP2 PUSH2 0x1C39 JUMPI PUSH1 0x0 DUP5 MLOAD GT PUSH2 0x1BC2 JUMPI PUSH1 0x40 MLOAD PUSH3 0x461BCD PUSH1 0xE5 SHL DUP2 MSTORE PUSH1 0x20 PUSH1 0x4 DUP3 ADD MSTORE PUSH1 0x24 DUP1 DUP3 ADD MSTORE PUSH32 0x436F6E747269627574696F6E52756C65733A20696E76616C6964206964732061 PUSH1 0x44 DUP3 ADD MSTORE PUSH32 0x7272617900000000000000000000000000000000000000000000000000000000 PUSH1 0x64 DUP3 ADD MSTORE PUSH1 0x84 ADD PUSH2 0x398 JUMP JUMPDEST DUP4 MLOAD DUP4 MLOAD EQ PUSH2 0x1C39 JUMPI PUSH1 0x40 MLOAD PUSH3 0x461BCD PUSH1 0xE5 SHL DUP2 MSTORE PUSH1 0x20 PUSH1 0x4 DUP3 ADD MSTORE PUSH1 0x31 PUSH1 0x24 DUP3 ADD MSTORE PUSH32 0x436F6E747269627574696F6E52756C65733A2069647320617272617920213D20 PUSH1 0x44 DUP3 ADD MSTORE PUSH32 0x6D756C7469706C69657273206172726179000000000000000000000000000000 PUSH1 0x64 DUP3 ADD MSTORE PUSH1 0x84 ADD PUSH2 0x398 JUMP JUMPDEST PUSH1 0x40 DUP5 MLOAD GT ISZERO PUSH2 0x1CB1 JUMPI PUSH1 0x40 MLOAD PUSH3 0x461BCD PUSH1 0xE5 SHL DUP2 MSTORE PUSH1 0x20 PUSH1 0x4 DUP3 ADD MSTORE PUSH1 0x27 PUSH1 0x24 DUP3 ADD MSTORE PUSH32 0x436F6E747269627574696F6E52756C65733A20696E76616C6964206172726179 PUSH1 0x44 DUP3 ADD MSTORE PUSH32 0x206F662069647300000000000000000000000000000000000000000000000000 PUSH1 0x64 DUP3 ADD MSTORE PUSH1 0x84 ADD PUSH2 0x398 JUMP JUMPDEST DUP5 PUSH2 0x1CBB DUP2 PUSH2 0xD39 JUMP JUMPDEST PUSH2 0x1DBB JUMPI PUSH1 0x5 SLOAD PUSH1 0x4 GT PUSH2 0x1D37 JUMPI PUSH1 0x40 MLOAD PUSH3 0x461BCD PUSH1 0xE5 SHL DUP2 MSTORE PUSH1 0x20 PUSH1 0x4 DUP3 ADD MSTORE PUSH1 0x2B PUSH1 0x24 DUP3 ADD MSTORE PUSH32 0x436F6E747269627574696F6E52756C65733A20434F4E5452414354535F4C494D PUSH1 0x44 DUP3 ADD MSTORE PUSH32 0x4954206578636565646564000000000000000000000000000000000000000000 PUSH1 0x64 DUP3 ADD MSTORE PUSH1 0x84 ADD PUSH2 0x398 JUMP JUMPDEST PUSH1 0x5 DUP1 SLOAD PUSH1 0x1 DUP1 DUP3 ADD DUP4 SSTORE PUSH1 0x0 DUP4 SWAP1 MSTORE PUSH32 0x36B6384B5ECA791C62761152D0C79BB0604C104A5FB6F4EB0703F3154BB3DB0 SWAP1 SWAP2 ADD DUP1 SLOAD PUSH20 0xFFFFFFFFFFFFFFFFFFFFFFFFFFFFFFFFFFFFFFFF NOT AND PUSH1 0x1 PUSH1 0x1 PUSH1 0xA0 SHL SUB DUP6 AND OR SWAP1 SSTORE SWAP1 SLOAD PUSH2 0x1D9D SWAP2 SWAP1 PUSH2 0x24CF JUMP JUMPDEST PUSH1 0x1 PUSH1 0x1 PUSH1 0xA0 SHL SUB DUP3 AND PUSH1 0x0 SWAP1 DUP2 MSTORE PUSH1 0x3 PUSH1 0x20 DUP2 SWAP1 MSTORE PUSH1 0x40 SWAP1 SWAP2 KECCAK256 ADD SSTORE JUMPDEST PUSH1 0x1 PUSH1 0x1 PUSH1 0xA0 SHL SUB DUP2 AND PUSH1 0x0 SWAP1 DUP2 MSTORE PUSH1 0x3 PUSH1 0x20 SWAP1 DUP2 MSTORE PUSH1 0x40 SWAP1 SWAP2 KECCAK256 DUP6 MLOAD PUSH2 0x1DEA SWAP3 PUSH1 0x1 SWAP1 SWAP3 ADD SWAP2 DUP8 ADD SWAP1 PUSH2 0x1FA2 JUMP JUMPDEST POP PUSH1 0x1 PUSH1 0x1 PUSH1 0xA0 SHL SUB DUP2 AND PUSH1 0x0 SWAP1 DUP2 MSTORE PUSH1 0x3 PUSH1 0x20 SWAP1 DUP2 MSTORE PUSH1 0x40 SWAP1 SWAP2 KECCAK256 PUSH1 0x2 DUP2 ADD DUP1 SLOAD PUSH1 0xFF NOT AND DUP7 ISZERO ISZERO OR SWAP1 SSTORE DUP7 MLOAD PUSH2 0x1E24 SWAP3 DUP9 ADD SWAP1 PUSH2 0x1FA2 JUMP JUMPDEST POP DUP6 PUSH1 0x1 PUSH1 0x1 PUSH1 0xA0 SHL SUB AND PUSH32 0xC899474E882F1C85AC4F9DE43336E3796E75A275390FDEC75969FA031E23B7F5 DUP6 DUP8 DUP7 PUSH1 0x40 MLOAD PUSH2 0x1E62 SWAP4 SWAP3 SWAP2 SWAP1 PUSH2 0x22CD JUMP JUMPDEST PUSH1 0x40 MLOAD DUP1 SWAP2 SUB SWAP1 LOG2 POP POP POP POP POP POP JUMP JUMPDEST PUSH1 0x0 PUSH2 0x1E82 PUSH4 0x3B9ACA00 DUP4 PUSH2 0x24B0 JUMP JUMPDEST SWAP2 POP PUSH1 0x0 PUSH1 0x3 PUSH2 0x1E93 DUP5 PUSH1 0x2 PUSH2 0x2361 JUMP JUMPDEST PUSH2 0x1E9D SWAP2 SWAP1 PUSH2 0x2379 JUMP JUMPDEST SWAP1 POP DUP3 SWAP2 POP JUMPDEST DUP2 DUP2 LT ISZERO PUSH2 0x1F3F JUMPI SWAP1 POP DUP1 PUSH1 0x0 PUSH2 0x1EBB PUSH1 0x2 DUP4 PUSH2 0x23DF JUMP JUMPDEST SWAP1 POP DUP2 DUP2 GT PUSH2 0x1F0C JUMPI PUSH1 0x40 MLOAD PUSH3 0x461BCD PUSH1 0xE5 SHL DUP2 MSTORE PUSH1 0x20 PUSH1 0x4 DUP3 ADD MSTORE PUSH1 0x8 PUSH1 0x24 DUP3 ADD MSTORE PUSH32 0x6F766572666C6F77000000000000000000000000000000000000000000000000 PUSH1 0x44 DUP3 ADD MSTORE PUSH1 0x64 ADD PUSH2 0x398 JUMP JUMPDEST PUSH1 0x3 PUSH2 0x1F19 DUP4 PUSH1 0x2 PUSH2 0x24B0 JUMP JUMPDEST PUSH2 0x1F23 DUP4 DUP8 PUSH2 0x2379 JUMP JUMPDEST PUSH2 0x1F2D SWAP2 SWAP1 PUSH2 0x2361 JUMP JUMPDEST PUSH2 0x1F37 SWAP2 SWAP1 PUSH2 0x2379 JUMP JUMPDEST SWAP2 POP POP PUSH2 0x1EA3 JUMP JUMPDEST POP SWAP2 SWAP1 POP JUMP JUMPDEST PUSH1 0x0 DUP1 SLOAD PUSH1 0x1 PUSH1 0x1 PUSH1 0xA0 SHL SUB DUP4 DUP2 AND PUSH20 0xFFFFFFFFFFFFFFFFFFFFFFFFFFFFFFFFFFFFFFFF NOT DUP4 AND DUP2 OR DUP5 SSTORE PUSH1 0x40 MLOAD SWAP2 SWAP1 SWAP3 AND SWAP3 DUP4 SWAP2 PUSH32 0x8BE0079C531659141344CD1FD0A4F28419497F9722A3DAAFE3B4186F6B6457E0 SWAP2 SWAP1 LOG3 POP POP JUMP JUMPDEST DUP3 DUP1 SLOAD DUP3 DUP3 SSTORE SWAP1 PUSH1 0x0 MSTORE PUSH1 0x20 PUSH1 0x0 KECCAK256 SWAP1 DUP2 ADD SWAP3 DUP3 ISZERO PUSH2 0x1FDD JUMPI SWAP2 PUSH1 0x20 MUL DUP3 ADD JUMPDEST DUP3 DUP2 GT ISZERO PUSH2 0x1FDD JUMPI DUP3 MLOAD DUP3 SSTORE SWAP2 PUSH1 0x20 ADD SWAP2 SWAP1 PUSH1 0x1 ADD SWAP1 PUSH2 0x1FC2 JUMP JUMPDEST POP PUSH2 0x1FE9 SWAP3 SWAP2 POP PUSH2 0x1FED JUMP JUMPDEST POP SWAP1 JUMP JUMPDEST JUMPDEST DUP1 DUP3 GT ISZERO PUSH2 0x1FE9 JUMPI PUSH1 0x0 DUP2 SSTORE PUSH1 0x1 ADD PUSH2 0x1FEE JUMP JUMPDEST PUSH1 0x0 DUP3 PUSH1 0x1F DUP4 ADD SLT PUSH2 0x2012 JUMPI DUP1 DUP2 REVERT JUMPDEST DUP2 CALLDATALOAD PUSH1 0x20 PUSH8 0xFFFFFFFFFFFFFFFF DUP1 DUP4 GT ISZERO PUSH2 0x202F JUMPI PUSH2 0x202F PUSH2 0x24FC JUMP JUMPDEST DUP2 DUP4 MUL PUSH1 0x40 MLOAD PUSH1 0x1F NOT PUSH1 0x3F DUP4 ADD AND DUP2 ADD DUP2 DUP2 LT DUP5 DUP3 GT OR ISZERO PUSH2 0x2053 JUMPI PUSH2 0x2053 PUSH2 0x24FC JUMP JUMPDEST PUSH1 0x40 MSTORE DUP5 DUP2 MSTORE DUP4 DUP2 ADD SWAP3 POP DUP7 DUP5 ADD DUP3 DUP9 ADD DUP6 ADD DUP10 LT ISZERO PUSH2 0x2071 JUMPI DUP7 DUP8 REVERT JUMPDEST DUP7 SWAP3 POP JUMPDEST DUP6 DUP4 LT ISZERO PUSH2 0x2093 JUMPI DUP1 CALLDATALOAD DUP5 MSTORE SWAP3 DUP5 ADD SWAP3 PUSH1 0x1 SWAP3 SWAP1 SWAP3 ADD SWAP2 DUP5 ADD PUSH2 0x2075 JUMP JUMPDEST POP SWAP8 SWAP7 POP POP POP POP POP POP POP JUMP JUMPDEST PUSH1 0x0 PUSH1 0x20 DUP3 DUP5 SUB SLT ISZERO PUSH2 0x20B0 JUMPI DUP1 DUP2 REVERT JUMPDEST DUP2 CALLDATALOAD PUSH2 0x20BB DUP2 PUSH2 0x2512 JUMP JUMPDEST SWAP4 SWAP3 POP POP POP JUMP JUMPDEST PUSH1 0x0 PUSH1 0x20 DUP3 DUP5 SUB SLT ISZERO PUSH2 0x20D3 JUMPI DUP1 DUP2 REVERT JUMPDEST DUP2 MLOAD PUSH2 0x20BB DUP2 PUSH2 0x2512 JUMP JUMPDEST PUSH1 0x0 DUP1 PUSH1 0x0 PUSH1 0x60 DUP5 DUP7 SUB SLT ISZERO PUSH2 0x20F2 JUMPI DUP2 DUP3 REVERT JUMPDEST DUP4 CALLDATALOAD PUSH2 0x20FD DUP2 PUSH2 0x2512 JUMP JUMPDEST SWAP3 POP PUSH1 0x20 DUP5 ADD CALLDATALOAD PUSH8 0xFFFFFFFFFFFFFFFF DUP1 DUP3 GT ISZERO PUSH2 0x2119 JUMPI DUP4 DUP5 REVERT JUMPDEST PUSH2 0x2125 DUP8 DUP4 DUP9 ADD PUSH2 0x2002 JUMP JUMPDEST SWAP4 POP PUSH1 0x40 DUP7 ADD CALLDATALOAD SWAP2 POP DUP1 DUP3 GT ISZERO PUSH2 0x213A JUMPI DUP3 DUP4 REVERT JUMPDEST POP PUSH2 0x2147 DUP7 DUP3 DUP8 ADD PUSH2 0x2002 JUMP JUMPDEST SWAP2 POP POP SWAP3 POP SWAP3 POP SWAP3 JUMP JUMPDEST PUSH1 0x0 DUP1 PUSH1 0x0 DUP1 PUSH1 0x80 DUP6 DUP8 SUB SLT ISZERO PUSH2 0x2166 JUMPI DUP1 DUP2 REVERT JUMPDEST DUP5 CALLDATALOAD PUSH2 0x2171 DUP2 PUSH2 0x2512 JUMP JUMPDEST SWAP4 POP PUSH1 0x20 DUP6 ADD CALLDATALOAD PUSH8 0xFFFFFFFFFFFFFFFF DUP1 DUP3 GT ISZERO PUSH2 0x218D JUMPI DUP3 DUP4 REVERT JUMPDEST PUSH2 0x2199 DUP9 DUP4 DUP10 ADD PUSH2 0x2002 JUMP JUMPDEST SWAP5 POP PUSH1 0x40 DUP8 ADD CALLDATALOAD SWAP2 POP DUP1 DUP3 GT ISZERO PUSH2 0x21AE JUMPI DUP3 DUP4 REVERT JUMPDEST POP PUSH2 0x21BB DUP8 DUP3 DUP9 ADD PUSH2 0x2002 JUMP JUMPDEST SWAP3 POP POP PUSH1 0x60 DUP6 ADD CALLDATALOAD DUP1 ISZERO ISZERO DUP2 EQ PUSH2 0x21D0 JUMPI DUP2 DUP3 REVERT JUMPDEST SWAP4 SWAP7 SWAP3 SWAP6 POP SWAP1 SWAP4 POP POP JUMP JUMPDEST PUSH1 0x0 DUP1 PUSH1 0x40 DUP4 DUP6 SUB SLT ISZERO PUSH2 0x21ED JUMPI DUP2 DUP3 REVERT JUMPDEST DUP3 CALLDATALOAD PUSH2 0x21F8 DUP2 PUSH2 0x2512 JUMP JUMPDEST SWAP2 POP PUSH1 0x20 DUP4 ADD CALLDATALOAD PUSH2 0x2208 DUP2 PUSH2 0x2512 JUMP JUMPDEST DUP1 SWAP2 POP POP SWAP3 POP SWAP3 SWAP1 POP JUMP JUMPDEST PUSH1 0x0 DUP1 PUSH1 0x40 DUP4 DUP6 SUB SLT ISZERO PUSH2 0x2225 JUMPI DUP2 DUP3 REVERT JUMPDEST DUP3 CALLDATALOAD PUSH2 0x2230 DUP2 PUSH2 0x2512 JUMP JUMPDEST SWAP5 PUSH1 0x20 SWAP4 SWAP1 SWAP4 ADD CALLDATALOAD SWAP4 POP POP POP JUMP JUMPDEST PUSH1 0x0 PUSH1 0x20 DUP3 DUP5 SUB SLT ISZERO PUSH2 0x224F JUMPI DUP1 DUP2 REVERT JUMPDEST POP CALLDATALOAD SWAP2 SWAP1 POP JUMP JUMPDEST PUSH1 0x0 PUSH1 0x20 DUP3 DUP5 SUB SLT ISZERO PUSH2 0x2267 JUMPI DUP1 DUP2 REVERT JUMPDEST POP MLOAD SWAP2 SWAP1 POP JUMP JUMPDEST PUSH1 0x0 DUP2 MLOAD DUP1 DUP5 MSTORE PUSH1 0x20 DUP1 DUP6 ADD SWAP5 POP DUP1 DUP5 ADD DUP4 JUMPDEST DUP4 DUP2 LT ISZERO PUSH2 0x229D JUMPI DUP2 MLOAD DUP8 MSTORE SWAP6 DUP3 ADD SWAP6 SWAP1 DUP3 ADD SWAP1 PUSH1 0x1 ADD PUSH2 0x2281 JUMP JUMPDEST POP SWAP5 SWAP6 SWAP5 POP POP POP POP POP JUMP JUMPDEST PUSH1 0x0 PUSH1 0x40 DUP3 MSTORE PUSH2 0x22BB PUSH1 0x40 DUP4 ADD DUP6 PUSH2 0x226E JUMP JUMPDEST DUP3 DUP2 SUB PUSH1 0x20 DUP5 ADD MSTORE PUSH2 0x96D DUP2 DUP6 PUSH2 0x226E JUMP JUMPDEST PUSH1 0x0 PUSH1 0x60 DUP3 MSTORE PUSH2 0x22E0 PUSH1 0x60 DUP4 ADD DUP7 PUSH2 0x226E JUMP JUMPDEST DUP3 DUP2 SUB PUSH1 0x20 DUP5 ADD MSTORE PUSH2 0x22F2 DUP2 DUP7 PUSH2 0x226E JUMP JUMPDEST SWAP2 POP POP DUP3 ISZERO ISZERO PUSH1 0x40 DUP4 ADD MSTORE SWAP5 SWAP4 POP POP POP POP JUMP JUMPDEST PUSH1 0x0 PUSH1 0x20 DUP3 MSTORE DUP3 MLOAD PUSH1 0x80 PUSH1 0x20 DUP5 ADD MSTORE PUSH2 0x2321 PUSH1 0xA0 DUP5 ADD DUP3 PUSH2 0x226E JUMP JUMPDEST SWAP1 POP PUSH1 0x20 DUP5 ADD MLOAD PUSH1 0x1F NOT DUP5 DUP4 SUB ADD PUSH1 0x40 DUP6 ADD MSTORE PUSH2 0x233E DUP3 DUP3 PUSH2 0x226E JUMP JUMPDEST SWAP2 POP POP PUSH1 0x40 DUP5 ADD MLOAD ISZERO ISZERO PUSH1 0x60 DUP5 ADD MSTORE PUSH1 0x60 DUP5 ADD MLOAD PUSH1 0x80 DUP5 ADD MSTORE DUP1 SWAP2 POP POP SWAP3 SWAP2 POP POP JUMP JUMPDEST PUSH1 0x0 DUP3 NOT DUP3 GT ISZERO PUSH2 0x2374 JUMPI PUSH2 0x2374 PUSH2 0x24E6 JUMP JUMPDEST POP ADD SWAP1 JUMP JUMPDEST PUSH1 0x0 DUP3 PUSH2 0x2394 JUMPI PUSH4 0x4E487B71 PUSH1 0xE0 SHL DUP2 MSTORE PUSH1 0x12 PUSH1 0x4 MSTORE PUSH1 0x24 DUP2 REVERT JUMPDEST POP DIV SWAP1 JUMP JUMPDEST DUP1 DUP3 JUMPDEST PUSH1 0x1 DUP1 DUP7 GT PUSH2 0x23AB JUMPI POP PUSH2 0x23D6 JUMP JUMPDEST DUP2 DUP8 DIV DUP3 GT ISZERO PUSH2 0x23BD JUMPI PUSH2 0x23BD PUSH2 0x24E6 JUMP JUMPDEST DUP1 DUP7 AND ISZERO PUSH2 0x23CA JUMPI SWAP2 DUP2 MUL SWAP2 JUMPDEST SWAP5 SWAP1 SWAP5 SHR SWAP4 DUP1 MUL PUSH2 0x239C JUMP JUMPDEST SWAP5 POP SWAP5 SWAP3 POP POP POP JUMP JUMPDEST PUSH1 0x0 PUSH2 0x20BB PUSH1 0x0 NOT PUSH1 0xFF DUP6 AND DUP5 PUSH1 0x0 DUP3 PUSH2 0x23FB JUMPI POP PUSH1 0x1 PUSH2 0x20BB JUMP JUMPDEST DUP2 PUSH2 0x2408 JUMPI POP PUSH1 0x0 PUSH2 0x20BB JUMP JUMPDEST DUP2 PUSH1 0x1 DUP2 EQ PUSH2 0x241E JUMPI PUSH1 0x2 DUP2 EQ PUSH2 0x2428 JUMPI PUSH2 0x2455 JUMP JUMPDEST PUSH1 0x1 SWAP2 POP POP PUSH2 0x20BB JUMP JUMPDEST PUSH1 0xFF DUP5 GT ISZERO PUSH2 0x2439 JUMPI PUSH2 0x2439 PUSH2 0x24E6 JUMP JUMPDEST PUSH1 0x1 DUP5 SHL SWAP2 POP DUP5 DUP3 GT ISZERO PUSH2 0x244F JUMPI PUSH2 0x244F PUSH2 0x24E6 JUMP JUMPDEST POP PUSH2 0x20BB JUMP JUMPDEST POP PUSH1 0x20 DUP4 LT PUSH2 0x133 DUP4 LT AND PUSH1 0x4E DUP5 LT PUSH1 0xB DUP5 LT AND OR ISZERO PUSH2 0x2488 JUMPI POP DUP2 DUP2 EXP DUP4 DUP2 GT ISZERO PUSH2 0x2483 JUMPI PUSH2 0x2483 PUSH2 0x24E6 JUMP JUMPDEST PUSH2 0x20BB JUMP JUMPDEST PUSH2 0x2495 DUP5 DUP5 DUP5 PUSH1 0x1 PUSH2 0x2399 JUMP JUMPDEST DUP1 DUP7 DIV DUP3 GT ISZERO PUSH2 0x24A7 JUMPI PUSH2 0x24A7 PUSH2 0x24E6 JUMP JUMPDEST MUL SWAP5 SWAP4 POP POP POP POP JUMP JUMPDEST PUSH1 0x0 DUP2 PUSH1 0x0 NOT DIV DUP4 GT DUP3 ISZERO ISZERO AND ISZERO PUSH2 0x24CA JUMPI PUSH2 0x24CA PUSH2 0x24E6 JUMP JUMPDEST POP MUL SWAP1 JUMP JUMPDEST PUSH1 0x0 DUP3 DUP3 LT ISZERO PUSH2 0x24E1 JUMPI PUSH2 0x24E1 PUSH2 0x24E6 JUMP JUMPDEST POP SUB SWAP1 JUMP JUMPDEST PUSH4 0x4E487B71 PUSH1 0xE0 SHL PUSH1 0x0 MSTORE PUSH1 0x11 PUSH1 0x4 MSTORE PUSH1 0x24 PUSH1 0x0 REVERT JUMPDEST PUSH4 0x4E487B71 PUSH1 0xE0 SHL PUSH1 0x0 MSTORE PUSH1 0x41 PUSH1 0x4 MSTORE PUSH1 0x24 PUSH1 0x0 REVERT JUMPDEST PUSH1 0x1 PUSH1 0x1 PUSH1 0xA0 SHL SUB DUP2 AND DUP2 EQ PUSH2 0x1A87 JUMPI PUSH1 0x0 DUP1 REVERT INVALID LOG2 PUSH5 0x6970667358 0x22 SLT KECCAK256 SAR MSTORE8 CODECOPY 0xF PUSH21 0x717AB0C4EBFA59B33DE5FCE94A84C0BAC86D58186F 0xBE PUSH14 0x59324C64736F6C634300080200 CALLER "
        },
        "gasEstimates": {
          "creation": {
            "codeDepositCost": "1913000",
            "executionCost": "64472",
            "totalCost": "1977472"
          },
          "external": {
            "CONTRACTS_LIMIT()": "273",
            "IDS_LIMIT()": "251",
            "MAX_MULTIPLIER()": "252",
            "computeMultiplier(address,uint256)": "infinite",
            "deleteERC1155MultiplierList(address)": "93655",
            "deleteERC721MultiplierList(address)": "93663",
            "getERC1155MultiplierList(address)": "infinite",
            "getERC721MultiplierList(address)": "infinite",
            "getMaxGlobalMultiplier(address)": "infinite",
            "isERC1155MemberMultiplierList(address)": "3884",
            "isERC721MemberMultiplierList(address)": "3891",
            "multiplierBalanceOfERC1155(address)": "infinite",
            "multiplierBalanceOfERC721(address)": "infinite",
            "multiplierLimitERC1155()": "1028",
            "multiplierLimitERC721()": "1030",
            "multiplierLogarithm(address,address)": "infinite",
            "owner()": "1047",
            "renounceOwnership()": "1155",
            "setERC1155MultiplierLimit(uint256)": "22257",
            "setERC1155MultiplierList(address,uint256[],uint256[])": "infinite",
            "setERC721MultiplierLimit(uint256)": "22203",
            "setERC721MultiplierList(address,uint256[],uint256[],bool)": "infinite",
            "transferOwnership(address)": "infinite"
          }
        },
        "methodIdentifiers": {
          "CONTRACTS_LIMIT()": "e4c5afa4",
          "IDS_LIMIT()": "723d25d9",
          "MAX_MULTIPLIER()": "5d6a618d",
          "computeMultiplier(address,uint256)": "3f6f66f5",
          "deleteERC1155MultiplierList(address)": "2dbbf782",
          "deleteERC721MultiplierList(address)": "d71df33b",
          "getERC1155MultiplierList(address)": "37490e5b",
          "getERC721MultiplierList(address)": "bd53c876",
          "getMaxGlobalMultiplier(address)": "254c77a4",
          "isERC1155MemberMultiplierList(address)": "dfe8d78b",
          "isERC721MemberMultiplierList(address)": "bb04b749",
          "multiplierBalanceOfERC1155(address)": "ccf144b0",
          "multiplierBalanceOfERC721(address)": "83d8a49b",
          "multiplierLimitERC1155()": "e5604c56",
          "multiplierLimitERC721()": "4eb2a85f",
          "multiplierLogarithm(address,address)": "c51520d7",
          "owner()": "8da5cb5b",
          "renounceOwnership()": "715018a6",
          "setERC1155MultiplierLimit(uint256)": "60423854",
          "setERC1155MultiplierList(address,uint256[],uint256[])": "c6ee034c",
          "setERC721MultiplierLimit(uint256)": "11b2dc16",
          "setERC721MultiplierList(address,uint256[],uint256[],bool)": "f4739866",
          "transferOwnership(address)": "f2fde38b"
        }
      },
      "storageLayout": {
        "storage": [
          {
            "astId": 389,
            "contract": "@sandbox-smart-contracts/core/src/solc_0.8/defi/rules-v2/ContributionRulesV2.sol:ContributionRulesV2",
            "label": "_owner",
            "offset": 0,
            "slot": "0",
            "type": "t_address"
          },
          {
            "astId": 2286,
            "contract": "@sandbox-smart-contracts/core/src/solc_0.8/defi/rules-v2/ContributionRulesV2.sol:ContributionRulesV2",
            "label": "multiplierLimitERC721",
            "offset": 0,
            "slot": "1",
            "type": "t_uint256"
          },
          {
            "astId": 2289,
            "contract": "@sandbox-smart-contracts/core/src/solc_0.8/defi/rules-v2/ContributionRulesV2.sol:ContributionRulesV2",
            "label": "multiplierLimitERC1155",
            "offset": 0,
            "slot": "2",
            "type": "t_uint256"
          },
          {
            "astId": 2321,
            "contract": "@sandbox-smart-contracts/core/src/solc_0.8/defi/rules-v2/ContributionRulesV2.sol:ContributionRulesV2",
            "label": "_listERC721",
            "offset": 0,
            "slot": "3",
            "type": "t_mapping(t_contract(IERC721)724,t_struct(MultiplierRule)2315_storage)"
          },
          {
            "astId": 2327,
            "contract": "@sandbox-smart-contracts/core/src/solc_0.8/defi/rules-v2/ContributionRulesV2.sol:ContributionRulesV2",
            "label": "_listERC1155",
            "offset": 0,
            "slot": "4",
            "type": "t_mapping(t_contract(IERC1155)608,t_struct(MultiplierRule)2315_storage)"
          },
          {
            "astId": 2331,
            "contract": "@sandbox-smart-contracts/core/src/solc_0.8/defi/rules-v2/ContributionRulesV2.sol:ContributionRulesV2",
            "label": "_listERC721Index",
            "offset": 0,
            "slot": "5",
            "type": "t_array(t_contract(IERC721)724)dyn_storage"
          },
          {
            "astId": 2335,
            "contract": "@sandbox-smart-contracts/core/src/solc_0.8/defi/rules-v2/ContributionRulesV2.sol:ContributionRulesV2",
            "label": "_listERC1155Index",
            "offset": 0,
            "slot": "6",
            "type": "t_array(t_contract(IERC1155)608)dyn_storage"
          }
        ],
        "types": {
          "t_address": {
            "encoding": "inplace",
            "label": "address",
            "numberOfBytes": "20"
          },
          "t_array(t_contract(IERC1155)608)dyn_storage": {
            "base": "t_contract(IERC1155)608",
            "encoding": "dynamic_array",
            "label": "contract IERC1155[]",
            "numberOfBytes": "32"
          },
          "t_array(t_contract(IERC721)724)dyn_storage": {
            "base": "t_contract(IERC721)724",
            "encoding": "dynamic_array",
            "label": "contract IERC721[]",
            "numberOfBytes": "32"
          },
          "t_array(t_uint256)dyn_storage": {
            "base": "t_uint256",
            "encoding": "dynamic_array",
            "label": "uint256[]",
            "numberOfBytes": "32"
          },
          "t_bool": {
            "encoding": "inplace",
            "label": "bool",
            "numberOfBytes": "1"
          },
          "t_contract(IERC1155)608": {
            "encoding": "inplace",
            "label": "contract IERC1155",
            "numberOfBytes": "20"
          },
          "t_contract(IERC721)724": {
            "encoding": "inplace",
            "label": "contract IERC721",
            "numberOfBytes": "20"
          },
          "t_mapping(t_contract(IERC1155)608,t_struct(MultiplierRule)2315_storage)": {
            "encoding": "mapping",
            "key": "t_contract(IERC1155)608",
            "label": "mapping(contract IERC1155 => struct ContributionRulesV2.MultiplierRule)",
            "numberOfBytes": "32",
            "value": "t_struct(MultiplierRule)2315_storage"
          },
          "t_mapping(t_contract(IERC721)724,t_struct(MultiplierRule)2315_storage)": {
            "encoding": "mapping",
            "key": "t_contract(IERC721)724",
            "label": "mapping(contract IERC721 => struct ContributionRulesV2.MultiplierRule)",
            "numberOfBytes": "32",
            "value": "t_struct(MultiplierRule)2315_storage"
          },
          "t_struct(MultiplierRule)2315_storage": {
            "encoding": "inplace",
            "label": "struct ContributionRulesV2.MultiplierRule",
            "members": [
              {
                "astId": 2307,
                "contract": "@sandbox-smart-contracts/core/src/solc_0.8/defi/rules-v2/ContributionRulesV2.sol:ContributionRulesV2",
                "label": "ids",
                "offset": 0,
                "slot": "0",
                "type": "t_array(t_uint256)dyn_storage"
              },
              {
                "astId": 2310,
                "contract": "@sandbox-smart-contracts/core/src/solc_0.8/defi/rules-v2/ContributionRulesV2.sol:ContributionRulesV2",
                "label": "multipliers",
                "offset": 0,
                "slot": "1",
                "type": "t_array(t_uint256)dyn_storage"
              },
              {
                "astId": 2312,
                "contract": "@sandbox-smart-contracts/core/src/solc_0.8/defi/rules-v2/ContributionRulesV2.sol:ContributionRulesV2",
                "label": "balanceOf",
                "offset": 0,
                "slot": "2",
                "type": "t_bool"
              },
              {
                "astId": 2314,
                "contract": "@sandbox-smart-contracts/core/src/solc_0.8/defi/rules-v2/ContributionRulesV2.sol:ContributionRulesV2",
                "label": "index",
                "offset": 0,
                "slot": "3",
                "type": "t_uint256"
              }
            ],
            "numberOfBytes": "128"
          },
          "t_uint256": {
            "encoding": "inplace",
            "label": "uint256",
            "numberOfBytes": "32"
          }
        }
      },
      "userdoc": {
        "kind": "user",
        "methods": {
          "computeMultiplier(address,uint256)": {
            "notice": "compute user multiplier based on the amount staked"
          },
          "deleteERC1155MultiplierList(address)": {
            "notice": "remove the given contract from the list"
          },
          "deleteERC721MultiplierList(address)": {
            "notice": "remove the given contract from the list"
          },
          "getERC1155MultiplierList(address)": {
            "notice": "return the ERC1155 multiplier list for the given contract"
          },
          "getERC721MultiplierList(address)": {
            "notice": "return the ERC721 multiplier list for the given contract"
          },
          "getMaxGlobalMultiplier(address)": {
            "notice": "Return the max multiplier for the given account"
          },
          "isERC1155MemberMultiplierList(address)": {
            "notice": "check if the given contract is in the list"
          },
          "isERC721MemberMultiplierList(address)": {
            "notice": "check if the given contract is in the list"
          },
          "multiplierBalanceOfERC1155(address)": {
            "notice": "calculate and return the ERC1155 multiplier for a given user"
          },
          "multiplierBalanceOfERC721(address)": {
            "notice": "calculate and return the ERC721 multiplier for a given user"
          },
          "multiplierLogarithm(address,address)": {
            "notice": "calculate and return the multiplier for a given user, based on the amount of the specific ERC721 he owns"
          },
          "renounceOwnership()": {
            "notice": "as admin powers are really important in this contract we're overriding the renounceOwnership method to avoid losing rights"
          },
          "setERC1155MultiplierLimit(uint256)": {
            "notice": "set a Multiplier limit a user can reach by having ERC1155 tokens"
          },
          "setERC1155MultiplierList(address,uint256[],uint256[])": {
            "notice": "set the ERC1155 Multiplier list"
          },
          "setERC721MultiplierLimit(uint256)": {
            "notice": "set a Multiplier limit a user can reach by having ERC721 tokens"
          },
          "setERC721MultiplierList(address,uint256[],uint256[],bool)": {
            "notice": "set the ERC721 Multiplier list"
          }
        },
        "notice": "The contribution rules is a plugin contract that takes the amount staked and the address of the user and returns the absolute share (contribution) that the user will get from the total rewards. The contribution rules must implement the IContributionRules interface. This interface has only one method: computeMultiplier which takes the account and amountStaked parameters and returns the contribution for this user.",
        "version": 1
      }
    }
  }
}