{
  "abi": [
    {
      "inputs": [],
      "name": "getTrustedForwarder",
      "outputs": [
        {
          "internalType": "address",
          "name": "trustedForwarder",
          "type": "address"
        }
      ],
      "stateMutability": "view",
      "type": "function"
    },
    {
      "inputs": [
        {
          "internalType": "address",
          "name": "forwarder",
          "type": "address"
        }
      ],
      "name": "isTrustedForwarder",
      "outputs": [
        {
          "internalType": "bool",
          "name": "",
          "type": "bool"
        }
      ],
      "stateMutability": "view",
      "type": "function"
    }
  ],
  "bytecode": {
    "object": "0x608060405234801561001057600080fd5b5060e98061001f6000396000f3fe6080604052348015600f57600080fd5b506004361060325760003560e01c8063572b6c05146037578063ce1b815f14606b575b600080fd5b605660423660046085565b6000546001600160a01b0391821691161490565b60405190151581526020015b60405180910390f35b6000546040516001600160a01b0390911681526020016062565b600060208284031215609657600080fd5b81356001600160a01b038116811460ac57600080fd5b939250505056fea26469706673582212205a7268759662d7a3162a710dc223005651a4d35d1f3b97bb339cfa0a4815909d64736f6c634300080f0033",
    "linkReferences": {}
  },
  "methodIdentifiers": {
    "getTrustedForwarder()": "ce1b815f",
    "isTrustedForwarder(address)": "572b6c05"
  },
  "id": 61
}