{
  "address": "0xC9dfdcC1C4FEF63cCbDc4dAdF615f996feaB51f6",
  "abi": [
    {
      "inputs": [],
      "name": "OnlyOwner",
      "type": "error"
    },
    {
      "inputs": [
        {
          "internalType": "address",
          "name": "operator",
          "type": "address"
        }
      ],
      "name": "OperatorNotAllowed",
      "type": "error"
    },
    {
      "anonymous": false,
      "inputs": [
        {
          "indexed": true,
          "internalType": "address",
          "name": "_address",
          "type": "address"
        }
      ],
      "name": "AllowedExecuteMintSet",
      "type": "event"
    },
    {
      "anonymous": false,
      "inputs": [
        {
          "indexed": true,
          "internalType": "address",
          "name": "owner",
          "type": "address"
        },
        {
          "indexed": true,
          "internalType": "address",
          "name": "approved",
          "type": "address"
        },
        {
          "indexed": true,
          "internalType": "uint256",
          "name": "tokenId",
          "type": "uint256"
        }
      ],
      "name": "Approval",
      "type": "event"
    },
    {
      "anonymous": false,
      "inputs": [
        {
          "indexed": true,
          "internalType": "address",
          "name": "owner",
          "type": "address"
        },
        {
          "indexed": true,
          "internalType": "address",
          "name": "operator",
          "type": "address"
        },
        {
          "indexed": false,
          "internalType": "bool",
          "name": "approved",
          "type": "bool"
        }
      ],
      "name": "ApprovalForAll",
      "type": "event"
    },
    {
      "anonymous": false,
      "inputs": [
        {
          "indexed": true,
          "internalType": "string",
          "name": "baseURI",
          "type": "string"
        }
      ],
      "name": "BaseURISet",
      "type": "event"
    },
    {
      "anonymous": false,
      "inputs": [
        {
          "indexed": true,
          "internalType": "uint256",
          "name": "_fromTokenId",
          "type": "uint256"
        },
        {
          "indexed": true,
          "internalType": "uint256",
          "name": "_toTokenId",
          "type": "uint256"
        }
      ],
      "name": "BatchMetadataUpdate",
      "type": "event"
    },
    {
      "anonymous": false,
      "inputs": [
        {
          "indexed": true,
          "internalType": "string",
          "name": "baseURI",
          "type": "string"
        },
        {
          "indexed": true,
          "internalType": "string",
          "name": "_name",
          "type": "string"
        },
        {
          "indexed": true,
          "internalType": "string",
          "name": "_symbol",
          "type": "string"
        },
        {
          "indexed": false,
          "internalType": "address",
          "name": "_mintTreasury",
          "type": "address"
        },
        {
          "indexed": false,
          "internalType": "address",
          "name": "_signAddress",
          "type": "address"
        },
        {
          "indexed": false,
          "internalType": "address",
          "name": "_allowedToExecuteMint",
          "type": "address"
        },
        {
          "indexed": false,
          "internalType": "uint256",
          "name": "_maxSupply",
          "type": "uint256"
        },
        {
          "indexed": false,
          "internalType": "address",
          "name": "_registry",
          "type": "address"
        },
        {
          "indexed": false,
          "internalType": "address",
          "name": "_operatorFiltererSubscription",
          "type": "address"
        },
        {
          "indexed": false,
          "internalType": "bool",
          "name": "_operatorFiltererSubscriptionSubscribe",
          "type": "bool"
        }
      ],
      "name": "ContractInitialized",
      "type": "event"
    },
    {
      "anonymous": false,
      "inputs": [
        {
          "indexed": true,
          "internalType": "uint256",
          "name": "mintPrice",
          "type": "uint256"
        },
        {
          "indexed": true,
          "internalType": "uint256",
          "name": "maxPublicTokensPerWallet",
          "type": "uint256"
        },
        {
          "indexed": true,
          "internalType": "uint256",
          "name": "maxAllowlistTokensPerWallet",
          "type": "uint256"
        },
        {
          "indexed": false,
          "internalType": "uint256",
          "name": "maxMarketingTokens",
          "type": "uint256"
        }
      ],
      "name": "DefaultMintingValuesSet",
      "type": "event"
    },
    {
      "anonymous": false,
      "inputs": [
        {
          "indexed": false,
          "internalType": "uint8",
          "name": "version",
          "type": "uint8"
        }
      ],
      "name": "Initialized",
      "type": "event"
    },
    {
      "anonymous": false,
      "inputs": [
        {
          "indexed": true,
          "internalType": "uint256",
          "name": "_tokenId",
          "type": "uint256"
        }
      ],
      "name": "MetadataUpdate",
      "type": "event"
    },
    {
      "anonymous": false,
      "inputs": [
        {
          "indexed": true,
          "internalType": "address",
          "name": "previousOwner",
          "type": "address"
        },
        {
          "indexed": true,
          "internalType": "address",
          "name": "newOwner",
          "type": "address"
        }
      ],
      "name": "OwnershipTransferStarted",
      "type": "event"
    },
    {
      "anonymous": false,
      "inputs": [
        {
          "indexed": true,
          "internalType": "address",
          "name": "previousOwner",
          "type": "address"
        },
        {
          "indexed": true,
          "internalType": "address",
          "name": "newOwner",
          "type": "address"
        }
      ],
      "name": "OwnershipTransferred",
      "type": "event"
    },
    {
      "anonymous": false,
      "inputs": [
        {
          "indexed": false,
          "internalType": "address",
          "name": "account",
          "type": "address"
        }
      ],
      "name": "Paused",
      "type": "event"
    },
    {
      "anonymous": false,
      "inputs": [
        {
          "indexed": true,
          "internalType": "uint256",
          "name": "_tokenId",
          "type": "uint256"
        },
        {
          "indexed": true,
          "internalType": "uint256",
          "name": "_personalizationMask",
          "type": "uint256"
        }
      ],
      "name": "Personalized",
      "type": "event"
    },
    {
      "anonymous": false,
      "inputs": [
        {
          "indexed": true,
          "internalType": "bytes32",
          "name": "role",
          "type": "bytes32"
        },
        {
          "indexed": true,
          "internalType": "bytes32",
          "name": "previousAdminRole",
          "type": "bytes32"
        },
        {
          "indexed": true,
          "internalType": "bytes32",
          "name": "newAdminRole",
          "type": "bytes32"
        }
      ],
      "name": "RoleAdminChanged",
      "type": "event"
    },
    {
      "anonymous": false,
      "inputs": [
        {
          "indexed": true,
          "internalType": "bytes32",
          "name": "role",
          "type": "bytes32"
        },
        {
          "indexed": true,
          "internalType": "address",
          "name": "account",
          "type": "address"
        },
        {
          "indexed": true,
          "internalType": "address",
          "name": "sender",
          "type": "address"
        }
      ],
      "name": "RoleGranted",
      "type": "event"
    },
    {
      "anonymous": false,
      "inputs": [
        {
          "indexed": true,
          "internalType": "bytes32",
          "name": "role",
          "type": "bytes32"
        },
        {
          "indexed": true,
          "internalType": "address",
          "name": "account",
          "type": "address"
        },
        {
          "indexed": true,
          "internalType": "address",
          "name": "sender",
          "type": "address"
        }
      ],
      "name": "RoleRevoked",
      "type": "event"
    },
    {
      "anonymous": false,
      "inputs": [
        {
          "indexed": true,
          "internalType": "address",
          "name": "_signAddress",
          "type": "address"
        }
      ],
      "name": "SignAddressSet",
      "type": "event"
    },
    {
      "anonymous": false,
      "inputs": [
        {
          "indexed": true,
          "internalType": "uint256",
          "name": "tokenId",
          "type": "uint256"
        },
        {
          "indexed": true,
          "internalType": "address",
          "name": "burner",
          "type": "address"
        }
      ],
      "name": "TokenBurned",
      "type": "event"
    },
    {
      "anonymous": false,
      "inputs": [],
      "name": "TokenBurningDisabled",
      "type": "event"
    },
    {
      "anonymous": false,
      "inputs": [],
      "name": "TokenBurningEnabled",
      "type": "event"
    },
    {
      "anonymous": false,
      "inputs": [
        {
          "indexed": true,
          "internalType": "address",
          "name": "from",
          "type": "address"
        },
        {
          "indexed": true,
          "internalType": "address",
          "name": "to",
          "type": "address"
        },
        {
          "indexed": true,
          "internalType": "uint256",
          "name": "tokenId",
          "type": "uint256"
        }
      ],
      "name": "Transfer",
      "type": "event"
    },
    {
      "anonymous": false,
      "inputs": [
        {
          "indexed": true,
          "internalType": "address",
          "name": "_owner",
          "type": "address"
        }
      ],
      "name": "TreasurySet",
      "type": "event"
    },
    {
      "anonymous": false,
      "inputs": [
        {
          "indexed": false,
          "internalType": "address",
          "name": "account",
          "type": "address"
        }
      ],
      "name": "Unpaused",
      "type": "event"
    },
    {
      "anonymous": false,
      "inputs": [
        {
          "indexed": true,
          "internalType": "uint256",
          "name": "_waveMaxTokens",
          "type": "uint256"
        },
        {
          "indexed": true,
          "internalType": "uint256",
          "name": "_waveMaxTokensToBuy",
          "type": "uint256"
        },
        {
          "indexed": true,
          "internalType": "uint256",
          "name": "_waveSingleTokenPrice",
          "type": "uint256"
        }
      ],
      "name": "WaveSetup",
      "type": "event"
    },
    {
      "inputs": [],
      "name": "ADMIN_ROLE",
      "outputs": [
        {
          "internalType": "bytes32",
          "name": "",
          "type": "bytes32"
        }
      ],
      "stateMutability": "view",
      "type": "function"
    },
    {
      "inputs": [],
      "name": "CONFIGURATOR_ROLE",
      "outputs": [
        {
          "internalType": "bytes32",
          "name": "",
          "type": "bytes32"
        }
      ],
      "stateMutability": "view",
      "type": "function"
    },
    {
      "inputs": [],
      "name": "DEFAULT_ADMIN_ROLE",
      "outputs": [
        {
          "internalType": "bytes32",
          "name": "",
          "type": "bytes32"
        }
      ],
      "stateMutability": "view",
      "type": "function"
    },
    {
      "inputs": [],
      "name": "DEFAULT_MINT_PRICE_FULL",
      "outputs": [
        {
          "internalType": "uint256",
          "name": "",
          "type": "uint256"
        }
      ],
      "stateMutability": "view",
      "type": "function"
    },
    {
      "inputs": [],
      "name": "TRANSFORMER_ROLE",
      "outputs": [
        {
          "internalType": "bytes32",
          "name": "",
          "type": "bytes32"
        }
      ],
      "stateMutability": "view",
      "type": "function"
    },
    {
      "inputs": [],
      "name": "acceptOwnership",
      "outputs": [],
      "stateMutability": "nonpayable",
      "type": "function"
    },
    {
      "inputs": [
        {
          "internalType": "address",
          "name": "account",
          "type": "address"
        }
      ],
      "name": "addConfigurator",
      "outputs": [],
      "stateMutability": "nonpayable",
      "type": "function"
    },
    {
      "inputs": [
        {
          "internalType": "address",
          "name": "account",
          "type": "address"
        }
      ],
      "name": "addTransformer",
      "outputs": [],
      "stateMutability": "nonpayable",
      "type": "function"
    },
    {
      "inputs": [],
      "name": "allowedToExecuteMint",
      "outputs": [
        {
          "internalType": "address",
          "name": "",
          "type": "address"
        }
      ],
      "stateMutability": "view",
      "type": "function"
    },
    {
      "inputs": [
        {
          "internalType": "address",
          "name": "operator",
          "type": "address"
        },
        {
          "internalType": "uint256",
          "name": "tokenId",
          "type": "uint256"
        }
      ],
      "name": "approve",
      "outputs": [],
      "stateMutability": "nonpayable",
      "type": "function"
    },
    {
      "inputs": [
        {
          "internalType": "address",
          "name": "owner",
          "type": "address"
        }
      ],
      "name": "balanceOf",
      "outputs": [
        {
          "internalType": "uint256",
          "name": "",
          "type": "uint256"
        }
      ],
      "stateMutability": "view",
      "type": "function"
    },
    {
      "inputs": [],
      "name": "baseTokenURI",
      "outputs": [
        {
          "internalType": "string",
          "name": "",
          "type": "string"
        }
      ],
      "stateMutability": "view",
      "type": "function"
    },
    {
      "inputs": [
        {
          "internalType": "uint256",
          "name": "tokenId",
          "type": "uint256"
        }
      ],
      "name": "burn",
      "outputs": [],
      "stateMutability": "nonpayable",
      "type": "function"
    },
    {
      "inputs": [
        {
          "internalType": "address",
          "name": "",
          "type": "address"
        },
        {
          "internalType": "uint256",
          "name": "",
          "type": "uint256"
        }
      ],
      "name": "burnedTokens",
      "outputs": [
        {
          "internalType": "uint256",
          "name": "",
          "type": "uint256"
        }
      ],
      "stateMutability": "view",
      "type": "function"
    },
    {
      "inputs": [
        {
          "internalType": "address",
          "name": "previousOwner",
          "type": "address"
        }
      ],
      "name": "burnedTokensCount",
      "outputs": [
        {
          "internalType": "uint256",
          "name": "",
          "type": "uint256"
        }
      ],
      "stateMutability": "view",
      "type": "function"
    },
    {
      "inputs": [
        {
          "internalType": "uint256",
          "name": "",
          "type": "uint256"
        }
      ],
      "name": "burner",
      "outputs": [
        {
          "internalType": "address",
          "name": "",
          "type": "address"
        }
      ],
      "stateMutability": "view",
      "type": "function"
    },
    {
      "inputs": [
        {
          "internalType": "uint256",
          "name": "tokenId",
          "type": "uint256"
        }
      ],
      "name": "burnerOf",
      "outputs": [
        {
          "internalType": "address",
          "name": "",
          "type": "address"
        }
      ],
      "stateMutability": "view",
      "type": "function"
    },
    {
      "inputs": [],
      "name": "chain",
      "outputs": [
        {
          "internalType": "uint256",
          "name": "",
          "type": "uint256"
        }
      ],
      "stateMutability": "view",
      "type": "function"
    },
    {
      "inputs": [
        {
          "internalType": "address",
          "name": "_wallet",
          "type": "address"
        },
        {
          "internalType": "uint256",
          "name": "_amount",
          "type": "uint256"
        }
      ],
      "name": "checkMintAllowed",
      "outputs": [
        {
          "internalType": "bool",
          "name": "",
          "type": "bool"
        }
      ],
      "stateMutability": "view",
      "type": "function"
    },
    {
      "inputs": [
        {
          "internalType": "address",
          "name": "previousOwner",
          "type": "address"
        }
      ],
      "name": "didBurnTokens",
      "outputs": [
        {
          "internalType": "bool",
          "name": "",
          "type": "bool"
        }
      ],
      "stateMutability": "view",
      "type": "function"
    },
    {
      "inputs": [],
      "name": "disableBurning",
      "outputs": [],
      "stateMutability": "nonpayable",
      "type": "function"
    },
    {
      "inputs": [],
      "name": "enableBurning",
      "outputs": [],
      "stateMutability": "nonpayable",
      "type": "function"
    },
    {
      "inputs": [
        {
          "internalType": "uint256",
          "name": "tokenId",
          "type": "uint256"
        }
      ],
      "name": "getApproved",
      "outputs": [
        {
          "internalType": "address",
          "name": "",
          "type": "address"
        }
      ],
      "stateMutability": "view",
      "type": "function"
    },
    {
      "inputs": [
        {
          "internalType": "bytes32",
          "name": "role",
          "type": "bytes32"
        }
      ],
      "name": "getRoleAdmin",
      "outputs": [
        {
          "internalType": "bytes32",
          "name": "",
          "type": "bytes32"
        }
      ],
      "stateMutability": "view",
      "type": "function"
    },
    {
      "inputs": [],
      "name": "getTrustedForwarder",
      "outputs": [
        {
          "internalType": "address",
          "name": "trustedForwarder",
          "type": "address"
        }
      ],
      "stateMutability": "view",
      "type": "function"
    },
    {
      "inputs": [
        {
          "internalType": "bytes32",
          "name": "role",
          "type": "bytes32"
        },
        {
          "internalType": "address",
          "name": "account",
          "type": "address"
        }
      ],
      "name": "grantRole",
      "outputs": [],
      "stateMutability": "nonpayable",
      "type": "function"
    },
    {
      "inputs": [
        {
          "internalType": "bytes32",
          "name": "role",
          "type": "bytes32"
        },
        {
          "internalType": "address",
          "name": "account",
          "type": "address"
        }
      ],
      "name": "hasRole",
      "outputs": [
        {
          "internalType": "bool",
          "name": "",
          "type": "bool"
        }
      ],
      "stateMutability": "view",
      "type": "function"
    },
    {
      "inputs": [],
      "name": "indexWave",
      "outputs": [
        {
          "internalType": "uint256",
          "name": "",
          "type": "uint256"
        }
      ],
      "stateMutability": "view",
      "type": "function"
    },
    {
      "inputs": [
        {
          "internalType": "address",
          "name": "_collectionOwner",
          "type": "address"
        },
        {
          "internalType": "string",
          "name": "_initialBaseURI",
          "type": "string"
        },
        {
          "internalType": "string",
          "name": "_name",
          "type": "string"
        },
        {
          "internalType": "string",
          "name": "_symbol",
          "type": "string"
        },
        {
          "internalType": "address payable",
          "name": "_mintTreasury",
          "type": "address"
        },
        {
          "internalType": "address",
          "name": "_signAddress",
          "type": "address"
        },
        {
          "internalType": "address",
          "name": "_initialTrustedForwarder",
          "type": "address"
        },
        {
          "internalType": "address",
          "name": "_allowedToExecuteMint",
          "type": "address"
        },
        {
          "internalType": "uint256",
          "name": "_maxSupply",
          "type": "uint256"
        },
        {
          "components": [
            {
              "internalType": "address",
              "name": "registry",
              "type": "address"
            },
            {
              "internalType": "address",
              "name": "operatorFiltererSubscription",
              "type": "address"
            },
            {
              "internalType": "bool",
              "name": "operatorFiltererSubscriptionSubscribe",
              "type": "bool"
            }
          ],
          "internalType": "struct AvatarCollection.OpenseaRegistryFilterParameters",
          "name": "_filterParams",
          "type": "tuple"
        },
        {
          "components": [
            {
              "internalType": "uint256",
              "name": "mintPrice",
              "type": "uint256"
            },
            {
              "internalType": "uint256",
              "name": "maxPublicTokensPerWallet",
              "type": "uint256"
            },
            {
              "internalType": "uint256",
              "name": "maxAllowlistTokensPerWallet",
              "type": "uint256"
            },
            {
              "internalType": "uint256",
              "name": "maxMarketingTokens",
              "type": "uint256"
            }
          ],
          "internalType": "struct AvatarCollection.MintingDefaults",
          "name": "_mintingDefaults",
          "type": "tuple"
        }
      ],
      "name": "initialize",
      "outputs": [],
      "stateMutability": "nonpayable",
      "type": "function"
    },
    {
      "inputs": [
        {
          "internalType": "address",
          "name": "owner",
          "type": "address"
        },
        {
          "internalType": "address",
          "name": "operator",
          "type": "address"
        }
      ],
      "name": "isApprovedForAll",
      "outputs": [
        {
          "internalType": "bool",
          "name": "",
          "type": "bool"
        }
      ],
      "stateMutability": "view",
      "type": "function"
    },
    {
      "inputs": [],
      "name": "isBurnEnabled",
      "outputs": [
        {
          "internalType": "bool",
          "name": "",
          "type": "bool"
        }
      ],
      "stateMutability": "view",
      "type": "function"
    },
    {
      "inputs": [
        {
          "internalType": "address",
          "name": "forwarder",
          "type": "address"
        }
      ],
      "name": "isTrustedForwarder",
      "outputs": [
        {
          "internalType": "bool",
          "name": "",
          "type": "bool"
        }
      ],
      "stateMutability": "view",
      "type": "function"
    },
    {
      "inputs": [],
      "name": "maxSupply",
      "outputs": [
        {
          "internalType": "uint256",
          "name": "",
          "type": "uint256"
        }
      ],
      "stateMutability": "view",
      "type": "function"
    },
    {
      "inputs": [
        {
          "internalType": "address",
          "name": "_wallet",
          "type": "address"
        },
        {
          "internalType": "uint256",
          "name": "_amount",
          "type": "uint256"
        },
        {
          "internalType": "uint256",
          "name": "_signatureId",
          "type": "uint256"
        },
        {
          "internalType": "bytes",
          "name": "_signature",
          "type": "bytes"
        }
      ],
      "name": "mint",
      "outputs": [],
      "stateMutability": "nonpayable",
      "type": "function"
    },
    {
      "inputs": [],
      "name": "mintTreasury",
      "outputs": [
        {
          "internalType": "address",
          "name": "",
          "type": "address"
        }
      ],
      "stateMutability": "view",
      "type": "function"
    },
    {
      "inputs": [],
      "name": "mintingDefaults",
      "outputs": [
        {
          "internalType": "uint256",
          "name": "mintPrice",
          "type": "uint256"
        },
        {
          "internalType": "uint256",
          "name": "maxPublicTokensPerWallet",
          "type": "uint256"
        },
        {
          "internalType": "uint256",
          "name": "maxAllowlistTokensPerWallet",
          "type": "uint256"
        },
        {
          "internalType": "uint256",
          "name": "maxMarketingTokens",
          "type": "uint256"
        }
      ],
      "stateMutability": "view",
      "type": "function"
    },
    {
      "inputs": [],
      "name": "name",
      "outputs": [
        {
          "internalType": "string",
          "name": "",
          "type": "string"
        }
      ],
      "stateMutability": "view",
      "type": "function"
    },
    {
      "inputs": [],
      "name": "operatorFilterRegistry",
      "outputs": [
        {
          "internalType": "contract IOperatorFilterRegistry",
          "name": "",
          "type": "address"
        }
      ],
      "stateMutability": "view",
      "type": "function"
    },
    {
      "inputs": [
        {
          "internalType": "uint256",
          "name": "_tokenId",
          "type": "uint256"
        },
        {
          "internalType": "uint256",
          "name": "_personalizationMask",
          "type": "uint256"
        }
      ],
      "name": "operatorPersonalize",
      "outputs": [],
      "stateMutability": "nonpayable",
      "type": "function"
    },
    {
      "inputs": [],
      "name": "owner",
      "outputs": [
        {
          "internalType": "address",
          "name": "",
          "type": "address"
        }
      ],
      "stateMutability": "view",
      "type": "function"
    },
    {
      "inputs": [
        {
          "internalType": "uint256",
          "name": "tokenId",
          "type": "uint256"
        }
      ],
      "name": "ownerOf",
      "outputs": [
        {
          "internalType": "address",
          "name": "",
          "type": "address"
        }
      ],
      "stateMutability": "view",
      "type": "function"
    },
    {
      "inputs": [],
      "name": "pause",
      "outputs": [],
      "stateMutability": "nonpayable",
      "type": "function"
    },
    {
      "inputs": [],
      "name": "paused",
      "outputs": [
        {
          "internalType": "bool",
          "name": "",
          "type": "bool"
        }
      ],
      "stateMutability": "view",
      "type": "function"
    },
    {
      "inputs": [],
      "name": "pendingOwner",
      "outputs": [
        {
          "internalType": "address",
          "name": "",
          "type": "address"
        }
      ],
      "stateMutability": "view",
      "type": "function"
    },
    {
      "inputs": [
        {
          "internalType": "uint256",
          "name": "_tokenId",
          "type": "uint256"
        }
      ],
      "name": "personalizationOf",
      "outputs": [
        {
          "internalType": "uint256",
          "name": "",
          "type": "uint256"
        }
      ],
      "stateMutability": "view",
      "type": "function"
    },
    {
      "inputs": [
        {
          "internalType": "uint256",
          "name": "",
          "type": "uint256"
        }
      ],
      "name": "personalizationTraits",
      "outputs": [
        {
          "internalType": "uint256",
          "name": "",
          "type": "uint256"
        }
      ],
      "stateMutability": "view",
      "type": "function"
    },
    {
      "inputs": [
        {
          "internalType": "uint256",
          "name": "_signatureId",
          "type": "uint256"
        },
        {
          "internalType": "bytes",
          "name": "_signature",
          "type": "bytes"
        },
        {
          "internalType": "uint256",
          "name": "_tokenId",
          "type": "uint256"
        },
        {
          "internalType": "uint256",
          "name": "_personalizationMask",
          "type": "uint256"
        }
      ],
      "name": "personalize",
      "outputs": [],
      "stateMutability": "nonpayable",
      "type": "function"
    },
    {
      "inputs": [
        {
          "internalType": "uint256",
          "name": "_count",
          "type": "uint256"
        }
      ],
      "name": "price",
      "outputs": [
        {
          "internalType": "uint256",
          "name": "",
          "type": "uint256"
        }
      ],
      "stateMutability": "view",
      "type": "function"
    },
    {
      "inputs": [],
      "name": "renounceOwnership",
      "outputs": [],
      "stateMutability": "nonpayable",
      "type": "function"
    },
    {
      "inputs": [
        {
          "internalType": "bytes32",
          "name": "role",
          "type": "bytes32"
        },
        {
          "internalType": "address",
          "name": "account",
          "type": "address"
        }
      ],
      "name": "renounceRole",
      "outputs": [],
      "stateMutability": "nonpayable",
      "type": "function"
    },
    {
      "inputs": [
        {
          "internalType": "uint256",
          "name": "_tokenId",
          "type": "uint256"
        },
        {
          "internalType": "uint256",
          "name": "_signatureId",
          "type": "uint256"
        },
        {
          "internalType": "bytes",
          "name": "_signature",
          "type": "bytes"
        }
      ],
      "name": "reveal",
      "outputs": [],
      "stateMutability": "nonpayable",
      "type": "function"
    },
    {
      "inputs": [
        {
          "internalType": "address",
          "name": "account",
          "type": "address"
        }
      ],
      "name": "revokeConfiguratorRole",
      "outputs": [],
      "stateMutability": "nonpayable",
      "type": "function"
    },
    {
      "inputs": [
        {
          "internalType": "bytes32",
          "name": "role",
          "type": "bytes32"
        },
        {
          "internalType": "address",
          "name": "account",
          "type": "address"
        }
      ],
      "name": "revokeRole",
      "outputs": [],
      "stateMutability": "nonpayable",
      "type": "function"
    },
    {
      "inputs": [
        {
          "internalType": "address",
          "name": "account",
          "type": "address"
        }
      ],
      "name": "revokeTransformerRole",
      "outputs": [],
      "stateMutability": "nonpayable",
      "type": "function"
    },
    {
      "inputs": [
        {
          "internalType": "address",
          "name": "from",
          "type": "address"
        },
        {
          "internalType": "address",
          "name": "to",
          "type": "address"
        },
        {
          "internalType": "uint256",
          "name": "tokenId",
          "type": "uint256"
        }
      ],
      "name": "safeTransferFrom",
      "outputs": [],
      "stateMutability": "nonpayable",
      "type": "function"
    },
    {
      "inputs": [
        {
          "internalType": "address",
          "name": "from",
          "type": "address"
        },
        {
          "internalType": "address",
          "name": "to",
          "type": "address"
        },
        {
          "internalType": "uint256",
          "name": "tokenId",
          "type": "uint256"
        },
        {
          "internalType": "bytes",
          "name": "data",
          "type": "bytes"
        }
      ],
      "name": "safeTransferFrom",
      "outputs": [],
      "stateMutability": "nonpayable",
      "type": "function"
    },
    {
      "inputs": [
        {
          "internalType": "address",
          "name": "_minterToken",
          "type": "address"
        }
      ],
      "name": "setAllowedExecuteMint",
      "outputs": [],
      "stateMutability": "nonpayable",
      "type": "function"
    },
    {
      "inputs": [],
      "name": "setAllowlistMint",
      "outputs": [],
      "stateMutability": "nonpayable",
      "type": "function"
    },
    {
      "inputs": [
        {
          "internalType": "address",
          "name": "operator",
          "type": "address"
        },
        {
          "internalType": "bool",
          "name": "approved",
          "type": "bool"
        }
      ],
      "name": "setApprovalForAll",
      "outputs": [],
      "stateMutability": "nonpayable",
      "type": "function"
    },
    {
      "inputs": [
        {
          "internalType": "string",
          "name": "baseURI",
          "type": "string"
        }
      ],
      "name": "setBaseURI",
      "outputs": [],
      "stateMutability": "nonpayable",
      "type": "function"
    },
    {
      "inputs": [],
      "name": "setMarketingMint",
      "outputs": [],
      "stateMutability": "nonpayable",
      "type": "function"
    },
    {
      "inputs": [],
      "name": "setPublicMint",
      "outputs": [],
      "stateMutability": "nonpayable",
      "type": "function"
    },
    {
      "inputs": [
        {
          "internalType": "address",
          "name": "_signAddress",
          "type": "address"
        }
      ],
      "name": "setSignAddress",
      "outputs": [],
      "stateMutability": "nonpayable",
      "type": "function"
    },
    {
      "inputs": [
        {
          "internalType": "address",
          "name": "_treasury",
          "type": "address"
        }
      ],
      "name": "setTreasury",
      "outputs": [],
      "stateMutability": "nonpayable",
      "type": "function"
    },
    {
      "inputs": [
        {
          "internalType": "address",
          "name": "trustedForwarder",
          "type": "address"
        }
      ],
      "name": "setTrustedForwarder",
      "outputs": [],
      "stateMutability": "nonpayable",
      "type": "function"
    },
    {
      "inputs": [
        {
          "internalType": "uint256",
          "name": "_waveMaxTokensOverall",
          "type": "uint256"
        },
        {
          "internalType": "uint256",
          "name": "_waveMaxTokensPerWallet",
          "type": "uint256"
        },
        {
          "internalType": "uint256",
          "name": "_waveSingleTokenPrice",
          "type": "uint256"
        }
      ],
      "name": "setupWave",
      "outputs": [],
      "stateMutability": "nonpayable",
      "type": "function"
    },
    {
      "inputs": [],
      "name": "signAddress",
      "outputs": [
        {
          "internalType": "address",
          "name": "",
          "type": "address"
        }
      ],
      "stateMutability": "view",
      "type": "function"
    },
    {
      "inputs": [
        {
          "internalType": "bytes4",
          "name": "interfaceId",
          "type": "bytes4"
        }
      ],
      "name": "supportsInterface",
      "outputs": [
        {
          "internalType": "bool",
          "name": "",
          "type": "bool"
        }
      ],
      "stateMutability": "view",
      "type": "function"
    },
    {
      "inputs": [],
      "name": "symbol",
      "outputs": [
        {
          "internalType": "string",
          "name": "",
          "type": "string"
        }
      ],
      "stateMutability": "view",
      "type": "function"
    },
    {
      "inputs": [
        {
          "internalType": "uint256",
          "name": "index",
          "type": "uint256"
        }
      ],
      "name": "tokenByIndex",
      "outputs": [
        {
          "internalType": "uint256",
          "name": "",
          "type": "uint256"
        }
      ],
      "stateMutability": "view",
      "type": "function"
    },
    {
      "inputs": [
        {
          "internalType": "address",
          "name": "owner",
          "type": "address"
        },
        {
          "internalType": "uint256",
          "name": "index",
          "type": "uint256"
        }
      ],
      "name": "tokenOfOwnerByIndex",
      "outputs": [
        {
          "internalType": "uint256",
          "name": "",
          "type": "uint256"
        }
      ],
      "stateMutability": "view",
      "type": "function"
    },
    {
      "inputs": [
        {
          "internalType": "uint256",
          "name": "tokenId",
          "type": "uint256"
        }
      ],
      "name": "tokenURI",
      "outputs": [
        {
          "internalType": "string",
          "name": "",
          "type": "string"
        }
      ],
      "stateMutability": "view",
      "type": "function"
    },
    {
      "inputs": [],
      "name": "totalSupply",
      "outputs": [
        {
          "internalType": "uint256",
          "name": "",
          "type": "uint256"
        }
      ],
      "stateMutability": "view",
      "type": "function"
    },
    {
      "inputs": [
        {
          "internalType": "address",
          "name": "from",
          "type": "address"
        },
        {
          "internalType": "address",
          "name": "to",
          "type": "address"
        },
        {
          "internalType": "uint256",
          "name": "tokenId",
          "type": "uint256"
        }
      ],
      "name": "transferFrom",
      "outputs": [],
      "stateMutability": "nonpayable",
      "type": "function"
    },
    {
      "inputs": [
        {
          "internalType": "address",
          "name": "newOwner",
          "type": "address"
        }
      ],
      "name": "transferOwnership",
      "outputs": [],
      "stateMutability": "nonpayable",
      "type": "function"
    },
    {
      "inputs": [],
      "name": "unpause",
      "outputs": [],
      "stateMutability": "nonpayable",
      "type": "function"
    },
    {
      "inputs": [
        {
          "internalType": "address",
          "name": "newRegistry",
          "type": "address"
        }
      ],
      "name": "updateOperatorFilterRegistryAddress",
      "outputs": [],
      "stateMutability": "nonpayable",
      "type": "function"
    },
    {
      "inputs": [],
      "name": "waveMaxTokensOverall",
      "outputs": [
        {
          "internalType": "uint256",
          "name": "",
          "type": "uint256"
        }
      ],
      "stateMutability": "view",
      "type": "function"
    },
    {
      "inputs": [],
      "name": "waveMaxTokensPerWallet",
      "outputs": [
        {
          "internalType": "uint256",
          "name": "",
          "type": "uint256"
        }
      ],
      "stateMutability": "view",
      "type": "function"
    },
    {
      "inputs": [
        {
          "internalType": "address",
          "name": "",
          "type": "address"
        },
        {
          "internalType": "uint256",
          "name": "",
          "type": "uint256"
        }
      ],
      "name": "waveOwnerToClaimedCounts",
      "outputs": [
        {
          "internalType": "uint256",
          "name": "",
          "type": "uint256"
        }
      ],
      "stateMutability": "view",
      "type": "function"
    },
    {
      "inputs": [],
      "name": "waveSingleTokenPrice",
      "outputs": [
        {
          "internalType": "uint256",
          "name": "",
          "type": "uint256"
        }
      ],
      "stateMutability": "view",
      "type": "function"
    },
    {
      "inputs": [],
      "name": "waveTotalMinted",
      "outputs": [
        {
          "internalType": "uint256",
          "name": "",
          "type": "uint256"
        }
      ],
      "stateMutability": "view",
      "type": "function"
    }
  ],
  "transactionHash": "0xe2ef8b86720cfa2a09b96be3fd333e429420a2020d538ca2a79f184feb97d83b",
  "args": [],
  "numDeployments": 1,
  "solcInputHash": "c0b732c8aaa701fe7935bc20717d47ea",
  "bytecode": "0x60806040523480156200001157600080fd5b506200001c62000022565b620000e4565b600054610100900460ff16156200008f5760405162461bcd60e51b815260206004820152602760248201527f496e697469616c697a61626c653a20636f6e747261637420697320696e697469604482015266616c697a696e6760c81b606482015260840160405180910390fd5b60005460ff9081161015620000e2576000805460ff191660ff9081179091556040519081527f7f26b83ff96e1f2b6a682f133852f6798a09c465da95921460cefb38474024989060200160405180910390a15b565b615f7480620000f46000396000f3fe608060405234801561001057600080fd5b50600436106104965760003560e01c806375b238fc11610262578063ac3149e311610151578063d547cfb7116100ce578063e30c397811610092578063e30c397814610a69578063e3e3506214610a7a578063e985e9c514610a8e578063ef92539c14610aa1578063f0f4426014610aa9578063f2fde38b14610abc57600080fd5b8063d547cfb714610a1c578063d5abeb0114610a24578063d5d1713f14610a2e578063d853015e14610a41578063da74222814610a5657600080fd5b8063c763e5a111610115578063c763e5a1146109b4578063c87b56dd146109ba578063ca0df4a1146109cd578063ce1b815f146109f7578063d547741f14610a0957600080fd5b8063ac3149e31461095c578063b0ccc31e14610970578063b88d4fde14610984578063b8d1e53214610997578063be4ca0cc146109aa57600080fd5b806391d14854116101df5780639ea25d7a116101a35780639ea25d7a14610911578063a217fddf1461091b578063a22cb46514610923578063a6e3ec2614610936578063a90fe8611461094957600080fd5b806391d14854146108ba578063955a53f5146108cd57806395d89b41146108e057806397944ba2146108e857806398603cca1461090957600080fd5b80638456cb59116102265780638456cb591461084c5780638c495efb146108545780638da5cb5b1461085c5780638deeed421461086457806390c5c56d1461088e57600080fd5b806375b238fc146107cf57806379ba5097146107e45780637a266db0146107ec57806382bc7877146107ff57806383bab8a71461081257600080fd5b806336568abe116103895780635775363c1161030657806368d4a778116102ca57806368d4a7781461075857806370a082311461078457806370edac7614610797578063715018a6146107ac578063731133e9146107b45780637581a8e6146107c757600080fd5b80635775363c146106f65780635c975abb146107095780636352211e14610711578063671b2a3114610724578063677ec90f1461073757600080fd5b8063433ad1061161034d578063433ad1061461069b578063442a64b6146106a55780634f6ccce7146106ad57806355f804b3146106c0578063572b6c05146106d357600080fd5b806336568abe146106505780633e84aa5e146106635780633f4ba83a1461066d57806342842e0e1461067557806342966c681461068857600080fd5b806318160ddd1161041757806326a49e37116103db57806326a49e37146105fa578063283ca77c1461060d5780632f2ff15d146106205780632f745c591461063357806334b35ac01461064657600080fd5b806318160ddd146105955780631992c3f31461059e57806322b56a68146105b157806323b872dd146105c4578063248a9ca3146105d757600080fd5b806307ebec271161045e57806307ebec2714610524578063081812fc14610532578063095ea7b31461054557806311db8d1b14610558578063151370451461058257600080fd5b806301ffc9a71461049b578063023ba7c3146104c357806302456aa2146104e45780630682bdbc146104ee57806306fdde031461050f575b600080fd5b6104ae6104a9366004614f8a565b610acf565b60405190151581526020015b60405180910390f35b6104d66104d1366004614fcc565b610afa565b6040519081526020016104ba565b6104ec610b2c565b005b61020754610502906001600160a01b031681565b6040516104ba9190614ff8565b610517610c02565b6040516104ba9190615064565b610162546104ae9060ff1681565b610502610540366004615077565b610c94565b6104ec610553366004614fcc565b610cbc565b610502610566366004615077565b610160602052600090815260409020546001600160a01b031681565b6104ec610590366004615090565b610d73565b610130546104d6565b6104ec6105ac3660046150ad565b610dec565b6104ec6105bf366004615090565b611046565b6104ec6105d23660046150d9565b61108f565b6104d66105e5366004615077565b60009081526097602052604090206001015490565b6104d6610608366004615077565b611168565b6104ae61061b366004614fcc565b611179565b6104ec61062e36600461511a565b61119c565b6104d6610641366004614fcc565b6111c1565b6104d66102015481565b6104ec61065e36600461511a565b611258565b6104d66101ff5481565b6104ec6112e6565b6104ec6106833660046150d9565b6112f8565b6104ec610696366004615077565b6113c6565b6104d66101fe5481565b6104ec6113d7565b6104d66106bb366004615077565b611493565b6104ec6106ce3660046151ec565b611528565b6104ae6106e1366004615090565b610195546001600160a01b0391821691161490565b6104ec610704366004615090565b611619565b6104ae61165f565b61050261071f366004615077565b611670565b6104ec610732366004615220565b6116a5565b6104d6610745366004615077565b6102086020526000908152604090205481565b6104d6610766366004614fcc565b61020060209081526000928352604080842090915290825290205481565b6104d6610792366004615090565b6117c1565b6104d6600080516020615e9f83398151915281565b6104ec611847565b6104ec6107c2366004615276565b6118bd565b6104ec611bff565b6104d6600080516020615eff83398151915281565b6104ec611c0f565b6104ec6107fa366004615090565b611cea565b6104ec61080d366004615090565b611d30565b6102025461020354610204546102055461082c9392919084565b6040805194855260208501939093529183015260608201526080016104ba565b6104ec611e71565b6104d6606481565b610502611e81565b6104d6610872366004615090565b6001600160a01b03166000908152610161602052604090205490565b6104ae61089c366004615090565b6001600160a01b031660009081526101616020526040902054151590565b6104ae6108c836600461511a565b611e9a565b6104ec6108db3660046153c0565b611ec5565b610517611fac565b6104d66108f6366004615077565b6000908152610208602052604090205490565b6104ec611fbb565b6104d66101fc5481565b6104d6600081565b6104ec6109313660046154cf565b611fcb565b6104ec6109443660046154fd565b61207d565b6104ec61095736600461551f565b61214b565b61020654610502906001600160a01b031681565b6101c754610502906001600160a01b031681565b6104ec61099236600461556e565b6121c2565b6104ec6109a5366004615090565b61229e565b6104d66101fd5481565b466104d6565b6105176109c8366004615077565b6122fa565b6105026109db366004615077565b600090815261016060205260409020546001600160a01b031690565b610195546001600160a01b0316610502565b6104ec610a1736600461511a565b612360565b610517612385565b6104d66101f95481565b6104ec610a3c366004615090565b612414565b6104d6600080516020615e7f83398151915281565b6104ec610a64366004615090565b61245a565b60fb546001600160a01b0316610502565b6101fa54610502906001600160a01b031681565b6104ae610a9c3660046155c1565b6124eb565b6104ec61251a565b6104ec610ab7366004615090565b6125bb565b6104ec610aca366004615090565b612674565b60006001600160e01b0319821663da8def7360e01b1480610af45750610af4826126da565b92915050565b6101616020528160005260406000208181548110610b1757600080fd5b90600052602060002001600091509150505481565b600080516020615e7f8339815191526000610b456126ff565b9050610b518282611e9a565b80610b745750806001600160a01b0316610b69611e81565b6001600160a01b0316145b610b995760405162461bcd60e51b8152600401610b90906155ef565b60405180910390fd5b610130546101f954610bab9190615653565b6101fc55610203546101fd55610202546101fe5560006101ff819055610201805491610bd68361566a565b90915550506101fe546101fd546101fc54604051600080516020615edf83398151915290600090a45050565b606060fc8054610c1190615683565b80601f0160208091040260200160405190810160405280929190818152602001828054610c3d90615683565b8015610c8a5780601f10610c5f57610100808354040283529160200191610c8a565b820191906000526020600020905b815481529060010190602001808311610c6d57829003601f168201915b5050505050905090565b6000610c9f82612709565b50600090815261010060205260409020546001600160a01b031690565b6101c75482906001600160a01b03163b15610d64576101c754604051633185c44d60e21b81526001600160a01b039091169063c617113490610d0490309085906004016156bd565b602060405180830381865afa158015610d21573d6000803e3d6000fd5b505050506040513d601f19601f82011682018060405250810190610d4591906156d7565b610d645780604051633b79c77360e21b8152600401610b909190614ff8565b610d6e838361272e565b505050565b610d7b612850565b6001600160a01b038116610da15760405162461bcd60e51b8152600401610b90906156f4565b61020780546001600160a01b0319166001600160a01b0383169081179091556040517f0e58c0652c5df5dddc98a8856c5a814ba7aedf70cc4ef2c72a040d1ff0fe5ebd90600090a250565b600080516020615e7f8339815191526000610e056126ff565b9050610e118282611e9a565b80610e345750806001600160a01b0316610e29611e81565b6001600160a01b0316145b610e505760405162461bcd60e51b8152600401610b90906155ef565b6101f954851115610ebe5760405162461bcd60e51b815260206004820152603260248201527f417661746172436f6c6c656374696f6e3a205f776176654d6178546f6b656e736044820152712065786365656473206d6178537570706c7960701b6064820152608401610b90565b60008511610f205760405162461bcd60e51b815260206004820152602960248201527f417661746172436f6c6c656374696f6e3a206d617820746f6b656e7320746f2060448201526806d696e7420697320360bc1b6064820152608401610b90565b60008411610f8d5760405162461bcd60e51b815260206004820152603460248201527f417661746172436f6c6c656374696f6e3a206d617820746f6b656e7320746f2060448201527306d696e74207065722077616c6c657420697320360641b6064820152608401610b90565b84841115610ff45760405162461bcd60e51b815260206004820152602e60248201527f417661746172436f6c6c656374696f6e3a20696e76616c696420737570706c7960448201526d1031b7b73334b3bab930ba34b7b760911b6064820152608401610b90565b6101fc8590556101fd8490556101fe83905560006101ff81905561020180549161101d8361566a565b9190505550828486600080516020615edf83398151915260405160405180910390a45050505050565b61104e612850565b6001600160a01b0381166110745760405162461bcd60e51b8152600401610b9090615742565b61108c600080516020615e9f833981519152826128bf565b50565b6101c75483906001600160a01b03163b1561115757336001600160a01b038216036110c4576110bf848484612946565b611162565b6101c754604051633185c44d60e21b81526001600160a01b039091169063c6171134906110f790309033906004016156bd565b602060405180830381865afa158015611114573d6000803e3d6000fd5b505050506040513d601f19601f8201168201806040525081019061113891906156d7565b6111575733604051633b79c77360e21b8152600401610b909190614ff8565b611162848484612946565b50505050565b6000816101fe54610af49190615792565b60006111848261297e565b8015611195575061119583836129a5565b9392505050565b6000828152609760205260409020600101546111b781612a28565b610d6e83836128bf565b60006111cc836117c1565b821061122e5760405162461bcd60e51b815260206004820152602b60248201527f455243373231456e756d657261626c653a206f776e657220696e646578206f7560448201526a74206f6620626f756e647360a81b6064820152608401610b90565b506001600160a01b0391909116600090815261012e60209081526040808320938352929052205490565b6112606126ff565b6001600160a01b0316816001600160a01b0316146112d85760405162461bcd60e51b815260206004820152602f60248201527f416363657373436f6e74726f6c3a2063616e206f6e6c792072656e6f756e636560448201526e103937b632b9903337b91039b2b63360891b6064820152608401610b90565b6112e28282612a39565b5050565b6112ee612850565b6112f6612abe565b565b6101c75483906001600160a01b03163b156113bb57336001600160a01b03821603611328576110bf848484612b14565b6101c754604051633185c44d60e21b81526001600160a01b039091169063c61711349061135b90309033906004016156bd565b602060405180830381865afa158015611378573d6000803e3d6000fd5b505050506040513d601f19601f8201168201806040525081019061139c91906156d7565b6113bb5733604051633b79c77360e21b8152600401610b909190614ff8565b611162848484612b14565b6113ce612b2f565b61108c81612b77565b600080516020615e7f83398151915260006113f06126ff565b90506113fc8282611e9a565b8061141f5750806001600160a01b0316611414611e81565b6001600160a01b0316145b61143b5760405162461bcd60e51b8152600401610b90906155ef565b610205546101fc8190556101fd5560006101fe8190556101ff8190556102018054916114668361566a565b919050555060006101fd546101fc54600080516020615edf83398151915260405160405180910390a45050565b600061149f6101305490565b82106115025760405162461bcd60e51b815260206004820152602c60248201527f455243373231456e756d657261626c653a20676c6f62616c20696e646578206f60448201526b7574206f6620626f756e647360a01b6064820152608401610b90565b6101308281548110611516576115166157b1565b90600052602060002001549050919050565b600080516020615e7f83398151915260006115416126ff565b905061154d8282611e9a565b806115705750806001600160a01b0316611565611e81565b6001600160a01b0316145b61158c5760405162461bcd60e51b8152600401610b90906155ef565b82516000036115ad5760405162461bcd60e51b8152600401610b90906157c7565b6101fb6115ba8482615859565b50826040516115c99190615918565b604051908190038120907ff9c7803e94e0d3c02900d8a90893a6d5e90dd04d32a4cfe825520f82bf9f32f690600090a260405160001990600080516020615f1f83398151915290600090a2505050565b611621612850565b6001600160a01b0381166116475760405162461bcd60e51b8152600401610b9090615742565b61108c600080516020615e9f83398151915282612a39565b6101c754600160a01b900460ff1690565b600081815260fe60205260408120546001600160a01b031680610af45760405162461bcd60e51b8152600401610b9090615934565b6116ad612b2f565b6116b56126ff565b6001600160a01b03166116c783611670565b6001600160a01b0316146116ed5760405162461bcd60e51b8152600401610b9090615966565b600084815261020960205260409020541561171a5760405162461bcd60e51b8152600401610b90906159ab565b610207546001600160a01b031661173d6117326126ff565b86304687878a612c78565b6001600160a01b0316146117a45760405162461bcd60e51b815260206004820152602860248201527f417661746172436f6c6c656374696f6e3a207369676e617475726520636865636044820152671ac819985a5b195960c21b6064820152608401610b90565b600084815261020960205260409020600190556111628282612d2b565b60006001600160a01b03821661182b5760405162461bcd60e51b815260206004820152602960248201527f4552433732313a2061646472657373207a65726f206973206e6f7420612076616044820152683634b21037bbb732b960b91b6064820152608401610b90565b506001600160a01b0316600090815260ff602052604090205490565b61184f612850565b60405162461bcd60e51b815260206004820152603c60248201527f436f6c6c656374696f6e416363657373436f6e74726f6c3a2052656e6f756e6360448201527f65206f776e657273686970206973206e6f7420617661696c61626c65000000006064820152608401610b90565b6118c5612b2f565b6118cd612d84565b600061020154116119355760405162461bcd60e51b815260206004820152602c60248201527f417661746172436f6c6c656374696f6e3a20636f6e7472616374206973206e6f60448201526b1d0818dbdb999a59dd5c995960a21b6064820152608401610b90565b610206546001600160a01b031661194a6126ff565b6001600160a01b0316146119b05760405162461bcd60e51b815260206004820152602760248201527f417661746172436f6c6c656374696f6e3a2063616c6c6572206973206e6f7420604482015266185b1b1bddd95960ca1b6064820152608401610b90565b6001600160a01b038416611a175760405162461bcd60e51b815260206004820152602860248201527f417661746172436f6c6c656374696f6e3a2077616c6c6574206973207a65726f604482015267206164647265737360c01b6064820152608401610b90565b60008311611a735760405162461bcd60e51b8152602060048201526024808201527f417661746172436f6c6c656374696f6e3a20616d6f756e742063616e6e6f74206044820152630626520360e41b6064820152608401610b90565b611a7e848383612ddd565b611a878361297e565b611ad35760405162461bcd60e51b815260206004820181905260248201527f417661746172436f6c6c656374696f6e3a207761766520636f6d706c657465646044820152606401610b90565b611add84846129a5565b611b295760405162461bcd60e51b815260206004820152601d60248201527f417661746172436f6c6c656374696f6e3a206d617820616c6c6f7765640000006044820152606401610b90565b6000611b3484611168565b90508015611b5c57611b5c611b476126ff565b6101fa5487906001600160a01b031684612e9c565b6001600160a01b03851660009081526102006020526040812061020154869290611b8890600190615653565b81526020019081526020016000206000828254611ba591906159f5565b92505081905550836101ff6000828254611bbf91906159f5565b90915550600090505b84811015611bf457611bec86611be788611be26101305490565b612ef6565b613012565b600101611bc8565b505061116260018055565b611c07612850565b6112f6613032565b6000611c196126ff565b9050806001600160a01b0316611c3760fb546001600160a01b031690565b6001600160a01b031614611caa5760405162461bcd60e51b815260206004820152603460248201527f436f6c6c656374696f6e416363657373436f6e74726f6c3a2063616c6c65722060448201527334b9903737ba103a3432903732bb9037bbb732b960611b6064820152608401610b90565b611cc9600080516020615eff833981519152611cc4611e81565b612a39565b611ce1600080516020615eff833981519152826128bf565b61108c816130b9565b611cf2612850565b6001600160a01b038116611d185760405162461bcd60e51b8152600401610b9090615742565b61108c600080516020615e7f833981519152826128bf565b611d38612850565b611d41816130d2565b611d5d5760405162461bcd60e51b8152600401610b9090615a0d565b61020680546001600160a01b0319166001600160a01b0383169081179091556040805163313ce56760e01b8152905163313ce567916004808201926020929091908290030181865afa158015611db7573d6000803e3d6000fd5b505050506040513d601f19601f82011682018060405250810190611ddb9190615a61565b611de690600a615b68565b611df1906064615792565b610202819055610204546102035461020554604051908152919290917f084331e3561153129deda7a8a07a82b29226ca4591e48e2473280d8352e920b89060200160405180910390a46040516001600160a01b038216907f8eb903ef93f1949409fbfad9304ceafc3ab8211c9ddbe9732ce8b1ede00efb3490600090a250565b611e79612850565b6112f66130e1565b6000611e9560c9546001600160a01b031690565b905090565b60009182526097602090815260408084206001600160a01b0393909316845291905290205460ff1690565b600054610100900460ff1615808015611ee55750600054600160ff909116105b80611f065750611ef4306130d2565b158015611f06575060005460ff166001145b611f225760405162461bcd60e51b8152600401610b9090615b77565b6000805460ff191660011790558015611f45576000805461ff0019166101001790555b611f588c8c8c8c8c8c8c8c8c8c8c613126565b8015611f9e576000805461ff0019169055604051600181527f7f26b83ff96e1f2b6a682f133852f6798a09c465da95921460cefb38474024989060200160405180910390a15b505050505050505050505050565b606060fd8054610c1190615683565b611fc3612850565b6112f66136e7565b6101c75482906001600160a01b03163b15612073576101c754604051633185c44d60e21b81526001600160a01b039091169063c61711349061201390309085906004016156bd565b602060405180830381865afa158015612030573d6000803e3d6000fd5b505050506040513d601f19601f8201168201806040525081019061205491906156d7565b6120735780604051633b79c77360e21b8152600401610b909190614ff8565b610d6e838361376b565b600080516020615e9f83398151915260006120966126ff565b90506120a28282611e9a565b806120c55750806001600160a01b03166120ba611e81565b6001600160a01b0316145b6120e15760405162461bcd60e51b8152600401610b90906155ef565b6120ea8461377d565b6121415760405162461bcd60e51b815260206004820152602260248201527f417661746172436f6c6c656374696f6e3a20696e76616c696420746f6b656e20604482015261125160f21b6064820152608401610b90565b6111628484612d2b565b612153612b2f565b600061215d6126ff565b9050806001600160a01b031661217285611670565b6001600160a01b0316146121985760405162461bcd60e51b8152600401610b9090615966565b6121a3818484612ddd565b6040518490600080516020615f1f83398151915290600090a250505050565b6101c75484906001600160a01b03163b1561228b57336001600160a01b038216036121f8576121f38585858561379a565b612297565b6101c754604051633185c44d60e21b81526001600160a01b039091169063c61711349061222b90309033906004016156bd565b602060405180830381865afa158015612248573d6000803e3d6000fd5b505050506040513d601f19601f8201168201806040525081019061226c91906156d7565b61228b5733604051633b79c77360e21b8152600401610b909190614ff8565b6122978585858561379a565b5050505050565b6122a6611e81565b6001600160a01b0316336001600160a01b0316146122d757604051635fc483c560e01b815260040160405180910390fd5b6101c780546001600160a01b0319166001600160a01b0392909216919091179055565b606061230582612709565b600061230f6137d3565b9050600081511161232f5760405180602001604052806000815250611195565b80612339846137e3565b60405160200161234a929190615bc5565b6040516020818303038152906040529392505050565b60008281526097602052604090206001015461237b81612a28565b610d6e8383612a39565b6101fb805461239390615683565b80601f01602080910402602001604051908101604052809291908181526020018280546123bf90615683565b801561240c5780601f106123e15761010080835404028352916020019161240c565b820191906000526020600020905b8154815290600101906020018083116123ef57829003601f168201915b505050505081565b61241c612850565b6001600160a01b0381166124425760405162461bcd60e51b8152600401610b9090615742565b61108c600080516020615e7f83398151915282612a39565b600080516020615eff83398151915261247281612a28565b61247b826130d2565b6124c75760405162461bcd60e51b815260206004820152601f60248201527f417661746172436f6c6c656374696f6e3a2042616420666f72776172646572006044820152606401610b90565b5061019580546001600160a01b0319166001600160a01b0392909216919091179055565b6001600160a01b0391821660009081526101016020908152604080832093909416825291909152205460ff1690565b600080516020615e7f83398151915260006125336126ff565b905061253f8282611e9a565b806125625750806001600160a01b0316612557611e81565b6001600160a01b0316145b61257e5760405162461bcd60e51b8152600401610b90906155ef565b610130546101f9546125909190615653565b6101fc55610204546101fd55610202546101fe5560006101ff819055610201805491610bd68361566a565b6125c3612850565b6001600160a01b0381166126295760405162461bcd60e51b815260206004820152602760248201527f417661746172436f6c6c656374696f6e3a206f776e6572206973207a65726f206044820152666164647265737360c81b6064820152608401610b90565b6101fa80546001600160a01b0319166001600160a01b0383169081179091556040517f3c864541ef71378c6229510ed90f376565ee42d9c5e0904a984a9e863e6db44f90600090a250565b61267c612850565b60fb80546001600160a01b0319166001600160a01b0383169081179091556126a2611e81565b6001600160a01b03167f38d16b8cac22d99fc7c124b9cd0de2d3fa1faef420bfe791d8c362d765e2270060405160405180910390a350565b60006001600160e01b0319821663780e9d6360e01b1480610af45750610af482613875565b6000611e956138b5565b6127128161377d565b61108c5760405162461bcd60e51b8152600401610b9090615934565b600061273982611670565b9050806001600160a01b0316836001600160a01b0316036127a65760405162461bcd60e51b815260206004820152602160248201527f4552433732313a20617070726f76616c20746f2063757272656e74206f776e656044820152603960f91b6064820152608401610b90565b806001600160a01b03166127b86126ff565b6001600160a01b031614806127d457506127d481610a9c6126ff565b6128465760405162461bcd60e51b815260206004820152603d60248201527f4552433732313a20617070726f76652063616c6c6572206973206e6f7420746f60448201527f6b656e206f776e6572206f7220617070726f76656420666f7220616c6c0000006064820152608401610b90565b610d6e83836138dd565b6128586126ff565b6001600160a01b0316612869611e81565b6001600160a01b0316146112f65760405162461bcd60e51b815260206004820181905260248201527f4f776e61626c653a2063616c6c6572206973206e6f7420746865206f776e65726044820152606401610b90565b6128c98282611e9a565b6112e25760008281526097602090815260408083206001600160a01b03851684529091529020805460ff191660011790556129026126ff565b6001600160a01b0316816001600160a01b0316837f2f8788117e7eff1d82e926ec794901d17c78024a50270940304540a733656f0d60405160405180910390a45050565b6129576129516126ff565b8261394c565b6129735760405162461bcd60e51b8152600401610b9090615bf4565b610d6e8383836139ab565b60008082118015610af457506101fc54826101ff5461299d91906159f5565b111592915050565b60006101fd54826102006000866001600160a01b03166001600160a01b0316815260200190815260200160002060006001610201546129e49190615653565b8152602001908152602001600020546129fd91906159f5565b1115801561119557506101f95482612a156101305490565b612a1f91906159f5565b11159392505050565b61108c81612a346126ff565b613b0b565b612a438282611e9a565b156112e25760008281526097602090815260408083206001600160a01b03851684529091529020805460ff19169055612a7a6126ff565b6001600160a01b0316816001600160a01b0316837ff6391f5c32d9c69d2a47ea670b442974b53935d1edc7fd64eb21e047a839171b60405160405180910390a45050565b612ac6613b64565b6101c7805460ff60a01b191690557f5db9ee0a495bf2e6ff9c91a7834c1ba4fdd244a5e8aa4e537bd38aeae4b073aa612afd6126ff565b604051612b0a9190614ff8565b60405180910390a1565b610d6e838383604051806020016040528060008152506121c2565b612b3761165f565b156112f65760405162461bcd60e51b815260206004820152601060248201526f14185d5cd8589b194e881c185d5cd95960821b6044820152606401610b90565b6101625460ff16612bc35760405162461bcd60e51b8152602060048201526016602482015275109d5c9b9a5b99c81a5cc81b9bdd08195b98589b195960521b6044820152606401610b90565b6000612bcd6126ff565b9050612bd9818361394c565b612bf55760405162461bcd60e51b8152600401610b9090615bf4565b612bfe82613baf565b60008281526101606020908152604080832080546001600160a01b0319166001600160a01b0386169081179091558084526101618352818420805460018101825590855292842090920185905551909184917f33631bcd0a4d34a7e2c240ab0753d5adfb7284d8ac89dab6876ec785c0cfa0e69190a35050565b604080516001600160a01b03808a16602083015291810188905290861660608201526080810185905260a0810184905260c08101839052600090612d1f9060e0015b60408051601f198184030181529082905280516020918201207f19457468657265756d205369676e6564204d6573736167653a0a33320000000091830191909152603c820152605c016040516020818303038152906040528051906020012083613c41565b98975050505050505050565b6000828152610208602052604080822083905551829184917f37c5b85bb9cbe019726db5bf44dfd0053ed3e09554d9f97a9778b5b8dd65f6209190a36040518290600080516020615f1f83398151915290600090a25050565b600260015403612dd65760405162461bcd60e51b815260206004820152601f60248201527f5265656e7472616e637947756172643a207265656e7472616e742063616c6c006044820152606401610b90565b6002600155565b6000828152610209602052604090205415612e0a5760405162461bcd60e51b8152600401610b90906159ab565b610207546001600160a01b0316612e248484304686613c65565b6001600160a01b031614612e855760405162461bcd60e51b815260206004820152602260248201527f417661746172436f6c6c656374696f6e3a207369676e6174757265206661696c604482015261195960f21b6064820152608401610b90565b506000908152610209602052604090206001905550565b604080516001600160a01b0385811660248301528416604482015260648082018490528251808303909101815260849091019091526020810180516001600160e01b03166323b872dd60e01b179052611162908590613ca7565b600080826101f954612f089190615653565b6040516bffffffffffffffffffffffff19606087901b1660208201524460348201524260548201526074810182905290915060009082906094016040516020818303038152906040528051906020012060001c612f659190615c41565b600081815261020a6020526040902054909150819015612f915750600081815261020a60205260409020545b61020a6000612fa1600186615653565b815260200190815260200160002054600003612fd757612fc2600184615653565b600083815261020a6020526040902055613009565b61020a6000612fe7600186615653565b8152602080820192909252604090810160009081205485825261020a90935220555b95945050505050565b6112e2828260405180602001604052806000815250613d79565b60018055565b6101625460ff16156130805760405162461bcd60e51b8152602060048201526017602482015276109d5c9b9a5b99c8185b1c9958591e48195b98589b1959604a1b6044820152606401610b90565b610162805460ff191660011790556040517f467f7f2d203d48534b64c070fde030b529f5cf61811d094ee55755964c290fdc90600090a1565b60fb80546001600160a01b031916905561108c81613dac565b6001600160a01b03163b151590565b6130e9612b2f565b6101c7805460ff60a01b1916600160a01b1790557f62e78cea01bee320cd4e420270b5ea74000d11b0c9f74754ebdbfc544b05a258612afd6126ff565b600054610100900460ff1661314d5760405162461bcd60e51b8152600401610b9090615c63565b895160000361316e5760405162461bcd60e51b8152600401610b90906157c7565b88516000036131bf5760405162461bcd60e51b815260206004820152601f60248201527f417661746172436f6c6c656374696f6e3a206e616d6520697320656d707479006044820152606401610b90565b875160000361321a5760405162461bcd60e51b815260206004820152602160248201527f417661746172436f6c6c656374696f6e3a2073796d626f6c20697320656d70746044820152607960f81b6064820152608401610b90565b6001600160a01b0386166132405760405162461bcd60e51b8152600401610b90906156f4565b6001600160a01b0385166132b25760405162461bcd60e51b815260206004820152603360248201527f417661746172436f6c6c656374696f6e3a207472757374656420666f72776172604482015272646572206973207a65726f206164647265737360681b6064820152608401610b90565b6001600160a01b03871661331b5760405162461bcd60e51b815260206004820152602a60248201527f417661746172436f6c6c656374696f6e3a207472656173757279206973207a65604482015269726f206164647265737360b01b6064820152608401610b90565b613324846130d2565b6133405760405162461bcd60e51b8152600401610b9090615a0d565b600083116133ab5760405162461bcd60e51b815260206004820152603260248201527f417661746172436f6c6c656374696f6e3a206d617820737570706c792073686f6044820152710756c64206265206d6f7265207468616e20360741b6064820152608401610b90565b80516134115760405162461bcd60e51b815260206004820152602f60248201527f417661746172436f6c6c656374696f6e3a207075626c6963206d696e7420707260448201526e06963652063616e6e6f74206265203608c1b6064820152608401610b90565b82816020015111158015613429575082816040015111155b6134975760405162461bcd60e51b815260206004820152603960248201527f417661746172436f6c6c656374696f6e3a20696e76616c696420746f6b656e73604482015278103832b9103bb0b63632ba1031b7b73334b3bab930ba34b7b760391b6064820152608401610b90565b82816060015111156134fd5760405162461bcd60e51b815260206004820152602960248201527f417661746172436f6c6c656374696f6e3a20696e76616c6964206d61726b6574604482015268696e6720736861726560b81b6064820152608401610b90565b613505613dfe565b61350e8b613e2d565b61019580546001600160a01b0319166001600160a01b038716179055613532613fe0565b61353c898961400f565b613553826000015183602001518460400151614040565b6101fb6135608b82615859565b506101fa80546001600160a01b03808a166001600160a01b03199283161790925561020780548984169083161790556102068054928716929091169190911790556101f983905580516102028190556020820151610203819055604080840151610204819055606085015161020581905591519093917f084331e3561153129deda7a8a07a82b29226ca4591e48e2473280d8352e920b89161360491815260200190565b60405180910390a48760405161361a9190615918565b6040518091039020896040516136309190615918565b60405180910390208b6040516136469190615918565b60405180910390207f639645c4d40a9a2d28b9351e2c180f9b719e3d0b5f2e16a4cdd6f80aac5588fa8a8a898989600001518a602001518b604001516040516136d297969594939291906001600160a01b0397881681529587166020870152938616604086015260608501929092528416608084015290921660a082015290151560c082015260e00190565b60405180910390a45050505050505050505050565b6101625460ff166137355760405162461bcd60e51b8152602060048201526018602482015277109d5c9b9a5b99c8185b1c9958591e48191a5cd8589b195960421b6044820152606401610b90565b610162805460ff191690556040517f1850cd1d45005aad00a8eae6d720e5f79b185f1386053ff4fa89438667a63b2890600090a1565b6112e26137766126ff565b838361416f565b600090815260fe60205260409020546001600160a01b0316151590565b6137ab6137a56126ff565b8361394c565b6137c75760405162461bcd60e51b8152600401610b9090615bf4565b6111628484848461423a565b60606101fb8054610c1190615683565b606060006137f08361426d565b60010190506000816001600160401b0381111561380f5761380f61514a565b6040519080825280601f01601f191660200182016040528015613839576020820181803683370190505b5090508181016020015b600019016f181899199a1a9b1b9c1cb0b131b232b360811b600a86061a8153600a850494508461384357509392505050565b60006001600160e01b031982166380ac58cd60e01b14806138a657506001600160e01b03198216635b5e139f60e01b145b80610af45750610af482614345565b610195546000906001600160a01b031633036138d8575060131936013560601c90565b503390565b60008181526101006020526040902080546001600160a01b0319166001600160a01b038416908117909155819061391382611670565b6001600160a01b03167f8c5be1e5ebec7d5bd14f71427d1e84f3dd0314c0f7b2291e5b200ac8c7c3b92560405160405180910390a45050565b60008061395883611670565b9050806001600160a01b0316846001600160a01b0316148061397f575061397f81856124eb565b806139a35750836001600160a01b031661399884610c94565b6001600160a01b0316145b949350505050565b826001600160a01b03166139be82611670565b6001600160a01b0316146139e45760405162461bcd60e51b8152600401610b9090615cae565b6001600160a01b038216613a465760405162461bcd60e51b8152602060048201526024808201527f4552433732313a207472616e7366657220746f20746865207a65726f206164646044820152637265737360e01b6064820152608401610b90565b613a53838383600161437a565b826001600160a01b0316613a6682611670565b6001600160a01b031614613a8c5760405162461bcd60e51b8152600401610b9090615cae565b60008181526101006020908152604080832080546001600160a01b03199081169091556001600160a01b0387811680865260ff855283862080546000190190559087168086528386208054600101905586865260fe9094528285208054909216841790915590518493600080516020615ebf83398151915291a4505050565b613b158282611e9a565b6112e257613b22816144b0565b613b2d8360206144c2565b604051602001613b3e929190615cf3565b60408051601f198184030181529082905262461bcd60e51b8252610b9091600401615064565b613b6c61165f565b6112f65760405162461bcd60e51b815260206004820152601460248201527314185d5cd8589b194e881b9bdd081c185d5cd95960621b6044820152606401610b90565b6000613bba82611670565b9050613bca81600084600161437a565b613bd382611670565b60008381526101006020908152604080832080546001600160a01b03199081169091556001600160a01b03851680855260ff8452828520805460001901905587855260fe90935281842080549091169055519293508492600080516020615ebf833981519152908390a45050565b6000806000613c50858561465d565b91509150613c5d816146a2565b509392505050565b604080516001600160a01b038088166020830152918101869052908416606082015260808101839052600090613c9d9060a001612cba565b9695505050505050565b6000613cfc826040518060400160405280602081526020017f5361666545524332303a206c6f772d6c6576656c2063616c6c206661696c6564815250856001600160a01b03166147e79092919063ffffffff16565b805190915015610d6e5780806020019051810190613d1a91906156d7565b610d6e5760405162461bcd60e51b815260206004820152602a60248201527f5361666545524332303a204552433230206f7065726174696f6e20646964206e6044820152691bdd081cdd58d8d9595960b21b6064820152608401610b90565b613d8383836147f6565b613d9060008484846148ff565b610d6e5760405162461bcd60e51b8152600401610b9090615d62565b60c980546001600160a01b038381166001600160a01b0319831681179093556040519116919082907f8be0079c531659141344cd1fd0a4f28419497f9722a3daafe3b4186f6b6457e090600090a35050565b600054610100900460ff16613e255760405162461bcd60e51b8152600401610b9090615c63565b6112f6614a0e565b600054610100900460ff1615808015613e4d5750600054600160ff909116105b80613e6e5750613e5c306130d2565b158015613e6e575060005460ff166001145b613e8a5760405162461bcd60e51b8152600401610b9090615b77565b6000805460ff191660011790558015613ead576000805461ff0019166101001790555b6001600160a01b038216613f225760405162461bcd60e51b815260206004820152603660248201527f436f6c6c656374696f6e416363657373436f6e74726f6c3a206e6577206f776e604482015275657220697320746865207a65726f206164647265737360501b6064820152608401610b90565b613f2a614a35565b613f33826130b9565b613f4b600080516020615eff833981519152836128bf565b613f71600080516020615e7f833981519152600080516020615eff833981519152614a5c565b613f97600080516020615e9f833981519152600080516020615eff833981519152614a5c565b80156112e2576000805461ff0019169055604051600181527f7f26b83ff96e1f2b6a682f133852f6798a09c465da95921460cefb38474024989060200160405180910390a15050565b600054610100900460ff166140075760405162461bcd60e51b8152600401610b9090615c63565b6112f6614aa7565b600054610100900460ff166140365760405162461bcd60e51b8152600401610b9090615c63565b6112e28282614ade565b600054610100900460ff166140675760405162461bcd60e51b8152600401610b9090615c63565b6101c780546001600160a01b0319166001600160a01b0385169081179091553b15610d6e5780156140fc576101c754604051633e9f1edf60e11b81526001600160a01b0390911690637d3e3dbe906140c590309086906004016156bd565b600060405180830381600087803b1580156140df57600080fd5b505af11580156140f3573d6000803e3d6000fd5b50505050505050565b6001600160a01b0382161561413e576101c75460405163a0af290360e01b81526001600160a01b039091169063a0af2903906140c590309086906004016156bd565b6101c754604051632210724360e11b81526001600160a01b0390911690634420e486906140c5903090600401614ff8565b816001600160a01b0316836001600160a01b0316036141cc5760405162461bcd60e51b815260206004820152601960248201527822a9219b99189d1030b8383937bb32903a379031b0b63632b960391b6044820152606401610b90565b6001600160a01b0383811660008181526101016020908152604080832094871680845294825291829020805460ff191686151590811790915591519182527f17307eab39ab6107e8899845ad3d59bd9653f200f220920489ca2b5937696c31910160405180910390a3505050565b6142458484846139ab565b614251848484846148ff565b6111625760405162461bcd60e51b8152600401610b9090615d62565b60008072184f03e93ff9f4daa797ed6e38ed64bf6a1f0160401b83106142ac5772184f03e93ff9f4daa797ed6e38ed64bf6a1f0160401b830492506040015b6d04ee2d6d415b85acef810000000083106142d8576d04ee2d6d415b85acef8100000000830492506020015b662386f26fc1000083106142f657662386f26fc10000830492506010015b6305f5e100831061430e576305f5e100830492506008015b612710831061432257612710830492506004015b60648310614334576064830492506002015b600a8310610af45760010192915050565b60006001600160e01b03198216637965db0b60e01b1480610af457506301ffc9a760e01b6001600160e01b0319831614610af4565b61438684848484614b1e565b60018111156143f55760405162461bcd60e51b815260206004820152603560248201527f455243373231456e756d657261626c653a20636f6e7365637574697665207472604482015274185b9cd9995c9cc81b9bdd081cdd5c1c1bdc9d1959605a1b6064820152608401610b90565b816001600160a01b0385166144535761444e816101308054600083815261013160205260408120829055600182018355919091527f2f605e086faac1d93117bbfbc18835d434e9405fadc1ca66faf4b864746daf340155565b614476565b836001600160a01b0316856001600160a01b031614614476576144768582614ba6565b6001600160a01b03841661448d576121f381614c48565b846001600160a01b0316846001600160a01b031614612297576122978482614cfd565b6060610af46001600160a01b03831660145b606060006144d1836002615792565b6144dc9060026159f5565b6001600160401b038111156144f3576144f361514a565b6040519080825280601f01601f19166020018201604052801561451d576020820181803683370190505b509050600360fc1b81600081518110614538576145386157b1565b60200101906001600160f81b031916908160001a905350600f60fb1b81600181518110614567576145676157b1565b60200101906001600160f81b031916908160001a905350600061458b846002615792565b6145969060016159f5565b90505b600181111561460e576f181899199a1a9b1b9c1cb0b131b232b360811b85600f16601081106145ca576145ca6157b1565b1a60f81b8282815181106145e0576145e06157b1565b60200101906001600160f81b031916908160001a90535060049490941c9361460781615db4565b9050614599565b5083156111955760405162461bcd60e51b815260206004820181905260248201527f537472696e67733a20686578206c656e67746820696e73756666696369656e746044820152606401610b90565b60008082516041036146935760208301516040840151606085015160001a61468787828585614d43565b9450945050505061469b565b506000905060025b9250929050565b60008160048111156146b6576146b6615dcb565b036146be5750565b60018160048111156146d2576146d2615dcb565b0361471a5760405162461bcd60e51b815260206004820152601860248201527745434453413a20696e76616c6964207369676e617475726560401b6044820152606401610b90565b600281600481111561472e5761472e615dcb565b0361477b5760405162461bcd60e51b815260206004820152601f60248201527f45434453413a20696e76616c6964207369676e6174757265206c656e677468006044820152606401610b90565b600381600481111561478f5761478f615dcb565b0361108c5760405162461bcd60e51b815260206004820152602260248201527f45434453413a20696e76616c6964207369676e6174757265202773272076616c604482015261756560f01b6064820152608401610b90565b60606139a38484600085614dfd565b6001600160a01b03821661484c5760405162461bcd60e51b815260206004820181905260248201527f4552433732313a206d696e7420746f20746865207a65726f20616464726573736044820152606401610b90565b6148558161377d565b156148725760405162461bcd60e51b8152600401610b9090615de1565b61488060008383600161437a565b6148898161377d565b156148a65760405162461bcd60e51b8152600401610b9090615de1565b6001600160a01b038216600081815260ff602090815260408083208054600101905584835260fe90915280822080546001600160a01b031916841790555183929190600080516020615ebf833981519152908290a45050565b6000614913846001600160a01b03166130d2565b15614a0357836001600160a01b031663150b7a0261492f6126ff565b8786866040518563ffffffff1660e01b81526004016149519493929190615e18565b6020604051808303816000875af192505050801561498c575060408051601f3d908101601f1916820190925261498991810190615e4b565b60015b6149e9573d8080156149ba576040519150601f19603f3d011682016040523d82523d6000602084013e6149bf565b606091505b5080516000036149e15760405162461bcd60e51b8152600401610b9090615d62565b805181602001fd5b6001600160e01b031916630a85bd0160e11b1490506139a3565b506001949350505050565b600054610100900460ff1661302c5760405162461bcd60e51b8152600401610b9090615c63565b600054610100900460ff166112f65760405162461bcd60e51b8152600401610b9090615c63565b600082815260976020526040808220600101805490849055905190918391839186917fbd79b86ffe0ab8e8776151514217cd7cacd52c909f66475c3af44e129f0b00ff9190a4505050565b600054610100900460ff16614ace5760405162461bcd60e51b8152600401610b9090615c63565b6101c7805460ff60a01b19169055565b600054610100900460ff16614b055760405162461bcd60e51b8152600401610b9090615c63565b60fc614b118382615859565b5060fd610d6e8282615859565b6001811115611162576001600160a01b03841615614b64576001600160a01b038416600090815260ff602052604081208054839290614b5e908490615653565b90915550505b6001600160a01b03831615611162576001600160a01b038316600090815260ff602052604081208054839290614b9b9084906159f5565b909155505050505050565b60006001614bb3846117c1565b614bbd9190615653565b600083815261012f6020526040902054909150808214614c13576001600160a01b038416600090815261012e60209081526040808320858452825280832054848452818420819055835261012f90915290208190555b50600091825261012f602090815260408084208490556001600160a01b03909416835261012e81528383209183525290812055565b61013054600090614c5b90600190615653565b600083815261013160205260408120546101308054939450909284908110614c8557614c856157b1565b90600052602060002001549050806101308381548110614ca757614ca76157b1565b60009182526020808320909101929092558281526101319091526040808220849055858252812055610130805480614ce157614ce1615e68565b6001900381819060005260206000200160009055905550505050565b6000614d08836117c1565b6001600160a01b03909316600090815261012e60209081526040808320868452825280832085905593825261012f9052919091209190915550565b6000806fa2a8918ca85bafe22016d0b997e4df60600160ff1b03831115614d705750600090506003614df4565b6040805160008082526020820180845289905260ff881692820192909252606081018690526080810185905260019060a0016020604051602081039080840390855afa158015614dc4573d6000803e3d6000fd5b5050604051601f1901519150506001600160a01b038116614ded57600060019250925050614df4565b9150600090505b94509492505050565b606082471015614e5e5760405162461bcd60e51b815260206004820152602660248201527f416464726573733a20696e73756666696369656e742062616c616e636520666f6044820152651c8818d85b1b60d21b6064820152608401610b90565b600080866001600160a01b03168587604051614e7a9190615918565b60006040518083038185875af1925050503d8060008114614eb7576040519150601f19603f3d011682016040523d82523d6000602084013e614ebc565b606091505b5091509150614ecd87838387614ed8565b979650505050505050565b60608315614f45578251600003614f3e57614ef2856130d2565b614f3e5760405162461bcd60e51b815260206004820152601d60248201527f416464726573733a2063616c6c20746f206e6f6e2d636f6e74726163740000006044820152606401610b90565b50816139a3565b6139a38383815115614f5a5781518083602001fd5b8060405162461bcd60e51b8152600401610b909190615064565b6001600160e01b03198116811461108c57600080fd5b600060208284031215614f9c57600080fd5b813561119581614f74565b6001600160a01b038116811461108c57600080fd5b8035614fc781614fa7565b919050565b60008060408385031215614fdf57600080fd5b8235614fea81614fa7565b946020939093013593505050565b6001600160a01b0391909116815260200190565b60005b8381101561502757818101518382015260200161500f565b838111156111625750506000910152565b6000815180845261505081602086016020860161500c565b601f01601f19169290920160200192915050565b6020815260006111956020830184615038565b60006020828403121561508957600080fd5b5035919050565b6000602082840312156150a257600080fd5b813561119581614fa7565b6000806000606084860312156150c257600080fd5b505081359360208301359350604090920135919050565b6000806000606084860312156150ee57600080fd5b83356150f981614fa7565b9250602084013561510981614fa7565b929592945050506040919091013590565b6000806040838503121561512d57600080fd5b82359150602083013561513f81614fa7565b809150509250929050565b634e487b7160e01b600052604160045260246000fd5b600082601f83011261517157600080fd5b81356001600160401b038082111561518b5761518b61514a565b604051601f8301601f19908116603f011681019082821181831017156151b3576151b361514a565b816040528381528660208588010111156151cc57600080fd5b836020870160208301376000602085830101528094505050505092915050565b6000602082840312156151fe57600080fd5b81356001600160401b0381111561521457600080fd5b6139a384828501615160565b6000806000806080858703121561523657600080fd5b8435935060208501356001600160401b0381111561525357600080fd5b61525f87828801615160565b949794965050505060408301359260600135919050565b6000806000806080858703121561528c57600080fd5b843561529781614fa7565b9350602085013592506040850135915060608501356001600160401b038111156152c057600080fd5b6152cc87828801615160565b91505092959194509250565b801515811461108c57600080fd5b6000606082840312156152f857600080fd5b604051606081018181106001600160401b038211171561531a5761531a61514a565b604052905080823561532b81614fa7565b8152602083013561533b81614fa7565b6020820152604083013561534e816152d8565b6040919091015292915050565b60006080828403121561536d57600080fd5b604051608081018181106001600160401b038211171561538f5761538f61514a565b8060405250809150823581526020830135602082015260408301356040820152606083013560608201525092915050565b60008060008060008060008060008060006102008c8e0312156153e257600080fd5b6153eb8c614fbc565b9a506001600160401b038060208e0135111561540657600080fd5b6154168e60208f01358f01615160565b9a508060408e0135111561542957600080fd5b6154398e60408f01358f01615160565b99508060608e0135111561544c57600080fd5b5061545d8d60608e01358e01615160565b975061546b60808d01614fbc565b965061547960a08d01614fbc565b955061548760c08d01614fbc565b945061549560e08d01614fbc565b93506101008c013592506154ad8d6101208e016152e6565b91506154bd8d6101808e0161535b565b90509295989b509295989b9093969950565b600080604083850312156154e257600080fd5b82356154ed81614fa7565b9150602083013561513f816152d8565b6000806040838503121561551057600080fd5b50508035926020909101359150565b60008060006060848603121561553457600080fd5b833592506020840135915060408401356001600160401b0381111561555857600080fd5b61556486828701615160565b9150509250925092565b6000806000806080858703121561558457600080fd5b843561558f81614fa7565b9350602085013561559f81614fa7565b92506040850135915060608501356001600160401b038111156152c057600080fd5b600080604083850312156155d457600080fd5b82356155df81614fa7565b9150602083013561513f81614fa7565b6020808252602e908201527f436f6c6c656374696f6e416363657373436f6e74726f6c3a2073656e6465722060408201526d1b9bdd08185d5d1a1bdc9a5e995960921b606082015260800190565b634e487b7160e01b600052601160045260246000fd5b6000828210156156655761566561563d565b500390565b60006001820161567c5761567c61563d565b5060010190565b600181811c9082168061569757607f821691505b6020821081036156b757634e487b7160e01b600052602260045260246000fd5b50919050565b6001600160a01b0392831681529116602082015260400190565b6000602082840312156156e957600080fd5b8151611195816152d8565b6020808252602e908201527f417661746172436f6c6c656374696f6e3a207369676e2061646472657373206960408201526d73207a65726f206164647265737360901b606082015260800190565b60208082526030908201527f436f6c6c656374696f6e416363657373436f6e74726f6c3a206163636f756e7460408201526f206973207a65726f206164647265737360801b606082015260800190565b60008160001904831182151516156157ac576157ac61563d565b500290565b634e487b7160e01b600052603260045260246000fd5b60208082526024908201527f417661746172436f6c6c656374696f6e3a2062617365555249206973206e6f74604082015263081cd95d60e21b606082015260800190565b601f821115610d6e57600081815260208120601f850160051c810160208610156158325750805b601f850160051c820191505b818110156158515782815560010161583e565b505050505050565b81516001600160401b038111156158725761587261514a565b615886816158808454615683565b8461580b565b602080601f8311600181146158bb57600084156158a35750858301515b600019600386901b1c1916600185901b178555615851565b600085815260208120601f198616915b828110156158ea578886015182559484019460019091019084016158cb565b50858210156159085787850151600019600388901b60f8161c191681555b5050505050600190811b01905550565b6000825161592a81846020870161500c565b9190910192915050565b602080825260189082015277115490cdcc8c4e881a5b9d985b1a59081d1bdad95b88125160421b604082015260600190565b60208082526025908201527f417661746172436f6c6c656374696f6e3a2073656e646572206973206e6f742060408201526437bbb732b960d91b606082015260800190565b6020808252602a908201527f417661746172436f6c6c656374696f6e3a207369676e6174757265496420616c6040820152691c9958591e481d5cd95960b21b606082015260800190565b60008219821115615a0857615a0861563d565b500190565b60208082526034908201527f417661746172436f6c6c656374696f6e3a206578656375746f722061646472656040820152731cdcc81a5cc81b9bdd08184818dbdb9d1c9858dd60621b606082015260800190565b600060208284031215615a7357600080fd5b815160ff8116811461119557600080fd5b600181815b80851115615abf578160001904821115615aa557615aa561563d565b80851615615ab257918102915b93841c9390800290615a89565b509250929050565b600082615ad657506001610af4565b81615ae357506000610af4565b8160018114615af95760028114615b0357615b1f565b6001915050610af4565b60ff841115615b1457615b1461563d565b50506001821b610af4565b5060208310610133831016604e8410600b8410161715615b42575081810a610af4565b615b4c8383615a84565b8060001904821115615b6057615b6061563d565b029392505050565b600061119560ff841683615ac7565b6020808252602e908201527f496e697469616c697a61626c653a20636f6e747261637420697320616c72656160408201526d191e481a5b9a5d1a585b1a5e995960921b606082015260800190565b60008351615bd781846020880161500c565b835190830190615beb81836020880161500c565b01949350505050565b6020808252602d908201527f4552433732313a2063616c6c6572206973206e6f7420746f6b656e206f776e6560408201526c1c881bdc88185c1c1c9bdd9959609a1b606082015260800190565b600082615c5e57634e487b7160e01b600052601260045260246000fd5b500690565b6020808252602b908201527f496e697469616c697a61626c653a20636f6e7472616374206973206e6f74206960408201526a6e697469616c697a696e6760a81b606082015260800190565b60208082526025908201527f4552433732313a207472616e736665722066726f6d20696e636f72726563742060408201526437bbb732b960d91b606082015260800190565b76020b1b1b2b9b9a1b7b73a3937b61d1030b1b1b7bab73a1604d1b815260008351615d2581601785016020880161500c565b7001034b99036b4b9b9b4b733903937b6329607d1b6017918401918201528351615d5681602884016020880161500c565b01602801949350505050565b60208082526032908201527f4552433732313a207472616e7366657220746f206e6f6e20455243373231526560408201527131b2b4bb32b91034b6b83632b6b2b73a32b960711b606082015260800190565b600081615dc357615dc361563d565b506000190190565b634e487b7160e01b600052602160045260246000fd5b6020808252601c908201527f4552433732313a20746f6b656e20616c7265616479206d696e74656400000000604082015260600190565b6001600160a01b0385811682528416602082015260408101839052608060608201819052600090613c9d90830184615038565b600060208284031215615e5d57600080fd5b815161119581614f74565b634e487b7160e01b600052603160045260246000fdfe3b49a237fe2d18fa4d9642b8a0e065923cceb71b797783b619a030a61d848bf069fc995a7cdbc94c95dc768dfaa8ceead6003727063f7d665556608319262298ddf252ad1be2c89b69c2b068fc378daa952ba7f163c4a11628f55a4df523b3efe564a4bf9e4db3797c60fe6b6be0c2b012e6557df177e1b63883bd29d00db8dea49807205ce4d355092ef5a8a18f56e8913cf4a201fbe287825b095693c21775f8e1a15aba9398e019f0b49df1a4fde98ee17ae345cb5f6b5e2c27f5033e8ce7a264697066735822122050cde11e0859f9b4ff083d52a8065a64fc718e91988b6452841496f71bbd0ed964736f6c634300080f0033",
  "devdoc": {
    "author": "qed.team x The Sandbox",
    "details": "Upgraded to include a setter for trusted forwarder for meta transactions and fix access control transfer issues",
    "kind": "dev",
    "methods": {
      "acceptOwnership()": {
        "details": "reverts if sender not new pending owner"
      },
      "addConfigurator(address)": {
        "details": "reverts if account is zero address or not called by owner",
        "params": {
          "account": "the address that which will be given the specified role role"
        }
      },
      "addTransformer(address)": {
        "details": "reverts if account is zero address or not called by owner",
        "params": {
          "account": "the address that which will be given the specified role role"
        }
      },
      "approve(address,uint256)": {
        "details": "See OpenZeppelin {IERC721-approve}"
      },
      "balanceOf(address)": {
        "details": "See {IERC721-balanceOf}."
      },
      "burn(uint256)": {
        "custom:event": "TokenBurned",
        "details": "See {ERC721BurnMemoryEnumerableUpgradeable.burn}.      Inherited in order to add the whenNotPaused modifier",
        "params": {
          "tokenId": "the token id to be burned"
        }
      },
      "burnedTokensCount(address)": {
        "params": {
          "previousOwner": "the owner to check for burned tokens"
        },
        "returns": {
          "_0": "number of burned tokens by the indicated owner"
        }
      },
      "burnerOf(uint256)": {
        "details": "Does NOT revert if token was not burned/doesn't exist",
        "params": {
          "tokenId": "the tokenId to be checked who burned it"
        },
        "returns": {
          "_0": "the address of who burned the indicated token ID"
        }
      },
      "chain()": {
        "details": "returns block.chainid",
        "returns": {
          "_0": "current chainID for the blockchain"
        }
      },
      "checkMintAllowed(address,uint256)": {
        "params": {
          "_amount": "amount to be checked if can be minted",
          "_wallet": "wallet to be checked if it can mint"
        },
        "returns": {
          "_0": "if can mint or not"
        }
      },
      "didBurnTokens(address)": {
        "params": {
          "previousOwner": "the owner to check for burned tokens"
        },
        "returns": {
          "_0": "if the address burned any tokens"
        }
      },
      "disableBurning()": {
        "custom:event": "TokenBurningDisabled",
        "details": "reverts if burning already disabled.      Inherited in order to add the onlyOwner modifier"
      },
      "enableBurning()": {
        "custom:event": "TokenBurningEnabled",
        "details": "reverts if burning already enabled.      Inherited in order to add the onlyOwner modifier"
      },
      "getApproved(uint256)": {
        "details": "See {IERC721-getApproved}."
      },
      "getRoleAdmin(bytes32)": {
        "details": "Returns the admin role that controls `role`. See {grantRole} and {revokeRole}. To change a role's admin, use {_setRoleAdmin}."
      },
      "grantRole(bytes32,address)": {
        "details": "Grants `role` to `account`. If `account` had not been already granted `role`, emits a {RoleGranted} event. Requirements: - the caller must have ``role``'s admin role. May emit a {RoleGranted} event."
      },
      "hasRole(bytes32,address)": {
        "details": "Returns `true` if `account` has been granted `role`."
      },
      "initialize(address,string,string,string,address,address,address,address,uint256,(address,address,bool),(uint256,uint256,uint256,uint256))": {
        "details": "calls all the init functions from the base classes. Emits {ContractInitialized} event",
        "params": {
          "_allowedToExecuteMint": "ERC20 token contract through which mint will be done                              It is the only one allowed to call mint",
          "_collectionOwner": "the address that will be set as the owner of the collection",
          "_filterParams": "Opensea registry filter initialization parameters",
          "_initialBaseURI": "an URI that will be used as the base for token URI",
          "_initialTrustedForwarder": "trusted forwarder address",
          "_maxSupply": "max supply of tokens to be allowed to be minted per contract",
          "_mintTreasury": "collection treasury address",
          "_mintingDefaults": "default minting values for predefined wave helpers",
          "_name": "name of the ERC721 token",
          "_signAddress": "signer address that is allowed to create mint signatures",
          "_symbol": "token symbol of the ERC721 token"
        }
      },
      "isApprovedForAll(address,address)": {
        "details": "See {IERC721-isApprovedForAll}."
      },
      "mint(address,uint256,uint256,bytes)": {
        "custom:event": "{Transfer}",
        "params": {
          "_amount": "number of token to mint",
          "_signature": "signing signature value",
          "_signatureId": "signing signature ID",
          "_wallet": "minting wallet"
        }
      },
      "name()": {
        "details": "See {IERC721Metadata-name}."
      },
      "operatorPersonalize(uint256,uint256)": {
        "custom:event": "{Personalized}{MetadataUpdate}",
        "details": "reverts if token does not exist or if not authorized",
        "params": {
          "_personalizationMask": "a mask where each bit has a custom meaning in-game",
          "_tokenId": "what token to personalize"
        }
      },
      "owner()": {
        "details": "returns OwnableUpgradeable.owner()",
        "returns": {
          "_0": "owner of current contract"
        }
      },
      "ownerOf(uint256)": {
        "details": "See {IERC721-ownerOf}."
      },
      "pause()": {
        "details": "reverts if not owner of the collection or if not un-paused"
      },
      "paused()": {
        "details": "Returns true if the contract is paused, and false otherwise."
      },
      "pendingOwner()": {
        "details": "Returns the address of the pending owner."
      },
      "personalizationOf(uint256)": {
        "details": "returns personalizationTraits[_tokenId]",
        "params": {
          "_tokenId": "the token ID to check"
        },
        "returns": {
          "_0": "the personalization data as uint256"
        }
      },
      "personalize(uint256,bytes,uint256,uint256)": {
        "custom:event": "{Personalized}{MetadataUpdate}",
        "details": "after checks, it is reduced to personalizationTraits[_tokenId] = _personalizationMask",
        "params": {
          "_personalizationMask": "a mask where each bit has a custom meaning in-game",
          "_signature": "signing signature",
          "_signatureId": "the ID of the provided signature",
          "_tokenId": "what token to personalize"
        }
      },
      "price(uint256)": {
        "details": "returns waveSingleTokenPrice * _count; Does not check if it is possible      to actually mint that much",
        "params": {
          "_count": "the number of tokens to estimate mint price for"
        },
        "returns": {
          "_0": "price of minting all the tokens"
        }
      },
      "renounceRole(bytes32,address)": {
        "details": "Revokes `role` from the calling account. Roles are often managed via {grantRole} and {revokeRole}: this function's purpose is to provide a mechanism for accounts to lose their privileges if they are compromised (such as when a trusted device is misplaced). If the calling account had been revoked `role`, emits a {RoleRevoked} event. Requirements: - the caller must be `account`. May emit a {RoleRevoked} event."
      },
      "reveal(uint256,uint256,bytes)": {
        "custom:event": "{MetadataUpdate}",
        "details": "will revert if owner of token is not caller or if signature is not valid",
        "params": {
          "_signature": "validation signature",
          "_signatureId": "validation signature ID",
          "_tokenId": "the ID belonging to the NFT token for which to emit the event"
        }
      },
      "revokeConfiguratorRole(address)": {
        "details": "reverts if account is zero address or not called by owner",
        "params": {
          "account": "the account address for which the role to be revoked"
        }
      },
      "revokeRole(bytes32,address)": {
        "details": "Revokes `role` from `account`. If `account` had been granted `role`, emits a {RoleRevoked} event. Requirements: - the caller must have ``role``'s admin role. May emit a {RoleRevoked} event."
      },
      "revokeTransformerRole(address)": {
        "details": "reverts if account is zero address or not called by owner",
        "params": {
          "account": "the account address for which the role to be revoked"
        }
      },
      "safeTransferFrom(address,address,uint256)": {
        "details": "See OpenZeppelin {IERC721-safeTransferFrom}"
      },
      "safeTransferFrom(address,address,uint256,bytes)": {
        "details": "See OpenZeppelin {IERC721-safeTransferFrom}"
      },
      "setAllowedExecuteMint(address)": {
        "custom:event": "{AllowedExecuteMintSet}{DefaultMintingValuesSet}",
        "details": "sets allowedToExecuteMint = _address; address must belong to a contract or reverts",
        "params": {
          "_minterToken": "the address that will be allowed to execute the mint function"
        }
      },
      "setAllowlistMint()": {
        "custom:event": "{WaveSetup}",
        "details": "reverts if not authorized"
      },
      "setApprovalForAll(address,bool)": {
        "details": "See OpenZeppelin {IERC721-setApprovalForAll}"
      },
      "setBaseURI(string)": {
        "custom:event": "{BaseURISet}",
        "details": "sets baseTokenURI = baseURI",
        "params": {
          "baseURI": "an URI that will be used as the base for token URI"
        }
      },
      "setMarketingMint()": {
        "custom:event": "{WaveSetup}",
        "details": "reverts if not authorized"
      },
      "setPublicMint()": {
        "custom:event": "{WaveSetup}",
        "details": "reverts if not authorized"
      },
      "setSignAddress(address)": {
        "custom:event": "{SignAddressSet}",
        "details": "sets signAddress = _signAddress; address can't be 0",
        "params": {
          "_signAddress": "new signer address to be set"
        }
      },
      "setTreasury(address)": {
        "custom:event": "{TreasurySet}",
        "details": "sets mintTreasury = _treasury",
        "params": {
          "_treasury": "new treasury address to be saved"
        }
      },
      "setTrustedForwarder(address)": {
        "details": "Change the address of the trusted forwarder for meta-TX",
        "params": {
          "trustedForwarder": "The new trustedForwarder"
        }
      },
      "setupWave(uint256,uint256,uint256)": {
        "custom:event": "{WaveSetup}",
        "params": {
          "_waveMaxTokensOverall": "the allowed number of tokens to be minted in this wave (cumulative by all minting wallets)",
          "_waveMaxTokensPerWallet": "max tokens to buy, per wallet in a given wave",
          "_waveSingleTokenPrice": "the price to mint a token in a given wave, in wei                              denoted by the allowedToExecuteMint contract"
        }
      },
      "supportsInterface(bytes4)": {
        "details": "See {IERC165-supportsInterface}."
      },
      "symbol()": {
        "details": "See {IERC721Metadata-symbol}."
      },
      "tokenByIndex(uint256)": {
        "details": "See {IERC721Enumerable-tokenByIndex}."
      },
      "tokenOfOwnerByIndex(address,uint256)": {
        "details": "See {IERC721Enumerable-tokenOfOwnerByIndex}."
      },
      "tokenURI(uint256)": {
        "details": "See {IERC721Metadata-tokenURI}."
      },
      "totalSupply()": {
        "details": "See {IERC721Enumerable-totalSupply}."
      },
      "transferFrom(address,address,uint256)": {
        "details": "See OpenZeppelin {IERC721-transferFrom}"
      },
      "transferOwnership(address)": {
        "details": "Starts the ownership transfer of the contract to a new account. Replaces the pending transfer if there is one. Can only be called by the current owner."
      },
      "unpause()": {
        "details": "reverts if not owner of the collection or if not paused"
      }
    },
    "title": "AvatarCollectionV2",
    "version": 1
  },
  "userdoc": {
    "events": {
      "AllowedExecuteMintSet(address)": {
        "notice": "Event emitted when an address was set as allowed to mint"
      },
      "BaseURISet(string)": {
        "notice": "Event emitted when the base token URI for the contract was set or changed"
      },
      "ContractInitialized(string,string,string,address,address,address,uint256,address,address,bool)": {
        "notice": "Event emitted when the contract was initialized."
      },
      "DefaultMintingValuesSet(uint256,uint256,uint256,uint256)": {
        "notice": "Event emitted when the default values used by wave manipulation functions were changed"
      },
      "OwnershipTransferStarted(address,address)": {
        "notice": "event emitted when the ownership transfer routine has been started"
      },
      "Personalized(uint256,uint256)": {
        "notice": "Event emitted when a token personalization was made."
      },
      "SignAddressSet(address)": {
        "notice": "Event emitted when the signer address was set or changed"
      },
      "TokenBurned(uint256,address)": {
        "notice": "event emitted when a token was burned"
      },
      "TokenBurningDisabled()": {
        "notice": "event emitted when token burning was disabled"
      },
      "TokenBurningEnabled()": {
        "notice": "event emitted when token burning was enabled"
      },
      "TreasurySet(address)": {
        "notice": "Event emitted when the treasury address was saved"
      },
      "WaveSetup(uint256,uint256,uint256)": {
        "notice": "Event emitted when a wave was set up"
      }
    },
    "kind": "user",
    "methods": {
      "ADMIN_ROLE()": {
        "notice": "identifier for the ADMIN role. This role is only given to the owner of the contract         and allows for adding other addresses to the CONFIGURATOR and TRANSFORMER role"
      },
      "CONFIGURATOR_ROLE()": {
        "notice": "identifier for the CONFIGURATOR role. Owners of this role can call configuration specific         functions on the avatar contract, including setting base URI and changing minting phase"
      },
      "DEFAULT_MINT_PRICE_FULL()": {
        "notice": "default minting price in full tokens (not WEI) when used, this must be         multiplied by the token \"allowedToExecuteMint\" token decimals"
      },
      "TRANSFORMER_ROLE()": {
        "notice": "identifier for the CONFIGURATOR role. Owners of this role can personalization specific functions         on the avatar contract."
      },
      "acceptOwnership()": {
        "notice": "second part of a 2 step ownership transfer routine.         Also transfers the ADMIN_ROLE as there can only be 1 ADMIN_ROLE"
      },
      "addConfigurator(address)": {
        "notice": "helper function to grant the CONFIGURATOR role to an address"
      },
      "addTransformer(address)": {
        "notice": "helper function to grant the TRANSFORMER role to an address"
      },
      "allowedToExecuteMint()": {
        "notice": "ERC20 contract through which the minting will be done"
      },
      "baseTokenURI()": {
        "notice": "standard base token URL for ERC721 metadata"
      },
      "burn(uint256)": {
        "notice": "Burns `tokenId`. The caller must own `tokenId` or be an approved operator."
      },
      "burnedTokens(address,uint256)": {
        "notice": "burner to list of burned tokens mapping; to see what tokens who burned"
      },
      "burnedTokensCount(address)": {
        "notice": "Gets the number of burned tokens by the indicated owner"
      },
      "burner(uint256)": {
        "notice": "tokenId to burner mapping; saves who burned a specific token"
      },
      "burnerOf(uint256)": {
        "notice": "Returns the burner of the `tokenId`"
      },
      "chain()": {
        "notice": "helper automation function"
      },
      "checkMintAllowed(address,uint256)": {
        "notice": "check if the indicated wallet can mint the indicated amount"
      },
      "didBurnTokens(address)": {
        "notice": "Checks if the indicated owner had burned tokens"
      },
      "disableBurning()": {
        "notice": "disables burning of tokens"
      },
      "enableBurning()": {
        "notice": "enables burning of tokens"
      },
      "indexWave()": {
        "notice": "each wave has an index to help track minting/tokens per wallet"
      },
      "initialize(address,string,string,string,address,address,address,address,uint256,(address,address,bool),(uint256,uint256,uint256,uint256))": {
        "notice": "external entry point initialization function in accordance with the upgradable pattern"
      },
      "isBurnEnabled()": {
        "notice": "flag that gates burning"
      },
      "maxSupply()": {
        "notice": "max token supply"
      },
      "mint(address,uint256,uint256,bytes)": {
        "notice": "token minting function. Price is set by wave and is paid in tokens denoted         by the allowedToExecuteMint contract"
      },
      "mintTreasury()": {
        "notice": "treasury address where mint tokens are sent"
      },
      "mintingDefaults()": {
        "notice": "default are used when calling predefined wave setup functions:         setMarketingMint, setAllowlistMint and setPublicMint         see struct MintingDefaults for more details"
      },
      "operatorPersonalize(uint256,uint256)": {
        "notice": "personalize token traits but can be called by owner or special roles address         Used to change the traits of a token based on an in-game action"
      },
      "owner()": {
        "notice": "returns the owner of the contract"
      },
      "pause()": {
        "notice": "pauses the contract"
      },
      "personalizationOf(uint256)": {
        "notice": "get the personalization of the indicated tokenID"
      },
      "personalizationTraits(uint256)": {
        "notice": "stores the personalization for a tokenId"
      },
      "personalize(uint256,bytes,uint256,uint256)": {
        "notice": "personalize token traits according to the provided personalization bit-mask"
      },
      "price(uint256)": {
        "notice": "get the price of minting the indicated number of tokens for the current wave"
      },
      "renounceOwnership()": {
        "notice": "renounce ownership function, made to revert as a failsafe"
      },
      "reveal(uint256,uint256,bytes)": {
        "notice": "helper function to emit the {MetadataUpdate} event in order for marketplaces to, on demand,         refresh metadata, for the provided token ID. Off-chain, gaming mechanics are done and this         function is ultimately called to signal the end of a reveal."
      },
      "revokeConfiguratorRole(address)": {
        "notice": "helper function to revert the CONFIGURATOR role that was given to an address"
      },
      "revokeTransformerRole(address)": {
        "notice": "helper function to revert the TRANSFORMER role that was given to an address"
      },
      "setAllowedExecuteMint(address)": {
        "notice": "sets which address is allowed to execute the mint function. Also resets default mint price"
      },
      "setAllowlistMint()": {
        "notice": "helper function to set all token configs to that of the allowlist minting phase.         Can be called by owner or specially designated role, CONFIGURATOR.         Uses default values set on contract initialization"
      },
      "setBaseURI(string)": {
        "notice": "sets the base token URI for the contract"
      },
      "setMarketingMint()": {
        "notice": "helper function to set all token configs to that of the marketing minting phase.         Can be called by owner or specially designated role, CONFIGURATOR.         Uses default values set on contract initialization"
      },
      "setPublicMint()": {
        "notice": "helper function to set all token configs to that of the public minting phase.         Can be called by owner or specially designated role, CONFIGURATOR.         Uses default values set on contract initialization"
      },
      "setSignAddress(address)": {
        "notice": "sets the sign address. Emits {SignAddressSet} event"
      },
      "setTreasury(address)": {
        "notice": "saving locally the treasury address"
      },
      "setTrustedForwarder(address)": {
        "notice": "Set a new trusted forwarder address, limited to ADMIN_ROLE only"
      },
      "setupWave(uint256,uint256,uint256)": {
        "notice": "function to setup wave parameters. A wave is defined as a combination of allowed number tokens to be         minted in total, per wallet and minting price"
      },
      "signAddress()": {
        "notice": "all signatures must come from this specific address, otherwise are invalid"
      },
      "unpause()": {
        "notice": "unpauses the contract"
      },
      "updateOperatorFilterRegistryAddress(address)": {
        "notice": "Update the address that the contract will make OperatorFilter checks against. When set to the zero         address, checks will be bypassed. OnlyOwner."
      },
      "waveMaxTokensOverall()": {
        "notice": "max tokens to buy per wave, cumulating all addresses"
      },
      "waveMaxTokensPerWallet()": {
        "notice": "max tokens to buy, per wallet in a given wave"
      },
      "waveOwnerToClaimedCounts(address,uint256)": {
        "notice": "mapping of [owner -> wave index -> minted count]"
      },
      "waveSingleTokenPrice()": {
        "notice": "price of one token mint (in the token denoted by the allowedToExecuteMint contract)"
      },
      "waveTotalMinted()": {
        "notice": "number of total minted tokens in the current running wave"
      }
    },
    "notice": "ERC721 contract for future Avatar collections.         Is expected to be initialize via {CollectionFactory} or other similar factories",
    "version": 1
  },
  "storageLayout": {
    "storage": [
      {
        "astId": 7144,
        "contract": "@sandbox-smart-contracts/avatar/contracts/avatar/AvatarCollectionV2.sol:AvatarCollectionV2",
        "label": "_initialized",
        "offset": 0,
        "slot": "0",
        "type": "t_uint8"
      },
      {
        "astId": 7147,
        "contract": "@sandbox-smart-contracts/avatar/contracts/avatar/AvatarCollectionV2.sol:AvatarCollectionV2",
        "label": "_initializing",
        "offset": 1,
        "slot": "0",
        "type": "t_bool"
      },
      {
        "astId": 7447,
        "contract": "@sandbox-smart-contracts/avatar/contracts/avatar/AvatarCollectionV2.sol:AvatarCollectionV2",
        "label": "_status",
        "offset": 0,
        "slot": "1",
        "type": "t_uint256"
      },
      {
        "astId": 7505,
        "contract": "@sandbox-smart-contracts/avatar/contracts/avatar/AvatarCollectionV2.sol:AvatarCollectionV2",
        "label": "__gap",
        "offset": 0,
        "slot": "2",
        "type": "t_array(t_uint256)49_storage"
      },
      {
        "astId": 9367,
        "contract": "@sandbox-smart-contracts/avatar/contracts/avatar/AvatarCollectionV2.sol:AvatarCollectionV2",
        "label": "__gap",
        "offset": 0,
        "slot": "51",
        "type": "t_array(t_uint256)50_storage"
      },
      {
        "astId": 9586,
        "contract": "@sandbox-smart-contracts/avatar/contracts/avatar/AvatarCollectionV2.sol:AvatarCollectionV2",
        "label": "__gap",
        "offset": 0,
        "slot": "101",
        "type": "t_array(t_uint256)50_storage"
      },
      {
        "astId": 6636,
        "contract": "@sandbox-smart-contracts/avatar/contracts/avatar/AvatarCollectionV2.sol:AvatarCollectionV2",
        "label": "_roles",
        "offset": 0,
        "slot": "151",
        "type": "t_mapping(t_bytes32,t_struct(RoleData)6631_storage)"
      },
      {
        "astId": 6931,
        "contract": "@sandbox-smart-contracts/avatar/contracts/avatar/AvatarCollectionV2.sol:AvatarCollectionV2",
        "label": "__gap",
        "offset": 0,
        "slot": "152",
        "type": "t_array(t_uint256)49_storage"
      },
      {
        "astId": 7016,
        "contract": "@sandbox-smart-contracts/avatar/contracts/avatar/AvatarCollectionV2.sol:AvatarCollectionV2",
        "label": "_owner",
        "offset": 0,
        "slot": "201",
        "type": "t_address"
      },
      {
        "astId": 7136,
        "contract": "@sandbox-smart-contracts/avatar/contracts/avatar/AvatarCollectionV2.sol:AvatarCollectionV2",
        "label": "__gap",
        "offset": 0,
        "slot": "202",
        "type": "t_array(t_uint256)49_storage"
      },
      {
        "astId": 12176,
        "contract": "@sandbox-smart-contracts/avatar/contracts/avatar/AvatarCollectionV2.sol:AvatarCollectionV2",
        "label": "_pendingOwner",
        "offset": 0,
        "slot": "251",
        "type": "t_address"
      },
      {
        "astId": 7535,
        "contract": "@sandbox-smart-contracts/avatar/contracts/avatar/AvatarCollectionV2.sol:AvatarCollectionV2",
        "label": "_name",
        "offset": 0,
        "slot": "252",
        "type": "t_string_storage"
      },
      {
        "astId": 7537,
        "contract": "@sandbox-smart-contracts/avatar/contracts/avatar/AvatarCollectionV2.sol:AvatarCollectionV2",
        "label": "_symbol",
        "offset": 0,
        "slot": "253",
        "type": "t_string_storage"
      },
      {
        "astId": 7541,
        "contract": "@sandbox-smart-contracts/avatar/contracts/avatar/AvatarCollectionV2.sol:AvatarCollectionV2",
        "label": "_owners",
        "offset": 0,
        "slot": "254",
        "type": "t_mapping(t_uint256,t_address)"
      },
      {
        "astId": 7545,
        "contract": "@sandbox-smart-contracts/avatar/contracts/avatar/AvatarCollectionV2.sol:AvatarCollectionV2",
        "label": "_balances",
        "offset": 0,
        "slot": "255",
        "type": "t_mapping(t_address,t_uint256)"
      },
      {
        "astId": 7549,
        "contract": "@sandbox-smart-contracts/avatar/contracts/avatar/AvatarCollectionV2.sol:AvatarCollectionV2",
        "label": "_tokenApprovals",
        "offset": 0,
        "slot": "256",
        "type": "t_mapping(t_uint256,t_address)"
      },
      {
        "astId": 7555,
        "contract": "@sandbox-smart-contracts/avatar/contracts/avatar/AvatarCollectionV2.sol:AvatarCollectionV2",
        "label": "_operatorApprovals",
        "offset": 0,
        "slot": "257",
        "type": "t_mapping(t_address,t_mapping(t_address,t_bool))"
      },
      {
        "astId": 8475,
        "contract": "@sandbox-smart-contracts/avatar/contracts/avatar/AvatarCollectionV2.sol:AvatarCollectionV2",
        "label": "__gap",
        "offset": 0,
        "slot": "258",
        "type": "t_array(t_uint256)44_storage"
      },
      {
        "astId": 8640,
        "contract": "@sandbox-smart-contracts/avatar/contracts/avatar/AvatarCollectionV2.sol:AvatarCollectionV2",
        "label": "_ownedTokens",
        "offset": 0,
        "slot": "302",
        "type": "t_mapping(t_address,t_mapping(t_uint256,t_uint256))"
      },
      {
        "astId": 8644,
        "contract": "@sandbox-smart-contracts/avatar/contracts/avatar/AvatarCollectionV2.sol:AvatarCollectionV2",
        "label": "_ownedTokensIndex",
        "offset": 0,
        "slot": "303",
        "type": "t_mapping(t_uint256,t_uint256)"
      },
      {
        "astId": 8647,
        "contract": "@sandbox-smart-contracts/avatar/contracts/avatar/AvatarCollectionV2.sol:AvatarCollectionV2",
        "label": "_allTokens",
        "offset": 0,
        "slot": "304",
        "type": "t_array(t_uint256)dyn_storage"
      },
      {
        "astId": 8651,
        "contract": "@sandbox-smart-contracts/avatar/contracts/avatar/AvatarCollectionV2.sol:AvatarCollectionV2",
        "label": "_allTokensIndex",
        "offset": 0,
        "slot": "305",
        "type": "t_mapping(t_uint256,t_uint256)"
      },
      {
        "astId": 8983,
        "contract": "@sandbox-smart-contracts/avatar/contracts/avatar/AvatarCollectionV2.sol:AvatarCollectionV2",
        "label": "__gap",
        "offset": 0,
        "slot": "306",
        "type": "t_array(t_uint256)46_storage"
      },
      {
        "astId": 12461,
        "contract": "@sandbox-smart-contracts/avatar/contracts/avatar/AvatarCollectionV2.sol:AvatarCollectionV2",
        "label": "burner",
        "offset": 0,
        "slot": "352",
        "type": "t_mapping(t_uint256,t_address)"
      },
      {
        "astId": 12467,
        "contract": "@sandbox-smart-contracts/avatar/contracts/avatar/AvatarCollectionV2.sol:AvatarCollectionV2",
        "label": "burnedTokens",
        "offset": 0,
        "slot": "353",
        "type": "t_mapping(t_address,t_array(t_uint256)dyn_storage)"
      },
      {
        "astId": 12470,
        "contract": "@sandbox-smart-contracts/avatar/contracts/avatar/AvatarCollectionV2.sol:AvatarCollectionV2",
        "label": "isBurnEnabled",
        "offset": 0,
        "slot": "354",
        "type": "t_bool"
      },
      {
        "astId": 12615,
        "contract": "@sandbox-smart-contracts/avatar/contracts/avatar/AvatarCollectionV2.sol:AvatarCollectionV2",
        "label": "__gap",
        "offset": 0,
        "slot": "355",
        "type": "t_array(t_uint256)50_storage"
      },
      {
        "astId": 12621,
        "contract": "@sandbox-smart-contracts/avatar/contracts/avatar/AvatarCollectionV2.sol:AvatarCollectionV2",
        "label": "_trustedForwarder",
        "offset": 0,
        "slot": "405",
        "type": "t_address"
      },
      {
        "astId": 12625,
        "contract": "@sandbox-smart-contracts/avatar/contracts/avatar/AvatarCollectionV2.sol:AvatarCollectionV2",
        "label": "__gap",
        "offset": 0,
        "slot": "406",
        "type": "t_array(t_uint256)49_storage"
      },
      {
        "astId": 12935,
        "contract": "@sandbox-smart-contracts/avatar/contracts/avatar/AvatarCollectionV2.sol:AvatarCollectionV2",
        "label": "operatorFilterRegistry",
        "offset": 0,
        "slot": "455",
        "type": "t_contract(IOperatorFilterRegistry)12918"
      },
      {
        "astId": 7327,
        "contract": "@sandbox-smart-contracts/avatar/contracts/avatar/AvatarCollectionV2.sol:AvatarCollectionV2",
        "label": "_paused",
        "offset": 20,
        "slot": "455",
        "type": "t_bool"
      },
      {
        "astId": 7432,
        "contract": "@sandbox-smart-contracts/avatar/contracts/avatar/AvatarCollectionV2.sol:AvatarCollectionV2",
        "label": "__gap",
        "offset": 0,
        "slot": "456",
        "type": "t_array(t_uint256)49_storage"
      },
      {
        "astId": 10535,
        "contract": "@sandbox-smart-contracts/avatar/contracts/avatar/AvatarCollectionV2.sol:AvatarCollectionV2",
        "label": "maxSupply",
        "offset": 0,
        "slot": "505",
        "type": "t_uint256"
      },
      {
        "astId": 10538,
        "contract": "@sandbox-smart-contracts/avatar/contracts/avatar/AvatarCollectionV2.sol:AvatarCollectionV2",
        "label": "mintTreasury",
        "offset": 0,
        "slot": "506",
        "type": "t_address"
      },
      {
        "astId": 10541,
        "contract": "@sandbox-smart-contracts/avatar/contracts/avatar/AvatarCollectionV2.sol:AvatarCollectionV2",
        "label": "baseTokenURI",
        "offset": 0,
        "slot": "507",
        "type": "t_string_storage"
      },
      {
        "astId": 10544,
        "contract": "@sandbox-smart-contracts/avatar/contracts/avatar/AvatarCollectionV2.sol:AvatarCollectionV2",
        "label": "waveMaxTokensOverall",
        "offset": 0,
        "slot": "508",
        "type": "t_uint256"
      },
      {
        "astId": 10547,
        "contract": "@sandbox-smart-contracts/avatar/contracts/avatar/AvatarCollectionV2.sol:AvatarCollectionV2",
        "label": "waveMaxTokensPerWallet",
        "offset": 0,
        "slot": "509",
        "type": "t_uint256"
      },
      {
        "astId": 10550,
        "contract": "@sandbox-smart-contracts/avatar/contracts/avatar/AvatarCollectionV2.sol:AvatarCollectionV2",
        "label": "waveSingleTokenPrice",
        "offset": 0,
        "slot": "510",
        "type": "t_uint256"
      },
      {
        "astId": 10553,
        "contract": "@sandbox-smart-contracts/avatar/contracts/avatar/AvatarCollectionV2.sol:AvatarCollectionV2",
        "label": "waveTotalMinted",
        "offset": 0,
        "slot": "511",
        "type": "t_uint256"
      },
      {
        "astId": 10560,
        "contract": "@sandbox-smart-contracts/avatar/contracts/avatar/AvatarCollectionV2.sol:AvatarCollectionV2",
        "label": "waveOwnerToClaimedCounts",
        "offset": 0,
        "slot": "512",
        "type": "t_mapping(t_address,t_mapping(t_uint256,t_uint256))"
      },
      {
        "astId": 10563,
        "contract": "@sandbox-smart-contracts/avatar/contracts/avatar/AvatarCollectionV2.sol:AvatarCollectionV2",
        "label": "indexWave",
        "offset": 0,
        "slot": "513",
        "type": "t_uint256"
      },
      {
        "astId": 10567,
        "contract": "@sandbox-smart-contracts/avatar/contracts/avatar/AvatarCollectionV2.sol:AvatarCollectionV2",
        "label": "mintingDefaults",
        "offset": 0,
        "slot": "514",
        "type": "t_struct(MintingDefaults)10521_storage"
      },
      {
        "astId": 10570,
        "contract": "@sandbox-smart-contracts/avatar/contracts/avatar/AvatarCollectionV2.sol:AvatarCollectionV2",
        "label": "allowedToExecuteMint",
        "offset": 0,
        "slot": "518",
        "type": "t_address"
      },
      {
        "astId": 10573,
        "contract": "@sandbox-smart-contracts/avatar/contracts/avatar/AvatarCollectionV2.sol:AvatarCollectionV2",
        "label": "signAddress",
        "offset": 0,
        "slot": "519",
        "type": "t_address"
      },
      {
        "astId": 10578,
        "contract": "@sandbox-smart-contracts/avatar/contracts/avatar/AvatarCollectionV2.sol:AvatarCollectionV2",
        "label": "personalizationTraits",
        "offset": 0,
        "slot": "520",
        "type": "t_mapping(t_uint256,t_uint256)"
      },
      {
        "astId": 10583,
        "contract": "@sandbox-smart-contracts/avatar/contracts/avatar/AvatarCollectionV2.sol:AvatarCollectionV2",
        "label": "_signatureIds",
        "offset": 0,
        "slot": "521",
        "type": "t_mapping(t_uint256,t_uint256)"
      },
      {
        "astId": 10588,
        "contract": "@sandbox-smart-contracts/avatar/contracts/avatar/AvatarCollectionV2.sol:AvatarCollectionV2",
        "label": "_availableIds",
        "offset": 0,
        "slot": "522",
        "type": "t_mapping(t_uint256,t_uint256)"
      },
      {
        "astId": 12120,
        "contract": "@sandbox-smart-contracts/avatar/contracts/avatar/AvatarCollectionV2.sol:AvatarCollectionV2",
        "label": "__gap",
        "offset": 0,
        "slot": "523",
        "type": "t_array(t_uint256)50_storage"
      }
    ],
    "types": {
      "t_address": {
        "encoding": "inplace",
        "label": "address",
        "numberOfBytes": "20"
      },
      "t_array(t_uint256)44_storage": {
        "base": "t_uint256",
        "encoding": "inplace",
        "label": "uint256[44]",
        "numberOfBytes": "1408"
      },
      "t_array(t_uint256)46_storage": {
        "base": "t_uint256",
        "encoding": "inplace",
        "label": "uint256[46]",
        "numberOfBytes": "1472"
      },
      "t_array(t_uint256)49_storage": {
        "base": "t_uint256",
        "encoding": "inplace",
        "label": "uint256[49]",
        "numberOfBytes": "1568"
      },
      "t_array(t_uint256)50_storage": {
        "base": "t_uint256",
        "encoding": "inplace",
        "label": "uint256[50]",
        "numberOfBytes": "1600"
      },
      "t_array(t_uint256)dyn_storage": {
        "base": "t_uint256",
        "encoding": "dynamic_array",
        "label": "uint256[]",
        "numberOfBytes": "32"
      },
      "t_bool": {
        "encoding": "inplace",
        "label": "bool",
        "numberOfBytes": "1"
      },
      "t_bytes32": {
        "encoding": "inplace",
        "label": "bytes32",
        "numberOfBytes": "32"
      },
      "t_contract(IOperatorFilterRegistry)12918": {
        "encoding": "inplace",
        "label": "contract IOperatorFilterRegistry",
        "numberOfBytes": "20"
      },
      "t_mapping(t_address,t_array(t_uint256)dyn_storage)": {
        "encoding": "mapping",
        "key": "t_address",
        "label": "mapping(address => uint256[])",
        "numberOfBytes": "32",
        "value": "t_array(t_uint256)dyn_storage"
      },
      "t_mapping(t_address,t_bool)": {
        "encoding": "mapping",
        "key": "t_address",
        "label": "mapping(address => bool)",
        "numberOfBytes": "32",
        "value": "t_bool"
      },
      "t_mapping(t_address,t_mapping(t_address,t_bool))": {
        "encoding": "mapping",
        "key": "t_address",
        "label": "mapping(address => mapping(address => bool))",
        "numberOfBytes": "32",
        "value": "t_mapping(t_address,t_bool)"
      },
      "t_mapping(t_address,t_mapping(t_uint256,t_uint256))": {
        "encoding": "mapping",
        "key": "t_address",
        "label": "mapping(address => mapping(uint256 => uint256))",
        "numberOfBytes": "32",
        "value": "t_mapping(t_uint256,t_uint256)"
      },
      "t_mapping(t_address,t_uint256)": {
        "encoding": "mapping",
        "key": "t_address",
        "label": "mapping(address => uint256)",
        "numberOfBytes": "32",
        "value": "t_uint256"
      },
      "t_mapping(t_bytes32,t_struct(RoleData)6631_storage)": {
        "encoding": "mapping",
        "key": "t_bytes32",
        "label": "mapping(bytes32 => struct AccessControlUpgradeable.RoleData)",
        "numberOfBytes": "32",
        "value": "t_struct(RoleData)6631_storage"
      },
      "t_mapping(t_uint256,t_address)": {
        "encoding": "mapping",
        "key": "t_uint256",
        "label": "mapping(uint256 => address)",
        "numberOfBytes": "32",
        "value": "t_address"
      },
      "t_mapping(t_uint256,t_uint256)": {
        "encoding": "mapping",
        "key": "t_uint256",
        "label": "mapping(uint256 => uint256)",
        "numberOfBytes": "32",
        "value": "t_uint256"
      },
      "t_string_storage": {
        "encoding": "bytes",
        "label": "string",
        "numberOfBytes": "32"
      },
      "t_struct(MintingDefaults)10521_storage": {
        "encoding": "inplace",
        "label": "struct AvatarCollection.MintingDefaults",
        "members": [
          {
            "astId": 10514,
            "contract": "@sandbox-smart-contracts/avatar/contracts/avatar/AvatarCollectionV2.sol:AvatarCollectionV2",
            "label": "mintPrice",
            "offset": 0,
            "slot": "0",
            "type": "t_uint256"
          },
          {
            "astId": 10516,
            "contract": "@sandbox-smart-contracts/avatar/contracts/avatar/AvatarCollectionV2.sol:AvatarCollectionV2",
            "label": "maxPublicTokensPerWallet",
            "offset": 0,
            "slot": "1",
            "type": "t_uint256"
          },
          {
            "astId": 10518,
            "contract": "@sandbox-smart-contracts/avatar/contracts/avatar/AvatarCollectionV2.sol:AvatarCollectionV2",
            "label": "maxAllowlistTokensPerWallet",
            "offset": 0,
            "slot": "2",
            "type": "t_uint256"
          },
          {
            "astId": 10520,
            "contract": "@sandbox-smart-contracts/avatar/contracts/avatar/AvatarCollectionV2.sol:AvatarCollectionV2",
            "label": "maxMarketingTokens",
            "offset": 0,
            "slot": "3",
            "type": "t_uint256"
          }
        ],
        "numberOfBytes": "128"
      },
      "t_struct(RoleData)6631_storage": {
        "encoding": "inplace",
        "label": "struct AccessControlUpgradeable.RoleData",
        "members": [
          {
            "astId": 6628,
            "contract": "@sandbox-smart-contracts/avatar/contracts/avatar/AvatarCollectionV2.sol:AvatarCollectionV2",
            "label": "members",
            "offset": 0,
            "slot": "0",
            "type": "t_mapping(t_address,t_bool)"
          },
          {
            "astId": 6630,
            "contract": "@sandbox-smart-contracts/avatar/contracts/avatar/AvatarCollectionV2.sol:AvatarCollectionV2",
            "label": "adminRole",
            "offset": 0,
            "slot": "1",
            "type": "t_bytes32"
          }
        ],
        "numberOfBytes": "64"
      },
      "t_uint256": {
        "encoding": "inplace",
        "label": "uint256",
        "numberOfBytes": "32"
      },
      "t_uint8": {
        "encoding": "inplace",
        "label": "uint8",
        "numberOfBytes": "1"
      }
    }
  }
}