{
  "address": "0xa6c3Fe9D0F99007C4Ceeb23F5F4D74982D0b7260",
  "abi": [
    {
      "inputs": [],
      "stateMutability": "nonpayable",
      "type": "constructor"
    },
    {
      "anonymous": false,
      "inputs": [
        {
          "indexed": true,
          "internalType": "bytes32",
          "name": "orderKeyHash",
          "type": "bytes32"
        },
        {
          "components": [
            {
              "internalType": "address",
              "name": "maker",
              "type": "address"
            },
            {
              "components": [
                {
                  "components": [
                    {
                      "internalType": "enum LibAsset.AssetClass",
                      "name": "assetClass",
                      "type": "uint8"
                    },
                    {
                      "internalType": "bytes",
                      "name": "data",
                      "type": "bytes"
                    }
                  ],
                  "internalType": "struct LibAsset.AssetType",
                  "name": "assetType",
                  "type": "tuple"
                },
                {
                  "internalType": "uint256",
                  "name": "value",
                  "type": "uint256"
                }
              ],
              "internalType": "struct LibAsset.Asset",
              "name": "makeAsset",
              "type": "tuple"
            },
            {
              "internalType": "address",
              "name": "taker",
              "type": "address"
            },
            {
              "components": [
                {
                  "components": [
                    {
                      "internalType": "enum LibAsset.AssetClass",
                      "name": "assetClass",
                      "type": "uint8"
                    },
                    {
                      "internalType": "bytes",
                      "name": "data",
                      "type": "bytes"
                    }
                  ],
                  "internalType": "struct LibAsset.AssetType",
                  "name": "assetType",
                  "type": "tuple"
                },
                {
                  "internalType": "uint256",
                  "name": "value",
                  "type": "uint256"
                }
              ],
              "internalType": "struct LibAsset.Asset",
              "name": "takeAsset",
              "type": "tuple"
            },
            {
              "internalType": "uint256",
              "name": "salt",
              "type": "uint256"
            },
            {
              "internalType": "uint256",
              "name": "start",
              "type": "uint256"
            },
            {
              "internalType": "uint256",
              "name": "end",
              "type": "uint256"
            }
          ],
          "indexed": false,
          "internalType": "struct LibOrder.Order",
          "name": "order",
          "type": "tuple"
        }
      ],
      "name": "Cancel",
      "type": "event"
    },
    {
      "anonymous": false,
      "inputs": [
        {
          "indexed": true,
          "internalType": "address",
          "name": "newDefaultFeeReceiver",
          "type": "address"
        }
      ],
      "name": "DefaultFeeReceiverSet",
      "type": "event"
    },
    {
      "anonymous": false,
      "inputs": [
        {
          "indexed": false,
          "internalType": "uint8",
          "name": "version",
          "type": "uint8"
        }
      ],
      "name": "Initialized",
      "type": "event"
    },
    {
      "anonymous": false,
      "inputs": [
        {
          "indexed": true,
          "internalType": "address",
          "name": "from",
          "type": "address"
        },
        {
          "indexed": true,
          "internalType": "bytes32",
          "name": "orderKeyHashLeft",
          "type": "bytes32"
        },
        {
          "indexed": true,
          "internalType": "bytes32",
          "name": "orderKeyHashRight",
          "type": "bytes32"
        },
        {
          "components": [
            {
              "internalType": "address",
              "name": "maker",
              "type": "address"
            },
            {
              "components": [
                {
                  "components": [
                    {
                      "internalType": "enum LibAsset.AssetClass",
                      "name": "assetClass",
                      "type": "uint8"
                    },
                    {
                      "internalType": "bytes",
                      "name": "data",
                      "type": "bytes"
                    }
                  ],
                  "internalType": "struct LibAsset.AssetType",
                  "name": "assetType",
                  "type": "tuple"
                },
                {
                  "internalType": "uint256",
                  "name": "value",
                  "type": "uint256"
                }
              ],
              "internalType": "struct LibAsset.Asset",
              "name": "makeAsset",
              "type": "tuple"
            },
            {
              "internalType": "address",
              "name": "taker",
              "type": "address"
            },
            {
              "components": [
                {
                  "components": [
                    {
                      "internalType": "enum LibAsset.AssetClass",
                      "name": "assetClass",
                      "type": "uint8"
                    },
                    {
                      "internalType": "bytes",
                      "name": "data",
                      "type": "bytes"
                    }
                  ],
                  "internalType": "struct LibAsset.AssetType",
                  "name": "assetType",
                  "type": "tuple"
                },
                {
                  "internalType": "uint256",
                  "name": "value",
                  "type": "uint256"
                }
              ],
              "internalType": "struct LibAsset.Asset",
              "name": "takeAsset",
              "type": "tuple"
            },
            {
              "internalType": "uint256",
              "name": "salt",
              "type": "uint256"
            },
            {
              "internalType": "uint256",
              "name": "start",
              "type": "uint256"
            },
            {
              "internalType": "uint256",
              "name": "end",
              "type": "uint256"
            }
          ],
          "indexed": false,
          "internalType": "struct LibOrder.Order",
          "name": "orderLeft",
          "type": "tuple"
        },
        {
          "components": [
            {
              "internalType": "address",
              "name": "maker",
              "type": "address"
            },
            {
              "components": [
                {
                  "components": [
                    {
                      "internalType": "enum LibAsset.AssetClass",
                      "name": "assetClass",
                      "type": "uint8"
                    },
                    {
                      "internalType": "bytes",
                      "name": "data",
                      "type": "bytes"
                    }
                  ],
                  "internalType": "struct LibAsset.AssetType",
                  "name": "assetType",
                  "type": "tuple"
                },
                {
                  "internalType": "uint256",
                  "name": "value",
                  "type": "uint256"
                }
              ],
              "internalType": "struct LibAsset.Asset",
              "name": "makeAsset",
              "type": "tuple"
            },
            {
              "internalType": "address",
              "name": "taker",
              "type": "address"
            },
            {
              "components": [
                {
                  "components": [
                    {
                      "internalType": "enum LibAsset.AssetClass",
                      "name": "assetClass",
                      "type": "uint8"
                    },
                    {
                      "internalType": "bytes",
                      "name": "data",
                      "type": "bytes"
                    }
                  ],
                  "internalType": "struct LibAsset.AssetType",
                  "name": "assetType",
                  "type": "tuple"
                },
                {
                  "internalType": "uint256",
                  "name": "value",
                  "type": "uint256"
                }
              ],
              "internalType": "struct LibAsset.Asset",
              "name": "takeAsset",
              "type": "tuple"
            },
            {
              "internalType": "uint256",
              "name": "salt",
              "type": "uint256"
            },
            {
              "internalType": "uint256",
              "name": "start",
              "type": "uint256"
            },
            {
              "internalType": "uint256",
              "name": "end",
              "type": "uint256"
            }
          ],
          "indexed": false,
          "internalType": "struct LibOrder.Order",
          "name": "orderRight",
          "type": "tuple"
        },
        {
          "components": [
            {
              "internalType": "uint256",
              "name": "leftValue",
              "type": "uint256"
            },
            {
              "internalType": "uint256",
              "name": "rightValue",
              "type": "uint256"
            }
          ],
          "indexed": false,
          "internalType": "struct LibOrder.FillResult",
          "name": "newFill",
          "type": "tuple"
        },
        {
          "indexed": false,
          "internalType": "uint256",
          "name": "totalFillLeft",
          "type": "uint256"
        },
        {
          "indexed": false,
          "internalType": "uint256",
          "name": "totalFillRight",
          "type": "uint256"
        }
      ],
      "name": "Match",
      "type": "event"
    },
    {
      "anonymous": false,
      "inputs": [
        {
          "indexed": true,
          "internalType": "uint256",
          "name": "newMatchOrdersLimit",
          "type": "uint256"
        }
      ],
      "name": "MatchOrdersLimitSet",
      "type": "event"
    },
    {
      "anonymous": false,
      "inputs": [
        {
          "indexed": true,
          "internalType": "contract IOrderValidator",
          "name": "contractAddress",
          "type": "address"
        }
      ],
      "name": "OrderValidatorSet",
      "type": "event"
    },
    {
      "anonymous": false,
      "inputs": [
        {
          "indexed": false,
          "internalType": "address",
          "name": "account",
          "type": "address"
        }
      ],
      "name": "Paused",
      "type": "event"
    },
    {
      "anonymous": false,
      "inputs": [
        {
          "indexed": true,
          "internalType": "uint256",
          "name": "newProtocolFeePrimary",
          "type": "uint256"
        },
        {
          "indexed": true,
          "internalType": "uint256",
          "name": "newProtocolFeeSecondary",
          "type": "uint256"
        }
      ],
      "name": "ProtocolFeeSet",
      "type": "event"
    },
    {
      "anonymous": false,
      "inputs": [
        {
          "indexed": true,
          "internalType": "bytes32",
          "name": "role",
          "type": "bytes32"
        },
        {
          "indexed": true,
          "internalType": "bytes32",
          "name": "previousAdminRole",
          "type": "bytes32"
        },
        {
          "indexed": true,
          "internalType": "bytes32",
          "name": "newAdminRole",
          "type": "bytes32"
        }
      ],
      "name": "RoleAdminChanged",
      "type": "event"
    },
    {
      "anonymous": false,
      "inputs": [
        {
          "indexed": true,
          "internalType": "bytes32",
          "name": "role",
          "type": "bytes32"
        },
        {
          "indexed": true,
          "internalType": "address",
          "name": "account",
          "type": "address"
        },
        {
          "indexed": true,
          "internalType": "address",
          "name": "sender",
          "type": "address"
        }
      ],
      "name": "RoleGranted",
      "type": "event"
    },
    {
      "anonymous": false,
      "inputs": [
        {
          "indexed": true,
          "internalType": "bytes32",
          "name": "role",
          "type": "bytes32"
        },
        {
          "indexed": true,
          "internalType": "address",
          "name": "account",
          "type": "address"
        },
        {
          "indexed": true,
          "internalType": "address",
          "name": "sender",
          "type": "address"
        }
      ],
      "name": "RoleRevoked",
      "type": "event"
    },
    {
      "anonymous": false,
      "inputs": [
        {
          "indexed": true,
          "internalType": "contract IRoyaltiesProvider",
          "name": "newRoyaltiesRegistry",
          "type": "address"
        }
      ],
      "name": "RoyaltiesRegistrySet",
      "type": "event"
    },
    {
      "anonymous": false,
      "inputs": [
        {
          "indexed": true,
          "internalType": "address",
          "name": "oldTrustedForwarder",
          "type": "address"
        },
        {
          "indexed": true,
          "internalType": "address",
          "name": "newTrustedForwarder",
          "type": "address"
        },
        {
          "indexed": true,
          "internalType": "address",
          "name": "operator",
          "type": "address"
        }
      ],
      "name": "TrustedForwarderSet",
      "type": "event"
    },
    {
      "anonymous": false,
      "inputs": [
        {
          "indexed": false,
          "internalType": "address",
          "name": "account",
          "type": "address"
        }
      ],
      "name": "Unpaused",
      "type": "event"
    },
    {
      "inputs": [],
      "name": "DEFAULT_ADMIN_ROLE",
      "outputs": [
        {
          "internalType": "bytes32",
          "name": "",
          "type": "bytes32"
        }
      ],
      "stateMutability": "view",
      "type": "function"
    },
    {
      "inputs": [],
      "name": "ERC1776_OPERATOR_ROLE",
      "outputs": [
        {
          "internalType": "bytes32",
          "name": "",
          "type": "bytes32"
        }
      ],
      "stateMutability": "view",
      "type": "function"
    },
    {
      "inputs": [],
      "name": "EXCHANGE_ADMIN_ROLE",
      "outputs": [
        {
          "internalType": "bytes32",
          "name": "",
          "type": "bytes32"
        }
      ],
      "stateMutability": "view",
      "type": "function"
    },
    {
      "inputs": [],
      "name": "PAUSER_ROLE",
      "outputs": [
        {
          "internalType": "bytes32",
          "name": "",
          "type": "bytes32"
        }
      ],
      "stateMutability": "view",
      "type": "function"
    },
    {
      "inputs": [
        {
          "components": [
            {
              "internalType": "address",
              "name": "maker",
              "type": "address"
            },
            {
              "components": [
                {
                  "components": [
                    {
                      "internalType": "enum LibAsset.AssetClass",
                      "name": "assetClass",
                      "type": "uint8"
                    },
                    {
                      "internalType": "bytes",
                      "name": "data",
                      "type": "bytes"
                    }
                  ],
                  "internalType": "struct LibAsset.AssetType",
                  "name": "assetType",
                  "type": "tuple"
                },
                {
                  "internalType": "uint256",
                  "name": "value",
                  "type": "uint256"
                }
              ],
              "internalType": "struct LibAsset.Asset",
              "name": "makeAsset",
              "type": "tuple"
            },
            {
              "internalType": "address",
              "name": "taker",
              "type": "address"
            },
            {
              "components": [
                {
                  "components": [
                    {
                      "internalType": "enum LibAsset.AssetClass",
                      "name": "assetClass",
                      "type": "uint8"
                    },
                    {
                      "internalType": "bytes",
                      "name": "data",
                      "type": "bytes"
                    }
                  ],
                  "internalType": "struct LibAsset.AssetType",
                  "name": "assetType",
                  "type": "tuple"
                },
                {
                  "internalType": "uint256",
                  "name": "value",
                  "type": "uint256"
                }
              ],
              "internalType": "struct LibAsset.Asset",
              "name": "takeAsset",
              "type": "tuple"
            },
            {
              "internalType": "uint256",
              "name": "salt",
              "type": "uint256"
            },
            {
              "internalType": "uint256",
              "name": "start",
              "type": "uint256"
            },
            {
              "internalType": "uint256",
              "name": "end",
              "type": "uint256"
            }
          ],
          "internalType": "struct LibOrder.Order",
          "name": "order",
          "type": "tuple"
        },
        {
          "internalType": "bytes32",
          "name": "orderKeyHash",
          "type": "bytes32"
        }
      ],
      "name": "cancel",
      "outputs": [],
      "stateMutability": "nonpayable",
      "type": "function"
    },
    {
      "inputs": [],
      "name": "defaultFeeReceiver",
      "outputs": [
        {
          "internalType": "address",
          "name": "",
          "type": "address"
        }
      ],
      "stateMutability": "view",
      "type": "function"
    },
    {
      "inputs": [
        {
          "internalType": "bytes32",
          "name": "orderKeyHash",
          "type": "bytes32"
        }
      ],
      "name": "fills",
      "outputs": [
        {
          "internalType": "uint256",
          "name": "orderFillValue",
          "type": "uint256"
        }
      ],
      "stateMutability": "view",
      "type": "function"
    },
    {
      "inputs": [
        {
          "internalType": "bytes32",
          "name": "role",
          "type": "bytes32"
        }
      ],
      "name": "getRoleAdmin",
      "outputs": [
        {
          "internalType": "bytes32",
          "name": "",
          "type": "bytes32"
        }
      ],
      "stateMutability": "view",
      "type": "function"
    },
    {
      "inputs": [
        {
          "internalType": "bytes32",
          "name": "role",
          "type": "bytes32"
        },
        {
          "internalType": "uint256",
          "name": "index",
          "type": "uint256"
        }
      ],
      "name": "getRoleMember",
      "outputs": [
        {
          "internalType": "address",
          "name": "",
          "type": "address"
        }
      ],
      "stateMutability": "view",
      "type": "function"
    },
    {
      "inputs": [
        {
          "internalType": "bytes32",
          "name": "role",
          "type": "bytes32"
        }
      ],
      "name": "getRoleMemberCount",
      "outputs": [
        {
          "internalType": "uint256",
          "name": "",
          "type": "uint256"
        }
      ],
      "stateMutability": "view",
      "type": "function"
    },
    {
      "inputs": [],
      "name": "getTrustedForwarder",
      "outputs": [
        {
          "internalType": "address",
          "name": "",
          "type": "address"
        }
      ],
      "stateMutability": "view",
      "type": "function"
    },
    {
      "inputs": [
        {
          "internalType": "bytes32",
          "name": "role",
          "type": "bytes32"
        },
        {
          "internalType": "address",
          "name": "account",
          "type": "address"
        }
      ],
      "name": "grantRole",
      "outputs": [],
      "stateMutability": "nonpayable",
      "type": "function"
    },
    {
      "inputs": [
        {
          "internalType": "bytes32",
          "name": "role",
          "type": "bytes32"
        },
        {
          "internalType": "address",
          "name": "account",
          "type": "address"
        }
      ],
      "name": "hasRole",
      "outputs": [
        {
          "internalType": "bool",
          "name": "",
          "type": "bool"
        }
      ],
      "stateMutability": "view",
      "type": "function"
    },
    {
      "inputs": [
        {
          "internalType": "address",
          "name": "admin",
          "type": "address"
        },
        {
          "internalType": "address",
          "name": "newTrustedForwarder",
          "type": "address"
        },
        {
          "internalType": "uint256",
          "name": "newProtocolFeePrimary",
          "type": "uint256"
        },
        {
          "internalType": "uint256",
          "name": "newProtocolFeeSecondary",
          "type": "uint256"
        },
        {
          "internalType": "address",
          "name": "newDefaultFeeReceiver",
          "type": "address"
        },
        {
          "internalType": "contract IRoyaltiesProvider",
          "name": "newRoyaltiesProvider",
          "type": "address"
        },
        {
          "internalType": "contract IOrderValidator",
          "name": "orderValidatorAddress",
          "type": "address"
        },
        {
          "internalType": "uint256",
          "name": "newMatchOrdersLimit",
          "type": "uint256"
        }
      ],
      "name": "initialize",
      "outputs": [],
      "stateMutability": "nonpayable",
      "type": "function"
    },
    {
      "inputs": [
        {
          "internalType": "address",
          "name": "forwarder",
          "type": "address"
        }
      ],
      "name": "isTrustedForwarder",
      "outputs": [
        {
          "internalType": "bool",
          "name": "",
          "type": "bool"
        }
      ],
      "stateMutability": "view",
      "type": "function"
    },
    {
      "inputs": [
        {
          "components": [
            {
              "components": [
                {
                  "internalType": "address",
                  "name": "maker",
                  "type": "address"
                },
                {
                  "components": [
                    {
                      "components": [
                        {
                          "internalType": "enum LibAsset.AssetClass",
                          "name": "assetClass",
                          "type": "uint8"
                        },
                        {
                          "internalType": "bytes",
                          "name": "data",
                          "type": "bytes"
                        }
                      ],
                      "internalType": "struct LibAsset.AssetType",
                      "name": "assetType",
                      "type": "tuple"
                    },
                    {
                      "internalType": "uint256",
                      "name": "value",
                      "type": "uint256"
                    }
                  ],
                  "internalType": "struct LibAsset.Asset",
                  "name": "makeAsset",
                  "type": "tuple"
                },
                {
                  "internalType": "address",
                  "name": "taker",
                  "type": "address"
                },
                {
                  "components": [
                    {
                      "components": [
                        {
                          "internalType": "enum LibAsset.AssetClass",
                          "name": "assetClass",
                          "type": "uint8"
                        },
                        {
                          "internalType": "bytes",
                          "name": "data",
                          "type": "bytes"
                        }
                      ],
                      "internalType": "struct LibAsset.AssetType",
                      "name": "assetType",
                      "type": "tuple"
                    },
                    {
                      "internalType": "uint256",
                      "name": "value",
                      "type": "uint256"
                    }
                  ],
                  "internalType": "struct LibAsset.Asset",
                  "name": "takeAsset",
                  "type": "tuple"
                },
                {
                  "internalType": "uint256",
                  "name": "salt",
                  "type": "uint256"
                },
                {
                  "internalType": "uint256",
                  "name": "start",
                  "type": "uint256"
                },
                {
                  "internalType": "uint256",
                  "name": "end",
                  "type": "uint256"
                }
              ],
              "internalType": "struct LibOrder.Order",
              "name": "orderLeft",
              "type": "tuple"
            },
            {
              "internalType": "bytes",
              "name": "signatureLeft",
              "type": "bytes"
            },
            {
              "components": [
                {
                  "internalType": "address",
                  "name": "maker",
                  "type": "address"
                },
                {
                  "components": [
                    {
                      "components": [
                        {
                          "internalType": "enum LibAsset.AssetClass",
                          "name": "assetClass",
                          "type": "uint8"
                        },
                        {
                          "internalType": "bytes",
                          "name": "data",
                          "type": "bytes"
                        }
                      ],
                      "internalType": "struct LibAsset.AssetType",
                      "name": "assetType",
                      "type": "tuple"
                    },
                    {
                      "internalType": "uint256",
                      "name": "value",
                      "type": "uint256"
                    }
                  ],
                  "internalType": "struct LibAsset.Asset",
                  "name": "makeAsset",
                  "type": "tuple"
                },
                {
                  "internalType": "address",
                  "name": "taker",
                  "type": "address"
                },
                {
                  "components": [
                    {
                      "components": [
                        {
                          "internalType": "enum LibAsset.AssetClass",
                          "name": "assetClass",
                          "type": "uint8"
                        },
                        {
                          "internalType": "bytes",
                          "name": "data",
                          "type": "bytes"
                        }
                      ],
                      "internalType": "struct LibAsset.AssetType",
                      "name": "assetType",
                      "type": "tuple"
                    },
                    {
                      "internalType": "uint256",
                      "name": "value",
                      "type": "uint256"
                    }
                  ],
                  "internalType": "struct LibAsset.Asset",
                  "name": "takeAsset",
                  "type": "tuple"
                },
                {
                  "internalType": "uint256",
                  "name": "salt",
                  "type": "uint256"
                },
                {
                  "internalType": "uint256",
                  "name": "start",
                  "type": "uint256"
                },
                {
                  "internalType": "uint256",
                  "name": "end",
                  "type": "uint256"
                }
              ],
              "internalType": "struct LibOrder.Order",
              "name": "orderRight",
              "type": "tuple"
            },
            {
              "internalType": "bytes",
              "name": "signatureRight",
              "type": "bytes"
            }
          ],
          "internalType": "struct ExchangeCore.ExchangeMatch[]",
          "name": "matchedOrders",
          "type": "tuple[]"
        }
      ],
      "name": "matchOrders",
      "outputs": [],
      "stateMutability": "nonpayable",
      "type": "function"
    },
    {
      "inputs": [
        {
          "internalType": "address",
          "name": "sender",
          "type": "address"
        },
        {
          "components": [
            {
              "components": [
                {
                  "internalType": "address",
                  "name": "maker",
                  "type": "address"
                },
                {
                  "components": [
                    {
                      "components": [
                        {
                          "internalType": "enum LibAsset.AssetClass",
                          "name": "assetClass",
                          "type": "uint8"
                        },
                        {
                          "internalType": "bytes",
                          "name": "data",
                          "type": "bytes"
                        }
                      ],
                      "internalType": "struct LibAsset.AssetType",
                      "name": "assetType",
                      "type": "tuple"
                    },
                    {
                      "internalType": "uint256",
                      "name": "value",
                      "type": "uint256"
                    }
                  ],
                  "internalType": "struct LibAsset.Asset",
                  "name": "makeAsset",
                  "type": "tuple"
                },
                {
                  "internalType": "address",
                  "name": "taker",
                  "type": "address"
                },
                {
                  "components": [
                    {
                      "components": [
                        {
                          "internalType": "enum LibAsset.AssetClass",
                          "name": "assetClass",
                          "type": "uint8"
                        },
                        {
                          "internalType": "bytes",
                          "name": "data",
                          "type": "bytes"
                        }
                      ],
                      "internalType": "struct LibAsset.AssetType",
                      "name": "assetType",
                      "type": "tuple"
                    },
                    {
                      "internalType": "uint256",
                      "name": "value",
                      "type": "uint256"
                    }
                  ],
                  "internalType": "struct LibAsset.Asset",
                  "name": "takeAsset",
                  "type": "tuple"
                },
                {
                  "internalType": "uint256",
                  "name": "salt",
                  "type": "uint256"
                },
                {
                  "internalType": "uint256",
                  "name": "start",
                  "type": "uint256"
                },
                {
                  "internalType": "uint256",
                  "name": "end",
                  "type": "uint256"
                }
              ],
              "internalType": "struct LibOrder.Order",
              "name": "orderLeft",
              "type": "tuple"
            },
            {
              "internalType": "bytes",
              "name": "signatureLeft",
              "type": "bytes"
            },
            {
              "components": [
                {
                  "internalType": "address",
                  "name": "maker",
                  "type": "address"
                },
                {
                  "components": [
                    {
                      "components": [
                        {
                          "internalType": "enum LibAsset.AssetClass",
                          "name": "assetClass",
                          "type": "uint8"
                        },
                        {
                          "internalType": "bytes",
                          "name": "data",
                          "type": "bytes"
                        }
                      ],
                      "internalType": "struct LibAsset.AssetType",
                      "name": "assetType",
                      "type": "tuple"
                    },
                    {
                      "internalType": "uint256",
                      "name": "value",
                      "type": "uint256"
                    }
                  ],
                  "internalType": "struct LibAsset.Asset",
                  "name": "makeAsset",
                  "type": "tuple"
                },
                {
                  "internalType": "address",
                  "name": "taker",
                  "type": "address"
                },
                {
                  "components": [
                    {
                      "components": [
                        {
                          "internalType": "enum LibAsset.AssetClass",
                          "name": "assetClass",
                          "type": "uint8"
                        },
                        {
                          "internalType": "bytes",
                          "name": "data",
                          "type": "bytes"
                        }
                      ],
                      "internalType": "struct LibAsset.AssetType",
                      "name": "assetType",
                      "type": "tuple"
                    },
                    {
                      "internalType": "uint256",
                      "name": "value",
                      "type": "uint256"
                    }
                  ],
                  "internalType": "struct LibAsset.Asset",
                  "name": "takeAsset",
                  "type": "tuple"
                },
                {
                  "internalType": "uint256",
                  "name": "salt",
                  "type": "uint256"
                },
                {
                  "internalType": "uint256",
                  "name": "start",
                  "type": "uint256"
                },
                {
                  "internalType": "uint256",
                  "name": "end",
                  "type": "uint256"
                }
              ],
              "internalType": "struct LibOrder.Order",
              "name": "orderRight",
              "type": "tuple"
            },
            {
              "internalType": "bytes",
              "name": "signatureRight",
              "type": "bytes"
            }
          ],
          "internalType": "struct ExchangeCore.ExchangeMatch[]",
          "name": "matchedOrders",
          "type": "tuple[]"
        }
      ],
      "name": "matchOrdersFrom",
      "outputs": [],
      "stateMutability": "nonpayable",
      "type": "function"
    },
    {
      "inputs": [],
      "name": "orderValidator",
      "outputs": [
        {
          "internalType": "contract IOrderValidator",
          "name": "",
          "type": "address"
        }
      ],
      "stateMutability": "view",
      "type": "function"
    },
    {
      "inputs": [],
      "name": "pause",
      "outputs": [],
      "stateMutability": "nonpayable",
      "type": "function"
    },
    {
      "inputs": [],
      "name": "paused",
      "outputs": [
        {
          "internalType": "bool",
          "name": "",
          "type": "bool"
        }
      ],
      "stateMutability": "view",
      "type": "function"
    },
    {
      "inputs": [],
      "name": "protocolFeePrimary",
      "outputs": [
        {
          "internalType": "uint256",
          "name": "",
          "type": "uint256"
        }
      ],
      "stateMutability": "view",
      "type": "function"
    },
    {
      "inputs": [],
      "name": "protocolFeeSecondary",
      "outputs": [
        {
          "internalType": "uint256",
          "name": "",
          "type": "uint256"
        }
      ],
      "stateMutability": "view",
      "type": "function"
    },
    {
      "inputs": [
        {
          "internalType": "bytes32",
          "name": "role",
          "type": "bytes32"
        },
        {
          "internalType": "address",
          "name": "account",
          "type": "address"
        }
      ],
      "name": "renounceRole",
      "outputs": [],
      "stateMutability": "nonpayable",
      "type": "function"
    },
    {
      "inputs": [
        {
          "internalType": "bytes32",
          "name": "role",
          "type": "bytes32"
        },
        {
          "internalType": "address",
          "name": "account",
          "type": "address"
        }
      ],
      "name": "revokeRole",
      "outputs": [],
      "stateMutability": "nonpayable",
      "type": "function"
    },
    {
      "inputs": [],
      "name": "royaltiesRegistry",
      "outputs": [
        {
          "internalType": "contract IRoyaltiesProvider",
          "name": "",
          "type": "address"
        }
      ],
      "stateMutability": "view",
      "type": "function"
    },
    {
      "inputs": [
        {
          "internalType": "address",
          "name": "newDefaultFeeReceiver",
          "type": "address"
        }
      ],
      "name": "setDefaultFeeReceiver",
      "outputs": [],
      "stateMutability": "nonpayable",
      "type": "function"
    },
    {
      "inputs": [
        {
          "internalType": "uint256",
          "name": "newMatchOrdersLimit",
          "type": "uint256"
        }
      ],
      "name": "setMatchOrdersLimit",
      "outputs": [],
      "stateMutability": "nonpayable",
      "type": "function"
    },
    {
      "inputs": [
        {
          "internalType": "contract IOrderValidator",
          "name": "contractAddress",
          "type": "address"
        }
      ],
      "name": "setOrderValidatorContract",
      "outputs": [],
      "stateMutability": "nonpayable",
      "type": "function"
    },
    {
      "inputs": [
        {
          "internalType": "uint256",
          "name": "newProtocolFeePrimary",
          "type": "uint256"
        },
        {
          "internalType": "uint256",
          "name": "newProtocolFeeSecondary",
          "type": "uint256"
        }
      ],
      "name": "setProtocolFee",
      "outputs": [],
      "stateMutability": "nonpayable",
      "type": "function"
    },
    {
      "inputs": [
        {
          "internalType": "contract IRoyaltiesProvider",
          "name": "newRoyaltiesRegistry",
          "type": "address"
        }
      ],
      "name": "setRoyaltiesRegistry",
      "outputs": [],
      "stateMutability": "nonpayable",
      "type": "function"
    },
    {
      "inputs": [
        {
          "internalType": "address",
          "name": "newTrustedForwarder",
          "type": "address"
        }
      ],
      "name": "setTrustedForwarder",
      "outputs": [],
      "stateMutability": "nonpayable",
      "type": "function"
    },
    {
      "inputs": [
        {
          "internalType": "bytes4",
          "name": "interfaceId",
          "type": "bytes4"
        }
      ],
      "name": "supportsInterface",
      "outputs": [
        {
          "internalType": "bool",
          "name": "",
          "type": "bool"
        }
      ],
      "stateMutability": "view",
      "type": "function"
    },
    {
      "inputs": [],
      "name": "unpause",
      "outputs": [],
      "stateMutability": "nonpayable",
      "type": "function"
    }
  ],
  "transactionHash": "0x35aef25e5054ba76161e23ad62b39ad8021a4801d914064a07d728f69f96f639",
  "args": [],
  "numDeployments": 1,
  "solcInputHash": "e65e4ae76ce109b65d6560f491fa920e",
  "bytecode": "0x60806040523480156200001157600080fd5b506200001c62000036565b6200002662000036565b6200003062000036565b620000f7565b600054610100900460ff1615620000a35760405162461bcd60e51b815260206004820152602760248201527f496e697469616c697a61626c653a20636f6e747261637420697320696e697469604482015266616c697a696e6760c81b606482015260840160405180910390fd5b60005460ff90811614620000f5576000805460ff191660ff9081179091556040519081527f7f26b83ff96e1f2b6a682f133852f6798a09c465da95921460cefb38474024989060200160405180910390a15b565b613fd980620001076000396000f3fe608060405234801561001057600080fd5b506004361061020b5760003560e01c80636d8f06941161012a578063c36e69e9116100bd578063d547741f1161008c578063e63ab1e911610071578063e63ab1e9146104b6578063ec03ce82146104dd578063fb01d36b146104f057600080fd5b8063d547741f14610490578063da742228146104a357600080fd5b8063c36e69e91461044f578063c460028814610462578063ca15c8731461046b578063ce1b815f1461047e57600080fd5b806389de1d7a116100f957806389de1d7a146103f25780639010d07c146103fb57806391d148541461040e578063a217fddf1461044757600080fd5b80636d8f06941461039d5780638456cb59146103b05780638587177a146103b85780638830df0d146103cb57600080fd5b806336568abe116101a25780634ac0c183116101715780634ac0c18314610344578063572b6c051461036b5780635737e1961461037e5780635c975abb1461039157600080fd5b806336568abe146102ea5780633abf6fd4146102fd5780633be89922146103295780633f4ba83a1461033c57600080fd5b806320158c44116101de57806320158c4414610273578063240de277146102a1578063248a9ca3146102b45780632f2ff15d146102d757600080fd5b806301ffc9a714610210578063032566d3146102385780630c8b62881461024d5780631cdfe3d814610260575b600080fd5b61022361021e366004613367565b610503565b60405190151581526020015b60405180910390f35b61024b6102463660046133a9565b61055f565b005b61024b61025b36600461340e565b610596565b61024b61026e366004613475565b6105b0565b6102936102813660046133a9565b60cb6020526000908152604090205481565b60405190815260200161022f565b61024b6102af366004613492565b6105e3565b6102936102c23660046133a9565b60009081526065602052604090206001015490565b61024b6102e53660046134b4565b61061c565b61024b6102f83660046134b4565b610641565b61010054610311906001600160a01b031681565b6040516001600160a01b03909116815260200161022f565b61024b610337366004613475565b6106de565b61024b6106f2565b6102937f541943c4a49765b7940b4b1392c4b1f8ede6efd4e23572572987ae02e569a78681565b610223610379366004613475565b610727565b60c954610311906001600160a01b031681565b6101655460ff16610223565b60ff54610311906001600160a01b031681565b61024b610742565b61024b6103c6366004613475565b610774565b6102937f1d46dada6ac47de84b1e7381a753499bde9d44cc2b9eacc1ba89f2ac24be16cc81565b61029360fd5481565b610311610409366004613492565b610788565b61022361041c3660046134b4565b60009182526065602090815260408084206001600160a01b0393909316845291905290205460ff1690565b610293600081565b61024b61045d3660046134e4565b6107a7565b61029360fe5481565b6102936104793660046133a9565b610901565b610133546001600160a01b0316610311565b61024b61049e3660046134b4565b610918565b61024b6104b1366004613475565b61093d565b6102937f65d7a28e3265b37a6474929f336521b332c1681b933f6cb9f3376673440d862a81565b61024b6104eb366004613572565b610951565b61024b6104fe3660046135bc565b6109cf565b60007fffffffff0000000000000000000000000000000000000000000000000000000082167f5a05180f000000000000000000000000000000000000000000000000000000001480610559575061055982610a68565b92915050565b7f541943c4a49765b7940b4b1392c4b1f8ede6efd4e23572572987ae02e569a78661058981610ae6565b61059282610af7565b5050565b61059e610b7a565b6105926105a9610bd0565b8383610bdf565b7f541943c4a49765b7940b4b1392c4b1f8ede6efd4e23572572987ae02e569a7866105da81610ae6565b61059282610da1565b7f541943c4a49765b7940b4b1392c4b1f8ede6efd4e23572572987ae02e569a78661060d81610ae6565b6106178383610e4f565b505050565b60008281526065602052604090206001015461063781610ae6565b6106178383610f2c565b610649610bd0565b6001600160a01b0316816001600160a01b0316146106d45760405162461bcd60e51b815260206004820152602f60248201527f416363657373436f6e74726f6c3a2063616e206f6e6c792072656e6f756e636560448201527f20726f6c657320666f722073656c66000000000000000000000000000000000060648201526084015b60405180910390fd5b6105928282610f4e565b60006106e981610ae6565b61059282610f70565b7f541943c4a49765b7940b4b1392c4b1f8ede6efd4e23572572987ae02e569a78661071c81610ae6565b61072461101e565b50565b600061055982610133546001600160a01b0391821691161490565b7f65d7a28e3265b37a6474929f336521b332c1681b933f6cb9f3376673440d862a61076c81610ae6565b610724611077565b600061077f81610ae6565b610592826110b6565b60008281526097602052604081206107a09083611164565b9392505050565b600054610100900460ff16158080156107c75750600054600160ff909116105b806107e15750303b1580156107e1575060005460ff166001145b6108535760405162461bcd60e51b815260206004820152602e60248201527f496e697469616c697a61626c653a20636f6e747261637420697320616c72656160448201527f647920696e697469616c697a656400000000000000000000000000000000000060648201526084016106cb565b6000805460ff191660011790558015610876576000805461ff0019166101001790555b61087f88611170565b6108876111e4565b61088f61124f565b61089b878787876112c7565b6108a5838361134e565b6108b060008a610f2c565b80156108f6576000805461ff0019169055604051600181527f7f26b83ff96e1f2b6a682f133852f6798a09c465da95921460cefb38474024989060200160405180910390a15b505050505050505050565b6000818152609760205260408120610559906113cb565b60008281526065602052604090206001015461093381610ae6565b6106178383610f4e565b600061094881610ae6565b610592826113d5565b61095e6020830183613475565b6001600160a01b031661096f610bd0565b6001600160a01b0316146109c55760405162461bcd60e51b815260206004820152600960248201527f6e6f74206d616b6572000000000000000000000000000000000000000000000060448201526064016106cb565b61059282826114d1565b7f1d46dada6ac47de84b1e7381a753499bde9d44cc2b9eacc1ba89f2ac24be16cc6109f981610ae6565b610a01610b7a565b6001600160a01b038416610a575760405162461bcd60e51b815260206004820152600e60248201527f696e76616c69642073656e64657200000000000000000000000000000000000060448201526064016106cb565b610a62848484610bdf565b50505050565b60007fffffffff0000000000000000000000000000000000000000000000000000000082167f7965db0b00000000000000000000000000000000000000000000000000000000148061055957506301ffc9a760e01b7fffffffff00000000000000000000000000000000000000000000000000000000831614610559565b61072481610af2610bd0565b6115d3565b60008111610b475760405162461bcd60e51b815260206004820152601060248201527f696e76616c6964207175616e746974790000000000000000000000000000000060448201526064016106cb565b60ca81905560405181907fa461ccf4a7e6996574f5a69258032896cd5082cf3264467d1b8875a3f98538d790600090a250565b6101655460ff1615610bce5760405162461bcd60e51b815260206004820152601060248201527f5061757361626c653a207061757365640000000000000000000000000000000060448201526064016106cb565b565b6000610bda611648565b905090565b8080610c2d5760405162461bcd60e51b815260206004820152601d60248201527f45786368616e67654d617463682063616e6e6f7420626520656d70747900000060448201526064016106cb565b60ca54811115610c7f5760405162461bcd60e51b815260206004820152601660248201527f746f6f206d616e792045786368616e67654d617463680000000000000000000060448201526064016106cb565b60005b81811015610d9a5736848483818110610c9d57610c9d613611565b9050602002810190610caf9190613627565b9050610d6786610cbf8380613665565b610cc89061383c565b610cd560208501856138ec565b8080601f016020809104026020016040519081016040528093929190818152602001838380828437600092019190915250610d17925050506040860186613665565b610d209061383c565b610d2d60608701876138ec565b8080601f01602080910402602001604051908101604052809392919081815260200183838082843760009201919091525061165292505050565b610d8786610d758380613665565b610d826040850185613665565b611844565b5080610d9281613949565b915050610c82565b5050505050565b6001600160a01b038116610df75760405162461bcd60e51b815260206004820152601c60248201527f696e76616c69642064656661756c74206665652072656365697665720000000060448201526064016106cb565b610100805473ffffffffffffffffffffffffffffffffffffffff19166001600160a01b0383169081179091556040517f5d039c612419cd7b6696e7d5c8ccaef3362188cc98db01e07fb55bb85b33541d90600090a250565b6113888210610ea05760405162461bcd60e51b815260206004820152601360248201527f696e76616c6964207072696d617279206665650000000000000000000000000060448201526064016106cb565b6113888110610ef15760405162461bcd60e51b815260206004820152601560248201527f696e76616c6964207365636f6e6461727920666565000000000000000000000060448201526064016106cb565b60fd82905560fe819055604051819083907ffa4067f2d0249edb7594284cabb394f2ec0e4f6168dbd1e3a63f861b67f1188f90600090a35050565b610f368282611947565b600082815260976020526040902061061790826119ea565b610f5882826119ff565b60008281526097602052604090206106179082611aa0565b6001600160a01b0381163b610fc75760405162461bcd60e51b815260206004820152601a60248201527f696e76616c696420526f79616c7469657320526567697374727900000000000060448201526064016106cb565b60ff805473ffffffffffffffffffffffffffffffffffffffff19166001600160a01b0383169081179091556040517f6932f02a24181a8c1b9fa7bdc7453f15ecba05c354c9da94e97bac1abb13397890600090a250565b611026611ab5565b610165805460ff191690557f5db9ee0a495bf2e6ff9c91a7834c1ba4fdd244a5e8aa4e537bd38aeae4b073aa61105a610bd0565b6040516001600160a01b03909116815260200160405180910390a1565b61107f610b7a565b610165805460ff191660011790557f62e78cea01bee320cd4e420270b5ea74000d11b0c9f74754ebdbfc544b05a25861105a610bd0565b6001600160a01b0381163b61110d5760405162461bcd60e51b815260206004820152601760248201527f696e76616c6964206f726465722076616c696461746f7200000000000000000060448201526064016106cb565b60c9805473ffffffffffffffffffffffffffffffffffffffff19166001600160a01b0383169081179091556040517ff605132f819f46ab9f362495c159c83b8a080f3b8b22f8a684018837eae0bed390600090a250565b60006107a08383611b08565b600054610100900460ff166111db5760405162461bcd60e51b815260206004820152602b60248201527f496e697469616c697a61626c653a20636f6e7472616374206973206e6f74206960448201526a6e697469616c697a696e6760a81b60648201526084016106cb565b610724816113d5565b600054610100900460ff16610bce5760405162461bcd60e51b815260206004820152602b60248201527f496e697469616c697a61626c653a20636f6e7472616374206973206e6f74206960448201526a6e697469616c697a696e6760a81b60648201526084016106cb565b600054610100900460ff166112ba5760405162461bcd60e51b815260206004820152602b60248201527f496e697469616c697a61626c653a20636f6e7472616374206973206e6f74206960448201526a6e697469616c697a696e6760a81b60648201526084016106cb565b610165805460ff19169055565b600054610100900460ff166113325760405162461bcd60e51b815260206004820152602b60248201527f496e697469616c697a61626c653a20636f6e7472616374206973206e6f74206960448201526a6e697469616c697a696e6760a81b60648201526084016106cb565b61133c8484610e4f565b61134582610da1565b610a6281610f70565b600054610100900460ff166113b95760405162461bcd60e51b815260206004820152602b60248201527f496e697469616c697a61626c653a20636f6e7472616374206973206e6f74206960448201526a6e697469616c697a696e6760a81b60648201526084016106cb565b6113c2826110b6565b61059281610af7565b6000610559825490565b610133546001600160a01b039081169082160361145a5760405162461bcd60e51b815260206004820152603060248201527f4552433237373148616e646c65725570677261646561626c653a20666f72776160448201527f7264657220616c7265616479207365740000000000000000000000000000000060648201526084016106cb565b611462610bd0565b610133546040516001600160a01b03928316928481169216907f8ca022029d8ff7ad974913f8970aeed6c5e0e7eaf494a0c5b262249f6b5759e590600090a4610133805473ffffffffffffffffffffffffffffffffffffffff19166001600160a01b0392909216919091179055565b81608001356000036115255760405162461bcd60e51b815260206004820152601460248201527f302073616c742063616e2774206265207573656400000000000000000000000060448201526064016106cb565b600061153083611b32565b90508181146115815760405162461bcd60e51b815260206004820152601160248201527f696e76616c6964206f726465724861736800000000000000000000000000000060448201526064016106cb565b600082815260cb60205260409081902060001990555182907f34e97b51b26b1b4b5889b90f9702b02688ef22aaf1679d0d697a7518de60abfa906115c6908690613afc565b60405180910390a2505050565b60008281526065602090815260408083206001600160a01b038516845290915290205460ff166105925761160681611bc3565b611611836020611bd5565b604051602001611622929190613b33565b60408051601f198184030181529082905262461bcd60e51b82526106cb91600401613be0565b6000610bda611dfe565b60c9546040517fb45230ec0000000000000000000000000000000000000000000000000000000081526001600160a01b039091169063b45230ec9061169f90879087908a90600401613c35565b60006040518083038186803b1580156116b757600080fd5b505afa1580156116cb573d6000803e3d6000fd5b505060c9546040517fb45230ec0000000000000000000000000000000000000000000000000000000081526001600160a01b03909116925063b45230ec915061171c90859085908a90600401613c35565b60006040518083038186803b15801561173457600080fd5b505afa158015611748573d6000803e3d6000fd5b5050505060408401516001600160a01b0316156117c85783604001516001600160a01b031682600001516001600160a01b0316146117c85760405162461bcd60e51b815260206004820152601660248201527f6c6566744f726465722e74616b6572206661696c65640000000000000000000060448201526064016106cb565b60408201516001600160a01b031615610d9a5783600001516001600160a01b031682604001516001600160a01b031614610d9a5760405162461bcd60e51b815260206004820152601760248201527f72696768744f726465722e74616b6572206661696c656400000000000000000060448201526064016106cb565b600061187c6118566020850185613cfb565b6118609080613cfb565b61186d6060850185613cfb565b6118779080613cfb565b611e52565b905060006118a76118906060860186613cfb565b61189a9080613cfb565b61186d6020860186613cfb565b905060006118b686868661206e565b6040805160808101825290810185815282516060830152815290915061193f906020808201906118e890890189613475565b6001600160a01b031690526040805160808101825290810185815260208581015160608401529082528082019061192190890189613475565b6001600160a01b031690528551855161193a91906121ec565b612277565b505050505050565b60008281526065602090815260408083206001600160a01b038516845290915290205460ff166105925760008281526065602090815260408083206001600160a01b03851684529091529020805460ff191660011790556119a6610bd0565b6001600160a01b0316816001600160a01b0316837f2f8788117e7eff1d82e926ec794901d17c78024a50270940304540a733656f0d60405160405180910390a45050565b60006107a0836001600160a01b03841661237c565b60008281526065602090815260408083206001600160a01b038516845290915290205460ff16156105925760008281526065602090815260408083206001600160a01b03851684529091529020805460ff19169055611a5c610bd0565b6001600160a01b0316816001600160a01b0316837ff6391f5c32d9c69d2a47ea670b442974b53935d1edc7fd64eb21e047a839171b60405160405180910390a45050565b60006107a0836001600160a01b0384166123cb565b6101655460ff16610bce5760405162461bcd60e51b815260206004820152601460248201527f5061757361626c653a206e6f742070617573656400000000000000000000000060448201526064016106cb565b6000826000018281548110611b1f57611b1f613611565b9060005260206000200154905092915050565b6000611b416020830183613475565b611b69611b516020850185613cfb565b611b5b9080613cfb565b611b6490613d11565b6124be565b611b79611b516060860186613cfb565b604080516001600160a01b03909416602085015283019190915260608201526080808401359082015260a0015b604051602081830303815290604052805190602001209050919050565b60606105596001600160a01b03831660145b60606000611be4836002613d1d565b611bef906002613d34565b67ffffffffffffffff811115611c0757611c07613699565b6040519080825280601f01601f191660200182016040528015611c31576020820181803683370190505b5090507f300000000000000000000000000000000000000000000000000000000000000081600081518110611c6857611c68613611565b60200101907effffffffffffffffffffffffffffffffffffffffffffffffffffffffffffff1916908160001a9053507f780000000000000000000000000000000000000000000000000000000000000081600181518110611ccb57611ccb613611565b60200101907effffffffffffffffffffffffffffffffffffffffffffffffffffffffffffff1916908160001a9053506000611d07846002613d1d565b611d12906001613d34565b90505b6001811115611daf577f303132333435363738396162636465660000000000000000000000000000000085600f1660108110611d5357611d53613611565b1a60f81b828281518110611d6957611d69613611565b60200101907effffffffffffffffffffffffffffffffffffffffffffffffffffffffffffff1916908160001a90535060049490941c93611da881613d47565b9050611d15565b5083156107a05760405162461bcd60e51b815260206004820181905260248201527f537472696e67733a20686578206c656e67746820696e73756666696369656e7460448201526064016106cb565b610133546000906001600160a01b031633148015611e1d575060143610155b15611e4d57507fffffffffffffffffffffffffffffffffffffffffffffffffffffffffffffffec36013560601c90565b503390565b6040805180820190915260008152606060208201526000611e766020850185613d5e565b90506000611e876020850185613d5e565b90506000826003811115611e9d57611e9d613982565b03611eea5760405162461bcd60e51b815260206004820152601860248201527f696e76616c6964206c65667420617373657420636c617373000000000000000060448201526064016106cb565b6000816003811115611efe57611efe613982565b03611f4b5760405162461bcd60e51b815260206004820152601960248201527f696e76616c696420726967687420617373657420636c6173730000000000000060448201526064016106cb565b806003811115611f5d57611f5d613982565b826003811115611f6f57611f6f613982565b14611fbc5760405162461bcd60e51b815260206004820152601260248201527f61737365747320646f6e2774206d61746368000000000000000000000000000060448201526064016106cb565b6000611fcb60208701876138ec565b604051611fd9929190613d79565b60405190819003902090506000611ff360208701876138ec565b604051612001929190613d79565b6040518091039020905080821461205a5760405162461bcd60e51b815260206004820152601260248201527f61737365747320646f6e2774206d61746368000000000000000000000000000060448201526064016106cb565b61206387613d11565b979650505050505050565b6040805180820190915260008082526020820152600061208d84611b32565b9050600061209a84611b32565b905060006120ac866080013584612500565b905060006120be866080013584612500565b90506120cc87878484612527565b9450600085602001511180156120e25750845115155b61212e5760405162461bcd60e51b815260206004820152600f60248201527f6e6f7468696e6720746f2066696c6c000000000000000000000000000000000060448201526064016106cb565b6080870135156121575760208501516121479083613d34565b600085815260cb60205260409020555b60808601351561217d57845161216d9082613d34565b600084815260cb60205260409020555b600084815260cb60205260408082205485835291819020549051859287926001600160a01b038d16927f5f1f72885b9f262a0908dfcb03271aa93b00aa85f8105a1617f08c7a52192f50926121d9928e928e928e929091613d89565b60405180910390a4505050509392505050565b6000600183600381111561220257612202613982565b1480156122215750600182600381111561221e5761221e613982565b14155b1561222e57506001610559565b600182600381111561224257612242613982565b1480156122615750600183600381111561225e5761225e613982565b14155b1561226e57506002610559565b50600092915050565b6122b06040805160c081018252600060808201818152606060a08401819052938301908152928201529081908152600060209091015290565b6122e96040805160c081018252600060808201818152606060a08401819052938301908152928201529081908152600060209091015290565b60018360028111156122fd576122fd613982565b0361230c575083905082612312565b50829050835b6123298160000151826020015184602001516125d7565b600083600281111561233d5761233d613982565b148061235157506123518260200151612800565b156123725761236d8260000151836020015183602001516125d7565b610d9a565b610d9a8282612840565b60008181526001830160205260408120546123c357508154600181810184556000848152602080822090930184905584548482528286019093526040902091909155610559565b506000610559565b600081815260018301602052604081205480156124b45760006123ef600183613dd6565b855490915060009061240390600190613dd6565b905081811461246857600086600001828154811061242357612423613611565b906000526020600020015490508087600001848154811061244657612446613611565b6000918252602080832090910192909255918252600188019052604090208390555b855486908061247957612479613de9565b600190038181906000526020600020016000905590558560010160008681526020019081526020016000206000905560019350505050610559565b6000915050610559565b8051602080830151805190820120604051600093611ba6937f75aacb2727a36600741802d07994792d9d768ee841822bca87180d320cea991293919201613dff565b60008260000361251257506000610559565b50600090815260cb6020526040902054919050565b604080518082019091526000808252602082015260008061254887866128df565b9150915060008061255988876128df565b915091508381111561259c57612591848461257760208c018c613cfb565b6020013561258860608d018d613cfb565b60200135612994565b9450505050506125cf565b6125c86125ac60208b018b613cfb565b602001356125bd60608c018c613cfb565b602001358484612a20565b9450505050505b949350505050565b600183515160038111156125ed576125ed613982565b036126135760006126018460000151612aad565b9050610a628184848760200151612ac7565b6002835151600381111561262957612629613982565b036127165760008061263e8560000151612b4f565b9150915084602001516001146126965760405162461bcd60e51b815260206004820152601260248201527f6572633732312076616c7565206572726f72000000000000000000000000000060448201526064016106cb565b6040517f42842e0e0000000000000000000000000000000000000000000000000000000081526001600160a01b0385811660048301528481166024830152604482018390528316906342842e0e906064015b600060405180830381600087803b15801561270257600080fd5b505af11580156108f6573d6000803e3d6000fd5b6003835151600381111561272c5761272c613982565b036127b8576000806127418560000151612b4f565b60208701516040517ff242432a0000000000000000000000000000000000000000000000000000000081526001600160a01b038881166004830152878116602483015260448201849052606482019290925260a06084820152600060a482015292945090925083169063f242432a9060c4016126e8565b60405162461bcd60e51b815260206004820152601360248201527f696e76616c696420617373657420636c6173730000000000000000000000000060448201526064016106cb565b6001600160a01b03811660009081527f90916b45ad713ccdf8d945eab9f58d0d1cfed58f8e47d57192d063a0ddbfe292602052604081205460ff16610559565b81516020015160009061285283612b73565b156128615760fd549150612874565b60fe549150612871818585612bb9565b90505b6000821180156128845750600081115b156128aa57610100546128a790829086906001600160a01b031685612710612d60565b90505b8015610a6257610a626040518060400160405280866000015160000151815260200183815250856020015185602001516125d7565b600080826128f06060860186613cfb565b6020013510156129425760405162461bcd60e51b815260206004820152601f60248201527f66696c6c696e67206d6f7265207468616e206f72646572207065726d6974730060448201526064016106cb565b826129506060860186613cfb565b6020013561295e9190613dd6565b905061298b6129706020860186613cfb565b602001356129816060870187613cfb565b6020013583612dec565b91509250929050565b604080518082019091526000808252602082015260006129b5858585612dec565b905085811115612a075760405162461bcd60e51b815260206004820152601860248201527f66696c6c4c6566743a20756e61626c6520746f2066696c6c000000000000000060448201526064016106cb565b5050604080518082019091529384525050602082015290565b60408051808201909152600080825260208201526000612a41838787612dec565b905083811115612a935760405162461bcd60e51b815260206004820152601960248201527f66696c6c52696768743a20756e61626c6520746f2066696c6c0000000000000060448201526064016106cb565b604080518082019091529283526020830152509392505050565b600081602001518060200190518101906105599190613e21565b604080516001600160a01b0385811660248301528416604482015260648082018490528251808303909101815260849091019091526020810180517bffffffffffffffffffffffffffffffffffffffffffffffffffffffff167f23b872dd00000000000000000000000000000000000000000000000000000000179052610a62908590612e5b565b6000808260200151806020019051810190612b6a9190613e3e565b91509150915091565b8051516000908190612b8490612f43565b90506001600160a01b038116158015906107a05750806001600160a01b031683602001516001600160a01b0316149392505050565b6000806000612bcf846000015160000151612b4f565b60ff546040517f9ca7dc7a0000000000000000000000000000000000000000000000000000000081526001600160a01b038085166004830152602482018490529395509193506000921690639ca7dc7a906044016000604051808303816000875af1158015612c42573d6000803e3d6000fd5b505050506040513d6000823e601f3d908101601f19168201604052612c6a9190810190613e6c565b8051909150600090815b81811015612d00576000848281518110612c9057612c90613611565b60200260200101519050806020015184612caa9190613d34565b935088602001516001600160a01b031681600001516001600160a01b031603612cd35750612cee565b612cea8b8b83600001518460200151612710612d60565b9a50505b80612cf881613949565b915050612c74565b50611388821115612d535760405162461bcd60e51b815260206004820152601d60248201527f726f79616c746965732061726520746f6f206869676820283e3530252900000060448201526064016106cb565b5096979650505050505050565b604080518082019091528451518152600060208083018290528651015190919082908490612d8f908790613d1d565b612d999190613f4d565b905080881115612dbb57612dad8189613dd6565b602083018290529750612dc7565b60208201979097526000965b602082015115612de057612de0828860200151886125d7565b50959695505050505050565b6000612df984848461301a565b15612e465760405162461bcd60e51b815260206004820152600e60248201527f726f756e64696e67206572726f7200000000000000000000000000000000000060448201526064016106cb565b82612e518386613d1d565b6125cf9190613f4d565b6000612eb0826040518060400160405280602081526020017f5361666545524332303a206c6f772d6c6576656c2063616c6c206661696c6564815250856001600160a01b03166130ba9092919063ffffffff16565b9050805160001480612ed1575080806020019051810190612ed19190613f6f565b6106175760405162461bcd60e51b815260206004820152602a60248201527f5361666545524332303a204552433230206f7065726174696f6e20646964206e60448201527f6f7420737563636565640000000000000000000000000000000000000000000060648201526084016106cb565b6000806000612f5184612b4f565b9092509050612f896001600160a01b0383167fa30b4db9000000000000000000000000000000000000000000000000000000006130c9565b15613013576040517fa30b4db9000000000000000000000000000000000000000000000000000000008152600481018290526001600160a01b0383169063a30b4db990602401602060405180830381865afa158015612fec573d6000803e3d6000fd5b505050506040513d601f19601f820116820180604052508101906130109190613e21565b92505b5050919050565b60008260000361306c5760405162461bcd60e51b815260206004820152601060248201527f6469766973696f6e206279207a65726f0000000000000000000000000000000060448201526064016106cb565b811580613077575083155b15613084575060006107a0565b6000838061309457613094613f37565b85840990506130a38386613d1d565b6130af6103e883613d1d565b101595945050505050565b60606125cf84846000856130e5565b60006130d4836131cc565b80156107a057506107a08383613217565b60608247101561315d5760405162461bcd60e51b815260206004820152602660248201527f416464726573733a20696e73756666696369656e742062616c616e636520666f60448201527f722063616c6c000000000000000000000000000000000000000000000000000060648201526084016106cb565b600080866001600160a01b031685876040516131799190613f91565b60006040518083038185875af1925050503d80600081146131b6576040519150601f19603f3d011682016040523d82523d6000602084013e6131bb565b606091505b5091509150612063878383876132c9565b60006131df826301ffc9a760e01b613217565b80156105595750613210827fffffffff00000000000000000000000000000000000000000000000000000000613217565b1592915050565b604080517fffffffff000000000000000000000000000000000000000000000000000000008316602480830191909152825180830390910181526044909101909152602080820180517bffffffffffffffffffffffffffffffffffffffffffffffffffffffff166301ffc9a760e01b178152825160009392849283928392918391908a617530fa92503d915060005190508280156132b6575060208210155b8015612063575015159695505050505050565b60608315613338578251600003613331576001600160a01b0385163b6133315760405162461bcd60e51b815260206004820152601d60248201527f416464726573733a2063616c6c20746f206e6f6e2d636f6e747261637400000060448201526064016106cb565b50816125cf565b6125cf838381511561334d5781518083602001fd5b8060405162461bcd60e51b81526004016106cb9190613be0565b60006020828403121561337957600080fd5b81357fffffffff00000000000000000000000000000000000000000000000000000000811681146107a057600080fd5b6000602082840312156133bb57600080fd5b5035919050565b60008083601f8401126133d457600080fd5b50813567ffffffffffffffff8111156133ec57600080fd5b6020830191508360208260051b850101111561340757600080fd5b9250929050565b6000806020838503121561342157600080fd5b823567ffffffffffffffff81111561343857600080fd5b613444858286016133c2565b90969095509350505050565b6001600160a01b038116811461072457600080fd5b803561347081613450565b919050565b60006020828403121561348757600080fd5b81356107a081613450565b600080604083850312156134a557600080fd5b50508035926020909101359150565b600080604083850312156134c757600080fd5b8235915060208301356134d981613450565b809150509250929050565b600080600080600080600080610100898b03121561350157600080fd5b883561350c81613450565b9750602089013561351c81613450565b96506040890135955060608901359450608089013561353a81613450565b935060a089013561354a81613450565b925060c089013561355a81613450565b8092505060e089013590509295985092959890939650565b6000806040838503121561358557600080fd5b823567ffffffffffffffff81111561359c57600080fd5b830160e081860312156135ae57600080fd5b946020939093013593505050565b6000806000604084860312156135d157600080fd5b83356135dc81613450565b9250602084013567ffffffffffffffff8111156135f857600080fd5b613604868287016133c2565b9497909650939450505050565b634e487b7160e01b600052603260045260246000fd5b600082357fffffffffffffffffffffffffffffffffffffffffffffffffffffffffffffff8183360301811261365b57600080fd5b9190910192915050565b600082357fffffffffffffffffffffffffffffffffffffffffffffffffffffffffffffff2183360301811261365b57600080fd5b634e487b7160e01b600052604160045260246000fd5b6040805190810167ffffffffffffffff811182821017156136d2576136d2613699565b60405290565b60405160e0810167ffffffffffffffff811182821017156136d2576136d2613699565b604051601f8201601f1916810167ffffffffffffffff8111828210171561372457613724613699565b604052919050565b80356004811061347057600080fd5b60006040828403121561374d57600080fd5b6137556136af565b90506137608261372c565b815260208083013567ffffffffffffffff8082111561377e57600080fd5b818501915085601f83011261379257600080fd5b8135818111156137a4576137a4613699565b6137b684601f19601f840116016136fb565b915080825286848285010111156137cc57600080fd5b80848401858401376000908201840152918301919091525092915050565b6000604082840312156137fc57600080fd5b6138046136af565b9050813567ffffffffffffffff81111561381d57600080fd5b6138298482850161373b565b8252506020820135602082015292915050565b600060e0823603121561384e57600080fd5b6138566136d8565b61385f83613465565b8152602083013567ffffffffffffffff8082111561387c57600080fd5b613888368387016137ea565b602084015261389960408601613465565b604084015260608501359150808211156138b257600080fd5b506138bf368286016137ea565b6060830152506080830135608082015260a083013560a082015260c083013560c082015280915050919050565b6000808335601e1984360301811261390357600080fd5b83018035915067ffffffffffffffff82111561391e57600080fd5b60200191503681900382131561340757600080fd5b634e487b7160e01b600052601160045260246000fd5b6000600019820361395c5761395c613933565b5060010190565b60008235603e1983360301811261397957600080fd5b90910192915050565b634e487b7160e01b600052602160045260246000fd5b600481106139b657634e487b7160e01b600052602160045260246000fd5b9052565b60006139c68283613963565b604084526139df604085016139da8361372c565b613998565b6020810135601e198236030181126139f657600080fd5b0160208101903567ffffffffffffffff811115613a1257600080fd5b803603821315613a2157600080fd5b60406060860152806080860152808260a0870137600060a082870101526020840135602086015260a0601f19601f8301168601019250505092915050565b60008135613a6c81613450565b6001600160a01b038082168552613a866020850185613963565b915060e06020860152613a9c60e08601836139ba565b91506040840135613aac81613450565b166040850152613abf6060840184613963565b8482036060860152613ad182826139ba565b9150506080830135608085015260a083013560a085015260c083013560c08501528091505092915050565b6020815260006107a06020830184613a5f565b60005b83811015613b2a578181015183820152602001613b12565b50506000910152565b7f416363657373436f6e74726f6c3a206163636f756e7420000000000000000000815260008351613b6b816017850160208801613b0f565b7f206973206d697373696e6720726f6c65200000000000000000000000000000006017918401918201528351613ba8816028840160208801613b0f565b01602801949350505050565b60008151808452613bcc816020860160208601613b0f565b601f01601f19169290920160200192915050565b6020815260006107a06020830184613bb4565b6000815160408452613c09604085018251613998565b6020015160406060850152613c216080850182613bb4565b602093840151949093019390935250919050565b6060815260006001600160a01b03808651166060840152602086015160e06080850152613c66610140850182613bf3565b604088015190921660a08501525060608601518382037fffffffffffffffffffffffffffffffffffffffffffffffffffffffffffffffa00160c085015290613cae8183613bf3565b915050608086015160e084015260a086015161010084015260c08601516101208401528281036020840152613ce38186613bb4565b9150506125cf60408301846001600160a01b03169052565b60008235603e1983360301811261365b57600080fd5b6000610559368361373b565b808202811582820484141761055957610559613933565b8082018082111561055957610559613933565b600081613d5657613d56613933565b506000190190565b600060208284031215613d7057600080fd5b6107a08261372c565b8183823760009101908152919050565b60c081526000613d9c60c0830188613a5f565b8281036020840152613dae8188613a5f565b8651604085015260209096015160608401525050608081019290925260a09091015292915050565b8181038181111561055957610559613933565b634e487b7160e01b600052603160045260246000fd5b83815260608101613e136020830185613998565b826040830152949350505050565b600060208284031215613e3357600080fd5b81516107a081613450565b60008060408385031215613e5157600080fd5b8251613e5c81613450565b6020939093015192949293505050565b60006020808385031215613e7f57600080fd5b825167ffffffffffffffff80821115613e9757600080fd5b818501915085601f830112613eab57600080fd5b815181811115613ebd57613ebd613699565b613ecb848260051b016136fb565b818152848101925060069190911b830184019087821115613eeb57600080fd5b928401925b818410156120635760408489031215613f095760008081fd5b613f116136af565b8451613f1c81613450565b81528486015186820152835260409093019291840191613ef0565b634e487b7160e01b600052601260045260246000fd5b600082613f6a57634e487b7160e01b600052601260045260246000fd5b500490565b600060208284031215613f8157600080fd5b815180151581146107a057600080fd5b6000825161365b818460208701613b0f56fea26469706673582212204fb4aef3d7226e3c51717ee1c7bd8270f126087fe0a8b6b0ed8c1147686fcfad64736f6c63430008130033",
  "devdoc": {
    "author": "The Sandbox",
    "details": "Main functions are in ExchangeCoreTransferManager is used to execute token transfers",
    "events": {
      "Cancel(bytes32,(address,((uint8,bytes),uint256),address,((uint8,bytes),uint256),uint256,uint256,uint256))": {
        "params": {
          "order": "The details of the order being canceled.",
          "orderKeyHash": "The hash of the order being canceled."
        }
      },
      "DefaultFeeReceiverSet(address)": {
        "params": {
          "newDefaultFeeReceiver": "address that gets the fees"
        }
      },
      "Initialized(uint8)": {
        "details": "Triggered when the contract has been initialized or reinitialized."
      },
      "Match(address,bytes32,bytes32,(address,((uint8,bytes),uint256),address,((uint8,bytes),uint256),uint256,uint256,uint256),(address,((uint8,bytes),uint256),address,((uint8,bytes),uint256),uint256,uint256,uint256),(uint256,uint256),uint256,uint256)": {
        "params": {
          "from": "Address that initiated the match.",
          "newFill": "Fill details resulting from the order match.",
          "orderKeyHashLeft": "Hash of the left order.",
          "orderKeyHashRight": "Hash of the right order.",
          "orderLeft": "Details of the left order.",
          "orderRight": "Details of the right order.",
          "totalFillLeft": "Total fill amount for the left order.",
          "totalFillRight": "Total fill amount for the right order."
        }
      },
      "MatchOrdersLimitSet(uint256)": {
        "params": {
          "newMatchOrdersLimit": "The new limit for matching orders in one transaction."
        }
      },
      "OrderValidatorSet(address)": {
        "params": {
          "contractAddress": "Address of the new OrderValidator contract."
        }
      },
      "Paused(address)": {
        "details": "Emitted when the pause is triggered by `account`."
      },
      "ProtocolFeeSet(uint256,uint256)": {
        "params": {
          "newProtocolFeePrimary": "fee for primary market",
          "newProtocolFeeSecondary": "fee for secondary market"
        }
      },
      "RoleAdminChanged(bytes32,bytes32,bytes32)": {
        "details": "Emitted when `newAdminRole` is set as ``role``'s admin role, replacing `previousAdminRole` `DEFAULT_ADMIN_ROLE` is the starting admin for all roles, despite {RoleAdminChanged} not being emitted signaling this. _Available since v3.1._"
      },
      "RoleGranted(bytes32,address,address)": {
        "details": "Emitted when `account` is granted `role`. `sender` is the account that originated the contract call, an admin role bearer except when using {AccessControl-_setupRole}."
      },
      "RoleRevoked(bytes32,address,address)": {
        "details": "Emitted when `account` is revoked `role`. `sender` is the account that originated the contract call:   - if using `revokeRole`, it is the admin role bearer   - if using `renounceRole`, it is the role bearer (i.e. `account`)"
      },
      "RoyaltiesRegistrySet(address)": {
        "params": {
          "newRoyaltiesRegistry": "address of new royalties registry"
        }
      },
      "TrustedForwarderSet(address,address,address)": {
        "params": {
          "newTrustedForwarder": "new trusted forwarder",
          "oldTrustedForwarder": "old trusted forwarder",
          "operator": "the sender of the transaction"
        }
      },
      "Unpaused(address)": {
        "details": "Emitted when the pause is lifted by `account`."
      }
    },
    "kind": "dev",
    "methods": {
      "cancel((address,((uint8,bytes),uint256),address,((uint8,bytes),uint256),uint256,uint256,uint256),bytes32)": {
        "params": {
          "order": "The order to be canceled.",
          "orderKeyHash": "Used as a checksum to avoid mistakes in the order values."
        }
      },
      "constructor": {
        "custom:oz-upgrades-unsafe-allow": "constructor",
        "details": "This protects the implementation contract from being initialized."
      },
      "getRoleAdmin(bytes32)": {
        "details": "Returns the admin role that controls `role`. See {grantRole} and {revokeRole}. To change a role's admin, use {_setRoleAdmin}."
      },
      "getRoleMember(bytes32,uint256)": {
        "details": "Returns one of the accounts that have `role`. `index` must be a value between 0 and {getRoleMemberCount}, non-inclusive. Role bearers are not sorted in any particular way, and their ordering may change at any point. WARNING: When using {getRoleMember} and {getRoleMemberCount}, make sure you perform all queries on the same block. See the following https://forum.openzeppelin.com/t/iterating-over-elements-on-enumerableset-in-openzeppelin-contracts/2296[forum post] for more information."
      },
      "getRoleMemberCount(bytes32)": {
        "details": "Returns the number of accounts that have `role`. Can be used together with {getRoleMember} to enumerate all bearers of a role."
      },
      "getTrustedForwarder()": {
        "returns": {
          "_0": "return the address of the trusted forwarder"
        }
      },
      "grantRole(bytes32,address)": {
        "details": "Grants `role` to `account`. If `account` had not been already granted `role`, emits a {RoleGranted} event. Requirements: - the caller must have ``role``'s admin role. May emit a {RoleGranted} event."
      },
      "hasRole(bytes32,address)": {
        "details": "Returns `true` if `account` has been granted `role`."
      },
      "initialize(address,address,uint256,uint256,address,address,address,uint256)": {
        "params": {
          "admin": "The admin user that can grant/revoke roles, etc.",
          "newDefaultFeeReceiver": "Market fee receiver.",
          "newProtocolFeePrimary": "Protocol fee applied to primary markets.",
          "newProtocolFeeSecondary": "Protocol fee applied to secondary markets.",
          "newRoyaltiesProvider": "Registry for the different types of royalties.",
          "newTrustedForwarder": "Address for the trusted forwarder that will execute meta transactions.",
          "orderValidatorAddress": "New OrderValidator contract address."
        }
      },
      "isTrustedForwarder(address)": {
        "params": {
          "forwarder": "trusted forwarder address to check"
        },
        "returns": {
          "_0": "true if the address is the same as the trusted forwarder"
        }
      },
      "matchOrders(((address,((uint8,bytes),uint256),address,((uint8,bytes),uint256),uint256,uint256,uint256),bytes,(address,((uint8,bytes),uint256),address,((uint8,bytes),uint256),uint256,uint256,uint256),bytes)[])": {
        "params": {
          "matchedOrders": "A list of left/right orders that match each other."
        }
      },
      "matchOrdersFrom(address,((address,((uint8,bytes),uint256),address,((uint8,bytes),uint256),uint256,uint256,uint256),bytes,(address,((uint8,bytes),uint256),address,((uint8,bytes),uint256),uint256,uint256,uint256),bytes)[])": {
        "details": "This method supports ERC1776 native meta transactions.",
        "params": {
          "matchedOrders": "A list of left/right orders that match each other.",
          "sender": "The original sender of the transaction."
        }
      },
      "paused()": {
        "details": "Returns true if the contract is paused, and false otherwise."
      },
      "renounceRole(bytes32,address)": {
        "details": "Revokes `role` from the calling account. Roles are often managed via {grantRole} and {revokeRole}: this function's purpose is to provide a mechanism for accounts to lose their privileges if they are compromised (such as when a trusted device is misplaced). If the calling account had been revoked `role`, emits a {RoleRevoked} event. Requirements: - the caller must be `account`. May emit a {RoleRevoked} event."
      },
      "revokeRole(bytes32,address)": {
        "details": "Revokes `role` from `account`. If `account` had been granted `role`, emits a {RoleRevoked} event. Requirements: - the caller must have ``role``'s admin role. May emit a {RoleRevoked} event."
      },
      "setDefaultFeeReceiver(address)": {
        "params": {
          "newDefaultFeeReceiver": "Address to receive the fees."
        }
      },
      "setMatchOrdersLimit(uint256)": {
        "params": {
          "newMatchOrdersLimit": "New value for max orders that can be matched."
        }
      },
      "setOrderValidatorContract(address)": {
        "params": {
          "contractAddress": "New OrderValidator contract address."
        }
      },
      "setProtocolFee(uint256,uint256)": {
        "params": {
          "newProtocolFeePrimary": "Fee for the primary market.",
          "newProtocolFeeSecondary": "Fee for the secondary market."
        }
      },
      "setRoyaltiesRegistry(address)": {
        "params": {
          "newRoyaltiesRegistry": "Address of the new royalties registry."
        }
      },
      "setTrustedForwarder(address)": {
        "params": {
          "newTrustedForwarder": "The new trusted forwarder address."
        }
      },
      "supportsInterface(bytes4)": {
        "details": "See {IERC165-supportsInterface}."
      }
    },
    "stateVariables": {
      "ERC1776_OPERATOR_ROLE": {
        "return": "Hash for ERC1776_OPERATOR_ROLE.",
        "returns": {
          "_0": "Hash for ERC1776_OPERATOR_ROLE."
        }
      },
      "EXCHANGE_ADMIN_ROLE": {
        "return": "Hash for EXCHANGE_ADMIN_ROLE.",
        "returns": {
          "_0": "Hash for EXCHANGE_ADMIN_ROLE."
        }
      },
      "PAUSER_ROLE": {
        "return": "Hash for PAUSER_ROLE.",
        "returns": {
          "_0": "Hash for PAUSER_ROLE."
        }
      }
    },
    "title": "Exchange contract with meta transactions",
    "version": 1
  },
  "userdoc": {
    "events": {
      "Cancel(bytes32,(address,((uint8,bytes),uint256),address,((uint8,bytes),uint256),uint256,uint256,uint256))": {
        "notice": "Event emitted when an order is canceled."
      },
      "DefaultFeeReceiverSet(address)": {
        "notice": "Emitted when the default fee receiver is updated."
      },
      "Match(address,bytes32,bytes32,(address,((uint8,bytes),uint256),address,((uint8,bytes),uint256),uint256,uint256,uint256),(address,((uint8,bytes),uint256),address,((uint8,bytes),uint256),uint256,uint256,uint256),(uint256,uint256),uint256,uint256)": {
        "notice": "Event emitted when two orders are matched."
      },
      "MatchOrdersLimitSet(uint256)": {
        "notice": "Event emitted when the match orders limit is updated."
      },
      "OrderValidatorSet(address)": {
        "notice": "Event emitted when a new OrderValidator contract is set."
      },
      "ProtocolFeeSet(uint256,uint256)": {
        "notice": "Emitted when protocol fees are updated."
      },
      "TrustedForwarderSet(address,address,address)": {
        "notice": "Emitted when a `newTrustedForwarder` is set, replacing the `oldTrustedForwarder`"
      }
    },
    "kind": "user",
    "methods": {
      "ERC1776_OPERATOR_ROLE()": {
        "notice": "Role for ERC1776 trusted meta transaction contracts (like SAND)."
      },
      "EXCHANGE_ADMIN_ROLE()": {
        "notice": "Role for business addresses that can change values like fees and royalties."
      },
      "PAUSER_ROLE()": {
        "notice": "Role for business addresses that can react to emergencies and pause."
      },
      "cancel((address,((uint8,bytes),uint256),address,((uint8,bytes),uint256),uint256,uint256,uint256),bytes32)": {
        "notice": "Cancel an order."
      },
      "defaultFeeReceiver()": {
        "notice": "Default receiver of protocol fees"
      },
      "getTrustedForwarder()": {
        "notice": "return the address of the trusted forwarder"
      },
      "initialize(address,address,uint256,uint256,address,address,address,uint256)": {
        "notice": "Exchange contract initializer."
      },
      "isTrustedForwarder(address)": {
        "notice": "return true if the forwarder is the trusted forwarder"
      },
      "matchOrders(((address,((uint8,bytes),uint256),address,((uint8,bytes),uint256),uint256,uint256,uint256),bytes,(address,((uint8,bytes),uint256),address,((uint8,bytes),uint256),uint256,uint256,uint256),bytes)[])": {
        "notice": "Match orders and transact."
      },
      "matchOrdersFrom(address,((address,((uint8,bytes),uint256),address,((uint8,bytes),uint256),uint256,uint256,uint256),bytes,(address,((uint8,bytes),uint256),address,((uint8,bytes),uint256),uint256,uint256,uint256),bytes)[])": {
        "notice": "Match orders and transact."
      },
      "pause()": {
        "notice": "Pause the contract operations."
      },
      "protocolFeePrimary()": {
        "notice": "Fee applied to primary sales."
      },
      "protocolFeeSecondary()": {
        "notice": "Fee applied to secondary sales."
      },
      "royaltiesRegistry()": {
        "notice": "Registry for the different royalties"
      },
      "setDefaultFeeReceiver(address)": {
        "notice": "Set the default fee receiver."
      },
      "setMatchOrdersLimit(uint256)": {
        "notice": "Set the limit for matching orders."
      },
      "setOrderValidatorContract(address)": {
        "notice": "Set the OrderValidator address."
      },
      "setProtocolFee(uint256,uint256)": {
        "notice": "Set the protocol fees."
      },
      "setRoyaltiesRegistry(address)": {
        "notice": "Set the royalty registry."
      },
      "setTrustedForwarder(address)": {
        "notice": "Change the address of the trusted forwarder for meta-transactions."
      },
      "unpause()": {
        "notice": "Resume the contract operations."
      }
    },
    "notice": "Used to exchange assets, that is, tokens.",
    "version": 1
  },
  "storageLayout": {
    "storage": [
      {
        "astId": 783,
        "contract": "@sandbox-smart-contracts/marketplace/contracts/Exchange.sol:Exchange",
        "label": "_initialized",
        "offset": 0,
        "slot": "0",
        "type": "t_uint8"
      },
      {
        "astId": 786,
        "contract": "@sandbox-smart-contracts/marketplace/contracts/Exchange.sol:Exchange",
        "label": "_initializing",
        "offset": 1,
        "slot": "0",
        "type": "t_bool"
      },
      {
        "astId": 2171,
        "contract": "@sandbox-smart-contracts/marketplace/contracts/Exchange.sol:Exchange",
        "label": "__gap",
        "offset": 0,
        "slot": "1",
        "type": "t_array(t_uint256)50_storage"
      },
      {
        "astId": 3390,
        "contract": "@sandbox-smart-contracts/marketplace/contracts/Exchange.sol:Exchange",
        "label": "__gap",
        "offset": 0,
        "slot": "51",
        "type": "t_array(t_uint256)50_storage"
      },
      {
        "astId": 211,
        "contract": "@sandbox-smart-contracts/marketplace/contracts/Exchange.sol:Exchange",
        "label": "_roles",
        "offset": 0,
        "slot": "101",
        "type": "t_mapping(t_bytes32,t_struct(RoleData)206_storage)"
      },
      {
        "astId": 506,
        "contract": "@sandbox-smart-contracts/marketplace/contracts/Exchange.sol:Exchange",
        "label": "__gap",
        "offset": 0,
        "slot": "102",
        "type": "t_array(t_uint256)49_storage"
      },
      {
        "astId": 60,
        "contract": "@sandbox-smart-contracts/marketplace/contracts/Exchange.sol:Exchange",
        "label": "_roleMembers",
        "offset": 0,
        "slot": "151",
        "type": "t_mapping(t_bytes32,t_struct(AddressSet)4700_storage)"
      },
      {
        "astId": 170,
        "contract": "@sandbox-smart-contracts/marketplace/contracts/Exchange.sol:Exchange",
        "label": "__gap",
        "offset": 0,
        "slot": "152",
        "type": "t_array(t_uint256)49_storage"
      },
      {
        "astId": 5632,
        "contract": "@sandbox-smart-contracts/marketplace/contracts/Exchange.sol:Exchange",
        "label": "orderValidator",
        "offset": 0,
        "slot": "201",
        "type": "t_contract(IOrderValidator)8328"
      },
      {
        "astId": 5635,
        "contract": "@sandbox-smart-contracts/marketplace/contracts/Exchange.sol:Exchange",
        "label": "matchOrdersLimit",
        "offset": 0,
        "slot": "202",
        "type": "t_uint256"
      },
      {
        "astId": 5640,
        "contract": "@sandbox-smart-contracts/marketplace/contracts/Exchange.sol:Exchange",
        "label": "fills",
        "offset": 0,
        "slot": "203",
        "type": "t_mapping(t_bytes32,t_uint256)"
      },
      {
        "astId": 6174,
        "contract": "@sandbox-smart-contracts/marketplace/contracts/Exchange.sol:Exchange",
        "label": "__gap",
        "offset": 0,
        "slot": "204",
        "type": "t_array(t_uint256)49_storage"
      },
      {
        "astId": 7295,
        "contract": "@sandbox-smart-contracts/marketplace/contracts/Exchange.sol:Exchange",
        "label": "protocolFeePrimary",
        "offset": 0,
        "slot": "253",
        "type": "t_uint256"
      },
      {
        "astId": 7298,
        "contract": "@sandbox-smart-contracts/marketplace/contracts/Exchange.sol:Exchange",
        "label": "protocolFeeSecondary",
        "offset": 0,
        "slot": "254",
        "type": "t_uint256"
      },
      {
        "astId": 7302,
        "contract": "@sandbox-smart-contracts/marketplace/contracts/Exchange.sol:Exchange",
        "label": "royaltiesRegistry",
        "offset": 0,
        "slot": "255",
        "type": "t_contract(IRoyaltiesProvider)8352"
      },
      {
        "astId": 7305,
        "contract": "@sandbox-smart-contracts/marketplace/contracts/Exchange.sol:Exchange",
        "label": "defaultFeeReceiver",
        "offset": 0,
        "slot": "256",
        "type": "t_address"
      },
      {
        "astId": 7989,
        "contract": "@sandbox-smart-contracts/marketplace/contracts/Exchange.sol:Exchange",
        "label": "__gap",
        "offset": 0,
        "slot": "257",
        "type": "t_array(t_uint256)50_storage"
      },
      {
        "astId": 5114,
        "contract": "@sandbox-smart-contracts/marketplace/contracts/Exchange.sol:Exchange",
        "label": "_trustedForwarder",
        "offset": 0,
        "slot": "307",
        "type": "t_address"
      },
      {
        "astId": 5225,
        "contract": "@sandbox-smart-contracts/marketplace/contracts/Exchange.sol:Exchange",
        "label": "__gap",
        "offset": 0,
        "slot": "308",
        "type": "t_array(t_uint256)49_storage"
      },
      {
        "astId": 966,
        "contract": "@sandbox-smart-contracts/marketplace/contracts/Exchange.sol:Exchange",
        "label": "_paused",
        "offset": 0,
        "slot": "357",
        "type": "t_bool"
      },
      {
        "astId": 1071,
        "contract": "@sandbox-smart-contracts/marketplace/contracts/Exchange.sol:Exchange",
        "label": "__gap",
        "offset": 0,
        "slot": "358",
        "type": "t_array(t_uint256)49_storage"
      }
    ],
    "types": {
      "t_address": {
        "encoding": "inplace",
        "label": "address",
        "numberOfBytes": "20"
      },
      "t_array(t_bytes32)dyn_storage": {
        "base": "t_bytes32",
        "encoding": "dynamic_array",
        "label": "bytes32[]",
        "numberOfBytes": "32"
      },
      "t_array(t_uint256)49_storage": {
        "base": "t_uint256",
        "encoding": "inplace",
        "label": "uint256[49]",
        "numberOfBytes": "1568"
      },
      "t_array(t_uint256)50_storage": {
        "base": "t_uint256",
        "encoding": "inplace",
        "label": "uint256[50]",
        "numberOfBytes": "1600"
      },
      "t_bool": {
        "encoding": "inplace",
        "label": "bool",
        "numberOfBytes": "1"
      },
      "t_bytes32": {
        "encoding": "inplace",
        "label": "bytes32",
        "numberOfBytes": "32"
      },
      "t_contract(IOrderValidator)8328": {
        "encoding": "inplace",
        "label": "contract IOrderValidator",
        "numberOfBytes": "20"
      },
      "t_contract(IRoyaltiesProvider)8352": {
        "encoding": "inplace",
        "label": "contract IRoyaltiesProvider",
        "numberOfBytes": "20"
      },
      "t_mapping(t_address,t_bool)": {
        "encoding": "mapping",
        "key": "t_address",
        "label": "mapping(address => bool)",
        "numberOfBytes": "32",
        "value": "t_bool"
      },
      "t_mapping(t_bytes32,t_struct(AddressSet)4700_storage)": {
        "encoding": "mapping",
        "key": "t_bytes32",
        "label": "mapping(bytes32 => struct EnumerableSetUpgradeable.AddressSet)",
        "numberOfBytes": "32",
        "value": "t_struct(AddressSet)4700_storage"
      },
      "t_mapping(t_bytes32,t_struct(RoleData)206_storage)": {
        "encoding": "mapping",
        "key": "t_bytes32",
        "label": "mapping(bytes32 => struct AccessControlUpgradeable.RoleData)",
        "numberOfBytes": "32",
        "value": "t_struct(RoleData)206_storage"
      },
      "t_mapping(t_bytes32,t_uint256)": {
        "encoding": "mapping",
        "key": "t_bytes32",
        "label": "mapping(bytes32 => uint256)",
        "numberOfBytes": "32",
        "value": "t_uint256"
      },
      "t_struct(AddressSet)4700_storage": {
        "encoding": "inplace",
        "label": "struct EnumerableSetUpgradeable.AddressSet",
        "members": [
          {
            "astId": 4699,
            "contract": "@sandbox-smart-contracts/marketplace/contracts/Exchange.sol:Exchange",
            "label": "_inner",
            "offset": 0,
            "slot": "0",
            "type": "t_struct(Set)4385_storage"
          }
        ],
        "numberOfBytes": "64"
      },
      "t_struct(RoleData)206_storage": {
        "encoding": "inplace",
        "label": "struct AccessControlUpgradeable.RoleData",
        "members": [
          {
            "astId": 203,
            "contract": "@sandbox-smart-contracts/marketplace/contracts/Exchange.sol:Exchange",
            "label": "members",
            "offset": 0,
            "slot": "0",
            "type": "t_mapping(t_address,t_bool)"
          },
          {
            "astId": 205,
            "contract": "@sandbox-smart-contracts/marketplace/contracts/Exchange.sol:Exchange",
            "label": "adminRole",
            "offset": 0,
            "slot": "1",
            "type": "t_bytes32"
          }
        ],
        "numberOfBytes": "64"
      },
      "t_struct(Set)4385_storage": {
        "encoding": "inplace",
        "label": "struct EnumerableSetUpgradeable.Set",
        "members": [
          {
            "astId": 4380,
            "contract": "@sandbox-smart-contracts/marketplace/contracts/Exchange.sol:Exchange",
            "label": "_values",
            "offset": 0,
            "slot": "0",
            "type": "t_array(t_bytes32)dyn_storage"
          },
          {
            "astId": 4384,
            "contract": "@sandbox-smart-contracts/marketplace/contracts/Exchange.sol:Exchange",
            "label": "_indexes",
            "offset": 0,
            "slot": "1",
            "type": "t_mapping(t_bytes32,t_uint256)"
          }
        ],
        "numberOfBytes": "64"
      },
      "t_uint256": {
        "encoding": "inplace",
        "label": "uint256",
        "numberOfBytes": "32"
      },
      "t_uint8": {
        "encoding": "inplace",
        "label": "uint8",
        "numberOfBytes": "1"
      }
    }
  }
}