{
  "address": "0x3Fc9115D44dbbc0896847e0687e259E94301a089",
  "abi": [
    {
      "inputs": [
        {
          "internalType": "address",
          "name": "landAddress",
          "type": "address"
        },
        {
          "internalType": "address",
          "name": "sandContractAddress",
          "type": "address"
        },
        {
          "internalType": "address",
          "name": "initialMetaTx",
          "type": "address"
        },
        {
          "internalType": "address",
          "name": "admin",
          "type": "address"
        },
        {
          "internalType": "address payable",
          "name": "initialWalletAddress",
          "type": "address"
        },
        {
          "internalType": "bytes32",
          "name": "merkleRoot",
          "type": "bytes32"
        },
        {
          "internalType": "uint256",
          "name": "expiryTime",
          "type": "uint256"
        },
        {
          "internalType": "address",
          "name": "initialSigningWallet",
          "type": "address"
        },
        {
          "internalType": "uint256",
          "name": "initialMaxCommissionRate",
          "type": "uint256"
        },
        {
          "internalType": "address",
          "name": "estate",
          "type": "address"
        },
        {
          "internalType": "address",
          "name": "asset",
          "type": "address"
        },
        {
          "internalType": "address",
          "name": "feeDistributor",
          "type": "address"
        },
        {
          "internalType": "address",
          "name": "authValidator",
          "type": "address"
        }
      ],
      "stateMutability": "nonpayable",
      "type": "constructor"
    },
    {
      "anonymous": false,
      "inputs": [
        {
          "indexed": false,
          "internalType": "address",
          "name": "oldAdmin",
          "type": "address"
        },
        {
          "indexed": false,
          "internalType": "address",
          "name": "newAdmin",
          "type": "address"
        }
      ],
      "name": "AdminChanged",
      "type": "event"
    },
    {
      "anonymous": false,
      "inputs": [
        {
          "indexed": true,
          "internalType": "address",
          "name": "buyer",
          "type": "address"
        },
        {
          "indexed": true,
          "internalType": "address",
          "name": "to",
          "type": "address"
        },
        {
          "indexed": true,
          "internalType": "uint256",
          "name": "topCornerId",
          "type": "uint256"
        },
        {
          "indexed": false,
          "internalType": "uint256",
          "name": "size",
          "type": "uint256"
        },
        {
          "indexed": false,
          "internalType": "uint256",
          "name": "price",
          "type": "uint256"
        },
        {
          "indexed": false,
          "internalType": "address",
          "name": "token",
          "type": "address"
        },
        {
          "indexed": false,
          "internalType": "uint256",
          "name": "amountPaid",
          "type": "uint256"
        }
      ],
      "name": "LandQuadPurchased",
      "type": "event"
    },
    {
      "anonymous": false,
      "inputs": [
        {
          "indexed": true,
          "internalType": "uint256",
          "name": "newMaxCommissionRate",
          "type": "uint256"
        }
      ],
      "name": "MaxCommissionRateUpdated",
      "type": "event"
    },
    {
      "anonymous": false,
      "inputs": [
        {
          "indexed": false,
          "internalType": "address",
          "name": "metaTransactionProcessor",
          "type": "address"
        },
        {
          "indexed": false,
          "internalType": "bool",
          "name": "enabled",
          "type": "bool"
        }
      ],
      "name": "MetaTransactionProcessor",
      "type": "event"
    },
    {
      "anonymous": false,
      "inputs": [
        {
          "indexed": true,
          "internalType": "address",
          "name": "newWallet",
          "type": "address"
        }
      ],
      "name": "NewReceivingWallet",
      "type": "event"
    },
    {
      "anonymous": false,
      "inputs": [
        {
          "indexed": true,
          "internalType": "address",
          "name": "referrer",
          "type": "address"
        },
        {
          "indexed": true,
          "internalType": "address",
          "name": "referee",
          "type": "address"
        },
        {
          "indexed": true,
          "internalType": "address",
          "name": "token",
          "type": "address"
        },
        {
          "indexed": false,
          "internalType": "uint256",
          "name": "amount",
          "type": "uint256"
        },
        {
          "indexed": false,
          "internalType": "uint256",
          "name": "commission",
          "type": "uint256"
        },
        {
          "indexed": false,
          "internalType": "uint256",
          "name": "commissionRate",
          "type": "uint256"
        }
      ],
      "name": "ReferralUsed",
      "type": "event"
    },
    {
      "anonymous": false,
      "inputs": [
        {
          "indexed": true,
          "internalType": "address",
          "name": "newSigningWallet",
          "type": "address"
        }
      ],
      "name": "SigningWalletUpdated",
      "type": "event"
    },
    {
      "inputs": [
        {
          "internalType": "address",
          "name": "buyer",
          "type": "address"
        },
        {
          "internalType": "address",
          "name": "to",
          "type": "address"
        },
        {
          "internalType": "address",
          "name": "reserved",
          "type": "address"
        },
        {
          "internalType": "uint256[]",
          "name": "info",
          "type": "uint256[]"
        },
        {
          "internalType": "bytes32",
          "name": "salt",
          "type": "bytes32"
        },
        {
          "internalType": "uint256[]",
          "name": "assetIds",
          "type": "uint256[]"
        },
        {
          "internalType": "bytes32[]",
          "name": "proof",
          "type": "bytes32[]"
        },
        {
          "internalType": "bytes",
          "name": "referral",
          "type": "bytes"
        },
        {
          "internalType": "bytes",
          "name": "signature",
          "type": "bytes"
        }
      ],
      "name": "buyLandWithSand",
      "outputs": [],
      "stateMutability": "nonpayable",
      "type": "function"
    },
    {
      "inputs": [
        {
          "internalType": "address",
          "name": "newAdmin",
          "type": "address"
        }
      ],
      "name": "changeAdmin",
      "outputs": [],
      "stateMutability": "nonpayable",
      "type": "function"
    },
    {
      "inputs": [
        {
          "internalType": "bytes",
          "name": "referral",
          "type": "bytes"
        }
      ],
      "name": "decodeReferral",
      "outputs": [
        {
          "internalType": "bytes",
          "name": "",
          "type": "bytes"
        },
        {
          "internalType": "address",
          "name": "",
          "type": "address"
        },
        {
          "internalType": "address",
          "name": "",
          "type": "address"
        },
        {
          "internalType": "uint256",
          "name": "",
          "type": "uint256"
        },
        {
          "internalType": "uint256",
          "name": "",
          "type": "uint256"
        }
      ],
      "stateMutability": "pure",
      "type": "function"
    },
    {
      "inputs": [
        {
          "internalType": "address",
          "name": "disableWallet",
          "type": "address"
        }
      ],
      "name": "disablePreviousSigningWallet",
      "outputs": [],
      "stateMutability": "nonpayable",
      "type": "function"
    },
    {
      "inputs": [],
      "name": "getAdmin",
      "outputs": [
        {
          "internalType": "address",
          "name": "",
          "type": "address"
        }
      ],
      "stateMutability": "view",
      "type": "function"
    },
    {
      "inputs": [],
      "name": "getExpiryTime",
      "outputs": [
        {
          "internalType": "uint256",
          "name": "",
          "type": "uint256"
        }
      ],
      "stateMutability": "view",
      "type": "function"
    },
    {
      "inputs": [],
      "name": "getMaxCommissionRate",
      "outputs": [
        {
          "internalType": "uint256",
          "name": "",
          "type": "uint256"
        }
      ],
      "stateMutability": "view",
      "type": "function"
    },
    {
      "inputs": [],
      "name": "getMerkleRoot",
      "outputs": [
        {
          "internalType": "bytes32",
          "name": "",
          "type": "bytes32"
        }
      ],
      "stateMutability": "view",
      "type": "function"
    },
    {
      "inputs": [],
      "name": "getSigningWallet",
      "outputs": [
        {
          "internalType": "address",
          "name": "",
          "type": "address"
        }
      ],
      "stateMutability": "view",
      "type": "function"
    },
    {
      "inputs": [
        {
          "internalType": "address",
          "name": "who",
          "type": "address"
        }
      ],
      "name": "isMetaTransactionProcessor",
      "outputs": [
        {
          "internalType": "bool",
          "name": "",
          "type": "bool"
        }
      ],
      "stateMutability": "view",
      "type": "function"
    },
    {
      "inputs": [
        {
          "internalType": "bytes",
          "name": "signature",
          "type": "bytes"
        },
        {
          "internalType": "address",
          "name": "referrer",
          "type": "address"
        },
        {
          "internalType": "address",
          "name": "referee",
          "type": "address"
        },
        {
          "internalType": "uint256",
          "name": "expiryTime",
          "type": "uint256"
        },
        {
          "internalType": "uint256",
          "name": "commissionRate",
          "type": "uint256"
        }
      ],
      "name": "isReferralValid",
      "outputs": [
        {
          "internalType": "bool",
          "name": "",
          "type": "bool"
        }
      ],
      "stateMutability": "view",
      "type": "function"
    },
    {
      "inputs": [
        {
          "internalType": "address",
          "name": "",
          "type": "address"
        },
        {
          "internalType": "address",
          "name": "",
          "type": "address"
        },
        {
          "internalType": "uint256[]",
          "name": "",
          "type": "uint256[]"
        },
        {
          "internalType": "uint256[]",
          "name": "",
          "type": "uint256[]"
        },
        {
          "internalType": "bytes",
          "name": "",
          "type": "bytes"
        }
      ],
      "name": "onERC1155BatchReceived",
      "outputs": [
        {
          "internalType": "bytes4",
          "name": "",
          "type": "bytes4"
        }
      ],
      "stateMutability": "pure",
      "type": "function"
    },
    {
      "inputs": [
        {
          "internalType": "address",
          "name": "",
          "type": "address"
        },
        {
          "internalType": "address",
          "name": "",
          "type": "address"
        },
        {
          "internalType": "uint256",
          "name": "",
          "type": "uint256"
        },
        {
          "internalType": "uint256",
          "name": "",
          "type": "uint256"
        },
        {
          "internalType": "bytes",
          "name": "",
          "type": "bytes"
        }
      ],
      "name": "onERC1155Received",
      "outputs": [
        {
          "internalType": "bytes4",
          "name": "",
          "type": "bytes4"
        }
      ],
      "stateMutability": "pure",
      "type": "function"
    },
    {
      "inputs": [
        {
          "internalType": "address",
          "name": "metaTransactionProcessor",
          "type": "address"
        },
        {
          "internalType": "bool",
          "name": "enabled",
          "type": "bool"
        }
      ],
      "name": "setMetaTransactionProcessor",
      "outputs": [],
      "stateMutability": "nonpayable",
      "type": "function"
    },
    {
      "inputs": [
        {
          "internalType": "address payable",
          "name": "newWallet",
          "type": "address"
        }
      ],
      "name": "setReceivingWallet",
      "outputs": [],
      "stateMutability": "nonpayable",
      "type": "function"
    },
    {
      "inputs": [
        {
          "internalType": "uint256",
          "name": "newMaxCommissionRate",
          "type": "uint256"
        }
      ],
      "name": "updateMaxCommissionRate",
      "outputs": [],
      "stateMutability": "nonpayable",
      "type": "function"
    },
    {
      "inputs": [
        {
          "internalType": "address",
          "name": "newSigningWallet",
          "type": "address"
        }
      ],
      "name": "updateSigningWallet",
      "outputs": [],
      "stateMutability": "nonpayable",
      "type": "function"
    },
    {
      "inputs": [
        {
          "internalType": "address",
          "name": "to",
          "type": "address"
        },
        {
          "internalType": "uint256[]",
          "name": "assetIds",
          "type": "uint256[]"
        },
        {
          "internalType": "uint256[]",
          "name": "values",
          "type": "uint256[]"
        }
      ],
      "name": "withdrawAssets",
      "outputs": [],
      "stateMutability": "nonpayable",
      "type": "function"
    }
  ],
  "transactionHash": "0x981eb86ff3c1df680a68b2ab1ec61dafa9c473557eb0364c468d4b4e56ce49fc",
  "args": [
    "0x9d305a42A3975Ee4c1C57555BeD5919889DCE63F",
    "0xBbba073C31bF03b8ACf7c28EF0738DeCF3695683",
    "0xBbba073C31bF03b8ACf7c28EF0738DeCF3695683",
    "0xfD30a48Bc6c56E24B0ebF1B0117d750e2CFf7531",
    "0x1b47567CBE36e63293A7A2018F79687f942aB24C",
    "0xbe5c97d5d90a86f7c961f8b812eab9cfe70f44d589e3e5b00cd4c9ff0a6476ff",
    1769947200,
    "0x3044719d139F866a44c988823513eCB93060bF1b",
    2000,
    "0x0000000000000000000000000000000000000000",
    "0xDbc52cd5b8EdA1A7BCBABb838ca927d23E3673e5",
    "0x42a4a3795446A4c070565da201c6303fC78a2569",
    "0x7804fb2AF15bB1323795A888B09913cEf629Ffda"
  ],
  "numDeployments": 1,
  "linkedData": [
    {
      "x": 114,
      "y": 300,
      "size": 1,
      "price": "1011000000000000000000",
      "reserved": "",
      "salt": "0x570a20fce2009805f53144eb8629818e1a6b2677f83a9e2959fd12b86532313c",
      "assetIds": []
    },
    {
      "x": 114,
      "y": 301,
      "size": 1,
      "price": "1011000000000000000000",
      "reserved": "",
      "salt": "0x61613d5ac5fcb7ddf6fbd7dc24b6e31834268c8fcb88aea4c39d318857286d62",
      "assetIds": []
    },
    {
      "x": 114,
      "y": 302,
      "size": 1,
      "price": "1011000000000000000000",
      "reserved": "0x7a9fe22691c811ea339d9b73150e6911a5343dca",
      "salt": "0xbb13daafef8aa4f3add7de7e80d46321bcd9a7f345f9e05a0c987e1e93a6add9",
      "assetIds": []
    },
    {
      "x": 114,
      "y": 306,
      "size": 1,
      "price": "4683000000000000000000",
      "reserved": "",
      "salt": "0x32a0ebf44466289ce05e6ea38882a84ae3c396e9f4a80edaedd1b8c2d9e3e61a",
      "assetIds": [
        "24861897353025848750348717390502043067474471703165550026",
        "24862271497445005461495777533819218435927503621896551882",
        "24862645641864162172642837677136393804380535540627553738",
        "24863019786283318883789897820453569172833567459358555594",
        "24863393930702475594936957963770744541286599378089557450",
        "24863768075121632306084018107087919909739631296820559306",
        "24864142219540789017231078250405095278192663215551561162"
      ]
    },
    {
      "x": 114,
      "y": 308,
      "size": 1,
      "price": "1011000000000000000000",
      "reserved": "",
      "salt": "0x3f3b51a08f4ae35f1d8ae7795bcb22326c7f2b1b6dd660e9190f0fdea16ea775",
      "assetIds": []
    },
    {
      "x": 115,
      "y": 300,
      "size": 1,
      "price": "1011000000000000000000",
      "reserved": "0x7a9fe22691c811ea339d9b73150e6911a5343dca",
      "salt": "0x12b3d3c6af5024241143f4053eab0ef47018e46265b31ec50279675e86932d29",
      "assetIds": []
    },
    {
      "x": 115,
      "y": 302,
      "size": 1,
      "price": "1011000000000000000000",
      "reserved": "",
      "salt": "0x3149f9c91bbfdc8368ca110e305013d3377b7323740354326fe88003124a6777",
      "assetIds": []
    },
    {
      "x": 115,
      "y": 306,
      "size": 1,
      "price": "1011000000000000000000",
      "reserved": "",
      "salt": "0x08c60a6805df1d67f8fbda3690d593ae08132f8d546b278f2a142dbee7a33c69",
      "assetIds": []
    },
    {
      "x": 115,
      "y": 307,
      "size": 1,
      "price": "1011000000000000000000",
      "reserved": "0x7a9fe22691c811ea339d9b73150e6911a5343dca",
      "salt": "0x49c9945a02456cb5adf4ddad79627688eed87cd447e06413cb287737eab534e2",
      "assetIds": []
    },
    {
      "x": 115,
      "y": 308,
      "size": 1,
      "price": "1011000000000000000000",
      "reserved": "0x7a9fe22691c811ea339d9b73150e6911a5343dca",
      "salt": "0x3ed69c918f08b113affac66878fe5ad3f07d568a671e20aba47a987e5ba5bee6",
      "assetIds": []
    },
    {
      "x": 116,
      "y": 300,
      "size": 1,
      "price": "1011000000000000000000",
      "reserved": "",
      "salt": "0xdaed11fb41bb07a668a8b15525972d29495c752b9b00faf535bd71dd71020c95",
      "assetIds": []
    },
    {
      "x": 116,
      "y": 301,
      "size": 1,
      "price": "1011000000000000000000",
      "reserved": "0x7a9fe22691c811ea339d9b73150e6911a5343dca",
      "salt": "0xcb9ea0ae8d9c2a1112a89ae99e52f9123819bd3a9323df0a8be6754ee76ca764",
      "assetIds": []
    },
    {
      "x": 116,
      "y": 302,
      "size": 1,
      "price": "1011000000000000000000",
      "reserved": "0x7a9fe22691c811ea339d9b73150e6911a5343dca",
      "salt": "0xece78bebe6a8412bf75957ba48477af2145cdc28d087b9d338f2ce2d0a3fe605",
      "assetIds": []
    },
    {
      "x": 116,
      "y": 306,
      "size": 1,
      "price": "4683000000000000000000",
      "reserved": "",
      "salt": "0x08f1958b4d6da959d46bb17ac12b1badb80a2f5c1d8dfb003849c5a6708a4b64",
      "assetIds": [
        "24861897353025848750348717390502043067474471703165550026",
        "24862271497445005461495777533819218435927503621896551882",
        "24862645641864162172642837677136393804380535540627553738",
        "24863019786283318883789897820453569172833567459358555594",
        "24863393930702475594936957963770744541286599378089557450",
        "24863768075121632306084018107087919909739631296820559306",
        "24864142219540789017231078250405095278192663215551561162"
      ]
    },
    {
      "x": 116,
      "y": 307,
      "size": 1,
      "price": "1011000000000000000000",
      "reserved": "",
      "salt": "0x460514ee9965426b343f65dcda4b495ba94e7f6453547add068da16ddc1f58af",
      "assetIds": []
    },
    {
      "x": 117,
      "y": 301,
      "size": 1,
      "price": "1011000000000000000000",
      "reserved": "",
      "salt": "0x83be89bbbcf019dce1152f1055f5b106d067a53a28541fb191b1551084e43de6",
      "assetIds": []
    },
    {
      "x": 117,
      "y": 302,
      "size": 1,
      "price": "1011000000000000000000",
      "reserved": "",
      "salt": "0xb530341dd3c7436d9f5e0e54b25c0eb84e988857bb9d975ea148964c56e074c7",
      "assetIds": []
    },
    {
      "x": 117,
      "y": 304,
      "size": 1,
      "price": "1011000000000000000000",
      "reserved": "",
      "salt": "0x3d57741b4e19eeb83e49d1fb41ac2b5a073c09ae355e42df76aa19ea4158ef59",
      "assetIds": []
    },
    {
      "x": 117,
      "y": 307,
      "size": 1,
      "price": "1011000000000000000000",
      "reserved": "",
      "salt": "0xea3fa5975cb0d036005c1085debb9e71e25386bd12831592b31fff0707e33142",
      "assetIds": []
    },
    {
      "x": 117,
      "y": 308,
      "size": 1,
      "price": "1011000000000000000000",
      "reserved": "0x7a9fe22691c811ea339d9b73150e6911a5343dca",
      "salt": "0x1bb314606304081b812b2155f9ffaac7754cf9d3b6f50fb927e75e1b5807ef02",
      "assetIds": []
    },
    {
      "x": 117,
      "y": 309,
      "size": 1,
      "price": "1011000000000000000000",
      "reserved": "",
      "salt": "0x28eb5ba0cc37222b9b9cf7afd5215b6450f7928f5a28fdf47474a8903e9de155",
      "assetIds": []
    },
    {
      "x": 117,
      "y": 310,
      "size": 1,
      "price": "1011000000000000000000",
      "reserved": "0x7a9fe22691c811ea339d9b73150e6911a5343dca",
      "salt": "0x0fd04dcaf3051e994c2fdca5bbb0009503f8529084e6e0288218ec0c52768493",
      "assetIds": []
    },
    {
      "x": 118,
      "y": 300,
      "size": 1,
      "price": "1011000000000000000000",
      "reserved": "",
      "salt": "0x10576a57eb06dc6fed0b36a772d702302a776bda3ca2feaecc03e98a0b6d0e59",
      "assetIds": []
    },
    {
      "x": 118,
      "y": 301,
      "size": 1,
      "price": "1011000000000000000000",
      "reserved": "0x7a9fe22691c811ea339d9b73150e6911a5343dca",
      "salt": "0x09f3d847b7d04a47f35ada2d9cb10644ab31a62a293deec95872801c8ec8c837",
      "assetIds": []
    },
    {
      "x": 118,
      "y": 303,
      "size": 1,
      "price": "1011000000000000000000",
      "reserved": "",
      "salt": "0x8a1d3929655ef50f8b35268bf85ffb36c47f07862fa3da0f7005cbeb882371d5",
      "assetIds": []
    },
    {
      "x": 118,
      "y": 305,
      "size": 1,
      "price": "1011000000000000000000",
      "reserved": "",
      "salt": "0x9d87a40800a8baaf36e50a1b072d9035509948a47a2e2b964c8483b0be1db331",
      "assetIds": []
    },
    {
      "x": 118,
      "y": 306,
      "size": 1,
      "price": "1011000000000000000000",
      "reserved": "0x7a9fe22691c811ea339d9b73150e6911a5343dca",
      "salt": "0x0bd0882c4579ee7eeacccb5447762221fb9d25c2e27275faf34dda35eb697af4",
      "assetIds": []
    },
    {
      "x": 118,
      "y": 307,
      "size": 1,
      "price": "1011000000000000000000",
      "reserved": "",
      "salt": "0x19138b1ac198dce389d44d074eedf89a47cb758ae40025a1b80dc728027e2f7e",
      "assetIds": []
    },
    {
      "x": 118,
      "y": 309,
      "size": 1,
      "price": "1011000000000000000000",
      "reserved": "",
      "salt": "0x7bb7d2261b65085d5d95160aa53bcbb3b1a75b7a7bae4e15f3cfcecfcbc2a33a",
      "assetIds": []
    },
    {
      "x": 118,
      "y": 311,
      "size": 1,
      "price": "1011000000000000000000",
      "reserved": "",
      "salt": "0x8cbf2a5fc9ddebcd9a779b6bd146184b97414f9f6d38a021b7f6ecd1399ab6c7",
      "assetIds": []
    },
    {
      "x": 119,
      "y": 302,
      "size": 1,
      "price": "1011000000000000000000",
      "reserved": "",
      "salt": "0xd41a73ccde646d3cb22254f618fd9d66f7cf83bbc687aa6346de20a7ff6ad4cd",
      "assetIds": []
    },
    {
      "x": 119,
      "y": 304,
      "size": 1,
      "price": "1011000000000000000000",
      "reserved": "0x7a9fe22691c811ea339d9b73150e6911a5343dca",
      "salt": "0x8d8b8c38958b27584a4412d24c5ea3de748abc9497fbe900aef4b5cf1611a201",
      "assetIds": []
    },
    {
      "x": 119,
      "y": 306,
      "size": 1,
      "price": "1011000000000000000000",
      "reserved": "",
      "salt": "0x284fd88f16cc04c404d6627733da1489e5b936878f9bbd916a23e66174c65580",
      "assetIds": []
    },
    {
      "x": 119,
      "y": 308,
      "size": 1,
      "price": "1011000000000000000000",
      "reserved": "0x7a9fe22691c811ea339d9b73150e6911a5343dca",
      "salt": "0x5f0f691719d19a221526e7cd834e84418e03389c6d048e43beef78ad53b7898d",
      "assetIds": []
    },
    {
      "x": 119,
      "y": 310,
      "size": 1,
      "price": "1011000000000000000000",
      "reserved": "",
      "salt": "0x52160c6a1abaacb3dd2f9c357b84ef57ed390094e3dafab779c3ed0c2ac13513",
      "assetIds": []
    },
    {
      "x": 120,
      "y": 295,
      "size": 1,
      "price": "1011000000000000000000",
      "reserved": "0x7a9fe22691c811ea339d9b73150e6911a5343dca",
      "salt": "0xeef6b3c0fb5f1b22c79af5aa8dbfd7a277f8dfbe4777d4ec614e6472fe87411f",
      "assetIds": []
    },
    {
      "x": 120,
      "y": 296,
      "size": 1,
      "price": "1011000000000000000000",
      "reserved": "",
      "salt": "0x5f70d3890d1e68341a6c6aeeaac762c79e4b62db49da6db00063644c6e351ff9",
      "assetIds": []
    },
    {
      "x": 120,
      "y": 297,
      "size": 1,
      "price": "1011000000000000000000",
      "reserved": "",
      "salt": "0x56c5d50de266d00668dfa541e8d347c299e86b811a7ab62d30b5bc680589d04a",
      "assetIds": []
    },
    {
      "x": 120,
      "y": 298,
      "size": 1,
      "price": "1011000000000000000000",
      "reserved": "",
      "salt": "0x61401e9285355a14194025e6387f11e6f193f567d6fce0e64986228943cac2df",
      "assetIds": []
    },
    {
      "x": 120,
      "y": 315,
      "size": 1,
      "price": "1011000000000000000000",
      "reserved": "",
      "salt": "0xeeaab1fc02bf07f96c0a2837b16e8f2d3a031da0807b1329af59db98e0f63944",
      "assetIds": []
    },
    {
      "x": 120,
      "y": 316,
      "size": 1,
      "price": "1011000000000000000000",
      "reserved": "0x7a9fe22691c811ea339d9b73150e6911a5343dca",
      "salt": "0xbd11b645b2fd0d5245d3e40ecb5245571906bf8e9ffc7961809728bd6c2d00f7",
      "assetIds": []
    },
    {
      "x": 120,
      "y": 325,
      "size": 1,
      "price": "1011000000000000000000",
      "reserved": "",
      "salt": "0x778c5fbc92a6fc339f2526732c126305e6e5c4a92d939de6c55f6820461e65a6",
      "assetIds": []
    },
    {
      "x": 121,
      "y": 294,
      "size": 1,
      "price": "1011000000000000000000",
      "reserved": "",
      "salt": "0x09fd1aa08da3d7b3cd902164eb021b4822cce78272ed23d995896a78cf4a0ff2",
      "assetIds": []
    },
    {
      "x": 121,
      "y": 297,
      "size": 1,
      "price": "1011000000000000000000",
      "reserved": "",
      "salt": "0xab32e37d826ae5737cacdfdf1424abbe9d04da5326c744ff93d32f8b0e1d6494",
      "assetIds": []
    },
    {
      "x": 121,
      "y": 299,
      "size": 1,
      "price": "1011000000000000000000",
      "reserved": "0x7a9fe22691c811ea339d9b73150e6911a5343dca",
      "salt": "0x96139d988e5af5edeb57b996e1d72c9b8c85a75f3fe7a4dceef634ee4b532723",
      "assetIds": []
    },
    {
      "x": 121,
      "y": 317,
      "size": 1,
      "price": "1011000000000000000000",
      "reserved": "",
      "salt": "0xcc8c23e212be6e690e9df443eb668597c4a7e4e3d9737b758437a13383a5ad96",
      "assetIds": []
    },
    {
      "x": 121,
      "y": 318,
      "size": 1,
      "price": "1011000000000000000000",
      "reserved": "0x7a9fe22691c811ea339d9b73150e6911a5343dca",
      "salt": "0x6df83aafa0b1abc23a502f81f5a4d469b66c767bf2217003e391c245ef645e2b",
      "assetIds": []
    },
    {
      "x": 121,
      "y": 319,
      "size": 1,
      "price": "1011000000000000000000",
      "reserved": "",
      "salt": "0xafa06dfdd9765738f28cf5b49d5a8e3ed14877e91e41318d1a838591ba55eaeb",
      "assetIds": []
    },
    {
      "x": 121,
      "y": 320,
      "size": 1,
      "price": "1011000000000000000000",
      "reserved": "",
      "salt": "0x8eebe80ca4c702e29133590269011f106b28dddebf9360644992a3d0b96a2f4b",
      "assetIds": []
    },
    {
      "x": 121,
      "y": 324,
      "size": 1,
      "price": "1011000000000000000000",
      "reserved": "",
      "salt": "0x16956fa851eb73659ada4538ecb692d536769b772405469af375ebdbfaee8295",
      "assetIds": []
    },
    {
      "x": 121,
      "y": 326,
      "size": 1,
      "price": "1011000000000000000000",
      "reserved": "",
      "salt": "0xd6fb05e568c1c9720a7cd45ff4e81afef3b09f97932f07e8b7291ec5bcfea5c1",
      "assetIds": []
    },
    {
      "x": 122,
      "y": 295,
      "size": 1,
      "price": "1011000000000000000000",
      "reserved": "",
      "salt": "0xe7823455958d13f99a8ad6a8907c4498968bc5f504325be5afa36c3443000e79",
      "assetIds": []
    },
    {
      "x": 122,
      "y": 296,
      "size": 1,
      "price": "4683000000000000000000",
      "reserved": "",
      "salt": "0x14ec4d768652ef30f0bd6b9e06aa2b0bebe81a848524c0c27fb7214658586293",
      "assetIds": [
        "24861897353025848750348717390502043067474471703165550026",
        "24862271497445005461495777533819218435927503621896551882",
        "24862645641864162172642837677136393804380535540627553738",
        "24863019786283318883789897820453569172833567459358555594",
        "24863393930702475594936957963770744541286599378089557450",
        "24863768075121632306084018107087919909739631296820559306",
        "24864142219540789017231078250405095278192663215551561162"
      ]
    },
    {
      "x": 122,
      "y": 298,
      "size": 1,
      "price": "1011000000000000000000",
      "reserved": "",
      "salt": "0x71f6310d74f99f7e3629a3c163168cea86d38870b477763a460854549a6b0fde",
      "assetIds": []
    },
    {
      "x": 122,
      "y": 299,
      "size": 1,
      "price": "4683000000000000000000",
      "reserved": "",
      "salt": "0x9535cda2e84811e60dda90d4dab23faed9615ff4962d33ccfb6cb4ee8908bcde",
      "assetIds": [
        "24861897353025848750348717390502043067474471703165550026",
        "24862271497445005461495777533819218435927503621896551882",
        "24862645641864162172642837677136393804380535540627553738",
        "24863019786283318883789897820453569172833567459358555594",
        "24863393930702475594936957963770744541286599378089557450",
        "24863768075121632306084018107087919909739631296820559306",
        "24864142219540789017231078250405095278192663215551561162"
      ]
    },
    {
      "x": 122,
      "y": 315,
      "size": 1,
      "price": "1011000000000000000000",
      "reserved": "",
      "salt": "0x3be0b26ccbaf1e6ac9dac1cf022ef6bc6ac646539cdde91aaeb17a028be6f0e9",
      "assetIds": []
    },
    {
      "x": 122,
      "y": 316,
      "size": 1,
      "price": "1011000000000000000000",
      "reserved": "0x7a9fe22691c811ea339d9b73150e6911a5343dca",
      "salt": "0x3809584c8292920ac42d66f3b7102c3a3e94e1903c5d8f97f4350fb1ee9a241b",
      "assetIds": []
    },
    {
      "x": 122,
      "y": 318,
      "size": 1,
      "price": "4683000000000000000000",
      "reserved": "",
      "salt": "0x153903addc3f33de6875e0d70f27786dd40e0223ed0ecf8ebf120992508cc656",
      "assetIds": [
        "24861897353025848750348717390502043067474471703165550026",
        "24862271497445005461495777533819218435927503621896551882",
        "24862645641864162172642837677136393804380535540627553738",
        "24863019786283318883789897820453569172833567459358555594",
        "24863393930702475594936957963770744541286599378089557450",
        "24863768075121632306084018107087919909739631296820559306",
        "24864142219540789017231078250405095278192663215551561162"
      ]
    },
    {
      "x": 122,
      "y": 319,
      "size": 1,
      "price": "1011000000000000000000",
      "reserved": "0x7a9fe22691c811ea339d9b73150e6911a5343dca",
      "salt": "0x0618abf4788e56d9992640fed4f53ab85fbf76f8fec9dc4deaf6155090fefd98",
      "assetIds": []
    },
    {
      "x": 122,
      "y": 325,
      "size": 1,
      "price": "1011000000000000000000",
      "reserved": "0x7a9fe22691c811ea339d9b73150e6911a5343dca",
      "salt": "0x93cf5e6daf9e4c6691ce5564f91a7032eb56159dffe101360a9b15dd3af3a648",
      "assetIds": []
    },
    {
      "x": 123,
      "y": 297,
      "size": 1,
      "price": "4683000000000000000000",
      "reserved": "",
      "salt": "0x9fe2c0dfd1374d83f42d80563bccb8b0b21436335cb8070b0952488b308bf600",
      "assetIds": [
        "24861897353025848750348717390502043067474471703165550026",
        "24862271497445005461495777533819218435927503621896551882",
        "24862645641864162172642837677136393804380535540627553738",
        "24863019786283318883789897820453569172833567459358555594",
        "24863393930702475594936957963770744541286599378089557450",
        "24863768075121632306084018107087919909739631296820559306",
        "24864142219540789017231078250405095278192663215551561162"
      ]
    },
    {
      "x": 123,
      "y": 298,
      "size": 1,
      "price": "1011000000000000000000",
      "reserved": "",
      "salt": "0xeae0d56272523151a9f8008f1a39784f560282852ef9b5d591c1b1d342811f1a",
      "assetIds": []
    },
    {
      "x": 123,
      "y": 299,
      "size": 1,
      "price": "1011000000000000000000",
      "reserved": "",
      "salt": "0x82e74ce0fb35477663635098065b0570f413269b8ca2907b25043be0958c1b83",
      "assetIds": []
    },
    {
      "x": 123,
      "y": 312,
      "size": 1,
      "price": "4683000000000000000000",
      "reserved": "",
      "salt": "0x28891ce41aaee99163a7d5fd0d2126971e4c984183b1e7106709b2f865689a2e",
      "assetIds": [
        "24861897353025848750348717390502043067474471703165550026",
        "24862271497445005461495777533819218435927503621896551882",
        "24862645641864162172642837677136393804380535540627553738",
        "24863019786283318883789897820453569172833567459358555594",
        "24863393930702475594936957963770744541286599378089557450",
        "24863768075121632306084018107087919909739631296820559306",
        "24864142219540789017231078250405095278192663215551561162"
      ]
    },
    {
      "x": 123,
      "y": 314,
      "size": 1,
      "price": "1011000000000000000000",
      "reserved": "",
      "salt": "0x7c126efc05f2857566c243afbb58b154f60b5c4081f3def095fee1c9372c2193",
      "assetIds": []
    },
    {
      "x": 123,
      "y": 317,
      "size": 1,
      "price": "4683000000000000000000",
      "reserved": "",
      "salt": "0xad1e51dfbbaf769609bc16ec6ce7191d947f0808adb0c866c5a8a1fd445bdaac",
      "assetIds": [
        "24861897353025848750348717390502043067474471703165550026",
        "24862271497445005461495777533819218435927503621896551882",
        "24862645641864162172642837677136393804380535540627553738",
        "24863019786283318883789897820453569172833567459358555594",
        "24863393930702475594936957963770744541286599378089557450",
        "24863768075121632306084018107087919909739631296820559306",
        "24864142219540789017231078250405095278192663215551561162"
      ]
    },
    {
      "x": 123,
      "y": 323,
      "size": 1,
      "price": "1011000000000000000000",
      "reserved": "",
      "salt": "0x36319ad367dad11cf37598c116b5a9d1fbd23daef79eeb3fbf40082215a8a379",
      "assetIds": []
    },
    {
      "x": 123,
      "y": 324,
      "size": 1,
      "price": "1011000000000000000000",
      "reserved": "0x7a9fe22691c811ea339d9b73150e6911a5343dca",
      "salt": "0x2b332ffebc2ce64fd5acbc29b4b18fcb76a0ce9f2c00c3fe89179a3eb25a4466",
      "assetIds": []
    },
    {
      "x": 123,
      "y": 326,
      "size": 1,
      "price": "1011000000000000000000",
      "reserved": "",
      "salt": "0x39355fa0e50d9572377442c5b52a0115b44fec382b5eb8ee74dab7bf51e87018",
      "assetIds": []
    },
    {
      "x": 123,
      "y": 328,
      "size": 1,
      "price": "1011000000000000000000",
      "reserved": "0x7a9fe22691c811ea339d9b73150e6911a5343dca",
      "salt": "0x3185b0ef29bdbcfd3ffcb77dcb5b2c082b35e3e70efc6b0ed5054bfc394db234",
      "assetIds": []
    },
    {
      "x": 124,
      "y": 297,
      "size": 1,
      "price": "1011000000000000000000",
      "reserved": "",
      "salt": "0x06c25049737a52cd3623efbb732cfcfe67e54f107081ad2483954b1985433ea0",
      "assetIds": []
    },
    {
      "x": 124,
      "y": 298,
      "size": 1,
      "price": "1011000000000000000000",
      "reserved": "",
      "salt": "0x1c92f1b26b0aabdf5e111d74ed5a9da0bd6bedd0a9f57fe88edac57c29cd271c",
      "assetIds": []
    },
    {
      "x": 124,
      "y": 299,
      "size": 1,
      "price": "4683000000000000000000",
      "reserved": "",
      "salt": "0x8ab9af49170abc442e3b5db13090978d3349fe303e380a4fe21d081935634992",
      "assetIds": [
        "24861897353025848750348717390502043067474471703165550026",
        "24862271497445005461495777533819218435927503621896551882",
        "24862645641864162172642837677136393804380535540627553738",
        "24863019786283318883789897820453569172833567459358555594",
        "24863393930702475594936957963770744541286599378089557450",
        "24863768075121632306084018107087919909739631296820559306",
        "24864142219540789017231078250405095278192663215551561162"
      ]
    },
    {
      "x": 124,
      "y": 312,
      "size": 1,
      "price": "1011000000000000000000",
      "reserved": "0x7a9fe22691c811ea339d9b73150e6911a5343dca",
      "salt": "0x074cd4e4f65f07924c1f9a924836adbc7f676c57a3a0025578117d82dd9b78be",
      "assetIds": []
    },
    {
      "x": 124,
      "y": 313,
      "size": 1,
      "price": "1011000000000000000000",
      "reserved": "",
      "salt": "0xe713637d459d03e60e77b40bc89222d714c535fd6c91931a0d582e0b774a0227",
      "assetIds": []
    },
    {
      "x": 124,
      "y": 315,
      "size": 1,
      "price": "1011000000000000000000",
      "reserved": "0x7a9fe22691c811ea339d9b73150e6911a5343dca",
      "salt": "0xc179b817105ae96ab6f56b003f71fd612269aec9a7da984e1dd6d2257d6f902d",
      "assetIds": []
    },
    {
      "x": 124,
      "y": 316,
      "size": 1,
      "price": "1011000000000000000000",
      "reserved": "",
      "salt": "0x5d6ade12d616c41d4df88438901e18711d1e59d9c820ec530bf42d60e18b1119",
      "assetIds": []
    },
    {
      "x": 124,
      "y": 317,
      "size": 1,
      "price": "1011000000000000000000",
      "reserved": "0x7a9fe22691c811ea339d9b73150e6911a5343dca",
      "salt": "0x4623b83947693b3e260b0acdbd767d93dd09cd9e4be546006be993cdb2722e8f",
      "assetIds": []
    },
    {
      "x": 124,
      "y": 321,
      "size": 1,
      "price": "1011000000000000000000",
      "reserved": "",
      "salt": "0x66b8921091e369d0c06bf4b58253dd072e636c6f32661af598112b118bb503bf",
      "assetIds": []
    },
    {
      "x": 124,
      "y": 322,
      "size": 1,
      "price": "1011000000000000000000",
      "reserved": "0x7a9fe22691c811ea339d9b73150e6911a5343dca",
      "salt": "0xa414ca2e01c38f608432776c253d76a85746519fb5213008a71502d53b9e13fa",
      "assetIds": []
    },
    {
      "x": 124,
      "y": 325,
      "size": 1,
      "price": "1011000000000000000000",
      "reserved": "0x7a9fe22691c811ea339d9b73150e6911a5343dca",
      "salt": "0xdb7d297d5a0bf9eae95f76b965a779d15445e7192244c8ae438aad907ab4f7ed",
      "assetIds": []
    },
    {
      "x": 124,
      "y": 327,
      "size": 1,
      "price": "1011000000000000000000",
      "reserved": "",
      "salt": "0xdf02b9d8b3a28ab07919264659bc7beaede4ec6738d608b9301d5b9406d11376",
      "assetIds": []
    },
    {
      "x": 124,
      "y": 329,
      "size": 1,
      "price": "1011000000000000000000",
      "reserved": "",
      "salt": "0xcd85b37fe8f2c90ed6fc5a2479777ca56b9a60c8e22b903fc62fbbf02ba4f6c2",
      "assetIds": []
    },
    {
      "x": 125,
      "y": 297,
      "size": 1,
      "price": "4683000000000000000000",
      "reserved": "",
      "salt": "0xda30fd2d3c6b3c1912102d093dda6627abeba95fc193f9921fcd1ca6b3fb1104",
      "assetIds": [
        "24861897353025848750348717390502043067474471703165550026",
        "24862271497445005461495777533819218435927503621896551882",
        "24862645641864162172642837677136393804380535540627553738",
        "24863019786283318883789897820453569172833567459358555594",
        "24863393930702475594936957963770744541286599378089557450",
        "24863768075121632306084018107087919909739631296820559306",
        "24864142219540789017231078250405095278192663215551561162"
      ]
    },
    {
      "x": 125,
      "y": 299,
      "size": 1,
      "price": "1011000000000000000000",
      "reserved": "0x7a9fe22691c811ea339d9b73150e6911a5343dca",
      "salt": "0x2f33ea4fdf036e3968f31aeab738c3a3ecb401e266c2c536917aa0faea3b2ef7",
      "assetIds": []
    },
    {
      "x": 125,
      "y": 312,
      "size": 1,
      "price": "4683000000000000000000",
      "reserved": "",
      "salt": "0x7e95471ba3ae9614bf01e488919b200b7bec4166008d71bf6fe4dab7b52e5b1e",
      "assetIds": [
        "24861897353025848750348717390502043067474471703165550026",
        "24862271497445005461495777533819218435927503621896551882",
        "24862645641864162172642837677136393804380535540627553738",
        "24863019786283318883789897820453569172833567459358555594",
        "24863393930702475594936957963770744541286599378089557450",
        "24863768075121632306084018107087919909739631296820559306",
        "24864142219540789017231078250405095278192663215551561162"
      ]
    },
    {
      "x": 125,
      "y": 314,
      "size": 1,
      "price": "1011000000000000000000",
      "reserved": "",
      "salt": "0xbfc55696aa8f5416921bcd4b1cc91d62194afa4cc486874ee95b2d7b85555f76",
      "assetIds": []
    },
    {
      "x": 125,
      "y": 315,
      "size": 1,
      "price": "1011000000000000000000",
      "reserved": "",
      "salt": "0xb4df671c5231b7c0c228b83168cda1135c6ae5fb58e2b537cb7ebe5e245c790d",
      "assetIds": []
    },
    {
      "x": 125,
      "y": 316,
      "size": 1,
      "price": "1011000000000000000000",
      "reserved": "",
      "salt": "0xb05e945ebee52176b0175667192c6cf4af0dc4e2d8f941c0aa4cd6a3c37e8330",
      "assetIds": []
    },
    {
      "x": 125,
      "y": 323,
      "size": 1,
      "price": "1011000000000000000000",
      "reserved": "",
      "salt": "0xd759cb0111d269759b3b3d7c607840842b698f05ed0675e6d20a9ee8438529a6",
      "assetIds": []
    },
    {
      "x": 125,
      "y": 324,
      "size": 1,
      "price": "1011000000000000000000",
      "reserved": "",
      "salt": "0x1f355f14596ac121a5729eec1ddec802d1a23b18c7e8e7da60659fe31ea7d478",
      "assetIds": []
    },
    {
      "x": 125,
      "y": 326,
      "size": 1,
      "price": "1011000000000000000000",
      "reserved": "",
      "salt": "0xd690db06630b24cef9d06c53d2eb1b4d899d4a12d2affb151f8f8a407eb7eacc",
      "assetIds": []
    },
    {
      "x": 125,
      "y": 327,
      "size": 1,
      "price": "1011000000000000000000",
      "reserved": "0x7a9fe22691c811ea339d9b73150e6911a5343dca",
      "salt": "0xd84ffa50bb455acb764d6f9adb182f4fdb2c447ead68a84bfe2918994f38381c",
      "assetIds": []
    },
    {
      "x": 125,
      "y": 328,
      "size": 1,
      "price": "1011000000000000000000",
      "reserved": "0x7a9fe22691c811ea339d9b73150e6911a5343dca",
      "salt": "0x32f04a6716beedb61b955240d5af0ff982e71182179e61a160d69b6db1120bcf",
      "assetIds": []
    },
    {
      "x": 126,
      "y": 294,
      "size": 1,
      "price": "1011000000000000000000",
      "reserved": "",
      "salt": "0xb1ff6a282ca519f8c8008f87931b4999df7065fa60a014955ac3a63ed12e6e97",
      "assetIds": []
    },
    {
      "x": 126,
      "y": 295,
      "size": 1,
      "price": "4683000000000000000000",
      "reserved": "",
      "salt": "0x374079fe72512bda2362d8d1a6e83cb6cd850b8cd1f60aebec548116d0420949",
      "assetIds": [
        "24861897353025848750348717390502043067474471703165550026",
        "24862271497445005461495777533819218435927503621896551882",
        "24862645641864162172642837677136393804380535540627553738",
        "24863019786283318883789897820453569172833567459358555594",
        "24863393930702475594936957963770744541286599378089557450",
        "24863768075121632306084018107087919909739631296820559306",
        "24864142219540789017231078250405095278192663215551561162"
      ]
    },
    {
      "x": 126,
      "y": 297,
      "size": 1,
      "price": "1011000000000000000000",
      "reserved": "",
      "salt": "0xf81c02d1b47af7255f2b2f947877ae8f8c6fd710a4c351a8cd20a3e5029af06b",
      "assetIds": []
    },
    {
      "x": 126,
      "y": 298,
      "size": 1,
      "price": "1011000000000000000000",
      "reserved": "",
      "salt": "0x140aa72d6d9c022e2a9ec6c3a73734060ad7a9cb0160afa4edce197e05117410",
      "assetIds": []
    },
    {
      "x": 126,
      "y": 299,
      "size": 1,
      "price": "4683000000000000000000",
      "reserved": "",
      "salt": "0x56ebda75237208a4ae4a3adcc187cd2dae930858be432f618c1ed8f02b15310b",
      "assetIds": [
        "24861897353025848750348717390502043067474471703165550026",
        "24862271497445005461495777533819218435927503621896551882",
        "24862645641864162172642837677136393804380535540627553738",
        "24863019786283318883789897820453569172833567459358555594",
        "24863393930702475594936957963770744541286599378089557450",
        "24863768075121632306084018107087919909739631296820559306",
        "24864142219540789017231078250405095278192663215551561162"
      ]
    },
    {
      "x": 126,
      "y": 313,
      "size": 1,
      "price": "1011000000000000000000",
      "reserved": "",
      "salt": "0xdb2c999cf0941c74c57bfc5724fc6f028fd3f2483c0aa0a2d29c905028abd2ce",
      "assetIds": []
    },
    {
      "x": 126,
      "y": 314,
      "size": 1,
      "price": "1011000000000000000000",
      "reserved": "0x7a9fe22691c811ea339d9b73150e6911a5343dca",
      "salt": "0x26b2a55eec64685e78c55b892dd11f713caf940e9c4696dc7e5095a44910630f",
      "assetIds": []
    },
    {
      "x": 126,
      "y": 318,
      "size": 1,
      "price": "4683000000000000000000",
      "reserved": "",
      "salt": "0x8c745ff667c23130857a0558b3e9d32fb46b061281dd9d7c19b7d5a36aeda75a",
      "assetIds": [
        "24861897353025848750348717390502043067474471703165550026",
        "24862271497445005461495777533819218435927503621896551882",
        "24862645641864162172642837677136393804380535540627553738",
        "24863019786283318883789897820453569172833567459358555594",
        "24863393930702475594936957963770744541286599378089557450",
        "24863768075121632306084018107087919909739631296820559306",
        "24864142219540789017231078250405095278192663215551561162"
      ]
    },
    {
      "x": 126,
      "y": 320,
      "size": 1,
      "price": "4683000000000000000000",
      "reserved": "",
      "salt": "0x66300b5219cc3d781e2a07d2b0783b944c0ac56f0732442330f121eb8d358b4c",
      "assetIds": [
        "24861897353025848750348717390502043067474471703165550026",
        "24862271497445005461495777533819218435927503621896551882",
        "24862645641864162172642837677136393804380535540627553738",
        "24863019786283318883789897820453569172833567459358555594",
        "24863393930702475594936957963770744541286599378089557450",
        "24863768075121632306084018107087919909739631296820559306",
        "24864142219540789017231078250405095278192663215551561162"
      ]
    },
    {
      "x": 126,
      "y": 322,
      "size": 1,
      "price": "1011000000000000000000",
      "reserved": "",
      "salt": "0xe521d52b6c9f2b67f49e4d0c40a20980a836ccf0a31c7a9c8498a5cda155095b",
      "assetIds": []
    },
    {
      "x": 126,
      "y": 327,
      "size": 1,
      "price": "1011000000000000000000",
      "reserved": "",
      "salt": "0xac091f20e586818abf4cf29e424888c719ac86b2bde721d146646b091b55af3a",
      "assetIds": []
    },
    {
      "x": 126,
      "y": 329,
      "size": 1,
      "price": "1011000000000000000000",
      "reserved": "0x7a9fe22691c811ea339d9b73150e6911a5343dca",
      "salt": "0xd89475a2ff173455f78e9b88c99c440e92c9d8d23cb205eef3e8a95769e73190",
      "assetIds": []
    },
    {
      "x": 127,
      "y": 294,
      "size": 1,
      "price": "1011000000000000000000",
      "reserved": "",
      "salt": "0xe6909c323a7b084b169831b283ae50e7b2fe01f0ccf9173cb846a9fb99784de4",
      "assetIds": []
    },
    {
      "x": 127,
      "y": 296,
      "size": 1,
      "price": "1011000000000000000000",
      "reserved": "",
      "salt": "0x6cd4bf8e03dae9d917db7e418e08f61697507fe287f94417ebcbe7887cc0d04b",
      "assetIds": []
    },
    {
      "x": 127,
      "y": 298,
      "size": 1,
      "price": "1011000000000000000000",
      "reserved": "",
      "salt": "0x909d9215f8e44243bf2d767812274354ea4d6a884a1c23d505848393a706b484",
      "assetIds": []
    },
    {
      "x": 127,
      "y": 299,
      "size": 1,
      "price": "4683000000000000000000",
      "reserved": "",
      "salt": "0x8de09e7d0878181dedcd8ede3c8af756fdf98f535b1f1c388ef6ad93ace88812",
      "assetIds": [
        "24861897353025848750348717390502043067474471703165550026",
        "24862271497445005461495777533819218435927503621896551882",
        "24862645641864162172642837677136393804380535540627553738",
        "24863019786283318883789897820453569172833567459358555594",
        "24863393930702475594936957963770744541286599378089557450",
        "24863768075121632306084018107087919909739631296820559306",
        "24864142219540789017231078250405095278192663215551561162"
      ]
    },
    {
      "x": 127,
      "y": 312,
      "size": 1,
      "price": "4683000000000000000000",
      "reserved": "",
      "salt": "0x7bf00e997dbd22d84908ed499e197cda13bec0c8831fd18e14d786931959da4b",
      "assetIds": [
        "24861897353025848750348717390502043067474471703165550026",
        "24862271497445005461495777533819218435927503621896551882",
        "24862645641864162172642837677136393804380535540627553738",
        "24863019786283318883789897820453569172833567459358555594",
        "24863393930702475594936957963770744541286599378089557450",
        "24863768075121632306084018107087919909739631296820559306",
        "24864142219540789017231078250405095278192663215551561162"
      ]
    },
    {
      "x": 127,
      "y": 314,
      "size": 1,
      "price": "1011000000000000000000",
      "reserved": "",
      "salt": "0x347dab3ad60f8d8776a0cd7a21d969897a69b5605b3496bd63575b01dc718124",
      "assetIds": []
    },
    {
      "x": 127,
      "y": 318,
      "size": 1,
      "price": "1011000000000000000000",
      "reserved": "",
      "salt": "0x9fbe718fdc1331cd281f0939954630fc6789157db1383bb97317c6d9920593a9",
      "assetIds": []
    },
    {
      "x": 127,
      "y": 319,
      "size": 1,
      "price": "1011000000000000000000",
      "reserved": "0x7a9fe22691c811ea339d9b73150e6911a5343dca",
      "salt": "0xe802826d92991132a7a581da3f2f338942ab6130f09a0100e04b7a3600371ae7",
      "assetIds": []
    },
    {
      "x": 127,
      "y": 320,
      "size": 1,
      "price": "1011000000000000000000",
      "reserved": "",
      "salt": "0x322d1fe59a05e51738c214cd2215d109cb51a2679a2d305fcd3f94c82bb138b5",
      "assetIds": []
    },
    {
      "x": 127,
      "y": 321,
      "size": 1,
      "price": "1011000000000000000000",
      "reserved": "",
      "salt": "0xbd891dcc60fbd573db7db38cefdce194487b8135cdeb5011dc3809903120e51d",
      "assetIds": []
    },
    {
      "x": 127,
      "y": 322,
      "size": 1,
      "price": "1011000000000000000000",
      "reserved": "",
      "salt": "0x991a50336f75cf2621d6fa6ba071eebee4bcc39d6065ffe24b893c4c8c7bc8f5",
      "assetIds": []
    },
    {
      "x": 127,
      "y": 323,
      "size": 1,
      "price": "1011000000000000000000",
      "reserved": "0x7a9fe22691c811ea339d9b73150e6911a5343dca",
      "salt": "0xa8acdbd5ccfafd5247cb1608423e702318b4267bae6997665d980385e4969ad3",
      "assetIds": []
    },
    {
      "x": 127,
      "y": 328,
      "size": 1,
      "price": "1011000000000000000000",
      "reserved": "",
      "salt": "0x23f06227dc689a8622f2b351a8f6819476b714b2ea72251d17be2edf55bcb29c",
      "assetIds": []
    },
    {
      "x": 128,
      "y": 294,
      "size": 1,
      "price": "1011000000000000000000",
      "reserved": "0x7a9fe22691c811ea339d9b73150e6911a5343dca",
      "salt": "0xc784d9015e59edf7dbae686936830e8c40bb362de89e705beb96da0f00af0f05",
      "assetIds": []
    },
    {
      "x": 128,
      "y": 295,
      "size": 1,
      "price": "1011000000000000000000",
      "reserved": "",
      "salt": "0xaf3f84430666388ca2c21931b1f639117520f7749476652ebcab7a363bd7f548",
      "assetIds": []
    },
    {
      "x": 128,
      "y": 296,
      "size": 1,
      "price": "1011000000000000000000",
      "reserved": "",
      "salt": "0xd690f9dabca8fb7448f4a6c269fdec4e5effbfc4a401756af299e24f32bbd04d",
      "assetIds": []
    },
    {
      "x": 128,
      "y": 297,
      "size": 1,
      "price": "1011000000000000000000",
      "reserved": "",
      "salt": "0xa5f243292c17ac00fd8a2460502ce6784d742b395e7337863531985cacbc1dc6",
      "assetIds": []
    },
    {
      "x": 128,
      "y": 298,
      "size": 1,
      "price": "1011000000000000000000",
      "reserved": "0x7a9fe22691c811ea339d9b73150e6911a5343dca",
      "salt": "0x6918bf571b858985994f5ef5b3d0fd38f8fbb444498b8ab0913d952a5eb4a120",
      "assetIds": []
    },
    {
      "x": 128,
      "y": 299,
      "size": 1,
      "price": "4683000000000000000000",
      "reserved": "",
      "salt": "0x06744d3f6bf1a4b334d2c7d47217c3350f912dbf156cbc6481922b45de3c95eb",
      "assetIds": [
        "24861897353025848750348717390502043067474471703165550026",
        "24862271497445005461495777533819218435927503621896551882",
        "24862645641864162172642837677136393804380535540627553738",
        "24863019786283318883789897820453569172833567459358555594",
        "24863393930702475594936957963770744541286599378089557450",
        "24863768075121632306084018107087919909739631296820559306",
        "24864142219540789017231078250405095278192663215551561162"
      ]
    },
    {
      "x": 128,
      "y": 312,
      "size": 1,
      "price": "1011000000000000000000",
      "reserved": "0x7a9fe22691c811ea339d9b73150e6911a5343dca",
      "salt": "0x6583c04ba760483aae0233f65508b23f69d98c2372cc114d35e03c49b6a16320",
      "assetIds": []
    },
    {
      "x": 128,
      "y": 313,
      "size": 1,
      "price": "1011000000000000000000",
      "reserved": "",
      "salt": "0xeaa4ce96c97717be65034521467c8d22644ed4b33330cfa64e849a4e7a00ffee",
      "assetIds": []
    },
    {
      "x": 128,
      "y": 314,
      "size": 1,
      "price": "1011000000000000000000",
      "reserved": "0x7a9fe22691c811ea339d9b73150e6911a5343dca",
      "salt": "0xebec21869f99cc4c0f5bcdda05151774e41b5f89ee0eb1fdfa947015d2e9a609",
      "assetIds": []
    },
    {
      "x": 128,
      "y": 318,
      "size": 1,
      "price": "1011000000000000000000",
      "reserved": "",
      "salt": "0x30f39fc664b8cee0fd2679e9fa8720f28f523d4fe3732613717c54e6c1b318ba",
      "assetIds": []
    },
    {
      "x": 128,
      "y": 319,
      "size": 1,
      "price": "1011000000000000000000",
      "reserved": "0x7a9fe22691c811ea339d9b73150e6911a5343dca",
      "salt": "0xa7cef4ae060afe37ceb1c5a90c70a987550c8e4c00af5e088935fd6fbb6246de",
      "assetIds": []
    },
    {
      "x": 128,
      "y": 321,
      "size": 1,
      "price": "1011000000000000000000",
      "reserved": "0x7a9fe22691c811ea339d9b73150e6911a5343dca",
      "salt": "0x348a31418e6b59fb7c8edeacfcf04a9675b11cd760f34cf231a7fae41a6c4617",
      "assetIds": []
    },
    {
      "x": 128,
      "y": 322,
      "size": 1,
      "price": "1011000000000000000000",
      "reserved": "",
      "salt": "0x4333b6224901879f53b24c9508799b4613d8fbf7268647b0fc39db86c4048b67",
      "assetIds": []
    },
    {
      "x": 128,
      "y": 323,
      "size": 1,
      "price": "4683000000000000000000",
      "reserved": "",
      "salt": "0x6ab6828fb9113dca22edd62d21f1d13752d9580815cd72de8fc0dc6714af88cd",
      "assetIds": [
        "24861897353025848750348717390502043067474471703165550026",
        "24862271497445005461495777533819218435927503621896551882",
        "24862645641864162172642837677136393804380535540627553738",
        "24863019786283318883789897820453569172833567459358555594",
        "24863393930702475594936957963770744541286599378089557450",
        "24863768075121632306084018107087919909739631296820559306",
        "24864142219540789017231078250405095278192663215551561162"
      ]
    },
    {
      "x": 128,
      "y": 327,
      "size": 1,
      "price": "1011000000000000000000",
      "reserved": "",
      "salt": "0x676e3e4564e73fb8d6bad1e15a0775c21446bbf009ac095dc668be3a60b11cbd",
      "assetIds": []
    },
    {
      "x": 128,
      "y": 329,
      "size": 1,
      "price": "1011000000000000000000",
      "reserved": "",
      "salt": "0xe5d10225719aa54ffcedca8632a0b4af2fa8c41f8c3271416f56039dc4160c68",
      "assetIds": []
    },
    {
      "x": 129,
      "y": 297,
      "size": 1,
      "price": "1011000000000000000000",
      "reserved": "",
      "salt": "0xe7d89da4cd7d1b077c340f3e7eba9b7ae81ea46a5e2d709b5c9ca1881185dd06",
      "assetIds": []
    },
    {
      "x": 129,
      "y": 299,
      "size": 1,
      "price": "1011000000000000000000",
      "reserved": "",
      "salt": "0xed99ea216bf331d3cb8f17e52cbf367fd8464bd0cae1ca961fe456e802885064",
      "assetIds": []
    },
    {
      "x": 129,
      "y": 312,
      "size": 1,
      "price": "4683000000000000000000",
      "reserved": "",
      "salt": "0x9bb127a9ac49586185f3a0da877d58f35a64356660a62eef58b405e3cc6ba742",
      "assetIds": [
        "24861897353025848750348717390502043067474471703165550026",
        "24862271497445005461495777533819218435927503621896551882",
        "24862645641864162172642837677136393804380535540627553738",
        "24863019786283318883789897820453569172833567459358555594",
        "24863393930702475594936957963770744541286599378089557450",
        "24863768075121632306084018107087919909739631296820559306",
        "24864142219540789017231078250405095278192663215551561162"
      ]
    },
    {
      "x": 129,
      "y": 314,
      "size": 1,
      "price": "1011000000000000000000",
      "reserved": "",
      "salt": "0xf81aadda24f0890e68cbdf7e06fb4b95216838319737ed7fe7529d17166adde0",
      "assetIds": []
    },
    {
      "x": 129,
      "y": 315,
      "size": 1,
      "price": "1011000000000000000000",
      "reserved": "",
      "salt": "0x6bf6ffec4e14df115931db423fb579d64207c43de11272b7b929696e24a068b8",
      "assetIds": []
    },
    {
      "x": 129,
      "y": 316,
      "size": 1,
      "price": "1011000000000000000000",
      "reserved": "",
      "salt": "0xea808580aefe628da9eb9eda808813ffcdacf98d4e032b0c6460899bb790ecfd",
      "assetIds": []
    },
    {
      "x": 129,
      "y": 317,
      "size": 1,
      "price": "1011000000000000000000",
      "reserved": "",
      "salt": "0xb0db47a9503752972af9f607174d9b5ae1781099cf76b7d4aa2a70f0ebdaa6a3",
      "assetIds": []
    },
    {
      "x": 129,
      "y": 318,
      "size": 1,
      "price": "1011000000000000000000",
      "reserved": "0x7a9fe22691c811ea339d9b73150e6911a5343dca",
      "salt": "0x6f726ec9211eb71308f93c0cf664fc4ee0cac325431ec0927d7ef8c9213d786d",
      "assetIds": []
    },
    {
      "x": 129,
      "y": 320,
      "size": 1,
      "price": "1011000000000000000000",
      "reserved": "",
      "salt": "0x0ac8bca586dfcd036b41c4bbb89252341bda126ba3c85d6c696a143ce37fdd0e",
      "assetIds": []
    },
    {
      "x": 129,
      "y": 326,
      "size": 1,
      "price": "1011000000000000000000",
      "reserved": "",
      "salt": "0xe5474c4c99baec643726b6b83a81ce9ce4ec90e501ed4b4f122dccf9e1821f2c",
      "assetIds": []
    },
    {
      "x": 129,
      "y": 328,
      "size": 1,
      "price": "1011000000000000000000",
      "reserved": "0x7a9fe22691c811ea339d9b73150e6911a5343dca",
      "salt": "0x4a7ed3cc5732ce85b6a542c2118519bcdc026cb5ca161bb2489d7307324dd9ef",
      "assetIds": []
    },
    {
      "x": 130,
      "y": 297,
      "size": 1,
      "price": "1011000000000000000000",
      "reserved": "0x7a9fe22691c811ea339d9b73150e6911a5343dca",
      "salt": "0x4b0a4f3ea843fac38c3645f8ef792a081a1c0d53a186f3b1a8784bbcea0331fc",
      "assetIds": []
    },
    {
      "x": 130,
      "y": 298,
      "size": 1,
      "price": "1011000000000000000000",
      "reserved": "",
      "salt": "0x7cddcc0ec1d33b7a915a2c03df9172c533ecfce03305c6174f84e921f0eda75b",
      "assetIds": []
    },
    {
      "x": 130,
      "y": 299,
      "size": 1,
      "price": "4683000000000000000000",
      "reserved": "",
      "salt": "0x46f1822067735e61b4d0d7b5c8e29e5a4119427cc20357ee87c9ff4d0a225082",
      "assetIds": [
        "24861897353025848750348717390502043067474471703165550026",
        "24862271497445005461495777533819218435927503621896551882",
        "24862645641864162172642837677136393804380535540627553738",
        "24863019786283318883789897820453569172833567459358555594",
        "24863393930702475594936957963770744541286599378089557450",
        "24863768075121632306084018107087919909739631296820559306",
        "24864142219540789017231078250405095278192663215551561162"
      ]
    },
    {
      "x": 130,
      "y": 312,
      "size": 1,
      "price": "1011000000000000000000",
      "reserved": "",
      "salt": "0x0266c3ec07eb79f8a67ccf55ad308e8321e9632b6c70070895e600463dcc0930",
      "assetIds": []
    },
    {
      "x": 130,
      "y": 313,
      "size": 1,
      "price": "1011000000000000000000",
      "reserved": "",
      "salt": "0xf425913c2a2f3d9c2d75ff35ab70825d9b5c8c96feadd6c9e3c75c3b37f7d0f5",
      "assetIds": []
    },
    {
      "x": 130,
      "y": 315,
      "size": 1,
      "price": "1011000000000000000000",
      "reserved": "",
      "salt": "0x99b66bdd45fa1a75f2c04ba939deab91a27d4bfbcd3b74cea7e237bd7f2b7adb",
      "assetIds": []
    },
    {
      "x": 130,
      "y": 316,
      "size": 1,
      "price": "1011000000000000000000",
      "reserved": "0x7a9fe22691c811ea339d9b73150e6911a5343dca",
      "salt": "0x7de3eb194a13eccbd255fc35257f38ddc3462a61212cb882b5e10a418a906399",
      "assetIds": []
    },
    {
      "x": 130,
      "y": 317,
      "size": 1,
      "price": "1011000000000000000000",
      "reserved": "0x7a9fe22691c811ea339d9b73150e6911a5343dca",
      "salt": "0x788b527a116ad8ed60f23d0faa9b542146227cf35bb6ae0abe62c78831355eeb",
      "assetIds": []
    },
    {
      "x": 130,
      "y": 319,
      "size": 1,
      "price": "1011000000000000000000",
      "reserved": "",
      "salt": "0xa56b24eee45edce23038b36f4dc6f6fb33edc0889f72736c1fc10528826ed1a4",
      "assetIds": []
    },
    {
      "x": 130,
      "y": 320,
      "size": 1,
      "price": "1011000000000000000000",
      "reserved": "0x7a9fe22691c811ea339d9b73150e6911a5343dca",
      "salt": "0x756d0d39308230ca294fc21579e4d1e2fd335e404167b5e0b1cedf9babb83156",
      "assetIds": []
    },
    {
      "x": 130,
      "y": 324,
      "size": 1,
      "price": "1011000000000000000000",
      "reserved": "",
      "salt": "0xc79c8bbc1927926928f8a5e7a5d9f4f21b3e40bf4ceef40b90ae84c7f4219b7d",
      "assetIds": []
    },
    {
      "x": 130,
      "y": 325,
      "size": 1,
      "price": "1011000000000000000000",
      "reserved": "0x7a9fe22691c811ea339d9b73150e6911a5343dca",
      "salt": "0x5821cc6e4660f47bf6532dd1db5f203c27e8c42876a98328a4557ffc1bb7e30a",
      "assetIds": []
    },
    {
      "x": 130,
      "y": 326,
      "size": 1,
      "price": "1011000000000000000000",
      "reserved": "0x7a9fe22691c811ea339d9b73150e6911a5343dca",
      "salt": "0xcdfca060baf36a0b92a292cbb8a181661774a52abcb4258baa4cf3c40b27f111",
      "assetIds": []
    },
    {
      "x": 130,
      "y": 327,
      "size": 1,
      "price": "1011000000000000000000",
      "reserved": "",
      "salt": "0x294fed2293f079a44f86b7577067203db8536beaa48d6f0539ced0e342e7e190",
      "assetIds": []
    },
    {
      "x": 130,
      "y": 328,
      "size": 1,
      "price": "1011000000000000000000",
      "reserved": "",
      "salt": "0x3a35c60ccde2ab0137f0fbcf2bfdac056e3d946a534ac20db37f10884ae33c49",
      "assetIds": []
    },
    {
      "x": 130,
      "y": 329,
      "size": 1,
      "price": "1011000000000000000000",
      "reserved": "0x7a9fe22691c811ea339d9b73150e6911a5343dca",
      "salt": "0x620b6c23d55777dc72bf4ae2550e2f9d703a0c1d6a10bca2315f37b571991231",
      "assetIds": []
    },
    {
      "x": 131,
      "y": 298,
      "size": 1,
      "price": "1011000000000000000000",
      "reserved": "0x7a9fe22691c811ea339d9b73150e6911a5343dca",
      "salt": "0x8ffade02ced7d5a8ff119d86cb6abdfc42e1c1f4a5168c97d8d7dcfb0c68cae4",
      "assetIds": []
    },
    {
      "x": 131,
      "y": 299,
      "size": 1,
      "price": "1011000000000000000000",
      "reserved": "0x7a9fe22691c811ea339d9b73150e6911a5343dca",
      "salt": "0x4f8e94df3347239b013a2b0c42a113d71dfec6481935de827bdd4ac477ef6b36",
      "assetIds": []
    },
    {
      "x": 131,
      "y": 312,
      "size": 1,
      "price": "4683000000000000000000",
      "reserved": "",
      "salt": "0x63131102be14c81491b5529e299edf755eec6399e497932a6e5645a72a226045",
      "assetIds": [
        "24861897353025848750348717390502043067474471703165550026",
        "24862271497445005461495777533819218435927503621896551882",
        "24862645641864162172642837677136393804380535540627553738",
        "24863019786283318883789897820453569172833567459358555594",
        "24863393930702475594936957963770744541286599378089557450",
        "24863768075121632306084018107087919909739631296820559306",
        "24864142219540789017231078250405095278192663215551561162"
      ]
    },
    {
      "x": 131,
      "y": 314,
      "size": 1,
      "price": "1011000000000000000000",
      "reserved": "",
      "salt": "0x873220921266a579aca8a7c1c235b825b1e7b3c230c77f06a2b0b25bba1e4063",
      "assetIds": []
    },
    {
      "x": 131,
      "y": 317,
      "size": 1,
      "price": "1011000000000000000000",
      "reserved": "",
      "salt": "0xc9bcfebbd3735c364d826c7d4a815f61e083108b6640bac0e0cb3eda553eede6",
      "assetIds": []
    },
    {
      "x": 131,
      "y": 318,
      "size": 1,
      "price": "1011000000000000000000",
      "reserved": "",
      "salt": "0xced66db7eebe125390b2ae647c888f2ed4a910c5e7d6d3f97c1757d9103776d6",
      "assetIds": []
    },
    {
      "x": 131,
      "y": 320,
      "size": 1,
      "price": "4683000000000000000000",
      "reserved": "",
      "salt": "0x101cdaaf034b69216ef33e6c4bdb4136323c06e4c9b12d7f39140998beca759f",
      "assetIds": [
        "24861897353025848750348717390502043067474471703165550026",
        "24862271497445005461495777533819218435927503621896551882",
        "24862645641864162172642837677136393804380535540627553738",
        "24863019786283318883789897820453569172833567459358555594",
        "24863393930702475594936957963770744541286599378089557450",
        "24863768075121632306084018107087919909739631296820559306",
        "24864142219540789017231078250405095278192663215551561162"
      ]
    },
    {
      "x": 131,
      "y": 326,
      "size": 1,
      "price": "1011000000000000000000",
      "reserved": "0x7a9fe22691c811ea339d9b73150e6911a5343dca",
      "salt": "0x5dbca042cd9d90e88961cd0b2d4dc01662ea6c46c94331d32ad4de0141d52714",
      "assetIds": []
    },
    {
      "x": 131,
      "y": 328,
      "size": 1,
      "price": "1011000000000000000000",
      "reserved": "",
      "salt": "0x9f9d4f035b257e689fc8ceebad59cb6b9d581b9ba333740f8daae201c0b574f1",
      "assetIds": []
    },
    {
      "x": 131,
      "y": 329,
      "size": 1,
      "price": "1011000000000000000000",
      "reserved": "",
      "salt": "0x96dadbc804a857a4c1d9b900dd4382fe8a34628db58f0954408768beeb57df00",
      "assetIds": []
    },
    {
      "x": 132,
      "y": 309,
      "size": 1,
      "price": "1011000000000000000000",
      "reserved": "",
      "salt": "0xb8150feee862631a2094dad50b473bf408011255b1a5b1445745b44f52750ba8",
      "assetIds": []
    },
    {
      "x": 132,
      "y": 318,
      "size": 1,
      "price": "1011000000000000000000",
      "reserved": "0x7a9fe22691c811ea339d9b73150e6911a5343dca",
      "salt": "0x02f76bd287d988d5f5d2303493ed86b9ad683ecf7b84909509cdb3afda6f855e",
      "assetIds": []
    },
    {
      "x": 132,
      "y": 320,
      "size": 1,
      "price": "1011000000000000000000",
      "reserved": "",
      "salt": "0x75bfebe45887c2a607532396e32acb72bced208147cdd87028284ac7624835af",
      "assetIds": []
    },
    {
      "x": 133,
      "y": 309,
      "size": 1,
      "price": "1011000000000000000000",
      "reserved": "0x7a9fe22691c811ea339d9b73150e6911a5343dca",
      "salt": "0x20beb77519fb28cfad914d9c288d432676192a2af514867b150ae53bb11c40ce",
      "assetIds": []
    },
    {
      "x": 133,
      "y": 311,
      "size": 1,
      "price": "1011000000000000000000",
      "reserved": "0x7a9fe22691c811ea339d9b73150e6911a5343dca",
      "salt": "0x657553cf75c5a91bc8b5ae3ae64e0b5ee70009457de6c732d14e38622e515e0f",
      "assetIds": []
    },
    {
      "x": 133,
      "y": 319,
      "size": 1,
      "price": "1011000000000000000000",
      "reserved": "",
      "salt": "0xa70f94743c43f9a1651e47ff7636825f4a7603e1cd7e73d511b63f98fbe91af9",
      "assetIds": []
    },
    {
      "x": 134,
      "y": 308,
      "size": 1,
      "price": "1011000000000000000000",
      "reserved": "",
      "salt": "0x84e9bde51da0a834b2545cd65e3327773b037f71eeda150de8a814ca4e954bd4",
      "assetIds": []
    },
    {
      "x": 134,
      "y": 309,
      "size": 1,
      "price": "4683000000000000000000",
      "reserved": "",
      "salt": "0x6a095915cbed51f0f341ae87834ae116bf35430af54aef1310320c99dea9a05d",
      "assetIds": [
        "24861897353025848750348717390502043067474471703165550026",
        "24862271497445005461495777533819218435927503621896551882",
        "24862645641864162172642837677136393804380535540627553738",
        "24863019786283318883789897820453569172833567459358555594",
        "24863393930702475594936957963770744541286599378089557450",
        "24863768075121632306084018107087919909739631296820559306",
        "24864142219540789017231078250405095278192663215551561162"
      ]
    },
    {
      "x": 134,
      "y": 310,
      "size": 1,
      "price": "4683000000000000000000",
      "reserved": "",
      "salt": "0x69eecdade5f7696bf1aefeabd27f7523845b87a4b85a8b5d33c99c52fa806054",
      "assetIds": [
        "24861897353025848750348717390502043067474471703165550026",
        "24862271497445005461495777533819218435927503621896551882",
        "24862645641864162172642837677136393804380535540627553738",
        "24863019786283318883789897820453569172833567459358555594",
        "24863393930702475594936957963770744541286599378089557450",
        "24863768075121632306084018107087919909739631296820559306",
        "24864142219540789017231078250405095278192663215551561162"
      ]
    },
    {
      "x": 134,
      "y": 311,
      "size": 1,
      "price": "4683000000000000000000",
      "reserved": "",
      "salt": "0x27901b4968941c22c18e69486aa3572131491612f747da81517df06235717883",
      "assetIds": [
        "24861897353025848750348717390502043067474471703165550026",
        "24862271497445005461495777533819218435927503621896551882",
        "24862645641864162172642837677136393804380535540627553738",
        "24863019786283318883789897820453569172833567459358555594",
        "24863393930702475594936957963770744541286599378089557450",
        "24863768075121632306084018107087919909739631296820559306",
        "24864142219540789017231078250405095278192663215551561162"
      ]
    },
    {
      "x": 134,
      "y": 318,
      "size": 1,
      "price": "1011000000000000000000",
      "reserved": "0x7a9fe22691c811ea339d9b73150e6911a5343dca",
      "salt": "0x9946704c570c4a9b7ecf2f76538e5f2c7330fce70996fbf9323829ee31921f68",
      "assetIds": []
    },
    {
      "x": 134,
      "y": 320,
      "size": 1,
      "price": "1011000000000000000000",
      "reserved": "0x7a9fe22691c811ea339d9b73150e6911a5343dca",
      "salt": "0x9587b296ff6a4cbc5f336886ff66ba6b9700cba83377eb13c191a04268381366",
      "assetIds": []
    },
    {
      "x": 135,
      "y": 319,
      "size": 1,
      "price": "1011000000000000000000",
      "reserved": "",
      "salt": "0xd66d0a548ffdfb0fdbe8a44a908c57a59903fcf8f4e8a8499b2b5ce6603c2ad4",
      "assetIds": []
    },
    {
      "x": 136,
      "y": 318,
      "size": 1,
      "price": "1011000000000000000000",
      "reserved": "0x7a9fe22691c811ea339d9b73150e6911a5343dca",
      "salt": "0xeb2171cc5f7de0cdfc50782440690604d62b9252e652a7911c7129d8ea39a2c6",
      "assetIds": []
    },
    {
      "x": 136,
      "y": 320,
      "size": 1,
      "price": "1011000000000000000000",
      "reserved": "",
      "salt": "0x2cd5313741df558e16657ee655f93a11b4ec0a2c003263ae6dd4bb5acdf3ec7b",
      "assetIds": []
    },
    {
      "x": 137,
      "y": 319,
      "size": 1,
      "price": "1011000000000000000000",
      "reserved": "0x7a9fe22691c811ea339d9b73150e6911a5343dca",
      "salt": "0xb1a8da720615981a6f04193b1bcf9a2ce686e7bd4ac88d267ce1a5479dfaafc4",
      "assetIds": []
    }
  ],
  "solcInputHash": "8858f9e6ab4f09df358810b0137a379b",
  "bytecode": "0x6101606040523480156200001257600080fd5b50604051620031e9380380620031e983398181016040526101a08110156200003957600080fd5b508051602082015160408301516060840151608085015160a086015160c087015160e08801516101008901516101208a01516101408b01516101608c0151610180909c015160016000559a9b999a9899979896979596949593949293919290919085856001600160a01b038216620000f8576040805162461bcd60e51b815260206004820152601f60248201527f526566657272616c56616c696461746f723a207a65726f206164647265737300604482015290519081900360640190fd5b600380546001600160a01b0319166001600160a01b0393841617905560045562000130908e1662000459602090811b62002adc17901c565b6200016d5760405162461bcd60e51b8152600401808060200182810382526025815260200180620031c46025913960400191505060405180910390fd5b6200018c8c6001600160a01b03166200045960201b62002adc1760201c565b620001c95760405162461bcd60e51b8152600401808060200182810382526025815260200180620031c46025913960400191505060405180910390fd5b6001600160a01b038b1662000214576040805162461bcd60e51b815260206004820181905260248201526000805160206200317f833981519152604482015290519081900360640190fd5b6001600160a01b038a166200025f576040805162461bcd60e51b815260206004820181905260248201526000805160206200317f833981519152604482015290519081900360640190fd5b6001600160a01b038916620002aa576040805162461bcd60e51b815260206004820181905260248201526000805160206200317f833981519152604482015290519081900360640190fd5b620002c9836001600160a01b03166200045960201b62002adc1760201c565b620003065760405162461bcd60e51b8152600401808060200182810382526025815260200180620031c46025913960400191505060405180910390fd5b6001600160a01b03821662000351576040805162461bcd60e51b815260206004820181905260248201526000805160206200317f833981519152604482015290519081900360640190fd5b62000370816001600160a01b03166200045960201b62002adc1760201c565b620003ad5760405162461bcd60e51b8152600401808060200182810382526025815260200180620031c46025913960400191505060405180910390fd5b6001600160601b031960608e811b821660a0528d901b1660c052620003dd8b60016001600160e01b036200045f16565b600680546001600160a01b039a8b166001600160a01b031991821617909155610140989098526101209690965260018054998916998816999099179098556001600160601b0319606092831b811660e05290821b811660805296901b909516610100525060078054919093169116179055506200050a92505050565b3b151590565b6001600160a01b038216620004a65760405162461bcd60e51b81526004018080602001828103825260258152602001806200319f6025913960400191505060405180910390fd5b6001600160a01b038216600081815260026020908152604091829020805460ff191685151590811790915582519384529083015280517fb21eb88b4e33b3f1281830a7178d74d8aa73220416215726b68ae23d539515cb9281900390910190a15050565b60805160601c60a05160601c60c05160601c60e05160601c6101005160601c6101205161014051612bef6200059060003980610be0528061247e525080610bbc528061159d5250806124fc525080611af25280611c4f525080611aa85280611e4e52806124d9525080611b235280611c205250806111075280611f3a5250612bef6000f3fe608060405234801561001057600080fd5b50600436106101365760003560e01c8063984d6252116100b2578063c10a420811610081578063dc5074af11610066578063dc5074af146108a0578063e56f8a9e146108c6578063f23a6e61146108e357610136565b8063c10a4208146107c1578063caed35001461089857610136565b8063984d62521461055f578063ab1cc78c14610631578063b522ecff14610639578063bc197c811461065f57610136565b806365194ce71161010957806378e6e5b9116100ee57806378e6e5b9146104e55780638a04af6a1461050b5780638f2839701461053957610136565b806365194ce7146103635780636e9960c3146104c157610136565b80631187fd3c1461013b57806325cb5bc01461031b578063495906571461033557806358bc29441461033d575b600080fd5b610319600480360361012081101561015257600080fd5b6001600160a01b038235811692602081013582169260408201359092169181019060808101606082013564010000000081111561018e57600080fd5b8201836020820111156101a057600080fd5b803590602001918460208302840111640100000000831117156101c257600080fd5b919390928235926040810190602001356401000000008111156101e457600080fd5b8201836020820111156101f657600080fd5b8035906020019184602083028401116401000000008311171561021857600080fd5b91939092909160208101903564010000000081111561023657600080fd5b82018360208201111561024857600080fd5b8035906020019184602083028401116401000000008311171561026a57600080fd5b91939092909160208101903564010000000081111561028857600080fd5b82018360208201111561029a57600080fd5b803590602001918460018302840111640100000000831117156102bc57600080fd5b9193909290916020810190356401000000008111156102da57600080fd5b8201836020820111156102ec57600080fd5b8035906020019184600183028401116401000000008311171561030e57600080fd5b509092509050610978565b005b610323610bba565b60408051918252519081900360200190f35b610323610bde565b6103196004803603602081101561035357600080fd5b50356001600160a01b0316610c02565b6104096004803603602081101561037957600080fd5b81019060208101813564010000000081111561039457600080fd5b8201836020820111156103a657600080fd5b803590602001918460018302840111640100000000831117156103c857600080fd5b91908080601f016020809104026020016040519081016040528093929190818152602001838380828437600092019190915250929550610d2e945050505050565b6040518080602001866001600160a01b03166001600160a01b03168152602001856001600160a01b03166001600160a01b03168152602001848152602001838152602001828103825287818151815260200191508051906020019080838360005b8381101561048257818101518382015260200161046a565b50505050905090810190601f1680156104af5780820380516001836020036101000a031916815260200191505b50965050505050505060405180910390f35b6104c9610e33565b604080516001600160a01b039092168252519081900360200190f35b610319600480360360208110156104fb57600080fd5b50356001600160a01b0316610e42565b6103196004803603604081101561052157600080fd5b506001600160a01b0381351690602001351515610f00565b6103196004803603602081101561054f57600080fd5b50356001600160a01b0316610f6d565b6103196004803603606081101561057557600080fd5b6001600160a01b0382351691908101906040810160208201356401000000008111156105a057600080fd5b8201836020820111156105b257600080fd5b803590602001918460208302840111640100000000831117156105d457600080fd5b9193909290916020810190356401000000008111156105f257600080fd5b82018360208201111561060457600080fd5b8035906020019184602083028401116401000000008311171561062657600080fd5b5090925090506110a6565b610323611231565b6103196004803603602081101561064f57600080fd5b50356001600160a01b0316611237565b61078c600480360360a081101561067557600080fd5b6001600160a01b0382358116926020810135909116918101906060810160408201356401000000008111156106a957600080fd5b8201836020820111156106bb57600080fd5b803590602001918460208302840111640100000000831117156106dd57600080fd5b9193909290916020810190356401000000008111156106fb57600080fd5b82018360208201111561070d57600080fd5b8035906020019184602083028401116401000000008311171561072f57600080fd5b91939092909160208101903564010000000081111561074d57600080fd5b82018360208201111561075f57600080fd5b8035906020019184600183028401116401000000008311171561078157600080fd5b509092509050611348565b604080517fffffffff000000000000000000000000000000000000000000000000000000009092168252519081900360200190f35b610884600480360360a08110156107d757600080fd5b8101906020810181356401000000008111156107f257600080fd5b82018360208201111561080457600080fd5b8035906020019184600183028401116401000000008311171561082657600080fd5b91908080601f016020809104026020016040519081016040528093929190818152602001838380828437600092019190915250929550506001600160a01b038335811694506020840135169260408101359250606001359050611375565b604080519115158252519081900360200190f35b6104c96114b1565b610884600480360360208110156108b657600080fd5b50356001600160a01b03166114c0565b610319600480360360208110156108dc57600080fd5b50356114de565b61078c600480360360a08110156108f957600080fd5b6001600160a01b03823581169260208101359091169160408201359160608101359181019060a08101608082013564010000000081111561093957600080fd5b82018360208201111561094b57600080fd5b8035906020019184600183028401116401000000008311171561096d57600080fd5b509092509050611570565b600260005414156109d0576040805162461bcd60e51b815260206004820152601f60248201527f5265656e7472616e637947756172643a207265656e7472616e742063616c6c00604482015290519081900360640190fd5b60026000556109df8e8d61159b565b610ad68d8d8d8d80806020026020016040519081016040528093929190818152602001838360200280828437600081840152601f19601f820116905080830192505050505050508c8c8c80806020026020016040519081016040528093929190818152602001838360200280828437600081840152601f19601f820116905080830192505050505050508b8b8080602002602001604051908101604052809392919081815260200183836020028082843760009201919091525050604080516020601f8d018190048102820181019092528b815292508b91508a90819084018382808284376000920191909152506116fe92505050565b610b2a8e8c8c6003818110610ae757fe5b9050602002013586868080601f016020809104026020016040519081016040528093929190818152602001838380828437600092019190915250611a8192505050565b610b688e8e8d8d80806020026020016040519081016040528093929190818152602001838360200280828437600092019190915250611ad292505050565b610ba58d898980806020026020016040519081016040528093929190818152602001838360200280828437600092019190915250611ec392505050565b50506001600055505050505050505050505050565b7f000000000000000000000000000000000000000000000000000000000000000090565b7f000000000000000000000000000000000000000000000000000000000000000090565b6001546001600160a01b03163314610c61576040805162461bcd60e51b815260206004820152601260248201527f6f6e6c792061646d696e20616c6c6f7765640000000000000000000000000000604482015290519081900360640190fd5b6001600160a01b038116610cbc576040805162461bcd60e51b815260206004820152601f60248201527f526566657272616c56616c696461746f723a207a65726f206164647265737300604482015290519081900360640190fd5b600380546001600160a01b03908116600090815260056020526040808220620d2f0042019055835473ffffffffffffffffffffffffffffffffffffffff1916928516928317909355915190917fbbb5fb2ee7e707ae0c968f63e94211ea81e66a718c34e2f810a7619e5678a21791a250565b606060008060008060606000806000808a80602001905160a0811015610d5357600080fd5b8101908080516040519392919084640100000000821115610d7357600080fd5b908301906020820185811115610d8857600080fd5b8251640100000000811182820188101715610da257600080fd5b82525081516020918201929091019080838360005b83811015610dcf578181015183820152602001610db7565b50505050905090810190601f168015610dfc5780820380516001836020036101000a031916815260200191505b5060409081526020820151908201516060830151608090930151959f50909d509b5099509197505050505050505091939590929450565b6001546001600160a01b031690565b6001546001600160a01b03163314610e8b5760405162461bcd60e51b8152600401808060200182810382526023815260200180612b056023913960400191505060405180910390fd5b6001600160a01b038116610ee6576040805162461bcd60e51b815260206004820152601f60248201527f526566657272616c56616c696461746f723a207a65726f206164647265737300604482015290519081900360640190fd5b6001600160a01b0316600090815260056020526040812055565b6001546001600160a01b03163314610f5f576040805162461bcd60e51b815260206004820152601260248201527f6f6e6c792061646d696e20616c6c6f7765640000000000000000000000000000604482015290519081900360640190fd5b610f698282612087565b5050565b6001546001600160a01b03163314610fcc576040805162461bcd60e51b815260206004820152601b60248201527f6f6e6c792061646d696e2063616e206368616e67652061646d696e0000000000604482015290519081900360640190fd5b6001546001600160a01b038281169116141561102f576040805162461bcd60e51b815260206004820152600d60248201527f616c72656164792061646d696e00000000000000000000000000000000000000604482015290519081900360640190fd5b600154604080516001600160a01b039283168152918316602083015280517f7e644d79422f17c01e4894b5f4f588d331ebfa28653d42ae832dc59e38c9798f9281900390910190a16001805473ffffffffffffffffffffffffffffffffffffffff19166001600160a01b0392909216919091179055565b6001546001600160a01b03163314611105576040805162461bcd60e51b815260206004820152600e60248201527f4e4f545f415554484f52495a4544000000000000000000000000000000000000604482015290519081900360640190fd5b7f00000000000000000000000000000000000000000000000000000000000000006001600160a01b0316632eb2c2d63087878787876040518763ffffffff1660e01b815260040180876001600160a01b03166001600160a01b03168152602001866001600160a01b03166001600160a01b031681526020018060200180602001806020018481038452888882818152602001925060200280828437600083820152601f01601f19169091018581038452868152602090810191508790870280828437600081840152601f19601f8201169050808301925050508481038252600081526020016020019950505050505050505050600060405180830381600087803b15801561121257600080fd5b505af1158015611226573d6000803e3d6000fd5b505050505050505050565b60045490565b6001600160a01b038116611292576040805162461bcd60e51b815260206004820152600c60248201527f5a45524f5f414444524553530000000000000000000000000000000000000000604482015290519081900360640190fd5b6001546001600160a01b031633146112f1576040805162461bcd60e51b815260206004820152600e60248201527f4e4f545f415554484f52495a4544000000000000000000000000000000000000604482015290519081900360640190fd5b6006805473ffffffffffffffffffffffffffffffffffffffff19166001600160a01b0383169081179091556040517f4d66958b757eb92a1b43d02be4c38c9500b73f532420ee3706cb43d420ba023690600090a250565b7fbc197c810000000000000000000000000000000000000000000000000000000098975050505050505050565b60006004548211806113985750836001600160a01b0316856001600160a01b0316145b806113a257508242115b156113af575060006114a8565b60408051606087811b7fffffffffffffffffffffffffffffffffffffffff0000000000000000000000009081166020808501919091529188901b166034830152604882018690526068808301869052835180840390910181526088830184528051908201207f19457468657265756d205369676e6564204d6573736167653a0a33320000000060a884015260c48084018290528451808503909101815260e49093019093528151910120600090611466908961214e565b6001600160a01b0381166000908152600560205260409020549091504211611493576001925050506114a8565b6003546001600160a01b039081169116149150505b95945050505050565b6003546001600160a01b031690565b6001600160a01b031660009081526002602052604090205460ff1690565b6001546001600160a01b0316331461153d576040805162461bcd60e51b815260206004820152601260248201527f6f6e6c792061646d696e20616c6c6f7765640000000000000000000000000000604482015290519081900360640190fd5b600481905560405181907f774069781371d65424b3b0b101c1d40014532cac040f979595b99a3fcf8ce08c90600090a250565b7ff23a6e61000000000000000000000000000000000000000000000000000000009695505050505050565b7f0000000000000000000000000000000000000000000000000000000000000000421061160f576040805162461bcd60e51b815260206004820152600c60248201527f53414c455f49535f4f5645520000000000000000000000000000000000000000604482015290519081900360640190fd5b6001600160a01b03821633148061163557503360009081526002602052604090205460ff165b611686576040805162461bcd60e51b815260206004820152600e60248201527f4e4f545f415554484f52495a4544000000000000000000000000000000000000604482015290519081900360640190fd5b6001600160a01b03811615806116ad5750816001600160a01b0316816001600160a01b0316145b610f69576040805162461bcd60e51b815260206004820152600d60248201527f52455345525645445f4c414e4400000000000000000000000000000000000000604482015290519081900360640190fd5b600087878760008151811061170f57fe5b60200260200101518860018151811061172457fe5b60200260200101518960028151811061173957fe5b60200260200101518a60038151811061174e57fe5b60200260200101518a8a60405160200180828051906020019060200280838360005b83811015611788578181015183820152602001611770565b50505050905001915050604051602081830303815290604052805190602001208a60405160200180828051906020019060200280838360005b838110156117d95781810151838201526020016117c1565b5050505090500191505060405160208183030381529060405280519060200120604051602001808a6001600160a01b03166001600160a01b031660601b8152601401896001600160a01b03166001600160a01b031660601b81526014018881526020018781526020018681526020018581526020018481526020018381526020018281526020019950505050505050505050604051602081830303815290604052805190602001209050600760009054906101000a90046001600160a01b03166001600160a01b031663012847ed83836040518363ffffffff1660e01b81526004018080602001838152602001828103825284818151815260200191508051906020019080838360005b838110156118fb5781810151838201526020016118e3565b50505050905090810190601f1680156119285780820380516001836020036101000a031916815260200191505b50935050505060206040518083038186803b15801561194657600080fd5b505afa15801561195a573d6000803e3d6000fd5b505050506040513d602081101561197057600080fd5b50516119c3576040805162461bcd60e51b815260206004820152600c60248201527f494e56414c49445f415554480000000000000000000000000000000000000000604482015290519081900360640190fd5b6000611a24876000815181106119d557fe5b6020026020010151886001815181106119ea57fe5b6020026020010151896002815181106119ff57fe5b60200260200101518a600381518110611a1457fe5b60200260200101518c8b8b612337565b9050611a3084826123dc565b611226576040805162461bcd60e51b815260206004820152600c60248201527f494e56414c49445f4c414e440000000000000000000000000000000000000000604482015290519081900360640190fd5b6000611a8d84846124a5565b600654909150611acc908590839085906001600160a01b03167f000000000000000000000000000000000000000000000000000000000000000061253f565b50505050565b80600281518110611adf57fe5b602002602001015160011480611b1c57507f00000000000000000000000000000000000000000000000000000000000000006001600160a01b0316155b15611c1e577f00000000000000000000000000000000000000000000000000000000000000006001600160a01b0316636e1e3bbf8383600281518110611b5e57fe5b602002602001015184600081518110611b7357fe5b602002602001015185600181518110611b8857fe5b60200260200101516040518563ffffffff1660e01b815260040180856001600160a01b03166001600160a01b031681526020018481526020018381526020018281526020018060200182810382526000815260200160200195505050505050600060405180830381600087803b158015611c0157600080fd5b505af1158015611c15573d6000803e3d6000fd5b50505050611dbe565b7f00000000000000000000000000000000000000000000000000000000000000006001600160a01b0316636e1e3bbf7f000000000000000000000000000000000000000000000000000000000000000083600281518110611c7b57fe5b602002602001015184600081518110611c9057fe5b602002602001015185600181518110611ca557fe5b60200260200101518760405160200180826001600160a01b03166001600160a01b031681526020019150506040516020818303038152906040526040518663ffffffff1660e01b815260040180866001600160a01b03166001600160a01b0316815260200185815260200184815260200183815260200180602001828103825283818151815260200191508051906020019080838360005b83811015611d55578181015183820152602001611d3d565b50505050905090810190601f168015611d825780820380516001836020036101000a031916815260200191505b509650505050505050600060405180830381600087803b158015611da557600080fd5b505af1158015611db9573d6000803e3d6000fd5b505050505b61019881600181518110611dce57fe5b60200260200101510281600081518110611de457fe5b602002602001015101826001600160a01b0316846001600160a01b03167fe4dfa6ac11314892f3029b34a25b1a887da3b1cab2bbf8506d87128ba6e3ac0284600281518110611e2f57fe5b602002602001015185600381518110611e4457fe5b60200260200101517f000000000000000000000000000000000000000000000000000000000000000087600381518110611e7a57fe5b602002602001015160405180858152602001848152602001836001600160a01b03166001600160a01b0316815260200182815260200194505050505060405180910390a4505050565b6060815167ffffffffffffffff81118015611edd57600080fd5b50604051908082528060200260200182016040528015611f07578160200160208202803683370190505b50905060005b8251811015611f37576001828281518110611f2457fe5b6020908102919091010152600101611f0d565b507f00000000000000000000000000000000000000000000000000000000000000006001600160a01b0316632eb2c2d6308585856040518563ffffffff1660e01b815260040180856001600160a01b03166001600160a01b03168152602001846001600160a01b03166001600160a01b03168152602001806020018060200180602001848103845286818151815260200191508051906020019060200280838360005b83811015611ff2578181015183820152602001611fda565b50505050905001848103835285818151815260200191508051906020019060200280838360005b83811015612031578181015183820152602001612019565b50505050905001848103825260008152602001602001975050505050505050600060405180830381600087803b15801561206a57600080fd5b505af115801561207e573d6000803e3d6000fd5b50505050505050565b6001600160a01b0382166120cc5760405162461bcd60e51b8152600401808060200182810382526025815260200180612b6b6025913960400191505060405180910390fd5b6001600160a01b03821660008181526002602090815260409182902080547fffffffffffffffffffffffffffffffffffffffffffffffffffffffffffffff001685151590811790915582519384529083015280517fb21eb88b4e33b3f1281830a7178d74d8aa73220416215726b68ae23d539515cb9281900390910190a15050565b600081516041146121a6576040805162461bcd60e51b815260206004820152601f60248201527f45434453413a20696e76616c6964207369676e6174757265206c656e67746800604482015290519081900360640190fd5b60208201516040830151606084015160001a7f7fffffffffffffffffffffffffffffff5d576e7357a4501ddfe92f46681b20a08211156122175760405162461bcd60e51b8152600401808060200182810382526022815260200180612ae36022913960400191505060405180910390fd5b8060ff16601b1415801561222f57508060ff16601c14155b1561226b5760405162461bcd60e51b8152600401808060200182810382526022815260200180612b286022913960400191505060405180910390fd5b60408051600080825260208083018085528a905260ff85168385015260608301879052608083018690529251909260019260a080820193601f1981019281900390910190855afa1580156122c3573d6000803e3d6000fd5b5050604051601f1901519150506001600160a01b03811661232b576040805162461bcd60e51b815260206004820152601860248201527f45434453413a20696e76616c6964207369676e61747572650000000000000000604482015290519081900360640190fd5b93505050505b92915050565b60008787878787878760405160200180888152602001878152602001868152602001858152602001846001600160a01b03166001600160a01b031660601b8152601401838152602001828051906020019060200280838360005b838110156123a9578181015183820152602001612391565b50505050905001975050505050505050604051602081830303815290604052805190602001209050979650505050505050565b600081815b845181101561247b5760008582815181106123f857fe5b60200260200101519050808310156124405782816040516020018083815260200182815260200192505050604051602081830303815290604052805190602001209250612472565b808360405160200180838152602001828152602001925050506040516020818303038152906040528051906020012092505b506001016123e1565b507f0000000000000000000000000000000000000000000000000000000000000000149392505050565b6000806124ca60646124be85600563ffffffff61264716565b9063ffffffff6126a716565b90506125276001600160a01b037f000000000000000000000000000000000000000000000000000000000000000016857f00000000000000000000000000000000000000000000000000000000000000008463ffffffff6126e916565b612537838263ffffffff61277116565b949350505050565b8251819085901561262c57606060008060008061255b8a610d2e565b93985091965094509250905060006125768686868686611375565b15612604576125906125888d84612647565b6127106126a7565b9050886001600160a01b0316846001600160a01b0316866001600160a01b03167fac7a699eb95c3c6d390ec4626de17ef9a67b35891efdb197beba7c7fdd45fac48f858760405180848152602001838152602001828152602001935050505060405180910390a46126018782612771565b96505b8015612625576126256001600160a01b0389168e878463ffffffff6126e916565b5050505050505b61207e6001600160a01b03831688868463ffffffff6126e916565b60008261265657506000612331565b8282028284828161266357fe5b04146126a05760405162461bcd60e51b8152600401808060200182810382526021815260200180612b4a6021913960400191505060405180910390fd5b9392505050565b60006126a083836040518060400160405280601a81526020017f536166654d6174683a206469766973696f6e206279207a65726f0000000000008152506127b3565b604080516001600160a01b0380861660248301528416604482015260648082018490528251808303909101815260849091019091526020810180517bffffffffffffffffffffffffffffffffffffffffffffffffffffffff167f23b872dd00000000000000000000000000000000000000000000000000000000179052611acc908590612855565b60006126a083836040518060400160405280601e81526020017f536166654d6174683a207375627472616374696f6e206f766572666c6f77000081525061290b565b6000818361283f5760405162461bcd60e51b81526004018080602001828103825283818151815260200191508051906020019080838360005b838110156128045781810151838201526020016127ec565b50505050905090810190601f1680156128315780820380516001836020036101000a031916815260200191505b509250505060405180910390fd5b50600083858161284b57fe5b0495945050505050565b60606128aa826040518060400160405280602081526020017f5361666545524332303a206c6f772d6c6576656c2063616c6c206661696c6564815250856001600160a01b03166129659092919063ffffffff16565b805190915015612906578080602001905160208110156128c957600080fd5b50516129065760405162461bcd60e51b815260040180806020018281038252602a815260200180612b90602a913960400191505060405180910390fd5b505050565b6000818484111561295d5760405162461bcd60e51b81526020600482018181528351602484015283519092839260449091019190850190808383600083156128045781810151838201526020016127ec565b505050900390565b60606125378484600085606061297a85612adc565b6129cb576040805162461bcd60e51b815260206004820152601d60248201527f416464726573733a2063616c6c20746f206e6f6e2d636f6e7472616374000000604482015290519081900360640190fd5b60006060866001600160a01b031685876040518082805190602001908083835b60208310612a0a5780518252601f1990920191602091820191016129eb565b6001836020036101000a03801982511681845116808217855250505050505090500191505060006040518083038185875af1925050503d8060008114612a6c576040519150601f19603f3d011682016040523d82523d6000602084013e612a71565b606091505b50915091508115612a855791506125379050565b805115612a955780518082602001fd5b60405162461bcd60e51b81526020600482018181528651602484015286518793919283926044019190850190808383600083156128045781810151838201526020016127ec565b3b15159056fe45434453413a20696e76616c6964207369676e6174757265202773272076616c7565526566657272616c56616c696461746f723a2053656e646572206e6f742061646d696e45434453413a20696e76616c6964207369676e6174757265202776272076616c7565536166654d6174683a206d756c7469706c69636174696f6e206f766572666c6f774d6574615472616e73616374696f6e52656365697665723a207a65726f20616464726573735361666545524332303a204552433230206f7065726174696f6e20646964206e6f742073756363656564a2646970667358221220a5670b1ad93b092eb46ba00923ea8f6c7cf8a0b44a1214b01f8ac6fb833c6f6064736f6c6343000605003345737461746553616c6557697468417574683a207a65726f20616464726573734d6574615472616e73616374696f6e52656365697665723a207a65726f206164647265737345737461746553616c6557697468417574683a206973206e6f74206120636f6e7472616374",
  "devdoc": {
    "methods": {
      "buyLandWithSand(address,address,address,uint256[],bytes32,uint256[],bytes32[],bytes,bytes)": {
        "params": {
          "assetIds": "asset ids (lands) that will be bought",
          "buyer": "address that perform the payment",
          "info": "[X_INDEX=0] x coordinate of the Land [Y_INDEX=1] y coordinate of the Land [SIZE_INDEX=2] size of the pack of Land to purchase [PRICE_INDEX=3] price in SAND to purchase that Land",
          "proof": "merkleProof for that particular Land",
          "referral": "referral id",
          "reserved": "the reserved address (if any)",
          "salt": "The salt submitted for verification.",
          "signature": "A signed message specifying tx details",
          "to": "address that will own the purchased Land"
        }
      },
      "changeAdmin(address)": {
        "details": "change the administrator to be `newAdmin`.",
        "params": {
          "newAdmin": "address of the new administrator."
        }
      },
      "disablePreviousSigningWallet(address)": {
        "details": "Disable compromised signing wallet",
        "params": {
          "disableWallet": "The wallet address to be disabled"
        }
      },
      "getAdmin()": {
        "details": "gives the current administrator of this contract.",
        "returns": {
          "_0": "the current administrator of this contract."
        }
      },
      "getSigningWallet()": {
        "details": "signing wallet authorized for referral",
        "returns": {
          "_0": "the address of the signing wallet"
        }
      },
      "isMetaTransactionProcessor(address)": {
        "details": "check whether address `who` is given meta-transaction execution rights.",
        "params": {
          "who": "The address to query."
        },
        "returns": {
          "_0": "whether the address has meta-transaction execution rights."
        }
      },
      "isReferralValid(bytes,address,address,uint256,uint256)": {
        "params": {
          "commissionRate": "The commissionRate of the referral",
          "expiryTime": "The expiry time of the referral",
          "referee": "The address of the referee",
          "referrer": "The address of the referrer",
          "signature": "The signature to check (signed referral)"
        },
        "returns": {
          "_0": "True if the referral is valid"
        }
      },
      "setMetaTransactionProcessor(address,bool)": {
        "details": "Enable or disable the ability of `metaTransactionProcessor` to perform meta-tx (metaTransactionProcessor rights).",
        "params": {
          "enabled": "set whether the metaTransactionProcessor is enabled or disabled.",
          "metaTransactionProcessor": "address that will be given/removed metaTransactionProcessor rights."
        }
      },
      "setReceivingWallet(address)": {
        "params": {
          "newWallet": "address of the new receiving wallet"
        }
      },
      "updateMaxCommissionRate(uint256)": {
        "details": "Update the maximum commission rate",
        "params": {
          "newMaxCommissionRate": "The new maximum commission rate"
        }
      },
      "updateSigningWallet(address)": {
        "details": "Update the signing wallet The previous wallet is still valid for a grace period (_previousSigningDelay). If you want to disable the previous wallet, use the disablePreviousSigningWallet function.",
        "params": {
          "newSigningWallet": "The new address of the signing wallet"
        }
      },
      "withdrawAssets(address,uint256[],uint256[])": {
        "params": {
          "assetIds": "the assetIds to be transferred",
          "to": "intended recipient of the asset tokens",
          "values": "the quantities of the assetIds to be transferred"
        }
      }
    },
    "title": "Estate Sale contract with referral"
  },
  "userdoc": {
    "methods": {
      "buyLandWithSand(address,address,address,uint256[],bytes32,uint256[],bytes32[],bytes,bytes)": {
        "notice": "buy Land with SAND using the merkle proof associated with it"
      },
      "getExpiryTime()": {
        "notice": "Gets the expiry time for the current sale"
      },
      "getMaxCommissionRate()": {
        "notice": "the max commission rate"
      },
      "getMerkleRoot()": {
        "notice": "Gets the Merkle root associated with the current sale"
      },
      "isReferralValid(bytes,address,address,uint256,uint256)": {
        "notice": "Check if a referral is valid"
      },
      "setReceivingWallet(address)": {
        "notice": "set the wallet receiving the proceeds"
      },
      "withdrawAssets(address,uint256[],uint256[])": {
        "notice": "enable Admin to withdraw remaining assets from EstateSaleWithFee contract"
      }
    },
    "notice": "This contract manages the sale of our lands as Estates"
  },
  "storageLayout": {
    "storage": [
      {
        "astId": 924,
        "contract": "@sandbox-smart-contracts/land-sale/contracts/EstateSaleWithAuth.sol:EstateSaleWithAuth",
        "label": "_status",
        "offset": 0,
        "slot": "0",
        "type": "t_uint256"
      },
      {
        "astId": 2455,
        "contract": "@sandbox-smart-contracts/land-sale/contracts/EstateSaleWithAuth.sol:EstateSaleWithAuth",
        "label": "_admin",
        "offset": 0,
        "slot": "1",
        "type": "t_address"
      },
      {
        "astId": 2524,
        "contract": "@sandbox-smart-contracts/land-sale/contracts/EstateSaleWithAuth.sol:EstateSaleWithAuth",
        "label": "_metaTransactionContracts",
        "offset": 0,
        "slot": "2",
        "type": "t_mapping(t_address,t_bool)"
      },
      {
        "astId": 1935,
        "contract": "@sandbox-smart-contracts/land-sale/contracts/EstateSaleWithAuth.sol:EstateSaleWithAuth",
        "label": "_signingWallet",
        "offset": 0,
        "slot": "3",
        "type": "t_address"
      },
      {
        "astId": 1937,
        "contract": "@sandbox-smart-contracts/land-sale/contracts/EstateSaleWithAuth.sol:EstateSaleWithAuth",
        "label": "_maxCommissionRate",
        "offset": 0,
        "slot": "4",
        "type": "t_uint256"
      },
      {
        "astId": 1941,
        "contract": "@sandbox-smart-contracts/land-sale/contracts/EstateSaleWithAuth.sol:EstateSaleWithAuth",
        "label": "_previousSigningWallets",
        "offset": 0,
        "slot": "5",
        "type": "t_mapping(t_address,t_uint256)"
      },
      {
        "astId": 1740,
        "contract": "@sandbox-smart-contracts/land-sale/contracts/EstateSaleWithAuth.sol:EstateSaleWithAuth",
        "label": "_wallet",
        "offset": 0,
        "slot": "6",
        "type": "t_address_payable"
      },
      {
        "astId": 1742,
        "contract": "@sandbox-smart-contracts/land-sale/contracts/EstateSaleWithAuth.sol:EstateSaleWithAuth",
        "label": "_authValidator",
        "offset": 0,
        "slot": "7",
        "type": "t_contract(AuthValidator)1053"
      }
    ],
    "types": {
      "t_address": {
        "encoding": "inplace",
        "label": "address",
        "numberOfBytes": "20"
      },
      "t_address_payable": {
        "encoding": "inplace",
        "label": "address payable",
        "numberOfBytes": "20"
      },
      "t_bool": {
        "encoding": "inplace",
        "label": "bool",
        "numberOfBytes": "1"
      },
      "t_contract(AuthValidator)1053": {
        "encoding": "inplace",
        "label": "contract AuthValidator",
        "numberOfBytes": "20"
      },
      "t_mapping(t_address,t_bool)": {
        "encoding": "mapping",
        "key": "t_address",
        "label": "mapping(address => bool)",
        "numberOfBytes": "32",
        "value": "t_bool"
      },
      "t_mapping(t_address,t_uint256)": {
        "encoding": "mapping",
        "key": "t_address",
        "label": "mapping(address => uint256)",
        "numberOfBytes": "32",
        "value": "t_uint256"
      },
      "t_uint256": {
        "encoding": "inplace",
        "label": "uint256",
        "numberOfBytes": "32"
      }
    }
  }
}