{
  "address": "0x0Fe1B3B8dcCeC21d4f9cb60d0dE32575c439EE58",
  "abi": [
    {
      "inputs": [
        {
          "internalType": "address",
          "name": "landAddress",
          "type": "address"
        },
        {
          "internalType": "address",
          "name": "sandContractAddress",
          "type": "address"
        },
        {
          "internalType": "address",
          "name": "initialMetaTx",
          "type": "address"
        },
        {
          "internalType": "address",
          "name": "admin",
          "type": "address"
        },
        {
          "internalType": "address payable",
          "name": "initialWalletAddress",
          "type": "address"
        },
        {
          "internalType": "bytes32",
          "name": "merkleRoot",
          "type": "bytes32"
        },
        {
          "internalType": "uint256",
          "name": "expiryTime",
          "type": "uint256"
        },
        {
          "internalType": "address",
          "name": "initialSigningWallet",
          "type": "address"
        },
        {
          "internalType": "uint256",
          "name": "initialMaxCommissionRate",
          "type": "uint256"
        },
        {
          "internalType": "address",
          "name": "estate",
          "type": "address"
        },
        {
          "internalType": "address",
          "name": "asset",
          "type": "address"
        },
        {
          "internalType": "address",
          "name": "feeDistributor",
          "type": "address"
        },
        {
          "internalType": "address",
          "name": "authValidator",
          "type": "address"
        }
      ],
      "stateMutability": "nonpayable",
      "type": "constructor"
    },
    {
      "anonymous": false,
      "inputs": [
        {
          "indexed": false,
          "internalType": "address",
          "name": "oldAdmin",
          "type": "address"
        },
        {
          "indexed": false,
          "internalType": "address",
          "name": "newAdmin",
          "type": "address"
        }
      ],
      "name": "AdminChanged",
      "type": "event"
    },
    {
      "anonymous": false,
      "inputs": [
        {
          "indexed": true,
          "internalType": "address",
          "name": "buyer",
          "type": "address"
        },
        {
          "indexed": true,
          "internalType": "address",
          "name": "to",
          "type": "address"
        },
        {
          "indexed": true,
          "internalType": "uint256",
          "name": "topCornerId",
          "type": "uint256"
        },
        {
          "indexed": false,
          "internalType": "uint256",
          "name": "size",
          "type": "uint256"
        },
        {
          "indexed": false,
          "internalType": "uint256",
          "name": "price",
          "type": "uint256"
        },
        {
          "indexed": false,
          "internalType": "address",
          "name": "token",
          "type": "address"
        },
        {
          "indexed": false,
          "internalType": "uint256",
          "name": "amountPaid",
          "type": "uint256"
        }
      ],
      "name": "LandQuadPurchased",
      "type": "event"
    },
    {
      "anonymous": false,
      "inputs": [
        {
          "indexed": true,
          "internalType": "uint256",
          "name": "newMaxCommissionRate",
          "type": "uint256"
        }
      ],
      "name": "MaxCommissionRateUpdated",
      "type": "event"
    },
    {
      "anonymous": false,
      "inputs": [
        {
          "indexed": false,
          "internalType": "address",
          "name": "metaTransactionProcessor",
          "type": "address"
        },
        {
          "indexed": false,
          "internalType": "bool",
          "name": "enabled",
          "type": "bool"
        }
      ],
      "name": "MetaTransactionProcessor",
      "type": "event"
    },
    {
      "anonymous": false,
      "inputs": [
        {
          "indexed": true,
          "internalType": "address",
          "name": "newWallet",
          "type": "address"
        }
      ],
      "name": "NewReceivingWallet",
      "type": "event"
    },
    {
      "anonymous": false,
      "inputs": [
        {
          "indexed": true,
          "internalType": "address",
          "name": "referrer",
          "type": "address"
        },
        {
          "indexed": true,
          "internalType": "address",
          "name": "referee",
          "type": "address"
        },
        {
          "indexed": true,
          "internalType": "address",
          "name": "token",
          "type": "address"
        },
        {
          "indexed": false,
          "internalType": "uint256",
          "name": "amount",
          "type": "uint256"
        },
        {
          "indexed": false,
          "internalType": "uint256",
          "name": "commission",
          "type": "uint256"
        },
        {
          "indexed": false,
          "internalType": "uint256",
          "name": "commissionRate",
          "type": "uint256"
        }
      ],
      "name": "ReferralUsed",
      "type": "event"
    },
    {
      "anonymous": false,
      "inputs": [
        {
          "indexed": true,
          "internalType": "address",
          "name": "newSigningWallet",
          "type": "address"
        }
      ],
      "name": "SigningWalletUpdated",
      "type": "event"
    },
    {
      "inputs": [
        {
          "internalType": "address",
          "name": "buyer",
          "type": "address"
        },
        {
          "internalType": "address",
          "name": "to",
          "type": "address"
        },
        {
          "internalType": "address",
          "name": "reserved",
          "type": "address"
        },
        {
          "internalType": "uint256[]",
          "name": "info",
          "type": "uint256[]"
        },
        {
          "internalType": "bytes32",
          "name": "salt",
          "type": "bytes32"
        },
        {
          "internalType": "uint256[]",
          "name": "assetIds",
          "type": "uint256[]"
        },
        {
          "internalType": "bytes32[]",
          "name": "proof",
          "type": "bytes32[]"
        },
        {
          "internalType": "bytes",
          "name": "referral",
          "type": "bytes"
        },
        {
          "internalType": "bytes",
          "name": "signature",
          "type": "bytes"
        }
      ],
      "name": "buyLandWithSand",
      "outputs": [],
      "stateMutability": "nonpayable",
      "type": "function"
    },
    {
      "inputs": [
        {
          "internalType": "address",
          "name": "newAdmin",
          "type": "address"
        }
      ],
      "name": "changeAdmin",
      "outputs": [],
      "stateMutability": "nonpayable",
      "type": "function"
    },
    {
      "inputs": [
        {
          "internalType": "bytes",
          "name": "referral",
          "type": "bytes"
        }
      ],
      "name": "decodeReferral",
      "outputs": [
        {
          "internalType": "bytes",
          "name": "",
          "type": "bytes"
        },
        {
          "internalType": "address",
          "name": "",
          "type": "address"
        },
        {
          "internalType": "address",
          "name": "",
          "type": "address"
        },
        {
          "internalType": "uint256",
          "name": "",
          "type": "uint256"
        },
        {
          "internalType": "uint256",
          "name": "",
          "type": "uint256"
        }
      ],
      "stateMutability": "pure",
      "type": "function"
    },
    {
      "inputs": [
        {
          "internalType": "address",
          "name": "disableWallet",
          "type": "address"
        }
      ],
      "name": "disablePreviousSigningWallet",
      "outputs": [],
      "stateMutability": "nonpayable",
      "type": "function"
    },
    {
      "inputs": [],
      "name": "getAdmin",
      "outputs": [
        {
          "internalType": "address",
          "name": "",
          "type": "address"
        }
      ],
      "stateMutability": "view",
      "type": "function"
    },
    {
      "inputs": [],
      "name": "getExpiryTime",
      "outputs": [
        {
          "internalType": "uint256",
          "name": "",
          "type": "uint256"
        }
      ],
      "stateMutability": "view",
      "type": "function"
    },
    {
      "inputs": [],
      "name": "getMaxCommissionRate",
      "outputs": [
        {
          "internalType": "uint256",
          "name": "",
          "type": "uint256"
        }
      ],
      "stateMutability": "view",
      "type": "function"
    },
    {
      "inputs": [],
      "name": "getMerkleRoot",
      "outputs": [
        {
          "internalType": "bytes32",
          "name": "",
          "type": "bytes32"
        }
      ],
      "stateMutability": "view",
      "type": "function"
    },
    {
      "inputs": [],
      "name": "getSigningWallet",
      "outputs": [
        {
          "internalType": "address",
          "name": "",
          "type": "address"
        }
      ],
      "stateMutability": "view",
      "type": "function"
    },
    {
      "inputs": [
        {
          "internalType": "address",
          "name": "who",
          "type": "address"
        }
      ],
      "name": "isMetaTransactionProcessor",
      "outputs": [
        {
          "internalType": "bool",
          "name": "",
          "type": "bool"
        }
      ],
      "stateMutability": "view",
      "type": "function"
    },
    {
      "inputs": [
        {
          "internalType": "bytes",
          "name": "signature",
          "type": "bytes"
        },
        {
          "internalType": "address",
          "name": "referrer",
          "type": "address"
        },
        {
          "internalType": "address",
          "name": "referee",
          "type": "address"
        },
        {
          "internalType": "uint256",
          "name": "expiryTime",
          "type": "uint256"
        },
        {
          "internalType": "uint256",
          "name": "commissionRate",
          "type": "uint256"
        }
      ],
      "name": "isReferralValid",
      "outputs": [
        {
          "internalType": "bool",
          "name": "",
          "type": "bool"
        }
      ],
      "stateMutability": "view",
      "type": "function"
    },
    {
      "inputs": [
        {
          "internalType": "address",
          "name": "",
          "type": "address"
        },
        {
          "internalType": "address",
          "name": "",
          "type": "address"
        },
        {
          "internalType": "uint256[]",
          "name": "",
          "type": "uint256[]"
        },
        {
          "internalType": "uint256[]",
          "name": "",
          "type": "uint256[]"
        },
        {
          "internalType": "bytes",
          "name": "",
          "type": "bytes"
        }
      ],
      "name": "onERC1155BatchReceived",
      "outputs": [
        {
          "internalType": "bytes4",
          "name": "",
          "type": "bytes4"
        }
      ],
      "stateMutability": "pure",
      "type": "function"
    },
    {
      "inputs": [
        {
          "internalType": "address",
          "name": "",
          "type": "address"
        },
        {
          "internalType": "address",
          "name": "",
          "type": "address"
        },
        {
          "internalType": "uint256",
          "name": "",
          "type": "uint256"
        },
        {
          "internalType": "uint256",
          "name": "",
          "type": "uint256"
        },
        {
          "internalType": "bytes",
          "name": "",
          "type": "bytes"
        }
      ],
      "name": "onERC1155Received",
      "outputs": [
        {
          "internalType": "bytes4",
          "name": "",
          "type": "bytes4"
        }
      ],
      "stateMutability": "pure",
      "type": "function"
    },
    {
      "inputs": [
        {
          "internalType": "address",
          "name": "metaTransactionProcessor",
          "type": "address"
        },
        {
          "internalType": "bool",
          "name": "enabled",
          "type": "bool"
        }
      ],
      "name": "setMetaTransactionProcessor",
      "outputs": [],
      "stateMutability": "nonpayable",
      "type": "function"
    },
    {
      "inputs": [
        {
          "internalType": "address payable",
          "name": "newWallet",
          "type": "address"
        }
      ],
      "name": "setReceivingWallet",
      "outputs": [],
      "stateMutability": "nonpayable",
      "type": "function"
    },
    {
      "inputs": [
        {
          "internalType": "uint256",
          "name": "newMaxCommissionRate",
          "type": "uint256"
        }
      ],
      "name": "updateMaxCommissionRate",
      "outputs": [],
      "stateMutability": "nonpayable",
      "type": "function"
    },
    {
      "inputs": [
        {
          "internalType": "address",
          "name": "newSigningWallet",
          "type": "address"
        }
      ],
      "name": "updateSigningWallet",
      "outputs": [],
      "stateMutability": "nonpayable",
      "type": "function"
    },
    {
      "inputs": [
        {
          "internalType": "address",
          "name": "to",
          "type": "address"
        },
        {
          "internalType": "uint256[]",
          "name": "assetIds",
          "type": "uint256[]"
        },
        {
          "internalType": "uint256[]",
          "name": "values",
          "type": "uint256[]"
        }
      ],
      "name": "withdrawAssets",
      "outputs": [],
      "stateMutability": "nonpayable",
      "type": "function"
    }
  ],
  "transactionHash": "0x630345afe2521dcbea97ba25af789528045ae84614bd2b50d1f63ac87448331b",
  "args": [
    "0x9d305a42A3975Ee4c1C57555BeD5919889DCE63F",
    "0xBbba073C31bF03b8ACf7c28EF0738DeCF3695683",
    "0xBbba073C31bF03b8ACf7c28EF0738DeCF3695683",
    "0xfD30a48Bc6c56E24B0ebF1B0117d750e2CFf7531",
    "0x1b47567CBE36e63293A7A2018F79687f942aB24C",
    "0x88ff7c06b38c556e9ccb9be02fa5ba72fa80784dc21a8c99267a1a094d39c721",
    1764590400,
    "0x3044719d139F866a44c988823513eCB93060bF1b",
    2000,
    "0x0000000000000000000000000000000000000000",
    "0xDbc52cd5b8EdA1A7BCBABb838ca927d23E3673e5",
    "0x42a4a3795446A4c070565da201c6303fC78a2569",
    "0x7804fb2AF15bB1323795A888B09913cEf629Ffda"
  ],
  "numDeployments": 1,
  "linkedData": [
    {
      "x": 180,
      "y": 51,
      "size": 1,
      "price": "1011000000000000000000",
      "reserved": "",
      "salt": "0x07a0103dc91d168aae94c89d008cc7e9cca06e0d0d22661fbf7a1ef8c6d99116",
      "assetIds": []
    },
    {
      "x": 180,
      "y": 52,
      "size": 1,
      "price": "1011000000000000000000",
      "reserved": "",
      "salt": "0xb6f6227beb95e21cabf5176bbaa19a2a3f6a0fab580b0c635f20e3e764b266fd",
      "assetIds": []
    },
    {
      "x": 180,
      "y": 53,
      "size": 1,
      "price": "1011000000000000000000",
      "reserved": "",
      "salt": "0x47dad7426a083f86a6737fc4f84a4da3a9a7217f0049e189257e10d1a0805fff",
      "assetIds": []
    },
    {
      "x": 181,
      "y": 51,
      "size": 1,
      "price": "1011000000000000000000",
      "reserved": "",
      "salt": "0xd120169b3df6dcf93c15be692eae5f655bf4a23b3db109cb25f804e9d40eb398",
      "assetIds": []
    },
    {
      "x": 181,
      "y": 52,
      "size": 1,
      "price": "1011000000000000000000",
      "reserved": "",
      "salt": "0x645e4895e28e21d9f41d013714acaae3843097b86f21df7bc82ab07c0a692961",
      "assetIds": []
    },
    {
      "x": 181,
      "y": 53,
      "size": 1,
      "price": "1011000000000000000000",
      "reserved": "",
      "salt": "0xb016f6b76045f00223e89d15b5ce298a5aa557dd97920f87fefa00f937019779",
      "assetIds": []
    },
    {
      "x": 182,
      "y": 51,
      "size": 1,
      "price": "1011000000000000000000",
      "reserved": "",
      "salt": "0xf1f568b1af036a32cb95b8c01ec745d50ce958a415bc845eb4980ccfdd3fa802",
      "assetIds": []
    },
    {
      "x": 182,
      "y": 52,
      "size": 1,
      "price": "1011000000000000000000",
      "reserved": "0x7a9fe22691c811ea339d9b73150e6911a5343dca",
      "salt": "0x6c0569d39891488b38672f18ca6f21af850159aa2765989d08db2a6dcb488420",
      "assetIds": []
    },
    {
      "x": 182,
      "y": 53,
      "size": 1,
      "price": "1011000000000000000000",
      "reserved": "",
      "salt": "0xb77d36389c2e5e75ab3c082d319d29b290798c51fcd37f79b7e617cfa0e1330b",
      "assetIds": []
    },
    {
      "x": 183,
      "y": 48,
      "size": 1,
      "price": "1011000000000000000000",
      "reserved": "",
      "salt": "0x6e82d32fe96efc2478681f4c1fa840ee88e238f9cdfccd402f483e2149e98b18",
      "assetIds": []
    },
    {
      "x": 183,
      "y": 49,
      "size": 1,
      "price": "1011000000000000000000",
      "reserved": "",
      "salt": "0x39d167a566d527d8bd4f3f12b17f2e712fe3f1d1d9912b1953b6094ad6729281",
      "assetIds": []
    },
    {
      "x": 183,
      "y": 50,
      "size": 1,
      "price": "1011000000000000000000",
      "reserved": "",
      "salt": "0x7055da36fa7f8002f171f26cee7453d7fbee4474eb2a41fbfc2869164674fc2c",
      "assetIds": []
    },
    {
      "x": 183,
      "y": 51,
      "size": 1,
      "price": "1011000000000000000000",
      "reserved": "",
      "salt": "0x06a3dcf95eaf093225bfe4b8943eae42dbf13924afb86ccc93d2ac1b37007a0b",
      "assetIds": []
    },
    {
      "x": 183,
      "y": 52,
      "size": 1,
      "price": "1011000000000000000000",
      "reserved": "",
      "salt": "0x702c52d08cb320f81de15bf7e6ddadef9a4257138379c31ad31cfbf2dd8ed2dd",
      "assetIds": []
    },
    {
      "x": 183,
      "y": 53,
      "size": 1,
      "price": "1011000000000000000000",
      "reserved": "",
      "salt": "0x438605c6621298ed921398176edbc880b308d2e25bc3b0aea966e828d7496b08",
      "assetIds": []
    },
    {
      "x": 184,
      "y": 48,
      "size": 1,
      "price": "1011000000000000000000",
      "reserved": "",
      "salt": "0xa872e96f800f77a3c5818cf5e4177f292433fdc8986a3bb9a40ba6aff4e6da90",
      "assetIds": []
    },
    {
      "x": 184,
      "y": 49,
      "size": 1,
      "price": "1011000000000000000000",
      "reserved": "",
      "salt": "0x371ef9b53b4c933ef4aaeb6e909fc170c567e5076c118af10eb94b09a9f2bff9",
      "assetIds": []
    },
    {
      "x": 184,
      "y": 50,
      "size": 1,
      "price": "1011000000000000000000",
      "reserved": "",
      "salt": "0xaa75b999faa6e5cb384fd0a9e7726ec29181f8521e3523fc348f7cd519c09347",
      "assetIds": []
    },
    {
      "x": 184,
      "y": 51,
      "size": 1,
      "price": "1011000000000000000000",
      "reserved": "",
      "salt": "0xa22e196776e78c09462c90df47cea3a130b2d0eebc216d1d1687d44848438001",
      "assetIds": []
    },
    {
      "x": 184,
      "y": 52,
      "size": 1,
      "price": "1011000000000000000000",
      "reserved": "",
      "salt": "0x090524a837550e5d97f138bafbc65d0784149698c9893df0112301a4061af203",
      "assetIds": []
    },
    {
      "x": 184,
      "y": 53,
      "size": 1,
      "price": "1011000000000000000000",
      "reserved": "",
      "salt": "0x278884b518484f830ac4cbfb659022a5fcf3bbfadd56c73603f055d6872dd2e7",
      "assetIds": []
    },
    {
      "x": 185,
      "y": 51,
      "size": 1,
      "price": "1011000000000000000000",
      "reserved": "",
      "salt": "0x37785587b0e1b4ea3b3c5c517a91d6a1fe5231d7b22e8aeea4b1050cf24a5d27",
      "assetIds": []
    },
    {
      "x": 185,
      "y": 52,
      "size": 1,
      "price": "1011000000000000000000",
      "reserved": "0x7a9fe22691c811ea339d9b73150e6911a5343dca",
      "salt": "0x66695f97933df390d8747391e7e42e99e52f6f8da9d869c135be1b242abcfaed",
      "assetIds": []
    },
    {
      "x": 185,
      "y": 53,
      "size": 1,
      "price": "1011000000000000000000",
      "reserved": "",
      "salt": "0x44f70154ea97aa36d16a2042c5acda41c387b271be772e9aaf61d8cd3049156f",
      "assetIds": []
    },
    {
      "x": 186,
      "y": 51,
      "size": 1,
      "price": "1011000000000000000000",
      "reserved": "",
      "salt": "0x0c7e4dfbe1815e0be248f5c88013af3c89b03a35dd6584e56362bbda80709aa1",
      "assetIds": []
    },
    {
      "x": 186,
      "y": 52,
      "size": 1,
      "price": "1011000000000000000000",
      "reserved": "",
      "salt": "0x3ea78f9119dac43bfa5061cd99feab24b726f7f71eb47b5d00aad989b94c547c",
      "assetIds": []
    },
    {
      "x": 186,
      "y": 53,
      "size": 1,
      "price": "1011000000000000000000",
      "reserved": "",
      "salt": "0x80b33f7576e350dce32a5d569bd9320ad9297f7fb2e3e6c369863fb5526ac4db",
      "assetIds": []
    },
    {
      "x": 187,
      "y": 52,
      "size": 1,
      "price": "1011000000000000000000",
      "reserved": "",
      "salt": "0x31986ee0277688b02a641d4fd6e87b676a25f52ae16340a15af5079d6af397cf",
      "assetIds": []
    },
    {
      "x": 187,
      "y": 53,
      "size": 1,
      "price": "1011000000000000000000",
      "reserved": "",
      "salt": "0xcdd8594997a550abe33147683ef7f948628f4d5756dfc6bc00cddf9e3062cf60",
      "assetIds": []
    },
    {
      "x": 188,
      "y": 52,
      "size": 1,
      "price": "1011000000000000000000",
      "reserved": "",
      "salt": "0x20ba459bc3032f7f4db470232bca5c41123637357da9c4ca0f2a0d10e9b15099",
      "assetIds": []
    },
    {
      "x": 188,
      "y": 53,
      "size": 1,
      "price": "1011000000000000000000",
      "reserved": "",
      "salt": "0x6261c2d764360acea66d8b6dea8ad32599b6c6eeeb2597c4295578e9114b9b87",
      "assetIds": []
    },
    {
      "x": 189,
      "y": 33,
      "size": 1,
      "price": "1011000000000000000000",
      "reserved": "",
      "salt": "0xcee55c99f3e4b93f174f83ed2a2a8b8ddca02e47ca8c20debc2904eb35d23bd6",
      "assetIds": []
    },
    {
      "x": 189,
      "y": 34,
      "size": 1,
      "price": "1011000000000000000000",
      "reserved": "",
      "salt": "0xb3bf595e5ca65318987929a1b5796600c4251ea3a0e7bad739cc648d224a0bb3",
      "assetIds": []
    },
    {
      "x": 189,
      "y": 35,
      "size": 1,
      "price": "1011000000000000000000",
      "reserved": "",
      "salt": "0xa59902ad059001279fbbcf9e99e042c1f02604f8cd8d3576d5c1d897ab4b97a4",
      "assetIds": []
    },
    {
      "x": 189,
      "y": 39,
      "size": 1,
      "price": "1011000000000000000000",
      "reserved": "",
      "salt": "0x14fbbaeefef175d4b9ea8611a6e91394521349004d403103bfaa3de810a3dc2a",
      "assetIds": []
    },
    {
      "x": 189,
      "y": 40,
      "size": 1,
      "price": "1011000000000000000000",
      "reserved": "",
      "salt": "0xa692a8aeb69d354764f690ca0e078c3b0ebe3e1888b4cd2added22c602d893dd",
      "assetIds": []
    },
    {
      "x": 189,
      "y": 41,
      "size": 1,
      "price": "1011000000000000000000",
      "reserved": "0x7a9fe22691c811ea339d9b73150e6911a5343dca",
      "salt": "0x2955addb3ab079b4c465354c20576f17385add730c3bc353bac6d4efa67f146d",
      "assetIds": []
    },
    {
      "x": 189,
      "y": 42,
      "size": 1,
      "price": "1011000000000000000000",
      "reserved": "",
      "salt": "0x11860fcac33ed9d9505f76c6d927f08fdcf9312bee7f8414bb39bfd84dbe4c27",
      "assetIds": []
    },
    {
      "x": 189,
      "y": 43,
      "size": 1,
      "price": "1011000000000000000000",
      "reserved": "",
      "salt": "0xb29e08173467dba366e97486e6b63c7f919b070373d2504882059006e2a96dc8",
      "assetIds": []
    },
    {
      "x": 189,
      "y": 44,
      "size": 1,
      "price": "1011000000000000000000",
      "reserved": "",
      "salt": "0x10b30b9fca3f939ac007adfcfd05ddb7530e97156dde759066a040d9720c4f04",
      "assetIds": []
    },
    {
      "x": 189,
      "y": 45,
      "size": 1,
      "price": "1011000000000000000000",
      "reserved": "",
      "salt": "0x923cc22acc05172a7c8fe28609f956b8fb00c8907186ff41b776ef5db37471d1",
      "assetIds": []
    },
    {
      "x": 189,
      "y": 46,
      "size": 1,
      "price": "1011000000000000000000",
      "reserved": "",
      "salt": "0xb9c9abb449089b5471d1096eb0b626a1401f398ea4d119dabc056b0a8996fca3",
      "assetIds": []
    },
    {
      "x": 189,
      "y": 47,
      "size": 1,
      "price": "1011000000000000000000",
      "reserved": "",
      "salt": "0x0492aa0d48d7d8b828368bd45c5c48cbfa136f4f39572c5aa2f724c9a1f26d12",
      "assetIds": []
    },
    {
      "x": 189,
      "y": 51,
      "size": 1,
      "price": "1011000000000000000000",
      "reserved": "",
      "salt": "0x317130a6de6b13acf05067033f05cd5f213446993b1db2dd73fc0cdae69c9f00",
      "assetIds": []
    },
    {
      "x": 189,
      "y": 52,
      "size": 1,
      "price": "1011000000000000000000",
      "reserved": "",
      "salt": "0x7e80c089d60e8fa367ce24eff3f4f8bc31131b9be4a4aeab7dbaa217b87c3000",
      "assetIds": []
    },
    {
      "x": 189,
      "y": 53,
      "size": 1,
      "price": "1011000000000000000000",
      "reserved": "",
      "salt": "0xced6a5458c7908192827edd96a5370a03a70b0a5a49aeb667a19ae7b6e9c9852",
      "assetIds": []
    },
    {
      "x": 190,
      "y": 33,
      "size": 1,
      "price": "1011000000000000000000",
      "reserved": "",
      "salt": "0x1fb28f69f897d01bc440ba693a7b62846301ff29011ac7bf372b2ae37c166ab3",
      "assetIds": []
    },
    {
      "x": 190,
      "y": 34,
      "size": 1,
      "price": "1011000000000000000000",
      "reserved": "0x7a9fe22691c811ea339d9b73150e6911a5343dca",
      "salt": "0x9ade868ecea9b58343b3619466a41902e8d386a28ae3f99e6fab231086ab9b96",
      "assetIds": []
    },
    {
      "x": 190,
      "y": 35,
      "size": 1,
      "price": "1011000000000000000000",
      "reserved": "",
      "salt": "0xd4ac03843b54d4373173204793c5f5eeca22538bfd7c59db00266f6b690ce013",
      "assetIds": []
    },
    {
      "x": 190,
      "y": 39,
      "size": 1,
      "price": "1011000000000000000000",
      "reserved": "",
      "salt": "0x68ac437637e5fae4b6b470d9a7749b54eebabdbadeb38c97445ac026871f67b5",
      "assetIds": []
    },
    {
      "x": 190,
      "y": 40,
      "size": 1,
      "price": "1011000000000000000000",
      "reserved": "",
      "salt": "0x856695dcbdbec3289ba03d4c516c2ab51c649c6247ebf522ddf8761f2b2c7044",
      "assetIds": []
    },
    {
      "x": 190,
      "y": 41,
      "size": 1,
      "price": "1011000000000000000000",
      "reserved": "",
      "salt": "0x832b90c55128745c705855d2e4edf14c8a1d65ee56e6bb8aefaee52812ea0362",
      "assetIds": []
    },
    {
      "x": 190,
      "y": 42,
      "size": 1,
      "price": "1011000000000000000000",
      "reserved": "",
      "salt": "0x350f2d6a19ecb9a8837a7a34ab743786a6086472a6e635203c9a905cc7a3f4da",
      "assetIds": []
    },
    {
      "x": 190,
      "y": 43,
      "size": 1,
      "price": "1011000000000000000000",
      "reserved": "",
      "salt": "0x8c9963d7556b44131d3aa35f10b2319494763c86ea1d039aade27055d769fd88",
      "assetIds": []
    },
    {
      "x": 190,
      "y": 44,
      "size": 1,
      "price": "1011000000000000000000",
      "reserved": "",
      "salt": "0x049d4ba23b40e223b2e3bb4c7a8ee7e980277ebecff51dc10b7285705d2d1dba",
      "assetIds": []
    },
    {
      "x": 190,
      "y": 45,
      "size": 1,
      "price": "1011000000000000000000",
      "reserved": "",
      "salt": "0x0164afe31c49bf26e59dd500557707328ad172cd22e9a469e002e391c087187a",
      "assetIds": []
    },
    {
      "x": 190,
      "y": 46,
      "size": 1,
      "price": "1011000000000000000000",
      "reserved": "",
      "salt": "0xf8b2fd987a5024c057b962e3447c131d4b29a8c7433db4a8fd3c329221a7fd17",
      "assetIds": []
    },
    {
      "x": 190,
      "y": 47,
      "size": 1,
      "price": "1011000000000000000000",
      "reserved": "",
      "salt": "0x04525aea5d7289e46049e39b1da53941380fb45cddabe5c16625e34c463497ae",
      "assetIds": []
    },
    {
      "x": 190,
      "y": 51,
      "size": 1,
      "price": "1011000000000000000000",
      "reserved": "",
      "salt": "0xbb43086885df0fe8e63a208cce55a9271eec7a479ef656655fd284c011376609",
      "assetIds": []
    },
    {
      "x": 190,
      "y": 52,
      "size": 1,
      "price": "1011000000000000000000",
      "reserved": "",
      "salt": "0x6e2bff0b2ff62aae361098edced39ee85eedf9a31dd13d7bcb34859464f2cd03",
      "assetIds": []
    },
    {
      "x": 190,
      "y": 53,
      "size": 1,
      "price": "1011000000000000000000",
      "reserved": "",
      "salt": "0x3092f64dc7d892dfe366bb659a332d8e884ce2af8a211f29d5c5135a4e3ba37b",
      "assetIds": []
    },
    {
      "x": 191,
      "y": 33,
      "size": 1,
      "price": "1011000000000000000000",
      "reserved": "",
      "salt": "0x31bf8b7be6ea6dbe97a87e4528771e9e8bb7e251c8fadab51ecbf81c74e0f9c5",
      "assetIds": []
    },
    {
      "x": 191,
      "y": 34,
      "size": 1,
      "price": "1011000000000000000000",
      "reserved": "",
      "salt": "0xbcfd6993b38231a963fbd742b3f52297c7eb91e7905b82383a8936a8ff3aba35",
      "assetIds": []
    },
    {
      "x": 191,
      "y": 35,
      "size": 1,
      "price": "1011000000000000000000",
      "reserved": "",
      "salt": "0x25c2d31ccb87bcf62ae4829a75d323f2f39080cdd75724ebb1495e8c5a7e9bfe",
      "assetIds": []
    },
    {
      "x": 191,
      "y": 40,
      "size": 1,
      "price": "4683000000000000000000",
      "reserved": "",
      "salt": "0xa27009c830c5ddbf24f078a6880c67d87176e2cab3b6708f65f733d900de8a5c",
      "assetIds": [
        "24852169598127774260525153664255483487695641816159501770",
        "24852543742546930971672213807572658856148673734890503626",
        "24852917886966087682819273950889834224601705653621505482"
      ]
    },
    {
      "x": 191,
      "y": 42,
      "size": 1,
      "price": "4683000000000000000000",
      "reserved": "",
      "salt": "0xdfcfce95e4a949e20d2a1e32696a326c7ce57d2c3bcdab2c6c84d83be8467ee3",
      "assetIds": [
        "24852169598127774260525153664255483487695641816159501770",
        "24852543742546930971672213807572658856148673734890503626",
        "24852917886966087682819273950889834224601705653621505482"
      ]
    },
    {
      "x": 191,
      "y": 44,
      "size": 1,
      "price": "4683000000000000000000",
      "reserved": "",
      "salt": "0x2da8ae5989fdd4048a7fe3a3303d2fba3bf245fcbc0d0d4037ecb55b4534da8d",
      "assetIds": [
        "24852169598127774260525153664255483487695641816159501770",
        "24852543742546930971672213807572658856148673734890503626",
        "24852917886966087682819273950889834224601705653621505482"
      ]
    },
    {
      "x": 191,
      "y": 46,
      "size": 1,
      "price": "4683000000000000000000",
      "reserved": "",
      "salt": "0xac99fbbe7da48daff3fa80d83c705952850b3515e7f7cd360ef54229fb4ec275",
      "assetIds": [
        "24852169598127774260525153664255483487695641816159501770",
        "24852543742546930971672213807572658856148673734890503626",
        "24852917886966087682819273950889834224601705653621505482"
      ]
    },
    {
      "x": 191,
      "y": 51,
      "size": 1,
      "price": "1011000000000000000000",
      "reserved": "",
      "salt": "0x82046ffc512cf90e8c1bc06ffb1207d3093e44377754963e4f59c33f00c197cf",
      "assetIds": []
    },
    {
      "x": 191,
      "y": 52,
      "size": 1,
      "price": "1011000000000000000000",
      "reserved": "",
      "salt": "0xeb6ff7155b6c54f9493dd243e41f133ff760078d1d53b3a56c0a2055f1e7c881",
      "assetIds": []
    },
    {
      "x": 191,
      "y": 53,
      "size": 1,
      "price": "1011000000000000000000",
      "reserved": "",
      "salt": "0xa0eaaa4e4fcb25aae650258b4304e083f03203bb5ab33bb50e3362b500307271",
      "assetIds": []
    },
    {
      "x": 192,
      "y": 33,
      "size": 1,
      "price": "1011000000000000000000",
      "reserved": "",
      "salt": "0x713564419dd48e2da50d5c87ce71b8243775a70cd5781da7120db588e2b9fdd4",
      "assetIds": []
    },
    {
      "x": 192,
      "y": 34,
      "size": 1,
      "price": "1011000000000000000000",
      "reserved": "",
      "salt": "0xb08f5863927f4ea4340e9cc918f29794bc3a904d1f5d70c606eec1085053540b",
      "assetIds": []
    },
    {
      "x": 192,
      "y": 35,
      "size": 1,
      "price": "4683000000000000000000",
      "reserved": "",
      "salt": "0xc210290c1259dee2367f837af05d5542c3276e483bd4bded48c3fcc29403b11c",
      "assetIds": [
        "24852169598127774260525153664255483487695641816159501770",
        "24852543742546930971672213807572658856148673734890503626",
        "24852917886966087682819273950889834224601705653621505482"
      ]
    },
    {
      "x": 193,
      "y": 33,
      "size": 1,
      "price": "1011000000000000000000",
      "reserved": "",
      "salt": "0xdcfbe44f1f18ff9f7aab15a690130e0ba46461227d90a98b0d42017bc82b7ec4",
      "assetIds": []
    },
    {
      "x": 193,
      "y": 34,
      "size": 1,
      "price": "1011000000000000000000",
      "reserved": "0x7a9fe22691c811ea339d9b73150e6911a5343dca",
      "salt": "0x936d041ed431601eba380d2b5b6e409bc9361a2ffe9630ece10091ffbfe68502",
      "assetIds": []
    },
    {
      "x": 193,
      "y": 35,
      "size": 1,
      "price": "4683000000000000000000",
      "reserved": "",
      "salt": "0xbc118deb82ba23df9eee77fa4ea5259d0fc4404f20178397c914c03970f3fce2",
      "assetIds": [
        "24852169598127774260525153664255483487695641816159501770",
        "24852543742546930971672213807572658856148673734890503626",
        "24852917886966087682819273950889834224601705653621505482"
      ]
    },
    {
      "x": 194,
      "y": 33,
      "size": 1,
      "price": "1011000000000000000000",
      "reserved": "",
      "salt": "0x77770f6f7a3106e853cc7383145eb7cb8166e5afa355885359872a1cfc82a245",
      "assetIds": []
    },
    {
      "x": 194,
      "y": 34,
      "size": 1,
      "price": "1011000000000000000000",
      "reserved": "",
      "salt": "0xc618c4b654486b2820f6d3382f31c52ff78be392cd3fcd3d896461ac5c0088c6",
      "assetIds": []
    },
    {
      "x": 194,
      "y": 35,
      "size": 1,
      "price": "1011000000000000000000",
      "reserved": "",
      "salt": "0xb453992dfe0bda84d045c65fbe35e9264be112175aac32bd320ccbee7f7a0d21",
      "assetIds": []
    },
    {
      "x": 195,
      "y": 33,
      "size": 1,
      "price": "1011000000000000000000",
      "reserved": "",
      "salt": "0xc0834ad2ef7a56c4a854c23e3278a0848541ccc41fc0c4ed89b4d840db497f5f",
      "assetIds": []
    },
    {
      "x": 195,
      "y": 34,
      "size": 1,
      "price": "1011000000000000000000",
      "reserved": "",
      "salt": "0x9a9bd6ca05db2c4e31b32c76c47f84fa6f9196ad2b7e3868d7f6a755e03830e6",
      "assetIds": []
    },
    {
      "x": 195,
      "y": 35,
      "size": 1,
      "price": "4683000000000000000000",
      "reserved": "",
      "salt": "0xd3610e1441c3821d93a21defa797d0c338fb9d324144922fe39fddd27a33ea07",
      "assetIds": [
        "24852169598127774260525153664255483487695641816159501770",
        "24852543742546930971672213807572658856148673734890503626",
        "24852917886966087682819273950889834224601705653621505482"
      ]
    },
    {
      "x": 196,
      "y": 33,
      "size": 1,
      "price": "1011000000000000000000",
      "reserved": "",
      "salt": "0xda6a572e3e9d5a7715d1ab2e6e9769f22aa4ced4e568963e5d6515216aabfbed",
      "assetIds": []
    },
    {
      "x": 196,
      "y": 34,
      "size": 1,
      "price": "1011000000000000000000",
      "reserved": "0x7a9fe22691c811ea339d9b73150e6911a5343dca",
      "salt": "0x570767b8fb316ac21f257c74ddf3aa17c281ef7194ef22539c32232997926094",
      "assetIds": []
    },
    {
      "x": 196,
      "y": 35,
      "size": 1,
      "price": "4683000000000000000000",
      "reserved": "",
      "salt": "0xbfb8d40652c61c62b95232835ff72a7a106212fb89d6bdc7b698a18d61988644",
      "assetIds": [
        "24852169598127774260525153664255483487695641816159501770",
        "24852543742546930971672213807572658856148673734890503626",
        "24852917886966087682819273950889834224601705653621505482"
      ]
    },
    {
      "x": 197,
      "y": 33,
      "size": 1,
      "price": "1011000000000000000000",
      "reserved": "",
      "salt": "0xc3f081b4a1f7368af489f473a7fdf906343807d74b175afaac2ca1a7eed6d93d",
      "assetIds": []
    },
    {
      "x": 197,
      "y": 34,
      "size": 1,
      "price": "1011000000000000000000",
      "reserved": "",
      "salt": "0xcc14f2abd7d3254edf6c519bc93479c048db4cae014c448aea424a07640a67c5",
      "assetIds": []
    },
    {
      "x": 197,
      "y": 35,
      "size": 1,
      "price": "1011000000000000000000",
      "reserved": "",
      "salt": "0xfa378d190ec25c22def9e8d29ee3ab3dbfb519031c14eb636bd692f0f34b97d0",
      "assetIds": []
    },
    {
      "x": 198,
      "y": 33,
      "size": 1,
      "price": "1011000000000000000000",
      "reserved": "",
      "salt": "0x4266789487f3f322061d7ad39d8de4ef3801fe4fa775b54d947d8213e379520b",
      "assetIds": []
    },
    {
      "x": 198,
      "y": 34,
      "size": 1,
      "price": "1011000000000000000000",
      "reserved": "",
      "salt": "0xda7518e5d70440462fdf9176e24c247eade1adab1263f27c16eb725ee9dc9a1b",
      "assetIds": []
    },
    {
      "x": 198,
      "y": 35,
      "size": 1,
      "price": "4683000000000000000000",
      "reserved": "",
      "salt": "0x591406eaffe77a4fe490b5cb4a007d93d875ba0e7ad563ddcbe858551a5291b9",
      "assetIds": [
        "24852169598127774260525153664255483487695641816159501770",
        "24852543742546930971672213807572658856148673734890503626",
        "24852917886966087682819273950889834224601705653621505482"
      ]
    },
    {
      "x": 198,
      "y": 49,
      "size": 1,
      "price": "1011000000000000000000",
      "reserved": "",
      "salt": "0x63b0d5d87c26e1cc2c0bdaea5793312871e22a02096fbe97b69c6637e7df5510",
      "assetIds": []
    },
    {
      "x": 198,
      "y": 50,
      "size": 1,
      "price": "1011000000000000000000",
      "reserved": "",
      "salt": "0xe3903a56454389f62f33a7e74f20c2c4430ea921ceb9ae9582b9d4b63ed210c5",
      "assetIds": []
    },
    {
      "x": 198,
      "y": 54,
      "size": 1,
      "price": "1011000000000000000000",
      "reserved": "",
      "salt": "0xd0b9d73409112c2ec03c3f9fc6ea23ebee673e933c4832b7f939754ace2205ca",
      "assetIds": []
    },
    {
      "x": 198,
      "y": 55,
      "size": 1,
      "price": "1011000000000000000000",
      "reserved": "",
      "salt": "0x4c9d0affd07a94f1884c927a3570a5b3ce7b70c1c1f263efc67f07809eb77e39",
      "assetIds": []
    },
    {
      "x": 198,
      "y": 56,
      "size": 1,
      "price": "1011000000000000000000",
      "reserved": "",
      "salt": "0x48245ef12ff929cf8c07de6f09496c5ba8fda6e28a8f23e496e3d6723765450a",
      "assetIds": []
    },
    {
      "x": 198,
      "y": 57,
      "size": 1,
      "price": "1011000000000000000000",
      "reserved": "",
      "salt": "0x5015f1af6e84394a27232bd211d01b916d956a55995af6b90128b1e815e4226e",
      "assetIds": []
    },
    {
      "x": 198,
      "y": 58,
      "size": 1,
      "price": "1011000000000000000000",
      "reserved": "",
      "salt": "0xe1a2207c9a577fa618b535e42c05260200ee62758b9309255b4f17553458a7e5",
      "assetIds": []
    },
    {
      "x": 198,
      "y": 59,
      "size": 1,
      "price": "1011000000000000000000",
      "reserved": "",
      "salt": "0xdaedb1adb3777d71d60d3eeefdae243983c4b2e41ab2ac687cdf75d720dd44af",
      "assetIds": []
    },
    {
      "x": 199,
      "y": 33,
      "size": 1,
      "price": "1011000000000000000000",
      "reserved": "",
      "salt": "0xf9f31f2d7a64d5e3b354cee31799659b80d640c3e00c0adbbde6d02dd2ce7a40",
      "assetIds": []
    },
    {
      "x": 199,
      "y": 34,
      "size": 1,
      "price": "1011000000000000000000",
      "reserved": "0x7a9fe22691c811ea339d9b73150e6911a5343dca",
      "salt": "0x2a1394dd4254a8b17a00e4e0f1f6a10ed8c9a8413753afce176e8c1956679dcd",
      "assetIds": []
    },
    {
      "x": 199,
      "y": 35,
      "size": 1,
      "price": "4683000000000000000000",
      "reserved": "",
      "salt": "0x54bef784766dbd1f4c598307290dc8657dce88928e4bd56fc17a3eaa2f38c580",
      "assetIds": [
        "24852169598127774260525153664255483487695641816159501770",
        "24852543742546930971672213807572658856148673734890503626",
        "24852917886966087682819273950889834224601705653621505482"
      ]
    },
    {
      "x": 199,
      "y": 48,
      "size": 1,
      "price": "4683000000000000000000",
      "reserved": "",
      "salt": "0xcb51c470c4c7b27d05ac3c70089bf71b344c6e130b4755add80da45977daa4d0",
      "assetIds": [
        "24852169598127774260525153664255483487695641816159501770",
        "24852543742546930971672213807572658856148673734890503626",
        "24852917886966087682819273950889834224601705653621505482"
      ]
    },
    {
      "x": 199,
      "y": 49,
      "size": 1,
      "price": "1011000000000000000000",
      "reserved": "",
      "salt": "0x8bba0761439d72a820d2dbe4ade1df1da787684d6de955b1e623c81c67d6df2a",
      "assetIds": []
    },
    {
      "x": 199,
      "y": 50,
      "size": 1,
      "price": "1011000000000000000000",
      "reserved": "",
      "salt": "0xeceb4a0aa85173ab77e9a2c34334aa83929e51e0baf8c2db0e401ebc8ff0c88a",
      "assetIds": []
    },
    {
      "x": 199,
      "y": 54,
      "size": 1,
      "price": "1011000000000000000000",
      "reserved": "",
      "salt": "0xb9d85221e8bb26e2a50f5e0c529333a61fe2b77ce1072bd8ec0addc3d8117b68",
      "assetIds": []
    },
    {
      "x": 199,
      "y": 55,
      "size": 1,
      "price": "1011000000000000000000",
      "reserved": "",
      "salt": "0x6c75080417cec798494c61e075948361efbacc40493e0daaebd1f995fbcddca5",
      "assetIds": []
    },
    {
      "x": 199,
      "y": 56,
      "size": 1,
      "price": "1011000000000000000000",
      "reserved": "",
      "salt": "0xfc6b5c98e0a013c92bfe678415fc0095eea91f522ab3be605e4effb24cdf7b45",
      "assetIds": []
    },
    {
      "x": 199,
      "y": 57,
      "size": 1,
      "price": "1011000000000000000000",
      "reserved": "",
      "salt": "0x6d6414816268b1e67f3def59369c3124675a7dc7ef9557e8bc7bffb5ebb4e91c",
      "assetIds": []
    },
    {
      "x": 199,
      "y": 58,
      "size": 1,
      "price": "1011000000000000000000",
      "reserved": "",
      "salt": "0x7497abdfafc9f3eb42316126772decfc7ef27802bfb86a288ba53d59bbb831d2",
      "assetIds": []
    },
    {
      "x": 199,
      "y": 59,
      "size": 1,
      "price": "1011000000000000000000",
      "reserved": "",
      "salt": "0x64b944fad6c64b9868947fc46197b135bf6da84dc1209c287794553f5bb602b9",
      "assetIds": []
    },
    {
      "x": 200,
      "y": 33,
      "size": 1,
      "price": "1011000000000000000000",
      "reserved": "",
      "salt": "0x83be991b1155875962e60596ecb4f992fb64f4c6888b6dd6e66354d23f4674be",
      "assetIds": []
    },
    {
      "x": 200,
      "y": 34,
      "size": 1,
      "price": "1011000000000000000000",
      "reserved": "",
      "salt": "0xd82d784560c2c2a111ce3d9109e2916d41fbce11a6884b15a358cf365cc1cc2e",
      "assetIds": []
    },
    {
      "x": 200,
      "y": 35,
      "size": 1,
      "price": "1011000000000000000000",
      "reserved": "",
      "salt": "0xa57a95a1c4d39624769fb63991c01086f4556d04a39b6b9cf70021e10f7fc71a",
      "assetIds": []
    },
    {
      "x": 200,
      "y": 49,
      "size": 1,
      "price": "1011000000000000000000",
      "reserved": "",
      "salt": "0x3dd159a2bf8a33072519fbc957372e204e1092c2feba0bd2c003abebca6b47da",
      "assetIds": []
    },
    {
      "x": 200,
      "y": 50,
      "size": 1,
      "price": "1011000000000000000000",
      "reserved": "",
      "salt": "0x1ae38fe9ef2af54a60c558113a99acf7370c98d3a64da62d15057c39ff770a33",
      "assetIds": []
    },
    {
      "x": 200,
      "y": 54,
      "size": 1,
      "price": "1011000000000000000000",
      "reserved": "",
      "salt": "0x7fae56a07fb933feb257f44e00ad41e943fd63c8078284acffe6bcf15a6da41c",
      "assetIds": []
    },
    {
      "x": 200,
      "y": 56,
      "size": 1,
      "price": "1011000000000000000000",
      "reserved": "",
      "salt": "0x64913af99188e57e11e085824d0ee9dd472eef26be30d2f18f6c6fb539ef3d22",
      "assetIds": []
    },
    {
      "x": 200,
      "y": 57,
      "size": 1,
      "price": "1011000000000000000000",
      "reserved": "",
      "salt": "0x3fa4374e7847eb30cd0d189ac7e5a25fcaa9f0383614158c6df82c327df6e3bf",
      "assetIds": []
    },
    {
      "x": 200,
      "y": 58,
      "size": 1,
      "price": "1011000000000000000000",
      "reserved": "",
      "salt": "0xd61b82a13dd6950d79dd4058e15681ddd45e05490428436aa11fd7b24964f07f",
      "assetIds": []
    },
    {
      "x": 200,
      "y": 59,
      "size": 1,
      "price": "1011000000000000000000",
      "reserved": "",
      "salt": "0x8693b6cec5c36a765f54792de4e65326de51ea7e9cf1d947b30a926ad2ca1816",
      "assetIds": []
    },
    {
      "x": 201,
      "y": 33,
      "size": 1,
      "price": "1011000000000000000000",
      "reserved": "",
      "salt": "0x7a29f7ddf8a0f0054d384629db323ff120ec458b9e20f2ea445ba5701bc39116",
      "assetIds": []
    },
    {
      "x": 201,
      "y": 34,
      "size": 1,
      "price": "1011000000000000000000",
      "reserved": "",
      "salt": "0xe9e57d819f6dff4452d3064f1cf90ef0a652c412bbd50d674a5b943ac8f46845",
      "assetIds": []
    },
    {
      "x": 201,
      "y": 35,
      "size": 1,
      "price": "4683000000000000000000",
      "reserved": "",
      "salt": "0x6d4258af7016ddd4b08c4428e43f0b7e0bf9a08a5f32eaa71fd0f44ac05388ac",
      "assetIds": [
        "24852169598127774260525153664255483487695641816159501770",
        "24852543742546930971672213807572658856148673734890503626",
        "24852917886966087682819273950889834224601705653621505482"
      ]
    },
    {
      "x": 201,
      "y": 48,
      "size": 1,
      "price": "4683000000000000000000",
      "reserved": "",
      "salt": "0xff317afebbc516a119a11195038f7337e5ec3ac7abd9224a9e70bd9327d6802b",
      "assetIds": [
        "24852169598127774260525153664255483487695641816159501770",
        "24852543742546930971672213807572658856148673734890503626",
        "24852917886966087682819273950889834224601705653621505482"
      ]
    },
    {
      "x": 201,
      "y": 49,
      "size": 1,
      "price": "1011000000000000000000",
      "reserved": "",
      "salt": "0xfcba58e751ce77d34c2b86ba7ce80802d1c93b9a5858d380f13aecd963806534",
      "assetIds": []
    },
    {
      "x": 201,
      "y": 50,
      "size": 1,
      "price": "1011000000000000000000",
      "reserved": "",
      "salt": "0x515dc4014bf51703d988b1667538497e2bc9ef357090faffe6a62e7322b5766e",
      "assetIds": []
    },
    {
      "x": 201,
      "y": 54,
      "size": 1,
      "price": "1011000000000000000000",
      "reserved": "",
      "salt": "0xbc8436048581e9ba76e5a974803aca5c9e663106d5964df538600bd0f8442ef4",
      "assetIds": []
    },
    {
      "x": 201,
      "y": 55,
      "size": 1,
      "price": "1011000000000000000000",
      "reserved": "0x7a9fe22691c811ea339d9b73150e6911a5343dca",
      "salt": "0x3cf111d66dd2c9fd453f14f61ebf75162b222f67b789c13f883ae95b213652ce",
      "assetIds": []
    },
    {
      "x": 201,
      "y": 56,
      "size": 1,
      "price": "1011000000000000000000",
      "reserved": "",
      "salt": "0x70645db4c60de27f7ef7070dc4f4d54e94a990e2a47af661794fc535e6204acf",
      "assetIds": []
    },
    {
      "x": 201,
      "y": 57,
      "size": 1,
      "price": "1011000000000000000000",
      "reserved": "",
      "salt": "0x3c082f0fa6baf4e6f1cb89ae1a176235aed3727abc6d4c1458e140badbbcd5c0",
      "assetIds": []
    },
    {
      "x": 201,
      "y": 58,
      "size": 1,
      "price": "1011000000000000000000",
      "reserved": "",
      "salt": "0xc922b1e6f0bbc04727f66ab0a1c63ffef51ac245e2db713ab8063aeb496fb232",
      "assetIds": []
    },
    {
      "x": 201,
      "y": 59,
      "size": 1,
      "price": "1011000000000000000000",
      "reserved": "",
      "salt": "0xd6cfe97b5708ee3e1bdcf173b30944efe462f1e54478023e5504a3a3a3a0f1d7",
      "assetIds": []
    },
    {
      "x": 202,
      "y": 33,
      "size": 1,
      "price": "1011000000000000000000",
      "reserved": "",
      "salt": "0x69f42b5571deb697431bf3e0ced8689bab1585e77314e3cb8c9ea1c22d0b9c0c",
      "assetIds": []
    },
    {
      "x": 202,
      "y": 34,
      "size": 1,
      "price": "1011000000000000000000",
      "reserved": "0x7a9fe22691c811ea339d9b73150e6911a5343dca",
      "salt": "0xd10d04802063fe32f80ec009b59b4f6a0c51d21ff016168690e98008cdce5005",
      "assetIds": []
    },
    {
      "x": 202,
      "y": 35,
      "size": 1,
      "price": "4683000000000000000000",
      "reserved": "",
      "salt": "0x982caa8402946a9511c75b97d2d0c978166b6e5559c298ce3a53dc0da60a972e",
      "assetIds": [
        "24852169598127774260525153664255483487695641816159501770",
        "24852543742546930971672213807572658856148673734890503626",
        "24852917886966087682819273950889834224601705653621505482"
      ]
    },
    {
      "x": 202,
      "y": 49,
      "size": 1,
      "price": "1011000000000000000000",
      "reserved": "",
      "salt": "0xe58f087f1ad163178175013ec5b4a22aa450a798e0508f7a64517e5345ec78c3",
      "assetIds": []
    },
    {
      "x": 202,
      "y": 50,
      "size": 1,
      "price": "1011000000000000000000",
      "reserved": "",
      "salt": "0x86e0a14a9ca6da1b8bb9e4594d9bbaa9fb7d6c51dec05070b2fba729bc446402",
      "assetIds": []
    },
    {
      "x": 202,
      "y": 54,
      "size": 1,
      "price": "1011000000000000000000",
      "reserved": "",
      "salt": "0x37755b96a6c7c5be0c2cf12535f350154726addfa3e1c7750a76552723d9204e",
      "assetIds": []
    },
    {
      "x": 202,
      "y": 55,
      "size": 1,
      "price": "1011000000000000000000",
      "reserved": "",
      "salt": "0x471bbfd13788c2ff3b5806ec9870b45cea2b08a5259a3e20a24e28a454d2d77f",
      "assetIds": []
    },
    {
      "x": 202,
      "y": 56,
      "size": 1,
      "price": "1011000000000000000000",
      "reserved": "",
      "salt": "0x70c08d5745af8d6e85acda3d4c3e759d26e4aca0ccc936a54ca659fb4c3c4b83",
      "assetIds": []
    },
    {
      "x": 202,
      "y": 57,
      "size": 1,
      "price": "1011000000000000000000",
      "reserved": "",
      "salt": "0x7329fade2a7a4b253295554b6fc8e5c7774cdbe06d7eb5cf697356ac5b2f0be3",
      "assetIds": []
    },
    {
      "x": 202,
      "y": 58,
      "size": 1,
      "price": "1011000000000000000000",
      "reserved": "",
      "salt": "0x867c82919491c8c29c2136cbb7d02838addb30dc8d45ec834e3244eb77b1b7e9",
      "assetIds": []
    },
    {
      "x": 202,
      "y": 59,
      "size": 1,
      "price": "1011000000000000000000",
      "reserved": "",
      "salt": "0x72c6286de0b69db1d9e6765a02d4a9e90a262258c5d287a07108be894f12803a",
      "assetIds": []
    },
    {
      "x": 203,
      "y": 33,
      "size": 1,
      "price": "1011000000000000000000",
      "reserved": "",
      "salt": "0x3d6b5f88fa0e1b8fc7e41f88721da8ff6d44fbf2186784e5104ffbbae74dc923",
      "assetIds": []
    },
    {
      "x": 203,
      "y": 34,
      "size": 1,
      "price": "1011000000000000000000",
      "reserved": "",
      "salt": "0x6024e969b7b846fe0d7a607a7d3117d4d0657d43598643553c560cfdeb9aa91e",
      "assetIds": []
    },
    {
      "x": 203,
      "y": 35,
      "size": 1,
      "price": "1011000000000000000000",
      "reserved": "",
      "salt": "0x4266b4b0a3ee4832f5775b93918ef0ae0fce142021be18ee27609782bd231c50",
      "assetIds": []
    },
    {
      "x": 203,
      "y": 48,
      "size": 1,
      "price": "4683000000000000000000",
      "reserved": "",
      "salt": "0x52a099c997dabc68ada7d4c11058b313bd4fc06397bc39ca09bcd06bbf3a717a",
      "assetIds": [
        "24852169598127774260525153664255483487695641816159501770",
        "24852543742546930971672213807572658856148673734890503626",
        "24852917886966087682819273950889834224601705653621505482"
      ]
    },
    {
      "x": 203,
      "y": 49,
      "size": 1,
      "price": "1011000000000000000000",
      "reserved": "",
      "salt": "0x02b4674ae31d6284432ae793f1a5bf89840753490ef18d4a6915c4f9edb39ca5",
      "assetIds": []
    },
    {
      "x": 203,
      "y": 50,
      "size": 1,
      "price": "1011000000000000000000",
      "reserved": "",
      "salt": "0x68678f7ce4ec2fdad302acb4306b12f11ed3766e835ed882e424109c2e03b501",
      "assetIds": []
    },
    {
      "x": 203,
      "y": 54,
      "size": 1,
      "price": "1011000000000000000000",
      "reserved": "0x7a9fe22691c811ea339d9b73150e6911a5343dca",
      "salt": "0x9f85bcc7e96a3d9366d97910b1d8b07d352ab0ed3fcd31bedf35c4e747e06ea8",
      "assetIds": []
    },
    {
      "x": 203,
      "y": 55,
      "size": 1,
      "price": "1011000000000000000000",
      "reserved": "",
      "salt": "0x93a90a23b74683260f56c4601ec7e99a67fe2a6a45a457fec9d6facbe4d1b9f8",
      "assetIds": []
    },
    {
      "x": 203,
      "y": 56,
      "size": 1,
      "price": "1011000000000000000000",
      "reserved": "",
      "salt": "0xbcd132f6cf580f2a5ba8736c502df7ddf2aa163814573c2e6652ba0c1e9ead9d",
      "assetIds": []
    },
    {
      "x": 203,
      "y": 57,
      "size": 1,
      "price": "1011000000000000000000",
      "reserved": "",
      "salt": "0x165b24423b3d8392bb546033e70c16f247b42fea1e1a4d6fd21108599a96473c",
      "assetIds": []
    },
    {
      "x": 203,
      "y": 58,
      "size": 1,
      "price": "1011000000000000000000",
      "reserved": "",
      "salt": "0xa9861b0f8a87ec9dcdca15ae17909e54584caf962a7eaaa4f1872593a7ab0415",
      "assetIds": []
    },
    {
      "x": 203,
      "y": 59,
      "size": 1,
      "price": "1011000000000000000000",
      "reserved": "",
      "salt": "0xedc1b891d6e128c354f23fe9c2518bbec9de29209bdb260ba7f4984487a22c39",
      "assetIds": []
    },
    {
      "x": 204,
      "y": 33,
      "size": 1,
      "price": "1011000000000000000000",
      "reserved": "",
      "salt": "0x4b989ba6a2ce4ca28bede6966a4256b6307fe497f54602229063dd73ebe371cb",
      "assetIds": []
    },
    {
      "x": 204,
      "y": 34,
      "size": 1,
      "price": "1011000000000000000000",
      "reserved": "",
      "salt": "0xa53cf7b908f124fa81958d32738dd4d33153f3acd49cea9f645b22592fccb670",
      "assetIds": []
    },
    {
      "x": 204,
      "y": 35,
      "size": 1,
      "price": "1011000000000000000000",
      "reserved": "0x7a9fe22691c811ea339d9b73150e6911a5343dca",
      "salt": "0xdd4b7022e716809311694c55896e1648c55869781b15f5df951e021c88e4ec63",
      "assetIds": []
    },
    {
      "x": 204,
      "y": 40,
      "size": 1,
      "price": "4683000000000000000000",
      "reserved": "",
      "salt": "0xbab64d77785b2422fea9d0377d533bbb8c57b56349856d86bb6c9944b23b0c46",
      "assetIds": [
        "24852169598127774260525153664255483487695641816159501770",
        "24852543742546930971672213807572658856148673734890503626",
        "24852917886966087682819273950889834224601705653621505482"
      ]
    },
    {
      "x": 204,
      "y": 42,
      "size": 1,
      "price": "4683000000000000000000",
      "reserved": "",
      "salt": "0xa67571af63bb3f126bb55fb9396d16ad7df89758e6658bafa7954c9b1cf28725",
      "assetIds": [
        "24852169598127774260525153664255483487695641816159501770",
        "24852543742546930971672213807572658856148673734890503626",
        "24852917886966087682819273950889834224601705653621505482"
      ]
    },
    {
      "x": 204,
      "y": 46,
      "size": 1,
      "price": "4683000000000000000000",
      "reserved": "",
      "salt": "0x2375be0be50a0fb77796ffcb8b8e1fb2539bb5d87014c8ea70ac153931d0f1b9",
      "assetIds": [
        "24852169598127774260525153664255483487695641816159501770",
        "24852543742546930971672213807572658856148673734890503626",
        "24852917886966087682819273950889834224601705653621505482"
      ]
    },
    {
      "x": 204,
      "y": 57,
      "size": 1,
      "price": "1011000000000000000000",
      "reserved": "",
      "salt": "0x3c496bb3b55dad8d3c96050dce19de563f480f16f506765b4fe5a904c09109fb",
      "assetIds": []
    },
    {
      "x": 204,
      "y": 58,
      "size": 1,
      "price": "1011000000000000000000",
      "reserved": "",
      "salt": "0x850cf449d88b1ca78e7d15cf2681af39f0b9e731d51feaac5010ec88ccfc169f",
      "assetIds": []
    },
    {
      "x": 204,
      "y": 59,
      "size": 1,
      "price": "1011000000000000000000",
      "reserved": "",
      "salt": "0x386d11b3e48e0b3fe4ae17023b0b8017e6cdc404a595532e13418a64ab5777cc",
      "assetIds": []
    },
    {
      "x": 205,
      "y": 33,
      "size": 1,
      "price": "1011000000000000000000",
      "reserved": "",
      "salt": "0x0ed67081ad597e787513b3042edb05e81e4dbef23f76a61c78a3aa2bdb4bfa1b",
      "assetIds": []
    },
    {
      "x": 205,
      "y": 34,
      "size": 1,
      "price": "1011000000000000000000",
      "reserved": "0x7a9fe22691c811ea339d9b73150e6911a5343dca",
      "salt": "0xbeadac9ffe38e8ba3a2c8180bc74ba40725ab6e5f762a710a824c900a306a0a3",
      "assetIds": []
    },
    {
      "x": 205,
      "y": 35,
      "size": 1,
      "price": "1011000000000000000000",
      "reserved": "",
      "salt": "0x5f572d1256e1979de14732d4d1f501a06d4d83474aa2218003694e73630116cd",
      "assetIds": []
    },
    {
      "x": 205,
      "y": 40,
      "size": 1,
      "price": "1011000000000000000000",
      "reserved": "",
      "salt": "0xf7f6ecfbf78f5c2253ebe3eaaf6ebb514625c37cf43efe9d5a5d5078cfe8ba7c",
      "assetIds": []
    },
    {
      "x": 205,
      "y": 41,
      "size": 1,
      "price": "1011000000000000000000",
      "reserved": "0x7a9fe22691c811ea339d9b73150e6911a5343dca",
      "salt": "0x666185d4e1b5e346380f192b9c2d8eb0a41549cb415a616e6cc8bb7e55967b78",
      "assetIds": []
    },
    {
      "x": 205,
      "y": 42,
      "size": 1,
      "price": "1011000000000000000000",
      "reserved": "",
      "salt": "0x9114c7b57904c37515683554a56b82b1e7db1b5a3bdb9eb670829498a946b747",
      "assetIds": []
    },
    {
      "x": 205,
      "y": 43,
      "size": 1,
      "price": "1011000000000000000000",
      "reserved": "",
      "salt": "0x34f978b1183299d33a6b2623113715d16bffc850aa7a413347e58d3527469800",
      "assetIds": []
    },
    {
      "x": 205,
      "y": 44,
      "size": 1,
      "price": "1011000000000000000000",
      "reserved": "",
      "salt": "0x2897a0637f79de0c4f64b5496b1701fadea0bb81dbfdbf1fe5d6abfbc5411528",
      "assetIds": []
    },
    {
      "x": 205,
      "y": 45,
      "size": 1,
      "price": "1011000000000000000000",
      "reserved": "",
      "salt": "0x879ad56f3e0dccfe1a21b011d3aece1c40cf0360908f3316ed8566e827b5b1bd",
      "assetIds": []
    },
    {
      "x": 205,
      "y": 46,
      "size": 1,
      "price": "1011000000000000000000",
      "reserved": "0x7a9fe22691c811ea339d9b73150e6911a5343dca",
      "salt": "0xa20632a0b199ca81e6675783b156c69cd4f4ef5dce4af9d10de79943c732387e",
      "assetIds": []
    },
    {
      "x": 205,
      "y": 47,
      "size": 1,
      "price": "1011000000000000000000",
      "reserved": "",
      "salt": "0x7adee5bf2f0637880877b3fd4a821e500a0d62cc6ac1711557c1e6447e3678b8",
      "assetIds": []
    },
    {
      "x": 205,
      "y": 57,
      "size": 1,
      "price": "1011000000000000000000",
      "reserved": "",
      "salt": "0x75269e5df3ee40bcd0602246e92ae2c61a222e03599e5d40648bb04fea053aee",
      "assetIds": []
    },
    {
      "x": 205,
      "y": 59,
      "size": 1,
      "price": "1011000000000000000000",
      "reserved": "",
      "salt": "0xe1ef0c3a8eb10ed1612a073c94ed539ecabadffc8950eb55462ffcc2945d1ba2",
      "assetIds": []
    },
    {
      "x": 206,
      "y": 33,
      "size": 1,
      "price": "1011000000000000000000",
      "reserved": "",
      "salt": "0x73b815c94b39ca184cd7fba4f3d67890d3008ffa9701d5c39937cd8565fcd68a",
      "assetIds": []
    },
    {
      "x": 206,
      "y": 34,
      "size": 1,
      "price": "1011000000000000000000",
      "reserved": "",
      "salt": "0x64dedbc2831be6b09c5066243973bbebc368c673d258e14ba9d3d4b772933eb4",
      "assetIds": []
    },
    {
      "x": 206,
      "y": 35,
      "size": 1,
      "price": "1011000000000000000000",
      "reserved": "",
      "salt": "0x4e837b5c022a20e851da33b818627399af8052ec96bd17b2189ecf0f7ec0f6da",
      "assetIds": []
    },
    {
      "x": 206,
      "y": 39,
      "size": 1,
      "price": "1011000000000000000000",
      "reserved": "",
      "salt": "0x23a5d22513ae5ed0d228611b0ab725eda45e6d30e6d601400d0b4ed17a9e61ef",
      "assetIds": []
    },
    {
      "x": 206,
      "y": 40,
      "size": 1,
      "price": "1011000000000000000000",
      "reserved": "",
      "salt": "0x9ebd39fbf4a59c8e681b29ee1c5034abe30ec4932c6c6ed7903e707d0af244ae",
      "assetIds": []
    },
    {
      "x": 206,
      "y": 41,
      "size": 1,
      "price": "1011000000000000000000",
      "reserved": "",
      "salt": "0xeb36b65d5121ee4a9464169a726ca4822a0f657e24c848f5a0606caa8d41b341",
      "assetIds": []
    },
    {
      "x": 206,
      "y": 42,
      "size": 1,
      "price": "1011000000000000000000",
      "reserved": "",
      "salt": "0x7c8cae1271b370f1acb1b82c3298d373588a425c43d9bbca70559df669d25089",
      "assetIds": []
    },
    {
      "x": 206,
      "y": 43,
      "size": 1,
      "price": "1011000000000000000000",
      "reserved": "",
      "salt": "0x65813c00fa3ccef34fbbd0e880d975aca2417a9c3f0ae58802ee68312cbbbab1",
      "assetIds": []
    },
    {
      "x": 206,
      "y": 44,
      "size": 1,
      "price": "1011000000000000000000",
      "reserved": "",
      "salt": "0xcd992fa4c5cea141bdb08ff16f5a6644a56258e7a55187abf53a69896c032ba0",
      "assetIds": []
    },
    {
      "x": 206,
      "y": 45,
      "size": 1,
      "price": "1011000000000000000000",
      "reserved": "",
      "salt": "0xcca57346b1f96b0b877ecc298e0309969b713d1f7cb4ec8971ebeee8b0b32add",
      "assetIds": []
    },
    {
      "x": 206,
      "y": 46,
      "size": 1,
      "price": "1011000000000000000000",
      "reserved": "",
      "salt": "0xb20d1f6fad077ec78909074093f4f85c19754d185400328c678264303074758a",
      "assetIds": []
    },
    {
      "x": 206,
      "y": 47,
      "size": 1,
      "price": "1011000000000000000000",
      "reserved": "",
      "salt": "0x0e288b72a63ba361ab34e623d79cdd9f017a32c0552a945a8f76d7592a3051ce",
      "assetIds": []
    },
    {
      "x": 206,
      "y": 57,
      "size": 1,
      "price": "1011000000000000000000",
      "reserved": "",
      "salt": "0xb1fc4d222aa838373d0768947995d5d1e0efd3c2e203c5d7c6589b7b87e8021d",
      "assetIds": []
    },
    {
      "x": 206,
      "y": 58,
      "size": 1,
      "price": "1011000000000000000000",
      "reserved": "",
      "salt": "0x05cefbc94f2712c4309d12f002c2405c8a302ddc61dfc3100321b98aa7ff3fab",
      "assetIds": []
    },
    {
      "x": 206,
      "y": 59,
      "size": 1,
      "price": "1011000000000000000000",
      "reserved": "",
      "salt": "0xde487b1b7128dbb761a77f2bd80e6236a61fcd9b8ed449fbd2966d2463481eea",
      "assetIds": []
    },
    {
      "x": 207,
      "y": 33,
      "size": 1,
      "price": "1011000000000000000000",
      "reserved": "",
      "salt": "0xa61b6d922add824dedba4092bbb8b994ca7efa72c311b72d10c78977597c55c5",
      "assetIds": []
    },
    {
      "x": 207,
      "y": 34,
      "size": 1,
      "price": "1011000000000000000000",
      "reserved": "",
      "salt": "0xe4fe6ec9cf23974bed59dad7cc81a3d3b774624b6394d7a540e761ae4fd7a31d",
      "assetIds": []
    },
    {
      "x": 207,
      "y": 35,
      "size": 1,
      "price": "1011000000000000000000",
      "reserved": "",
      "salt": "0xb197e6d71b1204852b502495f67d0e72fc216bc415e2d0b36adf8e522b52969b",
      "assetIds": []
    },
    {
      "x": 207,
      "y": 36,
      "size": 1,
      "price": "1011000000000000000000",
      "reserved": "",
      "salt": "0xeef03c244ca08b296c5c4b1ea7c5f78d88545dc08502931484b545d5b666cabe",
      "assetIds": []
    },
    {
      "x": 207,
      "y": 37,
      "size": 1,
      "price": "1011000000000000000000",
      "reserved": "",
      "salt": "0x4310c21533bd00f385e386ef0d675662d0c2b8b19ed9c37060c757f7267318cd",
      "assetIds": []
    },
    {
      "x": 207,
      "y": 38,
      "size": 1,
      "price": "1011000000000000000000",
      "reserved": "",
      "salt": "0x37f8b590ba96040b8b71ecf710be48e23e97bc3db0c765758a2244c79f8d0c71",
      "assetIds": []
    },
    {
      "x": 207,
      "y": 39,
      "size": 1,
      "price": "1011000000000000000000",
      "reserved": "",
      "salt": "0x79bc2631167d2cf29598cfbe35cc19ded69f566002bb33ed51407976b4ee1cbb",
      "assetIds": []
    },
    {
      "x": 207,
      "y": 40,
      "size": 1,
      "price": "1011000000000000000000",
      "reserved": "",
      "salt": "0xd2a0e7ecae908c82e52a6dc507b12c3dcdd70011c916e48994add82dbbebdd6f",
      "assetIds": []
    },
    {
      "x": 207,
      "y": 41,
      "size": 1,
      "price": "1011000000000000000000",
      "reserved": "",
      "salt": "0xed1b02dc9cedf51148189503a75ea6f63413ea7b09e637f9e1d75df76f5c1e53",
      "assetIds": []
    },
    {
      "x": 207,
      "y": 42,
      "size": 1,
      "price": "1011000000000000000000",
      "reserved": "",
      "salt": "0xfe1774610de60b83fafdb7ed3fac479a576a8110de6283d87de5cd5d37e998ed",
      "assetIds": []
    },
    {
      "x": 207,
      "y": 43,
      "size": 1,
      "price": "1011000000000000000000",
      "reserved": "",
      "salt": "0x0f3927299c7bed752fec29f95a663d275b3ac2e309c224b22b9e05ab873e4ee3",
      "assetIds": []
    },
    {
      "x": 207,
      "y": 44,
      "size": 1,
      "price": "1011000000000000000000",
      "reserved": "",
      "salt": "0xb6ddb935dfdeeb08ce3ac350c1383697162428e32284e717f4e9993147edd360",
      "assetIds": []
    },
    {
      "x": 207,
      "y": 45,
      "size": 1,
      "price": "1011000000000000000000",
      "reserved": "",
      "salt": "0x745dab46f3c2faf55db79c5535dd15b9873cdb458fc1a631f158f29aa554492a",
      "assetIds": []
    },
    {
      "x": 207,
      "y": 46,
      "size": 1,
      "price": "1011000000000000000000",
      "reserved": "",
      "salt": "0x2c4ee5045898651f5d503749458c3b618be6f855d6adc95becba545d35288a41",
      "assetIds": []
    },
    {
      "x": 207,
      "y": 47,
      "size": 1,
      "price": "1011000000000000000000",
      "reserved": "",
      "salt": "0x5c08b98da1fc4e24e7eec8b511c95ddc8a985e1c3c4a2e1dcb6b686691f6a4f0",
      "assetIds": []
    },
    {
      "x": 207,
      "y": 57,
      "size": 1,
      "price": "1011000000000000000000",
      "reserved": "",
      "salt": "0xd30af4b7a60a710e027d9aa94494d8a2e06c5783cbe1dd2479e3946e817edf97",
      "assetIds": []
    },
    {
      "x": 207,
      "y": 58,
      "size": 1,
      "price": "1011000000000000000000",
      "reserved": "",
      "salt": "0xc7389796cfc9d93f09300ab22d6e056b521a362379be2f1a6c4dc78c630ef065",
      "assetIds": []
    },
    {
      "x": 207,
      "y": 59,
      "size": 1,
      "price": "1011000000000000000000",
      "reserved": "",
      "salt": "0x29bf31a035f7f414429fe79b5c3769e80e6479e93e7c3c8bed8040cb588ff3c6",
      "assetIds": []
    },
    {
      "x": 208,
      "y": 33,
      "size": 1,
      "price": "1011000000000000000000",
      "reserved": "",
      "salt": "0x2bdf3b8e49e9e8168548b5214b136c61bee43ad828df0be13f08f101e6923095",
      "assetIds": []
    },
    {
      "x": 208,
      "y": 34,
      "size": 1,
      "price": "1011000000000000000000",
      "reserved": "0x7a9fe22691c811ea339d9b73150e6911a5343dca",
      "salt": "0x43f1f409018a234dc8550403a6e0638b86c9656dc13c8cde6188d77ee20d0e0f",
      "assetIds": []
    },
    {
      "x": 208,
      "y": 35,
      "size": 1,
      "price": "1011000000000000000000",
      "reserved": "",
      "salt": "0x37a0544f6287bd513098d5e9e10d4c4e0148fe780c1906d3e643552ed5e995d6",
      "assetIds": []
    },
    {
      "x": 208,
      "y": 36,
      "size": 1,
      "price": "1011000000000000000000",
      "reserved": "",
      "salt": "0xbe73f20486bd79c7b787c0e50ab604dfde96b18763f47712f6d0eb3f6a8c4b6f",
      "assetIds": []
    },
    {
      "x": 208,
      "y": 37,
      "size": 1,
      "price": "1011000000000000000000",
      "reserved": "",
      "salt": "0xc4ce5c26b574cd0b6e65ab4d3b4b5c950444f96dba95328d49d427ca6022c523",
      "assetIds": []
    },
    {
      "x": 208,
      "y": 38,
      "size": 1,
      "price": "1011000000000000000000",
      "reserved": "",
      "salt": "0xe669a5f63fbd0a3964fa649ebdd23485605b1fa2e82231fed14fe3edccfe2b80",
      "assetIds": []
    },
    {
      "x": 208,
      "y": 39,
      "size": 1,
      "price": "1011000000000000000000",
      "reserved": "0x7a9fe22691c811ea339d9b73150e6911a5343dca",
      "salt": "0x3240f9c2c614bef0c3566a94c2767f830526fae4359a2aa51465b6ed39cd8fb2",
      "assetIds": []
    },
    {
      "x": 208,
      "y": 40,
      "size": 1,
      "price": "1011000000000000000000",
      "reserved": "",
      "salt": "0x18ac8bc01543755f1c66394b94177a0608a46c8cbb298e1121ddb319e7c0fbf3",
      "assetIds": []
    },
    {
      "x": 208,
      "y": 41,
      "size": 1,
      "price": "1011000000000000000000",
      "reserved": "",
      "salt": "0xb635bbedf2ec4aeb2d3479b25893e7a8cfa779354f142bc94d2d47f04e18f750",
      "assetIds": []
    },
    {
      "x": 208,
      "y": 42,
      "size": 1,
      "price": "1011000000000000000000",
      "reserved": "",
      "salt": "0x243eb018e40020ad6cc539606a110dfefb9bbf8241792c50c01485f7d8503f87",
      "assetIds": []
    },
    {
      "x": 208,
      "y": 43,
      "size": 1,
      "price": "1011000000000000000000",
      "reserved": "0x7a9fe22691c811ea339d9b73150e6911a5343dca",
      "salt": "0x336df2218c90c86a254a653a7784b62f46baf71eb9bb56d7c594f8b8a13e663d",
      "assetIds": []
    },
    {
      "x": 208,
      "y": 44,
      "size": 1,
      "price": "1011000000000000000000",
      "reserved": "",
      "salt": "0x948438892833ec7a014b48b923290f3f9684fc0938c226a9b8e09958355ab157",
      "assetIds": []
    },
    {
      "x": 208,
      "y": 45,
      "size": 1,
      "price": "1011000000000000000000",
      "reserved": "",
      "salt": "0xfab1fc46db1ab0f8b380293f1147e580b0ad0c9c55a14985aa14ec4b3dcfe27e",
      "assetIds": []
    },
    {
      "x": 208,
      "y": 46,
      "size": 1,
      "price": "1011000000000000000000",
      "reserved": "0x7a9fe22691c811ea339d9b73150e6911a5343dca",
      "salt": "0xe5cce86107b0147ceb228045cd81de2ab538d88d37e7b0ba2b4d983ead065be8",
      "assetIds": []
    },
    {
      "x": 208,
      "y": 47,
      "size": 1,
      "price": "1011000000000000000000",
      "reserved": "",
      "salt": "0xfd7f0310f5e11aa8ecaa0e00450567000c4ca6d3ff351c420eb04dd7ca0df154",
      "assetIds": []
    },
    {
      "x": 208,
      "y": 57,
      "size": 1,
      "price": "1011000000000000000000",
      "reserved": "",
      "salt": "0x8c45b6219b311b4cd52d85c67b700bb97dd2f116fbcfc914d42e8253acf83a67",
      "assetIds": []
    },
    {
      "x": 208,
      "y": 58,
      "size": 1,
      "price": "1011000000000000000000",
      "reserved": "0x7a9fe22691c811ea339d9b73150e6911a5343dca",
      "salt": "0x11d9032003f6bb135fa5f85c5996c19e1cf78f69e31ca012cbb3c7ec2c33fc42",
      "assetIds": []
    },
    {
      "x": 208,
      "y": 59,
      "size": 1,
      "price": "1011000000000000000000",
      "reserved": "",
      "salt": "0xa16f449490efaf556e8abe29257c0d92dcdc3e96fb45104514235d09fe39888f",
      "assetIds": []
    },
    {
      "x": 209,
      "y": 33,
      "size": 1,
      "price": "1011000000000000000000",
      "reserved": "",
      "salt": "0xf26139841486f1851b3a731951c7532e908e894269e899d35f5202cf226db167",
      "assetIds": []
    },
    {
      "x": 209,
      "y": 34,
      "size": 1,
      "price": "1011000000000000000000",
      "reserved": "",
      "salt": "0x7de9ec602be9968c84953695ec998d2b6bcc0a0c920094c72aa8a6f17d7ae611",
      "assetIds": []
    },
    {
      "x": 209,
      "y": 35,
      "size": 1,
      "price": "1011000000000000000000",
      "reserved": "",
      "salt": "0x646a9fdbce750da4b337bd2e2b5e674f46a779f7896ec4e1dc0b2e9b136515b6",
      "assetIds": []
    },
    {
      "x": 209,
      "y": 36,
      "size": 1,
      "price": "1011000000000000000000",
      "reserved": "",
      "salt": "0x5b50db4b6154a84559d7d6c086f19ed9c66573ac12583399af895b38c9cb3941",
      "assetIds": []
    },
    {
      "x": 209,
      "y": 37,
      "size": 1,
      "price": "1011000000000000000000",
      "reserved": "",
      "salt": "0x02f0a6ab1768f27101ba640641bf3bf7431cff3083f8b199ec1b09151ddaece8",
      "assetIds": []
    },
    {
      "x": 209,
      "y": 38,
      "size": 1,
      "price": "1011000000000000000000",
      "reserved": "",
      "salt": "0x12b768aa7f0bd425e4c8df2d3d9686fd1cd26f8d6fe9798549da40be25e55b87",
      "assetIds": []
    },
    {
      "x": 209,
      "y": 39,
      "size": 1,
      "price": "1011000000000000000000",
      "reserved": "",
      "salt": "0xe05e7e363d71523dbd55a18d82021adbbbd02235916bdda30874824996296df3",
      "assetIds": []
    },
    {
      "x": 209,
      "y": 40,
      "size": 1,
      "price": "1011000000000000000000",
      "reserved": "",
      "salt": "0xb8cab96cb98d0550667f0b7b07a89b1631bd95bc68af6595273af9015062c04e",
      "assetIds": []
    },
    {
      "x": 209,
      "y": 41,
      "size": 1,
      "price": "1011000000000000000000",
      "reserved": "",
      "salt": "0xe049b60023aa4f0e8c16445635c59c7868fd1b5d6d218e8a27a6835427031a0f",
      "assetIds": []
    },
    {
      "x": 209,
      "y": 42,
      "size": 1,
      "price": "1011000000000000000000",
      "reserved": "",
      "salt": "0xde1abce7803f4d9ceb5476fba239d75ac96402a746fabd27f33797a388eb1afc",
      "assetIds": []
    },
    {
      "x": 209,
      "y": 43,
      "size": 1,
      "price": "1011000000000000000000",
      "reserved": "",
      "salt": "0x33b58c07e7b48040e03fb563cba192c68cc6779d8e869c63cec01e3b64a85e3f",
      "assetIds": []
    },
    {
      "x": 209,
      "y": 44,
      "size": 1,
      "price": "1011000000000000000000",
      "reserved": "",
      "salt": "0x64f709c520375679a9a0a98572fab099290a3c6cad048a13cd204b202f5d4126",
      "assetIds": []
    },
    {
      "x": 209,
      "y": 45,
      "size": 1,
      "price": "1011000000000000000000",
      "reserved": "",
      "salt": "0x7f567b7d9335dc01380ddd0d03e81496a044ab4a25d83980dc36a6616d889483",
      "assetIds": []
    },
    {
      "x": 209,
      "y": 46,
      "size": 1,
      "price": "1011000000000000000000",
      "reserved": "",
      "salt": "0xfc27a456ed5ffd492ce809cdec372b5e94e2e4a5fd92f1cfe86024147d72a957",
      "assetIds": []
    },
    {
      "x": 209,
      "y": 47,
      "size": 1,
      "price": "1011000000000000000000",
      "reserved": "",
      "salt": "0x9f79a98e85f7a2f319a41cbb7f2bb30638c897e0dd03d0f244fa8884cb362384",
      "assetIds": []
    },
    {
      "x": 209,
      "y": 57,
      "size": 1,
      "price": "1011000000000000000000",
      "reserved": "",
      "salt": "0x6ae0873f03efe6d05a997493a79ca94d965961f95b383d2da37a6e537906a1f2",
      "assetIds": []
    },
    {
      "x": 209,
      "y": 58,
      "size": 1,
      "price": "1011000000000000000000",
      "reserved": "",
      "salt": "0x75b9267545c5aafe0fb0a8dea738ac9713a8cb194d15d4707c0f2b3666c76f7c",
      "assetIds": []
    },
    {
      "x": 209,
      "y": 59,
      "size": 1,
      "price": "1011000000000000000000",
      "reserved": "",
      "salt": "0xeae7f6d01441355c0e0f1633229a276f4adde9a75b699234d4705895b9ccb21e",
      "assetIds": []
    },
    {
      "x": 210,
      "y": 36,
      "size": 1,
      "price": "1011000000000000000000",
      "reserved": "",
      "salt": "0xd1f74b8c53071961fc3310a573db4715fd088cb567ea1a6a68c17ff073084653",
      "assetIds": []
    },
    {
      "x": 210,
      "y": 37,
      "size": 1,
      "price": "1011000000000000000000",
      "reserved": "",
      "salt": "0x76d7a6e7d35c49d5eec09bd475dc0f4e410b835e263741b99c415117329f7fef",
      "assetIds": []
    },
    {
      "x": 210,
      "y": 38,
      "size": 1,
      "price": "1011000000000000000000",
      "reserved": "",
      "salt": "0x5c8b6b45ad3a6c34bc7ada8ad74bb89d2bb33fca81351b81355e5d59f4c70fcc",
      "assetIds": []
    },
    {
      "x": 210,
      "y": 39,
      "size": 1,
      "price": "1011000000000000000000",
      "reserved": "",
      "salt": "0xc106309c31b80fbabfb7f640e8a85d2230716c4506a086fa1315d7e625ebae73",
      "assetIds": []
    },
    {
      "x": 210,
      "y": 40,
      "size": 1,
      "price": "1011000000000000000000",
      "reserved": "",
      "salt": "0x2a61fb7df0c3637ba8575f342c5e3051b59e8735a146636ed593f0cf53fe9975",
      "assetIds": []
    },
    {
      "x": 210,
      "y": 41,
      "size": 1,
      "price": "1011000000000000000000",
      "reserved": "0x7a9fe22691c811ea339d9b73150e6911a5343dca",
      "salt": "0x0e1a9ba4a2b8c2890d1c67a196698fe4da1d4c7e2938242a356dd25642d4c8ed",
      "assetIds": []
    },
    {
      "x": 210,
      "y": 48,
      "size": 1,
      "price": "1011000000000000000000",
      "reserved": "",
      "salt": "0xa1806a5e8bd582e0ee6e66c0dd5715e5a3a46ec11d743f034c4f7fe96fbc5bf7",
      "assetIds": []
    },
    {
      "x": 210,
      "y": 49,
      "size": 1,
      "price": "1011000000000000000000",
      "reserved": "",
      "salt": "0xbb0b99e54d5372500377c6b0c931c3d753d7008cf6c55e4748c61f7eb59290dd",
      "assetIds": []
    },
    {
      "x": 210,
      "y": 50,
      "size": 1,
      "price": "1011000000000000000000",
      "reserved": "",
      "salt": "0x050c665f0009cb4f6c59f5a45736bf5d1acb968dd62dd3dbe7a78f56d455a320",
      "assetIds": []
    },
    {
      "x": 210,
      "y": 51,
      "size": 1,
      "price": "1011000000000000000000",
      "reserved": "",
      "salt": "0xbf85962ba595057ec00e3cb738c4aad006d2da4bb717f11c7223236db32e4336",
      "assetIds": []
    },
    {
      "x": 210,
      "y": 52,
      "size": 1,
      "price": "1011000000000000000000",
      "reserved": "",
      "salt": "0xb9303b0b9a0d164e9f31eab7fe481fd58e04fc170d7e84373d7ed6b2c48844c6",
      "assetIds": []
    },
    {
      "x": 210,
      "y": 53,
      "size": 1,
      "price": "1011000000000000000000",
      "reserved": "",
      "salt": "0xdfd5e4fb3cc3bf6cbbd4d3fe03cdc8098a80e46b38faba01483c2f67438372de",
      "assetIds": []
    },
    {
      "x": 210,
      "y": 57,
      "size": 1,
      "price": "4683000000000000000000",
      "reserved": "",
      "salt": "0xa2d59c2d85b958962a077e56479b3b4f30da11af79c921895a024a34d781656f",
      "assetIds": [
        "24853292031385244393966334094207009593054737572352507338",
        "24854040320223557816260454380841360329960801409814511050"
      ]
    },
    {
      "x": 210,
      "y": 58,
      "size": 1,
      "price": "1011000000000000000000",
      "reserved": "",
      "salt": "0x8d1470bcbeffaf5c0d19c3e4813b7be7a075d26f62e4f5a60c179736ebc4948e",
      "assetIds": []
    },
    {
      "x": 210,
      "y": 59,
      "size": 1,
      "price": "1011000000000000000000",
      "reserved": "",
      "salt": "0xd4b9ea37b62bf3bef40b9c2b61b6d4064be41913fc0bf72df6eda71b8bdeebab",
      "assetIds": []
    },
    {
      "x": 211,
      "y": 36,
      "size": 1,
      "price": "1011000000000000000000",
      "reserved": "",
      "salt": "0xf616066fb169fd8acec95eaf7743db9e7e825dc50b4ffd09ee2f2a5e5c585edc",
      "assetIds": []
    },
    {
      "x": 211,
      "y": 37,
      "size": 1,
      "price": "1011000000000000000000",
      "reserved": "0x7a9fe22691c811ea339d9b73150e6911a5343dca",
      "salt": "0x60e5479c952c2eb5f47724c68b3b23180822f27495cb705f0a806c3db6f9c3d3",
      "assetIds": []
    },
    {
      "x": 211,
      "y": 38,
      "size": 1,
      "price": "1011000000000000000000",
      "reserved": "",
      "salt": "0x5b1c84b52a916e77e6a1d296952d6b4404ade73a99a9e470ba56fecde0870caa",
      "assetIds": []
    },
    {
      "x": 211,
      "y": 39,
      "size": 1,
      "price": "1011000000000000000000",
      "reserved": "",
      "salt": "0xcefee7221a12a1b442d6c23a20b63c03dff32c67ef73ecfd70a0dc9d5d0801cf",
      "assetIds": []
    },
    {
      "x": 211,
      "y": 40,
      "size": 1,
      "price": "1011000000000000000000",
      "reserved": "",
      "salt": "0x00d722466bb586912d12e4977bdee6f3cf0cf1d5c593ca509a18f669aec6e92a",
      "assetIds": []
    },
    {
      "x": 211,
      "y": 41,
      "size": 1,
      "price": "1011000000000000000000",
      "reserved": "",
      "salt": "0x0e005a9110684f9923d315fa0a7202bd555878cfa46540d7363bd9d7517e40e1",
      "assetIds": []
    },
    {
      "x": 211,
      "y": 48,
      "size": 1,
      "price": "1011000000000000000000",
      "reserved": "",
      "salt": "0x7272761f39d9a95d56057c1de8cd1dd5c3b53c9ba400eb70b1fe321c76894ee7",
      "assetIds": []
    },
    {
      "x": 211,
      "y": 49,
      "size": 1,
      "price": "1011000000000000000000",
      "reserved": "",
      "salt": "0xe0c3d1e4414c130d78bc33163addfa321b7021a65f80195dfb4d2d989b9c9cd4",
      "assetIds": []
    },
    {
      "x": 211,
      "y": 50,
      "size": 1,
      "price": "1011000000000000000000",
      "reserved": "",
      "salt": "0x1ed50dc35744c88f5852017532b162be9fb899208f374575279a0e35ff9c2e8a",
      "assetIds": []
    },
    {
      "x": 211,
      "y": 51,
      "size": 1,
      "price": "1011000000000000000000",
      "reserved": "",
      "salt": "0x29d06850a4f6d371d4f80786c7073ad24fe9d6e618c8250a21061e6359e93bf0",
      "assetIds": []
    },
    {
      "x": 211,
      "y": 52,
      "size": 1,
      "price": "1011000000000000000000",
      "reserved": "",
      "salt": "0x96146c84b034d87ad874729e20dc3ab3893d61765b8ea19d494aaa88a9629773",
      "assetIds": []
    },
    {
      "x": 211,
      "y": 53,
      "size": 1,
      "price": "4683000000000000000000",
      "reserved": "",
      "salt": "0xf26aecbb08773f05064fba724b2fc92c787fc8b9463eb1767e934510d7d453bd",
      "assetIds": [
        "24853292031385244393966334094207009593054737572352507338",
        "24854040320223557816260454380841360329960801409814511050"
      ]
    },
    {
      "x": 211,
      "y": 57,
      "size": 1,
      "price": "4683000000000000000000",
      "reserved": "",
      "salt": "0xf75e98be55e1de33e6d19b024df79cab7da18b457da31c653c8110cf1d7f0014",
      "assetIds": [
        "24853292031385244393966334094207009593054737572352507338",
        "24854040320223557816260454380841360329960801409814511050"
      ]
    },
    {
      "x": 211,
      "y": 58,
      "size": 1,
      "price": "1011000000000000000000",
      "reserved": "",
      "salt": "0xf27b0227b326714032a3bc63a99c4e22b45287629671573f9e0a1c988aa28435",
      "assetIds": []
    },
    {
      "x": 211,
      "y": 59,
      "size": 1,
      "price": "1011000000000000000000",
      "reserved": "",
      "salt": "0x21aeae2b903018d8fe1049e2f6d0e5f7453ee02a2f135d1acdcda71bb5ccc9c5",
      "assetIds": []
    },
    {
      "x": 212,
      "y": 36,
      "size": 1,
      "price": "1011000000000000000000",
      "reserved": "",
      "salt": "0x7767d8661e0681292cef7528d8398a35faaf5e9a7fe44589e6cb0671815ccb2b",
      "assetIds": []
    },
    {
      "x": 212,
      "y": 37,
      "size": 1,
      "price": "1011000000000000000000",
      "reserved": "",
      "salt": "0xf92e93a145ad7827f4bf81a2b63000df9d22552c9d2f40c8a41fced74cf758d0",
      "assetIds": []
    },
    {
      "x": 212,
      "y": 38,
      "size": 1,
      "price": "1011000000000000000000",
      "reserved": "",
      "salt": "0x02418f29c5eda7c151357d3c9ac5bb8dfb52e7db774d6adeb9bd34b240ef8e91",
      "assetIds": []
    },
    {
      "x": 212,
      "y": 39,
      "size": 1,
      "price": "1011000000000000000000",
      "reserved": "",
      "salt": "0x8e2606297b382641ad0c0fc653cd61388ce4517aa1779bfcff1b5dcd59f97deb",
      "assetIds": []
    },
    {
      "x": 212,
      "y": 40,
      "size": 1,
      "price": "1011000000000000000000",
      "reserved": "",
      "salt": "0x418301e06e93c70e7b0bc040f3d96bfab0408e7d149dde8a6793376f74b12148",
      "assetIds": []
    },
    {
      "x": 212,
      "y": 41,
      "size": 1,
      "price": "1011000000000000000000",
      "reserved": "",
      "salt": "0x9f8d1fed24963e1579b16c0f5d59637d584897ef240965072326f1dd574ffbd9",
      "assetIds": []
    },
    {
      "x": 212,
      "y": 48,
      "size": 1,
      "price": "1011000000000000000000",
      "reserved": "0x7a9fe22691c811ea339d9b73150e6911a5343dca",
      "salt": "0xbaec0a73b886226c2116249d387a2df9e7120c555f436f425f2046e75aac337a",
      "assetIds": []
    },
    {
      "x": 212,
      "y": 49,
      "size": 1,
      "price": "1011000000000000000000",
      "reserved": "",
      "salt": "0x396f7b1071c5a6d18509dba404d89b276e49442c5ceac99afde8c27baed1a79f",
      "assetIds": []
    },
    {
      "x": 212,
      "y": 50,
      "size": 1,
      "price": "1011000000000000000000",
      "reserved": "",
      "salt": "0x0345f3f6a5f495ffdb48363636192eedda31d2cd67701de941179ff19e81e89c",
      "assetIds": []
    },
    {
      "x": 212,
      "y": 51,
      "size": 1,
      "price": "1011000000000000000000",
      "reserved": "0x7a9fe22691c811ea339d9b73150e6911a5343dca",
      "salt": "0x17ed440e5061b622c6badbf6fc217ce29867631fefdbbd4a09a9867efe9a02d5",
      "assetIds": []
    },
    {
      "x": 212,
      "y": 52,
      "size": 1,
      "price": "1011000000000000000000",
      "reserved": "",
      "salt": "0x18b2627ded4a8c00e9f015e7b2037f970a06c4294d01dd7b31f08577fb3fb2ce",
      "assetIds": []
    },
    {
      "x": 212,
      "y": 53,
      "size": 1,
      "price": "4683000000000000000000",
      "reserved": "",
      "salt": "0x7f263654c6ad367627e9cd2ece207679d27894b5b97ae66a7c17fbea15eb561d",
      "assetIds": [
        "24853292031385244393966334094207009593054737572352507338",
        "24854040320223557816260454380841360329960801409814511050"
      ]
    },
    {
      "x": 212,
      "y": 57,
      "size": 1,
      "price": "1011000000000000000000",
      "reserved": "0x7a9fe22691c811ea339d9b73150e6911a5343dca",
      "salt": "0x771f0b1d57ae94f3bcfc0ae8c76adbb6449b8fdcddae0deded8c8bbc77d30fd3",
      "assetIds": []
    },
    {
      "x": 212,
      "y": 58,
      "size": 1,
      "price": "1011000000000000000000",
      "reserved": "",
      "salt": "0xd0dac090afe48fa06b81f013b411ca6e752e1c2ef3460767e00dbad3c868b275",
      "assetIds": []
    },
    {
      "x": 212,
      "y": 59,
      "size": 1,
      "price": "1011000000000000000000",
      "reserved": "",
      "salt": "0xd2c99845cbb8c27b0fd65eaef1ca0f9ec309a25411897762793ff07d362e4c53",
      "assetIds": []
    },
    {
      "x": 213,
      "y": 36,
      "size": 1,
      "price": "1011000000000000000000",
      "reserved": "",
      "salt": "0x339d3f39f2131f5cffef4dc7aefe7f3023ffd43a3464edc73113bff2da14e611",
      "assetIds": []
    },
    {
      "x": 213,
      "y": 37,
      "size": 1,
      "price": "1011000000000000000000",
      "reserved": "",
      "salt": "0x2f2688bc3e3c91ab220f5d3a90bc1b7ab2dad896d9180127f6dc211c47786457",
      "assetIds": []
    },
    {
      "x": 213,
      "y": 38,
      "size": 1,
      "price": "1011000000000000000000",
      "reserved": "",
      "salt": "0x9c18edaaa92fe140c3d86d76f1ea23162aa84547e603cd100631954ad5e6c232",
      "assetIds": []
    },
    {
      "x": 213,
      "y": 39,
      "size": 1,
      "price": "1011000000000000000000",
      "reserved": "",
      "salt": "0x2b489edbfcb7103ab144125bf4320612faa1fbbde2ec93a19cfd680a1aa1f6d6",
      "assetIds": []
    },
    {
      "x": 213,
      "y": 40,
      "size": 1,
      "price": "1011000000000000000000",
      "reserved": "",
      "salt": "0x603c36a94855aff0a5275174c2e48020ebb1cc82416b091b3d88da4087bd6277",
      "assetIds": []
    },
    {
      "x": 213,
      "y": 41,
      "size": 1,
      "price": "1011000000000000000000",
      "reserved": "0x7a9fe22691c811ea339d9b73150e6911a5343dca",
      "salt": "0xd4e8bcb9ad7043f5f5cd7a00276a189a2a49c47d92101d64363dc6ffac911edc",
      "assetIds": []
    },
    {
      "x": 213,
      "y": 51,
      "size": 1,
      "price": "1011000000000000000000",
      "reserved": "",
      "salt": "0x9a9a1648ad59124f23a0b8d1ee5e870ffec020d21332534b376d9ccd6331988a",
      "assetIds": []
    },
    {
      "x": 213,
      "y": 52,
      "size": 1,
      "price": "1011000000000000000000",
      "reserved": "",
      "salt": "0x51732550010e32ad962161b5e384e195d56415aa7248f74896e586d127c9c7f6",
      "assetIds": []
    },
    {
      "x": 213,
      "y": 53,
      "size": 1,
      "price": "1011000000000000000000",
      "reserved": "",
      "salt": "0x1768b2c365f0836f1308a79e6e0aea2ea29bc28a384cace5de07cf79a1d5aea8",
      "assetIds": []
    },
    {
      "x": 213,
      "y": 54,
      "size": 1,
      "price": "1011000000000000000000",
      "reserved": "0x7a9fe22691c811ea339d9b73150e6911a5343dca",
      "salt": "0x7f2bc6b5f3ea3a5b9094d400180d129a2ff8b72cdfa6efc25b18d4c9f7e12213",
      "assetIds": []
    },
    {
      "x": 213,
      "y": 55,
      "size": 1,
      "price": "4683000000000000000000",
      "reserved": "",
      "salt": "0x3545c1a9b35278a548a273548ac53a0aa6ad626e4de328b6c34cbb439b6995fb",
      "assetIds": [
        "24853292031385244393966334094207009593054737572352507338",
        "24854040320223557816260454380841360329960801409814511050"
      ]
    },
    {
      "x": 213,
      "y": 56,
      "size": 1,
      "price": "4683000000000000000000",
      "reserved": "",
      "salt": "0x9fe80e4c9f48d677d29ffa8be008ea905c65dcd39762016ac2cdcec29536e0c9",
      "assetIds": [
        "24853292031385244393966334094207009593054737572352507338",
        "24854040320223557816260454380841360329960801409814511050"
      ]
    },
    {
      "x": 213,
      "y": 57,
      "size": 1,
      "price": "1011000000000000000000",
      "reserved": "",
      "salt": "0xdc0ac014cd0a0e32a27da0a56124e7ed8bff59f5ea718dbe355b90b07a45b446",
      "assetIds": []
    },
    {
      "x": 213,
      "y": 58,
      "size": 1,
      "price": "1011000000000000000000",
      "reserved": "",
      "salt": "0x4ae73191b2994f47cf67ea56654eed291e7956dedefa6edfd1ec6436d60c9185",
      "assetIds": []
    },
    {
      "x": 213,
      "y": 59,
      "size": 1,
      "price": "1011000000000000000000",
      "reserved": "",
      "salt": "0xe36bbd5a5f78c431be4803e8d83c78e0285012db2a0df26d95e7f17b75822c57",
      "assetIds": []
    },
    {
      "x": 214,
      "y": 36,
      "size": 1,
      "price": "1011000000000000000000",
      "reserved": "",
      "salt": "0xbe21a188c9fdcd0cee2b7803005375ed52cf96175b763be0b2a5ba1c272eb21e",
      "assetIds": []
    },
    {
      "x": 214,
      "y": 37,
      "size": 1,
      "price": "1011000000000000000000",
      "reserved": "0x7a9fe22691c811ea339d9b73150e6911a5343dca",
      "salt": "0x7b325efe7e9c31015e751b4d29b5e739ad12b2821e439c71eb1ed2810fa08376",
      "assetIds": []
    },
    {
      "x": 214,
      "y": 38,
      "size": 1,
      "price": "1011000000000000000000",
      "reserved": "",
      "salt": "0xd53d237feb436b69ee147f3df92eaf18fdbb324c694a88af65515c4bc0f24101",
      "assetIds": []
    },
    {
      "x": 214,
      "y": 39,
      "size": 1,
      "price": "1011000000000000000000",
      "reserved": "",
      "salt": "0xfac7c703a145bcf19394f74a9a771b37002780753aa7030e3471517e2bc5893c",
      "assetIds": []
    },
    {
      "x": 214,
      "y": 40,
      "size": 1,
      "price": "1011000000000000000000",
      "reserved": "",
      "salt": "0xeb3f94fb88acc228bf0e05d6831d7f4c95ca76b908f677d4a1cc158ca629af46",
      "assetIds": []
    },
    {
      "x": 214,
      "y": 41,
      "size": 1,
      "price": "1011000000000000000000",
      "reserved": "",
      "salt": "0x85618914caf6f3c7c05b71efc15dd88c78ac97eefa3a6e40a3970b61d79d1eaf",
      "assetIds": []
    },
    {
      "x": 214,
      "y": 51,
      "size": 1,
      "price": "1011000000000000000000",
      "reserved": "",
      "salt": "0x08ac5cadd8f6a90c4c7f636151cbac3d7f6e3c927c73e359c1c5541ca1faaa58",
      "assetIds": []
    },
    {
      "x": 214,
      "y": 52,
      "size": 1,
      "price": "1011000000000000000000",
      "reserved": "",
      "salt": "0x2546c743f595ae410de7100d22de82202c46d920f82f63f7b21541ee50bb0ec1",
      "assetIds": []
    },
    {
      "x": 214,
      "y": 53,
      "size": 1,
      "price": "1011000000000000000000",
      "reserved": "",
      "salt": "0x5a12c0d9092b5130042a9d839383c95e4b2f7d0a922b63dbcfb39c3ee1b9e746",
      "assetIds": []
    },
    {
      "x": 214,
      "y": 54,
      "size": 1,
      "price": "1011000000000000000000",
      "reserved": "",
      "salt": "0xa87aeacc5a6a1c51e0c53fca9da9657f4fcd609b6f6d10b52fae18a3f2b2396a",
      "assetIds": []
    },
    {
      "x": 214,
      "y": 55,
      "size": 1,
      "price": "1011000000000000000000",
      "reserved": "",
      "salt": "0x7cc1136147438e1bc2a0f67c57a4677592bd249344c91c4c1dfa4ae1898e4303",
      "assetIds": []
    },
    {
      "x": 214,
      "y": 56,
      "size": 1,
      "price": "1011000000000000000000",
      "reserved": "",
      "salt": "0x76ab3f3a58ecfadbfcd3d2e6a3de66f8969f88066ebbd02fc7c8719e73dcec23",
      "assetIds": []
    },
    {
      "x": 214,
      "y": 57,
      "size": 1,
      "price": "1011000000000000000000",
      "reserved": "",
      "salt": "0xc5b7e9cc732e2af9607996c94cad38d4056296d1f56d4dfc2dd6b4623b3ee914",
      "assetIds": []
    },
    {
      "x": 214,
      "y": 59,
      "size": 1,
      "price": "1011000000000000000000",
      "reserved": "",
      "salt": "0xc26a0c925e1601b905edd1a8e5e6cf9943b33ca97252efbcac959f0824b677c1",
      "assetIds": []
    },
    {
      "x": 215,
      "y": 36,
      "size": 1,
      "price": "1011000000000000000000",
      "reserved": "0x7a9fe22691c811ea339d9b73150e6911a5343dca",
      "salt": "0x4b1e7cb85c12525ad82eeb6eb78e9e25094d338d698a6c81496554ee46bb85be",
      "assetIds": []
    },
    {
      "x": 215,
      "y": 37,
      "size": 1,
      "price": "1011000000000000000000",
      "reserved": "",
      "salt": "0xd8bf3ea607c504fbca4046abcb51300d49cd150c3b1f9501e1b403723efe16eb",
      "assetIds": []
    },
    {
      "x": 215,
      "y": 38,
      "size": 1,
      "price": "1011000000000000000000",
      "reserved": "",
      "salt": "0x8ccf9c1baaac139ce577d7b81cb713fb1dafd719b14cf23da1b172be75bd5a93",
      "assetIds": []
    },
    {
      "x": 215,
      "y": 39,
      "size": 1,
      "price": "1011000000000000000000",
      "reserved": "0x7a9fe22691c811ea339d9b73150e6911a5343dca",
      "salt": "0x7f10cd4c253b547b8ab97425707e59208ec185b3926b5e898ecca4eaafb7a56f",
      "assetIds": []
    },
    {
      "x": 215,
      "y": 40,
      "size": 1,
      "price": "1011000000000000000000",
      "reserved": "",
      "salt": "0x061bf00a31fdc5dfe3ddc84ab305d220191a64d83126d583345b8b985731e59b",
      "assetIds": []
    },
    {
      "x": 215,
      "y": 41,
      "size": 1,
      "price": "1011000000000000000000",
      "reserved": "",
      "salt": "0x1b2b798a1a33e3372d23a4249897d75ad3a478f950682c84dfeeab15d6f439d4",
      "assetIds": []
    },
    {
      "x": 215,
      "y": 51,
      "size": 1,
      "price": "1011000000000000000000",
      "reserved": "",
      "salt": "0x6d4d1446300c6d014cd6d885a2cd880d31d75f0089d8d8d6e4bf4acb7ce30f5e",
      "assetIds": []
    },
    {
      "x": 215,
      "y": 52,
      "size": 1,
      "price": "1011000000000000000000",
      "reserved": "0x7a9fe22691c811ea339d9b73150e6911a5343dca",
      "salt": "0x05a2315c8c9affac1bd90b392a604a7e3c1cf821be32003cdf1e800ca3ba265c",
      "assetIds": []
    },
    {
      "x": 215,
      "y": 53,
      "size": 1,
      "price": "1011000000000000000000",
      "reserved": "",
      "salt": "0x9d50d2dd06078dcf38ec424544ba60f993a215324e616f0d6ba53a9fd9d07b3d",
      "assetIds": []
    },
    {
      "x": 215,
      "y": 54,
      "size": 1,
      "price": "1011000000000000000000",
      "reserved": "",
      "salt": "0x06ebfc86f0b0d941c94dc1607e98ab58f72de289bd07c48d5aa8a562995d06a1",
      "assetIds": []
    },
    {
      "x": 215,
      "y": 55,
      "size": 1,
      "price": "1011000000000000000000",
      "reserved": "",
      "salt": "0x3c8bf7419759fac66a168a9dd98d8aef9fa0404257ea72ec8b39025409bfc40f",
      "assetIds": []
    },
    {
      "x": 215,
      "y": 56,
      "size": 1,
      "price": "1011000000000000000000",
      "reserved": "",
      "salt": "0x054a132d07cb751ac8893c8bf19d6fd6c38898b58f3d113811b7fb2e4426abfc",
      "assetIds": []
    },
    {
      "x": 215,
      "y": 57,
      "size": 1,
      "price": "1011000000000000000000",
      "reserved": "",
      "salt": "0x8a163c6b96cbb97e15ed609dffec67a4b39d73e2537880335f6c12f935d3c3ef",
      "assetIds": []
    },
    {
      "x": 215,
      "y": 58,
      "size": 1,
      "price": "1011000000000000000000",
      "reserved": "",
      "salt": "0x6bb3592c3e67275a1a9b596eba474eac6e5da0726692c948c66596c5e75c9906",
      "assetIds": []
    },
    {
      "x": 215,
      "y": 59,
      "size": 1,
      "price": "1011000000000000000000",
      "reserved": "",
      "salt": "0xf18cf39c974a54bf406ff48c0d654c98965e257f34f505be17e4b30d9f63be9a",
      "assetIds": []
    },
    {
      "x": 216,
      "y": 42,
      "size": 1,
      "price": "1011000000000000000000",
      "reserved": "0x7a9fe22691c811ea339d9b73150e6911a5343dca",
      "salt": "0x92acdb92f4dbf78a2aaa137f390f903a4a467482181c487eb5e77275d762deae",
      "assetIds": []
    },
    {
      "x": 216,
      "y": 43,
      "size": 1,
      "price": "1011000000000000000000",
      "reserved": "",
      "salt": "0xb73fe8f1f8b5c43e618d30cd8b388270d634b0e54045e8ec12a20351c9814ade",
      "assetIds": []
    },
    {
      "x": 216,
      "y": 44,
      "size": 1,
      "price": "1011000000000000000000",
      "reserved": "",
      "salt": "0xf287c54e52d09134fc9107756c3e3b8833093a7896f48d5fb779d76cfa666e52",
      "assetIds": []
    },
    {
      "x": 216,
      "y": 45,
      "size": 1,
      "price": "1011000000000000000000",
      "reserved": "",
      "salt": "0x8ad158f3b201ecfb202b2d28fc569708b23d2b1da9031e93e5c1b6766c96cbae",
      "assetIds": []
    },
    {
      "x": 216,
      "y": 46,
      "size": 1,
      "price": "1011000000000000000000",
      "reserved": "",
      "salt": "0x95ae5d0c347a803f553a79f5e25820e84649f9db9946be8878106feb9e9abf0c",
      "assetIds": []
    },
    {
      "x": 216,
      "y": 47,
      "size": 1,
      "price": "1011000000000000000000",
      "reserved": "",
      "salt": "0x5d0db242cde1a29343dea41904c9038eda77bb75463fa9bae278e6aafa85b53c",
      "assetIds": []
    },
    {
      "x": 216,
      "y": 54,
      "size": 1,
      "price": "1011000000000000000000",
      "reserved": "0x7a9fe22691c811ea339d9b73150e6911a5343dca",
      "salt": "0x73984c3ebbe6fc541f913ce6d6e5ddbb09e62dd19643a43797e843dced6ca429",
      "assetIds": []
    },
    {
      "x": 216,
      "y": 55,
      "size": 1,
      "price": "1011000000000000000000",
      "reserved": "",
      "salt": "0x2457152cde409ce6253cab79752dff3dcfd8233b5c902f1b56a0224f724d266b",
      "assetIds": []
    },
    {
      "x": 216,
      "y": 56,
      "size": 1,
      "price": "1011000000000000000000",
      "reserved": "",
      "salt": "0xdf1749d2ece6ac0bec968a7fcd796c924725fb84d29dc3db7d5892b0d5649090",
      "assetIds": []
    },
    {
      "x": 216,
      "y": 57,
      "size": 1,
      "price": "1011000000000000000000",
      "reserved": "",
      "salt": "0x5a6a332b0716b31efb0195f9d62e854ca0b849b89c39fbb03f811594304276fa",
      "assetIds": []
    },
    {
      "x": 216,
      "y": 58,
      "size": 1,
      "price": "1011000000000000000000",
      "reserved": "",
      "salt": "0x20de976ba8d305b1411fbd2b174b5471c3bb3aa056328971167902cdf413d364",
      "assetIds": []
    },
    {
      "x": 216,
      "y": 59,
      "size": 1,
      "price": "1011000000000000000000",
      "reserved": "",
      "salt": "0x29b137079e826d4e7b4f4fe35140c60b5492629f4f79cef8fc215da766ee98bd",
      "assetIds": []
    },
    {
      "x": 217,
      "y": 42,
      "size": 1,
      "price": "1011000000000000000000",
      "reserved": "",
      "salt": "0xf4bf0cd67ac6ac078aea26070b03692fab1fc9e20038e8712283edfdead36dee",
      "assetIds": []
    },
    {
      "x": 217,
      "y": 43,
      "size": 1,
      "price": "1011000000000000000000",
      "reserved": "0x7a9fe22691c811ea339d9b73150e6911a5343dca",
      "salt": "0xa78055b2003bceb36481eac3a90987b8166e0bb4e30d2f969f9509c6b37ee2bf",
      "assetIds": []
    },
    {
      "x": 217,
      "y": 44,
      "size": 1,
      "price": "1011000000000000000000",
      "reserved": "",
      "salt": "0x176797f7b0890139cd7eae381c711d86764bddb22d6d11a151ed3d5a32c8e80b",
      "assetIds": []
    },
    {
      "x": 217,
      "y": 45,
      "size": 1,
      "price": "1011000000000000000000",
      "reserved": "",
      "salt": "0x5d82953c3c4a5d6825d844141379fb433897f975bab6a0d75ac6affabe6cc211",
      "assetIds": []
    },
    {
      "x": 217,
      "y": 46,
      "size": 1,
      "price": "1011000000000000000000",
      "reserved": "0x7a9fe22691c811ea339d9b73150e6911a5343dca",
      "salt": "0xee13f00dbe7eba01893bb6a76baaca79d549a8a003fae40d2ec98fbcd0f99cbc",
      "assetIds": []
    },
    {
      "x": 217,
      "y": 47,
      "size": 1,
      "price": "1011000000000000000000",
      "reserved": "",
      "salt": "0x396fd453e6bca283fdb916c197507cc94544818793f566600866c433080bce39",
      "assetIds": []
    },
    {
      "x": 217,
      "y": 54,
      "size": 1,
      "price": "1011000000000000000000",
      "reserved": "",
      "salt": "0x022ccdc8d30a409a4d1b365ec52af298847b612e788a8b9b25e694364d0dbe6f",
      "assetIds": []
    },
    {
      "x": 217,
      "y": 55,
      "size": 1,
      "price": "1011000000000000000000",
      "reserved": "0x7a9fe22691c811ea339d9b73150e6911a5343dca",
      "salt": "0xe20fd7bc573ac3c5dd94af90a0dc6dacf072db357899e3f21adaaee7e7e8038f",
      "assetIds": []
    },
    {
      "x": 217,
      "y": 56,
      "size": 1,
      "price": "1011000000000000000000",
      "reserved": "",
      "salt": "0x9bb9a97e045f2fdbed19795556f49ab75d014346dbe6927b39a90ea958fe8991",
      "assetIds": []
    },
    {
      "x": 217,
      "y": 57,
      "size": 1,
      "price": "1011000000000000000000",
      "reserved": "",
      "salt": "0x5be8d71bcbbd0a0cf9249a069457ce300791a10d2b94bf99ebea8588d3f8aeea",
      "assetIds": []
    },
    {
      "x": 217,
      "y": 58,
      "size": 1,
      "price": "1011000000000000000000",
      "reserved": "0x7a9fe22691c811ea339d9b73150e6911a5343dca",
      "salt": "0x38e4b3683697c4e542fca9a7f193cdc0311080f023ff4b8330e2ee4319b07c15",
      "assetIds": []
    },
    {
      "x": 217,
      "y": 59,
      "size": 1,
      "price": "1011000000000000000000",
      "reserved": "",
      "salt": "0x568a0ef25c3b5639f271ab0598ac9895f592b0a62a8ee3e47725e2218e13eea2",
      "assetIds": []
    },
    {
      "x": 218,
      "y": 42,
      "size": 1,
      "price": "1011000000000000000000",
      "reserved": "",
      "salt": "0x004e93e8f37f444fb97a6e8ce3671a1776cb616ea468c159ed2d27990324c72f",
      "assetIds": []
    },
    {
      "x": 218,
      "y": 43,
      "size": 1,
      "price": "1011000000000000000000",
      "reserved": "",
      "salt": "0x758ab6d14a5a0d73c147b0aaf20ebb5213e195252b826f3ea7e97694cff8ebbb",
      "assetIds": []
    },
    {
      "x": 218,
      "y": 44,
      "size": 1,
      "price": "1011000000000000000000",
      "reserved": "",
      "salt": "0x35fb9aa8975f3d0f4de49a9afb14134906a55b2b1b45d8e3af3947e01165247d",
      "assetIds": []
    },
    {
      "x": 218,
      "y": 45,
      "size": 1,
      "price": "1011000000000000000000",
      "reserved": "",
      "salt": "0x7e7bfae257916209ce4651ba7f541cdba0da587c0d6a7d75eb128645c1a6f040",
      "assetIds": []
    },
    {
      "x": 218,
      "y": 46,
      "size": 1,
      "price": "1011000000000000000000",
      "reserved": "",
      "salt": "0x403c8f73e25533c69543f5c2c180e0a30d6c38c16a5c8dc0773b17ef09b35a37",
      "assetIds": []
    },
    {
      "x": 218,
      "y": 47,
      "size": 1,
      "price": "1011000000000000000000",
      "reserved": "0x7a9fe22691c811ea339d9b73150e6911a5343dca",
      "salt": "0xbc420128695a6b4500a89b68a0442dc6e93b730bc9f1928ad72cccbfc94c0cb5",
      "assetIds": []
    },
    {
      "x": 218,
      "y": 54,
      "size": 1,
      "price": "1011000000000000000000",
      "reserved": "",
      "salt": "0x7a21d206fe1231977c558f1755a7160e5af3f57b2c6c06fca4fedb3eed93d8cf",
      "assetIds": []
    },
    {
      "x": 218,
      "y": 55,
      "size": 1,
      "price": "1011000000000000000000",
      "reserved": "",
      "salt": "0x1f287b02a8568630b58a21d33721184b463dbc07982ff40190dd5fe7788598f9",
      "assetIds": []
    },
    {
      "x": 218,
      "y": 56,
      "size": 1,
      "price": "1011000000000000000000",
      "reserved": "",
      "salt": "0x37f8ce2ca4600f4e4255e366b901c59ad1cef48c64cc98cee91f2a38e8b4c73c",
      "assetIds": []
    },
    {
      "x": 218,
      "y": 57,
      "size": 1,
      "price": "1011000000000000000000",
      "reserved": "",
      "salt": "0x8143e2ede80345787dd04efc256597fbf2094c63145359df12d23b198a6ffd67",
      "assetIds": []
    },
    {
      "x": 218,
      "y": 58,
      "size": 1,
      "price": "1011000000000000000000",
      "reserved": "",
      "salt": "0xba43b27897f3efd77d4de68a4298214409d14e2d895a20393e0a871a438ee660",
      "assetIds": []
    },
    {
      "x": 218,
      "y": 59,
      "size": 1,
      "price": "1011000000000000000000",
      "reserved": "",
      "salt": "0x54ec2d3b4c2e0e55e0396138aa9511c391b65e373e007281dce8a5cc03b4de1e",
      "assetIds": []
    },
    {
      "x": 219,
      "y": 42,
      "size": 1,
      "price": "1011000000000000000000",
      "reserved": "0x7a9fe22691c811ea339d9b73150e6911a5343dca",
      "salt": "0x997f8052a6d41511a68589b046e2ae67655867db1f012a3b9354b75b4d3226ec",
      "assetIds": []
    },
    {
      "x": 219,
      "y": 43,
      "size": 1,
      "price": "1011000000000000000000",
      "reserved": "",
      "salt": "0xf77207d11df8278e64289a605c76d882bcb6763b98970dbd06ec6e5b826fb5b7",
      "assetIds": []
    },
    {
      "x": 219,
      "y": 44,
      "size": 1,
      "price": "1011000000000000000000",
      "reserved": "",
      "salt": "0x1d9ecd002d641666e008b56262204b17994a98fcf4a204aa8daeb40c88747536",
      "assetIds": []
    },
    {
      "x": 219,
      "y": 45,
      "size": 1,
      "price": "1011000000000000000000",
      "reserved": "",
      "salt": "0x2bf46227be6745bd16562a2522222ebf102973b22636872940aec412d84a59f5",
      "assetIds": []
    },
    {
      "x": 219,
      "y": 46,
      "size": 1,
      "price": "1011000000000000000000",
      "reserved": "",
      "salt": "0x62d22223567fa5795f3c33f806a6ac22783fb1534daccab460ee0792645f2d1f",
      "assetIds": []
    },
    {
      "x": 219,
      "y": 47,
      "size": 1,
      "price": "1011000000000000000000",
      "reserved": "",
      "salt": "0xa91d67ce2c5dc5878b04256e671f6e1564a7714314d91f98c93d13e55cd78c81",
      "assetIds": []
    },
    {
      "x": 219,
      "y": 54,
      "size": 1,
      "price": "1011000000000000000000",
      "reserved": "0x7a9fe22691c811ea339d9b73150e6911a5343dca",
      "salt": "0x31c2388a4eb40181f10c501048b6a18dc9fe634a23954b3a69eb8e90188b49b5",
      "assetIds": []
    },
    {
      "x": 219,
      "y": 55,
      "size": 1,
      "price": "1011000000000000000000",
      "reserved": "",
      "salt": "0xa47b05f859ad765d7e316fd9555d0d02bdf6fa3e9e5cbb07545ffb7c91a44eea",
      "assetIds": []
    },
    {
      "x": 219,
      "y": 56,
      "size": 1,
      "price": "1011000000000000000000",
      "reserved": "",
      "salt": "0xd829b7ebd2e44ebd6f95a656c8ce59d2a670723a0c0fe63ee6c0d50361a74073",
      "assetIds": []
    },
    {
      "x": 219,
      "y": 57,
      "size": 1,
      "price": "1011000000000000000000",
      "reserved": "",
      "salt": "0x7a0865951affa6149f5c2ddfc730f62278cac396fe56c29358eff03153133623",
      "assetIds": []
    },
    {
      "x": 219,
      "y": 58,
      "size": 1,
      "price": "1011000000000000000000",
      "reserved": "",
      "salt": "0x010eb063f3c5b97cf18c4ce60f11cde18c2676f6659db2173c6d96d75c5b0c3c",
      "assetIds": []
    },
    {
      "x": 219,
      "y": 59,
      "size": 1,
      "price": "1011000000000000000000",
      "reserved": "",
      "salt": "0x7201fbbed874fee83a0cf8060a52261d900772716f28cf961eb31b3fd9ec68f1",
      "assetIds": []
    },
    {
      "x": 220,
      "y": 42,
      "size": 1,
      "price": "1011000000000000000000",
      "reserved": "",
      "salt": "0x712051c7b3647910688f1c40537551b5263d7e301b3294849894875ece0c11b0",
      "assetIds": []
    },
    {
      "x": 220,
      "y": 43,
      "size": 1,
      "price": "1011000000000000000000",
      "reserved": "0x7a9fe22691c811ea339d9b73150e6911a5343dca",
      "salt": "0x7b74160296e6751569449f1ba98214c91b5b8b2a9d782f4cecb77743138640f6",
      "assetIds": []
    },
    {
      "x": 220,
      "y": 44,
      "size": 1,
      "price": "1011000000000000000000",
      "reserved": "",
      "salt": "0xa0ec1401189dc1359b6f18f4d7e0b5dadc94e7d14dbbe4e78e69ac26f27f59f2",
      "assetIds": []
    },
    {
      "x": 220,
      "y": 45,
      "size": 1,
      "price": "1011000000000000000000",
      "reserved": "",
      "salt": "0x36c69765a7c24084bbd02bdc74fd901da72bca448696752f3d7ac165995d3bf8",
      "assetIds": []
    },
    {
      "x": 220,
      "y": 46,
      "size": 1,
      "price": "1011000000000000000000",
      "reserved": "0x7a9fe22691c811ea339d9b73150e6911a5343dca",
      "salt": "0x870e18063ca67a0727d1cd24794952da24e3d3b15fbbfd26ec5286cebb614ae5",
      "assetIds": []
    },
    {
      "x": 220,
      "y": 47,
      "size": 1,
      "price": "1011000000000000000000",
      "reserved": "",
      "salt": "0x90c097f7fe65499ef249828ebad0f7b909c69a42cb0790436f3053f16ba5af02",
      "assetIds": []
    },
    {
      "x": 220,
      "y": 54,
      "size": 1,
      "price": "1011000000000000000000",
      "reserved": "",
      "salt": "0x6da7284999c429b1380ab1b53e810dbd6ed9c117b5904df670fa65376c616cfe",
      "assetIds": []
    },
    {
      "x": 220,
      "y": 55,
      "size": 1,
      "price": "1011000000000000000000",
      "reserved": "0x7a9fe22691c811ea339d9b73150e6911a5343dca",
      "salt": "0x3c7010d4cbe06cab5aefba9dedd921faef7d4653fd7229456a39708453ec8c0a",
      "assetIds": []
    },
    {
      "x": 220,
      "y": 56,
      "size": 1,
      "price": "1011000000000000000000",
      "reserved": "",
      "salt": "0x12db487a8c6d040db70631d131735a83a03c7ad2122ce0e21de5fa0cfed4feb6",
      "assetIds": []
    },
    {
      "x": 220,
      "y": 57,
      "size": 1,
      "price": "1011000000000000000000",
      "reserved": "",
      "salt": "0x95311e207da9b7e95c5e971f4b96d666cdc67e4db972f1a3cf7172ad8509799c",
      "assetIds": []
    },
    {
      "x": 220,
      "y": 58,
      "size": 1,
      "price": "1011000000000000000000",
      "reserved": "0x7a9fe22691c811ea339d9b73150e6911a5343dca",
      "salt": "0x1716b61d9bcc9842e1ac2bfb9cf60312b0af50a1d036c6959ea65b9852d45e94",
      "assetIds": []
    },
    {
      "x": 220,
      "y": 59,
      "size": 1,
      "price": "1011000000000000000000",
      "reserved": "",
      "salt": "0xffec69e2416a8f64e52143ec753284017b6dc88e662f0399b867be4587f41ee8",
      "assetIds": []
    },
    {
      "x": 221,
      "y": 42,
      "size": 1,
      "price": "1011000000000000000000",
      "reserved": "",
      "salt": "0xe9dc0bc6e6d05bec816a9e84ae68574f685c3b84c74394f7185ce9129b0144da",
      "assetIds": []
    },
    {
      "x": 221,
      "y": 43,
      "size": 1,
      "price": "1011000000000000000000",
      "reserved": "",
      "salt": "0xb2f0861130853cf805763114ff73dbd47f1f7bbf823e41fd415964960cae8374",
      "assetIds": []
    },
    {
      "x": 221,
      "y": 44,
      "size": 1,
      "price": "1011000000000000000000",
      "reserved": "",
      "salt": "0xaff8aaee16b5853c9c3f5baf170b086878a6ec238088ab2106c5f1941f3ae99b",
      "assetIds": []
    },
    {
      "x": 221,
      "y": 45,
      "size": 1,
      "price": "1011000000000000000000",
      "reserved": "",
      "salt": "0xfd089bc75d8b30b0a2fc3de177b6cccaea980f511816c01e130c3736bb280462",
      "assetIds": []
    },
    {
      "x": 221,
      "y": 46,
      "size": 1,
      "price": "1011000000000000000000",
      "reserved": "",
      "salt": "0x88224851a852cc0ea60b607af9c44e1f4158c2b30a696097c16067630dc28cdd",
      "assetIds": []
    },
    {
      "x": 221,
      "y": 47,
      "size": 1,
      "price": "1011000000000000000000",
      "reserved": "0x7a9fe22691c811ea339d9b73150e6911a5343dca",
      "salt": "0x231f8af1fc84604516e7aaac8b9d09cb1fe6a90e991957af28ffc7e7db1af2f2",
      "assetIds": []
    },
    {
      "x": 221,
      "y": 54,
      "size": 1,
      "price": "1011000000000000000000",
      "reserved": "",
      "salt": "0x5824d121bc36a3dceb1f7018b5e32923b0639073a7a7faef9b2a6aeacb836998",
      "assetIds": []
    },
    {
      "x": 221,
      "y": 55,
      "size": 1,
      "price": "1011000000000000000000",
      "reserved": "",
      "salt": "0x3671ac83f533e1587695f37c605bd3b9bd7359e8409fc2f74aebde09038c810e",
      "assetIds": []
    },
    {
      "x": 221,
      "y": 56,
      "size": 1,
      "price": "1011000000000000000000",
      "reserved": "",
      "salt": "0x0889ebd6029187c289fc8dd70e0a5d914a0e3befe692ba8ab4685a7d953628e7",
      "assetIds": []
    },
    {
      "x": 221,
      "y": 57,
      "size": 1,
      "price": "1011000000000000000000",
      "reserved": "",
      "salt": "0x2770171322cfe7a777de15790ad77b89121e19042ac5d13c0fd8e7761ed8b666",
      "assetIds": []
    },
    {
      "x": 221,
      "y": 58,
      "size": 1,
      "price": "1011000000000000000000",
      "reserved": "",
      "salt": "0xa259b25cbdfbad8e530ae544652a1b2a13ece7981a80a7bf5cc9599e7564113c",
      "assetIds": []
    },
    {
      "x": 221,
      "y": 59,
      "size": 1,
      "price": "1011000000000000000000",
      "reserved": "",
      "salt": "0x6d2b27e937c94a0c6c0fcf2c4004d17477b4281290e51b5d7e9f5af9241f673c",
      "assetIds": []
    },
    {
      "x": 222,
      "y": 42,
      "size": 1,
      "price": "1011000000000000000000",
      "reserved": "",
      "salt": "0xe8944a278bc56b017ca9660df531d9440c66469bcee972bff4c14a60eaa86a27",
      "assetIds": []
    },
    {
      "x": 222,
      "y": 43,
      "size": 1,
      "price": "1011000000000000000000",
      "reserved": "",
      "salt": "0xcd75410536d101e357de58a42b5bddcef3d5c53b324945b3097bac4dfc28a1a0",
      "assetIds": []
    },
    {
      "x": 222,
      "y": 44,
      "size": 1,
      "price": "1011000000000000000000",
      "reserved": "0x7a9fe22691c811ea339d9b73150e6911a5343dca",
      "salt": "0x6f63fc8333c1234908d7580e11fe3f7747aabcad489304f682020ea28aa4035d",
      "assetIds": []
    },
    {
      "x": 222,
      "y": 48,
      "size": 1,
      "price": "1011000000000000000000",
      "reserved": "0x7a9fe22691c811ea339d9b73150e6911a5343dca",
      "salt": "0x4f295cd05225721747c812e4bcb94a0f49cd42ff3e88084e2a42271cc1d5a461",
      "assetIds": []
    },
    {
      "x": 222,
      "y": 49,
      "size": 1,
      "price": "1011000000000000000000",
      "reserved": "",
      "salt": "0x4a6402631523637bb6d1a29eb1464cf0ff268e90b8ec108a46841a6cbffd46d0",
      "assetIds": []
    },
    {
      "x": 222,
      "y": 50,
      "size": 1,
      "price": "1011000000000000000000",
      "reserved": "",
      "salt": "0x9dbf83ac36c429bf823761f9ca1b0a4f4d31c6fb1403144ea2cf1246e66e8a38",
      "assetIds": []
    },
    {
      "x": 222,
      "y": 51,
      "size": 1,
      "price": "1011000000000000000000",
      "reserved": "0x7a9fe22691c811ea339d9b73150e6911a5343dca",
      "salt": "0x54c94b5f044f99a475c80a6ecc9f1a0df83b392ed3c131c73da3efe40acdbbdd",
      "assetIds": []
    },
    {
      "x": 222,
      "y": 52,
      "size": 1,
      "price": "1011000000000000000000",
      "reserved": "",
      "salt": "0x6338e937441aa1ccac09a377ba67a8ccbbb94bda8f0c30e52f9a5ebd6a7d63e9",
      "assetIds": []
    },
    {
      "x": 222,
      "y": 53,
      "size": 1,
      "price": "1011000000000000000000",
      "reserved": "",
      "salt": "0xde3b83b3ca404472685a51bb9f273fb73eda3f9d386df796be259b72a6294e3a",
      "assetIds": []
    },
    {
      "x": 222,
      "y": 54,
      "size": 1,
      "price": "1011000000000000000000",
      "reserved": "",
      "salt": "0x120b4a4839484f94a1aec7b28007de3b6c8bd7e6f6ae899e0e0fda85bf322208",
      "assetIds": []
    },
    {
      "x": 222,
      "y": 55,
      "size": 1,
      "price": "1011000000000000000000",
      "reserved": "",
      "salt": "0xc21d081f9cb2ec42380c27cba4557e1aa04adef7c92b7679d0e009fffd2fbdeb",
      "assetIds": []
    },
    {
      "x": 222,
      "y": 56,
      "size": 1,
      "price": "1011000000000000000000",
      "reserved": "",
      "salt": "0x37b6eccdccd6990acba4ecce8d88316d0b237743d9366bd6f06e5e2197ef80d7",
      "assetIds": []
    },
    {
      "x": 222,
      "y": 57,
      "size": 1,
      "price": "1011000000000000000000",
      "reserved": "",
      "salt": "0xc0b7e198a768ca0937e0fa0d4136c5fe43f07f4f10b0035594f53d6943298778",
      "assetIds": []
    },
    {
      "x": 222,
      "y": 58,
      "size": 1,
      "price": "1011000000000000000000",
      "reserved": "",
      "salt": "0x5aca3b70707ce1cf18dbe48738a6d7387761c1a2bc24efdfe7fac65393e2176e",
      "assetIds": []
    },
    {
      "x": 222,
      "y": 59,
      "size": 1,
      "price": "1011000000000000000000",
      "reserved": "",
      "salt": "0xb0a55dec59257ea9890e3eebeb24d34ab6ba079888b56d926a069b60abc1ee84",
      "assetIds": []
    },
    {
      "x": 223,
      "y": 42,
      "size": 1,
      "price": "1011000000000000000000",
      "reserved": "",
      "salt": "0x606be8bd090bfabc15dba707a1e32143a044240379a4552971b5f3cf8a568a32",
      "assetIds": []
    },
    {
      "x": 223,
      "y": 43,
      "size": 1,
      "price": "1011000000000000000000",
      "reserved": "0x7a9fe22691c811ea339d9b73150e6911a5343dca",
      "salt": "0x4c402e2c9e013d4ed9aeadf2e642e91c66cc2dbbaf7cc10177f91982e327b57d",
      "assetIds": []
    },
    {
      "x": 223,
      "y": 44,
      "size": 1,
      "price": "1011000000000000000000",
      "reserved": "",
      "salt": "0x7aee0b11e87fd223b65cdcee648ad44b02c7f209e110e59dfb6d26cc547d97ed",
      "assetIds": []
    },
    {
      "x": 223,
      "y": 48,
      "size": 1,
      "price": "1011000000000000000000",
      "reserved": "",
      "salt": "0xb61e07e23e7bb22d44773b7c9b0d12ff9603ed2f1fb302b32af0de8b9a264a7c",
      "assetIds": []
    },
    {
      "x": 223,
      "y": 49,
      "size": 1,
      "price": "1011000000000000000000",
      "reserved": "0x7a9fe22691c811ea339d9b73150e6911a5343dca",
      "salt": "0xebe368bab3e5dcfc3cd1b93b407fc876d32e1756c619ef82cc94a69db140fb74",
      "assetIds": []
    },
    {
      "x": 223,
      "y": 50,
      "size": 1,
      "price": "1011000000000000000000",
      "reserved": "",
      "salt": "0x39f503f93a8d04bd68056c66473f016d5063b1e3accc802eeda2b2909eb29fe4",
      "assetIds": []
    },
    {
      "x": 223,
      "y": 51,
      "size": 1,
      "price": "1011000000000000000000",
      "reserved": "",
      "salt": "0xf34d8091c8913b12fe21fce2a49caf4ee0b7cfb4533e586eeb9e8c340bb7d6db",
      "assetIds": []
    },
    {
      "x": 223,
      "y": 52,
      "size": 1,
      "price": "1011000000000000000000",
      "reserved": "0x7a9fe22691c811ea339d9b73150e6911a5343dca",
      "salt": "0x0afb31e1ce490db898c2ddd1203933b1915cd496cf0ef7246107d34955d960b0",
      "assetIds": []
    },
    {
      "x": 223,
      "y": 53,
      "size": 1,
      "price": "1011000000000000000000",
      "reserved": "",
      "salt": "0x53f4e2ebfc5590bfb2ca12b5ba645ca6161c8549383905114fbd6ccbb0343331",
      "assetIds": []
    },
    {
      "x": 223,
      "y": 54,
      "size": 1,
      "price": "1011000000000000000000",
      "reserved": "",
      "salt": "0x1581aa87851c0ea0db1c2bf01dcc75916ca5e611fa5e4010c24e195fbfab1ab2",
      "assetIds": []
    },
    {
      "x": 223,
      "y": 55,
      "size": 1,
      "price": "1011000000000000000000",
      "reserved": "0x7a9fe22691c811ea339d9b73150e6911a5343dca",
      "salt": "0x6464c18a614b535761e4d2ff601ae3eea3d3f604535dc45969b46317cc6647c5",
      "assetIds": []
    },
    {
      "x": 223,
      "y": 56,
      "size": 1,
      "price": "1011000000000000000000",
      "reserved": "",
      "salt": "0x621c349ee5e910602247daa230ee23c3d9891a168176507b7dc6c0a4c7d74950",
      "assetIds": []
    },
    {
      "x": 223,
      "y": 57,
      "size": 1,
      "price": "1011000000000000000000",
      "reserved": "",
      "salt": "0x4a9efbd769aa6f4aa03a4b980522fba720a4454fd53c65e1ea1422f035824b36",
      "assetIds": []
    },
    {
      "x": 223,
      "y": 58,
      "size": 1,
      "price": "1011000000000000000000",
      "reserved": "0x7a9fe22691c811ea339d9b73150e6911a5343dca",
      "salt": "0xc34aad0a3b16c740a8b9f942d048b93ee0c4d950edbb7fb62023ce5ea5a6501a",
      "assetIds": []
    },
    {
      "x": 223,
      "y": 59,
      "size": 1,
      "price": "1011000000000000000000",
      "reserved": "",
      "salt": "0x0de1b6c75c2a77feade8243400ab2c1f92c4599de6b9de2d3d516b8a5b7899e2",
      "assetIds": []
    },
    {
      "x": 224,
      "y": 42,
      "size": 1,
      "price": "1011000000000000000000",
      "reserved": "",
      "salt": "0x7f525101538dc6848ca587c65e5bed5ccd4530828a1e717ab6e0a275c3748dbd",
      "assetIds": []
    },
    {
      "x": 224,
      "y": 43,
      "size": 1,
      "price": "1011000000000000000000",
      "reserved": "",
      "salt": "0xa03eb83f1898d39993d34e5178a73b4c7390892b99f258debbf87a592181fe90",
      "assetIds": []
    },
    {
      "x": 224,
      "y": 44,
      "size": 1,
      "price": "1011000000000000000000",
      "reserved": "",
      "salt": "0x8f21d4eb2cd4a420dfb6a380583137ff304a581d985c7c814ab4597c9934bd32",
      "assetIds": []
    },
    {
      "x": 224,
      "y": 48,
      "size": 1,
      "price": "1011000000000000000000",
      "reserved": "",
      "salt": "0x497c5f1866325ad2d04cc293a06c49491840cdd8c48bf92d80eebd958a8298d3",
      "assetIds": []
    },
    {
      "x": 224,
      "y": 49,
      "size": 1,
      "price": "1011000000000000000000",
      "reserved": "",
      "salt": "0xab09c9e18fd96435b961f4e7bf963d8d3c346d736fdbfa7b23178c441dbd1cd7",
      "assetIds": []
    },
    {
      "x": 224,
      "y": 50,
      "size": 1,
      "price": "1011000000000000000000",
      "reserved": "",
      "salt": "0x6b0510d321fbf7e722554bf22a9a09c4a32a03fe3133f0864af97d411ae182c8",
      "assetIds": []
    },
    {
      "x": 224,
      "y": 51,
      "size": 1,
      "price": "1011000000000000000000",
      "reserved": "",
      "salt": "0x6505c4a9a6342fc422147c1e5ec3e2d8df4b954193ea90806ce7b260c0e9f61c",
      "assetIds": []
    },
    {
      "x": 224,
      "y": 52,
      "size": 1,
      "price": "1011000000000000000000",
      "reserved": "",
      "salt": "0x8c8e2646c26b9b7f9b7ef043ea515fbc74f1e0af79c3c266c52ba4be71b98f78",
      "assetIds": []
    },
    {
      "x": 224,
      "y": 53,
      "size": 1,
      "price": "1011000000000000000000",
      "reserved": "",
      "salt": "0x93ab30fa37b0ddbfbe86f610194471432f9e9ccf8b17435f2999bca946fc616e",
      "assetIds": []
    },
    {
      "x": 224,
      "y": 54,
      "size": 1,
      "price": "1011000000000000000000",
      "reserved": "",
      "salt": "0xfbc53521000f1e51d2b1593db5deae8c9d8f444d2d2254d91a8b9e2af7811039",
      "assetIds": []
    },
    {
      "x": 224,
      "y": 55,
      "size": 1,
      "price": "1011000000000000000000",
      "reserved": "",
      "salt": "0x0cfe642ffb6a6a100dff630352ea5001cb9cbdb64e295207e58f12e57c9d1700",
      "assetIds": []
    },
    {
      "x": 224,
      "y": 56,
      "size": 1,
      "price": "1011000000000000000000",
      "reserved": "",
      "salt": "0xbddc1d612c42b5d6277bad84b341672edb8d89511fdeaf056604e17111c5c833",
      "assetIds": []
    },
    {
      "x": 224,
      "y": 57,
      "size": 1,
      "price": "1011000000000000000000",
      "reserved": "",
      "salt": "0x64252b1907a767b0fcf821623b15c871010b4d98989af4ba8e2c0683441445d1",
      "assetIds": []
    },
    {
      "x": 224,
      "y": 58,
      "size": 1,
      "price": "1011000000000000000000",
      "reserved": "",
      "salt": "0xed24daedca28682ef0ded23dc0d90ce6195a407595d7479420d265926098fa0b",
      "assetIds": []
    },
    {
      "x": 224,
      "y": 59,
      "size": 1,
      "price": "1011000000000000000000",
      "reserved": "",
      "salt": "0x0d78e0475c4a1f04c7255cc95e525060dbb2457ae7b448b0296ee7cd50a3aa15",
      "assetIds": []
    },
    {
      "x": 225,
      "y": 45,
      "size": 1,
      "price": "1011000000000000000000",
      "reserved": "0x7a9fe22691c811ea339d9b73150e6911a5343dca",
      "salt": "0x7ed4c4ef5b57a41d9df3d2e35ec54a295dc4ba9239e94190d70d18ec1876148a",
      "assetIds": []
    },
    {
      "x": 225,
      "y": 46,
      "size": 1,
      "price": "1011000000000000000000",
      "reserved": "",
      "salt": "0x8527eace204686f8ec9304fe78f44e8fbac00013a18b060f793b298b99879f12",
      "assetIds": []
    },
    {
      "x": 225,
      "y": 47,
      "size": 1,
      "price": "1011000000000000000000",
      "reserved": "",
      "salt": "0xa4baacc34364c1785b1a092d821155723c535ff1a4362d7a5ce3850568c0d3de",
      "assetIds": []
    },
    {
      "x": 225,
      "y": 48,
      "size": 1,
      "price": "1011000000000000000000",
      "reserved": "",
      "salt": "0x6aee5ac62b6868b41778f1ca37133a99505bd8c9fe274f58bfb8038e26eba340",
      "assetIds": []
    },
    {
      "x": 225,
      "y": 49,
      "size": 1,
      "price": "1011000000000000000000",
      "reserved": "",
      "salt": "0xe7687b5df627b415eada671fb5dc45e4c4cf24520f1f1b36824d35d0a501d781",
      "assetIds": []
    },
    {
      "x": 225,
      "y": 50,
      "size": 1,
      "price": "1011000000000000000000",
      "reserved": "",
      "salt": "0x84b2b7e0fe7410c6170059f7d68dfecb77ea0a3dc3f3bba500b60d43f94c6002",
      "assetIds": []
    },
    {
      "x": 225,
      "y": 51,
      "size": 1,
      "price": "1011000000000000000000",
      "reserved": "",
      "salt": "0xed0696ee1d6bd50c14aa4d4685f5ef545cdf7846002f61609b048f74bbd43cb1",
      "assetIds": []
    },
    {
      "x": 225,
      "y": 52,
      "size": 1,
      "price": "1011000000000000000000",
      "reserved": "",
      "salt": "0xe64edbbf2a3fdb9ecbca7b1022cf37f74683231e96836734eea53ae2a3de3392",
      "assetIds": []
    },
    {
      "x": 225,
      "y": 53,
      "size": 1,
      "price": "1011000000000000000000",
      "reserved": "",
      "salt": "0xbe18070df9e3b8336725106a74ad076bf4768a8059ecebf8c0293274d337c178",
      "assetIds": []
    },
    {
      "x": 225,
      "y": 54,
      "size": 1,
      "price": "1011000000000000000000",
      "reserved": "",
      "salt": "0x4a0800bd8bee32d3a745ce8cdf5326fb4a9cac5b780111b0a6e768e7ac1358ba",
      "assetIds": []
    },
    {
      "x": 225,
      "y": 55,
      "size": 1,
      "price": "1011000000000000000000",
      "reserved": "",
      "salt": "0xac19359aa5574cdfa549fbd500841dc9cd314776c6d205458d5ecd9c6bfb7c1a",
      "assetIds": []
    },
    {
      "x": 225,
      "y": 56,
      "size": 1,
      "price": "1011000000000000000000",
      "reserved": "",
      "salt": "0x87832eb0a3080b1141baab427e239b40477f1cb3581882c7d7ed4b3c015bca6c",
      "assetIds": []
    },
    {
      "x": 225,
      "y": 57,
      "size": 1,
      "price": "1011000000000000000000",
      "reserved": "",
      "salt": "0x68042942a579336ec25f513cc5831ad36cc422f3a32e8e922aad38937014537e",
      "assetIds": []
    },
    {
      "x": 225,
      "y": 58,
      "size": 1,
      "price": "1011000000000000000000",
      "reserved": "",
      "salt": "0x86193e253d1f472126af8c847cc7121a03f79443661d61ba7b2d4a6d69c33b19",
      "assetIds": []
    },
    {
      "x": 225,
      "y": 59,
      "size": 1,
      "price": "1011000000000000000000",
      "reserved": "",
      "salt": "0x0866bcb40c17f1811f03669e9af49e3c3a591380ae12216d337c6c0745881a26",
      "assetIds": []
    },
    {
      "x": 226,
      "y": 45,
      "size": 1,
      "price": "1011000000000000000000",
      "reserved": "",
      "salt": "0x80bf6112eeec8ce0603107943d6122a9854b8efc9e9db07f9682d4b988ff630f",
      "assetIds": []
    },
    {
      "x": 226,
      "y": 46,
      "size": 1,
      "price": "1011000000000000000000",
      "reserved": "0x7a9fe22691c811ea339d9b73150e6911a5343dca",
      "salt": "0x8d12c0758a11418c1b37a75459c0be422107d3340c9c4affefbdc757db1829f4",
      "assetIds": []
    },
    {
      "x": 226,
      "y": 47,
      "size": 1,
      "price": "1011000000000000000000",
      "reserved": "",
      "salt": "0x05ab6f7c22d8b5ed43140127e5e2d7b30a0a25c55d8f15ab0beae544b6bc734d",
      "assetIds": []
    },
    {
      "x": 226,
      "y": 48,
      "size": 1,
      "price": "1011000000000000000000",
      "reserved": "",
      "salt": "0x0d1b35f32e3f9916f9598ba9e157549b9cd838f6c6a61ebcf57777d4fe090dbb",
      "assetIds": []
    },
    {
      "x": 226,
      "y": 49,
      "size": 1,
      "price": "1011000000000000000000",
      "reserved": "0x7a9fe22691c811ea339d9b73150e6911a5343dca",
      "salt": "0x876a1c44dff99c1d482d6880aee65a32e2dfeef51f94ef3b7b49b3b515fa7cc1",
      "assetIds": []
    },
    {
      "x": 226,
      "y": 50,
      "size": 1,
      "price": "1011000000000000000000",
      "reserved": "",
      "salt": "0x09c20543f59ab6a38a7f26ad91c405c509497dd8eceee01618d4abbcae56ed5f",
      "assetIds": []
    },
    {
      "x": 226,
      "y": 51,
      "size": 1,
      "price": "1011000000000000000000",
      "reserved": "",
      "salt": "0xfb3bb8889c313b35b625b6126752d6cad614f9135306a3ff20b0cc5330f244ef",
      "assetIds": []
    },
    {
      "x": 226,
      "y": 52,
      "size": 1,
      "price": "1011000000000000000000",
      "reserved": "0x7a9fe22691c811ea339d9b73150e6911a5343dca",
      "salt": "0x3bab80396b666aa728b722ca14c81aeb4d1d4c80e5815798381e9b46e34d62eb",
      "assetIds": []
    },
    {
      "x": 226,
      "y": 53,
      "size": 1,
      "price": "1011000000000000000000",
      "reserved": "",
      "salt": "0xdce37439c0e9315c11b407a87e7a16eadb89d6a30aafc08ca3be56bed5b2ffa7",
      "assetIds": []
    },
    {
      "x": 226,
      "y": 54,
      "size": 1,
      "price": "1011000000000000000000",
      "reserved": "",
      "salt": "0xd825e66a57d99425adff535eb7be8c6c0a373b32e4567f98fa73f94907c6c6de",
      "assetIds": []
    },
    {
      "x": 226,
      "y": 55,
      "size": 1,
      "price": "1011000000000000000000",
      "reserved": "0x7a9fe22691c811ea339d9b73150e6911a5343dca",
      "salt": "0x68e045348914414d3738ca8427f603f22f714dedefa34b0c600d91cf362dbc1e",
      "assetIds": []
    },
    {
      "x": 226,
      "y": 56,
      "size": 1,
      "price": "1011000000000000000000",
      "reserved": "",
      "salt": "0xf3f056181900937d36b1bc8665b9c8dc1ee013994997f5b093dca872a58094e8",
      "assetIds": []
    },
    {
      "x": 226,
      "y": 57,
      "size": 1,
      "price": "1011000000000000000000",
      "reserved": "",
      "salt": "0x2bc03151a4a3f9b4a80fc7609edc11d5ccd4ba2778d2a461166a6181c5f6e9be",
      "assetIds": []
    },
    {
      "x": 226,
      "y": 58,
      "size": 1,
      "price": "1011000000000000000000",
      "reserved": "0x7a9fe22691c811ea339d9b73150e6911a5343dca",
      "salt": "0xe472505a494ca1fa7ec6577fba56462b679f9f87634a2a397f774ff42142c03e",
      "assetIds": []
    },
    {
      "x": 226,
      "y": 59,
      "size": 1,
      "price": "1011000000000000000000",
      "reserved": "",
      "salt": "0x940ff42698d95c13ab5ee3ec3c9912f8df1420666d19bd0cb27d8a94d6c8518a",
      "assetIds": []
    },
    {
      "x": 227,
      "y": 45,
      "size": 1,
      "price": "1011000000000000000000",
      "reserved": "",
      "salt": "0x2fb5b969e29fd9ca92320d9df910530e5fc6fad230358fc2044df4f288ab31d6",
      "assetIds": []
    },
    {
      "x": 227,
      "y": 46,
      "size": 1,
      "price": "1011000000000000000000",
      "reserved": "",
      "salt": "0xb833a31b7e9fe214fb22c31954b5c52ef3d30765e849d9bf2d5e0051a0787e69",
      "assetIds": []
    },
    {
      "x": 227,
      "y": 47,
      "size": 1,
      "price": "1011000000000000000000",
      "reserved": "",
      "salt": "0x639d5de30a936419e68b5a131afc21b0d554e92894fd38e26bb56803dabd3c30",
      "assetIds": []
    },
    {
      "x": 227,
      "y": 48,
      "size": 1,
      "price": "1011000000000000000000",
      "reserved": "",
      "salt": "0xcb00821fe70e9ca6a62786a269ceb28d097a05ac4dab1abbf10b585c2d7cc9d5",
      "assetIds": []
    },
    {
      "x": 227,
      "y": 49,
      "size": 1,
      "price": "1011000000000000000000",
      "reserved": "",
      "salt": "0xedcbf8afbd67f91535ffda995027225805c5ad158c51dfb7d81721f02abfbb0e",
      "assetIds": []
    },
    {
      "x": 227,
      "y": 50,
      "size": 1,
      "price": "1011000000000000000000",
      "reserved": "",
      "salt": "0xd6f6e71647b37b185af6b1454779f76dde69ff0f2d2da9795e0e9eff70963402",
      "assetIds": []
    },
    {
      "x": 227,
      "y": 51,
      "size": 1,
      "price": "1011000000000000000000",
      "reserved": "",
      "salt": "0x5adefdfac147fa7ea619344962eacbe522e4182a6bd78654cdb78819ba7e559f",
      "assetIds": []
    },
    {
      "x": 227,
      "y": 52,
      "size": 1,
      "price": "1011000000000000000000",
      "reserved": "",
      "salt": "0xe20d3a47c7f3be0bba1baa9db5613061148505518c311164062a8c1ba9f49d88",
      "assetIds": []
    },
    {
      "x": 227,
      "y": 53,
      "size": 1,
      "price": "1011000000000000000000",
      "reserved": "",
      "salt": "0xfa2ade6dae1ec2c1ff804f323ea4abe3e68645dcbb1ceaa6934dad01232d2aaa",
      "assetIds": []
    },
    {
      "x": 227,
      "y": 54,
      "size": 1,
      "price": "1011000000000000000000",
      "reserved": "",
      "salt": "0x421650bcba322d752473b2e3ee6b1d24dabdb3ec66beedb82714601b293de01a",
      "assetIds": []
    },
    {
      "x": 227,
      "y": 55,
      "size": 1,
      "price": "1011000000000000000000",
      "reserved": "",
      "salt": "0x6faba261abb43638e0bc91d2b2e6b16b3f7aa3b8ec93b779b5fe306f9cb8ca0b",
      "assetIds": []
    },
    {
      "x": 227,
      "y": 56,
      "size": 1,
      "price": "1011000000000000000000",
      "reserved": "",
      "salt": "0x808130a29d6bd67670c2d6cafc515b3e4d99eb8ab28f1584b3eb9a0c586ca737",
      "assetIds": []
    },
    {
      "x": 227,
      "y": 57,
      "size": 1,
      "price": "1011000000000000000000",
      "reserved": "",
      "salt": "0x4f7633d3678ffd8b49528b26c6fae1fa775d0ce3fd8f3e428ba324f9d973755a",
      "assetIds": []
    },
    {
      "x": 227,
      "y": 58,
      "size": 1,
      "price": "1011000000000000000000",
      "reserved": "",
      "salt": "0x41a479a6543e25b58329732eac8db43ec7d4b45de45eb969b795de93af1f5087",
      "assetIds": []
    },
    {
      "x": 227,
      "y": 59,
      "size": 1,
      "price": "1011000000000000000000",
      "reserved": "",
      "salt": "0xc74aa34c9b16f5a2dc0edafab87bd0675afebdf12887664ef916db3b02dc0128",
      "assetIds": []
    },
    {
      "x": 228,
      "y": 54,
      "size": 1,
      "price": "1011000000000000000000",
      "reserved": "",
      "salt": "0x52cd38e0beab8cf791b4c9c1ba8aae64321c0107942a0d810d6c536a67b237da",
      "assetIds": []
    },
    {
      "x": 228,
      "y": 55,
      "size": 1,
      "price": "1011000000000000000000",
      "reserved": "",
      "salt": "0xad7c1664a9b228ecedbac95e3762942825feb27587733125e6abda062c12c75e",
      "assetIds": []
    },
    {
      "x": 228,
      "y": 56,
      "size": 1,
      "price": "1011000000000000000000",
      "reserved": "",
      "salt": "0xb8d4cfe386b3d30f6efc10968e5ec607beaaca7fdb1a4d3b892ce57e770b9ac7",
      "assetIds": []
    },
    {
      "x": 229,
      "y": 54,
      "size": 1,
      "price": "1011000000000000000000",
      "reserved": "",
      "salt": "0xb1f151af81e82f99933ebd8dcfe19202aba325a84844ecb80ce61236378a3c47",
      "assetIds": []
    },
    {
      "x": 229,
      "y": 55,
      "size": 1,
      "price": "1011000000000000000000",
      "reserved": "0x7a9fe22691c811ea339d9b73150e6911a5343dca",
      "salt": "0x9e56a2ebb7cc7d9d68e68784b15242fd538f1625257986bb22de6c297fdc17b1",
      "assetIds": []
    },
    {
      "x": 229,
      "y": 56,
      "size": 1,
      "price": "1011000000000000000000",
      "reserved": "",
      "salt": "0x99b0988720eb15421a8676acfc6e79016d56e22487f33ef87cd194e570364291",
      "assetIds": []
    },
    {
      "x": 230,
      "y": 54,
      "size": 1,
      "price": "1011000000000000000000",
      "reserved": "",
      "salt": "0x3a5099dcb5226edfce818508bfe08532263c148223f8f0c66d646ba36c778f9c",
      "assetIds": []
    },
    {
      "x": 230,
      "y": 55,
      "size": 1,
      "price": "1011000000000000000000",
      "reserved": "",
      "salt": "0xc852f11452542fb9d5929eb24eead1f1e443c055ed34f370455389f6a69f222e",
      "assetIds": []
    },
    {
      "x": 230,
      "y": 56,
      "size": 1,
      "price": "1011000000000000000000",
      "reserved": "",
      "salt": "0x92bf192d3f7140fcb48d053f9bab3c8a48b960abd4bd635b6232666437ed5331",
      "assetIds": []
    },
    {
      "x": 231,
      "y": 54,
      "size": 1,
      "price": "1011000000000000000000",
      "reserved": "",
      "salt": "0xdc641ffe8903f5cb1fa8be8e367536851e3d5df7e200800ee6b22ed2a7473492",
      "assetIds": []
    },
    {
      "x": 231,
      "y": 55,
      "size": 1,
      "price": "1011000000000000000000",
      "reserved": "",
      "salt": "0x7534d79719a6455e5f8e01b3f623b6d8e1ec4484036cb416017dd441fc28e2fb",
      "assetIds": []
    },
    {
      "x": 231,
      "y": 56,
      "size": 1,
      "price": "1011000000000000000000",
      "reserved": "",
      "salt": "0xae3313f2f8702075f3c45ee33c692b274a0934d2456f9311ff5a017678d65cfd",
      "assetIds": []
    },
    {
      "x": 231,
      "y": 57,
      "size": 1,
      "price": "1011000000000000000000",
      "reserved": "",
      "salt": "0x016172c7463814c211f211411590af02eaf92a1748546a210414821e5ebfebaa",
      "assetIds": []
    },
    {
      "x": 231,
      "y": 58,
      "size": 1,
      "price": "1011000000000000000000",
      "reserved": "",
      "salt": "0xdb13a6d2598517bae84cd9fb79d05e4dc5dfebe87fdbec6631d09aae5f5a42ed",
      "assetIds": []
    },
    {
      "x": 231,
      "y": 59,
      "size": 1,
      "price": "1011000000000000000000",
      "reserved": "",
      "salt": "0x539a45bd9c622b8ca6bc7135dc59448d6546c8ac93e79ac9773636ecceba8f7f",
      "assetIds": []
    },
    {
      "x": 232,
      "y": 54,
      "size": 1,
      "price": "1011000000000000000000",
      "reserved": "",
      "salt": "0x59bbe541ff03fb6541c1492061d8e492fe4d53b4f8965e485c6a73c7549253dd",
      "assetIds": []
    },
    {
      "x": 232,
      "y": 55,
      "size": 1,
      "price": "1011000000000000000000",
      "reserved": "0x7a9fe22691c811ea339d9b73150e6911a5343dca",
      "salt": "0x356c192c522b6ff37733eaf235367652dacd473c976d7c3bea8576b818be3fcc",
      "assetIds": []
    },
    {
      "x": 232,
      "y": 56,
      "size": 1,
      "price": "1011000000000000000000",
      "reserved": "",
      "salt": "0x8b07d3001567ee39a770616811b6089f1685978529f2485c768fa623200e6ef4",
      "assetIds": []
    },
    {
      "x": 232,
      "y": 57,
      "size": 1,
      "price": "1011000000000000000000",
      "reserved": "",
      "salt": "0x1a8ab4b2ac603790600455edb1f2a349818800102d57134f50bc49477e47311f",
      "assetIds": []
    },
    {
      "x": 232,
      "y": 58,
      "size": 1,
      "price": "1011000000000000000000",
      "reserved": "0x7a9fe22691c811ea339d9b73150e6911a5343dca",
      "salt": "0x1d21add442bc5769e347fe0e166c03c4a9462dfbc50c44f492a4226e494a15fc",
      "assetIds": []
    },
    {
      "x": 232,
      "y": 59,
      "size": 1,
      "price": "1011000000000000000000",
      "reserved": "",
      "salt": "0xe3df9776ff207684db790c0f70d13c362b3e0150040916957b9c844c998a865c",
      "assetIds": []
    },
    {
      "x": 233,
      "y": 54,
      "size": 1,
      "price": "1011000000000000000000",
      "reserved": "",
      "salt": "0x46ff00d28f653d584d275b35f6964c54f0ebd0d66ba48db765e2ea2a36c0a6f6",
      "assetIds": []
    },
    {
      "x": 233,
      "y": 55,
      "size": 1,
      "price": "1011000000000000000000",
      "reserved": "",
      "salt": "0x644fa4440fa4002f88d41d76f291fc21249477ee67fe4d2dd642e2b2c9c65bd5",
      "assetIds": []
    },
    {
      "x": 233,
      "y": 56,
      "size": 1,
      "price": "1011000000000000000000",
      "reserved": "",
      "salt": "0x82823eb0b675001da2c40de24f45f4c4004b36fdb97426c69e94099cd3dc9e9d",
      "assetIds": []
    },
    {
      "x": 233,
      "y": 57,
      "size": 1,
      "price": "1011000000000000000000",
      "reserved": "",
      "salt": "0x2c58fd4e1793e063abbf0de1d5bb8501067f9e436f147d3c8216103ee18f067d",
      "assetIds": []
    },
    {
      "x": 233,
      "y": 58,
      "size": 1,
      "price": "1011000000000000000000",
      "reserved": "",
      "salt": "0x59ff5edb1f621b7d75c0d07c1300962e098a86a675c9b645ff03572bcf3dac1a",
      "assetIds": []
    },
    {
      "x": 233,
      "y": 59,
      "size": 1,
      "price": "1011000000000000000000",
      "reserved": "",
      "salt": "0x571d2a7129033c7504d1965664210ecaec1b952a0e4019fedd99805f0ba38d25",
      "assetIds": []
    }
  ],
  "solcInputHash": "8858f9e6ab4f09df358810b0137a379b",
  "bytecode": "0x6101606040523480156200001257600080fd5b50604051620031e9380380620031e983398181016040526101a08110156200003957600080fd5b508051602082015160408301516060840151608085015160a086015160c087015160e08801516101008901516101208a01516101408b01516101608c0151610180909c015160016000559a9b999a9899979896979596949593949293919290919085856001600160a01b038216620000f8576040805162461bcd60e51b815260206004820152601f60248201527f526566657272616c56616c696461746f723a207a65726f206164647265737300604482015290519081900360640190fd5b600380546001600160a01b0319166001600160a01b0393841617905560045562000130908e1662000459602090811b62002adc17901c565b6200016d5760405162461bcd60e51b8152600401808060200182810382526025815260200180620031c46025913960400191505060405180910390fd5b6200018c8c6001600160a01b03166200045960201b62002adc1760201c565b620001c95760405162461bcd60e51b8152600401808060200182810382526025815260200180620031c46025913960400191505060405180910390fd5b6001600160a01b038b1662000214576040805162461bcd60e51b815260206004820181905260248201526000805160206200317f833981519152604482015290519081900360640190fd5b6001600160a01b038a166200025f576040805162461bcd60e51b815260206004820181905260248201526000805160206200317f833981519152604482015290519081900360640190fd5b6001600160a01b038916620002aa576040805162461bcd60e51b815260206004820181905260248201526000805160206200317f833981519152604482015290519081900360640190fd5b620002c9836001600160a01b03166200045960201b62002adc1760201c565b620003065760405162461bcd60e51b8152600401808060200182810382526025815260200180620031c46025913960400191505060405180910390fd5b6001600160a01b03821662000351576040805162461bcd60e51b815260206004820181905260248201526000805160206200317f833981519152604482015290519081900360640190fd5b62000370816001600160a01b03166200045960201b62002adc1760201c565b620003ad5760405162461bcd60e51b8152600401808060200182810382526025815260200180620031c46025913960400191505060405180910390fd5b6001600160601b031960608e811b821660a0528d901b1660c052620003dd8b60016001600160e01b036200045f16565b600680546001600160a01b039a8b166001600160a01b031991821617909155610140989098526101209690965260018054998916998816999099179098556001600160601b0319606092831b811660e05290821b811660805296901b909516610100525060078054919093169116179055506200050a92505050565b3b151590565b6001600160a01b038216620004a65760405162461bcd60e51b81526004018080602001828103825260258152602001806200319f6025913960400191505060405180910390fd5b6001600160a01b038216600081815260026020908152604091829020805460ff191685151590811790915582519384529083015280517fb21eb88b4e33b3f1281830a7178d74d8aa73220416215726b68ae23d539515cb9281900390910190a15050565b60805160601c60a05160601c60c05160601c60e05160601c6101005160601c6101205161014051612bef6200059060003980610be0528061247e525080610bbc528061159d5250806124fc525080611af25280611c4f525080611aa85280611e4e52806124d9525080611b235280611c205250806111075280611f3a5250612bef6000f3fe608060405234801561001057600080fd5b50600436106101365760003560e01c8063984d6252116100b2578063c10a420811610081578063dc5074af11610066578063dc5074af146108a0578063e56f8a9e146108c6578063f23a6e61146108e357610136565b8063c10a4208146107c1578063caed35001461089857610136565b8063984d62521461055f578063ab1cc78c14610631578063b522ecff14610639578063bc197c811461065f57610136565b806365194ce71161010957806378e6e5b9116100ee57806378e6e5b9146104e55780638a04af6a1461050b5780638f2839701461053957610136565b806365194ce7146103635780636e9960c3146104c157610136565b80631187fd3c1461013b57806325cb5bc01461031b578063495906571461033557806358bc29441461033d575b600080fd5b610319600480360361012081101561015257600080fd5b6001600160a01b038235811692602081013582169260408201359092169181019060808101606082013564010000000081111561018e57600080fd5b8201836020820111156101a057600080fd5b803590602001918460208302840111640100000000831117156101c257600080fd5b919390928235926040810190602001356401000000008111156101e457600080fd5b8201836020820111156101f657600080fd5b8035906020019184602083028401116401000000008311171561021857600080fd5b91939092909160208101903564010000000081111561023657600080fd5b82018360208201111561024857600080fd5b8035906020019184602083028401116401000000008311171561026a57600080fd5b91939092909160208101903564010000000081111561028857600080fd5b82018360208201111561029a57600080fd5b803590602001918460018302840111640100000000831117156102bc57600080fd5b9193909290916020810190356401000000008111156102da57600080fd5b8201836020820111156102ec57600080fd5b8035906020019184600183028401116401000000008311171561030e57600080fd5b509092509050610978565b005b610323610bba565b60408051918252519081900360200190f35b610323610bde565b6103196004803603602081101561035357600080fd5b50356001600160a01b0316610c02565b6104096004803603602081101561037957600080fd5b81019060208101813564010000000081111561039457600080fd5b8201836020820111156103a657600080fd5b803590602001918460018302840111640100000000831117156103c857600080fd5b91908080601f016020809104026020016040519081016040528093929190818152602001838380828437600092019190915250929550610d2e945050505050565b6040518080602001866001600160a01b03166001600160a01b03168152602001856001600160a01b03166001600160a01b03168152602001848152602001838152602001828103825287818151815260200191508051906020019080838360005b8381101561048257818101518382015260200161046a565b50505050905090810190601f1680156104af5780820380516001836020036101000a031916815260200191505b50965050505050505060405180910390f35b6104c9610e33565b604080516001600160a01b039092168252519081900360200190f35b610319600480360360208110156104fb57600080fd5b50356001600160a01b0316610e42565b6103196004803603604081101561052157600080fd5b506001600160a01b0381351690602001351515610f00565b6103196004803603602081101561054f57600080fd5b50356001600160a01b0316610f6d565b6103196004803603606081101561057557600080fd5b6001600160a01b0382351691908101906040810160208201356401000000008111156105a057600080fd5b8201836020820111156105b257600080fd5b803590602001918460208302840111640100000000831117156105d457600080fd5b9193909290916020810190356401000000008111156105f257600080fd5b82018360208201111561060457600080fd5b8035906020019184602083028401116401000000008311171561062657600080fd5b5090925090506110a6565b610323611231565b6103196004803603602081101561064f57600080fd5b50356001600160a01b0316611237565b61078c600480360360a081101561067557600080fd5b6001600160a01b0382358116926020810135909116918101906060810160408201356401000000008111156106a957600080fd5b8201836020820111156106bb57600080fd5b803590602001918460208302840111640100000000831117156106dd57600080fd5b9193909290916020810190356401000000008111156106fb57600080fd5b82018360208201111561070d57600080fd5b8035906020019184602083028401116401000000008311171561072f57600080fd5b91939092909160208101903564010000000081111561074d57600080fd5b82018360208201111561075f57600080fd5b8035906020019184600183028401116401000000008311171561078157600080fd5b509092509050611348565b604080517fffffffff000000000000000000000000000000000000000000000000000000009092168252519081900360200190f35b610884600480360360a08110156107d757600080fd5b8101906020810181356401000000008111156107f257600080fd5b82018360208201111561080457600080fd5b8035906020019184600183028401116401000000008311171561082657600080fd5b91908080601f016020809104026020016040519081016040528093929190818152602001838380828437600092019190915250929550506001600160a01b038335811694506020840135169260408101359250606001359050611375565b604080519115158252519081900360200190f35b6104c96114b1565b610884600480360360208110156108b657600080fd5b50356001600160a01b03166114c0565b610319600480360360208110156108dc57600080fd5b50356114de565b61078c600480360360a08110156108f957600080fd5b6001600160a01b03823581169260208101359091169160408201359160608101359181019060a08101608082013564010000000081111561093957600080fd5b82018360208201111561094b57600080fd5b8035906020019184600183028401116401000000008311171561096d57600080fd5b509092509050611570565b600260005414156109d0576040805162461bcd60e51b815260206004820152601f60248201527f5265656e7472616e637947756172643a207265656e7472616e742063616c6c00604482015290519081900360640190fd5b60026000556109df8e8d61159b565b610ad68d8d8d8d80806020026020016040519081016040528093929190818152602001838360200280828437600081840152601f19601f820116905080830192505050505050508c8c8c80806020026020016040519081016040528093929190818152602001838360200280828437600081840152601f19601f820116905080830192505050505050508b8b8080602002602001604051908101604052809392919081815260200183836020028082843760009201919091525050604080516020601f8d018190048102820181019092528b815292508b91508a90819084018382808284376000920191909152506116fe92505050565b610b2a8e8c8c6003818110610ae757fe5b9050602002013586868080601f016020809104026020016040519081016040528093929190818152602001838380828437600092019190915250611a8192505050565b610b688e8e8d8d80806020026020016040519081016040528093929190818152602001838360200280828437600092019190915250611ad292505050565b610ba58d898980806020026020016040519081016040528093929190818152602001838360200280828437600092019190915250611ec392505050565b50506001600055505050505050505050505050565b7f000000000000000000000000000000000000000000000000000000000000000090565b7f000000000000000000000000000000000000000000000000000000000000000090565b6001546001600160a01b03163314610c61576040805162461bcd60e51b815260206004820152601260248201527f6f6e6c792061646d696e20616c6c6f7765640000000000000000000000000000604482015290519081900360640190fd5b6001600160a01b038116610cbc576040805162461bcd60e51b815260206004820152601f60248201527f526566657272616c56616c696461746f723a207a65726f206164647265737300604482015290519081900360640190fd5b600380546001600160a01b03908116600090815260056020526040808220620d2f0042019055835473ffffffffffffffffffffffffffffffffffffffff1916928516928317909355915190917fbbb5fb2ee7e707ae0c968f63e94211ea81e66a718c34e2f810a7619e5678a21791a250565b606060008060008060606000806000808a80602001905160a0811015610d5357600080fd5b8101908080516040519392919084640100000000821115610d7357600080fd5b908301906020820185811115610d8857600080fd5b8251640100000000811182820188101715610da257600080fd5b82525081516020918201929091019080838360005b83811015610dcf578181015183820152602001610db7565b50505050905090810190601f168015610dfc5780820380516001836020036101000a031916815260200191505b5060409081526020820151908201516060830151608090930151959f50909d509b5099509197505050505050505091939590929450565b6001546001600160a01b031690565b6001546001600160a01b03163314610e8b5760405162461bcd60e51b8152600401808060200182810382526023815260200180612b056023913960400191505060405180910390fd5b6001600160a01b038116610ee6576040805162461bcd60e51b815260206004820152601f60248201527f526566657272616c56616c696461746f723a207a65726f206164647265737300604482015290519081900360640190fd5b6001600160a01b0316600090815260056020526040812055565b6001546001600160a01b03163314610f5f576040805162461bcd60e51b815260206004820152601260248201527f6f6e6c792061646d696e20616c6c6f7765640000000000000000000000000000604482015290519081900360640190fd5b610f698282612087565b5050565b6001546001600160a01b03163314610fcc576040805162461bcd60e51b815260206004820152601b60248201527f6f6e6c792061646d696e2063616e206368616e67652061646d696e0000000000604482015290519081900360640190fd5b6001546001600160a01b038281169116141561102f576040805162461bcd60e51b815260206004820152600d60248201527f616c72656164792061646d696e00000000000000000000000000000000000000604482015290519081900360640190fd5b600154604080516001600160a01b039283168152918316602083015280517f7e644d79422f17c01e4894b5f4f588d331ebfa28653d42ae832dc59e38c9798f9281900390910190a16001805473ffffffffffffffffffffffffffffffffffffffff19166001600160a01b0392909216919091179055565b6001546001600160a01b03163314611105576040805162461bcd60e51b815260206004820152600e60248201527f4e4f545f415554484f52495a4544000000000000000000000000000000000000604482015290519081900360640190fd5b7f00000000000000000000000000000000000000000000000000000000000000006001600160a01b0316632eb2c2d63087878787876040518763ffffffff1660e01b815260040180876001600160a01b03166001600160a01b03168152602001866001600160a01b03166001600160a01b031681526020018060200180602001806020018481038452888882818152602001925060200280828437600083820152601f01601f19169091018581038452868152602090810191508790870280828437600081840152601f19601f8201169050808301925050508481038252600081526020016020019950505050505050505050600060405180830381600087803b15801561121257600080fd5b505af1158015611226573d6000803e3d6000fd5b505050505050505050565b60045490565b6001600160a01b038116611292576040805162461bcd60e51b815260206004820152600c60248201527f5a45524f5f414444524553530000000000000000000000000000000000000000604482015290519081900360640190fd5b6001546001600160a01b031633146112f1576040805162461bcd60e51b815260206004820152600e60248201527f4e4f545f415554484f52495a4544000000000000000000000000000000000000604482015290519081900360640190fd5b6006805473ffffffffffffffffffffffffffffffffffffffff19166001600160a01b0383169081179091556040517f4d66958b757eb92a1b43d02be4c38c9500b73f532420ee3706cb43d420ba023690600090a250565b7fbc197c810000000000000000000000000000000000000000000000000000000098975050505050505050565b60006004548211806113985750836001600160a01b0316856001600160a01b0316145b806113a257508242115b156113af575060006114a8565b60408051606087811b7fffffffffffffffffffffffffffffffffffffffff0000000000000000000000009081166020808501919091529188901b166034830152604882018690526068808301869052835180840390910181526088830184528051908201207f19457468657265756d205369676e6564204d6573736167653a0a33320000000060a884015260c48084018290528451808503909101815260e49093019093528151910120600090611466908961214e565b6001600160a01b0381166000908152600560205260409020549091504211611493576001925050506114a8565b6003546001600160a01b039081169116149150505b95945050505050565b6003546001600160a01b031690565b6001600160a01b031660009081526002602052604090205460ff1690565b6001546001600160a01b0316331461153d576040805162461bcd60e51b815260206004820152601260248201527f6f6e6c792061646d696e20616c6c6f7765640000000000000000000000000000604482015290519081900360640190fd5b600481905560405181907f774069781371d65424b3b0b101c1d40014532cac040f979595b99a3fcf8ce08c90600090a250565b7ff23a6e61000000000000000000000000000000000000000000000000000000009695505050505050565b7f0000000000000000000000000000000000000000000000000000000000000000421061160f576040805162461bcd60e51b815260206004820152600c60248201527f53414c455f49535f4f5645520000000000000000000000000000000000000000604482015290519081900360640190fd5b6001600160a01b03821633148061163557503360009081526002602052604090205460ff165b611686576040805162461bcd60e51b815260206004820152600e60248201527f4e4f545f415554484f52495a4544000000000000000000000000000000000000604482015290519081900360640190fd5b6001600160a01b03811615806116ad5750816001600160a01b0316816001600160a01b0316145b610f69576040805162461bcd60e51b815260206004820152600d60248201527f52455345525645445f4c414e4400000000000000000000000000000000000000604482015290519081900360640190fd5b600087878760008151811061170f57fe5b60200260200101518860018151811061172457fe5b60200260200101518960028151811061173957fe5b60200260200101518a60038151811061174e57fe5b60200260200101518a8a60405160200180828051906020019060200280838360005b83811015611788578181015183820152602001611770565b50505050905001915050604051602081830303815290604052805190602001208a60405160200180828051906020019060200280838360005b838110156117d95781810151838201526020016117c1565b5050505090500191505060405160208183030381529060405280519060200120604051602001808a6001600160a01b03166001600160a01b031660601b8152601401896001600160a01b03166001600160a01b031660601b81526014018881526020018781526020018681526020018581526020018481526020018381526020018281526020019950505050505050505050604051602081830303815290604052805190602001209050600760009054906101000a90046001600160a01b03166001600160a01b031663012847ed83836040518363ffffffff1660e01b81526004018080602001838152602001828103825284818151815260200191508051906020019080838360005b838110156118fb5781810151838201526020016118e3565b50505050905090810190601f1680156119285780820380516001836020036101000a031916815260200191505b50935050505060206040518083038186803b15801561194657600080fd5b505afa15801561195a573d6000803e3d6000fd5b505050506040513d602081101561197057600080fd5b50516119c3576040805162461bcd60e51b815260206004820152600c60248201527f494e56414c49445f415554480000000000000000000000000000000000000000604482015290519081900360640190fd5b6000611a24876000815181106119d557fe5b6020026020010151886001815181106119ea57fe5b6020026020010151896002815181106119ff57fe5b60200260200101518a600381518110611a1457fe5b60200260200101518c8b8b612337565b9050611a3084826123dc565b611226576040805162461bcd60e51b815260206004820152600c60248201527f494e56414c49445f4c414e440000000000000000000000000000000000000000604482015290519081900360640190fd5b6000611a8d84846124a5565b600654909150611acc908590839085906001600160a01b03167f000000000000000000000000000000000000000000000000000000000000000061253f565b50505050565b80600281518110611adf57fe5b602002602001015160011480611b1c57507f00000000000000000000000000000000000000000000000000000000000000006001600160a01b0316155b15611c1e577f00000000000000000000000000000000000000000000000000000000000000006001600160a01b0316636e1e3bbf8383600281518110611b5e57fe5b602002602001015184600081518110611b7357fe5b602002602001015185600181518110611b8857fe5b60200260200101516040518563ffffffff1660e01b815260040180856001600160a01b03166001600160a01b031681526020018481526020018381526020018281526020018060200182810382526000815260200160200195505050505050600060405180830381600087803b158015611c0157600080fd5b505af1158015611c15573d6000803e3d6000fd5b50505050611dbe565b7f00000000000000000000000000000000000000000000000000000000000000006001600160a01b0316636e1e3bbf7f000000000000000000000000000000000000000000000000000000000000000083600281518110611c7b57fe5b602002602001015184600081518110611c9057fe5b602002602001015185600181518110611ca557fe5b60200260200101518760405160200180826001600160a01b03166001600160a01b031681526020019150506040516020818303038152906040526040518663ffffffff1660e01b815260040180866001600160a01b03166001600160a01b0316815260200185815260200184815260200183815260200180602001828103825283818151815260200191508051906020019080838360005b83811015611d55578181015183820152602001611d3d565b50505050905090810190601f168015611d825780820380516001836020036101000a031916815260200191505b509650505050505050600060405180830381600087803b158015611da557600080fd5b505af1158015611db9573d6000803e3d6000fd5b505050505b61019881600181518110611dce57fe5b60200260200101510281600081518110611de457fe5b602002602001015101826001600160a01b0316846001600160a01b03167fe4dfa6ac11314892f3029b34a25b1a887da3b1cab2bbf8506d87128ba6e3ac0284600281518110611e2f57fe5b602002602001015185600381518110611e4457fe5b60200260200101517f000000000000000000000000000000000000000000000000000000000000000087600381518110611e7a57fe5b602002602001015160405180858152602001848152602001836001600160a01b03166001600160a01b0316815260200182815260200194505050505060405180910390a4505050565b6060815167ffffffffffffffff81118015611edd57600080fd5b50604051908082528060200260200182016040528015611f07578160200160208202803683370190505b50905060005b8251811015611f37576001828281518110611f2457fe5b6020908102919091010152600101611f0d565b507f00000000000000000000000000000000000000000000000000000000000000006001600160a01b0316632eb2c2d6308585856040518563ffffffff1660e01b815260040180856001600160a01b03166001600160a01b03168152602001846001600160a01b03166001600160a01b03168152602001806020018060200180602001848103845286818151815260200191508051906020019060200280838360005b83811015611ff2578181015183820152602001611fda565b50505050905001848103835285818151815260200191508051906020019060200280838360005b83811015612031578181015183820152602001612019565b50505050905001848103825260008152602001602001975050505050505050600060405180830381600087803b15801561206a57600080fd5b505af115801561207e573d6000803e3d6000fd5b50505050505050565b6001600160a01b0382166120cc5760405162461bcd60e51b8152600401808060200182810382526025815260200180612b6b6025913960400191505060405180910390fd5b6001600160a01b03821660008181526002602090815260409182902080547fffffffffffffffffffffffffffffffffffffffffffffffffffffffffffffff001685151590811790915582519384529083015280517fb21eb88b4e33b3f1281830a7178d74d8aa73220416215726b68ae23d539515cb9281900390910190a15050565b600081516041146121a6576040805162461bcd60e51b815260206004820152601f60248201527f45434453413a20696e76616c6964207369676e6174757265206c656e67746800604482015290519081900360640190fd5b60208201516040830151606084015160001a7f7fffffffffffffffffffffffffffffff5d576e7357a4501ddfe92f46681b20a08211156122175760405162461bcd60e51b8152600401808060200182810382526022815260200180612ae36022913960400191505060405180910390fd5b8060ff16601b1415801561222f57508060ff16601c14155b1561226b5760405162461bcd60e51b8152600401808060200182810382526022815260200180612b286022913960400191505060405180910390fd5b60408051600080825260208083018085528a905260ff85168385015260608301879052608083018690529251909260019260a080820193601f1981019281900390910190855afa1580156122c3573d6000803e3d6000fd5b5050604051601f1901519150506001600160a01b03811661232b576040805162461bcd60e51b815260206004820152601860248201527f45434453413a20696e76616c6964207369676e61747572650000000000000000604482015290519081900360640190fd5b93505050505b92915050565b60008787878787878760405160200180888152602001878152602001868152602001858152602001846001600160a01b03166001600160a01b031660601b8152601401838152602001828051906020019060200280838360005b838110156123a9578181015183820152602001612391565b50505050905001975050505050505050604051602081830303815290604052805190602001209050979650505050505050565b600081815b845181101561247b5760008582815181106123f857fe5b60200260200101519050808310156124405782816040516020018083815260200182815260200192505050604051602081830303815290604052805190602001209250612472565b808360405160200180838152602001828152602001925050506040516020818303038152906040528051906020012092505b506001016123e1565b507f0000000000000000000000000000000000000000000000000000000000000000149392505050565b6000806124ca60646124be85600563ffffffff61264716565b9063ffffffff6126a716565b90506125276001600160a01b037f000000000000000000000000000000000000000000000000000000000000000016857f00000000000000000000000000000000000000000000000000000000000000008463ffffffff6126e916565b612537838263ffffffff61277116565b949350505050565b8251819085901561262c57606060008060008061255b8a610d2e565b93985091965094509250905060006125768686868686611375565b15612604576125906125888d84612647565b6127106126a7565b9050886001600160a01b0316846001600160a01b0316866001600160a01b03167fac7a699eb95c3c6d390ec4626de17ef9a67b35891efdb197beba7c7fdd45fac48f858760405180848152602001838152602001828152602001935050505060405180910390a46126018782612771565b96505b8015612625576126256001600160a01b0389168e878463ffffffff6126e916565b5050505050505b61207e6001600160a01b03831688868463ffffffff6126e916565b60008261265657506000612331565b8282028284828161266357fe5b04146126a05760405162461bcd60e51b8152600401808060200182810382526021815260200180612b4a6021913960400191505060405180910390fd5b9392505050565b60006126a083836040518060400160405280601a81526020017f536166654d6174683a206469766973696f6e206279207a65726f0000000000008152506127b3565b604080516001600160a01b0380861660248301528416604482015260648082018490528251808303909101815260849091019091526020810180517bffffffffffffffffffffffffffffffffffffffffffffffffffffffff167f23b872dd00000000000000000000000000000000000000000000000000000000179052611acc908590612855565b60006126a083836040518060400160405280601e81526020017f536166654d6174683a207375627472616374696f6e206f766572666c6f77000081525061290b565b6000818361283f5760405162461bcd60e51b81526004018080602001828103825283818151815260200191508051906020019080838360005b838110156128045781810151838201526020016127ec565b50505050905090810190601f1680156128315780820380516001836020036101000a031916815260200191505b509250505060405180910390fd5b50600083858161284b57fe5b0495945050505050565b60606128aa826040518060400160405280602081526020017f5361666545524332303a206c6f772d6c6576656c2063616c6c206661696c6564815250856001600160a01b03166129659092919063ffffffff16565b805190915015612906578080602001905160208110156128c957600080fd5b50516129065760405162461bcd60e51b815260040180806020018281038252602a815260200180612b90602a913960400191505060405180910390fd5b505050565b6000818484111561295d5760405162461bcd60e51b81526020600482018181528351602484015283519092839260449091019190850190808383600083156128045781810151838201526020016127ec565b505050900390565b60606125378484600085606061297a85612adc565b6129cb576040805162461bcd60e51b815260206004820152601d60248201527f416464726573733a2063616c6c20746f206e6f6e2d636f6e7472616374000000604482015290519081900360640190fd5b60006060866001600160a01b031685876040518082805190602001908083835b60208310612a0a5780518252601f1990920191602091820191016129eb565b6001836020036101000a03801982511681845116808217855250505050505090500191505060006040518083038185875af1925050503d8060008114612a6c576040519150601f19603f3d011682016040523d82523d6000602084013e612a71565b606091505b50915091508115612a855791506125379050565b805115612a955780518082602001fd5b60405162461bcd60e51b81526020600482018181528651602484015286518793919283926044019190850190808383600083156128045781810151838201526020016127ec565b3b15159056fe45434453413a20696e76616c6964207369676e6174757265202773272076616c7565526566657272616c56616c696461746f723a2053656e646572206e6f742061646d696e45434453413a20696e76616c6964207369676e6174757265202776272076616c7565536166654d6174683a206d756c7469706c69636174696f6e206f766572666c6f774d6574615472616e73616374696f6e52656365697665723a207a65726f20616464726573735361666545524332303a204552433230206f7065726174696f6e20646964206e6f742073756363656564a2646970667358221220a5670b1ad93b092eb46ba00923ea8f6c7cf8a0b44a1214b01f8ac6fb833c6f6064736f6c6343000605003345737461746553616c6557697468417574683a207a65726f20616464726573734d6574615472616e73616374696f6e52656365697665723a207a65726f206164647265737345737461746553616c6557697468417574683a206973206e6f74206120636f6e7472616374",
  "devdoc": {
    "methods": {
      "buyLandWithSand(address,address,address,uint256[],bytes32,uint256[],bytes32[],bytes,bytes)": {
        "params": {
          "assetIds": "asset ids (lands) that will be bought",
          "buyer": "address that perform the payment",
          "info": "[X_INDEX=0] x coordinate of the Land [Y_INDEX=1] y coordinate of the Land [SIZE_INDEX=2] size of the pack of Land to purchase [PRICE_INDEX=3] price in SAND to purchase that Land",
          "proof": "merkleProof for that particular Land",
          "referral": "referral id",
          "reserved": "the reserved address (if any)",
          "salt": "The salt submitted for verification.",
          "signature": "A signed message specifying tx details",
          "to": "address that will own the purchased Land"
        }
      },
      "changeAdmin(address)": {
        "details": "change the administrator to be `newAdmin`.",
        "params": {
          "newAdmin": "address of the new administrator."
        }
      },
      "disablePreviousSigningWallet(address)": {
        "details": "Disable compromised signing wallet",
        "params": {
          "disableWallet": "The wallet address to be disabled"
        }
      },
      "getAdmin()": {
        "details": "gives the current administrator of this contract.",
        "returns": {
          "_0": "the current administrator of this contract."
        }
      },
      "getSigningWallet()": {
        "details": "signing wallet authorized for referral",
        "returns": {
          "_0": "the address of the signing wallet"
        }
      },
      "isMetaTransactionProcessor(address)": {
        "details": "check whether address `who` is given meta-transaction execution rights.",
        "params": {
          "who": "The address to query."
        },
        "returns": {
          "_0": "whether the address has meta-transaction execution rights."
        }
      },
      "isReferralValid(bytes,address,address,uint256,uint256)": {
        "params": {
          "commissionRate": "The commissionRate of the referral",
          "expiryTime": "The expiry time of the referral",
          "referee": "The address of the referee",
          "referrer": "The address of the referrer",
          "signature": "The signature to check (signed referral)"
        },
        "returns": {
          "_0": "True if the referral is valid"
        }
      },
      "setMetaTransactionProcessor(address,bool)": {
        "details": "Enable or disable the ability of `metaTransactionProcessor` to perform meta-tx (metaTransactionProcessor rights).",
        "params": {
          "enabled": "set whether the metaTransactionProcessor is enabled or disabled.",
          "metaTransactionProcessor": "address that will be given/removed metaTransactionProcessor rights."
        }
      },
      "setReceivingWallet(address)": {
        "params": {
          "newWallet": "address of the new receiving wallet"
        }
      },
      "updateMaxCommissionRate(uint256)": {
        "details": "Update the maximum commission rate",
        "params": {
          "newMaxCommissionRate": "The new maximum commission rate"
        }
      },
      "updateSigningWallet(address)": {
        "details": "Update the signing wallet The previous wallet is still valid for a grace period (_previousSigningDelay). If you want to disable the previous wallet, use the disablePreviousSigningWallet function.",
        "params": {
          "newSigningWallet": "The new address of the signing wallet"
        }
      },
      "withdrawAssets(address,uint256[],uint256[])": {
        "params": {
          "assetIds": "the assetIds to be transferred",
          "to": "intended recipient of the asset tokens",
          "values": "the quantities of the assetIds to be transferred"
        }
      }
    },
    "title": "Estate Sale contract with referral"
  },
  "userdoc": {
    "methods": {
      "buyLandWithSand(address,address,address,uint256[],bytes32,uint256[],bytes32[],bytes,bytes)": {
        "notice": "buy Land with SAND using the merkle proof associated with it"
      },
      "getExpiryTime()": {
        "notice": "Gets the expiry time for the current sale"
      },
      "getMaxCommissionRate()": {
        "notice": "the max commission rate"
      },
      "getMerkleRoot()": {
        "notice": "Gets the Merkle root associated with the current sale"
      },
      "isReferralValid(bytes,address,address,uint256,uint256)": {
        "notice": "Check if a referral is valid"
      },
      "setReceivingWallet(address)": {
        "notice": "set the wallet receiving the proceeds"
      },
      "withdrawAssets(address,uint256[],uint256[])": {
        "notice": "enable Admin to withdraw remaining assets from EstateSaleWithFee contract"
      }
    },
    "notice": "This contract manages the sale of our lands as Estates"
  },
  "storageLayout": {
    "storage": [
      {
        "astId": 924,
        "contract": "@sandbox-smart-contracts/land-sale/contracts/EstateSaleWithAuth.sol:EstateSaleWithAuth",
        "label": "_status",
        "offset": 0,
        "slot": "0",
        "type": "t_uint256"
      },
      {
        "astId": 2455,
        "contract": "@sandbox-smart-contracts/land-sale/contracts/EstateSaleWithAuth.sol:EstateSaleWithAuth",
        "label": "_admin",
        "offset": 0,
        "slot": "1",
        "type": "t_address"
      },
      {
        "astId": 2524,
        "contract": "@sandbox-smart-contracts/land-sale/contracts/EstateSaleWithAuth.sol:EstateSaleWithAuth",
        "label": "_metaTransactionContracts",
        "offset": 0,
        "slot": "2",
        "type": "t_mapping(t_address,t_bool)"
      },
      {
        "astId": 1935,
        "contract": "@sandbox-smart-contracts/land-sale/contracts/EstateSaleWithAuth.sol:EstateSaleWithAuth",
        "label": "_signingWallet",
        "offset": 0,
        "slot": "3",
        "type": "t_address"
      },
      {
        "astId": 1937,
        "contract": "@sandbox-smart-contracts/land-sale/contracts/EstateSaleWithAuth.sol:EstateSaleWithAuth",
        "label": "_maxCommissionRate",
        "offset": 0,
        "slot": "4",
        "type": "t_uint256"
      },
      {
        "astId": 1941,
        "contract": "@sandbox-smart-contracts/land-sale/contracts/EstateSaleWithAuth.sol:EstateSaleWithAuth",
        "label": "_previousSigningWallets",
        "offset": 0,
        "slot": "5",
        "type": "t_mapping(t_address,t_uint256)"
      },
      {
        "astId": 1740,
        "contract": "@sandbox-smart-contracts/land-sale/contracts/EstateSaleWithAuth.sol:EstateSaleWithAuth",
        "label": "_wallet",
        "offset": 0,
        "slot": "6",
        "type": "t_address_payable"
      },
      {
        "astId": 1742,
        "contract": "@sandbox-smart-contracts/land-sale/contracts/EstateSaleWithAuth.sol:EstateSaleWithAuth",
        "label": "_authValidator",
        "offset": 0,
        "slot": "7",
        "type": "t_contract(AuthValidator)1053"
      }
    ],
    "types": {
      "t_address": {
        "encoding": "inplace",
        "label": "address",
        "numberOfBytes": "20"
      },
      "t_address_payable": {
        "encoding": "inplace",
        "label": "address payable",
        "numberOfBytes": "20"
      },
      "t_bool": {
        "encoding": "inplace",
        "label": "bool",
        "numberOfBytes": "1"
      },
      "t_contract(AuthValidator)1053": {
        "encoding": "inplace",
        "label": "contract AuthValidator",
        "numberOfBytes": "20"
      },
      "t_mapping(t_address,t_bool)": {
        "encoding": "mapping",
        "key": "t_address",
        "label": "mapping(address => bool)",
        "numberOfBytes": "32",
        "value": "t_bool"
      },
      "t_mapping(t_address,t_uint256)": {
        "encoding": "mapping",
        "key": "t_address",
        "label": "mapping(address => uint256)",
        "numberOfBytes": "32",
        "value": "t_uint256"
      },
      "t_uint256": {
        "encoding": "inplace",
        "label": "uint256",
        "numberOfBytes": "32"
      }
    }
  }
}