{
  "address": "0xE75A09A1F5E9b58560F2138f3806D8429495C296",
  "abi": [
    {
      "inputs": [
        {
          "internalType": "address",
          "name": "landAddress",
          "type": "address"
        },
        {
          "internalType": "address",
          "name": "sandContractAddress",
          "type": "address"
        },
        {
          "internalType": "address",
          "name": "initialMetaTx",
          "type": "address"
        },
        {
          "internalType": "address",
          "name": "admin",
          "type": "address"
        },
        {
          "internalType": "address payable",
          "name": "initialWalletAddress",
          "type": "address"
        },
        {
          "internalType": "bytes32",
          "name": "merkleRoot",
          "type": "bytes32"
        },
        {
          "internalType": "uint256",
          "name": "expiryTime",
          "type": "uint256"
        },
        {
          "internalType": "address",
          "name": "initialSigningWallet",
          "type": "address"
        },
        {
          "internalType": "uint256",
          "name": "initialMaxCommissionRate",
          "type": "uint256"
        },
        {
          "internalType": "address",
          "name": "estate",
          "type": "address"
        },
        {
          "internalType": "address",
          "name": "asset",
          "type": "address"
        },
        {
          "internalType": "address",
          "name": "feeDistributor",
          "type": "address"
        },
        {
          "internalType": "address",
          "name": "authValidator",
          "type": "address"
        }
      ],
      "stateMutability": "nonpayable",
      "type": "constructor"
    },
    {
      "anonymous": false,
      "inputs": [
        {
          "indexed": false,
          "internalType": "address",
          "name": "oldAdmin",
          "type": "address"
        },
        {
          "indexed": false,
          "internalType": "address",
          "name": "newAdmin",
          "type": "address"
        }
      ],
      "name": "AdminChanged",
      "type": "event"
    },
    {
      "anonymous": false,
      "inputs": [
        {
          "indexed": true,
          "internalType": "address",
          "name": "buyer",
          "type": "address"
        },
        {
          "indexed": true,
          "internalType": "address",
          "name": "to",
          "type": "address"
        },
        {
          "indexed": true,
          "internalType": "uint256",
          "name": "topCornerId",
          "type": "uint256"
        },
        {
          "indexed": false,
          "internalType": "uint256",
          "name": "size",
          "type": "uint256"
        },
        {
          "indexed": false,
          "internalType": "uint256",
          "name": "price",
          "type": "uint256"
        },
        {
          "indexed": false,
          "internalType": "address",
          "name": "token",
          "type": "address"
        },
        {
          "indexed": false,
          "internalType": "uint256",
          "name": "amountPaid",
          "type": "uint256"
        }
      ],
      "name": "LandQuadPurchased",
      "type": "event"
    },
    {
      "anonymous": false,
      "inputs": [
        {
          "indexed": true,
          "internalType": "uint256",
          "name": "newMaxCommissionRate",
          "type": "uint256"
        }
      ],
      "name": "MaxCommissionRateUpdated",
      "type": "event"
    },
    {
      "anonymous": false,
      "inputs": [
        {
          "indexed": false,
          "internalType": "address",
          "name": "metaTransactionProcessor",
          "type": "address"
        },
        {
          "indexed": false,
          "internalType": "bool",
          "name": "enabled",
          "type": "bool"
        }
      ],
      "name": "MetaTransactionProcessor",
      "type": "event"
    },
    {
      "anonymous": false,
      "inputs": [
        {
          "indexed": true,
          "internalType": "address",
          "name": "newWallet",
          "type": "address"
        }
      ],
      "name": "NewReceivingWallet",
      "type": "event"
    },
    {
      "anonymous": false,
      "inputs": [
        {
          "indexed": true,
          "internalType": "address",
          "name": "referrer",
          "type": "address"
        },
        {
          "indexed": true,
          "internalType": "address",
          "name": "referee",
          "type": "address"
        },
        {
          "indexed": true,
          "internalType": "address",
          "name": "token",
          "type": "address"
        },
        {
          "indexed": false,
          "internalType": "uint256",
          "name": "amount",
          "type": "uint256"
        },
        {
          "indexed": false,
          "internalType": "uint256",
          "name": "commission",
          "type": "uint256"
        },
        {
          "indexed": false,
          "internalType": "uint256",
          "name": "commissionRate",
          "type": "uint256"
        }
      ],
      "name": "ReferralUsed",
      "type": "event"
    },
    {
      "anonymous": false,
      "inputs": [
        {
          "indexed": true,
          "internalType": "address",
          "name": "newSigningWallet",
          "type": "address"
        }
      ],
      "name": "SigningWalletUpdated",
      "type": "event"
    },
    {
      "inputs": [
        {
          "internalType": "address",
          "name": "buyer",
          "type": "address"
        },
        {
          "internalType": "address",
          "name": "to",
          "type": "address"
        },
        {
          "internalType": "address",
          "name": "reserved",
          "type": "address"
        },
        {
          "internalType": "uint256[]",
          "name": "info",
          "type": "uint256[]"
        },
        {
          "internalType": "bytes32",
          "name": "salt",
          "type": "bytes32"
        },
        {
          "internalType": "uint256[]",
          "name": "assetIds",
          "type": "uint256[]"
        },
        {
          "internalType": "bytes32[]",
          "name": "proof",
          "type": "bytes32[]"
        },
        {
          "internalType": "bytes",
          "name": "referral",
          "type": "bytes"
        },
        {
          "internalType": "bytes",
          "name": "signature",
          "type": "bytes"
        }
      ],
      "name": "buyLandWithSand",
      "outputs": [],
      "stateMutability": "nonpayable",
      "type": "function"
    },
    {
      "inputs": [
        {
          "internalType": "address",
          "name": "newAdmin",
          "type": "address"
        }
      ],
      "name": "changeAdmin",
      "outputs": [],
      "stateMutability": "nonpayable",
      "type": "function"
    },
    {
      "inputs": [
        {
          "internalType": "bytes",
          "name": "referral",
          "type": "bytes"
        }
      ],
      "name": "decodeReferral",
      "outputs": [
        {
          "internalType": "bytes",
          "name": "",
          "type": "bytes"
        },
        {
          "internalType": "address",
          "name": "",
          "type": "address"
        },
        {
          "internalType": "address",
          "name": "",
          "type": "address"
        },
        {
          "internalType": "uint256",
          "name": "",
          "type": "uint256"
        },
        {
          "internalType": "uint256",
          "name": "",
          "type": "uint256"
        }
      ],
      "stateMutability": "pure",
      "type": "function"
    },
    {
      "inputs": [
        {
          "internalType": "address",
          "name": "disableWallet",
          "type": "address"
        }
      ],
      "name": "disablePreviousSigningWallet",
      "outputs": [],
      "stateMutability": "nonpayable",
      "type": "function"
    },
    {
      "inputs": [],
      "name": "getAdmin",
      "outputs": [
        {
          "internalType": "address",
          "name": "",
          "type": "address"
        }
      ],
      "stateMutability": "view",
      "type": "function"
    },
    {
      "inputs": [],
      "name": "getExpiryTime",
      "outputs": [
        {
          "internalType": "uint256",
          "name": "",
          "type": "uint256"
        }
      ],
      "stateMutability": "view",
      "type": "function"
    },
    {
      "inputs": [],
      "name": "getMaxCommissionRate",
      "outputs": [
        {
          "internalType": "uint256",
          "name": "",
          "type": "uint256"
        }
      ],
      "stateMutability": "view",
      "type": "function"
    },
    {
      "inputs": [],
      "name": "getMerkleRoot",
      "outputs": [
        {
          "internalType": "bytes32",
          "name": "",
          "type": "bytes32"
        }
      ],
      "stateMutability": "view",
      "type": "function"
    },
    {
      "inputs": [],
      "name": "getSigningWallet",
      "outputs": [
        {
          "internalType": "address",
          "name": "",
          "type": "address"
        }
      ],
      "stateMutability": "view",
      "type": "function"
    },
    {
      "inputs": [
        {
          "internalType": "address",
          "name": "who",
          "type": "address"
        }
      ],
      "name": "isMetaTransactionProcessor",
      "outputs": [
        {
          "internalType": "bool",
          "name": "",
          "type": "bool"
        }
      ],
      "stateMutability": "view",
      "type": "function"
    },
    {
      "inputs": [
        {
          "internalType": "bytes",
          "name": "signature",
          "type": "bytes"
        },
        {
          "internalType": "address",
          "name": "referrer",
          "type": "address"
        },
        {
          "internalType": "address",
          "name": "referee",
          "type": "address"
        },
        {
          "internalType": "uint256",
          "name": "expiryTime",
          "type": "uint256"
        },
        {
          "internalType": "uint256",
          "name": "commissionRate",
          "type": "uint256"
        }
      ],
      "name": "isReferralValid",
      "outputs": [
        {
          "internalType": "bool",
          "name": "",
          "type": "bool"
        }
      ],
      "stateMutability": "view",
      "type": "function"
    },
    {
      "inputs": [
        {
          "internalType": "address",
          "name": "",
          "type": "address"
        },
        {
          "internalType": "address",
          "name": "",
          "type": "address"
        },
        {
          "internalType": "uint256[]",
          "name": "",
          "type": "uint256[]"
        },
        {
          "internalType": "uint256[]",
          "name": "",
          "type": "uint256[]"
        },
        {
          "internalType": "bytes",
          "name": "",
          "type": "bytes"
        }
      ],
      "name": "onERC1155BatchReceived",
      "outputs": [
        {
          "internalType": "bytes4",
          "name": "",
          "type": "bytes4"
        }
      ],
      "stateMutability": "pure",
      "type": "function"
    },
    {
      "inputs": [
        {
          "internalType": "address",
          "name": "",
          "type": "address"
        },
        {
          "internalType": "address",
          "name": "",
          "type": "address"
        },
        {
          "internalType": "uint256",
          "name": "",
          "type": "uint256"
        },
        {
          "internalType": "uint256",
          "name": "",
          "type": "uint256"
        },
        {
          "internalType": "bytes",
          "name": "",
          "type": "bytes"
        }
      ],
      "name": "onERC1155Received",
      "outputs": [
        {
          "internalType": "bytes4",
          "name": "",
          "type": "bytes4"
        }
      ],
      "stateMutability": "pure",
      "type": "function"
    },
    {
      "inputs": [
        {
          "internalType": "address",
          "name": "metaTransactionProcessor",
          "type": "address"
        },
        {
          "internalType": "bool",
          "name": "enabled",
          "type": "bool"
        }
      ],
      "name": "setMetaTransactionProcessor",
      "outputs": [],
      "stateMutability": "nonpayable",
      "type": "function"
    },
    {
      "inputs": [
        {
          "internalType": "address payable",
          "name": "newWallet",
          "type": "address"
        }
      ],
      "name": "setReceivingWallet",
      "outputs": [],
      "stateMutability": "nonpayable",
      "type": "function"
    },
    {
      "inputs": [
        {
          "internalType": "uint256",
          "name": "newMaxCommissionRate",
          "type": "uint256"
        }
      ],
      "name": "updateMaxCommissionRate",
      "outputs": [],
      "stateMutability": "nonpayable",
      "type": "function"
    },
    {
      "inputs": [
        {
          "internalType": "address",
          "name": "newSigningWallet",
          "type": "address"
        }
      ],
      "name": "updateSigningWallet",
      "outputs": [],
      "stateMutability": "nonpayable",
      "type": "function"
    },
    {
      "inputs": [
        {
          "internalType": "address",
          "name": "to",
          "type": "address"
        },
        {
          "internalType": "uint256[]",
          "name": "assetIds",
          "type": "uint256[]"
        },
        {
          "internalType": "uint256[]",
          "name": "values",
          "type": "uint256[]"
        }
      ],
      "name": "withdrawAssets",
      "outputs": [],
      "stateMutability": "nonpayable",
      "type": "function"
    }
  ],
  "transactionHash": "0xb02ada2aed2b05c44dc9528e5806f7bc9bfebc87820662bd76f74b593e43a1fa",
  "args": [
    "0x9d305a42A3975Ee4c1C57555BeD5919889DCE63F",
    "0xBbba073C31bF03b8ACf7c28EF0738DeCF3695683",
    "0xBbba073C31bF03b8ACf7c28EF0738DeCF3695683",
    "0xfD30a48Bc6c56E24B0ebF1B0117d750e2CFf7531",
    "0x1b47567CBE36e63293A7A2018F79687f942aB24C",
    "0xc5cc7f51457cd965314f0a29046ff4aaeb905ddb9b49a158e72938dd629e531d",
    1764590400,
    "0x3044719d139F866a44c988823513eCB93060bF1b",
    2000,
    "0x0000000000000000000000000000000000000000",
    "0xDbc52cd5b8EdA1A7BCBABb838ca927d23E3673e5",
    "0x42a4a3795446A4c070565da201c6303fC78a2569",
    "0x7804fb2AF15bB1323795A888B09913cEf629Ffda"
  ],
  "numDeployments": 1,
  "linkedData": [
    {
      "x": 180,
      "y": 51,
      "size": 1,
      "price": "1011000000000000000000",
      "reserved": "",
      "salt": "0x5421a3bdde03a4103e7073ce1e7a0bc51c63fa310e6cee61109811c7d9520a17",
      "assetIds": []
    },
    {
      "x": 180,
      "y": 52,
      "size": 1,
      "price": "1011000000000000000000",
      "reserved": "",
      "salt": "0x93e213461f0fed1552193a059e30571262a4b2dfd42a6ef11d6509bc85b3ac8b",
      "assetIds": []
    },
    {
      "x": 180,
      "y": 53,
      "size": 1,
      "price": "1011000000000000000000",
      "reserved": "",
      "salt": "0x5a32e19d22ee5017b7b7ba96eed2c45dda6e9b3d2c2e555304231c8df778d5e2",
      "assetIds": []
    },
    {
      "x": 181,
      "y": 51,
      "size": 1,
      "price": "1011000000000000000000",
      "reserved": "",
      "salt": "0xf875d45a0aa829bfad3c89f1380609754682bee60698c3ee40a06b82d64c83f8",
      "assetIds": []
    },
    {
      "x": 181,
      "y": 52,
      "size": 1,
      "price": "1011000000000000000000",
      "reserved": "",
      "salt": "0xe43bcbfc5c1beb544eacf50c375ae75d0775e4d4a20627f8707267181d5956b9",
      "assetIds": []
    },
    {
      "x": 181,
      "y": 53,
      "size": 1,
      "price": "1011000000000000000000",
      "reserved": "",
      "salt": "0xb09147d70bc72e96281f92b2c3d3ad87a46079cc7e1a2bde897ecea9c1c6fbf3",
      "assetIds": []
    },
    {
      "x": 182,
      "y": 51,
      "size": 1,
      "price": "1011000000000000000000",
      "reserved": "",
      "salt": "0x3635c8e8a236d521fba12fde7597d864dcb970517b07f92150836e70ee75ac31",
      "assetIds": []
    },
    {
      "x": 182,
      "y": 52,
      "size": 1,
      "price": "1011000000000000000000",
      "reserved": "0x7a9fe22691c811ea339d9b73150e6911a5343dca",
      "salt": "0x24adc4b38914498271e01abaf8b001e2c210cf2de9fb805e2980b38801d529ba",
      "assetIds": []
    },
    {
      "x": 182,
      "y": 53,
      "size": 1,
      "price": "1011000000000000000000",
      "reserved": "",
      "salt": "0x2d80e44ab8a68dee00b855433c7d2cea230299c775dc2c0edf4d8fd3b8159a6e",
      "assetIds": []
    },
    {
      "x": 183,
      "y": 48,
      "size": 1,
      "price": "1011000000000000000000",
      "reserved": "",
      "salt": "0xdca0223c0e69ff371a8c44d5cf569e20bc2e34d245f1086a0c9b28b34dd04916",
      "assetIds": []
    },
    {
      "x": 183,
      "y": 49,
      "size": 1,
      "price": "1011000000000000000000",
      "reserved": "",
      "salt": "0x01b0c08db2e3a9d871183ff4d49292f2cae0186aae25e898d0c2b860dbf65ad0",
      "assetIds": []
    },
    {
      "x": 183,
      "y": 50,
      "size": 1,
      "price": "1011000000000000000000",
      "reserved": "",
      "salt": "0xa0f2f14b982a67502be55efe70dbcad4a6c01ca3db77de3ed75fb92c24ea385d",
      "assetIds": []
    },
    {
      "x": 183,
      "y": 51,
      "size": 1,
      "price": "1011000000000000000000",
      "reserved": "",
      "salt": "0x290addbc7b87d5f9159292a4a19cad08a9f4d27b048e4732849f140378b21227",
      "assetIds": []
    },
    {
      "x": 183,
      "y": 52,
      "size": 1,
      "price": "1011000000000000000000",
      "reserved": "",
      "salt": "0xd1690679b764ad2bfe4797d019c0e35cf0c5de96b8231f2070cfc41fb2e21503",
      "assetIds": []
    },
    {
      "x": 183,
      "y": 53,
      "size": 1,
      "price": "1011000000000000000000",
      "reserved": "",
      "salt": "0xb4a9b5d4af9ab092e016f7ebca0e3ed80d8f512ac876c05d071b358f9afd8867",
      "assetIds": []
    },
    {
      "x": 184,
      "y": 48,
      "size": 1,
      "price": "1011000000000000000000",
      "reserved": "",
      "salt": "0xac969a863cea20e02794764f1e2f2e0556eefc10a46669c9ecd109c9f1bb4132",
      "assetIds": []
    },
    {
      "x": 184,
      "y": 49,
      "size": 1,
      "price": "1011000000000000000000",
      "reserved": "",
      "salt": "0x154a72e7613687d3b544731fc663653e2a38a458050052377fad6c406c16977f",
      "assetIds": []
    },
    {
      "x": 184,
      "y": 50,
      "size": 1,
      "price": "1011000000000000000000",
      "reserved": "",
      "salt": "0xfd302310852747c7ac494a593b42d9cd6ecde70c5fb21d25677b19cd00060a37",
      "assetIds": []
    },
    {
      "x": 184,
      "y": 51,
      "size": 1,
      "price": "1011000000000000000000",
      "reserved": "",
      "salt": "0x4af206216c701386ef4682bac8d82b1b547ba68ed1e18d58d83466664179cc9c",
      "assetIds": []
    },
    {
      "x": 184,
      "y": 52,
      "size": 1,
      "price": "1011000000000000000000",
      "reserved": "",
      "salt": "0xdb11c4af02eb87ad1a30b124b601c9aaecb68c18728a2dd6eba4df41790f882e",
      "assetIds": []
    },
    {
      "x": 184,
      "y": 53,
      "size": 1,
      "price": "1011000000000000000000",
      "reserved": "",
      "salt": "0x62e2e09d481f100402b76f9806e6a16678768110ffedf3fd0255e4125c7813bc",
      "assetIds": []
    },
    {
      "x": 185,
      "y": 51,
      "size": 1,
      "price": "1011000000000000000000",
      "reserved": "",
      "salt": "0xa84c22f528f9895060a2855586b669fabbd2a0f1a6b2ba7d90a6252e411af162",
      "assetIds": []
    },
    {
      "x": 185,
      "y": 52,
      "size": 1,
      "price": "1011000000000000000000",
      "reserved": "0x7a9fe22691c811ea339d9b73150e6911a5343dca",
      "salt": "0x6f1628bee87da58226a14f1f36a37960fbccc8497376214d7b4c2489d04553f2",
      "assetIds": []
    },
    {
      "x": 185,
      "y": 53,
      "size": 1,
      "price": "1011000000000000000000",
      "reserved": "",
      "salt": "0xa2ed3ea99081fbae53dbc3471f4a9e506d54d43f8ecf52c33186a79355c22409",
      "assetIds": []
    },
    {
      "x": 186,
      "y": 51,
      "size": 1,
      "price": "1011000000000000000000",
      "reserved": "",
      "salt": "0x1ee605c092b33fd11e88fd8ce888bb04dd2edbb0aa0e7b504bdacd7eacbc49bc",
      "assetIds": []
    },
    {
      "x": 186,
      "y": 52,
      "size": 1,
      "price": "1011000000000000000000",
      "reserved": "",
      "salt": "0xa41efffc3a98442000957d60d5e798443b640bea7e98d66fe01f49e06d23b4ad",
      "assetIds": []
    },
    {
      "x": 186,
      "y": 53,
      "size": 1,
      "price": "1011000000000000000000",
      "reserved": "",
      "salt": "0xee5dd3ff8efe32990effcf31447b7e20e7b6590e83915bb66191ff32706010f5",
      "assetIds": []
    },
    {
      "x": 187,
      "y": 52,
      "size": 1,
      "price": "1011000000000000000000",
      "reserved": "",
      "salt": "0x0aca6df4304447d5c1b34eb49c69d8c46caf924133a0c7f790ffebdfa6aee29f",
      "assetIds": []
    },
    {
      "x": 187,
      "y": 53,
      "size": 1,
      "price": "1011000000000000000000",
      "reserved": "",
      "salt": "0x3c18de9a9f132d6f7455da26fd465dd1b6eec266269391a074ff5995dc2b8f4e",
      "assetIds": []
    },
    {
      "x": 188,
      "y": 52,
      "size": 1,
      "price": "1011000000000000000000",
      "reserved": "",
      "salt": "0x9bd5b474e0f5bbb5076475521d98c4bb38ce9048de15753d52e62bf9ffe72a53",
      "assetIds": []
    },
    {
      "x": 188,
      "y": 53,
      "size": 1,
      "price": "1011000000000000000000",
      "reserved": "",
      "salt": "0x98b5986bfb8e8995939d70014afdfd3c6211c4bf85df003535d5b6dc395bd8ed",
      "assetIds": []
    },
    {
      "x": 189,
      "y": 33,
      "size": 1,
      "price": "1011000000000000000000",
      "reserved": "",
      "salt": "0x72d264383ec9c3525ceff13ef39d9424ad4d3728ddce607107dd88fd07542087",
      "assetIds": []
    },
    {
      "x": 189,
      "y": 34,
      "size": 1,
      "price": "1011000000000000000000",
      "reserved": "",
      "salt": "0xd3f5ac05926888183ad9160c3193fea06c8414a8b27fffe4eae6d14cf2766e56",
      "assetIds": []
    },
    {
      "x": 189,
      "y": 35,
      "size": 1,
      "price": "1011000000000000000000",
      "reserved": "",
      "salt": "0x91818a0ef8789e9e0ae34ebb33557c275bf2b57e388d1e9c2e10eb67bdc91f5c",
      "assetIds": []
    },
    {
      "x": 189,
      "y": 39,
      "size": 1,
      "price": "1011000000000000000000",
      "reserved": "",
      "salt": "0x494e5829e2a9e24c0743e5b0d31fc0e9fa41b87bb464b8080b0cca5a0c536c93",
      "assetIds": []
    },
    {
      "x": 189,
      "y": 40,
      "size": 1,
      "price": "1011000000000000000000",
      "reserved": "",
      "salt": "0x36a04efd6ea4f159d0045d6e191af1df423b15ae7a9fc8389ded9a5c851bed16",
      "assetIds": []
    },
    {
      "x": 189,
      "y": 41,
      "size": 1,
      "price": "1011000000000000000000",
      "reserved": "0x7a9fe22691c811ea339d9b73150e6911a5343dca",
      "salt": "0xc66ee2d0cfa7603f01a257b71118eac28f12b5162dc8f8ccd15e01ef55754f15",
      "assetIds": []
    },
    {
      "x": 189,
      "y": 42,
      "size": 1,
      "price": "1011000000000000000000",
      "reserved": "",
      "salt": "0x296c58dd1e5afa977fad7a23cb1ac13ddc4ed534a744a6fd24019fcd92fed14a",
      "assetIds": []
    },
    {
      "x": 189,
      "y": 43,
      "size": 1,
      "price": "1011000000000000000000",
      "reserved": "",
      "salt": "0x884b417d9b765453453302ac9abb8defb235bcdc0230a50caeac4ad9a871008b",
      "assetIds": []
    },
    {
      "x": 189,
      "y": 44,
      "size": 1,
      "price": "1011000000000000000000",
      "reserved": "",
      "salt": "0x2cc9af773fa31aeacaa6d403589eba29963deb5adc4398e3f3df14aa970798f2",
      "assetIds": []
    },
    {
      "x": 189,
      "y": 45,
      "size": 1,
      "price": "1011000000000000000000",
      "reserved": "",
      "salt": "0x4defc3a4bf061930da683d724fba2a663d3c87e1cc4c4c308429389e81387698",
      "assetIds": []
    },
    {
      "x": 189,
      "y": 46,
      "size": 1,
      "price": "1011000000000000000000",
      "reserved": "",
      "salt": "0x80a1b383b2bc18d2374065b032853c6b6363a6ce07749d8be07208c0b232efa3",
      "assetIds": []
    },
    {
      "x": 189,
      "y": 47,
      "size": 1,
      "price": "1011000000000000000000",
      "reserved": "",
      "salt": "0x7467532daaedc34bd74f2db0dc94987858b9f033b154f90726dd435412c425c9",
      "assetIds": []
    },
    {
      "x": 189,
      "y": 51,
      "size": 1,
      "price": "1011000000000000000000",
      "reserved": "",
      "salt": "0xd80d8c64c6e37d549066e413dfc8ec74b60bd1377d468ce343a7da63fce5f228",
      "assetIds": []
    },
    {
      "x": 189,
      "y": 52,
      "size": 1,
      "price": "1011000000000000000000",
      "reserved": "",
      "salt": "0x0e26e106c677a0c749e49d82c585bd390caa581b3f019c2c1d204f4d098c76c8",
      "assetIds": []
    },
    {
      "x": 189,
      "y": 53,
      "size": 1,
      "price": "1011000000000000000000",
      "reserved": "",
      "salt": "0x45598cbd3ecbd4811cd4db342293b5ad889ef2bf0db8074fe8d60cc6ab5af03b",
      "assetIds": []
    },
    {
      "x": 190,
      "y": 33,
      "size": 1,
      "price": "1011000000000000000000",
      "reserved": "",
      "salt": "0xf1eca7028a2747d9fe31f8bcc55531714725bec564c2c97c24203dd03dd984c7",
      "assetIds": []
    },
    {
      "x": 190,
      "y": 34,
      "size": 1,
      "price": "1011000000000000000000",
      "reserved": "0x7a9fe22691c811ea339d9b73150e6911a5343dca",
      "salt": "0x9d4903361460a3dd73b2553a60b13e08ddc5a4d8f54c4f049852cbb0fcf577db",
      "assetIds": []
    },
    {
      "x": 190,
      "y": 35,
      "size": 1,
      "price": "1011000000000000000000",
      "reserved": "",
      "salt": "0x7a30a425a93b43ec3dba66cc42c2fbf132da41fcb94c3ad9e3503573a21f47f3",
      "assetIds": []
    },
    {
      "x": 190,
      "y": 39,
      "size": 1,
      "price": "1011000000000000000000",
      "reserved": "",
      "salt": "0xc7ad965a9f9e3e7b101ee90cb381244d23bbeaa150b91d30c614754fed2acd18",
      "assetIds": []
    },
    {
      "x": 190,
      "y": 40,
      "size": 1,
      "price": "1011000000000000000000",
      "reserved": "",
      "salt": "0x2503aea1ecffe6f503f9d37739be5141bf1e534f7e357254bc50bccc0577028c",
      "assetIds": []
    },
    {
      "x": 190,
      "y": 41,
      "size": 1,
      "price": "1011000000000000000000",
      "reserved": "",
      "salt": "0xb5dfda19707ce8260c78612099d360b49274b347bf8ce90f5ed524e67b953ae4",
      "assetIds": []
    },
    {
      "x": 190,
      "y": 42,
      "size": 1,
      "price": "1011000000000000000000",
      "reserved": "",
      "salt": "0x335843efa8342ea4eb3f81e54f1da89b97d81d8601eb18ff097e62e98a64ac6f",
      "assetIds": []
    },
    {
      "x": 190,
      "y": 43,
      "size": 1,
      "price": "1011000000000000000000",
      "reserved": "",
      "salt": "0x9cc8df259d40ea3bff2e921e332afe96748c02cb416ab0f4f6fc20c136326c27",
      "assetIds": []
    },
    {
      "x": 190,
      "y": 44,
      "size": 1,
      "price": "1011000000000000000000",
      "reserved": "",
      "salt": "0xa4b3f368029faf7994138129e98000714d0fb81c9adcbf1e99f85fa4836b1ec2",
      "assetIds": []
    },
    {
      "x": 190,
      "y": 45,
      "size": 1,
      "price": "1011000000000000000000",
      "reserved": "",
      "salt": "0xb50843af9c04bf5c9dcc3f189e9d9d838e9e47df89570b720389ec52ce020e22",
      "assetIds": []
    },
    {
      "x": 190,
      "y": 46,
      "size": 1,
      "price": "1011000000000000000000",
      "reserved": "",
      "salt": "0x45daa327efb1b392866bc41b8a5f14d25d66ed9ddfee368d86f01359b357a449",
      "assetIds": []
    },
    {
      "x": 190,
      "y": 47,
      "size": 1,
      "price": "1011000000000000000000",
      "reserved": "",
      "salt": "0x41975cefe19604373b6b2965b314e322d904f149fb59e2380fd5be6076bad80b",
      "assetIds": []
    },
    {
      "x": 190,
      "y": 51,
      "size": 1,
      "price": "1011000000000000000000",
      "reserved": "",
      "salt": "0xc69a00e2efa9062aea6517fda1c61ae6c36770c758229d4bf0ffebc3d3008988",
      "assetIds": []
    },
    {
      "x": 190,
      "y": 52,
      "size": 1,
      "price": "1011000000000000000000",
      "reserved": "",
      "salt": "0x6e9442b9225877b02b54a3e0271f1b7816e0d09ced5741e1b32efa557911d5b5",
      "assetIds": []
    },
    {
      "x": 190,
      "y": 53,
      "size": 1,
      "price": "1011000000000000000000",
      "reserved": "",
      "salt": "0xd0524c5df513a3601c61cfed737169123095d4081e62287bd3dbeba0c31dc17b",
      "assetIds": []
    },
    {
      "x": 191,
      "y": 33,
      "size": 1,
      "price": "1011000000000000000000",
      "reserved": "",
      "salt": "0xcef5fd96e834d455c0c64592a6571634890e81e1f8f50aed27af965a3d6957e4",
      "assetIds": []
    },
    {
      "x": 191,
      "y": 34,
      "size": 1,
      "price": "1011000000000000000000",
      "reserved": "",
      "salt": "0x14b27c437344b2178223d0f7a70670cf05be9030a98a5b0396b2f1723400c1f8",
      "assetIds": []
    },
    {
      "x": 191,
      "y": 35,
      "size": 1,
      "price": "1011000000000000000000",
      "reserved": "",
      "salt": "0xa0137f97f5f3a5bd875815249a56c41fe7059ff148223d66065d465bab1470dd",
      "assetIds": []
    },
    {
      "x": 191,
      "y": 40,
      "size": 1,
      "price": "4683000000000000000000",
      "reserved": "",
      "salt": "0xa1a662977f034adfc4473049460b8f05571d06a65a3b1c85c52a3575b81d1ac7",
      "assetIds": [
        "24852169598127774260525153664255483487695641816159501770",
        "24852543742546930971672213807572658856148673734890503626",
        "24852917886966087682819273950889834224601705653621505482"
      ]
    },
    {
      "x": 191,
      "y": 42,
      "size": 1,
      "price": "4683000000000000000000",
      "reserved": "",
      "salt": "0x2e9bcbfae92f1f85455017ca25b989aeb32281fe2adb5ead36e3f53332bd29e5",
      "assetIds": [
        "24852169598127774260525153664255483487695641816159501770",
        "24852543742546930971672213807572658856148673734890503626",
        "24852917886966087682819273950889834224601705653621505482"
      ]
    },
    {
      "x": 191,
      "y": 44,
      "size": 1,
      "price": "4683000000000000000000",
      "reserved": "",
      "salt": "0x4670d4dc41a5d8c2b7d24a88be93f9150de8ce74415e4516b11de7f3b33d7f40",
      "assetIds": [
        "24852169598127774260525153664255483487695641816159501770",
        "24852543742546930971672213807572658856148673734890503626",
        "24852917886966087682819273950889834224601705653621505482"
      ]
    },
    {
      "x": 191,
      "y": 46,
      "size": 1,
      "price": "4683000000000000000000",
      "reserved": "",
      "salt": "0x8a367ddb468034c0a1a567ede89f85bc3ae1eac0ed4e0910cfd4aac26c958799",
      "assetIds": [
        "24852169598127774260525153664255483487695641816159501770",
        "24852543742546930971672213807572658856148673734890503626",
        "24852917886966087682819273950889834224601705653621505482"
      ]
    },
    {
      "x": 191,
      "y": 51,
      "size": 1,
      "price": "1011000000000000000000",
      "reserved": "",
      "salt": "0x87b1806a7c6d091c317f9e83c61db8c1c128572a1f7f35cc6d2d42d19d453b94",
      "assetIds": []
    },
    {
      "x": 191,
      "y": 52,
      "size": 1,
      "price": "1011000000000000000000",
      "reserved": "",
      "salt": "0x6665a9c7aa450cc8ddcf358e915ea0f4e61e80f129af13e2fec983e6158aa0f7",
      "assetIds": []
    },
    {
      "x": 191,
      "y": 53,
      "size": 1,
      "price": "1011000000000000000000",
      "reserved": "",
      "salt": "0xcaf7b117107dfa375ae06138f233b68dcda1551c499a202247e4442ef63cac82",
      "assetIds": []
    },
    {
      "x": 192,
      "y": 33,
      "size": 1,
      "price": "1011000000000000000000",
      "reserved": "",
      "salt": "0xb855c432a7097ef7bb035fef132331aed8d76812b1883295f3673a637df4670b",
      "assetIds": []
    },
    {
      "x": 192,
      "y": 34,
      "size": 1,
      "price": "1011000000000000000000",
      "reserved": "",
      "salt": "0x7236484f4a49d5e7d348ce6f4e6f20faeb8c534c1fe4ae47fb10c397a616e002",
      "assetIds": []
    },
    {
      "x": 192,
      "y": 35,
      "size": 1,
      "price": "4683000000000000000000",
      "reserved": "",
      "salt": "0x41b0e98bf417a20c303dcffc52cf66a6a10366631e7a6be98d0d34653172b323",
      "assetIds": [
        "24852169598127774260525153664255483487695641816159501770",
        "24852543742546930971672213807572658856148673734890503626",
        "24852917886966087682819273950889834224601705653621505482"
      ]
    },
    {
      "x": 193,
      "y": 33,
      "size": 1,
      "price": "1011000000000000000000",
      "reserved": "",
      "salt": "0x0b49d3bfeac71ca12c9e0f9f3648adfa9dba5fcea94caceae30137f92a64e516",
      "assetIds": []
    },
    {
      "x": 193,
      "y": 34,
      "size": 1,
      "price": "1011000000000000000000",
      "reserved": "0x7a9fe22691c811ea339d9b73150e6911a5343dca",
      "salt": "0xb4c718a860bac79dedd2546e62dd5b64a9220c5c768003844e4a8dc669bd5ac3",
      "assetIds": []
    },
    {
      "x": 193,
      "y": 35,
      "size": 1,
      "price": "4683000000000000000000",
      "reserved": "",
      "salt": "0x0a31731c4df7dcf16e614d418af1fe1dea63c5d8bb923c5c8822c7a030af4ca9",
      "assetIds": [
        "24852169598127774260525153664255483487695641816159501770",
        "24852543742546930971672213807572658856148673734890503626",
        "24852917886966087682819273950889834224601705653621505482"
      ]
    },
    {
      "x": 194,
      "y": 33,
      "size": 1,
      "price": "1011000000000000000000",
      "reserved": "",
      "salt": "0x30835570c3b511bbc6938804fdf0b528681c6fe12864fa1ff6586883c76178ac",
      "assetIds": []
    },
    {
      "x": 194,
      "y": 34,
      "size": 1,
      "price": "1011000000000000000000",
      "reserved": "",
      "salt": "0xb04f6e16d8a250b56d7a2054785ddf61578d4ac1ad83c1c2ac0951afc14c4551",
      "assetIds": []
    },
    {
      "x": 194,
      "y": 35,
      "size": 1,
      "price": "1011000000000000000000",
      "reserved": "",
      "salt": "0x61e744a8de985f119af6a72277f79a0c7c867240c22adc90dcacaeecebb9c9d9",
      "assetIds": []
    },
    {
      "x": 195,
      "y": 33,
      "size": 1,
      "price": "1011000000000000000000",
      "reserved": "",
      "salt": "0xb7b7caf236f54508ac42d10d5c3184d9c3954fbf7068a62efb795e95e9662798",
      "assetIds": []
    },
    {
      "x": 195,
      "y": 34,
      "size": 1,
      "price": "1011000000000000000000",
      "reserved": "",
      "salt": "0x08efdc5771fcc142583d28201ffef27187c5ffbd3bdd4c570e60a4a2c6f7259a",
      "assetIds": []
    },
    {
      "x": 195,
      "y": 35,
      "size": 1,
      "price": "4683000000000000000000",
      "reserved": "",
      "salt": "0x1ef2f25724b81e6d6b4a0c77e823a9f8f6ed4ad2bde8b97d2ac5257f76e652cc",
      "assetIds": [
        "24852169598127774260525153664255483487695641816159501770",
        "24852543742546930971672213807572658856148673734890503626",
        "24852917886966087682819273950889834224601705653621505482"
      ]
    },
    {
      "x": 196,
      "y": 33,
      "size": 1,
      "price": "1011000000000000000000",
      "reserved": "",
      "salt": "0x0e41a65b0b0463e2c1208f83cc4095bc66aab25fa99caa6931352e6f87ac6942",
      "assetIds": []
    },
    {
      "x": 196,
      "y": 34,
      "size": 1,
      "price": "1011000000000000000000",
      "reserved": "0x7a9fe22691c811ea339d9b73150e6911a5343dca",
      "salt": "0x84911effed482c530a065e3bf895904cc74f3431dbc040a392598a8496e58c72",
      "assetIds": []
    },
    {
      "x": 196,
      "y": 35,
      "size": 1,
      "price": "4683000000000000000000",
      "reserved": "",
      "salt": "0x7c14a01ad03cb9d57fa4047440b9226ed64603eaf7c0122a9e6268ddc52784fd",
      "assetIds": [
        "24852169598127774260525153664255483487695641816159501770",
        "24852543742546930971672213807572658856148673734890503626",
        "24852917886966087682819273950889834224601705653621505482"
      ]
    },
    {
      "x": 197,
      "y": 33,
      "size": 1,
      "price": "1011000000000000000000",
      "reserved": "",
      "salt": "0x181ef691015109959fb38a9bdad5de80f3764a0de573e9c8678fc59829cfeba1",
      "assetIds": []
    },
    {
      "x": 197,
      "y": 34,
      "size": 1,
      "price": "1011000000000000000000",
      "reserved": "",
      "salt": "0xa399d9536460f8caa7a6e6798e4b77a4b6a90383227e4039ab9d25a92d657c07",
      "assetIds": []
    },
    {
      "x": 197,
      "y": 35,
      "size": 1,
      "price": "1011000000000000000000",
      "reserved": "",
      "salt": "0xf6e298e492506dffb97a73a057d59fa143792898cf8dc8f62bdd6f0716193049",
      "assetIds": []
    },
    {
      "x": 198,
      "y": 33,
      "size": 1,
      "price": "1011000000000000000000",
      "reserved": "",
      "salt": "0x08e3ba2d67906c481011ec4895393aa66a3afaad136916524161c6373bc8c826",
      "assetIds": []
    },
    {
      "x": 198,
      "y": 34,
      "size": 1,
      "price": "1011000000000000000000",
      "reserved": "",
      "salt": "0x62f35cd67315ed4e8c840359b87b9a9d2e43262a7b822877626f24e8b4a82def",
      "assetIds": []
    },
    {
      "x": 198,
      "y": 35,
      "size": 1,
      "price": "4683000000000000000000",
      "reserved": "",
      "salt": "0x7b24a79a1d692f20afcccf3c0940a4c7d3a95e2adee59d334ef0f695e029e388",
      "assetIds": [
        "24852169598127774260525153664255483487695641816159501770",
        "24852543742546930971672213807572658856148673734890503626",
        "24852917886966087682819273950889834224601705653621505482"
      ]
    },
    {
      "x": 198,
      "y": 49,
      "size": 1,
      "price": "1011000000000000000000",
      "reserved": "",
      "salt": "0xf4c497b4c20ad4811b19fcdd056282cfdc5f252fb12aea61c89681c5d5b11d6a",
      "assetIds": []
    },
    {
      "x": 198,
      "y": 50,
      "size": 1,
      "price": "1011000000000000000000",
      "reserved": "",
      "salt": "0xdaf38895a8198cac9288bb53c7eee06d1423aa6f272c9ce28247baea506b4731",
      "assetIds": []
    },
    {
      "x": 198,
      "y": 54,
      "size": 1,
      "price": "1011000000000000000000",
      "reserved": "",
      "salt": "0x17fcfe16c0f63a6bd5f8978054e60e59642f437f686175f565cee6d60f9b9c8d",
      "assetIds": []
    },
    {
      "x": 198,
      "y": 55,
      "size": 1,
      "price": "1011000000000000000000",
      "reserved": "",
      "salt": "0xa09e262d70557584af75e9b0ddd7697cad56f31b7405c1bec24484588be24d93",
      "assetIds": []
    },
    {
      "x": 198,
      "y": 56,
      "size": 1,
      "price": "1011000000000000000000",
      "reserved": "",
      "salt": "0xeb1cbf3451a2042ed308b0779c2095d7483f2b2e1a190575f2dd213192760bdc",
      "assetIds": []
    },
    {
      "x": 198,
      "y": 57,
      "size": 1,
      "price": "1011000000000000000000",
      "reserved": "",
      "salt": "0x6496bc05de77a62a804d5819c04905259b7cdb87423e639cd1c6ce2dbceb0de5",
      "assetIds": []
    },
    {
      "x": 198,
      "y": 58,
      "size": 1,
      "price": "1011000000000000000000",
      "reserved": "",
      "salt": "0xf241e831d659c8a4f123baf277a67182ead453e8a3c7097f7dc8abb33ae202b4",
      "assetIds": []
    },
    {
      "x": 198,
      "y": 59,
      "size": 1,
      "price": "1011000000000000000000",
      "reserved": "",
      "salt": "0x219a1ad88504eccf903093d98d3536f1225d63f4601d305a38b24aa377167a26",
      "assetIds": []
    },
    {
      "x": 199,
      "y": 33,
      "size": 1,
      "price": "1011000000000000000000",
      "reserved": "",
      "salt": "0x88f6b7a8aa1f6ac430939fe6fe4a4ddb51504076fb1d8e1c4d30cd8a0800fd7e",
      "assetIds": []
    },
    {
      "x": 199,
      "y": 34,
      "size": 1,
      "price": "1011000000000000000000",
      "reserved": "0x7a9fe22691c811ea339d9b73150e6911a5343dca",
      "salt": "0x94fbd3ed894483f7b341a3e75bf50d2c94dbc0229127f495b67eda3ddd19eaae",
      "assetIds": []
    },
    {
      "x": 199,
      "y": 35,
      "size": 1,
      "price": "4683000000000000000000",
      "reserved": "",
      "salt": "0x1b7b9e48f188318f365cd5334d8c41c6302e0e8752cf3e582e588ac849fc1f81",
      "assetIds": [
        "24852169598127774260525153664255483487695641816159501770",
        "24852543742546930971672213807572658856148673734890503626",
        "24852917886966087682819273950889834224601705653621505482"
      ]
    },
    {
      "x": 199,
      "y": 48,
      "size": 1,
      "price": "4683000000000000000000",
      "reserved": "",
      "salt": "0x16e03ae4500fd30fc27a9f3d64017d679bcadb9d4dda0b2f3f29fd7faf8fa392",
      "assetIds": [
        "24852169598127774260525153664255483487695641816159501770",
        "24852543742546930971672213807572658856148673734890503626",
        "24852917886966087682819273950889834224601705653621505482"
      ]
    },
    {
      "x": 199,
      "y": 49,
      "size": 1,
      "price": "1011000000000000000000",
      "reserved": "",
      "salt": "0x1db0cd92af1cbc4a5c61a419e1c6494e4641beeccb1f208b3c9b61d91575bf97",
      "assetIds": []
    },
    {
      "x": 199,
      "y": 50,
      "size": 1,
      "price": "1011000000000000000000",
      "reserved": "",
      "salt": "0x50f94fc91644264beaeb481028ad797d6f0c9081ee7875b4ad0ec6569044223c",
      "assetIds": []
    },
    {
      "x": 199,
      "y": 54,
      "size": 1,
      "price": "1011000000000000000000",
      "reserved": "",
      "salt": "0x1aae6ae651c22149a3d60aad16b7e2a36b8987ccce4eaf632eb48ef17dc4ac8e",
      "assetIds": []
    },
    {
      "x": 199,
      "y": 55,
      "size": 1,
      "price": "1011000000000000000000",
      "reserved": "",
      "salt": "0xc128935a0ec0e076cd861f3554bea3b9f19347d6541b6eae922962803c8fc317",
      "assetIds": []
    },
    {
      "x": 199,
      "y": 56,
      "size": 1,
      "price": "1011000000000000000000",
      "reserved": "",
      "salt": "0x09567cebd3e26eaf4968d58893a1395f2207cd2092d6d35ee72b40591cdb9e4d",
      "assetIds": []
    },
    {
      "x": 199,
      "y": 57,
      "size": 1,
      "price": "1011000000000000000000",
      "reserved": "",
      "salt": "0xb241a07f3ebc47b0eaccac93c6a051da2802d1a48eecb0d34b7bb29faa26b5a9",
      "assetIds": []
    },
    {
      "x": 199,
      "y": 58,
      "size": 1,
      "price": "1011000000000000000000",
      "reserved": "",
      "salt": "0xeb5c5ea4e3bdc8c433e00a50cf8d13a9fd4ff7ecdd4c9fee41848d7ca83141d8",
      "assetIds": []
    },
    {
      "x": 199,
      "y": 59,
      "size": 1,
      "price": "1011000000000000000000",
      "reserved": "",
      "salt": "0xcdea9d2ecdfaebcc2c94600c556777959f4538b4ba1dbc908b2eee9c38a60749",
      "assetIds": []
    },
    {
      "x": 200,
      "y": 33,
      "size": 1,
      "price": "1011000000000000000000",
      "reserved": "",
      "salt": "0x38a7a554e4ba5ab646acac52ef67b0e590d1123bdff60a694b64a8fccb2767ad",
      "assetIds": []
    },
    {
      "x": 200,
      "y": 34,
      "size": 1,
      "price": "1011000000000000000000",
      "reserved": "",
      "salt": "0xdcf72fadce5b40d172917ec1a6cdaec03f752220f09e4f8dbe4fef7cd1f3a2e9",
      "assetIds": []
    },
    {
      "x": 200,
      "y": 35,
      "size": 1,
      "price": "1011000000000000000000",
      "reserved": "",
      "salt": "0x26d4c78c898756114237e048b2ad78a31086a4ef09906ea659aa861ab7c9f934",
      "assetIds": []
    },
    {
      "x": 200,
      "y": 49,
      "size": 1,
      "price": "1011000000000000000000",
      "reserved": "",
      "salt": "0xfd61ab2cf3f8bbff7178cc0fc582989637c985c2642e4e2477cb390116ff158e",
      "assetIds": []
    },
    {
      "x": 200,
      "y": 50,
      "size": 1,
      "price": "1011000000000000000000",
      "reserved": "",
      "salt": "0x107a3f79c51c6a10ef538932a2f2a67dc1ea8205eec1c407e4e6aea343ec0b95",
      "assetIds": []
    },
    {
      "x": 200,
      "y": 54,
      "size": 1,
      "price": "1011000000000000000000",
      "reserved": "",
      "salt": "0xc66e4b4cec5a7e7a381530b8ae80c74762c123c8e3fdf26c6f1dca543465ee8c",
      "assetIds": []
    },
    {
      "x": 200,
      "y": 56,
      "size": 1,
      "price": "1011000000000000000000",
      "reserved": "",
      "salt": "0x8c2d06b8a16776b4ee4d35fd8d30e20651b51f185d17d158356c0bfa0fe77502",
      "assetIds": []
    },
    {
      "x": 200,
      "y": 57,
      "size": 1,
      "price": "1011000000000000000000",
      "reserved": "",
      "salt": "0xaeab8d25ab2075f149b732a334bebe5f5f1ac7672584c17056a6e8de249551fb",
      "assetIds": []
    },
    {
      "x": 200,
      "y": 58,
      "size": 1,
      "price": "1011000000000000000000",
      "reserved": "",
      "salt": "0x290d17f87e66a1adecf9f251067c3a2828354849c55125e9414b9c461e6959c3",
      "assetIds": []
    },
    {
      "x": 200,
      "y": 59,
      "size": 1,
      "price": "1011000000000000000000",
      "reserved": "",
      "salt": "0xf06bc0beeb219230961fc3f51ff6bd3e4e87ff690d29dae2011f7d6970ca0a36",
      "assetIds": []
    },
    {
      "x": 201,
      "y": 33,
      "size": 1,
      "price": "1011000000000000000000",
      "reserved": "",
      "salt": "0x8426090be269443b5e7a51b7a7e5b66130122617eb4967b09955cb503c1410f9",
      "assetIds": []
    },
    {
      "x": 201,
      "y": 34,
      "size": 1,
      "price": "1011000000000000000000",
      "reserved": "",
      "salt": "0xe35a66cfc2021566f7c7834862ab0e8f69b286904748c63453fe479304bca658",
      "assetIds": []
    },
    {
      "x": 201,
      "y": 35,
      "size": 1,
      "price": "4683000000000000000000",
      "reserved": "",
      "salt": "0x90e03349ba46b23d83db93dd759b2e6ef48d44f25f03f36d97256a8d8b464cd8",
      "assetIds": [
        "24852169598127774260525153664255483487695641816159501770",
        "24852543742546930971672213807572658856148673734890503626",
        "24852917886966087682819273950889834224601705653621505482"
      ]
    },
    {
      "x": 201,
      "y": 48,
      "size": 1,
      "price": "4683000000000000000000",
      "reserved": "",
      "salt": "0xc7c1ab997d2d49800d5addbcdcf6371c91d811361fb4ecb7f8e746d3f49771e3",
      "assetIds": [
        "24852169598127774260525153664255483487695641816159501770",
        "24852543742546930971672213807572658856148673734890503626",
        "24852917886966087682819273950889834224601705653621505482"
      ]
    },
    {
      "x": 201,
      "y": 49,
      "size": 1,
      "price": "1011000000000000000000",
      "reserved": "",
      "salt": "0x1fcf433ff7fcf1494b1ae51afcfbb9c376edf054858c54deebcffcb03032ec46",
      "assetIds": []
    },
    {
      "x": 201,
      "y": 50,
      "size": 1,
      "price": "1011000000000000000000",
      "reserved": "",
      "salt": "0xb40677e7ca6346e056e1ec743d8353ab738cc545a3493dec8b044f32a63a4d02",
      "assetIds": []
    },
    {
      "x": 201,
      "y": 54,
      "size": 1,
      "price": "1011000000000000000000",
      "reserved": "",
      "salt": "0x8ea9639878d0d5c444224f6b47b17272b3fd72eb11598d75cd6733b6fd0a7e7f",
      "assetIds": []
    },
    {
      "x": 201,
      "y": 55,
      "size": 1,
      "price": "1011000000000000000000",
      "reserved": "0x7a9fe22691c811ea339d9b73150e6911a5343dca",
      "salt": "0x3c017f73cb361411db25617a87bf68607232e6a862d753d41ad0e55ac08dc2c2",
      "assetIds": []
    },
    {
      "x": 201,
      "y": 56,
      "size": 1,
      "price": "1011000000000000000000",
      "reserved": "",
      "salt": "0xc21e68dfe85e536e820ac61f922313d4f50519fb93f59e3e574334b65e173ede",
      "assetIds": []
    },
    {
      "x": 201,
      "y": 57,
      "size": 1,
      "price": "1011000000000000000000",
      "reserved": "",
      "salt": "0x0f988d1f42e0a1b86e053ac8e6e5a8790cc75a8fb40992592ff0dc9e8f7fc4f9",
      "assetIds": []
    },
    {
      "x": 201,
      "y": 58,
      "size": 1,
      "price": "1011000000000000000000",
      "reserved": "",
      "salt": "0x77b5f273fd51084182ea8aac2363444508920108c54177b344abc3d41e5724de",
      "assetIds": []
    },
    {
      "x": 201,
      "y": 59,
      "size": 1,
      "price": "1011000000000000000000",
      "reserved": "",
      "salt": "0x370893d8361183e02a0c0ef20ae419ac610d73866d4ca96df17f2a07e80772a1",
      "assetIds": []
    },
    {
      "x": 202,
      "y": 33,
      "size": 1,
      "price": "1011000000000000000000",
      "reserved": "",
      "salt": "0xf24d25eca069b18db1ab34516ed9c84766ba2ae3baee336529c82c2f1af47230",
      "assetIds": []
    },
    {
      "x": 202,
      "y": 34,
      "size": 1,
      "price": "1011000000000000000000",
      "reserved": "0x7a9fe22691c811ea339d9b73150e6911a5343dca",
      "salt": "0x6e65a413adf0979939e9c43c8ea599830b960ac325f27f1e1cf79ce32545f494",
      "assetIds": []
    },
    {
      "x": 202,
      "y": 35,
      "size": 1,
      "price": "4683000000000000000000",
      "reserved": "",
      "salt": "0xb561f828ccfcdb452e4c63255bf981bdb4e115ea647571e5474aad7bd7b4614b",
      "assetIds": [
        "24852169598127774260525153664255483487695641816159501770",
        "24852543742546930971672213807572658856148673734890503626",
        "24852917886966087682819273950889834224601705653621505482"
      ]
    },
    {
      "x": 202,
      "y": 49,
      "size": 1,
      "price": "1011000000000000000000",
      "reserved": "",
      "salt": "0x7aeff25fe91a20c53cfd5d8bd672ce3e6f4d4d39ac77305a85794ea0b8d69ae1",
      "assetIds": []
    },
    {
      "x": 202,
      "y": 50,
      "size": 1,
      "price": "1011000000000000000000",
      "reserved": "",
      "salt": "0x5954b1f37d4b35348f25503412c257242a12bef0223f2a4fd8117ce013d4b4ee",
      "assetIds": []
    },
    {
      "x": 202,
      "y": 54,
      "size": 1,
      "price": "1011000000000000000000",
      "reserved": "",
      "salt": "0x51926d05c6fb57fef6fbf41c683681a9e82ab59cfac80e0e838ce10d09af37c6",
      "assetIds": []
    },
    {
      "x": 202,
      "y": 55,
      "size": 1,
      "price": "1011000000000000000000",
      "reserved": "",
      "salt": "0xd48aefbc40241aad719a0b7dc0bda918fca1c0e01d76d0cc307d9c3ffce37b7e",
      "assetIds": []
    },
    {
      "x": 202,
      "y": 56,
      "size": 1,
      "price": "1011000000000000000000",
      "reserved": "",
      "salt": "0xe3757b8e62aaf87d7fb679d2ea2c8758e48f19a63b124ca2221fcb5fea4ccf7d",
      "assetIds": []
    },
    {
      "x": 202,
      "y": 57,
      "size": 1,
      "price": "1011000000000000000000",
      "reserved": "",
      "salt": "0x799db4b428bd29627048b9f0406c61d2fcb1e34250264acbbee877eba5cc0b12",
      "assetIds": []
    },
    {
      "x": 202,
      "y": 58,
      "size": 1,
      "price": "1011000000000000000000",
      "reserved": "",
      "salt": "0xfd560b919e6c8e11467d8dad4221707ad7dd8b0b90f6196e232703a83850c2ab",
      "assetIds": []
    },
    {
      "x": 202,
      "y": 59,
      "size": 1,
      "price": "1011000000000000000000",
      "reserved": "",
      "salt": "0xaac1bc001b35def0d3899c5c85a9c2e544c8f19ee286e6b3beb0e6a83385fbb1",
      "assetIds": []
    },
    {
      "x": 203,
      "y": 33,
      "size": 1,
      "price": "1011000000000000000000",
      "reserved": "",
      "salt": "0x667e6b0e15a7f311ddcd5a51ac2a46dccc811fd92750e78b7c6f35176b798418",
      "assetIds": []
    },
    {
      "x": 203,
      "y": 34,
      "size": 1,
      "price": "1011000000000000000000",
      "reserved": "",
      "salt": "0x91fb2198c9fdebd78126f51aebd41b7733a89c903661ae9a6e5758163c497d8f",
      "assetIds": []
    },
    {
      "x": 203,
      "y": 35,
      "size": 1,
      "price": "1011000000000000000000",
      "reserved": "",
      "salt": "0x8cce97526c98086a733711e095887d5137aa41b60ed5687765bc7ea8d6ff40ab",
      "assetIds": []
    },
    {
      "x": 203,
      "y": 48,
      "size": 1,
      "price": "4683000000000000000000",
      "reserved": "",
      "salt": "0x3d1c5e6d5b6c5b21c0bb239a7134e7f4d9ae8a2d7d5aafa99d3bd42deeb5582e",
      "assetIds": [
        "24852169598127774260525153664255483487695641816159501770",
        "24852543742546930971672213807572658856148673734890503626",
        "24852917886966087682819273950889834224601705653621505482"
      ]
    },
    {
      "x": 203,
      "y": 49,
      "size": 1,
      "price": "1011000000000000000000",
      "reserved": "",
      "salt": "0xb84a4ee836b6f8ae7420fc30099b913fc2f8bded1084943599f8f3669ad01a54",
      "assetIds": []
    },
    {
      "x": 203,
      "y": 50,
      "size": 1,
      "price": "1011000000000000000000",
      "reserved": "",
      "salt": "0xf6c62310569bd36287a9faca2954feb69446699d1920bf0df9ba46a23bec50d9",
      "assetIds": []
    },
    {
      "x": 203,
      "y": 54,
      "size": 1,
      "price": "1011000000000000000000",
      "reserved": "0x7a9fe22691c811ea339d9b73150e6911a5343dca",
      "salt": "0x903f2446a2cabe535f051e1215ddfe470d3929794ba628d86001966430a1881c",
      "assetIds": []
    },
    {
      "x": 203,
      "y": 55,
      "size": 1,
      "price": "1011000000000000000000",
      "reserved": "",
      "salt": "0x9c2a5dd8c191fbfc0e99e1bf3d8e55046c0369cd6e53e8d831dcf64226b79578",
      "assetIds": []
    },
    {
      "x": 203,
      "y": 56,
      "size": 1,
      "price": "1011000000000000000000",
      "reserved": "",
      "salt": "0x956da49f7e3c26de855a39fb80f44f62430c4fa8abc1147a8a8a9116b71e23a3",
      "assetIds": []
    },
    {
      "x": 203,
      "y": 57,
      "size": 1,
      "price": "1011000000000000000000",
      "reserved": "",
      "salt": "0xef617e5ca2729f4918964db60c127a21c9d3a982633f14619c192dcd9b3050a9",
      "assetIds": []
    },
    {
      "x": 203,
      "y": 58,
      "size": 1,
      "price": "1011000000000000000000",
      "reserved": "",
      "salt": "0xee6d465bc97a46299fb8705aa3099245bb4277d34c0910da07012e131ada493f",
      "assetIds": []
    },
    {
      "x": 203,
      "y": 59,
      "size": 1,
      "price": "1011000000000000000000",
      "reserved": "",
      "salt": "0x755ecdb5c3d9df32c4d8c96a799188ab52c8c14b3513b73b1fdac174166db3b4",
      "assetIds": []
    },
    {
      "x": 204,
      "y": 33,
      "size": 1,
      "price": "1011000000000000000000",
      "reserved": "",
      "salt": "0x2d235776fecd1a90e54f61b8bbff80ad04012c444690cae3578f4162cca70508",
      "assetIds": []
    },
    {
      "x": 204,
      "y": 34,
      "size": 1,
      "price": "1011000000000000000000",
      "reserved": "",
      "salt": "0x8f98a84d0be1c38b28ba157e740f1d269faa855a6e5d18dd182a90d05fac55fc",
      "assetIds": []
    },
    {
      "x": 204,
      "y": 35,
      "size": 1,
      "price": "1011000000000000000000",
      "reserved": "0x7a9fe22691c811ea339d9b73150e6911a5343dca",
      "salt": "0xb6a0b8e095a106bcdaf4f7a88c842c4f1933b6cad7dceaddff766cf98d9bc730",
      "assetIds": []
    },
    {
      "x": 204,
      "y": 40,
      "size": 1,
      "price": "4683000000000000000000",
      "reserved": "",
      "salt": "0x069a477fac955e0e28e0bbf11ae20d969f0089745ce0d503736f499f94edc269",
      "assetIds": [
        "24852169598127774260525153664255483487695641816159501770",
        "24852543742546930971672213807572658856148673734890503626",
        "24852917886966087682819273950889834224601705653621505482"
      ]
    },
    {
      "x": 204,
      "y": 42,
      "size": 1,
      "price": "4683000000000000000000",
      "reserved": "",
      "salt": "0x191919d5c613e47a1053d306a1be911bd6d643a58a26e8680e370225c4e4a05c",
      "assetIds": [
        "24852169598127774260525153664255483487695641816159501770",
        "24852543742546930971672213807572658856148673734890503626",
        "24852917886966087682819273950889834224601705653621505482"
      ]
    },
    {
      "x": 204,
      "y": 46,
      "size": 1,
      "price": "4683000000000000000000",
      "reserved": "",
      "salt": "0xa6250f1d06779a05709907c46b80ad229b009fd3749178347a8d54a57542a04b",
      "assetIds": [
        "24852169598127774260525153664255483487695641816159501770",
        "24852543742546930971672213807572658856148673734890503626",
        "24852917886966087682819273950889834224601705653621505482"
      ]
    },
    {
      "x": 204,
      "y": 57,
      "size": 1,
      "price": "1011000000000000000000",
      "reserved": "",
      "salt": "0x7724dec0cef24b82e6c5b99fd1a002762e0ab35137e3e714d618cb17e9ebdfab",
      "assetIds": []
    },
    {
      "x": 204,
      "y": 58,
      "size": 1,
      "price": "1011000000000000000000",
      "reserved": "",
      "salt": "0x605efdb9474861b2f27616a2b154261646951ceb2ef637d8e5c9a63b2d758db9",
      "assetIds": []
    },
    {
      "x": 204,
      "y": 59,
      "size": 1,
      "price": "1011000000000000000000",
      "reserved": "",
      "salt": "0x1e385701adb4463a1ab0abac5e68151e3f5960b07198d18c85bb660cd0ba51c5",
      "assetIds": []
    },
    {
      "x": 205,
      "y": 33,
      "size": 1,
      "price": "1011000000000000000000",
      "reserved": "",
      "salt": "0x3e7729fd0730d1f34a3995e0258f200ad6a59302de9c61f57039dc7fb0e0b1c7",
      "assetIds": []
    },
    {
      "x": 205,
      "y": 34,
      "size": 1,
      "price": "1011000000000000000000",
      "reserved": "0x7a9fe22691c811ea339d9b73150e6911a5343dca",
      "salt": "0xefa619bbbe688be90522435d1d7ab31cd3cd4e20bfdc364a62390a46e52d0b2f",
      "assetIds": []
    },
    {
      "x": 205,
      "y": 35,
      "size": 1,
      "price": "1011000000000000000000",
      "reserved": "",
      "salt": "0x3392954e637e540d946c6528755f5d3c2fe68ad271161c6b00cffc780efe3e8a",
      "assetIds": []
    },
    {
      "x": 205,
      "y": 40,
      "size": 1,
      "price": "1011000000000000000000",
      "reserved": "",
      "salt": "0x6f22a03b75944d4800f1f9bd83a8497a0a589596b7c806b5a0b4610843ccf99e",
      "assetIds": []
    },
    {
      "x": 205,
      "y": 41,
      "size": 1,
      "price": "1011000000000000000000",
      "reserved": "0x7a9fe22691c811ea339d9b73150e6911a5343dca",
      "salt": "0x0c7621e904ed03dbe1a63fd10e769beccbb301b528321c73fd42c9ec521bfc5b",
      "assetIds": []
    },
    {
      "x": 205,
      "y": 42,
      "size": 1,
      "price": "1011000000000000000000",
      "reserved": "",
      "salt": "0x91166bfb5ad29657db1fae5625f2ad924b60532597cf8f22759d970ccbf23dbf",
      "assetIds": []
    },
    {
      "x": 205,
      "y": 43,
      "size": 1,
      "price": "1011000000000000000000",
      "reserved": "",
      "salt": "0x32fa5663fc66ba3f3d1da7b676dcc93bf07012b710f0f9a6216e2cac86c38aa2",
      "assetIds": []
    },
    {
      "x": 205,
      "y": 44,
      "size": 1,
      "price": "1011000000000000000000",
      "reserved": "",
      "salt": "0xb46a926f1b1020f29c6ec18521a8d4b5cb9149d5c720c643ab1100346c1c2044",
      "assetIds": []
    },
    {
      "x": 205,
      "y": 45,
      "size": 1,
      "price": "1011000000000000000000",
      "reserved": "",
      "salt": "0x90c143b4c9dad856009d2bdaa6545c0d414d87979c12d9828bd56da567781e61",
      "assetIds": []
    },
    {
      "x": 205,
      "y": 46,
      "size": 1,
      "price": "1011000000000000000000",
      "reserved": "0x7a9fe22691c811ea339d9b73150e6911a5343dca",
      "salt": "0x6d9c274469c9e32946ff552e214e1c312a68c422a9ead3b8502be25529fbb4f3",
      "assetIds": []
    },
    {
      "x": 205,
      "y": 47,
      "size": 1,
      "price": "1011000000000000000000",
      "reserved": "",
      "salt": "0x96275f64c173a23f09709ecb52ab5bcee5bfc0c0e59a8cf9416b8d45e6f0717e",
      "assetIds": []
    },
    {
      "x": 205,
      "y": 57,
      "size": 1,
      "price": "1011000000000000000000",
      "reserved": "",
      "salt": "0x0bce5c55f099dad6956a8a587a08aad1645d9e88b9fa3fd969c7c518303aa0fa",
      "assetIds": []
    },
    {
      "x": 205,
      "y": 59,
      "size": 1,
      "price": "1011000000000000000000",
      "reserved": "",
      "salt": "0x6c945acc3082df16b95a0f8a657179413980c727145d22fc9e80fe04e94a5001",
      "assetIds": []
    },
    {
      "x": 206,
      "y": 33,
      "size": 1,
      "price": "1011000000000000000000",
      "reserved": "",
      "salt": "0x70d112449a822b3ff9e1251456b43cec757b3db86f2017d98edae124d506a0e7",
      "assetIds": []
    },
    {
      "x": 206,
      "y": 34,
      "size": 1,
      "price": "1011000000000000000000",
      "reserved": "",
      "salt": "0x867e5c51cd1e3bb1f68ab7d301b11507032cc18c1ce43bb59bb044c62299a022",
      "assetIds": []
    },
    {
      "x": 206,
      "y": 35,
      "size": 1,
      "price": "1011000000000000000000",
      "reserved": "",
      "salt": "0x84167579f85a628ab608f36415598dc66918b77c088ffbf9fa36fef30fce2796",
      "assetIds": []
    },
    {
      "x": 206,
      "y": 39,
      "size": 1,
      "price": "1011000000000000000000",
      "reserved": "",
      "salt": "0x2606de7459c6a0fd40c44041c0a44de8fd212cfb9d412c2e75e8911a872fb041",
      "assetIds": []
    },
    {
      "x": 206,
      "y": 40,
      "size": 1,
      "price": "1011000000000000000000",
      "reserved": "",
      "salt": "0x361d36603da63df33c8600d3efdf179ea519dfeb37ccf74456464dda710a8e6d",
      "assetIds": []
    },
    {
      "x": 206,
      "y": 41,
      "size": 1,
      "price": "1011000000000000000000",
      "reserved": "",
      "salt": "0xba2ef59a6e82a975f777e19d01d76edde52566a93aa48aeec0a5d2b9825593d3",
      "assetIds": []
    },
    {
      "x": 206,
      "y": 42,
      "size": 1,
      "price": "1011000000000000000000",
      "reserved": "",
      "salt": "0xaf83292eff6656283580a53ba12fc8e31fa29999ddafd0830e8630786de50f24",
      "assetIds": []
    },
    {
      "x": 206,
      "y": 43,
      "size": 1,
      "price": "1011000000000000000000",
      "reserved": "",
      "salt": "0x659388fcd593d8aef5629aa98e69082d282215f548cdad982824972a3d34a845",
      "assetIds": []
    },
    {
      "x": 206,
      "y": 44,
      "size": 1,
      "price": "1011000000000000000000",
      "reserved": "",
      "salt": "0xe1efe454fedd343afe55a99c5b8b0712ca48c888f72101ad2b47e527a1de54c1",
      "assetIds": []
    },
    {
      "x": 206,
      "y": 45,
      "size": 1,
      "price": "1011000000000000000000",
      "reserved": "",
      "salt": "0xee9f3e81216e753968261a20aa5415e371162b4d1f12b9e65b50173712e5d438",
      "assetIds": []
    },
    {
      "x": 206,
      "y": 46,
      "size": 1,
      "price": "1011000000000000000000",
      "reserved": "",
      "salt": "0x44b67d90ba37dd8fbd74068d2e14b6be1e9a5d78dc63129acae4dba7067ccf5a",
      "assetIds": []
    },
    {
      "x": 206,
      "y": 47,
      "size": 1,
      "price": "1011000000000000000000",
      "reserved": "",
      "salt": "0xf85df50ce3d373419c857622df65b01c8bf3977a40b8000ae0c40af0dc8cbf0a",
      "assetIds": []
    },
    {
      "x": 206,
      "y": 57,
      "size": 1,
      "price": "1011000000000000000000",
      "reserved": "",
      "salt": "0xaad6030ae54351183555ee3fdb5362f5a0ec08e92208f15ae28e6cef3621c157",
      "assetIds": []
    },
    {
      "x": 206,
      "y": 58,
      "size": 1,
      "price": "1011000000000000000000",
      "reserved": "",
      "salt": "0x93e25dcbea1bfcc6859d53a9bf6fc57dcf34c466bb5786d95dd680824b65caa0",
      "assetIds": []
    },
    {
      "x": 206,
      "y": 59,
      "size": 1,
      "price": "1011000000000000000000",
      "reserved": "",
      "salt": "0xbedf55b8910f6215097fdecb4a2c17683c943071f16fdaa0cca9318b295235e2",
      "assetIds": []
    },
    {
      "x": 207,
      "y": 33,
      "size": 1,
      "price": "1011000000000000000000",
      "reserved": "",
      "salt": "0xcc427be49d5ff220e543d1fb637bb29733cb8cd491064b651dca2f659ee6b1be",
      "assetIds": []
    },
    {
      "x": 207,
      "y": 34,
      "size": 1,
      "price": "1011000000000000000000",
      "reserved": "",
      "salt": "0x50d07d32f884cf39d498f510f544210fe36c0b221c8c8fd1d14598c609cb3fa2",
      "assetIds": []
    },
    {
      "x": 207,
      "y": 35,
      "size": 1,
      "price": "1011000000000000000000",
      "reserved": "",
      "salt": "0x90fd982d69002a45ce68822be498edd6305126862c2f7f5e9300082dd9f05c64",
      "assetIds": []
    },
    {
      "x": 207,
      "y": 36,
      "size": 1,
      "price": "1011000000000000000000",
      "reserved": "",
      "salt": "0x210a9d6b222c2a38643c38cf699c1cbb22ad10b2bdd5a43f377ca310440e499a",
      "assetIds": []
    },
    {
      "x": 207,
      "y": 37,
      "size": 1,
      "price": "1011000000000000000000",
      "reserved": "",
      "salt": "0x055405b9f21d99d9e5e30b6b04d1972aa58c86985dae1d33ac90184dc27b6326",
      "assetIds": []
    },
    {
      "x": 207,
      "y": 38,
      "size": 1,
      "price": "1011000000000000000000",
      "reserved": "",
      "salt": "0x93f074da0af681810cf379e3fbe76c4fe828177bb80d6b88bf8af91ebff69bd3",
      "assetIds": []
    },
    {
      "x": 207,
      "y": 39,
      "size": 1,
      "price": "1011000000000000000000",
      "reserved": "",
      "salt": "0x435f30499362050828b5493b3cc866a52148d1cdabd6bfbf361bfb4d1840234c",
      "assetIds": []
    },
    {
      "x": 207,
      "y": 40,
      "size": 1,
      "price": "1011000000000000000000",
      "reserved": "",
      "salt": "0xb4fbca2e796a4b7f3d571bf4a0d9825c191c2758d83a70ec407fd8ff1926ac26",
      "assetIds": []
    },
    {
      "x": 207,
      "y": 41,
      "size": 1,
      "price": "1011000000000000000000",
      "reserved": "",
      "salt": "0x3eee90661e131601855c50366295cd21ddc3f89ad60c2c7b92f64c723dbba6a2",
      "assetIds": []
    },
    {
      "x": 207,
      "y": 42,
      "size": 1,
      "price": "1011000000000000000000",
      "reserved": "",
      "salt": "0x9b63e7cefe20e4f9a399cc96bb8dd384aae39c6c1bb1cee95c900962b57e3460",
      "assetIds": []
    },
    {
      "x": 207,
      "y": 43,
      "size": 1,
      "price": "1011000000000000000000",
      "reserved": "",
      "salt": "0x954469d972d2b371e3ac84a2416ed3806a92505458af58f95bef65d2af40433e",
      "assetIds": []
    },
    {
      "x": 207,
      "y": 44,
      "size": 1,
      "price": "1011000000000000000000",
      "reserved": "",
      "salt": "0x597fa076e19c5a2a720d755acdd8ca714e587c5abf11e25a3a254345911fb3a1",
      "assetIds": []
    },
    {
      "x": 207,
      "y": 45,
      "size": 1,
      "price": "1011000000000000000000",
      "reserved": "",
      "salt": "0x6f0b03a58b7566188405de2f54155d30ab5524f9d6a1c8792bf5599742c96a0b",
      "assetIds": []
    },
    {
      "x": 207,
      "y": 46,
      "size": 1,
      "price": "1011000000000000000000",
      "reserved": "",
      "salt": "0x2c03b8ebc89a3854ab3d755a6d6a9a5393ea70ef12caf4e27e69d59da8735a13",
      "assetIds": []
    },
    {
      "x": 207,
      "y": 47,
      "size": 1,
      "price": "1011000000000000000000",
      "reserved": "",
      "salt": "0x13b55becdc871f6c450159412b688680c3e9a4d8a7f60796ba4a8cf51789cdf5",
      "assetIds": []
    },
    {
      "x": 207,
      "y": 57,
      "size": 1,
      "price": "1011000000000000000000",
      "reserved": "",
      "salt": "0x1087b17ca8dd7944793e7068012ec03b6b263ad3e79deb031466052caa7f5d00",
      "assetIds": []
    },
    {
      "x": 207,
      "y": 58,
      "size": 1,
      "price": "1011000000000000000000",
      "reserved": "",
      "salt": "0x4b0a1f3f9ec933e3e294a78e86328bd73b21aa44f619ec5f185ab552062eb9e9",
      "assetIds": []
    },
    {
      "x": 207,
      "y": 59,
      "size": 1,
      "price": "1011000000000000000000",
      "reserved": "",
      "salt": "0x272ad7add95b476233bd20cd22879aa372808afb4d1c2e1e268138fc30b7f181",
      "assetIds": []
    },
    {
      "x": 208,
      "y": 33,
      "size": 1,
      "price": "1011000000000000000000",
      "reserved": "",
      "salt": "0x7d9ed29178259a1c72a49dd8f925c02163c1e014a7ec24e9e98498ec529101e1",
      "assetIds": []
    },
    {
      "x": 208,
      "y": 34,
      "size": 1,
      "price": "1011000000000000000000",
      "reserved": "0x7a9fe22691c811ea339d9b73150e6911a5343dca",
      "salt": "0xff6923b415cb17dd971b25bd145093b30c5a5d8a399bd7bd261bd51a533cae67",
      "assetIds": []
    },
    {
      "x": 208,
      "y": 35,
      "size": 1,
      "price": "1011000000000000000000",
      "reserved": "",
      "salt": "0xb97a2bb8942f3f085335f729a02329d97dc0e5900c2b8a29e0262da21b2c6a81",
      "assetIds": []
    },
    {
      "x": 208,
      "y": 36,
      "size": 1,
      "price": "1011000000000000000000",
      "reserved": "",
      "salt": "0x2e3f06f5c6c41877b16111a86e64832a46ee8aba5081ea93bf7b476aaf4ccc13",
      "assetIds": []
    },
    {
      "x": 208,
      "y": 37,
      "size": 1,
      "price": "1011000000000000000000",
      "reserved": "",
      "salt": "0x5a602e6263c87c1c6c115f7c0da925177430b96d9b7b2e22403e04d798406f16",
      "assetIds": []
    },
    {
      "x": 208,
      "y": 38,
      "size": 1,
      "price": "1011000000000000000000",
      "reserved": "",
      "salt": "0x1ba423ab112ebb243ce206c09d68d8e43fbdde97d6d3d67c0a19a0e80be204fd",
      "assetIds": []
    },
    {
      "x": 208,
      "y": 39,
      "size": 1,
      "price": "1011000000000000000000",
      "reserved": "0x7a9fe22691c811ea339d9b73150e6911a5343dca",
      "salt": "0x2665c149db3909dc222fb793da8053b2d3618da10516ac0bf7ea4a00d9b7b6b1",
      "assetIds": []
    },
    {
      "x": 208,
      "y": 40,
      "size": 1,
      "price": "1011000000000000000000",
      "reserved": "",
      "salt": "0x56b1618196625420c8b15723e28367bf0cb1c089900750e25a1a168bab7dc2d5",
      "assetIds": []
    },
    {
      "x": 208,
      "y": 41,
      "size": 1,
      "price": "1011000000000000000000",
      "reserved": "",
      "salt": "0xe31ac1f3219aad3ff3af2ecbf5a036ce342049ad5335c031a6ef11b6b9e7d609",
      "assetIds": []
    },
    {
      "x": 208,
      "y": 42,
      "size": 1,
      "price": "1011000000000000000000",
      "reserved": "",
      "salt": "0x0b5def991470a733d2e4013ff7d4b0c20b75adc124da14521a136a721808d3fd",
      "assetIds": []
    },
    {
      "x": 208,
      "y": 43,
      "size": 1,
      "price": "1011000000000000000000",
      "reserved": "0x7a9fe22691c811ea339d9b73150e6911a5343dca",
      "salt": "0x1120918affa40f130dc000bb94e4eca3b6499f079b573ddcaa7d4150e3f52bef",
      "assetIds": []
    },
    {
      "x": 208,
      "y": 44,
      "size": 1,
      "price": "1011000000000000000000",
      "reserved": "",
      "salt": "0x96dd8e91115f161f89878d0351400015aa322317fa9e27803abe6ba7fce6e3a9",
      "assetIds": []
    },
    {
      "x": 208,
      "y": 45,
      "size": 1,
      "price": "1011000000000000000000",
      "reserved": "",
      "salt": "0x4dcb7674b57871b67fed1915a3dfda5ccce7c5bb85449258997ba34e0181803e",
      "assetIds": []
    },
    {
      "x": 208,
      "y": 46,
      "size": 1,
      "price": "1011000000000000000000",
      "reserved": "0x7a9fe22691c811ea339d9b73150e6911a5343dca",
      "salt": "0xc6dfa32fa51440b5124d33aa298cc8afedebf3e99b434139a1973208cd5c131c",
      "assetIds": []
    },
    {
      "x": 208,
      "y": 47,
      "size": 1,
      "price": "1011000000000000000000",
      "reserved": "",
      "salt": "0x0869180475d7fa593d2075901888988aa939bf1c029762b524c764412e840dea",
      "assetIds": []
    },
    {
      "x": 208,
      "y": 57,
      "size": 1,
      "price": "1011000000000000000000",
      "reserved": "",
      "salt": "0x36066ab5621b758c3c14310f6d9c318e7c00447660890beefcb5205940483020",
      "assetIds": []
    },
    {
      "x": 208,
      "y": 58,
      "size": 1,
      "price": "1011000000000000000000",
      "reserved": "0x7a9fe22691c811ea339d9b73150e6911a5343dca",
      "salt": "0x7f6e694a99f4c374684029cb565eb24f32127177c02bf858cf93a686680e7805",
      "assetIds": []
    },
    {
      "x": 208,
      "y": 59,
      "size": 1,
      "price": "1011000000000000000000",
      "reserved": "",
      "salt": "0xe20d30ea00ed03d406eedc4d8bbae79bb9ddbadc3675675625e8188e55488f92",
      "assetIds": []
    },
    {
      "x": 209,
      "y": 33,
      "size": 1,
      "price": "1011000000000000000000",
      "reserved": "",
      "salt": "0x8b39bc70c3f0c800292fc185448f8fd7967fcce79df4b2cd2148238fc7cfeba6",
      "assetIds": []
    },
    {
      "x": 209,
      "y": 34,
      "size": 1,
      "price": "1011000000000000000000",
      "reserved": "",
      "salt": "0x9342c2876d3e1ea6376e3bccae68a51ddcbc89c5ec7df11b89dd7e135cd27da1",
      "assetIds": []
    },
    {
      "x": 209,
      "y": 35,
      "size": 1,
      "price": "1011000000000000000000",
      "reserved": "",
      "salt": "0xfc76624c3d7f94205110801d0fec91b49219edd24f51d9e7beeacd21a1722109",
      "assetIds": []
    },
    {
      "x": 209,
      "y": 36,
      "size": 1,
      "price": "1011000000000000000000",
      "reserved": "",
      "salt": "0xba0939f33f239b6353185929bc4d259bed1c77b2908f0ed883954987c11e0419",
      "assetIds": []
    },
    {
      "x": 209,
      "y": 37,
      "size": 1,
      "price": "1011000000000000000000",
      "reserved": "",
      "salt": "0x29a35b86993a6b1637f7cef6e41adf2ef4796e4759cbf6f25779c49eebd63664",
      "assetIds": []
    },
    {
      "x": 209,
      "y": 38,
      "size": 1,
      "price": "1011000000000000000000",
      "reserved": "",
      "salt": "0x8510484695392b91eb1e738dcc2055866a56976bdb19278ccd85d107e84d92d7",
      "assetIds": []
    },
    {
      "x": 209,
      "y": 39,
      "size": 1,
      "price": "1011000000000000000000",
      "reserved": "",
      "salt": "0xf8fb3cbad5fa2f34302f7ccd314f85912cef5d559074753c7a2ee5eb7b78b92d",
      "assetIds": []
    },
    {
      "x": 209,
      "y": 40,
      "size": 1,
      "price": "1011000000000000000000",
      "reserved": "",
      "salt": "0x12ffd764976851fb6b7792ba0b0a6f78c1bb0c3d7dff61895ad6f8afc4946934",
      "assetIds": []
    },
    {
      "x": 209,
      "y": 41,
      "size": 1,
      "price": "1011000000000000000000",
      "reserved": "",
      "salt": "0x87e2c0e35992ecc56ffc28e82f95050543fc2ceb6828a192b882cd54c3b48aa5",
      "assetIds": []
    },
    {
      "x": 209,
      "y": 42,
      "size": 1,
      "price": "1011000000000000000000",
      "reserved": "",
      "salt": "0xc8556af3bf231e5396c14bb81a1d9ec86772ad8101826861c69bf936024fd3c9",
      "assetIds": []
    },
    {
      "x": 209,
      "y": 43,
      "size": 1,
      "price": "1011000000000000000000",
      "reserved": "",
      "salt": "0x4927b365d44766922f631b7bf2c7f0b7bf87c215930b035d0c1d9254801da37a",
      "assetIds": []
    },
    {
      "x": 209,
      "y": 44,
      "size": 1,
      "price": "1011000000000000000000",
      "reserved": "",
      "salt": "0x0a1725c66da2160f0f6552d499cb35ebeb8901bda9f76dd381a9d037bf997d5c",
      "assetIds": []
    },
    {
      "x": 209,
      "y": 45,
      "size": 1,
      "price": "1011000000000000000000",
      "reserved": "",
      "salt": "0x366ea2ac51daa72318748f09184d08e38285d78a7fafc2e116ca8f880956dc04",
      "assetIds": []
    },
    {
      "x": 209,
      "y": 46,
      "size": 1,
      "price": "1011000000000000000000",
      "reserved": "",
      "salt": "0x633f4c7c8c4238da8bc6a0ca889ddfd016efb91cadc0398cca03cb79a2d8f770",
      "assetIds": []
    },
    {
      "x": 209,
      "y": 47,
      "size": 1,
      "price": "1011000000000000000000",
      "reserved": "",
      "salt": "0xd8465a379f3f3dc79a8c813867f1c2978b2320601078505e92225b7b5e9adb33",
      "assetIds": []
    },
    {
      "x": 209,
      "y": 57,
      "size": 1,
      "price": "1011000000000000000000",
      "reserved": "",
      "salt": "0x4d8459540d61634db55e2817f01843958c9d6b4d0ea361d1216de1404c66a078",
      "assetIds": []
    },
    {
      "x": 209,
      "y": 58,
      "size": 1,
      "price": "1011000000000000000000",
      "reserved": "",
      "salt": "0xbc9a57f4237721365aa0a0bef10145a0f826379a8d36ebd74367890201dda26a",
      "assetIds": []
    },
    {
      "x": 209,
      "y": 59,
      "size": 1,
      "price": "1011000000000000000000",
      "reserved": "",
      "salt": "0x46269546320da41a261f89af18871a741b5f1143785fe7c1e900bedee65d1190",
      "assetIds": []
    },
    {
      "x": 210,
      "y": 36,
      "size": 1,
      "price": "1011000000000000000000",
      "reserved": "",
      "salt": "0xe4e29afc93d9350bc9c0a6618e3df37679008fdf3602e846328b2b4c7314b49a",
      "assetIds": []
    },
    {
      "x": 210,
      "y": 37,
      "size": 1,
      "price": "1011000000000000000000",
      "reserved": "",
      "salt": "0x8c5ddded49aa81057429f5cab579c0722c02f561eecabb3346eeffeaf8b6a5d6",
      "assetIds": []
    },
    {
      "x": 210,
      "y": 38,
      "size": 1,
      "price": "1011000000000000000000",
      "reserved": "",
      "salt": "0x30169290db29533c82336f19bdaf37280b367b11daeab121236b539a97718a6c",
      "assetIds": []
    },
    {
      "x": 210,
      "y": 39,
      "size": 1,
      "price": "1011000000000000000000",
      "reserved": "",
      "salt": "0x9b952ee694f40d7190dcacd350fd287964c826ad95d16b745fe716fdc1264f47",
      "assetIds": []
    },
    {
      "x": 210,
      "y": 40,
      "size": 1,
      "price": "1011000000000000000000",
      "reserved": "",
      "salt": "0xfa143df0f6b6b1663c1a369d603c2e0566f8b7f27eccc7a0bd3751c1e6334bef",
      "assetIds": []
    },
    {
      "x": 210,
      "y": 41,
      "size": 1,
      "price": "1011000000000000000000",
      "reserved": "0x7a9fe22691c811ea339d9b73150e6911a5343dca",
      "salt": "0x062f05c090e0c778351bbe278fd746c8cbfc4902489d91eb53ce87543ae138d0",
      "assetIds": []
    },
    {
      "x": 210,
      "y": 48,
      "size": 1,
      "price": "1011000000000000000000",
      "reserved": "",
      "salt": "0x07a161f1629c59fcefb6b2ca4d16965153a9c15b79b9696cf3281e4e3c6fbdc2",
      "assetIds": []
    },
    {
      "x": 210,
      "y": 49,
      "size": 1,
      "price": "1011000000000000000000",
      "reserved": "",
      "salt": "0xb3125ccf35c468ed2ae314b4e90ed39493c46eed0d5288665cee04a758839163",
      "assetIds": []
    },
    {
      "x": 210,
      "y": 50,
      "size": 1,
      "price": "1011000000000000000000",
      "reserved": "",
      "salt": "0x5be2a0a6c13bb5af9da6a6b4e32af2a9b6874d7e9b8a3eb9edcde062c85791f4",
      "assetIds": []
    },
    {
      "x": 210,
      "y": 51,
      "size": 1,
      "price": "1011000000000000000000",
      "reserved": "",
      "salt": "0x80f1da31c57d6142f5d7b209d1d558039e99a669f475c6affedd19b15717e1c9",
      "assetIds": []
    },
    {
      "x": 210,
      "y": 52,
      "size": 1,
      "price": "1011000000000000000000",
      "reserved": "",
      "salt": "0x6a1a266a060e9ab1c374c4878eba2994b36198a8f705d4d767ffbbd568704356",
      "assetIds": []
    },
    {
      "x": 210,
      "y": 53,
      "size": 1,
      "price": "1011000000000000000000",
      "reserved": "",
      "salt": "0x47601f3c674d3ba41d0bbe179048aa41a649699b296c54a5f3769865f30ba7b6",
      "assetIds": []
    },
    {
      "x": 210,
      "y": 57,
      "size": 1,
      "price": "4683000000000000000000",
      "reserved": "",
      "salt": "0xee343772bd266dbb6fcd0529eb68a036e35822e84cf3cd6e18dd737bb0dc3697",
      "assetIds": [
        "24853292031385244393966334094207009593054737572352507338",
        "24853666175804401105113394237524184961507769491083509194"
      ]
    },
    {
      "x": 210,
      "y": 58,
      "size": 1,
      "price": "1011000000000000000000",
      "reserved": "",
      "salt": "0x91c6d457744a00658ec07191f78a0425eace9e5425a8fe374c0a4951ff4e7c1b",
      "assetIds": []
    },
    {
      "x": 210,
      "y": 59,
      "size": 1,
      "price": "1011000000000000000000",
      "reserved": "",
      "salt": "0x4dfbacafd532ca87205dbf460f64dc8e588f1c8e290a595d8920974ed8304c87",
      "assetIds": []
    },
    {
      "x": 211,
      "y": 36,
      "size": 1,
      "price": "1011000000000000000000",
      "reserved": "",
      "salt": "0xc1addc24ff7afc42b9dc720955dc91e70ec618e5bf6e994c2c5136a1115aee51",
      "assetIds": []
    },
    {
      "x": 211,
      "y": 37,
      "size": 1,
      "price": "1011000000000000000000",
      "reserved": "0x7a9fe22691c811ea339d9b73150e6911a5343dca",
      "salt": "0x7a91ef189dcaeb0365bd6c003ce40fb86e764e427ac4a229c4691d167ea08464",
      "assetIds": []
    },
    {
      "x": 211,
      "y": 38,
      "size": 1,
      "price": "1011000000000000000000",
      "reserved": "",
      "salt": "0x5fc1ca0abd08e28043d2a6bfc178ceb54bb63f3541bcb8f5e66abde9a7af2f0e",
      "assetIds": []
    },
    {
      "x": 211,
      "y": 39,
      "size": 1,
      "price": "1011000000000000000000",
      "reserved": "",
      "salt": "0xc07a7b2e9fcfec51d4f312e094ccb8ae14e61c19a99f8b70090da4d48120aeb7",
      "assetIds": []
    },
    {
      "x": 211,
      "y": 40,
      "size": 1,
      "price": "1011000000000000000000",
      "reserved": "",
      "salt": "0x5cb8c27119391ba6c66fc9b6e1dfc690b9fdc9e057b52f7e7083d16a06820cfa",
      "assetIds": []
    },
    {
      "x": 211,
      "y": 41,
      "size": 1,
      "price": "1011000000000000000000",
      "reserved": "",
      "salt": "0x4436ee9b817947c1efd650e574b4aaa8dfa3149346b2e521144ca8a60cc24860",
      "assetIds": []
    },
    {
      "x": 211,
      "y": 48,
      "size": 1,
      "price": "1011000000000000000000",
      "reserved": "",
      "salt": "0x03d0c4be306967bfb64a6355086b67c46b78cc08bccdfeb2a8d3b8a1c0a5c54a",
      "assetIds": []
    },
    {
      "x": 211,
      "y": 49,
      "size": 1,
      "price": "1011000000000000000000",
      "reserved": "",
      "salt": "0xce75b285357b98864545ae1334f6ff0d34f5c065e28d816b95c676322d484829",
      "assetIds": []
    },
    {
      "x": 211,
      "y": 50,
      "size": 1,
      "price": "1011000000000000000000",
      "reserved": "",
      "salt": "0x77d9c4074334e8f61e34a05dee318b56f5703b228f408f2459082d01d1500aa6",
      "assetIds": []
    },
    {
      "x": 211,
      "y": 51,
      "size": 1,
      "price": "1011000000000000000000",
      "reserved": "",
      "salt": "0xd570efcaf8c63c51b15f9b4f0cc670a257f076a74136906d450a4d69141004a5",
      "assetIds": []
    },
    {
      "x": 211,
      "y": 52,
      "size": 1,
      "price": "1011000000000000000000",
      "reserved": "",
      "salt": "0x95f8d43155f19df052b8733219c42d2760b65f177718004a2f429b756a78cca5",
      "assetIds": []
    },
    {
      "x": 211,
      "y": 53,
      "size": 1,
      "price": "4683000000000000000000",
      "reserved": "",
      "salt": "0x080013127501c5c6788339603ccc36b1db30b31681f8b205f73b64d39c0db597",
      "assetIds": [
        "24853292031385244393966334094207009593054737572352507338",
        "24853666175804401105113394237524184961507769491083509194"
      ]
    },
    {
      "x": 211,
      "y": 57,
      "size": 1,
      "price": "4683000000000000000000",
      "reserved": "",
      "salt": "0x65936e4e152f09d0211e3a372a83d3411aa813f39fc690c2815d46696817fc73",
      "assetIds": [
        "24853292031385244393966334094207009593054737572352507338",
        "24853666175804401105113394237524184961507769491083509194"
      ]
    },
    {
      "x": 211,
      "y": 58,
      "size": 1,
      "price": "1011000000000000000000",
      "reserved": "",
      "salt": "0x5b4681268ecfa87ff30f68b101abe60a50fadd276912607214996845a1e3da93",
      "assetIds": []
    },
    {
      "x": 211,
      "y": 59,
      "size": 1,
      "price": "1011000000000000000000",
      "reserved": "",
      "salt": "0x03dfd1cb454ad461397cefbec586e4050c530d35988bcb37d98b2d7729a7b55a",
      "assetIds": []
    },
    {
      "x": 212,
      "y": 36,
      "size": 1,
      "price": "1011000000000000000000",
      "reserved": "",
      "salt": "0xd6df23d53081242839781dfffcb1af0a324abc9e1fca69daadb19d554ba54149",
      "assetIds": []
    },
    {
      "x": 212,
      "y": 37,
      "size": 1,
      "price": "1011000000000000000000",
      "reserved": "",
      "salt": "0xa85470f5bea68fb7f272bb87864eba45fd7c2a194aaa11bf6bfe342fe0f431f4",
      "assetIds": []
    },
    {
      "x": 212,
      "y": 38,
      "size": 1,
      "price": "1011000000000000000000",
      "reserved": "",
      "salt": "0xad4ba39e28f00078d59ab83cb04c74aba4464ae8fe06aa004b91f38804c00da5",
      "assetIds": []
    },
    {
      "x": 212,
      "y": 39,
      "size": 1,
      "price": "1011000000000000000000",
      "reserved": "",
      "salt": "0x825658a01309b0fd26c25dd2cff45c753fbafb12096383add47c2c98c782b77f",
      "assetIds": []
    },
    {
      "x": 212,
      "y": 40,
      "size": 1,
      "price": "1011000000000000000000",
      "reserved": "",
      "salt": "0x2fd3ef76da27202c1c41f9c4dc9fd8ce11c98a5b3e44d19e15ccf275598a55b2",
      "assetIds": []
    },
    {
      "x": 212,
      "y": 41,
      "size": 1,
      "price": "1011000000000000000000",
      "reserved": "",
      "salt": "0x34fb2aca585dbd4b15a66e89f7df05fe2847561efb6920806ee94f3fd9005ff1",
      "assetIds": []
    },
    {
      "x": 212,
      "y": 48,
      "size": 1,
      "price": "1011000000000000000000",
      "reserved": "0x7a9fe22691c811ea339d9b73150e6911a5343dca",
      "salt": "0x12ff9d737ac715de280a6edfdcf24691d9a16565df43f640eef508c454cc99b6",
      "assetIds": []
    },
    {
      "x": 212,
      "y": 49,
      "size": 1,
      "price": "1011000000000000000000",
      "reserved": "",
      "salt": "0xd4501556b2de1936a489c42f77cc4d56fdb3e57af042e8c7953c773f179f5d26",
      "assetIds": []
    },
    {
      "x": 212,
      "y": 50,
      "size": 1,
      "price": "1011000000000000000000",
      "reserved": "",
      "salt": "0xe095286278614af300d3caef7cf551c855d8b7fc0c9a27e9caf972f6e2912431",
      "assetIds": []
    },
    {
      "x": 212,
      "y": 51,
      "size": 1,
      "price": "1011000000000000000000",
      "reserved": "0x7a9fe22691c811ea339d9b73150e6911a5343dca",
      "salt": "0xca41fc077d4f0be734a9adf2c52cb35317d39d194e6f081cc01cbe6af63579c3",
      "assetIds": []
    },
    {
      "x": 212,
      "y": 52,
      "size": 1,
      "price": "1011000000000000000000",
      "reserved": "",
      "salt": "0x61d7634f6d74c7b934effadd1792b0c478803cd2a92071e80cb93e64e3a84869",
      "assetIds": []
    },
    {
      "x": 212,
      "y": 53,
      "size": 1,
      "price": "4683000000000000000000",
      "reserved": "",
      "salt": "0x4c81ba47a4d56ae9af1d431d1e60aca4603b1488127645a609a30410007416fa",
      "assetIds": [
        "24853292031385244393966334094207009593054737572352507338",
        "24853666175804401105113394237524184961507769491083509194"
      ]
    },
    {
      "x": 212,
      "y": 57,
      "size": 1,
      "price": "1011000000000000000000",
      "reserved": "0x7a9fe22691c811ea339d9b73150e6911a5343dca",
      "salt": "0x440b0808a8b9b8f292564bc81667fc4606aaf4c30ba1f6568d1ecc17b61f5c2b",
      "assetIds": []
    },
    {
      "x": 212,
      "y": 58,
      "size": 1,
      "price": "1011000000000000000000",
      "reserved": "",
      "salt": "0x51fdee9d4d52a4d776ff38a5a58d8c4c665a309baaf72bd4d01452c44572a27f",
      "assetIds": []
    },
    {
      "x": 212,
      "y": 59,
      "size": 1,
      "price": "1011000000000000000000",
      "reserved": "",
      "salt": "0xa174685e549977f3d1946a42049dacdd623316ae0895064379b8cc8daf51b569",
      "assetIds": []
    },
    {
      "x": 213,
      "y": 36,
      "size": 1,
      "price": "1011000000000000000000",
      "reserved": "",
      "salt": "0x25576c43860c54a173a99243fa8b4c120168ec193cfccca6ad70abc51bdfcfe6",
      "assetIds": []
    },
    {
      "x": 213,
      "y": 37,
      "size": 1,
      "price": "1011000000000000000000",
      "reserved": "",
      "salt": "0x8eb78c23e68a4ddea00743ddac807e366018fc216d4fb8e1bfe0f7075de0478a",
      "assetIds": []
    },
    {
      "x": 213,
      "y": 38,
      "size": 1,
      "price": "1011000000000000000000",
      "reserved": "",
      "salt": "0xd62e293e0d540c2e90f6731d35d20f31533274c2162a7b2991e0c965e3b4fc56",
      "assetIds": []
    },
    {
      "x": 213,
      "y": 39,
      "size": 1,
      "price": "1011000000000000000000",
      "reserved": "",
      "salt": "0x1a7f01ac588fc99c8963952ab747df7e796f759c33c4851ef4d1412d52e41488",
      "assetIds": []
    },
    {
      "x": 213,
      "y": 40,
      "size": 1,
      "price": "1011000000000000000000",
      "reserved": "",
      "salt": "0x541a0df584651aba96f6eac51d30519a8d8a8e20670d7637f042ca25d68e6cd5",
      "assetIds": []
    },
    {
      "x": 213,
      "y": 41,
      "size": 1,
      "price": "1011000000000000000000",
      "reserved": "0x7a9fe22691c811ea339d9b73150e6911a5343dca",
      "salt": "0xed994322c6751b056810bbc9d471dec0a5b7454d434ac944552ed89918cba187",
      "assetIds": []
    },
    {
      "x": 213,
      "y": 51,
      "size": 1,
      "price": "1011000000000000000000",
      "reserved": "",
      "salt": "0xf26a3e71245bf9c90141f3218991f62495b93a0f46b346c2ea4d623416408fd9",
      "assetIds": []
    },
    {
      "x": 213,
      "y": 52,
      "size": 1,
      "price": "1011000000000000000000",
      "reserved": "",
      "salt": "0x016657699b88dcde8a0cc9f7e98cc6512dd5067d7143d8224b006eebca51fa82",
      "assetIds": []
    },
    {
      "x": 213,
      "y": 53,
      "size": 1,
      "price": "1011000000000000000000",
      "reserved": "",
      "salt": "0x71763a2abade740201222d7fcb726befe98628c6b639efe8806772da4d9f964f",
      "assetIds": []
    },
    {
      "x": 213,
      "y": 54,
      "size": 1,
      "price": "1011000000000000000000",
      "reserved": "0x7a9fe22691c811ea339d9b73150e6911a5343dca",
      "salt": "0x887342042ff6c923446adf9b6325304de7771a46f748c2db2ceb8855e68a0b38",
      "assetIds": []
    },
    {
      "x": 213,
      "y": 55,
      "size": 1,
      "price": "4683000000000000000000",
      "reserved": "",
      "salt": "0x5e84b69c44789313dc0b826b57c8a99a760cb1a3e67af4f397d36ddb830ded0f",
      "assetIds": [
        "24853292031385244393966334094207009593054737572352507338",
        "24853666175804401105113394237524184961507769491083509194"
      ]
    },
    {
      "x": 213,
      "y": 56,
      "size": 1,
      "price": "4683000000000000000000",
      "reserved": "",
      "salt": "0xe95017e9363259aea0db313bd936e9693a9ef6dc8d46914ebbe8e0d5985adb0c",
      "assetIds": [
        "24853292031385244393966334094207009593054737572352507338",
        "24853666175804401105113394237524184961507769491083509194"
      ]
    },
    {
      "x": 213,
      "y": 57,
      "size": 1,
      "price": "1011000000000000000000",
      "reserved": "",
      "salt": "0x5a7f35b6a27cea3b55d296b0e034a335c4189b7e97984db020fa1816cbaff78c",
      "assetIds": []
    },
    {
      "x": 213,
      "y": 58,
      "size": 1,
      "price": "1011000000000000000000",
      "reserved": "",
      "salt": "0x86eda9484c88fd6a256698bd1d7d2da414f05b356bad3c2de36577e626fbaed3",
      "assetIds": []
    },
    {
      "x": 213,
      "y": 59,
      "size": 1,
      "price": "1011000000000000000000",
      "reserved": "",
      "salt": "0x988373bce0e87cc818cd592a89023fba1f370ea21ee929b14bb7b2b110308fd5",
      "assetIds": []
    },
    {
      "x": 214,
      "y": 36,
      "size": 1,
      "price": "1011000000000000000000",
      "reserved": "",
      "salt": "0x2e616e706b3af173d8962525531b8e3601b8a8c967cb7fbe9b0c7d8ce1f2272e",
      "assetIds": []
    },
    {
      "x": 214,
      "y": 37,
      "size": 1,
      "price": "1011000000000000000000",
      "reserved": "0x7a9fe22691c811ea339d9b73150e6911a5343dca",
      "salt": "0xcc862db7c2d79e1565d8f134da58b328ad1beb725e049f17aefe64b0c3fd67d1",
      "assetIds": []
    },
    {
      "x": 214,
      "y": 38,
      "size": 1,
      "price": "1011000000000000000000",
      "reserved": "",
      "salt": "0x44df785e5586327a9481920cee30ab0fe5095a7aca87d923d4781ed9594c607b",
      "assetIds": []
    },
    {
      "x": 214,
      "y": 39,
      "size": 1,
      "price": "1011000000000000000000",
      "reserved": "",
      "salt": "0x25e858f2bfaf079f864caf826827986f6ef6d3a8b89925a7c51681a887452d25",
      "assetIds": []
    },
    {
      "x": 214,
      "y": 40,
      "size": 1,
      "price": "1011000000000000000000",
      "reserved": "",
      "salt": "0x4b74a48559a17bbaf6df7fb716a97069b5cb34b20a27990c23aa50879270fc89",
      "assetIds": []
    },
    {
      "x": 214,
      "y": 41,
      "size": 1,
      "price": "1011000000000000000000",
      "reserved": "",
      "salt": "0xc999ede7fee20e844fd0de0a8fd395560de040e0a7020cf5ed68e1ae6e2da2b9",
      "assetIds": []
    },
    {
      "x": 214,
      "y": 51,
      "size": 1,
      "price": "1011000000000000000000",
      "reserved": "",
      "salt": "0x25adfe93f822878388efda6d000a7065a1b194f2f2e1c27a5b2ae1714cffcacf",
      "assetIds": []
    },
    {
      "x": 214,
      "y": 52,
      "size": 1,
      "price": "1011000000000000000000",
      "reserved": "",
      "salt": "0xa844c78f6a44d716a9a0015759ad323fab17f7fee6bb7746b10d26c8cb4009e7",
      "assetIds": []
    },
    {
      "x": 214,
      "y": 53,
      "size": 1,
      "price": "1011000000000000000000",
      "reserved": "",
      "salt": "0xdd0ca6066530788d1699a5cca7dc4298d2706b5a6b7e134adbd16e4c1adf4ec4",
      "assetIds": []
    },
    {
      "x": 214,
      "y": 54,
      "size": 1,
      "price": "1011000000000000000000",
      "reserved": "",
      "salt": "0x6385a7a9bb44923118e9c811fab02d9c490db92435624e5fccec2ec487f0b096",
      "assetIds": []
    },
    {
      "x": 214,
      "y": 55,
      "size": 1,
      "price": "1011000000000000000000",
      "reserved": "",
      "salt": "0x0ca48b1a8ce7a0db296a5ad2031a2405d9ee5dd55d9d578a37a9eca3a5f3500a",
      "assetIds": []
    },
    {
      "x": 214,
      "y": 56,
      "size": 1,
      "price": "1011000000000000000000",
      "reserved": "",
      "salt": "0x14b27d029f8a546b30b30382cf7ca2c1837e1fde4a6b21e7d2b67c06c4ef6b85",
      "assetIds": []
    },
    {
      "x": 214,
      "y": 57,
      "size": 1,
      "price": "1011000000000000000000",
      "reserved": "",
      "salt": "0xee0a07410266fba7991f92870fb9fd3832c73fca9fc238ac5c3267514e643611",
      "assetIds": []
    },
    {
      "x": 214,
      "y": 59,
      "size": 1,
      "price": "1011000000000000000000",
      "reserved": "",
      "salt": "0xa46a1c4f20200419be11fa35e601978c6e98c8cb057fec9c5ae0a52c22a4eab6",
      "assetIds": []
    },
    {
      "x": 215,
      "y": 36,
      "size": 1,
      "price": "1011000000000000000000",
      "reserved": "0x7a9fe22691c811ea339d9b73150e6911a5343dca",
      "salt": "0xf83615ed91243c89f9a1b161b5e193ca1aabd8cda055a475a6e5fa7fb0b09726",
      "assetIds": []
    },
    {
      "x": 215,
      "y": 37,
      "size": 1,
      "price": "1011000000000000000000",
      "reserved": "",
      "salt": "0x4db4ad27d64c8c7349161a339decc5d0de5f7733f9758207e8691aecd8c35c61",
      "assetIds": []
    },
    {
      "x": 215,
      "y": 38,
      "size": 1,
      "price": "1011000000000000000000",
      "reserved": "",
      "salt": "0xc38dd8b3493ba56ee56ea245aaa5098c6e7a3094b6f64f68f41ed5528eea2249",
      "assetIds": []
    },
    {
      "x": 215,
      "y": 39,
      "size": 1,
      "price": "1011000000000000000000",
      "reserved": "0x7a9fe22691c811ea339d9b73150e6911a5343dca",
      "salt": "0x895766a63a350c4ae4c283f83134c596d1baf0db7585876cc4b88703e50ee615",
      "assetIds": []
    },
    {
      "x": 215,
      "y": 40,
      "size": 1,
      "price": "1011000000000000000000",
      "reserved": "",
      "salt": "0xc897714f49bc3346734be91119afd8f4bcf135d02d1a374fb4148cd93ac99f81",
      "assetIds": []
    },
    {
      "x": 215,
      "y": 41,
      "size": 1,
      "price": "1011000000000000000000",
      "reserved": "",
      "salt": "0xeaae29367cddd04cf4a178ad97842d963ec468dbaa7e69f63bfe1c69e86eebff",
      "assetIds": []
    },
    {
      "x": 215,
      "y": 51,
      "size": 1,
      "price": "1011000000000000000000",
      "reserved": "",
      "salt": "0x62bc05497bfc60355c96ad7c068ecabac830737621d523c276b2c5600fb17b7d",
      "assetIds": []
    },
    {
      "x": 215,
      "y": 52,
      "size": 1,
      "price": "1011000000000000000000",
      "reserved": "0x7a9fe22691c811ea339d9b73150e6911a5343dca",
      "salt": "0x8b618538da042ce0c049bf9f40b29730f87b8a7bb18202918428413c2edd125a",
      "assetIds": []
    },
    {
      "x": 215,
      "y": 53,
      "size": 1,
      "price": "1011000000000000000000",
      "reserved": "",
      "salt": "0xfc63f73e4d9df6c9de564256eb1e4651a644f39506dd317f9be8806b0d033b05",
      "assetIds": []
    },
    {
      "x": 215,
      "y": 54,
      "size": 1,
      "price": "1011000000000000000000",
      "reserved": "",
      "salt": "0x35fdd3f7cb710972e954a017b716e19fb896a534d718110950369db951624973",
      "assetIds": []
    },
    {
      "x": 215,
      "y": 55,
      "size": 1,
      "price": "1011000000000000000000",
      "reserved": "",
      "salt": "0xcbbcb5c86a6619f4ae5cec0ff1cffa13ec34128563f5fc831b2cfef174597860",
      "assetIds": []
    },
    {
      "x": 215,
      "y": 56,
      "size": 1,
      "price": "1011000000000000000000",
      "reserved": "",
      "salt": "0x6e80eeb9399455c18b7f5db4e9381444443e3be0a2a1ba71afe7875d1deb8caf",
      "assetIds": []
    },
    {
      "x": 215,
      "y": 57,
      "size": 1,
      "price": "1011000000000000000000",
      "reserved": "",
      "salt": "0xc15e17842cfab839d947657ee5e68d7332a84e489f3b6e43776675af5a09128b",
      "assetIds": []
    },
    {
      "x": 215,
      "y": 58,
      "size": 1,
      "price": "1011000000000000000000",
      "reserved": "",
      "salt": "0xd5e2033b22a678e83fb6013766f5df1e47ea8b3e651c8ab4d9e4779e0b53854a",
      "assetIds": []
    },
    {
      "x": 215,
      "y": 59,
      "size": 1,
      "price": "1011000000000000000000",
      "reserved": "",
      "salt": "0x6bfadacd1099c96b2d31684bfa56b4fff2f8d90b9174444115c8c867e739ae0d",
      "assetIds": []
    },
    {
      "x": 216,
      "y": 42,
      "size": 1,
      "price": "1011000000000000000000",
      "reserved": "0x7a9fe22691c811ea339d9b73150e6911a5343dca",
      "salt": "0xbce1861ab829b3f26fd3fc7f511353a33356e8fdc8eeb82e05638a3837dc7789",
      "assetIds": []
    },
    {
      "x": 216,
      "y": 43,
      "size": 1,
      "price": "1011000000000000000000",
      "reserved": "",
      "salt": "0xc918a4a0c057b867be92ff5f036b149d9443a8b7c0b5bd6f8a8c68c215a18b26",
      "assetIds": []
    },
    {
      "x": 216,
      "y": 44,
      "size": 1,
      "price": "1011000000000000000000",
      "reserved": "",
      "salt": "0xe38da5c94e13506ab1bb3291580a838ad0f8422730ef8ef2a00c526dd4f4b126",
      "assetIds": []
    },
    {
      "x": 216,
      "y": 45,
      "size": 1,
      "price": "1011000000000000000000",
      "reserved": "",
      "salt": "0x8206e52363645b1cc7bb5d58acf8b21846b73966b6276d9db360887014de3145",
      "assetIds": []
    },
    {
      "x": 216,
      "y": 46,
      "size": 1,
      "price": "1011000000000000000000",
      "reserved": "",
      "salt": "0x320d718337df04dc7d2986b5c83ecd4846c1de34e952850cc54bad7f50e2645d",
      "assetIds": []
    },
    {
      "x": 216,
      "y": 47,
      "size": 1,
      "price": "1011000000000000000000",
      "reserved": "",
      "salt": "0xcd89e157d8b09f19a506bca681111566d540a6d17de903b3ec73d4ef66c5229c",
      "assetIds": []
    },
    {
      "x": 216,
      "y": 54,
      "size": 1,
      "price": "1011000000000000000000",
      "reserved": "0x7a9fe22691c811ea339d9b73150e6911a5343dca",
      "salt": "0x40ea265cacc1258a1c213cc7c0ca5758f561fe40f6d055ca630e0f11c574ba11",
      "assetIds": []
    },
    {
      "x": 216,
      "y": 55,
      "size": 1,
      "price": "1011000000000000000000",
      "reserved": "",
      "salt": "0xd3bc66a107490e6d5d2a18f2db5e6ae5c096569062af1ab84db95af2bcbb5591",
      "assetIds": []
    },
    {
      "x": 216,
      "y": 56,
      "size": 1,
      "price": "1011000000000000000000",
      "reserved": "",
      "salt": "0xc50d68ebfd2496cbf052fe38302949de54af71851e909af9063b48d10648fc08",
      "assetIds": []
    },
    {
      "x": 216,
      "y": 57,
      "size": 1,
      "price": "1011000000000000000000",
      "reserved": "",
      "salt": "0x079a14901c4b2986921e8b5e2f52a18398a8b63689caebdaafe96b67c1306f6e",
      "assetIds": []
    },
    {
      "x": 216,
      "y": 58,
      "size": 1,
      "price": "1011000000000000000000",
      "reserved": "",
      "salt": "0xf4a248812de7bc9b4b27ed3ac54b99dbf58307299c464b0ee1840d4c7971aed8",
      "assetIds": []
    },
    {
      "x": 216,
      "y": 59,
      "size": 1,
      "price": "1011000000000000000000",
      "reserved": "",
      "salt": "0x95b5abf2e1752dd993307765a8a331dc0fecaa85140f415b8170b91320441b30",
      "assetIds": []
    },
    {
      "x": 217,
      "y": 42,
      "size": 1,
      "price": "1011000000000000000000",
      "reserved": "",
      "salt": "0x76a72c80a5ae66106500d8b1d0b04b8ad0f583f406ca52d40a1650003dce0d2d",
      "assetIds": []
    },
    {
      "x": 217,
      "y": 43,
      "size": 1,
      "price": "1011000000000000000000",
      "reserved": "0x7a9fe22691c811ea339d9b73150e6911a5343dca",
      "salt": "0x2f2d624109c55f91b118c489ffe8bba03aa9d93e54ee3d1d2d39f3c188c99886",
      "assetIds": []
    },
    {
      "x": 217,
      "y": 44,
      "size": 1,
      "price": "1011000000000000000000",
      "reserved": "",
      "salt": "0x3811dc8626f68a31a5ef69da9ff6ad4afc20aa857cd8bf50ef5453a901242768",
      "assetIds": []
    },
    {
      "x": 217,
      "y": 45,
      "size": 1,
      "price": "1011000000000000000000",
      "reserved": "",
      "salt": "0x74511b2cf2c9f5587d29bd901a6e68ba0de821b292ddd2edbb79384575bc89f6",
      "assetIds": []
    },
    {
      "x": 217,
      "y": 46,
      "size": 1,
      "price": "1011000000000000000000",
      "reserved": "0x7a9fe22691c811ea339d9b73150e6911a5343dca",
      "salt": "0x9852bff1a632f8b3388784b1ce43a262d2a274bd2c4f4fc3aed1f7e8afcbbb40",
      "assetIds": []
    },
    {
      "x": 217,
      "y": 47,
      "size": 1,
      "price": "1011000000000000000000",
      "reserved": "",
      "salt": "0xf99d867ad7c021dab28ff6766444bfe0f38c5e87e568d4a5dd5bc764996f5dc9",
      "assetIds": []
    },
    {
      "x": 217,
      "y": 54,
      "size": 1,
      "price": "1011000000000000000000",
      "reserved": "",
      "salt": "0x0c06f501a45ba939d3b8dea1ea81532f688d430e9f5c054ffdb2bf4b6d84af99",
      "assetIds": []
    },
    {
      "x": 217,
      "y": 55,
      "size": 1,
      "price": "1011000000000000000000",
      "reserved": "0x7a9fe22691c811ea339d9b73150e6911a5343dca",
      "salt": "0xf61b5b8a332dc75245ed7dd8acd5fc27eb1eb856eb416099272eaa236b8c1d42",
      "assetIds": []
    },
    {
      "x": 217,
      "y": 56,
      "size": 1,
      "price": "1011000000000000000000",
      "reserved": "",
      "salt": "0xec7275094a2e256cf35124c212314ce2deb9462b896e2089bcb3eca0ac42054e",
      "assetIds": []
    },
    {
      "x": 217,
      "y": 57,
      "size": 1,
      "price": "1011000000000000000000",
      "reserved": "",
      "salt": "0x9cc1cd76a8b77416f234b359259de528fac089919a8fda400f9a5f57d33d5520",
      "assetIds": []
    },
    {
      "x": 217,
      "y": 58,
      "size": 1,
      "price": "1011000000000000000000",
      "reserved": "0x7a9fe22691c811ea339d9b73150e6911a5343dca",
      "salt": "0x20e6592d719d51a67a66e5f6ae5df372b97f105903afc3b2b3184e0aa7dc661d",
      "assetIds": []
    },
    {
      "x": 217,
      "y": 59,
      "size": 1,
      "price": "1011000000000000000000",
      "reserved": "",
      "salt": "0x1f2bbf2da991d5af4aea99a1ec7c405c54e122ecf80bc366720e134a5b531736",
      "assetIds": []
    },
    {
      "x": 218,
      "y": 42,
      "size": 1,
      "price": "1011000000000000000000",
      "reserved": "",
      "salt": "0x93b270ff7bceb513f37d8697f197df11197d93fc3655b60d286781f299952538",
      "assetIds": []
    },
    {
      "x": 218,
      "y": 43,
      "size": 1,
      "price": "1011000000000000000000",
      "reserved": "",
      "salt": "0x3018011cffa0bf07c11e6faefba91c2af6cc69f40038a45aeb04765f4814adb5",
      "assetIds": []
    },
    {
      "x": 218,
      "y": 44,
      "size": 1,
      "price": "1011000000000000000000",
      "reserved": "",
      "salt": "0xa7d64a572263d26105f97cdc1d5686f0aa95860f3f42f25220bb286d7ae94d28",
      "assetIds": []
    },
    {
      "x": 218,
      "y": 45,
      "size": 1,
      "price": "1011000000000000000000",
      "reserved": "",
      "salt": "0x5a42a98b2812600f6eb4c0bdb18cfcf68140de263877cecf48cb032855af9cef",
      "assetIds": []
    },
    {
      "x": 218,
      "y": 46,
      "size": 1,
      "price": "1011000000000000000000",
      "reserved": "",
      "salt": "0x19bde2dd6334e96bef00449d600fa2ef9f26a726be2397fcc5d113f6a7405df5",
      "assetIds": []
    },
    {
      "x": 218,
      "y": 47,
      "size": 1,
      "price": "1011000000000000000000",
      "reserved": "0x7a9fe22691c811ea339d9b73150e6911a5343dca",
      "salt": "0xa2e2dda75bf86b064647d3465f19fe28604287a63715ab088c4692013552a2e8",
      "assetIds": []
    },
    {
      "x": 218,
      "y": 54,
      "size": 1,
      "price": "1011000000000000000000",
      "reserved": "",
      "salt": "0x2de86b93ec68e038ce8e3c77d07622e98f1b7bc723e8a8ef73b24be8ad91cbed",
      "assetIds": []
    },
    {
      "x": 218,
      "y": 55,
      "size": 1,
      "price": "1011000000000000000000",
      "reserved": "",
      "salt": "0x1dc031566f9f83057b7f0ddcf43cf80f9a53bca61917cfd08231ab8c8e812107",
      "assetIds": []
    },
    {
      "x": 218,
      "y": 56,
      "size": 1,
      "price": "1011000000000000000000",
      "reserved": "",
      "salt": "0xb75dfb40040e52bfc6a476f6228828ef2d76ca1bf433af28357a405524511568",
      "assetIds": []
    },
    {
      "x": 218,
      "y": 57,
      "size": 1,
      "price": "1011000000000000000000",
      "reserved": "",
      "salt": "0x03f2db7dd50100c8280b9e30ca0aed643643137ea0c33eea9f9ebc5f614bd045",
      "assetIds": []
    },
    {
      "x": 218,
      "y": 58,
      "size": 1,
      "price": "1011000000000000000000",
      "reserved": "",
      "salt": "0xdd0ebd23f17bfd2a9bb006954af61b64d26a9dcbaea608e178ac87cdd256818a",
      "assetIds": []
    },
    {
      "x": 218,
      "y": 59,
      "size": 1,
      "price": "1011000000000000000000",
      "reserved": "",
      "salt": "0xe6acddc29f4e483f30d533afadf0f8ae467b4c2b1dce46b61cab4fbc56fbcd24",
      "assetIds": []
    },
    {
      "x": 219,
      "y": 42,
      "size": 1,
      "price": "1011000000000000000000",
      "reserved": "0x7a9fe22691c811ea339d9b73150e6911a5343dca",
      "salt": "0x98049fbc8c8c87cca59cda59b933370271f06087f5770753a27b589608d57d8b",
      "assetIds": []
    },
    {
      "x": 219,
      "y": 43,
      "size": 1,
      "price": "1011000000000000000000",
      "reserved": "",
      "salt": "0x7553994f80cb995d10ae389f72c5da7260359551d1a9fbfe30a16c1bf6031472",
      "assetIds": []
    },
    {
      "x": 219,
      "y": 44,
      "size": 1,
      "price": "1011000000000000000000",
      "reserved": "",
      "salt": "0x076563e72182eb35ac46336d5fd51c295fc392c32ce5d209dd8b1ab476410a18",
      "assetIds": []
    },
    {
      "x": 219,
      "y": 45,
      "size": 1,
      "price": "1011000000000000000000",
      "reserved": "",
      "salt": "0x8a36860045287f1df385a1b1fda945e49877e951f7d4adbf5a5c10322d2572c1",
      "assetIds": []
    },
    {
      "x": 219,
      "y": 46,
      "size": 1,
      "price": "1011000000000000000000",
      "reserved": "",
      "salt": "0x6e0da3549e46b1ccb4de2ad1a6bafc6e304be6f095a357e960e679aaed22fca9",
      "assetIds": []
    },
    {
      "x": 219,
      "y": 47,
      "size": 1,
      "price": "1011000000000000000000",
      "reserved": "",
      "salt": "0x9b6db091322bfb6e40a1dc70a2e0178a517af37b2446c248e4d6f853054e0359",
      "assetIds": []
    },
    {
      "x": 219,
      "y": 54,
      "size": 1,
      "price": "1011000000000000000000",
      "reserved": "0x7a9fe22691c811ea339d9b73150e6911a5343dca",
      "salt": "0x2cea2f34f7cc091cbfb29bacd568310fce08d3257da0a50efe4aa6dbb71b077b",
      "assetIds": []
    },
    {
      "x": 219,
      "y": 55,
      "size": 1,
      "price": "1011000000000000000000",
      "reserved": "",
      "salt": "0x112f05b61d08543d2a56239874a8921b5195ff12a446d4a83c726fd5a618ecf8",
      "assetIds": []
    },
    {
      "x": 219,
      "y": 56,
      "size": 1,
      "price": "1011000000000000000000",
      "reserved": "",
      "salt": "0x69ae221e3c5554a22f5ae87b9918608f32e19415ea440c8dcb11e4d122163cbd",
      "assetIds": []
    },
    {
      "x": 219,
      "y": 57,
      "size": 1,
      "price": "1011000000000000000000",
      "reserved": "",
      "salt": "0xaa21de2cc0d8c13a8ec080e337f1884827eeb6503cc00bbe5872dd004bab6a26",
      "assetIds": []
    },
    {
      "x": 219,
      "y": 58,
      "size": 1,
      "price": "1011000000000000000000",
      "reserved": "",
      "salt": "0x1195c14ebc76c81d57253d68ce29362d5f6665962029799656358a45d1bbd754",
      "assetIds": []
    },
    {
      "x": 219,
      "y": 59,
      "size": 1,
      "price": "1011000000000000000000",
      "reserved": "",
      "salt": "0xec72e06e49f382546e31a76528e7f78e751dc73ae130ae92ffa63a1bae813a82",
      "assetIds": []
    },
    {
      "x": 220,
      "y": 42,
      "size": 1,
      "price": "1011000000000000000000",
      "reserved": "",
      "salt": "0x4f5a7a83fb13be632b3d8566f18a27c8edb7c2dc91ec076d5b6f0cdaeab9f3ef",
      "assetIds": []
    },
    {
      "x": 220,
      "y": 43,
      "size": 1,
      "price": "1011000000000000000000",
      "reserved": "0x7a9fe22691c811ea339d9b73150e6911a5343dca",
      "salt": "0x8706c26726c306cf308e9819d3aa1c609eb8e37a5dc72c0e195f5234d05af7eb",
      "assetIds": []
    },
    {
      "x": 220,
      "y": 44,
      "size": 1,
      "price": "1011000000000000000000",
      "reserved": "",
      "salt": "0x4bad68e74041ec03a2a62d83d2c37d023ccc61a153500a1a593d3cb4c7ddc446",
      "assetIds": []
    },
    {
      "x": 220,
      "y": 45,
      "size": 1,
      "price": "1011000000000000000000",
      "reserved": "",
      "salt": "0xc049e5afba3aab6518898a90ff02af57635c49823875fe8978cc3257be9ff468",
      "assetIds": []
    },
    {
      "x": 220,
      "y": 46,
      "size": 1,
      "price": "1011000000000000000000",
      "reserved": "0x7a9fe22691c811ea339d9b73150e6911a5343dca",
      "salt": "0x2e612c71f1611f16aa22a09cf3ffeae6b79e290c0456c4df769ddd2451a22d89",
      "assetIds": []
    },
    {
      "x": 220,
      "y": 47,
      "size": 1,
      "price": "1011000000000000000000",
      "reserved": "",
      "salt": "0xc8d0aed6925deaa48144e687df4225379169a363d3d413089834707efe4dff66",
      "assetIds": []
    },
    {
      "x": 220,
      "y": 54,
      "size": 1,
      "price": "1011000000000000000000",
      "reserved": "",
      "salt": "0x1d67e058d7c5a2577d191d2ef5bedd1c1f921dd36a539692c8c6e62cb5e303b0",
      "assetIds": []
    },
    {
      "x": 220,
      "y": 55,
      "size": 1,
      "price": "1011000000000000000000",
      "reserved": "0x7a9fe22691c811ea339d9b73150e6911a5343dca",
      "salt": "0x07a442cbba0e0a11464b96df04bd211d72043bee83db0911f02dee1ea06471c6",
      "assetIds": []
    },
    {
      "x": 220,
      "y": 56,
      "size": 1,
      "price": "1011000000000000000000",
      "reserved": "",
      "salt": "0xbd891f1067a7983bcab7ed968ea2f67581d003473551d388c7c551c428f597ad",
      "assetIds": []
    },
    {
      "x": 220,
      "y": 57,
      "size": 1,
      "price": "1011000000000000000000",
      "reserved": "",
      "salt": "0x82e27f6bb8f8d84ec66df9086364af2f88702d1ad2ff298345b21dd74959e22c",
      "assetIds": []
    },
    {
      "x": 220,
      "y": 58,
      "size": 1,
      "price": "1011000000000000000000",
      "reserved": "0x7a9fe22691c811ea339d9b73150e6911a5343dca",
      "salt": "0x64c9e038f775750d402ba85baeb978e1f78c7b36d2e45a77bddbd3f25f0b2de0",
      "assetIds": []
    },
    {
      "x": 220,
      "y": 59,
      "size": 1,
      "price": "1011000000000000000000",
      "reserved": "",
      "salt": "0xa0996dd6d132de4594eccf1e5d421933423797e516e80cae3d9ecbe3ec2d587d",
      "assetIds": []
    },
    {
      "x": 221,
      "y": 42,
      "size": 1,
      "price": "1011000000000000000000",
      "reserved": "",
      "salt": "0xf3efe54985dfefada7fd4d8b31bf5474f49eaf8394a98a4bf67f03501a32295c",
      "assetIds": []
    },
    {
      "x": 221,
      "y": 43,
      "size": 1,
      "price": "1011000000000000000000",
      "reserved": "",
      "salt": "0x999cc1203b4d92e8f3828fd5203b23d41fce0d2f1c3e6a0ded1471d9ead389ad",
      "assetIds": []
    },
    {
      "x": 221,
      "y": 44,
      "size": 1,
      "price": "1011000000000000000000",
      "reserved": "",
      "salt": "0xfa007845312fe676113a60a80e8f5966e9b349ad5493197f9f10373c265764ea",
      "assetIds": []
    },
    {
      "x": 221,
      "y": 45,
      "size": 1,
      "price": "1011000000000000000000",
      "reserved": "",
      "salt": "0x2c228299114bb52245009d59bab0552983ab0952336a566f33baadcbe1e882f3",
      "assetIds": []
    },
    {
      "x": 221,
      "y": 46,
      "size": 1,
      "price": "1011000000000000000000",
      "reserved": "",
      "salt": "0xa4991733ac1c35e0a6ac358fabd16ce14c25c2fb663ebb156b9b181a48e90f8f",
      "assetIds": []
    },
    {
      "x": 221,
      "y": 47,
      "size": 1,
      "price": "1011000000000000000000",
      "reserved": "0x7a9fe22691c811ea339d9b73150e6911a5343dca",
      "salt": "0x98708d66722844bc13ddf28b1e05d41bc4882a18e39d958854d924f2db59785f",
      "assetIds": []
    },
    {
      "x": 221,
      "y": 54,
      "size": 1,
      "price": "1011000000000000000000",
      "reserved": "",
      "salt": "0x9a563914cd3f20ef3d63b68d854e547733f88aa27a3a723b7765f689f85941e6",
      "assetIds": []
    },
    {
      "x": 221,
      "y": 55,
      "size": 1,
      "price": "1011000000000000000000",
      "reserved": "",
      "salt": "0x56a14fec7c3c23bd038f58215fb3d7e370e6fd8918ce6371e9d35dcd1ce69064",
      "assetIds": []
    },
    {
      "x": 221,
      "y": 56,
      "size": 1,
      "price": "1011000000000000000000",
      "reserved": "",
      "salt": "0xb0c1099ae091ab67989ac1799cddc665dd59438b607599a82ae9b7b1a4e956e0",
      "assetIds": []
    },
    {
      "x": 221,
      "y": 57,
      "size": 1,
      "price": "1011000000000000000000",
      "reserved": "",
      "salt": "0xe33f6b7522a06f2a10e73f4c4a88768ccfe43ffb070942003ddb51fd40bb88fa",
      "assetIds": []
    },
    {
      "x": 221,
      "y": 58,
      "size": 1,
      "price": "1011000000000000000000",
      "reserved": "",
      "salt": "0x241c756cf679152d42a7f5b5eff1e9400cbc347e6deaf52e5e07c450a0dc6357",
      "assetIds": []
    },
    {
      "x": 221,
      "y": 59,
      "size": 1,
      "price": "1011000000000000000000",
      "reserved": "",
      "salt": "0xb5820d2875c23f6102634ba97c21dd63d48f13b8b58958a10e799ca205cb763d",
      "assetIds": []
    },
    {
      "x": 222,
      "y": 42,
      "size": 1,
      "price": "1011000000000000000000",
      "reserved": "",
      "salt": "0x91a82d2a20ce20d7b5cb3a6a6c3b81b5915acd3eccb4a509415d1a6ddb69733d",
      "assetIds": []
    },
    {
      "x": 222,
      "y": 43,
      "size": 1,
      "price": "1011000000000000000000",
      "reserved": "",
      "salt": "0xd39e224c7b09ccd50feb39fa852221440e1cce421e0e4880d0e5d0a70e926755",
      "assetIds": []
    },
    {
      "x": 222,
      "y": 44,
      "size": 1,
      "price": "1011000000000000000000",
      "reserved": "0x7a9fe22691c811ea339d9b73150e6911a5343dca",
      "salt": "0xa558a8c436fa62b4d9cf86a6b89bbcf094e5f73b843ef2af2f00aae360e6d152",
      "assetIds": []
    },
    {
      "x": 222,
      "y": 48,
      "size": 1,
      "price": "1011000000000000000000",
      "reserved": "0x7a9fe22691c811ea339d9b73150e6911a5343dca",
      "salt": "0xf4b8b694b9aa39093616c7b21004c4df92695e3bdb3d0e021f6fe2596e9dfd90",
      "assetIds": []
    },
    {
      "x": 222,
      "y": 49,
      "size": 1,
      "price": "1011000000000000000000",
      "reserved": "",
      "salt": "0x4dc36528fa85cdbf6f44c4559f895cdd2db3257067128c158a0a57515422f683",
      "assetIds": []
    },
    {
      "x": 222,
      "y": 50,
      "size": 1,
      "price": "1011000000000000000000",
      "reserved": "",
      "salt": "0x63259d25ef28a2c34387251c9d06f7685fb82f1dbbade0202abd21023b259752",
      "assetIds": []
    },
    {
      "x": 222,
      "y": 51,
      "size": 1,
      "price": "1011000000000000000000",
      "reserved": "0x7a9fe22691c811ea339d9b73150e6911a5343dca",
      "salt": "0x82589b32df5c111a9fcd8cc02048c76615bdbef05993c091aeebf3bdfae26832",
      "assetIds": []
    },
    {
      "x": 222,
      "y": 52,
      "size": 1,
      "price": "1011000000000000000000",
      "reserved": "",
      "salt": "0xc5bc37752c7914bd2817871699721629a32585721af0246c91545ebcff2f99c0",
      "assetIds": []
    },
    {
      "x": 222,
      "y": 53,
      "size": 1,
      "price": "1011000000000000000000",
      "reserved": "",
      "salt": "0xed84157efde23cddf03d127a5fc71724116a095cffb3fdc2fc47603c7289887a",
      "assetIds": []
    },
    {
      "x": 222,
      "y": 54,
      "size": 1,
      "price": "1011000000000000000000",
      "reserved": "",
      "salt": "0x035366683e5663afb05d62bb8834bf54a2bf1967baa379b2019d488c1f1118eb",
      "assetIds": []
    },
    {
      "x": 222,
      "y": 55,
      "size": 1,
      "price": "1011000000000000000000",
      "reserved": "",
      "salt": "0xc99303136f1709c2f4d5bf24c98d71bfb9f11da7733365ca401d6eabf85ccdc6",
      "assetIds": []
    },
    {
      "x": 222,
      "y": 56,
      "size": 1,
      "price": "1011000000000000000000",
      "reserved": "",
      "salt": "0x1cfa2149111477332d36c9dd5ef2dc39721e1f144339729c06cd3eceb828dc31",
      "assetIds": []
    },
    {
      "x": 222,
      "y": 57,
      "size": 1,
      "price": "1011000000000000000000",
      "reserved": "",
      "salt": "0xcfe85574d215e3e6918ed2c8fecbc12a02e01156585576a99c09e0c74901d78c",
      "assetIds": []
    },
    {
      "x": 222,
      "y": 58,
      "size": 1,
      "price": "1011000000000000000000",
      "reserved": "",
      "salt": "0x144e7103d5d454f36c4457e98bde3c1f53da31b91d4f69e122fd1ff2c8690d0e",
      "assetIds": []
    },
    {
      "x": 222,
      "y": 59,
      "size": 1,
      "price": "1011000000000000000000",
      "reserved": "",
      "salt": "0x1da11790c9aa44c85d675661f0c9dc80d2d830bcb1bd5f7a1fbb7cccb521d313",
      "assetIds": []
    },
    {
      "x": 223,
      "y": 42,
      "size": 1,
      "price": "1011000000000000000000",
      "reserved": "",
      "salt": "0xa7d973ab486279a20c8dd97c41260316b7d9426c7525b3fd5c7ea4f015dedc53",
      "assetIds": []
    },
    {
      "x": 223,
      "y": 43,
      "size": 1,
      "price": "1011000000000000000000",
      "reserved": "0x7a9fe22691c811ea339d9b73150e6911a5343dca",
      "salt": "0xd385b04f570dd24fcba30bf8769f3456b5e641c5ac8782cb7eb2e31f657865c4",
      "assetIds": []
    },
    {
      "x": 223,
      "y": 44,
      "size": 1,
      "price": "1011000000000000000000",
      "reserved": "",
      "salt": "0xa517f545a1af87a2e81ace454a5edf429900b45d80dab0a202a8ddf065441e86",
      "assetIds": []
    },
    {
      "x": 223,
      "y": 48,
      "size": 1,
      "price": "1011000000000000000000",
      "reserved": "",
      "salt": "0xd9b231c045852ea8be3aec3e99342a39ff73327ebb2ddcc14e321f218847267b",
      "assetIds": []
    },
    {
      "x": 223,
      "y": 49,
      "size": 1,
      "price": "1011000000000000000000",
      "reserved": "0x7a9fe22691c811ea339d9b73150e6911a5343dca",
      "salt": "0x5e5d589cbfd0dbcd9556a4b235cc98f29bf454cc187e7ded31c96d262ea27960",
      "assetIds": []
    },
    {
      "x": 223,
      "y": 50,
      "size": 1,
      "price": "1011000000000000000000",
      "reserved": "",
      "salt": "0xd46a06055bd5a867e112133eb8b527307294af652a15845bbb329bc3cec79afb",
      "assetIds": []
    },
    {
      "x": 223,
      "y": 51,
      "size": 1,
      "price": "1011000000000000000000",
      "reserved": "",
      "salt": "0x5f8a1bcff665777cf7412a5acacf2f429cba5032fd97c4f485fc20c204e82ea6",
      "assetIds": []
    },
    {
      "x": 223,
      "y": 52,
      "size": 1,
      "price": "1011000000000000000000",
      "reserved": "0x7a9fe22691c811ea339d9b73150e6911a5343dca",
      "salt": "0x6b74a7307456b7c87368a9b8ea0adfed2ed58e54e17535bebeff4867ac3459b7",
      "assetIds": []
    },
    {
      "x": 223,
      "y": 53,
      "size": 1,
      "price": "1011000000000000000000",
      "reserved": "",
      "salt": "0x7c04a60649cfe86716f3563ff52250dd577a2f53b889174cac0bec5756de3182",
      "assetIds": []
    },
    {
      "x": 223,
      "y": 54,
      "size": 1,
      "price": "1011000000000000000000",
      "reserved": "",
      "salt": "0xd3ee2e4a85e2b9e4286213d688d8f6d1884ecc9e60231d029a36657085ab48b1",
      "assetIds": []
    },
    {
      "x": 223,
      "y": 55,
      "size": 1,
      "price": "1011000000000000000000",
      "reserved": "0x7a9fe22691c811ea339d9b73150e6911a5343dca",
      "salt": "0x314f8ef7745b2793cbd2473d7714bf02c91cb1fef8c40254150d448a05735582",
      "assetIds": []
    },
    {
      "x": 223,
      "y": 56,
      "size": 1,
      "price": "1011000000000000000000",
      "reserved": "",
      "salt": "0xf7a3e2d8ffb5a1a40248940bf55a0af1f2f9bae66d00546363d5d9591ad11019",
      "assetIds": []
    },
    {
      "x": 223,
      "y": 57,
      "size": 1,
      "price": "1011000000000000000000",
      "reserved": "",
      "salt": "0xa7b75815bc99374a6f67f668dbf8acee6e2a43ea0ef4e78422ca12e78b28ccc9",
      "assetIds": []
    },
    {
      "x": 223,
      "y": 58,
      "size": 1,
      "price": "1011000000000000000000",
      "reserved": "0x7a9fe22691c811ea339d9b73150e6911a5343dca",
      "salt": "0xfacacbbbcf604bf293ab2cb9b96acbc78fea22c3ca1c15c4b1687860227ea670",
      "assetIds": []
    },
    {
      "x": 223,
      "y": 59,
      "size": 1,
      "price": "1011000000000000000000",
      "reserved": "",
      "salt": "0x0cfb182c227702e84eed65c8feac55e0d63931544b5f9753fb8da5945e7bc9e6",
      "assetIds": []
    },
    {
      "x": 224,
      "y": 42,
      "size": 1,
      "price": "1011000000000000000000",
      "reserved": "",
      "salt": "0xed0dd440d6f1e27ebe17506640d04850174023126e9963a6d54adbbdf812acad",
      "assetIds": []
    },
    {
      "x": 224,
      "y": 43,
      "size": 1,
      "price": "1011000000000000000000",
      "reserved": "",
      "salt": "0xd5ee5c93954f36b28b048a496b12a4dcd259118195078e61c91e7d9a0d8a91c9",
      "assetIds": []
    },
    {
      "x": 224,
      "y": 44,
      "size": 1,
      "price": "1011000000000000000000",
      "reserved": "",
      "salt": "0x939f89ca423b812c1b2e0572827d97a0b73c371ed67e2870e48d5029d03cb27f",
      "assetIds": []
    },
    {
      "x": 224,
      "y": 48,
      "size": 1,
      "price": "1011000000000000000000",
      "reserved": "",
      "salt": "0x626feac0f91be1ae39190cbc187973ede41b4b0828e3a3ad23a05b9d1966a302",
      "assetIds": []
    },
    {
      "x": 224,
      "y": 49,
      "size": 1,
      "price": "1011000000000000000000",
      "reserved": "",
      "salt": "0x67b7f0b764e644bb1f25c5cdfc7cb588d9273f1abbdaf05af7a927e87946a279",
      "assetIds": []
    },
    {
      "x": 224,
      "y": 50,
      "size": 1,
      "price": "1011000000000000000000",
      "reserved": "",
      "salt": "0xa9beeda24a0e4a93c22480970213aa19d813cd0a4e72abdd52d50e4016d1a79d",
      "assetIds": []
    },
    {
      "x": 224,
      "y": 51,
      "size": 1,
      "price": "1011000000000000000000",
      "reserved": "",
      "salt": "0x90bfcf3005756640e45bda82c4b15154741a8491abf788f3d2d9d268a815e347",
      "assetIds": []
    },
    {
      "x": 224,
      "y": 52,
      "size": 1,
      "price": "1011000000000000000000",
      "reserved": "",
      "salt": "0x19de38557e72c04bd4d17d263d97c7b23203395df1f389b00964bb4dc5d91928",
      "assetIds": []
    },
    {
      "x": 224,
      "y": 53,
      "size": 1,
      "price": "1011000000000000000000",
      "reserved": "",
      "salt": "0x381a6e527d8d4df7ccde3a8a5a5cef02b6da7b8ef4eb428eeabd2fbf92a75440",
      "assetIds": []
    },
    {
      "x": 224,
      "y": 54,
      "size": 1,
      "price": "1011000000000000000000",
      "reserved": "",
      "salt": "0x3b973470f77ab373ab10a85f26a2f03e44222da23d76bb7c932c2ce98957ad56",
      "assetIds": []
    },
    {
      "x": 224,
      "y": 55,
      "size": 1,
      "price": "1011000000000000000000",
      "reserved": "",
      "salt": "0x29f283ed6040b197a4c61898612bffe769f3b13218e7805cae688f96f8a65852",
      "assetIds": []
    },
    {
      "x": 224,
      "y": 56,
      "size": 1,
      "price": "1011000000000000000000",
      "reserved": "",
      "salt": "0x758c153f8766637618d257e98dbc7f594edd7899f1c94286bf6a9fa905d763bd",
      "assetIds": []
    },
    {
      "x": 224,
      "y": 57,
      "size": 1,
      "price": "1011000000000000000000",
      "reserved": "",
      "salt": "0xba70134b8a85ec3bf241239bb24a7347f94229069c1b574f2b22325c697e5095",
      "assetIds": []
    },
    {
      "x": 224,
      "y": 58,
      "size": 1,
      "price": "1011000000000000000000",
      "reserved": "",
      "salt": "0x8556dc9e5dd4d36b6ddb313141ddc8384c95f8498e10d851e52cfb9673b27211",
      "assetIds": []
    },
    {
      "x": 224,
      "y": 59,
      "size": 1,
      "price": "1011000000000000000000",
      "reserved": "",
      "salt": "0x8a3715ed28b8e2f610d315a376d72145f163a038bba8c1ce7bea87617a793756",
      "assetIds": []
    },
    {
      "x": 225,
      "y": 45,
      "size": 1,
      "price": "1011000000000000000000",
      "reserved": "0x7a9fe22691c811ea339d9b73150e6911a5343dca",
      "salt": "0x3d55628c7b1d0f5983e9d4756aaf398be2161424c945491044be7b9cd80f3dbf",
      "assetIds": []
    },
    {
      "x": 225,
      "y": 46,
      "size": 1,
      "price": "1011000000000000000000",
      "reserved": "",
      "salt": "0x2fc4c4dfdf044d77810dbdf98a3b1a5b26c990e37a9d196583eed373b28ec3fe",
      "assetIds": []
    },
    {
      "x": 225,
      "y": 47,
      "size": 1,
      "price": "1011000000000000000000",
      "reserved": "",
      "salt": "0xea6fb18531af17682143ead64a6db065075538bd925d1b8bb10abe6be1c466ac",
      "assetIds": []
    },
    {
      "x": 225,
      "y": 48,
      "size": 1,
      "price": "1011000000000000000000",
      "reserved": "",
      "salt": "0x97e3efc45a4e50e08906b4f32521bf772c2288b09ad3659324a3cfe530d4f7d2",
      "assetIds": []
    },
    {
      "x": 225,
      "y": 49,
      "size": 1,
      "price": "1011000000000000000000",
      "reserved": "",
      "salt": "0x64be5860f2eab5796da2ba38c3cbb358e03c887adf6a8e592bf57c5f4ece3645",
      "assetIds": []
    },
    {
      "x": 225,
      "y": 50,
      "size": 1,
      "price": "1011000000000000000000",
      "reserved": "",
      "salt": "0xa092a91c1cb4a8fc59270e72f8156ca0f80191f34e5e5f40bbd3899ebc2422ad",
      "assetIds": []
    },
    {
      "x": 225,
      "y": 51,
      "size": 1,
      "price": "1011000000000000000000",
      "reserved": "",
      "salt": "0x59ace826b70ff6ac47b46a16cbb74226d05bed1dd7dcae590b75a17126118d52",
      "assetIds": []
    },
    {
      "x": 225,
      "y": 52,
      "size": 1,
      "price": "1011000000000000000000",
      "reserved": "",
      "salt": "0xf365ea15e623b6ce7210f0a3920a2b78bea27527f67a7d88422a8f05b1a5e5ad",
      "assetIds": []
    },
    {
      "x": 225,
      "y": 53,
      "size": 1,
      "price": "1011000000000000000000",
      "reserved": "",
      "salt": "0x222fefba21d2c7f965585dca1d76b204f8d22bbbe52ae096a4f5a9114b22d758",
      "assetIds": []
    },
    {
      "x": 225,
      "y": 54,
      "size": 1,
      "price": "1011000000000000000000",
      "reserved": "",
      "salt": "0xeead0579ea3d0ff940e467882f2e64a629e0c69267a6a00d559bbd6aafeb2cf5",
      "assetIds": []
    },
    {
      "x": 225,
      "y": 55,
      "size": 1,
      "price": "1011000000000000000000",
      "reserved": "",
      "salt": "0x444452981085787c3a2f31db6ad63088f22224f871259980ef8ed3744d816e75",
      "assetIds": []
    },
    {
      "x": 225,
      "y": 56,
      "size": 1,
      "price": "1011000000000000000000",
      "reserved": "",
      "salt": "0xa84ec5a6cedfb44fe1496dc0bd90e9ca099154fef1dd1382f8a824489250f9bd",
      "assetIds": []
    },
    {
      "x": 225,
      "y": 57,
      "size": 1,
      "price": "1011000000000000000000",
      "reserved": "",
      "salt": "0xec54a7dc0ba2289cca11b30a4dc81e82c491fb79130ad36a09905cfec96e0800",
      "assetIds": []
    },
    {
      "x": 225,
      "y": 58,
      "size": 1,
      "price": "1011000000000000000000",
      "reserved": "",
      "salt": "0xa44eec775fcdefbf68be434eba97cb9bf45c27545de8287c5e0fca0165458fec",
      "assetIds": []
    },
    {
      "x": 225,
      "y": 59,
      "size": 1,
      "price": "1011000000000000000000",
      "reserved": "",
      "salt": "0xf8f63edbd83e1a6561d87af52cc5bcee21241e8820db1b1f28c9a93af0c66c38",
      "assetIds": []
    },
    {
      "x": 226,
      "y": 45,
      "size": 1,
      "price": "1011000000000000000000",
      "reserved": "",
      "salt": "0xe5ded2fd8673dcff9b375f1b6649c42932ef03fb0e1a1681a17e68620db7c388",
      "assetIds": []
    },
    {
      "x": 226,
      "y": 46,
      "size": 1,
      "price": "1011000000000000000000",
      "reserved": "0x7a9fe22691c811ea339d9b73150e6911a5343dca",
      "salt": "0x3af0e8775773d75cdd5371439fecb0c19f5db59be1f451b076b05de45361b5b1",
      "assetIds": []
    },
    {
      "x": 226,
      "y": 47,
      "size": 1,
      "price": "1011000000000000000000",
      "reserved": "",
      "salt": "0xc49a4d12c5140ab4c9079e86669457d7e2758ac0361c6f9898e2e63f35b8c22f",
      "assetIds": []
    },
    {
      "x": 226,
      "y": 48,
      "size": 1,
      "price": "1011000000000000000000",
      "reserved": "",
      "salt": "0x7e621c9422f18637694960480d7d798b8d31f982744deabf5e6094b9d55283a2",
      "assetIds": []
    },
    {
      "x": 226,
      "y": 49,
      "size": 1,
      "price": "1011000000000000000000",
      "reserved": "0x7a9fe22691c811ea339d9b73150e6911a5343dca",
      "salt": "0x6143830203ec79cb6784a4150e6f4b2b207a043f7da860c030b5d3b3a63632ed",
      "assetIds": []
    },
    {
      "x": 226,
      "y": 50,
      "size": 1,
      "price": "1011000000000000000000",
      "reserved": "",
      "salt": "0xff76ce75048f20ea5744f6a1f1d71a5cd84330f45f1b22a41e6cb4fd455aeb4e",
      "assetIds": []
    },
    {
      "x": 226,
      "y": 51,
      "size": 1,
      "price": "1011000000000000000000",
      "reserved": "",
      "salt": "0xf703c2f6f52ee708fb5840d9ffd0d40041f73e5121c7264eddf69a8be35533d0",
      "assetIds": []
    },
    {
      "x": 226,
      "y": 52,
      "size": 1,
      "price": "1011000000000000000000",
      "reserved": "0x7a9fe22691c811ea339d9b73150e6911a5343dca",
      "salt": "0xcedf27098b3d22245e8f8f16d782ad236825c56c8ce19346e9876eabe8a61b08",
      "assetIds": []
    },
    {
      "x": 226,
      "y": 53,
      "size": 1,
      "price": "1011000000000000000000",
      "reserved": "",
      "salt": "0x5dc32a0dde1fc5a57ed9ee992d1cd49315ff89e87514ce21024be272779a202e",
      "assetIds": []
    },
    {
      "x": 226,
      "y": 54,
      "size": 1,
      "price": "1011000000000000000000",
      "reserved": "",
      "salt": "0x8f243c2bd8eabd63c72fd0b14f8a4a20c1281c35e500e5f634877453c4ace3da",
      "assetIds": []
    },
    {
      "x": 226,
      "y": 55,
      "size": 1,
      "price": "1011000000000000000000",
      "reserved": "0x7a9fe22691c811ea339d9b73150e6911a5343dca",
      "salt": "0x817107b463f8ea396931b60e8620853052c7e4ddfe6e81db18bd5fdc20706881",
      "assetIds": []
    },
    {
      "x": 226,
      "y": 56,
      "size": 1,
      "price": "1011000000000000000000",
      "reserved": "",
      "salt": "0xe4fe50897cacf33be1e7271e3c7f54327d1e39d2e3d5d0ddfaa71bda050ac6c2",
      "assetIds": []
    },
    {
      "x": 226,
      "y": 57,
      "size": 1,
      "price": "1011000000000000000000",
      "reserved": "",
      "salt": "0xfe6ba45d6ad9c9a1708059cb8bf9efbfb72b00ee724959642b68a95d56c3a0db",
      "assetIds": []
    },
    {
      "x": 226,
      "y": 58,
      "size": 1,
      "price": "1011000000000000000000",
      "reserved": "0x7a9fe22691c811ea339d9b73150e6911a5343dca",
      "salt": "0xe3b0fc343d6fee9dc27fa0da9190692bcbd4372bd6dd52773b293750aa62596b",
      "assetIds": []
    },
    {
      "x": 226,
      "y": 59,
      "size": 1,
      "price": "1011000000000000000000",
      "reserved": "",
      "salt": "0x9d404e96effaa21560d4689be7ca2e8d7d470cc6a50ff2e4516faba4463ba564",
      "assetIds": []
    },
    {
      "x": 227,
      "y": 45,
      "size": 1,
      "price": "1011000000000000000000",
      "reserved": "",
      "salt": "0x2ca0f3f5770b822aea4f34d82e3c1f57c69c9b1d30c351cb6d12c6ead9222d2d",
      "assetIds": []
    },
    {
      "x": 227,
      "y": 46,
      "size": 1,
      "price": "1011000000000000000000",
      "reserved": "",
      "salt": "0xcb49b39d219af878eaa6f42ef070afb6e5a0544ab3d67fdb1e183cf7cbd1072e",
      "assetIds": []
    },
    {
      "x": 227,
      "y": 47,
      "size": 1,
      "price": "1011000000000000000000",
      "reserved": "",
      "salt": "0xb4e38ad4a35bd146c8d89252b71afc6b37794bb24d577707ae69a4914a2ac135",
      "assetIds": []
    },
    {
      "x": 227,
      "y": 48,
      "size": 1,
      "price": "1011000000000000000000",
      "reserved": "",
      "salt": "0xc6294ad3520ba6475f624d9ceaf5de0e1dd07dfde54d7dd18d6dd83c14e0a755",
      "assetIds": []
    },
    {
      "x": 227,
      "y": 49,
      "size": 1,
      "price": "1011000000000000000000",
      "reserved": "",
      "salt": "0xc7f96938c1456d6ca3ce28f1a91e9bd3eff30a7f032756a3fd45475b1b0e8c8d",
      "assetIds": []
    },
    {
      "x": 227,
      "y": 50,
      "size": 1,
      "price": "1011000000000000000000",
      "reserved": "",
      "salt": "0xe0fa24213e95d378ce0b6a4de47006acd1da6595c2045a641f140ddc18de1293",
      "assetIds": []
    },
    {
      "x": 227,
      "y": 51,
      "size": 1,
      "price": "1011000000000000000000",
      "reserved": "",
      "salt": "0x086aefe3bfd0388f49367676f1fbbddafe9f2500de2966a8c68d41c29d73fa27",
      "assetIds": []
    },
    {
      "x": 227,
      "y": 52,
      "size": 1,
      "price": "1011000000000000000000",
      "reserved": "",
      "salt": "0xd263529e182637a69730d659e347db23ef285bca1544eb12e2ad65bf061e6ddf",
      "assetIds": []
    },
    {
      "x": 227,
      "y": 53,
      "size": 1,
      "price": "1011000000000000000000",
      "reserved": "",
      "salt": "0x27716e6cbb2835a4d3f9f10a9adb8d49871c9f72f5c1459311d85bbd14307cba",
      "assetIds": []
    },
    {
      "x": 227,
      "y": 54,
      "size": 1,
      "price": "1011000000000000000000",
      "reserved": "",
      "salt": "0xe94c79e94b70a6cdb116f6b06b45b16bb592e92633372f02439269a8c4f94882",
      "assetIds": []
    },
    {
      "x": 227,
      "y": 55,
      "size": 1,
      "price": "1011000000000000000000",
      "reserved": "",
      "salt": "0xde819b772021cc218291910bf63b4cffc43fe37eb991d2dce94ad210851e9446",
      "assetIds": []
    },
    {
      "x": 227,
      "y": 56,
      "size": 1,
      "price": "1011000000000000000000",
      "reserved": "",
      "salt": "0x3af54e1e30e3ebc02f14c9ec008c8b3acc57bad52fddc88adf13570d86eda5be",
      "assetIds": []
    },
    {
      "x": 227,
      "y": 57,
      "size": 1,
      "price": "1011000000000000000000",
      "reserved": "",
      "salt": "0x6ef4b84808dd1a8da3c2ff5f4f8b9ad896f61f706c4727c50f63da61d5a2fd5c",
      "assetIds": []
    },
    {
      "x": 227,
      "y": 58,
      "size": 1,
      "price": "1011000000000000000000",
      "reserved": "",
      "salt": "0xdfb1288a2a64ee04c2064538d5a424c75a73c6a9eb4456b0cb171cd6980a43e6",
      "assetIds": []
    },
    {
      "x": 227,
      "y": 59,
      "size": 1,
      "price": "1011000000000000000000",
      "reserved": "",
      "salt": "0x3e9fdd488dc3bdfc7a10b73c309ffe4f51faad35a1c2b031e49368e48d301382",
      "assetIds": []
    },
    {
      "x": 228,
      "y": 54,
      "size": 1,
      "price": "1011000000000000000000",
      "reserved": "",
      "salt": "0x4c75119f96d808a5c019409de16edda170e560133e98fed6d0664bd8d43eeb68",
      "assetIds": []
    },
    {
      "x": 228,
      "y": 55,
      "size": 1,
      "price": "1011000000000000000000",
      "reserved": "",
      "salt": "0x3f9e94328c65b67de62837df3bebf293512b4f487698ae15781c0b59093cb664",
      "assetIds": []
    },
    {
      "x": 228,
      "y": 56,
      "size": 1,
      "price": "1011000000000000000000",
      "reserved": "",
      "salt": "0xc448ecacd14c2d57597e6f2414a8041ec2f9b57fb2a4f3dfea9e1bca13d3ab92",
      "assetIds": []
    },
    {
      "x": 229,
      "y": 54,
      "size": 1,
      "price": "1011000000000000000000",
      "reserved": "",
      "salt": "0xbe83952cf354b3a0a103deff17ae5ba3bb2cef95f93c77202234afe829a845fe",
      "assetIds": []
    },
    {
      "x": 229,
      "y": 55,
      "size": 1,
      "price": "1011000000000000000000",
      "reserved": "0x7a9fe22691c811ea339d9b73150e6911a5343dca",
      "salt": "0x08a0e7c8ceebbfcb768478fc6ec1ca230016c1af9d0fa8f2883d6238f9250a2c",
      "assetIds": []
    },
    {
      "x": 229,
      "y": 56,
      "size": 1,
      "price": "1011000000000000000000",
      "reserved": "",
      "salt": "0x548268d63d6ae42119e290919660b9158307ebf74e73f05d3dbdc3d59b6a27c2",
      "assetIds": []
    },
    {
      "x": 230,
      "y": 54,
      "size": 1,
      "price": "1011000000000000000000",
      "reserved": "",
      "salt": "0x0a4ed399c94d7d15f762674406fe47a9fdf3d92294d549d15e6282c2df81bfc2",
      "assetIds": []
    },
    {
      "x": 230,
      "y": 55,
      "size": 1,
      "price": "1011000000000000000000",
      "reserved": "",
      "salt": "0x2d51a0a31daed70a79855b44b6c8ea4475c4d91136aeef5326b9f35cd92dae74",
      "assetIds": []
    },
    {
      "x": 230,
      "y": 56,
      "size": 1,
      "price": "1011000000000000000000",
      "reserved": "",
      "salt": "0xf527da03441f4894c74e6e0b09d28334222c2edf02612cb6b777bf7fef56b840",
      "assetIds": []
    },
    {
      "x": 231,
      "y": 54,
      "size": 1,
      "price": "1011000000000000000000",
      "reserved": "",
      "salt": "0x66324a207281c588b3d8d29be5e927c295cbe62e26d30ca49b81a5045888145c",
      "assetIds": []
    },
    {
      "x": 231,
      "y": 55,
      "size": 1,
      "price": "1011000000000000000000",
      "reserved": "",
      "salt": "0x46391142db776ec6197f5e62e273a1001a2c4d0f13e6c31afd2049f6bc326a33",
      "assetIds": []
    },
    {
      "x": 231,
      "y": 56,
      "size": 1,
      "price": "1011000000000000000000",
      "reserved": "",
      "salt": "0xa6650d44a2c58027f8e97ea23e0dd9d02d12121fcc31bb3cdcef9a81812a9ecd",
      "assetIds": []
    },
    {
      "x": 231,
      "y": 57,
      "size": 1,
      "price": "1011000000000000000000",
      "reserved": "",
      "salt": "0xefd589ac7933cba777a94244db1a09852bf6ac23f88d0c1cde3de7e06abca44b",
      "assetIds": []
    },
    {
      "x": 231,
      "y": 58,
      "size": 1,
      "price": "1011000000000000000000",
      "reserved": "",
      "salt": "0x6f90891cf88f19c15a45981e6c34a9c57331cfc6a84c4068c1aac7c891c80bcc",
      "assetIds": []
    },
    {
      "x": 231,
      "y": 59,
      "size": 1,
      "price": "1011000000000000000000",
      "reserved": "",
      "salt": "0xcc72aeb88cc0d4db9cc7e31f1793ce9a3dabc13e4438abef41b7030f23eb8422",
      "assetIds": []
    },
    {
      "x": 232,
      "y": 54,
      "size": 1,
      "price": "1011000000000000000000",
      "reserved": "",
      "salt": "0x37e93a6ab6ead69bdf35c63d529c09aa99b94ddf9e9d3af226385722a06e8c59",
      "assetIds": []
    },
    {
      "x": 232,
      "y": 55,
      "size": 1,
      "price": "1011000000000000000000",
      "reserved": "0x7a9fe22691c811ea339d9b73150e6911a5343dca",
      "salt": "0xed27650abd8efce89e85965cbb23f80402d70d6212b7667ec0226b7cc674e458",
      "assetIds": []
    },
    {
      "x": 232,
      "y": 56,
      "size": 1,
      "price": "1011000000000000000000",
      "reserved": "",
      "salt": "0x07c15b54dc084e70b21d8fd5ee0d3db4c62c5274e243d229fc0c6d567dbcd0ab",
      "assetIds": []
    },
    {
      "x": 232,
      "y": 57,
      "size": 1,
      "price": "1011000000000000000000",
      "reserved": "",
      "salt": "0x770934008bffcac0ef724514a65c072431320ffb524b1d88022a68474dd89d8c",
      "assetIds": []
    },
    {
      "x": 232,
      "y": 58,
      "size": 1,
      "price": "1011000000000000000000",
      "reserved": "0x7a9fe22691c811ea339d9b73150e6911a5343dca",
      "salt": "0x4943862d3a0834b97d209aa6890d7dff4c417dd9951bb20ade5a281245ecdaa1",
      "assetIds": []
    },
    {
      "x": 232,
      "y": 59,
      "size": 1,
      "price": "1011000000000000000000",
      "reserved": "",
      "salt": "0xaa906092cddf5a776245fa0f0abf853ad85557a56678d3a9e985506499f1327b",
      "assetIds": []
    },
    {
      "x": 233,
      "y": 54,
      "size": 1,
      "price": "1011000000000000000000",
      "reserved": "",
      "salt": "0x90cce66034f095fd84f3822314419ade07aafcbacb6c9f36f1c7d355a19816f3",
      "assetIds": []
    },
    {
      "x": 233,
      "y": 55,
      "size": 1,
      "price": "1011000000000000000000",
      "reserved": "",
      "salt": "0x75eafc659a839fe42a12dd3658463fe21ad41e59c5bad97c400765cbf39ba478",
      "assetIds": []
    },
    {
      "x": 233,
      "y": 56,
      "size": 1,
      "price": "1011000000000000000000",
      "reserved": "",
      "salt": "0x9b12def4006dd5d7faf902b51d2ea6b682ca1c7b6977fb6491774b049f389292",
      "assetIds": []
    },
    {
      "x": 233,
      "y": 57,
      "size": 1,
      "price": "1011000000000000000000",
      "reserved": "",
      "salt": "0x006d407f11c5a8a8876ce830f1358df76b052902186d9d8256e5a7ca71cba63a",
      "assetIds": []
    },
    {
      "x": 233,
      "y": 58,
      "size": 1,
      "price": "1011000000000000000000",
      "reserved": "",
      "salt": "0x3ab276699327d76e7d129630f3298e855a3ecf93ab5b44ca779cbbebeff8d4fc",
      "assetIds": []
    },
    {
      "x": 233,
      "y": 59,
      "size": 1,
      "price": "1011000000000000000000",
      "reserved": "",
      "salt": "0x0c4cb8e4eca00a3602be64be6f23f8b87aae77fed4f2134eafa9589877e8e475",
      "assetIds": []
    }
  ],
  "solcInputHash": "8858f9e6ab4f09df358810b0137a379b",
  "bytecode": "0x6101606040523480156200001257600080fd5b50604051620031e9380380620031e983398181016040526101a08110156200003957600080fd5b508051602082015160408301516060840151608085015160a086015160c087015160e08801516101008901516101208a01516101408b01516101608c0151610180909c015160016000559a9b999a9899979896979596949593949293919290919085856001600160a01b038216620000f8576040805162461bcd60e51b815260206004820152601f60248201527f526566657272616c56616c696461746f723a207a65726f206164647265737300604482015290519081900360640190fd5b600380546001600160a01b0319166001600160a01b0393841617905560045562000130908e1662000459602090811b62002adc17901c565b6200016d5760405162461bcd60e51b8152600401808060200182810382526025815260200180620031c46025913960400191505060405180910390fd5b6200018c8c6001600160a01b03166200045960201b62002adc1760201c565b620001c95760405162461bcd60e51b8152600401808060200182810382526025815260200180620031c46025913960400191505060405180910390fd5b6001600160a01b038b1662000214576040805162461bcd60e51b815260206004820181905260248201526000805160206200317f833981519152604482015290519081900360640190fd5b6001600160a01b038a166200025f576040805162461bcd60e51b815260206004820181905260248201526000805160206200317f833981519152604482015290519081900360640190fd5b6001600160a01b038916620002aa576040805162461bcd60e51b815260206004820181905260248201526000805160206200317f833981519152604482015290519081900360640190fd5b620002c9836001600160a01b03166200045960201b62002adc1760201c565b620003065760405162461bcd60e51b8152600401808060200182810382526025815260200180620031c46025913960400191505060405180910390fd5b6001600160a01b03821662000351576040805162461bcd60e51b815260206004820181905260248201526000805160206200317f833981519152604482015290519081900360640190fd5b62000370816001600160a01b03166200045960201b62002adc1760201c565b620003ad5760405162461bcd60e51b8152600401808060200182810382526025815260200180620031c46025913960400191505060405180910390fd5b6001600160601b031960608e811b821660a0528d901b1660c052620003dd8b60016001600160e01b036200045f16565b600680546001600160a01b039a8b166001600160a01b031991821617909155610140989098526101209690965260018054998916998816999099179098556001600160601b0319606092831b811660e05290821b811660805296901b909516610100525060078054919093169116179055506200050a92505050565b3b151590565b6001600160a01b038216620004a65760405162461bcd60e51b81526004018080602001828103825260258152602001806200319f6025913960400191505060405180910390fd5b6001600160a01b038216600081815260026020908152604091829020805460ff191685151590811790915582519384529083015280517fb21eb88b4e33b3f1281830a7178d74d8aa73220416215726b68ae23d539515cb9281900390910190a15050565b60805160601c60a05160601c60c05160601c60e05160601c6101005160601c6101205161014051612bef6200059060003980610be0528061247e525080610bbc528061159d5250806124fc525080611af25280611c4f525080611aa85280611e4e52806124d9525080611b235280611c205250806111075280611f3a5250612bef6000f3fe608060405234801561001057600080fd5b50600436106101365760003560e01c8063984d6252116100b2578063c10a420811610081578063dc5074af11610066578063dc5074af146108a0578063e56f8a9e146108c6578063f23a6e61146108e357610136565b8063c10a4208146107c1578063caed35001461089857610136565b8063984d62521461055f578063ab1cc78c14610631578063b522ecff14610639578063bc197c811461065f57610136565b806365194ce71161010957806378e6e5b9116100ee57806378e6e5b9146104e55780638a04af6a1461050b5780638f2839701461053957610136565b806365194ce7146103635780636e9960c3146104c157610136565b80631187fd3c1461013b57806325cb5bc01461031b578063495906571461033557806358bc29441461033d575b600080fd5b610319600480360361012081101561015257600080fd5b6001600160a01b038235811692602081013582169260408201359092169181019060808101606082013564010000000081111561018e57600080fd5b8201836020820111156101a057600080fd5b803590602001918460208302840111640100000000831117156101c257600080fd5b919390928235926040810190602001356401000000008111156101e457600080fd5b8201836020820111156101f657600080fd5b8035906020019184602083028401116401000000008311171561021857600080fd5b91939092909160208101903564010000000081111561023657600080fd5b82018360208201111561024857600080fd5b8035906020019184602083028401116401000000008311171561026a57600080fd5b91939092909160208101903564010000000081111561028857600080fd5b82018360208201111561029a57600080fd5b803590602001918460018302840111640100000000831117156102bc57600080fd5b9193909290916020810190356401000000008111156102da57600080fd5b8201836020820111156102ec57600080fd5b8035906020019184600183028401116401000000008311171561030e57600080fd5b509092509050610978565b005b610323610bba565b60408051918252519081900360200190f35b610323610bde565b6103196004803603602081101561035357600080fd5b50356001600160a01b0316610c02565b6104096004803603602081101561037957600080fd5b81019060208101813564010000000081111561039457600080fd5b8201836020820111156103a657600080fd5b803590602001918460018302840111640100000000831117156103c857600080fd5b91908080601f016020809104026020016040519081016040528093929190818152602001838380828437600092019190915250929550610d2e945050505050565b6040518080602001866001600160a01b03166001600160a01b03168152602001856001600160a01b03166001600160a01b03168152602001848152602001838152602001828103825287818151815260200191508051906020019080838360005b8381101561048257818101518382015260200161046a565b50505050905090810190601f1680156104af5780820380516001836020036101000a031916815260200191505b50965050505050505060405180910390f35b6104c9610e33565b604080516001600160a01b039092168252519081900360200190f35b610319600480360360208110156104fb57600080fd5b50356001600160a01b0316610e42565b6103196004803603604081101561052157600080fd5b506001600160a01b0381351690602001351515610f00565b6103196004803603602081101561054f57600080fd5b50356001600160a01b0316610f6d565b6103196004803603606081101561057557600080fd5b6001600160a01b0382351691908101906040810160208201356401000000008111156105a057600080fd5b8201836020820111156105b257600080fd5b803590602001918460208302840111640100000000831117156105d457600080fd5b9193909290916020810190356401000000008111156105f257600080fd5b82018360208201111561060457600080fd5b8035906020019184602083028401116401000000008311171561062657600080fd5b5090925090506110a6565b610323611231565b6103196004803603602081101561064f57600080fd5b50356001600160a01b0316611237565b61078c600480360360a081101561067557600080fd5b6001600160a01b0382358116926020810135909116918101906060810160408201356401000000008111156106a957600080fd5b8201836020820111156106bb57600080fd5b803590602001918460208302840111640100000000831117156106dd57600080fd5b9193909290916020810190356401000000008111156106fb57600080fd5b82018360208201111561070d57600080fd5b8035906020019184602083028401116401000000008311171561072f57600080fd5b91939092909160208101903564010000000081111561074d57600080fd5b82018360208201111561075f57600080fd5b8035906020019184600183028401116401000000008311171561078157600080fd5b509092509050611348565b604080517fffffffff000000000000000000000000000000000000000000000000000000009092168252519081900360200190f35b610884600480360360a08110156107d757600080fd5b8101906020810181356401000000008111156107f257600080fd5b82018360208201111561080457600080fd5b8035906020019184600183028401116401000000008311171561082657600080fd5b91908080601f016020809104026020016040519081016040528093929190818152602001838380828437600092019190915250929550506001600160a01b038335811694506020840135169260408101359250606001359050611375565b604080519115158252519081900360200190f35b6104c96114b1565b610884600480360360208110156108b657600080fd5b50356001600160a01b03166114c0565b610319600480360360208110156108dc57600080fd5b50356114de565b61078c600480360360a08110156108f957600080fd5b6001600160a01b03823581169260208101359091169160408201359160608101359181019060a08101608082013564010000000081111561093957600080fd5b82018360208201111561094b57600080fd5b8035906020019184600183028401116401000000008311171561096d57600080fd5b509092509050611570565b600260005414156109d0576040805162461bcd60e51b815260206004820152601f60248201527f5265656e7472616e637947756172643a207265656e7472616e742063616c6c00604482015290519081900360640190fd5b60026000556109df8e8d61159b565b610ad68d8d8d8d80806020026020016040519081016040528093929190818152602001838360200280828437600081840152601f19601f820116905080830192505050505050508c8c8c80806020026020016040519081016040528093929190818152602001838360200280828437600081840152601f19601f820116905080830192505050505050508b8b8080602002602001604051908101604052809392919081815260200183836020028082843760009201919091525050604080516020601f8d018190048102820181019092528b815292508b91508a90819084018382808284376000920191909152506116fe92505050565b610b2a8e8c8c6003818110610ae757fe5b9050602002013586868080601f016020809104026020016040519081016040528093929190818152602001838380828437600092019190915250611a8192505050565b610b688e8e8d8d80806020026020016040519081016040528093929190818152602001838360200280828437600092019190915250611ad292505050565b610ba58d898980806020026020016040519081016040528093929190818152602001838360200280828437600092019190915250611ec392505050565b50506001600055505050505050505050505050565b7f000000000000000000000000000000000000000000000000000000000000000090565b7f000000000000000000000000000000000000000000000000000000000000000090565b6001546001600160a01b03163314610c61576040805162461bcd60e51b815260206004820152601260248201527f6f6e6c792061646d696e20616c6c6f7765640000000000000000000000000000604482015290519081900360640190fd5b6001600160a01b038116610cbc576040805162461bcd60e51b815260206004820152601f60248201527f526566657272616c56616c696461746f723a207a65726f206164647265737300604482015290519081900360640190fd5b600380546001600160a01b03908116600090815260056020526040808220620d2f0042019055835473ffffffffffffffffffffffffffffffffffffffff1916928516928317909355915190917fbbb5fb2ee7e707ae0c968f63e94211ea81e66a718c34e2f810a7619e5678a21791a250565b606060008060008060606000806000808a80602001905160a0811015610d5357600080fd5b8101908080516040519392919084640100000000821115610d7357600080fd5b908301906020820185811115610d8857600080fd5b8251640100000000811182820188101715610da257600080fd5b82525081516020918201929091019080838360005b83811015610dcf578181015183820152602001610db7565b50505050905090810190601f168015610dfc5780820380516001836020036101000a031916815260200191505b5060409081526020820151908201516060830151608090930151959f50909d509b5099509197505050505050505091939590929450565b6001546001600160a01b031690565b6001546001600160a01b03163314610e8b5760405162461bcd60e51b8152600401808060200182810382526023815260200180612b056023913960400191505060405180910390fd5b6001600160a01b038116610ee6576040805162461bcd60e51b815260206004820152601f60248201527f526566657272616c56616c696461746f723a207a65726f206164647265737300604482015290519081900360640190fd5b6001600160a01b0316600090815260056020526040812055565b6001546001600160a01b03163314610f5f576040805162461bcd60e51b815260206004820152601260248201527f6f6e6c792061646d696e20616c6c6f7765640000000000000000000000000000604482015290519081900360640190fd5b610f698282612087565b5050565b6001546001600160a01b03163314610fcc576040805162461bcd60e51b815260206004820152601b60248201527f6f6e6c792061646d696e2063616e206368616e67652061646d696e0000000000604482015290519081900360640190fd5b6001546001600160a01b038281169116141561102f576040805162461bcd60e51b815260206004820152600d60248201527f616c72656164792061646d696e00000000000000000000000000000000000000604482015290519081900360640190fd5b600154604080516001600160a01b039283168152918316602083015280517f7e644d79422f17c01e4894b5f4f588d331ebfa28653d42ae832dc59e38c9798f9281900390910190a16001805473ffffffffffffffffffffffffffffffffffffffff19166001600160a01b0392909216919091179055565b6001546001600160a01b03163314611105576040805162461bcd60e51b815260206004820152600e60248201527f4e4f545f415554484f52495a4544000000000000000000000000000000000000604482015290519081900360640190fd5b7f00000000000000000000000000000000000000000000000000000000000000006001600160a01b0316632eb2c2d63087878787876040518763ffffffff1660e01b815260040180876001600160a01b03166001600160a01b03168152602001866001600160a01b03166001600160a01b031681526020018060200180602001806020018481038452888882818152602001925060200280828437600083820152601f01601f19169091018581038452868152602090810191508790870280828437600081840152601f19601f8201169050808301925050508481038252600081526020016020019950505050505050505050600060405180830381600087803b15801561121257600080fd5b505af1158015611226573d6000803e3d6000fd5b505050505050505050565b60045490565b6001600160a01b038116611292576040805162461bcd60e51b815260206004820152600c60248201527f5a45524f5f414444524553530000000000000000000000000000000000000000604482015290519081900360640190fd5b6001546001600160a01b031633146112f1576040805162461bcd60e51b815260206004820152600e60248201527f4e4f545f415554484f52495a4544000000000000000000000000000000000000604482015290519081900360640190fd5b6006805473ffffffffffffffffffffffffffffffffffffffff19166001600160a01b0383169081179091556040517f4d66958b757eb92a1b43d02be4c38c9500b73f532420ee3706cb43d420ba023690600090a250565b7fbc197c810000000000000000000000000000000000000000000000000000000098975050505050505050565b60006004548211806113985750836001600160a01b0316856001600160a01b0316145b806113a257508242115b156113af575060006114a8565b60408051606087811b7fffffffffffffffffffffffffffffffffffffffff0000000000000000000000009081166020808501919091529188901b166034830152604882018690526068808301869052835180840390910181526088830184528051908201207f19457468657265756d205369676e6564204d6573736167653a0a33320000000060a884015260c48084018290528451808503909101815260e49093019093528151910120600090611466908961214e565b6001600160a01b0381166000908152600560205260409020549091504211611493576001925050506114a8565b6003546001600160a01b039081169116149150505b95945050505050565b6003546001600160a01b031690565b6001600160a01b031660009081526002602052604090205460ff1690565b6001546001600160a01b0316331461153d576040805162461bcd60e51b815260206004820152601260248201527f6f6e6c792061646d696e20616c6c6f7765640000000000000000000000000000604482015290519081900360640190fd5b600481905560405181907f774069781371d65424b3b0b101c1d40014532cac040f979595b99a3fcf8ce08c90600090a250565b7ff23a6e61000000000000000000000000000000000000000000000000000000009695505050505050565b7f0000000000000000000000000000000000000000000000000000000000000000421061160f576040805162461bcd60e51b815260206004820152600c60248201527f53414c455f49535f4f5645520000000000000000000000000000000000000000604482015290519081900360640190fd5b6001600160a01b03821633148061163557503360009081526002602052604090205460ff165b611686576040805162461bcd60e51b815260206004820152600e60248201527f4e4f545f415554484f52495a4544000000000000000000000000000000000000604482015290519081900360640190fd5b6001600160a01b03811615806116ad5750816001600160a01b0316816001600160a01b0316145b610f69576040805162461bcd60e51b815260206004820152600d60248201527f52455345525645445f4c414e4400000000000000000000000000000000000000604482015290519081900360640190fd5b600087878760008151811061170f57fe5b60200260200101518860018151811061172457fe5b60200260200101518960028151811061173957fe5b60200260200101518a60038151811061174e57fe5b60200260200101518a8a60405160200180828051906020019060200280838360005b83811015611788578181015183820152602001611770565b50505050905001915050604051602081830303815290604052805190602001208a60405160200180828051906020019060200280838360005b838110156117d95781810151838201526020016117c1565b5050505090500191505060405160208183030381529060405280519060200120604051602001808a6001600160a01b03166001600160a01b031660601b8152601401896001600160a01b03166001600160a01b031660601b81526014018881526020018781526020018681526020018581526020018481526020018381526020018281526020019950505050505050505050604051602081830303815290604052805190602001209050600760009054906101000a90046001600160a01b03166001600160a01b031663012847ed83836040518363ffffffff1660e01b81526004018080602001838152602001828103825284818151815260200191508051906020019080838360005b838110156118fb5781810151838201526020016118e3565b50505050905090810190601f1680156119285780820380516001836020036101000a031916815260200191505b50935050505060206040518083038186803b15801561194657600080fd5b505afa15801561195a573d6000803e3d6000fd5b505050506040513d602081101561197057600080fd5b50516119c3576040805162461bcd60e51b815260206004820152600c60248201527f494e56414c49445f415554480000000000000000000000000000000000000000604482015290519081900360640190fd5b6000611a24876000815181106119d557fe5b6020026020010151886001815181106119ea57fe5b6020026020010151896002815181106119ff57fe5b60200260200101518a600381518110611a1457fe5b60200260200101518c8b8b612337565b9050611a3084826123dc565b611226576040805162461bcd60e51b815260206004820152600c60248201527f494e56414c49445f4c414e440000000000000000000000000000000000000000604482015290519081900360640190fd5b6000611a8d84846124a5565b600654909150611acc908590839085906001600160a01b03167f000000000000000000000000000000000000000000000000000000000000000061253f565b50505050565b80600281518110611adf57fe5b602002602001015160011480611b1c57507f00000000000000000000000000000000000000000000000000000000000000006001600160a01b0316155b15611c1e577f00000000000000000000000000000000000000000000000000000000000000006001600160a01b0316636e1e3bbf8383600281518110611b5e57fe5b602002602001015184600081518110611b7357fe5b602002602001015185600181518110611b8857fe5b60200260200101516040518563ffffffff1660e01b815260040180856001600160a01b03166001600160a01b031681526020018481526020018381526020018281526020018060200182810382526000815260200160200195505050505050600060405180830381600087803b158015611c0157600080fd5b505af1158015611c15573d6000803e3d6000fd5b50505050611dbe565b7f00000000000000000000000000000000000000000000000000000000000000006001600160a01b0316636e1e3bbf7f000000000000000000000000000000000000000000000000000000000000000083600281518110611c7b57fe5b602002602001015184600081518110611c9057fe5b602002602001015185600181518110611ca557fe5b60200260200101518760405160200180826001600160a01b03166001600160a01b031681526020019150506040516020818303038152906040526040518663ffffffff1660e01b815260040180866001600160a01b03166001600160a01b0316815260200185815260200184815260200183815260200180602001828103825283818151815260200191508051906020019080838360005b83811015611d55578181015183820152602001611d3d565b50505050905090810190601f168015611d825780820380516001836020036101000a031916815260200191505b509650505050505050600060405180830381600087803b158015611da557600080fd5b505af1158015611db9573d6000803e3d6000fd5b505050505b61019881600181518110611dce57fe5b60200260200101510281600081518110611de457fe5b602002602001015101826001600160a01b0316846001600160a01b03167fe4dfa6ac11314892f3029b34a25b1a887da3b1cab2bbf8506d87128ba6e3ac0284600281518110611e2f57fe5b602002602001015185600381518110611e4457fe5b60200260200101517f000000000000000000000000000000000000000000000000000000000000000087600381518110611e7a57fe5b602002602001015160405180858152602001848152602001836001600160a01b03166001600160a01b0316815260200182815260200194505050505060405180910390a4505050565b6060815167ffffffffffffffff81118015611edd57600080fd5b50604051908082528060200260200182016040528015611f07578160200160208202803683370190505b50905060005b8251811015611f37576001828281518110611f2457fe5b6020908102919091010152600101611f0d565b507f00000000000000000000000000000000000000000000000000000000000000006001600160a01b0316632eb2c2d6308585856040518563ffffffff1660e01b815260040180856001600160a01b03166001600160a01b03168152602001846001600160a01b03166001600160a01b03168152602001806020018060200180602001848103845286818151815260200191508051906020019060200280838360005b83811015611ff2578181015183820152602001611fda565b50505050905001848103835285818151815260200191508051906020019060200280838360005b83811015612031578181015183820152602001612019565b50505050905001848103825260008152602001602001975050505050505050600060405180830381600087803b15801561206a57600080fd5b505af115801561207e573d6000803e3d6000fd5b50505050505050565b6001600160a01b0382166120cc5760405162461bcd60e51b8152600401808060200182810382526025815260200180612b6b6025913960400191505060405180910390fd5b6001600160a01b03821660008181526002602090815260409182902080547fffffffffffffffffffffffffffffffffffffffffffffffffffffffffffffff001685151590811790915582519384529083015280517fb21eb88b4e33b3f1281830a7178d74d8aa73220416215726b68ae23d539515cb9281900390910190a15050565b600081516041146121a6576040805162461bcd60e51b815260206004820152601f60248201527f45434453413a20696e76616c6964207369676e6174757265206c656e67746800604482015290519081900360640190fd5b60208201516040830151606084015160001a7f7fffffffffffffffffffffffffffffff5d576e7357a4501ddfe92f46681b20a08211156122175760405162461bcd60e51b8152600401808060200182810382526022815260200180612ae36022913960400191505060405180910390fd5b8060ff16601b1415801561222f57508060ff16601c14155b1561226b5760405162461bcd60e51b8152600401808060200182810382526022815260200180612b286022913960400191505060405180910390fd5b60408051600080825260208083018085528a905260ff85168385015260608301879052608083018690529251909260019260a080820193601f1981019281900390910190855afa1580156122c3573d6000803e3d6000fd5b5050604051601f1901519150506001600160a01b03811661232b576040805162461bcd60e51b815260206004820152601860248201527f45434453413a20696e76616c6964207369676e61747572650000000000000000604482015290519081900360640190fd5b93505050505b92915050565b60008787878787878760405160200180888152602001878152602001868152602001858152602001846001600160a01b03166001600160a01b031660601b8152601401838152602001828051906020019060200280838360005b838110156123a9578181015183820152602001612391565b50505050905001975050505050505050604051602081830303815290604052805190602001209050979650505050505050565b600081815b845181101561247b5760008582815181106123f857fe5b60200260200101519050808310156124405782816040516020018083815260200182815260200192505050604051602081830303815290604052805190602001209250612472565b808360405160200180838152602001828152602001925050506040516020818303038152906040528051906020012092505b506001016123e1565b507f0000000000000000000000000000000000000000000000000000000000000000149392505050565b6000806124ca60646124be85600563ffffffff61264716565b9063ffffffff6126a716565b90506125276001600160a01b037f000000000000000000000000000000000000000000000000000000000000000016857f00000000000000000000000000000000000000000000000000000000000000008463ffffffff6126e916565b612537838263ffffffff61277116565b949350505050565b8251819085901561262c57606060008060008061255b8a610d2e565b93985091965094509250905060006125768686868686611375565b15612604576125906125888d84612647565b6127106126a7565b9050886001600160a01b0316846001600160a01b0316866001600160a01b03167fac7a699eb95c3c6d390ec4626de17ef9a67b35891efdb197beba7c7fdd45fac48f858760405180848152602001838152602001828152602001935050505060405180910390a46126018782612771565b96505b8015612625576126256001600160a01b0389168e878463ffffffff6126e916565b5050505050505b61207e6001600160a01b03831688868463ffffffff6126e916565b60008261265657506000612331565b8282028284828161266357fe5b04146126a05760405162461bcd60e51b8152600401808060200182810382526021815260200180612b4a6021913960400191505060405180910390fd5b9392505050565b60006126a083836040518060400160405280601a81526020017f536166654d6174683a206469766973696f6e206279207a65726f0000000000008152506127b3565b604080516001600160a01b0380861660248301528416604482015260648082018490528251808303909101815260849091019091526020810180517bffffffffffffffffffffffffffffffffffffffffffffffffffffffff167f23b872dd00000000000000000000000000000000000000000000000000000000179052611acc908590612855565b60006126a083836040518060400160405280601e81526020017f536166654d6174683a207375627472616374696f6e206f766572666c6f77000081525061290b565b6000818361283f5760405162461bcd60e51b81526004018080602001828103825283818151815260200191508051906020019080838360005b838110156128045781810151838201526020016127ec565b50505050905090810190601f1680156128315780820380516001836020036101000a031916815260200191505b509250505060405180910390fd5b50600083858161284b57fe5b0495945050505050565b60606128aa826040518060400160405280602081526020017f5361666545524332303a206c6f772d6c6576656c2063616c6c206661696c6564815250856001600160a01b03166129659092919063ffffffff16565b805190915015612906578080602001905160208110156128c957600080fd5b50516129065760405162461bcd60e51b815260040180806020018281038252602a815260200180612b90602a913960400191505060405180910390fd5b505050565b6000818484111561295d5760405162461bcd60e51b81526020600482018181528351602484015283519092839260449091019190850190808383600083156128045781810151838201526020016127ec565b505050900390565b60606125378484600085606061297a85612adc565b6129cb576040805162461bcd60e51b815260206004820152601d60248201527f416464726573733a2063616c6c20746f206e6f6e2d636f6e7472616374000000604482015290519081900360640190fd5b60006060866001600160a01b031685876040518082805190602001908083835b60208310612a0a5780518252601f1990920191602091820191016129eb565b6001836020036101000a03801982511681845116808217855250505050505090500191505060006040518083038185875af1925050503d8060008114612a6c576040519150601f19603f3d011682016040523d82523d6000602084013e612a71565b606091505b50915091508115612a855791506125379050565b805115612a955780518082602001fd5b60405162461bcd60e51b81526020600482018181528651602484015286518793919283926044019190850190808383600083156128045781810151838201526020016127ec565b3b15159056fe45434453413a20696e76616c6964207369676e6174757265202773272076616c7565526566657272616c56616c696461746f723a2053656e646572206e6f742061646d696e45434453413a20696e76616c6964207369676e6174757265202776272076616c7565536166654d6174683a206d756c7469706c69636174696f6e206f766572666c6f774d6574615472616e73616374696f6e52656365697665723a207a65726f20616464726573735361666545524332303a204552433230206f7065726174696f6e20646964206e6f742073756363656564a2646970667358221220a5670b1ad93b092eb46ba00923ea8f6c7cf8a0b44a1214b01f8ac6fb833c6f6064736f6c6343000605003345737461746553616c6557697468417574683a207a65726f20616464726573734d6574615472616e73616374696f6e52656365697665723a207a65726f206164647265737345737461746553616c6557697468417574683a206973206e6f74206120636f6e7472616374",
  "devdoc": {
    "methods": {
      "buyLandWithSand(address,address,address,uint256[],bytes32,uint256[],bytes32[],bytes,bytes)": {
        "params": {
          "assetIds": "asset ids (lands) that will be bought",
          "buyer": "address that perform the payment",
          "info": "[X_INDEX=0] x coordinate of the Land [Y_INDEX=1] y coordinate of the Land [SIZE_INDEX=2] size of the pack of Land to purchase [PRICE_INDEX=3] price in SAND to purchase that Land",
          "proof": "merkleProof for that particular Land",
          "referral": "referral id",
          "reserved": "the reserved address (if any)",
          "salt": "The salt submitted for verification.",
          "signature": "A signed message specifying tx details",
          "to": "address that will own the purchased Land"
        }
      },
      "changeAdmin(address)": {
        "details": "change the administrator to be `newAdmin`.",
        "params": {
          "newAdmin": "address of the new administrator."
        }
      },
      "disablePreviousSigningWallet(address)": {
        "details": "Disable compromised signing wallet",
        "params": {
          "disableWallet": "The wallet address to be disabled"
        }
      },
      "getAdmin()": {
        "details": "gives the current administrator of this contract.",
        "returns": {
          "_0": "the current administrator of this contract."
        }
      },
      "getSigningWallet()": {
        "details": "signing wallet authorized for referral",
        "returns": {
          "_0": "the address of the signing wallet"
        }
      },
      "isMetaTransactionProcessor(address)": {
        "details": "check whether address `who` is given meta-transaction execution rights.",
        "params": {
          "who": "The address to query."
        },
        "returns": {
          "_0": "whether the address has meta-transaction execution rights."
        }
      },
      "isReferralValid(bytes,address,address,uint256,uint256)": {
        "params": {
          "commissionRate": "The commissionRate of the referral",
          "expiryTime": "The expiry time of the referral",
          "referee": "The address of the referee",
          "referrer": "The address of the referrer",
          "signature": "The signature to check (signed referral)"
        },
        "returns": {
          "_0": "True if the referral is valid"
        }
      },
      "setMetaTransactionProcessor(address,bool)": {
        "details": "Enable or disable the ability of `metaTransactionProcessor` to perform meta-tx (metaTransactionProcessor rights).",
        "params": {
          "enabled": "set whether the metaTransactionProcessor is enabled or disabled.",
          "metaTransactionProcessor": "address that will be given/removed metaTransactionProcessor rights."
        }
      },
      "setReceivingWallet(address)": {
        "params": {
          "newWallet": "address of the new receiving wallet"
        }
      },
      "updateMaxCommissionRate(uint256)": {
        "details": "Update the maximum commission rate",
        "params": {
          "newMaxCommissionRate": "The new maximum commission rate"
        }
      },
      "updateSigningWallet(address)": {
        "details": "Update the signing wallet The previous wallet is still valid for a grace period (_previousSigningDelay). If you want to disable the previous wallet, use the disablePreviousSigningWallet function.",
        "params": {
          "newSigningWallet": "The new address of the signing wallet"
        }
      },
      "withdrawAssets(address,uint256[],uint256[])": {
        "params": {
          "assetIds": "the assetIds to be transferred",
          "to": "intended recipient of the asset tokens",
          "values": "the quantities of the assetIds to be transferred"
        }
      }
    },
    "title": "Estate Sale contract with referral"
  },
  "userdoc": {
    "methods": {
      "buyLandWithSand(address,address,address,uint256[],bytes32,uint256[],bytes32[],bytes,bytes)": {
        "notice": "buy Land with SAND using the merkle proof associated with it"
      },
      "getExpiryTime()": {
        "notice": "Gets the expiry time for the current sale"
      },
      "getMaxCommissionRate()": {
        "notice": "the max commission rate"
      },
      "getMerkleRoot()": {
        "notice": "Gets the Merkle root associated with the current sale"
      },
      "isReferralValid(bytes,address,address,uint256,uint256)": {
        "notice": "Check if a referral is valid"
      },
      "setReceivingWallet(address)": {
        "notice": "set the wallet receiving the proceeds"
      },
      "withdrawAssets(address,uint256[],uint256[])": {
        "notice": "enable Admin to withdraw remaining assets from EstateSaleWithFee contract"
      }
    },
    "notice": "This contract manages the sale of our lands as Estates"
  },
  "storageLayout": {
    "storage": [
      {
        "astId": 924,
        "contract": "@sandbox-smart-contracts/land-sale/contracts/EstateSaleWithAuth.sol:EstateSaleWithAuth",
        "label": "_status",
        "offset": 0,
        "slot": "0",
        "type": "t_uint256"
      },
      {
        "astId": 2455,
        "contract": "@sandbox-smart-contracts/land-sale/contracts/EstateSaleWithAuth.sol:EstateSaleWithAuth",
        "label": "_admin",
        "offset": 0,
        "slot": "1",
        "type": "t_address"
      },
      {
        "astId": 2524,
        "contract": "@sandbox-smart-contracts/land-sale/contracts/EstateSaleWithAuth.sol:EstateSaleWithAuth",
        "label": "_metaTransactionContracts",
        "offset": 0,
        "slot": "2",
        "type": "t_mapping(t_address,t_bool)"
      },
      {
        "astId": 1935,
        "contract": "@sandbox-smart-contracts/land-sale/contracts/EstateSaleWithAuth.sol:EstateSaleWithAuth",
        "label": "_signingWallet",
        "offset": 0,
        "slot": "3",
        "type": "t_address"
      },
      {
        "astId": 1937,
        "contract": "@sandbox-smart-contracts/land-sale/contracts/EstateSaleWithAuth.sol:EstateSaleWithAuth",
        "label": "_maxCommissionRate",
        "offset": 0,
        "slot": "4",
        "type": "t_uint256"
      },
      {
        "astId": 1941,
        "contract": "@sandbox-smart-contracts/land-sale/contracts/EstateSaleWithAuth.sol:EstateSaleWithAuth",
        "label": "_previousSigningWallets",
        "offset": 0,
        "slot": "5",
        "type": "t_mapping(t_address,t_uint256)"
      },
      {
        "astId": 1740,
        "contract": "@sandbox-smart-contracts/land-sale/contracts/EstateSaleWithAuth.sol:EstateSaleWithAuth",
        "label": "_wallet",
        "offset": 0,
        "slot": "6",
        "type": "t_address_payable"
      },
      {
        "astId": 1742,
        "contract": "@sandbox-smart-contracts/land-sale/contracts/EstateSaleWithAuth.sol:EstateSaleWithAuth",
        "label": "_authValidator",
        "offset": 0,
        "slot": "7",
        "type": "t_contract(AuthValidator)1053"
      }
    ],
    "types": {
      "t_address": {
        "encoding": "inplace",
        "label": "address",
        "numberOfBytes": "20"
      },
      "t_address_payable": {
        "encoding": "inplace",
        "label": "address payable",
        "numberOfBytes": "20"
      },
      "t_bool": {
        "encoding": "inplace",
        "label": "bool",
        "numberOfBytes": "1"
      },
      "t_contract(AuthValidator)1053": {
        "encoding": "inplace",
        "label": "contract AuthValidator",
        "numberOfBytes": "20"
      },
      "t_mapping(t_address,t_bool)": {
        "encoding": "mapping",
        "key": "t_address",
        "label": "mapping(address => bool)",
        "numberOfBytes": "32",
        "value": "t_bool"
      },
      "t_mapping(t_address,t_uint256)": {
        "encoding": "mapping",
        "key": "t_address",
        "label": "mapping(address => uint256)",
        "numberOfBytes": "32",
        "value": "t_uint256"
      },
      "t_uint256": {
        "encoding": "inplace",
        "label": "uint256",
        "numberOfBytes": "32"
      }
    }
  }
}