{
  "address": "0x2c0521ea8B94bdFBc981621a7bFDc3314a2C8426",
  "abi": [
    {
      "inputs": [],
      "stateMutability": "nonpayable",
      "type": "constructor"
    },
    {
      "anonymous": false,
      "inputs": [
        {
          "indexed": true,
          "internalType": "address",
          "name": "to",
          "type": "address"
        },
        {
          "components": [
            {
              "internalType": "enum SignedMultiGiveawayBase.TokenType",
              "name": "tokenType",
              "type": "uint8"
            },
            {
              "internalType": "address",
              "name": "tokenAddress",
              "type": "address"
            },
            {
              "internalType": "bytes",
              "name": "data",
              "type": "bytes"
            }
          ],
          "indexed": false,
          "internalType": "struct SignedMultiGiveawayBase.ClaimEntry[]",
          "name": "claims",
          "type": "tuple[]"
        },
        {
          "indexed": true,
          "internalType": "address",
          "name": "operator",
          "type": "address"
        }
      ],
      "name": "AssetsRecovered",
      "type": "event"
    },
    {
      "anonymous": false,
      "inputs": [
        {
          "indexed": false,
          "internalType": "uint256[]",
          "name": "claimIds",
          "type": "uint256[]"
        },
        {
          "indexed": true,
          "internalType": "address",
          "name": "from",
          "type": "address"
        },
        {
          "indexed": true,
          "internalType": "address",
          "name": "to",
          "type": "address"
        },
        {
          "components": [
            {
              "internalType": "enum SignedMultiGiveawayBase.TokenType",
              "name": "tokenType",
              "type": "uint8"
            },
            {
              "internalType": "address",
              "name": "tokenAddress",
              "type": "address"
            },
            {
              "internalType": "bytes",
              "name": "data",
              "type": "bytes"
            }
          ],
          "indexed": false,
          "internalType": "struct SignedMultiGiveawayBase.ClaimEntry[]",
          "name": "claims",
          "type": "tuple[]"
        },
        {
          "indexed": true,
          "internalType": "address",
          "name": "operator",
          "type": "address"
        }
      ],
      "name": "Claimed",
      "type": "event"
    },
    {
      "anonymous": false,
      "inputs": [],
      "name": "EIP712DomainChanged",
      "type": "event"
    },
    {
      "anonymous": false,
      "inputs": [
        {
          "indexed": false,
          "internalType": "uint8",
          "name": "version",
          "type": "uint8"
        }
      ],
      "name": "Initialized",
      "type": "event"
    },
    {
      "anonymous": false,
      "inputs": [
        {
          "indexed": false,
          "internalType": "uint128",
          "name": "maxClaimEntries",
          "type": "uint128"
        },
        {
          "indexed": true,
          "internalType": "address",
          "name": "operator",
          "type": "address"
        }
      ],
      "name": "MaxClaimEntriesSet",
      "type": "event"
    },
    {
      "anonymous": false,
      "inputs": [
        {
          "indexed": true,
          "internalType": "address",
          "name": "token",
          "type": "address"
        },
        {
          "indexed": true,
          "internalType": "uint256",
          "name": "tokenId",
          "type": "uint256"
        },
        {
          "indexed": false,
          "internalType": "uint256",
          "name": "maxWeiPerClaim",
          "type": "uint256"
        },
        {
          "indexed": true,
          "internalType": "address",
          "name": "operator",
          "type": "address"
        }
      ],
      "name": "MaxWeiPerClaimSet",
      "type": "event"
    },
    {
      "anonymous": false,
      "inputs": [
        {
          "indexed": false,
          "internalType": "uint128",
          "name": "numberOfSignaturesNeeded",
          "type": "uint128"
        },
        {
          "indexed": true,
          "internalType": "address",
          "name": "operator",
          "type": "address"
        }
      ],
      "name": "NumberOfSignaturesNeededSet",
      "type": "event"
    },
    {
      "anonymous": false,
      "inputs": [
        {
          "indexed": false,
          "internalType": "address",
          "name": "account",
          "type": "address"
        }
      ],
      "name": "Paused",
      "type": "event"
    },
    {
      "anonymous": false,
      "inputs": [
        {
          "indexed": false,
          "internalType": "uint256[]",
          "name": "claimIds",
          "type": "uint256[]"
        },
        {
          "indexed": true,
          "internalType": "address",
          "name": "operator",
          "type": "address"
        }
      ],
      "name": "RevokedClaims",
      "type": "event"
    },
    {
      "anonymous": false,
      "inputs": [
        {
          "indexed": true,
          "internalType": "bytes32",
          "name": "role",
          "type": "bytes32"
        },
        {
          "indexed": true,
          "internalType": "bytes32",
          "name": "previousAdminRole",
          "type": "bytes32"
        },
        {
          "indexed": true,
          "internalType": "bytes32",
          "name": "newAdminRole",
          "type": "bytes32"
        }
      ],
      "name": "RoleAdminChanged",
      "type": "event"
    },
    {
      "anonymous": false,
      "inputs": [
        {
          "indexed": true,
          "internalType": "bytes32",
          "name": "role",
          "type": "bytes32"
        },
        {
          "indexed": true,
          "internalType": "address",
          "name": "account",
          "type": "address"
        },
        {
          "indexed": true,
          "internalType": "address",
          "name": "sender",
          "type": "address"
        }
      ],
      "name": "RoleGranted",
      "type": "event"
    },
    {
      "anonymous": false,
      "inputs": [
        {
          "indexed": true,
          "internalType": "bytes32",
          "name": "role",
          "type": "bytes32"
        },
        {
          "indexed": true,
          "internalType": "address",
          "name": "account",
          "type": "address"
        },
        {
          "indexed": true,
          "internalType": "address",
          "name": "sender",
          "type": "address"
        }
      ],
      "name": "RoleRevoked",
      "type": "event"
    },
    {
      "anonymous": false,
      "inputs": [
        {
          "indexed": true,
          "internalType": "address",
          "name": "oldTrustedForwarder",
          "type": "address"
        },
        {
          "indexed": true,
          "internalType": "address",
          "name": "newTrustedForwarder",
          "type": "address"
        },
        {
          "indexed": true,
          "internalType": "address",
          "name": "operator",
          "type": "address"
        }
      ],
      "name": "TrustedForwarderSet",
      "type": "event"
    },
    {
      "anonymous": false,
      "inputs": [
        {
          "indexed": false,
          "internalType": "address",
          "name": "account",
          "type": "address"
        }
      ],
      "name": "Unpaused",
      "type": "event"
    },
    {
      "inputs": [],
      "name": "BACKOFFICE_ROLE",
      "outputs": [
        {
          "internalType": "bytes32",
          "name": "",
          "type": "bytes32"
        }
      ],
      "stateMutability": "view",
      "type": "function"
    },
    {
      "inputs": [],
      "name": "CLAIM_ENTRY_TYPEHASH",
      "outputs": [
        {
          "internalType": "bytes32",
          "name": "",
          "type": "bytes32"
        }
      ],
      "stateMutability": "view",
      "type": "function"
    },
    {
      "inputs": [],
      "name": "CLAIM_TYPEHASH",
      "outputs": [
        {
          "internalType": "bytes32",
          "name": "",
          "type": "bytes32"
        }
      ],
      "stateMutability": "view",
      "type": "function"
    },
    {
      "inputs": [],
      "name": "DEFAULT_ADMIN_ROLE",
      "outputs": [
        {
          "internalType": "bytes32",
          "name": "",
          "type": "bytes32"
        }
      ],
      "stateMutability": "view",
      "type": "function"
    },
    {
      "inputs": [],
      "name": "NAME",
      "outputs": [
        {
          "internalType": "string",
          "name": "",
          "type": "string"
        }
      ],
      "stateMutability": "view",
      "type": "function"
    },
    {
      "inputs": [],
      "name": "SIGNER_ROLE",
      "outputs": [
        {
          "internalType": "bytes32",
          "name": "",
          "type": "bytes32"
        }
      ],
      "stateMutability": "view",
      "type": "function"
    },
    {
      "inputs": [],
      "name": "VERSION",
      "outputs": [
        {
          "internalType": "string",
          "name": "",
          "type": "string"
        }
      ],
      "stateMutability": "view",
      "type": "function"
    },
    {
      "inputs": [
        {
          "components": [
            {
              "components": [
                {
                  "internalType": "uint8",
                  "name": "v",
                  "type": "uint8"
                },
                {
                  "internalType": "bytes32",
                  "name": "r",
                  "type": "bytes32"
                },
                {
                  "internalType": "bytes32",
                  "name": "s",
                  "type": "bytes32"
                }
              ],
              "internalType": "struct SignedMultiGiveawayBase.Signature[]",
              "name": "sigs",
              "type": "tuple[]"
            },
            {
              "internalType": "uint256[]",
              "name": "claimIds",
              "type": "uint256[]"
            },
            {
              "internalType": "uint256",
              "name": "expiration",
              "type": "uint256"
            },
            {
              "internalType": "address",
              "name": "from",
              "type": "address"
            },
            {
              "internalType": "address",
              "name": "to",
              "type": "address"
            },
            {
              "components": [
                {
                  "internalType": "enum SignedMultiGiveawayBase.TokenType",
                  "name": "tokenType",
                  "type": "uint8"
                },
                {
                  "internalType": "address",
                  "name": "tokenAddress",
                  "type": "address"
                },
                {
                  "internalType": "bytes",
                  "name": "data",
                  "type": "bytes"
                }
              ],
              "internalType": "struct SignedMultiGiveawayBase.ClaimEntry[]",
              "name": "claims",
              "type": "tuple[]"
            }
          ],
          "internalType": "struct SignedMultiGiveaway.BatchClaimData[]",
          "name": "batch",
          "type": "tuple[]"
        }
      ],
      "name": "batchClaim",
      "outputs": [],
      "stateMutability": "nonpayable",
      "type": "function"
    },
    {
      "inputs": [
        {
          "components": [
            {
              "internalType": "uint8",
              "name": "v",
              "type": "uint8"
            },
            {
              "internalType": "bytes32",
              "name": "r",
              "type": "bytes32"
            },
            {
              "internalType": "bytes32",
              "name": "s",
              "type": "bytes32"
            }
          ],
          "internalType": "struct SignedMultiGiveawayBase.Signature[]",
          "name": "sigs",
          "type": "tuple[]"
        },
        {
          "internalType": "uint256[]",
          "name": "claimIds",
          "type": "uint256[]"
        },
        {
          "internalType": "uint256",
          "name": "expiration",
          "type": "uint256"
        },
        {
          "internalType": "address",
          "name": "from",
          "type": "address"
        },
        {
          "internalType": "address",
          "name": "to",
          "type": "address"
        },
        {
          "components": [
            {
              "internalType": "enum SignedMultiGiveawayBase.TokenType",
              "name": "tokenType",
              "type": "uint8"
            },
            {
              "internalType": "address",
              "name": "tokenAddress",
              "type": "address"
            },
            {
              "internalType": "bytes",
              "name": "data",
              "type": "bytes"
            }
          ],
          "internalType": "struct SignedMultiGiveawayBase.ClaimEntry[]",
          "name": "claims",
          "type": "tuple[]"
        }
      ],
      "name": "claim",
      "outputs": [],
      "stateMutability": "nonpayable",
      "type": "function"
    },
    {
      "inputs": [],
      "name": "domainSeparator",
      "outputs": [
        {
          "internalType": "bytes32",
          "name": "",
          "type": "bytes32"
        }
      ],
      "stateMutability": "view",
      "type": "function"
    },
    {
      "inputs": [],
      "name": "eip712Domain",
      "outputs": [
        {
          "internalType": "bytes1",
          "name": "fields",
          "type": "bytes1"
        },
        {
          "internalType": "string",
          "name": "name",
          "type": "string"
        },
        {
          "internalType": "string",
          "name": "version",
          "type": "string"
        },
        {
          "internalType": "uint256",
          "name": "chainId",
          "type": "uint256"
        },
        {
          "internalType": "address",
          "name": "verifyingContract",
          "type": "address"
        },
        {
          "internalType": "bytes32",
          "name": "salt",
          "type": "bytes32"
        },
        {
          "internalType": "uint256[]",
          "name": "extensions",
          "type": "uint256[]"
        }
      ],
      "stateMutability": "view",
      "type": "function"
    },
    {
      "inputs": [],
      "name": "getMaxClaimEntries",
      "outputs": [
        {
          "internalType": "uint128",
          "name": "",
          "type": "uint128"
        }
      ],
      "stateMutability": "view",
      "type": "function"
    },
    {
      "inputs": [
        {
          "internalType": "address",
          "name": "token",
          "type": "address"
        },
        {
          "internalType": "uint256",
          "name": "tokenId",
          "type": "uint256"
        }
      ],
      "name": "getMaxWeiPerClaim",
      "outputs": [
        {
          "internalType": "uint256",
          "name": "",
          "type": "uint256"
        }
      ],
      "stateMutability": "view",
      "type": "function"
    },
    {
      "inputs": [],
      "name": "getNumberOfSignaturesNeeded",
      "outputs": [
        {
          "internalType": "uint128",
          "name": "",
          "type": "uint128"
        }
      ],
      "stateMutability": "view",
      "type": "function"
    },
    {
      "inputs": [
        {
          "internalType": "bytes32",
          "name": "role",
          "type": "bytes32"
        }
      ],
      "name": "getRoleAdmin",
      "outputs": [
        {
          "internalType": "bytes32",
          "name": "",
          "type": "bytes32"
        }
      ],
      "stateMutability": "view",
      "type": "function"
    },
    {
      "inputs": [
        {
          "internalType": "bytes32",
          "name": "role",
          "type": "bytes32"
        },
        {
          "internalType": "uint256",
          "name": "index",
          "type": "uint256"
        }
      ],
      "name": "getRoleMember",
      "outputs": [
        {
          "internalType": "address",
          "name": "",
          "type": "address"
        }
      ],
      "stateMutability": "view",
      "type": "function"
    },
    {
      "inputs": [
        {
          "internalType": "bytes32",
          "name": "role",
          "type": "bytes32"
        }
      ],
      "name": "getRoleMemberCount",
      "outputs": [
        {
          "internalType": "uint256",
          "name": "",
          "type": "uint256"
        }
      ],
      "stateMutability": "view",
      "type": "function"
    },
    {
      "inputs": [],
      "name": "getTrustedForwarder",
      "outputs": [
        {
          "internalType": "address",
          "name": "",
          "type": "address"
        }
      ],
      "stateMutability": "view",
      "type": "function"
    },
    {
      "inputs": [
        {
          "internalType": "bytes32",
          "name": "role",
          "type": "bytes32"
        },
        {
          "internalType": "address",
          "name": "account",
          "type": "address"
        }
      ],
      "name": "grantRole",
      "outputs": [],
      "stateMutability": "nonpayable",
      "type": "function"
    },
    {
      "inputs": [
        {
          "internalType": "bytes32",
          "name": "role",
          "type": "bytes32"
        },
        {
          "internalType": "address",
          "name": "account",
          "type": "address"
        }
      ],
      "name": "hasRole",
      "outputs": [
        {
          "internalType": "bool",
          "name": "",
          "type": "bool"
        }
      ],
      "stateMutability": "view",
      "type": "function"
    },
    {
      "inputs": [
        {
          "internalType": "address",
          "name": "trustedForwarder_",
          "type": "address"
        },
        {
          "internalType": "address",
          "name": "admin_",
          "type": "address"
        }
      ],
      "name": "initialize",
      "outputs": [],
      "stateMutability": "nonpayable",
      "type": "function"
    },
    {
      "inputs": [
        {
          "internalType": "uint256",
          "name": "claimId",
          "type": "uint256"
        }
      ],
      "name": "isClaimed",
      "outputs": [
        {
          "internalType": "bool",
          "name": "",
          "type": "bool"
        }
      ],
      "stateMutability": "view",
      "type": "function"
    },
    {
      "inputs": [
        {
          "internalType": "address",
          "name": "forwarder",
          "type": "address"
        }
      ],
      "name": "isTrustedForwarder",
      "outputs": [
        {
          "internalType": "bool",
          "name": "",
          "type": "bool"
        }
      ],
      "stateMutability": "view",
      "type": "function"
    },
    {
      "inputs": [
        {
          "internalType": "address",
          "name": "",
          "type": "address"
        },
        {
          "internalType": "address",
          "name": "",
          "type": "address"
        },
        {
          "internalType": "uint256[]",
          "name": "",
          "type": "uint256[]"
        },
        {
          "internalType": "uint256[]",
          "name": "",
          "type": "uint256[]"
        },
        {
          "internalType": "bytes",
          "name": "",
          "type": "bytes"
        }
      ],
      "name": "onERC1155BatchReceived",
      "outputs": [
        {
          "internalType": "bytes4",
          "name": "",
          "type": "bytes4"
        }
      ],
      "stateMutability": "nonpayable",
      "type": "function"
    },
    {
      "inputs": [
        {
          "internalType": "address",
          "name": "",
          "type": "address"
        },
        {
          "internalType": "address",
          "name": "",
          "type": "address"
        },
        {
          "internalType": "uint256",
          "name": "",
          "type": "uint256"
        },
        {
          "internalType": "uint256",
          "name": "",
          "type": "uint256"
        },
        {
          "internalType": "bytes",
          "name": "",
          "type": "bytes"
        }
      ],
      "name": "onERC1155Received",
      "outputs": [
        {
          "internalType": "bytes4",
          "name": "",
          "type": "bytes4"
        }
      ],
      "stateMutability": "nonpayable",
      "type": "function"
    },
    {
      "inputs": [
        {
          "internalType": "address",
          "name": "",
          "type": "address"
        },
        {
          "internalType": "address",
          "name": "",
          "type": "address"
        },
        {
          "internalType": "uint256",
          "name": "",
          "type": "uint256"
        },
        {
          "internalType": "bytes",
          "name": "",
          "type": "bytes"
        }
      ],
      "name": "onERC721Received",
      "outputs": [
        {
          "internalType": "bytes4",
          "name": "",
          "type": "bytes4"
        }
      ],
      "stateMutability": "nonpayable",
      "type": "function"
    },
    {
      "inputs": [],
      "name": "pause",
      "outputs": [],
      "stateMutability": "nonpayable",
      "type": "function"
    },
    {
      "inputs": [],
      "name": "paused",
      "outputs": [
        {
          "internalType": "bool",
          "name": "",
          "type": "bool"
        }
      ],
      "stateMutability": "view",
      "type": "function"
    },
    {
      "inputs": [
        {
          "internalType": "address",
          "name": "to",
          "type": "address"
        },
        {
          "components": [
            {
              "internalType": "enum SignedMultiGiveawayBase.TokenType",
              "name": "tokenType",
              "type": "uint8"
            },
            {
              "internalType": "address",
              "name": "tokenAddress",
              "type": "address"
            },
            {
              "internalType": "bytes",
              "name": "data",
              "type": "bytes"
            }
          ],
          "internalType": "struct SignedMultiGiveawayBase.ClaimEntry[]",
          "name": "claims",
          "type": "tuple[]"
        }
      ],
      "name": "recoverAssets",
      "outputs": [],
      "stateMutability": "nonpayable",
      "type": "function"
    },
    {
      "inputs": [
        {
          "internalType": "bytes32",
          "name": "role",
          "type": "bytes32"
        },
        {
          "internalType": "address",
          "name": "account",
          "type": "address"
        }
      ],
      "name": "renounceRole",
      "outputs": [],
      "stateMutability": "nonpayable",
      "type": "function"
    },
    {
      "inputs": [
        {
          "internalType": "uint256[]",
          "name": "claimIds",
          "type": "uint256[]"
        }
      ],
      "name": "revokeClaims",
      "outputs": [],
      "stateMutability": "nonpayable",
      "type": "function"
    },
    {
      "inputs": [
        {
          "internalType": "bytes32",
          "name": "role",
          "type": "bytes32"
        },
        {
          "internalType": "address",
          "name": "account",
          "type": "address"
        }
      ],
      "name": "revokeRole",
      "outputs": [],
      "stateMutability": "nonpayable",
      "type": "function"
    },
    {
      "inputs": [
        {
          "internalType": "uint128",
          "name": "maxClaimEntries",
          "type": "uint128"
        }
      ],
      "name": "setMaxClaimEntries",
      "outputs": [],
      "stateMutability": "nonpayable",
      "type": "function"
    },
    {
      "inputs": [
        {
          "internalType": "address",
          "name": "token",
          "type": "address"
        },
        {
          "internalType": "uint256",
          "name": "tokenId",
          "type": "uint256"
        },
        {
          "internalType": "uint256",
          "name": "maxWeiPerClaim",
          "type": "uint256"
        }
      ],
      "name": "setMaxWeiPerClaim",
      "outputs": [],
      "stateMutability": "nonpayable",
      "type": "function"
    },
    {
      "inputs": [
        {
          "internalType": "uint128",
          "name": "numberOfSignaturesNeeded",
          "type": "uint128"
        }
      ],
      "name": "setNumberOfSignaturesNeeded",
      "outputs": [],
      "stateMutability": "nonpayable",
      "type": "function"
    },
    {
      "inputs": [
        {
          "internalType": "address",
          "name": "newForwarder",
          "type": "address"
        }
      ],
      "name": "setTrustedForwarder",
      "outputs": [],
      "stateMutability": "nonpayable",
      "type": "function"
    },
    {
      "inputs": [
        {
          "internalType": "bytes4",
          "name": "interfaceId",
          "type": "bytes4"
        }
      ],
      "name": "supportsInterface",
      "outputs": [
        {
          "internalType": "bool",
          "name": "",
          "type": "bool"
        }
      ],
      "stateMutability": "view",
      "type": "function"
    },
    {
      "inputs": [],
      "name": "trustedForwarder",
      "outputs": [
        {
          "internalType": "address",
          "name": "",
          "type": "address"
        }
      ],
      "stateMutability": "view",
      "type": "function"
    },
    {
      "inputs": [],
      "name": "unpause",
      "outputs": [],
      "stateMutability": "nonpayable",
      "type": "function"
    },
    {
      "inputs": [
        {
          "components": [
            {
              "internalType": "uint8",
              "name": "v",
              "type": "uint8"
            },
            {
              "internalType": "bytes32",
              "name": "r",
              "type": "bytes32"
            },
            {
              "internalType": "bytes32",
              "name": "s",
              "type": "bytes32"
            }
          ],
          "internalType": "struct SignedMultiGiveawayBase.Signature",
          "name": "sig",
          "type": "tuple"
        },
        {
          "internalType": "uint256[]",
          "name": "claimIds",
          "type": "uint256[]"
        },
        {
          "internalType": "uint256",
          "name": "expiration",
          "type": "uint256"
        },
        {
          "internalType": "address",
          "name": "from",
          "type": "address"
        },
        {
          "internalType": "address",
          "name": "to",
          "type": "address"
        },
        {
          "components": [
            {
              "internalType": "enum SignedMultiGiveawayBase.TokenType",
              "name": "tokenType",
              "type": "uint8"
            },
            {
              "internalType": "address",
              "name": "tokenAddress",
              "type": "address"
            },
            {
              "internalType": "bytes",
              "name": "data",
              "type": "bytes"
            }
          ],
          "internalType": "struct SignedMultiGiveawayBase.ClaimEntry[]",
          "name": "claims",
          "type": "tuple[]"
        }
      ],
      "name": "verifySignature",
      "outputs": [
        {
          "internalType": "address",
          "name": "",
          "type": "address"
        }
      ],
      "stateMutability": "view",
      "type": "function"
    }
  ],
  "transactionHash": "0xa33f52a6131e0356dd20eef5ce9fa6d88bb4d2af6a00fb0e6e153b2eb7ce8df4",
  "args": [],
  "numDeployments": 1,
  "solcInputHash": "cd1335c00fcad6b6ea8e743b67515779",
  "bytecode": "0x60806040523480156200001157600080fd5b506200001c62000022565b620000e3565b600054610100900460ff16156200008f5760405162461bcd60e51b815260206004820152602760248201527f496e697469616c697a61626c653a20636f6e747261637420697320696e697469604482015266616c697a696e6760c81b606482015260840160405180910390fd5b60005460ff90811614620000e1576000805460ff191660ff9081179091556040519081527f7f26b83ff96e1f2b6a682f133852f6798a09c465da95921460cefb38474024989060200160405180910390a15b565b61462380620000f36000396000f3fe608060405234801561001057600080fd5b50600436106102c85760003560e01c806391d148541161017b578063ce1b815f116100d8578063e4564c5b1161008c578063f23a6e6111610071578063f23a6e61146106d5578063f698da251461070d578063ffa1ad741461071557600080fd5b8063e4564c5b146106af578063e5dac0d0146106c257600080fd5b8063da742228116100bd578063da74222814610681578063dbbac9cc14610694578063e09996321461069c57600080fd5b8063ce1b815f14610492578063d547741f1461066e57600080fd5b8063aa5a047d1161012f578063bc197c8111610114578063bc197c8114610610578063bec7470414610648578063ca15c8731461065b57600080fd5b8063aa5a047d146105b2578063ba94ec0d146105e957600080fd5b8063a1ebf35d11610160578063a1ebf35d1461053a578063a217fddf14610561578063a3f4df7e1461056957600080fd5b806391d14854146104ee5780639e34070f1461052757600080fd5b8063485cc955116102295780636b0509b1116101dd5780638456cb59116101c25780638456cb59146104b857806384b0196e146104c05780639010d07c146104db57600080fd5b80636b0509b11461046b5780637da0a8771461049257600080fd5b8063572b6c051161020e578063572b6c05146104255780635c975abb146104385780636406156d1461044457600080fd5b8063485cc955146103ff5780634ac48bc11461041257600080fd5b80632ed5c3a71161028057806336568abe1161026557806336568abe146103c45780633f4ba83a146103d75780634423c4bc146103df57600080fd5b80632ed5c3a71461039e5780632f2ff15d146103b157600080fd5b8063248a9ca3116102b1578063248a9ca3146103455780632b31cf6f146103765780632bea1a5d1461038b57600080fd5b806301ffc9a7146102cd578063150b7a02146102f5575b600080fd5b6102e06102db3660046135b0565b610751565b60405190151581526020015b60405180910390f35b61032c6103033660046136ad565b7f150b7a0200000000000000000000000000000000000000000000000000000000949350505050565b6040516001600160e01b031990911681526020016102ec565b610368610353366004613715565b60009081526099602052604090206001015490565b6040519081526020016102ec565b61038961038436600461372e565b610795565b005b6103896103993660046137ad565b6108b7565b6103896103ac366004613800565b610962565b6103896103bf366004613829565b610ab2565b6103896103d2366004613829565b610adc565b610389610b78565b6103e7610bc8565b6040516001600160801b0390911681526020016102ec565b61038961040d366004613855565b610bfc565b61038961042036600461387f565b610e07565b6102e06104333660046138c1565b610fed565b61012f5460ff166102e0565b6103687fbad44f0a50067ec87af9a5b7fab5db1703477a5f928ef7b9d60d5ea00779e31281565b6103687f5309dad0596943facd0c04489c6b6af73ba4da3a90ae65622eaccbffe4bd48ad81565b610161546001600160a01b03165b6040516001600160a01b0390911681526020016102ec565b610389611008565b6104c8611088565b6040516102ec9796959493929190613967565b6104a06104e93660046139e3565b61114a565b6102e06104fc366004613829565b60009182526099602090815260408084206001600160a01b0393909316845291905290205460ff1690565b6102e0610535366004613715565b611169565b6103687fe2f4eaae4a9751e85a3e4a7b9587827a877f29914755229b07a7b2da98285f7081565b610368600081565b6105a56040518060400160405280601b81526020017f53616e64626f78205369676e65644d756c74694769766561776179000000000081525081565b6040516102ec9190613a05565b6103686105c0366004613a18565b6001600160a01b0391909116600090815261022a60209081526040808320938352929052205490565b6103687f4241d2f5c82a591aa6083c014f07cbb4e03d44fb469d97b7c58188f95b6e20df81565b61032c61061e366004613ac2565b7fbc197c810000000000000000000000000000000000000000000000000000000095945050505050565b610389610656366004613b6c565b611180565b610368610669366004613715565b611234565b61038961067c366004613829565b61124b565b61038961068f3660046138c1565b611270565b6103e76112c2565b6103896106aa366004613800565b6112dd565b6104a06106bd366004613c64565b611424565b6103896106d036600461387f565b611443565b61032c6106e3366004613d1b565b7ff23a6e610000000000000000000000000000000000000000000000000000000095945050505050565b610368611513565b6105a56040518060400160405280600381526020017f312e30000000000000000000000000000000000000000000000000000000000081525081565b60006001600160e01b031982167f150b7a0200000000000000000000000000000000000000000000000000000000148061078f575061078f8261151d565b92915050565b6107a260006104fc61155b565b6107e05760405162461bcd60e51b815260206004820152600a60248201526937b7363c9030b236b4b760b11b60448201526064015b60405180910390fd5b6001600160a01b0383166108365760405162461bcd60e51b815260206004820152601560248201527f696e76616c696420746f6b656e2061646472657373000000000000000000000060448201526064016107d7565b6001600160a01b038316600090815261022a60209081526040808320858452909152902081905561086561155b565b6001600160a01b031682846001600160a01b03167f3d2337e631055356416a7e2b68aa5cbda587d1d414471eafe64613aaeb196830846040516108aa91815260200190565b60405180910390a4505050565b6108c460006104fc61155b565b6108fd5760405162461bcd60e51b815260206004820152600a60248201526937b7363c9030b236b4b760b11b60448201526064016107d7565b61090930848484611565565b61091161155b565b6001600160a01b0316836001600160a01b03167f0c952c453c26841a145ea8ce492bffda58895756bf5232e879e4fd002fc937f08484604051610955929190613ebc565b60405180910390a3505050565b61096f60006104fc61155b565b6109a85760405162461bcd60e51b815260206004820152600a60248201526937b7363c9030b236b4b760b11b60448201526064016107d7565b6000816001600160801b031611610a015760405162461bcd60e51b815260206004820181905260248201527f696e76616c6964206e756d6265724f665369676e6174757265734e656564656460448201526064016107d7565b6040518060400160405280600183610a199190613eee565b6001600160801b03908116825261022980547001000000000000000000000000000000009081900483166020948501528451949093015182169092029216919091179055610a6561155b565b6040516001600160801b03831681526001600160a01b0391909116907f0ab7ca3f7259ad2cd01b812b09a8523ae7f3949dd49d79943ab49cc863a0b1dc906020015b60405180910390a250565b600082815260996020526040902060010154610acd8161163e565b610ad7838361164f565b505050565b610ae461155b565b6001600160a01b0316816001600160a01b031614610b6a5760405162461bcd60e51b815260206004820152602f60248201527f416363657373436f6e74726f6c3a2063616e206f6e6c792072656e6f756e636560448201527f20726f6c657320666f722073656c66000000000000000000000000000000000060648201526084016107d7565b610b748282611671565b5050565b610b8560006104fc61155b565b610bbe5760405162461bcd60e51b815260206004820152600a60248201526937b7363c9030b236b4b760b11b60448201526064016107d7565b610bc6611693565b565b61022954600090610bf79070010000000000000000000000000000000090046001600160801b03166001613f0e565b905090565b600054610100900460ff1615808015610c1c5750600054600160ff909116105b80610c365750303b158015610c36575060005460ff166001145b610ca85760405162461bcd60e51b815260206004820152602e60248201527f496e697469616c697a61626c653a20636f6e747261637420697320616c72656160448201527f647920696e697469616c697a656400000000000000000000000000000000000060648201526084016107d7565b6000805460ff191660011790558015610ccb576000805461ff0019166101001790555b610cd36116ec565b610cdb6116ec565b610ce36116ec565b610ceb6116ec565b610cf36116ec565b610cfb6116ec565b610d036116ec565b610d776040518060400160405280601b81526020017f53616e64626f78205369676e65644d756c7469476976656177617900000000008152506040518060400160405280600381526020017f312e300000000000000000000000000000000000000000000000000000000000815250611769565b610d7f61180e565b610d88836112b6565b610d9360008361164f565b610dbd7fbad44f0a50067ec87af9a5b7fab5db1703477a5f928ef7b9d60d5ea00779e3128361164f565b8015610ad7576000805461ff0019169055604051600181527f7f26b83ff96e1f2b6a682f133852f6798a09c465da95921460cefb38474024989060200160405180910390a1505050565b610e0f611898565b8080610e5d5760405162461bcd60e51b815260206004820152600b60248201527f696e76616c6964206c656e00000000000000000000000000000000000000000060448201526064016107d7565b6000610e6761155b565b905060005b82811015610fe65736858583818110610e8757610e87613f2e565b9050602002810190610e999190613f44565b61022954909150610f0f90610eb8906001600160801b03166001613f0e565b6001600160801b0316610ecb8380613f82565b610ed86020860186613fcb565b6040870135610eed6080890160608a016138c1565b610efd60a08a0160808b016138c1565b610f0a60a08b018b613fcb565b6118ec565b610f44610f2260808301606084016138c1565b610f3260a08401608085016138c1565b610f3f60a0850185613fcb565b611565565b6001600160a01b038316610f5e60a08301608084016138c1565b6001600160a01b0316610f7760808401606085016138c1565b6001600160a01b03167f4278f7ab15af8a4b7476f4befef9127b34c4b35bf06d232d050f051fb06830b3610fae6020860186613fcb565b610fbb60a0880188613fcb565b604051610fcb9493929190614060565b60405180910390a45080610fde81614087565b915050610e6c565b5050505050565b600061078f82610161546001600160a01b0391821691161490565b6110347fbad44f0a50067ec87af9a5b7fab5db1703477a5f928ef7b9d60d5ea00779e3126104fc61155b565b6110805760405162461bcd60e51b815260206004820152600f60248201527f6f6e6c79206261636b6f6666696365000000000000000000000000000000000060448201526064016107d7565b610bc6611a50565b6000606080600080600060606001546000801b1480156110a85750600254155b6110f45760405162461bcd60e51b815260206004820152601560248201527f4549503731323a20556e696e697469616c697a6564000000000000000000000060448201526064016107d7565b6110fc611a8f565b611104611b21565b604080516000808252602082019092527f0f000000000000000000000000000000000000000000000000000000000000009b939a50919850469750309650945092509050565b600082815260cb602052604081206111629083611b30565b9392505050565b600081815260fd602052604081205460ff1661078f565b611188611898565b610229546111bb906111a4906001600160801b03166001613f0e565b6001600160801b03168a8a8a8a8a8a8a8a8a6118ec565b6111c784848484611565565b6111cf61155b565b6001600160a01b0316836001600160a01b0316856001600160a01b03167f4278f7ab15af8a4b7476f4befef9127b34c4b35bf06d232d050f051fb06830b38a8a87876040516112219493929190614060565b60405180910390a4505050505050505050565b600081815260cb6020526040812061078f90611b3c565b6000828152609960205260409020600101546112668161163e565b610ad78383611671565b61127d60006104fc61155b565b6112b65760405162461bcd60e51b815260206004820152600a60248201526937b7363c9030b236b4b760b11b60448201526064016107d7565b6112bf81611b46565b50565b61022954600090610bf7906001600160801b03166001613f0e565b6112ea60006104fc61155b565b6113235760405162461bcd60e51b815260206004820152600a60248201526937b7363c9030b236b4b760b11b60448201526064016107d7565b6000816001600160801b03161161137c5760405162461bcd60e51b815260206004820152601760248201527f696e76616c6964206d6178436c61696d456e747269657300000000000000000060448201526064016107d7565b60408051808201909152610229546001600160801b03168152602081016113a4600184613eee565b6001600160801b039081169091528151602090920151811670010000000000000000000000000000000002911617610229556113de61155b565b6040516001600160801b03831681526001600160a01b0391909116907f6297716b941fbe18f8793ae3979c2a38deb20d89e714b1116910ffddccb2218190602001610aa7565b60006114368989898989898989611bc8565b9998505050505050505050565b61146f7fbad44f0a50067ec87af9a5b7fab5db1703477a5f928ef7b9d60d5ea00779e3126104fc61155b565b6114bb5760405162461bcd60e51b815260206004820152600f60248201527f6f6e6c79206261636b6f6666696365000000000000000000000000000000000060448201526064016107d7565b6114c58282611bf4565b6114cd61155b565b6001600160a01b03167fac4964ddef258f8eb25b20154b034af9c697c0f338c863a9d06a24d7bbec7d4183836040516115079291906140a1565b60405180910390a25050565b6000610bf7611c56565b60006001600160e01b031982167f4e2312e000000000000000000000000000000000000000000000000000000000148061078f575061078f82611c60565b6000610bf7611c9e565b6102295481906115939070010000000000000000000000000000000090046001600160801b03166001613f0e565b6001600160801b03168111156115eb5760405162461bcd60e51b815260206004820152600f60248201527f746f6f206d616e7920636c61696d73000000000000000000000000000000000060448201526064016107d7565b60005b8181101561163657611624868686868581811061160d5761160d613f2e565b905060200281019061161f91906140b5565b611cf2565b8061162e81614087565b9150506115ee565b505050505050565b6112bf8161164a61155b565b611e8a565b6116598282611eff565b600082815260cb60205260409020610ad79082611fa2565b61167b8282611fb7565b600082815260cb60205260409020610ad79082612058565b61169b61206d565b61012f805460ff191690557f5db9ee0a495bf2e6ff9c91a7834c1ba4fdd244a5e8aa4e537bd38aeae4b073aa6116cf61155b565b6040516001600160a01b03909116815260200160405180910390a1565b600054610100900460ff16610bc65760405162461bcd60e51b815260206004820152602b60248201527f496e697469616c697a61626c653a20636f6e7472616374206973206e6f74206960448201527f6e697469616c697a696e6700000000000000000000000000000000000000000060648201526084016107d7565b600054610100900460ff166117e65760405162461bcd60e51b815260206004820152602b60248201527f496e697469616c697a61626c653a20636f6e7472616374206973206e6f74206960448201527f6e697469616c697a696e6700000000000000000000000000000000000000000060648201526084016107d7565b60036117f2838261414b565b5060046117ff828261414b565b50506000600181905560025550565b600054610100900460ff1661188b5760405162461bcd60e51b815260206004820152602b60248201527f496e697469616c697a61626c653a20636f6e7472616374206973206e6f74206960448201527f6e697469616c697a696e6700000000000000000000000000000000000000000060648201526084016107d7565b61012f805460ff19169055565b61012f5460ff1615610bc65760405162461bcd60e51b815260206004820152601060248201527f5061757361626c653a207061757365640000000000000000000000000000000060448201526064016107d7565b8415611941578442106119415760405162461bcd60e51b815260206004820152600760248201527f657870697265640000000000000000000000000000000000000000000000000060448201526064016107d7565b60005b86811015611a235760fd600089898481811061196257611962613f2e565b602090810292909201358352508101919091526040016000205460ff16156119cc5760405162461bcd60e51b815260206004820152600f60248201527f616c726561647920636c61696d6564000000000000000000000000000000000060448201526064016107d7565b600160fd60008a8a858181106119e4576119e4613f2e565b90506020020135815260200190815260200160002060006101000a81548160ff0219169083151502179055508080611a1b90614087565b915050611944565b506000611a35888888888888886120c0565b9050611a438b828c8c612154565b5050505050505050505050565b611a58611898565b61012f805460ff191660011790557f62e78cea01bee320cd4e420270b5ea74000d11b0c9f74754ebdbfc544b05a2586116cf61155b565b606060038054611a9e906140cb565b80601f0160208091040260200160405190810160405280929190818152602001828054611aca906140cb565b8015611b175780601f10611aec57610100808354040283529160200191611b17565b820191906000526020600020905b815481529060010190602001808311611afa57829003601f168201915b5050505050905090565b606060048054611a9e906140cb565b600061116283836122d1565b600061078f825490565b611b4e61155b565b610161546040516001600160a01b03928316928481169216907f8ca022029d8ff7ad974913f8970aeed6c5e0e7eaf494a0c5b262249f6b5759e590600090a461016180547fffffffffffffffffffffffff0000000000000000000000000000000000000000166001600160a01b0392909216919091179055565b600080611bda898989898989896120c0565b9050611be6818b6122fb565b9a9950505050505050505050565b60005b81811015610ad757600160fd6000858585818110611c1757611c17613f2e565b90506020020135815260200190815260200160002060006101000a81548160ff0219169083151502179055508080611c4e90614087565b915050611bf7565b6000610bf761231d565b60006001600160e01b031982167f5a05180f00000000000000000000000000000000000000000000000000000000148061078f575061078f82612391565b610161546000906001600160a01b031633148015611cbd575060143610155b15611ced57507fffffffffffffffffffffffffffffffffffffffffffffffffffffffffffffffec36013560601c90565b503390565b6001611d01602083018361420b565b6007811115611d1257611d12613d8f565b03611d2257610ad78383836123f8565b6002611d31602083018361420b565b6007811115611d4257611d42613d8f565b03611d5257610ad7838383612626565b6003611d61602083018361420b565b6007811115611d7257611d72613d8f565b03611d8257610ad7838383612713565b6004611d91602083018361420b565b6007811115611da257611da2613d8f565b03611db257610ad7838383612833565b6005611dc1602083018361420b565b6007811115611dd257611dd2613d8f565b03611de257610ad78383836128eb565b6006611df1602083018361420b565b6007811115611e0257611e02613d8f565b03611e1257610ad7838383612a02565b6007611e21602083018361420b565b6007811115611e3257611e32613d8f565b03611e4257610ad7838383612ae5565b60405162461bcd60e51b815260206004820152601260248201527f696e76616c696420746f6b656e2074797065000000000000000000000000000060448201526064016107d7565b60008281526099602090815260408083206001600160a01b038516845290915290205460ff16610b7457611ebd81612ccc565b611ec8836020612cde565b604051602001611ed9929190614226565b60408051601f198184030181529082905262461bcd60e51b82526107d791600401613a05565b60008281526099602090815260408083206001600160a01b038516845290915290205460ff16610b745760008281526099602090815260408083206001600160a01b03851684529091529020805460ff19166001179055611f5e61155b565b6001600160a01b0316816001600160a01b0316837f2f8788117e7eff1d82e926ec794901d17c78024a50270940304540a733656f0d60405160405180910390a45050565b6000611162836001600160a01b038416612f07565b60008281526099602090815260408083206001600160a01b038516845290915290205460ff1615610b745760008281526099602090815260408083206001600160a01b03851684529091529020805460ff1916905561201461155b565b6001600160a01b0316816001600160a01b0316837ff6391f5c32d9c69d2a47ea670b442974b53935d1edc7fd64eb21e047a839171b60405160405180910390a45050565b6000611162836001600160a01b038416612f56565b61012f5460ff16610bc65760405162461bcd60e51b815260206004820152601460248201527f5061757361626c653a206e6f742070617573656400000000000000000000000060448201526064016107d7565b6000807f5309dad0596943facd0c04489c6b6af73ba4da3a90ae65622eaccbffe4bd48ad6120ee8a8a613050565b8888886120fb8989613083565b60408051602081019790975286019490945260608501929092526001600160a01b0390811660808501521660a083015260c082015260e001604051602081830303815290604052805190602001209050611436816131e5565b8381146121a35760405162461bcd60e51b815260206004820152601a60248201527f77726f6e67206e756d626572206f66207369676e61747572657300000000000060448201526064016107d7565b6000805b858110156116365760006121d2868686858181106121c7576121c7613f2e565b9050606002016122fb565b6001600160a01b03811660009081527f181d328678494424de2249b3fb7cc4dad207fe52295cd59bda8681ae33c4f4ed602052604090205490915060ff1661225c5760405162461bcd60e51b815260206004820152600e60248201527f696e76616c6964207369676e657200000000000000000000000000000000000060448201526064016107d7565b806001600160a01b0316836001600160a01b0316106122bd5760405162461bcd60e51b815260206004820152600d60248201527f696e76616c6964206f726465720000000000000000000000000000000000000060448201526064016107d7565b9150806122c981614087565b9150506121a7565b60008260000182815481106122e8576122e8613f2e565b9060005260206000200154905092915050565b60006111628361230e60208501856142a7565b8460200135856040013561322d565b60007f8b73c3c69bb8fe3d512ecc4cf759cc79239f7b179b0ffacaa9a75d522b39400f612348613255565b6123506132ae565b60408051602081019490945283019190915260608201524660808201523060a082015260c00160405160208183030381529060405280519060200120905090565b60006001600160e01b031982167f7965db0b00000000000000000000000000000000000000000000000000000000148061078f57507f01ffc9a7000000000000000000000000000000000000000000000000000000006001600160e01b031983161461078f565b600061240a60408301602084016138c1565b9050600061241b60408401846142ca565b8101906124289190613715565b6001600160a01b038316600090815261022a60209081526040808320838052909152902090915061245990826132df565b306001600160a01b03861603612546576040517fa9059cbb0000000000000000000000000000000000000000000000000000000081526001600160a01b0385811660048301526024820183905283169063a9059cbb906044016020604051808303816000875af11580156124d1573d6000803e3d6000fd5b505050506040513d601f19601f820116820180604052508101906124f59190614311565b6125415760405162461bcd60e51b815260206004820152600f60248201527f7472616e73666572206661696c6564000000000000000000000000000000000060448201526064016107d7565b610fe6565b6040517f23b872dd0000000000000000000000000000000000000000000000000000000081526001600160a01b0386811660048301528581166024830152604482018390528316906323b872dd906064016020604051808303816000875af11580156125b6573d6000803e3d6000fd5b505050506040513d601f19601f820116820180604052508101906125da9190614311565b610fe65760405162461bcd60e51b815260206004820152600f60248201527f7472616e73666572206661696c6564000000000000000000000000000000000060448201526064016107d7565b600061263860408301602084016138c1565b9050600061264960408401846142ca565b8101906126569190613715565b6001600160a01b038316600090815261022a6020908152604080832083805290915290209091506126889060016132df565b6040517f23b872dd0000000000000000000000000000000000000000000000000000000081526001600160a01b0386811660048301528581166024830152604482018390528316906323b872dd906064015b600060405180830381600087803b1580156126f457600080fd5b505af1158015612708573d6000803e3d6000fd5b505050505050505050565b600061272560408301602084016138c1565b9050600061273660408401846142ca565b8101906127439190614333565b80516001600160a01b038416600090815261022a6020908152604080832083805290915290209192509061277790826132df565b60005b8181101561282a57836001600160a01b03166323b872dd88888685815181106127a5576127a5613f2e565b60209081029190910101516040516001600160e01b031960e086901b1681526001600160a01b0393841660048201529290911660248301526044820152606401600060405180830381600087803b1580156127ff57600080fd5b505af1158015612813573d6000803e3d6000fd5b50505050808061282290614087565b91505061277a565b50505050505050565b600061284560408301602084016138c1565b9050600061285660408401846142ca565b8101906128639190613715565b6001600160a01b038316600090815261022a6020908152604080832083805290915290209091506128959060016132df565b6040517f42842e0e0000000000000000000000000000000000000000000000000000000081526001600160a01b0386811660048301528581166024830152604482018390528316906342842e0e906064016126da565b60006128fd60408301602084016138c1565b9050600061290e60408401846142ca565b81019061291b9190614333565b80516001600160a01b038416600090815261022a6020908152604080832083805290915290209192509061294f90826132df565b60005b8181101561282a57836001600160a01b03166342842e0e888886858151811061297d5761297d613f2e565b60209081029190910101516040516001600160e01b031960e086901b1681526001600160a01b0393841660048201529290911660248301526044820152606401600060405180830381600087803b1580156129d757600080fd5b505af11580156129eb573d6000803e3d6000fd5b5050505080806129fa90614087565b915050612952565b6000612a1460408301602084016138c1565b905060008080612a2760408601866142ca565b810190612a349190614368565b6001600160a01b038716600090815261022a6020908152604080832086845290915290209295509093509150612a6a90836132df565b6040517ff242432a0000000000000000000000000000000000000000000000000000000081526001600160a01b0385169063f242432a90612ab7908a908a908890889088906004016143b8565b600060405180830381600087803b158015612ad157600080fd5b505af1158015611a43573d6000803e3d6000fd5b6000612af760408301602084016138c1565b905060008080612b0a60408601866142ca565b810190612b1791906143f0565b8251929550909350915080612b6e5760405162461bcd60e51b815260206004820152601060248201527f696e76616c69642064617461206c656e0000000000000000000000000000000060448201526064016107d7565b82518114612bbe5760405162461bcd60e51b815260206004820152600c60248201527f696e76616c69642064617461000000000000000000000000000000000000000060448201526064016107d7565b60005b81811015612c42576001600160a01b038616600090815261022a602052604081208651612c309290889085908110612bfb57612bfb613f2e565b60200260200101518152602001908152602001600020858381518110612c2357612c23613f2e565b60200260200101516132df565b80612c3a81614087565b915050612bc1565b506040517f2eb2c2d60000000000000000000000000000000000000000000000000000000081526001600160a01b03861690632eb2c2d690612c90908b908b9089908990899060040161446e565b600060405180830381600087803b158015612caa57600080fd5b505af1158015612cbe573d6000803e3d6000fd5b505050505050505050505050565b606061078f6001600160a01b03831660145b60606000612ced8360026144cc565b612cf89060026144e3565b67ffffffffffffffff811115612d1057612d106135f6565b6040519080825280601f01601f191660200182016040528015612d3a576020820181803683370190505b5090507f300000000000000000000000000000000000000000000000000000000000000081600081518110612d7157612d71613f2e565b60200101907effffffffffffffffffffffffffffffffffffffffffffffffffffffffffffff1916908160001a9053507f780000000000000000000000000000000000000000000000000000000000000081600181518110612dd457612dd4613f2e565b60200101907effffffffffffffffffffffffffffffffffffffffffffffffffffffffffffff1916908160001a9053506000612e108460026144cc565b612e1b9060016144e3565b90505b6001811115612eb8577f303132333435363738396162636465660000000000000000000000000000000085600f1660108110612e5c57612e5c613f2e565b1a60f81b828281518110612e7257612e72613f2e565b60200101907effffffffffffffffffffffffffffffffffffffffffffffffffffffffffffff1916908160001a90535060049490941c93612eb1816144f6565b9050612e1e565b5083156111625760405162461bcd60e51b815260206004820181905260248201527f537472696e67733a20686578206c656e67746820696e73756666696369656e7460448201526064016107d7565b6000818152600183016020526040812054612f4e5750815460018181018455600084815260208082209093018490558454848252828601909352604090209190915561078f565b50600061078f565b6000818152600183016020526040812054801561303f576000612f7a60018361450d565b8554909150600090612f8e9060019061450d565b9050818114612ff3576000866000018281548110612fae57612fae613f2e565b9060005260206000200154905080876000018481548110612fd157612fd1613f2e565b6000918252602080832090910192909255918252600188019052604090208390555b855486908061300457613004614520565b60019003818190600052602060002001600090559055856001016000868152602001908152602001600020600090556001935050505061078f565b600091505061078f565b5092915050565b60008282604051602001613065929190614536565b60405160208183030381529060405280519060200120905092915050565b6000808267ffffffffffffffff81111561309f5761309f6135f6565b6040519080825280602002602001820160405280156130c8578160200160208202803683370190505b50905060005b838110156131b457368585838181106130e9576130e9613f2e565b90506020028101906130fb91906140b5565b90507f4241d2f5c82a591aa6083c014f07cbb4e03d44fb469d97b7c58188f95b6e20df61312b602083018361420b565b61313b60408401602085016138c1565b61314860408501856142ca565b604051613156929190614578565b60405190819003812061316e94939291602001614588565b6040516020818303038152906040528051906020012083838151811061319657613196613f2e565b602090810291909101015250806131ac81614087565b9150506130ce565b50806040516020016131c691906145b7565b6040516020818303038152906040528051906020012091505092915050565b600061078f6131f2611c56565b836040517f19010000000000000000000000000000000000000000000000000000000000008152600281019290925260228201526042902090565b600080600061323e87878787613387565b9150915061324b8161344b565b5095945050505050565b600080613260611a8f565b805190915015613277578051602090910120919050565b60015480156132865792915050565b7fc5d2460186f7233c927e7db2dcc703c0e500b653ca82273b7bfad8045d85a4709250505090565b6000806132b9611b21565b8051909150156132d0578051602090910120919050565b60025480156132865792915050565b6000811161332f5760405162461bcd60e51b815260206004820152600e60248201527f696e76616c696420616d6f756e7400000000000000000000000000000000000060448201526064016107d7565b815415610b74578154811115610b745760405162461bcd60e51b815260206004820152601c60248201527f636865636b4c696d6974732c20616d6f756e7420746f6f20686967680000000060448201526064016107d7565b6000807f7fffffffffffffffffffffffffffffff5d576e7357a4501ddfe92f46681b20a08311156133be5750600090506003613442565b6040805160008082526020820180845289905260ff881692820192909252606081018690526080810185905260019060a0016020604051602081039080840390855afa158015613412573d6000803e3d6000fd5b5050604051601f1901519150506001600160a01b03811661343b57600060019250925050613442565b9150600090505b94509492505050565b600081600481111561345f5761345f613d8f565b036134675750565b600181600481111561347b5761347b613d8f565b036134c85760405162461bcd60e51b815260206004820152601860248201527f45434453413a20696e76616c6964207369676e6174757265000000000000000060448201526064016107d7565b60028160048111156134dc576134dc613d8f565b036135295760405162461bcd60e51b815260206004820152601f60248201527f45434453413a20696e76616c6964207369676e6174757265206c656e6774680060448201526064016107d7565b600381600481111561353d5761353d613d8f565b036112bf5760405162461bcd60e51b815260206004820152602260248201527f45434453413a20696e76616c6964207369676e6174757265202773272076616c60448201527f756500000000000000000000000000000000000000000000000000000000000060648201526084016107d7565b6000602082840312156135c257600080fd5b81356001600160e01b03198116811461116257600080fd5b80356001600160a01b03811681146135f157600080fd5b919050565b634e487b7160e01b600052604160045260246000fd5b604051601f8201601f1916810167ffffffffffffffff81118282101715613635576136356135f6565b604052919050565b600082601f83011261364e57600080fd5b813567ffffffffffffffff811115613668576136686135f6565b61367b6020601f19601f8401160161360c565b81815284602083860101111561369057600080fd5b816020850160208301376000918101602001919091529392505050565b600080600080608085870312156136c357600080fd5b6136cc856135da565b93506136da602086016135da565b925060408501359150606085013567ffffffffffffffff8111156136fd57600080fd5b6137098782880161363d565b91505092959194509250565b60006020828403121561372757600080fd5b5035919050565b60008060006060848603121561374357600080fd5b61374c846135da565b95602085013595506040909401359392505050565b60008083601f84011261377357600080fd5b50813567ffffffffffffffff81111561378b57600080fd5b6020830191508360208260051b85010111156137a657600080fd5b9250929050565b6000806000604084860312156137c257600080fd5b6137cb846135da565b9250602084013567ffffffffffffffff8111156137e757600080fd5b6137f386828701613761565b9497909650939450505050565b60006020828403121561381257600080fd5b81356001600160801b038116811461116257600080fd5b6000806040838503121561383c57600080fd5b8235915061384c602084016135da565b90509250929050565b6000806040838503121561386857600080fd5b613871836135da565b915061384c602084016135da565b6000806020838503121561389257600080fd5b823567ffffffffffffffff8111156138a957600080fd5b6138b585828601613761565b90969095509350505050565b6000602082840312156138d357600080fd5b611162826135da565b60005b838110156138f75781810151838201526020016138df565b50506000910152565b600081518084526139188160208601602086016138dc565b601f01601f19169290920160200192915050565b600081518084526020808501945080840160005b8381101561395c57815187529582019590820190600101613940565b509495945050505050565b7fff000000000000000000000000000000000000000000000000000000000000008816815260e0602082015260006139a260e0830189613900565b82810360408401526139b48189613900565b90508660608401526001600160a01b03861660808401528460a084015282810360c0840152611be6818561392c565b600080604083850312156139f657600080fd5b50508035926020909101359150565b6020815260006111626020830184613900565b60008060408385031215613a2b57600080fd5b613a34836135da565b946020939093013593505050565b600082601f830112613a5357600080fd5b8135602067ffffffffffffffff821115613a6f57613a6f6135f6565b8160051b613a7e82820161360c565b9283528481018201928281019087851115613a9857600080fd5b83870192505b84831015613ab757823582529183019190830190613a9e565b979650505050505050565b600080600080600060a08688031215613ada57600080fd5b613ae3866135da565b9450613af1602087016135da565b9350604086013567ffffffffffffffff80821115613b0e57600080fd5b613b1a89838a01613a42565b94506060880135915080821115613b3057600080fd5b613b3c89838a01613a42565b93506080880135915080821115613b5257600080fd5b50613b5f8882890161363d565b9150509295509295909350565b600080600080600080600080600060c08a8c031215613b8a57600080fd5b893567ffffffffffffffff80821115613ba257600080fd5b818c0191508c601f830112613bb657600080fd5b813581811115613bc557600080fd5b8d6020606083028501011115613bda57600080fd5b60209283019b509950908b01359080821115613bf557600080fd5b613c018d838e01613761565b909950975060408c01359650879150613c1c60608d016135da565b9550613c2a60808d016135da565b945060a08c0135915080821115613c4057600080fd5b50613c4d8c828d01613761565b915080935050809150509295985092959850929598565b600080600080600080600080888a03610100811215613c8257600080fd5b6060811215613c9057600080fd5b50889750606089013567ffffffffffffffff80821115613caf57600080fd5b613cbb8c838d01613761565b909950975060808b01359650879150613cd660a08c016135da565b9550613ce460c08c016135da565b945060e08b0135915080821115613cfa57600080fd5b50613d078b828c01613761565b999c989b5096995094979396929594505050565b600080600080600060a08688031215613d3357600080fd5b613d3c866135da565b9450613d4a602087016135da565b93506040860135925060608601359150608086013567ffffffffffffffff811115613d7457600080fd5b613b5f8882890161363d565b8035600881106135f157600080fd5b634e487b7160e01b600052602160045260246000fd5b60088110613dc357634e487b7160e01b600052602160045260246000fd5b9052565b81835260006020808501808196508560051b810191508460005b87811015613eaf5782840389528135605e19883603018112613e0257600080fd5b87016060613e1886613e1384613d80565b613da5565b6001600160a01b03613e2b8884016135da565b1687870152604080830135601e19843603018112613e4857600080fd5b90920187810192903567ffffffffffffffff811115613e6657600080fd5b803603841315613e7557600080fd5b82828901528083890152608092508084848a013760008882018401529b88019b601f01601f19169096010194505090840190600101613de1565b5091979650505050505050565b602081526000613ed0602083018486613dc7565b949350505050565b634e487b7160e01b600052601160045260246000fd5b6001600160801b0382811682821603908082111561304957613049613ed8565b6001600160801b0381811683821601908082111561304957613049613ed8565b634e487b7160e01b600052603260045260246000fd5b600082357fffffffffffffffffffffffffffffffffffffffffffffffffffffffffffffff41833603018112613f7857600080fd5b9190910192915050565b6000808335601e19843603018112613f9957600080fd5b83018035915067ffffffffffffffff821115613fb457600080fd5b60200191506060810236038213156137a657600080fd5b6000808335601e19843603018112613fe257600080fd5b83018035915067ffffffffffffffff821115613ffd57600080fd5b6020019150600581901b36038213156137a657600080fd5b81835260007f07ffffffffffffffffffffffffffffffffffffffffffffffffffffffffffffff83111561404757600080fd5b8260051b80836020870137939093016020019392505050565b604081526000614074604083018688614015565b8281036020840152613ab7818587613dc7565b6000600019820361409a5761409a613ed8565b5060010190565b602081526000613ed0602083018486614015565b60008235605e19833603018112613f7857600080fd5b600181811c908216806140df57607f821691505b6020821081036140ff57634e487b7160e01b600052602260045260246000fd5b50919050565b601f821115610ad757600081815260208120601f850160051c8101602086101561412c5750805b601f850160051c820191505b8181101561163657828155600101614138565b815167ffffffffffffffff811115614165576141656135f6565b6141798161417384546140cb565b84614105565b602080601f8311600181146141ae57600084156141965750858301515b600019600386901b1c1916600185901b178555611636565b600085815260208120601f198616915b828110156141dd578886015182559484019460019091019084016141be565b50858210156141fb5787850151600019600388901b60f8161c191681555b5050505050600190811b01905550565b60006020828403121561421d57600080fd5b61116282613d80565b7f416363657373436f6e74726f6c3a206163636f756e742000000000000000000081526000835161425e8160178501602088016138dc565b7f206973206d697373696e6720726f6c6520000000000000000000000000000000601791840191820152835161429b8160288401602088016138dc565b01602801949350505050565b6000602082840312156142b957600080fd5b813560ff8116811461116257600080fd5b6000808335601e198436030181126142e157600080fd5b83018035915067ffffffffffffffff8211156142fc57600080fd5b6020019150368190038213156137a657600080fd5b60006020828403121561432357600080fd5b8151801515811461116257600080fd5b60006020828403121561434557600080fd5b813567ffffffffffffffff81111561435c57600080fd5b613ed084828501613a42565b60008060006060848603121561437d57600080fd5b8335925060208401359150604084013567ffffffffffffffff8111156143a257600080fd5b6143ae8682870161363d565b9150509250925092565b60006001600160a01b03808816835280871660208401525084604083015283606083015260a06080830152613ab760a0830184613900565b60008060006060848603121561440557600080fd5b833567ffffffffffffffff8082111561441d57600080fd5b61442987838801613a42565b9450602086013591508082111561443f57600080fd5b61444b87838801613a42565b9350604086013591508082111561446157600080fd5b506143ae8682870161363d565b60006001600160a01b03808816835280871660208401525060a0604083015261449a60a083018661392c565b82810360608401526144ac818661392c565b905082810360808401526144c08185613900565b98975050505050505050565b808202811582820484141761078f5761078f613ed8565b8082018082111561078f5761078f613ed8565b60008161450557614505613ed8565b506000190190565b8181038181111561078f5761078f613ed8565b634e487b7160e01b600052603160045260246000fd5b60007f07ffffffffffffffffffffffffffffffffffffffffffffffffffffffffffffff83111561456557600080fd5b8260051b80858437919091019392505050565b8183823760009101908152919050565b8481526080810161459c6020830186613da5565b6001600160a01b039390931660408201526060015292915050565b815160009082906020808601845b838110156145e1578151855293820193908201906001016145c5565b5092969550505050505056fea2646970667358221220a5a701e2187e6d097ffd2558a1a4819adbc04fe1ba85eba47411d41fe3691d9464736f6c63430008120033",
  "devdoc": {
    "details": "The whole contract is split in the base one this implementation to facilitate the reading and splitthe signature checking code.This contract supports meta transactions.This contract is final, don't inherit from it.",
    "events": {
      "AssetsRecovered(address,(uint8,address,bytes)[],address)": {
        "params": {
          "claims": "unique claim ids, used by the backend to avoid double spending",
          "operator": "the sender of the transaction",
          "to": "destination user"
        }
      },
      "Claimed(uint256[],address,address,(uint8,address,bytes)[],address)": {
        "params": {
          "claimIds": "unique claim ids, used by the backend to avoid double spending",
          "claims": "list of tokens to do transfer",
          "from": "source user",
          "operator": "the sender of the transaction",
          "to": "destination user"
        }
      },
      "EIP712DomainChanged()": {
        "details": "MAY be emitted to signal that the domain could have changed."
      },
      "Initialized(uint8)": {
        "details": "Triggered when the contract has been initialized or reinitialized."
      },
      "MaxClaimEntriesSet(uint128,address)": {
        "params": {
          "maxClaimEntries": "maximum amount of claim entries per message",
          "operator": "the sender of the transaction"
        }
      },
      "MaxWeiPerClaimSet(address,uint256,uint256,address)": {
        "params": {
          "maxWeiPerClaim": "maximum amount of wei per each individual claim, 0 => check disabled",
          "operator": "the sender of the transaction",
          "token": "address of the token to configure",
          "tokenId": "of the token"
        }
      },
      "NumberOfSignaturesNeededSet(uint128,address)": {
        "params": {
          "numberOfSignaturesNeeded": "amount of valid signatures needed to claim",
          "operator": "the sender of the transaction"
        }
      },
      "Paused(address)": {
        "details": "Emitted when the pause is triggered by `account`."
      },
      "RevokedClaims(uint256[],address)": {
        "params": {
          "claimIds": "unique claim ids, used by the backend to avoid double spending",
          "operator": "the sender of the transaction"
        }
      },
      "RoleAdminChanged(bytes32,bytes32,bytes32)": {
        "details": "Emitted when `newAdminRole` is set as ``role``'s admin role, replacing `previousAdminRole` `DEFAULT_ADMIN_ROLE` is the starting admin for all roles, despite {RoleAdminChanged} not being emitted signaling this. _Available since v3.1._"
      },
      "RoleGranted(bytes32,address,address)": {
        "details": "Emitted when `account` is granted `role`. `sender` is the account that originated the contract call, an admin role bearer except when using {AccessControl-_setupRole}."
      },
      "RoleRevoked(bytes32,address,address)": {
        "details": "Emitted when `account` is revoked `role`. `sender` is the account that originated the contract call:   - if using `revokeRole`, it is the admin role bearer   - if using `renounceRole`, it is the role bearer (i.e. `account`)"
      },
      "TrustedForwarderSet(address,address,address)": {
        "params": {
          "newTrustedForwarder": "new trusted forwarder",
          "oldTrustedForwarder": "old trusted forwarder",
          "operator": "the sender of the transaction"
        }
      },
      "Unpaused(address)": {
        "details": "Emitted when the pause is lifted by `account`."
      }
    },
    "kind": "dev",
    "methods": {
      "batchClaim(((uint8,bytes32,bytes32)[],uint256[],uint256,address,address,(uint8,address,bytes)[])[])": {
        "params": {
          "batch": "an array of args to the claim method"
        }
      },
      "claim((uint8,bytes32,bytes32)[],uint256[],uint256,address,address,(uint8,address,bytes)[])": {
        "params": {
          "claimIds": "unique claim ids, used by the backend to avoid double spending",
          "claims": "list of tokens to do transfer",
          "expiration": "expiration timestamp",
          "from": "source user",
          "sigs": "signature part (v,r,s) the array of signatures M in N of M sigs",
          "to": "destination user"
        }
      },
      "constructor": {
        "custom:oz-upgrades-unsafe-allow": "constructor",
        "details": "this protects the implementation contract from behing initialized."
      },
      "domainSeparator()": {
        "returns": {
          "_0": "the hash of the domain separator"
        }
      },
      "eip712Domain()": {
        "details": "See {EIP-5267}. _Available since v4.9._"
      },
      "getMaxClaimEntries()": {
        "returns": {
          "_0": "Maximum amount of claims per message"
        }
      },
      "getMaxWeiPerClaim(address,uint256)": {
        "details": "even tokenId is kind of inconsistent for tokenType!=ERC1155 it doesn't harm",
        "params": {
          "token": "the token contract address",
          "tokenId": "if ERC1155 the token id else must be zero"
        },
        "returns": {
          "_0": "maximum amount of wei per each individual claim, 0 => check disabled"
        }
      },
      "getNumberOfSignaturesNeeded()": {
        "returns": {
          "_0": "number of signatures needed"
        }
      },
      "getRoleAdmin(bytes32)": {
        "details": "Returns the admin role that controls `role`. See {grantRole} and {revokeRole}. To change a role's admin, use {_setRoleAdmin}."
      },
      "getRoleMember(bytes32,uint256)": {
        "details": "Returns one of the accounts that have `role`. `index` must be a value between 0 and {getRoleMemberCount}, non-inclusive. Role bearers are not sorted in any particular way, and their ordering may change at any point. WARNING: When using {getRoleMember} and {getRoleMemberCount}, make sure you perform all queries on the same block. See the following https://forum.openzeppelin.com/t/iterating-over-elements-on-enumerableset-in-openzeppelin-contracts/2296[forum post] for more information."
      },
      "getRoleMemberCount(bytes32)": {
        "details": "Returns the number of accounts that have `role`. Can be used together with {getRoleMember} to enumerate all bearers of a role."
      },
      "getTrustedForwarder()": {
        "returns": {
          "_0": "return the address of the trusted forwarder"
        }
      },
      "grantRole(bytes32,address)": {
        "details": "Grants `role` to `account`. If `account` had not been already granted `role`, emits a {RoleGranted} event. Requirements: - the caller must have ``role``'s admin role. May emit a {RoleGranted} event."
      },
      "hasRole(bytes32,address)": {
        "details": "Returns `true` if `account` has been granted `role`."
      },
      "initialize(address,address)": {
        "params": {
          "admin_": "address that have admin access and can assign roles.",
          "trustedForwarder_": "address of the ERC2771 trusted forwarder"
        }
      },
      "isClaimed(uint256)": {
        "params": {
          "claimId": "unique id used to avoid double spending"
        },
        "returns": {
          "_0": "true if claimed"
        }
      },
      "isTrustedForwarder(address)": {
        "params": {
          "forwarder": "trusted forwarder address to check"
        },
        "returns": {
          "_0": "true if the address is the same as the trusted forwarder"
        }
      },
      "onERC721Received(address,address,uint256,bytes)": {
        "details": "See {IERC721Receiver-onERC721Received}. Always returns `IERC721Receiver.onERC721Received.selector`."
      },
      "paused()": {
        "details": "Returns true if the contract is paused, and false otherwise."
      },
      "recoverAssets(address,(uint8,address,bytes)[])": {
        "params": {
          "claims": "list of the tokens to transfer",
          "to": "destination address of the recovered fund"
        }
      },
      "renounceRole(bytes32,address)": {
        "details": "Revokes `role` from the calling account. Roles are often managed via {grantRole} and {revokeRole}: this function's purpose is to provide a mechanism for accounts to lose their privileges if they are compromised (such as when a trusted device is misplaced). If the calling account had been revoked `role`, emits a {RoleRevoked} event. Requirements: - the caller must be `account`. May emit a {RoleRevoked} event."
      },
      "revokeClaims(uint256[])": {
        "params": {
          "claimIds": "and array of claim Ids to revoke"
        }
      },
      "revokeRole(bytes32,address)": {
        "details": "Revokes `role` from `account`. If `account` had been granted `role`, emits a {RoleRevoked} event. Requirements: - the caller must have ``role``'s admin role. May emit a {RoleRevoked} event."
      },
      "setMaxClaimEntries(uint128)": {
        "params": {
          "maxClaimEntries": "maximum number of entries in a claim (amount of transfers) that can be claimed at once"
        }
      },
      "setMaxWeiPerClaim(address,uint256,uint256)": {
        "details": "even tokenId is kind of inconsistent for tokenType!=ERC1155 it doesn't harm",
        "params": {
          "maxWeiPerClaim": "the max amount per each claim, for example 0.01eth per claim",
          "token": "the token to which will assign the limit",
          "tokenId": "for ERC1155 is the id of the token, else it must be zero"
        }
      },
      "setNumberOfSignaturesNeeded(uint128)": {
        "params": {
          "numberOfSignaturesNeeded": "number of signatures needed to approve a claim (default to 1)"
        }
      },
      "setTrustedForwarder(address)": {
        "details": "Change the address of the trusted forwarder for meta-TX",
        "params": {
          "newForwarder": "The new trustedForwarder"
        }
      },
      "supportsInterface(bytes4)": {
        "details": "See {IERC165-supportsInterface}."
      },
      "trustedForwarder()": {
        "details": "this methods is the same as getTrustedForwarder but used by Biconomy",
        "returns": {
          "_0": "return the address of the trusted forwarder"
        }
      },
      "verifySignature((uint8,bytes32,bytes32),uint256[],uint256,address,address,(uint8,address,bytes)[])": {
        "params": {
          "claimIds": "unique id used to avoid double spending",
          "claims": "list of tokens to do transfer",
          "expiration": "expiration timestamp",
          "from": "source user",
          "sig": "signature part (v,r,s)",
          "to": "destination user"
        },
        "returns": {
          "_0": "the recovered address must match the signing address"
        }
      }
    },
    "stateVariables": {
      "BACKOFFICE_ROLE": {
        "details": "this role is for addresses that help the admin. Can pause the contract, but, only the admin can unpause it."
      },
      "_limits": {
        "details": "configurable global limits for the contract."
      },
      "_perTokenLimitData": {
        "details": "limits applied to each claim per token and tokenId (most useful for EIP1155 tokens)Token -> id -> Limit"
      }
    },
    "title": "This contract gives rewards in any ERC20, ERC721 or ERC1155 when the backend authorizes it via message signing.",
    "version": 1
  },
  "userdoc": {
    "events": {
      "AssetsRecovered(address,(uint8,address,bytes)[],address)": {
        "notice": "This event is emitted when assets are recovered from the contract."
      },
      "Claimed(uint256[],address,address,(uint8,address,bytes)[],address)": {
        "notice": "This event is emitted when a claim occurs."
      },
      "MaxClaimEntriesSet(uint128,address)": {
        "notice": "This event is emitted when the max entries per claim is set"
      },
      "MaxWeiPerClaimSet(address,uint256,uint256,address)": {
        "notice": "This event is emitted when the max wei per claim is set"
      },
      "NumberOfSignaturesNeededSet(uint128,address)": {
        "notice": "This event is emitted when the number of signatures needed to claim is set"
      },
      "RevokedClaims(uint256[],address)": {
        "notice": "This event is emitted when a claim is revoked."
      },
      "TrustedForwarderSet(address,address,address)": {
        "notice": "Emitted when a `newTrustedForwarder` is set, replacing the `oldTrustedForwarder`"
      }
    },
    "kind": "user",
    "methods": {
      "batchClaim(((uint8,bytes32,bytes32)[],uint256[],uint256,address,address,(uint8,address,bytes)[])[])": {
        "notice": "does a lot of claims in batch"
      },
      "claim((uint8,bytes32,bytes32)[],uint256[],uint256,address,address,(uint8,address,bytes)[])": {
        "notice": "verifies the ERC712 signatures and transfer tokens from the source user to the destination user."
      },
      "domainSeparator()": {
        "notice": "EIP712 domain separator"
      },
      "getMaxClaimEntries()": {
        "notice": "get the maximum claim entries per claim"
      },
      "getMaxWeiPerClaim(address,uint256)": {
        "notice": "get maximum Weis that can be claimed at once"
      },
      "getNumberOfSignaturesNeeded()": {
        "notice": "get the needed number of signatures to approve a claim"
      },
      "getTrustedForwarder()": {
        "notice": "return the address of the trusted forwarder"
      },
      "initialize(address,address)": {
        "notice": "initializer method, called during deployment"
      },
      "isClaimed(uint256)": {
        "notice": "return true if already claimed"
      },
      "isTrustedForwarder(address)": {
        "notice": "return true if the forwarder is the trusted forwarder"
      },
      "pause()": {
        "notice": "Triggers stopped state. No more claims are accepted."
      },
      "recoverAssets(address,(uint8,address,bytes)[])": {
        "notice": "let the admin recover tokens from the contract"
      },
      "revokeClaims(uint256[])": {
        "notice": "let the backoffice role to revoke claims so they cannot be used anymore"
      },
      "setMaxClaimEntries(uint128)": {
        "notice": "set the global limits of the contract"
      },
      "setMaxWeiPerClaim(address,uint256,uint256)": {
        "notice": "set the limits per token and tokenId"
      },
      "setNumberOfSignaturesNeeded(uint128)": {
        "notice": "set the global limits of the contract"
      },
      "trustedForwarder()": {
        "notice": "return the address of the trusted forwarder"
      },
      "unpause()": {
        "notice": "Returns to the normal state. Accept claims."
      },
      "verifySignature((uint8,bytes32,bytes32),uint256[],uint256,address,address,(uint8,address,bytes)[])": {
        "notice": "verifies a ERC712 signature for the Claim data type."
      }
    },
    "version": 1
  },
  "storageLayout": {
    "storage": [
      {
        "astId": 610,
        "contract": "@sandbox-smart-contracts/giveaway/contracts/SignedMultiGiveaway.sol:SignedMultiGiveaway",
        "label": "_initialized",
        "offset": 0,
        "slot": "0",
        "type": "t_uint8"
      },
      {
        "astId": 613,
        "contract": "@sandbox-smart-contracts/giveaway/contracts/SignedMultiGiveaway.sol:SignedMultiGiveaway",
        "label": "_initializing",
        "offset": 1,
        "slot": "0",
        "type": "t_bool"
      },
      {
        "astId": 2431,
        "contract": "@sandbox-smart-contracts/giveaway/contracts/SignedMultiGiveaway.sol:SignedMultiGiveaway",
        "label": "_hashedName",
        "offset": 0,
        "slot": "1",
        "type": "t_bytes32"
      },
      {
        "astId": 2434,
        "contract": "@sandbox-smart-contracts/giveaway/contracts/SignedMultiGiveaway.sol:SignedMultiGiveaway",
        "label": "_hashedVersion",
        "offset": 0,
        "slot": "2",
        "type": "t_bytes32"
      },
      {
        "astId": 2436,
        "contract": "@sandbox-smart-contracts/giveaway/contracts/SignedMultiGiveaway.sol:SignedMultiGiveaway",
        "label": "_name",
        "offset": 0,
        "slot": "3",
        "type": "t_string_storage"
      },
      {
        "astId": 2438,
        "contract": "@sandbox-smart-contracts/giveaway/contracts/SignedMultiGiveaway.sol:SignedMultiGiveaway",
        "label": "_version",
        "offset": 0,
        "slot": "4",
        "type": "t_string_storage"
      },
      {
        "astId": 2696,
        "contract": "@sandbox-smart-contracts/giveaway/contracts/SignedMultiGiveaway.sol:SignedMultiGiveaway",
        "label": "__gap",
        "offset": 0,
        "slot": "5",
        "type": "t_array(t_uint256)48_storage"
      },
      {
        "astId": 1817,
        "contract": "@sandbox-smart-contracts/giveaway/contracts/SignedMultiGiveaway.sol:SignedMultiGiveaway",
        "label": "__gap",
        "offset": 0,
        "slot": "53",
        "type": "t_array(t_uint256)50_storage"
      },
      {
        "astId": 2743,
        "contract": "@sandbox-smart-contracts/giveaway/contracts/SignedMultiGiveaway.sol:SignedMultiGiveaway",
        "label": "__gap",
        "offset": 0,
        "slot": "103",
        "type": "t_array(t_uint256)50_storage"
      },
      {
        "astId": 184,
        "contract": "@sandbox-smart-contracts/giveaway/contracts/SignedMultiGiveaway.sol:SignedMultiGiveaway",
        "label": "_roles",
        "offset": 0,
        "slot": "153",
        "type": "t_mapping(t_bytes32,t_struct(RoleData)179_storage)"
      },
      {
        "astId": 479,
        "contract": "@sandbox-smart-contracts/giveaway/contracts/SignedMultiGiveaway.sol:SignedMultiGiveaway",
        "label": "__gap",
        "offset": 0,
        "slot": "154",
        "type": "t_array(t_uint256)49_storage"
      },
      {
        "astId": 33,
        "contract": "@sandbox-smart-contracts/giveaway/contracts/SignedMultiGiveaway.sol:SignedMultiGiveaway",
        "label": "_roleMembers",
        "offset": 0,
        "slot": "203",
        "type": "t_mapping(t_bytes32,t_struct(AddressSet)4053_storage)"
      },
      {
        "astId": 143,
        "contract": "@sandbox-smart-contracts/giveaway/contracts/SignedMultiGiveaway.sol:SignedMultiGiveaway",
        "label": "__gap",
        "offset": 0,
        "slot": "204",
        "type": "t_array(t_uint256)49_storage"
      },
      {
        "astId": 5839,
        "contract": "@sandbox-smart-contracts/giveaway/contracts/SignedMultiGiveaway.sol:SignedMultiGiveaway",
        "label": "_claimed",
        "offset": 0,
        "slot": "253",
        "type": "t_mapping(t_uint256,t_bool)"
      },
      {
        "astId": 6217,
        "contract": "@sandbox-smart-contracts/giveaway/contracts/SignedMultiGiveaway.sol:SignedMultiGiveaway",
        "label": "__gap",
        "offset": 0,
        "slot": "254",
        "type": "t_array(t_uint256)49_storage"
      },
      {
        "astId": 793,
        "contract": "@sandbox-smart-contracts/giveaway/contracts/SignedMultiGiveaway.sol:SignedMultiGiveaway",
        "label": "_paused",
        "offset": 0,
        "slot": "303",
        "type": "t_bool"
      },
      {
        "astId": 898,
        "contract": "@sandbox-smart-contracts/giveaway/contracts/SignedMultiGiveaway.sol:SignedMultiGiveaway",
        "label": "__gap",
        "offset": 0,
        "slot": "304",
        "type": "t_array(t_uint256)49_storage"
      },
      {
        "astId": 4345,
        "contract": "@sandbox-smart-contracts/giveaway/contracts/SignedMultiGiveaway.sol:SignedMultiGiveaway",
        "label": "_trustedForwarder",
        "offset": 0,
        "slot": "353",
        "type": "t_address"
      },
      {
        "astId": 4457,
        "contract": "@sandbox-smart-contracts/giveaway/contracts/SignedMultiGiveaway.sol:SignedMultiGiveaway",
        "label": "__gap",
        "offset": 0,
        "slot": "354",
        "type": "t_array(t_uint256)49_storage"
      },
      {
        "astId": 1186,
        "contract": "@sandbox-smart-contracts/giveaway/contracts/SignedMultiGiveaway.sol:SignedMultiGiveaway",
        "label": "__gap",
        "offset": 0,
        "slot": "403",
        "type": "t_array(t_uint256)50_storage"
      },
      {
        "astId": 1132,
        "contract": "@sandbox-smart-contracts/giveaway/contracts/SignedMultiGiveaway.sol:SignedMultiGiveaway",
        "label": "__gap",
        "offset": 0,
        "slot": "453",
        "type": "t_array(t_uint256)50_storage"
      },
      {
        "astId": 1445,
        "contract": "@sandbox-smart-contracts/giveaway/contracts/SignedMultiGiveaway.sol:SignedMultiGiveaway",
        "label": "__gap",
        "offset": 0,
        "slot": "503",
        "type": "t_array(t_uint256)50_storage"
      },
      {
        "astId": 4535,
        "contract": "@sandbox-smart-contracts/giveaway/contracts/SignedMultiGiveaway.sol:SignedMultiGiveaway",
        "label": "_limits",
        "offset": 0,
        "slot": "553",
        "type": "t_struct(LimitData)4501_storage"
      },
      {
        "astId": 4543,
        "contract": "@sandbox-smart-contracts/giveaway/contracts/SignedMultiGiveaway.sol:SignedMultiGiveaway",
        "label": "_perTokenLimitData",
        "offset": 0,
        "slot": "554",
        "type": "t_mapping(t_address,t_mapping(t_uint256,t_struct(PerTokenLimitData)4496_storage))"
      },
      {
        "astId": 5780,
        "contract": "@sandbox-smart-contracts/giveaway/contracts/SignedMultiGiveaway.sol:SignedMultiGiveaway",
        "label": "__gap",
        "offset": 0,
        "slot": "555",
        "type": "t_array(t_uint256)48_storage"
      }
    ],
    "types": {
      "t_address": {
        "encoding": "inplace",
        "label": "address",
        "numberOfBytes": "20"
      },
      "t_array(t_bytes32)dyn_storage": {
        "base": "t_bytes32",
        "encoding": "dynamic_array",
        "label": "bytes32[]",
        "numberOfBytes": "32"
      },
      "t_array(t_uint256)48_storage": {
        "base": "t_uint256",
        "encoding": "inplace",
        "label": "uint256[48]",
        "numberOfBytes": "1536"
      },
      "t_array(t_uint256)49_storage": {
        "base": "t_uint256",
        "encoding": "inplace",
        "label": "uint256[49]",
        "numberOfBytes": "1568"
      },
      "t_array(t_uint256)50_storage": {
        "base": "t_uint256",
        "encoding": "inplace",
        "label": "uint256[50]",
        "numberOfBytes": "1600"
      },
      "t_bool": {
        "encoding": "inplace",
        "label": "bool",
        "numberOfBytes": "1"
      },
      "t_bytes32": {
        "encoding": "inplace",
        "label": "bytes32",
        "numberOfBytes": "32"
      },
      "t_mapping(t_address,t_bool)": {
        "encoding": "mapping",
        "key": "t_address",
        "label": "mapping(address => bool)",
        "numberOfBytes": "32",
        "value": "t_bool"
      },
      "t_mapping(t_address,t_mapping(t_uint256,t_struct(PerTokenLimitData)4496_storage))": {
        "encoding": "mapping",
        "key": "t_address",
        "label": "mapping(address => mapping(uint256 => struct SignedMultiGiveaway.PerTokenLimitData))",
        "numberOfBytes": "32",
        "value": "t_mapping(t_uint256,t_struct(PerTokenLimitData)4496_storage)"
      },
      "t_mapping(t_bytes32,t_struct(AddressSet)4053_storage)": {
        "encoding": "mapping",
        "key": "t_bytes32",
        "label": "mapping(bytes32 => struct EnumerableSetUpgradeable.AddressSet)",
        "numberOfBytes": "32",
        "value": "t_struct(AddressSet)4053_storage"
      },
      "t_mapping(t_bytes32,t_struct(RoleData)179_storage)": {
        "encoding": "mapping",
        "key": "t_bytes32",
        "label": "mapping(bytes32 => struct AccessControlUpgradeable.RoleData)",
        "numberOfBytes": "32",
        "value": "t_struct(RoleData)179_storage"
      },
      "t_mapping(t_bytes32,t_uint256)": {
        "encoding": "mapping",
        "key": "t_bytes32",
        "label": "mapping(bytes32 => uint256)",
        "numberOfBytes": "32",
        "value": "t_uint256"
      },
      "t_mapping(t_uint256,t_bool)": {
        "encoding": "mapping",
        "key": "t_uint256",
        "label": "mapping(uint256 => bool)",
        "numberOfBytes": "32",
        "value": "t_bool"
      },
      "t_mapping(t_uint256,t_struct(PerTokenLimitData)4496_storage)": {
        "encoding": "mapping",
        "key": "t_uint256",
        "label": "mapping(uint256 => struct SignedMultiGiveaway.PerTokenLimitData)",
        "numberOfBytes": "32",
        "value": "t_struct(PerTokenLimitData)4496_storage"
      },
      "t_string_storage": {
        "encoding": "bytes",
        "label": "string",
        "numberOfBytes": "32"
      },
      "t_struct(AddressSet)4053_storage": {
        "encoding": "inplace",
        "label": "struct EnumerableSetUpgradeable.AddressSet",
        "members": [
          {
            "astId": 4052,
            "contract": "@sandbox-smart-contracts/giveaway/contracts/SignedMultiGiveaway.sol:SignedMultiGiveaway",
            "label": "_inner",
            "offset": 0,
            "slot": "0",
            "type": "t_struct(Set)3738_storage"
          }
        ],
        "numberOfBytes": "64"
      },
      "t_struct(LimitData)4501_storage": {
        "encoding": "inplace",
        "label": "struct SignedMultiGiveaway.LimitData",
        "members": [
          {
            "astId": 4498,
            "contract": "@sandbox-smart-contracts/giveaway/contracts/SignedMultiGiveaway.sol:SignedMultiGiveaway",
            "label": "numberOfSignaturesNeeded",
            "offset": 0,
            "slot": "0",
            "type": "t_uint128"
          },
          {
            "astId": 4500,
            "contract": "@sandbox-smart-contracts/giveaway/contracts/SignedMultiGiveaway.sol:SignedMultiGiveaway",
            "label": "maxClaimEntries",
            "offset": 16,
            "slot": "0",
            "type": "t_uint128"
          }
        ],
        "numberOfBytes": "32"
      },
      "t_struct(PerTokenLimitData)4496_storage": {
        "encoding": "inplace",
        "label": "struct SignedMultiGiveaway.PerTokenLimitData",
        "members": [
          {
            "astId": 4495,
            "contract": "@sandbox-smart-contracts/giveaway/contracts/SignedMultiGiveaway.sol:SignedMultiGiveaway",
            "label": "maxWeiPerClaim",
            "offset": 0,
            "slot": "0",
            "type": "t_uint256"
          }
        ],
        "numberOfBytes": "32"
      },
      "t_struct(RoleData)179_storage": {
        "encoding": "inplace",
        "label": "struct AccessControlUpgradeable.RoleData",
        "members": [
          {
            "astId": 176,
            "contract": "@sandbox-smart-contracts/giveaway/contracts/SignedMultiGiveaway.sol:SignedMultiGiveaway",
            "label": "members",
            "offset": 0,
            "slot": "0",
            "type": "t_mapping(t_address,t_bool)"
          },
          {
            "astId": 178,
            "contract": "@sandbox-smart-contracts/giveaway/contracts/SignedMultiGiveaway.sol:SignedMultiGiveaway",
            "label": "adminRole",
            "offset": 0,
            "slot": "1",
            "type": "t_bytes32"
          }
        ],
        "numberOfBytes": "64"
      },
      "t_struct(Set)3738_storage": {
        "encoding": "inplace",
        "label": "struct EnumerableSetUpgradeable.Set",
        "members": [
          {
            "astId": 3733,
            "contract": "@sandbox-smart-contracts/giveaway/contracts/SignedMultiGiveaway.sol:SignedMultiGiveaway",
            "label": "_values",
            "offset": 0,
            "slot": "0",
            "type": "t_array(t_bytes32)dyn_storage"
          },
          {
            "astId": 3737,
            "contract": "@sandbox-smart-contracts/giveaway/contracts/SignedMultiGiveaway.sol:SignedMultiGiveaway",
            "label": "_indexes",
            "offset": 0,
            "slot": "1",
            "type": "t_mapping(t_bytes32,t_uint256)"
          }
        ],
        "numberOfBytes": "64"
      },
      "t_uint128": {
        "encoding": "inplace",
        "label": "uint128",
        "numberOfBytes": "16"
      },
      "t_uint256": {
        "encoding": "inplace",
        "label": "uint256",
        "numberOfBytes": "32"
      },
      "t_uint8": {
        "encoding": "inplace",
        "label": "uint8",
        "numberOfBytes": "1"
      }
    }
  }
}