{
  "address": "0xa216a621652c0F5061ad4395422BBA7AB547d60F",
  "abi": [
    {
      "inputs": [
        {
          "internalType": "address",
          "name": "landAddress",
          "type": "address"
        },
        {
          "internalType": "address",
          "name": "sandContractAddress",
          "type": "address"
        },
        {
          "internalType": "address",
          "name": "initialMetaTx",
          "type": "address"
        },
        {
          "internalType": "address",
          "name": "admin",
          "type": "address"
        },
        {
          "internalType": "address payable",
          "name": "initialWalletAddress",
          "type": "address"
        },
        {
          "internalType": "bytes32",
          "name": "merkleRoot",
          "type": "bytes32"
        },
        {
          "internalType": "uint256",
          "name": "expiryTime",
          "type": "uint256"
        },
        {
          "internalType": "address",
          "name": "initialSigningWallet",
          "type": "address"
        },
        {
          "internalType": "uint256",
          "name": "initialMaxCommissionRate",
          "type": "uint256"
        },
        {
          "internalType": "address",
          "name": "estate",
          "type": "address"
        },
        {
          "internalType": "address",
          "name": "asset",
          "type": "address"
        },
        {
          "internalType": "address",
          "name": "feeDistributor",
          "type": "address"
        },
        {
          "internalType": "address",
          "name": "authValidator",
          "type": "address"
        }
      ],
      "stateMutability": "nonpayable",
      "type": "constructor"
    },
    {
      "anonymous": false,
      "inputs": [
        {
          "indexed": false,
          "internalType": "address",
          "name": "oldAdmin",
          "type": "address"
        },
        {
          "indexed": false,
          "internalType": "address",
          "name": "newAdmin",
          "type": "address"
        }
      ],
      "name": "AdminChanged",
      "type": "event"
    },
    {
      "anonymous": false,
      "inputs": [
        {
          "indexed": true,
          "internalType": "address",
          "name": "buyer",
          "type": "address"
        },
        {
          "indexed": true,
          "internalType": "address",
          "name": "to",
          "type": "address"
        },
        {
          "indexed": true,
          "internalType": "uint256",
          "name": "topCornerId",
          "type": "uint256"
        },
        {
          "indexed": false,
          "internalType": "uint256",
          "name": "size",
          "type": "uint256"
        },
        {
          "indexed": false,
          "internalType": "uint256",
          "name": "price",
          "type": "uint256"
        },
        {
          "indexed": false,
          "internalType": "address",
          "name": "token",
          "type": "address"
        },
        {
          "indexed": false,
          "internalType": "uint256",
          "name": "amountPaid",
          "type": "uint256"
        }
      ],
      "name": "LandQuadPurchased",
      "type": "event"
    },
    {
      "anonymous": false,
      "inputs": [
        {
          "indexed": true,
          "internalType": "uint256",
          "name": "newMaxCommissionRate",
          "type": "uint256"
        }
      ],
      "name": "MaxCommissionRateUpdated",
      "type": "event"
    },
    {
      "anonymous": false,
      "inputs": [
        {
          "indexed": false,
          "internalType": "address",
          "name": "metaTransactionProcessor",
          "type": "address"
        },
        {
          "indexed": false,
          "internalType": "bool",
          "name": "enabled",
          "type": "bool"
        }
      ],
      "name": "MetaTransactionProcessor",
      "type": "event"
    },
    {
      "anonymous": false,
      "inputs": [
        {
          "indexed": true,
          "internalType": "address",
          "name": "newWallet",
          "type": "address"
        }
      ],
      "name": "NewReceivingWallet",
      "type": "event"
    },
    {
      "anonymous": false,
      "inputs": [
        {
          "indexed": true,
          "internalType": "address",
          "name": "referrer",
          "type": "address"
        },
        {
          "indexed": true,
          "internalType": "address",
          "name": "referee",
          "type": "address"
        },
        {
          "indexed": true,
          "internalType": "address",
          "name": "token",
          "type": "address"
        },
        {
          "indexed": false,
          "internalType": "uint256",
          "name": "amount",
          "type": "uint256"
        },
        {
          "indexed": false,
          "internalType": "uint256",
          "name": "commission",
          "type": "uint256"
        },
        {
          "indexed": false,
          "internalType": "uint256",
          "name": "commissionRate",
          "type": "uint256"
        }
      ],
      "name": "ReferralUsed",
      "type": "event"
    },
    {
      "anonymous": false,
      "inputs": [
        {
          "indexed": true,
          "internalType": "address",
          "name": "newSigningWallet",
          "type": "address"
        }
      ],
      "name": "SigningWalletUpdated",
      "type": "event"
    },
    {
      "inputs": [
        {
          "internalType": "address",
          "name": "buyer",
          "type": "address"
        },
        {
          "internalType": "address",
          "name": "to",
          "type": "address"
        },
        {
          "internalType": "address",
          "name": "reserved",
          "type": "address"
        },
        {
          "internalType": "uint256[]",
          "name": "info",
          "type": "uint256[]"
        },
        {
          "internalType": "bytes32",
          "name": "salt",
          "type": "bytes32"
        },
        {
          "internalType": "uint256[]",
          "name": "assetIds",
          "type": "uint256[]"
        },
        {
          "internalType": "bytes32[]",
          "name": "proof",
          "type": "bytes32[]"
        },
        {
          "internalType": "bytes",
          "name": "referral",
          "type": "bytes"
        },
        {
          "internalType": "bytes",
          "name": "signature",
          "type": "bytes"
        }
      ],
      "name": "buyLandWithSand",
      "outputs": [],
      "stateMutability": "nonpayable",
      "type": "function"
    },
    {
      "inputs": [
        {
          "internalType": "address",
          "name": "newAdmin",
          "type": "address"
        }
      ],
      "name": "changeAdmin",
      "outputs": [],
      "stateMutability": "nonpayable",
      "type": "function"
    },
    {
      "inputs": [
        {
          "internalType": "bytes",
          "name": "referral",
          "type": "bytes"
        }
      ],
      "name": "decodeReferral",
      "outputs": [
        {
          "internalType": "bytes",
          "name": "",
          "type": "bytes"
        },
        {
          "internalType": "address",
          "name": "",
          "type": "address"
        },
        {
          "internalType": "address",
          "name": "",
          "type": "address"
        },
        {
          "internalType": "uint256",
          "name": "",
          "type": "uint256"
        },
        {
          "internalType": "uint256",
          "name": "",
          "type": "uint256"
        }
      ],
      "stateMutability": "pure",
      "type": "function"
    },
    {
      "inputs": [
        {
          "internalType": "address",
          "name": "disableWallet",
          "type": "address"
        }
      ],
      "name": "disablePreviousSigningWallet",
      "outputs": [],
      "stateMutability": "nonpayable",
      "type": "function"
    },
    {
      "inputs": [],
      "name": "getAdmin",
      "outputs": [
        {
          "internalType": "address",
          "name": "",
          "type": "address"
        }
      ],
      "stateMutability": "view",
      "type": "function"
    },
    {
      "inputs": [],
      "name": "getExpiryTime",
      "outputs": [
        {
          "internalType": "uint256",
          "name": "",
          "type": "uint256"
        }
      ],
      "stateMutability": "view",
      "type": "function"
    },
    {
      "inputs": [],
      "name": "getMaxCommissionRate",
      "outputs": [
        {
          "internalType": "uint256",
          "name": "",
          "type": "uint256"
        }
      ],
      "stateMutability": "view",
      "type": "function"
    },
    {
      "inputs": [],
      "name": "getMerkleRoot",
      "outputs": [
        {
          "internalType": "bytes32",
          "name": "",
          "type": "bytes32"
        }
      ],
      "stateMutability": "view",
      "type": "function"
    },
    {
      "inputs": [],
      "name": "getSigningWallet",
      "outputs": [
        {
          "internalType": "address",
          "name": "",
          "type": "address"
        }
      ],
      "stateMutability": "view",
      "type": "function"
    },
    {
      "inputs": [
        {
          "internalType": "address",
          "name": "who",
          "type": "address"
        }
      ],
      "name": "isMetaTransactionProcessor",
      "outputs": [
        {
          "internalType": "bool",
          "name": "",
          "type": "bool"
        }
      ],
      "stateMutability": "view",
      "type": "function"
    },
    {
      "inputs": [
        {
          "internalType": "bytes",
          "name": "signature",
          "type": "bytes"
        },
        {
          "internalType": "address",
          "name": "referrer",
          "type": "address"
        },
        {
          "internalType": "address",
          "name": "referee",
          "type": "address"
        },
        {
          "internalType": "uint256",
          "name": "expiryTime",
          "type": "uint256"
        },
        {
          "internalType": "uint256",
          "name": "commissionRate",
          "type": "uint256"
        }
      ],
      "name": "isReferralValid",
      "outputs": [
        {
          "internalType": "bool",
          "name": "",
          "type": "bool"
        }
      ],
      "stateMutability": "view",
      "type": "function"
    },
    {
      "inputs": [
        {
          "internalType": "address",
          "name": "",
          "type": "address"
        },
        {
          "internalType": "address",
          "name": "",
          "type": "address"
        },
        {
          "internalType": "uint256[]",
          "name": "",
          "type": "uint256[]"
        },
        {
          "internalType": "uint256[]",
          "name": "",
          "type": "uint256[]"
        },
        {
          "internalType": "bytes",
          "name": "",
          "type": "bytes"
        }
      ],
      "name": "onERC1155BatchReceived",
      "outputs": [
        {
          "internalType": "bytes4",
          "name": "",
          "type": "bytes4"
        }
      ],
      "stateMutability": "pure",
      "type": "function"
    },
    {
      "inputs": [
        {
          "internalType": "address",
          "name": "",
          "type": "address"
        },
        {
          "internalType": "address",
          "name": "",
          "type": "address"
        },
        {
          "internalType": "uint256",
          "name": "",
          "type": "uint256"
        },
        {
          "internalType": "uint256",
          "name": "",
          "type": "uint256"
        },
        {
          "internalType": "bytes",
          "name": "",
          "type": "bytes"
        }
      ],
      "name": "onERC1155Received",
      "outputs": [
        {
          "internalType": "bytes4",
          "name": "",
          "type": "bytes4"
        }
      ],
      "stateMutability": "pure",
      "type": "function"
    },
    {
      "inputs": [
        {
          "internalType": "address",
          "name": "metaTransactionProcessor",
          "type": "address"
        },
        {
          "internalType": "bool",
          "name": "enabled",
          "type": "bool"
        }
      ],
      "name": "setMetaTransactionProcessor",
      "outputs": [],
      "stateMutability": "nonpayable",
      "type": "function"
    },
    {
      "inputs": [
        {
          "internalType": "address payable",
          "name": "newWallet",
          "type": "address"
        }
      ],
      "name": "setReceivingWallet",
      "outputs": [],
      "stateMutability": "nonpayable",
      "type": "function"
    },
    {
      "inputs": [
        {
          "internalType": "uint256",
          "name": "newMaxCommissionRate",
          "type": "uint256"
        }
      ],
      "name": "updateMaxCommissionRate",
      "outputs": [],
      "stateMutability": "nonpayable",
      "type": "function"
    },
    {
      "inputs": [
        {
          "internalType": "address",
          "name": "newSigningWallet",
          "type": "address"
        }
      ],
      "name": "updateSigningWallet",
      "outputs": [],
      "stateMutability": "nonpayable",
      "type": "function"
    },
    {
      "inputs": [
        {
          "internalType": "address",
          "name": "to",
          "type": "address"
        },
        {
          "internalType": "uint256[]",
          "name": "assetIds",
          "type": "uint256[]"
        },
        {
          "internalType": "uint256[]",
          "name": "values",
          "type": "uint256[]"
        }
      ],
      "name": "withdrawAssets",
      "outputs": [],
      "stateMutability": "nonpayable",
      "type": "function"
    }
  ],
  "transactionHash": "0x4ab1f775f37a0a36b3754b9194d63a50e1c33752b602bb5ae935559f12fdc58a",
  "args": [
    "0xEdE111C053616a91975488F8aB3B51382A32979b",
    "0xD20fbd836e80DabFb777E6AaBbe52e96c07eCD1B",
    "0xD20fbd836e80DabFb777E6AaBbe52e96c07eCD1B",
    "0x49c4D4C94829B9c44052C5f5Cb164Fc612181165",
    "0xa5Eb9C9Eb4F4c35B9Be8cFaAA7909F9ebe6Cb609",
    "0x235776d6131c452d98ab41c85a74fb4d78bcc8bcdc5ac4ddef5cba0892ff3a0a",
    2044872000,
    "0xB7060D3FeCAC3AE1F0A0AA416E3e8E472257950e",
    2000,
    "0x0000000000000000000000000000000000000000",
    "0x2D0f3dfe9B7e86b36d188A3AAdE83898d4BeE7a2",
    "0xAc3ff31f526Af7f386ea43649e3fa67e329AeF93",
    "0x34C87E3A9eD80D50a146C1833043265221c5Abd2"
  ],
  "numDeployments": 1,
  "linkedData": [
    {
      "x": 162,
      "y": 39,
      "size": 1,
      "price": "1011000000000000000000",
      "reserved": "",
      "salt": "0x10f24f3b5fc1f2bf83aea4b25e28c97a760ecf4993088f4566a4fdf6c6dda563",
      "assetIds": []
    },
    {
      "x": 162,
      "y": 40,
      "size": 1,
      "price": "1011000000000000000000",
      "reserved": "",
      "salt": "0x3a6384ae997abc27ef1527b83fa2e129bd90d24f47bc7f02cbfb58e8fedeea11",
      "assetIds": []
    },
    {
      "x": 162,
      "y": 41,
      "size": 1,
      "price": "1011000000000000000000",
      "reserved": "",
      "salt": "0x8dd3f2100490b2d19918e1d94ed0d6bdb136eaddcf8958579cb1691d6da2c082",
      "assetIds": []
    },
    {
      "x": 162,
      "y": 42,
      "size": 1,
      "price": "1011000000000000000000",
      "reserved": "",
      "salt": "0x0a38423b17124aaf64a4b291f29c2751cc9fdc4f4175f377f10c50839e4f8fa4",
      "assetIds": []
    },
    {
      "x": 162,
      "y": 43,
      "size": 1,
      "price": "1011000000000000000000",
      "reserved": "",
      "salt": "0x09199568a466f84c3cb76e60e536a72fb321bac79f02bd67c6d43fbd392787d4",
      "assetIds": []
    },
    {
      "x": 162,
      "y": 44,
      "size": 1,
      "price": "1011000000000000000000",
      "reserved": "",
      "salt": "0xfd7e09dc6ece093c14083081d6cead15b3e30e4dc599aa38ab5a884f6e9760ae",
      "assetIds": []
    },
    {
      "x": 162,
      "y": 45,
      "size": 1,
      "price": "1011000000000000000000",
      "reserved": "",
      "salt": "0x3a0b88e16264673f2d34b5964663bc454b4d10ea0afba12d75cabf6cc16243a3",
      "assetIds": []
    },
    {
      "x": 162,
      "y": 46,
      "size": 1,
      "price": "1011000000000000000000",
      "reserved": "",
      "salt": "0x3dcf5ccba3389feba9bba750834c7e9891499093aecccf4f3b6b6a5c34ab161e",
      "assetIds": []
    },
    {
      "x": 162,
      "y": 47,
      "size": 1,
      "price": "1011000000000000000000",
      "reserved": "",
      "salt": "0xfd288d9abff415591dd4d0d7bab696baf47dbc5e9c9bcfebf94f3c15a425286b",
      "assetIds": []
    },
    {
      "x": 163,
      "y": 39,
      "size": 1,
      "price": "1011000000000000000000",
      "reserved": "",
      "salt": "0x7926dfc639b0bf31455ed4adaa60832607acad1decaa34c94c09b19ca15ffd74",
      "assetIds": []
    },
    {
      "x": 163,
      "y": 40,
      "size": 1,
      "price": "1011000000000000000000",
      "reserved": "",
      "salt": "0x42eee6bfc547a9ad11a974e1abc687c14dabd0d8da7334ef71bc9c66420c4a71",
      "assetIds": []
    },
    {
      "x": 163,
      "y": 41,
      "size": 1,
      "price": "1011000000000000000000",
      "reserved": "",
      "salt": "0x4d5ae53b3b26af351636dfd6d2f5e21a1efad471303e998c1ab1f720b4c6cc91",
      "assetIds": []
    },
    {
      "x": 163,
      "y": 42,
      "size": 1,
      "price": "1011000000000000000000",
      "reserved": "",
      "salt": "0x022cf41d072668b232fb622aff1bc0f1531476d5d5ce92d997c45617139e431d",
      "assetIds": []
    },
    {
      "x": 163,
      "y": 43,
      "size": 1,
      "price": "1011000000000000000000",
      "reserved": "",
      "salt": "0x3d572b580c190e52989b6dac0bb4f5782618472a72b4681f26900dbd165ac8b6",
      "assetIds": []
    },
    {
      "x": 163,
      "y": 44,
      "size": 1,
      "price": "1011000000000000000000",
      "reserved": "",
      "salt": "0x9bd92a32d147e4f52d87a036c31875166b6a7c571e9f9d9cd624c99a3b34c912",
      "assetIds": []
    },
    {
      "x": 163,
      "y": 45,
      "size": 1,
      "price": "1011000000000000000000",
      "reserved": "",
      "salt": "0x3165d3c0fcdf943b00b539efabc63d95b9498c593ab649e2680ad4a19e13f317",
      "assetIds": []
    },
    {
      "x": 163,
      "y": 46,
      "size": 1,
      "price": "1011000000000000000000",
      "reserved": "0x7a9fe22691c811ea339d9b73150e6911a5343dca",
      "salt": "0x0b38358d7c3fbbfe3abf91c7b31c28b4266f7ed68cd084aa6a9a59a8cc39365f",
      "assetIds": []
    },
    {
      "x": 163,
      "y": 47,
      "size": 1,
      "price": "1011000000000000000000",
      "reserved": "",
      "salt": "0x773477f3a1ccec5f365644d8562b3aa98e8b7c796cc865a5e9dcf8bddd7cf3b2",
      "assetIds": []
    },
    {
      "x": 164,
      "y": 39,
      "size": 1,
      "price": "1011000000000000000000",
      "reserved": "0x7a9fe22691c811ea339d9b73150e6911a5343dca",
      "salt": "0x87fc2c6613a6d08c44cc89bfbf4f1763d9783c377128aa798ec1220a61b736ff",
      "assetIds": []
    },
    {
      "x": 164,
      "y": 40,
      "size": 1,
      "price": "1011000000000000000000",
      "reserved": "",
      "salt": "0x481248ab154346c4439994a223beba5cf7b04129422fd90fcd564cd0d6745e78",
      "assetIds": []
    },
    {
      "x": 164,
      "y": 41,
      "size": 1,
      "price": "1011000000000000000000",
      "reserved": "",
      "salt": "0xa7a82f074028372889b03dfad1ff5662ac2505af92d3d6a0090a565363455f4e",
      "assetIds": []
    },
    {
      "x": 164,
      "y": 42,
      "size": 1,
      "price": "1011000000000000000000",
      "reserved": "",
      "salt": "0x738ebebced54185a8b2ddf0bc67a39faf611716f35bfa8f17cdd43ab2e2df371",
      "assetIds": []
    },
    {
      "x": 164,
      "y": 43,
      "size": 1,
      "price": "1011000000000000000000",
      "reserved": "",
      "salt": "0xa228cb228c634d2975d44d4460300ce7180989dd1d41810358c76847b5c7d7b8",
      "assetIds": []
    },
    {
      "x": 164,
      "y": 44,
      "size": 1,
      "price": "1011000000000000000000",
      "reserved": "",
      "salt": "0xbc57e38bbeff4bfea5baf53fc28de372fc1686facc51662f670396353479642e",
      "assetIds": []
    },
    {
      "x": 164,
      "y": 45,
      "size": 1,
      "price": "1011000000000000000000",
      "reserved": "",
      "salt": "0x406df02ee38739ebf1e458568d947cce0346ea3babd1058d7e23ea52aa6ed65e",
      "assetIds": []
    },
    {
      "x": 164,
      "y": 46,
      "size": 1,
      "price": "1011000000000000000000",
      "reserved": "",
      "salt": "0xe56d7dfe0ae28962419789340c145dce1912c363a5040883f36eb381dc2f7757",
      "assetIds": []
    },
    {
      "x": 164,
      "y": 47,
      "size": 1,
      "price": "1011000000000000000000",
      "reserved": "",
      "salt": "0x218b8c795650a571144c39650ee03261193dd1b50169d1fb03052574152cf2a3",
      "assetIds": []
    },
    {
      "x": 165,
      "y": 45,
      "size": 1,
      "price": "1011000000000000000000",
      "reserved": "",
      "salt": "0xf8ab57e0f7df3f01681cb0e80c69b1181936316bf5b60398702dfe64decc14ac",
      "assetIds": []
    },
    {
      "x": 165,
      "y": 46,
      "size": 1,
      "price": "1011000000000000000000",
      "reserved": "",
      "salt": "0x398c14d9ef924b98979990aecb2f1886413e2c88d1fb1656fe7e98feab7879d3",
      "assetIds": []
    },
    {
      "x": 165,
      "y": 47,
      "size": 1,
      "price": "1011000000000000000000",
      "reserved": "",
      "salt": "0x0e384f52cb77555557a773c7282c621f55d2b9b8753a0f21a5a78d72bafac9d1",
      "assetIds": []
    },
    {
      "x": 166,
      "y": 45,
      "size": 1,
      "price": "1011000000000000000000",
      "reserved": "",
      "salt": "0x9d39ad868a0f5b2fdb49602579324e34a8270bd4cdb0d944addbce0139574d43",
      "assetIds": []
    },
    {
      "x": 166,
      "y": 46,
      "size": 1,
      "price": "1011000000000000000000",
      "reserved": "",
      "salt": "0x8f254604933830e9e1dea9d1e5709ebdd689b6175a8fed08fd3b6de29c272639",
      "assetIds": []
    },
    {
      "x": 166,
      "y": 47,
      "size": 1,
      "price": "1011000000000000000000",
      "reserved": "",
      "salt": "0x348138549f118fd195b4364d64facd924629ad739ac71b9ef60585a02731fdb5",
      "assetIds": []
    },
    {
      "x": 167,
      "y": 45,
      "size": 1,
      "price": "1011000000000000000000",
      "reserved": "",
      "salt": "0xbfdf3922f38797f894600324bc588342aa20c037814e22dd66f6d12a0fc0aa3e",
      "assetIds": []
    },
    {
      "x": 167,
      "y": 46,
      "size": 1,
      "price": "1011000000000000000000",
      "reserved": "",
      "salt": "0xda9706bc24363bcc06fb9d97008cede1f21b4879e10263296c6b91c2e000c641",
      "assetIds": []
    },
    {
      "x": 167,
      "y": 47,
      "size": 1,
      "price": "1011000000000000000000",
      "reserved": "",
      "salt": "0xfa7d0e5dd695235c5212e54ab1698c7b28b57b891720b8555abd7c06715c59c1",
      "assetIds": []
    },
    {
      "x": 168,
      "y": 42,
      "size": 1,
      "price": "1011000000000000000000",
      "reserved": "",
      "salt": "0x3fbfdfe15e20ea5c7633c594093692151dfe08a48c4f3e36f09d4591fd695e24",
      "assetIds": []
    },
    {
      "x": 168,
      "y": 43,
      "size": 1,
      "price": "1011000000000000000000",
      "reserved": "",
      "salt": "0xb307e78a93d8d4d12a2b45d430467037b560168ca7360132d62284cce1b5c002",
      "assetIds": []
    },
    {
      "x": 168,
      "y": 44,
      "size": 1,
      "price": "1011000000000000000000",
      "reserved": "0x7a9fe22691c811ea339d9b73150e6911a5343dca",
      "salt": "0xd2850f4ac711c6300571af446fcbb9309590f57d732fbb09b8d5eb749137c423",
      "assetIds": []
    },
    {
      "x": 168,
      "y": 45,
      "size": 1,
      "price": "1011000000000000000000",
      "reserved": "",
      "salt": "0x0d68f7fd86d80ed8fde6f435ab73efea15c25e1a32772402b94ba63affcf36bf",
      "assetIds": []
    },
    {
      "x": 168,
      "y": 46,
      "size": 1,
      "price": "1011000000000000000000",
      "reserved": "",
      "salt": "0xc20d9476cabd2a98135404066580459510aba9564c7b39e8cfbbbcc9c4cdc417",
      "assetIds": []
    },
    {
      "x": 168,
      "y": 47,
      "size": 1,
      "price": "1011000000000000000000",
      "reserved": "",
      "salt": "0xea81ad1e6850359adac63e375a714ec1ca81055e023d5c81db4524bd6109c7d7",
      "assetIds": []
    },
    {
      "x": 169,
      "y": 42,
      "size": 1,
      "price": "1011000000000000000000",
      "reserved": "",
      "salt": "0xcc4f037ca3dac2b7b18154aa5317398bb1a99ace4c7f052b5569dde6e0e87ceb",
      "assetIds": []
    },
    {
      "x": 169,
      "y": 43,
      "size": 1,
      "price": "1011000000000000000000",
      "reserved": "",
      "salt": "0x7d458b62b48b3da0848822ed763576990de327cf1918e6a8cd97e3a257316034",
      "assetIds": []
    },
    {
      "x": 169,
      "y": 44,
      "size": 1,
      "price": "1011000000000000000000",
      "reserved": "",
      "salt": "0xc2a92c1d487d3102eeab1dfc64e687c6fbcd5c9ff0b96f0ba140536022702d37",
      "assetIds": []
    },
    {
      "x": 169,
      "y": 45,
      "size": 1,
      "price": "1011000000000000000000",
      "reserved": "",
      "salt": "0x6cb1ae62119061f6564186c681f96308ceef75004a7f22dabdd0329c8457b336",
      "assetIds": []
    },
    {
      "x": 169,
      "y": 47,
      "size": 1,
      "price": "1011000000000000000000",
      "reserved": "",
      "salt": "0x2b6b2c65d8795940dea8b84aa14b2c0ea3e7c6fdc125b92284822cfcf8d3d931",
      "assetIds": []
    },
    {
      "x": 170,
      "y": 42,
      "size": 1,
      "price": "1011000000000000000000",
      "reserved": "",
      "salt": "0x44755641179b89b782871b6ac0fb3b67bb7889b1a35ae7f2e7b35de4ed017426",
      "assetIds": []
    },
    {
      "x": 170,
      "y": 43,
      "size": 1,
      "price": "1011000000000000000000",
      "reserved": "",
      "salt": "0x4f3ff0694bd448426ea5c8feaaefa013758ed1902970cb926b4fbbbf12c7b348",
      "assetIds": []
    },
    {
      "x": 170,
      "y": 44,
      "size": 1,
      "price": "1011000000000000000000",
      "reserved": "",
      "salt": "0x9e1a326d53472c9ee4ba615e20c0e9a8b2b4b43f383b08104b1a37f4942ded84",
      "assetIds": []
    },
    {
      "x": 170,
      "y": 45,
      "size": 1,
      "price": "1011000000000000000000",
      "reserved": "",
      "salt": "0x50789dceb3d99898caa803fedb5a6ee8779afe1a334a9857a6bc4ea39c7101d7",
      "assetIds": []
    },
    {
      "x": 170,
      "y": 46,
      "size": 1,
      "price": "1011000000000000000000",
      "reserved": "",
      "salt": "0xd56cd6e816bcac3ed0c8031f989752610bea5abba563fc1ac940037e07e74527",
      "assetIds": []
    },
    {
      "x": 170,
      "y": 47,
      "size": 1,
      "price": "1011000000000000000000",
      "reserved": "",
      "salt": "0x75943821d9ae3cde965ce9b557666a06c5cfd9638a54f5c447c4a6d9ca0e336c",
      "assetIds": []
    },
    {
      "x": 171,
      "y": 36,
      "size": 1,
      "price": "1011000000000000000000",
      "reserved": "",
      "salt": "0xab7a7867cf7eb1a2b0dff935db01fbe520234230dab77eaa7243b35fb634be3c",
      "assetIds": []
    },
    {
      "x": 171,
      "y": 37,
      "size": 1,
      "price": "1011000000000000000000",
      "reserved": "",
      "salt": "0xb5d7131217704cef13934382b74aa32bf7cc4598d0ea5aebe26fcc18161cf6bf",
      "assetIds": []
    },
    {
      "x": 171,
      "y": 38,
      "size": 1,
      "price": "1011000000000000000000",
      "reserved": "",
      "salt": "0x7088d5b3ce812e52a54d6ec1a78c9baece57a7ffe7c2c3509185c8c693407744",
      "assetIds": []
    },
    {
      "x": 171,
      "y": 39,
      "size": 1,
      "price": "1011000000000000000000",
      "reserved": "",
      "salt": "0x29dd540c241287ed56a5ae9b8be6ee18bf19c9c0645eb0a26ea92d48e6666dc0",
      "assetIds": []
    },
    {
      "x": 171,
      "y": 40,
      "size": 1,
      "price": "1011000000000000000000",
      "reserved": "",
      "salt": "0x69f548bf6535e064a7cdce846d372b99ced1e4dae3403cdee414da4e7aea715a",
      "assetIds": []
    },
    {
      "x": 171,
      "y": 41,
      "size": 1,
      "price": "1011000000000000000000",
      "reserved": "",
      "salt": "0x75f69253f2c5223a9d54037c027be50624ea5cf426995cdb9a285303bd65b987",
      "assetIds": []
    },
    {
      "x": 171,
      "y": 42,
      "size": 1,
      "price": "1011000000000000000000",
      "reserved": "",
      "salt": "0x5e5f237af37cd05aca23b60612d7b5d6aa16f900be66c9dc54474c44ba1893d6",
      "assetIds": []
    },
    {
      "x": 171,
      "y": 44,
      "size": 1,
      "price": "1011000000000000000000",
      "reserved": "",
      "salt": "0x8c0b2696a9394df944a5cbe2eff89ea9da0199ceba22962afa486fa4ab1e4b3d",
      "assetIds": []
    },
    {
      "x": 171,
      "y": 45,
      "size": 1,
      "price": "1011000000000000000000",
      "reserved": "",
      "salt": "0xb9a88dc2bc42e151313fce19a4afe7faa8cc38fd759028ce0f149c3a3e2aeed8",
      "assetIds": []
    },
    {
      "x": 171,
      "y": 46,
      "size": 1,
      "price": "1011000000000000000000",
      "reserved": "",
      "salt": "0x95991bd6e15874c76e70ef825289ccb23bde8abbf08deb7ba96ae987160e91fc",
      "assetIds": []
    },
    {
      "x": 171,
      "y": 47,
      "size": 1,
      "price": "1011000000000000000000",
      "reserved": "",
      "salt": "0x02140f3d329c4fcc97652d9ce2c37326a800c3bfeb143d5ec5765d8681477fbb",
      "assetIds": []
    },
    {
      "x": 172,
      "y": 37,
      "size": 1,
      "price": "1011000000000000000000",
      "reserved": "0x7a9fe22691c811ea339d9b73150e6911a5343dca",
      "salt": "0x4fa3c418eef33abc056230903f0a33eff1fb329a859fb29db469e93cb99b6005",
      "assetIds": []
    },
    {
      "x": 172,
      "y": 38,
      "size": 1,
      "price": "1011000000000000000000",
      "reserved": "",
      "salt": "0x4b97715bc0690395807bccb4fc7b9feadd8731ed0c49e22ab93c6dc8ae5a4ce2",
      "assetIds": []
    },
    {
      "x": 172,
      "y": 40,
      "size": 1,
      "price": "1011000000000000000000",
      "reserved": "0x7a9fe22691c811ea339d9b73150e6911a5343dca",
      "salt": "0x70454832c6c5004839d442079a1ae1d84fc207e45045532ea43f0234ebde83e1",
      "assetIds": []
    },
    {
      "x": 172,
      "y": 41,
      "size": 1,
      "price": "1011000000000000000000",
      "reserved": "",
      "salt": "0x197b89406e84779baadb4f2135103fac43ab7502730edbedd774c304444627c1",
      "assetIds": []
    },
    {
      "x": 172,
      "y": 42,
      "size": 1,
      "price": "1011000000000000000000",
      "reserved": "",
      "salt": "0xd56f1a69c46e24119d3101c39fa091848dc2b5d84da2c2c1d5d10057757f42a6",
      "assetIds": []
    },
    {
      "x": 172,
      "y": 43,
      "size": 1,
      "price": "1011000000000000000000",
      "reserved": "",
      "salt": "0xdf33ea41a979240254cb98fc7a36a053eee8a5c05ffb93cd5dd02072505de91d",
      "assetIds": []
    },
    {
      "x": 172,
      "y": 44,
      "size": 1,
      "price": "1011000000000000000000",
      "reserved": "",
      "salt": "0x7ee848d452f17222d1cefb95dbd5719fbc172f0f3be22cb77e457c94cabbb4a1",
      "assetIds": []
    },
    {
      "x": 172,
      "y": 45,
      "size": 1,
      "price": "1011000000000000000000",
      "reserved": "",
      "salt": "0xdb533d5cbf082e9db942af8c3f73cce233de3f7c4091496425ee0a2bcfdceef7",
      "assetIds": []
    },
    {
      "x": 172,
      "y": 46,
      "size": 1,
      "price": "1011000000000000000000",
      "reserved": "0x7a9fe22691c811ea339d9b73150e6911a5343dca",
      "salt": "0x040e0432452e00a64e134d757aaae6d99cdeee07bef5c35b5c84c6be8915d258",
      "assetIds": []
    },
    {
      "x": 172,
      "y": 47,
      "size": 1,
      "price": "1011000000000000000000",
      "reserved": "",
      "salt": "0xbcb06fa20d4d7ddca29941f7a7981bae04f8a6047d3353b568d45e791ca07b11",
      "assetIds": []
    },
    {
      "x": 173,
      "y": 36,
      "size": 1,
      "price": "4683000000000000000000",
      "reserved": "",
      "salt": "0x541c1733700282ee8ac986722620580d891b5081777fce0c824f03235840d665",
      "assetIds": []
    },
    {
      "x": 173,
      "y": 37,
      "size": 1,
      "price": "4683000000000000000000",
      "reserved": "",
      "salt": "0x1031c41332076f401b5c24e73d32210e41ea639fa323dc9e9a486025c127669d",
      "assetIds": []
    },
    {
      "x": 173,
      "y": 39,
      "size": 1,
      "price": "4683000000000000000000",
      "reserved": "",
      "salt": "0xc0868c62f02a573bd961b58ab68a2b5d1aa31415aa9ff8af98c25b73d26182a1",
      "assetIds": []
    },
    {
      "x": 173,
      "y": 40,
      "size": 1,
      "price": "4683000000000000000000",
      "reserved": "",
      "salt": "0x96fe753ff884119c91fe8fbbeba1a1c4cfee75768bb011930c5b202ca492c76f",
      "assetIds": []
    },
    {
      "x": 173,
      "y": 43,
      "size": 1,
      "price": "1011000000000000000000",
      "reserved": "",
      "salt": "0xb39afe111d32e58984acdae14333d78b0ba7cb0bf21b1337db95dd227e0c485c",
      "assetIds": []
    },
    {
      "x": 173,
      "y": 44,
      "size": 1,
      "price": "1011000000000000000000",
      "reserved": "",
      "salt": "0xcb6d301f66253bba8aa409a2a1716ae3e7fdef0892c5df6e1002256421086c81",
      "assetIds": []
    },
    {
      "x": 173,
      "y": 45,
      "size": 1,
      "price": "1011000000000000000000",
      "reserved": "",
      "salt": "0xa2564e7afb7ae1cfc80d616c98e71430728915aa3d1654c5c173b087b2e08cdc",
      "assetIds": []
    },
    {
      "x": 173,
      "y": 46,
      "size": 1,
      "price": "1011000000000000000000",
      "reserved": "",
      "salt": "0x61e715b1615a34d707caca69e67fa526c49f41fed6550ed27b00b887b4a9aebe",
      "assetIds": []
    },
    {
      "x": 173,
      "y": 47,
      "size": 1,
      "price": "1011000000000000000000",
      "reserved": "",
      "salt": "0xc5c29842bde6b23411baab3a02dca851cddd693dd1f11a0907e6c061e5578f5b",
      "assetIds": []
    },
    {
      "x": 180,
      "y": 36,
      "size": 1,
      "price": "4683000000000000000000",
      "reserved": "",
      "salt": "0x09361fc473ef0860f8b258b847e4b25a5294af95507b271f4cbde8e6730d6d5f",
      "assetIds": []
    },
    {
      "x": 180,
      "y": 38,
      "size": 1,
      "price": "4683000000000000000000",
      "reserved": "",
      "salt": "0xbdd6152b950b27022e0d702159eace1330be84164698805893f6f9c958ac4ab4",
      "assetIds": []
    },
    {
      "x": 180,
      "y": 40,
      "size": 1,
      "price": "4683000000000000000000",
      "reserved": "",
      "salt": "0x0cf4b9732e12df6ad0aa96ef8b378e9bcd3de64f69fa7158926e96d5c58a4a6c",
      "assetIds": []
    },
    {
      "x": 180,
      "y": 42,
      "size": 1,
      "price": "1011000000000000000000",
      "reserved": "",
      "salt": "0x815e8ccd88c484aa73e877f77d68f250ef9438685dfea9282380a76e3f2de2b0",
      "assetIds": []
    },
    {
      "x": 180,
      "y": 43,
      "size": 1,
      "price": "1011000000000000000000",
      "reserved": "",
      "salt": "0x8fa5737617a436ce381d032db95023ab1164fdcd88340d26996371304aed3502",
      "assetIds": []
    },
    {
      "x": 180,
      "y": 45,
      "size": 1,
      "price": "1011000000000000000000",
      "reserved": "",
      "salt": "0x939fa4fc178258549f368cd552ae1ba14f358e6b822b3e7d53b3031b9819f406",
      "assetIds": []
    },
    {
      "x": 180,
      "y": 46,
      "size": 1,
      "price": "1011000000000000000000",
      "reserved": "",
      "salt": "0xc49674de3d05f9ed416d78496a003e46464dda21c50b675f72877f42db5ba45f",
      "assetIds": []
    },
    {
      "x": 180,
      "y": 47,
      "size": 1,
      "price": "1011000000000000000000",
      "reserved": "",
      "salt": "0xe8f8626dc95380403996fe8689dd73a7356a0daec49275936bb8f15c46191e4d",
      "assetIds": []
    },
    {
      "x": 181,
      "y": 37,
      "size": 1,
      "price": "1011000000000000000000",
      "reserved": "",
      "salt": "0xa51b0d70dcc0b532d0ae6939fac44f993cbab7809548c109210461badbacad78",
      "assetIds": []
    },
    {
      "x": 181,
      "y": 39,
      "size": 1,
      "price": "1011000000000000000000",
      "reserved": "",
      "salt": "0x4d5a713c2ee6ec58a658c3a8390b06596ed6ee4b2daec7c5206448a01e934116",
      "assetIds": []
    },
    {
      "x": 181,
      "y": 41,
      "size": 1,
      "price": "1011000000000000000000",
      "reserved": "0x7a9fe22691c811ea339d9b73150e6911a5343dca",
      "salt": "0x3325f828f684edc9acd1959e6fd19fe0e925e72ac634c8e2f75adb22f46770bf",
      "assetIds": []
    },
    {
      "x": 181,
      "y": 42,
      "size": 1,
      "price": "1011000000000000000000",
      "reserved": "",
      "salt": "0x55cdaee680da05516d30e88c38f90dfcef4ce42cd05e844e0bbf2798b37e38f7",
      "assetIds": []
    },
    {
      "x": 181,
      "y": 43,
      "size": 1,
      "price": "1011000000000000000000",
      "reserved": "",
      "salt": "0x15b220f2dd28ff04adb0374707955367c5eaef3f81cf6b409bd2d09590fcdec6",
      "assetIds": []
    },
    {
      "x": 181,
      "y": 44,
      "size": 1,
      "price": "1011000000000000000000",
      "reserved": "",
      "salt": "0x0cc3c60ecd2956fd1e559ae96a04a6452224a05d3260827cbe286f77e9609baf",
      "assetIds": []
    },
    {
      "x": 181,
      "y": 45,
      "size": 1,
      "price": "1011000000000000000000",
      "reserved": "0x7a9fe22691c811ea339d9b73150e6911a5343dca",
      "salt": "0x872ef3e38242546004b68e66b0cb270f12cc101b4888f0c5ce483193a666b7b6",
      "assetIds": []
    },
    {
      "x": 181,
      "y": 46,
      "size": 1,
      "price": "1011000000000000000000",
      "reserved": "",
      "salt": "0x265d7288cd4681a94541c7da00280180b0a0ed470fdc75dff827c38343e5176b",
      "assetIds": []
    },
    {
      "x": 181,
      "y": 47,
      "size": 1,
      "price": "1011000000000000000000",
      "reserved": "",
      "salt": "0x345ed8e74c0b4472ef833c1a4a6feb512a835e562a1f0aae68b9c9e24b0d044b",
      "assetIds": []
    },
    {
      "x": 182,
      "y": 36,
      "size": 1,
      "price": "1011000000000000000000",
      "reserved": "",
      "salt": "0x68ea78d5c19cf2636d5b994756a4ad990618036c95985de0be372ad4a273ddbb",
      "assetIds": []
    },
    {
      "x": 182,
      "y": 37,
      "size": 1,
      "price": "1011000000000000000000",
      "reserved": "",
      "salt": "0x1bc711c0ab5ec7e9a5e57365ffc3c4a56d7d18f718fe84fa262957afb274b7a9",
      "assetIds": []
    },
    {
      "x": 182,
      "y": 38,
      "size": 1,
      "price": "1011000000000000000000",
      "reserved": "",
      "salt": "0x9e5039fc44257242e448365c38f603ffe014c1a601b9e351c7061806ae4f4e04",
      "assetIds": []
    },
    {
      "x": 182,
      "y": 39,
      "size": 1,
      "price": "1011000000000000000000",
      "reserved": "",
      "salt": "0x7da8d3c95641f6668ce0b9509953d28e1e3ac18c7760e5adf24051af8c1059e6",
      "assetIds": []
    },
    {
      "x": 182,
      "y": 40,
      "size": 1,
      "price": "1011000000000000000000",
      "reserved": "",
      "salt": "0x45f6a9aac1c03a52c0f785d3d03684959f205db721b0704647136fd2669135b5",
      "assetIds": []
    },
    {
      "x": 182,
      "y": 41,
      "size": 1,
      "price": "1011000000000000000000",
      "reserved": "",
      "salt": "0xfe8df13ab9edbfb14839d22031dcb6c4eb7f8096b2d4601ae0be769d6a1855cb",
      "assetIds": []
    },
    {
      "x": 182,
      "y": 42,
      "size": 1,
      "price": "1011000000000000000000",
      "reserved": "",
      "salt": "0xf7333746d1f01cff030f64130dce7bac77c1522e45d502a8121e42a36e95a13a",
      "assetIds": []
    },
    {
      "x": 182,
      "y": 43,
      "size": 1,
      "price": "1011000000000000000000",
      "reserved": "",
      "salt": "0x8988abf7419888b50ab2cfbc4b923929dbeac10f35f6e36624d0ab144264e110",
      "assetIds": []
    },
    {
      "x": 182,
      "y": 44,
      "size": 1,
      "price": "1011000000000000000000",
      "reserved": "",
      "salt": "0x082a84284b39acd1a07574b1bba681414b361a2877270fed03b5a50dfa1ecd09",
      "assetIds": []
    },
    {
      "x": 182,
      "y": 45,
      "size": 1,
      "price": "1011000000000000000000",
      "reserved": "",
      "salt": "0xe62db974c1b2ef8349813b79d33e67380b824701e011690cd216919a1ba93729",
      "assetIds": []
    },
    {
      "x": 182,
      "y": 46,
      "size": 1,
      "price": "1011000000000000000000",
      "reserved": "",
      "salt": "0x08735dcfbd99c0b6746111ad26bfd47bcf0f14da9f1a87a995e6fd4b5552ef2f",
      "assetIds": []
    },
    {
      "x": 182,
      "y": 47,
      "size": 1,
      "price": "1011000000000000000000",
      "reserved": "",
      "salt": "0x811ee2368ee72b42972db2c887e1d186616f2928acc39c02c111f52c8a28f061",
      "assetIds": []
    },
    {
      "x": 183,
      "y": 36,
      "size": 1,
      "price": "1011000000000000000000",
      "reserved": "",
      "salt": "0x2f4c3f0cd1640a463ba3c95ddb7bc91e084b800e92b7edb149c81ab6f267e31a",
      "assetIds": []
    },
    {
      "x": 183,
      "y": 37,
      "size": 1,
      "price": "1011000000000000000000",
      "reserved": "",
      "salt": "0x6c59df99d4b3c8162b2969be7a9eb5b0daccafbe84e9958955aca9291d0c85b4",
      "assetIds": []
    },
    {
      "x": 183,
      "y": 38,
      "size": 1,
      "price": "1011000000000000000000",
      "reserved": "",
      "salt": "0x039ec9737569fb2eb14677c8eee1d1ffe238193eee12c7d162fea7492f1c0493",
      "assetIds": []
    },
    {
      "x": 183,
      "y": 39,
      "size": 1,
      "price": "1011000000000000000000",
      "reserved": "",
      "salt": "0xb4a2e70e8d6511b80f03051dceb47f90dc9792666e5abf302cac1a11b4d6e617",
      "assetIds": []
    },
    {
      "x": 183,
      "y": 40,
      "size": 1,
      "price": "1011000000000000000000",
      "reserved": "",
      "salt": "0xd4a4341aa49f642fe9d7d2876ce01511d847d0641320131ac1118a2f80649b19",
      "assetIds": []
    },
    {
      "x": 183,
      "y": 41,
      "size": 1,
      "price": "1011000000000000000000",
      "reserved": "",
      "salt": "0xdd529a2d37d70a61494a20aca17fee78aec7d751984983f35725d5ce6796b8a9",
      "assetIds": []
    },
    {
      "x": 183,
      "y": 42,
      "size": 1,
      "price": "1011000000000000000000",
      "reserved": "",
      "salt": "0x11bfa8b0d5eb886d66969a344e3ea1310b05dbdda1546230e91ffde9f42043ee",
      "assetIds": []
    },
    {
      "x": 183,
      "y": 43,
      "size": 1,
      "price": "1011000000000000000000",
      "reserved": "0x7a9fe22691c811ea339d9b73150e6911a5343dca",
      "salt": "0x4c545a8182eb526b2f24a6b0ad30ae4cb26c9a82b5a9dfd638c29342133c0ae3",
      "assetIds": []
    },
    {
      "x": 183,
      "y": 44,
      "size": 1,
      "price": "1011000000000000000000",
      "reserved": "",
      "salt": "0x219cccc6dc78964879bcc9cf930ececdff47ab6d1a05a72eecc8c7e9165bbc7e",
      "assetIds": []
    },
    {
      "x": 183,
      "y": 45,
      "size": 1,
      "price": "1011000000000000000000",
      "reserved": "",
      "salt": "0xf153928235802189c74bd7e99b51bfab9cce6d491ad4f13dde2616e6da3f0061",
      "assetIds": []
    },
    {
      "x": 183,
      "y": 46,
      "size": 1,
      "price": "1011000000000000000000",
      "reserved": "",
      "salt": "0x7a08181e6974c26e58f01dfe7fd1a9132ff0dde247b90d6529285f9dafcb7352",
      "assetIds": []
    },
    {
      "x": 183,
      "y": 47,
      "size": 1,
      "price": "1011000000000000000000",
      "reserved": "",
      "salt": "0x13e97edfe17eb160ac78b3f3e928c8d2813bd24fde315f68abf55387fadd9323",
      "assetIds": []
    },
    {
      "x": 184,
      "y": 36,
      "size": 1,
      "price": "1011000000000000000000",
      "reserved": "",
      "salt": "0xb1ec5f050229b9cf045a53d713c8ef20b0806523c48d4c6554b9c8e1a093f023",
      "assetIds": []
    },
    {
      "x": 184,
      "y": 37,
      "size": 1,
      "price": "1011000000000000000000",
      "reserved": "",
      "salt": "0x643984cac87da23d7e7095bd263cb50c6f3d4def11c0a8ca8832a89c3b0ac658",
      "assetIds": []
    },
    {
      "x": 184,
      "y": 38,
      "size": 1,
      "price": "1011000000000000000000",
      "reserved": "",
      "salt": "0x03e9eded05ddfbbe221166145a82d272315f8a7185931cda8b80418b0ab81efc",
      "assetIds": []
    },
    {
      "x": 184,
      "y": 39,
      "size": 1,
      "price": "1011000000000000000000",
      "reserved": "",
      "salt": "0xb6bf867c352cf02e0fbd2e912e3e3573f55f7c90fb1aec00e1392ac83135f83f",
      "assetIds": []
    },
    {
      "x": 184,
      "y": 40,
      "size": 1,
      "price": "1011000000000000000000",
      "reserved": "0x7a9fe22691c811ea339d9b73150e6911a5343dca",
      "salt": "0x6c2ade95d52fba57c5112237cc744e8eee3373e0d6022ae878ab5a1d628d6855",
      "assetIds": []
    },
    {
      "x": 184,
      "y": 41,
      "size": 1,
      "price": "1011000000000000000000",
      "reserved": "",
      "salt": "0x36931a834f830e859ea209f9ebe212812c9c8a5a4bdc5be011b86071f0cb4e32",
      "assetIds": []
    },
    {
      "x": 184,
      "y": 42,
      "size": 1,
      "price": "1011000000000000000000",
      "reserved": "",
      "salt": "0x3a3c53c02942d7f632dd7639984d229f7fbaaeef3c0872e360f8e024629a4220",
      "assetIds": []
    },
    {
      "x": 184,
      "y": 43,
      "size": 1,
      "price": "1011000000000000000000",
      "reserved": "",
      "salt": "0xeda212b80fc16ce875d9d3f225a13c83c3fcd153de247083c0089d0556e7ff29",
      "assetIds": []
    },
    {
      "x": 184,
      "y": 44,
      "size": 1,
      "price": "1011000000000000000000",
      "reserved": "",
      "salt": "0xc43a2881af406e8883a1f8251ba9bd3bcda37c422d726b75fd8fe285638c8186",
      "assetIds": []
    },
    {
      "x": 184,
      "y": 46,
      "size": 1,
      "price": "1011000000000000000000",
      "reserved": "",
      "salt": "0x4fbbd2893ab2929f25cf1c6a8bcd1cee6e0c95efaf15b9854ac0d1816e519fa3",
      "assetIds": []
    },
    {
      "x": 184,
      "y": 47,
      "size": 1,
      "price": "1011000000000000000000",
      "reserved": "",
      "salt": "0x29e2c9f303eafd373cd823ddf88ee34fe8df28d6503062b2d206e16c0d52072f",
      "assetIds": []
    },
    {
      "x": 185,
      "y": 36,
      "size": 1,
      "price": "1011000000000000000000",
      "reserved": "",
      "salt": "0xbb92249c182bb4ff360bb1cabd104a09fc4a7d3170503762bb26b0012a99cde5",
      "assetIds": []
    },
    {
      "x": 185,
      "y": 37,
      "size": 1,
      "price": "1011000000000000000000",
      "reserved": "",
      "salt": "0xa109cf49c8cb8f85de7b115bcd18eedf094b6446c357a896fee78f6daa5f58c0",
      "assetIds": []
    },
    {
      "x": 185,
      "y": 38,
      "size": 1,
      "price": "1011000000000000000000",
      "reserved": "",
      "salt": "0xa2f56eb26ea76a28b8ac3a87d0c84d6bf06eb4702e08624f66b37a8f03a9de2f",
      "assetIds": []
    },
    {
      "x": 185,
      "y": 39,
      "size": 1,
      "price": "1011000000000000000000",
      "reserved": "",
      "salt": "0x9e2e743484ce51d4fd6fb707c03f0df2c3e63c0f6a0fabfe4ee858ff810a3d5c",
      "assetIds": []
    },
    {
      "x": 185,
      "y": 40,
      "size": 1,
      "price": "1011000000000000000000",
      "reserved": "",
      "salt": "0x9ebfd9fced1953b7108d1a563fd918a233fe7e9aeefa87257bffc5163cbfdccf",
      "assetIds": []
    },
    {
      "x": 185,
      "y": 41,
      "size": 1,
      "price": "1011000000000000000000",
      "reserved": "",
      "salt": "0x2d6024f51ef60e55661d4142956db48bfaed39cbcb84a6b55f55ff8df0c30720",
      "assetIds": []
    },
    {
      "x": 185,
      "y": 42,
      "size": 1,
      "price": "1011000000000000000000",
      "reserved": "",
      "salt": "0x38424c9c154e1caf26434222431a843bacdcd16d35002e37b4a8ad533ed820b2",
      "assetIds": []
    },
    {
      "x": 185,
      "y": 43,
      "size": 1,
      "price": "1011000000000000000000",
      "reserved": "",
      "salt": "0xf213c1de3d55d141d37e45fad208bc8099d6a5449a9a47f2d833649f7607b25a",
      "assetIds": []
    },
    {
      "x": 185,
      "y": 44,
      "size": 1,
      "price": "1011000000000000000000",
      "reserved": "",
      "salt": "0x23ab67ec39530d9a510b4bb6250beebcaccd563571ece933f57c5b6d7694d9a6",
      "assetIds": []
    },
    {
      "x": 185,
      "y": 45,
      "size": 1,
      "price": "1011000000000000000000",
      "reserved": "",
      "salt": "0x9ea2358be1ae3d9399221d120e8a8562ee39538bb292e6cd950b9c91ec57b606",
      "assetIds": []
    },
    {
      "x": 185,
      "y": 46,
      "size": 1,
      "price": "1011000000000000000000",
      "reserved": "",
      "salt": "0x581b6cacca95afdb6c7a30310bcd537558a846ddf29da16652fab3f471726cd9",
      "assetIds": []
    },
    {
      "x": 185,
      "y": 47,
      "size": 1,
      "price": "1011000000000000000000",
      "reserved": "",
      "salt": "0x4ef91c09ea6539356e52c02eb6397e65869f18a53557dd80ef2bd26e57e9b890",
      "assetIds": []
    },
    {
      "x": 186,
      "y": 33,
      "size": 1,
      "price": "1011000000000000000000",
      "reserved": "",
      "salt": "0x587c833752d818fa42b3109d5736c5959d30d4cc6d9ac5c0cf6380f493c2a7dc",
      "assetIds": []
    },
    {
      "x": 186,
      "y": 45,
      "size": 1,
      "price": "1011000000000000000000",
      "reserved": "",
      "salt": "0x3c0717004726600792240d53edcd66c9fad19e67edc0314d0fc08a9e803fda9e",
      "assetIds": []
    },
    {
      "x": 186,
      "y": 46,
      "size": 1,
      "price": "1011000000000000000000",
      "reserved": "",
      "salt": "0xd1e56392ec45e570657da172df53aea663ec0cc80de52b989d24baff2f4a0d57",
      "assetIds": []
    },
    {
      "x": 186,
      "y": 47,
      "size": 1,
      "price": "1011000000000000000000",
      "reserved": "",
      "salt": "0x7d330322768c200205efed75313c61e4942aad43bc0c1258a20e77c392a66f71",
      "assetIds": []
    },
    {
      "x": 187,
      "y": 33,
      "size": 1,
      "price": "1011000000000000000000",
      "reserved": "",
      "salt": "0x44753e579f29ebeac86d97b857b86e4846e48cb7eac583d7062964263c74c8a9",
      "assetIds": []
    },
    {
      "x": 187,
      "y": 45,
      "size": 1,
      "price": "1011000000000000000000",
      "reserved": "0x7a9fe22691c811ea339d9b73150e6911a5343dca",
      "salt": "0x9c4cd49364591db18fcca28a68e5eb668cbb8fd916f87938942e7370a9907221",
      "assetIds": []
    },
    {
      "x": 187,
      "y": 46,
      "size": 1,
      "price": "1011000000000000000000",
      "reserved": "",
      "salt": "0xca8ac283be6c9e3491f56b2df3d634a4963a05aad7ce4c4a77f36738ff42a50d",
      "assetIds": []
    },
    {
      "x": 187,
      "y": 47,
      "size": 1,
      "price": "1011000000000000000000",
      "reserved": "",
      "salt": "0x566fac5a0b1d4006187148a0c055c52ad0347aa66513c19c8cb6fef2d3a8c7ba",
      "assetIds": []
    },
    {
      "x": 188,
      "y": 33,
      "size": 1,
      "price": "1011000000000000000000",
      "reserved": "",
      "salt": "0xdb7222d2b98345cd26890ff52e14c8f615388578f3bf8f756cde03222cd1d425",
      "assetIds": []
    },
    {
      "x": 188,
      "y": 45,
      "size": 1,
      "price": "1011000000000000000000",
      "reserved": "",
      "salt": "0xce04d5b6f3867081ee75d9679555ad15713f93334e26ea8fd43d31237180914a",
      "assetIds": []
    },
    {
      "x": 188,
      "y": 46,
      "size": 1,
      "price": "1011000000000000000000",
      "reserved": "",
      "salt": "0x76fa9a02d8733891115a4a9ab626a8b1c3affd809b6ac13425eefe8117be8201",
      "assetIds": []
    },
    {
      "x": 188,
      "y": 47,
      "size": 1,
      "price": "1011000000000000000000",
      "reserved": "",
      "salt": "0x6fe1347e7eece5e2bb4ea8e25b662c1b10671bfae1edc0931123c21724e250e7",
      "assetIds": []
    }
  ],
  "solcInputHash": "b42a863a795806b4ea3a8f05dfa42539",
  "bytecode": "0x6101606040523480156200001257600080fd5b50604051620031e9380380620031e983398181016040526101a08110156200003957600080fd5b508051602082015160408301516060840151608085015160a086015160c087015160e08801516101008901516101208a01516101408b01516101608c0151610180909c015160016000559a9b999a9899979896979596949593949293919290919085856001600160a01b038216620000f8576040805162461bcd60e51b815260206004820152601f60248201527f526566657272616c56616c696461746f723a207a65726f206164647265737300604482015290519081900360640190fd5b600380546001600160a01b0319166001600160a01b0393841617905560045562000130908e1662000459602090811b62002adc17901c565b6200016d5760405162461bcd60e51b8152600401808060200182810382526025815260200180620031c46025913960400191505060405180910390fd5b6200018c8c6001600160a01b03166200045960201b62002adc1760201c565b620001c95760405162461bcd60e51b8152600401808060200182810382526025815260200180620031c46025913960400191505060405180910390fd5b6001600160a01b038b1662000214576040805162461bcd60e51b815260206004820181905260248201526000805160206200317f833981519152604482015290519081900360640190fd5b6001600160a01b038a166200025f576040805162461bcd60e51b815260206004820181905260248201526000805160206200317f833981519152604482015290519081900360640190fd5b6001600160a01b038916620002aa576040805162461bcd60e51b815260206004820181905260248201526000805160206200317f833981519152604482015290519081900360640190fd5b620002c9836001600160a01b03166200045960201b62002adc1760201c565b620003065760405162461bcd60e51b8152600401808060200182810382526025815260200180620031c46025913960400191505060405180910390fd5b6001600160a01b03821662000351576040805162461bcd60e51b815260206004820181905260248201526000805160206200317f833981519152604482015290519081900360640190fd5b62000370816001600160a01b03166200045960201b62002adc1760201c565b620003ad5760405162461bcd60e51b8152600401808060200182810382526025815260200180620031c46025913960400191505060405180910390fd5b6001600160601b031960608e811b821660a0528d901b1660c052620003dd8b60016001600160e01b036200045f16565b600680546001600160a01b039a8b166001600160a01b031991821617909155610140989098526101209690965260018054998916998816999099179098556001600160601b0319606092831b811660e05290821b811660805296901b909516610100525060078054919093169116179055506200050a92505050565b3b151590565b6001600160a01b038216620004a65760405162461bcd60e51b81526004018080602001828103825260258152602001806200319f6025913960400191505060405180910390fd5b6001600160a01b038216600081815260026020908152604091829020805460ff191685151590811790915582519384529083015280517fb21eb88b4e33b3f1281830a7178d74d8aa73220416215726b68ae23d539515cb9281900390910190a15050565b60805160601c60a05160601c60c05160601c60e05160601c6101005160601c6101205161014051612bef6200059060003980610be0528061247e525080610bbc528061159d5250806124fc525080611af25280611c4f525080611aa85280611e4e52806124d9525080611b235280611c205250806111075280611f3a5250612bef6000f3fe608060405234801561001057600080fd5b50600436106101365760003560e01c8063984d6252116100b2578063c10a420811610081578063dc5074af11610066578063dc5074af146108a0578063e56f8a9e146108c6578063f23a6e61146108e357610136565b8063c10a4208146107c1578063caed35001461089857610136565b8063984d62521461055f578063ab1cc78c14610631578063b522ecff14610639578063bc197c811461065f57610136565b806365194ce71161010957806378e6e5b9116100ee57806378e6e5b9146104e55780638a04af6a1461050b5780638f2839701461053957610136565b806365194ce7146103635780636e9960c3146104c157610136565b80631187fd3c1461013b57806325cb5bc01461031b578063495906571461033557806358bc29441461033d575b600080fd5b610319600480360361012081101561015257600080fd5b6001600160a01b038235811692602081013582169260408201359092169181019060808101606082013564010000000081111561018e57600080fd5b8201836020820111156101a057600080fd5b803590602001918460208302840111640100000000831117156101c257600080fd5b919390928235926040810190602001356401000000008111156101e457600080fd5b8201836020820111156101f657600080fd5b8035906020019184602083028401116401000000008311171561021857600080fd5b91939092909160208101903564010000000081111561023657600080fd5b82018360208201111561024857600080fd5b8035906020019184602083028401116401000000008311171561026a57600080fd5b91939092909160208101903564010000000081111561028857600080fd5b82018360208201111561029a57600080fd5b803590602001918460018302840111640100000000831117156102bc57600080fd5b9193909290916020810190356401000000008111156102da57600080fd5b8201836020820111156102ec57600080fd5b8035906020019184600183028401116401000000008311171561030e57600080fd5b509092509050610978565b005b610323610bba565b60408051918252519081900360200190f35b610323610bde565b6103196004803603602081101561035357600080fd5b50356001600160a01b0316610c02565b6104096004803603602081101561037957600080fd5b81019060208101813564010000000081111561039457600080fd5b8201836020820111156103a657600080fd5b803590602001918460018302840111640100000000831117156103c857600080fd5b91908080601f016020809104026020016040519081016040528093929190818152602001838380828437600092019190915250929550610d2e945050505050565b6040518080602001866001600160a01b03166001600160a01b03168152602001856001600160a01b03166001600160a01b03168152602001848152602001838152602001828103825287818151815260200191508051906020019080838360005b8381101561048257818101518382015260200161046a565b50505050905090810190601f1680156104af5780820380516001836020036101000a031916815260200191505b50965050505050505060405180910390f35b6104c9610e33565b604080516001600160a01b039092168252519081900360200190f35b610319600480360360208110156104fb57600080fd5b50356001600160a01b0316610e42565b6103196004803603604081101561052157600080fd5b506001600160a01b0381351690602001351515610f00565b6103196004803603602081101561054f57600080fd5b50356001600160a01b0316610f6d565b6103196004803603606081101561057557600080fd5b6001600160a01b0382351691908101906040810160208201356401000000008111156105a057600080fd5b8201836020820111156105b257600080fd5b803590602001918460208302840111640100000000831117156105d457600080fd5b9193909290916020810190356401000000008111156105f257600080fd5b82018360208201111561060457600080fd5b8035906020019184602083028401116401000000008311171561062657600080fd5b5090925090506110a6565b610323611231565b6103196004803603602081101561064f57600080fd5b50356001600160a01b0316611237565b61078c600480360360a081101561067557600080fd5b6001600160a01b0382358116926020810135909116918101906060810160408201356401000000008111156106a957600080fd5b8201836020820111156106bb57600080fd5b803590602001918460208302840111640100000000831117156106dd57600080fd5b9193909290916020810190356401000000008111156106fb57600080fd5b82018360208201111561070d57600080fd5b8035906020019184602083028401116401000000008311171561072f57600080fd5b91939092909160208101903564010000000081111561074d57600080fd5b82018360208201111561075f57600080fd5b8035906020019184600183028401116401000000008311171561078157600080fd5b509092509050611348565b604080517fffffffff000000000000000000000000000000000000000000000000000000009092168252519081900360200190f35b610884600480360360a08110156107d757600080fd5b8101906020810181356401000000008111156107f257600080fd5b82018360208201111561080457600080fd5b8035906020019184600183028401116401000000008311171561082657600080fd5b91908080601f016020809104026020016040519081016040528093929190818152602001838380828437600092019190915250929550506001600160a01b038335811694506020840135169260408101359250606001359050611375565b604080519115158252519081900360200190f35b6104c96114b1565b610884600480360360208110156108b657600080fd5b50356001600160a01b03166114c0565b610319600480360360208110156108dc57600080fd5b50356114de565b61078c600480360360a08110156108f957600080fd5b6001600160a01b03823581169260208101359091169160408201359160608101359181019060a08101608082013564010000000081111561093957600080fd5b82018360208201111561094b57600080fd5b8035906020019184600183028401116401000000008311171561096d57600080fd5b509092509050611570565b600260005414156109d0576040805162461bcd60e51b815260206004820152601f60248201527f5265656e7472616e637947756172643a207265656e7472616e742063616c6c00604482015290519081900360640190fd5b60026000556109df8e8d61159b565b610ad68d8d8d8d80806020026020016040519081016040528093929190818152602001838360200280828437600081840152601f19601f820116905080830192505050505050508c8c8c80806020026020016040519081016040528093929190818152602001838360200280828437600081840152601f19601f820116905080830192505050505050508b8b8080602002602001604051908101604052809392919081815260200183836020028082843760009201919091525050604080516020601f8d018190048102820181019092528b815292508b91508a90819084018382808284376000920191909152506116fe92505050565b610b2a8e8c8c6003818110610ae757fe5b9050602002013586868080601f016020809104026020016040519081016040528093929190818152602001838380828437600092019190915250611a8192505050565b610b688e8e8d8d80806020026020016040519081016040528093929190818152602001838360200280828437600092019190915250611ad292505050565b610ba58d898980806020026020016040519081016040528093929190818152602001838360200280828437600092019190915250611ec392505050565b50506001600055505050505050505050505050565b7f000000000000000000000000000000000000000000000000000000000000000090565b7f000000000000000000000000000000000000000000000000000000000000000090565b6001546001600160a01b03163314610c61576040805162461bcd60e51b815260206004820152601260248201527f6f6e6c792061646d696e20616c6c6f7765640000000000000000000000000000604482015290519081900360640190fd5b6001600160a01b038116610cbc576040805162461bcd60e51b815260206004820152601f60248201527f526566657272616c56616c696461746f723a207a65726f206164647265737300604482015290519081900360640190fd5b600380546001600160a01b03908116600090815260056020526040808220620d2f0042019055835473ffffffffffffffffffffffffffffffffffffffff1916928516928317909355915190917fbbb5fb2ee7e707ae0c968f63e94211ea81e66a718c34e2f810a7619e5678a21791a250565b606060008060008060606000806000808a80602001905160a0811015610d5357600080fd5b8101908080516040519392919084640100000000821115610d7357600080fd5b908301906020820185811115610d8857600080fd5b8251640100000000811182820188101715610da257600080fd5b82525081516020918201929091019080838360005b83811015610dcf578181015183820152602001610db7565b50505050905090810190601f168015610dfc5780820380516001836020036101000a031916815260200191505b5060409081526020820151908201516060830151608090930151959f50909d509b5099509197505050505050505091939590929450565b6001546001600160a01b031690565b6001546001600160a01b03163314610e8b5760405162461bcd60e51b8152600401808060200182810382526023815260200180612b056023913960400191505060405180910390fd5b6001600160a01b038116610ee6576040805162461bcd60e51b815260206004820152601f60248201527f526566657272616c56616c696461746f723a207a65726f206164647265737300604482015290519081900360640190fd5b6001600160a01b0316600090815260056020526040812055565b6001546001600160a01b03163314610f5f576040805162461bcd60e51b815260206004820152601260248201527f6f6e6c792061646d696e20616c6c6f7765640000000000000000000000000000604482015290519081900360640190fd5b610f698282612087565b5050565b6001546001600160a01b03163314610fcc576040805162461bcd60e51b815260206004820152601b60248201527f6f6e6c792061646d696e2063616e206368616e67652061646d696e0000000000604482015290519081900360640190fd5b6001546001600160a01b038281169116141561102f576040805162461bcd60e51b815260206004820152600d60248201527f616c72656164792061646d696e00000000000000000000000000000000000000604482015290519081900360640190fd5b600154604080516001600160a01b039283168152918316602083015280517f7e644d79422f17c01e4894b5f4f588d331ebfa28653d42ae832dc59e38c9798f9281900390910190a16001805473ffffffffffffffffffffffffffffffffffffffff19166001600160a01b0392909216919091179055565b6001546001600160a01b03163314611105576040805162461bcd60e51b815260206004820152600e60248201527f4e4f545f415554484f52495a4544000000000000000000000000000000000000604482015290519081900360640190fd5b7f00000000000000000000000000000000000000000000000000000000000000006001600160a01b0316632eb2c2d63087878787876040518763ffffffff1660e01b815260040180876001600160a01b03166001600160a01b03168152602001866001600160a01b03166001600160a01b031681526020018060200180602001806020018481038452888882818152602001925060200280828437600083820152601f01601f19169091018581038452868152602090810191508790870280828437600081840152601f19601f8201169050808301925050508481038252600081526020016020019950505050505050505050600060405180830381600087803b15801561121257600080fd5b505af1158015611226573d6000803e3d6000fd5b505050505050505050565b60045490565b6001600160a01b038116611292576040805162461bcd60e51b815260206004820152600c60248201527f5a45524f5f414444524553530000000000000000000000000000000000000000604482015290519081900360640190fd5b6001546001600160a01b031633146112f1576040805162461bcd60e51b815260206004820152600e60248201527f4e4f545f415554484f52495a4544000000000000000000000000000000000000604482015290519081900360640190fd5b6006805473ffffffffffffffffffffffffffffffffffffffff19166001600160a01b0383169081179091556040517f4d66958b757eb92a1b43d02be4c38c9500b73f532420ee3706cb43d420ba023690600090a250565b7fbc197c810000000000000000000000000000000000000000000000000000000098975050505050505050565b60006004548211806113985750836001600160a01b0316856001600160a01b0316145b806113a257508242115b156113af575060006114a8565b60408051606087811b7fffffffffffffffffffffffffffffffffffffffff0000000000000000000000009081166020808501919091529188901b166034830152604882018690526068808301869052835180840390910181526088830184528051908201207f19457468657265756d205369676e6564204d6573736167653a0a33320000000060a884015260c48084018290528451808503909101815260e49093019093528151910120600090611466908961214e565b6001600160a01b0381166000908152600560205260409020549091504211611493576001925050506114a8565b6003546001600160a01b039081169116149150505b95945050505050565b6003546001600160a01b031690565b6001600160a01b031660009081526002602052604090205460ff1690565b6001546001600160a01b0316331461153d576040805162461bcd60e51b815260206004820152601260248201527f6f6e6c792061646d696e20616c6c6f7765640000000000000000000000000000604482015290519081900360640190fd5b600481905560405181907f774069781371d65424b3b0b101c1d40014532cac040f979595b99a3fcf8ce08c90600090a250565b7ff23a6e61000000000000000000000000000000000000000000000000000000009695505050505050565b7f0000000000000000000000000000000000000000000000000000000000000000421061160f576040805162461bcd60e51b815260206004820152600c60248201527f53414c455f49535f4f5645520000000000000000000000000000000000000000604482015290519081900360640190fd5b6001600160a01b03821633148061163557503360009081526002602052604090205460ff165b611686576040805162461bcd60e51b815260206004820152600e60248201527f4e4f545f415554484f52495a4544000000000000000000000000000000000000604482015290519081900360640190fd5b6001600160a01b03811615806116ad5750816001600160a01b0316816001600160a01b0316145b610f69576040805162461bcd60e51b815260206004820152600d60248201527f52455345525645445f4c414e4400000000000000000000000000000000000000604482015290519081900360640190fd5b600087878760008151811061170f57fe5b60200260200101518860018151811061172457fe5b60200260200101518960028151811061173957fe5b60200260200101518a60038151811061174e57fe5b60200260200101518a8a60405160200180828051906020019060200280838360005b83811015611788578181015183820152602001611770565b50505050905001915050604051602081830303815290604052805190602001208a60405160200180828051906020019060200280838360005b838110156117d95781810151838201526020016117c1565b5050505090500191505060405160208183030381529060405280519060200120604051602001808a6001600160a01b03166001600160a01b031660601b8152601401896001600160a01b03166001600160a01b031660601b81526014018881526020018781526020018681526020018581526020018481526020018381526020018281526020019950505050505050505050604051602081830303815290604052805190602001209050600760009054906101000a90046001600160a01b03166001600160a01b031663012847ed83836040518363ffffffff1660e01b81526004018080602001838152602001828103825284818151815260200191508051906020019080838360005b838110156118fb5781810151838201526020016118e3565b50505050905090810190601f1680156119285780820380516001836020036101000a031916815260200191505b50935050505060206040518083038186803b15801561194657600080fd5b505afa15801561195a573d6000803e3d6000fd5b505050506040513d602081101561197057600080fd5b50516119c3576040805162461bcd60e51b815260206004820152600c60248201527f494e56414c49445f415554480000000000000000000000000000000000000000604482015290519081900360640190fd5b6000611a24876000815181106119d557fe5b6020026020010151886001815181106119ea57fe5b6020026020010151896002815181106119ff57fe5b60200260200101518a600381518110611a1457fe5b60200260200101518c8b8b612337565b9050611a3084826123dc565b611226576040805162461bcd60e51b815260206004820152600c60248201527f494e56414c49445f4c414e440000000000000000000000000000000000000000604482015290519081900360640190fd5b6000611a8d84846124a5565b600654909150611acc908590839085906001600160a01b03167f000000000000000000000000000000000000000000000000000000000000000061253f565b50505050565b80600281518110611adf57fe5b602002602001015160011480611b1c57507f00000000000000000000000000000000000000000000000000000000000000006001600160a01b0316155b15611c1e577f00000000000000000000000000000000000000000000000000000000000000006001600160a01b0316636e1e3bbf8383600281518110611b5e57fe5b602002602001015184600081518110611b7357fe5b602002602001015185600181518110611b8857fe5b60200260200101516040518563ffffffff1660e01b815260040180856001600160a01b03166001600160a01b031681526020018481526020018381526020018281526020018060200182810382526000815260200160200195505050505050600060405180830381600087803b158015611c0157600080fd5b505af1158015611c15573d6000803e3d6000fd5b50505050611dbe565b7f00000000000000000000000000000000000000000000000000000000000000006001600160a01b0316636e1e3bbf7f000000000000000000000000000000000000000000000000000000000000000083600281518110611c7b57fe5b602002602001015184600081518110611c9057fe5b602002602001015185600181518110611ca557fe5b60200260200101518760405160200180826001600160a01b03166001600160a01b031681526020019150506040516020818303038152906040526040518663ffffffff1660e01b815260040180866001600160a01b03166001600160a01b0316815260200185815260200184815260200183815260200180602001828103825283818151815260200191508051906020019080838360005b83811015611d55578181015183820152602001611d3d565b50505050905090810190601f168015611d825780820380516001836020036101000a031916815260200191505b509650505050505050600060405180830381600087803b158015611da557600080fd5b505af1158015611db9573d6000803e3d6000fd5b505050505b61019881600181518110611dce57fe5b60200260200101510281600081518110611de457fe5b602002602001015101826001600160a01b0316846001600160a01b03167fe4dfa6ac11314892f3029b34a25b1a887da3b1cab2bbf8506d87128ba6e3ac0284600281518110611e2f57fe5b602002602001015185600381518110611e4457fe5b60200260200101517f000000000000000000000000000000000000000000000000000000000000000087600381518110611e7a57fe5b602002602001015160405180858152602001848152602001836001600160a01b03166001600160a01b0316815260200182815260200194505050505060405180910390a4505050565b6060815167ffffffffffffffff81118015611edd57600080fd5b50604051908082528060200260200182016040528015611f07578160200160208202803683370190505b50905060005b8251811015611f37576001828281518110611f2457fe5b6020908102919091010152600101611f0d565b507f00000000000000000000000000000000000000000000000000000000000000006001600160a01b0316632eb2c2d6308585856040518563ffffffff1660e01b815260040180856001600160a01b03166001600160a01b03168152602001846001600160a01b03166001600160a01b03168152602001806020018060200180602001848103845286818151815260200191508051906020019060200280838360005b83811015611ff2578181015183820152602001611fda565b50505050905001848103835285818151815260200191508051906020019060200280838360005b83811015612031578181015183820152602001612019565b50505050905001848103825260008152602001602001975050505050505050600060405180830381600087803b15801561206a57600080fd5b505af115801561207e573d6000803e3d6000fd5b50505050505050565b6001600160a01b0382166120cc5760405162461bcd60e51b8152600401808060200182810382526025815260200180612b6b6025913960400191505060405180910390fd5b6001600160a01b03821660008181526002602090815260409182902080547fffffffffffffffffffffffffffffffffffffffffffffffffffffffffffffff001685151590811790915582519384529083015280517fb21eb88b4e33b3f1281830a7178d74d8aa73220416215726b68ae23d539515cb9281900390910190a15050565b600081516041146121a6576040805162461bcd60e51b815260206004820152601f60248201527f45434453413a20696e76616c6964207369676e6174757265206c656e67746800604482015290519081900360640190fd5b60208201516040830151606084015160001a7f7fffffffffffffffffffffffffffffff5d576e7357a4501ddfe92f46681b20a08211156122175760405162461bcd60e51b8152600401808060200182810382526022815260200180612ae36022913960400191505060405180910390fd5b8060ff16601b1415801561222f57508060ff16601c14155b1561226b5760405162461bcd60e51b8152600401808060200182810382526022815260200180612b286022913960400191505060405180910390fd5b60408051600080825260208083018085528a905260ff85168385015260608301879052608083018690529251909260019260a080820193601f1981019281900390910190855afa1580156122c3573d6000803e3d6000fd5b5050604051601f1901519150506001600160a01b03811661232b576040805162461bcd60e51b815260206004820152601860248201527f45434453413a20696e76616c6964207369676e61747572650000000000000000604482015290519081900360640190fd5b93505050505b92915050565b60008787878787878760405160200180888152602001878152602001868152602001858152602001846001600160a01b03166001600160a01b031660601b8152601401838152602001828051906020019060200280838360005b838110156123a9578181015183820152602001612391565b50505050905001975050505050505050604051602081830303815290604052805190602001209050979650505050505050565b600081815b845181101561247b5760008582815181106123f857fe5b60200260200101519050808310156124405782816040516020018083815260200182815260200192505050604051602081830303815290604052805190602001209250612472565b808360405160200180838152602001828152602001925050506040516020818303038152906040528051906020012092505b506001016123e1565b507f0000000000000000000000000000000000000000000000000000000000000000149392505050565b6000806124ca60646124be85600563ffffffff61264716565b9063ffffffff6126a716565b90506125276001600160a01b037f000000000000000000000000000000000000000000000000000000000000000016857f00000000000000000000000000000000000000000000000000000000000000008463ffffffff6126e916565b612537838263ffffffff61277116565b949350505050565b8251819085901561262c57606060008060008061255b8a610d2e565b93985091965094509250905060006125768686868686611375565b15612604576125906125888d84612647565b6127106126a7565b9050886001600160a01b0316846001600160a01b0316866001600160a01b03167fac7a699eb95c3c6d390ec4626de17ef9a67b35891efdb197beba7c7fdd45fac48f858760405180848152602001838152602001828152602001935050505060405180910390a46126018782612771565b96505b8015612625576126256001600160a01b0389168e878463ffffffff6126e916565b5050505050505b61207e6001600160a01b03831688868463ffffffff6126e916565b60008261265657506000612331565b8282028284828161266357fe5b04146126a05760405162461bcd60e51b8152600401808060200182810382526021815260200180612b4a6021913960400191505060405180910390fd5b9392505050565b60006126a083836040518060400160405280601a81526020017f536166654d6174683a206469766973696f6e206279207a65726f0000000000008152506127b3565b604080516001600160a01b0380861660248301528416604482015260648082018490528251808303909101815260849091019091526020810180517bffffffffffffffffffffffffffffffffffffffffffffffffffffffff167f23b872dd00000000000000000000000000000000000000000000000000000000179052611acc908590612855565b60006126a083836040518060400160405280601e81526020017f536166654d6174683a207375627472616374696f6e206f766572666c6f77000081525061290b565b6000818361283f5760405162461bcd60e51b81526004018080602001828103825283818151815260200191508051906020019080838360005b838110156128045781810151838201526020016127ec565b50505050905090810190601f1680156128315780820380516001836020036101000a031916815260200191505b509250505060405180910390fd5b50600083858161284b57fe5b0495945050505050565b60606128aa826040518060400160405280602081526020017f5361666545524332303a206c6f772d6c6576656c2063616c6c206661696c6564815250856001600160a01b03166129659092919063ffffffff16565b805190915015612906578080602001905160208110156128c957600080fd5b50516129065760405162461bcd60e51b815260040180806020018281038252602a815260200180612b90602a913960400191505060405180910390fd5b505050565b6000818484111561295d5760405162461bcd60e51b81526020600482018181528351602484015283519092839260449091019190850190808383600083156128045781810151838201526020016127ec565b505050900390565b60606125378484600085606061297a85612adc565b6129cb576040805162461bcd60e51b815260206004820152601d60248201527f416464726573733a2063616c6c20746f206e6f6e2d636f6e7472616374000000604482015290519081900360640190fd5b60006060866001600160a01b031685876040518082805190602001908083835b60208310612a0a5780518252601f1990920191602091820191016129eb565b6001836020036101000a03801982511681845116808217855250505050505090500191505060006040518083038185875af1925050503d8060008114612a6c576040519150601f19603f3d011682016040523d82523d6000602084013e612a71565b606091505b50915091508115612a855791506125379050565b805115612a955780518082602001fd5b60405162461bcd60e51b81526020600482018181528651602484015286518793919283926044019190850190808383600083156128045781810151838201526020016127ec565b3b15159056fe45434453413a20696e76616c6964207369676e6174757265202773272076616c7565526566657272616c56616c696461746f723a2053656e646572206e6f742061646d696e45434453413a20696e76616c6964207369676e6174757265202776272076616c7565536166654d6174683a206d756c7469706c69636174696f6e206f766572666c6f774d6574615472616e73616374696f6e52656365697665723a207a65726f20616464726573735361666545524332303a204552433230206f7065726174696f6e20646964206e6f742073756363656564a264697066735822122077f2d13cbcb85fa08010a53c1e4ef27117b031e8c1c9273d55cef362af299f3164736f6c6343000605003345737461746553616c6557697468417574683a207a65726f20616464726573734d6574615472616e73616374696f6e52656365697665723a207a65726f206164647265737345737461746553616c6557697468417574683a206973206e6f74206120636f6e7472616374",
  "devdoc": {
    "methods": {
      "buyLandWithSand(address,address,address,uint256[],bytes32,uint256[],bytes32[],bytes,bytes)": {
        "params": {
          "assetIds": "asset ids (lands) that will be bought",
          "buyer": "address that perform the payment",
          "info": "[X_INDEX=0] x coordinate of the Land [Y_INDEX=1] y coordinate of the Land [SIZE_INDEX=2] size of the pack of Land to purchase [PRICE_INDEX=3] price in SAND to purchase that Land",
          "proof": "merkleProof for that particular Land",
          "referral": "referral id",
          "reserved": "the reserved address (if any)",
          "salt": "The salt submitted for verification.",
          "signature": "A signed message specifying tx details",
          "to": "address that will own the purchased Land"
        }
      },
      "changeAdmin(address)": {
        "details": "change the administrator to be `newAdmin`.",
        "params": {
          "newAdmin": "address of the new administrator."
        }
      },
      "disablePreviousSigningWallet(address)": {
        "details": "Disable compromised signing wallet",
        "params": {
          "disableWallet": "The wallet address to be disabled"
        }
      },
      "getAdmin()": {
        "details": "gives the current administrator of this contract.",
        "returns": {
          "_0": "the current administrator of this contract."
        }
      },
      "getSigningWallet()": {
        "details": "signing wallet authorized for referral",
        "returns": {
          "_0": "the address of the signing wallet"
        }
      },
      "isMetaTransactionProcessor(address)": {
        "details": "check whether address `who` is given meta-transaction execution rights.",
        "params": {
          "who": "The address to query."
        },
        "returns": {
          "_0": "whether the address has meta-transaction execution rights."
        }
      },
      "isReferralValid(bytes,address,address,uint256,uint256)": {
        "params": {
          "commissionRate": "The commissionRate of the referral",
          "expiryTime": "The expiry time of the referral",
          "referee": "The address of the referee",
          "referrer": "The address of the referrer",
          "signature": "The signature to check (signed referral)"
        },
        "returns": {
          "_0": "True if the referral is valid"
        }
      },
      "setMetaTransactionProcessor(address,bool)": {
        "details": "Enable or disable the ability of `metaTransactionProcessor` to perform meta-tx (metaTransactionProcessor rights).",
        "params": {
          "enabled": "set whether the metaTransactionProcessor is enabled or disabled.",
          "metaTransactionProcessor": "address that will be given/removed metaTransactionProcessor rights."
        }
      },
      "setReceivingWallet(address)": {
        "params": {
          "newWallet": "address of the new receiving wallet"
        }
      },
      "updateMaxCommissionRate(uint256)": {
        "details": "Update the maximum commission rate",
        "params": {
          "newMaxCommissionRate": "The new maximum commission rate"
        }
      },
      "updateSigningWallet(address)": {
        "details": "Update the signing wallet The previous wallet is still valid for a grace period (_previousSigningDelay). If you want to disable the previous wallet, use the disablePreviousSigningWallet function.",
        "params": {
          "newSigningWallet": "The new address of the signing wallet"
        }
      },
      "withdrawAssets(address,uint256[],uint256[])": {
        "params": {
          "assetIds": "the assetIds to be transferred",
          "to": "intended recipient of the asset tokens",
          "values": "the quantities of the assetIds to be transferred"
        }
      }
    },
    "title": "Estate Sale contract with referral"
  },
  "userdoc": {
    "methods": {
      "buyLandWithSand(address,address,address,uint256[],bytes32,uint256[],bytes32[],bytes,bytes)": {
        "notice": "buy Land with SAND using the merkle proof associated with it"
      },
      "getExpiryTime()": {
        "notice": "Gets the expiry time for the current sale"
      },
      "getMaxCommissionRate()": {
        "notice": "the max commission rate"
      },
      "getMerkleRoot()": {
        "notice": "Gets the Merkle root associated with the current sale"
      },
      "isReferralValid(bytes,address,address,uint256,uint256)": {
        "notice": "Check if a referral is valid"
      },
      "setReceivingWallet(address)": {
        "notice": "set the wallet receiving the proceeds"
      },
      "withdrawAssets(address,uint256[],uint256[])": {
        "notice": "enable Admin to withdraw remaining assets from EstateSaleWithFee contract"
      }
    },
    "notice": "This contract manages the sale of our lands as Estates"
  },
  "storageLayout": {
    "storage": [
      {
        "astId": 1129,
        "contract": "src/solc_0.6/EstateSale/EstateSaleWithAuth.sol:EstateSaleWithAuth",
        "label": "_status",
        "offset": 0,
        "slot": "0",
        "type": "t_uint256"
      },
      {
        "astId": 14099,
        "contract": "src/solc_0.6/EstateSale/EstateSaleWithAuth.sol:EstateSaleWithAuth",
        "label": "_admin",
        "offset": 0,
        "slot": "1",
        "type": "t_address"
      },
      {
        "astId": 14168,
        "contract": "src/solc_0.6/EstateSale/EstateSaleWithAuth.sol:EstateSaleWithAuth",
        "label": "_metaTransactionContracts",
        "offset": 0,
        "slot": "2",
        "type": "t_mapping(t_address,t_bool)"
      },
      {
        "astId": 12200,
        "contract": "src/solc_0.6/EstateSale/EstateSaleWithAuth.sol:EstateSaleWithAuth",
        "label": "_signingWallet",
        "offset": 0,
        "slot": "3",
        "type": "t_address"
      },
      {
        "astId": 12202,
        "contract": "src/solc_0.6/EstateSale/EstateSaleWithAuth.sol:EstateSaleWithAuth",
        "label": "_maxCommissionRate",
        "offset": 0,
        "slot": "4",
        "type": "t_uint256"
      },
      {
        "astId": 12206,
        "contract": "src/solc_0.6/EstateSale/EstateSaleWithAuth.sol:EstateSaleWithAuth",
        "label": "_previousSigningWallets",
        "offset": 0,
        "slot": "5",
        "type": "t_mapping(t_address,t_uint256)"
      },
      {
        "astId": 7750,
        "contract": "src/solc_0.6/EstateSale/EstateSaleWithAuth.sol:EstateSaleWithAuth",
        "label": "_wallet",
        "offset": 0,
        "slot": "6",
        "type": "t_address_payable"
      },
      {
        "astId": 7752,
        "contract": "src/solc_0.6/EstateSale/EstateSaleWithAuth.sol:EstateSaleWithAuth",
        "label": "_authValidator",
        "offset": 0,
        "slot": "7",
        "type": "t_contract(AuthValidator)7063"
      }
    ],
    "types": {
      "t_address": {
        "encoding": "inplace",
        "label": "address",
        "numberOfBytes": "20"
      },
      "t_address_payable": {
        "encoding": "inplace",
        "label": "address payable",
        "numberOfBytes": "20"
      },
      "t_bool": {
        "encoding": "inplace",
        "label": "bool",
        "numberOfBytes": "1"
      },
      "t_contract(AuthValidator)7063": {
        "encoding": "inplace",
        "label": "contract AuthValidator",
        "numberOfBytes": "20"
      },
      "t_mapping(t_address,t_bool)": {
        "encoding": "mapping",
        "key": "t_address",
        "label": "mapping(address => bool)",
        "numberOfBytes": "32",
        "value": "t_bool"
      },
      "t_mapping(t_address,t_uint256)": {
        "encoding": "mapping",
        "key": "t_address",
        "label": "mapping(address => uint256)",
        "numberOfBytes": "32",
        "value": "t_uint256"
      },
      "t_uint256": {
        "encoding": "inplace",
        "label": "uint256",
        "numberOfBytes": "32"
      }
    }
  }
}