{
  "address": "0xe9d9955DbBBe84aD19c739194E6C2a404Af1CC33",
  "abi": [
    {
      "inputs": [
        {
          "internalType": "contract IERC20",
          "name": "stakeToken",
          "type": "address"
        },
        {
          "internalType": "contract IERC20",
          "name": "rewardToken",
          "type": "address"
        },
        {
          "internalType": "contract IERC721",
          "name": "multiplierNFToken",
          "type": "address"
        },
        {
          "internalType": "uint256",
          "name": "rewardDuration",
          "type": "uint256"
        }
      ],
      "stateMutability": "nonpayable",
      "type": "constructor"
    },
    {
      "anonymous": false,
      "inputs": [
        {
          "indexed": true,
          "internalType": "address",
          "name": "user",
          "type": "address"
        },
        {
          "indexed": false,
          "internalType": "uint256",
          "name": "multiplier",
          "type": "uint256"
        },
        {
          "indexed": false,
          "internalType": "uint256",
          "name": "contribution",
          "type": "uint256"
        }
      ],
      "name": "MultiplierComputed",
      "type": "event"
    },
    {
      "anonymous": false,
      "inputs": [
        {
          "indexed": true,
          "internalType": "address",
          "name": "previousOwner",
          "type": "address"
        },
        {
          "indexed": true,
          "internalType": "address",
          "name": "newOwner",
          "type": "address"
        }
      ],
      "name": "OwnershipTransferred",
      "type": "event"
    },
    {
      "anonymous": false,
      "inputs": [
        {
          "indexed": false,
          "internalType": "uint256",
          "name": "reward",
          "type": "uint256"
        }
      ],
      "name": "RewardAdded",
      "type": "event"
    },
    {
      "anonymous": false,
      "inputs": [
        {
          "indexed": true,
          "internalType": "address",
          "name": "user",
          "type": "address"
        },
        {
          "indexed": false,
          "internalType": "uint256",
          "name": "reward",
          "type": "uint256"
        }
      ],
      "name": "RewardPaid",
      "type": "event"
    },
    {
      "anonymous": false,
      "inputs": [
        {
          "indexed": true,
          "internalType": "address",
          "name": "user",
          "type": "address"
        },
        {
          "indexed": false,
          "internalType": "uint256",
          "name": "amount",
          "type": "uint256"
        }
      ],
      "name": "Staked",
      "type": "event"
    },
    {
      "anonymous": false,
      "inputs": [
        {
          "indexed": true,
          "internalType": "address",
          "name": "user",
          "type": "address"
        },
        {
          "indexed": false,
          "internalType": "uint256",
          "name": "amount",
          "type": "uint256"
        }
      ],
      "name": "Withdrawn",
      "type": "event"
    },
    {
      "inputs": [
        {
          "internalType": "address",
          "name": "newNFTMultiplierToken",
          "type": "address"
        }
      ],
      "name": "SetNFTMultiplierToken",
      "outputs": [],
      "stateMutability": "nonpayable",
      "type": "function"
    },
    {
      "inputs": [
        {
          "internalType": "address",
          "name": "newRewardToken",
          "type": "address"
        }
      ],
      "name": "SetRewardToken",
      "outputs": [],
      "stateMutability": "nonpayable",
      "type": "function"
    },
    {
      "inputs": [
        {
          "internalType": "address",
          "name": "newStakeLPToken",
          "type": "address"
        }
      ],
      "name": "SetStakeLPToken",
      "outputs": [],
      "stateMutability": "nonpayable",
      "type": "function"
    },
    {
      "inputs": [
        {
          "internalType": "address",
          "name": "account",
          "type": "address"
        }
      ],
      "name": "balanceOf",
      "outputs": [
        {
          "internalType": "uint256",
          "name": "",
          "type": "uint256"
        }
      ],
      "stateMutability": "view",
      "type": "function"
    },
    {
      "inputs": [
        {
          "internalType": "uint256",
          "name": "amountStaked",
          "type": "uint256"
        },
        {
          "internalType": "uint256",
          "name": "numLands",
          "type": "uint256"
        }
      ],
      "name": "computeContribution",
      "outputs": [
        {
          "internalType": "uint256",
          "name": "",
          "type": "uint256"
        }
      ],
      "stateMutability": "pure",
      "type": "function"
    },
    {
      "inputs": [
        {
          "internalType": "address",
          "name": "account",
          "type": "address"
        }
      ],
      "name": "computeMultiplier",
      "outputs": [],
      "stateMutability": "nonpayable",
      "type": "function"
    },
    {
      "inputs": [
        {
          "internalType": "address",
          "name": "account",
          "type": "address"
        }
      ],
      "name": "contributionOf",
      "outputs": [
        {
          "internalType": "uint256",
          "name": "",
          "type": "uint256"
        }
      ],
      "stateMutability": "view",
      "type": "function"
    },
    {
      "inputs": [],
      "name": "duration",
      "outputs": [
        {
          "internalType": "uint256",
          "name": "",
          "type": "uint256"
        }
      ],
      "stateMutability": "view",
      "type": "function"
    },
    {
      "inputs": [
        {
          "internalType": "address",
          "name": "account",
          "type": "address"
        }
      ],
      "name": "earned",
      "outputs": [
        {
          "internalType": "uint256",
          "name": "",
          "type": "uint256"
        }
      ],
      "stateMutability": "view",
      "type": "function"
    },
    {
      "inputs": [],
      "name": "exit",
      "outputs": [],
      "stateMutability": "nonpayable",
      "type": "function"
    },
    {
      "inputs": [],
      "name": "getReward",
      "outputs": [],
      "stateMutability": "nonpayable",
      "type": "function"
    },
    {
      "inputs": [],
      "name": "lastTimeRewardApplicable",
      "outputs": [
        {
          "internalType": "uint256",
          "name": "",
          "type": "uint256"
        }
      ],
      "stateMutability": "view",
      "type": "function"
    },
    {
      "inputs": [],
      "name": "lastUpdateTime",
      "outputs": [
        {
          "internalType": "uint256",
          "name": "",
          "type": "uint256"
        }
      ],
      "stateMutability": "view",
      "type": "function"
    },
    {
      "inputs": [
        {
          "internalType": "address",
          "name": "account",
          "type": "address"
        }
      ],
      "name": "multiplierOf",
      "outputs": [
        {
          "internalType": "uint256",
          "name": "",
          "type": "uint256"
        }
      ],
      "stateMutability": "view",
      "type": "function"
    },
    {
      "inputs": [
        {
          "internalType": "uint256",
          "name": "reward",
          "type": "uint256"
        }
      ],
      "name": "notifyRewardAmount",
      "outputs": [],
      "stateMutability": "nonpayable",
      "type": "function"
    },
    {
      "inputs": [],
      "name": "owner",
      "outputs": [
        {
          "internalType": "address",
          "name": "",
          "type": "address"
        }
      ],
      "stateMutability": "view",
      "type": "function"
    },
    {
      "inputs": [],
      "name": "periodFinish",
      "outputs": [
        {
          "internalType": "uint256",
          "name": "",
          "type": "uint256"
        }
      ],
      "stateMutability": "view",
      "type": "function"
    },
    {
      "inputs": [],
      "name": "renounceOwnership",
      "outputs": [],
      "stateMutability": "nonpayable",
      "type": "function"
    },
    {
      "inputs": [],
      "name": "rewardDistribution",
      "outputs": [
        {
          "internalType": "address",
          "name": "",
          "type": "address"
        }
      ],
      "stateMutability": "view",
      "type": "function"
    },
    {
      "inputs": [],
      "name": "rewardPerToken",
      "outputs": [
        {
          "internalType": "uint256",
          "name": "",
          "type": "uint256"
        }
      ],
      "stateMutability": "view",
      "type": "function"
    },
    {
      "inputs": [],
      "name": "rewardPerTokenStored",
      "outputs": [
        {
          "internalType": "uint256",
          "name": "",
          "type": "uint256"
        }
      ],
      "stateMutability": "view",
      "type": "function"
    },
    {
      "inputs": [],
      "name": "rewardRate",
      "outputs": [
        {
          "internalType": "uint256",
          "name": "",
          "type": "uint256"
        }
      ],
      "stateMutability": "view",
      "type": "function"
    },
    {
      "inputs": [
        {
          "internalType": "address",
          "name": "",
          "type": "address"
        }
      ],
      "name": "rewards",
      "outputs": [
        {
          "internalType": "uint256",
          "name": "",
          "type": "uint256"
        }
      ],
      "stateMutability": "view",
      "type": "function"
    },
    {
      "inputs": [
        {
          "internalType": "address",
          "name": "_rewardDistribution",
          "type": "address"
        }
      ],
      "name": "setRewardDistribution",
      "outputs": [],
      "stateMutability": "nonpayable",
      "type": "function"
    },
    {
      "inputs": [
        {
          "internalType": "uint256",
          "name": "amount",
          "type": "uint256"
        }
      ],
      "name": "stake",
      "outputs": [],
      "stateMutability": "nonpayable",
      "type": "function"
    },
    {
      "inputs": [],
      "name": "totalContributions",
      "outputs": [
        {
          "internalType": "uint256",
          "name": "",
          "type": "uint256"
        }
      ],
      "stateMutability": "view",
      "type": "function"
    },
    {
      "inputs": [],
      "name": "totalSupply",
      "outputs": [
        {
          "internalType": "uint256",
          "name": "",
          "type": "uint256"
        }
      ],
      "stateMutability": "view",
      "type": "function"
    },
    {
      "inputs": [
        {
          "internalType": "address",
          "name": "newOwner",
          "type": "address"
        }
      ],
      "name": "transferOwnership",
      "outputs": [],
      "stateMutability": "nonpayable",
      "type": "function"
    },
    {
      "inputs": [
        {
          "internalType": "address",
          "name": "",
          "type": "address"
        }
      ],
      "name": "userRewardPerTokenPaid",
      "outputs": [
        {
          "internalType": "uint256",
          "name": "",
          "type": "uint256"
        }
      ],
      "stateMutability": "view",
      "type": "function"
    },
    {
      "inputs": [
        {
          "internalType": "uint256",
          "name": "amount",
          "type": "uint256"
        }
      ],
      "name": "withdraw",
      "outputs": [],
      "stateMutability": "nonpayable",
      "type": "function"
    }
  ],
  "transactionHash": "0x7dae171feead7b26bfab93b3f8b924cd3a981cb1d427f254f6750a021d0d9d33",
  "args": [
    "0xFc22e1c1552D80faBa443fEE74c6FA19665cE931",
    "0xD20fbd836e80DabFb777E6AaBbe52e96c07eCD1B",
    "0xEdE111C053616a91975488F8aB3B51382A32979b",
    2419200
  ],
  "numDeployments": 1,
  "solcInputHash": "8647b3c46fdd7d95d4038ddf2cc1e589",
  "bytecode": "0x60a0604052600060065560006007553480156200001b57600080fd5b5060405162001ce538038062001ce58339810160408190526200003e91620000fc565b600080546001600160a01b0319166001600160a01b0386161790556200006b620000653390565b620000aa565b6001600555600c80546001600160a01b039485166001600160a01b031991821617909155600d805493909416921691909117909155608052506200016e565b600380546001600160a01b038381166001600160a01b0319831681179093556040519116919082907f8be0079c531659141344cd1fd0a4f28419497f9722a3daafe3b4186f6b6457e090600090a35050565b6000806000806080858703121562000112578384fd5b84516200011f8162000155565b6020860151909450620001328162000155565b6040860151909350620001458162000155565b6060959095015193969295505050565b6001600160a01b03811681146200016b57600080fd5b50565b608051611b466200019f6000396000818161025101528181610947015281816109a301526109de0152611b466000f3fe608060405234801561001057600080fd5b50600436106101d95760003560e01c8063715018a611610104578063c8f33c91116100a2578063df136d6511610071578063df136d6514610411578063e9fad8ee1461041a578063ebe2b12b14610422578063f2fde38b1461042b576101d9565b8063c8f33c91146103c4578063cd3daf9d146103cd578063d7805ece146103d5578063de4ef212146103fe576101d9565b80638b876347116100de5780638b876347146103575780638da5cb5b146103775780638e4a524814610388578063a694fc3a146103b1576101d9565b8063715018a61461033e5780637b0a47ee1461034657806380faa57d1461034f576101d9565b80631b510c141161017c5780633d18b9121161014b5780633d18b912146102e757806362dfa108146102ef5780636f8c206c1461030257806370a0823114610315576101d9565b80631b510c14146102a65780632e1a7d4d146102b957806337c08923146102cc5780633c6b16ab146102d4576101d9565b80630d68b761116101b85780630d68b761146102395780630fb5a6b41461024c578063101114cf1461027357806318160ddd1461029e576101d9565b80628cc262146101de5780630700037d146102045780630756844114610224575b600080fd5b6101f16101ec366004611830565b61043e565b6040519081526020015b60405180910390f35b6101f1610212366004611830565b600b6020526000908152604090205481565b610237610232366004611830565b6104bf565b005b610237610247366004611830565b6105a4565b6101f17f000000000000000000000000000000000000000000000000000000000000000081565b600454610286906001600160a01b031681565b6040516001600160a01b0390911681526020016101fb565b6101f161062d565b6101f16102b43660046118a7565b610634565b6102376102c7366004611877565b6106cf565b600e546101f1565b6102376102e2366004611877565b61083b565b610237610a3c565b6102376102fd366004611830565b610b81565b610237610310366004611830565b610cfd565b6101f1610323366004611830565b6001600160a01b031660009081526002602052604090205490565b610237610ddd565b6101f160075481565b6101f1610e43565b6101f1610365366004611830565b600a6020526000908152604090205481565b6003546001600160a01b0316610286565b6101f1610396366004611830565b6001600160a01b03166000908152600f602052604090205490565b6102376103bf366004611877565b610e56565b6101f160085481565b6101f1610fb5565b6101f16103e3366004611830565b6001600160a01b031660009081526010602052604090205490565b61023761040c366004611830565b611007565b6101f160095481565b6102376110e7565b6101f160065481565b610237610439366004611830565b611108565b6001600160a01b0381166000908152600b6020908152604080832054600a9092528220546104b991906104b39069d3c21bcecceda1000000906104ad9061048d90610487610fb5565b906111ea565b6001600160a01b0388166000908152601060205260409020545b906111fd565b90611209565b90611215565b92915050565b6003546001600160a01b0316331461051e5760405162461bcd60e51b815260206004820181905260248201527f4f776e61626c653a2063616c6c6572206973206e6f7420746865206f776e657260448201526064015b60405180910390fd5b6001600160a01b0381163b6105755760405162461bcd60e51b815260206004820152601660248201527f426164205374616b65546f6b656e2061646472657373000000000000000000006044820152606401610515565b6000805473ffffffffffffffffffffffffffffffffffffffff19166001600160a01b0392909216919091179055565b6003546001600160a01b031633146105fe5760405162461bcd60e51b815260206004820181905260248201527f4f776e61626c653a2063616c6c6572206973206e6f7420746865206f776e65726044820152606401610515565b6004805473ffffffffffffffffffffffffffffffffffffffff19166001600160a01b0392909216919091179055565b6001545b90565b6000816106425750816104b9565b600061067961067061066761066260016104b36102b96104a78a846111ea565b611221565b61232890611215565b612710906111fd565b9050631dcd65008111156106ab576106a861069d600a6104ad84631dcd65006111ea565b631dcd650090611215565b90505b6106c76106c0633b9aca006104ad87856111fd565b8590611215565b949350505050565b600260055414156107225760405162461bcd60e51b815260206004820152601f60248201527f5265656e7472616e637947756172643a207265656e7472616e742063616c6c006044820152606401610515565b600260055533610730610fb5565b600955600654421015806107455750600e5415155b1561075657610752610e43565b6008555b6001600160a01b0381161561079a5761076e8161043e565b6001600160a01b0382166000908152600b6020908152604080832093909355600954600a909152919020555b600082116107ea5760405162461bcd60e51b815260206004820152601160248201527f43616e6e6f7420776974686472617720300000000000000000000000000000006044820152606401610515565b6107f3826112f4565b6107fc33611349565b60405182815233907f7084f5476618d8e60b11ef0d7d3f06914655adb8793e28ff7f018d4c76d505d5906020015b60405180910390a250506001600555565b6004546001600160a01b0316336001600160a01b0316146108c45760405162461bcd60e51b815260206004820152602160248201527f43616c6c6572206973206e6f742072657761726420646973747269627574696f60448201527f6e000000000000000000000000000000000000000000000000000000000000006064820152608401610515565b60006108ce610fb5565b600955600654421015806108e35750600e5415155b156108f4576108f0610e43565b6008555b6001600160a01b038116156109385761090c8161043e565b6001600160a01b0382166000908152600b6020908152604080832093909355600954600a909152919020555b60065442106109735761096b827f0000000000000000000000000000000000000000000000000000000000000000611209565b6007556109d2565b60065460009061098390426111ea565b9050600061099c600754836111fd90919063ffffffff16565b90506109cc7f00000000000000000000000000000000000000000000000000000000000000006104ad8684611215565b60075550505b426008819055610a02907f0000000000000000000000000000000000000000000000000000000000000000611215565b6006556040518281527fde88a922e0d3b88b24e9623efeb464919c6bf9f66857a65e2bfcf2ce87a9433d9060200160405180910390a15050565b60026005541415610a8f5760405162461bcd60e51b815260206004820152601f60248201527f5265656e7472616e637947756172643a207265656e7472616e742063616c6c006044820152606401610515565b600260055533610a9d610fb5565b60095560065442101580610ab25750600e5415155b15610ac357610abf610e43565b6008555b6001600160a01b03811615610b0757610adb8161043e565b6001600160a01b0382166000908152600b6020908152604080832093909355600954600a909152919020555b336000908152600b60205260409020548015610b7857336000818152600b6020526040812055600c54610b46916001600160a01b039091169083611470565b60405181815233907fe2403640ba68fed3a2f88b7557551d1993f84b99bb10ff833f0cf8db0c5e04869060200161082a565b50506001600555565b60045481906001600160a01b0316336001600160a01b03161480610bad5750336001600160a01b038216145b610c1f5760405162461bcd60e51b815260206004820152602c60248201527f43616c6c6572206973206e6f742072657761726420646973747269627574696f60448201527f6e206f72206163636f756e7400000000000000000000000000000000000000006064820152608401610515565b81610c28610fb5565b60095560065442101580610c3d5750600e5415155b15610c4e57610c4a610e43565b6008555b6001600160a01b03811615610c9257610c668161043e565b6001600160a01b0382166000908152600b6020908152604080832093909355600954600a909152919020555b610c9b83611349565b6001600160a01b0383166000818152600f602090815260408083205460108352928190205481519384529183019190915280517fe483f88a85578f0fc325c6aabb8f618d2d0f712d8e98493e8cc1fba91d61b7789281900390910190a2505050565b6003546001600160a01b03163314610d575760405162461bcd60e51b815260206004820181905260248201527f4f776e61626c653a2063616c6c6572206973206e6f7420746865206f776e65726044820152606401610515565b6001600160a01b0381163b610dae5760405162461bcd60e51b815260206004820152601760248201527f42616420526577617264546f6b656e20616464726573730000000000000000006044820152606401610515565b600c805473ffffffffffffffffffffffffffffffffffffffff19166001600160a01b0392909216919091179055565b6003546001600160a01b03163314610e375760405162461bcd60e51b815260206004820181905260248201527f4f776e61626c653a2063616c6c6572206973206e6f7420746865206f776e65726044820152606401610515565b610e41600061151e565b565b6000610e514260065461157d565b905090565b60026005541415610ea95760405162461bcd60e51b815260206004820152601f60248201527f5265656e7472616e637947756172643a207265656e7472616e742063616c6c006044820152606401610515565b600260055533610eb7610fb5565b60095560065442101580610ecc5750600e5415155b15610edd57610ed9610e43565b6008555b6001600160a01b03811615610f2157610ef58161043e565b6001600160a01b0382166000908152600b6020908152604080832093909355600954600a909152919020555b60008211610f715760405162461bcd60e51b815260206004820152600e60248201527f43616e6e6f74207374616b6520300000000000000000000000000000000000006044820152606401610515565b610f7a82611593565b610f8333611349565b60405182815233907f9e71bc8eea02a63969f509818f2dafb9254532904319f9dbda79b67bd34a5f3d9060200161082a565b6000610fc0600e5490565b610fcd5750600954610631565b610e51610ffe610fdc600e5490565b6104ad69d3c21bcecceda10000006104a76007546104a7600854610487610e43565b60095490611215565b6003546001600160a01b031633146110615760405162461bcd60e51b815260206004820181905260248201527f4f776e61626c653a2063616c6c6572206973206e6f7420746865206f776e65726044820152606401610515565b6001600160a01b0381163b6110b85760405162461bcd60e51b815260206004820152601e60248201527f426164204e46544d756c7469706c696572546f6b656e206164647265737300006044820152606401610515565b600d805473ffffffffffffffffffffffffffffffffffffffff19166001600160a01b0392909216919091179055565b33600090815260026020526040902054611100906102c7565b610e41610a3c565b6003546001600160a01b031633146111625760405162461bcd60e51b815260206004820181905260248201527f4f776e61626c653a2063616c6c6572206973206e6f7420746865206f776e65726044820152606401610515565b6001600160a01b0381166111de5760405162461bcd60e51b815260206004820152602660248201527f4f776e61626c653a206e6577206f776e657220697320746865207a65726f206160448201527f64647265737300000000000000000000000000000000000000000000000000006064820152608401610515565b6111e78161151e565b50565b60006111f68284611a9e565b9392505050565b60006111f68284611a7f565b60006111f6828461192f565b60006111f68284611917565b6000611231633b9aca0083611a7f565b915060006003611242846002611917565b61124c919061192f565b90508291505b818110156112ee57905080600061126a6002836119ae565b90508181116112bb5760405162461bcd60e51b815260206004820152600860248201527f6f766572666c6f770000000000000000000000000000000000000000000000006044820152606401610515565b60036112c8836002611a7f565b6112d2838761192f565b6112dc9190611917565b6112e6919061192f565b915050611252565b50919050565b60015461130190826111ea565b6001553360009081526002602052604090205461131e90826111ea565b3360008181526002602052604081209290925590546111e7916001600160a01b039091169083611470565b61137461136b826001600160a01b031660009081526010602052604090205490565b600e54906111ea565b600e55600d546040517f70a082310000000000000000000000000000000000000000000000000000000081526001600160a01b038381166004830152909116906370a082319060240160206040518083038186803b1580156113d557600080fd5b505afa1580156113e9573d6000803e3d6000fd5b505050506040513d601f19601f8201168201806040525081019061140d919061188f565b6001600160a01b0382166000908152600f6020818152604080842085905560028252832054919052909161144191906102b4565b600e549091506114519082611215565b600e556001600160a01b03909116600090815260106020526040902055565b6040516001600160a01b0383166024820152604481018290526115199084907fa9059cbb00000000000000000000000000000000000000000000000000000000906064015b60408051601f198184030181529190526020810180517bffffffffffffffffffffffffffffffffffffffffffffffffffffffff167fffffffff00000000000000000000000000000000000000000000000000000000909316929092179091526115e9565b505050565b600380546001600160a01b0383811673ffffffffffffffffffffffffffffffffffffffff19831681179093556040519116919082907f8be0079c531659141344cd1fd0a4f28419497f9722a3daafe3b4186f6b6457e090600090a35050565b600081831061158c57816111f6565b5090919050565b6001546115a09082611215565b600155336000908152600260205260409020546115bd9082611215565b3360008181526002602052604081209290925590546111e7916001600160a01b039091169030846116ce565b600061163e826040518060400160405280602081526020017f5361666545524332303a206c6f772d6c6576656c2063616c6c206661696c6564815250856001600160a01b03166117259092919063ffffffff16565b805190915015611519578080602001905181019061165c9190611857565b6115195760405162461bcd60e51b815260206004820152602a60248201527f5361666545524332303a204552433230206f7065726174696f6e20646964206e60448201527f6f742073756363656564000000000000000000000000000000000000000000006064820152608401610515565b6040516001600160a01b038085166024830152831660448201526064810182905261171f9085907f23b872dd00000000000000000000000000000000000000000000000000000000906084016114b5565b50505050565b60606106c7848460008585843b61177e5760405162461bcd60e51b815260206004820152601d60248201527f416464726573733a2063616c6c20746f206e6f6e2d636f6e74726163740000006044820152606401610515565b600080866001600160a01b0316858760405161179a91906118c8565b60006040518083038185875af1925050503d80600081146117d7576040519150601f19603f3d011682016040523d82523d6000602084013e6117dc565b606091505b50915091506117ec8282866117f7565b979650505050505050565b606083156118065750816111f6565b8251156118165782518084602001fd5b8160405162461bcd60e51b815260040161051591906118e4565b600060208284031215611841578081fd5b81356001600160a01b03811681146111f6578182fd5b600060208284031215611868578081fd5b815180151581146111f6578182fd5b600060208284031215611888578081fd5b5035919050565b6000602082840312156118a0578081fd5b5051919050565b600080604083850312156118b9578081fd5b50508035926020909101359150565b600082516118da818460208701611ab5565b9190910192915050565b6000602082528251806020840152611903816040850160208701611ab5565b601f01601f19169190910160400192915050565b6000821982111561192a5761192a611ae1565b500190565b600082611963577f4e487b710000000000000000000000000000000000000000000000000000000081526012600452602481fd5b500490565b80825b600180861161197a57506119a5565b81870482111561198c5761198c611ae1565b8086161561199957918102915b9490941c93800261196b565b94509492505050565b60006111f660001960ff8516846000826119ca575060016111f6565b816119d7575060006111f6565b81600181146119ed57600281146119f757611a24565b60019150506111f6565b60ff841115611a0857611a08611ae1565b6001841b915084821115611a1e57611a1e611ae1565b506111f6565b5060208310610133831016604e8410600b8410161715611a57575081810a83811115611a5257611a52611ae1565b6111f6565b611a648484846001611968565b808604821115611a7657611a76611ae1565b02949350505050565b6000816000190483118215151615611a9957611a99611ae1565b500290565b600082821015611ab057611ab0611ae1565b500390565b60005b83811015611ad0578181015183820152602001611ab8565b8381111561171f5750506000910152565b7f4e487b7100000000000000000000000000000000000000000000000000000000600052601160045260246000fdfea26469706673582212206a3d7a1fc328215cb3cb2ac04d41a1ea08f05383e290e494aafe1a42a7d148ea64736f6c63430008020033",
  "devdoc": {
    "kind": "dev",
    "methods": {
      "notifyRewardAmount(uint256)": {
        "params": {
          "reward": "number of token to be distributed over the duration"
        }
      },
      "owner()": {
        "details": "Returns the address of the current owner."
      },
      "renounceOwnership()": {
        "details": "Leaves the contract without owner. It will not be possible to call `onlyOwner` functions anymore. Can only be called by the current owner. NOTE: Renouncing ownership will leave the contract without an owner, thereby removing any functionality that is only available to the owner."
      },
      "transferOwnership(address)": {
        "details": "Transfers ownership of the contract to a new account (`newOwner`). Can only be called by the current owner."
      }
    },
    "version": 1
  },
  "userdoc": {
    "kind": "user",
    "methods": {},
    "notice": "Reward Pool based on unipool contract : https://github.com/Synthetixio/Unipool/blob/master/contracts/Unipool.sol",
    "version": 1
  },
  "storageLayout": {
    "storage": [
      {
        "astId": 40880,
        "contract": "src/solc_0.8/polygon/LiquidityMining/PolygonLandWeightedSANDRewardPool.sol:PolygonLandWeightedSANDRewardPool",
        "label": "_stakeToken",
        "offset": 0,
        "slot": "0",
        "type": "t_contract(IERC20)5409"
      },
      {
        "astId": 40882,
        "contract": "src/solc_0.8/polygon/LiquidityMining/PolygonLandWeightedSANDRewardPool.sol:PolygonLandWeightedSANDRewardPool",
        "label": "_totalSupply",
        "offset": 0,
        "slot": "1",
        "type": "t_uint256"
      },
      {
        "astId": 40886,
        "contract": "src/solc_0.8/polygon/LiquidityMining/PolygonLandWeightedSANDRewardPool.sol:PolygonLandWeightedSANDRewardPool",
        "label": "_balances",
        "offset": 0,
        "slot": "2",
        "type": "t_mapping(t_address,t_uint256)"
      },
      {
        "astId": 2933,
        "contract": "src/solc_0.8/polygon/LiquidityMining/PolygonLandWeightedSANDRewardPool.sol:PolygonLandWeightedSANDRewardPool",
        "label": "_owner",
        "offset": 0,
        "slot": "3",
        "type": "t_address"
      },
      {
        "astId": 40809,
        "contract": "src/solc_0.8/polygon/LiquidityMining/PolygonLandWeightedSANDRewardPool.sol:PolygonLandWeightedSANDRewardPool",
        "label": "rewardDistribution",
        "offset": 0,
        "slot": "4",
        "type": "t_address"
      },
      {
        "astId": 3133,
        "contract": "src/solc_0.8/polygon/LiquidityMining/PolygonLandWeightedSANDRewardPool.sol:PolygonLandWeightedSANDRewardPool",
        "label": "_status",
        "offset": 0,
        "slot": "5",
        "type": "t_uint256"
      },
      {
        "astId": 41045,
        "contract": "src/solc_0.8/polygon/LiquidityMining/PolygonLandWeightedSANDRewardPool.sol:PolygonLandWeightedSANDRewardPool",
        "label": "periodFinish",
        "offset": 0,
        "slot": "6",
        "type": "t_uint256"
      },
      {
        "astId": 41048,
        "contract": "src/solc_0.8/polygon/LiquidityMining/PolygonLandWeightedSANDRewardPool.sol:PolygonLandWeightedSANDRewardPool",
        "label": "rewardRate",
        "offset": 0,
        "slot": "7",
        "type": "t_uint256"
      },
      {
        "astId": 41050,
        "contract": "src/solc_0.8/polygon/LiquidityMining/PolygonLandWeightedSANDRewardPool.sol:PolygonLandWeightedSANDRewardPool",
        "label": "lastUpdateTime",
        "offset": 0,
        "slot": "8",
        "type": "t_uint256"
      },
      {
        "astId": 41052,
        "contract": "src/solc_0.8/polygon/LiquidityMining/PolygonLandWeightedSANDRewardPool.sol:PolygonLandWeightedSANDRewardPool",
        "label": "rewardPerTokenStored",
        "offset": 0,
        "slot": "9",
        "type": "t_uint256"
      },
      {
        "astId": 41056,
        "contract": "src/solc_0.8/polygon/LiquidityMining/PolygonLandWeightedSANDRewardPool.sol:PolygonLandWeightedSANDRewardPool",
        "label": "userRewardPerTokenPaid",
        "offset": 0,
        "slot": "10",
        "type": "t_mapping(t_address,t_uint256)"
      },
      {
        "astId": 41060,
        "contract": "src/solc_0.8/polygon/LiquidityMining/PolygonLandWeightedSANDRewardPool.sol:PolygonLandWeightedSANDRewardPool",
        "label": "rewards",
        "offset": 0,
        "slot": "11",
        "type": "t_mapping(t_address,t_uint256)"
      },
      {
        "astId": 41078,
        "contract": "src/solc_0.8/polygon/LiquidityMining/PolygonLandWeightedSANDRewardPool.sol:PolygonLandWeightedSANDRewardPool",
        "label": "_rewardToken",
        "offset": 0,
        "slot": "12",
        "type": "t_contract(IERC20)5409"
      },
      {
        "astId": 41081,
        "contract": "src/solc_0.8/polygon/LiquidityMining/PolygonLandWeightedSANDRewardPool.sol:PolygonLandWeightedSANDRewardPool",
        "label": "_multiplierNFToken",
        "offset": 0,
        "slot": "13",
        "type": "t_contract(IERC721)28281"
      },
      {
        "astId": 41083,
        "contract": "src/solc_0.8/polygon/LiquidityMining/PolygonLandWeightedSANDRewardPool.sol:PolygonLandWeightedSANDRewardPool",
        "label": "_totalContributions",
        "offset": 0,
        "slot": "14",
        "type": "t_uint256"
      },
      {
        "astId": 41087,
        "contract": "src/solc_0.8/polygon/LiquidityMining/PolygonLandWeightedSANDRewardPool.sol:PolygonLandWeightedSANDRewardPool",
        "label": "_multipliers",
        "offset": 0,
        "slot": "15",
        "type": "t_mapping(t_address,t_uint256)"
      },
      {
        "astId": 41091,
        "contract": "src/solc_0.8/polygon/LiquidityMining/PolygonLandWeightedSANDRewardPool.sol:PolygonLandWeightedSANDRewardPool",
        "label": "_contributions",
        "offset": 0,
        "slot": "16",
        "type": "t_mapping(t_address,t_uint256)"
      }
    ],
    "types": {
      "t_address": {
        "encoding": "inplace",
        "label": "address",
        "numberOfBytes": "20"
      },
      "t_contract(IERC20)5409": {
        "encoding": "inplace",
        "label": "contract IERC20",
        "numberOfBytes": "20"
      },
      "t_contract(IERC721)28281": {
        "encoding": "inplace",
        "label": "contract IERC721",
        "numberOfBytes": "20"
      },
      "t_mapping(t_address,t_uint256)": {
        "encoding": "mapping",
        "key": "t_address",
        "label": "mapping(address => uint256)",
        "numberOfBytes": "32",
        "value": "t_uint256"
      },
      "t_uint256": {
        "encoding": "inplace",
        "label": "uint256",
        "numberOfBytes": "32"
      }
    }
  }
}