{
  "address": "0x7F69b6bD7d4aE705A4969dBd5AFBF54c9c3C06e4",
  "abi": [
    {
      "inputs": [
        {
          "internalType": "address",
          "name": "landAddress",
          "type": "address"
        },
        {
          "internalType": "address",
          "name": "sandContractAddress",
          "type": "address"
        },
        {
          "internalType": "address",
          "name": "initialMetaTx",
          "type": "address"
        },
        {
          "internalType": "address",
          "name": "admin",
          "type": "address"
        },
        {
          "internalType": "address payable",
          "name": "initialWalletAddress",
          "type": "address"
        },
        {
          "internalType": "bytes32",
          "name": "merkleRoot",
          "type": "bytes32"
        },
        {
          "internalType": "uint256",
          "name": "expiryTime",
          "type": "uint256"
        },
        {
          "internalType": "address",
          "name": "initialSigningWallet",
          "type": "address"
        },
        {
          "internalType": "uint256",
          "name": "initialMaxCommissionRate",
          "type": "uint256"
        },
        {
          "internalType": "address",
          "name": "estate",
          "type": "address"
        },
        {
          "internalType": "address",
          "name": "asset",
          "type": "address"
        },
        {
          "internalType": "address",
          "name": "feeDistributor",
          "type": "address"
        },
        {
          "internalType": "address",
          "name": "authValidator",
          "type": "address"
        }
      ],
      "stateMutability": "nonpayable",
      "type": "constructor"
    },
    {
      "anonymous": false,
      "inputs": [
        {
          "indexed": false,
          "internalType": "address",
          "name": "oldAdmin",
          "type": "address"
        },
        {
          "indexed": false,
          "internalType": "address",
          "name": "newAdmin",
          "type": "address"
        }
      ],
      "name": "AdminChanged",
      "type": "event"
    },
    {
      "anonymous": false,
      "inputs": [
        {
          "indexed": true,
          "internalType": "address",
          "name": "buyer",
          "type": "address"
        },
        {
          "indexed": true,
          "internalType": "address",
          "name": "to",
          "type": "address"
        },
        {
          "indexed": true,
          "internalType": "uint256",
          "name": "topCornerId",
          "type": "uint256"
        },
        {
          "indexed": false,
          "internalType": "uint256",
          "name": "size",
          "type": "uint256"
        },
        {
          "indexed": false,
          "internalType": "uint256",
          "name": "price",
          "type": "uint256"
        },
        {
          "indexed": false,
          "internalType": "address",
          "name": "token",
          "type": "address"
        },
        {
          "indexed": false,
          "internalType": "uint256",
          "name": "amountPaid",
          "type": "uint256"
        }
      ],
      "name": "LandQuadPurchased",
      "type": "event"
    },
    {
      "anonymous": false,
      "inputs": [
        {
          "indexed": true,
          "internalType": "uint256",
          "name": "newMaxCommissionRate",
          "type": "uint256"
        }
      ],
      "name": "MaxCommissionRateUpdated",
      "type": "event"
    },
    {
      "anonymous": false,
      "inputs": [
        {
          "indexed": false,
          "internalType": "address",
          "name": "metaTransactionProcessor",
          "type": "address"
        },
        {
          "indexed": false,
          "internalType": "bool",
          "name": "enabled",
          "type": "bool"
        }
      ],
      "name": "MetaTransactionProcessor",
      "type": "event"
    },
    {
      "anonymous": false,
      "inputs": [
        {
          "indexed": true,
          "internalType": "address",
          "name": "newWallet",
          "type": "address"
        }
      ],
      "name": "NewReceivingWallet",
      "type": "event"
    },
    {
      "anonymous": false,
      "inputs": [
        {
          "indexed": true,
          "internalType": "address",
          "name": "referrer",
          "type": "address"
        },
        {
          "indexed": true,
          "internalType": "address",
          "name": "referee",
          "type": "address"
        },
        {
          "indexed": true,
          "internalType": "address",
          "name": "token",
          "type": "address"
        },
        {
          "indexed": false,
          "internalType": "uint256",
          "name": "amount",
          "type": "uint256"
        },
        {
          "indexed": false,
          "internalType": "uint256",
          "name": "commission",
          "type": "uint256"
        },
        {
          "indexed": false,
          "internalType": "uint256",
          "name": "commissionRate",
          "type": "uint256"
        }
      ],
      "name": "ReferralUsed",
      "type": "event"
    },
    {
      "anonymous": false,
      "inputs": [
        {
          "indexed": true,
          "internalType": "address",
          "name": "newSigningWallet",
          "type": "address"
        }
      ],
      "name": "SigningWalletUpdated",
      "type": "event"
    },
    {
      "inputs": [
        {
          "internalType": "address",
          "name": "buyer",
          "type": "address"
        },
        {
          "internalType": "address",
          "name": "to",
          "type": "address"
        },
        {
          "internalType": "address",
          "name": "reserved",
          "type": "address"
        },
        {
          "internalType": "uint256[]",
          "name": "info",
          "type": "uint256[]"
        },
        {
          "internalType": "bytes32",
          "name": "salt",
          "type": "bytes32"
        },
        {
          "internalType": "uint256[]",
          "name": "assetIds",
          "type": "uint256[]"
        },
        {
          "internalType": "bytes32[]",
          "name": "proof",
          "type": "bytes32[]"
        },
        {
          "internalType": "bytes",
          "name": "referral",
          "type": "bytes"
        },
        {
          "internalType": "bytes",
          "name": "signature",
          "type": "bytes"
        }
      ],
      "name": "buyLandWithSand",
      "outputs": [],
      "stateMutability": "nonpayable",
      "type": "function"
    },
    {
      "inputs": [
        {
          "internalType": "address",
          "name": "newAdmin",
          "type": "address"
        }
      ],
      "name": "changeAdmin",
      "outputs": [],
      "stateMutability": "nonpayable",
      "type": "function"
    },
    {
      "inputs": [
        {
          "internalType": "bytes",
          "name": "referral",
          "type": "bytes"
        }
      ],
      "name": "decodeReferral",
      "outputs": [
        {
          "internalType": "bytes",
          "name": "",
          "type": "bytes"
        },
        {
          "internalType": "address",
          "name": "",
          "type": "address"
        },
        {
          "internalType": "address",
          "name": "",
          "type": "address"
        },
        {
          "internalType": "uint256",
          "name": "",
          "type": "uint256"
        },
        {
          "internalType": "uint256",
          "name": "",
          "type": "uint256"
        }
      ],
      "stateMutability": "pure",
      "type": "function"
    },
    {
      "inputs": [
        {
          "internalType": "address",
          "name": "disableWallet",
          "type": "address"
        }
      ],
      "name": "disablePreviousSigningWallet",
      "outputs": [],
      "stateMutability": "nonpayable",
      "type": "function"
    },
    {
      "inputs": [],
      "name": "getAdmin",
      "outputs": [
        {
          "internalType": "address",
          "name": "",
          "type": "address"
        }
      ],
      "stateMutability": "view",
      "type": "function"
    },
    {
      "inputs": [],
      "name": "getExpiryTime",
      "outputs": [
        {
          "internalType": "uint256",
          "name": "",
          "type": "uint256"
        }
      ],
      "stateMutability": "view",
      "type": "function"
    },
    {
      "inputs": [],
      "name": "getMaxCommissionRate",
      "outputs": [
        {
          "internalType": "uint256",
          "name": "",
          "type": "uint256"
        }
      ],
      "stateMutability": "view",
      "type": "function"
    },
    {
      "inputs": [],
      "name": "getMerkleRoot",
      "outputs": [
        {
          "internalType": "bytes32",
          "name": "",
          "type": "bytes32"
        }
      ],
      "stateMutability": "view",
      "type": "function"
    },
    {
      "inputs": [],
      "name": "getSigningWallet",
      "outputs": [
        {
          "internalType": "address",
          "name": "",
          "type": "address"
        }
      ],
      "stateMutability": "view",
      "type": "function"
    },
    {
      "inputs": [
        {
          "internalType": "address",
          "name": "who",
          "type": "address"
        }
      ],
      "name": "isMetaTransactionProcessor",
      "outputs": [
        {
          "internalType": "bool",
          "name": "",
          "type": "bool"
        }
      ],
      "stateMutability": "view",
      "type": "function"
    },
    {
      "inputs": [
        {
          "internalType": "bytes",
          "name": "signature",
          "type": "bytes"
        },
        {
          "internalType": "address",
          "name": "referrer",
          "type": "address"
        },
        {
          "internalType": "address",
          "name": "referee",
          "type": "address"
        },
        {
          "internalType": "uint256",
          "name": "expiryTime",
          "type": "uint256"
        },
        {
          "internalType": "uint256",
          "name": "commissionRate",
          "type": "uint256"
        }
      ],
      "name": "isReferralValid",
      "outputs": [
        {
          "internalType": "bool",
          "name": "",
          "type": "bool"
        }
      ],
      "stateMutability": "view",
      "type": "function"
    },
    {
      "inputs": [
        {
          "internalType": "address",
          "name": "",
          "type": "address"
        },
        {
          "internalType": "address",
          "name": "",
          "type": "address"
        },
        {
          "internalType": "uint256[]",
          "name": "",
          "type": "uint256[]"
        },
        {
          "internalType": "uint256[]",
          "name": "",
          "type": "uint256[]"
        },
        {
          "internalType": "bytes",
          "name": "",
          "type": "bytes"
        }
      ],
      "name": "onERC1155BatchReceived",
      "outputs": [
        {
          "internalType": "bytes4",
          "name": "",
          "type": "bytes4"
        }
      ],
      "stateMutability": "pure",
      "type": "function"
    },
    {
      "inputs": [
        {
          "internalType": "address",
          "name": "",
          "type": "address"
        },
        {
          "internalType": "address",
          "name": "",
          "type": "address"
        },
        {
          "internalType": "uint256",
          "name": "",
          "type": "uint256"
        },
        {
          "internalType": "uint256",
          "name": "",
          "type": "uint256"
        },
        {
          "internalType": "bytes",
          "name": "",
          "type": "bytes"
        }
      ],
      "name": "onERC1155Received",
      "outputs": [
        {
          "internalType": "bytes4",
          "name": "",
          "type": "bytes4"
        }
      ],
      "stateMutability": "pure",
      "type": "function"
    },
    {
      "inputs": [
        {
          "internalType": "address",
          "name": "metaTransactionProcessor",
          "type": "address"
        },
        {
          "internalType": "bool",
          "name": "enabled",
          "type": "bool"
        }
      ],
      "name": "setMetaTransactionProcessor",
      "outputs": [],
      "stateMutability": "nonpayable",
      "type": "function"
    },
    {
      "inputs": [
        {
          "internalType": "address payable",
          "name": "newWallet",
          "type": "address"
        }
      ],
      "name": "setReceivingWallet",
      "outputs": [],
      "stateMutability": "nonpayable",
      "type": "function"
    },
    {
      "inputs": [
        {
          "internalType": "uint256",
          "name": "newMaxCommissionRate",
          "type": "uint256"
        }
      ],
      "name": "updateMaxCommissionRate",
      "outputs": [],
      "stateMutability": "nonpayable",
      "type": "function"
    },
    {
      "inputs": [
        {
          "internalType": "address",
          "name": "newSigningWallet",
          "type": "address"
        }
      ],
      "name": "updateSigningWallet",
      "outputs": [],
      "stateMutability": "nonpayable",
      "type": "function"
    },
    {
      "inputs": [
        {
          "internalType": "address",
          "name": "to",
          "type": "address"
        },
        {
          "internalType": "uint256[]",
          "name": "assetIds",
          "type": "uint256[]"
        },
        {
          "internalType": "uint256[]",
          "name": "values",
          "type": "uint256[]"
        }
      ],
      "name": "withdrawAssets",
      "outputs": [],
      "stateMutability": "nonpayable",
      "type": "function"
    }
  ],
  "transactionHash": "0x391d45b7a34538bc7e36f5a50d1d8c00badeda645b71ae171843f9e01b658eeb",
  "args": [
    "0xEdE111C053616a91975488F8aB3B51382A32979b",
    "0xD20fbd836e80DabFb777E6AaBbe52e96c07eCD1B",
    "0xD20fbd836e80DabFb777E6AaBbe52e96c07eCD1B",
    "0x49c4D4C94829B9c44052C5f5Cb164Fc612181165",
    "0xa5Eb9C9Eb4F4c35B9Be8cFaAA7909F9ebe6Cb609",
    "0xa2341c83d7b84c584c9f3fcdb86b65a96eded7d80086bc0e87b46b183b81adbc",
    2036491200,
    "0xB7060D3FeCAC3AE1F0A0AA416E3e8E472257950e",
    2000,
    "0x0000000000000000000000000000000000000000",
    "0x2D0f3dfe9B7e86b36d188A3AAdE83898d4BeE7a2",
    "0xAc3ff31f526Af7f386ea43649e3fa67e329AeF93",
    "0x34C87E3A9eD80D50a146C1833043265221c5Abd2"
  ],
  "numDeployments": 1,
  "linkedData": [
    {
      "x": 120,
      "y": 243,
      "size": 1,
      "price": "1011000000000000000000",
      "reserved": "",
      "salt": "0xeaf2041611f39b2cf06a53f6d4eb8f054449f0bea243f2403ba49536d72c6c04",
      "assetIds": []
    },
    {
      "x": 120,
      "y": 244,
      "size": 1,
      "price": "1011000000000000000000",
      "reserved": "",
      "salt": "0x81d41239d5a379b9bf7ddb78d0a60fa16c881490b8d28ceea84aa3a227b74e29",
      "assetIds": []
    },
    {
      "x": 120,
      "y": 245,
      "size": 1,
      "price": "1011000000000000000000",
      "reserved": "",
      "salt": "0xd42445db061b248ec2336025a61fac27d6a7f2b28632eaf3ea6acf796ccbc301",
      "assetIds": []
    },
    {
      "x": 120,
      "y": 249,
      "size": 1,
      "price": "1011000000000000000000",
      "reserved": "",
      "salt": "0xb14828fb91bc810d2867bc472bf01e73ea6f5f308562f406257dacbe2cb4a2b2",
      "assetIds": []
    },
    {
      "x": 120,
      "y": 250,
      "size": 1,
      "price": "1011000000000000000000",
      "reserved": "",
      "salt": "0x875bc02ed042627c380ef0b2daff977f45f3a85d23b934dda6641b8d15ade7e5",
      "assetIds": []
    },
    {
      "x": 120,
      "y": 251,
      "size": 1,
      "price": "1011000000000000000000",
      "reserved": "",
      "salt": "0x45ea50d2363e9ed2042fe6161e5f1834721940ddfb46095399d65d9f948dbbe0",
      "assetIds": []
    },
    {
      "x": 120,
      "y": 252,
      "size": 1,
      "price": "1011000000000000000000",
      "reserved": "",
      "salt": "0x4c1bd7ab537b4cbd8ad385b8856bf7ee74894754ccede29295838e01c32cb0e1",
      "assetIds": []
    },
    {
      "x": 120,
      "y": 253,
      "size": 1,
      "price": "1011000000000000000000",
      "reserved": "",
      "salt": "0x0d2bba67e1174167c99bac185cb44399ec94e10028b6f49a60005a17ffcf8a0b",
      "assetIds": []
    },
    {
      "x": 120,
      "y": 254,
      "size": 1,
      "price": "1011000000000000000000",
      "reserved": "",
      "salt": "0x2c5bbf5a4ffa1ac313dd923c92d5fe7feb08cd3befde44fba9ea8cb9b7b6f801",
      "assetIds": []
    },
    {
      "x": 121,
      "y": 243,
      "size": 1,
      "price": "1011000000000000000000",
      "reserved": "",
      "salt": "0xef33a85db894ede01f72c27bd9e4f8645c7ae299dd6568f9faf80f22f073c62a",
      "assetIds": []
    },
    {
      "x": 121,
      "y": 244,
      "size": 1,
      "price": "1011000000000000000000",
      "reserved": "",
      "salt": "0x908d237caebada50a34753c1b9671769c7cd2219bc81ba3e7452fb6ed3da5ab9",
      "assetIds": []
    },
    {
      "x": 121,
      "y": 245,
      "size": 1,
      "price": "1011000000000000000000",
      "reserved": "",
      "salt": "0x5aa9e7b2a39edc02a9149c17a9324fb3747e51c4e82666cf240ee3e8eecf096d",
      "assetIds": []
    },
    {
      "x": 121,
      "y": 249,
      "size": 1,
      "price": "1011000000000000000000",
      "reserved": "",
      "salt": "0xb6fc21be32a6cb4b60818cc21ec2dc574475e9989f9e34a4e0da96f85e087005",
      "assetIds": []
    },
    {
      "x": 121,
      "y": 250,
      "size": 1,
      "price": "1011000000000000000000",
      "reserved": "",
      "salt": "0x3a2ce16016c8637cdb313b45176738a468da2678dd28d14cd474594d26ba9823",
      "assetIds": []
    },
    {
      "x": 121,
      "y": 251,
      "size": 1,
      "price": "1011000000000000000000",
      "reserved": "",
      "salt": "0x7cd6628b3b0d3630791484d0863983307c60c08750fbd598e004b93f2ead6e61",
      "assetIds": []
    },
    {
      "x": 121,
      "y": 252,
      "size": 1,
      "price": "1011000000000000000000",
      "reserved": "",
      "salt": "0x61a6a7e15487b811941ae137fd1fd1c71aada63eee84d9fb1636f08209737beb",
      "assetIds": []
    },
    {
      "x": 121,
      "y": 253,
      "size": 1,
      "price": "1011000000000000000000",
      "reserved": "0x7a9fe22691c811ea339d9b73150e6911a5343dca",
      "salt": "0x13094f6fee867b837bf96a73a0d394b26f0567c3b3009434d44d2f983189d21e",
      "assetIds": []
    },
    {
      "x": 121,
      "y": 254,
      "size": 1,
      "price": "1011000000000000000000",
      "reserved": "",
      "salt": "0xebb57f50264533384b8fb5d45b07707a6456e6f1d2dadee30386ac60f4c7e6a1",
      "assetIds": []
    },
    {
      "x": 122,
      "y": 243,
      "size": 1,
      "price": "1011000000000000000000",
      "reserved": "",
      "salt": "0x27a79152451f83af49092543b3e6e21eb4bd100ad113e083ab6e2f11bd9ae4a1",
      "assetIds": []
    },
    {
      "x": 122,
      "y": 244,
      "size": 1,
      "price": "1011000000000000000000",
      "reserved": "",
      "salt": "0x797f43249c69706884154a75ebbbe13a8673288b35c5d73c9d475397c74b0a5d",
      "assetIds": []
    },
    {
      "x": 122,
      "y": 245,
      "size": 1,
      "price": "1011000000000000000000",
      "reserved": "",
      "salt": "0xc4dc88ffa7cc7b2520aef416e35d59e5b55221b5a48d63773410c74a9fde7cdc",
      "assetIds": []
    },
    {
      "x": 122,
      "y": 249,
      "size": 1,
      "price": "1011000000000000000000",
      "reserved": "",
      "salt": "0x4f7427b2126ca1830a5f792c7e63d76a9ed663d878d78cb9dcd4a8044b18bda6",
      "assetIds": []
    },
    {
      "x": 122,
      "y": 250,
      "size": 1,
      "price": "1011000000000000000000",
      "reserved": "",
      "salt": "0xb48527edc691910c84619f8db16b4ea93d75aa59329e9806f316dc62113b8bbc",
      "assetIds": []
    },
    {
      "x": 122,
      "y": 251,
      "size": 1,
      "price": "1011000000000000000000",
      "reserved": "",
      "salt": "0x0c7d68fe94733b4a42e7ba528b9bb9cf6a41065f6e57505dd0249f4b5404ac3b",
      "assetIds": []
    },
    {
      "x": 122,
      "y": 252,
      "size": 1,
      "price": "1011000000000000000000",
      "reserved": "",
      "salt": "0x199cbd822098cd04d32dacdb57a6d570816dd887ba7b5f8f05dd98af6ace7eb7",
      "assetIds": []
    },
    {
      "x": 122,
      "y": 253,
      "size": 1,
      "price": "1011000000000000000000",
      "reserved": "",
      "salt": "0x681218bd803e5f23ce6748b5defc421e488ff6ef5dc4646ac21f46cc62c2954b",
      "assetIds": []
    },
    {
      "x": 122,
      "y": 254,
      "size": 1,
      "price": "1011000000000000000000",
      "reserved": "",
      "salt": "0x2a50b130e4c720765cd24746447b2f5390474348bddf486c38a36f1a4900bee8",
      "assetIds": []
    },
    {
      "x": 123,
      "y": 243,
      "size": 1,
      "price": "1011000000000000000000",
      "reserved": "",
      "salt": "0x53191e25cc53104cda65ed354e2db0dbccc7e235d46c171ff4d7ffb77ccd7109",
      "assetIds": []
    },
    {
      "x": 123,
      "y": 244,
      "size": 1,
      "price": "1011000000000000000000",
      "reserved": "0x7a9fe22691c811ea339d9b73150e6911a5343dca",
      "salt": "0xcc9278f04d8f37ab7ca08bef274339503b9d411599d812e8e6e2bef75d6c6396",
      "assetIds": []
    },
    {
      "x": 123,
      "y": 245,
      "size": 1,
      "price": "1011000000000000000000",
      "reserved": "",
      "salt": "0x63c574eea8d20104719c724d81c2790fee336d2a290b74c1f5b45268a544ee13",
      "assetIds": []
    },
    {
      "x": 123,
      "y": 246,
      "size": 1,
      "price": "1011000000000000000000",
      "reserved": "",
      "salt": "0x1dc44aa039d6d0a117947f039c87c19355b8e371a07cb747ba07b832a39076df",
      "assetIds": []
    },
    {
      "x": 123,
      "y": 247,
      "size": 1,
      "price": "1011000000000000000000",
      "reserved": "",
      "salt": "0x2629d0fccd697316026fc2f336dcb9b32437963f014749d73c9ae612cb2feab5",
      "assetIds": []
    },
    {
      "x": 123,
      "y": 248,
      "size": 1,
      "price": "1011000000000000000000",
      "reserved": "",
      "salt": "0xea1007d260163b5bf1f9c2fa62921a26e0579e903a93107dfdb29fbf32461d8b",
      "assetIds": []
    },
    {
      "x": 123,
      "y": 249,
      "size": 1,
      "price": "1011000000000000000000",
      "reserved": "",
      "salt": "0xabbbd4cc4d645ebf3f01f196c1b4c1bd2077e91cb5e1a639c4716808a998f64c",
      "assetIds": []
    },
    {
      "x": 123,
      "y": 250,
      "size": 1,
      "price": "1011000000000000000000",
      "reserved": "",
      "salt": "0xd4b2fd22229c69bc188a2cf611625e3a9ad2d60b4445d8c30093557b9ee487e2",
      "assetIds": []
    },
    {
      "x": 123,
      "y": 251,
      "size": 1,
      "price": "1011000000000000000000",
      "reserved": "0x7a9fe22691c811ea339d9b73150e6911a5343dca",
      "salt": "0x6c336e509f2fc8901d20fdab5b73de8996d38a5e20eb1526897bace4d9461324",
      "assetIds": []
    },
    {
      "x": 123,
      "y": 252,
      "size": 1,
      "price": "1011000000000000000000",
      "reserved": "",
      "salt": "0x9ced71955856f84b0c5db99acedd1c9203919f84073d517f4508761188ba4188",
      "assetIds": []
    },
    {
      "x": 123,
      "y": 253,
      "size": 1,
      "price": "1011000000000000000000",
      "reserved": "",
      "salt": "0xaae9da32c8ea04bd31eb0d4ecab65cd3b93a52053f612b19a292a6e4f5896a0e",
      "assetIds": []
    },
    {
      "x": 123,
      "y": 254,
      "size": 1,
      "price": "1011000000000000000000",
      "reserved": "",
      "salt": "0xae6cd2e61e3cc411cb34faf62574bfcebd0d0714f2a59a7357d0263a2b7cf705",
      "assetIds": []
    },
    {
      "x": 124,
      "y": 243,
      "size": 1,
      "price": "1011000000000000000000",
      "reserved": "",
      "salt": "0x920a1cf86bce1ef1513f2da1ef22cbedd2eaa2f5903131fab1f0eee8563359da",
      "assetIds": []
    },
    {
      "x": 124,
      "y": 244,
      "size": 1,
      "price": "1011000000000000000000",
      "reserved": "",
      "salt": "0x9b20f936ab5b39796500cefe38d0eb74f872eaf057b358622e0ba4518cda7e58",
      "assetIds": []
    },
    {
      "x": 124,
      "y": 245,
      "size": 1,
      "price": "1011000000000000000000",
      "reserved": "",
      "salt": "0x891135f13a52da6f082663ec0557a7c0fdada796e04977d12918f48523b10abc",
      "assetIds": []
    },
    {
      "x": 124,
      "y": 246,
      "size": 1,
      "price": "1011000000000000000000",
      "reserved": "",
      "salt": "0x4d411a232c72382aa4a0e2fa69d7839771ca8c0a93707aa0ff0edaa9e340a950",
      "assetIds": []
    },
    {
      "x": 124,
      "y": 247,
      "size": 1,
      "price": "1011000000000000000000",
      "reserved": "",
      "salt": "0x571f35c90706a8e0aeee73e0070b5586c85e45be4cd70d990ca4104cd5c0bcc3",
      "assetIds": []
    },
    {
      "x": 124,
      "y": 248,
      "size": 1,
      "price": "1011000000000000000000",
      "reserved": "",
      "salt": "0xd58dbafd2350b2103a7524f4cface24a6e92f9261c51f5d53e4bdd79967a24f2",
      "assetIds": []
    },
    {
      "x": 124,
      "y": 249,
      "size": 1,
      "price": "1011000000000000000000",
      "reserved": "",
      "salt": "0xbd2850648167a9ab1b3a7659ae7d34699ac4c63299497a910b0a9a8f59437c17",
      "assetIds": []
    },
    {
      "x": 124,
      "y": 250,
      "size": 1,
      "price": "1011000000000000000000",
      "reserved": "",
      "salt": "0xe3abaa97e9d4eff6edbed90b0bb9b47e050c943ec6d7bd289ba28011f50f3dcf",
      "assetIds": []
    },
    {
      "x": 124,
      "y": 251,
      "size": 1,
      "price": "1011000000000000000000",
      "reserved": "",
      "salt": "0xa75d289b3a7a0ade0c99f5c0cda3a96f902e1864a770384100c9597acc176bb9",
      "assetIds": []
    },
    {
      "x": 124,
      "y": 252,
      "size": 1,
      "price": "1011000000000000000000",
      "reserved": "",
      "salt": "0xa5766b1a164593d453a6ff02c6bb1572cd5fa314998e6bb993f4957507917a0b",
      "assetIds": []
    },
    {
      "x": 124,
      "y": 253,
      "size": 1,
      "price": "1011000000000000000000",
      "reserved": "",
      "salt": "0x45c848c02176a56b99268009cada05c3f9eb53ac0bccaa2852c9695b108a1bbd",
      "assetIds": []
    },
    {
      "x": 124,
      "y": 254,
      "size": 1,
      "price": "1011000000000000000000",
      "reserved": "",
      "salt": "0x516ac37865f3c61939503c85c92245f890df767a6014f52a4efc4f5d192e15b1",
      "assetIds": []
    },
    {
      "x": 125,
      "y": 243,
      "size": 1,
      "price": "1011000000000000000000",
      "reserved": "",
      "salt": "0x994a7c2ce618507842c076311df4c3c4026a79eca324c19902dad6650250f2ae",
      "assetIds": []
    },
    {
      "x": 125,
      "y": 244,
      "size": 1,
      "price": "1011000000000000000000",
      "reserved": "",
      "salt": "0x3efc7db31825ae64e0b704fada3d0ad8f1f38b4ec115e3d811fc525a26dcad8f",
      "assetIds": []
    },
    {
      "x": 125,
      "y": 245,
      "size": 1,
      "price": "1011000000000000000000",
      "reserved": "",
      "salt": "0x9a679677bc5b68b268f6cef3a4ee77a6cf361ba500c7f85cbdf24409b8ca4d01",
      "assetIds": []
    },
    {
      "x": 125,
      "y": 246,
      "size": 1,
      "price": "4683000000000000000000",
      "reserved": "",
      "salt": "0x382c7a6ce7ffef3641caa0e07d88bc6ad2bd060be9af69ca6050eb60a97ab3d5",
      "assetIds": [
        "756640520037404005849090817741847994891925608236140",
        "381034599243361955870743815733763258840350944691308"
      ]
    },
    {
      "x": 125,
      "y": 247,
      "size": 1,
      "price": "4683000000000000000000",
      "reserved": "",
      "salt": "0x73bb5fb0dc91ff23870f9c3b8571aaff6e4a6e5ac404c0a5cbe39e00fe18d3af",
      "assetIds": [
        "756640520037404005849090817741847994891925608236140",
        "381034599243361955870743815733763258840350944691308"
      ]
    },
    {
      "x": 125,
      "y": 248,
      "size": 1,
      "price": "4683000000000000000000",
      "reserved": "",
      "salt": "0xcf7a3026dc1795371530b798640068da4e4c32c329e35921e9494e72d4903eaf",
      "assetIds": [
        "756640520037404005849090817741847994891925608236140",
        "381034599243361955870743815733763258840350944691308"
      ]
    },
    {
      "x": 125,
      "y": 249,
      "size": 1,
      "price": "1011000000000000000000",
      "reserved": "",
      "salt": "0x8fad023846d111c68985efd83ca8f719639d42422c3d75f965659860a2c2a810",
      "assetIds": []
    },
    {
      "x": 125,
      "y": 250,
      "size": 1,
      "price": "4683000000000000000000",
      "reserved": "",
      "salt": "0xdcf98394f0b19586d555ce1a67cdeb38154d3511c5bbf541c1d7adeaf9ce7e8e",
      "assetIds": [
        "756640520037404005849090817741847994891925608236140",
        "381034599243361955870743815733763258840350944691308"
      ]
    },
    {
      "x": 125,
      "y": 251,
      "size": 1,
      "price": "4683000000000000000000",
      "reserved": "",
      "salt": "0x12697c15d549375b87619746ee2b9e879d05849d0996c622ed97cc75ebd7fa6c",
      "assetIds": [
        "756640520037404005849090817741847994891925608236140",
        "381034599243361955870743815733763258840350944691308"
      ]
    },
    {
      "x": 125,
      "y": 252,
      "size": 1,
      "price": "1011000000000000000000",
      "reserved": "",
      "salt": "0xa13eb37101b8c52f24f644a6d146171815f985906c3a91dade24be1a661835f0",
      "assetIds": []
    },
    {
      "x": 125,
      "y": 253,
      "size": 1,
      "price": "1011000000000000000000",
      "reserved": "",
      "salt": "0x0a589274cc031f3a194f9481c13ff3141942a850c72d7c7b1c5a30613b05cea7",
      "assetIds": []
    },
    {
      "x": 125,
      "y": 254,
      "size": 1,
      "price": "1011000000000000000000",
      "reserved": "",
      "salt": "0x687c63767b9281241b2c2a05ca5bb8463ffee2d012d29c201a6ffd88b3d1fd69",
      "assetIds": []
    },
    {
      "x": 126,
      "y": 243,
      "size": 1,
      "price": "1011000000000000000000",
      "reserved": "",
      "salt": "0x52241305dfb4acd0f1e6e7ee7d3675fefce1e2de73e68dc4559fd503fac19876",
      "assetIds": []
    },
    {
      "x": 126,
      "y": 244,
      "size": 1,
      "price": "1011000000000000000000",
      "reserved": "",
      "salt": "0xb1e5456fc48aa36aa46d42ae846f639f15702abc9f8c603ac91d936890533de0",
      "assetIds": []
    },
    {
      "x": 126,
      "y": 245,
      "size": 1,
      "price": "4683000000000000000000",
      "reserved": "",
      "salt": "0xead5b1d62fff6ab80c12434e9945877a6364677010b1cb1c2e36058aa0fa216a",
      "assetIds": [
        "756640520037404005849090817741847994891925608236140",
        "381034599243361955870743815733763258840350944691308"
      ]
    },
    {
      "x": 126,
      "y": 252,
      "size": 1,
      "price": "4683000000000000000000",
      "reserved": "",
      "salt": "0x08b2e31291979da60759f739e212a54f97cccc70551ba31b2fa780d8a00f7a09",
      "assetIds": [
        "756640520037404005849090817741847994891925608236140",
        "381034599243361955870743815733763258840350944691308"
      ]
    },
    {
      "x": 126,
      "y": 253,
      "size": 1,
      "price": "1011000000000000000000",
      "reserved": "",
      "salt": "0x0eb113a85f804805b0edff9d96a90c95fc5021ce6ca7b05e3a9ab8f5fdf13f43",
      "assetIds": []
    },
    {
      "x": 126,
      "y": 254,
      "size": 1,
      "price": "1011000000000000000000",
      "reserved": "",
      "salt": "0x97fad6b850801459dbe7f785cdf8641a71a8d0104f3a2278e542b91a6bff92af",
      "assetIds": []
    },
    {
      "x": 126,
      "y": 255,
      "size": 1,
      "price": "1011000000000000000000",
      "reserved": "",
      "salt": "0xc50d71b33e04234a61064ed213dca6d7a74bf7beda9e82be6c82ebaef2db2278",
      "assetIds": []
    },
    {
      "x": 126,
      "y": 256,
      "size": 1,
      "price": "1011000000000000000000",
      "reserved": "",
      "salt": "0xacc2088e0f34915a837be09e8a9126fbaaab9d282a79ff61163075bf9d9ff38c",
      "assetIds": []
    },
    {
      "x": 126,
      "y": 257,
      "size": 1,
      "price": "1011000000000000000000",
      "reserved": "",
      "salt": "0x459b5907500fb099819c66b772055d9bebcbdf9c3ebe59f7b375295fb6821ae1",
      "assetIds": []
    },
    {
      "x": 127,
      "y": 243,
      "size": 1,
      "price": "1011000000000000000000",
      "reserved": "",
      "salt": "0x69e648a3300b12cdf1010788e5e669ccfbc997927832b09794245922ea99c320",
      "assetIds": []
    },
    {
      "x": 127,
      "y": 244,
      "size": 1,
      "price": "1011000000000000000000",
      "reserved": "",
      "salt": "0xd14811725b95dd5163b5c36c3ecc97e211f21c01ca2b24a6ccdec3a970984ef6",
      "assetIds": []
    },
    {
      "x": 127,
      "y": 245,
      "size": 1,
      "price": "4683000000000000000000",
      "reserved": "",
      "salt": "0x857641cafabec0953322ca0aa22d5bbf1fbde3ca4c17e5fd6b947e0647a40e1a",
      "assetIds": [
        "756640520037404005849090817741847994891925608236140",
        "381034599243361955870743815733763258840350944691308"
      ]
    },
    {
      "x": 127,
      "y": 252,
      "size": 1,
      "price": "1011000000000000000000",
      "reserved": "",
      "salt": "0xc112f269112dc360a39a2dae375ad1cd24542514a4049f298a2f6d94e6ebf826",
      "assetIds": []
    },
    {
      "x": 127,
      "y": 253,
      "size": 1,
      "price": "1011000000000000000000",
      "reserved": "",
      "salt": "0xd18c0b250456d1db1adb8b656d3914126a1e0748e0b1c6aff4e9a36b65ff6cb3",
      "assetIds": []
    },
    {
      "x": 127,
      "y": 254,
      "size": 1,
      "price": "1011000000000000000000",
      "reserved": "",
      "salt": "0x70bb0b7fcc841dde99192051316e033301a33a80c7cdf741a4b4459577c86cc1",
      "assetIds": []
    },
    {
      "x": 127,
      "y": 255,
      "size": 1,
      "price": "1011000000000000000000",
      "reserved": "",
      "salt": "0x4705033c814d0dd93ce2f52c5d1c6b98344115008957c05efeab51298653a200",
      "assetIds": []
    },
    {
      "x": 127,
      "y": 256,
      "size": 1,
      "price": "1011000000000000000000",
      "reserved": "",
      "salt": "0x6ff2c90d1ed0300edf3620aedda06808236f79a458e1c338d44f7e30dec21288",
      "assetIds": []
    },
    {
      "x": 127,
      "y": 257,
      "size": 1,
      "price": "1011000000000000000000",
      "reserved": "",
      "salt": "0x5fcd256717d0bf0f8c0f8727d3423b8b9d9838351b75c3fd9e40ceef9dd7eca1",
      "assetIds": []
    },
    {
      "x": 128,
      "y": 243,
      "size": 1,
      "price": "1011000000000000000000",
      "reserved": "",
      "salt": "0x7054ffcc0b4ac7a85922b08b3274a5866fd30ee103524a0dd042efc31b280c92",
      "assetIds": []
    },
    {
      "x": 128,
      "y": 244,
      "size": 1,
      "price": "1011000000000000000000",
      "reserved": "",
      "salt": "0xc68a367e6c0fe099b4a55a8947c943b66e9616c70855de1d1799940fd81227f0",
      "assetIds": []
    },
    {
      "x": 128,
      "y": 245,
      "size": 1,
      "price": "4683000000000000000000",
      "reserved": "",
      "salt": "0x152cc3262489fe4660bf83af323212f3203a4411f84b862970b3af4413d28568",
      "assetIds": [
        "756640520037404005849090817741847994891925608236140",
        "381034599243361955870743815733763258840350944691308"
      ]
    },
    {
      "x": 128,
      "y": 252,
      "size": 1,
      "price": "4683000000000000000000",
      "reserved": "",
      "salt": "0x5f6954dcbfe9d4e51fcb5868b8671eb1034fbfbf9e585a4e01b834cc9878bca8",
      "assetIds": [
        "756640520037404005849090817741847994891925608236140",
        "381034599243361955870743815733763258840350944691308"
      ]
    },
    {
      "x": 128,
      "y": 253,
      "size": 1,
      "price": "1011000000000000000000",
      "reserved": "",
      "salt": "0x914e940d9bbeb976de9bbc263b24563d28c6ae4516b12427b9de1b554830f450",
      "assetIds": []
    },
    {
      "x": 128,
      "y": 254,
      "size": 1,
      "price": "1011000000000000000000",
      "reserved": "0x7a9fe22691c811ea339d9b73150e6911a5343dca",
      "salt": "0x29cffb80c914492c00c184eb3eaf06dd14d9cbaefe6ff2e27ea46c845b01e92e",
      "assetIds": []
    },
    {
      "x": 128,
      "y": 255,
      "size": 1,
      "price": "1011000000000000000000",
      "reserved": "",
      "salt": "0xf80ec4fb3418fbfe798c19536b0de490744f3c111a18e93cbace249b33555806",
      "assetIds": []
    },
    {
      "x": 128,
      "y": 256,
      "size": 1,
      "price": "1011000000000000000000",
      "reserved": "",
      "salt": "0x0fa8618974a5afce72b99bb45cfb0e514cd866b31de10f983f57fb04228ca512",
      "assetIds": []
    },
    {
      "x": 128,
      "y": 257,
      "size": 1,
      "price": "1011000000000000000000",
      "reserved": "",
      "salt": "0x098bad507bfdbd44ae3f65ec65f243d6a8a48e7a3ea2d60280d78c9322b206fa",
      "assetIds": []
    },
    {
      "x": 129,
      "y": 243,
      "size": 1,
      "price": "1011000000000000000000",
      "reserved": "",
      "salt": "0x5514dd84617f18b35facfd236ff04a6e8a2adca3c3e03f5010cf79e8788a9f60",
      "assetIds": []
    },
    {
      "x": 129,
      "y": 244,
      "size": 1,
      "price": "1011000000000000000000",
      "reserved": "",
      "salt": "0xa025f3b187b00226f405d2d8a2f188e23cd711ef5bd0edb68d12f4ec5024f26a",
      "assetIds": []
    },
    {
      "x": 129,
      "y": 245,
      "size": 1,
      "price": "4683000000000000000000",
      "reserved": "",
      "salt": "0x63a35b109ca93df9445aec9cacf1c2bd7ef00627d3d1340773cfb5ca00967dc7",
      "assetIds": [
        "756640520037404005849090817741847994891925608236140",
        "381034599243361955870743815733763258840350944691308"
      ]
    },
    {
      "x": 129,
      "y": 252,
      "size": 1,
      "price": "1011000000000000000000",
      "reserved": "",
      "salt": "0xeedd1f1841dbb3804b56af1b55488acbea340b4659723bfdde72d431dcb487c3",
      "assetIds": []
    },
    {
      "x": 129,
      "y": 253,
      "size": 1,
      "price": "1011000000000000000000",
      "reserved": "",
      "salt": "0x9bca03cd4726f6e459ce1feb08f999c22aa6493d19c094f81badc06a4e5c044d",
      "assetIds": []
    },
    {
      "x": 129,
      "y": 254,
      "size": 1,
      "price": "1011000000000000000000",
      "reserved": "",
      "salt": "0x74e38d5a7b9df2d85e34e74f574267923775aa2e4417f397650f5ad8e64b77d5",
      "assetIds": []
    },
    {
      "x": 129,
      "y": 255,
      "size": 1,
      "price": "1011000000000000000000",
      "reserved": "",
      "salt": "0x794d8980ae8c7c8af04be7ef0968bdf29085e8e46131b83fa0e5b16e6f4e234c",
      "assetIds": []
    },
    {
      "x": 129,
      "y": 256,
      "size": 1,
      "price": "1011000000000000000000",
      "reserved": "",
      "salt": "0x8cf518dd19b7cb78964a113ebc865a8aa51e2cf8f0c1c5b4c2bb695d33128634",
      "assetIds": []
    },
    {
      "x": 129,
      "y": 257,
      "size": 1,
      "price": "1011000000000000000000",
      "reserved": "",
      "salt": "0x9c6fe4e5905d2a4bd3a1a82c5c44d89866b413b1f78ef51bb0ce5ea949bd2e6b",
      "assetIds": []
    },
    {
      "x": 130,
      "y": 243,
      "size": 1,
      "price": "1011000000000000000000",
      "reserved": "",
      "salt": "0x9ee0c635f766860ed325c7aced3f4def0ff70f1e3c5c5fe38d6eae15f2e2859a",
      "assetIds": []
    },
    {
      "x": 130,
      "y": 244,
      "size": 1,
      "price": "1011000000000000000000",
      "reserved": "",
      "salt": "0x7178259ec4bac91e233999d2bad422db89d296928ed57c420f48a9de4f680dc6",
      "assetIds": []
    },
    {
      "x": 130,
      "y": 245,
      "size": 1,
      "price": "4683000000000000000000",
      "reserved": "",
      "salt": "0x35c92d36529fad64e4de2364fa507d1c8692707e9854a51762eb414fcb668b21",
      "assetIds": [
        "756640520037404005849090817741847994891925608236140",
        "381034599243361955870743815733763258840350944691308"
      ]
    },
    {
      "x": 130,
      "y": 252,
      "size": 1,
      "price": "4683000000000000000000",
      "reserved": "",
      "salt": "0xdfbbf1928501ce06b2b06c890d1fcdaa0db679a3e5234e140da20467e7bbcd22",
      "assetIds": [
        "756640520037404005849090817741847994891925608236140",
        "381034599243361955870743815733763258840350944691308"
      ]
    },
    {
      "x": 130,
      "y": 253,
      "size": 1,
      "price": "1011000000000000000000",
      "reserved": "",
      "salt": "0xdedec80f2f5e4a14b9b88e33d0c9228e5bcb977cedbd53f1f4c0e01dfeeb4544",
      "assetIds": []
    },
    {
      "x": 130,
      "y": 254,
      "size": 1,
      "price": "1011000000000000000000",
      "reserved": "",
      "salt": "0x666a06319d97ab7a8596c7fb4ce552b9475ac62e8c2752013cad54e0ced68058",
      "assetIds": []
    },
    {
      "x": 130,
      "y": 255,
      "size": 1,
      "price": "1011000000000000000000",
      "reserved": "",
      "salt": "0xad6c8cabb133029ad7b8d92cb6dce6e63217e1d088db430b0017a71cc11e5d8b",
      "assetIds": []
    },
    {
      "x": 130,
      "y": 256,
      "size": 1,
      "price": "1011000000000000000000",
      "reserved": "0x7a9fe22691c811ea339d9b73150e6911a5343dca",
      "salt": "0xdf5f40357ca5b4a07e6c13ada64f04e447b7881351451f483688f57dcb806c55",
      "assetIds": []
    },
    {
      "x": 130,
      "y": 257,
      "size": 1,
      "price": "1011000000000000000000",
      "reserved": "",
      "salt": "0xf0cdaf573ce526f7c6a8d00f2a4aedffadc58c576824f2d4908e7a68ff3a8e96",
      "assetIds": []
    },
    {
      "x": 131,
      "y": 243,
      "size": 1,
      "price": "1011000000000000000000",
      "reserved": "",
      "salt": "0xfacf97b3f26cb778c843f67fedd45e31d033e5e09215f063ff8f434af72fcc68",
      "assetIds": []
    },
    {
      "x": 131,
      "y": 244,
      "size": 1,
      "price": "1011000000000000000000",
      "reserved": "",
      "salt": "0x4e5468efaac86c65e1cf7aea75ecb0122c7158ead3a6e84e03e8c33a90f91006",
      "assetIds": []
    },
    {
      "x": 131,
      "y": 245,
      "size": 1,
      "price": "4683000000000000000000",
      "reserved": "",
      "salt": "0xde6d0834fa68ac22064cfdd12a976738207ee3be75445bf107f6b0076718e407",
      "assetIds": [
        "756640520037404005849090817741847994891925608236140",
        "381034599243361955870743815733763258840350944691308"
      ]
    },
    {
      "x": 131,
      "y": 252,
      "size": 1,
      "price": "1011000000000000000000",
      "reserved": "",
      "salt": "0xf18309dbe694a14111a671f1cfe141fc58b831fe84bf0e3ab3b18c455ba7533a",
      "assetIds": []
    },
    {
      "x": 131,
      "y": 253,
      "size": 1,
      "price": "1011000000000000000000",
      "reserved": "",
      "salt": "0x105c20622e2f15db63d51db3ed54c84aeaaa9b1cfeb8c1b5be4571d848e2629b",
      "assetIds": []
    },
    {
      "x": 131,
      "y": 254,
      "size": 1,
      "price": "1011000000000000000000",
      "reserved": "",
      "salt": "0xb1ea2dc8214579b3cbbc64ce6ae3de97ced282e866013c09513f6673a91af30b",
      "assetIds": []
    },
    {
      "x": 131,
      "y": 255,
      "size": 1,
      "price": "1011000000000000000000",
      "reserved": "",
      "salt": "0xc9ca9155295fa0bef256ef59c42c12f595c63c5003ec6fdcb69c7ed05a426ee1",
      "assetIds": []
    },
    {
      "x": 131,
      "y": 256,
      "size": 1,
      "price": "1011000000000000000000",
      "reserved": "",
      "salt": "0xa56d1e2e8d77551ffb11cad1e74c0f9010ba35820bea0db5008b9d946fe03329",
      "assetIds": []
    },
    {
      "x": 131,
      "y": 257,
      "size": 1,
      "price": "1011000000000000000000",
      "reserved": "",
      "salt": "0xe939385856027bc22023f9b26100c51cafe41df9e16e2ba04032aec6fe2a1393",
      "assetIds": []
    },
    {
      "x": 132,
      "y": 243,
      "size": 1,
      "price": "1011000000000000000000",
      "reserved": "",
      "salt": "0xdefaa4c27feb7ee080029a65ace49e8a047a979b892277642f9f40e1ccf198b3",
      "assetIds": []
    },
    {
      "x": 132,
      "y": 244,
      "size": 1,
      "price": "1011000000000000000000",
      "reserved": "",
      "salt": "0xfb17838253c22bbf53088bda81ab0c69e16b3d3c79e73dd37bf7b98156716b60",
      "assetIds": []
    },
    {
      "x": 132,
      "y": 245,
      "size": 1,
      "price": "1011000000000000000000",
      "reserved": "",
      "salt": "0x9932ffc2cd0dbc05e68163e54e05414ca9957d5b747b3a89c872b13ffc700f09",
      "assetIds": []
    },
    {
      "x": 132,
      "y": 246,
      "size": 1,
      "price": "4683000000000000000000",
      "reserved": "",
      "salt": "0xd26939d053c35b8ce94941f27bbeadff079bf7a429ccfd7a437dab25e8e7fd95",
      "assetIds": [
        "756640520037404005849090817741847994891925608236140",
        "381034599243361955870743815733763258840350944691308"
      ]
    },
    {
      "x": 132,
      "y": 247,
      "size": 1,
      "price": "4683000000000000000000",
      "reserved": "",
      "salt": "0x2a4fd9f5359d601db35887a3e209df39a0a423fc015bd88b1648145e989cbff8",
      "assetIds": [
        "756640520037404005849090817741847994891925608236140",
        "381034599243361955870743815733763258840350944691308"
      ]
    },
    {
      "x": 132,
      "y": 248,
      "size": 1,
      "price": "4683000000000000000000",
      "reserved": "",
      "salt": "0xd66e62d0fc9aae36dbb3cc3f31ee032b987387935ddb98c11be523fecb1aeade",
      "assetIds": [
        "756640520037404005849090817741847994891925608236140",
        "381034599243361955870743815733763258840350944691308"
      ]
    },
    {
      "x": 132,
      "y": 249,
      "size": 1,
      "price": "4683000000000000000000",
      "reserved": "",
      "salt": "0x735bd00953951395da9092ac8e4569a318186df13daaf7494fbf6970290f8c1e",
      "assetIds": [
        "756640520037404005849090817741847994891925608236140",
        "381034599243361955870743815733763258840350944691308"
      ]
    },
    {
      "x": 132,
      "y": 250,
      "size": 1,
      "price": "1011000000000000000000",
      "reserved": "",
      "salt": "0xee4ad8861445554d3ff071a5876061d276f3838d488fa6c88850e2d36396a034",
      "assetIds": []
    },
    {
      "x": 132,
      "y": 251,
      "size": 1,
      "price": "4683000000000000000000",
      "reserved": "",
      "salt": "0x9f66b777d9502354d34a25407d1b0acb1aecee7f9f1bd00288f40d132fc71b18",
      "assetIds": [
        "756640520037404005849090817741847994891925608236140",
        "381034599243361955870743815733763258840350944691308"
      ]
    },
    {
      "x": 132,
      "y": 258,
      "size": 1,
      "price": "1011000000000000000000",
      "reserved": "",
      "salt": "0x6ffe90d5c8150f75cebc0612078bb3bc716df005082898ffd2dc49e0716c1218",
      "assetIds": []
    },
    {
      "x": 132,
      "y": 259,
      "size": 1,
      "price": "1011000000000000000000",
      "reserved": "",
      "salt": "0x04b1aa3495acd313bbcf783dee5729eb1fef2b167e23e9cbc465cce3199484a8",
      "assetIds": []
    },
    {
      "x": 132,
      "y": 260,
      "size": 1,
      "price": "1011000000000000000000",
      "reserved": "",
      "salt": "0x97ebf8a96da2ebae7e0d10c755c6d2e25893af186a3832059853875bae667c63",
      "assetIds": []
    },
    {
      "x": 132,
      "y": 261,
      "size": 1,
      "price": "1011000000000000000000",
      "reserved": "",
      "salt": "0x199b2a7a2da74ca701ba1e60aeee1a03305c9a39c4539335110e5629b008f9a9",
      "assetIds": []
    },
    {
      "x": 132,
      "y": 262,
      "size": 1,
      "price": "1011000000000000000000",
      "reserved": "",
      "salt": "0x2f5208ee0f324601e3e8bdc400b434746ea9e1a5eafc02e2ffc583edb98bb3e7",
      "assetIds": []
    },
    {
      "x": 132,
      "y": 263,
      "size": 1,
      "price": "1011000000000000000000",
      "reserved": "",
      "salt": "0x47c4890cff7e8dd43bc8e86e5b4d9a99a4b81e7e1065ea4d0a9a413e3bda07f3",
      "assetIds": []
    },
    {
      "x": 133,
      "y": 243,
      "size": 1,
      "price": "1011000000000000000000",
      "reserved": "",
      "salt": "0x0f425beb26f40f207802351afb61dbd0cf2e03e5d3b0c0b948bfa3d9a1839b81",
      "assetIds": []
    },
    {
      "x": 133,
      "y": 244,
      "size": 1,
      "price": "1011000000000000000000",
      "reserved": "",
      "salt": "0x34d668629bd7c904a6617590db6db7b166e4fe81f384b0d55ad1524d788149af",
      "assetIds": []
    },
    {
      "x": 133,
      "y": 245,
      "size": 1,
      "price": "1011000000000000000000",
      "reserved": "",
      "salt": "0xf5b5d6b28b80e2440170ecedd453ca76277363476635e9daee45ba4c5acb978e",
      "assetIds": []
    },
    {
      "x": 133,
      "y": 246,
      "size": 1,
      "price": "1011000000000000000000",
      "reserved": "",
      "salt": "0x25444ce6f290206edf4c90c2ac24aee4873286fe31f27b53fded9de0763a58e9",
      "assetIds": []
    },
    {
      "x": 133,
      "y": 247,
      "size": 1,
      "price": "1011000000000000000000",
      "reserved": "",
      "salt": "0x6c33a90e4a11f536643bedf4bf04aa694d706fe89d50a8230311c535efdb82bb",
      "assetIds": []
    },
    {
      "x": 133,
      "y": 248,
      "size": 1,
      "price": "1011000000000000000000",
      "reserved": "",
      "salt": "0x3fe6644d8f9fd1ea26aaf2ff4a8c3717646912bc8a12d38c4e7f918bb37dfe77",
      "assetIds": []
    },
    {
      "x": 133,
      "y": 249,
      "size": 1,
      "price": "1011000000000000000000",
      "reserved": "",
      "salt": "0xcf472523b1bd2697a45d750deff2f78983dd40842668b9b5e01b7af798e6ccb8",
      "assetIds": []
    },
    {
      "x": 133,
      "y": 250,
      "size": 1,
      "price": "1011000000000000000000",
      "reserved": "",
      "salt": "0xaee714842cd9efc53854542f6d911d8bdec8b280928af0496d32670a2b73ac2c",
      "assetIds": []
    },
    {
      "x": 133,
      "y": 251,
      "size": 1,
      "price": "1011000000000000000000",
      "reserved": "",
      "salt": "0x1aae0ab34b51d873325a8de314978c896846a49882b4d16a99ba9933ece86394",
      "assetIds": []
    },
    {
      "x": 133,
      "y": 258,
      "size": 1,
      "price": "1011000000000000000000",
      "reserved": "",
      "salt": "0x4271799f8571d01c2fd5ad4b786d0d8cade191d60a59fb20166b35988143b59c",
      "assetIds": []
    },
    {
      "x": 133,
      "y": 259,
      "size": 1,
      "price": "1011000000000000000000",
      "reserved": "",
      "salt": "0xf9e2466de9a82059fd8c6ab70f985456ab41033f1a2dc2b979276e35037778f6",
      "assetIds": []
    },
    {
      "x": 133,
      "y": 260,
      "size": 1,
      "price": "1011000000000000000000",
      "reserved": "0x7a9fe22691c811ea339d9b73150e6911a5343dca",
      "salt": "0xb3dedfd543768740850b222d13dbde7bcc8e3208adcc3b30565e8f5b5c90d0de",
      "assetIds": []
    },
    {
      "x": 133,
      "y": 261,
      "size": 1,
      "price": "1011000000000000000000",
      "reserved": "",
      "salt": "0x42bed7ed78672e0d8e9f91e83b07c3208f3d68344347bdaa0cdd59d47f90b1cd",
      "assetIds": []
    },
    {
      "x": 133,
      "y": 262,
      "size": 1,
      "price": "1011000000000000000000",
      "reserved": "",
      "salt": "0x91ec17e1ea98331af733fe0def037358820f2b8134ed996f74963c13e129d4b8",
      "assetIds": []
    },
    {
      "x": 133,
      "y": 263,
      "size": 1,
      "price": "1011000000000000000000",
      "reserved": "",
      "salt": "0xab6a73f40b71d94f63f718bbdf9bdf04e33d1f908a0349a99833f92f338171c1",
      "assetIds": []
    },
    {
      "x": 134,
      "y": 243,
      "size": 1,
      "price": "1011000000000000000000",
      "reserved": "",
      "salt": "0x6b4bb3128fff94d8110eb5d39c5c971fc0cbd34bb49e118f174ab04a0209357e",
      "assetIds": []
    },
    {
      "x": 134,
      "y": 244,
      "size": 1,
      "price": "1011000000000000000000",
      "reserved": "",
      "salt": "0xf3d2601fe146b541b30084a2dcdcb54374477213c605d33aaa26c6a616375b27",
      "assetIds": []
    },
    {
      "x": 134,
      "y": 245,
      "size": 1,
      "price": "1011000000000000000000",
      "reserved": "",
      "salt": "0x725ceb241748a1565af8addd1e06c0a5a4d6d56422a6f466c6e5d3b90f61ace7",
      "assetIds": []
    },
    {
      "x": 134,
      "y": 246,
      "size": 1,
      "price": "1011000000000000000000",
      "reserved": "",
      "salt": "0x32b4106129a8ed0e4fa5c69f6b174b3edd96339afba3309bea082fb62b6c59a6",
      "assetIds": []
    },
    {
      "x": 134,
      "y": 247,
      "size": 1,
      "price": "1011000000000000000000",
      "reserved": "",
      "salt": "0x47fdc53769ec4a276492133fc3b66d3401a71b75ab93cb35cfc3d338f5e51bdb",
      "assetIds": []
    },
    {
      "x": 134,
      "y": 248,
      "size": 1,
      "price": "1011000000000000000000",
      "reserved": "",
      "salt": "0x3d0d4eef3c9abf8b0e4cdbbaa301f22b4c4ab3b378bdcd6875dbbb8ba22eaa0f",
      "assetIds": []
    },
    {
      "x": 134,
      "y": 249,
      "size": 1,
      "price": "1011000000000000000000",
      "reserved": "",
      "salt": "0x456b9405a6b2a94074526cd2c9e54c81fe9791d7cdd43405118ab2e1d54496ad",
      "assetIds": []
    },
    {
      "x": 134,
      "y": 250,
      "size": 1,
      "price": "4683000000000000000000",
      "reserved": "",
      "salt": "0x475695214875a8d9ce34a5c8f076523757c7c718bc61b3a099940655c94492c9",
      "assetIds": [
        "1879073777507537447029520769267953353987681801241708",
        "2248833691752255885335053031945172957960632734614636"
      ]
    },
    {
      "x": 134,
      "y": 251,
      "size": 1,
      "price": "1011000000000000000000",
      "reserved": "",
      "salt": "0x6191d1077d570c72c94de8839c0f72024add3ca5e09629faa63ffbcdeb4a287e",
      "assetIds": []
    },
    {
      "x": 134,
      "y": 258,
      "size": 1,
      "price": "1011000000000000000000",
      "reserved": "",
      "salt": "0x17df9b20573b8122c24f763c07e5ce3cef4e208d567c7e56f727704056b84f53",
      "assetIds": []
    },
    {
      "x": 134,
      "y": 259,
      "size": 1,
      "price": "1011000000000000000000",
      "reserved": "",
      "salt": "0xd9102fb5ee56a31acc3d1ede594c18e7e795661032b15c9f30539407ed3c5675",
      "assetIds": []
    },
    {
      "x": 134,
      "y": 260,
      "size": 1,
      "price": "1011000000000000000000",
      "reserved": "",
      "salt": "0xc81d31fca1e4d3b275a0ae98722c0a8f96b244ca50375a6666748aa38abaca42",
      "assetIds": []
    },
    {
      "x": 134,
      "y": 261,
      "size": 1,
      "price": "1011000000000000000000",
      "reserved": "",
      "salt": "0xafbeba5dc88d6e21c8244af9f4dde39f2d7bc3d1409dccde7ef6dfbc38451ab7",
      "assetIds": []
    },
    {
      "x": 134,
      "y": 262,
      "size": 1,
      "price": "1011000000000000000000",
      "reserved": "",
      "salt": "0x4ea3cdac0656a0ba33e63997ece250d31dc96712aca408011600131a0e2a99ed",
      "assetIds": []
    },
    {
      "x": 134,
      "y": 263,
      "size": 1,
      "price": "1011000000000000000000",
      "reserved": "",
      "salt": "0xc670a366e29c9a165e7a09f12209e08211f6360ff75fb40f72503aac87f0d177",
      "assetIds": []
    },
    {
      "x": 135,
      "y": 243,
      "size": 1,
      "price": "1011000000000000000000",
      "reserved": "",
      "salt": "0xab9f97b858c0b12c1b13025e0b6e5a2f9147fbe7dcbc4b36e5eed2ebf5469ada",
      "assetIds": []
    },
    {
      "x": 135,
      "y": 244,
      "size": 1,
      "price": "1011000000000000000000",
      "reserved": "",
      "salt": "0x5da8057e11e39c8341a145d2cc4a928b8cb9abe7c17d80b24d4799a0e7f73c0d",
      "assetIds": []
    },
    {
      "x": 135,
      "y": 245,
      "size": 1,
      "price": "1011000000000000000000",
      "reserved": "",
      "salt": "0xd5e77aac8558b0e349ff513a29d03446a15238972ce4021af17a91af27ec7a3b",
      "assetIds": []
    },
    {
      "x": 135,
      "y": 246,
      "size": 1,
      "price": "1011000000000000000000",
      "reserved": "",
      "salt": "0xdcbca87ce2c12ceb05d7b730aa9f4638a6dc000dfc286e107b0b28690d8d3de9",
      "assetIds": []
    },
    {
      "x": 135,
      "y": 247,
      "size": 1,
      "price": "1011000000000000000000",
      "reserved": "",
      "salt": "0x4e4b01079229e7c1cfb867732f50e9d12b1f54b2e7eeda66230da31b0ed297b8",
      "assetIds": []
    },
    {
      "x": 135,
      "y": 248,
      "size": 1,
      "price": "1011000000000000000000",
      "reserved": "",
      "salt": "0x3dd3e3097220aeab2834fb84d902a559d1b3164d1edb5fab9675f0b3d69456ff",
      "assetIds": []
    },
    {
      "x": 135,
      "y": 258,
      "size": 1,
      "price": "1011000000000000000000",
      "reserved": "",
      "salt": "0xdd6b02eb69fdd9034d8d0c25ec3643246ecb343117c7f784bdead4c627fb723e",
      "assetIds": []
    },
    {
      "x": 135,
      "y": 259,
      "size": 1,
      "price": "1011000000000000000000",
      "reserved": "",
      "salt": "0x49c08d93e980e9200be75d624f90e62489eab285d1dac0a8eda867e1be4c7439",
      "assetIds": []
    },
    {
      "x": 135,
      "y": 260,
      "size": 1,
      "price": "1011000000000000000000",
      "reserved": "",
      "salt": "0x994573329a92c4ab2bebb70e80278530a84dbe32b2d03724bf66d16ba03acf46",
      "assetIds": []
    },
    {
      "x": 135,
      "y": 261,
      "size": 1,
      "price": "1011000000000000000000",
      "reserved": "",
      "salt": "0xb1ecd28b4805c34857111c700d93a3dca24a29348bee61a5774568ee4e47092a",
      "assetIds": []
    },
    {
      "x": 135,
      "y": 262,
      "size": 1,
      "price": "1011000000000000000000",
      "reserved": "",
      "salt": "0x5926080daf8f59d614199c7187a8848f7aa7ef81e1f509d91f5488ebc140abcc",
      "assetIds": []
    },
    {
      "x": 135,
      "y": 263,
      "size": 1,
      "price": "1011000000000000000000",
      "reserved": "",
      "salt": "0x64795ca569eda4ea19937244ed7d5fab0e45b042314d19d84437e540cdaf9106",
      "assetIds": []
    },
    {
      "x": 136,
      "y": 243,
      "size": 1,
      "price": "1011000000000000000000",
      "reserved": "",
      "salt": "0x3fe82adb98ab575096692df0561d2e3796c990b8ddfe69d80de61a9f466e5176",
      "assetIds": []
    },
    {
      "x": 136,
      "y": 244,
      "size": 1,
      "price": "1011000000000000000000",
      "reserved": "0x7a9fe22691c811ea339d9b73150e6911a5343dca",
      "salt": "0x64c80fdc3cd20c59c19d5cee860d7003e4d323a2d549b0cec4fcd3642dc29a5e",
      "assetIds": []
    },
    {
      "x": 136,
      "y": 245,
      "size": 1,
      "price": "1011000000000000000000",
      "reserved": "",
      "salt": "0xfaf313a61a4662b4c240eaef48a9fdf73f4b11b86a360de77d7dbf70e4da70b5",
      "assetIds": []
    },
    {
      "x": 136,
      "y": 246,
      "size": 1,
      "price": "1011000000000000000000",
      "reserved": "",
      "salt": "0xb03675881586de1d3fe590e3b11a5e9873c113af07714753a5e52c763fabbd30",
      "assetIds": []
    },
    {
      "x": 136,
      "y": 247,
      "size": 1,
      "price": "1011000000000000000000",
      "reserved": "",
      "salt": "0x0e46bc4bf403c57b19ba880d0f6c262d46628d9fafea9ca03dc0e6f260aa8570",
      "assetIds": []
    },
    {
      "x": 136,
      "y": 248,
      "size": 1,
      "price": "4683000000000000000000",
      "reserved": "",
      "salt": "0xf4367a5fa6ec0b792b1a87b294cbd3342e09655ceab89114416b2514770b68d4",
      "assetIds": [
        "1879073777507537447029520769267953353987681801241708",
        "2248833691752255885335053031945172957960632734614636"
      ]
    },
    {
      "x": 136,
      "y": 258,
      "size": 1,
      "price": "1011000000000000000000",
      "reserved": "",
      "salt": "0x7b25303dc08d6deba5df2888fbcfb4eae9cef8e778f3efc7c91f5e323048438c",
      "assetIds": []
    },
    {
      "x": 136,
      "y": 259,
      "size": 1,
      "price": "1011000000000000000000",
      "reserved": "",
      "salt": "0xefd3de753fad8ac542feaf5dafbf5d1cecec0e476b956640b27b247685c2c8f1",
      "assetIds": []
    },
    {
      "x": 136,
      "y": 260,
      "size": 1,
      "price": "1011000000000000000000",
      "reserved": "",
      "salt": "0xb0dd5b338cd1b85de6969a296c422681df2fcdc3db7922edb0b960b1832df9b2",
      "assetIds": []
    },
    {
      "x": 136,
      "y": 261,
      "size": 1,
      "price": "1011000000000000000000",
      "reserved": "",
      "salt": "0xa93acaf8cc6aec0f10ec1d799c253ad34b9c1e09bda2d7b7c2ff801971f4ffcd",
      "assetIds": []
    },
    {
      "x": 136,
      "y": 262,
      "size": 1,
      "price": "1011000000000000000000",
      "reserved": "0x7a9fe22691c811ea339d9b73150e6911a5343dca",
      "salt": "0x4c5193ae16e7c30f0231a702e58fa607f4eae825a11655e719887b3871a747cf",
      "assetIds": []
    },
    {
      "x": 136,
      "y": 263,
      "size": 1,
      "price": "1011000000000000000000",
      "reserved": "",
      "salt": "0xbab99843fda3d85983a3ed9f88405244d422a91b3474fdb950d53d8d52e28412",
      "assetIds": []
    },
    {
      "x": 137,
      "y": 243,
      "size": 1,
      "price": "1011000000000000000000",
      "reserved": "",
      "salt": "0xdb68709d345bf800120bfcb7095a097c0ae44a4be5c0a9d359a0e77507d0664d",
      "assetIds": []
    },
    {
      "x": 137,
      "y": 244,
      "size": 1,
      "price": "1011000000000000000000",
      "reserved": "",
      "salt": "0xd9eb04005d8003bd76dab90e077dc5258f78e436096f79e0f5300085ea38ec78",
      "assetIds": []
    },
    {
      "x": 137,
      "y": 245,
      "size": 1,
      "price": "1011000000000000000000",
      "reserved": "",
      "salt": "0x2c227ef55d2effee728fbd2e06de4db70acafb949443ed5554aa7da44865f889",
      "assetIds": []
    },
    {
      "x": 137,
      "y": 246,
      "size": 1,
      "price": "1011000000000000000000",
      "reserved": "",
      "salt": "0xbfc207916df95cd07de1ffd8bdc862d9e095858d40c39f84a7d517ca4ed5617c",
      "assetIds": []
    },
    {
      "x": 137,
      "y": 247,
      "size": 1,
      "price": "1011000000000000000000",
      "reserved": "",
      "salt": "0x8002b971ce5d0df2993d4f85b5a7803881394bdff69c4a1b0917751759c223a5",
      "assetIds": []
    },
    {
      "x": 137,
      "y": 248,
      "size": 1,
      "price": "1011000000000000000000",
      "reserved": "",
      "salt": "0x31932fe519c0e63cbcd64af3b57f29cb9b44d3c9798aa08ed28291ab3cad2e2f",
      "assetIds": []
    },
    {
      "x": 137,
      "y": 258,
      "size": 1,
      "price": "1011000000000000000000",
      "reserved": "",
      "salt": "0x23fd271be68d8d23cc5ed7537900494125125d985906264c181e234bb39b86c3",
      "assetIds": []
    },
    {
      "x": 137,
      "y": 259,
      "size": 1,
      "price": "4683000000000000000000",
      "reserved": "",
      "salt": "0x8e4e35563e5a933ccd2794c02b27a98f28a2c6eab2bbd064298ffed25bddf7de",
      "assetIds": [
        "1502006355076164494132970082427152334916451205153900",
        "1126400434282122444154623080419067598864876541609068"
      ]
    },
    {
      "x": 137,
      "y": 260,
      "size": 1,
      "price": "1011000000000000000000",
      "reserved": "",
      "salt": "0xc5cc964caa2b723aa128c3556cc368f64a5c05ab796f5b824fa24dcb87c5abf9",
      "assetIds": []
    },
    {
      "x": 137,
      "y": 261,
      "size": 1,
      "price": "1011000000000000000000",
      "reserved": "",
      "salt": "0x73aace344d9ca5ad26b9e83ca7616b443046b88075952d98b1c0b96ebc7dd9ba",
      "assetIds": []
    },
    {
      "x": 137,
      "y": 262,
      "size": 1,
      "price": "1011000000000000000000",
      "reserved": "",
      "salt": "0xaa4ef85167f5caa32cfdc6f9c9b813cfe8bcd3789943ff7bc0b66b5b80376b38",
      "assetIds": []
    },
    {
      "x": 137,
      "y": 263,
      "size": 1,
      "price": "1011000000000000000000",
      "reserved": "",
      "salt": "0xe2cbec10f982ab1a609fe40e411fe3b866fbed127008f15422f312eff20ef8e3",
      "assetIds": []
    },
    {
      "x": 138,
      "y": 246,
      "size": 1,
      "price": "1011000000000000000000",
      "reserved": "",
      "salt": "0xa45c91559a0e25210619be0e8f404272422c6f58688c70bda765868207b22718",
      "assetIds": []
    },
    {
      "x": 138,
      "y": 247,
      "size": 1,
      "price": "1011000000000000000000",
      "reserved": "",
      "salt": "0xabb72e327754b24b04b7f90f848fbadfc10bc3315c82ba6c38cf6aea05e0368c",
      "assetIds": []
    },
    {
      "x": 138,
      "y": 248,
      "size": 1,
      "price": "1011000000000000000000",
      "reserved": "",
      "salt": "0x0466632026e35a9ebae081d1cb579b76ef65b90b37ae241eba08724a2c78f7bd",
      "assetIds": []
    },
    {
      "x": 138,
      "y": 249,
      "size": 1,
      "price": "4683000000000000000000",
      "reserved": "",
      "salt": "0x4e57ecde48f879a0de55d38ce8e46657259337450a327b1d17671902cb658b99",
      "assetIds": [
        "1879073777507537447029520769267953353987681801241708",
        "2248833691752255885335053031945172957960632734614636"
      ]
    },
    {
      "x": 138,
      "y": 250,
      "size": 1,
      "price": "1011000000000000000000",
      "reserved": "",
      "salt": "0x6d6961b3c2595f8eb2c07d8d70769b9060d8e3a903f1386908f558a9a2dac052",
      "assetIds": []
    },
    {
      "x": 138,
      "y": 251,
      "size": 1,
      "price": "4683000000000000000000",
      "reserved": "",
      "salt": "0xad3bb4b1275e0a5b8f08229b430dfdf6a0cd851c723c0903760b21075f31e90a",
      "assetIds": [
        "1879073777507537447029520769267953353987681801241708",
        "2248833691752255885335053031945172957960632734614636"
      ]
    },
    {
      "x": 138,
      "y": 252,
      "size": 1,
      "price": "1011000000000000000000",
      "reserved": "",
      "salt": "0xd2926c3ff67f624483484a54b4d808556684338ea6d8b2234c9ae748934f9117",
      "assetIds": []
    },
    {
      "x": 138,
      "y": 253,
      "size": 1,
      "price": "1011000000000000000000",
      "reserved": "",
      "salt": "0xfff6edff92b8dec84aa7691acac637f9737f42c7ef5cb0a06b68cc539a4c417d",
      "assetIds": []
    },
    {
      "x": 138,
      "y": 254,
      "size": 1,
      "price": "1011000000000000000000",
      "reserved": "",
      "salt": "0xcf173f47e01f396fed8264e1729b22aeeba27301864a0af8712627d48c509d06",
      "assetIds": []
    },
    {
      "x": 138,
      "y": 255,
      "size": 1,
      "price": "1011000000000000000000",
      "reserved": "",
      "salt": "0x275ffed9f64765157eff096bfedd4998ee6990b5aca56ffa17698ffe3818e260",
      "assetIds": []
    },
    {
      "x": 138,
      "y": 256,
      "size": 1,
      "price": "1011000000000000000000",
      "reserved": "",
      "salt": "0x5d37cd9be678c3ac56fee24d015f684f65fc354df55b94c651de102f80927a29",
      "assetIds": []
    },
    {
      "x": 138,
      "y": 257,
      "size": 1,
      "price": "4683000000000000000000",
      "reserved": "",
      "salt": "0xc964793334d559866a542f9ab430cdd370bc47961d64a9424aea430c1dcb20d1",
      "assetIds": [
        "1502006355076164494132970082427152334916451205153900",
        "1126400434282122444154623080419067598864876541609068"
      ]
    },
    {
      "x": 138,
      "y": 261,
      "size": 1,
      "price": "4683000000000000000000",
      "reserved": "",
      "salt": "0x62cce815251deaed9c16572d0c807767f0df55c401dbe323abf566c5a0394272",
      "assetIds": [
        "1502006355076164494132970082427152334916451205153900",
        "1126400434282122444154623080419067598864876541609068"
      ]
    },
    {
      "x": 138,
      "y": 262,
      "size": 1,
      "price": "1011000000000000000000",
      "reserved": "",
      "salt": "0x4a5353a0ecf85145868d8a3443e8d64f91cec578f156941f6a8cb41bad629bed",
      "assetIds": []
    },
    {
      "x": 138,
      "y": 263,
      "size": 1,
      "price": "1011000000000000000000",
      "reserved": "",
      "salt": "0xef4abdc24c64b2168ce887580e62262d0f844549ddeaa4c6c9f8586a61572292",
      "assetIds": []
    },
    {
      "x": 139,
      "y": 246,
      "size": 1,
      "price": "1011000000000000000000",
      "reserved": "",
      "salt": "0x5780e9089d5d43a40f23298c26d6947e2e14659e1c7cae7b0f6dc59429b7b32e",
      "assetIds": []
    },
    {
      "x": 139,
      "y": 247,
      "size": 1,
      "price": "1011000000000000000000",
      "reserved": "",
      "salt": "0x764e06d0a89662e385ec67fcf5a7a4ed0981da7b1d6efd5cafdd1186bbe88647",
      "assetIds": []
    },
    {
      "x": 139,
      "y": 248,
      "size": 1,
      "price": "1011000000000000000000",
      "reserved": "",
      "salt": "0x46cd346d5ad4d2fc40b79e2774c97b21b553217eeee6707ddde566d6e4870b97",
      "assetIds": []
    },
    {
      "x": 139,
      "y": 249,
      "size": 1,
      "price": "1011000000000000000000",
      "reserved": "",
      "salt": "0x2ea647872b66518034317e3dde5de358e89e55e7ffcfe5b0ce41f9d7c79dcd80",
      "assetIds": []
    },
    {
      "x": 139,
      "y": 250,
      "size": 1,
      "price": "1011000000000000000000",
      "reserved": "",
      "salt": "0x409e4e5b8312cce65110ae38f2949e229ae272708886e5a4c31ccc5c9f19f553",
      "assetIds": []
    },
    {
      "x": 139,
      "y": 251,
      "size": 1,
      "price": "1011000000000000000000",
      "reserved": "",
      "salt": "0x93a9c41ca2d3cf7993d29ab23dc2e585246e5352f4efdbfa2732d9bf49219262",
      "assetIds": []
    },
    {
      "x": 139,
      "y": 252,
      "size": 1,
      "price": "1011000000000000000000",
      "reserved": "",
      "salt": "0x250b2b1134ae3626501c9dcae53ffeaae23aa9eaeb8859839aca8a023e808c5f",
      "assetIds": []
    },
    {
      "x": 139,
      "y": 253,
      "size": 1,
      "price": "1011000000000000000000",
      "reserved": "",
      "salt": "0x2f6db04750003766ed6ea6326db729f6e523204a0821e294384cbced65104806",
      "assetIds": []
    },
    {
      "x": 139,
      "y": 254,
      "size": 1,
      "price": "1011000000000000000000",
      "reserved": "",
      "salt": "0x02f991abe6e0ed1dc430595ca2c8f67c9c9867d66d781ce773c11fcf4a392506",
      "assetIds": []
    },
    {
      "x": 139,
      "y": 255,
      "size": 1,
      "price": "1011000000000000000000",
      "reserved": "0x7a9fe22691c811ea339d9b73150e6911a5343dca",
      "salt": "0xe256668fef9d4cc05fc4b0b4c05fbd58a507cb34a6cbcbcfffc265d55c100713",
      "assetIds": []
    },
    {
      "x": 139,
      "y": 256,
      "size": 1,
      "price": "1011000000000000000000",
      "reserved": "",
      "salt": "0x896ce4b879efe6abf3d02d6d13edf368393849d7514b98f573a4f7413d402e81",
      "assetIds": []
    },
    {
      "x": 139,
      "y": 257,
      "size": 1,
      "price": "1011000000000000000000",
      "reserved": "",
      "salt": "0x4ce1b8b706103662d553e2beb570ba976acb83d62e7b79100cdf1042e3104fc4",
      "assetIds": []
    },
    {
      "x": 139,
      "y": 261,
      "size": 1,
      "price": "1011000000000000000000",
      "reserved": "",
      "salt": "0xc3bbeef392d0c79f221b69cd4729d4a870dca94cff7263907a2ce487b2153c24",
      "assetIds": []
    },
    {
      "x": 139,
      "y": 262,
      "size": 1,
      "price": "1011000000000000000000",
      "reserved": "",
      "salt": "0xa547cd6a8efe26f1de73da6c777eeb430a09aa9b936a6a8597c8d59cdc87f219",
      "assetIds": []
    },
    {
      "x": 139,
      "y": 263,
      "size": 1,
      "price": "1011000000000000000000",
      "reserved": "",
      "salt": "0xf56649d634d1b730a1a9a3ca53d9a9496e77b28350e4eb063b5aecb68f6290f4",
      "assetIds": []
    },
    {
      "x": 140,
      "y": 246,
      "size": 1,
      "price": "1011000000000000000000",
      "reserved": "",
      "salt": "0xfca141954fa9bc522453fff3ddaa56f17bca013e69d9478d3ba36e5e6da5d437",
      "assetIds": []
    },
    {
      "x": 140,
      "y": 247,
      "size": 1,
      "price": "1011000000000000000000",
      "reserved": "",
      "salt": "0x47a70392e4c6caf8c640222944c09e53c9796460d79cb13633a222579a8ca0ee",
      "assetIds": []
    },
    {
      "x": 140,
      "y": 248,
      "size": 1,
      "price": "1011000000000000000000",
      "reserved": "",
      "salt": "0x94fb697da4780adcbd4ee7f58de325c526da5de381a3d110bb0f6a6d7d189a93",
      "assetIds": []
    },
    {
      "x": 140,
      "y": 249,
      "size": 1,
      "price": "1011000000000000000000",
      "reserved": "",
      "salt": "0xe2380d81556bdc2f017a2e2ae60f8b79a677fcb733ce79df87cc96b9a280e7de",
      "assetIds": []
    },
    {
      "x": 140,
      "y": 250,
      "size": 1,
      "price": "1011000000000000000000",
      "reserved": "",
      "salt": "0x2eb6bddbb5054de951033cc24313fe330c84bd9c835d057344d1b605db9df44d",
      "assetIds": []
    },
    {
      "x": 140,
      "y": 251,
      "size": 1,
      "price": "1011000000000000000000",
      "reserved": "",
      "salt": "0xaa912ad3dea6d9c4a2a954e364a3c83090d206d10a351abf8e5633e23429337e",
      "assetIds": []
    },
    {
      "x": 140,
      "y": 252,
      "size": 1,
      "price": "1011000000000000000000",
      "reserved": "",
      "salt": "0x49fca2f54a8b70e4e7c52f73e3aacf94a50f95753657df3e6c3eb0c380aab4c2",
      "assetIds": []
    },
    {
      "x": 140,
      "y": 253,
      "size": 1,
      "price": "1011000000000000000000",
      "reserved": "",
      "salt": "0x29ac377300e602827498f95b6a18120b9d4064d0cba8ab5c83521c48dbf7af18",
      "assetIds": []
    },
    {
      "x": 140,
      "y": 254,
      "size": 1,
      "price": "1011000000000000000000",
      "reserved": "",
      "salt": "0x099fd16b4b9ddb2a9f00602130e5f9fe941901f1f21322aee42e392a68494677",
      "assetIds": []
    },
    {
      "x": 140,
      "y": 255,
      "size": 1,
      "price": "1011000000000000000000",
      "reserved": "",
      "salt": "0xfa7f72078680289ba0d6cfc550458525f8e5e1de2b0798e6d147c93a53346f83",
      "assetIds": []
    },
    {
      "x": 140,
      "y": 256,
      "size": 1,
      "price": "1011000000000000000000",
      "reserved": "",
      "salt": "0x106f89db3c619df208cf02a0803c1b215694682530b4fae553403fbeded1992d",
      "assetIds": []
    },
    {
      "x": 140,
      "y": 257,
      "size": 1,
      "price": "4683000000000000000000",
      "reserved": "",
      "salt": "0x290a47f1e956bcec8983b125239818318477f1e90586452ace43c2379a277f5f",
      "assetIds": [
        "1502006355076164494132970082427152334916451205153900",
        "1126400434282122444154623080419067598864876541609068"
      ]
    },
    {
      "x": 140,
      "y": 261,
      "size": 1,
      "price": "4683000000000000000000",
      "reserved": "",
      "salt": "0xecf9f6f0de7af27aa527aeb35ee77f06b8a534f65e163b7133a7e6351b90ac39",
      "assetIds": [
        "1502006355076164494132970082427152334916451205153900",
        "1126400434282122444154623080419067598864876541609068"
      ]
    },
    {
      "x": 140,
      "y": 262,
      "size": 1,
      "price": "1011000000000000000000",
      "reserved": "",
      "salt": "0xe6b8ba5b7eb5b652141308caa287db38bbb99f366ced16e6717a7a559c427a43",
      "assetIds": []
    },
    {
      "x": 140,
      "y": 263,
      "size": 1,
      "price": "1011000000000000000000",
      "reserved": "",
      "salt": "0xb714020226287f16e18bd40cfb5fc135f082c97b73a3fe389fa863d22b2d7a13",
      "assetIds": []
    },
    {
      "x": 141,
      "y": 249,
      "size": 1,
      "price": "1011000000000000000000",
      "reserved": "",
      "salt": "0x2a996bf654722eee28170ce8e764663ddb3a225fb258a01e6cc85792f7dd5c47",
      "assetIds": []
    },
    {
      "x": 141,
      "y": 250,
      "size": 1,
      "price": "1011000000000000000000",
      "reserved": "",
      "salt": "0xfa2ffb5dab2c76e64e3056e0ef6f247fd55b93b643396bc0cd381cf25d0bc240",
      "assetIds": []
    },
    {
      "x": 141,
      "y": 251,
      "size": 1,
      "price": "1011000000000000000000",
      "reserved": "",
      "salt": "0x9c277b220a9a48b2a0dfe51b63d262490b631a82d7b8bd85d206c7056973ece6",
      "assetIds": []
    },
    {
      "x": 141,
      "y": 252,
      "size": 1,
      "price": "1011000000000000000000",
      "reserved": "",
      "salt": "0x767a53f8452e23218303175da921525775687c65677b0c1caf6be30e5db66d68",
      "assetIds": []
    },
    {
      "x": 141,
      "y": 253,
      "size": 1,
      "price": "1011000000000000000000",
      "reserved": "",
      "salt": "0xcf068ac0fbf59813572a83e54f157f456110424623c235f96ba4e5540b3c5d53",
      "assetIds": []
    },
    {
      "x": 141,
      "y": 254,
      "size": 1,
      "price": "1011000000000000000000",
      "reserved": "",
      "salt": "0x0d45ca18288a94f40f63837a57183318a96b8706703e01bb22cc859d4007f353",
      "assetIds": []
    },
    {
      "x": 141,
      "y": 255,
      "size": 1,
      "price": "1011000000000000000000",
      "reserved": "",
      "salt": "0x733748d49965018a91a83bc656fbca91c03f619dea2485b001e5a349ba4078df",
      "assetIds": []
    },
    {
      "x": 141,
      "y": 256,
      "size": 1,
      "price": "1011000000000000000000",
      "reserved": "",
      "salt": "0x453550f4ce3c4ea985a498fedccd75c77016e2f969a3e4f44af7123e50b833c1",
      "assetIds": []
    },
    {
      "x": 141,
      "y": 257,
      "size": 1,
      "price": "1011000000000000000000",
      "reserved": "",
      "salt": "0x19975cd5197424fbaef82e89d75cae9aa6ae55f7bc90f781ba767601d003fd80",
      "assetIds": []
    },
    {
      "x": 141,
      "y": 261,
      "size": 1,
      "price": "1011000000000000000000",
      "reserved": "",
      "salt": "0xd432729c48de94c4f4f77d110c518a6ea7ebe8fda1bf2eaf83d0ecdffba0ee22",
      "assetIds": []
    },
    {
      "x": 141,
      "y": 262,
      "size": 1,
      "price": "1011000000000000000000",
      "reserved": "",
      "salt": "0x9984b182624664ceeae47e97e96bf53245d243b021c0ed8fcc2ed562172c3c35",
      "assetIds": []
    },
    {
      "x": 141,
      "y": 263,
      "size": 1,
      "price": "1011000000000000000000",
      "reserved": "",
      "salt": "0xfd0c42e23417e3ce5b876766154a3e846e7557826ff95a8ae225b9bfae84c4f4",
      "assetIds": []
    },
    {
      "x": 142,
      "y": 249,
      "size": 1,
      "price": "1011000000000000000000",
      "reserved": "0x7a9fe22691c811ea339d9b73150e6911a5343dca",
      "salt": "0xfc9076e2ab6bfef58364e8687b2b006ee7ea534341523bf0e415fefca3ff6213",
      "assetIds": []
    },
    {
      "x": 142,
      "y": 250,
      "size": 1,
      "price": "1011000000000000000000",
      "reserved": "",
      "salt": "0xd455a097b913c4102153481248340212434e161db7421ef024aec3628a5174e1",
      "assetIds": []
    },
    {
      "x": 142,
      "y": 251,
      "size": 1,
      "price": "1011000000000000000000",
      "reserved": "",
      "salt": "0xf5b9a1b57232c078d2b49e74505f8e0916086cfeed7de1c74b77cc966bd1292a",
      "assetIds": []
    },
    {
      "x": 142,
      "y": 252,
      "size": 1,
      "price": "1011000000000000000000",
      "reserved": "",
      "salt": "0x5f59a6cfa04ff8702838b3bff10e3b4a38abadb2e81d4aaa12b322fccaee1b27",
      "assetIds": []
    },
    {
      "x": 142,
      "y": 253,
      "size": 1,
      "price": "1011000000000000000000",
      "reserved": "0x7a9fe22691c811ea339d9b73150e6911a5343dca",
      "salt": "0x9840ff33b1a9704440c8bfc1229b16785e111d3c448216848115639e6d81dd72",
      "assetIds": []
    },
    {
      "x": 142,
      "y": 254,
      "size": 1,
      "price": "1011000000000000000000",
      "reserved": "",
      "salt": "0x7379976f288923adcbb1d29b586c47fa8a0c6424fb94ea0f5ecfe928e6efe03d",
      "assetIds": []
    },
    {
      "x": 142,
      "y": 255,
      "size": 1,
      "price": "1011000000000000000000",
      "reserved": "",
      "salt": "0x1af3417c649a497a7adaca07b548ae37052a7498109afebeb344c9358953eab1",
      "assetIds": []
    },
    {
      "x": 142,
      "y": 256,
      "size": 1,
      "price": "1011000000000000000000",
      "reserved": "",
      "salt": "0x9cf29f00f32c59511a708ebc94aa1cfdaf2d2f8f7ce16c6b46aa4fb6791528c0",
      "assetIds": []
    },
    {
      "x": 142,
      "y": 257,
      "size": 1,
      "price": "1011000000000000000000",
      "reserved": "",
      "salt": "0x25296d0c79f65b2c82b723f84180909e31993293b590e899d448a4ced52d10a8",
      "assetIds": []
    },
    {
      "x": 142,
      "y": 261,
      "size": 1,
      "price": "1011000000000000000000",
      "reserved": "",
      "salt": "0x0f70e79d1b5f011b76019c64cb2f6b52dcef26d93f20fc5043c64f6fefbd7143",
      "assetIds": []
    },
    {
      "x": 142,
      "y": 262,
      "size": 1,
      "price": "1011000000000000000000",
      "reserved": "",
      "salt": "0x647987e905b9891eeeaffe8d399ebf0b65f8df6a00d894b8ea4cfa83ee55f56b",
      "assetIds": []
    },
    {
      "x": 142,
      "y": 263,
      "size": 1,
      "price": "1011000000000000000000",
      "reserved": "",
      "salt": "0x9a07f27c0164af4698cd73242341fcc278f6e01f0659b7491da29c89ef1c8acb",
      "assetIds": []
    },
    {
      "x": 143,
      "y": 249,
      "size": 1,
      "price": "1011000000000000000000",
      "reserved": "",
      "salt": "0x142ff606ed78da98a27e6b31d06b762d82661c7916d27979eb1eb3bd328062d6",
      "assetIds": []
    },
    {
      "x": 143,
      "y": 250,
      "size": 1,
      "price": "1011000000000000000000",
      "reserved": "",
      "salt": "0xd776ff090cab51cbb13cada577b1fef55317c0da7652dae22deb28980715078e",
      "assetIds": []
    },
    {
      "x": 143,
      "y": 251,
      "size": 1,
      "price": "1011000000000000000000",
      "reserved": "",
      "salt": "0x68b914e385539127329bd9627e7510e4042f0b723b832500b72850072ded3caa",
      "assetIds": []
    },
    {
      "x": 143,
      "y": 252,
      "size": 1,
      "price": "1011000000000000000000",
      "reserved": "",
      "salt": "0xf9cfe39e498e1165788f40179f643551391a068aa32922026b6a3b27f8ff929f",
      "assetIds": []
    },
    {
      "x": 143,
      "y": 253,
      "size": 1,
      "price": "1011000000000000000000",
      "reserved": "",
      "salt": "0xcc4ea892f6bb5f63c8b515a332e0d7d65b4ed3fb7b3cad1f349f4a387f9f28fd",
      "assetIds": []
    },
    {
      "x": 143,
      "y": 254,
      "size": 1,
      "price": "1011000000000000000000",
      "reserved": "",
      "salt": "0x094fa55e0e73d4a8f7ae13614d21249b82ba6cf9fda6db8d54cc7005b87f1b96",
      "assetIds": []
    },
    {
      "x": 143,
      "y": 255,
      "size": 1,
      "price": "1011000000000000000000",
      "reserved": "",
      "salt": "0x534a3d9b7cec46909f9d9a9d89f903ffffc08397af4a8a450b0ca189611bafba",
      "assetIds": []
    },
    {
      "x": 143,
      "y": 256,
      "size": 1,
      "price": "1011000000000000000000",
      "reserved": "",
      "salt": "0xec55d9c1b5489ebadb6ce129d6af5bab75ea7e6a5cc9af4749b9100cf81667e1",
      "assetIds": []
    },
    {
      "x": 143,
      "y": 257,
      "size": 1,
      "price": "1011000000000000000000",
      "reserved": "",
      "salt": "0xc4c462302058d38b4b4a011b84da608b2749e7e57d32baae065ba9d479959b97",
      "assetIds": []
    },
    {
      "x": 143,
      "y": 261,
      "size": 1,
      "price": "1011000000000000000000",
      "reserved": "",
      "salt": "0xfcabaf6ee48c9b37e5d218af898717021a313f8777fb9a68ea115c5bb6698972",
      "assetIds": []
    },
    {
      "x": 143,
      "y": 262,
      "size": 1,
      "price": "1011000000000000000000",
      "reserved": "0x7a9fe22691c811ea339d9b73150e6911a5343dca",
      "salt": "0x3cac73725f6906d78e1fe3c7fc2d072fda230e244fac3fdb199edc92ddcc6e5c",
      "assetIds": []
    },
    {
      "x": 143,
      "y": 263,
      "size": 1,
      "price": "1011000000000000000000",
      "reserved": "",
      "salt": "0x6468eadc9cff55ba371ff373df92787c38df2f09d9b745a81c9514a3cdafce93",
      "assetIds": []
    },
    {
      "x": 144,
      "y": 252,
      "size": 1,
      "price": "1011000000000000000000",
      "reserved": "",
      "salt": "0x9340965bb45b1c82a880153df2c74f9401bf8965fd81954a91eb826da9fddf95",
      "assetIds": []
    },
    {
      "x": 144,
      "y": 253,
      "size": 1,
      "price": "1011000000000000000000",
      "reserved": "",
      "salt": "0x22fab157b88862acf73ec11017cd25ee9aed784a25a3d1eaab7d4a458a74671f",
      "assetIds": []
    },
    {
      "x": 144,
      "y": 254,
      "size": 1,
      "price": "1011000000000000000000",
      "reserved": "",
      "salt": "0x3e9c779f41197378e801450612feb8faefd8a80c2993f5e8db07a0d399283ad3",
      "assetIds": []
    },
    {
      "x": 144,
      "y": 255,
      "size": 1,
      "price": "1011000000000000000000",
      "reserved": "",
      "salt": "0x4ec9374bfe5105090baebccd1c779b7895e27b69c9f78c8de1685447a0482326",
      "assetIds": []
    },
    {
      "x": 144,
      "y": 256,
      "size": 1,
      "price": "1011000000000000000000",
      "reserved": "",
      "salt": "0x276f473df5f54a8b51295966c496f58668a4e21651b38e0efa848b67f15de51e",
      "assetIds": []
    },
    {
      "x": 144,
      "y": 257,
      "size": 1,
      "price": "1011000000000000000000",
      "reserved": "",
      "salt": "0x985cff9122d992dcb5d4430c3f1aa8418e526764a3d0dd98c15f815f266c92cd",
      "assetIds": []
    },
    {
      "x": 144,
      "y": 261,
      "size": 1,
      "price": "1011000000000000000000",
      "reserved": "",
      "salt": "0xdb8b8c328af804141fa482b6a6b212e79157a2ee177d2bdbbdcb8d3e7b8a0ffd",
      "assetIds": []
    },
    {
      "x": 144,
      "y": 262,
      "size": 1,
      "price": "1011000000000000000000",
      "reserved": "",
      "salt": "0xfa30ffb560d7cab442fc860e94d82edc1690f7a204bd5e069a79f0a712a4beda",
      "assetIds": []
    },
    {
      "x": 144,
      "y": 263,
      "size": 1,
      "price": "1011000000000000000000",
      "reserved": "",
      "salt": "0xedd8a4ede7f9895559e92deaff6738f87ac2fc8d3970400ac961c68a76a5c82d",
      "assetIds": []
    },
    {
      "x": 145,
      "y": 252,
      "size": 1,
      "price": "1011000000000000000000",
      "reserved": "",
      "salt": "0xdfc8aefebef032dd1df939569e076bac8f0990b98016dc8cd55eed517612cc9d",
      "assetIds": []
    },
    {
      "x": 145,
      "y": 253,
      "size": 1,
      "price": "1011000000000000000000",
      "reserved": "",
      "salt": "0xab0eaf6b6be9ebabbf6082d61eda0fff20a30f3dad2691e95af068c041364e67",
      "assetIds": []
    },
    {
      "x": 145,
      "y": 254,
      "size": 1,
      "price": "1011000000000000000000",
      "reserved": "",
      "salt": "0x38d82e4dc646b868c429c27bce8d16c04ed4bc037852f053a82ab56250c6eeeb",
      "assetIds": []
    },
    {
      "x": 145,
      "y": 255,
      "size": 1,
      "price": "1011000000000000000000",
      "reserved": "",
      "salt": "0x9343d9f4f076edc30ee807d773964b5b0ad24ce70a1c2b456c78b81644911838",
      "assetIds": []
    },
    {
      "x": 145,
      "y": 256,
      "size": 1,
      "price": "1011000000000000000000",
      "reserved": "0x7a9fe22691c811ea339d9b73150e6911a5343dca",
      "salt": "0xbe87fed5aea786475513b008c316c24798064d311d71c9c8075ad1e037d84906",
      "assetIds": []
    },
    {
      "x": 145,
      "y": 257,
      "size": 1,
      "price": "1011000000000000000000",
      "reserved": "",
      "salt": "0x3fb581b30e8e647356601fb36defcd01b82d9548569fac5fbee5e474b14244f6",
      "assetIds": []
    },
    {
      "x": 145,
      "y": 261,
      "size": 1,
      "price": "1011000000000000000000",
      "reserved": "",
      "salt": "0x9d1262b7efe6ffa7d22685c837e85348a30280e19c147d02912b7d77670b6864",
      "assetIds": []
    },
    {
      "x": 145,
      "y": 262,
      "size": 1,
      "price": "1011000000000000000000",
      "reserved": "",
      "salt": "0x6a30a4ee96ad9cb6efc6cf0f29910af3f3b22d0c1b49611eef814085df84cfdc",
      "assetIds": []
    },
    {
      "x": 145,
      "y": 263,
      "size": 1,
      "price": "1011000000000000000000",
      "reserved": "",
      "salt": "0xe406b27e166ca4788b009ea96df4d9b590e40c116079655b3f7abe9318d94b9a",
      "assetIds": []
    },
    {
      "x": 146,
      "y": 252,
      "size": 1,
      "price": "1011000000000000000000",
      "reserved": "",
      "salt": "0x6a06a4c21c644de5b0bd0afaecb3b730e05df9fbf1f1b956f1d1b8ed37498032",
      "assetIds": []
    },
    {
      "x": 146,
      "y": 253,
      "size": 1,
      "price": "1011000000000000000000",
      "reserved": "",
      "salt": "0x5fe302ca5ed293b8e6a6634ab809f21a9a72b453d4927c4d1c0904c2382c3a16",
      "assetIds": []
    },
    {
      "x": 146,
      "y": 254,
      "size": 1,
      "price": "1011000000000000000000",
      "reserved": "",
      "salt": "0xaabbb2149bdc7a96313513eb8077e228f2b253c9d220d190d432ef31b368bc0b",
      "assetIds": []
    },
    {
      "x": 146,
      "y": 255,
      "size": 1,
      "price": "1011000000000000000000",
      "reserved": "",
      "salt": "0xddca74c882dc8fa81e6d5aedb086d5accb0b8f0e2d9d1c965bf3b6a756a3bda6",
      "assetIds": []
    },
    {
      "x": 146,
      "y": 256,
      "size": 1,
      "price": "1011000000000000000000",
      "reserved": "",
      "salt": "0x0ee28175829d1b7bccb91dd253e34d4478da8bd7953564f0bfa4c9ce2978955e",
      "assetIds": []
    },
    {
      "x": 146,
      "y": 257,
      "size": 1,
      "price": "1011000000000000000000",
      "reserved": "",
      "salt": "0xc24825f701191f69d39463a45109b47cc75b3d1be8a94955569781a66e6d7f1e",
      "assetIds": []
    },
    {
      "x": 146,
      "y": 261,
      "size": 1,
      "price": "1011000000000000000000",
      "reserved": "",
      "salt": "0xcb7ed2bc94192292b5b6df5527ce2a30fde15e5b66899a7ee3ad8389a855f0ec",
      "assetIds": []
    },
    {
      "x": 146,
      "y": 262,
      "size": 1,
      "price": "1011000000000000000000",
      "reserved": "",
      "salt": "0xa779d4bff38c3ab9417b3896f5cc2d6eb2df7a867efda852c27b2b3eb839d960",
      "assetIds": []
    },
    {
      "x": 146,
      "y": 263,
      "size": 1,
      "price": "1011000000000000000000",
      "reserved": "",
      "salt": "0x65d2b3ba7b17e6b85b4ed08e7505f44210f9d25ef67e7b8e275e1a50d9e5c834",
      "assetIds": []
    },
    {
      "x": 147,
      "y": 255,
      "size": 1,
      "price": "1011000000000000000000",
      "reserved": "",
      "salt": "0xfef742065fae471976c87a69486c030800de45760df3ac46feda1b8fc793d187",
      "assetIds": []
    },
    {
      "x": 147,
      "y": 256,
      "size": 1,
      "price": "1011000000000000000000",
      "reserved": "",
      "salt": "0x7f9a9114618245fbe0d4fa24d3281c33e2a91da19106a2e658ba3136b000c357",
      "assetIds": []
    },
    {
      "x": 147,
      "y": 257,
      "size": 1,
      "price": "1011000000000000000000",
      "reserved": "",
      "salt": "0x9de494cc78ba46740d231e5388d4e5a7030fe89407e2fedbbfb443476ebf2f58",
      "assetIds": []
    },
    {
      "x": 147,
      "y": 258,
      "size": 1,
      "price": "1011000000000000000000",
      "reserved": "",
      "salt": "0x55a643129320c68eea88466b5518a38978fdaf4555abe13742709bc4996e1a05",
      "assetIds": []
    },
    {
      "x": 147,
      "y": 259,
      "size": 1,
      "price": "1011000000000000000000",
      "reserved": "",
      "salt": "0xd38c0491b98bcdcda568dc4cbc0e9b88524376baec8171c2d25240c5fb89f37c",
      "assetIds": []
    },
    {
      "x": 147,
      "y": 260,
      "size": 1,
      "price": "1011000000000000000000",
      "reserved": "",
      "salt": "0x2ec46dd60a9291844b197dd03f6431e6cf8a3a0fa5c18c90eb3f83f69d91fc46",
      "assetIds": []
    },
    {
      "x": 147,
      "y": 261,
      "size": 1,
      "price": "1011000000000000000000",
      "reserved": "",
      "salt": "0xead9f545b51115d883b7cec4450a8c88c331db756095995677f189b369f46d2f",
      "assetIds": []
    },
    {
      "x": 147,
      "y": 262,
      "size": 1,
      "price": "1011000000000000000000",
      "reserved": "",
      "salt": "0xc2d9d66c5b877a9bdd2c8e58dc33a6c61944da31a47d1b990f71a45373aa9c60",
      "assetIds": []
    },
    {
      "x": 147,
      "y": 263,
      "size": 1,
      "price": "1011000000000000000000",
      "reserved": "",
      "salt": "0xf3dcd16e9ace492c308af14056858d39d956d8ba77284822742254695cd39e66",
      "assetIds": []
    },
    {
      "x": 148,
      "y": 255,
      "size": 1,
      "price": "1011000000000000000000",
      "reserved": "",
      "salt": "0x99f4e2d41a8820a5f2b778b19644f4adcc00b6f70933b00ddcb6d51c6b7a8975",
      "assetIds": []
    },
    {
      "x": 148,
      "y": 256,
      "size": 1,
      "price": "1011000000000000000000",
      "reserved": "",
      "salt": "0x44ffe3be5a94eaa0dadab3a743984837fe4a0276583f0087d080a8ab66d5ea36",
      "assetIds": []
    },
    {
      "x": 148,
      "y": 257,
      "size": 1,
      "price": "1011000000000000000000",
      "reserved": "0x7a9fe22691c811ea339d9b73150e6911a5343dca",
      "salt": "0xf13c6555be3be80a2cfa396ef3e5912308cf740c3852cfc4029bcc1d252b1c15",
      "assetIds": []
    },
    {
      "x": 148,
      "y": 258,
      "size": 1,
      "price": "1011000000000000000000",
      "reserved": "",
      "salt": "0xc70dd5acc5ccf14145b31de3a22a46d5a310630a6cea209b1848d616e3445748",
      "assetIds": []
    },
    {
      "x": 148,
      "y": 259,
      "size": 1,
      "price": "1011000000000000000000",
      "reserved": "",
      "salt": "0x024858170c08d0c75997e1e3d36f8e5e3af5664d64f3e30fec88377954ba9c2b",
      "assetIds": []
    },
    {
      "x": 148,
      "y": 260,
      "size": 1,
      "price": "1011000000000000000000",
      "reserved": "",
      "salt": "0xb3a254a0f6c85b0f45fb80021de3bdbf96b9f1727b05aa0b6d6cb16dd3abfa0f",
      "assetIds": []
    },
    {
      "x": 148,
      "y": 261,
      "size": 1,
      "price": "1011000000000000000000",
      "reserved": "0x7a9fe22691c811ea339d9b73150e6911a5343dca",
      "salt": "0xecacc66091965ffe9e2dd60d1fc08dff8862749fd25970e15dcc2c7a31612666",
      "assetIds": []
    },
    {
      "x": 148,
      "y": 262,
      "size": 1,
      "price": "1011000000000000000000",
      "reserved": "",
      "salt": "0x265ebd51c933ded081886d17bdff8b9a3839297067312dc0575163fabca5fed8",
      "assetIds": []
    },
    {
      "x": 148,
      "y": 263,
      "size": 1,
      "price": "1011000000000000000000",
      "reserved": "",
      "salt": "0x9ae6ef8f2a0de88e02a4d748a7ac2b1430b35933e7c4c6e2e379b48d8f6d3795",
      "assetIds": []
    },
    {
      "x": 149,
      "y": 255,
      "size": 1,
      "price": "1011000000000000000000",
      "reserved": "",
      "salt": "0x19fdb50d3246b65d71bf50134366ef894dcdd82ccdf832d17d250406f81455b0",
      "assetIds": []
    },
    {
      "x": 149,
      "y": 256,
      "size": 1,
      "price": "1011000000000000000000",
      "reserved": "",
      "salt": "0x663df5b90ff27c98790f443af2ab0a4d8823de55cb6b058829f46bf26986c226",
      "assetIds": []
    },
    {
      "x": 149,
      "y": 257,
      "size": 1,
      "price": "1011000000000000000000",
      "reserved": "",
      "salt": "0xe86aee59e17314f49448178b83a7f8c213a9dfca7dde79d284d32ab2f62529a0",
      "assetIds": []
    },
    {
      "x": 149,
      "y": 258,
      "size": 1,
      "price": "1011000000000000000000",
      "reserved": "",
      "salt": "0x7148cb3733f19cd22076bc3306f7d7581c3f37d112db2924adeb0a49e7ec1a77",
      "assetIds": []
    },
    {
      "x": 149,
      "y": 259,
      "size": 1,
      "price": "1011000000000000000000",
      "reserved": "",
      "salt": "0x13d157305d78c885cf1cbf2a346251d935aa6de5c2b94a670bf4f9eb592ce51b",
      "assetIds": []
    },
    {
      "x": 149,
      "y": 260,
      "size": 1,
      "price": "1011000000000000000000",
      "reserved": "",
      "salt": "0xc4808a7f04db5e3b917da30dc72367277d25ad560348b03f85ac2bed6acc6309",
      "assetIds": []
    },
    {
      "x": 149,
      "y": 261,
      "size": 1,
      "price": "1011000000000000000000",
      "reserved": "",
      "salt": "0x7737eae1108a84064ecc5af737f90fb036e4ec16bee9e0c51d453524aa7b2b12",
      "assetIds": []
    },
    {
      "x": 149,
      "y": 262,
      "size": 1,
      "price": "1011000000000000000000",
      "reserved": "",
      "salt": "0x247ae51b809653fe1bb326decfb494715988184cc9ac71d24e2ee95e4a3dfb15",
      "assetIds": []
    },
    {
      "x": 149,
      "y": 263,
      "size": 1,
      "price": "1011000000000000000000",
      "reserved": "",
      "salt": "0x63ebe2d4b000dd0328e48a6e0bc936fc56989ad82e7847de0f76747f140f5497",
      "assetIds": []
    },
    {
      "x": 150,
      "y": 252,
      "size": 1,
      "price": "1011000000000000000000",
      "reserved": "",
      "salt": "0xc4c91c82f86261193f2ec8fc51807a9becb26613583d9f7a8d36cbe162aecb78",
      "assetIds": []
    },
    {
      "x": 150,
      "y": 253,
      "size": 1,
      "price": "1011000000000000000000",
      "reserved": "",
      "salt": "0xcab69469003dac52cb6cf83b9dacf350b1512568152fda892fbc4a267a055a6b",
      "assetIds": []
    },
    {
      "x": 150,
      "y": 254,
      "size": 1,
      "price": "1011000000000000000000",
      "reserved": "",
      "salt": "0xe8e89488e45f5fb754d8d8cffddf78be609d9595619774d509c2b41c0bbed559",
      "assetIds": []
    },
    {
      "x": 151,
      "y": 252,
      "size": 1,
      "price": "1011000000000000000000",
      "reserved": "",
      "salt": "0x6e43410838109a4da9d29ca9219975cd182c553b1458009c2103ca11e4c4a9b7",
      "assetIds": []
    },
    {
      "x": 151,
      "y": 253,
      "size": 1,
      "price": "1011000000000000000000",
      "reserved": "",
      "salt": "0xfbe592d8bf9427954c701a015b20fe5e156585f9aca80b2cb7137bb8283abf31",
      "assetIds": []
    },
    {
      "x": 151,
      "y": 254,
      "size": 1,
      "price": "1011000000000000000000",
      "reserved": "",
      "salt": "0xcc3c30656e73580ebb6d5d1d99015fdb239d71486cbe5fda897d462b47812045",
      "assetIds": []
    },
    {
      "x": 120,
      "y": 246,
      "size": 3,
      "price": "8648000000000000000000",
      "reserved": "0x7a9fe22691c811ea339d9b73150e6911a5343dca",
      "salt": "0x6d73f7c2a9f7b2b9daa654f1979b443dabcdfdd9d2a3b10e8bdb23c9333cdfac",
      "assetIds": []
    },
    {
      "x": 135,
      "y": 249,
      "size": 3,
      "price": "8648000000000000000000",
      "reserved": "0x7a9fe22691c811ea339d9b73150e6911a5343dca",
      "salt": "0x58d7c9fab528246e13b5d3c17ae501cdf2421d83605b4a315eee15595a8799da",
      "assetIds": []
    },
    {
      "x": 138,
      "y": 243,
      "size": 3,
      "price": "8648000000000000000000",
      "reserved": "0x7a9fe22691c811ea339d9b73150e6911a5343dca",
      "salt": "0x3889fd649ee26db04fa71b85933900160d7707f96530bd87e5729f3c3a2389fc",
      "assetIds": []
    },
    {
      "x": 138,
      "y": 258,
      "size": 3,
      "price": "8648000000000000000000",
      "reserved": "0x7a9fe22691c811ea339d9b73150e6911a5343dca",
      "salt": "0xa399fd3b73725ba967e8f1004facdf4e5189bfec8ccba4fb8caf2449a8b52d95",
      "assetIds": []
    },
    {
      "x": 141,
      "y": 258,
      "size": 3,
      "price": "8648000000000000000000",
      "reserved": "0x7a9fe22691c811ea339d9b73150e6911a5343dca",
      "salt": "0x7609085e0345cfbe43334442d3d8140c40f9b43e476e5a0a761a6d7905c83ecd",
      "assetIds": []
    },
    {
      "x": 144,
      "y": 258,
      "size": 3,
      "price": "8648000000000000000000",
      "reserved": "0x7a9fe22691c811ea339d9b73150e6911a5343dca",
      "salt": "0x4ef80e855eb79060f9e5d2e9dc2bbbbedaaa8650ddff62d1d0c336438c767469",
      "assetIds": []
    },
    {
      "x": 147,
      "y": 252,
      "size": 3,
      "price": "8648000000000000000000",
      "reserved": "0x7a9fe22691c811ea339d9b73150e6911a5343dca",
      "salt": "0x06ff863175ce0493699b756d72c646dcad0b050d95a25b4b7db310794395a2cd",
      "assetIds": []
    },
    {
      "x": 126,
      "y": 246,
      "size": 6,
      "price": "32772000000000000000000",
      "reserved": "0x7a9fe22691c811ea339d9b73150e6911a5343dca",
      "salt": "0x44fb610014c9e11b771b4eb012e4eecc5d9431c6d95dbe67046383c63b120638",
      "assetIds": []
    },
    {
      "x": 126,
      "y": 258,
      "size": 6,
      "price": "32772000000000000000000",
      "reserved": "0x7a9fe22691c811ea339d9b73150e6911a5343dca",
      "salt": "0x0443be25d714249729b69e1e01e6601c2c46d3786dfef67267d9043f7d146731",
      "assetIds": []
    },
    {
      "x": 132,
      "y": 252,
      "size": 6,
      "price": "32772000000000000000000",
      "reserved": "0x7a9fe22691c811ea339d9b73150e6911a5343dca",
      "salt": "0xe334e83effd45bb291ab6a9997c79d7acf985ebe8a1718426517490bb41f47e8",
      "assetIds": []
    }
  ],
  "solcInputHash": "b42a863a795806b4ea3a8f05dfa42539",
  "bytecode": "0x6101606040523480156200001257600080fd5b50604051620031e9380380620031e983398181016040526101a08110156200003957600080fd5b508051602082015160408301516060840151608085015160a086015160c087015160e08801516101008901516101208a01516101408b01516101608c0151610180909c015160016000559a9b999a9899979896979596949593949293919290919085856001600160a01b038216620000f8576040805162461bcd60e51b815260206004820152601f60248201527f526566657272616c56616c696461746f723a207a65726f206164647265737300604482015290519081900360640190fd5b600380546001600160a01b0319166001600160a01b0393841617905560045562000130908e1662000459602090811b62002adc17901c565b6200016d5760405162461bcd60e51b8152600401808060200182810382526025815260200180620031c46025913960400191505060405180910390fd5b6200018c8c6001600160a01b03166200045960201b62002adc1760201c565b620001c95760405162461bcd60e51b8152600401808060200182810382526025815260200180620031c46025913960400191505060405180910390fd5b6001600160a01b038b1662000214576040805162461bcd60e51b815260206004820181905260248201526000805160206200317f833981519152604482015290519081900360640190fd5b6001600160a01b038a166200025f576040805162461bcd60e51b815260206004820181905260248201526000805160206200317f833981519152604482015290519081900360640190fd5b6001600160a01b038916620002aa576040805162461bcd60e51b815260206004820181905260248201526000805160206200317f833981519152604482015290519081900360640190fd5b620002c9836001600160a01b03166200045960201b62002adc1760201c565b620003065760405162461bcd60e51b8152600401808060200182810382526025815260200180620031c46025913960400191505060405180910390fd5b6001600160a01b03821662000351576040805162461bcd60e51b815260206004820181905260248201526000805160206200317f833981519152604482015290519081900360640190fd5b62000370816001600160a01b03166200045960201b62002adc1760201c565b620003ad5760405162461bcd60e51b8152600401808060200182810382526025815260200180620031c46025913960400191505060405180910390fd5b6001600160601b031960608e811b821660a0528d901b1660c052620003dd8b60016001600160e01b036200045f16565b600680546001600160a01b039a8b166001600160a01b031991821617909155610140989098526101209690965260018054998916998816999099179098556001600160601b0319606092831b811660e05290821b811660805296901b909516610100525060078054919093169116179055506200050a92505050565b3b151590565b6001600160a01b038216620004a65760405162461bcd60e51b81526004018080602001828103825260258152602001806200319f6025913960400191505060405180910390fd5b6001600160a01b038216600081815260026020908152604091829020805460ff191685151590811790915582519384529083015280517fb21eb88b4e33b3f1281830a7178d74d8aa73220416215726b68ae23d539515cb9281900390910190a15050565b60805160601c60a05160601c60c05160601c60e05160601c6101005160601c6101205161014051612bef6200059060003980610be0528061247e525080610bbc528061159d5250806124fc525080611af25280611c4f525080611aa85280611e4e52806124d9525080611b235280611c205250806111075280611f3a5250612bef6000f3fe608060405234801561001057600080fd5b50600436106101365760003560e01c8063984d6252116100b2578063c10a420811610081578063dc5074af11610066578063dc5074af146108a0578063e56f8a9e146108c6578063f23a6e61146108e357610136565b8063c10a4208146107c1578063caed35001461089857610136565b8063984d62521461055f578063ab1cc78c14610631578063b522ecff14610639578063bc197c811461065f57610136565b806365194ce71161010957806378e6e5b9116100ee57806378e6e5b9146104e55780638a04af6a1461050b5780638f2839701461053957610136565b806365194ce7146103635780636e9960c3146104c157610136565b80631187fd3c1461013b57806325cb5bc01461031b578063495906571461033557806358bc29441461033d575b600080fd5b610319600480360361012081101561015257600080fd5b6001600160a01b038235811692602081013582169260408201359092169181019060808101606082013564010000000081111561018e57600080fd5b8201836020820111156101a057600080fd5b803590602001918460208302840111640100000000831117156101c257600080fd5b919390928235926040810190602001356401000000008111156101e457600080fd5b8201836020820111156101f657600080fd5b8035906020019184602083028401116401000000008311171561021857600080fd5b91939092909160208101903564010000000081111561023657600080fd5b82018360208201111561024857600080fd5b8035906020019184602083028401116401000000008311171561026a57600080fd5b91939092909160208101903564010000000081111561028857600080fd5b82018360208201111561029a57600080fd5b803590602001918460018302840111640100000000831117156102bc57600080fd5b9193909290916020810190356401000000008111156102da57600080fd5b8201836020820111156102ec57600080fd5b8035906020019184600183028401116401000000008311171561030e57600080fd5b509092509050610978565b005b610323610bba565b60408051918252519081900360200190f35b610323610bde565b6103196004803603602081101561035357600080fd5b50356001600160a01b0316610c02565b6104096004803603602081101561037957600080fd5b81019060208101813564010000000081111561039457600080fd5b8201836020820111156103a657600080fd5b803590602001918460018302840111640100000000831117156103c857600080fd5b91908080601f016020809104026020016040519081016040528093929190818152602001838380828437600092019190915250929550610d2e945050505050565b6040518080602001866001600160a01b03166001600160a01b03168152602001856001600160a01b03166001600160a01b03168152602001848152602001838152602001828103825287818151815260200191508051906020019080838360005b8381101561048257818101518382015260200161046a565b50505050905090810190601f1680156104af5780820380516001836020036101000a031916815260200191505b50965050505050505060405180910390f35b6104c9610e33565b604080516001600160a01b039092168252519081900360200190f35b610319600480360360208110156104fb57600080fd5b50356001600160a01b0316610e42565b6103196004803603604081101561052157600080fd5b506001600160a01b0381351690602001351515610f00565b6103196004803603602081101561054f57600080fd5b50356001600160a01b0316610f6d565b6103196004803603606081101561057557600080fd5b6001600160a01b0382351691908101906040810160208201356401000000008111156105a057600080fd5b8201836020820111156105b257600080fd5b803590602001918460208302840111640100000000831117156105d457600080fd5b9193909290916020810190356401000000008111156105f257600080fd5b82018360208201111561060457600080fd5b8035906020019184602083028401116401000000008311171561062657600080fd5b5090925090506110a6565b610323611231565b6103196004803603602081101561064f57600080fd5b50356001600160a01b0316611237565b61078c600480360360a081101561067557600080fd5b6001600160a01b0382358116926020810135909116918101906060810160408201356401000000008111156106a957600080fd5b8201836020820111156106bb57600080fd5b803590602001918460208302840111640100000000831117156106dd57600080fd5b9193909290916020810190356401000000008111156106fb57600080fd5b82018360208201111561070d57600080fd5b8035906020019184602083028401116401000000008311171561072f57600080fd5b91939092909160208101903564010000000081111561074d57600080fd5b82018360208201111561075f57600080fd5b8035906020019184600183028401116401000000008311171561078157600080fd5b509092509050611348565b604080517fffffffff000000000000000000000000000000000000000000000000000000009092168252519081900360200190f35b610884600480360360a08110156107d757600080fd5b8101906020810181356401000000008111156107f257600080fd5b82018360208201111561080457600080fd5b8035906020019184600183028401116401000000008311171561082657600080fd5b91908080601f016020809104026020016040519081016040528093929190818152602001838380828437600092019190915250929550506001600160a01b038335811694506020840135169260408101359250606001359050611375565b604080519115158252519081900360200190f35b6104c96114b1565b610884600480360360208110156108b657600080fd5b50356001600160a01b03166114c0565b610319600480360360208110156108dc57600080fd5b50356114de565b61078c600480360360a08110156108f957600080fd5b6001600160a01b03823581169260208101359091169160408201359160608101359181019060a08101608082013564010000000081111561093957600080fd5b82018360208201111561094b57600080fd5b8035906020019184600183028401116401000000008311171561096d57600080fd5b509092509050611570565b600260005414156109d0576040805162461bcd60e51b815260206004820152601f60248201527f5265656e7472616e637947756172643a207265656e7472616e742063616c6c00604482015290519081900360640190fd5b60026000556109df8e8d61159b565b610ad68d8d8d8d80806020026020016040519081016040528093929190818152602001838360200280828437600081840152601f19601f820116905080830192505050505050508c8c8c80806020026020016040519081016040528093929190818152602001838360200280828437600081840152601f19601f820116905080830192505050505050508b8b8080602002602001604051908101604052809392919081815260200183836020028082843760009201919091525050604080516020601f8d018190048102820181019092528b815292508b91508a90819084018382808284376000920191909152506116fe92505050565b610b2a8e8c8c6003818110610ae757fe5b9050602002013586868080601f016020809104026020016040519081016040528093929190818152602001838380828437600092019190915250611a8192505050565b610b688e8e8d8d80806020026020016040519081016040528093929190818152602001838360200280828437600092019190915250611ad292505050565b610ba58d898980806020026020016040519081016040528093929190818152602001838360200280828437600092019190915250611ec392505050565b50506001600055505050505050505050505050565b7f000000000000000000000000000000000000000000000000000000000000000090565b7f000000000000000000000000000000000000000000000000000000000000000090565b6001546001600160a01b03163314610c61576040805162461bcd60e51b815260206004820152601260248201527f6f6e6c792061646d696e20616c6c6f7765640000000000000000000000000000604482015290519081900360640190fd5b6001600160a01b038116610cbc576040805162461bcd60e51b815260206004820152601f60248201527f526566657272616c56616c696461746f723a207a65726f206164647265737300604482015290519081900360640190fd5b600380546001600160a01b03908116600090815260056020526040808220620d2f0042019055835473ffffffffffffffffffffffffffffffffffffffff1916928516928317909355915190917fbbb5fb2ee7e707ae0c968f63e94211ea81e66a718c34e2f810a7619e5678a21791a250565b606060008060008060606000806000808a80602001905160a0811015610d5357600080fd5b8101908080516040519392919084640100000000821115610d7357600080fd5b908301906020820185811115610d8857600080fd5b8251640100000000811182820188101715610da257600080fd5b82525081516020918201929091019080838360005b83811015610dcf578181015183820152602001610db7565b50505050905090810190601f168015610dfc5780820380516001836020036101000a031916815260200191505b5060409081526020820151908201516060830151608090930151959f50909d509b5099509197505050505050505091939590929450565b6001546001600160a01b031690565b6001546001600160a01b03163314610e8b5760405162461bcd60e51b8152600401808060200182810382526023815260200180612b056023913960400191505060405180910390fd5b6001600160a01b038116610ee6576040805162461bcd60e51b815260206004820152601f60248201527f526566657272616c56616c696461746f723a207a65726f206164647265737300604482015290519081900360640190fd5b6001600160a01b0316600090815260056020526040812055565b6001546001600160a01b03163314610f5f576040805162461bcd60e51b815260206004820152601260248201527f6f6e6c792061646d696e20616c6c6f7765640000000000000000000000000000604482015290519081900360640190fd5b610f698282612087565b5050565b6001546001600160a01b03163314610fcc576040805162461bcd60e51b815260206004820152601b60248201527f6f6e6c792061646d696e2063616e206368616e67652061646d696e0000000000604482015290519081900360640190fd5b6001546001600160a01b038281169116141561102f576040805162461bcd60e51b815260206004820152600d60248201527f616c72656164792061646d696e00000000000000000000000000000000000000604482015290519081900360640190fd5b600154604080516001600160a01b039283168152918316602083015280517f7e644d79422f17c01e4894b5f4f588d331ebfa28653d42ae832dc59e38c9798f9281900390910190a16001805473ffffffffffffffffffffffffffffffffffffffff19166001600160a01b0392909216919091179055565b6001546001600160a01b03163314611105576040805162461bcd60e51b815260206004820152600e60248201527f4e4f545f415554484f52495a4544000000000000000000000000000000000000604482015290519081900360640190fd5b7f00000000000000000000000000000000000000000000000000000000000000006001600160a01b0316632eb2c2d63087878787876040518763ffffffff1660e01b815260040180876001600160a01b03166001600160a01b03168152602001866001600160a01b03166001600160a01b031681526020018060200180602001806020018481038452888882818152602001925060200280828437600083820152601f01601f19169091018581038452868152602090810191508790870280828437600081840152601f19601f8201169050808301925050508481038252600081526020016020019950505050505050505050600060405180830381600087803b15801561121257600080fd5b505af1158015611226573d6000803e3d6000fd5b505050505050505050565b60045490565b6001600160a01b038116611292576040805162461bcd60e51b815260206004820152600c60248201527f5a45524f5f414444524553530000000000000000000000000000000000000000604482015290519081900360640190fd5b6001546001600160a01b031633146112f1576040805162461bcd60e51b815260206004820152600e60248201527f4e4f545f415554484f52495a4544000000000000000000000000000000000000604482015290519081900360640190fd5b6006805473ffffffffffffffffffffffffffffffffffffffff19166001600160a01b0383169081179091556040517f4d66958b757eb92a1b43d02be4c38c9500b73f532420ee3706cb43d420ba023690600090a250565b7fbc197c810000000000000000000000000000000000000000000000000000000098975050505050505050565b60006004548211806113985750836001600160a01b0316856001600160a01b0316145b806113a257508242115b156113af575060006114a8565b60408051606087811b7fffffffffffffffffffffffffffffffffffffffff0000000000000000000000009081166020808501919091529188901b166034830152604882018690526068808301869052835180840390910181526088830184528051908201207f19457468657265756d205369676e6564204d6573736167653a0a33320000000060a884015260c48084018290528451808503909101815260e49093019093528151910120600090611466908961214e565b6001600160a01b0381166000908152600560205260409020549091504211611493576001925050506114a8565b6003546001600160a01b039081169116149150505b95945050505050565b6003546001600160a01b031690565b6001600160a01b031660009081526002602052604090205460ff1690565b6001546001600160a01b0316331461153d576040805162461bcd60e51b815260206004820152601260248201527f6f6e6c792061646d696e20616c6c6f7765640000000000000000000000000000604482015290519081900360640190fd5b600481905560405181907f774069781371d65424b3b0b101c1d40014532cac040f979595b99a3fcf8ce08c90600090a250565b7ff23a6e61000000000000000000000000000000000000000000000000000000009695505050505050565b7f0000000000000000000000000000000000000000000000000000000000000000421061160f576040805162461bcd60e51b815260206004820152600c60248201527f53414c455f49535f4f5645520000000000000000000000000000000000000000604482015290519081900360640190fd5b6001600160a01b03821633148061163557503360009081526002602052604090205460ff165b611686576040805162461bcd60e51b815260206004820152600e60248201527f4e4f545f415554484f52495a4544000000000000000000000000000000000000604482015290519081900360640190fd5b6001600160a01b03811615806116ad5750816001600160a01b0316816001600160a01b0316145b610f69576040805162461bcd60e51b815260206004820152600d60248201527f52455345525645445f4c414e4400000000000000000000000000000000000000604482015290519081900360640190fd5b600087878760008151811061170f57fe5b60200260200101518860018151811061172457fe5b60200260200101518960028151811061173957fe5b60200260200101518a60038151811061174e57fe5b60200260200101518a8a60405160200180828051906020019060200280838360005b83811015611788578181015183820152602001611770565b50505050905001915050604051602081830303815290604052805190602001208a60405160200180828051906020019060200280838360005b838110156117d95781810151838201526020016117c1565b5050505090500191505060405160208183030381529060405280519060200120604051602001808a6001600160a01b03166001600160a01b031660601b8152601401896001600160a01b03166001600160a01b031660601b81526014018881526020018781526020018681526020018581526020018481526020018381526020018281526020019950505050505050505050604051602081830303815290604052805190602001209050600760009054906101000a90046001600160a01b03166001600160a01b031663012847ed83836040518363ffffffff1660e01b81526004018080602001838152602001828103825284818151815260200191508051906020019080838360005b838110156118fb5781810151838201526020016118e3565b50505050905090810190601f1680156119285780820380516001836020036101000a031916815260200191505b50935050505060206040518083038186803b15801561194657600080fd5b505afa15801561195a573d6000803e3d6000fd5b505050506040513d602081101561197057600080fd5b50516119c3576040805162461bcd60e51b815260206004820152600c60248201527f494e56414c49445f415554480000000000000000000000000000000000000000604482015290519081900360640190fd5b6000611a24876000815181106119d557fe5b6020026020010151886001815181106119ea57fe5b6020026020010151896002815181106119ff57fe5b60200260200101518a600381518110611a1457fe5b60200260200101518c8b8b612337565b9050611a3084826123dc565b611226576040805162461bcd60e51b815260206004820152600c60248201527f494e56414c49445f4c414e440000000000000000000000000000000000000000604482015290519081900360640190fd5b6000611a8d84846124a5565b600654909150611acc908590839085906001600160a01b03167f000000000000000000000000000000000000000000000000000000000000000061253f565b50505050565b80600281518110611adf57fe5b602002602001015160011480611b1c57507f00000000000000000000000000000000000000000000000000000000000000006001600160a01b0316155b15611c1e577f00000000000000000000000000000000000000000000000000000000000000006001600160a01b0316636e1e3bbf8383600281518110611b5e57fe5b602002602001015184600081518110611b7357fe5b602002602001015185600181518110611b8857fe5b60200260200101516040518563ffffffff1660e01b815260040180856001600160a01b03166001600160a01b031681526020018481526020018381526020018281526020018060200182810382526000815260200160200195505050505050600060405180830381600087803b158015611c0157600080fd5b505af1158015611c15573d6000803e3d6000fd5b50505050611dbe565b7f00000000000000000000000000000000000000000000000000000000000000006001600160a01b0316636e1e3bbf7f000000000000000000000000000000000000000000000000000000000000000083600281518110611c7b57fe5b602002602001015184600081518110611c9057fe5b602002602001015185600181518110611ca557fe5b60200260200101518760405160200180826001600160a01b03166001600160a01b031681526020019150506040516020818303038152906040526040518663ffffffff1660e01b815260040180866001600160a01b03166001600160a01b0316815260200185815260200184815260200183815260200180602001828103825283818151815260200191508051906020019080838360005b83811015611d55578181015183820152602001611d3d565b50505050905090810190601f168015611d825780820380516001836020036101000a031916815260200191505b509650505050505050600060405180830381600087803b158015611da557600080fd5b505af1158015611db9573d6000803e3d6000fd5b505050505b61019881600181518110611dce57fe5b60200260200101510281600081518110611de457fe5b602002602001015101826001600160a01b0316846001600160a01b03167fe4dfa6ac11314892f3029b34a25b1a887da3b1cab2bbf8506d87128ba6e3ac0284600281518110611e2f57fe5b602002602001015185600381518110611e4457fe5b60200260200101517f000000000000000000000000000000000000000000000000000000000000000087600381518110611e7a57fe5b602002602001015160405180858152602001848152602001836001600160a01b03166001600160a01b0316815260200182815260200194505050505060405180910390a4505050565b6060815167ffffffffffffffff81118015611edd57600080fd5b50604051908082528060200260200182016040528015611f07578160200160208202803683370190505b50905060005b8251811015611f37576001828281518110611f2457fe5b6020908102919091010152600101611f0d565b507f00000000000000000000000000000000000000000000000000000000000000006001600160a01b0316632eb2c2d6308585856040518563ffffffff1660e01b815260040180856001600160a01b03166001600160a01b03168152602001846001600160a01b03166001600160a01b03168152602001806020018060200180602001848103845286818151815260200191508051906020019060200280838360005b83811015611ff2578181015183820152602001611fda565b50505050905001848103835285818151815260200191508051906020019060200280838360005b83811015612031578181015183820152602001612019565b50505050905001848103825260008152602001602001975050505050505050600060405180830381600087803b15801561206a57600080fd5b505af115801561207e573d6000803e3d6000fd5b50505050505050565b6001600160a01b0382166120cc5760405162461bcd60e51b8152600401808060200182810382526025815260200180612b6b6025913960400191505060405180910390fd5b6001600160a01b03821660008181526002602090815260409182902080547fffffffffffffffffffffffffffffffffffffffffffffffffffffffffffffff001685151590811790915582519384529083015280517fb21eb88b4e33b3f1281830a7178d74d8aa73220416215726b68ae23d539515cb9281900390910190a15050565b600081516041146121a6576040805162461bcd60e51b815260206004820152601f60248201527f45434453413a20696e76616c6964207369676e6174757265206c656e67746800604482015290519081900360640190fd5b60208201516040830151606084015160001a7f7fffffffffffffffffffffffffffffff5d576e7357a4501ddfe92f46681b20a08211156122175760405162461bcd60e51b8152600401808060200182810382526022815260200180612ae36022913960400191505060405180910390fd5b8060ff16601b1415801561222f57508060ff16601c14155b1561226b5760405162461bcd60e51b8152600401808060200182810382526022815260200180612b286022913960400191505060405180910390fd5b60408051600080825260208083018085528a905260ff85168385015260608301879052608083018690529251909260019260a080820193601f1981019281900390910190855afa1580156122c3573d6000803e3d6000fd5b5050604051601f1901519150506001600160a01b03811661232b576040805162461bcd60e51b815260206004820152601860248201527f45434453413a20696e76616c6964207369676e61747572650000000000000000604482015290519081900360640190fd5b93505050505b92915050565b60008787878787878760405160200180888152602001878152602001868152602001858152602001846001600160a01b03166001600160a01b031660601b8152601401838152602001828051906020019060200280838360005b838110156123a9578181015183820152602001612391565b50505050905001975050505050505050604051602081830303815290604052805190602001209050979650505050505050565b600081815b845181101561247b5760008582815181106123f857fe5b60200260200101519050808310156124405782816040516020018083815260200182815260200192505050604051602081830303815290604052805190602001209250612472565b808360405160200180838152602001828152602001925050506040516020818303038152906040528051906020012092505b506001016123e1565b507f0000000000000000000000000000000000000000000000000000000000000000149392505050565b6000806124ca60646124be85600563ffffffff61264716565b9063ffffffff6126a716565b90506125276001600160a01b037f000000000000000000000000000000000000000000000000000000000000000016857f00000000000000000000000000000000000000000000000000000000000000008463ffffffff6126e916565b612537838263ffffffff61277116565b949350505050565b8251819085901561262c57606060008060008061255b8a610d2e565b93985091965094509250905060006125768686868686611375565b15612604576125906125888d84612647565b6127106126a7565b9050886001600160a01b0316846001600160a01b0316866001600160a01b03167fac7a699eb95c3c6d390ec4626de17ef9a67b35891efdb197beba7c7fdd45fac48f858760405180848152602001838152602001828152602001935050505060405180910390a46126018782612771565b96505b8015612625576126256001600160a01b0389168e878463ffffffff6126e916565b5050505050505b61207e6001600160a01b03831688868463ffffffff6126e916565b60008261265657506000612331565b8282028284828161266357fe5b04146126a05760405162461bcd60e51b8152600401808060200182810382526021815260200180612b4a6021913960400191505060405180910390fd5b9392505050565b60006126a083836040518060400160405280601a81526020017f536166654d6174683a206469766973696f6e206279207a65726f0000000000008152506127b3565b604080516001600160a01b0380861660248301528416604482015260648082018490528251808303909101815260849091019091526020810180517bffffffffffffffffffffffffffffffffffffffffffffffffffffffff167f23b872dd00000000000000000000000000000000000000000000000000000000179052611acc908590612855565b60006126a083836040518060400160405280601e81526020017f536166654d6174683a207375627472616374696f6e206f766572666c6f77000081525061290b565b6000818361283f5760405162461bcd60e51b81526004018080602001828103825283818151815260200191508051906020019080838360005b838110156128045781810151838201526020016127ec565b50505050905090810190601f1680156128315780820380516001836020036101000a031916815260200191505b509250505060405180910390fd5b50600083858161284b57fe5b0495945050505050565b60606128aa826040518060400160405280602081526020017f5361666545524332303a206c6f772d6c6576656c2063616c6c206661696c6564815250856001600160a01b03166129659092919063ffffffff16565b805190915015612906578080602001905160208110156128c957600080fd5b50516129065760405162461bcd60e51b815260040180806020018281038252602a815260200180612b90602a913960400191505060405180910390fd5b505050565b6000818484111561295d5760405162461bcd60e51b81526020600482018181528351602484015283519092839260449091019190850190808383600083156128045781810151838201526020016127ec565b505050900390565b60606125378484600085606061297a85612adc565b6129cb576040805162461bcd60e51b815260206004820152601d60248201527f416464726573733a2063616c6c20746f206e6f6e2d636f6e7472616374000000604482015290519081900360640190fd5b60006060866001600160a01b031685876040518082805190602001908083835b60208310612a0a5780518252601f1990920191602091820191016129eb565b6001836020036101000a03801982511681845116808217855250505050505090500191505060006040518083038185875af1925050503d8060008114612a6c576040519150601f19603f3d011682016040523d82523d6000602084013e612a71565b606091505b50915091508115612a855791506125379050565b805115612a955780518082602001fd5b60405162461bcd60e51b81526020600482018181528651602484015286518793919283926044019190850190808383600083156128045781810151838201526020016127ec565b3b15159056fe45434453413a20696e76616c6964207369676e6174757265202773272076616c7565526566657272616c56616c696461746f723a2053656e646572206e6f742061646d696e45434453413a20696e76616c6964207369676e6174757265202776272076616c7565536166654d6174683a206d756c7469706c69636174696f6e206f766572666c6f774d6574615472616e73616374696f6e52656365697665723a207a65726f20616464726573735361666545524332303a204552433230206f7065726174696f6e20646964206e6f742073756363656564a264697066735822122077f2d13cbcb85fa08010a53c1e4ef27117b031e8c1c9273d55cef362af299f3164736f6c6343000605003345737461746553616c6557697468417574683a207a65726f20616464726573734d6574615472616e73616374696f6e52656365697665723a207a65726f206164647265737345737461746553616c6557697468417574683a206973206e6f74206120636f6e7472616374",
  "devdoc": {
    "methods": {
      "buyLandWithSand(address,address,address,uint256[],bytes32,uint256[],bytes32[],bytes,bytes)": {
        "params": {
          "assetIds": "asset ids (lands) that will be bought",
          "buyer": "address that perform the payment",
          "info": "[X_INDEX=0] x coordinate of the Land [Y_INDEX=1] y coordinate of the Land [SIZE_INDEX=2] size of the pack of Land to purchase [PRICE_INDEX=3] price in SAND to purchase that Land",
          "proof": "merkleProof for that particular Land",
          "referral": "referral id",
          "reserved": "the reserved address (if any)",
          "salt": "The salt submitted for verification.",
          "signature": "A signed message specifying tx details",
          "to": "address that will own the purchased Land"
        }
      },
      "changeAdmin(address)": {
        "details": "change the administrator to be `newAdmin`.",
        "params": {
          "newAdmin": "address of the new administrator."
        }
      },
      "disablePreviousSigningWallet(address)": {
        "details": "Disable compromised signing wallet",
        "params": {
          "disableWallet": "The wallet address to be disabled"
        }
      },
      "getAdmin()": {
        "details": "gives the current administrator of this contract.",
        "returns": {
          "_0": "the current administrator of this contract."
        }
      },
      "getSigningWallet()": {
        "details": "signing wallet authorized for referral",
        "returns": {
          "_0": "the address of the signing wallet"
        }
      },
      "isMetaTransactionProcessor(address)": {
        "details": "check whether address `who` is given meta-transaction execution rights.",
        "params": {
          "who": "The address to query."
        },
        "returns": {
          "_0": "whether the address has meta-transaction execution rights."
        }
      },
      "isReferralValid(bytes,address,address,uint256,uint256)": {
        "params": {
          "commissionRate": "The commissionRate of the referral",
          "expiryTime": "The expiry time of the referral",
          "referee": "The address of the referee",
          "referrer": "The address of the referrer",
          "signature": "The signature to check (signed referral)"
        },
        "returns": {
          "_0": "True if the referral is valid"
        }
      },
      "setMetaTransactionProcessor(address,bool)": {
        "details": "Enable or disable the ability of `metaTransactionProcessor` to perform meta-tx (metaTransactionProcessor rights).",
        "params": {
          "enabled": "set whether the metaTransactionProcessor is enabled or disabled.",
          "metaTransactionProcessor": "address that will be given/removed metaTransactionProcessor rights."
        }
      },
      "setReceivingWallet(address)": {
        "params": {
          "newWallet": "address of the new receiving wallet"
        }
      },
      "updateMaxCommissionRate(uint256)": {
        "details": "Update the maximum commission rate",
        "params": {
          "newMaxCommissionRate": "The new maximum commission rate"
        }
      },
      "updateSigningWallet(address)": {
        "details": "Update the signing wallet The previous wallet is still valid for a grace period (_previousSigningDelay). If you want to disable the previous wallet, use the disablePreviousSigningWallet function.",
        "params": {
          "newSigningWallet": "The new address of the signing wallet"
        }
      },
      "withdrawAssets(address,uint256[],uint256[])": {
        "params": {
          "assetIds": "the assetIds to be transferred",
          "to": "intended recipient of the asset tokens",
          "values": "the quantities of the assetIds to be transferred"
        }
      }
    },
    "title": "Estate Sale contract with referral"
  },
  "userdoc": {
    "methods": {
      "buyLandWithSand(address,address,address,uint256[],bytes32,uint256[],bytes32[],bytes,bytes)": {
        "notice": "buy Land with SAND using the merkle proof associated with it"
      },
      "getExpiryTime()": {
        "notice": "Gets the expiry time for the current sale"
      },
      "getMaxCommissionRate()": {
        "notice": "the max commission rate"
      },
      "getMerkleRoot()": {
        "notice": "Gets the Merkle root associated with the current sale"
      },
      "isReferralValid(bytes,address,address,uint256,uint256)": {
        "notice": "Check if a referral is valid"
      },
      "setReceivingWallet(address)": {
        "notice": "set the wallet receiving the proceeds"
      },
      "withdrawAssets(address,uint256[],uint256[])": {
        "notice": "enable Admin to withdraw remaining assets from EstateSaleWithFee contract"
      }
    },
    "notice": "This contract manages the sale of our lands as Estates"
  },
  "storageLayout": {
    "storage": [
      {
        "astId": 1129,
        "contract": "src/solc_0.6/EstateSale/EstateSaleWithAuth.sol:EstateSaleWithAuth",
        "label": "_status",
        "offset": 0,
        "slot": "0",
        "type": "t_uint256"
      },
      {
        "astId": 14099,
        "contract": "src/solc_0.6/EstateSale/EstateSaleWithAuth.sol:EstateSaleWithAuth",
        "label": "_admin",
        "offset": 0,
        "slot": "1",
        "type": "t_address"
      },
      {
        "astId": 14168,
        "contract": "src/solc_0.6/EstateSale/EstateSaleWithAuth.sol:EstateSaleWithAuth",
        "label": "_metaTransactionContracts",
        "offset": 0,
        "slot": "2",
        "type": "t_mapping(t_address,t_bool)"
      },
      {
        "astId": 12200,
        "contract": "src/solc_0.6/EstateSale/EstateSaleWithAuth.sol:EstateSaleWithAuth",
        "label": "_signingWallet",
        "offset": 0,
        "slot": "3",
        "type": "t_address"
      },
      {
        "astId": 12202,
        "contract": "src/solc_0.6/EstateSale/EstateSaleWithAuth.sol:EstateSaleWithAuth",
        "label": "_maxCommissionRate",
        "offset": 0,
        "slot": "4",
        "type": "t_uint256"
      },
      {
        "astId": 12206,
        "contract": "src/solc_0.6/EstateSale/EstateSaleWithAuth.sol:EstateSaleWithAuth",
        "label": "_previousSigningWallets",
        "offset": 0,
        "slot": "5",
        "type": "t_mapping(t_address,t_uint256)"
      },
      {
        "astId": 7750,
        "contract": "src/solc_0.6/EstateSale/EstateSaleWithAuth.sol:EstateSaleWithAuth",
        "label": "_wallet",
        "offset": 0,
        "slot": "6",
        "type": "t_address_payable"
      },
      {
        "astId": 7752,
        "contract": "src/solc_0.6/EstateSale/EstateSaleWithAuth.sol:EstateSaleWithAuth",
        "label": "_authValidator",
        "offset": 0,
        "slot": "7",
        "type": "t_contract(AuthValidator)7063"
      }
    ],
    "types": {
      "t_address": {
        "encoding": "inplace",
        "label": "address",
        "numberOfBytes": "20"
      },
      "t_address_payable": {
        "encoding": "inplace",
        "label": "address payable",
        "numberOfBytes": "20"
      },
      "t_bool": {
        "encoding": "inplace",
        "label": "bool",
        "numberOfBytes": "1"
      },
      "t_contract(AuthValidator)7063": {
        "encoding": "inplace",
        "label": "contract AuthValidator",
        "numberOfBytes": "20"
      },
      "t_mapping(t_address,t_bool)": {
        "encoding": "mapping",
        "key": "t_address",
        "label": "mapping(address => bool)",
        "numberOfBytes": "32",
        "value": "t_bool"
      },
      "t_mapping(t_address,t_uint256)": {
        "encoding": "mapping",
        "key": "t_address",
        "label": "mapping(address => uint256)",
        "numberOfBytes": "32",
        "value": "t_uint256"
      },
      "t_uint256": {
        "encoding": "inplace",
        "label": "uint256",
        "numberOfBytes": "32"
      }
    }
  }
}