{
  "address": "0x5cd67Daa17F708d6489E7Bb7648b7D0B823eA7bF",
  "abi": [
    {
      "inputs": [
        {
          "internalType": "address",
          "name": "rewardPool_",
          "type": "address"
        }
      ],
      "stateMutability": "nonpayable",
      "type": "constructor"
    },
    {
      "anonymous": false,
      "inputs": [
        {
          "indexed": false,
          "internalType": "uint256",
          "name": "reward",
          "type": "uint256"
        },
        {
          "indexed": false,
          "internalType": "uint256",
          "name": "duration",
          "type": "uint256"
        },
        {
          "indexed": false,
          "internalType": "uint256",
          "name": "finish1",
          "type": "uint256"
        },
        {
          "indexed": false,
          "internalType": "uint256",
          "name": "rate1",
          "type": "uint256"
        },
        {
          "indexed": false,
          "internalType": "uint256",
          "name": "finish2",
          "type": "uint256"
        },
        {
          "indexed": false,
          "internalType": "uint256",
          "name": "rate2",
          "type": "uint256"
        }
      ],
      "name": "InitialCampaign",
      "type": "event"
    },
    {
      "anonymous": false,
      "inputs": [
        {
          "indexed": false,
          "internalType": "uint256",
          "name": "reward",
          "type": "uint256"
        },
        {
          "indexed": false,
          "internalType": "uint256",
          "name": "duration",
          "type": "uint256"
        },
        {
          "indexed": false,
          "internalType": "uint256",
          "name": "finish1",
          "type": "uint256"
        },
        {
          "indexed": false,
          "internalType": "uint256",
          "name": "rate1",
          "type": "uint256"
        },
        {
          "indexed": false,
          "internalType": "uint256",
          "name": "finish2",
          "type": "uint256"
        },
        {
          "indexed": false,
          "internalType": "uint256",
          "name": "rate2",
          "type": "uint256"
        }
      ],
      "name": "NextCampaign",
      "type": "event"
    },
    {
      "anonymous": false,
      "inputs": [
        {
          "indexed": true,
          "internalType": "bytes32",
          "name": "role",
          "type": "bytes32"
        },
        {
          "indexed": true,
          "internalType": "bytes32",
          "name": "previousAdminRole",
          "type": "bytes32"
        },
        {
          "indexed": true,
          "internalType": "bytes32",
          "name": "newAdminRole",
          "type": "bytes32"
        }
      ],
      "name": "RoleAdminChanged",
      "type": "event"
    },
    {
      "anonymous": false,
      "inputs": [
        {
          "indexed": true,
          "internalType": "bytes32",
          "name": "role",
          "type": "bytes32"
        },
        {
          "indexed": true,
          "internalType": "address",
          "name": "account",
          "type": "address"
        },
        {
          "indexed": true,
          "internalType": "address",
          "name": "sender",
          "type": "address"
        }
      ],
      "name": "RoleGranted",
      "type": "event"
    },
    {
      "anonymous": false,
      "inputs": [
        {
          "indexed": true,
          "internalType": "bytes32",
          "name": "role",
          "type": "bytes32"
        },
        {
          "indexed": true,
          "internalType": "address",
          "name": "account",
          "type": "address"
        },
        {
          "indexed": true,
          "internalType": "address",
          "name": "sender",
          "type": "address"
        }
      ],
      "name": "RoleRevoked",
      "type": "event"
    },
    {
      "anonymous": false,
      "inputs": [
        {
          "indexed": false,
          "internalType": "uint256",
          "name": "reward",
          "type": "uint256"
        },
        {
          "indexed": false,
          "internalType": "uint256",
          "name": "duration",
          "type": "uint256"
        },
        {
          "indexed": false,
          "internalType": "uint256",
          "name": "finish1",
          "type": "uint256"
        },
        {
          "indexed": false,
          "internalType": "uint256",
          "name": "rate1",
          "type": "uint256"
        },
        {
          "indexed": false,
          "internalType": "uint256",
          "name": "finish2",
          "type": "uint256"
        },
        {
          "indexed": false,
          "internalType": "uint256",
          "name": "rate2",
          "type": "uint256"
        }
      ],
      "name": "UpdateCampaign",
      "type": "event"
    },
    {
      "inputs": [],
      "name": "DEFAULT_ADMIN_ROLE",
      "outputs": [
        {
          "internalType": "bytes32",
          "name": "",
          "type": "bytes32"
        }
      ],
      "stateMutability": "view",
      "type": "function"
    },
    {
      "inputs": [],
      "name": "REWARD_DISTRIBUTION",
      "outputs": [
        {
          "internalType": "bytes32",
          "name": "",
          "type": "bytes32"
        }
      ],
      "stateMutability": "view",
      "type": "function"
    },
    {
      "inputs": [],
      "name": "finish1",
      "outputs": [
        {
          "internalType": "uint256",
          "name": "",
          "type": "uint256"
        }
      ],
      "stateMutability": "view",
      "type": "function"
    },
    {
      "inputs": [],
      "name": "finish2",
      "outputs": [
        {
          "internalType": "uint256",
          "name": "",
          "type": "uint256"
        }
      ],
      "stateMutability": "view",
      "type": "function"
    },
    {
      "inputs": [],
      "name": "getFinish",
      "outputs": [
        {
          "internalType": "uint256",
          "name": "",
          "type": "uint256"
        }
      ],
      "stateMutability": "view",
      "type": "function"
    },
    {
      "inputs": [],
      "name": "getRate",
      "outputs": [
        {
          "internalType": "uint256",
          "name": "",
          "type": "uint256"
        }
      ],
      "stateMutability": "view",
      "type": "function"
    },
    {
      "inputs": [],
      "name": "getRewards",
      "outputs": [
        {
          "internalType": "uint256",
          "name": "",
          "type": "uint256"
        }
      ],
      "stateMutability": "view",
      "type": "function"
    },
    {
      "inputs": [
        {
          "internalType": "bytes32",
          "name": "role",
          "type": "bytes32"
        }
      ],
      "name": "getRoleAdmin",
      "outputs": [
        {
          "internalType": "bytes32",
          "name": "",
          "type": "bytes32"
        }
      ],
      "stateMutability": "view",
      "type": "function"
    },
    {
      "inputs": [
        {
          "internalType": "bytes32",
          "name": "role",
          "type": "bytes32"
        },
        {
          "internalType": "address",
          "name": "account",
          "type": "address"
        }
      ],
      "name": "grantRole",
      "outputs": [],
      "stateMutability": "nonpayable",
      "type": "function"
    },
    {
      "inputs": [
        {
          "internalType": "bytes32",
          "name": "role",
          "type": "bytes32"
        },
        {
          "internalType": "address",
          "name": "account",
          "type": "address"
        }
      ],
      "name": "hasRole",
      "outputs": [
        {
          "internalType": "bool",
          "name": "",
          "type": "bool"
        }
      ],
      "stateMutability": "view",
      "type": "function"
    },
    {
      "inputs": [],
      "name": "isCampaignFinished",
      "outputs": [
        {
          "internalType": "bool",
          "name": "",
          "type": "bool"
        }
      ],
      "stateMutability": "view",
      "type": "function"
    },
    {
      "inputs": [],
      "name": "isCampaignRunning",
      "outputs": [
        {
          "internalType": "bool",
          "name": "",
          "type": "bool"
        }
      ],
      "stateMutability": "view",
      "type": "function"
    },
    {
      "inputs": [],
      "name": "lastUpdateTime",
      "outputs": [
        {
          "internalType": "uint256",
          "name": "",
          "type": "uint256"
        }
      ],
      "stateMutability": "view",
      "type": "function"
    },
    {
      "inputs": [],
      "name": "rate1",
      "outputs": [
        {
          "internalType": "uint256",
          "name": "",
          "type": "uint256"
        }
      ],
      "stateMutability": "view",
      "type": "function"
    },
    {
      "inputs": [],
      "name": "rate2",
      "outputs": [
        {
          "internalType": "uint256",
          "name": "",
          "type": "uint256"
        }
      ],
      "stateMutability": "view",
      "type": "function"
    },
    {
      "inputs": [
        {
          "internalType": "bytes32",
          "name": "role",
          "type": "bytes32"
        },
        {
          "internalType": "address",
          "name": "account",
          "type": "address"
        }
      ],
      "name": "renounceRole",
      "outputs": [],
      "stateMutability": "nonpayable",
      "type": "function"
    },
    {
      "inputs": [],
      "name": "restartRewards",
      "outputs": [],
      "stateMutability": "nonpayable",
      "type": "function"
    },
    {
      "inputs": [
        {
          "internalType": "bytes32",
          "name": "role",
          "type": "bytes32"
        },
        {
          "internalType": "address",
          "name": "account",
          "type": "address"
        }
      ],
      "name": "revokeRole",
      "outputs": [],
      "stateMutability": "nonpayable",
      "type": "function"
    },
    {
      "inputs": [],
      "name": "rewardPool",
      "outputs": [
        {
          "internalType": "address",
          "name": "",
          "type": "address"
        }
      ],
      "stateMutability": "view",
      "type": "function"
    },
    {
      "inputs": [
        {
          "internalType": "uint256",
          "name": "reward",
          "type": "uint256"
        },
        {
          "internalType": "uint256",
          "name": "duration",
          "type": "uint256"
        }
      ],
      "name": "runCampaign",
      "outputs": [],
      "stateMutability": "nonpayable",
      "type": "function"
    },
    {
      "inputs": [],
      "name": "savedRewards",
      "outputs": [
        {
          "internalType": "uint256",
          "name": "",
          "type": "uint256"
        }
      ],
      "stateMutability": "view",
      "type": "function"
    },
    {
      "inputs": [
        {
          "internalType": "uint256",
          "name": "reward",
          "type": "uint256"
        },
        {
          "internalType": "uint256",
          "name": "duration",
          "type": "uint256"
        }
      ],
      "name": "setInitialCampaign",
      "outputs": [],
      "stateMutability": "nonpayable",
      "type": "function"
    },
    {
      "inputs": [
        {
          "internalType": "uint256",
          "name": "reward",
          "type": "uint256"
        }
      ],
      "name": "setSavedRewards",
      "outputs": [],
      "stateMutability": "nonpayable",
      "type": "function"
    },
    {
      "inputs": [
        {
          "internalType": "bytes4",
          "name": "interfaceId",
          "type": "bytes4"
        }
      ],
      "name": "supportsInterface",
      "outputs": [
        {
          "internalType": "bool",
          "name": "",
          "type": "bool"
        }
      ],
      "stateMutability": "view",
      "type": "function"
    },
    {
      "inputs": [
        {
          "internalType": "uint256",
          "name": "reward",
          "type": "uint256"
        },
        {
          "internalType": "uint256",
          "name": "duration",
          "type": "uint256"
        }
      ],
      "name": "updateCurrentCampaign",
      "outputs": [],
      "stateMutability": "nonpayable",
      "type": "function"
    },
    {
      "inputs": [
        {
          "internalType": "uint256",
          "name": "reward",
          "type": "uint256"
        },
        {
          "internalType": "uint256",
          "name": "duration",
          "type": "uint256"
        }
      ],
      "name": "updateNextCampaign",
      "outputs": [],
      "stateMutability": "nonpayable",
      "type": "function"
    }
  ],
  "transactionHash": "0x804ac0213a00982c6aee99b0ab9c5d257267144443139e38783139edaea36c48",
  "args": [
    "0xD3A9CAa25393765c05ce9f332B5E33b5E33D8B8F"
  ],
  "numDeployments": 1,
  "solcInputHash": "95c7aac143cdd47e5a0deeb870149f31",
  "bytecode": "0x60a060405234801561001057600080fd5b50604051620014643803806200146483398101604081905261003191610100565b606081901b6001600160601b03191660805261004e600033610054565b5061012e565b61005e8282610062565b5050565b6000828152602081815260408083206001600160a01b038516845290915290205460ff1661005e576000828152602081815260408083206001600160a01b03851684529091529020805460ff191660011790556100bc3390565b6001600160a01b0316816001600160a01b0316837f2f8788117e7eff1d82e926ec794901d17c78024a50270940304540a733656f0d60405160405180910390a45050565b600060208284031215610111578081fd5b81516001600160a01b0381168114610127578182fd5b9392505050565b60805160601c6113106200015460003960008181610296015261069301526113106000f3fe608060405234801561001057600080fd5b50600436106101ae5760003560e01c80637da73d18116100ee578063cf85496911610097578063db63233d11610071578063db63233d14610388578063e9fcdd101461039b578063f555b815146103a4578063fbfe5bd3146103ad576101ae565b8063cf85496914610359578063d4bd8fed14610362578063d547741f14610375576101ae565b8063b0165840116100c8578063b016584014610335578063b073f3421461033d578063c8f33c9114610350576101ae565b80637da73d18146102e357806391d14854146102f6578063a217fddf1461032d576101ae565b8063360f60b11161015b5780634df98bfc116101355780634df98bfc1461026a57806366666aa914610291578063679aefce146102d057806376eb43e9146102d8576101ae565b8063360f60b11461024557806336568abe1461024f5780633ec8ec5a14610262576101ae565b80632ddc40f71161018c5780632ddc40f7146102145780632ede53a3146102295780632f2ff15d14610232576101ae565b806301ffc9a7146101b35780630572b0cc146101db578063248a9ca3146101f1575b600080fd5b6101c66101c13660046110fa565b6103b6565b60405190151581526020015b60405180910390f35b6101e361044f565b6040519081526020016101d2565b6101e36101ff3660046110a8565b60009081526020819052604090206001015490565b61022761022236600461113a565b61046c565b005b6101e360035481565b6102276102403660046110c0565b61050d565b60055442106101c6565b61022761025d3660046110c0565b610539565b6003546101e3565b6101e37f4a46aaaa31bd6eb7c4586d8b31ef0034f45e1cd695217392f1dd55078385ce0b81565b6102b87f000000000000000000000000000000000000000000000000000000000000000081565b6040516001600160a01b0390911681526020016101d2565b6004546101e3565b6005544210156101c6565b6102276102f136600461113a565b6105c1565b6101c66103043660046110c0565b6000918252602082815260408084206001600160a01b0393909316845291905290205460ff1690565b6101e3600081565b610227610688565b61022761034b3660046110a8565b61070b565b6101e360015481565b6101e360045481565b61022761037036600461113a565b61078a565b6102276103833660046110c0565b61085c565b61022761039636600461113a565b610882565b6101e360025481565b6101e360065481565b6101e360055481565b60007fffffffff0000000000000000000000000000000000000000000000000000000082167f7965db0b00000000000000000000000000000000000000000000000000000000148061044957507f01ffc9a7000000000000000000000000000000000000000000000000000000007fffffffff000000000000000000000000000000000000000000000000000000008316145b92915050565b6000610459610953565b600254610466919061120f565b90505b90565b6104967f4a46aaaa31bd6eb7c4586d8b31ef0034f45e1cd695217392f1dd55078385ce0b33610304565b6104e75760405162461bcd60e51b815260206004820152601760248201527f6e6f742072657761726420646973747269627574696f6e00000000000000000060448201526064015b60405180910390fd5b60055442106104ff576104fa8282610a45565b610509565b6105098282610adc565b5050565b60008281526020819052604090206001015461052a81335b610b77565b6105348383610bf5565b505050565b6001600160a01b03811633146105b75760405162461bcd60e51b815260206004820152602f60248201527f416363657373436f6e74726f6c3a2063616e206f6e6c792072656e6f756e636560448201527f20726f6c657320666f722073656c66000000000000000000000000000000000060648201526084016104de565b6105098282610c93565b6105eb7f4a46aaaa31bd6eb7c4586d8b31ef0034f45e1cd695217392f1dd55078385ce0b33610304565b6106375760405162461bcd60e51b815260206004820152601760248201527f6e6f742072657761726420646973747269627574696f6e00000000000000000060448201526064016104de565b60055442106104ff5760405162461bcd60e51b815260206004820152601c60248201527f696e697469616c2063616d706169676e206e6f742072756e6e696e670000000060448201526064016104de565b336001600160a01b037f000000000000000000000000000000000000000000000000000000000000000016146107005760405162461bcd60e51b815260206004820152600f60248201527f6e6f742072657761726420706f6f6c000000000000000000000000000000000060448201526064016104de565b426001556000600255565b6107357f4a46aaaa31bd6eb7c4586d8b31ef0034f45e1cd695217392f1dd55078385ce0b33610304565b6107815760405162461bcd60e51b815260206004820152601760248201527f6e6f742072657761726420646973747269627574696f6e00000000000000000060448201526064016104de565b60025542600155565b6107b47f4a46aaaa31bd6eb7c4586d8b31ef0034f45e1cd695217392f1dd55078385ce0b33610304565b6108005760405162461bcd60e51b815260206004820152601760248201527f6e6f742072657761726420646973747269627574696f6e00000000000000000060448201526064016104de565b6005544210156108525760405162461bcd60e51b815260206004820152601860248201527f696e697469616c2063616d706169676e2072756e6e696e67000000000000000060448201526064016104de565b6105098282610a45565b6000828152602081905260409020600101546108788133610525565b6105348383610c93565b6108ac7f4a46aaaa31bd6eb7c4586d8b31ef0034f45e1cd695217392f1dd55078385ce0b33610304565b6108f85760405162461bcd60e51b815260206004820152601760248201527f6e6f742072657761726420646973747269627574696f6e00000000000000000060448201526064016104de565b60055442106109495760405162461bcd60e51b815260206004820152601c60248201527f696e697469616c2063616d706169676e206e6f742072756e6e696e670000000060448201526064016104de565b6105098282610d12565b600042600154111561097557634e487b7160e01b600052600160045260246000fd5b600554600354111561099757634e487b7160e01b600052600160045260246000fd5b600554600154106109aa57506000610469565b60035442116109d4576004546001546109c39042611266565b6109cd9190611247565b9050610469565b60006006546109e7600154600354610dfc565b6109f342600554610e15565b6109fd9190611266565b610a079190611247565b905060035460015410156104665780600454600154600354610a299190611266565b610a339190611247565b610a3d919061120f565b915050610469565b610a4d610e24565b610a57814261120f565b600355610a648183611227565b600455610a71814261120f565b6005819055600060068190556003546004546040805187815260208101879052908101929092526060820152608081019290925260a08201527f6613481053266930293e519022ee89096bd8adba04d23586c5e64e20d640ec519060c0015b60405180910390a15050565b610ae4610e24565b6003544210610afa576005546003556006546004555b80600354610b08919061120f565b600555610b158183611227565b60068190556003546004546005546040805187815260208101879052908101939093526060830191909152608082015260a08101919091527f62fe920d1258e46a0c0ad6ae0720652679e9991ca4205c12358d7c4f1d9a73d09060c001610ad0565b6000828152602081815260408083206001600160a01b038516845290915290205460ff1661050957610bb3816001600160a01b03166014610e39565b610bbe836020610e39565b604051602001610bcf92919061115b565b60408051601f198184030181529082905262461bcd60e51b82526104de916004016111dc565b6000828152602081815260408083206001600160a01b038516845290915290205460ff16610509576000828152602081815260408083206001600160a01b03851684529091529020805460ff19166001179055610c4f3390565b6001600160a01b0316816001600160a01b0316837f2f8788117e7eff1d82e926ec794901d17c78024a50270940304540a733656f0d60405160405180910390a45050565b6000828152602081815260408083206001600160a01b038516845290915290205460ff1615610509576000828152602081815260408083206001600160a01b0385168085529252808320805460ff1916905551339285917ff6391f5c32d9c69d2a47ea670b442974b53935d1edc7fd64eb21e047a839171b9190a45050565b610d1a610e24565b6003544210610d355760055460035560068054600455600090555b6005546003541115610d5757634e487b7160e01b600052600160045260246000fd5b6000600354600554610d699190611266565b9050610d75824261120f565b6003819055610d8590829061120f565b600555610d928284611227565b60048190556003546005546006546040805188815260208101889052908101939093526060830193909352608082015260a08101919091527f19902fdc8a70bd6ba84e7161fb544495b8d6e4524914e2df32b024acc5e67fe89060c00160405180910390a1505050565b600081831015610e0c5781610e0e565b825b9392505050565b6000818310610e0c5781610e0e565b610e2c610953565b600254610781919061120f565b60606000610e48836002611247565b610e5390600261120f565b67ffffffffffffffff811115610e7957634e487b7160e01b600052604160045260246000fd5b6040519080825280601f01601f191660200182016040528015610ea3576020820181803683370190505b5090507f300000000000000000000000000000000000000000000000000000000000000081600081518110610ee857634e487b7160e01b600052603260045260246000fd5b60200101907effffffffffffffffffffffffffffffffffffffffffffffffffffffffffffff1916908160001a9053507f780000000000000000000000000000000000000000000000000000000000000081600181518110610f5957634e487b7160e01b600052603260045260246000fd5b60200101907effffffffffffffffffffffffffffffffffffffffffffffffffffffffffffff1916908160001a9053506000610f95846002611247565b610fa090600161120f565b90505b6001811115611059577f303132333435363738396162636465660000000000000000000000000000000085600f1660108110610fef57634e487b7160e01b600052603260045260246000fd5b1a60f81b82828151811061101357634e487b7160e01b600052603260045260246000fd5b60200101907effffffffffffffffffffffffffffffffffffffffffffffffffffffffffffff1916908160001a90535060049490941c93611052816112ad565b9050610fa3565b508315610e0e5760405162461bcd60e51b815260206004820181905260248201527f537472696e67733a20686578206c656e67746820696e73756666696369656e7460448201526064016104de565b6000602082840312156110b9578081fd5b5035919050565b600080604083850312156110d2578081fd5b8235915060208301356001600160a01b03811681146110ef578182fd5b809150509250929050565b60006020828403121561110b578081fd5b81357fffffffff0000000000000000000000000000000000000000000000000000000081168114610e0e578182fd5b6000806040838503121561114c578182fd5b50508035926020909101359150565b60007f416363657373436f6e74726f6c3a206163636f756e74200000000000000000008252835161119381601785016020880161127d565b7f206973206d697373696e6720726f6c652000000000000000000000000000000060179184019182015283516111d081602884016020880161127d565b01602801949350505050565b60006020825282518060208401526111fb81604085016020870161127d565b601f01601f19169190910160400192915050565b60008219821115611222576112226112c4565b500190565b60008261124257634e487b7160e01b81526012600452602481fd5b500490565b6000816000190483118215151615611261576112616112c4565b500290565b600082821015611278576112786112c4565b500390565b60005b83811015611298578181015183820152602001611280565b838111156112a7576000848401525b50505050565b6000816112bc576112bc6112c4565b506000190190565b634e487b7160e01b600052601160045260246000fdfea264697066735822122018262a595bb1bab4f4a90e9aa87f5ffa69833f69448aa25696f614a9b154e14064736f6c63430008020033",
  "devdoc": {
    "kind": "dev",
    "methods": {
      "getRewards()": {
        "details": "At any point in time this function must return the accumulated rewards from the last call to restartRewards"
      },
      "getRoleAdmin(bytes32)": {
        "details": "Returns the admin role that controls `role`. See {grantRole} and {revokeRole}. To change a role's admin, use {_setRoleAdmin}."
      },
      "grantRole(bytes32,address)": {
        "details": "Grants `role` to `account`. If `account` had not been already granted `role`, emits a {RoleGranted} event. Requirements: - the caller must have ``role``'s admin role."
      },
      "hasRole(bytes32,address)": {
        "details": "Returns `true` if `account` has been granted `role`."
      },
      "renounceRole(bytes32,address)": {
        "details": "Revokes `role` from the calling account. Roles are often managed via {grantRole} and {revokeRole}: this function's purpose is to provide a mechanism for accounts to lose their privileges if they are compromised (such as when a trusted device is misplaced). If the calling account had been revoked `role`, emits a {RoleRevoked} event. Requirements: - the caller must be `account`."
      },
      "restartRewards()": {
        "details": "The main contract has distributed the rewards (getRewards()) until this point, this must startfrom scratch => getRewards() == 0"
      },
      "revokeRole(bytes32,address)": {
        "details": "Revokes `role` from `account`. If `account` had been granted `role`, emits a {RoleRevoked} event. Requirements: - the caller must have ``role``'s admin role."
      },
      "supportsInterface(bytes4)": {
        "details": "See {IERC165-supportsInterface}."
      }
    },
    "version": 1
  },
  "userdoc": {
    "kind": "user",
    "methods": {},
    "version": 1
  },
  "storageLayout": {
    "storage": [
      {
        "astId": 24,
        "contract": "src/solc_0.8/defi/rewardCalculation/TwoPeriodsRewardCalculator.sol:TwoPeriodsRewardCalculator",
        "label": "_roles",
        "offset": 0,
        "slot": "0",
        "type": "t_mapping(t_bytes32,t_struct(RoleData)19_storage)"
      },
      {
        "astId": 39445,
        "contract": "src/solc_0.8/defi/rewardCalculation/TwoPeriodsRewardCalculator.sol:TwoPeriodsRewardCalculator",
        "label": "lastUpdateTime",
        "offset": 0,
        "slot": "1",
        "type": "t_uint256"
      },
      {
        "astId": 39447,
        "contract": "src/solc_0.8/defi/rewardCalculation/TwoPeriodsRewardCalculator.sol:TwoPeriodsRewardCalculator",
        "label": "savedRewards",
        "offset": 0,
        "slot": "2",
        "type": "t_uint256"
      },
      {
        "astId": 39449,
        "contract": "src/solc_0.8/defi/rewardCalculation/TwoPeriodsRewardCalculator.sol:TwoPeriodsRewardCalculator",
        "label": "finish1",
        "offset": 0,
        "slot": "3",
        "type": "t_uint256"
      },
      {
        "astId": 39451,
        "contract": "src/solc_0.8/defi/rewardCalculation/TwoPeriodsRewardCalculator.sol:TwoPeriodsRewardCalculator",
        "label": "rate1",
        "offset": 0,
        "slot": "4",
        "type": "t_uint256"
      },
      {
        "astId": 39453,
        "contract": "src/solc_0.8/defi/rewardCalculation/TwoPeriodsRewardCalculator.sol:TwoPeriodsRewardCalculator",
        "label": "finish2",
        "offset": 0,
        "slot": "5",
        "type": "t_uint256"
      },
      {
        "astId": 39455,
        "contract": "src/solc_0.8/defi/rewardCalculation/TwoPeriodsRewardCalculator.sol:TwoPeriodsRewardCalculator",
        "label": "rate2",
        "offset": 0,
        "slot": "6",
        "type": "t_uint256"
      }
    ],
    "types": {
      "t_address": {
        "encoding": "inplace",
        "label": "address",
        "numberOfBytes": "20"
      },
      "t_bool": {
        "encoding": "inplace",
        "label": "bool",
        "numberOfBytes": "1"
      },
      "t_bytes32": {
        "encoding": "inplace",
        "label": "bytes32",
        "numberOfBytes": "32"
      },
      "t_mapping(t_address,t_bool)": {
        "encoding": "mapping",
        "key": "t_address",
        "label": "mapping(address => bool)",
        "numberOfBytes": "32",
        "value": "t_bool"
      },
      "t_mapping(t_bytes32,t_struct(RoleData)19_storage)": {
        "encoding": "mapping",
        "key": "t_bytes32",
        "label": "mapping(bytes32 => struct AccessControl.RoleData)",
        "numberOfBytes": "32",
        "value": "t_struct(RoleData)19_storage"
      },
      "t_struct(RoleData)19_storage": {
        "encoding": "inplace",
        "label": "struct AccessControl.RoleData",
        "members": [
          {
            "astId": 16,
            "contract": "src/solc_0.8/defi/rewardCalculation/TwoPeriodsRewardCalculator.sol:TwoPeriodsRewardCalculator",
            "label": "members",
            "offset": 0,
            "slot": "0",
            "type": "t_mapping(t_address,t_bool)"
          },
          {
            "astId": 18,
            "contract": "src/solc_0.8/defi/rewardCalculation/TwoPeriodsRewardCalculator.sol:TwoPeriodsRewardCalculator",
            "label": "adminRole",
            "offset": 0,
            "slot": "1",
            "type": "t_bytes32"
          }
        ],
        "numberOfBytes": "64"
      },
      "t_uint256": {
        "encoding": "inplace",
        "label": "uint256",
        "numberOfBytes": "32"
      }
    }
  }
}