{
  "address": "0x300771b6c5425799f6f85E5745245f6f78bEF7CB",
  "abi": [
    {
      "inputs": [
        {
          "internalType": "address",
          "name": "landAddress",
          "type": "address"
        },
        {
          "internalType": "address",
          "name": "sandContractAddress",
          "type": "address"
        },
        {
          "internalType": "address",
          "name": "initialMetaTx",
          "type": "address"
        },
        {
          "internalType": "address",
          "name": "admin",
          "type": "address"
        },
        {
          "internalType": "address payable",
          "name": "initialWalletAddress",
          "type": "address"
        },
        {
          "internalType": "bytes32",
          "name": "merkleRoot",
          "type": "bytes32"
        },
        {
          "internalType": "uint256",
          "name": "expiryTime",
          "type": "uint256"
        },
        {
          "internalType": "address",
          "name": "initialSigningWallet",
          "type": "address"
        },
        {
          "internalType": "uint256",
          "name": "initialMaxCommissionRate",
          "type": "uint256"
        },
        {
          "internalType": "address",
          "name": "estate",
          "type": "address"
        },
        {
          "internalType": "address",
          "name": "asset",
          "type": "address"
        },
        {
          "internalType": "address",
          "name": "feeDistributor",
          "type": "address"
        },
        {
          "internalType": "address",
          "name": "authValidator",
          "type": "address"
        }
      ],
      "stateMutability": "nonpayable",
      "type": "constructor"
    },
    {
      "anonymous": false,
      "inputs": [
        {
          "indexed": false,
          "internalType": "address",
          "name": "oldAdmin",
          "type": "address"
        },
        {
          "indexed": false,
          "internalType": "address",
          "name": "newAdmin",
          "type": "address"
        }
      ],
      "name": "AdminChanged",
      "type": "event"
    },
    {
      "anonymous": false,
      "inputs": [
        {
          "indexed": true,
          "internalType": "address",
          "name": "buyer",
          "type": "address"
        },
        {
          "indexed": true,
          "internalType": "address",
          "name": "to",
          "type": "address"
        },
        {
          "indexed": true,
          "internalType": "uint256",
          "name": "topCornerId",
          "type": "uint256"
        },
        {
          "indexed": false,
          "internalType": "uint256",
          "name": "size",
          "type": "uint256"
        },
        {
          "indexed": false,
          "internalType": "uint256",
          "name": "price",
          "type": "uint256"
        },
        {
          "indexed": false,
          "internalType": "address",
          "name": "token",
          "type": "address"
        },
        {
          "indexed": false,
          "internalType": "uint256",
          "name": "amountPaid",
          "type": "uint256"
        }
      ],
      "name": "LandQuadPurchased",
      "type": "event"
    },
    {
      "anonymous": false,
      "inputs": [
        {
          "indexed": true,
          "internalType": "uint256",
          "name": "newMaxCommissionRate",
          "type": "uint256"
        }
      ],
      "name": "MaxCommissionRateUpdated",
      "type": "event"
    },
    {
      "anonymous": false,
      "inputs": [
        {
          "indexed": false,
          "internalType": "address",
          "name": "metaTransactionProcessor",
          "type": "address"
        },
        {
          "indexed": false,
          "internalType": "bool",
          "name": "enabled",
          "type": "bool"
        }
      ],
      "name": "MetaTransactionProcessor",
      "type": "event"
    },
    {
      "anonymous": false,
      "inputs": [
        {
          "indexed": true,
          "internalType": "address",
          "name": "newWallet",
          "type": "address"
        }
      ],
      "name": "NewReceivingWallet",
      "type": "event"
    },
    {
      "anonymous": false,
      "inputs": [
        {
          "indexed": true,
          "internalType": "address",
          "name": "referrer",
          "type": "address"
        },
        {
          "indexed": true,
          "internalType": "address",
          "name": "referee",
          "type": "address"
        },
        {
          "indexed": true,
          "internalType": "address",
          "name": "token",
          "type": "address"
        },
        {
          "indexed": false,
          "internalType": "uint256",
          "name": "amount",
          "type": "uint256"
        },
        {
          "indexed": false,
          "internalType": "uint256",
          "name": "commission",
          "type": "uint256"
        },
        {
          "indexed": false,
          "internalType": "uint256",
          "name": "commissionRate",
          "type": "uint256"
        }
      ],
      "name": "ReferralUsed",
      "type": "event"
    },
    {
      "anonymous": false,
      "inputs": [
        {
          "indexed": true,
          "internalType": "address",
          "name": "newSigningWallet",
          "type": "address"
        }
      ],
      "name": "SigningWalletUpdated",
      "type": "event"
    },
    {
      "inputs": [
        {
          "internalType": "address",
          "name": "buyer",
          "type": "address"
        },
        {
          "internalType": "address",
          "name": "to",
          "type": "address"
        },
        {
          "internalType": "address",
          "name": "reserved",
          "type": "address"
        },
        {
          "internalType": "uint256[]",
          "name": "info",
          "type": "uint256[]"
        },
        {
          "internalType": "bytes32",
          "name": "salt",
          "type": "bytes32"
        },
        {
          "internalType": "uint256[]",
          "name": "assetIds",
          "type": "uint256[]"
        },
        {
          "internalType": "bytes32[]",
          "name": "proof",
          "type": "bytes32[]"
        },
        {
          "internalType": "bytes",
          "name": "referral",
          "type": "bytes"
        },
        {
          "internalType": "bytes",
          "name": "signature",
          "type": "bytes"
        }
      ],
      "name": "buyLandWithSand",
      "outputs": [],
      "stateMutability": "nonpayable",
      "type": "function"
    },
    {
      "inputs": [
        {
          "internalType": "address",
          "name": "newAdmin",
          "type": "address"
        }
      ],
      "name": "changeAdmin",
      "outputs": [],
      "stateMutability": "nonpayable",
      "type": "function"
    },
    {
      "inputs": [
        {
          "internalType": "bytes",
          "name": "referral",
          "type": "bytes"
        }
      ],
      "name": "decodeReferral",
      "outputs": [
        {
          "internalType": "bytes",
          "name": "",
          "type": "bytes"
        },
        {
          "internalType": "address",
          "name": "",
          "type": "address"
        },
        {
          "internalType": "address",
          "name": "",
          "type": "address"
        },
        {
          "internalType": "uint256",
          "name": "",
          "type": "uint256"
        },
        {
          "internalType": "uint256",
          "name": "",
          "type": "uint256"
        }
      ],
      "stateMutability": "pure",
      "type": "function"
    },
    {
      "inputs": [
        {
          "internalType": "address",
          "name": "disableWallet",
          "type": "address"
        }
      ],
      "name": "disablePreviousSigningWallet",
      "outputs": [],
      "stateMutability": "nonpayable",
      "type": "function"
    },
    {
      "inputs": [],
      "name": "getAdmin",
      "outputs": [
        {
          "internalType": "address",
          "name": "",
          "type": "address"
        }
      ],
      "stateMutability": "view",
      "type": "function"
    },
    {
      "inputs": [],
      "name": "getExpiryTime",
      "outputs": [
        {
          "internalType": "uint256",
          "name": "",
          "type": "uint256"
        }
      ],
      "stateMutability": "view",
      "type": "function"
    },
    {
      "inputs": [],
      "name": "getMaxCommissionRate",
      "outputs": [
        {
          "internalType": "uint256",
          "name": "",
          "type": "uint256"
        }
      ],
      "stateMutability": "view",
      "type": "function"
    },
    {
      "inputs": [],
      "name": "getMerkleRoot",
      "outputs": [
        {
          "internalType": "bytes32",
          "name": "",
          "type": "bytes32"
        }
      ],
      "stateMutability": "view",
      "type": "function"
    },
    {
      "inputs": [],
      "name": "getSigningWallet",
      "outputs": [
        {
          "internalType": "address",
          "name": "",
          "type": "address"
        }
      ],
      "stateMutability": "view",
      "type": "function"
    },
    {
      "inputs": [
        {
          "internalType": "address",
          "name": "who",
          "type": "address"
        }
      ],
      "name": "isMetaTransactionProcessor",
      "outputs": [
        {
          "internalType": "bool",
          "name": "",
          "type": "bool"
        }
      ],
      "stateMutability": "view",
      "type": "function"
    },
    {
      "inputs": [
        {
          "internalType": "bytes",
          "name": "signature",
          "type": "bytes"
        },
        {
          "internalType": "address",
          "name": "referrer",
          "type": "address"
        },
        {
          "internalType": "address",
          "name": "referee",
          "type": "address"
        },
        {
          "internalType": "uint256",
          "name": "expiryTime",
          "type": "uint256"
        },
        {
          "internalType": "uint256",
          "name": "commissionRate",
          "type": "uint256"
        }
      ],
      "name": "isReferralValid",
      "outputs": [
        {
          "internalType": "bool",
          "name": "",
          "type": "bool"
        }
      ],
      "stateMutability": "view",
      "type": "function"
    },
    {
      "inputs": [
        {
          "internalType": "address",
          "name": "",
          "type": "address"
        },
        {
          "internalType": "address",
          "name": "",
          "type": "address"
        },
        {
          "internalType": "uint256[]",
          "name": "",
          "type": "uint256[]"
        },
        {
          "internalType": "uint256[]",
          "name": "",
          "type": "uint256[]"
        },
        {
          "internalType": "bytes",
          "name": "",
          "type": "bytes"
        }
      ],
      "name": "onERC1155BatchReceived",
      "outputs": [
        {
          "internalType": "bytes4",
          "name": "",
          "type": "bytes4"
        }
      ],
      "stateMutability": "pure",
      "type": "function"
    },
    {
      "inputs": [
        {
          "internalType": "address",
          "name": "",
          "type": "address"
        },
        {
          "internalType": "address",
          "name": "",
          "type": "address"
        },
        {
          "internalType": "uint256",
          "name": "",
          "type": "uint256"
        },
        {
          "internalType": "uint256",
          "name": "",
          "type": "uint256"
        },
        {
          "internalType": "bytes",
          "name": "",
          "type": "bytes"
        }
      ],
      "name": "onERC1155Received",
      "outputs": [
        {
          "internalType": "bytes4",
          "name": "",
          "type": "bytes4"
        }
      ],
      "stateMutability": "pure",
      "type": "function"
    },
    {
      "inputs": [
        {
          "internalType": "address",
          "name": "metaTransactionProcessor",
          "type": "address"
        },
        {
          "internalType": "bool",
          "name": "enabled",
          "type": "bool"
        }
      ],
      "name": "setMetaTransactionProcessor",
      "outputs": [],
      "stateMutability": "nonpayable",
      "type": "function"
    },
    {
      "inputs": [
        {
          "internalType": "address payable",
          "name": "newWallet",
          "type": "address"
        }
      ],
      "name": "setReceivingWallet",
      "outputs": [],
      "stateMutability": "nonpayable",
      "type": "function"
    },
    {
      "inputs": [
        {
          "internalType": "uint256",
          "name": "newMaxCommissionRate",
          "type": "uint256"
        }
      ],
      "name": "updateMaxCommissionRate",
      "outputs": [],
      "stateMutability": "nonpayable",
      "type": "function"
    },
    {
      "inputs": [
        {
          "internalType": "address",
          "name": "newSigningWallet",
          "type": "address"
        }
      ],
      "name": "updateSigningWallet",
      "outputs": [],
      "stateMutability": "nonpayable",
      "type": "function"
    },
    {
      "inputs": [
        {
          "internalType": "address",
          "name": "to",
          "type": "address"
        },
        {
          "internalType": "uint256[]",
          "name": "assetIds",
          "type": "uint256[]"
        },
        {
          "internalType": "uint256[]",
          "name": "values",
          "type": "uint256[]"
        }
      ],
      "name": "withdrawAssets",
      "outputs": [],
      "stateMutability": "nonpayable",
      "type": "function"
    }
  ],
  "transactionHash": "0x7fc65d19f7deb5ae348e5fa377f964ee0ecdc8cde824c39fd8ca8201ee427b0f",
  "args": [
    "0x9d305a42A3975Ee4c1C57555BeD5919889DCE63F",
    "0xBbba073C31bF03b8ACf7c28EF0738DeCF3695683",
    "0xBbba073C31bF03b8ACf7c28EF0738DeCF3695683",
    "0xfD30a48Bc6c56E24B0ebF1B0117d750e2CFf7531",
    "0x1b47567CBE36e63293A7A2018F79687f942aB24C",
    "0xa483b1c54b61004dcbd0e7cb04dcb5288e42c04c39840fdf864f6eb8bc935e7c",
    1693828800,
    "0x3044719d139F866a44c988823513eCB93060bF1b",
    2000,
    "0x0000000000000000000000000000000000000000",
    "0xd19cc137bb848d3a48ad8ad883886b67c26761dc",
    "0x42a4a3795446A4c070565da201c6303fC78a2569",
    "0x7804fb2AF15bB1323795A888B09913cEf629Ffda"
  ],
  "numDeployments": 1,
  "linkedData": [
    {
      "x": 9,
      "y": 288,
      "size": 1,
      "price": "1011000000000000000000",
      "reserved": "",
      "salt": "0x1d27ed514ee931d9808f4abb9dd6637d169cee37151d19e54113f966b48f4922",
      "assetIds": []
    },
    {
      "x": 9,
      "y": 289,
      "size": 1,
      "price": "1011000000000000000000",
      "reserved": "",
      "salt": "0x71ffd943fee2b1e8d4a9a4dff414cd30661ece98ede339f05e5323617d48569c",
      "assetIds": []
    },
    {
      "x": 9,
      "y": 290,
      "size": 1,
      "price": "1011000000000000000000",
      "reserved": "",
      "salt": "0x673b243fd910152eea75dbf1d3121f2e306756f0a8ece0fdf9b230203db5a00e",
      "assetIds": []
    },
    {
      "x": 9,
      "y": 291,
      "size": 1,
      "price": "1011000000000000000000",
      "reserved": "",
      "salt": "0xd00e3207df827f16f4cc6cecf86b89c93072025e29745c368eadb75f08c46448",
      "assetIds": []
    },
    {
      "x": 9,
      "y": 292,
      "size": 1,
      "price": "1011000000000000000000",
      "reserved": "",
      "salt": "0x009b72c5809799add499320e173b198d5650f60f8aa929af719bc1b0dbbe5ad2",
      "assetIds": []
    },
    {
      "x": 9,
      "y": 293,
      "size": 1,
      "price": "1011000000000000000000",
      "reserved": "",
      "salt": "0xf51d60d8f5ae065792e1e6266eee0008fa48d9f55992afadf3cf04272d52c876",
      "assetIds": []
    },
    {
      "x": 9,
      "y": 294,
      "size": 1,
      "price": "1011000000000000000000",
      "reserved": "",
      "salt": "0x1c2090d60c3b8766170c484369189c23458bfbf550060eb1f367e2f8d1756a70",
      "assetIds": []
    },
    {
      "x": 9,
      "y": 295,
      "size": 1,
      "price": "1011000000000000000000",
      "reserved": "",
      "salt": "0x77db30c08b9230402f8dfbb1b6512f974daeedeba6ce2b184d5912ec24a7f0cd",
      "assetIds": []
    },
    {
      "x": 9,
      "y": 296,
      "size": 1,
      "price": "1011000000000000000000",
      "reserved": "",
      "salt": "0x4eb5eb4219f161253c2f9eb80c3143deb6badf52e629f25a4e336ebb6bba4922",
      "assetIds": []
    },
    {
      "x": 9,
      "y": 300,
      "size": 1,
      "price": "1011000000000000000000",
      "reserved": "",
      "salt": "0x95a700d13c0fd6d2ad0c449530e27818918fe0fc32c7e41ef5c57a946607ca42",
      "assetIds": []
    },
    {
      "x": 9,
      "y": 301,
      "size": 1,
      "price": "1011000000000000000000",
      "reserved": "",
      "salt": "0x81de2ef0b5bf250d342dcdc0f812f560d54f878c0518e4329b8582e69a1981ef",
      "assetIds": []
    },
    {
      "x": 9,
      "y": 302,
      "size": 1,
      "price": "1011000000000000000000",
      "reserved": "",
      "salt": "0x4948798be880fdd10944c8fa3090ceb0c19cf24a50a539ddb97bc4ceb50f7c65",
      "assetIds": []
    },
    {
      "x": 9,
      "y": 303,
      "size": 1,
      "price": "1011000000000000000000",
      "reserved": "0x7a9fe22691c811ea339d9b73150e6911a5343dca",
      "salt": "0xa0cf29e31c3ea3353c60cebf7b21b75e412e7af517b848f6a7055e91064ffe52",
      "assetIds": []
    },
    {
      "x": 9,
      "y": 304,
      "size": 1,
      "price": "1011000000000000000000",
      "reserved": "",
      "salt": "0xe389cbf5405d6a93a8f2e65b7a730dd73315c6c2dfa16fc576203bf03e8eb087",
      "assetIds": []
    },
    {
      "x": 9,
      "y": 305,
      "size": 1,
      "price": "1011000000000000000000",
      "reserved": "0x7a9fe22691c811ea339d9b73150e6911a5343dca",
      "salt": "0xd74fb434e225563a50eb7a94d2182e42ba48bd59c5a7f14545312940b7a41941",
      "assetIds": []
    },
    {
      "x": 9,
      "y": 306,
      "size": 1,
      "price": "1011000000000000000000",
      "reserved": "",
      "salt": "0xcc91708162677717eb1dcc59650c736f0fb09eff2892fe951af0cbd182135733",
      "assetIds": []
    },
    {
      "x": 9,
      "y": 307,
      "size": 1,
      "price": "1011000000000000000000",
      "reserved": "",
      "salt": "0xae9457e781317d9f1fe54a7ebdc7b010cf5fd5e96506af4e8d7cc4ae51b3d428",
      "assetIds": []
    },
    {
      "x": 9,
      "y": 308,
      "size": 1,
      "price": "1011000000000000000000",
      "reserved": "",
      "salt": "0x161110fac429fd0b2e3321e884a5b839f8d4cbbfd651807418a7389219d8f925",
      "assetIds": []
    },
    {
      "x": 9,
      "y": 309,
      "size": 1,
      "price": "1011000000000000000000",
      "reserved": "",
      "salt": "0x776734492f9ef4e74e829cdecf0e535c9e61413304725430ae1c85a545dd7cb1",
      "assetIds": []
    },
    {
      "x": 9,
      "y": 310,
      "size": 1,
      "price": "1011000000000000000000",
      "reserved": "",
      "salt": "0xbff5a24cb9ea8892a0f2bbf1d87cdc029ffa4bbf13282e3b0b0d2e09afd93814",
      "assetIds": []
    },
    {
      "x": 9,
      "y": 311,
      "size": 1,
      "price": "1011000000000000000000",
      "reserved": "",
      "salt": "0xa690586fcb407acee35cb2dae427a5854a1bd37c565397c468884d004ab381cc",
      "assetIds": []
    },
    {
      "x": 9,
      "y": 312,
      "size": 1,
      "price": "1011000000000000000000",
      "reserved": "",
      "salt": "0x8480694ccdb6561adab4ddfcb559088d2030e4468888a46c3c8e936b8331bc30",
      "assetIds": []
    },
    {
      "x": 9,
      "y": 313,
      "size": 1,
      "price": "1011000000000000000000",
      "reserved": "",
      "salt": "0x2dc4c10e1cab9e79978322396dfbb723bc482b7132818a7f09893d11c5295bf5",
      "assetIds": []
    },
    {
      "x": 9,
      "y": 314,
      "size": 1,
      "price": "1011000000000000000000",
      "reserved": "",
      "salt": "0x3d467932d612bb296c42aec37395527c9df4917ab08c07217294d44106c59a3e",
      "assetIds": []
    },
    {
      "x": 10,
      "y": 288,
      "size": 1,
      "price": "1011000000000000000000",
      "reserved": "",
      "salt": "0x80108c20fd2f81a4290e388b1518bf98ecae9a586a2f08a64cfa4f7dc1b11e21",
      "assetIds": []
    },
    {
      "x": 10,
      "y": 289,
      "size": 1,
      "price": "1011000000000000000000",
      "reserved": "0x7a9fe22691c811ea339d9b73150e6911a5343dca",
      "salt": "0x578f643be4d087b4c0a2b3425211d07e6ab2ed55d111edcd0e03e32325a4b07d",
      "assetIds": []
    },
    {
      "x": 10,
      "y": 290,
      "size": 1,
      "price": "1011000000000000000000",
      "reserved": "",
      "salt": "0xb175ea3cee198babe3ed21e40da74a98c921d57f381a9ddd7f94f82575e1d4e6",
      "assetIds": []
    },
    {
      "x": 10,
      "y": 291,
      "size": 1,
      "price": "1011000000000000000000",
      "reserved": "0x7a9fe22691c811ea339d9b73150e6911a5343dca",
      "salt": "0xa264f1599a921b150bac60bfb7dfd72af8bdd0818ca29e62227bc657384cc84a",
      "assetIds": []
    },
    {
      "x": 10,
      "y": 292,
      "size": 1,
      "price": "1011000000000000000000",
      "reserved": "",
      "salt": "0xf616e34f6e380603519dabd0078fc43cc226b40b01e38a24f4eeefcb81aaa698",
      "assetIds": []
    },
    {
      "x": 10,
      "y": 293,
      "size": 1,
      "price": "1011000000000000000000",
      "reserved": "",
      "salt": "0xd4adeef0ebd4a21ba085aae1e994138c061e0726468ef4f4ed15259b7e91c638",
      "assetIds": []
    },
    {
      "x": 10,
      "y": 294,
      "size": 1,
      "price": "1011000000000000000000",
      "reserved": "",
      "salt": "0x6b41d2dcedfbed76f8339660d9cc47ed5bd56891ef135ce48d41369d8dfc2796",
      "assetIds": []
    },
    {
      "x": 10,
      "y": 295,
      "size": 1,
      "price": "1011000000000000000000",
      "reserved": "",
      "salt": "0xb01cd8eb55ab653eb479d86b418a76a0cb48348eddb76c073f2f582a489f4a30",
      "assetIds": []
    },
    {
      "x": 10,
      "y": 296,
      "size": 1,
      "price": "1011000000000000000000",
      "reserved": "",
      "salt": "0x6c2813d5e721c19a8a3096ad07e8877ae9223dd6a484de6bdb0912b92cc77b75",
      "assetIds": []
    },
    {
      "x": 10,
      "y": 300,
      "size": 1,
      "price": "1011000000000000000000",
      "reserved": "",
      "salt": "0x4990e5574cbdf4c1044410346b47e3b21d2d0dc8b5b5b87cc41180f7a46160f0",
      "assetIds": []
    },
    {
      "x": 10,
      "y": 301,
      "size": 1,
      "price": "1011000000000000000000",
      "reserved": "",
      "salt": "0x32dbf193d320da8bf1d396ba3357c706b01e5f7aa311651ef0bbf37149a9713a",
      "assetIds": []
    },
    {
      "x": 10,
      "y": 302,
      "size": 1,
      "price": "1011000000000000000000",
      "reserved": "",
      "salt": "0x3adffbafe088845996eef736089c2ee09773135bb1d32aebad20b6f7593b9a09",
      "assetIds": []
    },
    {
      "x": 10,
      "y": 303,
      "size": 1,
      "price": "1011000000000000000000",
      "reserved": "",
      "salt": "0xe320a85c6cb717f1c4889912a8008e63eddb70ca7687b1b9c804b80ac5c19c9d",
      "assetIds": []
    },
    {
      "x": 10,
      "y": 304,
      "size": 1,
      "price": "1011000000000000000000",
      "reserved": "0x7a9fe22691c811ea339d9b73150e6911a5343dca",
      "salt": "0x12ab8f9e32929031683e49386b23b2a9105d61bc50747b1e0d852651c0aeecda",
      "assetIds": []
    },
    {
      "x": 10,
      "y": 305,
      "size": 1,
      "price": "1011000000000000000000",
      "reserved": "",
      "salt": "0x2ff41cf7aeafb5d66f243c22633a094681024bc208e1f5349cc52d80546bf15a",
      "assetIds": []
    },
    {
      "x": 10,
      "y": 306,
      "size": 1,
      "price": "1011000000000000000000",
      "reserved": "",
      "salt": "0xddb3cb328118849d19faac8371ed4e23308bb85b4ed74a543f183e38c6878f49",
      "assetIds": []
    },
    {
      "x": 10,
      "y": 307,
      "size": 1,
      "price": "1011000000000000000000",
      "reserved": "",
      "salt": "0xbe5e122864449c6865f2dd848b7576ddd557aec1cb0ca3be5031069c2621046c",
      "assetIds": []
    },
    {
      "x": 10,
      "y": 308,
      "size": 1,
      "price": "1011000000000000000000",
      "reserved": "",
      "salt": "0x6324b34645a9530c846ac491b81831ed1e73174788eab4704e0c8c6d5a4982a7",
      "assetIds": []
    },
    {
      "x": 10,
      "y": 309,
      "size": 1,
      "price": "1011000000000000000000",
      "reserved": "",
      "salt": "0xd68fa431349514dfc3b7341539cb2fc517e877793b0f89e47331aaed59407c18",
      "assetIds": []
    },
    {
      "x": 10,
      "y": 310,
      "size": 1,
      "price": "1011000000000000000000",
      "reserved": "",
      "salt": "0x960d2e4c31f4be4296bbc74fd36790196bb1b4fa927b18ed932313cc6b66df3c",
      "assetIds": []
    },
    {
      "x": 10,
      "y": 311,
      "size": 1,
      "price": "1011000000000000000000",
      "reserved": "",
      "salt": "0x29b57a612d6eb2e4a20283736502fe25b766f3dd6ce7e50b2c9d4bb68ce4f649",
      "assetIds": []
    },
    {
      "x": 10,
      "y": 312,
      "size": 1,
      "price": "1011000000000000000000",
      "reserved": "0x7a9fe22691c811ea339d9b73150e6911a5343dca",
      "salt": "0x42338e6045be20e581112dc87459a4cfa39eb73d53f3e458e48e35e4d253e6d1",
      "assetIds": []
    },
    {
      "x": 10,
      "y": 313,
      "size": 1,
      "price": "1011000000000000000000",
      "reserved": "",
      "salt": "0xbeb011dd9f8d3d5259fddd0a054dee8846c8db504eea49565e17a2458c4090f8",
      "assetIds": []
    },
    {
      "x": 10,
      "y": 314,
      "size": 1,
      "price": "1011000000000000000000",
      "reserved": "",
      "salt": "0x501cf29e485e71f0c8e885a073560ff23f7b64a6c5527dccccc2d21ab4c33abd",
      "assetIds": []
    },
    {
      "x": 11,
      "y": 288,
      "size": 1,
      "price": "1011000000000000000000",
      "reserved": "",
      "salt": "0x3ebfe107cb4256b3b2ae48c973073d32f5a539a20c61534b578ac38149ab8a6a",
      "assetIds": []
    },
    {
      "x": 11,
      "y": 289,
      "size": 1,
      "price": "1011000000000000000000",
      "reserved": "",
      "salt": "0x9e005400c6627284789483d3d8b17566f0eeac88f89d4aabb57f2de364f061ae",
      "assetIds": []
    },
    {
      "x": 11,
      "y": 290,
      "size": 1,
      "price": "1011000000000000000000",
      "reserved": "",
      "salt": "0xad86efa6fb62b1254277a7f11eb007d946c27729256e9d7ae1755bcafc1de218",
      "assetIds": []
    },
    {
      "x": 11,
      "y": 291,
      "size": 1,
      "price": "1011000000000000000000",
      "reserved": "",
      "salt": "0x7a0964d8482eb60ac50cb5fca39275fade81dccd9e0c033e806ccb9d762201ec",
      "assetIds": []
    },
    {
      "x": 11,
      "y": 292,
      "size": 1,
      "price": "1011000000000000000000",
      "reserved": "",
      "salt": "0x2cbe16beafc0b72acba4a680f7f43623220d3270d9e9ac0dfd26ba53304137cb",
      "assetIds": []
    },
    {
      "x": 11,
      "y": 293,
      "size": 1,
      "price": "1011000000000000000000",
      "reserved": "",
      "salt": "0x671771329913e88e7e84fce2e18582547d7473266c5233d62e49e55b59abac1a",
      "assetIds": []
    },
    {
      "x": 11,
      "y": 294,
      "size": 1,
      "price": "4683000000000000000000",
      "reserved": "",
      "salt": "0xfd631ffa81bef261e78445a3a1b4b62d8815e044485a01c336d58a37649804cf",
      "assetIds": []
    },
    {
      "x": 11,
      "y": 295,
      "size": 1,
      "price": "4683000000000000000000",
      "reserved": "",
      "salt": "0x84f7c3f36bcda835e6ee9af8af838d1ff574a799b00191273efb184d222d95e6",
      "assetIds": []
    },
    {
      "x": 11,
      "y": 296,
      "size": 1,
      "price": "4683000000000000000000",
      "reserved": "",
      "salt": "0x0538eb48a132c5e2263a74f7f9777b482bd93cbdf61e6339dcb0af2ccc54f220",
      "assetIds": []
    },
    {
      "x": 11,
      "y": 300,
      "size": 1,
      "price": "1011000000000000000000",
      "reserved": "",
      "salt": "0x6f960723b9c9bdc2bcb9498a2d0c692bf3c4a36075e3a28b98dac94c7bc2fd2b",
      "assetIds": []
    },
    {
      "x": 11,
      "y": 301,
      "size": 1,
      "price": "1011000000000000000000",
      "reserved": "",
      "salt": "0xeb6c6c441d9832cca6270a896b43acb26bd67349d2f605dca4703a7df8494201",
      "assetIds": []
    },
    {
      "x": 11,
      "y": 302,
      "size": 1,
      "price": "1011000000000000000000",
      "reserved": "",
      "salt": "0xb0dbf7443fba09dfa3c42184f9984de2c51d10865f6c845c36e3e5d2f3b6247a",
      "assetIds": []
    },
    {
      "x": 11,
      "y": 303,
      "size": 1,
      "price": "1011000000000000000000",
      "reserved": "0x7a9fe22691c811ea339d9b73150e6911a5343dca",
      "salt": "0x9cc9376ea4bf9a64ed7b0ec240f4c8bbfe8aab4f7f05d536659bae4422d53c29",
      "assetIds": []
    },
    {
      "x": 11,
      "y": 304,
      "size": 1,
      "price": "1011000000000000000000",
      "reserved": "",
      "salt": "0x719c10bdaab8f6ee2121d14a464e8fe232864e44450b3ac7ef67260cd77ded01",
      "assetIds": []
    },
    {
      "x": 11,
      "y": 305,
      "size": 1,
      "price": "1011000000000000000000",
      "reserved": "0x7a9fe22691c811ea339d9b73150e6911a5343dca",
      "salt": "0xd28817b9b01aa896438d4c8c4cc3037ac1ec208009be1c0f03516f4b6edaf97c",
      "assetIds": []
    },
    {
      "x": 11,
      "y": 306,
      "size": 1,
      "price": "1011000000000000000000",
      "reserved": "",
      "salt": "0x1e2d7197ede9d01d25381ab29af77668b073775a3db452d6106a3d3ec9753ef5",
      "assetIds": []
    },
    {
      "x": 11,
      "y": 307,
      "size": 1,
      "price": "1011000000000000000000",
      "reserved": "",
      "salt": "0x760255488bb7d145b648db0c7eedc759c9e8e31dd63894a286389347ed9ef6fd",
      "assetIds": []
    },
    {
      "x": 11,
      "y": 308,
      "size": 1,
      "price": "1011000000000000000000",
      "reserved": "",
      "salt": "0xf0582e7258924ff3fc07a3dfef0183d343dcb058bf596d2dc59e08886f7f7487",
      "assetIds": []
    },
    {
      "x": 11,
      "y": 309,
      "size": 1,
      "price": "1011000000000000000000",
      "reserved": "",
      "salt": "0x0c1ab323d04f1a24bc5a64e166212a45ccfd7ca8c455c146c97186e6b593414b",
      "assetIds": []
    },
    {
      "x": 11,
      "y": 310,
      "size": 1,
      "price": "1011000000000000000000",
      "reserved": "",
      "salt": "0xf91a1196204407630156e2d3b189a167c566fdc00a55690154e8e7a11cafc757",
      "assetIds": []
    },
    {
      "x": 11,
      "y": 311,
      "size": 1,
      "price": "1011000000000000000000",
      "reserved": "0x7a9fe22691c811ea339d9b73150e6911a5343dca",
      "salt": "0xf58786cb7267141dec77f289ab99ffa5eb6db6fb03686b5e0ec1e955bd80e32c",
      "assetIds": []
    },
    {
      "x": 11,
      "y": 312,
      "size": 1,
      "price": "1011000000000000000000",
      "reserved": "0x7a9fe22691c811ea339d9b73150e6911a5343dca",
      "salt": "0x66b58b227a67b4ec62f6b5f97c2c663cc0786eed58314354e47ccb6297b5ad8c",
      "assetIds": []
    },
    {
      "x": 11,
      "y": 313,
      "size": 1,
      "price": "1011000000000000000000",
      "reserved": "",
      "salt": "0xc292f37bc25297fca9d641f2c0abd705680852a0b045b6f53121e7b0c39e2104",
      "assetIds": []
    },
    {
      "x": 11,
      "y": 314,
      "size": 1,
      "price": "1011000000000000000000",
      "reserved": "",
      "salt": "0x2a53eb0668fb445a4f51f28ab7ce88248b7adf91d8d63c866dddfb5a71ee7aa7",
      "assetIds": []
    },
    {
      "x": 12,
      "y": 288,
      "size": 1,
      "price": "1011000000000000000000",
      "reserved": "",
      "salt": "0xe29a21b83a160767c627670fcccec9fa662efe05451e748bfaa57c256eb88238",
      "assetIds": []
    },
    {
      "x": 12,
      "y": 289,
      "size": 1,
      "price": "1011000000000000000000",
      "reserved": "",
      "salt": "0x0ce50bd4324f7a40e32b5a943de0be2a3c2ffa64ad2e2283b84514565534337c",
      "assetIds": []
    },
    {
      "x": 12,
      "y": 290,
      "size": 1,
      "price": "1011000000000000000000",
      "reserved": "",
      "salt": "0x71c503fe97ef43764189590bf6039d65f188322d2b690137ed01aab40be91655",
      "assetIds": []
    },
    {
      "x": 12,
      "y": 297,
      "size": 1,
      "price": "4683000000000000000000",
      "reserved": "",
      "salt": "0x947552d5f257762fff40ac3ea78260ab1c8eb927cd94796c6dd8a4c5f69c0b7f",
      "assetIds": []
    },
    {
      "x": 12,
      "y": 298,
      "size": 1,
      "price": "1011000000000000000000",
      "reserved": "",
      "salt": "0x872a309ad88aa5b934d9442350f68443fef4820fb7b825b90f12a84fb03563d3",
      "assetIds": []
    },
    {
      "x": 12,
      "y": 299,
      "size": 1,
      "price": "1011000000000000000000",
      "reserved": "",
      "salt": "0xc44d0f340523b974ec02cf28a5a4928ca6baaae07764237379c819ac5594dd53",
      "assetIds": []
    },
    {
      "x": 12,
      "y": 303,
      "size": 1,
      "price": "1011000000000000000000",
      "reserved": "",
      "salt": "0x3819df0f9f7666c3b07d389832944e97a68bf54ee2ce524a48e50c4166263220",
      "assetIds": []
    },
    {
      "x": 12,
      "y": 304,
      "size": 1,
      "price": "1011000000000000000000",
      "reserved": "",
      "salt": "0x820b3af10b61ed508af19da16da70752efdc7a221c900e7566e384b010615f92",
      "assetIds": []
    },
    {
      "x": 12,
      "y": 305,
      "size": 1,
      "price": "1011000000000000000000",
      "reserved": "",
      "salt": "0xd7d8cb57d6da2050cf625a6d44506c4d4fa4e6a152aa2298e3cfcd3a710022ee",
      "assetIds": []
    },
    {
      "x": 12,
      "y": 309,
      "size": 1,
      "price": "1011000000000000000000",
      "reserved": "",
      "salt": "0x4e2d95b9d49e301ddf78794083509688a40051b42b997ea5589e0eb3a07cfe96",
      "assetIds": []
    },
    {
      "x": 12,
      "y": 310,
      "size": 1,
      "price": "1011000000000000000000",
      "reserved": "",
      "salt": "0xa30bc0fd7bbd6f44220d2eff420ae6793199646450820c74107826b409e1722b",
      "assetIds": []
    },
    {
      "x": 12,
      "y": 311,
      "size": 1,
      "price": "1011000000000000000000",
      "reserved": "",
      "salt": "0xca43edafe3313daaca3a5576a3ad63dfef04386fe0846479070f0886937cf2df",
      "assetIds": []
    },
    {
      "x": 12,
      "y": 312,
      "size": 1,
      "price": "1011000000000000000000",
      "reserved": "0x7a9fe22691c811ea339d9b73150e6911a5343dca",
      "salt": "0xa75687e74ce6aaf104c9763096bc94520d970c2fa993e408da6a22e70d1ed11a",
      "assetIds": []
    },
    {
      "x": 12,
      "y": 313,
      "size": 1,
      "price": "1011000000000000000000",
      "reserved": "",
      "salt": "0xb6af63b87487fddfb397f3e655680d7c0407dc4b272d81dad718975e26815293",
      "assetIds": []
    },
    {
      "x": 12,
      "y": 314,
      "size": 1,
      "price": "1011000000000000000000",
      "reserved": "",
      "salt": "0xb7f110be2134642a26253805589e1b87bca231c68eb9ccb9b73f6553e8f6a4db",
      "assetIds": []
    },
    {
      "x": 13,
      "y": 288,
      "size": 1,
      "price": "1011000000000000000000",
      "reserved": "",
      "salt": "0xa197becfb6baccc1f5a8b213b52970b9de0d8c017d7ec96b0ec3a08f6e2c24ec",
      "assetIds": []
    },
    {
      "x": 13,
      "y": 289,
      "size": 1,
      "price": "1011000000000000000000",
      "reserved": "",
      "salt": "0x3bc28f34821c01d67fb3485b4c1385f863965acc8eea177bdc48e76b7721620a",
      "assetIds": []
    },
    {
      "x": 13,
      "y": 290,
      "size": 1,
      "price": "1011000000000000000000",
      "reserved": "",
      "salt": "0x472f502e33f8127babe4a0d89f2e047ee038c19a3a584225bb856da10d6c9783",
      "assetIds": []
    },
    {
      "x": 13,
      "y": 297,
      "size": 1,
      "price": "1011000000000000000000",
      "reserved": "0x7a9fe22691c811ea339d9b73150e6911a5343dca",
      "salt": "0x0be90a0ffedd1714f9b05ea91096faf709e98eb023b1b93894821e549059ff66",
      "assetIds": []
    },
    {
      "x": 13,
      "y": 298,
      "size": 1,
      "price": "1011000000000000000000",
      "reserved": "",
      "salt": "0x30c925159e98e33cbfc7cb947f104e2932da077b3a7877f6c49e1fc64e333443",
      "assetIds": []
    },
    {
      "x": 13,
      "y": 299,
      "size": 1,
      "price": "1011000000000000000000",
      "reserved": "",
      "salt": "0xe960257b075ff2963b28ba518acc0fffc5b809d7e5b70d3ba003d2f7c886f32b",
      "assetIds": []
    },
    {
      "x": 13,
      "y": 303,
      "size": 1,
      "price": "1011000000000000000000",
      "reserved": "",
      "salt": "0x154fd510ccc9e31ac5d97ff72ee30a3d6d4a0297b21d06ba6ce4fbc041f9bee3",
      "assetIds": []
    },
    {
      "x": 13,
      "y": 304,
      "size": 1,
      "price": "1011000000000000000000",
      "reserved": "0x7a9fe22691c811ea339d9b73150e6911a5343dca",
      "salt": "0x314ed0f881e8264188f8cadd0d06251aee8082fbe33c71fd50948341c8eb8165",
      "assetIds": []
    },
    {
      "x": 13,
      "y": 305,
      "size": 1,
      "price": "1011000000000000000000",
      "reserved": "",
      "salt": "0xc759dfb63969a73ec4bb083261ce1d3d6be484e846aeed09af4643f2123f7f69",
      "assetIds": []
    },
    {
      "x": 13,
      "y": 309,
      "size": 1,
      "price": "1011000000000000000000",
      "reserved": "",
      "salt": "0x5a73b51a891f59e7bb32aacb94a205ae88f1d51873cfde447f47b602f4444189",
      "assetIds": []
    },
    {
      "x": 13,
      "y": 310,
      "size": 1,
      "price": "1011000000000000000000",
      "reserved": "",
      "salt": "0x0b40fee108b95c436682d222ca774eb26d50ee9564e2dd338bfcb56bee96bc94",
      "assetIds": []
    },
    {
      "x": 13,
      "y": 311,
      "size": 1,
      "price": "1011000000000000000000",
      "reserved": "",
      "salt": "0x8501d065aae098d02cf577c1004b9c6975e818a2cd6d8cb673d2a9ac0ac311ff",
      "assetIds": []
    },
    {
      "x": 13,
      "y": 312,
      "size": 1,
      "price": "1011000000000000000000",
      "reserved": "",
      "salt": "0xd1d8f9bd599f9fab1e6e1faccc6c29dd93b52de309161c0396733838b29dd76e",
      "assetIds": []
    },
    {
      "x": 13,
      "y": 313,
      "size": 1,
      "price": "1011000000000000000000",
      "reserved": "",
      "salt": "0x3ecaa0bbb0899ec8efa17248dfacea37622cf22c8b1682485a7efc3462e574a9",
      "assetIds": []
    },
    {
      "x": 13,
      "y": 314,
      "size": 1,
      "price": "1011000000000000000000",
      "reserved": "",
      "salt": "0x240ec0cf9646a2ccaae6c7b31603dcabf5c8d1792bdbe997df8b629a9715b227",
      "assetIds": []
    },
    {
      "x": 14,
      "y": 288,
      "size": 1,
      "price": "1011000000000000000000",
      "reserved": "",
      "salt": "0xd18adba873df0a0a7d36535d64b4438bfba511431643233b145922509c78b9e8",
      "assetIds": []
    },
    {
      "x": 14,
      "y": 289,
      "size": 1,
      "price": "1011000000000000000000",
      "reserved": "",
      "salt": "0xabf7de691ab1bd46b1987ef672fd1d72ad4b6b0635c1dc373fc0a32bf4ba61ba",
      "assetIds": []
    },
    {
      "x": 14,
      "y": 290,
      "size": 1,
      "price": "1011000000000000000000",
      "reserved": "",
      "salt": "0x2f8c74c4f1edd05abe5558b08639b7a76139acdd9e7b8b9df4748101f44f000a",
      "assetIds": []
    },
    {
      "x": 14,
      "y": 297,
      "size": 1,
      "price": "4683000000000000000000",
      "reserved": "",
      "salt": "0x442baa2238096bc5baabd21545d6e7bf681f6e67f695f396bcbe4961594cc151",
      "assetIds": []
    },
    {
      "x": 14,
      "y": 298,
      "size": 1,
      "price": "1011000000000000000000",
      "reserved": "",
      "salt": "0xdef8e0614a9222989e5141e65d95b0e265daa9e5b163b2c0f8c8b58a806149c2",
      "assetIds": []
    },
    {
      "x": 14,
      "y": 299,
      "size": 1,
      "price": "1011000000000000000000",
      "reserved": "",
      "salt": "0x93a025854405c4eaead4ffc76fd8fc7cf6144b58792d3c744bcb4b8a52df4c72",
      "assetIds": []
    },
    {
      "x": 14,
      "y": 303,
      "size": 1,
      "price": "1011000000000000000000",
      "reserved": "",
      "salt": "0xf28e04eef558f3c7fd81512188039c6d8a4f16383355a51a620970194ece5b0b",
      "assetIds": []
    },
    {
      "x": 14,
      "y": 304,
      "size": 1,
      "price": "1011000000000000000000",
      "reserved": "",
      "salt": "0x5413b80f2f3e7d3ba3552e8fa870b7e6e6b8b962dbb7711d9eb2abceed8b3b84",
      "assetIds": []
    },
    {
      "x": 14,
      "y": 305,
      "size": 1,
      "price": "1011000000000000000000",
      "reserved": "",
      "salt": "0x427950db408f13ec20aad36de6ac461a91ac2c51081679a30001daa991ba92be",
      "assetIds": []
    },
    {
      "x": 14,
      "y": 309,
      "size": 1,
      "price": "1011000000000000000000",
      "reserved": "",
      "salt": "0xb59d5c77da98ab7fe6cdd871633d7bf039eb57cf4300da7e04bba76f179a1945",
      "assetIds": []
    },
    {
      "x": 14,
      "y": 310,
      "size": 1,
      "price": "1011000000000000000000",
      "reserved": "",
      "salt": "0x28f049c78f289c9321130cb86e2be66dab8c8b9d7151d242c0fdfbf5ace72d20",
      "assetIds": []
    },
    {
      "x": 14,
      "y": 311,
      "size": 1,
      "price": "1011000000000000000000",
      "reserved": "",
      "salt": "0x97b0683124fb4e518e56acd39781cad40c708558c260b2f71701a7612743e8c5",
      "assetIds": []
    },
    {
      "x": 14,
      "y": 312,
      "size": 1,
      "price": "1011000000000000000000",
      "reserved": "",
      "salt": "0xb8a011d15b4ac8979144857593c0fae7e813700b9db16c4079a66e4091627ba3",
      "assetIds": []
    },
    {
      "x": 14,
      "y": 313,
      "size": 1,
      "price": "1011000000000000000000",
      "reserved": "",
      "salt": "0x50b8fd12c65482afb6c752382eedb417ebfe706fee1606a3e3e7c675a5840b0b",
      "assetIds": []
    },
    {
      "x": 14,
      "y": 314,
      "size": 1,
      "price": "1011000000000000000000",
      "reserved": "",
      "salt": "0xfb256da378dc5d41ba1a4210d693ef74d28b45196ee49dd48bb31ba8443bcb21",
      "assetIds": []
    },
    {
      "x": 15,
      "y": 288,
      "size": 1,
      "price": "1011000000000000000000",
      "reserved": "",
      "salt": "0x4b6daa8a4ae487cd0b1a2ef7800b682cdb79cf9d6a5342edec8d232c67cf583a",
      "assetIds": []
    },
    {
      "x": 15,
      "y": 289,
      "size": 1,
      "price": "1011000000000000000000",
      "reserved": "",
      "salt": "0x8e9a35b9a543837d6681f330507bb65c23e67c48c371eaef0304c1d45157cd1e",
      "assetIds": []
    },
    {
      "x": 15,
      "y": 290,
      "size": 1,
      "price": "1011000000000000000000",
      "reserved": "",
      "salt": "0x1392b80b45769db7a63963111878ed2a3b03b834a70f11b431eab47fcae8fe2c",
      "assetIds": []
    },
    {
      "x": 15,
      "y": 291,
      "size": 1,
      "price": "1011000000000000000000",
      "reserved": "",
      "salt": "0xae553d711dd73cc9d56ef3693cab776d0e4c9f738bf3b3309c37de826520d4fd",
      "assetIds": []
    },
    {
      "x": 15,
      "y": 292,
      "size": 1,
      "price": "1011000000000000000000",
      "reserved": "",
      "salt": "0x15931fe2ff6595693a42bf6cc08170af7504716ee29861e1e454c6bfa992542e",
      "assetIds": []
    },
    {
      "x": 15,
      "y": 293,
      "size": 1,
      "price": "1011000000000000000000",
      "reserved": "",
      "salt": "0xc6b060eb46683b04eb28d9638b3cee213b5f00f0a3cd524e526a19f029ba1314",
      "assetIds": []
    },
    {
      "x": 15,
      "y": 294,
      "size": 1,
      "price": "4683000000000000000000",
      "reserved": "",
      "salt": "0x852756f4bfe6cf3a62939f8c884005375945f914ba73557d5b0552f3611fe0a4",
      "assetIds": []
    },
    {
      "x": 15,
      "y": 295,
      "size": 1,
      "price": "1011000000000000000000",
      "reserved": "",
      "salt": "0xbd485439ebaf1d3423131ce00d9aaf1e279e9b167118d57127056dd13cc0c885",
      "assetIds": []
    },
    {
      "x": 15,
      "y": 296,
      "size": 1,
      "price": "4683000000000000000000",
      "reserved": "",
      "salt": "0x702a160c96834754cd952c838730caf6f554328a0a85fa6ac2ab48bc6df896e5",
      "assetIds": []
    },
    {
      "x": 15,
      "y": 297,
      "size": 1,
      "price": "1011000000000000000000",
      "reserved": "",
      "salt": "0xd80fdd8b9817f8d7a2e8d8115f35ebf3d4ca3e9d7553c1ed5dbc096552b46a8a",
      "assetIds": []
    },
    {
      "x": 15,
      "y": 298,
      "size": 1,
      "price": "1011000000000000000000",
      "reserved": "",
      "salt": "0xe42e72ce5f9592f1c7827a94e4ce31b18613a36709039859252bc2582e4cc02b",
      "assetIds": []
    },
    {
      "x": 15,
      "y": 299,
      "size": 1,
      "price": "1011000000000000000000",
      "reserved": "",
      "salt": "0x9d79a4dba98f31abcfff23a1f8bd3677f4b0fe35da54876cafc684c82b89b973",
      "assetIds": []
    },
    {
      "x": 15,
      "y": 300,
      "size": 1,
      "price": "1011000000000000000000",
      "reserved": "",
      "salt": "0x0652f108502ee9f81a9624166cacd7eb6eec1d2bb3a120e1c3fc734b234e3d1e",
      "assetIds": []
    },
    {
      "x": 15,
      "y": 301,
      "size": 1,
      "price": "1011000000000000000000",
      "reserved": "",
      "salt": "0xca1dbe6c7f1e15cafcc31ab78f054d277eb29cb362f4f846c58232cd7e5ca621",
      "assetIds": []
    },
    {
      "x": 15,
      "y": 302,
      "size": 1,
      "price": "1011000000000000000000",
      "reserved": "",
      "salt": "0xea3126ea713e263470cf33f9c1aa6094de040cd0d8a7becccbb37b105da92253",
      "assetIds": []
    },
    {
      "x": 15,
      "y": 303,
      "size": 1,
      "price": "1011000000000000000000",
      "reserved": "",
      "salt": "0x87e037e7ca94c386c8000080b817dd7bf9ec5d79401ee37af8a06d70fb27cf9c",
      "assetIds": []
    },
    {
      "x": 15,
      "y": 304,
      "size": 1,
      "price": "1011000000000000000000",
      "reserved": "",
      "salt": "0x204424ab6ca0e121671029aee3af36be2af283e7a402da766847b770457dc51b",
      "assetIds": []
    },
    {
      "x": 15,
      "y": 305,
      "size": 1,
      "price": "1011000000000000000000",
      "reserved": "",
      "salt": "0xca267bb1c0c3ac65b6a235b350d8e0f7a69c10d73f3c05ecb41c5ca343c0c93e",
      "assetIds": []
    },
    {
      "x": 15,
      "y": 306,
      "size": 1,
      "price": "4683000000000000000000",
      "reserved": "",
      "salt": "0xdc89a59198de90214991d0e6ea3e4c6b5add94a588abba48cd6b6a25911f944e",
      "assetIds": []
    },
    {
      "x": 15,
      "y": 307,
      "size": 1,
      "price": "1011000000000000000000",
      "reserved": "",
      "salt": "0x1863f4046ac773ef73aa957fff0c1de8ba653e418605501a8c2f61eb58b54122",
      "assetIds": []
    },
    {
      "x": 15,
      "y": 308,
      "size": 1,
      "price": "1011000000000000000000",
      "reserved": "",
      "salt": "0xaa8aec659866e8a6859458c595925c67b95d4827334d314a32299327b11105c5",
      "assetIds": []
    },
    {
      "x": 15,
      "y": 312,
      "size": 1,
      "price": "1011000000000000000000",
      "reserved": "",
      "salt": "0xbce9e680257e82126fd6f02d806e7eb11834fd7300c951580294a324c2760e50",
      "assetIds": []
    },
    {
      "x": 15,
      "y": 313,
      "size": 1,
      "price": "1011000000000000000000",
      "reserved": "",
      "salt": "0x019e9b0df9989f84f0e70bdd635e50ef56161b27015430d14ac4fd9f38d943e4",
      "assetIds": []
    },
    {
      "x": 15,
      "y": 314,
      "size": 1,
      "price": "1011000000000000000000",
      "reserved": "",
      "salt": "0x5503142637a1c8e7b45c51000c788bea84654eb2434e9b5c7e18eb60e99675b1",
      "assetIds": []
    },
    {
      "x": 16,
      "y": 288,
      "size": 1,
      "price": "1011000000000000000000",
      "reserved": "",
      "salt": "0x1c19b1600e253ee9b7753ee4fe7552f9fc6b609b6a643c93b6153d08e9ec40ff",
      "assetIds": []
    },
    {
      "x": 16,
      "y": 289,
      "size": 1,
      "price": "1011000000000000000000",
      "reserved": "0x7a9fe22691c811ea339d9b73150e6911a5343dca",
      "salt": "0x1cf174082c3f8d6df06d52b5be42508352c77fb63abba4ea3c607658748090a4",
      "assetIds": []
    },
    {
      "x": 16,
      "y": 290,
      "size": 1,
      "price": "1011000000000000000000",
      "reserved": "",
      "salt": "0x3ac103bb04e996af28d240b90be3b12c635981c1e1ef2a4558d5ebfc78efdd0e",
      "assetIds": []
    },
    {
      "x": 16,
      "y": 291,
      "size": 1,
      "price": "1011000000000000000000",
      "reserved": "",
      "salt": "0xfe0d3cfcf1370a11249af30edd737f199918c9079684535b9ea72428c703f7b7",
      "assetIds": []
    },
    {
      "x": 16,
      "y": 292,
      "size": 1,
      "price": "1011000000000000000000",
      "reserved": "",
      "salt": "0x5b305c971e9a00a297de31470c5662f51dca3ea7ae038bb7f73fcbcfea22e9be",
      "assetIds": []
    },
    {
      "x": 16,
      "y": 293,
      "size": 1,
      "price": "1011000000000000000000",
      "reserved": "",
      "salt": "0x49933150c8e05a109eece6364f3480850a4b511f78f289f89e591f4ad065f283",
      "assetIds": []
    },
    {
      "x": 16,
      "y": 294,
      "size": 1,
      "price": "1011000000000000000000",
      "reserved": "",
      "salt": "0x2635d0b41c3c47605a931b2a57aee248e73aac0087b78c360464127776207100",
      "assetIds": []
    },
    {
      "x": 16,
      "y": 295,
      "size": 1,
      "price": "1011000000000000000000",
      "reserved": "",
      "salt": "0xc51b26554761a1c8ab224992b98f36859a76014777dd58900b2e4970af1f5d5f",
      "assetIds": []
    },
    {
      "x": 16,
      "y": 296,
      "size": 1,
      "price": "1011000000000000000000",
      "reserved": "",
      "salt": "0xcc64c1cf7872b012089277acf33dd3e0981f6d9a37b1246b1f764fdd2734cb65",
      "assetIds": []
    },
    {
      "x": 16,
      "y": 297,
      "size": 1,
      "price": "1011000000000000000000",
      "reserved": "",
      "salt": "0xc31b1d2db4ccdc7e652e5ff0604f783c05aa619e3e88ad0cadf1f2240ae3eae5",
      "assetIds": []
    },
    {
      "x": 16,
      "y": 298,
      "size": 1,
      "price": "1011000000000000000000",
      "reserved": "",
      "salt": "0x431174b6fe66118c09ea8c72554cc89f3226eed684722d7e3f1bd837218b1249",
      "assetIds": []
    },
    {
      "x": 16,
      "y": 299,
      "size": 1,
      "price": "1011000000000000000000",
      "reserved": "",
      "salt": "0x240ce9d8f6f6be6f5e992083ad5ebd354d1f714c0f92cbf4cd9bafde4aacd895",
      "assetIds": []
    },
    {
      "x": 16,
      "y": 300,
      "size": 1,
      "price": "1011000000000000000000",
      "reserved": "",
      "salt": "0xb6fb8b157fc63a270713aa5380517bdd7578adddcab29b846e3a75f0311bb4f4",
      "assetIds": []
    },
    {
      "x": 16,
      "y": 301,
      "size": 1,
      "price": "1011000000000000000000",
      "reserved": "",
      "salt": "0x657b93867a1f1eed7f9654ebdee8a07697823da7a64cc5755adec4d61c91bf96",
      "assetIds": []
    },
    {
      "x": 16,
      "y": 302,
      "size": 1,
      "price": "1011000000000000000000",
      "reserved": "",
      "salt": "0xd4977597b1e50e92b726a05b67bdd7845fb18a192bae131db6c2687993499997",
      "assetIds": []
    },
    {
      "x": 16,
      "y": 303,
      "size": 1,
      "price": "1011000000000000000000",
      "reserved": "",
      "salt": "0x217c28c4acb26bdeb5c7a8a7ef9dd4771524ff33777a0cf427d193eb053add50",
      "assetIds": []
    },
    {
      "x": 16,
      "y": 304,
      "size": 1,
      "price": "1011000000000000000000",
      "reserved": "",
      "salt": "0x8fb19240e36c54fa9d5a2f09cf78a506d4edd73fcdd55023848308b5914523c5",
      "assetIds": []
    },
    {
      "x": 16,
      "y": 305,
      "size": 1,
      "price": "4683000000000000000000",
      "reserved": "",
      "salt": "0xf9b6254692c8e17c5cfa221e11cc6f105727da637c48625925ba83cd5afb91df",
      "assetIds": []
    },
    {
      "x": 16,
      "y": 306,
      "size": 1,
      "price": "1011000000000000000000",
      "reserved": "0x7a9fe22691c811ea339d9b73150e6911a5343dca",
      "salt": "0x9609fbb0d42ab764a5dbce8d32420bf406ce761d5d63d99af618658832fea770",
      "assetIds": []
    },
    {
      "x": 16,
      "y": 307,
      "size": 1,
      "price": "4683000000000000000000",
      "reserved": "",
      "salt": "0x640457ff5d58f2af647bbda10642958ac5728b8467ba9293d1ffae11318a14de",
      "assetIds": []
    },
    {
      "x": 16,
      "y": 308,
      "size": 1,
      "price": "1011000000000000000000",
      "reserved": "",
      "salt": "0x6cbf177e5dd3978134e00b5e325c6c14d82773b01da1259875f2c015a03cd836",
      "assetIds": []
    },
    {
      "x": 16,
      "y": 312,
      "size": 1,
      "price": "1011000000000000000000",
      "reserved": "",
      "salt": "0x8318392ca1dbf5119642d2beb0572e19043d243811d34522bd69e2b3d2221bdd",
      "assetIds": []
    },
    {
      "x": 16,
      "y": 313,
      "size": 1,
      "price": "1011000000000000000000",
      "reserved": "",
      "salt": "0x389d1de8a1d9435f502e4a7fcb9b59424630d9f49ad4bac46a8888c080c95fc6",
      "assetIds": []
    },
    {
      "x": 16,
      "y": 314,
      "size": 1,
      "price": "1011000000000000000000",
      "reserved": "",
      "salt": "0x44bff8a2a24def0f62fc584665394dc768c9a3a9fc5c332186e607b4e11d1dae",
      "assetIds": []
    },
    {
      "x": 17,
      "y": 288,
      "size": 1,
      "price": "1011000000000000000000",
      "reserved": "",
      "salt": "0xc0c2aec4fab96a4825c24f1bbd7d339cdc1ef8e92ea20a9b61b79139edd7bf3c",
      "assetIds": []
    },
    {
      "x": 17,
      "y": 289,
      "size": 1,
      "price": "1011000000000000000000",
      "reserved": "",
      "salt": "0x2e69042188f66eace77e247fd4a36f3961d6e88eaea281326c0211107a77be22",
      "assetIds": []
    },
    {
      "x": 17,
      "y": 290,
      "size": 1,
      "price": "1011000000000000000000",
      "reserved": "",
      "salt": "0x9d893c0e18a3b77c3cf3ba58e0b13b23ee581cb3bfca0f690eb1e7e5792db600",
      "assetIds": []
    },
    {
      "x": 17,
      "y": 291,
      "size": 1,
      "price": "1011000000000000000000",
      "reserved": "",
      "salt": "0x39967a0af9ad973e6a23174581e06daff4f2e9b13b2bc27bbee971f6395b5a70",
      "assetIds": []
    },
    {
      "x": 17,
      "y": 292,
      "size": 1,
      "price": "1011000000000000000000",
      "reserved": "0x7a9fe22691c811ea339d9b73150e6911a5343dca",
      "salt": "0xcde323ef336240936f762024ad716177fddb1a7206bacace3b84defa42b94b77",
      "assetIds": []
    },
    {
      "x": 17,
      "y": 293,
      "size": 1,
      "price": "1011000000000000000000",
      "reserved": "",
      "salt": "0x50863546e2fb570a7710c345cc2fd17e4c3f90769ee3eaebce947c4355126f11",
      "assetIds": []
    },
    {
      "x": 17,
      "y": 294,
      "size": 1,
      "price": "1011000000000000000000",
      "reserved": "",
      "salt": "0xf643c0e6fc350b74b7f86340a62037720d436dc09064aed44d75fe7008d7d60c",
      "assetIds": []
    },
    {
      "x": 17,
      "y": 295,
      "size": 1,
      "price": "1011000000000000000000",
      "reserved": "0x7a9fe22691c811ea339d9b73150e6911a5343dca",
      "salt": "0x0cdd0df0b89ef5515ff3d8d50cee6d8b33435511e08143270d604646fb24d574",
      "assetIds": []
    },
    {
      "x": 17,
      "y": 296,
      "size": 1,
      "price": "1011000000000000000000",
      "reserved": "",
      "salt": "0x13469a865edc78a40056995b9649016769714143a826e21e3ec99ad1cc9c480b",
      "assetIds": []
    },
    {
      "x": 17,
      "y": 297,
      "size": 1,
      "price": "1011000000000000000000",
      "reserved": "",
      "salt": "0x6cb0cd14e1128825510036d9310a9887a4bc2cee160f58bebd266ab46fdcc5da",
      "assetIds": []
    },
    {
      "x": 17,
      "y": 298,
      "size": 1,
      "price": "1011000000000000000000",
      "reserved": "",
      "salt": "0xdf05fd8e21aac190edc7d059768d2f3a5ff60080880c0768095c043e8e59e529",
      "assetIds": []
    },
    {
      "x": 17,
      "y": 299,
      "size": 1,
      "price": "1011000000000000000000",
      "reserved": "0x7a9fe22691c811ea339d9b73150e6911a5343dca",
      "salt": "0x90b1cfe46925f54cf455a36ca4c436d15050a541b0fcff432e8647f6e18012b6",
      "assetIds": []
    },
    {
      "x": 17,
      "y": 300,
      "size": 1,
      "price": "1011000000000000000000",
      "reserved": "",
      "salt": "0xa363f2b083e2dd3904286043edfa2752ef9e5cfa50bcffdcd59f95796afcfe3f",
      "assetIds": []
    },
    {
      "x": 17,
      "y": 301,
      "size": 1,
      "price": "1011000000000000000000",
      "reserved": "",
      "salt": "0x45301f50f09976c17905f4b8ecb2aa6a3a604824f57634fbec2caef7ed166072",
      "assetIds": []
    },
    {
      "x": 17,
      "y": 302,
      "size": 1,
      "price": "1011000000000000000000",
      "reserved": "",
      "salt": "0x6bb89d1ee81156aaa841a59417b86cb8f102ef18e54c34f29dd160ba2d668357",
      "assetIds": []
    },
    {
      "x": 17,
      "y": 303,
      "size": 1,
      "price": "1011000000000000000000",
      "reserved": "",
      "salt": "0xe508ead5e11471ed1340d04cf453a372a670d02a3c8b60333d1d3e1974a1977c",
      "assetIds": []
    },
    {
      "x": 17,
      "y": 304,
      "size": 1,
      "price": "4683000000000000000000",
      "reserved": "",
      "salt": "0x4e280657f255492461075d6fd65386ce4024ed4d6e75ddf186ddaa929ee3014c",
      "assetIds": []
    },
    {
      "x": 17,
      "y": 305,
      "size": 1,
      "price": "1011000000000000000000",
      "reserved": "",
      "salt": "0xabd97d44975c046564fc219fdf5de31125665b2dab12e5455f7697a179209a75",
      "assetIds": []
    },
    {
      "x": 17,
      "y": 306,
      "size": 1,
      "price": "1011000000000000000000",
      "reserved": "",
      "salt": "0x6901112f4ca53fd33c3b8415dfbfce8ae7d0247df04d1b9d8b53eb01e6bf1a28",
      "assetIds": []
    },
    {
      "x": 17,
      "y": 307,
      "size": 1,
      "price": "1011000000000000000000",
      "reserved": "",
      "salt": "0x41fe327674e77dbd1011fe6e776f6e1c60a0a32b510e84accd249f8733026c65",
      "assetIds": []
    },
    {
      "x": 17,
      "y": 308,
      "size": 1,
      "price": "1011000000000000000000",
      "reserved": "",
      "salt": "0x1effecedb7e37f5d8fb06e7b5b32fb4432e128d67cbc74feff5d2c1bf84b14ba",
      "assetIds": []
    },
    {
      "x": 17,
      "y": 312,
      "size": 1,
      "price": "1011000000000000000000",
      "reserved": "",
      "salt": "0x8498f09dab49ce588ad528d9677bcde2413252af6683b080c8e1883d9cebb2ce",
      "assetIds": []
    },
    {
      "x": 17,
      "y": 313,
      "size": 1,
      "price": "1011000000000000000000",
      "reserved": "",
      "salt": "0xc868b8996350b455a2bafb177d8def3b1e3069093cfde2462b5b9009f7b03b81",
      "assetIds": []
    },
    {
      "x": 17,
      "y": 314,
      "size": 1,
      "price": "1011000000000000000000",
      "reserved": "",
      "salt": "0x89c0caf0684c66aa5c68fc6c20f2d459dab25ac8c43721bf59f819154e63f7ae",
      "assetIds": []
    },
    {
      "x": 18,
      "y": 300,
      "size": 1,
      "price": "1011000000000000000000",
      "reserved": "",
      "salt": "0xed93b3df7ed2dc144189d7e3994533bc11212060d730e8a481e6e36702a1299d",
      "assetIds": []
    },
    {
      "x": 18,
      "y": 301,
      "size": 1,
      "price": "1011000000000000000000",
      "reserved": "",
      "salt": "0x2f2cf9ba496afbe341feb960260da965fff224f55797ba8d556199e8cc87836e",
      "assetIds": []
    },
    {
      "x": 18,
      "y": 302,
      "size": 1,
      "price": "1011000000000000000000",
      "reserved": "",
      "salt": "0x7d4df0fcd1b9cd21c2ef589cd7aa1353fd2a76ac2b3718ef1cd8539425083806",
      "assetIds": []
    },
    {
      "x": 18,
      "y": 306,
      "size": 1,
      "price": "4683000000000000000000",
      "reserved": "",
      "salt": "0x2e9e179de2adfac654411522cf541700d0b38755f6f95d1a748bfed720c865c4",
      "assetIds": []
    },
    {
      "x": 18,
      "y": 307,
      "size": 1,
      "price": "1011000000000000000000",
      "reserved": "",
      "salt": "0x993d6e70370e1cf39c21f36b685541207fbb04f966f6ce1533bfd6bf71ce42bc",
      "assetIds": []
    },
    {
      "x": 18,
      "y": 308,
      "size": 1,
      "price": "1011000000000000000000",
      "reserved": "",
      "salt": "0xf47580c0fe2b28407dcd2ea2c22aab8217ae8697659767e19ebb1639af4b2be3",
      "assetIds": []
    },
    {
      "x": 18,
      "y": 309,
      "size": 1,
      "price": "1011000000000000000000",
      "reserved": "",
      "salt": "0x005c5c7772ee872453907ca30d7d20f45c1c4543505ebd67c529f637c753e341",
      "assetIds": []
    },
    {
      "x": 18,
      "y": 310,
      "size": 1,
      "price": "1011000000000000000000",
      "reserved": "",
      "salt": "0x81be633e8b7a81e4b2b18197be719070b09ebb2d85784f1cf3a70a8a90b06420",
      "assetIds": []
    },
    {
      "x": 18,
      "y": 311,
      "size": 1,
      "price": "1011000000000000000000",
      "reserved": "",
      "salt": "0x5d53e4a2aedb708c5abad05a0770db8fa733da04aa70a790b6138c2011d6d72c",
      "assetIds": []
    },
    {
      "x": 18,
      "y": 312,
      "size": 1,
      "price": "1011000000000000000000",
      "reserved": "",
      "salt": "0x12775207f8fd023cdf5e63ffd9e8b50472267d028669fc2dfdd0646c11bd4985",
      "assetIds": []
    },
    {
      "x": 18,
      "y": 313,
      "size": 1,
      "price": "1011000000000000000000",
      "reserved": "",
      "salt": "0x0493140a5700b0e1d2b430a0db237a572434b8b345ad0343433d324aa79456f2",
      "assetIds": []
    },
    {
      "x": 18,
      "y": 314,
      "size": 1,
      "price": "1011000000000000000000",
      "reserved": "",
      "salt": "0x8d40ecc603f55aacb3086eeef1b6d158421b3ced7c562cb94805fcb641eafe4c",
      "assetIds": []
    },
    {
      "x": 19,
      "y": 300,
      "size": 1,
      "price": "1011000000000000000000",
      "reserved": "",
      "salt": "0x9b6930c302922b897b472fface41e7550dbf0cef3118f322d61370ba8d1650d6",
      "assetIds": []
    },
    {
      "x": 19,
      "y": 301,
      "size": 1,
      "price": "1011000000000000000000",
      "reserved": "",
      "salt": "0x5ceea04b0592bd568bd6996eeef0c10338bcd9b8b586bdaf414afdeb229fa137",
      "assetIds": []
    },
    {
      "x": 19,
      "y": 302,
      "size": 1,
      "price": "1011000000000000000000",
      "reserved": "",
      "salt": "0x4e9f6ebe290abbcebc86b03476e54dea3c62337407d0a9b8406f101362e5602b",
      "assetIds": []
    },
    {
      "x": 19,
      "y": 306,
      "size": 1,
      "price": "4683000000000000000000",
      "reserved": "",
      "salt": "0xc32481c11a05080866df3dee25203878f24feaf74930fa1cdf2950ab3710974e",
      "assetIds": []
    },
    {
      "x": 19,
      "y": 307,
      "size": 1,
      "price": "1011000000000000000000",
      "reserved": "",
      "salt": "0xd2c4280331ee8e38800bae59686f7f7da3788cafa6e7f9cf459ab8e02672e755",
      "assetIds": []
    },
    {
      "x": 19,
      "y": 308,
      "size": 1,
      "price": "1011000000000000000000",
      "reserved": "",
      "salt": "0x4f0c6b7fd8130441648a06e35e1eb21127bc2d931316113ccdecc576380b0e9f",
      "assetIds": []
    },
    {
      "x": 19,
      "y": 309,
      "size": 1,
      "price": "1011000000000000000000",
      "reserved": "",
      "salt": "0xc6b0352158887ed5236cfa63756f5220d9724a4e0410a59b3e7c6d873867bcf3",
      "assetIds": []
    },
    {
      "x": 19,
      "y": 310,
      "size": 1,
      "price": "1011000000000000000000",
      "reserved": "",
      "salt": "0xdbbc0af00c203b3e4396887f85e5beef27d283e88ef52526614266eb3226b5e4",
      "assetIds": []
    },
    {
      "x": 19,
      "y": 311,
      "size": 1,
      "price": "1011000000000000000000",
      "reserved": "",
      "salt": "0x454c47c963abd972734c22287c850489d3719fc67602be7620a107c39f35abde",
      "assetIds": []
    },
    {
      "x": 19,
      "y": 312,
      "size": 1,
      "price": "1011000000000000000000",
      "reserved": "",
      "salt": "0x3038d44520922f27344b75849496db94216c09a7c6b4dc28a9778bf6ca5b8d98",
      "assetIds": []
    },
    {
      "x": 19,
      "y": 313,
      "size": 1,
      "price": "1011000000000000000000",
      "reserved": "0x7a9fe22691c811ea339d9b73150e6911a5343dca",
      "salt": "0x11bf60655ff0685c84fda9c10c15951c870c1c9459dc58fae7e34e60cca0edd1",
      "assetIds": []
    },
    {
      "x": 19,
      "y": 314,
      "size": 1,
      "price": "1011000000000000000000",
      "reserved": "",
      "salt": "0xed01727ed2a9c393c41f4f9104fdcc4624223b18babd5828bef2609d89bea91e",
      "assetIds": []
    },
    {
      "x": 20,
      "y": 300,
      "size": 1,
      "price": "1011000000000000000000",
      "reserved": "",
      "salt": "0xe21359625ce9bddd73fc3e2d9ceee2bd4859acb85d056310dc0fb5c86cf5b465",
      "assetIds": []
    },
    {
      "x": 20,
      "y": 301,
      "size": 1,
      "price": "1011000000000000000000",
      "reserved": "",
      "salt": "0x452253e2ce9ef866a04ed14222bcc4b38564abefd2a9c725c49d6af2c1fd46b6",
      "assetIds": []
    },
    {
      "x": 20,
      "y": 302,
      "size": 1,
      "price": "1011000000000000000000",
      "reserved": "",
      "salt": "0x83b5bb3170cdc62309e096f711c11d954a898d5b3440e4927bf25548984a7561",
      "assetIds": []
    },
    {
      "x": 20,
      "y": 306,
      "size": 1,
      "price": "4683000000000000000000",
      "reserved": "",
      "salt": "0xa9fc7e2b25214aa9aa6da55907905f9c6e3eeef5b7da13b877cabf066218701f",
      "assetIds": []
    },
    {
      "x": 20,
      "y": 307,
      "size": 1,
      "price": "1011000000000000000000",
      "reserved": "0x7a9fe22691c811ea339d9b73150e6911a5343dca",
      "salt": "0x9a8fc5899e274e8d2f173b7fdd8a421a2b0fa9f48110b5aec449dd94885bf4ef",
      "assetIds": []
    },
    {
      "x": 20,
      "y": 308,
      "size": 1,
      "price": "1011000000000000000000",
      "reserved": "",
      "salt": "0xf546d980ef2f220e26959e901facde4dc183cd47042d86f0f239e2c14d705c3a",
      "assetIds": []
    },
    {
      "x": 20,
      "y": 309,
      "size": 1,
      "price": "4683000000000000000000",
      "reserved": "",
      "salt": "0xfab7f57e4c90ac115917aee50ec1455a5d14d602245221c3b318e028f5c0d3aa",
      "assetIds": []
    },
    {
      "x": 20,
      "y": 310,
      "size": 1,
      "price": "1011000000000000000000",
      "reserved": "",
      "salt": "0xbf74653280498dd8f83393c51bf2e7c6578f82a362f346a1cf9d111eb6fd9d5a",
      "assetIds": []
    },
    {
      "x": 20,
      "y": 311,
      "size": 1,
      "price": "4683000000000000000000",
      "reserved": "",
      "salt": "0xf4d48ccc04ee036116fe93b6c4ff06ba0570992baa0298f2fc6eb73fdab9f232",
      "assetIds": []
    },
    {
      "x": 20,
      "y": 312,
      "size": 1,
      "price": "1011000000000000000000",
      "reserved": "",
      "salt": "0xe1a4e91d99f3ef99e628f2f4fc5a95852e4c2fc8fa77a7aa82c59b7fcb310145",
      "assetIds": []
    },
    {
      "x": 20,
      "y": 313,
      "size": 1,
      "price": "1011000000000000000000",
      "reserved": "",
      "salt": "0xa5713e431776a9e5c8caf484ff62b448a03341ca2fb016197840cbb6a1bb808b",
      "assetIds": []
    },
    {
      "x": 20,
      "y": 314,
      "size": 1,
      "price": "1011000000000000000000",
      "reserved": "",
      "salt": "0x2db7035a79a69df04cf4f81fc66a889dc0684d42b17b04c3f21b63aa0d00c812",
      "assetIds": []
    },
    {
      "x": 21,
      "y": 300,
      "size": 1,
      "price": "1011000000000000000000",
      "reserved": "",
      "salt": "0x7feef4ee5bee25eb9f20184bd1c13c7d3f0db6ebe18018a4584e382a25a0275a",
      "assetIds": []
    },
    {
      "x": 21,
      "y": 301,
      "size": 1,
      "price": "1011000000000000000000",
      "reserved": "",
      "salt": "0x48c6fb0396ea6fa0031e469efdda391181ae37f5003281f701609afdbfc2a5a0",
      "assetIds": []
    },
    {
      "x": 21,
      "y": 302,
      "size": 1,
      "price": "1011000000000000000000",
      "reserved": "",
      "salt": "0x2a365c7c384376afe9b84193b867e92dad7354612370e8af99a99e440049de3d",
      "assetIds": []
    },
    {
      "x": 21,
      "y": 303,
      "size": 1,
      "price": "4683000000000000000000",
      "reserved": "",
      "salt": "0x5700bfde205f46dcc6bc402a82352a2a6da39ca5e0da5e444d649e79b1dd9ce2",
      "assetIds": []
    },
    {
      "x": 21,
      "y": 304,
      "size": 1,
      "price": "1011000000000000000000",
      "reserved": "",
      "salt": "0x86df98c4a6f900d7d95d2b407eccceb18a8e4554ffc5913148f07f2129f72f48",
      "assetIds": []
    },
    {
      "x": 21,
      "y": 305,
      "size": 1,
      "price": "4683000000000000000000",
      "reserved": "",
      "salt": "0xe54d08d4bf9151601c604b427795af67a77ea225063a4524993b767547a897e4",
      "assetIds": []
    },
    {
      "x": 21,
      "y": 306,
      "size": 1,
      "price": "1011000000000000000000",
      "reserved": "",
      "salt": "0x5d2270efc4b3be7bc6f0003f4606bf16901ec5e815b531960c236f3d61d5af8e",
      "assetIds": []
    },
    {
      "x": 21,
      "y": 307,
      "size": 1,
      "price": "1011000000000000000000",
      "reserved": "",
      "salt": "0x24fa42f806a12db2fb37c554f580f73060b0aafa97adf2b09bb9d65234cf8f49",
      "assetIds": []
    },
    {
      "x": 21,
      "y": 308,
      "size": 1,
      "price": "4683000000000000000000",
      "reserved": "",
      "salt": "0x0ef2a33bebc3dab7fafddbc02a6473123e1528d2e06aa3d9f9a5f2ca670cbc98",
      "assetIds": []
    },
    {
      "x": 22,
      "y": 300,
      "size": 1,
      "price": "1011000000000000000000",
      "reserved": "",
      "salt": "0x95d64868fb221fa8a10e7b0780d4e34e6b0359577ef904c50eb620efddb52dd1",
      "assetIds": []
    },
    {
      "x": 22,
      "y": 301,
      "size": 1,
      "price": "1011000000000000000000",
      "reserved": "",
      "salt": "0xd995b4062a47af143ae3955cdbff85151689d4f97c57c71b0ae3edde5fed2e99",
      "assetIds": []
    },
    {
      "x": 22,
      "y": 302,
      "size": 1,
      "price": "1011000000000000000000",
      "reserved": "",
      "salt": "0xff02b0fcf28d8235e607cf6d2091dace76c1b9581e82e69b93bb833a35704384",
      "assetIds": []
    },
    {
      "x": 22,
      "y": 303,
      "size": 1,
      "price": "1011000000000000000000",
      "reserved": "",
      "salt": "0xa7a5c6f0261e3b30a9fa38c01b482517b4d314fc90507ddc85d1b88eb6185afd",
      "assetIds": []
    },
    {
      "x": 22,
      "y": 304,
      "size": 1,
      "price": "1011000000000000000000",
      "reserved": "",
      "salt": "0x3f30d7bda5dcde9c62cc8627b09bc5d58784ee0be6b9844aaa2275e11ddbd647",
      "assetIds": []
    },
    {
      "x": 22,
      "y": 305,
      "size": 1,
      "price": "1011000000000000000000",
      "reserved": "",
      "salt": "0x73f3d0f4dd9f88756b11b96eb895b78be47be3b089d7dfeda6aafa56067a09a2",
      "assetIds": []
    },
    {
      "x": 22,
      "y": 306,
      "size": 1,
      "price": "1011000000000000000000",
      "reserved": "",
      "salt": "0x3049db4194a3e4293728957bf4a1935fee1d2d292800663314190c6f2ca0e4e1",
      "assetIds": []
    },
    {
      "x": 22,
      "y": 307,
      "size": 1,
      "price": "1011000000000000000000",
      "reserved": "",
      "salt": "0xbce6fc9e9280e83f14ae3d495a9a7fea3101d32e02cb616f9b93867acc330129",
      "assetIds": []
    },
    {
      "x": 22,
      "y": 308,
      "size": 1,
      "price": "4683000000000000000000",
      "reserved": "",
      "salt": "0xc98653c0cd9b797280180166e8bb531789e62309ddcb6ef6ac9b0917e4aea1ad",
      "assetIds": []
    },
    {
      "x": 23,
      "y": 300,
      "size": 1,
      "price": "1011000000000000000000",
      "reserved": "",
      "salt": "0x6b0649a5fb67ca47b8817614a0c8a6c0b735aebe7ed009d422a1febe362eca1f",
      "assetIds": []
    },
    {
      "x": 23,
      "y": 301,
      "size": 1,
      "price": "1011000000000000000000",
      "reserved": "",
      "salt": "0x9d34d3261a5f9e561453b567972d214c1c1a6a60b17aa00df7b83448ae410f33",
      "assetIds": []
    },
    {
      "x": 23,
      "y": 302,
      "size": 1,
      "price": "1011000000000000000000",
      "reserved": "",
      "salt": "0x1011098ced32677f36ddafd69b08abd91ed793ceda07b38952e80ee5333619b5",
      "assetIds": []
    },
    {
      "x": 23,
      "y": 303,
      "size": 1,
      "price": "1011000000000000000000",
      "reserved": "",
      "salt": "0x9d445059e6896dbb161cbc15fc15492060599b62c3ff82771e5dbf28e7bbe335",
      "assetIds": []
    },
    {
      "x": 23,
      "y": 304,
      "size": 1,
      "price": "1011000000000000000000",
      "reserved": "",
      "salt": "0xdad02fe02eb7f0c8b44a471a4e553d6447d902df84c54380ef60dac2599fdd2f",
      "assetIds": []
    },
    {
      "x": 23,
      "y": 305,
      "size": 1,
      "price": "1011000000000000000000",
      "reserved": "",
      "salt": "0x0a5b536f1e3057bf5d50a51120c5a668c7cb21f2893f2cfd79755a51e530dd1f",
      "assetIds": []
    },
    {
      "x": 23,
      "y": 306,
      "size": 1,
      "price": "1011000000000000000000",
      "reserved": "",
      "salt": "0xf3f13e4ad5f4a8b04abc259faf6269b7fdcdb58fe3ace580d6201c92a0451fb9",
      "assetIds": []
    },
    {
      "x": 23,
      "y": 307,
      "size": 1,
      "price": "1011000000000000000000",
      "reserved": "",
      "salt": "0xef7d1c9e41fc545bdd7a0cf86328ef690db7655c3f04ac10e15ea6572b202838",
      "assetIds": []
    },
    {
      "x": 23,
      "y": 308,
      "size": 1,
      "price": "4683000000000000000000",
      "reserved": "",
      "salt": "0x870dfa1eb740f7cc759eed51b9bf981d7a70e0e046bb11d81f7d4fb1d865fbe3",
      "assetIds": []
    },
    {
      "x": 24,
      "y": 288,
      "size": 1,
      "price": "1011000000000000000000",
      "reserved": "",
      "salt": "0xc5b0d9edb23149b9554a2f314a849b27a1b621a7bbb1c862928cb050658b0d0c",
      "assetIds": []
    },
    {
      "x": 24,
      "y": 289,
      "size": 1,
      "price": "1011000000000000000000",
      "reserved": "0x7a9fe22691c811ea339d9b73150e6911a5343dca",
      "salt": "0x6ae3f43bd0e83780889f76714956914c9a54fd68474e80dae6f80bab2305f213",
      "assetIds": []
    },
    {
      "x": 24,
      "y": 290,
      "size": 1,
      "price": "4683000000000000000000",
      "reserved": "",
      "salt": "0x1301b6d790255ebd064d7ad84789fd7e23b0f5b3446d1bb6585eb858688f585c",
      "assetIds": []
    },
    {
      "x": 24,
      "y": 294,
      "size": 1,
      "price": "1011000000000000000000",
      "reserved": "",
      "salt": "0xee7883ad60a25eada9d2ac0cb68652da1da42c2ce539779beee67c5b8fa58d52",
      "assetIds": []
    },
    {
      "x": 24,
      "y": 295,
      "size": 1,
      "price": "1011000000000000000000",
      "reserved": "",
      "salt": "0xac7837c4553660a8e0582ec2ef5fba329709846ccbdb4d9cdf427d8389f48143",
      "assetIds": []
    },
    {
      "x": 24,
      "y": 296,
      "size": 1,
      "price": "4683000000000000000000",
      "reserved": "",
      "salt": "0x1cd709b0fd2f541e80698663ace9a937bd1db991bb1fa884e4f1c1ca3dac5de3",
      "assetIds": []
    },
    {
      "x": 24,
      "y": 300,
      "size": 1,
      "price": "4683000000000000000000",
      "reserved": "",
      "salt": "0x5db35752fa14deb00545fb6026a616a3151740d592b3af7497fe95a6f3cd9ea5",
      "assetIds": []
    },
    {
      "x": 24,
      "y": 301,
      "size": 1,
      "price": "1011000000000000000000",
      "reserved": "",
      "salt": "0xbdede6ee5d1dcc0e0c34b2a101d0a4f895d377ca4b85184849878db130c7d3a6",
      "assetIds": []
    },
    {
      "x": 24,
      "y": 302,
      "size": 1,
      "price": "1011000000000000000000",
      "reserved": "",
      "salt": "0x722f832ee31509dc1c0fddb02fb82224e92fc0519b1a7322e3839a914e5a25dc",
      "assetIds": []
    },
    {
      "x": 24,
      "y": 312,
      "size": 1,
      "price": "1011000000000000000000",
      "reserved": "",
      "salt": "0xf12ccfde2df48952687170cad10b19de353acddb7ef73a09c6415b45a682b897",
      "assetIds": []
    },
    {
      "x": 24,
      "y": 313,
      "size": 1,
      "price": "1011000000000000000000",
      "reserved": "",
      "salt": "0x22e42dd0c1b6f565c3b2fd16336872aa8a2043f30cff521d40f6124d64b52cff",
      "assetIds": []
    },
    {
      "x": 24,
      "y": 314,
      "size": 1,
      "price": "1011000000000000000000",
      "reserved": "",
      "salt": "0x645f884b320f027d5ac3684858b4591af6cb4307f2b23dd3f589650fd3099ea5",
      "assetIds": []
    },
    {
      "x": 25,
      "y": 288,
      "size": 1,
      "price": "1011000000000000000000",
      "reserved": "",
      "salt": "0x076a6b6340729b17a0edde51e3c002380b4f09402b0fdc4d3b7a801b3d276498",
      "assetIds": []
    },
    {
      "x": 25,
      "y": 289,
      "size": 1,
      "price": "1011000000000000000000",
      "reserved": "",
      "salt": "0x66cdc6d79484d31773af5996cefd3c6e4becca7304faa82a16d910a188f23b8e",
      "assetIds": []
    },
    {
      "x": 25,
      "y": 290,
      "size": 1,
      "price": "4683000000000000000000",
      "reserved": "",
      "salt": "0xde525022eb0f8146aa4a8fda036b5fed84fc4896c88f4c738232f601d92bdfa3",
      "assetIds": []
    },
    {
      "x": 25,
      "y": 294,
      "size": 1,
      "price": "1011000000000000000000",
      "reserved": "0x7a9fe22691c811ea339d9b73150e6911a5343dca",
      "salt": "0x763c51c7fe1128ce4f3548bfbb0a1e1463822671fb92ba4e573c1d99a0b0e0b9",
      "assetIds": []
    },
    {
      "x": 25,
      "y": 295,
      "size": 1,
      "price": "1011000000000000000000",
      "reserved": "",
      "salt": "0xb5edc893bb79114444e01eb4d71bc834651f180234dc6d21802227806f071907",
      "assetIds": []
    },
    {
      "x": 25,
      "y": 296,
      "size": 1,
      "price": "1011000000000000000000",
      "reserved": "0x7a9fe22691c811ea339d9b73150e6911a5343dca",
      "salt": "0xec24edfa3f845117a82d980ee3aeaabd779505d6cc559ec952f85dfb692d46d2",
      "assetIds": []
    },
    {
      "x": 25,
      "y": 300,
      "size": 1,
      "price": "4683000000000000000000",
      "reserved": "",
      "salt": "0x1f8325b8ae03264b013ab8cb1479cd1926ff80cbe4a5e0f1394eb89d5fa22d9c",
      "assetIds": []
    },
    {
      "x": 25,
      "y": 301,
      "size": 1,
      "price": "1011000000000000000000",
      "reserved": "",
      "salt": "0xdbae87876f3f54ff7024dfce5717b1982db674191a76471875c7c3baa8d9e5c4",
      "assetIds": []
    },
    {
      "x": 25,
      "y": 302,
      "size": 1,
      "price": "1011000000000000000000",
      "reserved": "",
      "salt": "0x922e405deed01e3224add305d93310442f1ac4975adac4f0c6624976caeb6337",
      "assetIds": []
    },
    {
      "x": 25,
      "y": 312,
      "size": 1,
      "price": "1011000000000000000000",
      "reserved": "",
      "salt": "0xdb26ae20317e288b5754f9091181301aaf38f4e5f93fe2f4e0d0db8e4040fa9e",
      "assetIds": []
    },
    {
      "x": 25,
      "y": 313,
      "size": 1,
      "price": "1011000000000000000000",
      "reserved": "",
      "salt": "0xd977f28456bd276908d829ffe9f508af9dadedcc204b6934fe959d3f838e1759",
      "assetIds": []
    },
    {
      "x": 25,
      "y": 314,
      "size": 1,
      "price": "1011000000000000000000",
      "reserved": "",
      "salt": "0x8ca1be9646f456b5eb6bc6fd8355209c80e41dd4a6fcefdb883f2dd9ed897059",
      "assetIds": []
    },
    {
      "x": 26,
      "y": 288,
      "size": 1,
      "price": "1011000000000000000000",
      "reserved": "",
      "salt": "0x530b4e493fe2c3310115be7cc89a3291b8139de1aafbf138c43e5542fafc5ac8",
      "assetIds": []
    },
    {
      "x": 26,
      "y": 289,
      "size": 1,
      "price": "1011000000000000000000",
      "reserved": "",
      "salt": "0xf28e5274768e42c2bbc8efc40f8017e78c182407a78e1b8cdbd840818527a364",
      "assetIds": []
    },
    {
      "x": 26,
      "y": 290,
      "size": 1,
      "price": "4683000000000000000000",
      "reserved": "",
      "salt": "0x164255c574834d0b8356b24903393a13a7f095879c4c457aaa8c24da0fea7699",
      "assetIds": []
    },
    {
      "x": 26,
      "y": 294,
      "size": 1,
      "price": "1011000000000000000000",
      "reserved": "",
      "salt": "0x74230c612baf88f7cc5a4ec99984f2203dca45b79929b38eea3f01fe72bafeb1",
      "assetIds": []
    },
    {
      "x": 26,
      "y": 295,
      "size": 1,
      "price": "1011000000000000000000",
      "reserved": "",
      "salt": "0x5dfdfa6f9fdd150141cdfb71675c09c2514734e82e24a588062b347e792524ff",
      "assetIds": []
    },
    {
      "x": 26,
      "y": 296,
      "size": 1,
      "price": "4683000000000000000000",
      "reserved": "",
      "salt": "0xc4599522c2540c642bbfc92241d473ae1304fde29f05b04752cd7c183e910aa9",
      "assetIds": []
    },
    {
      "x": 26,
      "y": 300,
      "size": 1,
      "price": "4683000000000000000000",
      "reserved": "",
      "salt": "0xd53333cf4daa86447b4868f7490693790094b0438970a2a66204aaf7e7a4bb99",
      "assetIds": []
    },
    {
      "x": 26,
      "y": 301,
      "size": 1,
      "price": "1011000000000000000000",
      "reserved": "",
      "salt": "0x751658e875a3b3dde4a818021c2133e1f87184bd7f1cc1ce468c2c70847e3d04",
      "assetIds": []
    },
    {
      "x": 26,
      "y": 302,
      "size": 1,
      "price": "1011000000000000000000",
      "reserved": "",
      "salt": "0x8a0005902bb44206d9628f755f33aacb578fbc584ba3e62927e30dfd5d7d67fa",
      "assetIds": []
    },
    {
      "x": 26,
      "y": 312,
      "size": 1,
      "price": "1011000000000000000000",
      "reserved": "",
      "salt": "0xfd65ae756eac41dc004079870fbe0d180633b4e716cf26088e4a7fe2defd0ddc",
      "assetIds": []
    },
    {
      "x": 26,
      "y": 313,
      "size": 1,
      "price": "1011000000000000000000",
      "reserved": "",
      "salt": "0xb2ca64cf74dc9b38a9282dd2b5b070a7b370fa0a0872e9a10489c3efce87ee6d",
      "assetIds": []
    },
    {
      "x": 26,
      "y": 314,
      "size": 1,
      "price": "1011000000000000000000",
      "reserved": "",
      "salt": "0xee0532ec2d3cb31274a2b0a28f29a7241711346e31f61d36ee34b2c5a777c31b",
      "assetIds": []
    },
    {
      "x": 27,
      "y": 288,
      "size": 1,
      "price": "1011000000000000000000",
      "reserved": "",
      "salt": "0x83778f44e8324b07602e314990d947d7832f1ca7b82ce223419fa92d53cfe5c5",
      "assetIds": []
    },
    {
      "x": 27,
      "y": 289,
      "size": 1,
      "price": "1011000000000000000000",
      "reserved": "",
      "salt": "0xd2880c3ef0103e0dc48968c464739cbf4e19a5ffe8c553b3bb335b20f2296ba4",
      "assetIds": []
    },
    {
      "x": 27,
      "y": 290,
      "size": 1,
      "price": "1011000000000000000000",
      "reserved": "",
      "salt": "0xbfa18949630dae79f7b6df93fe118c3bf894c1d487db56562a58501f809c6e1a",
      "assetIds": []
    },
    {
      "x": 27,
      "y": 291,
      "size": 1,
      "price": "4683000000000000000000",
      "reserved": "",
      "salt": "0x95fd7e11513ec455c78477d91ccde58b3693b90010c9b1da549d877a0ae5b4cc",
      "assetIds": []
    },
    {
      "x": 27,
      "y": 292,
      "size": 1,
      "price": "1011000000000000000000",
      "reserved": "",
      "salt": "0xd511b8c4beee895f2878d8de8ce1c9996338c41ef80e7ccb7bbcf7c5096ad866",
      "assetIds": []
    },
    {
      "x": 27,
      "y": 293,
      "size": 1,
      "price": "4683000000000000000000",
      "reserved": "",
      "salt": "0xc52ab9f67d13d237567e85fe48aef3a7201fb2d6f1e25579af751e69431a29f9",
      "assetIds": []
    },
    {
      "x": 27,
      "y": 294,
      "size": 1,
      "price": "1011000000000000000000",
      "reserved": "",
      "salt": "0x003a3c2520727e7a21902e778e6b6e277a71cb5d9af0476c6b9e6987f91820ad",
      "assetIds": []
    },
    {
      "x": 27,
      "y": 295,
      "size": 1,
      "price": "1011000000000000000000",
      "reserved": "",
      "salt": "0x1700d2b886c6333b81cabe9d0f5c5377fbcb78bfc6705fe9407995435cb974a9",
      "assetIds": []
    },
    {
      "x": 27,
      "y": 296,
      "size": 1,
      "price": "1011000000000000000000",
      "reserved": "",
      "salt": "0x81ba1bccde3d83b9bde53a7b03fa2aa49399f00e040e3545d4b01b2ee4a75251",
      "assetIds": []
    },
    {
      "x": 27,
      "y": 297,
      "size": 1,
      "price": "4683000000000000000000",
      "reserved": "",
      "salt": "0xb9f2f1a52ccb8ceb10f4c8883fcd57df21a7a3a23c424c02ee07e43f8bedc3f5",
      "assetIds": []
    },
    {
      "x": 27,
      "y": 298,
      "size": 1,
      "price": "1011000000000000000000",
      "reserved": "",
      "salt": "0xada4c09707c480221dc65c6b3df1c0dfd758bc6ab963d91ec05a388fb2aec17e",
      "assetIds": []
    },
    {
      "x": 27,
      "y": 299,
      "size": 1,
      "price": "4683000000000000000000",
      "reserved": "",
      "salt": "0x8007f63f4d1c26d980d31761705d7e4c386c5c82ff308f849615064315860fc3",
      "assetIds": []
    },
    {
      "x": 27,
      "y": 303,
      "size": 1,
      "price": "1011000000000000000000",
      "reserved": "",
      "salt": "0x74303a348c488d070ecf3a9c5e3c951e84577310b602a12e66d4c5e8dde2447c",
      "assetIds": []
    },
    {
      "x": 27,
      "y": 304,
      "size": 1,
      "price": "1011000000000000000000",
      "reserved": "",
      "salt": "0x69c97a1693fb081cc63b0a0dc26947ae5c0b2b7b2526ecc80c186be7345e0973",
      "assetIds": []
    },
    {
      "x": 27,
      "y": 305,
      "size": 1,
      "price": "1011000000000000000000",
      "reserved": "",
      "salt": "0x8e9fd759dd8f170e0e6a7df5696ec69b703f179062ca88d486bb53b33caa80fe",
      "assetIds": []
    },
    {
      "x": 27,
      "y": 312,
      "size": 1,
      "price": "1011000000000000000000",
      "reserved": "",
      "salt": "0x16cee2cc472964c84945929d08ce17e9522b7f1bf98c418b1fc7fbbe969e424c",
      "assetIds": []
    },
    {
      "x": 27,
      "y": 313,
      "size": 1,
      "price": "1011000000000000000000",
      "reserved": "",
      "salt": "0x6828191a26e505ddd269d01fb90bc7bcd994375c458187afdffeb6cbbbd5fa3a",
      "assetIds": []
    },
    {
      "x": 27,
      "y": 314,
      "size": 1,
      "price": "1011000000000000000000",
      "reserved": "",
      "salt": "0x20190cbb7303ee6d46c6e605c01371b5fea1825d1e101128df42187bc7c72ca0",
      "assetIds": []
    },
    {
      "x": 28,
      "y": 288,
      "size": 1,
      "price": "1011000000000000000000",
      "reserved": "",
      "salt": "0x8ea28923d7c11963b1d55aade31c1e9bf9e257e6dea85e9730291fbd2c684532",
      "assetIds": []
    },
    {
      "x": 28,
      "y": 289,
      "size": 1,
      "price": "1011000000000000000000",
      "reserved": "",
      "salt": "0x1e9c023947aaa5610dad95dac1d1d01d2639a921fe2d1a27c85052d7599da8e6",
      "assetIds": []
    },
    {
      "x": 28,
      "y": 290,
      "size": 1,
      "price": "1011000000000000000000",
      "reserved": "",
      "salt": "0xd5be88f59ab73c0ab7abbb7251f32eca66c7884ab962bcfbef8cda4ca7685e15",
      "assetIds": []
    },
    {
      "x": 28,
      "y": 291,
      "size": 1,
      "price": "1011000000000000000000",
      "reserved": "",
      "salt": "0xd5ce61b7c23b44a6487d9bee45f26d39d6283cdadfc64e89ef59ba2debf5f643",
      "assetIds": []
    },
    {
      "x": 28,
      "y": 292,
      "size": 1,
      "price": "1011000000000000000000",
      "reserved": "",
      "salt": "0x1c629921ce567bc7dbcb6b4cfb3a678dcfbc1a58c5978288423df493e04550ed",
      "assetIds": []
    },
    {
      "x": 28,
      "y": 293,
      "size": 1,
      "price": "1011000000000000000000",
      "reserved": "",
      "salt": "0x6f5e80db5cf35b4efd67c1ad1e1d4dd77565d7432809fc9da88b4e60e3ce67ad",
      "assetIds": []
    },
    {
      "x": 28,
      "y": 294,
      "size": 1,
      "price": "1011000000000000000000",
      "reserved": "",
      "salt": "0xbf5e785d707428789ebde8118bab22b800a5912493009c730918077f80334db4",
      "assetIds": []
    },
    {
      "x": 28,
      "y": 295,
      "size": 1,
      "price": "1011000000000000000000",
      "reserved": "",
      "salt": "0xfac987b4ad425b65a1e9b39678d5b5df44c7d114b647e3832bbd10edfb6f2d1a",
      "assetIds": []
    },
    {
      "x": 28,
      "y": 296,
      "size": 1,
      "price": "1011000000000000000000",
      "reserved": "",
      "salt": "0xc61f9f2b7d73f8ffee1c300797bcc9a2aed19c993dd32cfaebad0af430c82a11",
      "assetIds": []
    },
    {
      "x": 28,
      "y": 297,
      "size": 1,
      "price": "1011000000000000000000",
      "reserved": "",
      "salt": "0xf59457937b2db821b49420abf9e4c3ece4ce00d5d7880af24b2ddd739419424f",
      "assetIds": []
    },
    {
      "x": 28,
      "y": 298,
      "size": 1,
      "price": "1011000000000000000000",
      "reserved": "",
      "salt": "0x408bb1211c6bd699b660250ea9d3eee59673c95c0187a5d8441ebe27c1c3151e",
      "assetIds": []
    },
    {
      "x": 28,
      "y": 299,
      "size": 1,
      "price": "1011000000000000000000",
      "reserved": "",
      "salt": "0xf6ddd44c7e814609feed93c9c1380c0093095fa3e239a7a655630309de1905e2",
      "assetIds": []
    },
    {
      "x": 28,
      "y": 303,
      "size": 1,
      "price": "1011000000000000000000",
      "reserved": "",
      "salt": "0xbbf01d460626daee4bfbf33d4cf0abaea57c3721b2faaebe90a8604df6abde91",
      "assetIds": []
    },
    {
      "x": 28,
      "y": 304,
      "size": 1,
      "price": "1011000000000000000000",
      "reserved": "",
      "salt": "0x245c9e90cb8e66b6f89ac68ee144b9632cccb9a652dfbcb348c0ca37e9534f42",
      "assetIds": []
    },
    {
      "x": 28,
      "y": 305,
      "size": 1,
      "price": "1011000000000000000000",
      "reserved": "",
      "salt": "0x470e6d7e5d03c2d8f25b3877b0a6e395cbc7d073aa48bde63ff56522272988b5",
      "assetIds": []
    },
    {
      "x": 28,
      "y": 312,
      "size": 1,
      "price": "1011000000000000000000",
      "reserved": "",
      "salt": "0xf056b4949ea07db5e48f581cdd292e8d41444712258ed6a43ed94a02998e3154",
      "assetIds": []
    },
    {
      "x": 28,
      "y": 313,
      "size": 1,
      "price": "1011000000000000000000",
      "reserved": "0x7a9fe22691c811ea339d9b73150e6911a5343dca",
      "salt": "0x4641c72f465921aa8bf340144fe2feeb3d681d4d5a1ea7e3ca88e0b26ebe6bce",
      "assetIds": []
    },
    {
      "x": 28,
      "y": 314,
      "size": 1,
      "price": "1011000000000000000000",
      "reserved": "",
      "salt": "0xa8afe740972169f66908d481c27823f37abfab16115b725b07636f137a1a0a44",
      "assetIds": []
    },
    {
      "x": 29,
      "y": 288,
      "size": 1,
      "price": "1011000000000000000000",
      "reserved": "",
      "salt": "0x0d33174a137ee7d0cbf4b244e150ef70e25d344afe3f462e1b8952da53742b05",
      "assetIds": []
    },
    {
      "x": 29,
      "y": 289,
      "size": 1,
      "price": "1011000000000000000000",
      "reserved": "",
      "salt": "0x1137b3ea9324cc698e934ff6c166bbaec3d1fdf864254404fe57807716d13dd3",
      "assetIds": []
    },
    {
      "x": 29,
      "y": 290,
      "size": 1,
      "price": "1011000000000000000000",
      "reserved": "",
      "salt": "0x05e40c58c2dec6e76659467f6e5be620bb497d10615b36cbd916d793555cab8e",
      "assetIds": []
    },
    {
      "x": 29,
      "y": 291,
      "size": 1,
      "price": "4683000000000000000000",
      "reserved": "",
      "salt": "0x88ec79fff14897db8b317c7adc2aef002e96e0a3b5a22213eeda3ded3d33481c",
      "assetIds": []
    },
    {
      "x": 29,
      "y": 292,
      "size": 1,
      "price": "1011000000000000000000",
      "reserved": "0x7a9fe22691c811ea339d9b73150e6911a5343dca",
      "salt": "0x143768157495db261096e9e2cdf67a97c15d447c2e629a8e8992e0ad9fe82938",
      "assetIds": []
    },
    {
      "x": 29,
      "y": 293,
      "size": 1,
      "price": "4683000000000000000000",
      "reserved": "",
      "salt": "0x93262a3e82986184d84b2fe295bbf3b879c621d534f138928d13234ebcf37bcf",
      "assetIds": []
    },
    {
      "x": 29,
      "y": 294,
      "size": 1,
      "price": "1011000000000000000000",
      "reserved": "",
      "salt": "0x45004112f5e2e155158b2837fd5adf7b27fd97e62028b8e8a29ea1c44693c25a",
      "assetIds": []
    },
    {
      "x": 29,
      "y": 295,
      "size": 1,
      "price": "1011000000000000000000",
      "reserved": "",
      "salt": "0x826e0c5265b7cb53f7d0334375886c1cfc609842b69d50cd24b4db47cba8e75c",
      "assetIds": []
    },
    {
      "x": 29,
      "y": 296,
      "size": 1,
      "price": "1011000000000000000000",
      "reserved": "",
      "salt": "0x6101ec69967d8c654b69e9c84538145bcea5d474b29cbdc99edbe36d6220ac9b",
      "assetIds": []
    },
    {
      "x": 29,
      "y": 297,
      "size": 1,
      "price": "1011000000000000000000",
      "reserved": "",
      "salt": "0x2980fe960f7ac7f5dd772c21d3b1c2dfe94c70f0938e5118cd4eebf919ce87bf",
      "assetIds": []
    },
    {
      "x": 29,
      "y": 298,
      "size": 1,
      "price": "1011000000000000000000",
      "reserved": "",
      "salt": "0x1787ddbedce71a9305852b58eddca8d33db34e526d1a38f6a00c8cbcf6b0b83b",
      "assetIds": []
    },
    {
      "x": 29,
      "y": 299,
      "size": 1,
      "price": "1011000000000000000000",
      "reserved": "",
      "salt": "0x9202415702b185c20180b9b4ec2193886d510d733d47fd08e6864633e432c9e8",
      "assetIds": []
    },
    {
      "x": 29,
      "y": 303,
      "size": 1,
      "price": "1011000000000000000000",
      "reserved": "",
      "salt": "0x8c773ab48f5f209572f8c3cfbcdf868b54e4a1b6c56ab4c6ae297b2b2138b88e",
      "assetIds": []
    },
    {
      "x": 29,
      "y": 304,
      "size": 1,
      "price": "1011000000000000000000",
      "reserved": "",
      "salt": "0xad18954cf1061d70ba958f5ce4edb7c104c63df96ce10f0c355b595ffc1eeccd",
      "assetIds": []
    },
    {
      "x": 29,
      "y": 305,
      "size": 1,
      "price": "1011000000000000000000",
      "reserved": "",
      "salt": "0xce13e319de36477f682cab09c6baf6c6a12c460938b421b385fa5c492a8d09ce",
      "assetIds": []
    },
    {
      "x": 29,
      "y": 312,
      "size": 1,
      "price": "1011000000000000000000",
      "reserved": "",
      "salt": "0x1d6db0179f3ff82958f627da1b43b2eafa8226e20471880d58de33332de58427",
      "assetIds": []
    },
    {
      "x": 29,
      "y": 313,
      "size": 1,
      "price": "1011000000000000000000",
      "reserved": "",
      "salt": "0xeb1a32b09a7c79a01a9f064edd03fa4ab8088a11895611ced2df53a9fd21fc90",
      "assetIds": []
    },
    {
      "x": 29,
      "y": 314,
      "size": 1,
      "price": "1011000000000000000000",
      "reserved": "",
      "salt": "0x4328fb932ddeaa3d04b1fad09b0ec8f772a0dbcf7b18723a9515a08aed4e28e5",
      "assetIds": []
    },
    {
      "x": 30,
      "y": 288,
      "size": 1,
      "price": "1011000000000000000000",
      "reserved": "",
      "salt": "0x5e655c178e3ec62f9028789271a7ae4a0f383a4dfb13ae1950b19711bf9be980",
      "assetIds": []
    },
    {
      "x": 30,
      "y": 289,
      "size": 1,
      "price": "1011000000000000000000",
      "reserved": "",
      "salt": "0x3306e2708afc49204a3e9bb4873ff0eff8416f87a7922cfb836a2b6bb649f8d8",
      "assetIds": []
    },
    {
      "x": 30,
      "y": 290,
      "size": 1,
      "price": "4683000000000000000000",
      "reserved": "",
      "salt": "0xd241ec7aaebb4477e80f4a1df234c7659c4e49e2a46b1f380828b4aabe15e7a6",
      "assetIds": []
    },
    {
      "x": 30,
      "y": 294,
      "size": 1,
      "price": "4683000000000000000000",
      "reserved": "",
      "salt": "0xf1735ee729d4a01453c69c4cb69a31805d4a6b7ece66e253aec4fba3afa898c6",
      "assetIds": []
    },
    {
      "x": 30,
      "y": 295,
      "size": 1,
      "price": "1011000000000000000000",
      "reserved": "",
      "salt": "0x3044a667408dc4837b32c22f6d4df2a1fcfa0916b0dbd7f02d3903e9f7abef43",
      "assetIds": []
    },
    {
      "x": 30,
      "y": 296,
      "size": 1,
      "price": "1011000000000000000000",
      "reserved": "",
      "salt": "0x902199a642987b4fd75c263e57e4ba4745bdd33d7e7d96193ed3f5d74e0e07dc",
      "assetIds": []
    },
    {
      "x": 30,
      "y": 300,
      "size": 1,
      "price": "1011000000000000000000",
      "reserved": "",
      "salt": "0xab2afb5f3bb84aac4f7436fc7b1925d6d4a203f21103f4024de3de1e66e6f26c",
      "assetIds": []
    },
    {
      "x": 30,
      "y": 301,
      "size": 1,
      "price": "1011000000000000000000",
      "reserved": "",
      "salt": "0x709ca9913b27bc5939b95c125ddd1f1dc8c4eb78c7d9ceb2dd41507754cbdc6a",
      "assetIds": []
    },
    {
      "x": 30,
      "y": 302,
      "size": 1,
      "price": "1011000000000000000000",
      "reserved": "",
      "salt": "0xef15f955cd3cb0e8e43ff34d225448af443d04c24859cb03af3ad2c1fd511d14",
      "assetIds": []
    },
    {
      "x": 30,
      "y": 303,
      "size": 1,
      "price": "1011000000000000000000",
      "reserved": "",
      "salt": "0x52009d540ae092fcb1b8ca9a9997ee8bbb43e4c0b3d85bc04922f09614b00de1",
      "assetIds": []
    },
    {
      "x": 30,
      "y": 304,
      "size": 1,
      "price": "1011000000000000000000",
      "reserved": "",
      "salt": "0xed67aa7d503313834fa15f3d8013886ebe4793f3b5a359484016fbce87951e80",
      "assetIds": []
    },
    {
      "x": 30,
      "y": 305,
      "size": 1,
      "price": "4683000000000000000000",
      "reserved": "",
      "salt": "0x359699be54f76152c27c5b47c9e8a13db2b84a293f5887e094c592ee868949d9",
      "assetIds": []
    },
    {
      "x": 30,
      "y": 312,
      "size": 1,
      "price": "1011000000000000000000",
      "reserved": "",
      "salt": "0x82e7210247b0f29a7ef8d9cf2a463130d95ee68b8b70c860680bb4718b9c6169",
      "assetIds": []
    },
    {
      "x": 30,
      "y": 313,
      "size": 1,
      "price": "1011000000000000000000",
      "reserved": "",
      "salt": "0x8393914cf559e46407356c652829901249b3d9a8afc088c658337ab777d38845",
      "assetIds": []
    },
    {
      "x": 30,
      "y": 314,
      "size": 1,
      "price": "1011000000000000000000",
      "reserved": "",
      "salt": "0xa510909f684161560e9b1adfae86db101856e9c4d14ef13bd1e23c30230cc1e4",
      "assetIds": []
    },
    {
      "x": 31,
      "y": 288,
      "size": 1,
      "price": "1011000000000000000000",
      "reserved": "",
      "salt": "0x7fa4af4c238664d9fb663e0f022d8ea73fe7fc8ec1bacfeeb5e14b4c8100261c",
      "assetIds": []
    },
    {
      "x": 31,
      "y": 289,
      "size": 1,
      "price": "1011000000000000000000",
      "reserved": "",
      "salt": "0xa2dbae3faf3d55a6034339c7da047e7c9eaebd8b1988b20a35c2fffc49ed967f",
      "assetIds": []
    },
    {
      "x": 31,
      "y": 290,
      "size": 1,
      "price": "1011000000000000000000",
      "reserved": "",
      "salt": "0x9d282989d25039739f91644ace0819240fe562b04269d35f42c57171d52decb8",
      "assetIds": []
    },
    {
      "x": 31,
      "y": 294,
      "size": 1,
      "price": "1011000000000000000000",
      "reserved": "",
      "salt": "0xc0942b6833d8da603f58ee47a0e757247b320d2b95406540669f398259434e23",
      "assetIds": []
    },
    {
      "x": 31,
      "y": 295,
      "size": 1,
      "price": "1011000000000000000000",
      "reserved": "",
      "salt": "0x64ace18746967b860702977e7070c8362fc164b3ad5fcfbee70a7c033e92fb82",
      "assetIds": []
    },
    {
      "x": 31,
      "y": 296,
      "size": 1,
      "price": "1011000000000000000000",
      "reserved": "",
      "salt": "0x38eb743f11ab22c058fd59022db7be3a3e471f1bb0918de3917aab0034621d55",
      "assetIds": []
    },
    {
      "x": 31,
      "y": 300,
      "size": 1,
      "price": "1011000000000000000000",
      "reserved": "",
      "salt": "0xed38fc76c39537f0f692466c2d8fbd5b51d51c15f7d826ec8530fcb2a8ecd6c7",
      "assetIds": []
    },
    {
      "x": 31,
      "y": 301,
      "size": 1,
      "price": "1011000000000000000000",
      "reserved": "0x7a9fe22691c811ea339d9b73150e6911a5343dca",
      "salt": "0xe458052069022525c99b105d5ff6356d9beab302ed4eeb1de5080b45d5a81fc6",
      "assetIds": []
    },
    {
      "x": 31,
      "y": 302,
      "size": 1,
      "price": "1011000000000000000000",
      "reserved": "0x7a9fe22691c811ea339d9b73150e6911a5343dca",
      "salt": "0xa40595ea95881ddf0951ca670abce7ee151fdf903f1c159d5fbeb6a17c03f15a",
      "assetIds": []
    },
    {
      "x": 31,
      "y": 303,
      "size": 1,
      "price": "1011000000000000000000",
      "reserved": "",
      "salt": "0x72b01b23ce0c383efb71acb6a53c55141ab6a320fa3a4e040a85612dcd1b9499",
      "assetIds": []
    },
    {
      "x": 31,
      "y": 304,
      "size": 1,
      "price": "1011000000000000000000",
      "reserved": "",
      "salt": "0x9ca18722b93e60f6ae89f15dfd779e7a3d004b457a4fccea8146377a10f6e91f",
      "assetIds": []
    },
    {
      "x": 31,
      "y": 305,
      "size": 1,
      "price": "4683000000000000000000",
      "reserved": "",
      "salt": "0x0b78777baaf2ce465022756fa29d22282dbf1459b9ab5774268129217baa5c7b",
      "assetIds": []
    },
    {
      "x": 31,
      "y": 312,
      "size": 1,
      "price": "1011000000000000000000",
      "reserved": "",
      "salt": "0x4eb4c3685cb596fbc5c1906e7b56e9d0337b208534600b7d904e9470bc129d66",
      "assetIds": []
    },
    {
      "x": 31,
      "y": 313,
      "size": 1,
      "price": "1011000000000000000000",
      "reserved": "0x7a9fe22691c811ea339d9b73150e6911a5343dca",
      "salt": "0x1a06b929389e97f9a77663770a777fab05fd0fa73e46772f9c51966efc360dfa",
      "assetIds": []
    },
    {
      "x": 31,
      "y": 314,
      "size": 1,
      "price": "1011000000000000000000",
      "reserved": "",
      "salt": "0x5f8f57f718837dae443f4a1e9a1cfbcfee62ed02c5d818259fb1a0bdbd7e34b5",
      "assetIds": []
    },
    {
      "x": 32,
      "y": 288,
      "size": 1,
      "price": "1011000000000000000000",
      "reserved": "",
      "salt": "0xbce0efe22f57b569ace0116ef9e68420b42c3665f79696d15b925e9cdbee3838",
      "assetIds": []
    },
    {
      "x": 32,
      "y": 289,
      "size": 1,
      "price": "1011000000000000000000",
      "reserved": "",
      "salt": "0x4b3afa0303181b2c7ed20f22e315a2cbaa1fe4be1a39446122b47eaa77661076",
      "assetIds": []
    },
    {
      "x": 32,
      "y": 290,
      "size": 1,
      "price": "4683000000000000000000",
      "reserved": "",
      "salt": "0x73e5b6e52743e00042e084383df10f81ebc07a4859ded0bcb3ea8ed77509bcfd",
      "assetIds": []
    },
    {
      "x": 32,
      "y": 294,
      "size": 1,
      "price": "4683000000000000000000",
      "reserved": "",
      "salt": "0xf2f058515f36c3c9edd678f696bd1e7c6475fccc8d28e3313f1a7bc7cec78254",
      "assetIds": []
    },
    {
      "x": 32,
      "y": 295,
      "size": 1,
      "price": "1011000000000000000000",
      "reserved": "",
      "salt": "0x807277d35aef79481aa988a547d7889eeae4251da3e2426ab3148daa3be7fb04",
      "assetIds": []
    },
    {
      "x": 32,
      "y": 296,
      "size": 1,
      "price": "1011000000000000000000",
      "reserved": "",
      "salt": "0x27fcc6254dd2c1723c2dcc6947b41456c56c6dd76ffdc67fab1d988ff852facb",
      "assetIds": []
    },
    {
      "x": 32,
      "y": 300,
      "size": 1,
      "price": "1011000000000000000000",
      "reserved": "",
      "salt": "0xc0fccbd18961911a1f2e6d290c9b96882e03aebed442ddda122ee7bbd53a608e",
      "assetIds": []
    },
    {
      "x": 32,
      "y": 301,
      "size": 1,
      "price": "1011000000000000000000",
      "reserved": "",
      "salt": "0xfd9fc2f8750c942b10816fd321173f1d29dba5452595f81c1a54bb22badb288d",
      "assetIds": []
    },
    {
      "x": 32,
      "y": 302,
      "size": 1,
      "price": "1011000000000000000000",
      "reserved": "",
      "salt": "0x283fa74cfac726392d2f634dba96eb78ec3c98d3ca59e86a628c80c6b4c861bf",
      "assetIds": []
    },
    {
      "x": 32,
      "y": 303,
      "size": 1,
      "price": "1011000000000000000000",
      "reserved": "",
      "salt": "0xf1d401d37d3a3c7a9c56aedecacca926e9a4ae73199f7b289b7f10aabf8a28bf",
      "assetIds": []
    },
    {
      "x": 32,
      "y": 304,
      "size": 1,
      "price": "1011000000000000000000",
      "reserved": "",
      "salt": "0xc51b4ed265c478da90e4b4d33aca6777fe7852b185778a501840c89b31f8d39d",
      "assetIds": []
    },
    {
      "x": 32,
      "y": 305,
      "size": 1,
      "price": "4683000000000000000000",
      "reserved": "",
      "salt": "0xcebf45b1503837466e3c927a482f760ed130afa0eaadbcd4e5cac3fb1ab7fcc5",
      "assetIds": []
    },
    {
      "x": 32,
      "y": 312,
      "size": 1,
      "price": "1011000000000000000000",
      "reserved": "",
      "salt": "0xf532feb887dda120551fd28474c6a6ebbcd581536e047f699a02565e5c153521",
      "assetIds": []
    },
    {
      "x": 32,
      "y": 313,
      "size": 1,
      "price": "1011000000000000000000",
      "reserved": "",
      "salt": "0x51c6e356ad9f4d75d37c5caead152fe4fee7909600c834943d3741f4f0f232c2",
      "assetIds": []
    },
    {
      "x": 32,
      "y": 314,
      "size": 1,
      "price": "1011000000000000000000",
      "reserved": "",
      "salt": "0x1add544c38ff94da3dc2221e14039beb5740615655d551da616a641648b9e770",
      "assetIds": []
    },
    {
      "x": 33,
      "y": 288,
      "size": 1,
      "price": "1011000000000000000000",
      "reserved": "",
      "salt": "0x78337deedc3ab6cc59b317d44aee3a3252713a1218518121f71267b2cc0c739e",
      "assetIds": []
    },
    {
      "x": 33,
      "y": 289,
      "size": 1,
      "price": "1011000000000000000000",
      "reserved": "",
      "salt": "0xf671df78ab406d10c7602636654f77c985105f47da443f302869d5c5762b3a55",
      "assetIds": []
    },
    {
      "x": 33,
      "y": 290,
      "size": 1,
      "price": "1011000000000000000000",
      "reserved": "",
      "salt": "0x9044d30bc04a26f477133ca822982515a7bf16d7c24900a955f544148f9b7c82",
      "assetIds": []
    },
    {
      "x": 33,
      "y": 291,
      "size": 1,
      "price": "4683000000000000000000",
      "reserved": "",
      "salt": "0xf99675ad409069d4fdfb5a7e08d04833e0d4b3605c7f255de5948dc5a6dbc7d7",
      "assetIds": []
    },
    {
      "x": 33,
      "y": 292,
      "size": 1,
      "price": "1011000000000000000000",
      "reserved": "",
      "salt": "0xee43f81b39b811e5828d26e501e9b92e640b8cd8ff12138300a5e9cf3cc6430c",
      "assetIds": []
    },
    {
      "x": 33,
      "y": 293,
      "size": 1,
      "price": "4683000000000000000000",
      "reserved": "",
      "salt": "0xfe33df39872ab1bc0c10f34baec8c703f56cf5cea9e69fa209eb28427b026637",
      "assetIds": []
    },
    {
      "x": 33,
      "y": 294,
      "size": 1,
      "price": "1011000000000000000000",
      "reserved": "",
      "salt": "0xd493cb523ac63c746e0953b7e99ea723fe7c538fa52abcc8aea1e46712957fc1",
      "assetIds": []
    },
    {
      "x": 33,
      "y": 295,
      "size": 1,
      "price": "1011000000000000000000",
      "reserved": "",
      "salt": "0x405d39045a94c9d58a3de648a2e357170f23ef010ee1b205be2c9171b49f2332",
      "assetIds": []
    },
    {
      "x": 33,
      "y": 296,
      "size": 1,
      "price": "1011000000000000000000",
      "reserved": "",
      "salt": "0x25fa51a0c07a108ac668d3d6efaa1d2fc801773731463da49119d37644b707a7",
      "assetIds": []
    },
    {
      "x": 33,
      "y": 297,
      "size": 1,
      "price": "1011000000000000000000",
      "reserved": "0x7a9fe22691c811ea339d9b73150e6911a5343dca",
      "salt": "0xb5566864efbfbf6521073841944f877f5f9511dd3ed89c091010ff1ffe238b77",
      "assetIds": []
    },
    {
      "x": 33,
      "y": 298,
      "size": 1,
      "price": "1011000000000000000000",
      "reserved": "",
      "salt": "0xf0fe594fa48b4e46689b93a38fc052cdad20abeded06fde8d9bcc2d650936ffe",
      "assetIds": []
    },
    {
      "x": 33,
      "y": 299,
      "size": 1,
      "price": "1011000000000000000000",
      "reserved": "",
      "salt": "0xf90e96d23ef5bb5cd4b1351c3e874e2966349179fcd7b755ce2b8de43455c9c2",
      "assetIds": []
    },
    {
      "x": 33,
      "y": 300,
      "size": 1,
      "price": "1011000000000000000000",
      "reserved": "",
      "salt": "0xa7603f9031e3a71fcc0eb25b179620ca876d34ca66d381dcdf22cb860ddc3387",
      "assetIds": []
    },
    {
      "x": 33,
      "y": 301,
      "size": 1,
      "price": "1011000000000000000000",
      "reserved": "",
      "salt": "0x593069a0c3d17e7b1104dbde2cc84bde5a98127ad9adfbb6562d0e2466e51542",
      "assetIds": []
    },
    {
      "x": 33,
      "y": 302,
      "size": 1,
      "price": "1011000000000000000000",
      "reserved": "",
      "salt": "0x83aaa6a8da25994bc8c293c6aa520647b4641f53a8a94d8fd0d9e5ce621cb4c5",
      "assetIds": []
    },
    {
      "x": 33,
      "y": 306,
      "size": 1,
      "price": "4683000000000000000000",
      "reserved": "",
      "salt": "0x6474af899cc239e62089c93361b3849a1aca89b21f95008415572f16022ff365",
      "assetIds": []
    },
    {
      "x": 33,
      "y": 307,
      "size": 1,
      "price": "1011000000000000000000",
      "reserved": "",
      "salt": "0x9df46e8081bbe44f666e0840caa25ae22df3deb5d5023cd011cce03bc397eec5",
      "assetIds": []
    },
    {
      "x": 33,
      "y": 308,
      "size": 1,
      "price": "4683000000000000000000",
      "reserved": "",
      "salt": "0x4210106edf67676db6d3d51cdbc0c298345ad391d7e135773df6231f8e619f35",
      "assetIds": []
    },
    {
      "x": 33,
      "y": 309,
      "size": 1,
      "price": "1011000000000000000000",
      "reserved": "",
      "salt": "0xa15ee3ec1a2dc0cb55d606babd4590654a76631e64c3b9a58982807ac739c1da",
      "assetIds": []
    },
    {
      "x": 33,
      "y": 310,
      "size": 1,
      "price": "1011000000000000000000",
      "reserved": "",
      "salt": "0x2a6a23b5787fb21330daf5fb9450cdd580ae271fe6dfa5f08dd6c3c614c20cdc",
      "assetIds": []
    },
    {
      "x": 33,
      "y": 311,
      "size": 1,
      "price": "1011000000000000000000",
      "reserved": "",
      "salt": "0x706479d6492df3c767da9f30e58b2e0bbce3da4be70ec3bca2d2703cf4864615",
      "assetIds": []
    },
    {
      "x": 33,
      "y": 312,
      "size": 1,
      "price": "4683000000000000000000",
      "reserved": "",
      "salt": "0x8e5632af2a00263be45247bf535b704be09529477196a1bc3976d5c55a38e657",
      "assetIds": []
    },
    {
      "x": 33,
      "y": 313,
      "size": 1,
      "price": "1011000000000000000000",
      "reserved": "0x7a9fe22691c811ea339d9b73150e6911a5343dca",
      "salt": "0x099d1a8db3c84aa70d80fb251a964a24cdf2893c4783e835dd0ec57e0b7db32e",
      "assetIds": []
    },
    {
      "x": 33,
      "y": 314,
      "size": 1,
      "price": "4683000000000000000000",
      "reserved": "",
      "salt": "0x40c610825dc4b0717cc8122be3ce3f2d65e9a0503328052efb71ec9e975a55a0",
      "assetIds": []
    },
    {
      "x": 34,
      "y": 288,
      "size": 1,
      "price": "1011000000000000000000",
      "reserved": "",
      "salt": "0x00f8265971b4a392fb4610960068ccfff07b97d4411fad1f36aeb19cbc04a809",
      "assetIds": []
    },
    {
      "x": 34,
      "y": 289,
      "size": 1,
      "price": "1011000000000000000000",
      "reserved": "",
      "salt": "0xa1b919553a8e7575adea16a8cfb77bf5baa90b2e4061aea3a365e011d3e8a231",
      "assetIds": []
    },
    {
      "x": 34,
      "y": 290,
      "size": 1,
      "price": "1011000000000000000000",
      "reserved": "",
      "salt": "0xdeeb52e249eb36a8ad1dce3d67baae603d96fada90789b055182ddaa72687d8e",
      "assetIds": []
    },
    {
      "x": 34,
      "y": 291,
      "size": 1,
      "price": "1011000000000000000000",
      "reserved": "",
      "salt": "0x53e280d542e7e1ab47d3c4fb83cf87dac91d14bf09b6cfa0d479e8096f564d91",
      "assetIds": []
    },
    {
      "x": 34,
      "y": 292,
      "size": 1,
      "price": "1011000000000000000000",
      "reserved": "",
      "salt": "0x9882983e90a7767b68849863a7258511ba542c48b8b96f58aa02f427ed714ff0",
      "assetIds": []
    },
    {
      "x": 34,
      "y": 293,
      "size": 1,
      "price": "1011000000000000000000",
      "reserved": "",
      "salt": "0xd9b51e2376d4413e76e2483836837d7caf9b6d5797fa9ef786e80aa4d0f4249c",
      "assetIds": []
    },
    {
      "x": 34,
      "y": 294,
      "size": 1,
      "price": "1011000000000000000000",
      "reserved": "",
      "salt": "0xc281347b88db1da10964d4d4afc8731430bd1edd2efb45e42174f7ef36591822",
      "assetIds": []
    },
    {
      "x": 34,
      "y": 295,
      "size": 1,
      "price": "1011000000000000000000",
      "reserved": "0x7a9fe22691c811ea339d9b73150e6911a5343dca",
      "salt": "0xcbeb0aab77e3a2f28db4af51eb33041d28625da5828e0e265c8e2b15763b3b16",
      "assetIds": []
    },
    {
      "x": 34,
      "y": 296,
      "size": 1,
      "price": "1011000000000000000000",
      "reserved": "",
      "salt": "0x0e4048bd942a6efb854039f4cf70d92eb9ac66838f585c79f479afbdae72fc52",
      "assetIds": []
    },
    {
      "x": 34,
      "y": 297,
      "size": 1,
      "price": "1011000000000000000000",
      "reserved": "",
      "salt": "0xdb1ebaa0b2341336c2ab440a398e5dcff3639def51226a0a1578b0198ac80c29",
      "assetIds": []
    },
    {
      "x": 34,
      "y": 298,
      "size": 1,
      "price": "1011000000000000000000",
      "reserved": "",
      "salt": "0x41e4602f204a5219ad0a22247325b46a557dbc9798eab0be0c97f2958f168d19",
      "assetIds": []
    },
    {
      "x": 34,
      "y": 299,
      "size": 1,
      "price": "1011000000000000000000",
      "reserved": "",
      "salt": "0x5662920a16330f28ed0c6bdbf5ff6c90beda3951286406d947fde8f66a20fd0f",
      "assetIds": []
    },
    {
      "x": 34,
      "y": 300,
      "size": 1,
      "price": "1011000000000000000000",
      "reserved": "",
      "salt": "0xebdd46da1b1d7c66a3c043e4ee5555f02db1830e12ef9e49efa25c834f86f44e",
      "assetIds": []
    },
    {
      "x": 34,
      "y": 301,
      "size": 1,
      "price": "1011000000000000000000",
      "reserved": "",
      "salt": "0x674dd4200140f31aca188e6764de28fb1864cdf66f19df031851a90dd1c05953",
      "assetIds": []
    },
    {
      "x": 34,
      "y": 302,
      "size": 1,
      "price": "1011000000000000000000",
      "reserved": "",
      "salt": "0x78b6c087ac4d17474a0c4413ee98f9e58ba253625a2ffe65486f2775002635d8",
      "assetIds": []
    },
    {
      "x": 34,
      "y": 306,
      "size": 1,
      "price": "1011000000000000000000",
      "reserved": "",
      "salt": "0xcea57a1bda7bcfe25018d036f70377331d8b7e49d0dd123b93c976746f8ad54b",
      "assetIds": []
    },
    {
      "x": 34,
      "y": 307,
      "size": 1,
      "price": "1011000000000000000000",
      "reserved": "",
      "salt": "0xf6f31a9f60fe251539d861edb369c424cf4c4c5ae9d4cf6cc914aaa1bd60946e",
      "assetIds": []
    },
    {
      "x": 34,
      "y": 308,
      "size": 1,
      "price": "1011000000000000000000",
      "reserved": "",
      "salt": "0xd4f836bb86c87342cf5ba8232c516361a3a9e49a893560bf4f2bbb5274ce7463",
      "assetIds": []
    },
    {
      "x": 34,
      "y": 309,
      "size": 1,
      "price": "1011000000000000000000",
      "reserved": "",
      "salt": "0x522052690bd21e0a78935968b66bd3d31934dc676d426d2c79758628e454c153",
      "assetIds": []
    },
    {
      "x": 34,
      "y": 310,
      "size": 1,
      "price": "1011000000000000000000",
      "reserved": "",
      "salt": "0x71049ad43bd3127f50127c8c42efe190cf3cebfa269cd30da6bb1125017e8758",
      "assetIds": []
    },
    {
      "x": 34,
      "y": 311,
      "size": 1,
      "price": "1011000000000000000000",
      "reserved": "",
      "salt": "0x7d63ff1c10da5d9743ab4a64d2744fa2576076bc3dc5bb38c914a3e2910e7a12",
      "assetIds": []
    },
    {
      "x": 34,
      "y": 312,
      "size": 1,
      "price": "1011000000000000000000",
      "reserved": "",
      "salt": "0x0379abe6d4e49064b6a509079176f848d5757abfc0146a5f94ac481100b67d93",
      "assetIds": []
    },
    {
      "x": 34,
      "y": 313,
      "size": 1,
      "price": "1011000000000000000000",
      "reserved": "",
      "salt": "0x17c74ce9d8e3a2d3c251838fcd0eb97b50a326b8fe1e9e207e829d81d4d31505",
      "assetIds": []
    },
    {
      "x": 34,
      "y": 314,
      "size": 1,
      "price": "1011000000000000000000",
      "reserved": "",
      "salt": "0xa14a925ddc36ba7498730011f0cf438103b94c89105dff06c46a256d84e3b4d1",
      "assetIds": []
    },
    {
      "x": 35,
      "y": 288,
      "size": 1,
      "price": "1011000000000000000000",
      "reserved": "",
      "salt": "0x5435e02da49f2445d5df5596b7505b3c47fc3b58ba6ccdd3b14224f2505d954a",
      "assetIds": []
    },
    {
      "x": 35,
      "y": 289,
      "size": 1,
      "price": "1011000000000000000000",
      "reserved": "",
      "salt": "0x52e4d9e93056121e49ef2aa1ca7c83caab84a4d0de0a242d68ceba02f0ad7c5a",
      "assetIds": []
    },
    {
      "x": 35,
      "y": 290,
      "size": 1,
      "price": "1011000000000000000000",
      "reserved": "",
      "salt": "0xe7949a19e0ceaf2b6e635af2d441ee8f3e8b9cd2613a2bbbf49ff5366330afb7",
      "assetIds": []
    },
    {
      "x": 35,
      "y": 291,
      "size": 1,
      "price": "1011000000000000000000",
      "reserved": "",
      "salt": "0x9ef1474d2e35f1d85be73a56540c2362385138755c7ceb81f2a2520c05a81e83",
      "assetIds": []
    },
    {
      "x": 35,
      "y": 292,
      "size": 1,
      "price": "1011000000000000000000",
      "reserved": "",
      "salt": "0x95c58b45705a6f9e6ddecaa0478fbe13ee05b3e77075475a7b7a07c22836516a",
      "assetIds": []
    },
    {
      "x": 35,
      "y": 293,
      "size": 1,
      "price": "1011000000000000000000",
      "reserved": "",
      "salt": "0xccca4a640c442a232b30fa526699164fe31a40d5cf173f741e60ce7eb455e7dc",
      "assetIds": []
    },
    {
      "x": 35,
      "y": 294,
      "size": 1,
      "price": "1011000000000000000000",
      "reserved": "",
      "salt": "0x884294a1098e867e182835118112cac393ba396a7da87e22d3bccfb43294f965",
      "assetIds": []
    },
    {
      "x": 35,
      "y": 295,
      "size": 1,
      "price": "1011000000000000000000",
      "reserved": "",
      "salt": "0x2262f289fbef9c498fa1d8ed66e379a7099ac40a10455b36eee0ac6cd2277c11",
      "assetIds": []
    },
    {
      "x": 35,
      "y": 296,
      "size": 1,
      "price": "1011000000000000000000",
      "reserved": "",
      "salt": "0xf9a3d8d93fb86e2fe88678f488b02b0b3cb5cde6c21b68051eba1a11892316a5",
      "assetIds": []
    },
    {
      "x": 35,
      "y": 297,
      "size": 1,
      "price": "1011000000000000000000",
      "reserved": "",
      "salt": "0x6a189eaf6b450ec40426e5a7cb778e1cf003deb533aa568f6b32d3e99d6e01e5",
      "assetIds": []
    },
    {
      "x": 35,
      "y": 298,
      "size": 1,
      "price": "1011000000000000000000",
      "reserved": "",
      "salt": "0xe77d8d78ba1ac72cac2f0015c0d88be8b2437859dc9c2e016993268b8ba2471c",
      "assetIds": []
    },
    {
      "x": 35,
      "y": 299,
      "size": 1,
      "price": "1011000000000000000000",
      "reserved": "",
      "salt": "0xc0d8fc99360b5ef420eb277d2e793c66989818ed667716a2ee5746c665ebbe12",
      "assetIds": []
    },
    {
      "x": 35,
      "y": 300,
      "size": 1,
      "price": "1011000000000000000000",
      "reserved": "",
      "salt": "0xc2a373cbe45c612c206188d6d202893e703415f2785d5ed955ac33d6655b49d3",
      "assetIds": []
    },
    {
      "x": 35,
      "y": 301,
      "size": 1,
      "price": "1011000000000000000000",
      "reserved": "",
      "salt": "0x581e8caa63406d97ba5e3f8fc62d63c85a69b27b4fbbd453a40f7f79ad9545c6",
      "assetIds": []
    },
    {
      "x": 35,
      "y": 302,
      "size": 1,
      "price": "1011000000000000000000",
      "reserved": "",
      "salt": "0x0caecaf6a7679d0298bd4c5fb270d6582fd47b652defbe42f32f38f4b4c89705",
      "assetIds": []
    },
    {
      "x": 35,
      "y": 306,
      "size": 1,
      "price": "1011000000000000000000",
      "reserved": "",
      "salt": "0x800eb106d78968822111f70a38c94f66e0c0f5a3adb6009b33ebc98edf5d845d",
      "assetIds": []
    },
    {
      "x": 35,
      "y": 307,
      "size": 1,
      "price": "1011000000000000000000",
      "reserved": "",
      "salt": "0x363b231456049fc8e9c6a029b04c953ed35ff71eef6af90d2e61fa43647e7070",
      "assetIds": []
    },
    {
      "x": 35,
      "y": 308,
      "size": 1,
      "price": "1011000000000000000000",
      "reserved": "",
      "salt": "0x9ba0bc5b39ddc93178bc56afcb1ff260044315c114f2c8e4dbc255a5eeaf0336",
      "assetIds": []
    },
    {
      "x": 35,
      "y": 309,
      "size": 1,
      "price": "1011000000000000000000",
      "reserved": "",
      "salt": "0x42ab8f1b21bde6ada579c37a5c5b67818b15c7d948d32248ace2c4de0aa3fd92",
      "assetIds": []
    },
    {
      "x": 35,
      "y": 310,
      "size": 1,
      "price": "1011000000000000000000",
      "reserved": "",
      "salt": "0xf46a9655614279b405d6aa1f9280daba3c601a6ad957fd3aea3ae33c6959d999",
      "assetIds": []
    },
    {
      "x": 35,
      "y": 311,
      "size": 1,
      "price": "1011000000000000000000",
      "reserved": "",
      "salt": "0xf3ebda5d768021e54a626fcf89ac3677a18189e1bfd106c47761a604288c4ef7",
      "assetIds": []
    },
    {
      "x": 35,
      "y": 312,
      "size": 1,
      "price": "1011000000000000000000",
      "reserved": "",
      "salt": "0xde3f9302fd5849210380bacbae61291ed1e8f9e8d8d25e5ab17ea6dda4367d65",
      "assetIds": []
    },
    {
      "x": 35,
      "y": 313,
      "size": 1,
      "price": "1011000000000000000000",
      "reserved": "",
      "salt": "0x9e34f0a8dd8370121fcb899b58a597eeeec50ce1a189420b45e18ea4af3b135f",
      "assetIds": []
    },
    {
      "x": 35,
      "y": 314,
      "size": 1,
      "price": "1011000000000000000000",
      "reserved": "",
      "salt": "0x0ee20f0a6d59dd147d3b989c60ad3265eff3336645acd3ff2e6f60e5971a0926",
      "assetIds": []
    }
  ],
  "solcInputHash": "b42a863a795806b4ea3a8f05dfa42539",
  "bytecode": "0x6101606040523480156200001257600080fd5b50604051620031e9380380620031e983398181016040526101a08110156200003957600080fd5b508051602082015160408301516060840151608085015160a086015160c087015160e08801516101008901516101208a01516101408b01516101608c0151610180909c015160016000559a9b999a9899979896979596949593949293919290919085856001600160a01b038216620000f8576040805162461bcd60e51b815260206004820152601f60248201527f526566657272616c56616c696461746f723a207a65726f206164647265737300604482015290519081900360640190fd5b600380546001600160a01b0319166001600160a01b0393841617905560045562000130908e1662000459602090811b62002adc17901c565b6200016d5760405162461bcd60e51b8152600401808060200182810382526025815260200180620031c46025913960400191505060405180910390fd5b6200018c8c6001600160a01b03166200045960201b62002adc1760201c565b620001c95760405162461bcd60e51b8152600401808060200182810382526025815260200180620031c46025913960400191505060405180910390fd5b6001600160a01b038b1662000214576040805162461bcd60e51b815260206004820181905260248201526000805160206200317f833981519152604482015290519081900360640190fd5b6001600160a01b038a166200025f576040805162461bcd60e51b815260206004820181905260248201526000805160206200317f833981519152604482015290519081900360640190fd5b6001600160a01b038916620002aa576040805162461bcd60e51b815260206004820181905260248201526000805160206200317f833981519152604482015290519081900360640190fd5b620002c9836001600160a01b03166200045960201b62002adc1760201c565b620003065760405162461bcd60e51b8152600401808060200182810382526025815260200180620031c46025913960400191505060405180910390fd5b6001600160a01b03821662000351576040805162461bcd60e51b815260206004820181905260248201526000805160206200317f833981519152604482015290519081900360640190fd5b62000370816001600160a01b03166200045960201b62002adc1760201c565b620003ad5760405162461bcd60e51b8152600401808060200182810382526025815260200180620031c46025913960400191505060405180910390fd5b6001600160601b031960608e811b821660a0528d901b1660c052620003dd8b60016001600160e01b036200045f16565b600680546001600160a01b039a8b166001600160a01b031991821617909155610140989098526101209690965260018054998916998816999099179098556001600160601b0319606092831b811660e05290821b811660805296901b909516610100525060078054919093169116179055506200050a92505050565b3b151590565b6001600160a01b038216620004a65760405162461bcd60e51b81526004018080602001828103825260258152602001806200319f6025913960400191505060405180910390fd5b6001600160a01b038216600081815260026020908152604091829020805460ff191685151590811790915582519384529083015280517fb21eb88b4e33b3f1281830a7178d74d8aa73220416215726b68ae23d539515cb9281900390910190a15050565b60805160601c60a05160601c60c05160601c60e05160601c6101005160601c6101205161014051612bef6200059060003980610be0528061247e525080610bbc528061159d5250806124fc525080611af25280611c4f525080611aa85280611e4e52806124d9525080611b235280611c205250806111075280611f3a5250612bef6000f3fe608060405234801561001057600080fd5b50600436106101365760003560e01c8063984d6252116100b2578063c10a420811610081578063dc5074af11610066578063dc5074af146108a0578063e56f8a9e146108c6578063f23a6e61146108e357610136565b8063c10a4208146107c1578063caed35001461089857610136565b8063984d62521461055f578063ab1cc78c14610631578063b522ecff14610639578063bc197c811461065f57610136565b806365194ce71161010957806378e6e5b9116100ee57806378e6e5b9146104e55780638a04af6a1461050b5780638f2839701461053957610136565b806365194ce7146103635780636e9960c3146104c157610136565b80631187fd3c1461013b57806325cb5bc01461031b578063495906571461033557806358bc29441461033d575b600080fd5b610319600480360361012081101561015257600080fd5b6001600160a01b038235811692602081013582169260408201359092169181019060808101606082013564010000000081111561018e57600080fd5b8201836020820111156101a057600080fd5b803590602001918460208302840111640100000000831117156101c257600080fd5b919390928235926040810190602001356401000000008111156101e457600080fd5b8201836020820111156101f657600080fd5b8035906020019184602083028401116401000000008311171561021857600080fd5b91939092909160208101903564010000000081111561023657600080fd5b82018360208201111561024857600080fd5b8035906020019184602083028401116401000000008311171561026a57600080fd5b91939092909160208101903564010000000081111561028857600080fd5b82018360208201111561029a57600080fd5b803590602001918460018302840111640100000000831117156102bc57600080fd5b9193909290916020810190356401000000008111156102da57600080fd5b8201836020820111156102ec57600080fd5b8035906020019184600183028401116401000000008311171561030e57600080fd5b509092509050610978565b005b610323610bba565b60408051918252519081900360200190f35b610323610bde565b6103196004803603602081101561035357600080fd5b50356001600160a01b0316610c02565b6104096004803603602081101561037957600080fd5b81019060208101813564010000000081111561039457600080fd5b8201836020820111156103a657600080fd5b803590602001918460018302840111640100000000831117156103c857600080fd5b91908080601f016020809104026020016040519081016040528093929190818152602001838380828437600092019190915250929550610d2e945050505050565b6040518080602001866001600160a01b03166001600160a01b03168152602001856001600160a01b03166001600160a01b03168152602001848152602001838152602001828103825287818151815260200191508051906020019080838360005b8381101561048257818101518382015260200161046a565b50505050905090810190601f1680156104af5780820380516001836020036101000a031916815260200191505b50965050505050505060405180910390f35b6104c9610e33565b604080516001600160a01b039092168252519081900360200190f35b610319600480360360208110156104fb57600080fd5b50356001600160a01b0316610e42565b6103196004803603604081101561052157600080fd5b506001600160a01b0381351690602001351515610f00565b6103196004803603602081101561054f57600080fd5b50356001600160a01b0316610f6d565b6103196004803603606081101561057557600080fd5b6001600160a01b0382351691908101906040810160208201356401000000008111156105a057600080fd5b8201836020820111156105b257600080fd5b803590602001918460208302840111640100000000831117156105d457600080fd5b9193909290916020810190356401000000008111156105f257600080fd5b82018360208201111561060457600080fd5b8035906020019184602083028401116401000000008311171561062657600080fd5b5090925090506110a6565b610323611231565b6103196004803603602081101561064f57600080fd5b50356001600160a01b0316611237565b61078c600480360360a081101561067557600080fd5b6001600160a01b0382358116926020810135909116918101906060810160408201356401000000008111156106a957600080fd5b8201836020820111156106bb57600080fd5b803590602001918460208302840111640100000000831117156106dd57600080fd5b9193909290916020810190356401000000008111156106fb57600080fd5b82018360208201111561070d57600080fd5b8035906020019184602083028401116401000000008311171561072f57600080fd5b91939092909160208101903564010000000081111561074d57600080fd5b82018360208201111561075f57600080fd5b8035906020019184600183028401116401000000008311171561078157600080fd5b509092509050611348565b604080517fffffffff000000000000000000000000000000000000000000000000000000009092168252519081900360200190f35b610884600480360360a08110156107d757600080fd5b8101906020810181356401000000008111156107f257600080fd5b82018360208201111561080457600080fd5b8035906020019184600183028401116401000000008311171561082657600080fd5b91908080601f016020809104026020016040519081016040528093929190818152602001838380828437600092019190915250929550506001600160a01b038335811694506020840135169260408101359250606001359050611375565b604080519115158252519081900360200190f35b6104c96114b1565b610884600480360360208110156108b657600080fd5b50356001600160a01b03166114c0565b610319600480360360208110156108dc57600080fd5b50356114de565b61078c600480360360a08110156108f957600080fd5b6001600160a01b03823581169260208101359091169160408201359160608101359181019060a08101608082013564010000000081111561093957600080fd5b82018360208201111561094b57600080fd5b8035906020019184600183028401116401000000008311171561096d57600080fd5b509092509050611570565b600260005414156109d0576040805162461bcd60e51b815260206004820152601f60248201527f5265656e7472616e637947756172643a207265656e7472616e742063616c6c00604482015290519081900360640190fd5b60026000556109df8e8d61159b565b610ad68d8d8d8d80806020026020016040519081016040528093929190818152602001838360200280828437600081840152601f19601f820116905080830192505050505050508c8c8c80806020026020016040519081016040528093929190818152602001838360200280828437600081840152601f19601f820116905080830192505050505050508b8b8080602002602001604051908101604052809392919081815260200183836020028082843760009201919091525050604080516020601f8d018190048102820181019092528b815292508b91508a90819084018382808284376000920191909152506116fe92505050565b610b2a8e8c8c6003818110610ae757fe5b9050602002013586868080601f016020809104026020016040519081016040528093929190818152602001838380828437600092019190915250611a8192505050565b610b688e8e8d8d80806020026020016040519081016040528093929190818152602001838360200280828437600092019190915250611ad292505050565b610ba58d898980806020026020016040519081016040528093929190818152602001838360200280828437600092019190915250611ec392505050565b50506001600055505050505050505050505050565b7f000000000000000000000000000000000000000000000000000000000000000090565b7f000000000000000000000000000000000000000000000000000000000000000090565b6001546001600160a01b03163314610c61576040805162461bcd60e51b815260206004820152601260248201527f6f6e6c792061646d696e20616c6c6f7765640000000000000000000000000000604482015290519081900360640190fd5b6001600160a01b038116610cbc576040805162461bcd60e51b815260206004820152601f60248201527f526566657272616c56616c696461746f723a207a65726f206164647265737300604482015290519081900360640190fd5b600380546001600160a01b03908116600090815260056020526040808220620d2f0042019055835473ffffffffffffffffffffffffffffffffffffffff1916928516928317909355915190917fbbb5fb2ee7e707ae0c968f63e94211ea81e66a718c34e2f810a7619e5678a21791a250565b606060008060008060606000806000808a80602001905160a0811015610d5357600080fd5b8101908080516040519392919084640100000000821115610d7357600080fd5b908301906020820185811115610d8857600080fd5b8251640100000000811182820188101715610da257600080fd5b82525081516020918201929091019080838360005b83811015610dcf578181015183820152602001610db7565b50505050905090810190601f168015610dfc5780820380516001836020036101000a031916815260200191505b5060409081526020820151908201516060830151608090930151959f50909d509b5099509197505050505050505091939590929450565b6001546001600160a01b031690565b6001546001600160a01b03163314610e8b5760405162461bcd60e51b8152600401808060200182810382526023815260200180612b056023913960400191505060405180910390fd5b6001600160a01b038116610ee6576040805162461bcd60e51b815260206004820152601f60248201527f526566657272616c56616c696461746f723a207a65726f206164647265737300604482015290519081900360640190fd5b6001600160a01b0316600090815260056020526040812055565b6001546001600160a01b03163314610f5f576040805162461bcd60e51b815260206004820152601260248201527f6f6e6c792061646d696e20616c6c6f7765640000000000000000000000000000604482015290519081900360640190fd5b610f698282612087565b5050565b6001546001600160a01b03163314610fcc576040805162461bcd60e51b815260206004820152601b60248201527f6f6e6c792061646d696e2063616e206368616e67652061646d696e0000000000604482015290519081900360640190fd5b6001546001600160a01b038281169116141561102f576040805162461bcd60e51b815260206004820152600d60248201527f616c72656164792061646d696e00000000000000000000000000000000000000604482015290519081900360640190fd5b600154604080516001600160a01b039283168152918316602083015280517f7e644d79422f17c01e4894b5f4f588d331ebfa28653d42ae832dc59e38c9798f9281900390910190a16001805473ffffffffffffffffffffffffffffffffffffffff19166001600160a01b0392909216919091179055565b6001546001600160a01b03163314611105576040805162461bcd60e51b815260206004820152600e60248201527f4e4f545f415554484f52495a4544000000000000000000000000000000000000604482015290519081900360640190fd5b7f00000000000000000000000000000000000000000000000000000000000000006001600160a01b0316632eb2c2d63087878787876040518763ffffffff1660e01b815260040180876001600160a01b03166001600160a01b03168152602001866001600160a01b03166001600160a01b031681526020018060200180602001806020018481038452888882818152602001925060200280828437600083820152601f01601f19169091018581038452868152602090810191508790870280828437600081840152601f19601f8201169050808301925050508481038252600081526020016020019950505050505050505050600060405180830381600087803b15801561121257600080fd5b505af1158015611226573d6000803e3d6000fd5b505050505050505050565b60045490565b6001600160a01b038116611292576040805162461bcd60e51b815260206004820152600c60248201527f5a45524f5f414444524553530000000000000000000000000000000000000000604482015290519081900360640190fd5b6001546001600160a01b031633146112f1576040805162461bcd60e51b815260206004820152600e60248201527f4e4f545f415554484f52495a4544000000000000000000000000000000000000604482015290519081900360640190fd5b6006805473ffffffffffffffffffffffffffffffffffffffff19166001600160a01b0383169081179091556040517f4d66958b757eb92a1b43d02be4c38c9500b73f532420ee3706cb43d420ba023690600090a250565b7fbc197c810000000000000000000000000000000000000000000000000000000098975050505050505050565b60006004548211806113985750836001600160a01b0316856001600160a01b0316145b806113a257508242115b156113af575060006114a8565b60408051606087811b7fffffffffffffffffffffffffffffffffffffffff0000000000000000000000009081166020808501919091529188901b166034830152604882018690526068808301869052835180840390910181526088830184528051908201207f19457468657265756d205369676e6564204d6573736167653a0a33320000000060a884015260c48084018290528451808503909101815260e49093019093528151910120600090611466908961214e565b6001600160a01b0381166000908152600560205260409020549091504211611493576001925050506114a8565b6003546001600160a01b039081169116149150505b95945050505050565b6003546001600160a01b031690565b6001600160a01b031660009081526002602052604090205460ff1690565b6001546001600160a01b0316331461153d576040805162461bcd60e51b815260206004820152601260248201527f6f6e6c792061646d696e20616c6c6f7765640000000000000000000000000000604482015290519081900360640190fd5b600481905560405181907f774069781371d65424b3b0b101c1d40014532cac040f979595b99a3fcf8ce08c90600090a250565b7ff23a6e61000000000000000000000000000000000000000000000000000000009695505050505050565b7f0000000000000000000000000000000000000000000000000000000000000000421061160f576040805162461bcd60e51b815260206004820152600c60248201527f53414c455f49535f4f5645520000000000000000000000000000000000000000604482015290519081900360640190fd5b6001600160a01b03821633148061163557503360009081526002602052604090205460ff165b611686576040805162461bcd60e51b815260206004820152600e60248201527f4e4f545f415554484f52495a4544000000000000000000000000000000000000604482015290519081900360640190fd5b6001600160a01b03811615806116ad5750816001600160a01b0316816001600160a01b0316145b610f69576040805162461bcd60e51b815260206004820152600d60248201527f52455345525645445f4c414e4400000000000000000000000000000000000000604482015290519081900360640190fd5b600087878760008151811061170f57fe5b60200260200101518860018151811061172457fe5b60200260200101518960028151811061173957fe5b60200260200101518a60038151811061174e57fe5b60200260200101518a8a60405160200180828051906020019060200280838360005b83811015611788578181015183820152602001611770565b50505050905001915050604051602081830303815290604052805190602001208a60405160200180828051906020019060200280838360005b838110156117d95781810151838201526020016117c1565b5050505090500191505060405160208183030381529060405280519060200120604051602001808a6001600160a01b03166001600160a01b031660601b8152601401896001600160a01b03166001600160a01b031660601b81526014018881526020018781526020018681526020018581526020018481526020018381526020018281526020019950505050505050505050604051602081830303815290604052805190602001209050600760009054906101000a90046001600160a01b03166001600160a01b031663012847ed83836040518363ffffffff1660e01b81526004018080602001838152602001828103825284818151815260200191508051906020019080838360005b838110156118fb5781810151838201526020016118e3565b50505050905090810190601f1680156119285780820380516001836020036101000a031916815260200191505b50935050505060206040518083038186803b15801561194657600080fd5b505afa15801561195a573d6000803e3d6000fd5b505050506040513d602081101561197057600080fd5b50516119c3576040805162461bcd60e51b815260206004820152600c60248201527f494e56414c49445f415554480000000000000000000000000000000000000000604482015290519081900360640190fd5b6000611a24876000815181106119d557fe5b6020026020010151886001815181106119ea57fe5b6020026020010151896002815181106119ff57fe5b60200260200101518a600381518110611a1457fe5b60200260200101518c8b8b612337565b9050611a3084826123dc565b611226576040805162461bcd60e51b815260206004820152600c60248201527f494e56414c49445f4c414e440000000000000000000000000000000000000000604482015290519081900360640190fd5b6000611a8d84846124a5565b600654909150611acc908590839085906001600160a01b03167f000000000000000000000000000000000000000000000000000000000000000061253f565b50505050565b80600281518110611adf57fe5b602002602001015160011480611b1c57507f00000000000000000000000000000000000000000000000000000000000000006001600160a01b0316155b15611c1e577f00000000000000000000000000000000000000000000000000000000000000006001600160a01b0316636e1e3bbf8383600281518110611b5e57fe5b602002602001015184600081518110611b7357fe5b602002602001015185600181518110611b8857fe5b60200260200101516040518563ffffffff1660e01b815260040180856001600160a01b03166001600160a01b031681526020018481526020018381526020018281526020018060200182810382526000815260200160200195505050505050600060405180830381600087803b158015611c0157600080fd5b505af1158015611c15573d6000803e3d6000fd5b50505050611dbe565b7f00000000000000000000000000000000000000000000000000000000000000006001600160a01b0316636e1e3bbf7f000000000000000000000000000000000000000000000000000000000000000083600281518110611c7b57fe5b602002602001015184600081518110611c9057fe5b602002602001015185600181518110611ca557fe5b60200260200101518760405160200180826001600160a01b03166001600160a01b031681526020019150506040516020818303038152906040526040518663ffffffff1660e01b815260040180866001600160a01b03166001600160a01b0316815260200185815260200184815260200183815260200180602001828103825283818151815260200191508051906020019080838360005b83811015611d55578181015183820152602001611d3d565b50505050905090810190601f168015611d825780820380516001836020036101000a031916815260200191505b509650505050505050600060405180830381600087803b158015611da557600080fd5b505af1158015611db9573d6000803e3d6000fd5b505050505b61019881600181518110611dce57fe5b60200260200101510281600081518110611de457fe5b602002602001015101826001600160a01b0316846001600160a01b03167fe4dfa6ac11314892f3029b34a25b1a887da3b1cab2bbf8506d87128ba6e3ac0284600281518110611e2f57fe5b602002602001015185600381518110611e4457fe5b60200260200101517f000000000000000000000000000000000000000000000000000000000000000087600381518110611e7a57fe5b602002602001015160405180858152602001848152602001836001600160a01b03166001600160a01b0316815260200182815260200194505050505060405180910390a4505050565b6060815167ffffffffffffffff81118015611edd57600080fd5b50604051908082528060200260200182016040528015611f07578160200160208202803683370190505b50905060005b8251811015611f37576001828281518110611f2457fe5b6020908102919091010152600101611f0d565b507f00000000000000000000000000000000000000000000000000000000000000006001600160a01b0316632eb2c2d6308585856040518563ffffffff1660e01b815260040180856001600160a01b03166001600160a01b03168152602001846001600160a01b03166001600160a01b03168152602001806020018060200180602001848103845286818151815260200191508051906020019060200280838360005b83811015611ff2578181015183820152602001611fda565b50505050905001848103835285818151815260200191508051906020019060200280838360005b83811015612031578181015183820152602001612019565b50505050905001848103825260008152602001602001975050505050505050600060405180830381600087803b15801561206a57600080fd5b505af115801561207e573d6000803e3d6000fd5b50505050505050565b6001600160a01b0382166120cc5760405162461bcd60e51b8152600401808060200182810382526025815260200180612b6b6025913960400191505060405180910390fd5b6001600160a01b03821660008181526002602090815260409182902080547fffffffffffffffffffffffffffffffffffffffffffffffffffffffffffffff001685151590811790915582519384529083015280517fb21eb88b4e33b3f1281830a7178d74d8aa73220416215726b68ae23d539515cb9281900390910190a15050565b600081516041146121a6576040805162461bcd60e51b815260206004820152601f60248201527f45434453413a20696e76616c6964207369676e6174757265206c656e67746800604482015290519081900360640190fd5b60208201516040830151606084015160001a7f7fffffffffffffffffffffffffffffff5d576e7357a4501ddfe92f46681b20a08211156122175760405162461bcd60e51b8152600401808060200182810382526022815260200180612ae36022913960400191505060405180910390fd5b8060ff16601b1415801561222f57508060ff16601c14155b1561226b5760405162461bcd60e51b8152600401808060200182810382526022815260200180612b286022913960400191505060405180910390fd5b60408051600080825260208083018085528a905260ff85168385015260608301879052608083018690529251909260019260a080820193601f1981019281900390910190855afa1580156122c3573d6000803e3d6000fd5b5050604051601f1901519150506001600160a01b03811661232b576040805162461bcd60e51b815260206004820152601860248201527f45434453413a20696e76616c6964207369676e61747572650000000000000000604482015290519081900360640190fd5b93505050505b92915050565b60008787878787878760405160200180888152602001878152602001868152602001858152602001846001600160a01b03166001600160a01b031660601b8152601401838152602001828051906020019060200280838360005b838110156123a9578181015183820152602001612391565b50505050905001975050505050505050604051602081830303815290604052805190602001209050979650505050505050565b600081815b845181101561247b5760008582815181106123f857fe5b60200260200101519050808310156124405782816040516020018083815260200182815260200192505050604051602081830303815290604052805190602001209250612472565b808360405160200180838152602001828152602001925050506040516020818303038152906040528051906020012092505b506001016123e1565b507f0000000000000000000000000000000000000000000000000000000000000000149392505050565b6000806124ca60646124be85600563ffffffff61264716565b9063ffffffff6126a716565b90506125276001600160a01b037f000000000000000000000000000000000000000000000000000000000000000016857f00000000000000000000000000000000000000000000000000000000000000008463ffffffff6126e916565b612537838263ffffffff61277116565b949350505050565b8251819085901561262c57606060008060008061255b8a610d2e565b93985091965094509250905060006125768686868686611375565b15612604576125906125888d84612647565b6127106126a7565b9050886001600160a01b0316846001600160a01b0316866001600160a01b03167fac7a699eb95c3c6d390ec4626de17ef9a67b35891efdb197beba7c7fdd45fac48f858760405180848152602001838152602001828152602001935050505060405180910390a46126018782612771565b96505b8015612625576126256001600160a01b0389168e878463ffffffff6126e916565b5050505050505b61207e6001600160a01b03831688868463ffffffff6126e916565b60008261265657506000612331565b8282028284828161266357fe5b04146126a05760405162461bcd60e51b8152600401808060200182810382526021815260200180612b4a6021913960400191505060405180910390fd5b9392505050565b60006126a083836040518060400160405280601a81526020017f536166654d6174683a206469766973696f6e206279207a65726f0000000000008152506127b3565b604080516001600160a01b0380861660248301528416604482015260648082018490528251808303909101815260849091019091526020810180517bffffffffffffffffffffffffffffffffffffffffffffffffffffffff167f23b872dd00000000000000000000000000000000000000000000000000000000179052611acc908590612855565b60006126a083836040518060400160405280601e81526020017f536166654d6174683a207375627472616374696f6e206f766572666c6f77000081525061290b565b6000818361283f5760405162461bcd60e51b81526004018080602001828103825283818151815260200191508051906020019080838360005b838110156128045781810151838201526020016127ec565b50505050905090810190601f1680156128315780820380516001836020036101000a031916815260200191505b509250505060405180910390fd5b50600083858161284b57fe5b0495945050505050565b60606128aa826040518060400160405280602081526020017f5361666545524332303a206c6f772d6c6576656c2063616c6c206661696c6564815250856001600160a01b03166129659092919063ffffffff16565b805190915015612906578080602001905160208110156128c957600080fd5b50516129065760405162461bcd60e51b815260040180806020018281038252602a815260200180612b90602a913960400191505060405180910390fd5b505050565b6000818484111561295d5760405162461bcd60e51b81526020600482018181528351602484015283519092839260449091019190850190808383600083156128045781810151838201526020016127ec565b505050900390565b60606125378484600085606061297a85612adc565b6129cb576040805162461bcd60e51b815260206004820152601d60248201527f416464726573733a2063616c6c20746f206e6f6e2d636f6e7472616374000000604482015290519081900360640190fd5b60006060866001600160a01b031685876040518082805190602001908083835b60208310612a0a5780518252601f1990920191602091820191016129eb565b6001836020036101000a03801982511681845116808217855250505050505090500191505060006040518083038185875af1925050503d8060008114612a6c576040519150601f19603f3d011682016040523d82523d6000602084013e612a71565b606091505b50915091508115612a855791506125379050565b805115612a955780518082602001fd5b60405162461bcd60e51b81526020600482018181528651602484015286518793919283926044019190850190808383600083156128045781810151838201526020016127ec565b3b15159056fe45434453413a20696e76616c6964207369676e6174757265202773272076616c7565526566657272616c56616c696461746f723a2053656e646572206e6f742061646d696e45434453413a20696e76616c6964207369676e6174757265202776272076616c7565536166654d6174683a206d756c7469706c69636174696f6e206f766572666c6f774d6574615472616e73616374696f6e52656365697665723a207a65726f20616464726573735361666545524332303a204552433230206f7065726174696f6e20646964206e6f742073756363656564a264697066735822122077f2d13cbcb85fa08010a53c1e4ef27117b031e8c1c9273d55cef362af299f3164736f6c6343000605003345737461746553616c6557697468417574683a207a65726f20616464726573734d6574615472616e73616374696f6e52656365697665723a207a65726f206164647265737345737461746553616c6557697468417574683a206973206e6f74206120636f6e7472616374",
  "devdoc": {
    "methods": {
      "buyLandWithSand(address,address,address,uint256[],bytes32,uint256[],bytes32[],bytes,bytes)": {
        "params": {
          "assetIds": "asset ids (lands) that will be bought",
          "buyer": "address that perform the payment",
          "info": "[X_INDEX=0] x coordinate of the Land [Y_INDEX=1] y coordinate of the Land [SIZE_INDEX=2] size of the pack of Land to purchase [PRICE_INDEX=3] price in SAND to purchase that Land",
          "proof": "merkleProof for that particular Land",
          "referral": "referral id",
          "reserved": "the reserved address (if any)",
          "salt": "The salt submitted for verification.",
          "signature": "A signed message specifying tx details",
          "to": "address that will own the purchased Land"
        }
      },
      "changeAdmin(address)": {
        "details": "change the administrator to be `newAdmin`.",
        "params": {
          "newAdmin": "address of the new administrator."
        }
      },
      "disablePreviousSigningWallet(address)": {
        "details": "Disable compromised signing wallet",
        "params": {
          "disableWallet": "The wallet address to be disabled"
        }
      },
      "getAdmin()": {
        "details": "gives the current administrator of this contract.",
        "returns": {
          "_0": "the current administrator of this contract."
        }
      },
      "getSigningWallet()": {
        "details": "signing wallet authorized for referral",
        "returns": {
          "_0": "the address of the signing wallet"
        }
      },
      "isMetaTransactionProcessor(address)": {
        "details": "check whether address `who` is given meta-transaction execution rights.",
        "params": {
          "who": "The address to query."
        },
        "returns": {
          "_0": "whether the address has meta-transaction execution rights."
        }
      },
      "isReferralValid(bytes,address,address,uint256,uint256)": {
        "params": {
          "commissionRate": "The commissionRate of the referral",
          "expiryTime": "The expiry time of the referral",
          "referee": "The address of the referee",
          "referrer": "The address of the referrer",
          "signature": "The signature to check (signed referral)"
        },
        "returns": {
          "_0": "True if the referral is valid"
        }
      },
      "setMetaTransactionProcessor(address,bool)": {
        "details": "Enable or disable the ability of `metaTransactionProcessor` to perform meta-tx (metaTransactionProcessor rights).",
        "params": {
          "enabled": "set whether the metaTransactionProcessor is enabled or disabled.",
          "metaTransactionProcessor": "address that will be given/removed metaTransactionProcessor rights."
        }
      },
      "setReceivingWallet(address)": {
        "params": {
          "newWallet": "address of the new receiving wallet"
        }
      },
      "updateMaxCommissionRate(uint256)": {
        "details": "Update the maximum commission rate",
        "params": {
          "newMaxCommissionRate": "The new maximum commission rate"
        }
      },
      "updateSigningWallet(address)": {
        "details": "Update the signing wallet The previous wallet is still valid for a grace period (_previousSigningDelay). If you want to disable the previous wallet, use the disablePreviousSigningWallet function.",
        "params": {
          "newSigningWallet": "The new address of the signing wallet"
        }
      },
      "withdrawAssets(address,uint256[],uint256[])": {
        "params": {
          "assetIds": "the assetIds to be transferred",
          "to": "intended recipient of the asset tokens",
          "values": "the quantities of the assetIds to be transferred"
        }
      }
    },
    "title": "Estate Sale contract with referral"
  },
  "userdoc": {
    "methods": {
      "buyLandWithSand(address,address,address,uint256[],bytes32,uint256[],bytes32[],bytes,bytes)": {
        "notice": "buy Land with SAND using the merkle proof associated with it"
      },
      "getExpiryTime()": {
        "notice": "Gets the expiry time for the current sale"
      },
      "getMaxCommissionRate()": {
        "notice": "the max commission rate"
      },
      "getMerkleRoot()": {
        "notice": "Gets the Merkle root associated with the current sale"
      },
      "isReferralValid(bytes,address,address,uint256,uint256)": {
        "notice": "Check if a referral is valid"
      },
      "setReceivingWallet(address)": {
        "notice": "set the wallet receiving the proceeds"
      },
      "withdrawAssets(address,uint256[],uint256[])": {
        "notice": "enable Admin to withdraw remaining assets from EstateSaleWithFee contract"
      }
    },
    "notice": "This contract manages the sale of our lands as Estates"
  },
  "storageLayout": {
    "storage": [
      {
        "astId": 1129,
        "contract": "src/solc_0.6/EstateSale/EstateSaleWithAuth.sol:EstateSaleWithAuth",
        "label": "_status",
        "offset": 0,
        "slot": "0",
        "type": "t_uint256"
      },
      {
        "astId": 14099,
        "contract": "src/solc_0.6/EstateSale/EstateSaleWithAuth.sol:EstateSaleWithAuth",
        "label": "_admin",
        "offset": 0,
        "slot": "1",
        "type": "t_address"
      },
      {
        "astId": 14168,
        "contract": "src/solc_0.6/EstateSale/EstateSaleWithAuth.sol:EstateSaleWithAuth",
        "label": "_metaTransactionContracts",
        "offset": 0,
        "slot": "2",
        "type": "t_mapping(t_address,t_bool)"
      },
      {
        "astId": 12200,
        "contract": "src/solc_0.6/EstateSale/EstateSaleWithAuth.sol:EstateSaleWithAuth",
        "label": "_signingWallet",
        "offset": 0,
        "slot": "3",
        "type": "t_address"
      },
      {
        "astId": 12202,
        "contract": "src/solc_0.6/EstateSale/EstateSaleWithAuth.sol:EstateSaleWithAuth",
        "label": "_maxCommissionRate",
        "offset": 0,
        "slot": "4",
        "type": "t_uint256"
      },
      {
        "astId": 12206,
        "contract": "src/solc_0.6/EstateSale/EstateSaleWithAuth.sol:EstateSaleWithAuth",
        "label": "_previousSigningWallets",
        "offset": 0,
        "slot": "5",
        "type": "t_mapping(t_address,t_uint256)"
      },
      {
        "astId": 7750,
        "contract": "src/solc_0.6/EstateSale/EstateSaleWithAuth.sol:EstateSaleWithAuth",
        "label": "_wallet",
        "offset": 0,
        "slot": "6",
        "type": "t_address_payable"
      },
      {
        "astId": 7752,
        "contract": "src/solc_0.6/EstateSale/EstateSaleWithAuth.sol:EstateSaleWithAuth",
        "label": "_authValidator",
        "offset": 0,
        "slot": "7",
        "type": "t_contract(AuthValidator)7063"
      }
    ],
    "types": {
      "t_address": {
        "encoding": "inplace",
        "label": "address",
        "numberOfBytes": "20"
      },
      "t_address_payable": {
        "encoding": "inplace",
        "label": "address payable",
        "numberOfBytes": "20"
      },
      "t_bool": {
        "encoding": "inplace",
        "label": "bool",
        "numberOfBytes": "1"
      },
      "t_contract(AuthValidator)7063": {
        "encoding": "inplace",
        "label": "contract AuthValidator",
        "numberOfBytes": "20"
      },
      "t_mapping(t_address,t_bool)": {
        "encoding": "mapping",
        "key": "t_address",
        "label": "mapping(address => bool)",
        "numberOfBytes": "32",
        "value": "t_bool"
      },
      "t_mapping(t_address,t_uint256)": {
        "encoding": "mapping",
        "key": "t_address",
        "label": "mapping(address => uint256)",
        "numberOfBytes": "32",
        "value": "t_uint256"
      },
      "t_uint256": {
        "encoding": "inplace",
        "label": "uint256",
        "numberOfBytes": "32"
      }
    }
  }
}