{
  "address": "0xFC7910C56B627136e566a157BA503026638b33cb",
  "abi": [
    {
      "inputs": [
        {
          "internalType": "address",
          "name": "landAddress",
          "type": "address"
        },
        {
          "internalType": "address",
          "name": "sandContractAddress",
          "type": "address"
        },
        {
          "internalType": "address",
          "name": "initialMetaTx",
          "type": "address"
        },
        {
          "internalType": "address",
          "name": "admin",
          "type": "address"
        },
        {
          "internalType": "address payable",
          "name": "initialWalletAddress",
          "type": "address"
        },
        {
          "internalType": "bytes32",
          "name": "merkleRoot",
          "type": "bytes32"
        },
        {
          "internalType": "uint256",
          "name": "expiryTime",
          "type": "uint256"
        },
        {
          "internalType": "address",
          "name": "initialSigningWallet",
          "type": "address"
        },
        {
          "internalType": "uint256",
          "name": "initialMaxCommissionRate",
          "type": "uint256"
        },
        {
          "internalType": "address",
          "name": "estate",
          "type": "address"
        },
        {
          "internalType": "address",
          "name": "asset",
          "type": "address"
        },
        {
          "internalType": "address",
          "name": "feeDistributor",
          "type": "address"
        },
        {
          "internalType": "address",
          "name": "authValidator",
          "type": "address"
        }
      ],
      "stateMutability": "nonpayable",
      "type": "constructor"
    },
    {
      "anonymous": false,
      "inputs": [
        {
          "indexed": false,
          "internalType": "address",
          "name": "oldAdmin",
          "type": "address"
        },
        {
          "indexed": false,
          "internalType": "address",
          "name": "newAdmin",
          "type": "address"
        }
      ],
      "name": "AdminChanged",
      "type": "event"
    },
    {
      "anonymous": false,
      "inputs": [
        {
          "indexed": true,
          "internalType": "address",
          "name": "buyer",
          "type": "address"
        },
        {
          "indexed": true,
          "internalType": "address",
          "name": "to",
          "type": "address"
        },
        {
          "indexed": true,
          "internalType": "uint256",
          "name": "topCornerId",
          "type": "uint256"
        },
        {
          "indexed": false,
          "internalType": "uint256",
          "name": "size",
          "type": "uint256"
        },
        {
          "indexed": false,
          "internalType": "uint256",
          "name": "price",
          "type": "uint256"
        },
        {
          "indexed": false,
          "internalType": "address",
          "name": "token",
          "type": "address"
        },
        {
          "indexed": false,
          "internalType": "uint256",
          "name": "amountPaid",
          "type": "uint256"
        }
      ],
      "name": "LandQuadPurchased",
      "type": "event"
    },
    {
      "anonymous": false,
      "inputs": [
        {
          "indexed": true,
          "internalType": "uint256",
          "name": "newMaxCommissionRate",
          "type": "uint256"
        }
      ],
      "name": "MaxCommissionRateUpdated",
      "type": "event"
    },
    {
      "anonymous": false,
      "inputs": [
        {
          "indexed": false,
          "internalType": "address",
          "name": "metaTransactionProcessor",
          "type": "address"
        },
        {
          "indexed": false,
          "internalType": "bool",
          "name": "enabled",
          "type": "bool"
        }
      ],
      "name": "MetaTransactionProcessor",
      "type": "event"
    },
    {
      "anonymous": false,
      "inputs": [
        {
          "indexed": true,
          "internalType": "address",
          "name": "newWallet",
          "type": "address"
        }
      ],
      "name": "NewReceivingWallet",
      "type": "event"
    },
    {
      "anonymous": false,
      "inputs": [
        {
          "indexed": true,
          "internalType": "address",
          "name": "referrer",
          "type": "address"
        },
        {
          "indexed": true,
          "internalType": "address",
          "name": "referee",
          "type": "address"
        },
        {
          "indexed": true,
          "internalType": "address",
          "name": "token",
          "type": "address"
        },
        {
          "indexed": false,
          "internalType": "uint256",
          "name": "amount",
          "type": "uint256"
        },
        {
          "indexed": false,
          "internalType": "uint256",
          "name": "commission",
          "type": "uint256"
        },
        {
          "indexed": false,
          "internalType": "uint256",
          "name": "commissionRate",
          "type": "uint256"
        }
      ],
      "name": "ReferralUsed",
      "type": "event"
    },
    {
      "anonymous": false,
      "inputs": [
        {
          "indexed": true,
          "internalType": "address",
          "name": "newSigningWallet",
          "type": "address"
        }
      ],
      "name": "SigningWalletUpdated",
      "type": "event"
    },
    {
      "inputs": [
        {
          "internalType": "address",
          "name": "buyer",
          "type": "address"
        },
        {
          "internalType": "address",
          "name": "to",
          "type": "address"
        },
        {
          "internalType": "address",
          "name": "reserved",
          "type": "address"
        },
        {
          "internalType": "uint256[]",
          "name": "info",
          "type": "uint256[]"
        },
        {
          "internalType": "bytes32",
          "name": "salt",
          "type": "bytes32"
        },
        {
          "internalType": "uint256[]",
          "name": "assetIds",
          "type": "uint256[]"
        },
        {
          "internalType": "bytes32[]",
          "name": "proof",
          "type": "bytes32[]"
        },
        {
          "internalType": "bytes",
          "name": "referral",
          "type": "bytes"
        },
        {
          "internalType": "bytes",
          "name": "signature",
          "type": "bytes"
        }
      ],
      "name": "buyLandWithSand",
      "outputs": [],
      "stateMutability": "nonpayable",
      "type": "function"
    },
    {
      "inputs": [
        {
          "internalType": "address",
          "name": "newAdmin",
          "type": "address"
        }
      ],
      "name": "changeAdmin",
      "outputs": [],
      "stateMutability": "nonpayable",
      "type": "function"
    },
    {
      "inputs": [
        {
          "internalType": "bytes",
          "name": "referral",
          "type": "bytes"
        }
      ],
      "name": "decodeReferral",
      "outputs": [
        {
          "internalType": "bytes",
          "name": "",
          "type": "bytes"
        },
        {
          "internalType": "address",
          "name": "",
          "type": "address"
        },
        {
          "internalType": "address",
          "name": "",
          "type": "address"
        },
        {
          "internalType": "uint256",
          "name": "",
          "type": "uint256"
        },
        {
          "internalType": "uint256",
          "name": "",
          "type": "uint256"
        }
      ],
      "stateMutability": "pure",
      "type": "function"
    },
    {
      "inputs": [
        {
          "internalType": "address",
          "name": "disableWallet",
          "type": "address"
        }
      ],
      "name": "disablePreviousSigningWallet",
      "outputs": [],
      "stateMutability": "nonpayable",
      "type": "function"
    },
    {
      "inputs": [],
      "name": "getAdmin",
      "outputs": [
        {
          "internalType": "address",
          "name": "",
          "type": "address"
        }
      ],
      "stateMutability": "view",
      "type": "function"
    },
    {
      "inputs": [],
      "name": "getExpiryTime",
      "outputs": [
        {
          "internalType": "uint256",
          "name": "",
          "type": "uint256"
        }
      ],
      "stateMutability": "view",
      "type": "function"
    },
    {
      "inputs": [],
      "name": "getMaxCommissionRate",
      "outputs": [
        {
          "internalType": "uint256",
          "name": "",
          "type": "uint256"
        }
      ],
      "stateMutability": "view",
      "type": "function"
    },
    {
      "inputs": [],
      "name": "getMerkleRoot",
      "outputs": [
        {
          "internalType": "bytes32",
          "name": "",
          "type": "bytes32"
        }
      ],
      "stateMutability": "view",
      "type": "function"
    },
    {
      "inputs": [],
      "name": "getSigningWallet",
      "outputs": [
        {
          "internalType": "address",
          "name": "",
          "type": "address"
        }
      ],
      "stateMutability": "view",
      "type": "function"
    },
    {
      "inputs": [
        {
          "internalType": "address",
          "name": "who",
          "type": "address"
        }
      ],
      "name": "isMetaTransactionProcessor",
      "outputs": [
        {
          "internalType": "bool",
          "name": "",
          "type": "bool"
        }
      ],
      "stateMutability": "view",
      "type": "function"
    },
    {
      "inputs": [
        {
          "internalType": "bytes",
          "name": "signature",
          "type": "bytes"
        },
        {
          "internalType": "address",
          "name": "referrer",
          "type": "address"
        },
        {
          "internalType": "address",
          "name": "referee",
          "type": "address"
        },
        {
          "internalType": "uint256",
          "name": "expiryTime",
          "type": "uint256"
        },
        {
          "internalType": "uint256",
          "name": "commissionRate",
          "type": "uint256"
        }
      ],
      "name": "isReferralValid",
      "outputs": [
        {
          "internalType": "bool",
          "name": "",
          "type": "bool"
        }
      ],
      "stateMutability": "view",
      "type": "function"
    },
    {
      "inputs": [
        {
          "internalType": "address",
          "name": "",
          "type": "address"
        },
        {
          "internalType": "address",
          "name": "",
          "type": "address"
        },
        {
          "internalType": "uint256[]",
          "name": "",
          "type": "uint256[]"
        },
        {
          "internalType": "uint256[]",
          "name": "",
          "type": "uint256[]"
        },
        {
          "internalType": "bytes",
          "name": "",
          "type": "bytes"
        }
      ],
      "name": "onERC1155BatchReceived",
      "outputs": [
        {
          "internalType": "bytes4",
          "name": "",
          "type": "bytes4"
        }
      ],
      "stateMutability": "pure",
      "type": "function"
    },
    {
      "inputs": [
        {
          "internalType": "address",
          "name": "",
          "type": "address"
        },
        {
          "internalType": "address",
          "name": "",
          "type": "address"
        },
        {
          "internalType": "uint256",
          "name": "",
          "type": "uint256"
        },
        {
          "internalType": "uint256",
          "name": "",
          "type": "uint256"
        },
        {
          "internalType": "bytes",
          "name": "",
          "type": "bytes"
        }
      ],
      "name": "onERC1155Received",
      "outputs": [
        {
          "internalType": "bytes4",
          "name": "",
          "type": "bytes4"
        }
      ],
      "stateMutability": "pure",
      "type": "function"
    },
    {
      "inputs": [
        {
          "internalType": "address",
          "name": "metaTransactionProcessor",
          "type": "address"
        },
        {
          "internalType": "bool",
          "name": "enabled",
          "type": "bool"
        }
      ],
      "name": "setMetaTransactionProcessor",
      "outputs": [],
      "stateMutability": "nonpayable",
      "type": "function"
    },
    {
      "inputs": [
        {
          "internalType": "address payable",
          "name": "newWallet",
          "type": "address"
        }
      ],
      "name": "setReceivingWallet",
      "outputs": [],
      "stateMutability": "nonpayable",
      "type": "function"
    },
    {
      "inputs": [
        {
          "internalType": "uint256",
          "name": "newMaxCommissionRate",
          "type": "uint256"
        }
      ],
      "name": "updateMaxCommissionRate",
      "outputs": [],
      "stateMutability": "nonpayable",
      "type": "function"
    },
    {
      "inputs": [
        {
          "internalType": "address",
          "name": "newSigningWallet",
          "type": "address"
        }
      ],
      "name": "updateSigningWallet",
      "outputs": [],
      "stateMutability": "nonpayable",
      "type": "function"
    },
    {
      "inputs": [
        {
          "internalType": "address",
          "name": "to",
          "type": "address"
        },
        {
          "internalType": "uint256[]",
          "name": "assetIds",
          "type": "uint256[]"
        },
        {
          "internalType": "uint256[]",
          "name": "values",
          "type": "uint256[]"
        }
      ],
      "name": "withdrawAssets",
      "outputs": [],
      "stateMutability": "nonpayable",
      "type": "function"
    }
  ],
  "transactionHash": "0xc4740c1ddbf40949958f8ae093f5ba635fd1ed8f48f8384648fadfece59aafa2",
  "args": [
    "0x9d305a42A3975Ee4c1C57555BeD5919889DCE63F",
    "0xBbba073C31bF03b8ACf7c28EF0738DeCF3695683",
    "0xBbba073C31bF03b8ACf7c28EF0738DeCF3695683",
    "0x7A9fe22691c811ea339D9B73150e6911a5343DcA",
    "0x1b47567CBE36e63293A7A2018F79687f942aB24C",
    "0x7425cd68561c6c95088e8bd0a82fca45e7d1360bae41faa6d10446515b122d13",
    1671537600,
    "0x3044719d139F866a44c988823513eCB93060bF1b",
    2000,
    "0x0000000000000000000000000000000000000000",
    "0xd19cc137bb848d3a48ad8ad883886b67c26761dc",
    "0x42a4a3795446A4c070565da201c6303fC78a2569",
    "0x7804fb2AF15bB1323795A888B09913cEf629Ffda"
  ],
  "numDeployments": 1,
  "linkedData": [
    {
      "x": 175,
      "y": 135,
      "size": 1,
      "price": "1011000000000000000000",
      "reserved": "",
      "salt": "0xe81a49f945316d91a890546d43ebbe4df463d7ab2e95cff4d60b8feabecfbf53",
      "assetIds": []
    },
    {
      "x": 175,
      "y": 136,
      "size": 1,
      "price": "1011000000000000000000",
      "reserved": "",
      "salt": "0x5fe0b9591bc51972b270cbf483de6d52fab771bfd53769c63ccc5d6899909c53",
      "assetIds": []
    },
    {
      "x": 175,
      "y": 137,
      "size": 1,
      "price": "1011000000000000000000",
      "reserved": "",
      "salt": "0xa5680ec6f8b946f3ad33867dd59c1768f44c594fa39ca25369b4cd3ab3cb3739",
      "assetIds": []
    },
    {
      "x": 175,
      "y": 138,
      "size": 1,
      "price": "1011000000000000000000",
      "reserved": "",
      "salt": "0xf00a34ddf29d535463d9e84d783e805a78b611f583049e62e625b9e9f12e75af",
      "assetIds": []
    },
    {
      "x": 175,
      "y": 139,
      "size": 1,
      "price": "1011000000000000000000",
      "reserved": "",
      "salt": "0x9d8f32cc076506b986fd964292f364c2be46a80483cb4af4f7e0229ae7f018a9",
      "assetIds": []
    },
    {
      "x": 175,
      "y": 140,
      "size": 1,
      "price": "1011000000000000000000",
      "reserved": "",
      "salt": "0x27f58d16f72b54d669a8340eda963a698e4407660625af428c01920a49277d2c",
      "assetIds": []
    },
    {
      "x": 175,
      "y": 141,
      "size": 1,
      "price": "1011000000000000000000",
      "reserved": "",
      "salt": "0x043c7954fdadbdc00ac98f7a4e796c24a063a2907541941998d013b88c145218",
      "assetIds": []
    },
    {
      "x": 175,
      "y": 142,
      "size": 1,
      "price": "1011000000000000000000",
      "reserved": "",
      "salt": "0x9d24a57a3d4e8cf37453cbdbb3d7ded31b950a1132a89aaa0e16bc9e5a370729",
      "assetIds": []
    },
    {
      "x": 175,
      "y": 143,
      "size": 1,
      "price": "1011000000000000000000",
      "reserved": "",
      "salt": "0x708b05bae794efbbb241855b562d2c42e5a4a3aa53fe878ff3b90f71c4af4f90",
      "assetIds": []
    },
    {
      "x": 175,
      "y": 144,
      "size": 1,
      "price": "1011000000000000000000",
      "reserved": "",
      "salt": "0x968f12e5c56ce458627fd2f80523b700fcc3fc858f8df50d025dfa8346b51053",
      "assetIds": []
    },
    {
      "x": 175,
      "y": 145,
      "size": 1,
      "price": "1011000000000000000000",
      "reserved": "",
      "salt": "0x045a4d4be3a46af6bdc8f1a44b1bc0134e49c6458c393ffb6d7b3449bdded56e",
      "assetIds": []
    },
    {
      "x": 175,
      "y": 146,
      "size": 1,
      "price": "1011000000000000000000",
      "reserved": "",
      "salt": "0x5be10691d4e11bdbcdb73646beb06502d70ebc5d8d6198bb762573c7036ddcc5",
      "assetIds": []
    },
    {
      "x": 175,
      "y": 147,
      "size": 1,
      "price": "1011000000000000000000",
      "reserved": "",
      "salt": "0xd3a53b55b3f246ac629e775497399e6a6996067be993000f7dc2370d453ef767",
      "assetIds": []
    },
    {
      "x": 175,
      "y": 148,
      "size": 1,
      "price": "1011000000000000000000",
      "reserved": "",
      "salt": "0x60987dd0a212298e948702584bb82e92b5e848f3fa8aa504ef1566ab14d6613f",
      "assetIds": []
    },
    {
      "x": 175,
      "y": 149,
      "size": 1,
      "price": "1011000000000000000000",
      "reserved": "",
      "salt": "0xbbb5398c8625ecaac32aeb9c21e10ef031bf1a38feabb7b322abf046267388dc",
      "assetIds": []
    },
    {
      "x": 175,
      "y": 150,
      "size": 1,
      "price": "1011000000000000000000",
      "reserved": "",
      "salt": "0x62a27cfbfd94249a2d2d2dfa5bc6d041f262cef573e5c23490c20267d37ff01f",
      "assetIds": []
    },
    {
      "x": 175,
      "y": 151,
      "size": 1,
      "price": "1011000000000000000000",
      "reserved": "",
      "salt": "0x14bd3b9733dac79067aee351893ff9238524331048de3ed242b10b255aea8901",
      "assetIds": []
    },
    {
      "x": 175,
      "y": 152,
      "size": 1,
      "price": "1011000000000000000000",
      "reserved": "",
      "salt": "0xce599decf8c88221d4ec44a9d06da4e38bff79373f542de4c121a6604b5f12f5",
      "assetIds": []
    },
    {
      "x": 175,
      "y": 153,
      "size": 1,
      "price": "1011000000000000000000",
      "reserved": "",
      "salt": "0xf3a28413dacc54aecca14c0027a12b464aa843cf06670e90315e68736879dece",
      "assetIds": []
    },
    {
      "x": 175,
      "y": 154,
      "size": 1,
      "price": "1011000000000000000000",
      "reserved": "",
      "salt": "0x4f7b20fa99be42b2eb6420cfa4324d511299ca0bc78b148ab5917dffbd9ca845",
      "assetIds": []
    },
    {
      "x": 175,
      "y": 155,
      "size": 1,
      "price": "1011000000000000000000",
      "reserved": "",
      "salt": "0xe646c5a8f52d5143fd8ef793317df9675fbf75a9b40f8cd9f19cd6945f9574b2",
      "assetIds": []
    },
    {
      "x": 175,
      "y": 156,
      "size": 1,
      "price": "1011000000000000000000",
      "reserved": "",
      "salt": "0x41188df7320d41cd1b82ad13bf9dd360f778642a51b0ec36f6a4270209932863",
      "assetIds": []
    },
    {
      "x": 175,
      "y": 157,
      "size": 1,
      "price": "1011000000000000000000",
      "reserved": "",
      "salt": "0x4c440f4a3576207af1027432ea6601f599d21c7cadf688cb66519639e0b737b3",
      "assetIds": []
    },
    {
      "x": 175,
      "y": 158,
      "size": 1,
      "price": "1011000000000000000000",
      "reserved": "",
      "salt": "0xd64a476110fb10a44cc5f21bc43a78d72b25eb6f9d0d5107b79afa67b2bd9c71",
      "assetIds": []
    },
    {
      "x": 175,
      "y": 159,
      "size": 1,
      "price": "1011000000000000000000",
      "reserved": "",
      "salt": "0xd83527fbbdf1cca3f9233df4eb7f17e3864ae1ada2b1e728cff12aaf494057d2",
      "assetIds": []
    },
    {
      "x": 175,
      "y": 160,
      "size": 1,
      "price": "1011000000000000000000",
      "reserved": "",
      "salt": "0x2fec4aaf6df62b8fbd211beecb10d5716dbc361ac36e03b092be1c094da4412a",
      "assetIds": []
    },
    {
      "x": 175,
      "y": 161,
      "size": 1,
      "price": "1011000000000000000000",
      "reserved": "",
      "salt": "0xfdc8844c63628fbf011fc969bedbdc178c878e48ab05ce88ea584af7c20d15b6",
      "assetIds": []
    },
    {
      "x": 176,
      "y": 135,
      "size": 1,
      "price": "1011000000000000000000",
      "reserved": "",
      "salt": "0x3cd019524da11b78c82bfdd56b44d5eef5abccf863f33611660affee6387669a",
      "assetIds": []
    },
    {
      "x": 176,
      "y": 136,
      "size": 1,
      "price": "1011000000000000000000",
      "reserved": "",
      "salt": "0xd08b6a6d650782f429bedc2a836cc03282f84dac926c8cc4fe34801898900cfd",
      "assetIds": []
    },
    {
      "x": 176,
      "y": 137,
      "size": 1,
      "price": "1011000000000000000000",
      "reserved": "",
      "salt": "0x07462a10c7f88c66d5c4182bbf934566389e406804beb96cdd62795e0379c9a5",
      "assetIds": []
    },
    {
      "x": 176,
      "y": 138,
      "size": 1,
      "price": "1011000000000000000000",
      "reserved": "",
      "salt": "0x7a54ea4c9cfb832e2d76f7b3a51ee7c0f6c81e741be7d082d447d00ff2f3e54d",
      "assetIds": []
    },
    {
      "x": 176,
      "y": 139,
      "size": 1,
      "price": "1011000000000000000000",
      "reserved": "",
      "salt": "0xfc1fc4d638816baac4e05853614f2cba56bc52a5d260e416597f226bc6c4eade",
      "assetIds": []
    },
    {
      "x": 176,
      "y": 140,
      "size": 1,
      "price": "1011000000000000000000",
      "reserved": "",
      "salt": "0x25f0f85b37cc9a3516ea0ec48198bee6ad340bee57759a25e4758b99a51c594b",
      "assetIds": []
    },
    {
      "x": 176,
      "y": 141,
      "size": 1,
      "price": "1011000000000000000000",
      "reserved": "",
      "salt": "0xb73fe078825598d5cc9c1d808116d580be49b124dd9689ef51da399d153d8ba7",
      "assetIds": []
    },
    {
      "x": 176,
      "y": 142,
      "size": 1,
      "price": "1011000000000000000000",
      "reserved": "",
      "salt": "0xfaec8938a0cd7704d6e2ec97c95cd2eafd7ee5f03955f66038a2d3196f0d5935",
      "assetIds": []
    },
    {
      "x": 176,
      "y": 143,
      "size": 1,
      "price": "1011000000000000000000",
      "reserved": "",
      "salt": "0x6dfc130f6c1b36f6f091658fc66fe2aa3dc57fdb04571ae7003e81eb51a24db5",
      "assetIds": []
    },
    {
      "x": 176,
      "y": 144,
      "size": 1,
      "price": "1011000000000000000000",
      "reserved": "",
      "salt": "0x5e120aa00bf6befea0dd122e6f67c257dd1ef08e01850d9e5144fb77cb1c5351",
      "assetIds": []
    },
    {
      "x": 176,
      "y": 145,
      "size": 1,
      "price": "1011000000000000000000",
      "reserved": "",
      "salt": "0x7b5b2172ec881fc5e0e30c5ce999cb7e3c75ec99a97444bfe3d451dfb36bf260",
      "assetIds": []
    },
    {
      "x": 176,
      "y": 146,
      "size": 1,
      "price": "1011000000000000000000",
      "reserved": "",
      "salt": "0x04b67ef2af9861479b6565a5130a2237fc587b509bdaa736b7342e621bd65f9a",
      "assetIds": []
    },
    {
      "x": 176,
      "y": 147,
      "size": 1,
      "price": "1011000000000000000000",
      "reserved": "0x7a9fe22691c811ea339d9b73150e6911a5343dca",
      "salt": "0x5d7d88acc213e61da9321300f2e670a8767e496c57a26cd778097782abd4fbd6",
      "assetIds": []
    },
    {
      "x": 176,
      "y": 148,
      "size": 1,
      "price": "1011000000000000000000",
      "reserved": "",
      "salt": "0x1da33ba5cc549f1ea1ba5d263732f297ad226b409ea9529c00b0b4c545aecc5e",
      "assetIds": []
    },
    {
      "x": 176,
      "y": 149,
      "size": 1,
      "price": "1011000000000000000000",
      "reserved": "",
      "salt": "0xf2776d92c0c71b1828fa9396b442aae27931a4ab369bddb5ae132deb9f488285",
      "assetIds": []
    },
    {
      "x": 176,
      "y": 150,
      "size": 1,
      "price": "1011000000000000000000",
      "reserved": "",
      "salt": "0x023ce7061d2792df147b7cc1567aa849c9581ad923b4cd934cff5cd8931b01e1",
      "assetIds": []
    },
    {
      "x": 176,
      "y": 151,
      "size": 1,
      "price": "1011000000000000000000",
      "reserved": "",
      "salt": "0xe75d784a834ad687e58e9a16ae0110024d2743a1ea8f9138712b2c7089cfd804",
      "assetIds": []
    },
    {
      "x": 176,
      "y": 152,
      "size": 1,
      "price": "1011000000000000000000",
      "reserved": "",
      "salt": "0x0540d5b468018222a384cde3dce9d9e1053cb6e939a557a5f197af9c1f8ceb81",
      "assetIds": []
    },
    {
      "x": 176,
      "y": 153,
      "size": 1,
      "price": "1011000000000000000000",
      "reserved": "",
      "salt": "0x1f8ac496e7a37f0006e2bd4282a18e9e432afa18283efffc17140dd35323031f",
      "assetIds": []
    },
    {
      "x": 176,
      "y": 154,
      "size": 1,
      "price": "1011000000000000000000",
      "reserved": "",
      "salt": "0xb7a038f402e17c5c0895ed960db5b94c26c91ef86c3d60d1c43301259495bfab",
      "assetIds": []
    },
    {
      "x": 176,
      "y": 155,
      "size": 1,
      "price": "1011000000000000000000",
      "reserved": "",
      "salt": "0x2a2e0bc7eaa5ec0ed630af90e1fdff7bbe9e7e0879f50d81d26786ca8403c744",
      "assetIds": []
    },
    {
      "x": 176,
      "y": 156,
      "size": 1,
      "price": "1011000000000000000000",
      "reserved": "",
      "salt": "0x5efa75f4cdf08740f82e779ae59c3fb5ab3b32398be924591def8a4be8047886",
      "assetIds": []
    },
    {
      "x": 176,
      "y": 157,
      "size": 1,
      "price": "1011000000000000000000",
      "reserved": "",
      "salt": "0x74476e3392d45285a9349ea6754a4b1c27070d62df1cc3611acc332de775ede7",
      "assetIds": []
    },
    {
      "x": 176,
      "y": 158,
      "size": 1,
      "price": "1011000000000000000000",
      "reserved": "",
      "salt": "0x02ced63b396177d43dfb3c67c1ce27df9b5b84cdee9ae5f9557ec92283b9f50b",
      "assetIds": []
    },
    {
      "x": 176,
      "y": 159,
      "size": 1,
      "price": "1011000000000000000000",
      "reserved": "",
      "salt": "0x10e08a290db391fae819114f3d003c8df1ac970ae7f188957f8e6af1cdef254c",
      "assetIds": []
    },
    {
      "x": 176,
      "y": 160,
      "size": 1,
      "price": "1011000000000000000000",
      "reserved": "",
      "salt": "0xce88a92465316427948a315ce6b18a8e4263bc674fb786d4afcfb7128246e34e",
      "assetIds": []
    },
    {
      "x": 176,
      "y": 161,
      "size": 1,
      "price": "1011000000000000000000",
      "reserved": "",
      "salt": "0xc6f0861d36859791cd64cedd95e7a027ad97b8d4ad9efd8d6a1922f27bce23ad",
      "assetIds": []
    },
    {
      "x": 177,
      "y": 135,
      "size": 1,
      "price": "1011000000000000000000",
      "reserved": "",
      "salt": "0xad8af04abea7887fd21104ffe6a027a71813941d96f23cd5de47ccf17dd131c2",
      "assetIds": []
    },
    {
      "x": 177,
      "y": 136,
      "size": 1,
      "price": "1011000000000000000000",
      "reserved": "",
      "salt": "0x0b2bd21eca497a6b1df5af63fc000f86d2514dc54131bc2f01476745b803b515",
      "assetIds": []
    },
    {
      "x": 177,
      "y": 137,
      "size": 1,
      "price": "1011000000000000000000",
      "reserved": "",
      "salt": "0x079ffe5155f6e646ec3a660b5e62df02bf6d61569d5f1d9238cc364e5c6a2ef4",
      "assetIds": []
    },
    {
      "x": 177,
      "y": 138,
      "size": 1,
      "price": "1011000000000000000000",
      "reserved": "",
      "salt": "0xdfc0835cf0bcbac28f4aac01719664b3ab5391eaffa0d3ea81e10f42b7591438",
      "assetIds": []
    },
    {
      "x": 177,
      "y": 139,
      "size": 1,
      "price": "1011000000000000000000",
      "reserved": "",
      "salt": "0x787f618ce5de5844dbdb37200f398035f024131077c7c0c176c60c6d5b7a2810",
      "assetIds": []
    },
    {
      "x": 177,
      "y": 140,
      "size": 1,
      "price": "1011000000000000000000",
      "reserved": "",
      "salt": "0x2503a96811f60d46fdf3a16f936f52a6c3db500e269b7a7489edcf0fdd467ea5",
      "assetIds": []
    },
    {
      "x": 177,
      "y": 144,
      "size": 1,
      "price": "1011000000000000000000",
      "reserved": "",
      "salt": "0x17b49ae5ea7d948a9e768c77480a0168959d6173693f12e9ad1a63a6f20ff3f6",
      "assetIds": []
    },
    {
      "x": 177,
      "y": 145,
      "size": 1,
      "price": "1011000000000000000000",
      "reserved": "",
      "salt": "0x492a8b4188eb83f8ccc303c7587239bd8917b6a306a461151bb86a3274845db5",
      "assetIds": []
    },
    {
      "x": 177,
      "y": 146,
      "size": 1,
      "price": "1011000000000000000000",
      "reserved": "",
      "salt": "0x9de5605768ccdc8d6ff91cc351b2c108a33b69b3b4dfb733384c67bc5b687981",
      "assetIds": []
    },
    {
      "x": 177,
      "y": 147,
      "size": 1,
      "price": "1011000000000000000000",
      "reserved": "",
      "salt": "0x4fbdf494ceadc264839c41e603cde88974c0955f514e60ac9f722d2e45c5d149",
      "assetIds": []
    },
    {
      "x": 177,
      "y": 148,
      "size": 1,
      "price": "1011000000000000000000",
      "reserved": "",
      "salt": "0x605087801a3b16285d621e95f59ff032cd7c0aaab275cbdec9e03f37947750e7",
      "assetIds": []
    },
    {
      "x": 177,
      "y": 149,
      "size": 1,
      "price": "1011000000000000000000",
      "reserved": "",
      "salt": "0x21ace688f6ac9c0120bb6d8e810c2d53d75a87fc8c8409c2c66c213a70a11235",
      "assetIds": []
    },
    {
      "x": 177,
      "y": 150,
      "size": 1,
      "price": "1011000000000000000000",
      "reserved": "",
      "salt": "0xfa3c0264ce7eeeb11df34052ec943d3dcba5ec60e6bd2ddac0c475536df3b0ca",
      "assetIds": []
    },
    {
      "x": 177,
      "y": 151,
      "size": 1,
      "price": "1011000000000000000000",
      "reserved": "",
      "salt": "0xc462251c0011a628fa483bee6636fd3ff2fb1480c09c7c51af3056000ad5c3b2",
      "assetIds": []
    },
    {
      "x": 177,
      "y": 152,
      "size": 1,
      "price": "1011000000000000000000",
      "reserved": "",
      "salt": "0x2ce4c405ab5b3b9f4f4e7613c8542aaadbd5379d81688be4caa5a310726ee734",
      "assetIds": []
    },
    {
      "x": 177,
      "y": 153,
      "size": 1,
      "price": "1011000000000000000000",
      "reserved": "",
      "salt": "0xdcf8ee5dd0bd5870b2822b894373d3534c52de5f421ff16fb6fe3c55a521d714",
      "assetIds": []
    },
    {
      "x": 177,
      "y": 154,
      "size": 1,
      "price": "1011000000000000000000",
      "reserved": "",
      "salt": "0x892788db768868645441ca784c34aa51c8445b67dea97062f71e7dc10fb273c1",
      "assetIds": []
    },
    {
      "x": 177,
      "y": 155,
      "size": 1,
      "price": "1011000000000000000000",
      "reserved": "",
      "salt": "0x8b6020b8cbd599dda2e76965322390e8dc10a61ef35150b6665d426697404251",
      "assetIds": []
    },
    {
      "x": 177,
      "y": 159,
      "size": 1,
      "price": "1011000000000000000000",
      "reserved": "",
      "salt": "0x52bef30216750a5ed104b6fe9a40234129977312c8128ba0ab0974eaf6871863",
      "assetIds": []
    },
    {
      "x": 177,
      "y": 160,
      "size": 1,
      "price": "1011000000000000000000",
      "reserved": "",
      "salt": "0x0071958b5c7736fc2d2c79bc23e92e2ac8f713a876b2e581db1ea6ffe07f530d",
      "assetIds": []
    },
    {
      "x": 177,
      "y": 161,
      "size": 1,
      "price": "1011000000000000000000",
      "reserved": "",
      "salt": "0x414ff7ae62314d5650e29eb06592052f30a1836d622035712ca11823bdf11171",
      "assetIds": []
    },
    {
      "x": 178,
      "y": 135,
      "size": 1,
      "price": "1011000000000000000000",
      "reserved": "",
      "salt": "0xd5708e1eb6435d648d3b5df1b75ccd533db0e297a73edfb1f11065272a51b1d3",
      "assetIds": []
    },
    {
      "x": 178,
      "y": 136,
      "size": 1,
      "price": "1011000000000000000000",
      "reserved": "",
      "salt": "0x604dc396dc4d02e04383e3be026f220f0bddc114c924362887df4fba7eb957ea",
      "assetIds": []
    },
    {
      "x": 178,
      "y": 137,
      "size": 1,
      "price": "1011000000000000000000",
      "reserved": "",
      "salt": "0xc0cd24d5e346ebf204ab57a4cd8674a7bec0ce44e53d43a3ca4e60991a34b8ce",
      "assetIds": []
    },
    {
      "x": 178,
      "y": 138,
      "size": 1,
      "price": "1011000000000000000000",
      "reserved": "",
      "salt": "0x81e74b72ab09e0187ab3c9dfc5076de2ac7087f5cf8be9b7a515a0f8e0d1b38a",
      "assetIds": []
    },
    {
      "x": 178,
      "y": 139,
      "size": 1,
      "price": "1011000000000000000000",
      "reserved": "",
      "salt": "0x46a807e3ecaf55499479a5361e49e24ed0755676bfe6916cf7944d7afeaef954",
      "assetIds": []
    },
    {
      "x": 178,
      "y": 140,
      "size": 1,
      "price": "1011000000000000000000",
      "reserved": "",
      "salt": "0x0a85dfb0e5b75285d70ed3b43aaff5838e9e509f7330954c1956c8da526d2791",
      "assetIds": []
    },
    {
      "x": 178,
      "y": 144,
      "size": 1,
      "price": "1011000000000000000000",
      "reserved": "",
      "salt": "0x629e3df122c379e3db62c217853d57c7ca5634fa17a8f732b73c690f8b2b5597",
      "assetIds": []
    },
    {
      "x": 178,
      "y": 145,
      "size": 1,
      "price": "1011000000000000000000",
      "reserved": "",
      "salt": "0x0803f9099df46f7c8334c112c531b401df14f4cac01ccb7434e564019b257a3b",
      "assetIds": []
    },
    {
      "x": 178,
      "y": 146,
      "size": 1,
      "price": "1011000000000000000000",
      "reserved": "",
      "salt": "0xb928e12ee442b2501818959b7576be0f3752230f48c1772ef5b5c76cead1642a",
      "assetIds": []
    },
    {
      "x": 178,
      "y": 147,
      "size": 1,
      "price": "1011000000000000000000",
      "reserved": "",
      "salt": "0xc5bdbb7b0751125fb5ad3d51a6ecdd4717daa89a83c6aa96fa2cb95b94315bb8",
      "assetIds": []
    },
    {
      "x": 178,
      "y": 148,
      "size": 1,
      "price": "1011000000000000000000",
      "reserved": "",
      "salt": "0xd3950e35789b135d633a79cbfc4071612fe3524c99faef76b2be65c0b87fe8a8",
      "assetIds": []
    },
    {
      "x": 178,
      "y": 149,
      "size": 1,
      "price": "1011000000000000000000",
      "reserved": "",
      "salt": "0xa5dd858c51ebcba903b3c0101fef0649fa8917bb69519b8b8fdc78590b4e88cd",
      "assetIds": []
    },
    {
      "x": 178,
      "y": 150,
      "size": 1,
      "price": "1011000000000000000000",
      "reserved": "",
      "salt": "0xe725314f022085c4b2438995777e600d7866d6387073cb0895631e393539eb8a",
      "assetIds": []
    },
    {
      "x": 178,
      "y": 151,
      "size": 1,
      "price": "1011000000000000000000",
      "reserved": "",
      "salt": "0xaf06840048a9369bdbe0b0d630de27db5bf64159a38a69712c5559bf93e56ce7",
      "assetIds": []
    },
    {
      "x": 178,
      "y": 152,
      "size": 1,
      "price": "1011000000000000000000",
      "reserved": "",
      "salt": "0xdc60e7a72a8547fbcac1d44242adcacb323bdb2b5579c03b74df108c671961b4",
      "assetIds": []
    },
    {
      "x": 178,
      "y": 153,
      "size": 1,
      "price": "1011000000000000000000",
      "reserved": "",
      "salt": "0x69320099f3d020929b1ee61956d1c2edb7e6cfd538a5ab07ef0705be10ae765c",
      "assetIds": []
    },
    {
      "x": 178,
      "y": 154,
      "size": 1,
      "price": "1011000000000000000000",
      "reserved": "",
      "salt": "0xfb3e421da2531ff6b475ce71ad091dbc565b170304c37f72921524512a37ce84",
      "assetIds": []
    },
    {
      "x": 178,
      "y": 155,
      "size": 1,
      "price": "1011000000000000000000",
      "reserved": "",
      "salt": "0x74981f07dff168d05dc4a5dfda05e44ba2352f89ee7828c2f0694bd875929e13",
      "assetIds": []
    },
    {
      "x": 178,
      "y": 159,
      "size": 1,
      "price": "1011000000000000000000",
      "reserved": "",
      "salt": "0x81c779a6f8b87109c24bed329f1b2b8ac3ead99cbaf51a717a54a0c92a3991f1",
      "assetIds": []
    },
    {
      "x": 178,
      "y": 160,
      "size": 1,
      "price": "1011000000000000000000",
      "reserved": "",
      "salt": "0x9671a72698bfa7e8421df00d46adb64201dd24776625ec4ea459bd1ea4c38baf",
      "assetIds": []
    },
    {
      "x": 178,
      "y": 161,
      "size": 1,
      "price": "1011000000000000000000",
      "reserved": "",
      "salt": "0xc24eddaf96a9860bd65462a097c658b5622643c60586a47029f7df64b54be297",
      "assetIds": []
    },
    {
      "x": 179,
      "y": 135,
      "size": 1,
      "price": "1011000000000000000000",
      "reserved": "",
      "salt": "0x47605d21866ba933a41e82b5ad8af47942fb4fe480a964a39f3f473c6be0b403",
      "assetIds": []
    },
    {
      "x": 179,
      "y": 136,
      "size": 1,
      "price": "1011000000000000000000",
      "reserved": "",
      "salt": "0x8fb7f6c0f9f93927396eeb8f0edcdc30092e550fb768e89e2146612dbaf82225",
      "assetIds": []
    },
    {
      "x": 179,
      "y": 137,
      "size": 1,
      "price": "1011000000000000000000",
      "reserved": "",
      "salt": "0x50b6b80ae9cd211752e04568a8a11f0faeae88047dc6efafe4cc6122d369f218",
      "assetIds": []
    },
    {
      "x": 179,
      "y": 138,
      "size": 1,
      "price": "1011000000000000000000",
      "reserved": "",
      "salt": "0xba033d8e43ab2aae2e680302ee80f6a8c8b794c4ab47f2f25a82ddd31128d333",
      "assetIds": []
    },
    {
      "x": 179,
      "y": 139,
      "size": 1,
      "price": "1011000000000000000000",
      "reserved": "",
      "salt": "0x7c39b3d2972b7c247ce59664d8d835235f9a2616cd95e5b62cb753f9a7bb7b50",
      "assetIds": []
    },
    {
      "x": 179,
      "y": 140,
      "size": 1,
      "price": "1011000000000000000000",
      "reserved": "",
      "salt": "0xb834776afc52a0f9f620398e58a62ac20c1c26ee65cc3422e9b2bc6b84769ab3",
      "assetIds": []
    },
    {
      "x": 179,
      "y": 144,
      "size": 1,
      "price": "4683000000000000000000",
      "reserved": "",
      "salt": "0x937829cbfc427feea2e84220ee4221c50ad12badfc6e03509bb7be372760832d",
      "assetIds": []
    },
    {
      "x": 179,
      "y": 145,
      "size": 1,
      "price": "4683000000000000000000",
      "reserved": "",
      "salt": "0x57fea31b9149e8c75ce7eab7c5f2d3c59aee4e7ca7aa43817dfb0f2e4f81be13",
      "assetIds": []
    },
    {
      "x": 179,
      "y": 146,
      "size": 1,
      "price": "1011000000000000000000",
      "reserved": "0x7a9fe22691c811ea339d9b73150e6911a5343dca",
      "salt": "0xfac3a3c8ccef021af24d5e60b97611abce6531ad618d44af9aa571656417d36e",
      "assetIds": []
    },
    {
      "x": 179,
      "y": 147,
      "size": 1,
      "price": "4683000000000000000000",
      "reserved": "",
      "salt": "0x189517425d2aba48c75fad6126b47ec63d9b261c1767706e89a989fa92fd86fc",
      "assetIds": []
    },
    {
      "x": 179,
      "y": 148,
      "size": 1,
      "price": "4683000000000000000000",
      "reserved": "",
      "salt": "0xaa5ca2e6ae4212901a49631c06c7b842e211e118b5415816672335021a390d33",
      "assetIds": []
    },
    {
      "x": 179,
      "y": 149,
      "size": 1,
      "price": "1011000000000000000000",
      "reserved": "0x7a9fe22691c811ea339d9b73150e6911a5343dca",
      "salt": "0x580a18666ed9c0cd42481a0a78868e86141437e09f7020c9d20191bc7e78535c",
      "assetIds": []
    },
    {
      "x": 179,
      "y": 150,
      "size": 1,
      "price": "1011000000000000000000",
      "reserved": "",
      "salt": "0xa3245cc5e5d006d8e88c660fdd2e6a7a14ef9dfb93bea64400cadc4eee158c06",
      "assetIds": []
    },
    {
      "x": 179,
      "y": 151,
      "size": 1,
      "price": "1011000000000000000000",
      "reserved": "",
      "salt": "0x21df6f920f170a8c413b89a0d51caac2630c50346f981f9c3d31ce7233154740",
      "assetIds": []
    },
    {
      "x": 179,
      "y": 152,
      "size": 1,
      "price": "1011000000000000000000",
      "reserved": "",
      "salt": "0x0a9f24baa602739425e4e1a46bc833ab3021fce42e64e8d8566fd04f08cffcff",
      "assetIds": []
    },
    {
      "x": 179,
      "y": 153,
      "size": 1,
      "price": "1011000000000000000000",
      "reserved": "",
      "salt": "0x65d348136a7152c617d87bd2ebf2535cca523df3fb1a34d29f27020425b675aa",
      "assetIds": []
    },
    {
      "x": 179,
      "y": 154,
      "size": 1,
      "price": "1011000000000000000000",
      "reserved": "",
      "salt": "0x1f605ef5a1309176e73739c55119aa7ae6f1a0eb5ed56bb8a0650656d2ad454d",
      "assetIds": []
    },
    {
      "x": 179,
      "y": 155,
      "size": 1,
      "price": "1011000000000000000000",
      "reserved": "",
      "salt": "0xd61e08bf325309539bcb408b82c31e34e5b1e62d7d143b6e043d6139b4482a4a",
      "assetIds": []
    },
    {
      "x": 179,
      "y": 159,
      "size": 1,
      "price": "1011000000000000000000",
      "reserved": "",
      "salt": "0x31eede86d1be549685e47861d2799fb8445b1ac1e1c7128ab95e274e2be7c3ed",
      "assetIds": []
    },
    {
      "x": 179,
      "y": 161,
      "size": 1,
      "price": "1011000000000000000000",
      "reserved": "",
      "salt": "0xb6abaf58ff3f715ff89e4d2d104afdf038fb387dcd46b56f26c61283f5e91ccf",
      "assetIds": []
    },
    {
      "x": 180,
      "y": 138,
      "size": 1,
      "price": "1011000000000000000000",
      "reserved": "",
      "salt": "0xd6b7c54f5ac6237051156ebff367bba341b1f4acbfda8b352f9b2e18b5800101",
      "assetIds": []
    },
    {
      "x": 180,
      "y": 139,
      "size": 1,
      "price": "1011000000000000000000",
      "reserved": "",
      "salt": "0x5d144f3bd3009ec634cb3c1459bb1b35ca24c172069ac2345f67859f395163cd",
      "assetIds": []
    },
    {
      "x": 180,
      "y": 140,
      "size": 1,
      "price": "1011000000000000000000",
      "reserved": "",
      "salt": "0xcd7b1dcd6b5fb6a7e598db0d77f66f5dbcfbb944b46e3aafec9b493d90bc1fa8",
      "assetIds": []
    },
    {
      "x": 180,
      "y": 141,
      "size": 1,
      "price": "1011000000000000000000",
      "reserved": "",
      "salt": "0xe19fda60e48cdc9dab28fa792b36df8ad005fae2d3411b28678cf876137559a8",
      "assetIds": []
    },
    {
      "x": 180,
      "y": 142,
      "size": 1,
      "price": "1011000000000000000000",
      "reserved": "",
      "salt": "0xdf23ed49c5fb5702e8cbf629eda2303303fcf4d896bceb2e18c5f78752651254",
      "assetIds": []
    },
    {
      "x": 180,
      "y": 143,
      "size": 1,
      "price": "4683000000000000000000",
      "reserved": "",
      "salt": "0x2c879610292d00f4725471cefa2901ef259fe57135b24d9c1bf34500f39256b8",
      "assetIds": []
    },
    {
      "x": 180,
      "y": 150,
      "size": 1,
      "price": "4683000000000000000000",
      "reserved": "",
      "salt": "0x6c0bbcc611a9b489b93b4cfda2fb815fdb86463610f0772613d5ca765b0b85d4",
      "assetIds": []
    },
    {
      "x": 180,
      "y": 151,
      "size": 1,
      "price": "1011000000000000000000",
      "reserved": "",
      "salt": "0xbe76933854a9ebf5f60c2aec8c54d47884ccac830d30ced4a373c1e7b7cc864e",
      "assetIds": []
    },
    {
      "x": 180,
      "y": 152,
      "size": 1,
      "price": "1011000000000000000000",
      "reserved": "",
      "salt": "0xc49b7eb3d4f3a10d941255536a7aee3f1f3fd2fcb392d1d5b369abb5b85e2384",
      "assetIds": []
    },
    {
      "x": 180,
      "y": 153,
      "size": 1,
      "price": "1011000000000000000000",
      "reserved": "0x7a9fe22691c811ea339d9b73150e6911a5343dca",
      "salt": "0xd2a4c20e8e4f4495588dd58108cd61f3b595a45a76f7171d89e4757038ca341b",
      "assetIds": []
    },
    {
      "x": 180,
      "y": 154,
      "size": 1,
      "price": "1011000000000000000000",
      "reserved": "",
      "salt": "0xbc05587b1157438ce262064af87cd05f8fad508f8d0fe4b40a1124143d4fe0f5",
      "assetIds": []
    },
    {
      "x": 180,
      "y": 155,
      "size": 1,
      "price": "1011000000000000000000",
      "reserved": "",
      "salt": "0x4331abcdc1127e99f165671a38615a8dc003e5838e806a49ccf993c151082078",
      "assetIds": []
    },
    {
      "x": 181,
      "y": 138,
      "size": 1,
      "price": "1011000000000000000000",
      "reserved": "",
      "salt": "0xe81792e6f918082f65c4dca278d774b870ab8078e27f03946cc6fa1d76889a34",
      "assetIds": []
    },
    {
      "x": 181,
      "y": 139,
      "size": 1,
      "price": "1011000000000000000000",
      "reserved": "0x7a9fe22691c811ea339d9b73150e6911a5343dca",
      "salt": "0xdef94de8f4e2303cfd03ab1cc832d33a126d18e6dae85673137c149fb46827a6",
      "assetIds": []
    },
    {
      "x": 181,
      "y": 140,
      "size": 1,
      "price": "1011000000000000000000",
      "reserved": "",
      "salt": "0x8de89f769939eec1f831160f63918b464b36c9711680a899614fe655b151109b",
      "assetIds": []
    },
    {
      "x": 181,
      "y": 141,
      "size": 1,
      "price": "1011000000000000000000",
      "reserved": "",
      "salt": "0x6de6ebb098234ad4b034a6db9e0918cfd540e6ab7c50e81e55f82ece10c5cfe4",
      "assetIds": []
    },
    {
      "x": 181,
      "y": 142,
      "size": 1,
      "price": "1011000000000000000000",
      "reserved": "",
      "salt": "0x73f85eda640e06e58f6802496d9a5b29a21419638246c234ff92b6f9b0ff0518",
      "assetIds": []
    },
    {
      "x": 181,
      "y": 143,
      "size": 1,
      "price": "4683000000000000000000",
      "reserved": "",
      "salt": "0xa7d81b64646e20007a61c0fdeee1cc111cfbb0686b26ef86fb89aafbff111f8d",
      "assetIds": []
    },
    {
      "x": 181,
      "y": 150,
      "size": 1,
      "price": "4683000000000000000000",
      "reserved": "",
      "salt": "0x6b67deb44a3d98efcffd94f5a62d216e9c3aee7f1ce39d9d81b119d58ddd8a78",
      "assetIds": []
    },
    {
      "x": 181,
      "y": 151,
      "size": 1,
      "price": "1011000000000000000000",
      "reserved": "",
      "salt": "0x9e969f0f7e857013226d411e1097d1cf2be5ba47338674a562b10af2173df616",
      "assetIds": []
    },
    {
      "x": 181,
      "y": 152,
      "size": 1,
      "price": "1011000000000000000000",
      "reserved": "",
      "salt": "0xa863c225a132da33f9ec41b3351f364d87eaadc28a3ff047829a060fb0bbb11b",
      "assetIds": []
    },
    {
      "x": 181,
      "y": 153,
      "size": 1,
      "price": "1011000000000000000000",
      "reserved": "",
      "salt": "0xec3cd4136b03b0b44fc0ba60b0341ea54ec238968731dc46f6d31d3c2c9b8b4e",
      "assetIds": []
    },
    {
      "x": 181,
      "y": 154,
      "size": 1,
      "price": "1011000000000000000000",
      "reserved": "",
      "salt": "0x5fd4292b84c1a3bcf387e09c178638d8debce53dd5b0ecd60212788a836e42a9",
      "assetIds": []
    },
    {
      "x": 181,
      "y": 155,
      "size": 1,
      "price": "1011000000000000000000",
      "reserved": "",
      "salt": "0x2639f0fb1af0ba3802b8c174485bd8ec16c373fd0826e459ee5919fec1351d66",
      "assetIds": []
    },
    {
      "x": 181,
      "y": 162,
      "size": 1,
      "price": "1011000000000000000000",
      "reserved": "",
      "salt": "0x84870bbd70e3bb88d445f2cbea15c58c5852e83e59daca7267f26c3391d37f65",
      "assetIds": []
    },
    {
      "x": 181,
      "y": 163,
      "size": 1,
      "price": "1011000000000000000000",
      "reserved": "",
      "salt": "0x6dca4d5d67c412da12bbaf0b4d4500ad6fc0718dd135cba569589f985a3be44f",
      "assetIds": []
    },
    {
      "x": 182,
      "y": 138,
      "size": 1,
      "price": "1011000000000000000000",
      "reserved": "",
      "salt": "0x65b8587112e62f282104607c0c5f8295a41987d991a1b68b29fd98de2576aae8",
      "assetIds": []
    },
    {
      "x": 182,
      "y": 139,
      "size": 1,
      "price": "1011000000000000000000",
      "reserved": "",
      "salt": "0x284e13d5ad3114897d7c111f7ad121cb92f6290011b0e1a3425a7c1a2239beb2",
      "assetIds": []
    },
    {
      "x": 182,
      "y": 140,
      "size": 1,
      "price": "1011000000000000000000",
      "reserved": "",
      "salt": "0xee80919558ebd6204712b09fa2047888ae5a8300245b007ea0f6a0d2f2c344b7",
      "assetIds": []
    },
    {
      "x": 182,
      "y": 141,
      "size": 1,
      "price": "1011000000000000000000",
      "reserved": "",
      "salt": "0xdecbbe47716be3d22f8aaad642bc05d36e655c21709a076820c27cdf015e57e8",
      "assetIds": []
    },
    {
      "x": 182,
      "y": 142,
      "size": 1,
      "price": "1011000000000000000000",
      "reserved": "",
      "salt": "0xb267dba09d64b3c8ad362ce426c2488205b587b552860a4b3b50785845fb5ecc",
      "assetIds": []
    },
    {
      "x": 182,
      "y": 143,
      "size": 1,
      "price": "4683000000000000000000",
      "reserved": "",
      "salt": "0x27d75b17bbb48dbc5a1dc0be2380dbf72b30789c720b2a54140b3e501d0cb96d",
      "assetIds": []
    },
    {
      "x": 182,
      "y": 150,
      "size": 1,
      "price": "4683000000000000000000",
      "reserved": "",
      "salt": "0x5b0b4e0e275349d99c1989dc8d6b7de319c8f59836d260e2ed1798bc31a4b0af",
      "assetIds": []
    },
    {
      "x": 182,
      "y": 151,
      "size": 1,
      "price": "1011000000000000000000",
      "reserved": "",
      "salt": "0xd36bc2c43e6d74f91be2107e46b8779a3bdc64d70fae41ef7710d483a6ab1bb3",
      "assetIds": []
    },
    {
      "x": 182,
      "y": 152,
      "size": 1,
      "price": "1011000000000000000000",
      "reserved": "",
      "salt": "0x3bc4937cbd9eb893b23fe0e5f08618398cadc268f86fd2fa55d20a94fd0ed2cc",
      "assetIds": []
    },
    {
      "x": 182,
      "y": 153,
      "size": 1,
      "price": "1011000000000000000000",
      "reserved": "",
      "salt": "0xa4476cd998a89df1f3754c609fa029bcfbcc277427f6749cf70ddd9b899974f2",
      "assetIds": []
    },
    {
      "x": 182,
      "y": 154,
      "size": 1,
      "price": "1011000000000000000000",
      "reserved": "",
      "salt": "0xb82ae074fd5ce55571adf7a43e062c8e0121937172c82d135712ee5a0e50ad9c",
      "assetIds": []
    },
    {
      "x": 182,
      "y": 155,
      "size": 1,
      "price": "1011000000000000000000",
      "reserved": "",
      "salt": "0x429f5dc38e6c41d5b48e2a694fbb84bf0246a4aa6c01d727f824ea04719cfde9",
      "assetIds": []
    },
    {
      "x": 182,
      "y": 162,
      "size": 1,
      "price": "1011000000000000000000",
      "reserved": "0x7a9fe22691c811ea339d9b73150e6911a5343dca",
      "salt": "0x31d0b6f411299f32ace7edd96d12d4e7f9e8b7e6dde4807690f0099a674141c2",
      "assetIds": []
    },
    {
      "x": 182,
      "y": 163,
      "size": 1,
      "price": "1011000000000000000000",
      "reserved": "",
      "salt": "0x5c163524df697f0069e55c825339a1685061920637cdc401bc35f7b69cecede7",
      "assetIds": []
    },
    {
      "x": 183,
      "y": 138,
      "size": 1,
      "price": "1011000000000000000000",
      "reserved": "",
      "salt": "0x5da9123b45450b61def20d3ea5e5382ac6be38112654025c63900f04dcb7df0c",
      "assetIds": []
    },
    {
      "x": 183,
      "y": 139,
      "size": 1,
      "price": "1011000000000000000000",
      "reserved": "",
      "salt": "0xf0b8ea20b13070dfe1fbc912d2ebc99c6125d8feacb47c3cb142aee4d3e30a59",
      "assetIds": []
    },
    {
      "x": 183,
      "y": 140,
      "size": 1,
      "price": "1011000000000000000000",
      "reserved": "",
      "salt": "0x4b9ee8e1a432eb883d9a081436c6a8d95bc5c310b6a72d4942b4025cbcdc5cf9",
      "assetIds": []
    },
    {
      "x": 183,
      "y": 150,
      "size": 1,
      "price": "4683000000000000000000",
      "reserved": "",
      "salt": "0x9b35704c159451f358d6e56ca385079eeefeefd73ca2b4566800e5e2faafb675",
      "assetIds": []
    },
    {
      "x": 183,
      "y": 151,
      "size": 1,
      "price": "1011000000000000000000",
      "reserved": "",
      "salt": "0x4b76776ede6e720ef3575f0f9e45ab3c65a979db3a3487e7ecaa0a4b086c2c75",
      "assetIds": []
    },
    {
      "x": 183,
      "y": 152,
      "size": 1,
      "price": "1011000000000000000000",
      "reserved": "",
      "salt": "0xac6595ee04b2e5fc4c48d18ad5381f3d9324982b152221c24b4e9cc669c19fc9",
      "assetIds": []
    },
    {
      "x": 183,
      "y": 156,
      "size": 1,
      "price": "1011000000000000000000",
      "reserved": "",
      "salt": "0x68a1054dfbfcb29e2c34bfc1dd37d2ff74fb4b5dbb905297d819cf11f8816e06",
      "assetIds": []
    },
    {
      "x": 183,
      "y": 157,
      "size": 1,
      "price": "1011000000000000000000",
      "reserved": "",
      "salt": "0x727666ff5ebc4e2fde2fbaa90fd0776072c7d38f41c4c559578583c82b8001b0",
      "assetIds": []
    },
    {
      "x": 183,
      "y": 158,
      "size": 1,
      "price": "1011000000000000000000",
      "reserved": "",
      "salt": "0x9d6aa4a8159680a3b2fb90ba80c9f1a7f183d0e8379ba564b53fbf2df3eff318",
      "assetIds": []
    },
    {
      "x": 183,
      "y": 159,
      "size": 1,
      "price": "1011000000000000000000",
      "reserved": "",
      "salt": "0xb94daf700243146edaef5d12e8cab60172fe36d2a071eef9181dd03fe57ebcf0",
      "assetIds": []
    },
    {
      "x": 183,
      "y": 160,
      "size": 1,
      "price": "1011000000000000000000",
      "reserved": "",
      "salt": "0x350f78bc63f63a7cea5a2c8722ce9849c38b52a036ec3a71169c8a4223dbc787",
      "assetIds": []
    },
    {
      "x": 183,
      "y": 161,
      "size": 1,
      "price": "1011000000000000000000",
      "reserved": "",
      "salt": "0x51a318f67e3de33e10daf2bbe71e7d204960626a02f954c21dfc115bf1adb9fb",
      "assetIds": []
    },
    {
      "x": 183,
      "y": 162,
      "size": 1,
      "price": "1011000000000000000000",
      "reserved": "0x7a9fe22691c811ea339d9b73150e6911a5343dca",
      "salt": "0x4b3be2860d315df26ec06bfbcfb77345f2fe44fc3481791f955cf29cbc757f50",
      "assetIds": []
    },
    {
      "x": 183,
      "y": 163,
      "size": 1,
      "price": "1011000000000000000000",
      "reserved": "",
      "salt": "0x7922631f76bfbeebcacfbc1ed05dfcb36a28e4bb59541b45fe10cb84205962a1",
      "assetIds": []
    },
    {
      "x": 184,
      "y": 138,
      "size": 1,
      "price": "1011000000000000000000",
      "reserved": "",
      "salt": "0xdca598256ac411d204b9533f558854ee4b1f869e9485e534d2be1d6f6496512d",
      "assetIds": []
    },
    {
      "x": 184,
      "y": 139,
      "size": 1,
      "price": "1011000000000000000000",
      "reserved": "",
      "salt": "0x8ea1b64a3f37f52764e301c39462ec841ff1ed12b9a8b95f3a7858858ae2a477",
      "assetIds": []
    },
    {
      "x": 184,
      "y": 140,
      "size": 1,
      "price": "1011000000000000000000",
      "reserved": "",
      "salt": "0x6359b031e8180183e65cee7c2db0a20fb4352bab4cb4aa17b95d10c55a91f292",
      "assetIds": []
    },
    {
      "x": 184,
      "y": 150,
      "size": 1,
      "price": "4683000000000000000000",
      "reserved": "",
      "salt": "0xa937c7c346133afc2b93f059ed464d37e3a0586996098e5f2c65ff46e5f014d0",
      "assetIds": []
    },
    {
      "x": 184,
      "y": 151,
      "size": 1,
      "price": "1011000000000000000000",
      "reserved": "",
      "salt": "0x8c09622a4164989ff43b0bf007b2adaa9cb7bf9bd4c33cae2f7ce34246b60124",
      "assetIds": []
    },
    {
      "x": 184,
      "y": 152,
      "size": 1,
      "price": "1011000000000000000000",
      "reserved": "",
      "salt": "0xeaf21e228cfb47b16a843804c91d67d52a4e4e70c72c6ae1a8cb9f948943738c",
      "assetIds": []
    },
    {
      "x": 184,
      "y": 156,
      "size": 1,
      "price": "1011000000000000000000",
      "reserved": "",
      "salt": "0xd6fcc91580859db9732b2988b9f92503513a8c8c7a37b37d6ee5de92972c4d90",
      "assetIds": []
    },
    {
      "x": 184,
      "y": 157,
      "size": 1,
      "price": "1011000000000000000000",
      "reserved": "",
      "salt": "0x731ccd324377c18258fc2f9df54012a5dcace811c8489b3d9a46996d2fa374e5",
      "assetIds": []
    },
    {
      "x": 184,
      "y": 158,
      "size": 1,
      "price": "1011000000000000000000",
      "reserved": "",
      "salt": "0x6f1babe0edf3b1d1a43ce53af5235f0b9b537f71019ecba6c521f62bf5e1b44e",
      "assetIds": []
    },
    {
      "x": 184,
      "y": 159,
      "size": 1,
      "price": "1011000000000000000000",
      "reserved": "",
      "salt": "0xe6665c5ee7b6f895ff142d1018372663e549ec354d0b9491c8b2f5904296e71b",
      "assetIds": []
    },
    {
      "x": 184,
      "y": 160,
      "size": 1,
      "price": "1011000000000000000000",
      "reserved": "",
      "salt": "0xa96f119ad8a0ab9765eab36ca8786ea8e80f064e9abc139d0c227790c6c2d7a8",
      "assetIds": []
    },
    {
      "x": 184,
      "y": 161,
      "size": 1,
      "price": "1011000000000000000000",
      "reserved": "",
      "salt": "0x438a2365019a61069fb2b9e819f04897af9df4cea9fd6621574309019112ca96",
      "assetIds": []
    },
    {
      "x": 184,
      "y": 162,
      "size": 1,
      "price": "1011000000000000000000",
      "reserved": "",
      "salt": "0xc2a3681bca83b53c89116d8c48e7a695d09fafd5809f49b98f5e4eae44461a52",
      "assetIds": []
    },
    {
      "x": 184,
      "y": 163,
      "size": 1,
      "price": "1011000000000000000000",
      "reserved": "",
      "salt": "0x6caff416299c1629e22c48a3eac0681a72a6d56c1008323e44c18febb1f32783",
      "assetIds": []
    },
    {
      "x": 185,
      "y": 138,
      "size": 1,
      "price": "1011000000000000000000",
      "reserved": "",
      "salt": "0x3b5dfef507a1aaedad1d7f972bbf0161baac09538c26b4450755978dd78813fd",
      "assetIds": []
    },
    {
      "x": 185,
      "y": 139,
      "size": 1,
      "price": "1011000000000000000000",
      "reserved": "",
      "salt": "0xd167f5e32d5e915b2a1e4129091ca2840bf74e07d6d596404889868979ccf3c1",
      "assetIds": []
    },
    {
      "x": 185,
      "y": 140,
      "size": 1,
      "price": "1011000000000000000000",
      "reserved": "",
      "salt": "0x670b41be71b8ee182874402ff0682e6bb2f90375ec641b28299b510d6f381820",
      "assetIds": []
    },
    {
      "x": 185,
      "y": 150,
      "size": 1,
      "price": "1011000000000000000000",
      "reserved": "0x7a9fe22691c811ea339d9b73150e6911a5343dca",
      "salt": "0x746f6b1315ff2e100ea5dbb5b0169e179d57511a3330634ff5b27647248876f9",
      "assetIds": []
    },
    {
      "x": 185,
      "y": 151,
      "size": 1,
      "price": "1011000000000000000000",
      "reserved": "",
      "salt": "0xe699530c51001212390b32693af7279f2831d49d10f5d31b8eb7580625518346",
      "assetIds": []
    },
    {
      "x": 185,
      "y": 152,
      "size": 1,
      "price": "1011000000000000000000",
      "reserved": "",
      "salt": "0x8ad7f2e88da0db2528d0bc8415486ed972d25e949bbb1647b3453851a6bc8603",
      "assetIds": []
    },
    {
      "x": 185,
      "y": 156,
      "size": 1,
      "price": "4683000000000000000000",
      "reserved": "",
      "salt": "0xc3c272f1dc60d518ee1d62ce591ab308246f5036954a700600d38b7092fd190b",
      "assetIds": []
    },
    {
      "x": 185,
      "y": 157,
      "size": 1,
      "price": "4683000000000000000000",
      "reserved": "",
      "salt": "0xad18d7c024a4d034b3db9653ac75c088717dc621c7d43af44db1f58a536d46c0",
      "assetIds": []
    },
    {
      "x": 185,
      "y": 158,
      "size": 1,
      "price": "1011000000000000000000",
      "reserved": "",
      "salt": "0x123875ea335d0142e8c336914f0d5ff8361c2d419e83a3cfc349096c1cbadf42",
      "assetIds": []
    },
    {
      "x": 185,
      "y": 159,
      "size": 1,
      "price": "4683000000000000000000",
      "reserved": "",
      "salt": "0x87c3dd8c8ae89dd8f44579721537acbee47ae8b6305a3409f1f78c411de88657",
      "assetIds": []
    },
    {
      "x": 185,
      "y": 160,
      "size": 1,
      "price": "1011000000000000000000",
      "reserved": "0x7a9fe22691c811ea339d9b73150e6911a5343dca",
      "salt": "0xd55e8509bb77b09cc6daffd2221dd28d2afcf9fd791639b4fbf09f0751da6c3d",
      "assetIds": []
    },
    {
      "x": 185,
      "y": 161,
      "size": 1,
      "price": "1011000000000000000000",
      "reserved": "0x7a9fe22691c811ea339d9b73150e6911a5343dca",
      "salt": "0xdc81432e897441f0b688d10dd34f33ae55dfbe80b1506fae5233df4a20484fbb",
      "assetIds": []
    },
    {
      "x": 185,
      "y": 162,
      "size": 1,
      "price": "1011000000000000000000",
      "reserved": "",
      "salt": "0x06116682955f6f60c8c624fc5ac03db2e356eba95c84e33d804acb94d876c84f",
      "assetIds": []
    },
    {
      "x": 185,
      "y": 163,
      "size": 1,
      "price": "1011000000000000000000",
      "reserved": "",
      "salt": "0x9c337b8a283943a5937be945fc42bfd8eeef00d6e3c92c47861b7d70129e3f5e",
      "assetIds": []
    },
    {
      "x": 186,
      "y": 138,
      "size": 1,
      "price": "1011000000000000000000",
      "reserved": "",
      "salt": "0x85cfe6411c2a26ca57b68b9c3e1ff2d0c1b116b66b546c37542dc65aa6d46b73",
      "assetIds": []
    },
    {
      "x": 186,
      "y": 139,
      "size": 1,
      "price": "1011000000000000000000",
      "reserved": "",
      "salt": "0x6f79649bbe23ee964ae759d86c560684a51d91df3c5f9a5f965dfd40ccb0a886",
      "assetIds": []
    },
    {
      "x": 186,
      "y": 140,
      "size": 1,
      "price": "1011000000000000000000",
      "reserved": "",
      "salt": "0x4caf51ce90ba94cdc9367e53ebe7e6758a98555ec4112756cd303802df9daf1e",
      "assetIds": []
    },
    {
      "x": 186,
      "y": 141,
      "size": 1,
      "price": "1011000000000000000000",
      "reserved": "",
      "salt": "0x16241fc26e45d93ab0704bc6aaa204ad660fabba7dc7cc9f4f1b1439963ed561",
      "assetIds": []
    },
    {
      "x": 186,
      "y": 142,
      "size": 1,
      "price": "1011000000000000000000",
      "reserved": "",
      "salt": "0x3e39ca8700b8618951e3504dee0733a4ac397aa426e66cda2f8f17a098f353d2",
      "assetIds": []
    },
    {
      "x": 186,
      "y": 143,
      "size": 1,
      "price": "1011000000000000000000",
      "reserved": "",
      "salt": "0xe955060d90af8c66531b1037e5aed08bab6c6ce9f84a6e29d02993b0b4293349",
      "assetIds": []
    },
    {
      "x": 186,
      "y": 147,
      "size": 1,
      "price": "1011000000000000000000",
      "reserved": "",
      "salt": "0x74d141c86b504feef757a1b995ae714c695b78f7b638e81fd8d3f173bcbc7423",
      "assetIds": []
    },
    {
      "x": 186,
      "y": 148,
      "size": 1,
      "price": "4683000000000000000000",
      "reserved": "",
      "salt": "0xb912ffa7f35f7b9638e4478de228ed702b493fdcf76057682fbf405d6f8e0090",
      "assetIds": []
    },
    {
      "x": 186,
      "y": 149,
      "size": 1,
      "price": "4683000000000000000000",
      "reserved": "",
      "salt": "0xbd1f2a131447de2a2c04e69a45884ff1d4fb1eee4bb5ab3fde874acc6720c868",
      "assetIds": []
    },
    {
      "x": 186,
      "y": 162,
      "size": 1,
      "price": "4683000000000000000000",
      "reserved": "",
      "salt": "0xeaa6b3058b41a574f2841903b84d0492c02fdb64393b292a0331234d66f62a75",
      "assetIds": []
    },
    {
      "x": 186,
      "y": 163,
      "size": 1,
      "price": "1011000000000000000000",
      "reserved": "",
      "salt": "0x5354a233195a821128556c5736a2ecfec3a10010f89b45d3463f3f1f1f64457e",
      "assetIds": []
    },
    {
      "x": 187,
      "y": 138,
      "size": 1,
      "price": "1011000000000000000000",
      "reserved": "",
      "salt": "0xf002546ab56d63c5bd50deb716b431f184f7d3d534fa814ba7cbf070b8d9ad8f",
      "assetIds": []
    },
    {
      "x": 187,
      "y": 139,
      "size": 1,
      "price": "1011000000000000000000",
      "reserved": "",
      "salt": "0x635e63d8296660f0c581ab8661d34acf08c4867c2c848268424e3000d38f80b6",
      "assetIds": []
    },
    {
      "x": 187,
      "y": 140,
      "size": 1,
      "price": "1011000000000000000000",
      "reserved": "",
      "salt": "0x6bf3cf6bf7a4038898981d0e0a8523cefb3d08f77586b6db34ee42c618e4c73b",
      "assetIds": []
    },
    {
      "x": 187,
      "y": 141,
      "size": 1,
      "price": "1011000000000000000000",
      "reserved": "",
      "salt": "0xd54202be4b1ccde198be5abf1f5ec9219760485e493253ca33a5503a6e8cc745",
      "assetIds": []
    },
    {
      "x": 187,
      "y": 142,
      "size": 1,
      "price": "1011000000000000000000",
      "reserved": "",
      "salt": "0xfaf625887873f75da7535af87efd2bd91f88874c82ede4556728f4c7dbdeef3d",
      "assetIds": []
    },
    {
      "x": 187,
      "y": 143,
      "size": 1,
      "price": "1011000000000000000000",
      "reserved": "",
      "salt": "0x1ef6e1ead16cd4c89b52e1db11e9a631869b39b73d1fc19d4fce81ef3a613d73",
      "assetIds": []
    },
    {
      "x": 187,
      "y": 147,
      "size": 1,
      "price": "1011000000000000000000",
      "reserved": "",
      "salt": "0x5919e1e18ecbd78ae260a502ab7fab6b04c0d5231a4d26e2976e513eb0149a0b",
      "assetIds": []
    },
    {
      "x": 187,
      "y": 148,
      "size": 1,
      "price": "1011000000000000000000",
      "reserved": "",
      "salt": "0x268574bac6e50a95c9691aa872d6e37448d0bedf5bbd8804e9c8ea030b17c77b",
      "assetIds": []
    },
    {
      "x": 187,
      "y": 149,
      "size": 1,
      "price": "1011000000000000000000",
      "reserved": "",
      "salt": "0x716eeb9fa8e7ed1e43bc2cc019abc5e7ff8e2f4c0e8e3f1b371f67d1739224f1",
      "assetIds": []
    },
    {
      "x": 187,
      "y": 162,
      "size": 1,
      "price": "4683000000000000000000",
      "reserved": "",
      "salt": "0xcf1fe7dbd619b5d9d979917bfb3244f46e6477b8769aae42c27ae4b0925a148a",
      "assetIds": []
    },
    {
      "x": 187,
      "y": 163,
      "size": 1,
      "price": "1011000000000000000000",
      "reserved": "",
      "salt": "0xcd1563f66db9cb907b377f44427f0e91468133e3df0322018b314939c798d8e0",
      "assetIds": []
    },
    {
      "x": 188,
      "y": 138,
      "size": 1,
      "price": "1011000000000000000000",
      "reserved": "",
      "salt": "0xa90965fe1f995528e250a9f1a9db3e5be7c246659c177ebd170afe79dc9f2bff",
      "assetIds": []
    },
    {
      "x": 188,
      "y": 139,
      "size": 1,
      "price": "1011000000000000000000",
      "reserved": "",
      "salt": "0xa963bb6799f5346db3b01b49cc5b8fbaebdd6fd29ecd646c965d4f06794d22ef",
      "assetIds": []
    },
    {
      "x": 188,
      "y": 140,
      "size": 1,
      "price": "1011000000000000000000",
      "reserved": "",
      "salt": "0xdbc1d5f577bff4119ad0b7e93c3fac22fce5ae64c9c8b9dfd929391757002efb",
      "assetIds": []
    },
    {
      "x": 188,
      "y": 141,
      "size": 1,
      "price": "1011000000000000000000",
      "reserved": "",
      "salt": "0xcb958bd5f60abb7563f1e300384138cfbbb618c29f92f5960e68ac85658131ba",
      "assetIds": []
    },
    {
      "x": 188,
      "y": 142,
      "size": 1,
      "price": "1011000000000000000000",
      "reserved": "",
      "salt": "0xdd849248d7a3dafc84016423176021c9f01f694a0c0a0d702d072a6a92eab911",
      "assetIds": []
    },
    {
      "x": 188,
      "y": 143,
      "size": 1,
      "price": "1011000000000000000000",
      "reserved": "",
      "salt": "0xa3f7a94d84ebc453001807ede62768a039d6fa3be547d8b13b9133452c423cf6",
      "assetIds": []
    },
    {
      "x": 188,
      "y": 147,
      "size": 1,
      "price": "1011000000000000000000",
      "reserved": "",
      "salt": "0xc905c67d3510b11064486d607c379c786bb8d7cb226f0628e5b5a0d840d15cf6",
      "assetIds": []
    },
    {
      "x": 188,
      "y": 148,
      "size": 1,
      "price": "1011000000000000000000",
      "reserved": "",
      "salt": "0x9f31589f207a6d5e9c19c215aa90196db68030241d03c226a5501ff3864f0752",
      "assetIds": []
    },
    {
      "x": 188,
      "y": 149,
      "size": 1,
      "price": "1011000000000000000000",
      "reserved": "",
      "salt": "0x7dce302e65e1bbdb6b6918c1f8150da911b91faf9db0bb7c872533147439333d",
      "assetIds": []
    },
    {
      "x": 188,
      "y": 162,
      "size": 1,
      "price": "4683000000000000000000",
      "reserved": "",
      "salt": "0xd18a0551d21fec9d213c86da43d393d23c96e4a6d242a281db9df9dcd7b91a25",
      "assetIds": []
    },
    {
      "x": 188,
      "y": 163,
      "size": 1,
      "price": "1011000000000000000000",
      "reserved": "",
      "salt": "0x7546aa38b0867c3fe4896320b1801a4219dcb69ed2f9ab0c11a43254c16b0d44",
      "assetIds": []
    },
    {
      "x": 189,
      "y": 138,
      "size": 1,
      "price": "4683000000000000000000",
      "reserved": "",
      "salt": "0x318f9082e3a9e67ad3d7238e6575f7af6ae6a65bcafd2ca183d2db3a71715cce",
      "assetIds": []
    },
    {
      "x": 189,
      "y": 139,
      "size": 1,
      "price": "4683000000000000000000",
      "reserved": "",
      "salt": "0x521c506fd0c46b24a1eebea9703a7fbe46fc695d806a0bd9408b9b21357b60ff",
      "assetIds": []
    },
    {
      "x": 189,
      "y": 140,
      "size": 1,
      "price": "4683000000000000000000",
      "reserved": "",
      "salt": "0xfee93ea8456cb54d1abae4cb0f461bd229afc6d91c321a2d34bf25ee42bf8998",
      "assetIds": []
    },
    {
      "x": 189,
      "y": 144,
      "size": 1,
      "price": "4683000000000000000000",
      "reserved": "",
      "salt": "0x68063b8ad6a79bb41836f0192268a8e2811659bf079a799f25e35a4e0f226d4e",
      "assetIds": []
    },
    {
      "x": 189,
      "y": 145,
      "size": 1,
      "price": "4683000000000000000000",
      "reserved": "",
      "salt": "0xa3b7f9fccb559393cefbd1dbaccc644864b4a1723fe242b390cee23339b6e125",
      "assetIds": []
    },
    {
      "x": 189,
      "y": 146,
      "size": 1,
      "price": "4683000000000000000000",
      "reserved": "",
      "salt": "0x55dbd5d6ea48941ebe8432f39fd6de1709031a034fe48b99d964c74dd915ea4c",
      "assetIds": []
    },
    {
      "x": 189,
      "y": 147,
      "size": 1,
      "price": "1011000000000000000000",
      "reserved": "",
      "salt": "0x93906044a9aa3d2178862c3fb91f8031ff7179f46bbae2a2617f2c121c6e5cef",
      "assetIds": []
    },
    {
      "x": 189,
      "y": 148,
      "size": 1,
      "price": "1011000000000000000000",
      "reserved": "",
      "salt": "0x1fcc98a96f41bf7ee21b0ad8faef18025ea765885b5640ff7438c71e3ce2c861",
      "assetIds": []
    },
    {
      "x": 189,
      "y": 149,
      "size": 1,
      "price": "1011000000000000000000",
      "reserved": "",
      "salt": "0xf4485b02a970af02d5c91a2734ae6c00b6776ec14459506c7efc6e70c3d19bdc",
      "assetIds": []
    },
    {
      "x": 189,
      "y": 162,
      "size": 1,
      "price": "4683000000000000000000",
      "reserved": "",
      "salt": "0xfd267cf0bd523360c121b098cb10ec5cad312f7beb28b9a83afb8d9940b26671",
      "assetIds": []
    },
    {
      "x": 189,
      "y": 163,
      "size": 1,
      "price": "1011000000000000000000",
      "reserved": "",
      "salt": "0x0b0b16e9ac437b0019b42bc33863396e1931ada51264c4c5605be9504d4814e7",
      "assetIds": []
    },
    {
      "x": 190,
      "y": 138,
      "size": 1,
      "price": "4683000000000000000000",
      "reserved": "",
      "salt": "0xee2ade99291cc5c7161ef52ba9869cd8fe39125904bbd7fc0ff8eebe39b1d004",
      "assetIds": []
    },
    {
      "x": 190,
      "y": 139,
      "size": 1,
      "price": "1011000000000000000000",
      "reserved": "0x7a9fe22691c811ea339d9b73150e6911a5343dca",
      "salt": "0x41967b0ddbdcfbd520ff83f8d6827a5e2903ffa48d883bad8e432709a89c0156",
      "assetIds": []
    },
    {
      "x": 190,
      "y": 140,
      "size": 1,
      "price": "4683000000000000000000",
      "reserved": "",
      "salt": "0xef3e0457235bddf0e9b47c40164e6dd594d3811d8ae08add7d181a4dc2f74bd1",
      "assetIds": []
    },
    {
      "x": 190,
      "y": 144,
      "size": 1,
      "price": "4683000000000000000000",
      "reserved": "",
      "salt": "0xd425a752b08bb9b6e68ace00c3c60ebf41f9c8ad49aa4151e0f63a8d99a268d8",
      "assetIds": []
    },
    {
      "x": 190,
      "y": 145,
      "size": 1,
      "price": "4683000000000000000000",
      "reserved": "",
      "salt": "0x551664b1fa6af42bdfc034d135e31dcaa91983ccaeb774d467777cca0002053f",
      "assetIds": []
    },
    {
      "x": 190,
      "y": 146,
      "size": 1,
      "price": "4683000000000000000000",
      "reserved": "",
      "salt": "0x921d8a181a74ab1541f3a390ed5b90e883f7f19c14a7fd718845318b9e9ffba9",
      "assetIds": []
    },
    {
      "x": 190,
      "y": 147,
      "size": 1,
      "price": "1011000000000000000000",
      "reserved": "",
      "salt": "0x7c0e9705772b9e5ef8a7ddb9d1ffdb2bcf8ab2e9dd657a181bd5ffd7abdf4678",
      "assetIds": []
    },
    {
      "x": 190,
      "y": 148,
      "size": 1,
      "price": "1011000000000000000000",
      "reserved": "",
      "salt": "0x15c10b7f03364149809c546dd3fbc6d4833be1d94a6c8694d288151fd649178c",
      "assetIds": []
    },
    {
      "x": 190,
      "y": 149,
      "size": 1,
      "price": "1011000000000000000000",
      "reserved": "",
      "salt": "0x3cd0f54a2ce3a4289b4e53c40cd1d0bf5814a661c966f1d5fe1b684a8e78f380",
      "assetIds": []
    },
    {
      "x": 190,
      "y": 162,
      "size": 1,
      "price": "4683000000000000000000",
      "reserved": "",
      "salt": "0xdd1c0b094fbb7f8ca7d7a7b457b32300e1e3807bae664322418d58bfff8f6aa1",
      "assetIds": []
    },
    {
      "x": 190,
      "y": 163,
      "size": 1,
      "price": "1011000000000000000000",
      "reserved": "",
      "salt": "0xc52c2e55eddfc4b1c490a808dde82c38dc379b6c8a42132954a62a5eaf2a532a",
      "assetIds": []
    },
    {
      "x": 191,
      "y": 138,
      "size": 1,
      "price": "4683000000000000000000",
      "reserved": "",
      "salt": "0xd0b380d5f88d88321bc57ae5f56848ce49f7689b5b2200849fbd433f7e72469d",
      "assetIds": []
    },
    {
      "x": 191,
      "y": 139,
      "size": 1,
      "price": "4683000000000000000000",
      "reserved": "",
      "salt": "0x82028722aaece1c3656a6e5cb83c2ec3e47a683150bdbce05bbce1224463933e",
      "assetIds": []
    },
    {
      "x": 191,
      "y": 140,
      "size": 1,
      "price": "4683000000000000000000",
      "reserved": "",
      "salt": "0xa7832d2c36ec96b5bb38d4a444681b37772950be6148198f6398712df366969e",
      "assetIds": []
    },
    {
      "x": 191,
      "y": 144,
      "size": 1,
      "price": "4683000000000000000000",
      "reserved": "",
      "salt": "0x98992b230e1dba321a97acaee5f7872445bdcfd9caf46d5d258c30fe8dbb4db9",
      "assetIds": []
    },
    {
      "x": 191,
      "y": 145,
      "size": 1,
      "price": "4683000000000000000000",
      "reserved": "",
      "salt": "0x21406cd0bef66c600ac1ac8f3403cbc8a921436367aca9151db05b86dcd7b95b",
      "assetIds": []
    },
    {
      "x": 191,
      "y": 146,
      "size": 1,
      "price": "4683000000000000000000",
      "reserved": "",
      "salt": "0x979c322c2137bb4d2e0c054fa1993f7578f75f65f75d730b5b8aebde1b2f53db",
      "assetIds": []
    },
    {
      "x": 191,
      "y": 147,
      "size": 1,
      "price": "1011000000000000000000",
      "reserved": "",
      "salt": "0xc429b9a5572d9c9c166d41997c5684d07e3d4eddf172fa8ff867e6d92a5e1b22",
      "assetIds": []
    },
    {
      "x": 191,
      "y": 148,
      "size": 1,
      "price": "1011000000000000000000",
      "reserved": "",
      "salt": "0x388ecd96720ea0ba63bd92a923e23a10945c74e1c5a7ccc0568798c6d2cff71e",
      "assetIds": []
    },
    {
      "x": 191,
      "y": 149,
      "size": 1,
      "price": "1011000000000000000000",
      "reserved": "",
      "salt": "0x5c236a601df9f3adbfaa1be06ef046eeeaafe1ae7fc90670c88d6902d48b7c2a",
      "assetIds": []
    },
    {
      "x": 191,
      "y": 162,
      "size": 1,
      "price": "1011000000000000000000",
      "reserved": "0x7a9fe22691c811ea339d9b73150e6911a5343dca",
      "salt": "0xc0c8e492d6114b1bc016261d71be4b72ec791a6a6ad60af91ece6376c8e22f7b",
      "assetIds": []
    },
    {
      "x": 191,
      "y": 163,
      "size": 1,
      "price": "1011000000000000000000",
      "reserved": "",
      "salt": "0x018f7b436f0ba3b9a987d08d78394afdbb60ccabd9dcf0a7f35555f34098dcbc",
      "assetIds": []
    },
    {
      "x": 192,
      "y": 144,
      "size": 1,
      "price": "4683000000000000000000",
      "reserved": "",
      "salt": "0x767148145796c7bd14192af6f379943fb69b0ef5abf97371bf31f65f46e64932",
      "assetIds": []
    },
    {
      "x": 192,
      "y": 145,
      "size": 1,
      "price": "4683000000000000000000",
      "reserved": "",
      "salt": "0x8fa93311b88fd118c905a9281602b1471479885aaca950abfd577f6aa9c859ae",
      "assetIds": []
    },
    {
      "x": 192,
      "y": 146,
      "size": 1,
      "price": "4683000000000000000000",
      "reserved": "",
      "salt": "0xc6ad32b6033e6cdfd1f9db6cd02edae700f409b132c7b185af2ceadf59cdfb13",
      "assetIds": []
    },
    {
      "x": 192,
      "y": 147,
      "size": 1,
      "price": "1011000000000000000000",
      "reserved": "",
      "salt": "0x0f74bc1a14c2f6b123f9c1514123189a9b9bde480bd78736772b1431ecbc6f69",
      "assetIds": []
    },
    {
      "x": 192,
      "y": 148,
      "size": 1,
      "price": "1011000000000000000000",
      "reserved": "",
      "salt": "0x50d6401c37930aeac2347e7f335dbbcc2bb133f2dc10c70734da843928f9e8e4",
      "assetIds": []
    },
    {
      "x": 192,
      "y": 149,
      "size": 1,
      "price": "4683000000000000000000",
      "reserved": "",
      "salt": "0x83f487c095b098333bf2e691ad07ef6ddfda0fb2de038947042565ac54986c10",
      "assetIds": []
    },
    {
      "x": 192,
      "y": 153,
      "size": 1,
      "price": "4683000000000000000000",
      "reserved": "",
      "salt": "0x3574449c499aedd6fdb5ea83e9fde829ca5e805f7b66e58c5ea829ce8674347c",
      "assetIds": []
    },
    {
      "x": 192,
      "y": 154,
      "size": 1,
      "price": "1011000000000000000000",
      "reserved": "",
      "salt": "0x5b9b29e7a7c8be374f6e093e4d31f48e0fe28d8f0214070e6aff58732db2bebe",
      "assetIds": []
    },
    {
      "x": 192,
      "y": 155,
      "size": 1,
      "price": "1011000000000000000000",
      "reserved": "",
      "salt": "0xe96bff5c18934e867170ce2e25e8b02931904c3c99526f357821f00fed90f3e5",
      "assetIds": []
    },
    {
      "x": 192,
      "y": 156,
      "size": 1,
      "price": "4683000000000000000000",
      "reserved": "",
      "salt": "0x78863d1782f36e131dc7f4bdd9b9690c2da8f83ef6d88b051369891bedc563fc",
      "assetIds": []
    },
    {
      "x": 192,
      "y": 157,
      "size": 1,
      "price": "4683000000000000000000",
      "reserved": "",
      "salt": "0x863ff70e8070a94b997488b3e7b94352529b81d43d1d598e3e88a92c24ef20dd",
      "assetIds": []
    },
    {
      "x": 192,
      "y": 158,
      "size": 1,
      "price": "4683000000000000000000",
      "reserved": "",
      "salt": "0x51949fe00ae80717bce35cdfd0238f2a0a70c5e0d11fe365006a155ebaab9783",
      "assetIds": []
    },
    {
      "x": 192,
      "y": 162,
      "size": 1,
      "price": "1011000000000000000000",
      "reserved": "",
      "salt": "0x6ad51ce1b933b6050b1a23f35c81399a0f1e3acadd5f01e9dc78b2b521fd0e86",
      "assetIds": []
    },
    {
      "x": 192,
      "y": 163,
      "size": 1,
      "price": "1011000000000000000000",
      "reserved": "",
      "salt": "0xabdffda8c0b1373b5d165a36804b809b3ab12b40b8cc9e865c5c43cc3963f910",
      "assetIds": []
    },
    {
      "x": 193,
      "y": 144,
      "size": 1,
      "price": "4683000000000000000000",
      "reserved": "",
      "salt": "0xff6569e2930519fb9debe71972ec99400f749450753c98548b4373190999cd38",
      "assetIds": []
    },
    {
      "x": 193,
      "y": 145,
      "size": 1,
      "price": "4683000000000000000000",
      "reserved": "",
      "salt": "0xd15ae840cebf5202654065c08931d1dee0602fcdbdaff78f2514593ed07ca975",
      "assetIds": []
    },
    {
      "x": 193,
      "y": 146,
      "size": 1,
      "price": "4683000000000000000000",
      "reserved": "",
      "salt": "0x70f431d6918b8913096cbdeb881a1784c33a1518df17095b27cf5e37d6e5e881",
      "assetIds": []
    },
    {
      "x": 193,
      "y": 147,
      "size": 1,
      "price": "1011000000000000000000",
      "reserved": "",
      "salt": "0x7bb68933eec25d8584d871d7c7994484155d63c9fb432ac471b1046653da5529",
      "assetIds": []
    },
    {
      "x": 193,
      "y": 148,
      "size": 1,
      "price": "1011000000000000000000",
      "reserved": "",
      "salt": "0x6ea6c61c92366c181fbb6094e76c1871939acb84c403c92aab1a7eb617330600",
      "assetIds": []
    },
    {
      "x": 193,
      "y": 149,
      "size": 1,
      "price": "1011000000000000000000",
      "reserved": "",
      "salt": "0xd59cb16b817c8011fed7c04c6e74dc84a93b4bf72fcef3c8c73d086e564b0b8b",
      "assetIds": []
    },
    {
      "x": 193,
      "y": 153,
      "size": 1,
      "price": "4683000000000000000000",
      "reserved": "",
      "salt": "0x7de29ab7ce08468b02894d78e6ada15f98fb5c9eb223c015282a1064aea40dd2",
      "assetIds": []
    },
    {
      "x": 193,
      "y": 154,
      "size": 1,
      "price": "1011000000000000000000",
      "reserved": "",
      "salt": "0xbed750b71d889987a602e4cbcc7afd2b4ac62f4406ac7b22b22ca568de025113",
      "assetIds": []
    },
    {
      "x": 193,
      "y": 155,
      "size": 1,
      "price": "1011000000000000000000",
      "reserved": "",
      "salt": "0xef274c0881c81e63107a6f815ccda71f907133485f09a807b10fc3d4baecf405",
      "assetIds": []
    },
    {
      "x": 193,
      "y": 156,
      "size": 1,
      "price": "1011000000000000000000",
      "reserved": "",
      "salt": "0xda5cad90a7ee4923afb163f583b6595c602824758e92e5023ea4646d11b94b41",
      "assetIds": []
    },
    {
      "x": 193,
      "y": 157,
      "size": 1,
      "price": "1011000000000000000000",
      "reserved": "",
      "salt": "0xd3aa9acde847fa52f187d6341a0f8fcb7dab505195808fcdbf56604e9029930e",
      "assetIds": []
    },
    {
      "x": 193,
      "y": 158,
      "size": 1,
      "price": "1011000000000000000000",
      "reserved": "",
      "salt": "0x90e305c529943e8a1137c10828e6178b0eb0b8d9028fff15ea99da95828733bb",
      "assetIds": []
    },
    {
      "x": 193,
      "y": 162,
      "size": 1,
      "price": "1011000000000000000000",
      "reserved": "",
      "salt": "0x6238a0b8e413bfdfb29bbfcd43ddb9904016cd170cbf57ff029a399b4477bef2",
      "assetIds": []
    },
    {
      "x": 193,
      "y": 163,
      "size": 1,
      "price": "1011000000000000000000",
      "reserved": "",
      "salt": "0x3204b9fbebb7b541964c0744062a9827a7ccd596c903a9622a43fb8bd764e50b",
      "assetIds": []
    },
    {
      "x": 193,
      "y": 164,
      "size": 1,
      "price": "1011000000000000000000",
      "reserved": "",
      "salt": "0x2c5053cbdeb06f5b236b61470d324b7c0aba891b6eaf9a945945a6e49af6a181",
      "assetIds": []
    },
    {
      "x": 194,
      "y": 144,
      "size": 1,
      "price": "4683000000000000000000",
      "reserved": "",
      "salt": "0xd6318bfc83950b442eb47d58f3541cbe9c5897146a669cdc5f9c2c292d08e893",
      "assetIds": []
    },
    {
      "x": 194,
      "y": 145,
      "size": 1,
      "price": "4683000000000000000000",
      "reserved": "",
      "salt": "0xdce373814ef5ac5bf1116842ae2eddbc05721002e4bcda83f97b0e9bca326d43",
      "assetIds": []
    },
    {
      "x": 194,
      "y": 146,
      "size": 1,
      "price": "4683000000000000000000",
      "reserved": "",
      "salt": "0x98df08fdbf550be20f0698da4f280efcc65f2819402792919f517bca2a4416d7",
      "assetIds": []
    },
    {
      "x": 194,
      "y": 147,
      "size": 1,
      "price": "1011000000000000000000",
      "reserved": "",
      "salt": "0x7b451b8cf6275559c939c2fb16176ef3ea589675bdf7c7cbe3283842893a462e",
      "assetIds": []
    },
    {
      "x": 194,
      "y": 148,
      "size": 1,
      "price": "1011000000000000000000",
      "reserved": "",
      "salt": "0x45b7e6a5b12ab58616685feccafbb7ea211ac9c766028624c0c701b32d08ee6c",
      "assetIds": []
    },
    {
      "x": 194,
      "y": 149,
      "size": 1,
      "price": "4683000000000000000000",
      "reserved": "",
      "salt": "0x31eb3dd770f6e58ca06fcac2a5887142e5d9d6e76612b9541e83480eb1c7ee04",
      "assetIds": []
    },
    {
      "x": 194,
      "y": 153,
      "size": 1,
      "price": "4683000000000000000000",
      "reserved": "",
      "salt": "0xab0faadef5e98a0ee9cd15351ff859cbc17644d5a4bb2c5750085d9718b7f0af",
      "assetIds": []
    },
    {
      "x": 194,
      "y": 154,
      "size": 1,
      "price": "1011000000000000000000",
      "reserved": "",
      "salt": "0x92e8a95de4ccfdca3f9d1785baa596e0278c06881336078f739403e2d0347ad0",
      "assetIds": []
    },
    {
      "x": 194,
      "y": 155,
      "size": 1,
      "price": "1011000000000000000000",
      "reserved": "",
      "salt": "0x391e3032a8163735e6fdf515d94924a635357476cbc26bd691f2021f4ecf5435",
      "assetIds": []
    },
    {
      "x": 194,
      "y": 156,
      "size": 1,
      "price": "1011000000000000000000",
      "reserved": "",
      "salt": "0xe743b7e923b33ced6fd62fb9ecb9c109b4f36551c3c495afb310c89c4decc3a5",
      "assetIds": []
    },
    {
      "x": 194,
      "y": 157,
      "size": 1,
      "price": "1011000000000000000000",
      "reserved": "",
      "salt": "0xc35127dc19ff97c999f42c613438d2342a8ae837f1f8b2b898240f9f21c27d04",
      "assetIds": []
    },
    {
      "x": 194,
      "y": 158,
      "size": 1,
      "price": "1011000000000000000000",
      "reserved": "",
      "salt": "0xd1fa98e645ebd43f4f3d829e0735efbc5e6371ee125ec2532cb21115f8cdb0b7",
      "assetIds": []
    },
    {
      "x": 194,
      "y": 162,
      "size": 1,
      "price": "1011000000000000000000",
      "reserved": "",
      "salt": "0xe453cac5c1089b952089174686065869884ff23cf6673b99913a35cf8b245a97",
      "assetIds": []
    },
    {
      "x": 194,
      "y": 163,
      "size": 1,
      "price": "1011000000000000000000",
      "reserved": "",
      "salt": "0xad27fa5752aa8b1a8e625a1783083a571427bff513b40f126fb550300db4729c",
      "assetIds": []
    },
    {
      "x": 194,
      "y": 164,
      "size": 1,
      "price": "1011000000000000000000",
      "reserved": "",
      "salt": "0x0ce696d322d8268ff068dfce8db97c8b1b348e332389cd08e44412ad3739d470",
      "assetIds": []
    },
    {
      "x": 195,
      "y": 144,
      "size": 1,
      "price": "4683000000000000000000",
      "reserved": "",
      "salt": "0x588494d8c6d2569a0e4450e99b159c78866244d99a4f5c74a1e9bc8ef95c7a6e",
      "assetIds": []
    },
    {
      "x": 195,
      "y": 145,
      "size": 1,
      "price": "4683000000000000000000",
      "reserved": "",
      "salt": "0x7b0439491ae9c9d7dc550d6f6e6c1d475a790cbe350725a32c8826781347e2f4",
      "assetIds": []
    },
    {
      "x": 195,
      "y": 146,
      "size": 1,
      "price": "4683000000000000000000",
      "reserved": "",
      "salt": "0xe67fe5b6c1532ab58f2bfc900c5f0dbc1a9ac55dd7f9280364ab847025d1fb48",
      "assetIds": []
    },
    {
      "x": 195,
      "y": 147,
      "size": 1,
      "price": "1011000000000000000000",
      "reserved": "",
      "salt": "0x52e9ddde7a99f9f2a8b933a84bdbbc2caf9d4992f3258a4f125663a3425cb89e",
      "assetIds": []
    },
    {
      "x": 195,
      "y": 148,
      "size": 1,
      "price": "1011000000000000000000",
      "reserved": "",
      "salt": "0x801c7cd8eb9f4973a05ccd2723c45775bd9fadb7f593848ff7ae0b3fac13b1e9",
      "assetIds": []
    },
    {
      "x": 195,
      "y": 149,
      "size": 1,
      "price": "1011000000000000000000",
      "reserved": "0x7a9fe22691c811ea339d9b73150e6911a5343dca",
      "salt": "0xe810170ad8cf4b394e68df0fffe6ff8fda7ca4cd6ec8cc23880c418a58338046",
      "assetIds": []
    },
    {
      "x": 195,
      "y": 150,
      "size": 1,
      "price": "4683000000000000000000",
      "reserved": "",
      "salt": "0x0e80c77f23204185ced38f0b3fc282f6a7fa4c8300181e3856c2c21a5e82c9ad",
      "assetIds": []
    },
    {
      "x": 195,
      "y": 151,
      "size": 1,
      "price": "4683000000000000000000",
      "reserved": "",
      "salt": "0x7f4df5bb697dfe587f34a96063ff75f06f8e1f48b2082d9bda1c5412f42e72fc",
      "assetIds": []
    },
    {
      "x": 195,
      "y": 152,
      "size": 1,
      "price": "1011000000000000000000",
      "reserved": "0x7a9fe22691c811ea339d9b73150e6911a5343dca",
      "salt": "0x9ce742578a945dc7ba82ea7aa8d594b9b4265800a257b91ea092012e81f23d43",
      "assetIds": []
    },
    {
      "x": 195,
      "y": 156,
      "size": 1,
      "price": "1011000000000000000000",
      "reserved": "",
      "salt": "0x2c05afa2ff9f92a8ed9f06e24b45708649ea35208c3a9575917d2aec19d8ed93",
      "assetIds": []
    },
    {
      "x": 195,
      "y": 157,
      "size": 1,
      "price": "1011000000000000000000",
      "reserved": "",
      "salt": "0xb532edeaff97bd0c536f6251db3436e1441e379a771efcfe7d131c156ed8da3c",
      "assetIds": []
    },
    {
      "x": 195,
      "y": 158,
      "size": 1,
      "price": "1011000000000000000000",
      "reserved": "",
      "salt": "0x095aa67842802599d382e00ad0806a7e0db314f8b82d8fec09ccd074d34f7343",
      "assetIds": []
    },
    {
      "x": 195,
      "y": 159,
      "size": 1,
      "price": "1011000000000000000000",
      "reserved": "",
      "salt": "0x6283eabd665fcc98798195cc0d42599a282c6ffc47317ffeda2ea2b48e9e0b51",
      "assetIds": []
    },
    {
      "x": 195,
      "y": 161,
      "size": 1,
      "price": "1011000000000000000000",
      "reserved": "",
      "salt": "0x15967d1d21b7e2a112c4c8e978eb34b20b0fa275d6fbd84db7700cc04af65e1f",
      "assetIds": []
    },
    {
      "x": 195,
      "y": 162,
      "size": 1,
      "price": "1011000000000000000000",
      "reserved": "",
      "salt": "0x6e56d2f8ef024c562c8f7937f1f40ef316504087c8a2ea3f1669e157da1bcfb8",
      "assetIds": []
    },
    {
      "x": 195,
      "y": 163,
      "size": 1,
      "price": "1011000000000000000000",
      "reserved": "",
      "salt": "0xe7f65ca99b5ee873c5f592c76199a03ae688ed82c35788418542f3eac105b3c1",
      "assetIds": []
    },
    {
      "x": 195,
      "y": 164,
      "size": 1,
      "price": "1011000000000000000000",
      "reserved": "",
      "salt": "0xed90dfe169bdb328b8692844bd5fca9e07b064c81ec1958a747798f4d7067309",
      "assetIds": []
    },
    {
      "x": 196,
      "y": 144,
      "size": 1,
      "price": "4683000000000000000000",
      "reserved": "",
      "salt": "0xd1b9eeeb212f804282d9989bba3fa751cfaac55093f7ee24e0e147f2fdec5131",
      "assetIds": []
    },
    {
      "x": 196,
      "y": 145,
      "size": 1,
      "price": "4683000000000000000000",
      "reserved": "",
      "salt": "0x7651652a70b179f60e54f38d63d83c3c347c0fa34d397f47268b23fa5f7bf9e6",
      "assetIds": []
    },
    {
      "x": 196,
      "y": 146,
      "size": 1,
      "price": "4683000000000000000000",
      "reserved": "",
      "salt": "0xc7cdf6a5080efbe04a84184ec5abe0fb114ffe4f4ce9234d3d4e97e5bb7ecaaa",
      "assetIds": []
    },
    {
      "x": 196,
      "y": 147,
      "size": 1,
      "price": "1011000000000000000000",
      "reserved": "",
      "salt": "0x9a465877fad56a76b8b2ed61e6bcae6e660fbea9c6ab94eaf99975bcd31a0ce7",
      "assetIds": []
    },
    {
      "x": 196,
      "y": 148,
      "size": 1,
      "price": "1011000000000000000000",
      "reserved": "",
      "salt": "0x8d9b3069f8682feb4e743a5a2a029e76ea11d177da5e3437716630753ae2f4f8",
      "assetIds": []
    },
    {
      "x": 196,
      "y": 149,
      "size": 1,
      "price": "1011000000000000000000",
      "reserved": "",
      "salt": "0x680e5401e3e3d053295395a217148fefc995836414eab20d946d6ac5f9160e58",
      "assetIds": []
    },
    {
      "x": 196,
      "y": 150,
      "size": 1,
      "price": "1011000000000000000000",
      "reserved": "",
      "salt": "0x094cd7ec902d8c009dd6bddd9bf62693c876c3144839a83c45d8c32cd5d108bb",
      "assetIds": []
    },
    {
      "x": 196,
      "y": 151,
      "size": 1,
      "price": "1011000000000000000000",
      "reserved": "",
      "salt": "0xf577a05377876d1052a9c52419b4001d7598a34cdf5bd6d7c9961e41b4f18745",
      "assetIds": []
    },
    {
      "x": 196,
      "y": 152,
      "size": 1,
      "price": "1011000000000000000000",
      "reserved": "",
      "salt": "0x1a55c9a5b9f198fed39cc17774b0948d1825eb336d5b50724281b932d0196b69",
      "assetIds": []
    },
    {
      "x": 196,
      "y": 156,
      "size": 1,
      "price": "1011000000000000000000",
      "reserved": "",
      "salt": "0xb772e0acb85d0f48caf43cc91ab6fcce7d0faa9af22157b4c0887f063f0f632e",
      "assetIds": []
    },
    {
      "x": 196,
      "y": 157,
      "size": 1,
      "price": "1011000000000000000000",
      "reserved": "",
      "salt": "0x3f015994909015a1b6d71c2d3da56d3357bfd80c11b0b31edc52f21cca38a627",
      "assetIds": []
    },
    {
      "x": 196,
      "y": 158,
      "size": 1,
      "price": "1011000000000000000000",
      "reserved": "",
      "salt": "0xa0d897ffce24f33987d7ce5557cae8efb60556ffa360b2daa25521cc2bbce2bf",
      "assetIds": []
    },
    {
      "x": 196,
      "y": 159,
      "size": 1,
      "price": "1011000000000000000000",
      "reserved": "",
      "salt": "0x26f818368511b859479006fbc8ee8913e19af4f9f9a8ecafe5fdbe869183c6dd",
      "assetIds": []
    },
    {
      "x": 196,
      "y": 160,
      "size": 1,
      "price": "1011000000000000000000",
      "reserved": "",
      "salt": "0xefb34c00df4bac816c0127a005a6890bbb1af1fb71204650419a15c4e4f7ee62",
      "assetIds": []
    },
    {
      "x": 196,
      "y": 161,
      "size": 1,
      "price": "1011000000000000000000",
      "reserved": "",
      "salt": "0x3737ad082d4cc8b06fd35aad615b924220a34c8139f88995abc03e7b82ef1463",
      "assetIds": []
    },
    {
      "x": 196,
      "y": 162,
      "size": 1,
      "price": "1011000000000000000000",
      "reserved": "",
      "salt": "0xd2c695150ee0f807d1f2b13f84f085d39e4051c5e69ff66853b13f8838b355f1",
      "assetIds": []
    },
    {
      "x": 196,
      "y": 163,
      "size": 1,
      "price": "1011000000000000000000",
      "reserved": "",
      "salt": "0x43bb590057e25244e2ba6ceda985f26d702835d5faf43361baa58f3007045373",
      "assetIds": []
    },
    {
      "x": 196,
      "y": 164,
      "size": 1,
      "price": "1011000000000000000000",
      "reserved": "",
      "salt": "0xc8664618046051c29d9bbbd656f6899c6a3a9c1a945e2c11c46280623ea06091",
      "assetIds": []
    },
    {
      "x": 197,
      "y": 144,
      "size": 1,
      "price": "4683000000000000000000",
      "reserved": "",
      "salt": "0xaadac0c8575b62b2c9cca67c21291602c8f6d29a9b75af20161b580d2f80b411",
      "assetIds": []
    },
    {
      "x": 197,
      "y": 145,
      "size": 1,
      "price": "4683000000000000000000",
      "reserved": "",
      "salt": "0x365151b92e432ed3b66087001dc82fde60961865ce0f4c4c5ce039caa3edd593",
      "assetIds": []
    },
    {
      "x": 197,
      "y": 146,
      "size": 1,
      "price": "4683000000000000000000",
      "reserved": "",
      "salt": "0xff3ecc8475ff8158bf9a79dbe218550804de40991e3f06b4ed59da7fa754faab",
      "assetIds": []
    },
    {
      "x": 197,
      "y": 147,
      "size": 1,
      "price": "1011000000000000000000",
      "reserved": "",
      "salt": "0x523b0d0e29554dc2cd1c6361bd7c97b19d8409a60dea1913209b3dc2ac6928b1",
      "assetIds": []
    },
    {
      "x": 197,
      "y": 148,
      "size": 1,
      "price": "1011000000000000000000",
      "reserved": "",
      "salt": "0x1ec6beaecef30aca915fec3b675f322135873c8cf30d130342461ab54961cb87",
      "assetIds": []
    },
    {
      "x": 197,
      "y": 149,
      "size": 1,
      "price": "1011000000000000000000",
      "reserved": "",
      "salt": "0xc43664f21846d8f6db5f223d6fde0771425d6a5362d76a4394ffccb49b021be6",
      "assetIds": []
    },
    {
      "x": 197,
      "y": 150,
      "size": 1,
      "price": "1011000000000000000000",
      "reserved": "",
      "salt": "0x6ad507b3ff99ff626eca7035819a91f125a49fec2dbfff91bc16fd4996b75a1a",
      "assetIds": []
    },
    {
      "x": 197,
      "y": 151,
      "size": 1,
      "price": "1011000000000000000000",
      "reserved": "",
      "salt": "0x31f5d0eeea1a9c8f773b82507e110852025c86b7f96244f99ffc10ce329d1873",
      "assetIds": []
    },
    {
      "x": 197,
      "y": 152,
      "size": 1,
      "price": "1011000000000000000000",
      "reserved": "",
      "salt": "0x18d8b460ba0b6abd267d2968699294b6240885e2b8a7c163534d4ee6f6c06843",
      "assetIds": []
    },
    {
      "x": 197,
      "y": 156,
      "size": 1,
      "price": "1011000000000000000000",
      "reserved": "",
      "salt": "0x81036f758af94a6787980508bf74691dc18f957739c4a8dbb053e93b6b2c5b28",
      "assetIds": []
    },
    {
      "x": 197,
      "y": 157,
      "size": 1,
      "price": "1011000000000000000000",
      "reserved": "",
      "salt": "0x49a0b6dad4174ca2c3f1aa27331ebc92123300dd368f6a04ba2bf7ef1343f50e",
      "assetIds": []
    },
    {
      "x": 197,
      "y": 158,
      "size": 1,
      "price": "1011000000000000000000",
      "reserved": "",
      "salt": "0x100658da600cbb22955ef863b1564bfb8a49510f225591fd0260c4d215287a3c",
      "assetIds": []
    },
    {
      "x": 197,
      "y": 159,
      "size": 1,
      "price": "1011000000000000000000",
      "reserved": "",
      "salt": "0x7954619c46a631f73a0e066096c40ddf38067b42ad62159803734e9993a236ad",
      "assetIds": []
    },
    {
      "x": 197,
      "y": 160,
      "size": 1,
      "price": "1011000000000000000000",
      "reserved": "",
      "salt": "0xcc8ee2a5cb22dd2fa61b250e59887c80189ea0c0923bd1f15c722e16dc397457",
      "assetIds": []
    },
    {
      "x": 197,
      "y": 161,
      "size": 1,
      "price": "1011000000000000000000",
      "reserved": "",
      "salt": "0x376444ea6f0cf15ee8091921dfbf6ec04c7dff4ccb0d5427536de9f7c797200d",
      "assetIds": []
    },
    {
      "x": 197,
      "y": 162,
      "size": 1,
      "price": "1011000000000000000000",
      "reserved": "",
      "salt": "0x850afa04678e2d1f5838251d5efff8fd31dcf8d30febd5407f87a9528d62a325",
      "assetIds": []
    },
    {
      "x": 197,
      "y": 163,
      "size": 1,
      "price": "1011000000000000000000",
      "reserved": "",
      "salt": "0xe3732a23b175d4606ec67c2c46823ecfb7b7e8f7e79cffaceee3139b98732868",
      "assetIds": []
    },
    {
      "x": 197,
      "y": 164,
      "size": 1,
      "price": "1011000000000000000000",
      "reserved": "",
      "salt": "0x1afc526388c3489df3ddb38284a2a55527bcaa85bb51897bdab5e677e7db5928",
      "assetIds": []
    },
    {
      "x": 198,
      "y": 147,
      "size": 1,
      "price": "1011000000000000000000",
      "reserved": "",
      "salt": "0x5017140c2b6ad336d6ad6970c9269672d044db4cb729f665040845ffe95a3e21",
      "assetIds": []
    },
    {
      "x": 198,
      "y": 148,
      "size": 1,
      "price": "1011000000000000000000",
      "reserved": "",
      "salt": "0x0d77d1469242b258ec9a270980a0e637df35d2b69c21082d0d7015ca71e0910d",
      "assetIds": []
    },
    {
      "x": 198,
      "y": 149,
      "size": 1,
      "price": "1011000000000000000000",
      "reserved": "",
      "salt": "0xc7837f28b6c2b9e4683b33b0320440f024256b4a4c1911dfd1db783f6c26a0cb",
      "assetIds": []
    },
    {
      "x": 198,
      "y": 150,
      "size": 1,
      "price": "1011000000000000000000",
      "reserved": "",
      "salt": "0x60cc15f7870c722ab9f717001ef2f57b1146d6b12aea91820f13e3a513281060",
      "assetIds": []
    },
    {
      "x": 198,
      "y": 151,
      "size": 1,
      "price": "1011000000000000000000",
      "reserved": "0x7a9fe22691c811ea339d9b73150e6911a5343dca",
      "salt": "0xb0c9c10d49e231e2145fde7f3f9ccf5a3d741765f1b2ff9c1ec6900be3044356",
      "assetIds": []
    },
    {
      "x": 198,
      "y": 152,
      "size": 1,
      "price": "1011000000000000000000",
      "reserved": "",
      "salt": "0x007fecbe193b3781d31ed9e2776d0cb9d67b4b50f9acafdb2231688f72d73484",
      "assetIds": []
    },
    {
      "x": 198,
      "y": 153,
      "size": 1,
      "price": "1011000000000000000000",
      "reserved": "",
      "salt": "0xae37e89e3d1089de31fb7e6b91073ae92be343fab83a0e4106db49101650299b",
      "assetIds": []
    },
    {
      "x": 198,
      "y": 154,
      "size": 1,
      "price": "1011000000000000000000",
      "reserved": "",
      "salt": "0x73ab88c2d6a1e245ed06c18358fb14cc47a79c2b8fa0e396bcd56ed0b9564889",
      "assetIds": []
    },
    {
      "x": 198,
      "y": 155,
      "size": 1,
      "price": "1011000000000000000000",
      "reserved": "",
      "salt": "0x6a0eb9d916e921f4b6e61488cef7c07e8cf9cccd21e46048db9918aed173bcde",
      "assetIds": []
    },
    {
      "x": 199,
      "y": 147,
      "size": 1,
      "price": "1011000000000000000000",
      "reserved": "",
      "salt": "0x0035c1fa1babb9874d38d2d1789db796994d242d53d1c20f917df905f29ffb0f",
      "assetIds": []
    },
    {
      "x": 199,
      "y": 148,
      "size": 1,
      "price": "1011000000000000000000",
      "reserved": "",
      "salt": "0x245e7ccd5269e7b7127ccd98bf3007aa6e9116bbbaf49f387db2562f7a94d726",
      "assetIds": []
    },
    {
      "x": 199,
      "y": 149,
      "size": 1,
      "price": "1011000000000000000000",
      "reserved": "",
      "salt": "0x6c954913cf40e51350dfe521a71cebc1c629b87da537cf327c8e9feb1870bec9",
      "assetIds": []
    },
    {
      "x": 199,
      "y": 150,
      "size": 1,
      "price": "1011000000000000000000",
      "reserved": "",
      "salt": "0xbbc7faafcfd6b084f07146703d311bd34778b351a417cb2edddbcf91791bd9c2",
      "assetIds": []
    },
    {
      "x": 199,
      "y": 151,
      "size": 1,
      "price": "1011000000000000000000",
      "reserved": "",
      "salt": "0xd7c40db1586ace3b2fd276354abc217cf4b2a5e98b432843c750f3873f449d7e",
      "assetIds": []
    },
    {
      "x": 199,
      "y": 152,
      "size": 1,
      "price": "1011000000000000000000",
      "reserved": "",
      "salt": "0x0fcab92b2f449ada858c7b311a8b454f44a9fbce72661eb821cc9620801ca0da",
      "assetIds": []
    },
    {
      "x": 199,
      "y": 153,
      "size": 1,
      "price": "1011000000000000000000",
      "reserved": "",
      "salt": "0x3f789176e6a7933af34d6cddba5ffbdf4fd052d8591560f3a2a62540b9bd75d5",
      "assetIds": []
    },
    {
      "x": 199,
      "y": 154,
      "size": 1,
      "price": "1011000000000000000000",
      "reserved": "",
      "salt": "0x8f0e226eb86fa7b945847eea7ab58fa11d99616ede01f6671a59f704573db952",
      "assetIds": []
    },
    {
      "x": 199,
      "y": 155,
      "size": 1,
      "price": "1011000000000000000000",
      "reserved": "",
      "salt": "0x5bb6fd03f741732e375f8f4d07ac363750544670cb7f2a55f7e3167c219caf1c",
      "assetIds": []
    },
    {
      "x": 200,
      "y": 147,
      "size": 1,
      "price": "1011000000000000000000",
      "reserved": "",
      "salt": "0x1cf17907c1bcea6fd8f6b09d1ec56385f6d66de09bbc05e59cbdc5c7795a1d85",
      "assetIds": []
    },
    {
      "x": 200,
      "y": 148,
      "size": 1,
      "price": "1011000000000000000000",
      "reserved": "",
      "salt": "0x393821e91f7fb86de337cf2e16117ce51861e84aedf47c98d9d98c9bd2c78cdb",
      "assetIds": []
    },
    {
      "x": 200,
      "y": 149,
      "size": 1,
      "price": "1011000000000000000000",
      "reserved": "",
      "salt": "0x234d834a0a80823668a423c260394cb2bcf7045a65517ac87d6f8aa55691b37f",
      "assetIds": []
    },
    {
      "x": 200,
      "y": 150,
      "size": 1,
      "price": "1011000000000000000000",
      "reserved": "",
      "salt": "0x393177c0625fdf1b0f4f5ad79b2752fcaa71a18f9bdc67da53820e037a77e0b6",
      "assetIds": []
    },
    {
      "x": 200,
      "y": 151,
      "size": 1,
      "price": "1011000000000000000000",
      "reserved": "",
      "salt": "0x7383c24b9f0d56a5a491218436fe1e8edf375211fa17f62d207460c4f227bc74",
      "assetIds": []
    },
    {
      "x": 200,
      "y": 152,
      "size": 1,
      "price": "1011000000000000000000",
      "reserved": "",
      "salt": "0xcd76857554a8dd9d6a9ea1a0fed49b2c05afff5884844e02f7c41c26e26fc042",
      "assetIds": []
    },
    {
      "x": 200,
      "y": 153,
      "size": 1,
      "price": "1011000000000000000000",
      "reserved": "",
      "salt": "0xb9298c735eedb693ada69b2caebfdc71b6dcd57b4a84d8481c799e00a0b5dbaf",
      "assetIds": []
    },
    {
      "x": 200,
      "y": 154,
      "size": 1,
      "price": "1011000000000000000000",
      "reserved": "",
      "salt": "0x678d1b7645f840153fe0766d0297efab7ade69cea33bb31841c219f5684e251f",
      "assetIds": []
    },
    {
      "x": 200,
      "y": 155,
      "size": 1,
      "price": "1011000000000000000000",
      "reserved": "",
      "salt": "0x1c5998946d871e3b52aad82ed4ab4ff0afe012d935eb7fcc691b0c7016d3effd",
      "assetIds": []
    },
    {
      "x": 204,
      "y": 138,
      "size": 1,
      "price": "1011000000000000000000",
      "reserved": "",
      "salt": "0x841509757a5c515589b7777eb22743ce432c6d7396b21f70bdd6c69753e127ed",
      "assetIds": []
    },
    {
      "x": 204,
      "y": 139,
      "size": 1,
      "price": "1011000000000000000000",
      "reserved": "0x7a9fe22691c811ea339d9b73150e6911a5343dca",
      "salt": "0xf5c0112c1b31b983b8b07ca505a4620fc4a28c9c6043040acaaf317d7230bc0d",
      "assetIds": []
    },
    {
      "x": 204,
      "y": 140,
      "size": 1,
      "price": "4683000000000000000000",
      "reserved": "",
      "salt": "0xddfa35b5f881815f63dfe2a0a386dde02e9f5e38cf5c1da90a7e7ef24d6728d2",
      "assetIds": []
    },
    {
      "x": 205,
      "y": 138,
      "size": 1,
      "price": "1011000000000000000000",
      "reserved": "",
      "salt": "0xa282b86e3c9c89aa004e2a5bb1f184a4ef9038bb36d8a7988d2a0d5d8f09a627",
      "assetIds": []
    },
    {
      "x": 205,
      "y": 139,
      "size": 1,
      "price": "1011000000000000000000",
      "reserved": "0x7a9fe22691c811ea339d9b73150e6911a5343dca",
      "salt": "0xb2c50550cef34ff1278ee09e4eafd1df14f528885a8708ee66d7beeae6551ceb",
      "assetIds": []
    },
    {
      "x": 205,
      "y": 140,
      "size": 1,
      "price": "1011000000000000000000",
      "reserved": "",
      "salt": "0x19e2ecb815110fee8001d84ecb456d3db551ec9f6d68a86b952d716bfd638b0f",
      "assetIds": []
    },
    {
      "x": 206,
      "y": 138,
      "size": 1,
      "price": "1011000000000000000000",
      "reserved": "",
      "salt": "0x91d511a72d777711ed88040789c10f63244d49e6a47a78f40e335245959e7e8e",
      "assetIds": []
    },
    {
      "x": 206,
      "y": 139,
      "size": 1,
      "price": "1011000000000000000000",
      "reserved": "",
      "salt": "0xcaca6b9ca45ed4dcd0108f14144163c6314d416ce435fd4e338c6202cea563c2",
      "assetIds": []
    },
    {
      "x": 206,
      "y": 140,
      "size": 1,
      "price": "1011000000000000000000",
      "reserved": "",
      "salt": "0x5a3d7c2bac8c9d3a959c09b31aca1edd634889dc0db7b237cf47b11eebeeef62",
      "assetIds": []
    }
  ],
  "solcInputHash": "ec605981be9adfd04d88d4245397bb77",
  "bytecode": "0x6101606040523480156200001257600080fd5b50604051620031e9380380620031e983398181016040526101a08110156200003957600080fd5b508051602082015160408301516060840151608085015160a086015160c087015160e08801516101008901516101208a01516101408b01516101608c0151610180909c015160016000559a9b999a9899979896979596949593949293919290919085856001600160a01b038216620000f8576040805162461bcd60e51b815260206004820152601f60248201527f526566657272616c56616c696461746f723a207a65726f206164647265737300604482015290519081900360640190fd5b600380546001600160a01b0319166001600160a01b0393841617905560045562000130908e1662000459602090811b62002adc17901c565b6200016d5760405162461bcd60e51b8152600401808060200182810382526025815260200180620031c46025913960400191505060405180910390fd5b6200018c8c6001600160a01b03166200045960201b62002adc1760201c565b620001c95760405162461bcd60e51b8152600401808060200182810382526025815260200180620031c46025913960400191505060405180910390fd5b6001600160a01b038b1662000214576040805162461bcd60e51b815260206004820181905260248201526000805160206200317f833981519152604482015290519081900360640190fd5b6001600160a01b038a166200025f576040805162461bcd60e51b815260206004820181905260248201526000805160206200317f833981519152604482015290519081900360640190fd5b6001600160a01b038916620002aa576040805162461bcd60e51b815260206004820181905260248201526000805160206200317f833981519152604482015290519081900360640190fd5b620002c9836001600160a01b03166200045960201b62002adc1760201c565b620003065760405162461bcd60e51b8152600401808060200182810382526025815260200180620031c46025913960400191505060405180910390fd5b6001600160a01b03821662000351576040805162461bcd60e51b815260206004820181905260248201526000805160206200317f833981519152604482015290519081900360640190fd5b62000370816001600160a01b03166200045960201b62002adc1760201c565b620003ad5760405162461bcd60e51b8152600401808060200182810382526025815260200180620031c46025913960400191505060405180910390fd5b6001600160601b031960608e811b821660a0528d901b1660c052620003dd8b60016001600160e01b036200045f16565b600680546001600160a01b039a8b166001600160a01b031991821617909155610140989098526101209690965260018054998916998816999099179098556001600160601b0319606092831b811660e05290821b811660805296901b909516610100525060078054919093169116179055506200050a92505050565b3b151590565b6001600160a01b038216620004a65760405162461bcd60e51b81526004018080602001828103825260258152602001806200319f6025913960400191505060405180910390fd5b6001600160a01b038216600081815260026020908152604091829020805460ff191685151590811790915582519384529083015280517fb21eb88b4e33b3f1281830a7178d74d8aa73220416215726b68ae23d539515cb9281900390910190a15050565b60805160601c60a05160601c60c05160601c60e05160601c6101005160601c6101205161014051612bef6200059060003980610be0528061247e525080610bbc528061159d5250806124fc525080611af25280611c4f525080611aa85280611e4e52806124d9525080611b235280611c205250806111075280611f3a5250612bef6000f3fe608060405234801561001057600080fd5b50600436106101365760003560e01c8063984d6252116100b2578063c10a420811610081578063dc5074af11610066578063dc5074af146108a0578063e56f8a9e146108c6578063f23a6e61146108e357610136565b8063c10a4208146107c1578063caed35001461089857610136565b8063984d62521461055f578063ab1cc78c14610631578063b522ecff14610639578063bc197c811461065f57610136565b806365194ce71161010957806378e6e5b9116100ee57806378e6e5b9146104e55780638a04af6a1461050b5780638f2839701461053957610136565b806365194ce7146103635780636e9960c3146104c157610136565b80631187fd3c1461013b57806325cb5bc01461031b578063495906571461033557806358bc29441461033d575b600080fd5b610319600480360361012081101561015257600080fd5b6001600160a01b038235811692602081013582169260408201359092169181019060808101606082013564010000000081111561018e57600080fd5b8201836020820111156101a057600080fd5b803590602001918460208302840111640100000000831117156101c257600080fd5b919390928235926040810190602001356401000000008111156101e457600080fd5b8201836020820111156101f657600080fd5b8035906020019184602083028401116401000000008311171561021857600080fd5b91939092909160208101903564010000000081111561023657600080fd5b82018360208201111561024857600080fd5b8035906020019184602083028401116401000000008311171561026a57600080fd5b91939092909160208101903564010000000081111561028857600080fd5b82018360208201111561029a57600080fd5b803590602001918460018302840111640100000000831117156102bc57600080fd5b9193909290916020810190356401000000008111156102da57600080fd5b8201836020820111156102ec57600080fd5b8035906020019184600183028401116401000000008311171561030e57600080fd5b509092509050610978565b005b610323610bba565b60408051918252519081900360200190f35b610323610bde565b6103196004803603602081101561035357600080fd5b50356001600160a01b0316610c02565b6104096004803603602081101561037957600080fd5b81019060208101813564010000000081111561039457600080fd5b8201836020820111156103a657600080fd5b803590602001918460018302840111640100000000831117156103c857600080fd5b91908080601f016020809104026020016040519081016040528093929190818152602001838380828437600092019190915250929550610d2e945050505050565b6040518080602001866001600160a01b03166001600160a01b03168152602001856001600160a01b03166001600160a01b03168152602001848152602001838152602001828103825287818151815260200191508051906020019080838360005b8381101561048257818101518382015260200161046a565b50505050905090810190601f1680156104af5780820380516001836020036101000a031916815260200191505b50965050505050505060405180910390f35b6104c9610e33565b604080516001600160a01b039092168252519081900360200190f35b610319600480360360208110156104fb57600080fd5b50356001600160a01b0316610e42565b6103196004803603604081101561052157600080fd5b506001600160a01b0381351690602001351515610f00565b6103196004803603602081101561054f57600080fd5b50356001600160a01b0316610f6d565b6103196004803603606081101561057557600080fd5b6001600160a01b0382351691908101906040810160208201356401000000008111156105a057600080fd5b8201836020820111156105b257600080fd5b803590602001918460208302840111640100000000831117156105d457600080fd5b9193909290916020810190356401000000008111156105f257600080fd5b82018360208201111561060457600080fd5b8035906020019184602083028401116401000000008311171561062657600080fd5b5090925090506110a6565b610323611231565b6103196004803603602081101561064f57600080fd5b50356001600160a01b0316611237565b61078c600480360360a081101561067557600080fd5b6001600160a01b0382358116926020810135909116918101906060810160408201356401000000008111156106a957600080fd5b8201836020820111156106bb57600080fd5b803590602001918460208302840111640100000000831117156106dd57600080fd5b9193909290916020810190356401000000008111156106fb57600080fd5b82018360208201111561070d57600080fd5b8035906020019184602083028401116401000000008311171561072f57600080fd5b91939092909160208101903564010000000081111561074d57600080fd5b82018360208201111561075f57600080fd5b8035906020019184600183028401116401000000008311171561078157600080fd5b509092509050611348565b604080517fffffffff000000000000000000000000000000000000000000000000000000009092168252519081900360200190f35b610884600480360360a08110156107d757600080fd5b8101906020810181356401000000008111156107f257600080fd5b82018360208201111561080457600080fd5b8035906020019184600183028401116401000000008311171561082657600080fd5b91908080601f016020809104026020016040519081016040528093929190818152602001838380828437600092019190915250929550506001600160a01b038335811694506020840135169260408101359250606001359050611375565b604080519115158252519081900360200190f35b6104c96114b1565b610884600480360360208110156108b657600080fd5b50356001600160a01b03166114c0565b610319600480360360208110156108dc57600080fd5b50356114de565b61078c600480360360a08110156108f957600080fd5b6001600160a01b03823581169260208101359091169160408201359160608101359181019060a08101608082013564010000000081111561093957600080fd5b82018360208201111561094b57600080fd5b8035906020019184600183028401116401000000008311171561096d57600080fd5b509092509050611570565b600260005414156109d0576040805162461bcd60e51b815260206004820152601f60248201527f5265656e7472616e637947756172643a207265656e7472616e742063616c6c00604482015290519081900360640190fd5b60026000556109df8e8d61159b565b610ad68d8d8d8d80806020026020016040519081016040528093929190818152602001838360200280828437600081840152601f19601f820116905080830192505050505050508c8c8c80806020026020016040519081016040528093929190818152602001838360200280828437600081840152601f19601f820116905080830192505050505050508b8b8080602002602001604051908101604052809392919081815260200183836020028082843760009201919091525050604080516020601f8d018190048102820181019092528b815292508b91508a90819084018382808284376000920191909152506116fe92505050565b610b2a8e8c8c6003818110610ae757fe5b9050602002013586868080601f016020809104026020016040519081016040528093929190818152602001838380828437600092019190915250611a8192505050565b610b688e8e8d8d80806020026020016040519081016040528093929190818152602001838360200280828437600092019190915250611ad292505050565b610ba58d898980806020026020016040519081016040528093929190818152602001838360200280828437600092019190915250611ec392505050565b50506001600055505050505050505050505050565b7f000000000000000000000000000000000000000000000000000000000000000090565b7f000000000000000000000000000000000000000000000000000000000000000090565b6001546001600160a01b03163314610c61576040805162461bcd60e51b815260206004820152601260248201527f6f6e6c792061646d696e20616c6c6f7765640000000000000000000000000000604482015290519081900360640190fd5b6001600160a01b038116610cbc576040805162461bcd60e51b815260206004820152601f60248201527f526566657272616c56616c696461746f723a207a65726f206164647265737300604482015290519081900360640190fd5b600380546001600160a01b03908116600090815260056020526040808220620d2f0042019055835473ffffffffffffffffffffffffffffffffffffffff1916928516928317909355915190917fbbb5fb2ee7e707ae0c968f63e94211ea81e66a718c34e2f810a7619e5678a21791a250565b606060008060008060606000806000808a80602001905160a0811015610d5357600080fd5b8101908080516040519392919084640100000000821115610d7357600080fd5b908301906020820185811115610d8857600080fd5b8251640100000000811182820188101715610da257600080fd5b82525081516020918201929091019080838360005b83811015610dcf578181015183820152602001610db7565b50505050905090810190601f168015610dfc5780820380516001836020036101000a031916815260200191505b5060409081526020820151908201516060830151608090930151959f50909d509b5099509197505050505050505091939590929450565b6001546001600160a01b031690565b6001546001600160a01b03163314610e8b5760405162461bcd60e51b8152600401808060200182810382526023815260200180612b056023913960400191505060405180910390fd5b6001600160a01b038116610ee6576040805162461bcd60e51b815260206004820152601f60248201527f526566657272616c56616c696461746f723a207a65726f206164647265737300604482015290519081900360640190fd5b6001600160a01b0316600090815260056020526040812055565b6001546001600160a01b03163314610f5f576040805162461bcd60e51b815260206004820152601260248201527f6f6e6c792061646d696e20616c6c6f7765640000000000000000000000000000604482015290519081900360640190fd5b610f698282612087565b5050565b6001546001600160a01b03163314610fcc576040805162461bcd60e51b815260206004820152601b60248201527f6f6e6c792061646d696e2063616e206368616e67652061646d696e0000000000604482015290519081900360640190fd5b6001546001600160a01b038281169116141561102f576040805162461bcd60e51b815260206004820152600d60248201527f616c72656164792061646d696e00000000000000000000000000000000000000604482015290519081900360640190fd5b600154604080516001600160a01b039283168152918316602083015280517f7e644d79422f17c01e4894b5f4f588d331ebfa28653d42ae832dc59e38c9798f9281900390910190a16001805473ffffffffffffffffffffffffffffffffffffffff19166001600160a01b0392909216919091179055565b6001546001600160a01b03163314611105576040805162461bcd60e51b815260206004820152600e60248201527f4e4f545f415554484f52495a4544000000000000000000000000000000000000604482015290519081900360640190fd5b7f00000000000000000000000000000000000000000000000000000000000000006001600160a01b0316632eb2c2d63087878787876040518763ffffffff1660e01b815260040180876001600160a01b03166001600160a01b03168152602001866001600160a01b03166001600160a01b031681526020018060200180602001806020018481038452888882818152602001925060200280828437600083820152601f01601f19169091018581038452868152602090810191508790870280828437600081840152601f19601f8201169050808301925050508481038252600081526020016020019950505050505050505050600060405180830381600087803b15801561121257600080fd5b505af1158015611226573d6000803e3d6000fd5b505050505050505050565b60045490565b6001600160a01b038116611292576040805162461bcd60e51b815260206004820152600c60248201527f5a45524f5f414444524553530000000000000000000000000000000000000000604482015290519081900360640190fd5b6001546001600160a01b031633146112f1576040805162461bcd60e51b815260206004820152600e60248201527f4e4f545f415554484f52495a4544000000000000000000000000000000000000604482015290519081900360640190fd5b6006805473ffffffffffffffffffffffffffffffffffffffff19166001600160a01b0383169081179091556040517f4d66958b757eb92a1b43d02be4c38c9500b73f532420ee3706cb43d420ba023690600090a250565b7fbc197c810000000000000000000000000000000000000000000000000000000098975050505050505050565b60006004548211806113985750836001600160a01b0316856001600160a01b0316145b806113a257508242115b156113af575060006114a8565b60408051606087811b7fffffffffffffffffffffffffffffffffffffffff0000000000000000000000009081166020808501919091529188901b166034830152604882018690526068808301869052835180840390910181526088830184528051908201207f19457468657265756d205369676e6564204d6573736167653a0a33320000000060a884015260c48084018290528451808503909101815260e49093019093528151910120600090611466908961214e565b6001600160a01b0381166000908152600560205260409020549091504211611493576001925050506114a8565b6003546001600160a01b039081169116149150505b95945050505050565b6003546001600160a01b031690565b6001600160a01b031660009081526002602052604090205460ff1690565b6001546001600160a01b0316331461153d576040805162461bcd60e51b815260206004820152601260248201527f6f6e6c792061646d696e20616c6c6f7765640000000000000000000000000000604482015290519081900360640190fd5b600481905560405181907f774069781371d65424b3b0b101c1d40014532cac040f979595b99a3fcf8ce08c90600090a250565b7ff23a6e61000000000000000000000000000000000000000000000000000000009695505050505050565b7f0000000000000000000000000000000000000000000000000000000000000000421061160f576040805162461bcd60e51b815260206004820152600c60248201527f53414c455f49535f4f5645520000000000000000000000000000000000000000604482015290519081900360640190fd5b6001600160a01b03821633148061163557503360009081526002602052604090205460ff165b611686576040805162461bcd60e51b815260206004820152600e60248201527f4e4f545f415554484f52495a4544000000000000000000000000000000000000604482015290519081900360640190fd5b6001600160a01b03811615806116ad5750816001600160a01b0316816001600160a01b0316145b610f69576040805162461bcd60e51b815260206004820152600d60248201527f52455345525645445f4c414e4400000000000000000000000000000000000000604482015290519081900360640190fd5b600087878760008151811061170f57fe5b60200260200101518860018151811061172457fe5b60200260200101518960028151811061173957fe5b60200260200101518a60038151811061174e57fe5b60200260200101518a8a60405160200180828051906020019060200280838360005b83811015611788578181015183820152602001611770565b50505050905001915050604051602081830303815290604052805190602001208a60405160200180828051906020019060200280838360005b838110156117d95781810151838201526020016117c1565b5050505090500191505060405160208183030381529060405280519060200120604051602001808a6001600160a01b03166001600160a01b031660601b8152601401896001600160a01b03166001600160a01b031660601b81526014018881526020018781526020018681526020018581526020018481526020018381526020018281526020019950505050505050505050604051602081830303815290604052805190602001209050600760009054906101000a90046001600160a01b03166001600160a01b031663012847ed83836040518363ffffffff1660e01b81526004018080602001838152602001828103825284818151815260200191508051906020019080838360005b838110156118fb5781810151838201526020016118e3565b50505050905090810190601f1680156119285780820380516001836020036101000a031916815260200191505b50935050505060206040518083038186803b15801561194657600080fd5b505afa15801561195a573d6000803e3d6000fd5b505050506040513d602081101561197057600080fd5b50516119c3576040805162461bcd60e51b815260206004820152600c60248201527f494e56414c49445f415554480000000000000000000000000000000000000000604482015290519081900360640190fd5b6000611a24876000815181106119d557fe5b6020026020010151886001815181106119ea57fe5b6020026020010151896002815181106119ff57fe5b60200260200101518a600381518110611a1457fe5b60200260200101518c8b8b612337565b9050611a3084826123dc565b611226576040805162461bcd60e51b815260206004820152600c60248201527f494e56414c49445f4c414e440000000000000000000000000000000000000000604482015290519081900360640190fd5b6000611a8d84846124a5565b600654909150611acc908590839085906001600160a01b03167f000000000000000000000000000000000000000000000000000000000000000061253f565b50505050565b80600281518110611adf57fe5b602002602001015160011480611b1c57507f00000000000000000000000000000000000000000000000000000000000000006001600160a01b0316155b15611c1e577f00000000000000000000000000000000000000000000000000000000000000006001600160a01b0316636e1e3bbf8383600281518110611b5e57fe5b602002602001015184600081518110611b7357fe5b602002602001015185600181518110611b8857fe5b60200260200101516040518563ffffffff1660e01b815260040180856001600160a01b03166001600160a01b031681526020018481526020018381526020018281526020018060200182810382526000815260200160200195505050505050600060405180830381600087803b158015611c0157600080fd5b505af1158015611c15573d6000803e3d6000fd5b50505050611dbe565b7f00000000000000000000000000000000000000000000000000000000000000006001600160a01b0316636e1e3bbf7f000000000000000000000000000000000000000000000000000000000000000083600281518110611c7b57fe5b602002602001015184600081518110611c9057fe5b602002602001015185600181518110611ca557fe5b60200260200101518760405160200180826001600160a01b03166001600160a01b031681526020019150506040516020818303038152906040526040518663ffffffff1660e01b815260040180866001600160a01b03166001600160a01b0316815260200185815260200184815260200183815260200180602001828103825283818151815260200191508051906020019080838360005b83811015611d55578181015183820152602001611d3d565b50505050905090810190601f168015611d825780820380516001836020036101000a031916815260200191505b509650505050505050600060405180830381600087803b158015611da557600080fd5b505af1158015611db9573d6000803e3d6000fd5b505050505b61019881600181518110611dce57fe5b60200260200101510281600081518110611de457fe5b602002602001015101826001600160a01b0316846001600160a01b03167fe4dfa6ac11314892f3029b34a25b1a887da3b1cab2bbf8506d87128ba6e3ac0284600281518110611e2f57fe5b602002602001015185600381518110611e4457fe5b60200260200101517f000000000000000000000000000000000000000000000000000000000000000087600381518110611e7a57fe5b602002602001015160405180858152602001848152602001836001600160a01b03166001600160a01b0316815260200182815260200194505050505060405180910390a4505050565b6060815167ffffffffffffffff81118015611edd57600080fd5b50604051908082528060200260200182016040528015611f07578160200160208202803683370190505b50905060005b8251811015611f37576001828281518110611f2457fe5b6020908102919091010152600101611f0d565b507f00000000000000000000000000000000000000000000000000000000000000006001600160a01b0316632eb2c2d6308585856040518563ffffffff1660e01b815260040180856001600160a01b03166001600160a01b03168152602001846001600160a01b03166001600160a01b03168152602001806020018060200180602001848103845286818151815260200191508051906020019060200280838360005b83811015611ff2578181015183820152602001611fda565b50505050905001848103835285818151815260200191508051906020019060200280838360005b83811015612031578181015183820152602001612019565b50505050905001848103825260008152602001602001975050505050505050600060405180830381600087803b15801561206a57600080fd5b505af115801561207e573d6000803e3d6000fd5b50505050505050565b6001600160a01b0382166120cc5760405162461bcd60e51b8152600401808060200182810382526025815260200180612b6b6025913960400191505060405180910390fd5b6001600160a01b03821660008181526002602090815260409182902080547fffffffffffffffffffffffffffffffffffffffffffffffffffffffffffffff001685151590811790915582519384529083015280517fb21eb88b4e33b3f1281830a7178d74d8aa73220416215726b68ae23d539515cb9281900390910190a15050565b600081516041146121a6576040805162461bcd60e51b815260206004820152601f60248201527f45434453413a20696e76616c6964207369676e6174757265206c656e67746800604482015290519081900360640190fd5b60208201516040830151606084015160001a7f7fffffffffffffffffffffffffffffff5d576e7357a4501ddfe92f46681b20a08211156122175760405162461bcd60e51b8152600401808060200182810382526022815260200180612ae36022913960400191505060405180910390fd5b8060ff16601b1415801561222f57508060ff16601c14155b1561226b5760405162461bcd60e51b8152600401808060200182810382526022815260200180612b286022913960400191505060405180910390fd5b60408051600080825260208083018085528a905260ff85168385015260608301879052608083018690529251909260019260a080820193601f1981019281900390910190855afa1580156122c3573d6000803e3d6000fd5b5050604051601f1901519150506001600160a01b03811661232b576040805162461bcd60e51b815260206004820152601860248201527f45434453413a20696e76616c6964207369676e61747572650000000000000000604482015290519081900360640190fd5b93505050505b92915050565b60008787878787878760405160200180888152602001878152602001868152602001858152602001846001600160a01b03166001600160a01b031660601b8152601401838152602001828051906020019060200280838360005b838110156123a9578181015183820152602001612391565b50505050905001975050505050505050604051602081830303815290604052805190602001209050979650505050505050565b600081815b845181101561247b5760008582815181106123f857fe5b60200260200101519050808310156124405782816040516020018083815260200182815260200192505050604051602081830303815290604052805190602001209250612472565b808360405160200180838152602001828152602001925050506040516020818303038152906040528051906020012092505b506001016123e1565b507f0000000000000000000000000000000000000000000000000000000000000000149392505050565b6000806124ca60646124be85600563ffffffff61264716565b9063ffffffff6126a716565b90506125276001600160a01b037f000000000000000000000000000000000000000000000000000000000000000016857f00000000000000000000000000000000000000000000000000000000000000008463ffffffff6126e916565b612537838263ffffffff61277116565b949350505050565b8251819085901561262c57606060008060008061255b8a610d2e565b93985091965094509250905060006125768686868686611375565b15612604576125906125888d84612647565b6127106126a7565b9050886001600160a01b0316846001600160a01b0316866001600160a01b03167fac7a699eb95c3c6d390ec4626de17ef9a67b35891efdb197beba7c7fdd45fac48f858760405180848152602001838152602001828152602001935050505060405180910390a46126018782612771565b96505b8015612625576126256001600160a01b0389168e878463ffffffff6126e916565b5050505050505b61207e6001600160a01b03831688868463ffffffff6126e916565b60008261265657506000612331565b8282028284828161266357fe5b04146126a05760405162461bcd60e51b8152600401808060200182810382526021815260200180612b4a6021913960400191505060405180910390fd5b9392505050565b60006126a083836040518060400160405280601a81526020017f536166654d6174683a206469766973696f6e206279207a65726f0000000000008152506127b3565b604080516001600160a01b0380861660248301528416604482015260648082018490528251808303909101815260849091019091526020810180517bffffffffffffffffffffffffffffffffffffffffffffffffffffffff167f23b872dd00000000000000000000000000000000000000000000000000000000179052611acc908590612855565b60006126a083836040518060400160405280601e81526020017f536166654d6174683a207375627472616374696f6e206f766572666c6f77000081525061290b565b6000818361283f5760405162461bcd60e51b81526004018080602001828103825283818151815260200191508051906020019080838360005b838110156128045781810151838201526020016127ec565b50505050905090810190601f1680156128315780820380516001836020036101000a031916815260200191505b509250505060405180910390fd5b50600083858161284b57fe5b0495945050505050565b60606128aa826040518060400160405280602081526020017f5361666545524332303a206c6f772d6c6576656c2063616c6c206661696c6564815250856001600160a01b03166129659092919063ffffffff16565b805190915015612906578080602001905160208110156128c957600080fd5b50516129065760405162461bcd60e51b815260040180806020018281038252602a815260200180612b90602a913960400191505060405180910390fd5b505050565b6000818484111561295d5760405162461bcd60e51b81526020600482018181528351602484015283519092839260449091019190850190808383600083156128045781810151838201526020016127ec565b505050900390565b60606125378484600085606061297a85612adc565b6129cb576040805162461bcd60e51b815260206004820152601d60248201527f416464726573733a2063616c6c20746f206e6f6e2d636f6e7472616374000000604482015290519081900360640190fd5b60006060866001600160a01b031685876040518082805190602001908083835b60208310612a0a5780518252601f1990920191602091820191016129eb565b6001836020036101000a03801982511681845116808217855250505050505090500191505060006040518083038185875af1925050503d8060008114612a6c576040519150601f19603f3d011682016040523d82523d6000602084013e612a71565b606091505b50915091508115612a855791506125379050565b805115612a955780518082602001fd5b60405162461bcd60e51b81526020600482018181528651602484015286518793919283926044019190850190808383600083156128045781810151838201526020016127ec565b3b15159056fe45434453413a20696e76616c6964207369676e6174757265202773272076616c7565526566657272616c56616c696461746f723a2053656e646572206e6f742061646d696e45434453413a20696e76616c6964207369676e6174757265202776272076616c7565536166654d6174683a206d756c7469706c69636174696f6e206f766572666c6f774d6574615472616e73616374696f6e52656365697665723a207a65726f20616464726573735361666545524332303a204552433230206f7065726174696f6e20646964206e6f742073756363656564a264697066735822122077f2d13cbcb85fa08010a53c1e4ef27117b031e8c1c9273d55cef362af299f3164736f6c6343000605003345737461746553616c6557697468417574683a207a65726f20616464726573734d6574615472616e73616374696f6e52656365697665723a207a65726f206164647265737345737461746553616c6557697468417574683a206973206e6f74206120636f6e7472616374",
  "devdoc": {
    "methods": {
      "buyLandWithSand(address,address,address,uint256[],bytes32,uint256[],bytes32[],bytes,bytes)": {
        "params": {
          "assetIds": "asset ids (lands) that will be bought",
          "buyer": "address that perform the payment",
          "info": "[X_INDEX=0] x coordinate of the Land [Y_INDEX=1] y coordinate of the Land [SIZE_INDEX=2] size of the pack of Land to purchase [PRICE_INDEX=3] price in SAND to purchase that Land",
          "proof": "merkleProof for that particular Land",
          "referral": "referral id",
          "reserved": "the reserved address (if any)",
          "salt": "The salt submitted for verification.",
          "signature": "A signed message specifying tx details",
          "to": "address that will own the purchased Land"
        }
      },
      "changeAdmin(address)": {
        "details": "change the administrator to be `newAdmin`.",
        "params": {
          "newAdmin": "address of the new administrator."
        }
      },
      "disablePreviousSigningWallet(address)": {
        "details": "Disable compromised signing wallet",
        "params": {
          "disableWallet": "The wallet address to be disabled"
        }
      },
      "getAdmin()": {
        "details": "gives the current administrator of this contract.",
        "returns": {
          "_0": "the current administrator of this contract."
        }
      },
      "getSigningWallet()": {
        "details": "signing wallet authorized for referral",
        "returns": {
          "_0": "the address of the signing wallet"
        }
      },
      "isMetaTransactionProcessor(address)": {
        "details": "check whether address `who` is given meta-transaction execution rights.",
        "params": {
          "who": "The address to query."
        },
        "returns": {
          "_0": "whether the address has meta-transaction execution rights."
        }
      },
      "isReferralValid(bytes,address,address,uint256,uint256)": {
        "params": {
          "commissionRate": "The commissionRate of the referral",
          "expiryTime": "The expiry time of the referral",
          "referee": "The address of the referee",
          "referrer": "The address of the referrer",
          "signature": "The signature to check (signed referral)"
        },
        "returns": {
          "_0": "True if the referral is valid"
        }
      },
      "setMetaTransactionProcessor(address,bool)": {
        "details": "Enable or disable the ability of `metaTransactionProcessor` to perform meta-tx (metaTransactionProcessor rights).",
        "params": {
          "enabled": "set whether the metaTransactionProcessor is enabled or disabled.",
          "metaTransactionProcessor": "address that will be given/removed metaTransactionProcessor rights."
        }
      },
      "setReceivingWallet(address)": {
        "params": {
          "newWallet": "address of the new receiving wallet"
        }
      },
      "updateMaxCommissionRate(uint256)": {
        "details": "Update the maximum commission rate",
        "params": {
          "newMaxCommissionRate": "The new maximum commission rate"
        }
      },
      "updateSigningWallet(address)": {
        "details": "Update the signing wallet The previous wallet is still valid for a grace period (_previousSigningDelay). If you want to disable the previous wallet, use the disablePreviousSigningWallet function.",
        "params": {
          "newSigningWallet": "The new address of the signing wallet"
        }
      },
      "withdrawAssets(address,uint256[],uint256[])": {
        "params": {
          "assetIds": "the assetIds to be transferred",
          "to": "intended recipient of the asset tokens",
          "values": "the quantities of the assetIds to be transferred"
        }
      }
    },
    "title": "Estate Sale contract with referral"
  },
  "userdoc": {
    "methods": {
      "buyLandWithSand(address,address,address,uint256[],bytes32,uint256[],bytes32[],bytes,bytes)": {
        "notice": "buy Land with SAND using the merkle proof associated with it"
      },
      "getExpiryTime()": {
        "notice": "Gets the expiry time for the current sale"
      },
      "getMaxCommissionRate()": {
        "notice": "the max commission rate"
      },
      "getMerkleRoot()": {
        "notice": "Gets the Merkle root associated with the current sale"
      },
      "isReferralValid(bytes,address,address,uint256,uint256)": {
        "notice": "Check if a referral is valid"
      },
      "setReceivingWallet(address)": {
        "notice": "set the wallet receiving the proceeds"
      },
      "withdrawAssets(address,uint256[],uint256[])": {
        "notice": "enable Admin to withdraw remaining assets from EstateSaleWithFee contract"
      }
    },
    "notice": "This contract manages the sale of our lands as Estates"
  },
  "storageLayout": {
    "storage": [
      {
        "astId": 1129,
        "contract": "src/solc_0.6/EstateSale/EstateSaleWithAuth.sol:EstateSaleWithAuth",
        "label": "_status",
        "offset": 0,
        "slot": "0",
        "type": "t_uint256"
      },
      {
        "astId": 14099,
        "contract": "src/solc_0.6/EstateSale/EstateSaleWithAuth.sol:EstateSaleWithAuth",
        "label": "_admin",
        "offset": 0,
        "slot": "1",
        "type": "t_address"
      },
      {
        "astId": 14168,
        "contract": "src/solc_0.6/EstateSale/EstateSaleWithAuth.sol:EstateSaleWithAuth",
        "label": "_metaTransactionContracts",
        "offset": 0,
        "slot": "2",
        "type": "t_mapping(t_address,t_bool)"
      },
      {
        "astId": 12200,
        "contract": "src/solc_0.6/EstateSale/EstateSaleWithAuth.sol:EstateSaleWithAuth",
        "label": "_signingWallet",
        "offset": 0,
        "slot": "3",
        "type": "t_address"
      },
      {
        "astId": 12202,
        "contract": "src/solc_0.6/EstateSale/EstateSaleWithAuth.sol:EstateSaleWithAuth",
        "label": "_maxCommissionRate",
        "offset": 0,
        "slot": "4",
        "type": "t_uint256"
      },
      {
        "astId": 12206,
        "contract": "src/solc_0.6/EstateSale/EstateSaleWithAuth.sol:EstateSaleWithAuth",
        "label": "_previousSigningWallets",
        "offset": 0,
        "slot": "5",
        "type": "t_mapping(t_address,t_uint256)"
      },
      {
        "astId": 7750,
        "contract": "src/solc_0.6/EstateSale/EstateSaleWithAuth.sol:EstateSaleWithAuth",
        "label": "_wallet",
        "offset": 0,
        "slot": "6",
        "type": "t_address_payable"
      },
      {
        "astId": 7752,
        "contract": "src/solc_0.6/EstateSale/EstateSaleWithAuth.sol:EstateSaleWithAuth",
        "label": "_authValidator",
        "offset": 0,
        "slot": "7",
        "type": "t_contract(AuthValidator)7063"
      }
    ],
    "types": {
      "t_address": {
        "encoding": "inplace",
        "label": "address",
        "numberOfBytes": "20"
      },
      "t_address_payable": {
        "encoding": "inplace",
        "label": "address payable",
        "numberOfBytes": "20"
      },
      "t_bool": {
        "encoding": "inplace",
        "label": "bool",
        "numberOfBytes": "1"
      },
      "t_contract(AuthValidator)7063": {
        "encoding": "inplace",
        "label": "contract AuthValidator",
        "numberOfBytes": "20"
      },
      "t_mapping(t_address,t_bool)": {
        "encoding": "mapping",
        "key": "t_address",
        "label": "mapping(address => bool)",
        "numberOfBytes": "32",
        "value": "t_bool"
      },
      "t_mapping(t_address,t_uint256)": {
        "encoding": "mapping",
        "key": "t_address",
        "label": "mapping(address => uint256)",
        "numberOfBytes": "32",
        "value": "t_uint256"
      },
      "t_uint256": {
        "encoding": "inplace",
        "label": "uint256",
        "numberOfBytes": "32"
      }
    }
  }
}