{
  "address": "0x45B389393476932645a3017adB236030Df8daf32",
  "abi": [
    {
      "inputs": [
        {
          "internalType": "address",
          "name": "landAddress",
          "type": "address"
        },
        {
          "internalType": "address",
          "name": "sandContractAddress",
          "type": "address"
        },
        {
          "internalType": "address",
          "name": "initialMetaTx",
          "type": "address"
        },
        {
          "internalType": "address",
          "name": "admin",
          "type": "address"
        },
        {
          "internalType": "address payable",
          "name": "initialWalletAddress",
          "type": "address"
        },
        {
          "internalType": "bytes32",
          "name": "merkleRoot",
          "type": "bytes32"
        },
        {
          "internalType": "uint256",
          "name": "expiryTime",
          "type": "uint256"
        },
        {
          "internalType": "address",
          "name": "initialSigningWallet",
          "type": "address"
        },
        {
          "internalType": "uint256",
          "name": "initialMaxCommissionRate",
          "type": "uint256"
        },
        {
          "internalType": "address",
          "name": "estate",
          "type": "address"
        },
        {
          "internalType": "address",
          "name": "asset",
          "type": "address"
        },
        {
          "internalType": "address",
          "name": "feeDistributor",
          "type": "address"
        },
        {
          "internalType": "address",
          "name": "authValidator",
          "type": "address"
        }
      ],
      "stateMutability": "nonpayable",
      "type": "constructor"
    },
    {
      "anonymous": false,
      "inputs": [
        {
          "indexed": false,
          "internalType": "address",
          "name": "oldAdmin",
          "type": "address"
        },
        {
          "indexed": false,
          "internalType": "address",
          "name": "newAdmin",
          "type": "address"
        }
      ],
      "name": "AdminChanged",
      "type": "event"
    },
    {
      "anonymous": false,
      "inputs": [
        {
          "indexed": true,
          "internalType": "address",
          "name": "buyer",
          "type": "address"
        },
        {
          "indexed": true,
          "internalType": "address",
          "name": "to",
          "type": "address"
        },
        {
          "indexed": true,
          "internalType": "uint256",
          "name": "topCornerId",
          "type": "uint256"
        },
        {
          "indexed": false,
          "internalType": "uint256",
          "name": "size",
          "type": "uint256"
        },
        {
          "indexed": false,
          "internalType": "uint256",
          "name": "price",
          "type": "uint256"
        },
        {
          "indexed": false,
          "internalType": "address",
          "name": "token",
          "type": "address"
        },
        {
          "indexed": false,
          "internalType": "uint256",
          "name": "amountPaid",
          "type": "uint256"
        }
      ],
      "name": "LandQuadPurchased",
      "type": "event"
    },
    {
      "anonymous": false,
      "inputs": [
        {
          "indexed": true,
          "internalType": "uint256",
          "name": "newMaxCommissionRate",
          "type": "uint256"
        }
      ],
      "name": "MaxCommissionRateUpdated",
      "type": "event"
    },
    {
      "anonymous": false,
      "inputs": [
        {
          "indexed": false,
          "internalType": "address",
          "name": "metaTransactionProcessor",
          "type": "address"
        },
        {
          "indexed": false,
          "internalType": "bool",
          "name": "enabled",
          "type": "bool"
        }
      ],
      "name": "MetaTransactionProcessor",
      "type": "event"
    },
    {
      "anonymous": false,
      "inputs": [
        {
          "indexed": true,
          "internalType": "address",
          "name": "newWallet",
          "type": "address"
        }
      ],
      "name": "NewReceivingWallet",
      "type": "event"
    },
    {
      "anonymous": false,
      "inputs": [
        {
          "indexed": true,
          "internalType": "address",
          "name": "referrer",
          "type": "address"
        },
        {
          "indexed": true,
          "internalType": "address",
          "name": "referee",
          "type": "address"
        },
        {
          "indexed": true,
          "internalType": "address",
          "name": "token",
          "type": "address"
        },
        {
          "indexed": false,
          "internalType": "uint256",
          "name": "amount",
          "type": "uint256"
        },
        {
          "indexed": false,
          "internalType": "uint256",
          "name": "commission",
          "type": "uint256"
        },
        {
          "indexed": false,
          "internalType": "uint256",
          "name": "commissionRate",
          "type": "uint256"
        }
      ],
      "name": "ReferralUsed",
      "type": "event"
    },
    {
      "anonymous": false,
      "inputs": [
        {
          "indexed": true,
          "internalType": "address",
          "name": "newSigningWallet",
          "type": "address"
        }
      ],
      "name": "SigningWalletUpdated",
      "type": "event"
    },
    {
      "inputs": [
        {
          "internalType": "address",
          "name": "buyer",
          "type": "address"
        },
        {
          "internalType": "address",
          "name": "to",
          "type": "address"
        },
        {
          "internalType": "address",
          "name": "reserved",
          "type": "address"
        },
        {
          "internalType": "uint256[]",
          "name": "info",
          "type": "uint256[]"
        },
        {
          "internalType": "bytes32",
          "name": "salt",
          "type": "bytes32"
        },
        {
          "internalType": "uint256[]",
          "name": "assetIds",
          "type": "uint256[]"
        },
        {
          "internalType": "bytes32[]",
          "name": "proof",
          "type": "bytes32[]"
        },
        {
          "internalType": "bytes",
          "name": "referral",
          "type": "bytes"
        },
        {
          "internalType": "bytes",
          "name": "signature",
          "type": "bytes"
        }
      ],
      "name": "buyLandWithSand",
      "outputs": [],
      "stateMutability": "nonpayable",
      "type": "function"
    },
    {
      "inputs": [
        {
          "internalType": "address",
          "name": "newAdmin",
          "type": "address"
        }
      ],
      "name": "changeAdmin",
      "outputs": [],
      "stateMutability": "nonpayable",
      "type": "function"
    },
    {
      "inputs": [
        {
          "internalType": "bytes",
          "name": "referral",
          "type": "bytes"
        }
      ],
      "name": "decodeReferral",
      "outputs": [
        {
          "internalType": "bytes",
          "name": "",
          "type": "bytes"
        },
        {
          "internalType": "address",
          "name": "",
          "type": "address"
        },
        {
          "internalType": "address",
          "name": "",
          "type": "address"
        },
        {
          "internalType": "uint256",
          "name": "",
          "type": "uint256"
        },
        {
          "internalType": "uint256",
          "name": "",
          "type": "uint256"
        }
      ],
      "stateMutability": "pure",
      "type": "function"
    },
    {
      "inputs": [
        {
          "internalType": "address",
          "name": "disableWallet",
          "type": "address"
        }
      ],
      "name": "disablePreviousSigningWallet",
      "outputs": [],
      "stateMutability": "nonpayable",
      "type": "function"
    },
    {
      "inputs": [],
      "name": "getAdmin",
      "outputs": [
        {
          "internalType": "address",
          "name": "",
          "type": "address"
        }
      ],
      "stateMutability": "view",
      "type": "function"
    },
    {
      "inputs": [],
      "name": "getExpiryTime",
      "outputs": [
        {
          "internalType": "uint256",
          "name": "",
          "type": "uint256"
        }
      ],
      "stateMutability": "view",
      "type": "function"
    },
    {
      "inputs": [],
      "name": "getMaxCommissionRate",
      "outputs": [
        {
          "internalType": "uint256",
          "name": "",
          "type": "uint256"
        }
      ],
      "stateMutability": "view",
      "type": "function"
    },
    {
      "inputs": [],
      "name": "getMerkleRoot",
      "outputs": [
        {
          "internalType": "bytes32",
          "name": "",
          "type": "bytes32"
        }
      ],
      "stateMutability": "view",
      "type": "function"
    },
    {
      "inputs": [],
      "name": "getSigningWallet",
      "outputs": [
        {
          "internalType": "address",
          "name": "",
          "type": "address"
        }
      ],
      "stateMutability": "view",
      "type": "function"
    },
    {
      "inputs": [
        {
          "internalType": "address",
          "name": "who",
          "type": "address"
        }
      ],
      "name": "isMetaTransactionProcessor",
      "outputs": [
        {
          "internalType": "bool",
          "name": "",
          "type": "bool"
        }
      ],
      "stateMutability": "view",
      "type": "function"
    },
    {
      "inputs": [
        {
          "internalType": "bytes",
          "name": "signature",
          "type": "bytes"
        },
        {
          "internalType": "address",
          "name": "referrer",
          "type": "address"
        },
        {
          "internalType": "address",
          "name": "referee",
          "type": "address"
        },
        {
          "internalType": "uint256",
          "name": "expiryTime",
          "type": "uint256"
        },
        {
          "internalType": "uint256",
          "name": "commissionRate",
          "type": "uint256"
        }
      ],
      "name": "isReferralValid",
      "outputs": [
        {
          "internalType": "bool",
          "name": "",
          "type": "bool"
        }
      ],
      "stateMutability": "view",
      "type": "function"
    },
    {
      "inputs": [
        {
          "internalType": "address",
          "name": "",
          "type": "address"
        },
        {
          "internalType": "address",
          "name": "",
          "type": "address"
        },
        {
          "internalType": "uint256[]",
          "name": "",
          "type": "uint256[]"
        },
        {
          "internalType": "uint256[]",
          "name": "",
          "type": "uint256[]"
        },
        {
          "internalType": "bytes",
          "name": "",
          "type": "bytes"
        }
      ],
      "name": "onERC1155BatchReceived",
      "outputs": [
        {
          "internalType": "bytes4",
          "name": "",
          "type": "bytes4"
        }
      ],
      "stateMutability": "pure",
      "type": "function"
    },
    {
      "inputs": [
        {
          "internalType": "address",
          "name": "",
          "type": "address"
        },
        {
          "internalType": "address",
          "name": "",
          "type": "address"
        },
        {
          "internalType": "uint256",
          "name": "",
          "type": "uint256"
        },
        {
          "internalType": "uint256",
          "name": "",
          "type": "uint256"
        },
        {
          "internalType": "bytes",
          "name": "",
          "type": "bytes"
        }
      ],
      "name": "onERC1155Received",
      "outputs": [
        {
          "internalType": "bytes4",
          "name": "",
          "type": "bytes4"
        }
      ],
      "stateMutability": "pure",
      "type": "function"
    },
    {
      "inputs": [
        {
          "internalType": "address",
          "name": "metaTransactionProcessor",
          "type": "address"
        },
        {
          "internalType": "bool",
          "name": "enabled",
          "type": "bool"
        }
      ],
      "name": "setMetaTransactionProcessor",
      "outputs": [],
      "stateMutability": "nonpayable",
      "type": "function"
    },
    {
      "inputs": [
        {
          "internalType": "address payable",
          "name": "newWallet",
          "type": "address"
        }
      ],
      "name": "setReceivingWallet",
      "outputs": [],
      "stateMutability": "nonpayable",
      "type": "function"
    },
    {
      "inputs": [
        {
          "internalType": "uint256",
          "name": "newMaxCommissionRate",
          "type": "uint256"
        }
      ],
      "name": "updateMaxCommissionRate",
      "outputs": [],
      "stateMutability": "nonpayable",
      "type": "function"
    },
    {
      "inputs": [
        {
          "internalType": "address",
          "name": "newSigningWallet",
          "type": "address"
        }
      ],
      "name": "updateSigningWallet",
      "outputs": [],
      "stateMutability": "nonpayable",
      "type": "function"
    },
    {
      "inputs": [
        {
          "internalType": "address",
          "name": "to",
          "type": "address"
        },
        {
          "internalType": "uint256[]",
          "name": "assetIds",
          "type": "uint256[]"
        },
        {
          "internalType": "uint256[]",
          "name": "values",
          "type": "uint256[]"
        }
      ],
      "name": "withdrawAssets",
      "outputs": [],
      "stateMutability": "nonpayable",
      "type": "function"
    }
  ],
  "transactionHash": "0xa50a24a89cb9e932faa94f1701e7d41da812fffc87e9765e711e414c11f695bd",
  "args": [
    "0x9d305a42A3975Ee4c1C57555BeD5919889DCE63F",
    "0xBbba073C31bF03b8ACf7c28EF0738DeCF3695683",
    "0xBbba073C31bF03b8ACf7c28EF0738DeCF3695683",
    "0xfD30a48Bc6c56E24B0ebF1B0117d750e2CFf7531",
    "0x1b47567CBE36e63293A7A2018F79687f942aB24C",
    "0x6965839db5c871f152bbdc7116f18b7d06c295e032d61e8d2aa52c484f84f681",
    1701950400,
    "0x3044719d139F866a44c988823513eCB93060bF1b",
    2000,
    "0x0000000000000000000000000000000000000000",
    "0xd19cc137bb848d3a48ad8ad883886b67c26761dc",
    "0x42a4a3795446A4c070565da201c6303fC78a2569",
    "0x7804fb2AF15bB1323795A888B09913cEf629Ffda"
  ],
  "numDeployments": 1,
  "linkedData": [
    {
      "x": 102,
      "y": 195,
      "size": 1,
      "price": "1011000000000000000000",
      "reserved": "",
      "salt": "0x1e9ae1a74ff5f8f01872d795ab64d7e31844e152b9c030a9c61dc806aa4ad58e",
      "assetIds": []
    },
    {
      "x": 102,
      "y": 196,
      "size": 1,
      "price": "1011000000000000000000",
      "reserved": "",
      "salt": "0x6eb6f77d97abf2a92d6b8e0d5931e8e1d02635c755af715d74ffb8706972017a",
      "assetIds": []
    },
    {
      "x": 102,
      "y": 197,
      "size": 1,
      "price": "1011000000000000000000",
      "reserved": "",
      "salt": "0x26616dd1f8b7e54955346360937550b673c5d4c36ea4ee127c581ba7e3b3d3e6",
      "assetIds": []
    },
    {
      "x": 102,
      "y": 201,
      "size": 1,
      "price": "1011000000000000000000",
      "reserved": "",
      "salt": "0x97b67a067a888c25c9f480db9e615066f9f15cf48b781f54ae984df0c6ee45a8",
      "assetIds": []
    },
    {
      "x": 102,
      "y": 202,
      "size": 1,
      "price": "1011000000000000000000",
      "reserved": "",
      "salt": "0x0a0e785538690b2c5521783f643882d4ab6258c3cbceb33ec3f12538b4b089b8",
      "assetIds": []
    },
    {
      "x": 102,
      "y": 203,
      "size": 1,
      "price": "1011000000000000000000",
      "reserved": "",
      "salt": "0x4ac063634a83a9bc66f39e35105fbfa373ef6a11be2fb390b0b42cc2f3f4087d",
      "assetIds": []
    },
    {
      "x": 103,
      "y": 195,
      "size": 1,
      "price": "1011000000000000000000",
      "reserved": "",
      "salt": "0x9bd955f84291f64e86b1fb37d70aa9e89182c8e6eac9dc213a23847fe90098b4",
      "assetIds": []
    },
    {
      "x": 103,
      "y": 196,
      "size": 1,
      "price": "1011000000000000000000",
      "reserved": "",
      "salt": "0xdf1711002fdf1d9c71a8b33b149bef81435bce281d315bfab934051bab210c2a",
      "assetIds": []
    },
    {
      "x": 103,
      "y": 197,
      "size": 1,
      "price": "1011000000000000000000",
      "reserved": "",
      "salt": "0x79a765b8d794e5cde73184c79e601ded6b14e1b7ff2ad5df9b5ddc953cab1f71",
      "assetIds": []
    },
    {
      "x": 103,
      "y": 201,
      "size": 1,
      "price": "1011000000000000000000",
      "reserved": "",
      "salt": "0x634ffe53aa51dedea76892061ea69c747f9101aea2e6b173523dbc85893f98ed",
      "assetIds": []
    },
    {
      "x": 103,
      "y": 202,
      "size": 1,
      "price": "1011000000000000000000",
      "reserved": "",
      "salt": "0xeeb0a141ef002df3b6033400e00aa4aad1fb03ec4fc9381b9c5e406e9547d75c",
      "assetIds": []
    },
    {
      "x": 103,
      "y": 203,
      "size": 1,
      "price": "1011000000000000000000",
      "reserved": "",
      "salt": "0xbf2bb061ba8c3a4b7023c6d24a6a12e2d385d37ccc9d89501f2dc479dd19e490",
      "assetIds": []
    },
    {
      "x": 104,
      "y": 195,
      "size": 1,
      "price": "1011000000000000000000",
      "reserved": "",
      "salt": "0xbf3e4b700f7d19a1c2db3733816454bfd64ee4bed646fdab849b502310d30d59",
      "assetIds": []
    },
    {
      "x": 104,
      "y": 196,
      "size": 1,
      "price": "1011000000000000000000",
      "reserved": "",
      "salt": "0xff2a80ba650a5ef28fd347c9b80e1335848adb575338e0c8e45dd3efd46416a5",
      "assetIds": []
    },
    {
      "x": 104,
      "y": 197,
      "size": 1,
      "price": "1011000000000000000000",
      "reserved": "",
      "salt": "0x4d2e25cafd8dbdd1f612f81d94f3252baf0b2e7cb3ec35c78fb23ebda7230e0e",
      "assetIds": []
    },
    {
      "x": 104,
      "y": 201,
      "size": 1,
      "price": "1011000000000000000000",
      "reserved": "",
      "salt": "0xdc7bd6b8f7d365043aefdb9c5d7910a9e57a458d11b1d0bbf266ce317af5a1dd",
      "assetIds": []
    },
    {
      "x": 104,
      "y": 202,
      "size": 1,
      "price": "1011000000000000000000",
      "reserved": "",
      "salt": "0xa4d76e9ab7f935a369203ff7442b40e385e8ff30dd35176658ba533cbbdce4ee",
      "assetIds": []
    },
    {
      "x": 104,
      "y": 203,
      "size": 1,
      "price": "1011000000000000000000",
      "reserved": "",
      "salt": "0x8cb596e75d3ae9cbeb92b271026821c3f7a0fa0703f35cb2b4bfeeca1a1a6c99",
      "assetIds": []
    },
    {
      "x": 105,
      "y": 192,
      "size": 1,
      "price": "1011000000000000000000",
      "reserved": "",
      "salt": "0xf1dd66faac1473d37253f514cd77ec8b869d1b118d821ace36d0c7aa4bdfec79",
      "assetIds": []
    },
    {
      "x": 105,
      "y": 193,
      "size": 1,
      "price": "1011000000000000000000",
      "reserved": "",
      "salt": "0x710f2c76b59a42eb52c620cabdba789e12ab63c8bbaaceadd7062b1fe96fb279",
      "assetIds": []
    },
    {
      "x": 105,
      "y": 194,
      "size": 1,
      "price": "4683000000000000000000",
      "reserved": "",
      "salt": "0x8efea1662836847950af240870f4281553486cd6cf8616c92f1ed64b175a66ca",
      "assetIds": []
    },
    {
      "x": 105,
      "y": 198,
      "size": 1,
      "price": "4683000000000000000000",
      "reserved": "",
      "salt": "0x4cdddb665edc700399fe4dcc5167eb1e0ce9122db9f658a313b46dd6cf4c6e8c",
      "assetIds": []
    },
    {
      "x": 105,
      "y": 199,
      "size": 1,
      "price": "1011000000000000000000",
      "reserved": "",
      "salt": "0xa39571140fd12f26a0174107e244033eeff1ce2e6c797208a341af2dc255463a",
      "assetIds": []
    },
    {
      "x": 105,
      "y": 200,
      "size": 1,
      "price": "1011000000000000000000",
      "reserved": "",
      "salt": "0xc5e3e2e01c91c0b7db1e4d59dcfb6e2b38588921d7aed62a8f749ef9d1a40a17",
      "assetIds": []
    },
    {
      "x": 106,
      "y": 192,
      "size": 1,
      "price": "1011000000000000000000",
      "reserved": "",
      "salt": "0x017d66ef308a2f150c871871007459a25335d6105366cab4a2c1592cbbd0e4c9",
      "assetIds": []
    },
    {
      "x": 106,
      "y": 193,
      "size": 1,
      "price": "1011000000000000000000",
      "reserved": "",
      "salt": "0xa86d473dc9130b6438917b4f858c0adde2149d55dcc636ea18357fac40e66658",
      "assetIds": []
    },
    {
      "x": 106,
      "y": 194,
      "size": 1,
      "price": "4683000000000000000000",
      "reserved": "",
      "salt": "0xa093919b974de5e5dc8fe897f08d5092e50858f20b7a1305fe55c8da4f096450",
      "assetIds": []
    },
    {
      "x": 106,
      "y": 198,
      "size": 1,
      "price": "1011000000000000000000",
      "reserved": "",
      "salt": "0x78dd386394be6485d1d8431bd4c011597287c91a3fe2e87d807b88a4127dd773",
      "assetIds": []
    },
    {
      "x": 106,
      "y": 199,
      "size": 1,
      "price": "1011000000000000000000",
      "reserved": "",
      "salt": "0xf9134691de939b0a83b5bf63e13040c90cdc407665258d10845cc5078ff579be",
      "assetIds": []
    },
    {
      "x": 106,
      "y": 200,
      "size": 1,
      "price": "1011000000000000000000",
      "reserved": "",
      "salt": "0xe66d9649711fd8de9f9472375d0270edce571857739782279087cf2b2d4ead40",
      "assetIds": []
    },
    {
      "x": 107,
      "y": 192,
      "size": 1,
      "price": "1011000000000000000000",
      "reserved": "",
      "salt": "0xd054407f5220c01aefcd359e43bd623d6216eb76121dd253ce22ad9ef1f966d5",
      "assetIds": []
    },
    {
      "x": 107,
      "y": 193,
      "size": 1,
      "price": "1011000000000000000000",
      "reserved": "",
      "salt": "0x9f30d8bd90289fb35995af806708f85fa1e86196527e6df0936e3ea3f70c4dc0",
      "assetIds": []
    },
    {
      "x": 107,
      "y": 194,
      "size": 1,
      "price": "4683000000000000000000",
      "reserved": "",
      "salt": "0x6e4c3d143616fe218a4c34a526bfd7c0d4017df89271ebe438cde6d5a2f61c1f",
      "assetIds": []
    },
    {
      "x": 107,
      "y": 198,
      "size": 1,
      "price": "4683000000000000000000",
      "reserved": "",
      "salt": "0xa50efa93b0c454a5229d6ab5983a95443edc421d0de76684d1a4cfd3c183d254",
      "assetIds": []
    },
    {
      "x": 107,
      "y": 199,
      "size": 1,
      "price": "1011000000000000000000",
      "reserved": "",
      "salt": "0x4f7f820e82bc39604bb3999fb308303dcda4083bbb76a837337b71aa6e0e4c28",
      "assetIds": []
    },
    {
      "x": 107,
      "y": 200,
      "size": 1,
      "price": "1011000000000000000000",
      "reserved": "",
      "salt": "0x89ee0bc197e8e9294c2380f08d8ec2ffea41ee0cffbdd5658c9e503d9f6b79af",
      "assetIds": []
    },
    {
      "x": 108,
      "y": 189,
      "size": 1,
      "price": "1011000000000000000000",
      "reserved": "",
      "salt": "0xc6775f8633d15d1bb07c7ba8b65a237a9de66a66f720b39287ad648a3b54e274",
      "assetIds": []
    },
    {
      "x": 108,
      "y": 190,
      "size": 1,
      "price": "1011000000000000000000",
      "reserved": "",
      "salt": "0xc9d0155aeb78940226fa981a12aefe58853ab6babafcd21499d872d2a6582546",
      "assetIds": []
    },
    {
      "x": 108,
      "y": 191,
      "size": 1,
      "price": "1011000000000000000000",
      "reserved": "",
      "salt": "0x8b5b91974e4c166ae6d5b0d633e33065a8afedb13f1b6519cb65a544e99c67d4",
      "assetIds": []
    },
    {
      "x": 108,
      "y": 192,
      "size": 1,
      "price": "1011000000000000000000",
      "reserved": "",
      "salt": "0xd5b2ef286467c3dbd7016b7c43d1ab4cfa66bfb76de9123f9df83dbf8f8a6384",
      "assetIds": []
    },
    {
      "x": 108,
      "y": 193,
      "size": 1,
      "price": "1011000000000000000000",
      "reserved": "",
      "salt": "0x6b0d9f0936246bcdf9212f069ad22447cef3d1d196e4d54ad2650b62ca588512",
      "assetIds": []
    },
    {
      "x": 108,
      "y": 194,
      "size": 1,
      "price": "1011000000000000000000",
      "reserved": "",
      "salt": "0xc35792a91e6e4ca4589db7dd46d3ba06f57b0dc979a5082727a0ea9b94735c4d",
      "assetIds": []
    },
    {
      "x": 108,
      "y": 195,
      "size": 1,
      "price": "4683000000000000000000",
      "reserved": "",
      "salt": "0xf2e94d48aafa669326f39e5d7fc4f8b8e90ea4807ecb3cf4904df6786288a3bf",
      "assetIds": []
    },
    {
      "x": 108,
      "y": 196,
      "size": 1,
      "price": "4683000000000000000000",
      "reserved": "",
      "salt": "0x29db878be7657018654020d44fe01e4b305dfe0643d879660c760efc4e38fe71",
      "assetIds": []
    },
    {
      "x": 108,
      "y": 197,
      "size": 1,
      "price": "4683000000000000000000",
      "reserved": "",
      "salt": "0xd127c670e8f1db32c37df6ac1ed8f9aa9b0afd0b934a02e348b0e028a84a4e73",
      "assetIds": []
    },
    {
      "x": 108,
      "y": 198,
      "size": 1,
      "price": "1011000000000000000000",
      "reserved": "",
      "salt": "0xe472aa35d496e8cc27cb15838c4ee43acaaf2ffbd9cd69323bff0f878d735d17",
      "assetIds": []
    },
    {
      "x": 108,
      "y": 199,
      "size": 1,
      "price": "1011000000000000000000",
      "reserved": "",
      "salt": "0xa74f31c2baa64ebd8cc6074abba45e1bd1cfaa41ad5191507dcfb9760cc308ec",
      "assetIds": []
    },
    {
      "x": 108,
      "y": 200,
      "size": 1,
      "price": "1011000000000000000000",
      "reserved": "",
      "salt": "0xafb82f807679cdd15f32920ddab55afa8aedbe20e23a8d0b58c100dd2a2af513",
      "assetIds": []
    },
    {
      "x": 109,
      "y": 189,
      "size": 1,
      "price": "1011000000000000000000",
      "reserved": "",
      "salt": "0x63401930d65a71c5583eac94bf759f7ee2d13fa18d5f21c5915880271947af8f",
      "assetIds": []
    },
    {
      "x": 109,
      "y": 190,
      "size": 1,
      "price": "1011000000000000000000",
      "reserved": "",
      "salt": "0xdd4418699c4dc0c16d7a0bcaf99223fd4248a367c3e97e3882fe1ee457d6272d",
      "assetIds": []
    },
    {
      "x": 109,
      "y": 191,
      "size": 1,
      "price": "1011000000000000000000",
      "reserved": "",
      "salt": "0x0bdd81d4a3d0f364a66e566cb42d3140f26aee80e09f1457af18fbcadaea8bd1",
      "assetIds": []
    },
    {
      "x": 109,
      "y": 192,
      "size": 1,
      "price": "1011000000000000000000",
      "reserved": "",
      "salt": "0x49527857e672ad64c941328723ed8bdfd1e1e0b730d7f638a5f34386f2f8d773",
      "assetIds": []
    },
    {
      "x": 109,
      "y": 193,
      "size": 1,
      "price": "1011000000000000000000",
      "reserved": "",
      "salt": "0xba48690b4fc8aeaecdde0cb88b4b52642eae0ce60f01d24a4ada1a3a14a986d2",
      "assetIds": []
    },
    {
      "x": 109,
      "y": 194,
      "size": 1,
      "price": "1011000000000000000000",
      "reserved": "",
      "salt": "0x42f8d23328d4bd72d897ecad97a80adc0d815fb725ecccab41e244ca690ba75d",
      "assetIds": []
    },
    {
      "x": 109,
      "y": 195,
      "size": 1,
      "price": "1011000000000000000000",
      "reserved": "",
      "salt": "0x1413579476ea19cc57d0bc400edf904c946d61f70b73c3d88915f38a7e83f243",
      "assetIds": []
    },
    {
      "x": 109,
      "y": 196,
      "size": 1,
      "price": "1011000000000000000000",
      "reserved": "",
      "salt": "0x66a14ffb432e988468c18476453898dcd5027c60db383b820c0a84983a7f9b1d",
      "assetIds": []
    },
    {
      "x": 109,
      "y": 197,
      "size": 1,
      "price": "1011000000000000000000",
      "reserved": "",
      "salt": "0x0591e16625f086322faa71746444e1381d0929705b0cd1637db4af56208e2e8b",
      "assetIds": []
    },
    {
      "x": 109,
      "y": 198,
      "size": 1,
      "price": "1011000000000000000000",
      "reserved": "",
      "salt": "0x9229d0e565cee40ef2c0cada64105e9e708c9ba53030d40af0515ce990c81e50",
      "assetIds": []
    },
    {
      "x": 109,
      "y": 199,
      "size": 1,
      "price": "1011000000000000000000",
      "reserved": "",
      "salt": "0x6c77405b58308b14141ca1f22431bd82c8b92e41d9f377fee10ba4b480425d2d",
      "assetIds": []
    },
    {
      "x": 109,
      "y": 200,
      "size": 1,
      "price": "1011000000000000000000",
      "reserved": "",
      "salt": "0x63b81a4661bc352675610b7201e9c126c865054fe912d90ff113c9e1d2e076fb",
      "assetIds": []
    },
    {
      "x": 110,
      "y": 189,
      "size": 1,
      "price": "1011000000000000000000",
      "reserved": "",
      "salt": "0x518fb282a8dc09f169698d684a72071aeedf04701e0d3883d3b911fc23e359f5",
      "assetIds": []
    },
    {
      "x": 110,
      "y": 190,
      "size": 1,
      "price": "4683000000000000000000",
      "reserved": "",
      "salt": "0x25d6ff7b0ea748bff5e58e0fab9a31f624bbc4dae534958546d7f4cc57a60cda",
      "assetIds": []
    },
    {
      "x": 110,
      "y": 191,
      "size": 1,
      "price": "4683000000000000000000",
      "reserved": "",
      "salt": "0x279ce6896dd3adee0a8592e7e668fd36a442b43a4b8c736ce26378dba66b43d1",
      "assetIds": []
    },
    {
      "x": 110,
      "y": 192,
      "size": 1,
      "price": "1011000000000000000000",
      "reserved": "",
      "salt": "0x603f452f41c516519db061563c2350ca256d20046429748ac145868bc5577f74",
      "assetIds": []
    },
    {
      "x": 110,
      "y": 193,
      "size": 1,
      "price": "1011000000000000000000",
      "reserved": "",
      "salt": "0x5468657f93be987e02c13a202468e26e25419d0135a3496fcf190c931596035f",
      "assetIds": []
    },
    {
      "x": 110,
      "y": 194,
      "size": 1,
      "price": "1011000000000000000000",
      "reserved": "",
      "salt": "0x729b53d932c9072b0b7f35ecf0036c24798c1796ae74f43364c15173079c23b9",
      "assetIds": []
    },
    {
      "x": 110,
      "y": 195,
      "size": 1,
      "price": "1011000000000000000000",
      "reserved": "",
      "salt": "0x1490b60e6a4c61eecafa91e03a24c5ea733284d65c9b295ea3b31503a302c4cc",
      "assetIds": []
    },
    {
      "x": 110,
      "y": 196,
      "size": 1,
      "price": "1011000000000000000000",
      "reserved": "",
      "salt": "0xfe9275055898f55a1d3543f97a3625569a50303b943533cb38be98dfaaf634b7",
      "assetIds": []
    },
    {
      "x": 110,
      "y": 197,
      "size": 1,
      "price": "1011000000000000000000",
      "reserved": "",
      "salt": "0x3dac20c91146fb564318196e060fb4348f784c1bb0dd16b3b12afae62fbd49be",
      "assetIds": []
    },
    {
      "x": 110,
      "y": 198,
      "size": 1,
      "price": "1011000000000000000000",
      "reserved": "",
      "salt": "0x56ba48df9e4da54d081c078bc59aa30f68d517edc992f9105be15a62280008d2",
      "assetIds": []
    },
    {
      "x": 110,
      "y": 199,
      "size": 1,
      "price": "1011000000000000000000",
      "reserved": "",
      "salt": "0xeeb5408b363ad3a04d983fd601fc6b7c18d869300742d05da5a10e28c5296993",
      "assetIds": []
    },
    {
      "x": 110,
      "y": 200,
      "size": 1,
      "price": "1011000000000000000000",
      "reserved": "",
      "salt": "0x5776cc0a53de188d84e507e27b6986f5018b4e0c458f150bc52598e5e0023e17",
      "assetIds": []
    },
    {
      "x": 111,
      "y": 186,
      "size": 1,
      "price": "1011000000000000000000",
      "reserved": "",
      "salt": "0xde8244bdb42970b382818950775ad09ae2693d2fbca6ab57c39de3e8f29f07ca",
      "assetIds": []
    },
    {
      "x": 111,
      "y": 187,
      "size": 1,
      "price": "1011000000000000000000",
      "reserved": "",
      "salt": "0x825464dfdffc4c70688795ed62196dabe1de5dda32c101297a68c24496b9f392",
      "assetIds": []
    },
    {
      "x": 111,
      "y": 188,
      "size": 1,
      "price": "4683000000000000000000",
      "reserved": "",
      "salt": "0x7e35197389b8ccc194ee938ce1ab3c94f7f1480b3d81624a67692c2546964b94",
      "assetIds": []
    },
    {
      "x": 111,
      "y": 192,
      "size": 1,
      "price": "4683000000000000000000",
      "reserved": "",
      "salt": "0x08d2a3a9152b5af52496e456f564f0d79e1cdfd3e0223eb13c6bdd76b54cb5b8",
      "assetIds": []
    },
    {
      "x": 111,
      "y": 193,
      "size": 1,
      "price": "1011000000000000000000",
      "reserved": "",
      "salt": "0xa16b92d35afc23c102e7c477a282b5a7751d48fe74890fbf47e2c8b6b6f8e41e",
      "assetIds": []
    },
    {
      "x": 111,
      "y": 194,
      "size": 1,
      "price": "1011000000000000000000",
      "reserved": "",
      "salt": "0xb1f847a1aed37565030b1b0dc9c21c8caab98a9ffe94869f1eaa495da1b20b03",
      "assetIds": []
    },
    {
      "x": 111,
      "y": 198,
      "size": 1,
      "price": "1011000000000000000000",
      "reserved": "",
      "salt": "0x5555c3d50818d9c9faef0983a2b82361d279b490a4a57f102bc1c4ecea7f4352",
      "assetIds": []
    },
    {
      "x": 111,
      "y": 199,
      "size": 1,
      "price": "1011000000000000000000",
      "reserved": "",
      "salt": "0x0d5bc148aacf589df47aebf5b1ed15a1b90587e9e84030d5aa25c847341dba68",
      "assetIds": []
    },
    {
      "x": 111,
      "y": 200,
      "size": 1,
      "price": "1011000000000000000000",
      "reserved": "",
      "salt": "0x6acc98d514e59a3c00ebeab9e9ffb7d918958f1d0907605b3950fd3f7c498901",
      "assetIds": []
    },
    {
      "x": 112,
      "y": 186,
      "size": 1,
      "price": "1011000000000000000000",
      "reserved": "",
      "salt": "0x4c9f3fe3a74f159feeda544d2bbdc9637b6d867199b6ed913234a847a08e415c",
      "assetIds": []
    },
    {
      "x": 112,
      "y": 187,
      "size": 1,
      "price": "1011000000000000000000",
      "reserved": "",
      "salt": "0x226aaf9f93fb9e46bdc136a38c3fb0098689ab60fba940ba7bcc8950ca53f074",
      "assetIds": []
    },
    {
      "x": 112,
      "y": 188,
      "size": 1,
      "price": "1011000000000000000000",
      "reserved": "0x7a9fe22691c811ea339d9b73150e6911a5343dca",
      "salt": "0x94021988afa8477a96dc417fc1f2d3f1e0985f1965127802f79b128592ae5f89",
      "assetIds": []
    },
    {
      "x": 112,
      "y": 192,
      "size": 1,
      "price": "4683000000000000000000",
      "reserved": "",
      "salt": "0xfb69679967fc15d3c1ff20e2d1dc86dfdd0bbb46ce13e68af5269d6818c461e1",
      "assetIds": []
    },
    {
      "x": 112,
      "y": 193,
      "size": 1,
      "price": "1011000000000000000000",
      "reserved": "",
      "salt": "0x536b31fec0c7bf334ea98f05bd43f9009c1828bea9a370b5703f69a886674ba7",
      "assetIds": []
    },
    {
      "x": 112,
      "y": 194,
      "size": 1,
      "price": "1011000000000000000000",
      "reserved": "",
      "salt": "0xb439a946aababfa7606f5f2d6733f0292c69bcfa921a2b898d0eb27e79ed7113",
      "assetIds": []
    },
    {
      "x": 112,
      "y": 198,
      "size": 1,
      "price": "1011000000000000000000",
      "reserved": "",
      "salt": "0x2864cab26fbcdaef17b826ae8d380dabd05a881041aa1ab0091085d89e989abd",
      "assetIds": []
    },
    {
      "x": 112,
      "y": 199,
      "size": 1,
      "price": "1011000000000000000000",
      "reserved": "0x7a9fe22691c811ea339d9b73150e6911a5343dca",
      "salt": "0xca629a7b2350b4d7bd4f0e36febe66e6b0bbe07f3f01da8d9a0d0147150c63a3",
      "assetIds": []
    },
    {
      "x": 112,
      "y": 200,
      "size": 1,
      "price": "1011000000000000000000",
      "reserved": "",
      "salt": "0x58a234ed73a3ccda18b3bc49427caf1a0e3f32d3fe5b600aa565a26a43662d0b",
      "assetIds": []
    },
    {
      "x": 113,
      "y": 186,
      "size": 1,
      "price": "1011000000000000000000",
      "reserved": "",
      "salt": "0x321fdab37973e67d92146edc544677858c72c5799588721583023fb7ff591014",
      "assetIds": []
    },
    {
      "x": 113,
      "y": 187,
      "size": 1,
      "price": "1011000000000000000000",
      "reserved": "",
      "salt": "0xdaa11f49788c3fe69702274852e86f5b068151b720916d7d7da22ca3573118dc",
      "assetIds": []
    },
    {
      "x": 113,
      "y": 188,
      "size": 1,
      "price": "4683000000000000000000",
      "reserved": "",
      "salt": "0x234a77ff7088b08c9f5e0ec15d8860e446172dc8e6cda1b9596912706f35c42b",
      "assetIds": []
    },
    {
      "x": 113,
      "y": 192,
      "size": 1,
      "price": "4683000000000000000000",
      "reserved": "",
      "salt": "0x9291e7456a22ea8b54fcfc28bc160d26ec54fa7019f3f87aa3eeb25e9e9768e2",
      "assetIds": []
    },
    {
      "x": 113,
      "y": 193,
      "size": 1,
      "price": "1011000000000000000000",
      "reserved": "",
      "salt": "0xf28a59b75fed67d9bf5d9669bf68fdc079231b5b5d8f2761b42a081d6b825c18",
      "assetIds": []
    },
    {
      "x": 113,
      "y": 194,
      "size": 1,
      "price": "1011000000000000000000",
      "reserved": "",
      "salt": "0x2caf3ea9e8277169068c6f7248304e07ebb73583bf3ccbf1416b62c9a5c8bc6f",
      "assetIds": []
    },
    {
      "x": 113,
      "y": 198,
      "size": 1,
      "price": "4683000000000000000000",
      "reserved": "",
      "salt": "0xd14ad92267c4d3704c73e3aa226dcd50fd9f0419cbec9f0a6b4a14cb145a6e67",
      "assetIds": []
    },
    {
      "x": 113,
      "y": 199,
      "size": 1,
      "price": "4683000000000000000000",
      "reserved": "",
      "salt": "0x2086e4ac20cedf3092907698afde1828d696f812d980ff64c1684eb51e4f8378",
      "assetIds": []
    },
    {
      "x": 113,
      "y": 200,
      "size": 1,
      "price": "4683000000000000000000",
      "reserved": "",
      "salt": "0x9f2b9bcb0bf79a7891d2963e8e0d23b75a4212151cab6c7be95357e9d2607a21",
      "assetIds": []
    },
    {
      "x": 114,
      "y": 183,
      "size": 1,
      "price": "1011000000000000000000",
      "reserved": "",
      "salt": "0x1100b36b32abbab0a8ee4c2cfb99dc61c47f9edb30586f609ece2fe8b683fdf5",
      "assetIds": []
    },
    {
      "x": 114,
      "y": 184,
      "size": 1,
      "price": "1011000000000000000000",
      "reserved": "",
      "salt": "0x296a495b1fbd06d79c61d420ca932dfa7a1442b099bc02ba13ecc454275d8631",
      "assetIds": []
    },
    {
      "x": 114,
      "y": 185,
      "size": 1,
      "price": "1011000000000000000000",
      "reserved": "",
      "salt": "0x6c76e6471f45c03e2f13fed29cb36b374a71c84b7112fc72b61df43a72a66953",
      "assetIds": []
    },
    {
      "x": 114,
      "y": 192,
      "size": 1,
      "price": "1011000000000000000000",
      "reserved": "",
      "salt": "0x412a87a43bc35533ff2eebee99fb2d3c41e991106e334535a913ef010c7be2fc",
      "assetIds": []
    },
    {
      "x": 114,
      "y": 193,
      "size": 1,
      "price": "1011000000000000000000",
      "reserved": "",
      "salt": "0xe9aad74d1a763492c0d94f0e3a10d68af8f2127b8504f8a8ea323b23a01e59ea",
      "assetIds": []
    },
    {
      "x": 114,
      "y": 194,
      "size": 1,
      "price": "1011000000000000000000",
      "reserved": "",
      "salt": "0xfda07eed93203764cfc869ca56b5739488bdcb708321cce2e7fef291fb03a4a7",
      "assetIds": []
    },
    {
      "x": 114,
      "y": 195,
      "size": 1,
      "price": "1011000000000000000000",
      "reserved": "",
      "salt": "0x7f974b761c5590a6e373a6bfb369449d9e085386bbdac4cfd8f33d220381a868",
      "assetIds": []
    },
    {
      "x": 114,
      "y": 196,
      "size": 1,
      "price": "1011000000000000000000",
      "reserved": "",
      "salt": "0xca055c34022ca4ee10c4ae07029e1587daa15c5a1b56f623788436da0596524c",
      "assetIds": []
    },
    {
      "x": 114,
      "y": 197,
      "size": 1,
      "price": "1011000000000000000000",
      "reserved": "",
      "salt": "0xf1ef5b38104ffc0b91ed56f1b0ea4d89fc4538ee0339c995a06b8a3555a562e6",
      "assetIds": []
    },
    {
      "x": 115,
      "y": 183,
      "size": 1,
      "price": "1011000000000000000000",
      "reserved": "",
      "salt": "0x7156f05a6b9e4e9a73f737e51360723e8925077186a15def1689044a98c23d1a",
      "assetIds": []
    },
    {
      "x": 115,
      "y": 184,
      "size": 1,
      "price": "1011000000000000000000",
      "reserved": "",
      "salt": "0x1e7049f9d57a51d99b83aeb9f7f0f1a98f967c6c6b917b8d3219b93f4ca99881",
      "assetIds": []
    },
    {
      "x": 115,
      "y": 185,
      "size": 1,
      "price": "1011000000000000000000",
      "reserved": "",
      "salt": "0x7b91a1d33dbefadab0787d3b18ebb2602a9eff31c0b2f74933e72abb29897ee8",
      "assetIds": []
    },
    {
      "x": 115,
      "y": 192,
      "size": 1,
      "price": "1011000000000000000000",
      "reserved": "",
      "salt": "0x8e810495b823635ce9ea7d34e4cb6d5cd54194d086ca1cb34e3c317bacfa93e2",
      "assetIds": []
    },
    {
      "x": 115,
      "y": 193,
      "size": 1,
      "price": "1011000000000000000000",
      "reserved": "",
      "salt": "0xf79f8440b4ca90d35eba45460874963675a5d68dfa0603b04788d29bc436e382",
      "assetIds": []
    },
    {
      "x": 115,
      "y": 194,
      "size": 1,
      "price": "1011000000000000000000",
      "reserved": "",
      "salt": "0xb6ddf8d4cbd16a2940560b78de54ce3f960c7c2d8775336bb932cfa433c5ca56",
      "assetIds": []
    },
    {
      "x": 115,
      "y": 195,
      "size": 1,
      "price": "1011000000000000000000",
      "reserved": "",
      "salt": "0xd287c22a8b91536ee00e77159a40b1a2ec6246fbcd39e1060e3ad1498620ca69",
      "assetIds": []
    },
    {
      "x": 115,
      "y": 196,
      "size": 1,
      "price": "1011000000000000000000",
      "reserved": "",
      "salt": "0x431b165126833a76615e384486b9764973455d35bcab10ec48c0d15882f9a434",
      "assetIds": []
    },
    {
      "x": 115,
      "y": 197,
      "size": 1,
      "price": "4683000000000000000000",
      "reserved": "",
      "salt": "0x725b0f3a16a31d8caa8df8984e101e05636bbe7a5368a5c33f276b1623909924",
      "assetIds": []
    },
    {
      "x": 116,
      "y": 183,
      "size": 1,
      "price": "1011000000000000000000",
      "reserved": "",
      "salt": "0x87794a3a94f459547960c86c2fe6147187eb214745bee5f3dae22544f84e15a5",
      "assetIds": []
    },
    {
      "x": 116,
      "y": 184,
      "size": 1,
      "price": "1011000000000000000000",
      "reserved": "",
      "salt": "0x4e4fe76f8fa596345cb8953bdfa550ad5f5d174d588a414f558903b4dfdc8a44",
      "assetIds": []
    },
    {
      "x": 116,
      "y": 185,
      "size": 1,
      "price": "1011000000000000000000",
      "reserved": "",
      "salt": "0x3c7c0694f3b4e1db13e0a3ac3178e634652223e28976c475e471f42d6bc02743",
      "assetIds": []
    },
    {
      "x": 116,
      "y": 192,
      "size": 1,
      "price": "1011000000000000000000",
      "reserved": "",
      "salt": "0xde0f6ef0660ac5115134cac6a18788b513d85e4d58c435faf8c5966996e7c7fe",
      "assetIds": []
    },
    {
      "x": 116,
      "y": 193,
      "size": 1,
      "price": "1011000000000000000000",
      "reserved": "",
      "salt": "0xfd083e3b39574e5a184cd985680e61bdf836316185e81ff4018d442ef802d138",
      "assetIds": []
    },
    {
      "x": 116,
      "y": 194,
      "size": 1,
      "price": "1011000000000000000000",
      "reserved": "",
      "salt": "0xeb941bca361dabbf2573c890d839fc8a74b99e638c28966bcec9d331bcd71eed",
      "assetIds": []
    },
    {
      "x": 116,
      "y": 195,
      "size": 1,
      "price": "1011000000000000000000",
      "reserved": "",
      "salt": "0xfa9502d0272a8a548d8dcf5d127a31ab6e8c764af66f61783cdaaa15ef1e902a",
      "assetIds": []
    },
    {
      "x": 116,
      "y": 196,
      "size": 1,
      "price": "1011000000000000000000",
      "reserved": "",
      "salt": "0x6b82e14412c92a3d2823abf2b02c252728eb86d0ea5483f2f902c82497e7504c",
      "assetIds": []
    },
    {
      "x": 116,
      "y": 197,
      "size": 1,
      "price": "4683000000000000000000",
      "reserved": "",
      "salt": "0xfca8896a0e4fe0a4978fc1c369494c243cdf48aa562b91ac7c250c3890f6220a",
      "assetIds": []
    },
    {
      "x": 117,
      "y": 183,
      "size": 1,
      "price": "1011000000000000000000",
      "reserved": "",
      "salt": "0xbb5f445557052cc622e531728ea6a0c65bb4d5320e24ad3b8bd6724c8abed27a",
      "assetIds": []
    },
    {
      "x": 117,
      "y": 184,
      "size": 1,
      "price": "1011000000000000000000",
      "reserved": "",
      "salt": "0x7a571c5592a570d8e20537cc443822dce26f52eed992932d7cd0cc4a1a209721",
      "assetIds": []
    },
    {
      "x": 117,
      "y": 185,
      "size": 1,
      "price": "1011000000000000000000",
      "reserved": "",
      "salt": "0xdbf5914c32402f4c5499ff2f9ced5b18a7392d41353d5ca8aa8aaf9e7ff2ff34",
      "assetIds": []
    },
    {
      "x": 117,
      "y": 195,
      "size": 1,
      "price": "1011000000000000000000",
      "reserved": "",
      "salt": "0xd10c2db90e81fd75e71906188b72b71eeec2ce56c2c10aabfcbfb9ba0d4affca",
      "assetIds": []
    },
    {
      "x": 117,
      "y": 196,
      "size": 1,
      "price": "1011000000000000000000",
      "reserved": "",
      "salt": "0x638cbb42d0e3a2211c2d56e00889d2d9a29cb7a77174ecbfd8dbfc98fae6b09c",
      "assetIds": []
    },
    {
      "x": 117,
      "y": 197,
      "size": 1,
      "price": "1011000000000000000000",
      "reserved": "",
      "salt": "0x70478c6f9e92ce770910df42d52a938d517f190ba55806710782febf7b6b48fc",
      "assetIds": []
    },
    {
      "x": 117,
      "y": 198,
      "size": 1,
      "price": "4683000000000000000000",
      "reserved": "",
      "salt": "0x31b77a6ef63ad14a13d5361a9dfea554910e21c1a8a3a64d1682cf4d9eb1789d",
      "assetIds": []
    },
    {
      "x": 117,
      "y": 199,
      "size": 1,
      "price": "1011000000000000000000",
      "reserved": "",
      "salt": "0xaf0a83506375495492a5e54dd04919202bb58e62eba58ee71e5fc74fc8b56d68",
      "assetIds": []
    },
    {
      "x": 117,
      "y": 200,
      "size": 1,
      "price": "4683000000000000000000",
      "reserved": "",
      "salt": "0x696fc8a79930473a2951d9302326ae551e8f7370c33529521a944111c940aac6",
      "assetIds": []
    },
    {
      "x": 118,
      "y": 183,
      "size": 1,
      "price": "1011000000000000000000",
      "reserved": "",
      "salt": "0x1d6a93dc1682e309b1d63946ccfafa428fef25e35f961d20698414a1f6672f9e",
      "assetIds": []
    },
    {
      "x": 118,
      "y": 184,
      "size": 1,
      "price": "1011000000000000000000",
      "reserved": "",
      "salt": "0xca743a093fde660b3882b267ba1324ee2b3f8c7438512c3f929ff43b537d5e25",
      "assetIds": []
    },
    {
      "x": 118,
      "y": 185,
      "size": 1,
      "price": "1011000000000000000000",
      "reserved": "",
      "salt": "0x8088526d74d8422c8ce171d54aac50f9d8e37fc27c5e54cdff9696897ea32a0b",
      "assetIds": []
    },
    {
      "x": 118,
      "y": 195,
      "size": 1,
      "price": "1011000000000000000000",
      "reserved": "",
      "salt": "0xcce482013173a7623cc999a1367a71ed8837e6c89e0382e716985d9bb0fd17f4",
      "assetIds": []
    },
    {
      "x": 118,
      "y": 196,
      "size": 1,
      "price": "1011000000000000000000",
      "reserved": "",
      "salt": "0x57b41d3199325ece6cb88ea17aeef627f66ff108cb31c3d9ffe5dbe8ecf7be86",
      "assetIds": []
    },
    {
      "x": 118,
      "y": 197,
      "size": 1,
      "price": "1011000000000000000000",
      "reserved": "",
      "salt": "0x00390d7a4f94bdd98eb5c1132d529728d69bc6aa425b5882e5351ac2ae2fe80f",
      "assetIds": []
    },
    {
      "x": 118,
      "y": 198,
      "size": 1,
      "price": "1011000000000000000000",
      "reserved": "",
      "salt": "0x49550e8d7b8a5d6dfbf71aa900ab1ce3865e0ebccd7afbc2aab52d7ff84a71cd",
      "assetIds": []
    },
    {
      "x": 118,
      "y": 199,
      "size": 1,
      "price": "1011000000000000000000",
      "reserved": "",
      "salt": "0x3046d68b87f0bdf5ff0d84d9e61d4cb77a98c61bc030ba922078bb320bdcecae",
      "assetIds": []
    },
    {
      "x": 118,
      "y": 200,
      "size": 1,
      "price": "1011000000000000000000",
      "reserved": "",
      "salt": "0xe6ad1c2d6c4b916ae17b73bb71aaa629b5a91b539599cd12735ff1c0fdbdeef6",
      "assetIds": []
    },
    {
      "x": 119,
      "y": 183,
      "size": 1,
      "price": "1011000000000000000000",
      "reserved": "",
      "salt": "0xcfb692c2edebc24d2922ca8abe75d26dc6be3b2b555b5c6acf099314a489148a",
      "assetIds": []
    },
    {
      "x": 119,
      "y": 184,
      "size": 1,
      "price": "1011000000000000000000",
      "reserved": "",
      "salt": "0x6d4cbf333ee59a32011ebbba6f785c92808268638b2fd5475a3f02b44d3da967",
      "assetIds": []
    },
    {
      "x": 119,
      "y": 185,
      "size": 1,
      "price": "1011000000000000000000",
      "reserved": "",
      "salt": "0x05a9df353c8ca851ea2202015faeeb85426592ab2877e09126d027cdcd19fe41",
      "assetIds": []
    },
    {
      "x": 119,
      "y": 195,
      "size": 1,
      "price": "1011000000000000000000",
      "reserved": "",
      "salt": "0x762c17dc6bdd83ae3dfc6971dddc40125bf37dc9635edc3c58e678a859006d54",
      "assetIds": []
    },
    {
      "x": 119,
      "y": 196,
      "size": 1,
      "price": "1011000000000000000000",
      "reserved": "",
      "salt": "0x35bd3374ba157f7c7670be67ba0006fc627e79459af0e3ba0fa90e4f7f52cb27",
      "assetIds": []
    },
    {
      "x": 119,
      "y": 197,
      "size": 1,
      "price": "1011000000000000000000",
      "reserved": "",
      "salt": "0x38a8c74211e31913b40ea5afa153e3c5a679cf55323ecc0c3f3465f5795170cd",
      "assetIds": []
    },
    {
      "x": 119,
      "y": 198,
      "size": 1,
      "price": "1011000000000000000000",
      "reserved": "",
      "salt": "0x0e11b0ad1566c95dd312df92362d28429540d838c922fe0faf21d2e836e6f096",
      "assetIds": []
    },
    {
      "x": 119,
      "y": 199,
      "size": 1,
      "price": "1011000000000000000000",
      "reserved": "",
      "salt": "0xb43caefe58e3804d83b5b257a36c8f905ff0f6948cb44002a1de37e8ffb98471",
      "assetIds": []
    },
    {
      "x": 119,
      "y": 200,
      "size": 1,
      "price": "1011000000000000000000",
      "reserved": "",
      "salt": "0xc0ef6983387edc959b99660a0226ba25e3ab4d6e8ef6fbf27e759d0229509b38",
      "assetIds": []
    },
    {
      "x": 120,
      "y": 177,
      "size": 1,
      "price": "1011000000000000000000",
      "reserved": "",
      "salt": "0x88e1007685a8b9a81938f66b16e3fd975660a5c184afd0e2ce3ee18147d34f89",
      "assetIds": []
    },
    {
      "x": 120,
      "y": 178,
      "size": 1,
      "price": "1011000000000000000000",
      "reserved": "",
      "salt": "0x5247e32d915b07891047da451b85fa41e664571263f7fcd123c3470753f8777f",
      "assetIds": []
    },
    {
      "x": 120,
      "y": 179,
      "size": 1,
      "price": "1011000000000000000000",
      "reserved": "",
      "salt": "0x7e0e167129c5343b6f7948a945e297a21e2fc707aa1dc08a033ff21f4e214102",
      "assetIds": []
    },
    {
      "x": 120,
      "y": 180,
      "size": 1,
      "price": "1011000000000000000000",
      "reserved": "",
      "salt": "0x62400b3fda8b8d809bf76750def875caa4f611ab3e06a42253195de91df51c0a",
      "assetIds": []
    },
    {
      "x": 120,
      "y": 181,
      "size": 1,
      "price": "1011000000000000000000",
      "reserved": "",
      "salt": "0x480d37701255ee2ee1bc145ec5ff45654a631f7e1ec90035391ed95f7747be7a",
      "assetIds": []
    },
    {
      "x": 120,
      "y": 182,
      "size": 1,
      "price": "1011000000000000000000",
      "reserved": "",
      "salt": "0x306b8abd0b0dd5464e29c87037fc73682208c90b834b357c0e954214387c2126",
      "assetIds": []
    },
    {
      "x": 120,
      "y": 183,
      "size": 1,
      "price": "1011000000000000000000",
      "reserved": "",
      "salt": "0x22c2f07589cec277d94e274379bea6a49780c3b5ace1b11c5a1f77f2b2c63c94",
      "assetIds": []
    },
    {
      "x": 120,
      "y": 184,
      "size": 1,
      "price": "1011000000000000000000",
      "reserved": "",
      "salt": "0xeaa9305eebcc9e086ddeb8aea557410baf5550711c7cccab2c511ca9b8b3cfac",
      "assetIds": []
    },
    {
      "x": 120,
      "y": 185,
      "size": 1,
      "price": "1011000000000000000000",
      "reserved": "",
      "salt": "0xd7429e70c8333bb568fc6fd15ecd2de3bb043550f4b28cd68ba7843bdc551751",
      "assetIds": []
    },
    {
      "x": 120,
      "y": 192,
      "size": 1,
      "price": "1011000000000000000000",
      "reserved": "",
      "salt": "0x7c482119cd0d2b156e32d8d3e670f64aab7ad53502d5eedd36a559d8dbf40a1b",
      "assetIds": []
    },
    {
      "x": 120,
      "y": 193,
      "size": 1,
      "price": "1011000000000000000000",
      "reserved": "",
      "salt": "0xe283d71607d9251646d6f95f435c39f5a4eb4ba628b90bf01dfb2ac51e245005",
      "assetIds": []
    },
    {
      "x": 120,
      "y": 194,
      "size": 1,
      "price": "1011000000000000000000",
      "reserved": "",
      "salt": "0xe234687409ed6922e3dc1628ec8caaa752396b3e781a18e12e33347308c4e103",
      "assetIds": []
    },
    {
      "x": 120,
      "y": 195,
      "size": 1,
      "price": "1011000000000000000000",
      "reserved": "",
      "salt": "0x128fd8a6c7ede2ed0492389ecf8253d564a5dcfa347e5bc5f313a3edc5bde49d",
      "assetIds": []
    },
    {
      "x": 120,
      "y": 196,
      "size": 1,
      "price": "1011000000000000000000",
      "reserved": "",
      "salt": "0x73ae9b96ed2cfb161d15ca7ac39b4cd9abc53589d5374847d162ead08f59da5d",
      "assetIds": []
    },
    {
      "x": 120,
      "y": 197,
      "size": 1,
      "price": "1011000000000000000000",
      "reserved": "",
      "salt": "0x6fe7551580c5975958fd0afc8d33f463af676cdae1cfcf595b69a4b3bb21d379",
      "assetIds": []
    },
    {
      "x": 120,
      "y": 198,
      "size": 1,
      "price": "1011000000000000000000",
      "reserved": "",
      "salt": "0x06a51d69ce0279410b9c906d2d01468280dd620ee70f37afb076ec419c66bae0",
      "assetIds": []
    },
    {
      "x": 120,
      "y": 199,
      "size": 1,
      "price": "1011000000000000000000",
      "reserved": "",
      "salt": "0x712e741ed99c78035e6c23052ee5f9949b61216a3b0e9f02c41052308faeabd3",
      "assetIds": []
    },
    {
      "x": 120,
      "y": 200,
      "size": 1,
      "price": "1011000000000000000000",
      "reserved": "",
      "salt": "0x73bdfc0d7e2634dbf053eee61838de5b5af5951b6405666081dbb8dd5d5e9a42",
      "assetIds": []
    },
    {
      "x": 121,
      "y": 177,
      "size": 1,
      "price": "1011000000000000000000",
      "reserved": "",
      "salt": "0xfa478d407808a0b47c121bafd2a49c0bd4775a58631031f00671a8553281ba86",
      "assetIds": []
    },
    {
      "x": 121,
      "y": 178,
      "size": 1,
      "price": "1011000000000000000000",
      "reserved": "",
      "salt": "0xa5d505ae7b08455bb9889a37dd084539c18c61f967bfe850e5dba282ef9cb26f",
      "assetIds": []
    },
    {
      "x": 121,
      "y": 179,
      "size": 1,
      "price": "1011000000000000000000",
      "reserved": "",
      "salt": "0x82c9cf75f6dbbd6cabd50b4942d45c1da74ad67ea508165db8e3db9e6c7a9d98",
      "assetIds": []
    },
    {
      "x": 121,
      "y": 180,
      "size": 1,
      "price": "1011000000000000000000",
      "reserved": "",
      "salt": "0xef4b77728125164b60b8a1655615c03e1f19ba37a39849542942184d42289743",
      "assetIds": []
    },
    {
      "x": 121,
      "y": 181,
      "size": 1,
      "price": "1011000000000000000000",
      "reserved": "",
      "salt": "0x65a73b55d135f3c6e19895bf297f4896ba6b08c49056eec62e2b4b2b98a006f1",
      "assetIds": []
    },
    {
      "x": 121,
      "y": 182,
      "size": 1,
      "price": "1011000000000000000000",
      "reserved": "",
      "salt": "0x76d8ba3d16945e060242e3e0065a493e932b7a360fdaf2b7b4850e8022c1b80d",
      "assetIds": []
    },
    {
      "x": 121,
      "y": 183,
      "size": 1,
      "price": "1011000000000000000000",
      "reserved": "",
      "salt": "0x8d2cd7d7834059db15d80f5df002c8bc36b5bde21c0569ac37885c951ad30b5c",
      "assetIds": []
    },
    {
      "x": 121,
      "y": 184,
      "size": 1,
      "price": "1011000000000000000000",
      "reserved": "",
      "salt": "0x2d742d7a8c72db7e400bdb13c51277c5d8da9d95395801c8c4a394723ee2e73a",
      "assetIds": []
    },
    {
      "x": 121,
      "y": 185,
      "size": 1,
      "price": "1011000000000000000000",
      "reserved": "",
      "salt": "0xdf45d97c9b68e4f92b4894c0ad449bae8b7ce70b31335c567da88615948ad76e",
      "assetIds": []
    },
    {
      "x": 121,
      "y": 192,
      "size": 1,
      "price": "1011000000000000000000",
      "reserved": "",
      "salt": "0x28fe47e6a120a86f0f5e5c1127cc6e61c21fcc7cdc63594712c3b235ca3b3f65",
      "assetIds": []
    },
    {
      "x": 121,
      "y": 193,
      "size": 1,
      "price": "1011000000000000000000",
      "reserved": "",
      "salt": "0xf2262e905f081f5f8443b2d6f33969e050e64a7074c62fa2cc7bf18f86425477",
      "assetIds": []
    },
    {
      "x": 121,
      "y": 194,
      "size": 1,
      "price": "1011000000000000000000",
      "reserved": "",
      "salt": "0x2a91caf5f6516bd1846bf5254e01c75d98532d6c85acc2bd47e7cf7460a56974",
      "assetIds": []
    },
    {
      "x": 121,
      "y": 195,
      "size": 1,
      "price": "1011000000000000000000",
      "reserved": "",
      "salt": "0x7bcb88d4a21d3298048b3583bd81961ab3730bb4b76d867f2fd6453cc2836bdb",
      "assetIds": []
    },
    {
      "x": 121,
      "y": 196,
      "size": 1,
      "price": "1011000000000000000000",
      "reserved": "",
      "salt": "0x8bc8bf249c02dd30a0f0edfb83bad96cc819501e1781b5ccae42ea3966f7e5f4",
      "assetIds": []
    },
    {
      "x": 121,
      "y": 197,
      "size": 1,
      "price": "1011000000000000000000",
      "reserved": "",
      "salt": "0xaecdc9a5bfe37a3d82a7b2d1d90e6cf854907bd5876e83a6ca364e51c3534874",
      "assetIds": []
    },
    {
      "x": 121,
      "y": 198,
      "size": 1,
      "price": "1011000000000000000000",
      "reserved": "",
      "salt": "0xcc04c66c4ebfc81b7e682344d8c823fa4acd9246a0a6505e967043cbd9233fbd",
      "assetIds": []
    },
    {
      "x": 121,
      "y": 199,
      "size": 1,
      "price": "1011000000000000000000",
      "reserved": "",
      "salt": "0xf5cc4d8bc6db053a70e5a9c8f2cbc732ef98b9bbb76e5b9e2e18f07a5ff0af87",
      "assetIds": []
    },
    {
      "x": 121,
      "y": 200,
      "size": 1,
      "price": "1011000000000000000000",
      "reserved": "",
      "salt": "0xfa44a9ee6da336d161e15ec262d50afada7322bee1035cf6e2a637b591b077a7",
      "assetIds": []
    },
    {
      "x": 122,
      "y": 177,
      "size": 1,
      "price": "1011000000000000000000",
      "reserved": "",
      "salt": "0x421967079803143ce107c7f6abf828a78a5f8f449cadaad815b90b30e4b3943a",
      "assetIds": []
    },
    {
      "x": 122,
      "y": 178,
      "size": 1,
      "price": "1011000000000000000000",
      "reserved": "",
      "salt": "0x6a9734706f9769dc5cc62305cb97ba85689b84ee86c076f9eb1e701fef173f40",
      "assetIds": []
    },
    {
      "x": 122,
      "y": 179,
      "size": 1,
      "price": "1011000000000000000000",
      "reserved": "",
      "salt": "0x1120bf0217805a8fd79d9e6895e510b2b5a55fbdb43d8aa92ebc4d16c4eb7fa0",
      "assetIds": []
    },
    {
      "x": 122,
      "y": 180,
      "size": 1,
      "price": "4683000000000000000000",
      "reserved": "",
      "salt": "0x57488c8e0ff453461cbe0993c63a1b988c839269475167acbb11ffce94c6bd8c",
      "assetIds": []
    },
    {
      "x": 122,
      "y": 181,
      "size": 1,
      "price": "4683000000000000000000",
      "reserved": "",
      "salt": "0x87b8e0bcc2addf0a36f62e4e492eb769c5ce8f979879e3330fd13d44b1b1337b",
      "assetIds": []
    },
    {
      "x": 122,
      "y": 182,
      "size": 1,
      "price": "4683000000000000000000",
      "reserved": "",
      "salt": "0x7220af2738fdc39731e6b0de63b63967b4d7007e9659a99f973a5f4a62d27045",
      "assetIds": []
    },
    {
      "x": 122,
      "y": 183,
      "size": 1,
      "price": "1011000000000000000000",
      "reserved": "",
      "salt": "0x6ad36256ce0eaf8611a260aaef982137f529a35e2e3a43f34ab2b4e8f7298f6f",
      "assetIds": []
    },
    {
      "x": 122,
      "y": 184,
      "size": 1,
      "price": "1011000000000000000000",
      "reserved": "",
      "salt": "0xa92093cb91546f0022a74c7618c99136a39d5f6928538db51431445f5ab29d4c",
      "assetIds": []
    },
    {
      "x": 122,
      "y": 185,
      "size": 1,
      "price": "1011000000000000000000",
      "reserved": "",
      "salt": "0xbe1eabe99951b02c41dbbdaf7d0084d723d33bd3baf48f7fb8d91a14d053bf35",
      "assetIds": []
    },
    {
      "x": 122,
      "y": 192,
      "size": 1,
      "price": "1011000000000000000000",
      "reserved": "",
      "salt": "0x39dce8bc7faa9d6e06ed91dcb3451872cf86a893adc68a86d45ef7a22b4a77fb",
      "assetIds": []
    },
    {
      "x": 122,
      "y": 193,
      "size": 1,
      "price": "1011000000000000000000",
      "reserved": "",
      "salt": "0xececff4306f50510c2bdf2b780a5e0e345d6970ab5f039e824c7030dab385aba",
      "assetIds": []
    },
    {
      "x": 122,
      "y": 194,
      "size": 1,
      "price": "1011000000000000000000",
      "reserved": "",
      "salt": "0xed87329b605108c2e5c6c7a5a50f5eafb565fb8fe4937be87bba5a4f81a78748",
      "assetIds": []
    },
    {
      "x": 122,
      "y": 195,
      "size": 1,
      "price": "1011000000000000000000",
      "reserved": "",
      "salt": "0x4357e57ee84e17ae7feeaa859d39164c0226d3b61390cc2efeee1584137239c8",
      "assetIds": []
    },
    {
      "x": 122,
      "y": 196,
      "size": 1,
      "price": "1011000000000000000000",
      "reserved": "",
      "salt": "0x53e38ba93f056a26060e2ca1ba65071cc6365b9d17a87c69b40078be2f10de71",
      "assetIds": []
    },
    {
      "x": 122,
      "y": 197,
      "size": 1,
      "price": "1011000000000000000000",
      "reserved": "",
      "salt": "0x700e22058882a8959e026b76077ffea5b68f45c1e435c8317e8a9a967b295134",
      "assetIds": []
    },
    {
      "x": 122,
      "y": 198,
      "size": 1,
      "price": "1011000000000000000000",
      "reserved": "",
      "salt": "0x8ec6096b0c9f1513130b443ca264c5cecda93729eb120e183b170ec1a65bebf5",
      "assetIds": []
    },
    {
      "x": 122,
      "y": 199,
      "size": 1,
      "price": "1011000000000000000000",
      "reserved": "",
      "salt": "0x51ed2f12d02498ca43fb30c9e167f132516a4c5208ab6a039e936653e32f7e17",
      "assetIds": []
    },
    {
      "x": 122,
      "y": 200,
      "size": 1,
      "price": "1011000000000000000000",
      "reserved": "",
      "salt": "0x9c5cc2897146d932f81c705b9e4941c4e3c35aab519149b34692fe3b260fee3c",
      "assetIds": []
    },
    {
      "x": 123,
      "y": 177,
      "size": 1,
      "price": "1011000000000000000000",
      "reserved": "",
      "salt": "0x24492bf6555be5b88ea221a16e7bfbb764175f6303e29df15667843980217b5f",
      "assetIds": []
    },
    {
      "x": 123,
      "y": 178,
      "size": 1,
      "price": "1011000000000000000000",
      "reserved": "",
      "salt": "0xfc13f6ccefdada57bcccdb29a82e50dd59c84dbcedc13b2fee6dde5f3ca2e162",
      "assetIds": []
    },
    {
      "x": 123,
      "y": 179,
      "size": 1,
      "price": "1011000000000000000000",
      "reserved": "",
      "salt": "0x5801a33024fdf3f39a8a4e15d442bf075a27eebf1af7aa0bf9d7ed9f3a7762a5",
      "assetIds": []
    },
    {
      "x": 123,
      "y": 183,
      "size": 1,
      "price": "4683000000000000000000",
      "reserved": "",
      "salt": "0xcb782997ccd9bc44fb5861bac65214a6f1fc9acbbcae70ded8232c113620b959",
      "assetIds": []
    },
    {
      "x": 123,
      "y": 184,
      "size": 1,
      "price": "1011000000000000000000",
      "reserved": "",
      "salt": "0xdac6a5bb1b3bbc23362bb04e4f968e0179af5a53e1215eb8bbf5170bdd8a12d2",
      "assetIds": []
    },
    {
      "x": 123,
      "y": 185,
      "size": 1,
      "price": "1011000000000000000000",
      "reserved": "",
      "salt": "0xeac6f75b4ef1e518e62b030dd1265e8e5f45cdc7f6b061b33cef20e717618664",
      "assetIds": []
    },
    {
      "x": 123,
      "y": 192,
      "size": 1,
      "price": "1011000000000000000000",
      "reserved": "",
      "salt": "0x3cbd9ca77d4dbe25cd224d6801842a180b950e9c1d5b0a22879717e2b9f1b596",
      "assetIds": []
    },
    {
      "x": 123,
      "y": 193,
      "size": 1,
      "price": "1011000000000000000000",
      "reserved": "",
      "salt": "0x452397264db1821cad0f741bb3e4a125c6409809442efe7b542c8c8146b75ebc",
      "assetIds": []
    },
    {
      "x": 123,
      "y": 194,
      "size": 1,
      "price": "1011000000000000000000",
      "reserved": "",
      "salt": "0x04f7cd950e1e782d043c49cfc95e18942734f21ab3b2422a95b6792677f1fcfd",
      "assetIds": []
    },
    {
      "x": 123,
      "y": 195,
      "size": 1,
      "price": "1011000000000000000000",
      "reserved": "",
      "salt": "0xf014048c77e5d1bdfc5b84fa65113e33857f2e9124cc75ef71675ba3cf6b3d68",
      "assetIds": []
    },
    {
      "x": 123,
      "y": 196,
      "size": 1,
      "price": "1011000000000000000000",
      "reserved": "",
      "salt": "0x65f3b22b78af39a811f05d632f4ed27e5ecbb6c6cd2392b6e7ce7a9d3f085a8c",
      "assetIds": []
    },
    {
      "x": 123,
      "y": 197,
      "size": 1,
      "price": "1011000000000000000000",
      "reserved": "",
      "salt": "0x976ade001e28045bb7f82af3b9c3aa043ac2b4d8e67cc07646d622f7d59a677a",
      "assetIds": []
    },
    {
      "x": 124,
      "y": 177,
      "size": 1,
      "price": "1011000000000000000000",
      "reserved": "",
      "salt": "0x0e4f01979eccd66933f4acd48a013d6f90d8c5312c1cfee183523478a2f64233",
      "assetIds": []
    },
    {
      "x": 124,
      "y": 178,
      "size": 1,
      "price": "1011000000000000000000",
      "reserved": "",
      "salt": "0x31948427a9e4ae8c21be186ac6a34dc664c672e314cd87be08a0e86868df1a7c",
      "assetIds": []
    },
    {
      "x": 124,
      "y": 179,
      "size": 1,
      "price": "4683000000000000000000",
      "reserved": "",
      "salt": "0xc2b1fcb6959a9834864baacfbdbe7a5e3d29dd2249c5cd3bc3c0c3d98e9522c0",
      "assetIds": []
    },
    {
      "x": 124,
      "y": 183,
      "size": 1,
      "price": "4683000000000000000000",
      "reserved": "",
      "salt": "0xe1b2309dfe5d07f50fc9e60dfa104c32e8345569a3ad8cc3b5754e4c4f34d869",
      "assetIds": []
    },
    {
      "x": 124,
      "y": 184,
      "size": 1,
      "price": "1011000000000000000000",
      "reserved": "",
      "salt": "0x08f309aa7289de39ab4877b2b12d7c43b62d5a1f91340abe5862a87cc6db4270",
      "assetIds": []
    },
    {
      "x": 124,
      "y": 185,
      "size": 1,
      "price": "1011000000000000000000",
      "reserved": "",
      "salt": "0x4a839b27d83bc452430750b0b0812bcdcb2ef6d53d5a2adea3e829296024c611",
      "assetIds": []
    },
    {
      "x": 124,
      "y": 192,
      "size": 1,
      "price": "1011000000000000000000",
      "reserved": "",
      "salt": "0x78e2e1b770e8d4a18139cd52141cb49b8cdbf03dc7acaef9c15800bfaa971b04",
      "assetIds": []
    },
    {
      "x": 124,
      "y": 193,
      "size": 1,
      "price": "1011000000000000000000",
      "reserved": "",
      "salt": "0xaa5906c63c8ef5de63fe4f7ce2cf9e1d29ce2638cf5629e31ad8b721b7d2e069",
      "assetIds": []
    },
    {
      "x": 124,
      "y": 194,
      "size": 1,
      "price": "1011000000000000000000",
      "reserved": "",
      "salt": "0x86750d27b62eae5d85f3d721a0cfdb6af579d2f87c71dec4d783c371c95e3666",
      "assetIds": []
    },
    {
      "x": 124,
      "y": 195,
      "size": 1,
      "price": "1011000000000000000000",
      "reserved": "",
      "salt": "0xb3de1b789d13824ec45e3fc518350f71536a8b31bcff4a40661563cb687ce07b",
      "assetIds": []
    },
    {
      "x": 124,
      "y": 196,
      "size": 1,
      "price": "1011000000000000000000",
      "reserved": "",
      "salt": "0x3b7b0e8610416d1b7dd663831472a365a8ea7068760e7da2c93cd4f464b15919",
      "assetIds": []
    },
    {
      "x": 124,
      "y": 197,
      "size": 1,
      "price": "1011000000000000000000",
      "reserved": "",
      "salt": "0xd35334ffb03ceea28fc7230cccc1c3cf316304388bbd6f84866154b0830e1205",
      "assetIds": []
    },
    {
      "x": 125,
      "y": 177,
      "size": 1,
      "price": "1011000000000000000000",
      "reserved": "",
      "salt": "0x1ca28304b0ca8c34614fadc04fcee7e5c1b516c11e86b5b3fb6d0e5c9e589cc7",
      "assetIds": []
    },
    {
      "x": 125,
      "y": 178,
      "size": 1,
      "price": "1011000000000000000000",
      "reserved": "",
      "salt": "0x9645c17b519d109b99fa384fa0e81307664cf5556da8fa45474b61fb7d20c872",
      "assetIds": []
    },
    {
      "x": 125,
      "y": 179,
      "size": 1,
      "price": "4683000000000000000000",
      "reserved": "",
      "salt": "0x14d3272b25ded6f10cdaf46a5845583ce85dc376e756f06bcaee64141feaad23",
      "assetIds": []
    },
    {
      "x": 125,
      "y": 183,
      "size": 1,
      "price": "4683000000000000000000",
      "reserved": "",
      "salt": "0xea1585b7b1e3a2d235087a7d1303dc3d9813492818b82991485e8cb414017eb1",
      "assetIds": []
    },
    {
      "x": 125,
      "y": 184,
      "size": 1,
      "price": "1011000000000000000000",
      "reserved": "",
      "salt": "0xe38375d9cc602df99b94e45bcefbdd6e8fe07fb86865375ba724361217cbab1c",
      "assetIds": []
    },
    {
      "x": 125,
      "y": 185,
      "size": 1,
      "price": "1011000000000000000000",
      "reserved": "",
      "salt": "0xed40d5914f44f257431b5b200fbc037110c1194b283d0a7356d0578c18cfddb8",
      "assetIds": []
    },
    {
      "x": 125,
      "y": 192,
      "size": 1,
      "price": "4683000000000000000000",
      "reserved": "",
      "salt": "0x40796d652421fd87c127ea85a52bd3f73dce6b39cfa331c24ae907171d858904",
      "assetIds": []
    },
    {
      "x": 125,
      "y": 193,
      "size": 1,
      "price": "4683000000000000000000",
      "reserved": "",
      "salt": "0x9c74dbddffa17dcb7dd367426bedae648ddf71e80de64e57101a6020b2a7d4f1",
      "assetIds": []
    },
    {
      "x": 125,
      "y": 194,
      "size": 1,
      "price": "4683000000000000000000",
      "reserved": "",
      "salt": "0x3e0db8ff5e32c9bc21702095fca68f4072adb3eefee25a61b0e3ed8ddeeb7c35",
      "assetIds": []
    },
    {
      "x": 125,
      "y": 195,
      "size": 1,
      "price": "1011000000000000000000",
      "reserved": "",
      "salt": "0xcd940574f4ba35c6b476b3d638aef10c61e2cc796a1a699dc4d8cd7b0e1c1b5a",
      "assetIds": []
    },
    {
      "x": 125,
      "y": 196,
      "size": 1,
      "price": "1011000000000000000000",
      "reserved": "",
      "salt": "0x33e3813889c103dbdbcc277a382b36f55a726c47424c2661fa2af482692dc31d",
      "assetIds": []
    },
    {
      "x": 125,
      "y": 197,
      "size": 1,
      "price": "1011000000000000000000",
      "reserved": "",
      "salt": "0x3e7627a91e7cd25a46357b75e1f928414de0cf09b941e8ad6562d516404ce884",
      "assetIds": []
    },
    {
      "x": 126,
      "y": 177,
      "size": 1,
      "price": "1011000000000000000000",
      "reserved": "",
      "salt": "0xb1ffa41402aecfff6b1d16d7670262a1fc1fda6c78d46a254918c23a87f830c0",
      "assetIds": []
    },
    {
      "x": 126,
      "y": 178,
      "size": 1,
      "price": "1011000000000000000000",
      "reserved": "",
      "salt": "0xce015335ef739d8da185002cc35ef36d54297978d2db69e968c40b342d22137a",
      "assetIds": []
    },
    {
      "x": 126,
      "y": 179,
      "size": 1,
      "price": "1011000000000000000000",
      "reserved": "",
      "salt": "0x2988dc39aecb554bbda338b9e0b4ca4275db74383793eed60e1e4ce6223c82dd",
      "assetIds": []
    },
    {
      "x": 126,
      "y": 186,
      "size": 1,
      "price": "1011000000000000000000",
      "reserved": "",
      "salt": "0x2dd0953c4aab4580bcd314ac96a567fe0024090766534e04d429270a8e7f960a",
      "assetIds": []
    },
    {
      "x": 126,
      "y": 187,
      "size": 1,
      "price": "1011000000000000000000",
      "reserved": "",
      "salt": "0x526edd16c0431e8e75905bf6b8c793646d3e3c9271e93333c5f2f0a2ab1c5447",
      "assetIds": []
    },
    {
      "x": 126,
      "y": 188,
      "size": 1,
      "price": "1011000000000000000000",
      "reserved": "",
      "salt": "0xd5bd9aaaefe8b39af93629b183e1dc49694b6113e0e5c14dafbc3c4e8cafe4a6",
      "assetIds": []
    },
    {
      "x": 126,
      "y": 189,
      "size": 1,
      "price": "1011000000000000000000",
      "reserved": "",
      "salt": "0x9fefcc8f65433844a625bc485561af36515b6ffd04bc3e2352eb3cdf41000457",
      "assetIds": []
    },
    {
      "x": 126,
      "y": 190,
      "size": 1,
      "price": "1011000000000000000000",
      "reserved": "",
      "salt": "0xa90bba35f756b63eb44020e35d90e8f9c4f8360b45d63cfac4f9ef42cee8d733",
      "assetIds": []
    },
    {
      "x": 126,
      "y": 191,
      "size": 1,
      "price": "4683000000000000000000",
      "reserved": "",
      "salt": "0xb96279d8864e136528e3fc402ac5c1720bd8dd54b3010225a8d9c1ada6e9480f",
      "assetIds": []
    },
    {
      "x": 126,
      "y": 195,
      "size": 1,
      "price": "4683000000000000000000",
      "reserved": "",
      "salt": "0x3b9ffa7018f89ba018cdd2c4833bd219e9d9a7c32a95afe21431dea7eb20ffdc",
      "assetIds": []
    },
    {
      "x": 126,
      "y": 196,
      "size": 1,
      "price": "1011000000000000000000",
      "reserved": "",
      "salt": "0xe7f8968b315c824545a64d02b2442fc4c1fb567e712e0328086aed5261192da0",
      "assetIds": []
    },
    {
      "x": 126,
      "y": 197,
      "size": 1,
      "price": "1011000000000000000000",
      "reserved": "",
      "salt": "0x4fe06a41ef52c82161036c485ff80e3b973c6de040a05c4419f404516bec299f",
      "assetIds": []
    },
    {
      "x": 126,
      "y": 198,
      "size": 1,
      "price": "1011000000000000000000",
      "reserved": "",
      "salt": "0xfd745a44485c907be3ee67eb2b5a9cc97fd174f6eba393241e9613061adb51d7",
      "assetIds": []
    },
    {
      "x": 126,
      "y": 199,
      "size": 1,
      "price": "1011000000000000000000",
      "reserved": "",
      "salt": "0x0ce859977ec5c6aeef69827080fd5ef5c773fa504c16af89c40444fdd5d0ce38",
      "assetIds": []
    },
    {
      "x": 126,
      "y": 200,
      "size": 1,
      "price": "1011000000000000000000",
      "reserved": "",
      "salt": "0x2b132acbc92d75fab2c516a393b5edcc1490e06506d6f1dfe53f5cc607707af0",
      "assetIds": []
    },
    {
      "x": 127,
      "y": 177,
      "size": 1,
      "price": "1011000000000000000000",
      "reserved": "",
      "salt": "0x26c7cd32ca920d0c82a297fb0fe26967dd8e22734b9f8c50e6c799ff04d2c1db",
      "assetIds": []
    },
    {
      "x": 127,
      "y": 178,
      "size": 1,
      "price": "1011000000000000000000",
      "reserved": "",
      "salt": "0x5a13ab5d38b61faa6c883c5a94a08af764fe08186e00c7cb45834376b48e448c",
      "assetIds": []
    },
    {
      "x": 127,
      "y": 179,
      "size": 1,
      "price": "1011000000000000000000",
      "reserved": "",
      "salt": "0xa9fa6a94ae8bd6a13290c6c9e1a45f6b98ca839d6c4e6b9afee5cc7d8a2f7353",
      "assetIds": []
    },
    {
      "x": 127,
      "y": 186,
      "size": 1,
      "price": "1011000000000000000000",
      "reserved": "",
      "salt": "0xb370e397395dc688fe94c07ad16bfd98cc15d72045d584527117ddb78ba3f2b5",
      "assetIds": []
    },
    {
      "x": 127,
      "y": 187,
      "size": 1,
      "price": "1011000000000000000000",
      "reserved": "",
      "salt": "0xe62a6e1d520f4f941563b0e2661b5355a5b7df90d9cf40a760ede7bcb79b03ae",
      "assetIds": []
    },
    {
      "x": 127,
      "y": 188,
      "size": 1,
      "price": "1011000000000000000000",
      "reserved": "",
      "salt": "0x944b437b4459c29609ffb50728dcb2d6a82d07680a1339e13fb38cd664ede93f",
      "assetIds": []
    },
    {
      "x": 127,
      "y": 189,
      "size": 1,
      "price": "1011000000000000000000",
      "reserved": "",
      "salt": "0xd266701b0fff545a81ac5aa9f101d872023fc495756b3b93bd63c85b0d12d8e7",
      "assetIds": []
    },
    {
      "x": 127,
      "y": 190,
      "size": 1,
      "price": "1011000000000000000000",
      "reserved": "",
      "salt": "0x1ae4dd08255ad58203cd54a9dac723b9c2975fec1c5b2a3f4384e163ae231184",
      "assetIds": []
    },
    {
      "x": 127,
      "y": 191,
      "size": 1,
      "price": "4683000000000000000000",
      "reserved": "",
      "salt": "0x57923cd9bd0bc0df333597c14ea6795b43718d4e2bcc1913b22305546f389255",
      "assetIds": []
    },
    {
      "x": 127,
      "y": 195,
      "size": 1,
      "price": "1011000000000000000000",
      "reserved": "",
      "salt": "0x24dd42598eeb099a809704db1005f3f64a8dd9c6a8964af7adde690b2df805ed",
      "assetIds": []
    },
    {
      "x": 127,
      "y": 196,
      "size": 1,
      "price": "1011000000000000000000",
      "reserved": "",
      "salt": "0x012dd8d36ee608bd5e0dca0ef3767066199f95a7c14352e0de704b07a2eef0c2",
      "assetIds": []
    },
    {
      "x": 127,
      "y": 197,
      "size": 1,
      "price": "1011000000000000000000",
      "reserved": "",
      "salt": "0xad64dc8fe4e0b70e536869c3f1c1072e2b268b1f8c07dad37241e89adbdea9dd",
      "assetIds": []
    },
    {
      "x": 127,
      "y": 198,
      "size": 1,
      "price": "1011000000000000000000",
      "reserved": "",
      "salt": "0x2d36fa01db724dec7c6aaf4559316b3fa4362a4ff55b2ed615aea9fd2cd79fcf",
      "assetIds": []
    },
    {
      "x": 127,
      "y": 199,
      "size": 1,
      "price": "1011000000000000000000",
      "reserved": "",
      "salt": "0xafec0bdb92b670a1bb0799c83d9e22b86ed0cc06fc4dbbfd505b8eb316035b43",
      "assetIds": []
    },
    {
      "x": 127,
      "y": 200,
      "size": 1,
      "price": "1011000000000000000000",
      "reserved": "",
      "salt": "0xf9c8c73a3d57f59357e3dc924388c8e3d88e623bee671e82953e200494cb3bbd",
      "assetIds": []
    },
    {
      "x": 128,
      "y": 177,
      "size": 1,
      "price": "1011000000000000000000",
      "reserved": "",
      "salt": "0xc8b5e13e23c8335ea6fa520890ee373f1e95158d8685e5605abcff15bbb9c300",
      "assetIds": []
    },
    {
      "x": 128,
      "y": 178,
      "size": 1,
      "price": "1011000000000000000000",
      "reserved": "",
      "salt": "0x955f024da2307dc4b52d3d08a3039ea5de7cc2d5531b41d9cfa77d1426f824ee",
      "assetIds": []
    },
    {
      "x": 128,
      "y": 179,
      "size": 1,
      "price": "1011000000000000000000",
      "reserved": "",
      "salt": "0xd807fad51caa79df5fde6a1e19dcd7d7e798bbd2bd91065f4dc85e59d5581f91",
      "assetIds": []
    },
    {
      "x": 128,
      "y": 186,
      "size": 1,
      "price": "1011000000000000000000",
      "reserved": "",
      "salt": "0x2d911f38f5f7e61d3808b212808baa99867fa27e1ae102d42561dac4c8bff052",
      "assetIds": []
    },
    {
      "x": 128,
      "y": 187,
      "size": 1,
      "price": "1011000000000000000000",
      "reserved": "",
      "salt": "0xcd135586b701b81e5d9e8e0777b33863e74cf0463843993d1c45499451f399a8",
      "assetIds": []
    },
    {
      "x": 128,
      "y": 188,
      "size": 1,
      "price": "1011000000000000000000",
      "reserved": "0x7a9fe22691c811ea339d9b73150e6911a5343dca",
      "salt": "0xaf89366f935859a1f1c24ffe23eca23ea994553f7c1d68dd772873a14a4e6be8",
      "assetIds": []
    },
    {
      "x": 128,
      "y": 189,
      "size": 1,
      "price": "1011000000000000000000",
      "reserved": "",
      "salt": "0x95772363bf4970324feffae263d884b5d903ccc8979c386d32e6df1822c27d5e",
      "assetIds": []
    },
    {
      "x": 128,
      "y": 190,
      "size": 1,
      "price": "1011000000000000000000",
      "reserved": "",
      "salt": "0x72a6dcaad18ba2075466b20d5cfa2aa4b5fe54851990ed3ad1252487315c17c5",
      "assetIds": []
    },
    {
      "x": 128,
      "y": 191,
      "size": 1,
      "price": "4683000000000000000000",
      "reserved": "",
      "salt": "0xae66043a600a8e499211c179bebf3e50e0a13f51a90adce7adab9bd37cab28dc",
      "assetIds": []
    },
    {
      "x": 128,
      "y": 195,
      "size": 1,
      "price": "4683000000000000000000",
      "reserved": "",
      "salt": "0x0fac10dcec3f2390a0fe88d42130cbc0c6d250c439f1eaeffe4dbed19e10e1bc",
      "assetIds": []
    },
    {
      "x": 128,
      "y": 196,
      "size": 1,
      "price": "1011000000000000000000",
      "reserved": "",
      "salt": "0x291de4edd42583be6cf0823ecf140e7e95bb481dabc7d38c675457efd27168aa",
      "assetIds": []
    },
    {
      "x": 128,
      "y": 197,
      "size": 1,
      "price": "1011000000000000000000",
      "reserved": "",
      "salt": "0xfcfa8c2b92cab2178f126cf862640de08658545fbca7b77b56ffa372ce592b2d",
      "assetIds": []
    },
    {
      "x": 128,
      "y": 198,
      "size": 1,
      "price": "1011000000000000000000",
      "reserved": "",
      "salt": "0x7de0a0b3207ede6943faae4710d0aa493104d66a0e513e32885e08b942a8bf7a",
      "assetIds": []
    },
    {
      "x": 128,
      "y": 199,
      "size": 1,
      "price": "1011000000000000000000",
      "reserved": "",
      "salt": "0x226b027ac1bad79bb96fd4ed15e068486decd6372c7e9010c942da0a1df7305f",
      "assetIds": []
    },
    {
      "x": 128,
      "y": 200,
      "size": 1,
      "price": "1011000000000000000000",
      "reserved": "",
      "salt": "0xbf62ec3fdea66f77b79aaf14ccde1823a6f3d1319aec601d6cc96ff8f07889ed",
      "assetIds": []
    },
    {
      "x": 129,
      "y": 177,
      "size": 1,
      "price": "1011000000000000000000",
      "reserved": "",
      "salt": "0x36a416281b5487326122b72787030e0b8ef65c57b2bb46f312020766d507f1ae",
      "assetIds": []
    },
    {
      "x": 129,
      "y": 178,
      "size": 1,
      "price": "1011000000000000000000",
      "reserved": "",
      "salt": "0x4e533590f78b4393772e13ec9c36ff81f1e2540f293392a88dff70d99f1540e8",
      "assetIds": []
    },
    {
      "x": 129,
      "y": 179,
      "size": 1,
      "price": "1011000000000000000000",
      "reserved": "",
      "salt": "0x9d53bd0e3efbed15508a9560ccf0501ef32cf05c99923407e65b46123b02495b",
      "assetIds": []
    },
    {
      "x": 129,
      "y": 180,
      "size": 1,
      "price": "1011000000000000000000",
      "reserved": "",
      "salt": "0x60e6ddc5322a0dc9ba09bb4e98b4b72a8df8612bc9cf27427b34489365b50b1d",
      "assetIds": []
    },
    {
      "x": 129,
      "y": 181,
      "size": 1,
      "price": "1011000000000000000000",
      "reserved": "",
      "salt": "0x18d34a3d49b24d995b1e97150893d5e78166065cee17f24d03f3d63a1259835b",
      "assetIds": []
    },
    {
      "x": 129,
      "y": 182,
      "size": 1,
      "price": "1011000000000000000000",
      "reserved": "",
      "salt": "0xfd7218c43d8df2391cb895555403e1528b9ab1d8bb0da60fbc375f51d96609d6",
      "assetIds": []
    },
    {
      "x": 129,
      "y": 183,
      "size": 1,
      "price": "1011000000000000000000",
      "reserved": "",
      "salt": "0x5ccc39e020a07a5f083610b117e4361d2115063bc27c984b3e1fcde568504bb6",
      "assetIds": []
    },
    {
      "x": 129,
      "y": 184,
      "size": 1,
      "price": "1011000000000000000000",
      "reserved": "",
      "salt": "0x694fc23686e180dd5cf2c23b9701b1733affc2aa7b7bb2ea9ff27bbe0b8ae75a",
      "assetIds": []
    },
    {
      "x": 129,
      "y": 185,
      "size": 1,
      "price": "1011000000000000000000",
      "reserved": "",
      "salt": "0x52977734cbfd55ef300b3427755a8154b263596e03d05a37107e2c4394c76752",
      "assetIds": []
    },
    {
      "x": 129,
      "y": 189,
      "size": 1,
      "price": "1011000000000000000000",
      "reserved": "",
      "salt": "0xdc90526727cae3ae966755951cdcec882b7a5a174271584180fe6100ece8f2b7",
      "assetIds": []
    },
    {
      "x": 129,
      "y": 190,
      "size": 1,
      "price": "1011000000000000000000",
      "reserved": "",
      "salt": "0x3b8fbf2de39b547a59e38d1fb5c950d992cce1c5d47086948ff0348ceb6043a0",
      "assetIds": []
    },
    {
      "x": 129,
      "y": 191,
      "size": 1,
      "price": "1011000000000000000000",
      "reserved": "",
      "salt": "0xd6968de3e76114102072002a3be691fcb71fd3fd66bb2d7eeaeab9cfe15998eb",
      "assetIds": []
    },
    {
      "x": 129,
      "y": 195,
      "size": 1,
      "price": "1011000000000000000000",
      "reserved": "",
      "salt": "0xb01696a450aa61d034335487eb4bf8bb26bba55daa9751d0a3fe886cbc3626ac",
      "assetIds": []
    },
    {
      "x": 129,
      "y": 196,
      "size": 1,
      "price": "1011000000000000000000",
      "reserved": "",
      "salt": "0x3ac6ab5639fb5f414a2058a29f25d8c4235da9995830167be5fa2df314e9773d",
      "assetIds": []
    },
    {
      "x": 129,
      "y": 197,
      "size": 1,
      "price": "1011000000000000000000",
      "reserved": "",
      "salt": "0xe3ed6302a12d20c02753d9b766d2ba394d94bec6a718f9d69c531bc1d6ff5d70",
      "assetIds": []
    },
    {
      "x": 129,
      "y": 198,
      "size": 1,
      "price": "1011000000000000000000",
      "reserved": "0x7a9fe22691c811ea339d9b73150e6911a5343dca",
      "salt": "0xfa77cee68b329d8e449fd0bac1a942c7a1e4b7042bb199f6176e929c70984ede",
      "assetIds": []
    },
    {
      "x": 129,
      "y": 199,
      "size": 1,
      "price": "1011000000000000000000",
      "reserved": "",
      "salt": "0x4bceda3a8476922c937b6ca343b896f85e74bfda62a4f76f153d784d746c9563",
      "assetIds": []
    },
    {
      "x": 129,
      "y": 200,
      "size": 1,
      "price": "1011000000000000000000",
      "reserved": "",
      "salt": "0xa01581b73cda2cdf2fe9c143890ea9b5218066ecc31e170b5b13dcb38969c2d0",
      "assetIds": []
    },
    {
      "x": 130,
      "y": 177,
      "size": 1,
      "price": "1011000000000000000000",
      "reserved": "",
      "salt": "0x417e289d09904ce62029719b43136d1e36fa8f533cdec1da8987327009512481",
      "assetIds": []
    },
    {
      "x": 130,
      "y": 178,
      "size": 1,
      "price": "1011000000000000000000",
      "reserved": "",
      "salt": "0x1506fb94ad9e411ef78f02d91c1a05efb41dd7345032dd8939bb6c18cca04933",
      "assetIds": []
    },
    {
      "x": 130,
      "y": 179,
      "size": 1,
      "price": "1011000000000000000000",
      "reserved": "",
      "salt": "0xa85bd44ede30068567326aaa41547fba6a87fdc0371c78b98e4b1f8d89550d37",
      "assetIds": []
    },
    {
      "x": 130,
      "y": 180,
      "size": 1,
      "price": "1011000000000000000000",
      "reserved": "",
      "salt": "0x95001716de1bd7cc71489299fd886ee1d229d936956180dcb3048c0179bee12e",
      "assetIds": []
    },
    {
      "x": 130,
      "y": 181,
      "size": 1,
      "price": "1011000000000000000000",
      "reserved": "",
      "salt": "0xac200902149ef855c1f8e6068bc5373482b15011b7268be813522fa2f8c17eb1",
      "assetIds": []
    },
    {
      "x": 130,
      "y": 182,
      "size": 1,
      "price": "1011000000000000000000",
      "reserved": "",
      "salt": "0xb4a9fc7b93c7be281917957e214db888c6ae229e5fce9822f2f142fedfed0fb0",
      "assetIds": []
    },
    {
      "x": 130,
      "y": 183,
      "size": 1,
      "price": "1011000000000000000000",
      "reserved": "",
      "salt": "0x46573b7aaf1e94ce6a4daae9aaa5966a87133eff82ec6d59c966159198589ec9",
      "assetIds": []
    },
    {
      "x": 130,
      "y": 184,
      "size": 1,
      "price": "1011000000000000000000",
      "reserved": "",
      "salt": "0xcda5b5eb903da20a73565fc9f03684de4e33f252a846452702ee701a26115f85",
      "assetIds": []
    },
    {
      "x": 130,
      "y": 185,
      "size": 1,
      "price": "1011000000000000000000",
      "reserved": "",
      "salt": "0xe05747ab4866bf8fdba28d56dd5efc72882509eb80167bec7aafb597f1eab456",
      "assetIds": []
    },
    {
      "x": 130,
      "y": 189,
      "size": 1,
      "price": "1011000000000000000000",
      "reserved": "",
      "salt": "0x190032b6b3871efc396f8f6e0b2de79572ccb45202d5c3b4cc8206c81f6b76c7",
      "assetIds": []
    },
    {
      "x": 130,
      "y": 190,
      "size": 1,
      "price": "1011000000000000000000",
      "reserved": "",
      "salt": "0xb9a13a6055020155aa19c86b395110b63bbfe5d859afc10db5d6bf6e982fd0a1",
      "assetIds": []
    },
    {
      "x": 130,
      "y": 191,
      "size": 1,
      "price": "1011000000000000000000",
      "reserved": "",
      "salt": "0xa70af72862fabe2611ef9a10f8b43188cca1c2992fae90f2f7ce2f5e447af883",
      "assetIds": []
    },
    {
      "x": 130,
      "y": 195,
      "size": 1,
      "price": "1011000000000000000000",
      "reserved": "",
      "salt": "0xb2c1f49eef888e15b49ac2cb40336891bf333f3bd8afa6a3004d25ff1cc13b88",
      "assetIds": []
    },
    {
      "x": 130,
      "y": 196,
      "size": 1,
      "price": "1011000000000000000000",
      "reserved": "",
      "salt": "0x12899d99e274791330339433bebef2994d2632d9e7d7b3501a9444aec4905dd3",
      "assetIds": []
    },
    {
      "x": 130,
      "y": 197,
      "size": 1,
      "price": "1011000000000000000000",
      "reserved": "",
      "salt": "0xf5caa3fe691e4f818a2c631bcf5d5b0da67334224d9abbf6472527b040a9dd95",
      "assetIds": []
    },
    {
      "x": 130,
      "y": 198,
      "size": 1,
      "price": "1011000000000000000000",
      "reserved": "",
      "salt": "0xcd0874146f9bd1db72e7fd1abcf0bebe03fa4a5d13e06fda2f117fa67344de8c",
      "assetIds": []
    },
    {
      "x": 130,
      "y": 199,
      "size": 1,
      "price": "1011000000000000000000",
      "reserved": "",
      "salt": "0x48ae9d1b8eb4470482b722a45d2b6ae994e9f6b24be4269f78e99fd990fdde1d",
      "assetIds": []
    },
    {
      "x": 130,
      "y": 200,
      "size": 1,
      "price": "1011000000000000000000",
      "reserved": "",
      "salt": "0x5ba4e9eff39ff9be36945b806cfa131f5da41874ac88514238e1d8fa56ec1725",
      "assetIds": []
    },
    {
      "x": 131,
      "y": 177,
      "size": 1,
      "price": "1011000000000000000000",
      "reserved": "",
      "salt": "0xecf8985a0ba483fd3617014c88e5fc03e3de6a780a23602fe748609feca53760",
      "assetIds": []
    },
    {
      "x": 131,
      "y": 178,
      "size": 1,
      "price": "1011000000000000000000",
      "reserved": "",
      "salt": "0xc499d4028c307bffbf04c90e9e36081d03d8578243796140575d4c25f3a0b7f1",
      "assetIds": []
    },
    {
      "x": 131,
      "y": 179,
      "size": 1,
      "price": "1011000000000000000000",
      "reserved": "",
      "salt": "0x8afd3186e5cb725c76e57a507af435b5da5f84bb82f7cc8bb39c7ae140ea8f1f",
      "assetIds": []
    },
    {
      "x": 131,
      "y": 180,
      "size": 1,
      "price": "4683000000000000000000",
      "reserved": "",
      "salt": "0x98f797dc34dad664917f72ed65cc60fc24813274c36c3b4a303687089ce7a784",
      "assetIds": []
    },
    {
      "x": 131,
      "y": 181,
      "size": 1,
      "price": "4683000000000000000000",
      "reserved": "",
      "salt": "0x87ddde3376728a693d695bf11ee17c9782a7aaa6d9b7a4fa305119098f8c7209",
      "assetIds": []
    },
    {
      "x": 131,
      "y": 182,
      "size": 1,
      "price": "4683000000000000000000",
      "reserved": "",
      "salt": "0x80319dcb8a9fac993d6a44b712b282c95c89b46973271c6b7c5ee668313201f5",
      "assetIds": []
    },
    {
      "x": 131,
      "y": 183,
      "size": 1,
      "price": "1011000000000000000000",
      "reserved": "",
      "salt": "0x131fa8f5eb3b9d4287f29fd8ca875ed373395fb862f7d1ee589784399cd166dd",
      "assetIds": []
    },
    {
      "x": 131,
      "y": 184,
      "size": 1,
      "price": "4683000000000000000000",
      "reserved": "",
      "salt": "0x26c50cfcd2afe345ec88908a45c1b4b10b6ced23f40a5a07fcda68622a39c20e",
      "assetIds": []
    },
    {
      "x": 131,
      "y": 185,
      "size": 1,
      "price": "4683000000000000000000",
      "reserved": "",
      "salt": "0x61cce6edbebee2f8e9a52129807cd6cde90bb95d31c0ae876c2ff7ff4ec61ca6",
      "assetIds": []
    },
    {
      "x": 131,
      "y": 189,
      "size": 1,
      "price": "1011000000000000000000",
      "reserved": "",
      "salt": "0x9099f57a061f6c9749ac6dfd08081f7180bc559e94d54d59c56dc382eaeb64c9",
      "assetIds": []
    },
    {
      "x": 131,
      "y": 190,
      "size": 1,
      "price": "1011000000000000000000",
      "reserved": "",
      "salt": "0x4263c09c50172074be63564b1d563633685dd1c2f490d7674c9af028b1843a50",
      "assetIds": []
    },
    {
      "x": 131,
      "y": 191,
      "size": 1,
      "price": "1011000000000000000000",
      "reserved": "",
      "salt": "0x092acd565d84aa56e9fd7c2e3f4900f81e1b7a1808c849fbb28fd85084ae1578",
      "assetIds": []
    },
    {
      "x": 131,
      "y": 195,
      "size": 1,
      "price": "4683000000000000000000",
      "reserved": "",
      "salt": "0xa152dd754a3b17b4479064f3288b3ed6f26dcccb53be6d97936db101d15b1d47",
      "assetIds": []
    },
    {
      "x": 131,
      "y": 196,
      "size": 1,
      "price": "4683000000000000000000",
      "reserved": "",
      "salt": "0x9538638dd0e1d34109c00d43615d39bacaf5c88a115b675136b29fb8d461e105",
      "assetIds": []
    },
    {
      "x": 131,
      "y": 197,
      "size": 1,
      "price": "4683000000000000000000",
      "reserved": "",
      "salt": "0x92795d68625bbb872d93c422cfce071db5f57fd6cf9684ae8beb1760a7c6690c",
      "assetIds": []
    },
    {
      "x": 131,
      "y": 198,
      "size": 1,
      "price": "1011000000000000000000",
      "reserved": "",
      "salt": "0xde59c9ed3f838b606c59d537adbdbe91c6fb9804b78e336057f8f20822893648",
      "assetIds": []
    },
    {
      "x": 131,
      "y": 199,
      "size": 1,
      "price": "1011000000000000000000",
      "reserved": "",
      "salt": "0x806716e5cf739082e9c64303ac6d32c987b4cd5cb14b1c8900aa050bada21e9a",
      "assetIds": []
    },
    {
      "x": 131,
      "y": 200,
      "size": 1,
      "price": "1011000000000000000000",
      "reserved": "",
      "salt": "0xb801fbaa2a6ad4cc501c522bfc9a841c5db7af5a9de57e59e0a13e3d08618c35",
      "assetIds": []
    },
    {
      "x": 132,
      "y": 177,
      "size": 1,
      "price": "1011000000000000000000",
      "reserved": "",
      "salt": "0x149bd246e5b1ffd915d3affbdf6773ee02c6667a9e9027422fdf9dfc61ef65fb",
      "assetIds": []
    },
    {
      "x": 132,
      "y": 178,
      "size": 1,
      "price": "1011000000000000000000",
      "reserved": "",
      "salt": "0x8ce6307579ae19b1ca0e0d87b1cb9bc69fc39b7d273c6067961a31870a7a1cb7",
      "assetIds": []
    },
    {
      "x": 132,
      "y": 179,
      "size": 1,
      "price": "4683000000000000000000",
      "reserved": "",
      "salt": "0x9d83cd97fcc4ab5d698597b5198d99f30e09187ec22a21d2f65a55056b1a664c",
      "assetIds": []
    },
    {
      "x": 132,
      "y": 189,
      "size": 1,
      "price": "1011000000000000000000",
      "reserved": "",
      "salt": "0x609e9ac242578f3efdaf58a9e07a803628f324b46ee843eaecd76479ad7711c0",
      "assetIds": []
    },
    {
      "x": 132,
      "y": 190,
      "size": 1,
      "price": "1011000000000000000000",
      "reserved": "",
      "salt": "0x8b5fabbee497e7880a55cfc1634585a12570136a2522c028c4f98485eff0afec",
      "assetIds": []
    },
    {
      "x": 132,
      "y": 191,
      "size": 1,
      "price": "1011000000000000000000",
      "reserved": "",
      "salt": "0x640854b2d0036bdc3b73378fab2092dbb9e5753462be5a280124b50c19cf0e8e",
      "assetIds": []
    },
    {
      "x": 132,
      "y": 192,
      "size": 1,
      "price": "1011000000000000000000",
      "reserved": "",
      "salt": "0x3522baef53ade63382598b9d8ba4eb67d51c68fda62726a76d3bdacbea5e3033",
      "assetIds": []
    },
    {
      "x": 132,
      "y": 193,
      "size": 1,
      "price": "1011000000000000000000",
      "reserved": "",
      "salt": "0x59f5c88290389309c1f28413fd2a2a727f1fe846e4915822d766948d40f84174",
      "assetIds": []
    },
    {
      "x": 132,
      "y": 194,
      "size": 1,
      "price": "4683000000000000000000",
      "reserved": "",
      "salt": "0x2d9e723e73ad0193164b143923b90b06c5c2f44a3b03cb31d1646ec9cbd8418f",
      "assetIds": []
    },
    {
      "x": 132,
      "y": 198,
      "size": 1,
      "price": "4683000000000000000000",
      "reserved": "",
      "salt": "0xe9b7b3851c30ce099058885890a39e3103d763a84c4ed93fcf4ba7c75fbf06e7",
      "assetIds": []
    },
    {
      "x": 132,
      "y": 199,
      "size": 1,
      "price": "1011000000000000000000",
      "reserved": "",
      "salt": "0x067bb09f8e0cf14979175bcb3f3f4eba93be38e34542e50d69c1767402525c6c",
      "assetIds": []
    },
    {
      "x": 132,
      "y": 200,
      "size": 1,
      "price": "1011000000000000000000",
      "reserved": "",
      "salt": "0xaee090e3959016e8ca0b7950b80a400e145df5a6b086e152f979d6e46a4d3f43",
      "assetIds": []
    },
    {
      "x": 133,
      "y": 177,
      "size": 1,
      "price": "1011000000000000000000",
      "reserved": "",
      "salt": "0x2131e7ce8e5619bcd84674054bb65e020dabf0e55bfa3387fcd48aacf5e05ad1",
      "assetIds": []
    },
    {
      "x": 133,
      "y": 178,
      "size": 1,
      "price": "1011000000000000000000",
      "reserved": "",
      "salt": "0x727f6dc835846cde679d0404b451c4fb7cb39d949d47de6ffd9bb44d0070bc3e",
      "assetIds": []
    },
    {
      "x": 133,
      "y": 179,
      "size": 1,
      "price": "4683000000000000000000",
      "reserved": "",
      "salt": "0x0beedd417b8df0aeae89d289dd98141929588012bf5b0d4400c64c70453511a5",
      "assetIds": []
    },
    {
      "x": 133,
      "y": 189,
      "size": 1,
      "price": "1011000000000000000000",
      "reserved": "",
      "salt": "0x9c17443dc5b74ce6352e0067813d1f4fc9f7d0e423dfedbe2206c43f426793c9",
      "assetIds": []
    },
    {
      "x": 133,
      "y": 190,
      "size": 1,
      "price": "1011000000000000000000",
      "reserved": "",
      "salt": "0xe8b82f1aafc110f6fb99ce689c5c077270b8fa710b39ce3d38e71c77a6e064de",
      "assetIds": []
    },
    {
      "x": 133,
      "y": 191,
      "size": 1,
      "price": "1011000000000000000000",
      "reserved": "",
      "salt": "0x03ab0162bdf820e409d675fabc2d5b0d35923871923300fe4959fca7d8e0f9a0",
      "assetIds": []
    },
    {
      "x": 133,
      "y": 192,
      "size": 1,
      "price": "1011000000000000000000",
      "reserved": "",
      "salt": "0x28b8c19cfc19012c1e3221747ceb52fd1b2799ff396362463a2dce9971a76492",
      "assetIds": []
    },
    {
      "x": 133,
      "y": 193,
      "size": 1,
      "price": "1011000000000000000000",
      "reserved": "",
      "salt": "0x1a9ad6786234dbdeb8a9a5ddd10617d0d25ea556eef039092240ceaafeb2a9cd",
      "assetIds": []
    },
    {
      "x": 133,
      "y": 194,
      "size": 1,
      "price": "4683000000000000000000",
      "reserved": "",
      "salt": "0x826325f8d67dd5b2b2a1909be457754301101c065469a272034553f6c5f70ace",
      "assetIds": []
    },
    {
      "x": 133,
      "y": 198,
      "size": 1,
      "price": "1011000000000000000000",
      "reserved": "",
      "salt": "0xc205b67fa4eade49eab80456b224b672f7082c209f0c39b2bd837369c88f6c58",
      "assetIds": []
    },
    {
      "x": 133,
      "y": 199,
      "size": 1,
      "price": "1011000000000000000000",
      "reserved": "",
      "salt": "0x7d7ca96f67d3411fedb8f5dacee977c4f096219f8ed114787a3215661e22347e",
      "assetIds": []
    },
    {
      "x": 133,
      "y": 200,
      "size": 1,
      "price": "1011000000000000000000",
      "reserved": "",
      "salt": "0x95e4005af3646de420e5480bc465188ba6080789fa45300b400dce94e5fd8b88",
      "assetIds": []
    },
    {
      "x": 134,
      "y": 177,
      "size": 1,
      "price": "1011000000000000000000",
      "reserved": "",
      "salt": "0x8ba9e406482f4cc639aa117c206a87057e51643b710fe3b279ce1a11b3bf7e02",
      "assetIds": []
    },
    {
      "x": 134,
      "y": 178,
      "size": 1,
      "price": "1011000000000000000000",
      "reserved": "",
      "salt": "0x39bbfca5dee15618273f759cde2036e19eb4c02f691ca04ca66c78fda1be4c32",
      "assetIds": []
    },
    {
      "x": 134,
      "y": 179,
      "size": 1,
      "price": "4683000000000000000000",
      "reserved": "",
      "salt": "0x81855f24033d8ab2a2f984bede6cafa9a9678bb20fa3a283186450c2958986a6",
      "assetIds": []
    },
    {
      "x": 134,
      "y": 189,
      "size": 1,
      "price": "4683000000000000000000",
      "reserved": "",
      "salt": "0xb9e367a1a783c5df15cdb8a9d0464e24800c86be94ac8e138ccae136e25c2331",
      "assetIds": []
    },
    {
      "x": 134,
      "y": 190,
      "size": 1,
      "price": "1011000000000000000000",
      "reserved": "",
      "salt": "0x869e0ea61cf31c04e8f5684ba16fabd4d6cc44f53192e30812aa85cce5ed2bfd",
      "assetIds": []
    },
    {
      "x": 134,
      "y": 191,
      "size": 1,
      "price": "4683000000000000000000",
      "reserved": "",
      "salt": "0xba6eaa7664bbe2f5c7af6af4c50d017dfe9622bf30701ce871c7048a67b5c3f2",
      "assetIds": []
    },
    {
      "x": 134,
      "y": 192,
      "size": 1,
      "price": "1011000000000000000000",
      "reserved": "",
      "salt": "0x9034b6512798459c65678ac34ef42cc46598667d2070853f89d4081b4e9923ba",
      "assetIds": []
    },
    {
      "x": 134,
      "y": 193,
      "size": 1,
      "price": "1011000000000000000000",
      "reserved": "",
      "salt": "0x270c3cc9720fd808d785fea50bbc53105c57224f03c45c819db6cd3255634c79",
      "assetIds": []
    },
    {
      "x": 134,
      "y": 194,
      "size": 1,
      "price": "4683000000000000000000",
      "reserved": "",
      "salt": "0x3f3b7c49e199cbee7fef8d3a83a66b8130e09cea6d632d2acbdd41bbdb6e1d60",
      "assetIds": []
    },
    {
      "x": 134,
      "y": 198,
      "size": 1,
      "price": "4683000000000000000000",
      "reserved": "",
      "salt": "0xa273a4cb7acb97dd2512307bc12db8da79edbe1aecfbbab5064552ff79b3a8a3",
      "assetIds": []
    },
    {
      "x": 134,
      "y": 199,
      "size": 1,
      "price": "1011000000000000000000",
      "reserved": "",
      "salt": "0xfb9942646a2732c346fbe30afce6094f1f1933ab348d0c0472460f122688c51e",
      "assetIds": []
    },
    {
      "x": 134,
      "y": 200,
      "size": 1,
      "price": "1011000000000000000000",
      "reserved": "",
      "salt": "0x325e21565cdd82ca78477c36c28c913ffa87b38f65788d3ff3e68d6e3ad78b1c",
      "assetIds": []
    },
    {
      "x": 135,
      "y": 177,
      "size": 1,
      "price": "1011000000000000000000",
      "reserved": "",
      "salt": "0xeb1de568bd2b9ff515e481689c7ad1782bb44035a2e4ad890713914383d047c1",
      "assetIds": []
    },
    {
      "x": 135,
      "y": 178,
      "size": 1,
      "price": "1011000000000000000000",
      "reserved": "",
      "salt": "0x9980f857ed233574ce44a643457b1cb6eb5e1b9d519d467447d6c6002bac0e0c",
      "assetIds": []
    },
    {
      "x": 135,
      "y": 179,
      "size": 1,
      "price": "1011000000000000000000",
      "reserved": "",
      "salt": "0x94ab1bbf54c4265ebde4636344d44e00cc38d9d680b9a74432ecadad85b6e4de",
      "assetIds": []
    },
    {
      "x": 135,
      "y": 186,
      "size": 1,
      "price": "4683000000000000000000",
      "reserved": "",
      "salt": "0x1b82b872ce08ddb698e897b26450e0cadc50bff25699d3b33757ee777f01c6e5",
      "assetIds": []
    },
    {
      "x": 135,
      "y": 187,
      "size": 1,
      "price": "1011000000000000000000",
      "reserved": "",
      "salt": "0xbc493ab22516fc3995cb4cba26f1a8c51da2142772f827865bba71864e4f47e9",
      "assetIds": []
    },
    {
      "x": 135,
      "y": 188,
      "size": 1,
      "price": "4683000000000000000000",
      "reserved": "",
      "salt": "0xc5c3303fdb97e860d161fd5258cf55aa6d128ba1f2850f9be2248e003d2632a1",
      "assetIds": []
    },
    {
      "x": 135,
      "y": 195,
      "size": 1,
      "price": "4683000000000000000000",
      "reserved": "",
      "salt": "0x9848583c6b119af4b899c202ab9da136cd3f00bd00d0144e9072c2b15a529a82",
      "assetIds": []
    },
    {
      "x": 135,
      "y": 196,
      "size": 1,
      "price": "4683000000000000000000",
      "reserved": "",
      "salt": "0x3a1e87736318a1e4105dbc1e759a5a3dc256fff4e72c781122d5b4d82d517085",
      "assetIds": []
    },
    {
      "x": 135,
      "y": 197,
      "size": 1,
      "price": "4683000000000000000000",
      "reserved": "",
      "salt": "0x7d0dde279add17a78318451483399fe158167e72f9fbe1d47af6b8ed9e22952a",
      "assetIds": []
    },
    {
      "x": 136,
      "y": 177,
      "size": 1,
      "price": "1011000000000000000000",
      "reserved": "",
      "salt": "0x8b153b9f932efa7340f0f99340b1865196344144418274e1cb9d47724d6b67b2",
      "assetIds": []
    },
    {
      "x": 136,
      "y": 178,
      "size": 1,
      "price": "1011000000000000000000",
      "reserved": "",
      "salt": "0x4070dd85e469c13578c919d9b333bd7c723ad24eec20cdd4098ef065524fb8cf",
      "assetIds": []
    },
    {
      "x": 136,
      "y": 179,
      "size": 1,
      "price": "4683000000000000000000",
      "reserved": "",
      "salt": "0x85c5f16b1071ae6749627beab0f709ae1e18df3d4375896f71c1e2326dd97e71",
      "assetIds": []
    },
    {
      "x": 136,
      "y": 186,
      "size": 1,
      "price": "4683000000000000000000",
      "reserved": "",
      "salt": "0x6889dae10e431e23d12a8de646e50de44761a1c688d390a6e21ae98844cb0723",
      "assetIds": []
    },
    {
      "x": 136,
      "y": 187,
      "size": 1,
      "price": "1011000000000000000000",
      "reserved": "",
      "salt": "0x8dffc1dab172e7ddc78337748e8cc95adcd3c445eaad69fe7b431e773daa1193",
      "assetIds": []
    },
    {
      "x": 136,
      "y": 188,
      "size": 1,
      "price": "1011000000000000000000",
      "reserved": "",
      "salt": "0x48491fb14a381ee74db1471c9ffe7668110383102b2afabd5cf8c41ee7cb61cc",
      "assetIds": []
    },
    {
      "x": 136,
      "y": 195,
      "size": 1,
      "price": "1011000000000000000000",
      "reserved": "",
      "salt": "0x2fb2cd2582306643cdc845a543f1fbd277cbe74e9924ffb80b4ddb0f4d02fed8",
      "assetIds": []
    },
    {
      "x": 136,
      "y": 196,
      "size": 1,
      "price": "1011000000000000000000",
      "reserved": "",
      "salt": "0xb1f160aa75ff58729c3d64067e8e1995b8a0a7109ecc07f68b3ae24238737702",
      "assetIds": []
    },
    {
      "x": 136,
      "y": 197,
      "size": 1,
      "price": "1011000000000000000000",
      "reserved": "",
      "salt": "0x449459abca2d621f41cd2b1097802285ae74f41e02ccdf5c3601b892783256fa",
      "assetIds": []
    },
    {
      "x": 137,
      "y": 177,
      "size": 1,
      "price": "1011000000000000000000",
      "reserved": "",
      "salt": "0xb73decb46c77932cd65dc1a4840d6e07bb1338505cba90830e162c2cfaaab448",
      "assetIds": []
    },
    {
      "x": 137,
      "y": 178,
      "size": 1,
      "price": "1011000000000000000000",
      "reserved": "",
      "salt": "0x31546d1610ada7f2fe5bc80c9c560e8cf02813e253f1df23f5cf868f19101785",
      "assetIds": []
    },
    {
      "x": 137,
      "y": 179,
      "size": 1,
      "price": "4683000000000000000000",
      "reserved": "",
      "salt": "0x0b95f2e515433bd7f3175729b8ed007fce749c682d659c427de98dd952cc0896",
      "assetIds": []
    },
    {
      "x": 137,
      "y": 186,
      "size": 1,
      "price": "4683000000000000000000",
      "reserved": "",
      "salt": "0x77eb4d893fc9b167feee00571f9521508c867e328f009b05d1940e8282dd539c",
      "assetIds": []
    },
    {
      "x": 137,
      "y": 187,
      "size": 1,
      "price": "1011000000000000000000",
      "reserved": "",
      "salt": "0x54c5607be1c67f6742078c95ffbb02cd9ff94e481c7a52b44fb39cb152a42ed9",
      "assetIds": []
    },
    {
      "x": 137,
      "y": 188,
      "size": 1,
      "price": "4683000000000000000000",
      "reserved": "",
      "salt": "0x297ed36a20cecd0fb2b7e05be3c99e44671a4549a6ab6959b9488bcefd99b856",
      "assetIds": []
    },
    {
      "x": 137,
      "y": 195,
      "size": 1,
      "price": "1011000000000000000000",
      "reserved": "",
      "salt": "0xa84c9b7791f81892efdd85a8831aebe9f2fe1f7949e50d329e442e9c45f7717b",
      "assetIds": []
    },
    {
      "x": 137,
      "y": 196,
      "size": 1,
      "price": "1011000000000000000000",
      "reserved": "",
      "salt": "0x243ac531cd5d0a5a867a9608c5f505720cadc1ab7d4efaeebd66e7850c210d5f",
      "assetIds": []
    },
    {
      "x": 137,
      "y": 197,
      "size": 1,
      "price": "1011000000000000000000",
      "reserved": "",
      "salt": "0xd7de982490b8a3610181086693479794985b955850ca86e1b91d0a7d577d172a",
      "assetIds": []
    },
    {
      "x": 138,
      "y": 177,
      "size": 1,
      "price": "1011000000000000000000",
      "reserved": "",
      "salt": "0x6d16ae8303e077dcdc2bcef65e78267351dfdbc8aa8b97219921587093ba22ed",
      "assetIds": []
    },
    {
      "x": 138,
      "y": 178,
      "size": 1,
      "price": "1011000000000000000000",
      "reserved": "",
      "salt": "0x42f698eeb093429da5f7ebd4433a820256ece994428fe1dbbfcfe2f7924ec7e3",
      "assetIds": []
    },
    {
      "x": 138,
      "y": 179,
      "size": 1,
      "price": "1011000000000000000000",
      "reserved": "",
      "salt": "0x31eb25245c79419e9cc563a77ccfc44cbbb5924aa1a2ac4bfa97b1475c07799c",
      "assetIds": []
    },
    {
      "x": 138,
      "y": 186,
      "size": 1,
      "price": "1011000000000000000000",
      "reserved": "",
      "salt": "0x7526444edc3c60a5b694f30b593037ca8d089e2de44d0c0d61cab680ff67302d",
      "assetIds": []
    },
    {
      "x": 138,
      "y": 187,
      "size": 1,
      "price": "1011000000000000000000",
      "reserved": "",
      "salt": "0xcf71d1a0bab10b0393552bf2526227d25c3261e819cc01caba90a869e702213f",
      "assetIds": []
    },
    {
      "x": 138,
      "y": 188,
      "size": 1,
      "price": "1011000000000000000000",
      "reserved": "",
      "salt": "0x79e38098038495f7116869da33a7f5ac075146e456977f6335b054438378b349",
      "assetIds": []
    },
    {
      "x": 138,
      "y": 189,
      "size": 1,
      "price": "4683000000000000000000",
      "reserved": "",
      "salt": "0x5ce404a72f862e922aeb1af279bbcedbff9014b9235a3892ee97a4eb41ca6cf9",
      "assetIds": []
    },
    {
      "x": 138,
      "y": 190,
      "size": 1,
      "price": "1011000000000000000000",
      "reserved": "0x7a9fe22691c811ea339d9b73150e6911a5343dca",
      "salt": "0x660ec2c249866c672c8db3db1b719e8f318307d0b0573264395ffebbcd73f839",
      "assetIds": []
    },
    {
      "x": 138,
      "y": 191,
      "size": 1,
      "price": "4683000000000000000000",
      "reserved": "",
      "salt": "0x72f7df2bc3329d279033bfddbe0f748b0a06d8dc5d76395d5809b42041ad3bbf",
      "assetIds": []
    },
    {
      "x": 138,
      "y": 192,
      "size": 1,
      "price": "1011000000000000000000",
      "reserved": "",
      "salt": "0xfead0a1d63f225acc951834f24f8f0f7e9fbc49d31775735a2ccde2892c59bd7",
      "assetIds": []
    },
    {
      "x": 138,
      "y": 193,
      "size": 1,
      "price": "1011000000000000000000",
      "reserved": "",
      "salt": "0xc9972b3ac3d4c736b7489c63ea871390308a30f87a9acf7bd26f6142bbb90ecd",
      "assetIds": []
    },
    {
      "x": 138,
      "y": 194,
      "size": 1,
      "price": "1011000000000000000000",
      "reserved": "",
      "salt": "0xb62a652904810f0256035c774c53b569e89ac1528d7af60be471f1f7d952743f",
      "assetIds": []
    },
    {
      "x": 138,
      "y": 195,
      "size": 1,
      "price": "1011000000000000000000",
      "reserved": "",
      "salt": "0xdf972b7a1c834697d6842e19f6921c606367a7e5c91396a73492a9bb36dd55da",
      "assetIds": []
    },
    {
      "x": 138,
      "y": 196,
      "size": 1,
      "price": "1011000000000000000000",
      "reserved": "",
      "salt": "0xe4d0f714f8906f57636afbfda60c311025fa679f3375ab2752d53724a5e68e40",
      "assetIds": []
    },
    {
      "x": 138,
      "y": 197,
      "size": 1,
      "price": "1011000000000000000000",
      "reserved": "",
      "salt": "0xb29867bbca27126610f3d0acff2bd30acab3504237cb60e4f20c0ca0163b7968",
      "assetIds": []
    },
    {
      "x": 138,
      "y": 198,
      "size": 1,
      "price": "1011000000000000000000",
      "reserved": "",
      "salt": "0x6f9daa0c10ddd7d5655eacffb954f57868556b77d3434cef6f889592a87c67fe",
      "assetIds": []
    },
    {
      "x": 138,
      "y": 199,
      "size": 1,
      "price": "1011000000000000000000",
      "reserved": "",
      "salt": "0xfb989597bfdfd367da9f085f5fb84886f3719f97df57264a06e2bfc6c6c02183",
      "assetIds": []
    },
    {
      "x": 138,
      "y": 200,
      "size": 1,
      "price": "1011000000000000000000",
      "reserved": "",
      "salt": "0x1ee4c4060992be393f2151e0a63a0371b431794a9b8c0b40306053924f3e20ed",
      "assetIds": []
    },
    {
      "x": 139,
      "y": 177,
      "size": 1,
      "price": "1011000000000000000000",
      "reserved": "",
      "salt": "0xa9a99c20d90b193cfcf8cd1c0f664fd0ece0b02edf70ba2ce9cb6a4746acf9ef",
      "assetIds": []
    },
    {
      "x": 139,
      "y": 178,
      "size": 1,
      "price": "1011000000000000000000",
      "reserved": "",
      "salt": "0x35629c32e40dc7bd4000a28eebf57665928a168fd704ea640cc5ab1549296c31",
      "assetIds": []
    },
    {
      "x": 139,
      "y": 179,
      "size": 1,
      "price": "1011000000000000000000",
      "reserved": "",
      "salt": "0x5db8f88ad329361f08789382f17219b0dae30a8eec87c035de83e9905273b789",
      "assetIds": []
    },
    {
      "x": 139,
      "y": 186,
      "size": 1,
      "price": "1011000000000000000000",
      "reserved": "",
      "salt": "0xb6f104fc37f6cde5898e9b890ab3230c55965cb9b03497f783f9f3d003ba1638",
      "assetIds": []
    },
    {
      "x": 139,
      "y": 187,
      "size": 1,
      "price": "1011000000000000000000",
      "reserved": "",
      "salt": "0xc8c64297b682f30c59b056b117a2d4737b720ba90c505776680a26ab7129c36c",
      "assetIds": []
    },
    {
      "x": 139,
      "y": 188,
      "size": 1,
      "price": "1011000000000000000000",
      "reserved": "",
      "salt": "0x94e4a761f16f0069b78dd569d1bba9fdce6bc21535fbaf4fe5da8346e5450711",
      "assetIds": []
    },
    {
      "x": 139,
      "y": 189,
      "size": 1,
      "price": "1011000000000000000000",
      "reserved": "",
      "salt": "0xad795eaba3ae22ead2c196ea61adf6a02d40a21d7b3c23884f8ce03a2fd3b6ef",
      "assetIds": []
    },
    {
      "x": 139,
      "y": 190,
      "size": 1,
      "price": "1011000000000000000000",
      "reserved": "",
      "salt": "0x67d7ffe6c3788164f0388ff091dd90ad3a4eaffacc372d3a10b187438714bf0f",
      "assetIds": []
    },
    {
      "x": 139,
      "y": 191,
      "size": 1,
      "price": "1011000000000000000000",
      "reserved": "",
      "salt": "0x852c2a26741f4ac65ada9f1559697dd76c34ec8f5a6fcd9cb21e7c72ac61dd79",
      "assetIds": []
    },
    {
      "x": 139,
      "y": 192,
      "size": 1,
      "price": "1011000000000000000000",
      "reserved": "",
      "salt": "0x4fe63dc13715965514512f18c013bdad93cde8363d5ac5bb9ea47671bcda87fd",
      "assetIds": []
    },
    {
      "x": 139,
      "y": 193,
      "size": 1,
      "price": "1011000000000000000000",
      "reserved": "",
      "salt": "0x42e5e2697f2d9d76ec58623008f2654bb33b57de6f947a742775e5cb15810458",
      "assetIds": []
    },
    {
      "x": 139,
      "y": 194,
      "size": 1,
      "price": "1011000000000000000000",
      "reserved": "",
      "salt": "0x9a74624cc228abeb2f3d349dca33fd2adcf5439f5864f28f41545877db6d4f65",
      "assetIds": []
    },
    {
      "x": 139,
      "y": 195,
      "size": 1,
      "price": "1011000000000000000000",
      "reserved": "",
      "salt": "0xf89ad1d303b060ae5c8bdf0dfbeb68946ac65016dd03087c6eca9c9910fdd22b",
      "assetIds": []
    },
    {
      "x": 139,
      "y": 196,
      "size": 1,
      "price": "1011000000000000000000",
      "reserved": "",
      "salt": "0xf94ca10825d193c61329cc822335403fb961da723af95fd6a85db45f85139a08",
      "assetIds": []
    },
    {
      "x": 139,
      "y": 197,
      "size": 1,
      "price": "1011000000000000000000",
      "reserved": "",
      "salt": "0x3f136d688de6c135a079282566b5be9570d39c6a64bf0fb2a820db6523bb231e",
      "assetIds": []
    },
    {
      "x": 139,
      "y": 198,
      "size": 1,
      "price": "1011000000000000000000",
      "reserved": "",
      "salt": "0x3c19adfa3feda7ad71ef2c42ad7efd534094529d2d861572bace2f52e72664b7",
      "assetIds": []
    },
    {
      "x": 139,
      "y": 199,
      "size": 1,
      "price": "1011000000000000000000",
      "reserved": "",
      "salt": "0x3864f93e7e25ac1d7cc7c44ea7d2442c3366d8fd6ec4159a2f6cc503e14cf0a4",
      "assetIds": []
    },
    {
      "x": 139,
      "y": 200,
      "size": 1,
      "price": "1011000000000000000000",
      "reserved": "",
      "salt": "0x04bfe3f7e3adbcaaf1a2a63fc5618c651d79760356c04d91b704830bde19257c",
      "assetIds": []
    },
    {
      "x": 140,
      "y": 177,
      "size": 1,
      "price": "1011000000000000000000",
      "reserved": "",
      "salt": "0x224de7e9f7f4d03e55bd2e4584df7054923a4945d04bc79370c0ac0cc1cceb42",
      "assetIds": []
    },
    {
      "x": 140,
      "y": 178,
      "size": 1,
      "price": "1011000000000000000000",
      "reserved": "",
      "salt": "0x33610d4c26c9eae14ec04346d2eeccf467532a941c32e48e5228b98fc341acb1",
      "assetIds": []
    },
    {
      "x": 140,
      "y": 179,
      "size": 1,
      "price": "1011000000000000000000",
      "reserved": "",
      "salt": "0xcec7b78801e77b96f5b2a66c83c00ac0a415e497234e8e744e4ad058737284f7",
      "assetIds": []
    },
    {
      "x": 140,
      "y": 186,
      "size": 1,
      "price": "1011000000000000000000",
      "reserved": "",
      "salt": "0x64cf58aacc667a5d824bb48bb50f527cb0707d3cd92beb461b2213893b344f34",
      "assetIds": []
    },
    {
      "x": 140,
      "y": 187,
      "size": 1,
      "price": "1011000000000000000000",
      "reserved": "",
      "salt": "0xaf35e1b14a18c3c85959e0547231911788902047f1db9cf915207da048aca84e",
      "assetIds": []
    },
    {
      "x": 140,
      "y": 188,
      "size": 1,
      "price": "1011000000000000000000",
      "reserved": "",
      "salt": "0x711f9c74597a782d290dcae8598214c69d3f71e2ca4e392165419ae0cf28ede0",
      "assetIds": []
    },
    {
      "x": 140,
      "y": 189,
      "size": 1,
      "price": "1011000000000000000000",
      "reserved": "",
      "salt": "0xa94281323a9bf4852b0652207c5def812e87481b63c7484f26c3812f5745e62a",
      "assetIds": []
    },
    {
      "x": 140,
      "y": 190,
      "size": 1,
      "price": "1011000000000000000000",
      "reserved": "",
      "salt": "0xafa2087d340755e06eaf39ba64c97a43106513bfc6d733ec523a9a7683f91912",
      "assetIds": []
    },
    {
      "x": 140,
      "y": 191,
      "size": 1,
      "price": "1011000000000000000000",
      "reserved": "",
      "salt": "0xff734ac3e63266c9bf9d43301ae14bce9c7197be6fef8179b1e8572a9a5c9abe",
      "assetIds": []
    },
    {
      "x": 140,
      "y": 192,
      "size": 1,
      "price": "1011000000000000000000",
      "reserved": "",
      "salt": "0xa9da3fd79fa8cdfb9bcc9846dc64733d24879fe6eb41e937c5f0576d4ae54555",
      "assetIds": []
    },
    {
      "x": 140,
      "y": 193,
      "size": 1,
      "price": "1011000000000000000000",
      "reserved": "",
      "salt": "0xc0cef99a4fba244973bd09ec62c9971f4c4ff67955230ad248d4d509b1b4bc74",
      "assetIds": []
    },
    {
      "x": 140,
      "y": 194,
      "size": 1,
      "price": "1011000000000000000000",
      "reserved": "",
      "salt": "0xbc05087042a58336fccfdf58633d13d23b88fe420d835a2a5657732020b86235",
      "assetIds": []
    },
    {
      "x": 140,
      "y": 195,
      "size": 1,
      "price": "1011000000000000000000",
      "reserved": "",
      "salt": "0xd036eb71ed8cb73c30294692ea55b5de13588a09adbeec65c6d06cbdac84c9c7",
      "assetIds": []
    },
    {
      "x": 140,
      "y": 196,
      "size": 1,
      "price": "1011000000000000000000",
      "reserved": "",
      "salt": "0x26fba4899f30bb5271a5be3974615d905ecde51793d92afc2678cb45891a368b",
      "assetIds": []
    },
    {
      "x": 140,
      "y": 197,
      "size": 1,
      "price": "1011000000000000000000",
      "reserved": "",
      "salt": "0x91c3cebd917d204dd45ae06f0e0d5249fab357d88f663c787d1c3814a4ebc1eb",
      "assetIds": []
    },
    {
      "x": 140,
      "y": 198,
      "size": 1,
      "price": "1011000000000000000000",
      "reserved": "",
      "salt": "0x61bb8fc4fc763ff36dc609ea317cf256f183ad07465eddf2383ca67033e283c0",
      "assetIds": []
    },
    {
      "x": 140,
      "y": 199,
      "size": 1,
      "price": "1011000000000000000000",
      "reserved": "",
      "salt": "0x9d00627575f78186b0637d7b91079e8d0b4252ca69f430cbec2d8ac4bb6992e4",
      "assetIds": []
    },
    {
      "x": 140,
      "y": 200,
      "size": 1,
      "price": "1011000000000000000000",
      "reserved": "",
      "salt": "0x60e5b635d0d032a1a399a64e138c642032caef20bf11451bf6f29dd57096282a",
      "assetIds": []
    },
    {
      "x": 141,
      "y": 177,
      "size": 1,
      "price": "1011000000000000000000",
      "reserved": "",
      "salt": "0xf7e7ac211511c88af036d16ffafa0393cb431867320765f2c36fd2750d092ebb",
      "assetIds": []
    },
    {
      "x": 141,
      "y": 178,
      "size": 1,
      "price": "1011000000000000000000",
      "reserved": "",
      "salt": "0xc34a8068f05c1dd55ac2a9227388f1afcc5430f8d2ddf05458feb07703fa8728",
      "assetIds": []
    },
    {
      "x": 141,
      "y": 179,
      "size": 1,
      "price": "1011000000000000000000",
      "reserved": "",
      "salt": "0xad170f9e40e8cc6f0cea0c521dfbf0d29ece3c8aeb4f58a73e1b679ad463e62d",
      "assetIds": []
    },
    {
      "x": 141,
      "y": 189,
      "size": 1,
      "price": "1011000000000000000000",
      "reserved": "",
      "salt": "0x96dfea0ccffabc86092dc5a0ca97c5b38b9f9a619a8a439e068763ebe6320b37",
      "assetIds": []
    },
    {
      "x": 141,
      "y": 190,
      "size": 1,
      "price": "1011000000000000000000",
      "reserved": "",
      "salt": "0xcf0b4c2312faff819aed8e616dfc62186d6b5e8cae9b6eaaffcb1a9d2474f4c2",
      "assetIds": []
    },
    {
      "x": 141,
      "y": 191,
      "size": 1,
      "price": "1011000000000000000000",
      "reserved": "",
      "salt": "0x172e3b7643f5f499574213701760f03a9b9e87a16fc931c243da60373c7f5666",
      "assetIds": []
    },
    {
      "x": 141,
      "y": 192,
      "size": 1,
      "price": "1011000000000000000000",
      "reserved": "",
      "salt": "0xbbf0c908eea316afab9b38e4b4482686d90df35389d00a13275fbb007068e0db",
      "assetIds": []
    },
    {
      "x": 141,
      "y": 193,
      "size": 1,
      "price": "1011000000000000000000",
      "reserved": "",
      "salt": "0x0e16d781f003119f311578b377b15873a8fcda1e0424a3573658c669c85c2932",
      "assetIds": []
    },
    {
      "x": 141,
      "y": 194,
      "size": 1,
      "price": "1011000000000000000000",
      "reserved": "",
      "salt": "0xca0fc20052978959018c03753a839093f6e49252ce2873c64db44c5ad52ec1ee",
      "assetIds": []
    },
    {
      "x": 141,
      "y": 198,
      "size": 1,
      "price": "1011000000000000000000",
      "reserved": "0x7a9fe22691c811ea339d9b73150e6911a5343dca",
      "salt": "0x14ddfc42ad2a4017591d29b4a46de0d207fb07e67c63f61a2df2f95a5fab6420",
      "assetIds": []
    },
    {
      "x": 141,
      "y": 199,
      "size": 1,
      "price": "1011000000000000000000",
      "reserved": "",
      "salt": "0xd51e489ff0ced15f3ec11d439474cb2ba33bb68625e952ee788d641a407ab39c",
      "assetIds": []
    },
    {
      "x": 141,
      "y": 200,
      "size": 1,
      "price": "1011000000000000000000",
      "reserved": "",
      "salt": "0xef3bd217522959fef55e53497e12deb4c8e9a4a2f0173ab6f53e928a399b4900",
      "assetIds": []
    },
    {
      "x": 142,
      "y": 177,
      "size": 1,
      "price": "1011000000000000000000",
      "reserved": "",
      "salt": "0x1b1f23868c52b15fcb9e227c99fd5f502fcef63c59a02ae38c3b83e7b17aef8e",
      "assetIds": []
    },
    {
      "x": 142,
      "y": 178,
      "size": 1,
      "price": "1011000000000000000000",
      "reserved": "",
      "salt": "0xb33b26821b116d4c5e0e725c1dd1debbc3774a1c227153db34255fca0f79f5f9",
      "assetIds": []
    },
    {
      "x": 142,
      "y": 179,
      "size": 1,
      "price": "1011000000000000000000",
      "reserved": "",
      "salt": "0xf41f59e4b95212697bd580f5c3afdb5afd467936658351b1bdea8318aaebcfe4",
      "assetIds": []
    },
    {
      "x": 142,
      "y": 189,
      "size": 1,
      "price": "1011000000000000000000",
      "reserved": "",
      "salt": "0xb474cf98f9cc343bccd2e09adef8e98cacf39ad7a1a75e3e5f6704ebdca8881a",
      "assetIds": []
    },
    {
      "x": 142,
      "y": 190,
      "size": 1,
      "price": "1011000000000000000000",
      "reserved": "",
      "salt": "0x1745983e916c1ac654ff79a59de922ca0ad06ccb05307ee33238baee75aa8c2c",
      "assetIds": []
    },
    {
      "x": 142,
      "y": 191,
      "size": 1,
      "price": "1011000000000000000000",
      "reserved": "",
      "salt": "0x05a2c4cb69f24d661e557ec9422339817bf2994d0c5a459b72b62ddde3c92c67",
      "assetIds": []
    },
    {
      "x": 142,
      "y": 192,
      "size": 1,
      "price": "1011000000000000000000",
      "reserved": "",
      "salt": "0x1cb5578bb760d2f7354635f92ac15f5cafdaefd252185c7fa9b4fee4d37594c2",
      "assetIds": []
    },
    {
      "x": 142,
      "y": 193,
      "size": 1,
      "price": "1011000000000000000000",
      "reserved": "",
      "salt": "0x068bf94802204b4f5c4b8e69da09634a6c1f51ea877c877870caf66a98da46b0",
      "assetIds": []
    },
    {
      "x": 142,
      "y": 194,
      "size": 1,
      "price": "1011000000000000000000",
      "reserved": "",
      "salt": "0xb9bb5371087323e10bde051ad8880cf31e6421a5fe04a2adcec63c94dcd7aa18",
      "assetIds": []
    },
    {
      "x": 142,
      "y": 198,
      "size": 1,
      "price": "1011000000000000000000",
      "reserved": "",
      "salt": "0xf2d5c8588ad184cdfd8d33e1889f1d731f9c51cf123ba6500768330e939e5db6",
      "assetIds": []
    },
    {
      "x": 142,
      "y": 199,
      "size": 1,
      "price": "1011000000000000000000",
      "reserved": "",
      "salt": "0x6e755db9e043df99406944cbf4efa385c2aeba5f452f847bf4d5657c12e0ec31",
      "assetIds": []
    },
    {
      "x": 142,
      "y": 200,
      "size": 1,
      "price": "1011000000000000000000",
      "reserved": "",
      "salt": "0x65ac71f217851b45050b449eb13d7cb8a248bd2e1a4dbd78938cf452305a3a62",
      "assetIds": []
    },
    {
      "x": 143,
      "y": 177,
      "size": 1,
      "price": "4683000000000000000000",
      "reserved": "",
      "salt": "0x69196d45d09e22f54661ad53b771823f8a6616d71c54b7fa124f06eaf9a6a349",
      "assetIds": []
    },
    {
      "x": 143,
      "y": 178,
      "size": 1,
      "price": "1011000000000000000000",
      "reserved": "0x7a9fe22691c811ea339d9b73150e6911a5343dca",
      "salt": "0xbae5cefbf61567290b5d81f3dccd9deb5996bf2c890675b30917296ccd71ac10",
      "assetIds": []
    },
    {
      "x": 143,
      "y": 179,
      "size": 1,
      "price": "4683000000000000000000",
      "reserved": "",
      "salt": "0x52040f8413b978962f449d4ca257357e36e17fd41916ac5f9511c926fc5d8d55",
      "assetIds": []
    },
    {
      "x": 143,
      "y": 189,
      "size": 1,
      "price": "4683000000000000000000",
      "reserved": "",
      "salt": "0xb5ad4751e39cc63d0d2ce6601478e6a2623c04a631da99690588c1ea65ba7930",
      "assetIds": []
    },
    {
      "x": 143,
      "y": 190,
      "size": 1,
      "price": "4683000000000000000000",
      "reserved": "",
      "salt": "0x541c4b35b2b90290ae781828177dbf2f35e2c1d549df7bbe95d2fcf8cc2d4267",
      "assetIds": []
    },
    {
      "x": 143,
      "y": 191,
      "size": 1,
      "price": "4683000000000000000000",
      "reserved": "",
      "salt": "0x22f86386fbdb68823f54bfe54b04db76fb20f04ae0fe85a50e73c2e17bdfc6e0",
      "assetIds": []
    },
    {
      "x": 143,
      "y": 192,
      "size": 1,
      "price": "1011000000000000000000",
      "reserved": "",
      "salt": "0x8c4f4b73188b53e45eb781b435eedd3101306ca75a475c1a108cc8777c78ee60",
      "assetIds": []
    },
    {
      "x": 143,
      "y": 193,
      "size": 1,
      "price": "1011000000000000000000",
      "reserved": "",
      "salt": "0xf50797b62378ce8199cdadca0b033836fc542e5467bcf089958b4245854cc78b",
      "assetIds": []
    },
    {
      "x": 143,
      "y": 194,
      "size": 1,
      "price": "1011000000000000000000",
      "reserved": "",
      "salt": "0x9e4daa5e26f13430a4530412c35c2733372a296d9021eaa8ade70887ce4333cd",
      "assetIds": []
    },
    {
      "x": 143,
      "y": 198,
      "size": 1,
      "price": "1011000000000000000000",
      "reserved": "",
      "salt": "0xcdb9772139a6082f7a50111262d43bb262f4e988edf4581910ff63e0c2254a3d",
      "assetIds": []
    },
    {
      "x": 143,
      "y": 199,
      "size": 1,
      "price": "1011000000000000000000",
      "reserved": "",
      "salt": "0x5e4cebfd365a194c6f0f3a466477d63c0176724637eb8a515aa00c332998db7d",
      "assetIds": []
    },
    {
      "x": 143,
      "y": 200,
      "size": 1,
      "price": "1011000000000000000000",
      "reserved": "",
      "salt": "0xa438a51da495b1dfd06c79ae5c9d0ab74c4d38e355eb323244a31693ebdfa9c5",
      "assetIds": []
    }
  ],
  "solcInputHash": "b42a863a795806b4ea3a8f05dfa42539",
  "bytecode": "0x6101606040523480156200001257600080fd5b50604051620031e9380380620031e983398181016040526101a08110156200003957600080fd5b508051602082015160408301516060840151608085015160a086015160c087015160e08801516101008901516101208a01516101408b01516101608c0151610180909c015160016000559a9b999a9899979896979596949593949293919290919085856001600160a01b038216620000f8576040805162461bcd60e51b815260206004820152601f60248201527f526566657272616c56616c696461746f723a207a65726f206164647265737300604482015290519081900360640190fd5b600380546001600160a01b0319166001600160a01b0393841617905560045562000130908e1662000459602090811b62002adc17901c565b6200016d5760405162461bcd60e51b8152600401808060200182810382526025815260200180620031c46025913960400191505060405180910390fd5b6200018c8c6001600160a01b03166200045960201b62002adc1760201c565b620001c95760405162461bcd60e51b8152600401808060200182810382526025815260200180620031c46025913960400191505060405180910390fd5b6001600160a01b038b1662000214576040805162461bcd60e51b815260206004820181905260248201526000805160206200317f833981519152604482015290519081900360640190fd5b6001600160a01b038a166200025f576040805162461bcd60e51b815260206004820181905260248201526000805160206200317f833981519152604482015290519081900360640190fd5b6001600160a01b038916620002aa576040805162461bcd60e51b815260206004820181905260248201526000805160206200317f833981519152604482015290519081900360640190fd5b620002c9836001600160a01b03166200045960201b62002adc1760201c565b620003065760405162461bcd60e51b8152600401808060200182810382526025815260200180620031c46025913960400191505060405180910390fd5b6001600160a01b03821662000351576040805162461bcd60e51b815260206004820181905260248201526000805160206200317f833981519152604482015290519081900360640190fd5b62000370816001600160a01b03166200045960201b62002adc1760201c565b620003ad5760405162461bcd60e51b8152600401808060200182810382526025815260200180620031c46025913960400191505060405180910390fd5b6001600160601b031960608e811b821660a0528d901b1660c052620003dd8b60016001600160e01b036200045f16565b600680546001600160a01b039a8b166001600160a01b031991821617909155610140989098526101209690965260018054998916998816999099179098556001600160601b0319606092831b811660e05290821b811660805296901b909516610100525060078054919093169116179055506200050a92505050565b3b151590565b6001600160a01b038216620004a65760405162461bcd60e51b81526004018080602001828103825260258152602001806200319f6025913960400191505060405180910390fd5b6001600160a01b038216600081815260026020908152604091829020805460ff191685151590811790915582519384529083015280517fb21eb88b4e33b3f1281830a7178d74d8aa73220416215726b68ae23d539515cb9281900390910190a15050565b60805160601c60a05160601c60c05160601c60e05160601c6101005160601c6101205161014051612bef6200059060003980610be0528061247e525080610bbc528061159d5250806124fc525080611af25280611c4f525080611aa85280611e4e52806124d9525080611b235280611c205250806111075280611f3a5250612bef6000f3fe608060405234801561001057600080fd5b50600436106101365760003560e01c8063984d6252116100b2578063c10a420811610081578063dc5074af11610066578063dc5074af146108a0578063e56f8a9e146108c6578063f23a6e61146108e357610136565b8063c10a4208146107c1578063caed35001461089857610136565b8063984d62521461055f578063ab1cc78c14610631578063b522ecff14610639578063bc197c811461065f57610136565b806365194ce71161010957806378e6e5b9116100ee57806378e6e5b9146104e55780638a04af6a1461050b5780638f2839701461053957610136565b806365194ce7146103635780636e9960c3146104c157610136565b80631187fd3c1461013b57806325cb5bc01461031b578063495906571461033557806358bc29441461033d575b600080fd5b610319600480360361012081101561015257600080fd5b6001600160a01b038235811692602081013582169260408201359092169181019060808101606082013564010000000081111561018e57600080fd5b8201836020820111156101a057600080fd5b803590602001918460208302840111640100000000831117156101c257600080fd5b919390928235926040810190602001356401000000008111156101e457600080fd5b8201836020820111156101f657600080fd5b8035906020019184602083028401116401000000008311171561021857600080fd5b91939092909160208101903564010000000081111561023657600080fd5b82018360208201111561024857600080fd5b8035906020019184602083028401116401000000008311171561026a57600080fd5b91939092909160208101903564010000000081111561028857600080fd5b82018360208201111561029a57600080fd5b803590602001918460018302840111640100000000831117156102bc57600080fd5b9193909290916020810190356401000000008111156102da57600080fd5b8201836020820111156102ec57600080fd5b8035906020019184600183028401116401000000008311171561030e57600080fd5b509092509050610978565b005b610323610bba565b60408051918252519081900360200190f35b610323610bde565b6103196004803603602081101561035357600080fd5b50356001600160a01b0316610c02565b6104096004803603602081101561037957600080fd5b81019060208101813564010000000081111561039457600080fd5b8201836020820111156103a657600080fd5b803590602001918460018302840111640100000000831117156103c857600080fd5b91908080601f016020809104026020016040519081016040528093929190818152602001838380828437600092019190915250929550610d2e945050505050565b6040518080602001866001600160a01b03166001600160a01b03168152602001856001600160a01b03166001600160a01b03168152602001848152602001838152602001828103825287818151815260200191508051906020019080838360005b8381101561048257818101518382015260200161046a565b50505050905090810190601f1680156104af5780820380516001836020036101000a031916815260200191505b50965050505050505060405180910390f35b6104c9610e33565b604080516001600160a01b039092168252519081900360200190f35b610319600480360360208110156104fb57600080fd5b50356001600160a01b0316610e42565b6103196004803603604081101561052157600080fd5b506001600160a01b0381351690602001351515610f00565b6103196004803603602081101561054f57600080fd5b50356001600160a01b0316610f6d565b6103196004803603606081101561057557600080fd5b6001600160a01b0382351691908101906040810160208201356401000000008111156105a057600080fd5b8201836020820111156105b257600080fd5b803590602001918460208302840111640100000000831117156105d457600080fd5b9193909290916020810190356401000000008111156105f257600080fd5b82018360208201111561060457600080fd5b8035906020019184602083028401116401000000008311171561062657600080fd5b5090925090506110a6565b610323611231565b6103196004803603602081101561064f57600080fd5b50356001600160a01b0316611237565b61078c600480360360a081101561067557600080fd5b6001600160a01b0382358116926020810135909116918101906060810160408201356401000000008111156106a957600080fd5b8201836020820111156106bb57600080fd5b803590602001918460208302840111640100000000831117156106dd57600080fd5b9193909290916020810190356401000000008111156106fb57600080fd5b82018360208201111561070d57600080fd5b8035906020019184602083028401116401000000008311171561072f57600080fd5b91939092909160208101903564010000000081111561074d57600080fd5b82018360208201111561075f57600080fd5b8035906020019184600183028401116401000000008311171561078157600080fd5b509092509050611348565b604080517fffffffff000000000000000000000000000000000000000000000000000000009092168252519081900360200190f35b610884600480360360a08110156107d757600080fd5b8101906020810181356401000000008111156107f257600080fd5b82018360208201111561080457600080fd5b8035906020019184600183028401116401000000008311171561082657600080fd5b91908080601f016020809104026020016040519081016040528093929190818152602001838380828437600092019190915250929550506001600160a01b038335811694506020840135169260408101359250606001359050611375565b604080519115158252519081900360200190f35b6104c96114b1565b610884600480360360208110156108b657600080fd5b50356001600160a01b03166114c0565b610319600480360360208110156108dc57600080fd5b50356114de565b61078c600480360360a08110156108f957600080fd5b6001600160a01b03823581169260208101359091169160408201359160608101359181019060a08101608082013564010000000081111561093957600080fd5b82018360208201111561094b57600080fd5b8035906020019184600183028401116401000000008311171561096d57600080fd5b509092509050611570565b600260005414156109d0576040805162461bcd60e51b815260206004820152601f60248201527f5265656e7472616e637947756172643a207265656e7472616e742063616c6c00604482015290519081900360640190fd5b60026000556109df8e8d61159b565b610ad68d8d8d8d80806020026020016040519081016040528093929190818152602001838360200280828437600081840152601f19601f820116905080830192505050505050508c8c8c80806020026020016040519081016040528093929190818152602001838360200280828437600081840152601f19601f820116905080830192505050505050508b8b8080602002602001604051908101604052809392919081815260200183836020028082843760009201919091525050604080516020601f8d018190048102820181019092528b815292508b91508a90819084018382808284376000920191909152506116fe92505050565b610b2a8e8c8c6003818110610ae757fe5b9050602002013586868080601f016020809104026020016040519081016040528093929190818152602001838380828437600092019190915250611a8192505050565b610b688e8e8d8d80806020026020016040519081016040528093929190818152602001838360200280828437600092019190915250611ad292505050565b610ba58d898980806020026020016040519081016040528093929190818152602001838360200280828437600092019190915250611ec392505050565b50506001600055505050505050505050505050565b7f000000000000000000000000000000000000000000000000000000000000000090565b7f000000000000000000000000000000000000000000000000000000000000000090565b6001546001600160a01b03163314610c61576040805162461bcd60e51b815260206004820152601260248201527f6f6e6c792061646d696e20616c6c6f7765640000000000000000000000000000604482015290519081900360640190fd5b6001600160a01b038116610cbc576040805162461bcd60e51b815260206004820152601f60248201527f526566657272616c56616c696461746f723a207a65726f206164647265737300604482015290519081900360640190fd5b600380546001600160a01b03908116600090815260056020526040808220620d2f0042019055835473ffffffffffffffffffffffffffffffffffffffff1916928516928317909355915190917fbbb5fb2ee7e707ae0c968f63e94211ea81e66a718c34e2f810a7619e5678a21791a250565b606060008060008060606000806000808a80602001905160a0811015610d5357600080fd5b8101908080516040519392919084640100000000821115610d7357600080fd5b908301906020820185811115610d8857600080fd5b8251640100000000811182820188101715610da257600080fd5b82525081516020918201929091019080838360005b83811015610dcf578181015183820152602001610db7565b50505050905090810190601f168015610dfc5780820380516001836020036101000a031916815260200191505b5060409081526020820151908201516060830151608090930151959f50909d509b5099509197505050505050505091939590929450565b6001546001600160a01b031690565b6001546001600160a01b03163314610e8b5760405162461bcd60e51b8152600401808060200182810382526023815260200180612b056023913960400191505060405180910390fd5b6001600160a01b038116610ee6576040805162461bcd60e51b815260206004820152601f60248201527f526566657272616c56616c696461746f723a207a65726f206164647265737300604482015290519081900360640190fd5b6001600160a01b0316600090815260056020526040812055565b6001546001600160a01b03163314610f5f576040805162461bcd60e51b815260206004820152601260248201527f6f6e6c792061646d696e20616c6c6f7765640000000000000000000000000000604482015290519081900360640190fd5b610f698282612087565b5050565b6001546001600160a01b03163314610fcc576040805162461bcd60e51b815260206004820152601b60248201527f6f6e6c792061646d696e2063616e206368616e67652061646d696e0000000000604482015290519081900360640190fd5b6001546001600160a01b038281169116141561102f576040805162461bcd60e51b815260206004820152600d60248201527f616c72656164792061646d696e00000000000000000000000000000000000000604482015290519081900360640190fd5b600154604080516001600160a01b039283168152918316602083015280517f7e644d79422f17c01e4894b5f4f588d331ebfa28653d42ae832dc59e38c9798f9281900390910190a16001805473ffffffffffffffffffffffffffffffffffffffff19166001600160a01b0392909216919091179055565b6001546001600160a01b03163314611105576040805162461bcd60e51b815260206004820152600e60248201527f4e4f545f415554484f52495a4544000000000000000000000000000000000000604482015290519081900360640190fd5b7f00000000000000000000000000000000000000000000000000000000000000006001600160a01b0316632eb2c2d63087878787876040518763ffffffff1660e01b815260040180876001600160a01b03166001600160a01b03168152602001866001600160a01b03166001600160a01b031681526020018060200180602001806020018481038452888882818152602001925060200280828437600083820152601f01601f19169091018581038452868152602090810191508790870280828437600081840152601f19601f8201169050808301925050508481038252600081526020016020019950505050505050505050600060405180830381600087803b15801561121257600080fd5b505af1158015611226573d6000803e3d6000fd5b505050505050505050565b60045490565b6001600160a01b038116611292576040805162461bcd60e51b815260206004820152600c60248201527f5a45524f5f414444524553530000000000000000000000000000000000000000604482015290519081900360640190fd5b6001546001600160a01b031633146112f1576040805162461bcd60e51b815260206004820152600e60248201527f4e4f545f415554484f52495a4544000000000000000000000000000000000000604482015290519081900360640190fd5b6006805473ffffffffffffffffffffffffffffffffffffffff19166001600160a01b0383169081179091556040517f4d66958b757eb92a1b43d02be4c38c9500b73f532420ee3706cb43d420ba023690600090a250565b7fbc197c810000000000000000000000000000000000000000000000000000000098975050505050505050565b60006004548211806113985750836001600160a01b0316856001600160a01b0316145b806113a257508242115b156113af575060006114a8565b60408051606087811b7fffffffffffffffffffffffffffffffffffffffff0000000000000000000000009081166020808501919091529188901b166034830152604882018690526068808301869052835180840390910181526088830184528051908201207f19457468657265756d205369676e6564204d6573736167653a0a33320000000060a884015260c48084018290528451808503909101815260e49093019093528151910120600090611466908961214e565b6001600160a01b0381166000908152600560205260409020549091504211611493576001925050506114a8565b6003546001600160a01b039081169116149150505b95945050505050565b6003546001600160a01b031690565b6001600160a01b031660009081526002602052604090205460ff1690565b6001546001600160a01b0316331461153d576040805162461bcd60e51b815260206004820152601260248201527f6f6e6c792061646d696e20616c6c6f7765640000000000000000000000000000604482015290519081900360640190fd5b600481905560405181907f774069781371d65424b3b0b101c1d40014532cac040f979595b99a3fcf8ce08c90600090a250565b7ff23a6e61000000000000000000000000000000000000000000000000000000009695505050505050565b7f0000000000000000000000000000000000000000000000000000000000000000421061160f576040805162461bcd60e51b815260206004820152600c60248201527f53414c455f49535f4f5645520000000000000000000000000000000000000000604482015290519081900360640190fd5b6001600160a01b03821633148061163557503360009081526002602052604090205460ff165b611686576040805162461bcd60e51b815260206004820152600e60248201527f4e4f545f415554484f52495a4544000000000000000000000000000000000000604482015290519081900360640190fd5b6001600160a01b03811615806116ad5750816001600160a01b0316816001600160a01b0316145b610f69576040805162461bcd60e51b815260206004820152600d60248201527f52455345525645445f4c414e4400000000000000000000000000000000000000604482015290519081900360640190fd5b600087878760008151811061170f57fe5b60200260200101518860018151811061172457fe5b60200260200101518960028151811061173957fe5b60200260200101518a60038151811061174e57fe5b60200260200101518a8a60405160200180828051906020019060200280838360005b83811015611788578181015183820152602001611770565b50505050905001915050604051602081830303815290604052805190602001208a60405160200180828051906020019060200280838360005b838110156117d95781810151838201526020016117c1565b5050505090500191505060405160208183030381529060405280519060200120604051602001808a6001600160a01b03166001600160a01b031660601b8152601401896001600160a01b03166001600160a01b031660601b81526014018881526020018781526020018681526020018581526020018481526020018381526020018281526020019950505050505050505050604051602081830303815290604052805190602001209050600760009054906101000a90046001600160a01b03166001600160a01b031663012847ed83836040518363ffffffff1660e01b81526004018080602001838152602001828103825284818151815260200191508051906020019080838360005b838110156118fb5781810151838201526020016118e3565b50505050905090810190601f1680156119285780820380516001836020036101000a031916815260200191505b50935050505060206040518083038186803b15801561194657600080fd5b505afa15801561195a573d6000803e3d6000fd5b505050506040513d602081101561197057600080fd5b50516119c3576040805162461bcd60e51b815260206004820152600c60248201527f494e56414c49445f415554480000000000000000000000000000000000000000604482015290519081900360640190fd5b6000611a24876000815181106119d557fe5b6020026020010151886001815181106119ea57fe5b6020026020010151896002815181106119ff57fe5b60200260200101518a600381518110611a1457fe5b60200260200101518c8b8b612337565b9050611a3084826123dc565b611226576040805162461bcd60e51b815260206004820152600c60248201527f494e56414c49445f4c414e440000000000000000000000000000000000000000604482015290519081900360640190fd5b6000611a8d84846124a5565b600654909150611acc908590839085906001600160a01b03167f000000000000000000000000000000000000000000000000000000000000000061253f565b50505050565b80600281518110611adf57fe5b602002602001015160011480611b1c57507f00000000000000000000000000000000000000000000000000000000000000006001600160a01b0316155b15611c1e577f00000000000000000000000000000000000000000000000000000000000000006001600160a01b0316636e1e3bbf8383600281518110611b5e57fe5b602002602001015184600081518110611b7357fe5b602002602001015185600181518110611b8857fe5b60200260200101516040518563ffffffff1660e01b815260040180856001600160a01b03166001600160a01b031681526020018481526020018381526020018281526020018060200182810382526000815260200160200195505050505050600060405180830381600087803b158015611c0157600080fd5b505af1158015611c15573d6000803e3d6000fd5b50505050611dbe565b7f00000000000000000000000000000000000000000000000000000000000000006001600160a01b0316636e1e3bbf7f000000000000000000000000000000000000000000000000000000000000000083600281518110611c7b57fe5b602002602001015184600081518110611c9057fe5b602002602001015185600181518110611ca557fe5b60200260200101518760405160200180826001600160a01b03166001600160a01b031681526020019150506040516020818303038152906040526040518663ffffffff1660e01b815260040180866001600160a01b03166001600160a01b0316815260200185815260200184815260200183815260200180602001828103825283818151815260200191508051906020019080838360005b83811015611d55578181015183820152602001611d3d565b50505050905090810190601f168015611d825780820380516001836020036101000a031916815260200191505b509650505050505050600060405180830381600087803b158015611da557600080fd5b505af1158015611db9573d6000803e3d6000fd5b505050505b61019881600181518110611dce57fe5b60200260200101510281600081518110611de457fe5b602002602001015101826001600160a01b0316846001600160a01b03167fe4dfa6ac11314892f3029b34a25b1a887da3b1cab2bbf8506d87128ba6e3ac0284600281518110611e2f57fe5b602002602001015185600381518110611e4457fe5b60200260200101517f000000000000000000000000000000000000000000000000000000000000000087600381518110611e7a57fe5b602002602001015160405180858152602001848152602001836001600160a01b03166001600160a01b0316815260200182815260200194505050505060405180910390a4505050565b6060815167ffffffffffffffff81118015611edd57600080fd5b50604051908082528060200260200182016040528015611f07578160200160208202803683370190505b50905060005b8251811015611f37576001828281518110611f2457fe5b6020908102919091010152600101611f0d565b507f00000000000000000000000000000000000000000000000000000000000000006001600160a01b0316632eb2c2d6308585856040518563ffffffff1660e01b815260040180856001600160a01b03166001600160a01b03168152602001846001600160a01b03166001600160a01b03168152602001806020018060200180602001848103845286818151815260200191508051906020019060200280838360005b83811015611ff2578181015183820152602001611fda565b50505050905001848103835285818151815260200191508051906020019060200280838360005b83811015612031578181015183820152602001612019565b50505050905001848103825260008152602001602001975050505050505050600060405180830381600087803b15801561206a57600080fd5b505af115801561207e573d6000803e3d6000fd5b50505050505050565b6001600160a01b0382166120cc5760405162461bcd60e51b8152600401808060200182810382526025815260200180612b6b6025913960400191505060405180910390fd5b6001600160a01b03821660008181526002602090815260409182902080547fffffffffffffffffffffffffffffffffffffffffffffffffffffffffffffff001685151590811790915582519384529083015280517fb21eb88b4e33b3f1281830a7178d74d8aa73220416215726b68ae23d539515cb9281900390910190a15050565b600081516041146121a6576040805162461bcd60e51b815260206004820152601f60248201527f45434453413a20696e76616c6964207369676e6174757265206c656e67746800604482015290519081900360640190fd5b60208201516040830151606084015160001a7f7fffffffffffffffffffffffffffffff5d576e7357a4501ddfe92f46681b20a08211156122175760405162461bcd60e51b8152600401808060200182810382526022815260200180612ae36022913960400191505060405180910390fd5b8060ff16601b1415801561222f57508060ff16601c14155b1561226b5760405162461bcd60e51b8152600401808060200182810382526022815260200180612b286022913960400191505060405180910390fd5b60408051600080825260208083018085528a905260ff85168385015260608301879052608083018690529251909260019260a080820193601f1981019281900390910190855afa1580156122c3573d6000803e3d6000fd5b5050604051601f1901519150506001600160a01b03811661232b576040805162461bcd60e51b815260206004820152601860248201527f45434453413a20696e76616c6964207369676e61747572650000000000000000604482015290519081900360640190fd5b93505050505b92915050565b60008787878787878760405160200180888152602001878152602001868152602001858152602001846001600160a01b03166001600160a01b031660601b8152601401838152602001828051906020019060200280838360005b838110156123a9578181015183820152602001612391565b50505050905001975050505050505050604051602081830303815290604052805190602001209050979650505050505050565b600081815b845181101561247b5760008582815181106123f857fe5b60200260200101519050808310156124405782816040516020018083815260200182815260200192505050604051602081830303815290604052805190602001209250612472565b808360405160200180838152602001828152602001925050506040516020818303038152906040528051906020012092505b506001016123e1565b507f0000000000000000000000000000000000000000000000000000000000000000149392505050565b6000806124ca60646124be85600563ffffffff61264716565b9063ffffffff6126a716565b90506125276001600160a01b037f000000000000000000000000000000000000000000000000000000000000000016857f00000000000000000000000000000000000000000000000000000000000000008463ffffffff6126e916565b612537838263ffffffff61277116565b949350505050565b8251819085901561262c57606060008060008061255b8a610d2e565b93985091965094509250905060006125768686868686611375565b15612604576125906125888d84612647565b6127106126a7565b9050886001600160a01b0316846001600160a01b0316866001600160a01b03167fac7a699eb95c3c6d390ec4626de17ef9a67b35891efdb197beba7c7fdd45fac48f858760405180848152602001838152602001828152602001935050505060405180910390a46126018782612771565b96505b8015612625576126256001600160a01b0389168e878463ffffffff6126e916565b5050505050505b61207e6001600160a01b03831688868463ffffffff6126e916565b60008261265657506000612331565b8282028284828161266357fe5b04146126a05760405162461bcd60e51b8152600401808060200182810382526021815260200180612b4a6021913960400191505060405180910390fd5b9392505050565b60006126a083836040518060400160405280601a81526020017f536166654d6174683a206469766973696f6e206279207a65726f0000000000008152506127b3565b604080516001600160a01b0380861660248301528416604482015260648082018490528251808303909101815260849091019091526020810180517bffffffffffffffffffffffffffffffffffffffffffffffffffffffff167f23b872dd00000000000000000000000000000000000000000000000000000000179052611acc908590612855565b60006126a083836040518060400160405280601e81526020017f536166654d6174683a207375627472616374696f6e206f766572666c6f77000081525061290b565b6000818361283f5760405162461bcd60e51b81526004018080602001828103825283818151815260200191508051906020019080838360005b838110156128045781810151838201526020016127ec565b50505050905090810190601f1680156128315780820380516001836020036101000a031916815260200191505b509250505060405180910390fd5b50600083858161284b57fe5b0495945050505050565b60606128aa826040518060400160405280602081526020017f5361666545524332303a206c6f772d6c6576656c2063616c6c206661696c6564815250856001600160a01b03166129659092919063ffffffff16565b805190915015612906578080602001905160208110156128c957600080fd5b50516129065760405162461bcd60e51b815260040180806020018281038252602a815260200180612b90602a913960400191505060405180910390fd5b505050565b6000818484111561295d5760405162461bcd60e51b81526020600482018181528351602484015283519092839260449091019190850190808383600083156128045781810151838201526020016127ec565b505050900390565b60606125378484600085606061297a85612adc565b6129cb576040805162461bcd60e51b815260206004820152601d60248201527f416464726573733a2063616c6c20746f206e6f6e2d636f6e7472616374000000604482015290519081900360640190fd5b60006060866001600160a01b031685876040518082805190602001908083835b60208310612a0a5780518252601f1990920191602091820191016129eb565b6001836020036101000a03801982511681845116808217855250505050505090500191505060006040518083038185875af1925050503d8060008114612a6c576040519150601f19603f3d011682016040523d82523d6000602084013e612a71565b606091505b50915091508115612a855791506125379050565b805115612a955780518082602001fd5b60405162461bcd60e51b81526020600482018181528651602484015286518793919283926044019190850190808383600083156128045781810151838201526020016127ec565b3b15159056fe45434453413a20696e76616c6964207369676e6174757265202773272076616c7565526566657272616c56616c696461746f723a2053656e646572206e6f742061646d696e45434453413a20696e76616c6964207369676e6174757265202776272076616c7565536166654d6174683a206d756c7469706c69636174696f6e206f766572666c6f774d6574615472616e73616374696f6e52656365697665723a207a65726f20616464726573735361666545524332303a204552433230206f7065726174696f6e20646964206e6f742073756363656564a264697066735822122077f2d13cbcb85fa08010a53c1e4ef27117b031e8c1c9273d55cef362af299f3164736f6c6343000605003345737461746553616c6557697468417574683a207a65726f20616464726573734d6574615472616e73616374696f6e52656365697665723a207a65726f206164647265737345737461746553616c6557697468417574683a206973206e6f74206120636f6e7472616374",
  "devdoc": {
    "methods": {
      "buyLandWithSand(address,address,address,uint256[],bytes32,uint256[],bytes32[],bytes,bytes)": {
        "params": {
          "assetIds": "asset ids (lands) that will be bought",
          "buyer": "address that perform the payment",
          "info": "[X_INDEX=0] x coordinate of the Land [Y_INDEX=1] y coordinate of the Land [SIZE_INDEX=2] size of the pack of Land to purchase [PRICE_INDEX=3] price in SAND to purchase that Land",
          "proof": "merkleProof for that particular Land",
          "referral": "referral id",
          "reserved": "the reserved address (if any)",
          "salt": "The salt submitted for verification.",
          "signature": "A signed message specifying tx details",
          "to": "address that will own the purchased Land"
        }
      },
      "changeAdmin(address)": {
        "details": "change the administrator to be `newAdmin`.",
        "params": {
          "newAdmin": "address of the new administrator."
        }
      },
      "disablePreviousSigningWallet(address)": {
        "details": "Disable compromised signing wallet",
        "params": {
          "disableWallet": "The wallet address to be disabled"
        }
      },
      "getAdmin()": {
        "details": "gives the current administrator of this contract.",
        "returns": {
          "_0": "the current administrator of this contract."
        }
      },
      "getSigningWallet()": {
        "details": "signing wallet authorized for referral",
        "returns": {
          "_0": "the address of the signing wallet"
        }
      },
      "isMetaTransactionProcessor(address)": {
        "details": "check whether address `who` is given meta-transaction execution rights.",
        "params": {
          "who": "The address to query."
        },
        "returns": {
          "_0": "whether the address has meta-transaction execution rights."
        }
      },
      "isReferralValid(bytes,address,address,uint256,uint256)": {
        "params": {
          "commissionRate": "The commissionRate of the referral",
          "expiryTime": "The expiry time of the referral",
          "referee": "The address of the referee",
          "referrer": "The address of the referrer",
          "signature": "The signature to check (signed referral)"
        },
        "returns": {
          "_0": "True if the referral is valid"
        }
      },
      "setMetaTransactionProcessor(address,bool)": {
        "details": "Enable or disable the ability of `metaTransactionProcessor` to perform meta-tx (metaTransactionProcessor rights).",
        "params": {
          "enabled": "set whether the metaTransactionProcessor is enabled or disabled.",
          "metaTransactionProcessor": "address that will be given/removed metaTransactionProcessor rights."
        }
      },
      "setReceivingWallet(address)": {
        "params": {
          "newWallet": "address of the new receiving wallet"
        }
      },
      "updateMaxCommissionRate(uint256)": {
        "details": "Update the maximum commission rate",
        "params": {
          "newMaxCommissionRate": "The new maximum commission rate"
        }
      },
      "updateSigningWallet(address)": {
        "details": "Update the signing wallet The previous wallet is still valid for a grace period (_previousSigningDelay). If you want to disable the previous wallet, use the disablePreviousSigningWallet function.",
        "params": {
          "newSigningWallet": "The new address of the signing wallet"
        }
      },
      "withdrawAssets(address,uint256[],uint256[])": {
        "params": {
          "assetIds": "the assetIds to be transferred",
          "to": "intended recipient of the asset tokens",
          "values": "the quantities of the assetIds to be transferred"
        }
      }
    },
    "title": "Estate Sale contract with referral"
  },
  "userdoc": {
    "methods": {
      "buyLandWithSand(address,address,address,uint256[],bytes32,uint256[],bytes32[],bytes,bytes)": {
        "notice": "buy Land with SAND using the merkle proof associated with it"
      },
      "getExpiryTime()": {
        "notice": "Gets the expiry time for the current sale"
      },
      "getMaxCommissionRate()": {
        "notice": "the max commission rate"
      },
      "getMerkleRoot()": {
        "notice": "Gets the Merkle root associated with the current sale"
      },
      "isReferralValid(bytes,address,address,uint256,uint256)": {
        "notice": "Check if a referral is valid"
      },
      "setReceivingWallet(address)": {
        "notice": "set the wallet receiving the proceeds"
      },
      "withdrawAssets(address,uint256[],uint256[])": {
        "notice": "enable Admin to withdraw remaining assets from EstateSaleWithFee contract"
      }
    },
    "notice": "This contract manages the sale of our lands as Estates"
  },
  "storageLayout": {
    "storage": [
      {
        "astId": 1129,
        "contract": "src/solc_0.6/EstateSale/EstateSaleWithAuth.sol:EstateSaleWithAuth",
        "label": "_status",
        "offset": 0,
        "slot": "0",
        "type": "t_uint256"
      },
      {
        "astId": 14099,
        "contract": "src/solc_0.6/EstateSale/EstateSaleWithAuth.sol:EstateSaleWithAuth",
        "label": "_admin",
        "offset": 0,
        "slot": "1",
        "type": "t_address"
      },
      {
        "astId": 14168,
        "contract": "src/solc_0.6/EstateSale/EstateSaleWithAuth.sol:EstateSaleWithAuth",
        "label": "_metaTransactionContracts",
        "offset": 0,
        "slot": "2",
        "type": "t_mapping(t_address,t_bool)"
      },
      {
        "astId": 12200,
        "contract": "src/solc_0.6/EstateSale/EstateSaleWithAuth.sol:EstateSaleWithAuth",
        "label": "_signingWallet",
        "offset": 0,
        "slot": "3",
        "type": "t_address"
      },
      {
        "astId": 12202,
        "contract": "src/solc_0.6/EstateSale/EstateSaleWithAuth.sol:EstateSaleWithAuth",
        "label": "_maxCommissionRate",
        "offset": 0,
        "slot": "4",
        "type": "t_uint256"
      },
      {
        "astId": 12206,
        "contract": "src/solc_0.6/EstateSale/EstateSaleWithAuth.sol:EstateSaleWithAuth",
        "label": "_previousSigningWallets",
        "offset": 0,
        "slot": "5",
        "type": "t_mapping(t_address,t_uint256)"
      },
      {
        "astId": 7750,
        "contract": "src/solc_0.6/EstateSale/EstateSaleWithAuth.sol:EstateSaleWithAuth",
        "label": "_wallet",
        "offset": 0,
        "slot": "6",
        "type": "t_address_payable"
      },
      {
        "astId": 7752,
        "contract": "src/solc_0.6/EstateSale/EstateSaleWithAuth.sol:EstateSaleWithAuth",
        "label": "_authValidator",
        "offset": 0,
        "slot": "7",
        "type": "t_contract(AuthValidator)7063"
      }
    ],
    "types": {
      "t_address": {
        "encoding": "inplace",
        "label": "address",
        "numberOfBytes": "20"
      },
      "t_address_payable": {
        "encoding": "inplace",
        "label": "address payable",
        "numberOfBytes": "20"
      },
      "t_bool": {
        "encoding": "inplace",
        "label": "bool",
        "numberOfBytes": "1"
      },
      "t_contract(AuthValidator)7063": {
        "encoding": "inplace",
        "label": "contract AuthValidator",
        "numberOfBytes": "20"
      },
      "t_mapping(t_address,t_bool)": {
        "encoding": "mapping",
        "key": "t_address",
        "label": "mapping(address => bool)",
        "numberOfBytes": "32",
        "value": "t_bool"
      },
      "t_mapping(t_address,t_uint256)": {
        "encoding": "mapping",
        "key": "t_address",
        "label": "mapping(address => uint256)",
        "numberOfBytes": "32",
        "value": "t_uint256"
      },
      "t_uint256": {
        "encoding": "inplace",
        "label": "uint256",
        "numberOfBytes": "32"
      }
    }
  }
}