{
  "address": "0x1412CfbbAa3bcA0E23406D897891d07772c2b082",
  "abi": [
    {
      "inputs": [
        {
          "internalType": "address",
          "name": "landAddress",
          "type": "address"
        },
        {
          "internalType": "address",
          "name": "sandContractAddress",
          "type": "address"
        },
        {
          "internalType": "address",
          "name": "initialMetaTx",
          "type": "address"
        },
        {
          "internalType": "address",
          "name": "admin",
          "type": "address"
        },
        {
          "internalType": "address payable",
          "name": "initialWalletAddress",
          "type": "address"
        },
        {
          "internalType": "bytes32",
          "name": "merkleRoot",
          "type": "bytes32"
        },
        {
          "internalType": "uint256",
          "name": "expiryTime",
          "type": "uint256"
        },
        {
          "internalType": "address",
          "name": "initialSigningWallet",
          "type": "address"
        },
        {
          "internalType": "uint256",
          "name": "initialMaxCommissionRate",
          "type": "uint256"
        },
        {
          "internalType": "address",
          "name": "estate",
          "type": "address"
        },
        {
          "internalType": "address",
          "name": "asset",
          "type": "address"
        },
        {
          "internalType": "address",
          "name": "feeDistributor",
          "type": "address"
        },
        {
          "internalType": "address",
          "name": "authValidator",
          "type": "address"
        }
      ],
      "stateMutability": "nonpayable",
      "type": "constructor"
    },
    {
      "anonymous": false,
      "inputs": [
        {
          "indexed": false,
          "internalType": "address",
          "name": "oldAdmin",
          "type": "address"
        },
        {
          "indexed": false,
          "internalType": "address",
          "name": "newAdmin",
          "type": "address"
        }
      ],
      "name": "AdminChanged",
      "type": "event"
    },
    {
      "anonymous": false,
      "inputs": [
        {
          "indexed": true,
          "internalType": "address",
          "name": "buyer",
          "type": "address"
        },
        {
          "indexed": true,
          "internalType": "address",
          "name": "to",
          "type": "address"
        },
        {
          "indexed": true,
          "internalType": "uint256",
          "name": "topCornerId",
          "type": "uint256"
        },
        {
          "indexed": false,
          "internalType": "uint256",
          "name": "size",
          "type": "uint256"
        },
        {
          "indexed": false,
          "internalType": "uint256",
          "name": "price",
          "type": "uint256"
        },
        {
          "indexed": false,
          "internalType": "address",
          "name": "token",
          "type": "address"
        },
        {
          "indexed": false,
          "internalType": "uint256",
          "name": "amountPaid",
          "type": "uint256"
        }
      ],
      "name": "LandQuadPurchased",
      "type": "event"
    },
    {
      "anonymous": false,
      "inputs": [
        {
          "indexed": true,
          "internalType": "uint256",
          "name": "newMaxCommissionRate",
          "type": "uint256"
        }
      ],
      "name": "MaxCommissionRateUpdated",
      "type": "event"
    },
    {
      "anonymous": false,
      "inputs": [
        {
          "indexed": false,
          "internalType": "address",
          "name": "metaTransactionProcessor",
          "type": "address"
        },
        {
          "indexed": false,
          "internalType": "bool",
          "name": "enabled",
          "type": "bool"
        }
      ],
      "name": "MetaTransactionProcessor",
      "type": "event"
    },
    {
      "anonymous": false,
      "inputs": [
        {
          "indexed": true,
          "internalType": "address",
          "name": "newWallet",
          "type": "address"
        }
      ],
      "name": "NewReceivingWallet",
      "type": "event"
    },
    {
      "anonymous": false,
      "inputs": [
        {
          "indexed": true,
          "internalType": "address",
          "name": "referrer",
          "type": "address"
        },
        {
          "indexed": true,
          "internalType": "address",
          "name": "referee",
          "type": "address"
        },
        {
          "indexed": true,
          "internalType": "address",
          "name": "token",
          "type": "address"
        },
        {
          "indexed": false,
          "internalType": "uint256",
          "name": "amount",
          "type": "uint256"
        },
        {
          "indexed": false,
          "internalType": "uint256",
          "name": "commission",
          "type": "uint256"
        },
        {
          "indexed": false,
          "internalType": "uint256",
          "name": "commissionRate",
          "type": "uint256"
        }
      ],
      "name": "ReferralUsed",
      "type": "event"
    },
    {
      "anonymous": false,
      "inputs": [
        {
          "indexed": true,
          "internalType": "address",
          "name": "newSigningWallet",
          "type": "address"
        }
      ],
      "name": "SigningWalletUpdated",
      "type": "event"
    },
    {
      "inputs": [
        {
          "internalType": "address",
          "name": "buyer",
          "type": "address"
        },
        {
          "internalType": "address",
          "name": "to",
          "type": "address"
        },
        {
          "internalType": "address",
          "name": "reserved",
          "type": "address"
        },
        {
          "internalType": "uint256[]",
          "name": "info",
          "type": "uint256[]"
        },
        {
          "internalType": "bytes32",
          "name": "salt",
          "type": "bytes32"
        },
        {
          "internalType": "uint256[]",
          "name": "assetIds",
          "type": "uint256[]"
        },
        {
          "internalType": "bytes32[]",
          "name": "proof",
          "type": "bytes32[]"
        },
        {
          "internalType": "bytes",
          "name": "referral",
          "type": "bytes"
        },
        {
          "internalType": "bytes",
          "name": "signature",
          "type": "bytes"
        }
      ],
      "name": "buyLandWithSand",
      "outputs": [],
      "stateMutability": "nonpayable",
      "type": "function"
    },
    {
      "inputs": [
        {
          "internalType": "address",
          "name": "newAdmin",
          "type": "address"
        }
      ],
      "name": "changeAdmin",
      "outputs": [],
      "stateMutability": "nonpayable",
      "type": "function"
    },
    {
      "inputs": [
        {
          "internalType": "bytes",
          "name": "referral",
          "type": "bytes"
        }
      ],
      "name": "decodeReferral",
      "outputs": [
        {
          "internalType": "bytes",
          "name": "",
          "type": "bytes"
        },
        {
          "internalType": "address",
          "name": "",
          "type": "address"
        },
        {
          "internalType": "address",
          "name": "",
          "type": "address"
        },
        {
          "internalType": "uint256",
          "name": "",
          "type": "uint256"
        },
        {
          "internalType": "uint256",
          "name": "",
          "type": "uint256"
        }
      ],
      "stateMutability": "pure",
      "type": "function"
    },
    {
      "inputs": [
        {
          "internalType": "address",
          "name": "disableWallet",
          "type": "address"
        }
      ],
      "name": "disablePreviousSigningWallet",
      "outputs": [],
      "stateMutability": "nonpayable",
      "type": "function"
    },
    {
      "inputs": [],
      "name": "getAdmin",
      "outputs": [
        {
          "internalType": "address",
          "name": "",
          "type": "address"
        }
      ],
      "stateMutability": "view",
      "type": "function"
    },
    {
      "inputs": [],
      "name": "getExpiryTime",
      "outputs": [
        {
          "internalType": "uint256",
          "name": "",
          "type": "uint256"
        }
      ],
      "stateMutability": "view",
      "type": "function"
    },
    {
      "inputs": [],
      "name": "getMaxCommissionRate",
      "outputs": [
        {
          "internalType": "uint256",
          "name": "",
          "type": "uint256"
        }
      ],
      "stateMutability": "view",
      "type": "function"
    },
    {
      "inputs": [],
      "name": "getMerkleRoot",
      "outputs": [
        {
          "internalType": "bytes32",
          "name": "",
          "type": "bytes32"
        }
      ],
      "stateMutability": "view",
      "type": "function"
    },
    {
      "inputs": [],
      "name": "getSigningWallet",
      "outputs": [
        {
          "internalType": "address",
          "name": "",
          "type": "address"
        }
      ],
      "stateMutability": "view",
      "type": "function"
    },
    {
      "inputs": [
        {
          "internalType": "address",
          "name": "who",
          "type": "address"
        }
      ],
      "name": "isMetaTransactionProcessor",
      "outputs": [
        {
          "internalType": "bool",
          "name": "",
          "type": "bool"
        }
      ],
      "stateMutability": "view",
      "type": "function"
    },
    {
      "inputs": [
        {
          "internalType": "bytes",
          "name": "signature",
          "type": "bytes"
        },
        {
          "internalType": "address",
          "name": "referrer",
          "type": "address"
        },
        {
          "internalType": "address",
          "name": "referee",
          "type": "address"
        },
        {
          "internalType": "uint256",
          "name": "expiryTime",
          "type": "uint256"
        },
        {
          "internalType": "uint256",
          "name": "commissionRate",
          "type": "uint256"
        }
      ],
      "name": "isReferralValid",
      "outputs": [
        {
          "internalType": "bool",
          "name": "",
          "type": "bool"
        }
      ],
      "stateMutability": "view",
      "type": "function"
    },
    {
      "inputs": [
        {
          "internalType": "address",
          "name": "",
          "type": "address"
        },
        {
          "internalType": "address",
          "name": "",
          "type": "address"
        },
        {
          "internalType": "uint256[]",
          "name": "",
          "type": "uint256[]"
        },
        {
          "internalType": "uint256[]",
          "name": "",
          "type": "uint256[]"
        },
        {
          "internalType": "bytes",
          "name": "",
          "type": "bytes"
        }
      ],
      "name": "onERC1155BatchReceived",
      "outputs": [
        {
          "internalType": "bytes4",
          "name": "",
          "type": "bytes4"
        }
      ],
      "stateMutability": "pure",
      "type": "function"
    },
    {
      "inputs": [
        {
          "internalType": "address",
          "name": "",
          "type": "address"
        },
        {
          "internalType": "address",
          "name": "",
          "type": "address"
        },
        {
          "internalType": "uint256",
          "name": "",
          "type": "uint256"
        },
        {
          "internalType": "uint256",
          "name": "",
          "type": "uint256"
        },
        {
          "internalType": "bytes",
          "name": "",
          "type": "bytes"
        }
      ],
      "name": "onERC1155Received",
      "outputs": [
        {
          "internalType": "bytes4",
          "name": "",
          "type": "bytes4"
        }
      ],
      "stateMutability": "pure",
      "type": "function"
    },
    {
      "inputs": [
        {
          "internalType": "address",
          "name": "metaTransactionProcessor",
          "type": "address"
        },
        {
          "internalType": "bool",
          "name": "enabled",
          "type": "bool"
        }
      ],
      "name": "setMetaTransactionProcessor",
      "outputs": [],
      "stateMutability": "nonpayable",
      "type": "function"
    },
    {
      "inputs": [
        {
          "internalType": "address payable",
          "name": "newWallet",
          "type": "address"
        }
      ],
      "name": "setReceivingWallet",
      "outputs": [],
      "stateMutability": "nonpayable",
      "type": "function"
    },
    {
      "inputs": [
        {
          "internalType": "uint256",
          "name": "newMaxCommissionRate",
          "type": "uint256"
        }
      ],
      "name": "updateMaxCommissionRate",
      "outputs": [],
      "stateMutability": "nonpayable",
      "type": "function"
    },
    {
      "inputs": [
        {
          "internalType": "address",
          "name": "newSigningWallet",
          "type": "address"
        }
      ],
      "name": "updateSigningWallet",
      "outputs": [],
      "stateMutability": "nonpayable",
      "type": "function"
    },
    {
      "inputs": [
        {
          "internalType": "address",
          "name": "to",
          "type": "address"
        },
        {
          "internalType": "uint256[]",
          "name": "assetIds",
          "type": "uint256[]"
        },
        {
          "internalType": "uint256[]",
          "name": "values",
          "type": "uint256[]"
        }
      ],
      "name": "withdrawAssets",
      "outputs": [],
      "stateMutability": "nonpayable",
      "type": "function"
    }
  ],
  "transactionHash": "0x175a5ae175873b8865f852a551b6e5eb120cf2fad99fec0ae3978538f2c286de",
  "args": [
    "0x9d305a42A3975Ee4c1C57555BeD5919889DCE63F",
    "0xBbba073C31bF03b8ACf7c28EF0738DeCF3695683",
    "0xBbba073C31bF03b8ACf7c28EF0738DeCF3695683",
    "0xfD30a48Bc6c56E24B0ebF1B0117d750e2CFf7531",
    "0x1b47567CBE36e63293A7A2018F79687f942aB24C",
    "0x2db025d8b20eecc056b5c72a2a49be7409f51ba713deb0b7b0bba3ceeb031554",
    1722254400,
    "0x3044719d139F866a44c988823513eCB93060bF1b",
    2000,
    "0x0000000000000000000000000000000000000000",
    "0xDbc52cd5b8EdA1A7BCBABb838ca927d23E3673e5",
    "0x42a4a3795446A4c070565da201c6303fC78a2569",
    "0x7804fb2AF15bB1323795A888B09913cEf629Ffda"
  ],
  "numDeployments": 1,
  "linkedData": [
    {
      "x": 120,
      "y": 243,
      "size": 1,
      "price": "1011000000000000000000",
      "reserved": "",
      "salt": "0xa984cc450e42c8ab1713516d0414c190d03c197b8011709b5cd71a0774f7d628",
      "assetIds": []
    },
    {
      "x": 120,
      "y": 244,
      "size": 1,
      "price": "1011000000000000000000",
      "reserved": "",
      "salt": "0xebab638de2382a0f9d8b10a7289b141e3ecfc89aa4afe09174490f87601bdabf",
      "assetIds": []
    },
    {
      "x": 120,
      "y": 245,
      "size": 1,
      "price": "1011000000000000000000",
      "reserved": "",
      "salt": "0xd8d21d3fd6dba7148f17114ab7d3ba2acea19ea2f565b078eb324b3b8521f205",
      "assetIds": []
    },
    {
      "x": 120,
      "y": 249,
      "size": 1,
      "price": "1011000000000000000000",
      "reserved": "",
      "salt": "0xcb6896d079ed6bf72557405992b1e50e180cbf091b062ab1fbc315714eb3bea4",
      "assetIds": []
    },
    {
      "x": 120,
      "y": 250,
      "size": 1,
      "price": "1011000000000000000000",
      "reserved": "",
      "salt": "0xd36aa1b2dff62ae7f48fd9b067efb7b0796101860c3c30beeb15a9ec89146068",
      "assetIds": []
    },
    {
      "x": 120,
      "y": 251,
      "size": 1,
      "price": "1011000000000000000000",
      "reserved": "",
      "salt": "0xf98a9736a761c5af466e205d564d79940832ee9ee45404dc8286d9b8795f8556",
      "assetIds": []
    },
    {
      "x": 120,
      "y": 252,
      "size": 1,
      "price": "1011000000000000000000",
      "reserved": "",
      "salt": "0x764d548d89579a05de70da3949dbe71325b96db2117effb1951e6d1178ac1cf5",
      "assetIds": []
    },
    {
      "x": 120,
      "y": 253,
      "size": 1,
      "price": "1011000000000000000000",
      "reserved": "",
      "salt": "0xbc25388724dbfcf793c324b137229d949fb9357a87558904f047dff7e147ba24",
      "assetIds": []
    },
    {
      "x": 120,
      "y": 254,
      "size": 1,
      "price": "1011000000000000000000",
      "reserved": "",
      "salt": "0xb5e04ee87b4dfb4b1e39e9d7f7f17b16457d798e50a30e3b92431173e051e1bd",
      "assetIds": []
    },
    {
      "x": 121,
      "y": 243,
      "size": 1,
      "price": "1011000000000000000000",
      "reserved": "",
      "salt": "0x08fb01ac74df17595c8fd3c66bb00a6caef048cb402165134cb2fd8898c5d1e1",
      "assetIds": []
    },
    {
      "x": 121,
      "y": 244,
      "size": 1,
      "price": "1011000000000000000000",
      "reserved": "",
      "salt": "0xc389d6772eba786d69da4c367c39646d1e5bd5a47f972c573d64ff8d35ae846e",
      "assetIds": []
    },
    {
      "x": 121,
      "y": 245,
      "size": 1,
      "price": "1011000000000000000000",
      "reserved": "",
      "salt": "0x41239af773a6bae77b8ed4e63a2563ec32f697f2ca682dcce8dfdfc3cbb8eed1",
      "assetIds": []
    },
    {
      "x": 121,
      "y": 249,
      "size": 1,
      "price": "1011000000000000000000",
      "reserved": "",
      "salt": "0xd91d4dfe0b4692c5f0faa64e2d2a147fb60a72cd36daf7dcb4a5cd1c87a7027b",
      "assetIds": []
    },
    {
      "x": 121,
      "y": 250,
      "size": 1,
      "price": "1011000000000000000000",
      "reserved": "",
      "salt": "0x5599169b25a2ee903361c10eae87f0b4a94fd3bebeb92740f51d77ecfd955293",
      "assetIds": []
    },
    {
      "x": 121,
      "y": 251,
      "size": 1,
      "price": "1011000000000000000000",
      "reserved": "",
      "salt": "0xbee95d71bb91c85307b8d7f16f01355abc65d62dda258c137797801fe2d390fd",
      "assetIds": []
    },
    {
      "x": 121,
      "y": 252,
      "size": 1,
      "price": "1011000000000000000000",
      "reserved": "",
      "salt": "0x86249e68561e66c7cfff045b93cc45251f38eb958fe5131ce5ab7ceaf00488eb",
      "assetIds": []
    },
    {
      "x": 121,
      "y": 253,
      "size": 1,
      "price": "1011000000000000000000",
      "reserved": "0x7a9fe22691c811ea339d9b73150e6911a5343dca",
      "salt": "0x6228f3ec26a7eb8dfc621a645991b23870dca163a91a49316cd77ab7d5799e46",
      "assetIds": []
    },
    {
      "x": 121,
      "y": 254,
      "size": 1,
      "price": "1011000000000000000000",
      "reserved": "",
      "salt": "0x6514cec57f5c5da33e16ecd4182e7fd8ac5777d6e908c2ef5c31124f3c9d00c8",
      "assetIds": []
    },
    {
      "x": 122,
      "y": 243,
      "size": 1,
      "price": "1011000000000000000000",
      "reserved": "",
      "salt": "0xdb7db17a96489bed74596f356c1656409ea4e3c6bf36c2c91e86f11feddb2785",
      "assetIds": []
    },
    {
      "x": 122,
      "y": 244,
      "size": 1,
      "price": "1011000000000000000000",
      "reserved": "",
      "salt": "0x3989a3a1517b5e1f7f231cbfdba922d528e1b77d4f714453c01f493210110980",
      "assetIds": []
    },
    {
      "x": 122,
      "y": 245,
      "size": 1,
      "price": "1011000000000000000000",
      "reserved": "",
      "salt": "0x4b351acf7ed6a125dd5a41ea52bdd61cc81a8daa00b857dd0df82f5b448d3aab",
      "assetIds": []
    },
    {
      "x": 122,
      "y": 249,
      "size": 1,
      "price": "1011000000000000000000",
      "reserved": "",
      "salt": "0x1a2cdbefc25f36086decd72abc2c782c0a4998dca0fda95369b700b069246ba7",
      "assetIds": []
    },
    {
      "x": 122,
      "y": 250,
      "size": 1,
      "price": "1011000000000000000000",
      "reserved": "",
      "salt": "0xbc1cecbfb7803937c7893d0423ec4ec8c7c5b8a17581eefab0d8fd356369ea94",
      "assetIds": []
    },
    {
      "x": 122,
      "y": 251,
      "size": 1,
      "price": "1011000000000000000000",
      "reserved": "",
      "salt": "0x7f2837ac3a8ed8ccc792412c612afedf6c0dc261b0c652184fb61d159f2dfff3",
      "assetIds": []
    },
    {
      "x": 122,
      "y": 252,
      "size": 1,
      "price": "1011000000000000000000",
      "reserved": "",
      "salt": "0x634b39c790b29df10de9f7c10e41a236e46b661e92334c969818fc4495d38acf",
      "assetIds": []
    },
    {
      "x": 122,
      "y": 253,
      "size": 1,
      "price": "1011000000000000000000",
      "reserved": "",
      "salt": "0x8c5b45bfd57908f37374ccbf89aebf3d22f20080bc4147a62ae46e07abad2db4",
      "assetIds": []
    },
    {
      "x": 122,
      "y": 254,
      "size": 1,
      "price": "1011000000000000000000",
      "reserved": "",
      "salt": "0x57ece94ccc02ee7938baaef64f26ecd1662300694d2e8a7e7b55f992bf6b2a32",
      "assetIds": []
    },
    {
      "x": 123,
      "y": 243,
      "size": 1,
      "price": "1011000000000000000000",
      "reserved": "",
      "salt": "0x8c20ac8eef3b3524b19e94a6e7bfee6ad6658c26f4b5dda702174ab5f52da511",
      "assetIds": []
    },
    {
      "x": 123,
      "y": 244,
      "size": 1,
      "price": "1011000000000000000000",
      "reserved": "0x7a9fe22691c811ea339d9b73150e6911a5343dca",
      "salt": "0x1c64093c588b988d579ea6498994e0e43bc4df0ffb97453faa3e2fb51cc2c813",
      "assetIds": []
    },
    {
      "x": 123,
      "y": 245,
      "size": 1,
      "price": "1011000000000000000000",
      "reserved": "",
      "salt": "0x634dd48ad0a83e1ece06ba31b0c8a16b734c4794a009fec4a5221a0fad09bcaf",
      "assetIds": []
    },
    {
      "x": 123,
      "y": 246,
      "size": 1,
      "price": "1011000000000000000000",
      "reserved": "",
      "salt": "0x44e6cb93b00c85166085888e434d7fb94e692fd80c7ea03e514715cd58d7ef1c",
      "assetIds": []
    },
    {
      "x": 123,
      "y": 247,
      "size": 1,
      "price": "1011000000000000000000",
      "reserved": "",
      "salt": "0xc1d26db1bbc1a64f4f583fcdf80159c320200378dbbd640ffc45a929a7fc8116",
      "assetIds": []
    },
    {
      "x": 123,
      "y": 248,
      "size": 1,
      "price": "1011000000000000000000",
      "reserved": "",
      "salt": "0x6a984f49dff9886e885ce6ccbeb31ba0e77866812532172597a82101280068c8",
      "assetIds": []
    },
    {
      "x": 123,
      "y": 249,
      "size": 1,
      "price": "1011000000000000000000",
      "reserved": "",
      "salt": "0x4f6275b09b2c38eb9633d46d32b19f980d5574eef8183113ee7401b832e29e9d",
      "assetIds": []
    },
    {
      "x": 123,
      "y": 250,
      "size": 1,
      "price": "1011000000000000000000",
      "reserved": "",
      "salt": "0x5431560705659aedab9ed67f069b3485ffed694eb4d8524bb06c0d9cf25ba2c4",
      "assetIds": []
    },
    {
      "x": 123,
      "y": 251,
      "size": 1,
      "price": "1011000000000000000000",
      "reserved": "0x7a9fe22691c811ea339d9b73150e6911a5343dca",
      "salt": "0xfd3bf903d23e3e55f1fc0d0f5116000e4092c9a772e1d4915fcc3a738c182987",
      "assetIds": []
    },
    {
      "x": 123,
      "y": 252,
      "size": 1,
      "price": "1011000000000000000000",
      "reserved": "",
      "salt": "0xf7938733e1d1f5c9b4d6dc7594be7573d86f2e9a42359ad063ed7c9579b85d7c",
      "assetIds": []
    },
    {
      "x": 123,
      "y": 253,
      "size": 1,
      "price": "1011000000000000000000",
      "reserved": "",
      "salt": "0xcd3b0a86e518baccc5f6a248809225fcb1deab8c9c8be065741bc057323af709",
      "assetIds": []
    },
    {
      "x": 123,
      "y": 254,
      "size": 1,
      "price": "1011000000000000000000",
      "reserved": "",
      "salt": "0x8fb06d47aee30f3e99c0799071e5756d2fd936a6b227eebe07992b36dcd98037",
      "assetIds": []
    },
    {
      "x": 124,
      "y": 243,
      "size": 1,
      "price": "1011000000000000000000",
      "reserved": "",
      "salt": "0x910d6c8d816d5507811cf5e4fd802ead6e4db44d8e4c90159aac6c957abd7f1e",
      "assetIds": []
    },
    {
      "x": 124,
      "y": 244,
      "size": 1,
      "price": "1011000000000000000000",
      "reserved": "",
      "salt": "0xd2e7cb2055e55a6ed9a8cafc9a70bc6ac76618c957805a91671fd03133999dab",
      "assetIds": []
    },
    {
      "x": 124,
      "y": 245,
      "size": 1,
      "price": "1011000000000000000000",
      "reserved": "",
      "salt": "0xe3cbfd0920b715e4a27e47c0cdf9258700c12dfe41736c8d940fd0896437edf4",
      "assetIds": []
    },
    {
      "x": 124,
      "y": 246,
      "size": 1,
      "price": "1011000000000000000000",
      "reserved": "",
      "salt": "0x1eb899d6fa2af283c30f9fc9cac825c589178881c54a3727609d6e044989fd18",
      "assetIds": []
    },
    {
      "x": 124,
      "y": 247,
      "size": 1,
      "price": "1011000000000000000000",
      "reserved": "",
      "salt": "0x01c7a60b6be1e204e0f4f5b9f68db71b4b7a7c646f1e915c6ebd5756b5aeb0e8",
      "assetIds": []
    },
    {
      "x": 124,
      "y": 248,
      "size": 1,
      "price": "1011000000000000000000",
      "reserved": "",
      "salt": "0xd7ed47894c3325f0987bd844125e67ed12f95cda4241055ec1901624a83334e0",
      "assetIds": []
    },
    {
      "x": 124,
      "y": 249,
      "size": 1,
      "price": "1011000000000000000000",
      "reserved": "",
      "salt": "0xc55736b11268492064103d6323d8ad4012c88e46f364599f71f8e4954747bd9e",
      "assetIds": []
    },
    {
      "x": 124,
      "y": 250,
      "size": 1,
      "price": "1011000000000000000000",
      "reserved": "",
      "salt": "0xf4644516960faf45554a7fc7f49b81603671029fc1ad14bf97b2f42b9dded405",
      "assetIds": []
    },
    {
      "x": 124,
      "y": 251,
      "size": 1,
      "price": "1011000000000000000000",
      "reserved": "",
      "salt": "0x6b786b55f9bb094f56ce2027a009298db981fe00738a12666242249e6134f20d",
      "assetIds": []
    },
    {
      "x": 124,
      "y": 252,
      "size": 1,
      "price": "1011000000000000000000",
      "reserved": "",
      "salt": "0x3946965b0695aecbed20cc5beef28009bd00553a4333a6ef105eab1c73a7fa5b",
      "assetIds": []
    },
    {
      "x": 124,
      "y": 253,
      "size": 1,
      "price": "1011000000000000000000",
      "reserved": "",
      "salt": "0x971be1c42076dc77405482cfefd15b03e9a914e1b43a6eb6fc8156244c29169c",
      "assetIds": []
    },
    {
      "x": 124,
      "y": 254,
      "size": 1,
      "price": "1011000000000000000000",
      "reserved": "",
      "salt": "0x9d99532c71bb37c42aebc11c4f9c70133b466c3a48f95e24f2dcc3223387460f",
      "assetIds": []
    },
    {
      "x": 125,
      "y": 243,
      "size": 1,
      "price": "1011000000000000000000",
      "reserved": "",
      "salt": "0x1232307c37cede1daecc24edaba72b2e28d8bc8c8f776c2b226a0845b1c03086",
      "assetIds": []
    },
    {
      "x": 125,
      "y": 244,
      "size": 1,
      "price": "1011000000000000000000",
      "reserved": "",
      "salt": "0x847e5d245338e9074f70a351fc5554c783a4122b18ef3b40ca76230d410558af",
      "assetIds": []
    },
    {
      "x": 125,
      "y": 245,
      "size": 1,
      "price": "1011000000000000000000",
      "reserved": "",
      "salt": "0xc1d635b64995756d825dbf17b5d456759c9266206f4765cb500ad9a968a100d5",
      "assetIds": []
    },
    {
      "x": 125,
      "y": 246,
      "size": 1,
      "price": "4683000000000000000000",
      "reserved": "",
      "salt": "0x7011aa3c64725579cea1fba28c31c714476033c3fa3cd7c066b450f51bdc742f",
      "assetIds": [
        "24689042631375448200406931177967022842173725249442692554",
        "24689416775794604911553991321284198210626757168173694410"
      ]
    },
    {
      "x": 125,
      "y": 247,
      "size": 1,
      "price": "4683000000000000000000",
      "reserved": "",
      "salt": "0x8bedcbeec90b6664a4709972b3fe92bec1dc5bfca304c640a2231f2f1eaf6ba0",
      "assetIds": [
        "24689042631375448200406931177967022842173725249442692554",
        "24689416775794604911553991321284198210626757168173694410"
      ]
    },
    {
      "x": 125,
      "y": 248,
      "size": 1,
      "price": "4683000000000000000000",
      "reserved": "",
      "salt": "0xba4a7ef722db2654f4e45cce2be11efa3ce53cb72a641c7afdbbf154b1ce6204",
      "assetIds": [
        "24689042631375448200406931177967022842173725249442692554",
        "24689416775794604911553991321284198210626757168173694410"
      ]
    },
    {
      "x": 125,
      "y": 249,
      "size": 1,
      "price": "1011000000000000000000",
      "reserved": "",
      "salt": "0x71ce20c32ef65253062a002aacdfa4549d21fee8356fa4865a5ca19703d07b2e",
      "assetIds": []
    },
    {
      "x": 125,
      "y": 250,
      "size": 1,
      "price": "4683000000000000000000",
      "reserved": "",
      "salt": "0x5e3644ba8b16a99c04091f6fe543f4b601182bb51f958e0ba9750c5e476625e2",
      "assetIds": [
        "24689042631375448200406931177967022842173725249442692554",
        "24689416775794604911553991321284198210626757168173694410"
      ]
    },
    {
      "x": 125,
      "y": 251,
      "size": 1,
      "price": "4683000000000000000000",
      "reserved": "",
      "salt": "0xf70555f1b8d133f61ba8e881ebcf5a0cac530189d4411ed8e2b7d3ebacb826af",
      "assetIds": [
        "24689042631375448200406931177967022842173725249442692554",
        "24689416775794604911553991321284198210626757168173694410"
      ]
    },
    {
      "x": 125,
      "y": 252,
      "size": 1,
      "price": "1011000000000000000000",
      "reserved": "",
      "salt": "0xc9b19fa903f9c1c6e0cb9d65a038081e2f037ceda6d0a25742e970c377ecc0b1",
      "assetIds": []
    },
    {
      "x": 125,
      "y": 253,
      "size": 1,
      "price": "1011000000000000000000",
      "reserved": "",
      "salt": "0x62d29abf9b56df77e79ad478ef1ba5aae5ce35af328d90ab491b66821805acc5",
      "assetIds": []
    },
    {
      "x": 125,
      "y": 254,
      "size": 1,
      "price": "1011000000000000000000",
      "reserved": "",
      "salt": "0x6bc4934b233b711dea6b868843d8900a90ea2fe7996b885cc163e1109aebb6a3",
      "assetIds": []
    },
    {
      "x": 126,
      "y": 243,
      "size": 1,
      "price": "1011000000000000000000",
      "reserved": "",
      "salt": "0xc5c41a98c6d5532f65e36569aade3d01c88a50aeab1b77d024eff5714fd9af54",
      "assetIds": []
    },
    {
      "x": 126,
      "y": 244,
      "size": 1,
      "price": "1011000000000000000000",
      "reserved": "",
      "salt": "0x3db57e82ff56646bcb053281731ba3e8915c55ae75c13675a5c527fbe6a1c50d",
      "assetIds": []
    },
    {
      "x": 126,
      "y": 245,
      "size": 1,
      "price": "4683000000000000000000",
      "reserved": "",
      "salt": "0x4146f82b4ab295d95274d41b9fcc9e0d688d1352f4fc6aad352c32267b6902cc",
      "assetIds": [
        "24689042631375448200406931177967022842173725249442692554",
        "24689416775794604911553991321284198210626757168173694410"
      ]
    },
    {
      "x": 126,
      "y": 252,
      "size": 1,
      "price": "4683000000000000000000",
      "reserved": "",
      "salt": "0x8612e5e83411d125d557432696ca0e084a16743fb258eb749935128266b887ae",
      "assetIds": [
        "24689042631375448200406931177967022842173725249442692554",
        "24689416775794604911553991321284198210626757168173694410"
      ]
    },
    {
      "x": 126,
      "y": 253,
      "size": 1,
      "price": "1011000000000000000000",
      "reserved": "",
      "salt": "0xa9e9285a69bfbb54111a9a507cb2748c00e700d7393b785d58754662c2ba53ee",
      "assetIds": []
    },
    {
      "x": 126,
      "y": 254,
      "size": 1,
      "price": "1011000000000000000000",
      "reserved": "",
      "salt": "0x6f41536b5a607e1a56f252ae5328c0110dbc27547c607e3bba4b6d11fa5f66cd",
      "assetIds": []
    },
    {
      "x": 126,
      "y": 255,
      "size": 1,
      "price": "1011000000000000000000",
      "reserved": "",
      "salt": "0x4c6cc1ed8498271dc440a4445ded3fdb592ab19f957fa63f81da25fdaf87d8b3",
      "assetIds": []
    },
    {
      "x": 126,
      "y": 256,
      "size": 1,
      "price": "1011000000000000000000",
      "reserved": "",
      "salt": "0xb5888baee1392213bbc352637599c3a240790a138873991fa86f73562d11d38d",
      "assetIds": []
    },
    {
      "x": 126,
      "y": 257,
      "size": 1,
      "price": "1011000000000000000000",
      "reserved": "",
      "salt": "0x5723b8dbdbffaa1e59d3bfa9d22a18e0c59b87c5d4059d0eb0590f0d56c73224",
      "assetIds": []
    },
    {
      "x": 127,
      "y": 243,
      "size": 1,
      "price": "1011000000000000000000",
      "reserved": "",
      "salt": "0x0ca88c2a919209c0acfc2f07000165758a9b0e61d097b1bdd3e0ce7875bde41d",
      "assetIds": []
    },
    {
      "x": 127,
      "y": 244,
      "size": 1,
      "price": "1011000000000000000000",
      "reserved": "",
      "salt": "0xf725809188023624c5d2a069f9777e6d63634b472b9ddc82d0d72cae366ce0f6",
      "assetIds": []
    },
    {
      "x": 127,
      "y": 245,
      "size": 1,
      "price": "4683000000000000000000",
      "reserved": "",
      "salt": "0xeac948562fcf6d84ff7c418946cc81992c332c5398ecca599056538662e7ee01",
      "assetIds": [
        "24689042631375448200406931177967022842173725249442692554",
        "24689416775794604911553991321284198210626757168173694410"
      ]
    },
    {
      "x": 127,
      "y": 252,
      "size": 1,
      "price": "1011000000000000000000",
      "reserved": "",
      "salt": "0x23add1487dc4978ef4f8eb1c47e1205138a7a6f3818361a7b17845b79f5e1ec3",
      "assetIds": []
    },
    {
      "x": 127,
      "y": 253,
      "size": 1,
      "price": "1011000000000000000000",
      "reserved": "",
      "salt": "0xebd2e75cbb7d7b579bbdbd2ac7afdd156588e1de894708d496a63b7460038e85",
      "assetIds": []
    },
    {
      "x": 127,
      "y": 254,
      "size": 1,
      "price": "1011000000000000000000",
      "reserved": "",
      "salt": "0x16f047123a4fa906c29b4ee340c083d44bbdd92eefd0129290dbdbae3e1ae74c",
      "assetIds": []
    },
    {
      "x": 127,
      "y": 255,
      "size": 1,
      "price": "1011000000000000000000",
      "reserved": "",
      "salt": "0x46707cb364c99f1ae94f188543618c52ac4cc3695e2dc55bf48c0c7234c546bc",
      "assetIds": []
    },
    {
      "x": 127,
      "y": 256,
      "size": 1,
      "price": "1011000000000000000000",
      "reserved": "",
      "salt": "0xc258f8b554807f5c58175292367aaa61376071aba5316bedc7121876ff39c745",
      "assetIds": []
    },
    {
      "x": 127,
      "y": 257,
      "size": 1,
      "price": "1011000000000000000000",
      "reserved": "",
      "salt": "0xd2f771d5ac5d1e434e2379c5cd58a43dd8e8793dc727d8828a7fc5744f0f8a9c",
      "assetIds": []
    },
    {
      "x": 128,
      "y": 243,
      "size": 1,
      "price": "1011000000000000000000",
      "reserved": "",
      "salt": "0x8a9ef6cc541c1b0b02ce56a0f2ed6d4f8566408e6dd0cf1ac0ec191b30e942e9",
      "assetIds": []
    },
    {
      "x": 128,
      "y": 244,
      "size": 1,
      "price": "1011000000000000000000",
      "reserved": "",
      "salt": "0x8a46549bcc9546840ea81582b60a0449b9568f6e078cc4c3b62852a7c9879c71",
      "assetIds": []
    },
    {
      "x": 128,
      "y": 245,
      "size": 1,
      "price": "4683000000000000000000",
      "reserved": "",
      "salt": "0x01b42bdde34436d6c808f4892d51904e871b80a82664e96e2c9ec1746dca1d75",
      "assetIds": [
        "24689042631375448200406931177967022842173725249442692554",
        "24689416775794604911553991321284198210626757168173694410"
      ]
    },
    {
      "x": 128,
      "y": 252,
      "size": 1,
      "price": "4683000000000000000000",
      "reserved": "",
      "salt": "0x821393d4c950b781260c682fe8ebf890daa87cf00564dec85c4923a5afbbab73",
      "assetIds": [
        "24689042631375448200406931177967022842173725249442692554",
        "24689416775794604911553991321284198210626757168173694410"
      ]
    },
    {
      "x": 128,
      "y": 253,
      "size": 1,
      "price": "1011000000000000000000",
      "reserved": "",
      "salt": "0x83851fff7f2565671049c531f27e14c15eefc453c1b678cec5fd673e7e20fc11",
      "assetIds": []
    },
    {
      "x": 128,
      "y": 254,
      "size": 1,
      "price": "1011000000000000000000",
      "reserved": "0x7a9fe22691c811ea339d9b73150e6911a5343dca",
      "salt": "0xc024ec1ed912e7462f66e417c4c81aa278cf4b78540d15e7bab29a1ca841d1ce",
      "assetIds": []
    },
    {
      "x": 128,
      "y": 255,
      "size": 1,
      "price": "1011000000000000000000",
      "reserved": "",
      "salt": "0xbd0518059f58c7a6fd6130f76e8042612bcf32c2c484777ca610415e98579ca6",
      "assetIds": []
    },
    {
      "x": 128,
      "y": 256,
      "size": 1,
      "price": "1011000000000000000000",
      "reserved": "",
      "salt": "0x9fc14ff86592bbdea9d4d1a1a4ac8684c4b60262a93e8b808985946207f679de",
      "assetIds": []
    },
    {
      "x": 128,
      "y": 257,
      "size": 1,
      "price": "1011000000000000000000",
      "reserved": "",
      "salt": "0x28f212c3f117cb1dae4669a060cb08723c00a89160abea72d228a3d6c1472f51",
      "assetIds": []
    },
    {
      "x": 129,
      "y": 243,
      "size": 1,
      "price": "1011000000000000000000",
      "reserved": "",
      "salt": "0x79f6b038830acae93dc79bafc136b79fee32c4effa8d358265133838c9c555f6",
      "assetIds": []
    },
    {
      "x": 129,
      "y": 244,
      "size": 1,
      "price": "1011000000000000000000",
      "reserved": "",
      "salt": "0x12f072fddd9766f3bd1b4d4253af570206eec7a6117efb9d3e5fd6bf2dc15665",
      "assetIds": []
    },
    {
      "x": 129,
      "y": 245,
      "size": 1,
      "price": "4683000000000000000000",
      "reserved": "",
      "salt": "0xc4c1219d41176188509dbe7c30f747dc162d7e064070e41d136af5615b6a0b6e",
      "assetIds": [
        "24689042631375448200406931177967022842173725249442692554",
        "24689416775794604911553991321284198210626757168173694410"
      ]
    },
    {
      "x": 129,
      "y": 252,
      "size": 1,
      "price": "1011000000000000000000",
      "reserved": "",
      "salt": "0x8ef35611eb83591ab5f775d343d0f631075848c2ea7dc1391c40df56cf3e6451",
      "assetIds": []
    },
    {
      "x": 129,
      "y": 253,
      "size": 1,
      "price": "1011000000000000000000",
      "reserved": "",
      "salt": "0x093db3c98535d454adf68ead7546ebf2c69ef01f9e52b8aa57fe208618c0fb37",
      "assetIds": []
    },
    {
      "x": 129,
      "y": 254,
      "size": 1,
      "price": "1011000000000000000000",
      "reserved": "",
      "salt": "0x7e8236f165b87286dadeab965f524a56164522b0be8ae5177f8da31829bdda75",
      "assetIds": []
    },
    {
      "x": 129,
      "y": 255,
      "size": 1,
      "price": "1011000000000000000000",
      "reserved": "",
      "salt": "0xe185e225dfcde555fb1969ee3eb44541f8e763bf407d0f2071cbf6505e4efb7f",
      "assetIds": []
    },
    {
      "x": 129,
      "y": 256,
      "size": 1,
      "price": "1011000000000000000000",
      "reserved": "",
      "salt": "0x14471653b958f1738445d52dce5adcca9a5282da070c1b9ed79b20fff3c750ec",
      "assetIds": []
    },
    {
      "x": 129,
      "y": 257,
      "size": 1,
      "price": "1011000000000000000000",
      "reserved": "",
      "salt": "0x44236e5393a0d10f3888d521b30250a7bc0b33c5a4605673c490e361ede64bda",
      "assetIds": []
    },
    {
      "x": 130,
      "y": 243,
      "size": 1,
      "price": "1011000000000000000000",
      "reserved": "",
      "salt": "0x705c474f024c50062bb99ce4c921389a52a78fc1461ead982d1ab00aae74c43e",
      "assetIds": []
    },
    {
      "x": 130,
      "y": 244,
      "size": 1,
      "price": "1011000000000000000000",
      "reserved": "",
      "salt": "0x49def9ff8175428ea435b2899de452ccb2217f2590a37a2d822e3ec132f5d1f5",
      "assetIds": []
    },
    {
      "x": 130,
      "y": 245,
      "size": 1,
      "price": "4683000000000000000000",
      "reserved": "",
      "salt": "0x41d0a52f3de192357684c9de413ee188ed9bd899ae93c9879b2bca5a70f2c86b",
      "assetIds": [
        "24689042631375448200406931177967022842173725249442692554",
        "24689416775794604911553991321284198210626757168173694410"
      ]
    },
    {
      "x": 130,
      "y": 252,
      "size": 1,
      "price": "4683000000000000000000",
      "reserved": "",
      "salt": "0x051b9a9da0ec2d3acbc4ccaceb41256be4cc37a935d5008bee3e1ff42dc7837b",
      "assetIds": [
        "24689042631375448200406931177967022842173725249442692554",
        "24689416775794604911553991321284198210626757168173694410"
      ]
    },
    {
      "x": 130,
      "y": 253,
      "size": 1,
      "price": "1011000000000000000000",
      "reserved": "",
      "salt": "0xc8f3925c332df34786a35a47f11a60a94af4023465f2ea33664d802656fe632c",
      "assetIds": []
    },
    {
      "x": 130,
      "y": 254,
      "size": 1,
      "price": "1011000000000000000000",
      "reserved": "",
      "salt": "0x88c9fb7e44280ee0b080fc6f17ef703e9b185fa0299a2c7db663af5bc1209c36",
      "assetIds": []
    },
    {
      "x": 130,
      "y": 255,
      "size": 1,
      "price": "1011000000000000000000",
      "reserved": "",
      "salt": "0x21e2c598b0f095301342cad0693197b1258e84c8e8c725a2cd7e418c59074044",
      "assetIds": []
    },
    {
      "x": 130,
      "y": 256,
      "size": 1,
      "price": "1011000000000000000000",
      "reserved": "0x7a9fe22691c811ea339d9b73150e6911a5343dca",
      "salt": "0x4566786e662097e5486b04bd03ba50884e79e374d164eaa62d81994824bf8f49",
      "assetIds": []
    },
    {
      "x": 130,
      "y": 257,
      "size": 1,
      "price": "1011000000000000000000",
      "reserved": "",
      "salt": "0x294d4922f3bd335bc06e9aea0c022d73930b345c0bd060fe165a09798d139f99",
      "assetIds": []
    },
    {
      "x": 131,
      "y": 243,
      "size": 1,
      "price": "1011000000000000000000",
      "reserved": "",
      "salt": "0x1ec33dadefbfa5cde9f247aa32f08b151ada86d386cf72d5bc9fbf9b291b96a6",
      "assetIds": []
    },
    {
      "x": 131,
      "y": 244,
      "size": 1,
      "price": "1011000000000000000000",
      "reserved": "",
      "salt": "0x6ecfc598036303eee2bb1ccb666ae79e3d64927b912bcbf647cd8999786bdd45",
      "assetIds": []
    },
    {
      "x": 131,
      "y": 245,
      "size": 1,
      "price": "4683000000000000000000",
      "reserved": "",
      "salt": "0x328a300e706481d859910e3336d87c305cad69a5db9281c1540bda1c3e3a5428",
      "assetIds": [
        "24689042631375448200406931177967022842173725249442692554",
        "24689416775794604911553991321284198210626757168173694410"
      ]
    },
    {
      "x": 131,
      "y": 252,
      "size": 1,
      "price": "1011000000000000000000",
      "reserved": "",
      "salt": "0x5934d6478e34ce31c6255a0c396cf686a11bb71fe1f5d174e9eeec2f9a55efba",
      "assetIds": []
    },
    {
      "x": 131,
      "y": 253,
      "size": 1,
      "price": "1011000000000000000000",
      "reserved": "",
      "salt": "0x27f00b118f634297de1c3e178cec7ab320090392dd74a391eb2645394aea3087",
      "assetIds": []
    },
    {
      "x": 131,
      "y": 254,
      "size": 1,
      "price": "1011000000000000000000",
      "reserved": "",
      "salt": "0x263f3b7e67f18d9148f4bb6805726a5474383798eab0179960de5f1c007bf4d8",
      "assetIds": []
    },
    {
      "x": 131,
      "y": 255,
      "size": 1,
      "price": "1011000000000000000000",
      "reserved": "",
      "salt": "0xa9e3cbe619abb2e4ba25f39333a9d0e4ebe83df0aab53e8bd8c5e0d992310fd9",
      "assetIds": []
    },
    {
      "x": 131,
      "y": 256,
      "size": 1,
      "price": "1011000000000000000000",
      "reserved": "",
      "salt": "0x30025eda124ef7af962facdd314cf5c880f5d8bfc5bba3962f98d61d5ad7ed41",
      "assetIds": []
    },
    {
      "x": 131,
      "y": 257,
      "size": 1,
      "price": "1011000000000000000000",
      "reserved": "",
      "salt": "0xe9c76811698dd157e9585072875c761f62db086ae5b32df80fa0e3d3c4c8905c",
      "assetIds": []
    },
    {
      "x": 132,
      "y": 243,
      "size": 1,
      "price": "1011000000000000000000",
      "reserved": "",
      "salt": "0xa8c6ee46dace6440745975ca3ee7eaaf2de28f28e5204f4433a7712491afc133",
      "assetIds": []
    },
    {
      "x": 132,
      "y": 244,
      "size": 1,
      "price": "1011000000000000000000",
      "reserved": "",
      "salt": "0xc1513539f6137bc43b9433dc1d061c310da4fd2ce20b8082ec5ee210447215ab",
      "assetIds": []
    },
    {
      "x": 132,
      "y": 245,
      "size": 1,
      "price": "1011000000000000000000",
      "reserved": "",
      "salt": "0x665d71928d38dd806ef62d28892baf6a83ddf75d93927a0097ee262442fd8b0a",
      "assetIds": []
    },
    {
      "x": 132,
      "y": 246,
      "size": 1,
      "price": "4683000000000000000000",
      "reserved": "",
      "salt": "0x6b6c9b50c602fef33e227882f971fb9ded54ff892da849934f4ac185195b7a1a",
      "assetIds": [
        "24689042631375448200406931177967022842173725249442692554",
        "24689416775794604911553991321284198210626757168173694410"
      ]
    },
    {
      "x": 132,
      "y": 247,
      "size": 1,
      "price": "4683000000000000000000",
      "reserved": "",
      "salt": "0x45b19aebde737adde6aace774c2a7a2af1b6fe1ef54158705c02de1448e071ec",
      "assetIds": [
        "24689042631375448200406931177967022842173725249442692554",
        "24689416775794604911553991321284198210626757168173694410"
      ]
    },
    {
      "x": 132,
      "y": 248,
      "size": 1,
      "price": "4683000000000000000000",
      "reserved": "",
      "salt": "0xee98e0c32a6e1262585ac069c5a1897e891dba4af5fbd586a3b92275a110facd",
      "assetIds": [
        "24689042631375448200406931177967022842173725249442692554",
        "24689416775794604911553991321284198210626757168173694410"
      ]
    },
    {
      "x": 132,
      "y": 249,
      "size": 1,
      "price": "4683000000000000000000",
      "reserved": "",
      "salt": "0x884e40b01eb25223ba32e43d7c82491589d9a74dd26ce74dd70c09e49e194e9c",
      "assetIds": [
        "24689042631375448200406931177967022842173725249442692554",
        "24689416775794604911553991321284198210626757168173694410"
      ]
    },
    {
      "x": 132,
      "y": 250,
      "size": 1,
      "price": "1011000000000000000000",
      "reserved": "",
      "salt": "0xb04f1dcb18c7a7b160822e58ce0af9a27df5ca319cf6a2c6d8c20bdb35fd05c3",
      "assetIds": []
    },
    {
      "x": 132,
      "y": 251,
      "size": 1,
      "price": "4683000000000000000000",
      "reserved": "",
      "salt": "0xd0412f98de1b1cc18b85c5a734bd7d6b050a097fb90ed5968cc429846392dd16",
      "assetIds": [
        "24689042631375448200406931177967022842173725249442692554",
        "24689416775794604911553991321284198210626757168173694410"
      ]
    },
    {
      "x": 132,
      "y": 258,
      "size": 1,
      "price": "1011000000000000000000",
      "reserved": "",
      "salt": "0x3ec1eae58cca4415f8ea5c9bb772e81c3ebd2c58c6399158069b185a5fd3413a",
      "assetIds": []
    },
    {
      "x": 132,
      "y": 259,
      "size": 1,
      "price": "1011000000000000000000",
      "reserved": "",
      "salt": "0xe6e29c85934925a0f5cadf0185429eb861f8d2cb365afd1fb578f94014202276",
      "assetIds": []
    },
    {
      "x": 132,
      "y": 260,
      "size": 1,
      "price": "1011000000000000000000",
      "reserved": "",
      "salt": "0x701ad9af4a2fb11f06f7001428a50fa6546a604469054cd9cfa27d3bdf53f46b",
      "assetIds": []
    },
    {
      "x": 132,
      "y": 261,
      "size": 1,
      "price": "1011000000000000000000",
      "reserved": "",
      "salt": "0x667b042dde18dafe2e6b9c7df5a7c4167d01bd154fb8b655a6d23e68a6434975",
      "assetIds": []
    },
    {
      "x": 132,
      "y": 262,
      "size": 1,
      "price": "1011000000000000000000",
      "reserved": "",
      "salt": "0x9ae92026228a08ec80ec2ec4d0a83cfd9f15d2a2f7c5af8064b9171959f8024d",
      "assetIds": []
    },
    {
      "x": 132,
      "y": 263,
      "size": 1,
      "price": "1011000000000000000000",
      "reserved": "",
      "salt": "0xd0fea4d8ac629e1c23594e831ffc3d951db2aa090f1f2051d62481ef2e674ad4",
      "assetIds": []
    },
    {
      "x": 133,
      "y": 243,
      "size": 1,
      "price": "1011000000000000000000",
      "reserved": "",
      "salt": "0x266bf0126315728dce19d082a69fffbf401f6c27b5e79aef832aa1a14bf54040",
      "assetIds": []
    },
    {
      "x": 133,
      "y": 244,
      "size": 1,
      "price": "1011000000000000000000",
      "reserved": "",
      "salt": "0xda925a9e10ea870e969a4ef2bddd5849643e4c4e8d22d2196e3d452cc38539d3",
      "assetIds": []
    },
    {
      "x": 133,
      "y": 245,
      "size": 1,
      "price": "1011000000000000000000",
      "reserved": "",
      "salt": "0x3a029edfe3f413e85c5a3d6d8ff5407d297f7e7e8586def47f189fc4c5a99eef",
      "assetIds": []
    },
    {
      "x": 133,
      "y": 246,
      "size": 1,
      "price": "1011000000000000000000",
      "reserved": "",
      "salt": "0x7937d057ff02994535439fe6c3de0df1186ddc3e7dacfc0c1141d10eb2d45e0d",
      "assetIds": []
    },
    {
      "x": 133,
      "y": 247,
      "size": 1,
      "price": "1011000000000000000000",
      "reserved": "",
      "salt": "0xf01d928a658178ad377c48bd5bc782d829022214762df9f85776abd646be6e0a",
      "assetIds": []
    },
    {
      "x": 133,
      "y": 248,
      "size": 1,
      "price": "1011000000000000000000",
      "reserved": "",
      "salt": "0x8c2f2154fbe03e48db7c839d3195ce1d6822f596d253d78361da731806ea8482",
      "assetIds": []
    },
    {
      "x": 133,
      "y": 249,
      "size": 1,
      "price": "1011000000000000000000",
      "reserved": "",
      "salt": "0xfef32b8324d1b778700d417df32114d56e6e4a88623da0d00ccf0a40f78d720a",
      "assetIds": []
    },
    {
      "x": 133,
      "y": 250,
      "size": 1,
      "price": "1011000000000000000000",
      "reserved": "",
      "salt": "0x738fe6dbca0549b3841d15a4036fa8864418d9b318d54710be53cf4950a45c9c",
      "assetIds": []
    },
    {
      "x": 133,
      "y": 251,
      "size": 1,
      "price": "1011000000000000000000",
      "reserved": "",
      "salt": "0x2cdc67d2ef4f323ae07466f68e0bb0436bc984d2a1425fd980db75bbef6cab52",
      "assetIds": []
    },
    {
      "x": 133,
      "y": 258,
      "size": 1,
      "price": "1011000000000000000000",
      "reserved": "",
      "salt": "0xad8d4686a8e4515d3f6891ea4ced339c707f71e3f81bd37ebd366f6419777595",
      "assetIds": []
    },
    {
      "x": 133,
      "y": 259,
      "size": 1,
      "price": "1011000000000000000000",
      "reserved": "",
      "salt": "0x6abc54ccc4ce3b3c5a3c40c05ed31c378b9a383266887244cdce8259f010bd06",
      "assetIds": []
    },
    {
      "x": 133,
      "y": 260,
      "size": 1,
      "price": "1011000000000000000000",
      "reserved": "0x7a9fe22691c811ea339d9b73150e6911a5343dca",
      "salt": "0xe53ed48b244c53b681f3b59234c7b6a36e9e8e5c79e6ffa0c84ca8bf7b28c65a",
      "assetIds": []
    },
    {
      "x": 133,
      "y": 261,
      "size": 1,
      "price": "1011000000000000000000",
      "reserved": "",
      "salt": "0xd28f9e4deeab2f2bae62816e7febcbcb956f63ae630950ad57430b7817f5f8bb",
      "assetIds": []
    },
    {
      "x": 133,
      "y": 262,
      "size": 1,
      "price": "1011000000000000000000",
      "reserved": "",
      "salt": "0x281fe9a02ba08b002253586b4a1805ae7fe5197beb463b3144c35d879c707f87",
      "assetIds": []
    },
    {
      "x": 133,
      "y": 263,
      "size": 1,
      "price": "1011000000000000000000",
      "reserved": "",
      "salt": "0x01add764d5d3e7ba069d877584c009c09ea6be39e8a9aaf4b2598f4a59a440fb",
      "assetIds": []
    },
    {
      "x": 134,
      "y": 243,
      "size": 1,
      "price": "1011000000000000000000",
      "reserved": "",
      "salt": "0xc602a692d3b9427460e8422bd2fa3a39318d5ed6f4148c70d911d8cb37067279",
      "assetIds": []
    },
    {
      "x": 134,
      "y": 244,
      "size": 1,
      "price": "1011000000000000000000",
      "reserved": "",
      "salt": "0xcbac99f902857ce8f4e0c7bd272812df3fd7f5bb90095cdea60b5720af239495",
      "assetIds": []
    },
    {
      "x": 134,
      "y": 245,
      "size": 1,
      "price": "1011000000000000000000",
      "reserved": "",
      "salt": "0x710a9b4fd0e247799fe277fd49c1f09b30ee2cb46916cdd707c2006640936d8b",
      "assetIds": []
    },
    {
      "x": 134,
      "y": 246,
      "size": 1,
      "price": "1011000000000000000000",
      "reserved": "",
      "salt": "0xbc46cf0043d516562ee1baf5e3efafc39cb69d9c9c6499de32d74551c216c1ce",
      "assetIds": []
    },
    {
      "x": 134,
      "y": 247,
      "size": 1,
      "price": "1011000000000000000000",
      "reserved": "",
      "salt": "0xedb5b92d6e192819ff8cd168be299c3682d3184f4eba8895912711f4e8197042",
      "assetIds": []
    },
    {
      "x": 134,
      "y": 248,
      "size": 1,
      "price": "1011000000000000000000",
      "reserved": "",
      "salt": "0xd93da6d99d9c7ebb15e22b567ca591d5eb34d3a2f26d237cd45c6e3873c027f1",
      "assetIds": []
    },
    {
      "x": 134,
      "y": 249,
      "size": 1,
      "price": "1011000000000000000000",
      "reserved": "",
      "salt": "0x650100fbd77db65c4c082d9bfd841282c2ed405c5d0158abad848be2fb3292d2",
      "assetIds": []
    },
    {
      "x": 134,
      "y": 250,
      "size": 1,
      "price": "4683000000000000000000",
      "reserved": "",
      "salt": "0xeca846a32561e83a3ff2cb7d615e519c0515536f883298c5e857142e5ed8a704",
      "assetIds": [
        "24690913353471231756142231894552899684438884843097701834",
        "24690539209052075044995171751235724315985852924366699978"
      ]
    },
    {
      "x": 134,
      "y": 251,
      "size": 1,
      "price": "1011000000000000000000",
      "reserved": "",
      "salt": "0x435f4c1597b1d94c4eb17d2bcd01ae4c22f4e7bed6e0ae238f6bde05c92022eb",
      "assetIds": []
    },
    {
      "x": 134,
      "y": 258,
      "size": 1,
      "price": "1011000000000000000000",
      "reserved": "",
      "salt": "0x1b2d31d0e22ccebad403354bbefe614e49784d372a441181375ec4a0254c20ab",
      "assetIds": []
    },
    {
      "x": 134,
      "y": 259,
      "size": 1,
      "price": "1011000000000000000000",
      "reserved": "",
      "salt": "0x19d9ebf4c30509b3b5c2c9fa13a6673ba9c6972fafbeec73d759fbfac406186d",
      "assetIds": []
    },
    {
      "x": 134,
      "y": 260,
      "size": 1,
      "price": "1011000000000000000000",
      "reserved": "",
      "salt": "0xe5f4a8330ab647b1458db31c2ba5f1823f0b277b514164d8c796c747c78c02da",
      "assetIds": []
    },
    {
      "x": 134,
      "y": 261,
      "size": 1,
      "price": "1011000000000000000000",
      "reserved": "",
      "salt": "0x19368f49fc2e19cb166cbfbd69230d371acac205f80e0d3ac74e055a71fda47e",
      "assetIds": []
    },
    {
      "x": 134,
      "y": 262,
      "size": 1,
      "price": "1011000000000000000000",
      "reserved": "",
      "salt": "0xafaf809dd7b1a1f47d41159c9fd91a7e75d96c10fdf91c812ee5ab821c3c6c41",
      "assetIds": []
    },
    {
      "x": 134,
      "y": 263,
      "size": 1,
      "price": "1011000000000000000000",
      "reserved": "",
      "salt": "0x8af6448da7952eaa3952a296f277749c6366290ba8346eeab214e4430d9b381c",
      "assetIds": []
    },
    {
      "x": 135,
      "y": 243,
      "size": 1,
      "price": "1011000000000000000000",
      "reserved": "",
      "salt": "0x2f3900551eeda23bedb6e27666757f8ee75b89de6f637c46397a9311937c2596",
      "assetIds": []
    },
    {
      "x": 135,
      "y": 244,
      "size": 1,
      "price": "1011000000000000000000",
      "reserved": "",
      "salt": "0xd36045300f0dbf826722f7597b441ff6a87f2a4350a533e51b36255083eec1ea",
      "assetIds": []
    },
    {
      "x": 135,
      "y": 245,
      "size": 1,
      "price": "1011000000000000000000",
      "reserved": "",
      "salt": "0x5fc5719918497e3479e88845e807d368ad11a56480f56b356281387fc22332dc",
      "assetIds": []
    },
    {
      "x": 135,
      "y": 246,
      "size": 1,
      "price": "1011000000000000000000",
      "reserved": "",
      "salt": "0x25fbb6e0370925db744e913beaff85dd1b1e9b42e5196e89cb6e42016003ad7a",
      "assetIds": []
    },
    {
      "x": 135,
      "y": 247,
      "size": 1,
      "price": "1011000000000000000000",
      "reserved": "",
      "salt": "0x6d7b3e822679cd20adeacf94d4c4311c02f3779b44534b29205e8f96b7f1ea4f",
      "assetIds": []
    },
    {
      "x": 135,
      "y": 248,
      "size": 1,
      "price": "1011000000000000000000",
      "reserved": "",
      "salt": "0x80dbd7336277bc2a6f2e6239a61e0250cf58f7ee0f3c362172100508598badca",
      "assetIds": []
    },
    {
      "x": 135,
      "y": 258,
      "size": 1,
      "price": "1011000000000000000000",
      "reserved": "",
      "salt": "0xab127b6fa65c3b5d26f1b3635b67540f4d9acccd8ec8d913d56c36871e385dc7",
      "assetIds": []
    },
    {
      "x": 135,
      "y": 259,
      "size": 1,
      "price": "1011000000000000000000",
      "reserved": "",
      "salt": "0x19d57751fc89d761da7f9af4ebd7e9825764386ac5c39ae87427f9039b1ae153",
      "assetIds": []
    },
    {
      "x": 135,
      "y": 260,
      "size": 1,
      "price": "1011000000000000000000",
      "reserved": "",
      "salt": "0xdf418bfa5d4714039df5ee9d3df835a52faeb595fe14b5726b849340619ffa25",
      "assetIds": []
    },
    {
      "x": 135,
      "y": 261,
      "size": 1,
      "price": "1011000000000000000000",
      "reserved": "",
      "salt": "0x12862a701f559c3ae96338d16dd307f46c9962e223b40a89c6d4324e41d8ea29",
      "assetIds": []
    },
    {
      "x": 135,
      "y": 262,
      "size": 1,
      "price": "1011000000000000000000",
      "reserved": "",
      "salt": "0xa492131eb991c5651cffa23873725224478060109ac67bebb1e0b0578be11cfa",
      "assetIds": []
    },
    {
      "x": 135,
      "y": 263,
      "size": 1,
      "price": "1011000000000000000000",
      "reserved": "",
      "salt": "0xe3b73d6fce32971e3e41e6093e67f082545b0d95ce78211e189c3e75d69931c5",
      "assetIds": []
    },
    {
      "x": 136,
      "y": 243,
      "size": 1,
      "price": "1011000000000000000000",
      "reserved": "",
      "salt": "0x7652f67e1ffa0a1bd1af3c4596f733cfcd38076468448a1612b2f4081e5c871f",
      "assetIds": []
    },
    {
      "x": 136,
      "y": 244,
      "size": 1,
      "price": "1011000000000000000000",
      "reserved": "0x7a9fe22691c811ea339d9b73150e6911a5343dca",
      "salt": "0x4b955c258619e3f333ed8a0820e4fc0556492d3f91ed831a91dfb03718222589",
      "assetIds": []
    },
    {
      "x": 136,
      "y": 245,
      "size": 1,
      "price": "1011000000000000000000",
      "reserved": "",
      "salt": "0xa62d7bb5a9dcc41b93abb0bd27c62731a6a830463a5a06a5765e84a11da4063c",
      "assetIds": []
    },
    {
      "x": 136,
      "y": 246,
      "size": 1,
      "price": "1011000000000000000000",
      "reserved": "",
      "salt": "0x26f9087426ac0cbb4ec6e41a91239eaf4ceb9ef4f615f7e153d24ab379291c99",
      "assetIds": []
    },
    {
      "x": 136,
      "y": 247,
      "size": 1,
      "price": "1011000000000000000000",
      "reserved": "",
      "salt": "0x8efd79f3f7fde8b9d3d452dbfd268e6b1e4a69e24d53b84b2054c6b890abbe9d",
      "assetIds": []
    },
    {
      "x": 136,
      "y": 248,
      "size": 1,
      "price": "4683000000000000000000",
      "reserved": "",
      "salt": "0x9c7d5bc41e8e5b72f52eb844d8d413158dfe81cf868480a15440fb2744330059",
      "assetIds": [
        "24690913353471231756142231894552899684438884843097701834",
        "24690539209052075044995171751235724315985852924366699978"
      ]
    },
    {
      "x": 136,
      "y": 258,
      "size": 1,
      "price": "1011000000000000000000",
      "reserved": "",
      "salt": "0xa435fb4622cef48d6035b35caf588b78c2cc086371bffdd426db041aa894b384",
      "assetIds": []
    },
    {
      "x": 136,
      "y": 259,
      "size": 1,
      "price": "1011000000000000000000",
      "reserved": "",
      "salt": "0x79242a40c41ad2958dd5ef0f9dc9af4ab2c59f7ad9519d3e2096c3e108c22255",
      "assetIds": []
    },
    {
      "x": 136,
      "y": 260,
      "size": 1,
      "price": "1011000000000000000000",
      "reserved": "",
      "salt": "0x6a40b7637e75c0d74ae4a809fb28794f72df76ee93edc6ee58213985bbe1276c",
      "assetIds": []
    },
    {
      "x": 136,
      "y": 261,
      "size": 1,
      "price": "1011000000000000000000",
      "reserved": "",
      "salt": "0xfc9aa6eea0e5c0663e7eda2f647027a54849cb03c939fc91e2d066e16d03814e",
      "assetIds": []
    },
    {
      "x": 136,
      "y": 262,
      "size": 1,
      "price": "1011000000000000000000",
      "reserved": "0x7a9fe22691c811ea339d9b73150e6911a5343dca",
      "salt": "0xb036e46be0e3ccd4d67e40b1af2818063d7b63327674d384b9c665f7fb5c2734",
      "assetIds": []
    },
    {
      "x": 136,
      "y": 263,
      "size": 1,
      "price": "1011000000000000000000",
      "reserved": "",
      "salt": "0x44211aa0a8ae71901832755af528a85c7d8560050115a36fbee2157029c970d9",
      "assetIds": []
    },
    {
      "x": 137,
      "y": 243,
      "size": 1,
      "price": "1011000000000000000000",
      "reserved": "",
      "salt": "0x04d9f18fbc8d5eed037440d3cb6c669f71597b2b9f28b4b7f15df9d64984f94f",
      "assetIds": []
    },
    {
      "x": 137,
      "y": 244,
      "size": 1,
      "price": "1011000000000000000000",
      "reserved": "",
      "salt": "0x4f5c6fe05fcbd403cb27e9775f657762b15c9d8a626d76c87c0e827c4c36e322",
      "assetIds": []
    },
    {
      "x": 137,
      "y": 245,
      "size": 1,
      "price": "1011000000000000000000",
      "reserved": "",
      "salt": "0xc9978dbbb8d7bcafb96d5a08f3e2f416ea1acd0153bdfbea0cb28f005a134e6a",
      "assetIds": []
    },
    {
      "x": 137,
      "y": 246,
      "size": 1,
      "price": "1011000000000000000000",
      "reserved": "",
      "salt": "0x8c577b33700ee001bf005d138fff9e51523c84bb1e85294db0460264e19434cf",
      "assetIds": []
    },
    {
      "x": 137,
      "y": 247,
      "size": 1,
      "price": "1011000000000000000000",
      "reserved": "",
      "salt": "0xab73feac30e5688d728222cf1594ec1a795b274643269ff2f39cb1cca7f16005",
      "assetIds": []
    },
    {
      "x": 137,
      "y": 248,
      "size": 1,
      "price": "1011000000000000000000",
      "reserved": "",
      "salt": "0x16013e5acb738b1750658068954bfbff2e8a9a237ebd17058f75054532a753a2",
      "assetIds": []
    },
    {
      "x": 137,
      "y": 258,
      "size": 1,
      "price": "1011000000000000000000",
      "reserved": "",
      "salt": "0x1c9c0f16fd6b1a986a4f12e5cbce1a8b6878cfefd7e235a4c03021265902d7ed",
      "assetIds": []
    },
    {
      "x": 137,
      "y": 259,
      "size": 1,
      "price": "4683000000000000000000",
      "reserved": "",
      "salt": "0x6989db429f6b18780675453066479fa63995446f6f11de0dce6d3475c1c6f548",
      "assetIds": [
        "24689790920213761622701051464601373579079789086904696266",
        "24691661642309545178436352181187250421344948680559705546"
      ]
    },
    {
      "x": 137,
      "y": 260,
      "size": 1,
      "price": "1011000000000000000000",
      "reserved": "",
      "salt": "0x3dcf1069d189649d32ecd05f0f906971d36c019383121b17d4acd2e3d5786090",
      "assetIds": []
    },
    {
      "x": 137,
      "y": 261,
      "size": 1,
      "price": "1011000000000000000000",
      "reserved": "",
      "salt": "0xbf8c1851a28950b3c8a12627042b9877542689b53ac3b887c74615795d3f3efa",
      "assetIds": []
    },
    {
      "x": 137,
      "y": 262,
      "size": 1,
      "price": "1011000000000000000000",
      "reserved": "",
      "salt": "0xb54bd341e90ba22e4f28700e0f0327d4ced24096863683712a623e3044fbe622",
      "assetIds": []
    },
    {
      "x": 137,
      "y": 263,
      "size": 1,
      "price": "1011000000000000000000",
      "reserved": "",
      "salt": "0x1c250961875881101935c9b9f7d32fa4c03382ad31b9e35f0dfe1b0c12dd5bad",
      "assetIds": []
    },
    {
      "x": 138,
      "y": 246,
      "size": 1,
      "price": "1011000000000000000000",
      "reserved": "",
      "salt": "0x8a888174c97aaa1a554fa6844df70a0074dd1e6a0829658bf39b617cd97c9b27",
      "assetIds": []
    },
    {
      "x": 138,
      "y": 247,
      "size": 1,
      "price": "1011000000000000000000",
      "reserved": "",
      "salt": "0x564353c7087d4000a1b641ef0f31e432fb8f7ba66207decabc6a5f0b34bfafad",
      "assetIds": []
    },
    {
      "x": 138,
      "y": 248,
      "size": 1,
      "price": "1011000000000000000000",
      "reserved": "",
      "salt": "0x74744150ab8c9a753aa144a578c46f1a7404092e5311e80215b90160f43f6cc3",
      "assetIds": []
    },
    {
      "x": 138,
      "y": 249,
      "size": 1,
      "price": "4683000000000000000000",
      "reserved": "",
      "salt": "0xce30312a8bc509c037d62fc8693cbbd27a075ade9c3f39b573e62b2790511fce",
      "assetIds": [
        "24690913353471231756142231894552899684438884843097701834",
        "24690539209052075044995171751235724315985852924366699978"
      ]
    },
    {
      "x": 138,
      "y": 250,
      "size": 1,
      "price": "1011000000000000000000",
      "reserved": "",
      "salt": "0xa8c5f77366547dffbd42e9223867b643c77b7124d9e0f5117629003acee63d5f",
      "assetIds": []
    },
    {
      "x": 138,
      "y": 251,
      "size": 1,
      "price": "4683000000000000000000",
      "reserved": "",
      "salt": "0x822b7007e18fda8c41b92180f1df0e4683de8c23e45efa0b1ed83904b4f606da",
      "assetIds": [
        "24690913353471231756142231894552899684438884843097701834",
        "24690539209052075044995171751235724315985852924366699978"
      ]
    },
    {
      "x": 138,
      "y": 252,
      "size": 1,
      "price": "1011000000000000000000",
      "reserved": "",
      "salt": "0x2de91b1bffd5156b10203211c30fd5053a62e5989ec4216fbefbc1a8a2ef70e2",
      "assetIds": []
    },
    {
      "x": 138,
      "y": 253,
      "size": 1,
      "price": "1011000000000000000000",
      "reserved": "",
      "salt": "0x2f84a36823e136618ced942d15980320509fcda44a3de7e3409bc9fad1dbaee2",
      "assetIds": []
    },
    {
      "x": 138,
      "y": 254,
      "size": 1,
      "price": "1011000000000000000000",
      "reserved": "",
      "salt": "0x9c2cd37c8d960083996677d8081d0e5bcc2abb9c36894da3b17c1070d7000030",
      "assetIds": []
    },
    {
      "x": 138,
      "y": 255,
      "size": 1,
      "price": "1011000000000000000000",
      "reserved": "",
      "salt": "0x7cc275828451a2b472acc8d671aeef5d459ba3b03f943c2dd531622eb1684f30",
      "assetIds": []
    },
    {
      "x": 138,
      "y": 256,
      "size": 1,
      "price": "1011000000000000000000",
      "reserved": "",
      "salt": "0x7c4d6c4fd7818a5fd77ff9770ced8a01d0512afd7edab8fee5a7e9e68b462c06",
      "assetIds": []
    },
    {
      "x": 138,
      "y": 257,
      "size": 1,
      "price": "4683000000000000000000",
      "reserved": "",
      "salt": "0x54d5b690e50d8a786a95d79354558e1449386e2da09e402d220025364ae1c860",
      "assetIds": [
        "24689790920213761622701051464601373579079789086904696266",
        "24691661642309545178436352181187250421344948680559705546"
      ]
    },
    {
      "x": 138,
      "y": 261,
      "size": 1,
      "price": "4683000000000000000000",
      "reserved": "",
      "salt": "0x108c266642d391d573ea18c7f7987af1c26b74f3c9cd40dd37782a715cc9f018",
      "assetIds": [
        "24689790920213761622701051464601373579079789086904696266",
        "24691661642309545178436352181187250421344948680559705546"
      ]
    },
    {
      "x": 138,
      "y": 262,
      "size": 1,
      "price": "1011000000000000000000",
      "reserved": "",
      "salt": "0x8e9b256910d584ec6f59a7f2f0519b976d284144eb0d4c8e954cc5598325c6f1",
      "assetIds": []
    },
    {
      "x": 138,
      "y": 263,
      "size": 1,
      "price": "1011000000000000000000",
      "reserved": "",
      "salt": "0x48d5be965c1e9773d84f5a33284194513039fe860d0b7005bda4280056436851",
      "assetIds": []
    },
    {
      "x": 139,
      "y": 246,
      "size": 1,
      "price": "1011000000000000000000",
      "reserved": "",
      "salt": "0xc90913eddd0d4cff8aa797e8dd8f2932b4518db02192bb6fc50b9617b7bcfa55",
      "assetIds": []
    },
    {
      "x": 139,
      "y": 247,
      "size": 1,
      "price": "1011000000000000000000",
      "reserved": "",
      "salt": "0x217b922f70ee0cd362252cd22029343a84fa428e517f285125411695ca569f2a",
      "assetIds": []
    },
    {
      "x": 139,
      "y": 248,
      "size": 1,
      "price": "1011000000000000000000",
      "reserved": "",
      "salt": "0xbb1a8a589acaf3d7f5386ff9e50d84f562d53e9291d044c9448f6569ad89df1f",
      "assetIds": []
    },
    {
      "x": 139,
      "y": 249,
      "size": 1,
      "price": "1011000000000000000000",
      "reserved": "",
      "salt": "0xfd9158174a7d2dd1297a06f626dedebc13390054d21a8355dc8557ce8ff78ced",
      "assetIds": []
    },
    {
      "x": 139,
      "y": 250,
      "size": 1,
      "price": "1011000000000000000000",
      "reserved": "",
      "salt": "0x313aca98aaee1a06c2eb493e2002ce26bd75f1d5eb29d76961b223442298fa54",
      "assetIds": []
    },
    {
      "x": 139,
      "y": 251,
      "size": 1,
      "price": "1011000000000000000000",
      "reserved": "",
      "salt": "0x653aced81fb2b7a32690cec5c322ff123565b4f01e5300b206aa434db3e46092",
      "assetIds": []
    },
    {
      "x": 139,
      "y": 252,
      "size": 1,
      "price": "1011000000000000000000",
      "reserved": "",
      "salt": "0x745eba101ad8a3c24424bab42e640b8f47a8edd8fb6bec29b187aaffcfaf51e0",
      "assetIds": []
    },
    {
      "x": 139,
      "y": 253,
      "size": 1,
      "price": "1011000000000000000000",
      "reserved": "",
      "salt": "0x0b1c1cf2c5008f9e462ec973ed5a004b96da7d408a07afc85f6fece0a8f8d737",
      "assetIds": []
    },
    {
      "x": 139,
      "y": 254,
      "size": 1,
      "price": "1011000000000000000000",
      "reserved": "",
      "salt": "0x31e28bf06d17d677672438d0c4d052e2db67b89182dffe0c0d7de3fff0802a59",
      "assetIds": []
    },
    {
      "x": 139,
      "y": 255,
      "size": 1,
      "price": "1011000000000000000000",
      "reserved": "0x7a9fe22691c811ea339d9b73150e6911a5343dca",
      "salt": "0x87207a19e0900c829e5b8db0e22238b606a6232ea686f3640aea20785886fe9f",
      "assetIds": []
    },
    {
      "x": 139,
      "y": 256,
      "size": 1,
      "price": "1011000000000000000000",
      "reserved": "",
      "salt": "0xed8919c6c402185db1a3827c48389d08c6940ffd005f3c77afbdd3eee95714b4",
      "assetIds": []
    },
    {
      "x": 139,
      "y": 257,
      "size": 1,
      "price": "1011000000000000000000",
      "reserved": "",
      "salt": "0x8484814a2533460b68eb705597024c438066476bc9b367d2d6ded10212b229e5",
      "assetIds": []
    },
    {
      "x": 139,
      "y": 261,
      "size": 1,
      "price": "1011000000000000000000",
      "reserved": "",
      "salt": "0x4e98795c3803d3341275640e3c39bbc882d2d73a209de5f17d866f4629384e27",
      "assetIds": []
    },
    {
      "x": 139,
      "y": 262,
      "size": 1,
      "price": "1011000000000000000000",
      "reserved": "",
      "salt": "0xf052c6cd4db15d748a340efc17ac85e0a191976f855e39fa03421ee0514e8038",
      "assetIds": []
    },
    {
      "x": 139,
      "y": 263,
      "size": 1,
      "price": "1011000000000000000000",
      "reserved": "",
      "salt": "0x0eef379366471bb679c762b417bca2c10aebfa5ed95097f50557c5688b87bf95",
      "assetIds": []
    },
    {
      "x": 140,
      "y": 246,
      "size": 1,
      "price": "1011000000000000000000",
      "reserved": "",
      "salt": "0x0e4c72d718e955fee1264077f49286a3f107081e98c6961c51ad3061089fdc1b",
      "assetIds": []
    },
    {
      "x": 140,
      "y": 247,
      "size": 1,
      "price": "1011000000000000000000",
      "reserved": "",
      "salt": "0xcef0f45f6b4e46cbd22b1f4b7fe193fe794b7fcec1d0f923206678a015f5582c",
      "assetIds": []
    },
    {
      "x": 140,
      "y": 248,
      "size": 1,
      "price": "1011000000000000000000",
      "reserved": "",
      "salt": "0xb591ed193c37d50070ada2c642fc608dd410333a3b1d3ef017ab41ef97bada7e",
      "assetIds": []
    },
    {
      "x": 140,
      "y": 249,
      "size": 1,
      "price": "1011000000000000000000",
      "reserved": "",
      "salt": "0xd9ac047d9818c37d4a4c2e17c2b9ca82e8da89efc89490f3c9f9d019a7ebabe4",
      "assetIds": []
    },
    {
      "x": 140,
      "y": 250,
      "size": 1,
      "price": "1011000000000000000000",
      "reserved": "",
      "salt": "0xf62c0a1c53808a13d6b94573c52e2b8119bbf078d6e156af2ccbd989975d28a7",
      "assetIds": []
    },
    {
      "x": 140,
      "y": 251,
      "size": 1,
      "price": "1011000000000000000000",
      "reserved": "",
      "salt": "0x7e34299b61f7b96d8360c372c6f6d260966495c9693587a4b99d13c6c3112d33",
      "assetIds": []
    },
    {
      "x": 140,
      "y": 252,
      "size": 1,
      "price": "1011000000000000000000",
      "reserved": "",
      "salt": "0x2f007870cae781df0a6a4cfc8b21cd5ae590755c838b8060b5e9c52383f20ba0",
      "assetIds": []
    },
    {
      "x": 140,
      "y": 253,
      "size": 1,
      "price": "1011000000000000000000",
      "reserved": "",
      "salt": "0xa1fe9c17eb0135df31502d9f4cfc6200bbb20631b181afc1dad85e7d31c710c0",
      "assetIds": []
    },
    {
      "x": 140,
      "y": 254,
      "size": 1,
      "price": "1011000000000000000000",
      "reserved": "",
      "salt": "0xba2d3367333790190d010015a10efc1ccdbf450dc78ee7b7102ebb57b2c753e6",
      "assetIds": []
    },
    {
      "x": 140,
      "y": 255,
      "size": 1,
      "price": "1011000000000000000000",
      "reserved": "",
      "salt": "0xb3f042a7e9f9531b4a53281e1927b0cbc3249050c9656aa850caa4e32511a6e2",
      "assetIds": []
    },
    {
      "x": 140,
      "y": 256,
      "size": 1,
      "price": "1011000000000000000000",
      "reserved": "",
      "salt": "0xed2d3a7e4496213995bc802b9fe83e7d43fdae249bc2005af9b51f35a3ef236d",
      "assetIds": []
    },
    {
      "x": 140,
      "y": 257,
      "size": 1,
      "price": "4683000000000000000000",
      "reserved": "",
      "salt": "0x2cf2930ed0a9093f827e4e6dc73b1180f5ae9a31fa208cc62b55b9768bcd1011",
      "assetIds": [
        "24689790920213761622701051464601373579079789086904696266",
        "24691661642309545178436352181187250421344948680559705546"
      ]
    },
    {
      "x": 140,
      "y": 261,
      "size": 1,
      "price": "4683000000000000000000",
      "reserved": "",
      "salt": "0xc7c3728cdf55cf50d06d94e21470055175112a352fae7b0ded49965febee2b7d",
      "assetIds": [
        "24689790920213761622701051464601373579079789086904696266",
        "24691661642309545178436352181187250421344948680559705546"
      ]
    },
    {
      "x": 140,
      "y": 262,
      "size": 1,
      "price": "1011000000000000000000",
      "reserved": "",
      "salt": "0x1f37bda25b4834829f80f7b293c60f6da21e57f3c0806613fad0ac111c281fae",
      "assetIds": []
    },
    {
      "x": 140,
      "y": 263,
      "size": 1,
      "price": "1011000000000000000000",
      "reserved": "",
      "salt": "0x1415f5941c6841ec68a99ab78dd6f4de6d33f51e9041d8c490008f8db3602830",
      "assetIds": []
    },
    {
      "x": 141,
      "y": 249,
      "size": 1,
      "price": "1011000000000000000000",
      "reserved": "",
      "salt": "0x5dbee74a11beec660d0e71df54dfe77d6b344a559305a16c5d7a65a1be80f774",
      "assetIds": []
    },
    {
      "x": 141,
      "y": 250,
      "size": 1,
      "price": "1011000000000000000000",
      "reserved": "",
      "salt": "0x2297b68a89f6d2fe27a544518a9c75e281ff7a510493cb2158e8f61ee1c1db45",
      "assetIds": []
    },
    {
      "x": 141,
      "y": 251,
      "size": 1,
      "price": "1011000000000000000000",
      "reserved": "",
      "salt": "0xcd3d5e7eb9590613ed42da764da1548eb73b33cd19914ad6b807a6ef39f466ff",
      "assetIds": []
    },
    {
      "x": 141,
      "y": 252,
      "size": 1,
      "price": "1011000000000000000000",
      "reserved": "",
      "salt": "0xf7c8e6eced9e7286fc0212920656997aec477a0ae6a07f89684b1751c6aebdd5",
      "assetIds": []
    },
    {
      "x": 141,
      "y": 253,
      "size": 1,
      "price": "1011000000000000000000",
      "reserved": "",
      "salt": "0xf715161e8d602bf8e5b45d946555d5c3f2eb3f752e28e9e313d23b52fc0c7e06",
      "assetIds": []
    },
    {
      "x": 141,
      "y": 254,
      "size": 1,
      "price": "1011000000000000000000",
      "reserved": "",
      "salt": "0xb36fc9fde31075959934c463b7b9b9c17f43ea41a23b41b7d082a35b55046834",
      "assetIds": []
    },
    {
      "x": 141,
      "y": 255,
      "size": 1,
      "price": "1011000000000000000000",
      "reserved": "",
      "salt": "0x386d3681220ddd7e203027cd1f6111ada5c91245552f6eadaebed2be29ac42c4",
      "assetIds": []
    },
    {
      "x": 141,
      "y": 256,
      "size": 1,
      "price": "1011000000000000000000",
      "reserved": "",
      "salt": "0xe081c692df93695a3d2427956708bf0b357974545f07893431e7ad731e4097f9",
      "assetIds": []
    },
    {
      "x": 141,
      "y": 257,
      "size": 1,
      "price": "1011000000000000000000",
      "reserved": "",
      "salt": "0x913bd25f5a175d0be1a5b54c50532c2249473c700a390bac5221c1f1b17e69e4",
      "assetIds": []
    },
    {
      "x": 141,
      "y": 261,
      "size": 1,
      "price": "1011000000000000000000",
      "reserved": "",
      "salt": "0x4c92e12f4c73767595875f6781a14ad0ab1fe8932ec44c387a1bf65067e1f186",
      "assetIds": []
    },
    {
      "x": 141,
      "y": 262,
      "size": 1,
      "price": "1011000000000000000000",
      "reserved": "",
      "salt": "0xfcb4e28dea81ca4065d9acd9d74dfa5f9d86b696252a190a6a5aceffc679a9ed",
      "assetIds": []
    },
    {
      "x": 141,
      "y": 263,
      "size": 1,
      "price": "1011000000000000000000",
      "reserved": "",
      "salt": "0x8faaa6f9a5bc42f6a3b4827273847d7a31107a91105e310ef182ed45eb15af9e",
      "assetIds": []
    },
    {
      "x": 142,
      "y": 249,
      "size": 1,
      "price": "1011000000000000000000",
      "reserved": "0x7a9fe22691c811ea339d9b73150e6911a5343dca",
      "salt": "0x60a0905266f8084b3eb53b422dd5583e8ecc9b94e70ba7330a40bc7e1283d3da",
      "assetIds": []
    },
    {
      "x": 142,
      "y": 250,
      "size": 1,
      "price": "1011000000000000000000",
      "reserved": "",
      "salt": "0xdfac76161225f40a0f36a0defb8e936523aade74def173c2aec97746dd19441e",
      "assetIds": []
    },
    {
      "x": 142,
      "y": 251,
      "size": 1,
      "price": "1011000000000000000000",
      "reserved": "",
      "salt": "0xd368af65f14971ecc1498c20607762934cafa29621325b8788215e9b30c3cf46",
      "assetIds": []
    },
    {
      "x": 142,
      "y": 252,
      "size": 1,
      "price": "1011000000000000000000",
      "reserved": "",
      "salt": "0xf9352691d4bb98d882c5dd5ff4edae166ebe5378976ffc4a8037e1d0bcda7c55",
      "assetIds": []
    },
    {
      "x": 142,
      "y": 253,
      "size": 1,
      "price": "1011000000000000000000",
      "reserved": "0x7a9fe22691c811ea339d9b73150e6911a5343dca",
      "salt": "0x22aeae4cf1e050b14d837a8b014beb579f6bacd00c6284cf4ed7da1f3c41ee62",
      "assetIds": []
    },
    {
      "x": 142,
      "y": 254,
      "size": 1,
      "price": "1011000000000000000000",
      "reserved": "",
      "salt": "0x3f8950f3900d4d2a4da4db49e4b23ac8bbf8663fa1dec4d0a1d24c80bc37e4a4",
      "assetIds": []
    },
    {
      "x": 142,
      "y": 255,
      "size": 1,
      "price": "1011000000000000000000",
      "reserved": "",
      "salt": "0x8abdce86413bc7c40002df5f17ce0947dcdfe769cc5a7c3507bd9d23508319b6",
      "assetIds": []
    },
    {
      "x": 142,
      "y": 256,
      "size": 1,
      "price": "1011000000000000000000",
      "reserved": "",
      "salt": "0xe345bc5d172f04a485bc22151020bc14d9e116afc22f5ac79ebf5d5b7bc2b36d",
      "assetIds": []
    },
    {
      "x": 142,
      "y": 257,
      "size": 1,
      "price": "1011000000000000000000",
      "reserved": "",
      "salt": "0xd3e8c42c8fe95fcc9c80436709adaa3cdf48e92190e7d1b1407956ce4013318a",
      "assetIds": []
    },
    {
      "x": 142,
      "y": 261,
      "size": 1,
      "price": "1011000000000000000000",
      "reserved": "",
      "salt": "0x001298fcf799894c524faeda533fd2cb73a3578c86672500237528966570293b",
      "assetIds": []
    },
    {
      "x": 142,
      "y": 262,
      "size": 1,
      "price": "1011000000000000000000",
      "reserved": "",
      "salt": "0x76282451537fbfddeaea9224002b0c49b5282b3b622d6c812078ae5103af32e9",
      "assetIds": []
    },
    {
      "x": 142,
      "y": 263,
      "size": 1,
      "price": "1011000000000000000000",
      "reserved": "",
      "salt": "0x74b0ce2f2062be9091d80929a022305ddc7ee4379c177b769ada8aeccac60b78",
      "assetIds": []
    },
    {
      "x": 143,
      "y": 249,
      "size": 1,
      "price": "1011000000000000000000",
      "reserved": "",
      "salt": "0x91e120b7fdeb40dac5d9a696b28b6c8f77404f9a2f7c210afd4da72542549914",
      "assetIds": []
    },
    {
      "x": 143,
      "y": 250,
      "size": 1,
      "price": "1011000000000000000000",
      "reserved": "",
      "salt": "0x98b96381a37507a3344fd91de481b44e5570d98bfa95db9b87e85f05acb554a1",
      "assetIds": []
    },
    {
      "x": 143,
      "y": 251,
      "size": 1,
      "price": "1011000000000000000000",
      "reserved": "",
      "salt": "0x1a7a956f94c5f3bc630d14e9de48d69119f311819a2cad1865ee90a8911a68f9",
      "assetIds": []
    },
    {
      "x": 143,
      "y": 252,
      "size": 1,
      "price": "1011000000000000000000",
      "reserved": "",
      "salt": "0x961c32a1f24b482d5f8e7db88acc0723a97f1d8e9c6bc0b919e6effaacda069e",
      "assetIds": []
    },
    {
      "x": 143,
      "y": 253,
      "size": 1,
      "price": "1011000000000000000000",
      "reserved": "",
      "salt": "0xd846cbbc7b605b8e199629c61fc05ad027003576791212da7c45ab4eb2a90435",
      "assetIds": []
    },
    {
      "x": 143,
      "y": 254,
      "size": 1,
      "price": "1011000000000000000000",
      "reserved": "",
      "salt": "0x829cbc620ecf2bc26ee8055847ca56c68e6a9b5554acfe7b4261ae2efafded7b",
      "assetIds": []
    },
    {
      "x": 143,
      "y": 255,
      "size": 1,
      "price": "1011000000000000000000",
      "reserved": "",
      "salt": "0x0ee474e57e3c14cf6e08b70f0674c2dcf172d9956d8961c4902f37d9fe3fa9cf",
      "assetIds": []
    },
    {
      "x": 143,
      "y": 256,
      "size": 1,
      "price": "1011000000000000000000",
      "reserved": "",
      "salt": "0xe27b3cf1f1d71c47660770d68335a3ef55f6d8f3a7e29a2449757e228d4ee740",
      "assetIds": []
    },
    {
      "x": 143,
      "y": 257,
      "size": 1,
      "price": "1011000000000000000000",
      "reserved": "",
      "salt": "0xc860e89b2e1605691e7882273824eb7e2452bbc4cb78a09241ad4bcfd099c06d",
      "assetIds": []
    },
    {
      "x": 143,
      "y": 261,
      "size": 1,
      "price": "1011000000000000000000",
      "reserved": "",
      "salt": "0x2f0dc48354ebb21d58dd51fd9fa67abef96a3ee0c13702d2a5a80f6d736e6258",
      "assetIds": []
    },
    {
      "x": 143,
      "y": 262,
      "size": 1,
      "price": "1011000000000000000000",
      "reserved": "0x7a9fe22691c811ea339d9b73150e6911a5343dca",
      "salt": "0x1fe4daad124eb2113638a01d5443e4b3a83cca4cffa3a2768a8a179ddfe50871",
      "assetIds": []
    },
    {
      "x": 143,
      "y": 263,
      "size": 1,
      "price": "1011000000000000000000",
      "reserved": "",
      "salt": "0xaa01d9c082719629e80feb896a147727fa163e039df2f3d38ed9f7628cc70572",
      "assetIds": []
    },
    {
      "x": 144,
      "y": 252,
      "size": 1,
      "price": "1011000000000000000000",
      "reserved": "",
      "salt": "0xa6506bd78692cc7d8612811373cab97e7f5b5580919de2421966a18771baa657",
      "assetIds": []
    },
    {
      "x": 144,
      "y": 253,
      "size": 1,
      "price": "1011000000000000000000",
      "reserved": "",
      "salt": "0xfb653c6850b3af5c820b88327156b48fb3752be129306da1e846a820784ea997",
      "assetIds": []
    },
    {
      "x": 144,
      "y": 254,
      "size": 1,
      "price": "1011000000000000000000",
      "reserved": "",
      "salt": "0xfc6a95b04e53d8dc917229a77feebee61434d206365d040de062a6ae22df95bb",
      "assetIds": []
    },
    {
      "x": 144,
      "y": 255,
      "size": 1,
      "price": "1011000000000000000000",
      "reserved": "",
      "salt": "0xaa4038a7a2bc473c89c7d59dd0941e3c5f7bbb14dc4ab9c838d54e85895a8750",
      "assetIds": []
    },
    {
      "x": 144,
      "y": 256,
      "size": 1,
      "price": "1011000000000000000000",
      "reserved": "",
      "salt": "0x0d040b18d693976aa4011d40f7444febf05def3aca9f23d85ef220cda1cb0a1b",
      "assetIds": []
    },
    {
      "x": 144,
      "y": 257,
      "size": 1,
      "price": "1011000000000000000000",
      "reserved": "",
      "salt": "0x3a68d72d83b3e2d26d4f5fd68a4d0a52b355050be09cef532b05ae947889f7cb",
      "assetIds": []
    },
    {
      "x": 144,
      "y": 261,
      "size": 1,
      "price": "1011000000000000000000",
      "reserved": "",
      "salt": "0x2880c4a6247ec8c29acf1e9ed06f45b3244d2e84db6d3a89cdd3d29641c3d4d0",
      "assetIds": []
    },
    {
      "x": 144,
      "y": 262,
      "size": 1,
      "price": "1011000000000000000000",
      "reserved": "",
      "salt": "0x416da73349172bf9b711956e1e1b380d4ae3ebcffa0676e7af252bac8905ad76",
      "assetIds": []
    },
    {
      "x": 144,
      "y": 263,
      "size": 1,
      "price": "1011000000000000000000",
      "reserved": "",
      "salt": "0x5f92de7fa97319763b3db64d20ee980019ca2fc1f452ae5b6fecd4e8f90f9e82",
      "assetIds": []
    },
    {
      "x": 145,
      "y": 252,
      "size": 1,
      "price": "1011000000000000000000",
      "reserved": "",
      "salt": "0x4abbe6a161ae77764842c2b8493c9839d497bf07760b4f5fe8cbbcedce61854e",
      "assetIds": []
    },
    {
      "x": 145,
      "y": 253,
      "size": 1,
      "price": "1011000000000000000000",
      "reserved": "",
      "salt": "0x780ac0d0c2fe3f82bda2df53cf20ab94eaa82841a30dc29b1f9213880d9d9c5d",
      "assetIds": []
    },
    {
      "x": 145,
      "y": 254,
      "size": 1,
      "price": "1011000000000000000000",
      "reserved": "",
      "salt": "0x077712620885c8677ee619eaee486c6aeb1ffbc725d209736dc4849159ad7f8e",
      "assetIds": []
    },
    {
      "x": 145,
      "y": 255,
      "size": 1,
      "price": "1011000000000000000000",
      "reserved": "",
      "salt": "0x4da51d31194bddebe46300856a3062fd37abc9bac785978c38d9761ca7679842",
      "assetIds": []
    },
    {
      "x": 145,
      "y": 256,
      "size": 1,
      "price": "1011000000000000000000",
      "reserved": "0x7a9fe22691c811ea339d9b73150e6911a5343dca",
      "salt": "0x25eabd63eb6cfc535b9aa620a82f75f535ee095300e32851e912a8cf1a32a997",
      "assetIds": []
    },
    {
      "x": 145,
      "y": 257,
      "size": 1,
      "price": "1011000000000000000000",
      "reserved": "",
      "salt": "0x30d32ec0313432e2d5fe71e5ed188ab59d2fa18491ce0970f50be34c8ebc6719",
      "assetIds": []
    },
    {
      "x": 145,
      "y": 261,
      "size": 1,
      "price": "1011000000000000000000",
      "reserved": "",
      "salt": "0xb4347e4685683b48e03d67ebbee99cace6dd78c52cb8d3d1cbde0d123f89008c",
      "assetIds": []
    },
    {
      "x": 145,
      "y": 262,
      "size": 1,
      "price": "1011000000000000000000",
      "reserved": "",
      "salt": "0x4b25b4380a15f1fdd21bd30a872e0a8397dcd0537368358d9b95d4c21e25e206",
      "assetIds": []
    },
    {
      "x": 145,
      "y": 263,
      "size": 1,
      "price": "1011000000000000000000",
      "reserved": "",
      "salt": "0x964daeb57862eabfd1d0c0a486659e510cd18dd970d74056fba6f80979ae111b",
      "assetIds": []
    },
    {
      "x": 146,
      "y": 252,
      "size": 1,
      "price": "1011000000000000000000",
      "reserved": "",
      "salt": "0xf5e6d9839eb119dd562e0a5dc39bfd8e48cf244bc70efebd9d52502aeeaefb27",
      "assetIds": []
    },
    {
      "x": 146,
      "y": 253,
      "size": 1,
      "price": "1011000000000000000000",
      "reserved": "",
      "salt": "0xa4b2df0ccef5753371b5de28ed53e1401cc24ecd0596eb01ef9d3f49bd36ef49",
      "assetIds": []
    },
    {
      "x": 146,
      "y": 254,
      "size": 1,
      "price": "1011000000000000000000",
      "reserved": "",
      "salt": "0xbfd3a0b737e481b738fdcd2db01fa677c4945143a0f87caee9cb3283e576db21",
      "assetIds": []
    },
    {
      "x": 146,
      "y": 255,
      "size": 1,
      "price": "1011000000000000000000",
      "reserved": "",
      "salt": "0x7107838c75f2e80034acda2a9c9b36472b7deb2b9406f833a6388d4397fb5c13",
      "assetIds": []
    },
    {
      "x": 146,
      "y": 256,
      "size": 1,
      "price": "1011000000000000000000",
      "reserved": "",
      "salt": "0x2f02d9b6680e099801a0f6ea4c7241271647bc593fd1c002452db1a3bf89ca7c",
      "assetIds": []
    },
    {
      "x": 146,
      "y": 257,
      "size": 1,
      "price": "1011000000000000000000",
      "reserved": "",
      "salt": "0x28edcf295ae8748815b322ff65ff8ddf955351b514f2de152db3033a13413a6a",
      "assetIds": []
    },
    {
      "x": 146,
      "y": 261,
      "size": 1,
      "price": "1011000000000000000000",
      "reserved": "",
      "salt": "0x6d61ba8ee1d6a704c38e2c98a5186139ad26d6d1ac3f6c2443032769161d612d",
      "assetIds": []
    },
    {
      "x": 146,
      "y": 262,
      "size": 1,
      "price": "1011000000000000000000",
      "reserved": "",
      "salt": "0x4cc1010f34c39d74c3543c86498ec969715d332d9a17e7f5c6a11cefa10523e7",
      "assetIds": []
    },
    {
      "x": 146,
      "y": 263,
      "size": 1,
      "price": "1011000000000000000000",
      "reserved": "",
      "salt": "0x8c22362d24a42ed762d5d9a2b3fc61fd7f3775cf8d9360d1015af42437892563",
      "assetIds": []
    },
    {
      "x": 147,
      "y": 255,
      "size": 1,
      "price": "1011000000000000000000",
      "reserved": "",
      "salt": "0x3fc677c9ca7e835aecb77a55db0436369d07805972a608b6150145848c860b61",
      "assetIds": []
    },
    {
      "x": 147,
      "y": 256,
      "size": 1,
      "price": "1011000000000000000000",
      "reserved": "",
      "salt": "0x869d532f195bdcd3a726f2311355ad4203e771785c4df179f973ac26b881ae0e",
      "assetIds": []
    },
    {
      "x": 147,
      "y": 257,
      "size": 1,
      "price": "1011000000000000000000",
      "reserved": "",
      "salt": "0xcdc9a68535ac6170428062ac42b873bfe3815f0afcae5030b263a43fc12fe390",
      "assetIds": []
    },
    {
      "x": 147,
      "y": 258,
      "size": 1,
      "price": "1011000000000000000000",
      "reserved": "",
      "salt": "0x92fc9847d6e05fdae15c93522b6aca665742905a1ea3eaafe1b8d6cda7c0f2b8",
      "assetIds": []
    },
    {
      "x": 147,
      "y": 259,
      "size": 1,
      "price": "1011000000000000000000",
      "reserved": "",
      "salt": "0x8c1e8a957557569ec566a0c3deb13b4834f5e2848b5b66d32ae07a816394d07a",
      "assetIds": []
    },
    {
      "x": 147,
      "y": 260,
      "size": 1,
      "price": "1011000000000000000000",
      "reserved": "",
      "salt": "0x48a4d11ad2291d73bffeec1223f45246904287cff835bafe249b590957eca58f",
      "assetIds": []
    },
    {
      "x": 147,
      "y": 261,
      "size": 1,
      "price": "1011000000000000000000",
      "reserved": "",
      "salt": "0xd89fe9a9ff0cba19a14004f170ebcd244f49f4b12601c3bbcdf7364b11d72529",
      "assetIds": []
    },
    {
      "x": 147,
      "y": 262,
      "size": 1,
      "price": "1011000000000000000000",
      "reserved": "",
      "salt": "0xd8384fca343a942a37a98a5d88c1789fc466de19314ff7dcaf4654131ce77bd1",
      "assetIds": []
    },
    {
      "x": 147,
      "y": 263,
      "size": 1,
      "price": "1011000000000000000000",
      "reserved": "",
      "salt": "0xd6502dd39c8125ddd77f69089cb3ab655c01ca13369960b7a7752884de5fe3bf",
      "assetIds": []
    },
    {
      "x": 148,
      "y": 255,
      "size": 1,
      "price": "1011000000000000000000",
      "reserved": "",
      "salt": "0xf983de808c7f5488127f94e5b6ec4ec9aa2d7717f8ad7371eb709ac63aae2968",
      "assetIds": []
    },
    {
      "x": 148,
      "y": 256,
      "size": 1,
      "price": "1011000000000000000000",
      "reserved": "",
      "salt": "0xa5d19a39df071cd8a691d0681bfb71e323c2ac13f89259f3fd788ed8999becf8",
      "assetIds": []
    },
    {
      "x": 148,
      "y": 257,
      "size": 1,
      "price": "1011000000000000000000",
      "reserved": "0x7a9fe22691c811ea339d9b73150e6911a5343dca",
      "salt": "0xd16de595ef78a87ff34e5d3356f1f6cf2aa18819f0831112874c4d1d1e6da803",
      "assetIds": []
    },
    {
      "x": 148,
      "y": 258,
      "size": 1,
      "price": "1011000000000000000000",
      "reserved": "",
      "salt": "0x9320aed42bd1e5d88835cf7cabc4eaabdc2c03d5ec05ff6fef3eedb8d6143a88",
      "assetIds": []
    },
    {
      "x": 148,
      "y": 259,
      "size": 1,
      "price": "1011000000000000000000",
      "reserved": "",
      "salt": "0xaba87c106b13a5baaa694295f300d15c185de3644247f5f7ae23a0fd60e788bd",
      "assetIds": []
    },
    {
      "x": 148,
      "y": 260,
      "size": 1,
      "price": "1011000000000000000000",
      "reserved": "",
      "salt": "0x1b5189d0d592ce72ad3f89b4c6137005ffbeb95ceca0caff1a986224dae23686",
      "assetIds": []
    },
    {
      "x": 148,
      "y": 261,
      "size": 1,
      "price": "1011000000000000000000",
      "reserved": "0x7a9fe22691c811ea339d9b73150e6911a5343dca",
      "salt": "0xb17a085e49fe82aaad6585ea7e0e35c39a898e92bfed20d48712d88d1920b188",
      "assetIds": []
    },
    {
      "x": 148,
      "y": 262,
      "size": 1,
      "price": "1011000000000000000000",
      "reserved": "",
      "salt": "0x6dc4264e38675c19b4a6bfe9cffa861cc1e322107eb30b793be5490318d606c3",
      "assetIds": []
    },
    {
      "x": 148,
      "y": 263,
      "size": 1,
      "price": "1011000000000000000000",
      "reserved": "",
      "salt": "0x2823cb68060fd3063e8b0c3f98e7716c77a2660e1066b64c52261411acae9588",
      "assetIds": []
    },
    {
      "x": 149,
      "y": 255,
      "size": 1,
      "price": "1011000000000000000000",
      "reserved": "",
      "salt": "0xb450ef9b42f9ea9b121044e329e6fa660c24f177b51d2e25103b4fb1662f9258",
      "assetIds": []
    },
    {
      "x": 149,
      "y": 256,
      "size": 1,
      "price": "1011000000000000000000",
      "reserved": "",
      "salt": "0x91738aae2e9c9d7f0ed4b0c81db502c4129d1e00fd4830ca89710b0299cb98e8",
      "assetIds": []
    },
    {
      "x": 149,
      "y": 257,
      "size": 1,
      "price": "1011000000000000000000",
      "reserved": "",
      "salt": "0x019dad29a4e4361ebd24619503c19faee16e896e07b6367afd5bbc12f9f029fe",
      "assetIds": []
    },
    {
      "x": 149,
      "y": 258,
      "size": 1,
      "price": "1011000000000000000000",
      "reserved": "",
      "salt": "0xde56fb43313954ef548df53e7341c6a6156d69b68722f946dbc8e27e862a610f",
      "assetIds": []
    },
    {
      "x": 149,
      "y": 259,
      "size": 1,
      "price": "1011000000000000000000",
      "reserved": "",
      "salt": "0xaf627d653a9c48a7d017444052e294e178a3fbf1fed38359ff63829e21be59d7",
      "assetIds": []
    },
    {
      "x": 149,
      "y": 260,
      "size": 1,
      "price": "1011000000000000000000",
      "reserved": "",
      "salt": "0xf3cdd9a2ab20423ef321ef59463e026a10ef75e04dc34d1855767043af5630a2",
      "assetIds": []
    },
    {
      "x": 149,
      "y": 261,
      "size": 1,
      "price": "1011000000000000000000",
      "reserved": "",
      "salt": "0xb90edac9d4229046765d0b2e09dae172560ece24688132677fc869aeda6132a0",
      "assetIds": []
    },
    {
      "x": 149,
      "y": 262,
      "size": 1,
      "price": "1011000000000000000000",
      "reserved": "",
      "salt": "0xbc2ae99de4c7fd7a0b3be1bc95f3cf84efa00f3a1f4aca05a0cb8f7a6c549a6e",
      "assetIds": []
    },
    {
      "x": 149,
      "y": 263,
      "size": 1,
      "price": "1011000000000000000000",
      "reserved": "",
      "salt": "0x3850651fe85124b33d5d8e877dddf1546e9eb51353ef990d10ad32f5b316f368",
      "assetIds": []
    },
    {
      "x": 150,
      "y": 252,
      "size": 1,
      "price": "1011000000000000000000",
      "reserved": "",
      "salt": "0xae0acc8196426f0f4837481fcfca65a93417036af6fb50a96dee3621c9f8928f",
      "assetIds": []
    },
    {
      "x": 150,
      "y": 253,
      "size": 1,
      "price": "1011000000000000000000",
      "reserved": "",
      "salt": "0x56e357461d403c1059ade8be19499bdabc48e801e7256ddb39a2896a64ba7564",
      "assetIds": []
    },
    {
      "x": 150,
      "y": 254,
      "size": 1,
      "price": "1011000000000000000000",
      "reserved": "",
      "salt": "0xd98aac297320015ac74d0bb049d87787655daf22619faa1cac9610327c0e726d",
      "assetIds": []
    },
    {
      "x": 151,
      "y": 252,
      "size": 1,
      "price": "1011000000000000000000",
      "reserved": "",
      "salt": "0x2f5e62075d9a513c1e7458c9ca9d2c7db5c67713d3850982304c8256770de124",
      "assetIds": []
    },
    {
      "x": 151,
      "y": 253,
      "size": 1,
      "price": "1011000000000000000000",
      "reserved": "",
      "salt": "0x3a2aad6d82c9547eb7f327bf4a680cd7d847acc73ebfd9acdfafa679feb93715",
      "assetIds": []
    },
    {
      "x": 151,
      "y": 254,
      "size": 1,
      "price": "1011000000000000000000",
      "reserved": "",
      "salt": "0x8e1e865c945c7b98b37b682abc725bff1c614b2280961d29b0c9b7917ea931ee",
      "assetIds": []
    },
    {
      "x": 120,
      "y": 246,
      "size": 3,
      "price": "8648000000000000000000",
      "reserved": "0x7a9fe22691c811ea339d9b73150e6911a5343dca",
      "salt": "0xa296a2f49572f129c3377769821b43e34f15ba02ff983a0acb7a6e3f4c911917",
      "assetIds": []
    },
    {
      "x": 135,
      "y": 249,
      "size": 3,
      "price": "8648000000000000000000",
      "reserved": "0x7a9fe22691c811ea339d9b73150e6911a5343dca",
      "salt": "0xfd2bc9ee51e883967aa7dbf734ad01d13295476bcee1e270d99173218b6e44fe",
      "assetIds": []
    },
    {
      "x": 138,
      "y": 243,
      "size": 3,
      "price": "8648000000000000000000",
      "reserved": "0x7a9fe22691c811ea339d9b73150e6911a5343dca",
      "salt": "0x460b60815207feabd03a5ec172e0c83c82aceb4dc3a5e7be8c4f9145758744cd",
      "assetIds": []
    },
    {
      "x": 138,
      "y": 258,
      "size": 3,
      "price": "8648000000000000000000",
      "reserved": "0x7a9fe22691c811ea339d9b73150e6911a5343dca",
      "salt": "0x29c168b43dc33e28a13d935d4155973cf0b25fce0bb672281d1b342c55d8a813",
      "assetIds": []
    },
    {
      "x": 141,
      "y": 258,
      "size": 3,
      "price": "8648000000000000000000",
      "reserved": "0x7a9fe22691c811ea339d9b73150e6911a5343dca",
      "salt": "0x3c1c4e70b716ebe5b300f2230cf5f33770cc8f454ee0f074b4a0100360629705",
      "assetIds": []
    },
    {
      "x": 144,
      "y": 258,
      "size": 3,
      "price": "8648000000000000000000",
      "reserved": "0x7a9fe22691c811ea339d9b73150e6911a5343dca",
      "salt": "0x593cff3580d687fa37f026711912119246808329e29c88d5219081854ee35506",
      "assetIds": []
    },
    {
      "x": 147,
      "y": 252,
      "size": 3,
      "price": "8648000000000000000000",
      "reserved": "0x7a9fe22691c811ea339d9b73150e6911a5343dca",
      "salt": "0x3645218c90cd94a7dc30e9500b72cb1409fca735dfe746f6c78809f974ba72cd",
      "assetIds": []
    },
    {
      "x": 126,
      "y": 246,
      "size": 6,
      "price": "32772000000000000000000",
      "reserved": "0x7a9fe22691c811ea339d9b73150e6911a5343dca",
      "salt": "0xaffd9fbae505ea355e95009e4b39a61a79d6d13f2a62fd3660ea4860191f3f0b",
      "assetIds": []
    },
    {
      "x": 126,
      "y": 258,
      "size": 6,
      "price": "32772000000000000000000",
      "reserved": "0x7a9fe22691c811ea339d9b73150e6911a5343dca",
      "salt": "0xeffbe9b153454f436969ff44c60f06b8d1d84973f5653b6f7163418e27d3ff85",
      "assetIds": []
    },
    {
      "x": 132,
      "y": 252,
      "size": 6,
      "price": "32772000000000000000000",
      "reserved": "0x7a9fe22691c811ea339d9b73150e6911a5343dca",
      "salt": "0x674c74dd671d0183c83748a5e7e1d4ac0d6ab595116eca9942d177de4317a7d7",
      "assetIds": []
    }
  ],
  "solcInputHash": "b42a863a795806b4ea3a8f05dfa42539",
  "bytecode": "0x6101606040523480156200001257600080fd5b50604051620031e9380380620031e983398181016040526101a08110156200003957600080fd5b508051602082015160408301516060840151608085015160a086015160c087015160e08801516101008901516101208a01516101408b01516101608c0151610180909c015160016000559a9b999a9899979896979596949593949293919290919085856001600160a01b038216620000f8576040805162461bcd60e51b815260206004820152601f60248201527f526566657272616c56616c696461746f723a207a65726f206164647265737300604482015290519081900360640190fd5b600380546001600160a01b0319166001600160a01b0393841617905560045562000130908e1662000459602090811b62002adc17901c565b6200016d5760405162461bcd60e51b8152600401808060200182810382526025815260200180620031c46025913960400191505060405180910390fd5b6200018c8c6001600160a01b03166200045960201b62002adc1760201c565b620001c95760405162461bcd60e51b8152600401808060200182810382526025815260200180620031c46025913960400191505060405180910390fd5b6001600160a01b038b1662000214576040805162461bcd60e51b815260206004820181905260248201526000805160206200317f833981519152604482015290519081900360640190fd5b6001600160a01b038a166200025f576040805162461bcd60e51b815260206004820181905260248201526000805160206200317f833981519152604482015290519081900360640190fd5b6001600160a01b038916620002aa576040805162461bcd60e51b815260206004820181905260248201526000805160206200317f833981519152604482015290519081900360640190fd5b620002c9836001600160a01b03166200045960201b62002adc1760201c565b620003065760405162461bcd60e51b8152600401808060200182810382526025815260200180620031c46025913960400191505060405180910390fd5b6001600160a01b03821662000351576040805162461bcd60e51b815260206004820181905260248201526000805160206200317f833981519152604482015290519081900360640190fd5b62000370816001600160a01b03166200045960201b62002adc1760201c565b620003ad5760405162461bcd60e51b8152600401808060200182810382526025815260200180620031c46025913960400191505060405180910390fd5b6001600160601b031960608e811b821660a0528d901b1660c052620003dd8b60016001600160e01b036200045f16565b600680546001600160a01b039a8b166001600160a01b031991821617909155610140989098526101209690965260018054998916998816999099179098556001600160601b0319606092831b811660e05290821b811660805296901b909516610100525060078054919093169116179055506200050a92505050565b3b151590565b6001600160a01b038216620004a65760405162461bcd60e51b81526004018080602001828103825260258152602001806200319f6025913960400191505060405180910390fd5b6001600160a01b038216600081815260026020908152604091829020805460ff191685151590811790915582519384529083015280517fb21eb88b4e33b3f1281830a7178d74d8aa73220416215726b68ae23d539515cb9281900390910190a15050565b60805160601c60a05160601c60c05160601c60e05160601c6101005160601c6101205161014051612bef6200059060003980610be0528061247e525080610bbc528061159d5250806124fc525080611af25280611c4f525080611aa85280611e4e52806124d9525080611b235280611c205250806111075280611f3a5250612bef6000f3fe608060405234801561001057600080fd5b50600436106101365760003560e01c8063984d6252116100b2578063c10a420811610081578063dc5074af11610066578063dc5074af146108a0578063e56f8a9e146108c6578063f23a6e61146108e357610136565b8063c10a4208146107c1578063caed35001461089857610136565b8063984d62521461055f578063ab1cc78c14610631578063b522ecff14610639578063bc197c811461065f57610136565b806365194ce71161010957806378e6e5b9116100ee57806378e6e5b9146104e55780638a04af6a1461050b5780638f2839701461053957610136565b806365194ce7146103635780636e9960c3146104c157610136565b80631187fd3c1461013b57806325cb5bc01461031b578063495906571461033557806358bc29441461033d575b600080fd5b610319600480360361012081101561015257600080fd5b6001600160a01b038235811692602081013582169260408201359092169181019060808101606082013564010000000081111561018e57600080fd5b8201836020820111156101a057600080fd5b803590602001918460208302840111640100000000831117156101c257600080fd5b919390928235926040810190602001356401000000008111156101e457600080fd5b8201836020820111156101f657600080fd5b8035906020019184602083028401116401000000008311171561021857600080fd5b91939092909160208101903564010000000081111561023657600080fd5b82018360208201111561024857600080fd5b8035906020019184602083028401116401000000008311171561026a57600080fd5b91939092909160208101903564010000000081111561028857600080fd5b82018360208201111561029a57600080fd5b803590602001918460018302840111640100000000831117156102bc57600080fd5b9193909290916020810190356401000000008111156102da57600080fd5b8201836020820111156102ec57600080fd5b8035906020019184600183028401116401000000008311171561030e57600080fd5b509092509050610978565b005b610323610bba565b60408051918252519081900360200190f35b610323610bde565b6103196004803603602081101561035357600080fd5b50356001600160a01b0316610c02565b6104096004803603602081101561037957600080fd5b81019060208101813564010000000081111561039457600080fd5b8201836020820111156103a657600080fd5b803590602001918460018302840111640100000000831117156103c857600080fd5b91908080601f016020809104026020016040519081016040528093929190818152602001838380828437600092019190915250929550610d2e945050505050565b6040518080602001866001600160a01b03166001600160a01b03168152602001856001600160a01b03166001600160a01b03168152602001848152602001838152602001828103825287818151815260200191508051906020019080838360005b8381101561048257818101518382015260200161046a565b50505050905090810190601f1680156104af5780820380516001836020036101000a031916815260200191505b50965050505050505060405180910390f35b6104c9610e33565b604080516001600160a01b039092168252519081900360200190f35b610319600480360360208110156104fb57600080fd5b50356001600160a01b0316610e42565b6103196004803603604081101561052157600080fd5b506001600160a01b0381351690602001351515610f00565b6103196004803603602081101561054f57600080fd5b50356001600160a01b0316610f6d565b6103196004803603606081101561057557600080fd5b6001600160a01b0382351691908101906040810160208201356401000000008111156105a057600080fd5b8201836020820111156105b257600080fd5b803590602001918460208302840111640100000000831117156105d457600080fd5b9193909290916020810190356401000000008111156105f257600080fd5b82018360208201111561060457600080fd5b8035906020019184602083028401116401000000008311171561062657600080fd5b5090925090506110a6565b610323611231565b6103196004803603602081101561064f57600080fd5b50356001600160a01b0316611237565b61078c600480360360a081101561067557600080fd5b6001600160a01b0382358116926020810135909116918101906060810160408201356401000000008111156106a957600080fd5b8201836020820111156106bb57600080fd5b803590602001918460208302840111640100000000831117156106dd57600080fd5b9193909290916020810190356401000000008111156106fb57600080fd5b82018360208201111561070d57600080fd5b8035906020019184602083028401116401000000008311171561072f57600080fd5b91939092909160208101903564010000000081111561074d57600080fd5b82018360208201111561075f57600080fd5b8035906020019184600183028401116401000000008311171561078157600080fd5b509092509050611348565b604080517fffffffff000000000000000000000000000000000000000000000000000000009092168252519081900360200190f35b610884600480360360a08110156107d757600080fd5b8101906020810181356401000000008111156107f257600080fd5b82018360208201111561080457600080fd5b8035906020019184600183028401116401000000008311171561082657600080fd5b91908080601f016020809104026020016040519081016040528093929190818152602001838380828437600092019190915250929550506001600160a01b038335811694506020840135169260408101359250606001359050611375565b604080519115158252519081900360200190f35b6104c96114b1565b610884600480360360208110156108b657600080fd5b50356001600160a01b03166114c0565b610319600480360360208110156108dc57600080fd5b50356114de565b61078c600480360360a08110156108f957600080fd5b6001600160a01b03823581169260208101359091169160408201359160608101359181019060a08101608082013564010000000081111561093957600080fd5b82018360208201111561094b57600080fd5b8035906020019184600183028401116401000000008311171561096d57600080fd5b509092509050611570565b600260005414156109d0576040805162461bcd60e51b815260206004820152601f60248201527f5265656e7472616e637947756172643a207265656e7472616e742063616c6c00604482015290519081900360640190fd5b60026000556109df8e8d61159b565b610ad68d8d8d8d80806020026020016040519081016040528093929190818152602001838360200280828437600081840152601f19601f820116905080830192505050505050508c8c8c80806020026020016040519081016040528093929190818152602001838360200280828437600081840152601f19601f820116905080830192505050505050508b8b8080602002602001604051908101604052809392919081815260200183836020028082843760009201919091525050604080516020601f8d018190048102820181019092528b815292508b91508a90819084018382808284376000920191909152506116fe92505050565b610b2a8e8c8c6003818110610ae757fe5b9050602002013586868080601f016020809104026020016040519081016040528093929190818152602001838380828437600092019190915250611a8192505050565b610b688e8e8d8d80806020026020016040519081016040528093929190818152602001838360200280828437600092019190915250611ad292505050565b610ba58d898980806020026020016040519081016040528093929190818152602001838360200280828437600092019190915250611ec392505050565b50506001600055505050505050505050505050565b7f000000000000000000000000000000000000000000000000000000000000000090565b7f000000000000000000000000000000000000000000000000000000000000000090565b6001546001600160a01b03163314610c61576040805162461bcd60e51b815260206004820152601260248201527f6f6e6c792061646d696e20616c6c6f7765640000000000000000000000000000604482015290519081900360640190fd5b6001600160a01b038116610cbc576040805162461bcd60e51b815260206004820152601f60248201527f526566657272616c56616c696461746f723a207a65726f206164647265737300604482015290519081900360640190fd5b600380546001600160a01b03908116600090815260056020526040808220620d2f0042019055835473ffffffffffffffffffffffffffffffffffffffff1916928516928317909355915190917fbbb5fb2ee7e707ae0c968f63e94211ea81e66a718c34e2f810a7619e5678a21791a250565b606060008060008060606000806000808a80602001905160a0811015610d5357600080fd5b8101908080516040519392919084640100000000821115610d7357600080fd5b908301906020820185811115610d8857600080fd5b8251640100000000811182820188101715610da257600080fd5b82525081516020918201929091019080838360005b83811015610dcf578181015183820152602001610db7565b50505050905090810190601f168015610dfc5780820380516001836020036101000a031916815260200191505b5060409081526020820151908201516060830151608090930151959f50909d509b5099509197505050505050505091939590929450565b6001546001600160a01b031690565b6001546001600160a01b03163314610e8b5760405162461bcd60e51b8152600401808060200182810382526023815260200180612b056023913960400191505060405180910390fd5b6001600160a01b038116610ee6576040805162461bcd60e51b815260206004820152601f60248201527f526566657272616c56616c696461746f723a207a65726f206164647265737300604482015290519081900360640190fd5b6001600160a01b0316600090815260056020526040812055565b6001546001600160a01b03163314610f5f576040805162461bcd60e51b815260206004820152601260248201527f6f6e6c792061646d696e20616c6c6f7765640000000000000000000000000000604482015290519081900360640190fd5b610f698282612087565b5050565b6001546001600160a01b03163314610fcc576040805162461bcd60e51b815260206004820152601b60248201527f6f6e6c792061646d696e2063616e206368616e67652061646d696e0000000000604482015290519081900360640190fd5b6001546001600160a01b038281169116141561102f576040805162461bcd60e51b815260206004820152600d60248201527f616c72656164792061646d696e00000000000000000000000000000000000000604482015290519081900360640190fd5b600154604080516001600160a01b039283168152918316602083015280517f7e644d79422f17c01e4894b5f4f588d331ebfa28653d42ae832dc59e38c9798f9281900390910190a16001805473ffffffffffffffffffffffffffffffffffffffff19166001600160a01b0392909216919091179055565b6001546001600160a01b03163314611105576040805162461bcd60e51b815260206004820152600e60248201527f4e4f545f415554484f52495a4544000000000000000000000000000000000000604482015290519081900360640190fd5b7f00000000000000000000000000000000000000000000000000000000000000006001600160a01b0316632eb2c2d63087878787876040518763ffffffff1660e01b815260040180876001600160a01b03166001600160a01b03168152602001866001600160a01b03166001600160a01b031681526020018060200180602001806020018481038452888882818152602001925060200280828437600083820152601f01601f19169091018581038452868152602090810191508790870280828437600081840152601f19601f8201169050808301925050508481038252600081526020016020019950505050505050505050600060405180830381600087803b15801561121257600080fd5b505af1158015611226573d6000803e3d6000fd5b505050505050505050565b60045490565b6001600160a01b038116611292576040805162461bcd60e51b815260206004820152600c60248201527f5a45524f5f414444524553530000000000000000000000000000000000000000604482015290519081900360640190fd5b6001546001600160a01b031633146112f1576040805162461bcd60e51b815260206004820152600e60248201527f4e4f545f415554484f52495a4544000000000000000000000000000000000000604482015290519081900360640190fd5b6006805473ffffffffffffffffffffffffffffffffffffffff19166001600160a01b0383169081179091556040517f4d66958b757eb92a1b43d02be4c38c9500b73f532420ee3706cb43d420ba023690600090a250565b7fbc197c810000000000000000000000000000000000000000000000000000000098975050505050505050565b60006004548211806113985750836001600160a01b0316856001600160a01b0316145b806113a257508242115b156113af575060006114a8565b60408051606087811b7fffffffffffffffffffffffffffffffffffffffff0000000000000000000000009081166020808501919091529188901b166034830152604882018690526068808301869052835180840390910181526088830184528051908201207f19457468657265756d205369676e6564204d6573736167653a0a33320000000060a884015260c48084018290528451808503909101815260e49093019093528151910120600090611466908961214e565b6001600160a01b0381166000908152600560205260409020549091504211611493576001925050506114a8565b6003546001600160a01b039081169116149150505b95945050505050565b6003546001600160a01b031690565b6001600160a01b031660009081526002602052604090205460ff1690565b6001546001600160a01b0316331461153d576040805162461bcd60e51b815260206004820152601260248201527f6f6e6c792061646d696e20616c6c6f7765640000000000000000000000000000604482015290519081900360640190fd5b600481905560405181907f774069781371d65424b3b0b101c1d40014532cac040f979595b99a3fcf8ce08c90600090a250565b7ff23a6e61000000000000000000000000000000000000000000000000000000009695505050505050565b7f0000000000000000000000000000000000000000000000000000000000000000421061160f576040805162461bcd60e51b815260206004820152600c60248201527f53414c455f49535f4f5645520000000000000000000000000000000000000000604482015290519081900360640190fd5b6001600160a01b03821633148061163557503360009081526002602052604090205460ff165b611686576040805162461bcd60e51b815260206004820152600e60248201527f4e4f545f415554484f52495a4544000000000000000000000000000000000000604482015290519081900360640190fd5b6001600160a01b03811615806116ad5750816001600160a01b0316816001600160a01b0316145b610f69576040805162461bcd60e51b815260206004820152600d60248201527f52455345525645445f4c414e4400000000000000000000000000000000000000604482015290519081900360640190fd5b600087878760008151811061170f57fe5b60200260200101518860018151811061172457fe5b60200260200101518960028151811061173957fe5b60200260200101518a60038151811061174e57fe5b60200260200101518a8a60405160200180828051906020019060200280838360005b83811015611788578181015183820152602001611770565b50505050905001915050604051602081830303815290604052805190602001208a60405160200180828051906020019060200280838360005b838110156117d95781810151838201526020016117c1565b5050505090500191505060405160208183030381529060405280519060200120604051602001808a6001600160a01b03166001600160a01b031660601b8152601401896001600160a01b03166001600160a01b031660601b81526014018881526020018781526020018681526020018581526020018481526020018381526020018281526020019950505050505050505050604051602081830303815290604052805190602001209050600760009054906101000a90046001600160a01b03166001600160a01b031663012847ed83836040518363ffffffff1660e01b81526004018080602001838152602001828103825284818151815260200191508051906020019080838360005b838110156118fb5781810151838201526020016118e3565b50505050905090810190601f1680156119285780820380516001836020036101000a031916815260200191505b50935050505060206040518083038186803b15801561194657600080fd5b505afa15801561195a573d6000803e3d6000fd5b505050506040513d602081101561197057600080fd5b50516119c3576040805162461bcd60e51b815260206004820152600c60248201527f494e56414c49445f415554480000000000000000000000000000000000000000604482015290519081900360640190fd5b6000611a24876000815181106119d557fe5b6020026020010151886001815181106119ea57fe5b6020026020010151896002815181106119ff57fe5b60200260200101518a600381518110611a1457fe5b60200260200101518c8b8b612337565b9050611a3084826123dc565b611226576040805162461bcd60e51b815260206004820152600c60248201527f494e56414c49445f4c414e440000000000000000000000000000000000000000604482015290519081900360640190fd5b6000611a8d84846124a5565b600654909150611acc908590839085906001600160a01b03167f000000000000000000000000000000000000000000000000000000000000000061253f565b50505050565b80600281518110611adf57fe5b602002602001015160011480611b1c57507f00000000000000000000000000000000000000000000000000000000000000006001600160a01b0316155b15611c1e577f00000000000000000000000000000000000000000000000000000000000000006001600160a01b0316636e1e3bbf8383600281518110611b5e57fe5b602002602001015184600081518110611b7357fe5b602002602001015185600181518110611b8857fe5b60200260200101516040518563ffffffff1660e01b815260040180856001600160a01b03166001600160a01b031681526020018481526020018381526020018281526020018060200182810382526000815260200160200195505050505050600060405180830381600087803b158015611c0157600080fd5b505af1158015611c15573d6000803e3d6000fd5b50505050611dbe565b7f00000000000000000000000000000000000000000000000000000000000000006001600160a01b0316636e1e3bbf7f000000000000000000000000000000000000000000000000000000000000000083600281518110611c7b57fe5b602002602001015184600081518110611c9057fe5b602002602001015185600181518110611ca557fe5b60200260200101518760405160200180826001600160a01b03166001600160a01b031681526020019150506040516020818303038152906040526040518663ffffffff1660e01b815260040180866001600160a01b03166001600160a01b0316815260200185815260200184815260200183815260200180602001828103825283818151815260200191508051906020019080838360005b83811015611d55578181015183820152602001611d3d565b50505050905090810190601f168015611d825780820380516001836020036101000a031916815260200191505b509650505050505050600060405180830381600087803b158015611da557600080fd5b505af1158015611db9573d6000803e3d6000fd5b505050505b61019881600181518110611dce57fe5b60200260200101510281600081518110611de457fe5b602002602001015101826001600160a01b0316846001600160a01b03167fe4dfa6ac11314892f3029b34a25b1a887da3b1cab2bbf8506d87128ba6e3ac0284600281518110611e2f57fe5b602002602001015185600381518110611e4457fe5b60200260200101517f000000000000000000000000000000000000000000000000000000000000000087600381518110611e7a57fe5b602002602001015160405180858152602001848152602001836001600160a01b03166001600160a01b0316815260200182815260200194505050505060405180910390a4505050565b6060815167ffffffffffffffff81118015611edd57600080fd5b50604051908082528060200260200182016040528015611f07578160200160208202803683370190505b50905060005b8251811015611f37576001828281518110611f2457fe5b6020908102919091010152600101611f0d565b507f00000000000000000000000000000000000000000000000000000000000000006001600160a01b0316632eb2c2d6308585856040518563ffffffff1660e01b815260040180856001600160a01b03166001600160a01b03168152602001846001600160a01b03166001600160a01b03168152602001806020018060200180602001848103845286818151815260200191508051906020019060200280838360005b83811015611ff2578181015183820152602001611fda565b50505050905001848103835285818151815260200191508051906020019060200280838360005b83811015612031578181015183820152602001612019565b50505050905001848103825260008152602001602001975050505050505050600060405180830381600087803b15801561206a57600080fd5b505af115801561207e573d6000803e3d6000fd5b50505050505050565b6001600160a01b0382166120cc5760405162461bcd60e51b8152600401808060200182810382526025815260200180612b6b6025913960400191505060405180910390fd5b6001600160a01b03821660008181526002602090815260409182902080547fffffffffffffffffffffffffffffffffffffffffffffffffffffffffffffff001685151590811790915582519384529083015280517fb21eb88b4e33b3f1281830a7178d74d8aa73220416215726b68ae23d539515cb9281900390910190a15050565b600081516041146121a6576040805162461bcd60e51b815260206004820152601f60248201527f45434453413a20696e76616c6964207369676e6174757265206c656e67746800604482015290519081900360640190fd5b60208201516040830151606084015160001a7f7fffffffffffffffffffffffffffffff5d576e7357a4501ddfe92f46681b20a08211156122175760405162461bcd60e51b8152600401808060200182810382526022815260200180612ae36022913960400191505060405180910390fd5b8060ff16601b1415801561222f57508060ff16601c14155b1561226b5760405162461bcd60e51b8152600401808060200182810382526022815260200180612b286022913960400191505060405180910390fd5b60408051600080825260208083018085528a905260ff85168385015260608301879052608083018690529251909260019260a080820193601f1981019281900390910190855afa1580156122c3573d6000803e3d6000fd5b5050604051601f1901519150506001600160a01b03811661232b576040805162461bcd60e51b815260206004820152601860248201527f45434453413a20696e76616c6964207369676e61747572650000000000000000604482015290519081900360640190fd5b93505050505b92915050565b60008787878787878760405160200180888152602001878152602001868152602001858152602001846001600160a01b03166001600160a01b031660601b8152601401838152602001828051906020019060200280838360005b838110156123a9578181015183820152602001612391565b50505050905001975050505050505050604051602081830303815290604052805190602001209050979650505050505050565b600081815b845181101561247b5760008582815181106123f857fe5b60200260200101519050808310156124405782816040516020018083815260200182815260200192505050604051602081830303815290604052805190602001209250612472565b808360405160200180838152602001828152602001925050506040516020818303038152906040528051906020012092505b506001016123e1565b507f0000000000000000000000000000000000000000000000000000000000000000149392505050565b6000806124ca60646124be85600563ffffffff61264716565b9063ffffffff6126a716565b90506125276001600160a01b037f000000000000000000000000000000000000000000000000000000000000000016857f00000000000000000000000000000000000000000000000000000000000000008463ffffffff6126e916565b612537838263ffffffff61277116565b949350505050565b8251819085901561262c57606060008060008061255b8a610d2e565b93985091965094509250905060006125768686868686611375565b15612604576125906125888d84612647565b6127106126a7565b9050886001600160a01b0316846001600160a01b0316866001600160a01b03167fac7a699eb95c3c6d390ec4626de17ef9a67b35891efdb197beba7c7fdd45fac48f858760405180848152602001838152602001828152602001935050505060405180910390a46126018782612771565b96505b8015612625576126256001600160a01b0389168e878463ffffffff6126e916565b5050505050505b61207e6001600160a01b03831688868463ffffffff6126e916565b60008261265657506000612331565b8282028284828161266357fe5b04146126a05760405162461bcd60e51b8152600401808060200182810382526021815260200180612b4a6021913960400191505060405180910390fd5b9392505050565b60006126a083836040518060400160405280601a81526020017f536166654d6174683a206469766973696f6e206279207a65726f0000000000008152506127b3565b604080516001600160a01b0380861660248301528416604482015260648082018490528251808303909101815260849091019091526020810180517bffffffffffffffffffffffffffffffffffffffffffffffffffffffff167f23b872dd00000000000000000000000000000000000000000000000000000000179052611acc908590612855565b60006126a083836040518060400160405280601e81526020017f536166654d6174683a207375627472616374696f6e206f766572666c6f77000081525061290b565b6000818361283f5760405162461bcd60e51b81526004018080602001828103825283818151815260200191508051906020019080838360005b838110156128045781810151838201526020016127ec565b50505050905090810190601f1680156128315780820380516001836020036101000a031916815260200191505b509250505060405180910390fd5b50600083858161284b57fe5b0495945050505050565b60606128aa826040518060400160405280602081526020017f5361666545524332303a206c6f772d6c6576656c2063616c6c206661696c6564815250856001600160a01b03166129659092919063ffffffff16565b805190915015612906578080602001905160208110156128c957600080fd5b50516129065760405162461bcd60e51b815260040180806020018281038252602a815260200180612b90602a913960400191505060405180910390fd5b505050565b6000818484111561295d5760405162461bcd60e51b81526020600482018181528351602484015283519092839260449091019190850190808383600083156128045781810151838201526020016127ec565b505050900390565b60606125378484600085606061297a85612adc565b6129cb576040805162461bcd60e51b815260206004820152601d60248201527f416464726573733a2063616c6c20746f206e6f6e2d636f6e7472616374000000604482015290519081900360640190fd5b60006060866001600160a01b031685876040518082805190602001908083835b60208310612a0a5780518252601f1990920191602091820191016129eb565b6001836020036101000a03801982511681845116808217855250505050505090500191505060006040518083038185875af1925050503d8060008114612a6c576040519150601f19603f3d011682016040523d82523d6000602084013e612a71565b606091505b50915091508115612a855791506125379050565b805115612a955780518082602001fd5b60405162461bcd60e51b81526020600482018181528651602484015286518793919283926044019190850190808383600083156128045781810151838201526020016127ec565b3b15159056fe45434453413a20696e76616c6964207369676e6174757265202773272076616c7565526566657272616c56616c696461746f723a2053656e646572206e6f742061646d696e45434453413a20696e76616c6964207369676e6174757265202776272076616c7565536166654d6174683a206d756c7469706c69636174696f6e206f766572666c6f774d6574615472616e73616374696f6e52656365697665723a207a65726f20616464726573735361666545524332303a204552433230206f7065726174696f6e20646964206e6f742073756363656564a264697066735822122077f2d13cbcb85fa08010a53c1e4ef27117b031e8c1c9273d55cef362af299f3164736f6c6343000605003345737461746553616c6557697468417574683a207a65726f20616464726573734d6574615472616e73616374696f6e52656365697665723a207a65726f206164647265737345737461746553616c6557697468417574683a206973206e6f74206120636f6e7472616374",
  "devdoc": {
    "methods": {
      "buyLandWithSand(address,address,address,uint256[],bytes32,uint256[],bytes32[],bytes,bytes)": {
        "params": {
          "assetIds": "asset ids (lands) that will be bought",
          "buyer": "address that perform the payment",
          "info": "[X_INDEX=0] x coordinate of the Land [Y_INDEX=1] y coordinate of the Land [SIZE_INDEX=2] size of the pack of Land to purchase [PRICE_INDEX=3] price in SAND to purchase that Land",
          "proof": "merkleProof for that particular Land",
          "referral": "referral id",
          "reserved": "the reserved address (if any)",
          "salt": "The salt submitted for verification.",
          "signature": "A signed message specifying tx details",
          "to": "address that will own the purchased Land"
        }
      },
      "changeAdmin(address)": {
        "details": "change the administrator to be `newAdmin`.",
        "params": {
          "newAdmin": "address of the new administrator."
        }
      },
      "disablePreviousSigningWallet(address)": {
        "details": "Disable compromised signing wallet",
        "params": {
          "disableWallet": "The wallet address to be disabled"
        }
      },
      "getAdmin()": {
        "details": "gives the current administrator of this contract.",
        "returns": {
          "_0": "the current administrator of this contract."
        }
      },
      "getSigningWallet()": {
        "details": "signing wallet authorized for referral",
        "returns": {
          "_0": "the address of the signing wallet"
        }
      },
      "isMetaTransactionProcessor(address)": {
        "details": "check whether address `who` is given meta-transaction execution rights.",
        "params": {
          "who": "The address to query."
        },
        "returns": {
          "_0": "whether the address has meta-transaction execution rights."
        }
      },
      "isReferralValid(bytes,address,address,uint256,uint256)": {
        "params": {
          "commissionRate": "The commissionRate of the referral",
          "expiryTime": "The expiry time of the referral",
          "referee": "The address of the referee",
          "referrer": "The address of the referrer",
          "signature": "The signature to check (signed referral)"
        },
        "returns": {
          "_0": "True if the referral is valid"
        }
      },
      "setMetaTransactionProcessor(address,bool)": {
        "details": "Enable or disable the ability of `metaTransactionProcessor` to perform meta-tx (metaTransactionProcessor rights).",
        "params": {
          "enabled": "set whether the metaTransactionProcessor is enabled or disabled.",
          "metaTransactionProcessor": "address that will be given/removed metaTransactionProcessor rights."
        }
      },
      "setReceivingWallet(address)": {
        "params": {
          "newWallet": "address of the new receiving wallet"
        }
      },
      "updateMaxCommissionRate(uint256)": {
        "details": "Update the maximum commission rate",
        "params": {
          "newMaxCommissionRate": "The new maximum commission rate"
        }
      },
      "updateSigningWallet(address)": {
        "details": "Update the signing wallet The previous wallet is still valid for a grace period (_previousSigningDelay). If you want to disable the previous wallet, use the disablePreviousSigningWallet function.",
        "params": {
          "newSigningWallet": "The new address of the signing wallet"
        }
      },
      "withdrawAssets(address,uint256[],uint256[])": {
        "params": {
          "assetIds": "the assetIds to be transferred",
          "to": "intended recipient of the asset tokens",
          "values": "the quantities of the assetIds to be transferred"
        }
      }
    },
    "title": "Estate Sale contract with referral"
  },
  "userdoc": {
    "methods": {
      "buyLandWithSand(address,address,address,uint256[],bytes32,uint256[],bytes32[],bytes,bytes)": {
        "notice": "buy Land with SAND using the merkle proof associated with it"
      },
      "getExpiryTime()": {
        "notice": "Gets the expiry time for the current sale"
      },
      "getMaxCommissionRate()": {
        "notice": "the max commission rate"
      },
      "getMerkleRoot()": {
        "notice": "Gets the Merkle root associated with the current sale"
      },
      "isReferralValid(bytes,address,address,uint256,uint256)": {
        "notice": "Check if a referral is valid"
      },
      "setReceivingWallet(address)": {
        "notice": "set the wallet receiving the proceeds"
      },
      "withdrawAssets(address,uint256[],uint256[])": {
        "notice": "enable Admin to withdraw remaining assets from EstateSaleWithFee contract"
      }
    },
    "notice": "This contract manages the sale of our lands as Estates"
  },
  "storageLayout": {
    "storage": [
      {
        "astId": 1129,
        "contract": "src/solc_0.6/EstateSale/EstateSaleWithAuth.sol:EstateSaleWithAuth",
        "label": "_status",
        "offset": 0,
        "slot": "0",
        "type": "t_uint256"
      },
      {
        "astId": 14099,
        "contract": "src/solc_0.6/EstateSale/EstateSaleWithAuth.sol:EstateSaleWithAuth",
        "label": "_admin",
        "offset": 0,
        "slot": "1",
        "type": "t_address"
      },
      {
        "astId": 14168,
        "contract": "src/solc_0.6/EstateSale/EstateSaleWithAuth.sol:EstateSaleWithAuth",
        "label": "_metaTransactionContracts",
        "offset": 0,
        "slot": "2",
        "type": "t_mapping(t_address,t_bool)"
      },
      {
        "astId": 12200,
        "contract": "src/solc_0.6/EstateSale/EstateSaleWithAuth.sol:EstateSaleWithAuth",
        "label": "_signingWallet",
        "offset": 0,
        "slot": "3",
        "type": "t_address"
      },
      {
        "astId": 12202,
        "contract": "src/solc_0.6/EstateSale/EstateSaleWithAuth.sol:EstateSaleWithAuth",
        "label": "_maxCommissionRate",
        "offset": 0,
        "slot": "4",
        "type": "t_uint256"
      },
      {
        "astId": 12206,
        "contract": "src/solc_0.6/EstateSale/EstateSaleWithAuth.sol:EstateSaleWithAuth",
        "label": "_previousSigningWallets",
        "offset": 0,
        "slot": "5",
        "type": "t_mapping(t_address,t_uint256)"
      },
      {
        "astId": 7750,
        "contract": "src/solc_0.6/EstateSale/EstateSaleWithAuth.sol:EstateSaleWithAuth",
        "label": "_wallet",
        "offset": 0,
        "slot": "6",
        "type": "t_address_payable"
      },
      {
        "astId": 7752,
        "contract": "src/solc_0.6/EstateSale/EstateSaleWithAuth.sol:EstateSaleWithAuth",
        "label": "_authValidator",
        "offset": 0,
        "slot": "7",
        "type": "t_contract(AuthValidator)7063"
      }
    ],
    "types": {
      "t_address": {
        "encoding": "inplace",
        "label": "address",
        "numberOfBytes": "20"
      },
      "t_address_payable": {
        "encoding": "inplace",
        "label": "address payable",
        "numberOfBytes": "20"
      },
      "t_bool": {
        "encoding": "inplace",
        "label": "bool",
        "numberOfBytes": "1"
      },
      "t_contract(AuthValidator)7063": {
        "encoding": "inplace",
        "label": "contract AuthValidator",
        "numberOfBytes": "20"
      },
      "t_mapping(t_address,t_bool)": {
        "encoding": "mapping",
        "key": "t_address",
        "label": "mapping(address => bool)",
        "numberOfBytes": "32",
        "value": "t_bool"
      },
      "t_mapping(t_address,t_uint256)": {
        "encoding": "mapping",
        "key": "t_address",
        "label": "mapping(address => uint256)",
        "numberOfBytes": "32",
        "value": "t_uint256"
      },
      "t_uint256": {
        "encoding": "inplace",
        "label": "uint256",
        "numberOfBytes": "32"
      }
    }
  }
}