{
  "address": "0x196c41c0979c7fb2c45Db09d089CAd1A8E6b9439",
  "abi": [
    {
      "inputs": [
        {
          "internalType": "address",
          "name": "landAddress",
          "type": "address"
        },
        {
          "internalType": "address",
          "name": "sandContractAddress",
          "type": "address"
        },
        {
          "internalType": "address",
          "name": "initialMetaTx",
          "type": "address"
        },
        {
          "internalType": "address",
          "name": "admin",
          "type": "address"
        },
        {
          "internalType": "address payable",
          "name": "initialWalletAddress",
          "type": "address"
        },
        {
          "internalType": "bytes32",
          "name": "merkleRoot",
          "type": "bytes32"
        },
        {
          "internalType": "uint256",
          "name": "expiryTime",
          "type": "uint256"
        },
        {
          "internalType": "address",
          "name": "initialSigningWallet",
          "type": "address"
        },
        {
          "internalType": "uint256",
          "name": "initialMaxCommissionRate",
          "type": "uint256"
        },
        {
          "internalType": "address",
          "name": "estate",
          "type": "address"
        },
        {
          "internalType": "address",
          "name": "asset",
          "type": "address"
        },
        {
          "internalType": "address",
          "name": "feeDistributor",
          "type": "address"
        },
        {
          "internalType": "address",
          "name": "authValidator",
          "type": "address"
        }
      ],
      "stateMutability": "nonpayable",
      "type": "constructor"
    },
    {
      "anonymous": false,
      "inputs": [
        {
          "indexed": false,
          "internalType": "address",
          "name": "oldAdmin",
          "type": "address"
        },
        {
          "indexed": false,
          "internalType": "address",
          "name": "newAdmin",
          "type": "address"
        }
      ],
      "name": "AdminChanged",
      "type": "event"
    },
    {
      "anonymous": false,
      "inputs": [
        {
          "indexed": true,
          "internalType": "address",
          "name": "buyer",
          "type": "address"
        },
        {
          "indexed": true,
          "internalType": "address",
          "name": "to",
          "type": "address"
        },
        {
          "indexed": true,
          "internalType": "uint256",
          "name": "topCornerId",
          "type": "uint256"
        },
        {
          "indexed": false,
          "internalType": "uint256",
          "name": "size",
          "type": "uint256"
        },
        {
          "indexed": false,
          "internalType": "uint256",
          "name": "price",
          "type": "uint256"
        },
        {
          "indexed": false,
          "internalType": "address",
          "name": "token",
          "type": "address"
        },
        {
          "indexed": false,
          "internalType": "uint256",
          "name": "amountPaid",
          "type": "uint256"
        }
      ],
      "name": "LandQuadPurchased",
      "type": "event"
    },
    {
      "anonymous": false,
      "inputs": [
        {
          "indexed": true,
          "internalType": "uint256",
          "name": "newMaxCommissionRate",
          "type": "uint256"
        }
      ],
      "name": "MaxCommissionRateUpdated",
      "type": "event"
    },
    {
      "anonymous": false,
      "inputs": [
        {
          "indexed": false,
          "internalType": "address",
          "name": "metaTransactionProcessor",
          "type": "address"
        },
        {
          "indexed": false,
          "internalType": "bool",
          "name": "enabled",
          "type": "bool"
        }
      ],
      "name": "MetaTransactionProcessor",
      "type": "event"
    },
    {
      "anonymous": false,
      "inputs": [
        {
          "indexed": true,
          "internalType": "address",
          "name": "newWallet",
          "type": "address"
        }
      ],
      "name": "NewReceivingWallet",
      "type": "event"
    },
    {
      "anonymous": false,
      "inputs": [
        {
          "indexed": true,
          "internalType": "address",
          "name": "referrer",
          "type": "address"
        },
        {
          "indexed": true,
          "internalType": "address",
          "name": "referee",
          "type": "address"
        },
        {
          "indexed": true,
          "internalType": "address",
          "name": "token",
          "type": "address"
        },
        {
          "indexed": false,
          "internalType": "uint256",
          "name": "amount",
          "type": "uint256"
        },
        {
          "indexed": false,
          "internalType": "uint256",
          "name": "commission",
          "type": "uint256"
        },
        {
          "indexed": false,
          "internalType": "uint256",
          "name": "commissionRate",
          "type": "uint256"
        }
      ],
      "name": "ReferralUsed",
      "type": "event"
    },
    {
      "anonymous": false,
      "inputs": [
        {
          "indexed": true,
          "internalType": "address",
          "name": "newSigningWallet",
          "type": "address"
        }
      ],
      "name": "SigningWalletUpdated",
      "type": "event"
    },
    {
      "inputs": [
        {
          "internalType": "address",
          "name": "buyer",
          "type": "address"
        },
        {
          "internalType": "address",
          "name": "to",
          "type": "address"
        },
        {
          "internalType": "address",
          "name": "reserved",
          "type": "address"
        },
        {
          "internalType": "uint256[]",
          "name": "info",
          "type": "uint256[]"
        },
        {
          "internalType": "bytes32",
          "name": "salt",
          "type": "bytes32"
        },
        {
          "internalType": "uint256[]",
          "name": "assetIds",
          "type": "uint256[]"
        },
        {
          "internalType": "bytes32[]",
          "name": "proof",
          "type": "bytes32[]"
        },
        {
          "internalType": "bytes",
          "name": "referral",
          "type": "bytes"
        },
        {
          "internalType": "bytes",
          "name": "signature",
          "type": "bytes"
        }
      ],
      "name": "buyLandWithSand",
      "outputs": [],
      "stateMutability": "nonpayable",
      "type": "function"
    },
    {
      "inputs": [
        {
          "internalType": "address",
          "name": "newAdmin",
          "type": "address"
        }
      ],
      "name": "changeAdmin",
      "outputs": [],
      "stateMutability": "nonpayable",
      "type": "function"
    },
    {
      "inputs": [
        {
          "internalType": "bytes",
          "name": "referral",
          "type": "bytes"
        }
      ],
      "name": "decodeReferral",
      "outputs": [
        {
          "internalType": "bytes",
          "name": "",
          "type": "bytes"
        },
        {
          "internalType": "address",
          "name": "",
          "type": "address"
        },
        {
          "internalType": "address",
          "name": "",
          "type": "address"
        },
        {
          "internalType": "uint256",
          "name": "",
          "type": "uint256"
        },
        {
          "internalType": "uint256",
          "name": "",
          "type": "uint256"
        }
      ],
      "stateMutability": "pure",
      "type": "function"
    },
    {
      "inputs": [
        {
          "internalType": "address",
          "name": "disableWallet",
          "type": "address"
        }
      ],
      "name": "disablePreviousSigningWallet",
      "outputs": [],
      "stateMutability": "nonpayable",
      "type": "function"
    },
    {
      "inputs": [],
      "name": "getAdmin",
      "outputs": [
        {
          "internalType": "address",
          "name": "",
          "type": "address"
        }
      ],
      "stateMutability": "view",
      "type": "function"
    },
    {
      "inputs": [],
      "name": "getExpiryTime",
      "outputs": [
        {
          "internalType": "uint256",
          "name": "",
          "type": "uint256"
        }
      ],
      "stateMutability": "view",
      "type": "function"
    },
    {
      "inputs": [],
      "name": "getMaxCommissionRate",
      "outputs": [
        {
          "internalType": "uint256",
          "name": "",
          "type": "uint256"
        }
      ],
      "stateMutability": "view",
      "type": "function"
    },
    {
      "inputs": [],
      "name": "getMerkleRoot",
      "outputs": [
        {
          "internalType": "bytes32",
          "name": "",
          "type": "bytes32"
        }
      ],
      "stateMutability": "view",
      "type": "function"
    },
    {
      "inputs": [],
      "name": "getSigningWallet",
      "outputs": [
        {
          "internalType": "address",
          "name": "",
          "type": "address"
        }
      ],
      "stateMutability": "view",
      "type": "function"
    },
    {
      "inputs": [
        {
          "internalType": "address",
          "name": "who",
          "type": "address"
        }
      ],
      "name": "isMetaTransactionProcessor",
      "outputs": [
        {
          "internalType": "bool",
          "name": "",
          "type": "bool"
        }
      ],
      "stateMutability": "view",
      "type": "function"
    },
    {
      "inputs": [
        {
          "internalType": "bytes",
          "name": "signature",
          "type": "bytes"
        },
        {
          "internalType": "address",
          "name": "referrer",
          "type": "address"
        },
        {
          "internalType": "address",
          "name": "referee",
          "type": "address"
        },
        {
          "internalType": "uint256",
          "name": "expiryTime",
          "type": "uint256"
        },
        {
          "internalType": "uint256",
          "name": "commissionRate",
          "type": "uint256"
        }
      ],
      "name": "isReferralValid",
      "outputs": [
        {
          "internalType": "bool",
          "name": "",
          "type": "bool"
        }
      ],
      "stateMutability": "view",
      "type": "function"
    },
    {
      "inputs": [
        {
          "internalType": "address",
          "name": "",
          "type": "address"
        },
        {
          "internalType": "address",
          "name": "",
          "type": "address"
        },
        {
          "internalType": "uint256[]",
          "name": "",
          "type": "uint256[]"
        },
        {
          "internalType": "uint256[]",
          "name": "",
          "type": "uint256[]"
        },
        {
          "internalType": "bytes",
          "name": "",
          "type": "bytes"
        }
      ],
      "name": "onERC1155BatchReceived",
      "outputs": [
        {
          "internalType": "bytes4",
          "name": "",
          "type": "bytes4"
        }
      ],
      "stateMutability": "pure",
      "type": "function"
    },
    {
      "inputs": [
        {
          "internalType": "address",
          "name": "",
          "type": "address"
        },
        {
          "internalType": "address",
          "name": "",
          "type": "address"
        },
        {
          "internalType": "uint256",
          "name": "",
          "type": "uint256"
        },
        {
          "internalType": "uint256",
          "name": "",
          "type": "uint256"
        },
        {
          "internalType": "bytes",
          "name": "",
          "type": "bytes"
        }
      ],
      "name": "onERC1155Received",
      "outputs": [
        {
          "internalType": "bytes4",
          "name": "",
          "type": "bytes4"
        }
      ],
      "stateMutability": "pure",
      "type": "function"
    },
    {
      "inputs": [
        {
          "internalType": "address",
          "name": "metaTransactionProcessor",
          "type": "address"
        },
        {
          "internalType": "bool",
          "name": "enabled",
          "type": "bool"
        }
      ],
      "name": "setMetaTransactionProcessor",
      "outputs": [],
      "stateMutability": "nonpayable",
      "type": "function"
    },
    {
      "inputs": [
        {
          "internalType": "address payable",
          "name": "newWallet",
          "type": "address"
        }
      ],
      "name": "setReceivingWallet",
      "outputs": [],
      "stateMutability": "nonpayable",
      "type": "function"
    },
    {
      "inputs": [
        {
          "internalType": "uint256",
          "name": "newMaxCommissionRate",
          "type": "uint256"
        }
      ],
      "name": "updateMaxCommissionRate",
      "outputs": [],
      "stateMutability": "nonpayable",
      "type": "function"
    },
    {
      "inputs": [
        {
          "internalType": "address",
          "name": "newSigningWallet",
          "type": "address"
        }
      ],
      "name": "updateSigningWallet",
      "outputs": [],
      "stateMutability": "nonpayable",
      "type": "function"
    },
    {
      "inputs": [
        {
          "internalType": "address",
          "name": "to",
          "type": "address"
        },
        {
          "internalType": "uint256[]",
          "name": "assetIds",
          "type": "uint256[]"
        },
        {
          "internalType": "uint256[]",
          "name": "values",
          "type": "uint256[]"
        }
      ],
      "name": "withdrawAssets",
      "outputs": [],
      "stateMutability": "nonpayable",
      "type": "function"
    }
  ],
  "transactionHash": "0xaffef763738f847e70c8de29ea380f50f5892cdb19098e7330946270eb78cdd3",
  "args": [
    "0x9d305a42A3975Ee4c1C57555BeD5919889DCE63F",
    "0xBbba073C31bF03b8ACf7c28EF0738DeCF3695683",
    "0xBbba073C31bF03b8ACf7c28EF0738DeCF3695683",
    "0xfD30a48Bc6c56E24B0ebF1B0117d750e2CFf7531",
    "0x1b47567CBE36e63293A7A2018F79687f942aB24C",
    "0xd65078ace5dabf8f9e7dac0ff1630afaa5bfbae9eef9b584650e21d64817ec44",
    1690545600,
    "0x3044719d139F866a44c988823513eCB93060bF1b",
    2000,
    "0x0000000000000000000000000000000000000000",
    "0xd19cc137bb848d3a48ad8ad883886b67c26761dc",
    "0x42a4a3795446A4c070565da201c6303fC78a2569",
    "0x7804fb2AF15bB1323795A888B09913cEf629Ffda"
  ],
  "numDeployments": 1,
  "linkedData": [
    {
      "x": 99,
      "y": 219,
      "size": 1,
      "price": "1011000000000000000000",
      "reserved": "",
      "salt": "0x6ec1bd7e12372bf3aa5ecf0c78297c5d417cf28133683bb084f355cfa32e4ec4",
      "assetIds": []
    },
    {
      "x": 99,
      "y": 220,
      "size": 1,
      "price": "1011000000000000000000",
      "reserved": "",
      "salt": "0x05a04c168d4e9ec13a319af00f86483a4d4d0d86367190261dcb36fbb2a7c056",
      "assetIds": []
    },
    {
      "x": 99,
      "y": 221,
      "size": 1,
      "price": "1011000000000000000000",
      "reserved": "",
      "salt": "0x3d3864ff59c7fea0492835d6b64c78ab56d561c0df5d79b742f23c422756fb7f",
      "assetIds": []
    },
    {
      "x": 99,
      "y": 222,
      "size": 1,
      "price": "1011000000000000000000",
      "reserved": "",
      "salt": "0x47c256b0e679d78c63f803ef48ce3acfcaa5af4aefefbd6934e701e513e5b94f",
      "assetIds": []
    },
    {
      "x": 99,
      "y": 223,
      "size": 1,
      "price": "1011000000000000000000",
      "reserved": "",
      "salt": "0x335777565bbc0aa1af9ddd724e2b1da0ec9eef095bc8d690ef2f6961e49a6016",
      "assetIds": []
    },
    {
      "x": 99,
      "y": 224,
      "size": 1,
      "price": "1011000000000000000000",
      "reserved": "",
      "salt": "0xcc825b83faf9c1563d82e60fa2159b9c45a49b735e735072d34893a61e9cac07",
      "assetIds": []
    },
    {
      "x": 99,
      "y": 237,
      "size": 1,
      "price": "1011000000000000000000",
      "reserved": "",
      "salt": "0xb3ead04d764c47670038fc8f73bd760ccb9d99df071c4f318b5291c4f4d24a93",
      "assetIds": []
    },
    {
      "x": 99,
      "y": 238,
      "size": 1,
      "price": "1011000000000000000000",
      "reserved": "",
      "salt": "0xca4595abc8fadba1281d3e4e957c0f2f7d92c1f678905f3d2fffbb4fe0dbbda7",
      "assetIds": []
    },
    {
      "x": 99,
      "y": 239,
      "size": 1,
      "price": "1011000000000000000000",
      "reserved": "",
      "salt": "0x2e949bc851f15d597cc5d9b51b4ebb3f767f96a70b5fb853fb6f92e050f6ab9e",
      "assetIds": []
    },
    {
      "x": 99,
      "y": 240,
      "size": 1,
      "price": "1011000000000000000000",
      "reserved": "",
      "salt": "0x108ae50b8143d4634a872224677e8437c12d6edbe0ce8df25954fca6a82dcb49",
      "assetIds": []
    },
    {
      "x": 99,
      "y": 241,
      "size": 1,
      "price": "1011000000000000000000",
      "reserved": "",
      "salt": "0xbdc67599bf01fc72eda35832bbd7d7733bc0a8affe30764014194be90e05f7ba",
      "assetIds": []
    },
    {
      "x": 99,
      "y": 242,
      "size": 1,
      "price": "1011000000000000000000",
      "reserved": "",
      "salt": "0x71d7a9f2c0a26807f06b3297cef558fe3062de241b9a5ae9858da11447969416",
      "assetIds": []
    },
    {
      "x": 100,
      "y": 219,
      "size": 1,
      "price": "1011000000000000000000",
      "reserved": "",
      "salt": "0x9dca31d53f38b6a3672b95f2c084cd7d58c166d97773c077ff56081811489689",
      "assetIds": []
    },
    {
      "x": 100,
      "y": 220,
      "size": 1,
      "price": "1011000000000000000000",
      "reserved": "",
      "salt": "0xe3056f2501e545182787b334f899a7a14f12aeff8ad7417d8dca7137ebab2131",
      "assetIds": []
    },
    {
      "x": 100,
      "y": 221,
      "size": 1,
      "price": "1011000000000000000000",
      "reserved": "",
      "salt": "0xb4c605cb5fa0f149d8cc5dd0743c4308afddfb9e50c98809538c8e69ee4ea212",
      "assetIds": []
    },
    {
      "x": 100,
      "y": 222,
      "size": 1,
      "price": "1011000000000000000000",
      "reserved": "",
      "salt": "0x99924abb2c398a4731db52a8674aaaf6e2ebf992da064534b2952e67c5089f76",
      "assetIds": []
    },
    {
      "x": 100,
      "y": 223,
      "size": 1,
      "price": "1011000000000000000000",
      "reserved": "0x7a9fe22691c811ea339d9b73150e6911a5343dca",
      "salt": "0x848f77afa2b74d753f478bbedb754eec21a963533c8390cbf7d3f8b230d10311",
      "assetIds": []
    },
    {
      "x": 100,
      "y": 224,
      "size": 1,
      "price": "1011000000000000000000",
      "reserved": "",
      "salt": "0x832ec7e6ed8b54aaaf5e4d0279637ead7e85e2f41f2f3c69774f49340d26cd34",
      "assetIds": []
    },
    {
      "x": 100,
      "y": 237,
      "size": 1,
      "price": "1011000000000000000000",
      "reserved": "",
      "salt": "0xedc37161ff4075fa177dc97595364c7ab0fcd76d07799a409c3e22e0975f81e5",
      "assetIds": []
    },
    {
      "x": 100,
      "y": 238,
      "size": 1,
      "price": "1011000000000000000000",
      "reserved": "",
      "salt": "0xffa04cca9c90b1902facf2623fbfd139f7e6f58f129f8480edd57c4951f1fca3",
      "assetIds": []
    },
    {
      "x": 100,
      "y": 239,
      "size": 1,
      "price": "1011000000000000000000",
      "reserved": "",
      "salt": "0xdcf0a03e3ce2a42ff7a2d176c7e0ff2df8c8b588e5cf4d684b113f425fb94ba9",
      "assetIds": []
    },
    {
      "x": 100,
      "y": 240,
      "size": 1,
      "price": "1011000000000000000000",
      "reserved": "0x7a9fe22691c811ea339d9b73150e6911a5343dca",
      "salt": "0xafa7bf9f5e250318705a50155667c332f9716e9fdd4bcd5cc0be9a3dcb698338",
      "assetIds": []
    },
    {
      "x": 100,
      "y": 241,
      "size": 1,
      "price": "1011000000000000000000",
      "reserved": "",
      "salt": "0xaccbb2a1ee25fd0dc3d59d893a4f1dd7e091ba819a1fc95a41648d1d3b010e82",
      "assetIds": []
    },
    {
      "x": 100,
      "y": 242,
      "size": 1,
      "price": "1011000000000000000000",
      "reserved": "",
      "salt": "0xf96967fe07643241440a30fc91baf71d07f62fd8788b79df8dfa21a49236d45a",
      "assetIds": []
    },
    {
      "x": 101,
      "y": 219,
      "size": 1,
      "price": "1011000000000000000000",
      "reserved": "",
      "salt": "0x687b2729cca8520a2e4ef054e118071d49946c2ebc1d6faba5c3237a0b3126a8",
      "assetIds": []
    },
    {
      "x": 101,
      "y": 220,
      "size": 1,
      "price": "1011000000000000000000",
      "reserved": "",
      "salt": "0x116fa0faf2c81e42f19a2310f11f1bb18b95005ce006533f8e4f65c0c8883967",
      "assetIds": []
    },
    {
      "x": 101,
      "y": 221,
      "size": 1,
      "price": "1011000000000000000000",
      "reserved": "",
      "salt": "0xc992b71b0140fdc5bdf2571f299f78fd33070d1b68b9c04f31564ee9d5c95796",
      "assetIds": []
    },
    {
      "x": 101,
      "y": 222,
      "size": 1,
      "price": "1011000000000000000000",
      "reserved": "",
      "salt": "0x0a63651cd7cacf5b1909dd59102c7d0099184d278a371b78fe9a8a6c4e3ae9cf",
      "assetIds": []
    },
    {
      "x": 101,
      "y": 223,
      "size": 1,
      "price": "1011000000000000000000",
      "reserved": "",
      "salt": "0xb4bff7e44973bbe63d68b142e9f9744adf958fb1c5b748b8e4f48028af1a3cbb",
      "assetIds": []
    },
    {
      "x": 101,
      "y": 224,
      "size": 1,
      "price": "1011000000000000000000",
      "reserved": "",
      "salt": "0x6cf89aa07baa46dd73fc767dc87242c912e3194a1b1ac6732e318f5053a87939",
      "assetIds": []
    },
    {
      "x": 101,
      "y": 237,
      "size": 1,
      "price": "1011000000000000000000",
      "reserved": "",
      "salt": "0x4396d3dafd6e50ba10ead948aef6a164e0430ce462ad4733aab00d2ccbd09f17",
      "assetIds": []
    },
    {
      "x": 101,
      "y": 238,
      "size": 1,
      "price": "1011000000000000000000",
      "reserved": "",
      "salt": "0xa01d8957f326ddb206dc2d981613a2ed32cda5dfe52a982a94c8819c3534271a",
      "assetIds": []
    },
    {
      "x": 101,
      "y": 239,
      "size": 1,
      "price": "1011000000000000000000",
      "reserved": "",
      "salt": "0x2af13be862b88080f89be86178415951d9c5d240d36781decc515a966c1dc6f1",
      "assetIds": []
    },
    {
      "x": 101,
      "y": 240,
      "size": 1,
      "price": "1011000000000000000000",
      "reserved": "",
      "salt": "0xf7477e69357abc36a670fa00eda865c3d35e4ff9dfc093939e14122afae46f84",
      "assetIds": []
    },
    {
      "x": 101,
      "y": 241,
      "size": 1,
      "price": "1011000000000000000000",
      "reserved": "",
      "salt": "0x9490a0454f2de6e59b44556d8c9a3fc9c9273c42aae3bb3979887105046580d3",
      "assetIds": []
    },
    {
      "x": 101,
      "y": 242,
      "size": 1,
      "price": "1011000000000000000000",
      "reserved": "",
      "salt": "0x9509396a613f4268a10aa613cf1a005b09da2ef5ad59ef338bd68a876ae49025",
      "assetIds": []
    },
    {
      "x": 102,
      "y": 216,
      "size": 1,
      "price": "1011000000000000000000",
      "reserved": "",
      "salt": "0x3c7d35decd21a0a5069195bc25a0bfd237ba1a0cbcf166954ab9a8b0f7e2de9c",
      "assetIds": []
    },
    {
      "x": 102,
      "y": 217,
      "size": 1,
      "price": "1011000000000000000000",
      "reserved": "",
      "salt": "0x756794ba54122257433bea4e10d10b5a3937ae4fb5b43f863a44f23848eff638",
      "assetIds": []
    },
    {
      "x": 102,
      "y": 218,
      "size": 1,
      "price": "1011000000000000000000",
      "reserved": "",
      "salt": "0xc6fa2c0c32d6fefd3930dad1e381aa3b587b652182731299e33a32fad780b1f4",
      "assetIds": []
    },
    {
      "x": 102,
      "y": 219,
      "size": 1,
      "price": "1011000000000000000000",
      "reserved": "",
      "salt": "0xcf3d330c36316550b1d89965bf847114f674a04d1aa2caf6677edb05d501c098",
      "assetIds": []
    },
    {
      "x": 102,
      "y": 220,
      "size": 1,
      "price": "1011000000000000000000",
      "reserved": "0x7a9fe22691c811ea339d9b73150e6911a5343dca",
      "salt": "0xa79bbbd5220f16898dceb69dd350bbf5917dec2c9f48288e282fdf669c42ca83",
      "assetIds": []
    },
    {
      "x": 102,
      "y": 221,
      "size": 1,
      "price": "1011000000000000000000",
      "reserved": "",
      "salt": "0xb39c9f0388178de6e7e3a699a80473dad8f59a41d2988c61b89e26c21f6a658f",
      "assetIds": []
    },
    {
      "x": 102,
      "y": 222,
      "size": 1,
      "price": "1011000000000000000000",
      "reserved": "",
      "salt": "0x3574421f0e561753c19fbeaea4c20ff29954b1fe73c5640e09737bded3cb5b70",
      "assetIds": []
    },
    {
      "x": 102,
      "y": 223,
      "size": 1,
      "price": "1011000000000000000000",
      "reserved": "",
      "salt": "0xae9949ac824d2edb43b904829b71b5d5261d919032f78d58040b1037540e52a5",
      "assetIds": []
    },
    {
      "x": 102,
      "y": 224,
      "size": 1,
      "price": "1011000000000000000000",
      "reserved": "",
      "salt": "0xa571a5f5d6c0af2ebcf9a36c4a5dd561b7d405b16968971f2b30c237c9902861",
      "assetIds": []
    },
    {
      "x": 102,
      "y": 225,
      "size": 1,
      "price": "1011000000000000000000",
      "reserved": "",
      "salt": "0x432f60bdd8d8cfb2d994d94db67df642f579af2eb31280c70c442b699436be57",
      "assetIds": []
    },
    {
      "x": 102,
      "y": 226,
      "size": 1,
      "price": "1011000000000000000000",
      "reserved": "",
      "salt": "0x56d7ee89c733d2295bf116d1ed8e8c13e959e22d7c00e5ad443266bc8b7e0dd1",
      "assetIds": []
    },
    {
      "x": 102,
      "y": 227,
      "size": 1,
      "price": "1011000000000000000000",
      "reserved": "",
      "salt": "0x7660bed6f1aa5b9785a7bc369544fd20289675edbbf21b3e21fa56495c577a15",
      "assetIds": []
    },
    {
      "x": 102,
      "y": 228,
      "size": 1,
      "price": "1011000000000000000000",
      "reserved": "",
      "salt": "0xec67ba4202bc4de02e282a82c1231c37cffa6ff9358211da254753a3aa13f713",
      "assetIds": []
    },
    {
      "x": 102,
      "y": 229,
      "size": 1,
      "price": "1011000000000000000000",
      "reserved": "",
      "salt": "0xc37d4ac7a34da34796c60400582d0536b4694d9d759245ecd82387c35b2d4453",
      "assetIds": []
    },
    {
      "x": 102,
      "y": 230,
      "size": 1,
      "price": "1011000000000000000000",
      "reserved": "",
      "salt": "0x970e00084f8ad21f9541565e02988ad9e5a9d686225c4a9dce4ce64debc39c6b",
      "assetIds": []
    },
    {
      "x": 102,
      "y": 231,
      "size": 1,
      "price": "1011000000000000000000",
      "reserved": "",
      "salt": "0xec0685947f84bc9703850c526683ec34194eddc97d7c3b694d65a7d05094bcc6",
      "assetIds": []
    },
    {
      "x": 102,
      "y": 232,
      "size": 1,
      "price": "1011000000000000000000",
      "reserved": "",
      "salt": "0xdb96433e75b56513966bb613cdad98cdab3d39deb7b64512851fddb532d51880",
      "assetIds": []
    },
    {
      "x": 102,
      "y": 233,
      "size": 1,
      "price": "1011000000000000000000",
      "reserved": "",
      "salt": "0x38b7dcbc8987c8a47a342593eb2780b9a6676c1da2bf796df622924ff231a425",
      "assetIds": []
    },
    {
      "x": 103,
      "y": 216,
      "size": 1,
      "price": "1011000000000000000000",
      "reserved": "",
      "salt": "0x758c3277a658a845a5910a96603dd6ef6fff0287e1175fc0ece64263c8693f59",
      "assetIds": []
    },
    {
      "x": 103,
      "y": 217,
      "size": 1,
      "price": "1011000000000000000000",
      "reserved": "",
      "salt": "0x139e49c993a9042ad19477575c48ce936f46e0c2bdc86f456fe311204772a35b",
      "assetIds": []
    },
    {
      "x": 103,
      "y": 218,
      "size": 1,
      "price": "1011000000000000000000",
      "reserved": "",
      "salt": "0x67095309ce36e0df6a0b9147210afb1f3975a0862bda64e4129056b6d5edecf8",
      "assetIds": []
    },
    {
      "x": 103,
      "y": 219,
      "size": 1,
      "price": "1011000000000000000000",
      "reserved": "",
      "salt": "0x306fdb83320a5d180697c27071618eeca5aab7675f174fb195358c9c99ea6da2",
      "assetIds": []
    },
    {
      "x": 103,
      "y": 220,
      "size": 1,
      "price": "1011000000000000000000",
      "reserved": "",
      "salt": "0xc411da2ac19898f42deee790c208b0be92df5fa6bb3d5e8c39d20e7ff4839207",
      "assetIds": []
    },
    {
      "x": 103,
      "y": 221,
      "size": 1,
      "price": "1011000000000000000000",
      "reserved": "",
      "salt": "0x685eb3711ddae2e75cfb8d73fac2e1396f18a562ab279129e13adbac5689b973",
      "assetIds": []
    },
    {
      "x": 103,
      "y": 222,
      "size": 1,
      "price": "1011000000000000000000",
      "reserved": "",
      "salt": "0xf7fc021aa749372ba1bab7804bbb8db9ef982d74797a8af4a9ea02afd00b84c3",
      "assetIds": []
    },
    {
      "x": 103,
      "y": 223,
      "size": 1,
      "price": "1011000000000000000000",
      "reserved": "",
      "salt": "0x64556a58bcaf493f06315cf4ec86f181bdca4a457fabd82a84a23e828a355c20",
      "assetIds": []
    },
    {
      "x": 103,
      "y": 224,
      "size": 1,
      "price": "1011000000000000000000",
      "reserved": "",
      "salt": "0x3f5956bb7457d30f1d993c7c4d2bcccf41d28cee75fa535bf2fd9d31e203d31a",
      "assetIds": []
    },
    {
      "x": 103,
      "y": 225,
      "size": 1,
      "price": "1011000000000000000000",
      "reserved": "",
      "salt": "0xe154151ad10a475f6e0cb089a0b3e1a722ac5d361937b9ab41796bafebeef01f",
      "assetIds": []
    },
    {
      "x": 103,
      "y": 226,
      "size": 1,
      "price": "1011000000000000000000",
      "reserved": "",
      "salt": "0xe6b049fe35e423227f214a72ee4276657193a6816b225763d72fab21bda35092",
      "assetIds": []
    },
    {
      "x": 103,
      "y": 227,
      "size": 1,
      "price": "1011000000000000000000",
      "reserved": "",
      "salt": "0x59cd27508a6cc71d0f5345e14261ca9d57e22456b9601cf5612bee5618a26935",
      "assetIds": []
    },
    {
      "x": 103,
      "y": 228,
      "size": 1,
      "price": "1011000000000000000000",
      "reserved": "",
      "salt": "0x41953a0b3c1668ee81b1233f419ea1a0cfffe28909da9e54187a04d306fc5180",
      "assetIds": []
    },
    {
      "x": 103,
      "y": 229,
      "size": 1,
      "price": "1011000000000000000000",
      "reserved": "",
      "salt": "0xa295613b85e0e07d2d1bebf5284987f64b1a3867c23098e79bcf9ed6eddccd07",
      "assetIds": []
    },
    {
      "x": 103,
      "y": 230,
      "size": 1,
      "price": "1011000000000000000000",
      "reserved": "",
      "salt": "0x070f4dad57e086de2e64e4fbe9be6ef469315b8d0cff689e4278fd5e926f0a83",
      "assetIds": []
    },
    {
      "x": 103,
      "y": 231,
      "size": 1,
      "price": "1011000000000000000000",
      "reserved": "",
      "salt": "0xe37620653e98193cec605167853b133502d7ff1b847b9fefde291e12d8dfcfbc",
      "assetIds": []
    },
    {
      "x": 103,
      "y": 232,
      "size": 1,
      "price": "1011000000000000000000",
      "reserved": "",
      "salt": "0x9920b047ffa0a9df3e7ee7b932c3b3b873e8a0e7585dc8c57c535f4541b6ac83",
      "assetIds": []
    },
    {
      "x": 103,
      "y": 233,
      "size": 1,
      "price": "1011000000000000000000",
      "reserved": "",
      "salt": "0x2af73e83b19fbfe802b8ba925c9507d6e151c9c6d485e0401eb579656c248a7d",
      "assetIds": []
    },
    {
      "x": 104,
      "y": 216,
      "size": 1,
      "price": "1011000000000000000000",
      "reserved": "",
      "salt": "0xae3efebaafacdc3998a6140c7a4b2e3158ceeb060e3038e81ecdb8a10202b6d3",
      "assetIds": []
    },
    {
      "x": 104,
      "y": 217,
      "size": 1,
      "price": "1011000000000000000000",
      "reserved": "",
      "salt": "0x9e6763c6633b50e6b544bc7323075cf92596b3669f3d3155cd41f73b49a1dd6c",
      "assetIds": []
    },
    {
      "x": 104,
      "y": 218,
      "size": 1,
      "price": "1011000000000000000000",
      "reserved": "",
      "salt": "0x8cb282b62faca07a5c817d6939cb375c568e9db0e42c9b71bde1d438b8764511",
      "assetIds": []
    },
    {
      "x": 104,
      "y": 219,
      "size": 1,
      "price": "1011000000000000000000",
      "reserved": "",
      "salt": "0x6c4bc0a1bc1f0d0c3cfb6f9e6b150508525117774ff03e0040bfd55236c7de49",
      "assetIds": []
    },
    {
      "x": 104,
      "y": 220,
      "size": 1,
      "price": "1011000000000000000000",
      "reserved": "",
      "salt": "0x637b56ea646b17ac9ac9ee5b328988e700847bab8bec8f6428a8d8730dd7c015",
      "assetIds": []
    },
    {
      "x": 104,
      "y": 221,
      "size": 1,
      "price": "1011000000000000000000",
      "reserved": "",
      "salt": "0x874c827bb415aae72d7f0733f0e3d6441d5331d9bac0e94921cedfdb44b2e082",
      "assetIds": []
    },
    {
      "x": 104,
      "y": 222,
      "size": 1,
      "price": "4683000000000000000000",
      "reserved": "",
      "salt": "0xca2ef0add93686835f7531bbff0113c2a39a289c62edc34180c7a816d9e9d9a6",
      "assetIds": []
    },
    {
      "x": 104,
      "y": 223,
      "size": 1,
      "price": "4683000000000000000000",
      "reserved": "",
      "salt": "0xd9cf9a80385e8ab0f1d005c86f5603563697de0a0e95e866287ea3f809ebc716",
      "assetIds": []
    },
    {
      "x": 104,
      "y": 224,
      "size": 1,
      "price": "4683000000000000000000",
      "reserved": "",
      "salt": "0xc5045595e30ec85e392851e46182b7902af7af7e3d3057846c7814d548cdb018",
      "assetIds": []
    },
    {
      "x": 104,
      "y": 225,
      "size": 1,
      "price": "1011000000000000000000",
      "reserved": "",
      "salt": "0xd83facd1c11c55b7d0806830dc6ed2d5f1112e564113ac528d7cd0a4ec2bc534",
      "assetIds": []
    },
    {
      "x": 104,
      "y": 226,
      "size": 1,
      "price": "1011000000000000000000",
      "reserved": "",
      "salt": "0x1b18e22c752d616b4352af68f072fcbc60ef9ffcd4a5a85bf1d95609a59919f2",
      "assetIds": []
    },
    {
      "x": 104,
      "y": 227,
      "size": 1,
      "price": "1011000000000000000000",
      "reserved": "",
      "salt": "0xbffc16a6f99d34ac958025cd31948a1b35a4cfee5d7fadd6658607f5115c211a",
      "assetIds": []
    },
    {
      "x": 104,
      "y": 228,
      "size": 1,
      "price": "1011000000000000000000",
      "reserved": "",
      "salt": "0xa2ed5f37a848230e982fde07341657f733441c84da8a929471d08fb2a9523132",
      "assetIds": []
    },
    {
      "x": 104,
      "y": 229,
      "size": 1,
      "price": "1011000000000000000000",
      "reserved": "",
      "salt": "0x9977a97c026b4ebacfadbc5b560ebddbd516d1f846f84d3ff4d484233c110da1",
      "assetIds": []
    },
    {
      "x": 104,
      "y": 230,
      "size": 1,
      "price": "1011000000000000000000",
      "reserved": "",
      "salt": "0xcc56afe9217e99c39f06d03ce6e7819e0d5524d922a42d0b4d56248a92b5e005",
      "assetIds": []
    },
    {
      "x": 104,
      "y": 231,
      "size": 1,
      "price": "1011000000000000000000",
      "reserved": "",
      "salt": "0x433b5e52f9aaef0cbd0837ada8f62d628f3749e860a284a2dc1d73166d8cb9bb",
      "assetIds": []
    },
    {
      "x": 104,
      "y": 232,
      "size": 1,
      "price": "1011000000000000000000",
      "reserved": "",
      "salt": "0x0079c58a224f5ff102baaeebba4779f70a533caca747b61baa57578440001875",
      "assetIds": []
    },
    {
      "x": 104,
      "y": 233,
      "size": 1,
      "price": "1011000000000000000000",
      "reserved": "",
      "salt": "0x4d5400f564c83ac71db0c490f76c0b92c0694a623ff3e2fcb5f2186c1092e017",
      "assetIds": []
    },
    {
      "x": 105,
      "y": 216,
      "size": 1,
      "price": "1011000000000000000000",
      "reserved": "",
      "salt": "0x4a0817e1ad10951d10f52af9ab72fd359ebbac9c12fbfaa28d51b5173c4c9719",
      "assetIds": []
    },
    {
      "x": 105,
      "y": 217,
      "size": 1,
      "price": "1011000000000000000000",
      "reserved": "",
      "salt": "0xbe8c150b95c17d8594f390442b66220831261eb23a33b4e4b7846d7080352e22",
      "assetIds": []
    },
    {
      "x": 105,
      "y": 218,
      "size": 1,
      "price": "1011000000000000000000",
      "reserved": "",
      "salt": "0x88355c4362722f13431bad13ee06f167bfe795eb29f836e0b3ca33c26d92c425",
      "assetIds": []
    },
    {
      "x": 105,
      "y": 219,
      "size": 1,
      "price": "1011000000000000000000",
      "reserved": "",
      "salt": "0x3a1e5faad58b22d4390487bff75b28835337715aca5684eea8931920abe8d4c5",
      "assetIds": []
    },
    {
      "x": 105,
      "y": 220,
      "size": 1,
      "price": "1011000000000000000000",
      "reserved": "",
      "salt": "0x5b410e3da66f72a88408e82c1cb2157b995df7fce1afe0f8e413b5e4a4729eae",
      "assetIds": []
    },
    {
      "x": 105,
      "y": 221,
      "size": 1,
      "price": "4683000000000000000000",
      "reserved": "",
      "salt": "0x99c46952a04657ac514acc4dc5f1b668823b855c76e03b783bd6f9f95470ad15",
      "assetIds": []
    },
    {
      "x": 105,
      "y": 225,
      "size": 1,
      "price": "4683000000000000000000",
      "reserved": "",
      "salt": "0xda7b51f3a0a3ff182c7e311559e875987d670416e84a98040fd29c02595da0d1",
      "assetIds": []
    },
    {
      "x": 105,
      "y": 226,
      "size": 1,
      "price": "1011000000000000000000",
      "reserved": "",
      "salt": "0xbe56832609f0aca8716af7936a5fb005c3ba8454c66666d41365601abc4c0598",
      "assetIds": []
    },
    {
      "x": 105,
      "y": 227,
      "size": 1,
      "price": "1011000000000000000000",
      "reserved": "",
      "salt": "0x939d291daab813b06d770b066342cc06f7f685577da093f8a3233032d609ee47",
      "assetIds": []
    },
    {
      "x": 105,
      "y": 228,
      "size": 1,
      "price": "1011000000000000000000",
      "reserved": "0x7a9fe22691c811ea339d9b73150e6911a5343dca",
      "salt": "0x55a6b0fc4a545ba3502f4d48a76ce18be53970deb51315bcad8c99b5f8e032a8",
      "assetIds": []
    },
    {
      "x": 105,
      "y": 229,
      "size": 1,
      "price": "1011000000000000000000",
      "reserved": "0x7a9fe22691c811ea339d9b73150e6911a5343dca",
      "salt": "0xb13221bb4bfb483981b87ce4e1930c1f478590c67aadd9fc7a545f0a2b89ee93",
      "assetIds": []
    },
    {
      "x": 105,
      "y": 230,
      "size": 1,
      "price": "1011000000000000000000",
      "reserved": "",
      "salt": "0xc1ae1553e18f54d09d9be9843bfdb502a0c9894a88c7c921df6ad2b0d5a6c29c",
      "assetIds": []
    },
    {
      "x": 105,
      "y": 231,
      "size": 1,
      "price": "1011000000000000000000",
      "reserved": "",
      "salt": "0x8fdec9740da7e5c08f2006e981a3bb3227d07089f7c9ba9b4eeebcf4ab165dfe",
      "assetIds": []
    },
    {
      "x": 105,
      "y": 232,
      "size": 1,
      "price": "1011000000000000000000",
      "reserved": "0x7a9fe22691c811ea339d9b73150e6911a5343dca",
      "salt": "0xd8f974d46f34fd8a73cf52c68beb490a25e1e237393e4988ff29ae382e512ee0",
      "assetIds": []
    },
    {
      "x": 105,
      "y": 233,
      "size": 1,
      "price": "1011000000000000000000",
      "reserved": "",
      "salt": "0x166a68b90cc56ab0e89ca28fbb244add57bae4e70af85e75c4262cc6455f5e2d",
      "assetIds": []
    },
    {
      "x": 105,
      "y": 240,
      "size": 1,
      "price": "1011000000000000000000",
      "reserved": "",
      "salt": "0xd0857f197bfe73211ebc3fd2bff8e1f4ab5dd45387c98ba8b0dd801d72e61341",
      "assetIds": []
    },
    {
      "x": 105,
      "y": 241,
      "size": 1,
      "price": "1011000000000000000000",
      "reserved": "",
      "salt": "0x0d60c6a2015311ceacef211f37fe483a9023f488074173ed0205cac857fb48ab",
      "assetIds": []
    },
    {
      "x": 105,
      "y": 242,
      "size": 1,
      "price": "1011000000000000000000",
      "reserved": "",
      "salt": "0xfb52ba22f386108b9af06a0cf573fd654272d819e8c32a32a70d003117b54f71",
      "assetIds": []
    },
    {
      "x": 106,
      "y": 216,
      "size": 1,
      "price": "1011000000000000000000",
      "reserved": "",
      "salt": "0x3cd13d428995f9c909acf66bf2893c68134ef43cf6e8b3dcb81b2c2c9152feff",
      "assetIds": []
    },
    {
      "x": 106,
      "y": 217,
      "size": 1,
      "price": "1011000000000000000000",
      "reserved": "",
      "salt": "0xf1bb5d44159d1376e43097fbda498a909298681b54b40d18cdaad08c3064b9b8",
      "assetIds": []
    },
    {
      "x": 106,
      "y": 218,
      "size": 1,
      "price": "1011000000000000000000",
      "reserved": "",
      "salt": "0x939b0bef5e49a6800f12b4f695dd501b027aeb077825389d344cb8e8c5710adc",
      "assetIds": []
    },
    {
      "x": 106,
      "y": 219,
      "size": 1,
      "price": "1011000000000000000000",
      "reserved": "",
      "salt": "0x44e614f9efec6cf0fa3073ddc6509035d81d4e37aee152700813e89260f411e3",
      "assetIds": []
    },
    {
      "x": 106,
      "y": 220,
      "size": 1,
      "price": "1011000000000000000000",
      "reserved": "",
      "salt": "0x8cf9e74d35c66df5e3bfa4c7cefc9cee4e05b6ff91d193fd89027d76d67579bc",
      "assetIds": []
    },
    {
      "x": 106,
      "y": 221,
      "size": 1,
      "price": "1011000000000000000000",
      "reserved": "",
      "salt": "0x348ea1aea8d5c3828d8c1e7e8b85be3d8faaf419111ce769b64f9427b0decc2c",
      "assetIds": []
    },
    {
      "x": 106,
      "y": 225,
      "size": 1,
      "price": "4683000000000000000000",
      "reserved": "",
      "salt": "0x715c0cf94073713918b220e2d1657912640266c3cb6928795b4831835cd40d7a",
      "assetIds": []
    },
    {
      "x": 106,
      "y": 226,
      "size": 1,
      "price": "1011000000000000000000",
      "reserved": "",
      "salt": "0xd2b7046eaf8479950da85d32ee0f0d1a6e7b4c1537386a061aa49ea4d7c23907",
      "assetIds": []
    },
    {
      "x": 106,
      "y": 227,
      "size": 1,
      "price": "1011000000000000000000",
      "reserved": "",
      "salt": "0xb63dd9b9de3ca88b6182c79763f60643b09ac2af6e7a1bd914200a2454227673",
      "assetIds": []
    },
    {
      "x": 106,
      "y": 228,
      "size": 1,
      "price": "1011000000000000000000",
      "reserved": "",
      "salt": "0xd52563436cb0e1b4f5aeaa92d882ed96c86ea4fee638a43d910be28a05ac10cb",
      "assetIds": []
    },
    {
      "x": 106,
      "y": 229,
      "size": 1,
      "price": "1011000000000000000000",
      "reserved": "",
      "salt": "0x4425e4a23a474680102e5552f889be8f337dba02d3deb11226e123bbab69a55d",
      "assetIds": []
    },
    {
      "x": 106,
      "y": 230,
      "size": 1,
      "price": "1011000000000000000000",
      "reserved": "",
      "salt": "0x6466c85ef3358a838fda148b9e0caf8c6c01187327c4db5e4b2746e70fc3186c",
      "assetIds": []
    },
    {
      "x": 106,
      "y": 231,
      "size": 1,
      "price": "1011000000000000000000",
      "reserved": "",
      "salt": "0xdb353234aeb66dd6d9bf1489b60b68abada46c9b3f3f5ca0198cad72df5f920d",
      "assetIds": []
    },
    {
      "x": 106,
      "y": 232,
      "size": 1,
      "price": "1011000000000000000000",
      "reserved": "",
      "salt": "0xe22a536483e0e6c25911c233f2db86ff66ef68a3e7644a0a5df823a42ea51da4",
      "assetIds": []
    },
    {
      "x": 106,
      "y": 233,
      "size": 1,
      "price": "1011000000000000000000",
      "reserved": "",
      "salt": "0xbb10097fb6be836b1b30a09eea6f86e5b452493cef965adfed7316daadc9423d",
      "assetIds": []
    },
    {
      "x": 106,
      "y": 240,
      "size": 1,
      "price": "1011000000000000000000",
      "reserved": "",
      "salt": "0xc8d6c8a50ac41ec697b56c76f2e6de5a8993b2e26ce78905e6ffe196c0e367d1",
      "assetIds": []
    },
    {
      "x": 106,
      "y": 241,
      "size": 1,
      "price": "1011000000000000000000",
      "reserved": "0x7a9fe22691c811ea339d9b73150e6911a5343dca",
      "salt": "0x055b5d3de7e706b43e9060f2ee03dbdf5add09c28dd7caeaff5e90e2c5207418",
      "assetIds": []
    },
    {
      "x": 106,
      "y": 242,
      "size": 1,
      "price": "1011000000000000000000",
      "reserved": "",
      "salt": "0xcb4979676895580260b8d7e075461cda11120142d4ae1ac158fe36cd64d91fa2",
      "assetIds": []
    },
    {
      "x": 107,
      "y": 216,
      "size": 1,
      "price": "1011000000000000000000",
      "reserved": "",
      "salt": "0x9ef22e0c438d2b932843c86da384bd26f4703aef0b3771146ef8f6159f646bce",
      "assetIds": []
    },
    {
      "x": 107,
      "y": 217,
      "size": 1,
      "price": "1011000000000000000000",
      "reserved": "",
      "salt": "0x6f375be90848f30f970377d3676b430c7d28cd026b29e8eeb4a134cc30c8a9fa",
      "assetIds": []
    },
    {
      "x": 107,
      "y": 218,
      "size": 1,
      "price": "1011000000000000000000",
      "reserved": "",
      "salt": "0xdb53a34c757b7448e64a84f9ad8e79cbc9b32fbbdaee3d5b97168e34f0837b2a",
      "assetIds": []
    },
    {
      "x": 107,
      "y": 219,
      "size": 1,
      "price": "1011000000000000000000",
      "reserved": "",
      "salt": "0x8d6e37eb5929490ae3ee5ba60f58ecb51f530235577dba6d2dcb56f0bf60aa82",
      "assetIds": []
    },
    {
      "x": 107,
      "y": 220,
      "size": 1,
      "price": "1011000000000000000000",
      "reserved": "",
      "salt": "0x9c991b6717447054049532658f2db9231bebc19b4b394645fe79c819368c42e4",
      "assetIds": []
    },
    {
      "x": 107,
      "y": 221,
      "size": 1,
      "price": "4683000000000000000000",
      "reserved": "",
      "salt": "0x647e8be67fb7b2b3a635122eab819fa67d11d6359dda3cab34a483af78c0f7e0",
      "assetIds": []
    },
    {
      "x": 107,
      "y": 225,
      "size": 1,
      "price": "4683000000000000000000",
      "reserved": "",
      "salt": "0x665f35c1e6a8cb5b0c92d231db26f9d9ccf881053b7f3354598ffc4389f3fde9",
      "assetIds": []
    },
    {
      "x": 107,
      "y": 226,
      "size": 1,
      "price": "1011000000000000000000",
      "reserved": "",
      "salt": "0x9d278943b5ccc9434b38d13a5595721d48f73787a16fb98b72f289c4302671fd",
      "assetIds": []
    },
    {
      "x": 107,
      "y": 227,
      "size": 1,
      "price": "1011000000000000000000",
      "reserved": "",
      "salt": "0x0ba5d85c04ce570576b844220ea6f2662135f9ca00b03b7f8efe8fab86800f5d",
      "assetIds": []
    },
    {
      "x": 107,
      "y": 228,
      "size": 1,
      "price": "1011000000000000000000",
      "reserved": "",
      "salt": "0xaab3d9c7dc4b25f06eee7d0b81c8fb6911fafd4cbe6be692548d1c5369b7e001",
      "assetIds": []
    },
    {
      "x": 107,
      "y": 229,
      "size": 1,
      "price": "1011000000000000000000",
      "reserved": "",
      "salt": "0x6c21d40e61c959eb7bb368635d3e626eca6b4e2758cfc43810eadffc181772b5",
      "assetIds": []
    },
    {
      "x": 107,
      "y": 230,
      "size": 1,
      "price": "1011000000000000000000",
      "reserved": "",
      "salt": "0x63628d9f6895d492771c9d52b7edcb127f51dd940747fde6cac31b6bbc956254",
      "assetIds": []
    },
    {
      "x": 107,
      "y": 231,
      "size": 1,
      "price": "1011000000000000000000",
      "reserved": "",
      "salt": "0xe6f3eec1fd5dd99a065a20e32c22f04253e6e56c21ea32b040bfa6e49bc66615",
      "assetIds": []
    },
    {
      "x": 107,
      "y": 232,
      "size": 1,
      "price": "1011000000000000000000",
      "reserved": "",
      "salt": "0xe5b35e0b35fbaaea27239413f588eeda7c6bb49c46e3108643b62824c9eaf286",
      "assetIds": []
    },
    {
      "x": 107,
      "y": 233,
      "size": 1,
      "price": "1011000000000000000000",
      "reserved": "",
      "salt": "0x3007afa00853e3c2ea4d4194e7477c1c56238d0aa92e9968d43a81ec46af254a",
      "assetIds": []
    },
    {
      "x": 107,
      "y": 240,
      "size": 1,
      "price": "1011000000000000000000",
      "reserved": "",
      "salt": "0xb8d9a764b323235abbffe68d0fc6bd9ce9699362b4d6a98cf9e00d40448f0e58",
      "assetIds": []
    },
    {
      "x": 107,
      "y": 241,
      "size": 1,
      "price": "1011000000000000000000",
      "reserved": "",
      "salt": "0xeaf5f48143346ca9988e42cd3ae2f4c375c7c7035695bb1badcbab2db642a4f4",
      "assetIds": []
    },
    {
      "x": 107,
      "y": 242,
      "size": 1,
      "price": "1011000000000000000000",
      "reserved": "",
      "salt": "0x8b551f863b2b811d0419d6e16b5cde6c7222f14d94db6978b235a3e2b8da41e8",
      "assetIds": []
    },
    {
      "x": 108,
      "y": 201,
      "size": 1,
      "price": "1011000000000000000000",
      "reserved": "",
      "salt": "0xb4f256d2dd2d4b3764046355a6333013810d8dc28687782732397575d420f0c0",
      "assetIds": []
    },
    {
      "x": 108,
      "y": 202,
      "size": 1,
      "price": "1011000000000000000000",
      "reserved": "",
      "salt": "0xf7b64a7a7e982f42abdecd18af0d8c3ddc8b12c724ef218f510e1c730d156a41",
      "assetIds": []
    },
    {
      "x": 108,
      "y": 203,
      "size": 1,
      "price": "1011000000000000000000",
      "reserved": "",
      "salt": "0xdec98d6b26ff070545d947e4e87f50ed7d65700e4bd6de064803582f915dac55",
      "assetIds": []
    },
    {
      "x": 108,
      "y": 204,
      "size": 1,
      "price": "1011000000000000000000",
      "reserved": "",
      "salt": "0x10047a72d4c4604c486412ee6665a256e52571999e0b1635b09edcf978096320",
      "assetIds": []
    },
    {
      "x": 108,
      "y": 205,
      "size": 1,
      "price": "1011000000000000000000",
      "reserved": "",
      "salt": "0x2491f49631bf2d6f620362e18765a1876d73fad685e70c90242892a015eb294f",
      "assetIds": []
    },
    {
      "x": 108,
      "y": 206,
      "size": 1,
      "price": "1011000000000000000000",
      "reserved": "",
      "salt": "0x38104fdb64f7c63f79995c250adc05606b5e34644688f4e430f07e16d04d084f",
      "assetIds": []
    },
    {
      "x": 108,
      "y": 207,
      "size": 1,
      "price": "1011000000000000000000",
      "reserved": "",
      "salt": "0x70d63c5262a8fc3d5f008ca9dbe9219f6943729c7cc6d198f601fffe389b09ee",
      "assetIds": []
    },
    {
      "x": 108,
      "y": 208,
      "size": 1,
      "price": "1011000000000000000000",
      "reserved": "",
      "salt": "0xfd1de855c09d30e00d3aa4ef991af7b23ad02c7f9a9e4a4e3d881e1266b862d5",
      "assetIds": []
    },
    {
      "x": 108,
      "y": 209,
      "size": 1,
      "price": "1011000000000000000000",
      "reserved": "",
      "salt": "0x4708967fe96ae804f7e45d096be456bde7a43e7ea6071f119d01ff5108341561",
      "assetIds": []
    },
    {
      "x": 108,
      "y": 219,
      "size": 1,
      "price": "1011000000000000000000",
      "reserved": "",
      "salt": "0x59919192e58cbbe57f71b84a3d373f6bcad5f2ab726d544cc89942ccbe233c79",
      "assetIds": []
    },
    {
      "x": 108,
      "y": 220,
      "size": 1,
      "price": "1011000000000000000000",
      "reserved": "",
      "salt": "0x8ddb164dd4209541d85df77eba4aa3fe51d6959145566ffc0c15bd704620977d",
      "assetIds": []
    },
    {
      "x": 108,
      "y": 221,
      "size": 1,
      "price": "1011000000000000000000",
      "reserved": "0x7a9fe22691c811ea339d9b73150e6911a5343dca",
      "salt": "0xad487eec357b6fed88c995b67d6ff5cebcbb49c8aafc624843f4d19bb48ba1dd",
      "assetIds": []
    },
    {
      "x": 108,
      "y": 222,
      "size": 1,
      "price": "4683000000000000000000",
      "reserved": "",
      "salt": "0x8ab2ce358c7d5075bd64b6e8dee54368cf1bc721a1df2b761d32da0a52aa7eae",
      "assetIds": []
    },
    {
      "x": 108,
      "y": 223,
      "size": 1,
      "price": "1011000000000000000000",
      "reserved": "0x7a9fe22691c811ea339d9b73150e6911a5343dca",
      "salt": "0xeb34db375ca51fa20c88c94006fc8dafe5c1af066ec12bbfa0cb544d282b4bfc",
      "assetIds": []
    },
    {
      "x": 108,
      "y": 224,
      "size": 1,
      "price": "4683000000000000000000",
      "reserved": "",
      "salt": "0x547960400c81dff7930c09ee73cde6898009b7fd5488564c8c2653af9a17ef80",
      "assetIds": []
    },
    {
      "x": 108,
      "y": 231,
      "size": 1,
      "price": "1011000000000000000000",
      "reserved": "",
      "salt": "0x029c7e442095658d255eee338e559802d0cba0489bf8795b2a37ed96ce266cdb",
      "assetIds": []
    },
    {
      "x": 108,
      "y": 232,
      "size": 1,
      "price": "1011000000000000000000",
      "reserved": "",
      "salt": "0x8f3609a85e72b19a2bde9a4574f7655454c5a629ff0e431ed01714f339a11017",
      "assetIds": []
    },
    {
      "x": 108,
      "y": 233,
      "size": 1,
      "price": "1011000000000000000000",
      "reserved": "",
      "salt": "0x98b7c82d63ef095acc10ab17b48aa360284a07cd050b9c71e566ace4091fa182",
      "assetIds": []
    },
    {
      "x": 108,
      "y": 234,
      "size": 1,
      "price": "1011000000000000000000",
      "reserved": "",
      "salt": "0xe387dea844a5ccfe11fbe4a1d7aad6e8eeb2a9c0302178e337b7cb618fcbe93a",
      "assetIds": []
    },
    {
      "x": 108,
      "y": 235,
      "size": 1,
      "price": "1011000000000000000000",
      "reserved": "",
      "salt": "0x5e069fb8bb010003322fe5a058ea11697e6d01d93dc440e7cbdd1e207b7ceaa3",
      "assetIds": []
    },
    {
      "x": 108,
      "y": 236,
      "size": 1,
      "price": "1011000000000000000000",
      "reserved": "",
      "salt": "0x55259abc42451bb84525ba55dce3ce0225c1a4b2b1393b5f77845a50c8d1b923",
      "assetIds": []
    },
    {
      "x": 108,
      "y": 240,
      "size": 1,
      "price": "1011000000000000000000",
      "reserved": "",
      "salt": "0x542d97994d774bee7cf4b506fd73becb1e81041252ff446169f26abf90e0075f",
      "assetIds": []
    },
    {
      "x": 108,
      "y": 241,
      "size": 1,
      "price": "1011000000000000000000",
      "reserved": "",
      "salt": "0x551212cbf19c61ca85fa1b4ad9ec690f0abe48749dff659c9389174e468fe18f",
      "assetIds": []
    },
    {
      "x": 108,
      "y": 242,
      "size": 1,
      "price": "1011000000000000000000",
      "reserved": "",
      "salt": "0x3d79aec7a60fb29f6d9e416f2adbcc35f7880698ec8bf8c1d748a6fe7f231cf5",
      "assetIds": []
    },
    {
      "x": 109,
      "y": 201,
      "size": 1,
      "price": "1011000000000000000000",
      "reserved": "",
      "salt": "0x7ac2182198a3f88fd4a2ad6f62f9f7bfaf749257fcdf3fc62d668b53c4b46f7e",
      "assetIds": []
    },
    {
      "x": 109,
      "y": 202,
      "size": 1,
      "price": "1011000000000000000000",
      "reserved": "",
      "salt": "0x1b2ccd64c0692169ec39bc242cb8826c6c9b4cb20e12588126c05880f338c182",
      "assetIds": []
    },
    {
      "x": 109,
      "y": 203,
      "size": 1,
      "price": "1011000000000000000000",
      "reserved": "",
      "salt": "0x5cada48c3d95aae34a41166d9a43a4d1e1a06d1b810369bb314deac82b088e34",
      "assetIds": []
    },
    {
      "x": 109,
      "y": 204,
      "size": 1,
      "price": "1011000000000000000000",
      "reserved": "",
      "salt": "0x0f90ff1d9174cf2de86eac33efdcb9546c5c9f23e6fd0eccd08f34b5ae4a2abe",
      "assetIds": []
    },
    {
      "x": 109,
      "y": 205,
      "size": 1,
      "price": "1011000000000000000000",
      "reserved": "",
      "salt": "0xbf8166f3298b7be1ca0337749f71d08669d385bf0ecd4a54b615a4ef3e5cde1c",
      "assetIds": []
    },
    {
      "x": 109,
      "y": 206,
      "size": 1,
      "price": "1011000000000000000000",
      "reserved": "",
      "salt": "0x04bbc4dc4bd9ea63cdd7c5ead49f878407bfd641e861746de2655b6e107a8e7a",
      "assetIds": []
    },
    {
      "x": 109,
      "y": 207,
      "size": 1,
      "price": "1011000000000000000000",
      "reserved": "",
      "salt": "0xdd02af5de9e32d6ccbfd98fb667096c29c460f9fa5cbd7fcdeb5b51e51f04631",
      "assetIds": []
    },
    {
      "x": 109,
      "y": 208,
      "size": 1,
      "price": "1011000000000000000000",
      "reserved": "",
      "salt": "0xfd84b6382e696b8eac695f61417d64d3836b70e18b2cd0dceb404c128a2a2ef0",
      "assetIds": []
    },
    {
      "x": 109,
      "y": 209,
      "size": 1,
      "price": "1011000000000000000000",
      "reserved": "",
      "salt": "0x6ba3dd3913d3c3b0bccc18771417cf2e832579b85af0f8e5a37034fae5cd92ed",
      "assetIds": []
    },
    {
      "x": 109,
      "y": 219,
      "size": 1,
      "price": "1011000000000000000000",
      "reserved": "",
      "salt": "0x77ab4c7d02b94327c51a7db9ce49cbe1157bae6d99e58a938714dd43880449c9",
      "assetIds": []
    },
    {
      "x": 109,
      "y": 220,
      "size": 1,
      "price": "1011000000000000000000",
      "reserved": "",
      "salt": "0xefcaa938d10be74ba0ddb0302cbe58ce395f9855f4c8e223fb2dd7d7cbd1abf0",
      "assetIds": []
    },
    {
      "x": 109,
      "y": 221,
      "size": 1,
      "price": "1011000000000000000000",
      "reserved": "",
      "salt": "0x68b4aaba9c04a70be1ccfbbd6629e488540f5544abb26f803e186a6c699ed998",
      "assetIds": []
    },
    {
      "x": 109,
      "y": 222,
      "size": 1,
      "price": "1011000000000000000000",
      "reserved": "",
      "salt": "0xcd6b4751a13087e8f1edc38e8e6037755f14e9b466a87e71cdd93fec7c3def3d",
      "assetIds": []
    },
    {
      "x": 109,
      "y": 223,
      "size": 1,
      "price": "1011000000000000000000",
      "reserved": "",
      "salt": "0x86865ffced50c9e2d53af0496deff2f5fa594b4c596a7367a6bdb566614fd48a",
      "assetIds": []
    },
    {
      "x": 109,
      "y": 224,
      "size": 1,
      "price": "1011000000000000000000",
      "reserved": "",
      "salt": "0xbcec5c47f36c85e80246896bf7dac87b85276af2b968187235a748d52b52e116",
      "assetIds": []
    },
    {
      "x": 109,
      "y": 231,
      "size": 1,
      "price": "1011000000000000000000",
      "reserved": "",
      "salt": "0xcfeaf7178e23b16828f15cab6948947145c6ed30f5a60af1f34aab4f2871efc5",
      "assetIds": []
    },
    {
      "x": 109,
      "y": 232,
      "size": 1,
      "price": "1011000000000000000000",
      "reserved": "",
      "salt": "0x97cd942c4387f15020ae6e41d6cf730479568c6219326de457cdfd6cb0529eef",
      "assetIds": []
    },
    {
      "x": 109,
      "y": 233,
      "size": 1,
      "price": "1011000000000000000000",
      "reserved": "",
      "salt": "0x0070f7acd7d1e006fd253aa75deb7fa017756d0728ee19f7c784f150b16a50f7",
      "assetIds": []
    },
    {
      "x": 109,
      "y": 234,
      "size": 1,
      "price": "1011000000000000000000",
      "reserved": "",
      "salt": "0x03ecf7bf45b1bc1279e5c7fa5ef0838400a61154f63cf59d05a7c79d0b309b5a",
      "assetIds": []
    },
    {
      "x": 109,
      "y": 235,
      "size": 1,
      "price": "1011000000000000000000",
      "reserved": "",
      "salt": "0x513fc729ef572c3e0633ce6cda6eef3cfdce0a961b21f1bc65645424d6e6bc16",
      "assetIds": []
    },
    {
      "x": 109,
      "y": 236,
      "size": 1,
      "price": "1011000000000000000000",
      "reserved": "",
      "salt": "0x31df053a073381a1580ef2850a41a7dd6beb4f2cfa1a1b56b47ebf469512c668",
      "assetIds": []
    },
    {
      "x": 109,
      "y": 240,
      "size": 1,
      "price": "1011000000000000000000",
      "reserved": "",
      "salt": "0x1dc4b14aa1ae9f60a978da6803082e0c687e4854ba71f1edafa451584b306cd5",
      "assetIds": []
    },
    {
      "x": 109,
      "y": 241,
      "size": 1,
      "price": "1011000000000000000000",
      "reserved": "",
      "salt": "0xd37475dde29c57d24177941c373532e5b0bb309e503ab6365097710651815f05",
      "assetIds": []
    },
    {
      "x": 109,
      "y": 242,
      "size": 1,
      "price": "1011000000000000000000",
      "reserved": "",
      "salt": "0xb146fe90dc4fa0fca32477e5991e78725ade77abd788eef47925327461aa7e55",
      "assetIds": []
    },
    {
      "x": 110,
      "y": 201,
      "size": 1,
      "price": "1011000000000000000000",
      "reserved": "",
      "salt": "0xf333d216b45b5af99f551972428a57e1e922d0bd86e39be809a8e6240eedb3ee",
      "assetIds": []
    },
    {
      "x": 110,
      "y": 202,
      "size": 1,
      "price": "1011000000000000000000",
      "reserved": "",
      "salt": "0xc2f6062904b46059db3d356855e4ad704d11b3b5e4e4d67f22fa9a50896cc9a0",
      "assetIds": []
    },
    {
      "x": 110,
      "y": 203,
      "size": 1,
      "price": "1011000000000000000000",
      "reserved": "",
      "salt": "0xa218c5f270884aa5eae0664b98a401f14ebc5b631a35129296aaf5e614a3ca07",
      "assetIds": []
    },
    {
      "x": 110,
      "y": 204,
      "size": 1,
      "price": "1011000000000000000000",
      "reserved": "0x7a9fe22691c811ea339d9b73150e6911a5343dca",
      "salt": "0xcde6c509fc85d29b08069d5d4e356df2c2470c8f5c9be856c67bcf78536bd9c4",
      "assetIds": []
    },
    {
      "x": 110,
      "y": 205,
      "size": 1,
      "price": "1011000000000000000000",
      "reserved": "",
      "salt": "0xefc5562702cfbb50982cc98c052b8549b9452b0227fe63783ed9364bdb2f7f28",
      "assetIds": []
    },
    {
      "x": 110,
      "y": 206,
      "size": 1,
      "price": "1011000000000000000000",
      "reserved": "",
      "salt": "0xddabd0058e9755c54e4a4d1c18498bc1e051941873000d817e42a0a816c1b6f4",
      "assetIds": []
    },
    {
      "x": 110,
      "y": 207,
      "size": 1,
      "price": "1011000000000000000000",
      "reserved": "",
      "salt": "0xe4d68b03f7d40c365f85f39806256b65401137275fba213d5f4544099faf87ae",
      "assetIds": []
    },
    {
      "x": 110,
      "y": 208,
      "size": 1,
      "price": "1011000000000000000000",
      "reserved": "",
      "salt": "0x7cc8055a30bd5e61bb16ddc8eeb3cf2b441f5bc8cd528f634df2f59ef78b6913",
      "assetIds": []
    },
    {
      "x": 110,
      "y": 209,
      "size": 1,
      "price": "1011000000000000000000",
      "reserved": "",
      "salt": "0x37bbb688f2cce3f2baf9eae89e1e4035fb564fbe95dbb563035559e37d1d9bc2",
      "assetIds": []
    },
    {
      "x": 110,
      "y": 219,
      "size": 1,
      "price": "1011000000000000000000",
      "reserved": "",
      "salt": "0x9fe6cbdb9db4bfe95a66c5c4e485cc23b9ca19cb7f0c5040c2aee290590dbc07",
      "assetIds": []
    },
    {
      "x": 110,
      "y": 220,
      "size": 1,
      "price": "4683000000000000000000",
      "reserved": "",
      "salt": "0xc821c6649d1d3f4a39dd3b558abca6ae8177d8e3ff6a67d4010ee1afb444d646",
      "assetIds": []
    },
    {
      "x": 110,
      "y": 221,
      "size": 1,
      "price": "4683000000000000000000",
      "reserved": "",
      "salt": "0xd0cff0800174d43f8114d1fff0c82aedfa7670cf228364d5b28c8989b6e6a867",
      "assetIds": []
    },
    {
      "x": 110,
      "y": 222,
      "size": 1,
      "price": "1011000000000000000000",
      "reserved": "",
      "salt": "0xb03b9ed7ba9f70e23d6bf0d2cbdb9315668df0499e6e20ab90557ea2ba83ed4e",
      "assetIds": []
    },
    {
      "x": 110,
      "y": 223,
      "size": 1,
      "price": "1011000000000000000000",
      "reserved": "",
      "salt": "0x7a30a1c65ae29fb74aae24e4142328209b9f8ba8ccd357da51aceed2c7406580",
      "assetIds": []
    },
    {
      "x": 110,
      "y": 224,
      "size": 1,
      "price": "1011000000000000000000",
      "reserved": "",
      "salt": "0x6154185ca3ad6ff368e3086ef4ae4b0a302bd290502568e1d41c8dbb843ad6b8",
      "assetIds": []
    },
    {
      "x": 110,
      "y": 231,
      "size": 1,
      "price": "1011000000000000000000",
      "reserved": "",
      "salt": "0xfc529efb5fb50e66ae76cdb6040c2a682fca54e879b74cb8aa1057f8ee3c49f8",
      "assetIds": []
    },
    {
      "x": 110,
      "y": 232,
      "size": 1,
      "price": "1011000000000000000000",
      "reserved": "",
      "salt": "0x42a0864e3f2f2552d369d2b02278478568424cc6557a18cddb2b71bf0340caf6",
      "assetIds": []
    },
    {
      "x": 110,
      "y": 233,
      "size": 1,
      "price": "4683000000000000000000",
      "reserved": "",
      "salt": "0x16a962fe76b6dd8f70dfbb274681b6dedd2672b4dd9e85869dd88b92f416d7be",
      "assetIds": []
    },
    {
      "x": 110,
      "y": 234,
      "size": 1,
      "price": "4683000000000000000000",
      "reserved": "",
      "salt": "0x870286838a0d0a73fd859abf0bcf46d3e16fcd6ae869f6da3cfff6c4b842bd5f",
      "assetIds": []
    },
    {
      "x": 110,
      "y": 235,
      "size": 1,
      "price": "4683000000000000000000",
      "reserved": "",
      "salt": "0x318728262cb31b1b10b300e585fead36973f358d63bf2044230070f6d97852f9",
      "assetIds": []
    },
    {
      "x": 110,
      "y": 236,
      "size": 1,
      "price": "4683000000000000000000",
      "reserved": "",
      "salt": "0x2007b4d33b5b1ad16ddfcd2f0b81cee9b3557b44c6ba8230f678f62c4ec86557",
      "assetIds": []
    },
    {
      "x": 110,
      "y": 240,
      "size": 1,
      "price": "1011000000000000000000",
      "reserved": "",
      "salt": "0x6a90b7210ea810b5af237afd7f6fbddda3bb21d4cb243f0758a8cb4472407f38",
      "assetIds": []
    },
    {
      "x": 110,
      "y": 241,
      "size": 1,
      "price": "1011000000000000000000",
      "reserved": "0x7a9fe22691c811ea339d9b73150e6911a5343dca",
      "salt": "0x5f009995a297312e10680baf828f8092750921507046836eddcc5c3fac129334",
      "assetIds": []
    },
    {
      "x": 110,
      "y": 242,
      "size": 1,
      "price": "1011000000000000000000",
      "reserved": "",
      "salt": "0x58839ce82cf3e41fdb0460eea11746a16f6c798ac0279d8bebb2f02db0d61e5f",
      "assetIds": []
    },
    {
      "x": 111,
      "y": 201,
      "size": 1,
      "price": "1011000000000000000000",
      "reserved": "",
      "salt": "0xeaa1bef15d6a09cab22badef39e34041ff8ac2f4092def50412cbef6bd85f498",
      "assetIds": []
    },
    {
      "x": 111,
      "y": 202,
      "size": 1,
      "price": "1011000000000000000000",
      "reserved": "",
      "salt": "0x82215428776465a8304a88b9647c187e647a2f840558304553c20ca12e814b70",
      "assetIds": []
    },
    {
      "x": 111,
      "y": 203,
      "size": 1,
      "price": "1011000000000000000000",
      "reserved": "",
      "salt": "0x38a8e9aaba5532e97c910a1cbb0aa592ca10015d9f313c11061c16f926addac8",
      "assetIds": []
    },
    {
      "x": 111,
      "y": 204,
      "size": 1,
      "price": "1011000000000000000000",
      "reserved": "",
      "salt": "0x7ddf65a6ac9b6d809c292f1e3ab7e088482e123af3417c33b61f40500033e91c",
      "assetIds": []
    },
    {
      "x": 111,
      "y": 205,
      "size": 1,
      "price": "1011000000000000000000",
      "reserved": "",
      "salt": "0x90e633a1393ffe19a3d38cb10b900f1972afa3ae7165189e7835ebdb62c255a1",
      "assetIds": []
    },
    {
      "x": 111,
      "y": 206,
      "size": 1,
      "price": "1011000000000000000000",
      "reserved": "",
      "salt": "0x2ff1f2f9e1d04315d9733b56888fa83ee25c9181ab9ad627b4c67afd931c700a",
      "assetIds": []
    },
    {
      "x": 111,
      "y": 216,
      "size": 1,
      "price": "1011000000000000000000",
      "reserved": "",
      "salt": "0x6b6716c3f0436d684d230dd20a399aa19e861828249d8e417af9869498fa06e6",
      "assetIds": []
    },
    {
      "x": 111,
      "y": 217,
      "size": 1,
      "price": "1011000000000000000000",
      "reserved": "",
      "salt": "0x52f24686c727b9261991019a5562c9fbd50f0f88cef913f13240b952762b97b2",
      "assetIds": []
    },
    {
      "x": 111,
      "y": 218,
      "size": 1,
      "price": "4683000000000000000000",
      "reserved": "",
      "salt": "0x9e267c731cc0e157ff8b2764011b003afe38ec3e847610608b0842b7bb1f6de9",
      "assetIds": []
    },
    {
      "x": 111,
      "y": 222,
      "size": 1,
      "price": "4683000000000000000000",
      "reserved": "",
      "salt": "0xaba092a9770e284f1b208cd2724fac2024446087ca28ea92f522cd3dd9d15c87",
      "assetIds": []
    },
    {
      "x": 111,
      "y": 223,
      "size": 1,
      "price": "1011000000000000000000",
      "reserved": "",
      "salt": "0xc4d9a31712bca16891de8b9475949af880a2abb908a5edb754b19685cef50e55",
      "assetIds": []
    },
    {
      "x": 111,
      "y": 224,
      "size": 1,
      "price": "1011000000000000000000",
      "reserved": "",
      "salt": "0xaeef883b52debe73ec6d8f8130756b22b1a11384a9f7af9060ef7674159a18a4",
      "assetIds": []
    },
    {
      "x": 111,
      "y": 225,
      "size": 1,
      "price": "1011000000000000000000",
      "reserved": "",
      "salt": "0x05eb487d4e185d282c60f956f40c667a10c179e31cf0254b501a350e30d83cab",
      "assetIds": []
    },
    {
      "x": 111,
      "y": 226,
      "size": 1,
      "price": "1011000000000000000000",
      "reserved": "",
      "salt": "0x1e483e980dcb208847e25f51232a1a0af7859e725c62039fc3c68882e6aeb00f",
      "assetIds": []
    },
    {
      "x": 111,
      "y": 227,
      "size": 1,
      "price": "1011000000000000000000",
      "reserved": "",
      "salt": "0x06b13b67ddebc1561b35a99a7fe437dfec7a6ff10de36fe179e62e660e60ac13",
      "assetIds": []
    },
    {
      "x": 111,
      "y": 228,
      "size": 1,
      "price": "1011000000000000000000",
      "reserved": "",
      "salt": "0xec79ff9e0ecc79d151386b0d44257478b1cd0e29ecfb22d25b9448a7ca16b86d",
      "assetIds": []
    },
    {
      "x": 111,
      "y": 229,
      "size": 1,
      "price": "1011000000000000000000",
      "reserved": "",
      "salt": "0xd4331adac3188d10d32f9186e1aa96666fc3e525bfedeed6ca2be357c95a3fc9",
      "assetIds": []
    },
    {
      "x": 111,
      "y": 230,
      "size": 1,
      "price": "1011000000000000000000",
      "reserved": "",
      "salt": "0x3de044dc09d450ae62f5d383f5c770607c281d5b5342e99d47787401e92f8cd6",
      "assetIds": []
    },
    {
      "x": 111,
      "y": 231,
      "size": 1,
      "price": "1011000000000000000000",
      "reserved": "",
      "salt": "0x2ae6d0332589e9ef4ffa28d7b74ca5162309142e7f8bba2f7be85449601b11a4",
      "assetIds": []
    },
    {
      "x": 111,
      "y": 232,
      "size": 1,
      "price": "1011000000000000000000",
      "reserved": "",
      "salt": "0xc3145cdca0966b31a16b2241926dc023b3f43cba29f7247f5c456294c4a6f53b",
      "assetIds": []
    },
    {
      "x": 111,
      "y": 233,
      "size": 1,
      "price": "4683000000000000000000",
      "reserved": "",
      "salt": "0x870bcad9b345b0cb93432b5c7bb213ca97dfe0bf35a2fd2e36938d3a85515404",
      "assetIds": []
    },
    {
      "x": 111,
      "y": 240,
      "size": 1,
      "price": "1011000000000000000000",
      "reserved": "",
      "salt": "0xe7fe05c5572301afbb6be567da534f117fc5052dbfd153cadffed04938d7ae04",
      "assetIds": []
    },
    {
      "x": 111,
      "y": 241,
      "size": 1,
      "price": "1011000000000000000000",
      "reserved": "",
      "salt": "0x4be5a4b52a340a224787a799837f02b5e8ea433e21f184c28a4889eb1a9f54a8",
      "assetIds": []
    },
    {
      "x": 111,
      "y": 242,
      "size": 1,
      "price": "1011000000000000000000",
      "reserved": "",
      "salt": "0x1a2d3a4e238c3820dbe7f7793989ed65c8795bb55cb73a865be3f4d55dfe9ed8",
      "assetIds": []
    },
    {
      "x": 112,
      "y": 201,
      "size": 1,
      "price": "1011000000000000000000",
      "reserved": "",
      "salt": "0xd2e05658a74796dea221515cf52fcaea8f742f0e0f7670356de580790f6a0fed",
      "assetIds": []
    },
    {
      "x": 112,
      "y": 202,
      "size": 1,
      "price": "1011000000000000000000",
      "reserved": "",
      "salt": "0xb8904a50fa4cd0305f70df191eab10c7ab16dd562e0aec1e5701564feb9fda8a",
      "assetIds": []
    },
    {
      "x": 112,
      "y": 203,
      "size": 1,
      "price": "1011000000000000000000",
      "reserved": "",
      "salt": "0x1bdb6993531383825126731e722e95eb1dcce89ef70d61c5f4f92487378f2d24",
      "assetIds": []
    },
    {
      "x": 112,
      "y": 204,
      "size": 1,
      "price": "1011000000000000000000",
      "reserved": "",
      "salt": "0xe6cec443e63b021ce44e951e41bc1c08c08a890d0c670a0009c6ba1f6ea15a7e",
      "assetIds": []
    },
    {
      "x": 112,
      "y": 205,
      "size": 1,
      "price": "1011000000000000000000",
      "reserved": "",
      "salt": "0x840a15e4467417496e2e8ec6727795286c8d39fb8d1e9b30ec1f9e4080ecec14",
      "assetIds": []
    },
    {
      "x": 112,
      "y": 206,
      "size": 1,
      "price": "1011000000000000000000",
      "reserved": "",
      "salt": "0xec633fad8a5606a2bf77b1bb8ffeb644b405c18827ed7342c92dbd07b4388237",
      "assetIds": []
    },
    {
      "x": 112,
      "y": 216,
      "size": 1,
      "price": "1011000000000000000000",
      "reserved": "0x7a9fe22691c811ea339d9b73150e6911a5343dca",
      "salt": "0x4c20fbd1b5f4c11bd16c09700830d71be1f62457fe1a0b8e05f36b710ed591c9",
      "assetIds": []
    },
    {
      "x": 112,
      "y": 217,
      "size": 1,
      "price": "1011000000000000000000",
      "reserved": "",
      "salt": "0x840946d8af2b58da730f1b03a7bc57c07cc132ceeb9cccc7091446c7dc9e6e2d",
      "assetIds": []
    },
    {
      "x": 112,
      "y": 218,
      "size": 1,
      "price": "4683000000000000000000",
      "reserved": "",
      "salt": "0x9cb27c81f4ad3bc871dfc9b3e0d97947cc9b7b15f3ca83779b249d393e701f0c",
      "assetIds": []
    },
    {
      "x": 112,
      "y": 222,
      "size": 1,
      "price": "4683000000000000000000",
      "reserved": "",
      "salt": "0xe1acf3e3a0097c557d23b4a4f6c2ab6e98a7a697c8413781b496e6a89201133f",
      "assetIds": []
    },
    {
      "x": 112,
      "y": 223,
      "size": 1,
      "price": "1011000000000000000000",
      "reserved": "",
      "salt": "0xad5601cf41a75f8b1ff1460f3a0fe7891175673c67efcfb84973cb65a50dfdee",
      "assetIds": []
    },
    {
      "x": 112,
      "y": 224,
      "size": 1,
      "price": "1011000000000000000000",
      "reserved": "",
      "salt": "0x7f8a3a40eacff00397b0757ea824c7e9b68e05853522ac63bb409b49363a7018",
      "assetIds": []
    },
    {
      "x": 112,
      "y": 225,
      "size": 1,
      "price": "1011000000000000000000",
      "reserved": "",
      "salt": "0xa7d2c5868bb4235eb47e121e172492d6593fcbf55b7330ab20ea449c33d6c969",
      "assetIds": []
    },
    {
      "x": 112,
      "y": 226,
      "size": 1,
      "price": "1011000000000000000000",
      "reserved": "",
      "salt": "0xe7b479cc064a82f7ed09e9cc8734e47242d733cd93ebbfe22eee1c6cb35cbebf",
      "assetIds": []
    },
    {
      "x": 112,
      "y": 227,
      "size": 1,
      "price": "1011000000000000000000",
      "reserved": "",
      "salt": "0x6a3c0344132d454bf60e2fcb99e89640bc4fec88c0bcd1137e1719fc14cf24cd",
      "assetIds": []
    },
    {
      "x": 112,
      "y": 228,
      "size": 1,
      "price": "1011000000000000000000",
      "reserved": "",
      "salt": "0x263469bf476681ce271c5b5d028c5e44c5f53cfb8ac45a34817ef5f32f28b70e",
      "assetIds": []
    },
    {
      "x": 112,
      "y": 229,
      "size": 1,
      "price": "1011000000000000000000",
      "reserved": "",
      "salt": "0x15b79ac804cf5fca2a31de928dffd7b38fad3a7bbbdefcc43d0c4dd9b7c27935",
      "assetIds": []
    },
    {
      "x": 112,
      "y": 230,
      "size": 1,
      "price": "1011000000000000000000",
      "reserved": "",
      "salt": "0x46d77be65a055d049eb8a97c5ff7ed8a6d1972b7fac54549e0536663107b3ace",
      "assetIds": []
    },
    {
      "x": 112,
      "y": 231,
      "size": 1,
      "price": "1011000000000000000000",
      "reserved": "",
      "salt": "0x38b8c75ce28e543fd41328412ee28675d808a37dd29234258541b572c2f3944a",
      "assetIds": []
    },
    {
      "x": 112,
      "y": 232,
      "size": 1,
      "price": "1011000000000000000000",
      "reserved": "",
      "salt": "0xbecdfea6330dd5a5f01c30f4738c2a5dfa8f494fa7c909215ca5e84add3e0d00",
      "assetIds": []
    },
    {
      "x": 112,
      "y": 233,
      "size": 1,
      "price": "1011000000000000000000",
      "reserved": "",
      "salt": "0xc3b9c1b65b446d7157994a3a3d7be8bb11599dd49419ce9c86d9cab4a97f817a",
      "assetIds": []
    },
    {
      "x": 112,
      "y": 240,
      "size": 1,
      "price": "1011000000000000000000",
      "reserved": "",
      "salt": "0x41a005eed7c83868738c68eb9cd21178cd2078d4f832d456c44d47a67c610022",
      "assetIds": []
    },
    {
      "x": 112,
      "y": 241,
      "size": 1,
      "price": "1011000000000000000000",
      "reserved": "",
      "salt": "0x4760a1bde16a8dc81b67804eac3b7df9c1c72f57647a7f761dfbe177a6febcab",
      "assetIds": []
    },
    {
      "x": 112,
      "y": 242,
      "size": 1,
      "price": "1011000000000000000000",
      "reserved": "",
      "salt": "0x3832743affa375d160554f1fb111864ddbaf01d4955e461efca434889538523e",
      "assetIds": []
    },
    {
      "x": 113,
      "y": 201,
      "size": 1,
      "price": "1011000000000000000000",
      "reserved": "",
      "salt": "0x2f368cf53f9d97826c5a2b58363344e16a41d2ba1343e06b6e92c2d146f74b6b",
      "assetIds": []
    },
    {
      "x": 113,
      "y": 202,
      "size": 1,
      "price": "1011000000000000000000",
      "reserved": "",
      "salt": "0xf774e99b0efb252d6308beadb5eea57bc29f9fe16323daafb94a9d569ec050ee",
      "assetIds": []
    },
    {
      "x": 113,
      "y": 203,
      "size": 1,
      "price": "1011000000000000000000",
      "reserved": "",
      "salt": "0xfaaea8e993034825899411f7fb4635b644e0d13c162de0919e302414a917a6a5",
      "assetIds": []
    },
    {
      "x": 113,
      "y": 204,
      "size": 1,
      "price": "1011000000000000000000",
      "reserved": "",
      "salt": "0x2527f1708e711916f352df7c27e1e37b5ad82dc96a88004034aa844bc9e797b1",
      "assetIds": []
    },
    {
      "x": 113,
      "y": 205,
      "size": 1,
      "price": "1011000000000000000000",
      "reserved": "",
      "salt": "0x24def5ecea90890771fe70465ce0abe541fd775980a70309b6101be59ea47185",
      "assetIds": []
    },
    {
      "x": 113,
      "y": 206,
      "size": 1,
      "price": "1011000000000000000000",
      "reserved": "",
      "salt": "0x94a3e64d8301d5b03d662757a2525c9867cc02f7d7b3d9aa404bd8f510f0e77b",
      "assetIds": []
    },
    {
      "x": 113,
      "y": 216,
      "size": 1,
      "price": "1011000000000000000000",
      "reserved": "",
      "salt": "0x91701a9e666630f6473e3ab6ad68d0376860ebb11ee03b4eb3a024707530d7fd",
      "assetIds": []
    },
    {
      "x": 113,
      "y": 217,
      "size": 1,
      "price": "1011000000000000000000",
      "reserved": "",
      "salt": "0xd3f8be8c3a3445450870692035ce61141b1c12936bf7e752820d3b4ccaa73492",
      "assetIds": []
    },
    {
      "x": 113,
      "y": 218,
      "size": 1,
      "price": "4683000000000000000000",
      "reserved": "",
      "salt": "0x81280898a4bd129f77db21d29abb79a13b1daacdd4191047ea89fad00c92c73f",
      "assetIds": []
    },
    {
      "x": 113,
      "y": 222,
      "size": 1,
      "price": "4683000000000000000000",
      "reserved": "",
      "salt": "0xac92afc702ce76cfc50b2681e937dc02e72de9b05b60bf9c194234947db1563c",
      "assetIds": []
    },
    {
      "x": 113,
      "y": 223,
      "size": 1,
      "price": "1011000000000000000000",
      "reserved": "",
      "salt": "0x650c40160c1e87fe2e7cc798f210223c6ba9ebfb4a53377869d66e48f8a05da7",
      "assetIds": []
    },
    {
      "x": 113,
      "y": 224,
      "size": 1,
      "price": "1011000000000000000000",
      "reserved": "",
      "salt": "0x928c177a7d9716a363b49a6781070dfdcf69186a188668ddd665396a4bc9ce91",
      "assetIds": []
    },
    {
      "x": 113,
      "y": 225,
      "size": 1,
      "price": "1011000000000000000000",
      "reserved": "",
      "salt": "0x9126e0f46072f9b7d76aa0f97658e3139b68cc7ba07a1ab18dc1f29069185a01",
      "assetIds": []
    },
    {
      "x": 113,
      "y": 226,
      "size": 1,
      "price": "1011000000000000000000",
      "reserved": "",
      "salt": "0x08de86493c796a2802c5f6349ee8fe9f71e96619633b1d7979a8ee11f1a2887b",
      "assetIds": []
    },
    {
      "x": 113,
      "y": 227,
      "size": 1,
      "price": "1011000000000000000000",
      "reserved": "",
      "salt": "0xe3625f7d85a775966f43ea37e32b04bd6d547e6f8e558da69b7ce70282821abe",
      "assetIds": []
    },
    {
      "x": 113,
      "y": 228,
      "size": 1,
      "price": "1011000000000000000000",
      "reserved": "",
      "salt": "0x4d19135219eb19c2d66f2c5212a94fd4fa2e90e63ddf1b8bfd124c034760d9e1",
      "assetIds": []
    },
    {
      "x": 113,
      "y": 229,
      "size": 1,
      "price": "1011000000000000000000",
      "reserved": "",
      "salt": "0x7f7e4a456631f114a16fa1b9730528b0f218538d0729956d2927f65f3e330b63",
      "assetIds": []
    },
    {
      "x": 113,
      "y": 230,
      "size": 1,
      "price": "1011000000000000000000",
      "reserved": "",
      "salt": "0xe512f6a4061b0c2a254a1efebc66af3f3087ef01fe3214c207f46785a89d7683",
      "assetIds": []
    },
    {
      "x": 113,
      "y": 231,
      "size": 1,
      "price": "1011000000000000000000",
      "reserved": "",
      "salt": "0xb21577865ad82dff3b7a0f62eedf0f82717cf42ae160368db2ce35acefc37878",
      "assetIds": []
    },
    {
      "x": 113,
      "y": 232,
      "size": 1,
      "price": "1011000000000000000000",
      "reserved": "",
      "salt": "0x15e4d8145f2e6d69cda946c6e6b8ac18f4c64c54f47675d668bc8c3a29dc6dde",
      "assetIds": []
    },
    {
      "x": 113,
      "y": 233,
      "size": 1,
      "price": "4683000000000000000000",
      "reserved": "",
      "salt": "0x363966e91af0700a1d665a7996634c4af897c2c7c7ef8d263d89e98b7e1d2135",
      "assetIds": []
    },
    {
      "x": 113,
      "y": 240,
      "size": 1,
      "price": "1011000000000000000000",
      "reserved": "",
      "salt": "0x78489e1437cbc5215acabb1517c539c7b611de5e389c355a9135fd14e924a7de",
      "assetIds": []
    },
    {
      "x": 113,
      "y": 241,
      "size": 1,
      "price": "1011000000000000000000",
      "reserved": "",
      "salt": "0xbb011661c23eeb679c33fdd6a79bc6bb609a548e9ee9760a24b69ec48d810c8e",
      "assetIds": []
    },
    {
      "x": 113,
      "y": 242,
      "size": 1,
      "price": "1011000000000000000000",
      "reserved": "",
      "salt": "0xdb48558c798d91535117d38a9832690193c04791d5088e0985945bbe68c15598",
      "assetIds": []
    },
    {
      "x": 114,
      "y": 201,
      "size": 1,
      "price": "1011000000000000000000",
      "reserved": "",
      "salt": "0x02c6c2d22a8d8af124ced22caf5f408d3afb0ede2f88829325d18cee9df62c26",
      "assetIds": []
    },
    {
      "x": 114,
      "y": 202,
      "size": 1,
      "price": "1011000000000000000000",
      "reserved": "",
      "salt": "0x08de10762e480feb7c2e9f24a224283f1b2ceb5610f621687c4f51c111e31e6e",
      "assetIds": []
    },
    {
      "x": 114,
      "y": 203,
      "size": 1,
      "price": "1011000000000000000000",
      "reserved": "",
      "salt": "0xa10500c22ee43f9b1016180f7ca4670396d88ac47f28dc30cad2afbf4ec2577e",
      "assetIds": []
    },
    {
      "x": 114,
      "y": 207,
      "size": 1,
      "price": "1011000000000000000000",
      "reserved": "",
      "salt": "0x0eba10dac046264dc139a9d37d672a3e0f3761e462753c1e6f70f31322dfab19",
      "assetIds": []
    },
    {
      "x": 114,
      "y": 208,
      "size": 1,
      "price": "1011000000000000000000",
      "reserved": "",
      "salt": "0x15723be97b1ecbc2e51508fabdf000e119342668bfdadc96248c1213d1a6b696",
      "assetIds": []
    },
    {
      "x": 114,
      "y": 209,
      "size": 1,
      "price": "1011000000000000000000",
      "reserved": "",
      "salt": "0x9b1d37efd0e5a42a4cb77b6180394029da1c0bb44345113ddd01149e160e837a",
      "assetIds": []
    },
    {
      "x": 114,
      "y": 210,
      "size": 1,
      "price": "1011000000000000000000",
      "reserved": "",
      "salt": "0xd85b62968d4a9d0815785c18e38522ab1b2292db666b0644d0aa92f6d6ab6b2c",
      "assetIds": []
    },
    {
      "x": 114,
      "y": 211,
      "size": 1,
      "price": "1011000000000000000000",
      "reserved": "",
      "salt": "0xb182befd4f5c7a1e13f17c61f8437432ef22347d55103008bebfb948641cb3f7",
      "assetIds": []
    },
    {
      "x": 114,
      "y": 212,
      "size": 1,
      "price": "1011000000000000000000",
      "reserved": "",
      "salt": "0x13684d92299348ff32b4189bb297b5559bbacacf729f41188d0e1d14c2adb015",
      "assetIds": []
    },
    {
      "x": 114,
      "y": 213,
      "size": 1,
      "price": "1011000000000000000000",
      "reserved": "",
      "salt": "0x299af13af394f2785fad217a28eec7efce88a36955b8520f35be532ebf8e4271",
      "assetIds": []
    },
    {
      "x": 114,
      "y": 214,
      "size": 1,
      "price": "1011000000000000000000",
      "reserved": "",
      "salt": "0x5a6dd0694bd6abde60e1ece7daae2727a22dc32c25acbe7a96f36c69f43782da",
      "assetIds": []
    },
    {
      "x": 114,
      "y": 215,
      "size": 1,
      "price": "1011000000000000000000",
      "reserved": "",
      "salt": "0xc536bfaca558edb839fa60faaa3f6e66fc9c2d83368de8b1d7b6f011c6342f65",
      "assetIds": []
    },
    {
      "x": 114,
      "y": 216,
      "size": 1,
      "price": "1011000000000000000000",
      "reserved": "",
      "salt": "0x6b96b8529a99c123646e33cc01ffd9c80b6780f99f866c4f34abad5eed0561b2",
      "assetIds": []
    },
    {
      "x": 114,
      "y": 217,
      "size": 1,
      "price": "1011000000000000000000",
      "reserved": "",
      "salt": "0x5a605ffd45dd96abe0a02be337a8f63844e7833b7dcd444accd3bcaacc867304",
      "assetIds": []
    },
    {
      "x": 114,
      "y": 218,
      "size": 1,
      "price": "1011000000000000000000",
      "reserved": "",
      "salt": "0xbe659ead6691692e6a6d7047a54964222bdb361a641cf56c28f3d6c337ceb6a9",
      "assetIds": []
    },
    {
      "x": 114,
      "y": 219,
      "size": 1,
      "price": "4683000000000000000000",
      "reserved": "",
      "salt": "0xa8834e3e4b8fc749f350248a3950333910448dfeffb0a4dae10b570667293d25",
      "assetIds": []
    },
    {
      "x": 114,
      "y": 220,
      "size": 1,
      "price": "4683000000000000000000",
      "reserved": "",
      "salt": "0xabf3c585f76270b00bd425a25ed52d9b54e88c1b73c7023fe73f2169079d2d80",
      "assetIds": []
    },
    {
      "x": 114,
      "y": 221,
      "size": 1,
      "price": "4683000000000000000000",
      "reserved": "",
      "salt": "0xe8d20d885739e7fbeee4834f58f12719a20a1fbb5356c81dbc8be415185e9abe",
      "assetIds": []
    },
    {
      "x": 114,
      "y": 228,
      "size": 1,
      "price": "1011000000000000000000",
      "reserved": "",
      "salt": "0x4f6f7a68b1637fc830522d2e25032b52923259cf60e2582fefb4fc51617bfe66",
      "assetIds": []
    },
    {
      "x": 114,
      "y": 229,
      "size": 1,
      "price": "1011000000000000000000",
      "reserved": "",
      "salt": "0xf02e9d1b3f615452d72be83b08adadde215efbf989ebaeb3cdc3f95f65f0b0ee",
      "assetIds": []
    },
    {
      "x": 114,
      "y": 230,
      "size": 1,
      "price": "1011000000000000000000",
      "reserved": "0x7a9fe22691c811ea339d9b73150e6911a5343dca",
      "salt": "0xfcbfa16b4408048d6fb2e28cbe37a257368c543bde2363fb7f3111073704260e",
      "assetIds": []
    },
    {
      "x": 114,
      "y": 231,
      "size": 1,
      "price": "1011000000000000000000",
      "reserved": "",
      "salt": "0xe623d04ceb6e5a4cc7e6e9190ea09e1c53646f00068b674d426484706f06722a",
      "assetIds": []
    },
    {
      "x": 114,
      "y": 232,
      "size": 1,
      "price": "1011000000000000000000",
      "reserved": "",
      "salt": "0xeb4b7ae631fdb98203393a461cddaab174f6892e054e856a57b786b9e64880f3",
      "assetIds": []
    },
    {
      "x": 114,
      "y": 233,
      "size": 1,
      "price": "4683000000000000000000",
      "reserved": "",
      "salt": "0x24ac19a75e35f5255ce7372e1420907c01f73b996e59bb1516a891e193652dbf",
      "assetIds": []
    },
    {
      "x": 114,
      "y": 234,
      "size": 1,
      "price": "4683000000000000000000",
      "reserved": "",
      "salt": "0x9be723fadcd2e1091557c5021096c0bbeb16f4167d3c94d7c7d748103f674ebb",
      "assetIds": []
    },
    {
      "x": 114,
      "y": 235,
      "size": 1,
      "price": "4683000000000000000000",
      "reserved": "",
      "salt": "0x8dab89e91c93f4a7be251052652e0387205cc10769324c7a8c0a17cffa7cb400",
      "assetIds": []
    },
    {
      "x": 114,
      "y": 236,
      "size": 1,
      "price": "4683000000000000000000",
      "reserved": "",
      "salt": "0xd60d16adc2acd5d4a0da51c339a54fbb12066f5ec53a140b5f5315522fc50dca",
      "assetIds": []
    },
    {
      "x": 114,
      "y": 237,
      "size": 1,
      "price": "1011000000000000000000",
      "reserved": "",
      "salt": "0xa20cde6037d8cc5a0885ff711966162cff85ccb6f223e73e9f8e718830c3a549",
      "assetIds": []
    },
    {
      "x": 114,
      "y": 238,
      "size": 1,
      "price": "1011000000000000000000",
      "reserved": "",
      "salt": "0x68e3019be39012d2daf6585f841cec5e14fa6da010c9fcb70230438632b02b7b",
      "assetIds": []
    },
    {
      "x": 114,
      "y": 239,
      "size": 1,
      "price": "1011000000000000000000",
      "reserved": "",
      "salt": "0x58c1cae1197bc46471407f4bb94dcbf2891f5d4a960c128c05392483710e6181",
      "assetIds": []
    },
    {
      "x": 114,
      "y": 240,
      "size": 1,
      "price": "1011000000000000000000",
      "reserved": "",
      "salt": "0x73b4288a1483303a4e266cd7dccb687fb4139162c99e8a4a3a854f442fffa2a2",
      "assetIds": []
    },
    {
      "x": 114,
      "y": 241,
      "size": 1,
      "price": "1011000000000000000000",
      "reserved": "",
      "salt": "0x68f81927d45ec1129133908682b8c6c8dee1dfbc8f2af15161683832cef72453",
      "assetIds": []
    },
    {
      "x": 114,
      "y": 242,
      "size": 1,
      "price": "1011000000000000000000",
      "reserved": "",
      "salt": "0xf2077150d75f3b48dad1a46b821a91052c53744a46395006d6fe07a8e6356b70",
      "assetIds": []
    },
    {
      "x": 115,
      "y": 201,
      "size": 1,
      "price": "1011000000000000000000",
      "reserved": "",
      "salt": "0x241cc1f0a899f467230b1de8fc479327b8671176422feefce3c0eed54fcd6c4e",
      "assetIds": []
    },
    {
      "x": 115,
      "y": 202,
      "size": 1,
      "price": "1011000000000000000000",
      "reserved": "",
      "salt": "0x42b23df57e63db0e2d7dfb5872479679de597a42c9a4724ec9bac594a605af4c",
      "assetIds": []
    },
    {
      "x": 115,
      "y": 203,
      "size": 1,
      "price": "1011000000000000000000",
      "reserved": "0x7a9fe22691c811ea339d9b73150e6911a5343dca",
      "salt": "0x3258b2390b206c3d0669792ebf2d5b6283cb17fa02224c5d228e04c954cb62a0",
      "assetIds": []
    },
    {
      "x": 115,
      "y": 207,
      "size": 1,
      "price": "1011000000000000000000",
      "reserved": "",
      "salt": "0x4de42e517e8c7794980874aa53bda6a1eaa65c7e97ce376e2aef879fc3c15b14",
      "assetIds": []
    },
    {
      "x": 115,
      "y": 208,
      "size": 1,
      "price": "1011000000000000000000",
      "reserved": "",
      "salt": "0x9684856d8e34c16a6797a9e80ce29bf2b691292fea478948a85798d2e95fa5f4",
      "assetIds": []
    },
    {
      "x": 115,
      "y": 209,
      "size": 1,
      "price": "1011000000000000000000",
      "reserved": "",
      "salt": "0xc1da362ba9a571f2ae0d65a1c49bfb1869f3327ebfe66e5723c7bfca795f9b51",
      "assetIds": []
    },
    {
      "x": 115,
      "y": 210,
      "size": 1,
      "price": "1011000000000000000000",
      "reserved": "",
      "salt": "0x5482c735770bbeacb628c8f0225fb9ed55f0367e7c4bcec6787e0bbbe6b2b1f4",
      "assetIds": []
    },
    {
      "x": 115,
      "y": 211,
      "size": 1,
      "price": "1011000000000000000000",
      "reserved": "",
      "salt": "0xc2131638f6794c5359fb3434b9499a0dbef68f849b9d2924be5d39456fa05bc2",
      "assetIds": []
    },
    {
      "x": 115,
      "y": 212,
      "size": 1,
      "price": "1011000000000000000000",
      "reserved": "",
      "salt": "0xb9da40c01830dd5059d1b3a359282b64819bcf5469bebbf7c99e21930adb74d4",
      "assetIds": []
    },
    {
      "x": 115,
      "y": 213,
      "size": 1,
      "price": "1011000000000000000000",
      "reserved": "",
      "salt": "0xa96d659f111fc9018fc8a8e0c3abaf75e84140fcc2a4fda8bd42b555a085a382",
      "assetIds": []
    },
    {
      "x": 115,
      "y": 214,
      "size": 1,
      "price": "1011000000000000000000",
      "reserved": "",
      "salt": "0x436cdd185f244c78b8c421e9e48c403b0eb1fa124974f4ed1c24a37e9e7675a6",
      "assetIds": []
    },
    {
      "x": 115,
      "y": 215,
      "size": 1,
      "price": "1011000000000000000000",
      "reserved": "",
      "salt": "0xa91a1fac7a4f4381941507f289833fe7f5c1e1b5e41b383fd58e2769ac713057",
      "assetIds": []
    },
    {
      "x": 115,
      "y": 216,
      "size": 1,
      "price": "1011000000000000000000",
      "reserved": "",
      "salt": "0xd0a6390e3a6c9568cefe361c5b57f55b7b53dab8d05a8edfb6da160f3c0570ca",
      "assetIds": []
    },
    {
      "x": 115,
      "y": 217,
      "size": 1,
      "price": "1011000000000000000000",
      "reserved": "",
      "salt": "0x04f944dd68c34e9ac309764d248c0419dab96ad07b50d2b74655d82930dcced2",
      "assetIds": []
    },
    {
      "x": 115,
      "y": 218,
      "size": 1,
      "price": "1011000000000000000000",
      "reserved": "",
      "salt": "0x8f2776583a60ecd885f19b46f1fac5e6c6cdf2cacd6fa5cf3bcb321daf29dff4",
      "assetIds": []
    },
    {
      "x": 115,
      "y": 219,
      "size": 1,
      "price": "1011000000000000000000",
      "reserved": "",
      "salt": "0x1b1561b27197f36b9f4c80962d2c099391438d061de7457f11350a88c12abbd5",
      "assetIds": []
    },
    {
      "x": 115,
      "y": 220,
      "size": 1,
      "price": "1011000000000000000000",
      "reserved": "",
      "salt": "0xe5cb9136aa33a81a47198869f8ceac70b84e2ab813e418e3fdc0be9fa1ad96d0",
      "assetIds": []
    },
    {
      "x": 115,
      "y": 221,
      "size": 1,
      "price": "1011000000000000000000",
      "reserved": "",
      "salt": "0x144d4528575d5bdca8cabea870f4b5aa3e3fa7c839e2dd689158187ee49791c9",
      "assetIds": []
    },
    {
      "x": 115,
      "y": 228,
      "size": 1,
      "price": "1011000000000000000000",
      "reserved": "",
      "salt": "0x4fb7e03fc1a7bfc8cf0c52951860d69242422808ee5b2c9106bebde8fb48aee4",
      "assetIds": []
    },
    {
      "x": 115,
      "y": 229,
      "size": 1,
      "price": "1011000000000000000000",
      "reserved": "",
      "salt": "0x8b2fceb05b292dcdc9f4b369f09d1401df9b125fe7e5fce4c1feda8569166600",
      "assetIds": []
    },
    {
      "x": 115,
      "y": 230,
      "size": 1,
      "price": "1011000000000000000000",
      "reserved": "",
      "salt": "0x33604fec1ec01d0395fcf4289f46db5c544fd70a6ffd80b5eea4dd788c702c14",
      "assetIds": []
    },
    {
      "x": 115,
      "y": 231,
      "size": 1,
      "price": "1011000000000000000000",
      "reserved": "",
      "salt": "0x8923ae0f4deea45f2599966b61febf22582e7caa9440507fc1fb421430a405a0",
      "assetIds": []
    },
    {
      "x": 115,
      "y": 232,
      "size": 1,
      "price": "1011000000000000000000",
      "reserved": "",
      "salt": "0x417228be378e94a0d1c43c003a87d7880dfd45a516bad713c275d39a4f3aed47",
      "assetIds": []
    },
    {
      "x": 115,
      "y": 233,
      "size": 1,
      "price": "1011000000000000000000",
      "reserved": "",
      "salt": "0x288f6e55379517ea0e87028501d3be3b8799aaa0659aaea5e0a002c8328ffdca",
      "assetIds": []
    },
    {
      "x": 115,
      "y": 234,
      "size": 1,
      "price": "1011000000000000000000",
      "reserved": "",
      "salt": "0xfc3f0412da092b0294ab7d4b4cc4b7fe7f164894c97a563ae999154bada67217",
      "assetIds": []
    },
    {
      "x": 115,
      "y": 235,
      "size": 1,
      "price": "1011000000000000000000",
      "reserved": "",
      "salt": "0x737b3d7e26f358051376f78d269a7f5d507f4539df5225e01c67273e2ee9ab7f",
      "assetIds": []
    },
    {
      "x": 115,
      "y": 236,
      "size": 1,
      "price": "1011000000000000000000",
      "reserved": "",
      "salt": "0xf11885269d10ce01e1627d7c95c43be8967584835669b31bef3043c95912db87",
      "assetIds": []
    },
    {
      "x": 115,
      "y": 237,
      "size": 1,
      "price": "1011000000000000000000",
      "reserved": "",
      "salt": "0x0dc36ecfe919710ff8119face1c899ebbdf36ea6d316e4e694c534ffd8811c8a",
      "assetIds": []
    },
    {
      "x": 115,
      "y": 238,
      "size": 1,
      "price": "1011000000000000000000",
      "reserved": "",
      "salt": "0xebb0043a6bd445ac00c8c3d745b0833a432b63a253873f6cb163fab2ded63e7b",
      "assetIds": []
    },
    {
      "x": 115,
      "y": 239,
      "size": 1,
      "price": "1011000000000000000000",
      "reserved": "",
      "salt": "0xcc4112d1eba0d6fcdd6f99ae44632daefaeb9d5fc10c8e197ade1610a4ba6e1d",
      "assetIds": []
    },
    {
      "x": 115,
      "y": 240,
      "size": 1,
      "price": "1011000000000000000000",
      "reserved": "",
      "salt": "0x321b3568b60f905b2533cbd0be165c7a61b7d198083f632873dcf3c0191710fc",
      "assetIds": []
    },
    {
      "x": 115,
      "y": 241,
      "size": 1,
      "price": "1011000000000000000000",
      "reserved": "",
      "salt": "0xe6e1b3e3a876281693da8586d82addc5ee66b0fe615dc2accf359d33b5435552",
      "assetIds": []
    },
    {
      "x": 115,
      "y": 242,
      "size": 1,
      "price": "1011000000000000000000",
      "reserved": "",
      "salt": "0x5d18f3a9cc6032aaee639b93613bb431be6d54e295bbd01c2229efeed5cbe2ce",
      "assetIds": []
    },
    {
      "x": 116,
      "y": 201,
      "size": 1,
      "price": "1011000000000000000000",
      "reserved": "",
      "salt": "0x083c2590becd902ff4f33a1e566223612393e9867489ec52fcb4b6f650cd1846",
      "assetIds": []
    },
    {
      "x": 116,
      "y": 202,
      "size": 1,
      "price": "1011000000000000000000",
      "reserved": "",
      "salt": "0x8cc0ebf2055ea50528867e9d2713857cafd0104a0874461f06f70803fdd09081",
      "assetIds": []
    },
    {
      "x": 116,
      "y": 203,
      "size": 1,
      "price": "1011000000000000000000",
      "reserved": "",
      "salt": "0xb4af2f451f91cc4d4edb8923adeeab03f595b3b64470d18bb2e7bda3dd2881e5",
      "assetIds": []
    },
    {
      "x": 116,
      "y": 207,
      "size": 1,
      "price": "1011000000000000000000",
      "reserved": "",
      "salt": "0xab920685dc0c001f90c0ea31556dd741b386e3264596abac3e84492ef6da7cc8",
      "assetIds": []
    },
    {
      "x": 116,
      "y": 208,
      "size": 1,
      "price": "1011000000000000000000",
      "reserved": "",
      "salt": "0x73985145445fd074c7e1617cd981ed2a1d3affb4265bb84248e7fad8c3ee7091",
      "assetIds": []
    },
    {
      "x": 116,
      "y": 209,
      "size": 1,
      "price": "1011000000000000000000",
      "reserved": "",
      "salt": "0xf01c4a440d439483c5f50c5c2ddd4a26b7e8e02b350d986b366a9d49bcb62549",
      "assetIds": []
    },
    {
      "x": 116,
      "y": 210,
      "size": 1,
      "price": "1011000000000000000000",
      "reserved": "",
      "salt": "0xe5482a554d76bdef1fc03b210279706735f15629dd14757a8ad3550d8c312575",
      "assetIds": []
    },
    {
      "x": 116,
      "y": 211,
      "size": 1,
      "price": "1011000000000000000000",
      "reserved": "",
      "salt": "0x135bf05a308d879693ad2552eeb7e9fd44bed20e991ce67ee8c55d4de5c5cd7c",
      "assetIds": []
    },
    {
      "x": 116,
      "y": 212,
      "size": 1,
      "price": "1011000000000000000000",
      "reserved": "",
      "salt": "0x97aa6438942917a9f40496e259a7fd6d26ea082b6dcffcc5a467e5821bfe0527",
      "assetIds": []
    },
    {
      "x": 116,
      "y": 213,
      "size": 1,
      "price": "1011000000000000000000",
      "reserved": "",
      "salt": "0x8970ca9cbb28600125229715e7094b281e3fd87a6b01c56caa024e5a191abb13",
      "assetIds": []
    },
    {
      "x": 116,
      "y": 214,
      "size": 1,
      "price": "1011000000000000000000",
      "reserved": "",
      "salt": "0x7c3b5460145f382e9c7f2a7287ea64dd5fcb749526a7d8248894c1f31f00d287",
      "assetIds": []
    },
    {
      "x": 116,
      "y": 215,
      "size": 1,
      "price": "1011000000000000000000",
      "reserved": "",
      "salt": "0x6e5057707eebe7c7462176ca4d31c826feb449c62ee22cd943b03472200a929d",
      "assetIds": []
    },
    {
      "x": 116,
      "y": 216,
      "size": 1,
      "price": "1011000000000000000000",
      "reserved": "",
      "salt": "0xc54816e70f20e8fa2d683508a030b565501de843cbe5e9cecc249c1665c0cac2",
      "assetIds": []
    },
    {
      "x": 116,
      "y": 217,
      "size": 1,
      "price": "1011000000000000000000",
      "reserved": "",
      "salt": "0x40297285a771231a135d019529dd8342b4c057684617a6ec93d6eb76d3d92a77",
      "assetIds": []
    },
    {
      "x": 116,
      "y": 218,
      "size": 1,
      "price": "1011000000000000000000",
      "reserved": "",
      "salt": "0x27f7c5cdd97638928dd03228fb0cb3dd091fdaa71e1b26700e83390407f4cd39",
      "assetIds": []
    },
    {
      "x": 116,
      "y": 219,
      "size": 1,
      "price": "1011000000000000000000",
      "reserved": "",
      "salt": "0xfcdca16a3958ab10e5f1338378be0ffd82e395d27d58acb6164477fb7fe4d6c5",
      "assetIds": []
    },
    {
      "x": 116,
      "y": 220,
      "size": 1,
      "price": "1011000000000000000000",
      "reserved": "",
      "salt": "0x0448765fd0fd4ba0ebc11d1681c3b1dc22fd3bf477f304594615330d5eaadce3",
      "assetIds": []
    },
    {
      "x": 116,
      "y": 221,
      "size": 1,
      "price": "1011000000000000000000",
      "reserved": "",
      "salt": "0xc7e9379c05a61201dfad236065c3aadcd1e6bd1924b9e722f368770e281997f7",
      "assetIds": []
    },
    {
      "x": 116,
      "y": 228,
      "size": 1,
      "price": "1011000000000000000000",
      "reserved": "",
      "salt": "0xc788470522c07db31365bcef88943a7db6b0b2be838611eaaaa3e3d6bd17dfdc",
      "assetIds": []
    },
    {
      "x": 116,
      "y": 229,
      "size": 1,
      "price": "1011000000000000000000",
      "reserved": "",
      "salt": "0x56684a1ff0165acca5584721c2434f7f4a5311deedb9a78f0864987a4bf88fae",
      "assetIds": []
    },
    {
      "x": 116,
      "y": 230,
      "size": 1,
      "price": "1011000000000000000000",
      "reserved": "",
      "salt": "0xbae2bb76195586f848307fb367da6704435cfdbd170979de3fa69f7eacf07110",
      "assetIds": []
    },
    {
      "x": 116,
      "y": 231,
      "size": 1,
      "price": "1011000000000000000000",
      "reserved": "",
      "salt": "0xa07adc84b69966bbc517e29b0f6b4764ced26ac24038c78feb51ef71942bc773",
      "assetIds": []
    },
    {
      "x": 116,
      "y": 232,
      "size": 1,
      "price": "1011000000000000000000",
      "reserved": "",
      "salt": "0xfeca438dc7983375814653420f4016019d7a5b1759f953ee0b3a4fafd8c4e540",
      "assetIds": []
    },
    {
      "x": 116,
      "y": 233,
      "size": 1,
      "price": "1011000000000000000000",
      "reserved": "",
      "salt": "0x0b5d27b1df09c7ed35ee71dea4e28908684852031773a41aeb598f78565280d8",
      "assetIds": []
    },
    {
      "x": 116,
      "y": 234,
      "size": 1,
      "price": "1011000000000000000000",
      "reserved": "",
      "salt": "0x849415e250f1c4a34576e2f2bf23646b273c0459c7751d2ab1b7524f1ccf8742",
      "assetIds": []
    },
    {
      "x": 116,
      "y": 235,
      "size": 1,
      "price": "1011000000000000000000",
      "reserved": "",
      "salt": "0xa06103aa19993df9aee817b3dfd6fc7cdd5e96c8a2466a8677fd89338f702f6f",
      "assetIds": []
    },
    {
      "x": 116,
      "y": 236,
      "size": 1,
      "price": "1011000000000000000000",
      "reserved": "0x7a9fe22691c811ea339d9b73150e6911a5343dca",
      "salt": "0xac411e6aaca3d643860bee0a3de38b914baab75d822b8d72258defcf18c138b1",
      "assetIds": []
    },
    {
      "x": 116,
      "y": 237,
      "size": 1,
      "price": "1011000000000000000000",
      "reserved": "",
      "salt": "0xd04a44452c75ed3103aaf1445ecb6cb99d936146b4e6b44205e88e6462792d8a",
      "assetIds": []
    },
    {
      "x": 116,
      "y": 238,
      "size": 1,
      "price": "1011000000000000000000",
      "reserved": "",
      "salt": "0x9cd260b8e5cbcc0882cab4c59639f2f5e5afeccdd57d945676a9e4eabdd59bf0",
      "assetIds": []
    },
    {
      "x": 116,
      "y": 239,
      "size": 1,
      "price": "1011000000000000000000",
      "reserved": "",
      "salt": "0xe98b25d68128c94db8ceb2095b98ad67e347dd911f420b55a857209ff2f5f4b0",
      "assetIds": []
    },
    {
      "x": 116,
      "y": 240,
      "size": 1,
      "price": "1011000000000000000000",
      "reserved": "0x7a9fe22691c811ea339d9b73150e6911a5343dca",
      "salt": "0xb5ba36db2ba074271bd28b62850031b90a0609ac1e5463428bfb2d3bcb1e452b",
      "assetIds": []
    },
    {
      "x": 116,
      "y": 241,
      "size": 1,
      "price": "1011000000000000000000",
      "reserved": "",
      "salt": "0xe3eac7bac816cb9890538c4b2bec77590180dfb9dca2331dc9755f105b3e6747",
      "assetIds": []
    },
    {
      "x": 116,
      "y": 242,
      "size": 1,
      "price": "1011000000000000000000",
      "reserved": "",
      "salt": "0x25b391b89a21e5c06a9c52680e455f3a890b20ac58d038aa6c4704ce92cef6d7",
      "assetIds": []
    },
    {
      "x": 117,
      "y": 204,
      "size": 1,
      "price": "1011000000000000000000",
      "reserved": "",
      "salt": "0x48a76542bde6aa6eba9b836cf3bae8b6b8376e0114c015c94373d2283a49a88a",
      "assetIds": []
    },
    {
      "x": 117,
      "y": 205,
      "size": 1,
      "price": "1011000000000000000000",
      "reserved": "",
      "salt": "0xf95459d187027234a5d61e74cd9175dbebfc594da77f2fe7b1030ea7880433ae",
      "assetIds": []
    },
    {
      "x": 117,
      "y": 206,
      "size": 1,
      "price": "1011000000000000000000",
      "reserved": "",
      "salt": "0xf9c4b8eafb07ca426acdb00089856303a16f797c1824ed2b44d5f857b6b83889",
      "assetIds": []
    },
    {
      "x": 117,
      "y": 207,
      "size": 1,
      "price": "1011000000000000000000",
      "reserved": "",
      "salt": "0xe50fb50948a9962f04186c9c85a241ba9bbf35378a07435f00091152733403cf",
      "assetIds": []
    },
    {
      "x": 117,
      "y": 208,
      "size": 1,
      "price": "1011000000000000000000",
      "reserved": "",
      "salt": "0x4ae1c068f26d3617adb9eba64cfcba63f6c9a175d18d73dc23857c23d7c52414",
      "assetIds": []
    },
    {
      "x": 117,
      "y": 209,
      "size": 1,
      "price": "1011000000000000000000",
      "reserved": "",
      "salt": "0xa14576080fec8b123d8bcafa21c7c626a78dbed69d8b720686bb81557cab056f",
      "assetIds": []
    },
    {
      "x": 117,
      "y": 216,
      "size": 1,
      "price": "1011000000000000000000",
      "reserved": "",
      "salt": "0x7303219633a713ab33938764238f0c2fda77e0c47b32322c47e97863cd27d18d",
      "assetIds": []
    },
    {
      "x": 117,
      "y": 217,
      "size": 1,
      "price": "1011000000000000000000",
      "reserved": "",
      "salt": "0xe7cc1492ebce19dd33f5b41b276a3e6293272604e7cd59d6d1ab9fc83d104f7c",
      "assetIds": []
    },
    {
      "x": 117,
      "y": 218,
      "size": 1,
      "price": "1011000000000000000000",
      "reserved": "",
      "salt": "0x1adcbd4eabd03ba26003bb72c1a69e98cf692e61ab07c9bf4b3c159a693be52b",
      "assetIds": []
    },
    {
      "x": 117,
      "y": 219,
      "size": 1,
      "price": "1011000000000000000000",
      "reserved": "",
      "salt": "0xc3780baf7de1f53c2e96bdcab321fc1bf7f1084c447f2482ce507d6f7b38188b",
      "assetIds": []
    },
    {
      "x": 117,
      "y": 220,
      "size": 1,
      "price": "1011000000000000000000",
      "reserved": "0x7a9fe22691c811ea339d9b73150e6911a5343dca",
      "salt": "0xc30473f8674d55613883027f5660d9cf4559163d8d4429f9f953906c1cff2b7e",
      "assetIds": []
    },
    {
      "x": 117,
      "y": 221,
      "size": 1,
      "price": "1011000000000000000000",
      "reserved": "",
      "salt": "0x330dd9f1fd2323aae49cc7046ebb9fa77e7712659f477a4caab6cd4773c821cc",
      "assetIds": []
    },
    {
      "x": 117,
      "y": 228,
      "size": 1,
      "price": "1011000000000000000000",
      "reserved": "",
      "salt": "0x6a47d16ebba4afc3e65691bc6de85e94393eab4ac5ab03e1ea1bd33b0f46e69e",
      "assetIds": []
    },
    {
      "x": 117,
      "y": 229,
      "size": 1,
      "price": "1011000000000000000000",
      "reserved": "",
      "salt": "0x4ec87fc314eb5ba14da262d5a3b13e7eef9e3114d721821d46744c13648672e6",
      "assetIds": []
    },
    {
      "x": 117,
      "y": 230,
      "size": 1,
      "price": "1011000000000000000000",
      "reserved": "",
      "salt": "0xfca644452405581385b94d5834235152d57c2da93283ff28d37b29fa306ae6de",
      "assetIds": []
    },
    {
      "x": 117,
      "y": 234,
      "size": 1,
      "price": "1011000000000000000000",
      "reserved": "",
      "salt": "0x4bcac4b4db98c1dea6be33448171a1322f90d375f41aba2e40812e617b83381f",
      "assetIds": []
    },
    {
      "x": 117,
      "y": 235,
      "size": 1,
      "price": "1011000000000000000000",
      "reserved": "",
      "salt": "0xce6e60748b3db5669db1d45f717c07bd5861d108d829da872b8437d2a0dcf2ae",
      "assetIds": []
    },
    {
      "x": 117,
      "y": 236,
      "size": 1,
      "price": "1011000000000000000000",
      "reserved": "",
      "salt": "0xe947af523fe56a8e0b34984087c39ea0499d449cce603641d2620e38f0e92de2",
      "assetIds": []
    },
    {
      "x": 117,
      "y": 237,
      "size": 1,
      "price": "1011000000000000000000",
      "reserved": "",
      "salt": "0x15f2f2ba89f215d9fdbbfb551850fc1cd1fd410016c28625d8377b9dbab73c57",
      "assetIds": []
    },
    {
      "x": 117,
      "y": 238,
      "size": 1,
      "price": "1011000000000000000000",
      "reserved": "",
      "salt": "0xd789ac731dde1765d8189b239b0ba8eb0597e4f2fec4cb54806e90aec00bde1b",
      "assetIds": []
    },
    {
      "x": 117,
      "y": 239,
      "size": 1,
      "price": "1011000000000000000000",
      "reserved": "",
      "salt": "0x680bb3017539fd58413dd70fa4843177d78671964870dafb8572b2e58da102b8",
      "assetIds": []
    },
    {
      "x": 117,
      "y": 240,
      "size": 1,
      "price": "1011000000000000000000",
      "reserved": "",
      "salt": "0x57486bdec31569f611d9c471fc73af9819166489b9d881e88628e2bbd5d47a82",
      "assetIds": []
    },
    {
      "x": 117,
      "y": 241,
      "size": 1,
      "price": "1011000000000000000000",
      "reserved": "",
      "salt": "0x3b82607a5830c114da70e8d6236c797096427dc3006a1e334f359e4a76d92ad2",
      "assetIds": []
    },
    {
      "x": 117,
      "y": 242,
      "size": 1,
      "price": "1011000000000000000000",
      "reserved": "",
      "salt": "0x417ddf1cf91bdfbb0b32e652d8ae826f48834fbf3e0573b5b24cdf981d58a03b",
      "assetIds": []
    },
    {
      "x": 118,
      "y": 204,
      "size": 1,
      "price": "1011000000000000000000",
      "reserved": "",
      "salt": "0x14050e0794650021ee836bcda145ad8b8169d326beed75486aa0bed1c51cc74a",
      "assetIds": []
    },
    {
      "x": 118,
      "y": 205,
      "size": 1,
      "price": "1011000000000000000000",
      "reserved": "",
      "salt": "0x7b82b361e96c4eaa068a0e0e31b80608831a54d57cd7fac9368683f1335a73f2",
      "assetIds": []
    },
    {
      "x": 118,
      "y": 206,
      "size": 1,
      "price": "1011000000000000000000",
      "reserved": "",
      "salt": "0x00970ddb4da27a878ac50ee712b04b60aab2bddc3f03e1cda49be0cd4c637cc0",
      "assetIds": []
    },
    {
      "x": 118,
      "y": 207,
      "size": 1,
      "price": "1011000000000000000000",
      "reserved": "",
      "salt": "0x483414aeaed84effaf9d006cbbf044bb3bcd68e92be5837375e01aa5918d602f",
      "assetIds": []
    },
    {
      "x": 118,
      "y": 208,
      "size": 1,
      "price": "1011000000000000000000",
      "reserved": "",
      "salt": "0x5055f49f001aa5580edeb544739d218e7136e300bd1fa5d73fcfe2e80aa45a67",
      "assetIds": []
    },
    {
      "x": 118,
      "y": 209,
      "size": 1,
      "price": "1011000000000000000000",
      "reserved": "",
      "salt": "0x9d85d228cd096487dda20052243e54515c3bc920c41bdfb9520f54d21b447421",
      "assetIds": []
    },
    {
      "x": 118,
      "y": 216,
      "size": 1,
      "price": "1011000000000000000000",
      "reserved": "",
      "salt": "0x964aa9fa1672f2dab241dda6f5998195616daf01f9b278814706a8e0a8cc700a",
      "assetIds": []
    },
    {
      "x": 118,
      "y": 217,
      "size": 1,
      "price": "1011000000000000000000",
      "reserved": "",
      "salt": "0xc6c66e681e5441a4d543f31e008034503548128b1242888a61275e9454b6aa89",
      "assetIds": []
    },
    {
      "x": 118,
      "y": 218,
      "size": 1,
      "price": "1011000000000000000000",
      "reserved": "",
      "salt": "0xed0be16b6ba29e4c0baf982ad48cb1b4678759231239e90e12eb3c89326618b4",
      "assetIds": []
    },
    {
      "x": 118,
      "y": 219,
      "size": 1,
      "price": "1011000000000000000000",
      "reserved": "",
      "salt": "0x4fec9dd01d4fdec834ea31caf003cc879bcc771472f78d99810dfbea2d9b8df2",
      "assetIds": []
    },
    {
      "x": 118,
      "y": 220,
      "size": 1,
      "price": "1011000000000000000000",
      "reserved": "",
      "salt": "0x21b653757689ff67d870fe04159b6ea41ae7a37108e43d066a4ad5afec4c7eff",
      "assetIds": []
    },
    {
      "x": 118,
      "y": 221,
      "size": 1,
      "price": "1011000000000000000000",
      "reserved": "",
      "salt": "0x5fe4fb05392e62988c9d3541c7715736628054893b6c817cd41c243afd3d9c4e",
      "assetIds": []
    },
    {
      "x": 118,
      "y": 228,
      "size": 1,
      "price": "1011000000000000000000",
      "reserved": "",
      "salt": "0xdb2eae92a884b5b986f29113363a867350d4a4aca412d439d0121c7323049792",
      "assetIds": []
    },
    {
      "x": 118,
      "y": 229,
      "size": 1,
      "price": "1011000000000000000000",
      "reserved": "",
      "salt": "0xc8733373e01c956c5c224efa2eecd8d68a6a73eea548965af65f7d7460af6d9e",
      "assetIds": []
    },
    {
      "x": 118,
      "y": 230,
      "size": 1,
      "price": "1011000000000000000000",
      "reserved": "",
      "salt": "0x020fd6dcd00fba2b97407043f2b4ebf02c30e8e741e89a324f4bd529ce429ed3",
      "assetIds": []
    },
    {
      "x": 118,
      "y": 234,
      "size": 1,
      "price": "1011000000000000000000",
      "reserved": "",
      "salt": "0xb702fbdf25bf4597c2d48df880725b1ccc65df2e5485f98aaadbc4cd068dfb55",
      "assetIds": []
    },
    {
      "x": 118,
      "y": 235,
      "size": 1,
      "price": "1011000000000000000000",
      "reserved": "",
      "salt": "0xa6d80fe20a48de41233acbcb874ccb2844842a55008d85014cea340c86a07cfa",
      "assetIds": []
    },
    {
      "x": 118,
      "y": 236,
      "size": 1,
      "price": "1011000000000000000000",
      "reserved": "",
      "salt": "0x4b3b40f62a4fce6541b44bb4471929eb355f33d35ded2102630e7804b333b3ff",
      "assetIds": []
    },
    {
      "x": 118,
      "y": 237,
      "size": 1,
      "price": "1011000000000000000000",
      "reserved": "",
      "salt": "0x4ed3e47db0f1916fbad7ca45f229326fb8e6c37ef4e2c99b706314eba1438aa3",
      "assetIds": []
    },
    {
      "x": 118,
      "y": 238,
      "size": 1,
      "price": "1011000000000000000000",
      "reserved": "",
      "salt": "0xf97781ab8f46199864748f7f75d2038a8d48ad04030c61b1f6656d1696e496ed",
      "assetIds": []
    },
    {
      "x": 118,
      "y": 239,
      "size": 1,
      "price": "1011000000000000000000",
      "reserved": "",
      "salt": "0x4a9a28d73304c38d89a9465a9c02e04b3e1eb9c81e8f2fc9209d68ce40ede133",
      "assetIds": []
    },
    {
      "x": 118,
      "y": 240,
      "size": 1,
      "price": "1011000000000000000000",
      "reserved": "",
      "salt": "0x9dd24073b6caf57019f809078d0dfcb0be877ed9f37aa76b273e0ad8ed9f4e89",
      "assetIds": []
    },
    {
      "x": 118,
      "y": 241,
      "size": 1,
      "price": "1011000000000000000000",
      "reserved": "",
      "salt": "0xc6a5089bc756e88f21a542d8c299cbe2d0a11256001a1af39eca74657cf8d2bf",
      "assetIds": []
    },
    {
      "x": 118,
      "y": 242,
      "size": 1,
      "price": "1011000000000000000000",
      "reserved": "",
      "salt": "0xd0413ed30d5e86c67e4fc8456b94262913a723ece94aa7dda48b7f24bee0322d",
      "assetIds": []
    },
    {
      "x": 119,
      "y": 204,
      "size": 1,
      "price": "1011000000000000000000",
      "reserved": "",
      "salt": "0xbeceee810d637783751b1a91bc0f452f1c9e005452353da5cc097c8d00927ae2",
      "assetIds": []
    },
    {
      "x": 119,
      "y": 205,
      "size": 1,
      "price": "1011000000000000000000",
      "reserved": "",
      "salt": "0x41445d5c91ee1de9bab8bdf1fa3d0fae707015e512599723e74bb3156d4a73a7",
      "assetIds": []
    },
    {
      "x": 119,
      "y": 206,
      "size": 1,
      "price": "1011000000000000000000",
      "reserved": "",
      "salt": "0x9ea53d726b5f4193f56d95837e36d4ab211ef9f6800da7dd0ed7a8def119396b",
      "assetIds": []
    },
    {
      "x": 119,
      "y": 207,
      "size": 1,
      "price": "1011000000000000000000",
      "reserved": "",
      "salt": "0x7d6953f7d57bab51c71e7f04a9a490a5352d0592181721dc41ca3f1678f69411",
      "assetIds": []
    },
    {
      "x": 119,
      "y": 208,
      "size": 1,
      "price": "1011000000000000000000",
      "reserved": "",
      "salt": "0xe4eadda55ed9a9e48c71570bceb5f33efdd322338f8b3a008fbfd2d9c1acfb4d",
      "assetIds": []
    },
    {
      "x": 119,
      "y": 209,
      "size": 1,
      "price": "1011000000000000000000",
      "reserved": "",
      "salt": "0xb2e309603533c28f1df3404d2da58ca8cddc2a1179110f7b191db671aa951da1",
      "assetIds": []
    },
    {
      "x": 119,
      "y": 216,
      "size": 1,
      "price": "4683000000000000000000",
      "reserved": "",
      "salt": "0xfbe6197120f75a95cbc5def2e69bd411c5549fa24585a6a46779b70b393bb12c",
      "assetIds": []
    },
    {
      "x": 119,
      "y": 217,
      "size": 1,
      "price": "4683000000000000000000",
      "reserved": "",
      "salt": "0xc6d037970565900b340fed9a19c373264b3c9e2f93319abeee629903f1a20cec",
      "assetIds": []
    },
    {
      "x": 119,
      "y": 218,
      "size": 1,
      "price": "4683000000000000000000",
      "reserved": "",
      "salt": "0x6beb983845f4f58c938f26bdc46183d9017cc36b79e8712078e2ea3ce8ace358",
      "assetIds": []
    },
    {
      "x": 119,
      "y": 219,
      "size": 1,
      "price": "4683000000000000000000",
      "reserved": "",
      "salt": "0x9e6f15f243e9774bbb6d596bc7e3c1ab4a865f29409cc9e9f84d762ca64b9e1e",
      "assetIds": []
    },
    {
      "x": 119,
      "y": 220,
      "size": 1,
      "price": "4683000000000000000000",
      "reserved": "",
      "salt": "0xfdacabf660811678055d75025f7e1435a342231d60e72bf03e2879a5b05263f8",
      "assetIds": []
    },
    {
      "x": 119,
      "y": 221,
      "size": 1,
      "price": "4683000000000000000000",
      "reserved": "",
      "salt": "0x782cc039b0c31c43754351b64dd6c506294546c7595e080c9694a17098cbd84c",
      "assetIds": []
    },
    {
      "x": 119,
      "y": 228,
      "size": 1,
      "price": "4683000000000000000000",
      "reserved": "",
      "salt": "0xbcf4d1b47aee7b998d09c2a960c63da283679aa0ec56b36186a0507a76fb3754",
      "assetIds": []
    },
    {
      "x": 119,
      "y": 229,
      "size": 1,
      "price": "4683000000000000000000",
      "reserved": "",
      "salt": "0x14c11e3584ccb30177a51236b6492c1b5aace9fcb7ab4e048a351074959b018f",
      "assetIds": []
    },
    {
      "x": 119,
      "y": 230,
      "size": 1,
      "price": "4683000000000000000000",
      "reserved": "",
      "salt": "0x2a6ad6e791b11fdcfb7dec3c295d5dad89d556cff35270bc70739fbb3c4ee1ee",
      "assetIds": []
    },
    {
      "x": 119,
      "y": 234,
      "size": 1,
      "price": "4683000000000000000000",
      "reserved": "",
      "salt": "0x52ceda71289baf8328f8323ca5b6021e4aeb5892dcfadf6abbaeb7b3ab550f35",
      "assetIds": []
    },
    {
      "x": 119,
      "y": 235,
      "size": 1,
      "price": "4683000000000000000000",
      "reserved": "",
      "salt": "0xf9feff177e17b8d0334f4518d8877cf7108cd48254b50522be9f3af1c5745377",
      "assetIds": []
    },
    {
      "x": 119,
      "y": 236,
      "size": 1,
      "price": "1011000000000000000000",
      "reserved": "0x7a9fe22691c811ea339d9b73150e6911a5343dca",
      "salt": "0x32b6eadd9ac802e50d5f2036ac4ab2e3cadbe90cd3954ff20782c165367e2a2c",
      "assetIds": []
    },
    {
      "x": 119,
      "y": 237,
      "size": 1,
      "price": "4683000000000000000000",
      "reserved": "",
      "salt": "0x04034f8d480be0429340b5dbefaaf2ad96e94e1801e0903a06de112a56ae4b56",
      "assetIds": []
    },
    {
      "x": 119,
      "y": 238,
      "size": 1,
      "price": "4683000000000000000000",
      "reserved": "",
      "salt": "0x11d68c7e568c946d269ca76264ea4bc2054e67d41482bea59840e266293ae9ce",
      "assetIds": []
    },
    {
      "x": 119,
      "y": 239,
      "size": 1,
      "price": "4683000000000000000000",
      "reserved": "",
      "salt": "0xe57e755019324069fecf0afd0aad5d600f0850bae6f9f55ea677e9388e79be43",
      "assetIds": []
    },
    {
      "x": 119,
      "y": 240,
      "size": 1,
      "price": "1011000000000000000000",
      "reserved": "",
      "salt": "0x4c7c607e305a95cf2a389fbb541c6f007f8a89c860c12becc895d8756ce1efac",
      "assetIds": []
    },
    {
      "x": 119,
      "y": 241,
      "size": 1,
      "price": "1011000000000000000000",
      "reserved": "",
      "salt": "0x4f728017417ad461440d3c240ae1b75d8ea6ef782d769b91faa9a50bca528f02",
      "assetIds": []
    },
    {
      "x": 119,
      "y": 242,
      "size": 1,
      "price": "1011000000000000000000",
      "reserved": "",
      "salt": "0xa1c8b3204ca4832eb06d97296adeb52c8cb2e634ab01caf8dd0ba9f470c88033",
      "assetIds": []
    },
    {
      "x": 120,
      "y": 201,
      "size": 1,
      "price": "1011000000000000000000",
      "reserved": "",
      "salt": "0x00d46fceac6ece16b1ddca494519cefd6fe8648bfbfcb6aea8c2861035c002b4",
      "assetIds": []
    },
    {
      "x": 120,
      "y": 202,
      "size": 1,
      "price": "1011000000000000000000",
      "reserved": "",
      "salt": "0x187e4039c72915450306cc408ea47f95fda792d0bea3c5983b0b2ac5da74b91f",
      "assetIds": []
    },
    {
      "x": 120,
      "y": 203,
      "size": 1,
      "price": "1011000000000000000000",
      "reserved": "",
      "salt": "0xa5f3d4e5348c99303d30d45c95cafb944d7a5c12f3a4cc2fbdc63fd2315e1a01",
      "assetIds": []
    },
    {
      "x": 120,
      "y": 204,
      "size": 1,
      "price": "1011000000000000000000",
      "reserved": "",
      "salt": "0x05d35149508a8de36a469093ebee6dc5f18c1809882e1b989babe1a12697b7de",
      "assetIds": []
    },
    {
      "x": 120,
      "y": 205,
      "size": 1,
      "price": "1011000000000000000000",
      "reserved": "",
      "salt": "0x71fe80315613a047b1d41cefb08dc6dc73aada7042a6e3314fa27476a1cdda03",
      "assetIds": []
    },
    {
      "x": 120,
      "y": 206,
      "size": 1,
      "price": "1011000000000000000000",
      "reserved": "",
      "salt": "0x801760734dda301ccc87306473f766e4b19387df5b92cb9fd8959aae39c6bffa",
      "assetIds": []
    },
    {
      "x": 120,
      "y": 210,
      "size": 1,
      "price": "1011000000000000000000",
      "reserved": "",
      "salt": "0xa1d5eeb6433f80c366a34edfa9518dd120ae3998b8ecde7a07feaade24370884",
      "assetIds": []
    },
    {
      "x": 120,
      "y": 211,
      "size": 1,
      "price": "1011000000000000000000",
      "reserved": "",
      "salt": "0xc28cc17a9bfbfc81e2377fdba1b79d54f141ab7e606d50ac62b72eb4d33816d6",
      "assetIds": []
    },
    {
      "x": 120,
      "y": 212,
      "size": 1,
      "price": "1011000000000000000000",
      "reserved": "",
      "salt": "0x941e1d580e8760bfb4b79efcaae298dd3ade0f4e1d99039275c368e4e1b72553",
      "assetIds": []
    },
    {
      "x": 120,
      "y": 213,
      "size": 1,
      "price": "1011000000000000000000",
      "reserved": "",
      "salt": "0x458752d293144ba2efca44a5ab83bd96ce6ee8b300365b06abab42336c0422d9",
      "assetIds": []
    },
    {
      "x": 120,
      "y": 214,
      "size": 1,
      "price": "1011000000000000000000",
      "reserved": "",
      "salt": "0xa267229e722a74afe557760caf6aac9432aad155ad00e41ef0036edc6a9a4a99",
      "assetIds": []
    },
    {
      "x": 120,
      "y": 215,
      "size": 1,
      "price": "4683000000000000000000",
      "reserved": "",
      "salt": "0xed798e2f1648693b3afd2e1d9347c9bf118ba70dcb4007f9b6f30d69a1d83689",
      "assetIds": []
    },
    {
      "x": 121,
      "y": 201,
      "size": 1,
      "price": "1011000000000000000000",
      "reserved": "",
      "salt": "0x583a4fa61245308e8de166556909810e041a3b441398cd784d7acc7c43a3b24c",
      "assetIds": []
    },
    {
      "x": 121,
      "y": 202,
      "size": 1,
      "price": "1011000000000000000000",
      "reserved": "",
      "salt": "0xc6a2763eb0b46f5b1993099c6c59be084562bad8194bcee1854e85230f2a7ce8",
      "assetIds": []
    },
    {
      "x": 121,
      "y": 203,
      "size": 1,
      "price": "1011000000000000000000",
      "reserved": "",
      "salt": "0xba01b741cdc0d2580133daa7e5d866bf61b8f6355287ea514020d71812e2549f",
      "assetIds": []
    },
    {
      "x": 121,
      "y": 204,
      "size": 1,
      "price": "1011000000000000000000",
      "reserved": "",
      "salt": "0xe5b754bafd19e81a0b8f2771891fb49d319cf1ff3d7d917c18b1a28a5e39a594",
      "assetIds": []
    },
    {
      "x": 121,
      "y": 205,
      "size": 1,
      "price": "1011000000000000000000",
      "reserved": "",
      "salt": "0x3d586ecffad600bc0dd4e656c1828c971c561027e9a3a91e0c9e099a7bd1e8a9",
      "assetIds": []
    },
    {
      "x": 121,
      "y": 206,
      "size": 1,
      "price": "1011000000000000000000",
      "reserved": "",
      "salt": "0x5c1fab0a8252b7e590a8286371f2e6fedd71996dbe783794fe6b3de420277e91",
      "assetIds": []
    },
    {
      "x": 121,
      "y": 210,
      "size": 1,
      "price": "1011000000000000000000",
      "reserved": "",
      "salt": "0x453afdfdbc282b4ba0def317ea8b6ebcd872a3374c5fe9a53dfd36cba3e152cd",
      "assetIds": []
    },
    {
      "x": 121,
      "y": 211,
      "size": 1,
      "price": "1011000000000000000000",
      "reserved": "",
      "salt": "0x49fb145b40c21ecb4c677e49b7bd38d6fcc85115ed22477bf4672fd41331602e",
      "assetIds": []
    },
    {
      "x": 121,
      "y": 212,
      "size": 1,
      "price": "1011000000000000000000",
      "reserved": "",
      "salt": "0x4264c834cecfffad4a1554ef78953ce9735e68f05e1012db7cd3f6592f70a6c5",
      "assetIds": []
    },
    {
      "x": 121,
      "y": 213,
      "size": 1,
      "price": "1011000000000000000000",
      "reserved": "",
      "salt": "0xbf7d96c3d9bc51d9981c8acbc4baff7c3a8066937fd72597e31930c026451539",
      "assetIds": []
    },
    {
      "x": 121,
      "y": 214,
      "size": 1,
      "price": "1011000000000000000000",
      "reserved": "",
      "salt": "0x019e4e7cbd3653d090ca08435c6cf5e682486b686581a081a6acd361b679ed24",
      "assetIds": []
    },
    {
      "x": 121,
      "y": 215,
      "size": 1,
      "price": "4683000000000000000000",
      "reserved": "",
      "salt": "0x22798f3d5ed6b32360e98e7a592ce7bbb11abe671693a0520c71d09ed09eb0dc",
      "assetIds": []
    },
    {
      "x": 122,
      "y": 201,
      "size": 1,
      "price": "1011000000000000000000",
      "reserved": "",
      "salt": "0xa79afb38543318fad07f189bb16d78e18fe0c7f36596a8c59b9b807caf95e1c4",
      "assetIds": []
    },
    {
      "x": 122,
      "y": 202,
      "size": 1,
      "price": "1011000000000000000000",
      "reserved": "",
      "salt": "0x6f12a621d64686c738cdb099227987dcd30c667e84102fcfd8eb17841fe20bc5",
      "assetIds": []
    },
    {
      "x": 122,
      "y": 203,
      "size": 1,
      "price": "1011000000000000000000",
      "reserved": "",
      "salt": "0x85de5b735c049afb6e12ed61ca05fc877facd35e345c60651b293138a4c38684",
      "assetIds": []
    },
    {
      "x": 122,
      "y": 204,
      "size": 1,
      "price": "4683000000000000000000",
      "reserved": "",
      "salt": "0x512cacb6de532fe1377c63a3022d9dcc1097bb8bdca2ac91afa679dae94d9d14",
      "assetIds": []
    },
    {
      "x": 122,
      "y": 205,
      "size": 1,
      "price": "1011000000000000000000",
      "reserved": "",
      "salt": "0xa3212fb6a32f8270d267f1330d82bdb1a00f759aabea955191d7f1fe2f81dc72",
      "assetIds": []
    },
    {
      "x": 122,
      "y": 206,
      "size": 1,
      "price": "4683000000000000000000",
      "reserved": "",
      "salt": "0xde77857fa7f232a21b789c985cdc3dc25468d53d3bdba44df4342708fe3ceb7f",
      "assetIds": []
    },
    {
      "x": 122,
      "y": 210,
      "size": 1,
      "price": "1011000000000000000000",
      "reserved": "",
      "salt": "0x96d6f5220cc1cd32e2ae69af5f70d763bc08989f67081e670b9f85fc8149f26a",
      "assetIds": []
    },
    {
      "x": 122,
      "y": 211,
      "size": 1,
      "price": "1011000000000000000000",
      "reserved": "",
      "salt": "0x322adbbf2ae9c313d47cebd1f0a08a5d4856dc5d7e4699874b27d3c4edce03ec",
      "assetIds": []
    },
    {
      "x": 122,
      "y": 212,
      "size": 1,
      "price": "1011000000000000000000",
      "reserved": "",
      "salt": "0xd4c5e40eb69218f065ffcb2747a816494b681e0a5d9688def96feef3f8d449df",
      "assetIds": []
    },
    {
      "x": 122,
      "y": 213,
      "size": 1,
      "price": "1011000000000000000000",
      "reserved": "",
      "salt": "0xf0c62f0ebe540cfa92fc65d48bd601f854f24d4dcb4e41cdd56f66c54933b173",
      "assetIds": []
    },
    {
      "x": 122,
      "y": 214,
      "size": 1,
      "price": "1011000000000000000000",
      "reserved": "",
      "salt": "0x8785eeff3da0ffc5b4fc51378ca9556ef0f89097cb1fe49e5928ff7a25643c12",
      "assetIds": []
    },
    {
      "x": 122,
      "y": 215,
      "size": 1,
      "price": "4683000000000000000000",
      "reserved": "",
      "salt": "0xc21596d549b28b8d366a9a42ba5d40b9bd1bb65a8db804b4a6515972c773dcd8",
      "assetIds": []
    },
    {
      "x": 123,
      "y": 201,
      "size": 1,
      "price": "1011000000000000000000",
      "reserved": "",
      "salt": "0xf1ecc2af710a10edca198a1bdb2a7c0d89f6be934c5d0efb1fb4b86c0c1e1078",
      "assetIds": []
    },
    {
      "x": 123,
      "y": 202,
      "size": 1,
      "price": "1011000000000000000000",
      "reserved": "",
      "salt": "0x65dcf26dddf3bcefa6674000ddaf3a37c5064d2e3d74138f1275e53dc26f2748",
      "assetIds": []
    },
    {
      "x": 123,
      "y": 203,
      "size": 1,
      "price": "4683000000000000000000",
      "reserved": "",
      "salt": "0x4bcecb63ae23b8753d21ac49142cbafcd1ca4f17f78f5b99b7cf43ae1782c3be",
      "assetIds": []
    },
    {
      "x": 123,
      "y": 207,
      "size": 1,
      "price": "4683000000000000000000",
      "reserved": "",
      "salt": "0x224bbdb4ea53ff4ad4bc367c025c7348aa350a7dc049b55def8e82d6403a8ae8",
      "assetIds": []
    },
    {
      "x": 123,
      "y": 208,
      "size": 1,
      "price": "1011000000000000000000",
      "reserved": "",
      "salt": "0x4845acde1ed7c93f640668939b0fc49bba0a3c3002f30bbc57118eb7e5b541ee",
      "assetIds": []
    },
    {
      "x": 123,
      "y": 209,
      "size": 1,
      "price": "1011000000000000000000",
      "reserved": "",
      "salt": "0x484e4c9e165db4e5b20b6f6a699410e76ff8ecc325d1a41b1b1b5a16d1c2f44c",
      "assetIds": []
    },
    {
      "x": 123,
      "y": 210,
      "size": 1,
      "price": "1011000000000000000000",
      "reserved": "",
      "salt": "0xd624cf83b697b596efef0ef65990418771bc808083bf6b1d7e077d69ad4ced49",
      "assetIds": []
    },
    {
      "x": 123,
      "y": 211,
      "size": 1,
      "price": "1011000000000000000000",
      "reserved": "",
      "salt": "0x4fb9d70f73bd2ecfb1da5de934dd06bc711d3cb4918209d14f570932e709248a",
      "assetIds": []
    },
    {
      "x": 123,
      "y": 212,
      "size": 1,
      "price": "1011000000000000000000",
      "reserved": "",
      "salt": "0xf9b6c1b1fe792286a81c10519a53d5381b95a26530efd0f8b03ba5cbec05d20d",
      "assetIds": []
    },
    {
      "x": 123,
      "y": 213,
      "size": 1,
      "price": "1011000000000000000000",
      "reserved": "0x7a9fe22691c811ea339d9b73150e6911a5343dca",
      "salt": "0x1087b112ce4bf09ec10cf5daa6783a3b5696c51212eaa11f13f3851de63349bf",
      "assetIds": []
    },
    {
      "x": 123,
      "y": 214,
      "size": 1,
      "price": "1011000000000000000000",
      "reserved": "",
      "salt": "0x54388806e7c5fd0f882e398adb52b67bba613c094fdfdb1586366ddb05d17279",
      "assetIds": []
    },
    {
      "x": 123,
      "y": 215,
      "size": 1,
      "price": "4683000000000000000000",
      "reserved": "",
      "salt": "0xcf9455cead03081261fb83685c08052de27125e25dcd158da1c1da55281d1aae",
      "assetIds": []
    },
    {
      "x": 123,
      "y": 240,
      "size": 1,
      "price": "4683000000000000000000",
      "reserved": "",
      "salt": "0x78ed9f6bac873f1273a55a434b34d21e363cbba699bf36a00898ebf468159405",
      "assetIds": []
    },
    {
      "x": 123,
      "y": 241,
      "size": 1,
      "price": "1011000000000000000000",
      "reserved": "",
      "salt": "0x0af27e03d179fdff458af83e53c4f155f47b6aeb5c8e5432db474e132f3bce02",
      "assetIds": []
    },
    {
      "x": 123,
      "y": 242,
      "size": 1,
      "price": "1011000000000000000000",
      "reserved": "",
      "salt": "0x66b25fd4e2cd401a5cff6b88bb484ec1d2b7f59b3e92683dc7fefef6bcd62afc",
      "assetIds": []
    },
    {
      "x": 124,
      "y": 201,
      "size": 1,
      "price": "1011000000000000000000",
      "reserved": "",
      "salt": "0x2371f1744246f3bffbed7c279d226d4ca09a559a5dde6305fa020aecdb9c94c3",
      "assetIds": []
    },
    {
      "x": 124,
      "y": 202,
      "size": 1,
      "price": "1011000000000000000000",
      "reserved": "",
      "salt": "0x45298e5a0f94f94ddf4dbc4ff5dc94cdb095182ca13389de58cca5e057996393",
      "assetIds": []
    },
    {
      "x": 124,
      "y": 203,
      "size": 1,
      "price": "4683000000000000000000",
      "reserved": "",
      "salt": "0xdd0e716571080db74c8366c4c36eed0d7594331ff8d0d9e20fc4ecc4404ffca6",
      "assetIds": []
    },
    {
      "x": 124,
      "y": 207,
      "size": 1,
      "price": "4683000000000000000000",
      "reserved": "",
      "salt": "0x68cc0a67dfdeff631cccbd329790f40f0765959c81aa6c7360130e6412451344",
      "assetIds": []
    },
    {
      "x": 124,
      "y": 208,
      "size": 1,
      "price": "1011000000000000000000",
      "reserved": "",
      "salt": "0xd8f7e86905e9e73eb8b1620e249d0c34c7ece1fba82e985837fe195b88b92c0d",
      "assetIds": []
    },
    {
      "x": 124,
      "y": 209,
      "size": 1,
      "price": "1011000000000000000000",
      "reserved": "",
      "salt": "0xe987cc6d7f48e6ee520a6d0acd5e42a1bdef7cd1fe950833b300383eb32c3e26",
      "assetIds": []
    },
    {
      "x": 124,
      "y": 210,
      "size": 1,
      "price": "1011000000000000000000",
      "reserved": "",
      "salt": "0x678933931390560a6d58236298100a4aeee0b9ccb2f3d56d73112a28a8cc4221",
      "assetIds": []
    },
    {
      "x": 124,
      "y": 211,
      "size": 1,
      "price": "1011000000000000000000",
      "reserved": "",
      "salt": "0x3521832f49d7d7d7638174d0a3c0f5e393fe312018af3f73040f6611c8d063ee",
      "assetIds": []
    },
    {
      "x": 124,
      "y": 212,
      "size": 1,
      "price": "1011000000000000000000",
      "reserved": "",
      "salt": "0xe5ae51446215a9f884f7aa96ba5a409683ef6238213b13eca1caaee8f27c1ef7",
      "assetIds": []
    },
    {
      "x": 124,
      "y": 213,
      "size": 1,
      "price": "1011000000000000000000",
      "reserved": "",
      "salt": "0x392fcc00321b0dc94a5e75f0b9f82854bf563a4cbdee56c5fdf0d3ba57736a76",
      "assetIds": []
    },
    {
      "x": 124,
      "y": 214,
      "size": 1,
      "price": "1011000000000000000000",
      "reserved": "",
      "salt": "0xbb76008866bde6358942710539f7bc235704aa379efa922e6fc0da56b728d59c",
      "assetIds": []
    },
    {
      "x": 124,
      "y": 215,
      "size": 1,
      "price": "4683000000000000000000",
      "reserved": "",
      "salt": "0xab36c2fedb48f22f8eccb6b511b44fff91c7789934c06164f638ab8fa34c010f",
      "assetIds": []
    },
    {
      "x": 124,
      "y": 240,
      "size": 1,
      "price": "4683000000000000000000",
      "reserved": "",
      "salt": "0x1c4c996a4c961a6f2522117489336059f8d4614fd805229a9a703e4823c070c1",
      "assetIds": []
    },
    {
      "x": 124,
      "y": 241,
      "size": 1,
      "price": "1011000000000000000000",
      "reserved": "",
      "salt": "0x4fd5e4865acb4ae2b682632f5394073a007027e70195ce32afcda217e5bc8dc8",
      "assetIds": []
    },
    {
      "x": 124,
      "y": 242,
      "size": 1,
      "price": "1011000000000000000000",
      "reserved": "",
      "salt": "0x6624bc8b40ea0f3b228577277139fd1edc3df820e8a2b2af49f7005887f67988",
      "assetIds": []
    },
    {
      "x": 125,
      "y": 201,
      "size": 1,
      "price": "1011000000000000000000",
      "reserved": "",
      "salt": "0x8515c24f8f06a01b4d8835625d0c73108640c5b4008e235cb2e69661c585a16e",
      "assetIds": []
    },
    {
      "x": 125,
      "y": 202,
      "size": 1,
      "price": "1011000000000000000000",
      "reserved": "",
      "salt": "0x2c7d9f51906e95ff9cf524cea0a29d3d85517a090efe3772bae3644290d3344c",
      "assetIds": []
    },
    {
      "x": 125,
      "y": 203,
      "size": 1,
      "price": "4683000000000000000000",
      "reserved": "",
      "salt": "0x3af600522a7990a46bd98a4b43d80198fbbbf596f65d7be701f3672d6fb278cc",
      "assetIds": []
    },
    {
      "x": 125,
      "y": 207,
      "size": 1,
      "price": "4683000000000000000000",
      "reserved": "",
      "salt": "0x09a14ca7df6d8c1d6c83e2a74e2ca349ab2250e534622b4a28332d717f73e9fd",
      "assetIds": []
    },
    {
      "x": 125,
      "y": 208,
      "size": 1,
      "price": "1011000000000000000000",
      "reserved": "",
      "salt": "0x55f1ba3cf68e0901e7ec9150d699ebcbdd3afb2ccab4972d6586718118f7e868",
      "assetIds": []
    },
    {
      "x": 125,
      "y": 209,
      "size": 1,
      "price": "1011000000000000000000",
      "reserved": "",
      "salt": "0x6fbe27fb0728462b4e9571a1b8e83659a0c18dc24d6ebea6b41cb3d54306132f",
      "assetIds": []
    },
    {
      "x": 125,
      "y": 210,
      "size": 1,
      "price": "1011000000000000000000",
      "reserved": "0x7a9fe22691c811ea339d9b73150e6911a5343dca",
      "salt": "0xce8174059fd8cf0fcbac3d47acd6f2408cd53fefdd3e0330bf985840c88288aa",
      "assetIds": []
    },
    {
      "x": 125,
      "y": 211,
      "size": 1,
      "price": "1011000000000000000000",
      "reserved": "0x7a9fe22691c811ea339d9b73150e6911a5343dca",
      "salt": "0x1cbedc0683a22451b3dd2be306f1423ecb19062b000a6308d3f722110f46b3ee",
      "assetIds": []
    },
    {
      "x": 125,
      "y": 212,
      "size": 1,
      "price": "1011000000000000000000",
      "reserved": "",
      "salt": "0x5becbef88e39ba72b33ba30e4b2bde06ac4472c765d159142b5cacdfc803be0f",
      "assetIds": []
    },
    {
      "x": 125,
      "y": 213,
      "size": 1,
      "price": "1011000000000000000000",
      "reserved": "",
      "salt": "0x69333fa5205b15e4799bb2f8f02910c9533397b83cd0cf8483f7c9b021b1f173",
      "assetIds": []
    },
    {
      "x": 125,
      "y": 214,
      "size": 1,
      "price": "1011000000000000000000",
      "reserved": "",
      "salt": "0x4bd87b5f6f211a2403d338261ef51ef04d3ebb97084d814ebe470445a1d2b768",
      "assetIds": []
    },
    {
      "x": 125,
      "y": 215,
      "size": 1,
      "price": "4683000000000000000000",
      "reserved": "",
      "salt": "0xe6d4c5186b38660daf3cf98117a53cb4b626d28b6cc51f455170750c8851f1a5",
      "assetIds": []
    },
    {
      "x": 125,
      "y": 240,
      "size": 1,
      "price": "1011000000000000000000",
      "reserved": "0x7a9fe22691c811ea339d9b73150e6911a5343dca",
      "salt": "0x7d6ae4f9a0e43f02eac83f672170547cfd6a639731b423e4afe0e7f41ce6b57a",
      "assetIds": []
    },
    {
      "x": 125,
      "y": 241,
      "size": 1,
      "price": "1011000000000000000000",
      "reserved": "",
      "salt": "0x2e3c3233a11b136def095e25f8383cb9add53ad7332275be9750c396ec3348cd",
      "assetIds": []
    },
    {
      "x": 125,
      "y": 242,
      "size": 1,
      "price": "1011000000000000000000",
      "reserved": "",
      "salt": "0x45e967e71bbc375c6c7e38c3f9a30f355aca74c8bffd95c792633c636078b4d9",
      "assetIds": []
    },
    {
      "x": 126,
      "y": 201,
      "size": 1,
      "price": "1011000000000000000000",
      "reserved": "",
      "salt": "0x8ee7ea8a66e4b7b768a44ef8bd851da0e9699a0e32788636f134b997a8eb4cf2",
      "assetIds": []
    },
    {
      "x": 126,
      "y": 202,
      "size": 1,
      "price": "1011000000000000000000",
      "reserved": "",
      "salt": "0x0ea1b5828945bfa20d7fccfa436bce3279df78435ca0a68993fec9bf59c3b8b2",
      "assetIds": []
    },
    {
      "x": 126,
      "y": 203,
      "size": 1,
      "price": "1011000000000000000000",
      "reserved": "",
      "salt": "0x84e5b5bedf4fc8a86008f2cdff1c4d58088d0a3d20cc73c68812d5ac79e0c36b",
      "assetIds": []
    },
    {
      "x": 126,
      "y": 204,
      "size": 1,
      "price": "4683000000000000000000",
      "reserved": "",
      "salt": "0xe096dee454081e703e812a7bdfbdeb9ed56c93be596e6e91110f6856ca1090c9",
      "assetIds": []
    },
    {
      "x": 126,
      "y": 205,
      "size": 1,
      "price": "1011000000000000000000",
      "reserved": "0x7a9fe22691c811ea339d9b73150e6911a5343dca",
      "salt": "0xa52a8f74ab2800946db72b93fe90958a792de8a90869e157da30645b88927b89",
      "assetIds": []
    },
    {
      "x": 126,
      "y": 206,
      "size": 1,
      "price": "4683000000000000000000",
      "reserved": "",
      "salt": "0x69385a698f0dcb7a5411845ca39a3b620d0a18a2471f86a42a36fcdbeaa3a919",
      "assetIds": []
    },
    {
      "x": 126,
      "y": 207,
      "size": 1,
      "price": "1011000000000000000000",
      "reserved": "",
      "salt": "0x7b066bab1406b9928aec8cdfb016e7e943a8e8320aad995a790d29ec9df931cb",
      "assetIds": []
    },
    {
      "x": 126,
      "y": 208,
      "size": 1,
      "price": "1011000000000000000000",
      "reserved": "",
      "salt": "0x50efd942b582994a33dec3fb12d16e51fe2c151ecc2e6d7f08e005e624df7a3f",
      "assetIds": []
    },
    {
      "x": 126,
      "y": 209,
      "size": 1,
      "price": "1011000000000000000000",
      "reserved": "",
      "salt": "0x73d0334f0265adefeb03c2ca963e8deb83448d327922585736b366a672f223a9",
      "assetIds": []
    },
    {
      "x": 126,
      "y": 210,
      "size": 1,
      "price": "1011000000000000000000",
      "reserved": "",
      "salt": "0x22a418a779bccc1c50a09cfcc35ae7648954eb44808122271e802a04340227e1",
      "assetIds": []
    },
    {
      "x": 126,
      "y": 211,
      "size": 1,
      "price": "1011000000000000000000",
      "reserved": "0x7a9fe22691c811ea339d9b73150e6911a5343dca",
      "salt": "0x6a3854448adc0d5c8a0bda362cec1fadee061f739d21fa83174ce53c494d94c2",
      "assetIds": []
    },
    {
      "x": 126,
      "y": 212,
      "size": 1,
      "price": "1011000000000000000000",
      "reserved": "",
      "salt": "0xe5702b9868d7c9cb681a57686d1fcf802301d0ce9cf487ac480b8991d5c38473",
      "assetIds": []
    },
    {
      "x": 126,
      "y": 213,
      "size": 1,
      "price": "1011000000000000000000",
      "reserved": "",
      "salt": "0x89c38694aa31307e8a5d02579b2adda108c0a6760de165cadc534e77d250a2d7",
      "assetIds": []
    },
    {
      "x": 126,
      "y": 214,
      "size": 1,
      "price": "1011000000000000000000",
      "reserved": "",
      "salt": "0xaa7e8fb3565b49c259be5420ddbe18556571a1575d583d5b176b6c7c233e63fb",
      "assetIds": []
    },
    {
      "x": 126,
      "y": 215,
      "size": 1,
      "price": "4683000000000000000000",
      "reserved": "",
      "salt": "0xfa3638df3443dd58f04942775ffc1af4429380f1633f67d06b9a4e557c94b344",
      "assetIds": []
    },
    {
      "x": 126,
      "y": 240,
      "size": 1,
      "price": "4683000000000000000000",
      "reserved": "",
      "salt": "0xef42f662a9378e710953c0996b68054822f6c46f369fa7628f0436020b326b24",
      "assetIds": []
    },
    {
      "x": 126,
      "y": 241,
      "size": 1,
      "price": "1011000000000000000000",
      "reserved": "",
      "salt": "0x01e447adb783647624c8518b362724f9b02be3708593e8c19a042d4048cf384a",
      "assetIds": []
    },
    {
      "x": 126,
      "y": 242,
      "size": 1,
      "price": "1011000000000000000000",
      "reserved": "",
      "salt": "0xddbb9dcfc5af05ecb1d2a5f97f68fd0e6e1a8605f779e4e4ca8969ee3931d74e",
      "assetIds": []
    },
    {
      "x": 127,
      "y": 201,
      "size": 1,
      "price": "1011000000000000000000",
      "reserved": "",
      "salt": "0x307c5004f252c0f4e0cac4daf65b4d4c71552c05a47fc9b9ecf5680c731bc3a0",
      "assetIds": []
    },
    {
      "x": 127,
      "y": 202,
      "size": 1,
      "price": "1011000000000000000000",
      "reserved": "",
      "salt": "0x82fa2a1fa0e38e297e53592fa013eb1af5ba4718b0686ab5f66bb8e8b16113f3",
      "assetIds": []
    },
    {
      "x": 127,
      "y": 203,
      "size": 1,
      "price": "1011000000000000000000",
      "reserved": "",
      "salt": "0x25be404209abfeee8a70f8e47a57aeaec844bc6bfaf02e7d99f597894691d66a",
      "assetIds": []
    },
    {
      "x": 127,
      "y": 204,
      "size": 1,
      "price": "1011000000000000000000",
      "reserved": "",
      "salt": "0xa25a95de8799f2de450750b2537cf497a559a6a52d2cfbf5c30eacc4d6996f1b",
      "assetIds": []
    },
    {
      "x": 127,
      "y": 205,
      "size": 1,
      "price": "1011000000000000000000",
      "reserved": "",
      "salt": "0xb26193f37da7716075fb4550c798f3e0e2f661eab15b1fd6ff0a543dd47550e2",
      "assetIds": []
    },
    {
      "x": 127,
      "y": 206,
      "size": 1,
      "price": "1011000000000000000000",
      "reserved": "",
      "salt": "0xff0532b33477a785f587f104a2f64ea603154bd43e02c2da69e6612f7429fb7c",
      "assetIds": []
    },
    {
      "x": 127,
      "y": 207,
      "size": 1,
      "price": "1011000000000000000000",
      "reserved": "",
      "salt": "0x5b62e4766f0d497b130702fa2566199a2e0b0db3729f7961403e85e8b80c73f8",
      "assetIds": []
    },
    {
      "x": 127,
      "y": 208,
      "size": 1,
      "price": "1011000000000000000000",
      "reserved": "",
      "salt": "0x0dfa2b8cb23269e4e1aee67db49f59b293715f1b8901a766d91fef7d176d8c71",
      "assetIds": []
    },
    {
      "x": 127,
      "y": 209,
      "size": 1,
      "price": "1011000000000000000000",
      "reserved": "",
      "salt": "0xf6009e4091f28e82536b6f79771c4d0619a167a2eb89134ecb22034195980b2a",
      "assetIds": []
    },
    {
      "x": 127,
      "y": 210,
      "size": 1,
      "price": "1011000000000000000000",
      "reserved": "",
      "salt": "0xbf2e85af3b95ed3ad743383ca483cdf2113d1dfeefd9e74953e576933cef2504",
      "assetIds": []
    },
    {
      "x": 127,
      "y": 211,
      "size": 1,
      "price": "1011000000000000000000",
      "reserved": "",
      "salt": "0x506b2b9a365765b81593d3da9cf8ca66e87879fe8ef5d7f420081e8c16b20e0e",
      "assetIds": []
    },
    {
      "x": 127,
      "y": 212,
      "size": 1,
      "price": "1011000000000000000000",
      "reserved": "",
      "salt": "0x3bfd5f17e32b919f4a5a21f24897f1e7bc671290c0df9078dbafc6a5e961390a",
      "assetIds": []
    },
    {
      "x": 127,
      "y": 213,
      "size": 1,
      "price": "1011000000000000000000",
      "reserved": "",
      "salt": "0xa82d44c1d1ea0cd810aa7b35d14011673e846e504e29481ea73c881a8da91897",
      "assetIds": []
    },
    {
      "x": 127,
      "y": 214,
      "size": 1,
      "price": "1011000000000000000000",
      "reserved": "",
      "salt": "0xa0086e9556abf95f632acc4a499117f4271d87f3cf269bf86cbdfd4d38872590",
      "assetIds": []
    },
    {
      "x": 127,
      "y": 215,
      "size": 1,
      "price": "4683000000000000000000",
      "reserved": "",
      "salt": "0xbbd73ed0317e549c839a2f23dd578255feb7f88576643ec502e7b5f132e35dd6",
      "assetIds": []
    },
    {
      "x": 127,
      "y": 240,
      "size": 1,
      "price": "4683000000000000000000",
      "reserved": "",
      "salt": "0xca805f9abe660bca95003098cb07b5ac6a919627cdb5a09b71f4034839ef2532",
      "assetIds": []
    },
    {
      "x": 127,
      "y": 241,
      "size": 1,
      "price": "1011000000000000000000",
      "reserved": "",
      "salt": "0x6aca96aa208128ea47899ceff0e0039edf6c035fef0b57f8b860f115c45ecc04",
      "assetIds": []
    },
    {
      "x": 127,
      "y": 242,
      "size": 1,
      "price": "1011000000000000000000",
      "reserved": "",
      "salt": "0x20bbde90980e2c19de39310772aacea1754379145b1fbb0219aab64251c5c86d",
      "assetIds": []
    },
    {
      "x": 128,
      "y": 201,
      "size": 1,
      "price": "1011000000000000000000",
      "reserved": "",
      "salt": "0xd9872e9c73e014026e8dbe512641bcec753e689f88d2411b49b3f8ac381f2c1b",
      "assetIds": []
    },
    {
      "x": 128,
      "y": 202,
      "size": 1,
      "price": "1011000000000000000000",
      "reserved": "",
      "salt": "0x99a804bd6d3dd481195163c2f11ce2141962f5e6e727cd46104607b5c4f6be22",
      "assetIds": []
    },
    {
      "x": 128,
      "y": 203,
      "size": 1,
      "price": "1011000000000000000000",
      "reserved": "",
      "salt": "0xd491b10abce06ab8d57bca478813ec269244d64b0d27caec1d618c422fc9e7fa",
      "assetIds": []
    },
    {
      "x": 128,
      "y": 204,
      "size": 1,
      "price": "1011000000000000000000",
      "reserved": "",
      "salt": "0xdae301d1c6d016d14d1163eedec1b70ea0f35c96e8af76e54934024b490dc48c",
      "assetIds": []
    },
    {
      "x": 128,
      "y": 205,
      "size": 1,
      "price": "1011000000000000000000",
      "reserved": "",
      "salt": "0x1dc810729e295b2d51ae21b09208678be858495bf4b4cc8d405c8464efa25c7b",
      "assetIds": []
    },
    {
      "x": 128,
      "y": 206,
      "size": 1,
      "price": "1011000000000000000000",
      "reserved": "",
      "salt": "0x00a9fa56110f89bc086f7cd76537e476ac602f151a245696c6f90b116f84b35a",
      "assetIds": []
    },
    {
      "x": 128,
      "y": 207,
      "size": 1,
      "price": "1011000000000000000000",
      "reserved": "",
      "salt": "0x35b7d1413525e8a87c561e00aef3aea619bfd7e8118e6dc0c3e26c50f0ee92b5",
      "assetIds": []
    },
    {
      "x": 128,
      "y": 208,
      "size": 1,
      "price": "1011000000000000000000",
      "reserved": "",
      "salt": "0x1f92b2c10a0d9177c838b204489dc6b0309815d5bfdb8676c50c106cbfde8f67",
      "assetIds": []
    },
    {
      "x": 128,
      "y": 209,
      "size": 1,
      "price": "1011000000000000000000",
      "reserved": "0x7a9fe22691c811ea339d9b73150e6911a5343dca",
      "salt": "0x1e4ae751266ca945da7596bd42e2131b702ea92dc22a14857eca2e6d108a5a11",
      "assetIds": []
    },
    {
      "x": 128,
      "y": 210,
      "size": 1,
      "price": "1011000000000000000000",
      "reserved": "",
      "salt": "0xf3e621f3b1b09903d30f3b7255bb98aadfa1436c71781cbe0107b599ddd15e5d",
      "assetIds": []
    },
    {
      "x": 128,
      "y": 211,
      "size": 1,
      "price": "1011000000000000000000",
      "reserved": "",
      "salt": "0x4150ed4258f74fab4e98a6a95197b2655ecd419e064b2a4e55857f9c0fbd8e32",
      "assetIds": []
    },
    {
      "x": 128,
      "y": 212,
      "size": 1,
      "price": "1011000000000000000000",
      "reserved": "",
      "salt": "0xabb372b6a1fd3ce144a3d242f5be12a96011e198f1d0afe61a6a4ee660eedac9",
      "assetIds": []
    },
    {
      "x": 128,
      "y": 213,
      "size": 1,
      "price": "1011000000000000000000",
      "reserved": "",
      "salt": "0x1a04a7c6bbf1701703c5a60c30cfb3699a39e8e7a709ed96dbf02221eba7bc8d",
      "assetIds": []
    },
    {
      "x": 128,
      "y": 214,
      "size": 1,
      "price": "1011000000000000000000",
      "reserved": "",
      "salt": "0x742482a24a03bd2ed225d5d478c99fe49e98950316be36d7add892f17e34f43c",
      "assetIds": []
    },
    {
      "x": 128,
      "y": 215,
      "size": 1,
      "price": "4683000000000000000000",
      "reserved": "",
      "salt": "0xa5eed0cde7f0720313c7b73aaf0ecf216186e540fcdd418d6db2d49d18254adc",
      "assetIds": []
    },
    {
      "x": 128,
      "y": 240,
      "size": 1,
      "price": "4683000000000000000000",
      "reserved": "",
      "salt": "0xc39c8655e84bc7184caeeb0730ec39b7ebbb358e9cbea07ccceee595ca1724c0",
      "assetIds": []
    },
    {
      "x": 128,
      "y": 241,
      "size": 1,
      "price": "1011000000000000000000",
      "reserved": "",
      "salt": "0x181a92494db591097f2afec81cb0ee4d03e5be104f6d9c17e2ded8d4e0598d3b",
      "assetIds": []
    },
    {
      "x": 128,
      "y": 242,
      "size": 1,
      "price": "1011000000000000000000",
      "reserved": "",
      "salt": "0x5dd26692bd408d61af2891cf5d45c960e0a60bd6e44c8ecb6ce6d35a1af525bd",
      "assetIds": []
    },
    {
      "x": 129,
      "y": 201,
      "size": 1,
      "price": "1011000000000000000000",
      "reserved": "",
      "salt": "0xd8baa982cf92a2040a1f3d77d4776c9436ca0b71942ca6b30a95ce19b1cc894f",
      "assetIds": []
    },
    {
      "x": 129,
      "y": 202,
      "size": 1,
      "price": "1011000000000000000000",
      "reserved": "",
      "salt": "0xbee00276f8ddf65bff40ac8405f5f9e5361185d1435d93a80221e3af5c5edf9e",
      "assetIds": []
    },
    {
      "x": 129,
      "y": 203,
      "size": 1,
      "price": "1011000000000000000000",
      "reserved": "",
      "salt": "0x48eaab22d756c6a7152a10254148243238ea360de0dbd8f09ef5c1b6ba12a1ff",
      "assetIds": []
    },
    {
      "x": 129,
      "y": 207,
      "size": 1,
      "price": "1011000000000000000000",
      "reserved": "",
      "salt": "0x2bd69862f2466e89a33cfb870a29315282ee8301e234f84deb80259c9f9a25a1",
      "assetIds": []
    },
    {
      "x": 129,
      "y": 208,
      "size": 1,
      "price": "1011000000000000000000",
      "reserved": "",
      "salt": "0x8c45f567b29c219763b485d483c6d2035b0221eb828366e18726c262ca133cee",
      "assetIds": []
    },
    {
      "x": 129,
      "y": 209,
      "size": 1,
      "price": "1011000000000000000000",
      "reserved": "0x7a9fe22691c811ea339d9b73150e6911a5343dca",
      "salt": "0x7219d76ed5539c2ffa1adb948e78cae2d4a5900ba45ab7ff1047eecb17373683",
      "assetIds": []
    },
    {
      "x": 129,
      "y": 210,
      "size": 1,
      "price": "1011000000000000000000",
      "reserved": "",
      "salt": "0x11081e261c4a9c462ce38503366a966b83bf548a390e41f9e7a6ccb38a33be88",
      "assetIds": []
    },
    {
      "x": 129,
      "y": 211,
      "size": 1,
      "price": "1011000000000000000000",
      "reserved": "",
      "salt": "0x61718d2a73a696e7f709275ffb118e971cf07830fcffbb2ba977fcc3778968c1",
      "assetIds": []
    },
    {
      "x": 129,
      "y": 212,
      "size": 1,
      "price": "1011000000000000000000",
      "reserved": "",
      "salt": "0x340caed8c7d7a1d70d5f94b3bbd70d9a34ebb8ad26ec842b2be3d5fdfa10c201",
      "assetIds": []
    },
    {
      "x": 129,
      "y": 240,
      "size": 1,
      "price": "4683000000000000000000",
      "reserved": "",
      "salt": "0x9829f5434e77d2a8c55a9030e436788f3627510882508412f04f26fff1cafd82",
      "assetIds": []
    },
    {
      "x": 129,
      "y": 241,
      "size": 1,
      "price": "1011000000000000000000",
      "reserved": "",
      "salt": "0x4a15dbe49a393f7c3ba8dde35843e6849ea1bf0b5680202e28babd9f4ea7e6cf",
      "assetIds": []
    },
    {
      "x": 129,
      "y": 242,
      "size": 1,
      "price": "1011000000000000000000",
      "reserved": "",
      "salt": "0x9ce7b15e1e3ceb5c4609cd3b8936e930912798ce40eb3df4bf29516e985d9e48",
      "assetIds": []
    },
    {
      "x": 130,
      "y": 201,
      "size": 1,
      "price": "1011000000000000000000",
      "reserved": "",
      "salt": "0x27622e5776757a422e5c51f0bcfd75263bc3db582c717a2d1990e14082261ed3",
      "assetIds": []
    },
    {
      "x": 130,
      "y": 202,
      "size": 1,
      "price": "1011000000000000000000",
      "reserved": "",
      "salt": "0x0ae362cb4b5ace157780af23feeffa4d9680dd4d134ac810a82e5d5d66e241ba",
      "assetIds": []
    },
    {
      "x": 130,
      "y": 203,
      "size": 1,
      "price": "1011000000000000000000",
      "reserved": "",
      "salt": "0x896b72151a18d3b20ce4ff11a13c3e690122947e7d1fff97b1acff51c641f71a",
      "assetIds": []
    },
    {
      "x": 130,
      "y": 207,
      "size": 1,
      "price": "1011000000000000000000",
      "reserved": "",
      "salt": "0x276ed2d31474e898f7c37de33070e850eac1329dfabb36588ac57d0ad5a2d1bb",
      "assetIds": []
    },
    {
      "x": 130,
      "y": 208,
      "size": 1,
      "price": "1011000000000000000000",
      "reserved": "",
      "salt": "0xefe11734fe4864b28ff2113565057b9601939dc77027764869efae3fc7badf92",
      "assetIds": []
    },
    {
      "x": 130,
      "y": 209,
      "size": 1,
      "price": "1011000000000000000000",
      "reserved": "",
      "salt": "0x9a5c8b1af208791e2aeaf3535055d5c5b729314948f2abc689334a1cd6bf7d20",
      "assetIds": []
    },
    {
      "x": 130,
      "y": 210,
      "size": 1,
      "price": "1011000000000000000000",
      "reserved": "",
      "salt": "0x78782a053e3129a5ee8b9be9a154b82d874258e7be0742323df387bd01eee841",
      "assetIds": []
    },
    {
      "x": 130,
      "y": 211,
      "size": 1,
      "price": "1011000000000000000000",
      "reserved": "",
      "salt": "0xbec732a0ba673daff0d2765c53dcc22d7a0b72aa990b86d3d12a76f55cd829b9",
      "assetIds": []
    },
    {
      "x": 130,
      "y": 212,
      "size": 1,
      "price": "1011000000000000000000",
      "reserved": "",
      "salt": "0x6318e9788bb2d661c41f6f9e8243f54e0431486071e3f0f806b78f7971a44aa4",
      "assetIds": []
    },
    {
      "x": 130,
      "y": 240,
      "size": 1,
      "price": "4683000000000000000000",
      "reserved": "",
      "salt": "0x8f88711d92da0e2b682485ec0b8c4410a67d335cdd9bd86fe9e4e484f6340ba5",
      "assetIds": []
    },
    {
      "x": 130,
      "y": 241,
      "size": 1,
      "price": "1011000000000000000000",
      "reserved": "",
      "salt": "0xf0e91ef2783de8759e8a3d3e340fb694c7832f9530be7c0d300accaa66df7320",
      "assetIds": []
    },
    {
      "x": 130,
      "y": 242,
      "size": 1,
      "price": "1011000000000000000000",
      "reserved": "",
      "salt": "0x6fc8f6571909bcf69b6620789d7302e3e8e695d3a0d18c8e38d927285e74fade",
      "assetIds": []
    },
    {
      "x": 131,
      "y": 201,
      "size": 1,
      "price": "4683000000000000000000",
      "reserved": "",
      "salt": "0x4bcc83996f9411aff939ecd784ce2014ce2a104a16433d4d1ba400db82b9b584",
      "assetIds": []
    },
    {
      "x": 131,
      "y": 202,
      "size": 1,
      "price": "1011000000000000000000",
      "reserved": "0x7a9fe22691c811ea339d9b73150e6911a5343dca",
      "salt": "0xb52341a341e6f65e6162840c8fd7dbdb9c3047c9567d1fae6cd788a3b9a015ec",
      "assetIds": []
    },
    {
      "x": 131,
      "y": 203,
      "size": 1,
      "price": "4683000000000000000000",
      "reserved": "",
      "salt": "0x501b5be6aef547cd1473dea786436b5739c25d2ba9e133af5a926ebb6a542327",
      "assetIds": []
    },
    {
      "x": 131,
      "y": 207,
      "size": 1,
      "price": "1011000000000000000000",
      "reserved": "",
      "salt": "0x708585b6c1c838114b86c7097616497d4f167f8215cb55693d4e52262193b74b",
      "assetIds": []
    },
    {
      "x": 131,
      "y": 208,
      "size": 1,
      "price": "1011000000000000000000",
      "reserved": "",
      "salt": "0x3abb30381dbb612a1080cc85db6acfc88d1f13d1ea1f9989268221a747f49703",
      "assetIds": []
    },
    {
      "x": 131,
      "y": 209,
      "size": 1,
      "price": "1011000000000000000000",
      "reserved": "",
      "salt": "0x7d0b86785d7e98e0ed0dfe766978066f26a9869f7dfb08f0bd91822147ab8919",
      "assetIds": []
    },
    {
      "x": 131,
      "y": 210,
      "size": 1,
      "price": "1011000000000000000000",
      "reserved": "",
      "salt": "0x80123c115a032e84f62e105320a4e1db804676205cb4f4dc79d5e8017aa006f5",
      "assetIds": []
    },
    {
      "x": 131,
      "y": 211,
      "size": 1,
      "price": "1011000000000000000000",
      "reserved": "",
      "salt": "0xbe6ba07580a7e833c9e5e1bd9155fe003677862a6eba78fe8de1c8b60861e2e8",
      "assetIds": []
    },
    {
      "x": 131,
      "y": 212,
      "size": 1,
      "price": "1011000000000000000000",
      "reserved": "",
      "salt": "0x54ae0c0447d9db01f71e5fc22380ba0911c84579f224c3d007019440c5326cce",
      "assetIds": []
    },
    {
      "x": 131,
      "y": 240,
      "size": 1,
      "price": "4683000000000000000000",
      "reserved": "",
      "salt": "0xdb0a94f79624ccbb42560834e69dbc0059d4fdbe72fe1e1214660ca7668d14cd",
      "assetIds": []
    },
    {
      "x": 131,
      "y": 241,
      "size": 1,
      "price": "1011000000000000000000",
      "reserved": "",
      "salt": "0x7a497174968e1bea38af27bba58d79297378b1084581feb45cbce26dabece464",
      "assetIds": []
    },
    {
      "x": 131,
      "y": 242,
      "size": 1,
      "price": "1011000000000000000000",
      "reserved": "",
      "salt": "0x6181a526e7471199e7f1af2b71a3029105cd88c58f876666dd76db1adcb55311",
      "assetIds": []
    },
    {
      "x": 132,
      "y": 204,
      "size": 1,
      "price": "4683000000000000000000",
      "reserved": "",
      "salt": "0xdbae39e95190519761126e3a9b1163a03ffd4e31229bcb9fab1567269cea1200",
      "assetIds": []
    },
    {
      "x": 132,
      "y": 205,
      "size": 1,
      "price": "1011000000000000000000",
      "reserved": "",
      "salt": "0xfec14081bd2b189ee334b954d6e8f6960cf97250e3d0496f418f05f55903889f",
      "assetIds": []
    },
    {
      "x": 132,
      "y": 206,
      "size": 1,
      "price": "1011000000000000000000",
      "reserved": "",
      "salt": "0xb8f4cda64111fc451f7a77e40a00662a1d33f6df706ab7502b272145f6ce346e",
      "assetIds": []
    },
    {
      "x": 132,
      "y": 207,
      "size": 1,
      "price": "1011000000000000000000",
      "reserved": "",
      "salt": "0x0bbc73c0758f4ddf3d109ac125352fd3d276e68488063cf8b0349f30d46b7933",
      "assetIds": []
    },
    {
      "x": 132,
      "y": 208,
      "size": 1,
      "price": "1011000000000000000000",
      "reserved": "",
      "salt": "0x564f9fabdbd81127e2874a3df9eaf7f787a8be4345103e3c967a08cdb395acf9",
      "assetIds": []
    },
    {
      "x": 132,
      "y": 209,
      "size": 1,
      "price": "1011000000000000000000",
      "reserved": "",
      "salt": "0x603941f651c3508f654de1c7c3768d3ef9f552e8fc7c441c984420d7b3c8fba7",
      "assetIds": []
    },
    {
      "x": 132,
      "y": 210,
      "size": 1,
      "price": "1011000000000000000000",
      "reserved": "",
      "salt": "0x86d62ef0ca6322b711b28eb554bf59d13cffab8bbfb1830b5db7abffbc606cb1",
      "assetIds": []
    },
    {
      "x": 132,
      "y": 211,
      "size": 1,
      "price": "1011000000000000000000",
      "reserved": "",
      "salt": "0xd9bdf996b5df74a2542ed1701fd481966ef67dab69224280a70d5ba23a852459",
      "assetIds": []
    },
    {
      "x": 132,
      "y": 212,
      "size": 1,
      "price": "1011000000000000000000",
      "reserved": "",
      "salt": "0x66028427f899c44d9881992d11edc5a1ea1b50de213b5321c9d6788f8c0c898d",
      "assetIds": []
    },
    {
      "x": 132,
      "y": 213,
      "size": 1,
      "price": "1011000000000000000000",
      "reserved": "",
      "salt": "0x663957ab5c93777e96f6a96a8cfbcc1324c74429d8e4cd52b6bb5a0d898a1b7c",
      "assetIds": []
    },
    {
      "x": 132,
      "y": 214,
      "size": 1,
      "price": "1011000000000000000000",
      "reserved": "",
      "salt": "0x2b384cb1e0663d7d36b22bbc7b532e04ce0892513afefbe9c38d02779d0c74c4",
      "assetIds": []
    },
    {
      "x": 132,
      "y": 215,
      "size": 1,
      "price": "4683000000000000000000",
      "reserved": "",
      "salt": "0x4ce5c2a328e5ceda13d31632554e3c3b1dfe5e817a0f69684b07b3b04f738503",
      "assetIds": []
    },
    {
      "x": 132,
      "y": 240,
      "size": 1,
      "price": "4683000000000000000000",
      "reserved": "",
      "salt": "0x41462ef9e031441c443517c476a2bdef832080d1531717bb780a08cc5a83c10d",
      "assetIds": []
    },
    {
      "x": 132,
      "y": 241,
      "size": 1,
      "price": "1011000000000000000000",
      "reserved": "",
      "salt": "0x3fed3f16e655061f88467d53d3af33ca76143e55f326e06b287b099b50c631d5",
      "assetIds": []
    },
    {
      "x": 132,
      "y": 242,
      "size": 1,
      "price": "1011000000000000000000",
      "reserved": "",
      "salt": "0xc4a135a332104706ae32a8db661574ba5e9b9abba622ac1aeb6fe518532b88fd",
      "assetIds": []
    },
    {
      "x": 133,
      "y": 204,
      "size": 1,
      "price": "4683000000000000000000",
      "reserved": "",
      "salt": "0x3edd827cc6dd7859357fc77ef19c7698e5a9a38a7531865e2adcd0cf27e9d7fc",
      "assetIds": []
    },
    {
      "x": 133,
      "y": 205,
      "size": 1,
      "price": "1011000000000000000000",
      "reserved": "",
      "salt": "0x9930c2a3cb4cb103f8f115ea2a81f8fd42fdf378b4b4d9e7e454d5ff36537523",
      "assetIds": []
    },
    {
      "x": 133,
      "y": 206,
      "size": 1,
      "price": "1011000000000000000000",
      "reserved": "",
      "salt": "0x219d994235a4ee821b2f4a533138703566395ca3aa1f909721621c36954efb24",
      "assetIds": []
    },
    {
      "x": 133,
      "y": 207,
      "size": 1,
      "price": "1011000000000000000000",
      "reserved": "",
      "salt": "0xaf9443fc3715ed76df3f3ad68749f7b5b062a49c1b727ed6d964be4ad56981c9",
      "assetIds": []
    },
    {
      "x": 133,
      "y": 208,
      "size": 1,
      "price": "1011000000000000000000",
      "reserved": "",
      "salt": "0xdc404041a53e0d2a5fcf4e82674ff9e5362318ee200b9e2d026c9e8bbbfd50b8",
      "assetIds": []
    },
    {
      "x": 133,
      "y": 209,
      "size": 1,
      "price": "1011000000000000000000",
      "reserved": "",
      "salt": "0xbe8e3448a15c146dd7462a15c7488ac4440928b700e241e62ca9a447dc746498",
      "assetIds": []
    },
    {
      "x": 133,
      "y": 210,
      "size": 1,
      "price": "1011000000000000000000",
      "reserved": "",
      "salt": "0x3c68df4c56733c8780117f25e65fa4718309a7e4be800951e25f24fbfdba4362",
      "assetIds": []
    },
    {
      "x": 133,
      "y": 211,
      "size": 1,
      "price": "1011000000000000000000",
      "reserved": "",
      "salt": "0x7f9ee74e343cd0df627c8435cef177ae4d4d3692c2e70841ff3528a041fa5c87",
      "assetIds": []
    },
    {
      "x": 133,
      "y": 212,
      "size": 1,
      "price": "1011000000000000000000",
      "reserved": "",
      "salt": "0x294c1335061bc0ee3f3dde6fe62ae50202ece2bfb3b2aedfb9a4bbff55784459",
      "assetIds": []
    },
    {
      "x": 133,
      "y": 213,
      "size": 1,
      "price": "1011000000000000000000",
      "reserved": "",
      "salt": "0xbf100435a8fff036af7eaf42d5255c7fdea701c9d937893faa81b3206d574329",
      "assetIds": []
    },
    {
      "x": 133,
      "y": 214,
      "size": 1,
      "price": "1011000000000000000000",
      "reserved": "",
      "salt": "0x7b3a0f347f4212c07e4c7b8b7f100242352265989f6a068d013c995d587ce04c",
      "assetIds": []
    },
    {
      "x": 133,
      "y": 215,
      "size": 1,
      "price": "4683000000000000000000",
      "reserved": "",
      "salt": "0x31edf9af12a55dc95a94478f497bec96ab495a0369d6ee88220c0fe2182959a7",
      "assetIds": []
    },
    {
      "x": 133,
      "y": 240,
      "size": 1,
      "price": "4683000000000000000000",
      "reserved": "",
      "salt": "0xe6cb900cdbcf87aeb45a837fa7f4d4624a324168cc8fa73798b979dc54d484a0",
      "assetIds": []
    },
    {
      "x": 133,
      "y": 241,
      "size": 1,
      "price": "1011000000000000000000",
      "reserved": "",
      "salt": "0x6bb8143823e11713d39fbc9d2f6d2d7697715b64ac2fe24fe23e6fab29b46254",
      "assetIds": []
    },
    {
      "x": 133,
      "y": 242,
      "size": 1,
      "price": "1011000000000000000000",
      "reserved": "",
      "salt": "0x8e7dc9ff1eb920dc5af103ff5c99f1153fbc4d5b118571089fb463902fffb848",
      "assetIds": []
    },
    {
      "x": 134,
      "y": 204,
      "size": 1,
      "price": "4683000000000000000000",
      "reserved": "",
      "salt": "0x185c9806697d52c7e3d9e28b17d9f40ed3cc72b8ae9e6a018992d674378a814c",
      "assetIds": []
    },
    {
      "x": 134,
      "y": 205,
      "size": 1,
      "price": "1011000000000000000000",
      "reserved": "",
      "salt": "0xabb1576cbf13b740669f9154c6ac6feeeda6d730251647e1ca72d7c3715aa8cc",
      "assetIds": []
    },
    {
      "x": 134,
      "y": 206,
      "size": 1,
      "price": "1011000000000000000000",
      "reserved": "",
      "salt": "0x7a1843601ec6f10fdffb95da64530b2ce23618c3f1142a2b53a428d697628092",
      "assetIds": []
    },
    {
      "x": 134,
      "y": 207,
      "size": 1,
      "price": "1011000000000000000000",
      "reserved": "",
      "salt": "0x66698620eafa10648753db818b9098dceec14790f957e19f0e51afad7a917c6d",
      "assetIds": []
    },
    {
      "x": 134,
      "y": 208,
      "size": 1,
      "price": "1011000000000000000000",
      "reserved": "",
      "salt": "0xf9147e6de19b295bb081ad2c229a1aeb3cf61936a908994457ecbd8b6487f171",
      "assetIds": []
    },
    {
      "x": 134,
      "y": 209,
      "size": 1,
      "price": "1011000000000000000000",
      "reserved": "",
      "salt": "0xb5ba7c995d40a3d9518c8606017d09afc535a210450cb711a91f1f3aadc57610",
      "assetIds": []
    },
    {
      "x": 134,
      "y": 210,
      "size": 1,
      "price": "1011000000000000000000",
      "reserved": "",
      "salt": "0xe1964dbf97285a662105736a9ea9bf73eb4db780913812361938950015f09924",
      "assetIds": []
    },
    {
      "x": 134,
      "y": 211,
      "size": 1,
      "price": "1011000000000000000000",
      "reserved": "",
      "salt": "0x6669928d4cdebd1bf66aa6fb60a46736c4c45a05d3d2f13b6c63cd2afd6e3c74",
      "assetIds": []
    },
    {
      "x": 134,
      "y": 212,
      "size": 1,
      "price": "1011000000000000000000",
      "reserved": "0x7a9fe22691c811ea339d9b73150e6911a5343dca",
      "salt": "0xa9beb7063f8a3b5582d7018da04778e53f3e6ad8793540766b3ef33daca2969c",
      "assetIds": []
    },
    {
      "x": 134,
      "y": 213,
      "size": 1,
      "price": "1011000000000000000000",
      "reserved": "",
      "salt": "0xdaa0cfe1202cb5b3f0012cf56811cbcbec98f376a6167d3a54c5eeeb32663d9e",
      "assetIds": []
    },
    {
      "x": 134,
      "y": 214,
      "size": 1,
      "price": "1011000000000000000000",
      "reserved": "",
      "salt": "0x63bef0eabba37e0fe35ddfab66c135aa87691c8d5e0dedbc132530e0a5c187bb",
      "assetIds": []
    },
    {
      "x": 134,
      "y": 215,
      "size": 1,
      "price": "1011000000000000000000",
      "reserved": "0x7a9fe22691c811ea339d9b73150e6911a5343dca",
      "salt": "0xc1f1550acb5c66e2f8228d05292f26fd2ae1d49ee710fd4e7e6cf5309e97d993",
      "assetIds": []
    },
    {
      "x": 134,
      "y": 240,
      "size": 1,
      "price": "4683000000000000000000",
      "reserved": "",
      "salt": "0x36f5bd978edd4b7a15e9a33862dc883ed5384af1271bc37c329fa5abd7062201",
      "assetIds": []
    },
    {
      "x": 134,
      "y": 241,
      "size": 1,
      "price": "1011000000000000000000",
      "reserved": "",
      "salt": "0xc6cc0f74d8c026566e1d7abab912911235547573649d958a3e0ea7fc9539a84a",
      "assetIds": []
    },
    {
      "x": 134,
      "y": 242,
      "size": 1,
      "price": "1011000000000000000000",
      "reserved": "",
      "salt": "0x7c604db2f3da8dd421740f893a64a1960f145e203b377cf789f534fe5e91e152",
      "assetIds": []
    },
    {
      "x": 135,
      "y": 201,
      "size": 1,
      "price": "1011000000000000000000",
      "reserved": "",
      "salt": "0xf407c5201474741b2ad35106615e78abe309588b5f33068e72a101d6605101e4",
      "assetIds": []
    },
    {
      "x": 135,
      "y": 202,
      "size": 1,
      "price": "4683000000000000000000",
      "reserved": "",
      "salt": "0xa8ca7d511743196ecd4c0e18e39c689b89f00b70e591267f8bdd7c300f582ec1",
      "assetIds": []
    },
    {
      "x": 135,
      "y": 203,
      "size": 1,
      "price": "4683000000000000000000",
      "reserved": "",
      "salt": "0x347aa328c1fb333a76c3c9db8dd04aef5dcd3bae234339fc708c88776f0a7faf",
      "assetIds": []
    },
    {
      "x": 135,
      "y": 204,
      "size": 1,
      "price": "1011000000000000000000",
      "reserved": "",
      "salt": "0x3ef9f30a40d6a082452e1489b98f4f41147f7469b4c1d353307beb0730031808",
      "assetIds": []
    },
    {
      "x": 135,
      "y": 205,
      "size": 1,
      "price": "1011000000000000000000",
      "reserved": "",
      "salt": "0x79adf67bc3215bbbeee22268d8e75d18177c74d1868e4c9a9974607d8d2d2e97",
      "assetIds": []
    },
    {
      "x": 135,
      "y": 206,
      "size": 1,
      "price": "1011000000000000000000",
      "reserved": "",
      "salt": "0x5ccd2a27f949ae837ac5f489086a6c86564eead60772205bd47fdd0986c8143c",
      "assetIds": []
    },
    {
      "x": 135,
      "y": 210,
      "size": 1,
      "price": "1011000000000000000000",
      "reserved": "",
      "salt": "0x8c0fd1e333aa8cf4ceb809025b46c434123c630e21471f3e4f43001291b0faab",
      "assetIds": []
    },
    {
      "x": 135,
      "y": 211,
      "size": 1,
      "price": "1011000000000000000000",
      "reserved": "",
      "salt": "0xc16b0ebb83ef9c8050de3fea79bb5aa96f3fc60b4f0cb38844c03b3a794d124a",
      "assetIds": []
    },
    {
      "x": 135,
      "y": 212,
      "size": 1,
      "price": "1011000000000000000000",
      "reserved": "",
      "salt": "0x7833e807bea39d893b0802df448515fe654124e72e78a86652116d0365eb459e",
      "assetIds": []
    },
    {
      "x": 135,
      "y": 213,
      "size": 1,
      "price": "1011000000000000000000",
      "reserved": "",
      "salt": "0x41a888a7ebaac862bba11b82c9440d52d4d66cc7d880f06f6419698a79940100",
      "assetIds": []
    },
    {
      "x": 135,
      "y": 214,
      "size": 1,
      "price": "1011000000000000000000",
      "reserved": "",
      "salt": "0x4e047dcab12bb8afda40c53416be2dbea9c8456debdac06fa840d12b43b94f4b",
      "assetIds": []
    },
    {
      "x": 135,
      "y": 215,
      "size": 1,
      "price": "4683000000000000000000",
      "reserved": "",
      "salt": "0x8b7352c753203b5cb8215aced1fe2daa25e6e8006d7cb03f04e98c916a28e373",
      "assetIds": []
    },
    {
      "x": 135,
      "y": 240,
      "size": 1,
      "price": "4683000000000000000000",
      "reserved": "",
      "salt": "0x21a15254cdd88660e5a7621d126d47b399d10da04afa2ee7c36c3fccbed9ce3d",
      "assetIds": []
    },
    {
      "x": 135,
      "y": 241,
      "size": 1,
      "price": "1011000000000000000000",
      "reserved": "",
      "salt": "0x9cbf4a28d658c13a884ce57f7b482e68b4f02eb2bd37f933cae173e63a265bf7",
      "assetIds": []
    },
    {
      "x": 135,
      "y": 242,
      "size": 1,
      "price": "1011000000000000000000",
      "reserved": "",
      "salt": "0x3b0ea8983a4f95be0ceaf219bd51e9b2356e7e3106bfb83def1eae64b60b449e",
      "assetIds": []
    },
    {
      "x": 136,
      "y": 201,
      "size": 1,
      "price": "1011000000000000000000",
      "reserved": "",
      "salt": "0x06678b92caa6746f9a36a534ca12d657e9e71d6ec44e5531c02447e31d4fd7d7",
      "assetIds": []
    },
    {
      "x": 136,
      "y": 202,
      "size": 1,
      "price": "1011000000000000000000",
      "reserved": "",
      "salt": "0x5fbd941826d73b38e15188ea9093d1ed56bcad53bdd5d26abb5f1ff0b774b6e5",
      "assetIds": []
    },
    {
      "x": 136,
      "y": 203,
      "size": 1,
      "price": "1011000000000000000000",
      "reserved": "",
      "salt": "0x6c0138bafb84136937d1854737e4fc229ee84713151851e068ccd4863b8bdee0",
      "assetIds": []
    },
    {
      "x": 136,
      "y": 204,
      "size": 1,
      "price": "1011000000000000000000",
      "reserved": "",
      "salt": "0x46f6f4e3f5fee371692d0fc0cc9e61a3b5dad352870382cb33cd19f7ebe3f688",
      "assetIds": []
    },
    {
      "x": 136,
      "y": 205,
      "size": 1,
      "price": "1011000000000000000000",
      "reserved": "",
      "salt": "0xf79a8c279e06cd6827c4d0f2c4730bd53961ca119fff56b3e744fced5368bc81",
      "assetIds": []
    },
    {
      "x": 136,
      "y": 206,
      "size": 1,
      "price": "1011000000000000000000",
      "reserved": "",
      "salt": "0x8f413db847a07b5ad7653abce89cba5f0771aee57a7deaa461ae6992fb1de400",
      "assetIds": []
    },
    {
      "x": 136,
      "y": 210,
      "size": 1,
      "price": "1011000000000000000000",
      "reserved": "",
      "salt": "0xdedbc8851a3099d4f258371607beb934d8a96a393a639166b42034a0e7f7db68",
      "assetIds": []
    },
    {
      "x": 136,
      "y": 211,
      "size": 1,
      "price": "1011000000000000000000",
      "reserved": "",
      "salt": "0x6e165c77695af0b919c0cca9521f159b2857ff7ebefc570e4349f3fe8fd995e8",
      "assetIds": []
    },
    {
      "x": 136,
      "y": 212,
      "size": 1,
      "price": "1011000000000000000000",
      "reserved": "",
      "salt": "0xe23977fb19130eae9308a845967726de81cbfe46721d8378c688c9f02a05a86e",
      "assetIds": []
    },
    {
      "x": 136,
      "y": 213,
      "size": 1,
      "price": "1011000000000000000000",
      "reserved": "",
      "salt": "0x6ce4e4f33b3f87b471054000858878daaf23c0cb901e0cf8cd2d387b3f2d0d85",
      "assetIds": []
    },
    {
      "x": 136,
      "y": 214,
      "size": 1,
      "price": "1011000000000000000000",
      "reserved": "",
      "salt": "0x3930c3087f8654181949d7a7682e9feeac9a28f78e5adc5aa8ae364ba2835e7d",
      "assetIds": []
    },
    {
      "x": 136,
      "y": 215,
      "size": 1,
      "price": "4683000000000000000000",
      "reserved": "",
      "salt": "0x793d403cac499a855e324ac963f213794d9d8d278546e6b1f444022608d2959c",
      "assetIds": []
    },
    {
      "x": 136,
      "y": 240,
      "size": 1,
      "price": "4683000000000000000000",
      "reserved": "",
      "salt": "0xb69468375174d60836474b01e0dd43390cd8f3f25f35037dcbccdb1f727722d0",
      "assetIds": []
    },
    {
      "x": 136,
      "y": 241,
      "size": 1,
      "price": "1011000000000000000000",
      "reserved": "",
      "salt": "0xd6d7e173fe234c0e899f9689fec6d165857484c041d63ca006b4efcd2541ae9b",
      "assetIds": []
    },
    {
      "x": 136,
      "y": 242,
      "size": 1,
      "price": "1011000000000000000000",
      "reserved": "",
      "salt": "0xf905e8c4103c11edb8a84791bf4d3ac2cab4de09a81b2ec93e64d46da1bbc4ac",
      "assetIds": []
    },
    {
      "x": 137,
      "y": 201,
      "size": 1,
      "price": "1011000000000000000000",
      "reserved": "",
      "salt": "0xcaf1547a745760bed0b36a22227dec588c74b2b10aab4ded9ef45ffd22d09e28",
      "assetIds": []
    },
    {
      "x": 137,
      "y": 202,
      "size": 1,
      "price": "1011000000000000000000",
      "reserved": "",
      "salt": "0x3b0418a1eff8a01c9996ea04e0809565d89ae32badacd91f71f6c264b4091738",
      "assetIds": []
    },
    {
      "x": 137,
      "y": 203,
      "size": 1,
      "price": "1011000000000000000000",
      "reserved": "",
      "salt": "0x5808143c8b1ace7828add0cb9749afef938b850b888afc6611d29eb1c6dc3f9b",
      "assetIds": []
    },
    {
      "x": 137,
      "y": 204,
      "size": 1,
      "price": "1011000000000000000000",
      "reserved": "",
      "salt": "0x95360a335b8f14e4c0089ad7f7a38456c314f53b5c1df53fedbc0be229aabef1",
      "assetIds": []
    },
    {
      "x": 137,
      "y": 205,
      "size": 1,
      "price": "1011000000000000000000",
      "reserved": "",
      "salt": "0xeffeb174452c33f7c8e64baa1259845f57a961b30897802b313a4f3eb8d6d00f",
      "assetIds": []
    },
    {
      "x": 137,
      "y": 206,
      "size": 1,
      "price": "1011000000000000000000",
      "reserved": "",
      "salt": "0xa3c090e7008089d2a6d95d423a192248b367ddeae53bf72d122b42bf73afda0f",
      "assetIds": []
    },
    {
      "x": 137,
      "y": 210,
      "size": 1,
      "price": "1011000000000000000000",
      "reserved": "",
      "salt": "0x7e97bdb1c4a47cc125f61e3367cb22b1f0811907a23b8a93741afa9ccd960a40",
      "assetIds": []
    },
    {
      "x": 137,
      "y": 211,
      "size": 1,
      "price": "1011000000000000000000",
      "reserved": "",
      "salt": "0x1082bb0ef63a53fb55711cd3cd7d74a63349a3b3c5fc4ce884067fd678890d56",
      "assetIds": []
    },
    {
      "x": 137,
      "y": 212,
      "size": 1,
      "price": "1011000000000000000000",
      "reserved": "",
      "salt": "0x14196e7fa27f55e56d214fe965e5ff2e8e459f9136aba6bd320131781ce41b2e",
      "assetIds": []
    },
    {
      "x": 137,
      "y": 213,
      "size": 1,
      "price": "1011000000000000000000",
      "reserved": "",
      "salt": "0x84fb78797ff7c436343f43a419c78869fa3cb6ea66e8f38bedd132c21c522b21",
      "assetIds": []
    },
    {
      "x": 137,
      "y": 214,
      "size": 1,
      "price": "1011000000000000000000",
      "reserved": "",
      "salt": "0x889c47545d3a86c4ef057c83d343f5645817a95d11b11e1b234413d83e3bc86b",
      "assetIds": []
    },
    {
      "x": 137,
      "y": 215,
      "size": 1,
      "price": "4683000000000000000000",
      "reserved": "",
      "salt": "0xeb3aff029d75244fc93c80de3bd86e518da0ecba60e1347c61d366580b357c96",
      "assetIds": []
    },
    {
      "x": 137,
      "y": 240,
      "size": 1,
      "price": "4683000000000000000000",
      "reserved": "",
      "salt": "0xd4df71c2d8a0de91006c2b454cda0f3e85f151e815d2dc54262d62ebb8dbd752",
      "assetIds": []
    },
    {
      "x": 137,
      "y": 241,
      "size": 1,
      "price": "1011000000000000000000",
      "reserved": "",
      "salt": "0x4dd0fdb05e621b4529c388b024a46a14e2a7f0870b4a9f3ba94111f949123cfd",
      "assetIds": []
    },
    {
      "x": 137,
      "y": 242,
      "size": 1,
      "price": "1011000000000000000000",
      "reserved": "",
      "salt": "0x8949ebb8c536c834bc9b82bd9fbd6226fd7db70544c207588231338f2a3c429c",
      "assetIds": []
    },
    {
      "x": 138,
      "y": 204,
      "size": 1,
      "price": "1011000000000000000000",
      "reserved": "",
      "salt": "0xe804e5950b99cfdead625a95f7237a031a62d2c3cbb7d233930a472ee9d14d0a",
      "assetIds": []
    },
    {
      "x": 138,
      "y": 205,
      "size": 1,
      "price": "1011000000000000000000",
      "reserved": "",
      "salt": "0x95f0a17ae46028b1b1dbb7c8fa209b932b2ca9eb20868ae06b2f1db5c7379684",
      "assetIds": []
    },
    {
      "x": 138,
      "y": 206,
      "size": 1,
      "price": "1011000000000000000000",
      "reserved": "",
      "salt": "0xc8e64adb175e869722e03c2c19878bd60011c265dc2da71d2d4b43728587db05",
      "assetIds": []
    },
    {
      "x": 138,
      "y": 210,
      "size": 1,
      "price": "1011000000000000000000",
      "reserved": "",
      "salt": "0x94f38778031b6d49bd339c5da11602734f2d20dfcce55c0fa98ec404e2f9e6b0",
      "assetIds": []
    },
    {
      "x": 138,
      "y": 211,
      "size": 1,
      "price": "1011000000000000000000",
      "reserved": "",
      "salt": "0x56da7df04f69318b2adf75cc83c87640e7f5502bf099d4f476b4ca7ff803397f",
      "assetIds": []
    },
    {
      "x": 138,
      "y": 212,
      "size": 1,
      "price": "1011000000000000000000",
      "reserved": "",
      "salt": "0x509033d10a09098417d5b45eef67e2dd367e2a4bc42a2991e2f0b5e106a464c1",
      "assetIds": []
    },
    {
      "x": 139,
      "y": 204,
      "size": 1,
      "price": "1011000000000000000000",
      "reserved": "",
      "salt": "0x09122106175550136c6df5ff539e0617c8d6d9c0b38a7db23c049adb81cd699c",
      "assetIds": []
    },
    {
      "x": 139,
      "y": 205,
      "size": 1,
      "price": "1011000000000000000000",
      "reserved": "",
      "salt": "0x5429a872bf2833182c4cb97c655aa0e8140db8493add20ca096bf28007b002c8",
      "assetIds": []
    },
    {
      "x": 139,
      "y": 206,
      "size": 1,
      "price": "1011000000000000000000",
      "reserved": "",
      "salt": "0x84e3736547ecf765f603ee2b5b4a1d14d047e1ea7621a4df3a0611896f048f2b",
      "assetIds": []
    },
    {
      "x": 139,
      "y": 210,
      "size": 1,
      "price": "1011000000000000000000",
      "reserved": "",
      "salt": "0x430e3840d24b165f9619a6f5af374e3e86a6885d4a8bb1bcc593c09846bc5b0b",
      "assetIds": []
    },
    {
      "x": 139,
      "y": 211,
      "size": 1,
      "price": "1011000000000000000000",
      "reserved": "",
      "salt": "0xdb58b23bbf7a7c3c0bca663e9e63e78b61d6e97cc3dffdfad4a91cff79260657",
      "assetIds": []
    },
    {
      "x": 139,
      "y": 212,
      "size": 1,
      "price": "1011000000000000000000",
      "reserved": "",
      "salt": "0x74e0640561d597b1c81cf3624c80c54634fe8707f89b1c5cc4f85aa4bfcbe82a",
      "assetIds": []
    },
    {
      "x": 140,
      "y": 204,
      "size": 1,
      "price": "1011000000000000000000",
      "reserved": "",
      "salt": "0x50b1f5d0bb4f971728f206c60a5140e075801501fb7603d1a0a415552d4144bb",
      "assetIds": []
    },
    {
      "x": 140,
      "y": 205,
      "size": 1,
      "price": "1011000000000000000000",
      "reserved": "",
      "salt": "0x70596cb8e4f9b3466e6e16a89682fe612e63bf24dc9d4954cd9e16eb10178dee",
      "assetIds": []
    },
    {
      "x": 140,
      "y": 206,
      "size": 1,
      "price": "1011000000000000000000",
      "reserved": "",
      "salt": "0x6d80e48b61c84c708bb5d123a1990cd81ced6ea5cb456738d3e2a105e7b6b117",
      "assetIds": []
    },
    {
      "x": 140,
      "y": 210,
      "size": 1,
      "price": "1011000000000000000000",
      "reserved": "",
      "salt": "0xaf0d0b571e149a983720ac0b6198f88c6c928db72d6c2b3817f1951e7a827b3b",
      "assetIds": []
    },
    {
      "x": 140,
      "y": 211,
      "size": 1,
      "price": "1011000000000000000000",
      "reserved": "",
      "salt": "0xb634b9d1da730fb00bfeb852576b5f5389c82bfa963d052f7885827d8ac71e73",
      "assetIds": []
    },
    {
      "x": 140,
      "y": 212,
      "size": 1,
      "price": "1011000000000000000000",
      "reserved": "",
      "salt": "0x281f28fefcc91ff7848af6e1f53ec2c876ef7ebbcea9fb9c7cd9713132820eea",
      "assetIds": []
    },
    {
      "x": 141,
      "y": 201,
      "size": 1,
      "price": "1011000000000000000000",
      "reserved": "",
      "salt": "0x0bf6a8ecf64f966a1eaad319817acfe4c9372ac900be673018f292117db7cf65",
      "assetIds": []
    },
    {
      "x": 141,
      "y": 202,
      "size": 1,
      "price": "1011000000000000000000",
      "reserved": "",
      "salt": "0x5a97b45448cd01a402a54e1981a97b54cf64f95b523c5cd5a521f65aaadce839",
      "assetIds": []
    },
    {
      "x": 141,
      "y": 203,
      "size": 1,
      "price": "1011000000000000000000",
      "reserved": "",
      "salt": "0xa0ed1fa35c9a3b7cd1f72c5d8fc5842e590726c1d5e32bbc3a235c55e3019e7d",
      "assetIds": []
    },
    {
      "x": 141,
      "y": 204,
      "size": 1,
      "price": "1011000000000000000000",
      "reserved": "",
      "salt": "0x94f8af382f67e7ae7458be0a81cf036956115e42a6f7b58f9d217d519b94697e",
      "assetIds": []
    },
    {
      "x": 141,
      "y": 205,
      "size": 1,
      "price": "1011000000000000000000",
      "reserved": "",
      "salt": "0x6efe27a5a53226d3da7ec4aae27b92920c261a71ac23d58e590eebf07552c844",
      "assetIds": []
    },
    {
      "x": 141,
      "y": 206,
      "size": 1,
      "price": "1011000000000000000000",
      "reserved": "",
      "salt": "0x00ed962c8f568174232c744bf217f63c4e06b114a47331f0acfd98d8ad6bfbb2",
      "assetIds": []
    },
    {
      "x": 141,
      "y": 207,
      "size": 1,
      "price": "1011000000000000000000",
      "reserved": "",
      "salt": "0x0eb95a99c31e5087c4e1d91334654ac8bbe0a62efbb9a03cb11a33bedcd74102",
      "assetIds": []
    },
    {
      "x": 141,
      "y": 208,
      "size": 1,
      "price": "1011000000000000000000",
      "reserved": "",
      "salt": "0xef57a4edcfad6155519ea8447553954fc4e69164f3d03c0c55ca33cdfc8fb4a7",
      "assetIds": []
    },
    {
      "x": 141,
      "y": 209,
      "size": 1,
      "price": "1011000000000000000000",
      "reserved": "",
      "salt": "0x1e8824aca980a78b165e4d8f1a13f3348bdd28ff9c5fc0e5ef14ad148ddbf6f4",
      "assetIds": []
    },
    {
      "x": 141,
      "y": 210,
      "size": 1,
      "price": "1011000000000000000000",
      "reserved": "",
      "salt": "0x494b34205063bf865713c6ccbe5e0c13f873919e7582f54c2d50398b547c78c0",
      "assetIds": []
    },
    {
      "x": 141,
      "y": 211,
      "size": 1,
      "price": "1011000000000000000000",
      "reserved": "",
      "salt": "0x2462857e5cec588643998b9ca0ab7c7bace64a237a1d520575fa4e6453e2a567",
      "assetIds": []
    },
    {
      "x": 141,
      "y": 212,
      "size": 1,
      "price": "1011000000000000000000",
      "reserved": "",
      "salt": "0x7d2f82c8058c25c6f667e0843ee1b87b72ec3ea729ff746d5c8c99ea7cff9373",
      "assetIds": []
    },
    {
      "x": 141,
      "y": 213,
      "size": 1,
      "price": "1011000000000000000000",
      "reserved": "",
      "salt": "0x0cbc0cdc224c55bcc1ed18d3bf8b8f211afd65b0435439dc91abed7a221b50c5",
      "assetIds": []
    },
    {
      "x": 141,
      "y": 214,
      "size": 1,
      "price": "1011000000000000000000",
      "reserved": "",
      "salt": "0x86a0f09bae2df94e1d2595eb03cec02afd1d1fbf1af0a27d8315dd7933aaab3b",
      "assetIds": []
    },
    {
      "x": 141,
      "y": 215,
      "size": 1,
      "price": "4683000000000000000000",
      "reserved": "",
      "salt": "0x873ceb829a8fcf568bd8416a060adbb979b7089037f7e19747add3a6ba926dd7",
      "assetIds": []
    },
    {
      "x": 141,
      "y": 240,
      "size": 1,
      "price": "4683000000000000000000",
      "reserved": "",
      "salt": "0x35657bec46d5d465654013915a59f87b6cb00c64834f7fc16a39eec68a75eddc",
      "assetIds": []
    },
    {
      "x": 141,
      "y": 241,
      "size": 1,
      "price": "1011000000000000000000",
      "reserved": "",
      "salt": "0xa2c6fff4d9aae8f1d2ad7d4fa247dabd4a81ad522fe5629d2ac47b207ea007c1",
      "assetIds": []
    },
    {
      "x": 141,
      "y": 242,
      "size": 1,
      "price": "1011000000000000000000",
      "reserved": "",
      "salt": "0xd1dc18b43b60479e130f7e37c1f85b4365175b2b37b5c4d2a85f50a3cbf9425d",
      "assetIds": []
    },
    {
      "x": 142,
      "y": 201,
      "size": 1,
      "price": "1011000000000000000000",
      "reserved": "",
      "salt": "0xac289d8fa982df13ffa4bc4b5fce640dbfc1f34c4c0650e5b2efabfffe78a295",
      "assetIds": []
    },
    {
      "x": 142,
      "y": 202,
      "size": 1,
      "price": "1011000000000000000000",
      "reserved": "",
      "salt": "0x5d2a32e79c96ac4ab27acdcca0729a4c316848f4823219f42316bde8054beeb0",
      "assetIds": []
    },
    {
      "x": 142,
      "y": 203,
      "size": 1,
      "price": "1011000000000000000000",
      "reserved": "",
      "salt": "0x352f2c45bbd0b258cae45be3a5133d7c902f4a80d312ab781aab87c062a1e952",
      "assetIds": []
    },
    {
      "x": 142,
      "y": 204,
      "size": 1,
      "price": "1011000000000000000000",
      "reserved": "",
      "salt": "0xa98f828c38e84eb251b755a879a566cf677b7f9b4402d12f0abc13de46f15fec",
      "assetIds": []
    },
    {
      "x": 142,
      "y": 205,
      "size": 1,
      "price": "1011000000000000000000",
      "reserved": "",
      "salt": "0x1f8d3bebc7851d907adcd991ce83f816ce0fe743671a85f23a5f7561085f6ad3",
      "assetIds": []
    },
    {
      "x": 142,
      "y": 206,
      "size": 1,
      "price": "1011000000000000000000",
      "reserved": "",
      "salt": "0x8f3248feca39d43145dcd8c57cf4a3d5c55a291d4ed6ad2344752a247fe6b01a",
      "assetIds": []
    },
    {
      "x": 142,
      "y": 207,
      "size": 1,
      "price": "1011000000000000000000",
      "reserved": "",
      "salt": "0xd354dbc5447c82ffc8d6da07e37a4e4c220fff80ad4fc18c8e227d00343908e5",
      "assetIds": []
    },
    {
      "x": 142,
      "y": 208,
      "size": 1,
      "price": "1011000000000000000000",
      "reserved": "",
      "salt": "0x9273d84618e8a765edf0bc4eea0a1fc60d5868f9a0353f32e1c5ab9ec6d35136",
      "assetIds": []
    },
    {
      "x": 142,
      "y": 209,
      "size": 1,
      "price": "1011000000000000000000",
      "reserved": "",
      "salt": "0x1e751e410d753898698ec0a81e7844bb8f0fd616d8b51dc3a1c6b6783a0ad53e",
      "assetIds": []
    },
    {
      "x": 142,
      "y": 210,
      "size": 1,
      "price": "1011000000000000000000",
      "reserved": "",
      "salt": "0xad123b1f2d3db306407a0adee0002a6111b4baa3a0e734088f42e21347837668",
      "assetIds": []
    },
    {
      "x": 142,
      "y": 211,
      "size": 1,
      "price": "1011000000000000000000",
      "reserved": "",
      "salt": "0x34aeb7f5260b46b593d86b21ab831a8b8a8b148960e0b120caaf58c996cd981b",
      "assetIds": []
    },
    {
      "x": 142,
      "y": 212,
      "size": 1,
      "price": "1011000000000000000000",
      "reserved": "",
      "salt": "0x13c4def69a93fe640dfdcc74564c8e075df2ced09b3cdfb2fa7b31a7d12e2b55",
      "assetIds": []
    },
    {
      "x": 142,
      "y": 213,
      "size": 1,
      "price": "1011000000000000000000",
      "reserved": "",
      "salt": "0x9c82596f03b95cec90e01155fd4790fce7971e27f1d1f03c0cd731ca7e288cbc",
      "assetIds": []
    },
    {
      "x": 142,
      "y": 214,
      "size": 1,
      "price": "1011000000000000000000",
      "reserved": "0x7a9fe22691c811ea339d9b73150e6911a5343dca",
      "salt": "0x0cb78a6357f03b5e0b3d0b325f610746412f892c93cf6eb65ca54aff4b320623",
      "assetIds": []
    },
    {
      "x": 142,
      "y": 215,
      "size": 1,
      "price": "4683000000000000000000",
      "reserved": "",
      "salt": "0xf7ecfb687882277e75d9a1c6efb5b26ab45489729be30d58a9bbc8f574f0a16b",
      "assetIds": []
    },
    {
      "x": 142,
      "y": 240,
      "size": 1,
      "price": "4683000000000000000000",
      "reserved": "",
      "salt": "0xea0a6b83bbcd5b8eacb4537f9ae4b0ebbdc0c48cd0be487704df2b852cf922cb",
      "assetIds": []
    },
    {
      "x": 142,
      "y": 241,
      "size": 1,
      "price": "1011000000000000000000",
      "reserved": "",
      "salt": "0x177d7ca7fb353b367c1379a2c3126cdd8cbc76e2b3a198a8e6a45973f1f344c2",
      "assetIds": []
    },
    {
      "x": 142,
      "y": 242,
      "size": 1,
      "price": "1011000000000000000000",
      "reserved": "",
      "salt": "0xc44236db987c08ca2231f4cb0af0a03960ecec9b612a79621dcfa8da92aae9f9",
      "assetIds": []
    },
    {
      "x": 143,
      "y": 201,
      "size": 1,
      "price": "1011000000000000000000",
      "reserved": "",
      "salt": "0x3af8def18036722f1b80a22b0eb5da7e19ec5381de47884966f3a371bfbb48e3",
      "assetIds": []
    },
    {
      "x": 143,
      "y": 202,
      "size": 1,
      "price": "1011000000000000000000",
      "reserved": "",
      "salt": "0x440624f5f860d89e394599bfd480c620cd09cea7c34bbff69d4ea47689930f8b",
      "assetIds": []
    },
    {
      "x": 143,
      "y": 203,
      "size": 1,
      "price": "1011000000000000000000",
      "reserved": "",
      "salt": "0x1345bc84724e2287875724a55ec28ff10dad4a53bbc3a0967629ab73d40fa23b",
      "assetIds": []
    },
    {
      "x": 143,
      "y": 204,
      "size": 1,
      "price": "1011000000000000000000",
      "reserved": "",
      "salt": "0xce40ca7dbcad9ad957bfc7a29778bc4361e26105a4eb9db43a36d0a7af07d977",
      "assetIds": []
    },
    {
      "x": 143,
      "y": 205,
      "size": 1,
      "price": "1011000000000000000000",
      "reserved": "",
      "salt": "0xffe7254f666c0e9dd8de37a4a2d24784e7617442284a8045409fc6043c625de2",
      "assetIds": []
    },
    {
      "x": 143,
      "y": 206,
      "size": 1,
      "price": "1011000000000000000000",
      "reserved": "",
      "salt": "0xaf956867ee8330f86b0e2824ec7c89670258a97523c7572ed16f478ed096e791",
      "assetIds": []
    },
    {
      "x": 143,
      "y": 207,
      "size": 1,
      "price": "1011000000000000000000",
      "reserved": "",
      "salt": "0xb2aa8b20caa9f9731c5219b5f4e1d4cdfb3f8c06d729d9c1dbddb27046d019f5",
      "assetIds": []
    },
    {
      "x": 143,
      "y": 208,
      "size": 1,
      "price": "1011000000000000000000",
      "reserved": "",
      "salt": "0x00337be6e9abb433b7b24f8a82ef340c396ebbb28fafb06fadc8227ab959f68d",
      "assetIds": []
    },
    {
      "x": 143,
      "y": 209,
      "size": 1,
      "price": "1011000000000000000000",
      "reserved": "",
      "salt": "0x39ce7a0e80c22bb82d243a946e591afdae3c7890a95402d32ef5db8bddd016bf",
      "assetIds": []
    },
    {
      "x": 143,
      "y": 210,
      "size": 1,
      "price": "1011000000000000000000",
      "reserved": "",
      "salt": "0x95524819c096ec13782a1eba3dcc645f20965f9032f492d0b0f6f3a153c2fd5e",
      "assetIds": []
    },
    {
      "x": 143,
      "y": 211,
      "size": 1,
      "price": "1011000000000000000000",
      "reserved": "",
      "salt": "0x0e47bb71877936dea87c8160b0270e75729a977165a9a7a63e63ac6a8c4d70a3",
      "assetIds": []
    },
    {
      "x": 143,
      "y": 212,
      "size": 1,
      "price": "1011000000000000000000",
      "reserved": "",
      "salt": "0xe7c784ff1e5a37d30fa9662d2bc73b8a40647d5d971a509d0e9f08d081d86471",
      "assetIds": []
    },
    {
      "x": 143,
      "y": 213,
      "size": 1,
      "price": "1011000000000000000000",
      "reserved": "",
      "salt": "0xc267fd5fbc73989799fcbf084dffa0cf6436f06e8d5cfcd0ddc78015cf61d6c3",
      "assetIds": []
    },
    {
      "x": 143,
      "y": 214,
      "size": 1,
      "price": "1011000000000000000000",
      "reserved": "",
      "salt": "0xdd1ad17cffeeec279fe9d2a3d70f87341e2c8b51efcc21d9d6e62a00a5f02d4f",
      "assetIds": []
    },
    {
      "x": 143,
      "y": 215,
      "size": 1,
      "price": "4683000000000000000000",
      "reserved": "",
      "salt": "0x30106dfca7190e7172166d8468c9e375369d3aee5881b68372e39ba4599231da",
      "assetIds": []
    },
    {
      "x": 143,
      "y": 240,
      "size": 1,
      "price": "4683000000000000000000",
      "reserved": "",
      "salt": "0xcaa0c7ea0f364e8186e8ba57aadc87007339d44c982e4f17bad457f4153796ff",
      "assetIds": []
    },
    {
      "x": 143,
      "y": 241,
      "size": 1,
      "price": "1011000000000000000000",
      "reserved": "",
      "salt": "0x5ed3b07870c6e49253f5de48d05a9b8ce4f8a6c99a0f4cbfe3cf7cf614f488a2",
      "assetIds": []
    },
    {
      "x": 143,
      "y": 242,
      "size": 1,
      "price": "1011000000000000000000",
      "reserved": "",
      "salt": "0x0d6102c7e73b9f34835f9e59d2622819bf026c760483d5aca21d468cfaf2f44a",
      "assetIds": []
    },
    {
      "x": 144,
      "y": 216,
      "size": 1,
      "price": "4683000000000000000000",
      "reserved": "",
      "salt": "0xc3564fdb8c289f135b7492ac5558b68aa6be67e40ed523f7337ec8a320010b50",
      "assetIds": []
    },
    {
      "x": 144,
      "y": 217,
      "size": 1,
      "price": "4683000000000000000000",
      "reserved": "",
      "salt": "0xa5163ba29bdd3643baef1fa3f1bfd4dde16159d2b9277d06581e1b712ce28b8e",
      "assetIds": []
    },
    {
      "x": 144,
      "y": 218,
      "size": 1,
      "price": "4683000000000000000000",
      "reserved": "",
      "salt": "0x0664e48ad0be53bf811685403667a0ae8501c8f605d9416c6a7c15a89cb6adb0",
      "assetIds": []
    },
    {
      "x": 144,
      "y": 234,
      "size": 1,
      "price": "4683000000000000000000",
      "reserved": "",
      "salt": "0x1004ad04695657766fa75c5c3a611c957abe33754db2db2fe6ff992a4a2591fe",
      "assetIds": []
    },
    {
      "x": 144,
      "y": 235,
      "size": 1,
      "price": "1011000000000000000000",
      "reserved": "",
      "salt": "0xdc086018e04b59611eba18a71e49703c57deef96a8762746b873fd04884ea5e6",
      "assetIds": []
    },
    {
      "x": 144,
      "y": 236,
      "size": 1,
      "price": "4683000000000000000000",
      "reserved": "",
      "salt": "0x24eb861bae26984dc98ac01579034dcf0cc0d3e7af34a53a3be44a56b9a2812b",
      "assetIds": []
    },
    {
      "x": 144,
      "y": 237,
      "size": 1,
      "price": "4683000000000000000000",
      "reserved": "",
      "salt": "0xe16c9ed7ca95acc866c64110b781ce43ee3738a08633faf80222c0e4112293d7",
      "assetIds": []
    },
    {
      "x": 144,
      "y": 238,
      "size": 1,
      "price": "4683000000000000000000",
      "reserved": "",
      "salt": "0x52dd84edff43f6fd8cffda4c34b14d5b35e30d30aa36b21c9e5f14858a2ab9a6",
      "assetIds": []
    },
    {
      "x": 144,
      "y": 239,
      "size": 1,
      "price": "4683000000000000000000",
      "reserved": "",
      "salt": "0xa31df7d3cc659cfdf42bbcafefe16a06f019e6ef99deba6e6098b7bbe34af90c",
      "assetIds": []
    },
    {
      "x": 145,
      "y": 216,
      "size": 1,
      "price": "1011000000000000000000",
      "reserved": "",
      "salt": "0x8a4cf0ea5f9198565dcb8d03932fa897d8808f42307588257c8bd3c03ccf585b",
      "assetIds": []
    },
    {
      "x": 145,
      "y": 217,
      "size": 1,
      "price": "1011000000000000000000",
      "reserved": "",
      "salt": "0x6953d6308219a209fb04e40436e1aad61408a5a76f4f5708dc0beb90fb07994e",
      "assetIds": []
    },
    {
      "x": 145,
      "y": 218,
      "size": 1,
      "price": "1011000000000000000000",
      "reserved": "",
      "salt": "0x81cf87019327ad6f10995fff58e88096ba7d3e3815b6b9fdea0daa53ea4358a0",
      "assetIds": []
    },
    {
      "x": 145,
      "y": 234,
      "size": 1,
      "price": "1011000000000000000000",
      "reserved": "",
      "salt": "0x5ed0312b2aff7784f3dfd5d9c20b88c26b7da650f9d8da32a8f2042353a003f1",
      "assetIds": []
    },
    {
      "x": 145,
      "y": 235,
      "size": 1,
      "price": "1011000000000000000000",
      "reserved": "",
      "salt": "0x9d5e48e630a58313f9d9f214c7e2569a512f9b01fad9f0551f708cbf39e37989",
      "assetIds": []
    },
    {
      "x": 145,
      "y": 236,
      "size": 1,
      "price": "1011000000000000000000",
      "reserved": "",
      "salt": "0x60d5b6d0f8f443402473afdfc1b3e248dbe2df93216d56c664844f72cf7ad395",
      "assetIds": []
    },
    {
      "x": 145,
      "y": 237,
      "size": 1,
      "price": "1011000000000000000000",
      "reserved": "",
      "salt": "0x409b9410a659cc4ad8e6ac3b6dca01baa4ea85debef0352fe85ddf4702e72c91",
      "assetIds": []
    },
    {
      "x": 145,
      "y": 238,
      "size": 1,
      "price": "1011000000000000000000",
      "reserved": "",
      "salt": "0xe6942fa3dad03d0cd460882ca9cab3e3488c7bb7eae2e68c1a5acb88db90adb1",
      "assetIds": []
    },
    {
      "x": 145,
      "y": 239,
      "size": 1,
      "price": "1011000000000000000000",
      "reserved": "",
      "salt": "0x5456f9fef5744124866039c5054c8b7292c9cfb658d022f948f9c7dbea168513",
      "assetIds": []
    },
    {
      "x": 146,
      "y": 216,
      "size": 1,
      "price": "1011000000000000000000",
      "reserved": "",
      "salt": "0x78483d2f7b7f50c1fcca10b6ea0e0a1a379b82460f295fd9f09084773541c1a9",
      "assetIds": []
    },
    {
      "x": 146,
      "y": 217,
      "size": 1,
      "price": "1011000000000000000000",
      "reserved": "0x7a9fe22691c811ea339d9b73150e6911a5343dca",
      "salt": "0x585d1e4cf73fd041f0bd42b117acdf16b13f2662f7f65d039fd387183c5b14a3",
      "assetIds": []
    },
    {
      "x": 146,
      "y": 218,
      "size": 1,
      "price": "1011000000000000000000",
      "reserved": "0x7a9fe22691c811ea339d9b73150e6911a5343dca",
      "salt": "0xa00de01869ac7767be1da47cfc5a0b167222fb45344c9127402203e3ad2b795f",
      "assetIds": []
    },
    {
      "x": 146,
      "y": 234,
      "size": 1,
      "price": "1011000000000000000000",
      "reserved": "",
      "salt": "0x8337634440176b72b3c6e78e14f8b6734f6fc168c8daf0091459ee085bef54a7",
      "assetIds": []
    },
    {
      "x": 146,
      "y": 235,
      "size": 1,
      "price": "1011000000000000000000",
      "reserved": "",
      "salt": "0x62fca536757d9fcd8c252c9068b322a7cf8c2c9b37cf0c0a0e8e5cb0da014f9d",
      "assetIds": []
    },
    {
      "x": 146,
      "y": 236,
      "size": 1,
      "price": "1011000000000000000000",
      "reserved": "",
      "salt": "0x3a5ae26f2aa1c8518cd6e4121e805613b86d4f043ad48a7d5ea2917b9f63e005",
      "assetIds": []
    },
    {
      "x": 146,
      "y": 237,
      "size": 1,
      "price": "1011000000000000000000",
      "reserved": "",
      "salt": "0xc89007812266077deb70ab86c885e645edda73ad884ef227c30a175756fcf665",
      "assetIds": []
    },
    {
      "x": 146,
      "y": 238,
      "size": 1,
      "price": "1011000000000000000000",
      "reserved": "",
      "salt": "0x0e522e22616be625330207976da7a6a28cae6cf14e713c0bb4f093faf2b6e0f4",
      "assetIds": []
    },
    {
      "x": 146,
      "y": 239,
      "size": 1,
      "price": "1011000000000000000000",
      "reserved": "",
      "salt": "0xebe9ef413ed3bf5f39970e374ae9f0a8e638307282e77872adb493a0c0b7a31c",
      "assetIds": []
    },
    {
      "x": 147,
      "y": 216,
      "size": 1,
      "price": "1011000000000000000000",
      "reserved": "",
      "salt": "0xfa05de29f03424088ffc754fd149ae9c2df4dbdbaf68bc24f185d9b280e30708",
      "assetIds": []
    },
    {
      "x": 147,
      "y": 217,
      "size": 1,
      "price": "1011000000000000000000",
      "reserved": "",
      "salt": "0x6457434e6dec4786b9b7cea55c8da84070e3b2e1fad3651dc8f8b264cdbc967d",
      "assetIds": []
    },
    {
      "x": 147,
      "y": 218,
      "size": 1,
      "price": "1011000000000000000000",
      "reserved": "",
      "salt": "0x907a1fd81411c4f9cfe8e1c5aa22e74e1940919c4d995fd4ac38f8d86ede65da",
      "assetIds": []
    },
    {
      "x": 147,
      "y": 231,
      "size": 1,
      "price": "1011000000000000000000",
      "reserved": "",
      "salt": "0xea6d0912a282f04179126682d1bf79b3e6bc2631fc9d7c7cc86e9877189abc0b",
      "assetIds": []
    },
    {
      "x": 147,
      "y": 232,
      "size": 1,
      "price": "1011000000000000000000",
      "reserved": "",
      "salt": "0xd71ce6790f51ea1916162c04a8fb2955c85787f17805faab43f0201123d5877c",
      "assetIds": []
    },
    {
      "x": 147,
      "y": 233,
      "size": 1,
      "price": "1011000000000000000000",
      "reserved": "",
      "salt": "0x0773903c1e29e17bd6e31ca03a9854e3e7b07f11db00fc5a819d2b8e2808f621",
      "assetIds": []
    },
    {
      "x": 147,
      "y": 234,
      "size": 1,
      "price": "1011000000000000000000",
      "reserved": "",
      "salt": "0x9091cfa2cf5385135fc84883f138c253a603f736e5bb2851df3da2471dd62722",
      "assetIds": []
    },
    {
      "x": 147,
      "y": 235,
      "size": 1,
      "price": "1011000000000000000000",
      "reserved": "",
      "salt": "0x15a6d00201b9b3e04608955cba470d0c3bd68eb52be2cc1228a6330b9c09d46d",
      "assetIds": []
    },
    {
      "x": 147,
      "y": 236,
      "size": 1,
      "price": "1011000000000000000000",
      "reserved": "0x7a9fe22691c811ea339d9b73150e6911a5343dca",
      "salt": "0xf7d30bb23d9e6a60a0cb142e064cc633d5a8a83ff6c98a1e0694b101bd4e83a4",
      "assetIds": []
    },
    {
      "x": 147,
      "y": 237,
      "size": 1,
      "price": "1011000000000000000000",
      "reserved": "",
      "salt": "0xf08ef42530fc257091508e7d49fb0e616265c8d256858fdaacc077c8615526f6",
      "assetIds": []
    },
    {
      "x": 147,
      "y": 238,
      "size": 1,
      "price": "1011000000000000000000",
      "reserved": "",
      "salt": "0x06313de8fe2b292fe1fddb4e93aceb684aa62bd7812b7f7fb51c9728cf93d8c2",
      "assetIds": []
    },
    {
      "x": 147,
      "y": 239,
      "size": 1,
      "price": "1011000000000000000000",
      "reserved": "",
      "salt": "0x0d17e003e2d9b7fe441c0ddcb80c780d29adff848f35b47e6111eb292ab9295d",
      "assetIds": []
    },
    {
      "x": 148,
      "y": 216,
      "size": 1,
      "price": "1011000000000000000000",
      "reserved": "",
      "salt": "0xf54a5333744b133241ca58e28c1277fc7ccc63d2057eda0b0cae966f3ba87b98",
      "assetIds": []
    },
    {
      "x": 148,
      "y": 217,
      "size": 1,
      "price": "1011000000000000000000",
      "reserved": "",
      "salt": "0xd26de5d763989d0dcda151d0dc74ed2ebf74e15f2ec4e55e1c8f8f0e39958fea",
      "assetIds": []
    },
    {
      "x": 148,
      "y": 218,
      "size": 1,
      "price": "1011000000000000000000",
      "reserved": "",
      "salt": "0xcd0e4b31f3e4d3ed29bc2a66ebc965d6b3fba4f31ef83a8caa624dd02e09876f",
      "assetIds": []
    },
    {
      "x": 148,
      "y": 231,
      "size": 1,
      "price": "1011000000000000000000",
      "reserved": "",
      "salt": "0xc61d08d161b4171774e5d9275006f6d951d401e1a7d7fec230790f17ae0eac5d",
      "assetIds": []
    },
    {
      "x": 148,
      "y": 232,
      "size": 1,
      "price": "1011000000000000000000",
      "reserved": "",
      "salt": "0xb6e977d9127fc0e7aa23a0456ef0be31b47f96fb37e6800c166262527b3360ab",
      "assetIds": []
    },
    {
      "x": 148,
      "y": 233,
      "size": 1,
      "price": "1011000000000000000000",
      "reserved": "",
      "salt": "0x4bcebd9a01d7112574b1ba63c5fa92b6742555d0a945289bd50a6b7f9e4e6c31",
      "assetIds": []
    },
    {
      "x": 148,
      "y": 234,
      "size": 1,
      "price": "1011000000000000000000",
      "reserved": "",
      "salt": "0x4d07113ad084eb6481edc3b44c6bef60d80c8b32bdedac7c364a534df660eb1c",
      "assetIds": []
    },
    {
      "x": 148,
      "y": 235,
      "size": 1,
      "price": "1011000000000000000000",
      "reserved": "",
      "salt": "0x06271c5fde76cbb5f9b70f8344e0689485a9167de0ffe1ed7bcbf7c1325b7ded",
      "assetIds": []
    },
    {
      "x": 148,
      "y": 236,
      "size": 1,
      "price": "1011000000000000000000",
      "reserved": "",
      "salt": "0x1349c244e4a8773b1d2f5660edd9dcba3d61de3d7d4c037d4be7e9bdbd6c6977",
      "assetIds": []
    },
    {
      "x": 148,
      "y": 237,
      "size": 1,
      "price": "1011000000000000000000",
      "reserved": "",
      "salt": "0xb8d230416803dd6a0b89546b53743cb4ef7020bb219c722e5d58e041215fdc00",
      "assetIds": []
    },
    {
      "x": 148,
      "y": 238,
      "size": 1,
      "price": "1011000000000000000000",
      "reserved": "",
      "salt": "0x70b5f40e8a1a1503cff333b78d18a4f4a5533d1e5dd1f31898c873e8cdae002d",
      "assetIds": []
    },
    {
      "x": 148,
      "y": 239,
      "size": 1,
      "price": "1011000000000000000000",
      "reserved": "",
      "salt": "0xcd5b610af0df52f0db0630e77db2be7b6b8525b3eefaafe344ad0d87bd448ce6",
      "assetIds": []
    },
    {
      "x": 149,
      "y": 231,
      "size": 1,
      "price": "1011000000000000000000",
      "reserved": "",
      "salt": "0x637029fd1047187e8897744657f2386550ef40940ade647076532f27f29509a0",
      "assetIds": []
    },
    {
      "x": 149,
      "y": 232,
      "size": 1,
      "price": "1011000000000000000000",
      "reserved": "",
      "salt": "0x115b4f9a24015d2d67e083fe57c464ecd815d7c24d33e15f893984a184c5240e",
      "assetIds": []
    },
    {
      "x": 149,
      "y": 233,
      "size": 1,
      "price": "1011000000000000000000",
      "reserved": "",
      "salt": "0x947b2ecb6b497b0a79b15cd212ce0b953dc59c150810cc31d043ac1f8114bb40",
      "assetIds": []
    },
    {
      "x": 149,
      "y": 234,
      "size": 1,
      "price": "1011000000000000000000",
      "reserved": "",
      "salt": "0x1ecd5778cd33cf02f398bf10ce735e1fbb048440c332c90939377b918302340c",
      "assetIds": []
    },
    {
      "x": 149,
      "y": 235,
      "size": 1,
      "price": "1011000000000000000000",
      "reserved": "",
      "salt": "0xa2b27369552af5881f5d9a576fe4c4a0709c79a7aad329c265a7de7d05c241d1",
      "assetIds": []
    },
    {
      "x": 149,
      "y": 236,
      "size": 1,
      "price": "1011000000000000000000",
      "reserved": "",
      "salt": "0x66f141620951b204b089e17c6b9e75db4073229e921958c01ef31056a1b11a6f",
      "assetIds": []
    },
    {
      "x": 149,
      "y": 237,
      "size": 1,
      "price": "1011000000000000000000",
      "reserved": "",
      "salt": "0x9f122f35209ee37871a9e408142e9f65cdb8eae76a191ef983cc7f912187b744",
      "assetIds": []
    },
    {
      "x": 149,
      "y": 238,
      "size": 1,
      "price": "1011000000000000000000",
      "reserved": "",
      "salt": "0x237169e33aaef68fab5926a3fa91318ada8e7d0570154a338f211a31255c2735",
      "assetIds": []
    },
    {
      "x": 149,
      "y": 239,
      "size": 1,
      "price": "1011000000000000000000",
      "reserved": "",
      "salt": "0x592fa22b5e62c649d5042028275e8e42a7a3054716acfe96f871c9dd90dc91c5",
      "assetIds": []
    },
    {
      "x": 150,
      "y": 234,
      "size": 1,
      "price": "1011000000000000000000",
      "reserved": "",
      "salt": "0xb61b864b09c3b357d7c7b97deee59e8a6b172c9863fbb48de7188528653646c9",
      "assetIds": []
    },
    {
      "x": 150,
      "y": 235,
      "size": 1,
      "price": "1011000000000000000000",
      "reserved": "",
      "salt": "0x52bc289b7371bce850cd7d64c07bc74ab389942708f32f873689f6f5591aa408",
      "assetIds": []
    },
    {
      "x": 150,
      "y": 236,
      "size": 1,
      "price": "1011000000000000000000",
      "reserved": "",
      "salt": "0x737fd577779d40a719235a0f7161df13dbb042a2c0f8dd6560ef762fcfb87fb1",
      "assetIds": []
    },
    {
      "x": 151,
      "y": 234,
      "size": 1,
      "price": "1011000000000000000000",
      "reserved": "",
      "salt": "0x7623c4f57c1886913614eecb1c4d1247e9f016b79ad63839ab96ddf14301db8d",
      "assetIds": []
    },
    {
      "x": 151,
      "y": 235,
      "size": 1,
      "price": "1011000000000000000000",
      "reserved": "",
      "salt": "0x9e9ba5d1b6bd81ebb923770d1a7972d70c54ce3889d3a83b6bbf155b680fa82d",
      "assetIds": []
    },
    {
      "x": 151,
      "y": 236,
      "size": 1,
      "price": "1011000000000000000000",
      "reserved": "",
      "salt": "0xeb007aad709031c7a3a4b273bed18bfd273dcff00224030de32bdcd7e431c6d8",
      "assetIds": []
    }
  ],
  "solcInputHash": "b42a863a795806b4ea3a8f05dfa42539",
  "bytecode": "0x6101606040523480156200001257600080fd5b50604051620031e9380380620031e983398181016040526101a08110156200003957600080fd5b508051602082015160408301516060840151608085015160a086015160c087015160e08801516101008901516101208a01516101408b01516101608c0151610180909c015160016000559a9b999a9899979896979596949593949293919290919085856001600160a01b038216620000f8576040805162461bcd60e51b815260206004820152601f60248201527f526566657272616c56616c696461746f723a207a65726f206164647265737300604482015290519081900360640190fd5b600380546001600160a01b0319166001600160a01b0393841617905560045562000130908e1662000459602090811b62002adc17901c565b6200016d5760405162461bcd60e51b8152600401808060200182810382526025815260200180620031c46025913960400191505060405180910390fd5b6200018c8c6001600160a01b03166200045960201b62002adc1760201c565b620001c95760405162461bcd60e51b8152600401808060200182810382526025815260200180620031c46025913960400191505060405180910390fd5b6001600160a01b038b1662000214576040805162461bcd60e51b815260206004820181905260248201526000805160206200317f833981519152604482015290519081900360640190fd5b6001600160a01b038a166200025f576040805162461bcd60e51b815260206004820181905260248201526000805160206200317f833981519152604482015290519081900360640190fd5b6001600160a01b038916620002aa576040805162461bcd60e51b815260206004820181905260248201526000805160206200317f833981519152604482015290519081900360640190fd5b620002c9836001600160a01b03166200045960201b62002adc1760201c565b620003065760405162461bcd60e51b8152600401808060200182810382526025815260200180620031c46025913960400191505060405180910390fd5b6001600160a01b03821662000351576040805162461bcd60e51b815260206004820181905260248201526000805160206200317f833981519152604482015290519081900360640190fd5b62000370816001600160a01b03166200045960201b62002adc1760201c565b620003ad5760405162461bcd60e51b8152600401808060200182810382526025815260200180620031c46025913960400191505060405180910390fd5b6001600160601b031960608e811b821660a0528d901b1660c052620003dd8b60016001600160e01b036200045f16565b600680546001600160a01b039a8b166001600160a01b031991821617909155610140989098526101209690965260018054998916998816999099179098556001600160601b0319606092831b811660e05290821b811660805296901b909516610100525060078054919093169116179055506200050a92505050565b3b151590565b6001600160a01b038216620004a65760405162461bcd60e51b81526004018080602001828103825260258152602001806200319f6025913960400191505060405180910390fd5b6001600160a01b038216600081815260026020908152604091829020805460ff191685151590811790915582519384529083015280517fb21eb88b4e33b3f1281830a7178d74d8aa73220416215726b68ae23d539515cb9281900390910190a15050565b60805160601c60a05160601c60c05160601c60e05160601c6101005160601c6101205161014051612bef6200059060003980610be0528061247e525080610bbc528061159d5250806124fc525080611af25280611c4f525080611aa85280611e4e52806124d9525080611b235280611c205250806111075280611f3a5250612bef6000f3fe608060405234801561001057600080fd5b50600436106101365760003560e01c8063984d6252116100b2578063c10a420811610081578063dc5074af11610066578063dc5074af146108a0578063e56f8a9e146108c6578063f23a6e61146108e357610136565b8063c10a4208146107c1578063caed35001461089857610136565b8063984d62521461055f578063ab1cc78c14610631578063b522ecff14610639578063bc197c811461065f57610136565b806365194ce71161010957806378e6e5b9116100ee57806378e6e5b9146104e55780638a04af6a1461050b5780638f2839701461053957610136565b806365194ce7146103635780636e9960c3146104c157610136565b80631187fd3c1461013b57806325cb5bc01461031b578063495906571461033557806358bc29441461033d575b600080fd5b610319600480360361012081101561015257600080fd5b6001600160a01b038235811692602081013582169260408201359092169181019060808101606082013564010000000081111561018e57600080fd5b8201836020820111156101a057600080fd5b803590602001918460208302840111640100000000831117156101c257600080fd5b919390928235926040810190602001356401000000008111156101e457600080fd5b8201836020820111156101f657600080fd5b8035906020019184602083028401116401000000008311171561021857600080fd5b91939092909160208101903564010000000081111561023657600080fd5b82018360208201111561024857600080fd5b8035906020019184602083028401116401000000008311171561026a57600080fd5b91939092909160208101903564010000000081111561028857600080fd5b82018360208201111561029a57600080fd5b803590602001918460018302840111640100000000831117156102bc57600080fd5b9193909290916020810190356401000000008111156102da57600080fd5b8201836020820111156102ec57600080fd5b8035906020019184600183028401116401000000008311171561030e57600080fd5b509092509050610978565b005b610323610bba565b60408051918252519081900360200190f35b610323610bde565b6103196004803603602081101561035357600080fd5b50356001600160a01b0316610c02565b6104096004803603602081101561037957600080fd5b81019060208101813564010000000081111561039457600080fd5b8201836020820111156103a657600080fd5b803590602001918460018302840111640100000000831117156103c857600080fd5b91908080601f016020809104026020016040519081016040528093929190818152602001838380828437600092019190915250929550610d2e945050505050565b6040518080602001866001600160a01b03166001600160a01b03168152602001856001600160a01b03166001600160a01b03168152602001848152602001838152602001828103825287818151815260200191508051906020019080838360005b8381101561048257818101518382015260200161046a565b50505050905090810190601f1680156104af5780820380516001836020036101000a031916815260200191505b50965050505050505060405180910390f35b6104c9610e33565b604080516001600160a01b039092168252519081900360200190f35b610319600480360360208110156104fb57600080fd5b50356001600160a01b0316610e42565b6103196004803603604081101561052157600080fd5b506001600160a01b0381351690602001351515610f00565b6103196004803603602081101561054f57600080fd5b50356001600160a01b0316610f6d565b6103196004803603606081101561057557600080fd5b6001600160a01b0382351691908101906040810160208201356401000000008111156105a057600080fd5b8201836020820111156105b257600080fd5b803590602001918460208302840111640100000000831117156105d457600080fd5b9193909290916020810190356401000000008111156105f257600080fd5b82018360208201111561060457600080fd5b8035906020019184602083028401116401000000008311171561062657600080fd5b5090925090506110a6565b610323611231565b6103196004803603602081101561064f57600080fd5b50356001600160a01b0316611237565b61078c600480360360a081101561067557600080fd5b6001600160a01b0382358116926020810135909116918101906060810160408201356401000000008111156106a957600080fd5b8201836020820111156106bb57600080fd5b803590602001918460208302840111640100000000831117156106dd57600080fd5b9193909290916020810190356401000000008111156106fb57600080fd5b82018360208201111561070d57600080fd5b8035906020019184602083028401116401000000008311171561072f57600080fd5b91939092909160208101903564010000000081111561074d57600080fd5b82018360208201111561075f57600080fd5b8035906020019184600183028401116401000000008311171561078157600080fd5b509092509050611348565b604080517fffffffff000000000000000000000000000000000000000000000000000000009092168252519081900360200190f35b610884600480360360a08110156107d757600080fd5b8101906020810181356401000000008111156107f257600080fd5b82018360208201111561080457600080fd5b8035906020019184600183028401116401000000008311171561082657600080fd5b91908080601f016020809104026020016040519081016040528093929190818152602001838380828437600092019190915250929550506001600160a01b038335811694506020840135169260408101359250606001359050611375565b604080519115158252519081900360200190f35b6104c96114b1565b610884600480360360208110156108b657600080fd5b50356001600160a01b03166114c0565b610319600480360360208110156108dc57600080fd5b50356114de565b61078c600480360360a08110156108f957600080fd5b6001600160a01b03823581169260208101359091169160408201359160608101359181019060a08101608082013564010000000081111561093957600080fd5b82018360208201111561094b57600080fd5b8035906020019184600183028401116401000000008311171561096d57600080fd5b509092509050611570565b600260005414156109d0576040805162461bcd60e51b815260206004820152601f60248201527f5265656e7472616e637947756172643a207265656e7472616e742063616c6c00604482015290519081900360640190fd5b60026000556109df8e8d61159b565b610ad68d8d8d8d80806020026020016040519081016040528093929190818152602001838360200280828437600081840152601f19601f820116905080830192505050505050508c8c8c80806020026020016040519081016040528093929190818152602001838360200280828437600081840152601f19601f820116905080830192505050505050508b8b8080602002602001604051908101604052809392919081815260200183836020028082843760009201919091525050604080516020601f8d018190048102820181019092528b815292508b91508a90819084018382808284376000920191909152506116fe92505050565b610b2a8e8c8c6003818110610ae757fe5b9050602002013586868080601f016020809104026020016040519081016040528093929190818152602001838380828437600092019190915250611a8192505050565b610b688e8e8d8d80806020026020016040519081016040528093929190818152602001838360200280828437600092019190915250611ad292505050565b610ba58d898980806020026020016040519081016040528093929190818152602001838360200280828437600092019190915250611ec392505050565b50506001600055505050505050505050505050565b7f000000000000000000000000000000000000000000000000000000000000000090565b7f000000000000000000000000000000000000000000000000000000000000000090565b6001546001600160a01b03163314610c61576040805162461bcd60e51b815260206004820152601260248201527f6f6e6c792061646d696e20616c6c6f7765640000000000000000000000000000604482015290519081900360640190fd5b6001600160a01b038116610cbc576040805162461bcd60e51b815260206004820152601f60248201527f526566657272616c56616c696461746f723a207a65726f206164647265737300604482015290519081900360640190fd5b600380546001600160a01b03908116600090815260056020526040808220620d2f0042019055835473ffffffffffffffffffffffffffffffffffffffff1916928516928317909355915190917fbbb5fb2ee7e707ae0c968f63e94211ea81e66a718c34e2f810a7619e5678a21791a250565b606060008060008060606000806000808a80602001905160a0811015610d5357600080fd5b8101908080516040519392919084640100000000821115610d7357600080fd5b908301906020820185811115610d8857600080fd5b8251640100000000811182820188101715610da257600080fd5b82525081516020918201929091019080838360005b83811015610dcf578181015183820152602001610db7565b50505050905090810190601f168015610dfc5780820380516001836020036101000a031916815260200191505b5060409081526020820151908201516060830151608090930151959f50909d509b5099509197505050505050505091939590929450565b6001546001600160a01b031690565b6001546001600160a01b03163314610e8b5760405162461bcd60e51b8152600401808060200182810382526023815260200180612b056023913960400191505060405180910390fd5b6001600160a01b038116610ee6576040805162461bcd60e51b815260206004820152601f60248201527f526566657272616c56616c696461746f723a207a65726f206164647265737300604482015290519081900360640190fd5b6001600160a01b0316600090815260056020526040812055565b6001546001600160a01b03163314610f5f576040805162461bcd60e51b815260206004820152601260248201527f6f6e6c792061646d696e20616c6c6f7765640000000000000000000000000000604482015290519081900360640190fd5b610f698282612087565b5050565b6001546001600160a01b03163314610fcc576040805162461bcd60e51b815260206004820152601b60248201527f6f6e6c792061646d696e2063616e206368616e67652061646d696e0000000000604482015290519081900360640190fd5b6001546001600160a01b038281169116141561102f576040805162461bcd60e51b815260206004820152600d60248201527f616c72656164792061646d696e00000000000000000000000000000000000000604482015290519081900360640190fd5b600154604080516001600160a01b039283168152918316602083015280517f7e644d79422f17c01e4894b5f4f588d331ebfa28653d42ae832dc59e38c9798f9281900390910190a16001805473ffffffffffffffffffffffffffffffffffffffff19166001600160a01b0392909216919091179055565b6001546001600160a01b03163314611105576040805162461bcd60e51b815260206004820152600e60248201527f4e4f545f415554484f52495a4544000000000000000000000000000000000000604482015290519081900360640190fd5b7f00000000000000000000000000000000000000000000000000000000000000006001600160a01b0316632eb2c2d63087878787876040518763ffffffff1660e01b815260040180876001600160a01b03166001600160a01b03168152602001866001600160a01b03166001600160a01b031681526020018060200180602001806020018481038452888882818152602001925060200280828437600083820152601f01601f19169091018581038452868152602090810191508790870280828437600081840152601f19601f8201169050808301925050508481038252600081526020016020019950505050505050505050600060405180830381600087803b15801561121257600080fd5b505af1158015611226573d6000803e3d6000fd5b505050505050505050565b60045490565b6001600160a01b038116611292576040805162461bcd60e51b815260206004820152600c60248201527f5a45524f5f414444524553530000000000000000000000000000000000000000604482015290519081900360640190fd5b6001546001600160a01b031633146112f1576040805162461bcd60e51b815260206004820152600e60248201527f4e4f545f415554484f52495a4544000000000000000000000000000000000000604482015290519081900360640190fd5b6006805473ffffffffffffffffffffffffffffffffffffffff19166001600160a01b0383169081179091556040517f4d66958b757eb92a1b43d02be4c38c9500b73f532420ee3706cb43d420ba023690600090a250565b7fbc197c810000000000000000000000000000000000000000000000000000000098975050505050505050565b60006004548211806113985750836001600160a01b0316856001600160a01b0316145b806113a257508242115b156113af575060006114a8565b60408051606087811b7fffffffffffffffffffffffffffffffffffffffff0000000000000000000000009081166020808501919091529188901b166034830152604882018690526068808301869052835180840390910181526088830184528051908201207f19457468657265756d205369676e6564204d6573736167653a0a33320000000060a884015260c48084018290528451808503909101815260e49093019093528151910120600090611466908961214e565b6001600160a01b0381166000908152600560205260409020549091504211611493576001925050506114a8565b6003546001600160a01b039081169116149150505b95945050505050565b6003546001600160a01b031690565b6001600160a01b031660009081526002602052604090205460ff1690565b6001546001600160a01b0316331461153d576040805162461bcd60e51b815260206004820152601260248201527f6f6e6c792061646d696e20616c6c6f7765640000000000000000000000000000604482015290519081900360640190fd5b600481905560405181907f774069781371d65424b3b0b101c1d40014532cac040f979595b99a3fcf8ce08c90600090a250565b7ff23a6e61000000000000000000000000000000000000000000000000000000009695505050505050565b7f0000000000000000000000000000000000000000000000000000000000000000421061160f576040805162461bcd60e51b815260206004820152600c60248201527f53414c455f49535f4f5645520000000000000000000000000000000000000000604482015290519081900360640190fd5b6001600160a01b03821633148061163557503360009081526002602052604090205460ff165b611686576040805162461bcd60e51b815260206004820152600e60248201527f4e4f545f415554484f52495a4544000000000000000000000000000000000000604482015290519081900360640190fd5b6001600160a01b03811615806116ad5750816001600160a01b0316816001600160a01b0316145b610f69576040805162461bcd60e51b815260206004820152600d60248201527f52455345525645445f4c414e4400000000000000000000000000000000000000604482015290519081900360640190fd5b600087878760008151811061170f57fe5b60200260200101518860018151811061172457fe5b60200260200101518960028151811061173957fe5b60200260200101518a60038151811061174e57fe5b60200260200101518a8a60405160200180828051906020019060200280838360005b83811015611788578181015183820152602001611770565b50505050905001915050604051602081830303815290604052805190602001208a60405160200180828051906020019060200280838360005b838110156117d95781810151838201526020016117c1565b5050505090500191505060405160208183030381529060405280519060200120604051602001808a6001600160a01b03166001600160a01b031660601b8152601401896001600160a01b03166001600160a01b031660601b81526014018881526020018781526020018681526020018581526020018481526020018381526020018281526020019950505050505050505050604051602081830303815290604052805190602001209050600760009054906101000a90046001600160a01b03166001600160a01b031663012847ed83836040518363ffffffff1660e01b81526004018080602001838152602001828103825284818151815260200191508051906020019080838360005b838110156118fb5781810151838201526020016118e3565b50505050905090810190601f1680156119285780820380516001836020036101000a031916815260200191505b50935050505060206040518083038186803b15801561194657600080fd5b505afa15801561195a573d6000803e3d6000fd5b505050506040513d602081101561197057600080fd5b50516119c3576040805162461bcd60e51b815260206004820152600c60248201527f494e56414c49445f415554480000000000000000000000000000000000000000604482015290519081900360640190fd5b6000611a24876000815181106119d557fe5b6020026020010151886001815181106119ea57fe5b6020026020010151896002815181106119ff57fe5b60200260200101518a600381518110611a1457fe5b60200260200101518c8b8b612337565b9050611a3084826123dc565b611226576040805162461bcd60e51b815260206004820152600c60248201527f494e56414c49445f4c414e440000000000000000000000000000000000000000604482015290519081900360640190fd5b6000611a8d84846124a5565b600654909150611acc908590839085906001600160a01b03167f000000000000000000000000000000000000000000000000000000000000000061253f565b50505050565b80600281518110611adf57fe5b602002602001015160011480611b1c57507f00000000000000000000000000000000000000000000000000000000000000006001600160a01b0316155b15611c1e577f00000000000000000000000000000000000000000000000000000000000000006001600160a01b0316636e1e3bbf8383600281518110611b5e57fe5b602002602001015184600081518110611b7357fe5b602002602001015185600181518110611b8857fe5b60200260200101516040518563ffffffff1660e01b815260040180856001600160a01b03166001600160a01b031681526020018481526020018381526020018281526020018060200182810382526000815260200160200195505050505050600060405180830381600087803b158015611c0157600080fd5b505af1158015611c15573d6000803e3d6000fd5b50505050611dbe565b7f00000000000000000000000000000000000000000000000000000000000000006001600160a01b0316636e1e3bbf7f000000000000000000000000000000000000000000000000000000000000000083600281518110611c7b57fe5b602002602001015184600081518110611c9057fe5b602002602001015185600181518110611ca557fe5b60200260200101518760405160200180826001600160a01b03166001600160a01b031681526020019150506040516020818303038152906040526040518663ffffffff1660e01b815260040180866001600160a01b03166001600160a01b0316815260200185815260200184815260200183815260200180602001828103825283818151815260200191508051906020019080838360005b83811015611d55578181015183820152602001611d3d565b50505050905090810190601f168015611d825780820380516001836020036101000a031916815260200191505b509650505050505050600060405180830381600087803b158015611da557600080fd5b505af1158015611db9573d6000803e3d6000fd5b505050505b61019881600181518110611dce57fe5b60200260200101510281600081518110611de457fe5b602002602001015101826001600160a01b0316846001600160a01b03167fe4dfa6ac11314892f3029b34a25b1a887da3b1cab2bbf8506d87128ba6e3ac0284600281518110611e2f57fe5b602002602001015185600381518110611e4457fe5b60200260200101517f000000000000000000000000000000000000000000000000000000000000000087600381518110611e7a57fe5b602002602001015160405180858152602001848152602001836001600160a01b03166001600160a01b0316815260200182815260200194505050505060405180910390a4505050565b6060815167ffffffffffffffff81118015611edd57600080fd5b50604051908082528060200260200182016040528015611f07578160200160208202803683370190505b50905060005b8251811015611f37576001828281518110611f2457fe5b6020908102919091010152600101611f0d565b507f00000000000000000000000000000000000000000000000000000000000000006001600160a01b0316632eb2c2d6308585856040518563ffffffff1660e01b815260040180856001600160a01b03166001600160a01b03168152602001846001600160a01b03166001600160a01b03168152602001806020018060200180602001848103845286818151815260200191508051906020019060200280838360005b83811015611ff2578181015183820152602001611fda565b50505050905001848103835285818151815260200191508051906020019060200280838360005b83811015612031578181015183820152602001612019565b50505050905001848103825260008152602001602001975050505050505050600060405180830381600087803b15801561206a57600080fd5b505af115801561207e573d6000803e3d6000fd5b50505050505050565b6001600160a01b0382166120cc5760405162461bcd60e51b8152600401808060200182810382526025815260200180612b6b6025913960400191505060405180910390fd5b6001600160a01b03821660008181526002602090815260409182902080547fffffffffffffffffffffffffffffffffffffffffffffffffffffffffffffff001685151590811790915582519384529083015280517fb21eb88b4e33b3f1281830a7178d74d8aa73220416215726b68ae23d539515cb9281900390910190a15050565b600081516041146121a6576040805162461bcd60e51b815260206004820152601f60248201527f45434453413a20696e76616c6964207369676e6174757265206c656e67746800604482015290519081900360640190fd5b60208201516040830151606084015160001a7f7fffffffffffffffffffffffffffffff5d576e7357a4501ddfe92f46681b20a08211156122175760405162461bcd60e51b8152600401808060200182810382526022815260200180612ae36022913960400191505060405180910390fd5b8060ff16601b1415801561222f57508060ff16601c14155b1561226b5760405162461bcd60e51b8152600401808060200182810382526022815260200180612b286022913960400191505060405180910390fd5b60408051600080825260208083018085528a905260ff85168385015260608301879052608083018690529251909260019260a080820193601f1981019281900390910190855afa1580156122c3573d6000803e3d6000fd5b5050604051601f1901519150506001600160a01b03811661232b576040805162461bcd60e51b815260206004820152601860248201527f45434453413a20696e76616c6964207369676e61747572650000000000000000604482015290519081900360640190fd5b93505050505b92915050565b60008787878787878760405160200180888152602001878152602001868152602001858152602001846001600160a01b03166001600160a01b031660601b8152601401838152602001828051906020019060200280838360005b838110156123a9578181015183820152602001612391565b50505050905001975050505050505050604051602081830303815290604052805190602001209050979650505050505050565b600081815b845181101561247b5760008582815181106123f857fe5b60200260200101519050808310156124405782816040516020018083815260200182815260200192505050604051602081830303815290604052805190602001209250612472565b808360405160200180838152602001828152602001925050506040516020818303038152906040528051906020012092505b506001016123e1565b507f0000000000000000000000000000000000000000000000000000000000000000149392505050565b6000806124ca60646124be85600563ffffffff61264716565b9063ffffffff6126a716565b90506125276001600160a01b037f000000000000000000000000000000000000000000000000000000000000000016857f00000000000000000000000000000000000000000000000000000000000000008463ffffffff6126e916565b612537838263ffffffff61277116565b949350505050565b8251819085901561262c57606060008060008061255b8a610d2e565b93985091965094509250905060006125768686868686611375565b15612604576125906125888d84612647565b6127106126a7565b9050886001600160a01b0316846001600160a01b0316866001600160a01b03167fac7a699eb95c3c6d390ec4626de17ef9a67b35891efdb197beba7c7fdd45fac48f858760405180848152602001838152602001828152602001935050505060405180910390a46126018782612771565b96505b8015612625576126256001600160a01b0389168e878463ffffffff6126e916565b5050505050505b61207e6001600160a01b03831688868463ffffffff6126e916565b60008261265657506000612331565b8282028284828161266357fe5b04146126a05760405162461bcd60e51b8152600401808060200182810382526021815260200180612b4a6021913960400191505060405180910390fd5b9392505050565b60006126a083836040518060400160405280601a81526020017f536166654d6174683a206469766973696f6e206279207a65726f0000000000008152506127b3565b604080516001600160a01b0380861660248301528416604482015260648082018490528251808303909101815260849091019091526020810180517bffffffffffffffffffffffffffffffffffffffffffffffffffffffff167f23b872dd00000000000000000000000000000000000000000000000000000000179052611acc908590612855565b60006126a083836040518060400160405280601e81526020017f536166654d6174683a207375627472616374696f6e206f766572666c6f77000081525061290b565b6000818361283f5760405162461bcd60e51b81526004018080602001828103825283818151815260200191508051906020019080838360005b838110156128045781810151838201526020016127ec565b50505050905090810190601f1680156128315780820380516001836020036101000a031916815260200191505b509250505060405180910390fd5b50600083858161284b57fe5b0495945050505050565b60606128aa826040518060400160405280602081526020017f5361666545524332303a206c6f772d6c6576656c2063616c6c206661696c6564815250856001600160a01b03166129659092919063ffffffff16565b805190915015612906578080602001905160208110156128c957600080fd5b50516129065760405162461bcd60e51b815260040180806020018281038252602a815260200180612b90602a913960400191505060405180910390fd5b505050565b6000818484111561295d5760405162461bcd60e51b81526020600482018181528351602484015283519092839260449091019190850190808383600083156128045781810151838201526020016127ec565b505050900390565b60606125378484600085606061297a85612adc565b6129cb576040805162461bcd60e51b815260206004820152601d60248201527f416464726573733a2063616c6c20746f206e6f6e2d636f6e7472616374000000604482015290519081900360640190fd5b60006060866001600160a01b031685876040518082805190602001908083835b60208310612a0a5780518252601f1990920191602091820191016129eb565b6001836020036101000a03801982511681845116808217855250505050505090500191505060006040518083038185875af1925050503d8060008114612a6c576040519150601f19603f3d011682016040523d82523d6000602084013e612a71565b606091505b50915091508115612a855791506125379050565b805115612a955780518082602001fd5b60405162461bcd60e51b81526020600482018181528651602484015286518793919283926044019190850190808383600083156128045781810151838201526020016127ec565b3b15159056fe45434453413a20696e76616c6964207369676e6174757265202773272076616c7565526566657272616c56616c696461746f723a2053656e646572206e6f742061646d696e45434453413a20696e76616c6964207369676e6174757265202776272076616c7565536166654d6174683a206d756c7469706c69636174696f6e206f766572666c6f774d6574615472616e73616374696f6e52656365697665723a207a65726f20616464726573735361666545524332303a204552433230206f7065726174696f6e20646964206e6f742073756363656564a264697066735822122077f2d13cbcb85fa08010a53c1e4ef27117b031e8c1c9273d55cef362af299f3164736f6c6343000605003345737461746553616c6557697468417574683a207a65726f20616464726573734d6574615472616e73616374696f6e52656365697665723a207a65726f206164647265737345737461746553616c6557697468417574683a206973206e6f74206120636f6e7472616374",
  "devdoc": {
    "methods": {
      "buyLandWithSand(address,address,address,uint256[],bytes32,uint256[],bytes32[],bytes,bytes)": {
        "params": {
          "assetIds": "asset ids (lands) that will be bought",
          "buyer": "address that perform the payment",
          "info": "[X_INDEX=0] x coordinate of the Land [Y_INDEX=1] y coordinate of the Land [SIZE_INDEX=2] size of the pack of Land to purchase [PRICE_INDEX=3] price in SAND to purchase that Land",
          "proof": "merkleProof for that particular Land",
          "referral": "referral id",
          "reserved": "the reserved address (if any)",
          "salt": "The salt submitted for verification.",
          "signature": "A signed message specifying tx details",
          "to": "address that will own the purchased Land"
        }
      },
      "changeAdmin(address)": {
        "details": "change the administrator to be `newAdmin`.",
        "params": {
          "newAdmin": "address of the new administrator."
        }
      },
      "disablePreviousSigningWallet(address)": {
        "details": "Disable compromised signing wallet",
        "params": {
          "disableWallet": "The wallet address to be disabled"
        }
      },
      "getAdmin()": {
        "details": "gives the current administrator of this contract.",
        "returns": {
          "_0": "the current administrator of this contract."
        }
      },
      "getSigningWallet()": {
        "details": "signing wallet authorized for referral",
        "returns": {
          "_0": "the address of the signing wallet"
        }
      },
      "isMetaTransactionProcessor(address)": {
        "details": "check whether address `who` is given meta-transaction execution rights.",
        "params": {
          "who": "The address to query."
        },
        "returns": {
          "_0": "whether the address has meta-transaction execution rights."
        }
      },
      "isReferralValid(bytes,address,address,uint256,uint256)": {
        "params": {
          "commissionRate": "The commissionRate of the referral",
          "expiryTime": "The expiry time of the referral",
          "referee": "The address of the referee",
          "referrer": "The address of the referrer",
          "signature": "The signature to check (signed referral)"
        },
        "returns": {
          "_0": "True if the referral is valid"
        }
      },
      "setMetaTransactionProcessor(address,bool)": {
        "details": "Enable or disable the ability of `metaTransactionProcessor` to perform meta-tx (metaTransactionProcessor rights).",
        "params": {
          "enabled": "set whether the metaTransactionProcessor is enabled or disabled.",
          "metaTransactionProcessor": "address that will be given/removed metaTransactionProcessor rights."
        }
      },
      "setReceivingWallet(address)": {
        "params": {
          "newWallet": "address of the new receiving wallet"
        }
      },
      "updateMaxCommissionRate(uint256)": {
        "details": "Update the maximum commission rate",
        "params": {
          "newMaxCommissionRate": "The new maximum commission rate"
        }
      },
      "updateSigningWallet(address)": {
        "details": "Update the signing wallet The previous wallet is still valid for a grace period (_previousSigningDelay). If you want to disable the previous wallet, use the disablePreviousSigningWallet function.",
        "params": {
          "newSigningWallet": "The new address of the signing wallet"
        }
      },
      "withdrawAssets(address,uint256[],uint256[])": {
        "params": {
          "assetIds": "the assetIds to be transferred",
          "to": "intended recipient of the asset tokens",
          "values": "the quantities of the assetIds to be transferred"
        }
      }
    },
    "title": "Estate Sale contract with referral"
  },
  "userdoc": {
    "methods": {
      "buyLandWithSand(address,address,address,uint256[],bytes32,uint256[],bytes32[],bytes,bytes)": {
        "notice": "buy Land with SAND using the merkle proof associated with it"
      },
      "getExpiryTime()": {
        "notice": "Gets the expiry time for the current sale"
      },
      "getMaxCommissionRate()": {
        "notice": "the max commission rate"
      },
      "getMerkleRoot()": {
        "notice": "Gets the Merkle root associated with the current sale"
      },
      "isReferralValid(bytes,address,address,uint256,uint256)": {
        "notice": "Check if a referral is valid"
      },
      "setReceivingWallet(address)": {
        "notice": "set the wallet receiving the proceeds"
      },
      "withdrawAssets(address,uint256[],uint256[])": {
        "notice": "enable Admin to withdraw remaining assets from EstateSaleWithFee contract"
      }
    },
    "notice": "This contract manages the sale of our lands as Estates"
  },
  "storageLayout": {
    "storage": [
      {
        "astId": 1129,
        "contract": "src/solc_0.6/EstateSale/EstateSaleWithAuth.sol:EstateSaleWithAuth",
        "label": "_status",
        "offset": 0,
        "slot": "0",
        "type": "t_uint256"
      },
      {
        "astId": 14099,
        "contract": "src/solc_0.6/EstateSale/EstateSaleWithAuth.sol:EstateSaleWithAuth",
        "label": "_admin",
        "offset": 0,
        "slot": "1",
        "type": "t_address"
      },
      {
        "astId": 14168,
        "contract": "src/solc_0.6/EstateSale/EstateSaleWithAuth.sol:EstateSaleWithAuth",
        "label": "_metaTransactionContracts",
        "offset": 0,
        "slot": "2",
        "type": "t_mapping(t_address,t_bool)"
      },
      {
        "astId": 12200,
        "contract": "src/solc_0.6/EstateSale/EstateSaleWithAuth.sol:EstateSaleWithAuth",
        "label": "_signingWallet",
        "offset": 0,
        "slot": "3",
        "type": "t_address"
      },
      {
        "astId": 12202,
        "contract": "src/solc_0.6/EstateSale/EstateSaleWithAuth.sol:EstateSaleWithAuth",
        "label": "_maxCommissionRate",
        "offset": 0,
        "slot": "4",
        "type": "t_uint256"
      },
      {
        "astId": 12206,
        "contract": "src/solc_0.6/EstateSale/EstateSaleWithAuth.sol:EstateSaleWithAuth",
        "label": "_previousSigningWallets",
        "offset": 0,
        "slot": "5",
        "type": "t_mapping(t_address,t_uint256)"
      },
      {
        "astId": 7750,
        "contract": "src/solc_0.6/EstateSale/EstateSaleWithAuth.sol:EstateSaleWithAuth",
        "label": "_wallet",
        "offset": 0,
        "slot": "6",
        "type": "t_address_payable"
      },
      {
        "astId": 7752,
        "contract": "src/solc_0.6/EstateSale/EstateSaleWithAuth.sol:EstateSaleWithAuth",
        "label": "_authValidator",
        "offset": 0,
        "slot": "7",
        "type": "t_contract(AuthValidator)7063"
      }
    ],
    "types": {
      "t_address": {
        "encoding": "inplace",
        "label": "address",
        "numberOfBytes": "20"
      },
      "t_address_payable": {
        "encoding": "inplace",
        "label": "address payable",
        "numberOfBytes": "20"
      },
      "t_bool": {
        "encoding": "inplace",
        "label": "bool",
        "numberOfBytes": "1"
      },
      "t_contract(AuthValidator)7063": {
        "encoding": "inplace",
        "label": "contract AuthValidator",
        "numberOfBytes": "20"
      },
      "t_mapping(t_address,t_bool)": {
        "encoding": "mapping",
        "key": "t_address",
        "label": "mapping(address => bool)",
        "numberOfBytes": "32",
        "value": "t_bool"
      },
      "t_mapping(t_address,t_uint256)": {
        "encoding": "mapping",
        "key": "t_address",
        "label": "mapping(address => uint256)",
        "numberOfBytes": "32",
        "value": "t_uint256"
      },
      "t_uint256": {
        "encoding": "inplace",
        "label": "uint256",
        "numberOfBytes": "32"
      }
    }
  }
}