{
  "address": "0x51c19a3D3851c67F5198532561bFc6F051B9b336",
  "abi": [
    {
      "inputs": [
        {
          "internalType": "address",
          "name": "_polygonLand",
          "type": "address"
        },
        {
          "internalType": "address",
          "name": "_newLandTunnel",
          "type": "address"
        },
        {
          "internalType": "address",
          "name": "_oldLandTunnel",
          "type": "address"
        },
        {
          "internalType": "address",
          "name": "_admin",
          "type": "address"
        }
      ],
      "stateMutability": "nonpayable",
      "type": "constructor"
    },
    {
      "anonymous": false,
      "inputs": [
        {
          "indexed": true,
          "internalType": "address",
          "name": "_newAdmin",
          "type": "address"
        }
      ],
      "name": "AdminChanged",
      "type": "event"
    },
    {
      "anonymous": false,
      "inputs": [
        {
          "indexed": true,
          "internalType": "address",
          "name": "oldLandTunnel",
          "type": "address"
        },
        {
          "indexed": true,
          "internalType": "address",
          "name": "newLandTunnel",
          "type": "address"
        },
        {
          "indexed": false,
          "internalType": "uint256[]",
          "name": "ids",
          "type": "uint256[]"
        }
      ],
      "name": "TunnelLandsMigrated",
      "type": "event"
    },
    {
      "anonymous": false,
      "inputs": [
        {
          "components": [
            {
              "internalType": "address",
              "name": "owner",
              "type": "address"
            },
            {
              "internalType": "uint256[]",
              "name": "sizes",
              "type": "uint256[]"
            },
            {
              "internalType": "uint256[]",
              "name": "x",
              "type": "uint256[]"
            },
            {
              "internalType": "uint256[]",
              "name": "y",
              "type": "uint256[]"
            }
          ],
          "indexed": true,
          "internalType": "struct PolygonLandTunnelMigration.OwnerWithLandIds",
          "name": "_ownerWithLandIds",
          "type": "tuple"
        }
      ],
      "name": "TunnelLandsMigratedWithWithdraw",
      "type": "event"
    },
    {
      "anonymous": false,
      "inputs": [
        {
          "indexed": true,
          "internalType": "address",
          "name": "oldLandTunnel",
          "type": "address"
        },
        {
          "indexed": true,
          "internalType": "address",
          "name": "newLandTunnel",
          "type": "address"
        },
        {
          "indexed": false,
          "internalType": "uint256[]",
          "name": "sizes",
          "type": "uint256[]"
        },
        {
          "indexed": false,
          "internalType": "uint256[]",
          "name": "x",
          "type": "uint256[]"
        },
        {
          "indexed": false,
          "internalType": "uint256[]",
          "name": "y",
          "type": "uint256[]"
        }
      ],
      "name": "TunnelQuadsMigrated",
      "type": "event"
    },
    {
      "inputs": [],
      "name": "approveNewLandTunnel",
      "outputs": [],
      "stateMutability": "nonpayable",
      "type": "function"
    },
    {
      "inputs": [
        {
          "internalType": "address",
          "name": "_newAdmin",
          "type": "address"
        }
      ],
      "name": "changeAdmin",
      "outputs": [],
      "stateMutability": "nonpayable",
      "type": "function"
    },
    {
      "inputs": [
        {
          "internalType": "uint256[]",
          "name": "ids",
          "type": "uint256[]"
        }
      ],
      "name": "migrateLandsToTunnel",
      "outputs": [],
      "stateMutability": "nonpayable",
      "type": "function"
    },
    {
      "inputs": [
        {
          "internalType": "uint256[]",
          "name": "sizes",
          "type": "uint256[]"
        },
        {
          "internalType": "uint256[]",
          "name": "x",
          "type": "uint256[]"
        },
        {
          "internalType": "uint256[]",
          "name": "y",
          "type": "uint256[]"
        }
      ],
      "name": "migrateQuadsToTunnel",
      "outputs": [],
      "stateMutability": "nonpayable",
      "type": "function"
    },
    {
      "inputs": [
        {
          "components": [
            {
              "internalType": "address",
              "name": "owner",
              "type": "address"
            },
            {
              "internalType": "uint256[]",
              "name": "sizes",
              "type": "uint256[]"
            },
            {
              "internalType": "uint256[]",
              "name": "x",
              "type": "uint256[]"
            },
            {
              "internalType": "uint256[]",
              "name": "y",
              "type": "uint256[]"
            }
          ],
          "internalType": "struct PolygonLandTunnelMigration.OwnerWithLandIds",
          "name": "_ownerWithLandIds",
          "type": "tuple"
        }
      ],
      "name": "migrateToTunnelWithWithdraw",
      "outputs": [],
      "stateMutability": "nonpayable",
      "type": "function"
    },
    {
      "inputs": [],
      "name": "newLandTunnel",
      "outputs": [
        {
          "internalType": "address",
          "name": "",
          "type": "address"
        }
      ],
      "stateMutability": "view",
      "type": "function"
    },
    {
      "inputs": [],
      "name": "oldLandTunnel",
      "outputs": [
        {
          "internalType": "address",
          "name": "",
          "type": "address"
        }
      ],
      "stateMutability": "view",
      "type": "function"
    },
    {
      "inputs": [
        {
          "internalType": "address",
          "name": "",
          "type": "address"
        },
        {
          "internalType": "address",
          "name": "",
          "type": "address"
        },
        {
          "internalType": "uint256[]",
          "name": "",
          "type": "uint256[]"
        },
        {
          "internalType": "bytes",
          "name": "",
          "type": "bytes"
        }
      ],
      "name": "onERC721BatchReceived",
      "outputs": [
        {
          "internalType": "bytes4",
          "name": "",
          "type": "bytes4"
        }
      ],
      "stateMutability": "pure",
      "type": "function"
    },
    {
      "inputs": [
        {
          "internalType": "address",
          "name": "",
          "type": "address"
        },
        {
          "internalType": "address",
          "name": "",
          "type": "address"
        },
        {
          "internalType": "uint256",
          "name": "",
          "type": "uint256"
        },
        {
          "internalType": "bytes",
          "name": "",
          "type": "bytes"
        }
      ],
      "name": "onERC721Received",
      "outputs": [
        {
          "internalType": "bytes4",
          "name": "",
          "type": "bytes4"
        }
      ],
      "stateMutability": "pure",
      "type": "function"
    },
    {
      "inputs": [],
      "name": "polygonLand",
      "outputs": [
        {
          "internalType": "contract IPolygonLandWithSetApproval",
          "name": "",
          "type": "address"
        }
      ],
      "stateMutability": "view",
      "type": "function"
    },
    {
      "inputs": [
        {
          "internalType": "bytes4",
          "name": "interfaceId",
          "type": "bytes4"
        }
      ],
      "name": "supportsInterface",
      "outputs": [
        {
          "internalType": "bool",
          "name": "",
          "type": "bool"
        }
      ],
      "stateMutability": "pure",
      "type": "function"
    }
  ],
  "transactionHash": "0xc082ae095b26f40a3da1340a99ceb1f1abd67a8481e78f104653f719b7add472",
  "args": [
    "0x9d305a42A3975Ee4c1C57555BeD5919889DCE63F",
    "0x21B083e128fa7BcC31214a0c000B56Fd4372EEa8",
    "0xCd1C7C85113b16A5B9e09576112d162281b5F860",
    "0x7051Cb544C4A8d5AAd1Be46Cc9524E48108e60B4"
  ],
  "numDeployments": 1,
  "solcInputHash": "e1aa5651f7645b1641ef34120369a942",
  "bytecode": "0x60e06040523480156200001157600080fd5b50604051620015ff380380620015ff8339810160408190526200003491620002bf565b6001600160a01b038116620000b65760405162461bcd60e51b815260206004820152603760248201527f506f6c79676f6e4c616e6454756e6e656c4d6967726174696f6e3a2061646d6960448201527f6e2063616e2774206265207a65726f206164647265737300000000000000000060648201526084015b60405180910390fd5b6001600160a01b038416620001345760405162461bcd60e51b815260206004820152603d60248201527f506f6c79676f6e4c616e6454756e6e656c4d6967726174696f6e3a20706f6c7960448201527f676f6e4c616e642063616e2774206265207a65726f20616464726573730000006064820152608401620000ad565b6001600160a01b038316620001b25760405162461bcd60e51b815260206004820152603c60248201527f506f6c79676f6e4c616e6454756e6e656c4d6967726174696f6e3a206e65772060448201527f54756e6e656c2063616e2774206265207a65726f2061646472657373000000006064820152608401620000ad565b6001600160a01b038216620002305760405162461bcd60e51b815260206004820152603c60248201527f506f6c79676f6e4c616e6454756e6e656c4d6967726174696f6e3a206f6c642060448201527f54756e6e656c2063616e2774206265207a65726f2061646472657373000000006064820152608401620000ad565b600080546001600160a01b0383166001600160a01b0319909116811782556001600160601b0319606087811b821660805286811b821660a05285901b1660c05260405190917f7ce7ec0b50378fb6c0186ffb5f48325f6593fcb4ca4386f21861af3129188f5c91a2505050506200031b565b80516001600160a01b0381168114620002ba57600080fd5b919050565b60008060008060808587031215620002d5578384fd5b620002e085620002a2565b9350620002f060208601620002a2565b92506200030060408601620002a2565b91506200031060608601620002a2565b905092959194509250565b60805160601c60a05160601c60c05160601c611242620003bd600039600081816101f1015281816103e20152818161048c01528181610822015281816108d00152610a0e0152600081816101640152818161040401528181610462015281816106ce01528181610844015281816108a60152610aab015260008181610233015281816103b5015281816106fd015281816107f501526109e101526112426000f3fe608060405234801561001057600080fd5b50600436106100c95760003560e01c806386f4779211610081578063df6324291161005b578063df6324291461022e578063ebe9483414610255578063ff9bb14514610268576100c9565b806386f47792146101ec5780638f28397014610213578063c62fbdea14610226576100c9565b80633b2fd458116100b25780633b2fd4581461015f5780634b808c461461019e57806376926076146101d7576100c9565b806301ffc9a7146100ce578063150b7a02146100f6575b600080fd5b6100e16100dc366004610e3e565b61027b565b60405190151581526020015b60405180910390f35b61012e610104366004610d12565b7f150b7a020000000000000000000000000000000000000000000000000000000095945050505050565b6040517fffffffff0000000000000000000000000000000000000000000000000000000090911681526020016100ed565b6101867f000000000000000000000000000000000000000000000000000000000000000081565b6040516001600160a01b0390911681526020016100ed565b61012e6101ac366004610c57565b7f4b808c46000000000000000000000000000000000000000000000000000000009695505050505050565b6101ea6101e5366004610d7f565b610316565b005b6101867f000000000000000000000000000000000000000000000000000000000000000081565b6101ea610221366004610c36565b6104ee565b6101ea610634565b6101867f000000000000000000000000000000000000000000000000000000000000000081565b6101ea610263366004610dba565b61075b565b6101ea610276366004610e7e565b610938565b60007f5e8bf644000000000000000000000000000000000000000000000000000000007fffffffff000000000000000000000000000000000000000000000000000000008316148061030e57507f01ffc9a7000000000000000000000000000000000000000000000000000000007fffffffff000000000000000000000000000000000000000000000000000000008316145b90505b919050565b6000546001600160a01b031633146103855760405162461bcd60e51b815260206004820152602760248201527f506f6c79676f6e4c616e6454756e6e656c4d6967726174696f6e3a20214155546044820152661213d49254d15160ca1b60648201526084015b60405180910390fd5b6040517f15ddc5350000000000000000000000000000000000000000000000000000000081526001600160a01b037f000000000000000000000000000000000000000000000000000000000000000016906315ddc5359061042e907f0000000000000000000000000000000000000000000000000000000000000000907f000000000000000000000000000000000000000000000000000000000000000090869060040161109c565b600060405180830381600087803b15801561044857600080fd5b505af115801561045c573d6000803e3d6000fd5b505050507f00000000000000000000000000000000000000000000000000000000000000006001600160a01b03167f00000000000000000000000000000000000000000000000000000000000000006001600160a01b03167ff3c8a06d9bf1d976109b76dbbd7e869f76aa4af071573fe465e2b3b8f5b421f4836040516104e39190611142565b60405180910390a350565b6000546001600160a01b031633146105585760405162461bcd60e51b815260206004820152602760248201527f506f6c79676f6e4c616e6454756e6e656c4d6967726174696f6e3a20214155546044820152661213d49254d15160ca1b606482015260840161037c565b6001600160a01b0381166105d45760405162461bcd60e51b815260206004820152603760248201527f506f6c79676f6e4c616e6454756e6e656c4d6967726174696f6e3a2061646d6960448201527f6e2063616e2774206265207a65726f2061646472657373000000000000000000606482015260840161037c565b600080547fffffffffffffffffffffffff0000000000000000000000000000000000000000166001600160a01b038316908117825560405190917f7ce7ec0b50378fb6c0186ffb5f48325f6593fcb4ca4386f21861af3129188f5c91a250565b6000546001600160a01b0316331461069e5760405162461bcd60e51b815260206004820152602760248201527f506f6c79676f6e4c616e6454756e6e656c4d6967726174696f6e3a20214155546044820152661213d49254d15160ca1b606482015260840161037c565b6040517fa22cb4650000000000000000000000000000000000000000000000000000000081526001600160a01b037f000000000000000000000000000000000000000000000000000000000000000081166004830152600160248301527f0000000000000000000000000000000000000000000000000000000000000000169063a22cb46590604401600060405180830381600087803b15801561074157600080fd5b505af1158015610755573d6000803e3d6000fd5b50505050565b6000546001600160a01b031633146107c55760405162461bcd60e51b815260206004820152602760248201527f506f6c79676f6e4c616e6454756e6e656c4d6967726174696f6e3a20214155546044820152661213d49254d15160ca1b606482015260840161037c565b6040517feaa5e0670000000000000000000000000000000000000000000000000000000081526001600160a01b037f0000000000000000000000000000000000000000000000000000000000000000169063eaa5e06790610872907f0000000000000000000000000000000000000000000000000000000000000000907f00000000000000000000000000000000000000000000000000000000000000009088908890889060040161102f565b600060405180830381600087803b15801561088c57600080fd5b505af11580156108a0573d6000803e3d6000fd5b505050507f00000000000000000000000000000000000000000000000000000000000000006001600160a01b03167f00000000000000000000000000000000000000000000000000000000000000006001600160a01b03167f5925ea9cd1b8a825a990df684ca7e1da5ce4c4dfbc2271a8470b8f2a31dcc12785858560405161092b93929190611155565b60405180910390a3505050565b6000546001600160a01b031633146109a25760405162461bcd60e51b815260206004820152602760248201527f506f6c79676f6e4c616e6454756e6e656c4d6967726174696f6e3a20214155546044820152661213d49254d15160ca1b606482015260840161037c565b6020810151604080830151606084015191517feaa5e0670000000000000000000000000000000000000000000000000000000081526001600160a01b037f0000000000000000000000000000000000000000000000000000000000000000169363eaa5e06793610a3a937f0000000000000000000000000000000000000000000000000000000000000000933093929060040161102f565b600060405180830381600087803b158015610a5457600080fd5b505af1158015610a68573d6000803e3d6000fd5b505082516020840151604080860151606087015191517f3f360a400000000000000000000000000000000000000000000000000000000081526001600160a01b037f0000000000000000000000000000000000000000000000000000000000000000169650633f360a409550610ae3949392906004016110e0565b600060405180830381600087803b158015610afd57600080fd5b505af1158015610b11573d6000803e3d6000fd5b5050505080604051610b239190610f9f565b604051908190038120907f62c9f2bdf46e0b85b03dabe7d78361cc7dc14ca10dda2527d405e3a57a218c0190600090a250565b80356001600160a01b038116811461031157600080fd5b600082601f830112610b7d578081fd5b8135602067ffffffffffffffff821115610b9957610b996111dd565b808202610ba782820161118e565b838152828101908684018388018501891015610bc1578687fd5b8693505b85841015610be3578035835260019390930192918401918401610bc5565b50979650505050505050565b60008083601f840112610c00578182fd5b50813567ffffffffffffffff811115610c17578182fd5b602083019150836020828501011115610c2f57600080fd5b9250929050565b600060208284031215610c47578081fd5b610c5082610b56565b9392505050565b60008060008060008060808789031215610c6f578182fd5b610c7887610b56565b9550610c8660208801610b56565b9450604087013567ffffffffffffffff80821115610ca2578384fd5b818901915089601f830112610cb5578384fd5b813581811115610cc3578485fd5b8a60208083028501011115610cd6578485fd5b602083019650809550506060890135915080821115610cf3578384fd5b50610d0089828a01610bef565b979a9699509497509295939492505050565b600080600080600060808688031215610d29578081fd5b610d3286610b56565b9450610d4060208701610b56565b935060408601359250606086013567ffffffffffffffff811115610d62578182fd5b610d6e88828901610bef565b969995985093965092949392505050565b600060208284031215610d90578081fd5b813567ffffffffffffffff811115610da6578182fd5b610db284828501610b6d565b949350505050565b600080600060608486031215610dce578283fd5b833567ffffffffffffffff80821115610de5578485fd5b610df187838801610b6d565b94506020860135915080821115610e06578384fd5b610e1287838801610b6d565b93506040860135915080821115610e27578283fd5b50610e3486828701610b6d565b9150509250925092565b600060208284031215610e4f578081fd5b81357fffffffff0000000000000000000000000000000000000000000000000000000081168114610c50578182fd5b600060208284031215610e8f578081fd5b813567ffffffffffffffff80821115610ea6578283fd5b9083019060808286031215610eb9578283fd5b610ec3608061118e565b610ecc83610b56565b8152602083013582811115610edf578485fd5b610eeb87828601610b6d565b602083015250604083013582811115610f02578485fd5b610f0e87828601610b6d565b604083015250606083013582811115610f25578485fd5b610f3187828601610b6d565b60608301525095945050505050565b6000815180845260208085019450808401835b83811015610f6f57815187529582019590820190600101610f53565b509495945050505050565b80516000906020808401838315610f6f57815187529582019590820190600101610f53565b81516001600160a01b031681526020808301518051600092918201908390838601905b80831015610fe25783518252928401926001929092019190840190610fc2565b5060408701518051908501935090915084905b808210156110155783518352928401929184019160019190910190610ff5565b5050611025816060880151610f7a565b9695505050505050565b60006001600160a01b03808816835280871660208401525060c0604083015261105b60c0830186610f40565b828103606084015261106d8186610f40565b905082810360808401526110818185610f40565b83810360a09094019390935250815260200195945050505050565b60006001600160a01b038086168352808516602084015250608060408301526110c86080830184610f40565b82810360609093019290925281526020019392505050565b60006001600160a01b038616825260a0602083015261110260a0830186610f40565b82810360408401526111148186610f40565b905082810360608401526111288185610f40565b838103608090940193909352508152602001949350505050565b600060208252610c506020830184610f40565b6000606082526111686060830186610f40565b828103602084015261117a8186610f40565b905082810360408401526110258185610f40565b604051601f82017fffffffffffffffffffffffffffffffffffffffffffffffffffffffffffffffe016810167ffffffffffffffff811182821017156111d5576111d56111dd565b604052919050565b7f4e487b7100000000000000000000000000000000000000000000000000000000600052604160045260246000fdfea2646970667358221220fb57950404fd5e9de7c33d8df02df870e277812983cfd067b74fe9c45b330ddc64736f6c63430008020033",
  "devdoc": {
    "author": "The Sandbox",
    "kind": "dev",
    "methods": {
      "approveNewLandTunnel()": {
        "details": "approves New Land Tunnel to transfer Lands on behalf of this contract"
      },
      "changeAdmin(address)": {
        "params": {
          "_newAdmin": "the new admin to be set"
        }
      },
      "constructor": {
        "params": {
          "_admin": "admin of the contract",
          "_newLandTunnel": "tunnel address to migrate to",
          "_oldLandTunnel": "tunnel address to migrate from",
          "_polygonLand": "LAND token address on the child chain"
        }
      },
      "migrateLandsToTunnel(uint256[])": {
        "details": "Transfers all the passed land ids from the old land tunnel to the new land tunnel",
        "params": {
          "ids": "of land tokens to be migrated"
        }
      },
      "migrateQuadsToTunnel(uint256[],uint256[],uint256[])": {
        "details": "Transfers all the passed quads from the old land tunnel to the new land tunnel",
        "params": {
          "sizes": "of land quads to be migrated",
          "x": "coordinate of land quads to be migrated",
          "y": "coordinate of land quads to be migrated"
        }
      },
      "migrateToTunnelWithWithdraw((address,uint256[],uint256[],uint256[]))": {
        "details": "Fetches locked land ids to this contract and withdraws again through the new tunnel",
        "params": {
          "_ownerWithLandIds": "struct containing token owner with their land ids"
        }
      },
      "onERC721BatchReceived(address,address,uint256[],bytes)": {
        "details": "called on ERC721 batch transfer to this contract",
        "returns": {
          "_0": "onERC721BatchReceived function selector"
        }
      },
      "onERC721Received(address,address,uint256,bytes)": {
        "details": "called on ERC721 transfer to this contract",
        "returns": {
          "_0": "onERC721Received function selector"
        }
      },
      "supportsInterface(bytes4)": {
        "details": "to be called by external contact to check if this contract supports ERC721 token and batch token receive",
        "params": {
          "interfaceId": "the interface to be checked if supported by the contract"
        },
        "returns": {
          "_0": "0x5e8bf644 is the interface of IERC721MandatoryTokenReceiver and 0x01ffc9a7 for the Eip 165 supports interface's interface id"
        }
      }
    },
    "title": "Tunnel migration on L2",
    "version": 1
  },
  "userdoc": {
    "kind": "user",
    "methods": {
      "changeAdmin(address)": {
        "notice": "changes admin to new admin"
      },
      "constructor": {
        "notice": "constructor of the tunnel migration contract"
      },
      "migrateLandsToTunnel(uint256[])": {
        "notice": "This method needs super operator role to execute"
      },
      "migrateQuadsToTunnel(uint256[],uint256[],uint256[])": {
        "notice": "This method needs super operator role to execute"
      },
      "migrateToTunnelWithWithdraw((address,uint256[],uint256[],uint256[]))": {
        "notice": "This method needs super operator role to execute"
      }
    },
    "notice": "contract handling the migration of LAND tokens from a tunnel to a new one",
    "version": 1
  },
  "storageLayout": {
    "storage": [
      {
        "astId": 64304,
        "contract": "src/solc_0.8/polygon/child/land/PolygonLandTunnelMigration.sol:PolygonLandTunnelMigration",
        "label": "admin",
        "offset": 0,
        "slot": "0",
        "type": "t_address"
      }
    ],
    "types": {
      "t_address": {
        "encoding": "inplace",
        "label": "address",
        "numberOfBytes": "20"
      }
    }
  }
}