{
  "address": "0x2c22c0416cAb0Ad8E0431bf8307a8b113b300dEa",
  "abi": [
    {
      "inputs": [
        {
          "internalType": "address",
          "name": "landAddress",
          "type": "address"
        },
        {
          "internalType": "address",
          "name": "sandContractAddress",
          "type": "address"
        },
        {
          "internalType": "address",
          "name": "initialMetaTx",
          "type": "address"
        },
        {
          "internalType": "address",
          "name": "admin",
          "type": "address"
        },
        {
          "internalType": "address payable",
          "name": "initialWalletAddress",
          "type": "address"
        },
        {
          "internalType": "bytes32",
          "name": "merkleRoot",
          "type": "bytes32"
        },
        {
          "internalType": "uint256",
          "name": "expiryTime",
          "type": "uint256"
        },
        {
          "internalType": "address",
          "name": "initialSigningWallet",
          "type": "address"
        },
        {
          "internalType": "uint256",
          "name": "initialMaxCommissionRate",
          "type": "uint256"
        },
        {
          "internalType": "address",
          "name": "estate",
          "type": "address"
        },
        {
          "internalType": "address",
          "name": "asset",
          "type": "address"
        },
        {
          "internalType": "address",
          "name": "feeDistributor",
          "type": "address"
        },
        {
          "internalType": "address",
          "name": "authValidator",
          "type": "address"
        }
      ],
      "stateMutability": "nonpayable",
      "type": "constructor"
    },
    {
      "anonymous": false,
      "inputs": [
        {
          "indexed": false,
          "internalType": "address",
          "name": "oldAdmin",
          "type": "address"
        },
        {
          "indexed": false,
          "internalType": "address",
          "name": "newAdmin",
          "type": "address"
        }
      ],
      "name": "AdminChanged",
      "type": "event"
    },
    {
      "anonymous": false,
      "inputs": [
        {
          "indexed": true,
          "internalType": "address",
          "name": "buyer",
          "type": "address"
        },
        {
          "indexed": true,
          "internalType": "address",
          "name": "to",
          "type": "address"
        },
        {
          "indexed": true,
          "internalType": "uint256",
          "name": "topCornerId",
          "type": "uint256"
        },
        {
          "indexed": false,
          "internalType": "uint256",
          "name": "size",
          "type": "uint256"
        },
        {
          "indexed": false,
          "internalType": "uint256",
          "name": "price",
          "type": "uint256"
        },
        {
          "indexed": false,
          "internalType": "address",
          "name": "token",
          "type": "address"
        },
        {
          "indexed": false,
          "internalType": "uint256",
          "name": "amountPaid",
          "type": "uint256"
        }
      ],
      "name": "LandQuadPurchased",
      "type": "event"
    },
    {
      "anonymous": false,
      "inputs": [
        {
          "indexed": true,
          "internalType": "uint256",
          "name": "newMaxCommissionRate",
          "type": "uint256"
        }
      ],
      "name": "MaxCommissionRateUpdated",
      "type": "event"
    },
    {
      "anonymous": false,
      "inputs": [
        {
          "indexed": false,
          "internalType": "address",
          "name": "metaTransactionProcessor",
          "type": "address"
        },
        {
          "indexed": false,
          "internalType": "bool",
          "name": "enabled",
          "type": "bool"
        }
      ],
      "name": "MetaTransactionProcessor",
      "type": "event"
    },
    {
      "anonymous": false,
      "inputs": [
        {
          "indexed": true,
          "internalType": "address",
          "name": "newWallet",
          "type": "address"
        }
      ],
      "name": "NewReceivingWallet",
      "type": "event"
    },
    {
      "anonymous": false,
      "inputs": [
        {
          "indexed": true,
          "internalType": "address",
          "name": "referrer",
          "type": "address"
        },
        {
          "indexed": true,
          "internalType": "address",
          "name": "referee",
          "type": "address"
        },
        {
          "indexed": true,
          "internalType": "address",
          "name": "token",
          "type": "address"
        },
        {
          "indexed": false,
          "internalType": "uint256",
          "name": "amount",
          "type": "uint256"
        },
        {
          "indexed": false,
          "internalType": "uint256",
          "name": "commission",
          "type": "uint256"
        },
        {
          "indexed": false,
          "internalType": "uint256",
          "name": "commissionRate",
          "type": "uint256"
        }
      ],
      "name": "ReferralUsed",
      "type": "event"
    },
    {
      "anonymous": false,
      "inputs": [
        {
          "indexed": true,
          "internalType": "address",
          "name": "newSigningWallet",
          "type": "address"
        }
      ],
      "name": "SigningWalletUpdated",
      "type": "event"
    },
    {
      "inputs": [
        {
          "internalType": "address",
          "name": "buyer",
          "type": "address"
        },
        {
          "internalType": "address",
          "name": "to",
          "type": "address"
        },
        {
          "internalType": "address",
          "name": "reserved",
          "type": "address"
        },
        {
          "internalType": "uint256[]",
          "name": "info",
          "type": "uint256[]"
        },
        {
          "internalType": "bytes32",
          "name": "salt",
          "type": "bytes32"
        },
        {
          "internalType": "uint256[]",
          "name": "assetIds",
          "type": "uint256[]"
        },
        {
          "internalType": "bytes32[]",
          "name": "proof",
          "type": "bytes32[]"
        },
        {
          "internalType": "bytes",
          "name": "referral",
          "type": "bytes"
        },
        {
          "internalType": "bytes",
          "name": "signature",
          "type": "bytes"
        }
      ],
      "name": "buyLandWithSand",
      "outputs": [],
      "stateMutability": "nonpayable",
      "type": "function"
    },
    {
      "inputs": [
        {
          "internalType": "address",
          "name": "newAdmin",
          "type": "address"
        }
      ],
      "name": "changeAdmin",
      "outputs": [],
      "stateMutability": "nonpayable",
      "type": "function"
    },
    {
      "inputs": [
        {
          "internalType": "bytes",
          "name": "referral",
          "type": "bytes"
        }
      ],
      "name": "decodeReferral",
      "outputs": [
        {
          "internalType": "bytes",
          "name": "",
          "type": "bytes"
        },
        {
          "internalType": "address",
          "name": "",
          "type": "address"
        },
        {
          "internalType": "address",
          "name": "",
          "type": "address"
        },
        {
          "internalType": "uint256",
          "name": "",
          "type": "uint256"
        },
        {
          "internalType": "uint256",
          "name": "",
          "type": "uint256"
        }
      ],
      "stateMutability": "pure",
      "type": "function"
    },
    {
      "inputs": [
        {
          "internalType": "address",
          "name": "disableWallet",
          "type": "address"
        }
      ],
      "name": "disablePreviousSigningWallet",
      "outputs": [],
      "stateMutability": "nonpayable",
      "type": "function"
    },
    {
      "inputs": [],
      "name": "getAdmin",
      "outputs": [
        {
          "internalType": "address",
          "name": "",
          "type": "address"
        }
      ],
      "stateMutability": "view",
      "type": "function"
    },
    {
      "inputs": [],
      "name": "getExpiryTime",
      "outputs": [
        {
          "internalType": "uint256",
          "name": "",
          "type": "uint256"
        }
      ],
      "stateMutability": "view",
      "type": "function"
    },
    {
      "inputs": [],
      "name": "getMaxCommissionRate",
      "outputs": [
        {
          "internalType": "uint256",
          "name": "",
          "type": "uint256"
        }
      ],
      "stateMutability": "view",
      "type": "function"
    },
    {
      "inputs": [],
      "name": "getMerkleRoot",
      "outputs": [
        {
          "internalType": "bytes32",
          "name": "",
          "type": "bytes32"
        }
      ],
      "stateMutability": "view",
      "type": "function"
    },
    {
      "inputs": [],
      "name": "getSigningWallet",
      "outputs": [
        {
          "internalType": "address",
          "name": "",
          "type": "address"
        }
      ],
      "stateMutability": "view",
      "type": "function"
    },
    {
      "inputs": [
        {
          "internalType": "address",
          "name": "who",
          "type": "address"
        }
      ],
      "name": "isMetaTransactionProcessor",
      "outputs": [
        {
          "internalType": "bool",
          "name": "",
          "type": "bool"
        }
      ],
      "stateMutability": "view",
      "type": "function"
    },
    {
      "inputs": [
        {
          "internalType": "bytes",
          "name": "signature",
          "type": "bytes"
        },
        {
          "internalType": "address",
          "name": "referrer",
          "type": "address"
        },
        {
          "internalType": "address",
          "name": "referee",
          "type": "address"
        },
        {
          "internalType": "uint256",
          "name": "expiryTime",
          "type": "uint256"
        },
        {
          "internalType": "uint256",
          "name": "commissionRate",
          "type": "uint256"
        }
      ],
      "name": "isReferralValid",
      "outputs": [
        {
          "internalType": "bool",
          "name": "",
          "type": "bool"
        }
      ],
      "stateMutability": "view",
      "type": "function"
    },
    {
      "inputs": [
        {
          "internalType": "address",
          "name": "",
          "type": "address"
        },
        {
          "internalType": "address",
          "name": "",
          "type": "address"
        },
        {
          "internalType": "uint256[]",
          "name": "",
          "type": "uint256[]"
        },
        {
          "internalType": "uint256[]",
          "name": "",
          "type": "uint256[]"
        },
        {
          "internalType": "bytes",
          "name": "",
          "type": "bytes"
        }
      ],
      "name": "onERC1155BatchReceived",
      "outputs": [
        {
          "internalType": "bytes4",
          "name": "",
          "type": "bytes4"
        }
      ],
      "stateMutability": "pure",
      "type": "function"
    },
    {
      "inputs": [
        {
          "internalType": "address",
          "name": "",
          "type": "address"
        },
        {
          "internalType": "address",
          "name": "",
          "type": "address"
        },
        {
          "internalType": "uint256",
          "name": "",
          "type": "uint256"
        },
        {
          "internalType": "uint256",
          "name": "",
          "type": "uint256"
        },
        {
          "internalType": "bytes",
          "name": "",
          "type": "bytes"
        }
      ],
      "name": "onERC1155Received",
      "outputs": [
        {
          "internalType": "bytes4",
          "name": "",
          "type": "bytes4"
        }
      ],
      "stateMutability": "pure",
      "type": "function"
    },
    {
      "inputs": [
        {
          "internalType": "address",
          "name": "metaTransactionProcessor",
          "type": "address"
        },
        {
          "internalType": "bool",
          "name": "enabled",
          "type": "bool"
        }
      ],
      "name": "setMetaTransactionProcessor",
      "outputs": [],
      "stateMutability": "nonpayable",
      "type": "function"
    },
    {
      "inputs": [
        {
          "internalType": "address payable",
          "name": "newWallet",
          "type": "address"
        }
      ],
      "name": "setReceivingWallet",
      "outputs": [],
      "stateMutability": "nonpayable",
      "type": "function"
    },
    {
      "inputs": [
        {
          "internalType": "uint256",
          "name": "newMaxCommissionRate",
          "type": "uint256"
        }
      ],
      "name": "updateMaxCommissionRate",
      "outputs": [],
      "stateMutability": "nonpayable",
      "type": "function"
    },
    {
      "inputs": [
        {
          "internalType": "address",
          "name": "newSigningWallet",
          "type": "address"
        }
      ],
      "name": "updateSigningWallet",
      "outputs": [],
      "stateMutability": "nonpayable",
      "type": "function"
    },
    {
      "inputs": [
        {
          "internalType": "address",
          "name": "to",
          "type": "address"
        },
        {
          "internalType": "uint256[]",
          "name": "assetIds",
          "type": "uint256[]"
        },
        {
          "internalType": "uint256[]",
          "name": "values",
          "type": "uint256[]"
        }
      ],
      "name": "withdrawAssets",
      "outputs": [],
      "stateMutability": "nonpayable",
      "type": "function"
    }
  ],
  "transactionHash": "0x03b8bba8ce04041a5c0315cea94e5f325139d160bc8394789e6901d731e4ec34",
  "args": [
    "0x9d305a42A3975Ee4c1C57555BeD5919889DCE63F",
    "0xBbba073C31bF03b8ACf7c28EF0738DeCF3695683",
    "0xBbba073C31bF03b8ACf7c28EF0738DeCF3695683",
    "0xfD30a48Bc6c56E24B0ebF1B0117d750e2CFf7531",
    "0x1b47567CBE36e63293A7A2018F79687f942aB24C",
    "0x05a0a701d14e98297670b510f5090989f775c18a85cde11c8087f78e270fd611",
    1710936000,
    "0x3044719d139F866a44c988823513eCB93060bF1b",
    2000,
    "0x0000000000000000000000000000000000000000",
    "0xd19cc137bb848d3a48ad8ad883886b67c26761dc",
    "0x42a4a3795446A4c070565da201c6303fC78a2569",
    "0x7804fb2AF15bB1323795A888B09913cEf629Ffda"
  ],
  "numDeployments": 1,
  "linkedData": [
    {
      "x": 176,
      "y": 33,
      "size": 1,
      "price": "1011000000000000000000",
      "reserved": "0x7a9fe22691c811ea339d9b73150e6911a5343dca",
      "salt": "0x45656edeafda4f9a0d027a18a91c238992b516be363390afa95cf57deca2dc94",
      "assetIds": []
    },
    {
      "x": 172,
      "y": 31,
      "size": 1,
      "price": "1011000000000000000000",
      "reserved": "0x7a9fe22691c811ea339d9b73150e6911a5343dca",
      "salt": "0x1ced86ff9a616674148a7019a83798e0f8702c2b34f2db7f116d19609a8328a1",
      "assetIds": []
    },
    {
      "x": 170,
      "y": 33,
      "size": 1,
      "price": "1011000000000000000000",
      "reserved": "0x7a9fe22691c811ea339d9b73150e6911a5343dca",
      "salt": "0xf88765b67fbe27289e58688160ae25f6ffaf53e6b14a21fc14acb267510bdcaf",
      "assetIds": []
    },
    {
      "x": 162,
      "y": 21,
      "size": 1,
      "price": "1011000000000000000000",
      "reserved": "0x7a9fe22691c811ea339d9b73150e6911a5343dca",
      "salt": "0xb75e97528106f682b95de7547ecd4f3411d64612e7822c102417f7e3e3308a97",
      "assetIds": []
    },
    {
      "x": 162,
      "y": 17,
      "size": 1,
      "price": "1011000000000000000000",
      "reserved": "0x7a9fe22691c811ea339d9b73150e6911a5343dca",
      "salt": "0xf198b89f923b4289862b0c6adce9dceb71ed05f8f2213484e22a4d6c057426b6",
      "assetIds": []
    },
    {
      "x": 170,
      "y": 16,
      "size": 1,
      "price": "1011000000000000000000",
      "reserved": "0x7a9fe22691c811ea339d9b73150e6911a5343dca",
      "salt": "0x5f53352665f3c3186f48df1a3c49a116f1a7a4f5af07f2f49e880d895dbdcb96",
      "assetIds": []
    },
    {
      "x": 175,
      "y": 22,
      "size": 1,
      "price": "1011000000000000000000",
      "reserved": "0x7a9fe22691c811ea339d9b73150e6911a5343dca",
      "salt": "0xc8b32ff37c80ab6d95092d098016fa41ca4ec3a0221038c536e71b213f4699ff",
      "assetIds": []
    },
    {
      "x": 176,
      "y": 19,
      "size": 1,
      "price": "1011000000000000000000",
      "reserved": "0x7a9fe22691c811ea339d9b73150e6911a5343dca",
      "salt": "0x1d450e8207f24a1994a45a7ea714819e808ad7a1adf3fe88ee3ed940a9417620",
      "assetIds": []
    },
    {
      "x": 168,
      "y": 35,
      "size": 1,
      "price": "1011000000000000000000",
      "reserved": "",
      "salt": "0x1df7802f208f9447c4eb716f8af8113a4423e6b1b7b06b92a6405b04376350ea",
      "assetIds": []
    },
    {
      "x": 169,
      "y": 35,
      "size": 1,
      "price": "1011000000000000000000",
      "reserved": "",
      "salt": "0x02a3a670b29e48c33de3d53014995e989ad862364d2054650f738e3d125973be",
      "assetIds": []
    },
    {
      "x": 170,
      "y": 35,
      "size": 1,
      "price": "1011000000000000000000",
      "reserved": "",
      "salt": "0x093023fd6992d56203d212a10ed90b69775c729f250ae860602beb0033f45586",
      "assetIds": []
    },
    {
      "x": 171,
      "y": 35,
      "size": 1,
      "price": "1011000000000000000000",
      "reserved": "",
      "salt": "0x3768caceabd8f7312f1f6a23836af7aa6bd2d41f93021370e08f53ee0cd0124b",
      "assetIds": []
    },
    {
      "x": 172,
      "y": 35,
      "size": 1,
      "price": "1011000000000000000000",
      "reserved": "",
      "salt": "0xdd4aba40f7925c5d56c12b4089e9af5c53c8af94b3c1d0df57e3456e5e65470d",
      "assetIds": []
    },
    {
      "x": 173,
      "y": 35,
      "size": 1,
      "price": "1011000000000000000000",
      "reserved": "",
      "salt": "0x85a8b1d5e38f76ee787b81dd0371b33a9952dd439984dfee653c75c5d22feca1",
      "assetIds": []
    },
    {
      "x": 174,
      "y": 35,
      "size": 1,
      "price": "1011000000000000000000",
      "reserved": "",
      "salt": "0xaed712562da13f360e4c618d44986fda1d80908a62ac32ab7b842d630fd78110",
      "assetIds": []
    },
    {
      "x": 175,
      "y": 35,
      "size": 1,
      "price": "1011000000000000000000",
      "reserved": "",
      "salt": "0xa1c8d14c0edf83a75bf5dc56aa6c4f75f5da687cd1c5471c9d40b7f9b8242da3",
      "assetIds": []
    },
    {
      "x": 176,
      "y": 35,
      "size": 1,
      "price": "1011000000000000000000",
      "reserved": "",
      "salt": "0xed1d1432ed3ab1eb2cc139c217d9178106a9dc23413ea29941cfdacc0c8f67e5",
      "assetIds": []
    },
    {
      "x": 179,
      "y": 35,
      "size": 1,
      "price": "1011000000000000000000",
      "reserved": "",
      "salt": "0x782de60ef28c900281877a32a929078e691e5952893165782b670ea0318ca726",
      "assetIds": []
    },
    {
      "x": 179,
      "y": 34,
      "size": 1,
      "price": "1011000000000000000000",
      "reserved": "",
      "salt": "0x9a29b94ce035240f3069fd721de30aa30d5d49ecd8d4fa8320465dc760e6dea2",
      "assetIds": []
    },
    {
      "x": 179,
      "y": 33,
      "size": 1,
      "price": "1011000000000000000000",
      "reserved": "",
      "salt": "0x66e8e56faad258e4f7ab9eef20b21c716ee6b4d7a135a6e265225c781caf95bd",
      "assetIds": []
    },
    {
      "x": 179,
      "y": 32,
      "size": 1,
      "price": "1011000000000000000000",
      "reserved": "",
      "salt": "0xd713e6215e418dbd114f02ddf7f0c36d93cc1598b8435de1a0ab58bf48300a6c",
      "assetIds": []
    },
    {
      "x": 179,
      "y": 31,
      "size": 1,
      "price": "1011000000000000000000",
      "reserved": "",
      "salt": "0x94e809a3214741b064ea28061ddd0d373722554130736d29dc390ff57862e51c",
      "assetIds": []
    },
    {
      "x": 179,
      "y": 30,
      "size": 1,
      "price": "1011000000000000000000",
      "reserved": "",
      "salt": "0x94c610c48661b58cb8302aca038fd3eff35fab8dae58077e71a12d8a2f4fdfd4",
      "assetIds": []
    },
    {
      "x": 179,
      "y": 23,
      "size": 1,
      "price": "1011000000000000000000",
      "reserved": "",
      "salt": "0xaf1c1f33fe8967e4f361d750bc6d8fc412bf98d3e3570463020f074f09e92f8a",
      "assetIds": []
    },
    {
      "x": 179,
      "y": 22,
      "size": 1,
      "price": "1011000000000000000000",
      "reserved": "",
      "salt": "0xa86f6e890041c7f874969e15a8b5ef1caf3df8edb017aa94e1665b80680d5402",
      "assetIds": []
    },
    {
      "x": 179,
      "y": 21,
      "size": 1,
      "price": "1011000000000000000000",
      "reserved": "",
      "salt": "0x6be146e832feaf339a739013afe46bd9b6a54661923ea813f190943c1934bd58",
      "assetIds": []
    },
    {
      "x": 179,
      "y": 20,
      "size": 1,
      "price": "1011000000000000000000",
      "reserved": "",
      "salt": "0xb6497c69a60e385d862695de35d47d7ec811e495524bbc3de54d39a65064ccca",
      "assetIds": []
    },
    {
      "x": 179,
      "y": 18,
      "size": 1,
      "price": "1011000000000000000000",
      "reserved": "",
      "salt": "0x0b2c85fef93a871498a15272c673d3e49aee576e561e87a94a5fb58d9230f833",
      "assetIds": []
    },
    {
      "x": 179,
      "y": 19,
      "size": 1,
      "price": "1011000000000000000000",
      "reserved": "",
      "salt": "0x6be6ab94a02adb70943f90a40d3717e66ec203d6c27ce2421a18fe60cb433c67",
      "assetIds": []
    },
    {
      "x": 174,
      "y": 18,
      "size": 1,
      "price": "1011000000000000000000",
      "reserved": "",
      "salt": "0x1aee9ae4f077ce07bf9b5d45765a9fe42d6bf5422898c6d61fcb1041a02c4870",
      "assetIds": []
    },
    {
      "x": 175,
      "y": 18,
      "size": 1,
      "price": "1011000000000000000000",
      "reserved": "",
      "salt": "0x082f772c502a17fff3e04f8ccf008c3a89135b6a2dd18d6e840f45fa65640008",
      "assetIds": []
    },
    {
      "x": 176,
      "y": 18,
      "size": 1,
      "price": "1011000000000000000000",
      "reserved": "",
      "salt": "0x6c7b285a304e7b3e2fd56561c9b1bd2428c61e98e9924637d714d228ccaeaec5",
      "assetIds": []
    },
    {
      "x": 177,
      "y": 18,
      "size": 1,
      "price": "1011000000000000000000",
      "reserved": "",
      "salt": "0xb1a8d16e8eca96798247b8c6a76e34ac9b58e7f9b1f72f40a551d248db0057d4",
      "assetIds": []
    },
    {
      "x": 178,
      "y": 18,
      "size": 1,
      "price": "1011000000000000000000",
      "reserved": "",
      "salt": "0x4ad138ab7393dc2c45b2571defc588e5bae161605bc68165ffcf51e4689271cf",
      "assetIds": []
    },
    {
      "x": 178,
      "y": 23,
      "size": 1,
      "price": "1011000000000000000000",
      "reserved": "",
      "salt": "0xec5ca7c68c4b0f1740acbb25af193097a7de914d6860dc4dab53a5b6965a6633",
      "assetIds": []
    },
    {
      "x": 177,
      "y": 23,
      "size": 1,
      "price": "1011000000000000000000",
      "reserved": "",
      "salt": "0xb682f38f11b447febbf69326ae41a02f295871cdbb88ebc6fccea65d551f7a6b",
      "assetIds": []
    },
    {
      "x": 176,
      "y": 23,
      "size": 1,
      "price": "1011000000000000000000",
      "reserved": "",
      "salt": "0xefcff7e688db5bd334faef296701eaff6aee2c4e653a95f687b77e7ca37b42bb",
      "assetIds": []
    },
    {
      "x": 175,
      "y": 23,
      "size": 1,
      "price": "1011000000000000000000",
      "reserved": "",
      "salt": "0x8614ae4ee84ccd73ed137baebb3781fefb2e7b7d619d32827e0d0a2770f40d17",
      "assetIds": []
    },
    {
      "x": 174,
      "y": 23,
      "size": 1,
      "price": "1011000000000000000000",
      "reserved": "",
      "salt": "0x2b444160f0cf40267194609b280bd2500f45146cbc7940a05f7c42a1fa11e6bd",
      "assetIds": []
    },
    {
      "x": 174,
      "y": 22,
      "size": 1,
      "price": "1011000000000000000000",
      "reserved": "",
      "salt": "0x00dbbcca5b0bca7ff179e5094c7debb8e39aa6bc1e788e8552ac158de528c047",
      "assetIds": []
    },
    {
      "x": 174,
      "y": 21,
      "size": 1,
      "price": "1011000000000000000000",
      "reserved": "",
      "salt": "0x90aa21ae360829bfeac81f6a386aaf223cdd43f6ff275e08c517b529f315ae72",
      "assetIds": []
    },
    {
      "x": 174,
      "y": 20,
      "size": 1,
      "price": "1011000000000000000000",
      "reserved": "",
      "salt": "0x0fe28e7acea5884906bb5d3342a40f879dc75b069667444926adb9752f269701",
      "assetIds": []
    },
    {
      "x": 174,
      "y": 19,
      "size": 1,
      "price": "1011000000000000000000",
      "reserved": "",
      "salt": "0x08caf79acd975095bb60ce8fdfd088fd7423149a1433536f7a836136c3218722",
      "assetIds": []
    },
    {
      "x": 175,
      "y": 21,
      "size": 1,
      "price": "1011000000000000000000",
      "reserved": "",
      "salt": "0x69245c63999b048755cd43baefafd1ea86d4ca45851d86be6a7fb71dacd853cc",
      "assetIds": []
    },
    {
      "x": 176,
      "y": 21,
      "size": 1,
      "price": "1011000000000000000000",
      "reserved": "",
      "salt": "0xb77deb42feee2698cfe697e700b0050e8f9cdc9a6693819f48ff49f735036c7b",
      "assetIds": []
    },
    {
      "x": 176,
      "y": 22,
      "size": 1,
      "price": "1011000000000000000000",
      "reserved": "",
      "salt": "0xb5ba799cc20ac979264a86d42fb5769564ef55b2d01ff0a67b7872ea4c17dbc2",
      "assetIds": []
    },
    {
      "x": 178,
      "y": 22,
      "size": 1,
      "price": "1011000000000000000000",
      "reserved": "",
      "salt": "0x7a7a15a302684dced06e735ca9b195e84eb43406590a16d8c1ed92af67146d23",
      "assetIds": []
    },
    {
      "x": 178,
      "y": 21,
      "size": 1,
      "price": "1011000000000000000000",
      "reserved": "",
      "salt": "0x85f586f29f6480b0f18f554373088408f19e23bbb3ccdc50cf6c0d92882e1f32",
      "assetIds": []
    },
    {
      "x": 178,
      "y": 20,
      "size": 1,
      "price": "1011000000000000000000",
      "reserved": "",
      "salt": "0xe0c106697ba1a3beb3db9552d70f7159a0723151dcd55fe5aa7ea51f065b81e3",
      "assetIds": []
    },
    {
      "x": 178,
      "y": 19,
      "size": 1,
      "price": "1011000000000000000000",
      "reserved": "",
      "salt": "0x2540c58edaf09ace60c15844062eb2cb595fd2d9d65ba80f10b47f12756a68e9",
      "assetIds": []
    },
    {
      "x": 177,
      "y": 19,
      "size": 1,
      "price": "1011000000000000000000",
      "reserved": "",
      "salt": "0x8deeb7e3cf38e52a98a204566c0ec58d316d52bec9ba7ead7e0add8117d07cb6",
      "assetIds": []
    },
    {
      "x": 177,
      "y": 20,
      "size": 1,
      "price": "1011000000000000000000",
      "reserved": "",
      "salt": "0x2caa947a6e7767ff22ae4d9b55291050619589911be1f8d73316a879933eb2e9",
      "assetIds": []
    },
    {
      "x": 177,
      "y": 21,
      "size": 1,
      "price": "1011000000000000000000",
      "reserved": "",
      "salt": "0x6e59ca18cfce876ed7c486bf3d5cdcf95c9545c540a643d4212dd93d7a98189b",
      "assetIds": []
    },
    {
      "x": 176,
      "y": 20,
      "size": 1,
      "price": "1011000000000000000000",
      "reserved": "",
      "salt": "0xb4e28f64c44dff0fdc7d62904960c90f6adb7178c2df6026de076d678fd46edc",
      "assetIds": []
    },
    {
      "x": 175,
      "y": 20,
      "size": 1,
      "price": "1011000000000000000000",
      "reserved": "",
      "salt": "0xc7e061f9af4f88c079992202139788493c516c1d8e7ed347b6e5840248ded4e6",
      "assetIds": []
    },
    {
      "x": 175,
      "y": 19,
      "size": 1,
      "price": "1011000000000000000000",
      "reserved": "",
      "salt": "0x40c76d5d4a2f601d2509c9900e6bb265be43e90951a07134d5a25729e042de43",
      "assetIds": []
    },
    {
      "x": 177,
      "y": 32,
      "size": 1,
      "price": "1011000000000000000000",
      "reserved": "",
      "salt": "0x7386f83333938100dbb14d87e5778ac0f05fa95078620562baaa7a639e9348ae",
      "assetIds": []
    },
    {
      "x": 178,
      "y": 32,
      "size": 1,
      "price": "1011000000000000000000",
      "reserved": "",
      "salt": "0x4f981e2db34ab9ab9f2ffc068d528066e1b61cc02dc47b95273c61d8f2198b69",
      "assetIds": []
    },
    {
      "x": 178,
      "y": 31,
      "size": 1,
      "price": "1011000000000000000000",
      "reserved": "",
      "salt": "0x37fbdbccb8f3cc06ae8d227108752cad0e8f2f293733ee57de8bc30e32a88e23",
      "assetIds": []
    },
    {
      "x": 177,
      "y": 31,
      "size": 1,
      "price": "1011000000000000000000",
      "reserved": "",
      "salt": "0x8614dba9383437823c8ed43af28b878cc21d2d6fe0f6cd1ce0d26997c1d312be",
      "assetIds": []
    },
    {
      "x": 177,
      "y": 30,
      "size": 1,
      "price": "1011000000000000000000",
      "reserved": "",
      "salt": "0xefc1aec950481f779c91272487293d90730868d261bf6ef0362084c13f21b240",
      "assetIds": []
    },
    {
      "x": 178,
      "y": 30,
      "size": 1,
      "price": "1011000000000000000000",
      "reserved": "",
      "salt": "0x5cc1b42ff6173738acf267612fc8d55d7ea3fb5d1a2f330ec554602a77e483c3",
      "assetIds": []
    },
    {
      "x": 176,
      "y": 34,
      "size": 1,
      "price": "1011000000000000000000",
      "reserved": "",
      "salt": "0x281208f0f483869bc53e483822c50d97334ab50400a1ab0b76bf0934524e7955",
      "assetIds": []
    },
    {
      "x": 175,
      "y": 34,
      "size": 1,
      "price": "1011000000000000000000",
      "reserved": "",
      "salt": "0xc7b8c99616120b54e2e3d4add3434cfc178031475eb07e7438d389a052519e1d",
      "assetIds": []
    },
    {
      "x": 174,
      "y": 34,
      "size": 1,
      "price": "1011000000000000000000",
      "reserved": "",
      "salt": "0x96686b70bd23f994a1a5b47e20ddbb494beb74e4314536aea32835e3552dea6c",
      "assetIds": []
    },
    {
      "x": 173,
      "y": 34,
      "size": 1,
      "price": "1011000000000000000000",
      "reserved": "",
      "salt": "0x7287a62545181e3bd42413fd85801ee9dfde4b6ab1b8a6c97c765f5e0cdacf89",
      "assetIds": []
    },
    {
      "x": 172,
      "y": 34,
      "size": 1,
      "price": "1011000000000000000000",
      "reserved": "",
      "salt": "0xec6d06115f3c90891fc19013b278fb08aa7eb9b5492d24f9b575f1cd4b86d70b",
      "assetIds": []
    },
    {
      "x": 171,
      "y": 34,
      "size": 1,
      "price": "1011000000000000000000",
      "reserved": "",
      "salt": "0x79e8dd749c05cade1067a85dd0937457eb5a30ce928596b5e1cf21d3551b712b",
      "assetIds": []
    },
    {
      "x": 170,
      "y": 34,
      "size": 1,
      "price": "1011000000000000000000",
      "reserved": "",
      "salt": "0xef8de0ec1266038b5b6b7b68a0cbe0e2e555d8b407570025077922cbb584d415",
      "assetIds": []
    },
    {
      "x": 169,
      "y": 34,
      "size": 1,
      "price": "1011000000000000000000",
      "reserved": "",
      "salt": "0x9afd70f86b65d2f25bf792934396582dce9a2290d8fdb11d2a3d1a2a5c8b42c1",
      "assetIds": []
    },
    {
      "x": 168,
      "y": 34,
      "size": 1,
      "price": "1011000000000000000000",
      "reserved": "",
      "salt": "0x9749cd305669c2305cb9e4638993135f98dbba54954163c586e48d77badb57df",
      "assetIds": []
    },
    {
      "x": 175,
      "y": 33,
      "size": 1,
      "price": "1011000000000000000000",
      "reserved": "",
      "salt": "0xe007ccb457f7b24619e8625669f218ba039b8b1e34760ae190151880a40f7525",
      "assetIds": []
    },
    {
      "x": 174,
      "y": 33,
      "size": 1,
      "price": "1011000000000000000000",
      "reserved": "",
      "salt": "0x7b132f1dbc4fd299f8a9df93e78e2c26f5838468d1a4c78c1bc9f5f42dd71c85",
      "assetIds": []
    },
    {
      "x": 173,
      "y": 33,
      "size": 1,
      "price": "1011000000000000000000",
      "reserved": "",
      "salt": "0x7c942687ef3b52263e3dfb173f0a3da3da66b321b2eba31b08a159225aee8783",
      "assetIds": []
    },
    {
      "x": 172,
      "y": 33,
      "size": 1,
      "price": "1011000000000000000000",
      "reserved": "",
      "salt": "0x713fae27dd5cf2e6b4d20310730533866e0b5556340dd7809e9ed899e9eb1e02",
      "assetIds": []
    },
    {
      "x": 171,
      "y": 33,
      "size": 1,
      "price": "1011000000000000000000",
      "reserved": "",
      "salt": "0x130a872cadf6ca382539f648d0b6e5fabfb60554b27f1f463c19262f95123492",
      "assetIds": []
    },
    {
      "x": 169,
      "y": 33,
      "size": 1,
      "price": "1011000000000000000000",
      "reserved": "",
      "salt": "0x42ed2169f68a83420cf62c0f8b1fac3a0128be4770ddaa84413c97f16d06ed6b",
      "assetIds": []
    },
    {
      "x": 168,
      "y": 33,
      "size": 1,
      "price": "1011000000000000000000",
      "reserved": "",
      "salt": "0x3d7c4b92c6992c40bddb713e794fbf209bd467c8a4044295be81472e9d0ad615",
      "assetIds": []
    },
    {
      "x": 168,
      "y": 32,
      "size": 1,
      "price": "1011000000000000000000",
      "reserved": "",
      "salt": "0x50252737732872d13b5abe7ef82a9032b83950ee99990e271355bfc01a322610",
      "assetIds": []
    },
    {
      "x": 168,
      "y": 31,
      "size": 1,
      "price": "1011000000000000000000",
      "reserved": "",
      "salt": "0xaf6ed6c78e6c48c06d72e868858484df28542a0d73d5dd02aa55f99ec15236ff",
      "assetIds": []
    },
    {
      "x": 169,
      "y": 31,
      "size": 1,
      "price": "1011000000000000000000",
      "reserved": "",
      "salt": "0x5ecce82dc82ef90f25b67e4861dfaa16861293a6fdb22d5a6f344b17b71631eb",
      "assetIds": []
    },
    {
      "x": 169,
      "y": 30,
      "size": 1,
      "price": "1011000000000000000000",
      "reserved": "",
      "salt": "0x7da47d2e97e348664a87e2e0005cc66982951025bfbcfffa2488c4352ed7527a",
      "assetIds": []
    },
    {
      "x": 168,
      "y": 30,
      "size": 1,
      "price": "1011000000000000000000",
      "reserved": "",
      "salt": "0xf8f000125f2d59ce3f96880186405a7a4c9505d3fea89cebe210ee5a201495eb",
      "assetIds": []
    },
    {
      "x": 169,
      "y": 32,
      "size": 1,
      "price": "1011000000000000000000",
      "reserved": "",
      "salt": "0x2362f193f58106819426e936d8a0d3925c757d52668b0afc2b01c48ecfa7dca6",
      "assetIds": []
    },
    {
      "x": 170,
      "y": 32,
      "size": 1,
      "price": "1011000000000000000000",
      "reserved": "",
      "salt": "0xe97317d5a278b8e8e2dbef61d8742ea7180d7da14df0d760aa222f9d4d8eb297",
      "assetIds": []
    },
    {
      "x": 171,
      "y": 32,
      "size": 1,
      "price": "1011000000000000000000",
      "reserved": "",
      "salt": "0x87e0cdd18682188c51af22c3d0d275f3f18296ae45fb3ec0231e28283ce64fe3",
      "assetIds": []
    },
    {
      "x": 172,
      "y": 32,
      "size": 1,
      "price": "1011000000000000000000",
      "reserved": "",
      "salt": "0xc530ec6965f5c6413a5bb151af583afd13bf4047db2ceee90f6c87f6ec3e4883",
      "assetIds": []
    },
    {
      "x": 173,
      "y": 32,
      "size": 1,
      "price": "1011000000000000000000",
      "reserved": "",
      "salt": "0x49686216fa687c6c7876cb04f1446c8dec1e290783a85cf33d1400aed1efc518",
      "assetIds": []
    },
    {
      "x": 173,
      "y": 31,
      "size": 1,
      "price": "1011000000000000000000",
      "reserved": "",
      "salt": "0x19bdf15c9a6d79412c485cfba77f216cd83391414bc1c0781101c609e05fde92",
      "assetIds": []
    },
    {
      "x": 173,
      "y": 30,
      "size": 1,
      "price": "1011000000000000000000",
      "reserved": "",
      "salt": "0xa14a9fa450a4b9ea205834ab802943ee0d6103f9ff6cd6e8d74cadbc733a214d",
      "assetIds": []
    },
    {
      "x": 172,
      "y": 30,
      "size": 1,
      "price": "1011000000000000000000",
      "reserved": "",
      "salt": "0xe8ed6198f3da11fa4ee4b8a018d5b46d247ef4dee5a639a74a41775b0f838e37",
      "assetIds": []
    },
    {
      "x": 171,
      "y": 30,
      "size": 1,
      "price": "1011000000000000000000",
      "reserved": "",
      "salt": "0xc47f7ba07196679f437f65f2ace915071cf1231f587514702831fc94591a9e94",
      "assetIds": []
    },
    {
      "x": 171,
      "y": 31,
      "size": 1,
      "price": "1011000000000000000000",
      "reserved": "",
      "salt": "0x182933ebe5a6f6cbcca5cc2294c4b49156c551aa31973ea0aa8edfe752896a1f",
      "assetIds": []
    },
    {
      "x": 170,
      "y": 31,
      "size": 1,
      "price": "1011000000000000000000",
      "reserved": "",
      "salt": "0x1e50df06cabf3c8474b9cd8b1573b08a2fd0b34dc0b6e8c7ec7af0d313d1c802",
      "assetIds": []
    },
    {
      "x": 170,
      "y": 30,
      "size": 1,
      "price": "1011000000000000000000",
      "reserved": "",
      "salt": "0x80fe1d9a85140add2b4178c7d2d3e980c1df2fec06d5495d755ac3222f638652",
      "assetIds": []
    },
    {
      "x": 162,
      "y": 32,
      "size": 1,
      "price": "1011000000000000000000",
      "reserved": "",
      "salt": "0xdc1215385c216394be350d430b22670ea279ab4e6661a76f8ad2f71f94a3927b",
      "assetIds": []
    },
    {
      "x": 164,
      "y": 32,
      "size": 1,
      "price": "1011000000000000000000",
      "reserved": "",
      "salt": "0x0cdbb8392f08710b8e0742d1d514f769f91b725772bca49090223b87be7eb43b",
      "assetIds": []
    },
    {
      "x": 164,
      "y": 31,
      "size": 1,
      "price": "1011000000000000000000",
      "reserved": "",
      "salt": "0x0f08335a53b71a2d50356906a8adc44635b248d6b389b5acb09903a57367bd46",
      "assetIds": []
    },
    {
      "x": 164,
      "y": 30,
      "size": 1,
      "price": "1011000000000000000000",
      "reserved": "",
      "salt": "0x86f9446dda6991900e491289758bceaaec8f64c08dba9fcfbff5c5d574994e62",
      "assetIds": []
    },
    {
      "x": 163,
      "y": 30,
      "size": 1,
      "price": "1011000000000000000000",
      "reserved": "",
      "salt": "0xbf31436d42f170b9c8acb99cef33a6f62becd6b632c62ba7a45a52a9e52f1a6e",
      "assetIds": []
    },
    {
      "x": 162,
      "y": 30,
      "size": 1,
      "price": "1011000000000000000000",
      "reserved": "",
      "salt": "0xd5159d8fde8190e997c05cc662ad9aeee196c6290c1ebe4a33c8ecd5f02412f3",
      "assetIds": []
    },
    {
      "x": 162,
      "y": 31,
      "size": 1,
      "price": "1011000000000000000000",
      "reserved": "",
      "salt": "0x83dc6f05ff0c75eb2e44a8433503796829b549d3c5a75233339b3cc7a7700441",
      "assetIds": []
    },
    {
      "x": 163,
      "y": 31,
      "size": 1,
      "price": "1011000000000000000000",
      "reserved": "",
      "salt": "0x5f85e9ee2495eb94d2ff8b93fd8253968e546224b1e33db51fdbd72ddd9b95a7",
      "assetIds": []
    },
    {
      "x": 161,
      "y": 29,
      "size": 1,
      "price": "1011000000000000000000",
      "reserved": "",
      "salt": "0x7ba5a82eb71789254e1131eb408c2082ed571e841b2105ffe031ffa7afbbbdc8",
      "assetIds": []
    },
    {
      "x": 161,
      "y": 28,
      "size": 1,
      "price": "1011000000000000000000",
      "reserved": "",
      "salt": "0xed27f936e3062fdf1802d476c695b0e78145b2c69c74c997fdcd7ae2e047e955",
      "assetIds": []
    },
    {
      "x": 161,
      "y": 27,
      "size": 1,
      "price": "1011000000000000000000",
      "reserved": "",
      "salt": "0x5f556c147fda5fb51b432501d2168e9aaf9174285a6bf88ffd22f485a74577bb",
      "assetIds": []
    },
    {
      "x": 161,
      "y": 26,
      "size": 1,
      "price": "1011000000000000000000",
      "reserved": "",
      "salt": "0x37113989ce0901164942a95da7720e1d33c867097d04ef0a51c7e1b5ff5da227",
      "assetIds": []
    },
    {
      "x": 161,
      "y": 25,
      "size": 1,
      "price": "1011000000000000000000",
      "reserved": "",
      "salt": "0xa12ae5feb2f81714a464ec40c2284609ecf7e0bf4be4736bc3dcde0f964f8cf9",
      "assetIds": []
    },
    {
      "x": 161,
      "y": 24,
      "size": 1,
      "price": "1011000000000000000000",
      "reserved": "",
      "salt": "0x33442c88e29e5a6c66f5c0ebe457c2aefc2c4f597bf49db812d313f10bb187a2",
      "assetIds": []
    },
    {
      "x": 161,
      "y": 23,
      "size": 1,
      "price": "1011000000000000000000",
      "reserved": "",
      "salt": "0xb9b27c8fb93b2a1f01aead28037536e9db8cb92ef89f883f78364e2cafd4ff7e",
      "assetIds": []
    },
    {
      "x": 162,
      "y": 23,
      "size": 1,
      "price": "1011000000000000000000",
      "reserved": "",
      "salt": "0x31708388200cc826f602a729f4957cab57585ce456ad720b36e16cc083d9f832",
      "assetIds": []
    },
    {
      "x": 163,
      "y": 23,
      "size": 1,
      "price": "1011000000000000000000",
      "reserved": "",
      "salt": "0xa248ca6166d35fda03fd673151f5e94e40ed01f3abb0e081e0966339cf08d07f",
      "assetIds": []
    },
    {
      "x": 164,
      "y": 23,
      "size": 1,
      "price": "1011000000000000000000",
      "reserved": "",
      "salt": "0x70fa3438bf8db5f4ac78805cee81cf9c984a5b44c108825e97a2ac3f332bff9e",
      "assetIds": []
    },
    {
      "x": 165,
      "y": 23,
      "size": 1,
      "price": "1011000000000000000000",
      "reserved": "",
      "salt": "0xf17d447248d8d54c10b26a955a5cc4415446ae6f42e6d4d3ac60d3e43061592a",
      "assetIds": []
    },
    {
      "x": 166,
      "y": 23,
      "size": 1,
      "price": "1011000000000000000000",
      "reserved": "",
      "salt": "0x70d2c8b279a2aaf18959c2186f805462917afef47b94da2ef1aba5ab9597933f",
      "assetIds": []
    },
    {
      "x": 167,
      "y": 23,
      "size": 1,
      "price": "1011000000000000000000",
      "reserved": "",
      "salt": "0xf5b03d5940fc6d79ed6784c28d7e511b0bffb0d52ad768c4ae18b2887559ac60",
      "assetIds": []
    },
    {
      "x": 162,
      "y": 22,
      "size": 1,
      "price": "1011000000000000000000",
      "reserved": "",
      "salt": "0xdcb1d95e9779054c9c1ba7a418201c73e867c4f54bc855583c8f46f6563859f6",
      "assetIds": []
    },
    {
      "x": 161,
      "y": 22,
      "size": 1,
      "price": "1011000000000000000000",
      "reserved": "",
      "salt": "0xc9cb008698ce9910e1f939791995059a275b67848dd7658a38cd04efc14dc71c",
      "assetIds": []
    },
    {
      "x": 163,
      "y": 22,
      "size": 1,
      "price": "1011000000000000000000",
      "reserved": "",
      "salt": "0xd66671bdac88ef2c57b8fd0c1b46cb1c9d2d17650d24c75f34f31be638adcace",
      "assetIds": []
    },
    {
      "x": 164,
      "y": 22,
      "size": 1,
      "price": "1011000000000000000000",
      "reserved": "",
      "salt": "0x600ff501000cbfdcaa7a9fec278a653bca39ce3bf44f523cf09837ed4c7bf0d7",
      "assetIds": []
    },
    {
      "x": 165,
      "y": 22,
      "size": 1,
      "price": "1011000000000000000000",
      "reserved": "",
      "salt": "0x36a8e9b5af5e4c59ee3eebcde2929c874be73bc9391fc71c853ad6243907e110",
      "assetIds": []
    },
    {
      "x": 166,
      "y": 22,
      "size": 1,
      "price": "1011000000000000000000",
      "reserved": "",
      "salt": "0x270b22315920ba7090dc881d024ac2623d465b8c775fbb7d2bec18371bc84b59",
      "assetIds": []
    },
    {
      "x": 167,
      "y": 22,
      "size": 1,
      "price": "1011000000000000000000",
      "reserved": "",
      "salt": "0x900ffdf6ebb58ccc2bdb0f0717894494f4c85e1adeb7c060eb69e4fffc9a5976",
      "assetIds": []
    },
    {
      "x": 166,
      "y": 21,
      "size": 1,
      "price": "1011000000000000000000",
      "reserved": "",
      "salt": "0x4e896f91daeda0b7fdcd37206c49d9d876f4fbc45f0f7de7c9410fb0bead524a",
      "assetIds": []
    },
    {
      "x": 165,
      "y": 21,
      "size": 1,
      "price": "1011000000000000000000",
      "reserved": "",
      "salt": "0x49cde7d0e3c27ad0c8a5874a1963b5b29c315c59865af37b738b6c761d12721b",
      "assetIds": []
    },
    {
      "x": 164,
      "y": 21,
      "size": 1,
      "price": "1011000000000000000000",
      "reserved": "",
      "salt": "0xfe32498718046aaee5fd7cbee9bc3c67238b859097665fe30331bb42e4944408",
      "assetIds": []
    },
    {
      "x": 163,
      "y": 21,
      "size": 1,
      "price": "1011000000000000000000",
      "reserved": "",
      "salt": "0xb4734b81e45d0c59e7f5f73467a8d08f33f58a851cd87fa691d5c5faafd4922f",
      "assetIds": []
    },
    {
      "x": 161,
      "y": 21,
      "size": 1,
      "price": "1011000000000000000000",
      "reserved": "",
      "salt": "0x31fb500d86c1e2fa41852d6f2edfcfd45d94f9e8b32bbe0e1d3505f03bd610ce",
      "assetIds": []
    },
    {
      "x": 161,
      "y": 20,
      "size": 1,
      "price": "1011000000000000000000",
      "reserved": "",
      "salt": "0x7e57e70b130acff9330fd2f7bc3b97af873c4722bab201a76460f98ea66e0844",
      "assetIds": []
    },
    {
      "x": 162,
      "y": 20,
      "size": 1,
      "price": "1011000000000000000000",
      "reserved": "",
      "salt": "0x2df82b08b2f154f3bbea5426c5306e79c35016f3a2e0f5b98b10e3f2b42db35d",
      "assetIds": []
    },
    {
      "x": 163,
      "y": 20,
      "size": 1,
      "price": "1011000000000000000000",
      "reserved": "",
      "salt": "0xf07959b170de6b84779bb41ec135ee5ed83dfe16573c1944e9a24ace26b74e12",
      "assetIds": []
    },
    {
      "x": 164,
      "y": 20,
      "size": 1,
      "price": "1011000000000000000000",
      "reserved": "",
      "salt": "0xb7a132fd2938b7fe7d3d80d7759538320fc150b86692b50315bab5b5b43be970",
      "assetIds": []
    },
    {
      "x": 161,
      "y": 19,
      "size": 1,
      "price": "1011000000000000000000",
      "reserved": "",
      "salt": "0xc56cd24d897dc297c69dbe77868802f75eefb0f2e4d93598d38f3181d963441a",
      "assetIds": []
    },
    {
      "x": 162,
      "y": 19,
      "size": 1,
      "price": "1011000000000000000000",
      "reserved": "",
      "salt": "0x87d1591b034336bb6cf848567d3dcb569e3ce5419c702a4100970b0aa31aa6ec",
      "assetIds": []
    },
    {
      "x": 163,
      "y": 19,
      "size": 1,
      "price": "1011000000000000000000",
      "reserved": "",
      "salt": "0xf77ddcc273ba47a5134a7410c64e4e4dcb19b732b2097ce61b5c1ff804ebd777",
      "assetIds": []
    },
    {
      "x": 164,
      "y": 19,
      "size": 1,
      "price": "1011000000000000000000",
      "reserved": "",
      "salt": "0xd2c1e7beeb286e9f1e5f5db00ff6ca050949a00f404293efba7f5fc093d7fda8",
      "assetIds": []
    },
    {
      "x": 164,
      "y": 18,
      "size": 1,
      "price": "1011000000000000000000",
      "reserved": "",
      "salt": "0xa5dcd9bb172aba422cbd9e7cafb95821152ff6da49888daba39805eb763f55b6",
      "assetIds": []
    },
    {
      "x": 163,
      "y": 18,
      "size": 1,
      "price": "1011000000000000000000",
      "reserved": "",
      "salt": "0x5fb0a7b5afe1490313d5775b8728dac8043a3c7eed5e8ab2436f4c7fde5b0d9d",
      "assetIds": []
    },
    {
      "x": 162,
      "y": 18,
      "size": 1,
      "price": "1011000000000000000000",
      "reserved": "",
      "salt": "0x5ad61b949169e6305e42e28de2598cc8c61dd110abe096abf26db5bde897880d",
      "assetIds": []
    },
    {
      "x": 161,
      "y": 18,
      "size": 1,
      "price": "1011000000000000000000",
      "reserved": "",
      "salt": "0xedf1debd02fa2c25a6541ce329b0c434d9eeb8cc4b155bd63bcbce36e1c76e8f",
      "assetIds": []
    },
    {
      "x": 161,
      "y": 17,
      "size": 1,
      "price": "1011000000000000000000",
      "reserved": "",
      "salt": "0x497f9a69c8d953885d08ace25c90f734684bb8eb814e262eb63b14a67509c927",
      "assetIds": []
    },
    {
      "x": 163,
      "y": 17,
      "size": 1,
      "price": "1011000000000000000000",
      "reserved": "",
      "salt": "0x975de88ba9b23bd87e78bed54d4533d360283687843096a4cbe587106a085dad",
      "assetIds": []
    },
    {
      "x": 164,
      "y": 17,
      "size": 1,
      "price": "1011000000000000000000",
      "reserved": "",
      "salt": "0x3c5d37172bd29f4f468d6b93d5ba4fbc7e19555702b4fa0eb5a21fb74f8a5849",
      "assetIds": []
    },
    {
      "x": 165,
      "y": 17,
      "size": 1,
      "price": "1011000000000000000000",
      "reserved": "",
      "salt": "0x6dcb8081974d734c78091d0c5293eba5e233505bfed0c484b7fb3629ad7b8c1d",
      "assetIds": []
    },
    {
      "x": 166,
      "y": 17,
      "size": 1,
      "price": "1011000000000000000000",
      "reserved": "",
      "salt": "0xd35a81969b5f4cf530e3654cba1603327fe64f6512ab3dbd6bd5b2a0d96ac395",
      "assetIds": []
    },
    {
      "x": 167,
      "y": 17,
      "size": 1,
      "price": "1011000000000000000000",
      "reserved": "",
      "salt": "0xc43bfe80c9c5d43ffa2f7aa84f4ad81a7d0c92aae2d6b0cfb593077e1c600119",
      "assetIds": []
    },
    {
      "x": 168,
      "y": 17,
      "size": 1,
      "price": "1011000000000000000000",
      "reserved": "",
      "salt": "0x9fe93ed498d803687e6bb19267711a2a47e533772cac8b1e993a854934d79b4f",
      "assetIds": []
    },
    {
      "x": 168,
      "y": 16,
      "size": 1,
      "price": "1011000000000000000000",
      "reserved": "",
      "salt": "0xecfdf2c15773e17aba449badfd0c044ae24f619753b0dcac52d2084752d2ea81",
      "assetIds": []
    },
    {
      "x": 169,
      "y": 16,
      "size": 1,
      "price": "1011000000000000000000",
      "reserved": "",
      "salt": "0xca7981fc391ed342800288b55ca3c288a2e927c6bdbe31f7026dd861a154e1bc",
      "assetIds": []
    },
    {
      "x": 170,
      "y": 17,
      "size": 1,
      "price": "1011000000000000000000",
      "reserved": "",
      "salt": "0x4e1e19c002229c4cc4d94e9bddaf7ac2b7b6519e43dba0459e0a37f72a501d74",
      "assetIds": []
    },
    {
      "x": 169,
      "y": 17,
      "size": 1,
      "price": "1011000000000000000000",
      "reserved": "",
      "salt": "0xfb595f262f168caa3e4dac0bde3fcd6d3ace1880db9223756207a81be5129733",
      "assetIds": []
    },
    {
      "x": 170,
      "y": 15,
      "size": 1,
      "price": "1011000000000000000000",
      "reserved": "",
      "salt": "0x4f39fba860299932da1e6453cbe69fbd2580e79fcb5d2bb57fae1b7ad26868a3",
      "assetIds": []
    },
    {
      "x": 169,
      "y": 15,
      "size": 1,
      "price": "1011000000000000000000",
      "reserved": "",
      "salt": "0x4427273a2996c6ae770039640286eb6a1a5baa8fa99d36e0177631b8e787c45d",
      "assetIds": []
    },
    {
      "x": 168,
      "y": 15,
      "size": 1,
      "price": "1011000000000000000000",
      "reserved": "",
      "salt": "0xddce969aa5d482701717510583f17522dd233f2c1243e13418b9ee79d022b2fd",
      "assetIds": []
    },
    {
      "x": 167,
      "y": 15,
      "size": 1,
      "price": "1011000000000000000000",
      "reserved": "",
      "salt": "0x1c02d1f97dbdbf9c7ae799d0b24fb32e25e9d1d873df6b2cfc293eb0bf51b79e",
      "assetIds": []
    },
    {
      "x": 166,
      "y": 15,
      "size": 1,
      "price": "1011000000000000000000",
      "reserved": "",
      "salt": "0x89321d25b08186d1089084138d9777a9ce15beaac76d281361486bad7ff882dc",
      "assetIds": []
    },
    {
      "x": 165,
      "y": 15,
      "size": 1,
      "price": "1011000000000000000000",
      "reserved": "",
      "salt": "0xa14c2cd12e9655efe8fd17a2d0951f25c7ce775121b836a8b30083f2e43b2c25",
      "assetIds": []
    },
    {
      "x": 164,
      "y": 15,
      "size": 1,
      "price": "1011000000000000000000",
      "reserved": "",
      "salt": "0xecd2234c45a5bc7802e1a60e43dd674414503c37af973535c38c8cb99342aca4",
      "assetIds": []
    },
    {
      "x": 163,
      "y": 15,
      "size": 1,
      "price": "1011000000000000000000",
      "reserved": "",
      "salt": "0x5bd363fba863dbf0ef7a287920e9f3b5818e6428ba2432edbddfd31af83a9c2a",
      "assetIds": []
    },
    {
      "x": 162,
      "y": 15,
      "size": 1,
      "price": "1011000000000000000000",
      "reserved": "",
      "salt": "0x145ab166ce945b49b8151631575e9387e61fccd1e7b19a945bc0f15a7bf7f34a",
      "assetIds": []
    },
    {
      "x": 161,
      "y": 15,
      "size": 1,
      "price": "1011000000000000000000",
      "reserved": "",
      "salt": "0x95cdadecd512abd8dcbb29e1eb6c6f8fae19bc3ba1a46ae79df4e7e65a2cb905",
      "assetIds": []
    },
    {
      "x": 167,
      "y": 16,
      "size": 1,
      "price": "1011000000000000000000",
      "reserved": "",
      "salt": "0x620feee51dd8e82fa0ba14d1305ed95a4e4c015c5ff243b2ca2a42152948c276",
      "assetIds": []
    },
    {
      "x": 166,
      "y": 16,
      "size": 1,
      "price": "1011000000000000000000",
      "reserved": "",
      "salt": "0x7c66aeb506295cb5a96c01b5f16168e43059c82b304f7ec1a046efa61d2dd2df",
      "assetIds": []
    },
    {
      "x": 165,
      "y": 16,
      "size": 1,
      "price": "1011000000000000000000",
      "reserved": "",
      "salt": "0x664b1bc7063e8caf432d6393cce60cdc1613b006d05ca89eaef46af72ed1b981",
      "assetIds": []
    },
    {
      "x": 164,
      "y": 16,
      "size": 1,
      "price": "1011000000000000000000",
      "reserved": "",
      "salt": "0x31a871ce249c59d9798b6d3b615fee034cf14bcd79004b5529710784f704e0a9",
      "assetIds": []
    },
    {
      "x": 163,
      "y": 16,
      "size": 1,
      "price": "1011000000000000000000",
      "reserved": "",
      "salt": "0x91de0d62b9f15f0d62d387175d9f82936b14c84270beec9af83d7e87c35f8051",
      "assetIds": []
    },
    {
      "x": 162,
      "y": 16,
      "size": 1,
      "price": "1011000000000000000000",
      "reserved": "",
      "salt": "0x1081975eafa04c9fc3a93d9eb6daf642dfb0cc76e1c5bb762aef1b93a08e2444",
      "assetIds": []
    },
    {
      "x": 161,
      "y": 16,
      "size": 1,
      "price": "1011000000000000000000",
      "reserved": "",
      "salt": "0x553abdc1ae997330790c62c4dd03a4339a10f0d600c4fc230f41816b8d0228dd",
      "assetIds": []
    },
    {
      "x": 160,
      "y": 14,
      "size": 1,
      "price": "1011000000000000000000",
      "reserved": "",
      "salt": "0xc433a3070e267d884305a120173d286e2fd0eb3c7123ddd761cc09df944dbbda",
      "assetIds": []
    },
    {
      "x": 161,
      "y": 14,
      "size": 1,
      "price": "1011000000000000000000",
      "reserved": "",
      "salt": "0x363390b6118bb585234f2a35b2f91e3ef29ad6ba1f351e9387386745edd6030b",
      "assetIds": []
    },
    {
      "x": 161,
      "y": 13,
      "size": 1,
      "price": "1011000000000000000000",
      "reserved": "",
      "salt": "0xbf2aa11f410ed6f75879bc745dfadbb9e4be63bfc37871f192f529b0e566d701",
      "assetIds": []
    },
    {
      "x": 161,
      "y": 12,
      "size": 1,
      "price": "1011000000000000000000",
      "reserved": "",
      "salt": "0xe168982f062213f6de9ae073a15578758fc468130caa9dc4d22c671a27cdd965",
      "assetIds": []
    },
    {
      "x": 160,
      "y": 12,
      "size": 1,
      "price": "1011000000000000000000",
      "reserved": "",
      "salt": "0x886a02ca06c6681d202e868b4359859e0996ce783f632305d25474bf0f6cc034",
      "assetIds": []
    },
    {
      "x": 160,
      "y": 13,
      "size": 1,
      "price": "1011000000000000000000",
      "reserved": "",
      "salt": "0x39aad78cd89a8e591c464051d456b4bd33c2adf3929dd2941836650fb09a4513",
      "assetIds": []
    },
    {
      "x": 165,
      "y": 14,
      "size": 1,
      "price": "1011000000000000000000",
      "reserved": "",
      "salt": "0xab1e39fbf47a241e68a691012452e039ff09e90433dd476b37eea12f279e7c82",
      "assetIds": []
    },
    {
      "x": 166,
      "y": 14,
      "size": 1,
      "price": "1011000000000000000000",
      "reserved": "",
      "salt": "0xff630fed4c517b91d8bd09fd36260a8e776811e3a3139f9a3545acaec1a552af",
      "assetIds": []
    },
    {
      "x": 167,
      "y": 14,
      "size": 1,
      "price": "1011000000000000000000",
      "reserved": "",
      "salt": "0xe657768d526c19f1b7d42f416a619060890155f46407e1d47e51af8575f9dd9a",
      "assetIds": []
    },
    {
      "x": 167,
      "y": 13,
      "size": 1,
      "price": "1011000000000000000000",
      "reserved": "",
      "salt": "0x65f939af5f21fb303671aec7d6915ac534514f2fa720c73f575fc15b3c5dc99c",
      "assetIds": []
    },
    {
      "x": 167,
      "y": 12,
      "size": 1,
      "price": "1011000000000000000000",
      "reserved": "",
      "salt": "0x42e1277b1b893960ce81a964808e8e8b3b3640561fdd312cc3c9af36609b1899",
      "assetIds": []
    },
    {
      "x": 166,
      "y": 12,
      "size": 1,
      "price": "1011000000000000000000",
      "reserved": "",
      "salt": "0x792d8c2b70864479035b0fada454d0bcab62665dc8ddcb0507a8c98697cfaf38",
      "assetIds": []
    },
    {
      "x": 165,
      "y": 12,
      "size": 1,
      "price": "1011000000000000000000",
      "reserved": "",
      "salt": "0x409132177bbe97fdf0b46d9da94769fc496f7a2092345ed99df47a0370150eb9",
      "assetIds": []
    },
    {
      "x": 165,
      "y": 13,
      "size": 1,
      "price": "1011000000000000000000",
      "reserved": "",
      "salt": "0x707750de1509c917efaeb8e5f9543324d8b38efb97bb27b951ef249891d1cc5a",
      "assetIds": []
    },
    {
      "x": 166,
      "y": 13,
      "size": 1,
      "price": "1011000000000000000000",
      "reserved": "",
      "salt": "0x0ab4b96fbd2dcf34db3df07f83d944cad3afc78d4de2302d57fc86af7d011f2c",
      "assetIds": []
    },
    {
      "x": 171,
      "y": 14,
      "size": 1,
      "price": "1011000000000000000000",
      "reserved": "",
      "salt": "0xa212878149cb2abfdd97f43b010d041590a676b5780937e80b654d36a616ecde",
      "assetIds": []
    },
    {
      "x": 172,
      "y": 14,
      "size": 1,
      "price": "1011000000000000000000",
      "reserved": "",
      "salt": "0x8ad590a16da62c26280f2c27f1460bafd07f2f39c1208615de70046b1c00982d",
      "assetIds": []
    },
    {
      "x": 173,
      "y": 14,
      "size": 1,
      "price": "1011000000000000000000",
      "reserved": "",
      "salt": "0x11a2f5161e8156b4d1826aa51c8dae9971b7be959092f8ec442d85703a79a69d",
      "assetIds": []
    },
    {
      "x": 173,
      "y": 13,
      "size": 1,
      "price": "1011000000000000000000",
      "reserved": "",
      "salt": "0x7e2c0b46be9d4442954b1294fa0bd71f8c46a770c21e7c055b637c19f31879c2",
      "assetIds": []
    },
    {
      "x": 173,
      "y": 12,
      "size": 1,
      "price": "1011000000000000000000",
      "reserved": "",
      "salt": "0x04086053d5df81b9124cebf557583de639198b51f1d0f26039eb751a9302229d",
      "assetIds": []
    },
    {
      "x": 172,
      "y": 12,
      "size": 1,
      "price": "1011000000000000000000",
      "reserved": "",
      "salt": "0x95daf832d27a87f476dcbcf8bbd45a63b0ee82b90a358d241d1a6f8a7bc6e5db",
      "assetIds": []
    },
    {
      "x": 172,
      "y": 13,
      "size": 1,
      "price": "1011000000000000000000",
      "reserved": "",
      "salt": "0x5d854331513b44a9a58a62aa1dc8cdd376065c178772a96ed4028f0360218360",
      "assetIds": []
    },
    {
      "x": 171,
      "y": 13,
      "size": 1,
      "price": "1011000000000000000000",
      "reserved": "",
      "salt": "0x2c2ec38c2aefc010ebe757a4746c4089292ad4baa4087aabc96805135bfcd941",
      "assetIds": []
    },
    {
      "x": 171,
      "y": 12,
      "size": 1,
      "price": "1011000000000000000000",
      "reserved": "0x7a9fe22691c811ea339d9b73150e6911a5343dca",
      "salt": "0xb68eacd2ea7c1ecc25bd4a6865d8c553d42e2b9758270fe57483e85f3f553c30",
      "assetIds": []
    },
    {
      "x": 162,
      "y": 35,
      "size": 1,
      "price": "1011000000000000000000",
      "reserved": "",
      "salt": "0x0b54ee159834fe83bd9a8e225c55ac55d0ed8ddc9e7aeb636833328f2fd1b930",
      "assetIds": []
    },
    {
      "x": 163,
      "y": 35,
      "size": 1,
      "price": "1011000000000000000000",
      "reserved": "",
      "salt": "0xc8d64f99f6186e8b961ad2901125b54fdbfa5b08f1540e985c0fe55a348245a2",
      "assetIds": []
    },
    {
      "x": 164,
      "y": 35,
      "size": 1,
      "price": "1011000000000000000000",
      "reserved": "",
      "salt": "0xdc827e3a9eb05f3086d60713ae8c5bf8dbdf9c7d92d4a44e58b2418816125578",
      "assetIds": []
    },
    {
      "x": 164,
      "y": 34,
      "size": 1,
      "price": "1011000000000000000000",
      "reserved": "",
      "salt": "0xa93c56a6a8afd3867f754e257430bbfe6ad51191a0a157c8868145f4cb83beca",
      "assetIds": []
    },
    {
      "x": 164,
      "y": 33,
      "size": 1,
      "price": "1011000000000000000000",
      "reserved": "",
      "salt": "0x95495d2b9855d749c1135bfd27cc1bf921199faa0d33fbd0819f5db2f38ff028",
      "assetIds": []
    },
    {
      "x": 163,
      "y": 33,
      "size": 1,
      "price": "1011000000000000000000",
      "reserved": "",
      "salt": "0xb1ec00144f57a8322fc49fdad8869ab42044b8c8ce71aceec99f1a0844e5bdfe",
      "assetIds": []
    },
    {
      "x": 162,
      "y": 33,
      "size": 1,
      "price": "1011000000000000000000",
      "reserved": "",
      "salt": "0x09d34e7ffb1cd3f1d6d2e9f576a2d33a58bb01afe4000f2a4da36242b2f32775",
      "assetIds": []
    },
    {
      "x": 162,
      "y": 34,
      "size": 1,
      "price": "1011000000000000000000",
      "reserved": "",
      "salt": "0xddb421c9551933c0186a444887994cd23cb6c309fef7fe557baf5f3d2a0af1d6",
      "assetIds": []
    },
    {
      "x": 163,
      "y": 34,
      "size": 1,
      "price": "1011000000000000000000",
      "reserved": "",
      "salt": "0xeb4cd46d8b02ad9fa8696fba7410c574ca6ffac6d8f3599186b44df72dd75a40",
      "assetIds": []
    },
    {
      "x": 163,
      "y": 32,
      "size": 1,
      "price": "1011000000000000000000",
      "reserved": "0x7a9fe22691c811ea339d9b73150e6911a5343dca",
      "salt": "0x06bb2bcb133a1b90937b1360b5e33b47114f4e8ce078679e9ff1c662bd34df74",
      "assetIds": []
    },
    {
      "x": 177,
      "y": 35,
      "size": 1,
      "price": "1011000000000000000000",
      "reserved": "0x7a9fe22691c811ea339d9b73150e6911a5343dca",
      "salt": "0xd5bed2cf3f2384ecc4f2a0babeb9f8b3b2b782bac46c16affdd158bb27d814c8",
      "assetIds": []
    },
    {
      "x": 178,
      "y": 35,
      "size": 1,
      "price": "1011000000000000000000",
      "reserved": "0x7a9fe22691c811ea339d9b73150e6911a5343dca",
      "salt": "0xd87098d9080711a648f102feb388738b509460f32731c5f99a2fc213d9d9c0a4",
      "assetIds": []
    },
    {
      "x": 178,
      "y": 34,
      "size": 1,
      "price": "1011000000000000000000",
      "reserved": "0x7a9fe22691c811ea339d9b73150e6911a5343dca",
      "salt": "0x65c803ff01069f6edd7713b74727bcced57b9f6f893e7b06580145fff21805e9",
      "assetIds": []
    },
    {
      "x": 177,
      "y": 34,
      "size": 1,
      "price": "1011000000000000000000",
      "reserved": "0x7a9fe22691c811ea339d9b73150e6911a5343dca",
      "salt": "0x94e29ab9dba226d24596f7ade03676a5afd51d1bec2d6c31199728400aab2ad3",
      "assetIds": []
    },
    {
      "x": 177,
      "y": 33,
      "size": 1,
      "price": "1011000000000000000000",
      "reserved": "",
      "salt": "0xe7253487c3473d7707c64c7b1a5b9f302327e10ab67062b054a4af709b439365",
      "assetIds": []
    },
    {
      "x": 178,
      "y": 33,
      "size": 1,
      "price": "1011000000000000000000",
      "reserved": "",
      "salt": "0xbd1533058185cef3f638d08bea8a4b5dbeae003a38faeff65c987f7c69fdedda",
      "assetIds": []
    },
    {
      "x": 167,
      "y": 21,
      "size": 1,
      "price": "1011000000000000000000",
      "reserved": "0x7a9fe22691c811ea339d9b73150e6911a5343dca",
      "salt": "0x174091304038adfdbce26bb3ae244783cd26ede37bd49f5408fbadcea0165c5e",
      "assetIds": []
    },
    {
      "x": 177,
      "y": 22,
      "size": 1,
      "price": "1011000000000000000000",
      "reserved": "",
      "salt": "0x750a4e111add234f318fc8bf4cc669be1c40a890027b8c87f86daf41695079f4",
      "assetIds": []
    },
    {
      "x": 165,
      "y": 33,
      "size": 3,
      "price": "8648000000000000000000",
      "reserved": "0x7a9fe22691c811ea339d9b73150e6911a5343dca",
      "salt": "0x497f15b4e4d4d9306f8f2894a268acf24b13ce0575b6790033c688330328fd43",
      "assetIds": []
    },
    {
      "x": 165,
      "y": 30,
      "size": 3,
      "price": "8648000000000000000000",
      "reserved": "0x7a9fe22691c811ea339d9b73150e6911a5343dca",
      "salt": "0x16862675136ac244c5a6747adedb55254cfcf0eacd5fc5da02cfcacec97fa0fb",
      "assetIds": []
    },
    {
      "x": 174,
      "y": 30,
      "size": 3,
      "price": "8648000000000000000000",
      "reserved": "0x7a9fe22691c811ea339d9b73150e6911a5343dca",
      "salt": "0x773974d0c43ab2e412b213299500b5229eb61b32b4ca9b7bb7e010ec7380fe06",
      "assetIds": []
    },
    {
      "x": 162,
      "y": 24,
      "size": 6,
      "price": "32772000000000000000000",
      "reserved": "0x7a9fe22691c811ea339d9b73150e6911a5343dca",
      "salt": "0x5168c1d0a3051616ef0ee9dba8ac1294ec34407fd3064358f78e98452bf389ff",
      "assetIds": []
    },
    {
      "x": 168,
      "y": 24,
      "size": 6,
      "price": "32772000000000000000000",
      "reserved": "0x7a9fe22691c811ea339d9b73150e6911a5343dca",
      "salt": "0xa599f71d0634cd3eb7a7db302c87a24365bb48cdfe3728d296c3aa42a6ffb68f",
      "assetIds": []
    },
    {
      "x": 174,
      "y": 24,
      "size": 6,
      "price": "32772000000000000000000",
      "reserved": "0x7a9fe22691c811ea339d9b73150e6911a5343dca",
      "salt": "0x2de3111da342ac9513d65afa15023926007008a346aca41a05de3471600ce6d7",
      "assetIds": []
    },
    {
      "x": 168,
      "y": 18,
      "size": 6,
      "price": "32772000000000000000000",
      "reserved": "0x7a9fe22691c811ea339d9b73150e6911a5343dca",
      "salt": "0x490cb70f911d7310401dd3de69db01eb1aa36cb56a969656e9c9c135740f2faf",
      "assetIds": []
    },
    {
      "x": 174,
      "y": 12,
      "size": 6,
      "price": "32772000000000000000000",
      "reserved": "0x7a9fe22691c811ea339d9b73150e6911a5343dca",
      "salt": "0xaa8b8153845538b2ce01922eeb32a34ff9db623319a7965d28bf799efd4db7e9",
      "assetIds": []
    },
    {
      "x": 165,
      "y": 18,
      "size": 3,
      "price": "8648000000000000000000",
      "reserved": "0x7a9fe22691c811ea339d9b73150e6911a5343dca",
      "salt": "0x78bf89491b0fe2aab10d3afa4b9a76d1d9bcd3554ead9c22ede06ca653140cbd",
      "assetIds": []
    },
    {
      "x": 171,
      "y": 15,
      "size": 3,
      "price": "8648000000000000000000",
      "reserved": "0x7a9fe22691c811ea339d9b73150e6911a5343dca",
      "salt": "0x35a0e8d36c3f293358e48f050d05648caf5e5a23e67611bdb3470481a5178c7b",
      "assetIds": []
    },
    {
      "x": 168,
      "y": 12,
      "size": 3,
      "price": "8648000000000000000000",
      "reserved": "0x7a9fe22691c811ea339d9b73150e6911a5343dca",
      "salt": "0x9d5cc71f0173f9cad9c95952c7ac655dbff4f7d06e0842d021eba6d38a5c266d",
      "assetIds": []
    },
    {
      "x": 162,
      "y": 12,
      "size": 3,
      "price": "8648000000000000000000",
      "reserved": "0x7a9fe22691c811ea339d9b73150e6911a5343dca",
      "salt": "0x37a8147f5ad7d326b721daad7a4f425c3c18007b2ab15078f55ada759e8b6f50",
      "assetIds": []
    }
  ],
  "solcInputHash": "b42a863a795806b4ea3a8f05dfa42539",
  "bytecode": "0x6101606040523480156200001257600080fd5b50604051620031e9380380620031e983398181016040526101a08110156200003957600080fd5b508051602082015160408301516060840151608085015160a086015160c087015160e08801516101008901516101208a01516101408b01516101608c0151610180909c015160016000559a9b999a9899979896979596949593949293919290919085856001600160a01b038216620000f8576040805162461bcd60e51b815260206004820152601f60248201527f526566657272616c56616c696461746f723a207a65726f206164647265737300604482015290519081900360640190fd5b600380546001600160a01b0319166001600160a01b0393841617905560045562000130908e1662000459602090811b62002adc17901c565b6200016d5760405162461bcd60e51b8152600401808060200182810382526025815260200180620031c46025913960400191505060405180910390fd5b6200018c8c6001600160a01b03166200045960201b62002adc1760201c565b620001c95760405162461bcd60e51b8152600401808060200182810382526025815260200180620031c46025913960400191505060405180910390fd5b6001600160a01b038b1662000214576040805162461bcd60e51b815260206004820181905260248201526000805160206200317f833981519152604482015290519081900360640190fd5b6001600160a01b038a166200025f576040805162461bcd60e51b815260206004820181905260248201526000805160206200317f833981519152604482015290519081900360640190fd5b6001600160a01b038916620002aa576040805162461bcd60e51b815260206004820181905260248201526000805160206200317f833981519152604482015290519081900360640190fd5b620002c9836001600160a01b03166200045960201b62002adc1760201c565b620003065760405162461bcd60e51b8152600401808060200182810382526025815260200180620031c46025913960400191505060405180910390fd5b6001600160a01b03821662000351576040805162461bcd60e51b815260206004820181905260248201526000805160206200317f833981519152604482015290519081900360640190fd5b62000370816001600160a01b03166200045960201b62002adc1760201c565b620003ad5760405162461bcd60e51b8152600401808060200182810382526025815260200180620031c46025913960400191505060405180910390fd5b6001600160601b031960608e811b821660a0528d901b1660c052620003dd8b60016001600160e01b036200045f16565b600680546001600160a01b039a8b166001600160a01b031991821617909155610140989098526101209690965260018054998916998816999099179098556001600160601b0319606092831b811660e05290821b811660805296901b909516610100525060078054919093169116179055506200050a92505050565b3b151590565b6001600160a01b038216620004a65760405162461bcd60e51b81526004018080602001828103825260258152602001806200319f6025913960400191505060405180910390fd5b6001600160a01b038216600081815260026020908152604091829020805460ff191685151590811790915582519384529083015280517fb21eb88b4e33b3f1281830a7178d74d8aa73220416215726b68ae23d539515cb9281900390910190a15050565b60805160601c60a05160601c60c05160601c60e05160601c6101005160601c6101205161014051612bef6200059060003980610be0528061247e525080610bbc528061159d5250806124fc525080611af25280611c4f525080611aa85280611e4e52806124d9525080611b235280611c205250806111075280611f3a5250612bef6000f3fe608060405234801561001057600080fd5b50600436106101365760003560e01c8063984d6252116100b2578063c10a420811610081578063dc5074af11610066578063dc5074af146108a0578063e56f8a9e146108c6578063f23a6e61146108e357610136565b8063c10a4208146107c1578063caed35001461089857610136565b8063984d62521461055f578063ab1cc78c14610631578063b522ecff14610639578063bc197c811461065f57610136565b806365194ce71161010957806378e6e5b9116100ee57806378e6e5b9146104e55780638a04af6a1461050b5780638f2839701461053957610136565b806365194ce7146103635780636e9960c3146104c157610136565b80631187fd3c1461013b57806325cb5bc01461031b578063495906571461033557806358bc29441461033d575b600080fd5b610319600480360361012081101561015257600080fd5b6001600160a01b038235811692602081013582169260408201359092169181019060808101606082013564010000000081111561018e57600080fd5b8201836020820111156101a057600080fd5b803590602001918460208302840111640100000000831117156101c257600080fd5b919390928235926040810190602001356401000000008111156101e457600080fd5b8201836020820111156101f657600080fd5b8035906020019184602083028401116401000000008311171561021857600080fd5b91939092909160208101903564010000000081111561023657600080fd5b82018360208201111561024857600080fd5b8035906020019184602083028401116401000000008311171561026a57600080fd5b91939092909160208101903564010000000081111561028857600080fd5b82018360208201111561029a57600080fd5b803590602001918460018302840111640100000000831117156102bc57600080fd5b9193909290916020810190356401000000008111156102da57600080fd5b8201836020820111156102ec57600080fd5b8035906020019184600183028401116401000000008311171561030e57600080fd5b509092509050610978565b005b610323610bba565b60408051918252519081900360200190f35b610323610bde565b6103196004803603602081101561035357600080fd5b50356001600160a01b0316610c02565b6104096004803603602081101561037957600080fd5b81019060208101813564010000000081111561039457600080fd5b8201836020820111156103a657600080fd5b803590602001918460018302840111640100000000831117156103c857600080fd5b91908080601f016020809104026020016040519081016040528093929190818152602001838380828437600092019190915250929550610d2e945050505050565b6040518080602001866001600160a01b03166001600160a01b03168152602001856001600160a01b03166001600160a01b03168152602001848152602001838152602001828103825287818151815260200191508051906020019080838360005b8381101561048257818101518382015260200161046a565b50505050905090810190601f1680156104af5780820380516001836020036101000a031916815260200191505b50965050505050505060405180910390f35b6104c9610e33565b604080516001600160a01b039092168252519081900360200190f35b610319600480360360208110156104fb57600080fd5b50356001600160a01b0316610e42565b6103196004803603604081101561052157600080fd5b506001600160a01b0381351690602001351515610f00565b6103196004803603602081101561054f57600080fd5b50356001600160a01b0316610f6d565b6103196004803603606081101561057557600080fd5b6001600160a01b0382351691908101906040810160208201356401000000008111156105a057600080fd5b8201836020820111156105b257600080fd5b803590602001918460208302840111640100000000831117156105d457600080fd5b9193909290916020810190356401000000008111156105f257600080fd5b82018360208201111561060457600080fd5b8035906020019184602083028401116401000000008311171561062657600080fd5b5090925090506110a6565b610323611231565b6103196004803603602081101561064f57600080fd5b50356001600160a01b0316611237565b61078c600480360360a081101561067557600080fd5b6001600160a01b0382358116926020810135909116918101906060810160408201356401000000008111156106a957600080fd5b8201836020820111156106bb57600080fd5b803590602001918460208302840111640100000000831117156106dd57600080fd5b9193909290916020810190356401000000008111156106fb57600080fd5b82018360208201111561070d57600080fd5b8035906020019184602083028401116401000000008311171561072f57600080fd5b91939092909160208101903564010000000081111561074d57600080fd5b82018360208201111561075f57600080fd5b8035906020019184600183028401116401000000008311171561078157600080fd5b509092509050611348565b604080517fffffffff000000000000000000000000000000000000000000000000000000009092168252519081900360200190f35b610884600480360360a08110156107d757600080fd5b8101906020810181356401000000008111156107f257600080fd5b82018360208201111561080457600080fd5b8035906020019184600183028401116401000000008311171561082657600080fd5b91908080601f016020809104026020016040519081016040528093929190818152602001838380828437600092019190915250929550506001600160a01b038335811694506020840135169260408101359250606001359050611375565b604080519115158252519081900360200190f35b6104c96114b1565b610884600480360360208110156108b657600080fd5b50356001600160a01b03166114c0565b610319600480360360208110156108dc57600080fd5b50356114de565b61078c600480360360a08110156108f957600080fd5b6001600160a01b03823581169260208101359091169160408201359160608101359181019060a08101608082013564010000000081111561093957600080fd5b82018360208201111561094b57600080fd5b8035906020019184600183028401116401000000008311171561096d57600080fd5b509092509050611570565b600260005414156109d0576040805162461bcd60e51b815260206004820152601f60248201527f5265656e7472616e637947756172643a207265656e7472616e742063616c6c00604482015290519081900360640190fd5b60026000556109df8e8d61159b565b610ad68d8d8d8d80806020026020016040519081016040528093929190818152602001838360200280828437600081840152601f19601f820116905080830192505050505050508c8c8c80806020026020016040519081016040528093929190818152602001838360200280828437600081840152601f19601f820116905080830192505050505050508b8b8080602002602001604051908101604052809392919081815260200183836020028082843760009201919091525050604080516020601f8d018190048102820181019092528b815292508b91508a90819084018382808284376000920191909152506116fe92505050565b610b2a8e8c8c6003818110610ae757fe5b9050602002013586868080601f016020809104026020016040519081016040528093929190818152602001838380828437600092019190915250611a8192505050565b610b688e8e8d8d80806020026020016040519081016040528093929190818152602001838360200280828437600092019190915250611ad292505050565b610ba58d898980806020026020016040519081016040528093929190818152602001838360200280828437600092019190915250611ec392505050565b50506001600055505050505050505050505050565b7f000000000000000000000000000000000000000000000000000000000000000090565b7f000000000000000000000000000000000000000000000000000000000000000090565b6001546001600160a01b03163314610c61576040805162461bcd60e51b815260206004820152601260248201527f6f6e6c792061646d696e20616c6c6f7765640000000000000000000000000000604482015290519081900360640190fd5b6001600160a01b038116610cbc576040805162461bcd60e51b815260206004820152601f60248201527f526566657272616c56616c696461746f723a207a65726f206164647265737300604482015290519081900360640190fd5b600380546001600160a01b03908116600090815260056020526040808220620d2f0042019055835473ffffffffffffffffffffffffffffffffffffffff1916928516928317909355915190917fbbb5fb2ee7e707ae0c968f63e94211ea81e66a718c34e2f810a7619e5678a21791a250565b606060008060008060606000806000808a80602001905160a0811015610d5357600080fd5b8101908080516040519392919084640100000000821115610d7357600080fd5b908301906020820185811115610d8857600080fd5b8251640100000000811182820188101715610da257600080fd5b82525081516020918201929091019080838360005b83811015610dcf578181015183820152602001610db7565b50505050905090810190601f168015610dfc5780820380516001836020036101000a031916815260200191505b5060409081526020820151908201516060830151608090930151959f50909d509b5099509197505050505050505091939590929450565b6001546001600160a01b031690565b6001546001600160a01b03163314610e8b5760405162461bcd60e51b8152600401808060200182810382526023815260200180612b056023913960400191505060405180910390fd5b6001600160a01b038116610ee6576040805162461bcd60e51b815260206004820152601f60248201527f526566657272616c56616c696461746f723a207a65726f206164647265737300604482015290519081900360640190fd5b6001600160a01b0316600090815260056020526040812055565b6001546001600160a01b03163314610f5f576040805162461bcd60e51b815260206004820152601260248201527f6f6e6c792061646d696e20616c6c6f7765640000000000000000000000000000604482015290519081900360640190fd5b610f698282612087565b5050565b6001546001600160a01b03163314610fcc576040805162461bcd60e51b815260206004820152601b60248201527f6f6e6c792061646d696e2063616e206368616e67652061646d696e0000000000604482015290519081900360640190fd5b6001546001600160a01b038281169116141561102f576040805162461bcd60e51b815260206004820152600d60248201527f616c72656164792061646d696e00000000000000000000000000000000000000604482015290519081900360640190fd5b600154604080516001600160a01b039283168152918316602083015280517f7e644d79422f17c01e4894b5f4f588d331ebfa28653d42ae832dc59e38c9798f9281900390910190a16001805473ffffffffffffffffffffffffffffffffffffffff19166001600160a01b0392909216919091179055565b6001546001600160a01b03163314611105576040805162461bcd60e51b815260206004820152600e60248201527f4e4f545f415554484f52495a4544000000000000000000000000000000000000604482015290519081900360640190fd5b7f00000000000000000000000000000000000000000000000000000000000000006001600160a01b0316632eb2c2d63087878787876040518763ffffffff1660e01b815260040180876001600160a01b03166001600160a01b03168152602001866001600160a01b03166001600160a01b031681526020018060200180602001806020018481038452888882818152602001925060200280828437600083820152601f01601f19169091018581038452868152602090810191508790870280828437600081840152601f19601f8201169050808301925050508481038252600081526020016020019950505050505050505050600060405180830381600087803b15801561121257600080fd5b505af1158015611226573d6000803e3d6000fd5b505050505050505050565b60045490565b6001600160a01b038116611292576040805162461bcd60e51b815260206004820152600c60248201527f5a45524f5f414444524553530000000000000000000000000000000000000000604482015290519081900360640190fd5b6001546001600160a01b031633146112f1576040805162461bcd60e51b815260206004820152600e60248201527f4e4f545f415554484f52495a4544000000000000000000000000000000000000604482015290519081900360640190fd5b6006805473ffffffffffffffffffffffffffffffffffffffff19166001600160a01b0383169081179091556040517f4d66958b757eb92a1b43d02be4c38c9500b73f532420ee3706cb43d420ba023690600090a250565b7fbc197c810000000000000000000000000000000000000000000000000000000098975050505050505050565b60006004548211806113985750836001600160a01b0316856001600160a01b0316145b806113a257508242115b156113af575060006114a8565b60408051606087811b7fffffffffffffffffffffffffffffffffffffffff0000000000000000000000009081166020808501919091529188901b166034830152604882018690526068808301869052835180840390910181526088830184528051908201207f19457468657265756d205369676e6564204d6573736167653a0a33320000000060a884015260c48084018290528451808503909101815260e49093019093528151910120600090611466908961214e565b6001600160a01b0381166000908152600560205260409020549091504211611493576001925050506114a8565b6003546001600160a01b039081169116149150505b95945050505050565b6003546001600160a01b031690565b6001600160a01b031660009081526002602052604090205460ff1690565b6001546001600160a01b0316331461153d576040805162461bcd60e51b815260206004820152601260248201527f6f6e6c792061646d696e20616c6c6f7765640000000000000000000000000000604482015290519081900360640190fd5b600481905560405181907f774069781371d65424b3b0b101c1d40014532cac040f979595b99a3fcf8ce08c90600090a250565b7ff23a6e61000000000000000000000000000000000000000000000000000000009695505050505050565b7f0000000000000000000000000000000000000000000000000000000000000000421061160f576040805162461bcd60e51b815260206004820152600c60248201527f53414c455f49535f4f5645520000000000000000000000000000000000000000604482015290519081900360640190fd5b6001600160a01b03821633148061163557503360009081526002602052604090205460ff165b611686576040805162461bcd60e51b815260206004820152600e60248201527f4e4f545f415554484f52495a4544000000000000000000000000000000000000604482015290519081900360640190fd5b6001600160a01b03811615806116ad5750816001600160a01b0316816001600160a01b0316145b610f69576040805162461bcd60e51b815260206004820152600d60248201527f52455345525645445f4c414e4400000000000000000000000000000000000000604482015290519081900360640190fd5b600087878760008151811061170f57fe5b60200260200101518860018151811061172457fe5b60200260200101518960028151811061173957fe5b60200260200101518a60038151811061174e57fe5b60200260200101518a8a60405160200180828051906020019060200280838360005b83811015611788578181015183820152602001611770565b50505050905001915050604051602081830303815290604052805190602001208a60405160200180828051906020019060200280838360005b838110156117d95781810151838201526020016117c1565b5050505090500191505060405160208183030381529060405280519060200120604051602001808a6001600160a01b03166001600160a01b031660601b8152601401896001600160a01b03166001600160a01b031660601b81526014018881526020018781526020018681526020018581526020018481526020018381526020018281526020019950505050505050505050604051602081830303815290604052805190602001209050600760009054906101000a90046001600160a01b03166001600160a01b031663012847ed83836040518363ffffffff1660e01b81526004018080602001838152602001828103825284818151815260200191508051906020019080838360005b838110156118fb5781810151838201526020016118e3565b50505050905090810190601f1680156119285780820380516001836020036101000a031916815260200191505b50935050505060206040518083038186803b15801561194657600080fd5b505afa15801561195a573d6000803e3d6000fd5b505050506040513d602081101561197057600080fd5b50516119c3576040805162461bcd60e51b815260206004820152600c60248201527f494e56414c49445f415554480000000000000000000000000000000000000000604482015290519081900360640190fd5b6000611a24876000815181106119d557fe5b6020026020010151886001815181106119ea57fe5b6020026020010151896002815181106119ff57fe5b60200260200101518a600381518110611a1457fe5b60200260200101518c8b8b612337565b9050611a3084826123dc565b611226576040805162461bcd60e51b815260206004820152600c60248201527f494e56414c49445f4c414e440000000000000000000000000000000000000000604482015290519081900360640190fd5b6000611a8d84846124a5565b600654909150611acc908590839085906001600160a01b03167f000000000000000000000000000000000000000000000000000000000000000061253f565b50505050565b80600281518110611adf57fe5b602002602001015160011480611b1c57507f00000000000000000000000000000000000000000000000000000000000000006001600160a01b0316155b15611c1e577f00000000000000000000000000000000000000000000000000000000000000006001600160a01b0316636e1e3bbf8383600281518110611b5e57fe5b602002602001015184600081518110611b7357fe5b602002602001015185600181518110611b8857fe5b60200260200101516040518563ffffffff1660e01b815260040180856001600160a01b03166001600160a01b031681526020018481526020018381526020018281526020018060200182810382526000815260200160200195505050505050600060405180830381600087803b158015611c0157600080fd5b505af1158015611c15573d6000803e3d6000fd5b50505050611dbe565b7f00000000000000000000000000000000000000000000000000000000000000006001600160a01b0316636e1e3bbf7f000000000000000000000000000000000000000000000000000000000000000083600281518110611c7b57fe5b602002602001015184600081518110611c9057fe5b602002602001015185600181518110611ca557fe5b60200260200101518760405160200180826001600160a01b03166001600160a01b031681526020019150506040516020818303038152906040526040518663ffffffff1660e01b815260040180866001600160a01b03166001600160a01b0316815260200185815260200184815260200183815260200180602001828103825283818151815260200191508051906020019080838360005b83811015611d55578181015183820152602001611d3d565b50505050905090810190601f168015611d825780820380516001836020036101000a031916815260200191505b509650505050505050600060405180830381600087803b158015611da557600080fd5b505af1158015611db9573d6000803e3d6000fd5b505050505b61019881600181518110611dce57fe5b60200260200101510281600081518110611de457fe5b602002602001015101826001600160a01b0316846001600160a01b03167fe4dfa6ac11314892f3029b34a25b1a887da3b1cab2bbf8506d87128ba6e3ac0284600281518110611e2f57fe5b602002602001015185600381518110611e4457fe5b60200260200101517f000000000000000000000000000000000000000000000000000000000000000087600381518110611e7a57fe5b602002602001015160405180858152602001848152602001836001600160a01b03166001600160a01b0316815260200182815260200194505050505060405180910390a4505050565b6060815167ffffffffffffffff81118015611edd57600080fd5b50604051908082528060200260200182016040528015611f07578160200160208202803683370190505b50905060005b8251811015611f37576001828281518110611f2457fe5b6020908102919091010152600101611f0d565b507f00000000000000000000000000000000000000000000000000000000000000006001600160a01b0316632eb2c2d6308585856040518563ffffffff1660e01b815260040180856001600160a01b03166001600160a01b03168152602001846001600160a01b03166001600160a01b03168152602001806020018060200180602001848103845286818151815260200191508051906020019060200280838360005b83811015611ff2578181015183820152602001611fda565b50505050905001848103835285818151815260200191508051906020019060200280838360005b83811015612031578181015183820152602001612019565b50505050905001848103825260008152602001602001975050505050505050600060405180830381600087803b15801561206a57600080fd5b505af115801561207e573d6000803e3d6000fd5b50505050505050565b6001600160a01b0382166120cc5760405162461bcd60e51b8152600401808060200182810382526025815260200180612b6b6025913960400191505060405180910390fd5b6001600160a01b03821660008181526002602090815260409182902080547fffffffffffffffffffffffffffffffffffffffffffffffffffffffffffffff001685151590811790915582519384529083015280517fb21eb88b4e33b3f1281830a7178d74d8aa73220416215726b68ae23d539515cb9281900390910190a15050565b600081516041146121a6576040805162461bcd60e51b815260206004820152601f60248201527f45434453413a20696e76616c6964207369676e6174757265206c656e67746800604482015290519081900360640190fd5b60208201516040830151606084015160001a7f7fffffffffffffffffffffffffffffff5d576e7357a4501ddfe92f46681b20a08211156122175760405162461bcd60e51b8152600401808060200182810382526022815260200180612ae36022913960400191505060405180910390fd5b8060ff16601b1415801561222f57508060ff16601c14155b1561226b5760405162461bcd60e51b8152600401808060200182810382526022815260200180612b286022913960400191505060405180910390fd5b60408051600080825260208083018085528a905260ff85168385015260608301879052608083018690529251909260019260a080820193601f1981019281900390910190855afa1580156122c3573d6000803e3d6000fd5b5050604051601f1901519150506001600160a01b03811661232b576040805162461bcd60e51b815260206004820152601860248201527f45434453413a20696e76616c6964207369676e61747572650000000000000000604482015290519081900360640190fd5b93505050505b92915050565b60008787878787878760405160200180888152602001878152602001868152602001858152602001846001600160a01b03166001600160a01b031660601b8152601401838152602001828051906020019060200280838360005b838110156123a9578181015183820152602001612391565b50505050905001975050505050505050604051602081830303815290604052805190602001209050979650505050505050565b600081815b845181101561247b5760008582815181106123f857fe5b60200260200101519050808310156124405782816040516020018083815260200182815260200192505050604051602081830303815290604052805190602001209250612472565b808360405160200180838152602001828152602001925050506040516020818303038152906040528051906020012092505b506001016123e1565b507f0000000000000000000000000000000000000000000000000000000000000000149392505050565b6000806124ca60646124be85600563ffffffff61264716565b9063ffffffff6126a716565b90506125276001600160a01b037f000000000000000000000000000000000000000000000000000000000000000016857f00000000000000000000000000000000000000000000000000000000000000008463ffffffff6126e916565b612537838263ffffffff61277116565b949350505050565b8251819085901561262c57606060008060008061255b8a610d2e565b93985091965094509250905060006125768686868686611375565b15612604576125906125888d84612647565b6127106126a7565b9050886001600160a01b0316846001600160a01b0316866001600160a01b03167fac7a699eb95c3c6d390ec4626de17ef9a67b35891efdb197beba7c7fdd45fac48f858760405180848152602001838152602001828152602001935050505060405180910390a46126018782612771565b96505b8015612625576126256001600160a01b0389168e878463ffffffff6126e916565b5050505050505b61207e6001600160a01b03831688868463ffffffff6126e916565b60008261265657506000612331565b8282028284828161266357fe5b04146126a05760405162461bcd60e51b8152600401808060200182810382526021815260200180612b4a6021913960400191505060405180910390fd5b9392505050565b60006126a083836040518060400160405280601a81526020017f536166654d6174683a206469766973696f6e206279207a65726f0000000000008152506127b3565b604080516001600160a01b0380861660248301528416604482015260648082018490528251808303909101815260849091019091526020810180517bffffffffffffffffffffffffffffffffffffffffffffffffffffffff167f23b872dd00000000000000000000000000000000000000000000000000000000179052611acc908590612855565b60006126a083836040518060400160405280601e81526020017f536166654d6174683a207375627472616374696f6e206f766572666c6f77000081525061290b565b6000818361283f5760405162461bcd60e51b81526004018080602001828103825283818151815260200191508051906020019080838360005b838110156128045781810151838201526020016127ec565b50505050905090810190601f1680156128315780820380516001836020036101000a031916815260200191505b509250505060405180910390fd5b50600083858161284b57fe5b0495945050505050565b60606128aa826040518060400160405280602081526020017f5361666545524332303a206c6f772d6c6576656c2063616c6c206661696c6564815250856001600160a01b03166129659092919063ffffffff16565b805190915015612906578080602001905160208110156128c957600080fd5b50516129065760405162461bcd60e51b815260040180806020018281038252602a815260200180612b90602a913960400191505060405180910390fd5b505050565b6000818484111561295d5760405162461bcd60e51b81526020600482018181528351602484015283519092839260449091019190850190808383600083156128045781810151838201526020016127ec565b505050900390565b60606125378484600085606061297a85612adc565b6129cb576040805162461bcd60e51b815260206004820152601d60248201527f416464726573733a2063616c6c20746f206e6f6e2d636f6e7472616374000000604482015290519081900360640190fd5b60006060866001600160a01b031685876040518082805190602001908083835b60208310612a0a5780518252601f1990920191602091820191016129eb565b6001836020036101000a03801982511681845116808217855250505050505090500191505060006040518083038185875af1925050503d8060008114612a6c576040519150601f19603f3d011682016040523d82523d6000602084013e612a71565b606091505b50915091508115612a855791506125379050565b805115612a955780518082602001fd5b60405162461bcd60e51b81526020600482018181528651602484015286518793919283926044019190850190808383600083156128045781810151838201526020016127ec565b3b15159056fe45434453413a20696e76616c6964207369676e6174757265202773272076616c7565526566657272616c56616c696461746f723a2053656e646572206e6f742061646d696e45434453413a20696e76616c6964207369676e6174757265202776272076616c7565536166654d6174683a206d756c7469706c69636174696f6e206f766572666c6f774d6574615472616e73616374696f6e52656365697665723a207a65726f20616464726573735361666545524332303a204552433230206f7065726174696f6e20646964206e6f742073756363656564a264697066735822122077f2d13cbcb85fa08010a53c1e4ef27117b031e8c1c9273d55cef362af299f3164736f6c6343000605003345737461746553616c6557697468417574683a207a65726f20616464726573734d6574615472616e73616374696f6e52656365697665723a207a65726f206164647265737345737461746553616c6557697468417574683a206973206e6f74206120636f6e7472616374",
  "devdoc": {
    "methods": {
      "buyLandWithSand(address,address,address,uint256[],bytes32,uint256[],bytes32[],bytes,bytes)": {
        "params": {
          "assetIds": "asset ids (lands) that will be bought",
          "buyer": "address that perform the payment",
          "info": "[X_INDEX=0] x coordinate of the Land [Y_INDEX=1] y coordinate of the Land [SIZE_INDEX=2] size of the pack of Land to purchase [PRICE_INDEX=3] price in SAND to purchase that Land",
          "proof": "merkleProof for that particular Land",
          "referral": "referral id",
          "reserved": "the reserved address (if any)",
          "salt": "The salt submitted for verification.",
          "signature": "A signed message specifying tx details",
          "to": "address that will own the purchased Land"
        }
      },
      "changeAdmin(address)": {
        "details": "change the administrator to be `newAdmin`.",
        "params": {
          "newAdmin": "address of the new administrator."
        }
      },
      "disablePreviousSigningWallet(address)": {
        "details": "Disable compromised signing wallet",
        "params": {
          "disableWallet": "The wallet address to be disabled"
        }
      },
      "getAdmin()": {
        "details": "gives the current administrator of this contract.",
        "returns": {
          "_0": "the current administrator of this contract."
        }
      },
      "getSigningWallet()": {
        "details": "signing wallet authorized for referral",
        "returns": {
          "_0": "the address of the signing wallet"
        }
      },
      "isMetaTransactionProcessor(address)": {
        "details": "check whether address `who` is given meta-transaction execution rights.",
        "params": {
          "who": "The address to query."
        },
        "returns": {
          "_0": "whether the address has meta-transaction execution rights."
        }
      },
      "isReferralValid(bytes,address,address,uint256,uint256)": {
        "params": {
          "commissionRate": "The commissionRate of the referral",
          "expiryTime": "The expiry time of the referral",
          "referee": "The address of the referee",
          "referrer": "The address of the referrer",
          "signature": "The signature to check (signed referral)"
        },
        "returns": {
          "_0": "True if the referral is valid"
        }
      },
      "setMetaTransactionProcessor(address,bool)": {
        "details": "Enable or disable the ability of `metaTransactionProcessor` to perform meta-tx (metaTransactionProcessor rights).",
        "params": {
          "enabled": "set whether the metaTransactionProcessor is enabled or disabled.",
          "metaTransactionProcessor": "address that will be given/removed metaTransactionProcessor rights."
        }
      },
      "setReceivingWallet(address)": {
        "params": {
          "newWallet": "address of the new receiving wallet"
        }
      },
      "updateMaxCommissionRate(uint256)": {
        "details": "Update the maximum commission rate",
        "params": {
          "newMaxCommissionRate": "The new maximum commission rate"
        }
      },
      "updateSigningWallet(address)": {
        "details": "Update the signing wallet The previous wallet is still valid for a grace period (_previousSigningDelay). If you want to disable the previous wallet, use the disablePreviousSigningWallet function.",
        "params": {
          "newSigningWallet": "The new address of the signing wallet"
        }
      },
      "withdrawAssets(address,uint256[],uint256[])": {
        "params": {
          "assetIds": "the assetIds to be transferred",
          "to": "intended recipient of the asset tokens",
          "values": "the quantities of the assetIds to be transferred"
        }
      }
    },
    "title": "Estate Sale contract with referral"
  },
  "userdoc": {
    "methods": {
      "buyLandWithSand(address,address,address,uint256[],bytes32,uint256[],bytes32[],bytes,bytes)": {
        "notice": "buy Land with SAND using the merkle proof associated with it"
      },
      "getExpiryTime()": {
        "notice": "Gets the expiry time for the current sale"
      },
      "getMaxCommissionRate()": {
        "notice": "the max commission rate"
      },
      "getMerkleRoot()": {
        "notice": "Gets the Merkle root associated with the current sale"
      },
      "isReferralValid(bytes,address,address,uint256,uint256)": {
        "notice": "Check if a referral is valid"
      },
      "setReceivingWallet(address)": {
        "notice": "set the wallet receiving the proceeds"
      },
      "withdrawAssets(address,uint256[],uint256[])": {
        "notice": "enable Admin to withdraw remaining assets from EstateSaleWithFee contract"
      }
    },
    "notice": "This contract manages the sale of our lands as Estates"
  },
  "storageLayout": {
    "storage": [
      {
        "astId": 1129,
        "contract": "src/solc_0.6/EstateSale/EstateSaleWithAuth.sol:EstateSaleWithAuth",
        "label": "_status",
        "offset": 0,
        "slot": "0",
        "type": "t_uint256"
      },
      {
        "astId": 14099,
        "contract": "src/solc_0.6/EstateSale/EstateSaleWithAuth.sol:EstateSaleWithAuth",
        "label": "_admin",
        "offset": 0,
        "slot": "1",
        "type": "t_address"
      },
      {
        "astId": 14168,
        "contract": "src/solc_0.6/EstateSale/EstateSaleWithAuth.sol:EstateSaleWithAuth",
        "label": "_metaTransactionContracts",
        "offset": 0,
        "slot": "2",
        "type": "t_mapping(t_address,t_bool)"
      },
      {
        "astId": 12200,
        "contract": "src/solc_0.6/EstateSale/EstateSaleWithAuth.sol:EstateSaleWithAuth",
        "label": "_signingWallet",
        "offset": 0,
        "slot": "3",
        "type": "t_address"
      },
      {
        "astId": 12202,
        "contract": "src/solc_0.6/EstateSale/EstateSaleWithAuth.sol:EstateSaleWithAuth",
        "label": "_maxCommissionRate",
        "offset": 0,
        "slot": "4",
        "type": "t_uint256"
      },
      {
        "astId": 12206,
        "contract": "src/solc_0.6/EstateSale/EstateSaleWithAuth.sol:EstateSaleWithAuth",
        "label": "_previousSigningWallets",
        "offset": 0,
        "slot": "5",
        "type": "t_mapping(t_address,t_uint256)"
      },
      {
        "astId": 7750,
        "contract": "src/solc_0.6/EstateSale/EstateSaleWithAuth.sol:EstateSaleWithAuth",
        "label": "_wallet",
        "offset": 0,
        "slot": "6",
        "type": "t_address_payable"
      },
      {
        "astId": 7752,
        "contract": "src/solc_0.6/EstateSale/EstateSaleWithAuth.sol:EstateSaleWithAuth",
        "label": "_authValidator",
        "offset": 0,
        "slot": "7",
        "type": "t_contract(AuthValidator)7063"
      }
    ],
    "types": {
      "t_address": {
        "encoding": "inplace",
        "label": "address",
        "numberOfBytes": "20"
      },
      "t_address_payable": {
        "encoding": "inplace",
        "label": "address payable",
        "numberOfBytes": "20"
      },
      "t_bool": {
        "encoding": "inplace",
        "label": "bool",
        "numberOfBytes": "1"
      },
      "t_contract(AuthValidator)7063": {
        "encoding": "inplace",
        "label": "contract AuthValidator",
        "numberOfBytes": "20"
      },
      "t_mapping(t_address,t_bool)": {
        "encoding": "mapping",
        "key": "t_address",
        "label": "mapping(address => bool)",
        "numberOfBytes": "32",
        "value": "t_bool"
      },
      "t_mapping(t_address,t_uint256)": {
        "encoding": "mapping",
        "key": "t_address",
        "label": "mapping(address => uint256)",
        "numberOfBytes": "32",
        "value": "t_uint256"
      },
      "t_uint256": {
        "encoding": "inplace",
        "label": "uint256",
        "numberOfBytes": "32"
      }
    }
  }
}