{
  "address": "0xb8E4fFAEe5Fd48c3455694906E00Ce259db1D5C7",
  "abi": [
    {
      "inputs": [
        {
          "internalType": "address",
          "name": "landAddress",
          "type": "address"
        },
        {
          "internalType": "address",
          "name": "sandContractAddress",
          "type": "address"
        },
        {
          "internalType": "address",
          "name": "initialMetaTx",
          "type": "address"
        },
        {
          "internalType": "address",
          "name": "admin",
          "type": "address"
        },
        {
          "internalType": "address payable",
          "name": "initialWalletAddress",
          "type": "address"
        },
        {
          "internalType": "bytes32",
          "name": "merkleRoot",
          "type": "bytes32"
        },
        {
          "internalType": "uint256",
          "name": "expiryTime",
          "type": "uint256"
        },
        {
          "internalType": "address",
          "name": "initialSigningWallet",
          "type": "address"
        },
        {
          "internalType": "uint256",
          "name": "initialMaxCommissionRate",
          "type": "uint256"
        },
        {
          "internalType": "address",
          "name": "estate",
          "type": "address"
        },
        {
          "internalType": "address",
          "name": "asset",
          "type": "address"
        },
        {
          "internalType": "address",
          "name": "feeDistributor",
          "type": "address"
        },
        {
          "internalType": "address",
          "name": "authValidator",
          "type": "address"
        }
      ],
      "stateMutability": "nonpayable",
      "type": "constructor"
    },
    {
      "anonymous": false,
      "inputs": [
        {
          "indexed": false,
          "internalType": "address",
          "name": "oldAdmin",
          "type": "address"
        },
        {
          "indexed": false,
          "internalType": "address",
          "name": "newAdmin",
          "type": "address"
        }
      ],
      "name": "AdminChanged",
      "type": "event"
    },
    {
      "anonymous": false,
      "inputs": [
        {
          "indexed": true,
          "internalType": "address",
          "name": "buyer",
          "type": "address"
        },
        {
          "indexed": true,
          "internalType": "address",
          "name": "to",
          "type": "address"
        },
        {
          "indexed": true,
          "internalType": "uint256",
          "name": "topCornerId",
          "type": "uint256"
        },
        {
          "indexed": false,
          "internalType": "uint256",
          "name": "size",
          "type": "uint256"
        },
        {
          "indexed": false,
          "internalType": "uint256",
          "name": "price",
          "type": "uint256"
        },
        {
          "indexed": false,
          "internalType": "address",
          "name": "token",
          "type": "address"
        },
        {
          "indexed": false,
          "internalType": "uint256",
          "name": "amountPaid",
          "type": "uint256"
        }
      ],
      "name": "LandQuadPurchased",
      "type": "event"
    },
    {
      "anonymous": false,
      "inputs": [
        {
          "indexed": true,
          "internalType": "uint256",
          "name": "newMaxCommissionRate",
          "type": "uint256"
        }
      ],
      "name": "MaxCommissionRateUpdated",
      "type": "event"
    },
    {
      "anonymous": false,
      "inputs": [
        {
          "indexed": false,
          "internalType": "address",
          "name": "metaTransactionProcessor",
          "type": "address"
        },
        {
          "indexed": false,
          "internalType": "bool",
          "name": "enabled",
          "type": "bool"
        }
      ],
      "name": "MetaTransactionProcessor",
      "type": "event"
    },
    {
      "anonymous": false,
      "inputs": [
        {
          "indexed": true,
          "internalType": "address",
          "name": "newWallet",
          "type": "address"
        }
      ],
      "name": "NewReceivingWallet",
      "type": "event"
    },
    {
      "anonymous": false,
      "inputs": [
        {
          "indexed": true,
          "internalType": "address",
          "name": "referrer",
          "type": "address"
        },
        {
          "indexed": true,
          "internalType": "address",
          "name": "referee",
          "type": "address"
        },
        {
          "indexed": true,
          "internalType": "address",
          "name": "token",
          "type": "address"
        },
        {
          "indexed": false,
          "internalType": "uint256",
          "name": "amount",
          "type": "uint256"
        },
        {
          "indexed": false,
          "internalType": "uint256",
          "name": "commission",
          "type": "uint256"
        },
        {
          "indexed": false,
          "internalType": "uint256",
          "name": "commissionRate",
          "type": "uint256"
        }
      ],
      "name": "ReferralUsed",
      "type": "event"
    },
    {
      "anonymous": false,
      "inputs": [
        {
          "indexed": true,
          "internalType": "address",
          "name": "newSigningWallet",
          "type": "address"
        }
      ],
      "name": "SigningWalletUpdated",
      "type": "event"
    },
    {
      "inputs": [
        {
          "internalType": "address",
          "name": "buyer",
          "type": "address"
        },
        {
          "internalType": "address",
          "name": "to",
          "type": "address"
        },
        {
          "internalType": "address",
          "name": "reserved",
          "type": "address"
        },
        {
          "internalType": "uint256[]",
          "name": "info",
          "type": "uint256[]"
        },
        {
          "internalType": "bytes32",
          "name": "salt",
          "type": "bytes32"
        },
        {
          "internalType": "uint256[]",
          "name": "assetIds",
          "type": "uint256[]"
        },
        {
          "internalType": "bytes32[]",
          "name": "proof",
          "type": "bytes32[]"
        },
        {
          "internalType": "bytes",
          "name": "referral",
          "type": "bytes"
        },
        {
          "internalType": "bytes",
          "name": "signature",
          "type": "bytes"
        }
      ],
      "name": "buyLandWithSand",
      "outputs": [],
      "stateMutability": "nonpayable",
      "type": "function"
    },
    {
      "inputs": [
        {
          "internalType": "address",
          "name": "newAdmin",
          "type": "address"
        }
      ],
      "name": "changeAdmin",
      "outputs": [],
      "stateMutability": "nonpayable",
      "type": "function"
    },
    {
      "inputs": [
        {
          "internalType": "bytes",
          "name": "referral",
          "type": "bytes"
        }
      ],
      "name": "decodeReferral",
      "outputs": [
        {
          "internalType": "bytes",
          "name": "",
          "type": "bytes"
        },
        {
          "internalType": "address",
          "name": "",
          "type": "address"
        },
        {
          "internalType": "address",
          "name": "",
          "type": "address"
        },
        {
          "internalType": "uint256",
          "name": "",
          "type": "uint256"
        },
        {
          "internalType": "uint256",
          "name": "",
          "type": "uint256"
        }
      ],
      "stateMutability": "pure",
      "type": "function"
    },
    {
      "inputs": [
        {
          "internalType": "address",
          "name": "disableWallet",
          "type": "address"
        }
      ],
      "name": "disablePreviousSigningWallet",
      "outputs": [],
      "stateMutability": "nonpayable",
      "type": "function"
    },
    {
      "inputs": [],
      "name": "getAdmin",
      "outputs": [
        {
          "internalType": "address",
          "name": "",
          "type": "address"
        }
      ],
      "stateMutability": "view",
      "type": "function"
    },
    {
      "inputs": [],
      "name": "getExpiryTime",
      "outputs": [
        {
          "internalType": "uint256",
          "name": "",
          "type": "uint256"
        }
      ],
      "stateMutability": "view",
      "type": "function"
    },
    {
      "inputs": [],
      "name": "getMaxCommissionRate",
      "outputs": [
        {
          "internalType": "uint256",
          "name": "",
          "type": "uint256"
        }
      ],
      "stateMutability": "view",
      "type": "function"
    },
    {
      "inputs": [],
      "name": "getMerkleRoot",
      "outputs": [
        {
          "internalType": "bytes32",
          "name": "",
          "type": "bytes32"
        }
      ],
      "stateMutability": "view",
      "type": "function"
    },
    {
      "inputs": [],
      "name": "getSigningWallet",
      "outputs": [
        {
          "internalType": "address",
          "name": "",
          "type": "address"
        }
      ],
      "stateMutability": "view",
      "type": "function"
    },
    {
      "inputs": [
        {
          "internalType": "address",
          "name": "who",
          "type": "address"
        }
      ],
      "name": "isMetaTransactionProcessor",
      "outputs": [
        {
          "internalType": "bool",
          "name": "",
          "type": "bool"
        }
      ],
      "stateMutability": "view",
      "type": "function"
    },
    {
      "inputs": [
        {
          "internalType": "bytes",
          "name": "signature",
          "type": "bytes"
        },
        {
          "internalType": "address",
          "name": "referrer",
          "type": "address"
        },
        {
          "internalType": "address",
          "name": "referee",
          "type": "address"
        },
        {
          "internalType": "uint256",
          "name": "expiryTime",
          "type": "uint256"
        },
        {
          "internalType": "uint256",
          "name": "commissionRate",
          "type": "uint256"
        }
      ],
      "name": "isReferralValid",
      "outputs": [
        {
          "internalType": "bool",
          "name": "",
          "type": "bool"
        }
      ],
      "stateMutability": "view",
      "type": "function"
    },
    {
      "inputs": [
        {
          "internalType": "address",
          "name": "",
          "type": "address"
        },
        {
          "internalType": "address",
          "name": "",
          "type": "address"
        },
        {
          "internalType": "uint256[]",
          "name": "",
          "type": "uint256[]"
        },
        {
          "internalType": "uint256[]",
          "name": "",
          "type": "uint256[]"
        },
        {
          "internalType": "bytes",
          "name": "",
          "type": "bytes"
        }
      ],
      "name": "onERC1155BatchReceived",
      "outputs": [
        {
          "internalType": "bytes4",
          "name": "",
          "type": "bytes4"
        }
      ],
      "stateMutability": "pure",
      "type": "function"
    },
    {
      "inputs": [
        {
          "internalType": "address",
          "name": "",
          "type": "address"
        },
        {
          "internalType": "address",
          "name": "",
          "type": "address"
        },
        {
          "internalType": "uint256",
          "name": "",
          "type": "uint256"
        },
        {
          "internalType": "uint256",
          "name": "",
          "type": "uint256"
        },
        {
          "internalType": "bytes",
          "name": "",
          "type": "bytes"
        }
      ],
      "name": "onERC1155Received",
      "outputs": [
        {
          "internalType": "bytes4",
          "name": "",
          "type": "bytes4"
        }
      ],
      "stateMutability": "pure",
      "type": "function"
    },
    {
      "inputs": [
        {
          "internalType": "address",
          "name": "metaTransactionProcessor",
          "type": "address"
        },
        {
          "internalType": "bool",
          "name": "enabled",
          "type": "bool"
        }
      ],
      "name": "setMetaTransactionProcessor",
      "outputs": [],
      "stateMutability": "nonpayable",
      "type": "function"
    },
    {
      "inputs": [
        {
          "internalType": "address payable",
          "name": "newWallet",
          "type": "address"
        }
      ],
      "name": "setReceivingWallet",
      "outputs": [],
      "stateMutability": "nonpayable",
      "type": "function"
    },
    {
      "inputs": [
        {
          "internalType": "uint256",
          "name": "newMaxCommissionRate",
          "type": "uint256"
        }
      ],
      "name": "updateMaxCommissionRate",
      "outputs": [],
      "stateMutability": "nonpayable",
      "type": "function"
    },
    {
      "inputs": [
        {
          "internalType": "address",
          "name": "newSigningWallet",
          "type": "address"
        }
      ],
      "name": "updateSigningWallet",
      "outputs": [],
      "stateMutability": "nonpayable",
      "type": "function"
    },
    {
      "inputs": [
        {
          "internalType": "address",
          "name": "to",
          "type": "address"
        },
        {
          "internalType": "uint256[]",
          "name": "assetIds",
          "type": "uint256[]"
        },
        {
          "internalType": "uint256[]",
          "name": "values",
          "type": "uint256[]"
        }
      ],
      "name": "withdrawAssets",
      "outputs": [],
      "stateMutability": "nonpayable",
      "type": "function"
    }
  ],
  "transactionHash": "0x098f227c31dc3785ed6246c00052a3ebe032756233109620c066ee77a1498b89",
  "args": [
    "0x9d305a42A3975Ee4c1C57555BeD5919889DCE63F",
    "0xBbba073C31bF03b8ACf7c28EF0738DeCF3695683",
    "0xBbba073C31bF03b8ACf7c28EF0738DeCF3695683",
    "0xfD30a48Bc6c56E24B0ebF1B0117d750e2CFf7531",
    "0x1b47567CBE36e63293A7A2018F79687f942aB24C",
    "0x9192eb0db350115d6280e2ca1a2fbbb4f243451b44dd312f384e490c53f9e860",
    1677589200,
    "0x3044719d139F866a44c988823513eCB93060bF1b",
    2000,
    "0x0000000000000000000000000000000000000000",
    "0xd19cc137bb848d3a48ad8ad883886b67c26761dc",
    "0x42a4a3795446A4c070565da201c6303fC78a2569",
    "0x7804fb2AF15bB1323795A888B09913cEf629Ffda"
  ],
  "numDeployments": 1,
  "linkedData": [
    {
      "x": 186,
      "y": 309,
      "size": 1,
      "price": "4683000000000000000000",
      "reserved": "",
      "salt": "0x918cf7e5a8fde27ce0c65bd240f962bf5631b57b2642f61b4a0278b54c520142",
      "assetIds": []
    },
    {
      "x": 187,
      "y": 309,
      "size": 1,
      "price": "4683000000000000000000",
      "reserved": "",
      "salt": "0x1266b733c3a8bbfbb8bfe115287dd836b83b4fb166240e965e42dd503bd88b89",
      "assetIds": []
    },
    {
      "x": 188,
      "y": 309,
      "size": 1,
      "price": "4683000000000000000000",
      "reserved": "",
      "salt": "0xcb8a5d26c3cfe45d03675758b3d84c6106cca77cddbf9b53840469ba20dd1940",
      "assetIds": []
    },
    {
      "x": 189,
      "y": 308,
      "size": 1,
      "price": "4683000000000000000000",
      "reserved": "",
      "salt": "0x7267f78a170989c461cfe5f6ea324a69c271a2178e8b163dbbbdf33753cece70",
      "assetIds": []
    },
    {
      "x": 189,
      "y": 306,
      "size": 1,
      "price": "4683000000000000000000",
      "reserved": "",
      "salt": "0xa695a76347f6fff6a6492475a3fe4402221e8fd462eeebd54f34dbbd8cbf97c1",
      "assetIds": []
    },
    {
      "x": 188,
      "y": 305,
      "size": 1,
      "price": "4683000000000000000000",
      "reserved": "",
      "salt": "0x4cb28069861b23582b47a085418a6881354f290e415ee4f057bc1bc23279dc14",
      "assetIds": []
    },
    {
      "x": 187,
      "y": 305,
      "size": 1,
      "price": "4683000000000000000000",
      "reserved": "",
      "salt": "0xd4f0c1fe87cccbedb985cead4edf45c5ded6a396c927f17f1f767f6edcbf1ee9",
      "assetIds": []
    },
    {
      "x": 186,
      "y": 305,
      "size": 1,
      "price": "4683000000000000000000",
      "reserved": "",
      "salt": "0x5dedc8c46d831427fc31411ae3f29f4843f34d425e1285a82dfa3f246ed5f036",
      "assetIds": []
    },
    {
      "x": 181,
      "y": 300,
      "size": 1,
      "price": "4683000000000000000000",
      "reserved": "",
      "salt": "0x9f84352bb84d453d69d7c7b243d92d72e0eed37ffdafbcd72c67c3b49843b644",
      "assetIds": []
    },
    {
      "x": 182,
      "y": 300,
      "size": 1,
      "price": "4683000000000000000000",
      "reserved": "",
      "salt": "0x29b42a82d2581cd74d61537571719d6941ec1048d514d072fd4c8f80538c37dd",
      "assetIds": []
    },
    {
      "x": 184,
      "y": 300,
      "size": 1,
      "price": "4683000000000000000000",
      "reserved": "",
      "salt": "0x890ba0fe43fab35ca07776e79af28961eb798089556cbcc1f4a245aa0551fad6",
      "assetIds": []
    },
    {
      "x": 185,
      "y": 300,
      "size": 1,
      "price": "4683000000000000000000",
      "reserved": "",
      "salt": "0x5b01043f23251e99e6bcdb3ee53d3eb38421b0454e9b33abbd8cc2f5e8dad3f0",
      "assetIds": []
    },
    {
      "x": 187,
      "y": 300,
      "size": 1,
      "price": "4683000000000000000000",
      "reserved": "",
      "salt": "0x088c4ee3c0069b894e33fa89bddcf42b635159541b76ec924226ced8a0462a22",
      "assetIds": []
    },
    {
      "x": 188,
      "y": 300,
      "size": 1,
      "price": "4683000000000000000000",
      "reserved": "",
      "salt": "0x71866935481b73e7ffd3b47475fc099ef324d6b785b98dfcc146c1315e837731",
      "assetIds": []
    },
    {
      "x": 192,
      "y": 299,
      "size": 1,
      "price": "4683000000000000000000",
      "reserved": "",
      "salt": "0x3821ea8058f418ba75c8398b7d67a81cef22be4fd9fedecdee96d9f43ddf76aa",
      "assetIds": []
    },
    {
      "x": 192,
      "y": 297,
      "size": 1,
      "price": "4683000000000000000000",
      "reserved": "",
      "salt": "0x85537a1a0b6e93c8e96884bb02c9e11f2485e0fa10265b138711fd5d4b99a9c4",
      "assetIds": []
    },
    {
      "x": 192,
      "y": 294,
      "size": 1,
      "price": "4683000000000000000000",
      "reserved": "",
      "salt": "0xfdbdc572e070b21f404f9728442321986535e94e82efd0e1b1e4a56e23ca0ad1",
      "assetIds": []
    },
    {
      "x": 179,
      "y": 299,
      "size": 1,
      "price": "4683000000000000000000",
      "reserved": "",
      "salt": "0xe17edaa7387c509e76c12f4ce4c958542a8033a559f1770587a5ba583bf37a4a",
      "assetIds": []
    },
    {
      "x": 179,
      "y": 298,
      "size": 1,
      "price": "4683000000000000000000",
      "reserved": "",
      "salt": "0x22e907ea0489e8515a8096a74483143799f739ebf8f4426d3fc4f134a790baf2",
      "assetIds": []
    },
    {
      "x": 179,
      "y": 297,
      "size": 1,
      "price": "4683000000000000000000",
      "reserved": "",
      "salt": "0xccdde5f5b93f2fff307f999dbc66269e70e59e72ea688568c80295dfc313f876",
      "assetIds": []
    },
    {
      "x": 179,
      "y": 293,
      "size": 1,
      "price": "4683000000000000000000",
      "reserved": "",
      "salt": "0xfc5f2d0f414aa9ba510e31161b87a5394009e401c65c048f05f828325527e022",
      "assetIds": []
    },
    {
      "x": 179,
      "y": 292,
      "size": 1,
      "price": "4683000000000000000000",
      "reserved": "",
      "salt": "0xd3bda44cc9d1ca1e3302a4173c99c86c3895b38a7daf341ed0ebd0ab0a790dec",
      "assetIds": []
    },
    {
      "x": 179,
      "y": 289,
      "size": 1,
      "price": "4683000000000000000000",
      "reserved": "",
      "salt": "0x0abf57fd7f7b69fb4fcc6aa139d3a972c5ce96137f9c95e4b88417c9059cabed",
      "assetIds": []
    },
    {
      "x": 179,
      "y": 288,
      "size": 1,
      "price": "4683000000000000000000",
      "reserved": "",
      "salt": "0xdcab3e549d8c1325de6b995c1a5bf2c04bb2b4b14fe113f43cacbbccd02681f9",
      "assetIds": []
    },
    {
      "x": 174,
      "y": 279,
      "size": 1,
      "price": "4683000000000000000000",
      "reserved": "",
      "salt": "0x73894f828c0e04a46a8bef8452978a0e4b45a4be1e2776e9fbac54556f5e2cb7",
      "assetIds": []
    },
    {
      "x": 175,
      "y": 279,
      "size": 1,
      "price": "4683000000000000000000",
      "reserved": "",
      "salt": "0x2f99a0fe368a22f4dfa5c0d6455608ee521ae2d91727c26d78ec4f52e74dba10",
      "assetIds": []
    },
    {
      "x": 176,
      "y": 279,
      "size": 1,
      "price": "4683000000000000000000",
      "reserved": "",
      "salt": "0xa428f7e81b75002229dba4733f33489244e38e0dd64c299157d2d1a0011503b6",
      "assetIds": []
    },
    {
      "x": 177,
      "y": 276,
      "size": 1,
      "price": "4683000000000000000000",
      "reserved": "",
      "salt": "0x2d707d871ef98495772d1edbc39fb9ff6a4778482697bb1fd68dc33afcb5a5c9",
      "assetIds": []
    },
    {
      "x": 176,
      "y": 275,
      "size": 1,
      "price": "4683000000000000000000",
      "reserved": "",
      "salt": "0x74febe017a86e0e91ac1090143857840bd40fed01b37ee49f9e4447083cb45fa",
      "assetIds": []
    },
    {
      "x": 175,
      "y": 275,
      "size": 1,
      "price": "4683000000000000000000",
      "reserved": "",
      "salt": "0x01734bf08c2c8dd4ca0ece74e29e5ad37f77b08257af9cd11c91b8b6003ea2c9",
      "assetIds": []
    },
    {
      "x": 185,
      "y": 274,
      "size": 1,
      "price": "4683000000000000000000",
      "reserved": "",
      "salt": "0xeb034b15e8ef64840dae3b7517b94145c3a346ac9d50d6dc91013e4c470aa4cf",
      "assetIds": []
    },
    {
      "x": 185,
      "y": 275,
      "size": 1,
      "price": "4683000000000000000000",
      "reserved": "",
      "salt": "0xeb5ad46501d9d7eb044f4d9a131aba81aec62eab2235347818698c7b3e8080c1",
      "assetIds": []
    },
    {
      "x": 186,
      "y": 276,
      "size": 1,
      "price": "4683000000000000000000",
      "reserved": "",
      "salt": "0xae4f426285042aaac7e40cb5e7329543b5bca3cd2dcfc23a3504e7352e5b47ea",
      "assetIds": []
    },
    {
      "x": 187,
      "y": 276,
      "size": 1,
      "price": "4683000000000000000000",
      "reserved": "",
      "salt": "0x9c5dfb870ea49644ece9d7c0f634bee31cfffc67f963a537f7edeeab299c9fd5",
      "assetIds": []
    },
    {
      "x": 188,
      "y": 276,
      "size": 1,
      "price": "4683000000000000000000",
      "reserved": "",
      "salt": "0x1d513892cd1b4d7edd6f78a82b5bdcc1d97b66b4239852a3e4500a0796a5303e",
      "assetIds": []
    },
    {
      "x": 190,
      "y": 276,
      "size": 1,
      "price": "4683000000000000000000",
      "reserved": "",
      "salt": "0xd2d13d12969e4ae8dc20b1b9b5393e4629740a4068cccb0c387d1064e052aa95",
      "assetIds": []
    },
    {
      "x": 191,
      "y": 276,
      "size": 1,
      "price": "4683000000000000000000",
      "reserved": "",
      "salt": "0xdde73c4452338a46201ff0a54a04e09c6aca6b0fa43ea54054aeab60ac5ec661",
      "assetIds": []
    },
    {
      "x": 192,
      "y": 272,
      "size": 1,
      "price": "4683000000000000000000",
      "reserved": "",
      "salt": "0x5af4f9252fc033071f01c81c7bad9c4fe1778801de2f10752aeb3d2e1118fb5a",
      "assetIds": []
    },
    {
      "x": 192,
      "y": 271,
      "size": 1,
      "price": "4683000000000000000000",
      "reserved": "",
      "salt": "0x484730cd4ab3106c3dfe59a3150c627b49f868ec100e60a1577417545aecd276",
      "assetIds": []
    },
    {
      "x": 192,
      "y": 270,
      "size": 1,
      "price": "4683000000000000000000",
      "reserved": "",
      "salt": "0x9a6e0f533f42752f294545885ba06c2b99a1a5f51a2767753a98def79602eb0e",
      "assetIds": []
    },
    {
      "x": 191,
      "y": 269,
      "size": 1,
      "price": "4683000000000000000000",
      "reserved": "",
      "salt": "0x60e9e2e0c604529147988e19b19c27853068a1cb452ab1ad47e720b05a6bdd16",
      "assetIds": []
    },
    {
      "x": 190,
      "y": 269,
      "size": 1,
      "price": "4683000000000000000000",
      "reserved": "",
      "salt": "0x597cd58c9d26957084bf610a732e77004b1f07b462edf34b806d2cfc4973da85",
      "assetIds": []
    },
    {
      "x": 189,
      "y": 269,
      "size": 1,
      "price": "4683000000000000000000",
      "reserved": "",
      "salt": "0xf519cccfc5c5d4c7bf611406bdcc0c343cb837ad59a53a229bae940d968b585b",
      "assetIds": []
    },
    {
      "x": 187,
      "y": 269,
      "size": 1,
      "price": "4683000000000000000000",
      "reserved": "",
      "salt": "0xa34de2e0df3196c2e106cddcf2d36e379c175f814bd848f73c3695658d2dd047",
      "assetIds": []
    },
    {
      "x": 186,
      "y": 269,
      "size": 1,
      "price": "4683000000000000000000",
      "reserved": "",
      "salt": "0x8a2db02113ab1d2727260650efeaf2a54889cf3b77916cc887d8d2d0a07c3e51",
      "assetIds": []
    },
    {
      "x": 185,
      "y": 309,
      "size": 1,
      "price": "1011000000000000000000",
      "reserved": "0x7a9fe22691c811ea339d9b73150e6911a5343dca",
      "salt": "0x6bc084997598b8f4b44b157d80795dc1695bde9d56e2cf98203aada5fff9d755",
      "assetIds": []
    },
    {
      "x": 176,
      "y": 306,
      "size": 1,
      "price": "1011000000000000000000",
      "reserved": "0x7a9fe22691c811ea339d9b73150e6911a5343dca",
      "salt": "0x4b58679e6e7950f89c94fcabab1a105b4a5f58e1ada3572d960481bd5b5da8d8",
      "assetIds": []
    },
    {
      "x": 191,
      "y": 306,
      "size": 1,
      "price": "1011000000000000000000",
      "reserved": "0x7a9fe22691c811ea339d9b73150e6911a5343dca",
      "salt": "0xea6b40768af1d2e6e61369175414c242f6ca3a0e7c1fe4cc8463e0c6538b94b2",
      "assetIds": []
    },
    {
      "x": 187,
      "y": 303,
      "size": 1,
      "price": "1011000000000000000000",
      "reserved": "0x7a9fe22691c811ea339d9b73150e6911a5343dca",
      "salt": "0x066864e1e97fecb695dd41ee7eb30de0716c039983f24772399ef38d02fa04eb",
      "assetIds": []
    },
    {
      "x": 174,
      "y": 300,
      "size": 1,
      "price": "1011000000000000000000",
      "reserved": "0x7a9fe22691c811ea339d9b73150e6911a5343dca",
      "salt": "0xe751a56f2fcef47ef9a2f8402425f7a9e106f74ddeab72fb94e0248891c2b7f3",
      "assetIds": []
    },
    {
      "x": 180,
      "y": 300,
      "size": 1,
      "price": "1011000000000000000000",
      "reserved": "0x7a9fe22691c811ea339d9b73150e6911a5343dca",
      "salt": "0x6803bc27fc7cc1a8292e4fa5f864b0895908fd430f49ca15b66d0c0bb52db0d2",
      "assetIds": []
    },
    {
      "x": 192,
      "y": 298,
      "size": 1,
      "price": "1011000000000000000000",
      "reserved": "0x7a9fe22691c811ea339d9b73150e6911a5343dca",
      "salt": "0x93b0394ac9b69151a3ec5fc8125ad751e4fb2969706445ba3976aed6e9bfa33e",
      "assetIds": []
    },
    {
      "x": 195,
      "y": 297,
      "size": 1,
      "price": "1011000000000000000000",
      "reserved": "0x7a9fe22691c811ea339d9b73150e6911a5343dca",
      "salt": "0xed9dc2bb568e83603be1db1f9ecf4d20bde87ba8e107abc926b9d22e1abb4c23",
      "assetIds": []
    },
    {
      "x": 179,
      "y": 290,
      "size": 1,
      "price": "1011000000000000000000",
      "reserved": "0x7a9fe22691c811ea339d9b73150e6911a5343dca",
      "salt": "0x83e25de7331a83e080b3a7bcc7ab7d92995fb699c5c06c21e5478bc49c6a897a",
      "assetIds": []
    },
    {
      "x": 193,
      "y": 287,
      "size": 1,
      "price": "1011000000000000000000",
      "reserved": "0x7a9fe22691c811ea339d9b73150e6911a5343dca",
      "salt": "0xaaac9378f7d5d93e9ef953bee736bd15251b4efaf96f59ab33d33cc96d6d8cd1",
      "assetIds": []
    },
    {
      "x": 179,
      "y": 281,
      "size": 1,
      "price": "1011000000000000000000",
      "reserved": "0x7a9fe22691c811ea339d9b73150e6911a5343dca",
      "salt": "0x4afe9b5119c74be9adc4906ed328eb86e94d581bd9f420fc1a40b45bdd839eec",
      "assetIds": []
    },
    {
      "x": 180,
      "y": 278,
      "size": 1,
      "price": "1011000000000000000000",
      "reserved": "0x7a9fe22691c811ea339d9b73150e6911a5343dca",
      "salt": "0xad7247be13c3711985dfa5664f3028f44558e77993528096d1edc0618a38c6cf",
      "assetIds": []
    },
    {
      "x": 193,
      "y": 277,
      "size": 1,
      "price": "1011000000000000000000",
      "reserved": "0x7a9fe22691c811ea339d9b73150e6911a5343dca",
      "salt": "0x2ccc09d69edc862e5c818ccd76d32d53ba5cce24d8bec9a0884dfaed947d00e3",
      "assetIds": []
    },
    {
      "x": 175,
      "y": 273,
      "size": 1,
      "price": "1011000000000000000000",
      "reserved": "0x7a9fe22691c811ea339d9b73150e6911a5343dca",
      "salt": "0x4803a073ec9331f15e7ac2ec715851434e7c88002f867869026c961dd9b65d00",
      "assetIds": []
    },
    {
      "x": 196,
      "y": 272,
      "size": 1,
      "price": "1011000000000000000000",
      "reserved": "0x7a9fe22691c811ea339d9b73150e6911a5343dca",
      "salt": "0x481d4c7e7dcd93e26dbdbf7241e8d8a7d68995a6951939bf31d195c97d53bedb",
      "assetIds": []
    },
    {
      "x": 172,
      "y": 269,
      "size": 1,
      "price": "1011000000000000000000",
      "reserved": "0x7a9fe22691c811ea339d9b73150e6911a5343dca",
      "salt": "0xaa1eaa7ae0da499934b28f85b06ee88ea0822a2d2c0a076f8bd2b5ff5c9e644a",
      "assetIds": []
    },
    {
      "x": 175,
      "y": 291,
      "size": 1,
      "price": "1011000000000000000000",
      "reserved": "0x7a9fe22691c811ea339d9b73150e6911a5343dca",
      "salt": "0xb065fa0f18f40407710d464cd98f35699f5d68a0e005d149cca2668eec1cfa73",
      "assetIds": []
    },
    {
      "x": 185,
      "y": 310,
      "size": 1,
      "price": "1011000000000000000000",
      "reserved": "",
      "salt": "0xb1b42c5c9af8536dc63e2c9e3f6f0bdce1d8ff4b867fc9ef35df3675f5998767",
      "assetIds": []
    },
    {
      "x": 186,
      "y": 310,
      "size": 1,
      "price": "1011000000000000000000",
      "reserved": "",
      "salt": "0x9fbf4f92da9b428398457ee04f26581c5c3592b0c5a4740a493dfc19b47d2a07",
      "assetIds": []
    },
    {
      "x": 187,
      "y": 310,
      "size": 1,
      "price": "1011000000000000000000",
      "reserved": "",
      "salt": "0x0dc94cee0f4d61aa505ca4526e40cdce36b7b2c4ac09c5dcc18a04c37b61d8d2",
      "assetIds": []
    },
    {
      "x": 188,
      "y": 310,
      "size": 1,
      "price": "1011000000000000000000",
      "reserved": "",
      "salt": "0xef45125ac1fa5db98c9ecb34339c8d87bdf7b59d54dd04394e6bbb7739b1dfa5",
      "assetIds": []
    },
    {
      "x": 189,
      "y": 310,
      "size": 1,
      "price": "1011000000000000000000",
      "reserved": "",
      "salt": "0x1bd5c907daa62b229c769b2673f23f7bed5f62ed9549c0820b7abcae3df00077",
      "assetIds": []
    },
    {
      "x": 190,
      "y": 310,
      "size": 1,
      "price": "1011000000000000000000",
      "reserved": "",
      "salt": "0x2e8734360813f4fa8fc627c483a4c003def4aa7c63234298beb92c53d904523f",
      "assetIds": []
    },
    {
      "x": 191,
      "y": 310,
      "size": 1,
      "price": "1011000000000000000000",
      "reserved": "",
      "salt": "0xf06215d2eff0a1c27ed531a2c6baf81dbfa7d55f7f5e1795b34b82da93ccb401",
      "assetIds": []
    },
    {
      "x": 190,
      "y": 309,
      "size": 1,
      "price": "1011000000000000000000",
      "reserved": "",
      "salt": "0x5bc428a780d0a924983627cee8fbf44902390ddce07768e07efe78e346441731",
      "assetIds": []
    },
    {
      "x": 190,
      "y": 308,
      "size": 1,
      "price": "1011000000000000000000",
      "reserved": "",
      "salt": "0x8227370abd393fc3fcda3e17f3a2b5d9fcd911d5017a09afe005bbeb89629fe6",
      "assetIds": []
    },
    {
      "x": 190,
      "y": 307,
      "size": 1,
      "price": "1011000000000000000000",
      "reserved": "",
      "salt": "0xbdcec6ee7045a9ea21091cb2476c40d838abd3ce53740d2719799e7c90aca777",
      "assetIds": []
    },
    {
      "x": 189,
      "y": 307,
      "size": 1,
      "price": "1011000000000000000000",
      "reserved": "",
      "salt": "0x0dd4b1b740ad664b6539364195f5c635953fc355a99b2d0c7c87dc9c3f18ab1e",
      "assetIds": []
    },
    {
      "x": 191,
      "y": 307,
      "size": 1,
      "price": "1011000000000000000000",
      "reserved": "",
      "salt": "0xc504379c3c06b3c7d2df30f33a181ad6a550d1167f54d189120264a8d30bd1d2",
      "assetIds": []
    },
    {
      "x": 191,
      "y": 308,
      "size": 1,
      "price": "1011000000000000000000",
      "reserved": "",
      "salt": "0x866da25d2738c5cf5e640275a076210792fd47bdd154ae770b6449cdd5d89272",
      "assetIds": []
    },
    {
      "x": 174,
      "y": 309,
      "size": 1,
      "price": "1011000000000000000000",
      "reserved": "",
      "salt": "0xc1bffccf9088cf5148f9fcd5723edfe98cc2c60129ece676d166c46090dafb74",
      "assetIds": []
    },
    {
      "x": 175,
      "y": 309,
      "size": 1,
      "price": "1011000000000000000000",
      "reserved": "",
      "salt": "0xca36d56452421a0e56dcedc327d54f13acd66a12845c434d18efc274e7613d9d",
      "assetIds": []
    },
    {
      "x": 176,
      "y": 309,
      "size": 1,
      "price": "1011000000000000000000",
      "reserved": "",
      "salt": "0x11ca1c33fa24314f0070f9f09888d5d1f545111f68881d8fae862682cf2734be",
      "assetIds": []
    },
    {
      "x": 177,
      "y": 309,
      "size": 1,
      "price": "1011000000000000000000",
      "reserved": "",
      "salt": "0x184b1062bc7b5d9d852c37e3653dd496c182f3472d7e76a62f3b7eac2ec68a2e",
      "assetIds": []
    },
    {
      "x": 179,
      "y": 309,
      "size": 1,
      "price": "1011000000000000000000",
      "reserved": "",
      "salt": "0xab5bf7ba7acdc11b7fd5645251f120e7711a726fb691451557312f3dce7efadc",
      "assetIds": []
    },
    {
      "x": 180,
      "y": 309,
      "size": 1,
      "price": "1011000000000000000000",
      "reserved": "",
      "salt": "0x6f67e626579ab09237e8999aaf149253f1d115c2f7026825f4d1109a80c734b5",
      "assetIds": []
    },
    {
      "x": 181,
      "y": 309,
      "size": 1,
      "price": "1011000000000000000000",
      "reserved": "",
      "salt": "0x9e1eb1e92baf726954674db9ea0034b2360ecf60bcf137fc2076aa9557e0fd95",
      "assetIds": []
    },
    {
      "x": 182,
      "y": 309,
      "size": 1,
      "price": "1011000000000000000000",
      "reserved": "",
      "salt": "0x9e73ea878ef8569279a4d9cd177334ac46b7ebf2e1da565b2e6a9697d091b1ba",
      "assetIds": []
    },
    {
      "x": 183,
      "y": 309,
      "size": 1,
      "price": "1011000000000000000000",
      "reserved": "",
      "salt": "0xf65e4c12df4f3a17a0e94e846fa9e74541832152920411ba4e9bae83905db5b4",
      "assetIds": []
    },
    {
      "x": 184,
      "y": 309,
      "size": 1,
      "price": "1011000000000000000000",
      "reserved": "",
      "salt": "0xb3a5d3b3db5236c1de0ef54db637a8d44fb2f4e4df198ca16cec482c054c594a",
      "assetIds": []
    },
    {
      "x": 182,
      "y": 308,
      "size": 1,
      "price": "1011000000000000000000",
      "reserved": "",
      "salt": "0x2e267a31e72b22668828f502592d8625d6107a4aaf106424597471553812be63",
      "assetIds": []
    },
    {
      "x": 182,
      "y": 307,
      "size": 1,
      "price": "1011000000000000000000",
      "reserved": "",
      "salt": "0x7aae88041a6b51b08a687c8079a64f2b061fb81b592d739aab3bca6472953fd3",
      "assetIds": []
    },
    {
      "x": 182,
      "y": 306,
      "size": 1,
      "price": "1011000000000000000000",
      "reserved": "",
      "salt": "0x8d2091a890f5677387584140c3bf579e8a6f4e6612932b0732aa9c8055b7330e",
      "assetIds": []
    },
    {
      "x": 181,
      "y": 306,
      "size": 1,
      "price": "1011000000000000000000",
      "reserved": "",
      "salt": "0xe3dc43686f5cac9b4aa3e9ab32e9cda64b8a24368eccc5f75b6a1eb8eeb6f8dc",
      "assetIds": []
    },
    {
      "x": 180,
      "y": 306,
      "size": 1,
      "price": "1011000000000000000000",
      "reserved": "",
      "salt": "0xc69e4e42f6403a295aad27670b72f8a381b291b1dcb59e345f7f52b47191bd81",
      "assetIds": []
    },
    {
      "x": 180,
      "y": 308,
      "size": 1,
      "price": "1011000000000000000000",
      "reserved": "",
      "salt": "0x5a1ba1794bb159fcffda0f0229204224f4daa42fb81439ad4e85ff9d729fedfc",
      "assetIds": []
    },
    {
      "x": 181,
      "y": 308,
      "size": 1,
      "price": "1011000000000000000000",
      "reserved": "",
      "salt": "0xd389727dc9073a6bfe052effa74159b52e708fa7418426cb8a88c7a188c5e15b",
      "assetIds": []
    },
    {
      "x": 181,
      "y": 307,
      "size": 1,
      "price": "1011000000000000000000",
      "reserved": "",
      "salt": "0x19e3b619da49a8f26b5ea944b0791ae34a7594a5730efb372aaf761e5b0fa02e",
      "assetIds": []
    },
    {
      "x": 176,
      "y": 308,
      "size": 1,
      "price": "1011000000000000000000",
      "reserved": "",
      "salt": "0x6ce6a5d341c37901970fa1b6e2a703c376dbc6f09602f6b0e7d6ef9fc1309622",
      "assetIds": []
    },
    {
      "x": 175,
      "y": 308,
      "size": 1,
      "price": "1011000000000000000000",
      "reserved": "",
      "salt": "0x87b370cb160ef43994d6469be8708b7336ae9ad3591c07120bd8e49af7a85a19",
      "assetIds": []
    },
    {
      "x": 174,
      "y": 308,
      "size": 1,
      "price": "1011000000000000000000",
      "reserved": "",
      "salt": "0x85689e42d57c46a1d8a94f308c2a72b543ff0ed6d6b3f8943831f97c9ebc1d68",
      "assetIds": []
    },
    {
      "x": 174,
      "y": 307,
      "size": 1,
      "price": "1011000000000000000000",
      "reserved": "",
      "salt": "0xde15c030924406ba725083c815225fa4f858052297da921513248d7b786f5571",
      "assetIds": []
    },
    {
      "x": 174,
      "y": 306,
      "size": 1,
      "price": "1011000000000000000000",
      "reserved": "",
      "salt": "0x449619d420ad1466ebe290f58366a5befbb70152e2ae053c9f113631f5049bef",
      "assetIds": []
    },
    {
      "x": 174,
      "y": 305,
      "size": 1,
      "price": "1011000000000000000000",
      "reserved": "",
      "salt": "0x2925f821ab3de2802c40c8527152fb3a21da18223f70e3477c8ca33c675dd1cb",
      "assetIds": []
    },
    {
      "x": 175,
      "y": 307,
      "size": 1,
      "price": "1011000000000000000000",
      "reserved": "",
      "salt": "0x101993fd2b185045e86883ecf205a29ed64246bfd16f77907c2ee277e8b68d8d",
      "assetIds": []
    },
    {
      "x": 175,
      "y": 306,
      "size": 1,
      "price": "1011000000000000000000",
      "reserved": "",
      "salt": "0x5f6f35028727d0186db62df70d1aa795f5556c185132cdd3e6938a8ddf7dab4f",
      "assetIds": []
    },
    {
      "x": 176,
      "y": 305,
      "size": 1,
      "price": "1011000000000000000000",
      "reserved": "",
      "salt": "0xa8579c46f145e72343b6a6666fdb2b767ae232c864baa09f5f0711c0ebf5aa3c",
      "assetIds": []
    },
    {
      "x": 174,
      "y": 304,
      "size": 1,
      "price": "1011000000000000000000",
      "reserved": "",
      "salt": "0x2d3748c0b9793e4701cdba1806a259ae62658f4c0e49e80ac2ec35c16d899e11",
      "assetIds": []
    },
    {
      "x": 174,
      "y": 303,
      "size": 1,
      "price": "1011000000000000000000",
      "reserved": "",
      "salt": "0xbf4fe11f2246dea061da01dd9b6d3b132ab9de9e1b2584ebefadce0bf2043eba",
      "assetIds": []
    },
    {
      "x": 174,
      "y": 302,
      "size": 1,
      "price": "1011000000000000000000",
      "reserved": "",
      "salt": "0x4839a55b632d987b51391405f34496c483b7131f2ea66dad9d5e1a920fe82f41",
      "assetIds": []
    },
    {
      "x": 174,
      "y": 301,
      "size": 1,
      "price": "1011000000000000000000",
      "reserved": "",
      "salt": "0x8a5f6d5f3ef3ab0d9dbee71b011d656868f5d3596a4b6dbbc525dfd9114400de",
      "assetIds": []
    },
    {
      "x": 175,
      "y": 301,
      "size": 1,
      "price": "1011000000000000000000",
      "reserved": "",
      "salt": "0x1b13eddde78eb76eb6afc139feb78212ddbe8f90f44d854eaee2aa295c5352d4",
      "assetIds": []
    },
    {
      "x": 175,
      "y": 300,
      "size": 1,
      "price": "1011000000000000000000",
      "reserved": "",
      "salt": "0xf87dec34b3c564634913a7b9a7e4bfa537d3a9ce6848511053acf951e289c1f3",
      "assetIds": []
    },
    {
      "x": 177,
      "y": 300,
      "size": 1,
      "price": "1011000000000000000000",
      "reserved": "",
      "salt": "0x09c1d712c96a3b68bcf67b287daa602a6ed4fa6751aacaf5fefee0b8be8145f1",
      "assetIds": []
    },
    {
      "x": 177,
      "y": 299,
      "size": 1,
      "price": "1011000000000000000000",
      "reserved": "",
      "salt": "0x45056c7b411756bc10789704c9830f7cb5a6cefebc034ed3c16bbb937e70cee2",
      "assetIds": []
    },
    {
      "x": 177,
      "y": 298,
      "size": 1,
      "price": "1011000000000000000000",
      "reserved": "",
      "salt": "0xec57c0997921aca1d926605c73654a944b4167dde9184edf2018eb3b4e00ae20",
      "assetIds": []
    },
    {
      "x": 178,
      "y": 298,
      "size": 1,
      "price": "1011000000000000000000",
      "reserved": "",
      "salt": "0xad68f4198b9515f99a984c732dfd7bf752e639441aeab57e77d151e187c9664e",
      "assetIds": []
    },
    {
      "x": 178,
      "y": 297,
      "size": 1,
      "price": "1011000000000000000000",
      "reserved": "",
      "salt": "0xe2457bd2bc3d7dab6712148d5d143a86d8dac1b8cb74d9185892e08e7f906c81",
      "assetIds": []
    },
    {
      "x": 177,
      "y": 297,
      "size": 1,
      "price": "1011000000000000000000",
      "reserved": "",
      "salt": "0x5f0c6f08e953f2eb7c59197f652fba644bb97ea7f50719d33c7c71e1b6319804",
      "assetIds": []
    },
    {
      "x": 178,
      "y": 299,
      "size": 1,
      "price": "1011000000000000000000",
      "reserved": "",
      "salt": "0xbf3ea466f7650ba2f28e39f9f2fd58534a17031e1cfd5c67efa22c373bffd242",
      "assetIds": []
    },
    {
      "x": 178,
      "y": 300,
      "size": 1,
      "price": "1011000000000000000000",
      "reserved": "",
      "salt": "0xb786549429f67678dc364e3933362e27dbb88697c18d9a6869eff25b784d7946",
      "assetIds": []
    },
    {
      "x": 179,
      "y": 300,
      "size": 1,
      "price": "1011000000000000000000",
      "reserved": "",
      "salt": "0x47409e48fa07b02cd90b492c192fa68fe55e54c863858e5b0204b4e8d50eb1b8",
      "assetIds": []
    },
    {
      "x": 179,
      "y": 301,
      "size": 1,
      "price": "1011000000000000000000",
      "reserved": "",
      "salt": "0x3185555be326b5040b0bef0dd9452d0964c32549870ea0a66ce6a4905175f6a1",
      "assetIds": []
    },
    {
      "x": 180,
      "y": 301,
      "size": 1,
      "price": "1011000000000000000000",
      "reserved": "",
      "salt": "0x9907d3f1e1033d880e921c8be220c3f38ba77ed4e2546c7a6e29c6108b092770",
      "assetIds": []
    },
    {
      "x": 181,
      "y": 301,
      "size": 1,
      "price": "1011000000000000000000",
      "reserved": "",
      "salt": "0x310e7cf6e1b813b4624c9d81905c4bdded16534bbc04ccc197c44d4da0c2efba",
      "assetIds": []
    },
    {
      "x": 182,
      "y": 301,
      "size": 1,
      "price": "1011000000000000000000",
      "reserved": "",
      "salt": "0xcf4749724c52f615bad6bf461b0636197f89da3d07f2e12a0d6f9fa5dbd1830e",
      "assetIds": []
    },
    {
      "x": 183,
      "y": 301,
      "size": 1,
      "price": "1011000000000000000000",
      "reserved": "",
      "salt": "0x80085615c975149632f6fa5b9122ca6a01fa2aa62cb7e9bdf78dbbf19a3aa863",
      "assetIds": []
    },
    {
      "x": 183,
      "y": 300,
      "size": 1,
      "price": "1011000000000000000000",
      "reserved": "",
      "salt": "0xe6389651e0b25822e89c70c57fd43acb7d570bea1ae7a65bc0c010a250ee794b",
      "assetIds": []
    },
    {
      "x": 184,
      "y": 301,
      "size": 1,
      "price": "1011000000000000000000",
      "reserved": "",
      "salt": "0x882d49664d280c1671c810b6f0b59d702913816d410c4e2f10b2ef3452291f34",
      "assetIds": []
    },
    {
      "x": 185,
      "y": 301,
      "size": 1,
      "price": "1011000000000000000000",
      "reserved": "",
      "salt": "0xd1e16e820789cc5468ba53832bbcb4e96a3ffb2d836a6389b387b78682a39f10",
      "assetIds": []
    },
    {
      "x": 186,
      "y": 301,
      "size": 1,
      "price": "1011000000000000000000",
      "reserved": "",
      "salt": "0xee6856b4aeeec674865c5973f9f20a79b186c0e2860da126e9373b61eec9d2de",
      "assetIds": []
    },
    {
      "x": 187,
      "y": 301,
      "size": 1,
      "price": "1011000000000000000000",
      "reserved": "",
      "salt": "0x94f19b463f13d61deb9957cb5e9c541f92afe9fc56518bbfdc05a0ea1b4deb4a",
      "assetIds": []
    },
    {
      "x": 188,
      "y": 301,
      "size": 1,
      "price": "1011000000000000000000",
      "reserved": "",
      "salt": "0x29be28025ff107cdd475328f34345113fbe67c3ea474827dcf8876a17bfe03dd",
      "assetIds": []
    },
    {
      "x": 188,
      "y": 302,
      "size": 1,
      "price": "1011000000000000000000",
      "reserved": "",
      "salt": "0xac9dd919f61fc51f9bde7741cbc3d11d27ec54e5ff4ae0ddfd6817b7cd4cc988",
      "assetIds": []
    },
    {
      "x": 189,
      "y": 303,
      "size": 1,
      "price": "1011000000000000000000",
      "reserved": "",
      "salt": "0x1e4a57a17511029ce1ed18dcdba3f29145600f68be28bf794b3371f886caa918",
      "assetIds": []
    },
    {
      "x": 190,
      "y": 303,
      "size": 1,
      "price": "1011000000000000000000",
      "reserved": "",
      "salt": "0xcef40ac60b33addcc9f40e4408d05dc601a9e31c78ba39ce20d59c816139fa06",
      "assetIds": []
    },
    {
      "x": 191,
      "y": 303,
      "size": 1,
      "price": "1011000000000000000000",
      "reserved": "",
      "salt": "0xdec0d8ffe5942a4e07bc47b828067114d2cc339984ea29eff75f71e41d7eaf41",
      "assetIds": []
    },
    {
      "x": 191,
      "y": 305,
      "size": 1,
      "price": "1011000000000000000000",
      "reserved": "",
      "salt": "0xe3b578c8765023d5b4609d843ee6f6b22dbbd12955503babd280aaded92f984d",
      "assetIds": []
    },
    {
      "x": 190,
      "y": 305,
      "size": 1,
      "price": "1011000000000000000000",
      "reserved": "",
      "salt": "0x25ff898081fc668b9f6997014c05bd460f9c083eb16faeb8b7af7e92a93a820f",
      "assetIds": []
    },
    {
      "x": 190,
      "y": 306,
      "size": 1,
      "price": "1011000000000000000000",
      "reserved": "",
      "salt": "0xc3080bf3347cda3591712740334a70084aa15b817745beca9720d7b626284424",
      "assetIds": []
    },
    {
      "x": 189,
      "y": 305,
      "size": 1,
      "price": "1011000000000000000000",
      "reserved": "",
      "salt": "0xb5fa1e13035da29f7aa143596e46a6c44c1ffb892fcabd2a947cbb6fd7d3ca54",
      "assetIds": []
    },
    {
      "x": 190,
      "y": 304,
      "size": 1,
      "price": "1011000000000000000000",
      "reserved": "",
      "salt": "0x1207c5bc687c515ea91fdc36d4012b5c511163fc82036448e4075b9606f7cf90",
      "assetIds": []
    },
    {
      "x": 189,
      "y": 304,
      "size": 1,
      "price": "1011000000000000000000",
      "reserved": "",
      "salt": "0x9617cd3d9ee20af0421e1f898161f28e8e59aef07e1832e95e1923c9dffa19e9",
      "assetIds": []
    },
    {
      "x": 188,
      "y": 304,
      "size": 1,
      "price": "1011000000000000000000",
      "reserved": "",
      "salt": "0x941af03f9178e7c7b10c975f1b60939127b672230f96c98e5bbf93636255c1a4",
      "assetIds": []
    },
    {
      "x": 187,
      "y": 304,
      "size": 1,
      "price": "1011000000000000000000",
      "reserved": "",
      "salt": "0x04c01fef42d47e65d3d1375555d2843fabe4a1b64820eb21fcc8614e8b2eedaf",
      "assetIds": []
    },
    {
      "x": 186,
      "y": 304,
      "size": 1,
      "price": "1011000000000000000000",
      "reserved": "",
      "salt": "0x858acfdb72202d8f2fd1ccc8b679ec9471b32a49980ce9fb20eba13d63c5cb7f",
      "assetIds": []
    },
    {
      "x": 185,
      "y": 304,
      "size": 1,
      "price": "1011000000000000000000",
      "reserved": "",
      "salt": "0x807441e690ec85b7a57b1b034dd4bdafe58e0fedea42d18d015c5676c4297d61",
      "assetIds": []
    },
    {
      "x": 185,
      "y": 305,
      "size": 1,
      "price": "1011000000000000000000",
      "reserved": "",
      "salt": "0x636a732de67ec768ab0a295cd120b6f66529b76a7492108db8492dc6c03207bb",
      "assetIds": []
    },
    {
      "x": 184,
      "y": 305,
      "size": 1,
      "price": "1011000000000000000000",
      "reserved": "",
      "salt": "0x366ee96d344f89444939e4d5014f7fd1d3fa891980dabd332d114134f37c7315",
      "assetIds": []
    },
    {
      "x": 183,
      "y": 305,
      "size": 1,
      "price": "1011000000000000000000",
      "reserved": "",
      "salt": "0x8d6137a85ebbed377b8991f010c95cdeb21427d101269ac698d43e30277c4b75",
      "assetIds": []
    },
    {
      "x": 183,
      "y": 304,
      "size": 1,
      "price": "1011000000000000000000",
      "reserved": "",
      "salt": "0x1c8b3ea1ffad3d3f8fbf5132b043f51cc45fe5959a20208fb419d4a3b5a355d3",
      "assetIds": []
    },
    {
      "x": 184,
      "y": 304,
      "size": 1,
      "price": "1011000000000000000000",
      "reserved": "",
      "salt": "0xfb62285187e59e7e8b8f9bded9dddb5bf6b78afc834bd432fac026c2ff8fc8e3",
      "assetIds": []
    },
    {
      "x": 184,
      "y": 303,
      "size": 1,
      "price": "1011000000000000000000",
      "reserved": "",
      "salt": "0x1980700d826e40476c997e265b236cc63804c43fc8e49510b400c283fb948a77",
      "assetIds": []
    },
    {
      "x": 186,
      "y": 303,
      "size": 1,
      "price": "1011000000000000000000",
      "reserved": "",
      "salt": "0x783085c4e7f7551b3528cc757ba4d6e355daea7a523fc9e8eb70090e80594ed7",
      "assetIds": []
    },
    {
      "x": 188,
      "y": 303,
      "size": 1,
      "price": "1011000000000000000000",
      "reserved": "",
      "salt": "0xb17840ac5e5a790339eb89fd61c6f2b09558e226b46d0a8bbc67c141edbd01fd",
      "assetIds": []
    },
    {
      "x": 187,
      "y": 302,
      "size": 1,
      "price": "1011000000000000000000",
      "reserved": "",
      "salt": "0x96fc694239f36c54b8da698655aafea73195e8233efa11778bcb80757a25e094",
      "assetIds": []
    },
    {
      "x": 186,
      "y": 302,
      "size": 1,
      "price": "1011000000000000000000",
      "reserved": "",
      "salt": "0x66f9ddac1d8c41459d4a6ea276a8b1b23450edef8a054064ef5a9c2f30a37b76",
      "assetIds": []
    },
    {
      "x": 185,
      "y": 302,
      "size": 1,
      "price": "1011000000000000000000",
      "reserved": "",
      "salt": "0x8f635b1d6ab90150d8d418cee0f98a1c71a73a0c6e7372529442724dec8bf63c",
      "assetIds": []
    },
    {
      "x": 184,
      "y": 302,
      "size": 1,
      "price": "1011000000000000000000",
      "reserved": "",
      "salt": "0xd4e4386aa76eadb78cc367afec720a05b318bc74aecb89229d7a038610549a97",
      "assetIds": []
    },
    {
      "x": 183,
      "y": 302,
      "size": 1,
      "price": "1011000000000000000000",
      "reserved": "",
      "salt": "0x33d81274894e31fd325210816864e12029e285d684374093783444cdaaddb190",
      "assetIds": []
    },
    {
      "x": 182,
      "y": 302,
      "size": 1,
      "price": "1011000000000000000000",
      "reserved": "",
      "salt": "0xd27a64d7bf0e4e584b2040f107b3ac11ad3fc5ebc2ea1c112ef712f1ca7c47b1",
      "assetIds": []
    },
    {
      "x": 183,
      "y": 303,
      "size": 1,
      "price": "1011000000000000000000",
      "reserved": "",
      "salt": "0xa3f5f5acccdcb5086b796cec169efc329dd726ca940fc6c35659a18be22a25a1",
      "assetIds": []
    },
    {
      "x": 180,
      "y": 302,
      "size": 1,
      "price": "1011000000000000000000",
      "reserved": "",
      "salt": "0xcf7a29e69f1c8d3a64659da6603c8b177b82df392769d7b9761ec4d134bbb139",
      "assetIds": []
    },
    {
      "x": 179,
      "y": 302,
      "size": 1,
      "price": "1011000000000000000000",
      "reserved": "",
      "salt": "0xfa5d6426d106b93ebbe17d7525b86f08ba65eaf7662dc4aa7deac2f644517e65",
      "assetIds": []
    },
    {
      "x": 178,
      "y": 302,
      "size": 1,
      "price": "1011000000000000000000",
      "reserved": "",
      "salt": "0x8088f7e1916ac2a2317a1c66c1a26a12ab0581f9c21ffae84f83ebea21ae1176",
      "assetIds": []
    },
    {
      "x": 177,
      "y": 302,
      "size": 1,
      "price": "1011000000000000000000",
      "reserved": "",
      "salt": "0x8c5b728ef277e39db7ca7620848e9e93b5a22ececcc5abe5881348df90e50d8f",
      "assetIds": []
    },
    {
      "x": 176,
      "y": 303,
      "size": 1,
      "price": "1011000000000000000000",
      "reserved": "",
      "salt": "0x199feb43bf03fe2f715f03884c8c5da377316a8b8a7b4657c1d3d0a505d1e6b5",
      "assetIds": []
    },
    {
      "x": 176,
      "y": 304,
      "size": 1,
      "price": "1011000000000000000000",
      "reserved": "",
      "salt": "0x50efc4bf5ecdeea0619cf376886907303731b7bf6e8b01142a6e1fe5b71c0b73",
      "assetIds": []
    },
    {
      "x": 175,
      "y": 303,
      "size": 1,
      "price": "1011000000000000000000",
      "reserved": "",
      "salt": "0xd489b21c40e2fcb76e10d2dfce797b376595d956755183155442a3d44aa6538f",
      "assetIds": []
    },
    {
      "x": 175,
      "y": 302,
      "size": 1,
      "price": "1011000000000000000000",
      "reserved": "",
      "salt": "0xee5165fdba7648743579cdaf4b19d2a86d47d2c31f9160fab8a974762d48f5e2",
      "assetIds": []
    },
    {
      "x": 176,
      "y": 302,
      "size": 1,
      "price": "1011000000000000000000",
      "reserved": "",
      "salt": "0xbcf17b398d7219fb425743a3ecc4330537f6c42301d067f41defc8471b9f85b1",
      "assetIds": []
    },
    {
      "x": 176,
      "y": 301,
      "size": 1,
      "price": "1011000000000000000000",
      "reserved": "",
      "salt": "0xf818ce2ebc318edfbf0b8c3fd17312b948ced9d16bb41538fa241bc32bf389ef",
      "assetIds": []
    },
    {
      "x": 177,
      "y": 301,
      "size": 1,
      "price": "1011000000000000000000",
      "reserved": "",
      "salt": "0x442c5276ac666db6c98648f533ba105d649fbad0d78c99785bbf337e76e07bbc",
      "assetIds": []
    },
    {
      "x": 178,
      "y": 301,
      "size": 1,
      "price": "1011000000000000000000",
      "reserved": "",
      "salt": "0x76814f1094bf9890c12025d2490f29ae9ee5b4e21f3309e52a61dedaa1105628",
      "assetIds": []
    },
    {
      "x": 174,
      "y": 296,
      "size": 1,
      "price": "1011000000000000000000",
      "reserved": "",
      "salt": "0x14a056873f3e6192a4544832abb26b4b6b1d921fd00e640b2d2904a4b940a68a",
      "assetIds": []
    },
    {
      "x": 174,
      "y": 295,
      "size": 1,
      "price": "1011000000000000000000",
      "reserved": "",
      "salt": "0xf9eb9f23417fa83626ab1d0c190d123f9686695daa36598dd6dab0c1c8890de5",
      "assetIds": []
    },
    {
      "x": 174,
      "y": 294,
      "size": 1,
      "price": "1011000000000000000000",
      "reserved": "",
      "salt": "0xb2ec867510ea7a5b435f1bdb052b376d9da100dc58ab13444edd03d1459f0978",
      "assetIds": []
    },
    {
      "x": 174,
      "y": 293,
      "size": 1,
      "price": "1011000000000000000000",
      "reserved": "",
      "salt": "0xa321f0090d9a5e1bb64a81a57b93e675579edf8b1cc1b31bdc19d131f747c05f",
      "assetIds": []
    },
    {
      "x": 174,
      "y": 292,
      "size": 1,
      "price": "1011000000000000000000",
      "reserved": "",
      "salt": "0x765a61221529063add40a680e294424ee1328b767f3130a0ab3447f6a10ec209",
      "assetIds": []
    },
    {
      "x": 174,
      "y": 291,
      "size": 1,
      "price": "1011000000000000000000",
      "reserved": "",
      "salt": "0xa9a1e21c7df88988a596ddfa21af1efdca489361a8a76ec86dcdddc39deeb5e9",
      "assetIds": []
    },
    {
      "x": 174,
      "y": 290,
      "size": 1,
      "price": "1011000000000000000000",
      "reserved": "",
      "salt": "0xcfb858acfb41877be8b786bcdeb97588eadcba9ce72712af6bfee34180e0fd25",
      "assetIds": []
    },
    {
      "x": 174,
      "y": 289,
      "size": 1,
      "price": "1011000000000000000000",
      "reserved": "",
      "salt": "0x4dddb382c421199fa8d08972976466deaf621e39330e77aa4a2e3cc54e32794c",
      "assetIds": []
    },
    {
      "x": 174,
      "y": 288,
      "size": 1,
      "price": "1011000000000000000000",
      "reserved": "",
      "salt": "0xfb7e2afb7d1ca0321e574b6aaea698079a2506f04f0ee716b90577ef9de8809e",
      "assetIds": []
    },
    {
      "x": 175,
      "y": 288,
      "size": 1,
      "price": "1011000000000000000000",
      "reserved": "",
      "salt": "0xc1c1636cf8aa1510fad374b8bfbcb7663a78098abca55ca60d0051d97359e5bf",
      "assetIds": []
    },
    {
      "x": 176,
      "y": 289,
      "size": 1,
      "price": "1011000000000000000000",
      "reserved": "",
      "salt": "0xe31a2b3b53d0551c152c2a10ccf46d3feae6d3793bbb70c9289a2d370e67643e",
      "assetIds": []
    },
    {
      "x": 177,
      "y": 289,
      "size": 1,
      "price": "1011000000000000000000",
      "reserved": "",
      "salt": "0x19e8e23b63522dd6355055cc232c1e9027df4bf188b7c77b8f3f4190fd915b70",
      "assetIds": []
    },
    {
      "x": 178,
      "y": 289,
      "size": 1,
      "price": "1011000000000000000000",
      "reserved": "",
      "salt": "0xd96315fa19f355ed35910fab298404fde3898302dec780e7d207d4be3bbdc95e",
      "assetIds": []
    },
    {
      "x": 178,
      "y": 288,
      "size": 1,
      "price": "1011000000000000000000",
      "reserved": "",
      "salt": "0x445801401ecd115d79a14f2205b645d76ec1c29545fce4a18629fc44eab4f733",
      "assetIds": []
    },
    {
      "x": 178,
      "y": 291,
      "size": 1,
      "price": "1011000000000000000000",
      "reserved": "",
      "salt": "0xecd066dd0266bfccc77528875ee191b3521568f56e09b30609b8c7deb2321b52",
      "assetIds": []
    },
    {
      "x": 178,
      "y": 292,
      "size": 1,
      "price": "1011000000000000000000",
      "reserved": "",
      "salt": "0xc9f5d602d3219fa334500171f0283487e4c94146c2e6ed74ad2a6b31530d39c1",
      "assetIds": []
    },
    {
      "x": 178,
      "y": 293,
      "size": 1,
      "price": "1011000000000000000000",
      "reserved": "",
      "salt": "0x085a637b67dd2d6c77b9f60abe5696f463ec042559fc1afb4fd2a59f488fe72f",
      "assetIds": []
    },
    {
      "x": 178,
      "y": 290,
      "size": 1,
      "price": "1011000000000000000000",
      "reserved": "",
      "salt": "0x8a0782e186f6bf34d8b71f5b5630614e2b0c371f459b6b1a0b659cff0133994b",
      "assetIds": []
    },
    {
      "x": 177,
      "y": 290,
      "size": 1,
      "price": "1011000000000000000000",
      "reserved": "",
      "salt": "0x1251f6856606dddad3055ece9a54095677cfeaddee5e603e45498cb514420c71",
      "assetIds": []
    },
    {
      "x": 175,
      "y": 296,
      "size": 1,
      "price": "1011000000000000000000",
      "reserved": "",
      "salt": "0x588c9a80a915b912deb7c43b44a753f4006f4f004d0cb086c6645ebfa7559340",
      "assetIds": []
    },
    {
      "x": 175,
      "y": 295,
      "size": 1,
      "price": "1011000000000000000000",
      "reserved": "",
      "salt": "0x22ae26b09f19ca8d97f5f0e3301e0766aa926788fdb0926494c02c1d7191b19c",
      "assetIds": []
    },
    {
      "x": 175,
      "y": 294,
      "size": 1,
      "price": "1011000000000000000000",
      "reserved": "",
      "salt": "0xdf58961d0e283f1664bd10cdd888626b1610c0ccc42807d3e9ebb51330bd37bc",
      "assetIds": []
    },
    {
      "x": 175,
      "y": 293,
      "size": 1,
      "price": "1011000000000000000000",
      "reserved": "",
      "salt": "0xd2decc9c3f966787afb1e2c1a916e0bcd102ba29adbcb1092125c8bda42cfd91",
      "assetIds": []
    },
    {
      "x": 176,
      "y": 293,
      "size": 1,
      "price": "1011000000000000000000",
      "reserved": "",
      "salt": "0x7739ad6aff67596f1bcf22daa750f171c83b654a87c6deac78c7d71dcf65ef92",
      "assetIds": []
    },
    {
      "x": 176,
      "y": 292,
      "size": 1,
      "price": "1011000000000000000000",
      "reserved": "",
      "salt": "0x82f9aed912de8f9fe94a9a8d01bf10a264c0ae6d813023ef9a39dc985ced19c3",
      "assetIds": []
    },
    {
      "x": 176,
      "y": 290,
      "size": 1,
      "price": "1011000000000000000000",
      "reserved": "",
      "salt": "0x7ea98fd56f923b82efd06df09c2aebf4fdf01e7adc0a2133f35f7539ec08fcaa",
      "assetIds": []
    },
    {
      "x": 176,
      "y": 296,
      "size": 1,
      "price": "1011000000000000000000",
      "reserved": "",
      "salt": "0x3bea251c1c28038639d9c6f679793ea47a28f2a285c258ad7b2350d22829d4a3",
      "assetIds": []
    },
    {
      "x": 176,
      "y": 295,
      "size": 1,
      "price": "1011000000000000000000",
      "reserved": "",
      "salt": "0xf69a88fa8aa6a540953749aa8f1d974e70a31fcae644905db259d3ccca624b34",
      "assetIds": []
    },
    {
      "x": 176,
      "y": 294,
      "size": 1,
      "price": "1011000000000000000000",
      "reserved": "",
      "salt": "0xf6acec830ddaae5304eed3d6e1e990b4f19301f40af37674e4c0c0f335789246",
      "assetIds": []
    },
    {
      "x": 177,
      "y": 293,
      "size": 1,
      "price": "1011000000000000000000",
      "reserved": "",
      "salt": "0x8bcb780c7b7990329eea0a0b6765ad96642b047054bfd9ff08a656eeab2b9a03",
      "assetIds": []
    },
    {
      "x": 177,
      "y": 292,
      "size": 1,
      "price": "1011000000000000000000",
      "reserved": "",
      "salt": "0xebc05c5b807c78b04060902bc72bbd12c8f04965a3d8c01021a82c5d4462fc9f",
      "assetIds": []
    },
    {
      "x": 177,
      "y": 291,
      "size": 1,
      "price": "1011000000000000000000",
      "reserved": "",
      "salt": "0x33dbce85aa02c2fb3c2185bc255f604a74258c8c5cc0a4c281689706e9ecae24",
      "assetIds": []
    },
    {
      "x": 175,
      "y": 292,
      "size": 1,
      "price": "1011000000000000000000",
      "reserved": "",
      "salt": "0x321d735276da668ad3eab7e88d6fc792668a7db467cfeb9b605c655562881da3",
      "assetIds": []
    },
    {
      "x": 175,
      "y": 290,
      "size": 1,
      "price": "1011000000000000000000",
      "reserved": "",
      "salt": "0x2259393dbc56f0e63f09375b9b80802e0e1911748dff4d78b1ce23eff96d58b0",
      "assetIds": []
    },
    {
      "x": 175,
      "y": 289,
      "size": 1,
      "price": "1011000000000000000000",
      "reserved": "",
      "salt": "0x7d8617b138f02166852ed0806c2049580597764c31ae7e32f4494bc85df8660a",
      "assetIds": []
    },
    {
      "x": 197,
      "y": 299,
      "size": 1,
      "price": "1011000000000000000000",
      "reserved": "",
      "salt": "0x13ea046615453fc10c6a5940310560f12e13fb7611cb5b2f9987671fd78adfd3",
      "assetIds": []
    },
    {
      "x": 197,
      "y": 298,
      "size": 1,
      "price": "1011000000000000000000",
      "reserved": "",
      "salt": "0xf4afcad4a49b38b8a238ebee0b3c35ac2d3256f567ada2094650456b09787767",
      "assetIds": []
    },
    {
      "x": 197,
      "y": 297,
      "size": 1,
      "price": "1011000000000000000000",
      "reserved": "",
      "salt": "0x132feec376be7d5619938107eef659b8ed09e905bc39c568142918dced7981f7",
      "assetIds": []
    },
    {
      "x": 197,
      "y": 296,
      "size": 1,
      "price": "1011000000000000000000",
      "reserved": "",
      "salt": "0xe0376dd7374a609d7e31fe597f2263cf9088c441d98f956a365cd9b718e15b70",
      "assetIds": []
    },
    {
      "x": 197,
      "y": 295,
      "size": 1,
      "price": "1011000000000000000000",
      "reserved": "",
      "salt": "0x9093e65afd968b8901659d0f2ad70a5ec5a6a6ceece9e1d0e0d4c214354e6737",
      "assetIds": []
    },
    {
      "x": 197,
      "y": 294,
      "size": 1,
      "price": "1011000000000000000000",
      "reserved": "",
      "salt": "0x2deca35580482b2a7b65eb9cfe17bf904aee20ffa01cb065af1d907035f59923",
      "assetIds": []
    },
    {
      "x": 197,
      "y": 293,
      "size": 1,
      "price": "1011000000000000000000",
      "reserved": "",
      "salt": "0xf62a72b8d172f5c1eaf83081801d74731789c177d11c32bfd1e9ee995dfe6a3b",
      "assetIds": []
    },
    {
      "x": 197,
      "y": 292,
      "size": 1,
      "price": "1011000000000000000000",
      "reserved": "",
      "salt": "0x242d489fde9a97ce9f8ad6853a4469f32d19558d0301d69098326aebf284e10c",
      "assetIds": []
    },
    {
      "x": 197,
      "y": 291,
      "size": 1,
      "price": "1011000000000000000000",
      "reserved": "",
      "salt": "0xb30f54c755165a2c71a87555cda1d4baab65b59e79d59b9a529badf41cc3ecc6",
      "assetIds": []
    },
    {
      "x": 196,
      "y": 291,
      "size": 1,
      "price": "1011000000000000000000",
      "reserved": "",
      "salt": "0x11f54054be3650ac095973274b3595c3e7b563f5e66a4a771c8c9c1c55fc9a7f",
      "assetIds": []
    },
    {
      "x": 196,
      "y": 292,
      "size": 1,
      "price": "1011000000000000000000",
      "reserved": "",
      "salt": "0x2efc64862f1b4b919cf6ff9131cf3a1ad767b03287a32da3ed6380b006bfcd1d",
      "assetIds": []
    },
    {
      "x": 195,
      "y": 292,
      "size": 1,
      "price": "1011000000000000000000",
      "reserved": "",
      "salt": "0x68a7366ddabdfccf3135d421a4ec060df2c2541eedd8acb805c4c838e6384517",
      "assetIds": []
    },
    {
      "x": 195,
      "y": 291,
      "size": 1,
      "price": "1011000000000000000000",
      "reserved": "",
      "salt": "0x3d34f16cbcc60d1c4a056f68af3a79c8591b55a1503b19b982be09062e64cd3b",
      "assetIds": []
    },
    {
      "x": 195,
      "y": 293,
      "size": 1,
      "price": "1011000000000000000000",
      "reserved": "",
      "salt": "0xa7362f8d35a14bb3ee693b1160a908a6b888813b219da262261de483f81c295e",
      "assetIds": []
    },
    {
      "x": 195,
      "y": 294,
      "size": 1,
      "price": "1011000000000000000000",
      "reserved": "",
      "salt": "0xb1b1621f675e655ae3573cbd583ce737dbfa45832291a2225d76f6cda074e3d1",
      "assetIds": []
    },
    {
      "x": 195,
      "y": 295,
      "size": 1,
      "price": "1011000000000000000000",
      "reserved": "",
      "salt": "0xa87665bac6fbbb51e65613c1d307b2e50f40e1f431f5a23531d2fd3c11d96fe8",
      "assetIds": []
    },
    {
      "x": 195,
      "y": 296,
      "size": 1,
      "price": "1011000000000000000000",
      "reserved": "",
      "salt": "0xca6864c04a8cf49e596c1e3570caff729cb712975bdcc37371da19473750572b",
      "assetIds": []
    },
    {
      "x": 195,
      "y": 298,
      "size": 1,
      "price": "1011000000000000000000",
      "reserved": "",
      "salt": "0x318be8323903456e18103241fe3bcc3c51e526cbba10a03d35f5f6adbed440f3",
      "assetIds": []
    },
    {
      "x": 196,
      "y": 299,
      "size": 1,
      "price": "1011000000000000000000",
      "reserved": "",
      "salt": "0x7052cfac5471a3720c65ee88b3a117644559a56e416ab86465498f5d1bc3dea0",
      "assetIds": []
    },
    {
      "x": 196,
      "y": 298,
      "size": 1,
      "price": "1011000000000000000000",
      "reserved": "",
      "salt": "0xb17c6ba84deb8148e34788fc076e1ff19729c784eb1c3261f9fe830903fcd9ab",
      "assetIds": []
    },
    {
      "x": 196,
      "y": 297,
      "size": 1,
      "price": "1011000000000000000000",
      "reserved": "",
      "salt": "0x9d848b53e912cd8fb12ef775818713144c3de552ab4a2a5c928a1b9e61f35d0f",
      "assetIds": []
    },
    {
      "x": 196,
      "y": 294,
      "size": 1,
      "price": "1011000000000000000000",
      "reserved": "",
      "salt": "0x815ec23f99692715648401d48ecf66bee9e03993f650d365ce7c24d20a82178e",
      "assetIds": []
    },
    {
      "x": 196,
      "y": 295,
      "size": 1,
      "price": "1011000000000000000000",
      "reserved": "",
      "salt": "0xfb802098e8fd6df6b7e9a98bb97eeedaaa50d34a4c00af95f16473ef0d5508ad",
      "assetIds": []
    },
    {
      "x": 196,
      "y": 296,
      "size": 1,
      "price": "1011000000000000000000",
      "reserved": "",
      "salt": "0xb785316fe6a52962fbb279b626ff7095b0ed2ce1a40ad5c5da70d419af8c1196",
      "assetIds": []
    },
    {
      "x": 194,
      "y": 299,
      "size": 1,
      "price": "1011000000000000000000",
      "reserved": "",
      "salt": "0xd47cdbfeb232f4a0e158d6e08a8ad863ab3bd8b4fc4b51dda43a3da05f95cb18",
      "assetIds": []
    },
    {
      "x": 193,
      "y": 299,
      "size": 1,
      "price": "1011000000000000000000",
      "reserved": "",
      "salt": "0xf2eab97987ffec8078c307fc48b8fa0e6b83610a2872fc0be57ef96daa441391",
      "assetIds": []
    },
    {
      "x": 193,
      "y": 298,
      "size": 1,
      "price": "1011000000000000000000",
      "reserved": "",
      "salt": "0xe8ada7ebfbc317e54474153fd2ae7e05a07ad2188a5d73da0bf4391e6b0ddb8e",
      "assetIds": []
    },
    {
      "x": 192,
      "y": 295,
      "size": 1,
      "price": "1011000000000000000000",
      "reserved": "",
      "salt": "0x518813c34ae623a350056cdd07dbe26c4cd36afe8fe9605c830425b2e8900700",
      "assetIds": []
    },
    {
      "x": 193,
      "y": 295,
      "size": 1,
      "price": "1011000000000000000000",
      "reserved": "",
      "salt": "0xb9cb9bee3a7ef84a433550acfc181c3c52663d8fc24c52322e1ad4be7635f27a",
      "assetIds": []
    },
    {
      "x": 193,
      "y": 294,
      "size": 1,
      "price": "1011000000000000000000",
      "reserved": "",
      "salt": "0xa406c40a03deac500917d68c33ba66db16a2a498bee8b879b117de895545b7a4",
      "assetIds": []
    },
    {
      "x": 194,
      "y": 294,
      "size": 1,
      "price": "1011000000000000000000",
      "reserved": "",
      "salt": "0x5b3e20c9b3bcf63a18f65d8fd9e0949cbbfa80314cc4e5bf65b09b1203a173ef",
      "assetIds": []
    },
    {
      "x": 194,
      "y": 295,
      "size": 1,
      "price": "1011000000000000000000",
      "reserved": "",
      "salt": "0x195a7a14ca59235bd65b5a59b9c9698f9050e2e82ca534e5c25050c46c936310",
      "assetIds": []
    },
    {
      "x": 194,
      "y": 296,
      "size": 1,
      "price": "1011000000000000000000",
      "reserved": "",
      "salt": "0xcbe259d2769466109d7e28792c3a512564969a2c36a2d886e0e420a9cc125fa9",
      "assetIds": []
    },
    {
      "x": 194,
      "y": 297,
      "size": 1,
      "price": "1011000000000000000000",
      "reserved": "",
      "salt": "0xcc20d811cc1b1f756a39160bc7a32d9639d83bd259e69322645fda7f937b6f30",
      "assetIds": []
    },
    {
      "x": 194,
      "y": 298,
      "size": 1,
      "price": "1011000000000000000000",
      "reserved": "",
      "salt": "0xebf841a2b466aae05352816f9cd3f11fd52d4d3794ab8681ac711577de463286",
      "assetIds": []
    },
    {
      "x": 193,
      "y": 297,
      "size": 1,
      "price": "1011000000000000000000",
      "reserved": "",
      "salt": "0xd0324f39ee0b71d4b4cb355b2150924cf92285ce6ed080ed5399c81f3ca617fb",
      "assetIds": []
    },
    {
      "x": 193,
      "y": 296,
      "size": 1,
      "price": "1011000000000000000000",
      "reserved": "",
      "salt": "0xe110db24223707e269fa919c3856285bb4eb2f047e5cae7342106cf9221218c3",
      "assetIds": []
    },
    {
      "x": 192,
      "y": 287,
      "size": 1,
      "price": "1011000000000000000000",
      "reserved": "",
      "salt": "0x81fb2a9c0a0d598ab8752d81f094918ee901e3c996b8cffb4526d0710badee31",
      "assetIds": []
    },
    {
      "x": 194,
      "y": 287,
      "size": 1,
      "price": "1011000000000000000000",
      "reserved": "",
      "salt": "0xa759732488c012915ed63d368bf8329ee9bd1cf2483ad5646c28182212025c83",
      "assetIds": []
    },
    {
      "x": 194,
      "y": 286,
      "size": 1,
      "price": "1011000000000000000000",
      "reserved": "",
      "salt": "0xbf82caaf426d8e189600b4f652876e48eaedf6e269b0912a4ec895f81f436242",
      "assetIds": []
    },
    {
      "x": 194,
      "y": 285,
      "size": 1,
      "price": "1011000000000000000000",
      "reserved": "",
      "salt": "0xac8f932dcaf224c5558916b5e50e02da75eca043b4960439cd28ec390bb84274",
      "assetIds": []
    },
    {
      "x": 193,
      "y": 285,
      "size": 1,
      "price": "1011000000000000000000",
      "reserved": "",
      "salt": "0xce968038039dc8d88b4b0761f7be1b2877140886a8248c70da89fadf3c74b308",
      "assetIds": []
    },
    {
      "x": 192,
      "y": 285,
      "size": 1,
      "price": "1011000000000000000000",
      "reserved": "",
      "salt": "0x6b6533d0af576973344ceee3a01d9605555d79648eb08ba2698f11dded89ae88",
      "assetIds": []
    },
    {
      "x": 193,
      "y": 286,
      "size": 1,
      "price": "1011000000000000000000",
      "reserved": "",
      "salt": "0x85fe19f71bea6018e1797384f887e30d3dd7d7314ee330a1bb1ab74929bd9da2",
      "assetIds": []
    },
    {
      "x": 180,
      "y": 284,
      "size": 1,
      "price": "1011000000000000000000",
      "reserved": "",
      "salt": "0xc645843961ecc95310a787e6e9bc0e8847ac6cf551301b2974b0d06d54027cf0",
      "assetIds": []
    },
    {
      "x": 181,
      "y": 284,
      "size": 1,
      "price": "1011000000000000000000",
      "reserved": "",
      "salt": "0x233fb25cd655c459a8d2a699b9b38c7c406eb11fa6f9cb63254d1b1fdf205e7d",
      "assetIds": []
    },
    {
      "x": 182,
      "y": 284,
      "size": 1,
      "price": "1011000000000000000000",
      "reserved": "",
      "salt": "0x65a6aa4c4e87312312f2b24be0d135b424695e3a36bf8bf72d569c19b2182526",
      "assetIds": []
    },
    {
      "x": 183,
      "y": 284,
      "size": 1,
      "price": "1011000000000000000000",
      "reserved": "",
      "salt": "0x615973816fdd86455cf412fdadece786f025f838a454bfa4cf6c1e42897b12a6",
      "assetIds": []
    },
    {
      "x": 184,
      "y": 284,
      "size": 1,
      "price": "1011000000000000000000",
      "reserved": "",
      "salt": "0x7e406fa348e1753e7c79d1d6f3212113ae0b0769c5f1c88d2dde6eb2f514fb90",
      "assetIds": []
    },
    {
      "x": 185,
      "y": 284,
      "size": 1,
      "price": "1011000000000000000000",
      "reserved": "",
      "salt": "0x6a5b5a78d662a4b448735aeeb485ddeb03aee8b07b6a59b191fa2b874f694f39",
      "assetIds": []
    },
    {
      "x": 185,
      "y": 283,
      "size": 1,
      "price": "1011000000000000000000",
      "reserved": "",
      "salt": "0x59f93a8ad0cba46b613fa564d0903ab9b293f04c4276906b64b51ea4b6ed031b",
      "assetIds": []
    },
    {
      "x": 185,
      "y": 282,
      "size": 1,
      "price": "1011000000000000000000",
      "reserved": "",
      "salt": "0x3eee07ca44cb0abe4b40689a78d376c5646952f890838b0f7c6e36ca26380d97",
      "assetIds": []
    },
    {
      "x": 185,
      "y": 281,
      "size": 1,
      "price": "1011000000000000000000",
      "reserved": "",
      "salt": "0x8afc9b1da08db91498750a7890c03aa1a0e10cd1bdd29e011db97c9d575918c6",
      "assetIds": []
    },
    {
      "x": 186,
      "y": 281,
      "size": 1,
      "price": "1011000000000000000000",
      "reserved": "",
      "salt": "0x9c1f4d353e376d5d00f0366208a6afeeb5a5849a1e532ba3ab8ce24dda235b0a",
      "assetIds": []
    },
    {
      "x": 187,
      "y": 281,
      "size": 1,
      "price": "1011000000000000000000",
      "reserved": "",
      "salt": "0x9a4b6058afbf1f21b266c9b49e39f3586d9af1c77e0ad8dc2ad1f4cb23dc58ae",
      "assetIds": []
    },
    {
      "x": 188,
      "y": 281,
      "size": 1,
      "price": "1011000000000000000000",
      "reserved": "",
      "salt": "0x139184b11970e2b16f077c5c1a73590472391320418ff90485d7d4128128124e",
      "assetIds": []
    },
    {
      "x": 188,
      "y": 280,
      "size": 1,
      "price": "1011000000000000000000",
      "reserved": "",
      "salt": "0x35e705f800f00417536acdaf03f42edda26944bf559595191cd5f02b70353759",
      "assetIds": []
    },
    {
      "x": 188,
      "y": 279,
      "size": 1,
      "price": "1011000000000000000000",
      "reserved": "",
      "salt": "0x3c06363e9fe59c9bbf9095ddb89e6a1770167ad4ab9fef5095290287e7d651c0",
      "assetIds": []
    },
    {
      "x": 188,
      "y": 278,
      "size": 1,
      "price": "1011000000000000000000",
      "reserved": "",
      "salt": "0x223f294a46a3e50e8a3f01ddef0a638bf6f3323bb43023c28760acd3399af0a8",
      "assetIds": []
    },
    {
      "x": 189,
      "y": 278,
      "size": 1,
      "price": "1011000000000000000000",
      "reserved": "",
      "salt": "0xe145cef25b5892c1c24f4f8000c120178646a6e8cbdd0b512348111de618d4f0",
      "assetIds": []
    },
    {
      "x": 190,
      "y": 278,
      "size": 1,
      "price": "1011000000000000000000",
      "reserved": "",
      "salt": "0x3ca64f2bf4c63e1dd4995f2dc83882b368a7082e3dc7435a550c2ad06ed88c3a",
      "assetIds": []
    },
    {
      "x": 191,
      "y": 278,
      "size": 1,
      "price": "1011000000000000000000",
      "reserved": "",
      "salt": "0x84a2afc955dcd6ded49c56832ec1eef0274befe771d1c887d2931fa7e8ecb415",
      "assetIds": []
    },
    {
      "x": 192,
      "y": 278,
      "size": 1,
      "price": "1011000000000000000000",
      "reserved": "",
      "salt": "0xeab6cc7bf8fe32846ae55915906d856de44dd91c77ef6ff499f4d3868cce7b2d",
      "assetIds": []
    },
    {
      "x": 192,
      "y": 279,
      "size": 1,
      "price": "1011000000000000000000",
      "reserved": "",
      "salt": "0x46795bf849ab21b20af048e452a657199df0f78c404fc3024299ba694c4442d2",
      "assetIds": []
    },
    {
      "x": 192,
      "y": 280,
      "size": 1,
      "price": "1011000000000000000000",
      "reserved": "",
      "salt": "0x9fe103dd702f441283a1b0909734cadeb2ad47088ea6e57be8bfd1871aed1841",
      "assetIds": []
    },
    {
      "x": 192,
      "y": 281,
      "size": 1,
      "price": "1011000000000000000000",
      "reserved": "",
      "salt": "0xa2324860e70cb9219420919b9903ee84e2fcbfea8c22fdebc22c8fa139428128",
      "assetIds": []
    },
    {
      "x": 193,
      "y": 281,
      "size": 1,
      "price": "1011000000000000000000",
      "reserved": "",
      "salt": "0x173c324e19f637f1a1b5f759f94a325c89b5b5f1aec964c9c50fb5f279512f72",
      "assetIds": []
    },
    {
      "x": 194,
      "y": 281,
      "size": 1,
      "price": "1011000000000000000000",
      "reserved": "",
      "salt": "0x0844d652ed6c20cefdc733929e7e4f7d07ef0b154bc901db55e4da52a4ecaa67",
      "assetIds": []
    },
    {
      "x": 194,
      "y": 280,
      "size": 1,
      "price": "1011000000000000000000",
      "reserved": "",
      "salt": "0x9338a4f7b3db86b20bf7872aba7d6f58d24ecee8e165564a67bbae9c74be2c46",
      "assetIds": []
    },
    {
      "x": 193,
      "y": 280,
      "size": 1,
      "price": "1011000000000000000000",
      "reserved": "",
      "salt": "0xbe36dd38898388abb0f2e357be0867c1d0c265e5a9fc5e835c477a949ec9c600",
      "assetIds": []
    },
    {
      "x": 193,
      "y": 279,
      "size": 1,
      "price": "1011000000000000000000",
      "reserved": "",
      "salt": "0xd6a793d7b503a452dd476466945ba29629385da16f6b304582d6423855c2d1ec",
      "assetIds": []
    },
    {
      "x": 193,
      "y": 278,
      "size": 1,
      "price": "1011000000000000000000",
      "reserved": "",
      "salt": "0xd61de2dff904e78b4018235f8a256f939e101ccdde26f97b19ce81c76563f1e2",
      "assetIds": []
    },
    {
      "x": 194,
      "y": 279,
      "size": 1,
      "price": "1011000000000000000000",
      "reserved": "",
      "salt": "0xfaf21b52865cfffcf4e02a85e4a1cebab9fcb79a52bb7fbb99039de0a1ce9999",
      "assetIds": []
    },
    {
      "x": 194,
      "y": 278,
      "size": 1,
      "price": "1011000000000000000000",
      "reserved": "",
      "salt": "0x0161adbdc747050e2e8c5b8d013588f812c2010f268e275de7efee5ae2b77d5f",
      "assetIds": []
    },
    {
      "x": 194,
      "y": 277,
      "size": 1,
      "price": "1011000000000000000000",
      "reserved": "",
      "salt": "0x357fde9211e75f3ac5396420f1aa69dc3aecc8e3bd29bf6ea77ceb1a489de092",
      "assetIds": []
    },
    {
      "x": 194,
      "y": 276,
      "size": 1,
      "price": "1011000000000000000000",
      "reserved": "",
      "salt": "0xc46b83325093a9b9979b303b08e788a977d0389c87f002c1cd0cb362950213c0",
      "assetIds": []
    },
    {
      "x": 193,
      "y": 276,
      "size": 1,
      "price": "1011000000000000000000",
      "reserved": "",
      "salt": "0x0e32c4eee81a3eb3e8356478cb288e80e320dcc00ca2ad280397ac26ac20520f",
      "assetIds": []
    },
    {
      "x": 192,
      "y": 276,
      "size": 1,
      "price": "1011000000000000000000",
      "reserved": "",
      "salt": "0xf4bb0856d3c5d0af2cbaadfc54f3aa5a4bb50409170fa7a81a5a17a69b40dbe5",
      "assetIds": []
    },
    {
      "x": 192,
      "y": 277,
      "size": 1,
      "price": "1011000000000000000000",
      "reserved": "",
      "salt": "0x5fb07fe4152a298e4ec72469dcaa85dd2163dce2feb0acbb5aaef307efc5f576",
      "assetIds": []
    },
    {
      "x": 191,
      "y": 277,
      "size": 1,
      "price": "1011000000000000000000",
      "reserved": "",
      "salt": "0x93fc44e2f524e475487832382fb2889c1004c673a8aea3c3c815f4c5df4d4713",
      "assetIds": []
    },
    {
      "x": 190,
      "y": 277,
      "size": 1,
      "price": "1011000000000000000000",
      "reserved": "",
      "salt": "0x16a8fb4ff15e5dd171b3942808d973ea4b6bd59b7a13d6f73fdaa78ef4ad217e",
      "assetIds": []
    },
    {
      "x": 189,
      "y": 277,
      "size": 1,
      "price": "1011000000000000000000",
      "reserved": "",
      "salt": "0x6c5547542eb9509bcee9e66c635e9124dc9b100a4338c9f0db12530faba1a9f5",
      "assetIds": []
    },
    {
      "x": 188,
      "y": 277,
      "size": 1,
      "price": "1011000000000000000000",
      "reserved": "",
      "salt": "0x86edc385560e4eecc271f749e22a38bca9360858b3f5f102dff658f5f2c832fd",
      "assetIds": []
    },
    {
      "x": 187,
      "y": 277,
      "size": 1,
      "price": "1011000000000000000000",
      "reserved": "",
      "salt": "0x350ac82756331eec9a95d956bafed250f8563b6a65fd6f8088bff80370a522d8",
      "assetIds": []
    },
    {
      "x": 187,
      "y": 278,
      "size": 1,
      "price": "1011000000000000000000",
      "reserved": "",
      "salt": "0xb351285ef12553d624291b4d5894b3f59d9bdbb10e7f674cf22395036eb2396d",
      "assetIds": []
    },
    {
      "x": 187,
      "y": 279,
      "size": 1,
      "price": "1011000000000000000000",
      "reserved": "",
      "salt": "0x9af645a53027bc6fbf23ace2e581237c3855cefc94e91c34887c2de1b26bb999",
      "assetIds": []
    },
    {
      "x": 187,
      "y": 280,
      "size": 1,
      "price": "1011000000000000000000",
      "reserved": "",
      "salt": "0xb69776852afb4ea6ad10cc81ab0ba59f75b7a5e1f9e175d0216df2574a1a3ada",
      "assetIds": []
    },
    {
      "x": 186,
      "y": 280,
      "size": 1,
      "price": "1011000000000000000000",
      "reserved": "",
      "salt": "0x5f92e2208fe3ee7d70832a1974e83983cc2fb867f98ec49efbe454782b138bc7",
      "assetIds": []
    },
    {
      "x": 186,
      "y": 279,
      "size": 1,
      "price": "1011000000000000000000",
      "reserved": "",
      "salt": "0x7aaa2f88db944187478e62840ea44f4196f6b33dedc6157251d7384aadbcea65",
      "assetIds": []
    },
    {
      "x": 186,
      "y": 278,
      "size": 1,
      "price": "1011000000000000000000",
      "reserved": "",
      "salt": "0x94ad30f266b5458d19260a5b8b4da8f33eab96524b2faaeac55d3a2dee7fb4f2",
      "assetIds": []
    },
    {
      "x": 186,
      "y": 277,
      "size": 1,
      "price": "1011000000000000000000",
      "reserved": "",
      "salt": "0x20ce102bb1dfd6acfb69025d300ee1d2be80b906c8ae1230d40d7a105981f7d3",
      "assetIds": []
    },
    {
      "x": 180,
      "y": 283,
      "size": 1,
      "price": "1011000000000000000000",
      "reserved": "",
      "salt": "0x43de7193ef9d31f8643f4c16d0f932a5f66ed9db1ea4ece9c8b7081690dbb807",
      "assetIds": []
    },
    {
      "x": 180,
      "y": 282,
      "size": 1,
      "price": "1011000000000000000000",
      "reserved": "",
      "salt": "0x06277f71d3752ee3151f29e70660d4579d2ee7d57e1e6b32eb7f0ffba97a0ab9",
      "assetIds": []
    },
    {
      "x": 180,
      "y": 281,
      "size": 1,
      "price": "1011000000000000000000",
      "reserved": "",
      "salt": "0xf4f925b429323ef0b848ec0a588291893b3d46730a8633af9391ced7896161af",
      "assetIds": []
    },
    {
      "x": 178,
      "y": 281,
      "size": 1,
      "price": "1011000000000000000000",
      "reserved": "",
      "salt": "0xe80f218bd1894f8972dbcc4b2edf54c7fef88b84cc9f03b665feaa42e80c9370",
      "assetIds": []
    },
    {
      "x": 176,
      "y": 281,
      "size": 1,
      "price": "1011000000000000000000",
      "reserved": "",
      "salt": "0x73f0e1879b746f101c8ecfa4d73ee76bd43715d32b0155eb4083a1c8e23c2848",
      "assetIds": []
    },
    {
      "x": 174,
      "y": 281,
      "size": 1,
      "price": "1011000000000000000000",
      "reserved": "",
      "salt": "0x433a274635603abe3b1764b4520ed6378797bbc0aad6a89eaccb63a01772c9c4",
      "assetIds": []
    },
    {
      "x": 174,
      "y": 280,
      "size": 1,
      "price": "1011000000000000000000",
      "reserved": "",
      "salt": "0xaeae2ec0a6f4784ff3fb88fc43afdecf2429ddd72317c5dad952500bd68b5c33",
      "assetIds": []
    },
    {
      "x": 175,
      "y": 280,
      "size": 1,
      "price": "1011000000000000000000",
      "reserved": "",
      "salt": "0x5a33b010a1b9a56d027950b0efd1e7a79caf790567382e0e4fef1be8f0670d0b",
      "assetIds": []
    },
    {
      "x": 176,
      "y": 280,
      "size": 1,
      "price": "1011000000000000000000",
      "reserved": "",
      "salt": "0x812b24ea0e3d13f05d4a3e24188de11979237eabc4b893ab85d899fafe615e6f",
      "assetIds": []
    },
    {
      "x": 177,
      "y": 280,
      "size": 1,
      "price": "1011000000000000000000",
      "reserved": "",
      "salt": "0x2ad7f0b1be75867a75f5a2e24c85064f2fc9ec868cf244e91b2606f06f05639d",
      "assetIds": []
    },
    {
      "x": 178,
      "y": 280,
      "size": 1,
      "price": "1011000000000000000000",
      "reserved": "",
      "salt": "0xcba70cc44d505c503d1a65675556db7c6fa0ba255917d940423c4636d7e572b5",
      "assetIds": []
    },
    {
      "x": 179,
      "y": 280,
      "size": 1,
      "price": "1011000000000000000000",
      "reserved": "",
      "salt": "0xb3011922df4946da92530e0c86f3ad5770c8c349c822dd1aa6781a936229d661",
      "assetIds": []
    },
    {
      "x": 179,
      "y": 279,
      "size": 1,
      "price": "1011000000000000000000",
      "reserved": "",
      "salt": "0x4924a343a47e03d3033329c4103185a0c5cc9b90438b2a60d7b42cd1c6b88060",
      "assetIds": []
    },
    {
      "x": 180,
      "y": 279,
      "size": 1,
      "price": "1011000000000000000000",
      "reserved": "",
      "salt": "0xa49de7200b6fd68a18630b2307d2aa577f5b4b28c9bb3745fe67b16f6a8cf3a2",
      "assetIds": []
    },
    {
      "x": 181,
      "y": 279,
      "size": 1,
      "price": "1011000000000000000000",
      "reserved": "",
      "salt": "0x945800ce26852c7332354a36446a0185e253f30cb860d4cd272bc97b1241b260",
      "assetIds": []
    },
    {
      "x": 181,
      "y": 280,
      "size": 1,
      "price": "1011000000000000000000",
      "reserved": "",
      "salt": "0x708197d35e5d4759e14f9c88142077baf1dfa6c3ee2cbc782edeaf406adf411a",
      "assetIds": []
    },
    {
      "x": 181,
      "y": 281,
      "size": 1,
      "price": "1011000000000000000000",
      "reserved": "",
      "salt": "0xc93feaa4d0b5ae4bb8accdfe7c68894a22334a78a4fdfe453ebfecc3a99d5bdb",
      "assetIds": []
    },
    {
      "x": 180,
      "y": 280,
      "size": 1,
      "price": "1011000000000000000000",
      "reserved": "",
      "salt": "0x7c3ee81fe6e3b23b15bd22eb41c314dcab02ae7b67b199534fdbb187504d55d4",
      "assetIds": []
    },
    {
      "x": 181,
      "y": 282,
      "size": 1,
      "price": "1011000000000000000000",
      "reserved": "",
      "salt": "0xf9c31bffcad9a8536dcedcc9e858b6c88ca10f60ed3dd6ab5f36eb1e4707ee22",
      "assetIds": []
    },
    {
      "x": 182,
      "y": 282,
      "size": 1,
      "price": "1011000000000000000000",
      "reserved": "",
      "salt": "0xd3d2178c2136390141b5b4185285929222e47deb8daed3d73662d46a2c2c58e6",
      "assetIds": []
    },
    {
      "x": 182,
      "y": 283,
      "size": 1,
      "price": "1011000000000000000000",
      "reserved": "",
      "salt": "0x05f3afd3663a01e74419bb30b0c65f10f708f63f80264e3021bcdc916152e45e",
      "assetIds": []
    },
    {
      "x": 183,
      "y": 283,
      "size": 1,
      "price": "1011000000000000000000",
      "reserved": "",
      "salt": "0x059e21a237350deb025a605677c5768195d5a6b4c86c8266abccb1f00665bc26",
      "assetIds": []
    },
    {
      "x": 184,
      "y": 282,
      "size": 1,
      "price": "1011000000000000000000",
      "reserved": "",
      "salt": "0x43678c18a887e49f5b8667f7da579cdafdbb27408cc5de8c83c15d6f53b2f51a",
      "assetIds": []
    },
    {
      "x": 184,
      "y": 281,
      "size": 1,
      "price": "1011000000000000000000",
      "reserved": "",
      "salt": "0xdf410387921bbf62d273e78269bfb81d6afcdc330e6d4431cc116755542efaba",
      "assetIds": []
    },
    {
      "x": 183,
      "y": 281,
      "size": 1,
      "price": "1011000000000000000000",
      "reserved": "",
      "salt": "0x825a98eed427ad6c4fc9faea1afa3985d1c8266b1e4a30eb9c0357050644d84b",
      "assetIds": []
    },
    {
      "x": 183,
      "y": 282,
      "size": 1,
      "price": "1011000000000000000000",
      "reserved": "",
      "salt": "0x42b19f8e88433115ead045fff5e38f14e9edf9cea9ce5e0cbac205711b2fa0f7",
      "assetIds": []
    },
    {
      "x": 182,
      "y": 281,
      "size": 1,
      "price": "1011000000000000000000",
      "reserved": "",
      "salt": "0xe2d35f2e76a23a525bd5f1a56f6f3b3dc2a9ed2b5a9c7479a277c31635a9ed6d",
      "assetIds": []
    },
    {
      "x": 182,
      "y": 280,
      "size": 1,
      "price": "1011000000000000000000",
      "reserved": "",
      "salt": "0xb5afc84bdfc12966ca800c824656f1e41c129d6a190282abb018d6e7212b2ea2",
      "assetIds": []
    },
    {
      "x": 182,
      "y": 279,
      "size": 1,
      "price": "1011000000000000000000",
      "reserved": "",
      "salt": "0x8d6bf3485b78f8b31559262fda6a8df933d53bdbc4a8b36f8bc352ae149d5e8b",
      "assetIds": []
    },
    {
      "x": 184,
      "y": 280,
      "size": 1,
      "price": "1011000000000000000000",
      "reserved": "",
      "salt": "0xae8356dbb84413186aab3c039fae02238c1e623316181db2586b4ea2a06efd7a",
      "assetIds": []
    },
    {
      "x": 185,
      "y": 280,
      "size": 1,
      "price": "1011000000000000000000",
      "reserved": "",
      "salt": "0xb0fc3ea330eb02da30cd3167bef1262ab5296ab9e9e43a6bbfdc3d0fcc6a6a71",
      "assetIds": []
    },
    {
      "x": 185,
      "y": 279,
      "size": 1,
      "price": "1011000000000000000000",
      "reserved": "",
      "salt": "0xb64441b65422d4ab713bf714b7fc17990f60fa6b96550dbfc3d9d09e5be9a072",
      "assetIds": []
    },
    {
      "x": 184,
      "y": 279,
      "size": 1,
      "price": "1011000000000000000000",
      "reserved": "",
      "salt": "0x75b0d74eee00ba72b93f08f3e3f9cb11c12cde864d389711125ca10673793169",
      "assetIds": []
    },
    {
      "x": 183,
      "y": 279,
      "size": 1,
      "price": "1011000000000000000000",
      "reserved": "",
      "salt": "0x4e3a4386aefadc5e6502f91a5f05453c3006a8ddd04fd0f23d99ad4043eb13f6",
      "assetIds": []
    },
    {
      "x": 182,
      "y": 278,
      "size": 1,
      "price": "1011000000000000000000",
      "reserved": "",
      "salt": "0x265c750fa7a9ee964acb81e93dd7eca9da944343e4d6b9689239ecd24d767167",
      "assetIds": []
    },
    {
      "x": 181,
      "y": 278,
      "size": 1,
      "price": "1011000000000000000000",
      "reserved": "",
      "salt": "0xb95f206c53aee4a2c468a6801e664685f56b753bed79bb7164218c51c6fbfb1b",
      "assetIds": []
    },
    {
      "x": 179,
      "y": 278,
      "size": 1,
      "price": "1011000000000000000000",
      "reserved": "",
      "salt": "0x923de8e9c407e46fb5c88e044fda4e2798ca2812fa18e2b165d46271ed5da234",
      "assetIds": []
    },
    {
      "x": 178,
      "y": 278,
      "size": 1,
      "price": "1011000000000000000000",
      "reserved": "",
      "salt": "0xf1edb6b6402c5eb4869f36f218eee2f266bf5672f699e683ad3d860794517310",
      "assetIds": []
    },
    {
      "x": 177,
      "y": 278,
      "size": 1,
      "price": "1011000000000000000000",
      "reserved": "",
      "salt": "0xe164782a8f63e51d84de5efa2675b0bd8f8254fb3bba2ec74a31d69702c6be69",
      "assetIds": []
    },
    {
      "x": 178,
      "y": 279,
      "size": 1,
      "price": "1011000000000000000000",
      "reserved": "",
      "salt": "0xa62948bbcfa9ea0e273ff8bb9bffc7c6718a1ba37c88a2576649506150455380",
      "assetIds": []
    },
    {
      "x": 178,
      "y": 277,
      "size": 1,
      "price": "1011000000000000000000",
      "reserved": "",
      "salt": "0xe4976f4befd08acb953244def1b52ac3e95dd12afbc16c9a0965ae0883a79f3f",
      "assetIds": []
    },
    {
      "x": 178,
      "y": 276,
      "size": 1,
      "price": "1011000000000000000000",
      "reserved": "",
      "salt": "0xcb2222afff25a9ca1417691ffcde4bac890f9773eb89bc8c48cb7fa6d54c5d7b",
      "assetIds": []
    },
    {
      "x": 179,
      "y": 276,
      "size": 1,
      "price": "1011000000000000000000",
      "reserved": "",
      "salt": "0x9122b186753f52ded2abd0dbf7302f85837571574426c290d52c1ce4f5b5a056",
      "assetIds": []
    },
    {
      "x": 180,
      "y": 276,
      "size": 1,
      "price": "1011000000000000000000",
      "reserved": "",
      "salt": "0x93caa2f845420e3d95da6f7bc44ecc33b36622f62f4037d2c543ca9f75ba1bb5",
      "assetIds": []
    },
    {
      "x": 179,
      "y": 277,
      "size": 1,
      "price": "1011000000000000000000",
      "reserved": "",
      "salt": "0x9aa2ba01dd3e13f1250ddf9bb503a64ff51708f981c950b44d436569f3aad8fc",
      "assetIds": []
    },
    {
      "x": 180,
      "y": 277,
      "size": 1,
      "price": "1011000000000000000000",
      "reserved": "",
      "salt": "0x8adcc23d5e89f480d52b6249839cbc5c7cfeb85b819173f0f67de395630a7612",
      "assetIds": []
    },
    {
      "x": 181,
      "y": 277,
      "size": 1,
      "price": "1011000000000000000000",
      "reserved": "",
      "salt": "0xa5490a7278859a1a802aeb210950417529b147f61c80f39d5a046e51ceff5796",
      "assetIds": []
    },
    {
      "x": 182,
      "y": 277,
      "size": 1,
      "price": "1011000000000000000000",
      "reserved": "",
      "salt": "0xa3946ba735d7c0d779a25c52f1357148c65bf11ff7d95c76aa09bc511a67d72f",
      "assetIds": []
    },
    {
      "x": 182,
      "y": 276,
      "size": 1,
      "price": "1011000000000000000000",
      "reserved": "",
      "salt": "0xa76c799fb9d2827dc6b92810e220e55cce32bce65f0d5e1eebf8f4c372d1b892",
      "assetIds": []
    },
    {
      "x": 183,
      "y": 275,
      "size": 1,
      "price": "1011000000000000000000",
      "reserved": "",
      "salt": "0xdda500e63ca1d6d6bc88608523b35c62cace5e6c209fd2747b07287b76d58820",
      "assetIds": []
    },
    {
      "x": 184,
      "y": 275,
      "size": 1,
      "price": "1011000000000000000000",
      "reserved": "",
      "salt": "0xff1d229d3a54cdb219fa8ca678ec0b5a48a6a7be78c4587ca311753e09ab290c",
      "assetIds": []
    },
    {
      "x": 184,
      "y": 274,
      "size": 1,
      "price": "1011000000000000000000",
      "reserved": "",
      "salt": "0x219656094bd6e25bf3fd4b39b4dae2ed21c1be2e7476c1ae0cf65567d8f6f752",
      "assetIds": []
    },
    {
      "x": 184,
      "y": 273,
      "size": 1,
      "price": "1011000000000000000000",
      "reserved": "",
      "salt": "0x0ad57dc0d6ecdc2c1055ec393391a497beddcdab5b3c7cd446343103975863d0",
      "assetIds": []
    },
    {
      "x": 185,
      "y": 273,
      "size": 1,
      "price": "1011000000000000000000",
      "reserved": "",
      "salt": "0x25893575d688fead0fd7b7d229de729397f2f42965b56ec9e608406efb6a8f34",
      "assetIds": []
    },
    {
      "x": 183,
      "y": 273,
      "size": 1,
      "price": "1011000000000000000000",
      "reserved": "",
      "salt": "0x2ad2902f57e9d60e7ec2a60267ddb1cf9b8686ea22d023ad4aaa4d918bae4cd0",
      "assetIds": []
    },
    {
      "x": 170,
      "y": 275,
      "size": 1,
      "price": "1011000000000000000000",
      "reserved": "",
      "salt": "0xfb32e157c601366410f93b26695415607d2eea2087003d842e18345ad2df190f",
      "assetIds": []
    },
    {
      "x": 169,
      "y": 275,
      "size": 1,
      "price": "1011000000000000000000",
      "reserved": "",
      "salt": "0x6a67bebe3cfc51c859b16b0c1f0dc6eedeb3a046c613d793660d7e0bdccc64dc",
      "assetIds": []
    },
    {
      "x": 168,
      "y": 275,
      "size": 1,
      "price": "1011000000000000000000",
      "reserved": "",
      "salt": "0x82c8ce314e4ba58ba81e77229e7c670a1173a6ff03ee1adddf0ad2ce79bfa412",
      "assetIds": []
    },
    {
      "x": 168,
      "y": 274,
      "size": 1,
      "price": "1011000000000000000000",
      "reserved": "",
      "salt": "0x738255e7ca7e8a372442e39682608df65f33ecb018925fc0d0efae018fd84e8a",
      "assetIds": []
    },
    {
      "x": 168,
      "y": 273,
      "size": 1,
      "price": "1011000000000000000000",
      "reserved": "",
      "salt": "0xc158cca2b91689d8ea1e493d080b62493b2eaf41ebcdc5a76a84f019af230a1d",
      "assetIds": []
    },
    {
      "x": 168,
      "y": 272,
      "size": 1,
      "price": "1011000000000000000000",
      "reserved": "",
      "salt": "0xd8752109a6b211279d2a92ddd3cdae5cac0cbdfebbf4179dfa2b0a38063659c9",
      "assetIds": []
    },
    {
      "x": 168,
      "y": 271,
      "size": 1,
      "price": "1011000000000000000000",
      "reserved": "",
      "salt": "0x1dcfc141dfa0b6a07c57742a1232cdbf5b440105de131b05fbcb5883d85fae74",
      "assetIds": []
    },
    {
      "x": 168,
      "y": 270,
      "size": 1,
      "price": "1011000000000000000000",
      "reserved": "",
      "salt": "0xafdbc97a29c168c3719febfeecc106495853da09debbc2ba158d14aab1b44dbe",
      "assetIds": []
    },
    {
      "x": 169,
      "y": 270,
      "size": 1,
      "price": "1011000000000000000000",
      "reserved": "",
      "salt": "0xd1ad0766fcd906ffb9dea4b3d39d73a6a5b8dea66a558649cd69a4efe4b052f8",
      "assetIds": []
    },
    {
      "x": 170,
      "y": 270,
      "size": 1,
      "price": "1011000000000000000000",
      "reserved": "",
      "salt": "0xdc6d0b1f4996f9d528c6ecd3eabca30b3f75c525891efeb93b80e1aa96f71aa9",
      "assetIds": []
    },
    {
      "x": 170,
      "y": 274,
      "size": 1,
      "price": "1011000000000000000000",
      "reserved": "",
      "salt": "0xa72dcf7364ee95431b00934b00726126091ce24776f084d8b517913c32e1dd89",
      "assetIds": []
    },
    {
      "x": 170,
      "y": 273,
      "size": 1,
      "price": "1011000000000000000000",
      "reserved": "",
      "salt": "0x5f238b21182646ac207be5d0b14280b5d8574c55ce727decdcd3b39141ee1fc4",
      "assetIds": []
    },
    {
      "x": 170,
      "y": 272,
      "size": 1,
      "price": "1011000000000000000000",
      "reserved": "",
      "salt": "0x59eb6f81aabc8325efe05068fb7f7f5dbe8749b006c96306abbd3afe048ae3ec",
      "assetIds": []
    },
    {
      "x": 169,
      "y": 274,
      "size": 1,
      "price": "1011000000000000000000",
      "reserved": "",
      "salt": "0x402dccfe9f3fcd7af8b07d185d94c438d510d8c7af53df1e811ffba9b0075514",
      "assetIds": []
    },
    {
      "x": 169,
      "y": 273,
      "size": 1,
      "price": "1011000000000000000000",
      "reserved": "",
      "salt": "0x137aa27d51da99790c8a379159506441831aab5728411d6fe946f6f792d30fe7",
      "assetIds": []
    },
    {
      "x": 169,
      "y": 272,
      "size": 1,
      "price": "1011000000000000000000",
      "reserved": "",
      "salt": "0x228df8b29016089cdccfe0bb50b4b7427dfd10c2fd4f19e52727563fedabb706",
      "assetIds": []
    },
    {
      "x": 169,
      "y": 271,
      "size": 1,
      "price": "1011000000000000000000",
      "reserved": "",
      "salt": "0x952bd8d86c80f05c269d4daf72892fda81ef97f930502602f68924e9ef613928",
      "assetIds": []
    },
    {
      "x": 174,
      "y": 274,
      "size": 1,
      "price": "1011000000000000000000",
      "reserved": "",
      "salt": "0x8a9e737771811e9e298c38026c71db6ca254eeec0099c24e9718727d2f8ae12b",
      "assetIds": []
    },
    {
      "x": 174,
      "y": 273,
      "size": 1,
      "price": "1011000000000000000000",
      "reserved": "",
      "salt": "0x62f7440b09fc91dc2cb80c48f60cf5a83e753d632fa8b80d7f91835d1c0a7f53",
      "assetIds": []
    },
    {
      "x": 174,
      "y": 272,
      "size": 1,
      "price": "1011000000000000000000",
      "reserved": "",
      "salt": "0xcc09f011dbffee2669b432a38db19ebd0d36360d6d6dbb05cae2187e81bd93ca",
      "assetIds": []
    },
    {
      "x": 175,
      "y": 272,
      "size": 1,
      "price": "1011000000000000000000",
      "reserved": "",
      "salt": "0xdbdf912b8d298ad4bb395a9d4d8ce653d01da19137a7e779cf24f9f438c3f5db",
      "assetIds": []
    },
    {
      "x": 176,
      "y": 272,
      "size": 1,
      "price": "1011000000000000000000",
      "reserved": "",
      "salt": "0x1091705aef8649918a8cfb63d245be11d47a9032eea2c467504200047d5e9a51",
      "assetIds": []
    },
    {
      "x": 176,
      "y": 273,
      "size": 1,
      "price": "1011000000000000000000",
      "reserved": "",
      "salt": "0x59d6504feef2a3e88d880cc1f35c841178c10365ff500c068b69f80b59a17306",
      "assetIds": []
    },
    {
      "x": 176,
      "y": 274,
      "size": 1,
      "price": "1011000000000000000000",
      "reserved": "",
      "salt": "0xb0c21604ce1c255ea8ce2b256a54c2a3936f7e5d419f4b1936f46abbc05bb8d5",
      "assetIds": []
    },
    {
      "x": 175,
      "y": 274,
      "size": 1,
      "price": "1011000000000000000000",
      "reserved": "",
      "salt": "0x97a772dd0a5efa62e98c01300f47fa31f2d488c7d020d0a62f16ac5c4052efe9",
      "assetIds": []
    },
    {
      "x": 175,
      "y": 271,
      "size": 1,
      "price": "1011000000000000000000",
      "reserved": "",
      "salt": "0x9d082cd5713f078443d678159110d29b334664c65cf278cfec5a5d4056ace036",
      "assetIds": []
    },
    {
      "x": 176,
      "y": 271,
      "size": 1,
      "price": "1011000000000000000000",
      "reserved": "",
      "salt": "0x151d9ca316d86ed9e4ca9172d44d0b95efada0b31d2a3d36c87ce2fdd84d030a",
      "assetIds": []
    },
    {
      "x": 176,
      "y": 270,
      "size": 1,
      "price": "1011000000000000000000",
      "reserved": "",
      "salt": "0xd3e3e318c166c3d672dda32f7c82fa85c4f20643fa79f4cd3ed98d5a2e800fa3",
      "assetIds": []
    },
    {
      "x": 175,
      "y": 270,
      "size": 1,
      "price": "1011000000000000000000",
      "reserved": "",
      "salt": "0x98d9582230f475ca5d8fe8d6809539a2ddb3f11ccee4563e5878aa5cef37115f",
      "assetIds": []
    },
    {
      "x": 174,
      "y": 270,
      "size": 1,
      "price": "1011000000000000000000",
      "reserved": "",
      "salt": "0xa4c6ae7d68940f66781846d0606ccd30b42655c5065cb3979522796acfac2911",
      "assetIds": []
    },
    {
      "x": 173,
      "y": 269,
      "size": 1,
      "price": "1011000000000000000000",
      "reserved": "",
      "salt": "0x9f68efc93e2e8626fa2f56ad9b0b1cc9904adb7f62e60c1f619676187d75d97b",
      "assetIds": []
    },
    {
      "x": 173,
      "y": 268,
      "size": 1,
      "price": "1011000000000000000000",
      "reserved": "",
      "salt": "0x540592685a2a3434eb5178ae81671dad7097048a8235dcdf57456101da741e23",
      "assetIds": []
    },
    {
      "x": 173,
      "y": 267,
      "size": 1,
      "price": "1011000000000000000000",
      "reserved": "",
      "salt": "0x66a78ab838a7f1d52c5a9a8f8f134d8c3d531a224c444a39fd47afa421439c00",
      "assetIds": []
    },
    {
      "x": 172,
      "y": 267,
      "size": 1,
      "price": "1011000000000000000000",
      "reserved": "",
      "salt": "0xfa44323b0a4a85784cb3be8b1e02dd05323bd6c224f2c9fd6a5f592ab8ff52d1",
      "assetIds": []
    },
    {
      "x": 171,
      "y": 267,
      "size": 1,
      "price": "1011000000000000000000",
      "reserved": "",
      "salt": "0x72a89d172d335e8af8498810a4a3e5d27745e161973ebe110d309b61c0c5ed9e",
      "assetIds": []
    },
    {
      "x": 171,
      "y": 268,
      "size": 1,
      "price": "1011000000000000000000",
      "reserved": "",
      "salt": "0x62617666a40cf0ff4db315546896e056c17f47e13bb00690883243e82aaa7390",
      "assetIds": []
    },
    {
      "x": 172,
      "y": 268,
      "size": 1,
      "price": "1011000000000000000000",
      "reserved": "",
      "salt": "0x65307fee732cb18abfd375e5907584acd689172d84bdb110dcefeb07dac5b714",
      "assetIds": []
    },
    {
      "x": 171,
      "y": 269,
      "size": 1,
      "price": "1011000000000000000000",
      "reserved": "",
      "salt": "0x908fcd51570749383ee0260b4583af46bb9c7a1094b25a26143913a7490bd2ae",
      "assetIds": []
    },
    {
      "x": 174,
      "y": 266,
      "size": 1,
      "price": "1011000000000000000000",
      "reserved": "",
      "salt": "0xec0ecda4ced9773640674f98042d23d1821bad741d3c7f9fb085617bcb481d0d",
      "assetIds": []
    },
    {
      "x": 174,
      "y": 265,
      "size": 1,
      "price": "1011000000000000000000",
      "reserved": "",
      "salt": "0xf049de13db210c8e29e10e546ec7b2389bb84756d7f8526b6485112e2c1096f1",
      "assetIds": []
    },
    {
      "x": 175,
      "y": 265,
      "size": 1,
      "price": "1011000000000000000000",
      "reserved": "",
      "salt": "0x1958fea0dd13c051ae299bf8a14f7cc4b03a3345f2d9b00f54e76f19fc5a2df3",
      "assetIds": []
    },
    {
      "x": 176,
      "y": 265,
      "size": 1,
      "price": "1011000000000000000000",
      "reserved": "",
      "salt": "0xefcf4d38a1eb3c492791364d2caacea8307cb583b3e25233ade5ba86be5ad98b",
      "assetIds": []
    },
    {
      "x": 176,
      "y": 266,
      "size": 1,
      "price": "1011000000000000000000",
      "reserved": "",
      "salt": "0xc0b425171dec6f421103a6e864cffba27c4a719c092d824ab211f5c173564605",
      "assetIds": []
    },
    {
      "x": 175,
      "y": 266,
      "size": 1,
      "price": "1011000000000000000000",
      "reserved": "",
      "salt": "0xbf26f20372cbc451d5457ddc1ea3edd4920d8e6a8b2dfd48bd97716fd2bd99cc",
      "assetIds": []
    },
    {
      "x": 177,
      "y": 269,
      "size": 1,
      "price": "1011000000000000000000",
      "reserved": "",
      "salt": "0x7c7ead508543e93674601c8c9ae3dda7f468c2df91d2c418fb00975eb1ae5213",
      "assetIds": []
    },
    {
      "x": 177,
      "y": 268,
      "size": 1,
      "price": "1011000000000000000000",
      "reserved": "",
      "salt": "0x181e83f922677f9bc258f5a18427ee858ec9be23994ed46c49d94ccd3e1d8a0b",
      "assetIds": []
    },
    {
      "x": 177,
      "y": 267,
      "size": 1,
      "price": "1011000000000000000000",
      "reserved": "",
      "salt": "0x07af8620050c9b3b40f7dc7cfab022d31836ca7c54758b55f9db5c8bf62edb18",
      "assetIds": []
    },
    {
      "x": 178,
      "y": 267,
      "size": 1,
      "price": "1011000000000000000000",
      "reserved": "",
      "salt": "0xb6649b409953dea5d2fe585c8825e4d19b8e649448716f02d162e308b6e5043a",
      "assetIds": []
    },
    {
      "x": 178,
      "y": 268,
      "size": 1,
      "price": "1011000000000000000000",
      "reserved": "",
      "salt": "0xe989c23381b76d8d8ee46a606062d2ba688b3f51f6c9bd08d63cb12b22402638",
      "assetIds": []
    },
    {
      "x": 179,
      "y": 268,
      "size": 1,
      "price": "1011000000000000000000",
      "reserved": "",
      "salt": "0x2fcf5a8f9515958006890dc3053a1671019e80aec1821501abccf61991ed8cdd",
      "assetIds": []
    },
    {
      "x": 179,
      "y": 267,
      "size": 1,
      "price": "1011000000000000000000",
      "reserved": "",
      "salt": "0xe511aa4d0ca4b0160bedc6f4cf2cc471f53640d5a10a31c1997b2eb3a870f7fe",
      "assetIds": []
    },
    {
      "x": 179,
      "y": 269,
      "size": 1,
      "price": "1011000000000000000000",
      "reserved": "",
      "salt": "0xa97a4c9f44b7c68686eb51c663457bc7b0272c7a3dd9d778df8626c600cc69bc",
      "assetIds": []
    },
    {
      "x": 178,
      "y": 269,
      "size": 1,
      "price": "1011000000000000000000",
      "reserved": "",
      "salt": "0xdc08422f295544ac95449473148afa59d6b80aff483ef707160115ebe1d438a9",
      "assetIds": []
    },
    {
      "x": 180,
      "y": 270,
      "size": 1,
      "price": "1011000000000000000000",
      "reserved": "",
      "salt": "0x5bc5f52312f896000ed1c072e6baa919874440ddb7765ee84dd174d6b25f3e7b",
      "assetIds": []
    },
    {
      "x": 181,
      "y": 270,
      "size": 1,
      "price": "1011000000000000000000",
      "reserved": "",
      "salt": "0x39d0540bef872790ab49eab8bde03373d03f0188e76acde93da69381d57a86b7",
      "assetIds": []
    },
    {
      "x": 182,
      "y": 270,
      "size": 1,
      "price": "1011000000000000000000",
      "reserved": "",
      "salt": "0x9201f245a5063c838d7acb528732314d0127fb013a6e035cd7a5018c4c00650a",
      "assetIds": []
    },
    {
      "x": 180,
      "y": 271,
      "size": 1,
      "price": "1011000000000000000000",
      "reserved": "",
      "salt": "0xc6ec68017da9f2277b08f19013c371fe0820e2261b3f2e176318d78220190a76",
      "assetIds": []
    },
    {
      "x": 181,
      "y": 271,
      "size": 1,
      "price": "1011000000000000000000",
      "reserved": "",
      "salt": "0x951643f46d6be66e5cd154214417ee7f814d98401d42a479b47b9dcc1d804dd0",
      "assetIds": []
    },
    {
      "x": 182,
      "y": 271,
      "size": 1,
      "price": "1011000000000000000000",
      "reserved": "",
      "salt": "0x3637cc15b66f01b78d99aa8bbe06759fa00af602e62162f612871dcd27d83265",
      "assetIds": []
    },
    {
      "x": 180,
      "y": 272,
      "size": 1,
      "price": "1011000000000000000000",
      "reserved": "",
      "salt": "0xee9a11ca0a515d4aea8a721754f9e43ae5924a591236d39472c31cc5abfce2ba",
      "assetIds": []
    },
    {
      "x": 182,
      "y": 272,
      "size": 1,
      "price": "1011000000000000000000",
      "reserved": "",
      "salt": "0x44d896ac75d396d55578caf0a8a6675fec3fd8528c3be575bf3709d24c46e4c2",
      "assetIds": []
    },
    {
      "x": 186,
      "y": 268,
      "size": 1,
      "price": "1011000000000000000000",
      "reserved": "",
      "salt": "0x4f14981392d8858d2fb4b5555a3b509ae0df53d46b244a1c0e94f6eed69ef207",
      "assetIds": []
    },
    {
      "x": 186,
      "y": 267,
      "size": 1,
      "price": "1011000000000000000000",
      "reserved": "",
      "salt": "0x33778e9f7740ae479d77550b3807b8f899da5c8d29b17fdc01de92b56f989757",
      "assetIds": []
    },
    {
      "x": 187,
      "y": 267,
      "size": 1,
      "price": "1011000000000000000000",
      "reserved": "",
      "salt": "0x40d42b5ff8c90e120f9277502c4c37ffd1c92b0943c8b55133a427e2eaefe1cb",
      "assetIds": []
    },
    {
      "x": 188,
      "y": 267,
      "size": 1,
      "price": "1011000000000000000000",
      "reserved": "",
      "salt": "0x36f2f7717faabd55cdfa0ba47c1ea891ea1059ab04a25633ad64a6eccec1daab",
      "assetIds": []
    },
    {
      "x": 189,
      "y": 267,
      "size": 1,
      "price": "1011000000000000000000",
      "reserved": "",
      "salt": "0xa42b47a76511e3acc3e2d6d51f44553d4f18f03757afe5fc5763a84619120150",
      "assetIds": []
    },
    {
      "x": 190,
      "y": 267,
      "size": 1,
      "price": "1011000000000000000000",
      "reserved": "",
      "salt": "0x30f015c728d8c84b49873780eb3fd402c322f672ab12282dd3dfe7436e0e7a55",
      "assetIds": []
    },
    {
      "x": 191,
      "y": 267,
      "size": 1,
      "price": "1011000000000000000000",
      "reserved": "",
      "salt": "0x1b60cc1918144fddb5e898cf06c7db775b0326c479cd8afdae9a5ea7e60dc5ff",
      "assetIds": []
    },
    {
      "x": 191,
      "y": 268,
      "size": 1,
      "price": "1011000000000000000000",
      "reserved": "",
      "salt": "0x66a79faf54b9801488d45e97fb0a9da26747086d64bbb65736bf699def3ed06b",
      "assetIds": []
    },
    {
      "x": 190,
      "y": 268,
      "size": 1,
      "price": "1011000000000000000000",
      "reserved": "",
      "salt": "0x3745062ead97116ae1dc84aec86a7fbe52cddc01b4ff1da4e4b50df7b88b117d",
      "assetIds": []
    },
    {
      "x": 189,
      "y": 268,
      "size": 1,
      "price": "1011000000000000000000",
      "reserved": "",
      "salt": "0x28fe41780186e7682d0c939ae31f50f0c90d5e44afcb68bcc84443b3d056503f",
      "assetIds": []
    },
    {
      "x": 188,
      "y": 268,
      "size": 1,
      "price": "1011000000000000000000",
      "reserved": "",
      "salt": "0x161f294de8a96db451d1384216c6154d667bde393b3ceeda0dba6f4519b27f72",
      "assetIds": []
    },
    {
      "x": 187,
      "y": 268,
      "size": 1,
      "price": "1011000000000000000000",
      "reserved": "",
      "salt": "0x67870a8ff4e998e00ecc6e74f0cc71d06607bb7c5336d1e163d351ff624267d0",
      "assetIds": []
    },
    {
      "x": 195,
      "y": 272,
      "size": 1,
      "price": "1011000000000000000000",
      "reserved": "",
      "salt": "0x80eac221870ca610b4c6e14fb044df29ba2af8dc3a6458698a6ff80e6e6b8eab",
      "assetIds": []
    },
    {
      "x": 194,
      "y": 272,
      "size": 1,
      "price": "1011000000000000000000",
      "reserved": "",
      "salt": "0xf2ca0780ce05410c76a74c6ea30247077082ecdc4f78500d38d9d9b9766ef331",
      "assetIds": []
    },
    {
      "x": 193,
      "y": 272,
      "size": 1,
      "price": "1011000000000000000000",
      "reserved": "",
      "salt": "0xa89b963850fc8b7e4d1d0efa212a670273b5569c0b324051199411cc82282875",
      "assetIds": []
    },
    {
      "x": 193,
      "y": 271,
      "size": 1,
      "price": "1011000000000000000000",
      "reserved": "",
      "salt": "0x4673f30b21dd59752a639228120b1f0e3ed1d811537ee0674fb5c7d6e634a776",
      "assetIds": []
    },
    {
      "x": 193,
      "y": 270,
      "size": 1,
      "price": "1011000000000000000000",
      "reserved": "",
      "salt": "0x2b59e8e7bf89178d2ee40570371d4db464d8b981398039014fe42cb2c52f2f75",
      "assetIds": []
    },
    {
      "x": 194,
      "y": 270,
      "size": 1,
      "price": "1011000000000000000000",
      "reserved": "",
      "salt": "0x7b5e3a6f32ed5333e6016991a5fd8dd54b0a276fae0cf0430ab07183e10e01a7",
      "assetIds": []
    },
    {
      "x": 195,
      "y": 270,
      "size": 1,
      "price": "1011000000000000000000",
      "reserved": "",
      "salt": "0xda6dc13d4ec53bc57f8ffc78d6b47b9a81ad1727a5fdb4d29435e50be2eb2cbb",
      "assetIds": []
    },
    {
      "x": 196,
      "y": 270,
      "size": 1,
      "price": "1011000000000000000000",
      "reserved": "",
      "salt": "0x6b691457b053becb587886b3f880ce8aabd5fbe9a422184945398c2e8e38fdc3",
      "assetIds": []
    },
    {
      "x": 197,
      "y": 270,
      "size": 1,
      "price": "1011000000000000000000",
      "reserved": "",
      "salt": "0x75540a5d8cffdc92f63b71bed02cbfaabb960f31e7798103b3089e1e8ed94737",
      "assetIds": []
    },
    {
      "x": 197,
      "y": 271,
      "size": 1,
      "price": "1011000000000000000000",
      "reserved": "",
      "salt": "0xd2d88fb47846d7401793e6af54f5d7bb62bb4695112fda27692d11d005ce0c65",
      "assetIds": []
    },
    {
      "x": 197,
      "y": 272,
      "size": 1,
      "price": "1011000000000000000000",
      "reserved": "",
      "salt": "0xf07354b24ea0d319e8609025da70f332c98d8edbf30e9d63cb19b51f874dbb39",
      "assetIds": []
    },
    {
      "x": 196,
      "y": 273,
      "size": 1,
      "price": "1011000000000000000000",
      "reserved": "",
      "salt": "0x215ff65ec80d088b58b071c279fb62bc7439011cf6b6c25d9c587837d652d772",
      "assetIds": []
    },
    {
      "x": 196,
      "y": 274,
      "size": 1,
      "price": "1011000000000000000000",
      "reserved": "",
      "salt": "0xe4f32e7863faaceda9a48f813ab74b90a7761c808c3b0dc3875c9394ff4e4664",
      "assetIds": []
    },
    {
      "x": 196,
      "y": 275,
      "size": 1,
      "price": "1011000000000000000000",
      "reserved": "",
      "salt": "0x5b196db3948c40e1aa4064fa3a3c8c9494b70e0919cc632f954b4dd76ea0f0db",
      "assetIds": []
    },
    {
      "x": 197,
      "y": 275,
      "size": 1,
      "price": "1011000000000000000000",
      "reserved": "",
      "salt": "0x3b52387e2dd663d22bd10394971bee204192178f5679b267cc9fccb4edfbc054",
      "assetIds": []
    },
    {
      "x": 197,
      "y": 274,
      "size": 1,
      "price": "1011000000000000000000",
      "reserved": "",
      "salt": "0x8d5008e9ab4488ccb2829b859324988b7c93579db3d493913e6ebad7773b0357",
      "assetIds": []
    },
    {
      "x": 197,
      "y": 273,
      "size": 1,
      "price": "1011000000000000000000",
      "reserved": "",
      "salt": "0x238f2c4cd95fa17cb362cb3db2dd7b3f9cbff747a9b56fd37d66bb1bf4c27a24",
      "assetIds": []
    },
    {
      "x": 195,
      "y": 275,
      "size": 1,
      "price": "1011000000000000000000",
      "reserved": "",
      "salt": "0x3c6375c569c8dbf9f1d200a06ce3ec9ee0955a80d66288f00dd9ffc4e84cadac",
      "assetIds": []
    },
    {
      "x": 195,
      "y": 274,
      "size": 1,
      "price": "1011000000000000000000",
      "reserved": "",
      "salt": "0xe12f75281ef6ee7b37097a436474dc91fa7b15bf51b4f6361d15086eb5bc6f95",
      "assetIds": []
    },
    {
      "x": 195,
      "y": 273,
      "size": 1,
      "price": "1011000000000000000000",
      "reserved": "",
      "salt": "0xba8ec56c7b5a276441ffa91db3b8df1fa69544009a6b097b03145cc243808fe3",
      "assetIds": []
    },
    {
      "x": 196,
      "y": 271,
      "size": 1,
      "price": "1011000000000000000000",
      "reserved": "",
      "salt": "0xbada7013d8e9e7e33790fab5fb506830b7326576a96b72dab51e103d856852ed",
      "assetIds": []
    },
    {
      "x": 194,
      "y": 271,
      "size": 1,
      "price": "1011000000000000000000",
      "reserved": "",
      "salt": "0xca7b6a7249bfd5b8f0389b4f3bac5aa0b3a22c6ee0cc68d216edec4e8383003d",
      "assetIds": []
    },
    {
      "x": 175,
      "y": 305,
      "size": 1,
      "price": "1011000000000000000000",
      "reserved": "",
      "salt": "0xa9f9345aa87b5e07484c64e487618acaf283d921bd2fc00d571936de9a9590a0",
      "assetIds": []
    },
    {
      "x": 176,
      "y": 288,
      "size": 1,
      "price": "1011000000000000000000",
      "reserved": "",
      "salt": "0x93d8726aef0ba0f81b69c83db05f38f06063c10ba042462f209edd9eef707b6e",
      "assetIds": []
    },
    {
      "x": 178,
      "y": 309,
      "size": 1,
      "price": "1011000000000000000000",
      "reserved": "0x7a9fe22691c811ea339d9b73150e6911a5343dca",
      "salt": "0x64d93368b38b7ceac5777777e7ab6fdb28e7678c8f0267952294d320fd02bdbf",
      "assetIds": []
    },
    {
      "x": 189,
      "y": 309,
      "size": 1,
      "price": "1011000000000000000000",
      "reserved": "0x7a9fe22691c811ea339d9b73150e6911a5343dca",
      "salt": "0x8bda0b5c47cc15e3c29b155e343126410c12d99c3f39dd650580b41595a622b9",
      "assetIds": []
    },
    {
      "x": 191,
      "y": 309,
      "size": 1,
      "price": "1011000000000000000000",
      "reserved": "0x7a9fe22691c811ea339d9b73150e6911a5343dca",
      "salt": "0x11e942bdd6260fa94a70f408af25519aaff8429b35d2d5158265c320664990f6",
      "assetIds": []
    },
    {
      "x": 176,
      "y": 307,
      "size": 1,
      "price": "1011000000000000000000",
      "reserved": "0x7a9fe22691c811ea339d9b73150e6911a5343dca",
      "salt": "0x716e3833bb592ad2368621126cbcaa0b6b4ee4ef9b8b2d7e9e1fa49de59ce72f",
      "assetIds": []
    },
    {
      "x": 180,
      "y": 307,
      "size": 1,
      "price": "1011000000000000000000",
      "reserved": "0x7a9fe22691c811ea339d9b73150e6911a5343dca",
      "salt": "0x45c698fa8c99a02f1c4c50f896d82573efeb38594cb4d9411d5afb40b4352df0",
      "assetIds": []
    },
    {
      "x": 175,
      "y": 304,
      "size": 1,
      "price": "1011000000000000000000",
      "reserved": "0x7a9fe22691c811ea339d9b73150e6911a5343dca",
      "salt": "0x5e3ccf0ccfdd46c1ac24e896a812ee88236db7176b674e84d909b25e9810ac6b",
      "assetIds": []
    },
    {
      "x": 181,
      "y": 302,
      "size": 1,
      "price": "1011000000000000000000",
      "reserved": "0x7a9fe22691c811ea339d9b73150e6911a5343dca",
      "salt": "0x0348894d062853cd90dc85b4bb43df0f42701ffe0d894231ba91bebef5431eff",
      "assetIds": []
    },
    {
      "x": 185,
      "y": 303,
      "size": 1,
      "price": "1011000000000000000000",
      "reserved": "0x7a9fe22691c811ea339d9b73150e6911a5343dca",
      "salt": "0x8a77fd63f57f23798657517822b69c74f87a6b43a6023bc15023195d6cb009a7",
      "assetIds": []
    },
    {
      "x": 191,
      "y": 304,
      "size": 1,
      "price": "1011000000000000000000",
      "reserved": "0x7a9fe22691c811ea339d9b73150e6911a5343dca",
      "salt": "0xa9ea1d90b505822a0f19169a8dacb63ce926939a8b88a58fa792fdcdfb617e95",
      "assetIds": []
    },
    {
      "x": 186,
      "y": 300,
      "size": 1,
      "price": "1011000000000000000000",
      "reserved": "0x7a9fe22691c811ea339d9b73150e6911a5343dca",
      "salt": "0x528b556e3f707c148a332ab1d0254e79eb38ab52133ca39ec2d7c8eb65c9a040",
      "assetIds": []
    },
    {
      "x": 176,
      "y": 300,
      "size": 1,
      "price": "1011000000000000000000",
      "reserved": "0x7a9fe22691c811ea339d9b73150e6911a5343dca",
      "salt": "0xa9f52a9ebf60cbd51012b3c24c8198c1a36acba67f02e8d26d0be05701a406d2",
      "assetIds": []
    },
    {
      "x": 195,
      "y": 299,
      "size": 1,
      "price": "1011000000000000000000",
      "reserved": "0x7a9fe22691c811ea339d9b73150e6911a5343dca",
      "salt": "0x26c535b0b2d95c289a86a4a757df6e24c72967af2d05ba7fd5daab9b2fe8f4ea",
      "assetIds": []
    },
    {
      "x": 192,
      "y": 296,
      "size": 1,
      "price": "1011000000000000000000",
      "reserved": "0x7a9fe22691c811ea339d9b73150e6911a5343dca",
      "salt": "0x09b8d23bf265b009ac35bf098268c156e94a3f145b61f218b142b661ae1d8611",
      "assetIds": []
    },
    {
      "x": 196,
      "y": 293,
      "size": 1,
      "price": "1011000000000000000000",
      "reserved": "0x7a9fe22691c811ea339d9b73150e6911a5343dca",
      "salt": "0x8302b0581086b2c63c90ea797bdf455352d64d7a7fe90470764a8c4e50308896",
      "assetIds": []
    },
    {
      "x": 176,
      "y": 291,
      "size": 1,
      "price": "1011000000000000000000",
      "reserved": "0x7a9fe22691c811ea339d9b73150e6911a5343dca",
      "salt": "0xff20c825dbd3b63d92940493f16a955cd419ae5230ded866477e2ade295cdff5",
      "assetIds": []
    },
    {
      "x": 179,
      "y": 291,
      "size": 1,
      "price": "1011000000000000000000",
      "reserved": "0x7a9fe22691c811ea339d9b73150e6911a5343dca",
      "salt": "0xea434211ae048ebdbe1642b46b0a388689d2045295864ab86f3beae0f8066576",
      "assetIds": []
    },
    {
      "x": 177,
      "y": 288,
      "size": 1,
      "price": "1011000000000000000000",
      "reserved": "0x7a9fe22691c811ea339d9b73150e6911a5343dca",
      "salt": "0xe151d01a12eccae04db748ea48d9596af2a2714cd6f10a6d52ede8aec271d4b9",
      "assetIds": []
    },
    {
      "x": 181,
      "y": 283,
      "size": 1,
      "price": "1011000000000000000000",
      "reserved": "0x7a9fe22691c811ea339d9b73150e6911a5343dca",
      "salt": "0x2374f4d6cca4fda1797b20fcf49a4213a3bc989df90294b128d26f0ef0fbce77",
      "assetIds": []
    },
    {
      "x": 184,
      "y": 283,
      "size": 1,
      "price": "1011000000000000000000",
      "reserved": "0x7a9fe22691c811ea339d9b73150e6911a5343dca",
      "salt": "0x09079d793e9d2683bc7a2e9b44feef51898356004c9a05953760c4e0bd47ed68",
      "assetIds": []
    },
    {
      "x": 192,
      "y": 286,
      "size": 1,
      "price": "1011000000000000000000",
      "reserved": "0x7a9fe22691c811ea339d9b73150e6911a5343dca",
      "salt": "0x0131eb421ec8e356f50b968421621bbb28adcc9bd4e51b2e4d68df4af3e0dfdc",
      "assetIds": []
    },
    {
      "x": 175,
      "y": 281,
      "size": 1,
      "price": "1011000000000000000000",
      "reserved": "0x7a9fe22691c811ea339d9b73150e6911a5343dca",
      "salt": "0x29c0f9289a707a038f3f971d524f306cf61d0bdfb12a41452364f72a8e61ec8a",
      "assetIds": []
    },
    {
      "x": 177,
      "y": 281,
      "size": 1,
      "price": "1011000000000000000000",
      "reserved": "0x7a9fe22691c811ea339d9b73150e6911a5343dca",
      "salt": "0x1d9493f76f809f22b05c762d1f444be0edc36fc5fab5e8f15a19a9e304f005ee",
      "assetIds": []
    },
    {
      "x": 177,
      "y": 279,
      "size": 1,
      "price": "1011000000000000000000",
      "reserved": "0x7a9fe22691c811ea339d9b73150e6911a5343dca",
      "salt": "0x7dc8a931bd0826f6b35ebf3b2f4d8691ac4d97d1b0728896cd8f6b49e48122fb",
      "assetIds": []
    },
    {
      "x": 183,
      "y": 280,
      "size": 1,
      "price": "1011000000000000000000",
      "reserved": "0x7a9fe22691c811ea339d9b73150e6911a5343dca",
      "salt": "0x1f771a0ef32643a65e003681ed47dc7a3b4b961e28f7f5e6c6d56962f822081d",
      "assetIds": []
    },
    {
      "x": 177,
      "y": 277,
      "size": 1,
      "price": "1011000000000000000000",
      "reserved": "0x7a9fe22691c811ea339d9b73150e6911a5343dca",
      "salt": "0x471968810081cb46818e37a56a472ed92022208f1ce601091427a6b9661a1c49",
      "assetIds": []
    },
    {
      "x": 181,
      "y": 276,
      "size": 1,
      "price": "1011000000000000000000",
      "reserved": "0x7a9fe22691c811ea339d9b73150e6911a5343dca",
      "salt": "0x0266a5bb6ff1a9562e3ae0303c36908654672d313762d297a1376fd110c8889b",
      "assetIds": []
    },
    {
      "x": 189,
      "y": 276,
      "size": 1,
      "price": "1011000000000000000000",
      "reserved": "0x7a9fe22691c811ea339d9b73150e6911a5343dca",
      "salt": "0x16c9e5a2a4b3cd4cf762dcd0bc2be726c8721ecf1ee79dd16dbe364527302e20",
      "assetIds": []
    },
    {
      "x": 183,
      "y": 274,
      "size": 1,
      "price": "1011000000000000000000",
      "reserved": "0x7a9fe22691c811ea339d9b73150e6911a5343dca",
      "salt": "0x22eecfc0908331ad899a5d24272dd44d14344376388dbe78a046e14e0671e5ac",
      "assetIds": []
    },
    {
      "x": 181,
      "y": 272,
      "size": 1,
      "price": "1011000000000000000000",
      "reserved": "0x7a9fe22691c811ea339d9b73150e6911a5343dca",
      "salt": "0xd0f63ac921852ca3e930c0afba9ae88d3de375d2a3169cbed8b87b6e5320c0e9",
      "assetIds": []
    },
    {
      "x": 174,
      "y": 275,
      "size": 1,
      "price": "1011000000000000000000",
      "reserved": "0x7a9fe22691c811ea339d9b73150e6911a5343dca",
      "salt": "0xddcb3ff0c74e658193564fd5f96a7616ae58162f9ec4421430f8f40375c7b658",
      "assetIds": []
    },
    {
      "x": 174,
      "y": 271,
      "size": 1,
      "price": "1011000000000000000000",
      "reserved": "0x7a9fe22691c811ea339d9b73150e6911a5343dca",
      "salt": "0x579351ea6848ce803e9b10d497eb151603584f1926c7e97924c9aaf48e4cd931",
      "assetIds": []
    },
    {
      "x": 170,
      "y": 271,
      "size": 1,
      "price": "1011000000000000000000",
      "reserved": "0x7a9fe22691c811ea339d9b73150e6911a5343dca",
      "salt": "0x25dd7651630066e6f30b2067ead42b322e332a0d669103490473e0f0cab195a1",
      "assetIds": []
    },
    {
      "x": 188,
      "y": 269,
      "size": 1,
      "price": "1011000000000000000000",
      "reserved": "0x7a9fe22691c811ea339d9b73150e6911a5343dca",
      "salt": "0x2f7fc5eb3d0b8dcb9d89f6d405306bbdaa6a487e658872ef751cd0a3801be93f",
      "assetIds": []
    },
    {
      "x": 195,
      "y": 271,
      "size": 1,
      "price": "1011000000000000000000",
      "reserved": "0x7a9fe22691c811ea339d9b73150e6911a5343dca",
      "salt": "0xee62d8644eaa3a146ce2dfe419e7adf37b18babd69981bed8f0ced4081312657",
      "assetIds": []
    }
  ],
  "solcInputHash": "c036f79ccddd697b5a9602e7ef0ca71e",
  "bytecode": "0x6101606040523480156200001257600080fd5b50604051620031e9380380620031e983398181016040526101a08110156200003957600080fd5b508051602082015160408301516060840151608085015160a086015160c087015160e08801516101008901516101208a01516101408b01516101608c0151610180909c015160016000559a9b999a9899979896979596949593949293919290919085856001600160a01b038216620000f8576040805162461bcd60e51b815260206004820152601f60248201527f526566657272616c56616c696461746f723a207a65726f206164647265737300604482015290519081900360640190fd5b600380546001600160a01b0319166001600160a01b0393841617905560045562000130908e1662000459602090811b62002adc17901c565b6200016d5760405162461bcd60e51b8152600401808060200182810382526025815260200180620031c46025913960400191505060405180910390fd5b6200018c8c6001600160a01b03166200045960201b62002adc1760201c565b620001c95760405162461bcd60e51b8152600401808060200182810382526025815260200180620031c46025913960400191505060405180910390fd5b6001600160a01b038b1662000214576040805162461bcd60e51b815260206004820181905260248201526000805160206200317f833981519152604482015290519081900360640190fd5b6001600160a01b038a166200025f576040805162461bcd60e51b815260206004820181905260248201526000805160206200317f833981519152604482015290519081900360640190fd5b6001600160a01b038916620002aa576040805162461bcd60e51b815260206004820181905260248201526000805160206200317f833981519152604482015290519081900360640190fd5b620002c9836001600160a01b03166200045960201b62002adc1760201c565b620003065760405162461bcd60e51b8152600401808060200182810382526025815260200180620031c46025913960400191505060405180910390fd5b6001600160a01b03821662000351576040805162461bcd60e51b815260206004820181905260248201526000805160206200317f833981519152604482015290519081900360640190fd5b62000370816001600160a01b03166200045960201b62002adc1760201c565b620003ad5760405162461bcd60e51b8152600401808060200182810382526025815260200180620031c46025913960400191505060405180910390fd5b6001600160601b031960608e811b821660a0528d901b1660c052620003dd8b60016001600160e01b036200045f16565b600680546001600160a01b039a8b166001600160a01b031991821617909155610140989098526101209690965260018054998916998816999099179098556001600160601b0319606092831b811660e05290821b811660805296901b909516610100525060078054919093169116179055506200050a92505050565b3b151590565b6001600160a01b038216620004a65760405162461bcd60e51b81526004018080602001828103825260258152602001806200319f6025913960400191505060405180910390fd5b6001600160a01b038216600081815260026020908152604091829020805460ff191685151590811790915582519384529083015280517fb21eb88b4e33b3f1281830a7178d74d8aa73220416215726b68ae23d539515cb9281900390910190a15050565b60805160601c60a05160601c60c05160601c60e05160601c6101005160601c6101205161014051612bef6200059060003980610be0528061247e525080610bbc528061159d5250806124fc525080611af25280611c4f525080611aa85280611e4e52806124d9525080611b235280611c205250806111075280611f3a5250612bef6000f3fe608060405234801561001057600080fd5b50600436106101365760003560e01c8063984d6252116100b2578063c10a420811610081578063dc5074af11610066578063dc5074af146108a0578063e56f8a9e146108c6578063f23a6e61146108e357610136565b8063c10a4208146107c1578063caed35001461089857610136565b8063984d62521461055f578063ab1cc78c14610631578063b522ecff14610639578063bc197c811461065f57610136565b806365194ce71161010957806378e6e5b9116100ee57806378e6e5b9146104e55780638a04af6a1461050b5780638f2839701461053957610136565b806365194ce7146103635780636e9960c3146104c157610136565b80631187fd3c1461013b57806325cb5bc01461031b578063495906571461033557806358bc29441461033d575b600080fd5b610319600480360361012081101561015257600080fd5b6001600160a01b038235811692602081013582169260408201359092169181019060808101606082013564010000000081111561018e57600080fd5b8201836020820111156101a057600080fd5b803590602001918460208302840111640100000000831117156101c257600080fd5b919390928235926040810190602001356401000000008111156101e457600080fd5b8201836020820111156101f657600080fd5b8035906020019184602083028401116401000000008311171561021857600080fd5b91939092909160208101903564010000000081111561023657600080fd5b82018360208201111561024857600080fd5b8035906020019184602083028401116401000000008311171561026a57600080fd5b91939092909160208101903564010000000081111561028857600080fd5b82018360208201111561029a57600080fd5b803590602001918460018302840111640100000000831117156102bc57600080fd5b9193909290916020810190356401000000008111156102da57600080fd5b8201836020820111156102ec57600080fd5b8035906020019184600183028401116401000000008311171561030e57600080fd5b509092509050610978565b005b610323610bba565b60408051918252519081900360200190f35b610323610bde565b6103196004803603602081101561035357600080fd5b50356001600160a01b0316610c02565b6104096004803603602081101561037957600080fd5b81019060208101813564010000000081111561039457600080fd5b8201836020820111156103a657600080fd5b803590602001918460018302840111640100000000831117156103c857600080fd5b91908080601f016020809104026020016040519081016040528093929190818152602001838380828437600092019190915250929550610d2e945050505050565b6040518080602001866001600160a01b03166001600160a01b03168152602001856001600160a01b03166001600160a01b03168152602001848152602001838152602001828103825287818151815260200191508051906020019080838360005b8381101561048257818101518382015260200161046a565b50505050905090810190601f1680156104af5780820380516001836020036101000a031916815260200191505b50965050505050505060405180910390f35b6104c9610e33565b604080516001600160a01b039092168252519081900360200190f35b610319600480360360208110156104fb57600080fd5b50356001600160a01b0316610e42565b6103196004803603604081101561052157600080fd5b506001600160a01b0381351690602001351515610f00565b6103196004803603602081101561054f57600080fd5b50356001600160a01b0316610f6d565b6103196004803603606081101561057557600080fd5b6001600160a01b0382351691908101906040810160208201356401000000008111156105a057600080fd5b8201836020820111156105b257600080fd5b803590602001918460208302840111640100000000831117156105d457600080fd5b9193909290916020810190356401000000008111156105f257600080fd5b82018360208201111561060457600080fd5b8035906020019184602083028401116401000000008311171561062657600080fd5b5090925090506110a6565b610323611231565b6103196004803603602081101561064f57600080fd5b50356001600160a01b0316611237565b61078c600480360360a081101561067557600080fd5b6001600160a01b0382358116926020810135909116918101906060810160408201356401000000008111156106a957600080fd5b8201836020820111156106bb57600080fd5b803590602001918460208302840111640100000000831117156106dd57600080fd5b9193909290916020810190356401000000008111156106fb57600080fd5b82018360208201111561070d57600080fd5b8035906020019184602083028401116401000000008311171561072f57600080fd5b91939092909160208101903564010000000081111561074d57600080fd5b82018360208201111561075f57600080fd5b8035906020019184600183028401116401000000008311171561078157600080fd5b509092509050611348565b604080517fffffffff000000000000000000000000000000000000000000000000000000009092168252519081900360200190f35b610884600480360360a08110156107d757600080fd5b8101906020810181356401000000008111156107f257600080fd5b82018360208201111561080457600080fd5b8035906020019184600183028401116401000000008311171561082657600080fd5b91908080601f016020809104026020016040519081016040528093929190818152602001838380828437600092019190915250929550506001600160a01b038335811694506020840135169260408101359250606001359050611375565b604080519115158252519081900360200190f35b6104c96114b1565b610884600480360360208110156108b657600080fd5b50356001600160a01b03166114c0565b610319600480360360208110156108dc57600080fd5b50356114de565b61078c600480360360a08110156108f957600080fd5b6001600160a01b03823581169260208101359091169160408201359160608101359181019060a08101608082013564010000000081111561093957600080fd5b82018360208201111561094b57600080fd5b8035906020019184600183028401116401000000008311171561096d57600080fd5b509092509050611570565b600260005414156109d0576040805162461bcd60e51b815260206004820152601f60248201527f5265656e7472616e637947756172643a207265656e7472616e742063616c6c00604482015290519081900360640190fd5b60026000556109df8e8d61159b565b610ad68d8d8d8d80806020026020016040519081016040528093929190818152602001838360200280828437600081840152601f19601f820116905080830192505050505050508c8c8c80806020026020016040519081016040528093929190818152602001838360200280828437600081840152601f19601f820116905080830192505050505050508b8b8080602002602001604051908101604052809392919081815260200183836020028082843760009201919091525050604080516020601f8d018190048102820181019092528b815292508b91508a90819084018382808284376000920191909152506116fe92505050565b610b2a8e8c8c6003818110610ae757fe5b9050602002013586868080601f016020809104026020016040519081016040528093929190818152602001838380828437600092019190915250611a8192505050565b610b688e8e8d8d80806020026020016040519081016040528093929190818152602001838360200280828437600092019190915250611ad292505050565b610ba58d898980806020026020016040519081016040528093929190818152602001838360200280828437600092019190915250611ec392505050565b50506001600055505050505050505050505050565b7f000000000000000000000000000000000000000000000000000000000000000090565b7f000000000000000000000000000000000000000000000000000000000000000090565b6001546001600160a01b03163314610c61576040805162461bcd60e51b815260206004820152601260248201527f6f6e6c792061646d696e20616c6c6f7765640000000000000000000000000000604482015290519081900360640190fd5b6001600160a01b038116610cbc576040805162461bcd60e51b815260206004820152601f60248201527f526566657272616c56616c696461746f723a207a65726f206164647265737300604482015290519081900360640190fd5b600380546001600160a01b03908116600090815260056020526040808220620d2f0042019055835473ffffffffffffffffffffffffffffffffffffffff1916928516928317909355915190917fbbb5fb2ee7e707ae0c968f63e94211ea81e66a718c34e2f810a7619e5678a21791a250565b606060008060008060606000806000808a80602001905160a0811015610d5357600080fd5b8101908080516040519392919084640100000000821115610d7357600080fd5b908301906020820185811115610d8857600080fd5b8251640100000000811182820188101715610da257600080fd5b82525081516020918201929091019080838360005b83811015610dcf578181015183820152602001610db7565b50505050905090810190601f168015610dfc5780820380516001836020036101000a031916815260200191505b5060409081526020820151908201516060830151608090930151959f50909d509b5099509197505050505050505091939590929450565b6001546001600160a01b031690565b6001546001600160a01b03163314610e8b5760405162461bcd60e51b8152600401808060200182810382526023815260200180612b056023913960400191505060405180910390fd5b6001600160a01b038116610ee6576040805162461bcd60e51b815260206004820152601f60248201527f526566657272616c56616c696461746f723a207a65726f206164647265737300604482015290519081900360640190fd5b6001600160a01b0316600090815260056020526040812055565b6001546001600160a01b03163314610f5f576040805162461bcd60e51b815260206004820152601260248201527f6f6e6c792061646d696e20616c6c6f7765640000000000000000000000000000604482015290519081900360640190fd5b610f698282612087565b5050565b6001546001600160a01b03163314610fcc576040805162461bcd60e51b815260206004820152601b60248201527f6f6e6c792061646d696e2063616e206368616e67652061646d696e0000000000604482015290519081900360640190fd5b6001546001600160a01b038281169116141561102f576040805162461bcd60e51b815260206004820152600d60248201527f616c72656164792061646d696e00000000000000000000000000000000000000604482015290519081900360640190fd5b600154604080516001600160a01b039283168152918316602083015280517f7e644d79422f17c01e4894b5f4f588d331ebfa28653d42ae832dc59e38c9798f9281900390910190a16001805473ffffffffffffffffffffffffffffffffffffffff19166001600160a01b0392909216919091179055565b6001546001600160a01b03163314611105576040805162461bcd60e51b815260206004820152600e60248201527f4e4f545f415554484f52495a4544000000000000000000000000000000000000604482015290519081900360640190fd5b7f00000000000000000000000000000000000000000000000000000000000000006001600160a01b0316632eb2c2d63087878787876040518763ffffffff1660e01b815260040180876001600160a01b03166001600160a01b03168152602001866001600160a01b03166001600160a01b031681526020018060200180602001806020018481038452888882818152602001925060200280828437600083820152601f01601f19169091018581038452868152602090810191508790870280828437600081840152601f19601f8201169050808301925050508481038252600081526020016020019950505050505050505050600060405180830381600087803b15801561121257600080fd5b505af1158015611226573d6000803e3d6000fd5b505050505050505050565b60045490565b6001600160a01b038116611292576040805162461bcd60e51b815260206004820152600c60248201527f5a45524f5f414444524553530000000000000000000000000000000000000000604482015290519081900360640190fd5b6001546001600160a01b031633146112f1576040805162461bcd60e51b815260206004820152600e60248201527f4e4f545f415554484f52495a4544000000000000000000000000000000000000604482015290519081900360640190fd5b6006805473ffffffffffffffffffffffffffffffffffffffff19166001600160a01b0383169081179091556040517f4d66958b757eb92a1b43d02be4c38c9500b73f532420ee3706cb43d420ba023690600090a250565b7fbc197c810000000000000000000000000000000000000000000000000000000098975050505050505050565b60006004548211806113985750836001600160a01b0316856001600160a01b0316145b806113a257508242115b156113af575060006114a8565b60408051606087811b7fffffffffffffffffffffffffffffffffffffffff0000000000000000000000009081166020808501919091529188901b166034830152604882018690526068808301869052835180840390910181526088830184528051908201207f19457468657265756d205369676e6564204d6573736167653a0a33320000000060a884015260c48084018290528451808503909101815260e49093019093528151910120600090611466908961214e565b6001600160a01b0381166000908152600560205260409020549091504211611493576001925050506114a8565b6003546001600160a01b039081169116149150505b95945050505050565b6003546001600160a01b031690565b6001600160a01b031660009081526002602052604090205460ff1690565b6001546001600160a01b0316331461153d576040805162461bcd60e51b815260206004820152601260248201527f6f6e6c792061646d696e20616c6c6f7765640000000000000000000000000000604482015290519081900360640190fd5b600481905560405181907f774069781371d65424b3b0b101c1d40014532cac040f979595b99a3fcf8ce08c90600090a250565b7ff23a6e61000000000000000000000000000000000000000000000000000000009695505050505050565b7f0000000000000000000000000000000000000000000000000000000000000000421061160f576040805162461bcd60e51b815260206004820152600c60248201527f53414c455f49535f4f5645520000000000000000000000000000000000000000604482015290519081900360640190fd5b6001600160a01b03821633148061163557503360009081526002602052604090205460ff165b611686576040805162461bcd60e51b815260206004820152600e60248201527f4e4f545f415554484f52495a4544000000000000000000000000000000000000604482015290519081900360640190fd5b6001600160a01b03811615806116ad5750816001600160a01b0316816001600160a01b0316145b610f69576040805162461bcd60e51b815260206004820152600d60248201527f52455345525645445f4c414e4400000000000000000000000000000000000000604482015290519081900360640190fd5b600087878760008151811061170f57fe5b60200260200101518860018151811061172457fe5b60200260200101518960028151811061173957fe5b60200260200101518a60038151811061174e57fe5b60200260200101518a8a60405160200180828051906020019060200280838360005b83811015611788578181015183820152602001611770565b50505050905001915050604051602081830303815290604052805190602001208a60405160200180828051906020019060200280838360005b838110156117d95781810151838201526020016117c1565b5050505090500191505060405160208183030381529060405280519060200120604051602001808a6001600160a01b03166001600160a01b031660601b8152601401896001600160a01b03166001600160a01b031660601b81526014018881526020018781526020018681526020018581526020018481526020018381526020018281526020019950505050505050505050604051602081830303815290604052805190602001209050600760009054906101000a90046001600160a01b03166001600160a01b031663012847ed83836040518363ffffffff1660e01b81526004018080602001838152602001828103825284818151815260200191508051906020019080838360005b838110156118fb5781810151838201526020016118e3565b50505050905090810190601f1680156119285780820380516001836020036101000a031916815260200191505b50935050505060206040518083038186803b15801561194657600080fd5b505afa15801561195a573d6000803e3d6000fd5b505050506040513d602081101561197057600080fd5b50516119c3576040805162461bcd60e51b815260206004820152600c60248201527f494e56414c49445f415554480000000000000000000000000000000000000000604482015290519081900360640190fd5b6000611a24876000815181106119d557fe5b6020026020010151886001815181106119ea57fe5b6020026020010151896002815181106119ff57fe5b60200260200101518a600381518110611a1457fe5b60200260200101518c8b8b612337565b9050611a3084826123dc565b611226576040805162461bcd60e51b815260206004820152600c60248201527f494e56414c49445f4c414e440000000000000000000000000000000000000000604482015290519081900360640190fd5b6000611a8d84846124a5565b600654909150611acc908590839085906001600160a01b03167f000000000000000000000000000000000000000000000000000000000000000061253f565b50505050565b80600281518110611adf57fe5b602002602001015160011480611b1c57507f00000000000000000000000000000000000000000000000000000000000000006001600160a01b0316155b15611c1e577f00000000000000000000000000000000000000000000000000000000000000006001600160a01b0316636e1e3bbf8383600281518110611b5e57fe5b602002602001015184600081518110611b7357fe5b602002602001015185600181518110611b8857fe5b60200260200101516040518563ffffffff1660e01b815260040180856001600160a01b03166001600160a01b031681526020018481526020018381526020018281526020018060200182810382526000815260200160200195505050505050600060405180830381600087803b158015611c0157600080fd5b505af1158015611c15573d6000803e3d6000fd5b50505050611dbe565b7f00000000000000000000000000000000000000000000000000000000000000006001600160a01b0316636e1e3bbf7f000000000000000000000000000000000000000000000000000000000000000083600281518110611c7b57fe5b602002602001015184600081518110611c9057fe5b602002602001015185600181518110611ca557fe5b60200260200101518760405160200180826001600160a01b03166001600160a01b031681526020019150506040516020818303038152906040526040518663ffffffff1660e01b815260040180866001600160a01b03166001600160a01b0316815260200185815260200184815260200183815260200180602001828103825283818151815260200191508051906020019080838360005b83811015611d55578181015183820152602001611d3d565b50505050905090810190601f168015611d825780820380516001836020036101000a031916815260200191505b509650505050505050600060405180830381600087803b158015611da557600080fd5b505af1158015611db9573d6000803e3d6000fd5b505050505b61019881600181518110611dce57fe5b60200260200101510281600081518110611de457fe5b602002602001015101826001600160a01b0316846001600160a01b03167fe4dfa6ac11314892f3029b34a25b1a887da3b1cab2bbf8506d87128ba6e3ac0284600281518110611e2f57fe5b602002602001015185600381518110611e4457fe5b60200260200101517f000000000000000000000000000000000000000000000000000000000000000087600381518110611e7a57fe5b602002602001015160405180858152602001848152602001836001600160a01b03166001600160a01b0316815260200182815260200194505050505060405180910390a4505050565b6060815167ffffffffffffffff81118015611edd57600080fd5b50604051908082528060200260200182016040528015611f07578160200160208202803683370190505b50905060005b8251811015611f37576001828281518110611f2457fe5b6020908102919091010152600101611f0d565b507f00000000000000000000000000000000000000000000000000000000000000006001600160a01b0316632eb2c2d6308585856040518563ffffffff1660e01b815260040180856001600160a01b03166001600160a01b03168152602001846001600160a01b03166001600160a01b03168152602001806020018060200180602001848103845286818151815260200191508051906020019060200280838360005b83811015611ff2578181015183820152602001611fda565b50505050905001848103835285818151815260200191508051906020019060200280838360005b83811015612031578181015183820152602001612019565b50505050905001848103825260008152602001602001975050505050505050600060405180830381600087803b15801561206a57600080fd5b505af115801561207e573d6000803e3d6000fd5b50505050505050565b6001600160a01b0382166120cc5760405162461bcd60e51b8152600401808060200182810382526025815260200180612b6b6025913960400191505060405180910390fd5b6001600160a01b03821660008181526002602090815260409182902080547fffffffffffffffffffffffffffffffffffffffffffffffffffffffffffffff001685151590811790915582519384529083015280517fb21eb88b4e33b3f1281830a7178d74d8aa73220416215726b68ae23d539515cb9281900390910190a15050565b600081516041146121a6576040805162461bcd60e51b815260206004820152601f60248201527f45434453413a20696e76616c6964207369676e6174757265206c656e67746800604482015290519081900360640190fd5b60208201516040830151606084015160001a7f7fffffffffffffffffffffffffffffff5d576e7357a4501ddfe92f46681b20a08211156122175760405162461bcd60e51b8152600401808060200182810382526022815260200180612ae36022913960400191505060405180910390fd5b8060ff16601b1415801561222f57508060ff16601c14155b1561226b5760405162461bcd60e51b8152600401808060200182810382526022815260200180612b286022913960400191505060405180910390fd5b60408051600080825260208083018085528a905260ff85168385015260608301879052608083018690529251909260019260a080820193601f1981019281900390910190855afa1580156122c3573d6000803e3d6000fd5b5050604051601f1901519150506001600160a01b03811661232b576040805162461bcd60e51b815260206004820152601860248201527f45434453413a20696e76616c6964207369676e61747572650000000000000000604482015290519081900360640190fd5b93505050505b92915050565b60008787878787878760405160200180888152602001878152602001868152602001858152602001846001600160a01b03166001600160a01b031660601b8152601401838152602001828051906020019060200280838360005b838110156123a9578181015183820152602001612391565b50505050905001975050505050505050604051602081830303815290604052805190602001209050979650505050505050565b600081815b845181101561247b5760008582815181106123f857fe5b60200260200101519050808310156124405782816040516020018083815260200182815260200192505050604051602081830303815290604052805190602001209250612472565b808360405160200180838152602001828152602001925050506040516020818303038152906040528051906020012092505b506001016123e1565b507f0000000000000000000000000000000000000000000000000000000000000000149392505050565b6000806124ca60646124be85600563ffffffff61264716565b9063ffffffff6126a716565b90506125276001600160a01b037f000000000000000000000000000000000000000000000000000000000000000016857f00000000000000000000000000000000000000000000000000000000000000008463ffffffff6126e916565b612537838263ffffffff61277116565b949350505050565b8251819085901561262c57606060008060008061255b8a610d2e565b93985091965094509250905060006125768686868686611375565b15612604576125906125888d84612647565b6127106126a7565b9050886001600160a01b0316846001600160a01b0316866001600160a01b03167fac7a699eb95c3c6d390ec4626de17ef9a67b35891efdb197beba7c7fdd45fac48f858760405180848152602001838152602001828152602001935050505060405180910390a46126018782612771565b96505b8015612625576126256001600160a01b0389168e878463ffffffff6126e916565b5050505050505b61207e6001600160a01b03831688868463ffffffff6126e916565b60008261265657506000612331565b8282028284828161266357fe5b04146126a05760405162461bcd60e51b8152600401808060200182810382526021815260200180612b4a6021913960400191505060405180910390fd5b9392505050565b60006126a083836040518060400160405280601a81526020017f536166654d6174683a206469766973696f6e206279207a65726f0000000000008152506127b3565b604080516001600160a01b0380861660248301528416604482015260648082018490528251808303909101815260849091019091526020810180517bffffffffffffffffffffffffffffffffffffffffffffffffffffffff167f23b872dd00000000000000000000000000000000000000000000000000000000179052611acc908590612855565b60006126a083836040518060400160405280601e81526020017f536166654d6174683a207375627472616374696f6e206f766572666c6f77000081525061290b565b6000818361283f5760405162461bcd60e51b81526004018080602001828103825283818151815260200191508051906020019080838360005b838110156128045781810151838201526020016127ec565b50505050905090810190601f1680156128315780820380516001836020036101000a031916815260200191505b509250505060405180910390fd5b50600083858161284b57fe5b0495945050505050565b60606128aa826040518060400160405280602081526020017f5361666545524332303a206c6f772d6c6576656c2063616c6c206661696c6564815250856001600160a01b03166129659092919063ffffffff16565b805190915015612906578080602001905160208110156128c957600080fd5b50516129065760405162461bcd60e51b815260040180806020018281038252602a815260200180612b90602a913960400191505060405180910390fd5b505050565b6000818484111561295d5760405162461bcd60e51b81526020600482018181528351602484015283519092839260449091019190850190808383600083156128045781810151838201526020016127ec565b505050900390565b60606125378484600085606061297a85612adc565b6129cb576040805162461bcd60e51b815260206004820152601d60248201527f416464726573733a2063616c6c20746f206e6f6e2d636f6e7472616374000000604482015290519081900360640190fd5b60006060866001600160a01b031685876040518082805190602001908083835b60208310612a0a5780518252601f1990920191602091820191016129eb565b6001836020036101000a03801982511681845116808217855250505050505090500191505060006040518083038185875af1925050503d8060008114612a6c576040519150601f19603f3d011682016040523d82523d6000602084013e612a71565b606091505b50915091508115612a855791506125379050565b805115612a955780518082602001fd5b60405162461bcd60e51b81526020600482018181528651602484015286518793919283926044019190850190808383600083156128045781810151838201526020016127ec565b3b15159056fe45434453413a20696e76616c6964207369676e6174757265202773272076616c7565526566657272616c56616c696461746f723a2053656e646572206e6f742061646d696e45434453413a20696e76616c6964207369676e6174757265202776272076616c7565536166654d6174683a206d756c7469706c69636174696f6e206f766572666c6f774d6574615472616e73616374696f6e52656365697665723a207a65726f20616464726573735361666545524332303a204552433230206f7065726174696f6e20646964206e6f742073756363656564a264697066735822122077f2d13cbcb85fa08010a53c1e4ef27117b031e8c1c9273d55cef362af299f3164736f6c6343000605003345737461746553616c6557697468417574683a207a65726f20616464726573734d6574615472616e73616374696f6e52656365697665723a207a65726f206164647265737345737461746553616c6557697468417574683a206973206e6f74206120636f6e7472616374",
  "devdoc": {
    "methods": {
      "buyLandWithSand(address,address,address,uint256[],bytes32,uint256[],bytes32[],bytes,bytes)": {
        "params": {
          "assetIds": "asset ids (lands) that will be bought",
          "buyer": "address that perform the payment",
          "info": "[X_INDEX=0] x coordinate of the Land [Y_INDEX=1] y coordinate of the Land [SIZE_INDEX=2] size of the pack of Land to purchase [PRICE_INDEX=3] price in SAND to purchase that Land",
          "proof": "merkleProof for that particular Land",
          "referral": "referral id",
          "reserved": "the reserved address (if any)",
          "salt": "The salt submitted for verification.",
          "signature": "A signed message specifying tx details",
          "to": "address that will own the purchased Land"
        }
      },
      "changeAdmin(address)": {
        "details": "change the administrator to be `newAdmin`.",
        "params": {
          "newAdmin": "address of the new administrator."
        }
      },
      "disablePreviousSigningWallet(address)": {
        "details": "Disable compromised signing wallet",
        "params": {
          "disableWallet": "The wallet address to be disabled"
        }
      },
      "getAdmin()": {
        "details": "gives the current administrator of this contract.",
        "returns": {
          "_0": "the current administrator of this contract."
        }
      },
      "getSigningWallet()": {
        "details": "signing wallet authorized for referral",
        "returns": {
          "_0": "the address of the signing wallet"
        }
      },
      "isMetaTransactionProcessor(address)": {
        "details": "check whether address `who` is given meta-transaction execution rights.",
        "params": {
          "who": "The address to query."
        },
        "returns": {
          "_0": "whether the address has meta-transaction execution rights."
        }
      },
      "isReferralValid(bytes,address,address,uint256,uint256)": {
        "params": {
          "commissionRate": "The commissionRate of the referral",
          "expiryTime": "The expiry time of the referral",
          "referee": "The address of the referee",
          "referrer": "The address of the referrer",
          "signature": "The signature to check (signed referral)"
        },
        "returns": {
          "_0": "True if the referral is valid"
        }
      },
      "setMetaTransactionProcessor(address,bool)": {
        "details": "Enable or disable the ability of `metaTransactionProcessor` to perform meta-tx (metaTransactionProcessor rights).",
        "params": {
          "enabled": "set whether the metaTransactionProcessor is enabled or disabled.",
          "metaTransactionProcessor": "address that will be given/removed metaTransactionProcessor rights."
        }
      },
      "setReceivingWallet(address)": {
        "params": {
          "newWallet": "address of the new receiving wallet"
        }
      },
      "updateMaxCommissionRate(uint256)": {
        "details": "Update the maximum commission rate",
        "params": {
          "newMaxCommissionRate": "The new maximum commission rate"
        }
      },
      "updateSigningWallet(address)": {
        "details": "Update the signing wallet The previous wallet is still valid for a grace period (_previousSigningDelay). If you want to disable the previous wallet, use the disablePreviousSigningWallet function.",
        "params": {
          "newSigningWallet": "The new address of the signing wallet"
        }
      },
      "withdrawAssets(address,uint256[],uint256[])": {
        "params": {
          "assetIds": "the assetIds to be transferred",
          "to": "intended recipient of the asset tokens",
          "values": "the quantities of the assetIds to be transferred"
        }
      }
    },
    "title": "Estate Sale contract with referral"
  },
  "userdoc": {
    "methods": {
      "buyLandWithSand(address,address,address,uint256[],bytes32,uint256[],bytes32[],bytes,bytes)": {
        "notice": "buy Land with SAND using the merkle proof associated with it"
      },
      "getExpiryTime()": {
        "notice": "Gets the expiry time for the current sale"
      },
      "getMaxCommissionRate()": {
        "notice": "the max commission rate"
      },
      "getMerkleRoot()": {
        "notice": "Gets the Merkle root associated with the current sale"
      },
      "isReferralValid(bytes,address,address,uint256,uint256)": {
        "notice": "Check if a referral is valid"
      },
      "setReceivingWallet(address)": {
        "notice": "set the wallet receiving the proceeds"
      },
      "withdrawAssets(address,uint256[],uint256[])": {
        "notice": "enable Admin to withdraw remaining assets from EstateSaleWithFee contract"
      }
    },
    "notice": "This contract manages the sale of our lands as Estates"
  },
  "storageLayout": {
    "storage": [
      {
        "astId": 1129,
        "contract": "src/solc_0.6/EstateSale/EstateSaleWithAuth.sol:EstateSaleWithAuth",
        "label": "_status",
        "offset": 0,
        "slot": "0",
        "type": "t_uint256"
      },
      {
        "astId": 14099,
        "contract": "src/solc_0.6/EstateSale/EstateSaleWithAuth.sol:EstateSaleWithAuth",
        "label": "_admin",
        "offset": 0,
        "slot": "1",
        "type": "t_address"
      },
      {
        "astId": 14168,
        "contract": "src/solc_0.6/EstateSale/EstateSaleWithAuth.sol:EstateSaleWithAuth",
        "label": "_metaTransactionContracts",
        "offset": 0,
        "slot": "2",
        "type": "t_mapping(t_address,t_bool)"
      },
      {
        "astId": 12200,
        "contract": "src/solc_0.6/EstateSale/EstateSaleWithAuth.sol:EstateSaleWithAuth",
        "label": "_signingWallet",
        "offset": 0,
        "slot": "3",
        "type": "t_address"
      },
      {
        "astId": 12202,
        "contract": "src/solc_0.6/EstateSale/EstateSaleWithAuth.sol:EstateSaleWithAuth",
        "label": "_maxCommissionRate",
        "offset": 0,
        "slot": "4",
        "type": "t_uint256"
      },
      {
        "astId": 12206,
        "contract": "src/solc_0.6/EstateSale/EstateSaleWithAuth.sol:EstateSaleWithAuth",
        "label": "_previousSigningWallets",
        "offset": 0,
        "slot": "5",
        "type": "t_mapping(t_address,t_uint256)"
      },
      {
        "astId": 7750,
        "contract": "src/solc_0.6/EstateSale/EstateSaleWithAuth.sol:EstateSaleWithAuth",
        "label": "_wallet",
        "offset": 0,
        "slot": "6",
        "type": "t_address_payable"
      },
      {
        "astId": 7752,
        "contract": "src/solc_0.6/EstateSale/EstateSaleWithAuth.sol:EstateSaleWithAuth",
        "label": "_authValidator",
        "offset": 0,
        "slot": "7",
        "type": "t_contract(AuthValidator)7063"
      }
    ],
    "types": {
      "t_address": {
        "encoding": "inplace",
        "label": "address",
        "numberOfBytes": "20"
      },
      "t_address_payable": {
        "encoding": "inplace",
        "label": "address payable",
        "numberOfBytes": "20"
      },
      "t_bool": {
        "encoding": "inplace",
        "label": "bool",
        "numberOfBytes": "1"
      },
      "t_contract(AuthValidator)7063": {
        "encoding": "inplace",
        "label": "contract AuthValidator",
        "numberOfBytes": "20"
      },
      "t_mapping(t_address,t_bool)": {
        "encoding": "mapping",
        "key": "t_address",
        "label": "mapping(address => bool)",
        "numberOfBytes": "32",
        "value": "t_bool"
      },
      "t_mapping(t_address,t_uint256)": {
        "encoding": "mapping",
        "key": "t_address",
        "label": "mapping(address => uint256)",
        "numberOfBytes": "32",
        "value": "t_uint256"
      },
      "t_uint256": {
        "encoding": "inplace",
        "label": "uint256",
        "numberOfBytes": "32"
      }
    }
  }
}