{
  "address": "0xcA0C9A2daD7391CCA5e4F3c8937ed781b31c4DF6",
  "abi": [
    {
      "inputs": [
        {
          "internalType": "address",
          "name": "landAddress",
          "type": "address"
        },
        {
          "internalType": "address",
          "name": "sandContractAddress",
          "type": "address"
        },
        {
          "internalType": "address",
          "name": "initialMetaTx",
          "type": "address"
        },
        {
          "internalType": "address",
          "name": "admin",
          "type": "address"
        },
        {
          "internalType": "address payable",
          "name": "initialWalletAddress",
          "type": "address"
        },
        {
          "internalType": "bytes32",
          "name": "merkleRoot",
          "type": "bytes32"
        },
        {
          "internalType": "uint256",
          "name": "expiryTime",
          "type": "uint256"
        },
        {
          "internalType": "address",
          "name": "initialSigningWallet",
          "type": "address"
        },
        {
          "internalType": "uint256",
          "name": "initialMaxCommissionRate",
          "type": "uint256"
        },
        {
          "internalType": "address",
          "name": "estate",
          "type": "address"
        },
        {
          "internalType": "address",
          "name": "asset",
          "type": "address"
        },
        {
          "internalType": "address",
          "name": "feeDistributor",
          "type": "address"
        },
        {
          "internalType": "address",
          "name": "authValidator",
          "type": "address"
        }
      ],
      "stateMutability": "nonpayable",
      "type": "constructor"
    },
    {
      "anonymous": false,
      "inputs": [
        {
          "indexed": false,
          "internalType": "address",
          "name": "oldAdmin",
          "type": "address"
        },
        {
          "indexed": false,
          "internalType": "address",
          "name": "newAdmin",
          "type": "address"
        }
      ],
      "name": "AdminChanged",
      "type": "event"
    },
    {
      "anonymous": false,
      "inputs": [
        {
          "indexed": true,
          "internalType": "address",
          "name": "buyer",
          "type": "address"
        },
        {
          "indexed": true,
          "internalType": "address",
          "name": "to",
          "type": "address"
        },
        {
          "indexed": true,
          "internalType": "uint256",
          "name": "topCornerId",
          "type": "uint256"
        },
        {
          "indexed": false,
          "internalType": "uint256",
          "name": "size",
          "type": "uint256"
        },
        {
          "indexed": false,
          "internalType": "uint256",
          "name": "price",
          "type": "uint256"
        },
        {
          "indexed": false,
          "internalType": "address",
          "name": "token",
          "type": "address"
        },
        {
          "indexed": false,
          "internalType": "uint256",
          "name": "amountPaid",
          "type": "uint256"
        }
      ],
      "name": "LandQuadPurchased",
      "type": "event"
    },
    {
      "anonymous": false,
      "inputs": [
        {
          "indexed": false,
          "internalType": "address",
          "name": "metaTransactionProcessor",
          "type": "address"
        },
        {
          "indexed": false,
          "internalType": "bool",
          "name": "enabled",
          "type": "bool"
        }
      ],
      "name": "MetaTransactionProcessor",
      "type": "event"
    },
    {
      "anonymous": false,
      "inputs": [
        {
          "indexed": true,
          "internalType": "address",
          "name": "referrer",
          "type": "address"
        },
        {
          "indexed": true,
          "internalType": "address",
          "name": "referee",
          "type": "address"
        },
        {
          "indexed": true,
          "internalType": "address",
          "name": "token",
          "type": "address"
        },
        {
          "indexed": false,
          "internalType": "uint256",
          "name": "amount",
          "type": "uint256"
        },
        {
          "indexed": false,
          "internalType": "uint256",
          "name": "commission",
          "type": "uint256"
        },
        {
          "indexed": false,
          "internalType": "uint256",
          "name": "commissionRate",
          "type": "uint256"
        }
      ],
      "name": "ReferralUsed",
      "type": "event"
    },
    {
      "inputs": [
        {
          "internalType": "address",
          "name": "buyer",
          "type": "address"
        },
        {
          "internalType": "address",
          "name": "to",
          "type": "address"
        },
        {
          "internalType": "address",
          "name": "reserved",
          "type": "address"
        },
        {
          "internalType": "uint256[]",
          "name": "info",
          "type": "uint256[]"
        },
        {
          "internalType": "bytes32",
          "name": "salt",
          "type": "bytes32"
        },
        {
          "internalType": "uint256[]",
          "name": "assetIds",
          "type": "uint256[]"
        },
        {
          "internalType": "bytes32[]",
          "name": "proof",
          "type": "bytes32[]"
        },
        {
          "internalType": "bytes",
          "name": "referral",
          "type": "bytes"
        },
        {
          "internalType": "bytes",
          "name": "signature",
          "type": "bytes"
        }
      ],
      "name": "buyLandWithSand",
      "outputs": [],
      "stateMutability": "nonpayable",
      "type": "function"
    },
    {
      "inputs": [
        {
          "internalType": "address",
          "name": "newAdmin",
          "type": "address"
        }
      ],
      "name": "changeAdmin",
      "outputs": [],
      "stateMutability": "nonpayable",
      "type": "function"
    },
    {
      "inputs": [
        {
          "internalType": "bytes",
          "name": "referral",
          "type": "bytes"
        }
      ],
      "name": "decodeReferral",
      "outputs": [
        {
          "internalType": "bytes",
          "name": "",
          "type": "bytes"
        },
        {
          "internalType": "address",
          "name": "",
          "type": "address"
        },
        {
          "internalType": "address",
          "name": "",
          "type": "address"
        },
        {
          "internalType": "uint256",
          "name": "",
          "type": "uint256"
        },
        {
          "internalType": "uint256",
          "name": "",
          "type": "uint256"
        }
      ],
      "stateMutability": "pure",
      "type": "function"
    },
    {
      "inputs": [],
      "name": "getAdmin",
      "outputs": [
        {
          "internalType": "address",
          "name": "",
          "type": "address"
        }
      ],
      "stateMutability": "view",
      "type": "function"
    },
    {
      "inputs": [],
      "name": "getExpiryTime",
      "outputs": [
        {
          "internalType": "uint256",
          "name": "",
          "type": "uint256"
        }
      ],
      "stateMutability": "view",
      "type": "function"
    },
    {
      "inputs": [],
      "name": "getMaxCommisionRate",
      "outputs": [
        {
          "internalType": "uint256",
          "name": "",
          "type": "uint256"
        }
      ],
      "stateMutability": "view",
      "type": "function"
    },
    {
      "inputs": [],
      "name": "getMerkleRoot",
      "outputs": [
        {
          "internalType": "bytes32",
          "name": "",
          "type": "bytes32"
        }
      ],
      "stateMutability": "view",
      "type": "function"
    },
    {
      "inputs": [],
      "name": "getSigningWallet",
      "outputs": [
        {
          "internalType": "address",
          "name": "",
          "type": "address"
        }
      ],
      "stateMutability": "view",
      "type": "function"
    },
    {
      "inputs": [
        {
          "internalType": "address",
          "name": "who",
          "type": "address"
        }
      ],
      "name": "isMetaTransactionProcessor",
      "outputs": [
        {
          "internalType": "bool",
          "name": "",
          "type": "bool"
        }
      ],
      "stateMutability": "view",
      "type": "function"
    },
    {
      "inputs": [
        {
          "internalType": "bytes",
          "name": "signature",
          "type": "bytes"
        },
        {
          "internalType": "address",
          "name": "referrer",
          "type": "address"
        },
        {
          "internalType": "address",
          "name": "referee",
          "type": "address"
        },
        {
          "internalType": "uint256",
          "name": "expiryTime",
          "type": "uint256"
        },
        {
          "internalType": "uint256",
          "name": "commissionRate",
          "type": "uint256"
        }
      ],
      "name": "isReferralValid",
      "outputs": [
        {
          "internalType": "bool",
          "name": "",
          "type": "bool"
        }
      ],
      "stateMutability": "view",
      "type": "function"
    },
    {
      "inputs": [
        {
          "internalType": "address",
          "name": "",
          "type": "address"
        },
        {
          "internalType": "address",
          "name": "",
          "type": "address"
        },
        {
          "internalType": "uint256[]",
          "name": "",
          "type": "uint256[]"
        },
        {
          "internalType": "uint256[]",
          "name": "",
          "type": "uint256[]"
        },
        {
          "internalType": "bytes",
          "name": "",
          "type": "bytes"
        }
      ],
      "name": "onERC1155BatchReceived",
      "outputs": [
        {
          "internalType": "bytes4",
          "name": "",
          "type": "bytes4"
        }
      ],
      "stateMutability": "pure",
      "type": "function"
    },
    {
      "inputs": [
        {
          "internalType": "address",
          "name": "",
          "type": "address"
        },
        {
          "internalType": "address",
          "name": "",
          "type": "address"
        },
        {
          "internalType": "uint256",
          "name": "",
          "type": "uint256"
        },
        {
          "internalType": "uint256",
          "name": "",
          "type": "uint256"
        },
        {
          "internalType": "bytes",
          "name": "",
          "type": "bytes"
        }
      ],
      "name": "onERC1155Received",
      "outputs": [
        {
          "internalType": "bytes4",
          "name": "",
          "type": "bytes4"
        }
      ],
      "stateMutability": "pure",
      "type": "function"
    },
    {
      "inputs": [
        {
          "internalType": "address",
          "name": "metaTransactionProcessor",
          "type": "address"
        },
        {
          "internalType": "bool",
          "name": "enabled",
          "type": "bool"
        }
      ],
      "name": "setMetaTransactionProcessor",
      "outputs": [],
      "stateMutability": "nonpayable",
      "type": "function"
    },
    {
      "inputs": [
        {
          "internalType": "address payable",
          "name": "newWallet",
          "type": "address"
        }
      ],
      "name": "setReceivingWallet",
      "outputs": [],
      "stateMutability": "nonpayable",
      "type": "function"
    },
    {
      "inputs": [
        {
          "internalType": "uint256",
          "name": "newMaxCommissionRate",
          "type": "uint256"
        }
      ],
      "name": "updateMaxCommissionRate",
      "outputs": [],
      "stateMutability": "nonpayable",
      "type": "function"
    },
    {
      "inputs": [
        {
          "internalType": "address",
          "name": "newSigningWallet",
          "type": "address"
        }
      ],
      "name": "updateSigningWallet",
      "outputs": [],
      "stateMutability": "nonpayable",
      "type": "function"
    },
    {
      "inputs": [
        {
          "internalType": "address",
          "name": "to",
          "type": "address"
        },
        {
          "internalType": "uint256[]",
          "name": "assetIds",
          "type": "uint256[]"
        },
        {
          "internalType": "uint256[]",
          "name": "values",
          "type": "uint256[]"
        }
      ],
      "name": "withdrawAssets",
      "outputs": [],
      "stateMutability": "nonpayable",
      "type": "function"
    }
  ],
  "transactionHash": "0x6d12fc61a73c2fbeb7990fdfac9b339d6281e98e7ffcb32ae236ab35118add08",
  "args": [
    "0xa4C4A09cA320AfBaE81659982dE88CC63466bB51",
    "0x32F3e11d8d9B9dc50e19D41c0ED868283824767B",
    "0x32F3e11d8d9B9dc50e19D41c0ED868283824767B",
    "0x39D01ecc951C2c1f20ba0549e62212659c4d1e06",
    "0xF22455c7F2a81E197AecD951F588a9B650f5b282",
    "0x6d5220ad47c8ccac188999f770df637d9d2b2daaae6caeb2337c31046fd274d4",
    1668171600,
    "0xB7060D3FeCAC3AE1F0A0AA416E3e8E472257950e",
    2000,
    "0x0000000000000000000000000000000000000000",
    "0xf050cDB34C8f39d24eD12678Dc5Ab32BE8672AfE",
    "0x0977f5050c8158b277F93216f851e83a467ED9c9",
    "0xD3999edf36481d8f6636BB41fbdC936eA4BF5658"
  ],
  "numDeployments": 1,
  "linkedData": [
    {
      "x": 232,
      "y": 14,
      "size": 1,
      "price": "1011000000000000000000",
      "reserved": "",
      "salt": "0x7672779f01107f6986b63f1eab39627630832c1714a49629ac0a4c6d6dde0d71",
      "assetIds": []
    },
    {
      "x": 232,
      "y": 15,
      "size": 1,
      "price": "1011000000000000000000",
      "reserved": "",
      "salt": "0x3802951dee6cf9dfc4c868ac02f63e7dca407ebff533ad7745893403b5af2d7e",
      "assetIds": []
    },
    {
      "x": 232,
      "y": 16,
      "size": 1,
      "price": "1011000000000000000000",
      "reserved": "",
      "salt": "0xf355156e1543f0e7da4128f4f22f4c31e22dc661fed432624d875c541372b16f",
      "assetIds": []
    },
    {
      "x": 232,
      "y": 17,
      "size": 1,
      "price": "1011000000000000000000",
      "reserved": "",
      "salt": "0x54cc1fd36349065ff2a8a58cc35b1004b240c0caacd172d73687f71e763d214a",
      "assetIds": []
    },
    {
      "x": 232,
      "y": 18,
      "size": 1,
      "price": "1011000000000000000000",
      "reserved": "",
      "salt": "0x541b3708db883f64f14a4c8710310576c209d62de9a9bb6f62daa2de2b9e9d84",
      "assetIds": []
    },
    {
      "x": 232,
      "y": 19,
      "size": 1,
      "price": "1011000000000000000000",
      "reserved": "0x7a9fe22691c811ea339d9b73150e6911a5343dca",
      "salt": "0x5b59403d00ffa4fea7f27ce126093c4330e2f6c1ec31b7d0dfd29a0d6581d3e8",
      "assetIds": []
    },
    {
      "x": 232,
      "y": 20,
      "size": 1,
      "price": "1011000000000000000000",
      "reserved": "",
      "salt": "0xb93235476218894824e3a0fbe4659f2dcb60a8ef9c515f5e5581cb9102a8a436",
      "assetIds": []
    },
    {
      "x": 233,
      "y": 9,
      "size": 1,
      "price": "1011000000000000000000",
      "reserved": "",
      "salt": "0x555025f66ddb5a7bb5c541cad970dc7880bce2930c13c347e32e8bf4a9444017",
      "assetIds": []
    },
    {
      "x": 233,
      "y": 10,
      "size": 1,
      "price": "1011000000000000000000",
      "reserved": "",
      "salt": "0xaa8c59ebaaa11a9bf251426c51ec14cb20c18e52c1fbdd52925dc636115d2fe5",
      "assetIds": []
    },
    {
      "x": 233,
      "y": 11,
      "size": 1,
      "price": "1011000000000000000000",
      "reserved": "",
      "salt": "0x4ede86db381f9e7e88f065a9a731164dd6eeb5424cb4990d8fb1a1f8fba195c5",
      "assetIds": []
    },
    {
      "x": 233,
      "y": 12,
      "size": 1,
      "price": "1011000000000000000000",
      "reserved": "",
      "salt": "0x4c31b4f87900c7cf30c90e6e5e5798510153405547432bedb9433d5caf432168",
      "assetIds": []
    },
    {
      "x": 233,
      "y": 13,
      "size": 1,
      "price": "1011000000000000000000",
      "reserved": "",
      "salt": "0xbd2a40276f712798b2977370fcaeda9dea1596d443295c6fc0f2c2b7877634ec",
      "assetIds": []
    },
    {
      "x": 233,
      "y": 14,
      "size": 1,
      "price": "1011000000000000000000",
      "reserved": "",
      "salt": "0x126d6c2faf50d4a59c93dd36cbb24a70a6c8dccc893f6e5152816a028f86b182",
      "assetIds": []
    },
    {
      "x": 233,
      "y": 15,
      "size": 1,
      "price": "1011000000000000000000",
      "reserved": "",
      "salt": "0xe770a2c3ea0cee35a1d9218780f84d458585681b5cede5604369dfea6aa6a7b1",
      "assetIds": []
    },
    {
      "x": 233,
      "y": 16,
      "size": 1,
      "price": "1011000000000000000000",
      "reserved": "",
      "salt": "0x63dfa08845d9bf92de99cfb44818146cb5a4935125b25fd4fe0f41847022c096",
      "assetIds": []
    },
    {
      "x": 233,
      "y": 17,
      "size": 1,
      "price": "1011000000000000000000",
      "reserved": "",
      "salt": "0x757a9c9382259f308a08489dcc81d404d842a0c65f6f26dfb335a20d3bc27c73",
      "assetIds": []
    },
    {
      "x": 233,
      "y": 18,
      "size": 1,
      "price": "1011000000000000000000",
      "reserved": "",
      "salt": "0x060a11e6d9be488a89a036ff6cbe64acd9350c4ded4a6d83c768063d5e3409cd",
      "assetIds": []
    },
    {
      "x": 233,
      "y": 19,
      "size": 1,
      "price": "1011000000000000000000",
      "reserved": "",
      "salt": "0x9daac84038ec4c54cb573f03967a1b1e376551014444488fc74132884b0c6b5d",
      "assetIds": []
    },
    {
      "x": 233,
      "y": 20,
      "size": 1,
      "price": "1011000000000000000000",
      "reserved": "",
      "salt": "0xe11a383eb5e7473edf35e68476cde0e7b7f95c8015e5ec456b5b51bbd31f727f",
      "assetIds": []
    },
    {
      "x": 234,
      "y": 6,
      "size": 1,
      "price": "1011000000000000000000",
      "reserved": "",
      "salt": "0x7fa29164ba5ec45b1a9be10996d679790f8946ed0c0c2dd3fd5ddcb3f5d6c03d",
      "assetIds": []
    },
    {
      "x": 234,
      "y": 7,
      "size": 1,
      "price": "1011000000000000000000",
      "reserved": "0x7a9fe22691c811ea339d9b73150e6911a5343dca",
      "salt": "0x3fe4f9d980e542c693676e6dccafe2839a1273cca4d80608414ab8d71c5d4c67",
      "assetIds": []
    },
    {
      "x": 234,
      "y": 8,
      "size": 1,
      "price": "1011000000000000000000",
      "reserved": "",
      "salt": "0x13ede258e581d4fd4a63de12c99b458f0c93b42700fdf8ac71b152d24fa03ddf",
      "assetIds": []
    },
    {
      "x": 234,
      "y": 9,
      "size": 1,
      "price": "1011000000000000000000",
      "reserved": "",
      "salt": "0x18d367cdbc2217850b2243f3ea4de26e480e603283ed8b276733505698ef42b9",
      "assetIds": []
    },
    {
      "x": 234,
      "y": 10,
      "size": 1,
      "price": "1011000000000000000000",
      "reserved": "0x7a9fe22691c811ea339d9b73150e6911a5343dca",
      "salt": "0x6f78b7168c7c6cac1ae59e78a1d2d901c03f3f135a29765d6dd008e126c0d9e7",
      "assetIds": []
    },
    {
      "x": 234,
      "y": 11,
      "size": 1,
      "price": "1011000000000000000000",
      "reserved": "",
      "salt": "0x8e1420ee06e3e225de5fd637cb944a3505f772665a0718454450dc723e19ca8d",
      "assetIds": []
    },
    {
      "x": 234,
      "y": 12,
      "size": 1,
      "price": "1011000000000000000000",
      "reserved": "",
      "salt": "0x9ff0d2149348014ab99e0f595e46c838bcd4725767141a8cdbc31b8a632f9ca0",
      "assetIds": []
    },
    {
      "x": 234,
      "y": 13,
      "size": 1,
      "price": "1011000000000000000000",
      "reserved": "0x7a9fe22691c811ea339d9b73150e6911a5343dca",
      "salt": "0xaa8ac458bd8557e4226665e62f9344a78fe445c6adc6c25bee20d178e898ccde",
      "assetIds": []
    },
    {
      "x": 234,
      "y": 14,
      "size": 1,
      "price": "1011000000000000000000",
      "reserved": "",
      "salt": "0x3d88ab909530aec70ec97017452dafd1c824ec5640f5e6657bf57ddcc4d11e06",
      "assetIds": []
    },
    {
      "x": 234,
      "y": 15,
      "size": 1,
      "price": "1011000000000000000000",
      "reserved": "",
      "salt": "0x70ee4c7266884ded0e1440dd03caf3ff49119450f33b271b572cef80ed80d145",
      "assetIds": []
    },
    {
      "x": 234,
      "y": 16,
      "size": 1,
      "price": "1011000000000000000000",
      "reserved": "",
      "salt": "0xe371e7cd2c511bd8848e04c1118600cf4822c04d2872bf71c7dfe571b8939289",
      "assetIds": []
    },
    {
      "x": 234,
      "y": 17,
      "size": 1,
      "price": "1011000000000000000000",
      "reserved": "",
      "salt": "0x2043ced0ba10b518f5c8e7b4c720ac9f9df2e4bf445c1aeea87ae1d384a0cea0",
      "assetIds": []
    },
    {
      "x": 235,
      "y": 6,
      "size": 1,
      "price": "1011000000000000000000",
      "reserved": "",
      "salt": "0xa52bff6c63c890b586681555ec9065236cd8c59bfdb67dcb8fb0495d03d196e1",
      "assetIds": []
    },
    {
      "x": 235,
      "y": 7,
      "size": 1,
      "price": "1011000000000000000000",
      "reserved": "",
      "salt": "0x427b6beebbc61f1052fb5b6f589fc28d53bbdeee6bb05258957f9db2b0b11c6d",
      "assetIds": []
    },
    {
      "x": 235,
      "y": 8,
      "size": 1,
      "price": "1011000000000000000000",
      "reserved": "",
      "salt": "0xaaf174cfa17f30e51cbcabe1c2305a9edd30d501b207a20416d1a2f54ce1d39f",
      "assetIds": []
    },
    {
      "x": 235,
      "y": 9,
      "size": 1,
      "price": "1011000000000000000000",
      "reserved": "",
      "salt": "0x92bf2156ad2034171e58923fac6e6eb1ed7dc2f2de0577062eb5c2836920e62a",
      "assetIds": []
    },
    {
      "x": 235,
      "y": 10,
      "size": 1,
      "price": "1011000000000000000000",
      "reserved": "",
      "salt": "0x3d44aa62fd9f0bf1e8a02b7c0047392e99506b2d046a4be2bf071f2cbd445354",
      "assetIds": []
    },
    {
      "x": 235,
      "y": 11,
      "size": 1,
      "price": "1011000000000000000000",
      "reserved": "",
      "salt": "0xd4b2874096d106725d7b7b89be3e681f4a44701cc4ac7c7860e6ae05cd613578",
      "assetIds": []
    },
    {
      "x": 235,
      "y": 12,
      "size": 1,
      "price": "1011000000000000000000",
      "reserved": "",
      "salt": "0x20209d25651b1061204f2f582834df84408766c4cbcf7ce4eeb6e191061b4133",
      "assetIds": []
    },
    {
      "x": 235,
      "y": 13,
      "size": 1,
      "price": "1011000000000000000000",
      "reserved": "",
      "salt": "0x24cb5c5ec63df3c6cf1809eefd06ae7fe479b192d5b0c41ce191ea60935b9062",
      "assetIds": []
    },
    {
      "x": 235,
      "y": 14,
      "size": 1,
      "price": "1011000000000000000000",
      "reserved": "",
      "salt": "0x8c49510cf1b0788ad4cb6d4e4befdf0848d3e2a7f736784cb7661071dc1c7faa",
      "assetIds": []
    },
    {
      "x": 235,
      "y": 15,
      "size": 1,
      "price": "1011000000000000000000",
      "reserved": "",
      "salt": "0x7902dd3d071b66a99f99f13fa23a0ee240a95b97fcc53dfd3ec2ac50caff1dd6",
      "assetIds": []
    },
    {
      "x": 235,
      "y": 16,
      "size": 1,
      "price": "1011000000000000000000",
      "reserved": "0x7a9fe22691c811ea339d9b73150e6911a5343dca",
      "salt": "0x2b9eacd03d4fcaae5fdca10d0a38cb83d9ffc14327d0f4cb39801362b818fb6d",
      "assetIds": []
    },
    {
      "x": 235,
      "y": 17,
      "size": 1,
      "price": "1011000000000000000000",
      "reserved": "",
      "salt": "0xcce3bfd4065d7b98a63e4c9443f84e275e9600606cc319e26858a9d42a66f85c",
      "assetIds": []
    },
    {
      "x": 236,
      "y": 6,
      "size": 1,
      "price": "1011000000000000000000",
      "reserved": "0x7a9fe22691c811ea339d9b73150e6911a5343dca",
      "salt": "0x573dc5f36054ef6459cdb47b23205d8ffe411dce6c5f00afdbe0f2d860966e2a",
      "assetIds": []
    },
    {
      "x": 236,
      "y": 7,
      "size": 1,
      "price": "1011000000000000000000",
      "reserved": "",
      "salt": "0xdb4f65f45112aa946cbd9162004d146afb47c7c58cd93fdfc7af43f1b1ccd0b6",
      "assetIds": []
    },
    {
      "x": 236,
      "y": 8,
      "size": 1,
      "price": "1011000000000000000000",
      "reserved": "",
      "salt": "0x017ebf49af4b16d0e8a68c56b4caf3fb8ab4079fcdd787f44099ed17ed42e859",
      "assetIds": []
    },
    {
      "x": 236,
      "y": 9,
      "size": 1,
      "price": "1011000000000000000000",
      "reserved": "0x7a9fe22691c811ea339d9b73150e6911a5343dca",
      "salt": "0x7ec42c3e47cbf3d793cc5f12cf41e200f1f8183024f6266aacc553278d980828",
      "assetIds": []
    },
    {
      "x": 236,
      "y": 10,
      "size": 1,
      "price": "1011000000000000000000",
      "reserved": "",
      "salt": "0x347f6216877cb85ca9a7d12d686bbcbe38fa677e46a25474e13aed3571bce706",
      "assetIds": []
    },
    {
      "x": 236,
      "y": 11,
      "size": 1,
      "price": "1011000000000000000000",
      "reserved": "",
      "salt": "0xfa38b8abeeeb2e3b508ad418a3d34fb952bb7b3d8090a4c751d502845d8947b2",
      "assetIds": []
    },
    {
      "x": 236,
      "y": 12,
      "size": 1,
      "price": "1011000000000000000000",
      "reserved": "0x7a9fe22691c811ea339d9b73150e6911a5343dca",
      "salt": "0x2694961537d40156336c96a2acd1aa7bfa2efcfccc1681d853e72754f87f5119",
      "assetIds": []
    },
    {
      "x": 236,
      "y": 13,
      "size": 1,
      "price": "1011000000000000000000",
      "reserved": "",
      "salt": "0xb52322939c2aabec9e3abb488d1934cd194d93f73c412d38708f4b149b0b9e5c",
      "assetIds": []
    },
    {
      "x": 236,
      "y": 14,
      "size": 1,
      "price": "1011000000000000000000",
      "reserved": "",
      "salt": "0x790b9c39cd02f91b2e96b68bd653faeec411e6d01e82d8a51b1b372ec565f43f",
      "assetIds": []
    },
    {
      "x": 236,
      "y": 15,
      "size": 1,
      "price": "1011000000000000000000",
      "reserved": "",
      "salt": "0x7ff0c1c0539bb7260710166aa5d58e249633a72a98a2ea5fce44034f203b732e",
      "assetIds": []
    },
    {
      "x": 236,
      "y": 16,
      "size": 1,
      "price": "1011000000000000000000",
      "reserved": "",
      "salt": "0x9f732e61dbfce1205b290b66c774f5eb45e55ba91d4a1a0888862bfca374ed05",
      "assetIds": []
    },
    {
      "x": 236,
      "y": 17,
      "size": 1,
      "price": "1011000000000000000000",
      "reserved": "",
      "salt": "0x8b6561568de5291c240493157394f59af46669d546f711d495b4ab9259cae912",
      "assetIds": []
    },
    {
      "x": 237,
      "y": 6,
      "size": 1,
      "price": "1011000000000000000000",
      "reserved": "",
      "salt": "0x8f211121f1ca783369281b08a14d2e38e25c24628c2f070e3a3c6bb956f8faba",
      "assetIds": []
    },
    {
      "x": 237,
      "y": 7,
      "size": 1,
      "price": "1011000000000000000000",
      "reserved": "",
      "salt": "0x3585af2247b51be9fb7f426d7bdb672d0f560f78c4729425b3baa0f85407ee81",
      "assetIds": []
    },
    {
      "x": 237,
      "y": 8,
      "size": 1,
      "price": "1011000000000000000000",
      "reserved": "",
      "salt": "0xeb19b89361d93935c5065573970ce161f7cb34336b80d751e91b5b399269e3ab",
      "assetIds": []
    },
    {
      "x": 237,
      "y": 9,
      "size": 1,
      "price": "1011000000000000000000",
      "reserved": "",
      "salt": "0x45f4147a4a23c42870ceb0fd12b9113e4fee520fc8d0a2549da426723c05a22e",
      "assetIds": []
    },
    {
      "x": 237,
      "y": 10,
      "size": 1,
      "price": "1011000000000000000000",
      "reserved": "",
      "salt": "0x3e0b7ebe29c61d2cd4e4e2dfa770e92ea3d0a675f4b661508f7d7e6957eb9a22",
      "assetIds": []
    },
    {
      "x": 237,
      "y": 11,
      "size": 1,
      "price": "1011000000000000000000",
      "reserved": "",
      "salt": "0x4e2b500a394b923fb1c7be863034fed38dfa0e9a30f62ac53873221f4b4b5de8",
      "assetIds": []
    },
    {
      "x": 237,
      "y": 12,
      "size": 1,
      "price": "1011000000000000000000",
      "reserved": "",
      "salt": "0x3bdae7f8a5329b9a2b63d45de1b4fb959fed117768a0ed266188d5f954371e9e",
      "assetIds": []
    },
    {
      "x": 237,
      "y": 13,
      "size": 1,
      "price": "1011000000000000000000",
      "reserved": "",
      "salt": "0xfef6f0a650e90020567d2dd4f498a390a290f49ba7dff4e28643f82f024c5644",
      "assetIds": []
    },
    {
      "x": 237,
      "y": 14,
      "size": 1,
      "price": "1011000000000000000000",
      "reserved": "",
      "salt": "0xa1cd928bee2c498879fb6da158556a90c365f14fbe15f1ab2806b5412e8a9dc1",
      "assetIds": []
    },
    {
      "x": 238,
      "y": 6,
      "size": 1,
      "price": "1011000000000000000000",
      "reserved": "",
      "salt": "0xdf7e181d909f294dd1c96cfcc57c706ed32ea159d6d84ce316f89ecc1bfc0218",
      "assetIds": []
    },
    {
      "x": 238,
      "y": 7,
      "size": 1,
      "price": "1011000000000000000000",
      "reserved": "0x7a9fe22691c811ea339d9b73150e6911a5343dca",
      "salt": "0x79f46c8dfa5a126b56416a73d82ff9912300131d9c409bdc79060e289bb01990",
      "assetIds": []
    },
    {
      "x": 238,
      "y": 8,
      "size": 1,
      "price": "1011000000000000000000",
      "reserved": "",
      "salt": "0x2a9fcf0bb30620a13d1b91c3a8c92ed5897f1485b6f37b5e8fddb486fb2c0eb5",
      "assetIds": []
    },
    {
      "x": 238,
      "y": 9,
      "size": 1,
      "price": "1011000000000000000000",
      "reserved": "",
      "salt": "0x0e45fe829c189b3bbd7ba5a3f40e6388c87d25e5fff3e6326c0193f1fdcd2bd7",
      "assetIds": []
    },
    {
      "x": 238,
      "y": 10,
      "size": 1,
      "price": "1011000000000000000000",
      "reserved": "0x7a9fe22691c811ea339d9b73150e6911a5343dca",
      "salt": "0xc96db2931e27a5e28ea65c1a98e2e411cf578d666886c29c6c45c2392c86d84b",
      "assetIds": []
    },
    {
      "x": 238,
      "y": 11,
      "size": 1,
      "price": "1011000000000000000000",
      "reserved": "",
      "salt": "0x16086a87ada260fb7cef8617e7810d6c6f258d58a47c53660e3df67dea261b1a",
      "assetIds": []
    },
    {
      "x": 238,
      "y": 12,
      "size": 1,
      "price": "1011000000000000000000",
      "reserved": "",
      "salt": "0x1fad5e683b660f0aa3210cc32aa4f1086aa51adbee4431dc9c37e3e54c97487c",
      "assetIds": []
    },
    {
      "x": 238,
      "y": 13,
      "size": 1,
      "price": "1011000000000000000000",
      "reserved": "0x7a9fe22691c811ea339d9b73150e6911a5343dca",
      "salt": "0xa665d572ee61f142e3e9e2d2f0312ebe6f9e4bce674a0cfddde779de05a68fb4",
      "assetIds": []
    },
    {
      "x": 238,
      "y": 14,
      "size": 1,
      "price": "1011000000000000000000",
      "reserved": "",
      "salt": "0x7ed82f46b69e6ae03a23828faf2cd1af765af77e02d71df97468a2cf29aa6081",
      "assetIds": []
    },
    {
      "x": 239,
      "y": 6,
      "size": 1,
      "price": "1011000000000000000000",
      "reserved": "",
      "salt": "0x5bafd38714ed0b894fda65a8340ac73654c3f4e996e6a9e441c80fab8952c367",
      "assetIds": []
    },
    {
      "x": 239,
      "y": 7,
      "size": 1,
      "price": "1011000000000000000000",
      "reserved": "",
      "salt": "0x738984516d7bba04a63e242989bae5ee138807d5e8cd7ab4fa5c57ce2e96f2e6",
      "assetIds": []
    },
    {
      "x": 239,
      "y": 8,
      "size": 1,
      "price": "1011000000000000000000",
      "reserved": "",
      "salt": "0x5f4cde4ec96222b507f71914f4347b40f3175d3cd5d132a623df47f4a5ad19ca",
      "assetIds": []
    },
    {
      "x": 239,
      "y": 9,
      "size": 1,
      "price": "1011000000000000000000",
      "reserved": "",
      "salt": "0x131e7181d3d03bb6dbf6eda31f9bd5a112cee3f9b2b028c78eb4b58c7887ec1d",
      "assetIds": []
    },
    {
      "x": 239,
      "y": 10,
      "size": 1,
      "price": "1011000000000000000000",
      "reserved": "",
      "salt": "0x93982ae88ae96458d6295d405498303b65192766cad935e3d54dfae7f1f8ee75",
      "assetIds": []
    },
    {
      "x": 239,
      "y": 11,
      "size": 1,
      "price": "1011000000000000000000",
      "reserved": "0x7a9fe22691c811ea339d9b73150e6911a5343dca",
      "salt": "0xcf5941d3e9d6cf84592ef518ae9fb004097c7bade4d880ff07b4692928438b31",
      "assetIds": []
    },
    {
      "x": 239,
      "y": 12,
      "size": 1,
      "price": "1011000000000000000000",
      "reserved": "",
      "salt": "0xa2576bc53b14ab5172f1c007eba858722d1cdb891ce9dd5f63c06077ed42ee1b",
      "assetIds": []
    },
    {
      "x": 239,
      "y": 13,
      "size": 1,
      "price": "1011000000000000000000",
      "reserved": "",
      "salt": "0xf7a23e293318082332df82b4fe33b00ed5f8671b7871bd7fc2eae8ad2536d3b1",
      "assetIds": []
    },
    {
      "x": 239,
      "y": 14,
      "size": 1,
      "price": "1011000000000000000000",
      "reserved": "",
      "salt": "0xc4cc0128e4d86b691bfef89ee6fc7eb3d66397803da8c5bcf5a53a81bc7a53c3",
      "assetIds": []
    },
    {
      "x": 240,
      "y": 6,
      "size": 1,
      "price": "4683000000000000000000",
      "reserved": "",
      "salt": "0xdacc45ec0be21717a29729315cfe83c23cd77a78f28f017065bff846edadc4d3",
      "assetIds": [
        "41506478881403507969696680653240014914910929820314476107906210059990541021186"
      ]
    },
    {
      "x": 240,
      "y": 7,
      "size": 1,
      "price": "1011000000000000000000",
      "reserved": "",
      "salt": "0xee310f006b14796e20b331f78669bfbe904f618c25d6640c15c5966f1c6c55d5",
      "assetIds": []
    },
    {
      "x": 240,
      "y": 8,
      "size": 1,
      "price": "1011000000000000000000",
      "reserved": "",
      "salt": "0x4e18332d253bb20727b9ba8bdb35bad7527bea2bd76c9e2c3ea847654607c4af",
      "assetIds": []
    },
    {
      "x": 240,
      "y": 9,
      "size": 1,
      "price": "1011000000000000000000",
      "reserved": "0x7a9fe22691c811ea339d9b73150e6911a5343dca",
      "salt": "0x7ed31a9e4ee9331fda2d7876a63b0bb76f667f100c95ef5d9084bb9f9eb45e88",
      "assetIds": []
    },
    {
      "x": 240,
      "y": 10,
      "size": 1,
      "price": "1011000000000000000000",
      "reserved": "",
      "salt": "0x9c9fafc71ac1fb55ac0feada16a9eaa96fa5b16d1a7d6f5ac67d6833bcf76616",
      "assetIds": []
    },
    {
      "x": 240,
      "y": 11,
      "size": 1,
      "price": "1011000000000000000000",
      "reserved": "",
      "salt": "0x6c00356f0e1a589576e2bb3bfde6399ec52ee3cbb8af2482115b61741e28969a",
      "assetIds": []
    },
    {
      "x": 241,
      "y": 6,
      "size": 1,
      "price": "4683000000000000000000",
      "reserved": "",
      "salt": "0xc28588771e1a50aecb42ab4e855599688c37325cf6ac1081dc991d9fa4e3762e",
      "assetIds": [
        "41506478881403507969696680653240014914910929820314476107906210059990541021186"
      ]
    },
    {
      "x": 241,
      "y": 7,
      "size": 1,
      "price": "1011000000000000000000",
      "reserved": "0x7a9fe22691c811ea339d9b73150e6911a5343dca",
      "salt": "0xfa2756eb0b6aae3bafb4eed46144e7340c0b2e0ec3a5f94b89020032dadb2d16",
      "assetIds": []
    },
    {
      "x": 241,
      "y": 8,
      "size": 1,
      "price": "1011000000000000000000",
      "reserved": "",
      "salt": "0xc3295ead23725d6c5070da6228a06e307fc798e247a02e60bccc598c0a065f14",
      "assetIds": []
    },
    {
      "x": 241,
      "y": 9,
      "size": 1,
      "price": "1011000000000000000000",
      "reserved": "",
      "salt": "0xd7cb2f6069c67bbd98c1cd9057e5fa84daea47fdabaf05659ecd120595d72cfa",
      "assetIds": []
    },
    {
      "x": 241,
      "y": 10,
      "size": 1,
      "price": "1011000000000000000000",
      "reserved": "",
      "salt": "0x842ae4bdf8ea4361dfcb9407c2705fc4d6bf659962ea1143228661e2aad6ddd4",
      "assetIds": []
    },
    {
      "x": 241,
      "y": 11,
      "size": 1,
      "price": "1011000000000000000000",
      "reserved": "",
      "salt": "0x48fde00189103d9ddbd73b13f68b6585aefa71585bb9ac4aed3730ea905f2fe2",
      "assetIds": []
    },
    {
      "x": 242,
      "y": 6,
      "size": 1,
      "price": "4683000000000000000000",
      "reserved": "",
      "salt": "0x5b95f07feffea6317a6213f98a42a6f28878264040999d8ec7cfbc08836b4edd",
      "assetIds": [
        "41506478881403507969696680653240014914910929820314476107906210059990541021186"
      ]
    },
    {
      "x": 242,
      "y": 7,
      "size": 1,
      "price": "4683000000000000000000",
      "reserved": "",
      "salt": "0x40fea8ab024e08f205bb10d6a0d4738ac612c321864d94a9951c217270be1ffc",
      "assetIds": [
        "41506478881403507969696680653240014914910929820314476107906210059990541021186"
      ]
    },
    {
      "x": 242,
      "y": 8,
      "size": 1,
      "price": "4683000000000000000000",
      "reserved": "",
      "salt": "0x2f3e8dc46e0c8b94b8b0dd206fdc0d04820c6400152fad56322711e977593b85",
      "assetIds": [
        "41506478881403507969696680653240014914910929820314476107906210059990541021186"
      ]
    },
    {
      "x": 242,
      "y": 9,
      "size": 1,
      "price": "4683000000000000000000",
      "reserved": "",
      "salt": "0xf511817dadc9e24fdd9e711e9df93c1ab58eb8418f136f7f17077d91c4ea4867",
      "assetIds": [
        "41506478881403507969696680653240014914910929820314476107906210059990541021186"
      ]
    },
    {
      "x": 242,
      "y": 10,
      "size": 1,
      "price": "4683000000000000000000",
      "reserved": "",
      "salt": "0x101cdd92b44748efbc25a0691c378046acf2972a32cef0e1a6f9cbf92f6cc63a",
      "assetIds": [
        "41506478881403507969696680653240014914910929820314476107906210059990541021186"
      ]
    },
    {
      "x": 242,
      "y": 11,
      "size": 1,
      "price": "4683000000000000000000",
      "reserved": "",
      "salt": "0x699881ae6477256d093590c9b46669144050dd12fa70ac4d0575d619a06ce7a7",
      "assetIds": [
        "41506478881403507969696680653240014914910929820314476107906210059990541021186"
      ]
    },
    {
      "x": 243,
      "y": 6,
      "size": 1,
      "price": "4683000000000000000000",
      "reserved": "",
      "salt": "0x7e39c93e6598738c122d11f865a4aa53a5161a803ca799ede6bf1914e6b6518e",
      "assetIds": [
        "41506478881403507969696680653240014914910929820314476107906210059990541021186"
      ]
    },
    {
      "x": 243,
      "y": 7,
      "size": 1,
      "price": "4683000000000000000000",
      "reserved": "",
      "salt": "0xbc0ac8bdd21236b01bc869b0de87527e9ee229824253b7c580100eddf98d9616",
      "assetIds": [
        "41506478881403507969696680653240014914910929820314476107906210059990541021186"
      ]
    },
    {
      "x": 243,
      "y": 8,
      "size": 1,
      "price": "4683000000000000000000",
      "reserved": "",
      "salt": "0xabeafb34abf206b17debe6f1006d9aa6dbe03f59f8fc2a1355bd9627ec3beafe",
      "assetIds": [
        "41506478881403507969696680653240014914910929820314476107906210059990541021186"
      ]
    },
    {
      "x": 244,
      "y": 6,
      "size": 1,
      "price": "4683000000000000000000",
      "reserved": "",
      "salt": "0xc57bb69c96a11608007f67958abad787913953af821a1d1591aad1366a51df9c",
      "assetIds": [
        "41506478881403507969696680653240014914910929820314476107906210059990541021186"
      ]
    },
    {
      "x": 244,
      "y": 7,
      "size": 1,
      "price": "4683000000000000000000",
      "reserved": "",
      "salt": "0x2f1c6d8e45c8beb9bd1bacd0d344390b7e3ccb28f6113ec592e611c9b46abcc0",
      "assetIds": [
        "41506478881403507969696680653240014914910929820314476107906210059990541021186"
      ]
    },
    {
      "x": 244,
      "y": 8,
      "size": 1,
      "price": "4683000000000000000000",
      "reserved": "",
      "salt": "0x708049e35a26625413910cc494d41de84bc6d98475f8134b6d35e0f7d86ecd16",
      "assetIds": [
        "41506478881403507969696680653240014914910929820314476107906210059990541021186"
      ]
    },
    {
      "x": 245,
      "y": 6,
      "size": 1,
      "price": "4683000000000000000000",
      "reserved": "",
      "salt": "0x39144a02485fa2392b5d12da79fefe8249d2945dda86e637cc96ed8bc5f7d069",
      "assetIds": [
        "41506478881403507969696680653240014914910929820314476107906210059990541021186"
      ]
    },
    {
      "x": 245,
      "y": 7,
      "size": 1,
      "price": "4683000000000000000000",
      "reserved": "",
      "salt": "0xf5607dd80239ac15abde886eda07cfae4638c19cf6a5809013595f3247ceb6a9",
      "assetIds": [
        "41506478881403507969696680653240014914910929820314476107906210059990541021186"
      ]
    },
    {
      "x": 245,
      "y": 8,
      "size": 1,
      "price": "4683000000000000000000",
      "reserved": "",
      "salt": "0xf4e50601f9d75cd114cda1d1021ac6dadc6dad49b2469529b92b0457446d72c7",
      "assetIds": [
        "41506478881403507969696680653240014914910929820314476107906210059990541021186"
      ]
    },
    {
      "x": 246,
      "y": 3,
      "size": 1,
      "price": "1011000000000000000000",
      "reserved": "",
      "salt": "0x423553ae9e005d20064bffda1787c3c566c2c4a76ab7d4728e44a43534c78380",
      "assetIds": []
    },
    {
      "x": 246,
      "y": 4,
      "size": 1,
      "price": "4683000000000000000000",
      "reserved": "",
      "salt": "0x6a109368c0ca7874740265ffa83d1fd913b484e2e11d3566932dfb5222a39495",
      "assetIds": [
        "41506478881403507969696680653240014914910929820314476107906210059990541021186"
      ]
    },
    {
      "x": 246,
      "y": 5,
      "size": 1,
      "price": "4683000000000000000000",
      "reserved": "",
      "salt": "0xa72f206b0effe586454ec07b5e76f949153a1febabc1681b6894375718df6259",
      "assetIds": [
        "41506478881403507969696680653240014914910929820314476107906210059990541021186"
      ]
    },
    {
      "x": 246,
      "y": 6,
      "size": 1,
      "price": "4683000000000000000000",
      "reserved": "",
      "salt": "0xb50214e2f8cafb008ce31305e91d8d549a99ab5cfb7fcb0f452b5a6d75ec0e98",
      "assetIds": [
        "41506478881403507969696680653240014914910929820314476107906210059990541021186"
      ]
    },
    {
      "x": 246,
      "y": 7,
      "size": 1,
      "price": "4683000000000000000000",
      "reserved": "",
      "salt": "0x57db3c662124fa4423876a2cfc266f42727f1532ba1fd45408102967a868a71b",
      "assetIds": [
        "41506478881403507969696680653240014914910929820314476107906210059990541021186"
      ]
    },
    {
      "x": 246,
      "y": 8,
      "size": 1,
      "price": "4683000000000000000000",
      "reserved": "",
      "salt": "0xf3cbc507afef4adf154e1b5f187952b5caa2c5a4b35d96e42bf3a4d9f43172d8",
      "assetIds": [
        "41506478881403507969696680653240014914910929820314476107906210059990541021186"
      ]
    },
    {
      "x": 246,
      "y": 9,
      "size": 1,
      "price": "4683000000000000000000",
      "reserved": "",
      "salt": "0xa93e57fa8134d8d6257c58f66715fae2093fefc22ddadc055cd097d48e85b57e",
      "assetIds": [
        "41506478881403507969696680653240014914910929820314476107906210059990541021186"
      ]
    },
    {
      "x": 246,
      "y": 10,
      "size": 1,
      "price": "4683000000000000000000",
      "reserved": "",
      "salt": "0xb306466563bf7e0ebdda3d338125610ec850c7c2035b8fef26fffd076f47e352",
      "assetIds": [
        "41506478881403507969696680653240014914910929820314476107906210059990541021186"
      ]
    },
    {
      "x": 246,
      "y": 11,
      "size": 1,
      "price": "4683000000000000000000",
      "reserved": "",
      "salt": "0x6ad71c48fe093ac65b64e83c8e093ace74203b4cdf781730483d1936992959fb",
      "assetIds": [
        "41506478881403507969696680653240014914910929820314476107906210059990541021186"
      ]
    },
    {
      "x": 247,
      "y": 3,
      "size": 1,
      "price": "1011000000000000000000",
      "reserved": "",
      "salt": "0xb27523809ef9126a879877d851227850df1aa887df18393757b08a26e633816f",
      "assetIds": []
    },
    {
      "x": 247,
      "y": 4,
      "size": 1,
      "price": "4683000000000000000000",
      "reserved": "",
      "salt": "0xc8047cc8df35a787704e660465e310435bd0db3e602db79e318a64f20da81c5a",
      "assetIds": [
        "41506478881403507969696680653240014914910929820314476107906210059990541021186"
      ]
    },
    {
      "x": 247,
      "y": 5,
      "size": 1,
      "price": "4683000000000000000000",
      "reserved": "",
      "salt": "0xf6efa8de6233172836a8ac9066de0ed0a81ac568e981ccc69b782341a0ea839d",
      "assetIds": [
        "41506478881403507969696680653240014914910929820314476107906210059990541021186"
      ]
    },
    {
      "x": 247,
      "y": 6,
      "size": 1,
      "price": "4683000000000000000000",
      "reserved": "",
      "salt": "0x0caf91169b62d84e9405a05c9e854ded3780622f9cefc3003735b1649de87b68",
      "assetIds": [
        "41506478881403507969696680653240014914910929820314476107906210059990541021186"
      ]
    },
    {
      "x": 247,
      "y": 7,
      "size": 1,
      "price": "4683000000000000000000",
      "reserved": "",
      "salt": "0x19757201c583d479ea34682d25bd14a1f0857f6ac78bb2d5fbabd931235ee2bb",
      "assetIds": [
        "41506478881403507969696680653240014914910929820314476107906210059990541021186"
      ]
    },
    {
      "x": 247,
      "y": 8,
      "size": 1,
      "price": "4683000000000000000000",
      "reserved": "",
      "salt": "0x7e7830829f7cf1e2880048c1c58e6da30c22948f48245711b43726dacab2e4b4",
      "assetIds": [
        "41506478881403507969696680653240014914910929820314476107906210059990541021186"
      ]
    },
    {
      "x": 247,
      "y": 9,
      "size": 1,
      "price": "4683000000000000000000",
      "reserved": "",
      "salt": "0x14dd74a6ac87777544ce001e54681d6a1ece18196589035b17bed2fe8fca168d",
      "assetIds": [
        "41506478881403507969696680653240014914910929820314476107906210059990541021186"
      ]
    },
    {
      "x": 247,
      "y": 10,
      "size": 1,
      "price": "4683000000000000000000",
      "reserved": "",
      "salt": "0x1701834bc58d9ded275678e3decc166aab05cba8c02df14b2160d1003f0f47c6",
      "assetIds": [
        "41506478881403507969696680653240014914910929820314476107906210059990541021186"
      ]
    },
    {
      "x": 247,
      "y": 11,
      "size": 1,
      "price": "1011000000000000000000",
      "reserved": "0x7a9fe22691c811ea339d9b73150e6911a5343dca",
      "salt": "0xbafdc17d807b90fe1b9d52348123aada34b31df6761104fa37878bddcc166be6",
      "assetIds": []
    },
    {
      "x": 248,
      "y": 3,
      "size": 1,
      "price": "1011000000000000000000",
      "reserved": "",
      "salt": "0x97149af9e2503a025c9bde24ffe8b663769fda583c321457b96a9a47dadbd710",
      "assetIds": []
    },
    {
      "x": 248,
      "y": 4,
      "size": 1,
      "price": "4683000000000000000000",
      "reserved": "",
      "salt": "0x60fa816defd0a1d9eda0e271a5a8469bc70e1c351b65184b4f87f120f9fdf531",
      "assetIds": [
        "41506478881403507969696680653240014914910929820314476107906210059990541021186"
      ]
    },
    {
      "x": 248,
      "y": 5,
      "size": 1,
      "price": "4683000000000000000000",
      "reserved": "",
      "salt": "0x140cbd8e3ee0bb2e897811ce1535a1b323c8740822e70de470785653c5fd4f07",
      "assetIds": [
        "41506478881403507969696680653240014914910929820314476107906210059990541021186"
      ]
    },
    {
      "x": 248,
      "y": 6,
      "size": 1,
      "price": "4683000000000000000000",
      "reserved": "",
      "salt": "0x29c79edbf71fff9acec6374ed689e1a53f3f8af233e849d7d9fdd2d03be518f7",
      "assetIds": [
        "41506478881403507969696680653240014914910929820314476107906210059990541021186"
      ]
    },
    {
      "x": 248,
      "y": 7,
      "size": 1,
      "price": "4683000000000000000000",
      "reserved": "",
      "salt": "0x70ac9900104d73d506b269ba3f234d5ceff7379e168619796949ddd30d91743c",
      "assetIds": [
        "41506478881403507969696680653240014914910929820314476107906210059990541021186"
      ]
    },
    {
      "x": 248,
      "y": 8,
      "size": 1,
      "price": "4683000000000000000000",
      "reserved": "",
      "salt": "0xf9c80c25bc44bf13364cef737c1f58fda2af4f805e7b09d9747ab1bf984c425a",
      "assetIds": [
        "41506478881403507969696680653240014914910929820314476107906210059990541021186"
      ]
    },
    {
      "x": 248,
      "y": 9,
      "size": 1,
      "price": "4683000000000000000000",
      "reserved": "",
      "salt": "0xc363b34044a28075284735d5bfcb073d77a7a122e7f0c99f3e2e87a67976849a",
      "assetIds": [
        "41506478881403507969696680653240014914910929820314476107906210059990541021186"
      ]
    },
    {
      "x": 248,
      "y": 10,
      "size": 1,
      "price": "4683000000000000000000",
      "reserved": "",
      "salt": "0x57db62aff517289d6bdff6acd229b10de592e107952578170d76b37a6e50fd96",
      "assetIds": [
        "41506478881403507969696680653240014914910929820314476107906210059990541021186"
      ]
    },
    {
      "x": 248,
      "y": 11,
      "size": 1,
      "price": "4683000000000000000000",
      "reserved": "",
      "salt": "0x419233e869485c3e0157d7d12380ce1c38175cdb034b4c53c72b96f37dde8248",
      "assetIds": [
        "41506478881403507969696680653240014914910929820314476107906210059990541021186"
      ]
    },
    {
      "x": 249,
      "y": 6,
      "size": 1,
      "price": "4683000000000000000000",
      "reserved": "",
      "salt": "0x02efc1d6c6f6af2411416aee79f78f6e2db05c6c6f6f1f59b29ecc301549a654",
      "assetIds": [
        "41506478881403507969696680653240014914910929820314476107906210059990541021186"
      ]
    },
    {
      "x": 249,
      "y": 7,
      "size": 1,
      "price": "4683000000000000000000",
      "reserved": "",
      "salt": "0xa91128061fa30bf38776a6c4adb7af99efd2dfec645378bb74cc5e767b68acac",
      "assetIds": [
        "41506478881403507969696680653240014914910929820314476107906210059990541021186"
      ]
    },
    {
      "x": 249,
      "y": 8,
      "size": 1,
      "price": "4683000000000000000000",
      "reserved": "",
      "salt": "0xeffcda5d8ac0fe7b50b6d6be56aa9d22fe4f0faeddb17f73fbdaed7a255af600",
      "assetIds": [
        "41506478881403507969696680653240014914910929820314476107906210059990541021186"
      ]
    },
    {
      "x": 249,
      "y": 9,
      "size": 1,
      "price": "4683000000000000000000",
      "reserved": "",
      "salt": "0xf57f566ee4e2d35fa414434414ce024d9e9e14d5dbdd2cf1d56f6defc94d91be",
      "assetIds": [
        "41506478881403507969696680653240014914910929820314476107906210059990541021186"
      ]
    },
    {
      "x": 249,
      "y": 10,
      "size": 1,
      "price": "4683000000000000000000",
      "reserved": "",
      "salt": "0xf3ad8e52b56beb0503eb1000f0c5812c513b63f74261e59f3a3cb457a5818291",
      "assetIds": [
        "41506478881403507969696680653240014914910929820314476107906210059990541021186"
      ]
    },
    {
      "x": 249,
      "y": 11,
      "size": 1,
      "price": "4683000000000000000000",
      "reserved": "",
      "salt": "0x7d20ef27a1ce3ccdbd2c7771bff0fb436ff7db4e0b41028d332b5e8bba1ef616",
      "assetIds": [
        "41506478881403507969696680653240014914910929820314476107906210059990541021186"
      ]
    },
    {
      "x": 250,
      "y": 6,
      "size": 1,
      "price": "4683000000000000000000",
      "reserved": "",
      "salt": "0x8c799dc561652b51b627a24328cc92707dd13efb0f8d9c13e809fe1678ce70d7",
      "assetIds": [
        "41506478881403507969696680653240014914910929820314476107906210059990541021186"
      ]
    },
    {
      "x": 250,
      "y": 7,
      "size": 1,
      "price": "4683000000000000000000",
      "reserved": "",
      "salt": "0xd0b70082c1352a6f7218a617468611ccd6dd092c170fe19b99a7eafd1c4a3496",
      "assetIds": [
        "41506478881403507969696680653240014914910929820314476107906210059990541021186"
      ]
    },
    {
      "x": 250,
      "y": 8,
      "size": 1,
      "price": "4683000000000000000000",
      "reserved": "",
      "salt": "0xa9c9edeefc46249fc0ca7fde49cee8c0de804c47b0d764bddc1c8e5dc159e3e2",
      "assetIds": [
        "41506478881403507969696680653240014914910929820314476107906210059990541021186"
      ]
    },
    {
      "x": 250,
      "y": 9,
      "size": 1,
      "price": "4683000000000000000000",
      "reserved": "",
      "salt": "0x261e9f05a86b6570b75d0972ce35413acab1dd29c45f51aff6df7954f42b0996",
      "assetIds": [
        "41506478881403507969696680653240014914910929820314476107906210059990541021186"
      ]
    },
    {
      "x": 250,
      "y": 10,
      "size": 1,
      "price": "4683000000000000000000",
      "reserved": "",
      "salt": "0x61259eb03153cf3aec470da26459329e6d447eed5c7532f5fcb0f4228f51a1a1",
      "assetIds": [
        "41506478881403507969696680653240014914910929820314476107906210059990541021186"
      ]
    },
    {
      "x": 250,
      "y": 11,
      "size": 1,
      "price": "4683000000000000000000",
      "reserved": "",
      "salt": "0x46cb3382985270b8a9db9ec51c9cd1bfc0559d07abeb7f212d5b3b555d88b2e7",
      "assetIds": [
        "41506478881403507969696680653240014914910929820314476107906210059990541021186"
      ]
    },
    {
      "x": 251,
      "y": 6,
      "size": 1,
      "price": "4683000000000000000000",
      "reserved": "",
      "salt": "0x1c9cab1a32ac6946e56af661587508135f0f2e14c4ce408e3eab8bc486fde2d3",
      "assetIds": [
        "41506478881403507969696680653240014914910929820314476107906210059990541021186"
      ]
    },
    {
      "x": 251,
      "y": 7,
      "size": 1,
      "price": "4683000000000000000000",
      "reserved": "",
      "salt": "0x2f679c47f2bf5dde619c0b479b96e1ff3e8e31f552c216e26621052e475fd04c",
      "assetIds": [
        "41506478881403507969696680653240014914910929820314476107906210059990541021186"
      ]
    },
    {
      "x": 251,
      "y": 8,
      "size": 1,
      "price": "4683000000000000000000",
      "reserved": "",
      "salt": "0xa2705fca4b2acb785dbaf0eaec0c306c2bfaefef43fb04983ced95f78accf0a3",
      "assetIds": [
        "41506478881403507969696680653240014914910929820314476107906210059990541021186"
      ]
    },
    {
      "x": 251,
      "y": 9,
      "size": 1,
      "price": "4683000000000000000000",
      "reserved": "",
      "salt": "0x1945d4cf008c0f8572d1b85d3c818e8312bc4d25dc19177c36cb599755e22a1d",
      "assetIds": [
        "41506478881403507969696680653240014914910929820314476107906210059990541021186"
      ]
    },
    {
      "x": 251,
      "y": 10,
      "size": 1,
      "price": "4683000000000000000000",
      "reserved": "",
      "salt": "0x91ccb4bbf6bfad5a06fa507dae85301a10d2ffbc14ba9e757cbe8372cbd6e949",
      "assetIds": [
        "41506478881403507969696680653240014914910929820314476107906210059990541021186"
      ]
    },
    {
      "x": 251,
      "y": 11,
      "size": 1,
      "price": "4683000000000000000000",
      "reserved": "",
      "salt": "0x67020fb23ee6d37363941d85347267674464eff79cd467ec5b2e8af78869ab73",
      "assetIds": [
        "41506478881403507969696680653240014914910929820314476107906210059990541021186"
      ]
    },
    {
      "x": 252,
      "y": 0,
      "size": 1,
      "price": "1011000000000000000000",
      "reserved": "",
      "salt": "0x0901187fcc14b27447b5b1f2c61817c954a08f58865fdd7adb8a5b5a1955683b",
      "assetIds": []
    },
    {
      "x": 252,
      "y": 1,
      "size": 1,
      "price": "1011000000000000000000",
      "reserved": "",
      "salt": "0x2b3dfce78845277644f31312d6b951beaa2694f0d7261368144ac94c517d7ea9",
      "assetIds": []
    },
    {
      "x": 252,
      "y": 2,
      "size": 1,
      "price": "1011000000000000000000",
      "reserved": "",
      "salt": "0x31679c55e42b703af9f36eb1d530f6d3ec24ee91a39cc9b50c396424a6e44045",
      "assetIds": []
    },
    {
      "x": 252,
      "y": 3,
      "size": 1,
      "price": "4683000000000000000000",
      "reserved": "",
      "salt": "0x97db68b07ea528ec882a571612c2ed8303e20007aaee18c2806494d4ecc62855",
      "assetIds": [
        "41506478881403507969696680653240014914910929820314476107906210059990541021186"
      ]
    },
    {
      "x": 252,
      "y": 4,
      "size": 1,
      "price": "4683000000000000000000",
      "reserved": "",
      "salt": "0x3a01db91e8877fcfaff1aaa200f4e17250bc214e377db0fe3ce4f7fcb5668e0b",
      "assetIds": [
        "41506478881403507969696680653240014914910929820314476107906210059990541021186"
      ]
    },
    {
      "x": 252,
      "y": 5,
      "size": 1,
      "price": "4683000000000000000000",
      "reserved": "",
      "salt": "0x89ca74a4206da6168af423ba01c17a7e6a8ebe43e2c4507e4092bc4e86f27b66",
      "assetIds": [
        "41506478881403507969696680653240014914910929820314476107906210059990541021186"
      ]
    },
    {
      "x": 253,
      "y": 0,
      "size": 1,
      "price": "1011000000000000000000",
      "reserved": "",
      "salt": "0xb5101a474956f7b213280eed8cc08dbaa80a8b31cdcf699a9bc3cf5783303748",
      "assetIds": []
    },
    {
      "x": 253,
      "y": 1,
      "size": 1,
      "price": "1011000000000000000000",
      "reserved": "0x7a9fe22691c811ea339d9b73150e6911a5343dca",
      "salt": "0x187483432873f907a196883f4ea5ae038c93d5df67a8a174c19b18c62f49a1dc",
      "assetIds": []
    },
    {
      "x": 253,
      "y": 2,
      "size": 1,
      "price": "1011000000000000000000",
      "reserved": "",
      "salt": "0x92bb25857a27b7fd3f911c26e89c51a726bf69083ee0f0ff9d0e646d79247c75",
      "assetIds": []
    },
    {
      "x": 253,
      "y": 3,
      "size": 1,
      "price": "4683000000000000000000",
      "reserved": "",
      "salt": "0x7b4bd78dc2a11ab94acf5c68c3f267be35dbad7dd52c041b8593825270319707",
      "assetIds": [
        "41506478881403507969696680653240014914910929820314476107906210059990541021186"
      ]
    },
    {
      "x": 253,
      "y": 4,
      "size": 1,
      "price": "4683000000000000000000",
      "reserved": "",
      "salt": "0xfc6bad2cf29647213268f184d7a6b5f5019a98c306da48f39e048deddf6cbba6",
      "assetIds": [
        "41506478881403507969696680653240014914910929820314476107906210059990541021186"
      ]
    },
    {
      "x": 253,
      "y": 5,
      "size": 1,
      "price": "4683000000000000000000",
      "reserved": "",
      "salt": "0x1490c46492febc8fe42cd55afdac4a7fde67ecf517f231b412ad43811785cdf2",
      "assetIds": [
        "41506478881403507969696680653240014914910929820314476107906210059990541021186"
      ]
    },
    {
      "x": 254,
      "y": 0,
      "size": 1,
      "price": "1011000000000000000000",
      "reserved": "",
      "salt": "0x3d5e5538ab0b6b2e735e9f05f2e65a46dcd9b9db82c2229c17ff674be9a8dde4",
      "assetIds": []
    },
    {
      "x": 254,
      "y": 1,
      "size": 1,
      "price": "1011000000000000000000",
      "reserved": "",
      "salt": "0xc29a4d4afa0a1d5b7615d0576a5c31e8180b44bc2df904181bdaaa3f521e9fcd",
      "assetIds": []
    },
    {
      "x": 254,
      "y": 2,
      "size": 1,
      "price": "1011000000000000000000",
      "reserved": "",
      "salt": "0xd44f60a3b0b18137c5d73a345a1fbde3acb5bda9a0f834a70346aa37381e2095",
      "assetIds": []
    },
    {
      "x": 254,
      "y": 3,
      "size": 1,
      "price": "4683000000000000000000",
      "reserved": "",
      "salt": "0x0efa16f05b2037457ec9a372da07098fc9b26b0e24c89fdd2cd6b9d1ebeb04ef",
      "assetIds": [
        "41506478881403507969696680653240014914910929820314476107906210059990541021186"
      ]
    },
    {
      "x": 254,
      "y": 4,
      "size": 1,
      "price": "4683000000000000000000",
      "reserved": "",
      "salt": "0x1f0db65b0b7c9ece0db8a4a2a50239e4a63ca8421e7ac2a4972a67cf4575dc94",
      "assetIds": [
        "41506478881403507969696680653240014914910929820314476107906210059990541021186"
      ]
    },
    {
      "x": 254,
      "y": 5,
      "size": 1,
      "price": "4683000000000000000000",
      "reserved": "",
      "salt": "0x14edcfd0bf4ced575f2f7a252d5b2240fcf8316d909a2e8ede2b1a3d7f4920fb",
      "assetIds": [
        "41506478881403507969696680653240014914910929820314476107906210059990541021186"
      ]
    },
    {
      "x": 255,
      "y": 0,
      "size": 1,
      "price": "1011000000000000000000",
      "reserved": "0x7a9fe22691c811ea339d9b73150e6911a5343dca",
      "salt": "0x740bd4374d0a15f9812fd2da67cc0f2e6008637d8407310ca3ed227253181bc2",
      "assetIds": []
    },
    {
      "x": 255,
      "y": 1,
      "size": 1,
      "price": "1011000000000000000000",
      "reserved": "",
      "salt": "0xc9a855fcf2a6d94531c3ccf5ba2c5006f06e728765ae2b6d10c55555fbff2339",
      "assetIds": []
    },
    {
      "x": 255,
      "y": 2,
      "size": 1,
      "price": "1011000000000000000000",
      "reserved": "0x7a9fe22691c811ea339d9b73150e6911a5343dca",
      "salt": "0xdfdbb783565cc4a6f78746b789b9dd9e564d13ca910d01867aeda6ba040d57a0",
      "assetIds": []
    },
    {
      "x": 255,
      "y": 3,
      "size": 1,
      "price": "4683000000000000000000",
      "reserved": "",
      "salt": "0x04f67bea7d3bbb9fb1377c62032e990b6cc284d77cd23fda1d3d0e584306ab1a",
      "assetIds": [
        "41506478881403507969696680653240014914910929820314476107906210059990541021186"
      ]
    },
    {
      "x": 255,
      "y": 4,
      "size": 1,
      "price": "4683000000000000000000",
      "reserved": "",
      "salt": "0x4d648542a44cef8ed7ae2f602a19a2fd4b6adc9291f8c87206e331542b21e25f",
      "assetIds": [
        "41506478881403507969696680653240014914910929820314476107906210059990541021186"
      ]
    },
    {
      "x": 255,
      "y": 5,
      "size": 1,
      "price": "4683000000000000000000",
      "reserved": "",
      "salt": "0x9de542947bfc86de0ad351e4c8f248c9b5848aa11c5701d12910616cc61bbf2d",
      "assetIds": [
        "41506478881403507969696680653240014914910929820314476107906210059990541021186"
      ]
    },
    {
      "x": 255,
      "y": 9,
      "size": 1,
      "price": "4683000000000000000000",
      "reserved": "",
      "salt": "0x2a8d73cb5642dbbbdd490212c471cb431210d1f48f06083c4d3ac9f4bde3eaa3",
      "assetIds": [
        "41506478881403507969696680653240014914910929820314476107906210059990541021186"
      ]
    },
    {
      "x": 255,
      "y": 10,
      "size": 1,
      "price": "4683000000000000000000",
      "reserved": "",
      "salt": "0x082c1f93e6ea940a828d8d231f3c0e209dfb438f0d6effdcc54dfbede80215a9",
      "assetIds": [
        "41506478881403507969696680653240014914910929820314476107906210059990541021186"
      ]
    },
    {
      "x": 255,
      "y": 11,
      "size": 1,
      "price": "4683000000000000000000",
      "reserved": "",
      "salt": "0x2617d7d7e3b720e69e5d4cb375dc2718c41b528171669711c2c8617df5946dc8",
      "assetIds": [
        "41506478881403507969696680653240014914910929820314476107906210059990541021186"
      ]
    },
    {
      "x": 256,
      "y": 0,
      "size": 1,
      "price": "1011000000000000000000",
      "reserved": "",
      "salt": "0xa375a77d5af21173d73e8a083db77c416bf7791853b9164fa32f976244e5a714",
      "assetIds": []
    },
    {
      "x": 256,
      "y": 1,
      "size": 1,
      "price": "4683000000000000000000",
      "reserved": "",
      "salt": "0xee294028d9ae43412f02c3e4cab8f8884137265117378c05b7955fe18a708491",
      "assetIds": [
        "41506478881403507969696680653240014914910929820314476107906210059990541021186"
      ]
    },
    {
      "x": 256,
      "y": 2,
      "size": 1,
      "price": "4683000000000000000000",
      "reserved": "",
      "salt": "0x5878fa4793a75985c1fcd695421dd9839e9af48cd722ececb2ac91a7228c1c7a",
      "assetIds": [
        "41506478881403507969696680653240014914910929820314476107906210059990541021186"
      ]
    },
    {
      "x": 256,
      "y": 3,
      "size": 1,
      "price": "4683000000000000000000",
      "reserved": "",
      "salt": "0xba067ae885aeaef42b9f740b727d910523e164e8dc090937b93ce8820cbb61b6",
      "assetIds": [
        "41506478881403507969696680653240014914910929820314476107906210059990541021186"
      ]
    },
    {
      "x": 256,
      "y": 4,
      "size": 1,
      "price": "4683000000000000000000",
      "reserved": "",
      "salt": "0x75268d3fe853e07bda0bbfc1356688e37660766438960377e4b80a731c387ecc",
      "assetIds": [
        "41506478881403507969696680653240014914910929820314476107906210059990541021186"
      ]
    },
    {
      "x": 256,
      "y": 5,
      "size": 1,
      "price": "4683000000000000000000",
      "reserved": "",
      "salt": "0x557ebdfd1f10bcbcc7430239543673dae985e57ccd60bcd66c23c44e5a3b9c1f",
      "assetIds": [
        "41506478881403507969696680653240014914910929820314476107906210059990541021186"
      ]
    },
    {
      "x": 256,
      "y": 9,
      "size": 1,
      "price": "4683000000000000000000",
      "reserved": "",
      "salt": "0x072a76b4d497be7457bec4029ee8735e3830c444caf3eba7d0710fdf36715e6c",
      "assetIds": [
        "41506478881403507969696680653240014914910929820314476107906210059990541021186"
      ]
    },
    {
      "x": 256,
      "y": 10,
      "size": 1,
      "price": "4683000000000000000000",
      "reserved": "",
      "salt": "0x7cc89417a9e9e60d1c8c144d5e490c0287e08837a9fb3f239ed665632c1ef170",
      "assetIds": [
        "41506478881403507969696680653240014914910929820314476107906210059990541021186"
      ]
    },
    {
      "x": 256,
      "y": 11,
      "size": 1,
      "price": "4683000000000000000000",
      "reserved": "",
      "salt": "0xc7f4d8db00e3d4eeb13897ee501dffbbf3d5359c9ce23dc159f788cc33a42987",
      "assetIds": [
        "41506478881403507969696680653240014914910929820314476107906210059990541021186"
      ]
    },
    {
      "x": 257,
      "y": 0,
      "size": 1,
      "price": "4683000000000000000000",
      "reserved": "",
      "salt": "0x5ce1b56aa65147d0b79d3a8dc0d7f80a602d93064a15f170933afe4137269c22",
      "assetIds": [
        "41506478881403507969696680653240014914910929820314476107906210059990541021186"
      ]
    },
    {
      "x": 257,
      "y": 1,
      "size": 1,
      "price": "4683000000000000000000",
      "reserved": "",
      "salt": "0x3588218562b733da8261cb662146d3984fb4c098755cb3d8a43483421a473dab",
      "assetIds": [
        "41506478881403507969696680653240014914910929820314476107906210059990541021186"
      ]
    },
    {
      "x": 257,
      "y": 2,
      "size": 1,
      "price": "4683000000000000000000",
      "reserved": "",
      "salt": "0x31798e21bb4389942cb515b3ae0958ba55ebc5ad1ae40697421638155feb74da",
      "assetIds": [
        "41506478881403507969696680653240014914910929820314476107906210059990541021186"
      ]
    },
    {
      "x": 257,
      "y": 3,
      "size": 1,
      "price": "4683000000000000000000",
      "reserved": "",
      "salt": "0xe859f46551b7141d9df38fd946792bffd9788b01348c77b48180300aa1cbd5ae",
      "assetIds": [
        "41506478881403507969696680653240014914910929820314476107906210059990541021186"
      ]
    },
    {
      "x": 257,
      "y": 4,
      "size": 1,
      "price": "4683000000000000000000",
      "reserved": "",
      "salt": "0xafdae57ba7ade7eea749871d4cb32ecbad085a040e881925d4159412c9634c43",
      "assetIds": [
        "41506478881403507969696680653240014914910929820314476107906210059990541021186"
      ]
    },
    {
      "x": 257,
      "y": 5,
      "size": 1,
      "price": "4683000000000000000000",
      "reserved": "",
      "salt": "0x2b78dde845d709ba0ac26ad929bc09e286f515fd76b7c80918b939d8ae6169d6",
      "assetIds": [
        "41506478881403507969696680653240014914910929820314476107906210059990541021186"
      ]
    },
    {
      "x": 257,
      "y": 9,
      "size": 1,
      "price": "4683000000000000000000",
      "reserved": "",
      "salt": "0x427b92b0e77591b8d9f5017aa95e2609e3a1b23620df5b12d37b61bfc527ae00",
      "assetIds": [
        "41506478881403507969696680653240014914910929820314476107906210059990541021186"
      ]
    },
    {
      "x": 257,
      "y": 10,
      "size": 1,
      "price": "4683000000000000000000",
      "reserved": "",
      "salt": "0xb4ce3eb4050593f8683da046842bf23216425ce51cf38f744d7f3f49a8cb9d8d",
      "assetIds": [
        "41506478881403507969696680653240014914910929820314476107906210059990541021186"
      ]
    },
    {
      "x": 257,
      "y": 11,
      "size": 1,
      "price": "1011000000000000000000",
      "reserved": "",
      "salt": "0x79b9398c3341eeb9527a74ecb567c93043ac1877f3da461efde3a2b8fef4d8d8",
      "assetIds": []
    },
    {
      "x": 258,
      "y": 6,
      "size": 1,
      "price": "4683000000000000000000",
      "reserved": "",
      "salt": "0x0e32d2abe42d989f2370f2c3a81f61f8a90c8273c8b3956e589e3ec9fbdfce72",
      "assetIds": [
        "41506478881403507969696680653240014914910929820314476107906210059990541021186"
      ]
    },
    {
      "x": 258,
      "y": 7,
      "size": 1,
      "price": "1011000000000000000000",
      "reserved": "",
      "salt": "0x8df02d6758705072dc350cffa3cfe6daf63158634581cbb4932b6ffa9263ef30",
      "assetIds": []
    },
    {
      "x": 258,
      "y": 8,
      "size": 1,
      "price": "1011000000000000000000",
      "reserved": "0x7a9fe22691c811ea339d9b73150e6911a5343dca",
      "salt": "0x515eaa0042d8f5b6af3934dfb6d1866202ab06f3f152d39c63ef164ed7514a47",
      "assetIds": []
    },
    {
      "x": 259,
      "y": 6,
      "size": 1,
      "price": "4683000000000000000000",
      "reserved": "",
      "salt": "0x5cdcc715ec0e99433af9784b2dbf576579d2cb9a0dd4a8d5296d6766f155fdb9",
      "assetIds": [
        "41506478881403507969696680653240014914910929820314476107906210059990541021186"
      ]
    },
    {
      "x": 259,
      "y": 7,
      "size": 1,
      "price": "1011000000000000000000",
      "reserved": "",
      "salt": "0x042f79c8aed4df097f9592ed05242e6b7f9e4d3d8cd4f0ea080595200ef12525",
      "assetIds": []
    },
    {
      "x": 259,
      "y": 8,
      "size": 1,
      "price": "1011000000000000000000",
      "reserved": "",
      "salt": "0xb56bf81afd7b4cb5224a56f505074e36407c98a239bb9c106b7b8acd3f9ec1ab",
      "assetIds": []
    },
    {
      "x": 260,
      "y": 6,
      "size": 1,
      "price": "4683000000000000000000",
      "reserved": "",
      "salt": "0x1199e8fd70c96dc1f827fa9ecde68b52282e5ec69483c8fb9903d5e296624e59",
      "assetIds": [
        "41506478881403507969696680653240014914910929820314476107906210059990541021186"
      ]
    },
    {
      "x": 260,
      "y": 7,
      "size": 1,
      "price": "1011000000000000000000",
      "reserved": "",
      "salt": "0x270bdc42149c8a4b8db7ce73f9175b5e75ccd63304d5decfd355045d07ffedb5",
      "assetIds": []
    },
    {
      "x": 260,
      "y": 8,
      "size": 1,
      "price": "1011000000000000000000",
      "reserved": "",
      "salt": "0x85446049af619f577fd35a3fdac26d878f4485e0feb1caab7f2ed69ace1cb151",
      "assetIds": []
    },
    {
      "x": 261,
      "y": 6,
      "size": 1,
      "price": "4683000000000000000000",
      "reserved": "",
      "salt": "0x0d72a4907ade051f5acc792080fc3f9247ac05dea1e635496373833483ef9a44",
      "assetIds": [
        "41506478881403507969696680653240014914910929820314476107906210059990541021186"
      ]
    },
    {
      "x": 261,
      "y": 7,
      "size": 1,
      "price": "1011000000000000000000",
      "reserved": "",
      "salt": "0x983d885b9014a5135eca7a1a54488f385d12a3a848a6746b6de211a71c215b44",
      "assetIds": []
    },
    {
      "x": 261,
      "y": 8,
      "size": 1,
      "price": "1011000000000000000000",
      "reserved": "",
      "salt": "0x0745594cd789b543e3de7ba16a7309e4d640d61659285d8b7edf3534da42229f",
      "assetIds": []
    },
    {
      "x": 262,
      "y": 6,
      "size": 1,
      "price": "4683000000000000000000",
      "reserved": "",
      "salt": "0x6ea983532f2ebd6e87328ace00bee108582ce0b9e654c4f570eafc64066c9320",
      "assetIds": [
        "41506478881403507969696680653240014914910929820314476107906210059990541021186"
      ]
    },
    {
      "x": 262,
      "y": 7,
      "size": 1,
      "price": "1011000000000000000000",
      "reserved": "0x7a9fe22691c811ea339d9b73150e6911a5343dca",
      "salt": "0x7980565ccf973e94cab795775a114f8eb10b339231e29034dc317a6a992c1564",
      "assetIds": []
    },
    {
      "x": 262,
      "y": 8,
      "size": 1,
      "price": "1011000000000000000000",
      "reserved": "",
      "salt": "0x51b1b2c8311613acf6b85b26d970ce01941859f4d7fcb1e0c71ed2eff172c38a",
      "assetIds": []
    },
    {
      "x": 263,
      "y": 6,
      "size": 1,
      "price": "4683000000000000000000",
      "reserved": "",
      "salt": "0x4bf87e52bb374551a4d5ecbd18850f6b5f33e72a88ae7bd823abd3df32a098f0",
      "assetIds": [
        "41506478881403507969696680653240014914910929820314476107906210059990541021186"
      ]
    },
    {
      "x": 263,
      "y": 7,
      "size": 1,
      "price": "1011000000000000000000",
      "reserved": "",
      "salt": "0x42e07d95524d35cf982a979af0a5d58bc8a18fae45a144dcfc7e6e82c34788aa",
      "assetIds": []
    },
    {
      "x": 263,
      "y": 8,
      "size": 1,
      "price": "1011000000000000000000",
      "reserved": "",
      "salt": "0xfbe1a0d90ebc63d20483ba900b6307110dd5cdc7c168a839679c91821f7d37db",
      "assetIds": []
    },
    {
      "x": 264,
      "y": 0,
      "size": 1,
      "price": "4683000000000000000000",
      "reserved": "",
      "salt": "0x13567d5cf6284df5c88ddfa47dcbd402d723d9c4d8123524bff78beb3cd17da5",
      "assetIds": [
        "41506478881403507969696680653240014914910929820314476107906210059990541021186"
      ]
    },
    {
      "x": 264,
      "y": 1,
      "size": 1,
      "price": "1011000000000000000000",
      "reserved": "0x7a9fe22691c811ea339d9b73150e6911a5343dca",
      "salt": "0xc19fcdd61306789786dd76e8116c1a808f1c0e4db1a42a1e9ac2f5a1fe1b3319",
      "assetIds": []
    },
    {
      "x": 264,
      "y": 2,
      "size": 1,
      "price": "4683000000000000000000",
      "reserved": "",
      "salt": "0xdc9b4c7066da954633863e880cd1b9268c5b40293de6170cc83e0ab064ae5b9d",
      "assetIds": [
        "41506478881403507969696680653240014914910929820314476107906210059990541021186"
      ]
    },
    {
      "x": 264,
      "y": 3,
      "size": 1,
      "price": "4683000000000000000000",
      "reserved": "",
      "salt": "0xa8a28b4f040fdcc6883e5154ba143f3e553d18f77b74f11d4ae46b5fd60ebe8e",
      "assetIds": [
        "41506478881403507969696680653240014914910929820314476107906210059990541021186"
      ]
    },
    {
      "x": 264,
      "y": 4,
      "size": 1,
      "price": "4683000000000000000000",
      "reserved": "",
      "salt": "0x11c17d84aef1a02a84272275dfa51fd074276ec16ba69172acfc248b52b9c8b1",
      "assetIds": [
        "41506478881403507969696680653240014914910929820314476107906210059990541021186"
      ]
    },
    {
      "x": 264,
      "y": 5,
      "size": 1,
      "price": "4683000000000000000000",
      "reserved": "",
      "salt": "0x470e5a8cd963c21b24b12429ed939e3329bd32fa54eea8296cc373f350def29f",
      "assetIds": [
        "41506478881403507969696680653240014914910929820314476107906210059990541021186"
      ]
    },
    {
      "x": 264,
      "y": 6,
      "size": 1,
      "price": "1011000000000000000000",
      "reserved": "0x7a9fe22691c811ea339d9b73150e6911a5343dca",
      "salt": "0x910e07833e20cae145e3d73b1b4dbc97dbbd80bd76549ad069ec0b067f22547e",
      "assetIds": []
    },
    {
      "x": 264,
      "y": 7,
      "size": 1,
      "price": "1011000000000000000000",
      "reserved": "",
      "salt": "0xa1ab54e6382ddf4ca2ef1b2c3ff90803e121101755ebc08a2a7b6dd860690348",
      "assetIds": []
    },
    {
      "x": 264,
      "y": 8,
      "size": 1,
      "price": "1011000000000000000000",
      "reserved": "",
      "salt": "0x42fa587750bc079be8dc0a601d7f9079e880aacdb0f0c733e2ffce08ca873686",
      "assetIds": []
    },
    {
      "x": 264,
      "y": 9,
      "size": 1,
      "price": "1011000000000000000000",
      "reserved": "",
      "salt": "0xedd63b827ba712884cd94f99559522a13775d546c28a364bc9eb63f57f9eb59c",
      "assetIds": []
    },
    {
      "x": 264,
      "y": 10,
      "size": 1,
      "price": "1011000000000000000000",
      "reserved": "",
      "salt": "0xc60a37772afe07610babb9111e28cecbedd44aa437c33ec8e3462b37d03865c3",
      "assetIds": []
    },
    {
      "x": 264,
      "y": 11,
      "size": 1,
      "price": "1011000000000000000000",
      "reserved": "0x7a9fe22691c811ea339d9b73150e6911a5343dca",
      "salt": "0x7ce2124758efa7819c07f496d2bbe3b53d49d0f99908016a1fc051c326ec88be",
      "assetIds": []
    },
    {
      "x": 265,
      "y": 0,
      "size": 1,
      "price": "1011000000000000000000",
      "reserved": "",
      "salt": "0x6a6ac1afaaae8ea3b6e7f2779dedbcc30d16185717b9dbd361d2275880c83ef7",
      "assetIds": []
    },
    {
      "x": 265,
      "y": 1,
      "size": 1,
      "price": "1011000000000000000000",
      "reserved": "",
      "salt": "0x03bea1e8d7539c164b6ef850dc7cbe42888c84a4a6a7cdae6005e7c3a5128392",
      "assetIds": []
    },
    {
      "x": 265,
      "y": 2,
      "size": 1,
      "price": "1011000000000000000000",
      "reserved": "",
      "salt": "0xa52e288674f96183a66ecb89da622bd336c37946461725b128e136fe6fde7b28",
      "assetIds": []
    },
    {
      "x": 265,
      "y": 3,
      "size": 1,
      "price": "1011000000000000000000",
      "reserved": "",
      "salt": "0x54734e587aa65b8eba1b26d751a74c50463c9e5f80283e3fbd3f24ab41319545",
      "assetIds": []
    },
    {
      "x": 265,
      "y": 4,
      "size": 1,
      "price": "1011000000000000000000",
      "reserved": "",
      "salt": "0x550ba49d239f78e7b38ab9f80f70d0c8c58f718d3f2cab0dec85b7700b03b9c9",
      "assetIds": []
    },
    {
      "x": 265,
      "y": 5,
      "size": 1,
      "price": "1011000000000000000000",
      "reserved": "",
      "salt": "0xca923317e5df8960f272483012f5534ab840122cd4ffc119fffde85c1bf3ff3c",
      "assetIds": []
    },
    {
      "x": 265,
      "y": 6,
      "size": 1,
      "price": "1011000000000000000000",
      "reserved": "",
      "salt": "0xbc4c1a7d6f90fae23b39ee1e085b1c674272a61f0695802b7a68467f64463bab",
      "assetIds": []
    },
    {
      "x": 265,
      "y": 7,
      "size": 1,
      "price": "1011000000000000000000",
      "reserved": "",
      "salt": "0x538598c5b62155205c61804bf537142f7d8ee453c2304cef9655805517543d83",
      "assetIds": []
    },
    {
      "x": 265,
      "y": 8,
      "size": 1,
      "price": "1011000000000000000000",
      "reserved": "0x7a9fe22691c811ea339d9b73150e6911a5343dca",
      "salt": "0x773d8989edec335fd2ce7d40ba25d3db99484e7bd7dcf03fcf961e39bfbef5c8",
      "assetIds": []
    },
    {
      "x": 265,
      "y": 9,
      "size": 1,
      "price": "1011000000000000000000",
      "reserved": "",
      "salt": "0xbe26551956d7f1eaf768226aec3c7790fc4ae99ee28a47539bc727ac1edb21eb",
      "assetIds": []
    },
    {
      "x": 265,
      "y": 10,
      "size": 1,
      "price": "1011000000000000000000",
      "reserved": "",
      "salt": "0x22297c2a5956dcff70d87efe213580fbc658a6cd7e66f3b81f6ac6a80bce2fc3",
      "assetIds": []
    },
    {
      "x": 265,
      "y": 11,
      "size": 1,
      "price": "1011000000000000000000",
      "reserved": "",
      "salt": "0x0adc11537275578f631c6fad5055ed03ae96257b818cec59f9aeb08d9d7a64c5",
      "assetIds": []
    },
    {
      "x": 266,
      "y": 0,
      "size": 1,
      "price": "1011000000000000000000",
      "reserved": "",
      "salt": "0x123aa6ee6b3e71b05d81b6a2bbba769044147a2a47ca846ba58338672227cc80",
      "assetIds": []
    },
    {
      "x": 266,
      "y": 1,
      "size": 1,
      "price": "1011000000000000000000",
      "reserved": "",
      "salt": "0x524f08fcc082256de4c692dc89eb93e5097af76c7c9dcd0677e604c1af3ca2e9",
      "assetIds": []
    },
    {
      "x": 266,
      "y": 2,
      "size": 1,
      "price": "1011000000000000000000",
      "reserved": "",
      "salt": "0x552407cec85a4a4e40995d540e0804c47aaf4fa9f054c9f4e8cc0e02e1df298f",
      "assetIds": []
    },
    {
      "x": 266,
      "y": 3,
      "size": 1,
      "price": "1011000000000000000000",
      "reserved": "",
      "salt": "0xc1625a78b72ef013ae535ae9d32635553ccef893c29dbfe66350158b6b2331ae",
      "assetIds": []
    },
    {
      "x": 266,
      "y": 4,
      "size": 1,
      "price": "1011000000000000000000",
      "reserved": "0x7a9fe22691c811ea339d9b73150e6911a5343dca",
      "salt": "0x5d8009f932e890a59c7f9ae6a4c23e6ac5b048da7c7566150f73552f02b1fd38",
      "assetIds": []
    },
    {
      "x": 266,
      "y": 5,
      "size": 1,
      "price": "1011000000000000000000",
      "reserved": "",
      "salt": "0xe4f8d933ce66c9d0cdc7ebe8c8202da7058b7c60dafd99436043a322ad393a9e",
      "assetIds": []
    },
    {
      "x": 266,
      "y": 6,
      "size": 1,
      "price": "1011000000000000000000",
      "reserved": "",
      "salt": "0x98d60fc5f879fcf918720b2ebbb6c5fae0cd60e83cb0353b9cc578280880bcb0",
      "assetIds": []
    },
    {
      "x": 266,
      "y": 7,
      "size": 1,
      "price": "1011000000000000000000",
      "reserved": "",
      "salt": "0x60d7485d69d78d74a73df05c9a76a66333fca1262f7a8e363c5fcfebdb7b58bb",
      "assetIds": []
    },
    {
      "x": 266,
      "y": 8,
      "size": 1,
      "price": "1011000000000000000000",
      "reserved": "",
      "salt": "0xbb6fe3dc01e07245a279c699e7bcef7c1778ad5aaa406cc6c20807c6dc4feaa8",
      "assetIds": []
    },
    {
      "x": 266,
      "y": 9,
      "size": 1,
      "price": "1011000000000000000000",
      "reserved": "",
      "salt": "0x1e097f1b6960433a84d7bd99cd783455715cb171b9337e53a15d92626f27dcb3",
      "assetIds": []
    },
    {
      "x": 266,
      "y": 10,
      "size": 1,
      "price": "1011000000000000000000",
      "reserved": "",
      "salt": "0x4223bdc178900d2f1f5f13ca1b7f9f75721eeb90c5f764504bfab3f28c06053b",
      "assetIds": []
    },
    {
      "x": 266,
      "y": 11,
      "size": 1,
      "price": "1011000000000000000000",
      "reserved": "",
      "salt": "0x0e692287237bbbbce849428cabc6b0abd8ab4650a8c0de0941bfd60fdfd88895",
      "assetIds": []
    },
    {
      "x": 267,
      "y": 3,
      "size": 1,
      "price": "1011000000000000000000",
      "reserved": "",
      "salt": "0x89b8326bc8f740422319a35d52ce3db850e6b580b9608b33c467a16562c4ab92",
      "assetIds": []
    },
    {
      "x": 267,
      "y": 4,
      "size": 1,
      "price": "1011000000000000000000",
      "reserved": "",
      "salt": "0x38d219ff35802799a4bb9d43f395b31d2e667741600e130e04a591c9b577a2d8",
      "assetIds": []
    },
    {
      "x": 267,
      "y": 5,
      "size": 1,
      "price": "1011000000000000000000",
      "reserved": "",
      "salt": "0x6ccd5511525bb05e704e17b3ab4bec0f9f37bee863b4c9ed5d3a8686601c8b86",
      "assetIds": []
    },
    {
      "x": 267,
      "y": 6,
      "size": 1,
      "price": "1011000000000000000000",
      "reserved": "",
      "salt": "0x3687606e98cc9a05b97008e0050ec5db35ee1aea0e91a51a9d16cd17628ffbd4",
      "assetIds": []
    },
    {
      "x": 267,
      "y": 7,
      "size": 1,
      "price": "1011000000000000000000",
      "reserved": "",
      "salt": "0x58b52b530cce6f89ba411e68798f4903bf0944b7e86ffc30ee543ee1419c8243",
      "assetIds": []
    },
    {
      "x": 267,
      "y": 8,
      "size": 1,
      "price": "1011000000000000000000",
      "reserved": "",
      "salt": "0xc374aa71d74e3bf05dedf40216a4bedc6b76ba9078aea4044204f54abd953782",
      "assetIds": []
    },
    {
      "x": 267,
      "y": 9,
      "size": 1,
      "price": "1011000000000000000000",
      "reserved": "0x7a9fe22691c811ea339d9b73150e6911a5343dca",
      "salt": "0x519418baa61db4ec0e033ecf490da18a2a18a416aec62a786b29541c501458c1",
      "assetIds": []
    },
    {
      "x": 267,
      "y": 10,
      "size": 1,
      "price": "1011000000000000000000",
      "reserved": "",
      "salt": "0x934cb6359e927e3b2d6bf74a69852e9de23b4db59a3092e3e0542685598e2446",
      "assetIds": []
    },
    {
      "x": 267,
      "y": 11,
      "size": 1,
      "price": "1011000000000000000000",
      "reserved": "",
      "salt": "0x1207dc9147c0d043126086b5deed365af9f7fefc20adbeb16a8952494130bf89",
      "assetIds": []
    },
    {
      "x": 268,
      "y": 3,
      "size": 1,
      "price": "1011000000000000000000",
      "reserved": "",
      "salt": "0xa33b2eb2ed98f08e637ec2ba101e9dc1bdc29f46795c2d441ee4e94029508eda",
      "assetIds": []
    },
    {
      "x": 268,
      "y": 4,
      "size": 1,
      "price": "1011000000000000000000",
      "reserved": "",
      "salt": "0xc2f051e41ea6b53bc66ff2f65ec1459a311cf4dbdcba1080892b9c0c3baf5519",
      "assetIds": []
    },
    {
      "x": 268,
      "y": 5,
      "size": 1,
      "price": "1011000000000000000000",
      "reserved": "0x7a9fe22691c811ea339d9b73150e6911a5343dca",
      "salt": "0xfd7a3bf37b2dd0d14b0f3019db3de4b9d6619781772585258c0a2ea9a96bae38",
      "assetIds": []
    },
    {
      "x": 268,
      "y": 6,
      "size": 1,
      "price": "1011000000000000000000",
      "reserved": "",
      "salt": "0x6abf43c5946ebb79f9beec5c041004d30b27aa2326b2161a22ab4a0f9b96dca9",
      "assetIds": []
    },
    {
      "x": 268,
      "y": 7,
      "size": 1,
      "price": "1011000000000000000000",
      "reserved": "0x7a9fe22691c811ea339d9b73150e6911a5343dca",
      "salt": "0xf1cfd8aec078ff14728817bb6672235979cc5725728a45c761d99f7ba679c288",
      "assetIds": []
    },
    {
      "x": 268,
      "y": 8,
      "size": 1,
      "price": "1011000000000000000000",
      "reserved": "",
      "salt": "0xfe6ac0d606e2379450be121935c8f29fa8d4874c85253dc8704a8835e5280943",
      "assetIds": []
    },
    {
      "x": 268,
      "y": 9,
      "size": 1,
      "price": "1011000000000000000000",
      "reserved": "",
      "salt": "0x2c81dcbff8770042e9cd44078179606ae986f18a931d6f6fe8b9b06c7c7b39dd",
      "assetIds": []
    },
    {
      "x": 268,
      "y": 10,
      "size": 1,
      "price": "1011000000000000000000",
      "reserved": "",
      "salt": "0xae6b702a7f9f8abdd581fa3c3c4611fa4bd44a5ec5d9dfbd0c81f760fcccbff3",
      "assetIds": []
    },
    {
      "x": 268,
      "y": 11,
      "size": 1,
      "price": "1011000000000000000000",
      "reserved": "0x7a9fe22691c811ea339d9b73150e6911a5343dca",
      "salt": "0xe474056860fd723991df8337dd9368f644fd95d7d9e7235fa9589bc58b50b490",
      "assetIds": []
    },
    {
      "x": 269,
      "y": 3,
      "size": 1,
      "price": "1011000000000000000000",
      "reserved": "",
      "salt": "0x3d789249096a394fe80a81db29ef14975a2c6fbf1f75595a8ad2b8b37cc63d30",
      "assetIds": []
    },
    {
      "x": 269,
      "y": 4,
      "size": 1,
      "price": "1011000000000000000000",
      "reserved": "0x7a9fe22691c811ea339d9b73150e6911a5343dca",
      "salt": "0x7c683049f53902fb1a9645ab5a6ee0b2a16f5e263a8d29a622c71daa77300a26",
      "assetIds": []
    },
    {
      "x": 269,
      "y": 5,
      "size": 1,
      "price": "1011000000000000000000",
      "reserved": "",
      "salt": "0xf520c57203c974bb3b54558d21e5ff7c3ae1f5f5cbf2333d15a3e895ca3d3379",
      "assetIds": []
    },
    {
      "x": 269,
      "y": 6,
      "size": 1,
      "price": "1011000000000000000000",
      "reserved": "",
      "salt": "0x1a2e50cbd4e55c359359dcc2eeb1f2230f20a2ade833ee44486510744d9ae98f",
      "assetIds": []
    },
    {
      "x": 269,
      "y": 7,
      "size": 1,
      "price": "1011000000000000000000",
      "reserved": "",
      "salt": "0x0e1ac886b7d74223f92c0978775c4244ace649d125d65bea50a44c59250fd3a4",
      "assetIds": []
    },
    {
      "x": 269,
      "y": 8,
      "size": 1,
      "price": "1011000000000000000000",
      "reserved": "",
      "salt": "0x437509daf18618a74e19eeea636cc3a841c45e6a8576a400cb91f01363884871",
      "assetIds": []
    },
    {
      "x": 269,
      "y": 9,
      "size": 1,
      "price": "1011000000000000000000",
      "reserved": "",
      "salt": "0x37ce20b19ffe56018e05afed60274df242c10fec9ed0a4134e02ad38ba2b31b9",
      "assetIds": []
    },
    {
      "x": 269,
      "y": 10,
      "size": 1,
      "price": "1011000000000000000000",
      "reserved": "",
      "salt": "0x711cbf6d5231b1ff62ad45dee2c26319b728be1da5711921f3eac9ffe44d7f83",
      "assetIds": []
    },
    {
      "x": 269,
      "y": 11,
      "size": 1,
      "price": "1011000000000000000000",
      "reserved": "",
      "salt": "0x3462fe83048bde90aa03e49d81dcb959fbac40533b77ea7813c6a3c92fc7124c",
      "assetIds": []
    },
    {
      "x": 240,
      "y": 12,
      "size": 3,
      "price": "8648000000000000000000",
      "reserved": "0x7a9fe22691c811ea339d9b73150e6911a5343dca",
      "salt": "0x7c8ba7021c09ba6dd8e28ef1a363ba7b8debf601ed18f52adf6f877eef0b51f5",
      "assetIds": []
    },
    {
      "x": 243,
      "y": 9,
      "size": 3,
      "price": "8648000000000000000000",
      "reserved": "0x7a9fe22691c811ea339d9b73150e6911a5343dca",
      "salt": "0xd268ba56c66b27b9fe3befdaa38cbc69bf0772e7df39ce609665d260ef3cc6c1",
      "assetIds": []
    },
    {
      "x": 243,
      "y": 12,
      "size": 3,
      "price": "8648000000000000000000",
      "reserved": "0x7a9fe22691c811ea339d9b73150e6911a5343dca",
      "salt": "0x727c36d3edad2167742486cc95f59110bad1654141efe4c7ecc51d9e61ff76d5",
      "assetIds": []
    },
    {
      "x": 246,
      "y": 0,
      "size": 3,
      "price": "8648000000000000000000",
      "reserved": "0x7a9fe22691c811ea339d9b73150e6911a5343dca",
      "salt": "0x51e0d7f05bd8fa8d324eaf65a053da101c134625347017b17733473434e1c3a8",
      "assetIds": []
    },
    {
      "x": 249,
      "y": 0,
      "size": 3,
      "price": "8648000000000000000000",
      "reserved": "0x7a9fe22691c811ea339d9b73150e6911a5343dca",
      "salt": "0xd5f668e36dfc268568a7a89d5ec2e4b221516a9bafa40f1149f1b131ac6e4052",
      "assetIds": []
    },
    {
      "x": 249,
      "y": 3,
      "size": 3,
      "price": "8648000000000000000000",
      "reserved": "0x7a9fe22691c811ea339d9b73150e6911a5343dca",
      "salt": "0x6091751ca6a25f624a36a7aa2c8b9cb87fcf2710ba715b99a531ce2c0854fa93",
      "assetIds": []
    },
    {
      "x": 252,
      "y": 6,
      "size": 3,
      "price": "8648000000000000000000",
      "reserved": "0x7a9fe22691c811ea339d9b73150e6911a5343dca",
      "salt": "0xe0a65f20c3cc068dedd8992116123b74aedfd874ed37da2fa5bcfe42ed6f182b",
      "assetIds": []
    },
    {
      "x": 252,
      "y": 9,
      "size": 3,
      "price": "8648000000000000000000",
      "reserved": "0x7a9fe22691c811ea339d9b73150e6911a5343dca",
      "salt": "0xbbafb4e9086e9d4018e17815abce1ea40c9a489064b6543bf063aa79e449e20a",
      "assetIds": []
    },
    {
      "x": 252,
      "y": 12,
      "size": 3,
      "price": "8648000000000000000000",
      "reserved": "0x7a9fe22691c811ea339d9b73150e6911a5343dca",
      "salt": "0x0d5969964a8e9ec2ad4c2c221ee6e570aef40f1caacbb77cc88ddd7e5d4e142a",
      "assetIds": []
    },
    {
      "x": 255,
      "y": 6,
      "size": 3,
      "price": "8648000000000000000000",
      "reserved": "0x7a9fe22691c811ea339d9b73150e6911a5343dca",
      "salt": "0x4ae67b40aa0856276c7d60eb03dca40a31cfc83bf7df987a9fc2fccc6cdedd70",
      "assetIds": []
    },
    {
      "x": 267,
      "y": 0,
      "size": 3,
      "price": "8648000000000000000000",
      "reserved": "0x7a9fe22691c811ea339d9b73150e6911a5343dca",
      "salt": "0x84a3e52132bfcb78419873c0dfc97158c81238c49903c39e15cb932157edd6e3",
      "assetIds": []
    },
    {
      "x": 234,
      "y": 0,
      "size": 6,
      "price": "32772000000000000000000",
      "reserved": "0x7a9fe22691c811ea339d9b73150e6911a5343dca",
      "salt": "0x68f33c61516c8815d0c394229e996d48229caea5a0b461bf6349d2de1fa02c51",
      "assetIds": []
    },
    {
      "x": 240,
      "y": 0,
      "size": 6,
      "price": "32772000000000000000000",
      "reserved": "0x7a9fe22691c811ea339d9b73150e6911a5343dca",
      "salt": "0xd421aa303d9e88f239489ec0c46993755ba5b997b8200a5b297f1351c1c98141",
      "assetIds": []
    },
    {
      "x": 258,
      "y": 0,
      "size": 6,
      "price": "32772000000000000000000",
      "reserved": "0x7a9fe22691c811ea339d9b73150e6911a5343dca",
      "salt": "0x5ee12d1893a1411aab766827090e53442aa1f99d4e4079d7e25bc9cf79c5c8e4",
      "assetIds": []
    },
    {
      "x": 270,
      "y": 0,
      "size": 6,
      "price": "32772000000000000000000",
      "reserved": "0x7a9fe22691c811ea339d9b73150e6911a5343dca",
      "salt": "0x477f329ae2fbab2a175ebb822f8a33432c5f7567016ebce1a116d49311ff0bcc",
      "assetIds": []
    },
    {
      "x": 270,
      "y": 6,
      "size": 6,
      "price": "32772000000000000000000",
      "reserved": "0x7a9fe22691c811ea339d9b73150e6911a5343dca",
      "salt": "0x6c07d99d5fe2c50f00c676f9f490586433b560822bc639e500c217e9809f9573",
      "assetIds": []
    }
  ],
  "solcInputHash": "e17a5bb930c92aaeeb80a52119ce77b7",
  "bytecode": "0x610160604052620d2f0060055534801561001857600080fd5b506040516200284d3803806200284d83398181016040526101a081101561003e57600080fd5b50805160208201516040830151606080850151608086015160a08088015160c0808a015160e08b01516101008c01516101208d01516101408e01516101608f0151610180909f0151600280546001600160a01b0319166001600160a01b03871617905560038490558e8c1b6001600160601b03199081169099529a8d901b9097169094529a9b999a98999698959793969195909490939091906100e28b600161015d565b600680546001600160a01b039a8b166001600160a01b031991821617909155610140989098526101209690965260008054998916998816999099179098556001600160601b0319606092831b811660e05290821b811660805296901b909516610100525060078054919093169116179055506101c192505050565b6001600160a01b038216600081815260016020908152604091829020805460ff191685151590811790915582519384529083015280517fb21eb88b4e33b3f1281830a7178d74d8aa73220416215726b68ae23d539515cb9281900390910190a15050565b60805160601c60a05160601c60c05160601c60e05160601c6101005160601c61012051610140516126066200024760003980610b3d528061206c525080610b1952806112ec5250806120da525080611841528061199e5250806117f75280611b9d528061210e525080611872528061196f525080610eb25280611c8952506126066000f3fe608060405234801561001057600080fd5b506004361061011b5760003560e01c80638f283970116100b2578063c10a420811610081578063dc5074af11610066578063dc5074af1461085f578063e56f8a9e14610885578063f23a6e61146108a25761011b565b8063c10a420814610780578063caed3500146108575761011b565b80638f28397014610500578063984d625214610526578063b522ecff146105f8578063bc197c811461061e5761011b565b806365194ce7116100ee57806365194ce7146103485780636e9960c3146104a657806377f1c3ac146104ca5780638a04af6a146104d25761011b565b80631187fd3c1461012057806325cb5bc014610300578063495906571461031a57806358bc294414610322575b600080fd5b6102fe600480360361012081101561013757600080fd5b6001600160a01b038235811692602081013582169260408201359092169181019060808101606082013564010000000081111561017357600080fd5b82018360208201111561018557600080fd5b803590602001918460208302840111640100000000831117156101a757600080fd5b919390928235926040810190602001356401000000008111156101c957600080fd5b8201836020820111156101db57600080fd5b803590602001918460208302840111640100000000831117156101fd57600080fd5b91939092909160208101903564010000000081111561021b57600080fd5b82018360208201111561022d57600080fd5b8035906020019184602083028401116401000000008311171561024f57600080fd5b91939092909160208101903564010000000081111561026d57600080fd5b82018360208201111561027f57600080fd5b803590602001918460018302840111640100000000831117156102a157600080fd5b9193909290916020810190356401000000008111156102bf57600080fd5b8201836020820111156102d157600080fd5b803590602001918460018302840111640100000000831117156102f357600080fd5b509092509050610937565b005b610308610b17565b60408051918252519081900360200190f35b610308610b3b565b6102fe6004803603602081101561033857600080fd5b50356001600160a01b0316610b5f565b6103ee6004803603602081101561035e57600080fd5b81019060208101813564010000000081111561037957600080fd5b82018360208201111561038b57600080fd5b803590602001918460018302840111640100000000831117156103ad57600080fd5b91908080601f016020809104026020016040519081016040528093929190818152602001838380828437600092019190915250929550610c0a945050505050565b6040518080602001866001600160a01b03166001600160a01b03168152602001856001600160a01b03166001600160a01b03168152602001848152602001838152602001828103825287818151815260200191508051906020019080838360005b8381101561046757818101518382015260200161044f565b50505050905090810190601f1680156104945780820380516001836020036101000a031916815260200191505b50965050505050505060405180910390f35b6104ae610d0f565b604080516001600160a01b039092168252519081900360200190f35b610308610d1e565b6102fe600480360360408110156104e857600080fd5b506001600160a01b0381351690602001351515610d24565b6102fe6004803603602081101561051657600080fd5b50356001600160a01b0316610d7b565b6102fe6004803603606081101561053c57600080fd5b6001600160a01b03823516919081019060408101602082013564010000000081111561056757600080fd5b82018360208201111561057957600080fd5b8035906020019184602083028401116401000000008311171561059b57600080fd5b9193909290916020810190356401000000008111156105b957600080fd5b8201836020820111156105cb57600080fd5b803590602001918460208302840111640100000000831117156105ed57600080fd5b509092509050610e51565b6102fe6004803603602081101561060e57600080fd5b50356001600160a01b0316610fdc565b61074b600480360360a081101561063457600080fd5b6001600160a01b03823581169260208101359091169181019060608101604082013564010000000081111561066857600080fd5b82018360208201111561067a57600080fd5b8035906020019184602083028401116401000000008311171561069c57600080fd5b9193909290916020810190356401000000008111156106ba57600080fd5b8201836020820111156106cc57600080fd5b803590602001918460208302840111640100000000831117156106ee57600080fd5b91939092909160208101903564010000000081111561070c57600080fd5b82018360208201111561071e57600080fd5b8035906020019184600183028401116401000000008311171561074057600080fd5b5090925090506110c5565b604080517fffffffff000000000000000000000000000000000000000000000000000000009092168252519081900360200190f35b610843600480360360a081101561079657600080fd5b8101906020810181356401000000008111156107b157600080fd5b8201836020820111156107c357600080fd5b803590602001918460018302840111640100000000831117156107e557600080fd5b91908080601f016020809104026020016040519081016040528093929190818152602001838380828437600092019190915250929550506001600160a01b0383358116945060208401351692604081013592506060013590506110f2565b604080519115158252519081900360200190f35b6104ae61122e565b6108436004803603602081101561087557600080fd5b50356001600160a01b031661123d565b6102fe6004803603602081101561089b57600080fd5b503561125b565b61074b600480360360a08110156108b857600080fd5b6001600160a01b03823581169260208101359091169160408201359160608101359181019060a0810160808201356401000000008111156108f857600080fd5b82018360208201111561090a57600080fd5b8035906020019184600183028401116401000000008311171561092c57600080fd5b5090925090506112bf565b6109418e8d6112ea565b610a388d8d8d8d80806020026020016040519081016040528093929190818152602001838360200280828437600081840152601f19601f820116905080830192505050505050508c8c8c80806020026020016040519081016040528093929190818152602001838360200280828437600081840152601f19601f820116905080830192505050505050508b8b8080602002602001604051908101604052809392919081815260200183836020028082843760009201919091525050604080516020601f8d018190048102820181019092528b815292508b91508a908190840183828082843760009201919091525061144d92505050565b610a8c8e8c8c6003818110610a4957fe5b9050602002013586868080601f0160208091040260200160405190810160405280939291908181526020018383808284376000920191909152506117d092505050565b610aca8e8e8d8d8080602002602001604051908101604052809392919081815260200183836020028082843760009201919091525061182192505050565b610b078d898980806020026020016040519081016040528093929190818152602001838360200280828437600092019190915250611c1292505050565b5050505050505050505050505050565b7f000000000000000000000000000000000000000000000000000000000000000090565b7f000000000000000000000000000000000000000000000000000000000000000090565b6000546001600160a01b03163314610bbe576040805162461bcd60e51b815260206004820152601060248201527f53656e646572206e6f742061646d696e00000000000000000000000000000000604482015290519081900360640190fd5b600554600280546001600160a01b03908116600090815260046020526040902042909301909255805473ffffffffffffffffffffffffffffffffffffffff191692909116919091179055565b606060008060008060606000806000808a80602001905160a0811015610c2f57600080fd5b8101908080516040519392919084640100000000821115610c4f57600080fd5b908301906020820185811115610c6457600080fd5b8251640100000000811182820188101715610c7e57600080fd5b82525081516020918201929091019080838360005b83811015610cab578181015183820152602001610c93565b50505050905090810190601f168015610cd85780820380516001836020036101000a031916815260200191505b5060409081526020820151908201516060830151608090930151959f50909d509b5099509197505050505050505091939590929450565b6000546001600160a01b031690565b60035490565b6000546001600160a01b03163314610d6d5760405162461bcd60e51b815260040180806020018281038252602e8152602001806125a3602e913960400191505060405180910390fd5b610d778282611dd6565b5050565b6000546001600160a01b03163314610dda576040805162461bcd60e51b815260206004820152601b60248201527f6f6e6c792061646d696e2063616e206368616e67652061646d696e0000000000604482015290519081900360640190fd5b600054604080516001600160a01b039283168152918316602083015280517f7e644d79422f17c01e4894b5f4f588d331ebfa28653d42ae832dc59e38c9798f9281900390910190a16000805473ffffffffffffffffffffffffffffffffffffffff19166001600160a01b0392909216919091179055565b6000546001600160a01b03163314610eb0576040805162461bcd60e51b815260206004820152600e60248201527f4e4f545f415554484f52495a4544000000000000000000000000000000000000604482015290519081900360640190fd5b7f00000000000000000000000000000000000000000000000000000000000000006001600160a01b0316632eb2c2d63087878787876040518763ffffffff1660e01b815260040180876001600160a01b03166001600160a01b03168152602001866001600160a01b03166001600160a01b031681526020018060200180602001806020018481038452888882818152602001925060200280828437600083820152601f01601f19169091018581038452868152602090810191508790870280828437600081840152601f19601f8201169050808301925050508481038252600081526020016020019950505050505050505050600060405180830381600087803b158015610fbd57600080fd5b505af1158015610fd1573d6000803e3d6000fd5b505050505050505050565b6001600160a01b038116611037576040805162461bcd60e51b815260206004820152600c60248201527f5a45524f5f414444524553530000000000000000000000000000000000000000604482015290519081900360640190fd5b6000546001600160a01b03163314611096576040805162461bcd60e51b815260206004820152600e60248201527f4e4f545f415554484f52495a4544000000000000000000000000000000000000604482015290519081900360640190fd5b6006805473ffffffffffffffffffffffffffffffffffffffff19166001600160a01b0392909216919091179055565b7fbc197c810000000000000000000000000000000000000000000000000000000098975050505050505050565b60006003548211806111155750836001600160a01b0316856001600160a01b0316145b8061111f57508242115b1561112c57506000611225565b60408051606087811b7fffffffffffffffffffffffffffffffffffffffff0000000000000000000000009081166020808501919091529188901b166034830152604882018690526068808301869052835180840390910181526088830184528051908201207f19457468657265756d205369676e6564204d6573736167653a0a33320000000060a884015260c48084018290528451808503909101815260e490930190935281519101206000906111e39089611e58565b6001600160a01b038116600090815260046020526040902054909150421161121057600192505050611225565b6002546001600160a01b039081169116149150505b95945050505050565b6002546001600160a01b031690565b6001600160a01b031660009081526001602052604090205460ff1690565b6000546001600160a01b031633146112ba576040805162461bcd60e51b815260206004820152601060248201527f53656e646572206e6f742061646d696e00000000000000000000000000000000604482015290519081900360640190fd5b600355565b7ff23a6e61000000000000000000000000000000000000000000000000000000009695505050505050565b7f0000000000000000000000000000000000000000000000000000000000000000421061135e576040805162461bcd60e51b815260206004820152600c60248201527f53414c455f49535f4f5645520000000000000000000000000000000000000000604482015290519081900360640190fd5b6001600160a01b03821633148061138457503360009081526001602052604090205460ff165b6113d5576040805162461bcd60e51b815260206004820152600e60248201527f4e4f545f415554484f52495a4544000000000000000000000000000000000000604482015290519081900360640190fd5b6001600160a01b03811615806113fc5750816001600160a01b0316816001600160a01b0316145b610d77576040805162461bcd60e51b815260206004820152600d60248201527f52455345525645445f4c414e4400000000000000000000000000000000000000604482015290519081900360640190fd5b600087878760008151811061145e57fe5b60200260200101518860018151811061147357fe5b60200260200101518960028151811061148857fe5b60200260200101518a60038151811061149d57fe5b60200260200101518a8a60405160200180828051906020019060200280838360005b838110156114d75781810151838201526020016114bf565b50505050905001915050604051602081830303815290604052805190602001208a60405160200180828051906020019060200280838360005b83811015611528578181015183820152602001611510565b5050505090500191505060405160208183030381529060405280519060200120604051602001808a6001600160a01b03166001600160a01b031660601b8152601401896001600160a01b03166001600160a01b031660601b81526014018881526020018781526020018681526020018581526020018481526020018381526020018281526020019950505050505050505050604051602081830303815290604052805190602001209050600760009054906101000a90046001600160a01b03166001600160a01b031663012847ed83836040518363ffffffff1660e01b81526004018080602001838152602001828103825284818151815260200191508051906020019080838360005b8381101561164a578181015183820152602001611632565b50505050905090810190601f1680156116775780820380516001836020036101000a031916815260200191505b50935050505060206040518083038186803b15801561169557600080fd5b505afa1580156116a9573d6000803e3d6000fd5b505050506040513d60208110156116bf57600080fd5b5051611712576040805162461bcd60e51b815260206004820152600c60248201527f494e56414c49445f415554480000000000000000000000000000000000000000604482015290519081900360640190fd5b60006117738760008151811061172457fe5b60200260200101518860018151811061173957fe5b60200260200101518960028151811061174e57fe5b60200260200101518a60038151811061176357fe5b60200260200101518c8b8b611f25565b905061177f8482611fca565b610fd1576040805162461bcd60e51b815260206004820152600c60248201527f494e56414c49445f4c414e440000000000000000000000000000000000000000604482015290519081900360640190fd5b60006117dc8484612095565b60065490915061181b908590839085906001600160a01b03167f00000000000000000000000000000000000000000000000000000000000000006121ee565b50505050565b8060028151811061182e57fe5b60200260200101516001148061186b57507f00000000000000000000000000000000000000000000000000000000000000006001600160a01b0316155b1561196d577f00000000000000000000000000000000000000000000000000000000000000006001600160a01b0316636e1e3bbf83836002815181106118ad57fe5b6020026020010151846000815181106118c257fe5b6020026020010151856001815181106118d757fe5b60200260200101516040518563ffffffff1660e01b815260040180856001600160a01b03166001600160a01b031681526020018481526020018381526020018281526020018060200182810382526000815260200160200195505050505050600060405180830381600087803b15801561195057600080fd5b505af1158015611964573d6000803e3d6000fd5b50505050611b0d565b7f00000000000000000000000000000000000000000000000000000000000000006001600160a01b0316636e1e3bbf7f0000000000000000000000000000000000000000000000000000000000000000836002815181106119ca57fe5b6020026020010151846000815181106119df57fe5b6020026020010151856001815181106119f457fe5b60200260200101518760405160200180826001600160a01b03166001600160a01b031681526020019150506040516020818303038152906040526040518663ffffffff1660e01b815260040180866001600160a01b03166001600160a01b0316815260200185815260200184815260200183815260200180602001828103825283818151815260200191508051906020019080838360005b83811015611aa4578181015183820152602001611a8c565b50505050905090810190601f168015611ad15780820380516001836020036101000a031916815260200191505b509650505050505050600060405180830381600087803b158015611af457600080fd5b505af1158015611b08573d6000803e3d6000fd5b505050505b61019881600181518110611b1d57fe5b60200260200101510281600081518110611b3357fe5b602002602001015101826001600160a01b0316846001600160a01b03167fe4dfa6ac11314892f3029b34a25b1a887da3b1cab2bbf8506d87128ba6e3ac0284600281518110611b7e57fe5b602002602001015185600381518110611b9357fe5b60200260200101517f000000000000000000000000000000000000000000000000000000000000000087600381518110611bc957fe5b602002602001015160405180858152602001848152602001836001600160a01b03166001600160a01b0316815260200182815260200194505050505060405180910390a4505050565b6060815167ffffffffffffffff81118015611c2c57600080fd5b50604051908082528060200260200182016040528015611c56578160200160208202803683370190505b50905060005b8251811015611c86576001828281518110611c7357fe5b6020908102919091010152600101611c5c565b507f00000000000000000000000000000000000000000000000000000000000000006001600160a01b0316632eb2c2d6308585856040518563ffffffff1660e01b815260040180856001600160a01b03166001600160a01b03168152602001846001600160a01b03166001600160a01b03168152602001806020018060200180602001848103845286818151815260200191508051906020019060200280838360005b83811015611d41578181015183820152602001611d29565b50505050905001848103835285818151815260200191508051906020019060200280838360005b83811015611d80578181015183820152602001611d68565b50505050905001848103825260008152602001602001975050505050505050600060405180830381600087803b158015611db957600080fd5b505af1158015611dcd573d6000803e3d6000fd5b50505050505050565b6001600160a01b03821660008181526001602090815260409182902080547fffffffffffffffffffffffffffffffffffffffffffffffffffffffffffffff001685151590811790915582519384529083015280517fb21eb88b4e33b3f1281830a7178d74d8aa73220416215726b68ae23d539515cb9281900390910190a15050565b60008151604114611e6857600080fd5b60208201516040830151606084015160001a601b811015611e8757601b015b8060ff16601b1480611e9c57508060ff16601c145b611ea557600080fd5b6040805160008152602080820180845289905260ff8416828401526060820186905260808201859052915160019260a0808401939192601f1981019281900390910190855afa158015611efc573d6000803e3d6000fd5b5050604051601f1901519450506001600160a01b038416611f1c57600080fd5b50505092915050565b60008787878787878760405160200180888152602001878152602001868152602001858152602001846001600160a01b03166001600160a01b031660601b8152601401838152602001828051906020019060200280838360005b83811015611f97578181015183820152602001611f7f565b50505050905001975050505050505050604051602081830303815290604052805190602001209050979650505050505050565b600081815b8451811015612069576000858281518110611fe657fe5b602002602001015190508083101561202e5782816040516020018083815260200182815260200192505050604051602081830303815290604052805190602001209250612060565b808360405160200180838152602001828152602001925050506040516020818303038152906040528051906020012092505b50600101611fcf565b507f00000000000000000000000000000000000000000000000000000000000000001490505b92915050565b6000806120ba60646120ae85600563ffffffff61247016565b9063ffffffff6124e016565b604080516323b872dd60e01b81526001600160a01b0387811660048301527f0000000000000000000000000000000000000000000000000000000000000000811660248301526044820184905291519293507f0000000000000000000000000000000000000000000000000000000000000000909116916323b872dd916064808201926020929091908290030181600087803b15801561215957600080fd5b505af115801561216d573d6000803e3d6000fd5b505050506040513d602081101561218357600080fd5b50516121d6576040805162461bcd60e51b815260206004820152601360248201527f4645455f5452414e534645525f4641494c454400000000000000000000000000604482015290519081900360640190fd5b6121e6838263ffffffff61254516565b949350505050565b8251819085901561239857606060008060008061220a8a610c0a565b939850919650945092509050600061222586868686866110f2565b156122b35761223f6122378d84612470565b6127106124e0565b9050886001600160a01b0316846001600160a01b0316866001600160a01b03167fac7a699eb95c3c6d390ec4626de17ef9a67b35891efdb197beba7c7fdd45fac48f858760405180848152602001838152602001828152602001935050505060405180910390a46122b08782612545565b96505b801561239157604080516323b872dd60e01b81526001600160a01b038f811660048301528781166024830152604482018490529151918a16916323b872dd916064808201926020929091908290030181600087803b15801561231457600080fd5b505af1158015612328573d6000803e3d6000fd5b505050506040513d602081101561233e57600080fd5b5051612391576040805162461bcd60e51b815260206004820152601960248201527f636f6d6d6973696f6e207472616e73666572206661696c656400000000000000604482015290519081900360640190fd5b5050505050505b604080516323b872dd60e01b81526001600160a01b0389811660048301528681166024830152604482018490529151918416916323b872dd916064808201926020929091908290030181600087803b1580156123f357600080fd5b505af1158015612407573d6000803e3d6000fd5b505050506040513d602081101561241d57600080fd5b5051611dcd576040805162461bcd60e51b815260206004820152601760248201527f7061796d656e74207472616e73666572206661696c6564000000000000000000604482015290519081900360640190fd5b60008261247f5750600061208f565b508181028183828161248d57fe5b041461208f576040805162461bcd60e51b815260206004820152600860248201527f6f766572666c6f77000000000000000000000000000000000000000000000000604482015290519081900360640190fd5b600081612534576040805162461bcd60e51b815260206004820152600960248201527f64697662797a65726f0000000000000000000000000000000000000000000000604482015290519081900360640190fd5b81838161253d57fe5b049392505050565b60008282111561259c576040805162461bcd60e51b815260206004820152600860248201527f756e6465666c6f77000000000000000000000000000000000000000000000000604482015290519081900360640190fd5b5090039056fe6f6e6c792061646d696e2063616e207365747570206d6574615472616e73616374696f6e50726f636573736f7273a2646970667358221220fc9205bafc138c1de206481f144dc3e7818922fbe1a20d2a71392e5e2e413c1a64736f6c63430006050033",
  "devdoc": {
    "methods": {
      "buyLandWithSand(address,address,address,uint256[],bytes32,uint256[],bytes32[],bytes,bytes)": {
        "params": {
          "buyer": "address that perform the payment",
          "info": "[X_INDEX=0] x coordinate of the Land [Y_INDEX=1] y coordinate of the Land [SIZE_INDEX=2] size of the pack of Land to purchase [PRICE_INDEX=3] price in SAND to purchase that Land",
          "proof": "merkleProof for that particular Land",
          "reserved": "the reserved address (if any)",
          "to": "address that will own the purchased Land"
        }
      },
      "changeAdmin(address)": {
        "details": "change the administrator to be `newAdmin`.",
        "params": {
          "newAdmin": "address of the new administrator."
        }
      },
      "getAdmin()": {
        "details": "gives the current administrator of this contract.",
        "returns": {
          "_0": "the current administrator of this contract."
        }
      },
      "getSigningWallet()": {
        "details": "signing wallet authorized for referral",
        "returns": {
          "_0": "the address of the signing wallet"
        }
      },
      "isMetaTransactionProcessor(address)": {
        "details": "check whether address `who` is given meta-transaction execution rights.",
        "params": {
          "who": "The address to query."
        },
        "returns": {
          "_0": "whether the address has meta-transaction execution rights."
        }
      },
      "isReferralValid(bytes,address,address,uint256,uint256)": {
        "params": {
          "commissionRate": "The commissionRate of the referral",
          "expiryTime": "The expiry time of the referral",
          "referee": "The address of the referee",
          "referrer": "The address of the referrer",
          "signature": "The signature to check (signed referral)"
        },
        "returns": {
          "_0": "True if the referral is valid"
        }
      },
      "setMetaTransactionProcessor(address,bool)": {
        "details": "Enable or disable the ability of `metaTransactionProcessor` to perform meta-tx (metaTransactionProcessor rights).",
        "params": {
          "enabled": "set whether the metaTransactionProcessor is enabled or disabled.",
          "metaTransactionProcessor": "address that will be given/removed metaTransactionProcessor rights."
        }
      },
      "setReceivingWallet(address)": {
        "params": {
          "newWallet": "address of the new receiving wallet"
        }
      },
      "updateMaxCommissionRate(uint256)": {
        "details": "Update the maximum commission rate",
        "params": {
          "newMaxCommissionRate": "The new maximum commission rate"
        }
      },
      "updateSigningWallet(address)": {
        "details": "Update the signing wallet",
        "params": {
          "newSigningWallet": "The new address of the signing wallet"
        }
      },
      "withdrawAssets(address,uint256[],uint256[])": {
        "params": {
          "assetIds": "the assetIds to be transferred",
          "to": "intended recipient of the asset tokens",
          "values": "the quantities of the assetIds to be transferred"
        }
      }
    },
    "title": "Estate Sale contract with referral"
  },
  "userdoc": {
    "methods": {
      "buyLandWithSand(address,address,address,uint256[],bytes32,uint256[],bytes32[],bytes,bytes)": {
        "notice": "buy Land with SAND using the merkle proof associated with it"
      },
      "getExpiryTime()": {
        "notice": "Gets the expiry time for the current sale"
      },
      "getMaxCommisionRate()": {
        "notice": "the max commision rate"
      },
      "getMerkleRoot()": {
        "notice": "Gets the Merkle root associated with the current sale"
      },
      "isReferralValid(bytes,address,address,uint256,uint256)": {
        "notice": "Check if a referral is valid"
      },
      "setReceivingWallet(address)": {
        "notice": "set the wallet receiving the proceeds"
      },
      "withdrawAssets(address,uint256[],uint256[])": {
        "notice": "enable Admin to withdraw remaining assets from EstateSaleWithFee contract"
      }
    },
    "notice": "This contract manages the sale of our lands as Estates"
  },
  "storageLayout": {
    "storage": [
      {
        "astId": 13650,
        "contract": "src/solc_0.6/EstateSale/EstateSaleWithAuth.sol:EstateSaleWithAuth",
        "label": "_admin",
        "offset": 0,
        "slot": "0",
        "type": "t_address"
      },
      {
        "astId": 13712,
        "contract": "src/solc_0.6/EstateSale/EstateSaleWithAuth.sol:EstateSaleWithAuth",
        "label": "_metaTransactionContracts",
        "offset": 0,
        "slot": "1",
        "type": "t_mapping(t_address,t_bool)"
      },
      {
        "astId": 11828,
        "contract": "src/solc_0.6/EstateSale/EstateSaleWithAuth.sol:EstateSaleWithAuth",
        "label": "_signingWallet",
        "offset": 0,
        "slot": "2",
        "type": "t_address"
      },
      {
        "astId": 11830,
        "contract": "src/solc_0.6/EstateSale/EstateSaleWithAuth.sol:EstateSaleWithAuth",
        "label": "_maxCommissionRate",
        "offset": 0,
        "slot": "3",
        "type": "t_uint256"
      },
      {
        "astId": 11834,
        "contract": "src/solc_0.6/EstateSale/EstateSaleWithAuth.sol:EstateSaleWithAuth",
        "label": "_previousSigningWallets",
        "offset": 0,
        "slot": "4",
        "type": "t_mapping(t_address,t_uint256)"
      },
      {
        "astId": 11843,
        "contract": "src/solc_0.6/EstateSale/EstateSaleWithAuth.sol:EstateSaleWithAuth",
        "label": "_previousSigningDelay",
        "offset": 0,
        "slot": "5",
        "type": "t_uint256"
      },
      {
        "astId": 7453,
        "contract": "src/solc_0.6/EstateSale/EstateSaleWithAuth.sol:EstateSaleWithAuth",
        "label": "_wallet",
        "offset": 0,
        "slot": "6",
        "type": "t_address_payable"
      },
      {
        "astId": 7455,
        "contract": "src/solc_0.6/EstateSale/EstateSaleWithAuth.sol:EstateSaleWithAuth",
        "label": "_authValidator",
        "offset": 0,
        "slot": "7",
        "type": "t_contract(AuthValidator)6784"
      }
    ],
    "types": {
      "t_address": {
        "encoding": "inplace",
        "label": "address",
        "numberOfBytes": "20"
      },
      "t_address_payable": {
        "encoding": "inplace",
        "label": "address payable",
        "numberOfBytes": "20"
      },
      "t_bool": {
        "encoding": "inplace",
        "label": "bool",
        "numberOfBytes": "1"
      },
      "t_contract(AuthValidator)6784": {
        "encoding": "inplace",
        "label": "contract AuthValidator",
        "numberOfBytes": "20"
      },
      "t_mapping(t_address,t_bool)": {
        "encoding": "mapping",
        "key": "t_address",
        "label": "mapping(address => bool)",
        "numberOfBytes": "32",
        "value": "t_bool"
      },
      "t_mapping(t_address,t_uint256)": {
        "encoding": "mapping",
        "key": "t_address",
        "label": "mapping(address => uint256)",
        "numberOfBytes": "32",
        "value": "t_uint256"
      },
      "t_uint256": {
        "encoding": "inplace",
        "label": "uint256",
        "numberOfBytes": "32"
      }
    }
  }
}