{
  "address": "0x20B0f5b47d4C42aBD2C741aa137A226dCbC5a850",
  "abi": [
    {
      "inputs": [
        {
          "internalType": "contract AssetV2",
          "name": "asset",
          "type": "address"
        },
        {
          "internalType": "address",
          "name": "admin",
          "type": "address"
        },
        {
          "internalType": "address",
          "name": "initialMetaTx",
          "type": "address"
        },
        {
          "internalType": "address payable",
          "name": "feeCollector",
          "type": "address"
        },
        {
          "internalType": "uint256",
          "name": "fee10000th",
          "type": "uint256"
        }
      ],
      "stateMutability": "nonpayable",
      "type": "constructor"
    },
    {
      "anonymous": false,
      "inputs": [
        {
          "indexed": false,
          "internalType": "address",
          "name": "oldAdmin",
          "type": "address"
        },
        {
          "indexed": false,
          "internalType": "address",
          "name": "newAdmin",
          "type": "address"
        }
      ],
      "name": "AdminChanged",
      "type": "event"
    },
    {
      "anonymous": false,
      "inputs": [
        {
          "indexed": false,
          "internalType": "address",
          "name": "feeCollector",
          "type": "address"
        },
        {
          "indexed": false,
          "internalType": "uint256",
          "name": "fee10000th",
          "type": "uint256"
        }
      ],
      "name": "FeeSetup",
      "type": "event"
    },
    {
      "anonymous": false,
      "inputs": [
        {
          "indexed": false,
          "internalType": "address",
          "name": "metaTransactionProcessor",
          "type": "address"
        },
        {
          "indexed": false,
          "internalType": "bool",
          "name": "enabled",
          "type": "bool"
        }
      ],
      "name": "MetaTransactionProcessor",
      "type": "event"
    },
    {
      "anonymous": false,
      "inputs": [
        {
          "indexed": true,
          "internalType": "address",
          "name": "seller",
          "type": "address"
        },
        {
          "indexed": true,
          "internalType": "uint256",
          "name": "offerId",
          "type": "uint256"
        }
      ],
      "name": "OfferCancelled",
      "type": "event"
    },
    {
      "anonymous": false,
      "inputs": [
        {
          "indexed": true,
          "internalType": "address",
          "name": "seller",
          "type": "address"
        },
        {
          "indexed": true,
          "internalType": "address",
          "name": "buyer",
          "type": "address"
        },
        {
          "indexed": true,
          "internalType": "uint256",
          "name": "offerId",
          "type": "uint256"
        },
        {
          "indexed": false,
          "internalType": "uint256",
          "name": "amount",
          "type": "uint256"
        },
        {
          "indexed": false,
          "internalType": "uint256",
          "name": "pricePaid",
          "type": "uint256"
        },
        {
          "indexed": false,
          "internalType": "uint256",
          "name": "feePaid",
          "type": "uint256"
        }
      ],
      "name": "OfferClaimed",
      "type": "event"
    },
    {
      "inputs": [],
      "name": "AUCTION_TYPEHASH",
      "outputs": [
        {
          "internalType": "bytes32",
          "name": "",
          "type": "bytes32"
        }
      ],
      "stateMutability": "view",
      "type": "function"
    },
    {
      "inputs": [],
      "name": "AuctionData_Duration",
      "outputs": [
        {
          "internalType": "uint256",
          "name": "",
          "type": "uint256"
        }
      ],
      "stateMutability": "view",
      "type": "function"
    },
    {
      "inputs": [],
      "name": "AuctionData_EndingPrice",
      "outputs": [
        {
          "internalType": "uint256",
          "name": "",
          "type": "uint256"
        }
      ],
      "stateMutability": "view",
      "type": "function"
    },
    {
      "inputs": [],
      "name": "AuctionData_OfferId",
      "outputs": [
        {
          "internalType": "uint256",
          "name": "",
          "type": "uint256"
        }
      ],
      "stateMutability": "view",
      "type": "function"
    },
    {
      "inputs": [],
      "name": "AuctionData_Packs",
      "outputs": [
        {
          "internalType": "uint256",
          "name": "",
          "type": "uint256"
        }
      ],
      "stateMutability": "view",
      "type": "function"
    },
    {
      "inputs": [],
      "name": "AuctionData_StartedAt",
      "outputs": [
        {
          "internalType": "uint256",
          "name": "",
          "type": "uint256"
        }
      ],
      "stateMutability": "view",
      "type": "function"
    },
    {
      "inputs": [],
      "name": "AuctionData_StartingPrice",
      "outputs": [
        {
          "internalType": "uint256",
          "name": "",
          "type": "uint256"
        }
      ],
      "stateMutability": "view",
      "type": "function"
    },
    {
      "inputs": [],
      "name": "MAX_UINT256",
      "outputs": [
        {
          "internalType": "uint256",
          "name": "",
          "type": "uint256"
        }
      ],
      "stateMutability": "view",
      "type": "function"
    },
    {
      "inputs": [],
      "name": "_DOMAIN_SEPARATOR",
      "outputs": [
        {
          "internalType": "bytes32",
          "name": "",
          "type": "bytes32"
        }
      ],
      "stateMutability": "view",
      "type": "function"
    },
    {
      "inputs": [],
      "name": "_asset",
      "outputs": [
        {
          "internalType": "contract AssetV2",
          "name": "",
          "type": "address"
        }
      ],
      "stateMutability": "view",
      "type": "function"
    },
    {
      "inputs": [],
      "name": "_fee10000th",
      "outputs": [
        {
          "internalType": "uint256",
          "name": "",
          "type": "uint256"
        }
      ],
      "stateMutability": "view",
      "type": "function"
    },
    {
      "inputs": [],
      "name": "_feeCollector",
      "outputs": [
        {
          "internalType": "address payable",
          "name": "",
          "type": "address"
        }
      ],
      "stateMutability": "view",
      "type": "function"
    },
    {
      "inputs": [
        {
          "internalType": "uint256",
          "name": "offerId",
          "type": "uint256"
        }
      ],
      "name": "cancelSellerOffer",
      "outputs": [],
      "stateMutability": "nonpayable",
      "type": "function"
    },
    {
      "inputs": [
        {
          "internalType": "address",
          "name": "newAdmin",
          "type": "address"
        }
      ],
      "name": "changeAdmin",
      "outputs": [],
      "stateMutability": "nonpayable",
      "type": "function"
    },
    {
      "inputs": [
        {
          "components": [
            {
              "internalType": "address",
              "name": "buyer",
              "type": "address"
            },
            {
              "internalType": "address payable",
              "name": "seller",
              "type": "address"
            },
            {
              "internalType": "address",
              "name": "token",
              "type": "address"
            },
            {
              "internalType": "uint256[]",
              "name": "purchase",
              "type": "uint256[]"
            },
            {
              "internalType": "uint256[]",
              "name": "auctionData",
              "type": "uint256[]"
            },
            {
              "internalType": "uint256[]",
              "name": "ids",
              "type": "uint256[]"
            },
            {
              "internalType": "uint256[]",
              "name": "amounts",
              "type": "uint256[]"
            },
            {
              "internalType": "bytes",
              "name": "signature",
              "type": "bytes"
            }
          ],
          "internalType": "struct AssetSignedAuctionAuth.ClaimSellerOfferRequest",
          "name": "input",
          "type": "tuple"
        }
      ],
      "name": "claimSellerOffer",
      "outputs": [],
      "stateMutability": "payable",
      "type": "function"
    },
    {
      "inputs": [
        {
          "components": [
            {
              "internalType": "address",
              "name": "buyer",
              "type": "address"
            },
            {
              "internalType": "address payable",
              "name": "seller",
              "type": "address"
            },
            {
              "internalType": "address",
              "name": "token",
              "type": "address"
            },
            {
              "internalType": "uint256[]",
              "name": "purchase",
              "type": "uint256[]"
            },
            {
              "internalType": "uint256[]",
              "name": "auctionData",
              "type": "uint256[]"
            },
            {
              "internalType": "uint256[]",
              "name": "ids",
              "type": "uint256[]"
            },
            {
              "internalType": "uint256[]",
              "name": "amounts",
              "type": "uint256[]"
            },
            {
              "internalType": "bytes",
              "name": "signature",
              "type": "bytes"
            }
          ],
          "internalType": "struct AssetSignedAuctionAuth.ClaimSellerOfferRequest",
          "name": "input",
          "type": "tuple"
        }
      ],
      "name": "claimSellerOfferUsingBasicSig",
      "outputs": [],
      "stateMutability": "payable",
      "type": "function"
    },
    {
      "inputs": [
        {
          "components": [
            {
              "internalType": "address",
              "name": "buyer",
              "type": "address"
            },
            {
              "internalType": "address payable",
              "name": "seller",
              "type": "address"
            },
            {
              "internalType": "address",
              "name": "token",
              "type": "address"
            },
            {
              "internalType": "uint256[]",
              "name": "purchase",
              "type": "uint256[]"
            },
            {
              "internalType": "uint256[]",
              "name": "auctionData",
              "type": "uint256[]"
            },
            {
              "internalType": "uint256[]",
              "name": "ids",
              "type": "uint256[]"
            },
            {
              "internalType": "uint256[]",
              "name": "amounts",
              "type": "uint256[]"
            },
            {
              "internalType": "bytes",
              "name": "signature",
              "type": "bytes"
            }
          ],
          "internalType": "struct AssetSignedAuctionAuth.ClaimSellerOfferRequest",
          "name": "input",
          "type": "tuple"
        }
      ],
      "name": "claimSellerOfferUsingBasicSigViaEIP1271",
      "outputs": [],
      "stateMutability": "payable",
      "type": "function"
    },
    {
      "inputs": [
        {
          "components": [
            {
              "internalType": "address",
              "name": "buyer",
              "type": "address"
            },
            {
              "internalType": "address payable",
              "name": "seller",
              "type": "address"
            },
            {
              "internalType": "address",
              "name": "token",
              "type": "address"
            },
            {
              "internalType": "uint256[]",
              "name": "purchase",
              "type": "uint256[]"
            },
            {
              "internalType": "uint256[]",
              "name": "auctionData",
              "type": "uint256[]"
            },
            {
              "internalType": "uint256[]",
              "name": "ids",
              "type": "uint256[]"
            },
            {
              "internalType": "uint256[]",
              "name": "amounts",
              "type": "uint256[]"
            },
            {
              "internalType": "bytes",
              "name": "signature",
              "type": "bytes"
            }
          ],
          "internalType": "struct AssetSignedAuctionAuth.ClaimSellerOfferRequest",
          "name": "input",
          "type": "tuple"
        }
      ],
      "name": "claimSellerOfferUsingBasicSigViaEIP1654",
      "outputs": [],
      "stateMutability": "payable",
      "type": "function"
    },
    {
      "inputs": [
        {
          "components": [
            {
              "internalType": "address",
              "name": "buyer",
              "type": "address"
            },
            {
              "internalType": "address payable",
              "name": "seller",
              "type": "address"
            },
            {
              "internalType": "address",
              "name": "token",
              "type": "address"
            },
            {
              "internalType": "uint256[]",
              "name": "purchase",
              "type": "uint256[]"
            },
            {
              "internalType": "uint256[]",
              "name": "auctionData",
              "type": "uint256[]"
            },
            {
              "internalType": "uint256[]",
              "name": "ids",
              "type": "uint256[]"
            },
            {
              "internalType": "uint256[]",
              "name": "amounts",
              "type": "uint256[]"
            },
            {
              "internalType": "bytes",
              "name": "signature",
              "type": "bytes"
            }
          ],
          "internalType": "struct AssetSignedAuctionAuth.ClaimSellerOfferRequest",
          "name": "input",
          "type": "tuple"
        }
      ],
      "name": "claimSellerOfferViaEIP1271",
      "outputs": [],
      "stateMutability": "payable",
      "type": "function"
    },
    {
      "inputs": [
        {
          "components": [
            {
              "internalType": "address",
              "name": "buyer",
              "type": "address"
            },
            {
              "internalType": "address payable",
              "name": "seller",
              "type": "address"
            },
            {
              "internalType": "address",
              "name": "token",
              "type": "address"
            },
            {
              "internalType": "uint256[]",
              "name": "purchase",
              "type": "uint256[]"
            },
            {
              "internalType": "uint256[]",
              "name": "auctionData",
              "type": "uint256[]"
            },
            {
              "internalType": "uint256[]",
              "name": "ids",
              "type": "uint256[]"
            },
            {
              "internalType": "uint256[]",
              "name": "amounts",
              "type": "uint256[]"
            },
            {
              "internalType": "bytes",
              "name": "signature",
              "type": "bytes"
            }
          ],
          "internalType": "struct AssetSignedAuctionAuth.ClaimSellerOfferRequest",
          "name": "input",
          "type": "tuple"
        }
      ],
      "name": "claimSellerOfferViaEIP1654",
      "outputs": [],
      "stateMutability": "payable",
      "type": "function"
    },
    {
      "inputs": [
        {
          "internalType": "address",
          "name": "",
          "type": "address"
        },
        {
          "internalType": "uint256",
          "name": "",
          "type": "uint256"
        }
      ],
      "name": "claimed",
      "outputs": [
        {
          "internalType": "uint256",
          "name": "",
          "type": "uint256"
        }
      ],
      "stateMutability": "view",
      "type": "function"
    },
    {
      "inputs": [],
      "name": "getAdmin",
      "outputs": [
        {
          "internalType": "address",
          "name": "",
          "type": "address"
        }
      ],
      "stateMutability": "view",
      "type": "function"
    },
    {
      "inputs": [
        {
          "internalType": "address",
          "name": "who",
          "type": "address"
        }
      ],
      "name": "isMetaTransactionProcessor",
      "outputs": [
        {
          "internalType": "bool",
          "name": "",
          "type": "bool"
        }
      ],
      "stateMutability": "view",
      "type": "function"
    },
    {
      "inputs": [
        {
          "internalType": "address payable",
          "name": "feeCollector",
          "type": "address"
        },
        {
          "internalType": "uint256",
          "name": "fee10000th",
          "type": "uint256"
        }
      ],
      "name": "setFee",
      "outputs": [],
      "stateMutability": "nonpayable",
      "type": "function"
    },
    {
      "inputs": [
        {
          "internalType": "address",
          "name": "metaTransactionProcessor",
          "type": "address"
        },
        {
          "internalType": "bool",
          "name": "enabled",
          "type": "bool"
        }
      ],
      "name": "setMetaTransactionProcessor",
      "outputs": [],
      "stateMutability": "nonpayable",
      "type": "function"
    }
  ],
  "transactionHash": "0x5a2082699e2c7811bc329d29967b26d551e3c9b7fb1dcd7f1c4658dbad8e3253",
  "args": [
    "0x6257b3523983D59aADFE91e181D129958d49c4dc",
    "0x49c4D4C94829B9c44052C5f5Cb164Fc612181165",
    "0x3237ef02070895a1eE432Caec549995Dc4a536EA",
    "0xa5Eb9C9Eb4F4c35B9Be8cFaAA7909F9ebe6Cb609",
    200
  ],
  "solcInputHash": "d4dc5bf3f09ac2d9f5aef1e22c1a5052",
  "bytecode": "0x60a060405260006004553480156200001657600080fd5b5060405162002881380380620028818339810160408190526200003991620001d0565b604080517f91ab3d17e3a50a9d89e63fd30b92be7f5336b03b287bb946787a83a9d62a276660208201527fb6d6e92dd180af2016b82e90468a3c0304654e472729f2809672fa0046d68006918101919091527fc89efdaa54c0f20c7adf612882df0950f5a951637e0307cdcb4c672f298b8bc6606082015230608082015260a00160408051601f198184030181528282528051602091820120608052600380546001600160a01b038a81166001600160a01b0319928316179092556005805492881692909116821790556004859055835282018390527f2dc23bbde6e39cbfb61764cee95d51414528b6102d7e4799e6803d9d3062825b910160405180910390a1600080546001600160a01b0319166001600160a01b038616179055620001628360016200016d565b50505050506200025c565b6001600160a01b038216600081815260016020908152604091829020805460ff19168515159081179091558251938452908301527fb21eb88b4e33b3f1281830a7178d74d8aa73220416215726b68ae23d539515cb910160405180910390a15050565b600080600080600060a08688031215620001e8578081fd5b8551620001f58162000243565b6020870151909550620002088162000243565b60408701519094506200021b8162000243565b60608701519093506200022e8162000243565b80925050608086015190509295509295909350565b6001600160a01b03811681146200025957600080fd5b50565b6080516126026200027f600039600081816103c50152610d8001526126026000f3fe6080604052600436106101965760003560e01c80638905bc9a116100e1578063dc0c81b51161008a578063e55156b511610064578063e55156b51461042a578063e883d8fd1461044a578063fb4386391461045d578063fcea5e291461047257610196565b8063dc0c81b5146103b3578063dc5074af146103e7578063e1856a401461041757610196565b8063a936c9ed116100bb578063a936c9ed14610378578063b3da2e5a1461038b578063c8a68796146103a057610196565b80638905bc9a146103235780638a04af6a146103385780638f2839701461035857610196565b80634d1832971161014357806354ef2fad1161011d57806354ef2fad146102ad578063642ab1e6146102e55780636e9960c31461030557610196565b80634d1832971461024d5780634dd6c8de1461026057806353933d4f1461029857610196565b8063362c1ad511610174578063362c1ad5146101ef578063401df593146102045780634a56c7191461021957610196565b806317fe50921461019b578063249fb1e6146101c457806333a581d2146101d9575b600080fd5b3480156101a757600080fd5b506101b160045481565b6040519081526020015b60405180910390f35b3480156101d057600080fd5b506101b1600081565b3480156101e557600080fd5b506101b160001981565b6102026101fd3660046121fe565b610492565b005b34801561021057600080fd5b506101b1600181565b34801561022557600080fd5b506101b17f38131a2edbfed81c82de3e0ce52f8b0ed59adce9c0c0b88453d33e029fbe967b81565b61020261025b3660046121fe565b61053e565b34801561026c57600080fd5b506101b161027b366004612190565b600260209081526000928352604080842090915290825290205481565b3480156102a457600080fd5b506101b1600581565b3480156102b957600080fd5b506005546102cd906001600160a01b031681565b6040516001600160a01b0390911681526020016101bb565b3480156102f157600080fd5b5061020261030036600461232c565b61059f565b34801561031157600080fd5b506000546001600160a01b03166102cd565b34801561032f57600080fd5b506101b1600381565b34801561034457600080fd5b50610202610353366004612158565b6105e9565b34801561036457600080fd5b50610202610373366004612111565b61067c565b6102026103863660046121fe565b610757565b34801561039757600080fd5b506101b1600481565b6102026103ae3660046121fe565b6107b7565b3480156103bf57600080fd5b506101b17f000000000000000000000000000000000000000000000000000000000000000081565b3480156103f357600080fd5b50610407610402366004612111565b610818565b60405190151581526020016101bb565b6102026104253660046121fe565b61083a565b34801561043657600080fd5b5061020261044536600461212d565b61089b565b6102026104583660046121fe565b61096e565b34801561046957600080fd5b506101b1600281565b34801561047e57600080fd5b506003546102cd906001600160a01b031681565b6104e581600001518260200151836040015184606001516000815181106104c957634e487b7160e01b600052603260045260246000fd5b602002602001015185608001518660a001518760c001516109ce565b61050f8160200151826040015183608001518460a001518560c001518660e0015160006001610d72565b5061053b816040015182606001518360000151846020015185608001518660a001518760c001516110f7565b50565b61057581600001518260200151836040015184606001516000815181106104c957634e487b7160e01b600052603260045260246000fd5b61050f8160200151826040015183608001518460a001518560c001518660e0015160026000610d72565b3360008181526002602090815260408083208584529091528082206000199055518392917f899cab278284ae4a91172caa0943607a0bcb19766254c3ebe1139be00650b10291a350565b6000546001600160a01b0316331461066e5760405162461bcd60e51b815260206004820152602e60248201527f6f6e6c792061646d696e2063616e207365747570206d6574615472616e73616360448201527f74696f6e50726f636573736f727300000000000000000000000000000000000060648201526084015b60405180910390fd5b61067882826118d2565b5050565b6000546001600160a01b031633146106d65760405162461bcd60e51b815260206004820152601360248201527f41444d494e5f4143434553535f44454e494544000000000000000000000000006044820152606401610665565b600054604080516001600160a01b03928316815291831660208301527f7e644d79422f17c01e4894b5f4f588d331ebfa28653d42ae832dc59e38c9798f910160405180910390a1600080547fffffffffffffffffffffffff0000000000000000000000000000000000000000166001600160a01b0392909216919091179055565b61078e81600001518260200151836040015184606001516000815181106104c957634e487b7160e01b600052603260045260246000fd5b61050f8160200151826040015183608001518460a001518560c001518660e00151600080610d72565b6107ee81600001518260200151836040015184606001516000815181106104c957634e487b7160e01b600052603260045260246000fd5b61050f8160200151826040015183608001518460a001518560c001518660e0015160026001610d72565b6001600160a01b03811660009081526001602052604090205460ff165b919050565b61087181600001518260200151836040015184606001516000815181106104c957634e487b7160e01b600052603260045260246000fd5b61050f8160200151826040015183608001518460a001518560c001518660e0015160016000610d72565b6000546001600160a01b031633146108f55760405162461bcd60e51b815260206004820152601960248201527f6f6e6c792061646d696e2063616e206368616e676520666565000000000000006044820152606401610665565b600580547fffffffffffffffffffffffff0000000000000000000000000000000000000000166001600160a01b038416908117909155600482905560408051918252602082018390527f2dc23bbde6e39cbfb61764cee95d51414528b6102d7e4799e6803d9d3062825b91015b60405180910390a15050565b6109a581600001518260200151836040015184606001516000815181106104c957634e487b7160e01b600052603260045260246000fd5b61050f8160200151826040015183608001518460a001518560c001518660e00151600180610d72565b8051825114610a455760405162461bcd60e51b815260206004820152602360248201527f69647320616e6420616d6f756e7473206c656e677468206e6f74206d6174636860448201527f696e6700000000000000000000000000000000000000000000000000000000006064820152608401610665565b6001600160a01b038716331480610a7e57506001600160a01b03851615801590610a7e57503360009081526001602052604090205460ff165b610aca5760405162461bcd60e51b815260206004820152600e60248201527f6e6f7420617574686f72697a65640000000000000000000000000000000000006044820152606401610665565b6001600160a01b03861660009081526002602052604081208451829086908290610b0457634e487b7160e01b600052603260045260246000fd5b60200260200101518152602001908152602001600020549050600019811415610b6f5760405162461bcd60e51b815260206004820152601160248201527f41756374696f6e2063616e63656c6c65640000000000000000000000000000006044820152606401610665565b6000610b7b86836124cf565b905081811015610bcd5760405162461bcd60e51b815260206004820152600860248201527f6f766572666c6f770000000000000000000000000000000000000000000000006044820152606401610665565b84600581518110610bee57634e487b7160e01b600052603260045260246000fd5b6020026020010151811115610c455760405162461bcd60e51b815260206004820152601e60248201527f42757920616d6f756e7420657863656564732073656c6c20616d6f756e7400006044820152606401610665565b4285600381518110610c6757634e487b7160e01b600052603260045260246000fd5b60200260200101511115610cbd5760405162461bcd60e51b815260206004820152601860248201527f41756374696f6e206469646e27742073746172742079657400000000000000006044820152606401610665565b4285600481518110610cdf57634e487b7160e01b600052603260045260246000fd5b602002602001015186600381518110610d0857634e487b7160e01b600052603260045260246000fd5b6020026020010151610d1a91906124cf565b11610d675760405162461bcd60e51b815260206004820152601060248201527f41756374696f6e2066696e6973686564000000000000000000000000000000006044820152606401610665565b505050505050505050565b6000606060008315610dfb577f0000000000000000000000000000000000000000000000000000000000000000610dac8c8c8c8c8c61194c565b6040517f19010000000000000000000000000000000000000000000000000000000000006020820152602281019290925260428201526062016040516020818303038152906040529150610e0b565b610e088b8b8b8b8b611b33565b91505b6002856002811115610e2d57634e487b7160e01b600052602160045260246000fd5b1415610f40576040517f20c13b0b00000000000000000000000000000000000000000000000000000000808252906001600160a01b038d16906320c13b0b90610e7c9086908b90600401612470565b60206040518083038186803b158015610e9457600080fd5b505afa158015610ea8573d6000803e3d6000fd5b505050506040513d601f19601f82011682018060405250810190610ecc91906121be565b7fffffffff000000000000000000000000000000000000000000000000000000001614610f3b5760405162461bcd60e51b815260206004820152601660248201527f696e76616c69642031323731207369676e6174757265000000000000000000006044820152606401610665565b6110e9565b6001856002811115610f6257634e487b7160e01b600052602160045260246000fd5b141561107557815160208301206040517f1626ba7e00000000000000000000000000000000000000000000000000000000808252916001600160a01b038e1691631626ba7e91610fb6918b90600401612457565b60206040518083038186803b158015610fce57600080fd5b505afa158015610fe2573d6000803e3d6000fd5b505050506040513d601f19601f8201168201806040525081019061100691906121be565b7fffffffff000000000000000000000000000000000000000000000000000000001614610f3b5760405162461bcd60e51b815260206004820152601660248201527f696e76616c69642031363534207369676e6174757265000000000000000000006044820152606401610665565b611086828051906020012087611d8c565b90508a6001600160a01b0316816001600160a01b0316146110e95760405162461bcd60e51b815260206004820152600e60248201527f7369676e657220213d2066726f6d0000000000000000000000000000000000006044820152606401610665565b9a9950505050505050505050565b60008660008151811061111a57634e487b7160e01b600052603260045260246000fd5b60200260200101516111d98560018151811061114657634e487b7160e01b600052603260045260246000fd5b60200260200101518660028151811061116f57634e487b7160e01b600052603260045260246000fd5b60200260200101518760048151811061119857634e487b7160e01b600052603260045260246000fd5b6020026020010151886003815181106111c157634e487b7160e01b600052603260045260246000fd5b6020026020010151426111d4919061254b565b611f4e565b6111e3919061252c565b90508660008151811061120657634e487b7160e01b600052603260045260246000fd5b602002602001015160026000876001600160a01b03166001600160a01b0316815260200190815260200160002060008660008151811061125657634e487b7160e01b600052603260045260246000fd5b602002602001015181526020019081526020016000205461127791906124cf565b6001600160a01b03861660009081526002602052604081208651909190879082906112b257634e487b7160e01b600052603260045260246000fd5b602002602001015181526020019081526020016000208190555060008060045411156112e7576112e482600454611fc9565b90505b60006112f382846124cf565b90508860018151811061131657634e487b7160e01b600052603260045260246000fd5b60200260200101518111156113935760405162461bcd60e51b815260206004820152602160248201527f6f666665722065786365656473206d617820616d6f756e7420746f207370656e60448201527f64000000000000000000000000000000000000000000000000000000000000006064820152608401610665565b6001600160a01b038a161561158f576040517f23b872dd0000000000000000000000000000000000000000000000000000000081526001600160a01b0389811660048301528881166024830152604482018590528b16906323b872dd90606401602060405180830381600087803b15801561140d57600080fd5b505af1158015611421573d6000803e3d6000fd5b505050506040513d601f19601f8201168201806040525081019061144591906121a2565b6114915760405162461bcd60e51b815260206004820152601e60248201527f6661696c656420746f207472616e7366657220746f6b656e20707269636500006044820152606401610665565b811561158a576005546040517f23b872dd0000000000000000000000000000000000000000000000000000000081526001600160a01b038a81166004830152918216602482015260448101849052908b16906323b872dd90606401602060405180830381600087803b15801561150657600080fd5b505af115801561151a573d6000803e3d6000fd5b505050506040513d601f19601f8201168201806040525081019061153e91906121a2565b61158a5760405162461bcd60e51b815260206004820152601560248201527f6661696c656420746f20636f6c6c6563742066656500000000000000000000006044820152606401610665565b611698565b803410156115df5760405162461bcd60e51b815260206004820152600b60248201527f455448203c20746f74616c0000000000000000000000000000000000000000006044820152606401610665565b8034111561161f57336108fc6115f5833461254b565b6040518115909202916000818181858888f1935050505015801561161d573d6000803e3d6000fd5b505b6040516001600160a01b0388169084156108fc029085906000818181858888f19350505050158015611655573d6000803e3d6000fd5b508115611698576005546040516001600160a01b039091169083156108fc029084906000818181858888f19350505050158015611696573d6000803e3d6000fd5b505b6000845167ffffffffffffffff8111156116c257634e487b7160e01b600052604160045260246000fd5b6040519080825280602002602001820160405280156116eb578160200160208202803683370190505b50905060005b8151811015611792578a60008151811061171b57634e487b7160e01b600052603260045260246000fd5b602002602001015186828151811061174357634e487b7160e01b600052603260045260246000fd5b6020026020010151611755919061252c565b82828151811061177557634e487b7160e01b600052603260045260246000fd5b60209081029190910101528061178a81612562565b9150506116f1565b506003546040517f2eb2c2d60000000000000000000000000000000000000000000000000000000081526001600160a01b0390911690632eb2c2d6906117e2908b908d908b9087906004016123ff565b600060405180830381600087803b1580156117fc57600080fd5b505af1158015611810573d6000803e3d6000fd5b505050508660008151811061183557634e487b7160e01b600052603260045260246000fd5b6020026020010151896001600160a01b0316896001600160a01b03167fb6ccdf0f604b7944dc67e7a20fcac8d00f86137f70b2cf577073372a547678478d60008151811061189357634e487b7160e01b600052603260045260246000fd5b602002602001015188886040516118bd939291909283526020830191909152604082015260600190565b60405180910390a45050505050505050505050565b6001600160a01b03821660008181526001602090815260409182902080547fffffffffffffffffffffffffffffffffffffffffffffffffffffffffffffff00168515159081179091558251938452908301527fb21eb88b4e33b3f1281830a7178d74d8aa73220416215726b68ae23d539515cb9101610962565b60007f38131a2edbfed81c82de3e0ce52f8b0ed59adce9c0c0b88453d33e029fbe967b86868660008151811061199257634e487b7160e01b600052603260045260246000fd5b6020026020010151876001815181106119bb57634e487b7160e01b600052603260045260246000fd5b6020026020010151886002815181106119e457634e487b7160e01b600052603260045260246000fd5b602002602001015189600381518110611a0d57634e487b7160e01b600052603260045260246000fd5b60200260200101518a600481518110611a3657634e487b7160e01b600052603260045260246000fd5b60200260200101518b600581518110611a5f57634e487b7160e01b600052603260045260246000fd5b60200260200101518b604051602001611a7891906123c9565b604051602081830303815290604052805190602001208b604051602001611a9f91906123c9565b60408051601f1981840301815282825280516020918201209083019c909c526001600160a01b039a8b1690820152989097166060890152608088019590955260a087019390935260c086019190915260e08501526101008401526101208301526101408201526101608101919091526101800160405160208183030381529060405280519060200120905095945050505050565b6060611d82307f38131a2edbfed81c82de3e0ce52f8b0ed59adce9c0c0b88453d33e029fbe967b888888600081518110611b7d57634e487b7160e01b600052603260045260246000fd5b602002602001015189600181518110611ba657634e487b7160e01b600052603260045260246000fd5b60200260200101518a600281518110611bcf57634e487b7160e01b600052603260045260246000fd5b60200260200101518b600381518110611bf857634e487b7160e01b600052603260045260246000fd5b60200260200101518c600481518110611c2157634e487b7160e01b600052603260045260246000fd5b60200260200101518d600581518110611c4a57634e487b7160e01b600052603260045260246000fd5b60200260200101518d604051602001611c6391906123c9565b604051602081830303815290604052805190602001208d604051602001611c8a91906123c9565b60408051808303601f19018152828252805160209182012060609e8f1b7fffffffffffffffffffffffffffffffffffffffff00000000000000000000000090811683860152603485019e909e529b8e1b8d16605484015299909c1b909a1660688b0152607c8a0196909652609c89019490945260bc88019290925260dc87015260fc86015261011c85015261013c84015261015c808401929092528351808403909201825261017c8301845281519101207f19457468657265756d205369676e6564204d6573736167653a0a33320000000061019c8301526101b880830191909152825180830390910181526101d890910190915290565b9695505050505050565b60008151604114611ddf5760405162461bcd60e51b815260206004820152601a60248201527f696e636f7272656374207369676e6174757265206c656e6774680000000000006044820152606401610665565b60208201516040830151606084015160001a601b811015611e0857611e05601b826124e7565b90505b8060ff16601b1480611e1d57508060ff16601c145b611e8f5760405162461bcd60e51b815260206004820152602760248201527f76657273696f6e206f66207369676e61747572652073686f756c64206265203260448201527f37206f72203238000000000000000000000000000000000000000000000000006064820152608401610665565b60408051600081526020810180835288905260ff831691810191909152606081018490526080810183905260019060a0016020604051602081039080840390855afa158015611ee2573d6000803e3d6000fd5b5050604051601f1901519450506001600160a01b038416611f455760405162461bcd60e51b815260206004820152601160248201527f696e636f727265637420616464726573730000000000000000000000000000006044820152606401610665565b50505092915050565b600082821115611f5f575082611fc1565b84841415611f6e575082611fc1565b84841115611fa557611f9e611f9784611f9185611f8b898b611fe9565b90611ff5565b90612001565b869061200d565b9050611fc1565b611f9e611fba84611f9185611f8b8a8a611fe9565b8690611fe9565b949350505050565b6000612710611fd88484611ff5565b611fe2919061250c565b9392505050565b6000611fe2828461254b565b6000611fe2828461252c565b6000611fe2828461250c565b6000611fe282846124cf565b8035610835816125a9565b600082601f830112612034578081fd5b8135602067ffffffffffffffff82111561205057612050612593565b80820261205e82820161249e565b838152828101908684018388018501891015612078578687fd5b8693505b8584101561209a57803583526001939093019291840191840161207c565b50979650505050505050565b600082601f8301126120b6578081fd5b813567ffffffffffffffff8111156120d0576120d0612593565b6120e36020601f19601f8401160161249e565b8181528460208386010111156120f7578283fd5b816020850160208301379081016020019190915292915050565b600060208284031215612122578081fd5b8135611fe2816125a9565b6000806040838503121561213f578081fd5b823561214a816125a9565b946020939093013593505050565b6000806040838503121561216a578182fd5b8235612175816125a9565b91506020830135612185816125be565b809150509250929050565b6000806040838503121561213f578182fd5b6000602082840312156121b3578081fd5b8151611fe2816125be565b6000602082840312156121cf578081fd5b81517fffffffff0000000000000000000000000000000000000000000000000000000081168114611fe2578182fd5b60006020828403121561220f578081fd5b813567ffffffffffffffff80821115612226578283fd5b818401915061010080838703121561223c578384fd5b6122458161249e565b905061225083612019565b815261225e60208401612019565b602082015261226f60408401612019565b6040820152606083013582811115612285578485fd5b61229187828601612024565b6060830152506080830135828111156122a8578485fd5b6122b487828601612024565b60808301525060a0830135828111156122cb578485fd5b6122d787828601612024565b60a08301525060c0830135828111156122ee578485fd5b6122fa87828601612024565b60c08301525060e083013582811115612311578485fd5b61231d878286016120a6565b60e08301525095945050505050565b60006020828403121561233d578081fd5b5035919050565b6000815180845260208085019450808401835b8381101561237357815187529582019590820190600101612357565b509495945050505050565b60008151808452815b818110156123a357602081850181015186830182015201612387565b818111156123b45782602083870101525b50601f01601f19169290920160200192915050565b815160009082906020808601845b838110156123f3578151855293820193908201906001016123d7565b50929695505050505050565b60006001600160a01b03808716835280861660208401525060a0604083015261242b60a0830185612344565b828103606084015261243d8185612344565b838103608090940193909352508152602001949350505050565b600083825260406020830152611fc1604083018461237e565b600060408252612483604083018561237e565b8281036020840152612495818561237e565b95945050505050565b604051601f8201601f1916810167ffffffffffffffff811182821017156124c7576124c7612593565b604052919050565b600082198211156124e2576124e261257d565b500190565b600060ff821660ff84168060ff038211156125045761250461257d565b019392505050565b60008261252757634e487b7160e01b81526012600452602481fd5b500490565b60008160001904831182151516156125465761254661257d565b500290565b60008282101561255d5761255d61257d565b500390565b60006000198214156125765761257661257d565b5060010190565b634e487b7160e01b600052601160045260246000fd5b634e487b7160e01b600052604160045260246000fd5b6001600160a01b038116811461053b57600080fd5b801515811461053b57600080fdfea2646970667358221220fb4ced45ffd9f69e4dd7e688b592776e5b73cfcc960fe56d282110a2442526f064736f6c63430008020033",
  "devdoc": {
    "kind": "dev",
    "methods": {
      "cancelSellerOffer(uint256)": {
        "params": {
          "offerId": "offer to cancel"
        }
      },
      "changeAdmin(address)": {
        "details": "Change the administrator to be `newAdmin`.",
        "params": {
          "newAdmin": "The address of the new administrator."
        }
      },
      "claimSellerOffer((address,address,address,uint256[],uint256[],uint256[],uint256[],bytes))": {
        "params": {
          "input": "Claim Seller Offer Request"
        }
      },
      "claimSellerOfferUsingBasicSig((address,address,address,uint256[],uint256[],uint256[],uint256[],bytes))": {
        "params": {
          "input": "Claim Seller Offer Request"
        }
      },
      "claimSellerOfferUsingBasicSigViaEIP1271((address,address,address,uint256[],uint256[],uint256[],uint256[],bytes))": {
        "params": {
          "input": "Claim Seller Offer Request"
        }
      },
      "claimSellerOfferUsingBasicSigViaEIP1654((address,address,address,uint256[],uint256[],uint256[],uint256[],bytes))": {
        "params": {
          "input": "Claim Seller Offer Request"
        }
      },
      "claimSellerOfferViaEIP1271((address,address,address,uint256[],uint256[],uint256[],uint256[],bytes))": {
        "params": {
          "input": "Claim Seller Offer Request"
        }
      },
      "claimSellerOfferViaEIP1654((address,address,address,uint256[],uint256[],uint256[],uint256[],bytes))": {
        "params": {
          "input": "Claim Seller Offer Request"
        }
      },
      "getAdmin()": {
        "details": "Get the current administrator of this contract.",
        "returns": {
          "_0": "The current administrator of this contract."
        }
      },
      "isMetaTransactionProcessor(address)": {
        "params": {
          "who": "The address to query."
        },
        "returns": {
          "_0": "whether the address has meta-transaction execution rights."
        }
      },
      "setFee(address,uint256)": {
        "params": {
          "fee10000th": "fee in 10,000th",
          "feeCollector": "address receiving the fee"
        }
      },
      "setMetaTransactionProcessor(address,bool)": {
        "params": {
          "enabled": "set whether the metaTransactionProcessor is enabled or disabled.",
          "metaTransactionProcessor": "address that will be given/removed metaTransactionProcessor rights."
        }
      }
    },
    "version": 1
  },
  "userdoc": {
    "kind": "user",
    "methods": {
      "cancelSellerOffer(uint256)": {
        "notice": "cancel a offer previously signed, new offer need to use a id not used yet"
      },
      "claimSellerOffer((address,address,address,uint256[],uint256[],uint256[],uint256[],bytes))": {
        "notice": "claim offer using EIP712"
      },
      "claimSellerOfferUsingBasicSig((address,address,address,uint256[],uint256[],uint256[],uint256[],bytes))": {
        "notice": "claim offer using Basic Signature"
      },
      "claimSellerOfferUsingBasicSigViaEIP1271((address,address,address,uint256[],uint256[],uint256[],uint256[],bytes))": {
        "notice": "claim offer using Basic Signature and EIP1271 signature verification scheme"
      },
      "claimSellerOfferUsingBasicSigViaEIP1654((address,address,address,uint256[],uint256[],uint256[],uint256[],bytes))": {
        "notice": "claim offer using Basic Signature and EIP1654 signature verification scheme"
      },
      "claimSellerOfferViaEIP1271((address,address,address,uint256[],uint256[],uint256[],uint256[],bytes))": {
        "notice": "claim offer using EIP712 and EIP1271 signature verification scheme"
      },
      "claimSellerOfferViaEIP1654((address,address,address,uint256[],uint256[],uint256[],uint256[],bytes))": {
        "notice": "claim offer using EIP712 and EIP1654 signature verification scheme"
      },
      "isMetaTransactionProcessor(address)": {
        "notice": "check whether address `who` is given meta-transaction execution rights."
      },
      "setFee(address,uint256)": {
        "notice": "set fee parameters"
      },
      "setMetaTransactionProcessor(address,bool)": {
        "notice": "Enable or disable the ability of `metaTransactionProcessor` to perform meta-tx (metaTransactionProcessor rights)."
      }
    },
    "version": 1
  },
  "storageLayout": {
    "storage": [
      {
        "astId": 18589,
        "contract": "src/solc_0.8/asset/AssetSignedAuctionAuth.sol:AssetSignedAuctionAuth",
        "label": "_admin",
        "offset": 0,
        "slot": "0",
        "type": "t_address"
      },
      {
        "astId": 18524,
        "contract": "src/solc_0.8/asset/AssetSignedAuctionAuth.sol:AssetSignedAuctionAuth",
        "label": "_metaTransactionContracts",
        "offset": 0,
        "slot": "1",
        "type": "t_mapping(t_address,t_bool)"
      },
      {
        "astId": 6200,
        "contract": "src/solc_0.8/asset/AssetSignedAuctionAuth.sol:AssetSignedAuctionAuth",
        "label": "claimed",
        "offset": 0,
        "slot": "2",
        "type": "t_mapping(t_address,t_mapping(t_uint256,t_uint256))"
      },
      {
        "astId": 6203,
        "contract": "src/solc_0.8/asset/AssetSignedAuctionAuth.sol:AssetSignedAuctionAuth",
        "label": "_asset",
        "offset": 0,
        "slot": "3",
        "type": "t_contract(AssetV2)7962"
      },
      {
        "astId": 6206,
        "contract": "src/solc_0.8/asset/AssetSignedAuctionAuth.sol:AssetSignedAuctionAuth",
        "label": "_fee10000th",
        "offset": 0,
        "slot": "4",
        "type": "t_uint256"
      },
      {
        "astId": 6208,
        "contract": "src/solc_0.8/asset/AssetSignedAuctionAuth.sol:AssetSignedAuctionAuth",
        "label": "_feeCollector",
        "offset": 0,
        "slot": "5",
        "type": "t_address_payable"
      }
    ],
    "types": {
      "t_address": {
        "encoding": "inplace",
        "label": "address",
        "numberOfBytes": "20"
      },
      "t_address_payable": {
        "encoding": "inplace",
        "label": "address payable",
        "numberOfBytes": "20"
      },
      "t_bool": {
        "encoding": "inplace",
        "label": "bool",
        "numberOfBytes": "1"
      },
      "t_contract(AssetV2)7962": {
        "encoding": "inplace",
        "label": "contract AssetV2",
        "numberOfBytes": "20"
      },
      "t_mapping(t_address,t_bool)": {
        "encoding": "mapping",
        "key": "t_address",
        "label": "mapping(address => bool)",
        "numberOfBytes": "32",
        "value": "t_bool"
      },
      "t_mapping(t_address,t_mapping(t_uint256,t_uint256))": {
        "encoding": "mapping",
        "key": "t_address",
        "label": "mapping(address => mapping(uint256 => uint256))",
        "numberOfBytes": "32",
        "value": "t_mapping(t_uint256,t_uint256)"
      },
      "t_mapping(t_uint256,t_uint256)": {
        "encoding": "mapping",
        "key": "t_uint256",
        "label": "mapping(uint256 => uint256)",
        "numberOfBytes": "32",
        "value": "t_uint256"
      },
      "t_uint256": {
        "encoding": "inplace",
        "label": "uint256",
        "numberOfBytes": "32"
      }
    }
  }
}