{
  "address": "0xfd636395D582Df0e616c3D1F67D99B8DFe9EC8bd",
  "abi": [
    {
      "inputs": [
        {
          "internalType": "contract IERC721",
          "name": "addr",
          "type": "address"
        },
        {
          "internalType": "address[]",
          "name": "owners",
          "type": "address[]"
        }
      ],
      "name": "balanceOf",
      "outputs": [
        {
          "internalType": "uint256[]",
          "name": "balances",
          "type": "uint256[]"
        }
      ],
      "stateMutability": "view",
      "type": "function"
    },
    {
      "inputs": [
        {
          "internalType": "contract IERC721",
          "name": "addr",
          "type": "address"
        },
        {
          "internalType": "uint256[]",
          "name": "ids",
          "type": "uint256[]"
        }
      ],
      "name": "ownerOf",
      "outputs": [
        {
          "internalType": "address[]",
          "name": "owners",
          "type": "address[]"
        }
      ],
      "stateMutability": "view",
      "type": "function"
    }
  ],
  "transactionHash": "0x3ba9ebadaf022850e48da4724612d4d84a5cb4e5452b318e328fcfbb07db7fe1",
  "args": [],
  "numDeployments": 1,
  "solcInputHash": "3f55d370b7e8808c0d1fd1e01a564c35",
  "bytecode": "0x608060405234801561001057600080fd5b506105f1806100206000396000f3fe608060405234801561001057600080fd5b50600436106100365760003560e01c80634aa3ab931461003b5780634d4ae27414610064575b600080fd5b61004e610049366004610440565b610084565b60405161005b9190610519565b60405180910390f35b610077610072366004610493565b610218565b60405161005b91906104bf565b6060818067ffffffffffffffff8111156100ae57634e487b7160e01b600052604160045260246000fd5b6040519080825280602002602001820160405280156100d7578160200160208202803683370190505b50915060005b8181101561020f578573ffffffffffffffffffffffffffffffffffffffff166370a0823186868481811061012157634e487b7160e01b600052603260045260246000fd5b90506020020160208101906101369190610401565b6040517fffffffff0000000000000000000000000000000000000000000000000000000060e084901b16815273ffffffffffffffffffffffffffffffffffffffff909116600482015260240160206040518083038186803b15801561019a57600080fd5b505afa1580156101ae573d6000803e3d6000fd5b505050506040513d601f19601f820116820180604052508101906101d291906104a7565b8382815181106101f257634e487b7160e01b600052603260045260246000fd5b60209081029190910101528061020781610551565b9150506100dd565b50509392505050565b6060818067ffffffffffffffff81111561024257634e487b7160e01b600052604160045260246000fd5b60405190808252806020026020018201604052801561026b578160200160208202803683370190505b50915060005b8181101561020f578573ffffffffffffffffffffffffffffffffffffffff16636352211e8686848181106102b557634e487b7160e01b600052603260045260246000fd5b905060200201356040518263ffffffff1660e01b81526004016102da91815260200190565b60206040518083038186803b1580156102f257600080fd5b505afa925050508015610340575060408051601f3d9081017fffffffffffffffffffffffffffffffffffffffffffffffffffffffffffffffe016820190925261033d91810190610424565b60015b610349576103a6565b8084838151811061036a57634e487b7160e01b600052603260045260246000fd5b602002602001019073ffffffffffffffffffffffffffffffffffffffff16908173ffffffffffffffffffffffffffffffffffffffff1681525050505b806103b081610551565b915050610271565b60008083601f8401126103c9578182fd5b50813567ffffffffffffffff8111156103e0578182fd5b60208301915083602080830285010111156103fa57600080fd5b9250929050565b600060208284031215610412578081fd5b813561041d81610596565b9392505050565b600060208284031215610435578081fd5b815161041d81610596565b600080600060408486031215610454578182fd5b833561045f81610596565b9250602084013567ffffffffffffffff81111561047a578283fd5b610486868287016103b8565b9497909650939450505050565b600080600060408486031215610454578283fd5b6000602082840312156104b8578081fd5b5051919050565b6020808252825182820181905260009190848201906040850190845b8181101561050d57835173ffffffffffffffffffffffffffffffffffffffff16835292840192918401916001016104db565b50909695505050505050565b6020808252825182820181905260009190848201906040850190845b8181101561050d57835183529284019291840191600101610535565b60007fffffffffffffffffffffffffffffffffffffffffffffffffffffffffffffffff82141561058f57634e487b7160e01b81526011600452602481fd5b5060010190565b73ffffffffffffffffffffffffffffffffffffffff811681146105b857600080fd5b5056fea2646970667358221220041054584fc0415f9cda4ba1f1bcf80d3190b775a86f040fa706a6f04198b3a664736f6c63430008020033",
  "devdoc": {
    "kind": "dev",
    "methods": {},
    "version": 1
  },
  "userdoc": {
    "kind": "user",
    "methods": {},
    "notice": "A contract to batch a lot of calls so we don't get rate limited by the node",
    "version": 1
  },
  "storageLayout": {
    "storage": [],
    "types": null
  }
}