{
  "address": "0x8491701646d2877E85363346AFa7eB70F1b09792",
  "abi": [
    {
      "inputs": [
        {
          "internalType": "contract IERC20",
          "name": "stakeToken_",
          "type": "address"
        },
        {
          "internalType": "contract IERC20",
          "name": "rewardToken_",
          "type": "address"
        },
        {
          "internalType": "address",
          "name": "trustedForwarder",
          "type": "address"
        }
      ],
      "stateMutability": "nonpayable",
      "type": "constructor"
    },
    {
      "anonymous": false,
      "inputs": [
        {
          "indexed": false,
          "internalType": "uint256",
          "name": "newAmountLockClaim",
          "type": "uint256"
        },
        {
          "indexed": false,
          "internalType": "bool",
          "name": "isEnabled",
          "type": "bool"
        }
      ],
      "name": "AmountLockClaimSet",
      "type": "event"
    },
    {
      "anonymous": false,
      "inputs": [
        {
          "indexed": true,
          "internalType": "address",
          "name": "account",
          "type": "address"
        },
        {
          "indexed": false,
          "internalType": "uint256",
          "name": "newContribution",
          "type": "uint256"
        },
        {
          "indexed": false,
          "internalType": "uint256",
          "name": "oldContribution",
          "type": "uint256"
        }
      ],
      "name": "ContributionUpdated",
      "type": "event"
    },
    {
      "anonymous": false,
      "inputs": [
        {
          "indexed": true,
          "internalType": "address",
          "name": "contractERC1155",
          "type": "address"
        }
      ],
      "name": "ERC11551RequirementListDeleted",
      "type": "event"
    },
    {
      "anonymous": false,
      "inputs": [
        {
          "indexed": true,
          "internalType": "address",
          "name": "contractERC1155",
          "type": "address"
        },
        {
          "indexed": false,
          "internalType": "uint256[]",
          "name": "ids",
          "type": "uint256[]"
        },
        {
          "indexed": false,
          "internalType": "uint256",
          "name": "minAmountId",
          "type": "uint256"
        },
        {
          "indexed": false,
          "internalType": "uint256",
          "name": "maxAmountId",
          "type": "uint256"
        }
      ],
      "name": "ERC1155RequirementListSet",
      "type": "event"
    },
    {
      "anonymous": false,
      "inputs": [
        {
          "indexed": true,
          "internalType": "address",
          "name": "contractERC721",
          "type": "address"
        }
      ],
      "name": "ERC721RequirementListDeleted",
      "type": "event"
    },
    {
      "anonymous": false,
      "inputs": [
        {
          "indexed": true,
          "internalType": "address",
          "name": "contractERC721",
          "type": "address"
        },
        {
          "indexed": false,
          "internalType": "uint256[]",
          "name": "ids",
          "type": "uint256[]"
        },
        {
          "indexed": false,
          "internalType": "bool",
          "name": "balanceOf",
          "type": "bool"
        },
        {
          "indexed": false,
          "internalType": "uint256",
          "name": "minAmountBalanceOf",
          "type": "uint256"
        },
        {
          "indexed": false,
          "internalType": "uint256",
          "name": "maxAmountBalanceOf",
          "type": "uint256"
        },
        {
          "indexed": false,
          "internalType": "uint256",
          "name": "minAmountId",
          "type": "uint256"
        },
        {
          "indexed": false,
          "internalType": "uint256",
          "name": "maxAmountId",
          "type": "uint256"
        }
      ],
      "name": "ERC721RequirementListSet",
      "type": "event"
    },
    {
      "anonymous": false,
      "inputs": [
        {
          "indexed": true,
          "internalType": "address",
          "name": "account",
          "type": "address"
        }
      ],
      "name": "Exit",
      "type": "event"
    },
    {
      "anonymous": false,
      "inputs": [
        {
          "indexed": false,
          "internalType": "uint256",
          "name": "newMaxStake",
          "type": "uint256"
        },
        {
          "indexed": false,
          "internalType": "uint256",
          "name": "oldMaxStake",
          "type": "uint256"
        }
      ],
      "name": "MaxStakeOverallSet",
      "type": "event"
    },
    {
      "anonymous": false,
      "inputs": [
        {
          "indexed": true,
          "internalType": "address",
          "name": "previousOwner",
          "type": "address"
        },
        {
          "indexed": true,
          "internalType": "address",
          "name": "newOwner",
          "type": "address"
        }
      ],
      "name": "OwnershipTransferred",
      "type": "event"
    },
    {
      "anonymous": false,
      "inputs": [
        {
          "indexed": false,
          "internalType": "address",
          "name": "account",
          "type": "address"
        }
      ],
      "name": "Paused",
      "type": "event"
    },
    {
      "anonymous": false,
      "inputs": [
        {
          "indexed": true,
          "internalType": "address",
          "name": "account",
          "type": "address"
        },
        {
          "indexed": false,
          "internalType": "uint256",
          "name": "rewardAmount",
          "type": "uint256"
        }
      ],
      "name": "RewardPaid",
      "type": "event"
    },
    {
      "anonymous": false,
      "inputs": [
        {
          "indexed": true,
          "internalType": "address",
          "name": "account",
          "type": "address"
        },
        {
          "indexed": false,
          "internalType": "uint256",
          "name": "stakeAmount",
          "type": "uint256"
        }
      ],
      "name": "Staked",
      "type": "event"
    },
    {
      "anonymous": false,
      "inputs": [
        {
          "indexed": false,
          "internalType": "uint256",
          "name": "newTimeWithdraw",
          "type": "uint256"
        }
      ],
      "name": "TimeLockWithdrawSet",
      "type": "event"
    },
    {
      "anonymous": false,
      "inputs": [
        {
          "indexed": false,
          "internalType": "uint256",
          "name": "lockPeriodInSecs",
          "type": "uint256"
        }
      ],
      "name": "TimelockClaimSet",
      "type": "event"
    },
    {
      "anonymous": false,
      "inputs": [
        {
          "indexed": false,
          "internalType": "uint256",
          "name": "newTimeDeposit",
          "type": "uint256"
        }
      ],
      "name": "TimelockDepositSet",
      "type": "event"
    },
    {
      "anonymous": false,
      "inputs": [
        {
          "indexed": false,
          "internalType": "address",
          "name": "account",
          "type": "address"
        }
      ],
      "name": "Unpaused",
      "type": "event"
    },
    {
      "anonymous": false,
      "inputs": [
        {
          "indexed": true,
          "internalType": "address",
          "name": "account",
          "type": "address"
        },
        {
          "indexed": false,
          "internalType": "uint256",
          "name": "stakeAmount",
          "type": "uint256"
        }
      ],
      "name": "Withdrawn",
      "type": "event"
    },
    {
      "inputs": [],
      "name": "amountLockClaim",
      "outputs": [
        {
          "internalType": "uint256",
          "name": "amount",
          "type": "uint256"
        },
        {
          "internalType": "bool",
          "name": "claimLockEnabled",
          "type": "bool"
        }
      ],
      "stateMutability": "view",
      "type": "function"
    },
    {
      "inputs": [],
      "name": "amountLockLimit",
      "outputs": [
        {
          "internalType": "uint256",
          "name": "",
          "type": "uint256"
        }
      ],
      "stateMutability": "view",
      "type": "function"
    },
    {
      "inputs": [
        {
          "internalType": "address",
          "name": "account",
          "type": "address"
        }
      ],
      "name": "balanceOf",
      "outputs": [
        {
          "internalType": "uint256",
          "name": "",
          "type": "uint256"
        }
      ],
      "stateMutability": "view",
      "type": "function"
    },
    {
      "inputs": [
        {
          "internalType": "address",
          "name": "account",
          "type": "address"
        }
      ],
      "name": "checkAndGetERC1155Stake",
      "outputs": [
        {
          "internalType": "uint256",
          "name": "",
          "type": "uint256"
        }
      ],
      "stateMutability": "view",
      "type": "function"
    },
    {
      "inputs": [
        {
          "internalType": "address",
          "name": "account",
          "type": "address"
        }
      ],
      "name": "checkAndGetERC721Stake",
      "outputs": [
        {
          "internalType": "uint256",
          "name": "",
          "type": "uint256"
        }
      ],
      "stateMutability": "view",
      "type": "function"
    },
    {
      "inputs": [
        {
          "internalType": "address",
          "name": "account",
          "type": "address"
        }
      ],
      "name": "computeContribution",
      "outputs": [],
      "stateMutability": "nonpayable",
      "type": "function"
    },
    {
      "inputs": [
        {
          "internalType": "address[]",
          "name": "accounts",
          "type": "address[]"
        }
      ],
      "name": "computeContributionInBatch",
      "outputs": [],
      "stateMutability": "nonpayable",
      "type": "function"
    },
    {
      "inputs": [],
      "name": "contractsLimit",
      "outputs": [
        {
          "internalType": "uint256",
          "name": "",
          "type": "uint256"
        }
      ],
      "stateMutability": "view",
      "type": "function"
    },
    {
      "inputs": [
        {
          "internalType": "address",
          "name": "account",
          "type": "address"
        }
      ],
      "name": "contributionOf",
      "outputs": [
        {
          "internalType": "uint256",
          "name": "",
          "type": "uint256"
        }
      ],
      "stateMutability": "view",
      "type": "function"
    },
    {
      "inputs": [],
      "name": "contributionRules",
      "outputs": [
        {
          "internalType": "contract IContributionRules",
          "name": "",
          "type": "address"
        }
      ],
      "stateMutability": "view",
      "type": "function"
    },
    {
      "inputs": [
        {
          "internalType": "address",
          "name": "contractERC1155",
          "type": "address"
        }
      ],
      "name": "deleteERC1155RequirementList",
      "outputs": [],
      "stateMutability": "nonpayable",
      "type": "function"
    },
    {
      "inputs": [
        {
          "internalType": "address",
          "name": "contractERC721",
          "type": "address"
        }
      ],
      "name": "deleteERC721RequirementList",
      "outputs": [],
      "stateMutability": "nonpayable",
      "type": "function"
    },
    {
      "inputs": [
        {
          "internalType": "address",
          "name": "account",
          "type": "address"
        }
      ],
      "name": "earned",
      "outputs": [
        {
          "internalType": "uint256",
          "name": "",
          "type": "uint256"
        }
      ],
      "stateMutability": "view",
      "type": "function"
    },
    {
      "inputs": [],
      "name": "exit",
      "outputs": [],
      "stateMutability": "nonpayable",
      "type": "function"
    },
    {
      "inputs": [
        {
          "internalType": "contract IERC1155",
          "name": "reqContract",
          "type": "address"
        },
        {
          "internalType": "address",
          "name": "account",
          "type": "address"
        }
      ],
      "name": "getERC1155BalanceId",
      "outputs": [
        {
          "internalType": "uint256",
          "name": "",
          "type": "uint256"
        }
      ],
      "stateMutability": "view",
      "type": "function"
    },
    {
      "inputs": [
        {
          "internalType": "address",
          "name": "account",
          "type": "address"
        }
      ],
      "name": "getERC1155MaxStake",
      "outputs": [
        {
          "internalType": "uint256",
          "name": "",
          "type": "uint256"
        }
      ],
      "stateMutability": "view",
      "type": "function"
    },
    {
      "inputs": [
        {
          "internalType": "address",
          "name": "contractERC1155",
          "type": "address"
        }
      ],
      "name": "getERC1155RequirementList",
      "outputs": [
        {
          "components": [
            {
              "internalType": "uint256[]",
              "name": "ids",
              "type": "uint256[]"
            },
            {
              "internalType": "uint256",
              "name": "minAmountId",
              "type": "uint256"
            },
            {
              "internalType": "uint256",
              "name": "maxAmountId",
              "type": "uint256"
            },
            {
              "internalType": "uint256",
              "name": "index",
              "type": "uint256"
            }
          ],
          "internalType": "struct RequirementsRules.ERC1155RequirementRule",
          "name": "",
          "type": "tuple"
        }
      ],
      "stateMutability": "view",
      "type": "function"
    },
    {
      "inputs": [
        {
          "internalType": "contract IERC721",
          "name": "reqContract",
          "type": "address"
        },
        {
          "internalType": "address",
          "name": "account",
          "type": "address"
        }
      ],
      "name": "getERC721BalanceId",
      "outputs": [
        {
          "internalType": "uint256",
          "name": "",
          "type": "uint256"
        }
      ],
      "stateMutability": "view",
      "type": "function"
    },
    {
      "inputs": [
        {
          "internalType": "address",
          "name": "account",
          "type": "address"
        }
      ],
      "name": "getERC721MaxStake",
      "outputs": [
        {
          "internalType": "uint256",
          "name": "",
          "type": "uint256"
        }
      ],
      "stateMutability": "view",
      "type": "function"
    },
    {
      "inputs": [
        {
          "internalType": "address",
          "name": "contractERC721",
          "type": "address"
        }
      ],
      "name": "getERC721RequirementList",
      "outputs": [
        {
          "components": [
            {
              "internalType": "uint256[]",
              "name": "ids",
              "type": "uint256[]"
            },
            {
              "internalType": "bool",
              "name": "balanceOf",
              "type": "bool"
            },
            {
              "internalType": "uint256",
              "name": "minAmountBalanceOf",
              "type": "uint256"
            },
            {
              "internalType": "uint256",
              "name": "maxAmountBalanceOf",
              "type": "uint256"
            },
            {
              "internalType": "uint256",
              "name": "minAmountId",
              "type": "uint256"
            },
            {
              "internalType": "uint256",
              "name": "maxAmountId",
              "type": "uint256"
            },
            {
              "internalType": "uint256",
              "name": "index",
              "type": "uint256"
            }
          ],
          "internalType": "struct RequirementsRules.ERC721RequirementRule",
          "name": "",
          "type": "tuple"
        }
      ],
      "stateMutability": "view",
      "type": "function"
    },
    {
      "inputs": [],
      "name": "getRemainingTimelockClaim",
      "outputs": [
        {
          "internalType": "uint256",
          "name": "",
          "type": "uint256"
        }
      ],
      "stateMutability": "view",
      "type": "function"
    },
    {
      "inputs": [],
      "name": "getRemainingTimelockDeposit",
      "outputs": [
        {
          "internalType": "uint256",
          "name": "",
          "type": "uint256"
        }
      ],
      "stateMutability": "view",
      "type": "function"
    },
    {
      "inputs": [],
      "name": "getRemainingTimelockWithdraw",
      "outputs": [
        {
          "internalType": "uint256",
          "name": "",
          "type": "uint256"
        }
      ],
      "stateMutability": "view",
      "type": "function"
    },
    {
      "inputs": [],
      "name": "getReward",
      "outputs": [],
      "stateMutability": "nonpayable",
      "type": "function"
    },
    {
      "inputs": [],
      "name": "getRewardsAvailable",
      "outputs": [
        {
          "internalType": "uint256",
          "name": "",
          "type": "uint256"
        }
      ],
      "stateMutability": "view",
      "type": "function"
    },
    {
      "inputs": [],
      "name": "getTrustedForwarder",
      "outputs": [
        {
          "internalType": "address",
          "name": "trustedForwarder",
          "type": "address"
        }
      ],
      "stateMutability": "view",
      "type": "function"
    },
    {
      "inputs": [],
      "name": "idsLimit",
      "outputs": [
        {
          "internalType": "uint256",
          "name": "",
          "type": "uint256"
        }
      ],
      "stateMutability": "view",
      "type": "function"
    },
    {
      "inputs": [
        {
          "internalType": "contract IERC1155",
          "name": "reqContract",
          "type": "address"
        }
      ],
      "name": "isERC1155MemberRequirementList",
      "outputs": [
        {
          "internalType": "bool",
          "name": "",
          "type": "bool"
        }
      ],
      "stateMutability": "view",
      "type": "function"
    },
    {
      "inputs": [
        {
          "internalType": "contract IERC721",
          "name": "reqContract",
          "type": "address"
        }
      ],
      "name": "isERC721MemberRequirementList",
      "outputs": [
        {
          "internalType": "bool",
          "name": "",
          "type": "bool"
        }
      ],
      "stateMutability": "view",
      "type": "function"
    },
    {
      "inputs": [
        {
          "internalType": "address",
          "name": "forwarder",
          "type": "address"
        }
      ],
      "name": "isTrustedForwarder",
      "outputs": [
        {
          "internalType": "bool",
          "name": "",
          "type": "bool"
        }
      ],
      "stateMutability": "view",
      "type": "function"
    },
    {
      "inputs": [],
      "name": "lockDeposit",
      "outputs": [
        {
          "internalType": "uint256",
          "name": "lockPeriodInSecs",
          "type": "uint256"
        }
      ],
      "stateMutability": "view",
      "type": "function"
    },
    {
      "inputs": [],
      "name": "lockWithdraw",
      "outputs": [
        {
          "internalType": "uint256",
          "name": "lockPeriodInSecs",
          "type": "uint256"
        }
      ],
      "stateMutability": "view",
      "type": "function"
    },
    {
      "inputs": [
        {
          "internalType": "address",
          "name": "account",
          "type": "address"
        }
      ],
      "name": "maxStakeAllowedCalculator",
      "outputs": [
        {
          "internalType": "uint256",
          "name": "",
          "type": "uint256"
        }
      ],
      "stateMutability": "view",
      "type": "function"
    },
    {
      "inputs": [],
      "name": "maxStakeOverall",
      "outputs": [
        {
          "internalType": "uint256",
          "name": "",
          "type": "uint256"
        }
      ],
      "stateMutability": "view",
      "type": "function"
    },
    {
      "inputs": [],
      "name": "owner",
      "outputs": [
        {
          "internalType": "address",
          "name": "",
          "type": "address"
        }
      ],
      "stateMutability": "view",
      "type": "function"
    },
    {
      "inputs": [],
      "name": "pause",
      "outputs": [],
      "stateMutability": "nonpayable",
      "type": "function"
    },
    {
      "inputs": [],
      "name": "paused",
      "outputs": [
        {
          "internalType": "bool",
          "name": "",
          "type": "bool"
        }
      ],
      "stateMutability": "view",
      "type": "function"
    },
    {
      "inputs": [
        {
          "internalType": "address",
          "name": "receiver",
          "type": "address"
        }
      ],
      "name": "recoverFunds",
      "outputs": [],
      "stateMutability": "nonpayable",
      "type": "function"
    },
    {
      "inputs": [],
      "name": "renounceOwnership",
      "outputs": [],
      "stateMutability": "view",
      "type": "function"
    },
    {
      "inputs": [],
      "name": "restartRewards",
      "outputs": [],
      "stateMutability": "nonpayable",
      "type": "function"
    },
    {
      "inputs": [],
      "name": "rewardCalculator",
      "outputs": [
        {
          "internalType": "contract IRewardCalculator",
          "name": "",
          "type": "address"
        }
      ],
      "stateMutability": "view",
      "type": "function"
    },
    {
      "inputs": [],
      "name": "rewardPerToken",
      "outputs": [
        {
          "internalType": "uint256",
          "name": "",
          "type": "uint256"
        }
      ],
      "stateMutability": "view",
      "type": "function"
    },
    {
      "inputs": [],
      "name": "rewardPerTokenStored",
      "outputs": [
        {
          "internalType": "uint256",
          "name": "",
          "type": "uint256"
        }
      ],
      "stateMutability": "view",
      "type": "function"
    },
    {
      "inputs": [],
      "name": "rewardToken",
      "outputs": [
        {
          "internalType": "contract IERC20",
          "name": "",
          "type": "address"
        }
      ],
      "stateMutability": "view",
      "type": "function"
    },
    {
      "inputs": [
        {
          "internalType": "address",
          "name": "",
          "type": "address"
        }
      ],
      "name": "rewards",
      "outputs": [
        {
          "internalType": "uint256",
          "name": "",
          "type": "uint256"
        }
      ],
      "stateMutability": "view",
      "type": "function"
    },
    {
      "inputs": [
        {
          "internalType": "uint256",
          "name": "_newAmountLockClaim",
          "type": "uint256"
        },
        {
          "internalType": "bool",
          "name": "_isEnabled",
          "type": "bool"
        }
      ],
      "name": "setAmountLockClaim",
      "outputs": [],
      "stateMutability": "nonpayable",
      "type": "function"
    },
    {
      "inputs": [
        {
          "internalType": "address",
          "name": "contractAddress",
          "type": "address"
        }
      ],
      "name": "setContributionRules",
      "outputs": [],
      "stateMutability": "nonpayable",
      "type": "function"
    },
    {
      "inputs": [
        {
          "internalType": "address",
          "name": "contractERC1155",
          "type": "address"
        },
        {
          "internalType": "uint256[]",
          "name": "ids",
          "type": "uint256[]"
        },
        {
          "internalType": "uint256",
          "name": "minAmountId",
          "type": "uint256"
        },
        {
          "internalType": "uint256",
          "name": "maxAmountId",
          "type": "uint256"
        }
      ],
      "name": "setERC1155RequirementList",
      "outputs": [],
      "stateMutability": "nonpayable",
      "type": "function"
    },
    {
      "inputs": [
        {
          "internalType": "address",
          "name": "contractERC721",
          "type": "address"
        },
        {
          "internalType": "uint256[]",
          "name": "ids",
          "type": "uint256[]"
        },
        {
          "internalType": "bool",
          "name": "balanceOf",
          "type": "bool"
        },
        {
          "internalType": "uint256",
          "name": "minAmountBalanceOf",
          "type": "uint256"
        },
        {
          "internalType": "uint256",
          "name": "maxAmountBalanceOf",
          "type": "uint256"
        },
        {
          "internalType": "uint256",
          "name": "minAmountId",
          "type": "uint256"
        },
        {
          "internalType": "uint256",
          "name": "maxAmountId",
          "type": "uint256"
        }
      ],
      "name": "setERC721RequirementList",
      "outputs": [],
      "stateMutability": "nonpayable",
      "type": "function"
    },
    {
      "inputs": [
        {
          "internalType": "uint256",
          "name": "newMaxStake",
          "type": "uint256"
        }
      ],
      "name": "setMaxStakeOverall",
      "outputs": [],
      "stateMutability": "nonpayable",
      "type": "function"
    },
    {
      "inputs": [
        {
          "internalType": "address",
          "name": "contractAddress",
          "type": "address"
        },
        {
          "internalType": "bool",
          "name": "restartRewards_",
          "type": "bool"
        }
      ],
      "name": "setRewardCalculator",
      "outputs": [],
      "stateMutability": "nonpayable",
      "type": "function"
    },
    {
      "inputs": [
        {
          "internalType": "address",
          "name": "contractAddress",
          "type": "address"
        }
      ],
      "name": "setRewardToken",
      "outputs": [],
      "stateMutability": "nonpayable",
      "type": "function"
    },
    {
      "inputs": [
        {
          "internalType": "address",
          "name": "contractAddress",
          "type": "address"
        }
      ],
      "name": "setStakeToken",
      "outputs": [],
      "stateMutability": "nonpayable",
      "type": "function"
    },
    {
      "inputs": [
        {
          "internalType": "uint256",
          "name": "_newTimeWithdraw",
          "type": "uint256"
        }
      ],
      "name": "setTimeLockWithdraw",
      "outputs": [],
      "stateMutability": "nonpayable",
      "type": "function"
    },
    {
      "inputs": [
        {
          "internalType": "uint256",
          "name": "_lockPeriodInSecs",
          "type": "uint256"
        }
      ],
      "name": "setTimelockClaim",
      "outputs": [],
      "stateMutability": "nonpayable",
      "type": "function"
    },
    {
      "inputs": [
        {
          "internalType": "uint256",
          "name": "_newTimeDeposit",
          "type": "uint256"
        }
      ],
      "name": "setTimelockDeposit",
      "outputs": [],
      "stateMutability": "nonpayable",
      "type": "function"
    },
    {
      "inputs": [
        {
          "internalType": "address",
          "name": "trustedForwarder",
          "type": "address"
        }
      ],
      "name": "setTrustedForwarder",
      "outputs": [],
      "stateMutability": "nonpayable",
      "type": "function"
    },
    {
      "inputs": [
        {
          "internalType": "uint256",
          "name": "amount",
          "type": "uint256"
        }
      ],
      "name": "stake",
      "outputs": [],
      "stateMutability": "nonpayable",
      "type": "function"
    },
    {
      "inputs": [],
      "name": "stakeToken",
      "outputs": [
        {
          "internalType": "contract IERC20",
          "name": "",
          "type": "address"
        }
      ],
      "stateMutability": "view",
      "type": "function"
    },
    {
      "inputs": [],
      "name": "timeLockClaim",
      "outputs": [
        {
          "internalType": "uint256",
          "name": "lockPeriodInSecs",
          "type": "uint256"
        }
      ],
      "stateMutability": "view",
      "type": "function"
    },
    {
      "inputs": [],
      "name": "timeLockLimit",
      "outputs": [
        {
          "internalType": "uint256",
          "name": "",
          "type": "uint256"
        }
      ],
      "stateMutability": "view",
      "type": "function"
    },
    {
      "inputs": [],
      "name": "totalContributions",
      "outputs": [
        {
          "internalType": "uint256",
          "name": "",
          "type": "uint256"
        }
      ],
      "stateMutability": "view",
      "type": "function"
    },
    {
      "inputs": [],
      "name": "totalSupply",
      "outputs": [
        {
          "internalType": "uint256",
          "name": "",
          "type": "uint256"
        }
      ],
      "stateMutability": "view",
      "type": "function"
    },
    {
      "inputs": [
        {
          "internalType": "address",
          "name": "newOwner",
          "type": "address"
        }
      ],
      "name": "transferOwnership",
      "outputs": [],
      "stateMutability": "nonpayable",
      "type": "function"
    },
    {
      "inputs": [],
      "name": "unpause",
      "outputs": [],
      "stateMutability": "nonpayable",
      "type": "function"
    },
    {
      "inputs": [
        {
          "internalType": "address",
          "name": "",
          "type": "address"
        }
      ],
      "name": "userRewardPerTokenPaid",
      "outputs": [
        {
          "internalType": "uint256",
          "name": "",
          "type": "uint256"
        }
      ],
      "stateMutability": "view",
      "type": "function"
    },
    {
      "inputs": [
        {
          "internalType": "uint256",
          "name": "amount",
          "type": "uint256"
        }
      ],
      "name": "withdraw",
      "outputs": [],
      "stateMutability": "nonpayable",
      "type": "function"
    }
  ],
  "transactionHash": "0x23634d9a3e0518420c4876f8f3c939f2c69d33f30735c51cb09624c7f9cf734c",
  "args": [
    "0x592daadC9eA7F56A81De1FD27A723Bd407709c46",
    "0x592daadC9eA7F56A81De1FD27A723Bd407709c46",
    "0x69015912aa33720b842dcd6ac059ed623f28d9f7"
  ],
  "numDeployments": 1,
  "solcInputHash": "686b87f111908fb649e9ad0432e53380",
  "bytecode": "0x60806040526040603e556004603f553480156200001b57600080fd5b5060405162005874380380620058748339810160408190526200003e91620002b9565b82620000536200004d620001b9565b620001d6565b62000072816001600160a01b03166200022660201b6200403b1760201c565b620000d05760405162461bcd60e51b8152602060048201526024808201527f5374616b65546f6b656e577261707065723a206973206e6f74206120636f6e746044820152631c9858dd60e21b60648201526084015b60405180910390fd5b600180546001600160a01b0319166001600160a01b039283161781556045556046805460ff60a01b191690556200011590831662000226602090811b6200403b17901c565b6200016e5760405162461bcd60e51b815260206004820152602260248201527f4552433230526577617264506f6f6c3a206973206e6f74206120636f6e74726160448201526118dd60f21b6064820152608401620000c7565b604880546001600160a01b0319166001600160a01b038416179055620001b081604680546001600160a01b0319166001600160a01b0392909216919091179055565b50505062000325565b6000620001d06200022c60201b620040411760201c565b90505b90565b600080546001600160a01b038381166001600160a01b0319831681178455604051919092169283917f8be0079c531659141344cd1fd0a4f28419497f9722a3daafe3b4186f6b6457e09190a35050565b3b151590565b6046546000906001600160a01b0316331415620002b1576018361015620002a15760405162461bcd60e51b815260206004820152602260248201527f4552433237373148616e646c657256323a20496e76616c6964206d73672e6461604482015261746160f01b6064820152608401620000c7565b5060131936013560601c620001d3565b5033620001d3565b600080600060608486031215620002ce578283fd5b8351620002db816200030c565b6020850151909350620002ee816200030c565b604085015190925062000301816200030c565b809150509250925092565b6001600160a01b03811681146200032257600080fd5b50565b61553f80620003356000396000f3fe608060405234801561001057600080fd5b50600436106104205760003560e01c80638456cb5911610235578063cd3daf9d11610135578063df136d65116100c8578063e9fad8ee11610097578063f2fde38b1161007c578063f2fde38b146108b3578063f7c618c1146108c6578063fc17e07b146108d957610420565b8063e9fad8ee146108a2578063f0f49856146108aa57610420565b8063df136d651461086a578063dfeb943914610873578063e255911214610886578063e72f6e301461088f57610420565b8063d64791f811610104578063d64791f814610808578063d7805ece1461081b578063da74222814610844578063db6beab71461085757610420565b8063cd3daf9d146107d2578063ce1b815f146107da578063d1b844e6146107eb578063d2fe29d3146107f557610420565b8063a3c5b4d6116101c8578063a8863bb111610197578063b01658401161017c578063b0165840146107a4578063bd8e10f4146107ac578063bfcd5953146107bf57610420565b8063a8863bb11461077e578063accb04bd1461079157610420565b8063a3c5b4d61461073b578063a425632f1461074e578063a5cac0a114610758578063a694fc3a1461076b57610420565b80638da5cb5b116102045780638da5cb5b146106fa57806396769e891461070b5780639c48f2901461071e578063a0ed0d8e1461072857610420565b80638456cb59146106b757806387f260ce146106bf5780638aee8127146106c75780638b876347146106da57610420565b80633f4ba83a116103405780635c9415d3116102d35780636e15349b116102a257806370a082311161028757806370a0823114610666578063715018a61461068f5780637f7bc9061461069757610420565b80636e15349b1461064b5780636e6982af1461065e57610420565b80635c9415d3146106095780635c975abb1461061c578063618891101461062f57806369354e5c1461064257610420565b80634d49d3991161030f5780634d49d399146105c457806351ed6a30146105ce578063572b6c05146105df5780635ae64bd81461060157610420565b80633f4ba83a14610583578063431e48af1461058b578063446ed03d1461059e578063495bb729146105b157610420565b8063216213d5116103b85780632e0cefd7116103875780632e0cefd71461053d5780632e1a7d4d1461056057806337c08923146105735780633d18b9121461057b57610420565b8063216213d5146104c65780632b061ca2146104d95780632b7f01fc146104ff5780632c34a4591461052a57610420565b80630d59f435116103f45780630d59f435146104935780631657e4891461049b57806318160ddd146104ae5780631860f70d146104b657610420565b80628cc262146104255780630397d4581461044b5780630700037d146104605780630823a11614610480575b600080fd5b610438610433366004614ff1565b6108f9565b6040519081526020015b60405180910390f35b61045e610459366004614ff1565b610937565b005b61043861046e366004614ff1565b604c6020526000908152604090205481565b61043861048e366004614ff1565b610bfc565b610438610eda565b6104386104a9366004614ff1565b610f43565b600254610438565b610438683635c9adc5dea0000081565b61045e6104d4366004614ff1565b610f70565b6038546039546104ea919060ff1682565b60408051928352901515602083015201610442565b604954610512906001600160a01b031681565b6040516001600160a01b039091168152602001610442565b610438610538366004614ff1565b61120c565b61055061054b366004614ff1565b6112b6565b6040519015158152602001610442565b61045e61056e3660046151fc565b611320565b604d54610438565b61045e611404565b61045e6114dc565b61045e61059936600461522c565b61155f565b6104386105ac366004614ff1565b6116ac565b61045e6105bf366004614ff1565b6117e0565b61043862ed4e0081565b6001546001600160a01b0316610512565b6105506105ed366004614ff1565b6046546001600160a01b0390811691161490565b610438611a7c565b61045e6106173660046151fc565b611ba6565b610550604654600160a01b900460ff1690565b61045e61063d3660046151fc565b611cba565b61043860405481565b6104386106593660046151cf565b611dc7565b610438611ef8565b610438610674366004614ff1565b6001600160a01b031660009081526003602052604090205490565b61045e611f0b565b6106aa6106a5366004614ff1565b611ff2565b6040516104429190615380565b61045e6121d1565b610438612252565b61045e6106d5366004614ff1565b612265565b6104386106e8366004614ff1565b604b6020526000908152604090205481565b6000546001600160a01b0316610512565b604a54610512906001600160a01b031681565b6036546104389081565b61045e6107363660046150ae565b612525565b61045e610749366004615029565b612815565b603a546104389081565b610550610766366004614ff1565b612b60565b61045e6107793660046151fc565b612bae565b61043861078c3660046151cf565b6130b4565b61045e61079f36600461510c565b6131cf565b61045e613336565b61045e6107ba366004614ff1565b61333e565b61045e6107cd3660046151fc565b613495565b61043861354b565b6046546001600160a01b0316610512565b603c546104389081565b61045e6108033660046151fc565b613562565b61045e610816366004615144565b61366f565b610438610829366004614ff1565b6001600160a01b03166000908152604e602052604090205490565b61045e610852366004614ff1565b6136fa565b610438610865366004614ff1565b6137f9565b61043860475481565b61045e610881366004614ff1565b61396d565b610438603e5481565b61045e61089d366004614ff1565b6139da565b61045e613c49565b610438603f5481565b61045e6108c1366004614ff1565b613d96565b604854610512906001600160a01b031681565b6108ec6108e7366004614ff1565b613e97565b604051610442919061533a565b600061090c82610907614102565b6141d1565b6001600160a01b0383166000908152604c602052604090205461092f91906153e7565b90505b919050565b806001600160a01b0381163b61099f5760405162461bcd60e51b815260206004820152602260248201527f4552433230526577617264506f6f6c3a206973206e6f74206120636f6e74726160448201526118dd60f21b60648201526084015b60405180910390fd5b6109a7614235565b6001600160a01b03166109c26000546001600160a01b031690565b6001600160a01b031614610a185760405162461bcd60e51b815260206004820152601a60248201527f4552433230526577617264506f6f6c3a206e6f742061646d696e0000000000006044820152606401610996565b816001600160a01b038116610a6f5760405162461bcd60e51b815260206004820152601d60248201527f4552433230526577617264506f6f6c3a207a65726f20616464726573730000006044820152606401610996565b6040516370a0823160e01b815230600482015283906001600160a01b038216906370a082319060240160206040518083038186803b158015610ab057600080fd5b505afa158015610ac4573d6000803e3d6000fd5b505050506040513d601f19601f82011682018060405250810190610ae89190615214565b6001546040516370a0823160e01b81523060048201526001600160a01b03909116906370a082319060240160206040518083038186803b158015610b2b57600080fd5b505afa158015610b3f573d6000803e3d6000fd5b505050506040513d601f19601f82011682018060405250810190610b639190615214565b1115610bd75760405162461bcd60e51b815260206004820152602560248201527f4552433230526577617264506f6f6c3a20696e73756666696369656e7420626160448201527f6c616e63650000000000000000000000000000000000000000000000000000006064820152608401610996565b600180546001600160a01b0319166001600160a01b0392909216919091179055505050565b600080805b604354811015610ed35760008060438381548110610c2f57634e487b7160e01b600052603260045260246000fd5b60009182526020822001546001600160a01b03169150610c4f82886130b4565b6001600160a01b03831660009081526041602052604090205490915015610cdb576001600160a01b038216600090815260416020526040902060040154811015610cdb5760405162461bcd60e51b815260206004820152601c60248201527f526571756972656d656e747352756c65733a2062616c616e63654964000000006044820152606401610996565b6001600160a01b038216600090815260416020526040902060019081015460ff1615151415610e5b576001600160a01b03828116600081815260416020526040908190206002015490516370a0823160e01b8152928a166004840152916370a082319060240160206040518083038186803b158015610d5957600080fd5b505afa158015610d6d573d6000803e3d6000fd5b505050506040513d601f19601f82011682018060405250810190610d919190615214565b1015610ddf5760405162461bcd60e51b815260206004820152601c60248201527f526571756972656d656e747352756c65733a2062616c616e63654f66000000006044820152606401610996565b6040516370a0823160e01b81526001600160a01b0388811660048301528316906370a082319060240160206040518083038186803b158015610e2057600080fd5b505afa158015610e34573d6000803e3d6000fd5b505050506040513d601f19601f82011682018060405250810190610e589190615214565b92505b6001600160a01b038216600090815260416020526040902060050154610e819082615413565b6001600160a01b038316600090815260416020526040902060030154610ea79085615413565b610eb191906153e7565b610ebb90866153e7565b94505050508080610ecb90615475565b915050610c01565b5092915050565b603c546000908190603d82610eed614235565b6001600160a01b03166001600160a01b0316815260200190815260200160002054610f1891906153e7565b905080421115610f3457610f2c8142615432565b915050610f40565b6000915050610f40565b505b90565b600080610f4f836137f9565b90506000610f5c8461120c565b9050610f68828261423f565b949350505050565b610f78614235565b6001600160a01b0316610f936000546001600160a01b031690565b6001600160a01b031614610fe95760405162461bcd60e51b815260206004820181905260248201527f4f776e61626c653a2063616c6c6572206973206e6f7420746865206f776e65726044820152606401610996565b806001600160a01b0381163b61104c5760405162461bcd60e51b815260206004820152602260248201527f526571756972656d656e747352756c65733a206973206e6f7420636f6e74726160448201526118dd60f21b6064820152608401610996565b81611056816112b6565b6110c85760405162461bcd60e51b815260206004820152602e60248201527f526571756972656d656e747352756c65733a20636f6e7472616374206973206e60448201527f6f7420696e20746865206c6973740000000000000000000000000000000000006064820152608401610996565b6001600160a01b03831660009081526041602052604081206006015460438054869391906110f890600190615432565b8154811061111657634e487b7160e01b600052603260045260246000fd5b600091825260209091200154604380546001600160a01b03909216925082918490811061115357634e487b7160e01b600052603260045260246000fd5b600091825260208083209190910180546001600160a01b0319166001600160a01b03948516179055918316815260419091526040902060060182905560438054806111ae57634e487b7160e01b600052603160045260246000fd5b600082815260208120820160001990810180546001600160a01b03191690559091019091556040516001600160a01b038816917f47e3c945866c02102662275722b0b8ae9769ad96d6ddcc8a4c6d8d74ff16706291a2505050505050565b600080805b604454811015610ed3576000806044838154811061123f57634e487b7160e01b600052603260045260246000fd5b60009182526020822001546001600160a01b0316915061125f8288611dc7565b905061126b81846153e7565b6001600160a01b0383166000908152604260205260409020600201549093506112949084615413565b61129e90866153e7565b945050505080806112ae90615475565b915050611211565b6043546000901580159061092f57506001600160a01b03821660008181526041602052604090206006015460438054909190811061130457634e487b7160e01b600052603260045260246000fd5b6000918252602090912001546001600160a01b03161492915050565b600260455414156113735760405162461bcd60e51b815260206004820152601f60248201527f5265656e7472616e637947756172643a207265656e7472616e742063616c6c006044820152606401610996565b600260455561138b604654600160a01b900460ff1690565b156113cb5760405162461bcd60e51b815260206004820152601060248201526f14185d5cd8589b194e881c185d5cd95960821b6044820152606401610996565b6113db6113d6614235565b614295565b6113ec6113e6614235565b826142a6565b6113fc6113f7614235565b614430565b506001604555565b600260455414156114575760405162461bcd60e51b815260206004820152601f60248201527f5265656e7472616e637947756172643a207265656e7472616e742063616c6c006044820152606401610996565b600260455561146f604654600160a01b900460ff1690565b156114af5760405162461bcd60e51b815260206004820152601060248201526f14185d5cd8589b194e881c185d5cd95960821b6044820152606401610996565b6114ba6113d6614235565b6114ca6114c5614235565b6144ca565b6114d56113f7614235565b6001604555565b6114e4614235565b6001600160a01b03166114ff6000546001600160a01b031690565b6001600160a01b0316146115555760405162461bcd60e51b815260206004820181905260248201527f4f776e61626c653a2063616c6c6572206973206e6f7420746865206f776e65726044820152606401610996565b61155d61469b565b565b611567614235565b6001600160a01b03166115826000546001600160a01b031690565b6001600160a01b0316146115d85760405162461bcd60e51b815260206004820181905260248201527f4f776e61626c653a2063616c6c6572206973206e6f7420746865206f776e65726044820152606401610996565b683635c9adc5dea000008211156116575760405162461bcd60e51b815260206004820152602560248201527f4c6f636b52756c65733a20696e76616c6964206e6577416d6f756e744c6f636b60448201527f436c61696d0000000000000000000000000000000000000000000000000000006064820152608401610996565b60388290556039805460ff19168215159081179091556040805184815260208101929092527fae4d8a2a6d24c92b12bc1ad576eb89a6c352b143519ecbc978c0f5d75bb1d9c791015b60405180910390a15050565b600080805b604454811015610ed357600080604483815481106116df57634e487b7160e01b600052603260045260246000fd5b60009182526020822001546001600160a01b031691506116ff8288611dc7565b6001600160a01b0383166000908152604260205260409020549091501561178b576001600160a01b03821660009081526042602052604090206001015481101561178b5760405162461bcd60e51b815260206004820152601c60248201527f526571756972656d656e747352756c65733a2062616c616e63654964000000006044820152606401610996565b61179581846153e7565b6001600160a01b0383166000908152604260205260409020600201549093506117be9084615413565b6117c890866153e7565b945050505080806117d890615475565b9150506116b1565b6117e8614235565b6001600160a01b03166118036000546001600160a01b031690565b6001600160a01b0316146118595760405162461bcd60e51b815260206004820181905260248201527f4f776e61626c653a2063616c6c6572206973206e6f7420746865206f776e65726044820152606401610996565b806001600160a01b0381163b6118bc5760405162461bcd60e51b815260206004820152602260248201527f526571756972656d656e747352756c65733a206973206e6f7420636f6e74726160448201526118dd60f21b6064820152608401610996565b816118c681612b60565b6119385760405162461bcd60e51b815260206004820152602e60248201527f526571756972656d656e747352756c65733a20636f6e7472616374206973206e60448201527f6f7420696e20746865206c6973740000000000000000000000000000000000006064820152608401610996565b6001600160a01b038316600090815260426020526040812060030154604480548693919061196890600190615432565b8154811061198657634e487b7160e01b600052603260045260246000fd5b600091825260209091200154604480546001600160a01b0390921692508291849081106119c357634e487b7160e01b600052603260045260246000fd5b600091825260208083209190910180546001600160a01b0319166001600160a01b0394851617905591831681526042909152604090206003018290556044805480611a1e57634e487b7160e01b600052603160045260246000fd5b600082815260208120820160001990810180546001600160a01b03191690559091019091556040516001600160a01b038816917f08617ff2b2e08e21be93ba4e04edc58f73671d33133725194bb67fddd33b1eb091a2505050505050565b6001546048546000916001600160a01b03918216911614611b19576048546040516370a0823160e01b81523060048201526001600160a01b03909116906370a082319060240160206040518083038186803b158015611ada57600080fd5b505afa158015611aee573d6000803e3d6000fd5b505050506040513d601f19601f82011682018060405250810190611b129190615214565b9050610f40565b6002546001546040516370a0823160e01b81523060048201526001600160a01b03909116906370a082319060240160206040518083038186803b158015611b5f57600080fd5b505afa158015611b73573d6000803e3d6000fd5b505050506040513d601f19601f82011682018060405250810190611b979190615214565b611ba19190615432565b905090565b611bae614235565b6001600160a01b0316611bc96000546001600160a01b031690565b6001600160a01b031614611c1f5760405162461bcd60e51b815260206004820181905260248201527f4f776e61626c653a2063616c6c6572206973206e6f7420746865206f776e65726044820152606401610996565b62ed4e00811115611c7e5760405162461bcd60e51b815260206004820152602360248201527f4c6f636b52756c65733a20696e76616c6964206c6f636b506572696f64496e5360448201526265637360e81b6064820152608401610996565b603a8190556040518181527f0a34a7f0967a1c454102f82743b9dcf955188e0a030905740e2c8a5b39910660906020015b60405180910390a150565b611cc2614235565b6001600160a01b0316611cdd6000546001600160a01b031690565b6001600160a01b031614611d335760405162461bcd60e51b815260206004820181905260248201527f4f776e61626c653a2063616c6c6572206973206e6f7420746865206f776e65726044820152606401610996565b62ed4e00811115611d925760405162461bcd60e51b815260206004820152602360248201527f4c6f636b52756c65733a20696e76616c6964206c6f636b506572696f64496e5360448201526265637360e81b6064820152608401610996565b60368190556040518181527f1bc5ec4d2816c06ea16ad9f0e99eb3c74517b041ed9d0a7103dd6f775cd66f7c90602001611caf565b600080805b6001600160a01b038516600090815260426020526040902054811015611ef0576001600160a01b0385166000818152604260205260408120805491929162fdd58e91889186908110611e2e57634e487b7160e01b600052603260045260246000fd5b6000918252602090912001546040517fffffffff0000000000000000000000000000000000000000000000000000000060e085901b1681526001600160a01b039092166004830152602482015260440160206040518083038186803b158015611e9657600080fd5b505afa158015611eaa573d6000803e3d6000fd5b505050506040513d601f19601f82011682018060405250810190611ece9190615214565b9050611eda81846153e7565b9250508080611ee890615475565b915050611dcc565b509392505050565b6036546000908190603782610eed614235565b611f13614235565b6001600160a01b0316611f2e6000546001600160a01b031690565b6001600160a01b031614611f845760405162461bcd60e51b815260206004820181905260248201527f4f776e61626c653a2063616c6c6572206973206e6f7420746865206f776e65726044820152606401610996565b60405162461bcd60e51b815260206004820152602860248201527f4552433230526577617264506f6f6c3a2063616e27742072656e6f756e63654f60448201527f776e6572736869700000000000000000000000000000000000000000000000006064820152608401610996565b6120346040518060e001604052806060815260200160001515815260200160008152602001600081526020016000815260200160008152602001600081525090565b816001600160a01b0381163b6120975760405162461bcd60e51b815260206004820152602260248201527f526571756972656d656e747352756c65733a206973206e6f7420636f6e74726160448201526118dd60f21b6064820152608401610996565b826120a1816112b6565b6121135760405162461bcd60e51b815260206004820152602e60248201527f526571756972656d656e747352756c65733a20636f6e7472616374206973206e60448201527f6f7420696e20746865206c6973740000000000000000000000000000000000006064820152608401610996565b6001600160a01b038416600090815260416020908152604091829020825181546101009381028201840190945260e08101848152909391928492849184018282801561217e57602002820191906000526020600020905b81548152602001906001019080831161216a575b5050509183525050600182015460ff1615156020820152600282015460408201526003820154606082015260048201546080820152600582015460a082015260069091015460c090910152949350505050565b6121d9614235565b6001600160a01b03166121f46000546001600160a01b031690565b6001600160a01b03161461224a5760405162461bcd60e51b815260206004820181905260248201527f4f776e61626c653a2063616c6c6572206973206e6f7420746865206f776e65726044820152606401610996565b61155d614768565b603a546000908190603b82610eed614235565b806001600160a01b0381163b6122c85760405162461bcd60e51b815260206004820152602260248201527f4552433230526577617264506f6f6c3a206973206e6f74206120636f6e74726160448201526118dd60f21b6064820152608401610996565b6122d0614235565b6001600160a01b03166122eb6000546001600160a01b031690565b6001600160a01b0316146123415760405162461bcd60e51b815260206004820152601a60248201527f4552433230526577617264506f6f6c3a206e6f742061646d696e0000000000006044820152606401610996565b816001600160a01b0381166123985760405162461bcd60e51b815260206004820152601d60248201527f4552433230526577617264506f6f6c3a207a65726f20616464726573730000006044820152606401610996565b6040516370a0823160e01b815230600482015283906001600160a01b038216906370a082319060240160206040518083038186803b1580156123d957600080fd5b505afa1580156123ed573d6000803e3d6000fd5b505050506040513d601f19601f820116820180604052508101906124119190615214565b6048546040516370a0823160e01b81523060048201526001600160a01b03909116906370a082319060240160206040518083038186803b15801561245457600080fd5b505afa158015612468573d6000803e3d6000fd5b505050506040513d601f19601f8201168201806040525081019061248c9190615214565b11156125005760405162461bcd60e51b815260206004820152602560248201527f4552433230526577617264506f6f6c3a20696e73756666696369656e7420626160448201527f6c616e63650000000000000000000000000000000000000000000000000000006064820152608401610996565b604880546001600160a01b0319166001600160a01b0392909216919091179055505050565b61252d614235565b6001600160a01b03166125486000546001600160a01b031690565b6001600160a01b03161461259e5760405162461bcd60e51b815260206004820181905260248201527f4f776e61626c653a2063616c6c6572206973206e6f7420746865206f776e65726044820152606401610996565b836001600160a01b0381163b6126015760405162461bcd60e51b815260206004820152602260248201527f526571756972656d656e747352756c65733a206973206e6f7420636f6e74726160448201526118dd60f21b6064820152608401610996565b600084511180156126125750600083115b801561261e5750600082115b801561262d5750603e54845111155b6126795760405162461bcd60e51b815260206004820152601e60248201527f526571756972656d656e7452756c65733a20696e76616c6964206c69737400006044820152606401610996565b6001600160a01b0385166000908152604260209081526040909120855187926126a6929190880190614efd565b506001600160a01b0381166000908152604260205260409020600181018590556002018390556126d581612b60565b6127c857604454603f54116127525760405162461bcd60e51b815260206004820152602a60248201527f526571756972656d656e747352756c65733a20636f6e7472616374734c696d6960448201527f74206578636565646564000000000000000000000000000000000000000000006064820152608401610996565b604480546001808201835560008390527f9b22d3d61959b4d3528b1d8ba932c96fbe302b36a1aad1d95cab54f9e0a135ea90910180546001600160a01b0319166001600160a01b03851617905590546127ab9190615432565b6001600160a01b0382166000908152604260205260409020600301555b856001600160a01b03167f586adb7578e979f45e368cc35f5a22d692757ded182824b2c42923c3600ecd69868686604051612805939291906152e2565b60405180910390a2505050505050565b61281d614235565b6001600160a01b03166128386000546001600160a01b031690565b6001600160a01b03161461288e5760405162461bcd60e51b815260206004820181905260248201527f4f776e61626c653a2063616c6c6572206973206e6f7420746865206f776e65726044820152606401610996565b866001600160a01b0381163b6128f15760405162461bcd60e51b815260206004820152602260248201527f526571756972656d656e747352756c65733a206973206e6f7420636f6e74726160448201526118dd60f21b6064820152608401610996565b60018615151480156129035750600085115b801561290f5750600084115b8061294b575085158015612924575060008751115b80156129305750600083115b801561293c5750600082115b801561294b5750603e54875111155b6129975760405162461bcd60e51b815260206004820152601e60248201527f526571756972656d656e7452756c65733a20696e76616c6964206c69737400006044820152606401610996565b86518890156129cb576001600160a01b038116600090815260416020908152604090912089516129c9928b0190614efd565b505b6001600160a01b038116600090815260416020526040902060028101879055600381018690556004810185905560058101849055600101805460ff1916881515179055612a17816112b6565b612b0a57604354603f5411612a945760405162461bcd60e51b815260206004820152602a60248201527f526571756972656d656e747352756c65733a20636f6e7472616374734c696d6960448201527f74206578636565646564000000000000000000000000000000000000000000006064820152608401610996565b604380546001808201835560008390527f9690ad99d6ce244efa8a0f6c2d04036d3b33a9474db32a71b71135c69510279390910180546001600160a01b0319166001600160a01b0385161790559054612aed9190615432565b6001600160a01b0382166000908152604160205260409020600601555b886001600160a01b03167fe41df969317a5283b930ab971b419d925fc5c58516b283b7bee55e29af3734fb898989898989604051612b4d969594939291906152a6565b60405180910390a2505050505050505050565b6044546000901580159061092f57506001600160a01b03821660008181526042602052604090206003015460448054909190811061130457634e487b7160e01b600052603260045260246000fd5b60026045541415612c015760405162461bcd60e51b815260206004820152601f60248201527f5265656e7472616e637947756172643a207265656e7472616e742063616c6c006044820152606401610996565b6002604555612c19604654600160a01b900460ff1690565b15612c595760405162461bcd60e51b815260206004820152601060248201526f14185d5cd8589b194e881c185d5cd95960821b6044820152606401610996565b612c61614235565b603c5415612cdd57603c546001600160a01b0382166000908152603d6020526040902054612c8f91906153e7565b4211612cdd5760405162461bcd60e51b815260206004820152601c60248201527f4c6f636b52756c65733a204465706f736974206d7573742077616974000000006044820152606401610996565b6001600160a01b0381166000908152603d60205260409020429055612d00614235565b8260036000612d0d614235565b6001600160a01b03166001600160a01b03168152602001908152602001600020546000612d3984610bfc565b90506000612d46856116ac565b90506000612d54838361423f565b90508015612db55780612d6785876153e7565b1115612db55760405162461bcd60e51b815260206004820152601d60248201527f526571756972656d656e747352756c65733a206d6178416c6c6f7765640000006044820152606401610996565b60008811612e055760405162461bcd60e51b815260206004820152601f60248201527f4552433230526577617264506f6f6c3a2043616e6e6f74207374616b652030006044820152606401610996565b60376000612e11614235565b6001600160a01b03168152602081019190915260400160002054612e57574260376000612e3c614235565b6001600160a01b031681526020810191909152604001600020555b42603d6000612e64614235565b6001600160a01b03166001600160a01b03168152602001908152602001600020819055506000604d546000148015612ea65750604a546001600160a01b031615155b15612f3457604a60009054906101000a90046001600160a01b03166001600160a01b0316630572b0cc6040518163ffffffff1660e01b815260040160206040518083038186803b158015612ef957600080fd5b505afa158015612f0d573d6000803e3d6000fd5b505050506040513d601f19601f82011682018060405250810190612f319190615214565b90505b612f3f6113d6614235565b612f4889614812565b612f536113f7614235565b6000604e6000612f61614235565b6001600160a01b03166001600160a01b031681526020019081526020016000205411612ff55760405162461bcd60e51b815260206004820152602960248201527f4552433230526577617264506f6f6c3a206e6f7420656e6f75676820636f6e7460448201527f7269627574696f6e7300000000000000000000000000000000000000000000006064820152608401610996565b801561305a5780604c6000613008614235565b6001600160a01b03166001600160a01b031681526020019081526020016000205461303391906153e7565b604c600061303f614235565b6001600160a01b031681526020810191909152604001600020555b613062614235565b6001600160a01b03167f9e71bc8eea02a63969f509818f2dafb9254532904319f9dbda79b67bd34a5f3d8a60405161309c91815260200190565b60405180910390a25050600160455550505050505050565b600080805b6001600160a01b038516600090815260416020526040902054811015611ef0576001600160a01b03851660008181526041602052604081208054919291636352211e91908590811061311b57634e487b7160e01b600052603260045260246000fd5b90600052602060002001546040518263ffffffff1660e01b815260040161314491815260200190565b60206040518083038186803b15801561315c57600080fd5b505afa158015613170573d6000803e3d6000fd5b505050506040513d601f19601f82011682018060405250810190613194919061500d565b9050846001600160a01b0316816001600160a01b031614156131bc576131b983615475565b92505b50806131c781615475565b9150506130b9565b816001600160a01b0381163b6132325760405162461bcd60e51b815260206004820152602260248201527f4552433230526577617264506f6f6c3a206973206e6f74206120636f6e74726160448201526118dd60f21b6064820152608401610996565b61323a614235565b6001600160a01b03166132556000546001600160a01b031690565b6001600160a01b0316146132ab5760405162461bcd60e51b815260206004820152601a60248201527f4552433230526577617264506f6f6c3a206e6f742061646d696e0000000000006044820152606401610996565b826001600160a01b0381166133025760405162461bcd60e51b815260206004820152601d60248201527f4552433230526577617264506f6f6c3a207a65726f20616464726573730000006044820152606401610996565b8215613310576133106148f0565b5050604a80546001600160a01b0319166001600160a01b03939093169290921790915550565b61155d6148f0565b806001600160a01b0381163b6133a15760405162461bcd60e51b815260206004820152602260248201527f4552433230526577617264506f6f6c3a206973206e6f74206120636f6e74726160448201526118dd60f21b6064820152608401610996565b6133a9614235565b6001600160a01b03166133c46000546001600160a01b031690565b6001600160a01b03161461341a5760405162461bcd60e51b815260206004820152601a60248201527f4552433230526577617264506f6f6c3a206e6f742061646d696e0000000000006044820152606401610996565b816001600160a01b0381166134715760405162461bcd60e51b815260206004820152601d60248201527f4552433230526577617264506f6f6c3a207a65726f20616464726573730000006044820152606401610996565b5050604980546001600160a01b0319166001600160a01b0392909216919091179055565b61349d614235565b6001600160a01b03166134b86000546001600160a01b031690565b6001600160a01b03161461350e5760405162461bcd60e51b815260206004820181905260248201527f4f776e61626c653a2063616c6c6572206973206e6f7420746865206f776e65726044820152606401610996565b6040805482825581518381526020810182905290917fe71352959b0ea69ae334d4403e7b41245e1f9e6270d8664f4d2ae2477447785891016116a0565b6000613555614102565b604754611ba191906153e7565b61356a614235565b6001600160a01b03166135856000546001600160a01b031690565b6001600160a01b0316146135db5760405162461bcd60e51b815260206004820181905260248201527f4f776e61626c653a2063616c6c6572206973206e6f7420746865206f776e65726044820152606401610996565b62ed4e0081111561363a5760405162461bcd60e51b815260206004820152602360248201527f4c6f636b52756c65733a20696e76616c6964206c6f636b506572696f64496e5360448201526265637360e81b6064820152608401610996565b603c8190556040518181527fd5a5a9291a89dfff7924900a31224aa9b6afed79f5124add369f4a807f40f59790602001611caf565b6136776148f0565b60005b818110156136f55760008383838181106136a457634e487b7160e01b600052603260045260246000fd5b90506020020160208101906136b99190614ff1565b90506001600160a01b0381166136cf57506136e3565b6136d88161498c565b6136e181614430565b505b806136ed81615475565b91505061367a565b505050565b806001600160a01b0381163b61375d5760405162461bcd60e51b815260206004820152602260248201527f4552433230526577617264506f6f6c3a206973206e6f74206120636f6e74726160448201526118dd60f21b6064820152608401610996565b613765614235565b6001600160a01b03166137806000546001600160a01b031690565b6001600160a01b0316146137d65760405162461bcd60e51b815260206004820152601a60248201527f4552433230526577617264506f6f6c3a206e6f742061646d696e0000000000006044820152606401610996565b50604680546001600160a01b0319166001600160a01b0392909216919091179055565b600080805b604354811015610ed35760008060006043848154811061382e57634e487b7160e01b600052603260045260246000fd5b60009182526020808320909101546001600160a01b03168083526041909152604090912060019081015491925060ff909116151514156138e8576040516370a0823160e01b81526001600160a01b0388811660048301528216906370a082319060240160206040518083038186803b1580156138a957600080fd5b505afa1580156138bd573d6000803e3d6000fd5b505050506040513d601f19601f820116820180604052508101906138e19190615214565b92506138f5565b6138f281886130b4565b91505b6001600160a01b03811660009081526041602052604090206005015461391b9083615413565b6001600160a01b0382166000908152604160205260409020600301546139419085615413565b61394b91906153e7565b61395590866153e7565b9450505050808061396590615475565b9150506137fe565b806001600160a01b0381166139c45760405162461bcd60e51b815260206004820152601d60248201527f4552433230526577617264506f6f6c3a207a65726f20616464726573730000006044820152606401610996565b6139cd82614295565b6139d682614430565b5050565b6139e2614235565b6001600160a01b03166139fd6000546001600160a01b031690565b6001600160a01b031614613a535760405162461bcd60e51b815260206004820181905260248201527f4f776e61626c653a2063616c6c6572206973206e6f7420746865206f776e65726044820152606401610996565b613a66604654600160a01b900460ff1690565b613ab25760405162461bcd60e51b815260206004820152601460248201527f5061757361626c653a206e6f74207061757365640000000000000000000000006044820152606401610996565b806001600160a01b038116613b095760405162461bcd60e51b815260206004820152601d60248201527f4552433230526577617264506f6f6c3a207a65726f20616464726573730000006044820152606401610996565b6001546048546000916001600160a01b0391821691161415613bb4576002546048546040516370a0823160e01b81523060048201526001600160a01b03909116906370a082319060240160206040518083038186803b158015613b6b57600080fd5b505afa158015613b7f573d6000803e3d6000fd5b505050506040513d601f19601f82011682018060405250810190613ba39190615214565b613bad9190615432565b9050613c32565b6048546040516370a0823160e01b81523060048201526001600160a01b03909116906370a082319060240160206040518083038186803b158015613bf757600080fd5b505afa158015613c0b573d6000803e3d6000fd5b505050506040513d601f19601f82011682018060405250810190613c2f9190615214565b90505b6048546136f5906001600160a01b031684836149e8565b60026045541415613c9c5760405162461bcd60e51b815260206004820152601f60248201527f5265656e7472616e637947756172643a207265656e7472616e742063616c6c006044820152606401610996565b6002604555613cb4604654600160a01b900460ff1690565b15613cf45760405162461bcd60e51b815260206004820152601060248201526f14185d5cd8589b194e881c185d5cd95960821b6044820152606401610996565b613cff6113d6614235565b613d3c613d0a614235565b60036000613d16614235565b6001600160a01b03166001600160a01b03168152602001908152602001600020546142a6565b613d476114c5614235565b613d526113f7614235565b613d5a614235565b6001600160a01b03167f7c79e6e24ed041d1072d54523b53956f01b91b835f0490856370594d9d14470e60405160405180910390a26001604555565b613d9e614235565b6001600160a01b0316613db96000546001600160a01b031690565b6001600160a01b031614613e0f5760405162461bcd60e51b815260206004820181905260248201527f4f776e61626c653a2063616c6c6572206973206e6f7420746865206f776e65726044820152606401610996565b6001600160a01b038116613e8b5760405162461bcd60e51b815260206004820152602660248201527f4f776e61626c653a206e6577206f776e657220697320746865207a65726f206160448201527f64647265737300000000000000000000000000000000000000000000000000006064820152608401610996565b613e9481614a91565b50565b613ec26040518060800160405280606081526020016000815260200160008152602001600081525090565b816001600160a01b0381163b613f255760405162461bcd60e51b815260206004820152602260248201527f526571756972656d656e747352756c65733a206973206e6f7420636f6e74726160448201526118dd60f21b6064820152608401610996565b82613f2f81612b60565b613fa15760405162461bcd60e51b815260206004820152602e60248201527f526571756972656d656e747352756c65733a20636f6e7472616374206973206e60448201527f6f7420696e20746865206c6973740000000000000000000000000000000000006064820152608401610996565b6001600160a01b0384166000908152604260209081526040918290208251815460a09381028201840190945260808101848152909391928492849184018282801561400b57602002820191906000526020600020905b815481526020019060010190808311613ff7575b50505050508152602001600182015481526020016002820154815260200160038201548152505092505050919050565b3b151590565b6046546000906001600160a01b03163314156140fb5760183610156140ce5760405162461bcd60e51b815260206004820152602260248201527f4552433237373148616e646c657256323a20496e76616c6964206d73672e646160448201527f74610000000000000000000000000000000000000000000000000000000000006064820152608401610996565b507fffffffffffffffffffffffffffffffffffffffffffffffffffffffffffffffec36013560601c610f40565b5033610f40565b604a546000906001600160a01b0316158061411d5750604d54155b1561412a57506000610f40565b604d54604a60009054906101000a90046001600160a01b03166001600160a01b0316630572b0cc6040518163ffffffff1660e01b815260040160206040518083038186803b15801561417b57600080fd5b505afa15801561418f573d6000803e3d6000fd5b505050506040513d601f19601f820116820180604052508101906141b39190615214565b6141c79069d3c21bcecceda1000000615413565b611ba191906153ff565b6001600160a01b0382166000908152604e6020908152604080832054604b90925282205460475469d3c21bcecceda100000092919061421090866153e7565b61421a9190615432565b6142249190615413565b61422e91906153ff565b9392505050565b6000611ba1614041565b6040546000908161425084866153e7565b111561428a5760405415614278576142718161426c85876153e7565b614ae1565b9050614285565b61428283856153e7565b90505b61422e565b506040549392505050565b61429d6148f0565b613e948161498c565b6142ae614235565b603a541561432a57603a546001600160a01b0382166000908152603b60205260409020546142dc91906153e7565b421161432a5760405162461bcd60e51b815260206004820152601d60248201527f4c6f636b52756c65733a205769746864726177206d75737420776169740000006044820152606401610996565b6001600160a01b0381166000908152603b60205260409020429055816143b85760405162461bcd60e51b815260206004820152602260248201527f4552433230526577617264506f6f6c3a2043616e6e6f7420776974686472617760448201527f20300000000000000000000000000000000000000000000000000000000000006064820152608401610996565b42603b60006143c5614235565b6001600160a01b031681526020810191909152604001600020556143e882614af7565b826001600160a01b03167f7084f5476618d8e60b11ef0d7d3f06914655adb8793e28ff7f018d4c76d505d58360405161442391815260200190565b60405180910390a2505050565b6001600160a01b0381166000908152604e6020526040902054604d54614457908290615432565b604d55600061446583614bd4565b905080604d5461447591906153e7565b604d556001600160a01b0383166000818152604e602090815260409182902084905581518481529081018590527f36c7c98dfe7e045d8de3e3a8ef7280d623eeb82e7ac5f92d4854297dd07813059101614423565b603654819015614548576036546001600160a01b0382166000908152603760205260409020546144fa91906153e7565b42116145485760405162461bcd60e51b815260206004820152601a60248201527f4c6f636b52756c65733a20436c61696d206d75737420776169740000000000006044820152606401610996565b6001600160a01b0380821660009081526037602090815260408083204290559285168252604c9052908120549081156146955760395460ff161515600114156146265761459d670de0b6b3a764000083615490565b90506145a98183615432565b91508160386000015411156146265760405162461bcd60e51b815260206004820152603c60248201527f4552433230526577617264506f6f6c3a2043616e6e6f7420776974686472617760448201527f202d206c6f636b436c61696d2e616d6f756e74203c20726577617264000000006064820152608401610996565b6001600160a01b038085166000908152604c60205260409020829055604854614651911685846149e8565b836001600160a01b03167fe2403640ba68fed3a2f88b7557551d1993f84b99bb10ff833f0cf8db0c5e04868360405161468c91815260200190565b60405180910390a25b50505050565b6146ae604654600160a01b900460ff1690565b6146fa5760405162461bcd60e51b815260206004820152601460248201527f5061757361626c653a206e6f74207061757365640000000000000000000000006044820152606401610996565b604680547fffffffffffffffffffffff00ffffffffffffffffffffffffffffffffffffffff1690557f5db9ee0a495bf2e6ff9c91a7834c1ba4fdd244a5e8aa4e537bd38aeae4b073aa61474b614235565b6040516001600160a01b03909116815260200160405180910390a1565b61477b604654600160a01b900460ff1690565b156147bb5760405162461bcd60e51b815260206004820152601060248201526f14185d5cd8589b194e881c185d5cd95960821b6044820152606401610996565b604680547fffffffffffffffffffffff00ffffffffffffffffffffffffffffffffffffffff16600160a01b1790557f62e78cea01bee320cd4e420270b5ea74000d11b0c9f74754ebdbfc544b05a25861474b614235565b600081116148625760405162461bcd60e51b815260206004820152601d60248201527f5374616b65546f6b656e577261707065723a20616d6f756e74203e20300000006044820152606401610996565b8060025461487091906153e7565b6002558060036000614880614235565b6001600160a01b03166001600160a01b03168152602001908152602001600020546148ab91906153e7565b600360006148b7614235565b6001600160a01b03168152602081019190915260400160002055613e946148dc614235565b6001546001600160a01b0316903084614cbc565b604a546001600160a01b03161561155d57614909614102565b60475461491691906153e7565b604755604a54604080517fb016584000000000000000000000000000000000000000000000000000000000815290516001600160a01b039092169163b01658409160048082019260009290919082900301818387803b15801561497857600080fd5b505af1158015614695573d6000803e3d6000fd5b6149978160006141d1565b6001600160a01b0382166000908152604c60205260409020546149ba91906153e7565b6001600160a01b039091166000908152604c6020908152604080832093909355604754604b90915291902055565b6040516001600160a01b0383166024820152604481018290526136f59084907fa9059cbb00000000000000000000000000000000000000000000000000000000906064015b60408051601f198184030181529190526020810180517bffffffffffffffffffffffffffffffffffffffffffffffffffffffff167fffffffff0000000000000000000000000000000000000000000000000000000090931692909217909152614d0d565b600080546001600160a01b038381166001600160a01b0319831681178455604051919092169283917f8be0079c531659141344cd1fd0a4f28419497f9722a3daafe3b4186f6b6457e09190a35050565b6000818310614af0578161422e565b5090919050565b60008111614b475760405162461bcd60e51b815260206004820152601d60248201527f5374616b65546f6b656e577261707065723a20616d6f756e74203e20300000006044820152606401610996565b80600254614b559190615432565b6002558060036000614b65614235565b6001600160a01b03166001600160a01b0316815260200190815260200160002054614b909190615432565b60036000614b9c614235565b6001600160a01b03168152602081019190915260400160002055613e94614bc1614235565b6001546001600160a01b031690836149e8565b6049546000906001600160a01b0316614c0657506001600160a01b038116600090815260036020526040902054610932565b6049546001600160a01b03838116600081815260036020526040908190205490517f3f6f66f500000000000000000000000000000000000000000000000000000000815260048101929092526024820152911690633f6f66f590604401602060405180830381600087803b158015614c7d57600080fd5b505af1158015614c91573d6000803e3d6000fd5b505050506040513d601f19601f82011682018060405250810190614cb59190615214565b9050610932565b6040516001600160a01b03808516602483015283166044820152606481018290526146959085907f23b872dd0000000000000000000000000000000000000000000000000000000090608401614a2d565b6000614d62826040518060400160405280602081526020017f5361666545524332303a206c6f772d6c6576656c2063616c6c206661696c6564815250856001600160a01b0316614df29092919063ffffffff16565b8051909150156136f55780806020019051810190614d8091906151b3565b6136f55760405162461bcd60e51b815260206004820152602a60248201527f5361666545524332303a204552433230206f7065726174696f6e20646964206e60448201527f6f742073756363656564000000000000000000000000000000000000000000006064820152608401610996565b6060610f68848460008585843b614e4b5760405162461bcd60e51b815260206004820152601d60248201527f416464726573733a2063616c6c20746f206e6f6e2d636f6e74726163740000006044820152606401610996565b600080866001600160a01b03168587604051614e67919061528a565b60006040518083038185875af1925050503d8060008114614ea4576040519150601f19603f3d011682016040523d82523d6000602084013e614ea9565b606091505b5091509150614eb9828286614ec4565b979650505050505050565b60608315614ed357508161422e565b825115614ee35782518084602001fd5b8160405162461bcd60e51b81526004016109969190615307565b828054828255906000526020600020908101928215614f38579160200282015b82811115614f38578251825591602001919060010190614f1d565b50610f3e9291505b80821115610f3e5760008155600101614f40565b600082601f830112614f64578081fd5b8135602067ffffffffffffffff80831115614f8157614f816154d0565b818302604051601f19603f83011681018181108482111715614fa557614fa56154d0565b60405284815283810192508684018288018501891015614fc3578687fd5b8692505b85831015614fe5578035845292840192600192909201918401614fc7565b50979650505050505050565b600060208284031215615002578081fd5b813561422e816154e6565b60006020828403121561501e578081fd5b815161422e816154e6565b600080600080600080600060e0888a031215615043578283fd5b873561504e816154e6565b9650602088013567ffffffffffffffff811115615069578384fd5b6150758a828b01614f54565b9650506040880135615086816154fb565b969995985095966060810135965060808101359560a0820135955060c0909101359350915050565b600080600080608085870312156150c3578384fd5b84356150ce816154e6565b9350602085013567ffffffffffffffff8111156150e9578384fd5b6150f587828801614f54565b949794965050505060408301359260600135919050565b6000806040838503121561511e578182fd5b8235615129816154e6565b91506020830135615139816154fb565b809150509250929050565b60008060208385031215615156578182fd5b823567ffffffffffffffff8082111561516d578384fd5b818501915085601f830112615180578384fd5b81358181111561518e578485fd5b86602080830285010111156151a1578485fd5b60209290920196919550909350505050565b6000602082840312156151c4578081fd5b815161422e816154fb565b600080604083850312156151e1578182fd5b82356151ec816154e6565b91506020830135615139816154e6565b60006020828403121561520d578081fd5b5035919050565b600060208284031215615225578081fd5b5051919050565b6000806040838503121561523e578182fd5b823591506020830135615139816154fb565b6000815180845260208085019450808401835b8381101561527f57815187529582019590820190600101615263565b509495945050505050565b6000825161529c818460208701615449565b9190910192915050565b600060c082526152b960c0830189615250565b96151560208301525060408101949094526060840192909252608083015260a090910152919050565b6000606082526152f56060830186615250565b60208301949094525060400152919050565b6000602082528251806020840152615326816040850160208701615449565b601f01601f19169190910160400192915050565b60006020825282516080602084015261535660a0840182615250565b90506020840151604084015260408401516060840152606084015160808401528091505092915050565b600060208252825160e0602084015261539d610100840182615250565b90506020840151151560408401526040840151606084015260608401516080840152608084015160a084015260a084015160c084015260c084015160e08401528091505092915050565b600082198211156153fa576153fa6154a4565b500190565b60008261540e5761540e6154ba565b500490565b600081600019048311821515161561542d5761542d6154a4565b500290565b600082821015615444576154446154a4565b500390565b60005b8381101561546457818101518382015260200161544c565b838111156146955750506000910152565b6000600019821415615489576154896154a4565b5060010190565b60008261549f5761549f6154ba565b500690565b634e487b7160e01b600052601160045260246000fd5b634e487b7160e01b600052601260045260246000fd5b634e487b7160e01b600052604160045260246000fd5b6001600160a01b0381168114613e9457600080fd5b8015158114613e9457600080fdfea2646970667358221220784cd0584701d2759d05fca41edaf55fbeec458498a978dae495ce7dba2e3dd764736f6c63430008020033",
  "devdoc": {
    "details": "The contract has two plugins that affect the behaviour: contributionCalculator and rewardCalculatorcontributionCalculator instead of using the stake directly the result of computeContribution is usedthis way some users can get an extra share of the rewardsrewardCalculator is used to manage the rate at which the rewards are distributed.This way we can build different types of pools by mixing in the plugins we want with this contract.default behaviour (address(0)) for contributionCalculator is to use the stacked amount as contribution.default behaviour (address(0)) for rewardCalculator is that no rewards are given",
    "kind": "dev",
    "methods": {
      "balanceOf(address)": {
        "params": {
          "account": "the address of the account"
        },
        "returns": {
          "_0": "balance of staked tokens"
        }
      },
      "computeContribution(address)": {
        "details": "if the user change his holdings (or any other parameter that affect the contribution calculation),he can the reward distribution to his favor. This function must be called by an external agent ASAP toupdate the contribution for the user. We understand the risk but the rewards are distributed slowly sothe user cannot affect the reward distribution heavily.",
        "params": {
          "account": "the address of the account"
        }
      },
      "computeContributionInBatch(address[])": {
        "details": "see: computeContribution",
        "params": {
          "accounts": "the addresses of the accounts to update"
        }
      },
      "contributionOf(address)": {
        "details": "this is the same than the balanceOf only if the contribution calculatoruses the staked amount as the contribution of the user which is the default behaviour",
        "params": {
          "account": "the address of the account"
        },
        "returns": {
          "_0": "contribution of the users"
        }
      },
      "earned(address)": {
        "params": {
          "account": "the address of the account"
        },
        "returns": {
          "_0": "the available earnings for the user"
        }
      },
      "getReward()": {
        "details": "the user can withdraw his stake independently from the rewards"
      },
      "getRewardsAvailable()": {
        "details": "this function can be called by a reward calculator to throw if a campaign doesn't haveenough rewards to start",
        "returns": {
          "_0": "the total amount of deposited rewards"
        }
      },
      "owner()": {
        "details": "Returns the address of the current owner."
      },
      "paused()": {
        "details": "Returns true if the contract is paused, and false otherwise."
      },
      "recoverFunds(address)": {
        "details": "this function must be called in an emergency situation only.Calling it is risky specially when rewardToken == stakeToken",
        "params": {
          "receiver": "address of the beneficiary of the recovered funds"
        }
      },
      "renounceOwnership()": {
        "details": "Leaves the contract without owner. It will not be possible to call `onlyOwner` functions anymore. Can only be called by the current owner. NOTE: Renouncing ownership will leave the contract without an owner, thereby removing any functionality that is only available to the owner."
      },
      "restartRewards()": {
        "details": "calling this function makes no difference. It is useful for testing and when the reward calculatoris changed."
      },
      "rewardPerToken()": {
        "details": "This value multiplied by the user contribution is the share of accumulated rewards for the user. Takinginto account the value of totalContributions.",
        "returns": {
          "_0": "the accumulated total rewards"
        }
      },
      "setRewardCalculator(address,bool)": {
        "params": {
          "contractAddress": "address of a plugin that calculates absolute rewards at any point in time",
          "restartRewards_": "if true the rewards from the previous calculator are accumulated before changing it"
        }
      },
      "setRewardToken(address)": {
        "params": {
          "contractAddress": "address token used to pay rewards"
        }
      },
      "setStakeToken(address)": {
        "params": {
          "contractAddress": "address token used to stake funds"
        }
      },
      "setTimelockClaim(uint256)": {
        "params": {
          "_lockPeriodInSecs": "amount of time the user must wait between reward withdrawal"
        }
      },
      "setTrustedForwarder(address)": {
        "params": {
          "trustedForwarder": "address of the contract that is enabled to send meta-tx on behalf of the user"
        }
      },
      "stake(uint256)": {
        "details": "the user must approve in the stake token before calling this function",
        "params": {
          "amount": "the amount of tokens to stake"
        }
      },
      "stakeToken()": {
        "returns": {
          "_0": "address of the stake token contract"
        }
      },
      "totalContributions()": {
        "details": "this is the same than the totalSupply only if the contribution calculatoruses the staked amount as the contribution of the user which is the default behaviour",
        "returns": {
          "_0": "total contributions of the users"
        }
      },
      "totalSupply()": {
        "returns": {
          "_0": "the total supply of staked tokens"
        }
      },
      "transferOwnership(address)": {
        "details": "Transfers ownership of the contract to a new account (`newOwner`). Can only be called by the current owner."
      },
      "withdraw(uint256)": {
        "details": "the user can withdraw his stake independently from the rewards",
        "params": {
          "amount": "the amount of tokens to withdraw"
        }
      }
    },
    "title": "A pool that distributes rewards between users that stake any erc20 token",
    "version": 1
  },
  "userdoc": {
    "kind": "user",
    "methods": {
      "balanceOf(address)": {
        "notice": "return the balance of staked tokens for a user"
      },
      "computeContribution(address)": {
        "notice": "update the contribution for a user"
      },
      "computeContributionInBatch(address[])": {
        "notice": "update the contribution for a sef of users"
      },
      "contributionOf(address)": {
        "notice": "return the contribution of some user"
      },
      "earned(address)": {
        "notice": "available earnings for some user"
      },
      "exit()": {
        "notice": "withdraw the stake and the rewards from the contract"
      },
      "getReward()": {
        "notice": "withdraw the rewards from the contract"
      },
      "getRewardsAvailable()": {
        "notice": "return the amount of rewards deposited in the contract that can be distributed by different campaigns"
      },
      "recoverFunds(address)": {
        "notice": "the admin recover is able to recover reward funds"
      },
      "restartRewards()": {
        "notice": "accumulates the current rewards into rewardPerTokenStored and restart the reward calculator"
      },
      "rewardPerToken()": {
        "notice": "accumulated rewards taking into account the totalContribution (see: rewardPerTokenStored)"
      },
      "setContributionRules(address)": {
        "notice": "set contract that contains all the contribution rules"
      },
      "setRewardCalculator(address,bool)": {
        "notice": "set the reward calculator"
      },
      "setRewardToken(address)": {
        "notice": "set the reward token"
      },
      "setStakeToken(address)": {
        "notice": "set the stake token"
      },
      "setTimelockClaim(uint256)": {
        "notice": "set the _lockPeriodInSecs for the anti-compound buffer"
      },
      "setTrustedForwarder(address)": {
        "notice": "set the trusted forwarder"
      },
      "stake(uint256)": {
        "notice": "stake some amount into the contract"
      },
      "stakeToken()": {
        "notice": "return the address of the stake token contract"
      },
      "totalContributions()": {
        "notice": "return the sum of the values returned by the contribution calculator"
      },
      "totalSupply()": {
        "notice": "return the total supply of staked tokens"
      },
      "withdraw(uint256)": {
        "notice": "withdraw the stake from the contract"
      }
    },
    "notice": "The contributions are updated passively, an external call to computeContribution from a backend is needed.After initialization the reward calculator must be set by the admin.",
    "version": 1
  },
  "storageLayout": {
    "storage": [
      {
        "astId": 389,
        "contract": "src/solc_0.8/defi/ERC20RewardPool.sol:ERC20RewardPool",
        "label": "_owner",
        "offset": 0,
        "slot": "0",
        "type": "t_address"
      },
      {
        "astId": 31751,
        "contract": "src/solc_0.8/defi/ERC20RewardPool.sol:ERC20RewardPool",
        "label": "_stakeToken",
        "offset": 0,
        "slot": "1",
        "type": "t_contract(IERC20)2550"
      },
      {
        "astId": 31753,
        "contract": "src/solc_0.8/defi/ERC20RewardPool.sol:ERC20RewardPool",
        "label": "_totalSupply",
        "offset": 0,
        "slot": "2",
        "type": "t_uint256"
      },
      {
        "astId": 31757,
        "contract": "src/solc_0.8/defi/ERC20RewardPool.sol:ERC20RewardPool",
        "label": "_balances",
        "offset": 0,
        "slot": "3",
        "type": "t_mapping(t_address,t_uint256)"
      },
      {
        "astId": 31864,
        "contract": "src/solc_0.8/defi/ERC20RewardPool.sol:ERC20RewardPool",
        "label": "__gap",
        "offset": 0,
        "slot": "4",
        "type": "t_array(t_uint256)50_storage"
      },
      {
        "astId": 34025,
        "contract": "src/solc_0.8/defi/ERC20RewardPool.sol:ERC20RewardPool",
        "label": "timeLockClaim",
        "offset": 0,
        "slot": "54",
        "type": "t_struct(TimeLockClaim)33985_storage"
      },
      {
        "astId": 34028,
        "contract": "src/solc_0.8/defi/ERC20RewardPool.sol:ERC20RewardPool",
        "label": "amountLockClaim",
        "offset": 0,
        "slot": "56",
        "type": "t_struct(AmountLockClaim)33990_storage"
      },
      {
        "astId": 34031,
        "contract": "src/solc_0.8/defi/ERC20RewardPool.sol:ERC20RewardPool",
        "label": "lockWithdraw",
        "offset": 0,
        "slot": "58",
        "type": "t_struct(TimeLockWithdraw)33997_storage"
      },
      {
        "astId": 34034,
        "contract": "src/solc_0.8/defi/ERC20RewardPool.sol:ERC20RewardPool",
        "label": "lockDeposit",
        "offset": 0,
        "slot": "60",
        "type": "t_struct(TimeLockDeposit)34004_storage"
      },
      {
        "astId": 34366,
        "contract": "src/solc_0.8/defi/ERC20RewardPool.sol:ERC20RewardPool",
        "label": "idsLimit",
        "offset": 0,
        "slot": "62",
        "type": "t_uint256"
      },
      {
        "astId": 34369,
        "contract": "src/solc_0.8/defi/ERC20RewardPool.sol:ERC20RewardPool",
        "label": "contractsLimit",
        "offset": 0,
        "slot": "63",
        "type": "t_uint256"
      },
      {
        "astId": 34371,
        "contract": "src/solc_0.8/defi/ERC20RewardPool.sol:ERC20RewardPool",
        "label": "maxStakeOverall",
        "offset": 0,
        "slot": "64",
        "type": "t_uint256"
      },
      {
        "astId": 34403,
        "contract": "src/solc_0.8/defi/ERC20RewardPool.sol:ERC20RewardPool",
        "label": "_listERC721",
        "offset": 0,
        "slot": "65",
        "type": "t_mapping(t_contract(IERC721)3782,t_struct(ERC721RequirementRule)34387_storage)"
      },
      {
        "astId": 34409,
        "contract": "src/solc_0.8/defi/ERC20RewardPool.sol:ERC20RewardPool",
        "label": "_listERC1155",
        "offset": 0,
        "slot": "66",
        "type": "t_mapping(t_contract(IERC1155)1836,t_struct(ERC1155RequirementRule)34397_storage)"
      },
      {
        "astId": 34413,
        "contract": "src/solc_0.8/defi/ERC20RewardPool.sol:ERC20RewardPool",
        "label": "_listERC721Index",
        "offset": 0,
        "slot": "67",
        "type": "t_array(t_contract(IERC721)3782)dyn_storage"
      },
      {
        "astId": 34417,
        "contract": "src/solc_0.8/defi/ERC20RewardPool.sol:ERC20RewardPool",
        "label": "_listERC1155Index",
        "offset": 0,
        "slot": "68",
        "type": "t_array(t_contract(IERC1155)1836)dyn_storage"
      },
      {
        "astId": 589,
        "contract": "src/solc_0.8/defi/ERC20RewardPool.sol:ERC20RewardPool",
        "label": "_status",
        "offset": 0,
        "slot": "69",
        "type": "t_uint256"
      },
      {
        "astId": 25221,
        "contract": "src/solc_0.8/defi/ERC20RewardPool.sol:ERC20RewardPool",
        "label": "_trustedForwarder",
        "offset": 0,
        "slot": "70",
        "type": "t_address"
      },
      {
        "astId": 504,
        "contract": "src/solc_0.8/defi/ERC20RewardPool.sol:ERC20RewardPool",
        "label": "_paused",
        "offset": 20,
        "slot": "70",
        "type": "t_bool"
      },
      {
        "astId": 29648,
        "contract": "src/solc_0.8/defi/ERC20RewardPool.sol:ERC20RewardPool",
        "label": "rewardPerTokenStored",
        "offset": 0,
        "slot": "71",
        "type": "t_uint256"
      },
      {
        "astId": 29651,
        "contract": "src/solc_0.8/defi/ERC20RewardPool.sol:ERC20RewardPool",
        "label": "rewardToken",
        "offset": 0,
        "slot": "72",
        "type": "t_contract(IERC20)2550"
      },
      {
        "astId": 29654,
        "contract": "src/solc_0.8/defi/ERC20RewardPool.sol:ERC20RewardPool",
        "label": "contributionRules",
        "offset": 0,
        "slot": "73",
        "type": "t_contract(IContributionRules)32171"
      },
      {
        "astId": 29657,
        "contract": "src/solc_0.8/defi/ERC20RewardPool.sol:ERC20RewardPool",
        "label": "rewardCalculator",
        "offset": 0,
        "slot": "74",
        "type": "t_contract(IRewardCalculator)32185"
      },
      {
        "astId": 29661,
        "contract": "src/solc_0.8/defi/ERC20RewardPool.sol:ERC20RewardPool",
        "label": "userRewardPerTokenPaid",
        "offset": 0,
        "slot": "75",
        "type": "t_mapping(t_address,t_uint256)"
      },
      {
        "astId": 29665,
        "contract": "src/solc_0.8/defi/ERC20RewardPool.sol:ERC20RewardPool",
        "label": "rewards",
        "offset": 0,
        "slot": "76",
        "type": "t_mapping(t_address,t_uint256)"
      },
      {
        "astId": 29667,
        "contract": "src/solc_0.8/defi/ERC20RewardPool.sol:ERC20RewardPool",
        "label": "_totalContributions",
        "offset": 0,
        "slot": "77",
        "type": "t_uint256"
      },
      {
        "astId": 29671,
        "contract": "src/solc_0.8/defi/ERC20RewardPool.sol:ERC20RewardPool",
        "label": "_contributions",
        "offset": 0,
        "slot": "78",
        "type": "t_mapping(t_address,t_uint256)"
      }
    ],
    "types": {
      "t_address": {
        "encoding": "inplace",
        "label": "address",
        "numberOfBytes": "20"
      },
      "t_array(t_contract(IERC1155)1836)dyn_storage": {
        "base": "t_contract(IERC1155)1836",
        "encoding": "dynamic_array",
        "label": "contract IERC1155[]",
        "numberOfBytes": "32"
      },
      "t_array(t_contract(IERC721)3782)dyn_storage": {
        "base": "t_contract(IERC721)3782",
        "encoding": "dynamic_array",
        "label": "contract IERC721[]",
        "numberOfBytes": "32"
      },
      "t_array(t_uint256)50_storage": {
        "base": "t_uint256",
        "encoding": "inplace",
        "label": "uint256[50]",
        "numberOfBytes": "1600"
      },
      "t_array(t_uint256)dyn_storage": {
        "base": "t_uint256",
        "encoding": "dynamic_array",
        "label": "uint256[]",
        "numberOfBytes": "32"
      },
      "t_bool": {
        "encoding": "inplace",
        "label": "bool",
        "numberOfBytes": "1"
      },
      "t_contract(IContributionRules)32171": {
        "encoding": "inplace",
        "label": "contract IContributionRules",
        "numberOfBytes": "20"
      },
      "t_contract(IERC1155)1836": {
        "encoding": "inplace",
        "label": "contract IERC1155",
        "numberOfBytes": "20"
      },
      "t_contract(IERC20)2550": {
        "encoding": "inplace",
        "label": "contract IERC20",
        "numberOfBytes": "20"
      },
      "t_contract(IERC721)3782": {
        "encoding": "inplace",
        "label": "contract IERC721",
        "numberOfBytes": "20"
      },
      "t_contract(IRewardCalculator)32185": {
        "encoding": "inplace",
        "label": "contract IRewardCalculator",
        "numberOfBytes": "20"
      },
      "t_mapping(t_address,t_uint256)": {
        "encoding": "mapping",
        "key": "t_address",
        "label": "mapping(address => uint256)",
        "numberOfBytes": "32",
        "value": "t_uint256"
      },
      "t_mapping(t_contract(IERC1155)1836,t_struct(ERC1155RequirementRule)34397_storage)": {
        "encoding": "mapping",
        "key": "t_contract(IERC1155)1836",
        "label": "mapping(contract IERC1155 => struct RequirementsRules.ERC1155RequirementRule)",
        "numberOfBytes": "32",
        "value": "t_struct(ERC1155RequirementRule)34397_storage"
      },
      "t_mapping(t_contract(IERC721)3782,t_struct(ERC721RequirementRule)34387_storage)": {
        "encoding": "mapping",
        "key": "t_contract(IERC721)3782",
        "label": "mapping(contract IERC721 => struct RequirementsRules.ERC721RequirementRule)",
        "numberOfBytes": "32",
        "value": "t_struct(ERC721RequirementRule)34387_storage"
      },
      "t_struct(AmountLockClaim)33990_storage": {
        "encoding": "inplace",
        "label": "struct LockRules.AmountLockClaim",
        "members": [
          {
            "astId": 33987,
            "contract": "src/solc_0.8/defi/ERC20RewardPool.sol:ERC20RewardPool",
            "label": "amount",
            "offset": 0,
            "slot": "0",
            "type": "t_uint256"
          },
          {
            "astId": 33989,
            "contract": "src/solc_0.8/defi/ERC20RewardPool.sol:ERC20RewardPool",
            "label": "claimLockEnabled",
            "offset": 0,
            "slot": "1",
            "type": "t_bool"
          }
        ],
        "numberOfBytes": "64"
      },
      "t_struct(ERC1155RequirementRule)34397_storage": {
        "encoding": "inplace",
        "label": "struct RequirementsRules.ERC1155RequirementRule",
        "members": [
          {
            "astId": 34390,
            "contract": "src/solc_0.8/defi/ERC20RewardPool.sol:ERC20RewardPool",
            "label": "ids",
            "offset": 0,
            "slot": "0",
            "type": "t_array(t_uint256)dyn_storage"
          },
          {
            "astId": 34392,
            "contract": "src/solc_0.8/defi/ERC20RewardPool.sol:ERC20RewardPool",
            "label": "minAmountId",
            "offset": 0,
            "slot": "1",
            "type": "t_uint256"
          },
          {
            "astId": 34394,
            "contract": "src/solc_0.8/defi/ERC20RewardPool.sol:ERC20RewardPool",
            "label": "maxAmountId",
            "offset": 0,
            "slot": "2",
            "type": "t_uint256"
          },
          {
            "astId": 34396,
            "contract": "src/solc_0.8/defi/ERC20RewardPool.sol:ERC20RewardPool",
            "label": "index",
            "offset": 0,
            "slot": "3",
            "type": "t_uint256"
          }
        ],
        "numberOfBytes": "128"
      },
      "t_struct(ERC721RequirementRule)34387_storage": {
        "encoding": "inplace",
        "label": "struct RequirementsRules.ERC721RequirementRule",
        "members": [
          {
            "astId": 34374,
            "contract": "src/solc_0.8/defi/ERC20RewardPool.sol:ERC20RewardPool",
            "label": "ids",
            "offset": 0,
            "slot": "0",
            "type": "t_array(t_uint256)dyn_storage"
          },
          {
            "astId": 34376,
            "contract": "src/solc_0.8/defi/ERC20RewardPool.sol:ERC20RewardPool",
            "label": "balanceOf",
            "offset": 0,
            "slot": "1",
            "type": "t_bool"
          },
          {
            "astId": 34378,
            "contract": "src/solc_0.8/defi/ERC20RewardPool.sol:ERC20RewardPool",
            "label": "minAmountBalanceOf",
            "offset": 0,
            "slot": "2",
            "type": "t_uint256"
          },
          {
            "astId": 34380,
            "contract": "src/solc_0.8/defi/ERC20RewardPool.sol:ERC20RewardPool",
            "label": "maxAmountBalanceOf",
            "offset": 0,
            "slot": "3",
            "type": "t_uint256"
          },
          {
            "astId": 34382,
            "contract": "src/solc_0.8/defi/ERC20RewardPool.sol:ERC20RewardPool",
            "label": "minAmountId",
            "offset": 0,
            "slot": "4",
            "type": "t_uint256"
          },
          {
            "astId": 34384,
            "contract": "src/solc_0.8/defi/ERC20RewardPool.sol:ERC20RewardPool",
            "label": "maxAmountId",
            "offset": 0,
            "slot": "5",
            "type": "t_uint256"
          },
          {
            "astId": 34386,
            "contract": "src/solc_0.8/defi/ERC20RewardPool.sol:ERC20RewardPool",
            "label": "index",
            "offset": 0,
            "slot": "6",
            "type": "t_uint256"
          }
        ],
        "numberOfBytes": "224"
      },
      "t_struct(TimeLockClaim)33985_storage": {
        "encoding": "inplace",
        "label": "struct LockRules.TimeLockClaim",
        "members": [
          {
            "astId": 33980,
            "contract": "src/solc_0.8/defi/ERC20RewardPool.sol:ERC20RewardPool",
            "label": "lockPeriodInSecs",
            "offset": 0,
            "slot": "0",
            "type": "t_uint256"
          },
          {
            "astId": 33984,
            "contract": "src/solc_0.8/defi/ERC20RewardPool.sol:ERC20RewardPool",
            "label": "lastClaim",
            "offset": 0,
            "slot": "1",
            "type": "t_mapping(t_address,t_uint256)"
          }
        ],
        "numberOfBytes": "64"
      },
      "t_struct(TimeLockDeposit)34004_storage": {
        "encoding": "inplace",
        "label": "struct LockRules.TimeLockDeposit",
        "members": [
          {
            "astId": 33999,
            "contract": "src/solc_0.8/defi/ERC20RewardPool.sol:ERC20RewardPool",
            "label": "lockPeriodInSecs",
            "offset": 0,
            "slot": "0",
            "type": "t_uint256"
          },
          {
            "astId": 34003,
            "contract": "src/solc_0.8/defi/ERC20RewardPool.sol:ERC20RewardPool",
            "label": "lastDeposit",
            "offset": 0,
            "slot": "1",
            "type": "t_mapping(t_address,t_uint256)"
          }
        ],
        "numberOfBytes": "64"
      },
      "t_struct(TimeLockWithdraw)33997_storage": {
        "encoding": "inplace",
        "label": "struct LockRules.TimeLockWithdraw",
        "members": [
          {
            "astId": 33992,
            "contract": "src/solc_0.8/defi/ERC20RewardPool.sol:ERC20RewardPool",
            "label": "lockPeriodInSecs",
            "offset": 0,
            "slot": "0",
            "type": "t_uint256"
          },
          {
            "astId": 33996,
            "contract": "src/solc_0.8/defi/ERC20RewardPool.sol:ERC20RewardPool",
            "label": "lastWithdraw",
            "offset": 0,
            "slot": "1",
            "type": "t_mapping(t_address,t_uint256)"
          }
        ],
        "numberOfBytes": "64"
      },
      "t_uint256": {
        "encoding": "inplace",
        "label": "uint256",
        "numberOfBytes": "32"
      }
    }
  }
}