{
  "address": "0x5727AAf268704C987177ca1c3197DEA3eae42368",
  "abi": [
    {
      "anonymous": false,
      "inputs": [
        {
          "indexed": true,
          "internalType": "address",
          "name": "owner",
          "type": "address"
        },
        {
          "indexed": true,
          "internalType": "address",
          "name": "approved",
          "type": "address"
        },
        {
          "indexed": true,
          "internalType": "uint256",
          "name": "tokenId",
          "type": "uint256"
        }
      ],
      "name": "Approval",
      "type": "event"
    },
    {
      "anonymous": false,
      "inputs": [
        {
          "indexed": true,
          "internalType": "address",
          "name": "owner",
          "type": "address"
        },
        {
          "indexed": true,
          "internalType": "address",
          "name": "operator",
          "type": "address"
        },
        {
          "indexed": false,
          "internalType": "bool",
          "name": "approved",
          "type": "bool"
        }
      ],
      "name": "ApprovalForAll",
      "type": "event"
    },
    {
      "anonymous": false,
      "inputs": [
        {
          "indexed": true,
          "internalType": "address",
          "name": "operator",
          "type": "address"
        },
        {
          "indexed": false,
          "internalType": "string",
          "name": "oldURI",
          "type": "string"
        },
        {
          "indexed": false,
          "internalType": "string",
          "name": "newURI",
          "type": "string"
        }
      ],
      "name": "EstateBaseUrlChanged",
      "type": "event"
    },
    {
      "anonymous": false,
      "inputs": [
        {
          "indexed": true,
          "internalType": "uint256",
          "name": "estateId",
          "type": "uint256"
        },
        {
          "indexed": false,
          "internalType": "address",
          "name": "operator",
          "type": "address"
        },
        {
          "indexed": false,
          "internalType": "address",
          "name": "from",
          "type": "address"
        },
        {
          "components": [
            {
              "components": [
                {
                  "internalType": "uint256[3]",
                  "name": "data",
                  "type": "uint256[3]"
                }
              ],
              "internalType": "struct TileLib.Tile",
              "name": "tile",
              "type": "tuple"
            }
          ],
          "indexed": false,
          "internalType": "struct TileWithCoordLib.TileWithCoord[]",
          "name": "lands",
          "type": "tuple[]"
        }
      ],
      "name": "EstateBridgeBurned",
      "type": "event"
    },
    {
      "anonymous": false,
      "inputs": [
        {
          "indexed": true,
          "internalType": "uint256",
          "name": "estateId",
          "type": "uint256"
        },
        {
          "indexed": false,
          "internalType": "address",
          "name": "operator",
          "type": "address"
        },
        {
          "indexed": false,
          "internalType": "address",
          "name": "to",
          "type": "address"
        },
        {
          "components": [
            {
              "components": [
                {
                  "internalType": "uint256[3]",
                  "name": "data",
                  "type": "uint256[3]"
                }
              ],
              "internalType": "struct TileLib.Tile",
              "name": "tile",
              "type": "tuple"
            }
          ],
          "indexed": false,
          "internalType": "struct TileWithCoordLib.TileWithCoord[]",
          "name": "lands",
          "type": "tuple[]"
        }
      ],
      "name": "EstateBridgeMinted",
      "type": "event"
    },
    {
      "anonymous": false,
      "inputs": [
        {
          "indexed": true,
          "internalType": "address",
          "name": "operator",
          "type": "address"
        },
        {
          "indexed": false,
          "internalType": "address",
          "name": "oldAddress",
          "type": "address"
        },
        {
          "indexed": false,
          "internalType": "address",
          "name": "newAddress",
          "type": "address"
        }
      ],
      "name": "EstateLandTokenChanged",
      "type": "event"
    },
    {
      "anonymous": false,
      "inputs": [
        {
          "indexed": true,
          "internalType": "address",
          "name": "operator",
          "type": "address"
        },
        {
          "indexed": false,
          "internalType": "contract IEstateExperienceRegistry",
          "name": "oldRegistry",
          "type": "address"
        },
        {
          "indexed": false,
          "internalType": "contract IEstateExperienceRegistry",
          "name": "newRegistry",
          "type": "address"
        }
      ],
      "name": "EstateRegistryChanged",
      "type": "event"
    },
    {
      "anonymous": false,
      "inputs": [
        {
          "indexed": true,
          "internalType": "uint256",
          "name": "estateId",
          "type": "uint256"
        },
        {
          "indexed": false,
          "internalType": "address",
          "name": "from",
          "type": "address"
        }
      ],
      "name": "EstateTokenBurned",
      "type": "event"
    },
    {
      "anonymous": false,
      "inputs": [
        {
          "indexed": true,
          "internalType": "uint256",
          "name": "estateId",
          "type": "uint256"
        },
        {
          "indexed": false,
          "internalType": "address",
          "name": "user",
          "type": "address"
        },
        {
          "components": [
            {
              "components": [
                {
                  "internalType": "uint256[3]",
                  "name": "data",
                  "type": "uint256[3]"
                }
              ],
              "internalType": "struct TileLib.Tile",
              "name": "tile",
              "type": "tuple"
            }
          ],
          "indexed": false,
          "internalType": "struct TileWithCoordLib.TileWithCoord[]",
          "name": "lands",
          "type": "tuple[]"
        }
      ],
      "name": "EstateTokenCreated",
      "type": "event"
    },
    {
      "anonymous": false,
      "inputs": [
        {
          "indexed": true,
          "internalType": "uint256",
          "name": "estateId",
          "type": "uint256"
        },
        {
          "indexed": true,
          "internalType": "uint256",
          "name": "newId",
          "type": "uint256"
        },
        {
          "indexed": false,
          "internalType": "address",
          "name": "user",
          "type": "address"
        },
        {
          "components": [
            {
              "components": [
                {
                  "internalType": "uint256[3]",
                  "name": "data",
                  "type": "uint256[3]"
                }
              ],
              "internalType": "struct TileLib.Tile",
              "name": "tile",
              "type": "tuple"
            }
          ],
          "indexed": false,
          "internalType": "struct TileWithCoordLib.TileWithCoord[]",
          "name": "lands",
          "type": "tuple[]"
        }
      ],
      "name": "EstateTokenLandsAdded",
      "type": "event"
    },
    {
      "anonymous": false,
      "inputs": [
        {
          "indexed": true,
          "internalType": "uint256",
          "name": "oldId",
          "type": "uint256"
        },
        {
          "indexed": true,
          "internalType": "uint256",
          "name": "newId",
          "type": "uint256"
        },
        {
          "indexed": false,
          "internalType": "address",
          "name": "user",
          "type": "address"
        },
        {
          "components": [
            {
              "components": [
                {
                  "internalType": "uint256[3]",
                  "name": "data",
                  "type": "uint256[3]"
                }
              ],
              "internalType": "struct TileLib.Tile",
              "name": "tile",
              "type": "tuple"
            }
          ],
          "indexed": false,
          "internalType": "struct TileWithCoordLib.TileWithCoord[]",
          "name": "lands",
          "type": "tuple[]"
        }
      ],
      "name": "EstateTokenUpdated",
      "type": "event"
    },
    {
      "anonymous": false,
      "inputs": [
        {
          "indexed": true,
          "internalType": "bytes32",
          "name": "role",
          "type": "bytes32"
        },
        {
          "indexed": true,
          "internalType": "bytes32",
          "name": "previousAdminRole",
          "type": "bytes32"
        },
        {
          "indexed": true,
          "internalType": "bytes32",
          "name": "newAdminRole",
          "type": "bytes32"
        }
      ],
      "name": "RoleAdminChanged",
      "type": "event"
    },
    {
      "anonymous": false,
      "inputs": [
        {
          "indexed": true,
          "internalType": "bytes32",
          "name": "role",
          "type": "bytes32"
        },
        {
          "indexed": true,
          "internalType": "address",
          "name": "account",
          "type": "address"
        },
        {
          "indexed": true,
          "internalType": "address",
          "name": "sender",
          "type": "address"
        }
      ],
      "name": "RoleGranted",
      "type": "event"
    },
    {
      "anonymous": false,
      "inputs": [
        {
          "indexed": true,
          "internalType": "bytes32",
          "name": "role",
          "type": "bytes32"
        },
        {
          "indexed": true,
          "internalType": "address",
          "name": "account",
          "type": "address"
        },
        {
          "indexed": true,
          "internalType": "address",
          "name": "sender",
          "type": "address"
        }
      ],
      "name": "RoleRevoked",
      "type": "event"
    },
    {
      "anonymous": false,
      "inputs": [
        {
          "indexed": true,
          "internalType": "address",
          "name": "from",
          "type": "address"
        },
        {
          "indexed": true,
          "internalType": "address",
          "name": "to",
          "type": "address"
        },
        {
          "indexed": true,
          "internalType": "uint256",
          "name": "tokenId",
          "type": "uint256"
        }
      ],
      "name": "Transfer",
      "type": "event"
    },
    {
      "inputs": [],
      "name": "ADMIN_ROLE",
      "outputs": [
        {
          "internalType": "bytes32",
          "name": "",
          "type": "bytes32"
        }
      ],
      "stateMutability": "view",
      "type": "function"
    },
    {
      "inputs": [],
      "name": "BURNER_ROLE",
      "outputs": [
        {
          "internalType": "bytes32",
          "name": "",
          "type": "bytes32"
        }
      ],
      "stateMutability": "view",
      "type": "function"
    },
    {
      "inputs": [],
      "name": "DEFAULT_ADMIN_ROLE",
      "outputs": [
        {
          "internalType": "bytes32",
          "name": "",
          "type": "bytes32"
        }
      ],
      "stateMutability": "view",
      "type": "function"
    },
    {
      "inputs": [],
      "name": "MINTER_ROLE",
      "outputs": [
        {
          "internalType": "bytes32",
          "name": "",
          "type": "bytes32"
        }
      ],
      "stateMutability": "view",
      "type": "function"
    },
    {
      "inputs": [
        {
          "internalType": "uint256",
          "name": "oldId",
          "type": "uint256"
        },
        {
          "internalType": "uint256[][3]",
          "name": "landToAdd",
          "type": "uint256[][3]"
        }
      ],
      "name": "addLand",
      "outputs": [
        {
          "internalType": "uint256",
          "name": "",
          "type": "uint256"
        }
      ],
      "stateMutability": "nonpayable",
      "type": "function"
    },
    {
      "inputs": [
        {
          "internalType": "address",
          "name": "to",
          "type": "address"
        },
        {
          "internalType": "uint256",
          "name": "tokenId",
          "type": "uint256"
        }
      ],
      "name": "approve",
      "outputs": [],
      "stateMutability": "nonpayable",
      "type": "function"
    },
    {
      "inputs": [
        {
          "internalType": "address",
          "name": "owner",
          "type": "address"
        }
      ],
      "name": "balanceOf",
      "outputs": [
        {
          "internalType": "uint256",
          "name": "",
          "type": "uint256"
        }
      ],
      "stateMutability": "view",
      "type": "function"
    },
    {
      "inputs": [
        {
          "internalType": "uint256",
          "name": "estateId",
          "type": "uint256"
        },
        {
          "internalType": "uint256[]",
          "name": "expToUnlink",
          "type": "uint256[]"
        },
        {
          "internalType": "uint256[][3]",
          "name": "landToRemove",
          "type": "uint256[][3]"
        }
      ],
      "name": "burn",
      "outputs": [],
      "stateMutability": "nonpayable",
      "type": "function"
    },
    {
      "inputs": [
        {
          "internalType": "address",
          "name": "from",
          "type": "address"
        },
        {
          "internalType": "uint256",
          "name": "estateId",
          "type": "uint256"
        }
      ],
      "name": "burnEstate",
      "outputs": [
        {
          "components": [
            {
              "components": [
                {
                  "internalType": "uint256[3]",
                  "name": "data",
                  "type": "uint256[3]"
                }
              ],
              "internalType": "struct TileLib.Tile",
              "name": "tile",
              "type": "tuple"
            }
          ],
          "internalType": "struct TileWithCoordLib.TileWithCoord[]",
          "name": "tiles",
          "type": "tuple[]"
        }
      ],
      "stateMutability": "nonpayable",
      "type": "function"
    },
    {
      "inputs": [
        {
          "internalType": "uint256",
          "name": "estateId",
          "type": "uint256"
        },
        {
          "components": [
            {
              "components": [
                {
                  "components": [
                    {
                      "internalType": "uint256[3]",
                      "name": "data",
                      "type": "uint256[3]"
                    }
                  ],
                  "internalType": "struct TileLib.Tile",
                  "name": "tile",
                  "type": "tuple"
                }
              ],
              "internalType": "struct TileWithCoordLib.TileWithCoord",
              "name": "topLeft",
              "type": "tuple"
            },
            {
              "components": [
                {
                  "components": [
                    {
                      "internalType": "uint256[3]",
                      "name": "data",
                      "type": "uint256[3]"
                    }
                  ],
                  "internalType": "struct TileLib.Tile",
                  "name": "tile",
                  "type": "tuple"
                }
              ],
              "internalType": "struct TileWithCoordLib.TileWithCoord",
              "name": "topRight",
              "type": "tuple"
            },
            {
              "components": [
                {
                  "components": [
                    {
                      "internalType": "uint256[3]",
                      "name": "data",
                      "type": "uint256[3]"
                    }
                  ],
                  "internalType": "struct TileLib.Tile",
                  "name": "tile",
                  "type": "tuple"
                }
              ],
              "internalType": "struct TileWithCoordLib.TileWithCoord",
              "name": "bottomLeft",
              "type": "tuple"
            },
            {
              "components": [
                {
                  "components": [
                    {
                      "internalType": "uint256[3]",
                      "name": "data",
                      "type": "uint256[3]"
                    }
                  ],
                  "internalType": "struct TileLib.Tile",
                  "name": "tile",
                  "type": "tuple"
                }
              ],
              "internalType": "struct TileWithCoordLib.TileWithCoord",
              "name": "bottomRight",
              "type": "tuple"
            }
          ],
          "internalType": "struct MapLib.TranslateResult",
          "name": "s",
          "type": "tuple"
        }
      ],
      "name": "contain",
      "outputs": [
        {
          "internalType": "bool",
          "name": "",
          "type": "bool"
        }
      ],
      "stateMutability": "view",
      "type": "function"
    },
    {
      "inputs": [],
      "name": "contractURI",
      "outputs": [
        {
          "internalType": "string",
          "name": "",
          "type": "string"
        }
      ],
      "stateMutability": "view",
      "type": "function"
    },
    {
      "inputs": [
        {
          "internalType": "uint256[][3]",
          "name": "landToAdd",
          "type": "uint256[][3]"
        }
      ],
      "name": "create",
      "outputs": [
        {
          "internalType": "uint256",
          "name": "estateId",
          "type": "uint256"
        }
      ],
      "stateMutability": "nonpayable",
      "type": "function"
    },
    {
      "inputs": [],
      "name": "decimals",
      "outputs": [
        {
          "internalType": "uint8",
          "name": "",
          "type": "uint8"
        }
      ],
      "stateMutability": "pure",
      "type": "function"
    },
    {
      "inputs": [
        {
          "internalType": "uint256",
          "name": "tokenId",
          "type": "uint256"
        }
      ],
      "name": "exists",
      "outputs": [
        {
          "internalType": "bool",
          "name": "",
          "type": "bool"
        }
      ],
      "stateMutability": "view",
      "type": "function"
    },
    {
      "inputs": [
        {
          "internalType": "uint256",
          "name": "tokenId",
          "type": "uint256"
        }
      ],
      "name": "getApproved",
      "outputs": [
        {
          "internalType": "address",
          "name": "",
          "type": "address"
        }
      ],
      "stateMutability": "view",
      "type": "function"
    },
    {
      "inputs": [],
      "name": "getChainIndex",
      "outputs": [
        {
          "internalType": "uint256",
          "name": "",
          "type": "uint256"
        }
      ],
      "stateMutability": "view",
      "type": "function"
    },
    {
      "inputs": [
        {
          "internalType": "uint256",
          "name": "estateId",
          "type": "uint256"
        },
        {
          "internalType": "uint256",
          "name": "offset",
          "type": "uint256"
        },
        {
          "internalType": "uint256",
          "name": "limit",
          "type": "uint256"
        }
      ],
      "name": "getLandAt",
      "outputs": [
        {
          "components": [
            {
              "components": [
                {
                  "internalType": "uint256[3]",
                  "name": "data",
                  "type": "uint256[3]"
                }
              ],
              "internalType": "struct TileLib.Tile",
              "name": "tile",
              "type": "tuple"
            }
          ],
          "internalType": "struct TileWithCoordLib.TileWithCoord[]",
          "name": "",
          "type": "tuple[]"
        }
      ],
      "stateMutability": "view",
      "type": "function"
    },
    {
      "inputs": [
        {
          "internalType": "uint256",
          "name": "estateId",
          "type": "uint256"
        }
      ],
      "name": "getLandCount",
      "outputs": [
        {
          "internalType": "uint256",
          "name": "",
          "type": "uint256"
        }
      ],
      "stateMutability": "view",
      "type": "function"
    },
    {
      "inputs": [
        {
          "internalType": "uint256",
          "name": "estateId",
          "type": "uint256"
        }
      ],
      "name": "getLandLength",
      "outputs": [
        {
          "internalType": "uint256",
          "name": "",
          "type": "uint256"
        }
      ],
      "stateMutability": "view",
      "type": "function"
    },
    {
      "inputs": [],
      "name": "getLandToken",
      "outputs": [
        {
          "internalType": "address",
          "name": "",
          "type": "address"
        }
      ],
      "stateMutability": "view",
      "type": "function"
    },
    {
      "inputs": [],
      "name": "getNextId",
      "outputs": [
        {
          "internalType": "uint256",
          "name": "",
          "type": "uint256"
        }
      ],
      "stateMutability": "view",
      "type": "function"
    },
    {
      "inputs": [
        {
          "internalType": "uint256",
          "name": "storageId",
          "type": "uint256"
        }
      ],
      "name": "getOwnerOfStorage",
      "outputs": [
        {
          "internalType": "address",
          "name": "",
          "type": "address"
        }
      ],
      "stateMutability": "view",
      "type": "function"
    },
    {
      "inputs": [],
      "name": "getRegistry",
      "outputs": [
        {
          "internalType": "contract IEstateExperienceRegistry",
          "name": "",
          "type": "address"
        }
      ],
      "stateMutability": "view",
      "type": "function"
    },
    {
      "inputs": [
        {
          "internalType": "bytes32",
          "name": "role",
          "type": "bytes32"
        }
      ],
      "name": "getRoleAdmin",
      "outputs": [
        {
          "internalType": "bytes32",
          "name": "",
          "type": "bytes32"
        }
      ],
      "stateMutability": "view",
      "type": "function"
    },
    {
      "inputs": [
        {
          "internalType": "uint256",
          "name": "estateId",
          "type": "uint256"
        }
      ],
      "name": "getStorageId",
      "outputs": [
        {
          "internalType": "uint256",
          "name": "",
          "type": "uint256"
        }
      ],
      "stateMutability": "pure",
      "type": "function"
    },
    {
      "inputs": [
        {
          "internalType": "bytes32",
          "name": "role",
          "type": "bytes32"
        },
        {
          "internalType": "address",
          "name": "account",
          "type": "address"
        }
      ],
      "name": "grantRole",
      "outputs": [],
      "stateMutability": "nonpayable",
      "type": "function"
    },
    {
      "inputs": [
        {
          "internalType": "bytes32",
          "name": "role",
          "type": "bytes32"
        },
        {
          "internalType": "address",
          "name": "account",
          "type": "address"
        }
      ],
      "name": "hasRole",
      "outputs": [
        {
          "internalType": "bool",
          "name": "",
          "type": "bool"
        }
      ],
      "stateMutability": "view",
      "type": "function"
    },
    {
      "inputs": [
        {
          "internalType": "address",
          "name": "trustedForwarder",
          "type": "address"
        },
        {
          "internalType": "address",
          "name": "admin",
          "type": "address"
        },
        {
          "internalType": "address",
          "name": "landToken_",
          "type": "address"
        },
        {
          "internalType": "uint16",
          "name": "chainIndex_",
          "type": "uint16"
        },
        {
          "internalType": "string",
          "name": "name_",
          "type": "string"
        },
        {
          "internalType": "string",
          "name": "symbol_",
          "type": "string"
        }
      ],
      "name": "initV1",
      "outputs": [],
      "stateMutability": "nonpayable",
      "type": "function"
    },
    {
      "inputs": [
        {
          "internalType": "address",
          "name": "owner",
          "type": "address"
        },
        {
          "internalType": "address",
          "name": "operator",
          "type": "address"
        }
      ],
      "name": "isApprovedForAll",
      "outputs": [
        {
          "internalType": "bool",
          "name": "",
          "type": "bool"
        }
      ],
      "stateMutability": "view",
      "type": "function"
    },
    {
      "inputs": [
        {
          "internalType": "address",
          "name": "forwarder",
          "type": "address"
        }
      ],
      "name": "isTrustedForwarder",
      "outputs": [
        {
          "internalType": "bool",
          "name": "",
          "type": "bool"
        }
      ],
      "stateMutability": "view",
      "type": "function"
    },
    {
      "inputs": [
        {
          "internalType": "address",
          "name": "to",
          "type": "address"
        },
        {
          "components": [
            {
              "components": [
                {
                  "internalType": "uint256[3]",
                  "name": "data",
                  "type": "uint256[3]"
                }
              ],
              "internalType": "struct TileLib.Tile",
              "name": "tile",
              "type": "tuple"
            }
          ],
          "internalType": "struct TileWithCoordLib.TileWithCoord[]",
          "name": "tiles",
          "type": "tuple[]"
        }
      ],
      "name": "mintEstate",
      "outputs": [
        {
          "internalType": "uint256",
          "name": "",
          "type": "uint256"
        }
      ],
      "stateMutability": "nonpayable",
      "type": "function"
    },
    {
      "inputs": [],
      "name": "name",
      "outputs": [
        {
          "internalType": "string",
          "name": "",
          "type": "string"
        }
      ],
      "stateMutability": "view",
      "type": "function"
    },
    {
      "inputs": [
        {
          "internalType": "address",
          "name": "",
          "type": "address"
        },
        {
          "internalType": "address",
          "name": "",
          "type": "address"
        },
        {
          "internalType": "uint256[]",
          "name": "",
          "type": "uint256[]"
        },
        {
          "internalType": "bytes",
          "name": "",
          "type": "bytes"
        }
      ],
      "name": "onERC721BatchReceived",
      "outputs": [
        {
          "internalType": "bytes4",
          "name": "",
          "type": "bytes4"
        }
      ],
      "stateMutability": "view",
      "type": "function"
    },
    {
      "inputs": [
        {
          "internalType": "address",
          "name": "",
          "type": "address"
        },
        {
          "internalType": "address",
          "name": "",
          "type": "address"
        },
        {
          "internalType": "uint256",
          "name": "",
          "type": "uint256"
        },
        {
          "internalType": "bytes",
          "name": "",
          "type": "bytes"
        }
      ],
      "name": "onERC721Received",
      "outputs": [
        {
          "internalType": "bytes4",
          "name": "",
          "type": "bytes4"
        }
      ],
      "stateMutability": "view",
      "type": "function"
    },
    {
      "inputs": [
        {
          "internalType": "uint256",
          "name": "tokenId",
          "type": "uint256"
        }
      ],
      "name": "ownerOf",
      "outputs": [
        {
          "internalType": "address",
          "name": "",
          "type": "address"
        }
      ],
      "stateMutability": "view",
      "type": "function"
    },
    {
      "inputs": [
        {
          "internalType": "bytes32",
          "name": "role",
          "type": "bytes32"
        },
        {
          "internalType": "address",
          "name": "account",
          "type": "address"
        }
      ],
      "name": "renounceRole",
      "outputs": [],
      "stateMutability": "nonpayable",
      "type": "function"
    },
    {
      "inputs": [
        {
          "internalType": "bytes32",
          "name": "role",
          "type": "bytes32"
        },
        {
          "internalType": "address",
          "name": "account",
          "type": "address"
        }
      ],
      "name": "revokeRole",
      "outputs": [],
      "stateMutability": "nonpayable",
      "type": "function"
    },
    {
      "inputs": [
        {
          "internalType": "address",
          "name": "from",
          "type": "address"
        },
        {
          "internalType": "address",
          "name": "to",
          "type": "address"
        },
        {
          "internalType": "uint256",
          "name": "tokenId",
          "type": "uint256"
        }
      ],
      "name": "safeTransferFrom",
      "outputs": [],
      "stateMutability": "nonpayable",
      "type": "function"
    },
    {
      "inputs": [
        {
          "internalType": "address",
          "name": "from",
          "type": "address"
        },
        {
          "internalType": "address",
          "name": "to",
          "type": "address"
        },
        {
          "internalType": "uint256",
          "name": "tokenId",
          "type": "uint256"
        },
        {
          "internalType": "bytes",
          "name": "_data",
          "type": "bytes"
        }
      ],
      "name": "safeTransferFrom",
      "outputs": [],
      "stateMutability": "nonpayable",
      "type": "function"
    },
    {
      "inputs": [
        {
          "internalType": "address",
          "name": "operator",
          "type": "address"
        },
        {
          "internalType": "bool",
          "name": "approved",
          "type": "bool"
        }
      ],
      "name": "setApprovalForAll",
      "outputs": [],
      "stateMutability": "nonpayable",
      "type": "function"
    },
    {
      "inputs": [
        {
          "internalType": "string",
          "name": "baseUri",
          "type": "string"
        }
      ],
      "name": "setBaseURI",
      "outputs": [],
      "stateMutability": "nonpayable",
      "type": "function"
    },
    {
      "inputs": [
        {
          "internalType": "address",
          "name": "landToken",
          "type": "address"
        }
      ],
      "name": "setLandToken",
      "outputs": [],
      "stateMutability": "nonpayable",
      "type": "function"
    },
    {
      "inputs": [
        {
          "internalType": "contract IEstateExperienceRegistry",
          "name": "registry",
          "type": "address"
        }
      ],
      "name": "setRegistry",
      "outputs": [],
      "stateMutability": "nonpayable",
      "type": "function"
    },
    {
      "inputs": [
        {
          "internalType": "address",
          "name": "trustedForwarder",
          "type": "address"
        }
      ],
      "name": "setTrustedForwarder",
      "outputs": [],
      "stateMutability": "nonpayable",
      "type": "function"
    },
    {
      "inputs": [
        {
          "internalType": "bytes4",
          "name": "interfaceId",
          "type": "bytes4"
        }
      ],
      "name": "supportsInterface",
      "outputs": [
        {
          "internalType": "bool",
          "name": "",
          "type": "bool"
        }
      ],
      "stateMutability": "view",
      "type": "function"
    },
    {
      "inputs": [],
      "name": "symbol",
      "outputs": [
        {
          "internalType": "string",
          "name": "",
          "type": "string"
        }
      ],
      "stateMutability": "view",
      "type": "function"
    },
    {
      "inputs": [
        {
          "internalType": "uint256",
          "name": "tokenId",
          "type": "uint256"
        }
      ],
      "name": "tokenURI",
      "outputs": [
        {
          "internalType": "string",
          "name": "",
          "type": "string"
        }
      ],
      "stateMutability": "view",
      "type": "function"
    },
    {
      "inputs": [
        {
          "internalType": "address",
          "name": "from",
          "type": "address"
        },
        {
          "internalType": "address",
          "name": "to",
          "type": "address"
        },
        {
          "internalType": "uint256",
          "name": "tokenId",
          "type": "uint256"
        }
      ],
      "name": "transferFrom",
      "outputs": [],
      "stateMutability": "nonpayable",
      "type": "function"
    },
    {
      "inputs": [
        {
          "internalType": "uint256",
          "name": "oldId",
          "type": "uint256"
        },
        {
          "internalType": "uint256[][3]",
          "name": "landToAdd",
          "type": "uint256[][3]"
        },
        {
          "internalType": "uint256[]",
          "name": "expToUnlink",
          "type": "uint256[]"
        },
        {
          "internalType": "uint256[][3]",
          "name": "landToRemove",
          "type": "uint256[][3]"
        }
      ],
      "name": "update",
      "outputs": [
        {
          "internalType": "uint256",
          "name": "",
          "type": "uint256"
        }
      ],
      "stateMutability": "nonpayable",
      "type": "function"
    }
  ],
  "transactionHash": "0x2111222d3e3252b9303a687ca7e53fef896d49113c80cd16cc1778fa8b94e368",
  "args": [],
  "numDeployments": 1,
  "solcInputHash": "d30173aa61b27c0632df2346127d859a",
  "bytecode": "0x608060405234801561001057600080fd5b506151e5806100206000396000f3fe608060405234801561001057600080fd5b50600436106102bb5760003560e01c80637ad237a011610182578063b88d4fde116100e9578063d5391393116100a2578063e5d7dbd71161007c578063e5d7dbd7146106f1578063e8a3d485146106f9578063e985e9c514610701578063fa83e33a1461073d576102bb565b8063d5391393146106a4578063d547741f146106cb578063da742228146106de576102bb565b8063b88d4fde14610616578063bc96832614610629578063c0ae401614610658578063c87b56dd1461066b578063cd17aa411461067e578063d3fec7cf14610691576102bb565b80639c0d90581161013b5780639c0d9058146105af578063a217fddf146105c2578063a22cb465146105ca578063a70c4709146105dd578063a91ee0dc146105f0578063a9266dde14610603576102bb565b80637ad237a0146105485780638bee92e61461055b5780638f3d9daa1461056e57806391d148541461058157806395d89b41146105945780639b64c4fc1461059c576102bb565b806336568abe116102265780635a09942f116101df5780635a09942f146104d25780635ab1bd53146104f25780636352211e146104fa5780636c7ecdff1461050d57806370a082311461052057806375b238fc14610533576102bb565b806336568abe1461044457806342842e0e146104575780634b808c461461046a5780634f558e791461048a57806355f804b31461049d578063572b6c05146104b0576102bb565b806321ab0c711161027857806321ab0c71146103b257806323b872dd146103c5578063248a9ca3146103d8578063282c51f3146103fb5780632f2ff15d14610422578063313ce56714610435576102bb565b806301ffc9a7146102c057806306fdde03146102e8578063081812fc146102fd578063095ea7b3146103285780630d363f0d1461033d578063150b7a021461037a575b600080fd5b6102d36102ce366004614500565b610750565b60405190151581526020015b60405180910390f35b6102f0610798565b6040516102df9190614b6b565b61031061030b3660046144c4565b61082b565b6040516001600160a01b0390911681526020016102df565b61033b61033636600461432a565b6108c5565b005b7ef52b0807fdece1f767ee6f74b46926674002b92e5176c0b1fbc1c6a045384b54600160801b900463ffffffff165b6040519081526020016102df565b610399610388366004614150565b630a85bd0160e11b95945050505050565b6040516001600160e01b031990911681526020016102df565b61036c6103c03660046144c4565b6109ed565b61033b6103d3366004614110565b6109f8565b61036c6103e63660046144c4565b60009081526065602052604090206001015490565b61036c7f3c11d16cbaffd01df69ce1c404f6340ee057498f5f00246190ea54220576a84881565b61033b6104303660046144dc565b610a30565b604051600081526020016102df565b61033b6104523660046144dc565b610a5d565b61033b610465366004614110565b610aeb565b61039961047836600461407f565b6325c0462360e11b9695505050505050565b6102d36104983660046144c4565b610b06565b61033b6104ab366004614538565b610b25565b6102d36104be366004613f6f565b60c9546001600160a01b0390811691161490565b6104e56104e036600461475b565b610c73565b6040516102df9190614b58565b610310610d20565b6103106105083660046144c4565b610d41565b61036c61051b3660046145d3565b610db8565b61036c61052e366004613f6f565b61117f565b61036c60008051602061519083398151915281565b61036c61055636600461427b565b611206565b6102d36105693660046146d5565b61133f565b6104e561057c36600461432a565b6113de565b6102d361058f3660046144dc565b611639565b6102f0611664565b61036c6105aa3660046144c4565b611673565b61036c6105bd366004614355565b611705565b61036c600081565b61033b6105d83660046142fd565b6118ea565b61033b6105eb366004614666565b6118fc565b61033b6105fe366004613f6f565b611aad565b61036c6106113660046144c4565b611bad565b61033b6106243660046141c0565b611bf3565b7ef52b0807fdece1f767ee6f74b46926674002b92e5176c0b1fbc1c6a045384b546001600160801b031661036c565b61036c61066636600461458f565b611c32565b6102f06106793660046144c4565b61200b565b61033b61068c366004613f6f565b6120e5565b61031061069f3660046144c4565b6121dd565b61036c7f9f2df0fed2c77648de5860a4cc508cd0818c85b8b8a1ab4ceeef8d981c8956a681565b61033b6106d93660046144dc565b6121f1565b61033b6106ec366004613f6f565b612219565b610310612271565b6102f0612287565b6102d361070f366004613f8b565b6001600160a01b039182166000908152609c6020908152604080832093909416825291909152205460ff1690565b61033b61074b366004613fc3565b6122da565b60006001600160e01b03198216630a85bd0160e11b148061078157506001600160e01b031982166317a2fd9160e21b145b80610790575061079082612433565b90505b919050565b6060609780546107a790615049565b80601f01602080910402602001604051908101604052809291908181526020018280546107d390615049565b80156108205780601f106107f557610100808354040283529160200191610820565b820191906000526020600020905b81548152906001019060200180831161080357829003601f168201915b505050505090505b90565b6000818152609960205260408120546001600160a01b03166108a95760405162461bcd60e51b815260206004820152602c60248201527f4552433732313a20617070726f76656420717565727920666f72206e6f6e657860448201526b34b9ba32b73a103a37b5b2b760a11b60648201526084015b60405180910390fd5b506000908152609b60205260409020546001600160a01b031690565b60006108d082610d41565b9050806001600160a01b0316836001600160a01b0316141561093e5760405162461bcd60e51b815260206004820152602160248201527f4552433732313a20617070726f76616c20746f2063757272656e74206f776e656044820152603960f91b60648201526084016108a0565b806001600160a01b031661095061244d565b6001600160a01b0316148061096c575061096c8161070f61244d565b6109de5760405162461bcd60e51b815260206004820152603860248201527f4552433732313a20617070726f76652063616c6c6572206973206e6f74206f7760448201527f6e6572206e6f7220617070726f76656420666f7220616c6c000000000000000060648201526084016108a0565b6109e8838361245c565b505050565b6000610790826124ca565b610a09610a0361244d565b826124f8565b610a255760405162461bcd60e51b81526004016108a090614c70565b6109e88383836125ef565b600082815260656020526040902060010154610a5381610a4e61244d565b61278f565b6109e883836127f3565b610a6561244d565b6001600160a01b0316816001600160a01b031614610add5760405162461bcd60e51b815260206004820152602f60248201527f416363657373436f6e74726f6c3a2063616e206f6e6c792072656e6f756e636560448201526e103937b632b9903337b91039b2b63360891b60648201526084016108a0565b610ae7828261287a565b5050565b6109e883838360405180602001604052806000815250611bf3565b6000818152609960205260408120546001600160a01b03161515610790565b610b3f60008051602061519083398151915261058f61244d565b610b5b5760405162461bcd60e51b81526004016108a090614d32565b60006000805160206151708339815191526002018054610b7a90615049565b80601f0160208091040260200160405190810160405280929190818152602001828054610ba690615049565b8015610bf35780601f10610bc857610100808354040283529160200191610bf3565b820191906000526020600020905b815481529060010190602001808311610bd657829003601f168201915b505050505090508282610c1160008051602061517083398151915290565b6002019190610c21929190613d08565b50610c2a61244d565b6001600160a01b03167fcad0ef056b20aa50414ef503ee13c75ff786ba9317d7f8a4379a9892310c9338828585604051610c6693929190614b7e565b60405180910390a2505050565b6060610c7e846128ff565b6040516308e3edc760e11b815260019091016004820152602481018490526044810183905273AbA89821c0eeBBe019b895e2c7A3b853DCB884c8906311c7db8e9060640160006040518083038186803b158015610cda57600080fd5b505af4158015610cee573d6000803e3d6000fd5b505050506040513d6000823e601f3d908101601f19168201604052610d169190810190614387565b90505b9392505050565b60006000805160206151508339815191525b546001600160a01b0316905090565b6000818152609960205260408120546001600160a01b0316806107905760405162461bcd60e51b815260206004820152602960248201527f4552433732313a206f776e657220717565727920666f72206e6f6e657869737460448201526832b73a103a37b5b2b760b91b60648201526084016108a0565b6000610dcb610dc561244d565b876124f8565b610de75760405162461bcd60e51b81526004016108a090614c3b565b600080516020615150833981519152546001600160a01b031680610e8d578315610e235760405162461bcd60e51b81526004016108a090614d0c565b6000610e2f8780614df7565b90501180610e4857506000610e448480614df7565b9050115b610e885760405162461bcd60e51b81526020600482015260116024820152706e6f7468696e6720746f2075706461746560781b60448201526064016108a0565b610efc565b6000610e998780614df7565b90501180610eb257506000610eae8480614df7565b9050115b80610ebc57508315155b610efc5760405162461bcd60e51b81526020600482015260116024820152706e6f7468696e6720746f2075706461746560781b60448201526064016108a0565b6000610f07886128ff565b9050610f1b81610f1561244d565b89612940565b610f308183610f2861244d565b878a8a612bb5565b604051632d10763960e11b815260018201600482015273AbA89821c0eeBBe019b895e2c7A3b853DCB884c890635a20ec729060240160206040518083038186803b158015610f7d57600080fd5b505af4158015610f91573d6000803e3d6000fd5b505050506040513d601f19601f82011682018060405250810190610fb591906144a8565b15610ffb5760405162461bcd60e51b81526020600482015260166024820152756573746174652063616e6e6f7420626520656d70747960501b60448201526064016108a0565b6040516331884dd560e21b815260018201600482015273AbA89821c0eeBBe019b895e2c7A3b853DCB884c89063c62137549060240160206040518083038186803b15801561104857600080fd5b505af415801561105c573d6000803e3d6000fd5b505050506040513d601f19601f8201168201806040525081019061108091906144a8565b61109c5760405162461bcd60e51b81526004016108a090614c15565b80546110a790612e90565b808255887f9d558f479216a061e3c0dd35693fdc4904a085e0ec5582272591dda3f9ab27c46110d461244d565b604051636429e7ff60e11b815260018601600482015273AbA89821c0eeBBe019b895e2c7A3b853DCB884c89063c853cffe9060240160006040518083038186803b15801561112157600080fd5b505af4158015611135573d6000803e3d6000fd5b505050506040513d6000823e601f3d908101601f1916820160405261115d9190810190614387565b60405161116b929190614a83565b60405180910390a354979650505050505050565b60006001600160a01b0382166111ea5760405162461bcd60e51b815260206004820152602a60248201527f4552433732313a2062616c616e636520717565727920666f7220746865207a65604482015269726f206164647265737360b01b60648201526084016108a0565b506001600160a01b03166000908152609a602052604090205490565b60006112347f9f2df0fed2c77648de5860a4cc508cd0818c85b8b8a1ab4ceeef8d981c8956a661058f61244d565b6112715760405162461bcd60e51b815260206004820152600e60248201526d1b9bdd08185d5d1a1bdc9a5e995960921b60448201526064016108a0565b600061127c85612ec3565b60405163286d30af60e21b815290915073AbA89821c0eeBBe019b895e2c7A3b853DCB884c89063a1b4c2bc906112bd90600185019088908890600401614d55565b60006040518083038186803b1580156112d557600080fd5b505af41580156112e9573d6000803e3d6000fd5b5050505080600001547f8ba5d7096a6e37fd8a143e486dbc3dc12dc25159042fca9431af78475768d5d961131b61244d565b87878760405161132e949392919061494e565b60405180910390a254949350505050565b600061134a836128ff565b60405163f5fd439d60e01b815273AbA89821c0eeBBe019b895e2c7A3b853DCB884c89163f5fd439d9161138591600101908690600401614d9c565b60206040518083038186803b15801561139d57600080fd5b505af41580156113b1573d6000803e3d6000fd5b505050506040513d601f19601f820116820180604052508101906113d591906144a8565b90505b92915050565b606061140c7f3c11d16cbaffd01df69ce1c404f6340ee057498f5f00246190ea54220576a84861058f61244d565b6114495760405162461bcd60e51b815260206004820152600e60248201526d1b9bdd08185d5d1a1bdc9a5e995960921b60448201526064016108a0565b61145383836124f8565b61146f5760405162461bcd60e51b81526004016108a090614c3b565b600061147a836128ff565b604051636429e7ff60e11b815260018201600482015290915073AbA89821c0eeBBe019b895e2c7A3b853DCB884c89063c853cffe9060240160006040518083038186803b1580156114ca57600080fd5b505af41580156114de573d6000803e3d6000fd5b505050506040513d6000823e601f3d908101601f191682016040526115069190810190614387565b600080516020615150833981519152549092506001600160a01b031680156115e55760405163ad51dacb60e01b81526001600160a01b0382169063ad51dacb90611554908690600401614b58565b60206040518083038186803b15801561156c57600080fd5b505afa158015611580573d6000803e3d6000fd5b505050506040513d601f19601f820116820180604052508101906115a491906144a8565b156115e55760405162461bcd60e51b81526020600482015260116024820152701b5d5cdd081d5b9b1a5b9ac8199a5c9cdd607a1b60448201526064016108a0565b6115ee82612f63565b837fa95f078511bfff5e18ae1876d396070153217e28e9939b24ee2b407bea5c93da61161861244d565b8786604051611629939291906149a7565b60405180910390a2505092915050565b60009182526065602090815260408084206001600160a01b0393909316845291905290205460ff1690565b6060609880546107a790615049565b600061167e826128ff565b60405163158eeb9f60e31b81526001909101600482015273AbA89821c0eeBBe019b895e2c7A3b853DCB884c89063ac775cf8906024015b60206040518083038186803b1580156116cd57600080fd5b505af41580156116e1573d6000803e3d6000fd5b505050506040513d601f19601f820116820180604052508101906107909190614577565b60008061171861171361244d565b612ec3565b905060006117268480614df7565b9050116117665760405162461bcd60e51b815260206004820152600e60248201526d1b9bdd1a1a5b99c81d1bc818591960921b60448201526064016108a0565b6117788161177261244d565b85612940565b6040516331884dd560e21b815260018201600482015273AbA89821c0eeBBe019b895e2c7A3b853DCB884c89063c62137549060240160206040518083038186803b1580156117c557600080fd5b505af41580156117d9573d6000803e3d6000fd5b505050506040513d601f19601f820116820180604052508101906117fd91906144a8565b6118195760405162461bcd60e51b81526004016108a090614c15565b80547f1fdc5a6efe117110d3a653439a0b1fedc9258a17c8b2477c5c7586accb26d28961184461244d565b604051636429e7ff60e11b815260018501600482015273AbA89821c0eeBBe019b895e2c7A3b853DCB884c89063c853cffe9060240160006040518083038186803b15801561189157600080fd5b505af41580156118a5573d6000803e3d6000fd5b505050506040513d6000823e601f3d908101601f191682016040526118cd9190810190614387565b6040516118db929190614a83565b60405180910390a25492915050565b610ae76118f561244d565b838361303a565b61190d61190761244d565b856124f8565b6119295760405162461bcd60e51b81526004016108a090614c3b565b6000611934856128ff565b600080516020615150833981519152549091506001600160a01b031683158061196557506001600160a01b03811615155b6119815760405162461bcd60e51b81526004016108a090614d0c565b611996828261198e61244d565b868989612bb5565b604051632d10763960e11b815260018301600482015273AbA89821c0eeBBe019b895e2c7A3b853DCB884c890635a20ec729060240160206040518083038186803b1580156119e357600080fd5b505af41580156119f7573d6000803e3d6000fd5b505050506040513d601f19601f82011682018060405250810190611a1b91906144a8565b611a575760405162461bcd60e51b815260206004820152600d60248201526c6d6170206e6f7420656d70747960981b60448201526064016108a0565b611a6082612f63565b857fc16ce9c4d0002876fc4c9679fc409385f51b8d3659a3b307d9a35931081bcc3f611a8a61244d565b6040516001600160a01b03909116815260200160405180910390a2505050505050565b611ac760008051602061519083398151915261058f61244d565b611ae35760405162461bcd60e51b81526004016108a090614d32565b6001600160a01b038116611b2b5760405162461bcd60e51b815260206004820152600f60248201526e696e76616c6964206164647265737360881b60448201526064016108a0565b60008051602061515083398151915280546001600160a01b038381166001600160a01b031983161790925516611b5f61244d565b604080516001600160a01b038481168252858116602083015292909216917f814a095c46e008854bbfd092e4981c02e2e623d3ba415d78ff58b5900956c16491015b60405180910390a25050565b6000611bb8826128ff565b604051630f858a2960e31b81526001909101600482015273AbA89821c0eeBBe019b895e2c7A3b853DCB884c890637c2c5148906024016116b5565b611c04611bfe61244d565b836124f8565b611c205760405162461bcd60e51b81526004016108a090614c70565b611c2c84848484613109565b50505050565b6000611c45611c3f61244d565b846124f8565b611c615760405162461bcd60e51b81526004016108a090614c3b565b6000611c6d8380614df7565b905011611cad5760405162461bcd60e51b815260206004820152600e60248201526d1b9bdd1a1a5b99c81d1bc818591960921b60448201526064016108a0565b6000611cb8846128ff565b9050611cc48380614df7565b905060011415611e7f5773AbA89821c0eeBBe019b895e2c7A3b853DCB884c8638addfdc460018301611cf96020870187614df7565b6000818110611d1857634e487b7160e01b600052603260045260246000fd5b9050602002013586600260038110611d4057634e487b7160e01b600052603260045260246000fd5b602002810190611d509190614df7565b6000818110611d6f57634e487b7160e01b600052603260045260246000fd5b9050602002013587600060038110611d9757634e487b7160e01b600052603260045260246000fd5b602002810190611da79190614df7565b6000818110611dc657634e487b7160e01b600052603260045260246000fd5b905060200201356040518563ffffffff1660e01b8152600401611e02949392919093845260208401929092526040830152606082015260800190565b60206040518083038186803b158015611e1a57600080fd5b505af4158015611e2e573d6000803e3d6000fd5b505050506040513d601f19601f82011682018060405250810190611e5291906144a8565b611e6e5760405162461bcd60e51b81526004016108a090614c15565b611e7a8161177261244d565b611f2c565b611e8b8161177261244d565b6040516331884dd560e21b815260018201600482015273AbA89821c0eeBBe019b895e2c7A3b853DCB884c89063c62137549060240160206040518083038186803b158015611ed857600080fd5b505af4158015611eec573d6000803e3d6000fd5b505050506040513d601f19601f82011682018060405250810190611f1091906144a8565b611f2c5760405162461bcd60e51b81526004016108a090614c15565b8054611f3790612e90565b808255847f412391f5f3bd0705db9b0ab9939daa3ba27c2e72ff1f3e171425cc00406ac58a611f6461244d565b604051636429e7ff60e11b815260018601600482015273AbA89821c0eeBBe019b895e2c7A3b853DCB884c89063c853cffe9060240160006040518083038186803b158015611fb157600080fd5b505af4158015611fc5573d6000803e3d6000fd5b505050506040513d6000823e601f3d908101601f19168201604052611fed9190810190614387565b604051611ffb929190614a83565b60405180910390a3549392505050565b6000818152609960205260409020546060906001600160a01b031661208a5760405162461bcd60e51b815260206004820152602f60248201527f4552433732314d657461646174613a2055524920717565727920666f72206e6f60448201526e3732bc34b9ba32b73a103a37b5b2b760891b60648201526084016108a0565b600061209461313c565b905060008151116120b45760405180602001604052806000815250610d19565b806120be8461315b565b6040516020016120cf929190614873565b6040516020818303038152906040529392505050565b6120ff60008051602061519083398151915261058f61244d565b61211b5760405162461bcd60e51b81526004016108a090614d32565b6001600160a01b0381166121635760405162461bcd60e51b815260206004820152600f60248201526e696e76616c6964206164647265737360881b60448201526064016108a0565b60008051602061517083398151915280546001600160a01b038381166001600160a01b03198316179092551661219761244d565b604080516001600160a01b038481168252858116602083015292909216917f43348694b30dafadd67997415d04baa9eed18579262b5bd26256362b89b575c29101611ba1565b60006107906121eb836128ff565b54610d41565b60008281526065602052604090206001015461220f81610a4e61244d565b6109e8838361287a565b61223360008051602061519083398151915261058f61244d565b61224f5760405162461bcd60e51b81526004016108a090614d32565b60c980546001600160a01b0319166001600160a01b0392909216919091179055565b6000600080516020615170833981519152610d32565b6060600061229361313c565b905060008151116122b357604051806020016040528060008152506122d4565b806040516020016122c491906148a2565b6040516020818303038152906040525b91505090565b600054610100900460ff166122f55760005460ff16156122f9565b303b155b61235c5760405162461bcd60e51b815260206004820152602e60248201527f496e697469616c697a61626c653a20636f6e747261637420697320616c72656160448201526d191e481a5b9a5d1a585b1a5e995960921b60648201526084016108a0565b600054610100900460ff16158015612387576000805460ff1961ff0019909116610100171660011790555b61239089613275565b61240385858080601f01602080910402602001604051908101604052809392919081815260200183838082843760009201919091525050604080516020601f8901819004810282018101909252878152925087915086908190840183828082843760009201919091525061329c92505050565b61240c886132ea565b612416878761331f565b8015612428576000805461ff00191690555b505050505050505050565b600061243e826133b4565b806107905750610790826133ef565b6000612457613424565b905090565b6000818152609b6020526040902080546001600160a01b0319166001600160a01b038416908117909155819061249182610d41565b6001600160a01b03167f8c5be1e5ebec7d5bd14f71427d1e84f3dd0314c0f7b2291e5b200ac8c7c3b92560405160405180910390a45050565b60006124d860606002614eff565b6124e460606002614eff565b6124ee9084614ea5565b6107909190614fd0565b6000818152609960205260408120546001600160a01b03166125715760405162461bcd60e51b815260206004820152602c60248201527f4552433732313a206f70657261746f7220717565727920666f72206e6f6e657860448201526b34b9ba32b73a103a37b5b2b760a11b60648201526084016108a0565b600061257c83610d41565b9050806001600160a01b0316846001600160a01b031614806125b75750836001600160a01b03166125ac8461082b565b6001600160a01b0316145b806125e757506001600160a01b038082166000908152609c602090815260408083209388168352929052205460ff165b949350505050565b826001600160a01b031661260282610d41565b6001600160a01b03161461266a5760405162461bcd60e51b815260206004820152602960248201527f4552433732313a207472616e73666572206f6620746f6b656e2074686174206960448201526839903737ba1037bbb760b91b60648201526084016108a0565b6001600160a01b0382166126cc5760405162461bcd60e51b8152602060048201526024808201527f4552433732313a207472616e7366657220746f20746865207a65726f206164646044820152637265737360e01b60648201526084016108a0565b6126d760008261245c565b6001600160a01b0383166000908152609a60205260408120805460019290612700908490614fef565b90915550506001600160a01b0382166000908152609a6020526040812080546001929061272e908490614e8d565b909155505060008181526099602052604080822080546001600160a01b0319166001600160a01b0386811691821790925591518493918716917fddf252ad1be2c89b69c2b068fc378daa952ba7f163c4a11628f55a4df523b3ef91a4505050565b6127998282611639565b610ae7576127b1816001600160a01b03166014613450565b6127bc836020613450565b6040516020016127cd9291906148d9565b60408051601f198184030181529082905262461bcd60e51b82526108a091600401614b6b565b6127fd8282611639565b610ae75760008281526065602090815260408083206001600160a01b03851684529091529020805460ff1916600117905561283661244d565b6001600160a01b0316816001600160a01b0316837f2f8788117e7eff1d82e926ec794901d17c78024a50270940304540a733656f0d60405160405180910390a45050565b6128848282611639565b15610ae75760008281526065602090815260408083206001600160a01b03851684529091529020805460ff191690556128bb61244d565b6001600160a01b0316816001600160a01b0316837ff6391f5c32d9c69d2a47ea670b442974b53935d1edc7fd64eb21e047a839171b60405160405180910390a45050565b60007ef52b0807fdece1f767ee6f74b46926674002b92e5176c0b1fbc1c6a045384d8161292b846124ca565b81526020019081526020016000209050919050565b600061294c8280614df7565b915061295d90506020830183614df7565b90508114801561297a57506129756040830183614df7565b905081145b6129965760405162461bcd60e51b81526004016108a090614d0c565b60005b81811015612b155773AbA89821c0eeBBe019b895e2c7A3b853DCB884c863f9b9fec6600187016129cc6020870187614df7565b858181106129ea57634e487b7160e01b600052603260045260246000fd5b9050602002013586600260038110612a1257634e487b7160e01b600052603260045260246000fd5b602002810190612a229190614df7565b86818110612a4057634e487b7160e01b600052603260045260246000fd5b9050602002013587600060038110612a6857634e487b7160e01b600052603260045260246000fd5b602002810190612a789190614df7565b87818110612a9657634e487b7160e01b600052603260045260246000fd5b905060200201356040518563ffffffff1660e01b8152600401612ad2949392919093845260208401929092526040830152606082015260800190565b60006040518083038186803b158015612aea57600080fd5b505af4158015612afe573d6000803e3d6000fd5b505050508080612b0d906150a5565b915050612999565b50600080516020615170833981519152546001600160a01b031663eaa5e0678430612b408680614df7565b612b4d6020890189614df7565b612b5a60408b018b614df7565b6040518963ffffffff1660e01b8152600401612b7d9897969594939291906149d3565b600060405180830381600087803b158015612b9757600080fd5b505af1158015612bab573d6000803e3d6000fd5b5050505050505050565b6000612bc18480614df7565b9150612bd290506020850185614df7565b905081148015612bef5750612bea6040850185614df7565b905081145b612c2f5760405162461bcd60e51b8152602060048201526011602482015270696e76616c69642071756164206461746160781b60448201526064016108a0565b6001600160a01b03861615612d64578115612ca757604051630910168560e11b81526001600160a01b038716906312202d0a90612c7490889087908790600401614aa7565b600060405180830381600087803b158015612c8e57600080fd5b505af1158015612ca2573d6000803e3d6000fd5b505050505b604051633cbe399760e01b81526001600160a01b03871690633cbe399790612cd3908790600401614acc565b60206040518083038186803b158015612ceb57600080fd5b505afa158015612cff573d6000803e3d6000fd5b505050506040513d601f19601f82011682018060405250810190612d2391906144a8565b15612d645760405162461bcd60e51b81526020600482015260116024820152701b5d5cdd081d5b9b1a5b9ac8199a5c9cdd607a1b60448201526064016108a0565b600080516020615170833981519152546001600160a01b03166001880160005b83811015612e8457612e72888385612d9c8b80614df7565b86818110612dba57634e487b7160e01b600052603260045260246000fd5b905060200201358b600160038110612de257634e487b7160e01b600052603260045260246000fd5b602002810190612df29190614df7565b87818110612e1057634e487b7160e01b600052603260045260246000fd5b905060200201358c600260038110612e3857634e487b7160e01b600052603260045260246000fd5b602002810190612e489190614df7565b88818110612e6657634e487b7160e01b600052603260045260246000fd5b90506020020135613631565b80612e7c816150a5565b915050612d84565b50505050505050505050565b600080612e9c83610d41565b9050612ea783613932565b612eb0836139cd565b9250612ebc81846139fa565b5090919050565b600080612f436000805160206151708339815191526001018054600090612ef2906001600160801b031661507e565b91906101000a8154816001600160801b0302191690836001600160801b031602179055612f2a60008051602061517083398151915290565b600190810154600160801b900463ffffffff1690613b3c565b9050612f4e816128ff565b8181559150612f5d83826139fa565b50919050565b604051632c87615360e11b815260018201600482015273AbA89821c0eeBBe019b895e2c7A3b853DCB884c89063590ec2a69060240160006040518083038186803b158015612fb057600080fd5b505af4158015612fc4573d6000803e3d6000fd5b5050506001820190506000612fd98282613d8c565b505080547ef52b0807fdece1f767ee6f74b46926674002b92e5176c0b1fbc1c6a045384d6000613008836124ca565b81526020810191909152604001600090812081815590600182018161302d8282613d8c565b50505050610ae781613932565b816001600160a01b0316836001600160a01b0316141561309c5760405162461bcd60e51b815260206004820152601960248201527f4552433732313a20617070726f766520746f2063616c6c65720000000000000060448201526064016108a0565b6001600160a01b038381166000818152609c6020908152604080832094871680845294825291829020805460ff191686151590811790915591519182527f17307eab39ab6107e8899845ad3d59bd9653f200f220920489ca2b5937696c31910160405180910390a3505050565b6131148484846125ef565b61312084848484613b9c565b611c2c5760405162461bcd60e51b81526004016108a090614bc3565b606060008051602061517083398151915260020180546107a790615049565b60608161318057506040805180820190915260018152600360fc1b6020820152610793565b8160005b81156131aa5780613194816150a5565b91506131a39050600a83614ea5565b9150613184565b6000816001600160401b038111156131d257634e487b7160e01b600052604160045260246000fd5b6040519080825280601f01601f1916602001820160405280156131fc576020820181803683370190505b5090505b84156125e757613211600183614fef565b915061321e600a866150c0565b613229906030614e8d565b60f81b81838151811061324c57634e487b7160e01b600052603260045260246000fd5b60200101906001600160f81b031916908160001a90535061326e600a86614ea5565b9450613200565b600054610100900460ff1661224f5760405162461bcd60e51b81526004016108a090614cc1565b600054610100900460ff166132c35760405162461bcd60e51b81526004016108a090614cc1565b81516132d6906097906020850190613dad565b5080516109e8906098906020840190613dad565b600054610100900460ff166133115760405162461bcd60e51b81526004016108a090614cc1565b61331c600082613cb0565b50565b600054610100900460ff166133465760405162461bcd60e51b81526004016108a090614cc1565b60008051602061517083398151915280546001600160a01b0319166001600160a01b0393909316929092179091557ef52b0807fdece1f767ee6f74b46926674002b92e5176c0b1fbc1c6a045384b805463ffffffff60801b191661ffff909216600160801b02919091179055565b60006001600160e01b031982166380ac58cd60e01b148061243e57506001600160e01b03198216635b5e139f60e01b14806107905750610790825b60006001600160e01b03198216637965db0b60e01b148061079057506301ffc9a760e01b6001600160e01b0319831614610790565b60c9546000906001600160a01b0316331415613449575060131936013560601c610828565b5033610828565b6060600061345f836002614fd0565b61346a906002614e8d565b6001600160401b0381111561348f57634e487b7160e01b600052604160045260246000fd5b6040519080825280601f01601f1916602001820160405280156134b9576020820181803683370190505b509050600360fc1b816000815181106134e257634e487b7160e01b600052603260045260246000fd5b60200101906001600160f81b031916908160001a905350600f60fb1b8160018151811061351f57634e487b7160e01b600052603260045260246000fd5b60200101906001600160f81b031916908160001a9053506000613543846002614fd0565b61354e906001614e8d565b90505b60018111156135e2576f181899199a1a9b1b9c1cb0b131b232b360811b85600f166010811061359057634e487b7160e01b600052603260045260246000fd5b1a60f81b8282815181106135b457634e487b7160e01b600052603260045260246000fd5b60200101906001600160f81b031916908160001a90535060049490941c936135db81615032565b9050613551565b5083156113d55760405162461bcd60e51b815260206004820181905260248201527f537472696e67733a20686578206c656e67746820696e73756666696369656e7460448201526064016108a0565b604051630a2a008760e31b81526004810186905260248101839052604481018290526064810184905273AbA89821c0eeBBe019b895e2c7A3b853DCB884c89063515004389060840160206040518083038186803b15801561369157600080fd5b505af41580156136a5573d6000803e3d6000fd5b505050506040513d601f19601f820116820180604052508101906136c991906144a8565b6137045760405162461bcd60e51b815260206004820152600c60248201526b71756164206d697373696e6760a01b60448201526064016108a0565b60405163e8485b0760e01b81526004810186905260248101839052604481018290526064810184905273AbA89821c0eeBBe019b895e2c7A3b853DCB884c89063e8485b079060840160206040518083038186803b15801561376457600080fd5b505af4158015613778573d6000803e3d6000fd5b505050506040513d601f19601f8201168201806040525081019061379c91906144a8565b506040516355064d8560e01b81526004810184905260248101839052604481018290526001600160a01b038516906355064d859060640160206040518083038186803b1580156137eb57600080fd5b505afa1580156137ff573d6000803e3d6000fd5b505050506040513d601f19601f8201168201806040525081019061382391906144a8565b6138aa57604051636e1e3bbf60e01b81526001600160a01b03878116600483015260248201859052604482018490526064820183905260a06084830152600060a4830152851690636e1e3bbf9060c401600060405180830381600087803b15801561388d57600080fd5b505af11580156138a1573d6000803e3d6000fd5b5050505061392a565b604051631c5d982d60e11b81523060048201526001600160a01b03878116602483015260448201859052606482018490526084820183905260c060a4830152600060c48301528516906338bb305a9060e401600060405180830381600087803b15801561391657600080fd5b505af1158015612e84573d6000803e3d6000fd5b505050505050565b600061393d82610d41565b905061394a60008361245c565b6001600160a01b0381166000908152609a60205260408120805460019290613973908490614fef565b909155505060008281526099602052604080822080546001600160a01b0319169055518391906001600160a01b038416907fddf252ad1be2c89b69c2b068fc378daa952ba7f163c4a11628f55a4df523b3ef908390a45050565b6000806000806139dc85613cba565b919450925060010190506139f1838383613b3c565b95945050505050565b6001600160a01b038216613a505760405162461bcd60e51b815260206004820181905260248201527f4552433732313a206d696e7420746f20746865207a65726f206164647265737360448201526064016108a0565b6000818152609960205260409020546001600160a01b031615613ab55760405162461bcd60e51b815260206004820152601c60248201527f4552433732313a20746f6b656e20616c7265616479206d696e7465640000000060448201526064016108a0565b6001600160a01b0382166000908152609a60205260408120805460019290613ade908490614e8d565b909155505060008181526099602052604080822080546001600160a01b0319166001600160a01b03861690811790915590518392907fddf252ad1be2c89b69c2b068fc378daa952ba7f163c4a11628f55a4df523b3ef908290a45050565b60006bffffffffffffffffffffffff8216613b5960606002614eff565b613b699063ffffffff8616614fd0565b613b7560806002614eff565b613b88906001600160801b038816614fd0565b613b929190614e8d565b610d169190614e8d565b60006001600160a01b0384163b15613ca557836001600160a01b031663150b7a02613bc561244d565b8786866040518563ffffffff1660e01b8152600401613be79493929190614a46565b602060405180830381600087803b158015613c0157600080fd5b505af1925050508015613c31575060408051601f3d908101601f19168201909252613c2e9181019061451c565b60015b613c8b573d808015613c5f576040519150601f19603f3d011682016040523d82523d6000602084013e613c64565b606091505b508051613c835760405162461bcd60e51b81526004016108a090614bc3565b805181602001fd5b6001600160e01b031916630a85bd0160e11b1490506125e7565b506001949350505050565b610ae782826127f3565b60008080613cca60806002614eff565b613cd49085614ea5565b613ce060606002614eff565b613cea9086614ea5565b6001600160401b03919091169561ffff918216959091169350915050565b828054613d1490615049565b90600052602060002090601f016020900481019282613d365760008555613d7c565b82601f10613d4f5782800160ff19823516178555613d7c565b82800160010185558215613d7c579182015b82811115613d7c578235825591602001919060010190613d61565b50613d88929150613e21565b5090565b508054600082556003029060005260206000209081019061331c9190613e36565b828054613db990615049565b90600052602060002090601f016020900481019282613ddb5760008555613d7c565b82601f10613df457805160ff1916838001178555613d7c565b82800160010185558215613d7c579182015b82811115613d7c578251825591602001919060010190613e06565b5b80821115613d885760008155600101613e22565b80821115613d88576000808255600182018190556002820155600301613e36565b80606081018310156113d857600080fd5b60008083601f840112613e79578182fd5b5081356001600160401b03811115613e8f578182fd5b6020830191508360208083028501011115613ea957600080fd5b9250929050565b60008083601f840112613ec1578182fd5b5081356001600160401b03811115613ed7578182fd5b602083019150836020828501011115613ea957600080fd5b600060608284031215613f00578081fd5b6020613f0b81614e3d565b9150613f1681614e3d565b84601f850112613f2557600080fd5b613f2f6060614e3d565b808587606088011115613f4157600080fd5b60005b6003811015613f6157813584529285019290850190600101613f44565b505082525082525092915050565b600060208284031215613f80578081fd5b81356113d581615116565b60008060408385031215613f9d578081fd5b8235613fa881615116565b91506020830135613fb881615116565b809150509250929050565b60008060008060008060008060c0898b031215613fde578384fd5b8835613fe981615116565b97506020890135613ff981615116565b9650604089013561400981615116565b9550606089013561ffff8116811461401f578485fd5b945060808901356001600160401b038082111561403a578586fd5b6140468c838d01613eb0565b909650945060a08b013591508082111561405e578384fd5b5061406b8b828c01613eb0565b999c989b5096995094979396929594505050565b60008060008060008060808789031215614097578384fd5b86356140a281615116565b955060208701356140b281615116565b945060408701356001600160401b03808211156140cd578586fd5b6140d98a838b01613e68565b909650945060608901359150808211156140f1578384fd5b506140fe89828a01613eb0565b979a9699509497509295939492505050565b600080600060608486031215614124578081fd5b833561412f81615116565b9250602084013561413f81615116565b929592945050506040919091013590565b600080600080600060808688031215614167578283fd5b853561417281615116565b9450602086013561418281615116565b93506040860135925060608601356001600160401b038111156141a3578182fd5b6141af88828901613eb0565b969995985093965092949392505050565b600080600080608085870312156141d5578182fd5b84356141e081615116565b93506020858101356141f181615116565b93506040860135925060608601356001600160401b0380821115614213578384fd5b818801915088601f830112614226578384fd5b81358181111561423857614238615100565b61424a601f8201601f19168501614e3d565b9150808252898482850101111561425f578485fd5b8084840185840137810190920192909252939692955090935050565b60008060006040848603121561428f578081fd5b833561429a81615116565b925060208401356001600160401b03808211156142b5578283fd5b818601915086601f8301126142c8578283fd5b8135818111156142d6578384fd5b8760206060830285010111156142ea578384fd5b6020830194508093505050509250925092565b6000806040838503121561430f578182fd5b823561431a81615116565b91506020830135613fb88161512b565b6000806040838503121561433c578182fd5b823561434781615116565b946020939093013593505050565b600060208284031215614366578081fd5b81356001600160401b0381111561437b578182fd5b6125e784828501613e57565b60006020808385031215614399578182fd5b82516001600160401b03808211156143af578384fd5b818501915085601f8301126143c2578384fd5b8151818111156143d4576143d4615100565b6143e18485830201614e3d565b81815284810192508385016060808402860187018a1015614400578788fd5b8795505b8386101561449a5780828b03121561441a578788fd5b61442387614e3d565b61442c88614e3d565b8b601f85011261443a57898afd5b61444c6144476003614e6d565b614e3d565b80858587018f81111561445d578d8efd5b8d5b600381101561447c5782518552938d0193918d019160010161445f565b50918452509183525090865260019690960195948701949150614404565b509098975050505050505050565b6000602082840312156144b9578081fd5b81516113d58161512b565b6000602082840312156144d5578081fd5b5035919050565b600080604083850312156144ee578182fd5b823591506020830135613fb881615116565b600060208284031215614511578081fd5b81356113d581615139565b60006020828403121561452d578081fd5b81516113d581615139565b6000806020838503121561454a578182fd5b82356001600160401b0381111561455f578283fd5b61456b85828601613eb0565b90969095509350505050565b600060208284031215614588578081fd5b5051919050565b600080604083850312156145a1578182fd5b8235915060208301356001600160401b038111156145bd578182fd5b6145c985828601613e57565b9150509250929050565b6000806000806000608086880312156145ea578283fd5b8535945060208601356001600160401b0380821115614607578485fd5b61461389838a01613e57565b95506040880135915080821115614628578485fd5b61463489838a01613e68565b9095509350606088013591508082111561464c578283fd5b5061465988828901613e57565b9150509295509295909350565b6000806000806060858703121561467b578182fd5b8435935060208501356001600160401b0380821115614698578384fd5b6146a488838901613e68565b909550935060408701359150808211156146bc578283fd5b506146c987828801613e57565b91505092959194509250565b6000808284036101a08112156146e9578283fd5b83359250610180601f19820112156146ff578182fd5b5061470a6080614e3d565b6147178560208601613eef565b81526147268560808601613eef565b60208201526147388560e08601613eef565b604082015261474b856101408601613eef565b6060820152809150509250929050565b60008060006060848603121561476f578081fd5b505081359360208301359350604090920135919050565b6000815180845260208085019450808401835b838110156147db578151515187865b60038110156147c5578251825291850191908501906001016147a8565b5050506060969096019590820190600101614799565b509495945050505050565b81835260006001600160fb1b038311156147fe578081fd5b6020830280836020870137939093016020019283525090919050565b60008151808452614832816020860160208601615006565b601f01601f19169290920160200192915050565b8051518260005b600381101561486c57825182526020928301929091019060010161484d565b5050505050565b60008351614885818460208801615006565b835190830190614899818360208801615006565b01949350505050565b600082516148b4818460208701615006565b723837b63cb3b7b72fb2b9ba30ba32973539b7b760691b920191825250601301919050565b60007f416363657373436f6e74726f6c3a206163636f756e742000000000000000000082528351614911816017850160208801615006565b7001034b99036b4b9b9b4b733903937b6329607d1b6017918401918201528351614942816028840160208801615006565b01602801949350505050565b6001600160a01b038581168252841660208201526060604082018190528181018390526000908460808401835b8681101561499a5783838337908301848152918301919060010161497b565b5098975050505050505050565b6001600160a01b038481168252831660208201526060604082018190526000906139f190830184614786565b6001600160a01b0389811682528816602082015260c060408201819052600090614a00908301888a6147e6565b8281036060840152614a138187896147e6565b90508281036080840152614a288185876147e6565b83810360a09094019390935250815260200198975050505050505050565b6001600160a01b0385811682528416602082015260408101839052608060608201819052600090614a799083018461481a565b9695505050505050565b6001600160a01b0383168152604060208201819052600090610d1690830184614786565b6001600160a01b03841681526040602082018190526000906139f190830184866147e6565b60208082526000906080830183820185845b6003811015614b4c57868403601f19018352813536899003601e19018112614b04578687fd5b880180356001600160401b03811115614b1b578788fd5b86810236038a1315614b2b578788fd5b614b3886828985016147e6565b955050509184019190840190600101614ade565b50919695505050505050565b6000602082526113d56020830184614786565b6000602082526113d5602083018461481a565b600060408252614b91604083018661481a565b82810360208401528381528385602083013781602085830101526020601f19601f860116820101915050949350505050565b60208082526032908201527f4552433732313a207472616e7366657220746f206e6f6e20455243373231526560408201527131b2b4bb32b91034b6b83632b6b2b73a32b960711b606082015260800190565b6020808252600c908201526b1b9bdd0818591a9858d95b9d60a21b604082015260600190565b6020808252818101527f63616c6c6572206973206e6f74206f776e6572206e6f7220617070726f766564604082015260600190565b60208082526031908201527f4552433732313a207472616e736665722063616c6c6572206973206e6f74206f6040820152701ddb995c881b9bdc88185c1c1c9bdd9959607a1b606082015260800190565b6020808252602b908201527f496e697469616c697a61626c653a20636f6e7472616374206973206e6f74206960408201526a6e697469616c697a696e6760a81b606082015260800190565b6020808252600c908201526b696e76616c6964206461746160a01b604082015260600190565b6020808252600990820152683737ba1030b236b4b760b91b604082015260600190565b83815260406020820181905281018290526000606080830185835b86811015614d8f57838284379183018481529190830190600101614d70565b5090979650505050505050565b60006101a082019050838252614db6602083018451614846565b6020830151614dc86080840182614846565b506040830151614ddb60e0840182614846565b506060830151614def610140840182614846565b509392505050565b6000808335601e19843603018112614e0d578283fd5b8301803591506001600160401b03821115614e26578283fd5b6020908101925081023603821315613ea957600080fd5b604051601f8201601f191681016001600160401b0381118282101715614e6557614e65615100565b604052919050565b60006001600160401b03821115614e8657614e86615100565b5060200290565b60008219821115614ea057614ea06150d4565b500190565b600082614eb457614eb46150ea565b500490565b80825b6001808611614ecb5750614ef6565b818704821115614edd57614edd6150d4565b80861615614eea57918102915b9490941c938002614ebc565b94509492505050565b60006113d560001960ff851684600082614f1b57506001610d19565b81614f2857506000610d19565b8160018114614f3e5760028114614f4857614f75565b6001915050610d19565b60ff841115614f5957614f596150d4565b6001841b915084821115614f6f57614f6f6150d4565b50610d19565b5060208310610133831016604e8410600b8410161715614fa8575081810a83811115614fa357614fa36150d4565b610d19565b614fb58484846001614eb9565b808604821115614fc757614fc76150d4565b02949350505050565b6000816000190483118215151615614fea57614fea6150d4565b500290565b600082821015615001576150016150d4565b500390565b60005b83811015615021578181015183820152602001615009565b83811115611c2c5750506000910152565b600081615041576150416150d4565b506000190190565b60028104600182168061505d57607f821691505b60208210811415612f5d57634e487b7160e01b600052602260045260246000fd5b60006001600160801b038083168181141561509b5761509b6150d4565b6001019392505050565b60006000198214156150b9576150b96150d4565b5060010190565b6000826150cf576150cf6150ea565b500690565b634e487b7160e01b600052601160045260246000fd5b634e487b7160e01b600052601260045260246000fd5b634e487b7160e01b600052604160045260246000fd5b6001600160a01b038116811461331c57600080fd5b801515811461331c57600080fd5b6001600160e01b03198116811461331c57600080fdfe72bb9cd2f41a3eb637a87b61a3cb3e6bf6772f1a5774103c4fbec1f2038e34df00f52b0807fdece1f767ee6f74b46926674002b92e5176c0b1fbc1c6a045384aa49807205ce4d355092ef5a8a18f56e8913cf4a201fbe287825b095693c21775a2646970667358221220f23a9092d6a47d07db2a7e54e656cd00a0cf9e2435a3bcbb62584e7103ccabfb64736f6c63430008020033",
  "deployedBytecode": "0x608060405234801561001057600080fd5b50600436106102bb5760003560e01c80637ad237a011610182578063b88d4fde116100e9578063d5391393116100a2578063e5d7dbd71161007c578063e5d7dbd7146106f1578063e8a3d485146106f9578063e985e9c514610701578063fa83e33a1461073d576102bb565b8063d5391393146106a4578063d547741f146106cb578063da742228146106de576102bb565b8063b88d4fde14610616578063bc96832614610629578063c0ae401614610658578063c87b56dd1461066b578063cd17aa411461067e578063d3fec7cf14610691576102bb565b80639c0d90581161013b5780639c0d9058146105af578063a217fddf146105c2578063a22cb465146105ca578063a70c4709146105dd578063a91ee0dc146105f0578063a9266dde14610603576102bb565b80637ad237a0146105485780638bee92e61461055b5780638f3d9daa1461056e57806391d148541461058157806395d89b41146105945780639b64c4fc1461059c576102bb565b806336568abe116102265780635a09942f116101df5780635a09942f146104d25780635ab1bd53146104f25780636352211e146104fa5780636c7ecdff1461050d57806370a082311461052057806375b238fc14610533576102bb565b806336568abe1461044457806342842e0e146104575780634b808c461461046a5780634f558e791461048a57806355f804b31461049d578063572b6c05146104b0576102bb565b806321ab0c711161027857806321ab0c71146103b257806323b872dd146103c5578063248a9ca3146103d8578063282c51f3146103fb5780632f2ff15d14610422578063313ce56714610435576102bb565b806301ffc9a7146102c057806306fdde03146102e8578063081812fc146102fd578063095ea7b3146103285780630d363f0d1461033d578063150b7a021461037a575b600080fd5b6102d36102ce366004614500565b610750565b60405190151581526020015b60405180910390f35b6102f0610798565b6040516102df9190614b6b565b61031061030b3660046144c4565b61082b565b6040516001600160a01b0390911681526020016102df565b61033b61033636600461432a565b6108c5565b005b7ef52b0807fdece1f767ee6f74b46926674002b92e5176c0b1fbc1c6a045384b54600160801b900463ffffffff165b6040519081526020016102df565b610399610388366004614150565b630a85bd0160e11b95945050505050565b6040516001600160e01b031990911681526020016102df565b61036c6103c03660046144c4565b6109ed565b61033b6103d3366004614110565b6109f8565b61036c6103e63660046144c4565b60009081526065602052604090206001015490565b61036c7f3c11d16cbaffd01df69ce1c404f6340ee057498f5f00246190ea54220576a84881565b61033b6104303660046144dc565b610a30565b604051600081526020016102df565b61033b6104523660046144dc565b610a5d565b61033b610465366004614110565b610aeb565b61039961047836600461407f565b6325c0462360e11b9695505050505050565b6102d36104983660046144c4565b610b06565b61033b6104ab366004614538565b610b25565b6102d36104be366004613f6f565b60c9546001600160a01b0390811691161490565b6104e56104e036600461475b565b610c73565b6040516102df9190614b58565b610310610d20565b6103106105083660046144c4565b610d41565b61036c61051b3660046145d3565b610db8565b61036c61052e366004613f6f565b61117f565b61036c60008051602061519083398151915281565b61036c61055636600461427b565b611206565b6102d36105693660046146d5565b61133f565b6104e561057c36600461432a565b6113de565b6102d361058f3660046144dc565b611639565b6102f0611664565b61036c6105aa3660046144c4565b611673565b61036c6105bd366004614355565b611705565b61036c600081565b61033b6105d83660046142fd565b6118ea565b61033b6105eb366004614666565b6118fc565b61033b6105fe366004613f6f565b611aad565b61036c6106113660046144c4565b611bad565b61033b6106243660046141c0565b611bf3565b7ef52b0807fdece1f767ee6f74b46926674002b92e5176c0b1fbc1c6a045384b546001600160801b031661036c565b61036c61066636600461458f565b611c32565b6102f06106793660046144c4565b61200b565b61033b61068c366004613f6f565b6120e5565b61031061069f3660046144c4565b6121dd565b61036c7f9f2df0fed2c77648de5860a4cc508cd0818c85b8b8a1ab4ceeef8d981c8956a681565b61033b6106d93660046144dc565b6121f1565b61033b6106ec366004613f6f565b612219565b610310612271565b6102f0612287565b6102d361070f366004613f8b565b6001600160a01b039182166000908152609c6020908152604080832093909416825291909152205460ff1690565b61033b61074b366004613fc3565b6122da565b60006001600160e01b03198216630a85bd0160e11b148061078157506001600160e01b031982166317a2fd9160e21b145b80610790575061079082612433565b90505b919050565b6060609780546107a790615049565b80601f01602080910402602001604051908101604052809291908181526020018280546107d390615049565b80156108205780601f106107f557610100808354040283529160200191610820565b820191906000526020600020905b81548152906001019060200180831161080357829003601f168201915b505050505090505b90565b6000818152609960205260408120546001600160a01b03166108a95760405162461bcd60e51b815260206004820152602c60248201527f4552433732313a20617070726f76656420717565727920666f72206e6f6e657860448201526b34b9ba32b73a103a37b5b2b760a11b60648201526084015b60405180910390fd5b506000908152609b60205260409020546001600160a01b031690565b60006108d082610d41565b9050806001600160a01b0316836001600160a01b0316141561093e5760405162461bcd60e51b815260206004820152602160248201527f4552433732313a20617070726f76616c20746f2063757272656e74206f776e656044820152603960f91b60648201526084016108a0565b806001600160a01b031661095061244d565b6001600160a01b0316148061096c575061096c8161070f61244d565b6109de5760405162461bcd60e51b815260206004820152603860248201527f4552433732313a20617070726f76652063616c6c6572206973206e6f74206f7760448201527f6e6572206e6f7220617070726f76656420666f7220616c6c000000000000000060648201526084016108a0565b6109e8838361245c565b505050565b6000610790826124ca565b610a09610a0361244d565b826124f8565b610a255760405162461bcd60e51b81526004016108a090614c70565b6109e88383836125ef565b600082815260656020526040902060010154610a5381610a4e61244d565b61278f565b6109e883836127f3565b610a6561244d565b6001600160a01b0316816001600160a01b031614610add5760405162461bcd60e51b815260206004820152602f60248201527f416363657373436f6e74726f6c3a2063616e206f6e6c792072656e6f756e636560448201526e103937b632b9903337b91039b2b63360891b60648201526084016108a0565b610ae7828261287a565b5050565b6109e883838360405180602001604052806000815250611bf3565b6000818152609960205260408120546001600160a01b03161515610790565b610b3f60008051602061519083398151915261058f61244d565b610b5b5760405162461bcd60e51b81526004016108a090614d32565b60006000805160206151708339815191526002018054610b7a90615049565b80601f0160208091040260200160405190810160405280929190818152602001828054610ba690615049565b8015610bf35780601f10610bc857610100808354040283529160200191610bf3565b820191906000526020600020905b815481529060010190602001808311610bd657829003601f168201915b505050505090508282610c1160008051602061517083398151915290565b6002019190610c21929190613d08565b50610c2a61244d565b6001600160a01b03167fcad0ef056b20aa50414ef503ee13c75ff786ba9317d7f8a4379a9892310c9338828585604051610c6693929190614b7e565b60405180910390a2505050565b6060610c7e846128ff565b6040516308e3edc760e11b815260019091016004820152602481018490526044810183905273__$c8b13b5401e105a03ccb2d5c98950fab3b$__906311c7db8e9060640160006040518083038186803b158015610cda57600080fd5b505af4158015610cee573d6000803e3d6000fd5b505050506040513d6000823e601f3d908101601f19168201604052610d169190810190614387565b90505b9392505050565b60006000805160206151508339815191525b546001600160a01b0316905090565b6000818152609960205260408120546001600160a01b0316806107905760405162461bcd60e51b815260206004820152602960248201527f4552433732313a206f776e657220717565727920666f72206e6f6e657869737460448201526832b73a103a37b5b2b760b91b60648201526084016108a0565b6000610dcb610dc561244d565b876124f8565b610de75760405162461bcd60e51b81526004016108a090614c3b565b600080516020615150833981519152546001600160a01b031680610e8d578315610e235760405162461bcd60e51b81526004016108a090614d0c565b6000610e2f8780614df7565b90501180610e4857506000610e448480614df7565b9050115b610e885760405162461bcd60e51b81526020600482015260116024820152706e6f7468696e6720746f2075706461746560781b60448201526064016108a0565b610efc565b6000610e998780614df7565b90501180610eb257506000610eae8480614df7565b9050115b80610ebc57508315155b610efc5760405162461bcd60e51b81526020600482015260116024820152706e6f7468696e6720746f2075706461746560781b60448201526064016108a0565b6000610f07886128ff565b9050610f1b81610f1561244d565b89612940565b610f308183610f2861244d565b878a8a612bb5565b604051632d10763960e11b815260018201600482015273__$c8b13b5401e105a03ccb2d5c98950fab3b$__90635a20ec729060240160206040518083038186803b158015610f7d57600080fd5b505af4158015610f91573d6000803e3d6000fd5b505050506040513d601f19601f82011682018060405250810190610fb591906144a8565b15610ffb5760405162461bcd60e51b81526020600482015260166024820152756573746174652063616e6e6f7420626520656d70747960501b60448201526064016108a0565b6040516331884dd560e21b815260018201600482015273__$c8b13b5401e105a03ccb2d5c98950fab3b$__9063c62137549060240160206040518083038186803b15801561104857600080fd5b505af415801561105c573d6000803e3d6000fd5b505050506040513d601f19601f8201168201806040525081019061108091906144a8565b61109c5760405162461bcd60e51b81526004016108a090614c15565b80546110a790612e90565b808255887f9d558f479216a061e3c0dd35693fdc4904a085e0ec5582272591dda3f9ab27c46110d461244d565b604051636429e7ff60e11b815260018601600482015273__$c8b13b5401e105a03ccb2d5c98950fab3b$__9063c853cffe9060240160006040518083038186803b15801561112157600080fd5b505af4158015611135573d6000803e3d6000fd5b505050506040513d6000823e601f3d908101601f1916820160405261115d9190810190614387565b60405161116b929190614a83565b60405180910390a354979650505050505050565b60006001600160a01b0382166111ea5760405162461bcd60e51b815260206004820152602a60248201527f4552433732313a2062616c616e636520717565727920666f7220746865207a65604482015269726f206164647265737360b01b60648201526084016108a0565b506001600160a01b03166000908152609a602052604090205490565b60006112347f9f2df0fed2c77648de5860a4cc508cd0818c85b8b8a1ab4ceeef8d981c8956a661058f61244d565b6112715760405162461bcd60e51b815260206004820152600e60248201526d1b9bdd08185d5d1a1bdc9a5e995960921b60448201526064016108a0565b600061127c85612ec3565b60405163286d30af60e21b815290915073__$c8b13b5401e105a03ccb2d5c98950fab3b$__9063a1b4c2bc906112bd90600185019088908890600401614d55565b60006040518083038186803b1580156112d557600080fd5b505af41580156112e9573d6000803e3d6000fd5b5050505080600001547f8ba5d7096a6e37fd8a143e486dbc3dc12dc25159042fca9431af78475768d5d961131b61244d565b87878760405161132e949392919061494e565b60405180910390a254949350505050565b600061134a836128ff565b60405163f5fd439d60e01b815273__$c8b13b5401e105a03ccb2d5c98950fab3b$__9163f5fd439d9161138591600101908690600401614d9c565b60206040518083038186803b15801561139d57600080fd5b505af41580156113b1573d6000803e3d6000fd5b505050506040513d601f19601f820116820180604052508101906113d591906144a8565b90505b92915050565b606061140c7f3c11d16cbaffd01df69ce1c404f6340ee057498f5f00246190ea54220576a84861058f61244d565b6114495760405162461bcd60e51b815260206004820152600e60248201526d1b9bdd08185d5d1a1bdc9a5e995960921b60448201526064016108a0565b61145383836124f8565b61146f5760405162461bcd60e51b81526004016108a090614c3b565b600061147a836128ff565b604051636429e7ff60e11b815260018201600482015290915073__$c8b13b5401e105a03ccb2d5c98950fab3b$__9063c853cffe9060240160006040518083038186803b1580156114ca57600080fd5b505af41580156114de573d6000803e3d6000fd5b505050506040513d6000823e601f3d908101601f191682016040526115069190810190614387565b600080516020615150833981519152549092506001600160a01b031680156115e55760405163ad51dacb60e01b81526001600160a01b0382169063ad51dacb90611554908690600401614b58565b60206040518083038186803b15801561156c57600080fd5b505afa158015611580573d6000803e3d6000fd5b505050506040513d601f19601f820116820180604052508101906115a491906144a8565b156115e55760405162461bcd60e51b81526020600482015260116024820152701b5d5cdd081d5b9b1a5b9ac8199a5c9cdd607a1b60448201526064016108a0565b6115ee82612f63565b837fa95f078511bfff5e18ae1876d396070153217e28e9939b24ee2b407bea5c93da61161861244d565b8786604051611629939291906149a7565b60405180910390a2505092915050565b60009182526065602090815260408084206001600160a01b0393909316845291905290205460ff1690565b6060609880546107a790615049565b600061167e826128ff565b60405163158eeb9f60e31b81526001909101600482015273__$c8b13b5401e105a03ccb2d5c98950fab3b$__9063ac775cf8906024015b60206040518083038186803b1580156116cd57600080fd5b505af41580156116e1573d6000803e3d6000fd5b505050506040513d601f19601f820116820180604052508101906107909190614577565b60008061171861171361244d565b612ec3565b905060006117268480614df7565b9050116117665760405162461bcd60e51b815260206004820152600e60248201526d1b9bdd1a1a5b99c81d1bc818591960921b60448201526064016108a0565b6117788161177261244d565b85612940565b6040516331884dd560e21b815260018201600482015273__$c8b13b5401e105a03ccb2d5c98950fab3b$__9063c62137549060240160206040518083038186803b1580156117c557600080fd5b505af41580156117d9573d6000803e3d6000fd5b505050506040513d601f19601f820116820180604052508101906117fd91906144a8565b6118195760405162461bcd60e51b81526004016108a090614c15565b80547f1fdc5a6efe117110d3a653439a0b1fedc9258a17c8b2477c5c7586accb26d28961184461244d565b604051636429e7ff60e11b815260018501600482015273__$c8b13b5401e105a03ccb2d5c98950fab3b$__9063c853cffe9060240160006040518083038186803b15801561189157600080fd5b505af41580156118a5573d6000803e3d6000fd5b505050506040513d6000823e601f3d908101601f191682016040526118cd9190810190614387565b6040516118db929190614a83565b60405180910390a25492915050565b610ae76118f561244d565b838361303a565b61190d61190761244d565b856124f8565b6119295760405162461bcd60e51b81526004016108a090614c3b565b6000611934856128ff565b600080516020615150833981519152549091506001600160a01b031683158061196557506001600160a01b03811615155b6119815760405162461bcd60e51b81526004016108a090614d0c565b611996828261198e61244d565b868989612bb5565b604051632d10763960e11b815260018301600482015273__$c8b13b5401e105a03ccb2d5c98950fab3b$__90635a20ec729060240160206040518083038186803b1580156119e357600080fd5b505af41580156119f7573d6000803e3d6000fd5b505050506040513d601f19601f82011682018060405250810190611a1b91906144a8565b611a575760405162461bcd60e51b815260206004820152600d60248201526c6d6170206e6f7420656d70747960981b60448201526064016108a0565b611a6082612f63565b857fc16ce9c4d0002876fc4c9679fc409385f51b8d3659a3b307d9a35931081bcc3f611a8a61244d565b6040516001600160a01b03909116815260200160405180910390a2505050505050565b611ac760008051602061519083398151915261058f61244d565b611ae35760405162461bcd60e51b81526004016108a090614d32565b6001600160a01b038116611b2b5760405162461bcd60e51b815260206004820152600f60248201526e696e76616c6964206164647265737360881b60448201526064016108a0565b60008051602061515083398151915280546001600160a01b038381166001600160a01b031983161790925516611b5f61244d565b604080516001600160a01b038481168252858116602083015292909216917f814a095c46e008854bbfd092e4981c02e2e623d3ba415d78ff58b5900956c16491015b60405180910390a25050565b6000611bb8826128ff565b604051630f858a2960e31b81526001909101600482015273__$c8b13b5401e105a03ccb2d5c98950fab3b$__90637c2c5148906024016116b5565b611c04611bfe61244d565b836124f8565b611c205760405162461bcd60e51b81526004016108a090614c70565b611c2c84848484613109565b50505050565b6000611c45611c3f61244d565b846124f8565b611c615760405162461bcd60e51b81526004016108a090614c3b565b6000611c6d8380614df7565b905011611cad5760405162461bcd60e51b815260206004820152600e60248201526d1b9bdd1a1a5b99c81d1bc818591960921b60448201526064016108a0565b6000611cb8846128ff565b9050611cc48380614df7565b905060011415611e7f5773__$c8b13b5401e105a03ccb2d5c98950fab3b$__638addfdc460018301611cf96020870187614df7565b6000818110611d1857634e487b7160e01b600052603260045260246000fd5b9050602002013586600260038110611d4057634e487b7160e01b600052603260045260246000fd5b602002810190611d509190614df7565b6000818110611d6f57634e487b7160e01b600052603260045260246000fd5b9050602002013587600060038110611d9757634e487b7160e01b600052603260045260246000fd5b602002810190611da79190614df7565b6000818110611dc657634e487b7160e01b600052603260045260246000fd5b905060200201356040518563ffffffff1660e01b8152600401611e02949392919093845260208401929092526040830152606082015260800190565b60206040518083038186803b158015611e1a57600080fd5b505af4158015611e2e573d6000803e3d6000fd5b505050506040513d601f19601f82011682018060405250810190611e5291906144a8565b611e6e5760405162461bcd60e51b81526004016108a090614c15565b611e7a8161177261244d565b611f2c565b611e8b8161177261244d565b6040516331884dd560e21b815260018201600482015273__$c8b13b5401e105a03ccb2d5c98950fab3b$__9063c62137549060240160206040518083038186803b158015611ed857600080fd5b505af4158015611eec573d6000803e3d6000fd5b505050506040513d601f19601f82011682018060405250810190611f1091906144a8565b611f2c5760405162461bcd60e51b81526004016108a090614c15565b8054611f3790612e90565b808255847f412391f5f3bd0705db9b0ab9939daa3ba27c2e72ff1f3e171425cc00406ac58a611f6461244d565b604051636429e7ff60e11b815260018601600482015273__$c8b13b5401e105a03ccb2d5c98950fab3b$__9063c853cffe9060240160006040518083038186803b158015611fb157600080fd5b505af4158015611fc5573d6000803e3d6000fd5b505050506040513d6000823e601f3d908101601f19168201604052611fed9190810190614387565b604051611ffb929190614a83565b60405180910390a3549392505050565b6000818152609960205260409020546060906001600160a01b031661208a5760405162461bcd60e51b815260206004820152602f60248201527f4552433732314d657461646174613a2055524920717565727920666f72206e6f60448201526e3732bc34b9ba32b73a103a37b5b2b760891b60648201526084016108a0565b600061209461313c565b905060008151116120b45760405180602001604052806000815250610d19565b806120be8461315b565b6040516020016120cf929190614873565b6040516020818303038152906040529392505050565b6120ff60008051602061519083398151915261058f61244d565b61211b5760405162461bcd60e51b81526004016108a090614d32565b6001600160a01b0381166121635760405162461bcd60e51b815260206004820152600f60248201526e696e76616c6964206164647265737360881b60448201526064016108a0565b60008051602061517083398151915280546001600160a01b038381166001600160a01b03198316179092551661219761244d565b604080516001600160a01b038481168252858116602083015292909216917f43348694b30dafadd67997415d04baa9eed18579262b5bd26256362b89b575c29101611ba1565b60006107906121eb836128ff565b54610d41565b60008281526065602052604090206001015461220f81610a4e61244d565b6109e8838361287a565b61223360008051602061519083398151915261058f61244d565b61224f5760405162461bcd60e51b81526004016108a090614d32565b60c980546001600160a01b0319166001600160a01b0392909216919091179055565b6000600080516020615170833981519152610d32565b6060600061229361313c565b905060008151116122b357604051806020016040528060008152506122d4565b806040516020016122c491906148a2565b6040516020818303038152906040525b91505090565b600054610100900460ff166122f55760005460ff16156122f9565b303b155b61235c5760405162461bcd60e51b815260206004820152602e60248201527f496e697469616c697a61626c653a20636f6e747261637420697320616c72656160448201526d191e481a5b9a5d1a585b1a5e995960921b60648201526084016108a0565b600054610100900460ff16158015612387576000805460ff1961ff0019909116610100171660011790555b61239089613275565b61240385858080601f01602080910402602001604051908101604052809392919081815260200183838082843760009201919091525050604080516020601f8901819004810282018101909252878152925087915086908190840183828082843760009201919091525061329c92505050565b61240c886132ea565b612416878761331f565b8015612428576000805461ff00191690555b505050505050505050565b600061243e826133b4565b806107905750610790826133ef565b6000612457613424565b905090565b6000818152609b6020526040902080546001600160a01b0319166001600160a01b038416908117909155819061249182610d41565b6001600160a01b03167f8c5be1e5ebec7d5bd14f71427d1e84f3dd0314c0f7b2291e5b200ac8c7c3b92560405160405180910390a45050565b60006124d860606002614eff565b6124e460606002614eff565b6124ee9084614ea5565b6107909190614fd0565b6000818152609960205260408120546001600160a01b03166125715760405162461bcd60e51b815260206004820152602c60248201527f4552433732313a206f70657261746f7220717565727920666f72206e6f6e657860448201526b34b9ba32b73a103a37b5b2b760a11b60648201526084016108a0565b600061257c83610d41565b9050806001600160a01b0316846001600160a01b031614806125b75750836001600160a01b03166125ac8461082b565b6001600160a01b0316145b806125e757506001600160a01b038082166000908152609c602090815260408083209388168352929052205460ff165b949350505050565b826001600160a01b031661260282610d41565b6001600160a01b03161461266a5760405162461bcd60e51b815260206004820152602960248201527f4552433732313a207472616e73666572206f6620746f6b656e2074686174206960448201526839903737ba1037bbb760b91b60648201526084016108a0565b6001600160a01b0382166126cc5760405162461bcd60e51b8152602060048201526024808201527f4552433732313a207472616e7366657220746f20746865207a65726f206164646044820152637265737360e01b60648201526084016108a0565b6126d760008261245c565b6001600160a01b0383166000908152609a60205260408120805460019290612700908490614fef565b90915550506001600160a01b0382166000908152609a6020526040812080546001929061272e908490614e8d565b909155505060008181526099602052604080822080546001600160a01b0319166001600160a01b0386811691821790925591518493918716917fddf252ad1be2c89b69c2b068fc378daa952ba7f163c4a11628f55a4df523b3ef91a4505050565b6127998282611639565b610ae7576127b1816001600160a01b03166014613450565b6127bc836020613450565b6040516020016127cd9291906148d9565b60408051601f198184030181529082905262461bcd60e51b82526108a091600401614b6b565b6127fd8282611639565b610ae75760008281526065602090815260408083206001600160a01b03851684529091529020805460ff1916600117905561283661244d565b6001600160a01b0316816001600160a01b0316837f2f8788117e7eff1d82e926ec794901d17c78024a50270940304540a733656f0d60405160405180910390a45050565b6128848282611639565b15610ae75760008281526065602090815260408083206001600160a01b03851684529091529020805460ff191690556128bb61244d565b6001600160a01b0316816001600160a01b0316837ff6391f5c32d9c69d2a47ea670b442974b53935d1edc7fd64eb21e047a839171b60405160405180910390a45050565b60007ef52b0807fdece1f767ee6f74b46926674002b92e5176c0b1fbc1c6a045384d8161292b846124ca565b81526020019081526020016000209050919050565b600061294c8280614df7565b915061295d90506020830183614df7565b90508114801561297a57506129756040830183614df7565b905081145b6129965760405162461bcd60e51b81526004016108a090614d0c565b60005b81811015612b155773__$c8b13b5401e105a03ccb2d5c98950fab3b$__63f9b9fec6600187016129cc6020870187614df7565b858181106129ea57634e487b7160e01b600052603260045260246000fd5b9050602002013586600260038110612a1257634e487b7160e01b600052603260045260246000fd5b602002810190612a229190614df7565b86818110612a4057634e487b7160e01b600052603260045260246000fd5b9050602002013587600060038110612a6857634e487b7160e01b600052603260045260246000fd5b602002810190612a789190614df7565b87818110612a9657634e487b7160e01b600052603260045260246000fd5b905060200201356040518563ffffffff1660e01b8152600401612ad2949392919093845260208401929092526040830152606082015260800190565b60006040518083038186803b158015612aea57600080fd5b505af4158015612afe573d6000803e3d6000fd5b505050508080612b0d906150a5565b915050612999565b50600080516020615170833981519152546001600160a01b031663eaa5e0678430612b408680614df7565b612b4d6020890189614df7565b612b5a60408b018b614df7565b6040518963ffffffff1660e01b8152600401612b7d9897969594939291906149d3565b600060405180830381600087803b158015612b9757600080fd5b505af1158015612bab573d6000803e3d6000fd5b5050505050505050565b6000612bc18480614df7565b9150612bd290506020850185614df7565b905081148015612bef5750612bea6040850185614df7565b905081145b612c2f5760405162461bcd60e51b8152602060048201526011602482015270696e76616c69642071756164206461746160781b60448201526064016108a0565b6001600160a01b03861615612d64578115612ca757604051630910168560e11b81526001600160a01b038716906312202d0a90612c7490889087908790600401614aa7565b600060405180830381600087803b158015612c8e57600080fd5b505af1158015612ca2573d6000803e3d6000fd5b505050505b604051633cbe399760e01b81526001600160a01b03871690633cbe399790612cd3908790600401614acc565b60206040518083038186803b158015612ceb57600080fd5b505afa158015612cff573d6000803e3d6000fd5b505050506040513d601f19601f82011682018060405250810190612d2391906144a8565b15612d645760405162461bcd60e51b81526020600482015260116024820152701b5d5cdd081d5b9b1a5b9ac8199a5c9cdd607a1b60448201526064016108a0565b600080516020615170833981519152546001600160a01b03166001880160005b83811015612e8457612e72888385612d9c8b80614df7565b86818110612dba57634e487b7160e01b600052603260045260246000fd5b905060200201358b600160038110612de257634e487b7160e01b600052603260045260246000fd5b602002810190612df29190614df7565b87818110612e1057634e487b7160e01b600052603260045260246000fd5b905060200201358c600260038110612e3857634e487b7160e01b600052603260045260246000fd5b602002810190612e489190614df7565b88818110612e6657634e487b7160e01b600052603260045260246000fd5b90506020020135613631565b80612e7c816150a5565b915050612d84565b50505050505050505050565b600080612e9c83610d41565b9050612ea783613932565b612eb0836139cd565b9250612ebc81846139fa565b5090919050565b600080612f436000805160206151708339815191526001018054600090612ef2906001600160801b031661507e565b91906101000a8154816001600160801b0302191690836001600160801b031602179055612f2a60008051602061517083398151915290565b600190810154600160801b900463ffffffff1690613b3c565b9050612f4e816128ff565b8181559150612f5d83826139fa565b50919050565b604051632c87615360e11b815260018201600482015273__$c8b13b5401e105a03ccb2d5c98950fab3b$__9063590ec2a69060240160006040518083038186803b158015612fb057600080fd5b505af4158015612fc4573d6000803e3d6000fd5b5050506001820190506000612fd98282613d8c565b505080547ef52b0807fdece1f767ee6f74b46926674002b92e5176c0b1fbc1c6a045384d6000613008836124ca565b81526020810191909152604001600090812081815590600182018161302d8282613d8c565b50505050610ae781613932565b816001600160a01b0316836001600160a01b0316141561309c5760405162461bcd60e51b815260206004820152601960248201527f4552433732313a20617070726f766520746f2063616c6c65720000000000000060448201526064016108a0565b6001600160a01b038381166000818152609c6020908152604080832094871680845294825291829020805460ff191686151590811790915591519182527f17307eab39ab6107e8899845ad3d59bd9653f200f220920489ca2b5937696c31910160405180910390a3505050565b6131148484846125ef565b61312084848484613b9c565b611c2c5760405162461bcd60e51b81526004016108a090614bc3565b606060008051602061517083398151915260020180546107a790615049565b60608161318057506040805180820190915260018152600360fc1b6020820152610793565b8160005b81156131aa5780613194816150a5565b91506131a39050600a83614ea5565b9150613184565b6000816001600160401b038111156131d257634e487b7160e01b600052604160045260246000fd5b6040519080825280601f01601f1916602001820160405280156131fc576020820181803683370190505b5090505b84156125e757613211600183614fef565b915061321e600a866150c0565b613229906030614e8d565b60f81b81838151811061324c57634e487b7160e01b600052603260045260246000fd5b60200101906001600160f81b031916908160001a90535061326e600a86614ea5565b9450613200565b600054610100900460ff1661224f5760405162461bcd60e51b81526004016108a090614cc1565b600054610100900460ff166132c35760405162461bcd60e51b81526004016108a090614cc1565b81516132d6906097906020850190613dad565b5080516109e8906098906020840190613dad565b600054610100900460ff166133115760405162461bcd60e51b81526004016108a090614cc1565b61331c600082613cb0565b50565b600054610100900460ff166133465760405162461bcd60e51b81526004016108a090614cc1565b60008051602061517083398151915280546001600160a01b0319166001600160a01b0393909316929092179091557ef52b0807fdece1f767ee6f74b46926674002b92e5176c0b1fbc1c6a045384b805463ffffffff60801b191661ffff909216600160801b02919091179055565b60006001600160e01b031982166380ac58cd60e01b148061243e57506001600160e01b03198216635b5e139f60e01b14806107905750610790825b60006001600160e01b03198216637965db0b60e01b148061079057506301ffc9a760e01b6001600160e01b0319831614610790565b60c9546000906001600160a01b0316331415613449575060131936013560601c610828565b5033610828565b6060600061345f836002614fd0565b61346a906002614e8d565b6001600160401b0381111561348f57634e487b7160e01b600052604160045260246000fd5b6040519080825280601f01601f1916602001820160405280156134b9576020820181803683370190505b509050600360fc1b816000815181106134e257634e487b7160e01b600052603260045260246000fd5b60200101906001600160f81b031916908160001a905350600f60fb1b8160018151811061351f57634e487b7160e01b600052603260045260246000fd5b60200101906001600160f81b031916908160001a9053506000613543846002614fd0565b61354e906001614e8d565b90505b60018111156135e2576f181899199a1a9b1b9c1cb0b131b232b360811b85600f166010811061359057634e487b7160e01b600052603260045260246000fd5b1a60f81b8282815181106135b457634e487b7160e01b600052603260045260246000fd5b60200101906001600160f81b031916908160001a90535060049490941c936135db81615032565b9050613551565b5083156113d55760405162461bcd60e51b815260206004820181905260248201527f537472696e67733a20686578206c656e67746820696e73756666696369656e7460448201526064016108a0565b604051630a2a008760e31b81526004810186905260248101839052604481018290526064810184905273__$c8b13b5401e105a03ccb2d5c98950fab3b$__9063515004389060840160206040518083038186803b15801561369157600080fd5b505af41580156136a5573d6000803e3d6000fd5b505050506040513d601f19601f820116820180604052508101906136c991906144a8565b6137045760405162461bcd60e51b815260206004820152600c60248201526b71756164206d697373696e6760a01b60448201526064016108a0565b60405163e8485b0760e01b81526004810186905260248101839052604481018290526064810184905273__$c8b13b5401e105a03ccb2d5c98950fab3b$__9063e8485b079060840160206040518083038186803b15801561376457600080fd5b505af4158015613778573d6000803e3d6000fd5b505050506040513d601f19601f8201168201806040525081019061379c91906144a8565b506040516355064d8560e01b81526004810184905260248101839052604481018290526001600160a01b038516906355064d859060640160206040518083038186803b1580156137eb57600080fd5b505afa1580156137ff573d6000803e3d6000fd5b505050506040513d601f19601f8201168201806040525081019061382391906144a8565b6138aa57604051636e1e3bbf60e01b81526001600160a01b03878116600483015260248201859052604482018490526064820183905260a06084830152600060a4830152851690636e1e3bbf9060c401600060405180830381600087803b15801561388d57600080fd5b505af11580156138a1573d6000803e3d6000fd5b5050505061392a565b604051631c5d982d60e11b81523060048201526001600160a01b03878116602483015260448201859052606482018490526084820183905260c060a4830152600060c48301528516906338bb305a9060e401600060405180830381600087803b15801561391657600080fd5b505af1158015612e84573d6000803e3d6000fd5b505050505050565b600061393d82610d41565b905061394a60008361245c565b6001600160a01b0381166000908152609a60205260408120805460019290613973908490614fef565b909155505060008281526099602052604080822080546001600160a01b0319169055518391906001600160a01b038416907fddf252ad1be2c89b69c2b068fc378daa952ba7f163c4a11628f55a4df523b3ef908390a45050565b6000806000806139dc85613cba565b919450925060010190506139f1838383613b3c565b95945050505050565b6001600160a01b038216613a505760405162461bcd60e51b815260206004820181905260248201527f4552433732313a206d696e7420746f20746865207a65726f206164647265737360448201526064016108a0565b6000818152609960205260409020546001600160a01b031615613ab55760405162461bcd60e51b815260206004820152601c60248201527f4552433732313a20746f6b656e20616c7265616479206d696e7465640000000060448201526064016108a0565b6001600160a01b0382166000908152609a60205260408120805460019290613ade908490614e8d565b909155505060008181526099602052604080822080546001600160a01b0319166001600160a01b03861690811790915590518392907fddf252ad1be2c89b69c2b068fc378daa952ba7f163c4a11628f55a4df523b3ef908290a45050565b60006bffffffffffffffffffffffff8216613b5960606002614eff565b613b699063ffffffff8616614fd0565b613b7560806002614eff565b613b88906001600160801b038816614fd0565b613b929190614e8d565b610d169190614e8d565b60006001600160a01b0384163b15613ca557836001600160a01b031663150b7a02613bc561244d565b8786866040518563ffffffff1660e01b8152600401613be79493929190614a46565b602060405180830381600087803b158015613c0157600080fd5b505af1925050508015613c31575060408051601f3d908101601f19168201909252613c2e9181019061451c565b60015b613c8b573d808015613c5f576040519150601f19603f3d011682016040523d82523d6000602084013e613c64565b606091505b508051613c835760405162461bcd60e51b81526004016108a090614bc3565b805181602001fd5b6001600160e01b031916630a85bd0160e11b1490506125e7565b506001949350505050565b610ae782826127f3565b60008080613cca60806002614eff565b613cd49085614ea5565b613ce060606002614eff565b613cea9086614ea5565b6001600160401b03919091169561ffff918216959091169350915050565b828054613d1490615049565b90600052602060002090601f016020900481019282613d365760008555613d7c565b82601f10613d4f5782800160ff19823516178555613d7c565b82800160010185558215613d7c579182015b82811115613d7c578235825591602001919060010190613d61565b50613d88929150613e21565b5090565b508054600082556003029060005260206000209081019061331c9190613e36565b828054613db990615049565b90600052602060002090601f016020900481019282613ddb5760008555613d7c565b82601f10613df457805160ff1916838001178555613d7c565b82800160010185558215613d7c579182015b82811115613d7c578251825591602001919060010190613e06565b5b80821115613d885760008155600101613e22565b80821115613d88576000808255600182018190556002820155600301613e36565b80606081018310156113d857600080fd5b60008083601f840112613e79578182fd5b5081356001600160401b03811115613e8f578182fd5b6020830191508360208083028501011115613ea957600080fd5b9250929050565b60008083601f840112613ec1578182fd5b5081356001600160401b03811115613ed7578182fd5b602083019150836020828501011115613ea957600080fd5b600060608284031215613f00578081fd5b6020613f0b81614e3d565b9150613f1681614e3d565b84601f850112613f2557600080fd5b613f2f6060614e3d565b808587606088011115613f4157600080fd5b60005b6003811015613f6157813584529285019290850190600101613f44565b505082525082525092915050565b600060208284031215613f80578081fd5b81356113d581615116565b60008060408385031215613f9d578081fd5b8235613fa881615116565b91506020830135613fb881615116565b809150509250929050565b60008060008060008060008060c0898b031215613fde578384fd5b8835613fe981615116565b97506020890135613ff981615116565b9650604089013561400981615116565b9550606089013561ffff8116811461401f578485fd5b945060808901356001600160401b038082111561403a578586fd5b6140468c838d01613eb0565b909650945060a08b013591508082111561405e578384fd5b5061406b8b828c01613eb0565b999c989b5096995094979396929594505050565b60008060008060008060808789031215614097578384fd5b86356140a281615116565b955060208701356140b281615116565b945060408701356001600160401b03808211156140cd578586fd5b6140d98a838b01613e68565b909650945060608901359150808211156140f1578384fd5b506140fe89828a01613eb0565b979a9699509497509295939492505050565b600080600060608486031215614124578081fd5b833561412f81615116565b9250602084013561413f81615116565b929592945050506040919091013590565b600080600080600060808688031215614167578283fd5b853561417281615116565b9450602086013561418281615116565b93506040860135925060608601356001600160401b038111156141a3578182fd5b6141af88828901613eb0565b969995985093965092949392505050565b600080600080608085870312156141d5578182fd5b84356141e081615116565b93506020858101356141f181615116565b93506040860135925060608601356001600160401b0380821115614213578384fd5b818801915088601f830112614226578384fd5b81358181111561423857614238615100565b61424a601f8201601f19168501614e3d565b9150808252898482850101111561425f578485fd5b8084840185840137810190920192909252939692955090935050565b60008060006040848603121561428f578081fd5b833561429a81615116565b925060208401356001600160401b03808211156142b5578283fd5b818601915086601f8301126142c8578283fd5b8135818111156142d6578384fd5b8760206060830285010111156142ea578384fd5b6020830194508093505050509250925092565b6000806040838503121561430f578182fd5b823561431a81615116565b91506020830135613fb88161512b565b6000806040838503121561433c578182fd5b823561434781615116565b946020939093013593505050565b600060208284031215614366578081fd5b81356001600160401b0381111561437b578182fd5b6125e784828501613e57565b60006020808385031215614399578182fd5b82516001600160401b03808211156143af578384fd5b818501915085601f8301126143c2578384fd5b8151818111156143d4576143d4615100565b6143e18485830201614e3d565b81815284810192508385016060808402860187018a1015614400578788fd5b8795505b8386101561449a5780828b03121561441a578788fd5b61442387614e3d565b61442c88614e3d565b8b601f85011261443a57898afd5b61444c6144476003614e6d565b614e3d565b80858587018f81111561445d578d8efd5b8d5b600381101561447c5782518552938d0193918d019160010161445f565b50918452509183525090865260019690960195948701949150614404565b509098975050505050505050565b6000602082840312156144b9578081fd5b81516113d58161512b565b6000602082840312156144d5578081fd5b5035919050565b600080604083850312156144ee578182fd5b823591506020830135613fb881615116565b600060208284031215614511578081fd5b81356113d581615139565b60006020828403121561452d578081fd5b81516113d581615139565b6000806020838503121561454a578182fd5b82356001600160401b0381111561455f578283fd5b61456b85828601613eb0565b90969095509350505050565b600060208284031215614588578081fd5b5051919050565b600080604083850312156145a1578182fd5b8235915060208301356001600160401b038111156145bd578182fd5b6145c985828601613e57565b9150509250929050565b6000806000806000608086880312156145ea578283fd5b8535945060208601356001600160401b0380821115614607578485fd5b61461389838a01613e57565b95506040880135915080821115614628578485fd5b61463489838a01613e68565b9095509350606088013591508082111561464c578283fd5b5061465988828901613e57565b9150509295509295909350565b6000806000806060858703121561467b578182fd5b8435935060208501356001600160401b0380821115614698578384fd5b6146a488838901613e68565b909550935060408701359150808211156146bc578283fd5b506146c987828801613e57565b91505092959194509250565b6000808284036101a08112156146e9578283fd5b83359250610180601f19820112156146ff578182fd5b5061470a6080614e3d565b6147178560208601613eef565b81526147268560808601613eef565b60208201526147388560e08601613eef565b604082015261474b856101408601613eef565b6060820152809150509250929050565b60008060006060848603121561476f578081fd5b505081359360208301359350604090920135919050565b6000815180845260208085019450808401835b838110156147db578151515187865b60038110156147c5578251825291850191908501906001016147a8565b5050506060969096019590820190600101614799565b509495945050505050565b81835260006001600160fb1b038311156147fe578081fd5b6020830280836020870137939093016020019283525090919050565b60008151808452614832816020860160208601615006565b601f01601f19169290920160200192915050565b8051518260005b600381101561486c57825182526020928301929091019060010161484d565b5050505050565b60008351614885818460208801615006565b835190830190614899818360208801615006565b01949350505050565b600082516148b4818460208701615006565b723837b63cb3b7b72fb2b9ba30ba32973539b7b760691b920191825250601301919050565b60007f416363657373436f6e74726f6c3a206163636f756e742000000000000000000082528351614911816017850160208801615006565b7001034b99036b4b9b9b4b733903937b6329607d1b6017918401918201528351614942816028840160208801615006565b01602801949350505050565b6001600160a01b038581168252841660208201526060604082018190528181018390526000908460808401835b8681101561499a5783838337908301848152918301919060010161497b565b5098975050505050505050565b6001600160a01b038481168252831660208201526060604082018190526000906139f190830184614786565b6001600160a01b0389811682528816602082015260c060408201819052600090614a00908301888a6147e6565b8281036060840152614a138187896147e6565b90508281036080840152614a288185876147e6565b83810360a09094019390935250815260200198975050505050505050565b6001600160a01b0385811682528416602082015260408101839052608060608201819052600090614a799083018461481a565b9695505050505050565b6001600160a01b0383168152604060208201819052600090610d1690830184614786565b6001600160a01b03841681526040602082018190526000906139f190830184866147e6565b60208082526000906080830183820185845b6003811015614b4c57868403601f19018352813536899003601e19018112614b04578687fd5b880180356001600160401b03811115614b1b578788fd5b86810236038a1315614b2b578788fd5b614b3886828985016147e6565b955050509184019190840190600101614ade565b50919695505050505050565b6000602082526113d56020830184614786565b6000602082526113d5602083018461481a565b600060408252614b91604083018661481a565b82810360208401528381528385602083013781602085830101526020601f19601f860116820101915050949350505050565b60208082526032908201527f4552433732313a207472616e7366657220746f206e6f6e20455243373231526560408201527131b2b4bb32b91034b6b83632b6b2b73a32b960711b606082015260800190565b6020808252600c908201526b1b9bdd0818591a9858d95b9d60a21b604082015260600190565b6020808252818101527f63616c6c6572206973206e6f74206f776e6572206e6f7220617070726f766564604082015260600190565b60208082526031908201527f4552433732313a207472616e736665722063616c6c6572206973206e6f74206f6040820152701ddb995c881b9bdc88185c1c1c9bdd9959607a1b606082015260800190565b6020808252602b908201527f496e697469616c697a61626c653a20636f6e7472616374206973206e6f74206960408201526a6e697469616c697a696e6760a81b606082015260800190565b6020808252600c908201526b696e76616c6964206461746160a01b604082015260600190565b6020808252600990820152683737ba1030b236b4b760b91b604082015260600190565b83815260406020820181905281018290526000606080830185835b86811015614d8f57838284379183018481529190830190600101614d70565b5090979650505050505050565b60006101a082019050838252614db6602083018451614846565b6020830151614dc86080840182614846565b506040830151614ddb60e0840182614846565b506060830151614def610140840182614846565b509392505050565b6000808335601e19843603018112614e0d578283fd5b8301803591506001600160401b03821115614e26578283fd5b6020908101925081023603821315613ea957600080fd5b604051601f8201601f191681016001600160401b0381118282101715614e6557614e65615100565b604052919050565b60006001600160401b03821115614e8657614e86615100565b5060200290565b60008219821115614ea057614ea06150d4565b500190565b600082614eb457614eb46150ea565b500490565b80825b6001808611614ecb5750614ef6565b818704821115614edd57614edd6150d4565b80861615614eea57918102915b9490941c938002614ebc565b94509492505050565b60006113d560001960ff851684600082614f1b57506001610d19565b81614f2857506000610d19565b8160018114614f3e5760028114614f4857614f75565b6001915050610d19565b60ff841115614f5957614f596150d4565b6001841b915084821115614f6f57614f6f6150d4565b50610d19565b5060208310610133831016604e8410600b8410161715614fa8575081810a83811115614fa357614fa36150d4565b610d19565b614fb58484846001614eb9565b808604821115614fc757614fc76150d4565b02949350505050565b6000816000190483118215151615614fea57614fea6150d4565b500290565b600082821015615001576150016150d4565b500390565b60005b83811015615021578181015183820152602001615009565b83811115611c2c5750506000910152565b600081615041576150416150d4565b506000190190565b60028104600182168061505d57607f821691505b60208210811415612f5d57634e487b7160e01b600052602260045260246000fd5b60006001600160801b038083168181141561509b5761509b6150d4565b6001019392505050565b60006000198214156150b9576150b96150d4565b5060010190565b6000826150cf576150cf6150ea565b500690565b634e487b7160e01b600052601160045260246000fd5b634e487b7160e01b600052601260045260246000fd5b634e487b7160e01b600052604160045260246000fd5b6001600160a01b038116811461331c57600080fd5b801515811461331c57600080fd5b6001600160e01b03198116811461331c57600080fdfe72bb9cd2f41a3eb637a87b61a3cb3e6bf6772f1a5774103c4fbec1f2038e34df00f52b0807fdece1f767ee6f74b46926674002b92e5176c0b1fbc1c6a045384aa49807205ce4d355092ef5a8a18f56e8913cf4a201fbe287825b095693c21775a2646970667358221220f23a9092d6a47d07db2a7e54e656cd00a0cf9e2435a3bcbb62584e7103ccabfb64736f6c63430008020033",
  "libraries": {
    "MapLib": "0xAbA89821c0eeBBe019b895e2c7A3b853DCB884c8"
  },
  "devdoc": {
    "events": {
      "EstateRegistryChanged(address,address,address)": {
        "details": "Emitted when the registry is changed",
        "params": {
          "newRegistry": "new address of the registry",
          "oldRegistry": "old address of the registry",
          "operator": "The msg sender"
        }
      }
    },
    "kind": "dev",
    "methods": {
      "addLand(uint256,uint256[][3])": {
        "params": {
          "landToAdd": "The set of quads to add.",
          "oldId": "the estate id that will be updated"
        },
        "returns": {
          "_0": "estateId the new estate Id"
        }
      },
      "approve(address,uint256)": {
        "details": "See {IERC721-approve}."
      },
      "balanceOf(address)": {
        "details": "See {IERC721-balanceOf}."
      },
      "burn(uint256,uint256[],uint256[][3])": {
        "details": "to be able to remove lands they must be completely unlinked from any experience (in the registry)to be able to burn an estate it must be empty",
        "params": {
          "estateId": "the estate id that will be updated",
          "expToUnlink": "experiences to unlink",
          "landToRemove": "The set of quads to remove."
        }
      },
      "burnEstate(address,uint256)": {
        "details": "to be able to bridge an estate all the lands must be unlinked (we don't have a registry on L1)",
        "params": {
          "estateId": "the id of the estate token",
          "from": "user that is trying to use the bridge"
        },
        "returns": {
          "tiles": "the list of tiles (aka lands) to add to the estate"
        }
      },
      "contain(uint256,(((uint256[3])),((uint256[3])),((uint256[3])),((uint256[3]))))": {
        "params": {
          "estateId": "the estate id",
          "s": "displaced template"
        },
        "returns": {
          "_0": "true if the estate contain all the lands of the displaced template"
        }
      },
      "contractURI()": {
        "details": "See https://docs.opensea.io/docs/contract-level-metadata",
        "returns": {
          "_0": "the metadata url for the whole contract"
        }
      },
      "create(uint256[][3])": {
        "params": {
          "landToAdd": "The set of quads to add."
        },
        "returns": {
          "estateId": "the estate Id created"
        }
      },
      "decimals()": {
        "details": "Returns the decimals places of the token, for ERC721 it is always zero.",
        "returns": {
          "_0": ""
        }
      },
      "exists(uint256)": {
        "details": "Tokens can be managed by their owner or approved accounts via {approve} or {setApprovalForAll}.Tokens start existing when they are minted (`mint`), and stop existing when they are burned (`burn`)."
      },
      "getApproved(uint256)": {
        "details": "See {IERC721-getApproved}."
      },
      "getChainIndex()": {
        "returns": {
          "_0": "chain index"
        }
      },
      "getLandAt(uint256,uint256,uint256)": {
        "params": {
          "estateId": "the estate id",
          "limit": "amount of entries to get (pagination)",
          "offset": "an amount of entries to skip in the array (pagination)"
        },
        "returns": {
          "_0": "an array of tiles describing the map of lands"
        }
      },
      "getLandCount(uint256)": {
        "params": {
          "estateId": "the estate id"
        },
        "returns": {
          "_0": "the amount of lands inside the estate"
        }
      },
      "getLandLength(uint256)": {
        "params": {
          "estateId": "the estate id"
        },
        "returns": {
          "_0": "the length of the tile map"
        }
      },
      "getLandToken()": {
        "returns": {
          "_0": "land token contract address"
        }
      },
      "getNextId()": {
        "returns": {
          "_0": "next id"
        }
      },
      "getOwnerOfStorage(uint256)": {
        "params": {
          "storageId": "the storage id for an estate"
        },
        "returns": {
          "_0": "owner address"
        }
      },
      "getRegistry()": {
        "returns": {
          "_0": "registry the registry contract address"
        }
      },
      "getRoleAdmin(bytes32)": {
        "details": "Returns the admin role that controls `role`. See {grantRole} and {revokeRole}. To change a role's admin, use {_setRoleAdmin}."
      },
      "getStorageId(uint256)": {
        "params": {
          "estateId": "the estate id"
        },
        "returns": {
          "_0": "the storage Id"
        }
      },
      "grantRole(bytes32,address)": {
        "details": "Grants `role` to `account`. If `account` had not been already granted `role`, emits a {RoleGranted} event. Requirements: - the caller must have ``role``'s admin role."
      },
      "hasRole(bytes32,address)": {
        "details": "Returns `true` if `account` has been granted `role`."
      },
      "initV1(address,address,address,uint16,string,string)": {
        "params": {
          "admin": "initial admin role that can grant or revoke other roles",
          "chainIndex_": "the chain index for example: 0:mainnet, 1:polygon, etc",
          "landToken_": "the address of the land token contract",
          "name_": "name of the token",
          "symbol_": "symbol of the token",
          "trustedForwarder": "address of the meta tx trustedForwarder"
        }
      },
      "isApprovedForAll(address,address)": {
        "details": "See {IERC721-isApprovedForAll}."
      },
      "mintEstate(address,((uint256[3]))[])": {
        "params": {
          "tiles": "the list of tiles (aka lands) to add to the estate",
          "to": "user that will get the new minted Estate"
        },
        "returns": {
          "_0": "the estate Id created"
        }
      },
      "name()": {
        "details": "See {IERC721Metadata-name}."
      },
      "ownerOf(uint256)": {
        "details": "See {IERC721-ownerOf}."
      },
      "renounceRole(bytes32,address)": {
        "details": "Revokes `role` from the calling account. Roles are often managed via {grantRole} and {revokeRole}: this function's purpose is to provide a mechanism for accounts to lose their privileges if they are compromised (such as when a trusted device is misplaced). If the calling account had been revoked `role`, emits a {RoleRevoked} event. Requirements: - the caller must be `account`."
      },
      "revokeRole(bytes32,address)": {
        "details": "Revokes `role` from `account`. If `account` had been granted `role`, emits a {RoleRevoked} event. Requirements: - the caller must have ``role``'s admin role."
      },
      "safeTransferFrom(address,address,uint256)": {
        "details": "See {IERC721-safeTransferFrom}."
      },
      "safeTransferFrom(address,address,uint256,bytes)": {
        "details": "See {IERC721-safeTransferFrom}."
      },
      "setApprovalForAll(address,bool)": {
        "details": "See {IERC721-setApprovalForAll}."
      },
      "setBaseURI(string)": {
        "params": {
          "baseUri": "the base uri of the metadata url"
        }
      },
      "setLandToken(address)": {
        "params": {
          "landToken": "the new address of the land contract"
        }
      },
      "setRegistry(address)": {
        "params": {
          "registry": "the registry contract address"
        }
      },
      "setTrustedForwarder(address)": {
        "params": {
          "trustedForwarder": "address of the meta tx trustedForwarder"
        }
      },
      "supportsInterface(bytes4)": {
        "params": {
          "interfaceId": "The id of the interface."
        },
        "returns": {
          "_0": "Whether the interface is supported."
        }
      },
      "symbol()": {
        "details": "See {IERC721Metadata-symbol}."
      },
      "tokenURI(uint256)": {
        "details": "See {IERC721Metadata-tokenURI}."
      },
      "transferFrom(address,address,uint256)": {
        "details": "See {IERC721-transferFrom}."
      },
      "update(uint256,uint256[][3],uint256[],uint256[][3])": {
        "details": "to be able to remove lands they must be completely unlinked from any experience (in the registry)",
        "params": {
          "expToUnlink": "experiences to unlink",
          "landToAdd": "The set of quads to add.",
          "landToRemove": "The set of quads to remove.",
          "oldId": "the estate id that will be updated"
        },
        "returns": {
          "_0": "estateId the new estate Id"
        }
      }
    },
    "version": 1
  },
  "userdoc": {
    "kind": "user",
    "methods": {
      "addLand(uint256,uint256[][3])": {
        "notice": "Add the given quads (aka lands) to an Estate."
      },
      "burn(uint256,uint256[],uint256[][3])": {
        "notice": "burn an estate"
      },
      "burnEstate(address,uint256)": {
        "notice": "completely burn an estate (Used by the bridge)"
      },
      "contain(uint256,(((uint256[3])),((uint256[3])),((uint256[3])),((uint256[3]))))": {
        "notice": "check if the estate contains certain displaced template (used by the registry)"
      },
      "create(uint256[][3])": {
        "notice": "Create a new estate token adding the given quads (aka lands)."
      },
      "decimals()": {
        "notice": "Implement an ERC20 metadata method so it is easier to import the token into metamask"
      },
      "exists(uint256)": {
        "notice": "Returns whether `tokenId` exists."
      },
      "getChainIndex()": {
        "notice": "return the chain index"
      },
      "getLandAt(uint256,uint256,uint256)": {
        "notice": "return an array of tiles describing the map of lands for a given estate"
      },
      "getLandCount(uint256)": {
        "notice": "return the amount of lands inside the estate"
      },
      "getLandLength(uint256)": {
        "notice": "return the amount of tiles that describe the land map inside a given estate"
      },
      "getLandToken()": {
        "notice": "return the address of the land token contract"
      },
      "getNextId()": {
        "notice": "return the id of the next estate token"
      },
      "getOwnerOfStorage(uint256)": {
        "notice": "return owner of the estateId ignoring version rotations (used by the registry)"
      },
      "getRegistry()": {
        "notice": "get the registry contract address"
      },
      "getStorageId(uint256)": {
        "notice": "given and estateId return the part that doesn't change when the version is incremented"
      },
      "initV1(address,address,address,uint16,string,string)": {
        "notice": "initialization"
      },
      "mintEstate(address,((uint256[3]))[])": {
        "notice": "create a new estate from scratch (Used by the bridge)"
      },
      "onERC721BatchReceived(address,address,uint256[],bytes)": {
        "notice": "this is necessary to be able to receive land"
      },
      "onERC721Received(address,address,uint256,bytes)": {
        "notice": "this is necessary to be able to receive land"
      },
      "setBaseURI(string)": {
        "notice": "change the base uri of the metadata url"
      },
      "setLandToken(address)": {
        "notice": "change the address of the land contract"
      },
      "setRegistry(address)": {
        "notice": "set the registry contract address"
      },
      "setTrustedForwarder(address)": {
        "notice": "set the trusted forwarder (used by the admin in case of misconfiguration)"
      },
      "supportsInterface(bytes4)": {
        "notice": "Check if the contract supports an interface."
      },
      "update(uint256,uint256[][3],uint256[],uint256[][3])": {
        "notice": "update an estate adding and removing lands, and unlinking experiences in one step"
      }
    },
    "version": 1
  },
  "storageLayout": {
    "storage": [
      {
        "astId": 7568,
        "contract": "src/solc_0.8/polygon/child/estate/PolygonEstateTokenV1.sol:PolygonEstateTokenV1",
        "label": "_initialized",
        "offset": 0,
        "slot": "0",
        "type": "t_bool"
      },
      {
        "astId": 7571,
        "contract": "src/solc_0.8/polygon/child/estate/PolygonEstateTokenV1.sol:PolygonEstateTokenV1",
        "label": "_initializing",
        "offset": 1,
        "slot": "0",
        "type": "t_bool"
      },
      {
        "astId": 9533,
        "contract": "src/solc_0.8/polygon/child/estate/PolygonEstateTokenV1.sol:PolygonEstateTokenV1",
        "label": "__gap",
        "offset": 0,
        "slot": "1",
        "type": "t_array(t_uint256)50_storage"
      },
      {
        "astId": 10321,
        "contract": "src/solc_0.8/polygon/child/estate/PolygonEstateTokenV1.sol:PolygonEstateTokenV1",
        "label": "__gap",
        "offset": 0,
        "slot": "51",
        "type": "t_array(t_uint256)50_storage"
      },
      {
        "astId": 7074,
        "contract": "src/solc_0.8/polygon/child/estate/PolygonEstateTokenV1.sol:PolygonEstateTokenV1",
        "label": "_roles",
        "offset": 0,
        "slot": "101",
        "type": "t_mapping(t_bytes32,t_struct(RoleData)7069_storage)"
      },
      {
        "astId": 7361,
        "contract": "src/solc_0.8/polygon/child/estate/PolygonEstateTokenV1.sol:PolygonEstateTokenV1",
        "label": "__gap",
        "offset": 0,
        "slot": "102",
        "type": "t_array(t_uint256)49_storage"
      },
      {
        "astId": 7855,
        "contract": "src/solc_0.8/polygon/child/estate/PolygonEstateTokenV1.sol:PolygonEstateTokenV1",
        "label": "_name",
        "offset": 0,
        "slot": "151",
        "type": "t_string_storage"
      },
      {
        "astId": 7857,
        "contract": "src/solc_0.8/polygon/child/estate/PolygonEstateTokenV1.sol:PolygonEstateTokenV1",
        "label": "_symbol",
        "offset": 0,
        "slot": "152",
        "type": "t_string_storage"
      },
      {
        "astId": 7861,
        "contract": "src/solc_0.8/polygon/child/estate/PolygonEstateTokenV1.sol:PolygonEstateTokenV1",
        "label": "_owners",
        "offset": 0,
        "slot": "153",
        "type": "t_mapping(t_uint256,t_address)"
      },
      {
        "astId": 7865,
        "contract": "src/solc_0.8/polygon/child/estate/PolygonEstateTokenV1.sol:PolygonEstateTokenV1",
        "label": "_balances",
        "offset": 0,
        "slot": "154",
        "type": "t_mapping(t_address,t_uint256)"
      },
      {
        "astId": 7869,
        "contract": "src/solc_0.8/polygon/child/estate/PolygonEstateTokenV1.sol:PolygonEstateTokenV1",
        "label": "_tokenApprovals",
        "offset": 0,
        "slot": "155",
        "type": "t_mapping(t_uint256,t_address)"
      },
      {
        "astId": 7875,
        "contract": "src/solc_0.8/polygon/child/estate/PolygonEstateTokenV1.sol:PolygonEstateTokenV1",
        "label": "_operatorApprovals",
        "offset": 0,
        "slot": "156",
        "type": "t_mapping(t_address,t_mapping(t_address,t_bool))"
      },
      {
        "astId": 8686,
        "contract": "src/solc_0.8/polygon/child/estate/PolygonEstateTokenV1.sol:PolygonEstateTokenV1",
        "label": "__gap",
        "offset": 0,
        "slot": "157",
        "type": "t_array(t_uint256)44_storage"
      },
      {
        "astId": 28685,
        "contract": "src/solc_0.8/polygon/child/estate/PolygonEstateTokenV1.sol:PolygonEstateTokenV1",
        "label": "_trustedForwarder",
        "offset": 0,
        "slot": "201",
        "type": "t_address"
      },
      {
        "astId": 28774,
        "contract": "src/solc_0.8/polygon/child/estate/PolygonEstateTokenV1.sol:PolygonEstateTokenV1",
        "label": "__gap",
        "offset": 0,
        "slot": "202",
        "type": "t_array(t_uint256)49_storage"
      },
      {
        "astId": 42056,
        "contract": "src/solc_0.8/polygon/child/estate/PolygonEstateTokenV1.sol:PolygonEstateTokenV1",
        "label": "__preGap",
        "offset": 0,
        "slot": "251",
        "type": "t_array(t_uint256)50_storage"
      },
      {
        "astId": 43003,
        "contract": "src/solc_0.8/polygon/child/estate/PolygonEstateTokenV1.sol:PolygonEstateTokenV1",
        "label": "__posGap",
        "offset": 0,
        "slot": "301",
        "type": "t_array(t_uint256)50_storage"
      }
    ],
    "types": {
      "t_address": {
        "encoding": "inplace",
        "label": "address",
        "numberOfBytes": "20"
      },
      "t_array(t_uint256)44_storage": {
        "base": "t_uint256",
        "encoding": "inplace",
        "label": "uint256[44]",
        "numberOfBytes": "1408"
      },
      "t_array(t_uint256)49_storage": {
        "base": "t_uint256",
        "encoding": "inplace",
        "label": "uint256[49]",
        "numberOfBytes": "1568"
      },
      "t_array(t_uint256)50_storage": {
        "base": "t_uint256",
        "encoding": "inplace",
        "label": "uint256[50]",
        "numberOfBytes": "1600"
      },
      "t_bool": {
        "encoding": "inplace",
        "label": "bool",
        "numberOfBytes": "1"
      },
      "t_bytes32": {
        "encoding": "inplace",
        "label": "bytes32",
        "numberOfBytes": "32"
      },
      "t_mapping(t_address,t_bool)": {
        "encoding": "mapping",
        "key": "t_address",
        "label": "mapping(address => bool)",
        "numberOfBytes": "32",
        "value": "t_bool"
      },
      "t_mapping(t_address,t_mapping(t_address,t_bool))": {
        "encoding": "mapping",
        "key": "t_address",
        "label": "mapping(address => mapping(address => bool))",
        "numberOfBytes": "32",
        "value": "t_mapping(t_address,t_bool)"
      },
      "t_mapping(t_address,t_uint256)": {
        "encoding": "mapping",
        "key": "t_address",
        "label": "mapping(address => uint256)",
        "numberOfBytes": "32",
        "value": "t_uint256"
      },
      "t_mapping(t_bytes32,t_struct(RoleData)7069_storage)": {
        "encoding": "mapping",
        "key": "t_bytes32",
        "label": "mapping(bytes32 => struct AccessControlUpgradeable.RoleData)",
        "numberOfBytes": "32",
        "value": "t_struct(RoleData)7069_storage"
      },
      "t_mapping(t_uint256,t_address)": {
        "encoding": "mapping",
        "key": "t_uint256",
        "label": "mapping(uint256 => address)",
        "numberOfBytes": "32",
        "value": "t_address"
      },
      "t_string_storage": {
        "encoding": "bytes",
        "label": "string",
        "numberOfBytes": "32"
      },
      "t_struct(RoleData)7069_storage": {
        "encoding": "inplace",
        "label": "struct AccessControlUpgradeable.RoleData",
        "members": [
          {
            "astId": 7066,
            "contract": "src/solc_0.8/polygon/child/estate/PolygonEstateTokenV1.sol:PolygonEstateTokenV1",
            "label": "members",
            "offset": 0,
            "slot": "0",
            "type": "t_mapping(t_address,t_bool)"
          },
          {
            "astId": 7068,
            "contract": "src/solc_0.8/polygon/child/estate/PolygonEstateTokenV1.sol:PolygonEstateTokenV1",
            "label": "adminRole",
            "offset": 0,
            "slot": "1",
            "type": "t_bytes32"
          }
        ],
        "numberOfBytes": "64"
      },
      "t_uint256": {
        "encoding": "inplace",
        "label": "uint256",
        "numberOfBytes": "32"
      }
    }
  }
}