{
  "address": "0x10Ef6a413FdE39b9400365Df45AF5362D75a94Cb",
  "abi": [
    {
      "anonymous": false,
      "inputs": [
        {
          "indexed": true,
          "internalType": "address",
          "name": "owner",
          "type": "address"
        },
        {
          "indexed": true,
          "internalType": "address",
          "name": "spender",
          "type": "address"
        },
        {
          "indexed": false,
          "internalType": "uint256",
          "name": "value",
          "type": "uint256"
        }
      ],
      "name": "Approval",
      "type": "event"
    },
    {
      "anonymous": false,
      "inputs": [
        {
          "indexed": true,
          "internalType": "bytes32",
          "name": "role",
          "type": "bytes32"
        },
        {
          "indexed": true,
          "internalType": "bytes32",
          "name": "previousAdminRole",
          "type": "bytes32"
        },
        {
          "indexed": true,
          "internalType": "bytes32",
          "name": "newAdminRole",
          "type": "bytes32"
        }
      ],
      "name": "RoleAdminChanged",
      "type": "event"
    },
    {
      "anonymous": false,
      "inputs": [
        {
          "indexed": true,
          "internalType": "bytes32",
          "name": "role",
          "type": "bytes32"
        },
        {
          "indexed": true,
          "internalType": "address",
          "name": "account",
          "type": "address"
        },
        {
          "indexed": true,
          "internalType": "address",
          "name": "sender",
          "type": "address"
        }
      ],
      "name": "RoleGranted",
      "type": "event"
    },
    {
      "anonymous": false,
      "inputs": [
        {
          "indexed": true,
          "internalType": "bytes32",
          "name": "role",
          "type": "bytes32"
        },
        {
          "indexed": true,
          "internalType": "address",
          "name": "account",
          "type": "address"
        },
        {
          "indexed": true,
          "internalType": "address",
          "name": "sender",
          "type": "address"
        }
      ],
      "name": "RoleRevoked",
      "type": "event"
    },
    {
      "anonymous": false,
      "inputs": [
        {
          "indexed": true,
          "internalType": "address",
          "name": "from",
          "type": "address"
        },
        {
          "indexed": true,
          "internalType": "address",
          "name": "to",
          "type": "address"
        },
        {
          "indexed": false,
          "internalType": "uint256",
          "name": "value",
          "type": "uint256"
        }
      ],
      "name": "Transfer",
      "type": "event"
    },
    {
      "inputs": [],
      "name": "APPROVER_ROLE",
      "outputs": [
        {
          "internalType": "bytes32",
          "name": "",
          "type": "bytes32"
        }
      ],
      "stateMutability": "view",
      "type": "function"
    },
    {
      "inputs": [],
      "name": "DEFAULT_ADMIN_ROLE",
      "outputs": [
        {
          "internalType": "bytes32",
          "name": "",
          "type": "bytes32"
        }
      ],
      "stateMutability": "view",
      "type": "function"
    },
    {
      "inputs": [],
      "name": "DOMAIN_SEPARATOR",
      "outputs": [
        {
          "internalType": "bytes32",
          "name": "",
          "type": "bytes32"
        }
      ],
      "stateMutability": "view",
      "type": "function"
    },
    {
      "inputs": [],
      "name": "SUPER_OPERATOR_ROLE",
      "outputs": [
        {
          "internalType": "bytes32",
          "name": "",
          "type": "bytes32"
        }
      ],
      "stateMutability": "view",
      "type": "function"
    },
    {
      "inputs": [],
      "name": "_PERMIT_TYPEHASH",
      "outputs": [
        {
          "internalType": "bytes32",
          "name": "",
          "type": "bytes32"
        }
      ],
      "stateMutability": "view",
      "type": "function"
    },
    {
      "inputs": [
        {
          "internalType": "string",
          "name": "name",
          "type": "string"
        },
        {
          "internalType": "string",
          "name": "symbol",
          "type": "string"
        },
        {
          "internalType": "address",
          "name": "trustedForwarder",
          "type": "address"
        },
        {
          "internalType": "address",
          "name": "admin",
          "type": "address"
        },
        {
          "internalType": "uint8",
          "name": "maxGems",
          "type": "uint8"
        },
        {
          "internalType": "uint16",
          "name": "_catalystId",
          "type": "uint16"
        },
        {
          "internalType": "contract IAttributes",
          "name": "attributes",
          "type": "address"
        },
        {
          "internalType": "address",
          "name": "approver",
          "type": "address"
        }
      ],
      "name": "__CatalystV1_init",
      "outputs": [],
      "stateMutability": "nonpayable",
      "type": "function"
    },
    {
      "inputs": [
        {
          "internalType": "string",
          "name": "name",
          "type": "string"
        },
        {
          "internalType": "string",
          "name": "symbol",
          "type": "string"
        },
        {
          "internalType": "address",
          "name": "trustedForwarder",
          "type": "address"
        },
        {
          "internalType": "address",
          "name": "admin",
          "type": "address"
        }
      ],
      "name": "__ERC20TokenUpgradeable_init",
      "outputs": [],
      "stateMutability": "nonpayable",
      "type": "function"
    },
    {
      "inputs": [
        {
          "internalType": "address",
          "name": "owner",
          "type": "address"
        },
        {
          "internalType": "address",
          "name": "spender",
          "type": "address"
        },
        {
          "internalType": "uint256",
          "name": "amountNeeded",
          "type": "uint256"
        }
      ],
      "name": "addAllowanceIfNeeded",
      "outputs": [
        {
          "internalType": "bool",
          "name": "success",
          "type": "bool"
        }
      ],
      "stateMutability": "nonpayable",
      "type": "function"
    },
    {
      "inputs": [
        {
          "internalType": "address",
          "name": "owner",
          "type": "address"
        },
        {
          "internalType": "address",
          "name": "spender",
          "type": "address"
        }
      ],
      "name": "allowance",
      "outputs": [
        {
          "internalType": "uint256",
          "name": "remaining",
          "type": "uint256"
        }
      ],
      "stateMutability": "view",
      "type": "function"
    },
    {
      "inputs": [
        {
          "internalType": "address",
          "name": "spender",
          "type": "address"
        },
        {
          "internalType": "uint256",
          "name": "amount",
          "type": "uint256"
        }
      ],
      "name": "approve",
      "outputs": [
        {
          "internalType": "bool",
          "name": "success",
          "type": "bool"
        }
      ],
      "stateMutability": "nonpayable",
      "type": "function"
    },
    {
      "inputs": [
        {
          "internalType": "address",
          "name": "owner",
          "type": "address"
        },
        {
          "internalType": "address",
          "name": "spender",
          "type": "address"
        },
        {
          "internalType": "uint256",
          "name": "amount",
          "type": "uint256"
        }
      ],
      "name": "approveFor",
      "outputs": [
        {
          "internalType": "bool",
          "name": "success",
          "type": "bool"
        }
      ],
      "stateMutability": "nonpayable",
      "type": "function"
    },
    {
      "inputs": [
        {
          "internalType": "address",
          "name": "owner",
          "type": "address"
        }
      ],
      "name": "balanceOf",
      "outputs": [
        {
          "internalType": "uint256",
          "name": "",
          "type": "uint256"
        }
      ],
      "stateMutability": "view",
      "type": "function"
    },
    {
      "inputs": [
        {
          "internalType": "uint256",
          "name": "amount",
          "type": "uint256"
        }
      ],
      "name": "burn",
      "outputs": [],
      "stateMutability": "nonpayable",
      "type": "function"
    },
    {
      "inputs": [
        {
          "internalType": "address",
          "name": "from",
          "type": "address"
        },
        {
          "internalType": "uint256",
          "name": "amount",
          "type": "uint256"
        }
      ],
      "name": "burnFor",
      "outputs": [],
      "stateMutability": "nonpayable",
      "type": "function"
    },
    {
      "inputs": [],
      "name": "catalystId",
      "outputs": [
        {
          "internalType": "uint16",
          "name": "",
          "type": "uint16"
        }
      ],
      "stateMutability": "view",
      "type": "function"
    },
    {
      "inputs": [
        {
          "internalType": "contract IAttributes",
          "name": "attributes",
          "type": "address"
        }
      ],
      "name": "changeAttributes",
      "outputs": [],
      "stateMutability": "nonpayable",
      "type": "function"
    },
    {
      "inputs": [
        {
          "internalType": "address",
          "name": "owner",
          "type": "address"
        },
        {
          "internalType": "address",
          "name": "spender",
          "type": "address"
        },
        {
          "internalType": "uint256",
          "name": "value",
          "type": "uint256"
        },
        {
          "internalType": "uint256",
          "name": "deadline",
          "type": "uint256"
        },
        {
          "internalType": "uint8",
          "name": "v",
          "type": "uint8"
        },
        {
          "internalType": "bytes32",
          "name": "r",
          "type": "bytes32"
        },
        {
          "internalType": "bytes32",
          "name": "s",
          "type": "bytes32"
        }
      ],
      "name": "checkApproveFor",
      "outputs": [],
      "stateMutability": "nonpayable",
      "type": "function"
    },
    {
      "inputs": [],
      "name": "decimals",
      "outputs": [
        {
          "internalType": "uint8",
          "name": "",
          "type": "uint8"
        }
      ],
      "stateMutability": "pure",
      "type": "function"
    },
    {
      "inputs": [
        {
          "internalType": "uint256",
          "name": "assetId",
          "type": "uint256"
        },
        {
          "components": [
            {
              "internalType": "uint16[]",
              "name": "gemIds",
              "type": "uint16[]"
            },
            {
              "internalType": "bytes32",
              "name": "blockHash",
              "type": "bytes32"
            }
          ],
          "internalType": "struct IAssetAttributesRegistry.GemEvent[]",
          "name": "events",
          "type": "tuple[]"
        }
      ],
      "name": "getAttributes",
      "outputs": [
        {
          "internalType": "uint32[]",
          "name": "values",
          "type": "uint32[]"
        }
      ],
      "stateMutability": "view",
      "type": "function"
    },
    {
      "inputs": [],
      "name": "getDecimals",
      "outputs": [
        {
          "internalType": "uint8",
          "name": "",
          "type": "uint8"
        }
      ],
      "stateMutability": "pure",
      "type": "function"
    },
    {
      "inputs": [],
      "name": "getMaxGems",
      "outputs": [
        {
          "internalType": "uint8",
          "name": "",
          "type": "uint8"
        }
      ],
      "stateMutability": "view",
      "type": "function"
    },
    {
      "inputs": [
        {
          "internalType": "bytes32",
          "name": "role",
          "type": "bytes32"
        }
      ],
      "name": "getRoleAdmin",
      "outputs": [
        {
          "internalType": "bytes32",
          "name": "",
          "type": "bytes32"
        }
      ],
      "stateMutability": "view",
      "type": "function"
    },
    {
      "inputs": [
        {
          "internalType": "bytes32",
          "name": "role",
          "type": "bytes32"
        },
        {
          "internalType": "address",
          "name": "account",
          "type": "address"
        }
      ],
      "name": "grantRole",
      "outputs": [],
      "stateMutability": "nonpayable",
      "type": "function"
    },
    {
      "inputs": [
        {
          "internalType": "bytes32",
          "name": "role",
          "type": "bytes32"
        },
        {
          "internalType": "address",
          "name": "account",
          "type": "address"
        }
      ],
      "name": "hasRole",
      "outputs": [
        {
          "internalType": "bool",
          "name": "",
          "type": "bool"
        }
      ],
      "stateMutability": "view",
      "type": "function"
    },
    {
      "inputs": [
        {
          "internalType": "address",
          "name": "forwarder",
          "type": "address"
        }
      ],
      "name": "isTrustedForwarder",
      "outputs": [
        {
          "internalType": "bool",
          "name": "",
          "type": "bool"
        }
      ],
      "stateMutability": "view",
      "type": "function"
    },
    {
      "inputs": [
        {
          "internalType": "address",
          "name": "to",
          "type": "address"
        },
        {
          "internalType": "uint256",
          "name": "amount",
          "type": "uint256"
        }
      ],
      "name": "mint",
      "outputs": [],
      "stateMutability": "nonpayable",
      "type": "function"
    },
    {
      "inputs": [],
      "name": "name",
      "outputs": [
        {
          "internalType": "string",
          "name": "",
          "type": "string"
        }
      ],
      "stateMutability": "view",
      "type": "function"
    },
    {
      "inputs": [
        {
          "internalType": "address",
          "name": "owner",
          "type": "address"
        }
      ],
      "name": "nonces",
      "outputs": [
        {
          "internalType": "uint256",
          "name": "",
          "type": "uint256"
        }
      ],
      "stateMutability": "view",
      "type": "function"
    },
    {
      "inputs": [
        {
          "internalType": "address",
          "name": "owner",
          "type": "address"
        },
        {
          "internalType": "address",
          "name": "spender",
          "type": "address"
        },
        {
          "internalType": "uint256",
          "name": "value",
          "type": "uint256"
        },
        {
          "internalType": "uint256",
          "name": "deadline",
          "type": "uint256"
        },
        {
          "internalType": "uint8",
          "name": "v",
          "type": "uint8"
        },
        {
          "internalType": "bytes32",
          "name": "r",
          "type": "bytes32"
        },
        {
          "internalType": "bytes32",
          "name": "s",
          "type": "bytes32"
        }
      ],
      "name": "permit",
      "outputs": [],
      "stateMutability": "nonpayable",
      "type": "function"
    },
    {
      "inputs": [
        {
          "internalType": "bytes32",
          "name": "role",
          "type": "bytes32"
        },
        {
          "internalType": "address",
          "name": "account",
          "type": "address"
        }
      ],
      "name": "renounceRole",
      "outputs": [],
      "stateMutability": "nonpayable",
      "type": "function"
    },
    {
      "inputs": [
        {
          "internalType": "bytes32",
          "name": "role",
          "type": "bytes32"
        },
        {
          "internalType": "address",
          "name": "account",
          "type": "address"
        }
      ],
      "name": "revokeRole",
      "outputs": [],
      "stateMutability": "nonpayable",
      "type": "function"
    },
    {
      "inputs": [
        {
          "internalType": "bytes4",
          "name": "interfaceId",
          "type": "bytes4"
        }
      ],
      "name": "supportsInterface",
      "outputs": [
        {
          "internalType": "bool",
          "name": "",
          "type": "bool"
        }
      ],
      "stateMutability": "view",
      "type": "function"
    },
    {
      "inputs": [],
      "name": "symbol",
      "outputs": [
        {
          "internalType": "string",
          "name": "",
          "type": "string"
        }
      ],
      "stateMutability": "view",
      "type": "function"
    },
    {
      "inputs": [],
      "name": "totalSupply",
      "outputs": [
        {
          "internalType": "uint256",
          "name": "",
          "type": "uint256"
        }
      ],
      "stateMutability": "view",
      "type": "function"
    },
    {
      "inputs": [
        {
          "internalType": "address",
          "name": "to",
          "type": "address"
        },
        {
          "internalType": "uint256",
          "name": "amount",
          "type": "uint256"
        }
      ],
      "name": "transfer",
      "outputs": [
        {
          "internalType": "bool",
          "name": "success",
          "type": "bool"
        }
      ],
      "stateMutability": "nonpayable",
      "type": "function"
    },
    {
      "inputs": [
        {
          "internalType": "address",
          "name": "_to",
          "type": "address"
        },
        {
          "internalType": "uint256",
          "name": "_value",
          "type": "uint256"
        },
        {
          "internalType": "bytes",
          "name": "_data",
          "type": "bytes"
        }
      ],
      "name": "transferAndCall",
      "outputs": [
        {
          "internalType": "bool",
          "name": "success",
          "type": "bool"
        }
      ],
      "stateMutability": "nonpayable",
      "type": "function"
    },
    {
      "inputs": [
        {
          "internalType": "address",
          "name": "from",
          "type": "address"
        },
        {
          "internalType": "address",
          "name": "to",
          "type": "address"
        },
        {
          "internalType": "uint256",
          "name": "amount",
          "type": "uint256"
        }
      ],
      "name": "transferFrom",
      "outputs": [
        {
          "internalType": "bool",
          "name": "success",
          "type": "bool"
        }
      ],
      "stateMutability": "nonpayable",
      "type": "function"
    }
  ],
  "transactionHash": "0xed472567900be5bcda51c9dae6d7b4232d70f8dc37f067953d7e24674640b460",
  "args": [],
  "numDeployments": 1,
  "solcInputHash": "65e08b938528b163bea66d16d1e23da8",
  "bytecode": "0x608060405234801561001057600080fd5b50612f7e806100206000396000f3fe608060405234801561001057600080fd5b50600436106102775760003560e01c80634000aea01161016057806391d14854116100d8578063c7165bbb1161008c578063d547741f11610071578063d547741f146105b4578063dd62ed3e146105c7578063f0141d841461060157610277565b8063c7165bbb1461057f578063d505accf146105a157610277565b8063982aaf6b116100bd578063982aaf6b1461053d578063a217fddf14610564578063a9059cbb1461056c57610277565b806391d14854146104fc57806395d89b411461053557610277565b80634b9f7cbc1161012f57806370a082311161011457806370a082311461049f57806374903c86146104c95780637ecebe00146104e957610277565b80634b9f7cbc1461046a578063572b6c051461047d57610277565b80634000aea01461040a57806340c10f191461041d5780634245962b1461043057806342966c681461045757610277565b80631dd319cb116101f35780632f2ff15d116101c25780633644e515116101a75780633644e515146103dc57806336568abe146103e45780633b7b5a16146103f757610277565b80632f2ff15d146103c2578063313ce567146103d557610277565b80631dd319cb1461036657806323b872dd14610379578063248a9ca31461038c5780632b991746146103af57610277565b806309cba36b1161024a57806318160ddd1161022f57806318160ddd14610319578063184dfff51461032c5780631b677c4d1461035357610277565b806309cba36b146102e15780630ba80c361461030657610277565b806301ffc9a71461027c57806303fb7326146102a457806306fdde03146102b9578063095ea7b3146102ce575b600080fd5b61028f61028a366004612970565b610609565b60405190151581526020015b60405180910390f35b6102b76102b23660046129b0565b6106a4565b005b6102c16107c8565b60405161029b9190612c8f565b61028f6102dc3660046127ca565b61085c565b6102f46101985462010000900460ff1690565b60405160ff909116815260200161029b565b6102b76103143660046126c9565b610879565b610131545b60405190815260200161029b565b61031e7fe43cbdacb5a27491c5b15dcd2ddf377fcc3cf337bd999d6a7acb8c882b5554cb81565b6102b7610361366004612a36565b6108cf565b6102b76103743660046127ca565b610a6c565b61028f61038736600461271d565b610a7a565b61031e61039a366004612934565b600090815260fd602052604090206001015490565b61028f6103bd36600461271d565b610bc8565b6102b76103d036600461294c565b610ca1565b60126102f4565b61031e610cce565b6102b76103f236600461294c565b610cdd565b61028f61040536600461271d565b610d75565b61028f6104183660046127f5565b610e1c565b6102b761042b3660046127ca565b610eb9565b61031e7f408a36151f841709116a4e8aca4e0202874f7f54687dcb863b1ea4672dc9d8cf81565b6102b7610465366004612934565b610ed1565b6102b761047836600461275d565b610ee5565b61028f61048b3660046126c9565b6099546001600160a01b0390811691161490565b61031e6104ad3660046126c9565b6001600160a01b03166000908152610132602052604090205490565b6104dc6104d7366004612b05565b61103e565b60405161029b9190612c45565b61031e6104f73660046126c9565b6110f0565b61028f61050a36600461294c565b600091825260fd602090815260408084206001600160a01b0393909316845291905290205460ff1690565b6102c161110e565b61031e7f6e71edae12b1b97f4d1f60370fef10105fa2faae0126114a169c64845d6126c981565b61031e600081565b61028f61057a3660046127ca565b61111e565b6101985461058e9061ffff1681565b60405161ffff909116815260200161029b565b6102b76105af36600461275d565b611132565b6102b76105c236600461294c565b611155565b61031e6105d53660046126e5565b6001600160a01b0391821660009081526101336020908152604080832093909416825291909152205490565b6102f461117d565b60007fffffffff0000000000000000000000000000000000000000000000000000000082167f7965db0b00000000000000000000000000000000000000000000000000000000148061069c57507f01ffc9a7000000000000000000000000000000000000000000000000000000007fffffffff000000000000000000000000000000000000000000000000000000008316145b90505b919050565b600054610100900460ff166106bf5760005460ff16156106c3565b303b155b61073a5760405162461bcd60e51b815260206004820152602e60248201527f496e697469616c697a61626c653a20636f6e747261637420697320616c72656160448201527f647920696e697469616c697a656400000000000000000000000000000000000060648201526084015b60405180910390fd5b600054610100900460ff16158015610765576000805460ff1961ff0019909116610100171660011790555b61077185858585611186565b6107af6040518060400160405280600b81526020017f5468652053616e64626f78000000000000000000000000000000000000000000815250611288565b80156107c1576000805461ff00191690555b5050505050565b606061012f80546107d890612ed2565b80601f016020809104026020016040519081016040528092919081815260200182805461080490612ed2565b80156108515780601f1061082657610100808354040283529160200191610851565b820191906000526020600020905b81548152906001019060200180831161083457829003601f168201915b505050505090505b90565b6000610870610869611332565b848461133c565b50600192915050565b600061088c81610887611332565b61140b565b5061019880546001600160a01b039092166301000000027fffffffffffffffffff0000000000000000000000000000000000000000ffffff909216919091179055565b600054610100900460ff166108ea5760005460ff16156108ee565b303b155b6109605760405162461bcd60e51b815260206004820152602e60248201527f496e697469616c697a61626c653a20636f6e747261637420697320616c72656160448201527f647920696e697469616c697a65640000000000000000000000000000000000006064820152608401610731565b600054610100900460ff1615801561098b576000805460ff1961ff0019909116610100171660011790555b610997898989896106a4565b61019880547fffffffffffffffffffffffffffffffffffffffffffffffffffffffffff00ffff166201000060ff881602177fffffffffffffffffffffffffffffffffffffffffffffffffffffffffffff00001661ffff8616177fffffffffffffffffff0000000000000000000000000000000000000000ffffff1663010000006001600160a01b03861602179055610a4f7f408a36151f841709116a4e8aca4e0202874f7f54687dcb863b1ea4672dc9d8cf8361148b565b8015610a61576000805461ff00191690555b505050505050505050565b610a76828261152e565b5050565b6000836001600160a01b0316610a8e611332565b6001600160a01b031614158015610ace5750610acc7fe43cbdacb5a27491c5b15dcd2ddf377fcc3cf337bd999d6a7acb8c882b5554cb61050a611332565b155b15610bb3576001600160a01b03841660009081526101336020526040812081610af5611332565b6001600160a01b0316815260208101919091526040016000205490506000198114610bb15782811015610b6a5760405162461bcd60e51b815260206004820152601860248201527f4e4f545f415554484f52495a45445f414c4c4f57414e434500000000000000006044820152606401610731565b610b748382612e78565b6001600160a01b03861660009081526101336020526040812090610b96611332565b6001600160a01b031681526020810191909152604001600020555b505b610bbe84848461179c565b5060019392505050565b6000836001600160a01b0316610bdc611332565b6001600160a01b03161480610c185750610c187fe43cbdacb5a27491c5b15dcd2ddf377fcc3cf337bd999d6a7acb8c882b5554cb61050a611332565b80610c4a5750610c4a7f408a36151f841709116a4e8aca4e0202874f7f54687dcb863b1ea4672dc9d8cf61050a611332565b610c965760405162461bcd60e51b815260206004820152600e60248201527f4e4f545f415554484f52495a45440000000000000000000000000000000000006044820152606401610731565b610bbe84848461133c565b600082815260fd6020526040902060010154610cbf81610887611332565b610cc9838361148b565b505050565b6000610cd8611950565b905090565b610ce5611332565b6001600160a01b0316816001600160a01b031614610d6b5760405162461bcd60e51b815260206004820152602f60248201527f416363657373436f6e74726f6c3a2063616e206f6e6c792072656e6f756e636560448201527f20726f6c657320666f722073656c6600000000000000000000000000000000006064820152608401610731565b610a7682826119cb565b6000836001600160a01b0316610d89611332565b6001600160a01b03161480610dc55750610dc57fe43cbdacb5a27491c5b15dcd2ddf377fcc3cf337bd999d6a7acb8c882b5554cb61050a611332565b610e115760405162461bcd60e51b815260206004820152600e60248201527f494e56414c49445f53454e4445520000000000000000000000000000000000006044820152606401610731565b610bbe848484611a6c565b6000610e30610e29611332565b868661179c565b6001600160a01b0385163b15610eae57846001600160a01b03811663a4c0ed36610e58611332565b8787876040518563ffffffff1660e01b8152600401610e7a9493929190612bff565b600060405180830381600087803b158015610e9457600080fd5b505af1158015610ea8573d6000803e3d6000fd5b50505050505b506001949350505050565b6000610ec781610887611332565b610cc98383611aea565b610ee2610edc611332565b8261152e565b50565b83421115610f355760405162461bcd60e51b815260206004820152600d60248201527f504153545f444541444c494e45000000000000000000000000000000000000006044820152606401610731565b60007f6e71edae12b1b97f4d1f60370fef10105fa2faae0126114a169c64845d6126c9888888610f648c611c63565b6040805160208101969096526001600160a01b0394851690860152929091166060840152608083015260a082015260c0810186905260e0016040516020818303038152906040528051906020012090506000610fbf82611c8b565b90506000610fcf82878787611cf4565b9050896001600160a01b0316816001600160a01b0316146110325760405162461bcd60e51b815260206004820152601160248201527f494e56414c49445f5349474e41545552450000000000000000000000000000006044820152606401610731565b50505050505050505050565b610198546040517f74903c86000000000000000000000000000000000000000000000000000000008152606091630100000090046001600160a01b0316906374903c869061109490879087908790600401612cc2565b60006040518083038186803b1580156110ac57600080fd5b505afa1580156110c0573d6000803e3d6000fd5b505050506040513d6000823e601f3d908101601f191682016040526110e89190810190612879565b949350505050565b6001600160a01b03811660009081526035602052604081205461069c565b606061013080546107d890612ed2565b600061087061112b611332565b848461179c565b61114187878787878787610ee5565b61114c87878761133c565b50505050505050565b600082815260fd602052604090206001015461117381610887611332565b610cc983836119cb565b60006012610cd8565b600054610100900460ff166111a15760005460ff16156111a5565b303b155b6112175760405162461bcd60e51b815260206004820152602e60248201527f496e697469616c697a61626c653a20636f6e747261637420697320616c72656160448201527f647920696e697469616c697a65640000000000000000000000000000000000006064820152608401610731565b600054610100900460ff16158015611242576000805460ff1961ff0019909116610100171660011790555b84516112569061012f9060208801906125a2565b50835161126b906101309060208701906125a2565b50611274611d1c565b61127f600083611da1565b6107af83611dab565b600054610100900460ff166112f35760405162461bcd60e51b815260206004820152602b60248201527f496e697469616c697a61626c653a20636f6e7472616374206973206e6f74206960448201526a6e697469616c697a696e6760a81b6064820152608401610731565b610ee2816040518060400160405280600181526020017f3100000000000000000000000000000000000000000000000000000000000000815250611e27565b6000610cd8611eac565b6001600160a01b0383161580159061135c57506001600160a01b03821615155b6113a85760405162461bcd60e51b815260206004820152601860248201527f494e56414c49445f4f574e45525f7c7c5f5350454e44455200000000000000006044820152606401610731565b6001600160a01b038381166000818152610133602090815260408083209487168084529482529182902085905590518481527f8c5be1e5ebec7d5bd14f71427d1e84f3dd0314c0f7b2291e5b200ac8c7c3b92591015b60405180910390a3505050565b600082815260fd602090815260408083206001600160a01b038516845290915290205460ff16610a7657611449816001600160a01b03166014611ef6565b611454836020611ef6565b604051602001611465929190612b7e565b60408051601f198184030181529082905262461bcd60e51b825261073191600401612c8f565b600082815260fd602090815260408083206001600160a01b038516845290915290205460ff16610a7657600082815260fd602090815260408083206001600160a01b03851684529091529020805460ff191660011790556114ea611332565b6001600160a01b0316816001600160a01b0316837f2f8788117e7eff1d82e926ec794901d17c78024a50270940304540a733656f0d60405160405180910390a45050565b6000811161157e5760405162461bcd60e51b815260206004820152600d60248201527f4255524e5f4f5f544f4b454e53000000000000000000000000000000000000006044820152606401610731565b816001600160a01b0316611590611332565b6001600160a01b0316141580156115d057506115ce7fe43cbdacb5a27491c5b15dcd2ddf377fcc3cf337bd999d6a7acb8c882b5554cb61050a611332565b155b156116b5576001600160a01b038216600090815261013360205260408120816115f7611332565b6001600160a01b03168152602081019190915260400160002054905060001981146116b3578181101561166c5760405162461bcd60e51b815260206004820152601660248201527f494e53554646494349454e545f414c4c4f57414e4345000000000000000000006044820152606401610731565b6116768282612e78565b6001600160a01b03841660009081526101336020526040812090611698611332565b6001600160a01b031681526020810191909152604001600020555b505b6001600160a01b038216600090815261013260205260409020548181101561171f5760405162461bcd60e51b815260206004820152601260248201527f494e53554646494349454e545f46554e445300000000000000000000000000006044820152606401610731565b6117298282612e78565b6001600160a01b038416600090815261013260205260408120919091556101318054849290611759908490612e78565b90915550506040518281526000906001600160a01b038516907fddf252ad1be2c89b69c2b068fc378daa952ba7f163c4a11628f55a4df523b3ef906020016113fe565b6001600160a01b0382166117f25760405162461bcd60e51b815260206004820152601260248201527f4e4f545f544f5f5a45524f4144445245535300000000000000000000000000006044820152606401610731565b6001600160a01b03821630141561184b5760405162461bcd60e51b815260206004820152600b60248201527f4e4f545f544f5f544849530000000000000000000000000000000000000000006044820152606401610731565b6001600160a01b03831660009081526101326020526040902054818110156118b55760405162461bcd60e51b815260206004820152601260248201527f494e53554646494349454e545f46554e445300000000000000000000000000006044820152606401610731565b6118bf8282612e78565b6001600160a01b038086166000908152610132602052604080822093909355908516815290812080548492906118f6908490612e41565b92505081905550826001600160a01b0316846001600160a01b03167fddf252ad1be2c89b69c2b068fc378daa952ba7f163c4a11628f55a4df523b3ef8460405161194291815260200190565b60405180910390a350505050565b6000610cd87f8b73c3c69bb8fe3d512ecc4cf759cc79239f7b179b0ffacaa9a75d522b39400f61197f60015490565b6002546040805160208101859052908101839052606081018290524660808201523060a082015260009060c0016040516020818303038152906040528051906020012090509392505050565b600082815260fd602090815260408083206001600160a01b038516845290915290205460ff1615610a7657600082815260fd602090815260408083206001600160a01b03851684529091529020805460ff19169055611a28611332565b6001600160a01b0316816001600160a01b0316837ff6391f5c32d9c69d2a47ea670b442974b53935d1edc7fd64eb21e047a839171b60405160405180910390a45050565b600081118015611aa55750611aa37fe43cbdacb5a27491c5b15dcd2ddf377fcc3cf337bd999d6a7acb8c882b5554cb61050a611332565b155b15610cc9576001600160a01b038084166000908152610133602090815260408083209386168352929052205481811015611ae457611ae484848461133c565b50505050565b6001600160a01b038216611b405760405162461bcd60e51b815260206004820152601260248201527f4e4f545f544f5f5a45524f4144445245535300000000000000000000000000006044820152606401610731565b60008111611b905760405162461bcd60e51b815260206004820152600d60248201527f4d494e545f4f5f544f4b454e53000000000000000000000000000000000000006044820152606401610731565b610131546000611ba08383612e41565b9050818111611bf15760405162461bcd60e51b815260206004820152600860248201527f4f564552464c4f570000000000000000000000000000000000000000000000006044820152606401610731565b6101318190556001600160a01b0384166000908152610132602052604081208054859290611c20908490612e41565b90915550506040518381526001600160a01b038516906000907fddf252ad1be2c89b69c2b068fc378daa952ba7f163c4a11628f55a4df523b3ef90602001611942565b6001600160a01b03811660009081526035602052604090208054600181018255905b50919050565b600061069c611c98611950565b836040517f19010000000000000000000000000000000000000000000000000000000000006020820152602281018390526042810182905260009060620160405160208183030381529060405280519060200120905092915050565b6000806000611d058787878761216c565b91509150611d1281612259565b5095945050505050565b600054610100900460ff16611d875760405162461bcd60e51b815260206004820152602b60248201527f496e697469616c697a61626c653a20636f6e7472616374206973206e6f74206960448201526a6e697469616c697a696e6760a81b6064820152608401610731565b611d8f612492565b611d97612492565b611d9f612492565b565b610a76828261148b565b600054610100900460ff16611e165760405162461bcd60e51b815260206004820152602b60248201527f496e697469616c697a61626c653a20636f6e7472616374206973206e6f74206960448201526a6e697469616c697a696e6760a81b6064820152608401610731565b611e1e612492565b610ee2816124fd565b600054610100900460ff16611e925760405162461bcd60e51b815260206004820152602b60248201527f496e697469616c697a61626c653a20636f6e7472616374206973206e6f74206960448201526a6e697469616c697a696e6760a81b6064820152608401610731565b815160209283012081519190920120600191909155600255565b6099546000906001600160a01b0316331415611eef57507fffffffffffffffffffffffffffffffffffffffffffffffffffffffffffffffec36013560601c610859565b5033610859565b60606000611f05836002612e59565b611f10906002612e41565b67ffffffffffffffff811115611f3657634e487b7160e01b600052604160045260246000fd5b6040519080825280601f01601f191660200182016040528015611f60576020820181803683370190505b5090507f300000000000000000000000000000000000000000000000000000000000000081600081518110611fa557634e487b7160e01b600052603260045260246000fd5b60200101907effffffffffffffffffffffffffffffffffffffffffffffffffffffffffffff1916908160001a9053507f78000000000000000000000000000000000000000000000000000000000000008160018151811061201657634e487b7160e01b600052603260045260246000fd5b60200101907effffffffffffffffffffffffffffffffffffffffffffffffffffffffffffff1916908160001a9053506000612052846002612e59565b61205d906001612e41565b90505b6001811115612116577f303132333435363738396162636465660000000000000000000000000000000085600f16601081106120ac57634e487b7160e01b600052603260045260246000fd5b1a60f81b8282815181106120d057634e487b7160e01b600052603260045260246000fd5b60200101907effffffffffffffffffffffffffffffffffffffffffffffffffffffffffffff1916908160001a90535060049490941c9361210f81612ebb565b9050612060565b5083156121655760405162461bcd60e51b815260206004820181905260248201527f537472696e67733a20686578206c656e67746820696e73756666696369656e746044820152606401610731565b9392505050565b6000807f7fffffffffffffffffffffffffffffff5d576e7357a4501ddfe92f46681b20a08311156121a35750600090506003612250565b8460ff16601b141580156121bb57508460ff16601c14155b156121cc5750600090506004612250565b6040805160008082526020820180845289905260ff881692820192909252606081018690526080810185905260019060a0016020604051602081039080840390855afa158015612220573d6000803e3d6000fd5b5050604051601f1901519150506001600160a01b03811661224957600060019250925050612250565b9150600090505b94509492505050565b600081600481111561227b57634e487b7160e01b600052602160045260246000fd5b141561228657610ee2565b60018160048111156122a857634e487b7160e01b600052602160045260246000fd5b14156122f65760405162461bcd60e51b815260206004820152601860248201527f45434453413a20696e76616c6964207369676e617475726500000000000000006044820152606401610731565b600281600481111561231857634e487b7160e01b600052602160045260246000fd5b14156123665760405162461bcd60e51b815260206004820152601f60248201527f45434453413a20696e76616c6964207369676e6174757265206c656e677468006044820152606401610731565b600381600481111561238857634e487b7160e01b600052602160045260246000fd5b14156123fc5760405162461bcd60e51b815260206004820152602260248201527f45434453413a20696e76616c6964207369676e6174757265202773272076616c60448201527f75650000000000000000000000000000000000000000000000000000000000006064820152608401610731565b600481600481111561241e57634e487b7160e01b600052602160045260246000fd5b1415610ee25760405162461bcd60e51b815260206004820152602260248201527f45434453413a20696e76616c6964207369676e6174757265202776272076616c60448201527f75650000000000000000000000000000000000000000000000000000000000006064820152608401610731565b600054610100900460ff16611d9f5760405162461bcd60e51b815260206004820152602b60248201527f496e697469616c697a61626c653a20636f6e7472616374206973206e6f74206960448201526a6e697469616c697a696e6760a81b6064820152608401610731565b600054610100900460ff166125685760405162461bcd60e51b815260206004820152602b60248201527f496e697469616c697a61626c653a20636f6e7472616374206973206e6f74206960448201526a6e697469616c697a696e6760a81b6064820152608401610731565b609980547fffffffffffffffffffffffff0000000000000000000000000000000000000000166001600160a01b0392909216919091179055565b8280546125ae90612ed2565b90600052602060002090601f0160209004810192826125d05760008555612616565b82601f106125e957805160ff1916838001178555612616565b82800160010185558215612616579182015b828111156126165782518255916020019190600101906125fb565b50612622929150612626565b5090565b5b808211156126225760008155600101612627565b600082601f83011261264b578081fd5b813567ffffffffffffffff81111561266557612665612f1d565b6126786020601f19601f84011601612e10565b81815284602083860101111561268c578283fd5b816020850160208301379081016020019190915292915050565b803561ffff8116811461069f57600080fd5b803560ff8116811461069f57600080fd5b6000602082840312156126da578081fd5b813561216581612f33565b600080604083850312156126f7578081fd5b823561270281612f33565b9150602083013561271281612f33565b809150509250929050565b600080600060608486031215612731578081fd5b833561273c81612f33565b9250602084013561274c81612f33565b929592945050506040919091013590565b600080600080600080600060e0888a031215612777578283fd5b873561278281612f33565b9650602088013561279281612f33565b955060408801359450606088013593506127ae608089016126b8565b925060a0880135915060c0880135905092959891949750929550565b600080604083850312156127dc578182fd5b82356127e781612f33565b946020939093013593505050565b6000806000806060858703121561280a578384fd5b843561281581612f33565b935060208501359250604085013567ffffffffffffffff80821115612838578384fd5b818701915087601f83011261284b578384fd5b813581811115612859578485fd5b88602082850101111561286a578485fd5b95989497505060200194505050565b6000602080838503121561288b578182fd5b825167ffffffffffffffff808211156128a2578384fd5b818501915085601f8301126128b5578384fd5b8151818111156128c7576128c7612f1d565b83810291506128d7848301612e10565b8181528481019084860184860187018a10156128f1578788fd5b8795505b83861015612927578051945063ffffffff85168514612912578788fd5b848352600195909501949186019186016128f5565b5098975050505050505050565b600060208284031215612945578081fd5b5035919050565b6000806040838503121561295e578182fd5b82359150602083013561271281612f33565b600060208284031215612981578081fd5b81357fffffffff0000000000000000000000000000000000000000000000000000000081168114612165578182fd5b600080600080608085870312156129c5578182fd5b843567ffffffffffffffff808211156129dc578384fd5b6129e88883890161263b565b955060208701359150808211156129fd578384fd5b50612a0a8782880161263b565b9350506040850135612a1b81612f33565b91506060850135612a2b81612f33565b939692955090935050565b600080600080600080600080610100898b031215612a52578182fd5b883567ffffffffffffffff80821115612a69578384fd5b612a758c838d0161263b565b995060208b0135915080821115612a8a578384fd5b50612a978b828c0161263b565b9750506040890135612aa881612f33565b95506060890135612ab881612f33565b9450612ac660808a016126b8565b9350612ad460a08a016126a6565b925060c0890135612ae481612f33565b915060e0890135612af481612f33565b809150509295985092959890939650565b600080600060408486031215612b19578081fd5b83359250602084013567ffffffffffffffff80821115612b37578283fd5b818601915086601f830112612b4a578283fd5b813581811115612b58578384fd5b8760208083028501011115612b6b578384fd5b6020830194508093505050509250925092565b60007f416363657373436f6e74726f6c3a206163636f756e742000000000000000000082528351612bb6816017850160208801612e8f565b7f206973206d697373696e6720726f6c65200000000000000000000000000000006017918401918201528351612bf3816028840160208801612e8f565b01602801949350505050565b60006001600160a01b03861682528460208301526060604083015282606083015282846080840137818301608090810191909152601f909201601f191601019392505050565b6020808252825182820181905260009190848201906040850190845b81811015612c8357835163ffffffff1683529284019291840191600101612c61565b50909695505050505050565b6000602082528251806020840152612cae816040850160208701612e8f565b601f01601f19169190910160400192915050565b83815260406020808301829052828201849052600091906060908185018682028601830188865b89811015612e00577fffffffffffffffffffffffffffffffffffffffffffffffffffffffffffffffa089840301845281357fffffffffffffffffffffffffffffffffffffffffffffffffffffffffffffffc18c3603018112612d49578889fd5b8b018388018135368390037fffffffffffffffffffffffffffffffffffffffffffffffffffffffffffffffe1018112612d80578a8bfd5b8201803567ffffffffffffffff811115612d98578b8cfd5b8881023603841315612da8578b8cfd5b8a8752918290528701908a908987015b81831015612de15761ffff612dcc856126a6565b16815292890192600192909201918901612db8565b9389013596890196909652505093850193925090840190600101612ce9565b50909a9950505050505050505050565b604051601f8201601f1916810167ffffffffffffffff81118282101715612e3957612e39612f1d565b604052919050565b60008219821115612e5457612e54612f07565b500190565b6000816000190483118215151615612e7357612e73612f07565b500290565b600082821015612e8a57612e8a612f07565b500390565b60005b83811015612eaa578181015183820152602001612e92565b83811115611ae45750506000910152565b600081612eca57612eca612f07565b506000190190565b600281046001821680612ee657607f821691505b60208210811415611c8557634e487b7160e01b600052602260045260246000fd5b634e487b7160e01b600052601160045260246000fd5b634e487b7160e01b600052604160045260246000fd5b6001600160a01b0381168114610ee257600080fdfea264697066735822122054b1f70432f6b64ef035eb061b854825e45d764c2a676552836e6e53864136be64736f6c63430008020033",
  "devdoc": {
    "kind": "dev",
    "methods": {
      "DOMAIN_SEPARATOR()": {
        "details": "Returns the domain separator used in the encoding of the signature for {permit}, as defined by {EIP712}."
      },
      "addAllowanceIfNeeded(address,address,uint256)": {
        "params": {
          "amountNeeded": "The amount requested to spend",
          "owner": "The address of the owner of the tokens",
          "spender": "The address wanting to spend tokens"
        },
        "returns": {
          "success": "Whether or not the call succeeded."
        }
      },
      "allowance(address,address)": {
        "params": {
          "owner": "The address whose token is allowed.",
          "spender": "The address allowed to transfer."
        },
        "returns": {
          "remaining": "The amount of token `spender` is allowed to transfer on behalf of `owner`."
        }
      },
      "approve(address,uint256)": {
        "params": {
          "amount": "The number of tokens allowed.",
          "spender": "The address to be given rights to transfer."
        },
        "returns": {
          "success": "Whether or not the call succeeded."
        }
      },
      "approveFor(address,address,uint256)": {
        "params": {
          "amount": "The number of tokens allowed.",
          "owner": "The address whose token is allowed.",
          "spender": "The address to be given rights to transfer."
        },
        "returns": {
          "success": "Whether or not the call succeeded."
        }
      },
      "balanceOf(address)": {
        "params": {
          "owner": "The address to query the balance of."
        },
        "returns": {
          "_0": "The amount owned by `owner`."
        }
      },
      "burn(uint256)": {
        "params": {
          "amount": "The number of tokens to burn."
        }
      },
      "burnFor(address,uint256)": {
        "params": {
          "amount": "The number of tokens to burn.",
          "from": "The address whose token to burn."
        }
      },
      "changeAttributes(address)": {
        "params": {
          "attributes": "The new attributes contract."
        }
      },
      "checkApproveFor(address,address,uint256,uint256,uint8,bytes32,bytes32)": {
        "params": {
          "deadline": "The deadline for granting permission to the spender",
          "owner": "The owner of the ERC20 tokens",
          "r": "The first 32 bytes of signature",
          "s": "The second 32 bytes of signature",
          "spender": "The nominated spender of the ERC20 tokens",
          "v": "The final 1 byte of signature",
          "value": "The value (allowance) of the ERC20 tokens that the nominated spender will be allowed to spend"
        }
      },
      "decimals()": {
        "returns": {
          "_0": "The number of decimals."
        }
      },
      "getAttributes(uint256,(uint16[],bytes32)[])": {
        "returns": {
          "values": "An array of values representing the \"level\" of each gem. ie: Power=14, speed=45, etc..."
        }
      },
      "getMaxGems()": {
        "returns": {
          "_0": "The value of _maxGems."
        }
      },
      "getRoleAdmin(bytes32)": {
        "details": "Returns the admin role that controls `role`. See {grantRole} and {revokeRole}. To change a role's admin, use {_setRoleAdmin}."
      },
      "grantRole(bytes32,address)": {
        "details": "Grants `role` to `account`. If `account` had not been already granted `role`, emits a {RoleGranted} event. Requirements: - the caller must have ``role``'s admin role."
      },
      "hasRole(bytes32,address)": {
        "details": "Returns `true` if `account` has been granted `role`."
      },
      "name()": {
        "returns": {
          "_0": "The name of the token collection."
        }
      },
      "nonces(address)": {
        "details": "Returns the current nonce for `owner`. This value must be included whenever a signature is generated for {permit}. Every successful call to {permit} increases ``owner``'s nonce by one. This prevents a signature from being used multiple times."
      },
      "permit(address,address,uint256,uint256,uint8,bytes32,bytes32)": {
        "params": {
          "deadline": "The deadline for granting permission to the spender",
          "owner": "The owner of the ERC20 tokens",
          "r": "The first 32 bytes of signature",
          "s": "The second 32 bytes of signature",
          "spender": "The nominated spender of the ERC20 tokens",
          "v": "The final 1 byte of signature",
          "value": "The value (allowance) of the ERC20 tokens that the nominated spender will be allowed to spend"
        }
      },
      "renounceRole(bytes32,address)": {
        "details": "Revokes `role` from the calling account. Roles are often managed via {grantRole} and {revokeRole}: this function's purpose is to provide a mechanism for accounts to lose their privileges if they are compromised (such as when a trusted device is misplaced). If the calling account had been revoked `role`, emits a {RoleRevoked} event. Requirements: - the caller must be `account`."
      },
      "revokeRole(bytes32,address)": {
        "details": "Revokes `role` from `account`. If `account` had been granted `role`, emits a {RoleRevoked} event. Requirements: - the caller must have ``role``'s admin role."
      },
      "supportsInterface(bytes4)": {
        "details": "See {IERC165-supportsInterface}."
      },
      "symbol()": {
        "returns": {
          "_0": "The symbol of the token collection."
        }
      },
      "totalSupply()": {
        "returns": {
          "_0": "The total number of tokens in existence."
        }
      },
      "transfer(address,uint256)": {
        "params": {
          "amount": "The number of tokens being transfered.",
          "to": "The recipient address of the tokens being transfered."
        },
        "returns": {
          "success": "Whether or not the transfer succeeded."
        }
      },
      "transferAndCall(address,uint256,bytes)": {
        "params": {
          "_data": "The extra data to be passed to the receiving contract.",
          "_to": "The address to transfer to.",
          "_value": "The amount to be transferred."
        }
      },
      "transferFrom(address,address,uint256)": {
        "params": {
          "amount": "The number of tokens transfered.",
          "from": "The origin address  of the tokens being transferred.",
          "to": "The recipient address of the tokensbeing  transfered."
        },
        "returns": {
          "success": "Whether or not the transfer succeeded."
        }
      }
    },
    "version": 1
  },
  "userdoc": {
    "events": {
      "Approval(address,address,uint256)": {
        "notice": "emitted when owner grant transfer rights to another address"
      },
      "Transfer(address,address,uint256)": {
        "notice": "emitted when tokens are transfered from one address to another."
      }
    },
    "kind": "user",
    "methods": {
      "addAllowanceIfNeeded(address,address,uint256)": {
        "notice": "Increase the allowance for the spender if needed"
      },
      "allowance(address,address)": {
        "notice": "Get the allowance of `spender` for `owner`'s tokens."
      },
      "approve(address,uint256)": {
        "notice": "Approve `spender` to transfer `amount` tokens."
      },
      "approveFor(address,address,uint256)": {
        "notice": "Approve `spender` to transfer `amount` tokens from `owner`."
      },
      "balanceOf(address)": {
        "notice": "Get the balance of `owner`."
      },
      "burn(uint256)": {
        "notice": "Burn `amount` tokens."
      },
      "burnFor(address,uint256)": {
        "notice": "Burn `amount` tokens from `owner`."
      },
      "changeAttributes(address)": {
        "notice": "Used by Admin to update the attributes contract."
      },
      "checkApproveFor(address,address,uint256,uint256,uint8,bytes32,bytes32)": {
        "notice": "Function to permit the expenditure of ERC20 token by a nominated spender"
      },
      "decimals()": {
        "notice": "Get the number of decimals for the token collection."
      },
      "getAttributes(uint256,(uint16[],bytes32)[])": {
        "notice": "Get the attributes for each gem in an asset. See DefaultAttributes.getAttributes for more."
      },
      "getMaxGems()": {
        "notice": "Get the value of _maxGems(the max number of gems that can be embeded in this type of catalyst)."
      },
      "name()": {
        "notice": "Get the name of the token collection."
      },
      "permit(address,address,uint256,uint256,uint8,bytes32,bytes32)": {
        "notice": "Function to permit the expenditure of ERC20 token by a nominated spender"
      },
      "symbol()": {
        "notice": "Get the symbol for the token collection."
      },
      "totalSupply()": {
        "notice": "Get the total number of tokens in existence."
      },
      "transfer(address,uint256)": {
        "notice": "Transfer `amount` tokens to `to`."
      },
      "transferAndCall(address,uint256,bytes)": {
        "notice": "Transfers tokens to an address with _data if the recipient is a contact."
      },
      "transferFrom(address,address,uint256)": {
        "notice": "Transfer `amount` tokens from `from` to `to`."
      }
    },
    "version": 1
  },
  "storageLayout": {
    "storage": [
      {
        "astId": 7669,
        "contract": "src/solc_0.8/catalyst/CatalystV1.sol:CatalystV1",
        "label": "_initialized",
        "offset": 0,
        "slot": "0",
        "type": "t_bool"
      },
      {
        "astId": 7672,
        "contract": "src/solc_0.8/catalyst/CatalystV1.sol:CatalystV1",
        "label": "_initializing",
        "offset": 1,
        "slot": "0",
        "type": "t_bool"
      },
      {
        "astId": 10347,
        "contract": "src/solc_0.8/catalyst/CatalystV1.sol:CatalystV1",
        "label": "_HASHED_NAME",
        "offset": 0,
        "slot": "1",
        "type": "t_bytes32"
      },
      {
        "astId": 10349,
        "contract": "src/solc_0.8/catalyst/CatalystV1.sol:CatalystV1",
        "label": "_HASHED_VERSION",
        "offset": 0,
        "slot": "2",
        "type": "t_bytes32"
      },
      {
        "astId": 10486,
        "contract": "src/solc_0.8/catalyst/CatalystV1.sol:CatalystV1",
        "label": "__gap",
        "offset": 0,
        "slot": "3",
        "type": "t_array(t_uint256)50_storage"
      },
      {
        "astId": 33269,
        "contract": "src/solc_0.8/catalyst/CatalystV1.sol:CatalystV1",
        "label": "_nonces",
        "offset": 0,
        "slot": "53",
        "type": "t_mapping(t_address,t_struct(Counter)9677_storage)"
      },
      {
        "astId": 33410,
        "contract": "src/solc_0.8/catalyst/CatalystV1.sol:CatalystV1",
        "label": "__gap",
        "offset": 0,
        "slot": "54",
        "type": "t_array(t_uint256)49_storage"
      },
      {
        "astId": 9670,
        "contract": "src/solc_0.8/catalyst/CatalystV1.sol:CatalystV1",
        "label": "__gap",
        "offset": 0,
        "slot": "103",
        "type": "t_array(t_uint256)50_storage"
      },
      {
        "astId": 7572,
        "contract": "src/solc_0.8/catalyst/CatalystV1.sol:CatalystV1",
        "label": "_trustedForwarder",
        "offset": 0,
        "slot": "153",
        "type": "t_address"
      },
      {
        "astId": 7661,
        "contract": "src/solc_0.8/catalyst/CatalystV1.sol:CatalystV1",
        "label": "__gap",
        "offset": 0,
        "slot": "154",
        "type": "t_array(t_uint256)49_storage"
      },
      {
        "astId": 10532,
        "contract": "src/solc_0.8/catalyst/CatalystV1.sol:CatalystV1",
        "label": "__gap",
        "offset": 0,
        "slot": "203",
        "type": "t_array(t_uint256)50_storage"
      },
      {
        "astId": 7074,
        "contract": "src/solc_0.8/catalyst/CatalystV1.sol:CatalystV1",
        "label": "_roles",
        "offset": 0,
        "slot": "253",
        "type": "t_mapping(t_bytes32,t_struct(RoleData)7069_storage)"
      },
      {
        "astId": 7361,
        "contract": "src/solc_0.8/catalyst/CatalystV1.sol:CatalystV1",
        "label": "__gap",
        "offset": 0,
        "slot": "254",
        "type": "t_array(t_uint256)49_storage"
      },
      {
        "astId": 28651,
        "contract": "src/solc_0.8/catalyst/CatalystV1.sol:CatalystV1",
        "label": "_name",
        "offset": 0,
        "slot": "303",
        "type": "t_string_storage"
      },
      {
        "astId": 28653,
        "contract": "src/solc_0.8/catalyst/CatalystV1.sol:CatalystV1",
        "label": "_symbol",
        "offset": 0,
        "slot": "304",
        "type": "t_string_storage"
      },
      {
        "astId": 28655,
        "contract": "src/solc_0.8/catalyst/CatalystV1.sol:CatalystV1",
        "label": "_totalSupply",
        "offset": 0,
        "slot": "305",
        "type": "t_uint256"
      },
      {
        "astId": 28659,
        "contract": "src/solc_0.8/catalyst/CatalystV1.sol:CatalystV1",
        "label": "_balances",
        "offset": 0,
        "slot": "306",
        "type": "t_mapping(t_address,t_uint256)"
      },
      {
        "astId": 28665,
        "contract": "src/solc_0.8/catalyst/CatalystV1.sol:CatalystV1",
        "label": "_allowances",
        "offset": 0,
        "slot": "307",
        "type": "t_mapping(t_address,t_mapping(t_address,t_uint256))"
      },
      {
        "astId": 28669,
        "contract": "src/solc_0.8/catalyst/CatalystV1.sol:CatalystV1",
        "label": "__gap",
        "offset": 0,
        "slot": "308",
        "type": "t_array(t_uint256)50_storage"
      },
      {
        "astId": 29531,
        "contract": "src/solc_0.8/catalyst/CatalystV1.sol:CatalystV1",
        "label": "__gap",
        "offset": 0,
        "slot": "358",
        "type": "t_array(t_uint256)50_storage"
      },
      {
        "astId": 24411,
        "contract": "src/solc_0.8/catalyst/CatalystV1.sol:CatalystV1",
        "label": "catalystId",
        "offset": 0,
        "slot": "408",
        "type": "t_uint16"
      },
      {
        "astId": 24413,
        "contract": "src/solc_0.8/catalyst/CatalystV1.sol:CatalystV1",
        "label": "_maxGems",
        "offset": 2,
        "slot": "408",
        "type": "t_uint8"
      },
      {
        "astId": 24421,
        "contract": "src/solc_0.8/catalyst/CatalystV1.sol:CatalystV1",
        "label": "_attributes",
        "offset": 3,
        "slot": "408",
        "type": "t_contract(IAttributes)35149"
      }
    ],
    "types": {
      "t_address": {
        "encoding": "inplace",
        "label": "address",
        "numberOfBytes": "20"
      },
      "t_array(t_uint256)49_storage": {
        "base": "t_uint256",
        "encoding": "inplace",
        "label": "uint256[49]",
        "numberOfBytes": "1568"
      },
      "t_array(t_uint256)50_storage": {
        "base": "t_uint256",
        "encoding": "inplace",
        "label": "uint256[50]",
        "numberOfBytes": "1600"
      },
      "t_bool": {
        "encoding": "inplace",
        "label": "bool",
        "numberOfBytes": "1"
      },
      "t_bytes32": {
        "encoding": "inplace",
        "label": "bytes32",
        "numberOfBytes": "32"
      },
      "t_contract(IAttributes)35149": {
        "encoding": "inplace",
        "label": "contract IAttributes",
        "numberOfBytes": "20"
      },
      "t_mapping(t_address,t_bool)": {
        "encoding": "mapping",
        "key": "t_address",
        "label": "mapping(address => bool)",
        "numberOfBytes": "32",
        "value": "t_bool"
      },
      "t_mapping(t_address,t_mapping(t_address,t_uint256))": {
        "encoding": "mapping",
        "key": "t_address",
        "label": "mapping(address => mapping(address => uint256))",
        "numberOfBytes": "32",
        "value": "t_mapping(t_address,t_uint256)"
      },
      "t_mapping(t_address,t_struct(Counter)9677_storage)": {
        "encoding": "mapping",
        "key": "t_address",
        "label": "mapping(address => struct CountersUpgradeable.Counter)",
        "numberOfBytes": "32",
        "value": "t_struct(Counter)9677_storage"
      },
      "t_mapping(t_address,t_uint256)": {
        "encoding": "mapping",
        "key": "t_address",
        "label": "mapping(address => uint256)",
        "numberOfBytes": "32",
        "value": "t_uint256"
      },
      "t_mapping(t_bytes32,t_struct(RoleData)7069_storage)": {
        "encoding": "mapping",
        "key": "t_bytes32",
        "label": "mapping(bytes32 => struct AccessControlUpgradeable.RoleData)",
        "numberOfBytes": "32",
        "value": "t_struct(RoleData)7069_storage"
      },
      "t_string_storage": {
        "encoding": "bytes",
        "label": "string",
        "numberOfBytes": "32"
      },
      "t_struct(Counter)9677_storage": {
        "encoding": "inplace",
        "label": "struct CountersUpgradeable.Counter",
        "members": [
          {
            "astId": 9676,
            "contract": "src/solc_0.8/catalyst/CatalystV1.sol:CatalystV1",
            "label": "_value",
            "offset": 0,
            "slot": "0",
            "type": "t_uint256"
          }
        ],
        "numberOfBytes": "32"
      },
      "t_struct(RoleData)7069_storage": {
        "encoding": "inplace",
        "label": "struct AccessControlUpgradeable.RoleData",
        "members": [
          {
            "astId": 7066,
            "contract": "src/solc_0.8/catalyst/CatalystV1.sol:CatalystV1",
            "label": "members",
            "offset": 0,
            "slot": "0",
            "type": "t_mapping(t_address,t_bool)"
          },
          {
            "astId": 7068,
            "contract": "src/solc_0.8/catalyst/CatalystV1.sol:CatalystV1",
            "label": "adminRole",
            "offset": 0,
            "slot": "1",
            "type": "t_bytes32"
          }
        ],
        "numberOfBytes": "64"
      },
      "t_uint16": {
        "encoding": "inplace",
        "label": "uint16",
        "numberOfBytes": "2"
      },
      "t_uint256": {
        "encoding": "inplace",
        "label": "uint256",
        "numberOfBytes": "32"
      },
      "t_uint8": {
        "encoding": "inplace",
        "label": "uint8",
        "numberOfBytes": "1"
      }
    }
  }
}