{
  "address": "0xeAEA666106F39864A40FA60298CF0cBBCfabbd5C",
  "abi": [
    {
      "inputs": [
        {
          "internalType": "contract IPolygonSand",
          "name": "polygonSand",
          "type": "address"
        }
      ],
      "stateMutability": "nonpayable",
      "type": "constructor"
    },
    {
      "anonymous": false,
      "inputs": [
        {
          "indexed": true,
          "internalType": "address",
          "name": "previousOwner",
          "type": "address"
        },
        {
          "indexed": true,
          "internalType": "address",
          "name": "newOwner",
          "type": "address"
        }
      ],
      "name": "OwnershipTransferred",
      "type": "event"
    },
    {
      "inputs": [
        {
          "internalType": "address[]",
          "name": "holders",
          "type": "address[]"
        },
        {
          "internalType": "uint256[]",
          "name": "values",
          "type": "uint256[]"
        }
      ],
      "name": "batchMint",
      "outputs": [],
      "stateMutability": "nonpayable",
      "type": "function"
    },
    {
      "inputs": [],
      "name": "owner",
      "outputs": [
        {
          "internalType": "address",
          "name": "",
          "type": "address"
        }
      ],
      "stateMutability": "view",
      "type": "function"
    },
    {
      "inputs": [],
      "name": "renounceOwnership",
      "outputs": [],
      "stateMutability": "nonpayable",
      "type": "function"
    },
    {
      "inputs": [
        {
          "internalType": "address",
          "name": "newOwner",
          "type": "address"
        }
      ],
      "name": "transferOwnership",
      "outputs": [],
      "stateMutability": "nonpayable",
      "type": "function"
    }
  ],
  "transactionHash": "0x1d4ef17072601054c81d7fde46572cc090bf5036ba28edd841b8aad38c1ba3e7",
  "args": [
    "0xE03489D4E90b22c59c5e23d45DFd59Fc0dB8a025"
  ],
  "solcInputHash": "1d5cd997742b08979089375cbc4e64fc",
  "bytecode": "0x60a060405234801561001057600080fd5b5060405161074738038061074783398101604081905261002f91610085565b600080546001600160a01b031916339081178255604051909182917f8be0079c531659141344cd1fd0a4f28419497f9722a3daafe3b4186f6b6457e0908290a35060601b6001600160601b0319166080526100b3565b600060208284031215610096578081fd5b81516001600160a01b03811681146100ac578182fd5b9392505050565b60805160601c6106766100d1600039600061018101526106766000f3fe608060405234801561001057600080fd5b506004361061004c5760003560e01c80636857310714610051578063715018a6146100665780638da5cb5b1461006e578063f2fde38b1461008d575b600080fd5b61006461005f366004610510565b6100a0565b005b610064610294565b600054604080516001600160a01b039092168252519081900360200190f35b61006461009b3660046104e2565b610350565b6000546001600160a01b031633146100ff5760405162461bcd60e51b815260206004820181905260248201527f4f776e61626c653a2063616c6c6572206973206e6f7420746865206f776e657260448201526064015b60405180910390fd5b8281146101745760405162461bcd60e51b815260206004820152603560248201527f4e756d626572206f6620686f6c646572732073686f756c64206265206571756160448201527f6c20746f206e756d626572206f662076616c756573000000000000000000000060648201526084016100f6565b60005b8381101561028d577f00000000000000000000000000000000000000000000000000000000000000006001600160a01b031663cf2c52cb8686848181106101ce57634e487b7160e01b600052603260045260246000fd5b90506020020160208101906101e391906104e2565b85858581811061020357634e487b7160e01b600052603260045260246000fd5b9050602002013560405160200161021c91815260200190565b6040516020818303038152906040526040518363ffffffff1660e01b8152600401610248929190610579565b600060405180830381600087803b15801561026257600080fd5b505af1158015610276573d6000803e3d6000fd5b505050508080610285906105fb565b915050610177565b5050505050565b6000546001600160a01b031633146102ee5760405162461bcd60e51b815260206004820181905260248201527f4f776e61626c653a2063616c6c6572206973206e6f7420746865206f776e657260448201526064016100f6565b600080546040516001600160a01b03909116907f8be0079c531659141344cd1fd0a4f28419497f9722a3daafe3b4186f6b6457e0908390a3600080547fffffffffffffffffffffffff0000000000000000000000000000000000000000169055565b6000546001600160a01b031633146103aa5760405162461bcd60e51b815260206004820181905260248201527f4f776e61626c653a2063616c6c6572206973206e6f7420746865206f776e657260448201526064016100f6565b6001600160a01b0381166104265760405162461bcd60e51b815260206004820152602660248201527f4f776e61626c653a206e6577206f776e657220697320746865207a65726f206160448201527f646472657373000000000000000000000000000000000000000000000000000060648201526084016100f6565b600080546040516001600160a01b03808516939216917f8be0079c531659141344cd1fd0a4f28419497f9722a3daafe3b4186f6b6457e091a3600080547fffffffffffffffffffffffff0000000000000000000000000000000000000000166001600160a01b0392909216919091179055565b60008083601f8401126104aa578182fd5b50813567ffffffffffffffff8111156104c1578182fd5b60208301915083602080830285010111156104db57600080fd5b9250929050565b6000602082840312156104f3578081fd5b81356001600160a01b0381168114610509578182fd5b9392505050565b60008060008060408587031215610525578283fd5b843567ffffffffffffffff8082111561053c578485fd5b61054888838901610499565b90965094506020870135915080821115610560578384fd5b5061056d87828801610499565b95989497509550505050565b60006001600160a01b038416825260206040818401528351806040850152825b818110156105b557858101830151858201606001528201610599565b818111156105c65783606083870101525b50601f017fffffffffffffffffffffffffffffffffffffffffffffffffffffffffffffffe01692909201606001949350505050565b60007fffffffffffffffffffffffffffffffffffffffffffffffffffffffffffffffff82141561063957634e487b7160e01b81526011600452602481fd5b506001019056fea2646970667358221220583e4763ad114743f9c74c3dd0bfff105052c08212dc25d1e93203f53611fd3b64736f6c63430008020033",
  "devdoc": {
    "kind": "dev",
    "methods": {
      "owner()": {
        "details": "Returns the address of the current owner."
      },
      "renounceOwnership()": {
        "details": "Leaves the contract without owner. It will not be possible to call `onlyOwner` functions anymore. Can only be called by the current owner. NOTE: Renouncing ownership will leave the contract without an owner, thereby removing any functionality that is only available to the owner."
      },
      "transferOwnership(address)": {
        "details": "Transfers ownership of the contract to a new account (`newOwner`). Can only be called by the current owner."
      }
    },
    "version": 1
  },
  "userdoc": {
    "kind": "user",
    "methods": {},
    "version": 1
  },
  "storageLayout": {
    "storage": [
      {
        "astId": 7,
        "contract": "src/solc_0.8/polygon/root/PolygonSandBatchDeposit.sol:PolygonSandBatchDeposit",
        "label": "_owner",
        "offset": 0,
        "slot": "0",
        "type": "t_address"
      }
    ],
    "types": {
      "t_address": {
        "encoding": "inplace",
        "label": "address",
        "numberOfBytes": "20"
      }
    }
  }
}