{
  "address": "0xbC017f30052BDEc6F76d2fccc9dDc60E2330A2Bf",
  "abi": [
    {
      "inputs": [
        {
          "internalType": "address",
          "name": "_fxChild",
          "type": "address"
        },
        {
          "internalType": "contract IERC721",
          "name": "_childAvatarToken",
          "type": "address"
        },
        {
          "internalType": "address",
          "name": "_trustedForwarder",
          "type": "address"
        }
      ],
      "stateMutability": "nonpayable",
      "type": "constructor"
    },
    {
      "anonymous": false,
      "inputs": [
        {
          "indexed": true,
          "internalType": "contract IERC721",
          "name": "childAvatarToken",
          "type": "address"
        },
        {
          "indexed": true,
          "internalType": "address",
          "name": "depositor",
          "type": "address"
        },
        {
          "indexed": true,
          "internalType": "address",
          "name": "to",
          "type": "address"
        },
        {
          "indexed": false,
          "internalType": "uint256",
          "name": "id",
          "type": "uint256"
        }
      ],
      "name": "AvatarReceivedFromL1",
      "type": "event"
    },
    {
      "anonymous": false,
      "inputs": [
        {
          "indexed": true,
          "internalType": "contract IERC721",
          "name": "childAvatarToken",
          "type": "address"
        },
        {
          "indexed": true,
          "internalType": "address",
          "name": "depositor",
          "type": "address"
        },
        {
          "indexed": true,
          "internalType": "address",
          "name": "userAddress",
          "type": "address"
        },
        {
          "indexed": false,
          "internalType": "uint256",
          "name": "id",
          "type": "uint256"
        }
      ],
      "name": "AvatarSentToL1",
      "type": "event"
    },
    {
      "anonymous": false,
      "inputs": [
        {
          "indexed": false,
          "internalType": "bytes",
          "name": "message",
          "type": "bytes"
        }
      ],
      "name": "MessageSent",
      "type": "event"
    },
    {
      "anonymous": false,
      "inputs": [
        {
          "indexed": true,
          "internalType": "address",
          "name": "previousOwner",
          "type": "address"
        },
        {
          "indexed": true,
          "internalType": "address",
          "name": "newOwner",
          "type": "address"
        }
      ],
      "name": "OwnershipTransferred",
      "type": "event"
    },
    {
      "inputs": [],
      "name": "childAvatarToken",
      "outputs": [
        {
          "internalType": "contract IERC721",
          "name": "",
          "type": "address"
        }
      ],
      "stateMutability": "view",
      "type": "function"
    },
    {
      "inputs": [],
      "name": "fxChild",
      "outputs": [
        {
          "internalType": "address",
          "name": "",
          "type": "address"
        }
      ],
      "stateMutability": "view",
      "type": "function"
    },
    {
      "inputs": [],
      "name": "fxRootTunnel",
      "outputs": [
        {
          "internalType": "address",
          "name": "",
          "type": "address"
        }
      ],
      "stateMutability": "view",
      "type": "function"
    },
    {
      "inputs": [],
      "name": "getTrustedForwarder",
      "outputs": [
        {
          "internalType": "address",
          "name": "trustedForwarder",
          "type": "address"
        }
      ],
      "stateMutability": "view",
      "type": "function"
    },
    {
      "inputs": [
        {
          "internalType": "address",
          "name": "forwarder",
          "type": "address"
        }
      ],
      "name": "isTrustedForwarder",
      "outputs": [
        {
          "internalType": "bool",
          "name": "",
          "type": "bool"
        }
      ],
      "stateMutability": "view",
      "type": "function"
    },
    {
      "inputs": [
        {
          "internalType": "address",
          "name": "",
          "type": "address"
        },
        {
          "internalType": "address",
          "name": "",
          "type": "address"
        },
        {
          "internalType": "uint256[]",
          "name": "",
          "type": "uint256[]"
        },
        {
          "internalType": "bytes",
          "name": "",
          "type": "bytes"
        }
      ],
      "name": "onERC721BatchReceived",
      "outputs": [
        {
          "internalType": "bytes4",
          "name": "",
          "type": "bytes4"
        }
      ],
      "stateMutability": "pure",
      "type": "function"
    },
    {
      "inputs": [
        {
          "internalType": "address",
          "name": "",
          "type": "address"
        },
        {
          "internalType": "address",
          "name": "",
          "type": "address"
        },
        {
          "internalType": "uint256",
          "name": "",
          "type": "uint256"
        },
        {
          "internalType": "bytes",
          "name": "",
          "type": "bytes"
        }
      ],
      "name": "onERC721Received",
      "outputs": [
        {
          "internalType": "bytes4",
          "name": "",
          "type": "bytes4"
        }
      ],
      "stateMutability": "pure",
      "type": "function"
    },
    {
      "inputs": [],
      "name": "owner",
      "outputs": [
        {
          "internalType": "address",
          "name": "",
          "type": "address"
        }
      ],
      "stateMutability": "view",
      "type": "function"
    },
    {
      "inputs": [
        {
          "internalType": "uint256",
          "name": "stateId",
          "type": "uint256"
        },
        {
          "internalType": "address",
          "name": "rootMessageSender",
          "type": "address"
        },
        {
          "internalType": "bytes",
          "name": "data",
          "type": "bytes"
        }
      ],
      "name": "processMessageFromRoot",
      "outputs": [],
      "stateMutability": "nonpayable",
      "type": "function"
    },
    {
      "inputs": [],
      "name": "renounceOwnership",
      "outputs": [],
      "stateMutability": "nonpayable",
      "type": "function"
    },
    {
      "inputs": [
        {
          "internalType": "address",
          "name": "to",
          "type": "address"
        },
        {
          "internalType": "uint256",
          "name": "tokenId",
          "type": "uint256"
        }
      ],
      "name": "sendAvatarToL1",
      "outputs": [],
      "stateMutability": "nonpayable",
      "type": "function"
    },
    {
      "inputs": [
        {
          "internalType": "contract IERC721",
          "name": "_childAvatarToken",
          "type": "address"
        }
      ],
      "name": "setChildAvatarToken",
      "outputs": [],
      "stateMutability": "nonpayable",
      "type": "function"
    },
    {
      "inputs": [
        {
          "internalType": "address",
          "name": "_fxRootTunnel",
          "type": "address"
        }
      ],
      "name": "setFxRootTunnel",
      "outputs": [],
      "stateMutability": "nonpayable",
      "type": "function"
    },
    {
      "inputs": [
        {
          "internalType": "address",
          "name": "_fxRootTunnel",
          "type": "address"
        }
      ],
      "name": "setRootTunnel",
      "outputs": [],
      "stateMutability": "nonpayable",
      "type": "function"
    },
    {
      "inputs": [
        {
          "internalType": "address",
          "name": "trustedForwarder",
          "type": "address"
        }
      ],
      "name": "setTrustedForwarder",
      "outputs": [],
      "stateMutability": "nonpayable",
      "type": "function"
    },
    {
      "inputs": [
        {
          "internalType": "bytes4",
          "name": "interfaceId",
          "type": "bytes4"
        }
      ],
      "name": "supportsInterface",
      "outputs": [
        {
          "internalType": "bool",
          "name": "",
          "type": "bool"
        }
      ],
      "stateMutability": "pure",
      "type": "function"
    },
    {
      "inputs": [
        {
          "internalType": "address",
          "name": "newOwner",
          "type": "address"
        }
      ],
      "name": "transferOwnership",
      "outputs": [],
      "stateMutability": "nonpayable",
      "type": "function"
    }
  ],
  "transactionHash": "0xd7a6da23237e6416a67abc2fceab3eee12e29f4a6d0c3c4d4b1e45cdad62f1cb",
  "args": [
    "0xCf73231F28B7331BBe3124B907840A94851f9f11",
    "0xBd293b71E075a9f6D8C29C8191c90058a7bFCAc1",
    "0x9399BB24DBB5C4b782C70c2969F58716Ebbd6a3b"
  ],
  "numDeployments": 1,
  "solcInputHash": "8332cba76d82941fc502d29266a8490f",
  "bytecode": "0x60806040523480156200001157600080fd5b506040516200124f3803806200124f833981016040819052620000349162000144565b600080546001600160a01b0319166001600160a01b038516179055620000636200005d620000a6565b620000c3565b600280546001600160a01b0319166001600160a01b03831617905550600480546001600160a01b0319166001600160a01b039290921691909117905550620001b0565b6000620000bd6200011560201b62000a441760201c565b90505b90565b600380546001600160a01b038381166001600160a01b0319831681179093556040519116919082907f8be0079c531659141344cd1fd0a4f28419497f9722a3daafe3b4186f6b6457e090600090a35050565b6002546000906001600160a01b03163314156200013c575060131936013560601c620000c0565b5033620000c0565b60008060006060848603121562000159578283fd5b8351620001668162000197565b6020850151909350620001798162000197565b60408501519092506200018c8162000197565b809150509250925092565b6001600160a01b0381168114620001ad57600080fd5b50565b61108f80620001c06000396000f3fe608060405234801561001057600080fd5b506004361061011b5760003560e01c8063715018a6116100b25780639a7c4b7111610081578063da74222811610066578063da742228146102cc578063e3e906c3146102df578063f2fde38b146102f25761011b565b80639a7c4b71146102a8578063ce1b815f146102bb5761011b565b8063715018a6146102725780637f1e9cb01461027a578063888370941461028d5780638da5cb5b146102a05761011b565b80633632d225116100ee5780633632d225146101d9578063450d11f0146101ec5780634b808c4614610217578063572b6c05146102505761011b565b806301ffc9a71461012057806306406b4f14610148578063150b7a021461015d5780631c04fd4d146101c6575b600080fd5b61013361012e366004610f39565b610305565b60405190151581526020015b60405180910390f35b61015b610156366004610d79565b6103ea565b005b61019561016b366004610e9d565b7f150b7a020000000000000000000000000000000000000000000000000000000095945050505050565b6040517fffffffff00000000000000000000000000000000000000000000000000000000909116815260200161013f565b61015b6101d4366004610f0e565b61048d565b61015b6101e7366004610d79565b610640565b6000546101ff906001600160a01b031681565b6040516001600160a01b03909116815260200161013f565b610195610225366004610dde565b7f4b808c46000000000000000000000000000000000000000000000000000000009695505050505050565b61013361025e366004610d79565b6002546001600160a01b0390811691161490565b61015b6106de565b6001546101ff906001600160a01b031681565b61015b61029b366004610d79565b610759565b6101ff6107d8565b61015b6102b6366004610f79565b6107e8565b6002546001600160a01b03166101ff565b61015b6102da366004610d79565b6108af565b6004546101ff906001600160a01b031681565b61015b610300366004610d79565b61094d565b60007fffffffff0000000000000000000000000000000000000000000000000000000082167f01ffc9a700000000000000000000000000000000000000000000000000000000148061039857507fffffffff0000000000000000000000000000000000000000000000000000000082167f150b7a0200000000000000000000000000000000000000000000000000000000145b806103e457507fffffffff0000000000000000000000000000000000000000000000000000000082167f5e8bf64400000000000000000000000000000000000000000000000000000000145b92915050565b6103f2610a8e565b6001600160a01b03166104036107d8565b6001600160a01b03161461045e5760405162461bcd60e51b815260206004820181905260248201527f4f776e61626c653a2063616c6c6572206973206e6f7420746865206f776e657260448201526064015b60405180910390fd5b6004805473ffffffffffffffffffffffffffffffffffffffff19166001600160a01b0392909216919091179055565b6001600160a01b0382166105095760405162461bcd60e51b815260206004820152602160248201527f506f6c79676f6e41766174617254756e6e656c3a20494e56414c49445f55534560448201527f52000000000000000000000000000000000000000000000000000000000000006064820152608401610455565b6004546001600160a01b03166342842e0e610522610a8e565b6040517fffffffff0000000000000000000000000000000000000000000000000000000060e084901b1681526001600160a01b03909116600482015230602482015260448101849052606401600060405180830381600087803b15801561058857600080fd5b505af115801561059c573d6000803e3d6000fd5b505050506105e46105ab610a8e565b604080516001600160a01b0392831660208201529185169082015260608101839052608001604051602081830303815290604052610a9d565b816001600160a01b03166105f6610a8e565b6004546040518481526001600160a01b0392831692909116907f2ad967ec541e15be7f82d57835188b69477d99b71004443476e42f7f2c8ed6c49060200160405180910390a45050565b610648610a8e565b6001600160a01b03166106596107d8565b6001600160a01b0316146106af5760405162461bcd60e51b815260206004820181905260248201527f4f776e61626c653a2063616c6c6572206973206e6f7420746865206f776e65726044820152606401610455565b6001805473ffffffffffffffffffffffffffffffffffffffff19166001600160a01b0392909216919091179055565b6106e6610a8e565b6001600160a01b03166106f76107d8565b6001600160a01b03161461074d5760405162461bcd60e51b815260206004820181905260248201527f4f776e61626c653a2063616c6c6572206973206e6f7420746865206f776e65726044820152606401610455565b6107576000610ad7565b565b6001546001600160a01b0316156106af5760405162461bcd60e51b815260206004820152602a60248201527f4678426173654368696c6454756e6e656c3a20524f4f545f54554e4e454c5f4160448201527f4c52454144595f534554000000000000000000000000000000000000000000006064820152608401610455565b6003546001600160a01b03165b90565b6000546001600160a01b031633146108685760405162461bcd60e51b815260206004820152602160248201527f4678426173654368696c6454756e6e656c3a20494e56414c49445f53454e444560448201527f52000000000000000000000000000000000000000000000000000000000000006064820152608401610455565b6108a9848484848080601f016020809104026020016040519081016040528093929190818152602001838380828437600092019190915250610b3692505050565b50505050565b6108b7610a8e565b6001600160a01b03166108c86107d8565b6001600160a01b03161461091e5760405162461bcd60e51b815260206004820181905260248201527f4f776e61626c653a2063616c6c6572206973206e6f7420746865206f776e65726044820152606401610455565b6002805473ffffffffffffffffffffffffffffffffffffffff19166001600160a01b0392909216919091179055565b610955610a8e565b6001600160a01b03166109666107d8565b6001600160a01b0316146109bc5760405162461bcd60e51b815260206004820181905260248201527f4f776e61626c653a2063616c6c6572206973206e6f7420746865206f776e65726044820152606401610455565b6001600160a01b038116610a385760405162461bcd60e51b815260206004820152602660248201527f4f776e61626c653a206e6577206f776e657220697320746865207a65726f206160448201527f64647265737300000000000000000000000000000000000000000000000000006064820152608401610455565b610a4181610ad7565b50565b6002546000906001600160a01b0316331415610a8757507fffffffffffffffffffffffffffffffffffffffffffffffffffffffffffffffec36013560601c6107e5565b50336107e5565b6000610a98610a44565b905090565b7f8c5261668696ce22758910d05bab8f186d6eb247ceac2af2e82c7dc17669b03681604051610acc9190610fd3565b60405180910390a150565b600380546001600160a01b0383811673ffffffffffffffffffffffffffffffffffffffff19831681179093556040519116919082907f8be0079c531659141344cd1fd0a4f28419497f9722a3daafe3b4186f6b6457e090600090a35050565b6001546001600160a01b0316610bb45760405162461bcd60e51b815260206004820152602d60248201527f506f6c79676f6e41766174617254756e6e656c3a206678526f6f7454756e6e6560448201527f6c206d75737420626520736574000000000000000000000000000000000000006064820152608401610455565b6001546001600160a01b03838116911614610c375760405162461bcd60e51b815260206004820152602d60248201527f506f6c79676f6e41766174617254756e6e656c3a20494e56414c49445f53454e60448201527f4445525f46524f4d5f524f4f54000000000000000000000000000000000000006064820152608401610455565b600080600083806020019051810190610c509190610d9c565b600480546040517f42842e0e00000000000000000000000000000000000000000000000000000000815230928101929092526001600160a01b038085166024840152604483018490529497509295509093509116906342842e0e90606401600060405180830381600087803b158015610cc857600080fd5b505af1158015610cdc573d6000803e3d6000fd5b50506004546040518481526001600160a01b0386811694508781169350909116907fc7dff5e788eba410bfdb8cbe25aceec8488f8dba9aa83640472610e4a833b0cb9060200160405180910390a4505050505050565b60008083601f840112610d43578182fd5b50813567ffffffffffffffff811115610d5a578182fd5b602083019150836020828501011115610d7257600080fd5b9250929050565b600060208284031215610d8a578081fd5b8135610d9581611044565b9392505050565b600080600060608486031215610db0578182fd5b8351610dbb81611044565b6020850151909350610dcc81611044565b80925050604084015190509250925092565b60008060008060008060808789031215610df6578182fd5b8635610e0181611044565b95506020870135610e1181611044565b9450604087013567ffffffffffffffff80821115610e2d578384fd5b818901915089601f830112610e40578384fd5b813581811115610e4e578485fd5b8a60208083028501011115610e61578485fd5b602083019650809550506060890135915080821115610e7e578384fd5b50610e8b89828a01610d32565b979a9699509497509295939492505050565b600080600080600060808688031215610eb4578081fd5b8535610ebf81611044565b94506020860135610ecf81611044565b935060408601359250606086013567ffffffffffffffff811115610ef1578182fd5b610efd88828901610d32565b969995985093965092949392505050565b60008060408385031215610f20578182fd5b8235610f2b81611044565b946020939093013593505050565b600060208284031215610f4a578081fd5b81357fffffffff0000000000000000000000000000000000000000000000000000000081168114610d95578182fd5b60008060008060608587031215610f8e578384fd5b843593506020850135610fa081611044565b9250604085013567ffffffffffffffff811115610fbb578283fd5b610fc787828801610d32565b95989497509550505050565b6000602080835283518082850152825b81811015610fff57858101830151858201604001528201610fe3565b818111156110105783604083870101525b50601f017fffffffffffffffffffffffffffffffffffffffffffffffffffffffffffffffe016929092016040019392505050565b6001600160a01b0381168114610a4157600080fdfea2646970667358221220d1ea80af25c5b8b9b3b4ad46f7a24338848a3769f2462e965397e4baaefcc2af64736f6c63430008020033",
  "devdoc": {
    "kind": "dev",
    "methods": {
      "owner()": {
        "details": "Returns the address of the current owner."
      },
      "renounceOwnership()": {
        "details": "Leaves the contract without owner. It will not be possible to call `onlyOwner` functions anymore. Can only be called by the current owner. NOTE: Renouncing ownership will leave the contract without an owner, thereby removing any functionality that is only available to the owner."
      },
      "sendAvatarToL1(address,uint256)": {
        "details": "send token to L1, messages emitted by this contract are proved to the root tunnel.",
        "params": {
          "to": "user that will receive the avatar on L1",
          "tokenId": "id of the token that will be send"
        }
      },
      "setChildAvatarToken(address)": {
        "details": "Change the address of the child avatar token contract"
      },
      "setRootTunnel(address)": {
        "details": "set the fxRootTunnel addresswe cannot override setFxRootTunnel, we must wait for the latest matic-fx release"
      },
      "setTrustedForwarder(address)": {
        "details": "Change the address of the trusted forwarder for meta-TX",
        "params": {
          "trustedForwarder": "The new trustedForwarder"
        }
      },
      "transferOwnership(address)": {
        "details": "Transfers ownership of the contract to a new account (`newOwner`). Can only be called by the current owner."
      }
    },
    "title": "Avatar Polygon matic-fx bridge on L2",
    "version": 1
  },
  "userdoc": {
    "kind": "user",
    "methods": {},
    "version": 1
  },
  "storageLayout": {
    "storage": [
      {
        "astId": 9151,
        "contract": "src/solc_0.8/polygon/child/avatar/PolygonAvatarTunnel.sol:PolygonAvatarTunnel",
        "label": "fxChild",
        "offset": 0,
        "slot": "0",
        "type": "t_address"
      },
      {
        "astId": 9153,
        "contract": "src/solc_0.8/polygon/child/avatar/PolygonAvatarTunnel.sol:PolygonAvatarTunnel",
        "label": "fxRootTunnel",
        "offset": 0,
        "slot": "1",
        "type": "t_address"
      },
      {
        "astId": 25284,
        "contract": "src/solc_0.8/polygon/child/avatar/PolygonAvatarTunnel.sol:PolygonAvatarTunnel",
        "label": "_trustedForwarder",
        "offset": 0,
        "slot": "2",
        "type": "t_address"
      },
      {
        "astId": 389,
        "contract": "src/solc_0.8/polygon/child/avatar/PolygonAvatarTunnel.sol:PolygonAvatarTunnel",
        "label": "_owner",
        "offset": 0,
        "slot": "3",
        "type": "t_address"
      },
      {
        "astId": 34358,
        "contract": "src/solc_0.8/polygon/child/avatar/PolygonAvatarTunnel.sol:PolygonAvatarTunnel",
        "label": "childAvatarToken",
        "offset": 0,
        "slot": "4",
        "type": "t_contract(IERC721)2674"
      }
    ],
    "types": {
      "t_address": {
        "encoding": "inplace",
        "label": "address",
        "numberOfBytes": "20"
      },
      "t_contract(IERC721)2674": {
        "encoding": "inplace",
        "label": "contract IERC721",
        "numberOfBytes": "20"
      }
    }
  }
}