{
  "address": "0x9CD24ac7f14eE3E7d022A041FA6Ba57318B8A954",
  "abi": [
    {
      "inputs": [],
      "stateMutability": "nonpayable",
      "type": "constructor"
    },
    {
      "anonymous": false,
      "inputs": [
        {
          "indexed": true,
          "internalType": "address",
          "name": "user",
          "type": "address"
        },
        {
          "indexed": true,
          "internalType": "uint256",
          "name": "id",
          "type": "uint256"
        },
        {
          "indexed": false,
          "internalType": "bytes",
          "name": "data",
          "type": "bytes"
        }
      ],
      "name": "Deposit",
      "type": "event"
    },
    {
      "anonymous": false,
      "inputs": [
        {
          "indexed": false,
          "internalType": "bytes",
          "name": "message",
          "type": "bytes"
        }
      ],
      "name": "MessageSent",
      "type": "event"
    },
    {
      "anonymous": false,
      "inputs": [
        {
          "indexed": true,
          "internalType": "address",
          "name": "previousOwner",
          "type": "address"
        },
        {
          "indexed": true,
          "internalType": "address",
          "name": "newOwner",
          "type": "address"
        }
      ],
      "name": "OwnershipTransferred",
      "type": "event"
    },
    {
      "anonymous": false,
      "inputs": [
        {
          "indexed": false,
          "internalType": "address",
          "name": "account",
          "type": "address"
        }
      ],
      "name": "Paused",
      "type": "event"
    },
    {
      "anonymous": false,
      "inputs": [
        {
          "indexed": false,
          "internalType": "uint256",
          "name": "limit",
          "type": "uint256"
        }
      ],
      "name": "SetTransferLimit",
      "type": "event"
    },
    {
      "anonymous": false,
      "inputs": [
        {
          "indexed": false,
          "internalType": "address",
          "name": "account",
          "type": "address"
        }
      ],
      "name": "Unpaused",
      "type": "event"
    },
    {
      "anonymous": false,
      "inputs": [
        {
          "indexed": true,
          "internalType": "address",
          "name": "user",
          "type": "address"
        },
        {
          "indexed": true,
          "internalType": "uint256",
          "name": "id",
          "type": "uint256"
        },
        {
          "indexed": false,
          "internalType": "bytes",
          "name": "data",
          "type": "bytes"
        }
      ],
      "name": "Withdraw",
      "type": "event"
    },
    {
      "inputs": [
        {
          "internalType": "address",
          "name": "to",
          "type": "address"
        },
        {
          "internalType": "uint256[]",
          "name": "ids",
          "type": "uint256[]"
        }
      ],
      "name": "batchWithdrawToRoot",
      "outputs": [],
      "stateMutability": "nonpayable",
      "type": "function"
    },
    {
      "inputs": [],
      "name": "childToken",
      "outputs": [
        {
          "internalType": "contract IPolygonAssetERC721",
          "name": "",
          "type": "address"
        }
      ],
      "stateMutability": "view",
      "type": "function"
    },
    {
      "inputs": [],
      "name": "fxChild",
      "outputs": [
        {
          "internalType": "address",
          "name": "",
          "type": "address"
        }
      ],
      "stateMutability": "view",
      "type": "function"
    },
    {
      "inputs": [],
      "name": "fxRootTunnel",
      "outputs": [
        {
          "internalType": "address",
          "name": "",
          "type": "address"
        }
      ],
      "stateMutability": "view",
      "type": "function"
    },
    {
      "inputs": [],
      "name": "getTrustedForwarder",
      "outputs": [
        {
          "internalType": "address",
          "name": "trustedForwarder",
          "type": "address"
        }
      ],
      "stateMutability": "view",
      "type": "function"
    },
    {
      "inputs": [
        {
          "internalType": "address",
          "name": "_fxChild",
          "type": "address"
        },
        {
          "internalType": "contract IPolygonAssetERC721",
          "name": "_childToken",
          "type": "address"
        },
        {
          "internalType": "address",
          "name": "_trustedForwarder",
          "type": "address"
        },
        {
          "internalType": "uint256",
          "name": "_maxTransferLimit",
          "type": "uint256"
        }
      ],
      "name": "initialize",
      "outputs": [],
      "stateMutability": "nonpayable",
      "type": "function"
    },
    {
      "inputs": [
        {
          "internalType": "address",
          "name": "forwarder",
          "type": "address"
        }
      ],
      "name": "isTrustedForwarder",
      "outputs": [
        {
          "internalType": "bool",
          "name": "",
          "type": "bool"
        }
      ],
      "stateMutability": "view",
      "type": "function"
    },
    {
      "inputs": [],
      "name": "maxTransferLimit",
      "outputs": [
        {
          "internalType": "uint256",
          "name": "",
          "type": "uint256"
        }
      ],
      "stateMutability": "view",
      "type": "function"
    },
    {
      "inputs": [
        {
          "internalType": "address",
          "name": "",
          "type": "address"
        },
        {
          "internalType": "address",
          "name": "",
          "type": "address"
        },
        {
          "internalType": "uint256[]",
          "name": "",
          "type": "uint256[]"
        },
        {
          "internalType": "bytes",
          "name": "",
          "type": "bytes"
        }
      ],
      "name": "onERC721BatchReceived",
      "outputs": [
        {
          "internalType": "bytes4",
          "name": "",
          "type": "bytes4"
        }
      ],
      "stateMutability": "view",
      "type": "function"
    },
    {
      "inputs": [
        {
          "internalType": "address",
          "name": "",
          "type": "address"
        },
        {
          "internalType": "address",
          "name": "",
          "type": "address"
        },
        {
          "internalType": "uint256",
          "name": "",
          "type": "uint256"
        },
        {
          "internalType": "bytes",
          "name": "",
          "type": "bytes"
        }
      ],
      "name": "onERC721Received",
      "outputs": [
        {
          "internalType": "bytes4",
          "name": "",
          "type": "bytes4"
        }
      ],
      "stateMutability": "view",
      "type": "function"
    },
    {
      "inputs": [],
      "name": "owner",
      "outputs": [
        {
          "internalType": "address",
          "name": "",
          "type": "address"
        }
      ],
      "stateMutability": "view",
      "type": "function"
    },
    {
      "inputs": [],
      "name": "pause",
      "outputs": [],
      "stateMutability": "nonpayable",
      "type": "function"
    },
    {
      "inputs": [],
      "name": "paused",
      "outputs": [
        {
          "internalType": "bool",
          "name": "",
          "type": "bool"
        }
      ],
      "stateMutability": "view",
      "type": "function"
    },
    {
      "inputs": [
        {
          "internalType": "uint256",
          "name": "stateId",
          "type": "uint256"
        },
        {
          "internalType": "address",
          "name": "rootMessageSender",
          "type": "address"
        },
        {
          "internalType": "bytes",
          "name": "data",
          "type": "bytes"
        }
      ],
      "name": "processMessageFromRoot",
      "outputs": [],
      "stateMutability": "nonpayable",
      "type": "function"
    },
    {
      "inputs": [],
      "name": "renounceOwnership",
      "outputs": [],
      "stateMutability": "nonpayable",
      "type": "function"
    },
    {
      "inputs": [
        {
          "internalType": "address",
          "name": "_fxRootTunnel",
          "type": "address"
        }
      ],
      "name": "setFxRootTunnel",
      "outputs": [],
      "stateMutability": "nonpayable",
      "type": "function"
    },
    {
      "inputs": [
        {
          "internalType": "uint256",
          "name": "_maxTransferLimit",
          "type": "uint256"
        }
      ],
      "name": "setTransferLimit",
      "outputs": [],
      "stateMutability": "nonpayable",
      "type": "function"
    },
    {
      "inputs": [
        {
          "internalType": "address",
          "name": "trustedForwarder",
          "type": "address"
        }
      ],
      "name": "setTrustedForwarder",
      "outputs": [],
      "stateMutability": "nonpayable",
      "type": "function"
    },
    {
      "inputs": [
        {
          "internalType": "bytes4",
          "name": "interfaceId",
          "type": "bytes4"
        }
      ],
      "name": "supportsInterface",
      "outputs": [
        {
          "internalType": "bool",
          "name": "",
          "type": "bool"
        }
      ],
      "stateMutability": "pure",
      "type": "function"
    },
    {
      "inputs": [
        {
          "internalType": "address",
          "name": "newOwner",
          "type": "address"
        }
      ],
      "name": "transferOwnership",
      "outputs": [],
      "stateMutability": "nonpayable",
      "type": "function"
    },
    {
      "inputs": [],
      "name": "unpause",
      "outputs": [],
      "stateMutability": "nonpayable",
      "type": "function"
    }
  ],
  "transactionHash": "0x4e573130a4931c728b2515aaf5df8f122d2312f4e8cb110dfee5633c3a0c28f3",
  "args": [],
  "numDeployments": 1,
  "solcInputHash": "c6bcc3e7fc9b1399086cc28d40f8bc33",
  "bytecode": "0x60806040523480156200001157600080fd5b50600080546001600160a01b0319169055600154600160a81b900460ff166200004857600154600160a01b900460ff161562000052565b620000526200010e565b620000ba5760405162461bcd60e51b815260206004820152602e60248201527f496e697469616c697a61626c653a20636f6e747261637420697320616c72656160448201526d191e481a5b9a5d1a585b1a5e995960921b606482015260840160405180910390fd5b600154600160a81b900460ff16158015620000f2576001805460ff60a01b1960ff60a81b19909116600160a81b1716600160a01b1790555b801562000107576001805460ff60a81b191690555b5062000132565b600062000126306200012c60201b620013801760201c565b15905090565b3b151590565b61239d80620001426000396000f3fe608060405234801561001057600080fd5b50600436106101775760003560e01c80638456cb59116100d8578063bd85e93b1161008c578063da74222811610066578063da74222814610315578063f041965714610328578063f2fde38b1461033b57610177565b8063bd85e93b146102da578063ce1b815f146102f1578063cf756fdf1461030257610177565b80638da5cb5b116100bd5780638da5cb5b146102a35780639a7c4b71146102b4578063ac0007de146102c757610177565b80638456cb5914610288578063888370941461029057610177565b8063572b6c051161012f578063715018a611610114578063715018a61461025a5780637a17feff146102625780637f1e9cb01461027557610177565b8063572b6c05146102305780635c975abb1461025257610177565b80633f4ba83a116101605780633f4ba83a146101e8578063450d11f0146101f25780634b808c461461021d57610177565b806301ffc9a71461017c578063150b7a02146101a4575b600080fd5b61018f61018a366004612004565b61034e565b60405190151581526020015b60405180910390f35b6101b76101b2366004611ed0565b6103e7565b6040517fffffffff00000000000000000000000000000000000000000000000000000000909116815260200161019b565b6101f0610497565b005b600054610205906001600160a01b031681565b6040516001600160a01b03909116815260200161019b565b6101b761022b366004611e3e565b61056e565b61018f61023e366004611d4d565b6034546001600160a01b0390811691161490565b61018f61061a565b6101f0610624565b6101f0610270366004612077565b6106a7565b600154610205906001600160a01b031681565b6101f06107d2565b6101f061029e366004611d4d565b6108a8565b6098546001600160a01b0316610205565b6101f06102c236600461208f565b610956565b60fc54610205906001600160a01b031681565b6102e360fd5481565b60405190815260200161019b565b6034546001600160a01b0316610205565b6101f0610310366004611f94565b610a1d565b6101f0610323366004611d4d565b610dd4565b6101f0610336366004611f41565b610ef8565b6101f0610349366004611d4d565b61127f565b60007fffffffff0000000000000000000000000000000000000000000000000000000082167f5e8bf6440000000000000000000000000000000000000000000000000000000014806103e157507fffffffff0000000000000000000000000000000000000000000000000000000082167f01ffc9a700000000000000000000000000000000000000000000000000000000145b92915050565b60fe5460009060ff16151560011461046c5760405162461bcd60e51b815260206004820152603460248201527f506f6c79676f6e417373657445524337323154756e6e656c3a2063616e27742060448201527f6469726563746c792073656e642041737365747300000000000000000000000060648201526084015b60405180910390fd5b507f150b7a020000000000000000000000000000000000000000000000000000000095945050505050565b61049f611386565b6001600160a01b03166104ba6098546001600160a01b031690565b6001600160a01b0316146105105760405162461bcd60e51b815260206004820181905260248201527f4f776e61626c653a2063616c6c6572206973206e6f7420746865206f776e65726044820152606401610463565b61051861061a565b6105645760405162461bcd60e51b815260206004820152601460248201527f5061757361626c653a206e6f74207061757365640000000000000000000000006044820152606401610463565b61056c611395565b565b60fe5460009060ff1615156001146105ee5760405162461bcd60e51b815260206004820152603460248201527f506f6c79676f6e417373657445524337323154756e6e656c3a2063616e27742060448201527f6469726563746c792073656e64204173736574730000000000000000000000006064820152608401610463565b507f4b808c46000000000000000000000000000000000000000000000000000000009695505050505050565b60ca5460ff165b90565b61062c611386565b6001600160a01b03166106476098546001600160a01b031690565b6001600160a01b03161461069d5760405162461bcd60e51b815260206004820181905260248201527f4f776e61626c653a2063616c6c6572206973206e6f7420746865206f776e65726044820152606401610463565b61056c6000611439565b6106af611386565b6001600160a01b03166106ca6098546001600160a01b031690565b6001600160a01b0316146107205760405162461bcd60e51b815260206004820181905260248201527f4f776e61626c653a2063616c6c6572206973206e6f7420746865206f776e65726044820152606401610463565b600081116107965760405162461bcd60e51b815260206004820152603360248201527f506f6c79676f6e417373657445524337323154756e6e656c3a205f6d6178547260448201527f616e736665724c696d697420696e76616c6964000000000000000000000000006064820152608401610463565b60fd8190556040518181527f3fc6a03e501b3ca46f5b6c08064272abf4e2b0d2bbdeeaeba4e4a4f22c9e616d906020015b60405180910390a150565b6107da611386565b6001600160a01b03166107f56098546001600160a01b031690565b6001600160a01b03161461084b5760405162461bcd60e51b815260206004820181905260248201527f4f776e61626c653a2063616c6c6572206973206e6f7420746865206f776e65726044820152606401610463565b61085361061a565b156108a05760405162461bcd60e51b815260206004820152601060248201527f5061757361626c653a20706175736564000000000000000000000000000000006044820152606401610463565b61056c611498565b6001546001600160a01b0316156109275760405162461bcd60e51b815260206004820152602a60248201527f4678426173654368696c6454756e6e656c3a20524f4f545f54554e4e454c5f4160448201527f4c52454144595f534554000000000000000000000000000000000000000000006064820152608401610463565b6001805473ffffffffffffffffffffffffffffffffffffffff19166001600160a01b0392909216919091179055565b6000546001600160a01b031633146109d65760405162461bcd60e51b815260206004820152602160248201527f4678426173654368696c6454756e6e656c3a20494e56414c49445f53454e444560448201527f52000000000000000000000000000000000000000000000000000000000000006064820152608401610463565b610a17848484848080601f01602080910402602001604051908101604052809392919081815260200183838082843760009201919091525061152392505050565b50505050565b600154600160a81b900460ff16610a525760015474010000000000000000000000000000000000000000900460ff1615610a56565b303b155b610ac85760405162461bcd60e51b815260206004820152602e60248201527f496e697469616c697a61626c653a20636f6e747261637420697320616c72656160448201527f647920696e697469616c697a65640000000000000000000000000000000000006064820152608401610463565b600154600160a81b900460ff16158015610b4657600180547fffffffffffffffffffffff00ffffffffffffffffffffffffffffffffffffffff7fffffffffffffffffffff00ffffffffffffffffffffffffffffffffffffffffff909116600160a81b1716740100000000000000000000000000000000000000001790555b6001600160a01b038416610bc25760405162461bcd60e51b815260206004820152603360248201527f506f6c79676f6e417373657445524337323154756e6e656c3a205f6368696c6460448201527f546f6b656e2063616e2774206265207a65726f000000000000000000000000006064820152608401610463565b6001600160a01b038516610c3e5760405162461bcd60e51b815260206004820152603060248201527f506f6c79676f6e417373657445524337323154756e6e656c3a205f667843686960448201527f6c642063616e2774206265207a65726f000000000000000000000000000000006064820152608401610463565b6001600160a01b038316610cba5760405162461bcd60e51b815260206004820152603960248201527f506f6c79676f6e417373657445524337323154756e6e656c3a205f747275737460448201527f6564466f727761726465722063616e2774206265207a65726f000000000000006064820152608401610463565b60008211610d305760405162461bcd60e51b815260206004820152603360248201527f506f6c79676f6e417373657445524337323154756e6e656c3a205f6d6178547260448201527f616e736665724c696d697420696e76616c6964000000000000000000000000006064820152608401610463565b60fc805473ffffffffffffffffffffffffffffffffffffffff19166001600160a01b03861617905560fd829055610d656115b1565b610d6d61162e565b6034805473ffffffffffffffffffffffffffffffffffffffff19166001600160a01b038516179055610d9e856116ab565b8015610dcd57600180547fffffffffffffffffffff00ffffffffffffffffffffffffffffffffffffffffff1690555b5050505050565b610ddc611386565b6001600160a01b0316610df76098546001600160a01b031690565b6001600160a01b031614610e4d5760405162461bcd60e51b815260206004820181905260248201527f4f776e61626c653a2063616c6c6572206973206e6f7420746865206f776e65726044820152606401610463565b6001600160a01b038116610ec95760405162461bcd60e51b815260206004820152603860248201527f506f6c79676f6e417373657445524337323154756e6e656c3a2074727573746560448201527f64466f727761726465722063616e2774206265207a65726f00000000000000006064820152608401610463565b6034805473ffffffffffffffffffffffffffffffffffffffff19166001600160a01b0392909216919091179055565b610f0061061a565b15610f4d5760405162461bcd60e51b815260206004820152601060248201527f5061757361626c653a20706175736564000000000000000000000000000000006044820152606401610463565b60fd54811115610f9f5760405162461bcd60e51b815260206004820152601660248201527f455843454544535f5452414e534645525f4c494d4954000000000000000000006044820152606401610463565b60008167ffffffffffffffff811115610fc857634e487b7160e01b600052604160045260246000fd5b604051908082528060200260200182016040528015610ffb57816020015b6060815260200190600190039081610fe65790505b5060fe805460ff19166001179055905060005b8281101561124557600084848381811061103857634e487b7160e01b600052603260045260246000fd5b60fc546040517fc87b56dd00000000000000000000000000000000000000000000000000000000815260209290920293909301356004820181905293506000926001600160a01b0316915063c87b56dd9060240160006040518083038186803b1580156110a457600080fd5b505afa1580156110b8573d6000803e3d6000fd5b505050506040513d6000823e601f3d908101601f191682016040526110e09190810190612044565b90508084848151811061110357634e487b7160e01b600052603260045260246000fd5b60200260200101819052506000816040516020016111219190612263565b60408051601f1981840301815291905260fc549091506001600160a01b031663b88d4fde61114d611386565b308a8a8981811061116e57634e487b7160e01b600052603260045260246000fd5b90506020020135856040518563ffffffff1660e01b81526004016111959493929190612115565b600060405180830381600087803b1580156111af57600080fd5b505af11580156111c3573d6000803e3d6000fd5b505050508686858181106111e757634e487b7160e01b600052603260045260246000fd5b90506020020135886001600160a01b03167f233d4033f24c20bfd0dde8773bff5e9af01bd21ef37ccfd81c77cc5b20747d5b836040516112279190612263565b60405180910390a3505050808061123d906122f7565b91505061100e565b5060fe805460ff19169055604051610a179061126b908690869086908690602001612151565b604051602081830303815290604052611747565b611287611386565b6001600160a01b03166112a26098546001600160a01b031690565b6001600160a01b0316146112f85760405162461bcd60e51b815260206004820181905260248201527f4f776e61626c653a2063616c6c6572206973206e6f7420746865206f776e65726044820152606401610463565b6001600160a01b0381166113745760405162461bcd60e51b815260206004820152602660248201527f4f776e61626c653a206e6577206f776e657220697320746865207a65726f206160448201527f64647265737300000000000000000000000000000000000000000000000000006064820152608401610463565b61137d81611439565b50565b3b151590565b6000611390611776565b905090565b61139d61061a565b6113e95760405162461bcd60e51b815260206004820152601460248201527f5061757361626c653a206e6f74207061757365640000000000000000000000006044820152606401610463565b60ca805460ff191690557f5db9ee0a495bf2e6ff9c91a7834c1ba4fdd244a5e8aa4e537bd38aeae4b073aa61141c611386565b6040516001600160a01b03909116815260200160405180910390a1565b609880546001600160a01b0383811673ffffffffffffffffffffffffffffffffffffffff19831681179093556040519116919082907f8be0079c531659141344cd1fd0a4f28419497f9722a3daafe3b4186f6b6457e090600090a35050565b6114a061061a565b156114ed5760405162461bcd60e51b815260206004820152601060248201527f5061757361626c653a20706175736564000000000000000000000000000000006044820152606401610463565b60ca805460ff191660011790557f62e78cea01bee320cd4e420270b5ea74000d11b0c9f74754ebdbfc544b05a25861141c611386565b60015482906001600160a01b038083169116146115a85760405162461bcd60e51b815260206004820152602b60248201527f4678426173654368696c6454756e6e656c3a20494e56414c49445f53454e444560448201527f525f46524f4d5f524f4f540000000000000000000000000000000000000000006064820152608401610463565b610a17826117c0565b600154600160a81b900460ff1661161e5760405162461bcd60e51b815260206004820152602b60248201527f496e697469616c697a61626c653a20636f6e7472616374206973206e6f74206960448201526a6e697469616c697a696e6760a81b6064820152608401610463565b611626611a90565b61056c611afd565b600154600160a81b900460ff1661169b5760405162461bcd60e51b815260206004820152602b60248201527f496e697469616c697a61626c653a20636f6e7472616374206973206e6f74206960448201526a6e697469616c697a696e6760a81b6064820152608401610463565b6116a3611a90565b61056c611b7a565b600154600160a81b900460ff166117185760405162461bcd60e51b815260206004820152602b60248201527f496e697469616c697a61626c653a20636f6e7472616374206973206e6f74206960448201526a6e697469616c697a696e6760a81b6064820152608401610463565b6000805473ffffffffffffffffffffffffffffffffffffffff19166001600160a01b0392909216919091179055565b7f8c5261668696ce22758910d05bab8f186d6eb247ceac2af2e82c7dc17669b036816040516107c79190612263565b6034546000906001600160a01b03163314156117b957507fffffffffffffffffffffffffffffffffffffffffffffffffffffffffffffffec36013560601c610621565b5033610621565b6000806000838060200190518101906117d99190611d70565b92509250925060005b8251811015610dcd57600082828151811061180d57634e487b7160e01b600052603260045260246000fd5b60200260200101516040516020016118259190612263565b60408051601f1981840301815291905260fc5485519192506001600160a01b031690634f558e799086908590811061186d57634e487b7160e01b600052603260045260246000fd5b60200260200101516040518263ffffffff1660e01b815260040161189391815260200190565b60206040518083038186803b1580156118ab57600080fd5b505afa1580156118bf573d6000803e3d6000fd5b505050506040513d601f19601f820116820180604052508101906118e39190611fe4565b61197e5760fc5484516001600160a01b03909116906394d008ef90879087908690811061192057634e487b7160e01b600052603260045260246000fd5b6020026020010151846040518463ffffffff1660e01b815260040161194793929190612232565b600060405180830381600087803b15801561196157600080fd5b505af1158015611975573d6000803e3d6000fd5b50505050611a14565b60fc5484516001600160a01b039091169063b88d4fde90309088908890879081106119b957634e487b7160e01b600052603260045260246000fd5b6020026020010151856040518563ffffffff1660e01b81526004016119e19493929190612115565b600060405180830381600087803b1580156119fb57600080fd5b505af1158015611a0f573d6000803e3d6000fd5b505050505b838281518110611a3457634e487b7160e01b600052603260045260246000fd5b6020026020010151856001600160a01b03167f87de3cfd3de44d9b830a98f5554f3ff79f1fafd7b3579d113ce92d82d3def2a183604051611a759190612263565b60405180910390a35080611a88816122f7565b9150506117e2565b600154600160a81b900460ff1661056c5760405162461bcd60e51b815260206004820152602b60248201527f496e697469616c697a61626c653a20636f6e7472616374206973206e6f74206960448201526a6e697469616c697a696e6760a81b6064820152608401610463565b600154600160a81b900460ff16611b6a5760405162461bcd60e51b815260206004820152602b60248201527f496e697469616c697a61626c653a20636f6e7472616374206973206e6f74206960448201526a6e697469616c697a696e6760a81b6064820152608401610463565b61056c611b75611386565b611439565b600154600160a81b900460ff16611be75760405162461bcd60e51b815260206004820152602b60248201527f496e697469616c697a61626c653a20636f6e7472616374206973206e6f74206960448201526a6e697469616c697a696e6760a81b6064820152608401610463565b60ca805460ff19169055565b600082601f830112611c03578081fd5b81516020611c18611c13836122a7565b612276565b82815281810190858301855b85811015611c4d57611c3b898684518b0101611ce3565b84529284019290840190600101611c24565b5090979650505050505050565b60008083601f840112611c6b578182fd5b50813567ffffffffffffffff811115611c82578182fd5b6020830191508360208083028501011115611c9c57600080fd5b9250929050565b60008083601f840112611cb4578182fd5b50813567ffffffffffffffff811115611ccb578182fd5b602083019150836020828501011115611c9c57600080fd5b600082601f830112611cf3578081fd5b815167ffffffffffffffff811115611d0d57611d0d61233c565b611d206020601f19601f84011601612276565b818152846020838601011115611d34578283fd5b611d458260208301602087016122cb565b949350505050565b600060208284031215611d5e578081fd5b8135611d6981612352565b9392505050565b600080600060608486031215611d84578182fd5b8351611d8f81612352565b8093505060208085015167ffffffffffffffff80821115611dae578485fd5b818701915087601f830112611dc1578485fd5b8151611dcf611c13826122a7565b81815284810190848601868402860187018c1015611deb578889fd5b8895505b83861015611e0d578051835260019590950194918601918601611def565b5060408a01519097509450505080831115611e26578384fd5b5050611e3486828701611bf3565b9150509250925092565b60008060008060008060808789031215611e56578182fd5b8635611e6181612352565b95506020870135611e7181612352565b9450604087013567ffffffffffffffff80821115611e8d578384fd5b611e998a838b01611c5a565b90965094506060890135915080821115611eb1578384fd5b50611ebe89828a01611ca3565b979a9699509497509295939492505050565b600080600080600060808688031215611ee7578081fd5b8535611ef281612352565b94506020860135611f0281612352565b935060408601359250606086013567ffffffffffffffff811115611f24578182fd5b611f3088828901611ca3565b969995985093965092949392505050565b600080600060408486031215611f55578283fd5b8335611f6081612352565b9250602084013567ffffffffffffffff811115611f7b578283fd5b611f8786828701611c5a565b9497909650939450505050565b60008060008060808587031215611fa9578384fd5b8435611fb481612352565b93506020850135611fc481612352565b92506040850135611fd481612352565b9396929550929360600135925050565b600060208284031215611ff5578081fd5b81518015158114611d69578182fd5b600060208284031215612015578081fd5b81357fffffffff0000000000000000000000000000000000000000000000000000000081168114611d69578182fd5b600060208284031215612055578081fd5b815167ffffffffffffffff81111561206b578182fd5b611d4584828501611ce3565b600060208284031215612088578081fd5b5035919050565b600080600080606085870312156120a4578182fd5b8435935060208501356120b681612352565b9250604085013567ffffffffffffffff8111156120d1578283fd5b6120dd87828801611ca3565b95989497509550505050565b600081518084526121018160208601602086016122cb565b601f01601f19169290920160200192915050565b60006001600160a01b0380871683528086166020840152508360408301526080606083015261214760808301846120e9565b9695505050505050565b60006001600160a01b038616825260206060818401528460608401527f07ffffffffffffffffffffffffffffffffffffffffffffffffffffffffffffff851115612199578182fd5b80850280876080860137808401905060808101838152608085830301604086015280865180835260a08401915060a08582028501019250848801865b82811015612221577fffffffffffffffffffffffffffffffffffffffffffffffffffffffffffffff6086860301845261220f8583516120e9565b945092860192908601906001016121d5565b50929b9a5050505050505050505050565b60006001600160a01b03851682528360208301526060604083015261225a60608301846120e9565b95945050505050565b600060208252611d6960208301846120e9565b604051601f8201601f1916810167ffffffffffffffff8111828210171561229f5761229f61233c565b604052919050565b600067ffffffffffffffff8211156122c1576122c161233c565b5060209081020190565b60005b838110156122e65781810151838201526020016122ce565b83811115610a175750506000910152565b60007fffffffffffffffffffffffffffffffffffffffffffffffffffffffffffffffff82141561233557634e487b7160e01b81526011600452602481fd5b5060010190565b634e487b7160e01b600052604160045260246000fd5b6001600160a01b038116811461137d57600080fdfea26469706673582212207b5169b122e889765e25d27f9bf77b757856839eeecbcb8b9459a30a02c51ae064736f6c63430008020033",
  "devdoc": {
    "kind": "dev",
    "methods": {
      "owner()": {
        "details": "Returns the address of the current owner."
      },
      "pause()": {
        "details": "Pauses all token transfers across bridge"
      },
      "paused()": {
        "details": "Returns true if the contract is paused, and false otherwise."
      },
      "renounceOwnership()": {
        "details": "Leaves the contract without owner. It will not be possible to call `onlyOwner` functions anymore. Can only be called by the current owner. NOTE: Renouncing ownership will leave the contract without an owner, thereby removing any functionality that is only available to the owner."
      },
      "setTrustedForwarder(address)": {
        "details": "Change the address of the trusted forwarder for meta-TX",
        "params": {
          "trustedForwarder": "The new trustedForwarder"
        }
      },
      "supportsInterface(bytes4)": {
        "details": "Returns true if this contract implements the interface defined by `interfaceId`. See the corresponding https://eips.ethereum.org/EIPS/eip-165#how-interfaces-are-identified[EIP section] to learn more about how these ids are created. This function call must use less than 30 000 gas."
      },
      "transferOwnership(address)": {
        "details": "Transfers ownership of the contract to a new account (`newOwner`). Can only be called by the current owner."
      },
      "unpause()": {
        "details": "Unpauses all token transfers across bridge"
      }
    },
    "title": "ASSETERC721 bridge on L2",
    "version": 1
  },
  "userdoc": {
    "kind": "user",
    "methods": {},
    "version": 1
  },
  "storageLayout": {
    "storage": [
      {
        "astId": 1933,
        "contract": "src/solc_0.8/polygon/child/asset/PolygonAssetERC721Tunnel.sol:PolygonAssetERC721Tunnel",
        "label": "fxChild",
        "offset": 0,
        "slot": "0",
        "type": "t_address"
      },
      {
        "astId": 1935,
        "contract": "src/solc_0.8/polygon/child/asset/PolygonAssetERC721Tunnel.sol:PolygonAssetERC721Tunnel",
        "label": "fxRootTunnel",
        "offset": 0,
        "slot": "1",
        "type": "t_address"
      },
      {
        "astId": 10217,
        "contract": "src/solc_0.8/polygon/child/asset/PolygonAssetERC721Tunnel.sol:PolygonAssetERC721Tunnel",
        "label": "_initialized",
        "offset": 20,
        "slot": "1",
        "type": "t_bool"
      },
      {
        "astId": 10220,
        "contract": "src/solc_0.8/polygon/child/asset/PolygonAssetERC721Tunnel.sol:PolygonAssetERC721Tunnel",
        "label": "_initializing",
        "offset": 21,
        "slot": "1",
        "type": "t_bool"
      },
      {
        "astId": 38713,
        "contract": "src/solc_0.8/polygon/child/asset/PolygonAssetERC721Tunnel.sol:PolygonAssetERC721Tunnel",
        "label": "__gap",
        "offset": 0,
        "slot": "2",
        "type": "t_array(t_uint256)50_storage"
      },
      {
        "astId": 33770,
        "contract": "src/solc_0.8/polygon/child/asset/PolygonAssetERC721Tunnel.sol:PolygonAssetERC721Tunnel",
        "label": "_trustedForwarder",
        "offset": 0,
        "slot": "52",
        "type": "t_address"
      },
      {
        "astId": 33774,
        "contract": "src/solc_0.8/polygon/child/asset/PolygonAssetERC721Tunnel.sol:PolygonAssetERC721Tunnel",
        "label": "__gap",
        "offset": 0,
        "slot": "53",
        "type": "t_array(t_uint256)49_storage"
      },
      {
        "astId": 12276,
        "contract": "src/solc_0.8/polygon/child/asset/PolygonAssetERC721Tunnel.sol:PolygonAssetERC721Tunnel",
        "label": "__gap",
        "offset": 0,
        "slot": "102",
        "type": "t_array(t_uint256)50_storage"
      },
      {
        "astId": 9994,
        "contract": "src/solc_0.8/polygon/child/asset/PolygonAssetERC721Tunnel.sol:PolygonAssetERC721Tunnel",
        "label": "_owner",
        "offset": 0,
        "slot": "152",
        "type": "t_address"
      },
      {
        "astId": 10108,
        "contract": "src/solc_0.8/polygon/child/asset/PolygonAssetERC721Tunnel.sol:PolygonAssetERC721Tunnel",
        "label": "__gap",
        "offset": 0,
        "slot": "153",
        "type": "t_array(t_uint256)49_storage"
      },
      {
        "astId": 10305,
        "contract": "src/solc_0.8/polygon/child/asset/PolygonAssetERC721Tunnel.sol:PolygonAssetERC721Tunnel",
        "label": "_paused",
        "offset": 0,
        "slot": "202",
        "type": "t_bool"
      },
      {
        "astId": 10396,
        "contract": "src/solc_0.8/polygon/child/asset/PolygonAssetERC721Tunnel.sol:PolygonAssetERC721Tunnel",
        "label": "__gap",
        "offset": 0,
        "slot": "203",
        "type": "t_array(t_uint256)49_storage"
      },
      {
        "astId": 51144,
        "contract": "src/solc_0.8/polygon/child/asset/PolygonAssetERC721Tunnel.sol:PolygonAssetERC721Tunnel",
        "label": "childToken",
        "offset": 0,
        "slot": "252",
        "type": "t_contract(IPolygonAssetERC721)40945"
      },
      {
        "astId": 51146,
        "contract": "src/solc_0.8/polygon/child/asset/PolygonAssetERC721Tunnel.sol:PolygonAssetERC721Tunnel",
        "label": "maxTransferLimit",
        "offset": 0,
        "slot": "253",
        "type": "t_uint256"
      },
      {
        "astId": 51148,
        "contract": "src/solc_0.8/polygon/child/asset/PolygonAssetERC721Tunnel.sol:PolygonAssetERC721Tunnel",
        "label": "fetchingAssets",
        "offset": 0,
        "slot": "254",
        "type": "t_bool"
      }
    ],
    "types": {
      "t_address": {
        "encoding": "inplace",
        "label": "address",
        "numberOfBytes": "20"
      },
      "t_array(t_uint256)49_storage": {
        "base": "t_uint256",
        "encoding": "inplace",
        "label": "uint256[49]",
        "numberOfBytes": "1568"
      },
      "t_array(t_uint256)50_storage": {
        "base": "t_uint256",
        "encoding": "inplace",
        "label": "uint256[50]",
        "numberOfBytes": "1600"
      },
      "t_bool": {
        "encoding": "inplace",
        "label": "bool",
        "numberOfBytes": "1"
      },
      "t_contract(IPolygonAssetERC721)40945": {
        "encoding": "inplace",
        "label": "contract IPolygonAssetERC721",
        "numberOfBytes": "20"
      },
      "t_uint256": {
        "encoding": "inplace",
        "label": "uint256",
        "numberOfBytes": "32"
      }
    }
  }
}