{
  "address": "0xF44ECF5f6Dc1198644c4a2664770d7B7eee8fEFB",
  "abi": [
    {
      "inputs": [
        {
          "internalType": "string",
          "name": "name",
          "type": "string"
        },
        {
          "internalType": "string",
          "name": "symbol",
          "type": "string"
        },
        {
          "internalType": "address",
          "name": "admin",
          "type": "address"
        },
        {
          "internalType": "uint16",
          "name": "_gemId",
          "type": "uint16"
        },
        {
          "internalType": "address",
          "name": "operator",
          "type": "address"
        }
      ],
      "stateMutability": "nonpayable",
      "type": "constructor"
    },
    {
      "anonymous": false,
      "inputs": [
        {
          "indexed": false,
          "internalType": "address",
          "name": "oldAdmin",
          "type": "address"
        },
        {
          "indexed": false,
          "internalType": "address",
          "name": "newAdmin",
          "type": "address"
        }
      ],
      "name": "AdminChanged",
      "type": "event"
    },
    {
      "anonymous": false,
      "inputs": [
        {
          "indexed": true,
          "internalType": "address",
          "name": "owner",
          "type": "address"
        },
        {
          "indexed": true,
          "internalType": "address",
          "name": "spender",
          "type": "address"
        },
        {
          "indexed": false,
          "internalType": "uint256",
          "name": "value",
          "type": "uint256"
        }
      ],
      "name": "Approval",
      "type": "event"
    },
    {
      "anonymous": false,
      "inputs": [
        {
          "indexed": false,
          "internalType": "address",
          "name": "superOperator",
          "type": "address"
        },
        {
          "indexed": false,
          "internalType": "bool",
          "name": "enabled",
          "type": "bool"
        }
      ],
      "name": "SuperOperator",
      "type": "event"
    },
    {
      "anonymous": false,
      "inputs": [
        {
          "indexed": true,
          "internalType": "address",
          "name": "from",
          "type": "address"
        },
        {
          "indexed": true,
          "internalType": "address",
          "name": "to",
          "type": "address"
        },
        {
          "indexed": false,
          "internalType": "uint256",
          "name": "value",
          "type": "uint256"
        }
      ],
      "name": "Transfer",
      "type": "event"
    },
    {
      "inputs": [],
      "name": "DOMAIN_SEPARATOR",
      "outputs": [
        {
          "internalType": "bytes32",
          "name": "",
          "type": "bytes32"
        }
      ],
      "stateMutability": "view",
      "type": "function"
    },
    {
      "inputs": [
        {
          "internalType": "bytes",
          "name": "src",
          "type": "bytes"
        }
      ],
      "name": "_firstBytes32",
      "outputs": [
        {
          "internalType": "bytes32",
          "name": "output",
          "type": "bytes32"
        }
      ],
      "stateMutability": "pure",
      "type": "function"
    },
    {
      "inputs": [
        {
          "internalType": "address",
          "name": "owner",
          "type": "address"
        },
        {
          "internalType": "address",
          "name": "spender",
          "type": "address"
        },
        {
          "internalType": "uint256",
          "name": "amountNeeded",
          "type": "uint256"
        }
      ],
      "name": "addAllowanceIfNeeded",
      "outputs": [
        {
          "internalType": "bool",
          "name": "success",
          "type": "bool"
        }
      ],
      "stateMutability": "nonpayable",
      "type": "function"
    },
    {
      "inputs": [
        {
          "internalType": "address",
          "name": "owner",
          "type": "address"
        },
        {
          "internalType": "address",
          "name": "spender",
          "type": "address"
        }
      ],
      "name": "allowance",
      "outputs": [
        {
          "internalType": "uint256",
          "name": "remaining",
          "type": "uint256"
        }
      ],
      "stateMutability": "view",
      "type": "function"
    },
    {
      "inputs": [
        {
          "internalType": "address",
          "name": "spender",
          "type": "address"
        },
        {
          "internalType": "uint256",
          "name": "amount",
          "type": "uint256"
        }
      ],
      "name": "approve",
      "outputs": [
        {
          "internalType": "bool",
          "name": "success",
          "type": "bool"
        }
      ],
      "stateMutability": "nonpayable",
      "type": "function"
    },
    {
      "inputs": [
        {
          "internalType": "address",
          "name": "target",
          "type": "address"
        },
        {
          "internalType": "uint256",
          "name": "amount",
          "type": "uint256"
        },
        {
          "internalType": "bytes",
          "name": "data",
          "type": "bytes"
        }
      ],
      "name": "approveAndCall",
      "outputs": [
        {
          "internalType": "bytes",
          "name": "",
          "type": "bytes"
        }
      ],
      "stateMutability": "payable",
      "type": "function"
    },
    {
      "inputs": [
        {
          "internalType": "address",
          "name": "owner",
          "type": "address"
        },
        {
          "internalType": "address",
          "name": "spender",
          "type": "address"
        },
        {
          "internalType": "uint256",
          "name": "amount",
          "type": "uint256"
        }
      ],
      "name": "approveFor",
      "outputs": [
        {
          "internalType": "bool",
          "name": "success",
          "type": "bool"
        }
      ],
      "stateMutability": "nonpayable",
      "type": "function"
    },
    {
      "inputs": [
        {
          "internalType": "address",
          "name": "owner",
          "type": "address"
        }
      ],
      "name": "balanceOf",
      "outputs": [
        {
          "internalType": "uint256",
          "name": "",
          "type": "uint256"
        }
      ],
      "stateMutability": "view",
      "type": "function"
    },
    {
      "inputs": [
        {
          "internalType": "uint256",
          "name": "amount",
          "type": "uint256"
        }
      ],
      "name": "burn",
      "outputs": [],
      "stateMutability": "nonpayable",
      "type": "function"
    },
    {
      "inputs": [
        {
          "internalType": "address",
          "name": "from",
          "type": "address"
        },
        {
          "internalType": "uint256",
          "name": "amount",
          "type": "uint256"
        }
      ],
      "name": "burnFor",
      "outputs": [],
      "stateMutability": "nonpayable",
      "type": "function"
    },
    {
      "inputs": [
        {
          "internalType": "address",
          "name": "newAdmin",
          "type": "address"
        }
      ],
      "name": "changeAdmin",
      "outputs": [],
      "stateMutability": "nonpayable",
      "type": "function"
    },
    {
      "inputs": [],
      "name": "decimals",
      "outputs": [
        {
          "internalType": "uint8",
          "name": "",
          "type": "uint8"
        }
      ],
      "stateMutability": "pure",
      "type": "function"
    },
    {
      "inputs": [],
      "name": "gemId",
      "outputs": [
        {
          "internalType": "uint16",
          "name": "",
          "type": "uint16"
        }
      ],
      "stateMutability": "view",
      "type": "function"
    },
    {
      "inputs": [],
      "name": "getAdmin",
      "outputs": [
        {
          "internalType": "address",
          "name": "",
          "type": "address"
        }
      ],
      "stateMutability": "view",
      "type": "function"
    },
    {
      "inputs": [
        {
          "internalType": "address",
          "name": "who",
          "type": "address"
        }
      ],
      "name": "isSuperOperator",
      "outputs": [
        {
          "internalType": "bool",
          "name": "",
          "type": "bool"
        }
      ],
      "stateMutability": "view",
      "type": "function"
    },
    {
      "inputs": [
        {
          "internalType": "address",
          "name": "to",
          "type": "address"
        },
        {
          "internalType": "uint256",
          "name": "amount",
          "type": "uint256"
        }
      ],
      "name": "mint",
      "outputs": [],
      "stateMutability": "nonpayable",
      "type": "function"
    },
    {
      "inputs": [],
      "name": "name",
      "outputs": [
        {
          "internalType": "string",
          "name": "",
          "type": "string"
        }
      ],
      "stateMutability": "view",
      "type": "function"
    },
    {
      "inputs": [
        {
          "internalType": "address",
          "name": "",
          "type": "address"
        }
      ],
      "name": "nonces",
      "outputs": [
        {
          "internalType": "uint256",
          "name": "",
          "type": "uint256"
        }
      ],
      "stateMutability": "view",
      "type": "function"
    },
    {
      "inputs": [
        {
          "internalType": "address",
          "name": "target",
          "type": "address"
        },
        {
          "internalType": "uint256",
          "name": "amount",
          "type": "uint256"
        },
        {
          "internalType": "bytes",
          "name": "data",
          "type": "bytes"
        }
      ],
      "name": "paidCall",
      "outputs": [
        {
          "internalType": "bytes",
          "name": "",
          "type": "bytes"
        }
      ],
      "stateMutability": "payable",
      "type": "function"
    },
    {
      "inputs": [
        {
          "internalType": "address",
          "name": "owner",
          "type": "address"
        },
        {
          "internalType": "address",
          "name": "spender",
          "type": "address"
        },
        {
          "internalType": "uint256",
          "name": "value",
          "type": "uint256"
        },
        {
          "internalType": "uint256",
          "name": "deadline",
          "type": "uint256"
        },
        {
          "internalType": "uint8",
          "name": "v",
          "type": "uint8"
        },
        {
          "internalType": "bytes32",
          "name": "r",
          "type": "bytes32"
        },
        {
          "internalType": "bytes32",
          "name": "s",
          "type": "bytes32"
        }
      ],
      "name": "permit",
      "outputs": [],
      "stateMutability": "nonpayable",
      "type": "function"
    },
    {
      "inputs": [
        {
          "internalType": "address",
          "name": "superOperator",
          "type": "address"
        },
        {
          "internalType": "bool",
          "name": "enabled",
          "type": "bool"
        }
      ],
      "name": "setSuperOperator",
      "outputs": [],
      "stateMutability": "nonpayable",
      "type": "function"
    },
    {
      "inputs": [],
      "name": "symbol",
      "outputs": [
        {
          "internalType": "string",
          "name": "",
          "type": "string"
        }
      ],
      "stateMutability": "view",
      "type": "function"
    },
    {
      "inputs": [],
      "name": "totalSupply",
      "outputs": [
        {
          "internalType": "uint256",
          "name": "",
          "type": "uint256"
        }
      ],
      "stateMutability": "view",
      "type": "function"
    },
    {
      "inputs": [
        {
          "internalType": "address",
          "name": "to",
          "type": "address"
        },
        {
          "internalType": "uint256",
          "name": "amount",
          "type": "uint256"
        }
      ],
      "name": "transfer",
      "outputs": [
        {
          "internalType": "bool",
          "name": "success",
          "type": "bool"
        }
      ],
      "stateMutability": "nonpayable",
      "type": "function"
    },
    {
      "inputs": [
        {
          "internalType": "address",
          "name": "_to",
          "type": "address"
        },
        {
          "internalType": "uint256",
          "name": "_value",
          "type": "uint256"
        },
        {
          "internalType": "bytes",
          "name": "_data",
          "type": "bytes"
        }
      ],
      "name": "transferAndCall",
      "outputs": [
        {
          "internalType": "bool",
          "name": "success",
          "type": "bool"
        }
      ],
      "stateMutability": "nonpayable",
      "type": "function"
    },
    {
      "inputs": [
        {
          "internalType": "address",
          "name": "from",
          "type": "address"
        },
        {
          "internalType": "address",
          "name": "to",
          "type": "address"
        },
        {
          "internalType": "uint256",
          "name": "amount",
          "type": "uint256"
        }
      ],
      "name": "transferFrom",
      "outputs": [
        {
          "internalType": "bool",
          "name": "success",
          "type": "bool"
        }
      ],
      "stateMutability": "nonpayable",
      "type": "function"
    }
  ],
  "transactionHash": "0xfc11ed45bdaa8057ea2104a0bfc9af9bd15a7682199db0db44e48d142f5fa254",
  "args": [
    "Sandbox's LUCK polygonGems",
    "LUCK",
    "0x49c4D4C94829B9c44052C5f5Cb164Fc612181165",
    5,
    "0x97bBe5222D5735efA9f18D01e6c8E6Fb8B92d624"
  ],
  "solcInputHash": "08eef2e593d164b299d64dee74acdb02",
  "bytecode": "0x6101206040523480156200001257600080fd5b5060405162001fcc38038062001fcc833981016040819052620000359162000371565b84848483838383837f91ab3d17e3a50a9d89e63fd30b92be7f5336b03b287bb946787a83a9d62a27667fb6d6e92dd180af2016b82e90468a3c0304654e472729f2809672fa0046d680067fc89efdaa54c0f20c7adf612882df0950f5a951637e0307cdcb4c672f298b8bc630604051602001620000d49493929190938452602084019290925260408301526001600160a01b0316606082015260800190565b60408051601f1981840301815291905280516020909101206080528351620001435760405162461bcd60e51b815260206004820152601560248201527f494e56414c49445f4e414d455f5245515549524544000000000000000000000060448201526064015b60405180910390fd5b602084511115620001975760405162461bcd60e51b815260206004820152601560248201527f494e56414c49445f4e414d455f544f4f5f4c4f4e47000000000000000000000060448201526064016200013a565b602084015160a0528251620001ef5760405162461bcd60e51b815260206004820152601760248201527f494e56414c49445f53594d424f4c5f524551554952454400000000000000000060448201526064016200013a565b602083511115620002435760405162461bcd60e51b815260206004820152601760248201527f494e56414c49445f53594d424f4c5f544f4f5f4c4f4e4700000000000000000060448201526064016200013a565b602083015160c052600080546001600160a01b0319166001600160a01b03939093169290921790915560601b6001600160601b03191660e052505050505060f09290921b6001600160f01b03191661010052506200042d9350505050565b80516001600160a01b0381168114620002b957600080fd5b919050565b600082601f830112620002cf578081fd5b81516001600160401b0380821115620002ec57620002ec62000417565b604051601f8301601f19908116603f0116810190828211818310171562000317576200031762000417565b8160405283815260209250868385880101111562000333578485fd5b8491505b8382101562000356578582018301518183018401529082019062000337565b838211156200036757848385830101525b9695505050505050565b600080600080600060a0868803121562000389578081fd5b85516001600160401b0380821115620003a0578283fd5b620003ae89838a01620002be565b96506020880151915080821115620003c4578283fd5b50620003d388828901620002be565b945050620003e460408701620002a1565b9250606086015161ffff81168114620003fb578182fd5b91506200040b60808701620002a1565b90509295509295909350565b634e487b7160e01b600052604160045260246000fd5b60805160a05160c05160e05160601c6101005160f01c611b316200049b60003960006104b80152600081816106030152818161072c015281816107de0152818161113401526114c701526000610a7c0152600061056c0152600081816102d10152610df60152611b316000f3fe6080604052600436106101a05760003560e01c8063654b748a116100e1578063a9059cbb1161008a578063caafdcff11610064578063caafdcff146104a6578063cae9ca51146104ed578063d505accf14610500578063dd62ed3e14610520576101a0565b8063a9059cbb14610453578063ac9fe42114610473578063bb1e23cb14610493576101a0565b80637ecebe00116100bb5780637ecebe00146103f15780638f2839701461041e57806395d89b411461043e576101a0565b8063654b748a146103735780636e9960c31461039357806370a08231146103bb576101a0565b80632b9917461161014e5780633b7b5a16116101285780633b7b5a16146102f35780634000aea01461031357806340c10f191461033357806342966c6814610353576101a0565b80632b99174614610283578063313ce567146102a35780633644e515146102bf576101a0565b806318160ddd1161017f57806318160ddd1461022c5780631dd319cb1461024157806323b872dd14610263576101a0565b80629ad300146101a557806306fdde03146101da578063095ea7b3146101fc575b600080fd5b3480156101b157600080fd5b506101c76101c03660046118dd565b6020015190565b6040519081526020015b60405180910390f35b3480156101e657600080fd5b506101ef610566565b6040516101d19190611a40565b34801561020857600080fd5b5061021c610217366004611832565b6105a9565b60405190151581526020016101d1565b34801561023857600080fd5b506002546101c7565b34801561024d57600080fd5b5061026161025c366004611832565b6105c0565b005b34801561026f57600080fd5b5061021c61027e36600461174c565b6105ce565b34801561028f57600080fd5b5061021c61029e36600461174c565b6106fb565b3480156102af57600080fd5b50604051601281526020016101d1565b3480156102cb57600080fd5b506101c77f000000000000000000000000000000000000000000000000000000000000000081565b3480156102ff57600080fd5b5061021c61030e36600461174c565b6107ad565b34801561031f57600080fd5b5061021c61032e36600461185b565b61085f565b34801561033f57600080fd5b5061026161034e366004611832565b610908565b34801561035f57600080fd5b5061026161036e366004611987565b61096c565b34801561037f57600080fd5b5061021c61038e3660046116f9565b610979565b34801561039f57600080fd5b506000546040516001600160a01b0390911681526020016101d1565b3480156103c757600080fd5b506101c76103d63660046116f9565b6001600160a01b031660009081526003602052604090205490565b3480156103fd57600080fd5b506101c761040c3660046116f9565b60056020526000908152604090205481565b34801561042a57600080fd5b506102616104393660046116f9565b61099b565b34801561044a57600080fd5b506101ef610a76565b34801561045f57600080fd5b5061021c61046e366004611832565b610aa9565b34801561047f57600080fd5b5061026161048e3660046117f8565b610ab6565b6101ef6104a136600461185b565b610bb7565b3480156104b257600080fd5b506104da7f000000000000000000000000000000000000000000000000000000000000000081565b60405161ffff90911681526020016101d1565b6101ef6104fb36600461185b565b610cee565b34801561050c57600080fd5b5061026161051b366004611787565b610d8a565b34801561052c57600080fd5b506101c761053b36600461171a565b6001600160a01b03918216600090815260046020908152604080832093909416825291909152205490565b604080517f00000000000000000000000000000000000000000000000000000000000000006020820152606091015b604051602081830303815290604052905090565b60006105b6338484610fe3565b5060015b92915050565b6105ca82826110b1565b5050565b6000336001600160a01b038516148015906105f957503360009081526001602052604090205460ff16155b801561062e5750337f00000000000000000000000000000000000000000000000000000000000000006001600160a01b031614155b156106e6576001600160a01b038416600090815260046020908152604080832033845290915290205460001981146106e457828110156106b55760405162461bcd60e51b815260206004820152601860248201527f4e4f545f415554484f52495a45445f414c4c4f57414e4345000000000000000060448201526064015b60405180910390fd5b6106bf8382611a6b565b6001600160a01b03861660009081526004602090815260408083203384529091529020555b505b6106f18484846112f6565b5060019392505050565b6000336001600160a01b038516148061072357503360009081526001602052604090205460ff165b806107565750337f00000000000000000000000000000000000000000000000000000000000000006001600160a01b0316145b6107a25760405162461bcd60e51b815260206004820152600e60248201527f4e4f545f415554484f52495a454400000000000000000000000000000000000060448201526064016106ac565b6106f1848484610fe3565b6000336001600160a01b03851614806107d557503360009081526001602052604090205460ff165b806108085750337f00000000000000000000000000000000000000000000000000000000000000006001600160a01b0316145b6108545760405162461bcd60e51b815260206004820152600e60248201527f494e56414c49445f53454e44455200000000000000000000000000000000000060448201526064016106ac565b6106f18484846114a8565b600061086c3386866112f6565b6001600160a01b0385163b156108fd576040517fa4c0ed3600000000000000000000000000000000000000000000000000000000815285906001600160a01b0382169063a4c0ed36906108c99033908990899089906004016119fa565b600060405180830381600087803b1580156108e357600080fd5b505af11580156108f7573d6000803e3d6000fd5b50505050505b506001949350505050565b6000546001600160a01b031633146109625760405162461bcd60e51b815260206004820152600a60248201527f41444d494e5f4f4e4c590000000000000000000000000000000000000000000060448201526064016106ac565b6105ca8282611541565b61097633826110b1565b50565b6001600160a01b03811660009081526001602052604090205460ff165b919050565b6000546001600160a01b031633146109f55760405162461bcd60e51b815260206004820152601360248201527f41444d494e5f4143434553535f44454e4945440000000000000000000000000060448201526064016106ac565b600054604080516001600160a01b03928316815291831660208301527f7e644d79422f17c01e4894b5f4f588d331ebfa28653d42ae832dc59e38c9798f910160405180910390a1600080547fffffffffffffffffffffffff0000000000000000000000000000000000000000166001600160a01b0392909216919091179055565b604080517f0000000000000000000000000000000000000000000000000000000000000000602082015260609101610595565b60006105b63384846112f6565b6000546001600160a01b03163314610b365760405162461bcd60e51b815260206004820152602c60248201527f6f6e6c792061646d696e20697320616c6c6f77656420746f206164642073757060448201527f6572206f70657261746f7273000000000000000000000000000000000000000060648201526084016106ac565b6001600160a01b03821660008181526001602090815260409182902080547fffffffffffffffffffffffffffffffffffffffffffffffffffffffffffffff00168515159081179091558251938452908301527f44f92d27abdf4cfb6a7d712c3af68f3be086d4ca747ab802c36f67d6790060d8910160405180910390a15050565b6060610c0183838080601f016020809104026020016040519081016040528093929190818152602001838380828437600092019190915250610bfc9250610fdf915050565b6116b7565b610c4d5760405162461bcd60e51b815260206004820152601660248201527f46495253545f504152414d5f4e4f545f53454e4445520000000000000000000060448201526064016106ac565b8315610c5e57610c5e3386866114a8565b600080866001600160a01b0316348686604051610c7c9291906119ea565b60006040518083038185875af1925050503d8060008114610cb9576040519150601f19603f3d011682016040523d82523d6000602084013e610cbe565b606091505b5091509150818190610ce35760405162461bcd60e51b81526004016106ac9190611a40565b509695505050505050565b6060610d3383838080601f016020809104026020016040519081016040528093929190818152602001838380828437600092019190915250610bfc9250610fdf915050565b610d7f5760405162461bcd60e51b815260206004820152601660248201527f46495253545f504152414d5f4e4f545f53454e4445520000000000000000000060448201526064016106ac565b610c5e338686610fe3565b42841015610dda5760405162461bcd60e51b815260206004820152600d60248201527f504153545f444541444c494e450000000000000000000000000000000000000060448201526064016106ac565b6001600160a01b038716600090815260056020526040812080547f0000000000000000000000000000000000000000000000000000000000000000917f6e71edae12b1b97f4d1f60370fef10105fa2faae0126114a169c64845d6126c9918b918b918b9187610e4883611a82565b909155506040805160208101969096526001600160a01b0394851690860152929091166060840152608083015260a082015260c0810187905260e00160405160208183030381529060405280519060200120604051602001610edc9291907f190100000000000000000000000000000000000000000000000000000000000081526002810192909252602282015260420190565b60408051601f198184030181528282528051602091820120600080855291840180845281905260ff88169284019290925260608301869052608083018590529092509060019060a0016020604051602081039080840390855afa158015610f47573d6000803e3d6000fd5b5050604051601f1901519150506001600160a01b03811615801590610f7d5750886001600160a01b0316816001600160a01b0316145b610fc95760405162461bcd60e51b815260206004820152601160248201527f494e56414c49445f5349474e415455524500000000000000000000000000000060448201526064016106ac565b610fd4898989610fe3565b505050505050505050565b3390565b6001600160a01b0383161580159061100357506001600160a01b03821615155b61104f5760405162461bcd60e51b815260206004820152601860248201527f494e56414c49445f4f574e45525f7c7c5f5350454e444552000000000000000060448201526064016106ac565b6001600160a01b0383811660008181526004602090815260408083209487168084529482529182902085905590518481527f8c5be1e5ebec7d5bd14f71427d1e84f3dd0314c0f7b2291e5b200ac8c7c3b92591015b60405180910390a3505050565b600081116111015760405162461bcd60e51b815260206004820152600d60248201527f4255524e5f4f5f544f4b454e530000000000000000000000000000000000000060448201526064016106ac565b336001600160a01b0383161480159061112a57503360009081526001602052604090205460ff16155b801561115f5750337f00000000000000000000000000000000000000000000000000000000000000006001600160a01b031614155b15611212576001600160a01b0382166000908152600460209081526040808320338452909152902054600019811461121057818110156111e15760405162461bcd60e51b815260206004820152601660248201527f494e53554646494349454e545f414c4c4f57414e43450000000000000000000060448201526064016106ac565b6111eb8282611a6b565b6001600160a01b03841660009081526004602090815260408083203384529091529020555b505b6001600160a01b0382166000908152600360205260409020548181101561127b5760405162461bcd60e51b815260206004820152601260248201527f494e53554646494349454e545f46554e4453000000000000000000000000000060448201526064016106ac565b6112858282611a6b565b6001600160a01b038416600090815260036020526040812091909155600280548492906112b3908490611a6b565b90915550506040518281526000906001600160a01b038516907fddf252ad1be2c89b69c2b068fc378daa952ba7f163c4a11628f55a4df523b3ef906020016110a4565b6001600160a01b03821661134c5760405162461bcd60e51b815260206004820152601260248201527f4e4f545f544f5f5a45524f41444452455353000000000000000000000000000060448201526064016106ac565b6001600160a01b0382163014156113a55760405162461bcd60e51b815260206004820152600b60248201527f4e4f545f544f5f5448495300000000000000000000000000000000000000000060448201526064016106ac565b6001600160a01b0383166000908152600360205260409020548181101561140e5760405162461bcd60e51b815260206004820152601260248201527f494e53554646494349454e545f46554e4453000000000000000000000000000060448201526064016106ac565b6114188282611a6b565b6001600160a01b03808616600090815260036020526040808220939093559085168152908120805484929061144e908490611a53565b92505081905550826001600160a01b0316846001600160a01b03167fddf252ad1be2c89b69c2b068fc378daa952ba7f163c4a11628f55a4df523b3ef8460405161149a91815260200190565b60405180910390a350505050565b6000811180156114be57506114bc82610979565b155b80156114fc57507f00000000000000000000000000000000000000000000000000000000000000006001600160a01b0316826001600160a01b031614155b1561153c576001600160a01b038084166000908152600460209081526040808320938616835292905220548181101561153a5761153a848484610fe3565b505b505050565b6001600160a01b0382166115975760405162461bcd60e51b815260206004820152601260248201527f4e4f545f544f5f5a45524f41444452455353000000000000000000000000000060448201526064016106ac565b600081116115e75760405162461bcd60e51b815260206004820152600d60248201527f4d494e545f4f5f544f4b454e530000000000000000000000000000000000000060448201526064016106ac565b60025460006115f68383611a53565b90508181116116475760405162461bcd60e51b815260206004820152600860248201527f4f564552464c4f5700000000000000000000000000000000000000000000000060448201526064016106ac565b60028190556001600160a01b03841660009081526003602052604081208054859290611674908490611a53565b90915550506040518381526001600160a01b038516906000907fddf252ad1be2c89b69c2b068fc378daa952ba7f163c4a11628f55a4df523b3ef9060200161149a565b60006044835110156116cb575060006105ba565b5060248201516001600160a01b0382161492915050565b80356001600160a01b038116811461099657600080fd5b60006020828403121561170a578081fd5b611713826116e2565b9392505050565b6000806040838503121561172c578081fd5b611735836116e2565b9150611743602084016116e2565b90509250929050565b600080600060608486031215611760578081fd5b611769846116e2565b9250611777602085016116e2565b9150604084013590509250925092565b600080600080600080600060e0888a0312156117a1578283fd5b6117aa886116e2565b96506117b8602089016116e2565b95506040880135945060608801359350608088013560ff811681146117db578384fd5b9699959850939692959460a0840135945060c09093013592915050565b6000806040838503121561180a578182fd5b611813836116e2565b915060208301358015158114611827578182fd5b809150509250929050565b60008060408385031215611844578182fd5b61184d836116e2565b946020939093013593505050565b60008060008060608587031215611870578384fd5b611879856116e2565b935060208501359250604085013567ffffffffffffffff8082111561189c578384fd5b818701915087601f8301126118af578384fd5b8135818111156118bd578485fd5b8860208285010111156118ce578485fd5b95989497505060200194505050565b6000602082840312156118ee578081fd5b813567ffffffffffffffff80821115611905578283fd5b818401915084601f830112611918578283fd5b81358181111561192a5761192a611acc565b604051601f8201601f19908116603f0116810190838211818310171561195257611952611acc565b8160405282815287602084870101111561196a578586fd5b826020860160208301379182016020019490945295945050505050565b600060208284031215611998578081fd5b5035919050565b60008151808452815b818110156119c4576020818501810151868301820152016119a8565b818111156119d55782602083870101525b50601f01601f19169290920160200192915050565b6000828483379101908152919050565b60006001600160a01b03861682528460208301526060604083015282606083015282846080840137818301608090810191909152601f909201601f191601019392505050565b600060208252611713602083018461199f565b60008219821115611a6657611a66611a9d565b500190565b600082821015611a7d57611a7d611a9d565b500390565b6000600019821415611a9657611a96611a9d565b5060010190565b7f4e487b7100000000000000000000000000000000000000000000000000000000600052601160045260246000fd5b7f4e487b7100000000000000000000000000000000000000000000000000000000600052604160045260246000fdfea264697066735822122055c89b187ab130a2b8d97676b79f37e0109f5dcb130a86a557a5dab54c912b7564736f6c63430008020033",
  "devdoc": {
    "kind": "dev",
    "methods": {
      "_firstBytes32(bytes)": {
        "params": {
          "src": "The input data"
        },
        "returns": {
          "output": "The first 32 bytes of `src`."
        }
      },
      "addAllowanceIfNeeded(address,address,uint256)": {
        "params": {
          "amountNeeded": "The amount requested to spend",
          "owner": "The address of the owner of the tokens",
          "spender": "The address wanting to spend tokens"
        },
        "returns": {
          "success": "Whether or not the call succeeded."
        }
      },
      "allowance(address,address)": {
        "params": {
          "owner": "The address whose token is allowed.",
          "spender": "The address allowed to transfer."
        },
        "returns": {
          "remaining": "The amount of token `spender` is allowed to transfer on behalf of `owner`."
        }
      },
      "approve(address,uint256)": {
        "params": {
          "amount": "The number of tokens allowed.",
          "spender": "The address to be given rights to transfer."
        },
        "returns": {
          "success": "Whether or not the call succeeded."
        }
      },
      "approveAndCall(address,uint256,bytes)": {
        "params": {
          "amount": "The number of tokens allowed.",
          "data": "The bytes for the call.",
          "target": "The address to be given rights to transfer and destination of the call."
        },
        "returns": {
          "_0": "The data of the call."
        }
      },
      "approveFor(address,address,uint256)": {
        "params": {
          "amount": "The number of tokens allowed.",
          "owner": "The address whose token is allowed.",
          "spender": "The address to be given rights to transfer."
        },
        "returns": {
          "success": "Whether or not the call succeeded."
        }
      },
      "balanceOf(address)": {
        "params": {
          "owner": "The address to query the balance of."
        },
        "returns": {
          "_0": "The amount owned by `owner`."
        }
      },
      "burn(uint256)": {
        "params": {
          "amount": "The number of tokens to burn."
        }
      },
      "burnFor(address,uint256)": {
        "params": {
          "amount": "The number of tokens to burn.",
          "from": "The address whose token to burn."
        }
      },
      "changeAdmin(address)": {
        "details": "Change the administrator to be `newAdmin`.",
        "params": {
          "newAdmin": "The address of the new administrator."
        }
      },
      "decimals()": {
        "returns": {
          "_0": "The number of decimals."
        }
      },
      "getAdmin()": {
        "details": "Get the current administrator of this contract.",
        "returns": {
          "_0": "The current administrator of this contract."
        }
      },
      "isSuperOperator(address)": {
        "params": {
          "who": "The address to query."
        },
        "returns": {
          "_0": "whether the address has superOperator rights."
        }
      },
      "name()": {
        "returns": {
          "_0": "The name of the token collection."
        }
      },
      "paidCall(address,uint256,bytes)": {
        "params": {
          "amount": "The number of tokens allowed to spend.",
          "data": "The bytes for the call.",
          "target": "The destination of the call, allowed to spend the amount specified"
        },
        "returns": {
          "_0": "The data of the call."
        }
      },
      "permit(address,address,uint256,uint256,uint8,bytes32,bytes32)": {
        "params": {
          "deadline": "The deadline for granting permission to the spender",
          "owner": "The owner of the ERC20 tokens",
          "r": "The first 32 bytes of signature",
          "s": "The second 32 bytes of signature",
          "spender": "The nominated spender of the ERC20 tokens",
          "v": "The final 1 byte of signature",
          "value": "The value (allowance) of the ERC20 tokens that the nominated spender will be allowed to spend"
        }
      },
      "setSuperOperator(address,bool)": {
        "params": {
          "enabled": "set whether the superOperator is enabled or disabled.",
          "superOperator": "address that will be given/removed superOperator right."
        }
      },
      "symbol()": {
        "returns": {
          "_0": "The symbol of the token collection."
        }
      },
      "totalSupply()": {
        "returns": {
          "_0": "The total number of tokens in existence."
        }
      },
      "transfer(address,uint256)": {
        "params": {
          "amount": "The number of tokens being transfered.",
          "to": "The recipient address of the tokens being transfered."
        },
        "returns": {
          "success": "Whether or not the transfer succeeded."
        }
      },
      "transferAndCall(address,uint256,bytes)": {
        "params": {
          "_data": "The extra data to be passed to the receiving contract.",
          "_to": "The address to transfer to.",
          "_value": "The amount to be transferred."
        }
      },
      "transferFrom(address,address,uint256)": {
        "params": {
          "amount": "The number of tokens transfered.",
          "from": "The origin address  of the tokens being transferred.",
          "to": "The recipient address of the tokensbeing  transfered."
        },
        "returns": {
          "success": "Whether or not the transfer succeeded."
        }
      }
    },
    "version": 1
  },
  "userdoc": {
    "events": {
      "Approval(address,address,uint256)": {
        "notice": "emitted when owner grant transfer rights to another address"
      },
      "Transfer(address,address,uint256)": {
        "notice": "emitted when tokens are transfered from one address to another."
      }
    },
    "kind": "user",
    "methods": {
      "_firstBytes32(bytes)": {
        "notice": "Get the first 32 bytes of input `src`."
      },
      "addAllowanceIfNeeded(address,address,uint256)": {
        "notice": "Increase the allowance for the spender if needed"
      },
      "allowance(address,address)": {
        "notice": "Get the allowance of `spender` for `owner`'s tokens."
      },
      "approve(address,uint256)": {
        "notice": "Approve `spender` to transfer `amount` tokens."
      },
      "approveAndCall(address,uint256,bytes)": {
        "notice": "Approve `target` to spend `amount` and call it with data."
      },
      "approveFor(address,address,uint256)": {
        "notice": "Approve `spender` to transfer `amount` tokens from `owner`."
      },
      "balanceOf(address)": {
        "notice": "Get the balance of `owner`."
      },
      "burn(uint256)": {
        "notice": "Burn `amount` tokens."
      },
      "burnFor(address,uint256)": {
        "notice": "Burn `amount` tokens from `owner`."
      },
      "decimals()": {
        "notice": "Get the number of decimals for the token collection."
      },
      "isSuperOperator(address)": {
        "notice": "check whether address `who` is given superOperator rights."
      },
      "name()": {
        "notice": "Get the name of the token collection."
      },
      "paidCall(address,uint256,bytes)": {
        "notice": "Temporarily approve `target` to spend `amount` and call it with data. Previous approvals remains unchanged."
      },
      "permit(address,address,uint256,uint256,uint8,bytes32,bytes32)": {
        "notice": "Function to permit the expenditure of ERC20 token by a nominated spender"
      },
      "setSuperOperator(address,bool)": {
        "notice": "Enable or disable the ability of `superOperator` to transfer tokens of all (superOperator rights)."
      },
      "symbol()": {
        "notice": "Get the symbol for the token collection."
      },
      "totalSupply()": {
        "notice": "Get the total number of tokens in existence."
      },
      "transfer(address,uint256)": {
        "notice": "Transfer `amount` tokens to `to`."
      },
      "transferAndCall(address,uint256,bytes)": {
        "notice": "Transfers tokens to an address with _data if the recipient is a contact."
      },
      "transferFrom(address,address,uint256)": {
        "notice": "Transfer `amount` tokens from `from` to `to`."
      }
    },
    "version": 1
  },
  "storageLayout": {
    "storage": [
      {
        "astId": 16350,
        "contract": "src/solc_0.8/catalyst/Gem.sol:Gem",
        "label": "_admin",
        "offset": 0,
        "slot": "0",
        "type": "t_address"
      },
      {
        "astId": 16466,
        "contract": "src/solc_0.8/catalyst/Gem.sol:Gem",
        "label": "_superOperators",
        "offset": 0,
        "slot": "1",
        "type": "t_mapping(t_address,t_bool)"
      },
      {
        "astId": 13505,
        "contract": "src/solc_0.8/catalyst/Gem.sol:Gem",
        "label": "_totalSupply",
        "offset": 0,
        "slot": "2",
        "type": "t_uint256"
      },
      {
        "astId": 13509,
        "contract": "src/solc_0.8/catalyst/Gem.sol:Gem",
        "label": "_balances",
        "offset": 0,
        "slot": "3",
        "type": "t_mapping(t_address,t_uint256)"
      },
      {
        "astId": 13515,
        "contract": "src/solc_0.8/catalyst/Gem.sol:Gem",
        "label": "_allowances",
        "offset": 0,
        "slot": "4",
        "type": "t_mapping(t_address,t_mapping(t_address,t_uint256))"
      },
      {
        "astId": 14259,
        "contract": "src/solc_0.8/catalyst/Gem.sol:Gem",
        "label": "nonces",
        "offset": 0,
        "slot": "5",
        "type": "t_mapping(t_address,t_uint256)"
      }
    ],
    "types": {
      "t_address": {
        "encoding": "inplace",
        "label": "address",
        "numberOfBytes": "20"
      },
      "t_bool": {
        "encoding": "inplace",
        "label": "bool",
        "numberOfBytes": "1"
      },
      "t_mapping(t_address,t_bool)": {
        "encoding": "mapping",
        "key": "t_address",
        "label": "mapping(address => bool)",
        "numberOfBytes": "32",
        "value": "t_bool"
      },
      "t_mapping(t_address,t_mapping(t_address,t_uint256))": {
        "encoding": "mapping",
        "key": "t_address",
        "label": "mapping(address => mapping(address => uint256))",
        "numberOfBytes": "32",
        "value": "t_mapping(t_address,t_uint256)"
      },
      "t_mapping(t_address,t_uint256)": {
        "encoding": "mapping",
        "key": "t_address",
        "label": "mapping(address => uint256)",
        "numberOfBytes": "32",
        "value": "t_uint256"
      },
      "t_uint256": {
        "encoding": "inplace",
        "label": "uint256",
        "numberOfBytes": "32"
      }
    }
  }
}