{
  "address": "0xE6dE4Bd42517C53F9a3D103a44efc52a8FEa55c0",
  "abi": [
    {
      "inputs": [
        {
          "internalType": "address",
          "name": "landAddress",
          "type": "address"
        },
        {
          "internalType": "address",
          "name": "sandContractAddress",
          "type": "address"
        },
        {
          "internalType": "address",
          "name": "initialMetaTx",
          "type": "address"
        },
        {
          "internalType": "address",
          "name": "admin",
          "type": "address"
        },
        {
          "internalType": "address payable",
          "name": "initialWalletAddress",
          "type": "address"
        },
        {
          "internalType": "bytes32",
          "name": "merkleRoot",
          "type": "bytes32"
        },
        {
          "internalType": "uint256",
          "name": "expiryTime",
          "type": "uint256"
        },
        {
          "internalType": "address",
          "name": "initialSigningWallet",
          "type": "address"
        },
        {
          "internalType": "uint256",
          "name": "initialMaxCommissionRate",
          "type": "uint256"
        },
        {
          "internalType": "address",
          "name": "estate",
          "type": "address"
        },
        {
          "internalType": "address",
          "name": "asset",
          "type": "address"
        },
        {
          "internalType": "address",
          "name": "feeDistributor",
          "type": "address"
        },
        {
          "internalType": "address",
          "name": "authValidator",
          "type": "address"
        }
      ],
      "stateMutability": "nonpayable",
      "type": "constructor"
    },
    {
      "anonymous": false,
      "inputs": [
        {
          "indexed": false,
          "internalType": "address",
          "name": "oldAdmin",
          "type": "address"
        },
        {
          "indexed": false,
          "internalType": "address",
          "name": "newAdmin",
          "type": "address"
        }
      ],
      "name": "AdminChanged",
      "type": "event"
    },
    {
      "anonymous": false,
      "inputs": [
        {
          "indexed": true,
          "internalType": "address",
          "name": "buyer",
          "type": "address"
        },
        {
          "indexed": true,
          "internalType": "address",
          "name": "to",
          "type": "address"
        },
        {
          "indexed": true,
          "internalType": "uint256",
          "name": "topCornerId",
          "type": "uint256"
        },
        {
          "indexed": false,
          "internalType": "uint256",
          "name": "size",
          "type": "uint256"
        },
        {
          "indexed": false,
          "internalType": "uint256",
          "name": "price",
          "type": "uint256"
        },
        {
          "indexed": false,
          "internalType": "address",
          "name": "token",
          "type": "address"
        },
        {
          "indexed": false,
          "internalType": "uint256",
          "name": "amountPaid",
          "type": "uint256"
        }
      ],
      "name": "LandQuadPurchased",
      "type": "event"
    },
    {
      "anonymous": false,
      "inputs": [
        {
          "indexed": false,
          "internalType": "address",
          "name": "metaTransactionProcessor",
          "type": "address"
        },
        {
          "indexed": false,
          "internalType": "bool",
          "name": "enabled",
          "type": "bool"
        }
      ],
      "name": "MetaTransactionProcessor",
      "type": "event"
    },
    {
      "anonymous": false,
      "inputs": [
        {
          "indexed": true,
          "internalType": "address",
          "name": "referrer",
          "type": "address"
        },
        {
          "indexed": true,
          "internalType": "address",
          "name": "referee",
          "type": "address"
        },
        {
          "indexed": true,
          "internalType": "address",
          "name": "token",
          "type": "address"
        },
        {
          "indexed": false,
          "internalType": "uint256",
          "name": "amount",
          "type": "uint256"
        },
        {
          "indexed": false,
          "internalType": "uint256",
          "name": "commission",
          "type": "uint256"
        },
        {
          "indexed": false,
          "internalType": "uint256",
          "name": "commissionRate",
          "type": "uint256"
        }
      ],
      "name": "ReferralUsed",
      "type": "event"
    },
    {
      "inputs": [
        {
          "internalType": "address",
          "name": "buyer",
          "type": "address"
        },
        {
          "internalType": "address",
          "name": "to",
          "type": "address"
        },
        {
          "internalType": "address",
          "name": "reserved",
          "type": "address"
        },
        {
          "internalType": "uint256[]",
          "name": "info",
          "type": "uint256[]"
        },
        {
          "internalType": "bytes32",
          "name": "salt",
          "type": "bytes32"
        },
        {
          "internalType": "uint256[]",
          "name": "assetIds",
          "type": "uint256[]"
        },
        {
          "internalType": "bytes32[]",
          "name": "proof",
          "type": "bytes32[]"
        },
        {
          "internalType": "bytes",
          "name": "referral",
          "type": "bytes"
        },
        {
          "internalType": "bytes",
          "name": "signature",
          "type": "bytes"
        }
      ],
      "name": "buyLandWithSand",
      "outputs": [],
      "stateMutability": "nonpayable",
      "type": "function"
    },
    {
      "inputs": [
        {
          "internalType": "address",
          "name": "newAdmin",
          "type": "address"
        }
      ],
      "name": "changeAdmin",
      "outputs": [],
      "stateMutability": "nonpayable",
      "type": "function"
    },
    {
      "inputs": [
        {
          "internalType": "bytes",
          "name": "referral",
          "type": "bytes"
        }
      ],
      "name": "decodeReferral",
      "outputs": [
        {
          "internalType": "bytes",
          "name": "",
          "type": "bytes"
        },
        {
          "internalType": "address",
          "name": "",
          "type": "address"
        },
        {
          "internalType": "address",
          "name": "",
          "type": "address"
        },
        {
          "internalType": "uint256",
          "name": "",
          "type": "uint256"
        },
        {
          "internalType": "uint256",
          "name": "",
          "type": "uint256"
        }
      ],
      "stateMutability": "pure",
      "type": "function"
    },
    {
      "inputs": [],
      "name": "getAdmin",
      "outputs": [
        {
          "internalType": "address",
          "name": "",
          "type": "address"
        }
      ],
      "stateMutability": "view",
      "type": "function"
    },
    {
      "inputs": [],
      "name": "getExpiryTime",
      "outputs": [
        {
          "internalType": "uint256",
          "name": "",
          "type": "uint256"
        }
      ],
      "stateMutability": "view",
      "type": "function"
    },
    {
      "inputs": [],
      "name": "getMaxCommisionRate",
      "outputs": [
        {
          "internalType": "uint256",
          "name": "",
          "type": "uint256"
        }
      ],
      "stateMutability": "view",
      "type": "function"
    },
    {
      "inputs": [],
      "name": "getMerkleRoot",
      "outputs": [
        {
          "internalType": "bytes32",
          "name": "",
          "type": "bytes32"
        }
      ],
      "stateMutability": "view",
      "type": "function"
    },
    {
      "inputs": [],
      "name": "getSigningWallet",
      "outputs": [
        {
          "internalType": "address",
          "name": "",
          "type": "address"
        }
      ],
      "stateMutability": "view",
      "type": "function"
    },
    {
      "inputs": [
        {
          "internalType": "address",
          "name": "who",
          "type": "address"
        }
      ],
      "name": "isMetaTransactionProcessor",
      "outputs": [
        {
          "internalType": "bool",
          "name": "",
          "type": "bool"
        }
      ],
      "stateMutability": "view",
      "type": "function"
    },
    {
      "inputs": [
        {
          "internalType": "bytes",
          "name": "signature",
          "type": "bytes"
        },
        {
          "internalType": "address",
          "name": "referrer",
          "type": "address"
        },
        {
          "internalType": "address",
          "name": "referee",
          "type": "address"
        },
        {
          "internalType": "uint256",
          "name": "expiryTime",
          "type": "uint256"
        },
        {
          "internalType": "uint256",
          "name": "commissionRate",
          "type": "uint256"
        }
      ],
      "name": "isReferralValid",
      "outputs": [
        {
          "internalType": "bool",
          "name": "",
          "type": "bool"
        }
      ],
      "stateMutability": "view",
      "type": "function"
    },
    {
      "inputs": [
        {
          "internalType": "address",
          "name": "",
          "type": "address"
        },
        {
          "internalType": "address",
          "name": "",
          "type": "address"
        },
        {
          "internalType": "uint256[]",
          "name": "",
          "type": "uint256[]"
        },
        {
          "internalType": "uint256[]",
          "name": "",
          "type": "uint256[]"
        },
        {
          "internalType": "bytes",
          "name": "",
          "type": "bytes"
        }
      ],
      "name": "onERC1155BatchReceived",
      "outputs": [
        {
          "internalType": "bytes4",
          "name": "",
          "type": "bytes4"
        }
      ],
      "stateMutability": "pure",
      "type": "function"
    },
    {
      "inputs": [
        {
          "internalType": "address",
          "name": "",
          "type": "address"
        },
        {
          "internalType": "address",
          "name": "",
          "type": "address"
        },
        {
          "internalType": "uint256",
          "name": "",
          "type": "uint256"
        },
        {
          "internalType": "uint256",
          "name": "",
          "type": "uint256"
        },
        {
          "internalType": "bytes",
          "name": "",
          "type": "bytes"
        }
      ],
      "name": "onERC1155Received",
      "outputs": [
        {
          "internalType": "bytes4",
          "name": "",
          "type": "bytes4"
        }
      ],
      "stateMutability": "pure",
      "type": "function"
    },
    {
      "inputs": [
        {
          "internalType": "address",
          "name": "metaTransactionProcessor",
          "type": "address"
        },
        {
          "internalType": "bool",
          "name": "enabled",
          "type": "bool"
        }
      ],
      "name": "setMetaTransactionProcessor",
      "outputs": [],
      "stateMutability": "nonpayable",
      "type": "function"
    },
    {
      "inputs": [
        {
          "internalType": "address payable",
          "name": "newWallet",
          "type": "address"
        }
      ],
      "name": "setReceivingWallet",
      "outputs": [],
      "stateMutability": "nonpayable",
      "type": "function"
    },
    {
      "inputs": [
        {
          "internalType": "uint256",
          "name": "newMaxCommissionRate",
          "type": "uint256"
        }
      ],
      "name": "updateMaxCommissionRate",
      "outputs": [],
      "stateMutability": "nonpayable",
      "type": "function"
    },
    {
      "inputs": [
        {
          "internalType": "address",
          "name": "newSigningWallet",
          "type": "address"
        }
      ],
      "name": "updateSigningWallet",
      "outputs": [],
      "stateMutability": "nonpayable",
      "type": "function"
    },
    {
      "inputs": [
        {
          "internalType": "address",
          "name": "to",
          "type": "address"
        },
        {
          "internalType": "uint256[]",
          "name": "assetIds",
          "type": "uint256[]"
        },
        {
          "internalType": "uint256[]",
          "name": "values",
          "type": "uint256[]"
        }
      ],
      "name": "withdrawAssets",
      "outputs": [],
      "stateMutability": "nonpayable",
      "type": "function"
    }
  ],
  "transactionHash": "0x00d10e8f6d574494662b08c7429f39957673862f36b1be77c3c6255c00a67736",
  "args": [
    "0x525129b95bA89B9800e47ef3dc7d23fBAd27b1a3",
    "0x592daadC9eA7F56A81De1FD27A723Bd407709c46",
    "0x592daadC9eA7F56A81De1FD27A723Bd407709c46",
    "0x49c4D4C94829B9c44052C5f5Cb164Fc612181165",
    "0xa5Eb9C9Eb4F4c35B9Be8cFaAA7909F9ebe6Cb609",
    "0x8705503be3064d11316957cfeb29b35371f0ad0bb7fc873c398a142f08fee1b1",
    1967115600,
    "0xB7060D3FeCAC3AE1F0A0AA416E3e8E472257950e",
    2000,
    "0x0000000000000000000000000000000000000000",
    "0x0000000000000000000000000000000000000000",
    "0xAc3ff31f526Af7f386ea43649e3fa67e329AeF93",
    "0x1d3CE3489a064aEFc9928fe08F9d2Dd968F5c969"
  ],
  "numDeployments": 1,
  "linkedData": [
    {
      "x": 312,
      "y": 393,
      "size": 1,
      "price": "4683000000000000000000",
      "reserved": "",
      "salt": "0xe271f264474cdc3984d57d014db0479c3640e8e28147f4f12bb68f8139da2c9d",
      "assetIds": []
    },
    {
      "x": 312,
      "y": 394,
      "size": 1,
      "price": "4683000000000000000000",
      "reserved": "",
      "salt": "0x0a6a9ccfbda3d34e8210c0b9ccffa00692d5cae0fcdb5b5d5e48e43f466a61a3",
      "assetIds": []
    },
    {
      "x": 312,
      "y": 395,
      "size": 1,
      "price": "4683000000000000000000",
      "reserved": "",
      "salt": "0x1d6338fcf1746e806b7f6fa0ca88692aba25534040021b1da4d053fdaf6e0449",
      "assetIds": []
    },
    {
      "x": 312,
      "y": 396,
      "size": 1,
      "price": "4683000000000000000000",
      "reserved": "",
      "salt": "0x44cba77b9d1bf052abca2d80c668c42713d0a5f44963fb7572772b26ac199da7",
      "assetIds": []
    },
    {
      "x": 312,
      "y": 397,
      "size": 1,
      "price": "4683000000000000000000",
      "reserved": "",
      "salt": "0xa5d3724a5c9c4b097c3e6dc670c4271a3ed9a2c41b03bc0000869cb119da22ff",
      "assetIds": []
    },
    {
      "x": 312,
      "y": 398,
      "size": 1,
      "price": "4683000000000000000000",
      "reserved": "",
      "salt": "0xead0afcde930d426f8e94711b2acbd5f3df7acc881bdad17dac5401f8b10a358",
      "assetIds": []
    },
    {
      "x": 312,
      "y": 399,
      "size": 1,
      "price": "4683000000000000000000",
      "reserved": "",
      "salt": "0xd9fff5665b15454c7a80d37bd871cc7f935fbc81fca69749d24ab9315672017f",
      "assetIds": []
    },
    {
      "x": 312,
      "y": 400,
      "size": 1,
      "price": "4683000000000000000000",
      "reserved": "",
      "salt": "0xbe8d0b4e51e15d3143f3babb4eae595f9e7e02239136265ed795cad6534bffcd",
      "assetIds": []
    },
    {
      "x": 312,
      "y": 401,
      "size": 1,
      "price": "4683000000000000000000",
      "reserved": "",
      "salt": "0x8af6bcff3fcf89de133ab0922293a0a0edf9c1a2552c88eafd4ee664e90d52cf",
      "assetIds": []
    },
    {
      "x": 312,
      "y": 405,
      "size": 1,
      "price": "4683000000000000000000",
      "reserved": "",
      "salt": "0x2afcc04e56e3e433056f61368f1222e62ba7c2e186f62931297e423d69aa2402",
      "assetIds": []
    },
    {
      "x": 312,
      "y": 406,
      "size": 1,
      "price": "4683000000000000000000",
      "reserved": "",
      "salt": "0x21482ca87aed23339476ac80bb6bf6f67af2390635ae3ebf3e097979c204b052",
      "assetIds": []
    },
    {
      "x": 312,
      "y": 407,
      "size": 1,
      "price": "4683000000000000000000",
      "reserved": "",
      "salt": "0xc738c3a4ad78aee6b04fa013263b2baea4a78c2178e12a2e02029d9b822a2ecb",
      "assetIds": []
    },
    {
      "x": 313,
      "y": 393,
      "size": 1,
      "price": "4683000000000000000000",
      "reserved": "",
      "salt": "0x81d8648a981c14143ce1fb9b6b07be57c97cb7815c2bc740c68b1a3682daf7c6",
      "assetIds": []
    },
    {
      "x": 313,
      "y": 394,
      "size": 1,
      "price": "4683000000000000000000",
      "reserved": "",
      "salt": "0x153e299499706112e9c5faaca54ad35fa10487f718c97c9743adafc8440b016f",
      "assetIds": []
    },
    {
      "x": 313,
      "y": 395,
      "size": 1,
      "price": "4683000000000000000000",
      "reserved": "",
      "salt": "0xcaf6180738ccc53cda505b7a567d942aa165a6da1bc08742e05234b49786fdb6",
      "assetIds": []
    },
    {
      "x": 313,
      "y": 396,
      "size": 1,
      "price": "4683000000000000000000",
      "reserved": "",
      "salt": "0x4447b92a4158b518609da329a5dba7eddea85ec4b07c4f73a8972e223e9ab5b9",
      "assetIds": []
    },
    {
      "x": 313,
      "y": 397,
      "size": 1,
      "price": "4683000000000000000000",
      "reserved": "",
      "salt": "0xda606a18c85cb218fecf8346e6a80bf968021cb84cb23396cd06958ee2110ea2",
      "assetIds": []
    },
    {
      "x": 313,
      "y": 398,
      "size": 1,
      "price": "4683000000000000000000",
      "reserved": "",
      "salt": "0x5f415cd11cae275088c1e84c03e0611510dc9d8e25ecda492173fd6ca34bd0ff",
      "assetIds": []
    },
    {
      "x": 313,
      "y": 399,
      "size": 1,
      "price": "4683000000000000000000",
      "reserved": "",
      "salt": "0x1260548e2465b4fe21c8c52aad8123c4c21dbfe1e07d4b2c6c8244a1e362d26f",
      "assetIds": []
    },
    {
      "x": 313,
      "y": 400,
      "size": 1,
      "price": "4683000000000000000000",
      "reserved": "",
      "salt": "0x75ed9d515539efbc80b85faa4da1c693a9fb731d4e77c5430f561c2bf737f651",
      "assetIds": []
    },
    {
      "x": 313,
      "y": 401,
      "size": 1,
      "price": "4683000000000000000000",
      "reserved": "",
      "salt": "0xb4ee32c76a7fb441e5e9861f4e804d99c91397ec0283b44568bda3854d9930fd",
      "assetIds": []
    },
    {
      "x": 313,
      "y": 405,
      "size": 1,
      "price": "4683000000000000000000",
      "reserved": "",
      "salt": "0x1f84ff2ee35ea9f85e68745cbf4e32269c8a2263ee7c94ec1785d1fdfaec7364",
      "assetIds": []
    },
    {
      "x": 313,
      "y": 406,
      "size": 1,
      "price": "4683000000000000000000",
      "reserved": "",
      "salt": "0x8434df438174edf7573123390a70ffbeb3632a0efa00e2a93ec8a1c0a0895dcc",
      "assetIds": []
    },
    {
      "x": 313,
      "y": 407,
      "size": 1,
      "price": "4683000000000000000000",
      "reserved": "",
      "salt": "0xc6eaedc03f8a4f8690528b28714f6f8caa50f2666cf5221be271ba8524c2ff31",
      "assetIds": []
    },
    {
      "x": 314,
      "y": 393,
      "size": 1,
      "price": "4683000000000000000000",
      "reserved": "",
      "salt": "0xee2589171a07660d43efe5f3c56b8db4d1ef5ad123bc0bf1eb8007e7c7be4414",
      "assetIds": []
    },
    {
      "x": 314,
      "y": 394,
      "size": 1,
      "price": "4683000000000000000000",
      "reserved": "",
      "salt": "0x9aebfae10ee2e4198dcf27b8b8c23bd3c9f8e7ec9030fee396251cd79ed4486f",
      "assetIds": []
    },
    {
      "x": 314,
      "y": 395,
      "size": 1,
      "price": "4683000000000000000000",
      "reserved": "",
      "salt": "0x0e027b2c1c77ce24aabdc9d22d85b9c3f05f269e9509d80eefe61e3d7d431b88",
      "assetIds": []
    },
    {
      "x": 314,
      "y": 396,
      "size": 1,
      "price": "4683000000000000000000",
      "reserved": "",
      "salt": "0x37d79011d913d68449f1edac5139fbef73e21ac2b3859c1c8297e79d99408488",
      "assetIds": []
    },
    {
      "x": 314,
      "y": 397,
      "size": 1,
      "price": "4683000000000000000000",
      "reserved": "",
      "salt": "0x34eb8d663e61c31caddd493bf8b1e36e8b6aafb4cc9581f9bd8b2b6918f1fe75",
      "assetIds": []
    },
    {
      "x": 314,
      "y": 398,
      "size": 1,
      "price": "4683000000000000000000",
      "reserved": "",
      "salt": "0x750f2fe2c53205a6735d472870482ec88a2cbaba1ac0df3e98a9672e135481e7",
      "assetIds": []
    },
    {
      "x": 314,
      "y": 399,
      "size": 1,
      "price": "4683000000000000000000",
      "reserved": "0x7a9fe22691c811ea339d9b73150e6911a5343dca",
      "salt": "0xcb1b28041067eb4ec33c93d4f5cf9b546ce11f831aba6f9bb55a80ae9b666991",
      "assetIds": []
    },
    {
      "x": 314,
      "y": 400,
      "size": 1,
      "price": "4683000000000000000000",
      "reserved": "",
      "salt": "0x50dda331a7b1205f710bbdf158c972a3ab36c711b83e9f766c09b5d8ac983d48",
      "assetIds": []
    },
    {
      "x": 314,
      "y": 401,
      "size": 1,
      "price": "4683000000000000000000",
      "reserved": "0x7a9fe22691c811ea339d9b73150e6911a5343dca",
      "salt": "0x189222e4e799d16bf05522d47d3c027157e83796d3cfca2e2a60d26fd3b34b10",
      "assetIds": []
    },
    {
      "x": 314,
      "y": 405,
      "size": 1,
      "price": "4683000000000000000000",
      "reserved": "0x7a9fe22691c811ea339d9b73150e6911a5343dca",
      "salt": "0xb2bb138c5d2d3938cf2de9214f04f19f7d131bcd5ceb9fad7e65b25c4c8e7642",
      "assetIds": []
    },
    {
      "x": 314,
      "y": 406,
      "size": 1,
      "price": "4683000000000000000000",
      "reserved": "",
      "salt": "0x51429e5a2c61f28fa3fa583a33ae37350e1829413677d9e8e1a8f93cecd96462",
      "assetIds": []
    },
    {
      "x": 314,
      "y": 407,
      "size": 1,
      "price": "4683000000000000000000",
      "reserved": "0x7a9fe22691c811ea339d9b73150e6911a5343dca",
      "salt": "0x8528fcb7a726e75e5bbe0cde86043d5cb7a5dac21f0ee4614dc97fb422046eb7",
      "assetIds": []
    },
    {
      "x": 315,
      "y": 390,
      "size": 1,
      "price": "4683000000000000000000",
      "reserved": "",
      "salt": "0x0cb2821f40635eee84650c475ed5b7d97bc7c6d85585323ebbcd2358ca6dd7b9",
      "assetIds": []
    },
    {
      "x": 315,
      "y": 391,
      "size": 1,
      "price": "4683000000000000000000",
      "reserved": "",
      "salt": "0xc03fadbc2af5fe366a51f6bb337d6c004661d2eb0590300cbf91a00bcb19287f",
      "assetIds": []
    },
    {
      "x": 315,
      "y": 392,
      "size": 1,
      "price": "4683000000000000000000",
      "reserved": "",
      "salt": "0x5481e2372198b9608a9be557827289e9a8137144bb594f0eb42c3432ab9b017c",
      "assetIds": []
    },
    {
      "x": 315,
      "y": 396,
      "size": 1,
      "price": "4683000000000000000000",
      "reserved": "",
      "salt": "0x95ee414fe9ace9545f7a1f39a49c2502672b5dd7903e9469a460f5123fcbfc9a",
      "assetIds": []
    },
    {
      "x": 315,
      "y": 397,
      "size": 1,
      "price": "4683000000000000000000",
      "reserved": "",
      "salt": "0x5977ad83094f2c20adfe0d6c74af0859c1d945676b87a2869f2638245db72c8c",
      "assetIds": []
    },
    {
      "x": 315,
      "y": 398,
      "size": 1,
      "price": "4683000000000000000000",
      "reserved": "0x7a9fe22691c811ea339d9b73150e6911a5343dca",
      "salt": "0x80f76740b179b49baffb4106076829774fed03054176be76ebc4131951efe4e1",
      "assetIds": []
    },
    {
      "x": 316,
      "y": 390,
      "size": 1,
      "price": "4683000000000000000000",
      "reserved": "",
      "salt": "0x39f671589d6bf76a44dde12277e936b6680628ff9d7fcc89630cc8826686c45a",
      "assetIds": []
    },
    {
      "x": 316,
      "y": 391,
      "size": 1,
      "price": "4683000000000000000000",
      "reserved": "",
      "salt": "0x12643d3410a62071be9ecf97b970f013ea00f3599177fff81ad48e39270f3957",
      "assetIds": []
    },
    {
      "x": 316,
      "y": 392,
      "size": 1,
      "price": "4683000000000000000000",
      "reserved": "",
      "salt": "0x5aee94e998671fe10c8f786b53c8eb96aa1baace19c46d5b067bc6120754d3fd",
      "assetIds": []
    },
    {
      "x": 316,
      "y": 396,
      "size": 1,
      "price": "4683000000000000000000",
      "reserved": "",
      "salt": "0x21012dd3dbd1f718cd19d47c38d0eb96b350365433caa52ce3414313ad0a1d1f",
      "assetIds": []
    },
    {
      "x": 316,
      "y": 397,
      "size": 1,
      "price": "4683000000000000000000",
      "reserved": "",
      "salt": "0xba42f0c73329cdf59bf2665efa9cf2d557161adb6cc23f10bed396d1efbde081",
      "assetIds": []
    },
    {
      "x": 316,
      "y": 398,
      "size": 1,
      "price": "4683000000000000000000",
      "reserved": "",
      "salt": "0x450a19f1d3ec92db717e51ab740b20f7b19917ea580d0c3c7b1b4a116ee0a3eb",
      "assetIds": []
    },
    {
      "x": 317,
      "y": 390,
      "size": 1,
      "price": "4683000000000000000000",
      "reserved": "0x7a9fe22691c811ea339d9b73150e6911a5343dca",
      "salt": "0xfad40114499dec4463a68c8bfbc6c7afa1444a1e8dc67412fee3d520f96a8638",
      "assetIds": []
    },
    {
      "x": 317,
      "y": 391,
      "size": 1,
      "price": "4683000000000000000000",
      "reserved": "",
      "salt": "0xec51d115ee264d4e94125e2386aaae4b4fc74d5176a850aa349a1c902b009a7e",
      "assetIds": []
    },
    {
      "x": 317,
      "y": 392,
      "size": 1,
      "price": "4683000000000000000000",
      "reserved": "0x7a9fe22691c811ea339d9b73150e6911a5343dca",
      "salt": "0xff417d3a43df542700d12a99185a4ce42c9b1a1016a2a24d6c10d4bca55d0e7e",
      "assetIds": []
    },
    {
      "x": 317,
      "y": 396,
      "size": 1,
      "price": "4683000000000000000000",
      "reserved": "0x7a9fe22691c811ea339d9b73150e6911a5343dca",
      "salt": "0xbad73038be3755bbdb09f0eed4f110fc4876f707f7610d53178e3dcfde40bfae",
      "assetIds": []
    },
    {
      "x": 317,
      "y": 397,
      "size": 1,
      "price": "4683000000000000000000",
      "reserved": "",
      "salt": "0xb8c741cb98dc4f712e46d9c3808b5625e5d0a605b02103b19de92c749d66c857",
      "assetIds": []
    },
    {
      "x": 317,
      "y": 398,
      "size": 1,
      "price": "4683000000000000000000",
      "reserved": "0x7a9fe22691c811ea339d9b73150e6911a5343dca",
      "salt": "0xa4f2c2a9c3cc83cbdc62ee6cb8df948bc38a9e1f87ff5e201c34624a650a6626",
      "assetIds": []
    },
    {
      "x": 318,
      "y": 384,
      "size": 1,
      "price": "4683000000000000000000",
      "reserved": "",
      "salt": "0x6f3a6a4fab39114ff943bf3a8862bf4ef76880587d85faf10d9a7b70752bc2a6",
      "assetIds": []
    },
    {
      "x": 318,
      "y": 385,
      "size": 1,
      "price": "4683000000000000000000",
      "reserved": "",
      "salt": "0x2c41e5456caa48191a78778bdf728afcbcd53238ec904d5dc6295939afe75e63",
      "assetIds": []
    },
    {
      "x": 318,
      "y": 386,
      "size": 1,
      "price": "4683000000000000000000",
      "reserved": "",
      "salt": "0x6ce5edeed96c67e65c0ae78a8a9ce4eb4d257687ff6e8eeaa5f829f6775a75ff",
      "assetIds": []
    },
    {
      "x": 318,
      "y": 387,
      "size": 1,
      "price": "4683000000000000000000",
      "reserved": "",
      "salt": "0xb63ef6fc5c942a724dc74891934d0b59a87973db0cf1d6d57a1529d0bfd86b6b",
      "assetIds": []
    },
    {
      "x": 318,
      "y": 388,
      "size": 1,
      "price": "4683000000000000000000",
      "reserved": "",
      "salt": "0x52ca19b3015ef45d16c016d5dc3d5868e9b38477dc96bd90ee919e29e6d3c615",
      "assetIds": []
    },
    {
      "x": 318,
      "y": 389,
      "size": 1,
      "price": "4683000000000000000000",
      "reserved": "",
      "salt": "0xce62464b9f7e09215f9651b5edd1d9969a64ed4ac7f9a53c8467aab1a758ec76",
      "assetIds": []
    },
    {
      "x": 318,
      "y": 399,
      "size": 1,
      "price": "4683000000000000000000",
      "reserved": "0x7a9fe22691c811ea339d9b73150e6911a5343dca",
      "salt": "0xed741fd9224d087911a571d37fc2bf39a5ae61c67312e6f113303ab47431efc4",
      "assetIds": []
    },
    {
      "x": 318,
      "y": 400,
      "size": 1,
      "price": "4683000000000000000000",
      "reserved": "",
      "salt": "0x93d0f8e5619c891ce08c82233f0cc20286c19427c5368f2d651e1656c714fd2b",
      "assetIds": []
    },
    {
      "x": 318,
      "y": 401,
      "size": 1,
      "price": "4683000000000000000000",
      "reserved": "0x7a9fe22691c811ea339d9b73150e6911a5343dca",
      "salt": "0x0fbd165b66dc0860955126ab72c6e19f4176fd9c0e51a73d4502f64bbd1a2f36",
      "assetIds": []
    },
    {
      "x": 318,
      "y": 402,
      "size": 1,
      "price": "4683000000000000000000",
      "reserved": "",
      "salt": "0x973449531958613ebe85c7c6c08208c04de06f6960b1e2ea0f42627ad66713fe",
      "assetIds": []
    },
    {
      "x": 318,
      "y": 403,
      "size": 1,
      "price": "4683000000000000000000",
      "reserved": "",
      "salt": "0xf3594628e8da6f481448a3f8f25213865b53bd3e1684848e7bee1b26647d2e0c",
      "assetIds": []
    },
    {
      "x": 318,
      "y": 404,
      "size": 1,
      "price": "4683000000000000000000",
      "reserved": "",
      "salt": "0xe4c470e5d67454b713f6badcd46e718eb62f939b0a0c2c5dfdb2dd7fda392cca",
      "assetIds": []
    },
    {
      "x": 318,
      "y": 405,
      "size": 1,
      "price": "4683000000000000000000",
      "reserved": "0x7a9fe22691c811ea339d9b73150e6911a5343dca",
      "salt": "0x061a227952499e66f5c906cf7eb80b4763d8f378d6ac0f0fa9ea7b8c7a9e683e",
      "assetIds": []
    },
    {
      "x": 318,
      "y": 406,
      "size": 1,
      "price": "4683000000000000000000",
      "reserved": "",
      "salt": "0x8534067d7df702e80233051148afd5382da848d805741a31242b107d7dfc69a9",
      "assetIds": []
    },
    {
      "x": 318,
      "y": 407,
      "size": 1,
      "price": "4683000000000000000000",
      "reserved": "0x7a9fe22691c811ea339d9b73150e6911a5343dca",
      "salt": "0x6e7d663a62822d17fedc9525dba74af0c77219038f96120bd50b3bec4754297f",
      "assetIds": []
    },
    {
      "x": 319,
      "y": 384,
      "size": 1,
      "price": "4683000000000000000000",
      "reserved": "",
      "salt": "0x81f6d5e756f786bf666b79e29bc2bbb447d8498775259d963663a5eef4e76e0f",
      "assetIds": []
    },
    {
      "x": 319,
      "y": 385,
      "size": 1,
      "price": "4683000000000000000000",
      "reserved": "",
      "salt": "0xdce8255bff2f05d7e58a08da4136310155abb2d0820306523e6c2f30fcc2310c",
      "assetIds": []
    },
    {
      "x": 319,
      "y": 386,
      "size": 1,
      "price": "4683000000000000000000",
      "reserved": "",
      "salt": "0xe748ca24e225b64c0853fc351928e528913698b6654ce7669b05e35e8de6dbe0",
      "assetIds": []
    },
    {
      "x": 319,
      "y": 387,
      "size": 1,
      "price": "4683000000000000000000",
      "reserved": "",
      "salt": "0x0c22f13cd4d157f6fc3fad666c9a528fc0fb57bfa3f715474de104e7cd3eca4b",
      "assetIds": []
    },
    {
      "x": 319,
      "y": 388,
      "size": 1,
      "price": "4683000000000000000000",
      "reserved": "",
      "salt": "0x7230ac55b742699a2ceea87f527490fb1eb55ba4c26a36c6d3e85b687dc0b829",
      "assetIds": []
    },
    {
      "x": 319,
      "y": 389,
      "size": 1,
      "price": "4683000000000000000000",
      "reserved": "0x7a9fe22691c811ea339d9b73150e6911a5343dca",
      "salt": "0x57204418683f97e21406c72577d6c9c5d7b156e0a6b46feffe65dffb583122b5",
      "assetIds": []
    },
    {
      "x": 319,
      "y": 399,
      "size": 1,
      "price": "4683000000000000000000",
      "reserved": "",
      "salt": "0xed3bf1b4af9101885e03bb15f48147e6731147e4ad2164dcbe2d0479f283f8c1",
      "assetIds": []
    },
    {
      "x": 319,
      "y": 400,
      "size": 1,
      "price": "4683000000000000000000",
      "reserved": "",
      "salt": "0xf1068cf43fb91e2d91c488978082d01b88aa5010134fde381b5a17faccfb8f99",
      "assetIds": []
    },
    {
      "x": 319,
      "y": 401,
      "size": 1,
      "price": "4683000000000000000000",
      "reserved": "",
      "salt": "0xa69c68c2be1d5a4216801a2c6c2f936868df304f94bd729538c8b344c5eff50c",
      "assetIds": []
    },
    {
      "x": 319,
      "y": 402,
      "size": 1,
      "price": "4683000000000000000000",
      "reserved": "",
      "salt": "0xc56ca53188e49df3a4efe9f2893e80313295cacadf4802d0dde2e79ac434e951",
      "assetIds": []
    },
    {
      "x": 319,
      "y": 403,
      "size": 1,
      "price": "4683000000000000000000",
      "reserved": "",
      "salt": "0xb26c28326d614b6cff3a716ba4681a11dcae96f08d9c0421d21e886b5589dd93",
      "assetIds": []
    },
    {
      "x": 319,
      "y": 404,
      "size": 1,
      "price": "4683000000000000000000",
      "reserved": "",
      "salt": "0x73f75f6462c0260e23404bb095236b8998a8d448b1d540d19fdf4cc4ccba5edb",
      "assetIds": []
    },
    {
      "x": 319,
      "y": 405,
      "size": 1,
      "price": "4683000000000000000000",
      "reserved": "",
      "salt": "0xb0dfdddb209fe3d1a1c2459393aa8771b624a6da73a5c790feefcb71c971f0cf",
      "assetIds": []
    },
    {
      "x": 319,
      "y": 406,
      "size": 1,
      "price": "4683000000000000000000",
      "reserved": "",
      "salt": "0xa1e8910891ae4e37002c3fbcc95f94eaa9c666a9147af9aac7c0b6b2e4e44dae",
      "assetIds": []
    },
    {
      "x": 319,
      "y": 407,
      "size": 1,
      "price": "4683000000000000000000",
      "reserved": "",
      "salt": "0xa442c88e8af6bd5f77c0791a7d2428617431a26a2ee27a7f203a0a0e24176eae",
      "assetIds": []
    },
    {
      "x": 320,
      "y": 384,
      "size": 1,
      "price": "4683000000000000000000",
      "reserved": "0x7a9fe22691c811ea339d9b73150e6911a5343dca",
      "salt": "0xfbf849b28bc142d2197b3b655aff7a55e3e0968935389889c309df47dd9747a1",
      "assetIds": []
    },
    {
      "x": 320,
      "y": 385,
      "size": 1,
      "price": "4683000000000000000000",
      "reserved": "",
      "salt": "0x5960e9b5dd3c97f51f42c040f19cb62dbc89bf4f3d98c57e03152b6667e81278",
      "assetIds": []
    },
    {
      "x": 320,
      "y": 386,
      "size": 1,
      "price": "4683000000000000000000",
      "reserved": "0x7a9fe22691c811ea339d9b73150e6911a5343dca",
      "salt": "0x0516a149c09a64b9933ecf38e267a6e0227c6825fbac69493a6946bdb003f7eb",
      "assetIds": []
    },
    {
      "x": 320,
      "y": 387,
      "size": 1,
      "price": "4683000000000000000000",
      "reserved": "",
      "salt": "0xf1ad1aaa365f19b944e4db78c5fa6cc2e956f1c33c4ad27bb0c8e3b9d845432b",
      "assetIds": []
    },
    {
      "x": 320,
      "y": 388,
      "size": 1,
      "price": "4683000000000000000000",
      "reserved": "",
      "salt": "0xedca82fb88c93940e06f4c94a0f46ce281778de083a5362c538ffd5bee8eca0a",
      "assetIds": []
    },
    {
      "x": 320,
      "y": 389,
      "size": 1,
      "price": "4683000000000000000000",
      "reserved": "",
      "salt": "0xb2809a9ac490e3e5356141611eb2e6cb3d6796271f6498d894ade4e420cecd68",
      "assetIds": []
    },
    {
      "x": 320,
      "y": 399,
      "size": 1,
      "price": "4683000000000000000000",
      "reserved": "0x7a9fe22691c811ea339d9b73150e6911a5343dca",
      "salt": "0x5f1af616abb52efa7261dabe8b6c2a5bbc15f158812b859e3c8b6f029a94f298",
      "assetIds": []
    },
    {
      "x": 320,
      "y": 400,
      "size": 1,
      "price": "4683000000000000000000",
      "reserved": "",
      "salt": "0xc9834fa1d20154e0132dddd7cf91d93fc0c1c80b7c3c8b03946f6f195310ccbe",
      "assetIds": []
    },
    {
      "x": 320,
      "y": 401,
      "size": 1,
      "price": "4683000000000000000000",
      "reserved": "",
      "salt": "0x1fd29bd36813d93db78f7ec0d7cee61329150cd5aa97e2ec65b1130778ce19f9",
      "assetIds": []
    },
    {
      "x": 320,
      "y": 402,
      "size": 1,
      "price": "4683000000000000000000",
      "reserved": "",
      "salt": "0xe3f2232f35b5b4da969bbd1370bfac266be302139e3db1d77b3315817b5859ba",
      "assetIds": []
    },
    {
      "x": 320,
      "y": 403,
      "size": 1,
      "price": "4683000000000000000000",
      "reserved": "",
      "salt": "0x16608ec790b9a186bbb8a53d98257a3c76c3c397e6020bf89eba3fa5e11aea4a",
      "assetIds": []
    },
    {
      "x": 320,
      "y": 404,
      "size": 1,
      "price": "4683000000000000000000",
      "reserved": "",
      "salt": "0x88e0957ef5ebf91cc8172f90ca007a7c228b5bb758e13cbfb943d8e630809eb3",
      "assetIds": []
    },
    {
      "x": 320,
      "y": 405,
      "size": 1,
      "price": "4683000000000000000000",
      "reserved": "0x7a9fe22691c811ea339d9b73150e6911a5343dca",
      "salt": "0xf4c62cb64dbfc948fa34ba6ebb085e51633afd029b3d23c34de4766e02b3a06c",
      "assetIds": []
    },
    {
      "x": 320,
      "y": 406,
      "size": 1,
      "price": "4683000000000000000000",
      "reserved": "",
      "salt": "0xcfdc31731ca7583cd50c9deb223314c5a041d9c811c5ee167cdbcf9bc3bc4947",
      "assetIds": []
    },
    {
      "x": 320,
      "y": 407,
      "size": 1,
      "price": "4683000000000000000000",
      "reserved": "0x7a9fe22691c811ea339d9b73150e6911a5343dca",
      "salt": "0xb2e7afc234f2dea4780f228b2b221ca4112c3dfff363ee990ca285fe73688f53",
      "assetIds": []
    },
    {
      "x": 321,
      "y": 387,
      "size": 1,
      "price": "4683000000000000000000",
      "reserved": "0x7a9fe22691c811ea339d9b73150e6911a5343dca",
      "salt": "0x7d8f67ba4b1630647bf536b96d918b23cdfe04305c8543ad3392c049399fc200",
      "assetIds": []
    },
    {
      "x": 321,
      "y": 388,
      "size": 1,
      "price": "4683000000000000000000",
      "reserved": "",
      "salt": "0x4b1daff28d402e3d022682878322265d517a600620ee7b2014c3b449eda1068b",
      "assetIds": []
    },
    {
      "x": 321,
      "y": 389,
      "size": 1,
      "price": "4683000000000000000000",
      "reserved": "0x7a9fe22691c811ea339d9b73150e6911a5343dca",
      "salt": "0xca4461671bcdda61a8a3f313cdda0dc2b4161a1893d89134db106958a33798e4",
      "assetIds": []
    },
    {
      "x": 321,
      "y": 396,
      "size": 1,
      "price": "4683000000000000000000",
      "reserved": "0x7a9fe22691c811ea339d9b73150e6911a5343dca",
      "salt": "0xf2b46e6469bd860b76c8ef2b79918f1ee6e7babf015bae5963f7becc9740a172",
      "assetIds": []
    },
    {
      "x": 321,
      "y": 397,
      "size": 1,
      "price": "4683000000000000000000",
      "reserved": "",
      "salt": "0xf69b0da896845b399f293f03fe5996bb0cfebeed38b6dba5566de0e57190d0bd",
      "assetIds": []
    },
    {
      "x": 321,
      "y": 398,
      "size": 1,
      "price": "4683000000000000000000",
      "reserved": "0x7a9fe22691c811ea339d9b73150e6911a5343dca",
      "salt": "0x8b9ce7db1965e08bd48391fd92011d2011eaf27d9df56862d442b9d6b9924820",
      "assetIds": []
    },
    {
      "x": 321,
      "y": 399,
      "size": 1,
      "price": "4683000000000000000000",
      "reserved": "",
      "salt": "0xce0e2db0ad27824b80f74403044e7c82c070b85010ab03680e029f9a06dac0c0",
      "assetIds": []
    },
    {
      "x": 321,
      "y": 400,
      "size": 1,
      "price": "4683000000000000000000",
      "reserved": "",
      "salt": "0x6e434a1dce1f8bf107941d1773d699f47a90cc612d6bc0d3f85126b31175104f",
      "assetIds": []
    },
    {
      "x": 321,
      "y": 401,
      "size": 1,
      "price": "4683000000000000000000",
      "reserved": "",
      "salt": "0x89440e55f653a44a65cdeac8ccf7554668bdff682e2036139dafb14351c63a9b",
      "assetIds": []
    },
    {
      "x": 322,
      "y": 387,
      "size": 1,
      "price": "4683000000000000000000",
      "reserved": "",
      "salt": "0x9f4d421ea5cde96aa2be35200574f66a569e9e12a641acbdcf764a00d05ada47",
      "assetIds": []
    },
    {
      "x": 322,
      "y": 388,
      "size": 1,
      "price": "4683000000000000000000",
      "reserved": "",
      "salt": "0x5a85276cec45d398b2a781288fbebba49f5d1baac52db0ae44d11f93add0d58a",
      "assetIds": []
    },
    {
      "x": 322,
      "y": 389,
      "size": 1,
      "price": "4683000000000000000000",
      "reserved": "",
      "salt": "0x6416e430d247c1b7bc9ecd20a5cc9a4c2b0357b90c84e6339efd63b67f9ad34e",
      "assetIds": []
    },
    {
      "x": 322,
      "y": 396,
      "size": 1,
      "price": "4683000000000000000000",
      "reserved": "",
      "salt": "0xe52a0432ec8545f5029304c9eebbac1a60208d39a95e5af6cdc7d76e79ef3f47",
      "assetIds": []
    },
    {
      "x": 322,
      "y": 397,
      "size": 1,
      "price": "4683000000000000000000",
      "reserved": "",
      "salt": "0x62e64fec9b70bcf86db654b7230140f15d081df9bfb6e3059cf7a03cff07841e",
      "assetIds": []
    },
    {
      "x": 322,
      "y": 398,
      "size": 1,
      "price": "4683000000000000000000",
      "reserved": "",
      "salt": "0x6132468f164cd214a088533a285b86c1a50518f0c8282359090f16eefdf1252a",
      "assetIds": []
    },
    {
      "x": 322,
      "y": 399,
      "size": 1,
      "price": "4683000000000000000000",
      "reserved": "",
      "salt": "0x7f67ff3dda0d6f6d8d42eabe6c716024bb7c7f14511c99ed8ba5caf39e3f7d29",
      "assetIds": []
    },
    {
      "x": 322,
      "y": 400,
      "size": 1,
      "price": "4683000000000000000000",
      "reserved": "",
      "salt": "0xae58957adac2d8bf3192769ebf5fad6d64284c66866511bad3aa5087ad216c79",
      "assetIds": []
    },
    {
      "x": 322,
      "y": 401,
      "size": 1,
      "price": "4683000000000000000000",
      "reserved": "",
      "salt": "0x7689135d2bf9b537524a0f53793c56f45a81469db24eded0a985648b4e1aca70",
      "assetIds": []
    },
    {
      "x": 323,
      "y": 387,
      "size": 1,
      "price": "4683000000000000000000",
      "reserved": "0x7a9fe22691c811ea339d9b73150e6911a5343dca",
      "salt": "0xbb395720c779618d6c97a9ced3b2ef3d973552f880769d91542b2d283a47e46e",
      "assetIds": []
    },
    {
      "x": 323,
      "y": 388,
      "size": 1,
      "price": "4683000000000000000000",
      "reserved": "",
      "salt": "0x6adde58244b81376649caa51e56d09353999b73e52e0bb44199745e37033d177",
      "assetIds": []
    },
    {
      "x": 323,
      "y": 389,
      "size": 1,
      "price": "4683000000000000000000",
      "reserved": "0x7a9fe22691c811ea339d9b73150e6911a5343dca",
      "salt": "0x5c209c057513da069419b9de8c9de0fbbdb42808e3130e6887aba202c838f285",
      "assetIds": []
    },
    {
      "x": 323,
      "y": 396,
      "size": 1,
      "price": "4683000000000000000000",
      "reserved": "0x7a9fe22691c811ea339d9b73150e6911a5343dca",
      "salt": "0x394840005e7e47fed710e8ef993723517d4779010553d7024342dfb7fd1ede63",
      "assetIds": []
    },
    {
      "x": 323,
      "y": 397,
      "size": 1,
      "price": "4683000000000000000000",
      "reserved": "",
      "salt": "0x4f04d53140ba09b12014dee7c59f8a02ce5e6f6de9c486fd697b4f539c6cb712",
      "assetIds": []
    },
    {
      "x": 323,
      "y": 398,
      "size": 1,
      "price": "4683000000000000000000",
      "reserved": "",
      "salt": "0x34255c3ae0e4298da46cf363c63eee39d2bf1b56a8047de7cd9df2b99962d856",
      "assetIds": []
    },
    {
      "x": 323,
      "y": 399,
      "size": 1,
      "price": "4683000000000000000000",
      "reserved": "",
      "salt": "0x126b7f9c9b8dcf790a0a7855b1ab8c49a8bf8675c98474192870d79b98371626",
      "assetIds": []
    },
    {
      "x": 323,
      "y": 400,
      "size": 1,
      "price": "4683000000000000000000",
      "reserved": "",
      "salt": "0xa9e207b3b138ee9efa97a5adb822b395c227011fb92504e8f549aba48a0f3cf1",
      "assetIds": []
    },
    {
      "x": 323,
      "y": 401,
      "size": 1,
      "price": "4683000000000000000000",
      "reserved": "",
      "salt": "0xbbe8c3607152dc82cd6bd673717704dafbc6233e06354d81faec3a16ae1e0c44",
      "assetIds": []
    },
    {
      "x": 324,
      "y": 390,
      "size": 1,
      "price": "4683000000000000000000",
      "reserved": "0x7a9fe22691c811ea339d9b73150e6911a5343dca",
      "salt": "0x5665bda9954762f123c7c94fdc625b5f6bea4f8a0035428c711daf6219a280d3",
      "assetIds": []
    },
    {
      "x": 324,
      "y": 391,
      "size": 1,
      "price": "4683000000000000000000",
      "reserved": "",
      "salt": "0x19ac5d25c644e79adac7949d906185c2ee2f20892386461093498eb4f0ef143f",
      "assetIds": []
    },
    {
      "x": 324,
      "y": 392,
      "size": 1,
      "price": "4683000000000000000000",
      "reserved": "0x7a9fe22691c811ea339d9b73150e6911a5343dca",
      "salt": "0xf72992299685acdb12b82243a19bba5cba64ff263b14010b70e1e1db32082aad",
      "assetIds": []
    },
    {
      "x": 325,
      "y": 390,
      "size": 1,
      "price": "4683000000000000000000",
      "reserved": "",
      "salt": "0x6d9a32b3925b654fbbf746566f11f215322f0c9feff00aae5f5cf1bcf9318c34",
      "assetIds": []
    },
    {
      "x": 325,
      "y": 391,
      "size": 1,
      "price": "4683000000000000000000",
      "reserved": "",
      "salt": "0x33ad9563382376bda1c0afa66becd606d689f276998e53dce31acbfa3966afac",
      "assetIds": []
    },
    {
      "x": 325,
      "y": 392,
      "size": 1,
      "price": "4683000000000000000000",
      "reserved": "",
      "salt": "0x59daca0213593df4a7100085ccac8e7672a6b082e83b1cd3b7c162686f2fec1e",
      "assetIds": []
    },
    {
      "x": 326,
      "y": 390,
      "size": 1,
      "price": "4683000000000000000000",
      "reserved": "0x7a9fe22691c811ea339d9b73150e6911a5343dca",
      "salt": "0x451945215de9c55fe8f2c697eb37cc48020391f29c220b8f31d3bc82b1b0a136",
      "assetIds": []
    },
    {
      "x": 326,
      "y": 391,
      "size": 1,
      "price": "4683000000000000000000",
      "reserved": "",
      "salt": "0x5079e2aaee3791e61c8f0127d2c55cd5f802d97374c0403fdc50bdbe882aa065",
      "assetIds": []
    },
    {
      "x": 326,
      "y": 392,
      "size": 1,
      "price": "4683000000000000000000",
      "reserved": "0x7a9fe22691c811ea339d9b73150e6911a5343dca",
      "salt": "0xa39b20ccabb42a3853e0b2d5b0f41dcd875027c3b4a20e82e1ee2b7973b96cca",
      "assetIds": []
    },
    {
      "x": 327,
      "y": 384,
      "size": 1,
      "price": "4683000000000000000000",
      "reserved": "",
      "salt": "0xfa1f527dcb657b670814d09e2b08bc253207d9273497a22c810895ea816ca820",
      "assetIds": []
    },
    {
      "x": 327,
      "y": 385,
      "size": 1,
      "price": "4683000000000000000000",
      "reserved": "",
      "salt": "0xbfd637c1ee25a470b40758925113a540ec44d3a8b6fa7827afba53808dee82bd",
      "assetIds": []
    },
    {
      "x": 327,
      "y": 386,
      "size": 1,
      "price": "4683000000000000000000",
      "reserved": "",
      "salt": "0x49fbae82609aa780cef05fa462696edcb41958d6ea126bd55249c85dc91f0e59",
      "assetIds": []
    },
    {
      "x": 327,
      "y": 387,
      "size": 1,
      "price": "4683000000000000000000",
      "reserved": "0x7a9fe22691c811ea339d9b73150e6911a5343dca",
      "salt": "0xbd32977efd276da13a77eab46c7af24bdd91ab491bba28d07c2f970cc4de3d45",
      "assetIds": []
    },
    {
      "x": 327,
      "y": 388,
      "size": 1,
      "price": "4683000000000000000000",
      "reserved": "",
      "salt": "0x40bc0f78a1585be0c623cabd8d0458451a54f008467eddad9569fb749d666846",
      "assetIds": []
    },
    {
      "x": 327,
      "y": 389,
      "size": 1,
      "price": "4683000000000000000000",
      "reserved": "0x7a9fe22691c811ea339d9b73150e6911a5343dca",
      "salt": "0x6e2eee31fb6833d05a45e2f3d242b4b8ecede2c72ea656e644d3aed51d0a4472",
      "assetIds": []
    },
    {
      "x": 327,
      "y": 393,
      "size": 1,
      "price": "4683000000000000000000",
      "reserved": "0x7a9fe22691c811ea339d9b73150e6911a5343dca",
      "salt": "0x4b8dc9626f4c4373effb84fd06aaad799ff438f275457bfe6b58e689ffd0e11d",
      "assetIds": []
    },
    {
      "x": 327,
      "y": 394,
      "size": 1,
      "price": "4683000000000000000000",
      "reserved": "",
      "salt": "0x24933fa8a43207183808773b1c4b6ad3f825f9f215cef57bb40616bbcfdffb3e",
      "assetIds": []
    },
    {
      "x": 327,
      "y": 395,
      "size": 1,
      "price": "4683000000000000000000",
      "reserved": "",
      "salt": "0xce74214aeb8e990c2312f584936b6683e6d32b24ae3ab6955c05cbe3a62d75f4",
      "assetIds": []
    },
    {
      "x": 328,
      "y": 384,
      "size": 1,
      "price": "4683000000000000000000",
      "reserved": "",
      "salt": "0xaba3b0b8ca3b69389c91f4c770e4dde816ad6cabb2fd7826d8c19a34aee670a8",
      "assetIds": []
    },
    {
      "x": 328,
      "y": 385,
      "size": 1,
      "price": "4683000000000000000000",
      "reserved": "",
      "salt": "0x50b629d7c69abe533d24e0f6deeabdf97aa54af0613f752ef49751a69d0053a0",
      "assetIds": []
    },
    {
      "x": 328,
      "y": 386,
      "size": 1,
      "price": "4683000000000000000000",
      "reserved": "",
      "salt": "0x4cf962d442aca905a06f78a3f7dc7da1f837d9a7bd9d7fd888fa17d3cd18715b",
      "assetIds": []
    },
    {
      "x": 328,
      "y": 387,
      "size": 1,
      "price": "4683000000000000000000",
      "reserved": "",
      "salt": "0xdb320c5743ac53e12fd43b9231893aa2d3d44d8962e2da309b8087cd14d23916",
      "assetIds": []
    },
    {
      "x": 328,
      "y": 388,
      "size": 1,
      "price": "4683000000000000000000",
      "reserved": "",
      "salt": "0xce522517ca54fd9e6769184914be2150816e1d8736acd00cc8ab3a378cb13561",
      "assetIds": []
    },
    {
      "x": 328,
      "y": 389,
      "size": 1,
      "price": "4683000000000000000000",
      "reserved": "",
      "salt": "0xe744ffd7875a23759738335f581c62f035029bb72f1f2fb541975dafffc46097",
      "assetIds": []
    },
    {
      "x": 328,
      "y": 393,
      "size": 1,
      "price": "4683000000000000000000",
      "reserved": "",
      "salt": "0xff25b197acbac6f1ef6f85af3ac62bf01dd8595d0c6036dee4e3213c3a0e9cc4",
      "assetIds": []
    },
    {
      "x": 328,
      "y": 394,
      "size": 1,
      "price": "4683000000000000000000",
      "reserved": "",
      "salt": "0x6b168eaa1901090bcea601328da04bc103b0192f9d0c2c00505abd765cba981d",
      "assetIds": []
    },
    {
      "x": 328,
      "y": 395,
      "size": 1,
      "price": "4683000000000000000000",
      "reserved": "",
      "salt": "0xca18e372249ce14cbb4a300754eb6f80901e2dad3533999467287cbe536e06d4",
      "assetIds": []
    },
    {
      "x": 329,
      "y": 384,
      "size": 1,
      "price": "4683000000000000000000",
      "reserved": "",
      "salt": "0xd15ade8c5240217d4d13446a6bd13649a56d3ecf7c2332079fa21d33e2e42074",
      "assetIds": []
    },
    {
      "x": 329,
      "y": 385,
      "size": 1,
      "price": "4683000000000000000000",
      "reserved": "",
      "salt": "0x4f8fb342acc0b37297fe4f19f373e4f9620aa32dbf7f35cb104c39346e5a4df5",
      "assetIds": []
    },
    {
      "x": 329,
      "y": 386,
      "size": 1,
      "price": "4683000000000000000000",
      "reserved": "",
      "salt": "0xb5780fcd954b4a1162864b1baf2ba9d66d9bdcffdf74fc98c42e9b0f78f1918b",
      "assetIds": []
    },
    {
      "x": 329,
      "y": 387,
      "size": 1,
      "price": "4683000000000000000000",
      "reserved": "0x7a9fe22691c811ea339d9b73150e6911a5343dca",
      "salt": "0x4ea24c5f26946a895b8e88fdb971723304f3c5a91deb6d3695f6ecbbce0b1739",
      "assetIds": []
    },
    {
      "x": 329,
      "y": 388,
      "size": 1,
      "price": "4683000000000000000000",
      "reserved": "",
      "salt": "0x88c1544f80cbfbd11a6d25799c4b45944debb697bf5e6b558bc8290ca8b46525",
      "assetIds": []
    },
    {
      "x": 329,
      "y": 389,
      "size": 1,
      "price": "4683000000000000000000",
      "reserved": "0x7a9fe22691c811ea339d9b73150e6911a5343dca",
      "salt": "0xa4be8353d4c46323fe42d5e5a7b7ee634a4d0978ee284f6e45a4398301ba641c",
      "assetIds": []
    },
    {
      "x": 329,
      "y": 393,
      "size": 1,
      "price": "4683000000000000000000",
      "reserved": "0x7a9fe22691c811ea339d9b73150e6911a5343dca",
      "salt": "0xaa7f89d8340609921eadaf3776ff2f2e44cea90b6962a1285cbfe495ae227ce7",
      "assetIds": []
    },
    {
      "x": 329,
      "y": 394,
      "size": 1,
      "price": "4683000000000000000000",
      "reserved": "",
      "salt": "0xd1cc90fbc6c989ea7f4a5956cf592283d18e7fc170f01566f1bdf81a98bf7e16",
      "assetIds": []
    },
    {
      "x": 329,
      "y": 395,
      "size": 1,
      "price": "4683000000000000000000",
      "reserved": "",
      "salt": "0x17287a1fe28ec0c7e0bf8e59febca1486d8c808f02d43c7f8b26b57a3290fda5",
      "assetIds": []
    },
    {
      "x": 330,
      "y": 384,
      "size": 1,
      "price": "4683000000000000000000",
      "reserved": "0x7a9fe22691c811ea339d9b73150e6911a5343dca",
      "salt": "0x5949c02c0349096532dc1a296134caf7b9464e290c073ceae37d990c23383fb2",
      "assetIds": []
    },
    {
      "x": 330,
      "y": 385,
      "size": 1,
      "price": "4683000000000000000000",
      "reserved": "0x7a9fe22691c811ea339d9b73150e6911a5343dca",
      "salt": "0xa77ad2bd884b651b8c37c086e3c08b86f1a98e6bbdfe86fb5fffc678b16baff1",
      "assetIds": []
    },
    {
      "x": 330,
      "y": 386,
      "size": 1,
      "price": "4683000000000000000000",
      "reserved": "0x7a9fe22691c811ea339d9b73150e6911a5343dca",
      "salt": "0x3778f9eb294085d7361a12f1b6cd6917cc6a1593b09e83d4fa3c74ecf07e212e",
      "assetIds": []
    },
    {
      "x": 331,
      "y": 384,
      "size": 1,
      "price": "4683000000000000000000",
      "reserved": "",
      "salt": "0xee63b04c5d311db1f1ecf5fce81bac30f6c8d2beeb0d5ca9d946aa3bca84f673",
      "assetIds": []
    },
    {
      "x": 331,
      "y": 385,
      "size": 1,
      "price": "4683000000000000000000",
      "reserved": "",
      "salt": "0x16066465fbf73fc0c3fa147192a6bc0a1ffc6e053c89a22691fe0b16ba8c0f7b",
      "assetIds": []
    },
    {
      "x": 331,
      "y": 386,
      "size": 1,
      "price": "4683000000000000000000",
      "reserved": "",
      "salt": "0xb741c2d72b914b0dfbb1080facd4602c6fa8a9bc85db7c861cf906050818ace7",
      "assetIds": []
    },
    {
      "x": 332,
      "y": 384,
      "size": 1,
      "price": "4683000000000000000000",
      "reserved": "0x7a9fe22691c811ea339d9b73150e6911a5343dca",
      "salt": "0xca2fab08c550926c178e95130b2e91db3f80b666e27661d5defd8054d702a3b1",
      "assetIds": []
    },
    {
      "x": 332,
      "y": 385,
      "size": 1,
      "price": "4683000000000000000000",
      "reserved": "",
      "salt": "0xe651baf9766511e1c962a1aac21780bed99948ef26b5847cb3c9e3cafb2706aa",
      "assetIds": []
    },
    {
      "x": 332,
      "y": 386,
      "size": 1,
      "price": "4683000000000000000000",
      "reserved": "0x7a9fe22691c811ea339d9b73150e6911a5343dca",
      "salt": "0x86d8ef8dbbdba0294e65948f03adb43ac8401b035965855a485ad0b8e66ef5fb",
      "assetIds": []
    },
    {
      "x": 312,
      "y": 390,
      "size": 3,
      "price": "8648000000000000000000",
      "reserved": "0x7a9fe22691c811ea339d9b73150e6911a5343dca",
      "salt": "0x6237a917c32ce4f985dd26f95194a3aa2c532db4f029b27d6625564a640786d8",
      "assetIds": []
    },
    {
      "x": 312,
      "y": 402,
      "size": 3,
      "price": "8648000000000000000000",
      "reserved": "0x7a9fe22691c811ea339d9b73150e6911a5343dca",
      "salt": "0xccc753555ab8fe08b5118a0ff2cecc44659b162334c87dad7e98255bf1460413",
      "assetIds": []
    },
    {
      "x": 315,
      "y": 393,
      "size": 3,
      "price": "8648000000000000000000",
      "reserved": "0x7a9fe22691c811ea339d9b73150e6911a5343dca",
      "salt": "0x6f181828e5833743adf1a912989f3971391a1fa747131e3da63deadc0d882246",
      "assetIds": []
    },
    {
      "x": 315,
      "y": 399,
      "size": 3,
      "price": "8648000000000000000000",
      "reserved": "0x7a9fe22691c811ea339d9b73150e6911a5343dca",
      "salt": "0xd5adedbf5ca3611e214f9aeba8e744197505d84083dacb9182e2a2db4a4d1b9c",
      "assetIds": []
    },
    {
      "x": 315,
      "y": 402,
      "size": 3,
      "price": "8648000000000000000000",
      "reserved": "0x7a9fe22691c811ea339d9b73150e6911a5343dca",
      "salt": "0x161bc86b4728cedabeaab4c92c2466cddb2b7252e1aa6408f2fbd9a53e548495",
      "assetIds": []
    },
    {
      "x": 315,
      "y": 405,
      "size": 3,
      "price": "8648000000000000000000",
      "reserved": "0x7a9fe22691c811ea339d9b73150e6911a5343dca",
      "salt": "0xe51e36a807c391ebd2148bb749d04e1871f15f3ade86339082f512fb9b8561ec",
      "assetIds": []
    },
    {
      "x": 318,
      "y": 396,
      "size": 3,
      "price": "8648000000000000000000",
      "reserved": "0x7a9fe22691c811ea339d9b73150e6911a5343dca",
      "salt": "0x291284f2ec783c2f0381faff5151a2f4439243c0755839966c3cc52d7e35adbe",
      "assetIds": []
    },
    {
      "x": 321,
      "y": 384,
      "size": 3,
      "price": "8648000000000000000000",
      "reserved": "0x7a9fe22691c811ea339d9b73150e6911a5343dca",
      "salt": "0x7a38423ea68ee08d50069ef1a7a2c1a3b2f0a6e8f8c2e68fab6f81a92b0f7c47",
      "assetIds": []
    },
    {
      "x": 321,
      "y": 402,
      "size": 3,
      "price": "8648000000000000000000",
      "reserved": "0x7a9fe22691c811ea339d9b73150e6911a5343dca",
      "salt": "0x9daeb8d1b4322eee244dc3b80309f7fe7eafe96c23163fa616ebdabfeacfb482",
      "assetIds": []
    },
    {
      "x": 321,
      "y": 405,
      "size": 3,
      "price": "8648000000000000000000",
      "reserved": "0x7a9fe22691c811ea339d9b73150e6911a5343dca",
      "salt": "0x287489fa7686e15bc854203c087d9c8c1dfaff1d05147bcdba0b8bc6212028de",
      "assetIds": []
    },
    {
      "x": 324,
      "y": 384,
      "size": 3,
      "price": "8648000000000000000000",
      "reserved": "0x7a9fe22691c811ea339d9b73150e6911a5343dca",
      "salt": "0x7d010840209dd49588950b5dcec098b8512c4624e62461ab29b18413d959cdbd",
      "assetIds": []
    },
    {
      "x": 324,
      "y": 387,
      "size": 3,
      "price": "8648000000000000000000",
      "reserved": "0x7a9fe22691c811ea339d9b73150e6911a5343dca",
      "salt": "0xc79c8f50e4535ebb6a4f54f40e0f86b83e56f75a59ef7ecbffd0bc647833afe1",
      "assetIds": []
    },
    {
      "x": 324,
      "y": 393,
      "size": 3,
      "price": "8648000000000000000000",
      "reserved": "0x7a9fe22691c811ea339d9b73150e6911a5343dca",
      "salt": "0xf2c6a4134832c028017b02f131d6f8987f591b226a03ef30b8fc212b1b8672b7",
      "assetIds": []
    },
    {
      "x": 327,
      "y": 390,
      "size": 3,
      "price": "8648000000000000000000",
      "reserved": "0x7a9fe22691c811ea339d9b73150e6911a5343dca",
      "salt": "0xe4581e2479c4e7de713d4749f41907225c28df44894309a5e99476365ff69a2b",
      "assetIds": []
    },
    {
      "x": 330,
      "y": 387,
      "size": 3,
      "price": "8648000000000000000000",
      "reserved": "0x7a9fe22691c811ea339d9b73150e6911a5343dca",
      "salt": "0x34c81cc3f11931b591ad1b9ed3299ab65c773fe4963dc29f0d41bcfcee033e5c",
      "assetIds": []
    },
    {
      "x": 333,
      "y": 384,
      "size": 3,
      "price": "8648000000000000000000",
      "reserved": "0x7a9fe22691c811ea339d9b73150e6911a5343dca",
      "salt": "0x81c4f4fa1c829a4d22d7950cb5f15783fa99eb54b6dea23fb6e4c94070c1de11",
      "assetIds": []
    },
    {
      "x": 333,
      "y": 387,
      "size": 3,
      "price": "8648000000000000000000",
      "reserved": "0x7a9fe22691c811ea339d9b73150e6911a5343dca",
      "salt": "0x40d8f6b83f2085b8d56d4e7286a4b98faeaeb7d4a0bad0580743fa7839d06816",
      "assetIds": []
    },
    {
      "x": 312,
      "y": 384,
      "size": 6,
      "price": "32772000000000000000000",
      "reserved": "0x7a9fe22691c811ea339d9b73150e6911a5343dca",
      "salt": "0xd7cba3323f1531686e4f09e88e2e5dbe9e6e203e89cc8fb169365bd8f210e644",
      "assetIds": []
    },
    {
      "x": 318,
      "y": 390,
      "size": 6,
      "price": "32772000000000000000000",
      "reserved": "0x7a9fe22691c811ea339d9b73150e6911a5343dca",
      "salt": "0x4c00f19093f093e19b202817e9e7b67eb269d42c7447657a67e23ed87f300494",
      "assetIds": []
    },
    {
      "x": 330,
      "y": 390,
      "size": 6,
      "price": "32772000000000000000000",
      "reserved": "0x7a9fe22691c811ea339d9b73150e6911a5343dca",
      "salt": "0x3d791ebbb7e9b61bb1aa3e8a19324c61f6f9fedfcab450444264f15a9e2afbdd",
      "assetIds": []
    },
    {
      "x": 324,
      "y": 396,
      "size": 12,
      "price": "123806000000000000000000",
      "reserved": "0x7a9fe22691c811ea339d9b73150e6911a5343dca",
      "salt": "0x4f56612aaad7ba3460df375b41aa17885c9dea5671e16e622c4e7dff8692bedc",
      "assetIds": []
    }
  ],
  "solcInputHash": "e17a5bb930c92aaeeb80a52119ce77b7",
  "bytecode": "0x610160604052620d2f0060055534801561001857600080fd5b506040516200284d3803806200284d83398181016040526101a081101561003e57600080fd5b50805160208201516040830151606080850151608086015160a08088015160c0808a015160e08b01516101008c01516101208d01516101408e01516101608f0151610180909f0151600280546001600160a01b0319166001600160a01b03871617905560038490558e8c1b6001600160601b03199081169099529a8d901b9097169094529a9b999a98999698959793969195909490939091906100e28b600161015d565b600680546001600160a01b039a8b166001600160a01b031991821617909155610140989098526101209690965260008054998916998816999099179098556001600160601b0319606092831b811660e05290821b811660805296901b909516610100525060078054919093169116179055506101c192505050565b6001600160a01b038216600081815260016020908152604091829020805460ff191685151590811790915582519384529083015280517fb21eb88b4e33b3f1281830a7178d74d8aa73220416215726b68ae23d539515cb9281900390910190a15050565b60805160601c60a05160601c60c05160601c60e05160601c6101005160601c61012051610140516126066200024760003980610b3d528061206c525080610b1952806112ec5250806120da525080611841528061199e5250806117f75280611b9d528061210e525080611872528061196f525080610eb25280611c8952506126066000f3fe608060405234801561001057600080fd5b506004361061011b5760003560e01c80638f283970116100b2578063c10a420811610081578063dc5074af11610066578063dc5074af1461085f578063e56f8a9e14610885578063f23a6e61146108a25761011b565b8063c10a420814610780578063caed3500146108575761011b565b80638f28397014610500578063984d625214610526578063b522ecff146105f8578063bc197c811461061e5761011b565b806365194ce7116100ee57806365194ce7146103485780636e9960c3146104a657806377f1c3ac146104ca5780638a04af6a146104d25761011b565b80631187fd3c1461012057806325cb5bc014610300578063495906571461031a57806358bc294414610322575b600080fd5b6102fe600480360361012081101561013757600080fd5b6001600160a01b038235811692602081013582169260408201359092169181019060808101606082013564010000000081111561017357600080fd5b82018360208201111561018557600080fd5b803590602001918460208302840111640100000000831117156101a757600080fd5b919390928235926040810190602001356401000000008111156101c957600080fd5b8201836020820111156101db57600080fd5b803590602001918460208302840111640100000000831117156101fd57600080fd5b91939092909160208101903564010000000081111561021b57600080fd5b82018360208201111561022d57600080fd5b8035906020019184602083028401116401000000008311171561024f57600080fd5b91939092909160208101903564010000000081111561026d57600080fd5b82018360208201111561027f57600080fd5b803590602001918460018302840111640100000000831117156102a157600080fd5b9193909290916020810190356401000000008111156102bf57600080fd5b8201836020820111156102d157600080fd5b803590602001918460018302840111640100000000831117156102f357600080fd5b509092509050610937565b005b610308610b17565b60408051918252519081900360200190f35b610308610b3b565b6102fe6004803603602081101561033857600080fd5b50356001600160a01b0316610b5f565b6103ee6004803603602081101561035e57600080fd5b81019060208101813564010000000081111561037957600080fd5b82018360208201111561038b57600080fd5b803590602001918460018302840111640100000000831117156103ad57600080fd5b91908080601f016020809104026020016040519081016040528093929190818152602001838380828437600092019190915250929550610c0a945050505050565b6040518080602001866001600160a01b03166001600160a01b03168152602001856001600160a01b03166001600160a01b03168152602001848152602001838152602001828103825287818151815260200191508051906020019080838360005b8381101561046757818101518382015260200161044f565b50505050905090810190601f1680156104945780820380516001836020036101000a031916815260200191505b50965050505050505060405180910390f35b6104ae610d0f565b604080516001600160a01b039092168252519081900360200190f35b610308610d1e565b6102fe600480360360408110156104e857600080fd5b506001600160a01b0381351690602001351515610d24565b6102fe6004803603602081101561051657600080fd5b50356001600160a01b0316610d7b565b6102fe6004803603606081101561053c57600080fd5b6001600160a01b03823516919081019060408101602082013564010000000081111561056757600080fd5b82018360208201111561057957600080fd5b8035906020019184602083028401116401000000008311171561059b57600080fd5b9193909290916020810190356401000000008111156105b957600080fd5b8201836020820111156105cb57600080fd5b803590602001918460208302840111640100000000831117156105ed57600080fd5b509092509050610e51565b6102fe6004803603602081101561060e57600080fd5b50356001600160a01b0316610fdc565b61074b600480360360a081101561063457600080fd5b6001600160a01b03823581169260208101359091169181019060608101604082013564010000000081111561066857600080fd5b82018360208201111561067a57600080fd5b8035906020019184602083028401116401000000008311171561069c57600080fd5b9193909290916020810190356401000000008111156106ba57600080fd5b8201836020820111156106cc57600080fd5b803590602001918460208302840111640100000000831117156106ee57600080fd5b91939092909160208101903564010000000081111561070c57600080fd5b82018360208201111561071e57600080fd5b8035906020019184600183028401116401000000008311171561074057600080fd5b5090925090506110c5565b604080517fffffffff000000000000000000000000000000000000000000000000000000009092168252519081900360200190f35b610843600480360360a081101561079657600080fd5b8101906020810181356401000000008111156107b157600080fd5b8201836020820111156107c357600080fd5b803590602001918460018302840111640100000000831117156107e557600080fd5b91908080601f016020809104026020016040519081016040528093929190818152602001838380828437600092019190915250929550506001600160a01b0383358116945060208401351692604081013592506060013590506110f2565b604080519115158252519081900360200190f35b6104ae61122e565b6108436004803603602081101561087557600080fd5b50356001600160a01b031661123d565b6102fe6004803603602081101561089b57600080fd5b503561125b565b61074b600480360360a08110156108b857600080fd5b6001600160a01b03823581169260208101359091169160408201359160608101359181019060a0810160808201356401000000008111156108f857600080fd5b82018360208201111561090a57600080fd5b8035906020019184600183028401116401000000008311171561092c57600080fd5b5090925090506112bf565b6109418e8d6112ea565b610a388d8d8d8d80806020026020016040519081016040528093929190818152602001838360200280828437600081840152601f19601f820116905080830192505050505050508c8c8c80806020026020016040519081016040528093929190818152602001838360200280828437600081840152601f19601f820116905080830192505050505050508b8b8080602002602001604051908101604052809392919081815260200183836020028082843760009201919091525050604080516020601f8d018190048102820181019092528b815292508b91508a908190840183828082843760009201919091525061144d92505050565b610a8c8e8c8c6003818110610a4957fe5b9050602002013586868080601f0160208091040260200160405190810160405280939291908181526020018383808284376000920191909152506117d092505050565b610aca8e8e8d8d8080602002602001604051908101604052809392919081815260200183836020028082843760009201919091525061182192505050565b610b078d898980806020026020016040519081016040528093929190818152602001838360200280828437600092019190915250611c1292505050565b5050505050505050505050505050565b7f000000000000000000000000000000000000000000000000000000000000000090565b7f000000000000000000000000000000000000000000000000000000000000000090565b6000546001600160a01b03163314610bbe576040805162461bcd60e51b815260206004820152601060248201527f53656e646572206e6f742061646d696e00000000000000000000000000000000604482015290519081900360640190fd5b600554600280546001600160a01b03908116600090815260046020526040902042909301909255805473ffffffffffffffffffffffffffffffffffffffff191692909116919091179055565b606060008060008060606000806000808a80602001905160a0811015610c2f57600080fd5b8101908080516040519392919084640100000000821115610c4f57600080fd5b908301906020820185811115610c6457600080fd5b8251640100000000811182820188101715610c7e57600080fd5b82525081516020918201929091019080838360005b83811015610cab578181015183820152602001610c93565b50505050905090810190601f168015610cd85780820380516001836020036101000a031916815260200191505b5060409081526020820151908201516060830151608090930151959f50909d509b5099509197505050505050505091939590929450565b6000546001600160a01b031690565b60035490565b6000546001600160a01b03163314610d6d5760405162461bcd60e51b815260040180806020018281038252602e8152602001806125a3602e913960400191505060405180910390fd5b610d778282611dd6565b5050565b6000546001600160a01b03163314610dda576040805162461bcd60e51b815260206004820152601b60248201527f6f6e6c792061646d696e2063616e206368616e67652061646d696e0000000000604482015290519081900360640190fd5b600054604080516001600160a01b039283168152918316602083015280517f7e644d79422f17c01e4894b5f4f588d331ebfa28653d42ae832dc59e38c9798f9281900390910190a16000805473ffffffffffffffffffffffffffffffffffffffff19166001600160a01b0392909216919091179055565b6000546001600160a01b03163314610eb0576040805162461bcd60e51b815260206004820152600e60248201527f4e4f545f415554484f52495a4544000000000000000000000000000000000000604482015290519081900360640190fd5b7f00000000000000000000000000000000000000000000000000000000000000006001600160a01b0316632eb2c2d63087878787876040518763ffffffff1660e01b815260040180876001600160a01b03166001600160a01b03168152602001866001600160a01b03166001600160a01b031681526020018060200180602001806020018481038452888882818152602001925060200280828437600083820152601f01601f19169091018581038452868152602090810191508790870280828437600081840152601f19601f8201169050808301925050508481038252600081526020016020019950505050505050505050600060405180830381600087803b158015610fbd57600080fd5b505af1158015610fd1573d6000803e3d6000fd5b505050505050505050565b6001600160a01b038116611037576040805162461bcd60e51b815260206004820152600c60248201527f5a45524f5f414444524553530000000000000000000000000000000000000000604482015290519081900360640190fd5b6000546001600160a01b03163314611096576040805162461bcd60e51b815260206004820152600e60248201527f4e4f545f415554484f52495a4544000000000000000000000000000000000000604482015290519081900360640190fd5b6006805473ffffffffffffffffffffffffffffffffffffffff19166001600160a01b0392909216919091179055565b7fbc197c810000000000000000000000000000000000000000000000000000000098975050505050505050565b60006003548211806111155750836001600160a01b0316856001600160a01b0316145b8061111f57508242115b1561112c57506000611225565b60408051606087811b7fffffffffffffffffffffffffffffffffffffffff0000000000000000000000009081166020808501919091529188901b166034830152604882018690526068808301869052835180840390910181526088830184528051908201207f19457468657265756d205369676e6564204d6573736167653a0a33320000000060a884015260c48084018290528451808503909101815260e490930190935281519101206000906111e39089611e58565b6001600160a01b038116600090815260046020526040902054909150421161121057600192505050611225565b6002546001600160a01b039081169116149150505b95945050505050565b6002546001600160a01b031690565b6001600160a01b031660009081526001602052604090205460ff1690565b6000546001600160a01b031633146112ba576040805162461bcd60e51b815260206004820152601060248201527f53656e646572206e6f742061646d696e00000000000000000000000000000000604482015290519081900360640190fd5b600355565b7ff23a6e61000000000000000000000000000000000000000000000000000000009695505050505050565b7f0000000000000000000000000000000000000000000000000000000000000000421061135e576040805162461bcd60e51b815260206004820152600c60248201527f53414c455f49535f4f5645520000000000000000000000000000000000000000604482015290519081900360640190fd5b6001600160a01b03821633148061138457503360009081526001602052604090205460ff165b6113d5576040805162461bcd60e51b815260206004820152600e60248201527f4e4f545f415554484f52495a4544000000000000000000000000000000000000604482015290519081900360640190fd5b6001600160a01b03811615806113fc5750816001600160a01b0316816001600160a01b0316145b610d77576040805162461bcd60e51b815260206004820152600d60248201527f52455345525645445f4c414e4400000000000000000000000000000000000000604482015290519081900360640190fd5b600087878760008151811061145e57fe5b60200260200101518860018151811061147357fe5b60200260200101518960028151811061148857fe5b60200260200101518a60038151811061149d57fe5b60200260200101518a8a60405160200180828051906020019060200280838360005b838110156114d75781810151838201526020016114bf565b50505050905001915050604051602081830303815290604052805190602001208a60405160200180828051906020019060200280838360005b83811015611528578181015183820152602001611510565b5050505090500191505060405160208183030381529060405280519060200120604051602001808a6001600160a01b03166001600160a01b031660601b8152601401896001600160a01b03166001600160a01b031660601b81526014018881526020018781526020018681526020018581526020018481526020018381526020018281526020019950505050505050505050604051602081830303815290604052805190602001209050600760009054906101000a90046001600160a01b03166001600160a01b031663012847ed83836040518363ffffffff1660e01b81526004018080602001838152602001828103825284818151815260200191508051906020019080838360005b8381101561164a578181015183820152602001611632565b50505050905090810190601f1680156116775780820380516001836020036101000a031916815260200191505b50935050505060206040518083038186803b15801561169557600080fd5b505afa1580156116a9573d6000803e3d6000fd5b505050506040513d60208110156116bf57600080fd5b5051611712576040805162461bcd60e51b815260206004820152600c60248201527f494e56414c49445f415554480000000000000000000000000000000000000000604482015290519081900360640190fd5b60006117738760008151811061172457fe5b60200260200101518860018151811061173957fe5b60200260200101518960028151811061174e57fe5b60200260200101518a60038151811061176357fe5b60200260200101518c8b8b611f25565b905061177f8482611fca565b610fd1576040805162461bcd60e51b815260206004820152600c60248201527f494e56414c49445f4c414e440000000000000000000000000000000000000000604482015290519081900360640190fd5b60006117dc8484612095565b60065490915061181b908590839085906001600160a01b03167f00000000000000000000000000000000000000000000000000000000000000006121ee565b50505050565b8060028151811061182e57fe5b60200260200101516001148061186b57507f00000000000000000000000000000000000000000000000000000000000000006001600160a01b0316155b1561196d577f00000000000000000000000000000000000000000000000000000000000000006001600160a01b0316636e1e3bbf83836002815181106118ad57fe5b6020026020010151846000815181106118c257fe5b6020026020010151856001815181106118d757fe5b60200260200101516040518563ffffffff1660e01b815260040180856001600160a01b03166001600160a01b031681526020018481526020018381526020018281526020018060200182810382526000815260200160200195505050505050600060405180830381600087803b15801561195057600080fd5b505af1158015611964573d6000803e3d6000fd5b50505050611b0d565b7f00000000000000000000000000000000000000000000000000000000000000006001600160a01b0316636e1e3bbf7f0000000000000000000000000000000000000000000000000000000000000000836002815181106119ca57fe5b6020026020010151846000815181106119df57fe5b6020026020010151856001815181106119f457fe5b60200260200101518760405160200180826001600160a01b03166001600160a01b031681526020019150506040516020818303038152906040526040518663ffffffff1660e01b815260040180866001600160a01b03166001600160a01b0316815260200185815260200184815260200183815260200180602001828103825283818151815260200191508051906020019080838360005b83811015611aa4578181015183820152602001611a8c565b50505050905090810190601f168015611ad15780820380516001836020036101000a031916815260200191505b509650505050505050600060405180830381600087803b158015611af457600080fd5b505af1158015611b08573d6000803e3d6000fd5b505050505b61019881600181518110611b1d57fe5b60200260200101510281600081518110611b3357fe5b602002602001015101826001600160a01b0316846001600160a01b03167fe4dfa6ac11314892f3029b34a25b1a887da3b1cab2bbf8506d87128ba6e3ac0284600281518110611b7e57fe5b602002602001015185600381518110611b9357fe5b60200260200101517f000000000000000000000000000000000000000000000000000000000000000087600381518110611bc957fe5b602002602001015160405180858152602001848152602001836001600160a01b03166001600160a01b0316815260200182815260200194505050505060405180910390a4505050565b6060815167ffffffffffffffff81118015611c2c57600080fd5b50604051908082528060200260200182016040528015611c56578160200160208202803683370190505b50905060005b8251811015611c86576001828281518110611c7357fe5b6020908102919091010152600101611c5c565b507f00000000000000000000000000000000000000000000000000000000000000006001600160a01b0316632eb2c2d6308585856040518563ffffffff1660e01b815260040180856001600160a01b03166001600160a01b03168152602001846001600160a01b03166001600160a01b03168152602001806020018060200180602001848103845286818151815260200191508051906020019060200280838360005b83811015611d41578181015183820152602001611d29565b50505050905001848103835285818151815260200191508051906020019060200280838360005b83811015611d80578181015183820152602001611d68565b50505050905001848103825260008152602001602001975050505050505050600060405180830381600087803b158015611db957600080fd5b505af1158015611dcd573d6000803e3d6000fd5b50505050505050565b6001600160a01b03821660008181526001602090815260409182902080547fffffffffffffffffffffffffffffffffffffffffffffffffffffffffffffff001685151590811790915582519384529083015280517fb21eb88b4e33b3f1281830a7178d74d8aa73220416215726b68ae23d539515cb9281900390910190a15050565b60008151604114611e6857600080fd5b60208201516040830151606084015160001a601b811015611e8757601b015b8060ff16601b1480611e9c57508060ff16601c145b611ea557600080fd5b6040805160008152602080820180845289905260ff8416828401526060820186905260808201859052915160019260a0808401939192601f1981019281900390910190855afa158015611efc573d6000803e3d6000fd5b5050604051601f1901519450506001600160a01b038416611f1c57600080fd5b50505092915050565b60008787878787878760405160200180888152602001878152602001868152602001858152602001846001600160a01b03166001600160a01b031660601b8152601401838152602001828051906020019060200280838360005b83811015611f97578181015183820152602001611f7f565b50505050905001975050505050505050604051602081830303815290604052805190602001209050979650505050505050565b600081815b8451811015612069576000858281518110611fe657fe5b602002602001015190508083101561202e5782816040516020018083815260200182815260200192505050604051602081830303815290604052805190602001209250612060565b808360405160200180838152602001828152602001925050506040516020818303038152906040528051906020012092505b50600101611fcf565b507f00000000000000000000000000000000000000000000000000000000000000001490505b92915050565b6000806120ba60646120ae85600563ffffffff61247016565b9063ffffffff6124e016565b604080516323b872dd60e01b81526001600160a01b0387811660048301527f0000000000000000000000000000000000000000000000000000000000000000811660248301526044820184905291519293507f0000000000000000000000000000000000000000000000000000000000000000909116916323b872dd916064808201926020929091908290030181600087803b15801561215957600080fd5b505af115801561216d573d6000803e3d6000fd5b505050506040513d602081101561218357600080fd5b50516121d6576040805162461bcd60e51b815260206004820152601360248201527f4645455f5452414e534645525f4641494c454400000000000000000000000000604482015290519081900360640190fd5b6121e6838263ffffffff61254516565b949350505050565b8251819085901561239857606060008060008061220a8a610c0a565b939850919650945092509050600061222586868686866110f2565b156122b35761223f6122378d84612470565b6127106124e0565b9050886001600160a01b0316846001600160a01b0316866001600160a01b03167fac7a699eb95c3c6d390ec4626de17ef9a67b35891efdb197beba7c7fdd45fac48f858760405180848152602001838152602001828152602001935050505060405180910390a46122b08782612545565b96505b801561239157604080516323b872dd60e01b81526001600160a01b038f811660048301528781166024830152604482018490529151918a16916323b872dd916064808201926020929091908290030181600087803b15801561231457600080fd5b505af1158015612328573d6000803e3d6000fd5b505050506040513d602081101561233e57600080fd5b5051612391576040805162461bcd60e51b815260206004820152601960248201527f636f6d6d6973696f6e207472616e73666572206661696c656400000000000000604482015290519081900360640190fd5b5050505050505b604080516323b872dd60e01b81526001600160a01b0389811660048301528681166024830152604482018490529151918416916323b872dd916064808201926020929091908290030181600087803b1580156123f357600080fd5b505af1158015612407573d6000803e3d6000fd5b505050506040513d602081101561241d57600080fd5b5051611dcd576040805162461bcd60e51b815260206004820152601760248201527f7061796d656e74207472616e73666572206661696c6564000000000000000000604482015290519081900360640190fd5b60008261247f5750600061208f565b508181028183828161248d57fe5b041461208f576040805162461bcd60e51b815260206004820152600860248201527f6f766572666c6f77000000000000000000000000000000000000000000000000604482015290519081900360640190fd5b600081612534576040805162461bcd60e51b815260206004820152600960248201527f64697662797a65726f0000000000000000000000000000000000000000000000604482015290519081900360640190fd5b81838161253d57fe5b049392505050565b60008282111561259c576040805162461bcd60e51b815260206004820152600860248201527f756e6465666c6f77000000000000000000000000000000000000000000000000604482015290519081900360640190fd5b5090039056fe6f6e6c792061646d696e2063616e207365747570206d6574615472616e73616374696f6e50726f636573736f7273a2646970667358221220fc9205bafc138c1de206481f144dc3e7818922fbe1a20d2a71392e5e2e413c1a64736f6c63430006050033",
  "devdoc": {
    "methods": {
      "buyLandWithSand(address,address,address,uint256[],bytes32,uint256[],bytes32[],bytes,bytes)": {
        "params": {
          "buyer": "address that perform the payment",
          "info": "[X_INDEX=0] x coordinate of the Land [Y_INDEX=1] y coordinate of the Land [SIZE_INDEX=2] size of the pack of Land to purchase [PRICE_INDEX=3] price in SAND to purchase that Land",
          "proof": "merkleProof for that particular Land",
          "reserved": "the reserved address (if any)",
          "to": "address that will own the purchased Land"
        }
      },
      "changeAdmin(address)": {
        "details": "change the administrator to be `newAdmin`.",
        "params": {
          "newAdmin": "address of the new administrator."
        }
      },
      "getAdmin()": {
        "details": "gives the current administrator of this contract.",
        "returns": {
          "_0": "the current administrator of this contract."
        }
      },
      "getSigningWallet()": {
        "details": "signing wallet authorized for referral",
        "returns": {
          "_0": "the address of the signing wallet"
        }
      },
      "isMetaTransactionProcessor(address)": {
        "details": "check whether address `who` is given meta-transaction execution rights.",
        "params": {
          "who": "The address to query."
        },
        "returns": {
          "_0": "whether the address has meta-transaction execution rights."
        }
      },
      "isReferralValid(bytes,address,address,uint256,uint256)": {
        "params": {
          "commissionRate": "The commissionRate of the referral",
          "expiryTime": "The expiry time of the referral",
          "referee": "The address of the referee",
          "referrer": "The address of the referrer",
          "signature": "The signature to check (signed referral)"
        },
        "returns": {
          "_0": "True if the referral is valid"
        }
      },
      "setMetaTransactionProcessor(address,bool)": {
        "details": "Enable or disable the ability of `metaTransactionProcessor` to perform meta-tx (metaTransactionProcessor rights).",
        "params": {
          "enabled": "set whether the metaTransactionProcessor is enabled or disabled.",
          "metaTransactionProcessor": "address that will be given/removed metaTransactionProcessor rights."
        }
      },
      "setReceivingWallet(address)": {
        "params": {
          "newWallet": "address of the new receiving wallet"
        }
      },
      "updateMaxCommissionRate(uint256)": {
        "details": "Update the maximum commission rate",
        "params": {
          "newMaxCommissionRate": "The new maximum commission rate"
        }
      },
      "updateSigningWallet(address)": {
        "details": "Update the signing wallet",
        "params": {
          "newSigningWallet": "The new address of the signing wallet"
        }
      },
      "withdrawAssets(address,uint256[],uint256[])": {
        "params": {
          "assetIds": "the assetIds to be transferred",
          "to": "intended recipient of the asset tokens",
          "values": "the quantities of the assetIds to be transferred"
        }
      }
    },
    "title": "Estate Sale contract with referral"
  },
  "userdoc": {
    "methods": {
      "buyLandWithSand(address,address,address,uint256[],bytes32,uint256[],bytes32[],bytes,bytes)": {
        "notice": "buy Land with SAND using the merkle proof associated with it"
      },
      "getExpiryTime()": {
        "notice": "Gets the expiry time for the current sale"
      },
      "getMaxCommisionRate()": {
        "notice": "the max commision rate"
      },
      "getMerkleRoot()": {
        "notice": "Gets the Merkle root associated with the current sale"
      },
      "isReferralValid(bytes,address,address,uint256,uint256)": {
        "notice": "Check if a referral is valid"
      },
      "setReceivingWallet(address)": {
        "notice": "set the wallet receiving the proceeds"
      },
      "withdrawAssets(address,uint256[],uint256[])": {
        "notice": "enable Admin to withdraw remaining assets from EstateSaleWithFee contract"
      }
    },
    "notice": "This contract manages the sale of our lands as Estates"
  },
  "storageLayout": {
    "storage": [
      {
        "astId": 13650,
        "contract": "src/solc_0.6/EstateSale/EstateSaleWithAuth.sol:EstateSaleWithAuth",
        "label": "_admin",
        "offset": 0,
        "slot": "0",
        "type": "t_address"
      },
      {
        "astId": 13712,
        "contract": "src/solc_0.6/EstateSale/EstateSaleWithAuth.sol:EstateSaleWithAuth",
        "label": "_metaTransactionContracts",
        "offset": 0,
        "slot": "1",
        "type": "t_mapping(t_address,t_bool)"
      },
      {
        "astId": 11828,
        "contract": "src/solc_0.6/EstateSale/EstateSaleWithAuth.sol:EstateSaleWithAuth",
        "label": "_signingWallet",
        "offset": 0,
        "slot": "2",
        "type": "t_address"
      },
      {
        "astId": 11830,
        "contract": "src/solc_0.6/EstateSale/EstateSaleWithAuth.sol:EstateSaleWithAuth",
        "label": "_maxCommissionRate",
        "offset": 0,
        "slot": "3",
        "type": "t_uint256"
      },
      {
        "astId": 11834,
        "contract": "src/solc_0.6/EstateSale/EstateSaleWithAuth.sol:EstateSaleWithAuth",
        "label": "_previousSigningWallets",
        "offset": 0,
        "slot": "4",
        "type": "t_mapping(t_address,t_uint256)"
      },
      {
        "astId": 11843,
        "contract": "src/solc_0.6/EstateSale/EstateSaleWithAuth.sol:EstateSaleWithAuth",
        "label": "_previousSigningDelay",
        "offset": 0,
        "slot": "5",
        "type": "t_uint256"
      },
      {
        "astId": 7453,
        "contract": "src/solc_0.6/EstateSale/EstateSaleWithAuth.sol:EstateSaleWithAuth",
        "label": "_wallet",
        "offset": 0,
        "slot": "6",
        "type": "t_address_payable"
      },
      {
        "astId": 7455,
        "contract": "src/solc_0.6/EstateSale/EstateSaleWithAuth.sol:EstateSaleWithAuth",
        "label": "_authValidator",
        "offset": 0,
        "slot": "7",
        "type": "t_contract(AuthValidator)6784"
      }
    ],
    "types": {
      "t_address": {
        "encoding": "inplace",
        "label": "address",
        "numberOfBytes": "20"
      },
      "t_address_payable": {
        "encoding": "inplace",
        "label": "address payable",
        "numberOfBytes": "20"
      },
      "t_bool": {
        "encoding": "inplace",
        "label": "bool",
        "numberOfBytes": "1"
      },
      "t_contract(AuthValidator)6784": {
        "encoding": "inplace",
        "label": "contract AuthValidator",
        "numberOfBytes": "20"
      },
      "t_mapping(t_address,t_bool)": {
        "encoding": "mapping",
        "key": "t_address",
        "label": "mapping(address => bool)",
        "numberOfBytes": "32",
        "value": "t_bool"
      },
      "t_mapping(t_address,t_uint256)": {
        "encoding": "mapping",
        "key": "t_address",
        "label": "mapping(address => uint256)",
        "numberOfBytes": "32",
        "value": "t_uint256"
      },
      "t_uint256": {
        "encoding": "inplace",
        "label": "uint256",
        "numberOfBytes": "32"
      }
    }
  }
}