{
  "address": "0x606269c3E9717B298DE7a103Fb3D4f6274291eaB",
  "abi": [
    {
      "inputs": [
        {
          "internalType": "address",
          "name": "_fxChild",
          "type": "address"
        },
        {
          "internalType": "contract IPolygonLand",
          "name": "_childToken",
          "type": "address"
        },
        {
          "internalType": "address",
          "name": "_trustedForwarder",
          "type": "address"
        },
        {
          "internalType": "uint32",
          "name": "_maxGasLimit",
          "type": "uint32"
        },
        {
          "internalType": "uint256",
          "name": "_maxAllowedQuads",
          "type": "uint256"
        },
        {
          "internalType": "uint32[5]",
          "name": "limits",
          "type": "uint32[5]"
        }
      ],
      "stateMutability": "nonpayable",
      "type": "constructor"
    },
    {
      "anonymous": false,
      "inputs": [
        {
          "indexed": false,
          "internalType": "bytes",
          "name": "message",
          "type": "bytes"
        }
      ],
      "name": "MessageSent",
      "type": "event"
    },
    {
      "anonymous": false,
      "inputs": [
        {
          "indexed": true,
          "internalType": "address",
          "name": "previousOwner",
          "type": "address"
        },
        {
          "indexed": true,
          "internalType": "address",
          "name": "newOwner",
          "type": "address"
        }
      ],
      "name": "OwnershipTransferred",
      "type": "event"
    },
    {
      "anonymous": false,
      "inputs": [
        {
          "indexed": false,
          "internalType": "uint8",
          "name": "size",
          "type": "uint8"
        },
        {
          "indexed": false,
          "internalType": "uint32",
          "name": "limit",
          "type": "uint32"
        }
      ],
      "name": "SetGasLimit",
      "type": "event"
    },
    {
      "anonymous": false,
      "inputs": [
        {
          "indexed": false,
          "internalType": "uint256",
          "name": "maxQuads",
          "type": "uint256"
        }
      ],
      "name": "SetMaxAllowedQuads",
      "type": "event"
    },
    {
      "anonymous": false,
      "inputs": [
        {
          "indexed": false,
          "internalType": "uint32",
          "name": "maxGasLimit",
          "type": "uint32"
        }
      ],
      "name": "SetMaxGasLimit",
      "type": "event"
    },
    {
      "inputs": [
        {
          "internalType": "address",
          "name": "to",
          "type": "address"
        },
        {
          "internalType": "uint256[]",
          "name": "sizes",
          "type": "uint256[]"
        },
        {
          "internalType": "uint256[]",
          "name": "xs",
          "type": "uint256[]"
        },
        {
          "internalType": "uint256[]",
          "name": "ys",
          "type": "uint256[]"
        },
        {
          "internalType": "bytes",
          "name": "data",
          "type": "bytes"
        }
      ],
      "name": "batchTransferQuadToL1",
      "outputs": [],
      "stateMutability": "nonpayable",
      "type": "function"
    },
    {
      "inputs": [],
      "name": "childToken",
      "outputs": [
        {
          "internalType": "contract IPolygonLand",
          "name": "",
          "type": "address"
        }
      ],
      "stateMutability": "view",
      "type": "function"
    },
    {
      "inputs": [],
      "name": "fxChild",
      "outputs": [
        {
          "internalType": "address",
          "name": "",
          "type": "address"
        }
      ],
      "stateMutability": "view",
      "type": "function"
    },
    {
      "inputs": [],
      "name": "fxRootTunnel",
      "outputs": [
        {
          "internalType": "address",
          "name": "",
          "type": "address"
        }
      ],
      "stateMutability": "view",
      "type": "function"
    },
    {
      "inputs": [
        {
          "internalType": "uint8",
          "name": "",
          "type": "uint8"
        }
      ],
      "name": "gasLimits",
      "outputs": [
        {
          "internalType": "uint32",
          "name": "",
          "type": "uint32"
        }
      ],
      "stateMutability": "view",
      "type": "function"
    },
    {
      "inputs": [],
      "name": "getTrustedForwarder",
      "outputs": [
        {
          "internalType": "address",
          "name": "trustedForwarder",
          "type": "address"
        }
      ],
      "stateMutability": "view",
      "type": "function"
    },
    {
      "inputs": [
        {
          "internalType": "address",
          "name": "forwarder",
          "type": "address"
        }
      ],
      "name": "isTrustedForwarder",
      "outputs": [
        {
          "internalType": "bool",
          "name": "",
          "type": "bool"
        }
      ],
      "stateMutability": "view",
      "type": "function"
    },
    {
      "inputs": [],
      "name": "maxAllowedQuads",
      "outputs": [
        {
          "internalType": "uint256",
          "name": "",
          "type": "uint256"
        }
      ],
      "stateMutability": "view",
      "type": "function"
    },
    {
      "inputs": [],
      "name": "maxGasLimitOnL1",
      "outputs": [
        {
          "internalType": "uint32",
          "name": "",
          "type": "uint32"
        }
      ],
      "stateMutability": "view",
      "type": "function"
    },
    {
      "inputs": [
        {
          "internalType": "address",
          "name": "",
          "type": "address"
        },
        {
          "internalType": "address",
          "name": "",
          "type": "address"
        },
        {
          "internalType": "uint256[]",
          "name": "",
          "type": "uint256[]"
        },
        {
          "internalType": "bytes",
          "name": "",
          "type": "bytes"
        }
      ],
      "name": "onERC721BatchReceived",
      "outputs": [
        {
          "internalType": "bytes4",
          "name": "",
          "type": "bytes4"
        }
      ],
      "stateMutability": "pure",
      "type": "function"
    },
    {
      "inputs": [
        {
          "internalType": "address",
          "name": "",
          "type": "address"
        },
        {
          "internalType": "address",
          "name": "",
          "type": "address"
        },
        {
          "internalType": "uint256",
          "name": "",
          "type": "uint256"
        },
        {
          "internalType": "bytes",
          "name": "",
          "type": "bytes"
        }
      ],
      "name": "onERC721Received",
      "outputs": [
        {
          "internalType": "bytes4",
          "name": "",
          "type": "bytes4"
        }
      ],
      "stateMutability": "pure",
      "type": "function"
    },
    {
      "inputs": [],
      "name": "owner",
      "outputs": [
        {
          "internalType": "address",
          "name": "",
          "type": "address"
        }
      ],
      "stateMutability": "view",
      "type": "function"
    },
    {
      "inputs": [
        {
          "internalType": "uint256",
          "name": "stateId",
          "type": "uint256"
        },
        {
          "internalType": "address",
          "name": "rootMessageSender",
          "type": "address"
        },
        {
          "internalType": "bytes",
          "name": "data",
          "type": "bytes"
        }
      ],
      "name": "processMessageFromRoot",
      "outputs": [],
      "stateMutability": "nonpayable",
      "type": "function"
    },
    {
      "inputs": [],
      "name": "renounceOwnership",
      "outputs": [],
      "stateMutability": "nonpayable",
      "type": "function"
    },
    {
      "inputs": [
        {
          "internalType": "address",
          "name": "_fxRootTunnel",
          "type": "address"
        }
      ],
      "name": "setFxRootTunnel",
      "outputs": [],
      "stateMutability": "nonpayable",
      "type": "function"
    },
    {
      "inputs": [
        {
          "internalType": "uint8",
          "name": "size",
          "type": "uint8"
        },
        {
          "internalType": "uint32",
          "name": "limit",
          "type": "uint32"
        }
      ],
      "name": "setLimit",
      "outputs": [],
      "stateMutability": "nonpayable",
      "type": "function"
    },
    {
      "inputs": [
        {
          "internalType": "uint256",
          "name": "_maxAllowedQuads",
          "type": "uint256"
        }
      ],
      "name": "setMaxAllowedQuads",
      "outputs": [],
      "stateMutability": "nonpayable",
      "type": "function"
    },
    {
      "inputs": [
        {
          "internalType": "uint32",
          "name": "_maxGasLimit",
          "type": "uint32"
        }
      ],
      "name": "setMaxLimitOnL1",
      "outputs": [],
      "stateMutability": "nonpayable",
      "type": "function"
    },
    {
      "inputs": [
        {
          "internalType": "address",
          "name": "trustedForwarder",
          "type": "address"
        }
      ],
      "name": "setTrustedForwarder",
      "outputs": [],
      "stateMutability": "nonpayable",
      "type": "function"
    },
    {
      "inputs": [
        {
          "internalType": "uint32[5]",
          "name": "limits",
          "type": "uint32[5]"
        }
      ],
      "name": "setupLimits",
      "outputs": [],
      "stateMutability": "nonpayable",
      "type": "function"
    },
    {
      "inputs": [
        {
          "internalType": "bytes4",
          "name": "interfaceId",
          "type": "bytes4"
        }
      ],
      "name": "supportsInterface",
      "outputs": [
        {
          "internalType": "bool",
          "name": "",
          "type": "bool"
        }
      ],
      "stateMutability": "view",
      "type": "function"
    },
    {
      "inputs": [
        {
          "internalType": "address",
          "name": "newOwner",
          "type": "address"
        }
      ],
      "name": "transferOwnership",
      "outputs": [],
      "stateMutability": "nonpayable",
      "type": "function"
    }
  ],
  "transactionHash": "0x815a6f640fcb9ef55d63cec79996fb971016d95c291710a72e7b1c2766cbdeb5",
  "args": [
    "0xCf73231F28B7331BBe3124B907840A94851f9f11",
    "0x461d717b80B8D2a40b7F08Fb18fDa10062A6ddE0",
    "0x9399BB24DBB5C4b782C70c2969F58716Ebbd6a3b",
    500,
    144,
    [
      5,
      10,
      20,
      90,
      340
    ]
  ],
  "solcInputHash": "5ed8b919e665608ed766d8042231c08f",
  "bytecode": "0x60806040523480156200001157600080fd5b5060405162001e9938038062001e998339810160408190526200003491620002be565b600080546001600160a01b0319166001600160a01b0388161781556200005962000111565b600380546001600160a01b0319166001600160a01b038316908117909155604051919250906000907f8be0079c531659141344cd1fd0a4f28419497f9722a3daafe3b4186f6b6457e0908290a350600480546001600160a01b0319166001600160a01b0387161763ffffffff60a01b1916600160a01b63ffffffff8616021790556005829055620000ea816200012e565b600280546001600160a01b0319166001600160a01b038616179055505050505050620003de565b6000620001286200020360201b62000f171760201c565b90505b90565b6200013862000111565b6001600160a01b0316620001546003546001600160a01b031690565b6001600160a01b031614620001af5760405162461bcd60e51b815260206004820181905260248201527f4f776e61626c653a2063616c6c6572206973206e6f7420746865206f776e6572604482015260640160405180910390fd5b620001c460018260005b60200201516200022e565b620001d36003826001620001b9565b620001e26006826002620001b9565b620001f1600c826003620001b9565b620002006018826004620001b9565b50565b6000620002103362000292565b1562000226575060131936013560601c6200012b565b50336200012b565b60ff8216600081815260066020908152604091829020805463ffffffff191663ffffffff86169081179091558251938452908301527ffc6e32fc7effd308d33dfd4879e53051d8b83cb5d4b7826ff3e38473c0e57dd9910160405180910390a15050565b6002546001600160a01b038281169116145b919050565b805163ffffffff81168114620002a457600080fd5b60008060008060008061014080888a031215620002d9578283fd5b8751620002e681620003c8565b80975050602080890151620002fb81620003c8565b60408a01519097506200030e81620003c8565b95506200031e60608a01620002a9565b9450608089015193508960bf8a011262000336578283fd5b60405160a081016001600160401b03811182821017156200035b576200035b620003b2565b6040528060a08b01848c018d101562000372578586fd5b8594505b6005851015620003a0576200038b81620002a9565b82526001949094019390830190830162000376565b50508093505050509295509295509295565b634e487b7160e01b600052604160045260246000fd5b6001600160a01b03811681146200020057600080fd5b611aab80620003ee6000396000f3fe608060405234801561001057600080fd5b50600436106101825760003560e01c8063715018a6116100d8578063ac0007de1161008c578063ee89d41c11610066578063ee89d41c146103be578063f2fde38b146103e6578063fcd7de63146103f957610182565b8063ac0007de14610387578063ce1b815f1461039a578063da742228146103ab57610182565b806388837094116100bd57806388837094146103595780638da5cb5b1461036c5780639a7c4b711461037457610182565b8063715018a61461033e5780637f1e9cb01461034657610182565b806321642b181161013a578063450d11f011610114578063450d11f0146102b85780634b808c46146102e3578063572b6c051461031c57610182565b806321642b181461025757806321f599f21461026a5780633f360a40146102a557610182565b80630f758c051161016b5780630f758c05146101c4578063150b7a02146101db5780631e00b31a1461024457610182565b806301ffc9a7146101875780630e161578146101af575b600080fd5b61019a61019536600461169a565b61040c565b60405190151581526020015b60405180910390f35b6101c26101bd36600461160c565b6104a7565b005b6101cd60055481565b6040519081526020016101a6565b6102136101e9366004611495565b7f150b7a020000000000000000000000000000000000000000000000000000000095945050505050565b6040517fffffffff0000000000000000000000000000000000000000000000000000000090911681526020016101a6565b6101c261025236600461174c565b610565565b6101c2610265366004611780565b610658565b610290610278366004611766565b60066020526000908152604090205463ffffffff1681565b60405163ffffffff90911681526020016101a6565b6101c26102b3366004611506565b6106d5565b6000546102cb906001600160a01b031681565b6040516001600160a01b0390911681526020016101a6565b6102136102f1366004611403565b7f4b808c46000000000000000000000000000000000000000000000000000000009695505050505050565b61019a61032a366004611334565b6002546001600160a01b0390811691161490565b6101c2610a36565b6001546102cb906001600160a01b031681565b6101c2610367366004611334565b610afc565b6102cb610baa565b6101c26103823660046116f2565b610bba565b6004546102cb906001600160a01b031681565b6002546001600160a01b03166102cb565b6101c26103b9366004611334565b610c81565b6004546102909074010000000000000000000000000000000000000000900463ffffffff1681565b6101c26103f4366004611334565b610d1f565b6101c26104073660046116da565b610e73565b60007f5e8bf644000000000000000000000000000000000000000000000000000000007fffffffff000000000000000000000000000000000000000000000000000000008316148061049f57507f01ffc9a7000000000000000000000000000000000000000000000000000000007fffffffff000000000000000000000000000000000000000000000000000000008316145b90505b919050565b6104af610f61565b6001600160a01b03166104c0610baa565b6001600160a01b03161461051b5760405162461bcd60e51b815260206004820181905260248201527f4f776e61626c653a2063616c6c6572206973206e6f7420746865206f776e657260448201526064015b60405180910390fd5b61052e60018260005b6020020151610f70565b61053b6003826001610524565b6105486006826002610524565b610555600c826003610524565b6105626018826004610524565b50565b61056d610f61565b6001600160a01b031661057e610baa565b6001600160a01b0316146105d45760405162461bcd60e51b815260206004820181905260248201527f4f776e61626c653a2063616c6c6572206973206e6f7420746865206f776e65726044820152606401610512565b600480547fffffffffffffffff00000000ffffffffffffffffffffffffffffffffffffffff167401000000000000000000000000000000000000000063ffffffff8416908102919091179091556040519081527f59750b13637aff7a39455c6fb86108b91deab78a6d1046f7bd72cfdfae2f4d90906020015b60405180910390a150565b610660610f61565b6001600160a01b0316610671610baa565b6001600160a01b0316146106c75760405162461bcd60e51b815260206004820181905260248201527f4f776e61626c653a2063616c6c6572206973206e6f7420746865206f776e65726044820152606401610512565b6106d18282610f70565b5050565b85841480156106e357508582145b6107555760405162461bcd60e51b815260206004820152602160248201527f73697a65732c2078732c207973206d7573742062652073616d65206c656e677460448201527f68000000000000000000000000000000000000000000000000000000000000006064820152608401610512565b60008060005b8881101561082c57600660008b8b8481811061078757634e487b7160e01b600052603260045260246000fd5b6020908102929092013560ff16835250810191909152604001600020546107b49063ffffffff16846119a6565b92508989828181106107d657634e487b7160e01b600052603260045260246000fd5b905060200201358a8a838181106107fd57634e487b7160e01b600052603260045260246000fd5b9050602002013561080e91906119ce565b610818908361198e565b91508061082481611a19565b91505061075b565b5060055481111561087f5760405162461bcd60e51b815260206004820152601a60248201527f45786365656473206d617820616c6c6f7765642071756164732e0000000000006044820152606401610512565b60045463ffffffff740100000000000000000000000000000000000000009091048116908316106108f25760405162461bcd60e51b815260206004820152601860248201527f4578636565647320676173206c696d6974206f6e204c312e00000000000000006044820152606401610512565b60005b888110156109f3576004546001600160a01b03166338bb305a610916610f61565b308d8d8681811061093757634e487b7160e01b600052603260045260246000fd5b905060200201358c8c8781811061095e57634e487b7160e01b600052603260045260246000fd5b905060200201358b8b8881811061098557634e487b7160e01b600052603260045260246000fd5b905060200201358a6040518763ffffffff1660e01b81526004016109ae9695949392919061182b565b600060405180830381600087803b1580156109c857600080fd5b505af11580156109dc573d6000803e3d6000fd5b5050505080806109eb90611a19565b9150506108f5565b50610a2a8a8a8a8a8a8a8a8a604051602001610a16989796959493929190611875565b604051602081830303815290604052610fef565b50505050505050505050565b610a3e610f61565b6001600160a01b0316610a4f610baa565b6001600160a01b031614610aa55760405162461bcd60e51b815260206004820181905260248201527f4f776e61626c653a2063616c6c6572206973206e6f7420746865206f776e65726044820152606401610512565b6003546040516000916001600160a01b0316907f8be0079c531659141344cd1fd0a4f28419497f9722a3daafe3b4186f6b6457e0908390a36003805473ffffffffffffffffffffffffffffffffffffffff19169055565b6001546001600160a01b031615610b7b5760405162461bcd60e51b815260206004820152602a60248201527f4678426173654368696c6454756e6e656c3a20524f4f545f54554e4e454c5f4160448201527f4c52454144595f534554000000000000000000000000000000000000000000006064820152608401610512565b6001805473ffffffffffffffffffffffffffffffffffffffff19166001600160a01b0392909216919091179055565b6003546001600160a01b03165b90565b6000546001600160a01b03163314610c3a5760405162461bcd60e51b815260206004820152602160248201527f4678426173654368696c6454756e6e656c3a20494e56414c49445f53454e444560448201527f52000000000000000000000000000000000000000000000000000000000000006064820152608401610512565b610c7b848484848080601f01602080910402602001604051908101604052809392919081815260200183838082843760009201919091525061101e92505050565b50505050565b610c89610f61565b6001600160a01b0316610c9a610baa565b6001600160a01b031614610cf05760405162461bcd60e51b815260206004820181905260248201527f4f776e61626c653a2063616c6c6572206973206e6f7420746865206f776e65726044820152606401610512565b6002805473ffffffffffffffffffffffffffffffffffffffff19166001600160a01b0392909216919091179055565b610d27610f61565b6001600160a01b0316610d38610baa565b6001600160a01b031614610d8e5760405162461bcd60e51b815260206004820181905260248201527f4f776e61626c653a2063616c6c6572206973206e6f7420746865206f776e65726044820152606401610512565b6001600160a01b038116610e0a5760405162461bcd60e51b815260206004820152602660248201527f4f776e61626c653a206e6577206f776e657220697320746865207a65726f206160448201527f64647265737300000000000000000000000000000000000000000000000000006064820152608401610512565b6003546040516001600160a01b038084169216907f8be0079c531659141344cd1fd0a4f28419497f9722a3daafe3b4186f6b6457e090600090a36003805473ffffffffffffffffffffffffffffffffffffffff19166001600160a01b0392909216919091179055565b610e7b610f61565b6001600160a01b0316610e8c610baa565b6001600160a01b031614610ee25760405162461bcd60e51b815260206004820181905260248201527f4f776e61626c653a2063616c6c6572206973206e6f7420746865206f776e65726044820152606401610512565b60058190556040518181527f2413260981e6657b3b5a9bdb6c605515ed4b2326854be5224a428875e5bf8fdd9060200161064d565b6002546000906001600160a01b0316331415610f5a57507fffffffffffffffffffffffffffffffffffffffffffffffffffffffffffffffec36013560601c610bb7565b5033610bb7565b6000610f6b610f17565b905090565b60ff821660008181526006602090815260409182902080547fffffffffffffffffffffffffffffffffffffffffffffffffffffffff000000001663ffffffff86169081179091558251938452908301527ffc6e32fc7effd308d33dfd4879e53051d8b83cb5d4b7826ff3e38473c0e57dd9910160405180910390a15050565b7f8c5261668696ce22758910d05bab8f186d6eb247ceac2af2e82c7dc17669b0368160405161064d9190611922565b60015482906001600160a01b038083169116146110a35760405162461bcd60e51b815260206004820152602b60248201527f4678426173654368696c6454756e6e656c3a20494e56414c49445f53454e444560448201527f525f46524f4d5f524f4f540000000000000000000000000000000000000000006064820152608401610512565b610c7b826000806000806000858060200190518101906110c39190611357565b600480546040517f55064d850000000000000000000000000000000000000000000000000000000081529182018690526024820185905260448201849052959a50939850919650945092506001600160a01b03909116906355064d859060640160206040518083038186803b15801561113b57600080fd5b505afa15801561114f573d6000803e3d6000fd5b505050506040513d601f19601f82011682018060405250810190611173919061167a565b6111fe57600480546040517fb49c99b80000000000000000000000000000000000000000000000000000000081526001600160a01b039091169163b49c99b8916111c79189918991899189918991016118e3565b600060405180830381600087803b1580156111e157600080fd5b505af11580156111f5573d6000803e3d6000fd5b5050505061127e565b600480546040517f38bb305a0000000000000000000000000000000000000000000000000000000081526001600160a01b03909116916338bb305a916112509130918a918a918a918a918a910161182b565b600060405180830381600087803b15801561126a57600080fd5b505af1158015610a2a573d6000803e3d6000fd5b505050505050565b60008083601f840112611297578182fd5b50813567ffffffffffffffff8111156112ae578182fd5b60208301915083602080830285010111156112c857600080fd5b9250929050565b60008083601f8401126112e0578182fd5b50813567ffffffffffffffff8111156112f7578182fd5b6020830191508360208285010111156112c857600080fd5b803563ffffffff811681146104a257600080fd5b803560ff811681146104a257600080fd5b600060208284031215611345578081fd5b813561135081611a60565b9392505050565b600080600080600060a0868803121561136e578081fd5b855161137981611a60565b80955050602086015193506040860151925060608601519150608086015167ffffffffffffffff8111156113ab578182fd5b8601601f810188136113bb578182fd5b80516113ce6113c982611966565b611935565b8181528960208385010111156113e2578384fd5b6113f38260208301602086016119ed565b8093505050509295509295909350565b6000806000806000806080878903121561141b578081fd5b863561142681611a60565b9550602087013561143681611a60565b9450604087013567ffffffffffffffff80821115611452578283fd5b61145e8a838b01611286565b90965094506060890135915080821115611476578283fd5b5061148389828a016112cf565b979a9699509497509295939492505050565b6000806000806000608086880312156114ac578081fd5b85356114b781611a60565b945060208601356114c781611a60565b935060408601359250606086013567ffffffffffffffff8111156114e9578182fd5b6114f5888289016112cf565b969995985093965092949392505050565b60008060008060008060008060a0898b031215611521578182fd5b883561152c81611a60565b9750602089013567ffffffffffffffff80821115611548578384fd5b6115548c838d01611286565b909950975060408b013591508082111561156c578384fd5b6115788c838d01611286565b909750955060608b0135915080821115611590578384fd5b61159c8c838d01611286565b909550935060808b01359150808211156115b4578283fd5b508901601f81018b136115c5578182fd5b80356115d36113c982611966565b8181528c60208385010111156115e7578384fd5b8160208401602083013783602083830101528093505050509295985092959890939650565b600060a0828403121561161d578081fd5b82601f83011261162b578081fd5b61163560a0611935565b80838560a086011115611646578384fd5b835b600581101561166f5761165a8261130f565b84526020938401939190910190600101611648565b509095945050505050565b60006020828403121561168b578081fd5b81518015158114611350578182fd5b6000602082840312156116ab578081fd5b81357fffffffff0000000000000000000000000000000000000000000000000000000081168114611350578182fd5b6000602082840312156116eb578081fd5b5035919050565b60008060008060608587031215611707578182fd5b84359350602085013561171981611a60565b9250604085013567ffffffffffffffff811115611734578283fd5b611740878288016112cf565b95989497509550505050565b60006020828403121561175d578081fd5b6113508261130f565b600060208284031215611777578081fd5b61135082611323565b60008060408385031215611792578182fd5b61179b83611323565b91506117a96020840161130f565b90509250929050565b60008284527f07ffffffffffffffffffffffffffffffffffffffffffffffffffffffffffffff8311156117e3578081fd5b6020830280836020870137939093016020019283525090919050565b600081518084526118178160208601602086016119ed565b601f01601f19169290920160200192915050565b60006001600160a01b03808916835280881660208401525085604083015284606083015283608083015260c060a083015261186960c08301846117ff565b98975050505050505050565b60006001600160a01b038a16825260a0602083015261189860a08301898b6117b2565b82810360408401526118ab81888a6117b2565b905082810360608401526118c08186886117b2565b905082810360808401526118d481856117ff565b9b9a5050505050505050505050565b60006001600160a01b038716825285602083015284604083015283606083015260a0608083015261191760a08301846117ff565b979650505050505050565b60006020825261135060208301846117ff565b604051601f8201601f1916810167ffffffffffffffff8111828210171561195e5761195e611a4a565b604052919050565b600067ffffffffffffffff82111561198057611980611a4a565b50601f01601f191660200190565b600082198211156119a1576119a1611a34565b500190565b600063ffffffff8083168185168083038211156119c5576119c5611a34565b01949350505050565b60008160001904831182151516156119e8576119e8611a34565b500290565b60005b83811015611a085781810151838201526020016119f0565b83811115610c7b5750506000910152565b6000600019821415611a2d57611a2d611a34565b5060010190565b634e487b7160e01b600052601160045260246000fd5b634e487b7160e01b600052604160045260246000fd5b6001600160a01b038116811461056257600080fdfea2646970667358221220f057da63b718883aefebd3130f3cc0b73fda876acb31fe7da67ff5dcccae69f564736f6c63430008020033",
  "devdoc": {
    "kind": "dev",
    "methods": {
      "owner()": {
        "details": "Returns the address of the current owner."
      },
      "renounceOwnership()": {
        "details": "Leaves the contract without owner. It will not be possible to call `onlyOwner` functions anymore. Can only be called by the current owner. NOTE: Renouncing ownership will leave the contract without an owner, thereby removing any functionality that is only available to the owner."
      },
      "setTrustedForwarder(address)": {
        "details": "Change the address of the trusted forwarder for meta-TX",
        "params": {
          "trustedForwarder": "The new trustedForwarder"
        }
      },
      "transferOwnership(address)": {
        "details": "Transfers ownership of the contract to a new account (`newOwner`). Can only be called by the current owner."
      }
    },
    "version": 1
  },
  "userdoc": {
    "kind": "user",
    "methods": {},
    "version": 1
  },
  "storageLayout": {
    "storage": [
      {
        "astId": 5027,
        "contract": "src/solc_0.8/polygon/child/land/PolygonLandTunnel.sol:PolygonLandTunnel",
        "label": "fxChild",
        "offset": 0,
        "slot": "0",
        "type": "t_address"
      },
      {
        "astId": 5029,
        "contract": "src/solc_0.8/polygon/child/land/PolygonLandTunnel.sol:PolygonLandTunnel",
        "label": "fxRootTunnel",
        "offset": 0,
        "slot": "1",
        "type": "t_address"
      },
      {
        "astId": 20711,
        "contract": "src/solc_0.8/polygon/child/land/PolygonLandTunnel.sol:PolygonLandTunnel",
        "label": "_trustedForwarder",
        "offset": 0,
        "slot": "2",
        "type": "t_address"
      },
      {
        "astId": 7,
        "contract": "src/solc_0.8/polygon/child/land/PolygonLandTunnel.sol:PolygonLandTunnel",
        "label": "_owner",
        "offset": 0,
        "slot": "3",
        "type": "t_address"
      },
      {
        "astId": 30235,
        "contract": "src/solc_0.8/polygon/child/land/PolygonLandTunnel.sol:PolygonLandTunnel",
        "label": "childToken",
        "offset": 0,
        "slot": "4",
        "type": "t_contract(IPolygonLand)25028"
      },
      {
        "astId": 30237,
        "contract": "src/solc_0.8/polygon/child/land/PolygonLandTunnel.sol:PolygonLandTunnel",
        "label": "maxGasLimitOnL1",
        "offset": 20,
        "slot": "4",
        "type": "t_uint32"
      },
      {
        "astId": 30239,
        "contract": "src/solc_0.8/polygon/child/land/PolygonLandTunnel.sol:PolygonLandTunnel",
        "label": "maxAllowedQuads",
        "offset": 0,
        "slot": "5",
        "type": "t_uint256"
      },
      {
        "astId": 30243,
        "contract": "src/solc_0.8/polygon/child/land/PolygonLandTunnel.sol:PolygonLandTunnel",
        "label": "gasLimits",
        "offset": 0,
        "slot": "6",
        "type": "t_mapping(t_uint8,t_uint32)"
      }
    ],
    "types": {
      "t_address": {
        "encoding": "inplace",
        "label": "address",
        "numberOfBytes": "20"
      },
      "t_contract(IPolygonLand)25028": {
        "encoding": "inplace",
        "label": "contract IPolygonLand",
        "numberOfBytes": "20"
      },
      "t_mapping(t_uint8,t_uint32)": {
        "encoding": "mapping",
        "key": "t_uint8",
        "label": "mapping(uint8 => uint32)",
        "numberOfBytes": "32",
        "value": "t_uint32"
      },
      "t_uint256": {
        "encoding": "inplace",
        "label": "uint256",
        "numberOfBytes": "32"
      },
      "t_uint32": {
        "encoding": "inplace",
        "label": "uint32",
        "numberOfBytes": "4"
      },
      "t_uint8": {
        "encoding": "inplace",
        "label": "uint8",
        "numberOfBytes": "1"
      }
    }
  }
}