{
  "address": "0x85285d53fc176b1badd6273a60f63ba538062bd3",
  "abi": [
    {
      "inputs": [
        {
          "internalType": "address",
          "name": "_fxChild",
          "type": "address"
        },
        {
          "internalType": "contract IPolygonLand",
          "name": "_childToken",
          "type": "address"
        }
      ],
      "stateMutability": "nonpayable",
      "type": "constructor"
    },
    {
      "anonymous": false,
      "inputs": [
        {
          "indexed": false,
          "internalType": "bytes",
          "name": "message",
          "type": "bytes"
        }
      ],
      "name": "MessageSent",
      "type": "event"
    },
    {
      "anonymous": false,
      "inputs": [
        {
          "indexed": true,
          "internalType": "address",
          "name": "previousOwner",
          "type": "address"
        },
        {
          "indexed": true,
          "internalType": "address",
          "name": "newOwner",
          "type": "address"
        }
      ],
      "name": "OwnershipTransferred",
      "type": "event"
    },
    {
      "anonymous": false,
      "inputs": [
        {
          "indexed": false,
          "internalType": "uint8",
          "name": "size",
          "type": "uint8"
        },
        {
          "indexed": false,
          "internalType": "uint32",
          "name": "limit",
          "type": "uint32"
        }
      ],
      "name": "SetGasLimit",
      "type": "event"
    },
    {
      "anonymous": false,
      "inputs": [
        {
          "indexed": false,
          "internalType": "uint32",
          "name": "maxGasLimit",
          "type": "uint32"
        }
      ],
      "name": "SetMaxGasLimit",
      "type": "event"
    },
    {
      "inputs": [
        {
          "internalType": "address",
          "name": "to",
          "type": "address"
        },
        {
          "internalType": "uint256[]",
          "name": "sizes",
          "type": "uint256[]"
        },
        {
          "internalType": "uint256[]",
          "name": "xs",
          "type": "uint256[]"
        },
        {
          "internalType": "uint256[]",
          "name": "ys",
          "type": "uint256[]"
        },
        {
          "internalType": "bytes",
          "name": "data",
          "type": "bytes"
        }
      ],
      "name": "batchTransferQuadToL1",
      "outputs": [],
      "stateMutability": "nonpayable",
      "type": "function"
    },
    {
      "inputs": [],
      "name": "childToken",
      "outputs": [
        {
          "internalType": "contract IPolygonLand",
          "name": "",
          "type": "address"
        }
      ],
      "stateMutability": "view",
      "type": "function"
    },
    {
      "inputs": [],
      "name": "fxChild",
      "outputs": [
        {
          "internalType": "address",
          "name": "",
          "type": "address"
        }
      ],
      "stateMutability": "view",
      "type": "function"
    },
    {
      "inputs": [],
      "name": "fxRootTunnel",
      "outputs": [
        {
          "internalType": "address",
          "name": "",
          "type": "address"
        }
      ],
      "stateMutability": "view",
      "type": "function"
    },
    {
      "inputs": [
        {
          "internalType": "uint8",
          "name": "",
          "type": "uint8"
        }
      ],
      "name": "gasLimits",
      "outputs": [
        {
          "internalType": "uint32",
          "name": "",
          "type": "uint32"
        }
      ],
      "stateMutability": "view",
      "type": "function"
    },
    {
      "inputs": [],
      "name": "maxGasLimitOnL1",
      "outputs": [
        {
          "internalType": "uint32",
          "name": "",
          "type": "uint32"
        }
      ],
      "stateMutability": "view",
      "type": "function"
    },
    {
      "inputs": [
        {
          "internalType": "address",
          "name": "",
          "type": "address"
        },
        {
          "internalType": "address",
          "name": "",
          "type": "address"
        },
        {
          "internalType": "uint256",
          "name": "",
          "type": "uint256"
        },
        {
          "internalType": "bytes",
          "name": "",
          "type": "bytes"
        }
      ],
      "name": "onERC721Received",
      "outputs": [
        {
          "internalType": "bytes4",
          "name": "",
          "type": "bytes4"
        }
      ],
      "stateMutability": "pure",
      "type": "function"
    },
    {
      "inputs": [],
      "name": "owner",
      "outputs": [
        {
          "internalType": "address",
          "name": "",
          "type": "address"
        }
      ],
      "stateMutability": "view",
      "type": "function"
    },
    {
      "inputs": [
        {
          "internalType": "uint256",
          "name": "stateId",
          "type": "uint256"
        },
        {
          "internalType": "address",
          "name": "rootMessageSender",
          "type": "address"
        },
        {
          "internalType": "bytes",
          "name": "data",
          "type": "bytes"
        }
      ],
      "name": "processMessageFromRoot",
      "outputs": [],
      "stateMutability": "nonpayable",
      "type": "function"
    },
    {
      "inputs": [],
      "name": "renounceOwnership",
      "outputs": [],
      "stateMutability": "nonpayable",
      "type": "function"
    },
    {
      "inputs": [
        {
          "internalType": "address",
          "name": "_fxRootTunnel",
          "type": "address"
        }
      ],
      "name": "setFxRootTunnel",
      "outputs": [],
      "stateMutability": "nonpayable",
      "type": "function"
    },
    {
      "inputs": [
        {
          "internalType": "uint8",
          "name": "size",
          "type": "uint8"
        },
        {
          "internalType": "uint32",
          "name": "limit",
          "type": "uint32"
        }
      ],
      "name": "setLimit",
      "outputs": [],
      "stateMutability": "nonpayable",
      "type": "function"
    },
    {
      "inputs": [
        {
          "internalType": "uint32",
          "name": "_maxGasLimit",
          "type": "uint32"
        }
      ],
      "name": "setMaxLimitOnL1",
      "outputs": [],
      "stateMutability": "nonpayable",
      "type": "function"
    },
    {
      "inputs": [
        {
          "internalType": "uint32[5]",
          "name": "limits",
          "type": "uint32[5]"
        }
      ],
      "name": "setupLimits",
      "outputs": [],
      "stateMutability": "nonpayable",
      "type": "function"
    },
    {
      "inputs": [
        {
          "internalType": "address",
          "name": "newOwner",
          "type": "address"
        }
      ],
      "name": "transferOwnership",
      "outputs": [],
      "stateMutability": "nonpayable",
      "type": "function"
    }
  ],
  "transactionHash": "0x50667990158210f422bf2e9e10512aac81335f8d01f2bea371bd605eaa32d7b0",
  "args": [
    "0xCf73231F28B7331BBe3124B907840A94851f9f11",
    "0x352f995a0b2690892c3A7Af1A7c6F1Edc9abE5F1"
  ],
  "solcInputHash": "b59d7a2a7d0c4ca191743aad748535bf",
  "bytecode": "0x60806040526003805463ffffffff60a01b1916607d60a21b17905534801561002657600080fd5b50604051620015f7380380620015f7833981016040819052610047916100dd565b600080546001600160a01b0319166001600160a01b0384161781556100693390565b600280546001600160a01b0319166001600160a01b038316908117909155604051919250906000907f8be0079c531659141344cd1fd0a4f28419497f9722a3daafe3b4186f6b6457e0908290a350600380546001600160a01b0319166001600160a01b03929092169190911790555061012e565b600080604083850312156100ef578182fd5b82516100fa81610116565b602084015190925061010b81610116565b809150509250929050565b6001600160a01b038116811461012b57600080fd5b50565b6114b9806200013e6000396000f3fe608060405234801561001057600080fd5b50600436106100f55760003560e01c8063715018a6116100975780639a7c4b71116100665780639a7c4b711461025b578063ac0007de1461026e578063ee89d41c14610281578063f2fde38b146102a9576100f5565b8063715018a61461021c5780637f1e9cb01461022457806388837094146102375780638da5cb5b1461024a576100f5565b806321642b18116100d357806321642b181461019057806321f599f2146101a35780633f360a40146101de578063450d11f0146101f1576100f5565b80630e161578146100fa578063150b7a021461010f5780631e00b31a1461017d575b600080fd5b61010d6101083660046110d3565b6102bc565b005b61014761011d366004610f5c565b7f150b7a020000000000000000000000000000000000000000000000000000000095945050505050565b6040517fffffffff0000000000000000000000000000000000000000000000000000000090911681526020015b60405180910390f35b61010d61018b366004611173565b610373565b61010d61019e3660046111a7565b610451565b6101c96101b136600461118d565b60046020526000908152604090205463ffffffff1681565b60405163ffffffff9091168152602001610174565b61010d6101ec366004610fcd565b6104b9565b600054610204906001600160a01b031681565b6040516001600160a01b039091168152602001610174565b61010d61075a565b600154610204906001600160a01b031681565b61010d610245366004610e8d565b61080b565b6002546001600160a01b0316610204565b61010d610269366004611119565b6108b9565b600354610204906001600160a01b031681565b6003546101c99074010000000000000000000000000000000000000000900463ffffffff1681565b61010d6102b7366004610e8d565b610980565b6002546001600160a01b0316331461031b5760405162461bcd60e51b815260206004820181905260248201527f4f776e61626c653a2063616c6c6572206973206e6f7420746865206f776e657260448201526064015b60405180910390fd5b61033c60018260005b6020020160208101906103379190611173565b610abf565b6103496003826001610324565b6103566006826002610324565b610363600c826003610324565b6103706018826004610324565b50565b6002546001600160a01b031633146103cd5760405162461bcd60e51b815260206004820181905260248201527f4f776e61626c653a2063616c6c6572206973206e6f7420746865206f776e65726044820152606401610312565b600380547fffffffffffffffff00000000ffffffffffffffffffffffffffffffffffffffff167401000000000000000000000000000000000000000063ffffffff8416908102919091179091556040519081527f59750b13637aff7a39455c6fb86108b91deab78a6d1046f7bd72cfdfae2f4d90906020015b60405180910390a150565b6002546001600160a01b031633146104ab5760405162461bcd60e51b815260206004820181905260248201527f4f776e61626c653a2063616c6c6572206973206e6f7420746865206f776e65726044820152606401610312565b6104b58282610abf565b5050565b85841480156104c757508582145b6105395760405162461bcd60e51b815260206004820152602160248201527f73697a65732c2078732c207973206d7573742062652073616d65206c656e677460448201527f68000000000000000000000000000000000000000000000000000000000000006064820152608401610312565b6000805b878110156105aa57600460008a8a8481811061056957634e487b7160e01b600052603260045260246000fd5b6020908102929092013560ff16835250810191909152604001600020546105969063ffffffff16836113b5565b9150806105a281611409565b91505061053d565b5060035463ffffffff7401000000000000000000000000000000000000000090910481169082161061061e5760405162461bcd60e51b815260206004820152601860248201527f4578636565647320676173206c696d6974206f6e204c312e00000000000000006044820152606401610312565b60005b87811015610718576003546001600160a01b03166338bb305a33308c8c8681811061065c57634e487b7160e01b600052603260045260246000fd5b905060200201358b8b8781811061068357634e487b7160e01b600052603260045260246000fd5b905060200201358a8a888181106106aa57634e487b7160e01b600052603260045260246000fd5b90506020020135896040518763ffffffff1660e01b81526004016106d396959493929190611252565b600060405180830381600087803b1580156106ed57600080fd5b505af1158015610701573d6000803e3d6000fd5b50505050808061071090611409565b915050610621565b5061074f898989898989898960405160200161073b98979695949392919061129c565b604051602081830303815290604052610b3e565b505050505050505050565b6002546001600160a01b031633146107b45760405162461bcd60e51b815260206004820181905260248201527f4f776e61626c653a2063616c6c6572206973206e6f7420746865206f776e65726044820152606401610312565b6002546040516000916001600160a01b0316907f8be0079c531659141344cd1fd0a4f28419497f9722a3daafe3b4186f6b6457e0908390a36002805473ffffffffffffffffffffffffffffffffffffffff19169055565b6001546001600160a01b03161561088a5760405162461bcd60e51b815260206004820152602a60248201527f4678426173654368696c6454756e6e656c3a20524f4f545f54554e4e454c5f4160448201527f4c52454144595f534554000000000000000000000000000000000000000000006064820152608401610312565b6001805473ffffffffffffffffffffffffffffffffffffffff19166001600160a01b0392909216919091179055565b6000546001600160a01b031633146109395760405162461bcd60e51b815260206004820152602160248201527f4678426173654368696c6454756e6e656c3a20494e56414c49445f53454e444560448201527f52000000000000000000000000000000000000000000000000000000000000006064820152608401610312565b61097a848484848080601f016020809104026020016040519081016040528093929190818152602001838380828437600092019190915250610b6d92505050565b50505050565b6002546001600160a01b031633146109da5760405162461bcd60e51b815260206004820181905260248201527f4f776e61626c653a2063616c6c6572206973206e6f7420746865206f776e65726044820152606401610312565b6001600160a01b038116610a565760405162461bcd60e51b815260206004820152602660248201527f4f776e61626c653a206e6577206f776e657220697320746865207a65726f206160448201527f64647265737300000000000000000000000000000000000000000000000000006064820152608401610312565b6002546040516001600160a01b038084169216907f8be0079c531659141344cd1fd0a4f28419497f9722a3daafe3b4186f6b6457e090600090a36002805473ffffffffffffffffffffffffffffffffffffffff19166001600160a01b0392909216919091179055565b60ff821660008181526004602090815260409182902080547fffffffffffffffffffffffffffffffffffffffffffffffffffffffff000000001663ffffffff86169081179091558251938452908301527ffc6e32fc7effd308d33dfd4879e53051d8b83cb5d4b7826ff3e38473c0e57dd9910160405180910390a15050565b7f8c5261668696ce22758910d05bab8f186d6eb247ceac2af2e82c7dc17669b036816040516104469190611349565b60015482906001600160a01b03808316911614610bf25760405162461bcd60e51b815260206004820152602b60248201527f4678426173654368696c6454756e6e656c3a20494e56414c49445f53454e444560448201527f525f46524f4d5f524f4f540000000000000000000000000000000000000000006064820152608401610312565b61097a82600080600080600085806020019051810190610c129190610eb0565b6003546040517f55064d85000000000000000000000000000000000000000000000000000000008152600481018690526024810185905260448101849052959a50939850919650945092506001600160a01b0316906355064d859060640160206040518083038186803b158015610c8857600080fd5b505afa158015610c9c573d6000803e3d6000fd5b505050506040513d601f19601f82011682018060405250810190610cc091906110f9565b610d4c576003546040517fb49c99b80000000000000000000000000000000000000000000000000000000081526001600160a01b039091169063b49c99b890610d15908890889088908890889060040161130a565b600060405180830381600087803b158015610d2f57600080fd5b505af1158015610d43573d6000803e3d6000fd5b50505050610dd2565b6003546040517f38bb305a0000000000000000000000000000000000000000000000000000000081526001600160a01b03909116906338bb305a90610d9f90309089908990899089908990600401611252565b600060405180830381600087803b158015610db957600080fd5b505af1158015610dcd573d6000803e3d6000fd5b505050505b505050505050565b60008083601f840112610deb578182fd5b50813567ffffffffffffffff811115610e02578182fd5b6020830191508360208083028501011115610e1c57600080fd5b9250929050565b60008083601f840112610e34578182fd5b50813567ffffffffffffffff811115610e4b578182fd5b602083019150836020828501011115610e1c57600080fd5b803563ffffffff81168114610e7757600080fd5b919050565b803560ff81168114610e7757600080fd5b600060208284031215610e9e578081fd5b8135610ea98161146e565b9392505050565b600080600080600060a08688031215610ec7578081fd5b8551610ed28161146e565b80955050602086015193506040860151925060608601519150608086015167ffffffffffffffff811115610f04578182fd5b8601601f81018813610f14578182fd5b8051610f27610f228261138d565b61135c565b818152896020838501011115610f3b578384fd5b610f4c8260208301602086016113dd565b8093505050509295509295909350565b600080600080600060808688031215610f73578081fd5b8535610f7e8161146e565b94506020860135610f8e8161146e565b935060408601359250606086013567ffffffffffffffff811115610fb0578182fd5b610fbc88828901610e23565b969995985093965092949392505050565b60008060008060008060008060a0898b031215610fe8578283fd5b8835610ff38161146e565b9750602089013567ffffffffffffffff8082111561100f578485fd5b61101b8c838d01610dda565b909950975060408b0135915080821115611033578485fd5b61103f8c838d01610dda565b909750955060608b0135915080821115611057578485fd5b6110638c838d01610dda565b909550935060808b013591508082111561107b578283fd5b508901601f81018b1361108c578182fd5b803561109a610f228261138d565b8181528c60208385010111156110ae578384fd5b8160208401602083013783602083830101528093505050509295985092959890939650565b600060a082840312156110e4578081fd5b8260a0830111156110f3578081fd5b50919050565b60006020828403121561110a578081fd5b81518015158114610ea9578182fd5b6000806000806060858703121561112e578384fd5b8435935060208501356111408161146e565b9250604085013567ffffffffffffffff81111561115b578283fd5b61116787828801610e23565b95989497509550505050565b600060208284031215611184578081fd5b610ea982610e63565b60006020828403121561119e578081fd5b610ea982610e7c565b600080604083850312156111b9578182fd5b6111c283610e7c565b91506111d060208401610e63565b90509250929050565b60008284527f07ffffffffffffffffffffffffffffffffffffffffffffffffffffffffffffff83111561120a578081fd5b6020830280836020870137939093016020019283525090919050565b6000815180845261123e8160208601602086016113dd565b601f01601f19169290920160200192915050565b60006001600160a01b03808916835280881660208401525085604083015284606083015283608083015260c060a083015261129060c0830184611226565b98975050505050505050565b60006001600160a01b038a16825260a060208301526112bf60a08301898b6111d9565b82810360408401526112d281888a6111d9565b905082810360608401526112e78186886111d9565b905082810360808401526112fb8185611226565b9b9a5050505050505050505050565b60006001600160a01b038716825285602083015284604083015283606083015260a0608083015261133e60a0830184611226565b979650505050505050565b600060208252610ea96020830184611226565b604051601f8201601f1916810167ffffffffffffffff8111828210171561138557611385611458565b604052919050565b600067ffffffffffffffff8211156113a7576113a7611458565b50601f01601f191660200190565b600063ffffffff8083168185168083038211156113d4576113d4611442565b01949350505050565b60005b838110156113f85781810151838201526020016113e0565b8381111561097a5750506000910152565b60007fffffffffffffffffffffffffffffffffffffffffffffffffffffffffffffffff82141561143b5761143b611442565b5060010190565b634e487b7160e01b600052601160045260246000fd5b634e487b7160e01b600052604160045260246000fd5b6001600160a01b038116811461037057600080fdfea2646970667358221220abd73cddec1bd215d7f4fe1e46ef93529f3e6d710157b03e3d6028b7cca7401764736f6c63430008020033",
  "devdoc": {
    "kind": "dev",
    "methods": {
      "owner()": {
        "details": "Returns the address of the current owner."
      },
      "renounceOwnership()": {
        "details": "Leaves the contract without owner. It will not be possible to call `onlyOwner` functions anymore. Can only be called by the current owner. NOTE: Renouncing ownership will leave the contract without an owner, thereby removing any functionality that is only available to the owner."
      },
      "transferOwnership(address)": {
        "details": "Transfers ownership of the contract to a new account (`newOwner`). Can only be called by the current owner."
      }
    },
    "version": 1
  },
  "userdoc": {
    "kind": "user",
    "methods": {},
    "version": 1
  },
  "storageLayout": {
    "storage": [
      {
        "astId": 4911,
        "contract": "src/solc_0.8/polygon/child/land/PolygonLandTunnel.sol:PolygonLandTunnel",
        "label": "fxChild",
        "offset": 0,
        "slot": "0",
        "type": "t_address"
      },
      {
        "astId": 4913,
        "contract": "src/solc_0.8/polygon/child/land/PolygonLandTunnel.sol:PolygonLandTunnel",
        "label": "fxRootTunnel",
        "offset": 0,
        "slot": "1",
        "type": "t_address"
      },
      {
        "astId": 7,
        "contract": "src/solc_0.8/polygon/child/land/PolygonLandTunnel.sol:PolygonLandTunnel",
        "label": "_owner",
        "offset": 0,
        "slot": "2",
        "type": "t_address"
      },
      {
        "astId": 30205,
        "contract": "src/solc_0.8/polygon/child/land/PolygonLandTunnel.sol:PolygonLandTunnel",
        "label": "childToken",
        "offset": 0,
        "slot": "3",
        "type": "t_contract(IPolygonLand)24912"
      },
      {
        "astId": 30208,
        "contract": "src/solc_0.8/polygon/child/land/PolygonLandTunnel.sol:PolygonLandTunnel",
        "label": "maxGasLimitOnL1",
        "offset": 20,
        "slot": "3",
        "type": "t_uint32"
      },
      {
        "astId": 30212,
        "contract": "src/solc_0.8/polygon/child/land/PolygonLandTunnel.sol:PolygonLandTunnel",
        "label": "gasLimits",
        "offset": 0,
        "slot": "4",
        "type": "t_mapping(t_uint8,t_uint32)"
      }
    ],
    "types": {
      "t_address": {
        "encoding": "inplace",
        "label": "address",
        "numberOfBytes": "20"
      },
      "t_contract(IPolygonLand)24912": {
        "encoding": "inplace",
        "label": "contract IPolygonLand",
        "numberOfBytes": "20"
      },
      "t_mapping(t_uint8,t_uint32)": {
        "encoding": "mapping",
        "key": "t_uint8",
        "label": "mapping(uint8 => uint32)",
        "numberOfBytes": "32",
        "value": "t_uint32"
      },
      "t_uint32": {
        "encoding": "inplace",
        "label": "uint32",
        "numberOfBytes": "4"
      },
      "t_uint8": {
        "encoding": "inplace",
        "label": "uint8",
        "numberOfBytes": "1"
      }
    }
  }
}