{
  "address": "0xFe782BC43f56fd4e92C71DAFdfDaB1Dc9418EBa6",
  "abi": [
    {
      "anonymous": false,
      "inputs": [
        {
          "indexed": false,
          "internalType": "address",
          "name": "oldAdmin",
          "type": "address"
        },
        {
          "indexed": false,
          "internalType": "address",
          "name": "newAdmin",
          "type": "address"
        }
      ],
      "name": "AdminChanged",
      "type": "event"
    },
    {
      "anonymous": false,
      "inputs": [
        {
          "indexed": true,
          "internalType": "address",
          "name": "account",
          "type": "address"
        },
        {
          "indexed": true,
          "internalType": "address",
          "name": "operator",
          "type": "address"
        },
        {
          "indexed": false,
          "internalType": "bool",
          "name": "approved",
          "type": "bool"
        }
      ],
      "name": "ApprovalForAll",
      "type": "event"
    },
    {
      "anonymous": false,
      "inputs": [
        {
          "indexed": false,
          "internalType": "address",
          "name": "bouncer",
          "type": "address"
        },
        {
          "indexed": false,
          "internalType": "bool",
          "name": "enabled",
          "type": "bool"
        }
      ],
      "name": "Bouncer",
      "type": "event"
    },
    {
      "anonymous": false,
      "inputs": [
        {
          "indexed": false,
          "internalType": "address",
          "name": "oldBouncerAdmin",
          "type": "address"
        },
        {
          "indexed": false,
          "internalType": "address",
          "name": "newBouncerAdmin",
          "type": "address"
        }
      ],
      "name": "BouncerAdminChanged",
      "type": "event"
    },
    {
      "anonymous": false,
      "inputs": [
        {
          "indexed": false,
          "internalType": "address",
          "name": "superOperator",
          "type": "address"
        },
        {
          "indexed": false,
          "internalType": "bool",
          "name": "enabled",
          "type": "bool"
        }
      ],
      "name": "SuperOperator",
      "type": "event"
    },
    {
      "anonymous": false,
      "inputs": [
        {
          "indexed": true,
          "internalType": "address",
          "name": "operator",
          "type": "address"
        },
        {
          "indexed": true,
          "internalType": "address",
          "name": "from",
          "type": "address"
        },
        {
          "indexed": true,
          "internalType": "address",
          "name": "to",
          "type": "address"
        },
        {
          "indexed": false,
          "internalType": "uint256[]",
          "name": "ids",
          "type": "uint256[]"
        },
        {
          "indexed": false,
          "internalType": "uint256[]",
          "name": "values",
          "type": "uint256[]"
        }
      ],
      "name": "TransferBatch",
      "type": "event"
    },
    {
      "anonymous": false,
      "inputs": [
        {
          "indexed": true,
          "internalType": "address",
          "name": "operator",
          "type": "address"
        },
        {
          "indexed": true,
          "internalType": "address",
          "name": "from",
          "type": "address"
        },
        {
          "indexed": true,
          "internalType": "address",
          "name": "to",
          "type": "address"
        },
        {
          "indexed": false,
          "internalType": "uint256",
          "name": "id",
          "type": "uint256"
        },
        {
          "indexed": false,
          "internalType": "uint256",
          "name": "value",
          "type": "uint256"
        }
      ],
      "name": "TransferSingle",
      "type": "event"
    },
    {
      "anonymous": false,
      "inputs": [
        {
          "indexed": false,
          "internalType": "string",
          "name": "value",
          "type": "string"
        },
        {
          "indexed": true,
          "internalType": "uint256",
          "name": "id",
          "type": "uint256"
        }
      ],
      "name": "URI",
      "type": "event"
    },
    {
      "inputs": [],
      "name": "_childChainManager",
      "outputs": [
        {
          "internalType": "address",
          "name": "",
          "type": "address"
        }
      ],
      "stateMutability": "view",
      "type": "function"
    },
    {
      "inputs": [
        {
          "internalType": "address",
          "name": "owner",
          "type": "address"
        },
        {
          "internalType": "uint256",
          "name": "id",
          "type": "uint256"
        }
      ],
      "name": "balanceOf",
      "outputs": [
        {
          "internalType": "uint256",
          "name": "",
          "type": "uint256"
        }
      ],
      "stateMutability": "view",
      "type": "function"
    },
    {
      "inputs": [
        {
          "internalType": "address[]",
          "name": "owners",
          "type": "address[]"
        },
        {
          "internalType": "uint256[]",
          "name": "ids",
          "type": "uint256[]"
        }
      ],
      "name": "balanceOfBatch",
      "outputs": [
        {
          "internalType": "uint256[]",
          "name": "",
          "type": "uint256[]"
        }
      ],
      "stateMutability": "view",
      "type": "function"
    },
    {
      "inputs": [
        {
          "internalType": "address",
          "name": "from",
          "type": "address"
        },
        {
          "internalType": "uint256",
          "name": "id",
          "type": "uint256"
        },
        {
          "internalType": "uint256",
          "name": "amount",
          "type": "uint256"
        }
      ],
      "name": "burnFrom",
      "outputs": [],
      "stateMutability": "nonpayable",
      "type": "function"
    },
    {
      "inputs": [
        {
          "internalType": "address",
          "name": "newAdmin",
          "type": "address"
        }
      ],
      "name": "changeAdmin",
      "outputs": [],
      "stateMutability": "nonpayable",
      "type": "function"
    },
    {
      "inputs": [
        {
          "internalType": "address",
          "name": "newBouncerAdmin",
          "type": "address"
        }
      ],
      "name": "changeBouncerAdmin",
      "outputs": [],
      "stateMutability": "nonpayable",
      "type": "function"
    },
    {
      "inputs": [
        {
          "internalType": "uint256",
          "name": "id",
          "type": "uint256"
        }
      ],
      "name": "collectionIndexOf",
      "outputs": [
        {
          "internalType": "uint256",
          "name": "",
          "type": "uint256"
        }
      ],
      "stateMutability": "view",
      "type": "function"
    },
    {
      "inputs": [
        {
          "internalType": "uint256",
          "name": "id",
          "type": "uint256"
        }
      ],
      "name": "collectionOf",
      "outputs": [
        {
          "internalType": "uint256",
          "name": "",
          "type": "uint256"
        }
      ],
      "stateMutability": "view",
      "type": "function"
    },
    {
      "inputs": [
        {
          "internalType": "address",
          "name": "user",
          "type": "address"
        },
        {
          "internalType": "bytes",
          "name": "depositData",
          "type": "bytes"
        }
      ],
      "name": "deposit",
      "outputs": [],
      "stateMutability": "nonpayable",
      "type": "function"
    },
    {
      "inputs": [],
      "name": "getAdmin",
      "outputs": [
        {
          "internalType": "address",
          "name": "",
          "type": "address"
        }
      ],
      "stateMutability": "view",
      "type": "function"
    },
    {
      "inputs": [],
      "name": "getBouncerAdmin",
      "outputs": [
        {
          "internalType": "address",
          "name": "",
          "type": "address"
        }
      ],
      "stateMutability": "view",
      "type": "function"
    },
    {
      "inputs": [],
      "name": "getTrustedForwarder",
      "outputs": [
        {
          "internalType": "address",
          "name": "",
          "type": "address"
        }
      ],
      "stateMutability": "view",
      "type": "function"
    },
    {
      "inputs": [
        {
          "internalType": "address",
          "name": "trustedForwarder",
          "type": "address"
        },
        {
          "internalType": "address",
          "name": "admin",
          "type": "address"
        },
        {
          "internalType": "address",
          "name": "bouncerAdmin",
          "type": "address"
        },
        {
          "internalType": "uint8",
          "name": "chainIndex",
          "type": "uint8"
        }
      ],
      "name": "init",
      "outputs": [],
      "stateMutability": "nonpayable",
      "type": "function"
    },
    {
      "inputs": [
        {
          "internalType": "address",
          "name": "trustedForwarder",
          "type": "address"
        },
        {
          "internalType": "address",
          "name": "admin",
          "type": "address"
        },
        {
          "internalType": "address",
          "name": "bouncerAdmin",
          "type": "address"
        },
        {
          "internalType": "address",
          "name": "childChainManager",
          "type": "address"
        },
        {
          "internalType": "uint8",
          "name": "chainIndex",
          "type": "uint8"
        }
      ],
      "name": "initialize",
      "outputs": [],
      "stateMutability": "nonpayable",
      "type": "function"
    },
    {
      "inputs": [
        {
          "internalType": "address",
          "name": "owner",
          "type": "address"
        },
        {
          "internalType": "address",
          "name": "operator",
          "type": "address"
        }
      ],
      "name": "isApprovedForAll",
      "outputs": [
        {
          "internalType": "bool",
          "name": "isOperator",
          "type": "bool"
        }
      ],
      "stateMutability": "view",
      "type": "function"
    },
    {
      "inputs": [
        {
          "internalType": "address",
          "name": "who",
          "type": "address"
        }
      ],
      "name": "isBouncer",
      "outputs": [
        {
          "internalType": "bool",
          "name": "",
          "type": "bool"
        }
      ],
      "stateMutability": "view",
      "type": "function"
    },
    {
      "inputs": [
        {
          "internalType": "uint256",
          "name": "id",
          "type": "uint256"
        }
      ],
      "name": "isCollection",
      "outputs": [
        {
          "internalType": "bool",
          "name": "",
          "type": "bool"
        }
      ],
      "stateMutability": "view",
      "type": "function"
    },
    {
      "inputs": [
        {
          "internalType": "address",
          "name": "who",
          "type": "address"
        }
      ],
      "name": "isSuperOperator",
      "outputs": [
        {
          "internalType": "bool",
          "name": "",
          "type": "bool"
        }
      ],
      "stateMutability": "view",
      "type": "function"
    },
    {
      "inputs": [
        {
          "internalType": "address",
          "name": "forwarder",
          "type": "address"
        }
      ],
      "name": "isTrustedForwarder",
      "outputs": [
        {
          "internalType": "bool",
          "name": "",
          "type": "bool"
        }
      ],
      "stateMutability": "view",
      "type": "function"
    },
    {
      "inputs": [
        {
          "internalType": "address",
          "name": "creator",
          "type": "address"
        },
        {
          "internalType": "uint40",
          "name": "packId",
          "type": "uint40"
        },
        {
          "internalType": "bytes32",
          "name": "hash",
          "type": "bytes32"
        },
        {
          "internalType": "uint256",
          "name": "supply",
          "type": "uint256"
        },
        {
          "internalType": "uint8",
          "name": "rarity",
          "type": "uint8"
        },
        {
          "internalType": "address",
          "name": "owner",
          "type": "address"
        },
        {
          "internalType": "bytes",
          "name": "data",
          "type": "bytes"
        }
      ],
      "name": "mint",
      "outputs": [
        {
          "internalType": "uint256",
          "name": "id",
          "type": "uint256"
        }
      ],
      "stateMutability": "nonpayable",
      "type": "function"
    },
    {
      "inputs": [
        {
          "internalType": "address",
          "name": "creator",
          "type": "address"
        },
        {
          "internalType": "uint40",
          "name": "packId",
          "type": "uint40"
        },
        {
          "internalType": "bytes32",
          "name": "hash",
          "type": "bytes32"
        },
        {
          "internalType": "uint256[]",
          "name": "supplies",
          "type": "uint256[]"
        },
        {
          "internalType": "bytes",
          "name": "rarityPack",
          "type": "bytes"
        },
        {
          "internalType": "address",
          "name": "owner",
          "type": "address"
        },
        {
          "internalType": "bytes",
          "name": "data",
          "type": "bytes"
        }
      ],
      "name": "mintMultiple",
      "outputs": [
        {
          "internalType": "uint256[]",
          "name": "ids",
          "type": "uint256[]"
        }
      ],
      "stateMutability": "nonpayable",
      "type": "function"
    },
    {
      "inputs": [],
      "name": "name",
      "outputs": [
        {
          "internalType": "string",
          "name": "_name",
          "type": "string"
        }
      ],
      "stateMutability": "pure",
      "type": "function"
    },
    {
      "inputs": [
        {
          "internalType": "address",
          "name": "sender",
          "type": "address"
        },
        {
          "internalType": "uint256",
          "name": "id",
          "type": "uint256"
        },
        {
          "internalType": "address",
          "name": "to",
          "type": "address"
        }
      ],
      "name": "prepareForExtract",
      "outputs": [
        {
          "internalType": "uint256",
          "name": "newId",
          "type": "uint256"
        },
        {
          "internalType": "string",
          "name": "metaData",
          "type": "string"
        }
      ],
      "stateMutability": "nonpayable",
      "type": "function"
    },
    {
      "inputs": [
        {
          "internalType": "address",
          "name": "from",
          "type": "address"
        },
        {
          "internalType": "address",
          "name": "to",
          "type": "address"
        },
        {
          "internalType": "uint256[]",
          "name": "ids",
          "type": "uint256[]"
        },
        {
          "internalType": "uint256[]",
          "name": "values",
          "type": "uint256[]"
        },
        {
          "internalType": "bytes",
          "name": "data",
          "type": "bytes"
        }
      ],
      "name": "safeBatchTransferFrom",
      "outputs": [],
      "stateMutability": "nonpayable",
      "type": "function"
    },
    {
      "inputs": [
        {
          "internalType": "address",
          "name": "from",
          "type": "address"
        },
        {
          "internalType": "address",
          "name": "to",
          "type": "address"
        },
        {
          "internalType": "uint256",
          "name": "id",
          "type": "uint256"
        },
        {
          "internalType": "uint256",
          "name": "value",
          "type": "uint256"
        },
        {
          "internalType": "bytes",
          "name": "data",
          "type": "bytes"
        }
      ],
      "name": "safeTransferFrom",
      "outputs": [],
      "stateMutability": "nonpayable",
      "type": "function"
    },
    {
      "inputs": [
        {
          "internalType": "address",
          "name": "operator",
          "type": "address"
        },
        {
          "internalType": "bool",
          "name": "approved",
          "type": "bool"
        }
      ],
      "name": "setApprovalForAll",
      "outputs": [],
      "stateMutability": "nonpayable",
      "type": "function"
    },
    {
      "inputs": [
        {
          "internalType": "address",
          "name": "sender",
          "type": "address"
        },
        {
          "internalType": "address",
          "name": "operator",
          "type": "address"
        },
        {
          "internalType": "bool",
          "name": "approved",
          "type": "bool"
        }
      ],
      "name": "setApprovalForAllFor",
      "outputs": [],
      "stateMutability": "nonpayable",
      "type": "function"
    },
    {
      "inputs": [
        {
          "internalType": "address",
          "name": "bouncer",
          "type": "address"
        },
        {
          "internalType": "bool",
          "name": "enabled",
          "type": "bool"
        }
      ],
      "name": "setBouncer",
      "outputs": [],
      "stateMutability": "nonpayable",
      "type": "function"
    },
    {
      "inputs": [
        {
          "internalType": "address",
          "name": "superOperator",
          "type": "address"
        },
        {
          "internalType": "bool",
          "name": "enabled",
          "type": "bool"
        }
      ],
      "name": "setSuperOperator",
      "outputs": [],
      "stateMutability": "nonpayable",
      "type": "function"
    },
    {
      "inputs": [
        {
          "internalType": "bytes4",
          "name": "id",
          "type": "bytes4"
        }
      ],
      "name": "supportsInterface",
      "outputs": [
        {
          "internalType": "bool",
          "name": "",
          "type": "bool"
        }
      ],
      "stateMutability": "pure",
      "type": "function"
    },
    {
      "inputs": [],
      "name": "symbol",
      "outputs": [
        {
          "internalType": "string",
          "name": "_symbol",
          "type": "string"
        }
      ],
      "stateMutability": "pure",
      "type": "function"
    },
    {
      "inputs": [
        {
          "internalType": "uint256",
          "name": "id",
          "type": "uint256"
        }
      ],
      "name": "tokenURI",
      "outputs": [
        {
          "internalType": "string",
          "name": "",
          "type": "string"
        }
      ],
      "stateMutability": "view",
      "type": "function"
    },
    {
      "inputs": [
        {
          "internalType": "uint256",
          "name": "id",
          "type": "uint256"
        }
      ],
      "name": "wasEverMinted",
      "outputs": [
        {
          "internalType": "bool",
          "name": "",
          "type": "bool"
        }
      ],
      "stateMutability": "view",
      "type": "function"
    },
    {
      "inputs": [
        {
          "internalType": "uint256[]",
          "name": "ids",
          "type": "uint256[]"
        },
        {
          "internalType": "uint256[]",
          "name": "amounts",
          "type": "uint256[]"
        }
      ],
      "name": "withdrawBatch",
      "outputs": [],
      "stateMutability": "nonpayable",
      "type": "function"
    },
    {
      "inputs": [
        {
          "internalType": "uint256",
          "name": "id",
          "type": "uint256"
        },
        {
          "internalType": "uint256",
          "name": "amount",
          "type": "uint256"
        }
      ],
      "name": "withdrawSingle",
      "outputs": [],
      "stateMutability": "nonpayable",
      "type": "function"
    },
    {
      "inputs": [
        {
          "internalType": "uint256",
          "name": "",
          "type": "uint256"
        }
      ],
      "name": "withdrawnTokens",
      "outputs": [
        {
          "internalType": "bool",
          "name": "",
          "type": "bool"
        }
      ],
      "stateMutability": "view",
      "type": "function"
    }
  ],
  "transactionHash": "0xab53436423848d4075c8c5e9b026d991956e1b0d870ad2e91c60bdea860cc400",
  "args": [],
  "numDeployments": 1,
  "solcInputHash": "65f5e19c10bd1cac2517886950f4389d",
  "bytecode": "0x608060405234801561001057600080fd5b5061457c806100206000396000f3fe608060405234801561001057600080fd5b506004361061025a5760003560e01c806395d89b4111610145578063c87b56dd116100bd578063d402756e1161008c578063eeb5a5d111610071578063eeb5a5d1146105bb578063f0bc00d8146105ce578063f242432a146105e15761025a565b8063d402756e14610577578063e985e9c5146105a85761025a565b8063c87b56dd1461051f578063cc0f8b5d14610532578063ce1b815f14610553578063cf2c52cb146105645761025a565b8063ac9fe42111610114578063bd9ff41b116100f9578063bd9ff41b146104e6578063c50a4eb9146104f9578063c7778baa1461050c5761025a565b8063ac9fe421146104c0578063b9b75ebc146104d35761025a565b806395d89b41146104505780639bc88b9c14610489578063a0ea837c1461049a578063a22cb465146104ad5761025a565b80632eb2c2d6116101d8578063572b6c05116101a7578063654b748a1161018c578063654b748a146104005780636e9960c31461042c5780638f2839701461043d5761025a565b8063572b6c05146103cb5780635c5fb521146103ed5761025a565b80632eb2c2d6146103415780634c4d07e7146103545780634e1273f41461038057806353a8eccd146103a05761025a565b806306fdde031161022f578063124d91e511610214578063124d91e5146103085780632262f53f1461031b5780632e712b461461032e5761025a565b806306fdde03146102d057806307a974fc146102e55761025a565b80628c26761461025f578062fdd58e1461027457806301ffc9a71461029a578063049476df146102bd575b600080fd5b61027261026d366004613956565b6105f4565b005b610287610282366004613bf6565b610633565b6040519081526020015b60405180910390f35b6102ad6102a8366004613f0a565b6106eb565b6040519015158152602001610291565b6102726102cb36600461390a565b6107be565b6102d861091a565b604051610291919061418c565b6102ad6102f3366004613fac565b60266020526000908152604090205460ff1681565b610272610316366004613c51565b610952565b610272610329366004613fc4565b6109dc565b61028761033c366004613fac565b6109f2565b61027261034f366004613a0d565b610a0b565b6102ad61036236600461390a565b6001600160a01b03166000908152600b602052604090205460ff1690565b61039361038e366004613ddd565b610d1c565b6040516102919190614154565b6025546103b3906001600160a01b031681565b6040516001600160a01b039091168152602001610291565b6102ad6103d936600461390a565b6010546001600160a01b0390811691161490565b6102726103fb366004613ddd565b610e78565b6102ad61040e36600461390a565b6001600160a01b031660009081526001602052604090205460ff1690565b6000546001600160a01b03166103b3565b61027261044b36600461390a565b610ef3565b60408051808201909152600c81527f415353455445524331313535000000000000000000000000000000000000000060208201526102d8565b600d546001600160a01b03166103b3565b6102726104a83660046139ba565b610fc3565b6102726104bb366004613b7c565b611066565b6102726104ce366004613b7c565b611078565b6102726104e1366004613b7c565b61115c565b6102ad6104f4366004613fac565b611222565b610287610507366004613d5a565b61125c565b61028761051a366004613fac565b611407565b6102d861052d366004613fac565b6114f5565b610545610540366004613c1f565b611632565b60405161029192919061419f565b6010546001600160a01b03166103b3565b610272610572366004613ba5565b611799565b6102ad610585366004613fac565b6bffffffff80000000000007ff1916600090815260076020526040902054151590565b6102ad6105b6366004613924565b61183f565b6102726105c9366004613ac4565b61193d565b6103936105dc366004613c83565b6119e0565b6102726105ef366004613b06565b611bb2565b61060085858584610fc3565b506025805473ffffffffffffffffffffffffffffffffffffffff19166001600160a01b0392909216919091179055505050565b6bffffffff80000000000007ff1981166000908152600760205260408120546106a35760405162461bcd60e51b815260206004820152601660248201527f746f6b656e20776173206e65766572206d696e7465640000000000000000000060448201526064015b60405180910390fd5b6000806106af84611d0f565b6001600160a01b038716600090815260046020908152604080832085845290915290205491935091506106e29082611d3a565b95945050505050565b60007f01ffc9a7000000000000000000000000000000000000000000000000000000006001600160e01b03198316148061074e57507fd9b67a26000000000000000000000000000000000000000000000000000000006001600160e01b03198316145b8061078257507f0e89341c000000000000000000000000000000000000000000000000000000006001600160e01b03198316145b806107b657507f9930ed5a000000000000000000000000000000000000000000000000000000006001600160e01b03198316145b90505b919050565b600d546001600160a01b03166107d2611d7f565b6001600160a01b0316146108285760405162461bcd60e51b815260206004820152600e60248201527f21424f554e4345525f41444d494e000000000000000000000000000000000000604482015260640161069a565b6001600160a01b0381166108a45760405162461bcd60e51b815260206004820152603960248201527f417373657442617365455243313135353a206e657720626f756e63657220616460448201527f6d696e2063616e2774206265207a65726f206164647265737300000000000000606482015260840161069a565b600d54604080516001600160a01b03928316815291831660208301527f1bab6ababbec5519512e9ee16964953ec0f72839126138285cac1f1136bd642e910160405180910390a1600d805473ffffffffffffffffffffffffffffffffffffffff19166001600160a01b0392909216919091179055565b60408051808201909152601881527f53616e64626f782773204153534554732045524331313535000000000000000060208201525b90565b61095a611d7f565b6001600160a01b0316836001600160a01b031614806109805750610980836105b6611d7f565b6109cc5760405162461bcd60e51b815260206004820152600b60248201527f21415554484f52495a4544000000000000000000000000000000000000000000604482015260640161069a565b6109d7838383611dc9565b505050565b6109ee6109e7611d7f565b8383611dc9565b5050565b60006109fd82611407565b5050603f1c63ffffffff1690565b848314610a5a5760405162461bcd60e51b815260206004820152601260248201527f4d49534d4154434845445f4152525f4c454e0000000000000000000000000000604482015260640161069a565b6001600160a01b038716610a985760405162461bcd60e51b81526020600482015260056024820152640544f3d3d360dc1b604482015260640161069a565b6001600160a01b038816610aee5760405162461bcd60e51b815260206004820152600760248201527f46524f4d3d3d3000000000000000000000000000000000000000000000000000604482015260640161069a565b6010546001600160a01b031633146000610b06611d7f565b6001600160a01b03168a6001600160a01b03161480610b2c5750610b2c8a6105b6611d7f565b9050610b9f8a8a8a8a8080602002602001604051908101604052809392919081815260200183836020028082843760009201919091525050604080516020808e0282810182019093528d82529093508d92508c918291850190849080828437600092019190915250889250611eab915050565b886001600160a01b03168a6001600160a01b031683610bc557610bc0611d7f565b610bc7565b8b5b6001600160a01b03167f4a39dc06d4c0dbc64b70af90fd698a233a518aa5d07e595d983b8c0526c8f7fb8b8b8b8b604051610c05949392919061412d565b60405180910390a4610cc482610c2257610c1d611d7f565b610c24565b8a5b8b8b8b8b8080602002602001604051908101604052809392919081815260200183836020028082843760009201919091525050604080516020808f0282810182019093528e82529093508e92508d91829185019084908082843760009201919091525050604080516020601f8e018190048102820181019092528c815292508c91508b908190840183828082843760009201919091525061221592505050565b610d105760405162461bcd60e51b815260206004820152601660248201527f313135355f5452414e534645525f52454a454354454400000000000000000000604482015260640161069a565b50505050505050505050565b6060838214610d6d5760405162461bcd60e51b815260206004820152601360248201527f4152475f4c454e4754485f4d49534d4154434800000000000000000000000000604482015260640161069a565b60008267ffffffffffffffff811115610d9657634e487b7160e01b600052604160045260246000fd5b604051908082528060200260200182016040528015610dbf578160200160208202803683370190505b50905060005b83811015610e6e57610e31878783818110610df057634e487b7160e01b600052603260045260246000fd5b9050602002016020810190610e05919061390a565b868684818110610e2557634e487b7160e01b600052603260045260246000fd5b90506020020135610633565b828281518110610e5157634e487b7160e01b600052603260045260246000fd5b602090810291909101015280610e66816144bc565b915050610dc5565b5095945050505050565b610eed610e83611d7f565b8585808060200260200160405190810160405280939291908181526020018383602002808284376000920191909152505060408051602080890282810182019093528882529093508892508791829185019084908082843760009201919091525061230a92505050565b50505050565b6000546001600160a01b03163314610f4d5760405162461bcd60e51b815260206004820152601360248201527f41444d494e5f4143434553535f44454e49454400000000000000000000000000604482015260640161069a565b600054604080516001600160a01b03928316815291831660208301527f7e644d79422f17c01e4894b5f4f588d331ebfa28653d42ae832dc59e38c9798f910160405180910390a16000805473ffffffffffffffffffffffffffffffffffffffff19166001600160a01b0392909216919091179055565b610fcd60016124c7565b600080546001600160a01b0385811673ffffffffffffffffffffffffffffffffffffffff1992831617909255600d80548584169083161790556010805492871692909116919091179055600f805460ff90921674010000000000000000000000000000000000000000027fffffffffffffffffffffff00ffffffffffffffffffffffffffffffffffffffff909216919091179055505050565b6109ee611071611d7f565b8383612532565b6000546001600160a01b031633146110f85760405162461bcd60e51b815260206004820152602c60248201527f6f6e6c792061646d696e20697320616c6c6f77656420746f206164642073757060448201527f6572206f70657261746f72730000000000000000000000000000000000000000606482015260840161069a565b6001600160a01b038216600081815260016020908152604091829020805460ff19168515159081179091558251938452908301527f44f92d27abdf4cfb6a7d712c3af68f3be086d4ca747ab802c36f67d6790060d891015b60405180910390a15050565b600d546001600160a01b0316611170611d7f565b6001600160a01b0316146111c65760405162461bcd60e51b815260206004820152600e60248201527f21424f554e4345525f41444d494e000000000000000000000000000000000000604482015260640161069a565b6001600160a01b0382166000818152600b6020908152604091829020805460ff19168515159081179091558251938452908301527f5ecd928ac22825e06273a3e8db8118dd7fe11bd2637ecfe4bfa25154948bd85f9101611150565b6bffffffff80000000000007ff1981166000908152600760205260408120546bffffffff80000000000000001983169015155b9392505050565b6000866112ab5760405162461bcd60e51b815260206004820152600760248201527f484153483d3d3000000000000000000000000000000000000000000000000000604482015260640161069a565b6112b6610362611d7f565b6112ed5760405162461bcd60e51b815260206004820152600860248201526710a127aaa721a2a960c11b604482015260640161069a565b6001600160a01b03841661132b5760405162461bcd60e51b81526020600482015260056024820152640544f3d3d360dc1b604482015260640161069a565b61134d89878a89600114611340576001611343565b60005b60ff166000612716565b60008181526026602052604090205490915060ff16156113af5760405162461bcd60e51b815260206004820152601a60248201527f544f4b454e5f4558495354535f4f4e5f524f4f545f434841494e000000000000604482015260640161069a565b6113fb8787876113bd611d7f565b888689898080601f01602080910402602001604051908101604052809392919081815260200183838082843760009201829052509250612871915050565b98975050505050505050565b6bffffffff80000000000007ff1981166000908152600760205260408120546114725760405162461bcd60e51b815260206004820152600a60248201527f46545f214d494e54454400000000000000000000000000000000000000000000604482015260640161069a565b6bffffffff80000000000000001982166114a9816bffffffff80000000000007ff1916600090815260076020526040902054151590565b6107b65760405162461bcd60e51b815260206004820152601360248201527f554e4d494e5445445f434f4c4c454354494f4e00000000000000000000000000604482015260640161069a565b606061151e826bffffffff80000000000007ff1916600090815260076020526040902054151590565b61156a5760405162461bcd60e51b815260206004820152600a60248201527f46545f214d494e54454400000000000000000000000000000000000000000000604482015260640161069a565b6bffffffff80000000000007ff198216600090815260076020526040908190205490517f55f43cd400000000000000000000000000000000000000000000000000000000815260048101919091526024810183905273e4f7b32dd6Cf3DA22783E3dAe21baa6CcB1BEdb7906355f43cd49060440160006040518083038186803b1580156115f657600080fd5b505af415801561160a573d6000803e3d6000fd5b505050506040513d6000823e601f3d908101601f191682016040526107b69190810190613f42565b336000908152600b602052604081205460609060ff1661167f5760405162461bcd60e51b815260206004820152600860248201526710a127aaa721a2a960c11b604482015260640161069a565b6116898385610633565b6001146116da5760405162461bcd60e51b815260040161069a9060208082526004908201527f214e465400000000000000000000000000000000000000000000000000000000604082015260600190565b60008481526009602052604090205463ffffffff166116f8856114f5565b9150611706603f60026142d0565b6117169063ffffffff83166143b1565b61172c6b8000000000000000000000008761423f565b611736919061423f565b9250611743816001614257565b600086815260096020526040902080547fffffffffffffffffffffffffffffffffffffffffffffffffffffffff000000001663ffffffff92909216919091179055611790868660016129ff565b50935093915050565b6001600160a01b0383166118155760405162461bcd60e51b815260206004820152602960248201527f506f6c79676f6e4173736574455243313135353a20214348494c445f4348414960448201527f4e5f4d414e414745520000000000000000000000000000000000000000000000606482015260840161069a565b6000808061182584860186613e46565b92509250925061183786848484612a7a565b505050505050565b60006001600160a01b0383166118975760405162461bcd60e51b815260206004820152600860248201527f4f574e45523d3d30000000000000000000000000000000000000000000000000604482015260640161069a565b6001600160a01b0382166118ed5760405162461bcd60e51b815260206004820152600b60248201527f4f50455241544f523d3d30000000000000000000000000000000000000000000604482015260640161069a565b6001600160a01b0380841660009081526005602090815260408083209386168352929052205460ff16806112555750506001600160a01b031660009081526001602052604090205460ff16919050565b611945611d7f565b6001600160a01b0316836001600160a01b0316148061198957506001600061196b611d7f565b6001600160a01b0316815260208101919091526040016000205460ff165b6119d55760405162461bcd60e51b815260206004820152600b60248201527f21415554484f52495a4544000000000000000000000000000000000000000000604482015260640161069a565b6109d7838383612532565b606088611a2f5760405162461bcd60e51b815260206004820152600760248201527f484153483d3d3000000000000000000000000000000000000000000000000000604482015260640161069a565b611a3a610362611d7f565b611a715760405162461bcd60e51b815260206004820152600860248201526710a127aaa721a2a960c11b604482015260640161069a565b6001600160a01b038416611aaf5760405162461bcd60e51b81526020600482015260056024820152640544f3d3d360dc1b604482015260640161069a565b611b308b89898080602002602001604051908101604052809392919081815260200183836020028082843760009201919091525050604080516020601f8d018190048102820181019092528b815292508b91508a9081908401838280828437600081840152601f19601f820116905080830192505050505050508d8d612ac3565b9050611ba484828a8a8080602002602001604051908101604052809392919081815260200183836020028082843760009201919091525050604080516020601f8b018190048102820181019092528981529250899150889081908401838280828437600092019190915250612a7a92505050565b9a9950505050505050505050565b6001600160a01b038516611bf05760405162461bcd60e51b81526020600482015260056024820152640544f3d3d360dc1b604482015260640161069a565b6001600160a01b038616611c465760405162461bcd60e51b815260206004820152600760248201527f46524f4d3d3d3000000000000000000000000000000000000000000000000000604482015260640161069a565b6000611c5487878787612cc9565b90508015611d0657601054611cba906001600160a01b03163314611c785733611c7a565b875b8888888888888080601f016020809104026020016040519081016040528093929190818152602001838380828437600092019190915250612e8292505050565b611d065760405162461bcd60e51b815260206004820152601660248201527f313135355f5452414e534645525f52454a454354454400000000000000000000604482015260640161069a565b50505050505050565b60008061010060208402049150611d296020610100614276565b611d3390846144d7565b9050915091565b600080611d4d600164010000000061441c565b90506000611d5c84600161423f565b611d679060206143b1565b611d739061010061441c565b9490941c169392505050565b6010546000906001600160a01b0316331415611dc257507fffffffffffffffffffffffffffffffffffffffffffffffffffffffffffffffec36013560601c61094f565b503361094f565b600081118015611df057506001611de2602060026142df565b611dec919061441c565b8111155b611e3c5760405162461bcd60e51b815260206004820152600e60248201527f494e56414c49445f414d4f554e54000000000000000000000000000000000000604482015260640161069a565b611e478383836129ff565b60006001600160a01b038416611e5b611d7f565b6001600160a01b03167fc3d58168c5ae7397731d063d5bbf3d657854427343f4c083240f7aacaa2d0f628585604051611e9e929190918252602082015260400190565b60405180910390a4505050565b825160008080808086611f005760405162461bcd60e51b815260206004820152600e60248201527f4f50455241544f525f2141555448000000000000000000000000000000000000604482015260640161069a565b60005b868110156121a5578a6001600160a01b03168c6001600160a01b03161415611f8357611f7e8c8b8381518110611f4957634e487b7160e01b600052603260045260246000fd5b60200260200101518b8481518110611f7157634e487b7160e01b600052603260045260246000fd5b6020026020010151612f52565b612193565b6000898281518110611fa557634e487b7160e01b600052603260045260246000fd5b6020026020010151111561219357611fe38a8281518110611fd657634e487b7160e01b600052603260045260246000fd5b6020026020010151611d0f565b9096509450816120b1576001600160a01b038c166000908152600460209081526040808320898452909152902054895187935061204c919087908c908590811061203d57634e487b7160e01b600052603260045260246000fd5b60200260200101516001612fe1565b6001600160a01b038c1660009081526004602090815260408083208a84529091529020548a519195506120aa9187908c908590811061209b57634e487b7160e01b600052603260045260246000fd5b60200260200101516000612fe1565b9250612193565b818614612110576001600160a01b038c8116600090815260046020818152604080842087855280835281852099909955938f16835290815282822094825284815282822095909555878152948452808520549290935291909220549084905b61214f858a838151811061213457634e487b7160e01b600052603260045260246000fd5b6020026020010151600187612fe1909392919063ffffffff16565b9350612190858a838151811061217557634e487b7160e01b600052603260045260246000fd5b6020026020010151600086612fe1909392919063ffffffff16565b92505b8061219d816144bc565b915050611f03565b5084158015906121c75750896001600160a01b03168b6001600160a01b031614155b15612208576001600160a01b03808c1660009081526004602081815260408084208a85528252808420889055938e1683529081528282208883529052208290555b5050505050505050505050565b60006001600160a01b0385163b61222e57506001612300565b6040517fbc197c810000000000000000000000000000000000000000000000000000000081526000906001600160a01b0387169063bc197c819061227e908b908b908a908a908a90600401614098565b602060405180830381600087803b15801561229857600080fd5b505af11580156122ac573d6000803e3d6000fd5b505050506040513d601f19601f820116820180604052508101906122d09190613f26565b6001600160e01b0319167fbc197c8100000000000000000000000000000000000000000000000000000000149150505b9695505050505050565b6010546000906001600160a01b0316331461232c57612327611d7f565b61232e565b835b905060005b835181101561246857600083828151811061235e57634e487b7160e01b600052603260045260246000fd5b60200260200101511180156123b15750600161237c602060026142df565b612386919061441c565b8382815181106123a657634e487b7160e01b600052603260045260246000fd5b602002602001015111155b6123fd5760405162461bcd60e51b815260206004820152600e60248201527f494e56414c49445f414d4f554e54000000000000000000000000000000000000604482015260640161069a565b6124568585838151811061242157634e487b7160e01b600052603260045260246000fd5b602002602001015185848151811061244957634e487b7160e01b600052603260045260246000fd5b60200260200101516129ff565b80612460816144bc565b915050612333565b5060006001600160a01b0316846001600160a01b0316826001600160a01b03167f4a39dc06d4c0dbc64b70af90fd698a233a518aa5d07e595d983b8c0526c8f7fb86866040516124b9929190614167565b60405180910390a450505050565b600181600e54901c16600114156125205760405162461bcd60e51b815260206004820152601360248201527f414c52454144595f494e495449414c4953454400000000000000000000000000604482015260640161069a565b806001901b600e5417600e8190555050565b6001600160a01b0383166125885760405162461bcd60e51b815260206004820152600960248201527f53454e4445523d3d300000000000000000000000000000000000000000000000604482015260640161069a565b816001600160a01b0316836001600160a01b031614156125ea5760405162461bcd60e51b815260206004820152601060248201527f53454e4445523d3d4f50455241544f5200000000000000000000000000000000604482015260640161069a565b6001600160a01b0382166126405760405162461bcd60e51b815260206004820152600b60248201527f4f50455241544f523d3d30000000000000000000000000000000000000000000604482015260640161069a565b6001600160a01b03821660009081526001602052604090205460ff16156126a95760405162461bcd60e51b815260206004820152601b60248201527f415050525f4558495354494e475f53555045524f50455241544f520000000000604482015260640161069a565b6001600160a01b03838116600081815260056020908152604080832094871680845294825291829020805460ff191686151590811790915591519182527f17307eab39ab6107e8899845ad3d59bd9653f200f220920489ca2b5937696c31910160405180910390a3505050565b6000808511801561273e57506001612730602060026142df565b61273a919061441c565b8511155b61278a5760405162461bcd60e51b815260206004820152601460248201527f535550504c595f4f55545f4f465f424f554e4453000000000000000000000000604482015260640161069a565b61ffff821661279b600b60026142df565b6127a99061ffff86166143b1565b6127b5601760026142df565b6127c69064ffffffffff88166143b1565b6127d2603f60026142df565b600f546127fa919074010000000000000000000000000000000000000000900460ff166143b1565b88600114612809576000612820565b612815605f60026142df565b6128209060016143b1565b61282c606060026142df565b61283f906001600160a01b038d166143b1565b612849919061423f565b612853919061423f565b61285d919061423f565b612867919061423f565b612300919061423f565b6bffffffff80000000000007ff198316816129e757600081815260076020526040902054156128e25760405162461bcd60e51b815260206004820152600860248201527f49445f54414b454e000000000000000000000000000000000000000000000000604482015260640161069a565b6000818152600760205260409020899055600460ff8816106129465760405162461bcd60e51b815260206004820152600960248201527f5241524954593e3d340000000000000000000000000000000000000000000000604482015260640161069a565b6040805160018082528183019092526000916020820181803683370190505090506129728860406143d0565b60f81b8160008151811061299657634e487b7160e01b600052603260045260246000fd5b60200101907effffffffffffffffffffffffffffffffffffffffffffffffffffffffffffff1916908160001a905350600082815260086020908152604090912082516129e492840190613719565b50505b6129f48686868b8761316f565b505050505050505050565b600080612a0b84611d0f565b6001600160a01b03871660009081526004602090815260408083208584529091529020549193509150612a4b908263ffffffff80871690600190612fe116565b6001600160a01b0390951660009081526004602090815260408083209483529390529190912093909355505050565b60005b82518161ffff161015612aa857612a9681848787613271565b612aa1600882614219565b9050612a7d565b612abc612ab3611d7f565b868686866133a0565b5050505050565b60606000855111612b165760405162461bcd60e51b815260206004820152600b60248201527f535550504c4945533c3d30000000000000000000000000000000000000000000604482015260640161069a565b612b22600b60026142df565b85511115612b725760405162461bcd60e51b815260206004820152600d60248201527f42415443485f544f4f5f42494700000000000000000000000000000000000000604482015260640161069a565b612b7d868685613453565b9050600760006bffffffff80000000000007ff1983600081518110612bb257634e487b7160e01b600052603260045260246000fd5b60200260200101511681526020019081526020016000205460001c600014612c1c5760405162461bcd60e51b815260206004820152600860248201527f49445f54414b454e000000000000000000000000000000000000000000000000604482015260640161069a565b81600760006bffffffff80000000000007ff1984600081518110612c5057634e487b7160e01b600052603260045260246000fd5b60200260200101511681526020019081526020016000208190555083600860006bffffffff80000000000007ff1984600081518110612c9f57634e487b7160e01b600052603260045260246000fd5b60200260200101511681526020019081526020016000209080519060200190610e6e929190613719565b600080612cd4611d7f565b90506000816001600160a01b0316876001600160a01b03161480612cfd5750612cfd878361183f565b905080612d4c5760405162461bcd60e51b815260206004820152600e60248201527f4f50455241544f525f2141555448000000000000000000000000000000000000604482015260640161069a565b8315612e0857600080612d5e87611d0f565b6001600160a01b038b1660009081526004602090815260408083208584529091529020549193509150612d949082886001612fe1565b6001600160a01b03808b166000908152600460208181526040808420888552825280842095909555928c168252825282812085825290915290812054612ddd9183908990612fe1565b6001600160a01b03891660009081526004602090815260408083209583529490529290922091909155505b6010546001600160a01b038088169189821691163314612e285783612e2a565b885b6001600160a01b03167fc3d58168c5ae7397731d063d5bbf3d657854427343f4c083240f7aacaa2d0f628888604051612e6d929190918252602082015260400190565b60405180910390a45060019695505050505050565b60006001600160a01b0385163b612e9b57506001612300565b6040517ff23a6e6100000000000000000000000000000000000000000000000000000000808252906001600160a01b0387169063f23a6e6190612eea908b908b908a908a908a906004016140ea565b602060405180830381600087803b158015612f0457600080fd5b505af1158015612f18573d6000803e3d6000fd5b505050506040513d601f19601f82011682018060405250810190612f3c9190613f26565b6001600160e01b03191614979650505050505050565b600080612f5e84611d0f565b6001600160a01b038716600090815260046020908152604080832085845290915290205491935091508390612f939083611d3a565b1015612abc5760405162461bcd60e51b815260206004820152600f60248201527f42414c414e43455f544f4f5f4c4f570000000000000000000000000000000000604482015260640161069a565b6000808083600281111561300557634e487b7160e01b600052602160045260246000fd5b1415613032576130158686611d3a565b905061302b8686613026878561423f565b613649565b9150613166565b600183600281111561305457634e487b7160e01b600052602160045260246000fd5b14156130eb576130648686611d3a565b9050838110156130dc5760405162461bcd60e51b815260206004820152602260248201527f63616e277420737562737472616374206d6f7265207468616e2074686572652060448201527f6973000000000000000000000000000000000000000000000000000000000000606482015260840161069a565b61302b8686613026878561441c565b600283600281111561310d57634e487b7160e01b600052602160045260246000fd5b141561311e5761302b868686613649565b60405162461bcd60e51b815260206004820152601160248201527f496e76616c6964206f7065726174696f6e000000000000000000000000000000604482015260640161069a565b50949350505050565b60008061317b85611d0f565b6001600160a01b038816600090815260046020908152604080832085845290915290205491935091506131b19082866002612fe1565b6001600160a01b03878116600081815260046020908152604080832088845282528083209590955584518a8152908101899052919390928b16917fc3d58168c5ae7397731d063d5bbf3d657854427343f4c083240f7aacaa2d0f62910160405180910390a461322587600088888888612e82565b611d065760405162461bcd60e51b815260206004820152601160248201527f5452414e534645525f52454a4543544544000000000000000000000000000000604482015260640161069a565b60008061329b838761ffff1681518110611fd657634e487b7160e01b600052603260045260246000fd5b9150915060005b6008811080156132bf575085516132bd8261ffff8a1661423f565b105b15611d065760006132d48261ffff8a1661423f565b905060008782815181106132f857634e487b7160e01b600052603260045260246000fd5b6020026020010151111561338d57613368613313838561423f565b88838151811061333357634e487b7160e01b600052603260045260246000fd5b6020908102919091018101516001600160a01b038a1660009081526004835260408082208a8352909352918220549291612fe1565b6001600160a01b03871660009081526004602090815260408083208884529091529020555b5080613398816144bc565b9150506132a2565b836001600160a01b031660006001600160a01b0316866001600160a01b03167f4a39dc06d4c0dbc64b70af90fd698a233a518aa5d07e595d983b8c0526c8f7fb86866040516133f0929190614167565b60405180910390a461340785600086868686612215565b612abc5760405162461bcd60e51b815260206004820152601160248201527f5452414e534645525f52454a4543544544000000000000000000000000000000604482015260640161069a565b8151606090600061ffff821667ffffffffffffffff81111561348557634e487b7160e01b600052604160045260246000fd5b6040519080825280602002602001820160405280156134ae578160200160208202803683370190505b5090506000805b8361ffff168161ffff1610156135a15761ffff821661351457868161ffff16815181106134f257634e487b7160e01b600052603260045260246000fd5b60200260200101516001141561350f5761350c81856143f9565b91505b61358f565b868161ffff168151811061353857634e487b7160e01b600052603260045260246000fd5b602002602001015160011461358f5760405162461bcd60e51b815260206004820152601160248201527f4e4654535f4d5553545f42455f4c415354000000000000000000000000000000604482015260640161069a565b806135998161449a565b9150506134b5565b5060006135ae82856143f9565b905060005b8461ffff168161ffff16101561363c576135fb89898361ffff16815181106135eb57634e487b7160e01b600052603260045260246000fd5b6020026020010151898585612716565b848261ffff168151811061361f57634e487b7160e01b600052603260045260246000fd5b6020908102919091010152806136348161449a565b9150506135b3565b5091979650505050505050565b6000613657602060026142d0565b82106136cb5760405162461bcd60e51b815260206004820152602360248201527f416d6f756e7420746f20777269746520696e2062696e20697320746f6f206c6160448201527f7267650000000000000000000000000000000000000000000000000000000000606482015260840161069a565b60006136dd600164010000000061441c565b905060006136ec85600161423f565b6136f79060206143b1565b6137039061010061441c565b91821b199590951692901b919091179392505050565b8280546137259061445f565b90600052602060002090601f016020900481019282613747576000855561378d565b82601f1061376057805160ff191683800117855561378d565b8280016001018555821561378d579182015b8281111561378d578251825591602001919060010190613772565b5061379992915061379d565b5090565b5b80821115613799576000815560010161379e565b80356001600160a01b03811681146107b957600080fd5b60008083601f8401126137da578182fd5b50813567ffffffffffffffff8111156137f1578182fd5b602083019150836020808302850101111561380b57600080fd5b9250929050565b600082601f830112613822578081fd5b8135602067ffffffffffffffff82111561383e5761383e614517565b80820261384c8282016141c0565b838152828101908684018388018501891015613866578687fd5b8693505b8584101561388857803583526001939093019291840191840161386a565b50979650505050505050565b803580151581146107b957600080fd5b60008083601f8401126138b5578182fd5b50813567ffffffffffffffff8111156138cc578182fd5b60208301915083602082850101111561380b57600080fd5b803564ffffffffff811681146107b957600080fd5b803560ff811681146107b957600080fd5b60006020828403121561391b578081fd5b611255826137b2565b60008060408385031215613936578081fd5b61393f836137b2565b915061394d602084016137b2565b90509250929050565b600080600080600060a0868803121561396d578081fd5b613976866137b2565b9450613984602087016137b2565b9350613992604087016137b2565b92506139a0606087016137b2565b91506139ae608087016138f9565b90509295509295909350565b600080600080608085870312156139cf578384fd5b6139d8856137b2565b93506139e6602086016137b2565b92506139f4604086016137b2565b9150613a02606086016138f9565b905092959194509250565b60008060008060008060008060a0898b031215613a28578283fd5b613a31896137b2565b9750613a3f60208a016137b2565b9650604089013567ffffffffffffffff80821115613a5b578485fd5b613a678c838d016137c9565b909850965060608b0135915080821115613a7f578485fd5b613a8b8c838d016137c9565b909650945060808b0135915080821115613aa3578384fd5b50613ab08b828c016138a4565b999c989b5096995094979396929594505050565b600080600060608486031215613ad8578283fd5b613ae1846137b2565b9250613aef602085016137b2565b9150613afd60408501613894565b90509250925092565b60008060008060008060a08789031215613b1e578384fd5b613b27876137b2565b9550613b35602088016137b2565b94506040870135935060608701359250608087013567ffffffffffffffff811115613b5e578283fd5b613b6a89828a016138a4565b979a9699509497509295939492505050565b60008060408385031215613b8e578182fd5b613b97836137b2565b915061394d60208401613894565b600080600060408486031215613bb9578081fd5b613bc2846137b2565b9250602084013567ffffffffffffffff811115613bdd578182fd5b613be9868287016138a4565b9497909650939450505050565b60008060408385031215613c08578182fd5b613c11836137b2565b946020939093013593505050565b600080600060608486031215613c33578081fd5b613c3c846137b2565b925060208401359150613afd604085016137b2565b600080600060608486031215613c65578081fd5b613c6e846137b2565b95602085013595506040909401359392505050565b60008060008060008060008060008060e08b8d031215613ca1578384fd5b613caa8b6137b2565b9950613cb860208c016138e4565b985060408b0135975060608b013567ffffffffffffffff80821115613cdb578586fd5b613ce78e838f016137c9565b909950975060808d0135915080821115613cff578586fd5b613d0b8e838f016138a4565b9097509550859150613d1f60a08e016137b2565b945060c08d0135915080821115613d34578384fd5b50613d418d828e016138a4565b915080935050809150509295989b9194979a5092959850565b60008060008060008060008060e0898b031215613d75578182fd5b613d7e896137b2565b9750613d8c60208a016138e4565b96506040890135955060608901359450613da860808a016138f9565b9350613db660a08a016137b2565b925060c089013567ffffffffffffffff811115613dd1578283fd5b613ab08b828c016138a4565b60008060008060408587031215613df2578182fd5b843567ffffffffffffffff80821115613e09578384fd5b613e15888389016137c9565b90965094506020870135915080821115613e2d578384fd5b50613e3a878288016137c9565b95989497509550505050565b600080600060608486031215613e5a578081fd5b833567ffffffffffffffff80821115613e71578283fd5b613e7d87838801613812565b94506020860135915080821115613e92578283fd5b613e9e87838801613812565b93506040860135915080821115613eb3578283fd5b508401601f81018613613ec4578182fd5b8035613ed7613ed2826141f1565b6141c0565b818152876020838501011115613eeb578384fd5b8160208401602083013783602083830101528093505050509250925092565b600060208284031215613f1b578081fd5b81356112558161452d565b600060208284031215613f37578081fd5b81516112558161452d565b600060208284031215613f53578081fd5b815167ffffffffffffffff811115613f69578182fd5b8201601f81018413613f79578182fd5b8051613f87613ed2826141f1565b818152856020838501011115613f9b578384fd5b6106e2826020830160208601614433565b600060208284031215613fbd578081fd5b5035919050565b60008060408385031215613fd6578182fd5b50508035926020909101359150565b60008284527f07ffffffffffffffffffffffffffffffffffffffffffffffffffffffffffffff831115614016578081fd5b6020830280836020870137939093016020019283525090919050565b6000815180845260208085019450808401835b8381101561406157815187529582019590820190600101614045565b509495945050505050565b60008151808452614084816020860160208601614433565b601f01601f19169290920160200192915050565b60006001600160a01b03808816835280871660208401525060a060408301526140c460a0830186614032565b82810360608401526140d68186614032565b905082810360808401526113fb818561406c565b60006001600160a01b03808816835280871660208401525084604083015283606083015260a0608083015261412260a083018461406c565b979650505050505050565b600060408252614141604083018688613fe5565b8281036020840152614122818587613fe5565b6000602082526112556020830184614032565b60006040825261417a6040830185614032565b82810360208401526106e28185614032565b600060208252611255602083018461406c565b6000838252604060208301526141b8604083018461406c565b949350505050565b604051601f8201601f1916810167ffffffffffffffff811182821017156141e9576141e9614517565b604052919050565b600067ffffffffffffffff82111561420b5761420b614517565b50601f01601f191660200190565b600061ffff808316818516808303821115614236576142366144eb565b01949350505050565b60008219821115614252576142526144eb565b500190565b600063ffffffff808316818516808303821115614236576142366144eb565b60008261428557614285614501565b500490565b80825b600180861161429c57506142c7565b8187048211156142ae576142ae6144eb565b808616156142bb57918102915b9490941c93800261428d565b94509492505050565b600061125560001984846142ed565b600061125560001960ff8516845b6000826142fc57506001611255565b8161430957506000611255565b816001811461431f576002811461432957614356565b6001915050611255565b60ff84111561433a5761433a6144eb565b6001841b915084821115614350576143506144eb565b50611255565b5060208310610133831016604e8410600b8410161715614389575081810a83811115614384576143846144eb565b611255565b614396848484600161428a565b8086048211156143a8576143a86144eb565b02949350505050565b60008160001904831182151516156143cb576143cb6144eb565b500290565b600060ff821660ff84168160ff04811182151516156143f1576143f16144eb565b029392505050565b600061ffff83811690831681811015614414576144146144eb565b039392505050565b60008282101561442e5761442e6144eb565b500390565b60005b8381101561444e578181015183820152602001614436565b83811115610eed5750506000910152565b60028104600182168061447357607f821691505b6020821081141561449457634e487b7160e01b600052602260045260246000fd5b50919050565b600061ffff808316818114156144b2576144b26144eb565b6001019392505050565b60006000198214156144d0576144d06144eb565b5060010190565b6000826144e6576144e6614501565b500690565b634e487b7160e01b600052601160045260246000fd5b634e487b7160e01b600052601260045260246000fd5b634e487b7160e01b600052604160045260246000fd5b6001600160e01b03198116811461454357600080fd5b5056fea264697066735822122054aa038baa3f366e510554128063f95b4b9bf5dc2dab6e4e0733cea7cc370a4064736f6c63430008020033",
  "deployedBytecode": "0x608060405234801561001057600080fd5b506004361061025a5760003560e01c806395d89b4111610145578063c87b56dd116100bd578063d402756e1161008c578063eeb5a5d111610071578063eeb5a5d1146105bb578063f0bc00d8146105ce578063f242432a146105e15761025a565b8063d402756e14610577578063e985e9c5146105a85761025a565b8063c87b56dd1461051f578063cc0f8b5d14610532578063ce1b815f14610553578063cf2c52cb146105645761025a565b8063ac9fe42111610114578063bd9ff41b116100f9578063bd9ff41b146104e6578063c50a4eb9146104f9578063c7778baa1461050c5761025a565b8063ac9fe421146104c0578063b9b75ebc146104d35761025a565b806395d89b41146104505780639bc88b9c14610489578063a0ea837c1461049a578063a22cb465146104ad5761025a565b80632eb2c2d6116101d8578063572b6c05116101a7578063654b748a1161018c578063654b748a146104005780636e9960c31461042c5780638f2839701461043d5761025a565b8063572b6c05146103cb5780635c5fb521146103ed5761025a565b80632eb2c2d6146103415780634c4d07e7146103545780634e1273f41461038057806353a8eccd146103a05761025a565b806306fdde031161022f578063124d91e511610214578063124d91e5146103085780632262f53f1461031b5780632e712b461461032e5761025a565b806306fdde03146102d057806307a974fc146102e55761025a565b80628c26761461025f578062fdd58e1461027457806301ffc9a71461029a578063049476df146102bd575b600080fd5b61027261026d366004613956565b6105f4565b005b610287610282366004613bf6565b610633565b6040519081526020015b60405180910390f35b6102ad6102a8366004613f0a565b6106eb565b6040519015158152602001610291565b6102726102cb36600461390a565b6107be565b6102d861091a565b604051610291919061418c565b6102ad6102f3366004613fac565b60266020526000908152604090205460ff1681565b610272610316366004613c51565b610952565b610272610329366004613fc4565b6109dc565b61028761033c366004613fac565b6109f2565b61027261034f366004613a0d565b610a0b565b6102ad61036236600461390a565b6001600160a01b03166000908152600b602052604090205460ff1690565b61039361038e366004613ddd565b610d1c565b6040516102919190614154565b6025546103b3906001600160a01b031681565b6040516001600160a01b039091168152602001610291565b6102ad6103d936600461390a565b6010546001600160a01b0390811691161490565b6102726103fb366004613ddd565b610e78565b6102ad61040e36600461390a565b6001600160a01b031660009081526001602052604090205460ff1690565b6000546001600160a01b03166103b3565b61027261044b36600461390a565b610ef3565b60408051808201909152600c81527f415353455445524331313535000000000000000000000000000000000000000060208201526102d8565b600d546001600160a01b03166103b3565b6102726104a83660046139ba565b610fc3565b6102726104bb366004613b7c565b611066565b6102726104ce366004613b7c565b611078565b6102726104e1366004613b7c565b61115c565b6102ad6104f4366004613fac565b611222565b610287610507366004613d5a565b61125c565b61028761051a366004613fac565b611407565b6102d861052d366004613fac565b6114f5565b610545610540366004613c1f565b611632565b60405161029192919061419f565b6010546001600160a01b03166103b3565b610272610572366004613ba5565b611799565b6102ad610585366004613fac565b6bffffffff80000000000007ff1916600090815260076020526040902054151590565b6102ad6105b6366004613924565b61183f565b6102726105c9366004613ac4565b61193d565b6103936105dc366004613c83565b6119e0565b6102726105ef366004613b06565b611bb2565b61060085858584610fc3565b506025805473ffffffffffffffffffffffffffffffffffffffff19166001600160a01b0392909216919091179055505050565b6bffffffff80000000000007ff1981166000908152600760205260408120546106a35760405162461bcd60e51b815260206004820152601660248201527f746f6b656e20776173206e65766572206d696e7465640000000000000000000060448201526064015b60405180910390fd5b6000806106af84611d0f565b6001600160a01b038716600090815260046020908152604080832085845290915290205491935091506106e29082611d3a565b95945050505050565b60007f01ffc9a7000000000000000000000000000000000000000000000000000000006001600160e01b03198316148061074e57507fd9b67a26000000000000000000000000000000000000000000000000000000006001600160e01b03198316145b8061078257507f0e89341c000000000000000000000000000000000000000000000000000000006001600160e01b03198316145b806107b657507f9930ed5a000000000000000000000000000000000000000000000000000000006001600160e01b03198316145b90505b919050565b600d546001600160a01b03166107d2611d7f565b6001600160a01b0316146108285760405162461bcd60e51b815260206004820152600e60248201527f21424f554e4345525f41444d494e000000000000000000000000000000000000604482015260640161069a565b6001600160a01b0381166108a45760405162461bcd60e51b815260206004820152603960248201527f417373657442617365455243313135353a206e657720626f756e63657220616460448201527f6d696e2063616e2774206265207a65726f206164647265737300000000000000606482015260840161069a565b600d54604080516001600160a01b03928316815291831660208301527f1bab6ababbec5519512e9ee16964953ec0f72839126138285cac1f1136bd642e910160405180910390a1600d805473ffffffffffffffffffffffffffffffffffffffff19166001600160a01b0392909216919091179055565b60408051808201909152601881527f53616e64626f782773204153534554732045524331313535000000000000000060208201525b90565b61095a611d7f565b6001600160a01b0316836001600160a01b031614806109805750610980836105b6611d7f565b6109cc5760405162461bcd60e51b815260206004820152600b60248201527f21415554484f52495a4544000000000000000000000000000000000000000000604482015260640161069a565b6109d7838383611dc9565b505050565b6109ee6109e7611d7f565b8383611dc9565b5050565b60006109fd82611407565b5050603f1c63ffffffff1690565b848314610a5a5760405162461bcd60e51b815260206004820152601260248201527f4d49534d4154434845445f4152525f4c454e0000000000000000000000000000604482015260640161069a565b6001600160a01b038716610a985760405162461bcd60e51b81526020600482015260056024820152640544f3d3d360dc1b604482015260640161069a565b6001600160a01b038816610aee5760405162461bcd60e51b815260206004820152600760248201527f46524f4d3d3d3000000000000000000000000000000000000000000000000000604482015260640161069a565b6010546001600160a01b031633146000610b06611d7f565b6001600160a01b03168a6001600160a01b03161480610b2c5750610b2c8a6105b6611d7f565b9050610b9f8a8a8a8a8080602002602001604051908101604052809392919081815260200183836020028082843760009201919091525050604080516020808e0282810182019093528d82529093508d92508c918291850190849080828437600092019190915250889250611eab915050565b886001600160a01b03168a6001600160a01b031683610bc557610bc0611d7f565b610bc7565b8b5b6001600160a01b03167f4a39dc06d4c0dbc64b70af90fd698a233a518aa5d07e595d983b8c0526c8f7fb8b8b8b8b604051610c05949392919061412d565b60405180910390a4610cc482610c2257610c1d611d7f565b610c24565b8a5b8b8b8b8b8080602002602001604051908101604052809392919081815260200183836020028082843760009201919091525050604080516020808f0282810182019093528e82529093508e92508d91829185019084908082843760009201919091525050604080516020601f8e018190048102820181019092528c815292508c91508b908190840183828082843760009201919091525061221592505050565b610d105760405162461bcd60e51b815260206004820152601660248201527f313135355f5452414e534645525f52454a454354454400000000000000000000604482015260640161069a565b50505050505050505050565b6060838214610d6d5760405162461bcd60e51b815260206004820152601360248201527f4152475f4c454e4754485f4d49534d4154434800000000000000000000000000604482015260640161069a565b60008267ffffffffffffffff811115610d9657634e487b7160e01b600052604160045260246000fd5b604051908082528060200260200182016040528015610dbf578160200160208202803683370190505b50905060005b83811015610e6e57610e31878783818110610df057634e487b7160e01b600052603260045260246000fd5b9050602002016020810190610e05919061390a565b868684818110610e2557634e487b7160e01b600052603260045260246000fd5b90506020020135610633565b828281518110610e5157634e487b7160e01b600052603260045260246000fd5b602090810291909101015280610e66816144bc565b915050610dc5565b5095945050505050565b610eed610e83611d7f565b8585808060200260200160405190810160405280939291908181526020018383602002808284376000920191909152505060408051602080890282810182019093528882529093508892508791829185019084908082843760009201919091525061230a92505050565b50505050565b6000546001600160a01b03163314610f4d5760405162461bcd60e51b815260206004820152601360248201527f41444d494e5f4143434553535f44454e49454400000000000000000000000000604482015260640161069a565b600054604080516001600160a01b03928316815291831660208301527f7e644d79422f17c01e4894b5f4f588d331ebfa28653d42ae832dc59e38c9798f910160405180910390a16000805473ffffffffffffffffffffffffffffffffffffffff19166001600160a01b0392909216919091179055565b610fcd60016124c7565b600080546001600160a01b0385811673ffffffffffffffffffffffffffffffffffffffff1992831617909255600d80548584169083161790556010805492871692909116919091179055600f805460ff90921674010000000000000000000000000000000000000000027fffffffffffffffffffffff00ffffffffffffffffffffffffffffffffffffffff909216919091179055505050565b6109ee611071611d7f565b8383612532565b6000546001600160a01b031633146110f85760405162461bcd60e51b815260206004820152602c60248201527f6f6e6c792061646d696e20697320616c6c6f77656420746f206164642073757060448201527f6572206f70657261746f72730000000000000000000000000000000000000000606482015260840161069a565b6001600160a01b038216600081815260016020908152604091829020805460ff19168515159081179091558251938452908301527f44f92d27abdf4cfb6a7d712c3af68f3be086d4ca747ab802c36f67d6790060d891015b60405180910390a15050565b600d546001600160a01b0316611170611d7f565b6001600160a01b0316146111c65760405162461bcd60e51b815260206004820152600e60248201527f21424f554e4345525f41444d494e000000000000000000000000000000000000604482015260640161069a565b6001600160a01b0382166000818152600b6020908152604091829020805460ff19168515159081179091558251938452908301527f5ecd928ac22825e06273a3e8db8118dd7fe11bd2637ecfe4bfa25154948bd85f9101611150565b6bffffffff80000000000007ff1981166000908152600760205260408120546bffffffff80000000000000001983169015155b9392505050565b6000866112ab5760405162461bcd60e51b815260206004820152600760248201527f484153483d3d3000000000000000000000000000000000000000000000000000604482015260640161069a565b6112b6610362611d7f565b6112ed5760405162461bcd60e51b815260206004820152600860248201526710a127aaa721a2a960c11b604482015260640161069a565b6001600160a01b03841661132b5760405162461bcd60e51b81526020600482015260056024820152640544f3d3d360dc1b604482015260640161069a565b61134d89878a89600114611340576001611343565b60005b60ff166000612716565b60008181526026602052604090205490915060ff16156113af5760405162461bcd60e51b815260206004820152601a60248201527f544f4b454e5f4558495354535f4f4e5f524f4f545f434841494e000000000000604482015260640161069a565b6113fb8787876113bd611d7f565b888689898080601f01602080910402602001604051908101604052809392919081815260200183838082843760009201829052509250612871915050565b98975050505050505050565b6bffffffff80000000000007ff1981166000908152600760205260408120546114725760405162461bcd60e51b815260206004820152600a60248201527f46545f214d494e54454400000000000000000000000000000000000000000000604482015260640161069a565b6bffffffff80000000000000001982166114a9816bffffffff80000000000007ff1916600090815260076020526040902054151590565b6107b65760405162461bcd60e51b815260206004820152601360248201527f554e4d494e5445445f434f4c4c454354494f4e00000000000000000000000000604482015260640161069a565b606061151e826bffffffff80000000000007ff1916600090815260076020526040902054151590565b61156a5760405162461bcd60e51b815260206004820152600a60248201527f46545f214d494e54454400000000000000000000000000000000000000000000604482015260640161069a565b6bffffffff80000000000007ff198216600090815260076020526040908190205490517f55f43cd400000000000000000000000000000000000000000000000000000000815260048101919091526024810183905273__$22fbfd89be1e25db7d564b4a9955403d23$__906355f43cd49060440160006040518083038186803b1580156115f657600080fd5b505af415801561160a573d6000803e3d6000fd5b505050506040513d6000823e601f3d908101601f191682016040526107b69190810190613f42565b336000908152600b602052604081205460609060ff1661167f5760405162461bcd60e51b815260206004820152600860248201526710a127aaa721a2a960c11b604482015260640161069a565b6116898385610633565b6001146116da5760405162461bcd60e51b815260040161069a9060208082526004908201527f214e465400000000000000000000000000000000000000000000000000000000604082015260600190565b60008481526009602052604090205463ffffffff166116f8856114f5565b9150611706603f60026142d0565b6117169063ffffffff83166143b1565b61172c6b8000000000000000000000008761423f565b611736919061423f565b9250611743816001614257565b600086815260096020526040902080547fffffffffffffffffffffffffffffffffffffffffffffffffffffffff000000001663ffffffff92909216919091179055611790868660016129ff565b50935093915050565b6001600160a01b0383166118155760405162461bcd60e51b815260206004820152602960248201527f506f6c79676f6e4173736574455243313135353a20214348494c445f4348414960448201527f4e5f4d414e414745520000000000000000000000000000000000000000000000606482015260840161069a565b6000808061182584860186613e46565b92509250925061183786848484612a7a565b505050505050565b60006001600160a01b0383166118975760405162461bcd60e51b815260206004820152600860248201527f4f574e45523d3d30000000000000000000000000000000000000000000000000604482015260640161069a565b6001600160a01b0382166118ed5760405162461bcd60e51b815260206004820152600b60248201527f4f50455241544f523d3d30000000000000000000000000000000000000000000604482015260640161069a565b6001600160a01b0380841660009081526005602090815260408083209386168352929052205460ff16806112555750506001600160a01b031660009081526001602052604090205460ff16919050565b611945611d7f565b6001600160a01b0316836001600160a01b0316148061198957506001600061196b611d7f565b6001600160a01b0316815260208101919091526040016000205460ff165b6119d55760405162461bcd60e51b815260206004820152600b60248201527f21415554484f52495a4544000000000000000000000000000000000000000000604482015260640161069a565b6109d7838383612532565b606088611a2f5760405162461bcd60e51b815260206004820152600760248201527f484153483d3d3000000000000000000000000000000000000000000000000000604482015260640161069a565b611a3a610362611d7f565b611a715760405162461bcd60e51b815260206004820152600860248201526710a127aaa721a2a960c11b604482015260640161069a565b6001600160a01b038416611aaf5760405162461bcd60e51b81526020600482015260056024820152640544f3d3d360dc1b604482015260640161069a565b611b308b89898080602002602001604051908101604052809392919081815260200183836020028082843760009201919091525050604080516020601f8d018190048102820181019092528b815292508b91508a9081908401838280828437600081840152601f19601f820116905080830192505050505050508d8d612ac3565b9050611ba484828a8a8080602002602001604051908101604052809392919081815260200183836020028082843760009201919091525050604080516020601f8b018190048102820181019092528981529250899150889081908401838280828437600092019190915250612a7a92505050565b9a9950505050505050505050565b6001600160a01b038516611bf05760405162461bcd60e51b81526020600482015260056024820152640544f3d3d360dc1b604482015260640161069a565b6001600160a01b038616611c465760405162461bcd60e51b815260206004820152600760248201527f46524f4d3d3d3000000000000000000000000000000000000000000000000000604482015260640161069a565b6000611c5487878787612cc9565b90508015611d0657601054611cba906001600160a01b03163314611c785733611c7a565b875b8888888888888080601f016020809104026020016040519081016040528093929190818152602001838380828437600092019190915250612e8292505050565b611d065760405162461bcd60e51b815260206004820152601660248201527f313135355f5452414e534645525f52454a454354454400000000000000000000604482015260640161069a565b50505050505050565b60008061010060208402049150611d296020610100614276565b611d3390846144d7565b9050915091565b600080611d4d600164010000000061441c565b90506000611d5c84600161423f565b611d679060206143b1565b611d739061010061441c565b9490941c169392505050565b6010546000906001600160a01b0316331415611dc257507fffffffffffffffffffffffffffffffffffffffffffffffffffffffffffffffec36013560601c61094f565b503361094f565b600081118015611df057506001611de2602060026142df565b611dec919061441c565b8111155b611e3c5760405162461bcd60e51b815260206004820152600e60248201527f494e56414c49445f414d4f554e54000000000000000000000000000000000000604482015260640161069a565b611e478383836129ff565b60006001600160a01b038416611e5b611d7f565b6001600160a01b03167fc3d58168c5ae7397731d063d5bbf3d657854427343f4c083240f7aacaa2d0f628585604051611e9e929190918252602082015260400190565b60405180910390a4505050565b825160008080808086611f005760405162461bcd60e51b815260206004820152600e60248201527f4f50455241544f525f2141555448000000000000000000000000000000000000604482015260640161069a565b60005b868110156121a5578a6001600160a01b03168c6001600160a01b03161415611f8357611f7e8c8b8381518110611f4957634e487b7160e01b600052603260045260246000fd5b60200260200101518b8481518110611f7157634e487b7160e01b600052603260045260246000fd5b6020026020010151612f52565b612193565b6000898281518110611fa557634e487b7160e01b600052603260045260246000fd5b6020026020010151111561219357611fe38a8281518110611fd657634e487b7160e01b600052603260045260246000fd5b6020026020010151611d0f565b9096509450816120b1576001600160a01b038c166000908152600460209081526040808320898452909152902054895187935061204c919087908c908590811061203d57634e487b7160e01b600052603260045260246000fd5b60200260200101516001612fe1565b6001600160a01b038c1660009081526004602090815260408083208a84529091529020548a519195506120aa9187908c908590811061209b57634e487b7160e01b600052603260045260246000fd5b60200260200101516000612fe1565b9250612193565b818614612110576001600160a01b038c8116600090815260046020818152604080842087855280835281852099909955938f16835290815282822094825284815282822095909555878152948452808520549290935291909220549084905b61214f858a838151811061213457634e487b7160e01b600052603260045260246000fd5b6020026020010151600187612fe1909392919063ffffffff16565b9350612190858a838151811061217557634e487b7160e01b600052603260045260246000fd5b6020026020010151600086612fe1909392919063ffffffff16565b92505b8061219d816144bc565b915050611f03565b5084158015906121c75750896001600160a01b03168b6001600160a01b031614155b15612208576001600160a01b03808c1660009081526004602081815260408084208a85528252808420889055938e1683529081528282208883529052208290555b5050505050505050505050565b60006001600160a01b0385163b61222e57506001612300565b6040517fbc197c810000000000000000000000000000000000000000000000000000000081526000906001600160a01b0387169063bc197c819061227e908b908b908a908a908a90600401614098565b602060405180830381600087803b15801561229857600080fd5b505af11580156122ac573d6000803e3d6000fd5b505050506040513d601f19601f820116820180604052508101906122d09190613f26565b6001600160e01b0319167fbc197c8100000000000000000000000000000000000000000000000000000000149150505b9695505050505050565b6010546000906001600160a01b0316331461232c57612327611d7f565b61232e565b835b905060005b835181101561246857600083828151811061235e57634e487b7160e01b600052603260045260246000fd5b60200260200101511180156123b15750600161237c602060026142df565b612386919061441c565b8382815181106123a657634e487b7160e01b600052603260045260246000fd5b602002602001015111155b6123fd5760405162461bcd60e51b815260206004820152600e60248201527f494e56414c49445f414d4f554e54000000000000000000000000000000000000604482015260640161069a565b6124568585838151811061242157634e487b7160e01b600052603260045260246000fd5b602002602001015185848151811061244957634e487b7160e01b600052603260045260246000fd5b60200260200101516129ff565b80612460816144bc565b915050612333565b5060006001600160a01b0316846001600160a01b0316826001600160a01b03167f4a39dc06d4c0dbc64b70af90fd698a233a518aa5d07e595d983b8c0526c8f7fb86866040516124b9929190614167565b60405180910390a450505050565b600181600e54901c16600114156125205760405162461bcd60e51b815260206004820152601360248201527f414c52454144595f494e495449414c4953454400000000000000000000000000604482015260640161069a565b806001901b600e5417600e8190555050565b6001600160a01b0383166125885760405162461bcd60e51b815260206004820152600960248201527f53454e4445523d3d300000000000000000000000000000000000000000000000604482015260640161069a565b816001600160a01b0316836001600160a01b031614156125ea5760405162461bcd60e51b815260206004820152601060248201527f53454e4445523d3d4f50455241544f5200000000000000000000000000000000604482015260640161069a565b6001600160a01b0382166126405760405162461bcd60e51b815260206004820152600b60248201527f4f50455241544f523d3d30000000000000000000000000000000000000000000604482015260640161069a565b6001600160a01b03821660009081526001602052604090205460ff16156126a95760405162461bcd60e51b815260206004820152601b60248201527f415050525f4558495354494e475f53555045524f50455241544f520000000000604482015260640161069a565b6001600160a01b03838116600081815260056020908152604080832094871680845294825291829020805460ff191686151590811790915591519182527f17307eab39ab6107e8899845ad3d59bd9653f200f220920489ca2b5937696c31910160405180910390a3505050565b6000808511801561273e57506001612730602060026142df565b61273a919061441c565b8511155b61278a5760405162461bcd60e51b815260206004820152601460248201527f535550504c595f4f55545f4f465f424f554e4453000000000000000000000000604482015260640161069a565b61ffff821661279b600b60026142df565b6127a99061ffff86166143b1565b6127b5601760026142df565b6127c69064ffffffffff88166143b1565b6127d2603f60026142df565b600f546127fa919074010000000000000000000000000000000000000000900460ff166143b1565b88600114612809576000612820565b612815605f60026142df565b6128209060016143b1565b61282c606060026142df565b61283f906001600160a01b038d166143b1565b612849919061423f565b612853919061423f565b61285d919061423f565b612867919061423f565b612300919061423f565b6bffffffff80000000000007ff198316816129e757600081815260076020526040902054156128e25760405162461bcd60e51b815260206004820152600860248201527f49445f54414b454e000000000000000000000000000000000000000000000000604482015260640161069a565b6000818152600760205260409020899055600460ff8816106129465760405162461bcd60e51b815260206004820152600960248201527f5241524954593e3d340000000000000000000000000000000000000000000000604482015260640161069a565b6040805160018082528183019092526000916020820181803683370190505090506129728860406143d0565b60f81b8160008151811061299657634e487b7160e01b600052603260045260246000fd5b60200101907effffffffffffffffffffffffffffffffffffffffffffffffffffffffffffff1916908160001a905350600082815260086020908152604090912082516129e492840190613719565b50505b6129f48686868b8761316f565b505050505050505050565b600080612a0b84611d0f565b6001600160a01b03871660009081526004602090815260408083208584529091529020549193509150612a4b908263ffffffff80871690600190612fe116565b6001600160a01b0390951660009081526004602090815260408083209483529390529190912093909355505050565b60005b82518161ffff161015612aa857612a9681848787613271565b612aa1600882614219565b9050612a7d565b612abc612ab3611d7f565b868686866133a0565b5050505050565b60606000855111612b165760405162461bcd60e51b815260206004820152600b60248201527f535550504c4945533c3d30000000000000000000000000000000000000000000604482015260640161069a565b612b22600b60026142df565b85511115612b725760405162461bcd60e51b815260206004820152600d60248201527f42415443485f544f4f5f42494700000000000000000000000000000000000000604482015260640161069a565b612b7d868685613453565b9050600760006bffffffff80000000000007ff1983600081518110612bb257634e487b7160e01b600052603260045260246000fd5b60200260200101511681526020019081526020016000205460001c600014612c1c5760405162461bcd60e51b815260206004820152600860248201527f49445f54414b454e000000000000000000000000000000000000000000000000604482015260640161069a565b81600760006bffffffff80000000000007ff1984600081518110612c5057634e487b7160e01b600052603260045260246000fd5b60200260200101511681526020019081526020016000208190555083600860006bffffffff80000000000007ff1984600081518110612c9f57634e487b7160e01b600052603260045260246000fd5b60200260200101511681526020019081526020016000209080519060200190610e6e929190613719565b600080612cd4611d7f565b90506000816001600160a01b0316876001600160a01b03161480612cfd5750612cfd878361183f565b905080612d4c5760405162461bcd60e51b815260206004820152600e60248201527f4f50455241544f525f2141555448000000000000000000000000000000000000604482015260640161069a565b8315612e0857600080612d5e87611d0f565b6001600160a01b038b1660009081526004602090815260408083208584529091529020549193509150612d949082886001612fe1565b6001600160a01b03808b166000908152600460208181526040808420888552825280842095909555928c168252825282812085825290915290812054612ddd9183908990612fe1565b6001600160a01b03891660009081526004602090815260408083209583529490529290922091909155505b6010546001600160a01b038088169189821691163314612e285783612e2a565b885b6001600160a01b03167fc3d58168c5ae7397731d063d5bbf3d657854427343f4c083240f7aacaa2d0f628888604051612e6d929190918252602082015260400190565b60405180910390a45060019695505050505050565b60006001600160a01b0385163b612e9b57506001612300565b6040517ff23a6e6100000000000000000000000000000000000000000000000000000000808252906001600160a01b0387169063f23a6e6190612eea908b908b908a908a908a906004016140ea565b602060405180830381600087803b158015612f0457600080fd5b505af1158015612f18573d6000803e3d6000fd5b505050506040513d601f19601f82011682018060405250810190612f3c9190613f26565b6001600160e01b03191614979650505050505050565b600080612f5e84611d0f565b6001600160a01b038716600090815260046020908152604080832085845290915290205491935091508390612f939083611d3a565b1015612abc5760405162461bcd60e51b815260206004820152600f60248201527f42414c414e43455f544f4f5f4c4f570000000000000000000000000000000000604482015260640161069a565b6000808083600281111561300557634e487b7160e01b600052602160045260246000fd5b1415613032576130158686611d3a565b905061302b8686613026878561423f565b613649565b9150613166565b600183600281111561305457634e487b7160e01b600052602160045260246000fd5b14156130eb576130648686611d3a565b9050838110156130dc5760405162461bcd60e51b815260206004820152602260248201527f63616e277420737562737472616374206d6f7265207468616e2074686572652060448201527f6973000000000000000000000000000000000000000000000000000000000000606482015260840161069a565b61302b8686613026878561441c565b600283600281111561310d57634e487b7160e01b600052602160045260246000fd5b141561311e5761302b868686613649565b60405162461bcd60e51b815260206004820152601160248201527f496e76616c6964206f7065726174696f6e000000000000000000000000000000604482015260640161069a565b50949350505050565b60008061317b85611d0f565b6001600160a01b038816600090815260046020908152604080832085845290915290205491935091506131b19082866002612fe1565b6001600160a01b03878116600081815260046020908152604080832088845282528083209590955584518a8152908101899052919390928b16917fc3d58168c5ae7397731d063d5bbf3d657854427343f4c083240f7aacaa2d0f62910160405180910390a461322587600088888888612e82565b611d065760405162461bcd60e51b815260206004820152601160248201527f5452414e534645525f52454a4543544544000000000000000000000000000000604482015260640161069a565b60008061329b838761ffff1681518110611fd657634e487b7160e01b600052603260045260246000fd5b9150915060005b6008811080156132bf575085516132bd8261ffff8a1661423f565b105b15611d065760006132d48261ffff8a1661423f565b905060008782815181106132f857634e487b7160e01b600052603260045260246000fd5b6020026020010151111561338d57613368613313838561423f565b88838151811061333357634e487b7160e01b600052603260045260246000fd5b6020908102919091018101516001600160a01b038a1660009081526004835260408082208a8352909352918220549291612fe1565b6001600160a01b03871660009081526004602090815260408083208884529091529020555b5080613398816144bc565b9150506132a2565b836001600160a01b031660006001600160a01b0316866001600160a01b03167f4a39dc06d4c0dbc64b70af90fd698a233a518aa5d07e595d983b8c0526c8f7fb86866040516133f0929190614167565b60405180910390a461340785600086868686612215565b612abc5760405162461bcd60e51b815260206004820152601160248201527f5452414e534645525f52454a4543544544000000000000000000000000000000604482015260640161069a565b8151606090600061ffff821667ffffffffffffffff81111561348557634e487b7160e01b600052604160045260246000fd5b6040519080825280602002602001820160405280156134ae578160200160208202803683370190505b5090506000805b8361ffff168161ffff1610156135a15761ffff821661351457868161ffff16815181106134f257634e487b7160e01b600052603260045260246000fd5b60200260200101516001141561350f5761350c81856143f9565b91505b61358f565b868161ffff168151811061353857634e487b7160e01b600052603260045260246000fd5b602002602001015160011461358f5760405162461bcd60e51b815260206004820152601160248201527f4e4654535f4d5553545f42455f4c415354000000000000000000000000000000604482015260640161069a565b806135998161449a565b9150506134b5565b5060006135ae82856143f9565b905060005b8461ffff168161ffff16101561363c576135fb89898361ffff16815181106135eb57634e487b7160e01b600052603260045260246000fd5b6020026020010151898585612716565b848261ffff168151811061361f57634e487b7160e01b600052603260045260246000fd5b6020908102919091010152806136348161449a565b9150506135b3565b5091979650505050505050565b6000613657602060026142d0565b82106136cb5760405162461bcd60e51b815260206004820152602360248201527f416d6f756e7420746f20777269746520696e2062696e20697320746f6f206c6160448201527f7267650000000000000000000000000000000000000000000000000000000000606482015260840161069a565b60006136dd600164010000000061441c565b905060006136ec85600161423f565b6136f79060206143b1565b6137039061010061441c565b91821b199590951692901b919091179392505050565b8280546137259061445f565b90600052602060002090601f016020900481019282613747576000855561378d565b82601f1061376057805160ff191683800117855561378d565b8280016001018555821561378d579182015b8281111561378d578251825591602001919060010190613772565b5061379992915061379d565b5090565b5b80821115613799576000815560010161379e565b80356001600160a01b03811681146107b957600080fd5b60008083601f8401126137da578182fd5b50813567ffffffffffffffff8111156137f1578182fd5b602083019150836020808302850101111561380b57600080fd5b9250929050565b600082601f830112613822578081fd5b8135602067ffffffffffffffff82111561383e5761383e614517565b80820261384c8282016141c0565b838152828101908684018388018501891015613866578687fd5b8693505b8584101561388857803583526001939093019291840191840161386a565b50979650505050505050565b803580151581146107b957600080fd5b60008083601f8401126138b5578182fd5b50813567ffffffffffffffff8111156138cc578182fd5b60208301915083602082850101111561380b57600080fd5b803564ffffffffff811681146107b957600080fd5b803560ff811681146107b957600080fd5b60006020828403121561391b578081fd5b611255826137b2565b60008060408385031215613936578081fd5b61393f836137b2565b915061394d602084016137b2565b90509250929050565b600080600080600060a0868803121561396d578081fd5b613976866137b2565b9450613984602087016137b2565b9350613992604087016137b2565b92506139a0606087016137b2565b91506139ae608087016138f9565b90509295509295909350565b600080600080608085870312156139cf578384fd5b6139d8856137b2565b93506139e6602086016137b2565b92506139f4604086016137b2565b9150613a02606086016138f9565b905092959194509250565b60008060008060008060008060a0898b031215613a28578283fd5b613a31896137b2565b9750613a3f60208a016137b2565b9650604089013567ffffffffffffffff80821115613a5b578485fd5b613a678c838d016137c9565b909850965060608b0135915080821115613a7f578485fd5b613a8b8c838d016137c9565b909650945060808b0135915080821115613aa3578384fd5b50613ab08b828c016138a4565b999c989b5096995094979396929594505050565b600080600060608486031215613ad8578283fd5b613ae1846137b2565b9250613aef602085016137b2565b9150613afd60408501613894565b90509250925092565b60008060008060008060a08789031215613b1e578384fd5b613b27876137b2565b9550613b35602088016137b2565b94506040870135935060608701359250608087013567ffffffffffffffff811115613b5e578283fd5b613b6a89828a016138a4565b979a9699509497509295939492505050565b60008060408385031215613b8e578182fd5b613b97836137b2565b915061394d60208401613894565b600080600060408486031215613bb9578081fd5b613bc2846137b2565b9250602084013567ffffffffffffffff811115613bdd578182fd5b613be9868287016138a4565b9497909650939450505050565b60008060408385031215613c08578182fd5b613c11836137b2565b946020939093013593505050565b600080600060608486031215613c33578081fd5b613c3c846137b2565b925060208401359150613afd604085016137b2565b600080600060608486031215613c65578081fd5b613c6e846137b2565b95602085013595506040909401359392505050565b60008060008060008060008060008060e08b8d031215613ca1578384fd5b613caa8b6137b2565b9950613cb860208c016138e4565b985060408b0135975060608b013567ffffffffffffffff80821115613cdb578586fd5b613ce78e838f016137c9565b909950975060808d0135915080821115613cff578586fd5b613d0b8e838f016138a4565b9097509550859150613d1f60a08e016137b2565b945060c08d0135915080821115613d34578384fd5b50613d418d828e016138a4565b915080935050809150509295989b9194979a5092959850565b60008060008060008060008060e0898b031215613d75578182fd5b613d7e896137b2565b9750613d8c60208a016138e4565b96506040890135955060608901359450613da860808a016138f9565b9350613db660a08a016137b2565b925060c089013567ffffffffffffffff811115613dd1578283fd5b613ab08b828c016138a4565b60008060008060408587031215613df2578182fd5b843567ffffffffffffffff80821115613e09578384fd5b613e15888389016137c9565b90965094506020870135915080821115613e2d578384fd5b50613e3a878288016137c9565b95989497509550505050565b600080600060608486031215613e5a578081fd5b833567ffffffffffffffff80821115613e71578283fd5b613e7d87838801613812565b94506020860135915080821115613e92578283fd5b613e9e87838801613812565b93506040860135915080821115613eb3578283fd5b508401601f81018613613ec4578182fd5b8035613ed7613ed2826141f1565b6141c0565b818152876020838501011115613eeb578384fd5b8160208401602083013783602083830101528093505050509250925092565b600060208284031215613f1b578081fd5b81356112558161452d565b600060208284031215613f37578081fd5b81516112558161452d565b600060208284031215613f53578081fd5b815167ffffffffffffffff811115613f69578182fd5b8201601f81018413613f79578182fd5b8051613f87613ed2826141f1565b818152856020838501011115613f9b578384fd5b6106e2826020830160208601614433565b600060208284031215613fbd578081fd5b5035919050565b60008060408385031215613fd6578182fd5b50508035926020909101359150565b60008284527f07ffffffffffffffffffffffffffffffffffffffffffffffffffffffffffffff831115614016578081fd5b6020830280836020870137939093016020019283525090919050565b6000815180845260208085019450808401835b8381101561406157815187529582019590820190600101614045565b509495945050505050565b60008151808452614084816020860160208601614433565b601f01601f19169290920160200192915050565b60006001600160a01b03808816835280871660208401525060a060408301526140c460a0830186614032565b82810360608401526140d68186614032565b905082810360808401526113fb818561406c565b60006001600160a01b03808816835280871660208401525084604083015283606083015260a0608083015261412260a083018461406c565b979650505050505050565b600060408252614141604083018688613fe5565b8281036020840152614122818587613fe5565b6000602082526112556020830184614032565b60006040825261417a6040830185614032565b82810360208401526106e28185614032565b600060208252611255602083018461406c565b6000838252604060208301526141b8604083018461406c565b949350505050565b604051601f8201601f1916810167ffffffffffffffff811182821017156141e9576141e9614517565b604052919050565b600067ffffffffffffffff82111561420b5761420b614517565b50601f01601f191660200190565b600061ffff808316818516808303821115614236576142366144eb565b01949350505050565b60008219821115614252576142526144eb565b500190565b600063ffffffff808316818516808303821115614236576142366144eb565b60008261428557614285614501565b500490565b80825b600180861161429c57506142c7565b8187048211156142ae576142ae6144eb565b808616156142bb57918102915b9490941c93800261428d565b94509492505050565b600061125560001984846142ed565b600061125560001960ff8516845b6000826142fc57506001611255565b8161430957506000611255565b816001811461431f576002811461432957614356565b6001915050611255565b60ff84111561433a5761433a6144eb565b6001841b915084821115614350576143506144eb565b50611255565b5060208310610133831016604e8410600b8410161715614389575081810a83811115614384576143846144eb565b611255565b614396848484600161428a565b8086048211156143a8576143a86144eb565b02949350505050565b60008160001904831182151516156143cb576143cb6144eb565b500290565b600060ff821660ff84168160ff04811182151516156143f1576143f16144eb565b029392505050565b600061ffff83811690831681811015614414576144146144eb565b039392505050565b60008282101561442e5761442e6144eb565b500390565b60005b8381101561444e578181015183820152602001614436565b83811115610eed5750506000910152565b60028104600182168061447357607f821691505b6020821081141561449457634e487b7160e01b600052602260045260246000fd5b50919050565b600061ffff808316818114156144b2576144b26144eb565b6001019392505050565b60006000198214156144d0576144d06144eb565b5060010190565b6000826144e6576144e6614501565b500690565b634e487b7160e01b600052601160045260246000fd5b634e487b7160e01b600052601260045260246000fd5b634e487b7160e01b600052604160045260246000fd5b6001600160e01b03198116811461454357600080fd5b5056fea264697066735822122054aa038baa3f366e510554128063f95b4b9bf5dc2dab6e4e0733cea7cc370a4064736f6c63430008020033",
  "libraries": {
    "AssetHelper": "0x0053e2A630E86Cf411825C7bc2F7f50B83d0d743",
    "ERC1155ERC721Helper": "0xe4f7b32dd6Cf3DA22783E3dAe21baa6CcB1BEdb7"
  },
  "devdoc": {
    "details": "AssetERC1155 will be minted only on L2 and can be transferred to L1 and not minted on L1.This contract supports meta transactions.This contract is final, don't inherit from it.",
    "kind": "dev",
    "methods": {
      "balanceOf(address,uint256)": {
        "params": {
          "id": "the token type of which to get the balance of.",
          "owner": "The address of the token holder."
        },
        "returns": {
          "_0": "the balance of `owner` for the token type `id`."
        }
      },
      "balanceOfBatch(address[],uint256[])": {
        "params": {
          "ids": "ids of each token type to query.",
          "owners": "the addresses of the token holders queried."
        },
        "returns": {
          "_0": "the balance of each `owners` for each token type `ids`."
        }
      },
      "burnFrom(address,uint256,uint256)": {
        "params": {
          "amount": "amount of token to burn.",
          "from": "address whose token is to be burnt.",
          "id": "token type which will be burnt."
        }
      },
      "changeAdmin(address)": {
        "details": "Change the administrator to be `newAdmin`.",
        "params": {
          "newAdmin": "The address of the new administrator."
        }
      },
      "changeBouncerAdmin(address)": {
        "params": {
          "newBouncerAdmin": "address of the new minting administrator."
        }
      },
      "collectionIndexOf(uint256)": {
        "params": {
          "id": "the token to get the index of."
        },
        "returns": {
          "_0": "the index/order at which the token `id` was minted in a collection."
        }
      },
      "collectionOf(uint256)": {
        "params": {
          "id": "the token to get the collection of."
        },
        "returns": {
          "_0": "the collection the NFT is part of."
        }
      },
      "deposit(address,bytes)": {
        "details": "Should be callable only by ChildChainManagerShould handle deposit by minting the required tokenId(s) for userShould set `withdrawnTokens` mapping to `false` for the tokenId being depositedMinting can also be done by other functions",
        "params": {
          "depositData": "abi encoded tokenIds. Batch deposit also supported.",
          "user": "user address for whom deposit is being done"
        }
      },
      "getAdmin()": {
        "details": "Get the current administrator of this contract.",
        "returns": {
          "_0": "The current administrator of this contract."
        }
      },
      "getBouncerAdmin()": {
        "returns": {
          "_0": "the current minting administrator in charge of minting rights."
        }
      },
      "isApprovedForAll(address,address)": {
        "params": {
          "operator": "address of authorized operator.",
          "owner": "the owner of the tokens."
        },
        "returns": {
          "isOperator": "true if the operator is approved, false if not."
        }
      },
      "isBouncer(address)": {
        "params": {
          "who": "The address to query."
        },
        "returns": {
          "_0": "whether the address has minting rights."
        }
      },
      "isCollection(uint256)": {
        "params": {
          "id": "collectionId to check."
        },
        "returns": {
          "_0": "whether the id is a collection."
        }
      },
      "isSuperOperator(address)": {
        "params": {
          "who": "The address to query."
        },
        "returns": {
          "_0": "whether the address has superOperator rights."
        }
      },
      "mint(address,uint40,bytes32,uint256,uint8,address,bytes)": {
        "params": {
          "creator": "address of the creator of the token.",
          "data": "extra data to accompany the minting call.",
          "hash": "hash of an IPFS cidv1 folder that contains the metadata of the token type in the file 0.json.",
          "owner": "address that will receive the tokens.",
          "packId": "unique packId for that token.",
          "rarity": "rarity power of the token.",
          "supply": "number of tokens minted for that token type."
        },
        "returns": {
          "id": "the id of the newly minted token type."
        }
      },
      "mintMultiple(address,uint40,bytes32,uint256[],bytes,address,bytes)": {
        "params": {
          "creator": "address of the creator of the tokens.",
          "data": "extra data to accompany the minting call.",
          "hash": "hash of an IPFS cidv1 folder that contains the metadata of each token type in the files: 0.json, 1.json, 2.json, etc...",
          "owner": "address that will receive the tokens.",
          "packId": "unique packId for the tokens.",
          "rarityPack": "rarity power of each token types packed into 2 bits each.",
          "supplies": "number of tokens minted for each token type."
        },
        "returns": {
          "ids": "the ids of each newly minted token types."
        }
      },
      "name()": {
        "returns": {
          "_name": "the name of the tokens."
        }
      },
      "prepareForExtract(address,uint256,address)": {
        "params": {
          "id": "the token id for which the next collection index is fetched."
        },
        "returns": {
          "metaData": "required for minting on AssetERC721.",
          "newId": "generated after extraction"
        }
      },
      "safeBatchTransferFrom(address,address,uint256[],uint256[],bytes)": {
        "details": "call data should be optimized to order ids so packedBalance can be used efficiently.",
        "params": {
          "data": "aditional data accompanying the transfer.",
          "from": "address from which tokens are transfered.",
          "ids": "ids of each token type transfered.",
          "to": "address to which the token will be transfered.",
          "values": "amount of each token type transfered."
        }
      },
      "safeTransferFrom(address,address,uint256,uint256,bytes)": {
        "params": {
          "data": "aditional data accompanying the transfer.",
          "from": "address from which tokens are transfered.",
          "id": "the token type transfered.",
          "to": "address to which the token will be transfered.",
          "value": "amount of token transfered."
        }
      },
      "setApprovalForAll(address,bool)": {
        "params": {
          "approved": "whether to approve or revoke",
          "operator": "address which will be granted rights to transfer all tokens of the caller."
        }
      },
      "setApprovalForAllFor(address,address,bool)": {
        "details": "used for Meta Transaction (from metaTransactionContract).",
        "params": {
          "approved": "whether to approve or revoke.",
          "operator": "address which will be granted rights to transfer all token owned by `sender`.",
          "sender": "address which grant approval."
        }
      },
      "setBouncer(address,bool)": {
        "params": {
          "bouncer": "address that will be given/removed minting bouncer rights.",
          "enabled": "set whether the address is enabled or disabled as a minting bouncer."
        }
      },
      "setSuperOperator(address,bool)": {
        "params": {
          "enabled": "set whether the superOperator is enabled or disabled.",
          "superOperator": "address that will be given/removed superOperator right."
        }
      },
      "supportsInterface(bytes4)": {
        "params": {
          "id": "the interface identifier, as specified in ERC-165."
        },
        "returns": {
          "_0": "`true` if the contract implements `id`."
        }
      },
      "symbol()": {
        "returns": {
          "_symbol": "the symbol of the tokens."
        }
      },
      "tokenURI(uint256)": {
        "params": {
          "id": "token to get the uri of."
        },
        "returns": {
          "_0": "URI string"
        }
      },
      "withdrawBatch(uint256[],uint256[])": {
        "details": "Should burn user's tokens. This transaction will be verified when exiting on root chain",
        "params": {
          "amounts": "amounts to withdraw",
          "ids": "ids to withdraw"
        }
      },
      "withdrawSingle(uint256,uint256)": {
        "details": "Should burn user's tokens. This transaction will be verified when exiting on root chain",
        "params": {
          "amount": "amount to withdraw",
          "id": "id to withdraw"
        }
      }
    },
    "title": "This contract is for AssetERC1155 which can be minted by a minter role.",
    "version": 1
  },
  "userdoc": {
    "kind": "user",
    "methods": {
      "balanceOf(address,uint256)": {
        "notice": "Get the balance of `owner` for the token type `id`."
      },
      "balanceOfBatch(address[],uint256[])": {
        "notice": "Get the balance of `owners` for each token type `ids`."
      },
      "burnFrom(address,uint256,uint256)": {
        "notice": "Burns `amount` tokens of type `id` from `from`."
      },
      "changeBouncerAdmin(address)": {
        "notice": "Change the minting administrator to be `newBouncerAdmin`."
      },
      "collectionIndexOf(uint256)": {
        "notice": "Gives the index at which an NFT was minted in a collection : first of a collection get the zero index."
      },
      "collectionOf(uint256)": {
        "notice": "Gives the collection a specific token belongs to."
      },
      "deposit(address,bytes)": {
        "notice": "called when token is deposited to root chain"
      },
      "getBouncerAdmin()": {
        "notice": "Returns the current administrator in charge of minting rights."
      },
      "isApprovedForAll(address,address)": {
        "notice": "Queries the approval status of `operator` for owner `owner`."
      },
      "isBouncer(address)": {
        "notice": "check whether address `who` is given minting bouncer rights."
      },
      "isCollection(uint256)": {
        "notice": "Return wether the id is a collection"
      },
      "isSuperOperator(address)": {
        "notice": "check whether address `who` is given superOperator rights."
      },
      "mint(address,uint40,bytes32,uint256,uint8,address,bytes)": {
        "notice": "Mint a token type for `creator` on slot `packId`."
      },
      "mintMultiple(address,uint40,bytes32,uint256[],bytes,address,bytes)": {
        "notice": "Mint multiple token types for `creator` on slot `packId`."
      },
      "name()": {
        "notice": "A descriptive name for the collection of tokens in this contract."
      },
      "prepareForExtract(address,uint256,address)": {
        "notice": "Call to perform all AssetERC1155 operations before minting to AssetERC721."
      },
      "safeBatchTransferFrom(address,address,uint256[],uint256[],bytes)": {
        "notice": "Transfers `values` tokens of type `ids` from  `from` to `to` (with safety call)."
      },
      "safeTransferFrom(address,address,uint256,uint256,bytes)": {
        "notice": "Transfers `value` tokens of type `id` from  `from` to `to`  (with safety call)."
      },
      "setApprovalForAll(address,bool)": {
        "notice": "Enable or disable approval for `operator` to manage all of the caller's tokens."
      },
      "setApprovalForAllFor(address,address,bool)": {
        "notice": "Enable or disable approval for `operator` to manage all `sender`'s tokens."
      },
      "setBouncer(address,bool)": {
        "notice": "Enable or disable the ability of `bouncer` to mint tokens (minting bouncer rights)."
      },
      "setSuperOperator(address,bool)": {
        "notice": "Enable or disable the ability of `superOperator` to transfer tokens of all (superOperator rights)."
      },
      "supportsInterface(bytes4)": {
        "notice": "Query if a contract implements interface `id`."
      },
      "symbol()": {
        "notice": "An abbreviated name for the collection of tokens in this contract."
      },
      "tokenURI(uint256)": {
        "notice": "A distinct Uniform Resource Identifier (URI) for a given asset."
      },
      "withdrawBatch(uint256[],uint256[])": {
        "notice": "called when user wants to batch withdraw tokens back to root chain"
      },
      "withdrawSingle(uint256,uint256)": {
        "notice": "called when user wants to withdraw single token back to root chain"
      }
    },
    "version": 1
  },
  "storageLayout": {
    "storage": [
      {
        "astId": 29610,
        "contract": "src/solc_0.8/polygon/child/asset/PolygonAssetERC1155.sol:PolygonAssetERC1155",
        "label": "_admin",
        "offset": 0,
        "slot": "0",
        "type": "t_address"
      },
      {
        "astId": 29842,
        "contract": "src/solc_0.8/polygon/child/asset/PolygonAssetERC1155.sol:PolygonAssetERC1155",
        "label": "_superOperators",
        "offset": 0,
        "slot": "1",
        "type": "t_mapping(t_address,t_bool)"
      },
      {
        "astId": 20113,
        "contract": "src/solc_0.8/polygon/child/asset/PolygonAssetERC1155.sol:PolygonAssetERC1155",
        "label": "_numNFTPerAddress",
        "offset": 0,
        "slot": "2",
        "type": "t_mapping(t_address,t_uint256)"
      },
      {
        "astId": 20117,
        "contract": "src/solc_0.8/polygon/child/asset/PolygonAssetERC1155.sol:PolygonAssetERC1155",
        "label": "_owners",
        "offset": 0,
        "slot": "3",
        "type": "t_mapping(t_uint256,t_uint256)"
      },
      {
        "astId": 20123,
        "contract": "src/solc_0.8/polygon/child/asset/PolygonAssetERC1155.sol:PolygonAssetERC1155",
        "label": "_packedTokenBalance",
        "offset": 0,
        "slot": "4",
        "type": "t_mapping(t_address,t_mapping(t_uint256,t_uint256))"
      },
      {
        "astId": 20129,
        "contract": "src/solc_0.8/polygon/child/asset/PolygonAssetERC1155.sol:PolygonAssetERC1155",
        "label": "_operatorsForAll",
        "offset": 0,
        "slot": "5",
        "type": "t_mapping(t_address,t_mapping(t_address,t_bool))"
      },
      {
        "astId": 20133,
        "contract": "src/solc_0.8/polygon/child/asset/PolygonAssetERC1155.sol:PolygonAssetERC1155",
        "label": "_erc721operators",
        "offset": 0,
        "slot": "6",
        "type": "t_mapping(t_uint256,t_address)"
      },
      {
        "astId": 20137,
        "contract": "src/solc_0.8/polygon/child/asset/PolygonAssetERC1155.sol:PolygonAssetERC1155",
        "label": "_metadataHash",
        "offset": 0,
        "slot": "7",
        "type": "t_mapping(t_uint256,t_bytes32)"
      },
      {
        "astId": 20141,
        "contract": "src/solc_0.8/polygon/child/asset/PolygonAssetERC1155.sol:PolygonAssetERC1155",
        "label": "_rarityPacks",
        "offset": 0,
        "slot": "8",
        "type": "t_mapping(t_uint256,t_bytes_storage)"
      },
      {
        "astId": 20145,
        "contract": "src/solc_0.8/polygon/child/asset/PolygonAssetERC1155.sol:PolygonAssetERC1155",
        "label": "_nextCollectionIndex",
        "offset": 0,
        "slot": "9",
        "type": "t_mapping(t_uint256,t_uint32)"
      },
      {
        "astId": 20149,
        "contract": "src/solc_0.8/polygon/child/asset/PolygonAssetERC1155.sol:PolygonAssetERC1155",
        "label": "_creatorship",
        "offset": 0,
        "slot": "10",
        "type": "t_mapping(t_address,t_address)"
      },
      {
        "astId": 20153,
        "contract": "src/solc_0.8/polygon/child/asset/PolygonAssetERC1155.sol:PolygonAssetERC1155",
        "label": "_bouncers",
        "offset": 0,
        "slot": "11",
        "type": "t_mapping(t_address,t_bool)"
      },
      {
        "astId": 20157,
        "contract": "src/solc_0.8/polygon/child/asset/PolygonAssetERC1155.sol:PolygonAssetERC1155",
        "label": "_metaTransactionContracts",
        "offset": 0,
        "slot": "12",
        "type": "t_mapping(t_address,t_bool)"
      },
      {
        "astId": 20159,
        "contract": "src/solc_0.8/polygon/child/asset/PolygonAssetERC1155.sol:PolygonAssetERC1155",
        "label": "_bouncerAdmin",
        "offset": 0,
        "slot": "13",
        "type": "t_address"
      },
      {
        "astId": 20161,
        "contract": "src/solc_0.8/polygon/child/asset/PolygonAssetERC1155.sol:PolygonAssetERC1155",
        "label": "_init",
        "offset": 20,
        "slot": "13",
        "type": "t_bool"
      },
      {
        "astId": 20166,
        "contract": "src/solc_0.8/polygon/child/asset/PolygonAssetERC1155.sol:PolygonAssetERC1155",
        "label": "_initBits",
        "offset": 0,
        "slot": "14",
        "type": "t_uint256"
      },
      {
        "astId": 20168,
        "contract": "src/solc_0.8/polygon/child/asset/PolygonAssetERC1155.sol:PolygonAssetERC1155",
        "label": "_predicate",
        "offset": 0,
        "slot": "15",
        "type": "t_address"
      },
      {
        "astId": 20170,
        "contract": "src/solc_0.8/polygon/child/asset/PolygonAssetERC1155.sol:PolygonAssetERC1155",
        "label": "_chainIndex",
        "offset": 20,
        "slot": "15",
        "type": "t_uint8"
      },
      {
        "astId": 20172,
        "contract": "src/solc_0.8/polygon/child/asset/PolygonAssetERC1155.sol:PolygonAssetERC1155",
        "label": "_trustedForwarder",
        "offset": 0,
        "slot": "16",
        "type": "t_address"
      },
      {
        "astId": 20176,
        "contract": "src/solc_0.8/polygon/child/asset/PolygonAssetERC1155.sol:PolygonAssetERC1155",
        "label": "__gap",
        "offset": 0,
        "slot": "17",
        "type": "t_array(t_uint256)20_storage"
      },
      {
        "astId": 36709,
        "contract": "src/solc_0.8/polygon/child/asset/PolygonAssetERC1155.sol:PolygonAssetERC1155",
        "label": "_childChainManager",
        "offset": 0,
        "slot": "37",
        "type": "t_address"
      },
      {
        "astId": 36713,
        "contract": "src/solc_0.8/polygon/child/asset/PolygonAssetERC1155.sol:PolygonAssetERC1155",
        "label": "withdrawnTokens",
        "offset": 0,
        "slot": "38",
        "type": "t_mapping(t_uint256,t_bool)"
      }
    ],
    "types": {
      "t_address": {
        "encoding": "inplace",
        "label": "address",
        "numberOfBytes": "20"
      },
      "t_array(t_uint256)20_storage": {
        "base": "t_uint256",
        "encoding": "inplace",
        "label": "uint256[20]",
        "numberOfBytes": "640"
      },
      "t_bool": {
        "encoding": "inplace",
        "label": "bool",
        "numberOfBytes": "1"
      },
      "t_bytes32": {
        "encoding": "inplace",
        "label": "bytes32",
        "numberOfBytes": "32"
      },
      "t_bytes_storage": {
        "encoding": "bytes",
        "label": "bytes",
        "numberOfBytes": "32"
      },
      "t_mapping(t_address,t_address)": {
        "encoding": "mapping",
        "key": "t_address",
        "label": "mapping(address => address)",
        "numberOfBytes": "32",
        "value": "t_address"
      },
      "t_mapping(t_address,t_bool)": {
        "encoding": "mapping",
        "key": "t_address",
        "label": "mapping(address => bool)",
        "numberOfBytes": "32",
        "value": "t_bool"
      },
      "t_mapping(t_address,t_mapping(t_address,t_bool))": {
        "encoding": "mapping",
        "key": "t_address",
        "label": "mapping(address => mapping(address => bool))",
        "numberOfBytes": "32",
        "value": "t_mapping(t_address,t_bool)"
      },
      "t_mapping(t_address,t_mapping(t_uint256,t_uint256))": {
        "encoding": "mapping",
        "key": "t_address",
        "label": "mapping(address => mapping(uint256 => uint256))",
        "numberOfBytes": "32",
        "value": "t_mapping(t_uint256,t_uint256)"
      },
      "t_mapping(t_address,t_uint256)": {
        "encoding": "mapping",
        "key": "t_address",
        "label": "mapping(address => uint256)",
        "numberOfBytes": "32",
        "value": "t_uint256"
      },
      "t_mapping(t_uint256,t_address)": {
        "encoding": "mapping",
        "key": "t_uint256",
        "label": "mapping(uint256 => address)",
        "numberOfBytes": "32",
        "value": "t_address"
      },
      "t_mapping(t_uint256,t_bool)": {
        "encoding": "mapping",
        "key": "t_uint256",
        "label": "mapping(uint256 => bool)",
        "numberOfBytes": "32",
        "value": "t_bool"
      },
      "t_mapping(t_uint256,t_bytes32)": {
        "encoding": "mapping",
        "key": "t_uint256",
        "label": "mapping(uint256 => bytes32)",
        "numberOfBytes": "32",
        "value": "t_bytes32"
      },
      "t_mapping(t_uint256,t_bytes_storage)": {
        "encoding": "mapping",
        "key": "t_uint256",
        "label": "mapping(uint256 => bytes)",
        "numberOfBytes": "32",
        "value": "t_bytes_storage"
      },
      "t_mapping(t_uint256,t_uint256)": {
        "encoding": "mapping",
        "key": "t_uint256",
        "label": "mapping(uint256 => uint256)",
        "numberOfBytes": "32",
        "value": "t_uint256"
      },
      "t_mapping(t_uint256,t_uint32)": {
        "encoding": "mapping",
        "key": "t_uint256",
        "label": "mapping(uint256 => uint32)",
        "numberOfBytes": "32",
        "value": "t_uint32"
      },
      "t_uint256": {
        "encoding": "inplace",
        "label": "uint256",
        "numberOfBytes": "32"
      },
      "t_uint32": {
        "encoding": "inplace",
        "label": "uint32",
        "numberOfBytes": "4"
      },
      "t_uint8": {
        "encoding": "inplace",
        "label": "uint8",
        "numberOfBytes": "1"
      }
    }
  }
}