{
  "address": "0x47FCFD76c55e9813Fe2C7CCa60e5b413d7fdA372",
  "abi": [
    {
      "anonymous": false,
      "inputs": [
        {
          "indexed": true,
          "internalType": "address",
          "name": "previousOwner",
          "type": "address"
        },
        {
          "indexed": true,
          "internalType": "address",
          "name": "newOwner",
          "type": "address"
        }
      ],
      "name": "OwnershipTransferred",
      "type": "event"
    },
    {
      "inputs": [],
      "name": "DEFAULT_SUBSCRIPTION",
      "outputs": [
        {
          "internalType": "address",
          "name": "",
          "type": "address"
        }
      ],
      "stateMutability": "view",
      "type": "function"
    },
    {
      "inputs": [],
      "name": "initialize",
      "outputs": [],
      "stateMutability": "nonpayable",
      "type": "function"
    },
    {
      "inputs": [],
      "name": "operatorFilterRegistry",
      "outputs": [
        {
          "internalType": "contract IOperatorFilterRegistry",
          "name": "",
          "type": "address"
        }
      ],
      "stateMutability": "view",
      "type": "function"
    },
    {
      "inputs": [],
      "name": "owner",
      "outputs": [
        {
          "internalType": "address",
          "name": "",
          "type": "address"
        }
      ],
      "stateMutability": "view",
      "type": "function"
    },
    {
      "inputs": [],
      "name": "renounceOwnership",
      "outputs": [],
      "stateMutability": "nonpayable",
      "type": "function"
    },
    {
      "inputs": [
        {
          "internalType": "address",
          "name": "newOwner",
          "type": "address"
        }
      ],
      "name": "transferOwnership",
      "outputs": [],
      "stateMutability": "nonpayable",
      "type": "function"
    }
  ],
  "transactionHash": "0x36ca0a97f6ccddec720c011272041413a2b3609400c0032ba8971928b8a7c913",
  "args": [],
  "numDeployments": 1,
  "solcInputHash": "1b9050320f4c7dc81bf5dc25c0a8151b",
  "bytecode": "0x608060405234801561001057600080fd5b50610692806100206000396000f3fe608060405234801561001057600080fd5b50600436106100725760003560e01c8063b0ccc31e11610050578063b0ccc31e146100cc578063f2fde38b146100e1578063f9c0611c146100f457610072565b8063715018a6146100775780638129fc1c146100815780638da5cb5b14610089575b600080fd5b61007f61010f565b005b61007f610187565b60335473ffffffffffffffffffffffffffffffffffffffff165b60405173ffffffffffffffffffffffffffffffffffffffff909116815260200160405180910390f35b6100a36daaeb6d7670e522a718067333cd4e81565b61007f6100ef366004610621565b610325565b6100a3733cc6cdda760b79bafa08df41ecfa224f810dceb681565b60335473ffffffffffffffffffffffffffffffffffffffff16331461017b5760405162461bcd60e51b815260206004820181905260248201527f4f776e61626c653a2063616c6c6572206973206e6f7420746865206f776e657260448201526064015b60405180910390fd5b610185600061041a565b565b600054610100900460ff166101a25760005460ff16156101a6565b303b155b6102185760405162461bcd60e51b815260206004820152602e60248201527f496e697469616c697a61626c653a20636f6e747261637420697320616c72656160448201527f647920696e697469616c697a65640000000000000000000000000000000000006064820152608401610172565b600054610100900460ff1615801561026157600080547fffffffffffffffffffffffffffffffffffffffffffffffffffffffffffffff0061ff0019909116610100171660011790555b6daaeb6d7670e522a718067333cd4e3b15610308576040517fa0af2903000000000000000000000000000000000000000000000000000000008152306004820152733cc6cdda760b79bafa08df41ecfa224f810dceb660248201526daaeb6d7670e522a718067333cd4e9063a0af290390604401600060405180830381600087803b1580156102ef57600080fd5b505af1158015610303573d6000803e3d6000fd5b505050505b610310610491565b8015610322576000805461ff00191690555b50565b60335473ffffffffffffffffffffffffffffffffffffffff16331461038c5760405162461bcd60e51b815260206004820181905260248201527f4f776e61626c653a2063616c6c6572206973206e6f7420746865206f776e65726044820152606401610172565b73ffffffffffffffffffffffffffffffffffffffff81166104155760405162461bcd60e51b815260206004820152602660248201527f4f776e61626c653a206e6577206f776e657220697320746865207a65726f206160448201527f64647265737300000000000000000000000000000000000000000000000000006064820152608401610172565b610322815b6033805473ffffffffffffffffffffffffffffffffffffffff8381167fffffffffffffffffffffffff0000000000000000000000000000000000000000831681179093556040519116919082907f8be0079c531659141344cd1fd0a4f28419497f9722a3daafe3b4186f6b6457e090600090a35050565b600054610100900460ff1661050e5760405162461bcd60e51b815260206004820152602b60248201527f496e697469616c697a61626c653a20636f6e7472616374206973206e6f74206960448201527f6e697469616c697a696e670000000000000000000000000000000000000000006064820152608401610172565b61051661051e565b61018561059b565b600054610100900460ff166101855760405162461bcd60e51b815260206004820152602b60248201527f496e697469616c697a61626c653a20636f6e7472616374206973206e6f74206960448201527f6e697469616c697a696e670000000000000000000000000000000000000000006064820152608401610172565b600054610100900460ff166106185760405162461bcd60e51b815260206004820152602b60248201527f496e697469616c697a61626c653a20636f6e7472616374206973206e6f74206960448201527f6e697469616c697a696e670000000000000000000000000000000000000000006064820152608401610172565b6101853361041a565b600060208284031215610632578081fd5b813573ffffffffffffffffffffffffffffffffffffffff81168114610655578182fd5b939250505056fea26469706673582212207d0c9344d1262d8399f7d96328679c0b50ca9a19283343975e6f3e695780f5ef64736f6c63430008020033",
  "devdoc": {
    "custom:experimental": "This is an experimental contract. There could be future changes according to the change in the requirements",
    "kind": "dev",
    "methods": {
      "owner()": {
        "details": "Returns the address of the current owner."
      },
      "renounceOwnership()": {
        "details": "Leaves the contract without owner. It will not be possible to call `onlyOwner` functions anymore. Can only be called by the current owner. NOTE: Renouncing ownership will leave the contract without an owner, thereby removing any functionality that is only available to the owner."
      },
      "transferOwnership(address)": {
        "details": "Transfers ownership of the contract to a new account (`newOwner`). Can only be called by the current owner."
      }
    },
    "title": "OperatorFilterSubription",
    "version": 1
  },
  "userdoc": {
    "kind": "user",
    "methods": {},
    "notice": "This contract is ment to register and copy the default subscription of the openSea for the operator filter and our Token contract are supposed to subscribe to This contract on openSea operator filter registry",
    "version": 1
  },
  "storageLayout": {
    "storage": [
      {
        "astId": 10217,
        "contract": "src/solc_0.8/OperatorFilterer/contracts/OperatorFilterRegistrant.sol:OperatorFilterSubscription",
        "label": "_initialized",
        "offset": 0,
        "slot": "0",
        "type": "t_bool"
      },
      {
        "astId": 10220,
        "contract": "src/solc_0.8/OperatorFilterer/contracts/OperatorFilterRegistrant.sol:OperatorFilterSubscription",
        "label": "_initializing",
        "offset": 1,
        "slot": "0",
        "type": "t_bool"
      },
      {
        "astId": 12276,
        "contract": "src/solc_0.8/OperatorFilterer/contracts/OperatorFilterRegistrant.sol:OperatorFilterSubscription",
        "label": "__gap",
        "offset": 0,
        "slot": "1",
        "type": "t_array(t_uint256)50_storage"
      },
      {
        "astId": 9994,
        "contract": "src/solc_0.8/OperatorFilterer/contracts/OperatorFilterRegistrant.sol:OperatorFilterSubscription",
        "label": "_owner",
        "offset": 0,
        "slot": "51",
        "type": "t_address"
      },
      {
        "astId": 10108,
        "contract": "src/solc_0.8/OperatorFilterer/contracts/OperatorFilterRegistrant.sol:OperatorFilterSubscription",
        "label": "__gap",
        "offset": 0,
        "slot": "52",
        "type": "t_array(t_uint256)49_storage"
      }
    ],
    "types": {
      "t_address": {
        "encoding": "inplace",
        "label": "address",
        "numberOfBytes": "20"
      },
      "t_array(t_uint256)49_storage": {
        "base": "t_uint256",
        "encoding": "inplace",
        "label": "uint256[49]",
        "numberOfBytes": "1568"
      },
      "t_array(t_uint256)50_storage": {
        "base": "t_uint256",
        "encoding": "inplace",
        "label": "uint256[50]",
        "numberOfBytes": "1600"
      },
      "t_bool": {
        "encoding": "inplace",
        "label": "bool",
        "numberOfBytes": "1"
      },
      "t_uint256": {
        "encoding": "inplace",
        "label": "uint256",
        "numberOfBytes": "32"
      }
    }
  }
}