{
  "address": "0xCFdB0AFBA763C7f87cF223bb16F3E0E516E2c737",
  "abi": [
    {
      "inputs": [],
      "stateMutability": "nonpayable",
      "type": "constructor"
    },
    {
      "anonymous": false,
      "inputs": [
        {
          "indexed": true,
          "internalType": "address",
          "name": "owner",
          "type": "address"
        },
        {
          "indexed": true,
          "internalType": "address",
          "name": "approved",
          "type": "address"
        },
        {
          "indexed": true,
          "internalType": "uint256",
          "name": "tokenId",
          "type": "uint256"
        }
      ],
      "name": "Approval",
      "type": "event"
    },
    {
      "anonymous": false,
      "inputs": [
        {
          "indexed": true,
          "internalType": "address",
          "name": "owner",
          "type": "address"
        },
        {
          "indexed": true,
          "internalType": "address",
          "name": "operator",
          "type": "address"
        },
        {
          "indexed": false,
          "internalType": "bool",
          "name": "approved",
          "type": "bool"
        }
      ],
      "name": "ApprovalForAll",
      "type": "event"
    },
    {
      "anonymous": false,
      "inputs": [
        {
          "indexed": true,
          "internalType": "bytes32",
          "name": "role",
          "type": "bytes32"
        },
        {
          "indexed": true,
          "internalType": "bytes32",
          "name": "previousAdminRole",
          "type": "bytes32"
        },
        {
          "indexed": true,
          "internalType": "bytes32",
          "name": "newAdminRole",
          "type": "bytes32"
        }
      ],
      "name": "RoleAdminChanged",
      "type": "event"
    },
    {
      "anonymous": false,
      "inputs": [
        {
          "indexed": true,
          "internalType": "bytes32",
          "name": "role",
          "type": "bytes32"
        },
        {
          "indexed": true,
          "internalType": "address",
          "name": "account",
          "type": "address"
        },
        {
          "indexed": true,
          "internalType": "address",
          "name": "sender",
          "type": "address"
        }
      ],
      "name": "RoleGranted",
      "type": "event"
    },
    {
      "anonymous": false,
      "inputs": [
        {
          "indexed": true,
          "internalType": "bytes32",
          "name": "role",
          "type": "bytes32"
        },
        {
          "indexed": true,
          "internalType": "address",
          "name": "account",
          "type": "address"
        },
        {
          "indexed": true,
          "internalType": "address",
          "name": "sender",
          "type": "address"
        }
      ],
      "name": "RoleRevoked",
      "type": "event"
    },
    {
      "anonymous": false,
      "inputs": [
        {
          "indexed": true,
          "internalType": "address",
          "name": "from",
          "type": "address"
        },
        {
          "indexed": true,
          "internalType": "address",
          "name": "to",
          "type": "address"
        },
        {
          "indexed": true,
          "internalType": "uint256",
          "name": "tokenId",
          "type": "uint256"
        }
      ],
      "name": "Transfer",
      "type": "event"
    },
    {
      "inputs": [],
      "name": "DEFAULT_ADMIN_ROLE",
      "outputs": [
        {
          "internalType": "bytes32",
          "name": "",
          "type": "bytes32"
        }
      ],
      "stateMutability": "view",
      "type": "function"
    },
    {
      "inputs": [],
      "name": "KYC_ROLE",
      "outputs": [
        {
          "internalType": "bytes32",
          "name": "",
          "type": "bytes32"
        }
      ],
      "stateMutability": "view",
      "type": "function"
    },
    {
      "inputs": [],
      "name": "KYC_TYPEHASH",
      "outputs": [
        {
          "internalType": "bytes32",
          "name": "",
          "type": "bytes32"
        }
      ],
      "stateMutability": "view",
      "type": "function"
    },
    {
      "inputs": [
        {
          "internalType": "address",
          "name": "to",
          "type": "address"
        },
        {
          "internalType": "uint256",
          "name": "tokenId",
          "type": "uint256"
        }
      ],
      "name": "approve",
      "outputs": [],
      "stateMutability": "nonpayable",
      "type": "function"
    },
    {
      "inputs": [
        {
          "internalType": "address",
          "name": "owner",
          "type": "address"
        }
      ],
      "name": "balanceOf",
      "outputs": [
        {
          "internalType": "uint256",
          "name": "",
          "type": "uint256"
        }
      ],
      "stateMutability": "view",
      "type": "function"
    },
    {
      "inputs": [],
      "name": "baseURI",
      "outputs": [
        {
          "internalType": "string",
          "name": "",
          "type": "string"
        }
      ],
      "stateMutability": "view",
      "type": "function"
    },
    {
      "inputs": [
        {
          "internalType": "uint256",
          "name": "id",
          "type": "uint256"
        }
      ],
      "name": "burn",
      "outputs": [],
      "stateMutability": "nonpayable",
      "type": "function"
    },
    {
      "inputs": [
        {
          "internalType": "address",
          "name": "from",
          "type": "address"
        },
        {
          "internalType": "uint256",
          "name": "id",
          "type": "uint256"
        }
      ],
      "name": "burnFrom",
      "outputs": [],
      "stateMutability": "nonpayable",
      "type": "function"
    },
    {
      "inputs": [
        {
          "components": [
            {
              "internalType": "address",
              "name": "to",
              "type": "address"
            },
            {
              "internalType": "bytes",
              "name": "signature",
              "type": "bytes"
            },
            {
              "internalType": "bytes",
              "name": "backendSignature",
              "type": "bytes"
            }
          ],
          "internalType": "struct KYCERC721.ClaimKYCToken",
          "name": "input",
          "type": "tuple"
        }
      ],
      "name": "claimKYCToken",
      "outputs": [
        {
          "internalType": "uint256",
          "name": "",
          "type": "uint256"
        }
      ],
      "stateMutability": "nonpayable",
      "type": "function"
    },
    {
      "inputs": [],
      "name": "domainSeparator",
      "outputs": [
        {
          "internalType": "bytes32",
          "name": "",
          "type": "bytes32"
        }
      ],
      "stateMutability": "view",
      "type": "function"
    },
    {
      "inputs": [
        {
          "internalType": "uint256",
          "name": "id",
          "type": "uint256"
        }
      ],
      "name": "exists",
      "outputs": [
        {
          "internalType": "bool",
          "name": "",
          "type": "bool"
        }
      ],
      "stateMutability": "view",
      "type": "function"
    },
    {
      "inputs": [
        {
          "internalType": "uint256",
          "name": "tokenId",
          "type": "uint256"
        }
      ],
      "name": "getApproved",
      "outputs": [
        {
          "internalType": "address",
          "name": "",
          "type": "address"
        }
      ],
      "stateMutability": "view",
      "type": "function"
    },
    {
      "inputs": [],
      "name": "getAuthValidator",
      "outputs": [
        {
          "internalType": "address",
          "name": "",
          "type": "address"
        }
      ],
      "stateMutability": "view",
      "type": "function"
    },
    {
      "inputs": [],
      "name": "getChainId",
      "outputs": [
        {
          "internalType": "uint256",
          "name": "",
          "type": "uint256"
        }
      ],
      "stateMutability": "view",
      "type": "function"
    },
    {
      "inputs": [
        {
          "internalType": "bytes32",
          "name": "role",
          "type": "bytes32"
        }
      ],
      "name": "getRoleAdmin",
      "outputs": [
        {
          "internalType": "bytes32",
          "name": "",
          "type": "bytes32"
        }
      ],
      "stateMutability": "view",
      "type": "function"
    },
    {
      "inputs": [],
      "name": "getTokenIdCounter",
      "outputs": [
        {
          "internalType": "uint256",
          "name": "",
          "type": "uint256"
        }
      ],
      "stateMutability": "view",
      "type": "function"
    },
    {
      "inputs": [],
      "name": "getTrustedForwarder",
      "outputs": [
        {
          "internalType": "address",
          "name": "trustedForwarder",
          "type": "address"
        }
      ],
      "stateMutability": "view",
      "type": "function"
    },
    {
      "inputs": [
        {
          "internalType": "bytes32",
          "name": "role",
          "type": "bytes32"
        },
        {
          "internalType": "address",
          "name": "account",
          "type": "address"
        }
      ],
      "name": "grantRole",
      "outputs": [],
      "stateMutability": "nonpayable",
      "type": "function"
    },
    {
      "inputs": [
        {
          "internalType": "bytes32",
          "name": "role",
          "type": "bytes32"
        },
        {
          "internalType": "address",
          "name": "account",
          "type": "address"
        }
      ],
      "name": "hasRole",
      "outputs": [
        {
          "internalType": "bool",
          "name": "",
          "type": "bool"
        }
      ],
      "stateMutability": "view",
      "type": "function"
    },
    {
      "inputs": [
        {
          "internalType": "address",
          "name": "sandAdmin",
          "type": "address"
        },
        {
          "internalType": "address",
          "name": "kycAdmin",
          "type": "address"
        },
        {
          "internalType": "address",
          "name": "trustedForwarder",
          "type": "address"
        },
        {
          "internalType": "address",
          "name": "authValidator",
          "type": "address"
        },
        {
          "internalType": "string",
          "name": "uri",
          "type": "string"
        }
      ],
      "name": "initialize",
      "outputs": [],
      "stateMutability": "nonpayable",
      "type": "function"
    },
    {
      "inputs": [
        {
          "internalType": "address",
          "name": "owner",
          "type": "address"
        },
        {
          "internalType": "address",
          "name": "operator",
          "type": "address"
        }
      ],
      "name": "isApprovedForAll",
      "outputs": [
        {
          "internalType": "bool",
          "name": "",
          "type": "bool"
        }
      ],
      "stateMutability": "view",
      "type": "function"
    },
    {
      "inputs": [
        {
          "internalType": "address",
          "name": "forwarder",
          "type": "address"
        }
      ],
      "name": "isTrustedForwarder",
      "outputs": [
        {
          "internalType": "bool",
          "name": "",
          "type": "bool"
        }
      ],
      "stateMutability": "view",
      "type": "function"
    },
    {
      "inputs": [
        {
          "internalType": "address",
          "name": "to",
          "type": "address"
        }
      ],
      "name": "mint",
      "outputs": [
        {
          "internalType": "uint256",
          "name": "",
          "type": "uint256"
        }
      ],
      "stateMutability": "nonpayable",
      "type": "function"
    },
    {
      "inputs": [],
      "name": "name",
      "outputs": [
        {
          "internalType": "string",
          "name": "",
          "type": "string"
        }
      ],
      "stateMutability": "view",
      "type": "function"
    },
    {
      "inputs": [
        {
          "internalType": "uint256",
          "name": "tokenId",
          "type": "uint256"
        }
      ],
      "name": "ownerOf",
      "outputs": [
        {
          "internalType": "address",
          "name": "",
          "type": "address"
        }
      ],
      "stateMutability": "view",
      "type": "function"
    },
    {
      "inputs": [
        {
          "internalType": "bytes32",
          "name": "role",
          "type": "bytes32"
        },
        {
          "internalType": "address",
          "name": "account",
          "type": "address"
        }
      ],
      "name": "renounceRole",
      "outputs": [],
      "stateMutability": "nonpayable",
      "type": "function"
    },
    {
      "inputs": [
        {
          "internalType": "bytes32",
          "name": "role",
          "type": "bytes32"
        },
        {
          "internalType": "address",
          "name": "account",
          "type": "address"
        }
      ],
      "name": "revokeRole",
      "outputs": [],
      "stateMutability": "nonpayable",
      "type": "function"
    },
    {
      "inputs": [
        {
          "internalType": "address",
          "name": "from",
          "type": "address"
        },
        {
          "internalType": "address",
          "name": "to",
          "type": "address"
        },
        {
          "internalType": "uint256",
          "name": "tokenId",
          "type": "uint256"
        }
      ],
      "name": "safeTransferFrom",
      "outputs": [],
      "stateMutability": "nonpayable",
      "type": "function"
    },
    {
      "inputs": [
        {
          "internalType": "address",
          "name": "from",
          "type": "address"
        },
        {
          "internalType": "address",
          "name": "to",
          "type": "address"
        },
        {
          "internalType": "uint256",
          "name": "tokenId",
          "type": "uint256"
        },
        {
          "internalType": "bytes",
          "name": "_data",
          "type": "bytes"
        }
      ],
      "name": "safeTransferFrom",
      "outputs": [],
      "stateMutability": "nonpayable",
      "type": "function"
    },
    {
      "inputs": [
        {
          "internalType": "address",
          "name": "operator",
          "type": "address"
        },
        {
          "internalType": "bool",
          "name": "approved",
          "type": "bool"
        }
      ],
      "name": "setApprovalForAll",
      "outputs": [],
      "stateMutability": "nonpayable",
      "type": "function"
    },
    {
      "inputs": [
        {
          "internalType": "string",
          "name": "uri",
          "type": "string"
        }
      ],
      "name": "setBaseURI",
      "outputs": [],
      "stateMutability": "nonpayable",
      "type": "function"
    },
    {
      "inputs": [
        {
          "internalType": "bytes4",
          "name": "id",
          "type": "bytes4"
        }
      ],
      "name": "supportsInterface",
      "outputs": [
        {
          "internalType": "bool",
          "name": "",
          "type": "bool"
        }
      ],
      "stateMutability": "view",
      "type": "function"
    },
    {
      "inputs": [],
      "name": "symbol",
      "outputs": [
        {
          "internalType": "string",
          "name": "",
          "type": "string"
        }
      ],
      "stateMutability": "view",
      "type": "function"
    },
    {
      "inputs": [],
      "name": "tokenId",
      "outputs": [
        {
          "internalType": "uint256",
          "name": "",
          "type": "uint256"
        }
      ],
      "stateMutability": "view",
      "type": "function"
    },
    {
      "inputs": [
        {
          "internalType": "uint256",
          "name": "tokenId",
          "type": "uint256"
        }
      ],
      "name": "tokenURI",
      "outputs": [
        {
          "internalType": "string",
          "name": "",
          "type": "string"
        }
      ],
      "stateMutability": "view",
      "type": "function"
    },
    {
      "inputs": [
        {
          "internalType": "address",
          "name": "from",
          "type": "address"
        },
        {
          "internalType": "address",
          "name": "to",
          "type": "address"
        },
        {
          "internalType": "uint256",
          "name": "tokenId",
          "type": "uint256"
        }
      ],
      "name": "transferFrom",
      "outputs": [],
      "stateMutability": "nonpayable",
      "type": "function"
    }
  ],
  "transactionHash": "0xa2f6a005cb51db6c7b82ad32a9af10e518fdafc2a580feb41aed3b9f106308a6",
  "args": [],
  "numDeployments": 1,
  "solcInputHash": "68def0efea3f7e5ba815587c5946546f",
  "bytecode": "0x60806040523480156200001157600080fd5b50600054610100900460ff166200002f5760005460ff161562000039565b62000039620000e7565b620000a15760405162461bcd60e51b815260206004820152602e60248201527f496e697469616c697a61626c653a20636f6e747261637420697320616c72656160448201526d191e481a5b9a5d1a585b1a5e995960921b606482015260840160405180910390fd5b600054610100900460ff16158015620000cd576000805460ff1961ff0019909116610100171660011790555b8015620000e0576000805461ff00191690555b506200010b565b6000620000ff306200010560201b620011f11760201c565b15905090565b3b151590565b6133a4806200011b6000396000f3fe608060405234801561001057600080fd5b506004361061025c5760003560e01c80636c0360eb11610145578063ce1b815f116100bd578063e76117281161008c578063e985e9c511610071578063e985e9c514610528578063f698da2514610564578063f9c8dec31461056c5761025c565b8063e7611728146104ee578063e8f1fc64146105155761025c565b8063ce1b815f146104af578063d547741f146104c0578063d5f2077c146104d3578063dbfd4b98146104e55761025c565b806395d89b4111610114578063a22cb465116100f9578063a22cb46514610476578063b88d4fde14610489578063c87b56dd1461049c5761025c565b806395d89b4114610466578063a217fddf1461046e5761025c565b80636c0360eb146103ff57806370a082311461040757806379cc67901461041a57806391d148541461042d5761025c565b80633408e470116101d85780634f558e79116101a7578063572b6c051161018c578063572b6c05146103b75780636352211e146103d95780636a627842146103ec5761025c565b80634f558e791461039157806355f804b3146103a45761025c565b80633408e4701461035257806336568abe1461035857806342842e0e1461036b57806342966c681461037e5761025c565b806317d70f7c1161022f578063248a9ca311610214578063248a9ca3146103095780632f2ff15d1461032c5780632fb3b3611461033f5761025c565b806317d70f7c146102de57806323b872dd146102f65761025c565b806301ffc9a71461026157806306fdde0314610289578063081812fc1461029e578063095ea7b3146102c9575b600080fd5b61027461026f366004612f5f565b610593565b60405190151581526020015b60405180910390f35b6102916105a6565b60405161028091906131a3565b6102b16102ac366004612f25565b610639565b6040516001600160a01b039091168152602001610280565b6102dc6102d7366004612ee0565b6106e4565b005b6102e86101615481565b604051908152602001610280565b6102dc610304366004612e09565b610828565b6102e8610317366004612f25565b60009081526099602052604090206001015490565b6102dc61033a366004612f3d565b6108b6565b6102dc61034d366004612d8b565b6108e3565b466102e8565b6102dc610366366004612f3d565b610b3c565b6102dc610379366004612e09565b610bd8565b6102dc61038c366004612f25565b610bf3565b61027461039f366004612f25565b610c6f565b6102dc6103b2366004612f97565b610c8e565b6102746103c5366004612d3f565b60fd546001600160a01b0390811691161490565b6102b16103e7366004612f25565b610cb0565b6102e86103fa366004612d3f565b610d3b565b610291610d7c565b6102e8610415366004612d3f565b610d8b565b6102dc610428366004612ee0565b610e25565b61027461043b366004612f3d565b60009182526099602090815260408084206001600160a01b0393909316845291905290205460ff1690565b610291610ec4565b6102e8600081565b6102dc610484366004612eaa565b610ed3565b6102dc610497366004612e44565b610ee5565b6102916104aa366004612f25565b610f7a565b60fd546001600160a01b03166102b1565b6102dc6104ce366004612f3d565b61109e565b610163546001600160a01b03166102b1565b610161546102e8565b6102e87faa289e451c5901b08e20a7b387e7fb5704fdac98833cf0cdfe880007e4abf1c181565b6102e8610523366004612fca565b6110c6565b610274610536366004612d59565b6001600160a01b03918216600090815260d06020908152604080832093909416825291909152205460ff1690565b6102e86111e7565b6102e87fdb11624602202c396fa347735a55e345a3aeb3e60f8885e1a71f1bf8d5886db781565b600061059e826111f7565b90505b919050565b606060cb80546105b59061328c565b80601f01602080910402602001604051908101604052809291908181526020018280546105e19061328c565b801561062e5780601f106106035761010080835404028352916020019161062e565b820191906000526020600020905b81548152906001019060200180831161061157829003601f168201915b505050505090505b90565b600081815260cd60205260408120546001600160a01b03166106c85760405162461bcd60e51b815260206004820152602c60248201527f4552433732313a20617070726f76656420717565727920666f72206e6f6e657860448201527f697374656e7420746f6b656e000000000000000000000000000000000000000060648201526084015b60405180910390fd5b50600090815260cf60205260409020546001600160a01b031690565b60006106ef82610cb0565b9050806001600160a01b0316836001600160a01b031614156107795760405162461bcd60e51b815260206004820152602160248201527f4552433732313a20617070726f76616c20746f2063757272656e74206f776e6560448201527f720000000000000000000000000000000000000000000000000000000000000060648201526084016106bf565b806001600160a01b031661078b611299565b6001600160a01b031614806107a757506107a781610536611299565b6108195760405162461bcd60e51b815260206004820152603860248201527f4552433732313a20617070726f76652063616c6c6572206973206e6f74206f7760448201527f6e6572206e6f7220617070726f76656420666f7220616c6c000000000000000060648201526084016106bf565b61082383836112a3565b505050565b610839610833611299565b8261131e565b6108ab5760405162461bcd60e51b815260206004820152603160248201527f4552433732313a207472616e736665722063616c6c6572206973206e6f74206f60448201527f776e6572206e6f7220617070726f76656400000000000000000000000000000060648201526084016106bf565b610823838383611422565b6000828152609960205260409020600101546108d9816108d4611299565b611607565b6108238383611687565b600054610100900460ff166108fe5760005460ff1615610902565b303b155b6109745760405162461bcd60e51b815260206004820152602e60248201527f496e697469616c697a61626c653a20636f6e747261637420697320616c72656160448201527f647920696e697469616c697a656400000000000000000000000000000000000060648201526084016106bf565b600054610100900460ff1615801561099f576000805460ff1961ff0019909116610100171660011790555b6109aa600087611687565b6109d47fdb11624602202c396fa347735a55e345a3aeb3e60f8885e1a71f1bf8d5886db786611687565b610a486040518060400160405280601481526020017f53616e64626f782773204b5943204552433732310000000000000000000000008152506040518060400160405280600381526020017f4b5943000000000000000000000000000000000000000000000000000000000081525061172a565b610abc6040518060400160405280601181526020017f53616e64626f78204b594320546f6b656e0000000000000000000000000000008152506040518060400160405280600381526020017f312e3000000000000000000000000000000000000000000000000000000000008152506117af565b60fd805473ffffffffffffffffffffffffffffffffffffffff19166001600160a01b038616179055610163805473ffffffffffffffffffffffffffffffffffffffff19166001600160a01b0385161790558151610b2190610162906020850190612c24565b508015610b34576000805461ff00191690555b505050505050565b610b44611299565b6001600160a01b0316816001600160a01b031614610bca5760405162461bcd60e51b815260206004820152602f60248201527f416363657373436f6e74726f6c3a2063616e206f6e6c792072656e6f756e636560448201527f20726f6c657320666f722073656c66000000000000000000000000000000000060648201526084016106bf565b610bd48282611824565b5050565b61082383838360405180602001604052806000815250610ee5565b610bfc81610cb0565b6001600160a01b0316610c0d611299565b6001600160a01b031614610c635760405162461bcd60e51b815260206004820152600960248201527f4e4f545f4f574e4552000000000000000000000000000000000000000000000060448201526064016106bf565b610c6c816118c5565b50565b600081815260cd60205260408120546001600160a01b0316151561059e565b6000610c9c816108d4611299565b815161082390610162906020850190612c24565b600081815260cd60205260408120546001600160a01b03168061059e5760405162461bcd60e51b815260206004820152602960248201527f4552433732313a206f776e657220717565727920666f72206e6f6e657869737460448201527f656e7420746f6b656e000000000000000000000000000000000000000000000060648201526084016106bf565b60007fdb11624602202c396fa347735a55e345a3aeb3e60f8885e1a71f1bf8d5886db7610d6a816108d4611299565b610d7383611979565b91505b50919050565b6060610d866119f8565b905090565b60006001600160a01b038216610e095760405162461bcd60e51b815260206004820152602a60248201527f4552433732313a2062616c616e636520717565727920666f7220746865207a6560448201527f726f20616464726573730000000000000000000000000000000000000000000060648201526084016106bf565b506001600160a01b0316600090815260ce602052604090205490565b7fdb11624602202c396fa347735a55e345a3aeb3e60f8885e1a71f1bf8d5886db7610e52816108d4611299565b610e5b82610cb0565b6001600160a01b0316836001600160a01b031614610ebb5760405162461bcd60e51b815260206004820152600960248201527f4e4f545f4f574e4552000000000000000000000000000000000000000000000060448201526064016106bf565b610823826118c5565b606060cc80546105b59061328c565b610bd4610ede611299565b8383611a08565b610ef6610ef0611299565b8361131e565b610f685760405162461bcd60e51b815260206004820152603160248201527f4552433732313a207472616e736665722063616c6c6572206973206e6f74206f60448201527f776e6572206e6f7220617070726f76656400000000000000000000000000000060648201526084016106bf565b610f7484848484611ad7565b50505050565b60606000610f8783610cb0565b6001600160a01b03161415610fde5760405162461bcd60e51b815260206004820152600c60248201527f5a45524f5f41444452455353000000000000000000000000000000000000000060448201526064016106bf565b600082815260cd60205260409020546001600160a01b03166110425760405162461bcd60e51b815260206004820152600d60248201527f494e56414c49445f544f4b454e0000000000000000000000000000000000000060448201526064016106bf565b600061104c6119f8565b9050600081511161106c5760405180602001604052806000815250610d73565b8061107684611b60565b604051602001611087929190613095565b604051602081830303815290604052915050919050565b6000828152609960205260409020600101546110bc816108d4611299565b6108238383611824565b600081604001516110da8360000151611caf565b610163546040517f012847ed0000000000000000000000000000000000000000000000000000000081526001600160a01b039091169063012847ed906111269085908590600401613181565b60206040518083038186803b15801561113e57600080fd5b505afa158015611152573d6000803e3d6000fd5b505050506040513d601f19601f820116820180604052508101906111769190612f09565b6111c25760405162461bcd60e51b815260206004820152600c60248201527f494e56414c49445f41555448000000000000000000000000000000000000000060448201526064016106bf565b6111d484602001518560000151611d13565b83516111df90611979565b949350505050565b6000610d86611df7565b3b151590565b60007fffffffff0000000000000000000000000000000000000000000000000000000082167f80ac58cd00000000000000000000000000000000000000000000000000000000148061128a57507fffffffff0000000000000000000000000000000000000000000000000000000082167f5b5e139f00000000000000000000000000000000000000000000000000000000145b8061059e575061059e82611e72565b6000610d86611f09565b600081815260cf60205260409020805473ffffffffffffffffffffffffffffffffffffffff19166001600160a01b03841690811790915581906112e582610cb0565b6001600160a01b03167f8c5be1e5ebec7d5bd14f71427d1e84f3dd0314c0f7b2291e5b200ac8c7c3b92560405160405180910390a45050565b600081815260cd60205260408120546001600160a01b03166113a85760405162461bcd60e51b815260206004820152602c60248201527f4552433732313a206f70657261746f7220717565727920666f72206e6f6e657860448201527f697374656e7420746f6b656e000000000000000000000000000000000000000060648201526084016106bf565b60006113b383610cb0565b9050806001600160a01b0316846001600160a01b031614806113ee5750836001600160a01b03166113e384610639565b6001600160a01b0316145b806111df57506001600160a01b03808216600090815260d0602090815260408083209388168352929052205460ff166111df565b826001600160a01b031661143582610cb0565b6001600160a01b0316146114b15760405162461bcd60e51b815260206004820152602960248201527f4552433732313a207472616e73666572206f6620746f6b656e2074686174206960448201527f73206e6f74206f776e000000000000000000000000000000000000000000000060648201526084016106bf565b6001600160a01b03821661152c5760405162461bcd60e51b8152602060048201526024808201527f4552433732313a207472616e7366657220746f20746865207a65726f2061646460448201527f726573730000000000000000000000000000000000000000000000000000000060648201526084016106bf565b611537838383611f53565b6115426000826112a3565b6001600160a01b038316600090815260ce6020526040812080546001929061156b908490613232565b90915550506001600160a01b038216600090815260ce602052604081208054600192906115999084906131e7565b9091555050600081815260cd6020526040808220805473ffffffffffffffffffffffffffffffffffffffff19166001600160a01b0386811691821790925591518493918716917fddf252ad1be2c89b69c2b068fc378daa952ba7f163c4a11628f55a4df523b3ef91a4505050565b60008281526099602090815260408083206001600160a01b038516845290915290205460ff16610bd457611645816001600160a01b03166014611fc1565b611650836020611fc1565b6040516020016116619291906130c4565b60408051601f198184030181529082905262461bcd60e51b82526106bf916004016131a3565b60008281526099602090815260408083206001600160a01b038516845290915290205460ff16610bd45760008281526099602090815260408083206001600160a01b03851684529091529020805460ff191660011790556116e6611299565b6001600160a01b0316816001600160a01b0316837f2f8788117e7eff1d82e926ec794901d17c78024a50270940304540a733656f0d60405160405180910390a45050565b600054610100900460ff166117955760405162461bcd60e51b815260206004820152602b60248201527f496e697469616c697a61626c653a20636f6e7472616374206973206e6f74206960448201526a6e697469616c697a696e6760a81b60648201526084016106bf565b61179d612237565b6117a5612237565b610bd482826122a4565b600054610100900460ff1661181a5760405162461bcd60e51b815260206004820152602b60248201527f496e697469616c697a61626c653a20636f6e7472616374206973206e6f74206960448201526a6e697469616c697a696e6760a81b60648201526084016106bf565b610bd48282612336565b60008281526099602090815260408083206001600160a01b038516845290915290205460ff1615610bd45760008281526099602090815260408083206001600160a01b03851684529091529020805460ff19169055611881611299565b6001600160a01b0316816001600160a01b0316837ff6391f5c32d9c69d2a47ea670b442974b53935d1edc7fd64eb21e047a839171b60405160405180910390a45050565b60006118d082610cb0565b90506118de81600084611f53565b6118e96000836112a3565b6001600160a01b038116600090815260ce60205260408120805460019290611912908490613232565b9091555050600082815260cd6020526040808220805473ffffffffffffffffffffffffffffffffffffffff19169055518391906001600160a01b038416907fddf252ad1be2c89b69c2b068fc378daa952ba7f163c4a11628f55a4df523b3ef908390a45050565b600061198482610d8b565b156119d15760405162461bcd60e51b815260206004820152601060248201527f4b59434552433732315f4953535545440000000000000000000000000000000060448201526064016106bf565b6119ef82610161600081546119e5906132c1565b91829055506123bb565b50506101615490565b606061016280546105b59061328c565b816001600160a01b0316836001600160a01b03161415611a6a5760405162461bcd60e51b815260206004820152601960248201527f4552433732313a20617070726f766520746f2063616c6c65720000000000000060448201526064016106bf565b6001600160a01b03838116600081815260d06020908152604080832094871680845294825291829020805460ff191686151590811790915591519182527f17307eab39ab6107e8899845ad3d59bd9653f200f220920489ca2b5937696c31910160405180910390a3505050565b611ae2848484611422565b611aee848484846123d5565b610f745760405162461bcd60e51b815260206004820152603260248201527f4552433732313a207472616e7366657220746f206e6f6e20455243373231526560448201527f63656976657220696d706c656d656e746572000000000000000000000000000060648201526084016106bf565b606081611ba1575060408051808201909152600181527f300000000000000000000000000000000000000000000000000000000000000060208201526105a1565b8160005b8115611bcb5780611bb5816132c1565b9150611bc49050600a836131ff565b9150611ba5565b60008167ffffffffffffffff811115611bf457634e487b7160e01b600052604160045260246000fd5b6040519080825280601f01601f191660200182016040528015611c1e576020820181803683370190505b5090505b84156111df57611c33600183613232565b9150611c40600a866132dc565b611c4b9060306131e7565b60f81b818381518110611c6e57634e487b7160e01b600052603260045260246000fd5b60200101907effffffffffffffffffffffffffffffffffffffffffffffffffffffffffffff1916908160001a905350611ca8600a866131ff565b9450611c22565b60007faa289e451c5901b08e20a7b387e7fb5704fdac98833cf0cdfe880007e4abf1c182604051602001611cf69291909182526001600160a01b0316602082015260400190565b604051602081830303815290604052805190602001209050919050565b6000611d1e82612570565b90506000611d2c82856125d5565b9050611d36611299565b6001600160a01b0316816001600160a01b031614611d965760405162461bcd60e51b815260206004820152600a60248201527f4e4f545f53454e4445520000000000000000000000000000000000000000000060448201526064016106bf565b826001600160a01b0316816001600160a01b031614610f745760405162461bcd60e51b815260206004820152600660248201527f4e4f545f544f000000000000000000000000000000000000000000000000000060448201526064016106bf565b6000610d867f8b73c3c69bb8fe3d512ecc4cf759cc79239f7b179b0ffacaa9a75d522b39400f611e2660015490565b6002546040805160208101859052908101839052606081018290524660808201523060a082015260009060c0016040516020818303038152906040528051906020012090509392505050565b60007fffffffff0000000000000000000000000000000000000000000000000000000082167f7965db0b00000000000000000000000000000000000000000000000000000000148061059e57507f01ffc9a7000000000000000000000000000000000000000000000000000000007fffffffff0000000000000000000000000000000000000000000000000000000083161461059e565b60fd546000906001600160a01b0316331415611f4c57507fffffffffffffffffffffffffffffffffffffffffffffffffffffffffffffffec36013560601c610636565b5033610636565b6001600160a01b0383161580611f7057506001600160a01b038216155b611fbc5760405162461bcd60e51b815260206004820152601060248201527f4e4f545f5452414e5346455241424c450000000000000000000000000000000060448201526064016106bf565b610823565b60606000611fd0836002613213565b611fdb9060026131e7565b67ffffffffffffffff81111561200157634e487b7160e01b600052604160045260246000fd5b6040519080825280601f01601f19166020018201604052801561202b576020820181803683370190505b5090507f30000000000000000000000000000000000000000000000000000000000000008160008151811061207057634e487b7160e01b600052603260045260246000fd5b60200101907effffffffffffffffffffffffffffffffffffffffffffffffffffffffffffff1916908160001a9053507f7800000000000000000000000000000000000000000000000000000000000000816001815181106120e157634e487b7160e01b600052603260045260246000fd5b60200101907effffffffffffffffffffffffffffffffffffffffffffffffffffffffffffff1916908160001a905350600061211d846002613213565b6121289060016131e7565b90505b60018111156121e1577f303132333435363738396162636465660000000000000000000000000000000085600f166010811061217757634e487b7160e01b600052603260045260246000fd5b1a60f81b82828151811061219b57634e487b7160e01b600052603260045260246000fd5b60200101907effffffffffffffffffffffffffffffffffffffffffffffffffffffffffffff1916908160001a90535060049490941c936121da81613275565b905061212b565b5083156122305760405162461bcd60e51b815260206004820181905260248201527f537472696e67733a20686578206c656e67746820696e73756666696369656e7460448201526064016106bf565b9392505050565b600054610100900460ff166122a25760405162461bcd60e51b815260206004820152602b60248201527f496e697469616c697a61626c653a20636f6e7472616374206973206e6f74206960448201526a6e697469616c697a696e6760a81b60648201526084016106bf565b565b600054610100900460ff1661230f5760405162461bcd60e51b815260206004820152602b60248201527f496e697469616c697a61626c653a20636f6e7472616374206973206e6f74206960448201526a6e697469616c697a696e6760a81b60648201526084016106bf565b81516123229060cb906020850190612c24565b5080516108239060cc906020840190612c24565b600054610100900460ff166123a15760405162461bcd60e51b815260206004820152602b60248201527f496e697469616c697a61626c653a20636f6e7472616374206973206e6f74206960448201526a6e697469616c697a696e6760a81b60648201526084016106bf565b815160209283012081519190920120600191909155600255565b610bd48282604051806020016040528060008152506125f9565b60006001600160a01b0384163b1561256557836001600160a01b031663150b7a026123fe611299565b8786866040518563ffffffff1660e01b81526004016124209493929190613145565b602060405180830381600087803b15801561243a57600080fd5b505af192505050801561246a575060408051601f3d908101601f1916820190925261246791810190612f7b565b60015b61251a573d808015612498576040519150601f19603f3d011682016040523d82523d6000602084013e61249d565b606091505b5080516125125760405162461bcd60e51b815260206004820152603260248201527f4552433732313a207472616e7366657220746f206e6f6e20455243373231526560448201527f63656976657220696d706c656d656e746572000000000000000000000000000060648201526084016106bf565b805181602001fd5b7fffffffff00000000000000000000000000000000000000000000000000000000167f150b7a02000000000000000000000000000000000000000000000000000000001490506111df565b506001949350505050565b600061059e7faa289e451c5901b08e20a7b387e7fb5704fdac98833cf0cdfe880007e4abf1c1836040516020016125ba9291909182526001600160a01b0316602082015260400190565b60405160208183030381529060405280519060200120612682565b60008060006125e485856126eb565b915091506125f18161275b565b509392505050565b6126038383612994565b61261060008484846123d5565b6108235760405162461bcd60e51b815260206004820152603260248201527f4552433732313a207472616e7366657220746f206e6f6e20455243373231526560448201527f63656976657220696d706c656d656e746572000000000000000000000000000060648201526084016106bf565b600061059e61268f611df7565b836040517f19010000000000000000000000000000000000000000000000000000000000006020820152602281018390526042810182905260009060620160405160208183030381529060405280519060200120905092915050565b6000808251604114156127225760208301516040840151606085015160001a61271687828585612aef565b94509450505050612754565b82516040141561274c5760208301516040840151612741868383612bdc565b935093505050612754565b506000905060025b9250929050565b600081600481111561277d57634e487b7160e01b600052602160045260246000fd5b141561278857610c6c565b60018160048111156127aa57634e487b7160e01b600052602160045260246000fd5b14156127f85760405162461bcd60e51b815260206004820152601860248201527f45434453413a20696e76616c6964207369676e6174757265000000000000000060448201526064016106bf565b600281600481111561281a57634e487b7160e01b600052602160045260246000fd5b14156128685760405162461bcd60e51b815260206004820152601f60248201527f45434453413a20696e76616c6964207369676e6174757265206c656e6774680060448201526064016106bf565b600381600481111561288a57634e487b7160e01b600052602160045260246000fd5b14156128fe5760405162461bcd60e51b815260206004820152602260248201527f45434453413a20696e76616c6964207369676e6174757265202773272076616c60448201527f756500000000000000000000000000000000000000000000000000000000000060648201526084016106bf565b600481600481111561292057634e487b7160e01b600052602160045260246000fd5b1415610c6c5760405162461bcd60e51b815260206004820152602260248201527f45434453413a20696e76616c6964207369676e6174757265202776272076616c60448201527f756500000000000000000000000000000000000000000000000000000000000060648201526084016106bf565b6001600160a01b0382166129ea5760405162461bcd60e51b815260206004820181905260248201527f4552433732313a206d696e7420746f20746865207a65726f206164647265737360448201526064016106bf565b600081815260cd60205260409020546001600160a01b031615612a4f5760405162461bcd60e51b815260206004820152601c60248201527f4552433732313a20746f6b656e20616c7265616479206d696e7465640000000060448201526064016106bf565b612a5b60008383611f53565b6001600160a01b038216600090815260ce60205260408120805460019290612a849084906131e7565b9091555050600081815260cd6020526040808220805473ffffffffffffffffffffffffffffffffffffffff19166001600160a01b03861690811790915590518392907fddf252ad1be2c89b69c2b068fc378daa952ba7f163c4a11628f55a4df523b3ef908290a45050565b6000807f7fffffffffffffffffffffffffffffff5d576e7357a4501ddfe92f46681b20a0831115612b265750600090506003612bd3565b8460ff16601b14158015612b3e57508460ff16601c14155b15612b4f5750600090506004612bd3565b6040805160008082526020820180845289905260ff881692820192909252606081018690526080810185905260019060a0016020604051602081039080840390855afa158015612ba3573d6000803e3d6000fd5b5050604051601f1901519150506001600160a01b038116612bcc57600060019250925050612bd3565b9150600090505b94509492505050565b6000807f7fffffffffffffffffffffffffffffffffffffffffffffffffffffffffffffff831660ff84901c601b01612c1687828885612aef565b935093505050935093915050565b828054612c309061328c565b90600052602060002090601f016020900481019282612c525760008555612c98565b82601f10612c6b57805160ff1916838001178555612c98565b82800160010185558215612c98579182015b82811115612c98578251825591602001919060010190612c7d565b50612ca4929150612ca8565b5090565b5b80821115612ca45760008155600101612ca9565b80356001600160a01b03811681146105a157600080fd5b600082601f830112612ce4578081fd5b813567ffffffffffffffff811115612cfe57612cfe61331c565b612d116020601f19601f840116016131b6565b818152846020838601011115612d25578283fd5b816020850160208301379081016020019190915292915050565b600060208284031215612d50578081fd5b61223082612cbd565b60008060408385031215612d6b578081fd5b612d7483612cbd565b9150612d8260208401612cbd565b90509250929050565b600080600080600060a08688031215612da2578081fd5b612dab86612cbd565b9450612db960208701612cbd565b9350612dc760408701612cbd565b9250612dd560608701612cbd565b9150608086013567ffffffffffffffff811115612df0578182fd5b612dfc88828901612cd4565b9150509295509295909350565b600080600060608486031215612e1d578283fd5b612e2684612cbd565b9250612e3460208501612cbd565b9150604084013590509250925092565b60008060008060808587031215612e59578384fd5b612e6285612cbd565b9350612e7060208601612cbd565b925060408501359150606085013567ffffffffffffffff811115612e92578182fd5b612e9e87828801612cd4565b91505092959194509250565b60008060408385031215612ebc578182fd5b612ec583612cbd565b91506020830135612ed581613332565b809150509250929050565b60008060408385031215612ef2578182fd5b612efb83612cbd565b946020939093013593505050565b600060208284031215612f1a578081fd5b815161223081613332565b600060208284031215612f36578081fd5b5035919050565b60008060408385031215612f4f578182fd5b82359150612d8260208401612cbd565b600060208284031215612f70578081fd5b813561223081613340565b600060208284031215612f8c578081fd5b815161223081613340565b600060208284031215612fa8578081fd5b813567ffffffffffffffff811115612fbe578182fd5b6111df84828501612cd4565b600060208284031215612fdb578081fd5b813567ffffffffffffffff80821115612ff2578283fd5b9083019060608286031215613005578283fd5b61300f60606131b6565b61301883612cbd565b815260208301358281111561302b578485fd5b61303787828601612cd4565b60208301525060408301358281111561304e578485fd5b61305a87828601612cd4565b60408301525095945050505050565b60008151808452613081816020860160208601613249565b601f01601f19169290920160200192915050565b600083516130a7818460208801613249565b8351908301906130bb818360208801613249565b01949350505050565b60007f416363657373436f6e74726f6c3a206163636f756e7420000000000000000000825283516130fc816017850160208801613249565b7f206973206d697373696e6720726f6c65200000000000000000000000000000006017918401918201528351613139816028840160208801613249565b01602801949350505050565b60006001600160a01b038087168352808616602084015250836040830152608060608301526131776080830184613069565b9695505050505050565b6000604082526131946040830185613069565b90508260208301529392505050565b6000602082526122306020830184613069565b604051601f8201601f1916810167ffffffffffffffff811182821017156131df576131df61331c565b604052919050565b600082198211156131fa576131fa6132f0565b500190565b60008261320e5761320e613306565b500490565b600081600019048311821515161561322d5761322d6132f0565b500290565b600082821015613244576132446132f0565b500390565b60005b8381101561326457818101518382015260200161324c565b83811115610f745750506000910152565b600081613284576132846132f0565b506000190190565b6002810460018216806132a057607f821691505b60208210811415610d7657634e487b7160e01b600052602260045260246000fd5b60006000198214156132d5576132d56132f0565b5060010190565b6000826132eb576132eb613306565b500690565b634e487b7160e01b600052601160045260246000fd5b634e487b7160e01b600052601260045260246000fd5b634e487b7160e01b600052604160045260246000fd5b8015158114610c6c57600080fd5b7fffffffff0000000000000000000000000000000000000000000000000000000081168114610c6c57600080fdfea264697066735822122044c7fb8a01c98577d94de633a1b88fe1fa58aacae5c7461abe81c97a81bcf68264736f6c63430008020033",
  "devdoc": {
    "details": "The following roles are used in this contract: DEFAULT_ADMIN_ROLE, KYC_ROLE.KYCERC721 will be minted only on L2.This contract is final, don't inherit from it.",
    "kind": "dev",
    "methods": {
      "approve(address,uint256)": {
        "details": "See {IERC721-approve}."
      },
      "balanceOf(address)": {
        "details": "See {IERC721-balanceOf}."
      },
      "burn(uint256)": {
        "details": "Intended that users can burn their own tokens.",
        "params": {
          "id": "The id of the token to be burned."
        }
      },
      "burnFrom(address,uint256)": {
        "details": "Intended that admin with KYC_ROLE has the right to burn user tokens.",
        "params": {
          "from": "Address whose token is to be burned.",
          "id": "Token id which will be burned."
        }
      },
      "claimKYCToken((address,bytes,bytes))": {
        "details": "This function checks the backendSignature as well as the user signatureUsers can only claim their own token",
        "params": {
          "input": "ClaimKYCToken"
        },
        "returns": {
          "_0": "tokenId tokenId that has been minted"
        }
      },
      "exists(uint256)": {
        "params": {
          "id": "the token ID to query."
        },
        "returns": {
          "_0": "`true` if the token already exists."
        }
      },
      "getApproved(uint256)": {
        "details": "See {IERC721-getApproved}."
      },
      "getRoleAdmin(bytes32)": {
        "details": "Returns the admin role that controls `role`. See {grantRole} and {revokeRole}. To change a role's admin, use {_setRoleAdmin}."
      },
      "grantRole(bytes32,address)": {
        "details": "Grants `role` to `account`. If `account` had not been already granted `role`, emits a {RoleGranted} event. Requirements: - the caller must have ``role``'s admin role."
      },
      "hasRole(bytes32,address)": {
        "details": "Returns `true` if `account` has been granted `role`."
      },
      "isApprovedForAll(address,address)": {
        "details": "See {IERC721-isApprovedForAll}."
      },
      "mint(address)": {
        "details": "Minting is only permitted to KYC_ROLE.",
        "params": {
          "to": "The address that will receive the new token."
        },
        "returns": {
          "_0": "tokenId tokenId that has been minted."
        }
      },
      "name()": {
        "details": "See {IERC721Metadata-name}."
      },
      "ownerOf(uint256)": {
        "details": "See {IERC721-ownerOf}."
      },
      "renounceRole(bytes32,address)": {
        "details": "Revokes `role` from the calling account. Roles are often managed via {grantRole} and {revokeRole}: this function's purpose is to provide a mechanism for accounts to lose their privileges if they are compromised (such as when a trusted device is misplaced). If the calling account had been revoked `role`, emits a {RoleRevoked} event. Requirements: - the caller must be `account`."
      },
      "revokeRole(bytes32,address)": {
        "details": "Revokes `role` from `account`. If `account` had been granted `role`, emits a {RoleRevoked} event. Requirements: - the caller must have ``role``'s admin role."
      },
      "safeTransferFrom(address,address,uint256)": {
        "details": "See {IERC721-safeTransferFrom}."
      },
      "safeTransferFrom(address,address,uint256,bytes)": {
        "details": "See {IERC721-safeTransferFrom}."
      },
      "setApprovalForAll(address,bool)": {
        "details": "See {IERC721-setApprovalForAll}."
      },
      "setBaseURI(string)": {
        "details": "It is intended that only admin may set the base token URI.",
        "params": {
          "uri": "The string for the base URI."
        }
      },
      "supportsInterface(bytes4)": {
        "params": {
          "id": "the interface identifier, as specified in ERC-165."
        },
        "returns": {
          "_0": "`true` if the contract implements `id`."
        }
      },
      "symbol()": {
        "details": "See {IERC721Metadata-symbol}."
      },
      "tokenURI(uint256)": {
        "params": {
          "tokenId": "The tokenId to get the uri of."
        },
        "returns": {
          "_0": "URI The token's full URI string."
        }
      },
      "transferFrom(address,address,uint256)": {
        "details": "See {IERC721-transferFrom}."
      }
    },
    "title": "This contract is for a NON-TRANSFERABLE KYCERC721 token which can be minted via Claiming with EIP712.",
    "version": 1
  },
  "userdoc": {
    "kind": "user",
    "methods": {
      "baseURI()": {
        "notice": "View the base for the token URI."
      },
      "burn(uint256)": {
        "notice": "Burns token with given `id`."
      },
      "burnFrom(address,uint256)": {
        "notice": "Burns token with given `id`."
      },
      "claimKYCToken((address,bytes,bytes))": {
        "notice": "Claim KYC token using EIP712"
      },
      "domainSeparator()": {
        "notice": "Function to get the domain separator"
      },
      "exists(uint256)": {
        "notice": "Query if token exists with `id`."
      },
      "getAuthValidator()": {
        "notice": "View the address for _authValidator."
      },
      "getChainId()": {
        "notice": "Function to get the chainId"
      },
      "getTokenIdCounter()": {
        "notice": "Function to get the last tokenId minted"
      },
      "initialize(address,address,address,address,string)": {
        "notice": "fulfills the purpose of a constructor in upgradeable contracts"
      },
      "mint(address)": {
        "notice": "Creates a new token for `to`."
      },
      "setBaseURI(string)": {
        "notice": "Set the base for the token URI."
      },
      "supportsInterface(bytes4)": {
        "notice": "Query if a contract implements interface `id`."
      },
      "tokenURI(uint256)": {
        "notice": "A distinct Uniform Resource Identifier (URI) for a given token."
      }
    },
    "version": 1
  },
  "storageLayout": {
    "storage": [
      {
        "astId": 10217,
        "contract": "src/solc_0.8/KYCERC721/KYCERC721.sol:KYCERC721",
        "label": "_initialized",
        "offset": 0,
        "slot": "0",
        "type": "t_bool"
      },
      {
        "astId": 10220,
        "contract": "src/solc_0.8/KYCERC721/KYCERC721.sol:KYCERC721",
        "label": "_initializing",
        "offset": 1,
        "slot": "0",
        "type": "t_bool"
      },
      {
        "astId": 12953,
        "contract": "src/solc_0.8/KYCERC721/KYCERC721.sol:KYCERC721",
        "label": "_HASHED_NAME",
        "offset": 0,
        "slot": "1",
        "type": "t_bytes32"
      },
      {
        "astId": 12955,
        "contract": "src/solc_0.8/KYCERC721/KYCERC721.sol:KYCERC721",
        "label": "_HASHED_VERSION",
        "offset": 0,
        "slot": "2",
        "type": "t_bytes32"
      },
      {
        "astId": 13092,
        "contract": "src/solc_0.8/KYCERC721/KYCERC721.sol:KYCERC721",
        "label": "__gap",
        "offset": 0,
        "slot": "3",
        "type": "t_array(t_uint256)50_storage"
      },
      {
        "astId": 12276,
        "contract": "src/solc_0.8/KYCERC721/KYCERC721.sol:KYCERC721",
        "label": "__gap",
        "offset": 0,
        "slot": "53",
        "type": "t_array(t_uint256)50_storage"
      },
      {
        "astId": 13138,
        "contract": "src/solc_0.8/KYCERC721/KYCERC721.sol:KYCERC721",
        "label": "__gap",
        "offset": 0,
        "slot": "103",
        "type": "t_array(t_uint256)50_storage"
      },
      {
        "astId": 9622,
        "contract": "src/solc_0.8/KYCERC721/KYCERC721.sol:KYCERC721",
        "label": "_roles",
        "offset": 0,
        "slot": "153",
        "type": "t_mapping(t_bytes32,t_struct(RoleData)9617_storage)"
      },
      {
        "astId": 9909,
        "contract": "src/solc_0.8/KYCERC721/KYCERC721.sol:KYCERC721",
        "label": "__gap",
        "offset": 0,
        "slot": "154",
        "type": "t_array(t_uint256)49_storage"
      },
      {
        "astId": 10598,
        "contract": "src/solc_0.8/KYCERC721/KYCERC721.sol:KYCERC721",
        "label": "_name",
        "offset": 0,
        "slot": "203",
        "type": "t_string_storage"
      },
      {
        "astId": 10600,
        "contract": "src/solc_0.8/KYCERC721/KYCERC721.sol:KYCERC721",
        "label": "_symbol",
        "offset": 0,
        "slot": "204",
        "type": "t_string_storage"
      },
      {
        "astId": 10604,
        "contract": "src/solc_0.8/KYCERC721/KYCERC721.sol:KYCERC721",
        "label": "_owners",
        "offset": 0,
        "slot": "205",
        "type": "t_mapping(t_uint256,t_address)"
      },
      {
        "astId": 10608,
        "contract": "src/solc_0.8/KYCERC721/KYCERC721.sol:KYCERC721",
        "label": "_balances",
        "offset": 0,
        "slot": "206",
        "type": "t_mapping(t_address,t_uint256)"
      },
      {
        "astId": 10612,
        "contract": "src/solc_0.8/KYCERC721/KYCERC721.sol:KYCERC721",
        "label": "_tokenApprovals",
        "offset": 0,
        "slot": "207",
        "type": "t_mapping(t_uint256,t_address)"
      },
      {
        "astId": 10618,
        "contract": "src/solc_0.8/KYCERC721/KYCERC721.sol:KYCERC721",
        "label": "_operatorApprovals",
        "offset": 0,
        "slot": "208",
        "type": "t_mapping(t_address,t_mapping(t_address,t_bool))"
      },
      {
        "astId": 11429,
        "contract": "src/solc_0.8/KYCERC721/KYCERC721.sol:KYCERC721",
        "label": "__gap",
        "offset": 0,
        "slot": "209",
        "type": "t_array(t_uint256)44_storage"
      },
      {
        "astId": 35255,
        "contract": "src/solc_0.8/KYCERC721/KYCERC721.sol:KYCERC721",
        "label": "_trustedForwarder",
        "offset": 0,
        "slot": "253",
        "type": "t_address"
      },
      {
        "astId": 35259,
        "contract": "src/solc_0.8/KYCERC721/KYCERC721.sol:KYCERC721",
        "label": "__gap",
        "offset": 0,
        "slot": "254",
        "type": "t_array(t_uint256)49_storage"
      },
      {
        "astId": 17747,
        "contract": "src/solc_0.8/KYCERC721/KYCERC721.sol:KYCERC721",
        "label": "__gap1",
        "offset": 0,
        "slot": "303",
        "type": "t_array(t_uint256)50_storage"
      },
      {
        "astId": 17756,
        "contract": "src/solc_0.8/KYCERC721/KYCERC721.sol:KYCERC721",
        "label": "tokenId",
        "offset": 0,
        "slot": "353",
        "type": "t_uint256"
      },
      {
        "astId": 17763,
        "contract": "src/solc_0.8/KYCERC721/KYCERC721.sol:KYCERC721",
        "label": "_baseTokenURI",
        "offset": 0,
        "slot": "354",
        "type": "t_string_storage"
      },
      {
        "astId": 17766,
        "contract": "src/solc_0.8/KYCERC721/KYCERC721.sol:KYCERC721",
        "label": "_authValidator",
        "offset": 0,
        "slot": "355",
        "type": "t_contract(IAuthValidator)41045"
      },
      {
        "astId": 18271,
        "contract": "src/solc_0.8/KYCERC721/KYCERC721.sol:KYCERC721",
        "label": "__gap2",
        "offset": 0,
        "slot": "356",
        "type": "t_array(t_uint256)50_storage"
      }
    ],
    "types": {
      "t_address": {
        "encoding": "inplace",
        "label": "address",
        "numberOfBytes": "20"
      },
      "t_array(t_uint256)44_storage": {
        "base": "t_uint256",
        "encoding": "inplace",
        "label": "uint256[44]",
        "numberOfBytes": "1408"
      },
      "t_array(t_uint256)49_storage": {
        "base": "t_uint256",
        "encoding": "inplace",
        "label": "uint256[49]",
        "numberOfBytes": "1568"
      },
      "t_array(t_uint256)50_storage": {
        "base": "t_uint256",
        "encoding": "inplace",
        "label": "uint256[50]",
        "numberOfBytes": "1600"
      },
      "t_bool": {
        "encoding": "inplace",
        "label": "bool",
        "numberOfBytes": "1"
      },
      "t_bytes32": {
        "encoding": "inplace",
        "label": "bytes32",
        "numberOfBytes": "32"
      },
      "t_contract(IAuthValidator)41045": {
        "encoding": "inplace",
        "label": "contract IAuthValidator",
        "numberOfBytes": "20"
      },
      "t_mapping(t_address,t_bool)": {
        "encoding": "mapping",
        "key": "t_address",
        "label": "mapping(address => bool)",
        "numberOfBytes": "32",
        "value": "t_bool"
      },
      "t_mapping(t_address,t_mapping(t_address,t_bool))": {
        "encoding": "mapping",
        "key": "t_address",
        "label": "mapping(address => mapping(address => bool))",
        "numberOfBytes": "32",
        "value": "t_mapping(t_address,t_bool)"
      },
      "t_mapping(t_address,t_uint256)": {
        "encoding": "mapping",
        "key": "t_address",
        "label": "mapping(address => uint256)",
        "numberOfBytes": "32",
        "value": "t_uint256"
      },
      "t_mapping(t_bytes32,t_struct(RoleData)9617_storage)": {
        "encoding": "mapping",
        "key": "t_bytes32",
        "label": "mapping(bytes32 => struct AccessControlUpgradeable.RoleData)",
        "numberOfBytes": "32",
        "value": "t_struct(RoleData)9617_storage"
      },
      "t_mapping(t_uint256,t_address)": {
        "encoding": "mapping",
        "key": "t_uint256",
        "label": "mapping(uint256 => address)",
        "numberOfBytes": "32",
        "value": "t_address"
      },
      "t_string_storage": {
        "encoding": "bytes",
        "label": "string",
        "numberOfBytes": "32"
      },
      "t_struct(RoleData)9617_storage": {
        "encoding": "inplace",
        "label": "struct AccessControlUpgradeable.RoleData",
        "members": [
          {
            "astId": 9614,
            "contract": "src/solc_0.8/KYCERC721/KYCERC721.sol:KYCERC721",
            "label": "members",
            "offset": 0,
            "slot": "0",
            "type": "t_mapping(t_address,t_bool)"
          },
          {
            "astId": 9616,
            "contract": "src/solc_0.8/KYCERC721/KYCERC721.sol:KYCERC721",
            "label": "adminRole",
            "offset": 0,
            "slot": "1",
            "type": "t_bytes32"
          }
        ],
        "numberOfBytes": "64"
      },
      "t_uint256": {
        "encoding": "inplace",
        "label": "uint256",
        "numberOfBytes": "32"
      }
    }
  }
}