{
  "address": "0xAE1586133d68E5e4EdC29d9314c54F69D29399De",
  "abi": [
    {
      "inputs": [
        {
          "internalType": "address",
          "name": "landAddress",
          "type": "address"
        },
        {
          "internalType": "address",
          "name": "sandContractAddress",
          "type": "address"
        },
        {
          "internalType": "address",
          "name": "initialMetaTx",
          "type": "address"
        },
        {
          "internalType": "address",
          "name": "admin",
          "type": "address"
        },
        {
          "internalType": "address payable",
          "name": "initialWalletAddress",
          "type": "address"
        },
        {
          "internalType": "bytes32",
          "name": "merkleRoot",
          "type": "bytes32"
        },
        {
          "internalType": "uint256",
          "name": "expiryTime",
          "type": "uint256"
        },
        {
          "internalType": "address",
          "name": "initialSigningWallet",
          "type": "address"
        },
        {
          "internalType": "uint256",
          "name": "initialMaxCommissionRate",
          "type": "uint256"
        },
        {
          "internalType": "address",
          "name": "estate",
          "type": "address"
        },
        {
          "internalType": "address",
          "name": "asset",
          "type": "address"
        },
        {
          "internalType": "address",
          "name": "feeDistributor",
          "type": "address"
        },
        {
          "internalType": "address",
          "name": "authValidator",
          "type": "address"
        }
      ],
      "stateMutability": "nonpayable",
      "type": "constructor"
    },
    {
      "anonymous": false,
      "inputs": [
        {
          "indexed": false,
          "internalType": "address",
          "name": "oldAdmin",
          "type": "address"
        },
        {
          "indexed": false,
          "internalType": "address",
          "name": "newAdmin",
          "type": "address"
        }
      ],
      "name": "AdminChanged",
      "type": "event"
    },
    {
      "anonymous": false,
      "inputs": [
        {
          "indexed": true,
          "internalType": "address",
          "name": "buyer",
          "type": "address"
        },
        {
          "indexed": true,
          "internalType": "address",
          "name": "to",
          "type": "address"
        },
        {
          "indexed": true,
          "internalType": "uint256",
          "name": "topCornerId",
          "type": "uint256"
        },
        {
          "indexed": false,
          "internalType": "uint256",
          "name": "size",
          "type": "uint256"
        },
        {
          "indexed": false,
          "internalType": "uint256",
          "name": "price",
          "type": "uint256"
        },
        {
          "indexed": false,
          "internalType": "address",
          "name": "token",
          "type": "address"
        },
        {
          "indexed": false,
          "internalType": "uint256",
          "name": "amountPaid",
          "type": "uint256"
        }
      ],
      "name": "LandQuadPurchased",
      "type": "event"
    },
    {
      "anonymous": false,
      "inputs": [
        {
          "indexed": true,
          "internalType": "uint256",
          "name": "newMaxCommissionRate",
          "type": "uint256"
        }
      ],
      "name": "MaxCommissionRateUpdated",
      "type": "event"
    },
    {
      "anonymous": false,
      "inputs": [
        {
          "indexed": false,
          "internalType": "address",
          "name": "metaTransactionProcessor",
          "type": "address"
        },
        {
          "indexed": false,
          "internalType": "bool",
          "name": "enabled",
          "type": "bool"
        }
      ],
      "name": "MetaTransactionProcessor",
      "type": "event"
    },
    {
      "anonymous": false,
      "inputs": [
        {
          "indexed": true,
          "internalType": "address",
          "name": "newWallet",
          "type": "address"
        }
      ],
      "name": "NewReceivingWallet",
      "type": "event"
    },
    {
      "anonymous": false,
      "inputs": [
        {
          "indexed": true,
          "internalType": "address",
          "name": "referrer",
          "type": "address"
        },
        {
          "indexed": true,
          "internalType": "address",
          "name": "referee",
          "type": "address"
        },
        {
          "indexed": true,
          "internalType": "address",
          "name": "token",
          "type": "address"
        },
        {
          "indexed": false,
          "internalType": "uint256",
          "name": "amount",
          "type": "uint256"
        },
        {
          "indexed": false,
          "internalType": "uint256",
          "name": "commission",
          "type": "uint256"
        },
        {
          "indexed": false,
          "internalType": "uint256",
          "name": "commissionRate",
          "type": "uint256"
        }
      ],
      "name": "ReferralUsed",
      "type": "event"
    },
    {
      "anonymous": false,
      "inputs": [
        {
          "indexed": true,
          "internalType": "address",
          "name": "newSigningWallet",
          "type": "address"
        }
      ],
      "name": "SigningWalletUpdated",
      "type": "event"
    },
    {
      "inputs": [
        {
          "internalType": "address",
          "name": "buyer",
          "type": "address"
        },
        {
          "internalType": "address",
          "name": "to",
          "type": "address"
        },
        {
          "internalType": "address",
          "name": "reserved",
          "type": "address"
        },
        {
          "internalType": "uint256[]",
          "name": "info",
          "type": "uint256[]"
        },
        {
          "internalType": "bytes32",
          "name": "salt",
          "type": "bytes32"
        },
        {
          "internalType": "uint256[]",
          "name": "assetIds",
          "type": "uint256[]"
        },
        {
          "internalType": "bytes32[]",
          "name": "proof",
          "type": "bytes32[]"
        },
        {
          "internalType": "bytes",
          "name": "referral",
          "type": "bytes"
        },
        {
          "internalType": "bytes",
          "name": "signature",
          "type": "bytes"
        }
      ],
      "name": "buyLandWithSand",
      "outputs": [],
      "stateMutability": "nonpayable",
      "type": "function"
    },
    {
      "inputs": [
        {
          "internalType": "address",
          "name": "newAdmin",
          "type": "address"
        }
      ],
      "name": "changeAdmin",
      "outputs": [],
      "stateMutability": "nonpayable",
      "type": "function"
    },
    {
      "inputs": [
        {
          "internalType": "bytes",
          "name": "referral",
          "type": "bytes"
        }
      ],
      "name": "decodeReferral",
      "outputs": [
        {
          "internalType": "bytes",
          "name": "",
          "type": "bytes"
        },
        {
          "internalType": "address",
          "name": "",
          "type": "address"
        },
        {
          "internalType": "address",
          "name": "",
          "type": "address"
        },
        {
          "internalType": "uint256",
          "name": "",
          "type": "uint256"
        },
        {
          "internalType": "uint256",
          "name": "",
          "type": "uint256"
        }
      ],
      "stateMutability": "pure",
      "type": "function"
    },
    {
      "inputs": [
        {
          "internalType": "address",
          "name": "disableWallet",
          "type": "address"
        }
      ],
      "name": "disablePreviousSigningWallet",
      "outputs": [],
      "stateMutability": "nonpayable",
      "type": "function"
    },
    {
      "inputs": [],
      "name": "getAdmin",
      "outputs": [
        {
          "internalType": "address",
          "name": "",
          "type": "address"
        }
      ],
      "stateMutability": "view",
      "type": "function"
    },
    {
      "inputs": [],
      "name": "getExpiryTime",
      "outputs": [
        {
          "internalType": "uint256",
          "name": "",
          "type": "uint256"
        }
      ],
      "stateMutability": "view",
      "type": "function"
    },
    {
      "inputs": [],
      "name": "getMaxCommissionRate",
      "outputs": [
        {
          "internalType": "uint256",
          "name": "",
          "type": "uint256"
        }
      ],
      "stateMutability": "view",
      "type": "function"
    },
    {
      "inputs": [],
      "name": "getMerkleRoot",
      "outputs": [
        {
          "internalType": "bytes32",
          "name": "",
          "type": "bytes32"
        }
      ],
      "stateMutability": "view",
      "type": "function"
    },
    {
      "inputs": [],
      "name": "getSigningWallet",
      "outputs": [
        {
          "internalType": "address",
          "name": "",
          "type": "address"
        }
      ],
      "stateMutability": "view",
      "type": "function"
    },
    {
      "inputs": [
        {
          "internalType": "address",
          "name": "who",
          "type": "address"
        }
      ],
      "name": "isMetaTransactionProcessor",
      "outputs": [
        {
          "internalType": "bool",
          "name": "",
          "type": "bool"
        }
      ],
      "stateMutability": "view",
      "type": "function"
    },
    {
      "inputs": [
        {
          "internalType": "bytes",
          "name": "signature",
          "type": "bytes"
        },
        {
          "internalType": "address",
          "name": "referrer",
          "type": "address"
        },
        {
          "internalType": "address",
          "name": "referee",
          "type": "address"
        },
        {
          "internalType": "uint256",
          "name": "expiryTime",
          "type": "uint256"
        },
        {
          "internalType": "uint256",
          "name": "commissionRate",
          "type": "uint256"
        }
      ],
      "name": "isReferralValid",
      "outputs": [
        {
          "internalType": "bool",
          "name": "",
          "type": "bool"
        }
      ],
      "stateMutability": "view",
      "type": "function"
    },
    {
      "inputs": [
        {
          "internalType": "address",
          "name": "",
          "type": "address"
        },
        {
          "internalType": "address",
          "name": "",
          "type": "address"
        },
        {
          "internalType": "uint256[]",
          "name": "",
          "type": "uint256[]"
        },
        {
          "internalType": "uint256[]",
          "name": "",
          "type": "uint256[]"
        },
        {
          "internalType": "bytes",
          "name": "",
          "type": "bytes"
        }
      ],
      "name": "onERC1155BatchReceived",
      "outputs": [
        {
          "internalType": "bytes4",
          "name": "",
          "type": "bytes4"
        }
      ],
      "stateMutability": "pure",
      "type": "function"
    },
    {
      "inputs": [
        {
          "internalType": "address",
          "name": "",
          "type": "address"
        },
        {
          "internalType": "address",
          "name": "",
          "type": "address"
        },
        {
          "internalType": "uint256",
          "name": "",
          "type": "uint256"
        },
        {
          "internalType": "uint256",
          "name": "",
          "type": "uint256"
        },
        {
          "internalType": "bytes",
          "name": "",
          "type": "bytes"
        }
      ],
      "name": "onERC1155Received",
      "outputs": [
        {
          "internalType": "bytes4",
          "name": "",
          "type": "bytes4"
        }
      ],
      "stateMutability": "pure",
      "type": "function"
    },
    {
      "inputs": [
        {
          "internalType": "address",
          "name": "metaTransactionProcessor",
          "type": "address"
        },
        {
          "internalType": "bool",
          "name": "enabled",
          "type": "bool"
        }
      ],
      "name": "setMetaTransactionProcessor",
      "outputs": [],
      "stateMutability": "nonpayable",
      "type": "function"
    },
    {
      "inputs": [
        {
          "internalType": "address payable",
          "name": "newWallet",
          "type": "address"
        }
      ],
      "name": "setReceivingWallet",
      "outputs": [],
      "stateMutability": "nonpayable",
      "type": "function"
    },
    {
      "inputs": [
        {
          "internalType": "uint256",
          "name": "newMaxCommissionRate",
          "type": "uint256"
        }
      ],
      "name": "updateMaxCommissionRate",
      "outputs": [],
      "stateMutability": "nonpayable",
      "type": "function"
    },
    {
      "inputs": [
        {
          "internalType": "address",
          "name": "newSigningWallet",
          "type": "address"
        }
      ],
      "name": "updateSigningWallet",
      "outputs": [],
      "stateMutability": "nonpayable",
      "type": "function"
    },
    {
      "inputs": [
        {
          "internalType": "address",
          "name": "to",
          "type": "address"
        },
        {
          "internalType": "uint256[]",
          "name": "assetIds",
          "type": "uint256[]"
        },
        {
          "internalType": "uint256[]",
          "name": "values",
          "type": "uint256[]"
        }
      ],
      "name": "withdrawAssets",
      "outputs": [],
      "stateMutability": "nonpayable",
      "type": "function"
    }
  ],
  "transactionHash": "0xd8a30d21adf41b8b69e33a29700bb8ad850392e4e0f03afeb4ba613f78cc7179",
  "args": [
    "0x525129b95bA89B9800e47ef3dc7d23fBAd27b1a3",
    "0x592daadC9eA7F56A81De1FD27A723Bd407709c46",
    "0x592daadC9eA7F56A81De1FD27A723Bd407709c46",
    "0x49c4D4C94829B9c44052C5f5Cb164Fc612181165",
    "0xa5Eb9C9Eb4F4c35B9Be8cFaAA7909F9ebe6Cb609",
    "0x88055d955e2d2fe71d696a8642fc3889c6f7382f176c0f3448140066064fc659",
    1985259600,
    "0xB7060D3FeCAC3AE1F0A0AA416E3e8E472257950e",
    2000,
    "0x0000000000000000000000000000000000000000",
    "0xB766Af2EfCB61bd5a261E007D8866f005E305D5d",
    "0xAc3ff31f526Af7f386ea43649e3fa67e329AeF93",
    "0x1d3CE3489a064aEFc9928fe08F9d2Dd968F5c969"
  ],
  "numDeployments": 1,
  "linkedData": [
    {
      "x": 185,
      "y": 159,
      "size": 1,
      "price": "4683000000000000000000",
      "reserved": "",
      "salt": "0x4c342a0bcf135993d96bf12a96cf29ce492a27d0dcb60803127ee3d2736d2d44",
      "assetIds": []
    },
    {
      "x": 186,
      "y": 162,
      "size": 1,
      "price": "4683000000000000000000",
      "reserved": "",
      "salt": "0x535eb1074974d7380a0532cca24dae9f27f1b7495aafd5de3e43d7767e079123",
      "assetIds": []
    },
    {
      "x": 187,
      "y": 162,
      "size": 1,
      "price": "4683000000000000000000",
      "reserved": "",
      "salt": "0x3a8f208035032f3cb9160d6211e297b78e8488115f507df776ae8afbbb6c5e94",
      "assetIds": []
    },
    {
      "x": 188,
      "y": 162,
      "size": 1,
      "price": "4683000000000000000000",
      "reserved": "",
      "salt": "0x878ff30d13ad53a8cce56548e5375189742c85797e4799e432668bceca943d5f",
      "assetIds": []
    },
    {
      "x": 189,
      "y": 162,
      "size": 1,
      "price": "4683000000000000000000",
      "reserved": "",
      "salt": "0x4d5c01cac60e27196f952cfcd8e22f7695fb5af9af57f68448b138f03f5c3bba",
      "assetIds": []
    },
    {
      "x": 190,
      "y": 162,
      "size": 1,
      "price": "4683000000000000000000",
      "reserved": "",
      "salt": "0x9e703e7cc71df623bc17d9777e873ed85af0a4d705adb7a1a9deb36f19432e5b",
      "assetIds": []
    },
    {
      "x": 185,
      "y": 157,
      "size": 1,
      "price": "4683000000000000000000",
      "reserved": "",
      "salt": "0xcea50f2856b80b4ef2d1926186b9ec4c72fb5c82c2190e184ab844db2b546d3e",
      "assetIds": []
    },
    {
      "x": 185,
      "y": 156,
      "size": 1,
      "price": "4683000000000000000000",
      "reserved": "",
      "salt": "0xfc26f6495ae24980861897d61bd396442c2f632b19e20d79b2d53b09c65aac4a",
      "assetIds": []
    },
    {
      "x": 192,
      "y": 158,
      "size": 1,
      "price": "4683000000000000000000",
      "reserved": "",
      "salt": "0xcdff26ce3b02de1b15489c8c03a66620100e0eab2e3643990a62a2849c2b8379",
      "assetIds": []
    },
    {
      "x": 192,
      "y": 157,
      "size": 1,
      "price": "4683000000000000000000",
      "reserved": "",
      "salt": "0xf56331af908128f8d97de3b4aaf565c52e486cd5835be8b84a66c515c2cee07e",
      "assetIds": []
    },
    {
      "x": 192,
      "y": 156,
      "size": 1,
      "price": "4683000000000000000000",
      "reserved": "",
      "salt": "0x9e5c1f60d9533411bea12f0c96290bbb3247413603d0da8fce4fde77654cf6fc",
      "assetIds": []
    },
    {
      "x": 192,
      "y": 153,
      "size": 1,
      "price": "4683000000000000000000",
      "reserved": "",
      "salt": "0x2aeb3087cf228e1358777d954326e7386a6aeca460f15ab716ee666761f5f521",
      "assetIds": []
    },
    {
      "x": 193,
      "y": 153,
      "size": 1,
      "price": "4683000000000000000000",
      "reserved": "",
      "salt": "0x74ae923afed040290b49cb46f2d72b9a61299cb4bcad99a98023b4ef83761e68",
      "assetIds": []
    },
    {
      "x": 194,
      "y": 153,
      "size": 1,
      "price": "4683000000000000000000",
      "reserved": "",
      "salt": "0x9608688f6ca6961e76d56f076073a12f9b60cfad59447da09909ace27b5db91d",
      "assetIds": []
    },
    {
      "x": 195,
      "y": 151,
      "size": 1,
      "price": "4683000000000000000000",
      "reserved": "",
      "salt": "0x719b6946725bd99f1ce3be7babd3e087f02b9bbb08461a651c80b444a86e74b7",
      "assetIds": []
    },
    {
      "x": 195,
      "y": 150,
      "size": 1,
      "price": "4683000000000000000000",
      "reserved": "",
      "salt": "0x845850afbd2fe3dfd71edde383d9b41af547bc83c4c2ec9b1fd2d733d695f7ac",
      "assetIds": []
    },
    {
      "x": 194,
      "y": 149,
      "size": 1,
      "price": "4683000000000000000000",
      "reserved": "",
      "salt": "0xe3345b0847ed970eaf4f73b253e87a7ea78407100c7adb4a55a2d6e5374f86e1",
      "assetIds": []
    },
    {
      "x": 192,
      "y": 149,
      "size": 1,
      "price": "4683000000000000000000",
      "reserved": "",
      "salt": "0xb82f05f13e78d7041000c5b593ae2603c2e41bd50fe0127448b6bd5950cfe936",
      "assetIds": []
    },
    {
      "x": 180,
      "y": 150,
      "size": 1,
      "price": "4683000000000000000000",
      "reserved": "",
      "salt": "0x3476f49ec6d9e1167e4d5be968240a757589d9d0818df3d30e1be1ea316adf3f",
      "assetIds": []
    },
    {
      "x": 181,
      "y": 150,
      "size": 1,
      "price": "4683000000000000000000",
      "reserved": "",
      "salt": "0x615e1c860e1b8d6fa86dd9101b487800b0ca355893da90a417e11a5e06293e45",
      "assetIds": []
    },
    {
      "x": 182,
      "y": 150,
      "size": 1,
      "price": "4683000000000000000000",
      "reserved": "",
      "salt": "0x88a04ea3bacd8f989914d5dc43d7edb4e4a84e5f358d2b8b8eb4256df72da18c",
      "assetIds": []
    },
    {
      "x": 183,
      "y": 150,
      "size": 1,
      "price": "4683000000000000000000",
      "reserved": "",
      "salt": "0x30c70477ce4cb15585e460a2be4ede277421cb2db0c80ebc8afd5a396fe3859d",
      "assetIds": []
    },
    {
      "x": 184,
      "y": 150,
      "size": 1,
      "price": "4683000000000000000000",
      "reserved": "",
      "salt": "0x2c30d6b2c4dca7a4c976c2a482b92f546f41c6d3db0dad2bde159cd0a05e68a2",
      "assetIds": []
    },
    {
      "x": 186,
      "y": 149,
      "size": 1,
      "price": "4683000000000000000000",
      "reserved": "",
      "salt": "0x458480728bf0848ba2d2a5be6bf71bd80d403e66ebd56f28a8ad6a0556d1166b",
      "assetIds": []
    },
    {
      "x": 186,
      "y": 148,
      "size": 1,
      "price": "4683000000000000000000",
      "reserved": "",
      "salt": "0x7c5d19e4f2eaac4cbaec6073eeb96fd842fcdbdd15c3303d59327d4b5a39d209",
      "assetIds": []
    },
    {
      "x": 179,
      "y": 148,
      "size": 1,
      "price": "4683000000000000000000",
      "reserved": "",
      "salt": "0x67600136a7f6a21702da7f0e3adba3aa051b701044208e4d42533c5bde5bb79d",
      "assetIds": []
    },
    {
      "x": 179,
      "y": 147,
      "size": 1,
      "price": "4683000000000000000000",
      "reserved": "",
      "salt": "0xc4e44e19df716bbfc84e1d5c86887041bc81279270ce7bc5a84dea47dd946d39",
      "assetIds": []
    },
    {
      "x": 179,
      "y": 145,
      "size": 1,
      "price": "4683000000000000000000",
      "reserved": "",
      "salt": "0x4dc711ed620d08a5290c0fd5c3dc7a50667c43805a739a78d19a52164a3f5eb5",
      "assetIds": []
    },
    {
      "x": 179,
      "y": 144,
      "size": 1,
      "price": "4683000000000000000000",
      "reserved": "",
      "salt": "0xa620d4587d44f75fcfab521eecb9a925a61356907ceb38386cdd5a125d9e59a0",
      "assetIds": []
    },
    {
      "x": 180,
      "y": 143,
      "size": 1,
      "price": "4683000000000000000000",
      "reserved": "",
      "salt": "0xe16ca0b8ae6c69e2f222668d6dd0dcb9d51c907ed5d3f334910d2d80d0685020",
      "assetIds": []
    },
    {
      "x": 181,
      "y": 143,
      "size": 1,
      "price": "4683000000000000000000",
      "reserved": "",
      "salt": "0x74aceb834b53566bb144bdb02513b44ae97afda831fa6f8ba6477aaac43484e0",
      "assetIds": []
    },
    {
      "x": 182,
      "y": 143,
      "size": 1,
      "price": "4683000000000000000000",
      "reserved": "",
      "salt": "0x129a74faaaee1f3f2e794195b02f5f3a9a903e8ee0f3f7f4de18282649f9f378",
      "assetIds": []
    },
    {
      "x": 189,
      "y": 146,
      "size": 1,
      "price": "4683000000000000000000",
      "reserved": "",
      "salt": "0x06c7188ec319d7eac6f77e9bc9830a621774c51b3312c064d5fe21eb464dbc69",
      "assetIds": []
    },
    {
      "x": 190,
      "y": 146,
      "size": 1,
      "price": "4683000000000000000000",
      "reserved": "",
      "salt": "0xc42750002017567acad44261999b72026426fc9887c5d2842db475383e9be958",
      "assetIds": []
    },
    {
      "x": 191,
      "y": 146,
      "size": 1,
      "price": "4683000000000000000000",
      "reserved": "",
      "salt": "0xf1423eec2aaf35a5f67ec8c4e8ec50b59e1795b7b3d1e3b5ac2d2533bd2ded0b",
      "assetIds": []
    },
    {
      "x": 192,
      "y": 146,
      "size": 1,
      "price": "4683000000000000000000",
      "reserved": "",
      "salt": "0x51be9619cf7ecd1c32d0fc404a838dec417042861329a26b037af6d7aa9e7eea",
      "assetIds": []
    },
    {
      "x": 193,
      "y": 146,
      "size": 1,
      "price": "4683000000000000000000",
      "reserved": "",
      "salt": "0xd4c824d091084f3746c79f39cd1dd14ba025c95422ac52bf56a1805064549a21",
      "assetIds": []
    },
    {
      "x": 194,
      "y": 146,
      "size": 1,
      "price": "4683000000000000000000",
      "reserved": "",
      "salt": "0x1f0fd92fa77763e986f5599f104fd2f67f7d1ecae8e4f00fbee4ad67fa716651",
      "assetIds": []
    },
    {
      "x": 195,
      "y": 146,
      "size": 1,
      "price": "4683000000000000000000",
      "reserved": "",
      "salt": "0xd3caaab894aa59dc0c900e47a9f9ef20ebd88aa81e744c5e6949a376a5277877",
      "assetIds": []
    },
    {
      "x": 196,
      "y": 146,
      "size": 1,
      "price": "4683000000000000000000",
      "reserved": "",
      "salt": "0xa974d18ad9b43d5b5bb0f52b9bf2baac335f914dc5a9441089223dfb3404fcbe",
      "assetIds": []
    },
    {
      "x": 196,
      "y": 145,
      "size": 1,
      "price": "4683000000000000000000",
      "reserved": "",
      "salt": "0x106cc660bcfb0b9d01295f951e36df0b3745fbc592b4abeb50eb8a73c48e3868",
      "assetIds": []
    },
    {
      "x": 197,
      "y": 146,
      "size": 1,
      "price": "4683000000000000000000",
      "reserved": "",
      "salt": "0x7f6feeba301a56a86bff3f9e6a406daca1d015f407bab434e77294b000bfa6a2",
      "assetIds": []
    },
    {
      "x": 197,
      "y": 145,
      "size": 1,
      "price": "4683000000000000000000",
      "reserved": "",
      "salt": "0x78619aaf755b09fb414a2d9eefcd36dcd0c6308f7696c0d6d6cac325d85a2a48",
      "assetIds": []
    },
    {
      "x": 195,
      "y": 145,
      "size": 1,
      "price": "4683000000000000000000",
      "reserved": "",
      "salt": "0xb2dea6bae606b22ed2ad52f6db43371ed580864b2d681e2d2651d105b72e3914",
      "assetIds": []
    },
    {
      "x": 194,
      "y": 145,
      "size": 1,
      "price": "4683000000000000000000",
      "reserved": "",
      "salt": "0x8746ce5728a886947093d927ef921648f93788918363bffdd0b01d6aa56bd3f2",
      "assetIds": []
    },
    {
      "x": 193,
      "y": 145,
      "size": 1,
      "price": "4683000000000000000000",
      "reserved": "",
      "salt": "0x5d156e5e22426ec1161381b98cdc18fc54fea127646ad1541a4904d80678128f",
      "assetIds": []
    },
    {
      "x": 192,
      "y": 145,
      "size": 1,
      "price": "4683000000000000000000",
      "reserved": "",
      "salt": "0x55ee721036075eb2ee5d6c396b8a9843a8eed27384f9952b6b171edbfa400c1b",
      "assetIds": []
    },
    {
      "x": 191,
      "y": 145,
      "size": 1,
      "price": "4683000000000000000000",
      "reserved": "",
      "salt": "0x77accd4e943a83282f229c42cf7b97d540f2a39604d3e0afc85edf2362c55c24",
      "assetIds": []
    },
    {
      "x": 190,
      "y": 145,
      "size": 1,
      "price": "4683000000000000000000",
      "reserved": "",
      "salt": "0x33f3d9ba10709e4a4ee3328eaa6bf9dd4a8364f84726cf0950c3c2ee84a29019",
      "assetIds": []
    },
    {
      "x": 189,
      "y": 145,
      "size": 1,
      "price": "4683000000000000000000",
      "reserved": "",
      "salt": "0x83cb59be4a30be430c5ce3a9e89234ce91c7c037bb43026ab30ffc8043a4dc50",
      "assetIds": []
    },
    {
      "x": 189,
      "y": 144,
      "size": 1,
      "price": "4683000000000000000000",
      "reserved": "",
      "salt": "0xca8ee4f221cb002ec87cd2b5e489a9ea17574138a51b8ce4a711eb8de92d4041",
      "assetIds": []
    },
    {
      "x": 190,
      "y": 144,
      "size": 1,
      "price": "4683000000000000000000",
      "reserved": "",
      "salt": "0x0f1301eb81b4427adda6bfe87be883b392bef2dd64a6015568be570fde0256ae",
      "assetIds": []
    },
    {
      "x": 191,
      "y": 144,
      "size": 1,
      "price": "4683000000000000000000",
      "reserved": "",
      "salt": "0x4f9b385efeb6cb73b7ce598f799b8aca83e0f8ca0845c3fefe685c0bca7181a6",
      "assetIds": []
    },
    {
      "x": 192,
      "y": 144,
      "size": 1,
      "price": "4683000000000000000000",
      "reserved": "",
      "salt": "0x3f25b50e655db062f51426f1855de6dc2c72905aac764e27d66850e0bbc21fd3",
      "assetIds": []
    },
    {
      "x": 193,
      "y": 144,
      "size": 1,
      "price": "4683000000000000000000",
      "reserved": "",
      "salt": "0xe155f6da325dfc3eeed57a329042032f585d3101f9ed6bbb4db7a6e28236fd16",
      "assetIds": []
    },
    {
      "x": 194,
      "y": 144,
      "size": 1,
      "price": "4683000000000000000000",
      "reserved": "",
      "salt": "0x0860e8e2f5a4a666597cd96273d81a785705309bbf328da6bce9d38dacd60b9c",
      "assetIds": []
    },
    {
      "x": 195,
      "y": 144,
      "size": 1,
      "price": "4683000000000000000000",
      "reserved": "",
      "salt": "0x68188a6eb9c4662edb4913a144c3d3e3a0e9844d2193094ca7a3431997db970f",
      "assetIds": []
    },
    {
      "x": 196,
      "y": 144,
      "size": 1,
      "price": "4683000000000000000000",
      "reserved": "",
      "salt": "0xb13e7e758083d0cb823832895c5bb966e674b09780ec7d300adb558fe48a39ce",
      "assetIds": []
    },
    {
      "x": 197,
      "y": 144,
      "size": 1,
      "price": "4683000000000000000000",
      "reserved": "",
      "salt": "0x74df1d6c74d6b7e317d9d460f8216b6d271566f436c68c8c691b2d2faab58f99",
      "assetIds": []
    },
    {
      "x": 189,
      "y": 140,
      "size": 1,
      "price": "4683000000000000000000",
      "reserved": "",
      "salt": "0x4359b49afb7b4c1454d7b7b3cbdd94bb3316f30fd66eaadc376fca2116dbd123",
      "assetIds": []
    },
    {
      "x": 190,
      "y": 140,
      "size": 1,
      "price": "4683000000000000000000",
      "reserved": "",
      "salt": "0x41ef10c8dc46311747617b8e9f4b3f0348758d5d7bebf787a15dc83fe7a96e01",
      "assetIds": []
    },
    {
      "x": 191,
      "y": 140,
      "size": 1,
      "price": "4683000000000000000000",
      "reserved": "",
      "salt": "0x68437029a0edb38c1e530a4ef3000da920650ce29f50b5cfafa75e9f873c0196",
      "assetIds": []
    },
    {
      "x": 191,
      "y": 139,
      "size": 1,
      "price": "4683000000000000000000",
      "reserved": "",
      "salt": "0x14d00dafd9b28720a7399bc5f4bfc7355e5997b807457fce2f9fb8655aca5e1e",
      "assetIds": []
    },
    {
      "x": 190,
      "y": 138,
      "size": 1,
      "price": "4683000000000000000000",
      "reserved": "",
      "salt": "0x57cb95bdfc7efdadb92546c48d6c68e383d262b7a5e6423a62692975f25cae36",
      "assetIds": []
    },
    {
      "x": 189,
      "y": 138,
      "size": 1,
      "price": "4683000000000000000000",
      "reserved": "",
      "salt": "0xcd8f69e229c902b0d4fc1f7b3604229cf83c7915b56795879d51e03c102ebf3c",
      "assetIds": []
    },
    {
      "x": 189,
      "y": 139,
      "size": 1,
      "price": "4683000000000000000000",
      "reserved": "",
      "salt": "0xacd2be5aac28736715c6a446cda3332b46eeebb916aff46e1cf82aad722a1a82",
      "assetIds": []
    },
    {
      "x": 191,
      "y": 138,
      "size": 1,
      "price": "4683000000000000000000",
      "reserved": "",
      "salt": "0x33975471249afb6576ef22ed8581db9bd8c5c7f019371464d8a8314a8071f637",
      "assetIds": []
    },
    {
      "x": 204,
      "y": 140,
      "size": 1,
      "price": "4683000000000000000000",
      "reserved": "",
      "salt": "0xbc2f991c1e4454f0c80d6b6ee8875be410ee57eb5aadaf635c1acb2d9f841191",
      "assetIds": []
    },
    {
      "x": 193,
      "y": 164,
      "size": 1,
      "price": "1011000000000000000000",
      "reserved": "",
      "salt": "0x3efa793ab70b11f2e273478aeba6007b187984ff9f52e855473db60f09bbe4e7",
      "assetIds": []
    },
    {
      "x": 194,
      "y": 164,
      "size": 1,
      "price": "1011000000000000000000",
      "reserved": "",
      "salt": "0x55f584aa50be96cf5356b9d5709142a3904b02879b88e75d0035cadaf1bbadaa",
      "assetIds": []
    },
    {
      "x": 195,
      "y": 164,
      "size": 1,
      "price": "1011000000000000000000",
      "reserved": "",
      "salt": "0x0521d60e530ffb274d942ddfea82371a4aeba0ec4c0b66d63adf86bd71f4348a",
      "assetIds": []
    },
    {
      "x": 196,
      "y": 164,
      "size": 1,
      "price": "1011000000000000000000",
      "reserved": "",
      "salt": "0x787ad930b99003f2d39e8ae5149e1a760ddec1fc7932b5746b13d2d0bffecf67",
      "assetIds": []
    },
    {
      "x": 197,
      "y": 164,
      "size": 1,
      "price": "1011000000000000000000",
      "reserved": "",
      "salt": "0x81c320a6b2c165b0d134cc4295cac12a538d242ae08412d8e720ce99dcb5d99b",
      "assetIds": []
    },
    {
      "x": 197,
      "y": 163,
      "size": 1,
      "price": "1011000000000000000000",
      "reserved": "",
      "salt": "0xa1a3cfc5bd4380f05bdfb60f13d5dfb0efc0570bb339c0b91d1da7d71d9e9f20",
      "assetIds": []
    },
    {
      "x": 197,
      "y": 162,
      "size": 1,
      "price": "1011000000000000000000",
      "reserved": "",
      "salt": "0xce3d176b138ff73b8701ba34781c70544fda4ba9c0fde0e3c8c07bb8c0a95b0e",
      "assetIds": []
    },
    {
      "x": 197,
      "y": 161,
      "size": 1,
      "price": "1011000000000000000000",
      "reserved": "",
      "salt": "0xfcdb301ab3adcbee4297fd6d7da73305f7b06ce595309618fbf3a38bf83dbadf",
      "assetIds": []
    },
    {
      "x": 197,
      "y": 160,
      "size": 1,
      "price": "1011000000000000000000",
      "reserved": "",
      "salt": "0x79833e877aac40771662d0cfb736f1ceed61b3ae6745115ac70d3da538f71af3",
      "assetIds": []
    },
    {
      "x": 197,
      "y": 159,
      "size": 1,
      "price": "1011000000000000000000",
      "reserved": "",
      "salt": "0x5caf9e22fc2f4c8d9a6d5e44e15bed68274d1e15ef34c37c9e8446eeef80139b",
      "assetIds": []
    },
    {
      "x": 197,
      "y": 158,
      "size": 1,
      "price": "1011000000000000000000",
      "reserved": "",
      "salt": "0xe21fb95aee208d6c3c06d81f44ee72029f898ff6bbf170eef2721492908de77d",
      "assetIds": []
    },
    {
      "x": 197,
      "y": 157,
      "size": 1,
      "price": "1011000000000000000000",
      "reserved": "",
      "salt": "0xd31a96d1444f2a2d590c7b8d3f845b41af5271835ba4253dcce7dde88ff1fa0c",
      "assetIds": []
    },
    {
      "x": 197,
      "y": 156,
      "size": 1,
      "price": "1011000000000000000000",
      "reserved": "",
      "salt": "0x5f2b4784851c1dd8c6b9c227a778922c84dfb5417a603f528a2734bfb63428fc",
      "assetIds": []
    },
    {
      "x": 198,
      "y": 155,
      "size": 1,
      "price": "1011000000000000000000",
      "reserved": "",
      "salt": "0x5529c031696fb2f67952eaa8113b366d879d1ac38bcfa0be20ae87274724a387",
      "assetIds": []
    },
    {
      "x": 199,
      "y": 155,
      "size": 1,
      "price": "1011000000000000000000",
      "reserved": "",
      "salt": "0xd03ceb30cd18f31ce97cea03101355496f9632d3a6a31487ba57ff9489033844",
      "assetIds": []
    },
    {
      "x": 200,
      "y": 155,
      "size": 1,
      "price": "1011000000000000000000",
      "reserved": "",
      "salt": "0x6989d173dd2426b3da7aebe3e2dab8a7cca1fce47ea488214a98ac4d4bcfd9e1",
      "assetIds": []
    },
    {
      "x": 200,
      "y": 154,
      "size": 1,
      "price": "1011000000000000000000",
      "reserved": "",
      "salt": "0xa2ce2608211625c23f968d859ba28e1d994af272b3f002e0dcda5e74e1f4eaa3",
      "assetIds": []
    },
    {
      "x": 200,
      "y": 153,
      "size": 1,
      "price": "1011000000000000000000",
      "reserved": "",
      "salt": "0x161267f12387e0572b27ff755fb3fad1a0d5839902c42f22fa2b63952009b74a",
      "assetIds": []
    },
    {
      "x": 200,
      "y": 152,
      "size": 1,
      "price": "1011000000000000000000",
      "reserved": "",
      "salt": "0xac52b4daa92a5896ae4c138ddcf1f604b5d616dbd9b2bb8e594c64529224f2aa",
      "assetIds": []
    },
    {
      "x": 200,
      "y": 151,
      "size": 1,
      "price": "1011000000000000000000",
      "reserved": "",
      "salt": "0x80a6173030628f9d24c07dd2086757185b26ca52d3a3bebd7ce1f848f8984b87",
      "assetIds": []
    },
    {
      "x": 200,
      "y": 150,
      "size": 1,
      "price": "1011000000000000000000",
      "reserved": "",
      "salt": "0x403814cdaedc0dc8458fbb4bb90ecd51e4cb7958daf248bebff159529702a0e2",
      "assetIds": []
    },
    {
      "x": 200,
      "y": 149,
      "size": 1,
      "price": "1011000000000000000000",
      "reserved": "",
      "salt": "0xc5c15143d1e75043aa5e8acd01c88e6325c81115dd040c0f71a350ba2d921da6",
      "assetIds": []
    },
    {
      "x": 200,
      "y": 148,
      "size": 1,
      "price": "1011000000000000000000",
      "reserved": "",
      "salt": "0x365c0088dcaaf40b96d849837a2e49c7205ef5c3faba9aea6e37332f3a04edd6",
      "assetIds": []
    },
    {
      "x": 200,
      "y": 147,
      "size": 1,
      "price": "1011000000000000000000",
      "reserved": "",
      "salt": "0x8d20b3d660762f6e4503316834957fc7a037a239c13993fcfc53e6589273e281",
      "assetIds": []
    },
    {
      "x": 204,
      "y": 138,
      "size": 1,
      "price": "1011000000000000000000",
      "reserved": "",
      "salt": "0x439b1105f0f21afdd5385c64992bab4ac47170709b02dccb91057914c4179b31",
      "assetIds": []
    },
    {
      "x": 205,
      "y": 138,
      "size": 1,
      "price": "1011000000000000000000",
      "reserved": "",
      "salt": "0xa66314edbc9e86510416685f095dad94e74fa626194553f5fefe037e2b4913f5",
      "assetIds": []
    },
    {
      "x": 205,
      "y": 140,
      "size": 1,
      "price": "1011000000000000000000",
      "reserved": "",
      "salt": "0x8ef971b10145193da5157647b362c5112cb1872d0b8902da570ea42e7795ab96",
      "assetIds": []
    },
    {
      "x": 186,
      "y": 147,
      "size": 1,
      "price": "1011000000000000000000",
      "reserved": "",
      "salt": "0x7ff42c65a929eefeb37bcc094898b36e3b267cdceb393c252c7f8e081f3ecd3d",
      "assetIds": []
    },
    {
      "x": 187,
      "y": 147,
      "size": 1,
      "price": "1011000000000000000000",
      "reserved": "",
      "salt": "0x59339f21f35a8369429f8ad1d6b219a7cd787f7933c9751f494fd90901c84574",
      "assetIds": []
    },
    {
      "x": 188,
      "y": 147,
      "size": 1,
      "price": "1011000000000000000000",
      "reserved": "",
      "salt": "0xb1be320e018d24e043911a6d9495f7e1126740ecebf384021ecc32f7ffc06bb1",
      "assetIds": []
    },
    {
      "x": 189,
      "y": 147,
      "size": 1,
      "price": "1011000000000000000000",
      "reserved": "",
      "salt": "0xfc46ca697c1f4ff55ded9ea6819ff4bd48dc2c362c3b79ec98c54d6564bbf84b",
      "assetIds": []
    },
    {
      "x": 190,
      "y": 147,
      "size": 1,
      "price": "1011000000000000000000",
      "reserved": "",
      "salt": "0x9f72e35cd1318034f2330b6e89de76f4d713321ea9bef2ecef6bc403fe4b4f0b",
      "assetIds": []
    },
    {
      "x": 191,
      "y": 147,
      "size": 1,
      "price": "1011000000000000000000",
      "reserved": "",
      "salt": "0x44efda90737ffcafaabf4acf75ca42b74079c06454a9f5313362894cbf3a04de",
      "assetIds": []
    },
    {
      "x": 192,
      "y": 147,
      "size": 1,
      "price": "1011000000000000000000",
      "reserved": "",
      "salt": "0x642bd77dba9a53e5209d42b8434defbf71c8cb98002cde48cf477a3bb1cd1200",
      "assetIds": []
    },
    {
      "x": 193,
      "y": 147,
      "size": 1,
      "price": "1011000000000000000000",
      "reserved": "",
      "salt": "0xc9ebe993a3a2780beef1a7881e236930ce680c1b7d714664f4ab7139c491574c",
      "assetIds": []
    },
    {
      "x": 194,
      "y": 147,
      "size": 1,
      "price": "1011000000000000000000",
      "reserved": "",
      "salt": "0xb5af1e427d8cd21ac73219cfbf566581be6d381dfa46710ffa4f344871e06e71",
      "assetIds": []
    },
    {
      "x": 195,
      "y": 147,
      "size": 1,
      "price": "1011000000000000000000",
      "reserved": "",
      "salt": "0xc0c4104f82c49fc8d8863d4ba610209a6a5bfb6d8c0ae5b27ab49fc6e03101fa",
      "assetIds": []
    },
    {
      "x": 196,
      "y": 147,
      "size": 1,
      "price": "1011000000000000000000",
      "reserved": "",
      "salt": "0x742a3fe3026dbf2708260d646becddeff2b673806956304bcdede7a49f8bb7d5",
      "assetIds": []
    },
    {
      "x": 197,
      "y": 147,
      "size": 1,
      "price": "1011000000000000000000",
      "reserved": "",
      "salt": "0x5bef23ff292f4375540b23290c5bff8a9fc0d4edd80807aacf17bfc25b5a0ee3",
      "assetIds": []
    },
    {
      "x": 198,
      "y": 147,
      "size": 1,
      "price": "1011000000000000000000",
      "reserved": "",
      "salt": "0xea9eb65e99be29f7ee41cfb830e8a7bf7e9c0a07ad01fdf50f733da1ddd986b0",
      "assetIds": []
    },
    {
      "x": 199,
      "y": 147,
      "size": 1,
      "price": "1011000000000000000000",
      "reserved": "",
      "salt": "0xa891dec39c523f7413a62229e8f7c2e2c26efbfca8cf4607640d32f5e033c7f7",
      "assetIds": []
    },
    {
      "x": 196,
      "y": 152,
      "size": 1,
      "price": "1011000000000000000000",
      "reserved": "",
      "salt": "0x8e84a6f7e814bfed1f42f5b61c5b42a8f60819198b1746525751019935625ba7",
      "assetIds": []
    },
    {
      "x": 196,
      "y": 151,
      "size": 1,
      "price": "1011000000000000000000",
      "reserved": "",
      "salt": "0x7f520d8df7b93d4f23113332356cf475583f7f86a63478b27b2ef953c10c0791",
      "assetIds": []
    },
    {
      "x": 196,
      "y": 150,
      "size": 1,
      "price": "1011000000000000000000",
      "reserved": "",
      "salt": "0x518466fb855307fd26b687e1fcdd13a1b39ec47928606efd7347efbed203406b",
      "assetIds": []
    },
    {
      "x": 196,
      "y": 149,
      "size": 1,
      "price": "1011000000000000000000",
      "reserved": "",
      "salt": "0xba04bdc277f484fb4b60c58fb261f2cf4cf7b7534cc2947bb1f355b7a7dbea7b",
      "assetIds": []
    },
    {
      "x": 196,
      "y": 148,
      "size": 1,
      "price": "1011000000000000000000",
      "reserved": "",
      "salt": "0x397b7330b612c6c7464f07168ab63a1ed33665f29350678735a6c33b9d53f8d2",
      "assetIds": []
    },
    {
      "x": 197,
      "y": 152,
      "size": 1,
      "price": "1011000000000000000000",
      "reserved": "",
      "salt": "0xe9a454886dae3f88b2b6d0d246edd0a5c6c8ea4a12287a7f9c166b0fddd781ef",
      "assetIds": []
    },
    {
      "x": 198,
      "y": 152,
      "size": 1,
      "price": "1011000000000000000000",
      "reserved": "",
      "salt": "0x41d8a3534948bae9e03408d6b542583b55f59bfadf42237ca719f9ceffac079c",
      "assetIds": []
    },
    {
      "x": 198,
      "y": 153,
      "size": 1,
      "price": "1011000000000000000000",
      "reserved": "",
      "salt": "0x9f8cedf5f093e2073b927264a858178fbedf3f31e3bbb8c5d811e7468855e134",
      "assetIds": []
    },
    {
      "x": 198,
      "y": 154,
      "size": 1,
      "price": "1011000000000000000000",
      "reserved": "",
      "salt": "0xc6316fa9b6e6c6f340ab197eedfa278365185b0583a1e1c617990ad22ac55fac",
      "assetIds": []
    },
    {
      "x": 199,
      "y": 154,
      "size": 1,
      "price": "1011000000000000000000",
      "reserved": "",
      "salt": "0x3610a47cd6ff31795a24aceb17748a825d89ba4454e036a196baf83f8bbbde54",
      "assetIds": []
    },
    {
      "x": 199,
      "y": 153,
      "size": 1,
      "price": "1011000000000000000000",
      "reserved": "",
      "salt": "0x8e68ceef4e29b6b44cec1fa6e0f9d9092da931aa2b13193ee3510c2f0bc7541c",
      "assetIds": []
    },
    {
      "x": 199,
      "y": 152,
      "size": 1,
      "price": "1011000000000000000000",
      "reserved": "",
      "salt": "0x849132688dc3b5f94e8c185cf3f4e00387d1877a29046b5a8b753c2b7fe31784",
      "assetIds": []
    },
    {
      "x": 199,
      "y": 151,
      "size": 1,
      "price": "1011000000000000000000",
      "reserved": "",
      "salt": "0xe058d9fbc72ba2bdd7377d19918d9491a74149674bb6d02000398994662dec62",
      "assetIds": []
    },
    {
      "x": 199,
      "y": 150,
      "size": 1,
      "price": "1011000000000000000000",
      "reserved": "",
      "salt": "0xeeab8ada926fdbad854bc82fcffb9e40af9386512811be3fcc6fc71c3815f2eb",
      "assetIds": []
    },
    {
      "x": 199,
      "y": 149,
      "size": 1,
      "price": "1011000000000000000000",
      "reserved": "",
      "salt": "0x4da51e5e46fcb12909a0546523c5cae8d897b5fc6002e628c7c20b30a4cbcfcc",
      "assetIds": []
    },
    {
      "x": 199,
      "y": 148,
      "size": 1,
      "price": "1011000000000000000000",
      "reserved": "",
      "salt": "0x54d46b4b940205347c7f157b32480d4870c43f490f1710c96b0df2e7c563193f",
      "assetIds": []
    },
    {
      "x": 198,
      "y": 148,
      "size": 1,
      "price": "1011000000000000000000",
      "reserved": "",
      "salt": "0xb6267444f7d05b07c23bb1a85f1f3f31160af8cf0441e4d0df2ed92dac6f4b20",
      "assetIds": []
    },
    {
      "x": 197,
      "y": 148,
      "size": 1,
      "price": "1011000000000000000000",
      "reserved": "",
      "salt": "0xe43387974acaf35655079a4a9e3ed3eeeba1dbbe50882a007e0d98a665ac65d8",
      "assetIds": []
    },
    {
      "x": 197,
      "y": 149,
      "size": 1,
      "price": "1011000000000000000000",
      "reserved": "",
      "salt": "0x3107d11e95df8a8a932d82566da721da415cfd9a01568ab725bf041f20dee426",
      "assetIds": []
    },
    {
      "x": 197,
      "y": 150,
      "size": 1,
      "price": "1011000000000000000000",
      "reserved": "",
      "salt": "0xe976d70c7bebd6484db0c56a2c60f0db80147f2d6f7bbd3907590b50f2dc894e",
      "assetIds": []
    },
    {
      "x": 197,
      "y": 151,
      "size": 1,
      "price": "1011000000000000000000",
      "reserved": "",
      "salt": "0x784a9140cd24cef45d524195c31ce2a3521971c5e6b86900f9e1115a8be60ffc",
      "assetIds": []
    },
    {
      "x": 198,
      "y": 150,
      "size": 1,
      "price": "1011000000000000000000",
      "reserved": "",
      "salt": "0x785791b7abbf4b21751418cf958cc8e9e2f97d6348ec273878551a8c500cd610",
      "assetIds": []
    },
    {
      "x": 198,
      "y": 149,
      "size": 1,
      "price": "1011000000000000000000",
      "reserved": "",
      "salt": "0xe3ab457f53a0ad959e1d62824b228b24f2f8a111c05b70a60e8a42590c58a5fe",
      "assetIds": []
    },
    {
      "x": 195,
      "y": 148,
      "size": 1,
      "price": "1011000000000000000000",
      "reserved": "",
      "salt": "0xbcde25d5351bbed76cc64f686453ed05a5482ed3b12c60f540019ff9cead3570",
      "assetIds": []
    },
    {
      "x": 194,
      "y": 148,
      "size": 1,
      "price": "1011000000000000000000",
      "reserved": "",
      "salt": "0x7971b02b72fa67a1c6e111d6c8b049618c78203e6b18890f08e01681dce5d3dc",
      "assetIds": []
    },
    {
      "x": 193,
      "y": 148,
      "size": 1,
      "price": "1011000000000000000000",
      "reserved": "",
      "salt": "0xa026dcf45358c6d9a3f4878028adc69b69a777f542869c8b0a616e39e246a129",
      "assetIds": []
    },
    {
      "x": 192,
      "y": 148,
      "size": 1,
      "price": "1011000000000000000000",
      "reserved": "",
      "salt": "0xfa63cc2bcb7d6a44e0e3d8c864a47788ad2fe80ed86f198195a477e47b99b643",
      "assetIds": []
    },
    {
      "x": 191,
      "y": 148,
      "size": 1,
      "price": "1011000000000000000000",
      "reserved": "",
      "salt": "0xc7c9824eb2b59241212b6c8ede0abb525c92d773c20b94e6c7e6bc655b717dd8",
      "assetIds": []
    },
    {
      "x": 190,
      "y": 148,
      "size": 1,
      "price": "1011000000000000000000",
      "reserved": "",
      "salt": "0x70160c6bf6a9cd375bf9ff482753cdd18804ba7425f0ec849416df7a365f491e",
      "assetIds": []
    },
    {
      "x": 188,
      "y": 148,
      "size": 1,
      "price": "1011000000000000000000",
      "reserved": "",
      "salt": "0x3620fc72ce979f910739edcdb99abe4e12c7892df6eca8654f62aff20046d038",
      "assetIds": []
    },
    {
      "x": 187,
      "y": 148,
      "size": 1,
      "price": "1011000000000000000000",
      "reserved": "",
      "salt": "0xba8581c3516ec34c8c1bfa61f0e6155651c75caa51e347428967cbeb916ae055",
      "assetIds": []
    },
    {
      "x": 189,
      "y": 148,
      "size": 1,
      "price": "1011000000000000000000",
      "reserved": "",
      "salt": "0xf3209db264404cc284cb1a02fb811a06d7f6e42276f42ec940f70aa44b499423",
      "assetIds": []
    },
    {
      "x": 187,
      "y": 149,
      "size": 1,
      "price": "1011000000000000000000",
      "reserved": "",
      "salt": "0x6d2a61ae7f4b0d67e51e7b7123888348f99789f41e45731a34390c74b6ec2bd5",
      "assetIds": []
    },
    {
      "x": 188,
      "y": 149,
      "size": 1,
      "price": "1011000000000000000000",
      "reserved": "",
      "salt": "0x5041df983860f1e432f225ddc259fac07fb8b03bd27c1452be7e61f5234f2428",
      "assetIds": []
    },
    {
      "x": 189,
      "y": 149,
      "size": 1,
      "price": "1011000000000000000000",
      "reserved": "",
      "salt": "0xf56b495b1f813705be6c43b985395cee6d656e22f107f7b8b515108eda9d1e1a",
      "assetIds": []
    },
    {
      "x": 190,
      "y": 149,
      "size": 1,
      "price": "1011000000000000000000",
      "reserved": "",
      "salt": "0x56448d271a79caaf8d7b34b95d4a9c8aaf235676a4b4e58f31f7f267fb5daed8",
      "assetIds": []
    },
    {
      "x": 191,
      "y": 149,
      "size": 1,
      "price": "1011000000000000000000",
      "reserved": "",
      "salt": "0x14640240100ca489100a03aacbe25420533650d67a6073b773328defe7ee84b1",
      "assetIds": []
    },
    {
      "x": 193,
      "y": 149,
      "size": 1,
      "price": "1011000000000000000000",
      "reserved": "",
      "salt": "0xe2119a553eb806b3f543978c09394f1c07e17551290c295db39519fbe480e092",
      "assetIds": []
    },
    {
      "x": 186,
      "y": 143,
      "size": 1,
      "price": "1011000000000000000000",
      "reserved": "",
      "salt": "0x8b5c9e987ec5bd25bd81d78271d001d78849847e2fa766dd4c4e94216b3c528e",
      "assetIds": []
    },
    {
      "x": 187,
      "y": 143,
      "size": 1,
      "price": "1011000000000000000000",
      "reserved": "",
      "salt": "0x77245b2b51eec7a47454bd2ab880d0fcbd22bcff7ba1da323144dfbc28b5fc64",
      "assetIds": []
    },
    {
      "x": 188,
      "y": 143,
      "size": 1,
      "price": "1011000000000000000000",
      "reserved": "",
      "salt": "0x2a2e4f8d10d9346ab83100af6cfcda88574c0469474991c41711b86f86e23ce1",
      "assetIds": []
    },
    {
      "x": 188,
      "y": 142,
      "size": 1,
      "price": "1011000000000000000000",
      "reserved": "",
      "salt": "0x4019685ab8ff9e96e48bad4bc992e43bc60abc006c72e6c503721e850d7d0e1c",
      "assetIds": []
    },
    {
      "x": 188,
      "y": 141,
      "size": 1,
      "price": "1011000000000000000000",
      "reserved": "",
      "salt": "0x496cf0e0eb556747c56bde0b4f8b434162b67ce7d4de3a3ea719b7372550b1d0",
      "assetIds": []
    },
    {
      "x": 188,
      "y": 140,
      "size": 1,
      "price": "1011000000000000000000",
      "reserved": "",
      "salt": "0xcb2b246078bbbeb9e338743e5f2d2a1dc110dba62bffbd7b210d160b24c19200",
      "assetIds": []
    },
    {
      "x": 188,
      "y": 139,
      "size": 1,
      "price": "1011000000000000000000",
      "reserved": "",
      "salt": "0x4a5e7cbc462765599cdbe35befab2abb3c8d5fc24c5107869f50cc04ad4aa7e9",
      "assetIds": []
    },
    {
      "x": 188,
      "y": 138,
      "size": 1,
      "price": "1011000000000000000000",
      "reserved": "",
      "salt": "0xb3beae136cea51ea652eba4c9986a0f80b8d611f4cb4eee97b8c0496ce18a3c8",
      "assetIds": []
    },
    {
      "x": 187,
      "y": 138,
      "size": 1,
      "price": "1011000000000000000000",
      "reserved": "",
      "salt": "0xefdd6da109ca97c689b3bbae41d734e2e2e81a88abd74efea760b15237be07df",
      "assetIds": []
    },
    {
      "x": 187,
      "y": 139,
      "size": 1,
      "price": "1011000000000000000000",
      "reserved": "",
      "salt": "0x7b543bb4b3eb29ffae56232875ab60ee771c03481fe5630a1daabf7c97d126a0",
      "assetIds": []
    },
    {
      "x": 186,
      "y": 139,
      "size": 1,
      "price": "1011000000000000000000",
      "reserved": "",
      "salt": "0x31682a217a936f0f59e450b77fc9524c17f1c7b6b581c15bcca28016c4c63eff",
      "assetIds": []
    },
    {
      "x": 185,
      "y": 139,
      "size": 1,
      "price": "1011000000000000000000",
      "reserved": "",
      "salt": "0x6de6cc8131702a1cbbe9636c265f7a1aed0cc7ffdcdabf6107623026357b35cb",
      "assetIds": []
    },
    {
      "x": 186,
      "y": 138,
      "size": 1,
      "price": "1011000000000000000000",
      "reserved": "",
      "salt": "0xc257b9aee8ec4af93b45c84f56c1d78b3298d4cf798d45a4975655a1145603bf",
      "assetIds": []
    },
    {
      "x": 185,
      "y": 138,
      "size": 1,
      "price": "1011000000000000000000",
      "reserved": "",
      "salt": "0x704c508edab2497a166171f964fb9c0adf4c934dd63ad1884518c5c76e190e6e",
      "assetIds": []
    },
    {
      "x": 184,
      "y": 138,
      "size": 1,
      "price": "1011000000000000000000",
      "reserved": "",
      "salt": "0x54f179e37ef09673a4700369f39ff2de7e57989603b0c63a4c4b5baab9813973",
      "assetIds": []
    },
    {
      "x": 183,
      "y": 138,
      "size": 1,
      "price": "1011000000000000000000",
      "reserved": "",
      "salt": "0x80e0c59ab082efe1581226e8608c4ecd792043c1149d925b07f1999e7505aa6d",
      "assetIds": []
    },
    {
      "x": 182,
      "y": 138,
      "size": 1,
      "price": "1011000000000000000000",
      "reserved": "",
      "salt": "0x9f28c97816d1876051cc9fb74c492d533fd27253add6cc772f186aa0959183f9",
      "assetIds": []
    },
    {
      "x": 181,
      "y": 138,
      "size": 1,
      "price": "1011000000000000000000",
      "reserved": "",
      "salt": "0xba05fffcbe0ff304b62f9b4394b83b2524bf391e59e89ae855dd5e7bf0cf429a",
      "assetIds": []
    },
    {
      "x": 180,
      "y": 138,
      "size": 1,
      "price": "1011000000000000000000",
      "reserved": "",
      "salt": "0xd2b7f808e1f3cc953aa2f12ecd4a76bbe129115115c2710b0358267a35d20f07",
      "assetIds": []
    },
    {
      "x": 179,
      "y": 138,
      "size": 1,
      "price": "1011000000000000000000",
      "reserved": "",
      "salt": "0xfed82be23b93dd11d760495158e3d0ef7d82b90140b128b31bd3ae9a1e57a9f7",
      "assetIds": []
    },
    {
      "x": 179,
      "y": 137,
      "size": 1,
      "price": "1011000000000000000000",
      "reserved": "",
      "salt": "0x7dd4000708d7b28a16192a080ab976dbcea1adf7443bd48a6e3e7b5a462d5fb0",
      "assetIds": []
    },
    {
      "x": 179,
      "y": 136,
      "size": 1,
      "price": "1011000000000000000000",
      "reserved": "",
      "salt": "0x0e56d44bd823267c239f24974e50ba264ba55432f826a9594039b1a79124e389",
      "assetIds": []
    },
    {
      "x": 179,
      "y": 135,
      "size": 1,
      "price": "1011000000000000000000",
      "reserved": "",
      "salt": "0x19fd0f1e0e5a0de83b3573a10998dc13e5e6bf054d858b31c1804b15778c2557",
      "assetIds": []
    },
    {
      "x": 178,
      "y": 135,
      "size": 1,
      "price": "1011000000000000000000",
      "reserved": "",
      "salt": "0x40278fede675eb1f3934211d1812983664b2db07ea17d20f2fa4b8b3042baa8d",
      "assetIds": []
    },
    {
      "x": 177,
      "y": 135,
      "size": 1,
      "price": "1011000000000000000000",
      "reserved": "",
      "salt": "0x0cc41b3836ec6087959b575b0281e7d89aa8f39c9bd34e33adb2c41fcfd46001",
      "assetIds": []
    },
    {
      "x": 176,
      "y": 135,
      "size": 1,
      "price": "1011000000000000000000",
      "reserved": "",
      "salt": "0x6e30e7341a55a3b3501fc4b8ed656e4690d6c0380c045be0aad8f5560ad4dfab",
      "assetIds": []
    },
    {
      "x": 175,
      "y": 135,
      "size": 1,
      "price": "1011000000000000000000",
      "reserved": "",
      "salt": "0x457acb70ba60399198ff540acfab55e915b3cc920acf16401cde7c2318a4bedb",
      "assetIds": []
    },
    {
      "x": 175,
      "y": 136,
      "size": 1,
      "price": "1011000000000000000000",
      "reserved": "",
      "salt": "0x1f4f9316198c5f339027b1b49315f4559c44c885240482ca35c1b6b7091b8358",
      "assetIds": []
    },
    {
      "x": 175,
      "y": 137,
      "size": 1,
      "price": "1011000000000000000000",
      "reserved": "",
      "salt": "0x946c3f004bea97810db098e94da6f72bfdc6f3ffb55db69c6cc64070b2aa4cf1",
      "assetIds": []
    },
    {
      "x": 175,
      "y": 138,
      "size": 1,
      "price": "1011000000000000000000",
      "reserved": "",
      "salt": "0x5843a97c579d266d317668de90babcb9f4456f4de1269971d21fe2039b4bbe22",
      "assetIds": []
    },
    {
      "x": 175,
      "y": 139,
      "size": 1,
      "price": "1011000000000000000000",
      "reserved": "",
      "salt": "0x0261a782192c04251e60ba9d1f9d29c2ae7724bfd25ad4a48493a0bf93d66751",
      "assetIds": []
    },
    {
      "x": 175,
      "y": 140,
      "size": 1,
      "price": "1011000000000000000000",
      "reserved": "",
      "salt": "0x5f3810fbc8a8cb0d62ebe42302253d61b1159b19a77a9ee83a8019a7f419d5e3",
      "assetIds": []
    },
    {
      "x": 175,
      "y": 141,
      "size": 1,
      "price": "1011000000000000000000",
      "reserved": "",
      "salt": "0x07240e6c233e5809f4d0186831999df931c074a080343dd418d049add6f17106",
      "assetIds": []
    },
    {
      "x": 175,
      "y": 142,
      "size": 1,
      "price": "1011000000000000000000",
      "reserved": "",
      "salt": "0xbcd830b9169450ebd4210d325d483cec33009f705599d52fafa93298443cb071",
      "assetIds": []
    },
    {
      "x": 175,
      "y": 143,
      "size": 1,
      "price": "1011000000000000000000",
      "reserved": "",
      "salt": "0xdfb7449654542417386dd5e5c232b46b5cba2b57cc4de441b89f9cdde4e53df3",
      "assetIds": []
    },
    {
      "x": 175,
      "y": 144,
      "size": 1,
      "price": "1011000000000000000000",
      "reserved": "",
      "salt": "0xc73ed2c7539e7a8a85fbd03e86964387c749d010f35b4e559a83761ebeb5bc6c",
      "assetIds": []
    },
    {
      "x": 175,
      "y": 145,
      "size": 1,
      "price": "1011000000000000000000",
      "reserved": "",
      "salt": "0x0582c4543fe86c6a80bdbac436bd6cd965b500efe39b0ca5e1ba4c52ccc0ab1e",
      "assetIds": []
    },
    {
      "x": 175,
      "y": 146,
      "size": 1,
      "price": "1011000000000000000000",
      "reserved": "",
      "salt": "0x73121536ef34ef6e0198fe21c3abcbfe4d7bef47ef43df73044600e1056095ac",
      "assetIds": []
    },
    {
      "x": 175,
      "y": 147,
      "size": 1,
      "price": "1011000000000000000000",
      "reserved": "",
      "salt": "0x4b25ea702502af2a809131518485456d65fbae4bae93d706ead1acb51512c557",
      "assetIds": []
    },
    {
      "x": 175,
      "y": 148,
      "size": 1,
      "price": "1011000000000000000000",
      "reserved": "",
      "salt": "0x16714c3ed86e0389406e061bf83b9f0d059b62c2ff7ee139c17c1d8d16c38590",
      "assetIds": []
    },
    {
      "x": 175,
      "y": 149,
      "size": 1,
      "price": "1011000000000000000000",
      "reserved": "",
      "salt": "0x9176c52c8ded7d3c9e5d08a4c16dd6cb8e06c680a30b37a7efa4bd79d2da01fd",
      "assetIds": []
    },
    {
      "x": 175,
      "y": 150,
      "size": 1,
      "price": "1011000000000000000000",
      "reserved": "",
      "salt": "0x77ebe35620b0ca28efe4a8148d5ce17b8a7b3719593a6c0b3dbc1a7f62b4ba51",
      "assetIds": []
    },
    {
      "x": 175,
      "y": 151,
      "size": 1,
      "price": "1011000000000000000000",
      "reserved": "",
      "salt": "0xcf324b7be645ec4330877daba35dcb1fc61b42f4219fd61afac4df546f1926b3",
      "assetIds": []
    },
    {
      "x": 175,
      "y": 152,
      "size": 1,
      "price": "1011000000000000000000",
      "reserved": "",
      "salt": "0x66601ee29234f7b7bbd290471ddc0aa7ad224f132cadfac6e452a8c82299cdfd",
      "assetIds": []
    },
    {
      "x": 175,
      "y": 153,
      "size": 1,
      "price": "1011000000000000000000",
      "reserved": "",
      "salt": "0x8c6159afce66309f8c589da3e86739a0a99db0e3ef765576e69f9c6b748d8539",
      "assetIds": []
    },
    {
      "x": 175,
      "y": 154,
      "size": 1,
      "price": "1011000000000000000000",
      "reserved": "",
      "salt": "0x0e95eab667f2f42e2a6959f5e32ede5dfc0039d6d1698856450974e90c116cc6",
      "assetIds": []
    },
    {
      "x": 175,
      "y": 155,
      "size": 1,
      "price": "1011000000000000000000",
      "reserved": "",
      "salt": "0x413c3b9f8eb30a39a66a09328729e5a5e2c0e149ae9627e2c49dc6d0a2349410",
      "assetIds": []
    },
    {
      "x": 175,
      "y": 156,
      "size": 1,
      "price": "1011000000000000000000",
      "reserved": "",
      "salt": "0x41d0e789ae416b4063c04d791594171583709c6edfb075b667c22f0bd92de616",
      "assetIds": []
    },
    {
      "x": 175,
      "y": 157,
      "size": 1,
      "price": "1011000000000000000000",
      "reserved": "",
      "salt": "0xe18710ea1cc2af4c3f7b45b36364b4cd4617e7ca05be3f31da211a24d93ab828",
      "assetIds": []
    },
    {
      "x": 175,
      "y": 158,
      "size": 1,
      "price": "1011000000000000000000",
      "reserved": "",
      "salt": "0x8564c3a39d731e6080046e68c8fae3cd33f879ce576fc683cd866b9aaeccd487",
      "assetIds": []
    },
    {
      "x": 175,
      "y": 159,
      "size": 1,
      "price": "1011000000000000000000",
      "reserved": "",
      "salt": "0xb879de4dbfa7826e300478ce63169f3abccbfad817c4f10050620b5bdb410988",
      "assetIds": []
    },
    {
      "x": 176,
      "y": 159,
      "size": 1,
      "price": "1011000000000000000000",
      "reserved": "",
      "salt": "0x55a24dc2c9c9f8ae1cfaea71a106ae580c6ee05da3c8021005d105a0d642f294",
      "assetIds": []
    },
    {
      "x": 176,
      "y": 160,
      "size": 1,
      "price": "1011000000000000000000",
      "reserved": "",
      "salt": "0x4c4b5ad5d3ec1e6155b6ea437cad45bb853d034a389babda0e56ed4bf6cb585e",
      "assetIds": []
    },
    {
      "x": 175,
      "y": 160,
      "size": 1,
      "price": "1011000000000000000000",
      "reserved": "",
      "salt": "0x4c92297a0db7c9860c1a690068867063bbaca96e89dbc55f7cfad3c0e46435ad",
      "assetIds": []
    },
    {
      "x": 175,
      "y": 161,
      "size": 1,
      "price": "1011000000000000000000",
      "reserved": "",
      "salt": "0x6222a4353a4397c4962fe3bd78432153bb3eae405d07ca3b013aee39030377e8",
      "assetIds": []
    },
    {
      "x": 176,
      "y": 161,
      "size": 1,
      "price": "1011000000000000000000",
      "reserved": "",
      "salt": "0xbf7660097a01f04417e81a8f801f3625d027ee07cac9173043750792f0e715a5",
      "assetIds": []
    },
    {
      "x": 177,
      "y": 160,
      "size": 1,
      "price": "1011000000000000000000",
      "reserved": "",
      "salt": "0xbd2e13312e347faf88fbbda5f46ac8a7b2afc0c44c0212b0c47b187d4380413e",
      "assetIds": []
    },
    {
      "x": 177,
      "y": 161,
      "size": 1,
      "price": "1011000000000000000000",
      "reserved": "",
      "salt": "0x126e29a3ed89f5a59de01b36458a3dc5beea4b95f5ba78d3b32b564ffb687220",
      "assetIds": []
    },
    {
      "x": 178,
      "y": 161,
      "size": 1,
      "price": "1011000000000000000000",
      "reserved": "",
      "salt": "0xc916e6d0e25aa6e444ed7229b6e2b4d8ac20eecfedbc7f42fb9953ca12b8b373",
      "assetIds": []
    },
    {
      "x": 179,
      "y": 160,
      "size": 1,
      "price": "1011000000000000000000",
      "reserved": "",
      "salt": "0xb1340a2b4523946bb86caf0192f50d377ba9671cf8c429674ceb46a17504b7a6",
      "assetIds": []
    },
    {
      "x": 178,
      "y": 160,
      "size": 1,
      "price": "1011000000000000000000",
      "reserved": "",
      "salt": "0xf0919055d5669ea4f1ff3297e2ef89bb509dacf6ebc2c0fab6f2c7eff228ff42",
      "assetIds": []
    },
    {
      "x": 177,
      "y": 159,
      "size": 1,
      "price": "1011000000000000000000",
      "reserved": "",
      "salt": "0xcbefd69cebad669fc8adc31012aaedbc1b3e2917c0194d3f31378151119bf982",
      "assetIds": []
    },
    {
      "x": 176,
      "y": 158,
      "size": 1,
      "price": "1011000000000000000000",
      "reserved": "",
      "salt": "0x000c454a6b49faaa0fc74c34bde78e82237934ef085fc108bef918e0cce3725d",
      "assetIds": []
    },
    {
      "x": 176,
      "y": 157,
      "size": 1,
      "price": "1011000000000000000000",
      "reserved": "",
      "salt": "0xd3e0f5d9b044811c96adb2132f4ebcd13a37e9acbfb4a4850841f13dd7c57aa4",
      "assetIds": []
    },
    {
      "x": 176,
      "y": 156,
      "size": 1,
      "price": "1011000000000000000000",
      "reserved": "",
      "salt": "0xa53254e99447e4607fd85c70c06986a62db8b163ac050416d79c44fd86520a14",
      "assetIds": []
    },
    {
      "x": 176,
      "y": 155,
      "size": 1,
      "price": "1011000000000000000000",
      "reserved": "",
      "salt": "0x8b631a8a06dcfdba5e2430893f211ef2977e7f60ac40ff21bf8409d0ee4e3c99",
      "assetIds": []
    },
    {
      "x": 176,
      "y": 154,
      "size": 1,
      "price": "1011000000000000000000",
      "reserved": "",
      "salt": "0x1485845bb3ea0e3b2736e3d243f55ce7bb26a058ab454c29e6f5a5063f3be47c",
      "assetIds": []
    },
    {
      "x": 176,
      "y": 153,
      "size": 1,
      "price": "1011000000000000000000",
      "reserved": "",
      "salt": "0x3a339b1334474a7c14d087c680590a47ee46a83cf50908639cb9e360c0885c44",
      "assetIds": []
    },
    {
      "x": 176,
      "y": 152,
      "size": 1,
      "price": "1011000000000000000000",
      "reserved": "",
      "salt": "0x74cfa0bc0bcd91e51f9b7c56f3a29dda284c5fe11b60cc8c9f96153aacace4bc",
      "assetIds": []
    },
    {
      "x": 176,
      "y": 151,
      "size": 1,
      "price": "1011000000000000000000",
      "reserved": "",
      "salt": "0x4c964ebc22ea0c30183d65d0a29e455f381f5633e4bc63b4e15d7342e4dbdffa",
      "assetIds": []
    },
    {
      "x": 176,
      "y": 150,
      "size": 1,
      "price": "1011000000000000000000",
      "reserved": "",
      "salt": "0xf920e14efaf7850f34cd6fc68f7f9adcd2e4d04ad2408ff7e73cbd83b99a6d1e",
      "assetIds": []
    },
    {
      "x": 176,
      "y": 149,
      "size": 1,
      "price": "1011000000000000000000",
      "reserved": "",
      "salt": "0x7001907c706d09d296380d0f09fe45bd7dcb3bc2423dfbd1d64fd4023a0ec88f",
      "assetIds": []
    },
    {
      "x": 176,
      "y": 148,
      "size": 1,
      "price": "1011000000000000000000",
      "reserved": "",
      "salt": "0x20484830bb7748344c58b10d697969efc95916479f5270c2ee61604b21544d45",
      "assetIds": []
    },
    {
      "x": 176,
      "y": 146,
      "size": 1,
      "price": "1011000000000000000000",
      "reserved": "",
      "salt": "0xbbc555ed98bb9f29ad0c9d3948b8db24a740ce36dfc05279e21c04f5a58e548c",
      "assetIds": []
    },
    {
      "x": 176,
      "y": 145,
      "size": 1,
      "price": "1011000000000000000000",
      "reserved": "",
      "salt": "0x450251d045347b2fe03c616729ef013cf17a38d42512e85d9c61488d7ec616cb",
      "assetIds": []
    },
    {
      "x": 176,
      "y": 144,
      "size": 1,
      "price": "1011000000000000000000",
      "reserved": "",
      "salt": "0x87af76c762cb5a09cf13493dc64006e4b8cdd8150a7a8f9467e340cc83676d2e",
      "assetIds": []
    },
    {
      "x": 176,
      "y": 143,
      "size": 1,
      "price": "1011000000000000000000",
      "reserved": "",
      "salt": "0x30aafc4aa17acea6942419dc5103148a298fe1775438baff6a1d5cbdf6bc91e8",
      "assetIds": []
    },
    {
      "x": 176,
      "y": 142,
      "size": 1,
      "price": "1011000000000000000000",
      "reserved": "",
      "salt": "0x2bbbe4ab843bc1f9d8490a7f93785bfb16dc558a43211bdd556933f61373d629",
      "assetIds": []
    },
    {
      "x": 176,
      "y": 141,
      "size": 1,
      "price": "1011000000000000000000",
      "reserved": "",
      "salt": "0xd66ea01a3349193d1f19b1b54767ec61612bcd25dc2d47ef7ce46d5e28884030",
      "assetIds": []
    },
    {
      "x": 176,
      "y": 140,
      "size": 1,
      "price": "1011000000000000000000",
      "reserved": "",
      "salt": "0xe3c69761126e8efd75c6c7336fd0fa0d81e241854f1790843b2205209accb4cb",
      "assetIds": []
    },
    {
      "x": 177,
      "y": 140,
      "size": 1,
      "price": "1011000000000000000000",
      "reserved": "",
      "salt": "0x0ca9dd0ae8ca5cf7ab9c42a6b53af839e602f58c35225c8a609896cbf8109b42",
      "assetIds": []
    },
    {
      "x": 178,
      "y": 140,
      "size": 1,
      "price": "1011000000000000000000",
      "reserved": "",
      "salt": "0x6197e0306010708a9323bf0c576b8681eadef2c472883cfe5eba18bd05620482",
      "assetIds": []
    },
    {
      "x": 179,
      "y": 140,
      "size": 1,
      "price": "1011000000000000000000",
      "reserved": "",
      "salt": "0x96441059798500d676b15381bc6021187baa83aedfc126e35940d04bddca6208",
      "assetIds": []
    },
    {
      "x": 179,
      "y": 139,
      "size": 1,
      "price": "1011000000000000000000",
      "reserved": "",
      "salt": "0xb2068728b6071a49dfcdf5f077cb1c342024ee21e751afedb7091cd26762137d",
      "assetIds": []
    },
    {
      "x": 178,
      "y": 138,
      "size": 1,
      "price": "1011000000000000000000",
      "reserved": "",
      "salt": "0xfdc801a6d5310a3e113f23ba07abcbe7c0b81ea7baf978adb8b919af9b36118f",
      "assetIds": []
    },
    {
      "x": 177,
      "y": 138,
      "size": 1,
      "price": "1011000000000000000000",
      "reserved": "",
      "salt": "0x7c9dd28b6eaefa1b4e9a07efbb3e001c1a08616d21cbbeedec2532f82fd894f0",
      "assetIds": []
    },
    {
      "x": 176,
      "y": 138,
      "size": 1,
      "price": "1011000000000000000000",
      "reserved": "",
      "salt": "0x8dfe26054a79049dc124a94df681f2ec99eee9ae951499c3217a883fca824d91",
      "assetIds": []
    },
    {
      "x": 176,
      "y": 137,
      "size": 1,
      "price": "1011000000000000000000",
      "reserved": "",
      "salt": "0xe70881fb29443fac8395cb8506199589b17ed4e02b19fee9b47d38d7fbaf1249",
      "assetIds": []
    },
    {
      "x": 177,
      "y": 137,
      "size": 1,
      "price": "1011000000000000000000",
      "reserved": "",
      "salt": "0x6270df37648cc94fc74230bbd5058382039ca63b87b1f1055e355dfe2948eafb",
      "assetIds": []
    },
    {
      "x": 178,
      "y": 137,
      "size": 1,
      "price": "1011000000000000000000",
      "reserved": "",
      "salt": "0x7ba8cf909a0a47b2403eacaea96dc8e601879a64e07018eea8b30ea15aaea9a2",
      "assetIds": []
    },
    {
      "x": 178,
      "y": 136,
      "size": 1,
      "price": "1011000000000000000000",
      "reserved": "",
      "salt": "0x6ef4ae83c47bdd1f0dfa87899bdd95cb0d00e8d35045cee06690f1d05a7dacee",
      "assetIds": []
    },
    {
      "x": 177,
      "y": 136,
      "size": 1,
      "price": "1011000000000000000000",
      "reserved": "",
      "salt": "0x5bf6f75e6bb508b88e41f213aaf77da3a48234d15bdc372adbc5139e9466c718",
      "assetIds": []
    },
    {
      "x": 176,
      "y": 136,
      "size": 1,
      "price": "1011000000000000000000",
      "reserved": "",
      "salt": "0x7372c648852b45dd776482834b375ed51e1b070a78c3a3421bf8b3fc0d9fa9e5",
      "assetIds": []
    },
    {
      "x": 176,
      "y": 139,
      "size": 1,
      "price": "1011000000000000000000",
      "reserved": "",
      "salt": "0x39eefbbe57a5f5a2594dbe4975cf4596b20f85d1d9f872d67fab1374c11fe09d",
      "assetIds": []
    },
    {
      "x": 177,
      "y": 139,
      "size": 1,
      "price": "1011000000000000000000",
      "reserved": "",
      "salt": "0xd5a554c54488c7c4f8f255fbefe2b66994e79895909942f09df9561516a25113",
      "assetIds": []
    },
    {
      "x": 178,
      "y": 139,
      "size": 1,
      "price": "1011000000000000000000",
      "reserved": "",
      "salt": "0x0e0e5c2c7a3dc8ebbc2dd63a53ca138679104b27a00ac6c0522fb1ec7601437b",
      "assetIds": []
    },
    {
      "x": 180,
      "y": 142,
      "size": 1,
      "price": "1011000000000000000000",
      "reserved": "",
      "salt": "0xbd24c9db82db5814bda4a063b6b738baedafd2733af52ee0a620359208deb0a3",
      "assetIds": []
    },
    {
      "x": 181,
      "y": 142,
      "size": 1,
      "price": "1011000000000000000000",
      "reserved": "",
      "salt": "0xf1bac72646aa829719e3edb4e852ffd8788cb019f53fd0f453e6915f9d6f2efa",
      "assetIds": []
    },
    {
      "x": 182,
      "y": 142,
      "size": 1,
      "price": "1011000000000000000000",
      "reserved": "",
      "salt": "0xfc0a11e93c65aa0b0280516825b385eee0a0c328f365056fff45c0e7b7dbcad9",
      "assetIds": []
    },
    {
      "x": 182,
      "y": 141,
      "size": 1,
      "price": "1011000000000000000000",
      "reserved": "",
      "salt": "0xfb2eab493cc413e5507cc06933461ddfb33520db39dcc39fb6d90ead9472c1d7",
      "assetIds": []
    },
    {
      "x": 183,
      "y": 140,
      "size": 1,
      "price": "1011000000000000000000",
      "reserved": "",
      "salt": "0xbe0aa722c528e40ebf962cf0047678a6db554bf9e5f360ac4a71de5871c1a3a4",
      "assetIds": []
    },
    {
      "x": 184,
      "y": 140,
      "size": 1,
      "price": "1011000000000000000000",
      "reserved": "",
      "salt": "0x58e611b2bacf53cad682ed84e852c675cbe940e703be61c145139cb12afded44",
      "assetIds": []
    },
    {
      "x": 185,
      "y": 140,
      "size": 1,
      "price": "1011000000000000000000",
      "reserved": "",
      "salt": "0x4b3bb4f12f01890ffee8504b9ed667c6f41ef4c159916441109831a1b9df7e97",
      "assetIds": []
    },
    {
      "x": 186,
      "y": 140,
      "size": 1,
      "price": "1011000000000000000000",
      "reserved": "",
      "salt": "0xb3b8686b712923708850d9b54ffe01117e276d5846a6843a47ee3bb45c333922",
      "assetIds": []
    },
    {
      "x": 186,
      "y": 141,
      "size": 1,
      "price": "1011000000000000000000",
      "reserved": "",
      "salt": "0x8d4fc8ed9bd01758a8498e82b5325f8fa87a4755a47ef12c9f25ee8e3c91b51f",
      "assetIds": []
    },
    {
      "x": 186,
      "y": 142,
      "size": 1,
      "price": "1011000000000000000000",
      "reserved": "",
      "salt": "0xaeaadaeca223a3e36b12a107f08aaefb62ccb5b01423344b1733f7d869829e3b",
      "assetIds": []
    },
    {
      "x": 187,
      "y": 142,
      "size": 1,
      "price": "1011000000000000000000",
      "reserved": "",
      "salt": "0xd30543331afdb65aed877cb46dfd17a685a5af629c0b418a4fe90619be67817e",
      "assetIds": []
    },
    {
      "x": 187,
      "y": 141,
      "size": 1,
      "price": "1011000000000000000000",
      "reserved": "",
      "salt": "0x6fbc12842c279e27becb96f1e4d90ff5590f6eb5db05e2a06cb6d9490c1d916a",
      "assetIds": []
    },
    {
      "x": 187,
      "y": 140,
      "size": 1,
      "price": "1011000000000000000000",
      "reserved": "",
      "salt": "0xc9f6e68b32a6775af48cc0bd70ab32d9f1d3ec139245a67d72e3b484935777fa",
      "assetIds": []
    },
    {
      "x": 182,
      "y": 140,
      "size": 1,
      "price": "1011000000000000000000",
      "reserved": "",
      "salt": "0x089adbe08233111a924724bc1cce2476ef57b6b8d6cfd9f07d4001cac50afbb4",
      "assetIds": []
    },
    {
      "x": 181,
      "y": 140,
      "size": 1,
      "price": "1011000000000000000000",
      "reserved": "",
      "salt": "0xae1faa958c39a0111016d2ce2dbcf9034de563d4fc618185b2b4366afdb9c613",
      "assetIds": []
    },
    {
      "x": 180,
      "y": 140,
      "size": 1,
      "price": "1011000000000000000000",
      "reserved": "",
      "salt": "0xa09ed43bf82bbef1eed3d590642f1181debead94d46a4927f76b0858ce94e02d",
      "assetIds": []
    },
    {
      "x": 180,
      "y": 141,
      "size": 1,
      "price": "1011000000000000000000",
      "reserved": "",
      "salt": "0x0f76df304a041c1a5bb0114274d526afe13008d2462a695d59f8f2185e99a909",
      "assetIds": []
    },
    {
      "x": 181,
      "y": 141,
      "size": 1,
      "price": "1011000000000000000000",
      "reserved": "",
      "salt": "0xae7456974804338dbfe27306a96885a949c5ea40181c600d81bab1f905c47234",
      "assetIds": []
    },
    {
      "x": 180,
      "y": 139,
      "size": 1,
      "price": "1011000000000000000000",
      "reserved": "",
      "salt": "0x4eb2e103241025d8ce0a4f8821a1568014d7534f335e8708c55931355dd02a8d",
      "assetIds": []
    },
    {
      "x": 182,
      "y": 139,
      "size": 1,
      "price": "1011000000000000000000",
      "reserved": "",
      "salt": "0xdf6217d3478831a67f122a7d6461920378c25d382e35779942ecc234c63caa32",
      "assetIds": []
    },
    {
      "x": 183,
      "y": 139,
      "size": 1,
      "price": "1011000000000000000000",
      "reserved": "",
      "salt": "0xf5ea6641cc76b57a38c292b14ec670b0f1d26468d5fcf48d1b74a51a1c7e90a6",
      "assetIds": []
    },
    {
      "x": 184,
      "y": 139,
      "size": 1,
      "price": "1011000000000000000000",
      "reserved": "",
      "salt": "0xa5763ca8e8cbda41bbb52695ad02c2bf127154f55a3b9c523c947465e7308d17",
      "assetIds": []
    },
    {
      "x": 178,
      "y": 155,
      "size": 1,
      "price": "1011000000000000000000",
      "reserved": "",
      "salt": "0x7a8b4560fdc6e2c04e3b7cf2305e40f0ed480ff38049510f09af7f740c619405",
      "assetIds": []
    },
    {
      "x": 178,
      "y": 154,
      "size": 1,
      "price": "1011000000000000000000",
      "reserved": "",
      "salt": "0x2e737b5ce57f3e54860dc8782b390901e0d2cba5e96910bfe849e49a5697e838",
      "assetIds": []
    },
    {
      "x": 178,
      "y": 153,
      "size": 1,
      "price": "1011000000000000000000",
      "reserved": "",
      "salt": "0xeb6791d7ef9bb1cfe50e75cc2d059c68ed2d7abbeffe40c2beff430def14afaa",
      "assetIds": []
    },
    {
      "x": 178,
      "y": 152,
      "size": 1,
      "price": "1011000000000000000000",
      "reserved": "",
      "salt": "0xe446c5d5c6dcfc4e949ff7b326824f3f7f4f709df3ebe0eb32fe3174c9e56b2a",
      "assetIds": []
    },
    {
      "x": 178,
      "y": 151,
      "size": 1,
      "price": "1011000000000000000000",
      "reserved": "",
      "salt": "0xd18be60ecb7f33218d703849b2f55446bcd8684b9a3f93097fd641661addbaca",
      "assetIds": []
    },
    {
      "x": 178,
      "y": 150,
      "size": 1,
      "price": "1011000000000000000000",
      "reserved": "",
      "salt": "0x388c8421f387be7e4189b8b0fa033f1aad9fa8b3401b13cbb88bed6400962790",
      "assetIds": []
    },
    {
      "x": 178,
      "y": 149,
      "size": 1,
      "price": "1011000000000000000000",
      "reserved": "",
      "salt": "0xbaf39ee856bb9b989340f332439848fcb54d636f17ef7f0529f45d7b3231d028",
      "assetIds": []
    },
    {
      "x": 178,
      "y": 148,
      "size": 1,
      "price": "1011000000000000000000",
      "reserved": "",
      "salt": "0x658ca202a59f3599ee8b26ff4815ff074fe59682f2cf7eadc27245c45cf5b9ed",
      "assetIds": []
    },
    {
      "x": 178,
      "y": 147,
      "size": 1,
      "price": "1011000000000000000000",
      "reserved": "",
      "salt": "0x591c4c7f5cdd8b499cec75b4fbd4a817a7f8147f1054dedfdf4633ee73e48266",
      "assetIds": []
    },
    {
      "x": 178,
      "y": 146,
      "size": 1,
      "price": "1011000000000000000000",
      "reserved": "",
      "salt": "0xf4c8e25cd3e86356f1ffe40e1ee29bc72c3866be515e72495e4b4923c60002e3",
      "assetIds": []
    },
    {
      "x": 178,
      "y": 145,
      "size": 1,
      "price": "1011000000000000000000",
      "reserved": "",
      "salt": "0x63288428b2b2c0dc168ec7bbb100637a630dc7ab4d558cb9f454d07c26fc07fd",
      "assetIds": []
    },
    {
      "x": 178,
      "y": 144,
      "size": 1,
      "price": "1011000000000000000000",
      "reserved": "",
      "salt": "0x9d83dee64f458694906c5afa7801f97c765ebb53677a337c7bfa0438cf4ba3d3",
      "assetIds": []
    },
    {
      "x": 177,
      "y": 144,
      "size": 1,
      "price": "1011000000000000000000",
      "reserved": "",
      "salt": "0xf143a3e84822c9a58d2c2a585431a58587e05bf77187a7a1cbe8811f0ae43137",
      "assetIds": []
    },
    {
      "x": 177,
      "y": 145,
      "size": 1,
      "price": "1011000000000000000000",
      "reserved": "",
      "salt": "0x601fbb2918798873b6aba456a27b5ee9938df00df5d90955fae02d0d70674c59",
      "assetIds": []
    },
    {
      "x": 177,
      "y": 146,
      "size": 1,
      "price": "1011000000000000000000",
      "reserved": "",
      "salt": "0xbba32a650d4667df2309311f86674fc120bd863e2bcdb99ce95fd6475cb52a8e",
      "assetIds": []
    },
    {
      "x": 177,
      "y": 147,
      "size": 1,
      "price": "1011000000000000000000",
      "reserved": "",
      "salt": "0x14a70b0d750a8088d601c42751e532d2cdfab24825e203848b569ccd6a67232d",
      "assetIds": []
    },
    {
      "x": 177,
      "y": 148,
      "size": 1,
      "price": "1011000000000000000000",
      "reserved": "",
      "salt": "0x691d9d8328932256ed883140e2259338786297646c293e2968eb3ba80c1dafd8",
      "assetIds": []
    },
    {
      "x": 177,
      "y": 149,
      "size": 1,
      "price": "1011000000000000000000",
      "reserved": "",
      "salt": "0x0000b5a185799c017dd651748e139bce29a7c7e0b8c2266cf2d046260deafa39",
      "assetIds": []
    },
    {
      "x": 177,
      "y": 150,
      "size": 1,
      "price": "1011000000000000000000",
      "reserved": "",
      "salt": "0x7bdef8c1b38ba4c0d9f0bd35b722190f0a5d168c25f6f41ddfb6d053a665d9c3",
      "assetIds": []
    },
    {
      "x": 177,
      "y": 151,
      "size": 1,
      "price": "1011000000000000000000",
      "reserved": "",
      "salt": "0xe033d2fa103a3900f9913ea632414587e09c74d01b52d609698854a73432bc60",
      "assetIds": []
    },
    {
      "x": 177,
      "y": 152,
      "size": 1,
      "price": "1011000000000000000000",
      "reserved": "",
      "salt": "0x4d3b3c7ccce1a7dfacd6dc62f44f4fc3e48206d91c93d73b9e15f1179219e579",
      "assetIds": []
    },
    {
      "x": 177,
      "y": 155,
      "size": 1,
      "price": "1011000000000000000000",
      "reserved": "",
      "salt": "0x4f3d3c05df4a34e2e8755b92c46dd218823de187667d170c005cb8cd5ff2493e",
      "assetIds": []
    },
    {
      "x": 177,
      "y": 154,
      "size": 1,
      "price": "1011000000000000000000",
      "reserved": "",
      "salt": "0xc30eb7c9aaa113cb3ba7a6b4fea24fb6f997abf5d0d0b5a63e194d96e9a594b8",
      "assetIds": []
    },
    {
      "x": 177,
      "y": 153,
      "size": 1,
      "price": "1011000000000000000000",
      "reserved": "",
      "salt": "0x96745841148eee21e61b299e7ca4e298b5ef30c5399ee08504047629f36a71b0",
      "assetIds": []
    },
    {
      "x": 179,
      "y": 150,
      "size": 1,
      "price": "1011000000000000000000",
      "reserved": "",
      "salt": "0x48aeb492d3849bcc50905a7058d7da4a96e75aa28adb8b9e0288b93cf8c45f9c",
      "assetIds": []
    },
    {
      "x": 179,
      "y": 151,
      "size": 1,
      "price": "1011000000000000000000",
      "reserved": "",
      "salt": "0xb30e00ca5eb113dcb230de084c25972aa5fd5e95bfebd8d6a04b2623a2b81be8",
      "assetIds": []
    },
    {
      "x": 179,
      "y": 152,
      "size": 1,
      "price": "1011000000000000000000",
      "reserved": "",
      "salt": "0xcb6db0ae860ed6aa5cdad032423414bfd6ca5a27e9de19e779dfd3ce96d98f86",
      "assetIds": []
    },
    {
      "x": 179,
      "y": 153,
      "size": 1,
      "price": "1011000000000000000000",
      "reserved": "",
      "salt": "0x6262271ed791e41370f1b0ad428c71328bc52512bc254ba6c374c3ce4967ec7a",
      "assetIds": []
    },
    {
      "x": 179,
      "y": 154,
      "size": 1,
      "price": "1011000000000000000000",
      "reserved": "",
      "salt": "0xf203b4d806529a6c0ff8098d2a0a8cef929133c5ecf5da08330040e0dee69b79",
      "assetIds": []
    },
    {
      "x": 179,
      "y": 155,
      "size": 1,
      "price": "1011000000000000000000",
      "reserved": "",
      "salt": "0x740148df6abec9d730cc0a566e82f5bb0153dfdf71e10c51374db9d7b1a215a4",
      "assetIds": []
    },
    {
      "x": 180,
      "y": 155,
      "size": 1,
      "price": "1011000000000000000000",
      "reserved": "",
      "salt": "0xe44c27a077ce3ec3c4bc5fec517dcb10c2d02206fa3fe7f8b312f34864a97843",
      "assetIds": []
    },
    {
      "x": 181,
      "y": 154,
      "size": 1,
      "price": "1011000000000000000000",
      "reserved": "",
      "salt": "0xddfbbef5f9be8d591bb45875e3f3c2de42d0f8467d5d21b6c00a2875ee40f515",
      "assetIds": []
    },
    {
      "x": 182,
      "y": 154,
      "size": 1,
      "price": "1011000000000000000000",
      "reserved": "",
      "salt": "0x6e40a15b99d8951e4d754feaf005f87fc183fd8f2872edca7ad34f8001352e48",
      "assetIds": []
    },
    {
      "x": 182,
      "y": 155,
      "size": 1,
      "price": "1011000000000000000000",
      "reserved": "",
      "salt": "0x4ed743834aa5cfef346f11824b79d2838ea635711aa5f2e7e713e50100237a36",
      "assetIds": []
    },
    {
      "x": 181,
      "y": 155,
      "size": 1,
      "price": "1011000000000000000000",
      "reserved": "",
      "salt": "0x216b32c1bde0444e797f160f3fe87f21ea663ca01021c823bf217e51948ede4f",
      "assetIds": []
    },
    {
      "x": 180,
      "y": 154,
      "size": 1,
      "price": "1011000000000000000000",
      "reserved": "",
      "salt": "0x06b54e2931b76de49d60d638f0d1e3cf3c0e81e10c26261c004293aae1a2c7b1",
      "assetIds": []
    },
    {
      "x": 180,
      "y": 152,
      "size": 1,
      "price": "1011000000000000000000",
      "reserved": "",
      "salt": "0x32c47618464aceb693c5744255146f91db9cd08b964f400fb296419fab979e42",
      "assetIds": []
    },
    {
      "x": 180,
      "y": 151,
      "size": 1,
      "price": "1011000000000000000000",
      "reserved": "",
      "salt": "0xbff6ea6749990c13d30faf7eac10d0744573eb12b9163b9878bc5844a126bf6d",
      "assetIds": []
    },
    {
      "x": 181,
      "y": 151,
      "size": 1,
      "price": "1011000000000000000000",
      "reserved": "",
      "salt": "0xa7b39e6136e05243385d85a5a04d93643ad58f6b15d58be5b83e83f3734e7ae9",
      "assetIds": []
    },
    {
      "x": 182,
      "y": 151,
      "size": 1,
      "price": "1011000000000000000000",
      "reserved": "",
      "salt": "0xe3bd2bd3b66538da0220fe1a19209cda53c8f08149f05843e348f661e7fde05d",
      "assetIds": []
    },
    {
      "x": 183,
      "y": 151,
      "size": 1,
      "price": "1011000000000000000000",
      "reserved": "",
      "salt": "0xfca0bb8c68dad28e2a47b5e225e0bfd8743a1d0bb4328e5ed31f3e17a78ebb6d",
      "assetIds": []
    },
    {
      "x": 184,
      "y": 151,
      "size": 1,
      "price": "1011000000000000000000",
      "reserved": "",
      "salt": "0x6f067140fc9060251b5a26e9d24b159a6310e4b0b71e53afc893b4267107dd41",
      "assetIds": []
    },
    {
      "x": 185,
      "y": 151,
      "size": 1,
      "price": "1011000000000000000000",
      "reserved": "",
      "salt": "0xcbfbec07086423cbe656ba2e7e4554cc18e7b7c507618b664729f003e9f96ba6",
      "assetIds": []
    },
    {
      "x": 185,
      "y": 152,
      "size": 1,
      "price": "1011000000000000000000",
      "reserved": "",
      "salt": "0xbcb345be253035644840e50563b9fdda51802908079bc20426da472095927916",
      "assetIds": []
    },
    {
      "x": 184,
      "y": 152,
      "size": 1,
      "price": "1011000000000000000000",
      "reserved": "",
      "salt": "0x5e186e2508d68864aca16ad9fa30b6f44440e6d14b2cff0d4258da5392915463",
      "assetIds": []
    },
    {
      "x": 183,
      "y": 152,
      "size": 1,
      "price": "1011000000000000000000",
      "reserved": "",
      "salt": "0xf68646713273fc3daa0acc05a70d8d85d258d75c1b303648c140bdc257469dd2",
      "assetIds": []
    },
    {
      "x": 182,
      "y": 152,
      "size": 1,
      "price": "1011000000000000000000",
      "reserved": "",
      "salt": "0x359dfcdc3e28b94cd77e5bbf535186e2898fefdd80736a884873a8ff345e62ae",
      "assetIds": []
    },
    {
      "x": 181,
      "y": 152,
      "size": 1,
      "price": "1011000000000000000000",
      "reserved": "",
      "salt": "0x7082cdcc457cad4a115793b04f496650f59b5cb7f4fa13b6c6116ab330a208e0",
      "assetIds": []
    },
    {
      "x": 181,
      "y": 153,
      "size": 1,
      "price": "1011000000000000000000",
      "reserved": "",
      "salt": "0x4c63c63caea070d7c37860aca5a5ccb8bc79520242de2259d9487e52b3a24a2e",
      "assetIds": []
    },
    {
      "x": 182,
      "y": 153,
      "size": 1,
      "price": "1011000000000000000000",
      "reserved": "",
      "salt": "0xecc522e482a5eb0f01b6bb8537d1b7fb8280cf5fc22b23aee8dca55df080be62",
      "assetIds": []
    },
    {
      "x": 183,
      "y": 158,
      "size": 1,
      "price": "1011000000000000000000",
      "reserved": "",
      "salt": "0x78d6b2de414114269ce38b12f4c86ec04faf16704df3cf0738a9de71028d03b9",
      "assetIds": []
    },
    {
      "x": 183,
      "y": 157,
      "size": 1,
      "price": "1011000000000000000000",
      "reserved": "",
      "salt": "0xdca0109bb54fd105bbbac81e91daec564f84c90b4c00d886507a14bdf00b3302",
      "assetIds": []
    },
    {
      "x": 183,
      "y": 156,
      "size": 1,
      "price": "1011000000000000000000",
      "reserved": "",
      "salt": "0x2775627836eecd5900de69ff0a79651ac35077d24b21f0dea1a5244bf1ad4598",
      "assetIds": []
    },
    {
      "x": 184,
      "y": 156,
      "size": 1,
      "price": "1011000000000000000000",
      "reserved": "",
      "salt": "0x11bf1519f5f687f08c27175d65eff71614b114bfe3289f230365ca6d8b4aaa10",
      "assetIds": []
    },
    {
      "x": 184,
      "y": 157,
      "size": 1,
      "price": "1011000000000000000000",
      "reserved": "",
      "salt": "0x193de54f69952f701b38fbd2b043dcca73d4ed8b6170cc2defedb669b5f50c38",
      "assetIds": []
    },
    {
      "x": 184,
      "y": 158,
      "size": 1,
      "price": "1011000000000000000000",
      "reserved": "",
      "salt": "0x62757b0195a72cf66bd4625b9d2ac0c17b2eb7e46c9605c3c2215f92c9485730",
      "assetIds": []
    },
    {
      "x": 184,
      "y": 159,
      "size": 1,
      "price": "1011000000000000000000",
      "reserved": "",
      "salt": "0xdab4e7a8a982fca03f844df3b5094ec60f1d2ed9ca80473053a1ebe530969467",
      "assetIds": []
    },
    {
      "x": 184,
      "y": 160,
      "size": 1,
      "price": "1011000000000000000000",
      "reserved": "",
      "salt": "0xe2942767bc1452470f796c7bdb2aa79edf332bd9c44bb98955acfe0c5255837e",
      "assetIds": []
    },
    {
      "x": 184,
      "y": 161,
      "size": 1,
      "price": "1011000000000000000000",
      "reserved": "",
      "salt": "0x4cd41987aa4998ca9dc63da28a1f6f988e872bf84904061c0bf508c0b3a0c37c",
      "assetIds": []
    },
    {
      "x": 184,
      "y": 162,
      "size": 1,
      "price": "1011000000000000000000",
      "reserved": "",
      "salt": "0xbefb34b63dbd65ce14ea7dd410a33efd65f21fec4a23a775ee67e8e462f07764",
      "assetIds": []
    },
    {
      "x": 181,
      "y": 163,
      "size": 1,
      "price": "1011000000000000000000",
      "reserved": "",
      "salt": "0x16de427dfde39657e9a9492683147eaa9c2b5a9a185d20cf424d0940f46fc067",
      "assetIds": []
    },
    {
      "x": 182,
      "y": 163,
      "size": 1,
      "price": "1011000000000000000000",
      "reserved": "",
      "salt": "0x86980200c2e7142b5d4612cc9121700d84199185739225620c63f508f41e10d6",
      "assetIds": []
    },
    {
      "x": 184,
      "y": 163,
      "size": 1,
      "price": "1011000000000000000000",
      "reserved": "",
      "salt": "0x11257fad40cc5fa98c354b5247ae252804bfa414bf93e05663047e3e93bd6e42",
      "assetIds": []
    },
    {
      "x": 183,
      "y": 163,
      "size": 1,
      "price": "1011000000000000000000",
      "reserved": "",
      "salt": "0xaa95abea9f7c40467318c495c66c9073726084b57475d2f53e4f74dfbd34b318",
      "assetIds": []
    },
    {
      "x": 185,
      "y": 163,
      "size": 1,
      "price": "1011000000000000000000",
      "reserved": "",
      "salt": "0x414aa78f8e84968af5655622c3c08725b312893a7f7a4d847146ecb1579e0d29",
      "assetIds": []
    },
    {
      "x": 187,
      "y": 163,
      "size": 1,
      "price": "1011000000000000000000",
      "reserved": "",
      "salt": "0xd976c1894e838be74a7a6a96ffd1310619006a5375e611165b13f8845aefa993",
      "assetIds": []
    },
    {
      "x": 188,
      "y": 163,
      "size": 1,
      "price": "1011000000000000000000",
      "reserved": "",
      "salt": "0x4b1fa8880394bb5303c481e8f678934461bf6390c398bf823ea0dffebe872411",
      "assetIds": []
    },
    {
      "x": 186,
      "y": 163,
      "size": 1,
      "price": "1011000000000000000000",
      "reserved": "",
      "salt": "0x3b60f7abaf30ca8a886adcf850cbc714de7000213e022f571d66b92c81cfd65a",
      "assetIds": []
    },
    {
      "x": 189,
      "y": 163,
      "size": 1,
      "price": "1011000000000000000000",
      "reserved": "",
      "salt": "0x1ad982945b03abd992cd062f6d306608a9e189c7d7a639322f185ffc4025a3be",
      "assetIds": []
    },
    {
      "x": 190,
      "y": 163,
      "size": 1,
      "price": "1011000000000000000000",
      "reserved": "",
      "salt": "0x52b86b66d8d7e803a68f431721e30cbb409b5e0a30b8c16c5dc5f80b01f2e1d3",
      "assetIds": []
    },
    {
      "x": 191,
      "y": 163,
      "size": 1,
      "price": "1011000000000000000000",
      "reserved": "",
      "salt": "0x2ac0e3ecf23dac27f518be0afec821579beed6dc5f83b18691ff3ea07cff6df2",
      "assetIds": []
    },
    {
      "x": 192,
      "y": 163,
      "size": 1,
      "price": "1011000000000000000000",
      "reserved": "",
      "salt": "0x53455eda5cf51a760051fc8aed633ef5169e5789cae9cdef3752a6f3a7591d98",
      "assetIds": []
    },
    {
      "x": 193,
      "y": 163,
      "size": 1,
      "price": "1011000000000000000000",
      "reserved": "",
      "salt": "0x663422b73f48763a164b6413a78ba3b23df0e539691927b83569bf4f20b4f06b",
      "assetIds": []
    },
    {
      "x": 194,
      "y": 163,
      "size": 1,
      "price": "1011000000000000000000",
      "reserved": "",
      "salt": "0x186c4f877bd449f5d9709a5760e1a42d32742124aa4b05986711b4ebeb26f5ce",
      "assetIds": []
    },
    {
      "x": 195,
      "y": 163,
      "size": 1,
      "price": "1011000000000000000000",
      "reserved": "",
      "salt": "0x342f12cc2dedd554766e3db55f7a0e94671628ed45c38e430bf82f907f44d5e8",
      "assetIds": []
    },
    {
      "x": 196,
      "y": 163,
      "size": 1,
      "price": "1011000000000000000000",
      "reserved": "",
      "salt": "0x5af010ed75e108d0e154aa4fdfc7ce0f2f5aca69c739671ad33fcd9e0b5e60bd",
      "assetIds": []
    },
    {
      "x": 196,
      "y": 162,
      "size": 1,
      "price": "1011000000000000000000",
      "reserved": "",
      "salt": "0x2be321a335d882bdfeba449d472efe91e25cb388a47be570ac8b3d10f30b1dc8",
      "assetIds": []
    },
    {
      "x": 196,
      "y": 161,
      "size": 1,
      "price": "1011000000000000000000",
      "reserved": "",
      "salt": "0xa14667b3ab25b130bf761944e469f7e60cb45126508775c4b45a388cc4f7daef",
      "assetIds": []
    },
    {
      "x": 196,
      "y": 160,
      "size": 1,
      "price": "1011000000000000000000",
      "reserved": "",
      "salt": "0xb76e6a8d633b784c39296b17f1c3080e6f4dbcaf5387222af3bdc6730cb29c87",
      "assetIds": []
    },
    {
      "x": 196,
      "y": 159,
      "size": 1,
      "price": "1011000000000000000000",
      "reserved": "",
      "salt": "0x3d99f27cf07f84aaef4680817a522284586fc1b6a61c621abf042706f25911a1",
      "assetIds": []
    },
    {
      "x": 196,
      "y": 158,
      "size": 1,
      "price": "1011000000000000000000",
      "reserved": "",
      "salt": "0x415dc4a54bf96ab09691c436a5d1550ec24acabad3b5c3284a2158b0d9735f64",
      "assetIds": []
    },
    {
      "x": 196,
      "y": 157,
      "size": 1,
      "price": "1011000000000000000000",
      "reserved": "",
      "salt": "0x5e262c2f5a773ec64b9bce850c9e309b8a806494350107125ce0eb4eaee516f4",
      "assetIds": []
    },
    {
      "x": 196,
      "y": 156,
      "size": 1,
      "price": "1011000000000000000000",
      "reserved": "",
      "salt": "0xebfcf9b0d02f2a4aaa7be863fa098dabb635e67f9b9ac3e13b25c45a94422082",
      "assetIds": []
    },
    {
      "x": 195,
      "y": 156,
      "size": 1,
      "price": "1011000000000000000000",
      "reserved": "",
      "salt": "0xb40423446afa3bcecbee4d87d58e5a4be06a3042fa3deffc9b3aa19ee0bfb231",
      "assetIds": []
    },
    {
      "x": 194,
      "y": 155,
      "size": 1,
      "price": "1011000000000000000000",
      "reserved": "",
      "salt": "0x51cf38e9c650aad72955e1793fef4f6f599c0a559cc7fdad38e6f6c8fa7539c7",
      "assetIds": []
    },
    {
      "x": 194,
      "y": 154,
      "size": 1,
      "price": "1011000000000000000000",
      "reserved": "",
      "salt": "0x8081b6b3773be19e0a5304226c19c9747a739a5134e8b33053556b2d69e9ef2f",
      "assetIds": []
    },
    {
      "x": 193,
      "y": 154,
      "size": 1,
      "price": "1011000000000000000000",
      "reserved": "",
      "salt": "0x4049c4b77634a77f9c7723a57662223a9364314c92a90e034a089b16bf4f5128",
      "assetIds": []
    },
    {
      "x": 192,
      "y": 154,
      "size": 1,
      "price": "1011000000000000000000",
      "reserved": "",
      "salt": "0x8b8bab2c38e14e7699e7fb079bc287c99b8d45800b4fe762c129f3dc5cd67cd4",
      "assetIds": []
    },
    {
      "x": 192,
      "y": 155,
      "size": 1,
      "price": "1011000000000000000000",
      "reserved": "",
      "salt": "0x817b3f5935087039540fb45467e39da016d8b45f96372e307fadcf5b8fe82455",
      "assetIds": []
    },
    {
      "x": 193,
      "y": 155,
      "size": 1,
      "price": "1011000000000000000000",
      "reserved": "",
      "salt": "0xce58227b867e6321f6267189a1513b9f6e23cb4080e584e33e04d97fa2c0a69d",
      "assetIds": []
    },
    {
      "x": 193,
      "y": 156,
      "size": 1,
      "price": "1011000000000000000000",
      "reserved": "",
      "salt": "0xebb6125fd5184f428a3a8ba3c72931c7680c84e7b1c70ce2aabe06e7d5f2cfaa",
      "assetIds": []
    },
    {
      "x": 193,
      "y": 157,
      "size": 1,
      "price": "1011000000000000000000",
      "reserved": "",
      "salt": "0x8e0f39e0b6365db3411bf11f8e6c1a9f4175adaa665cca8bcb1eb91ebabad102",
      "assetIds": []
    },
    {
      "x": 193,
      "y": 158,
      "size": 1,
      "price": "1011000000000000000000",
      "reserved": "",
      "salt": "0x42be479ced3f98721e04b71069b5e7111a225a7df9a604238e1075aff6610cbb",
      "assetIds": []
    },
    {
      "x": 194,
      "y": 158,
      "size": 1,
      "price": "1011000000000000000000",
      "reserved": "",
      "salt": "0x55a304e572855504ecbd921a7573c1eeb88db62bbf37eca9067ff7b4e91a5173",
      "assetIds": []
    },
    {
      "x": 194,
      "y": 157,
      "size": 1,
      "price": "1011000000000000000000",
      "reserved": "",
      "salt": "0xf92e54504cadeb99e98a3395decd445472faf2289f2e6fec802ad49d012a1048",
      "assetIds": []
    },
    {
      "x": 194,
      "y": 156,
      "size": 1,
      "price": "1011000000000000000000",
      "reserved": "",
      "salt": "0xdd4e607ca94a05c81fa56759fd8dfa38c3cce5b91609ee21a0b0dcefcdf6c0e7",
      "assetIds": []
    },
    {
      "x": 195,
      "y": 157,
      "size": 1,
      "price": "1011000000000000000000",
      "reserved": "",
      "salt": "0xc5ff40663d65ba10c4df7bb5b22a37c80b60018c4491dbcf122a66ca9a79d9d9",
      "assetIds": []
    },
    {
      "x": 195,
      "y": 158,
      "size": 1,
      "price": "1011000000000000000000",
      "reserved": "",
      "salt": "0x548fad6ad8986d58de795921b9ae9fdc7b6218b01a736355b028dda38e996297",
      "assetIds": []
    },
    {
      "x": 195,
      "y": 159,
      "size": 1,
      "price": "1011000000000000000000",
      "reserved": "",
      "salt": "0x9b3f86eec0adfe8023b9649ee72d7a7ddd2b3ca8b5e902360466b86fe3a028ae",
      "assetIds": []
    },
    {
      "x": 195,
      "y": 160,
      "size": 1,
      "price": "1011000000000000000000",
      "reserved": "",
      "salt": "0x088906aa0302820b680e4d0eea91a2b12e8c6dd762bfc81adec0f8214e7bcc42",
      "assetIds": []
    },
    {
      "x": 195,
      "y": 161,
      "size": 1,
      "price": "1011000000000000000000",
      "reserved": "",
      "salt": "0xf6ac0fb6ea9a1c9183363342d2901eb990b9c51f78bd0659af8133c5f4fff68e",
      "assetIds": []
    },
    {
      "x": 195,
      "y": 162,
      "size": 1,
      "price": "1011000000000000000000",
      "reserved": "",
      "salt": "0x3cf0bd569162b284e111752cd866e6e6333af0a1df527d838a1c714be31ff188",
      "assetIds": []
    },
    {
      "x": 194,
      "y": 162,
      "size": 1,
      "price": "1011000000000000000000",
      "reserved": "",
      "salt": "0x060a62680f1edfc3ca6f6b1edc847bb68f4a3a6f9caea8fd4d0f7aeb8594aa37",
      "assetIds": []
    },
    {
      "x": 193,
      "y": 162,
      "size": 1,
      "price": "1011000000000000000000",
      "reserved": "",
      "salt": "0x7c366c75db104b32688c6fd6e5520329de8cbf41b55446bd7168490d88b7c0a2",
      "assetIds": []
    },
    {
      "x": 192,
      "y": 162,
      "size": 1,
      "price": "1011000000000000000000",
      "reserved": "",
      "salt": "0xda33cdfad7d6b0dcac5b35c7c50dd3057aaf0b997ec6d7ffdfe61af96a847025",
      "assetIds": []
    },
    {
      "x": 185,
      "y": 158,
      "size": 1,
      "price": "1011000000000000000000",
      "reserved": "",
      "salt": "0xe50597a14b0b127bb9265d2ed1805226a71556b40ab99a64314fec07c1b57542",
      "assetIds": []
    },
    {
      "x": 185,
      "y": 162,
      "size": 1,
      "price": "1011000000000000000000",
      "reserved": "",
      "salt": "0xd98e1a8f2f241505d8e7fe1ea647be01a0a44e6a953dfe03b28d176948817168",
      "assetIds": []
    },
    {
      "x": 183,
      "y": 162,
      "size": 1,
      "price": "1011000000000000000000",
      "reserved": "0x7a9fe22691c811ea339d9b73150e6911a5343dca",
      "salt": "0x8c54c36989f2bbb20aaf89eaa79e41571076c49a69e00e1c1916c675488144b2",
      "assetIds": []
    },
    {
      "x": 185,
      "y": 161,
      "size": 1,
      "price": "1011000000000000000000",
      "reserved": "0x7a9fe22691c811ea339d9b73150e6911a5343dca",
      "salt": "0x0ff8524f3ec2b6c528361deec2f8ba62b2e01a1347bef7a6e70571d7c39c2a56",
      "assetIds": []
    },
    {
      "x": 191,
      "y": 162,
      "size": 1,
      "price": "1011000000000000000000",
      "reserved": "0x7a9fe22691c811ea339d9b73150e6911a5343dca",
      "salt": "0x944488779bd9860520082cb67c1872cb92ebafa991a243965da50075864d2db1",
      "assetIds": []
    },
    {
      "x": 195,
      "y": 149,
      "size": 1,
      "price": "1011000000000000000000",
      "reserved": "0x7a9fe22691c811ea339d9b73150e6911a5343dca",
      "salt": "0xe37b91286b50044d62ef07dccbf40895cb7c4cfd5d5833c3bf0f0159c3390291",
      "assetIds": []
    },
    {
      "x": 185,
      "y": 150,
      "size": 1,
      "price": "1011000000000000000000",
      "reserved": "0x7a9fe22691c811ea339d9b73150e6911a5343dca",
      "salt": "0xe6ad70dfd42f2725047f6ada783f9bd304bff47ade763c34d0632cd03010fa6a",
      "assetIds": []
    },
    {
      "x": 179,
      "y": 149,
      "size": 1,
      "price": "1011000000000000000000",
      "reserved": "0x7a9fe22691c811ea339d9b73150e6911a5343dca",
      "salt": "0x7a1563ca25b4d2b0d7715694cbe1e1591b689f5c17eeb077ab30f1f730d6d419",
      "assetIds": []
    },
    {
      "x": 179,
      "y": 146,
      "size": 1,
      "price": "1011000000000000000000",
      "reserved": "0x7a9fe22691c811ea339d9b73150e6911a5343dca",
      "salt": "0x9eead1f60a7879066273ed5e5ee3b48279cd8921af786185a0cf113e47ba8cd1",
      "assetIds": []
    },
    {
      "x": 206,
      "y": 140,
      "size": 1,
      "price": "1011000000000000000000",
      "reserved": "",
      "salt": "0x6c39ee51d07ff1cb52c15f29a788bf8a00e2ccdeae17cc0880be76d00113c773",
      "assetIds": []
    },
    {
      "x": 206,
      "y": 139,
      "size": 1,
      "price": "1011000000000000000000",
      "reserved": "",
      "salt": "0x2519ab0bb8242c8220f0c9f0b836b8b648eb8d175999fa2ba153ae252128df1a",
      "assetIds": []
    },
    {
      "x": 206,
      "y": 138,
      "size": 1,
      "price": "1011000000000000000000",
      "reserved": "",
      "salt": "0x7a35acb7e15e5ec75febab4483ef1b604ba5dda111a40b7c56df38fc2141c47b",
      "assetIds": []
    },
    {
      "x": 205,
      "y": 139,
      "size": 1,
      "price": "1011000000000000000000",
      "reserved": "0x7a9fe22691c811ea339d9b73150e6911a5343dca",
      "salt": "0x2954680e24dbf4092ad0781672b2f5bcedab7feb6b508b7d25a64afba28619fa",
      "assetIds": []
    },
    {
      "x": 190,
      "y": 139,
      "size": 1,
      "price": "1011000000000000000000",
      "reserved": "0x7a9fe22691c811ea339d9b73150e6911a5343dca",
      "salt": "0x0c0e8bb6a289a63782423bb080240d38bd0b5750aa380502bee4a727c0bddbc4",
      "assetIds": []
    },
    {
      "x": 181,
      "y": 139,
      "size": 1,
      "price": "1011000000000000000000",
      "reserved": "0x7a9fe22691c811ea339d9b73150e6911a5343dca",
      "salt": "0x616d212b45d2ab32a8906dec807763ec7dd6fc26dd021f865a116826495ab6f1",
      "assetIds": []
    },
    {
      "x": 176,
      "y": 147,
      "size": 1,
      "price": "1011000000000000000000",
      "reserved": "0x7a9fe22691c811ea339d9b73150e6911a5343dca",
      "salt": "0xdc9a533f4f92dc6872d341456f9348096310a5cbdf9d3ca6ba3a715c0f22d105",
      "assetIds": []
    },
    {
      "x": 182,
      "y": 162,
      "size": 1,
      "price": "1011000000000000000000",
      "reserved": "0x7a9fe22691c811ea339d9b73150e6911a5343dca",
      "salt": "0x89d3132b577e9749ed73026e670e1eca1efd8bd845932a6d2bc2430642345644",
      "assetIds": []
    },
    {
      "x": 185,
      "y": 160,
      "size": 1,
      "price": "1011000000000000000000",
      "reserved": "0x7a9fe22691c811ea339d9b73150e6911a5343dca",
      "salt": "0xda95af41a689131ccf4091e8a1234613b4a0336c5e530907508e1a17d927ca36",
      "assetIds": []
    },
    {
      "x": 195,
      "y": 152,
      "size": 1,
      "price": "1011000000000000000000",
      "reserved": "0x7a9fe22691c811ea339d9b73150e6911a5343dca",
      "salt": "0xf70cd18ff67c453496e4a222fb2313b2d67b497a230be0f6230d9ac04e141780",
      "assetIds": []
    },
    {
      "x": 198,
      "y": 151,
      "size": 1,
      "price": "1011000000000000000000",
      "reserved": "0x7a9fe22691c811ea339d9b73150e6911a5343dca",
      "salt": "0xc66dac49947df4dcbdf9f3df3275f715fbc1dca276b54e53c31308bc9d51dbce",
      "assetIds": []
    },
    {
      "x": 179,
      "y": 161,
      "size": 1,
      "price": "1011000000000000000000",
      "reserved": "",
      "salt": "0xb79bd7a50f95d7852d71f25d09598910a77e366795be138c66b4b97754115272",
      "assetIds": []
    },
    {
      "x": 179,
      "y": 159,
      "size": 1,
      "price": "1011000000000000000000",
      "reserved": "",
      "salt": "0x316352df4c999a3e8744b5b4c4b56b3aef22b7128f5c7e442a71f21047c8e202",
      "assetIds": []
    },
    {
      "x": 178,
      "y": 159,
      "size": 1,
      "price": "1011000000000000000000",
      "reserved": "",
      "salt": "0xb5b1a6f5aa8cee564da169179d2b196d156cb154cf6084175c88f8487b3cba56",
      "assetIds": []
    },
    {
      "x": 183,
      "y": 161,
      "size": 1,
      "price": "1011000000000000000000",
      "reserved": "",
      "salt": "0x746b5f4370cc721b1ee2b25b82e1fc004d262eaafcd567afa61c0e53c4ce8c0e",
      "assetIds": []
    },
    {
      "x": 183,
      "y": 160,
      "size": 1,
      "price": "1011000000000000000000",
      "reserved": "",
      "salt": "0x61cbcb0fe2287a0c68b68e34e034cc7c41b85b69711e806f8cbce7368c03f32a",
      "assetIds": []
    },
    {
      "x": 183,
      "y": 159,
      "size": 1,
      "price": "1011000000000000000000",
      "reserved": "",
      "salt": "0xd4956c70829a7e7755d39e525537e09f520bda71ba27d52a72e63bd40293a0ef",
      "assetIds": []
    },
    {
      "x": 181,
      "y": 162,
      "size": 1,
      "price": "1011000000000000000000",
      "reserved": "",
      "salt": "0x36923a59564ee1cfaa2403b59fb0c45af7f9994468e13f64bbd7e7c65eb18e99",
      "assetIds": []
    },
    {
      "x": 204,
      "y": 139,
      "size": 1,
      "price": "1011000000000000000000",
      "reserved": "0x7a9fe22691c811ea339d9b73150e6911a5343dca",
      "salt": "0x9bcf9fa6f70b45d83078a23a4156850350402a3d2546fbf90dd90f734625a9d5",
      "assetIds": []
    },
    {
      "x": 180,
      "y": 153,
      "size": 1,
      "price": "1011000000000000000000",
      "reserved": "0x7a9fe22691c811ea339d9b73150e6911a5343dca",
      "salt": "0x76f7235730661be8506ce54629d2076f10a23957e5596ebf391bd80824f74f77",
      "assetIds": []
    },
    {
      "x": 192,
      "y": 132,
      "size": 12,
      "price": "123806000000000000000000",
      "reserved": "0x7a9fe22691c811ea339d9b73150e6911a5343dca",
      "salt": "0x857bca615fd71ea89bfbcefc572ccb31a0164a4f64ae3f70efbce8a4cabaa059",
      "assetIds": []
    },
    {
      "x": 186,
      "y": 150,
      "size": 6,
      "price": "32772000000000000000000",
      "reserved": "0x7a9fe22691c811ea339d9b73150e6911a5343dca",
      "salt": "0x698ce761403bb098f731e4a72d737afb3cbb157798fc906d9af6541555f22fe3",
      "assetIds": []
    },
    {
      "x": 186,
      "y": 156,
      "size": 6,
      "price": "32772000000000000000000",
      "reserved": "0x7a9fe22691c811ea339d9b73150e6911a5343dca",
      "salt": "0xccc4dc17fd42e1825591d19bef0332f6e98afed332371127178fd7e4366dc69f",
      "assetIds": []
    },
    {
      "x": 180,
      "y": 144,
      "size": 6,
      "price": "32772000000000000000000",
      "reserved": "0x7a9fe22691c811ea339d9b73150e6911a5343dca",
      "salt": "0x93085eb7010b0ae05455bb387da46db6d6c42e925f6dd18196ea596ac59bfaff",
      "assetIds": []
    },
    {
      "x": 186,
      "y": 132,
      "size": 6,
      "price": "32772000000000000000000",
      "reserved": "0x7a9fe22691c811ea339d9b73150e6911a5343dca",
      "salt": "0xef417042befa77d74204165002076240bb75619b9170b2b4ba65196ca884bcf5",
      "assetIds": []
    },
    {
      "x": 177,
      "y": 156,
      "size": 3,
      "price": "8648000000000000000000",
      "reserved": "0x7a9fe22691c811ea339d9b73150e6911a5343dca",
      "salt": "0xfa229a4e4a852cf31b7bd787419c063c7ed09a790e0080ca31630688ef613d68",
      "assetIds": []
    },
    {
      "x": 180,
      "y": 156,
      "size": 3,
      "price": "8648000000000000000000",
      "reserved": "0x7a9fe22691c811ea339d9b73150e6911a5343dca",
      "salt": "0x93d2089a3495618aead4b7a281d94642cbc217a0a543c4357bdc8a302309f4cd",
      "assetIds": []
    },
    {
      "x": 180,
      "y": 159,
      "size": 3,
      "price": "8648000000000000000000",
      "reserved": "0x7a9fe22691c811ea339d9b73150e6911a5343dca",
      "salt": "0x92d1abaf5d36c059d09e426c953630b6bb34a49f71bae3cfbd1af9a70447ae3c",
      "assetIds": []
    },
    {
      "x": 192,
      "y": 159,
      "size": 3,
      "price": "8648000000000000000000",
      "reserved": "0x7a9fe22691c811ea339d9b73150e6911a5343dca",
      "salt": "0xfe3585ea25d02457bea04cd32f42448b9c0eb0f956c1ee78be277f2d340b0d50",
      "assetIds": []
    },
    {
      "x": 192,
      "y": 150,
      "size": 3,
      "price": "8648000000000000000000",
      "reserved": "0x7a9fe22691c811ea339d9b73150e6911a5343dca",
      "salt": "0x501d7f11c741972f490268c7ce1863affd3fdd1fff94b0d70f57d59f4c5a266b",
      "assetIds": []
    },
    {
      "x": 195,
      "y": 153,
      "size": 3,
      "price": "8648000000000000000000",
      "reserved": "0x7a9fe22691c811ea339d9b73150e6911a5343dca",
      "salt": "0xf6ddb5171eebc84e7e66b29480b2fd7512b19cc915c8d43675a43035d66e169d",
      "assetIds": []
    },
    {
      "x": 183,
      "y": 153,
      "size": 3,
      "price": "8648000000000000000000",
      "reserved": "0x7a9fe22691c811ea339d9b73150e6911a5343dca",
      "salt": "0x389a7ff08864bafa4a050f43a61e864f765f28cd7cd70725b38ece1bd6cf6142",
      "assetIds": []
    },
    {
      "x": 183,
      "y": 141,
      "size": 3,
      "price": "8648000000000000000000",
      "reserved": "0x7a9fe22691c811ea339d9b73150e6911a5343dca",
      "salt": "0x773cdfb90f5bedef64c53c807467dc9f6109caf63c763c1b7809130ddf6e41ad",
      "assetIds": []
    },
    {
      "x": 177,
      "y": 141,
      "size": 3,
      "price": "8648000000000000000000",
      "reserved": "0x7a9fe22691c811ea339d9b73150e6911a5343dca",
      "salt": "0xdc72238d577eadb239747284e70d90c522bcfacaa2cb0eb6345f30fc5c301b34",
      "assetIds": []
    },
    {
      "x": 189,
      "y": 141,
      "size": 3,
      "price": "8648000000000000000000",
      "reserved": "0x7a9fe22691c811ea339d9b73150e6911a5343dca",
      "salt": "0xedc8cc34c112d7f461402b5c6db985bfd8916c6c743375bef4d58f00713e0a93",
      "assetIds": []
    },
    {
      "x": 198,
      "y": 144,
      "size": 3,
      "price": "8648000000000000000000",
      "reserved": "0x7a9fe22691c811ea339d9b73150e6911a5343dca",
      "salt": "0xb9f503261464c236ffbe9c35f8e82f89f523f1f41b69698f2f0a972ece737622",
      "assetIds": []
    },
    {
      "x": 204,
      "y": 141,
      "size": 3,
      "price": "8648000000000000000000",
      "reserved": "0x7a9fe22691c811ea339d9b73150e6911a5343dca",
      "salt": "0x95a8a13d962bb58a0fcdda36ac5554db5c66275ea91b0955e497fccd136882da",
      "assetIds": []
    },
    {
      "x": 207,
      "y": 138,
      "size": 3,
      "price": "8648000000000000000000",
      "reserved": "0x7a9fe22691c811ea339d9b73150e6911a5343dca",
      "salt": "0xada3250a57425fbf8bdd965b6dcb2f05ccbfa59ff2c07348c57423c746687871",
      "assetIds": []
    },
    {
      "x": 204,
      "y": 132,
      "size": 6,
      "price": "32772000000000000000000",
      "reserved": "0x7a9fe22691c811ea339d9b73150e6911a5343dca",
      "salt": "0x7e13c0f3dae6b3c6e71bfe54de127ab6a5fdb693917b9ace53046b61923bd004",
      "assetIds": []
    },
    {
      "x": 186,
      "y": 144,
      "size": 3,
      "price": "8648000000000000000000",
      "reserved": "0x7a9fe22691c811ea339d9b73150e6911a5343dca",
      "salt": "0x12e05ad503613d3f311c81257737ef13ec1276437c8215fc6aacb3db5c888d41",
      "assetIds": []
    }
  ],
  "solcInputHash": "ec605981be9adfd04d88d4245397bb77",
  "bytecode": "0x6101606040523480156200001257600080fd5b50604051620031e9380380620031e983398181016040526101a08110156200003957600080fd5b508051602082015160408301516060840151608085015160a086015160c087015160e08801516101008901516101208a01516101408b01516101608c0151610180909c015160016000559a9b999a9899979896979596949593949293919290919085856001600160a01b038216620000f8576040805162461bcd60e51b815260206004820152601f60248201527f526566657272616c56616c696461746f723a207a65726f206164647265737300604482015290519081900360640190fd5b600380546001600160a01b0319166001600160a01b0393841617905560045562000130908e1662000459602090811b62002adc17901c565b6200016d5760405162461bcd60e51b8152600401808060200182810382526025815260200180620031c46025913960400191505060405180910390fd5b6200018c8c6001600160a01b03166200045960201b62002adc1760201c565b620001c95760405162461bcd60e51b8152600401808060200182810382526025815260200180620031c46025913960400191505060405180910390fd5b6001600160a01b038b1662000214576040805162461bcd60e51b815260206004820181905260248201526000805160206200317f833981519152604482015290519081900360640190fd5b6001600160a01b038a166200025f576040805162461bcd60e51b815260206004820181905260248201526000805160206200317f833981519152604482015290519081900360640190fd5b6001600160a01b038916620002aa576040805162461bcd60e51b815260206004820181905260248201526000805160206200317f833981519152604482015290519081900360640190fd5b620002c9836001600160a01b03166200045960201b62002adc1760201c565b620003065760405162461bcd60e51b8152600401808060200182810382526025815260200180620031c46025913960400191505060405180910390fd5b6001600160a01b03821662000351576040805162461bcd60e51b815260206004820181905260248201526000805160206200317f833981519152604482015290519081900360640190fd5b62000370816001600160a01b03166200045960201b62002adc1760201c565b620003ad5760405162461bcd60e51b8152600401808060200182810382526025815260200180620031c46025913960400191505060405180910390fd5b6001600160601b031960608e811b821660a0528d901b1660c052620003dd8b60016001600160e01b036200045f16565b600680546001600160a01b039a8b166001600160a01b031991821617909155610140989098526101209690965260018054998916998816999099179098556001600160601b0319606092831b811660e05290821b811660805296901b909516610100525060078054919093169116179055506200050a92505050565b3b151590565b6001600160a01b038216620004a65760405162461bcd60e51b81526004018080602001828103825260258152602001806200319f6025913960400191505060405180910390fd5b6001600160a01b038216600081815260026020908152604091829020805460ff191685151590811790915582519384529083015280517fb21eb88b4e33b3f1281830a7178d74d8aa73220416215726b68ae23d539515cb9281900390910190a15050565b60805160601c60a05160601c60c05160601c60e05160601c6101005160601c6101205161014051612bef6200059060003980610be0528061247e525080610bbc528061159d5250806124fc525080611af25280611c4f525080611aa85280611e4e52806124d9525080611b235280611c205250806111075280611f3a5250612bef6000f3fe608060405234801561001057600080fd5b50600436106101365760003560e01c8063984d6252116100b2578063c10a420811610081578063dc5074af11610066578063dc5074af146108a0578063e56f8a9e146108c6578063f23a6e61146108e357610136565b8063c10a4208146107c1578063caed35001461089857610136565b8063984d62521461055f578063ab1cc78c14610631578063b522ecff14610639578063bc197c811461065f57610136565b806365194ce71161010957806378e6e5b9116100ee57806378e6e5b9146104e55780638a04af6a1461050b5780638f2839701461053957610136565b806365194ce7146103635780636e9960c3146104c157610136565b80631187fd3c1461013b57806325cb5bc01461031b578063495906571461033557806358bc29441461033d575b600080fd5b610319600480360361012081101561015257600080fd5b6001600160a01b038235811692602081013582169260408201359092169181019060808101606082013564010000000081111561018e57600080fd5b8201836020820111156101a057600080fd5b803590602001918460208302840111640100000000831117156101c257600080fd5b919390928235926040810190602001356401000000008111156101e457600080fd5b8201836020820111156101f657600080fd5b8035906020019184602083028401116401000000008311171561021857600080fd5b91939092909160208101903564010000000081111561023657600080fd5b82018360208201111561024857600080fd5b8035906020019184602083028401116401000000008311171561026a57600080fd5b91939092909160208101903564010000000081111561028857600080fd5b82018360208201111561029a57600080fd5b803590602001918460018302840111640100000000831117156102bc57600080fd5b9193909290916020810190356401000000008111156102da57600080fd5b8201836020820111156102ec57600080fd5b8035906020019184600183028401116401000000008311171561030e57600080fd5b509092509050610978565b005b610323610bba565b60408051918252519081900360200190f35b610323610bde565b6103196004803603602081101561035357600080fd5b50356001600160a01b0316610c02565b6104096004803603602081101561037957600080fd5b81019060208101813564010000000081111561039457600080fd5b8201836020820111156103a657600080fd5b803590602001918460018302840111640100000000831117156103c857600080fd5b91908080601f016020809104026020016040519081016040528093929190818152602001838380828437600092019190915250929550610d2e945050505050565b6040518080602001866001600160a01b03166001600160a01b03168152602001856001600160a01b03166001600160a01b03168152602001848152602001838152602001828103825287818151815260200191508051906020019080838360005b8381101561048257818101518382015260200161046a565b50505050905090810190601f1680156104af5780820380516001836020036101000a031916815260200191505b50965050505050505060405180910390f35b6104c9610e33565b604080516001600160a01b039092168252519081900360200190f35b610319600480360360208110156104fb57600080fd5b50356001600160a01b0316610e42565b6103196004803603604081101561052157600080fd5b506001600160a01b0381351690602001351515610f00565b6103196004803603602081101561054f57600080fd5b50356001600160a01b0316610f6d565b6103196004803603606081101561057557600080fd5b6001600160a01b0382351691908101906040810160208201356401000000008111156105a057600080fd5b8201836020820111156105b257600080fd5b803590602001918460208302840111640100000000831117156105d457600080fd5b9193909290916020810190356401000000008111156105f257600080fd5b82018360208201111561060457600080fd5b8035906020019184602083028401116401000000008311171561062657600080fd5b5090925090506110a6565b610323611231565b6103196004803603602081101561064f57600080fd5b50356001600160a01b0316611237565b61078c600480360360a081101561067557600080fd5b6001600160a01b0382358116926020810135909116918101906060810160408201356401000000008111156106a957600080fd5b8201836020820111156106bb57600080fd5b803590602001918460208302840111640100000000831117156106dd57600080fd5b9193909290916020810190356401000000008111156106fb57600080fd5b82018360208201111561070d57600080fd5b8035906020019184602083028401116401000000008311171561072f57600080fd5b91939092909160208101903564010000000081111561074d57600080fd5b82018360208201111561075f57600080fd5b8035906020019184600183028401116401000000008311171561078157600080fd5b509092509050611348565b604080517fffffffff000000000000000000000000000000000000000000000000000000009092168252519081900360200190f35b610884600480360360a08110156107d757600080fd5b8101906020810181356401000000008111156107f257600080fd5b82018360208201111561080457600080fd5b8035906020019184600183028401116401000000008311171561082657600080fd5b91908080601f016020809104026020016040519081016040528093929190818152602001838380828437600092019190915250929550506001600160a01b038335811694506020840135169260408101359250606001359050611375565b604080519115158252519081900360200190f35b6104c96114b1565b610884600480360360208110156108b657600080fd5b50356001600160a01b03166114c0565b610319600480360360208110156108dc57600080fd5b50356114de565b61078c600480360360a08110156108f957600080fd5b6001600160a01b03823581169260208101359091169160408201359160608101359181019060a08101608082013564010000000081111561093957600080fd5b82018360208201111561094b57600080fd5b8035906020019184600183028401116401000000008311171561096d57600080fd5b509092509050611570565b600260005414156109d0576040805162461bcd60e51b815260206004820152601f60248201527f5265656e7472616e637947756172643a207265656e7472616e742063616c6c00604482015290519081900360640190fd5b60026000556109df8e8d61159b565b610ad68d8d8d8d80806020026020016040519081016040528093929190818152602001838360200280828437600081840152601f19601f820116905080830192505050505050508c8c8c80806020026020016040519081016040528093929190818152602001838360200280828437600081840152601f19601f820116905080830192505050505050508b8b8080602002602001604051908101604052809392919081815260200183836020028082843760009201919091525050604080516020601f8d018190048102820181019092528b815292508b91508a90819084018382808284376000920191909152506116fe92505050565b610b2a8e8c8c6003818110610ae757fe5b9050602002013586868080601f016020809104026020016040519081016040528093929190818152602001838380828437600092019190915250611a8192505050565b610b688e8e8d8d80806020026020016040519081016040528093929190818152602001838360200280828437600092019190915250611ad292505050565b610ba58d898980806020026020016040519081016040528093929190818152602001838360200280828437600092019190915250611ec392505050565b50506001600055505050505050505050505050565b7f000000000000000000000000000000000000000000000000000000000000000090565b7f000000000000000000000000000000000000000000000000000000000000000090565b6001546001600160a01b03163314610c61576040805162461bcd60e51b815260206004820152601260248201527f6f6e6c792061646d696e20616c6c6f7765640000000000000000000000000000604482015290519081900360640190fd5b6001600160a01b038116610cbc576040805162461bcd60e51b815260206004820152601f60248201527f526566657272616c56616c696461746f723a207a65726f206164647265737300604482015290519081900360640190fd5b600380546001600160a01b03908116600090815260056020526040808220620d2f0042019055835473ffffffffffffffffffffffffffffffffffffffff1916928516928317909355915190917fbbb5fb2ee7e707ae0c968f63e94211ea81e66a718c34e2f810a7619e5678a21791a250565b606060008060008060606000806000808a80602001905160a0811015610d5357600080fd5b8101908080516040519392919084640100000000821115610d7357600080fd5b908301906020820185811115610d8857600080fd5b8251640100000000811182820188101715610da257600080fd5b82525081516020918201929091019080838360005b83811015610dcf578181015183820152602001610db7565b50505050905090810190601f168015610dfc5780820380516001836020036101000a031916815260200191505b5060409081526020820151908201516060830151608090930151959f50909d509b5099509197505050505050505091939590929450565b6001546001600160a01b031690565b6001546001600160a01b03163314610e8b5760405162461bcd60e51b8152600401808060200182810382526023815260200180612b056023913960400191505060405180910390fd5b6001600160a01b038116610ee6576040805162461bcd60e51b815260206004820152601f60248201527f526566657272616c56616c696461746f723a207a65726f206164647265737300604482015290519081900360640190fd5b6001600160a01b0316600090815260056020526040812055565b6001546001600160a01b03163314610f5f576040805162461bcd60e51b815260206004820152601260248201527f6f6e6c792061646d696e20616c6c6f7765640000000000000000000000000000604482015290519081900360640190fd5b610f698282612087565b5050565b6001546001600160a01b03163314610fcc576040805162461bcd60e51b815260206004820152601b60248201527f6f6e6c792061646d696e2063616e206368616e67652061646d696e0000000000604482015290519081900360640190fd5b6001546001600160a01b038281169116141561102f576040805162461bcd60e51b815260206004820152600d60248201527f616c72656164792061646d696e00000000000000000000000000000000000000604482015290519081900360640190fd5b600154604080516001600160a01b039283168152918316602083015280517f7e644d79422f17c01e4894b5f4f588d331ebfa28653d42ae832dc59e38c9798f9281900390910190a16001805473ffffffffffffffffffffffffffffffffffffffff19166001600160a01b0392909216919091179055565b6001546001600160a01b03163314611105576040805162461bcd60e51b815260206004820152600e60248201527f4e4f545f415554484f52495a4544000000000000000000000000000000000000604482015290519081900360640190fd5b7f00000000000000000000000000000000000000000000000000000000000000006001600160a01b0316632eb2c2d63087878787876040518763ffffffff1660e01b815260040180876001600160a01b03166001600160a01b03168152602001866001600160a01b03166001600160a01b031681526020018060200180602001806020018481038452888882818152602001925060200280828437600083820152601f01601f19169091018581038452868152602090810191508790870280828437600081840152601f19601f8201169050808301925050508481038252600081526020016020019950505050505050505050600060405180830381600087803b15801561121257600080fd5b505af1158015611226573d6000803e3d6000fd5b505050505050505050565b60045490565b6001600160a01b038116611292576040805162461bcd60e51b815260206004820152600c60248201527f5a45524f5f414444524553530000000000000000000000000000000000000000604482015290519081900360640190fd5b6001546001600160a01b031633146112f1576040805162461bcd60e51b815260206004820152600e60248201527f4e4f545f415554484f52495a4544000000000000000000000000000000000000604482015290519081900360640190fd5b6006805473ffffffffffffffffffffffffffffffffffffffff19166001600160a01b0383169081179091556040517f4d66958b757eb92a1b43d02be4c38c9500b73f532420ee3706cb43d420ba023690600090a250565b7fbc197c810000000000000000000000000000000000000000000000000000000098975050505050505050565b60006004548211806113985750836001600160a01b0316856001600160a01b0316145b806113a257508242115b156113af575060006114a8565b60408051606087811b7fffffffffffffffffffffffffffffffffffffffff0000000000000000000000009081166020808501919091529188901b166034830152604882018690526068808301869052835180840390910181526088830184528051908201207f19457468657265756d205369676e6564204d6573736167653a0a33320000000060a884015260c48084018290528451808503909101815260e49093019093528151910120600090611466908961214e565b6001600160a01b0381166000908152600560205260409020549091504211611493576001925050506114a8565b6003546001600160a01b039081169116149150505b95945050505050565b6003546001600160a01b031690565b6001600160a01b031660009081526002602052604090205460ff1690565b6001546001600160a01b0316331461153d576040805162461bcd60e51b815260206004820152601260248201527f6f6e6c792061646d696e20616c6c6f7765640000000000000000000000000000604482015290519081900360640190fd5b600481905560405181907f774069781371d65424b3b0b101c1d40014532cac040f979595b99a3fcf8ce08c90600090a250565b7ff23a6e61000000000000000000000000000000000000000000000000000000009695505050505050565b7f0000000000000000000000000000000000000000000000000000000000000000421061160f576040805162461bcd60e51b815260206004820152600c60248201527f53414c455f49535f4f5645520000000000000000000000000000000000000000604482015290519081900360640190fd5b6001600160a01b03821633148061163557503360009081526002602052604090205460ff165b611686576040805162461bcd60e51b815260206004820152600e60248201527f4e4f545f415554484f52495a4544000000000000000000000000000000000000604482015290519081900360640190fd5b6001600160a01b03811615806116ad5750816001600160a01b0316816001600160a01b0316145b610f69576040805162461bcd60e51b815260206004820152600d60248201527f52455345525645445f4c414e4400000000000000000000000000000000000000604482015290519081900360640190fd5b600087878760008151811061170f57fe5b60200260200101518860018151811061172457fe5b60200260200101518960028151811061173957fe5b60200260200101518a60038151811061174e57fe5b60200260200101518a8a60405160200180828051906020019060200280838360005b83811015611788578181015183820152602001611770565b50505050905001915050604051602081830303815290604052805190602001208a60405160200180828051906020019060200280838360005b838110156117d95781810151838201526020016117c1565b5050505090500191505060405160208183030381529060405280519060200120604051602001808a6001600160a01b03166001600160a01b031660601b8152601401896001600160a01b03166001600160a01b031660601b81526014018881526020018781526020018681526020018581526020018481526020018381526020018281526020019950505050505050505050604051602081830303815290604052805190602001209050600760009054906101000a90046001600160a01b03166001600160a01b031663012847ed83836040518363ffffffff1660e01b81526004018080602001838152602001828103825284818151815260200191508051906020019080838360005b838110156118fb5781810151838201526020016118e3565b50505050905090810190601f1680156119285780820380516001836020036101000a031916815260200191505b50935050505060206040518083038186803b15801561194657600080fd5b505afa15801561195a573d6000803e3d6000fd5b505050506040513d602081101561197057600080fd5b50516119c3576040805162461bcd60e51b815260206004820152600c60248201527f494e56414c49445f415554480000000000000000000000000000000000000000604482015290519081900360640190fd5b6000611a24876000815181106119d557fe5b6020026020010151886001815181106119ea57fe5b6020026020010151896002815181106119ff57fe5b60200260200101518a600381518110611a1457fe5b60200260200101518c8b8b612337565b9050611a3084826123dc565b611226576040805162461bcd60e51b815260206004820152600c60248201527f494e56414c49445f4c414e440000000000000000000000000000000000000000604482015290519081900360640190fd5b6000611a8d84846124a5565b600654909150611acc908590839085906001600160a01b03167f000000000000000000000000000000000000000000000000000000000000000061253f565b50505050565b80600281518110611adf57fe5b602002602001015160011480611b1c57507f00000000000000000000000000000000000000000000000000000000000000006001600160a01b0316155b15611c1e577f00000000000000000000000000000000000000000000000000000000000000006001600160a01b0316636e1e3bbf8383600281518110611b5e57fe5b602002602001015184600081518110611b7357fe5b602002602001015185600181518110611b8857fe5b60200260200101516040518563ffffffff1660e01b815260040180856001600160a01b03166001600160a01b031681526020018481526020018381526020018281526020018060200182810382526000815260200160200195505050505050600060405180830381600087803b158015611c0157600080fd5b505af1158015611c15573d6000803e3d6000fd5b50505050611dbe565b7f00000000000000000000000000000000000000000000000000000000000000006001600160a01b0316636e1e3bbf7f000000000000000000000000000000000000000000000000000000000000000083600281518110611c7b57fe5b602002602001015184600081518110611c9057fe5b602002602001015185600181518110611ca557fe5b60200260200101518760405160200180826001600160a01b03166001600160a01b031681526020019150506040516020818303038152906040526040518663ffffffff1660e01b815260040180866001600160a01b03166001600160a01b0316815260200185815260200184815260200183815260200180602001828103825283818151815260200191508051906020019080838360005b83811015611d55578181015183820152602001611d3d565b50505050905090810190601f168015611d825780820380516001836020036101000a031916815260200191505b509650505050505050600060405180830381600087803b158015611da557600080fd5b505af1158015611db9573d6000803e3d6000fd5b505050505b61019881600181518110611dce57fe5b60200260200101510281600081518110611de457fe5b602002602001015101826001600160a01b0316846001600160a01b03167fe4dfa6ac11314892f3029b34a25b1a887da3b1cab2bbf8506d87128ba6e3ac0284600281518110611e2f57fe5b602002602001015185600381518110611e4457fe5b60200260200101517f000000000000000000000000000000000000000000000000000000000000000087600381518110611e7a57fe5b602002602001015160405180858152602001848152602001836001600160a01b03166001600160a01b0316815260200182815260200194505050505060405180910390a4505050565b6060815167ffffffffffffffff81118015611edd57600080fd5b50604051908082528060200260200182016040528015611f07578160200160208202803683370190505b50905060005b8251811015611f37576001828281518110611f2457fe5b6020908102919091010152600101611f0d565b507f00000000000000000000000000000000000000000000000000000000000000006001600160a01b0316632eb2c2d6308585856040518563ffffffff1660e01b815260040180856001600160a01b03166001600160a01b03168152602001846001600160a01b03166001600160a01b03168152602001806020018060200180602001848103845286818151815260200191508051906020019060200280838360005b83811015611ff2578181015183820152602001611fda565b50505050905001848103835285818151815260200191508051906020019060200280838360005b83811015612031578181015183820152602001612019565b50505050905001848103825260008152602001602001975050505050505050600060405180830381600087803b15801561206a57600080fd5b505af115801561207e573d6000803e3d6000fd5b50505050505050565b6001600160a01b0382166120cc5760405162461bcd60e51b8152600401808060200182810382526025815260200180612b6b6025913960400191505060405180910390fd5b6001600160a01b03821660008181526002602090815260409182902080547fffffffffffffffffffffffffffffffffffffffffffffffffffffffffffffff001685151590811790915582519384529083015280517fb21eb88b4e33b3f1281830a7178d74d8aa73220416215726b68ae23d539515cb9281900390910190a15050565b600081516041146121a6576040805162461bcd60e51b815260206004820152601f60248201527f45434453413a20696e76616c6964207369676e6174757265206c656e67746800604482015290519081900360640190fd5b60208201516040830151606084015160001a7f7fffffffffffffffffffffffffffffff5d576e7357a4501ddfe92f46681b20a08211156122175760405162461bcd60e51b8152600401808060200182810382526022815260200180612ae36022913960400191505060405180910390fd5b8060ff16601b1415801561222f57508060ff16601c14155b1561226b5760405162461bcd60e51b8152600401808060200182810382526022815260200180612b286022913960400191505060405180910390fd5b60408051600080825260208083018085528a905260ff85168385015260608301879052608083018690529251909260019260a080820193601f1981019281900390910190855afa1580156122c3573d6000803e3d6000fd5b5050604051601f1901519150506001600160a01b03811661232b576040805162461bcd60e51b815260206004820152601860248201527f45434453413a20696e76616c6964207369676e61747572650000000000000000604482015290519081900360640190fd5b93505050505b92915050565b60008787878787878760405160200180888152602001878152602001868152602001858152602001846001600160a01b03166001600160a01b031660601b8152601401838152602001828051906020019060200280838360005b838110156123a9578181015183820152602001612391565b50505050905001975050505050505050604051602081830303815290604052805190602001209050979650505050505050565b600081815b845181101561247b5760008582815181106123f857fe5b60200260200101519050808310156124405782816040516020018083815260200182815260200192505050604051602081830303815290604052805190602001209250612472565b808360405160200180838152602001828152602001925050506040516020818303038152906040528051906020012092505b506001016123e1565b507f0000000000000000000000000000000000000000000000000000000000000000149392505050565b6000806124ca60646124be85600563ffffffff61264716565b9063ffffffff6126a716565b90506125276001600160a01b037f000000000000000000000000000000000000000000000000000000000000000016857f00000000000000000000000000000000000000000000000000000000000000008463ffffffff6126e916565b612537838263ffffffff61277116565b949350505050565b8251819085901561262c57606060008060008061255b8a610d2e565b93985091965094509250905060006125768686868686611375565b15612604576125906125888d84612647565b6127106126a7565b9050886001600160a01b0316846001600160a01b0316866001600160a01b03167fac7a699eb95c3c6d390ec4626de17ef9a67b35891efdb197beba7c7fdd45fac48f858760405180848152602001838152602001828152602001935050505060405180910390a46126018782612771565b96505b8015612625576126256001600160a01b0389168e878463ffffffff6126e916565b5050505050505b61207e6001600160a01b03831688868463ffffffff6126e916565b60008261265657506000612331565b8282028284828161266357fe5b04146126a05760405162461bcd60e51b8152600401808060200182810382526021815260200180612b4a6021913960400191505060405180910390fd5b9392505050565b60006126a083836040518060400160405280601a81526020017f536166654d6174683a206469766973696f6e206279207a65726f0000000000008152506127b3565b604080516001600160a01b0380861660248301528416604482015260648082018490528251808303909101815260849091019091526020810180517bffffffffffffffffffffffffffffffffffffffffffffffffffffffff167f23b872dd00000000000000000000000000000000000000000000000000000000179052611acc908590612855565b60006126a083836040518060400160405280601e81526020017f536166654d6174683a207375627472616374696f6e206f766572666c6f77000081525061290b565b6000818361283f5760405162461bcd60e51b81526004018080602001828103825283818151815260200191508051906020019080838360005b838110156128045781810151838201526020016127ec565b50505050905090810190601f1680156128315780820380516001836020036101000a031916815260200191505b509250505060405180910390fd5b50600083858161284b57fe5b0495945050505050565b60606128aa826040518060400160405280602081526020017f5361666545524332303a206c6f772d6c6576656c2063616c6c206661696c6564815250856001600160a01b03166129659092919063ffffffff16565b805190915015612906578080602001905160208110156128c957600080fd5b50516129065760405162461bcd60e51b815260040180806020018281038252602a815260200180612b90602a913960400191505060405180910390fd5b505050565b6000818484111561295d5760405162461bcd60e51b81526020600482018181528351602484015283519092839260449091019190850190808383600083156128045781810151838201526020016127ec565b505050900390565b60606125378484600085606061297a85612adc565b6129cb576040805162461bcd60e51b815260206004820152601d60248201527f416464726573733a2063616c6c20746f206e6f6e2d636f6e7472616374000000604482015290519081900360640190fd5b60006060866001600160a01b031685876040518082805190602001908083835b60208310612a0a5780518252601f1990920191602091820191016129eb565b6001836020036101000a03801982511681845116808217855250505050505090500191505060006040518083038185875af1925050503d8060008114612a6c576040519150601f19603f3d011682016040523d82523d6000602084013e612a71565b606091505b50915091508115612a855791506125379050565b805115612a955780518082602001fd5b60405162461bcd60e51b81526020600482018181528651602484015286518793919283926044019190850190808383600083156128045781810151838201526020016127ec565b3b15159056fe45434453413a20696e76616c6964207369676e6174757265202773272076616c7565526566657272616c56616c696461746f723a2053656e646572206e6f742061646d696e45434453413a20696e76616c6964207369676e6174757265202776272076616c7565536166654d6174683a206d756c7469706c69636174696f6e206f766572666c6f774d6574615472616e73616374696f6e52656365697665723a207a65726f20616464726573735361666545524332303a204552433230206f7065726174696f6e20646964206e6f742073756363656564a264697066735822122077f2d13cbcb85fa08010a53c1e4ef27117b031e8c1c9273d55cef362af299f3164736f6c6343000605003345737461746553616c6557697468417574683a207a65726f20616464726573734d6574615472616e73616374696f6e52656365697665723a207a65726f206164647265737345737461746553616c6557697468417574683a206973206e6f74206120636f6e7472616374",
  "devdoc": {
    "methods": {
      "buyLandWithSand(address,address,address,uint256[],bytes32,uint256[],bytes32[],bytes,bytes)": {
        "params": {
          "assetIds": "asset ids (lands) that will be bought",
          "buyer": "address that perform the payment",
          "info": "[X_INDEX=0] x coordinate of the Land [Y_INDEX=1] y coordinate of the Land [SIZE_INDEX=2] size of the pack of Land to purchase [PRICE_INDEX=3] price in SAND to purchase that Land",
          "proof": "merkleProof for that particular Land",
          "referral": "referral id",
          "reserved": "the reserved address (if any)",
          "salt": "The salt submitted for verification.",
          "signature": "A signed message specifying tx details",
          "to": "address that will own the purchased Land"
        }
      },
      "changeAdmin(address)": {
        "details": "change the administrator to be `newAdmin`.",
        "params": {
          "newAdmin": "address of the new administrator."
        }
      },
      "disablePreviousSigningWallet(address)": {
        "details": "Disable compromised signing wallet",
        "params": {
          "disableWallet": "The wallet address to be disabled"
        }
      },
      "getAdmin()": {
        "details": "gives the current administrator of this contract.",
        "returns": {
          "_0": "the current administrator of this contract."
        }
      },
      "getSigningWallet()": {
        "details": "signing wallet authorized for referral",
        "returns": {
          "_0": "the address of the signing wallet"
        }
      },
      "isMetaTransactionProcessor(address)": {
        "details": "check whether address `who` is given meta-transaction execution rights.",
        "params": {
          "who": "The address to query."
        },
        "returns": {
          "_0": "whether the address has meta-transaction execution rights."
        }
      },
      "isReferralValid(bytes,address,address,uint256,uint256)": {
        "params": {
          "commissionRate": "The commissionRate of the referral",
          "expiryTime": "The expiry time of the referral",
          "referee": "The address of the referee",
          "referrer": "The address of the referrer",
          "signature": "The signature to check (signed referral)"
        },
        "returns": {
          "_0": "True if the referral is valid"
        }
      },
      "setMetaTransactionProcessor(address,bool)": {
        "details": "Enable or disable the ability of `metaTransactionProcessor` to perform meta-tx (metaTransactionProcessor rights).",
        "params": {
          "enabled": "set whether the metaTransactionProcessor is enabled or disabled.",
          "metaTransactionProcessor": "address that will be given/removed metaTransactionProcessor rights."
        }
      },
      "setReceivingWallet(address)": {
        "params": {
          "newWallet": "address of the new receiving wallet"
        }
      },
      "updateMaxCommissionRate(uint256)": {
        "details": "Update the maximum commission rate",
        "params": {
          "newMaxCommissionRate": "The new maximum commission rate"
        }
      },
      "updateSigningWallet(address)": {
        "details": "Update the signing wallet The previous wallet is still valid for a grace period (_previousSigningDelay). If you want to disable the previous wallet, use the disablePreviousSigningWallet function.",
        "params": {
          "newSigningWallet": "The new address of the signing wallet"
        }
      },
      "withdrawAssets(address,uint256[],uint256[])": {
        "params": {
          "assetIds": "the assetIds to be transferred",
          "to": "intended recipient of the asset tokens",
          "values": "the quantities of the assetIds to be transferred"
        }
      }
    },
    "title": "Estate Sale contract with referral"
  },
  "userdoc": {
    "methods": {
      "buyLandWithSand(address,address,address,uint256[],bytes32,uint256[],bytes32[],bytes,bytes)": {
        "notice": "buy Land with SAND using the merkle proof associated with it"
      },
      "getExpiryTime()": {
        "notice": "Gets the expiry time for the current sale"
      },
      "getMaxCommissionRate()": {
        "notice": "the max commission rate"
      },
      "getMerkleRoot()": {
        "notice": "Gets the Merkle root associated with the current sale"
      },
      "isReferralValid(bytes,address,address,uint256,uint256)": {
        "notice": "Check if a referral is valid"
      },
      "setReceivingWallet(address)": {
        "notice": "set the wallet receiving the proceeds"
      },
      "withdrawAssets(address,uint256[],uint256[])": {
        "notice": "enable Admin to withdraw remaining assets from EstateSaleWithFee contract"
      }
    },
    "notice": "This contract manages the sale of our lands as Estates"
  },
  "storageLayout": {
    "storage": [
      {
        "astId": 1129,
        "contract": "src/solc_0.6/EstateSale/EstateSaleWithAuth.sol:EstateSaleWithAuth",
        "label": "_status",
        "offset": 0,
        "slot": "0",
        "type": "t_uint256"
      },
      {
        "astId": 14099,
        "contract": "src/solc_0.6/EstateSale/EstateSaleWithAuth.sol:EstateSaleWithAuth",
        "label": "_admin",
        "offset": 0,
        "slot": "1",
        "type": "t_address"
      },
      {
        "astId": 14168,
        "contract": "src/solc_0.6/EstateSale/EstateSaleWithAuth.sol:EstateSaleWithAuth",
        "label": "_metaTransactionContracts",
        "offset": 0,
        "slot": "2",
        "type": "t_mapping(t_address,t_bool)"
      },
      {
        "astId": 12200,
        "contract": "src/solc_0.6/EstateSale/EstateSaleWithAuth.sol:EstateSaleWithAuth",
        "label": "_signingWallet",
        "offset": 0,
        "slot": "3",
        "type": "t_address"
      },
      {
        "astId": 12202,
        "contract": "src/solc_0.6/EstateSale/EstateSaleWithAuth.sol:EstateSaleWithAuth",
        "label": "_maxCommissionRate",
        "offset": 0,
        "slot": "4",
        "type": "t_uint256"
      },
      {
        "astId": 12206,
        "contract": "src/solc_0.6/EstateSale/EstateSaleWithAuth.sol:EstateSaleWithAuth",
        "label": "_previousSigningWallets",
        "offset": 0,
        "slot": "5",
        "type": "t_mapping(t_address,t_uint256)"
      },
      {
        "astId": 7750,
        "contract": "src/solc_0.6/EstateSale/EstateSaleWithAuth.sol:EstateSaleWithAuth",
        "label": "_wallet",
        "offset": 0,
        "slot": "6",
        "type": "t_address_payable"
      },
      {
        "astId": 7752,
        "contract": "src/solc_0.6/EstateSale/EstateSaleWithAuth.sol:EstateSaleWithAuth",
        "label": "_authValidator",
        "offset": 0,
        "slot": "7",
        "type": "t_contract(AuthValidator)7063"
      }
    ],
    "types": {
      "t_address": {
        "encoding": "inplace",
        "label": "address",
        "numberOfBytes": "20"
      },
      "t_address_payable": {
        "encoding": "inplace",
        "label": "address payable",
        "numberOfBytes": "20"
      },
      "t_bool": {
        "encoding": "inplace",
        "label": "bool",
        "numberOfBytes": "1"
      },
      "t_contract(AuthValidator)7063": {
        "encoding": "inplace",
        "label": "contract AuthValidator",
        "numberOfBytes": "20"
      },
      "t_mapping(t_address,t_bool)": {
        "encoding": "mapping",
        "key": "t_address",
        "label": "mapping(address => bool)",
        "numberOfBytes": "32",
        "value": "t_bool"
      },
      "t_mapping(t_address,t_uint256)": {
        "encoding": "mapping",
        "key": "t_address",
        "label": "mapping(address => uint256)",
        "numberOfBytes": "32",
        "value": "t_uint256"
      },
      "t_uint256": {
        "encoding": "inplace",
        "label": "uint256",
        "numberOfBytes": "32"
      }
    }
  }
}