{
  "address": "0x4bBCa7e876Ee352ca3Af69F0eFb7DD8Cf1940B6d",
  "abi": [
    {
      "anonymous": false,
      "inputs": [
        {
          "indexed": true,
          "internalType": "address",
          "name": "owner",
          "type": "address"
        },
        {
          "indexed": true,
          "internalType": "address",
          "name": "approved",
          "type": "address"
        },
        {
          "indexed": true,
          "internalType": "uint256",
          "name": "tokenId",
          "type": "uint256"
        }
      ],
      "name": "Approval",
      "type": "event"
    },
    {
      "anonymous": false,
      "inputs": [
        {
          "indexed": true,
          "internalType": "address",
          "name": "owner",
          "type": "address"
        },
        {
          "indexed": true,
          "internalType": "address",
          "name": "operator",
          "type": "address"
        },
        {
          "indexed": false,
          "internalType": "bool",
          "name": "approved",
          "type": "bool"
        }
      ],
      "name": "ApprovalForAll",
      "type": "event"
    },
    {
      "anonymous": false,
      "inputs": [
        {
          "indexed": true,
          "internalType": "bytes32",
          "name": "role",
          "type": "bytes32"
        },
        {
          "indexed": true,
          "internalType": "bytes32",
          "name": "previousAdminRole",
          "type": "bytes32"
        },
        {
          "indexed": true,
          "internalType": "bytes32",
          "name": "newAdminRole",
          "type": "bytes32"
        }
      ],
      "name": "RoleAdminChanged",
      "type": "event"
    },
    {
      "anonymous": false,
      "inputs": [
        {
          "indexed": true,
          "internalType": "bytes32",
          "name": "role",
          "type": "bytes32"
        },
        {
          "indexed": true,
          "internalType": "address",
          "name": "account",
          "type": "address"
        },
        {
          "indexed": true,
          "internalType": "address",
          "name": "sender",
          "type": "address"
        }
      ],
      "name": "RoleGranted",
      "type": "event"
    },
    {
      "anonymous": false,
      "inputs": [
        {
          "indexed": true,
          "internalType": "bytes32",
          "name": "role",
          "type": "bytes32"
        },
        {
          "indexed": true,
          "internalType": "address",
          "name": "account",
          "type": "address"
        },
        {
          "indexed": true,
          "internalType": "address",
          "name": "sender",
          "type": "address"
        }
      ],
      "name": "RoleRevoked",
      "type": "event"
    },
    {
      "anonymous": false,
      "inputs": [
        {
          "indexed": true,
          "internalType": "address",
          "name": "from",
          "type": "address"
        },
        {
          "indexed": true,
          "internalType": "address",
          "name": "to",
          "type": "address"
        },
        {
          "indexed": true,
          "internalType": "uint256",
          "name": "tokenId",
          "type": "uint256"
        }
      ],
      "name": "Transfer",
      "type": "event"
    },
    {
      "inputs": [],
      "name": "BURNER_ROLE",
      "outputs": [
        {
          "internalType": "bytes32",
          "name": "",
          "type": "bytes32"
        }
      ],
      "stateMutability": "view",
      "type": "function"
    },
    {
      "inputs": [],
      "name": "DEFAULT_ADMIN_ROLE",
      "outputs": [
        {
          "internalType": "bytes32",
          "name": "",
          "type": "bytes32"
        }
      ],
      "stateMutability": "view",
      "type": "function"
    },
    {
      "inputs": [],
      "name": "METADATA_ROLE",
      "outputs": [
        {
          "internalType": "bytes32",
          "name": "",
          "type": "bytes32"
        }
      ],
      "stateMutability": "view",
      "type": "function"
    },
    {
      "inputs": [],
      "name": "MINTER_ROLE",
      "outputs": [
        {
          "internalType": "bytes32",
          "name": "",
          "type": "bytes32"
        }
      ],
      "stateMutability": "view",
      "type": "function"
    },
    {
      "inputs": [
        {
          "internalType": "address",
          "name": "to",
          "type": "address"
        },
        {
          "internalType": "uint256",
          "name": "tokenId",
          "type": "uint256"
        }
      ],
      "name": "approve",
      "outputs": [],
      "stateMutability": "nonpayable",
      "type": "function"
    },
    {
      "inputs": [
        {
          "internalType": "address",
          "name": "from",
          "type": "address"
        },
        {
          "internalType": "address",
          "name": "operator",
          "type": "address"
        },
        {
          "internalType": "uint256",
          "name": "id",
          "type": "uint256"
        }
      ],
      "name": "approveFor",
      "outputs": [],
      "stateMutability": "nonpayable",
      "type": "function"
    },
    {
      "inputs": [
        {
          "internalType": "address",
          "name": "owner",
          "type": "address"
        }
      ],
      "name": "balanceOf",
      "outputs": [
        {
          "internalType": "uint256",
          "name": "",
          "type": "uint256"
        }
      ],
      "stateMutability": "view",
      "type": "function"
    },
    {
      "inputs": [],
      "name": "baseTokenURI",
      "outputs": [
        {
          "internalType": "string",
          "name": "",
          "type": "string"
        }
      ],
      "stateMutability": "view",
      "type": "function"
    },
    {
      "inputs": [
        {
          "internalType": "address",
          "name": "from",
          "type": "address"
        },
        {
          "internalType": "address",
          "name": "to",
          "type": "address"
        },
        {
          "internalType": "uint256[]",
          "name": "ids",
          "type": "uint256[]"
        }
      ],
      "name": "batchTransferFrom",
      "outputs": [],
      "stateMutability": "nonpayable",
      "type": "function"
    },
    {
      "inputs": [
        {
          "internalType": "uint256",
          "name": "id",
          "type": "uint256"
        }
      ],
      "name": "burn",
      "outputs": [],
      "stateMutability": "nonpayable",
      "type": "function"
    },
    {
      "inputs": [
        {
          "internalType": "address",
          "name": "from",
          "type": "address"
        },
        {
          "internalType": "uint256",
          "name": "id",
          "type": "uint256"
        }
      ],
      "name": "burnFrom",
      "outputs": [],
      "stateMutability": "nonpayable",
      "type": "function"
    },
    {
      "inputs": [
        {
          "internalType": "uint256",
          "name": "tokenId",
          "type": "uint256"
        }
      ],
      "name": "exists",
      "outputs": [
        {
          "internalType": "bool",
          "name": "",
          "type": "bool"
        }
      ],
      "stateMutability": "view",
      "type": "function"
    },
    {
      "inputs": [
        {
          "internalType": "uint256",
          "name": "tokenId",
          "type": "uint256"
        }
      ],
      "name": "getApproved",
      "outputs": [
        {
          "internalType": "address",
          "name": "",
          "type": "address"
        }
      ],
      "stateMutability": "view",
      "type": "function"
    },
    {
      "inputs": [
        {
          "internalType": "bytes32",
          "name": "role",
          "type": "bytes32"
        }
      ],
      "name": "getRoleAdmin",
      "outputs": [
        {
          "internalType": "bytes32",
          "name": "",
          "type": "bytes32"
        }
      ],
      "stateMutability": "view",
      "type": "function"
    },
    {
      "inputs": [],
      "name": "getTrustedForwarder",
      "outputs": [
        {
          "internalType": "address",
          "name": "trustedForwarder",
          "type": "address"
        }
      ],
      "stateMutability": "view",
      "type": "function"
    },
    {
      "inputs": [
        {
          "internalType": "bytes32",
          "name": "role",
          "type": "bytes32"
        },
        {
          "internalType": "address",
          "name": "account",
          "type": "address"
        }
      ],
      "name": "grantRole",
      "outputs": [],
      "stateMutability": "nonpayable",
      "type": "function"
    },
    {
      "inputs": [
        {
          "internalType": "bytes32",
          "name": "role",
          "type": "bytes32"
        },
        {
          "internalType": "address",
          "name": "account",
          "type": "address"
        }
      ],
      "name": "hasRole",
      "outputs": [
        {
          "internalType": "bool",
          "name": "",
          "type": "bool"
        }
      ],
      "stateMutability": "view",
      "type": "function"
    },
    {
      "inputs": [
        {
          "internalType": "address",
          "name": "trustedForwarder",
          "type": "address"
        },
        {
          "internalType": "address",
          "name": "admin",
          "type": "address"
        }
      ],
      "name": "initialize",
      "outputs": [],
      "stateMutability": "nonpayable",
      "type": "function"
    },
    {
      "inputs": [
        {
          "internalType": "address",
          "name": "owner",
          "type": "address"
        },
        {
          "internalType": "address",
          "name": "operator",
          "type": "address"
        }
      ],
      "name": "isApprovedForAll",
      "outputs": [
        {
          "internalType": "bool",
          "name": "",
          "type": "bool"
        }
      ],
      "stateMutability": "view",
      "type": "function"
    },
    {
      "inputs": [
        {
          "internalType": "address",
          "name": "forwarder",
          "type": "address"
        }
      ],
      "name": "isTrustedForwarder",
      "outputs": [
        {
          "internalType": "bool",
          "name": "",
          "type": "bool"
        }
      ],
      "stateMutability": "view",
      "type": "function"
    },
    {
      "inputs": [
        {
          "internalType": "address",
          "name": "to",
          "type": "address"
        },
        {
          "internalType": "uint256",
          "name": "id",
          "type": "uint256"
        }
      ],
      "name": "mint",
      "outputs": [],
      "stateMutability": "nonpayable",
      "type": "function"
    },
    {
      "inputs": [
        {
          "internalType": "address",
          "name": "to",
          "type": "address"
        },
        {
          "internalType": "uint256",
          "name": "id",
          "type": "uint256"
        },
        {
          "internalType": "bytes",
          "name": "data",
          "type": "bytes"
        }
      ],
      "name": "mint",
      "outputs": [],
      "stateMutability": "nonpayable",
      "type": "function"
    },
    {
      "inputs": [],
      "name": "name",
      "outputs": [
        {
          "internalType": "string",
          "name": "",
          "type": "string"
        }
      ],
      "stateMutability": "view",
      "type": "function"
    },
    {
      "inputs": [
        {
          "internalType": "uint256",
          "name": "tokenId",
          "type": "uint256"
        }
      ],
      "name": "ownerOf",
      "outputs": [
        {
          "internalType": "address",
          "name": "",
          "type": "address"
        }
      ],
      "stateMutability": "view",
      "type": "function"
    },
    {
      "inputs": [
        {
          "internalType": "bytes32",
          "name": "role",
          "type": "bytes32"
        },
        {
          "internalType": "address",
          "name": "account",
          "type": "address"
        }
      ],
      "name": "renounceRole",
      "outputs": [],
      "stateMutability": "nonpayable",
      "type": "function"
    },
    {
      "inputs": [
        {
          "internalType": "bytes32",
          "name": "role",
          "type": "bytes32"
        },
        {
          "internalType": "address",
          "name": "account",
          "type": "address"
        }
      ],
      "name": "revokeRole",
      "outputs": [],
      "stateMutability": "nonpayable",
      "type": "function"
    },
    {
      "inputs": [
        {
          "internalType": "address",
          "name": "from",
          "type": "address"
        },
        {
          "internalType": "address",
          "name": "to",
          "type": "address"
        },
        {
          "internalType": "uint256[]",
          "name": "ids",
          "type": "uint256[]"
        },
        {
          "internalType": "bytes",
          "name": "data",
          "type": "bytes"
        }
      ],
      "name": "safeBatchTransferFrom",
      "outputs": [],
      "stateMutability": "nonpayable",
      "type": "function"
    },
    {
      "inputs": [
        {
          "internalType": "address",
          "name": "from",
          "type": "address"
        },
        {
          "internalType": "address",
          "name": "to",
          "type": "address"
        },
        {
          "internalType": "uint256",
          "name": "tokenId",
          "type": "uint256"
        }
      ],
      "name": "safeTransferFrom",
      "outputs": [],
      "stateMutability": "nonpayable",
      "type": "function"
    },
    {
      "inputs": [
        {
          "internalType": "address",
          "name": "from",
          "type": "address"
        },
        {
          "internalType": "address",
          "name": "to",
          "type": "address"
        },
        {
          "internalType": "uint256",
          "name": "tokenId",
          "type": "uint256"
        },
        {
          "internalType": "bytes",
          "name": "_data",
          "type": "bytes"
        }
      ],
      "name": "safeTransferFrom",
      "outputs": [],
      "stateMutability": "nonpayable",
      "type": "function"
    },
    {
      "inputs": [
        {
          "internalType": "address",
          "name": "operator",
          "type": "address"
        },
        {
          "internalType": "bool",
          "name": "approved",
          "type": "bool"
        }
      ],
      "name": "setApprovalForAll",
      "outputs": [],
      "stateMutability": "nonpayable",
      "type": "function"
    },
    {
      "inputs": [
        {
          "internalType": "address",
          "name": "from",
          "type": "address"
        },
        {
          "internalType": "address",
          "name": "operator",
          "type": "address"
        },
        {
          "internalType": "bool",
          "name": "approved",
          "type": "bool"
        }
      ],
      "name": "setApprovalForAllFor",
      "outputs": [],
      "stateMutability": "nonpayable",
      "type": "function"
    },
    {
      "inputs": [
        {
          "internalType": "uint256",
          "name": "id",
          "type": "uint256"
        },
        {
          "internalType": "string",
          "name": "uri",
          "type": "string"
        }
      ],
      "name": "setTokenURI",
      "outputs": [],
      "stateMutability": "nonpayable",
      "type": "function"
    },
    {
      "inputs": [
        {
          "internalType": "address",
          "name": "trustedForwarder",
          "type": "address"
        }
      ],
      "name": "setTrustedForwarder",
      "outputs": [],
      "stateMutability": "nonpayable",
      "type": "function"
    },
    {
      "inputs": [
        {
          "internalType": "bytes4",
          "name": "id",
          "type": "bytes4"
        }
      ],
      "name": "supportsInterface",
      "outputs": [
        {
          "internalType": "bool",
          "name": "",
          "type": "bool"
        }
      ],
      "stateMutability": "view",
      "type": "function"
    },
    {
      "inputs": [],
      "name": "symbol",
      "outputs": [
        {
          "internalType": "string",
          "name": "",
          "type": "string"
        }
      ],
      "stateMutability": "view",
      "type": "function"
    },
    {
      "inputs": [
        {
          "internalType": "uint256",
          "name": "id",
          "type": "uint256"
        }
      ],
      "name": "tokenURI",
      "outputs": [
        {
          "internalType": "string",
          "name": "",
          "type": "string"
        }
      ],
      "stateMutability": "view",
      "type": "function"
    },
    {
      "inputs": [
        {
          "internalType": "uint256",
          "name": "",
          "type": "uint256"
        }
      ],
      "name": "tokenUris",
      "outputs": [
        {
          "internalType": "string",
          "name": "",
          "type": "string"
        }
      ],
      "stateMutability": "view",
      "type": "function"
    },
    {
      "inputs": [
        {
          "internalType": "address",
          "name": "from",
          "type": "address"
        },
        {
          "internalType": "address",
          "name": "to",
          "type": "address"
        },
        {
          "internalType": "uint256",
          "name": "tokenId",
          "type": "uint256"
        }
      ],
      "name": "transferFrom",
      "outputs": [],
      "stateMutability": "nonpayable",
      "type": "function"
    }
  ],
  "transactionHash": "0xaec950a61c1609cd36739ff11658988ee7fb47934fff4e908803f3e88345aee6",
  "args": [],
  "numDeployments": 1,
  "solcInputHash": "65e08b938528b163bea66d16d1e23da8",
  "bytecode": "0x608060405234801561001057600080fd5b50612eac806100206000396000f3fe608060405234801561001057600080fd5b50600436106102925760003560e01c80636352211e11610160578063b88d4fde116100d8578063d547cfb71161008c578063e985e9c511610071578063e985e9c5146105b5578063eeb5a5d1146105f1578063f3993d111461060457610292565b8063d547cfb71461059a578063da742228146105a257610292565b8063ce1b815f116100bd578063ce1b815f14610558578063d539139314610560578063d547741f1461058757610292565b8063b88d4fde14610532578063c87b56dd1461054557610292565b806394d008ef1161012f578063a217fddf11610114578063a217fddf14610504578063a22cb4651461050c578063ae882b651461051f57610292565b806394d008ef146104e957806395d89b41146104fc57610292565b80636352211e1461047757806370a082311461048a57806379cc67901461049d57806391d14854146104b057610292565b80632b9917461161020e57806342842e0e116101c2578063485cc955116101a7578063485cc9551461043e5780634f558e7914610451578063572b6c051461046457610292565b806342842e0e1461041857806342966c681461042b57610292565b806336568abe116101f357806336568abe146103cb57806338841782146103de57806340c10f191461040557610292565b80632b991746146103a55780632f2ff15d146103b857610292565b8063162094c411610265578063248a9ca31161024a578063248a9ca31461033a578063282c51f31461036b57806328cfbd461461039257610292565b8063162094c41461031457806323b872dd1461032757610292565b806301ffc9a71461029757806306fdde03146102bf578063081812fc146102d4578063095ea7b3146102ff575b600080fd5b6102aa6102a5366004612ae3565b610617565b60405190151581526020015b60405180910390f35b6102c761062a565b6040516102b69190612ccf565b6102e76102e2366004612aa9565b6106bd565b6040516001600160a01b0390911681526020016102b6565b61031261030d366004612a34565b610768565b005b610312610322366004612b8e565b6108ac565b610312610335366004612957565b610903565b61035d610348366004612aa9565b60009081526065602052604090206001015490565b6040519081526020016102b6565b61035d7f3c11d16cbaffd01df69ce1c404f6340ee057498f5f00246190ea54220576a84881565b6103126103a0366004612887565b610991565b6103126103b3366004612957565b6109a7565b6103126103c6366004612ac1565b6109b2565b6103126103d9366004612ac1565b6109da565b61035d7f6bd6b5318a46e5fff572d5e4258a20774aab40cc35ac7680654b9081fcc82f8081565b610312610413366004612a34565b610a76565b610312610426366004612957565b610aad565b610312610439366004612aa9565b610ab8565b61031261044c3660046127f6565b610ac4565b6102aa61045f366004612aa9565b610c3a565b6102aa6104723660046127dc565b610c4b565b6102e7610485366004612aa9565b610c64565b61035d6104983660046127dc565b610cef565b6103126104ab366004612a34565b610d89565b6102aa6104be366004612ac1565b60009182526065602090815260408084206001600160a01b0393909316845291905290205460ff1690565b6103126104f7366004612a5d565b610d93565b6102c7610dd3565b61035d600081565b61031261051a366004612a0b565b610de2565b6102c761052d366004612aa9565b610df4565b610312610540366004612992565b610e8e565b6102c7610553366004612aa9565b610f1d565b6102e761101f565b61035d7f9f2df0fed2c77648de5860a4cc508cd0818c85b8b8a1ab4ceeef8d981c8956a681565b610312610595366004612ac1565b611037565b6102c761105f565b6103126105b03660046127dc565b61106c565b6102aa6105c33660046127f6565b6001600160a01b039182166000908152609c6020908152604080832093909416825291909152205460ff1690565b6103126105ff366004612915565b611083565b610312610612366004612828565b61108e565b60006106228261109a565b90505b919050565b60606097805461063990612dcc565b80601f016020809104026020016040519081016040528092919081815260200182805461066590612dcc565b80156106b25780601f10610687576101008083540402835291602001916106b2565b820191906000526020600020905b81548152906001019060200180831161069557829003601f168201915b505050505090505b90565b6000818152609960205260408120546001600160a01b031661074c5760405162461bcd60e51b815260206004820152602c60248201527f4552433732313a20617070726f76656420717565727920666f72206e6f6e657860448201527f697374656e7420746f6b656e000000000000000000000000000000000000000060648201526084015b60405180910390fd5b506000908152609b60205260409020546001600160a01b031690565b600061077382610c64565b9050806001600160a01b0316836001600160a01b031614156107fd5760405162461bcd60e51b815260206004820152602160248201527f4552433732313a20617070726f76616c20746f2063757272656e74206f776e6560448201527f72000000000000000000000000000000000000000000000000000000000000006064820152608401610743565b806001600160a01b031661080f6110a5565b6001600160a01b0316148061082b575061082b816105c36110a5565b61089d5760405162461bcd60e51b815260206004820152603860248201527f4552433732313a20617070726f76652063616c6c6572206973206e6f74206f7760448201527f6e6572206e6f7220617070726f76656420666f7220616c6c00000000000000006064820152608401610743565b6108a783836110e9565b505050565b7f6bd6b5318a46e5fff572d5e4258a20774aab40cc35ac7680654b9081fcc82f806108de816108d96110a5565b611164565b600083815260fd6020908152604090912083516108fd9285019061265e565b50505050565b61091461090e6110a5565b826111e4565b6109865760405162461bcd60e51b815260206004820152603160248201527f4552433732313a207472616e736665722063616c6c6572206973206e6f74206f60448201527f776e6572206e6f7220617070726f7665640000000000000000000000000000006064820152608401610743565b6108a78383836112ec565b61099f8686868686866114c6565b505050505050565b6108a783838361155c565b6000828152606560205260409020600101546109d0816108d96110a5565b6108a78383611636565b6109e26110a5565b6001600160a01b0316816001600160a01b031614610a685760405162461bcd60e51b815260206004820152602f60248201527f416363657373436f6e74726f6c3a2063616e206f6e6c792072656e6f756e636560448201527f20726f6c657320666f722073656c6600000000000000000000000000000000006064820152608401610743565b610a7282826116d9565b5050565b7f9f2df0fed2c77648de5860a4cc508cd0818c85b8b8a1ab4ceeef8d981c8956a6610aa3816108d96110a5565b6108a7838361177a565b6108a7838383611784565b610ac18161178f565b50565b600054610100900460ff16610adf5760005460ff1615610ae3565b303b155b610b555760405162461bcd60e51b815260206004820152602e60248201527f496e697469616c697a61626c653a20636f6e747261637420697320616c72656160448201527f647920696e697469616c697a65640000000000000000000000000000000000006064820152608401610743565b600054610100900460ff16158015610b80576000805460ff1961ff0019909116610100171660011790555b610b8b6000836117c5565b60fb805473ffffffffffffffffffffffffffffffffffffffff19166001600160a01b038516179055604080518082018252601781527f53616e64626f78277320415353455473204552433732310000000000000000006020808301919091528251808401909352600b83527f415353455445524337323100000000000000000000000000000000000000000090830152610c24916117cf565b80156108a7576000805461ff0019169055505050565b6000610c4582611866565b50919050565b60fb546000906001600160a01b03808416911614610c45565b6000818152609960205260408120546001600160a01b0316806106225760405162461bcd60e51b815260206004820152602960248201527f4552433732313a206f776e657220717565727920666f72206e6f6e657869737460448201527f656e7420746f6b656e00000000000000000000000000000000000000000000006064820152608401610743565b60006001600160a01b038216610d6d5760405162461bcd60e51b815260206004820152602a60248201527f4552433732313a2062616c616e636520717565727920666f7220746865207a6560448201527f726f2061646472657373000000000000000000000000000000000000000000006064820152608401610743565b506001600160a01b03166000908152609a602052604090205490565b610a728282611885565b7f9f2df0fed2c77648de5860a4cc508cd0818c85b8b8a1ab4ceeef8d981c8956a6610dc0816108d96110a5565b610dcc85858585611971565b5050505050565b60606098805461063990612dcc565b610a72610ded6110a5565b8383611a3f565b60fd6020526000908152604090208054610e0d90612dcc565b80601f0160208091040260200160405190810160405280929190818152602001828054610e3990612dcc565b8015610e865780601f10610e5b57610100808354040283529160200191610e86565b820191906000526020600020905b815481529060010190602001808311610e6957829003601f168201915b505050505081565b610e9f610e996110a5565b836111e4565b610f115760405162461bcd60e51b815260206004820152603160248201527f4552433732313a207472616e736665722063616c6c6572206973206e6f74206f60448201527f776e6572206e6f7220617070726f7665640000000000000000000000000000006064820152608401610743565b6108fd84848484611b0e565b60606000610f2a83610c64565b6001600160a01b03161415610f815760405162461bcd60e51b815260206004820152600c60248201527f5a45524f5f4144445245535300000000000000000000000000000000000000006044820152606401610743565b600082815260fd602052604090208054610f9a90612dcc565b80601f0160208091040260200160405190810160405280929190818152602001828054610fc690612dcc565b80156110135780601f10610fe857610100808354040283529160200191611013565b820191906000526020600020905b815481529060010190602001808311610ff657829003601f168201915b50505050509050919050565b600061103360fb546001600160a01b031690565b5090565b600082815260656020526040902060010154611055816108d96110a5565b6108a783836116d9565b60fc8054610e0d90612dcc565b600061107a816108d96110a5565b610a7282611b97565b6108a7838383611bd5565b6108fd84848484611cb0565b600061062282611d05565b60006110b033610c4b565b156110e257507fffffffffffffffffffffffffffffffffffffffffffffffffffffffffffffffec36013560601c6106ba565b50336106ba565b6000818152609b60205260409020805473ffffffffffffffffffffffffffffffffffffffff19166001600160a01b038416908117909155819061112b82610c64565b6001600160a01b03167f8c5be1e5ebec7d5bd14f71427d1e84f3dd0314c0f7b2291e5b200ac8c7c3b92560405160405180910390a45050565b60008281526065602090815260408083206001600160a01b038516845290915290205460ff16610a72576111a2816001600160a01b03166014611da7565b6111ad836020611da7565b6040516020016111be929190612c12565b60408051601f198184030181529082905262461bcd60e51b825261074391600401612ccf565b6000818152609960205260408120546001600160a01b031661126e5760405162461bcd60e51b815260206004820152602c60248201527f4552433732313a206f70657261746f7220717565727920666f72206e6f6e657860448201527f697374656e7420746f6b656e00000000000000000000000000000000000000006064820152608401610743565b600061127983610c64565b9050806001600160a01b0316846001600160a01b031614806112b45750836001600160a01b03166112a9846106bd565b6001600160a01b0316145b806112e457506001600160a01b038082166000908152609c602090815260408083209388168352929052205460ff165b949350505050565b826001600160a01b03166112ff82610c64565b6001600160a01b03161461137b5760405162461bcd60e51b815260206004820152602960248201527f4552433732313a207472616e73666572206f6620746f6b656e2074686174206960448201527f73206e6f74206f776e00000000000000000000000000000000000000000000006064820152608401610743565b6001600160a01b0382166113f65760405162461bcd60e51b8152602060048201526024808201527f4552433732313a207472616e7366657220746f20746865207a65726f2061646460448201527f72657373000000000000000000000000000000000000000000000000000000006064820152608401610743565b6114016000826110e9565b6001600160a01b0383166000908152609a6020526040812080546001929061142a908490612d72565b90915550506001600160a01b0382166000908152609a60205260408120805460019290611458908490612d3b565b9091555050600081815260996020526040808220805473ffffffffffffffffffffffffffffffffffffffff19166001600160a01b0386811691821790925591518493918716917fddf252ad1be2c89b69c2b068fc378daa952ba7f163c4a11628f55a4df523b3ef91a4505050565b8260005b818110156115525760008686838181106114f457634e487b7160e01b600052603260045260246000fd5b90506020020135905061153f89898388888080601f016020809104026020016040519081016040528093929190818152602001838380828437600092019190915250610e8e92505050565b508061154a81612e01565b9150506114ca565b5050505050505050565b6001600160a01b0383166115b25760405162461bcd60e51b815260206004820152600c60248201527f5a45524f5f4144445245535300000000000000000000000000000000000000006044820152606401610743565b6115ba6110a5565b6001600160a01b0316836001600160a01b031614806115e057506115e0836105c36110a5565b61162c5760405162461bcd60e51b815260206004820152600b60248201527f21415554484f52495a45440000000000000000000000000000000000000000006044820152606401610743565b6108a78282610768565b60008281526065602090815260408083206001600160a01b038516845290915290205460ff16610a725760008281526065602090815260408083206001600160a01b03851684529091529020805460ff191660011790556116956110a5565b6001600160a01b0316816001600160a01b0316837f2f8788117e7eff1d82e926ec794901d17c78024a50270940304540a733656f0d60405160405180910390a45050565b60008281526065602090815260408083206001600160a01b038516845290915290205460ff1615610a725760008281526065602090815260408083206001600160a01b03851684529091529020805460ff191690556117366110a5565b6001600160a01b0316816001600160a01b0316837ff6391f5c32d9c69d2a47ea670b442974b53935d1edc7fd64eb21e047a839171b60405160405180910390a45050565b610a72828261201d565b6108a7838383612037565b7f3c11d16cbaffd01df69ce1c404f6340ee057498f5f00246190ea54220576a8486117bc816108d96110a5565b610a7282612052565b610a728282611636565b600054610100900460ff1661184c5760405162461bcd60e51b815260206004820152602b60248201527f496e697469616c697a61626c653a20636f6e7472616374206973206e6f74206960448201527f6e697469616c697a696e670000000000000000000000000000000000000000006064820152608401610743565b6118546120fa565b61185c6120fa565b610a728282612179565b6000818152609960205260408120546001600160a01b03161515610622565b61188d6110a5565b6001600160a01b0316826001600160a01b031614806118b357506118b3826105c36110a5565b6118ff5760405162461bcd60e51b815260206004820152600b60248201527f21415554484f52495a45440000000000000000000000000000000000000000006044820152606401610743565b61190881610c64565b6001600160a01b0316826001600160a01b0316146119685760405162461bcd60e51b815260206004820152600960248201527f4e4f545f4f574e455200000000000000000000000000000000000000000000006044820152606401610743565b610a7281612052565b806119be5760405162461bcd60e51b815260206004820152601a60248201527f444154415f4d5553545f434f4e5441494e5f544f4b454e5552490000000000006044820152606401610743565b6119fe8383838080601f01602080910402602001604051908101604052809392919081815260200183838082843760009201919091525061221d92505050565b6108fd848484848080601f01602080910402602001604051908101604052809392919081815260200183838082843760009201919091525061225492505050565b816001600160a01b0316836001600160a01b03161415611aa15760405162461bcd60e51b815260206004820152601960248201527f4552433732313a20617070726f766520746f2063616c6c6572000000000000006044820152606401610743565b6001600160a01b038381166000818152609c6020908152604080832094871680845294825291829020805460ff191686151590811790915591519182527f17307eab39ab6107e8899845ad3d59bd9653f200f220920489ca2b5937696c31910160405180910390a3505050565b611b198484846112ec565b611b25848484846122dd565b6108fd5760405162461bcd60e51b815260206004820152603260248201527f4552433732313a207472616e7366657220746f206e6f6e20455243373231526560448201527f63656976657220696d706c656d656e74657200000000000000000000000000006064820152608401610743565b6000611ba5816108d96110a5565b5060fb805473ffffffffffffffffffffffffffffffffffffffff19166001600160a01b0392909216919091179055565b6001600160a01b038316611c2b5760405162461bcd60e51b815260206004820152600c60248201527f5a45524f5f4144445245535300000000000000000000000000000000000000006044820152606401610743565b611c336110a5565b6001600160a01b0316836001600160a01b03161480611c595750611c59836105c36110a5565b611ca55760405162461bcd60e51b815260206004820152600b60248201527f21415554484f52495a45440000000000000000000000000000000000000000006044820152606401610743565b6108a7838383611a3f565b8060005b8181101561099f576000848483818110611cde57634e487b7160e01b600052603260045260246000fd5b905060200201359050611cf2878783610903565b5080611cfd81612e01565b915050611cb4565b60007fffffffff0000000000000000000000000000000000000000000000000000000082167f80ac58cd000000000000000000000000000000000000000000000000000000001480611d9857507fffffffff0000000000000000000000000000000000000000000000000000000082167f5b5e139f00000000000000000000000000000000000000000000000000000000145b80610622575061062282612478565b60606000611db6836002612d53565b611dc1906002612d3b565b67ffffffffffffffff811115611de757634e487b7160e01b600052604160045260246000fd5b6040519080825280601f01601f191660200182016040528015611e11576020820181803683370190505b5090507f300000000000000000000000000000000000000000000000000000000000000081600081518110611e5657634e487b7160e01b600052603260045260246000fd5b60200101907effffffffffffffffffffffffffffffffffffffffffffffffffffffffffffff1916908160001a9053507f780000000000000000000000000000000000000000000000000000000000000081600181518110611ec757634e487b7160e01b600052603260045260246000fd5b60200101907effffffffffffffffffffffffffffffffffffffffffffffffffffffffffffff1916908160001a9053506000611f03846002612d53565b611f0e906001612d3b565b90505b6001811115611fc7577f303132333435363738396162636465660000000000000000000000000000000085600f1660108110611f5d57634e487b7160e01b600052603260045260246000fd5b1a60f81b828281518110611f8157634e487b7160e01b600052603260045260246000fd5b60200101907effffffffffffffffffffffffffffffffffffffffffffffffffffffffffffff1916908160001a90535060049490941c93611fc081612db5565b9050611f11565b5083156120165760405162461bcd60e51b815260206004820181905260248201527f537472696e67733a20686578206c656e67746820696e73756666696369656e746044820152606401610743565b9392505050565b610a72828260405180602001604052806000815250612254565b6108a783838360405180602001604052806000815250610e8e565b600061205d82610c64565b905061206a6000836110e9565b6001600160a01b0381166000908152609a60205260408120805460019290612093908490612d72565b9091555050600082815260996020526040808220805473ffffffffffffffffffffffffffffffffffffffff19169055518391906001600160a01b038416907fddf252ad1be2c89b69c2b068fc378daa952ba7f163c4a11628f55a4df523b3ef908390a45050565b600054610100900460ff166121775760405162461bcd60e51b815260206004820152602b60248201527f496e697469616c697a61626c653a20636f6e7472616374206973206e6f74206960448201527f6e697469616c697a696e670000000000000000000000000000000000000000006064820152608401610743565b565b600054610100900460ff166121f65760405162461bcd60e51b815260206004820152602b60248201527f496e697469616c697a61626c653a20636f6e7472616374206973206e6f74206960448201527f6e697469616c697a696e670000000000000000000000000000000000000000006064820152608401610743565b815161220990609790602085019061265e565b5080516108a790609890602084019061265e565b808060200190518101906122319190612b1b565b600083815260fd6020908152604090912082516108a7939192919091019061265e565b61225e838361250f565b61226b60008484846122dd565b6108a75760405162461bcd60e51b815260206004820152603260248201527f4552433732313a207472616e7366657220746f206e6f6e20455243373231526560448201527f63656976657220696d706c656d656e74657200000000000000000000000000006064820152608401610743565b60006001600160a01b0384163b1561246d57836001600160a01b031663150b7a026123066110a5565b8786866040518563ffffffff1660e01b81526004016123289493929190612c93565b602060405180830381600087803b15801561234257600080fd5b505af1925050508015612372575060408051601f3d908101601f1916820190925261236f91810190612aff565b60015b612422573d8080156123a0576040519150601f19603f3d011682016040523d82523d6000602084013e6123a5565b606091505b50805161241a5760405162461bcd60e51b815260206004820152603260248201527f4552433732313a207472616e7366657220746f206e6f6e20455243373231526560448201527f63656976657220696d706c656d656e74657200000000000000000000000000006064820152608401610743565b805181602001fd5b7fffffffff00000000000000000000000000000000000000000000000000000000167f150b7a02000000000000000000000000000000000000000000000000000000001490506112e4565b506001949350505050565b60007fffffffff0000000000000000000000000000000000000000000000000000000082167f7965db0b00000000000000000000000000000000000000000000000000000000148061062257507f01ffc9a7000000000000000000000000000000000000000000000000000000007fffffffff00000000000000000000000000000000000000000000000000000000831614610622565b6001600160a01b0382166125655760405162461bcd60e51b815260206004820181905260248201527f4552433732313a206d696e7420746f20746865207a65726f20616464726573736044820152606401610743565b6000818152609960205260409020546001600160a01b0316156125ca5760405162461bcd60e51b815260206004820152601c60248201527f4552433732313a20746f6b656e20616c7265616479206d696e746564000000006044820152606401610743565b6001600160a01b0382166000908152609a602052604081208054600192906125f3908490612d3b565b9091555050600081815260996020526040808220805473ffffffffffffffffffffffffffffffffffffffff19166001600160a01b03861690811790915590518392907fddf252ad1be2c89b69c2b068fc378daa952ba7f163c4a11628f55a4df523b3ef908290a45050565b82805461266a90612dcc565b90600052602060002090601f01602090048101928261268c57600085556126d2565b82601f106126a557805160ff19168380011785556126d2565b828001600101855582156126d2579182015b828111156126d25782518255916020019190600101906126b7565b506110339291505b8082111561103357600081556001016126da565b60006127016126fc84612d13565b612ce2565b905082815283838301111561271557600080fd5b828260208301376000602084830101529392505050565b80356001600160a01b038116811461062557600080fd5b60008083601f840112612754578182fd5b50813567ffffffffffffffff81111561276b578182fd5b602083019150836020808302850101111561278557600080fd5b9250929050565b8035801515811461062557600080fd5b60008083601f8401126127ad578182fd5b50813567ffffffffffffffff8111156127c4578182fd5b60208301915083602082850101111561278557600080fd5b6000602082840312156127ed578081fd5b6120168261272c565b60008060408385031215612808578081fd5b6128118361272c565b915061281f6020840161272c565b90509250929050565b6000806000806060858703121561283d578182fd5b6128468561272c565b93506128546020860161272c565b9250604085013567ffffffffffffffff81111561286f578283fd5b61287b87828801612743565b95989497509550505050565b6000806000806000806080878903121561289f578182fd5b6128a88761272c565b95506128b66020880161272c565b9450604087013567ffffffffffffffff808211156128d2578384fd5b6128de8a838b01612743565b909650945060608901359150808211156128f6578384fd5b5061290389828a0161279c565b979a9699509497509295939492505050565b600080600060608486031215612929578283fd5b6129328461272c565b92506129406020850161272c565b915061294e6040850161278c565b90509250925092565b60008060006060848603121561296b578283fd5b6129748461272c565b92506129826020850161272c565b9150604084013590509250925092565b600080600080608085870312156129a7578384fd5b6129b08561272c565b93506129be6020860161272c565b925060408501359150606085013567ffffffffffffffff8111156129e0578182fd5b8501601f810187136129f0578182fd5b6129ff878235602084016126ee565b91505092959194509250565b60008060408385031215612a1d578182fd5b612a268361272c565b915061281f6020840161278c565b60008060408385031215612a46578182fd5b612a4f8361272c565b946020939093013593505050565b60008060008060608587031215612a72578182fd5b612a7b8561272c565b935060208501359250604085013567ffffffffffffffff811115612a9d578283fd5b61287b8782880161279c565b600060208284031215612aba578081fd5b5035919050565b60008060408385031215612ad3578182fd5b8235915061281f6020840161272c565b600060208284031215612af4578081fd5b813561201681612e48565b600060208284031215612b10578081fd5b815161201681612e48565b600060208284031215612b2c578081fd5b815167ffffffffffffffff811115612b42578182fd5b8201601f81018413612b52578182fd5b8051612b606126fc82612d13565b818152856020838501011115612b74578384fd5b612b85826020830160208601612d89565b95945050505050565b60008060408385031215612ba0578182fd5b82359150602083013567ffffffffffffffff811115612bbd578182fd5b8301601f81018513612bcd578182fd5b612bdc858235602084016126ee565b9150509250929050565b60008151808452612bfe816020860160208601612d89565b601f01601f19169290920160200192915050565b60007f416363657373436f6e74726f6c3a206163636f756e742000000000000000000082528351612c4a816017850160208801612d89565b7f206973206d697373696e6720726f6c65200000000000000000000000000000006017918401918201528351612c87816028840160208801612d89565b01602801949350505050565b60006001600160a01b03808716835280861660208401525083604083015260806060830152612cc56080830184612be6565b9695505050505050565b6000602082526120166020830184612be6565b604051601f8201601f1916810167ffffffffffffffff81118282101715612d0b57612d0b612e32565b604052919050565b600067ffffffffffffffff821115612d2d57612d2d612e32565b50601f01601f191660200190565b60008219821115612d4e57612d4e612e1c565b500190565b6000816000190483118215151615612d6d57612d6d612e1c565b500290565b600082821015612d8457612d84612e1c565b500390565b60005b83811015612da4578181015183820152602001612d8c565b838111156108fd5750506000910152565b600081612dc457612dc4612e1c565b506000190190565b600281046001821680612de057607f821691505b60208210811415610c4557634e487b7160e01b600052602260045260246000fd5b6000600019821415612e1557612e15612e1c565b5060010190565b634e487b7160e01b600052601160045260246000fd5b634e487b7160e01b600052604160045260246000fd5b7fffffffff0000000000000000000000000000000000000000000000000000000081168114610ac157600080fdfea2646970667358221220bff70bb86f3b452468f338ca0f12c73a9dd66a3877d6b74d8523bc4cd464686c64736f6c63430008020033",
  "devdoc": {
    "details": "AssetERC721 will be minted only on L2 and can be transferred to L1 but not minted on L1.This contract supports meta transactions.This contract is final, don't inherit from it.",
    "kind": "dev",
    "methods": {
      "approve(address,uint256)": {
        "details": "See {IERC721-approve}."
      },
      "balanceOf(address)": {
        "details": "See {IERC721-balanceOf}."
      },
      "getApproved(uint256)": {
        "details": "See {IERC721-getApproved}."
      },
      "getRoleAdmin(bytes32)": {
        "details": "Returns the admin role that controls `role`. See {grantRole} and {revokeRole}. To change a role's admin, use {_setRoleAdmin}."
      },
      "grantRole(bytes32,address)": {
        "details": "Grants `role` to `account`. If `account` had not been already granted `role`, emits a {RoleGranted} event. Requirements: - the caller must have ``role``'s admin role."
      },
      "hasRole(bytes32,address)": {
        "details": "Returns `true` if `account` has been granted `role`."
      },
      "isApprovedForAll(address,address)": {
        "details": "See {IERC721-isApprovedForAll}."
      },
      "mint(address,uint256)": {
        "details": "Minting is only permitted to MINTER_ROLE",
        "params": {
          "id": "The id of the new token",
          "to": "The address that will receive a new token"
        }
      },
      "mint(address,uint256,bytes)": {
        "details": "Minting is only permitted to MINTER_ROLEUse this function to retain metadata",
        "params": {
          "data": "Associated token metadata, which is decoded & used to set the token's metadata hash.",
          "id": "The id of the new token",
          "to": "The address that will receive a new token"
        }
      },
      "name()": {
        "details": "See {IERC721Metadata-name}."
      },
      "ownerOf(uint256)": {
        "details": "See {IERC721-ownerOf}."
      },
      "renounceRole(bytes32,address)": {
        "details": "Revokes `role` from the calling account. Roles are often managed via {grantRole} and {revokeRole}: this function's purpose is to provide a mechanism for accounts to lose their privileges if they are compromised (such as when a trusted device is misplaced). If the calling account had been revoked `role`, emits a {RoleRevoked} event. Requirements: - the caller must be `account`."
      },
      "revokeRole(bytes32,address)": {
        "details": "Revokes `role` from `account`. If `account` had been granted `role`, emits a {RoleRevoked} event. Requirements: - the caller must have ``role``'s admin role."
      },
      "safeTransferFrom(address,address,uint256,bytes)": {
        "details": "See {IERC721-safeTransferFrom}."
      },
      "setApprovalForAll(address,bool)": {
        "details": "See {IERC721-setApprovalForAll}."
      },
      "setTokenURI(uint256,string)": {
        "details": "The metadata hash for the ERC721 may need to be manually set or overridden.",
        "params": {
          "id": "The token id.",
          "uri": "The full token URI to be used for the token id."
        }
      },
      "symbol()": {
        "details": "See {IERC721Metadata-symbol}."
      },
      "tokenURI(uint256)": {
        "params": {
          "id": "The token to get the uri of."
        },
        "returns": {
          "_0": "URI The token's URI string."
        }
      },
      "transferFrom(address,address,uint256)": {
        "details": "See {IERC721-transferFrom}."
      }
    },
    "title": "This contract is for AssetERC721 which can be minted by a minter role.",
    "version": 1
  },
  "userdoc": {
    "kind": "user",
    "methods": {
      "initialize(address,address)": {
        "notice": "fulfills the purpose of a constructor in upgradeable contracts"
      },
      "mint(address,uint256)": {
        "notice": "Creates a new token for `to`"
      },
      "mint(address,uint256,bytes)": {
        "notice": "Creates a new token for `to`"
      },
      "setTokenURI(uint256,string)": {
        "notice": "Set the metadatahash for a given token id."
      },
      "tokenURI(uint256)": {
        "notice": "A distinct Uniform Resource Identifier (URI) for a given asset."
      }
    },
    "version": 1
  },
  "storageLayout": {
    "storage": [
      {
        "astId": 7669,
        "contract": "src/solc_0.8/polygon/child/asset/PolygonAssetERC721.sol:PolygonAssetERC721",
        "label": "_initialized",
        "offset": 0,
        "slot": "0",
        "type": "t_bool"
      },
      {
        "astId": 7672,
        "contract": "src/solc_0.8/polygon/child/asset/PolygonAssetERC721.sol:PolygonAssetERC721",
        "label": "_initializing",
        "offset": 1,
        "slot": "0",
        "type": "t_bool"
      },
      {
        "astId": 9670,
        "contract": "src/solc_0.8/polygon/child/asset/PolygonAssetERC721.sol:PolygonAssetERC721",
        "label": "__gap",
        "offset": 0,
        "slot": "1",
        "type": "t_array(t_uint256)50_storage"
      },
      {
        "astId": 10532,
        "contract": "src/solc_0.8/polygon/child/asset/PolygonAssetERC721.sol:PolygonAssetERC721",
        "label": "__gap",
        "offset": 0,
        "slot": "51",
        "type": "t_array(t_uint256)50_storage"
      },
      {
        "astId": 7074,
        "contract": "src/solc_0.8/polygon/child/asset/PolygonAssetERC721.sol:PolygonAssetERC721",
        "label": "_roles",
        "offset": 0,
        "slot": "101",
        "type": "t_mapping(t_bytes32,t_struct(RoleData)7069_storage)"
      },
      {
        "astId": 7361,
        "contract": "src/solc_0.8/polygon/child/asset/PolygonAssetERC721.sol:PolygonAssetERC721",
        "label": "__gap",
        "offset": 0,
        "slot": "102",
        "type": "t_array(t_uint256)49_storage"
      },
      {
        "astId": 7992,
        "contract": "src/solc_0.8/polygon/child/asset/PolygonAssetERC721.sol:PolygonAssetERC721",
        "label": "_name",
        "offset": 0,
        "slot": "151",
        "type": "t_string_storage"
      },
      {
        "astId": 7994,
        "contract": "src/solc_0.8/polygon/child/asset/PolygonAssetERC721.sol:PolygonAssetERC721",
        "label": "_symbol",
        "offset": 0,
        "slot": "152",
        "type": "t_string_storage"
      },
      {
        "astId": 7998,
        "contract": "src/solc_0.8/polygon/child/asset/PolygonAssetERC721.sol:PolygonAssetERC721",
        "label": "_owners",
        "offset": 0,
        "slot": "153",
        "type": "t_mapping(t_uint256,t_address)"
      },
      {
        "astId": 8002,
        "contract": "src/solc_0.8/polygon/child/asset/PolygonAssetERC721.sol:PolygonAssetERC721",
        "label": "_balances",
        "offset": 0,
        "slot": "154",
        "type": "t_mapping(t_address,t_uint256)"
      },
      {
        "astId": 8006,
        "contract": "src/solc_0.8/polygon/child/asset/PolygonAssetERC721.sol:PolygonAssetERC721",
        "label": "_tokenApprovals",
        "offset": 0,
        "slot": "155",
        "type": "t_mapping(t_uint256,t_address)"
      },
      {
        "astId": 8012,
        "contract": "src/solc_0.8/polygon/child/asset/PolygonAssetERC721.sol:PolygonAssetERC721",
        "label": "_operatorApprovals",
        "offset": 0,
        "slot": "156",
        "type": "t_mapping(t_address,t_mapping(t_address,t_bool))"
      },
      {
        "astId": 8823,
        "contract": "src/solc_0.8/polygon/child/asset/PolygonAssetERC721.sol:PolygonAssetERC721",
        "label": "__gap",
        "offset": 0,
        "slot": "157",
        "type": "t_array(t_uint256)44_storage"
      },
      {
        "astId": 22953,
        "contract": "src/solc_0.8/polygon/child/asset/PolygonAssetERC721.sol:PolygonAssetERC721",
        "label": "__gap1",
        "offset": 0,
        "slot": "201",
        "type": "t_array(t_uint256)50_storage"
      },
      {
        "astId": 22955,
        "contract": "src/solc_0.8/polygon/child/asset/PolygonAssetERC721.sol:PolygonAssetERC721",
        "label": "_trustedForwarder",
        "offset": 0,
        "slot": "251",
        "type": "t_address"
      },
      {
        "astId": 22957,
        "contract": "src/solc_0.8/polygon/child/asset/PolygonAssetERC721.sol:PolygonAssetERC721",
        "label": "baseTokenURI",
        "offset": 0,
        "slot": "252",
        "type": "t_string_storage"
      },
      {
        "astId": 22961,
        "contract": "src/solc_0.8/polygon/child/asset/PolygonAssetERC721.sol:PolygonAssetERC721",
        "label": "tokenUris",
        "offset": 0,
        "slot": "253",
        "type": "t_mapping(t_uint256,t_string_storage)"
      },
      {
        "astId": 23440,
        "contract": "src/solc_0.8/polygon/child/asset/PolygonAssetERC721.sol:PolygonAssetERC721",
        "label": "__gap2",
        "offset": 0,
        "slot": "254",
        "type": "t_array(t_uint256)50_storage"
      }
    ],
    "types": {
      "t_address": {
        "encoding": "inplace",
        "label": "address",
        "numberOfBytes": "20"
      },
      "t_array(t_uint256)44_storage": {
        "base": "t_uint256",
        "encoding": "inplace",
        "label": "uint256[44]",
        "numberOfBytes": "1408"
      },
      "t_array(t_uint256)49_storage": {
        "base": "t_uint256",
        "encoding": "inplace",
        "label": "uint256[49]",
        "numberOfBytes": "1568"
      },
      "t_array(t_uint256)50_storage": {
        "base": "t_uint256",
        "encoding": "inplace",
        "label": "uint256[50]",
        "numberOfBytes": "1600"
      },
      "t_bool": {
        "encoding": "inplace",
        "label": "bool",
        "numberOfBytes": "1"
      },
      "t_bytes32": {
        "encoding": "inplace",
        "label": "bytes32",
        "numberOfBytes": "32"
      },
      "t_mapping(t_address,t_bool)": {
        "encoding": "mapping",
        "key": "t_address",
        "label": "mapping(address => bool)",
        "numberOfBytes": "32",
        "value": "t_bool"
      },
      "t_mapping(t_address,t_mapping(t_address,t_bool))": {
        "encoding": "mapping",
        "key": "t_address",
        "label": "mapping(address => mapping(address => bool))",
        "numberOfBytes": "32",
        "value": "t_mapping(t_address,t_bool)"
      },
      "t_mapping(t_address,t_uint256)": {
        "encoding": "mapping",
        "key": "t_address",
        "label": "mapping(address => uint256)",
        "numberOfBytes": "32",
        "value": "t_uint256"
      },
      "t_mapping(t_bytes32,t_struct(RoleData)7069_storage)": {
        "encoding": "mapping",
        "key": "t_bytes32",
        "label": "mapping(bytes32 => struct AccessControlUpgradeable.RoleData)",
        "numberOfBytes": "32",
        "value": "t_struct(RoleData)7069_storage"
      },
      "t_mapping(t_uint256,t_address)": {
        "encoding": "mapping",
        "key": "t_uint256",
        "label": "mapping(uint256 => address)",
        "numberOfBytes": "32",
        "value": "t_address"
      },
      "t_mapping(t_uint256,t_string_storage)": {
        "encoding": "mapping",
        "key": "t_uint256",
        "label": "mapping(uint256 => string)",
        "numberOfBytes": "32",
        "value": "t_string_storage"
      },
      "t_string_storage": {
        "encoding": "bytes",
        "label": "string",
        "numberOfBytes": "32"
      },
      "t_struct(RoleData)7069_storage": {
        "encoding": "inplace",
        "label": "struct AccessControlUpgradeable.RoleData",
        "members": [
          {
            "astId": 7066,
            "contract": "src/solc_0.8/polygon/child/asset/PolygonAssetERC721.sol:PolygonAssetERC721",
            "label": "members",
            "offset": 0,
            "slot": "0",
            "type": "t_mapping(t_address,t_bool)"
          },
          {
            "astId": 7068,
            "contract": "src/solc_0.8/polygon/child/asset/PolygonAssetERC721.sol:PolygonAssetERC721",
            "label": "adminRole",
            "offset": 0,
            "slot": "1",
            "type": "t_bytes32"
          }
        ],
        "numberOfBytes": "64"
      },
      "t_uint256": {
        "encoding": "inplace",
        "label": "uint256",
        "numberOfBytes": "32"
      }
    }
  }
}