{
  "address": "0x7B9f746bFFf02E7b69caBDa69345bB2EEdC36b61",
  "abi": [
    {
      "inputs": [
        {
          "internalType": "address",
          "name": "landAddress",
          "type": "address"
        },
        {
          "internalType": "address",
          "name": "sandContractAddress",
          "type": "address"
        },
        {
          "internalType": "address",
          "name": "initialMetaTx",
          "type": "address"
        },
        {
          "internalType": "address",
          "name": "admin",
          "type": "address"
        },
        {
          "internalType": "address payable",
          "name": "initialWalletAddress",
          "type": "address"
        },
        {
          "internalType": "bytes32",
          "name": "merkleRoot",
          "type": "bytes32"
        },
        {
          "internalType": "uint256",
          "name": "expiryTime",
          "type": "uint256"
        },
        {
          "internalType": "address",
          "name": "initialSigningWallet",
          "type": "address"
        },
        {
          "internalType": "uint256",
          "name": "initialMaxCommissionRate",
          "type": "uint256"
        },
        {
          "internalType": "address",
          "name": "estate",
          "type": "address"
        },
        {
          "internalType": "address",
          "name": "asset",
          "type": "address"
        },
        {
          "internalType": "address",
          "name": "feeDistributor",
          "type": "address"
        },
        {
          "internalType": "address",
          "name": "authValidator",
          "type": "address"
        }
      ],
      "stateMutability": "nonpayable",
      "type": "constructor"
    },
    {
      "anonymous": false,
      "inputs": [
        {
          "indexed": false,
          "internalType": "address",
          "name": "oldAdmin",
          "type": "address"
        },
        {
          "indexed": false,
          "internalType": "address",
          "name": "newAdmin",
          "type": "address"
        }
      ],
      "name": "AdminChanged",
      "type": "event"
    },
    {
      "anonymous": false,
      "inputs": [
        {
          "indexed": true,
          "internalType": "address",
          "name": "buyer",
          "type": "address"
        },
        {
          "indexed": true,
          "internalType": "address",
          "name": "to",
          "type": "address"
        },
        {
          "indexed": true,
          "internalType": "uint256",
          "name": "topCornerId",
          "type": "uint256"
        },
        {
          "indexed": false,
          "internalType": "uint256",
          "name": "size",
          "type": "uint256"
        },
        {
          "indexed": false,
          "internalType": "uint256",
          "name": "price",
          "type": "uint256"
        },
        {
          "indexed": false,
          "internalType": "address",
          "name": "token",
          "type": "address"
        },
        {
          "indexed": false,
          "internalType": "uint256",
          "name": "amountPaid",
          "type": "uint256"
        }
      ],
      "name": "LandQuadPurchased",
      "type": "event"
    },
    {
      "anonymous": false,
      "inputs": [
        {
          "indexed": true,
          "internalType": "uint256",
          "name": "newMaxCommissionRate",
          "type": "uint256"
        }
      ],
      "name": "MaxCommissionRateUpdated",
      "type": "event"
    },
    {
      "anonymous": false,
      "inputs": [
        {
          "indexed": false,
          "internalType": "address",
          "name": "metaTransactionProcessor",
          "type": "address"
        },
        {
          "indexed": false,
          "internalType": "bool",
          "name": "enabled",
          "type": "bool"
        }
      ],
      "name": "MetaTransactionProcessor",
      "type": "event"
    },
    {
      "anonymous": false,
      "inputs": [
        {
          "indexed": true,
          "internalType": "address",
          "name": "newWallet",
          "type": "address"
        }
      ],
      "name": "NewReceivingWallet",
      "type": "event"
    },
    {
      "anonymous": false,
      "inputs": [
        {
          "indexed": true,
          "internalType": "address",
          "name": "referrer",
          "type": "address"
        },
        {
          "indexed": true,
          "internalType": "address",
          "name": "referee",
          "type": "address"
        },
        {
          "indexed": true,
          "internalType": "address",
          "name": "token",
          "type": "address"
        },
        {
          "indexed": false,
          "internalType": "uint256",
          "name": "amount",
          "type": "uint256"
        },
        {
          "indexed": false,
          "internalType": "uint256",
          "name": "commission",
          "type": "uint256"
        },
        {
          "indexed": false,
          "internalType": "uint256",
          "name": "commissionRate",
          "type": "uint256"
        }
      ],
      "name": "ReferralUsed",
      "type": "event"
    },
    {
      "anonymous": false,
      "inputs": [
        {
          "indexed": true,
          "internalType": "address",
          "name": "newSigningWallet",
          "type": "address"
        }
      ],
      "name": "SigningWalletUpdated",
      "type": "event"
    },
    {
      "inputs": [
        {
          "internalType": "address",
          "name": "buyer",
          "type": "address"
        },
        {
          "internalType": "address",
          "name": "to",
          "type": "address"
        },
        {
          "internalType": "address",
          "name": "reserved",
          "type": "address"
        },
        {
          "internalType": "uint256[]",
          "name": "info",
          "type": "uint256[]"
        },
        {
          "internalType": "bytes32",
          "name": "salt",
          "type": "bytes32"
        },
        {
          "internalType": "uint256[]",
          "name": "assetIds",
          "type": "uint256[]"
        },
        {
          "internalType": "bytes32[]",
          "name": "proof",
          "type": "bytes32[]"
        },
        {
          "internalType": "bytes",
          "name": "referral",
          "type": "bytes"
        },
        {
          "internalType": "bytes",
          "name": "signature",
          "type": "bytes"
        }
      ],
      "name": "buyLandWithSand",
      "outputs": [],
      "stateMutability": "nonpayable",
      "type": "function"
    },
    {
      "inputs": [
        {
          "internalType": "address",
          "name": "newAdmin",
          "type": "address"
        }
      ],
      "name": "changeAdmin",
      "outputs": [],
      "stateMutability": "nonpayable",
      "type": "function"
    },
    {
      "inputs": [
        {
          "internalType": "bytes",
          "name": "referral",
          "type": "bytes"
        }
      ],
      "name": "decodeReferral",
      "outputs": [
        {
          "internalType": "bytes",
          "name": "",
          "type": "bytes"
        },
        {
          "internalType": "address",
          "name": "",
          "type": "address"
        },
        {
          "internalType": "address",
          "name": "",
          "type": "address"
        },
        {
          "internalType": "uint256",
          "name": "",
          "type": "uint256"
        },
        {
          "internalType": "uint256",
          "name": "",
          "type": "uint256"
        }
      ],
      "stateMutability": "pure",
      "type": "function"
    },
    {
      "inputs": [
        {
          "internalType": "address",
          "name": "disableWallet",
          "type": "address"
        }
      ],
      "name": "disablePreviousSigningWallet",
      "outputs": [],
      "stateMutability": "nonpayable",
      "type": "function"
    },
    {
      "inputs": [],
      "name": "getAdmin",
      "outputs": [
        {
          "internalType": "address",
          "name": "",
          "type": "address"
        }
      ],
      "stateMutability": "view",
      "type": "function"
    },
    {
      "inputs": [],
      "name": "getExpiryTime",
      "outputs": [
        {
          "internalType": "uint256",
          "name": "",
          "type": "uint256"
        }
      ],
      "stateMutability": "view",
      "type": "function"
    },
    {
      "inputs": [],
      "name": "getMaxCommissionRate",
      "outputs": [
        {
          "internalType": "uint256",
          "name": "",
          "type": "uint256"
        }
      ],
      "stateMutability": "view",
      "type": "function"
    },
    {
      "inputs": [],
      "name": "getMerkleRoot",
      "outputs": [
        {
          "internalType": "bytes32",
          "name": "",
          "type": "bytes32"
        }
      ],
      "stateMutability": "view",
      "type": "function"
    },
    {
      "inputs": [],
      "name": "getSigningWallet",
      "outputs": [
        {
          "internalType": "address",
          "name": "",
          "type": "address"
        }
      ],
      "stateMutability": "view",
      "type": "function"
    },
    {
      "inputs": [
        {
          "internalType": "address",
          "name": "who",
          "type": "address"
        }
      ],
      "name": "isMetaTransactionProcessor",
      "outputs": [
        {
          "internalType": "bool",
          "name": "",
          "type": "bool"
        }
      ],
      "stateMutability": "view",
      "type": "function"
    },
    {
      "inputs": [
        {
          "internalType": "bytes",
          "name": "signature",
          "type": "bytes"
        },
        {
          "internalType": "address",
          "name": "referrer",
          "type": "address"
        },
        {
          "internalType": "address",
          "name": "referee",
          "type": "address"
        },
        {
          "internalType": "uint256",
          "name": "expiryTime",
          "type": "uint256"
        },
        {
          "internalType": "uint256",
          "name": "commissionRate",
          "type": "uint256"
        }
      ],
      "name": "isReferralValid",
      "outputs": [
        {
          "internalType": "bool",
          "name": "",
          "type": "bool"
        }
      ],
      "stateMutability": "view",
      "type": "function"
    },
    {
      "inputs": [
        {
          "internalType": "address",
          "name": "",
          "type": "address"
        },
        {
          "internalType": "address",
          "name": "",
          "type": "address"
        },
        {
          "internalType": "uint256[]",
          "name": "",
          "type": "uint256[]"
        },
        {
          "internalType": "uint256[]",
          "name": "",
          "type": "uint256[]"
        },
        {
          "internalType": "bytes",
          "name": "",
          "type": "bytes"
        }
      ],
      "name": "onERC1155BatchReceived",
      "outputs": [
        {
          "internalType": "bytes4",
          "name": "",
          "type": "bytes4"
        }
      ],
      "stateMutability": "pure",
      "type": "function"
    },
    {
      "inputs": [
        {
          "internalType": "address",
          "name": "",
          "type": "address"
        },
        {
          "internalType": "address",
          "name": "",
          "type": "address"
        },
        {
          "internalType": "uint256",
          "name": "",
          "type": "uint256"
        },
        {
          "internalType": "uint256",
          "name": "",
          "type": "uint256"
        },
        {
          "internalType": "bytes",
          "name": "",
          "type": "bytes"
        }
      ],
      "name": "onERC1155Received",
      "outputs": [
        {
          "internalType": "bytes4",
          "name": "",
          "type": "bytes4"
        }
      ],
      "stateMutability": "pure",
      "type": "function"
    },
    {
      "inputs": [
        {
          "internalType": "address",
          "name": "metaTransactionProcessor",
          "type": "address"
        },
        {
          "internalType": "bool",
          "name": "enabled",
          "type": "bool"
        }
      ],
      "name": "setMetaTransactionProcessor",
      "outputs": [],
      "stateMutability": "nonpayable",
      "type": "function"
    },
    {
      "inputs": [
        {
          "internalType": "address payable",
          "name": "newWallet",
          "type": "address"
        }
      ],
      "name": "setReceivingWallet",
      "outputs": [],
      "stateMutability": "nonpayable",
      "type": "function"
    },
    {
      "inputs": [
        {
          "internalType": "uint256",
          "name": "newMaxCommissionRate",
          "type": "uint256"
        }
      ],
      "name": "updateMaxCommissionRate",
      "outputs": [],
      "stateMutability": "nonpayable",
      "type": "function"
    },
    {
      "inputs": [
        {
          "internalType": "address",
          "name": "newSigningWallet",
          "type": "address"
        }
      ],
      "name": "updateSigningWallet",
      "outputs": [],
      "stateMutability": "nonpayable",
      "type": "function"
    },
    {
      "inputs": [
        {
          "internalType": "address",
          "name": "to",
          "type": "address"
        },
        {
          "internalType": "uint256[]",
          "name": "assetIds",
          "type": "uint256[]"
        },
        {
          "internalType": "uint256[]",
          "name": "values",
          "type": "uint256[]"
        }
      ],
      "name": "withdrawAssets",
      "outputs": [],
      "stateMutability": "nonpayable",
      "type": "function"
    }
  ],
  "transactionHash": "0x758953637d73f59054dbc944266d36abb3fbbd4e6ec21ff48b1e29f9b468a6be",
  "args": [
    "0x525129b95bA89B9800e47ef3dc7d23fBAd27b1a3",
    "0x592daadC9eA7F56A81De1FD27A723Bd407709c46",
    "0x592daadC9eA7F56A81De1FD27A723Bd407709c46",
    "0x49c4D4C94829B9c44052C5f5Cb164Fc612181165",
    "0xa5Eb9C9Eb4F4c35B9Be8cFaAA7909F9ebe6Cb609",
    "0x991719d1efcb425d10ec65f1e3f2ea00391380bd27dad3f97a20b82aa82351d5",
    1986897600,
    "0xB7060D3FeCAC3AE1F0A0AA416E3e8E472257950e",
    2000,
    "0x0000000000000000000000000000000000000000",
    "0xB766Af2EfCB61bd5a261E007D8866f005E305D5d",
    "0xAc3ff31f526Af7f386ea43649e3fa67e329AeF93",
    "0x1d3CE3489a064aEFc9928fe08F9d2Dd968F5c969"
  ],
  "numDeployments": 1,
  "linkedData": [
    {
      "x": 288,
      "y": 273,
      "size": 1,
      "price": "1011000000000000000000",
      "reserved": "0x7a9fe22691c811ea339d9b73150e6911a5343dca",
      "salt": "0xad26e82bbd20f0694b5f5609c4b3bd31a979418d5409eb18483f66feb0c3b2dc",
      "assetIds": []
    },
    {
      "x": 288,
      "y": 274,
      "size": 1,
      "price": "1011000000000000000000",
      "reserved": "",
      "salt": "0x2b8dc3eedaa2aac8111079812b705185df82fa50852cc1974791562540cd7103",
      "assetIds": []
    },
    {
      "x": 288,
      "y": 275,
      "size": 1,
      "price": "1011000000000000000000",
      "reserved": "",
      "salt": "0xb8a564a5de25f556bc91dab73a5d9936a3ce51221dd4464a7d75358cef171183",
      "assetIds": []
    },
    {
      "x": 289,
      "y": 273,
      "size": 1,
      "price": "1011000000000000000000",
      "reserved": "0x7a9fe22691c811ea339d9b73150e6911a5343dca",
      "salt": "0xb67e9eb3ed1e2df47064269840652a34c4dd7a1c19742cfcf4adeb5631bb1923",
      "assetIds": []
    },
    {
      "x": 289,
      "y": 274,
      "size": 1,
      "price": "1011000000000000000000",
      "reserved": "",
      "salt": "0xafabce25c39451f01f46898ecf154c24ed32c970cb50317edd4782d02dc15964",
      "assetIds": []
    },
    {
      "x": 289,
      "y": 275,
      "size": 1,
      "price": "1011000000000000000000",
      "reserved": "",
      "salt": "0x0ff84f1cbc8561993672b72d3f4978da66cca2af7c648920b9f0fe391298f9da",
      "assetIds": []
    },
    {
      "x": 290,
      "y": 273,
      "size": 1,
      "price": "1011000000000000000000",
      "reserved": "",
      "salt": "0x56133cbf91663369a1215363e74ebebf07a3bc3fdff48919a6aff0a8c6e858a2",
      "assetIds": []
    },
    {
      "x": 290,
      "y": 274,
      "size": 1,
      "price": "1011000000000000000000",
      "reserved": "",
      "salt": "0xef548189e3bc4b0917a3c0ac0666941ed4905332d991ecb7c68758e456c6db8e",
      "assetIds": []
    },
    {
      "x": 290,
      "y": 275,
      "size": 1,
      "price": "1011000000000000000000",
      "reserved": "",
      "salt": "0x24eb010c99761f786d7be6c5378c2d86941dfcdeef3399292ea673f8aadbe730",
      "assetIds": []
    },
    {
      "x": 291,
      "y": 240,
      "size": 1,
      "price": "1011000000000000000000",
      "reserved": "",
      "salt": "0x3f65d06b798f2735b9c0ce5faa9f4f47caf9d773979cc50298f0c11219db6a58",
      "assetIds": []
    },
    {
      "x": 291,
      "y": 241,
      "size": 1,
      "price": "1011000000000000000000",
      "reserved": "",
      "salt": "0xb9dec0da7b64462835ac6ad81aa446c3a593d6bc16539ccbf1dac2b02f60c373",
      "assetIds": []
    },
    {
      "x": 291,
      "y": 242,
      "size": 1,
      "price": "1011000000000000000000",
      "reserved": "",
      "salt": "0x1ba8eabff95f136e9fb5a549640a6f7b3d1e64fa1c64732fe3f8aaf65875bb29",
      "assetIds": []
    },
    {
      "x": 291,
      "y": 255,
      "size": 1,
      "price": "1011000000000000000000",
      "reserved": "",
      "salt": "0xc9871e2be46517350323e9829458109320bcad469c8e1d82e35694ab46ef7a3a",
      "assetIds": []
    },
    {
      "x": 291,
      "y": 256,
      "size": 1,
      "price": "1011000000000000000000",
      "reserved": "",
      "salt": "0x62962aaace21db6f12c0f867cb81eb2e2bf693df4cc15d2f10cb46a08b3d0534",
      "assetIds": []
    },
    {
      "x": 291,
      "y": 257,
      "size": 1,
      "price": "1011000000000000000000",
      "reserved": "",
      "salt": "0x6278c09a1503b7eae777be63354d375d0f15323976ff9dbc54a82a2c4ebe64d0",
      "assetIds": []
    },
    {
      "x": 291,
      "y": 273,
      "size": 1,
      "price": "1011000000000000000000",
      "reserved": "",
      "salt": "0x11bb51d4c230b8ae08c84117bde2055a46e59cc38b6770e8f444375df8f4e452",
      "assetIds": []
    },
    {
      "x": 291,
      "y": 274,
      "size": 1,
      "price": "1011000000000000000000",
      "reserved": "",
      "salt": "0x0379f09d6c06b96dbe9fe864a0ac298f0eb3916a0cc122f0f0e01103eb72b1e4",
      "assetIds": []
    },
    {
      "x": 291,
      "y": 275,
      "size": 1,
      "price": "1011000000000000000000",
      "reserved": "",
      "salt": "0x73c92b2d1abebc47b96768f4ac30fea1e7e1b206df44031be83145d81e94c8ae",
      "assetIds": []
    },
    {
      "x": 292,
      "y": 240,
      "size": 1,
      "price": "1011000000000000000000",
      "reserved": "",
      "salt": "0xdca0a32418b7d9cb9b22cb549b8dbcec49f036aafbce90bc8415aab9c45ba538",
      "assetIds": []
    },
    {
      "x": 292,
      "y": 241,
      "size": 1,
      "price": "1011000000000000000000",
      "reserved": "",
      "salt": "0x7fba15ae22d7fd8391a54991a12add184e9390486b2efdb6873ed358608bcee9",
      "assetIds": []
    },
    {
      "x": 292,
      "y": 242,
      "size": 1,
      "price": "1011000000000000000000",
      "reserved": "",
      "salt": "0xc56745196d76dc300a64b73a030a9d90207ed0a81d9f05cca9fda3a8889c08b6",
      "assetIds": []
    },
    {
      "x": 292,
      "y": 255,
      "size": 1,
      "price": "1011000000000000000000",
      "reserved": "",
      "salt": "0x0ac886e14afef6fadba4ffcd7a49cb77ac6415bc436c70cf9771751828288c43",
      "assetIds": []
    },
    {
      "x": 292,
      "y": 256,
      "size": 1,
      "price": "1011000000000000000000",
      "reserved": "",
      "salt": "0x031602846cf60cf57cc261e0cb861bbbf60bf8231d5b54d1ba441b5050e3ec87",
      "assetIds": []
    },
    {
      "x": 292,
      "y": 257,
      "size": 1,
      "price": "1011000000000000000000",
      "reserved": "",
      "salt": "0x8a7d72b5c171cef7263f819071f5de14743bd3b0b48f9eb395bc8530a7887a2b",
      "assetIds": []
    },
    {
      "x": 292,
      "y": 273,
      "size": 1,
      "price": "1011000000000000000000",
      "reserved": "",
      "salt": "0x455ecc16e9ef4b3069196c8bebc4205dd04df768208d6c186574e396f3004fc1",
      "assetIds": []
    },
    {
      "x": 292,
      "y": 274,
      "size": 1,
      "price": "1011000000000000000000",
      "reserved": "",
      "salt": "0x7d5df7ed20c32425b40f02d06cf29f2bf71197929e5934a410c3e6c34c2e1207",
      "assetIds": []
    },
    {
      "x": 292,
      "y": 275,
      "size": 1,
      "price": "1011000000000000000000",
      "reserved": "",
      "salt": "0x167eb03cb445f80c019cbd36d40e67889bf12c3342b66e37ab085e0937aa71f3",
      "assetIds": []
    },
    {
      "x": 293,
      "y": 240,
      "size": 1,
      "price": "1011000000000000000000",
      "reserved": "",
      "salt": "0xa93830747942e8c36c38d4f5d5e4f5cb6b840e5a322b73a05a4d27846bbb4eb3",
      "assetIds": []
    },
    {
      "x": 293,
      "y": 241,
      "size": 1,
      "price": "1011000000000000000000",
      "reserved": "",
      "salt": "0x4d048a922df4c7a07541f1f31025ed89a8abf5d6ac393414e81adb4810881494",
      "assetIds": []
    },
    {
      "x": 293,
      "y": 242,
      "size": 1,
      "price": "1011000000000000000000",
      "reserved": "",
      "salt": "0x66866b18bbc6b2e197121cdc853f29c06d37a4f092728273bc39146cd5c49895",
      "assetIds": []
    },
    {
      "x": 293,
      "y": 255,
      "size": 1,
      "price": "1011000000000000000000",
      "reserved": "0x7a9fe22691c811ea339d9b73150e6911a5343dca",
      "salt": "0x74c1cab7eb479ad69bbbf15c63df67017d86043e15b796a58178a584fa48c710",
      "assetIds": []
    },
    {
      "x": 293,
      "y": 256,
      "size": 1,
      "price": "1011000000000000000000",
      "reserved": "",
      "salt": "0xdffafbebf141ddb4ac28dcf7d70529ef019131ed14c23a61b5228b181a49c280",
      "assetIds": []
    },
    {
      "x": 293,
      "y": 257,
      "size": 1,
      "price": "1011000000000000000000",
      "reserved": "0x7a9fe22691c811ea339d9b73150e6911a5343dca",
      "salt": "0x01087f116442a5c8825d317a0e9583f434ba62d9af1886585753eefa6bc910d6",
      "assetIds": []
    },
    {
      "x": 293,
      "y": 273,
      "size": 1,
      "price": "1011000000000000000000",
      "reserved": "",
      "salt": "0x80c8434564ae9accf1b89029d2c6a4554db2f96f51641efb97519c00ab51a726",
      "assetIds": []
    },
    {
      "x": 293,
      "y": 274,
      "size": 1,
      "price": "1011000000000000000000",
      "reserved": "0x7a9fe22691c811ea339d9b73150e6911a5343dca",
      "salt": "0xb1f07773dec693146be06e03867aca5894c6343d0a5805a3320afa32783abc89",
      "assetIds": []
    },
    {
      "x": 293,
      "y": 275,
      "size": 1,
      "price": "1011000000000000000000",
      "reserved": "",
      "salt": "0xf9c3dc0fce90de482f98cabb8b3652abc52f3d4a7625e74a4e62db01a5ba4772",
      "assetIds": []
    },
    {
      "x": 294,
      "y": 246,
      "size": 1,
      "price": "1011000000000000000000",
      "reserved": "",
      "salt": "0xf9d4fddb71b59724e60aaa7880822ace444958c22816cd7aa03f2107165c1e4e",
      "assetIds": []
    },
    {
      "x": 294,
      "y": 247,
      "size": 1,
      "price": "1011000000000000000000",
      "reserved": "",
      "salt": "0x09c6b694aa6a17cce260df4ee346280dec0cbb09ddc05ec2f3cd4d7c281ebb69",
      "assetIds": []
    },
    {
      "x": 294,
      "y": 248,
      "size": 1,
      "price": "1011000000000000000000",
      "reserved": "",
      "salt": "0x0327dee8642b7e6b77ca2e5a5d1f0a7b216fd0a01e08b40ad0706d236f8cbc4b",
      "assetIds": []
    },
    {
      "x": 294,
      "y": 249,
      "size": 1,
      "price": "1011000000000000000000",
      "reserved": "",
      "salt": "0xe02717142c8821065e6f4a425288a21f523e153dfac70f6ea56814ddf547b851",
      "assetIds": []
    },
    {
      "x": 294,
      "y": 250,
      "size": 1,
      "price": "1011000000000000000000",
      "reserved": "",
      "salt": "0xc10de345edd801a3725e747cc9f4fa2c7fa66ec604c5888d9f8ce6ac8da45df4",
      "assetIds": []
    },
    {
      "x": 294,
      "y": 251,
      "size": 1,
      "price": "1011000000000000000000",
      "reserved": "",
      "salt": "0xc39582ce94cc28d6a637e79f84b64da190f368bc3c5c72cc623614d8eecb012d",
      "assetIds": []
    },
    {
      "x": 294,
      "y": 252,
      "size": 1,
      "price": "1011000000000000000000",
      "reserved": "",
      "salt": "0xc2f8953c9b15549a8e136c45adc8ade08169311f41029f3c10cbee3e64c5af7f",
      "assetIds": []
    },
    {
      "x": 294,
      "y": 253,
      "size": 1,
      "price": "1011000000000000000000",
      "reserved": "",
      "salt": "0x0db6a440bb3a22f093d3db9b046927445b0057cf7f16c1a8e1b0b66d64d10247",
      "assetIds": []
    },
    {
      "x": 294,
      "y": 254,
      "size": 1,
      "price": "1011000000000000000000",
      "reserved": "",
      "salt": "0xebc4f3dc8b2dc3e8ab44a71d593c8e3fa576f26f4928f0d57ffbf0b99bb1f37f",
      "assetIds": []
    },
    {
      "x": 294,
      "y": 258,
      "size": 1,
      "price": "1011000000000000000000",
      "reserved": "",
      "salt": "0x0fec3db6b952bb2ed11254780f5ce3c60483bdc91b637482f44d2a33c1f78417",
      "assetIds": []
    },
    {
      "x": 294,
      "y": 259,
      "size": 1,
      "price": "1011000000000000000000",
      "reserved": "",
      "salt": "0xc4c10829307a47bc18cee59fb71b26c474cf8f59e905bea3814ec4220ee95208",
      "assetIds": []
    },
    {
      "x": 294,
      "y": 260,
      "size": 1,
      "price": "1011000000000000000000",
      "reserved": "",
      "salt": "0x75bdadf38dbfec23ced5e6aaf57a0d87ee8d17458eb24a9b10e7f8ef2ec18ab5",
      "assetIds": []
    },
    {
      "x": 294,
      "y": 276,
      "size": 1,
      "price": "1011000000000000000000",
      "reserved": "",
      "salt": "0x4a28a05445d63b00792c90c1039492b7552e809194ec1d7e801cfd784e6cff4d",
      "assetIds": []
    },
    {
      "x": 294,
      "y": 277,
      "size": 1,
      "price": "1011000000000000000000",
      "reserved": "",
      "salt": "0x7244529978ba88994181ea92a8afd9bce2bad2e03d5760de939a3baf8e12481d",
      "assetIds": []
    },
    {
      "x": 294,
      "y": 278,
      "size": 1,
      "price": "1011000000000000000000",
      "reserved": "",
      "salt": "0x1531339269a12353474e202a8a5407fcc50c27a7850ac67a3a4d1111b7ee8967",
      "assetIds": []
    },
    {
      "x": 295,
      "y": 246,
      "size": 1,
      "price": "1011000000000000000000",
      "reserved": "0x7a9fe22691c811ea339d9b73150e6911a5343dca",
      "salt": "0xbe3e321188d27fa98cb7e7e577ca70cf61f1c3945f1ca50a338532e211ab9089",
      "assetIds": []
    },
    {
      "x": 295,
      "y": 247,
      "size": 1,
      "price": "1011000000000000000000",
      "reserved": "",
      "salt": "0x3a208ea7a35ce3148764bef9d37032ef132d469b6a8f6bb02cfa6684be7c9cdd",
      "assetIds": []
    },
    {
      "x": 295,
      "y": 248,
      "size": 1,
      "price": "1011000000000000000000",
      "reserved": "",
      "salt": "0xa5080fd1e44047f2d8053c8f451efaab94d8bcf53fa5e1ee30766c9337920902",
      "assetIds": []
    },
    {
      "x": 295,
      "y": 249,
      "size": 1,
      "price": "1011000000000000000000",
      "reserved": "",
      "salt": "0x6c41ced5721afd1775e5a4a52efcce626bb0ca5b35ec42735971ecda1bb02250",
      "assetIds": []
    },
    {
      "x": 295,
      "y": 250,
      "size": 1,
      "price": "1011000000000000000000",
      "reserved": "",
      "salt": "0xa6fa3cdc5772a0e0047c07fab3f81c6ec08bab122e77892708747826dd8773cb",
      "assetIds": []
    },
    {
      "x": 295,
      "y": 251,
      "size": 1,
      "price": "1011000000000000000000",
      "reserved": "",
      "salt": "0xf9a1c1f906be4546c10518d8e703100dd9b68f4b0c045bba2073f5f1952af642",
      "assetIds": []
    },
    {
      "x": 295,
      "y": 252,
      "size": 1,
      "price": "1011000000000000000000",
      "reserved": "",
      "salt": "0xb94ef61fd3b2a7d4b35c787411228f1deb9d00cb0849d7642cf4d4aac80f2578",
      "assetIds": []
    },
    {
      "x": 295,
      "y": 253,
      "size": 1,
      "price": "1011000000000000000000",
      "reserved": "",
      "salt": "0x6927420896f10ad95ae2511c169e582964248157d05372c9b60a770453fd372d",
      "assetIds": []
    },
    {
      "x": 295,
      "y": 254,
      "size": 1,
      "price": "1011000000000000000000",
      "reserved": "",
      "salt": "0x21964cf9165a30bc640b99927ade28af9a8c81dcb79c8702f8da26a723150485",
      "assetIds": []
    },
    {
      "x": 295,
      "y": 258,
      "size": 1,
      "price": "1011000000000000000000",
      "reserved": "0x7a9fe22691c811ea339d9b73150e6911a5343dca",
      "salt": "0xa2a42c51cd8b6bddf670361834d7994d984e37cb4033dd3837e00ae2e94c6eaa",
      "assetIds": []
    },
    {
      "x": 295,
      "y": 259,
      "size": 1,
      "price": "1011000000000000000000",
      "reserved": "",
      "salt": "0x24f07d6510f0e9efdf4496b2d814420be2f4e255b69e2a68d69236840eceee8c",
      "assetIds": []
    },
    {
      "x": 295,
      "y": 260,
      "size": 1,
      "price": "1011000000000000000000",
      "reserved": "",
      "salt": "0x797a1eb527252b190738903086915aa2bdf74a7eac9af2d391d4cd109b7ceeeb",
      "assetIds": []
    },
    {
      "x": 295,
      "y": 276,
      "size": 1,
      "price": "1011000000000000000000",
      "reserved": "0x7a9fe22691c811ea339d9b73150e6911a5343dca",
      "salt": "0x9744020ae883c86720c7ebb6698ea4fc3015f17ca479d6366fcdcc12126a28a3",
      "assetIds": []
    },
    {
      "x": 295,
      "y": 277,
      "size": 1,
      "price": "1011000000000000000000",
      "reserved": "",
      "salt": "0x42469c6c96b494aed653cb5be233cd88270804f3167fe16b2f2e26a2e6925e8f",
      "assetIds": []
    },
    {
      "x": 295,
      "y": 278,
      "size": 1,
      "price": "1011000000000000000000",
      "reserved": "",
      "salt": "0xfe5d9e19df53c9fe337b7297b76c7faf3563ceec305bd28363ba86a45b5060cb",
      "assetIds": []
    },
    {
      "x": 296,
      "y": 246,
      "size": 1,
      "price": "1011000000000000000000",
      "reserved": "",
      "salt": "0x94abb236ef3ed9b521c166fde9733e653b793765691bf5f00fca1125669f1219",
      "assetIds": []
    },
    {
      "x": 296,
      "y": 247,
      "size": 1,
      "price": "1011000000000000000000",
      "reserved": "",
      "salt": "0xd6137a7e13494167c15424a0aa8254cb566ae94f48c0ce7f4d846cc37a385c40",
      "assetIds": []
    },
    {
      "x": 296,
      "y": 248,
      "size": 1,
      "price": "1011000000000000000000",
      "reserved": "",
      "salt": "0x342f54497488e784ae572294ac83b04651a10b92518cea55bb4bcb9e6f3f80e1",
      "assetIds": []
    },
    {
      "x": 296,
      "y": 249,
      "size": 1,
      "price": "1011000000000000000000",
      "reserved": "",
      "salt": "0x42bf6b33952079a8a32228817084075f8ff59c32a3111a159752f45959fb9986",
      "assetIds": []
    },
    {
      "x": 296,
      "y": 250,
      "size": 1,
      "price": "1011000000000000000000",
      "reserved": "",
      "salt": "0xa9c9c8db1b97097bde22b24dcf762d8e980d04ade9c95722e291c5fa4c405a0a",
      "assetIds": []
    },
    {
      "x": 296,
      "y": 251,
      "size": 1,
      "price": "1011000000000000000000",
      "reserved": "",
      "salt": "0xf66d17f1485307afbb1547e54f06f0ae116b30ce4ad7647bbe610fbdc6cea3fe",
      "assetIds": []
    },
    {
      "x": 296,
      "y": 252,
      "size": 1,
      "price": "1011000000000000000000",
      "reserved": "",
      "salt": "0x556808856fb2dd8472031cc9ee6fbcbf481efd4fe849990008b9785ceb5620ea",
      "assetIds": []
    },
    {
      "x": 296,
      "y": 253,
      "size": 1,
      "price": "1011000000000000000000",
      "reserved": "",
      "salt": "0x7b642d47acbfb783a59c5f5b397b5652912a998b6074c943a0785d8a6b9c54d4",
      "assetIds": []
    },
    {
      "x": 296,
      "y": 254,
      "size": 1,
      "price": "1011000000000000000000",
      "reserved": "",
      "salt": "0x277014901c262159b54211c2153effc1e7603c8a68b340f2514f0af72db1ffff",
      "assetIds": []
    },
    {
      "x": 296,
      "y": 258,
      "size": 1,
      "price": "1011000000000000000000",
      "reserved": "",
      "salt": "0xa13bf75303f177d9897e06e2884db105326792ad75b140397de0733fe0f04c58",
      "assetIds": []
    },
    {
      "x": 296,
      "y": 259,
      "size": 1,
      "price": "1011000000000000000000",
      "reserved": "",
      "salt": "0x49bdc74b8b42ee324524e1e017b434cb774b28bc2bbc46ca40f3f79df3a152cf",
      "assetIds": []
    },
    {
      "x": 296,
      "y": 260,
      "size": 1,
      "price": "1011000000000000000000",
      "reserved": "",
      "salt": "0xe0cced5bb269d70abda8b8ffbe6f9ee9e70b82bbae344804f88cb8f0be421958",
      "assetIds": []
    },
    {
      "x": 296,
      "y": 276,
      "size": 1,
      "price": "1011000000000000000000",
      "reserved": "0x7a9fe22691c811ea339d9b73150e6911a5343dca",
      "salt": "0x588587697b4c70cc39b7d31ed3a2826d0f39cbbb1b74aa80127ec1169c3d56d8",
      "assetIds": []
    },
    {
      "x": 296,
      "y": 277,
      "size": 1,
      "price": "1011000000000000000000",
      "reserved": "",
      "salt": "0x4ee3fedf385a2ea5fb80f8bf0fbb6f44bf3838d9a7ae3a8fc114f7d277086b99",
      "assetIds": []
    },
    {
      "x": 296,
      "y": 278,
      "size": 1,
      "price": "1011000000000000000000",
      "reserved": "0x7a9fe22691c811ea339d9b73150e6911a5343dca",
      "salt": "0x2b220341571aa2308f7b56367330fada08c1cb38b54e9e726fa48fd8a3d76b08",
      "assetIds": []
    },
    {
      "x": 297,
      "y": 246,
      "size": 1,
      "price": "1011000000000000000000",
      "reserved": "0x7a9fe22691c811ea339d9b73150e6911a5343dca",
      "salt": "0xb016f6c585891bf52a41232af0cd2907973c86e004ca08517d4a892d1eae5ac9",
      "assetIds": []
    },
    {
      "x": 297,
      "y": 247,
      "size": 1,
      "price": "1011000000000000000000",
      "reserved": "",
      "salt": "0x22794b080e6c06db9323d79f87c1d61541ecd9d2f06d663fa0bbe8095c3ebd77",
      "assetIds": []
    },
    {
      "x": 297,
      "y": 248,
      "size": 1,
      "price": "1011000000000000000000",
      "reserved": "",
      "salt": "0x0156c6a9aff478fd6bf2ebff6379b6ac80e6ac3ffbffb075fc340214b9162ad4",
      "assetIds": []
    },
    {
      "x": 297,
      "y": 249,
      "size": 1,
      "price": "1011000000000000000000",
      "reserved": "",
      "salt": "0x251d977827e9694dba309b0f86b05d1c3452752bb809d7fc0ab49244d1ebd743",
      "assetIds": []
    },
    {
      "x": 297,
      "y": 250,
      "size": 1,
      "price": "1011000000000000000000",
      "reserved": "",
      "salt": "0x986c22e97ef581bd81fd4fa41feaf2527641a04a463136a0e6d9791563173b58",
      "assetIds": []
    },
    {
      "x": 297,
      "y": 251,
      "size": 1,
      "price": "1011000000000000000000",
      "reserved": "",
      "salt": "0xb3a1a763c10601cee2b259a13cfc9cd5f7172d0ec123b47bc58313def448f3bb",
      "assetIds": []
    },
    {
      "x": 297,
      "y": 252,
      "size": 1,
      "price": "1011000000000000000000",
      "reserved": "",
      "salt": "0x1ac88a7ac87db5cde031efa678f2e0eeb601a6078d2f8ed8190552283ec74998",
      "assetIds": []
    },
    {
      "x": 297,
      "y": 253,
      "size": 1,
      "price": "1011000000000000000000",
      "reserved": "",
      "salt": "0xbc2fd61938d6ecf016625b7fb90d3de9b9737948d2625dc1f6f4e0e0a2ffa2e0",
      "assetIds": []
    },
    {
      "x": 297,
      "y": 254,
      "size": 1,
      "price": "1011000000000000000000",
      "reserved": "",
      "salt": "0x0a22367df27675256334e3e6fa310506704e535b90a44a136a9c9353d8659cef",
      "assetIds": []
    },
    {
      "x": 297,
      "y": 255,
      "size": 1,
      "price": "1011000000000000000000",
      "reserved": "",
      "salt": "0xf2e39163ea5143a135e4629456f39aedff44f790db0e3ec2d83f4287cedb9ba5",
      "assetIds": []
    },
    {
      "x": 297,
      "y": 256,
      "size": 1,
      "price": "1011000000000000000000",
      "reserved": "0x7a9fe22691c811ea339d9b73150e6911a5343dca",
      "salt": "0xbf7daccee2b3f44a5a0e5b0bbf3f23e5d2db75c9bd3b4cccc49d7f28e5c14044",
      "assetIds": []
    },
    {
      "x": 297,
      "y": 257,
      "size": 1,
      "price": "1011000000000000000000",
      "reserved": "",
      "salt": "0xd1623faccb76e8e32e92deb38745fc111a8a217501621fc1c8846a0cf2112c87",
      "assetIds": []
    },
    {
      "x": 297,
      "y": 258,
      "size": 1,
      "price": "1011000000000000000000",
      "reserved": "",
      "salt": "0xa531b961ea649960e5b70628b780e958d8b72af834703ab31500cff78423bc73",
      "assetIds": []
    },
    {
      "x": 297,
      "y": 259,
      "size": 1,
      "price": "1011000000000000000000",
      "reserved": "",
      "salt": "0x81eb74a96c780daa0e3b1cc15f7d3a1f2527dae184cf3dc239c85b757def72d4",
      "assetIds": []
    },
    {
      "x": 297,
      "y": 260,
      "size": 1,
      "price": "1011000000000000000000",
      "reserved": "",
      "salt": "0xa14a7bc9a2538a2ace41b6b5539751d9a13e32c1215750751e9ff4f7fc450259",
      "assetIds": []
    },
    {
      "x": 297,
      "y": 261,
      "size": 1,
      "price": "1011000000000000000000",
      "reserved": "",
      "salt": "0xcd9c9ef943dc571a25742211485964d7545b06133195ebacf95c9378b65abd36",
      "assetIds": []
    },
    {
      "x": 297,
      "y": 262,
      "size": 1,
      "price": "1011000000000000000000",
      "reserved": "",
      "salt": "0x2ad68b4067a8a967a27da9fec653431b1799579d212a7bf846d4df8998fe3f0e",
      "assetIds": []
    },
    {
      "x": 297,
      "y": 263,
      "size": 1,
      "price": "1011000000000000000000",
      "reserved": "",
      "salt": "0x68ff453ebfcf06bddcc52db3a53f7fe1ce29fe6ac26e4e96b3660ea10b7c4315",
      "assetIds": []
    },
    {
      "x": 297,
      "y": 279,
      "size": 1,
      "price": "1011000000000000000000",
      "reserved": "0x7a9fe22691c811ea339d9b73150e6911a5343dca",
      "salt": "0x30d8f9103b8f21de961c9163fcd6811ec77597faa38fc92cfa68ee361c97d2ef",
      "assetIds": []
    },
    {
      "x": 298,
      "y": 246,
      "size": 1,
      "price": "1011000000000000000000",
      "reserved": "",
      "salt": "0x529d6c4e7a1583502cd1b841429c9112e3ad1bea23228d5264aa5282f716554e",
      "assetIds": []
    },
    {
      "x": 298,
      "y": 247,
      "size": 1,
      "price": "1011000000000000000000",
      "reserved": "",
      "salt": "0x0793fbc44c0c395f8b0bf44be31eda57c11701420990b8154cb02d5fdb8d97ef",
      "assetIds": []
    },
    {
      "x": 298,
      "y": 248,
      "size": 1,
      "price": "1011000000000000000000",
      "reserved": "",
      "salt": "0x49c5622bd6f03ea65b510cb3f802b68f0b79e7a96dd3bee2a759e8a6f3c47bdf",
      "assetIds": []
    },
    {
      "x": 298,
      "y": 249,
      "size": 1,
      "price": "1011000000000000000000",
      "reserved": "",
      "salt": "0xdbaebca19771c5e617970032a25c31fd1ea81b07736e2dfc8fb402cb84cb5e43",
      "assetIds": []
    },
    {
      "x": 298,
      "y": 250,
      "size": 1,
      "price": "1011000000000000000000",
      "reserved": "",
      "salt": "0xd4494273eec731f2e5931836f1ce6b8cdff378457d4ad1bcf36e701e54c62438",
      "assetIds": []
    },
    {
      "x": 298,
      "y": 251,
      "size": 1,
      "price": "1011000000000000000000",
      "reserved": "",
      "salt": "0x77be9a42589e2e0f18aef8603b024682cbfbcd96613f38ba2ea77e2f272c067b",
      "assetIds": []
    },
    {
      "x": 298,
      "y": 252,
      "size": 1,
      "price": "1011000000000000000000",
      "reserved": "",
      "salt": "0xb77469fae6c333b8625fcb04132cbbd89da41ee697908ecade93b88114da40ce",
      "assetIds": []
    },
    {
      "x": 298,
      "y": 253,
      "size": 1,
      "price": "1011000000000000000000",
      "reserved": "",
      "salt": "0x45917a04beb32bd6d25c2ae5ca2ea2b814d9cc67db6f9242778b06a855d32d38",
      "assetIds": []
    },
    {
      "x": 298,
      "y": 254,
      "size": 1,
      "price": "1011000000000000000000",
      "reserved": "",
      "salt": "0xee0b8dee58bd9902a95911937b907c856e2611c1210418638fd7430357600412",
      "assetIds": []
    },
    {
      "x": 298,
      "y": 255,
      "size": 1,
      "price": "1011000000000000000000",
      "reserved": "",
      "salt": "0xb77b06e5d31fd9caaed4fd5aa128c8ca320dc1bdd8d3531f0e3015522a26f088",
      "assetIds": []
    },
    {
      "x": 298,
      "y": 256,
      "size": 1,
      "price": "1011000000000000000000",
      "reserved": "",
      "salt": "0x4546f4027aa517e17745f2a9a5d6936630b7f2e98e17b40684933b9b5ab65482",
      "assetIds": []
    },
    {
      "x": 298,
      "y": 257,
      "size": 1,
      "price": "1011000000000000000000",
      "reserved": "",
      "salt": "0x57730b4997e748955ccae8ad8c50bc8e244486dd935b2a9b23e0e3418a55f609",
      "assetIds": []
    },
    {
      "x": 298,
      "y": 258,
      "size": 1,
      "price": "1011000000000000000000",
      "reserved": "",
      "salt": "0xcb017e76fd5d4761aa6c3780d581237c39ba8e613a28104b7d8abbc4482ef5ed",
      "assetIds": []
    },
    {
      "x": 298,
      "y": 259,
      "size": 1,
      "price": "1011000000000000000000",
      "reserved": "",
      "salt": "0x9a8dc875a6ae37844a08ebb88a171ef9425cd632b544212946d032759ea0715a",
      "assetIds": []
    },
    {
      "x": 298,
      "y": 260,
      "size": 1,
      "price": "1011000000000000000000",
      "reserved": "",
      "salt": "0x6a0a941ed6728ace4ef949817741cc728698a11e76dd358ef5819a5a8dfcec3c",
      "assetIds": []
    },
    {
      "x": 298,
      "y": 261,
      "size": 1,
      "price": "1011000000000000000000",
      "reserved": "",
      "salt": "0x7fb25c042ea7c1a788e4d7b3c3332dee666cc8a55c5d2a6045699d92b94d73a1",
      "assetIds": []
    },
    {
      "x": 298,
      "y": 262,
      "size": 1,
      "price": "1011000000000000000000",
      "reserved": "",
      "salt": "0xc4e6b7392866f5a3857d29ee66926fa4cbe1d94a94ae0082ef342383a992a3a9",
      "assetIds": []
    },
    {
      "x": 298,
      "y": 263,
      "size": 1,
      "price": "1011000000000000000000",
      "reserved": "",
      "salt": "0x908647b59672102d915dcefb16250ae92ff315953b732ef2fc750a4d1615aeb6",
      "assetIds": []
    },
    {
      "x": 298,
      "y": 279,
      "size": 1,
      "price": "1011000000000000000000",
      "reserved": "",
      "salt": "0x5a48d7c2051a66e5b91f9f93f72a6710548a817b227f5de25004776aee3fe60c",
      "assetIds": []
    },
    {
      "x": 299,
      "y": 246,
      "size": 1,
      "price": "1011000000000000000000",
      "reserved": "",
      "salt": "0xf47cc0ef5dff1082124ca88c10a8722a4a8346636e8f2f857118748c5ae20593",
      "assetIds": []
    },
    {
      "x": 299,
      "y": 247,
      "size": 1,
      "price": "1011000000000000000000",
      "reserved": "",
      "salt": "0x1ce4a5cfd541a56bae03a6a52e2b686dfc13a4c55ba2002605892e4d0294022e",
      "assetIds": []
    },
    {
      "x": 299,
      "y": 248,
      "size": 1,
      "price": "1011000000000000000000",
      "reserved": "",
      "salt": "0x32949ef9ff0ed8137bf983ba61c67d7b0ec7bce4bf063feb07d0fbb2f1b8ee5e",
      "assetIds": []
    },
    {
      "x": 299,
      "y": 249,
      "size": 1,
      "price": "1011000000000000000000",
      "reserved": "",
      "salt": "0xfdaa864c0f37c7e3c92d53a54eac620a85e05a29fcf0c82fb52fb7f394906043",
      "assetIds": []
    },
    {
      "x": 299,
      "y": 250,
      "size": 1,
      "price": "1011000000000000000000",
      "reserved": "",
      "salt": "0x2adeb46a68586aa35306c1374777603c5b73e543a69281706091a29455e7ffcf",
      "assetIds": []
    },
    {
      "x": 299,
      "y": 251,
      "size": 1,
      "price": "1011000000000000000000",
      "reserved": "0x7a9fe22691c811ea339d9b73150e6911a5343dca",
      "salt": "0xa8994c2a2b237bc5d3638d340179acb057760b158c6b472f6a0dc488550b191d",
      "assetIds": []
    },
    {
      "x": 299,
      "y": 252,
      "size": 1,
      "price": "1011000000000000000000",
      "reserved": "",
      "salt": "0xa3f01137c4b4ef47584a829635c197e7b7aeb7141ba8fcf6d0650cbf6c26b062",
      "assetIds": []
    },
    {
      "x": 299,
      "y": 253,
      "size": 1,
      "price": "1011000000000000000000",
      "reserved": "",
      "salt": "0x3d15d13784f141b34057a936562ce23f9efe98c1bdb8364464aa5177e9d12c22",
      "assetIds": []
    },
    {
      "x": 299,
      "y": 254,
      "size": 1,
      "price": "1011000000000000000000",
      "reserved": "",
      "salt": "0xc286c2a2827de679823d935d675f3d74d0e4e6d5022e537ccd56747d79869a64",
      "assetIds": []
    },
    {
      "x": 299,
      "y": 255,
      "size": 1,
      "price": "1011000000000000000000",
      "reserved": "",
      "salt": "0x852da3fa4a5bb645f1df61dcee1abd441a91e28dd545f807e6e381973a68a777",
      "assetIds": []
    },
    {
      "x": 299,
      "y": 256,
      "size": 1,
      "price": "1011000000000000000000",
      "reserved": "",
      "salt": "0x47c19ee225a2ff9f496d6731bdbf06fb3ea56e57b2ff8413869a7efca43bb9c2",
      "assetIds": []
    },
    {
      "x": 299,
      "y": 257,
      "size": 1,
      "price": "1011000000000000000000",
      "reserved": "",
      "salt": "0x718fc5cc264211d6b03b9b3da5a2660f58139aeae337d58bc421af9ea10248e2",
      "assetIds": []
    },
    {
      "x": 299,
      "y": 258,
      "size": 1,
      "price": "1011000000000000000000",
      "reserved": "",
      "salt": "0x3a93ea5c8ab45ed6f8ecacc43c44bd15f075fa4cd121fef5957afb0872b37e6e",
      "assetIds": []
    },
    {
      "x": 299,
      "y": 259,
      "size": 1,
      "price": "1011000000000000000000",
      "reserved": "0x7a9fe22691c811ea339d9b73150e6911a5343dca",
      "salt": "0xb2ce1fea133ca62731ea0663c594b969053e5ad56badcf0104d51668ed88d0ae",
      "assetIds": []
    },
    {
      "x": 299,
      "y": 260,
      "size": 1,
      "price": "1011000000000000000000",
      "reserved": "",
      "salt": "0x6990da9d1819238750f4f9e6ec4eac45d0396cdaf535ea1b09d5f241a91067d8",
      "assetIds": []
    },
    {
      "x": 299,
      "y": 261,
      "size": 1,
      "price": "1011000000000000000000",
      "reserved": "",
      "salt": "0xe921d2ccdf59b32ba667c49928c95ae55ca3952e2689c70850a05f927850e73d",
      "assetIds": []
    },
    {
      "x": 299,
      "y": 262,
      "size": 1,
      "price": "1011000000000000000000",
      "reserved": "",
      "salt": "0x7a8ce3cbe88b4294281e07c3274c1abaf12be70454e0d69c346c1a56b02baa13",
      "assetIds": []
    },
    {
      "x": 299,
      "y": 263,
      "size": 1,
      "price": "1011000000000000000000",
      "reserved": "",
      "salt": "0xdd8ec8b9a9c3e8447711bec796dd341f4f5b57bbf50751a72bc0739f1c488306",
      "assetIds": []
    },
    {
      "x": 300,
      "y": 240,
      "size": 1,
      "price": "1011000000000000000000",
      "reserved": "",
      "salt": "0x4ffab5636aef30fd320b9ef5b54b3d1614e6b78872104876e8bd7bb6cbc20395",
      "assetIds": []
    },
    {
      "x": 300,
      "y": 241,
      "size": 1,
      "price": "1011000000000000000000",
      "reserved": "",
      "salt": "0x6347bd1f72a779fe2c1b3fda747f6c55b58cc6a8e0a2e1ea2a0ac84d0083b36a",
      "assetIds": []
    },
    {
      "x": 300,
      "y": 242,
      "size": 1,
      "price": "1011000000000000000000",
      "reserved": "0x7a9fe22691c811ea339d9b73150e6911a5343dca",
      "salt": "0x76f8b4c048196708f12190ca51b182877536623718e7cd0e7c3fc1bec800bd68",
      "assetIds": []
    },
    {
      "x": 300,
      "y": 246,
      "size": 1,
      "price": "1011000000000000000000",
      "reserved": "",
      "salt": "0x587b2dd9ff16718e4f6ea9959b707bd975551251ee628d57bd35543a91b26b23",
      "assetIds": []
    },
    {
      "x": 300,
      "y": 247,
      "size": 1,
      "price": "1011000000000000000000",
      "reserved": "",
      "salt": "0x8612c2e46a0d37da7c88927984c46526cc73eca114d8d3f188f5e41fc4939884",
      "assetIds": []
    },
    {
      "x": 300,
      "y": 248,
      "size": 1,
      "price": "1011000000000000000000",
      "reserved": "",
      "salt": "0x253f4919d72145b15be58d476e984dd294280372703f50080466c0516a8f1bb6",
      "assetIds": []
    },
    {
      "x": 300,
      "y": 249,
      "size": 1,
      "price": "1011000000000000000000",
      "reserved": "",
      "salt": "0x0aed75766cb99db92589063f85d95281078b73ac4011061824cb785aba2a7cbd",
      "assetIds": []
    },
    {
      "x": 300,
      "y": 250,
      "size": 1,
      "price": "1011000000000000000000",
      "reserved": "",
      "salt": "0x0eaeb633c071db46a222383adf794a472b916f62e58ceae873af17420b8b4dff",
      "assetIds": []
    },
    {
      "x": 300,
      "y": 251,
      "size": 1,
      "price": "1011000000000000000000",
      "reserved": "",
      "salt": "0x9107d1c64dc372615cae926f32418a14e277c6ccf778bd977519d54b9f11baae",
      "assetIds": []
    },
    {
      "x": 300,
      "y": 264,
      "size": 1,
      "price": "1011000000000000000000",
      "reserved": "",
      "salt": "0xf5aaa53138dd4189c18d282fdc3dadf01f9f01adeeb9f3329e985062dd5b9660",
      "assetIds": []
    },
    {
      "x": 300,
      "y": 265,
      "size": 1,
      "price": "1011000000000000000000",
      "reserved": "",
      "salt": "0x182ee510f2eb98819dde88cedb8ff638fad0a381250f9294b270fa74249bb2b0",
      "assetIds": []
    },
    {
      "x": 300,
      "y": 266,
      "size": 1,
      "price": "1011000000000000000000",
      "reserved": "",
      "salt": "0xbace6d251afb6f1803fe5d570ec84b994c8d5e03871f9b66bf87a215ff29f447",
      "assetIds": []
    },
    {
      "x": 300,
      "y": 267,
      "size": 1,
      "price": "1011000000000000000000",
      "reserved": "0x7a9fe22691c811ea339d9b73150e6911a5343dca",
      "salt": "0xfaae921a7fd72e436d16b2b2b54cd9d26e53ad554d29e5bf35914dda40598973",
      "assetIds": []
    },
    {
      "x": 300,
      "y": 268,
      "size": 1,
      "price": "1011000000000000000000",
      "reserved": "",
      "salt": "0xf5f07a42ea4fc2bef7aa1a147ce64003f75cffb0da9600c039c9da795428ee38",
      "assetIds": []
    },
    {
      "x": 300,
      "y": 269,
      "size": 1,
      "price": "1011000000000000000000",
      "reserved": "",
      "salt": "0x430a2b6d8004827d96c2d86564a09a0f8b47d0321e367b5f5cd3241ef1ecb80c",
      "assetIds": []
    },
    {
      "x": 300,
      "y": 273,
      "size": 1,
      "price": "1011000000000000000000",
      "reserved": "0x7a9fe22691c811ea339d9b73150e6911a5343dca",
      "salt": "0xf9e7246b1be070b15b91d3ed95127697cba1a3060f2ae5cba4dc02b76f92170c",
      "assetIds": []
    },
    {
      "x": 300,
      "y": 274,
      "size": 1,
      "price": "1011000000000000000000",
      "reserved": "",
      "salt": "0x10121028ac46eb83dd7a3d3377a572f7a1010b6368a2238bd045240e3cc69f1b",
      "assetIds": []
    },
    {
      "x": 300,
      "y": 275,
      "size": 1,
      "price": "1011000000000000000000",
      "reserved": "",
      "salt": "0x94da588b6b9b8d6f8e6903213b84cc843b79f3a70b4743cb004d0cbaabf68866",
      "assetIds": []
    },
    {
      "x": 300,
      "y": 276,
      "size": 1,
      "price": "1011000000000000000000",
      "reserved": "0x7a9fe22691c811ea339d9b73150e6911a5343dca",
      "salt": "0x5b40a6770bb12866c53a7dc59aa51d8fdee4c51218975c469fb39eb0f79837d9",
      "assetIds": []
    },
    {
      "x": 300,
      "y": 277,
      "size": 1,
      "price": "1011000000000000000000",
      "reserved": "",
      "salt": "0x5deae891e2061c1a6334193cd6502800f7a752256e31a8a46cce1275f5a05724",
      "assetIds": []
    },
    {
      "x": 300,
      "y": 278,
      "size": 1,
      "price": "1011000000000000000000",
      "reserved": "",
      "salt": "0x390428d98b9510d3dc5ed1dfcb187d1d5da73064f4e86a16e308f6bd549d286d",
      "assetIds": []
    },
    {
      "x": 301,
      "y": 240,
      "size": 1,
      "price": "1011000000000000000000",
      "reserved": "",
      "salt": "0x1260730a58f57d66720ba613b8a8f2907d255e6c5657a474dff36dcb2c933aa4",
      "assetIds": []
    },
    {
      "x": 301,
      "y": 241,
      "size": 1,
      "price": "1011000000000000000000",
      "reserved": "",
      "salt": "0x4c22e73ca9304988173c53fde4637a21415de8abfb502fd280319f0e6e708e1d",
      "assetIds": []
    },
    {
      "x": 301,
      "y": 242,
      "size": 1,
      "price": "1011000000000000000000",
      "reserved": "",
      "salt": "0xa0de382b8be45a3558539ab8ec70bf0e0e4cb0396a4fd81e1c7a3f8b7979616c",
      "assetIds": []
    },
    {
      "x": 301,
      "y": 246,
      "size": 1,
      "price": "1011000000000000000000",
      "reserved": "",
      "salt": "0x588fbe1174590e95963650add412d7ffbabb37d94936a43604ed39d602cdb245",
      "assetIds": []
    },
    {
      "x": 301,
      "y": 247,
      "size": 1,
      "price": "1011000000000000000000",
      "reserved": "",
      "salt": "0x16d2c993d9ea97316ba53239c6a724c472b43f4916edbb24f9a7bbc18701e979",
      "assetIds": []
    },
    {
      "x": 301,
      "y": 248,
      "size": 1,
      "price": "1011000000000000000000",
      "reserved": "",
      "salt": "0x57a0f682f405c7243630c865d830c15de8cbd66bbfea0e7c61e1491dcef1d5b7",
      "assetIds": []
    },
    {
      "x": 301,
      "y": 249,
      "size": 1,
      "price": "1011000000000000000000",
      "reserved": "",
      "salt": "0x7753e5b8bb3b1ce600499027342d346700d04619089d5a74ac245a11f8453a17",
      "assetIds": []
    },
    {
      "x": 301,
      "y": 250,
      "size": 1,
      "price": "1011000000000000000000",
      "reserved": "",
      "salt": "0x8ee737a42e499e1772726c453b0ac93dc7b4185ff5f808d2e01961904d43ddd0",
      "assetIds": []
    },
    {
      "x": 301,
      "y": 251,
      "size": 1,
      "price": "1011000000000000000000",
      "reserved": "",
      "salt": "0x6101dddb7e1009755d8af0b901b4c742a41ebd2c85d4f85d03a66c657336a401",
      "assetIds": []
    },
    {
      "x": 301,
      "y": 264,
      "size": 1,
      "price": "1011000000000000000000",
      "reserved": "",
      "salt": "0x1ca28f48a073d49fbbff9530a7bf16fbdc5b7cd5ab913f7e2cdafc3d4033fce7",
      "assetIds": []
    },
    {
      "x": 301,
      "y": 265,
      "size": 1,
      "price": "1011000000000000000000",
      "reserved": "",
      "salt": "0xf92fad612f531844c5123af1c4e43d924564e5eb9c12e16965349589ba7a1b82",
      "assetIds": []
    },
    {
      "x": 301,
      "y": 266,
      "size": 1,
      "price": "1011000000000000000000",
      "reserved": "",
      "salt": "0x80f5abd6c3a93548699445c2b322b7129fe73c9539e58deceda52ef1fc3113f9",
      "assetIds": []
    },
    {
      "x": 301,
      "y": 267,
      "size": 1,
      "price": "1011000000000000000000",
      "reserved": "",
      "salt": "0x0961ab58ede16364adf329e437e44ee87ff59cb56bbada4538d1dd161f09faaa",
      "assetIds": []
    },
    {
      "x": 301,
      "y": 268,
      "size": 1,
      "price": "1011000000000000000000",
      "reserved": "",
      "salt": "0x88e008cfc5d2a3ac82c835ab352207edff7c9cd62edf0d53cf55d48335b0af79",
      "assetIds": []
    },
    {
      "x": 301,
      "y": 269,
      "size": 1,
      "price": "1011000000000000000000",
      "reserved": "",
      "salt": "0x2b0900f89dd87fc9d8e37fdfccd3f17ea68ecdaae7afb2674883a51910bca883",
      "assetIds": []
    },
    {
      "x": 301,
      "y": 273,
      "size": 1,
      "price": "1011000000000000000000",
      "reserved": "",
      "salt": "0x91602956cf408be3688c3f338ee3693e412b66aa430d2369726febf85d082e10",
      "assetIds": []
    },
    {
      "x": 301,
      "y": 274,
      "size": 1,
      "price": "1011000000000000000000",
      "reserved": "",
      "salt": "0xbe90ad33137adfb0f9057347570bc788e3fca3fc5c37b2c96ebc811d3c2f8b92",
      "assetIds": []
    },
    {
      "x": 301,
      "y": 275,
      "size": 1,
      "price": "1011000000000000000000",
      "reserved": "",
      "salt": "0xf2b3c8137a7af860544c53251f7cd7f931339018021bc188b0d98f4cb87ca27b",
      "assetIds": []
    },
    {
      "x": 301,
      "y": 276,
      "size": 1,
      "price": "1011000000000000000000",
      "reserved": "",
      "salt": "0x1de0c48364d13f013c7c57781951e6675009eb3909e88b1dc98f9e68cd8705d4",
      "assetIds": []
    },
    {
      "x": 301,
      "y": 277,
      "size": 1,
      "price": "1011000000000000000000",
      "reserved": "",
      "salt": "0xfcae3e6075e791c0948a57f53c3e5e2146068dd31c2308735f57cdc1ef4f7eab",
      "assetIds": []
    },
    {
      "x": 301,
      "y": 278,
      "size": 1,
      "price": "1011000000000000000000",
      "reserved": "",
      "salt": "0x5e113f2f7e8eb75a9ce6588548d286603f2d5c51b86b5c412a19765f6dd6ca5d",
      "assetIds": []
    },
    {
      "x": 302,
      "y": 240,
      "size": 1,
      "price": "1011000000000000000000",
      "reserved": "",
      "salt": "0xee69ddcb1e7ea43e02d19721a660dc9b2f8bb79843d4f512d73a14b2b026edb2",
      "assetIds": []
    },
    {
      "x": 302,
      "y": 241,
      "size": 1,
      "price": "1011000000000000000000",
      "reserved": "",
      "salt": "0x81b82d34f3c6afcb2f84a6c245e56dfe23cd1520da0b674f94c789ef5012f352",
      "assetIds": []
    },
    {
      "x": 302,
      "y": 242,
      "size": 1,
      "price": "1011000000000000000000",
      "reserved": "",
      "salt": "0xaea8fe4b715bb0247af3f246e75d1b17f12ad9ec4ddf8ad89b26aeb75d0fedcb",
      "assetIds": []
    },
    {
      "x": 302,
      "y": 246,
      "size": 1,
      "price": "4683000000000000000000",
      "reserved": "",
      "salt": "0xa0449cbc453ec43ccd3b2925c77c98459ec9613e4bf05cd5679f614a1fd91f6c",
      "assetIds": []
    },
    {
      "x": 302,
      "y": 247,
      "size": 1,
      "price": "1011000000000000000000",
      "reserved": "",
      "salt": "0x4b898cd0d7544bf91fe157482a7927e2ada9656d9ec41f23ef35469ea521e0de",
      "assetIds": []
    },
    {
      "x": 302,
      "y": 248,
      "size": 1,
      "price": "4683000000000000000000",
      "reserved": "",
      "salt": "0x1ea6ea16fe0a56101a9d8f1b1bffb7a6f626d4e78a7e2cd1417c684280920445",
      "assetIds": []
    },
    {
      "x": 302,
      "y": 249,
      "size": 1,
      "price": "1011000000000000000000",
      "reserved": "0x7a9fe22691c811ea339d9b73150e6911a5343dca",
      "salt": "0xc82ad8952c59556399f2f9170be3c0c0645cd497a033b441ef0981c347089dc2",
      "assetIds": []
    },
    {
      "x": 302,
      "y": 250,
      "size": 1,
      "price": "1011000000000000000000",
      "reserved": "",
      "salt": "0xdef4050117155ae996781be960dd350607e67f207c8448465f39fc78b2095260",
      "assetIds": []
    },
    {
      "x": 302,
      "y": 251,
      "size": 1,
      "price": "1011000000000000000000",
      "reserved": "",
      "salt": "0x4b72e3a9c7e9dd5d77a6e657cdaeb48c0687f25d71ceb08ace05c7b6f677ae40",
      "assetIds": []
    },
    {
      "x": 302,
      "y": 264,
      "size": 1,
      "price": "1011000000000000000000",
      "reserved": "",
      "salt": "0xc48fd620d249ac108493bb418bdde5b98f8aa8e85ebf11ff88f4c78050e01393",
      "assetIds": []
    },
    {
      "x": 302,
      "y": 265,
      "size": 1,
      "price": "1011000000000000000000",
      "reserved": "",
      "salt": "0x1f995e8f00d8ba316637b358b0aa07fc59dcef249bad0cc0a252f3f0b88edc69",
      "assetIds": []
    },
    {
      "x": 302,
      "y": 266,
      "size": 1,
      "price": "1011000000000000000000",
      "reserved": "",
      "salt": "0x4530402a723039ca990fd67dda9c05b8aee4a85fda997a3f059370a4889b5d68",
      "assetIds": []
    },
    {
      "x": 302,
      "y": 267,
      "size": 1,
      "price": "1011000000000000000000",
      "reserved": "",
      "salt": "0xe7279336c610ff805425716cb36ecd863b81f25a1d7a40ba0630bc55b21264ef",
      "assetIds": []
    },
    {
      "x": 302,
      "y": 268,
      "size": 1,
      "price": "1011000000000000000000",
      "reserved": "",
      "salt": "0xd22b796d1546839a2c9104a85afe9f44cec5632bada184683f02f29b63ec1b32",
      "assetIds": []
    },
    {
      "x": 302,
      "y": 269,
      "size": 1,
      "price": "1011000000000000000000",
      "reserved": "",
      "salt": "0x0da35eebe93b6f77466d871d3fb288f262901fce086ce58b559b3fc541e0f344",
      "assetIds": []
    },
    {
      "x": 302,
      "y": 273,
      "size": 1,
      "price": "1011000000000000000000",
      "reserved": "",
      "salt": "0xd1dd24aeeba0bf918e180148af342da126f799f01d5faf0728ccaaa081f51bbf",
      "assetIds": []
    },
    {
      "x": 302,
      "y": 274,
      "size": 1,
      "price": "1011000000000000000000",
      "reserved": "",
      "salt": "0x308ee95fb4bacb85f1913e18b643ad7d0dc1d8019e8e1d4ad96c244e27779302",
      "assetIds": []
    },
    {
      "x": 302,
      "y": 275,
      "size": 1,
      "price": "1011000000000000000000",
      "reserved": "",
      "salt": "0x8b7576f573872c717e0d0d4666bd12765d49582524242ff2223a1e1549b75952",
      "assetIds": []
    },
    {
      "x": 302,
      "y": 276,
      "size": 1,
      "price": "1011000000000000000000",
      "reserved": "",
      "salt": "0x57f73318d294bd3ca48e2dca912e455d7f6acbbb7c9e3724393f0499d4aaf6db",
      "assetIds": []
    },
    {
      "x": 302,
      "y": 277,
      "size": 1,
      "price": "1011000000000000000000",
      "reserved": "",
      "salt": "0x5d0980f6b80a835884e538d128adcb169e496b67f600c02f31a90f498bc7a199",
      "assetIds": []
    },
    {
      "x": 302,
      "y": 278,
      "size": 1,
      "price": "1011000000000000000000",
      "reserved": "",
      "salt": "0xe3d0dc6676795f7ecf06ae034cc20d66c3879c8741826f5c01eb3a8793985380",
      "assetIds": []
    },
    {
      "x": 303,
      "y": 240,
      "size": 1,
      "price": "1011000000000000000000",
      "reserved": "",
      "salt": "0x552b07bf80fb0625687860b9de500b6c2a1675dc16c5b1a56f548f510191bd04",
      "assetIds": []
    },
    {
      "x": 303,
      "y": 241,
      "size": 1,
      "price": "1011000000000000000000",
      "reserved": "",
      "salt": "0xb4fb737498389a31dec7be3a7d6c7c836936b70f78c6ff9f119d587a0144f83b",
      "assetIds": []
    },
    {
      "x": 303,
      "y": 242,
      "size": 1,
      "price": "1011000000000000000000",
      "reserved": "",
      "salt": "0xa0dd2042aa593aba923b8693fff60581b1c2963284419c3e823379b852d0d5d0",
      "assetIds": []
    },
    {
      "x": 303,
      "y": 243,
      "size": 1,
      "price": "1011000000000000000000",
      "reserved": "",
      "salt": "0xa56831fb618d01191e3e1600e3593d217bc9769a3cd3234089a9d095969e1f02",
      "assetIds": []
    },
    {
      "x": 303,
      "y": 244,
      "size": 1,
      "price": "1011000000000000000000",
      "reserved": "",
      "salt": "0xc437186c3e4d3fd8accf968b96e2d9c857b029d6fa52b3bb4a04cbcb4277fa44",
      "assetIds": []
    },
    {
      "x": 303,
      "y": 245,
      "size": 1,
      "price": "4683000000000000000000",
      "reserved": "",
      "salt": "0xe9db64a722cba1b051ad05d48f1242cb417334e4976ff6c6d9663b1034ccfdb1",
      "assetIds": []
    },
    {
      "x": 303,
      "y": 249,
      "size": 1,
      "price": "4683000000000000000000",
      "reserved": "",
      "salt": "0xc15d12a48cd55e846dde3bee072f54ebadaabb0858e0b1ce1c916e2232cc6342",
      "assetIds": []
    },
    {
      "x": 303,
      "y": 250,
      "size": 1,
      "price": "1011000000000000000000",
      "reserved": "",
      "salt": "0x9e9f83bb13e883a67edd9fdadf5a21e5233bed0f359f9145e370ce6991461bfe",
      "assetIds": []
    },
    {
      "x": 303,
      "y": 251,
      "size": 1,
      "price": "1011000000000000000000",
      "reserved": "0x7a9fe22691c811ea339d9b73150e6911a5343dca",
      "salt": "0xc56268e985d5e2e7fe5f568a63f0b099adf49737beb32eb7c61faca73215dcd7",
      "assetIds": []
    },
    {
      "x": 303,
      "y": 267,
      "size": 1,
      "price": "1011000000000000000000",
      "reserved": "",
      "salt": "0xabb14cb4380cd8c15645d5abfc4331b36951e0788c5c3a8a433d9df67d339a34",
      "assetIds": []
    },
    {
      "x": 303,
      "y": 268,
      "size": 1,
      "price": "1011000000000000000000",
      "reserved": "",
      "salt": "0xa03e6205208185d0e69edadd12a74314b9ae624b4a5e5ac4b7bc8cb2b079bf79",
      "assetIds": []
    },
    {
      "x": 303,
      "y": 269,
      "size": 1,
      "price": "1011000000000000000000",
      "reserved": "",
      "salt": "0x740fc44aafd5049cca1e540db6452925ccece9e158c2b8b9f7cf644080cb2ed7",
      "assetIds": []
    },
    {
      "x": 303,
      "y": 270,
      "size": 1,
      "price": "1011000000000000000000",
      "reserved": "",
      "salt": "0x830b7282cb41d1380cc89930c94883309e22b6f3a09435a6aedeafe6474642af",
      "assetIds": []
    },
    {
      "x": 303,
      "y": 271,
      "size": 1,
      "price": "1011000000000000000000",
      "reserved": "",
      "salt": "0xb928f57e6b26885452b916814d3d79f41a9e6a4a7c4a67b4ec833b0741c4892e",
      "assetIds": []
    },
    {
      "x": 303,
      "y": 272,
      "size": 1,
      "price": "1011000000000000000000",
      "reserved": "",
      "salt": "0xbc44ec1c2f7edf813b4155e178ca0788610928a5697f20dcae845d8bd72ff409",
      "assetIds": []
    },
    {
      "x": 303,
      "y": 273,
      "size": 1,
      "price": "1011000000000000000000",
      "reserved": "",
      "salt": "0x7ed716b8aef360d38c6722b6a9a9503b190a47df1f9c7da9c097dc2c735b36d8",
      "assetIds": []
    },
    {
      "x": 303,
      "y": 274,
      "size": 1,
      "price": "1011000000000000000000",
      "reserved": "",
      "salt": "0xfabd8d2e8fb36b58ad39caec9f6d351aa0839e7e26b51853d55bfe74309ff57c",
      "assetIds": []
    },
    {
      "x": 303,
      "y": 275,
      "size": 1,
      "price": "1011000000000000000000",
      "reserved": "",
      "salt": "0x85dbd7013c7d16084cdc320d8ccdd2c877dc1a569e0dd1ce5c7b81a73f16ee0b",
      "assetIds": []
    },
    {
      "x": 304,
      "y": 240,
      "size": 1,
      "price": "1011000000000000000000",
      "reserved": "",
      "salt": "0x8a03f7ed8fd0382e81a40f4ab12496aaef784b6bad479224fea1377d8c70ae51",
      "assetIds": []
    },
    {
      "x": 304,
      "y": 241,
      "size": 1,
      "price": "1011000000000000000000",
      "reserved": "",
      "salt": "0xf9b590dc694d1d5114c2394fbb90297b7f01bc2343b39c10c53b2e69a3ac6118",
      "assetIds": []
    },
    {
      "x": 304,
      "y": 242,
      "size": 1,
      "price": "1011000000000000000000",
      "reserved": "",
      "salt": "0xe6cab25ba603fcf034681d871d33b0b61d9e8b6c2d519ea6658c890b18052be9",
      "assetIds": []
    },
    {
      "x": 304,
      "y": 243,
      "size": 1,
      "price": "1011000000000000000000",
      "reserved": "",
      "salt": "0x1b2de54ec8c98dc5a9a2f5d2d59156a21f942c17a25a8bd902482706a9b6bff1",
      "assetIds": []
    },
    {
      "x": 304,
      "y": 244,
      "size": 1,
      "price": "1011000000000000000000",
      "reserved": "",
      "salt": "0xff64c2999811de953a39aebc9a4d9d3973d6b9a4b3b775449c8332ffbfde9e7a",
      "assetIds": []
    },
    {
      "x": 304,
      "y": 245,
      "size": 1,
      "price": "4683000000000000000000",
      "reserved": "",
      "salt": "0x7206deeda89ddf04da1b0a12daeab0773f989d8a94c072a1b4c663d962f1bdee",
      "assetIds": []
    },
    {
      "x": 304,
      "y": 249,
      "size": 1,
      "price": "4683000000000000000000",
      "reserved": "",
      "salt": "0x61bfefde7126dc0f4d06a9822d0f30ac00ad8b965e18fe8eed55c677192803c8",
      "assetIds": []
    },
    {
      "x": 304,
      "y": 250,
      "size": 1,
      "price": "1011000000000000000000",
      "reserved": "",
      "salt": "0x6262011a1fb2cb0ecb13779a01be16c80d2b8b52627e62dfeb6b432d7bcce921",
      "assetIds": []
    },
    {
      "x": 304,
      "y": 251,
      "size": 1,
      "price": "1011000000000000000000",
      "reserved": "",
      "salt": "0xcff6c182fb5b2fc4f6f74b95abd2ba8067ce13bc140a4f3a9da7aea31ba6e54d",
      "assetIds": []
    },
    {
      "x": 304,
      "y": 267,
      "size": 1,
      "price": "1011000000000000000000",
      "reserved": "",
      "salt": "0xb80d4b1568aa9be6ee4a1d445500acf4ee8b81b85f84e281e556bccddb15636e",
      "assetIds": []
    },
    {
      "x": 304,
      "y": 268,
      "size": 1,
      "price": "1011000000000000000000",
      "reserved": "",
      "salt": "0xd82a3b691eb96aa0317d45114c71d9e7daa5735ce92e896e66e6b7c46fc2648c",
      "assetIds": []
    },
    {
      "x": 304,
      "y": 269,
      "size": 1,
      "price": "1011000000000000000000",
      "reserved": "",
      "salt": "0xd4dd4bddb4ce5be28e52811aa2b97896e066d2e585ef3f3464efaef31fd99c0c",
      "assetIds": []
    },
    {
      "x": 304,
      "y": 270,
      "size": 1,
      "price": "1011000000000000000000",
      "reserved": "",
      "salt": "0x27696a95b6853b27edebf9d79e84b5765a5bc2322723d7ed272edac421a181ac",
      "assetIds": []
    },
    {
      "x": 304,
      "y": 271,
      "size": 1,
      "price": "1011000000000000000000",
      "reserved": "",
      "salt": "0x5e5464627b6df18f44d8276a155c72385121cf364b7ada62131d779f47611652",
      "assetIds": []
    },
    {
      "x": 304,
      "y": 272,
      "size": 1,
      "price": "1011000000000000000000",
      "reserved": "",
      "salt": "0x9093c0a199fb4027d3da261c61be6e25253e1d911df7a632a280babd1fa570af",
      "assetIds": []
    },
    {
      "x": 304,
      "y": 273,
      "size": 1,
      "price": "1011000000000000000000",
      "reserved": "",
      "salt": "0x80797d1fa64c55749f4d4969735b06bb85bb7262b8d5427ff4e0b4a818db4dca",
      "assetIds": []
    },
    {
      "x": 304,
      "y": 274,
      "size": 1,
      "price": "1011000000000000000000",
      "reserved": "",
      "salt": "0x267aa38ca700779c87a56033a17a10696b408496972721509022dbf27664aa47",
      "assetIds": []
    },
    {
      "x": 304,
      "y": 275,
      "size": 1,
      "price": "1011000000000000000000",
      "reserved": "",
      "salt": "0x072f4b52ca908f7e2b6f02e98db1b78c9396a175c88c233a64c1ab27d6e73a27",
      "assetIds": []
    },
    {
      "x": 305,
      "y": 240,
      "size": 1,
      "price": "1011000000000000000000",
      "reserved": "",
      "salt": "0x9924b8dc91aab2c6b3bd68ec323596a4a485e435acda664c636cacbef3c10bf4",
      "assetIds": []
    },
    {
      "x": 305,
      "y": 241,
      "size": 1,
      "price": "1011000000000000000000",
      "reserved": "",
      "salt": "0x9fb5d365be7a4cf90567a3ffce9a39362f83d7a85230362df4067994b4213343",
      "assetIds": []
    },
    {
      "x": 305,
      "y": 242,
      "size": 1,
      "price": "1011000000000000000000",
      "reserved": "",
      "salt": "0x011834603596b5212b93b1995bd265af59637e72308dd47d0280233e08e8b969",
      "assetIds": []
    },
    {
      "x": 305,
      "y": 243,
      "size": 1,
      "price": "1011000000000000000000",
      "reserved": "",
      "salt": "0x3c04f150d801e4c069c8521e2a49e5482c8e3b2dd21c876b56f522195ad9b63b",
      "assetIds": []
    },
    {
      "x": 305,
      "y": 244,
      "size": 1,
      "price": "1011000000000000000000",
      "reserved": "",
      "salt": "0x491bf4f9dcf244286cb8d857d70a33ef9607aaf315fc486d80e0066825219d71",
      "assetIds": []
    },
    {
      "x": 305,
      "y": 245,
      "size": 1,
      "price": "4683000000000000000000",
      "reserved": "",
      "salt": "0x26e655a5d59a5536b4cd0dfe84f435360f69a485d3240386f366417d10976d6b",
      "assetIds": []
    },
    {
      "x": 305,
      "y": 249,
      "size": 1,
      "price": "4683000000000000000000",
      "reserved": "",
      "salt": "0x741f4648b4ad13fe845b9e432ae7ecf8dfdc2070083c27da9f16cb8b8679e1b0",
      "assetIds": []
    },
    {
      "x": 305,
      "y": 250,
      "size": 1,
      "price": "1011000000000000000000",
      "reserved": "",
      "salt": "0x4009c2f4f4b795d3ad1f89d4ec668e2a323d1198c4a742f457668382da355555",
      "assetIds": []
    },
    {
      "x": 305,
      "y": 251,
      "size": 1,
      "price": "1011000000000000000000",
      "reserved": "",
      "salt": "0x4f98e8c19241c7a14686febf6a1b17b272611bab82bbd78a4c8d80b3d2702bb0",
      "assetIds": []
    },
    {
      "x": 305,
      "y": 267,
      "size": 1,
      "price": "1011000000000000000000",
      "reserved": "",
      "salt": "0x612d4065cd53c49ef7a6be513a8287d05f1f74928b499afb0513b7241d951c9f",
      "assetIds": []
    },
    {
      "x": 305,
      "y": 268,
      "size": 1,
      "price": "1011000000000000000000",
      "reserved": "",
      "salt": "0x2f2a368c6a6b8d0eb826965bcb9afefd019b6a95fa519fa401362c8ba978a6d0",
      "assetIds": []
    },
    {
      "x": 305,
      "y": 269,
      "size": 1,
      "price": "1011000000000000000000",
      "reserved": "",
      "salt": "0x3d75906559182bc117c84d9b6352bde36837372f0a333978bb7fc19399b2e711",
      "assetIds": []
    },
    {
      "x": 305,
      "y": 270,
      "size": 1,
      "price": "1011000000000000000000",
      "reserved": "",
      "salt": "0x4bd5466ce98f7f4c16df6436b226806540e68cb7fc79d5342c46b94e458d7009",
      "assetIds": []
    },
    {
      "x": 305,
      "y": 271,
      "size": 1,
      "price": "1011000000000000000000",
      "reserved": "",
      "salt": "0x9ff6a02e1212435215bd6c72b35943f08ab0bf997936368d44d2a1b61b3ba02e",
      "assetIds": []
    },
    {
      "x": 305,
      "y": 272,
      "size": 1,
      "price": "1011000000000000000000",
      "reserved": "",
      "salt": "0x577d4163c8d47fc864a59efb809e75a8b6c69b5549f76dbece0ecb741f798853",
      "assetIds": []
    },
    {
      "x": 305,
      "y": 273,
      "size": 1,
      "price": "1011000000000000000000",
      "reserved": "",
      "salt": "0xada12c7b1dfd0bc61a4249ebea91dad33109e0ca6b2e66ace2008a8b95bfd8cd",
      "assetIds": []
    },
    {
      "x": 305,
      "y": 274,
      "size": 1,
      "price": "1011000000000000000000",
      "reserved": "",
      "salt": "0x1dc4eab770ee4f0b3cde8e5c9ffecd2ac0879e6c12e83564727713c95dd92fec",
      "assetIds": []
    },
    {
      "x": 305,
      "y": 275,
      "size": 1,
      "price": "1011000000000000000000",
      "reserved": "",
      "salt": "0xbcc892f7b902fe8a6f90f9d2ebee1a16e90fe9a8c7a08e7cd7496ee0b92e7ecd",
      "assetIds": []
    },
    {
      "x": 306,
      "y": 237,
      "size": 1,
      "price": "1011000000000000000000",
      "reserved": "",
      "salt": "0xe6ce68cd4ec160f342bee67e12afba70a7aecc5b2af182a1d77070511ed8bc66",
      "assetIds": []
    },
    {
      "x": 306,
      "y": 238,
      "size": 1,
      "price": "1011000000000000000000",
      "reserved": "",
      "salt": "0x0b84b110af7f57d6169d0253caca9f1dbb24489895aa31d3969661827d01ad8e",
      "assetIds": []
    },
    {
      "x": 306,
      "y": 239,
      "size": 1,
      "price": "1011000000000000000000",
      "reserved": "",
      "salt": "0x1af97e72f1e985882d99b8b347441271c1f785946b0d4b5d8b893af1b9c70473",
      "assetIds": []
    },
    {
      "x": 306,
      "y": 240,
      "size": 1,
      "price": "1011000000000000000000",
      "reserved": "",
      "salt": "0x7061c1426c2f70e943a55357a6553ef3f88dba023dddd9ba2f07289dbccf60bf",
      "assetIds": []
    },
    {
      "x": 306,
      "y": 241,
      "size": 1,
      "price": "1011000000000000000000",
      "reserved": "",
      "salt": "0xd6407f27c0e4defa5d1bdcacd9df46058102a7277b0af85b2deb42b2cd6164fb",
      "assetIds": []
    },
    {
      "x": 306,
      "y": 242,
      "size": 1,
      "price": "1011000000000000000000",
      "reserved": "",
      "salt": "0xe3c43bfdf022232f65c888f2ca91eb4276c2bf00db2c7b0108a370506a37ccb9",
      "assetIds": []
    },
    {
      "x": 306,
      "y": 246,
      "size": 1,
      "price": "4683000000000000000000",
      "reserved": "",
      "salt": "0x0b9cd533dcaa0fe5fb74af931a3f40dc4c7d2473c0c8374518776ad6c9a42ce9",
      "assetIds": []
    },
    {
      "x": 306,
      "y": 247,
      "size": 1,
      "price": "1011000000000000000000",
      "reserved": "0x7a9fe22691c811ea339d9b73150e6911a5343dca",
      "salt": "0xfeb608e53ce2ae8c8b80c1cb2a45a82187242398996b02fac8d55067e4a2939b",
      "assetIds": []
    },
    {
      "x": 306,
      "y": 248,
      "size": 1,
      "price": "4683000000000000000000",
      "reserved": "",
      "salt": "0xb4c0f29f7c3a0bb4c87f5351738ae52c0c84f17e1e5c2528f2891c784c9f3822",
      "assetIds": []
    },
    {
      "x": 306,
      "y": 249,
      "size": 1,
      "price": "1011000000000000000000",
      "reserved": "0x7a9fe22691c811ea339d9b73150e6911a5343dca",
      "salt": "0xe80fceab596fd18cf1d14781ebd0de3de79eec776e01c7833947193e24aa6ae8",
      "assetIds": []
    },
    {
      "x": 306,
      "y": 250,
      "size": 1,
      "price": "1011000000000000000000",
      "reserved": "",
      "salt": "0x3d81d70422c6dbc729957a508fc7e79e24fad0756b2ae168d2e0cdffd1e64d89",
      "assetIds": []
    },
    {
      "x": 306,
      "y": 251,
      "size": 1,
      "price": "1011000000000000000000",
      "reserved": "",
      "salt": "0xe8d2be47d72f6231598e961c7eaf8e224d1f1bcf3f4adc3b9ca88ac037e237d3",
      "assetIds": []
    },
    {
      "x": 306,
      "y": 264,
      "size": 1,
      "price": "1011000000000000000000",
      "reserved": "",
      "salt": "0xe73e7547bfe9d01409d809b8267dd614bba15f96178740b99370d99948a4a245",
      "assetIds": []
    },
    {
      "x": 306,
      "y": 265,
      "size": 1,
      "price": "1011000000000000000000",
      "reserved": "",
      "salt": "0x5b4b683b38f308fde48b669a9cefd2a1e8dfcff3c525dda0d3b3c42f3f062e7a",
      "assetIds": []
    },
    {
      "x": 306,
      "y": 266,
      "size": 1,
      "price": "1011000000000000000000",
      "reserved": "",
      "salt": "0x6ee682dcaa2892a61b929e6a5b83b76b1ac5d97f8e9e4c9e5cfebedcdf59e4cd",
      "assetIds": []
    },
    {
      "x": 306,
      "y": 267,
      "size": 1,
      "price": "1011000000000000000000",
      "reserved": "",
      "salt": "0xa6f8c907f041a13ce93bb54d7aa5af490007d8f52aef4abd8e31a25929b5ab2d",
      "assetIds": []
    },
    {
      "x": 306,
      "y": 268,
      "size": 1,
      "price": "1011000000000000000000",
      "reserved": "",
      "salt": "0xc18428a345235a74eb5a9ce62ac3eed351f2e0053d0854cae8750068f71a2069",
      "assetIds": []
    },
    {
      "x": 306,
      "y": 269,
      "size": 1,
      "price": "1011000000000000000000",
      "reserved": "",
      "salt": "0x2cd02990e5f719e19f77ea9e7b4e16a3e3972fe32bd24dc81484dff2ec55683c",
      "assetIds": []
    },
    {
      "x": 306,
      "y": 273,
      "size": 1,
      "price": "1011000000000000000000",
      "reserved": "",
      "salt": "0x0b25a0ed8e424238d04a2a1d1c5de8f6b7258453db1c3cc89580cf7094406c01",
      "assetIds": []
    },
    {
      "x": 306,
      "y": 274,
      "size": 1,
      "price": "1011000000000000000000",
      "reserved": "",
      "salt": "0x3538bb5c2ce6597c1f409db2898eea1cc768c1531b17a03798992920c37ba77d",
      "assetIds": []
    },
    {
      "x": 306,
      "y": 275,
      "size": 1,
      "price": "1011000000000000000000",
      "reserved": "",
      "salt": "0x7c704e1fcaff6dcf0dcfdac7fcb0988f65ed6b3979a64a1eddb6b83397add71d",
      "assetIds": []
    },
    {
      "x": 307,
      "y": 237,
      "size": 1,
      "price": "1011000000000000000000",
      "reserved": "",
      "salt": "0xee8492351d389393d8452f200211bb983dae600be0d4a0dccc598aa10c1d4dde",
      "assetIds": []
    },
    {
      "x": 307,
      "y": 238,
      "size": 1,
      "price": "1011000000000000000000",
      "reserved": "",
      "salt": "0xde9e3406c297cdec314d154c2b780b415ea7cacae597a4848955ea79c9325e41",
      "assetIds": []
    },
    {
      "x": 307,
      "y": 239,
      "size": 1,
      "price": "1011000000000000000000",
      "reserved": "",
      "salt": "0xf79fa448238d27251bbd731bbed8e05a130a9fac5aa1a728427625ec1170f51a",
      "assetIds": []
    },
    {
      "x": 307,
      "y": 240,
      "size": 1,
      "price": "1011000000000000000000",
      "reserved": "",
      "salt": "0xd793681b9fd8b0a4a750bfedc90d5fd92be01def205adddfb71b2e0e1ee9d73f",
      "assetIds": []
    },
    {
      "x": 307,
      "y": 241,
      "size": 1,
      "price": "1011000000000000000000",
      "reserved": "",
      "salt": "0x2eecd20bd9fe2d62c3699d32b3f0972b9ffd6abd63f60efe63f14af18e75a582",
      "assetIds": []
    },
    {
      "x": 307,
      "y": 242,
      "size": 1,
      "price": "1011000000000000000000",
      "reserved": "",
      "salt": "0x42370badad6b79eb2d2bc3d862d1f6c357db1156a5c5d3fc13ec6a93c73f0613",
      "assetIds": []
    },
    {
      "x": 307,
      "y": 246,
      "size": 1,
      "price": "1011000000000000000000",
      "reserved": "",
      "salt": "0xe047f7822c7e5e262fd8fccb6694e068453008dec8ac7315121d381bc5981e6c",
      "assetIds": []
    },
    {
      "x": 307,
      "y": 247,
      "size": 1,
      "price": "1011000000000000000000",
      "reserved": "",
      "salt": "0x3148599f07eddd58b145f1a94be6f5fb001014269c97e250c41a8b131a2f7d9d",
      "assetIds": []
    },
    {
      "x": 307,
      "y": 248,
      "size": 1,
      "price": "1011000000000000000000",
      "reserved": "",
      "salt": "0x80cbf429030a387699d89300a6d9b85c31b43229fd6bc458284ab57f36fd3051",
      "assetIds": []
    },
    {
      "x": 307,
      "y": 249,
      "size": 1,
      "price": "1011000000000000000000",
      "reserved": "",
      "salt": "0x42a5d995699e1ad28991a26a826c5f25351de7ad53e64edaf34ee884e7f19fe1",
      "assetIds": []
    },
    {
      "x": 307,
      "y": 250,
      "size": 1,
      "price": "1011000000000000000000",
      "reserved": "",
      "salt": "0x3d27530b33987879cbd5d57d2b40381b68d021722a71a2426a77bdf548ec0991",
      "assetIds": []
    },
    {
      "x": 307,
      "y": 251,
      "size": 1,
      "price": "1011000000000000000000",
      "reserved": "",
      "salt": "0xb04bf1a8690af2fe0c3d11f80f72906c0b5be87f18a610058594676ca76c0788",
      "assetIds": []
    },
    {
      "x": 307,
      "y": 264,
      "size": 1,
      "price": "1011000000000000000000",
      "reserved": "",
      "salt": "0x23e10232e96bd174215b7e436359691edb81f48fa3b4e1623e5e7db79d4aea4d",
      "assetIds": []
    },
    {
      "x": 307,
      "y": 265,
      "size": 1,
      "price": "1011000000000000000000",
      "reserved": "",
      "salt": "0xaba211214dfe8d5ebb6e28f5b566ab29f05a434fd0e632031c69e1c9376d07cc",
      "assetIds": []
    },
    {
      "x": 307,
      "y": 266,
      "size": 1,
      "price": "1011000000000000000000",
      "reserved": "",
      "salt": "0x64cf11eb292479d3fc4ab3874b769c130d605912dc356f643eb8b062c715c2f2",
      "assetIds": []
    },
    {
      "x": 307,
      "y": 267,
      "size": 1,
      "price": "1011000000000000000000",
      "reserved": "",
      "salt": "0x3e2079161138ea1bc696323bd3f2263f66fa91ada25714b4729214f441ed12c4",
      "assetIds": []
    },
    {
      "x": 307,
      "y": 268,
      "size": 1,
      "price": "1011000000000000000000",
      "reserved": "",
      "salt": "0x3b8f802609c8c04eb0cd7d4185bb38fb2019ad7a1e222b2dfad01c5189265102",
      "assetIds": []
    },
    {
      "x": 307,
      "y": 269,
      "size": 1,
      "price": "1011000000000000000000",
      "reserved": "",
      "salt": "0xb3607d681f17f7f049f3523bc8042faaf226c6185020362f6261b8c9c1acbad1",
      "assetIds": []
    },
    {
      "x": 307,
      "y": 273,
      "size": 1,
      "price": "1011000000000000000000",
      "reserved": "",
      "salt": "0x7fe0e36d71be803bb81252d34bfc7f77ebf003644805b496e6114ebdacef1003",
      "assetIds": []
    },
    {
      "x": 307,
      "y": 274,
      "size": 1,
      "price": "1011000000000000000000",
      "reserved": "",
      "salt": "0x3d56b43f6067a32e70770d085582e81ee89e738c3d6f6e6c42c4440619b1c3c6",
      "assetIds": []
    },
    {
      "x": 307,
      "y": 275,
      "size": 1,
      "price": "1011000000000000000000",
      "reserved": "",
      "salt": "0x29c7a466b87a6b802beaa89695450d21f59bd1e44f92c9cc96067e4addfa4afb",
      "assetIds": []
    },
    {
      "x": 308,
      "y": 237,
      "size": 1,
      "price": "1011000000000000000000",
      "reserved": "",
      "salt": "0xfb2a038e34ef83a43001e7d1588c7d19c3e085212d3b7adae60378ea6b008151",
      "assetIds": []
    },
    {
      "x": 308,
      "y": 238,
      "size": 1,
      "price": "1011000000000000000000",
      "reserved": "",
      "salt": "0xa9ee64caff0f4d199e6e449c113f43fce6e977bd65d40c988a5f1f950e31b36f",
      "assetIds": []
    },
    {
      "x": 308,
      "y": 239,
      "size": 1,
      "price": "1011000000000000000000",
      "reserved": "0x7a9fe22691c811ea339d9b73150e6911a5343dca",
      "salt": "0x1e18615dcc7cf73eea74de34e2368cf12e89587086ff0911a08baddaa1e5e4f4",
      "assetIds": []
    },
    {
      "x": 308,
      "y": 240,
      "size": 1,
      "price": "4683000000000000000000",
      "reserved": "",
      "salt": "0x8a9b286768d507bdb19a8b2de20289d4cb22abb55e57247860220fdb4b4ca0e8",
      "assetIds": []
    },
    {
      "x": 308,
      "y": 241,
      "size": 1,
      "price": "1011000000000000000000",
      "reserved": "",
      "salt": "0x6d028b880d34baaeb8afe4e40354126f436871984233a69f8ce236239c439bef",
      "assetIds": []
    },
    {
      "x": 308,
      "y": 242,
      "size": 1,
      "price": "4683000000000000000000",
      "reserved": "",
      "salt": "0xa151057b6462c3658ab4c3d6ac02e354f4a2ea414536808799b0769a9cb3a410",
      "assetIds": []
    },
    {
      "x": 308,
      "y": 246,
      "size": 1,
      "price": "4683000000000000000000",
      "reserved": "",
      "salt": "0x55a9655898d8ffaa54d61a680bbe9845760430c98c3691d92ac0c80bd966be36",
      "assetIds": []
    },
    {
      "x": 308,
      "y": 247,
      "size": 1,
      "price": "1011000000000000000000",
      "reserved": "",
      "salt": "0x5abf2af4cd7059bd80c30d04cc4dfd36cc543d1749a558cbe508e7a0e7d1d7a4",
      "assetIds": []
    },
    {
      "x": 308,
      "y": 248,
      "size": 1,
      "price": "4683000000000000000000",
      "reserved": "",
      "salt": "0xa21c239aae1420d4b621d7f6728acfc228cc1b94f5979a99f7649c78bddcd61a",
      "assetIds": []
    },
    {
      "x": 308,
      "y": 249,
      "size": 1,
      "price": "1011000000000000000000",
      "reserved": "0x7a9fe22691c811ea339d9b73150e6911a5343dca",
      "salt": "0xeaeab4ac270108176c0534b18e6f485044436738014c5a7569eadf5db9b9d9d9",
      "assetIds": []
    },
    {
      "x": 308,
      "y": 250,
      "size": 1,
      "price": "1011000000000000000000",
      "reserved": "",
      "salt": "0x91830d9151c664ab143659fd21e54dcd915e1ba67dfe8bdc43cfb90ceb1d2b27",
      "assetIds": []
    },
    {
      "x": 308,
      "y": 251,
      "size": 1,
      "price": "1011000000000000000000",
      "reserved": "",
      "salt": "0x363b8320092cac8d00f8e310aca039f3c15be629550d3ed3cd1d8fed032ba739",
      "assetIds": []
    },
    {
      "x": 308,
      "y": 264,
      "size": 1,
      "price": "1011000000000000000000",
      "reserved": "",
      "salt": "0x37eef9b39e0a69646a5969926241ec1e5b5438005ec2ff5d1d22995d0d79da90",
      "assetIds": []
    },
    {
      "x": 308,
      "y": 265,
      "size": 1,
      "price": "1011000000000000000000",
      "reserved": "",
      "salt": "0x3a7745f5bbc71008d861d1f3e7ca647d835e9d7e390f8b29434ea8fe683a22bc",
      "assetIds": []
    },
    {
      "x": 308,
      "y": 266,
      "size": 1,
      "price": "1011000000000000000000",
      "reserved": "",
      "salt": "0xc3a6731ea6e8462af4221042898a4f0a0abedccf1d9a79aa1f605f797cac5604",
      "assetIds": []
    },
    {
      "x": 308,
      "y": 267,
      "size": 1,
      "price": "1011000000000000000000",
      "reserved": "",
      "salt": "0xd797f10d669448657a42586bd0f4da7f0496431975afa0538a2b2d08003b7f81",
      "assetIds": []
    },
    {
      "x": 308,
      "y": 268,
      "size": 1,
      "price": "1011000000000000000000",
      "reserved": "",
      "salt": "0x7623b758298366528a8f08f79eb45b78b88800743ee5ec6cb1152194e062d536",
      "assetIds": []
    },
    {
      "x": 308,
      "y": 269,
      "size": 1,
      "price": "1011000000000000000000",
      "reserved": "0x7a9fe22691c811ea339d9b73150e6911a5343dca",
      "salt": "0x4457fcf7375a4a959fa0d773b8bed9d9b6fd8353bad3b8bf3ae6f0a6ef5051c8",
      "assetIds": []
    },
    {
      "x": 308,
      "y": 273,
      "size": 1,
      "price": "1011000000000000000000",
      "reserved": "0x7a9fe22691c811ea339d9b73150e6911a5343dca",
      "salt": "0xd52d9f8b23d469ea3ac5edfd511b637cf9795639fe8067b6c7a11e1a847b1550",
      "assetIds": []
    },
    {
      "x": 308,
      "y": 274,
      "size": 1,
      "price": "1011000000000000000000",
      "reserved": "",
      "salt": "0x2e816b043b5f7f0dc46b05bf8698dadb761542982176f9d420dc775d017365fe",
      "assetIds": []
    },
    {
      "x": 308,
      "y": 275,
      "size": 1,
      "price": "1011000000000000000000",
      "reserved": "",
      "salt": "0x753b9ce3ab52154778f120899a3a906d3a1cb2abcee4e92195b4c72cc3a9d0b1",
      "assetIds": []
    },
    {
      "x": 309,
      "y": 237,
      "size": 1,
      "price": "1011000000000000000000",
      "reserved": "",
      "salt": "0xc293ea08470c143dfc86275b817bb38cfc2bd36a78bceda137dbc6c3bc2fc580",
      "assetIds": []
    },
    {
      "x": 309,
      "y": 238,
      "size": 1,
      "price": "1011000000000000000000",
      "reserved": "",
      "salt": "0x07641a8016bfbc44cb21b8df083039caee3f39aae8d7b2904f92b7063ab2d3af",
      "assetIds": []
    },
    {
      "x": 309,
      "y": 239,
      "size": 1,
      "price": "4683000000000000000000",
      "reserved": "",
      "salt": "0x1a56a09bd2a1d7226701f7ae2ec1bbe1d25c328de2c6dcc721fe45b3eec66d7a",
      "assetIds": []
    },
    {
      "x": 309,
      "y": 243,
      "size": 1,
      "price": "4683000000000000000000",
      "reserved": "",
      "salt": "0x07b09e0b10f2c0072e81770b3c60ef5e98bb701229575964456053c836a867f0",
      "assetIds": []
    },
    {
      "x": 309,
      "y": 244,
      "size": 1,
      "price": "1011000000000000000000",
      "reserved": "",
      "salt": "0x5e19679fbe58166de329b6b493e58f2d1f002f2a30dc6288568d8bd285dabc17",
      "assetIds": []
    },
    {
      "x": 309,
      "y": 245,
      "size": 1,
      "price": "4683000000000000000000",
      "reserved": "",
      "salt": "0x82421521d4637567d888cfdb9695ccb72d106a73722e9a06138e97fc4b91055c",
      "assetIds": []
    },
    {
      "x": 309,
      "y": 249,
      "size": 1,
      "price": "4683000000000000000000",
      "reserved": "",
      "salt": "0xba71eaf5b6085392f7c69e19251bf0dee6b8acde99e7fa90955b03a26645f70e",
      "assetIds": []
    },
    {
      "x": 309,
      "y": 250,
      "size": 1,
      "price": "1011000000000000000000",
      "reserved": "",
      "salt": "0xb59e69a6073746da6ed6bfbb6bad04fe805f2849f5d5729a944b31a2e43f2e3c",
      "assetIds": []
    },
    {
      "x": 309,
      "y": 251,
      "size": 1,
      "price": "1011000000000000000000",
      "reserved": "0x7a9fe22691c811ea339d9b73150e6911a5343dca",
      "salt": "0x16951c2fd1a9bf1231a6faae248eadd8066ffe7fff8c6077556c4c5fe797dd94",
      "assetIds": []
    },
    {
      "x": 309,
      "y": 264,
      "size": 1,
      "price": "1011000000000000000000",
      "reserved": "",
      "salt": "0x9c74287c26860969358a296f7752c5513e9514ed5ec8ce7140a1f998626cf387",
      "assetIds": []
    },
    {
      "x": 309,
      "y": 265,
      "size": 1,
      "price": "1011000000000000000000",
      "reserved": "",
      "salt": "0xe28fcf2edd15f11fd6b590bf8fb5de8340518de5f473fb843e50504eaecf2ba8",
      "assetIds": []
    },
    {
      "x": 309,
      "y": 266,
      "size": 1,
      "price": "1011000000000000000000",
      "reserved": "",
      "salt": "0x5032a3842cea19ae3810ffd6943cd4b3b411765b3a3ce697972e72e8235e4f38",
      "assetIds": []
    },
    {
      "x": 309,
      "y": 270,
      "size": 1,
      "price": "1011000000000000000000",
      "reserved": "",
      "salt": "0x646cdb11c32103326909428d4e196eb2fd5a0eb5a53408ee834d6985b8ecfeea",
      "assetIds": []
    },
    {
      "x": 309,
      "y": 271,
      "size": 1,
      "price": "1011000000000000000000",
      "reserved": "",
      "salt": "0xc8e3c98d13611bcdacf1ede0e19c5433ec2c4e1c615808e775c58d8040e4db6f",
      "assetIds": []
    },
    {
      "x": 309,
      "y": 272,
      "size": 1,
      "price": "1011000000000000000000",
      "reserved": "0x7a9fe22691c811ea339d9b73150e6911a5343dca",
      "salt": "0xc716ccbae4bbd82bac59e106062c1e43304ef4fa524e1bb9072836c8c9d1a1f0",
      "assetIds": []
    },
    {
      "x": 310,
      "y": 237,
      "size": 1,
      "price": "1011000000000000000000",
      "reserved": "",
      "salt": "0x8284088f268f22fc5c5810991757cf2ceec3355c691f2d37ad23997af2d1aef7",
      "assetIds": []
    },
    {
      "x": 310,
      "y": 238,
      "size": 1,
      "price": "1011000000000000000000",
      "reserved": "",
      "salt": "0x9e749e3d28340d4d7fafedbec860fd118f9f33dff57f00dba8bec61fa2150443",
      "assetIds": []
    },
    {
      "x": 310,
      "y": 239,
      "size": 1,
      "price": "4683000000000000000000",
      "reserved": "",
      "salt": "0x3bbede4b993899312c41a66f415e0ed5b4af29f370e094ac6fc652cefa97c94e",
      "assetIds": []
    },
    {
      "x": 310,
      "y": 243,
      "size": 1,
      "price": "4683000000000000000000",
      "reserved": "",
      "salt": "0x05771b2d06fdd00e2977807e824d557081513e07bef615668f7fe25082484c13",
      "assetIds": []
    },
    {
      "x": 310,
      "y": 244,
      "size": 1,
      "price": "1011000000000000000000",
      "reserved": "",
      "salt": "0x2d0cfc9c766672e534bbdf4b851044cc50d256ad5ff51f1f14ab92adc25181bf",
      "assetIds": []
    },
    {
      "x": 310,
      "y": 245,
      "size": 1,
      "price": "4683000000000000000000",
      "reserved": "",
      "salt": "0xa2d790251a7855c4c5ea781101364d4c0ebc0c681ceb26cf8cfb346215e3e92f",
      "assetIds": []
    },
    {
      "x": 310,
      "y": 249,
      "size": 1,
      "price": "4683000000000000000000",
      "reserved": "",
      "salt": "0x8917e6aaea4dfb76c840a2aaf370e64844cde8186c7118b0c5faa8a1c996beaf",
      "assetIds": []
    },
    {
      "x": 310,
      "y": 250,
      "size": 1,
      "price": "1011000000000000000000",
      "reserved": "",
      "salt": "0xa1cd315e973d85f1fbcb8baead4063567a96baabdb2519a7ecc9f59abbf61585",
      "assetIds": []
    },
    {
      "x": 310,
      "y": 251,
      "size": 1,
      "price": "1011000000000000000000",
      "reserved": "",
      "salt": "0x2f87a0b30d328436c6eff8599d1bd96d9db631b602f2418d5b3fa94f39f2880d",
      "assetIds": []
    },
    {
      "x": 310,
      "y": 264,
      "size": 1,
      "price": "1011000000000000000000",
      "reserved": "",
      "salt": "0x3978506618b96f787966e00b5854567bf57c7a021aab76b8cd389c6b1bc1eea0",
      "assetIds": []
    },
    {
      "x": 310,
      "y": 265,
      "size": 1,
      "price": "1011000000000000000000",
      "reserved": "",
      "salt": "0xe692ef247cd796c492478994dc561d535bd4a75c72bb787ea9270b0ea61bf4b0",
      "assetIds": []
    },
    {
      "x": 310,
      "y": 266,
      "size": 1,
      "price": "1011000000000000000000",
      "reserved": "",
      "salt": "0x4d5f96b151c24b5bc04d30bac72bbe3cddc1423384d0b608d7f81b8348568bec",
      "assetIds": []
    },
    {
      "x": 310,
      "y": 270,
      "size": 1,
      "price": "1011000000000000000000",
      "reserved": "",
      "salt": "0x5a582cfc904117472de4658302387bfc380b209f75644833032ce1bba940258d",
      "assetIds": []
    },
    {
      "x": 310,
      "y": 271,
      "size": 1,
      "price": "1011000000000000000000",
      "reserved": "",
      "salt": "0x288f9788b4179fdb9d9914515f9d9541fc3ef94109d06fb2b7075e1a761550ac",
      "assetIds": []
    },
    {
      "x": 310,
      "y": 272,
      "size": 1,
      "price": "1011000000000000000000",
      "reserved": "",
      "salt": "0x90fb74f4d8f5144b9aa5358e6e131061c1bbabaf8a5adb2c57a40f00805624de",
      "assetIds": []
    },
    {
      "x": 311,
      "y": 237,
      "size": 1,
      "price": "1011000000000000000000",
      "reserved": "",
      "salt": "0xdbd59dda3da08bb108928ba2eae4d18ce72016b9f4e603d5077acc056415af92",
      "assetIds": []
    },
    {
      "x": 311,
      "y": 238,
      "size": 1,
      "price": "1011000000000000000000",
      "reserved": "",
      "salt": "0xde10607f5d3873971f254e89dc58667e018bbd9ac95c793a530748d1a9031216",
      "assetIds": []
    },
    {
      "x": 311,
      "y": 239,
      "size": 1,
      "price": "4683000000000000000000",
      "reserved": "",
      "salt": "0xffad7246c377030dbacc08da488da4cf07b4e982bce29f9e992a5201d5bbf57a",
      "assetIds": []
    },
    {
      "x": 311,
      "y": 243,
      "size": 1,
      "price": "4683000000000000000000",
      "reserved": "",
      "salt": "0xdb12d99bccd5952915cb358b042594f32264124fcea045f35f9f66847f667121",
      "assetIds": []
    },
    {
      "x": 311,
      "y": 244,
      "size": 1,
      "price": "1011000000000000000000",
      "reserved": "",
      "salt": "0x2a24aa91dd029d40315854514391f9a3c8e71d46d0053de66714fcfdc09dcb89",
      "assetIds": []
    },
    {
      "x": 311,
      "y": 245,
      "size": 1,
      "price": "4683000000000000000000",
      "reserved": "",
      "salt": "0x6b5ba8ebe2be5352e60439a6cb2d4458223c9be3f5d959f07aaac7adbd097183",
      "assetIds": []
    },
    {
      "x": 311,
      "y": 249,
      "size": 1,
      "price": "4683000000000000000000",
      "reserved": "",
      "salt": "0x82257af4af3372b2910bfc851a1b5909f073c8dc84c008589bb6dcb09dcaef60",
      "assetIds": []
    },
    {
      "x": 311,
      "y": 250,
      "size": 1,
      "price": "1011000000000000000000",
      "reserved": "",
      "salt": "0x5305b2213cd4a3a7b4df58410591e38b99052a4f612ee26dac1783a6a1c049e0",
      "assetIds": []
    },
    {
      "x": 311,
      "y": 251,
      "size": 1,
      "price": "1011000000000000000000",
      "reserved": "",
      "salt": "0x2bcf2bad825fd2fd5808014f77ec756955e8a0654cc51bdb9cf86bdef96fd8d9",
      "assetIds": []
    },
    {
      "x": 311,
      "y": 264,
      "size": 1,
      "price": "1011000000000000000000",
      "reserved": "",
      "salt": "0x3cfca3fd9918ab1c8607caca2268a0336b699cd2d6af0ec035a04bf2262a6784",
      "assetIds": []
    },
    {
      "x": 311,
      "y": 265,
      "size": 1,
      "price": "1011000000000000000000",
      "reserved": "",
      "salt": "0xd3dd29b1465e2999d51c84e90951868a2f793faeb485fe408f34c6ed0abca74e",
      "assetIds": []
    },
    {
      "x": 311,
      "y": 266,
      "size": 1,
      "price": "1011000000000000000000",
      "reserved": "",
      "salt": "0x2b0e22525b9832da18ce2b1642b44236595ff148ec5e50fd900b9d57c0ce76bc",
      "assetIds": []
    },
    {
      "x": 311,
      "y": 270,
      "size": 1,
      "price": "1011000000000000000000",
      "reserved": "",
      "salt": "0x291d51e7b32f6f72a906029b0270199f37ae3527b7d6ea3dbf540f91937011cf",
      "assetIds": []
    },
    {
      "x": 311,
      "y": 271,
      "size": 1,
      "price": "1011000000000000000000",
      "reserved": "",
      "salt": "0x73df7df3b6e5da36cc1d175b2b0bd4a00c59c759573a3ab97f91caf051a6f9dd",
      "assetIds": []
    },
    {
      "x": 311,
      "y": 272,
      "size": 1,
      "price": "1011000000000000000000",
      "reserved": "",
      "salt": "0x76de7bf841587ab30b69f37bfd7e130340daec743fbc33e4b9eb3565613a8654",
      "assetIds": []
    },
    {
      "x": 312,
      "y": 237,
      "size": 1,
      "price": "1011000000000000000000",
      "reserved": "",
      "salt": "0x0e4de4ac5963d116a31c1f3b209d4188ed71d79fe3e0714693e40373315c988c",
      "assetIds": []
    },
    {
      "x": 312,
      "y": 238,
      "size": 1,
      "price": "1011000000000000000000",
      "reserved": "",
      "salt": "0x4786f6fe017dd04e41bb6faa82716798e766c4a5badeed6375f9912debd19679",
      "assetIds": []
    },
    {
      "x": 312,
      "y": 239,
      "size": 1,
      "price": "1011000000000000000000",
      "reserved": "0x7a9fe22691c811ea339d9b73150e6911a5343dca",
      "salt": "0x952497f1d91a1dd283739452a699be51a7c7e87a984a62d50065ae6d81ff64a4",
      "assetIds": []
    },
    {
      "x": 312,
      "y": 240,
      "size": 1,
      "price": "4683000000000000000000",
      "reserved": "",
      "salt": "0x4745dafc3200bfe1d7561bcf54bf87a6ff63200480cbaf758df6f825fdc6304a",
      "assetIds": []
    },
    {
      "x": 312,
      "y": 241,
      "size": 1,
      "price": "1011000000000000000000",
      "reserved": "0x7a9fe22691c811ea339d9b73150e6911a5343dca",
      "salt": "0x90cc0cbcb6478540c375bfe1a2dc1e533cf59160f5319db1ef0a30042ecc3d5a",
      "assetIds": []
    },
    {
      "x": 312,
      "y": 242,
      "size": 1,
      "price": "4683000000000000000000",
      "reserved": "",
      "salt": "0x2700805a4f775ceb0c829425a2315b9d2380efffdd1ad6301aca9163e4e9d840",
      "assetIds": []
    },
    {
      "x": 312,
      "y": 246,
      "size": 1,
      "price": "4683000000000000000000",
      "reserved": "",
      "salt": "0x19cbd0820e27342593e729270e7310fb8d67684ec2ac21b8b90cc268c33879e2",
      "assetIds": []
    },
    {
      "x": 312,
      "y": 247,
      "size": 1,
      "price": "1011000000000000000000",
      "reserved": "0x7a9fe22691c811ea339d9b73150e6911a5343dca",
      "salt": "0xdf20aac589208f825e4c4e9b4dece98305abcb6c2d329b2755294fb42b477bd1",
      "assetIds": []
    },
    {
      "x": 312,
      "y": 248,
      "size": 1,
      "price": "4683000000000000000000",
      "reserved": "",
      "salt": "0xef44e8e74c4d4a0337c98e7a7ba762fe7971c3b036f6e322945497b8bb1b66ed",
      "assetIds": []
    },
    {
      "x": 312,
      "y": 252,
      "size": 1,
      "price": "1011000000000000000000",
      "reserved": "",
      "salt": "0xa64c7dfc1300361175bea9aa4c7f7544d3347d963ca6c31b4483ab6c7eed5838",
      "assetIds": []
    },
    {
      "x": 312,
      "y": 253,
      "size": 1,
      "price": "1011000000000000000000",
      "reserved": "",
      "salt": "0x6b9d573fe976919915684d969ef539c8b2dd02f3b3e1ace7d615bcfdd024cb92",
      "assetIds": []
    },
    {
      "x": 312,
      "y": 254,
      "size": 1,
      "price": "1011000000000000000000",
      "reserved": "",
      "salt": "0xfe2785bd95aaf4f92d5e045c705eb39aeb953508b176cde45e09d745855e49c3",
      "assetIds": []
    },
    {
      "x": 312,
      "y": 258,
      "size": 1,
      "price": "1011000000000000000000",
      "reserved": "",
      "salt": "0xa2766eb4c323afcba1f63ce2a50373a813f30a13360bc851f9cfbfbdc74ff5d6",
      "assetIds": []
    },
    {
      "x": 312,
      "y": 259,
      "size": 1,
      "price": "1011000000000000000000",
      "reserved": "",
      "salt": "0xc78f396a5de58a1ae1e6bfecd7237f5330622dde3b9b1ff3326dcc417d2f06d6",
      "assetIds": []
    },
    {
      "x": 312,
      "y": 260,
      "size": 1,
      "price": "1011000000000000000000",
      "reserved": "",
      "salt": "0xe920f7fc1ca18fe954b8ef6871ebcb64a265e3d81976a10898010ee0982af138",
      "assetIds": []
    },
    {
      "x": 312,
      "y": 261,
      "size": 1,
      "price": "1011000000000000000000",
      "reserved": "0x7a9fe22691c811ea339d9b73150e6911a5343dca",
      "salt": "0x7094ce6fa6ddbc4cee73720fc8629806d1506af17b0e24caf32032dbe8447d8c",
      "assetIds": []
    },
    {
      "x": 312,
      "y": 262,
      "size": 1,
      "price": "1011000000000000000000",
      "reserved": "",
      "salt": "0x645a1565e1b29ed81f05a8111561e6bd9cb174328a2c0d16e59ee74c7bd53ecd",
      "assetIds": []
    },
    {
      "x": 312,
      "y": 263,
      "size": 1,
      "price": "1011000000000000000000",
      "reserved": "",
      "salt": "0xc652d03095fd87006ef3494209086a5a68e5ff15a14f3f9efa5b17e33e000626",
      "assetIds": []
    },
    {
      "x": 312,
      "y": 264,
      "size": 1,
      "price": "1011000000000000000000",
      "reserved": "0x7a9fe22691c811ea339d9b73150e6911a5343dca",
      "salt": "0xc007f08fc1114d75b48874df9204ed77ae79884429da1fc4761c15c5b4307f35",
      "assetIds": []
    },
    {
      "x": 312,
      "y": 265,
      "size": 1,
      "price": "1011000000000000000000",
      "reserved": "",
      "salt": "0x2935cd839c17c3737caa0b81f886dd41ac73e3717f6b4e9743eac491399a24cc",
      "assetIds": []
    },
    {
      "x": 312,
      "y": 266,
      "size": 1,
      "price": "1011000000000000000000",
      "reserved": "",
      "salt": "0xbe0cc78114ce6f6eabbcaf2039c9668ddb9ff59f41eaf2e8e544d6ab8edb5d99",
      "assetIds": []
    },
    {
      "x": 312,
      "y": 267,
      "size": 1,
      "price": "1011000000000000000000",
      "reserved": "",
      "salt": "0x751793d5e8bf4bff6c9880497d3338d0c0f84c8d064c1c4ed4d79a240e4977f7",
      "assetIds": []
    },
    {
      "x": 312,
      "y": 268,
      "size": 1,
      "price": "1011000000000000000000",
      "reserved": "",
      "salt": "0x214024ca175445f62bb1f97ab4abc980cf287d1be9340ed157db52f4b4d2fdc0",
      "assetIds": []
    },
    {
      "x": 312,
      "y": 269,
      "size": 1,
      "price": "1011000000000000000000",
      "reserved": "",
      "salt": "0xb5cd844c6a6119fa89dd7334eecafbbfc4af406808db91c9381752116600fabc",
      "assetIds": []
    },
    {
      "x": 312,
      "y": 273,
      "size": 1,
      "price": "1011000000000000000000",
      "reserved": "",
      "salt": "0x3e11e30b2cdacb02dc709b9d2e62a8a2a01a21ce48700a020be718bdce8ef24f",
      "assetIds": []
    },
    {
      "x": 312,
      "y": 274,
      "size": 1,
      "price": "1011000000000000000000",
      "reserved": "",
      "salt": "0x099cf3d1893fb6d6ca8c8bd0f6f4503819dbb84b37cf591df2fdd662792bd178",
      "assetIds": []
    },
    {
      "x": 312,
      "y": 275,
      "size": 1,
      "price": "1011000000000000000000",
      "reserved": "",
      "salt": "0xc688bbdd4486c138c08a5d511a736b12aa10420454d1dec1c1c78e659df6f857",
      "assetIds": []
    },
    {
      "x": 313,
      "y": 237,
      "size": 1,
      "price": "1011000000000000000000",
      "reserved": "",
      "salt": "0x1cfa0d89f8b41c278e1bf4494874c86e79bc09143e3f4e1df892f3a9d0f0e823",
      "assetIds": []
    },
    {
      "x": 313,
      "y": 238,
      "size": 1,
      "price": "1011000000000000000000",
      "reserved": "",
      "salt": "0x7f559bc73d8ffba904bb5281197e52b244fc5504c92eaf579a4745a645ae4b8d",
      "assetIds": []
    },
    {
      "x": 313,
      "y": 239,
      "size": 1,
      "price": "1011000000000000000000",
      "reserved": "",
      "salt": "0xcc525dd6a0858ff47010d61bdd85ef0d94f930bf8e849d33fbcedc6596f15b27",
      "assetIds": []
    },
    {
      "x": 313,
      "y": 240,
      "size": 1,
      "price": "1011000000000000000000",
      "reserved": "",
      "salt": "0x6fc6615132dbda182cf3b5daccb18708bc4806bd0459049b2969db9763ab06aa",
      "assetIds": []
    },
    {
      "x": 313,
      "y": 241,
      "size": 1,
      "price": "1011000000000000000000",
      "reserved": "",
      "salt": "0xce64df1ab487b76afa193db9e081cc3f01fe9466c362bb051ab9024c96d8bdca",
      "assetIds": []
    },
    {
      "x": 313,
      "y": 242,
      "size": 1,
      "price": "1011000000000000000000",
      "reserved": "",
      "salt": "0xda7b0425a321d3b8196882741bbf7de54ce09f3cf4f0874cc83da321a69dcff8",
      "assetIds": []
    },
    {
      "x": 313,
      "y": 246,
      "size": 1,
      "price": "1011000000000000000000",
      "reserved": "",
      "salt": "0xe316508e00ec3442530f41ef9cfece8b6e1380346980daedfa04cbd435f98067",
      "assetIds": []
    },
    {
      "x": 313,
      "y": 247,
      "size": 1,
      "price": "1011000000000000000000",
      "reserved": "",
      "salt": "0x4ee1a4fb1bd816422a1c8bac1ca44eca332b9f4b534f29ff9dfc5bc3a3cd1858",
      "assetIds": []
    },
    {
      "x": 313,
      "y": 248,
      "size": 1,
      "price": "1011000000000000000000",
      "reserved": "",
      "salt": "0x6063e06bb13aba1014a9c2bd1324969bdd194033a3c6059fe4855df13f317e78",
      "assetIds": []
    },
    {
      "x": 313,
      "y": 252,
      "size": 1,
      "price": "1011000000000000000000",
      "reserved": "",
      "salt": "0x6e5fdcbd142a7eacc693c1b45b0b40f447b1a12b84dba4cda6238afffcacc73a",
      "assetIds": []
    },
    {
      "x": 313,
      "y": 253,
      "size": 1,
      "price": "1011000000000000000000",
      "reserved": "",
      "salt": "0xee904c566d637282c785930e08b2713eb2348b41a255f8d5447c4467b3dfa54c",
      "assetIds": []
    },
    {
      "x": 313,
      "y": 254,
      "size": 1,
      "price": "1011000000000000000000",
      "reserved": "",
      "salt": "0xe04a829df45ae79439a9d879e11fc063f5ff85a587a125f1d403d447d5a8dbcb",
      "assetIds": []
    },
    {
      "x": 313,
      "y": 258,
      "size": 1,
      "price": "1011000000000000000000",
      "reserved": "",
      "salt": "0x5ec851ada9745febfd192db5dd93be7ff0e9c364b83370fc93c73cc27639e877",
      "assetIds": []
    },
    {
      "x": 313,
      "y": 259,
      "size": 1,
      "price": "1011000000000000000000",
      "reserved": "",
      "salt": "0xab059f5c3c58dd62381980c5193b2e28b5419f4e2662fb50825620e379ea61e7",
      "assetIds": []
    },
    {
      "x": 313,
      "y": 260,
      "size": 1,
      "price": "1011000000000000000000",
      "reserved": "",
      "salt": "0xcac8ea29495884cba7a47372aa38df705ba44f2e43bf4a64d781fad134b4dc23",
      "assetIds": []
    },
    {
      "x": 313,
      "y": 261,
      "size": 1,
      "price": "1011000000000000000000",
      "reserved": "",
      "salt": "0x074373050ef278b42eaacceb5f662b662708c1c212fb0524ebbb64f141b26ed0",
      "assetIds": []
    },
    {
      "x": 313,
      "y": 262,
      "size": 1,
      "price": "1011000000000000000000",
      "reserved": "",
      "salt": "0x0a06bb87ed4938ebce86581712f6d0ed2f1a686c8733f24b4d71a14ca26bf718",
      "assetIds": []
    },
    {
      "x": 313,
      "y": 263,
      "size": 1,
      "price": "1011000000000000000000",
      "reserved": "",
      "salt": "0x78106db85a871df6d6aa906cc980edb04d8639e082749f15fb9aaeb4da48783a",
      "assetIds": []
    },
    {
      "x": 313,
      "y": 264,
      "size": 1,
      "price": "1011000000000000000000",
      "reserved": "",
      "salt": "0xdfbdabb98768be1524a98da6a83f9889b02a9205e1d7f679171c5d0090c9e12e",
      "assetIds": []
    },
    {
      "x": 313,
      "y": 265,
      "size": 1,
      "price": "1011000000000000000000",
      "reserved": "",
      "salt": "0x745cf6f715f10323fafb207e712e7631f3551c8b81f5cb7c62a745475f4005e5",
      "assetIds": []
    },
    {
      "x": 313,
      "y": 266,
      "size": 1,
      "price": "1011000000000000000000",
      "reserved": "",
      "salt": "0x6f32a2c566604a4eebbfba18b0e1fa008e0d7dea5520b1c0d24176426b207008",
      "assetIds": []
    },
    {
      "x": 313,
      "y": 267,
      "size": 1,
      "price": "1011000000000000000000",
      "reserved": "",
      "salt": "0x7df239e7810ad3316950b55e0e71207654eab978a296b98d1a6abfad2609a5cf",
      "assetIds": []
    },
    {
      "x": 313,
      "y": 268,
      "size": 1,
      "price": "1011000000000000000000",
      "reserved": "",
      "salt": "0xb8a6daf26b6214e6a9bdb0946615d48a8a305610cd41acd9ae3ac596cf0fbb87",
      "assetIds": []
    },
    {
      "x": 313,
      "y": 269,
      "size": 1,
      "price": "1011000000000000000000",
      "reserved": "",
      "salt": "0xe3d83eee24f01463f3f245edc9b3eb7a9ab9f51aa2f8fc2eed21a11632d9ef3b",
      "assetIds": []
    },
    {
      "x": 313,
      "y": 273,
      "size": 1,
      "price": "1011000000000000000000",
      "reserved": "",
      "salt": "0x4f7629f66fe8b62e80107ce680c3378e5ed0754f6b8f1da57b9fb37fd48c6057",
      "assetIds": []
    },
    {
      "x": 313,
      "y": 274,
      "size": 1,
      "price": "1011000000000000000000",
      "reserved": "",
      "salt": "0x4317ccb4d90e226434c1180ad056370b2445237f833d07a147ede1c72cc82b51",
      "assetIds": []
    },
    {
      "x": 313,
      "y": 275,
      "size": 1,
      "price": "1011000000000000000000",
      "reserved": "",
      "salt": "0x81d98df17e23594ffebe6ef320bde4529b63cd13bb1c5b531fde29c0eb9b891a",
      "assetIds": []
    },
    {
      "x": 314,
      "y": 237,
      "size": 1,
      "price": "1011000000000000000000",
      "reserved": "",
      "salt": "0x5a3938cd5ecf388d4faabbfaac9a28403eb34bf9259f9ed83ecbf43b04f742d6",
      "assetIds": []
    },
    {
      "x": 314,
      "y": 238,
      "size": 1,
      "price": "1011000000000000000000",
      "reserved": "",
      "salt": "0xd1697c6888c72c07425a9d2cf7b366434f5e4dec7fdb95988fb05899d3ffd16f",
      "assetIds": []
    },
    {
      "x": 314,
      "y": 239,
      "size": 1,
      "price": "1011000000000000000000",
      "reserved": "",
      "salt": "0x08b7eea35d67f04c287fc5e6978ef483de75e0d7c046ba59493c2dc188c31212",
      "assetIds": []
    },
    {
      "x": 314,
      "y": 240,
      "size": 1,
      "price": "1011000000000000000000",
      "reserved": "",
      "salt": "0xb6180f1199b96d6e5f8bea6350a48b3fde449ddd5e35ba6aaf4210710b4964cc",
      "assetIds": []
    },
    {
      "x": 314,
      "y": 241,
      "size": 1,
      "price": "1011000000000000000000",
      "reserved": "",
      "salt": "0x7b0783c8864976e3f72a18623ea95c46cf46a4600a6beea3f5ffd0c92ce7503f",
      "assetIds": []
    },
    {
      "x": 314,
      "y": 242,
      "size": 1,
      "price": "1011000000000000000000",
      "reserved": "",
      "salt": "0x906591228cee690460b2ccc5549f7847de02edd52e972fe59539e012347a7324",
      "assetIds": []
    },
    {
      "x": 314,
      "y": 246,
      "size": 1,
      "price": "1011000000000000000000",
      "reserved": "",
      "salt": "0x01b9078119b51d7c19631e7b38c2097ba854943af6911f03f26824567daa6e60",
      "assetIds": []
    },
    {
      "x": 314,
      "y": 247,
      "size": 1,
      "price": "1011000000000000000000",
      "reserved": "",
      "salt": "0x14d82eb468cfbf6d93d1be08394e1f5b57553e72e6e237c9f01012be68980ad6",
      "assetIds": []
    },
    {
      "x": 314,
      "y": 248,
      "size": 1,
      "price": "1011000000000000000000",
      "reserved": "",
      "salt": "0x00ef5fe646b985892c733468d3a9fdb99ea974092b5040b9286862632cb3a5dd",
      "assetIds": []
    },
    {
      "x": 314,
      "y": 252,
      "size": 1,
      "price": "1011000000000000000000",
      "reserved": "",
      "salt": "0x32a0f5b08aec3f93f6b209b2dd51277ab12f18394f8e0e3a4c0bee53b73a40c0",
      "assetIds": []
    },
    {
      "x": 314,
      "y": 253,
      "size": 1,
      "price": "1011000000000000000000",
      "reserved": "",
      "salt": "0x1a44b1cbae1e926190f90551c1d0fcc936fab10804011a02e5221d80d689dd79",
      "assetIds": []
    },
    {
      "x": 314,
      "y": 254,
      "size": 1,
      "price": "1011000000000000000000",
      "reserved": "0x7a9fe22691c811ea339d9b73150e6911a5343dca",
      "salt": "0x8ab9fd3d0fdf977133dda21211b6def5e9c8b79e9bb0b603be4947bdc93162e2",
      "assetIds": []
    },
    {
      "x": 314,
      "y": 258,
      "size": 1,
      "price": "1011000000000000000000",
      "reserved": "",
      "salt": "0x9cf686e7388610e4f91f6b346729c614103a0bbf7896dc386c384c0eb0f35638",
      "assetIds": []
    },
    {
      "x": 314,
      "y": 259,
      "size": 1,
      "price": "1011000000000000000000",
      "reserved": "",
      "salt": "0xd175698c9211c871e0ea4398010a8efd8008131ef402cbe76a891fa00fa62089",
      "assetIds": []
    },
    {
      "x": 314,
      "y": 260,
      "size": 1,
      "price": "1011000000000000000000",
      "reserved": "",
      "salt": "0x38bf2bec2119f40e47524e47b64774977f4d7b89b1e5b843332924ce7deaf7d5",
      "assetIds": []
    },
    {
      "x": 314,
      "y": 261,
      "size": 1,
      "price": "1011000000000000000000",
      "reserved": "",
      "salt": "0x5529835e3c3c55bd9489ba2bca13d86760895a07c3f2c153846d679778cd77da",
      "assetIds": []
    },
    {
      "x": 314,
      "y": 262,
      "size": 1,
      "price": "1011000000000000000000",
      "reserved": "",
      "salt": "0xb45ec7e7faac8e644d173b5bb847475eec54ab16bc0fb8678533a90590e40f63",
      "assetIds": []
    },
    {
      "x": 314,
      "y": 263,
      "size": 1,
      "price": "1011000000000000000000",
      "reserved": "",
      "salt": "0xc6e0cb9b7c29d5d381b094e229751324fc9f93e40d97f80ae147d11428ef6a8e",
      "assetIds": []
    },
    {
      "x": 314,
      "y": 264,
      "size": 1,
      "price": "1011000000000000000000",
      "reserved": "",
      "salt": "0x388a3a442bfc62c242de5ee9482a70ef291116e2893ef67fc60a39002b93b236",
      "assetIds": []
    },
    {
      "x": 314,
      "y": 265,
      "size": 1,
      "price": "1011000000000000000000",
      "reserved": "",
      "salt": "0x5f03eed8d43cd6b2c48a045e67f8920a755a7d442474c3fb304bdd84618b0333",
      "assetIds": []
    },
    {
      "x": 314,
      "y": 266,
      "size": 1,
      "price": "1011000000000000000000",
      "reserved": "",
      "salt": "0x48df4e93b068776ace3cbb6f277e8c56c631ff9e19d9919c26e065b0f96b7e31",
      "assetIds": []
    },
    {
      "x": 314,
      "y": 267,
      "size": 1,
      "price": "1011000000000000000000",
      "reserved": "",
      "salt": "0x7c9ce40a61397759e53e555139ee86cce0a6c1d1a53aa6d570a288392a2e7f1e",
      "assetIds": []
    },
    {
      "x": 314,
      "y": 268,
      "size": 1,
      "price": "1011000000000000000000",
      "reserved": "",
      "salt": "0x44ebdef4f64b3e8e53e9cac6aed08bfd15c49d8164a880d51282cfacd938c0bd",
      "assetIds": []
    },
    {
      "x": 314,
      "y": 269,
      "size": 1,
      "price": "1011000000000000000000",
      "reserved": "0x7a9fe22691c811ea339d9b73150e6911a5343dca",
      "salt": "0xee8d337007578a3e71d77ce4be536b24d104e183d0a0384406c76ed6d9374f2c",
      "assetIds": []
    },
    {
      "x": 314,
      "y": 273,
      "size": 1,
      "price": "1011000000000000000000",
      "reserved": "",
      "salt": "0x56ed47156e7a24c3036169f0fd7c69353c53a74d1db146457d43a60298492393",
      "assetIds": []
    },
    {
      "x": 314,
      "y": 274,
      "size": 1,
      "price": "1011000000000000000000",
      "reserved": "",
      "salt": "0x34f15789e6f921f713d9106202adc81d6405f2e794d377998ca1155e1fcb219b",
      "assetIds": []
    },
    {
      "x": 314,
      "y": 275,
      "size": 1,
      "price": "1011000000000000000000",
      "reserved": "",
      "salt": "0x04c2aedd0c6030b18d8109d81fe900600d12b2f4cd14485e3639251ef05ef8eb",
      "assetIds": []
    },
    {
      "x": 315,
      "y": 237,
      "size": 1,
      "price": "1011000000000000000000",
      "reserved": "",
      "salt": "0xdd8ca83d64ed189804f40b78df468041dcb602927fe2a12e3baacd3075a176c9",
      "assetIds": []
    },
    {
      "x": 315,
      "y": 238,
      "size": 1,
      "price": "1011000000000000000000",
      "reserved": "",
      "salt": "0x377b4b57145f3e90e2a2ba8061c0c38e4d3ad796fed33b80dc72d94d3c87ca04",
      "assetIds": []
    },
    {
      "x": 315,
      "y": 239,
      "size": 1,
      "price": "1011000000000000000000",
      "reserved": "",
      "salt": "0x313dfae23292d09a733d96e0be0fd45eaa08e4997d637d0330575b8cb841f80e",
      "assetIds": []
    },
    {
      "x": 315,
      "y": 240,
      "size": 1,
      "price": "1011000000000000000000",
      "reserved": "",
      "salt": "0x094d9443c68d5c6dc973e51e60367abe363a99fd5409f9b79e4bb1cb755353b1",
      "assetIds": []
    },
    {
      "x": 315,
      "y": 241,
      "size": 1,
      "price": "1011000000000000000000",
      "reserved": "",
      "salt": "0x878022b1acc9ad9051b59f49cf0b2a8754f68cb1cb61100604b2d8565ca9d689",
      "assetIds": []
    },
    {
      "x": 315,
      "y": 242,
      "size": 1,
      "price": "1011000000000000000000",
      "reserved": "",
      "salt": "0xfe3eb11d66dc9386253c90f429380e553c1bd22b9aef335b4d751b8fef78f93c",
      "assetIds": []
    },
    {
      "x": 315,
      "y": 243,
      "size": 1,
      "price": "1011000000000000000000",
      "reserved": "",
      "salt": "0xb15a9153297d5243193f31f0fba38ac8fcc5857bd13793246387070be9fee591",
      "assetIds": []
    },
    {
      "x": 315,
      "y": 244,
      "size": 1,
      "price": "1011000000000000000000",
      "reserved": "",
      "salt": "0xbff4458c26f1f2e6eb4a758e1b6ed0eb702018e2f6970c97eaa772e3cde38dc9",
      "assetIds": []
    },
    {
      "x": 315,
      "y": 245,
      "size": 1,
      "price": "1011000000000000000000",
      "reserved": "",
      "salt": "0xff96ce540ae763efe7d4ee1f81c4f3007465933e5568d5d09110d7a248b3321d",
      "assetIds": []
    },
    {
      "x": 315,
      "y": 246,
      "size": 1,
      "price": "1011000000000000000000",
      "reserved": "",
      "salt": "0xe98bb72cd508c516be4799becfe2306eaecc13d5a6593ee29c22cf40ab36aa8e",
      "assetIds": []
    },
    {
      "x": 315,
      "y": 247,
      "size": 1,
      "price": "1011000000000000000000",
      "reserved": "0x7a9fe22691c811ea339d9b73150e6911a5343dca",
      "salt": "0x39ebf34b20d7ba6f51684eda9746741480cce484d1a9846f43cfc1899decb934",
      "assetIds": []
    },
    {
      "x": 315,
      "y": 248,
      "size": 1,
      "price": "1011000000000000000000",
      "reserved": "",
      "salt": "0x45f4a6ec506e13ae70d8783857bedf422e4c9ef7d880a45918672cbd17c9f51b",
      "assetIds": []
    },
    {
      "x": 315,
      "y": 249,
      "size": 1,
      "price": "1011000000000000000000",
      "reserved": "",
      "salt": "0x6b8b012a39977dca71507f1ff429e03e01440ebd21f8fb3bc9da033909f71348",
      "assetIds": []
    },
    {
      "x": 315,
      "y": 250,
      "size": 1,
      "price": "1011000000000000000000",
      "reserved": "",
      "salt": "0xd402b0041a0f143d8de15c9670683fb5a88094eae6687e4ba4b350257e134ba8",
      "assetIds": []
    },
    {
      "x": 315,
      "y": 251,
      "size": 1,
      "price": "1011000000000000000000",
      "reserved": "",
      "salt": "0x9500ef0ca438d63ecb0383196ac12a0ac5484ea607bdee314a4b1dbed9c1b4b6",
      "assetIds": []
    },
    {
      "x": 315,
      "y": 255,
      "size": 1,
      "price": "1011000000000000000000",
      "reserved": "",
      "salt": "0x3d191f4ef6f17f1994a91e545da3b42a53fe0f9a7e250eb7948107e9af3e2750",
      "assetIds": []
    },
    {
      "x": 315,
      "y": 256,
      "size": 1,
      "price": "1011000000000000000000",
      "reserved": "",
      "salt": "0x6b82cd0ff0cf9cf5935b0054cfecac011a394f3d8b8ae70004fb990d6c68fd64",
      "assetIds": []
    },
    {
      "x": 315,
      "y": 257,
      "size": 1,
      "price": "1011000000000000000000",
      "reserved": "",
      "salt": "0x3a478f2f7e5f3e7e61bdb254773e9e1d90dcfd6e02e68196b50a91f2641212a5",
      "assetIds": []
    },
    {
      "x": 315,
      "y": 258,
      "size": 1,
      "price": "1011000000000000000000",
      "reserved": "",
      "salt": "0x742183d8ea70f9f495d6a20f6246b10d612c414aeaa056aa7aee2567e1da060e",
      "assetIds": []
    },
    {
      "x": 315,
      "y": 259,
      "size": 1,
      "price": "1011000000000000000000",
      "reserved": "",
      "salt": "0x59a45a583334450ce5faa40a48f1726d2deb861b9231bf4ea9a55972e759475f",
      "assetIds": []
    },
    {
      "x": 315,
      "y": 260,
      "size": 1,
      "price": "1011000000000000000000",
      "reserved": "",
      "salt": "0x850240c69f989ec0a2118e69ddcf1ce825a13c3e5c2fbb46a27540c1255ef60d",
      "assetIds": []
    },
    {
      "x": 315,
      "y": 261,
      "size": 1,
      "price": "1011000000000000000000",
      "reserved": "",
      "salt": "0x5972f6c109f34b35c9ba6f0748de17d21faccf839c3289142af27c61a1f376c3",
      "assetIds": []
    },
    {
      "x": 315,
      "y": 262,
      "size": 1,
      "price": "1011000000000000000000",
      "reserved": "",
      "salt": "0xb6b3a3e69794ad192753fca688608830dc8156f9cbdddcb880a95dcd74affa74",
      "assetIds": []
    },
    {
      "x": 315,
      "y": 263,
      "size": 1,
      "price": "1011000000000000000000",
      "reserved": "",
      "salt": "0x6e802f9872d9d40cbb077c341376509b378692031a0b0114ac150f761e5aa6cf",
      "assetIds": []
    },
    {
      "x": 315,
      "y": 264,
      "size": 1,
      "price": "1011000000000000000000",
      "reserved": "",
      "salt": "0xa50686af9fa82d65a1ba82cd70f44c6a7539ce85790466519f3c2bddb9b3b34e",
      "assetIds": []
    },
    {
      "x": 315,
      "y": 265,
      "size": 1,
      "price": "1011000000000000000000",
      "reserved": "",
      "salt": "0xde192a9c383d8fbd91c66f3286e2bbf81b9132edaabcc59467287ad8479c901d",
      "assetIds": []
    },
    {
      "x": 315,
      "y": 266,
      "size": 1,
      "price": "1011000000000000000000",
      "reserved": "",
      "salt": "0xf89d5d4a7825e7473a6937cd0d3eee62e8691fd75079fd4bd2d884556bfaeb2b",
      "assetIds": []
    },
    {
      "x": 315,
      "y": 270,
      "size": 1,
      "price": "1011000000000000000000",
      "reserved": "",
      "salt": "0xbe5cbaef8471a3f98dc8719d47324c3f27d174d122ff81561017850e4ab47120",
      "assetIds": []
    },
    {
      "x": 315,
      "y": 271,
      "size": 1,
      "price": "1011000000000000000000",
      "reserved": "",
      "salt": "0xd5f0bd989887a0b7fb925c3d3b589d49d1d69f923b07603d89035f08d642e402",
      "assetIds": []
    },
    {
      "x": 315,
      "y": 272,
      "size": 1,
      "price": "1011000000000000000000",
      "reserved": "",
      "salt": "0x44f79fc483cbfb22065ed712a0a41a86578b0c7d2edeba88da3d224be8726756",
      "assetIds": []
    },
    {
      "x": 316,
      "y": 237,
      "size": 1,
      "price": "1011000000000000000000",
      "reserved": "",
      "salt": "0x526d097cd343040455de6bd5232ec591ce4798e30a07846354e558826f7237a5",
      "assetIds": []
    },
    {
      "x": 316,
      "y": 238,
      "size": 1,
      "price": "1011000000000000000000",
      "reserved": "",
      "salt": "0xd53de2d38bc40bb63442caa3d615945e26f5cdd4b03d0a551d8f220f0ca0716a",
      "assetIds": []
    },
    {
      "x": 316,
      "y": 239,
      "size": 1,
      "price": "1011000000000000000000",
      "reserved": "",
      "salt": "0xce34fed759e9e30f6d037a0eb23130e1a0fa53ee122afea9c144f7f9d6b98280",
      "assetIds": []
    },
    {
      "x": 316,
      "y": 240,
      "size": 1,
      "price": "1011000000000000000000",
      "reserved": "",
      "salt": "0x128ea186bfca987a494b7a8e59b092d8d2baba5966575381369e786cc5e9d77a",
      "assetIds": []
    },
    {
      "x": 316,
      "y": 241,
      "size": 1,
      "price": "1011000000000000000000",
      "reserved": "",
      "salt": "0x510f796f2b2424aa0d1e49565501d94292f4e3b57fea08307da52606e47f79c5",
      "assetIds": []
    },
    {
      "x": 316,
      "y": 242,
      "size": 1,
      "price": "1011000000000000000000",
      "reserved": "",
      "salt": "0x7e6e8f4a30bdd607c4122b496fca7504be36d1ac2911c41a560fb80f021a9754",
      "assetIds": []
    },
    {
      "x": 316,
      "y": 243,
      "size": 1,
      "price": "1011000000000000000000",
      "reserved": "",
      "salt": "0xf6fed2a1f0e6c82fadc4d03cff16b6111936f03c9941fabeea39f3548316385d",
      "assetIds": []
    },
    {
      "x": 316,
      "y": 244,
      "size": 1,
      "price": "1011000000000000000000",
      "reserved": "",
      "salt": "0xdbfdae951ee487231b28231f6fce6496882898e5eb3c92373e23ea0e4e9295f3",
      "assetIds": []
    },
    {
      "x": 316,
      "y": 245,
      "size": 1,
      "price": "1011000000000000000000",
      "reserved": "0x7a9fe22691c811ea339d9b73150e6911a5343dca",
      "salt": "0xe5a51532050a977a8a7cbd731cc3a6d30ed251f216db1102f7ef85be44230536",
      "assetIds": []
    },
    {
      "x": 316,
      "y": 246,
      "size": 1,
      "price": "1011000000000000000000",
      "reserved": "",
      "salt": "0x1fc6f3209bab6c2234d4c711d73667786580bf95526859de39d7382c021b90f7",
      "assetIds": []
    },
    {
      "x": 316,
      "y": 247,
      "size": 1,
      "price": "1011000000000000000000",
      "reserved": "",
      "salt": "0x5de90af036a407fa358f34907c1bba7ddc0d96d799bd29a46b72aab245b0bf73",
      "assetIds": []
    },
    {
      "x": 316,
      "y": 248,
      "size": 1,
      "price": "1011000000000000000000",
      "reserved": "",
      "salt": "0xb9a327f0af100fe92c10f6072b3e4fcc1aa4176814a36f7a51b84d5dfad83162",
      "assetIds": []
    },
    {
      "x": 316,
      "y": 249,
      "size": 1,
      "price": "1011000000000000000000",
      "reserved": "",
      "salt": "0x46e4cef6f18ca96f4a5f3fd737862243354d6830336d445927e95ef6756e23c6",
      "assetIds": []
    },
    {
      "x": 316,
      "y": 250,
      "size": 1,
      "price": "1011000000000000000000",
      "reserved": "",
      "salt": "0x29ca19f6ce8fec5c588c683e33641fdc90a98e4a3bbb504264dacd423c272722",
      "assetIds": []
    },
    {
      "x": 316,
      "y": 251,
      "size": 1,
      "price": "1011000000000000000000",
      "reserved": "",
      "salt": "0x9ca9a7acbbe3f2477603b196ce34e2e5a4743651829c78cb81223b351c886af2",
      "assetIds": []
    },
    {
      "x": 316,
      "y": 255,
      "size": 1,
      "price": "1011000000000000000000",
      "reserved": "",
      "salt": "0xe50f689b49ec4c3dd1471a12f022650d92f894f51eef00164a103392f9689dc4",
      "assetIds": []
    },
    {
      "x": 316,
      "y": 256,
      "size": 1,
      "price": "1011000000000000000000",
      "reserved": "",
      "salt": "0x4f0cde8731bb2cfb2b487be338c33a18a0ddff75aaacaff4e0dbbb8b0443e2f5",
      "assetIds": []
    },
    {
      "x": 316,
      "y": 257,
      "size": 1,
      "price": "1011000000000000000000",
      "reserved": "",
      "salt": "0xbef95443416ccc88a326174047afe8ed9cd531ff80593c798706299d65303fd2",
      "assetIds": []
    },
    {
      "x": 316,
      "y": 258,
      "size": 1,
      "price": "1011000000000000000000",
      "reserved": "",
      "salt": "0x0c520a11e30645abb92f6b505d71ef799ce6d43edf24366d2491cb800ed7bd32",
      "assetIds": []
    },
    {
      "x": 316,
      "y": 259,
      "size": 1,
      "price": "1011000000000000000000",
      "reserved": "",
      "salt": "0x89cc2e9b4031f78a482726ea956d96fb4a50ee9b85ec2e95297dee9d22fdd626",
      "assetIds": []
    },
    {
      "x": 316,
      "y": 260,
      "size": 1,
      "price": "1011000000000000000000",
      "reserved": "",
      "salt": "0xceb866bfb7671c8c3897b12983595572729d4cfcd36a0c42da2b733f02aae744",
      "assetIds": []
    },
    {
      "x": 316,
      "y": 261,
      "size": 1,
      "price": "1011000000000000000000",
      "reserved": "",
      "salt": "0xc63d901d055104d050bedd35bad31dbea43343eecdade5e70adf2a88b13c3bf7",
      "assetIds": []
    },
    {
      "x": 316,
      "y": 262,
      "size": 1,
      "price": "1011000000000000000000",
      "reserved": "",
      "salt": "0x118213fc7e4686ce73674cd9096fa3424af298a7c1f28c645cd92ce914d8bb96",
      "assetIds": []
    },
    {
      "x": 316,
      "y": 263,
      "size": 1,
      "price": "1011000000000000000000",
      "reserved": "",
      "salt": "0x1a2f9b3d0aa6a15c7c33db096a7b227bf9b0b8b2ff94b91126f025afb293460b",
      "assetIds": []
    },
    {
      "x": 316,
      "y": 264,
      "size": 1,
      "price": "1011000000000000000000",
      "reserved": "",
      "salt": "0x5311708b5bdd08a205a26a22f1adff3f1355bbbb6bb4d6e631328dbac5de5f53",
      "assetIds": []
    },
    {
      "x": 316,
      "y": 265,
      "size": 1,
      "price": "1011000000000000000000",
      "reserved": "",
      "salt": "0xdcaec9305db637c7b0814ff8a7e12f076b8663834cd7b8a225fea36ddb990342",
      "assetIds": []
    },
    {
      "x": 316,
      "y": 266,
      "size": 1,
      "price": "1011000000000000000000",
      "reserved": "",
      "salt": "0xe61aa8bdfb920e98f5ac8a1954fb1e7278980da3234b08b01e4721a37d108278",
      "assetIds": []
    },
    {
      "x": 316,
      "y": 270,
      "size": 1,
      "price": "1011000000000000000000",
      "reserved": "",
      "salt": "0xb15750b41dbe4631bcdc5ea22aa52eb836e2baae26f0572adaaf39c0e4e54ac2",
      "assetIds": []
    },
    {
      "x": 316,
      "y": 271,
      "size": 1,
      "price": "1011000000000000000000",
      "reserved": "",
      "salt": "0x5a7bcb9baaa4af7dba8edb947c6cfbafbfee169ce4fc3bbce3f6a301b5c7b293",
      "assetIds": []
    },
    {
      "x": 316,
      "y": 272,
      "size": 1,
      "price": "1011000000000000000000",
      "reserved": "",
      "salt": "0x6938d225119f685aba112334c5486a641f92afc4b3f2711ce15bbbd52d80e64d",
      "assetIds": []
    },
    {
      "x": 317,
      "y": 237,
      "size": 1,
      "price": "1011000000000000000000",
      "reserved": "",
      "salt": "0x43a063f9e496ac1d5e8c6137755c935d09dfdaad7e4a18626fd8e47e62128ff3",
      "assetIds": []
    },
    {
      "x": 317,
      "y": 238,
      "size": 1,
      "price": "1011000000000000000000",
      "reserved": "",
      "salt": "0xd6be7b250c07d987df04826705fad7974ca5e7bb107dbae9528df97f556bcef5",
      "assetIds": []
    },
    {
      "x": 317,
      "y": 239,
      "size": 1,
      "price": "1011000000000000000000",
      "reserved": "",
      "salt": "0xc8c91399e1619214c69147b1a3a78c4a805ae3120b3d921da7bf33ef366b0a3e",
      "assetIds": []
    },
    {
      "x": 317,
      "y": 240,
      "size": 1,
      "price": "1011000000000000000000",
      "reserved": "",
      "salt": "0x061edd215e061cf58749cf875fce27d2474308236a6d80481607518785aa9b59",
      "assetIds": []
    },
    {
      "x": 317,
      "y": 241,
      "size": 1,
      "price": "1011000000000000000000",
      "reserved": "",
      "salt": "0xec915e2d1a423fec8db606a67efac3358e5db3805109607e77ceb862e4bbb4ce",
      "assetIds": []
    },
    {
      "x": 317,
      "y": 242,
      "size": 1,
      "price": "1011000000000000000000",
      "reserved": "",
      "salt": "0xbc4429512c66770cb0182f7e37a2aa5fb537f35b23f5edeb83b586c2aee6b314",
      "assetIds": []
    },
    {
      "x": 317,
      "y": 243,
      "size": 1,
      "price": "1011000000000000000000",
      "reserved": "",
      "salt": "0xf2ecf4d7335f98078f919ca9163e2bb0df83ad54b7c87cca9ea5af4ee6b87e6b",
      "assetIds": []
    },
    {
      "x": 317,
      "y": 244,
      "size": 1,
      "price": "1011000000000000000000",
      "reserved": "",
      "salt": "0x4f0dbd00445f9739768acf4ad0384b9031f6eadcbb56d5d819696aa05e28ac2e",
      "assetIds": []
    },
    {
      "x": 317,
      "y": 245,
      "size": 1,
      "price": "1011000000000000000000",
      "reserved": "",
      "salt": "0xdd0d288ddede0612c9f0875e0b6b5e9551af8c48fbb3c76767a00210923dd9d9",
      "assetIds": []
    },
    {
      "x": 317,
      "y": 246,
      "size": 1,
      "price": "4683000000000000000000",
      "reserved": "",
      "salt": "0x4612d74b7ca18cc5b3ea2de6b1310c7b1e57cb7b4f0b98e72cd90c8c50c8df4e",
      "assetIds": []
    },
    {
      "x": 317,
      "y": 247,
      "size": 1,
      "price": "4683000000000000000000",
      "reserved": "",
      "salt": "0xaac34d6058f77057de9313b4c22dfb2c798111145c82cfc7d1cdbb1d763f81f9",
      "assetIds": []
    },
    {
      "x": 317,
      "y": 248,
      "size": 1,
      "price": "4683000000000000000000",
      "reserved": "",
      "salt": "0x926b9b1f7c1e5fd295138b6fe074a8cd3bd1d5959a6f16368739e8764597b358",
      "assetIds": []
    },
    {
      "x": 317,
      "y": 249,
      "size": 1,
      "price": "4683000000000000000000",
      "reserved": "",
      "salt": "0x48daff612c4a35d372224607c4b9eb82822a1f3203ec63b51f48d3936b8f6a48",
      "assetIds": []
    },
    {
      "x": 317,
      "y": 250,
      "size": 1,
      "price": "4683000000000000000000",
      "reserved": "",
      "salt": "0x06862305350511be115c04f0f007374677c7c09063649d91e08c438cc301b68c",
      "assetIds": []
    },
    {
      "x": 317,
      "y": 251,
      "size": 1,
      "price": "4683000000000000000000",
      "reserved": "",
      "salt": "0x9d435b119f805b2e0542cac0eb0dcb29bc5a00103dadb82d6f349c49dfc6b22b",
      "assetIds": []
    },
    {
      "x": 317,
      "y": 255,
      "size": 1,
      "price": "1011000000000000000000",
      "reserved": "",
      "salt": "0x4894fc6e8e426c0ab64c8909d31e987632ab32d50b81c705a289c6c7af4714ee",
      "assetIds": []
    },
    {
      "x": 317,
      "y": 256,
      "size": 1,
      "price": "1011000000000000000000",
      "reserved": "",
      "salt": "0xedf928a120a08b51b9c5d6b4426ec38ea393354eb80d94ee1efa37acbc98ad81",
      "assetIds": []
    },
    {
      "x": 317,
      "y": 257,
      "size": 1,
      "price": "1011000000000000000000",
      "reserved": "0x7a9fe22691c811ea339d9b73150e6911a5343dca",
      "salt": "0xefa5b80ce2085505009b476d18f7921f36acc0075324a9fcc51fb7c426d400b6",
      "assetIds": []
    },
    {
      "x": 317,
      "y": 258,
      "size": 1,
      "price": "4683000000000000000000",
      "reserved": "",
      "salt": "0xed74a341b61c50c23a617c8f1584b0fa15f999aed1956c999fe4e29946a379c5",
      "assetIds": []
    },
    {
      "x": 317,
      "y": 259,
      "size": 1,
      "price": "4683000000000000000000",
      "reserved": "",
      "salt": "0x04d4d4e2e79dc31a71d93a62c3b7921da4690463570db4d8e831f5f40e6256a6",
      "assetIds": []
    },
    {
      "x": 317,
      "y": 260,
      "size": 1,
      "price": "4683000000000000000000",
      "reserved": "",
      "salt": "0xc1f49ed3344713fb92093becbabff2ab34e2c45ccd623c7c26cdf1510b5a4b1d",
      "assetIds": []
    },
    {
      "x": 317,
      "y": 261,
      "size": 1,
      "price": "4683000000000000000000",
      "reserved": "",
      "salt": "0x61cf755e25e448befe96a9dac502275c8880ed69c12a681ed0479c9a03578f17",
      "assetIds": []
    },
    {
      "x": 317,
      "y": 262,
      "size": 1,
      "price": "4683000000000000000000",
      "reserved": "",
      "salt": "0xe8e23dfd3fa3b6b48e5b3abef63f485b553ba94d1ef86495d38b52c23afb2559",
      "assetIds": []
    },
    {
      "x": 317,
      "y": 263,
      "size": 1,
      "price": "4683000000000000000000",
      "reserved": "",
      "salt": "0x09afee8601978bc9384d38845122a8b683949a905aaa33767dbaec4a92b095bd",
      "assetIds": []
    },
    {
      "x": 317,
      "y": 264,
      "size": 1,
      "price": "1011000000000000000000",
      "reserved": "",
      "salt": "0x5348c95fd80235edb24557d961d90925ff8f0431923d00d22912fe92b5a90d55",
      "assetIds": []
    },
    {
      "x": 317,
      "y": 265,
      "size": 1,
      "price": "1011000000000000000000",
      "reserved": "",
      "salt": "0x5a9321e5558d20b946ad7ab190771fdbb8b251ecc7befbfa5f597c5b8b217399",
      "assetIds": []
    },
    {
      "x": 317,
      "y": 266,
      "size": 1,
      "price": "1011000000000000000000",
      "reserved": "",
      "salt": "0x4494770cb1920e998e31f84e232661d2b649baf401ecb0b629d1bb4a1523652c",
      "assetIds": []
    },
    {
      "x": 317,
      "y": 270,
      "size": 1,
      "price": "1011000000000000000000",
      "reserved": "",
      "salt": "0x0c4b41e4501b943ecdeea40c3b4d292f77b9c36940fe193501181c918d36b9ab",
      "assetIds": []
    },
    {
      "x": 317,
      "y": 271,
      "size": 1,
      "price": "1011000000000000000000",
      "reserved": "0x7a9fe22691c811ea339d9b73150e6911a5343dca",
      "salt": "0xf51f4ab9e3f7dabe4c4dff9c82d94139ddc919e9090dd04c50e2da887f8f087e",
      "assetIds": []
    },
    {
      "x": 317,
      "y": 272,
      "size": 1,
      "price": "1011000000000000000000",
      "reserved": "",
      "salt": "0x536cddee88e6dbc099d9b004b06999b1c1bd55216dc6aaf54de32cc181f5c1df",
      "assetIds": []
    },
    {
      "x": 318,
      "y": 240,
      "size": 1,
      "price": "1011000000000000000000",
      "reserved": "",
      "salt": "0xdb3e9ca2d63f90bf9076b6f764ae41a3b70a9f91ed053aece39ed14ff6c53bf0",
      "assetIds": []
    },
    {
      "x": 318,
      "y": 241,
      "size": 1,
      "price": "1011000000000000000000",
      "reserved": "",
      "salt": "0x36b1aafd43d5b335408bd235fc3547ae637a8a51246cfeb2161623246db5e787",
      "assetIds": []
    },
    {
      "x": 318,
      "y": 242,
      "size": 1,
      "price": "1011000000000000000000",
      "reserved": "",
      "salt": "0x5b2e756359fda0fafcd48b18439d71d701acd9702992caa56a8c63e36b6ba382",
      "assetIds": []
    },
    {
      "x": 318,
      "y": 243,
      "size": 1,
      "price": "1011000000000000000000",
      "reserved": "",
      "salt": "0xe695098c24d65d34a50e344b2fe9b14989829735947c4a137c7731c84276bb21",
      "assetIds": []
    },
    {
      "x": 318,
      "y": 244,
      "size": 1,
      "price": "1011000000000000000000",
      "reserved": "",
      "salt": "0x2f6eb794304d2032fb262bee3e30816be4eff0a667089cd9faea119cc21bbb50",
      "assetIds": []
    },
    {
      "x": 318,
      "y": 245,
      "size": 1,
      "price": "4683000000000000000000",
      "reserved": "",
      "salt": "0x0accb77fa94b20a9b89b41fdef92e0d7ceb56493c5c10468ac94d3a473a588fa",
      "assetIds": []
    },
    {
      "x": 318,
      "y": 255,
      "size": 1,
      "price": "1011000000000000000000",
      "reserved": "",
      "salt": "0x0bec74b908903128b94fbc03097e3b037c18ef5158f19055cb80c7e59389f064",
      "assetIds": []
    },
    {
      "x": 318,
      "y": 256,
      "size": 1,
      "price": "1011000000000000000000",
      "reserved": "",
      "salt": "0x4889b6c21d435ce5aa4caa7e1c9d58a6adff71a5d059213e001910a381683890",
      "assetIds": []
    },
    {
      "x": 318,
      "y": 257,
      "size": 1,
      "price": "4683000000000000000000",
      "reserved": "",
      "salt": "0xfa169f50e70fd71d189dcaff7db17df2f489e3de88eb6d6184a6adc3c8050e58",
      "assetIds": []
    },
    {
      "x": 318,
      "y": 264,
      "size": 1,
      "price": "4683000000000000000000",
      "reserved": "",
      "salt": "0x84236b6921f365854075af34ad70413549f2dda8e28804957e9314c7a216c29b",
      "assetIds": []
    },
    {
      "x": 318,
      "y": 265,
      "size": 1,
      "price": "1011000000000000000000",
      "reserved": "",
      "salt": "0x06c4d987e7fd17f4c557ff439189985bf063077f5fc362ccce90d9692cb48ef8",
      "assetIds": []
    },
    {
      "x": 318,
      "y": 266,
      "size": 1,
      "price": "1011000000000000000000",
      "reserved": "",
      "salt": "0x296f7e97d614aaffaea1d9244ab4151e71011edfda653d6d9c95e1062a7c3bba",
      "assetIds": []
    },
    {
      "x": 319,
      "y": 240,
      "size": 1,
      "price": "1011000000000000000000",
      "reserved": "",
      "salt": "0xfa210e8dce53394f0be54ece5293bff7aadb7429f5c6f1e5519ee8faa713669c",
      "assetIds": []
    },
    {
      "x": 319,
      "y": 241,
      "size": 1,
      "price": "1011000000000000000000",
      "reserved": "",
      "salt": "0x220e448ce24cbfbc76a38a28f188e66ff4cb42f73e82be2ff4f0936daa36f0fd",
      "assetIds": []
    },
    {
      "x": 319,
      "y": 242,
      "size": 1,
      "price": "1011000000000000000000",
      "reserved": "",
      "salt": "0x52730fdca6f62f343e915c10f4b991de0366bd512b6ee6807c856ad98402865a",
      "assetIds": []
    },
    {
      "x": 319,
      "y": 243,
      "size": 1,
      "price": "1011000000000000000000",
      "reserved": "",
      "salt": "0x350a0ee806fd1e004fd08ea30c62f6f8fdc182a494a937d0681298fa89db2a77",
      "assetIds": []
    },
    {
      "x": 319,
      "y": 244,
      "size": 1,
      "price": "1011000000000000000000",
      "reserved": "",
      "salt": "0x270be2e4f8d54855afdf5c55f76e766e68efcadbefdc228c652e5b0ae957e13f",
      "assetIds": []
    },
    {
      "x": 319,
      "y": 245,
      "size": 1,
      "price": "4683000000000000000000",
      "reserved": "",
      "salt": "0xbf59a9214d49b88754f3821f031b9e318c1b15cdc0d1bad2e2e062e0610b694a",
      "assetIds": []
    },
    {
      "x": 319,
      "y": 255,
      "size": 1,
      "price": "1011000000000000000000",
      "reserved": "",
      "salt": "0x4f620cce0ae6835e1656434b86006b1186e152bc244eb792a2f475a0115f6b79",
      "assetIds": []
    },
    {
      "x": 319,
      "y": 256,
      "size": 1,
      "price": "1011000000000000000000",
      "reserved": "",
      "salt": "0xf10dc026f260c1c9bb2c654a190970e2afeb50118536183811f81e865b5b9fa0",
      "assetIds": []
    },
    {
      "x": 319,
      "y": 257,
      "size": 1,
      "price": "1011000000000000000000",
      "reserved": "",
      "salt": "0xf08543bc26189deffb3e3bccf860a7dba27fef9fd2755993e830271dcd59487e",
      "assetIds": []
    },
    {
      "x": 319,
      "y": 264,
      "size": 1,
      "price": "1011000000000000000000",
      "reserved": "0x7a9fe22691c811ea339d9b73150e6911a5343dca",
      "salt": "0xfe2c23c1a6cf76c89bcf12814c77e2f5c670cf9caccaca0ed53755201e4275c7",
      "assetIds": []
    },
    {
      "x": 319,
      "y": 265,
      "size": 1,
      "price": "1011000000000000000000",
      "reserved": "",
      "salt": "0x3bbaf111250289417dfe5bebe5c6a5e4f569e0df31cf62c31f06e73311d286b9",
      "assetIds": []
    },
    {
      "x": 319,
      "y": 266,
      "size": 1,
      "price": "1011000000000000000000",
      "reserved": "",
      "salt": "0xd6c0e9105533d2fe882c44b8bd226807d896290202a2257fd39981437a9095a3",
      "assetIds": []
    },
    {
      "x": 320,
      "y": 240,
      "size": 1,
      "price": "1011000000000000000000",
      "reserved": "0x7a9fe22691c811ea339d9b73150e6911a5343dca",
      "salt": "0x07f4aaa133d08b2018a4735868f3baf7cfa3745dd9fd97e937907de7c3553a1b",
      "assetIds": []
    },
    {
      "x": 320,
      "y": 241,
      "size": 1,
      "price": "1011000000000000000000",
      "reserved": "",
      "salt": "0x30d565e55c797f9911973718ba7d07859c92d8d868ac906a989f5667db0900cc",
      "assetIds": []
    },
    {
      "x": 320,
      "y": 242,
      "size": 1,
      "price": "1011000000000000000000",
      "reserved": "",
      "salt": "0xab4d061be63f43f06c827f8a79b82e9fdbe2235edc375970418a258ce317344d",
      "assetIds": []
    },
    {
      "x": 320,
      "y": 243,
      "size": 1,
      "price": "1011000000000000000000",
      "reserved": "",
      "salt": "0x638bd926aeaded5b4fe447b559ff3449c44ae8db8ca0797399bb7a9893615e41",
      "assetIds": []
    },
    {
      "x": 320,
      "y": 244,
      "size": 1,
      "price": "1011000000000000000000",
      "reserved": "",
      "salt": "0xd794934c72d7d2815f6c78165a7b0983c3956c52b49526a7832183aa40c179c0",
      "assetIds": []
    },
    {
      "x": 320,
      "y": 245,
      "size": 1,
      "price": "4683000000000000000000",
      "reserved": "",
      "salt": "0x58bb795d9364133e07c4d4950a5b822a97d10c2beabf79a0a9eb3ec240ff45d7",
      "assetIds": []
    },
    {
      "x": 320,
      "y": 255,
      "size": 1,
      "price": "1011000000000000000000",
      "reserved": "",
      "salt": "0x161589e4a739108668cb8bf8ef73db85ec64d246c90dd8696c6257aec87c9eb2",
      "assetIds": []
    },
    {
      "x": 320,
      "y": 256,
      "size": 1,
      "price": "1011000000000000000000",
      "reserved": "",
      "salt": "0x63b1abf49bf4000825c78dfa1f9e29e75753cd374fedcb1467fb7e847e2c426e",
      "assetIds": []
    },
    {
      "x": 320,
      "y": 257,
      "size": 1,
      "price": "4683000000000000000000",
      "reserved": "",
      "salt": "0x8423d42a2c5d3019839b166beb21f618be599f00bc6088bccd2013a405302d54",
      "assetIds": []
    },
    {
      "x": 320,
      "y": 264,
      "size": 1,
      "price": "4683000000000000000000",
      "reserved": "",
      "salt": "0xcf81acebd878ecf3639d429cec3daf535b0ae4f713fa8b3ec9767034c0183730",
      "assetIds": []
    },
    {
      "x": 320,
      "y": 265,
      "size": 1,
      "price": "1011000000000000000000",
      "reserved": "",
      "salt": "0x421f3b918a53bdd9e2dd930e12cda76448244916253535705d304b8ecfeea71e",
      "assetIds": []
    },
    {
      "x": 320,
      "y": 266,
      "size": 1,
      "price": "1011000000000000000000",
      "reserved": "",
      "salt": "0x49c76ec1a90931d0d155f584c32107e1fbb8c780123ffc26e4dddf1f434d83a2",
      "assetIds": []
    },
    {
      "x": 321,
      "y": 243,
      "size": 1,
      "price": "1011000000000000000000",
      "reserved": "",
      "salt": "0x100b390a7d930eefaf1a20641081bb83e137c8fc3fffccc58c7b86e76099aaeb",
      "assetIds": []
    },
    {
      "x": 321,
      "y": 244,
      "size": 1,
      "price": "1011000000000000000000",
      "reserved": "",
      "salt": "0x414d5628ea4ab3bea964802971a40c25286a1a1b233ab3d8a145cab9b63f6cc1",
      "assetIds": []
    },
    {
      "x": 321,
      "y": 245,
      "size": 1,
      "price": "1011000000000000000000",
      "reserved": "",
      "salt": "0xa804f9a04dd56d7b8b6d8299d4290e9a893608965f5b92ec0b34e223f4b58ee2",
      "assetIds": []
    },
    {
      "x": 321,
      "y": 252,
      "size": 1,
      "price": "4683000000000000000000",
      "reserved": "",
      "salt": "0x376276d052124787e056cf86a2acf71b2430f2a539bcafd9c75995ed71a67029",
      "assetIds": []
    },
    {
      "x": 321,
      "y": 253,
      "size": 1,
      "price": "1011000000000000000000",
      "reserved": "",
      "salt": "0x0020ef418e1b0c0339eff4a27d7e62eb9f20ba594bbd995f91f51015a0326f64",
      "assetIds": []
    },
    {
      "x": 321,
      "y": 254,
      "size": 1,
      "price": "1011000000000000000000",
      "reserved": "",
      "salt": "0x2cfc92e8769b5ffd39670c77b2febf1ec14e9c3c4a157ff8d1a2087d65508a88",
      "assetIds": []
    },
    {
      "x": 321,
      "y": 264,
      "size": 1,
      "price": "4683000000000000000000",
      "reserved": "",
      "salt": "0x1d88575d8ba36013f236937b0baabbade5d9b4a151997a821afd67982f274dc8",
      "assetIds": []
    },
    {
      "x": 321,
      "y": 265,
      "size": 1,
      "price": "1011000000000000000000",
      "reserved": "",
      "salt": "0x53f55ed3d2acef5d80f93eb1edee046000b9119a85b9fa4167369cc506b79132",
      "assetIds": []
    },
    {
      "x": 321,
      "y": 266,
      "size": 1,
      "price": "1011000000000000000000",
      "reserved": "",
      "salt": "0xc5af051d080b6b6ab828d8046fb035d5a48c7d12d37f18699e0102d7df42ee82",
      "assetIds": []
    },
    {
      "x": 321,
      "y": 267,
      "size": 1,
      "price": "1011000000000000000000",
      "reserved": "",
      "salt": "0xd1c58b76b9a86f8ac329463fa6e4f30e95d1c96931ce783a43ffabc44f75c3ed",
      "assetIds": []
    },
    {
      "x": 321,
      "y": 268,
      "size": 1,
      "price": "1011000000000000000000",
      "reserved": "",
      "salt": "0xbb23eae452a109cde62934e975a96ac21baa5918c7795d29ccf1dd33fa584e0c",
      "assetIds": []
    },
    {
      "x": 321,
      "y": 269,
      "size": 1,
      "price": "1011000000000000000000",
      "reserved": "",
      "salt": "0x684913ecf0528fac23c27fa1fc8c4466b0869600a0fa4b7a6d67d494a5c030e5",
      "assetIds": []
    },
    {
      "x": 322,
      "y": 243,
      "size": 1,
      "price": "1011000000000000000000",
      "reserved": "",
      "salt": "0x0918880de33ed45d9d0eb5e9963c5aa8a49c16c0970c406ac4a5d5f8e785210a",
      "assetIds": []
    },
    {
      "x": 322,
      "y": 244,
      "size": 1,
      "price": "1011000000000000000000",
      "reserved": "",
      "salt": "0xb7ad4ba503d1aeba8acc6cb46386fa1126866b3c755b7f455d18bda5ec9e51c7",
      "assetIds": []
    },
    {
      "x": 322,
      "y": 245,
      "size": 1,
      "price": "4683000000000000000000",
      "reserved": "",
      "salt": "0x55327956be63d0834ad2e10daebc69a0e016c7b8ce2f4ef9b75dbeca41bfbde1",
      "assetIds": []
    },
    {
      "x": 322,
      "y": 252,
      "size": 1,
      "price": "1011000000000000000000",
      "reserved": "0x7a9fe22691c811ea339d9b73150e6911a5343dca",
      "salt": "0x20bbef81672d808303672291902ca7596ed28053a0098b8850bbef479d09c608",
      "assetIds": []
    },
    {
      "x": 322,
      "y": 253,
      "size": 1,
      "price": "1011000000000000000000",
      "reserved": "",
      "salt": "0xfd85538062be4b110c5adf17dd01ae12ee809302ed192ee9d41092a1e58e12f7",
      "assetIds": []
    },
    {
      "x": 322,
      "y": 254,
      "size": 1,
      "price": "1011000000000000000000",
      "reserved": "",
      "salt": "0x409e2e7d7a6b7aea6ff539eeae6162ddfa6112420bdbbfb65c474660ad3a765c",
      "assetIds": []
    },
    {
      "x": 322,
      "y": 264,
      "size": 1,
      "price": "4683000000000000000000",
      "reserved": "",
      "salt": "0x01a89bcab8fd2d0593987900cf3436bd8c3ea2878cef14851db1cb69275195e5",
      "assetIds": []
    },
    {
      "x": 322,
      "y": 265,
      "size": 1,
      "price": "1011000000000000000000",
      "reserved": "",
      "salt": "0xb7cec3e572921f41555643272096346b7eb32362583e4b70d17df3b36f6a2d96",
      "assetIds": []
    },
    {
      "x": 322,
      "y": 266,
      "size": 1,
      "price": "1011000000000000000000",
      "reserved": "",
      "salt": "0x176ade6dfb2ae70cafcb14e3a0854ab3fda11d1ba235a36c35d8c00d037fc2db",
      "assetIds": []
    },
    {
      "x": 322,
      "y": 267,
      "size": 1,
      "price": "1011000000000000000000",
      "reserved": "",
      "salt": "0x25ab68e15d53ea80f5ee8ebc6846e8904bbaf55459e416880690ad54220ebaf6",
      "assetIds": []
    },
    {
      "x": 322,
      "y": 268,
      "size": 1,
      "price": "1011000000000000000000",
      "reserved": "",
      "salt": "0xf03a4cbf9b0866c2bfc190bb0f1c465b0b947adffcf34de42b2ac15be1bffb98",
      "assetIds": []
    },
    {
      "x": 322,
      "y": 269,
      "size": 1,
      "price": "1011000000000000000000",
      "reserved": "",
      "salt": "0x166e2a8f5f3e06d0c260c3f47b0f99dcc5102fe6eb41c3741e910063b8e9cc24",
      "assetIds": []
    },
    {
      "x": 323,
      "y": 243,
      "size": 1,
      "price": "1011000000000000000000",
      "reserved": "",
      "salt": "0x6718d8731ff7aefcee76e542f8e6d4272d7fce1a3f2ed56ee4ad12517793ffa2",
      "assetIds": []
    },
    {
      "x": 323,
      "y": 244,
      "size": 1,
      "price": "1011000000000000000000",
      "reserved": "",
      "salt": "0x52c80d1da8ff95ee13ffffab284fa964c8d39995b4527b585df3376efbd8a89d",
      "assetIds": []
    },
    {
      "x": 323,
      "y": 245,
      "size": 1,
      "price": "4683000000000000000000",
      "reserved": "",
      "salt": "0x78773d554b8bd9a3f1eba28f0e1d102e91a6b5b1a3f7876a836e3738bc0f17ed",
      "assetIds": []
    },
    {
      "x": 323,
      "y": 252,
      "size": 1,
      "price": "4683000000000000000000",
      "reserved": "",
      "salt": "0x8fe52a2d681448b725e6f0f90261bc50071f014303ea40beb311b8e49b8676c7",
      "assetIds": []
    },
    {
      "x": 323,
      "y": 253,
      "size": 1,
      "price": "1011000000000000000000",
      "reserved": "",
      "salt": "0x4e37d6e86cfb1dc2b532e12388600ee4be124e1f2f422ea1d7ce4ac7f4a8bb36",
      "assetIds": []
    },
    {
      "x": 323,
      "y": 254,
      "size": 1,
      "price": "1011000000000000000000",
      "reserved": "",
      "salt": "0x77498760b626a39c5fa7880eec56715fed6ee8d0a21e5b219a3a5ab5e10f1b79",
      "assetIds": []
    },
    {
      "x": 323,
      "y": 264,
      "size": 1,
      "price": "4683000000000000000000",
      "reserved": "",
      "salt": "0xd7afebd33983e356ca96479c6cd0196871335fac66a7995ef5f6d9d2220f788a",
      "assetIds": []
    },
    {
      "x": 323,
      "y": 265,
      "size": 1,
      "price": "1011000000000000000000",
      "reserved": "",
      "salt": "0x5be3812c93bad4d7946f7206b1a1a4e482ed962cbd0db8016ec099999b228fa8",
      "assetIds": []
    },
    {
      "x": 323,
      "y": 266,
      "size": 1,
      "price": "1011000000000000000000",
      "reserved": "",
      "salt": "0x0afa18a6068b6e2afa00534c9f1dd0a41be02a416cbbbb2f043e3c6ab5c9c31d",
      "assetIds": []
    },
    {
      "x": 323,
      "y": 267,
      "size": 1,
      "price": "1011000000000000000000",
      "reserved": "",
      "salt": "0x0a0730df4a01a9330401c90a8d9f667b8a4f8e8257727a635d9f8867b1ce0bcf",
      "assetIds": []
    },
    {
      "x": 323,
      "y": 268,
      "size": 1,
      "price": "1011000000000000000000",
      "reserved": "",
      "salt": "0xa296b1a7735b9c6235b5e4fc2e98a22e13dcf11054c86c0ddf3d4f407dbe4f9c",
      "assetIds": []
    },
    {
      "x": 323,
      "y": 269,
      "size": 1,
      "price": "1011000000000000000000",
      "reserved": "0x7a9fe22691c811ea339d9b73150e6911a5343dca",
      "salt": "0x4ab4bb512b4d78e31da1fa5b7e9f46d86bf25580277344f8ef1e07fd3c090466",
      "assetIds": []
    },
    {
      "x": 324,
      "y": 243,
      "size": 1,
      "price": "1011000000000000000000",
      "reserved": "",
      "salt": "0x505ceca7f85c888a60afd9722091cbe73fcffdbdea65c59c5b591f46cdb311d8",
      "assetIds": []
    },
    {
      "x": 324,
      "y": 244,
      "size": 1,
      "price": "1011000000000000000000",
      "reserved": "",
      "salt": "0xa47448bb1b6b6297ae9766d21efa9a49c4fbba450164415cff4a7f1e77343103",
      "assetIds": []
    },
    {
      "x": 324,
      "y": 245,
      "size": 1,
      "price": "1011000000000000000000",
      "reserved": "0x7a9fe22691c811ea339d9b73150e6911a5343dca",
      "salt": "0xbc149633dc44545c225a326834b1dbdb397d31ea66d2f984d51f3d61874af958",
      "assetIds": []
    },
    {
      "x": 324,
      "y": 246,
      "size": 1,
      "price": "4683000000000000000000",
      "reserved": "",
      "salt": "0x9cf3d80342d215398ad51a6359edfe88acc886c9907c9b123fead1f18591495e",
      "assetIds": []
    },
    {
      "x": 324,
      "y": 247,
      "size": 1,
      "price": "4683000000000000000000",
      "reserved": "",
      "salt": "0xbf660c460284c3cb9fd5baecfcbc21d9c10acd006caf84e6f0d958a701549e81",
      "assetIds": []
    },
    {
      "x": 324,
      "y": 248,
      "size": 1,
      "price": "4683000000000000000000",
      "reserved": "",
      "salt": "0xd6f709317fdadf5fe5a3b0ae8fbcc38190208c24277d91f202372180f8bd4ada",
      "assetIds": []
    },
    {
      "x": 324,
      "y": 249,
      "size": 1,
      "price": "4683000000000000000000",
      "reserved": "",
      "salt": "0xef9a39f428d0dd7972764371f97e8888b594f366af804dbda65fcf3d70b24534",
      "assetIds": []
    },
    {
      "x": 324,
      "y": 250,
      "size": 1,
      "price": "4683000000000000000000",
      "reserved": "",
      "salt": "0x38e5a92d1aa6e843fe990147a92e99e48bb7803a7dbc4f10c21da6efbf4693db",
      "assetIds": []
    },
    {
      "x": 324,
      "y": 251,
      "size": 1,
      "price": "4683000000000000000000",
      "reserved": "",
      "salt": "0xba2f2e50575ce3d1b11aee26599e3109d196bb2c419d52f64147687c742f157c",
      "assetIds": []
    },
    {
      "x": 324,
      "y": 255,
      "size": 1,
      "price": "1011000000000000000000",
      "reserved": "",
      "salt": "0xe4f225c460e0310a60d1a79bb633d9e672823ac2d20c9849299e53a617b6bce0",
      "assetIds": []
    },
    {
      "x": 324,
      "y": 256,
      "size": 1,
      "price": "1011000000000000000000",
      "reserved": "",
      "salt": "0x9e65bd7e4d3724894538c8a3f0718b156e304b0eff7fe10e94f21a58185029ec",
      "assetIds": []
    },
    {
      "x": 324,
      "y": 257,
      "size": 1,
      "price": "4683000000000000000000",
      "reserved": "",
      "salt": "0x63a639f610a0faa1a353567adba69438982df64c1926e7d87228568f0e406095",
      "assetIds": []
    },
    {
      "x": 324,
      "y": 261,
      "size": 1,
      "price": "1011000000000000000000",
      "reserved": "0x7a9fe22691c811ea339d9b73150e6911a5343dca",
      "salt": "0x0c5da1d0da43bb367fb929d543cbc73b130e8b386b203fd4545113d3d7d04dbe",
      "assetIds": []
    },
    {
      "x": 324,
      "y": 262,
      "size": 1,
      "price": "4683000000000000000000",
      "reserved": "",
      "salt": "0x2a2f340294ca726d0e708e18242ac006e6abc048ac2d28ebe038f2d2046c905b",
      "assetIds": []
    },
    {
      "x": 324,
      "y": 263,
      "size": 1,
      "price": "4683000000000000000000",
      "reserved": "",
      "salt": "0x4588f3b70524d117bb7cdfb7af72938505334d0a576f25c3ec6e80c4a784559e",
      "assetIds": []
    },
    {
      "x": 324,
      "y": 270,
      "size": 1,
      "price": "1011000000000000000000",
      "reserved": "0x7a9fe22691c811ea339d9b73150e6911a5343dca",
      "salt": "0xb4151efff9f38388748fe4604fbcb0853c4cea9905868ea3c5287bd396334626",
      "assetIds": []
    },
    {
      "x": 324,
      "y": 271,
      "size": 1,
      "price": "1011000000000000000000",
      "reserved": "",
      "salt": "0x4f0832c84f303f57004f95f501753dd7242b8b0cfab3ed2e4ad75287548d9b8d",
      "assetIds": []
    },
    {
      "x": 324,
      "y": 272,
      "size": 1,
      "price": "1011000000000000000000",
      "reserved": "",
      "salt": "0x6a837ff2e47c121311ea0100a0ee787a01a77ca7e862a106972966fec55c63c3",
      "assetIds": []
    },
    {
      "x": 325,
      "y": 243,
      "size": 1,
      "price": "1011000000000000000000",
      "reserved": "",
      "salt": "0xb654dfa4632d3635001b5a19804be3afef113360ed414759f660751da709a715",
      "assetIds": []
    },
    {
      "x": 325,
      "y": 244,
      "size": 1,
      "price": "1011000000000000000000",
      "reserved": "0x7a9fe22691c811ea339d9b73150e6911a5343dca",
      "salt": "0xc5fb730e3ed2ebec46e032ae4a161c9d20ada7394d6ccab1a2632e1b3e8355ba",
      "assetIds": []
    },
    {
      "x": 325,
      "y": 245,
      "size": 1,
      "price": "1011000000000000000000",
      "reserved": "",
      "salt": "0x7bf15913d3dd27d0ed145fdd5783700888db3c7bdc74da184d5f6d23af7864f2",
      "assetIds": []
    },
    {
      "x": 325,
      "y": 246,
      "size": 1,
      "price": "1011000000000000000000",
      "reserved": "",
      "salt": "0xb35909b361477a589077c8169f614cd0c511b8129db85bd271d07ae963ed53e1",
      "assetIds": []
    },
    {
      "x": 325,
      "y": 247,
      "size": 1,
      "price": "1011000000000000000000",
      "reserved": "",
      "salt": "0x5258eb774493d528b9bcc7d2bf610052fa22ca32f923df9306eb7e973b12fb0f",
      "assetIds": []
    },
    {
      "x": 325,
      "y": 248,
      "size": 1,
      "price": "1011000000000000000000",
      "reserved": "",
      "salt": "0x8438f406fd3350a56e8833d95b1023163e97e48bc3f6e19a809ecac5c2b7c78c",
      "assetIds": []
    },
    {
      "x": 325,
      "y": 249,
      "size": 1,
      "price": "1011000000000000000000",
      "reserved": "",
      "salt": "0x6329970c795eb3de2cf6e006b98bdb8c3e8d95dca250bc390f149bc513311a45",
      "assetIds": []
    },
    {
      "x": 325,
      "y": 250,
      "size": 1,
      "price": "1011000000000000000000",
      "reserved": "",
      "salt": "0xaf8eb5c24ab285530995f16d56bdfc7efb7808a726aa538f5f72e3e881cbe3fe",
      "assetIds": []
    },
    {
      "x": 325,
      "y": 251,
      "size": 1,
      "price": "1011000000000000000000",
      "reserved": "",
      "salt": "0x5dd4a5152ef41cbebfa6753607ea89301f0ce040464cf0ea5d8125eeb8d1ff94",
      "assetIds": []
    },
    {
      "x": 325,
      "y": 255,
      "size": 1,
      "price": "1011000000000000000000",
      "reserved": "",
      "salt": "0xf25aa230ec3bd8ea53a0c4032e2bc495cfb5a816f2af4acbc2b9cbd02d4900fc",
      "assetIds": []
    },
    {
      "x": 325,
      "y": 256,
      "size": 1,
      "price": "1011000000000000000000",
      "reserved": "",
      "salt": "0x97c26cf474bbceb1129c846f58d3ee583f961710974adc3f074ff82ddfce0f1a",
      "assetIds": []
    },
    {
      "x": 325,
      "y": 257,
      "size": 1,
      "price": "1011000000000000000000",
      "reserved": "0x7a9fe22691c811ea339d9b73150e6911a5343dca",
      "salt": "0x22181e6e80d4e237d1272a10c7724ef62dbec38da970559479e57dd5f58e1990",
      "assetIds": []
    },
    {
      "x": 325,
      "y": 261,
      "size": 1,
      "price": "4683000000000000000000",
      "reserved": "",
      "salt": "0xa7cbdc4035e4f23c8ea5665dd2c5b3b0f3c6d1d60fc0c92782ab01891a35b4d5",
      "assetIds": []
    },
    {
      "x": 325,
      "y": 262,
      "size": 1,
      "price": "1011000000000000000000",
      "reserved": "",
      "salt": "0xc0692c272d92e23865a0e764c6c7a5f59c2e654e1367ce23302ccb5b83f82b3c",
      "assetIds": []
    },
    {
      "x": 325,
      "y": 263,
      "size": 1,
      "price": "1011000000000000000000",
      "reserved": "",
      "salt": "0x8aac437809a2c037911ee6f4a77664cb9139fe3e1177c7f8d44932ee0370490a",
      "assetIds": []
    },
    {
      "x": 325,
      "y": 270,
      "size": 1,
      "price": "1011000000000000000000",
      "reserved": "",
      "salt": "0xe84c8b89a50ab90c0ebb4d0e75b4b1ed09988dfaa81de21c54cb6a9cd9c92ff6",
      "assetIds": []
    },
    {
      "x": 325,
      "y": 271,
      "size": 1,
      "price": "1011000000000000000000",
      "reserved": "",
      "salt": "0x722abf57421b8f189d0cc04de38f77f45b2079cefa3b23c1144c30886ad5fc7c",
      "assetIds": []
    },
    {
      "x": 325,
      "y": 272,
      "size": 1,
      "price": "1011000000000000000000",
      "reserved": "",
      "salt": "0x402b0119833ca1d993ce47c4f98c61bd785d33969e08b7e906896a23c911a06c",
      "assetIds": []
    },
    {
      "x": 326,
      "y": 243,
      "size": 1,
      "price": "1011000000000000000000",
      "reserved": "",
      "salt": "0x874455b7f4655e04b41773fde1ecdf3d2653d2118ed8cde77a6f658007241c68",
      "assetIds": []
    },
    {
      "x": 326,
      "y": 244,
      "size": 1,
      "price": "1011000000000000000000",
      "reserved": "",
      "salt": "0x1e9c4d88f622ba670e7bd6601778669d74ca450484a43122a1cd4f87d5063fb4",
      "assetIds": []
    },
    {
      "x": 326,
      "y": 245,
      "size": 1,
      "price": "1011000000000000000000",
      "reserved": "",
      "salt": "0xa455a43c6a27f644258461e2edd158c358a412475c00b46ae5c7c2b2694804ec",
      "assetIds": []
    },
    {
      "x": 326,
      "y": 246,
      "size": 1,
      "price": "1011000000000000000000",
      "reserved": "",
      "salt": "0x3bd9f5fb18bf2d7f5652cb3336d53f208fbb31022bdd96c480edc3b0428412cd",
      "assetIds": []
    },
    {
      "x": 326,
      "y": 247,
      "size": 1,
      "price": "1011000000000000000000",
      "reserved": "0x7a9fe22691c811ea339d9b73150e6911a5343dca",
      "salt": "0xd85eca7f5817f47c8077da81cd6f5b93e5b3aca50141350d33e689443037a68f",
      "assetIds": []
    },
    {
      "x": 326,
      "y": 248,
      "size": 1,
      "price": "1011000000000000000000",
      "reserved": "",
      "salt": "0xa45b503cb81c368450cc71bfde9088f96dc3fff6224978c3f2d09986b0a375fd",
      "assetIds": []
    },
    {
      "x": 326,
      "y": 249,
      "size": 1,
      "price": "1011000000000000000000",
      "reserved": "",
      "salt": "0x1b1bba3519fb8d8ef6bd9166b32a255e628ecda36b098438983e8f00e7a71906",
      "assetIds": []
    },
    {
      "x": 326,
      "y": 250,
      "size": 1,
      "price": "1011000000000000000000",
      "reserved": "",
      "salt": "0xe4cd03ffcb703909b0fe34c36d296d5b89b87e7e9e2045e8af43e38c669566d1",
      "assetIds": []
    },
    {
      "x": 326,
      "y": 251,
      "size": 1,
      "price": "1011000000000000000000",
      "reserved": "",
      "salt": "0xebce3839186dd8250ac2af9addca8640a4ead55688de6b4e808f8f2c2ccdd257",
      "assetIds": []
    },
    {
      "x": 326,
      "y": 255,
      "size": 1,
      "price": "1011000000000000000000",
      "reserved": "",
      "salt": "0xfa19ae54090a528629f52851b8319a4e67e03d30cd549230ef96d0d9466be3d9",
      "assetIds": []
    },
    {
      "x": 326,
      "y": 256,
      "size": 1,
      "price": "1011000000000000000000",
      "reserved": "",
      "salt": "0x7a66d0edd97f5f4c959ee5527b6c59076933f77cbb18778e5287f6c334a01c53",
      "assetIds": []
    },
    {
      "x": 326,
      "y": 257,
      "size": 1,
      "price": "4683000000000000000000",
      "reserved": "",
      "salt": "0xd42228722f24db3dbef986af36b12edc1b5336c5102193d2ccb5580fd38e18da",
      "assetIds": []
    },
    {
      "x": 326,
      "y": 261,
      "size": 1,
      "price": "4683000000000000000000",
      "reserved": "",
      "salt": "0x4ee4dc5738f1983ac8ae1ee3887d052a161eb2e9661cdae49fc424f1fc2381d7",
      "assetIds": []
    },
    {
      "x": 326,
      "y": 262,
      "size": 1,
      "price": "1011000000000000000000",
      "reserved": "",
      "salt": "0xa03bef363ac171305c9c8a775c18a3afdc19849361ab0459000ef413e7e9f1d8",
      "assetIds": []
    },
    {
      "x": 326,
      "y": 263,
      "size": 1,
      "price": "1011000000000000000000",
      "reserved": "",
      "salt": "0xa817c8352f9d44f9bff879479dfe5cd12fa8cfa009385ca2be55c8b24d9a7070",
      "assetIds": []
    },
    {
      "x": 326,
      "y": 270,
      "size": 1,
      "price": "1011000000000000000000",
      "reserved": "",
      "salt": "0x427595dc721ea564fd5e73c1c37bca4489d2b4238ff6e9a1aa40bab9244b4611",
      "assetIds": []
    },
    {
      "x": 326,
      "y": 271,
      "size": 1,
      "price": "1011000000000000000000",
      "reserved": "",
      "salt": "0xdcfbc2f46893eb0824e3829635ea9260e95828f6cd12f97b738528618b5a5f53",
      "assetIds": []
    },
    {
      "x": 326,
      "y": 272,
      "size": 1,
      "price": "1011000000000000000000",
      "reserved": "",
      "salt": "0x8e41e03f541539bc34560289293caa2a53450aa57f8d97012b86f392079a5a80",
      "assetIds": []
    },
    {
      "x": 327,
      "y": 246,
      "size": 1,
      "price": "1011000000000000000000",
      "reserved": "",
      "salt": "0x7918dd012846e70780f1249751f3c6cd1e6adc9a855e1589fc75247f6c982954",
      "assetIds": []
    },
    {
      "x": 327,
      "y": 247,
      "size": 1,
      "price": "1011000000000000000000",
      "reserved": "0x7a9fe22691c811ea339d9b73150e6911a5343dca",
      "salt": "0x8c5be9958c6769d6ff8bfde2d9bd5cc38f41e2c1943afbcf6722d8243499a6b3",
      "assetIds": []
    },
    {
      "x": 327,
      "y": 248,
      "size": 1,
      "price": "1011000000000000000000",
      "reserved": "",
      "salt": "0x2d281d5d1f639c44ca41eaa6ce091018574f1ab5a9e85770cc7668d77a24e837",
      "assetIds": []
    },
    {
      "x": 327,
      "y": 252,
      "size": 1,
      "price": "1011000000000000000000",
      "reserved": "",
      "salt": "0x140945701b0d0c60da80bd925b6c3fe03065c043a94014db45e732aa4a67690c",
      "assetIds": []
    },
    {
      "x": 327,
      "y": 253,
      "size": 1,
      "price": "1011000000000000000000",
      "reserved": "",
      "salt": "0xf8811e8c1f6d7716de6e786d449a593773c9353972c4eeed4003b9684780300c",
      "assetIds": []
    },
    {
      "x": 327,
      "y": 254,
      "size": 1,
      "price": "1011000000000000000000",
      "reserved": "",
      "salt": "0xbad1d901c63231d94e88a72ec4c7380facad987689954cfc0ab8d6baa1000bf8",
      "assetIds": []
    },
    {
      "x": 327,
      "y": 255,
      "size": 1,
      "price": "1011000000000000000000",
      "reserved": "",
      "salt": "0xe606327190908b95b37aa0582e624bd2a036bf6e8e55e3bd9d52a42bab52f8b1",
      "assetIds": []
    },
    {
      "x": 327,
      "y": 256,
      "size": 1,
      "price": "1011000000000000000000",
      "reserved": "",
      "salt": "0xd7d3aeb288111b411aaeb42862f211b0ae5ea1fb7661f6f9fa98294260466a08",
      "assetIds": []
    },
    {
      "x": 327,
      "y": 257,
      "size": 1,
      "price": "4683000000000000000000",
      "reserved": "",
      "salt": "0xcf5a6af9a695697fa0b25ebfacc45812c0b8962350a536018a473dfdfce988ac",
      "assetIds": []
    },
    {
      "x": 327,
      "y": 258,
      "size": 1,
      "price": "4683000000000000000000",
      "reserved": "",
      "salt": "0x044934c628b24cb712c545220fcd4e0562eab75d77586a42b8d23b50b4f5f235",
      "assetIds": []
    },
    {
      "x": 327,
      "y": 259,
      "size": 1,
      "price": "1011000000000000000000",
      "reserved": "",
      "salt": "0x628427317be2aacb6311258357bde7fdd429bd32d81df57d08562828cebcdfd9",
      "assetIds": []
    },
    {
      "x": 327,
      "y": 260,
      "size": 1,
      "price": "4683000000000000000000",
      "reserved": "",
      "salt": "0xf5c4bc3a5948a14fd8d0101278e21bafc77471f82f82533cefafd47f9b65dfa8",
      "assetIds": []
    },
    {
      "x": 327,
      "y": 273,
      "size": 1,
      "price": "1011000000000000000000",
      "reserved": "",
      "salt": "0x91d0d441a481293f376140ed05ec4446deb460804064549a2ad4c816fe7f09fd",
      "assetIds": []
    },
    {
      "x": 327,
      "y": 274,
      "size": 1,
      "price": "1011000000000000000000",
      "reserved": "",
      "salt": "0xaa4e6a317c1c8a36084df977909a74e03ddc83f21631d74ff1b4a98e1904ba14",
      "assetIds": []
    },
    {
      "x": 327,
      "y": 275,
      "size": 1,
      "price": "1011000000000000000000",
      "reserved": "",
      "salt": "0x067e8e6f9b901b952e382974da811e05b4435bc466f45bea474181a5d249f531",
      "assetIds": []
    },
    {
      "x": 328,
      "y": 246,
      "size": 1,
      "price": "1011000000000000000000",
      "reserved": "",
      "salt": "0x739390d3eb4e226918fef4f161c1c1217f95252305924a6c5a8a05a31deede7d",
      "assetIds": []
    },
    {
      "x": 328,
      "y": 247,
      "size": 1,
      "price": "1011000000000000000000",
      "reserved": "0x7a9fe22691c811ea339d9b73150e6911a5343dca",
      "salt": "0x591206f05b96a5ab586c2d1b71ee1031fe0dc85fe4a18ac9019680e7e2b7d6c9",
      "assetIds": []
    },
    {
      "x": 328,
      "y": 248,
      "size": 1,
      "price": "1011000000000000000000",
      "reserved": "",
      "salt": "0x62f77f026e9433011214bd31061eb3fe48f737666b5cd3ccc4113be482d167b3",
      "assetIds": []
    },
    {
      "x": 328,
      "y": 252,
      "size": 1,
      "price": "1011000000000000000000",
      "reserved": "",
      "salt": "0x773f7a3577e8d8422929f7aa72a57236077d085babda4ecc6492c78220a91f17",
      "assetIds": []
    },
    {
      "x": 328,
      "y": 253,
      "size": 1,
      "price": "1011000000000000000000",
      "reserved": "0x7a9fe22691c811ea339d9b73150e6911a5343dca",
      "salt": "0xbf1e10aa4a2d7c3ae258967023263de7a22455cad617046487e6a05be566c7e5",
      "assetIds": []
    },
    {
      "x": 328,
      "y": 254,
      "size": 1,
      "price": "1011000000000000000000",
      "reserved": "0x7a9fe22691c811ea339d9b73150e6911a5343dca",
      "salt": "0xeadf1d655efd9c1a06e99adcaa62e493025918bec683a66df2f33c44bd1ccc53",
      "assetIds": []
    },
    {
      "x": 328,
      "y": 255,
      "size": 1,
      "price": "1011000000000000000000",
      "reserved": "0x7a9fe22691c811ea339d9b73150e6911a5343dca",
      "salt": "0xf3fd18d16f4a708269f7cdcfc62173af7c26dc7615b82e5819ea3aff357aab71",
      "assetIds": []
    },
    {
      "x": 328,
      "y": 256,
      "size": 1,
      "price": "1011000000000000000000",
      "reserved": "",
      "salt": "0x075b8f19b2af07a19b5c77a0cd94157df7e01e58f07e04f12713cd8afca43763",
      "assetIds": []
    },
    {
      "x": 328,
      "y": 257,
      "size": 1,
      "price": "1011000000000000000000",
      "reserved": "",
      "salt": "0x50ef6dc7a93e0018d290a20321696ae8e747296fc5bebeccf5f54940f39df70e",
      "assetIds": []
    },
    {
      "x": 328,
      "y": 258,
      "size": 1,
      "price": "1011000000000000000000",
      "reserved": "",
      "salt": "0xe71eeaf77de187e4da85855736b63ee567b47038cea6d3cb45ca8c19e945362d",
      "assetIds": []
    },
    {
      "x": 328,
      "y": 259,
      "size": 1,
      "price": "1011000000000000000000",
      "reserved": "",
      "salt": "0xa2656b819c35ceb02e295a8dfe9cd815825b6ca164b42974c3cdb7a3042ad631",
      "assetIds": []
    },
    {
      "x": 328,
      "y": 260,
      "size": 1,
      "price": "1011000000000000000000",
      "reserved": "",
      "salt": "0x3ea2c34c88edb146203ffe7e6db20a1f478b2899544bc18f2d1c486b2fd1b98f",
      "assetIds": []
    },
    {
      "x": 328,
      "y": 273,
      "size": 1,
      "price": "1011000000000000000000",
      "reserved": "",
      "salt": "0xc0b3e67309eeb9ed021a51aa85520005c5b64f72c8712cae9bc4206494006e28",
      "assetIds": []
    },
    {
      "x": 328,
      "y": 274,
      "size": 1,
      "price": "1011000000000000000000",
      "reserved": "",
      "salt": "0xc63e8848b44b342b5c401b164bc790dde2eb5671f3e7683e31e5c979afcd723b",
      "assetIds": []
    },
    {
      "x": 328,
      "y": 275,
      "size": 1,
      "price": "1011000000000000000000",
      "reserved": "",
      "salt": "0x349b013e973f10e684d9b3464e50212a62a97af2f5e7d10256b9d7e32ee4e1e0",
      "assetIds": []
    },
    {
      "x": 329,
      "y": 246,
      "size": 1,
      "price": "1011000000000000000000",
      "reserved": "",
      "salt": "0xd807db3303f3a85610f142381e52ea3b136d7acb02c614e212e59bb8b0f28e0e",
      "assetIds": []
    },
    {
      "x": 329,
      "y": 247,
      "size": 1,
      "price": "1011000000000000000000",
      "reserved": "",
      "salt": "0x1867d6e5dc509831b8ee25a1070eacba235baa464f47a820991c74d1cad86732",
      "assetIds": []
    },
    {
      "x": 329,
      "y": 248,
      "size": 1,
      "price": "1011000000000000000000",
      "reserved": "",
      "salt": "0xb04f4497bb828de7e5993791ccded2ccdb0c52b4ba0037c256059eb3eed1f5cc",
      "assetIds": []
    },
    {
      "x": 329,
      "y": 252,
      "size": 1,
      "price": "1011000000000000000000",
      "reserved": "",
      "salt": "0xceea30e4f72cd71ed3729700a43acb4849a6e753e8ca0dee10b1c64dc548bbd9",
      "assetIds": []
    },
    {
      "x": 329,
      "y": 253,
      "size": 1,
      "price": "1011000000000000000000",
      "reserved": "",
      "salt": "0xde11b1e857f305da953be5b4e4b9a7487f232c417e4bd4eccfddeb6a694689cb",
      "assetIds": []
    },
    {
      "x": 329,
      "y": 254,
      "size": 1,
      "price": "1011000000000000000000",
      "reserved": "",
      "salt": "0x7d34034822d228bf1c74c294476f0a625af7a36089ab26c61c2dfa47acb31077",
      "assetIds": []
    },
    {
      "x": 329,
      "y": 255,
      "size": 1,
      "price": "1011000000000000000000",
      "reserved": "",
      "salt": "0xd118fb821a09f8c14aa2698c482f5c5a14acf9af2e4566bce651aaca56eaf963",
      "assetIds": []
    },
    {
      "x": 329,
      "y": 256,
      "size": 1,
      "price": "1011000000000000000000",
      "reserved": "",
      "salt": "0x043a2aa57cbc9e441935c913d1a78fde6b0e0fc8b3cb8ad359d5410045c02730",
      "assetIds": []
    },
    {
      "x": 329,
      "y": 257,
      "size": 1,
      "price": "1011000000000000000000",
      "reserved": "",
      "salt": "0xc11716c435a6543dec60a254296994fdac84c148a1f8cca1ca9600f27dae87f9",
      "assetIds": []
    },
    {
      "x": 329,
      "y": 258,
      "size": 1,
      "price": "1011000000000000000000",
      "reserved": "",
      "salt": "0xfd7b1397add0578ee998b903a8f2bf870f3491c7c68945fc478041a446a6ca9e",
      "assetIds": []
    },
    {
      "x": 329,
      "y": 259,
      "size": 1,
      "price": "1011000000000000000000",
      "reserved": "",
      "salt": "0x3e73fa2aa81dbbe29f4e9bee4b4b9664ebf496edbf2177756e3d1ec1db338d18",
      "assetIds": []
    },
    {
      "x": 329,
      "y": 260,
      "size": 1,
      "price": "1011000000000000000000",
      "reserved": "",
      "salt": "0x81b686aa088c70dab284470d9a2d429815834991509bb2f51b365c7578cf0e99",
      "assetIds": []
    },
    {
      "x": 329,
      "y": 273,
      "size": 1,
      "price": "1011000000000000000000",
      "reserved": "",
      "salt": "0x98e9c0153c0957b9510822bcdfac5ef2713670842162c0ae2722383e47b7cc5f",
      "assetIds": []
    },
    {
      "x": 329,
      "y": 274,
      "size": 1,
      "price": "1011000000000000000000",
      "reserved": "",
      "salt": "0x899a4d2d0ee884de0166037e49772c76b567dc6871a8a591aa3d19dd9c553375",
      "assetIds": []
    },
    {
      "x": 329,
      "y": 275,
      "size": 1,
      "price": "1011000000000000000000",
      "reserved": "",
      "salt": "0xca1635c180d2c281003da332191987b646b1dfd67514ac445fcac40c6569bf29",
      "assetIds": []
    },
    {
      "x": 330,
      "y": 258,
      "size": 1,
      "price": "1011000000000000000000",
      "reserved": "",
      "salt": "0xd015af987b9d825488799119ecc0f84bfb47ac629e01202c4ca0c4c787f253fe",
      "assetIds": []
    },
    {
      "x": 330,
      "y": 259,
      "size": 1,
      "price": "1011000000000000000000",
      "reserved": "",
      "salt": "0x5b3a788a25998ffb6b5d1618c3ac4c79734edacdea88e9e949538ac36c9c97a6",
      "assetIds": []
    },
    {
      "x": 330,
      "y": 260,
      "size": 1,
      "price": "1011000000000000000000",
      "reserved": "",
      "salt": "0xd341b4e94962f3bd8cac65d13e5721cff646ffc2e0f6c1dbc220e53c574f5a2a",
      "assetIds": []
    },
    {
      "x": 330,
      "y": 261,
      "size": 1,
      "price": "1011000000000000000000",
      "reserved": "",
      "salt": "0x5b95c9faee8595c488d65f05f03d5ed7ce7828ff582fe9c218870579e8de7556",
      "assetIds": []
    },
    {
      "x": 330,
      "y": 262,
      "size": 1,
      "price": "1011000000000000000000",
      "reserved": "",
      "salt": "0x28a98ada0d940734e883424da6fdd6dcb6efcea9de369da3ae7ee28265e7cb1f",
      "assetIds": []
    },
    {
      "x": 330,
      "y": 263,
      "size": 1,
      "price": "1011000000000000000000",
      "reserved": "",
      "salt": "0x4d423e961cdbdb115403ed28068911b1b830e42b25cbc67c40eaa3e33ffab546",
      "assetIds": []
    },
    {
      "x": 330,
      "y": 270,
      "size": 1,
      "price": "1011000000000000000000",
      "reserved": "",
      "salt": "0x14b81d7d0939f6c52a96f1facb8f9164bb6f78abf9646210d7910c43dd295196",
      "assetIds": []
    },
    {
      "x": 330,
      "y": 271,
      "size": 1,
      "price": "1011000000000000000000",
      "reserved": "",
      "salt": "0xe9a97a4a189d7b1521eda8815444ea5a2b2a1798b944f3719633e6df062bb792",
      "assetIds": []
    },
    {
      "x": 330,
      "y": 272,
      "size": 1,
      "price": "1011000000000000000000",
      "reserved": "",
      "salt": "0x4ecf33897ad43d5f8412fa66d4cb659b278b75aa2c0dccc0429bf8ad736f4740",
      "assetIds": []
    },
    {
      "x": 330,
      "y": 273,
      "size": 1,
      "price": "1011000000000000000000",
      "reserved": "",
      "salt": "0xcd0e93226b7f1111bc227fd76097e1e9e0a3f90426744aad2c65c613c97b1579",
      "assetIds": []
    },
    {
      "x": 330,
      "y": 274,
      "size": 1,
      "price": "1011000000000000000000",
      "reserved": "",
      "salt": "0x763617eb7aaf975e19d53d6fa3cde001c9ceabde11ec208970ae229ab3079880",
      "assetIds": []
    },
    {
      "x": 330,
      "y": 275,
      "size": 1,
      "price": "1011000000000000000000",
      "reserved": "",
      "salt": "0x3e73b53c537821c9211209c14348d3095707178638442a224d2d62394c516ba0",
      "assetIds": []
    },
    {
      "x": 331,
      "y": 258,
      "size": 1,
      "price": "1011000000000000000000",
      "reserved": "",
      "salt": "0x8e1f2e59d63b83e17a96ccc3001517a8ec96c26fe54868c29c66fafaee7a1c03",
      "assetIds": []
    },
    {
      "x": 331,
      "y": 259,
      "size": 1,
      "price": "1011000000000000000000",
      "reserved": "",
      "salt": "0x9db6e69b1bf4cdf1fdf7ae9249f5513d69843fe208faa4be5f2a163cd1b74a87",
      "assetIds": []
    },
    {
      "x": 331,
      "y": 260,
      "size": 1,
      "price": "1011000000000000000000",
      "reserved": "",
      "salt": "0x2c1ea15372fdb7bbf693d936891a3974cef0f7287b957282ff4f83933d7236c7",
      "assetIds": []
    },
    {
      "x": 331,
      "y": 261,
      "size": 1,
      "price": "1011000000000000000000",
      "reserved": "",
      "salt": "0x245af0333e7ee80e3e32bd56de2e49596aa468d7f63b8a44243157b4d9645a90",
      "assetIds": []
    },
    {
      "x": 331,
      "y": 262,
      "size": 1,
      "price": "1011000000000000000000",
      "reserved": "",
      "salt": "0xddf2686553d6e6f9aea7e4ba54fdc29cbca4561c62bc2aa136b982e6fc5df42f",
      "assetIds": []
    },
    {
      "x": 331,
      "y": 263,
      "size": 1,
      "price": "1011000000000000000000",
      "reserved": "",
      "salt": "0xee48983373f44f465c3455dd794b0a06318a1f21b38facbb917e136cf46b7a38",
      "assetIds": []
    },
    {
      "x": 331,
      "y": 270,
      "size": 1,
      "price": "1011000000000000000000",
      "reserved": "",
      "salt": "0x000c7f999a6fb1095bcf146d14896bfbbdd9e381e648847bb7d0e75502ab8f71",
      "assetIds": []
    },
    {
      "x": 331,
      "y": 271,
      "size": 1,
      "price": "1011000000000000000000",
      "reserved": "",
      "salt": "0x9b32d83105deb95d4edc746bcb36853b954955d3e91137b5bb178b5356267743",
      "assetIds": []
    },
    {
      "x": 331,
      "y": 272,
      "size": 1,
      "price": "1011000000000000000000",
      "reserved": "",
      "salt": "0xb3792465ae7fc3975dc75fda8fa0d6354b0c423946be4d52411228c2659e957e",
      "assetIds": []
    },
    {
      "x": 331,
      "y": 273,
      "size": 1,
      "price": "1011000000000000000000",
      "reserved": "",
      "salt": "0x28db9c2901659eae47dbc1a547435c23b8f67d7fae3d44748635641acceb9cc4",
      "assetIds": []
    },
    {
      "x": 331,
      "y": 274,
      "size": 1,
      "price": "1011000000000000000000",
      "reserved": "",
      "salt": "0x114b82114d97b3cdcecc7c610bb5ea3c9c1762fddb861ba97b18c0cb1e9b1fe5",
      "assetIds": []
    },
    {
      "x": 331,
      "y": 275,
      "size": 1,
      "price": "1011000000000000000000",
      "reserved": "",
      "salt": "0x907b36c3795e16c3639731f17f92e0473af8c46b02c7bc88f7643eb8144ffa98",
      "assetIds": []
    },
    {
      "x": 332,
      "y": 258,
      "size": 1,
      "price": "1011000000000000000000",
      "reserved": "",
      "salt": "0xdf18edbc0dd075c3842d8c9e9dbf94b2e9ce14fa22091edd82f779b6613b5f0f",
      "assetIds": []
    },
    {
      "x": 332,
      "y": 259,
      "size": 1,
      "price": "1011000000000000000000",
      "reserved": "",
      "salt": "0x4d1f5900fb6c884412d12c5e70d0b3ba339c3900617b9be143c3388d7249e871",
      "assetIds": []
    },
    {
      "x": 332,
      "y": 260,
      "size": 1,
      "price": "1011000000000000000000",
      "reserved": "",
      "salt": "0x9f455139d27c2ba778b06145ca8cb0a715971d694d9610404c8c635c8fd44c2e",
      "assetIds": []
    },
    {
      "x": 332,
      "y": 261,
      "size": 1,
      "price": "1011000000000000000000",
      "reserved": "",
      "salt": "0xdfdf07ade32c8d7da05a4deab989bd6c478d8fa90716b527e257df3c0eacd29d",
      "assetIds": []
    },
    {
      "x": 332,
      "y": 262,
      "size": 1,
      "price": "1011000000000000000000",
      "reserved": "",
      "salt": "0xdf3ceb01a22b829a2e01bc8a7cc6669cc2b457f760984264091614aea259c8da",
      "assetIds": []
    },
    {
      "x": 332,
      "y": 263,
      "size": 1,
      "price": "1011000000000000000000",
      "reserved": "",
      "salt": "0x477e52adc771e94b7f481d79108f498a1d67f75a444499e4b69868ad5f2900f0",
      "assetIds": []
    },
    {
      "x": 332,
      "y": 270,
      "size": 1,
      "price": "1011000000000000000000",
      "reserved": "",
      "salt": "0x01f7477e697a6df88d4bb871b7db396cf39e2c645ed357fc86afdb35773dc990",
      "assetIds": []
    },
    {
      "x": 332,
      "y": 271,
      "size": 1,
      "price": "1011000000000000000000",
      "reserved": "",
      "salt": "0x21ae3852f19fdc303888764e9adfc6e0fa8eca24d49b0ffc6bb0d60fb9b6db5f",
      "assetIds": []
    },
    {
      "x": 332,
      "y": 272,
      "size": 1,
      "price": "1011000000000000000000",
      "reserved": "",
      "salt": "0x931741792453bf66095dd047838560cc551e82ab7b8395d2adb7121faaeb7a6c",
      "assetIds": []
    },
    {
      "x": 332,
      "y": 273,
      "size": 1,
      "price": "1011000000000000000000",
      "reserved": "",
      "salt": "0x34455cdb61c81dba6d49591a0fd462ef5c7f82ecc2358db58101721bbeec496a",
      "assetIds": []
    },
    {
      "x": 332,
      "y": 274,
      "size": 1,
      "price": "1011000000000000000000",
      "reserved": "",
      "salt": "0x236a960800af40cd5db13acd3d4fb80b7373693a9a1b98ed194cfa778a8d620d",
      "assetIds": []
    },
    {
      "x": 332,
      "y": 275,
      "size": 1,
      "price": "1011000000000000000000",
      "reserved": "",
      "salt": "0xf7e9218458653002135bbe4a95d4c744c46f31d76089b998ecf42240de77fb9d",
      "assetIds": []
    },
    {
      "x": 336,
      "y": 246,
      "size": 1,
      "price": "1011000000000000000000",
      "reserved": "",
      "salt": "0x808e5f06de7d29b349c8c0ed816668f15c67259b1f63b4b5231c3d489bae0a75",
      "assetIds": []
    },
    {
      "x": 336,
      "y": 247,
      "size": 1,
      "price": "1011000000000000000000",
      "reserved": "",
      "salt": "0x7e3ab2f81ac8462d8d77ec8f13dec30d587398003e6221f297c4a8f6b8c8eff3",
      "assetIds": []
    },
    {
      "x": 336,
      "y": 248,
      "size": 1,
      "price": "1011000000000000000000",
      "reserved": "",
      "salt": "0x97b8640d918366f6656b07434f00ed962619ec72181f575bc17e280dc189bce1",
      "assetIds": []
    },
    {
      "x": 336,
      "y": 249,
      "size": 1,
      "price": "1011000000000000000000",
      "reserved": "",
      "salt": "0xfd5913727745e28b39ffce93d707cf32808c99e4b4db027b359865cfaefd0e90",
      "assetIds": []
    },
    {
      "x": 336,
      "y": 250,
      "size": 1,
      "price": "1011000000000000000000",
      "reserved": "",
      "salt": "0xa55184fcdfa5f632523c33007d0372cdeadd60f32f633d0a4671b96779cf18cc",
      "assetIds": []
    },
    {
      "x": 336,
      "y": 251,
      "size": 1,
      "price": "1011000000000000000000",
      "reserved": "",
      "salt": "0x6a552312101cee5ff3f470b8081e7d1211a0d95d9858f60df0a9a21c454ae615",
      "assetIds": []
    },
    {
      "x": 337,
      "y": 246,
      "size": 1,
      "price": "1011000000000000000000",
      "reserved": "",
      "salt": "0x4e3c073ae1dc5dc85955b7cce0e0bc66a240c8b9c12a073459cf8fae1458a29e",
      "assetIds": []
    },
    {
      "x": 337,
      "y": 247,
      "size": 1,
      "price": "1011000000000000000000",
      "reserved": "",
      "salt": "0x47bbe7975d0c44ab4b1d42a7830c90bc86c4ef45ae56bfeca13355f5e6be2b3e",
      "assetIds": []
    },
    {
      "x": 337,
      "y": 248,
      "size": 1,
      "price": "1011000000000000000000",
      "reserved": "",
      "salt": "0xc0e0c600484ce942c9ed6386da049ca25728af7bed21bafe2955b2dc98484419",
      "assetIds": []
    },
    {
      "x": 337,
      "y": 249,
      "size": 1,
      "price": "1011000000000000000000",
      "reserved": "",
      "salt": "0xb9af8da041ba9b7f1dbd7e50777465bf777874b83d8c154bd7bdf0cb1cad77b9",
      "assetIds": []
    },
    {
      "x": 337,
      "y": 250,
      "size": 1,
      "price": "1011000000000000000000",
      "reserved": "",
      "salt": "0x3350903da4d874c7c3e1b4bfae0a7d5918d6ee9f67680744372b6b7eb403f7e0",
      "assetIds": []
    },
    {
      "x": 337,
      "y": 251,
      "size": 1,
      "price": "1011000000000000000000",
      "reserved": "",
      "salt": "0x98f45c707a17291bd7065332ad449a1f8f2b943e1810ff42779b82e2b7cd1d55",
      "assetIds": []
    },
    {
      "x": 338,
      "y": 246,
      "size": 1,
      "price": "1011000000000000000000",
      "reserved": "",
      "salt": "0xe74c81db094eabd8489d12d3b3dd4f04c9462c10de4ef110581faef0b8418a47",
      "assetIds": []
    },
    {
      "x": 338,
      "y": 247,
      "size": 1,
      "price": "1011000000000000000000",
      "reserved": "",
      "salt": "0x65cbb0873b6716f6c9a097801afd192a84d0894c43fb93a10a9138b7b86e09ee",
      "assetIds": []
    },
    {
      "x": 338,
      "y": 248,
      "size": 1,
      "price": "1011000000000000000000",
      "reserved": "",
      "salt": "0xb912e81acae2f217a7c67ae7e6ddeda1ea1e741fa71a10309da0796af448f776",
      "assetIds": []
    },
    {
      "x": 338,
      "y": 249,
      "size": 1,
      "price": "1011000000000000000000",
      "reserved": "",
      "salt": "0x89d9493486494a4294bbfdf33dad512649020fb686552a5601d86780aaf75545",
      "assetIds": []
    },
    {
      "x": 338,
      "y": 250,
      "size": 1,
      "price": "1011000000000000000000",
      "reserved": "",
      "salt": "0x4ab5b45d9d6f853de99bec1b0e73d5b389af5f3eccd9c2304bcca30356d847eb",
      "assetIds": []
    },
    {
      "x": 338,
      "y": 251,
      "size": 1,
      "price": "1011000000000000000000",
      "reserved": "",
      "salt": "0x165491f936c66a5e6e80c028bd559b44ff2dfaca18bae85225928b0dc53c5b6a",
      "assetIds": []
    }
  ],
  "solcInputHash": "ec605981be9adfd04d88d4245397bb77",
  "bytecode": "0x6101606040523480156200001257600080fd5b50604051620031e9380380620031e983398181016040526101a08110156200003957600080fd5b508051602082015160408301516060840151608085015160a086015160c087015160e08801516101008901516101208a01516101408b01516101608c0151610180909c015160016000559a9b999a9899979896979596949593949293919290919085856001600160a01b038216620000f8576040805162461bcd60e51b815260206004820152601f60248201527f526566657272616c56616c696461746f723a207a65726f206164647265737300604482015290519081900360640190fd5b600380546001600160a01b0319166001600160a01b0393841617905560045562000130908e1662000459602090811b62002adc17901c565b6200016d5760405162461bcd60e51b8152600401808060200182810382526025815260200180620031c46025913960400191505060405180910390fd5b6200018c8c6001600160a01b03166200045960201b62002adc1760201c565b620001c95760405162461bcd60e51b8152600401808060200182810382526025815260200180620031c46025913960400191505060405180910390fd5b6001600160a01b038b1662000214576040805162461bcd60e51b815260206004820181905260248201526000805160206200317f833981519152604482015290519081900360640190fd5b6001600160a01b038a166200025f576040805162461bcd60e51b815260206004820181905260248201526000805160206200317f833981519152604482015290519081900360640190fd5b6001600160a01b038916620002aa576040805162461bcd60e51b815260206004820181905260248201526000805160206200317f833981519152604482015290519081900360640190fd5b620002c9836001600160a01b03166200045960201b62002adc1760201c565b620003065760405162461bcd60e51b8152600401808060200182810382526025815260200180620031c46025913960400191505060405180910390fd5b6001600160a01b03821662000351576040805162461bcd60e51b815260206004820181905260248201526000805160206200317f833981519152604482015290519081900360640190fd5b62000370816001600160a01b03166200045960201b62002adc1760201c565b620003ad5760405162461bcd60e51b8152600401808060200182810382526025815260200180620031c46025913960400191505060405180910390fd5b6001600160601b031960608e811b821660a0528d901b1660c052620003dd8b60016001600160e01b036200045f16565b600680546001600160a01b039a8b166001600160a01b031991821617909155610140989098526101209690965260018054998916998816999099179098556001600160601b0319606092831b811660e05290821b811660805296901b909516610100525060078054919093169116179055506200050a92505050565b3b151590565b6001600160a01b038216620004a65760405162461bcd60e51b81526004018080602001828103825260258152602001806200319f6025913960400191505060405180910390fd5b6001600160a01b038216600081815260026020908152604091829020805460ff191685151590811790915582519384529083015280517fb21eb88b4e33b3f1281830a7178d74d8aa73220416215726b68ae23d539515cb9281900390910190a15050565b60805160601c60a05160601c60c05160601c60e05160601c6101005160601c6101205161014051612bef6200059060003980610be0528061247e525080610bbc528061159d5250806124fc525080611af25280611c4f525080611aa85280611e4e52806124d9525080611b235280611c205250806111075280611f3a5250612bef6000f3fe608060405234801561001057600080fd5b50600436106101365760003560e01c8063984d6252116100b2578063c10a420811610081578063dc5074af11610066578063dc5074af146108a0578063e56f8a9e146108c6578063f23a6e61146108e357610136565b8063c10a4208146107c1578063caed35001461089857610136565b8063984d62521461055f578063ab1cc78c14610631578063b522ecff14610639578063bc197c811461065f57610136565b806365194ce71161010957806378e6e5b9116100ee57806378e6e5b9146104e55780638a04af6a1461050b5780638f2839701461053957610136565b806365194ce7146103635780636e9960c3146104c157610136565b80631187fd3c1461013b57806325cb5bc01461031b578063495906571461033557806358bc29441461033d575b600080fd5b610319600480360361012081101561015257600080fd5b6001600160a01b038235811692602081013582169260408201359092169181019060808101606082013564010000000081111561018e57600080fd5b8201836020820111156101a057600080fd5b803590602001918460208302840111640100000000831117156101c257600080fd5b919390928235926040810190602001356401000000008111156101e457600080fd5b8201836020820111156101f657600080fd5b8035906020019184602083028401116401000000008311171561021857600080fd5b91939092909160208101903564010000000081111561023657600080fd5b82018360208201111561024857600080fd5b8035906020019184602083028401116401000000008311171561026a57600080fd5b91939092909160208101903564010000000081111561028857600080fd5b82018360208201111561029a57600080fd5b803590602001918460018302840111640100000000831117156102bc57600080fd5b9193909290916020810190356401000000008111156102da57600080fd5b8201836020820111156102ec57600080fd5b8035906020019184600183028401116401000000008311171561030e57600080fd5b509092509050610978565b005b610323610bba565b60408051918252519081900360200190f35b610323610bde565b6103196004803603602081101561035357600080fd5b50356001600160a01b0316610c02565b6104096004803603602081101561037957600080fd5b81019060208101813564010000000081111561039457600080fd5b8201836020820111156103a657600080fd5b803590602001918460018302840111640100000000831117156103c857600080fd5b91908080601f016020809104026020016040519081016040528093929190818152602001838380828437600092019190915250929550610d2e945050505050565b6040518080602001866001600160a01b03166001600160a01b03168152602001856001600160a01b03166001600160a01b03168152602001848152602001838152602001828103825287818151815260200191508051906020019080838360005b8381101561048257818101518382015260200161046a565b50505050905090810190601f1680156104af5780820380516001836020036101000a031916815260200191505b50965050505050505060405180910390f35b6104c9610e33565b604080516001600160a01b039092168252519081900360200190f35b610319600480360360208110156104fb57600080fd5b50356001600160a01b0316610e42565b6103196004803603604081101561052157600080fd5b506001600160a01b0381351690602001351515610f00565b6103196004803603602081101561054f57600080fd5b50356001600160a01b0316610f6d565b6103196004803603606081101561057557600080fd5b6001600160a01b0382351691908101906040810160208201356401000000008111156105a057600080fd5b8201836020820111156105b257600080fd5b803590602001918460208302840111640100000000831117156105d457600080fd5b9193909290916020810190356401000000008111156105f257600080fd5b82018360208201111561060457600080fd5b8035906020019184602083028401116401000000008311171561062657600080fd5b5090925090506110a6565b610323611231565b6103196004803603602081101561064f57600080fd5b50356001600160a01b0316611237565b61078c600480360360a081101561067557600080fd5b6001600160a01b0382358116926020810135909116918101906060810160408201356401000000008111156106a957600080fd5b8201836020820111156106bb57600080fd5b803590602001918460208302840111640100000000831117156106dd57600080fd5b9193909290916020810190356401000000008111156106fb57600080fd5b82018360208201111561070d57600080fd5b8035906020019184602083028401116401000000008311171561072f57600080fd5b91939092909160208101903564010000000081111561074d57600080fd5b82018360208201111561075f57600080fd5b8035906020019184600183028401116401000000008311171561078157600080fd5b509092509050611348565b604080517fffffffff000000000000000000000000000000000000000000000000000000009092168252519081900360200190f35b610884600480360360a08110156107d757600080fd5b8101906020810181356401000000008111156107f257600080fd5b82018360208201111561080457600080fd5b8035906020019184600183028401116401000000008311171561082657600080fd5b91908080601f016020809104026020016040519081016040528093929190818152602001838380828437600092019190915250929550506001600160a01b038335811694506020840135169260408101359250606001359050611375565b604080519115158252519081900360200190f35b6104c96114b1565b610884600480360360208110156108b657600080fd5b50356001600160a01b03166114c0565b610319600480360360208110156108dc57600080fd5b50356114de565b61078c600480360360a08110156108f957600080fd5b6001600160a01b03823581169260208101359091169160408201359160608101359181019060a08101608082013564010000000081111561093957600080fd5b82018360208201111561094b57600080fd5b8035906020019184600183028401116401000000008311171561096d57600080fd5b509092509050611570565b600260005414156109d0576040805162461bcd60e51b815260206004820152601f60248201527f5265656e7472616e637947756172643a207265656e7472616e742063616c6c00604482015290519081900360640190fd5b60026000556109df8e8d61159b565b610ad68d8d8d8d80806020026020016040519081016040528093929190818152602001838360200280828437600081840152601f19601f820116905080830192505050505050508c8c8c80806020026020016040519081016040528093929190818152602001838360200280828437600081840152601f19601f820116905080830192505050505050508b8b8080602002602001604051908101604052809392919081815260200183836020028082843760009201919091525050604080516020601f8d018190048102820181019092528b815292508b91508a90819084018382808284376000920191909152506116fe92505050565b610b2a8e8c8c6003818110610ae757fe5b9050602002013586868080601f016020809104026020016040519081016040528093929190818152602001838380828437600092019190915250611a8192505050565b610b688e8e8d8d80806020026020016040519081016040528093929190818152602001838360200280828437600092019190915250611ad292505050565b610ba58d898980806020026020016040519081016040528093929190818152602001838360200280828437600092019190915250611ec392505050565b50506001600055505050505050505050505050565b7f000000000000000000000000000000000000000000000000000000000000000090565b7f000000000000000000000000000000000000000000000000000000000000000090565b6001546001600160a01b03163314610c61576040805162461bcd60e51b815260206004820152601260248201527f6f6e6c792061646d696e20616c6c6f7765640000000000000000000000000000604482015290519081900360640190fd5b6001600160a01b038116610cbc576040805162461bcd60e51b815260206004820152601f60248201527f526566657272616c56616c696461746f723a207a65726f206164647265737300604482015290519081900360640190fd5b600380546001600160a01b03908116600090815260056020526040808220620d2f0042019055835473ffffffffffffffffffffffffffffffffffffffff1916928516928317909355915190917fbbb5fb2ee7e707ae0c968f63e94211ea81e66a718c34e2f810a7619e5678a21791a250565b606060008060008060606000806000808a80602001905160a0811015610d5357600080fd5b8101908080516040519392919084640100000000821115610d7357600080fd5b908301906020820185811115610d8857600080fd5b8251640100000000811182820188101715610da257600080fd5b82525081516020918201929091019080838360005b83811015610dcf578181015183820152602001610db7565b50505050905090810190601f168015610dfc5780820380516001836020036101000a031916815260200191505b5060409081526020820151908201516060830151608090930151959f50909d509b5099509197505050505050505091939590929450565b6001546001600160a01b031690565b6001546001600160a01b03163314610e8b5760405162461bcd60e51b8152600401808060200182810382526023815260200180612b056023913960400191505060405180910390fd5b6001600160a01b038116610ee6576040805162461bcd60e51b815260206004820152601f60248201527f526566657272616c56616c696461746f723a207a65726f206164647265737300604482015290519081900360640190fd5b6001600160a01b0316600090815260056020526040812055565b6001546001600160a01b03163314610f5f576040805162461bcd60e51b815260206004820152601260248201527f6f6e6c792061646d696e20616c6c6f7765640000000000000000000000000000604482015290519081900360640190fd5b610f698282612087565b5050565b6001546001600160a01b03163314610fcc576040805162461bcd60e51b815260206004820152601b60248201527f6f6e6c792061646d696e2063616e206368616e67652061646d696e0000000000604482015290519081900360640190fd5b6001546001600160a01b038281169116141561102f576040805162461bcd60e51b815260206004820152600d60248201527f616c72656164792061646d696e00000000000000000000000000000000000000604482015290519081900360640190fd5b600154604080516001600160a01b039283168152918316602083015280517f7e644d79422f17c01e4894b5f4f588d331ebfa28653d42ae832dc59e38c9798f9281900390910190a16001805473ffffffffffffffffffffffffffffffffffffffff19166001600160a01b0392909216919091179055565b6001546001600160a01b03163314611105576040805162461bcd60e51b815260206004820152600e60248201527f4e4f545f415554484f52495a4544000000000000000000000000000000000000604482015290519081900360640190fd5b7f00000000000000000000000000000000000000000000000000000000000000006001600160a01b0316632eb2c2d63087878787876040518763ffffffff1660e01b815260040180876001600160a01b03166001600160a01b03168152602001866001600160a01b03166001600160a01b031681526020018060200180602001806020018481038452888882818152602001925060200280828437600083820152601f01601f19169091018581038452868152602090810191508790870280828437600081840152601f19601f8201169050808301925050508481038252600081526020016020019950505050505050505050600060405180830381600087803b15801561121257600080fd5b505af1158015611226573d6000803e3d6000fd5b505050505050505050565b60045490565b6001600160a01b038116611292576040805162461bcd60e51b815260206004820152600c60248201527f5a45524f5f414444524553530000000000000000000000000000000000000000604482015290519081900360640190fd5b6001546001600160a01b031633146112f1576040805162461bcd60e51b815260206004820152600e60248201527f4e4f545f415554484f52495a4544000000000000000000000000000000000000604482015290519081900360640190fd5b6006805473ffffffffffffffffffffffffffffffffffffffff19166001600160a01b0383169081179091556040517f4d66958b757eb92a1b43d02be4c38c9500b73f532420ee3706cb43d420ba023690600090a250565b7fbc197c810000000000000000000000000000000000000000000000000000000098975050505050505050565b60006004548211806113985750836001600160a01b0316856001600160a01b0316145b806113a257508242115b156113af575060006114a8565b60408051606087811b7fffffffffffffffffffffffffffffffffffffffff0000000000000000000000009081166020808501919091529188901b166034830152604882018690526068808301869052835180840390910181526088830184528051908201207f19457468657265756d205369676e6564204d6573736167653a0a33320000000060a884015260c48084018290528451808503909101815260e49093019093528151910120600090611466908961214e565b6001600160a01b0381166000908152600560205260409020549091504211611493576001925050506114a8565b6003546001600160a01b039081169116149150505b95945050505050565b6003546001600160a01b031690565b6001600160a01b031660009081526002602052604090205460ff1690565b6001546001600160a01b0316331461153d576040805162461bcd60e51b815260206004820152601260248201527f6f6e6c792061646d696e20616c6c6f7765640000000000000000000000000000604482015290519081900360640190fd5b600481905560405181907f774069781371d65424b3b0b101c1d40014532cac040f979595b99a3fcf8ce08c90600090a250565b7ff23a6e61000000000000000000000000000000000000000000000000000000009695505050505050565b7f0000000000000000000000000000000000000000000000000000000000000000421061160f576040805162461bcd60e51b815260206004820152600c60248201527f53414c455f49535f4f5645520000000000000000000000000000000000000000604482015290519081900360640190fd5b6001600160a01b03821633148061163557503360009081526002602052604090205460ff165b611686576040805162461bcd60e51b815260206004820152600e60248201527f4e4f545f415554484f52495a4544000000000000000000000000000000000000604482015290519081900360640190fd5b6001600160a01b03811615806116ad5750816001600160a01b0316816001600160a01b0316145b610f69576040805162461bcd60e51b815260206004820152600d60248201527f52455345525645445f4c414e4400000000000000000000000000000000000000604482015290519081900360640190fd5b600087878760008151811061170f57fe5b60200260200101518860018151811061172457fe5b60200260200101518960028151811061173957fe5b60200260200101518a60038151811061174e57fe5b60200260200101518a8a60405160200180828051906020019060200280838360005b83811015611788578181015183820152602001611770565b50505050905001915050604051602081830303815290604052805190602001208a60405160200180828051906020019060200280838360005b838110156117d95781810151838201526020016117c1565b5050505090500191505060405160208183030381529060405280519060200120604051602001808a6001600160a01b03166001600160a01b031660601b8152601401896001600160a01b03166001600160a01b031660601b81526014018881526020018781526020018681526020018581526020018481526020018381526020018281526020019950505050505050505050604051602081830303815290604052805190602001209050600760009054906101000a90046001600160a01b03166001600160a01b031663012847ed83836040518363ffffffff1660e01b81526004018080602001838152602001828103825284818151815260200191508051906020019080838360005b838110156118fb5781810151838201526020016118e3565b50505050905090810190601f1680156119285780820380516001836020036101000a031916815260200191505b50935050505060206040518083038186803b15801561194657600080fd5b505afa15801561195a573d6000803e3d6000fd5b505050506040513d602081101561197057600080fd5b50516119c3576040805162461bcd60e51b815260206004820152600c60248201527f494e56414c49445f415554480000000000000000000000000000000000000000604482015290519081900360640190fd5b6000611a24876000815181106119d557fe5b6020026020010151886001815181106119ea57fe5b6020026020010151896002815181106119ff57fe5b60200260200101518a600381518110611a1457fe5b60200260200101518c8b8b612337565b9050611a3084826123dc565b611226576040805162461bcd60e51b815260206004820152600c60248201527f494e56414c49445f4c414e440000000000000000000000000000000000000000604482015290519081900360640190fd5b6000611a8d84846124a5565b600654909150611acc908590839085906001600160a01b03167f000000000000000000000000000000000000000000000000000000000000000061253f565b50505050565b80600281518110611adf57fe5b602002602001015160011480611b1c57507f00000000000000000000000000000000000000000000000000000000000000006001600160a01b0316155b15611c1e577f00000000000000000000000000000000000000000000000000000000000000006001600160a01b0316636e1e3bbf8383600281518110611b5e57fe5b602002602001015184600081518110611b7357fe5b602002602001015185600181518110611b8857fe5b60200260200101516040518563ffffffff1660e01b815260040180856001600160a01b03166001600160a01b031681526020018481526020018381526020018281526020018060200182810382526000815260200160200195505050505050600060405180830381600087803b158015611c0157600080fd5b505af1158015611c15573d6000803e3d6000fd5b50505050611dbe565b7f00000000000000000000000000000000000000000000000000000000000000006001600160a01b0316636e1e3bbf7f000000000000000000000000000000000000000000000000000000000000000083600281518110611c7b57fe5b602002602001015184600081518110611c9057fe5b602002602001015185600181518110611ca557fe5b60200260200101518760405160200180826001600160a01b03166001600160a01b031681526020019150506040516020818303038152906040526040518663ffffffff1660e01b815260040180866001600160a01b03166001600160a01b0316815260200185815260200184815260200183815260200180602001828103825283818151815260200191508051906020019080838360005b83811015611d55578181015183820152602001611d3d565b50505050905090810190601f168015611d825780820380516001836020036101000a031916815260200191505b509650505050505050600060405180830381600087803b158015611da557600080fd5b505af1158015611db9573d6000803e3d6000fd5b505050505b61019881600181518110611dce57fe5b60200260200101510281600081518110611de457fe5b602002602001015101826001600160a01b0316846001600160a01b03167fe4dfa6ac11314892f3029b34a25b1a887da3b1cab2bbf8506d87128ba6e3ac0284600281518110611e2f57fe5b602002602001015185600381518110611e4457fe5b60200260200101517f000000000000000000000000000000000000000000000000000000000000000087600381518110611e7a57fe5b602002602001015160405180858152602001848152602001836001600160a01b03166001600160a01b0316815260200182815260200194505050505060405180910390a4505050565b6060815167ffffffffffffffff81118015611edd57600080fd5b50604051908082528060200260200182016040528015611f07578160200160208202803683370190505b50905060005b8251811015611f37576001828281518110611f2457fe5b6020908102919091010152600101611f0d565b507f00000000000000000000000000000000000000000000000000000000000000006001600160a01b0316632eb2c2d6308585856040518563ffffffff1660e01b815260040180856001600160a01b03166001600160a01b03168152602001846001600160a01b03166001600160a01b03168152602001806020018060200180602001848103845286818151815260200191508051906020019060200280838360005b83811015611ff2578181015183820152602001611fda565b50505050905001848103835285818151815260200191508051906020019060200280838360005b83811015612031578181015183820152602001612019565b50505050905001848103825260008152602001602001975050505050505050600060405180830381600087803b15801561206a57600080fd5b505af115801561207e573d6000803e3d6000fd5b50505050505050565b6001600160a01b0382166120cc5760405162461bcd60e51b8152600401808060200182810382526025815260200180612b6b6025913960400191505060405180910390fd5b6001600160a01b03821660008181526002602090815260409182902080547fffffffffffffffffffffffffffffffffffffffffffffffffffffffffffffff001685151590811790915582519384529083015280517fb21eb88b4e33b3f1281830a7178d74d8aa73220416215726b68ae23d539515cb9281900390910190a15050565b600081516041146121a6576040805162461bcd60e51b815260206004820152601f60248201527f45434453413a20696e76616c6964207369676e6174757265206c656e67746800604482015290519081900360640190fd5b60208201516040830151606084015160001a7f7fffffffffffffffffffffffffffffff5d576e7357a4501ddfe92f46681b20a08211156122175760405162461bcd60e51b8152600401808060200182810382526022815260200180612ae36022913960400191505060405180910390fd5b8060ff16601b1415801561222f57508060ff16601c14155b1561226b5760405162461bcd60e51b8152600401808060200182810382526022815260200180612b286022913960400191505060405180910390fd5b60408051600080825260208083018085528a905260ff85168385015260608301879052608083018690529251909260019260a080820193601f1981019281900390910190855afa1580156122c3573d6000803e3d6000fd5b5050604051601f1901519150506001600160a01b03811661232b576040805162461bcd60e51b815260206004820152601860248201527f45434453413a20696e76616c6964207369676e61747572650000000000000000604482015290519081900360640190fd5b93505050505b92915050565b60008787878787878760405160200180888152602001878152602001868152602001858152602001846001600160a01b03166001600160a01b031660601b8152601401838152602001828051906020019060200280838360005b838110156123a9578181015183820152602001612391565b50505050905001975050505050505050604051602081830303815290604052805190602001209050979650505050505050565b600081815b845181101561247b5760008582815181106123f857fe5b60200260200101519050808310156124405782816040516020018083815260200182815260200192505050604051602081830303815290604052805190602001209250612472565b808360405160200180838152602001828152602001925050506040516020818303038152906040528051906020012092505b506001016123e1565b507f0000000000000000000000000000000000000000000000000000000000000000149392505050565b6000806124ca60646124be85600563ffffffff61264716565b9063ffffffff6126a716565b90506125276001600160a01b037f000000000000000000000000000000000000000000000000000000000000000016857f00000000000000000000000000000000000000000000000000000000000000008463ffffffff6126e916565b612537838263ffffffff61277116565b949350505050565b8251819085901561262c57606060008060008061255b8a610d2e565b93985091965094509250905060006125768686868686611375565b15612604576125906125888d84612647565b6127106126a7565b9050886001600160a01b0316846001600160a01b0316866001600160a01b03167fac7a699eb95c3c6d390ec4626de17ef9a67b35891efdb197beba7c7fdd45fac48f858760405180848152602001838152602001828152602001935050505060405180910390a46126018782612771565b96505b8015612625576126256001600160a01b0389168e878463ffffffff6126e916565b5050505050505b61207e6001600160a01b03831688868463ffffffff6126e916565b60008261265657506000612331565b8282028284828161266357fe5b04146126a05760405162461bcd60e51b8152600401808060200182810382526021815260200180612b4a6021913960400191505060405180910390fd5b9392505050565b60006126a083836040518060400160405280601a81526020017f536166654d6174683a206469766973696f6e206279207a65726f0000000000008152506127b3565b604080516001600160a01b0380861660248301528416604482015260648082018490528251808303909101815260849091019091526020810180517bffffffffffffffffffffffffffffffffffffffffffffffffffffffff167f23b872dd00000000000000000000000000000000000000000000000000000000179052611acc908590612855565b60006126a083836040518060400160405280601e81526020017f536166654d6174683a207375627472616374696f6e206f766572666c6f77000081525061290b565b6000818361283f5760405162461bcd60e51b81526004018080602001828103825283818151815260200191508051906020019080838360005b838110156128045781810151838201526020016127ec565b50505050905090810190601f1680156128315780820380516001836020036101000a031916815260200191505b509250505060405180910390fd5b50600083858161284b57fe5b0495945050505050565b60606128aa826040518060400160405280602081526020017f5361666545524332303a206c6f772d6c6576656c2063616c6c206661696c6564815250856001600160a01b03166129659092919063ffffffff16565b805190915015612906578080602001905160208110156128c957600080fd5b50516129065760405162461bcd60e51b815260040180806020018281038252602a815260200180612b90602a913960400191505060405180910390fd5b505050565b6000818484111561295d5760405162461bcd60e51b81526020600482018181528351602484015283519092839260449091019190850190808383600083156128045781810151838201526020016127ec565b505050900390565b60606125378484600085606061297a85612adc565b6129cb576040805162461bcd60e51b815260206004820152601d60248201527f416464726573733a2063616c6c20746f206e6f6e2d636f6e7472616374000000604482015290519081900360640190fd5b60006060866001600160a01b031685876040518082805190602001908083835b60208310612a0a5780518252601f1990920191602091820191016129eb565b6001836020036101000a03801982511681845116808217855250505050505090500191505060006040518083038185875af1925050503d8060008114612a6c576040519150601f19603f3d011682016040523d82523d6000602084013e612a71565b606091505b50915091508115612a855791506125379050565b805115612a955780518082602001fd5b60405162461bcd60e51b81526020600482018181528651602484015286518793919283926044019190850190808383600083156128045781810151838201526020016127ec565b3b15159056fe45434453413a20696e76616c6964207369676e6174757265202773272076616c7565526566657272616c56616c696461746f723a2053656e646572206e6f742061646d696e45434453413a20696e76616c6964207369676e6174757265202776272076616c7565536166654d6174683a206d756c7469706c69636174696f6e206f766572666c6f774d6574615472616e73616374696f6e52656365697665723a207a65726f20616464726573735361666545524332303a204552433230206f7065726174696f6e20646964206e6f742073756363656564a264697066735822122077f2d13cbcb85fa08010a53c1e4ef27117b031e8c1c9273d55cef362af299f3164736f6c6343000605003345737461746553616c6557697468417574683a207a65726f20616464726573734d6574615472616e73616374696f6e52656365697665723a207a65726f206164647265737345737461746553616c6557697468417574683a206973206e6f74206120636f6e7472616374",
  "devdoc": {
    "methods": {
      "buyLandWithSand(address,address,address,uint256[],bytes32,uint256[],bytes32[],bytes,bytes)": {
        "params": {
          "assetIds": "asset ids (lands) that will be bought",
          "buyer": "address that perform the payment",
          "info": "[X_INDEX=0] x coordinate of the Land [Y_INDEX=1] y coordinate of the Land [SIZE_INDEX=2] size of the pack of Land to purchase [PRICE_INDEX=3] price in SAND to purchase that Land",
          "proof": "merkleProof for that particular Land",
          "referral": "referral id",
          "reserved": "the reserved address (if any)",
          "salt": "The salt submitted for verification.",
          "signature": "A signed message specifying tx details",
          "to": "address that will own the purchased Land"
        }
      },
      "changeAdmin(address)": {
        "details": "change the administrator to be `newAdmin`.",
        "params": {
          "newAdmin": "address of the new administrator."
        }
      },
      "disablePreviousSigningWallet(address)": {
        "details": "Disable compromised signing wallet",
        "params": {
          "disableWallet": "The wallet address to be disabled"
        }
      },
      "getAdmin()": {
        "details": "gives the current administrator of this contract.",
        "returns": {
          "_0": "the current administrator of this contract."
        }
      },
      "getSigningWallet()": {
        "details": "signing wallet authorized for referral",
        "returns": {
          "_0": "the address of the signing wallet"
        }
      },
      "isMetaTransactionProcessor(address)": {
        "details": "check whether address `who` is given meta-transaction execution rights.",
        "params": {
          "who": "The address to query."
        },
        "returns": {
          "_0": "whether the address has meta-transaction execution rights."
        }
      },
      "isReferralValid(bytes,address,address,uint256,uint256)": {
        "params": {
          "commissionRate": "The commissionRate of the referral",
          "expiryTime": "The expiry time of the referral",
          "referee": "The address of the referee",
          "referrer": "The address of the referrer",
          "signature": "The signature to check (signed referral)"
        },
        "returns": {
          "_0": "True if the referral is valid"
        }
      },
      "setMetaTransactionProcessor(address,bool)": {
        "details": "Enable or disable the ability of `metaTransactionProcessor` to perform meta-tx (metaTransactionProcessor rights).",
        "params": {
          "enabled": "set whether the metaTransactionProcessor is enabled or disabled.",
          "metaTransactionProcessor": "address that will be given/removed metaTransactionProcessor rights."
        }
      },
      "setReceivingWallet(address)": {
        "params": {
          "newWallet": "address of the new receiving wallet"
        }
      },
      "updateMaxCommissionRate(uint256)": {
        "details": "Update the maximum commission rate",
        "params": {
          "newMaxCommissionRate": "The new maximum commission rate"
        }
      },
      "updateSigningWallet(address)": {
        "details": "Update the signing wallet The previous wallet is still valid for a grace period (_previousSigningDelay). If you want to disable the previous wallet, use the disablePreviousSigningWallet function.",
        "params": {
          "newSigningWallet": "The new address of the signing wallet"
        }
      },
      "withdrawAssets(address,uint256[],uint256[])": {
        "params": {
          "assetIds": "the assetIds to be transferred",
          "to": "intended recipient of the asset tokens",
          "values": "the quantities of the assetIds to be transferred"
        }
      }
    },
    "title": "Estate Sale contract with referral"
  },
  "userdoc": {
    "methods": {
      "buyLandWithSand(address,address,address,uint256[],bytes32,uint256[],bytes32[],bytes,bytes)": {
        "notice": "buy Land with SAND using the merkle proof associated with it"
      },
      "getExpiryTime()": {
        "notice": "Gets the expiry time for the current sale"
      },
      "getMaxCommissionRate()": {
        "notice": "the max commission rate"
      },
      "getMerkleRoot()": {
        "notice": "Gets the Merkle root associated with the current sale"
      },
      "isReferralValid(bytes,address,address,uint256,uint256)": {
        "notice": "Check if a referral is valid"
      },
      "setReceivingWallet(address)": {
        "notice": "set the wallet receiving the proceeds"
      },
      "withdrawAssets(address,uint256[],uint256[])": {
        "notice": "enable Admin to withdraw remaining assets from EstateSaleWithFee contract"
      }
    },
    "notice": "This contract manages the sale of our lands as Estates"
  },
  "storageLayout": {
    "storage": [
      {
        "astId": 1129,
        "contract": "src/solc_0.6/EstateSale/EstateSaleWithAuth.sol:EstateSaleWithAuth",
        "label": "_status",
        "offset": 0,
        "slot": "0",
        "type": "t_uint256"
      },
      {
        "astId": 14099,
        "contract": "src/solc_0.6/EstateSale/EstateSaleWithAuth.sol:EstateSaleWithAuth",
        "label": "_admin",
        "offset": 0,
        "slot": "1",
        "type": "t_address"
      },
      {
        "astId": 14168,
        "contract": "src/solc_0.6/EstateSale/EstateSaleWithAuth.sol:EstateSaleWithAuth",
        "label": "_metaTransactionContracts",
        "offset": 0,
        "slot": "2",
        "type": "t_mapping(t_address,t_bool)"
      },
      {
        "astId": 12200,
        "contract": "src/solc_0.6/EstateSale/EstateSaleWithAuth.sol:EstateSaleWithAuth",
        "label": "_signingWallet",
        "offset": 0,
        "slot": "3",
        "type": "t_address"
      },
      {
        "astId": 12202,
        "contract": "src/solc_0.6/EstateSale/EstateSaleWithAuth.sol:EstateSaleWithAuth",
        "label": "_maxCommissionRate",
        "offset": 0,
        "slot": "4",
        "type": "t_uint256"
      },
      {
        "astId": 12206,
        "contract": "src/solc_0.6/EstateSale/EstateSaleWithAuth.sol:EstateSaleWithAuth",
        "label": "_previousSigningWallets",
        "offset": 0,
        "slot": "5",
        "type": "t_mapping(t_address,t_uint256)"
      },
      {
        "astId": 7750,
        "contract": "src/solc_0.6/EstateSale/EstateSaleWithAuth.sol:EstateSaleWithAuth",
        "label": "_wallet",
        "offset": 0,
        "slot": "6",
        "type": "t_address_payable"
      },
      {
        "astId": 7752,
        "contract": "src/solc_0.6/EstateSale/EstateSaleWithAuth.sol:EstateSaleWithAuth",
        "label": "_authValidator",
        "offset": 0,
        "slot": "7",
        "type": "t_contract(AuthValidator)7063"
      }
    ],
    "types": {
      "t_address": {
        "encoding": "inplace",
        "label": "address",
        "numberOfBytes": "20"
      },
      "t_address_payable": {
        "encoding": "inplace",
        "label": "address payable",
        "numberOfBytes": "20"
      },
      "t_bool": {
        "encoding": "inplace",
        "label": "bool",
        "numberOfBytes": "1"
      },
      "t_contract(AuthValidator)7063": {
        "encoding": "inplace",
        "label": "contract AuthValidator",
        "numberOfBytes": "20"
      },
      "t_mapping(t_address,t_bool)": {
        "encoding": "mapping",
        "key": "t_address",
        "label": "mapping(address => bool)",
        "numberOfBytes": "32",
        "value": "t_bool"
      },
      "t_mapping(t_address,t_uint256)": {
        "encoding": "mapping",
        "key": "t_address",
        "label": "mapping(address => uint256)",
        "numberOfBytes": "32",
        "value": "t_uint256"
      },
      "t_uint256": {
        "encoding": "inplace",
        "label": "uint256",
        "numberOfBytes": "32"
      }
    }
  }
}