{
  "address": "0xe19A7A92b2788b930e269Ca0cA5EB4DC2491945E",
  "abi": [
    {
      "inputs": [
        {
          "internalType": "address",
          "name": "defaultAdmin",
          "type": "address"
        },
        {
          "internalType": "address",
          "name": "starterPackAdmin",
          "type": "address"
        },
        {
          "internalType": "address",
          "name": "sandContractAddress",
          "type": "address"
        },
        {
          "internalType": "address",
          "name": "trustedForwarder",
          "type": "address"
        },
        {
          "internalType": "address payable",
          "name": "initialWalletAddress",
          "type": "address"
        },
        {
          "internalType": "address",
          "name": "initialSigningWallet",
          "type": "address"
        },
        {
          "internalType": "address",
          "name": "registry",
          "type": "address"
        }
      ],
      "stateMutability": "nonpayable",
      "type": "constructor"
    },
    {
      "anonymous": false,
      "inputs": [
        {
          "indexed": true,
          "internalType": "address",
          "name": "buyer",
          "type": "address"
        },
        {
          "components": [
            {
              "internalType": "address",
              "name": "buyer",
              "type": "address"
            },
            {
              "internalType": "uint16[]",
              "name": "catalystIds",
              "type": "uint16[]"
            },
            {
              "internalType": "uint256[]",
              "name": "catalystQuantities",
              "type": "uint256[]"
            },
            {
              "internalType": "uint16[]",
              "name": "gemIds",
              "type": "uint16[]"
            },
            {
              "internalType": "uint256[]",
              "name": "gemQuantities",
              "type": "uint256[]"
            },
            {
              "internalType": "uint256",
              "name": "nonce",
              "type": "uint256"
            }
          ],
          "indexed": false,
          "internalType": "struct StarterPackV2.Message",
          "name": "message",
          "type": "tuple"
        },
        {
          "indexed": false,
          "internalType": "uint256",
          "name": "amountPaid",
          "type": "uint256"
        },
        {
          "indexed": true,
          "internalType": "address",
          "name": "token",
          "type": "address"
        }
      ],
      "name": "Purchase",
      "type": "event"
    },
    {
      "anonymous": false,
      "inputs": [
        {
          "indexed": true,
          "internalType": "address",
          "name": "newReceivingWallet",
          "type": "address"
        }
      ],
      "name": "ReceivingWallet",
      "type": "event"
    },
    {
      "anonymous": false,
      "inputs": [
        {
          "indexed": true,
          "internalType": "bytes32",
          "name": "role",
          "type": "bytes32"
        },
        {
          "indexed": true,
          "internalType": "bytes32",
          "name": "previousAdminRole",
          "type": "bytes32"
        },
        {
          "indexed": true,
          "internalType": "bytes32",
          "name": "newAdminRole",
          "type": "bytes32"
        }
      ],
      "name": "RoleAdminChanged",
      "type": "event"
    },
    {
      "anonymous": false,
      "inputs": [
        {
          "indexed": true,
          "internalType": "bytes32",
          "name": "role",
          "type": "bytes32"
        },
        {
          "indexed": true,
          "internalType": "address",
          "name": "account",
          "type": "address"
        },
        {
          "indexed": true,
          "internalType": "address",
          "name": "sender",
          "type": "address"
        }
      ],
      "name": "RoleGranted",
      "type": "event"
    },
    {
      "anonymous": false,
      "inputs": [
        {
          "indexed": true,
          "internalType": "bytes32",
          "name": "role",
          "type": "bytes32"
        },
        {
          "indexed": true,
          "internalType": "address",
          "name": "account",
          "type": "address"
        },
        {
          "indexed": true,
          "internalType": "address",
          "name": "sender",
          "type": "address"
        }
      ],
      "name": "RoleRevoked",
      "type": "event"
    },
    {
      "anonymous": false,
      "inputs": [
        {
          "indexed": false,
          "internalType": "bool",
          "name": "enabled",
          "type": "bool"
        }
      ],
      "name": "SandEnabled",
      "type": "event"
    },
    {
      "anonymous": false,
      "inputs": [
        {
          "indexed": false,
          "internalType": "uint16[]",
          "name": "catalystIds",
          "type": "uint16[]"
        },
        {
          "indexed": false,
          "internalType": "uint256[]",
          "name": "catalystPrices",
          "type": "uint256[]"
        },
        {
          "indexed": false,
          "internalType": "uint16[]",
          "name": "gemIds",
          "type": "uint16[]"
        },
        {
          "indexed": false,
          "internalType": "uint256[]",
          "name": "gemPrices",
          "type": "uint256[]"
        },
        {
          "indexed": false,
          "internalType": "uint256",
          "name": "priceChangeTimestamp",
          "type": "uint256"
        }
      ],
      "name": "SetPrices",
      "type": "event"
    },
    {
      "anonymous": false,
      "inputs": [
        {
          "indexed": true,
          "internalType": "address",
          "name": "newSigningWallet",
          "type": "address"
        }
      ],
      "name": "SigningWallet",
      "type": "event"
    },
    {
      "anonymous": false,
      "inputs": [
        {
          "indexed": true,
          "internalType": "address",
          "name": "to",
          "type": "address"
        },
        {
          "indexed": false,
          "internalType": "uint16[]",
          "name": "catalystIds",
          "type": "uint16[]"
        },
        {
          "indexed": false,
          "internalType": "uint16[]",
          "name": "gemIds",
          "type": "uint16[]"
        }
      ],
      "name": "WithdrawAll",
      "type": "event"
    },
    {
      "inputs": [],
      "name": "DEFAULT_ADMIN_ROLE",
      "outputs": [
        {
          "internalType": "bytes32",
          "name": "",
          "type": "bytes32"
        }
      ],
      "stateMutability": "view",
      "type": "function"
    },
    {
      "inputs": [],
      "name": "PURCHASE_TYPEHASH",
      "outputs": [
        {
          "internalType": "bytes32",
          "name": "",
          "type": "bytes32"
        }
      ],
      "stateMutability": "view",
      "type": "function"
    },
    {
      "inputs": [],
      "name": "STARTERPACK_ROLE",
      "outputs": [
        {
          "internalType": "bytes32",
          "name": "",
          "type": "bytes32"
        }
      ],
      "stateMutability": "view",
      "type": "function"
    },
    {
      "inputs": [],
      "name": "_sandEnabled",
      "outputs": [
        {
          "internalType": "bool",
          "name": "",
          "type": "bool"
        }
      ],
      "stateMutability": "view",
      "type": "function"
    },
    {
      "inputs": [
        {
          "internalType": "uint16[]",
          "name": "catalystIds",
          "type": "uint16[]"
        },
        {
          "internalType": "uint256[]",
          "name": "catalystQuantities",
          "type": "uint256[]"
        },
        {
          "internalType": "uint16[]",
          "name": "gemIds",
          "type": "uint16[]"
        },
        {
          "internalType": "uint256[]",
          "name": "gemQuantities",
          "type": "uint256[]"
        }
      ],
      "name": "calculateTotalPriceInSAND",
      "outputs": [
        {
          "internalType": "uint256",
          "name": "",
          "type": "uint256"
        }
      ],
      "stateMutability": "nonpayable",
      "type": "function"
    },
    {
      "inputs": [],
      "name": "domainSeparator",
      "outputs": [
        {
          "internalType": "bytes32",
          "name": "",
          "type": "bytes32"
        }
      ],
      "stateMutability": "view",
      "type": "function"
    },
    {
      "inputs": [],
      "name": "getChainId",
      "outputs": [
        {
          "internalType": "uint256",
          "name": "",
          "type": "uint256"
        }
      ],
      "stateMutability": "view",
      "type": "function"
    },
    {
      "inputs": [
        {
          "internalType": "address",
          "name": "_buyer",
          "type": "address"
        },
        {
          "internalType": "uint128",
          "name": "_queueId",
          "type": "uint128"
        }
      ],
      "name": "getNonceByBuyer",
      "outputs": [
        {
          "internalType": "uint128",
          "name": "",
          "type": "uint128"
        }
      ],
      "stateMutability": "view",
      "type": "function"
    },
    {
      "inputs": [
        {
          "internalType": "uint16[]",
          "name": "catalystIds",
          "type": "uint16[]"
        },
        {
          "internalType": "uint16[]",
          "name": "gemIds",
          "type": "uint16[]"
        }
      ],
      "name": "getPrices",
      "outputs": [
        {
          "internalType": "uint256[]",
          "name": "",
          "type": "uint256[]"
        },
        {
          "internalType": "uint256[]",
          "name": "",
          "type": "uint256[]"
        },
        {
          "internalType": "uint256[]",
          "name": "",
          "type": "uint256[]"
        },
        {
          "internalType": "uint256[]",
          "name": "",
          "type": "uint256[]"
        },
        {
          "internalType": "uint256",
          "name": "",
          "type": "uint256"
        }
      ],
      "stateMutability": "view",
      "type": "function"
    },
    {
      "inputs": [],
      "name": "getReceivingWallet",
      "outputs": [
        {
          "internalType": "address",
          "name": "",
          "type": "address"
        }
      ],
      "stateMutability": "view",
      "type": "function"
    },
    {
      "inputs": [
        {
          "internalType": "bytes32",
          "name": "role",
          "type": "bytes32"
        }
      ],
      "name": "getRoleAdmin",
      "outputs": [
        {
          "internalType": "bytes32",
          "name": "",
          "type": "bytes32"
        }
      ],
      "stateMutability": "view",
      "type": "function"
    },
    {
      "inputs": [],
      "name": "getSigningWallet",
      "outputs": [
        {
          "internalType": "address",
          "name": "",
          "type": "address"
        }
      ],
      "stateMutability": "view",
      "type": "function"
    },
    {
      "inputs": [],
      "name": "getTrustedForwarder",
      "outputs": [
        {
          "internalType": "address",
          "name": "trustedForwarder",
          "type": "address"
        }
      ],
      "stateMutability": "view",
      "type": "function"
    },
    {
      "inputs": [
        {
          "internalType": "bytes32",
          "name": "role",
          "type": "bytes32"
        },
        {
          "internalType": "address",
          "name": "account",
          "type": "address"
        }
      ],
      "name": "grantRole",
      "outputs": [],
      "stateMutability": "nonpayable",
      "type": "function"
    },
    {
      "inputs": [
        {
          "internalType": "bytes32",
          "name": "role",
          "type": "bytes32"
        },
        {
          "internalType": "address",
          "name": "account",
          "type": "address"
        }
      ],
      "name": "hasRole",
      "outputs": [
        {
          "internalType": "bool",
          "name": "",
          "type": "bool"
        }
      ],
      "stateMutability": "view",
      "type": "function"
    },
    {
      "inputs": [],
      "name": "isSANDEnabled",
      "outputs": [
        {
          "internalType": "bool",
          "name": "",
          "type": "bool"
        }
      ],
      "stateMutability": "view",
      "type": "function"
    },
    {
      "inputs": [
        {
          "internalType": "address",
          "name": "forwarder",
          "type": "address"
        }
      ],
      "name": "isTrustedForwarder",
      "outputs": [
        {
          "internalType": "bool",
          "name": "",
          "type": "bool"
        }
      ],
      "stateMutability": "view",
      "type": "function"
    },
    {
      "inputs": [
        {
          "components": [
            {
              "internalType": "address",
              "name": "buyer",
              "type": "address"
            },
            {
              "internalType": "uint16[]",
              "name": "catalystIds",
              "type": "uint16[]"
            },
            {
              "internalType": "uint256[]",
              "name": "catalystQuantities",
              "type": "uint256[]"
            },
            {
              "internalType": "uint16[]",
              "name": "gemIds",
              "type": "uint16[]"
            },
            {
              "internalType": "uint256[]",
              "name": "gemQuantities",
              "type": "uint256[]"
            },
            {
              "internalType": "uint256",
              "name": "nonce",
              "type": "uint256"
            }
          ],
          "internalType": "struct StarterPackV2.Message",
          "name": "message",
          "type": "tuple"
        },
        {
          "internalType": "bytes",
          "name": "signature",
          "type": "bytes"
        }
      ],
      "name": "purchaseWithSAND",
      "outputs": [],
      "stateMutability": "nonpayable",
      "type": "function"
    },
    {
      "inputs": [
        {
          "internalType": "address",
          "name": "",
          "type": "address"
        },
        {
          "internalType": "uint128",
          "name": "",
          "type": "uint128"
        }
      ],
      "name": "queuedNonces",
      "outputs": [
        {
          "internalType": "uint128",
          "name": "",
          "type": "uint128"
        }
      ],
      "stateMutability": "view",
      "type": "function"
    },
    {
      "inputs": [
        {
          "internalType": "bytes32",
          "name": "role",
          "type": "bytes32"
        },
        {
          "internalType": "address",
          "name": "account",
          "type": "address"
        }
      ],
      "name": "renounceRole",
      "outputs": [],
      "stateMutability": "nonpayable",
      "type": "function"
    },
    {
      "inputs": [
        {
          "internalType": "bytes32",
          "name": "role",
          "type": "bytes32"
        },
        {
          "internalType": "address",
          "name": "account",
          "type": "address"
        }
      ],
      "name": "revokeRole",
      "outputs": [],
      "stateMutability": "nonpayable",
      "type": "function"
    },
    {
      "inputs": [
        {
          "internalType": "uint16[]",
          "name": "catalystIds",
          "type": "uint16[]"
        },
        {
          "internalType": "uint256[]",
          "name": "catalystPrices",
          "type": "uint256[]"
        },
        {
          "internalType": "uint16[]",
          "name": "gemIds",
          "type": "uint16[]"
        },
        {
          "internalType": "uint256[]",
          "name": "gemPrices",
          "type": "uint256[]"
        }
      ],
      "name": "setPrices",
      "outputs": [],
      "stateMutability": "nonpayable",
      "type": "function"
    },
    {
      "inputs": [
        {
          "internalType": "address payable",
          "name": "newReceivingWallet",
          "type": "address"
        }
      ],
      "name": "setReceivingWallet",
      "outputs": [],
      "stateMutability": "nonpayable",
      "type": "function"
    },
    {
      "inputs": [
        {
          "internalType": "bool",
          "name": "enabled",
          "type": "bool"
        }
      ],
      "name": "setSANDEnabled",
      "outputs": [],
      "stateMutability": "nonpayable",
      "type": "function"
    },
    {
      "inputs": [
        {
          "internalType": "address",
          "name": "newSigningWallet",
          "type": "address"
        }
      ],
      "name": "setSigningWallet",
      "outputs": [],
      "stateMutability": "nonpayable",
      "type": "function"
    },
    {
      "inputs": [
        {
          "internalType": "bytes4",
          "name": "interfaceId",
          "type": "bytes4"
        }
      ],
      "name": "supportsInterface",
      "outputs": [
        {
          "internalType": "bool",
          "name": "",
          "type": "bool"
        }
      ],
      "stateMutability": "view",
      "type": "function"
    },
    {
      "inputs": [
        {
          "internalType": "address",
          "name": "to",
          "type": "address"
        },
        {
          "internalType": "uint16[]",
          "name": "catalystIds",
          "type": "uint16[]"
        },
        {
          "internalType": "uint16[]",
          "name": "gemIds",
          "type": "uint16[]"
        }
      ],
      "name": "withdrawAll",
      "outputs": [],
      "stateMutability": "nonpayable",
      "type": "function"
    }
  ],
  "transactionHash": "0x7181dae76df29ae68df40552eb7343b75123bf69d85c8dd3103d4308e22ba853",
  "args": [
    "0x49c4D4C94829B9c44052C5f5Cb164Fc612181165",
    "0x49c4D4C94829B9c44052C5f5Cb164Fc612181165",
    "0x592daadC9eA7F56A81De1FD27A723Bd407709c46",
    "0x69015912aa33720b842dcd6ac059ed623f28d9f7",
    "0xa5Eb9C9Eb4F4c35B9Be8cFaAA7909F9ebe6Cb609",
    "0x17c5185167401eD00cF5F5b2fc97D9BBfDb7D025",
    "0xdDD37BE9b8B5C5DaF7E4f4cB0BBf354Bc956042f"
  ],
  "numDeployments": 1,
  "solcInputHash": "145df613a093fbba5360a1afb142b8e3",
  "bytecode": "0x6101806040523480156200001257600080fd5b50604051620042323803806200423283398101604081905262000035916200050a565b604080518082018252601381527f53616e64626f7820537461727465725061636b0000000000000000000000000060208083019182528351808501855260038152620312e360ec1b81830152835190922060e08190527fe6bbd6277e1bf288eed5e8d1780f9a50b239e86b153736bceebccf4ea79d90b36101008190524660a081815287517f8b73c3c69bb8fe3d512ecc4cf759cc79239f7b179b0ffacaa9a75d522b39400f818701819052818a0195909552606081810194909452608080820193909352308183018190528951808303909301835260c09182019099528151919095012090529490941b90526101209290925285918491906001600160a01b038316620001805760405162461bcd60e51b815260206004820152601360248201527257414c4c45545f5a45524f5f4144445245535360681b60448201526064015b60405180910390fd5b5050600180546001600160a01b03199081166001600160a01b039384161790915560038054909116928216929092179091558716620001f75760405162461bcd60e51b815260206004820152601260248201527141444d494e5f5a45524f5f4144445245535360701b604482015260640162000177565b6001600160a01b0386166200024f5760405162461bcd60e51b815260206004820152601e60248201527f535441525445525041434b5f41444d494e5f5a45524f5f414444524553530000604482015260640162000177565b6001600160a01b0385166200029b5760405162461bcd60e51b815260206004820152601160248201527053414e445f5a45524f5f4144445245535360781b604482015260640162000177565b6001600160a01b038416620002f35760405162461bcd60e51b815260206004820152601660248201527f464f525741524445525f5a45524f5f4144445245535300000000000000000000604482015260640162000177565b6001600160a01b038316620003415760405162461bcd60e51b815260206004820152601360248201527257414c4c45545f5a45524f5f4144445245535360681b604482015260640162000177565b6001600160a01b038116620003995760405162461bcd60e51b815260206004820152601560248201527f52454749535452595f5a45524f5f414444524553530000000000000000000000604482015260640162000177565b620003a66000886200041b565b620003d27ff0b465b2fd9a8eb309079c069118a26163974b82d09d2b1dafd9aef7692568e6876200041b565b606094851b6001600160601b031990811661014052600580546001600160a01b0319166001600160a01b03959095169490941790935590931b166101605250620005cd92505050565b6000828152602081815260408083206001600160a01b038516845290915290205460ff16620004ba576000828152602081815260408083206001600160a01b03851684529091529020805460ff1916600117905562000479620004be565b6001600160a01b0316816001600160a01b0316837f2f8788117e7eff1d82e926ec794901d17c78024a50270940304540a733656f0d60405160405180910390a45b5050565b6000620004d5620004db60201b62001a1b1760201c565b90505b90565b6003546000906001600160a01b031633141562000502575060131936013560601c620004d8565b5033620004d8565b600080600080600080600060e0888a03121562000525578283fd5b87516200053281620005b4565b60208901519097506200054581620005b4565b60408901519096506200055881620005b4565b60608901519095506200056b81620005b4565b60808901519094506200057e81620005b4565b60a08901519093506200059181620005b4565b60c0890151909250620005a481620005b4565b8091505092959891949750929550565b6001600160a01b0381168114620005ca57600080fd5b50565b60805160a05160c05160601c60e05161010051610120516101405160601c6101605160601c613bda6200065860003960008181611b2201528181611beb0152818161244301526125d101526000818161102f01526121880152600061276a015260006127b901526000612794015260006126eb015260006127150152600061273f0152613bda6000f3fe608060405234801561001057600080fd5b50600436106101b95760003560e01c80637eb6f6e1116100f9578063c6ba4c8111610097578063d2118a3211610071578063d2118a3214610443578063d3bd2cf514610457578063d547741f1461047e578063f698da2514610491576101b9565b8063c6ba4c811461040e578063caed350014610421578063ce1b815f14610432576101b9565b8063a217fddf116100d3578063a217fddf146103a3578063a7e30684146103ab578063b522ecff146103be578063bf5c3e9f146103d1576101b9565b80637eb6f6e114610321578063883295291461034857806391d148541461036c576101b9565b806336568abe11610166578063572b6c0511610140578063572b6c05146102b45780635b2c9bc4146102d65780636131bc4a146102e95780637c53ec4c1461030e576101b9565b806336568abe1461025a5780634513e1fe1461026d5780634d08cbc114610280576101b9565b80632cbb68c7116101975780632cbb68c71461022c5780632f2ff15d1461023f5780633408e47014610252576101b9565b806301ede9a7146101be57806301ffc9a7146101d3578063248a9ca3146101fb575b600080fd5b6101d16101cc366004613159565b610499565b005b6101e66101e1366004613485565b6105c8565b60405190151581526020015b60405180910390f35b61021e610209366004613449565b60009081526020819052604090206001015490565b6040519081526020016101f2565b6101d161023a3660046132aa565b610663565b6101d161024d366004613461565b610aa3565b61021e610ad0565b6101d1610268366004613461565b610ad5565b6101d161027b3660046134e1565b610b71565b61029361028e3660046131f5565b6110a4565b6040516fffffffffffffffffffffffffffffffff90911681526020016101f2565b6101e66102c2366004613159565b6003546001600160a01b0390811691161490565b61021e6102e4366004613369565b6110e3565b6005546001600160a01b03165b6040516001600160a01b0390911681526020016101f2565b6101d161031c366004613411565b6110fa565b61021e7f4acf49a75d600a594757b3a4cf06923667df023a4888b3ff7accc07a1fe8581f81565b61035b610356366004613241565b61119b565b6040516101f29594939291906137e7565b6101e661037a366004613461565b6000918252602082815260408084206001600160a01b0393909316845291905290205460ff1690565b61021e600081565b6101e6600554600160a01b900460ff1690565b6101d16103cc366004613159565b6114f4565b6102936103df3660046131f5565b60026020908152600092835260408084209091529082529020546fffffffffffffffffffffffffffffffff1681565b6101d161041c366004613175565b611619565b6001546001600160a01b03166102f6565b6003546001600160a01b03166102f6565b6005546101e690600160a01b900460ff1681565b61021e7ff0b465b2fd9a8eb309079c069118a26163974b82d09d2b1dafd9aef7692568e681565b6101d161048c366004613461565b6119e4565b61021e611a0c565b60006104ac816104a7611a65565b611a6f565b6001600160a01b0382166105075760405162461bcd60e51b815260206004820152601360248201527f57414c4c45545f5a45524f5f414444524553530000000000000000000000000060448201526064015b60405180910390fd5b6001546001600160a01b03838116911614156105655760405162461bcd60e51b815260206004820152601260248201527f57414c4c45545f414c52454144595f534554000000000000000000000000000060448201526064016104fe565b600180547fffffffffffffffffffffffff0000000000000000000000000000000000000000166001600160a01b0384169081179091556040517f48772ae5df5446cb5feef762e8204b7987ae4d5dd4a7082bc868da62cdafbdd890600090a25050565b60007fffffffff0000000000000000000000000000000000000000000000000000000082167f7965db0b00000000000000000000000000000000000000000000000000000000148061065b57507f01ffc9a7000000000000000000000000000000000000000000000000000000007fffffffff000000000000000000000000000000000000000000000000000000008316145b90505b919050565b7ff0b465b2fd9a8eb309079c069118a26163974b82d09d2b1dafd9aef7692568e6610690816104a7611a65565b610e106004546106a09190613a82565b42116106ee5760405162461bcd60e51b815260206004820152601660248201527f44454c41595f504552494f445f494e5f4546464543540000000000000000000060448201526064016104fe565b87861461073d5760405162461bcd60e51b815260206004820152601160248201527f494e56414c49445f4341545f494e50555400000000000000000000000000000060448201526064016104fe565b83821461078c5760405162461bcd60e51b815260206004820152601160248201527f494e56414c49445f47454d5f494e50555400000000000000000000000000000060448201526064016104fe565b61ffff8611156107de5760405162461bcd60e51b815260206004820152601860248201527f544f4f5f4d414e595f434154414c5953545f505249434553000000000000000060448201526064016104fe565b61ffff8211156108305760405162461bcd60e51b815260206004820152601360248201527f544f4f5f4d414e595f47454d5f5052494345530000000000000000000000000060448201526064016104fe565b60005b8881101561093d5760008a8a8381811061085d57634e487b7160e01b600052603260045260246000fd5b90506020020160208101906108729190613579565b905061087d81611aed565b6108c95760405162461bcd60e51b815260206004820152600e60248201527f494e56414c49445f4341545f494400000000000000000000000000000000000060448201526064016104fe565b61ffff811660009081526006602090815260408083205460079092529091205588888381811061090957634e487b7160e01b600052603260045260246000fd5b61ffff909316600090815260066020908152604090912093029190910135909155508061093581613b10565b915050610833565b5060005b84811015610a4b57600086868381811061096b57634e487b7160e01b600052603260045260246000fd5b90506020020160208101906109809190613579565b905061098b81611bb6565b6109d75760405162461bcd60e51b815260206004820152600e60248201527f494e56414c49445f47454d5f494400000000000000000000000000000000000060448201526064016104fe565b61ffff8116600090815260086020908152604080832054600990925290912055848483818110610a1757634e487b7160e01b600052603260045260246000fd5b61ffff9093166000908152600860209081526040909120930291909101359091555080610a4381613b10565b915050610941565b504260048190556040517fc9d599c84a31e2682b8d247a3a928d4d8fdbe782a60fb12496b0635e743b9bad91610a90918c918c918c918c918c918c918c918c9161377f565b60405180910390a1505050505050505050565b600082815260208190526040902060010154610ac1816104a7611a65565b610acb8383611c22565b505050565b465b90565b610add611a65565b6001600160a01b0316816001600160a01b031614610b635760405162461bcd60e51b815260206004820152602f60248201527f416363657373436f6e74726f6c3a2063616e206f6e6c792072656e6f756e636560448201527f20726f6c657320666f722073656c66000000000000000000000000000000000060648201526084016104fe565b610b6d8282611cc1565b5050565b610b79611a65565b6001600160a01b0316610b8f6020850185613159565b6001600160a01b031614610be55760405162461bcd60e51b815260206004820152600e60248201527f494e56414c49445f53454e44455200000000000000000000000000000000000060448201526064016104fe565b600554600160a01b900460ff16610c3e5760405162461bcd60e51b815260206004820152601360248201527f53414e445f49535f4e4f545f454e41424c45440000000000000000000000000060448201526064016104fe565b610d89610c4e6020850185613159565b610c5b602086018661396a565b80806020026020016040519081016040528093929190818152602001838360200280828437600092019190915250610c9a92505050604087018761396a565b80806020026020016040519081016040528093929190818152602001838360200280828437600092019190915250610cd992505050606088018861396a565b80806020026020016040519081016040528093929190818152602001838360200280828437600092019190915250610d1892505050608089018961396a565b8080602002602001604051908101604052809392919081815260200183836020028082843760009201919091525050604080516020601f8c018190048102820181019092528a815260a08d0135935091508a908a9081908401838280828437600092019190915250611d5e92505050565b610dd55760405162461bcd60e51b815260206004820152601060248201527f494e56414c49445f50555243484153450000000000000000000000000000000060448201526064016104fe565b6000610edb610de7602086018661396a565b80806020026020016040519081016040528093929190818152602001838360200280828437600092019190915250610e2692505050604087018761396a565b80806020026020016040519081016040528093929190818152602001838360200280828437600092019190915250610e6592505050606088018861396a565b80806020026020016040519081016040528093929190818152602001838360200280828437600092019190915250610ea492505050608089018961396a565b80806020026020016040519081016040528093929190818152602001838360200280828437600092019190915250611f0192505050565b9050610eff610eed6020860186613159565b6005546001600160a01b031683612158565b610f92610f0f602086018661396a565b80806020026020016040519081016040528093929190818152602001838360200280828437600092019190915250610f4e92505050604087018761396a565b80806020026020016040519081016040528093929190818152602001838360200280828437600092019190915250610f8d925050506020880188613159565b612258565b611025610fa2606086018661396a565b80806020026020016040519081016040528093929190818152602001838360200280828437600092019190915250610fe192505050608087018761396a565b80806020026020016040519081016040528093929190818152602001838360200280828437600092019190915250611020925050506020880188613159565b612333565b6001600160a01b037f00000000000000000000000000000000000000000000000000000000000000001661105c6020860186613159565b6001600160a01b03167f88cf9250270a174fd21b12814284914b5a06288dea4adef8c253fa9ea0b00960868460405161109692919061387a565b60405180910390a350505050565b6001600160a01b03821660009081526002602090815260408083206fffffffffffffffffffffffffffffffff8086168552925290912054165b92915050565b60006110f185858585611f01565b95945050505050565b7ff0b465b2fd9a8eb309079c069118a26163974b82d09d2b1dafd9aef7692568e6611127816104a7611a65565b60058054831515600160a01b027fffffffffffffffffffffff00ffffffffffffffffffffffffffffffffffffffff9091161790556040517ff335ca6ebe8497478be43c9f42277776ba3e3a19eea1a0774d15ba9db1bd41c69061118f90841515815260200190565b60405180910390a15050565b606080606080600080600090506004546000146111c557610e106004546111c29190613a82565b90505b60008967ffffffffffffffff8111156111ee57634e487b7160e01b600052604160045260246000fd5b604051908082528060200260200182016040528015611217578160200160208202803683370190505b50905060008a67ffffffffffffffff81111561124357634e487b7160e01b600052604160045260246000fd5b60405190808252806020026020018201604052801561126c578160200160208202803683370190505b50905060008967ffffffffffffffff81111561129857634e487b7160e01b600052604160045260246000fd5b6040519080825280602002602001820160405280156112c1578160200160208202803683370190505b50905060008a67ffffffffffffffff8111156112ed57634e487b7160e01b600052604160045260246000fd5b604051908082528060200260200182016040528015611316578160200160208202803683370190505b50905060005b8d8110156113fb5760008f8f8381811061134657634e487b7160e01b600052603260045260246000fd5b905060200201602081019061135b9190613579565b61ffff811660009081526007602052604090205487519192509087908490811061139557634e487b7160e01b600052603260045260246000fd5b602002602001018181525050600660008261ffff1661ffff168152602001908152602001600020548583815181106113dd57634e487b7160e01b600052603260045260246000fd5b602090810291909101015250806113f381613b10565b91505061131c565b5060005b8b8110156114de5760008d8d8381811061142957634e487b7160e01b600052603260045260246000fd5b905060200201602081019061143e9190613579565b61ffff811660009081526009602052604090205485519192509085908490811061147857634e487b7160e01b600052603260045260246000fd5b602002602001018181525050600860008261ffff1661ffff168152602001908152602001600020548383815181106114c057634e487b7160e01b600052603260045260246000fd5b602090810291909101015250806114d681613b10565b9150506113ff565b50929d919c509a50909850909650945050505050565b6000611502816104a7611a65565b6001600160a01b0382166115585760405162461bcd60e51b815260206004820152601360248201527f57414c4c45545f5a45524f5f414444524553530000000000000000000000000060448201526064016104fe565b6005546001600160a01b03838116911614156115b65760405162461bcd60e51b815260206004820152601260248201527f57414c4c45545f414c52454144595f534554000000000000000000000000000060448201526064016104fe565b600580547fffffffffffffffffffffffff0000000000000000000000000000000000000000166001600160a01b0384169081179091556040517f36bd24528fb590ed70f3d60ee66c142cdf4cfddb960c8ca95491e15756464afd90600090a25050565b6000611627816104a7611a65565b60646116338386613a82565b11156116815760405162461bcd60e51b815260206004820152600c60248201527f544f4f5f4d414e595f494453000000000000000000000000000000000000000060448201526064016104fe565b6001600160a01b0386166116d75760405162461bcd60e51b815260206004820152600c60248201527f5a45524f5f41444452455353000000000000000000000000000000000000000060448201526064016104fe565b60005b8481101561183557600086868381811061170457634e487b7160e01b600052603260045260246000fd5b90506020020160208101906117199190613579565b905061172481611aed565b6117705760405162461bcd60e51b815260206004820152601360248201527f494e56414c49445f434154414c5953545f49440000000000000000000000000060448201526064016104fe565b600061177b8261240e565b6040517f70a082310000000000000000000000000000000000000000000000000000000081523060048201529091506000906001600160a01b038316906370a082319060240160206040518083038186803b1580156117d957600080fd5b505afa1580156117ed573d6000803e3d6000fd5b505050506040513d601f19601f820116820180604052508101906118119190613593565b905061181f82308c846124c6565b505050808061182d90613b10565b9150506116da565b5060005b8281101561199457600084848381811061186357634e487b7160e01b600052603260045260246000fd5b90506020020160208101906118789190613579565b905061188381611bb6565b6118cf5760405162461bcd60e51b815260206004820152600e60248201527f494e56414c49445f47454d5f494400000000000000000000000000000000000060448201526064016104fe565b60006118da8261259c565b6040517f70a082310000000000000000000000000000000000000000000000000000000081523060048201529091506000906001600160a01b038316906370a082319060240160206040518083038186803b15801561193857600080fd5b505afa15801561194c573d6000803e3d6000fd5b505050506040513d601f19601f820116820180604052508101906119709190613593565b905061197e82308c84612608565b505050808061198c90613b10565b915050611839565b50856001600160a01b03167f82c2527369e946c0503dcd68b2410afcba8d1d211bd6673531481d2bc38a47df868686866040516119d4949392919061374d565b60405180910390a2505050505050565b600082815260208190526040902060010154611a02816104a7611a65565b610acb8383611cc1565b6000611a166126de565b905090565b6003546000906001600160a01b0316331415611a5e57507fffffffffffffffffffffffffffffffffffffffffffffffffffffffffffffffec36013560601c610ad2565b5033610ad2565b6000611a16611a1b565b6000828152602081815260408083206001600160a01b038516845290915290205460ff16610b6d57611aab816001600160a01b03166014612809565b611ab6836020612809565b604051602001611ac79291906136cc565b60408051601f198184030181529082905262461bcd60e51b82526104fe91600401613847565b6040517fc056975800000000000000000000000000000000000000000000000000000000815261ffff821660048201526000907f00000000000000000000000000000000000000000000000000000000000000006001600160a01b03169063c0569758906024015b60206040518083038186803b158015611b6d57600080fd5b505afa158015611b81573d6000803e3d6000fd5b505050506040513d601f19601f82011682018060405250810190611ba5919061342d565b801561065b57505061ffff16151590565b6040517f141376f900000000000000000000000000000000000000000000000000000000815261ffff821660048201526000907f00000000000000000000000000000000000000000000000000000000000000006001600160a01b03169063141376f990602401611b55565b6000828152602081815260408083206001600160a01b038516845290915290205460ff16610b6d576000828152602081815260408083206001600160a01b03851684529091529020805460ff19166001179055611c7d611a65565b6001600160a01b0316816001600160a01b0316837f2f8788117e7eff1d82e926ec794901d17c78024a50270940304540a733656f0d60405160405180910390a45050565b6000828152602081815260408083206001600160a01b038516845290915290205460ff1615610b6d576000828152602081815260408083206001600160a01b03851684529091529020805460ff19169055611d1a611a65565b6001600160a01b0316816001600160a01b0316837ff6391f5c32d9c69d2a47ea670b442974b53935d1edc7fd64eb21e047a839171b60405160405180910390a45050565b6000611d6a8884612a7f565b611db65760405162461bcd60e51b815260206004820152600d60248201527f494e56414c49445f4e4f4e43450000000000000000000000000000000000000060448201526064016104fe565b6000611ed47f4acf49a75d600a594757b3a4cf06923667df023a4888b3ff7accc07a1fe8581f8a8a604051602001611dee9190613668565b604051602081830303815290604052805190602001208a604051602001611e1591906136a2565b604051602081830303815290604052805190602001208a604051602001611e3c9190613668565b604051602081830303815290604052805190602001208a604051602001611e6391906136a2565b60408051601f198184030181528282528051602091820120908301979097526001600160a01b03909516948101949094526060840192909252608083015260a082015260c081019190915260e081018690526101000160405160208183030381529060405280519060200120612b88565b90506000611ee28285612bf1565b6001546001600160a01b039081169116149a9950505050505050505050565b60008351855114611f545760405162461bcd60e51b815260206004820152601160248201527f494e56414c49445f4341545f494e50555400000000000000000000000000000060448201526064016104fe565b8151835114611fa55760405162461bcd60e51b815260206004820152601160248201527f494e56414c49445f47454d5f494e50555400000000000000000000000000000060448201526064016104fe565b6000611faf612c15565b90506000805b875181101561207f576000888281518110611fe057634e487b7160e01b600052603260045260246000fd5b60200260200101519050600088838151811061200c57634e487b7160e01b600052603260045260246000fd5b602002602001015190508461203f5761ffff821660009081526007602052604090205461203a908290613aae565b61205e565b61ffff821660009081526006602052604090205461205e908290613aae565b6120689085613a82565b93505050808061207790613b10565b915050611fb5565b5060005b855181101561214d5760008682815181106120ae57634e487b7160e01b600052603260045260246000fd5b6020026020010151905060008683815181106120da57634e487b7160e01b600052603260045260246000fd5b602002602001015190508461210d5761ffff8216600090815260096020526040902054612108908290613aae565b61212c565b61ffff821660009081526008602052604090205461212c908290613aae565b6121369085613a82565b93505050808061214590613b10565b915050612083565b509695505050505050565b6040516323b872dd60e01b81526001600160a01b03848116600483015283811660248301526044820183905282917f0000000000000000000000000000000000000000000000000000000000000000909116906323b872dd90606401602060405180830381600087803b1580156121ce57600080fd5b505af11580156121e2573d6000803e3d6000fd5b505050506040513d601f19601f82011682018060405250810190612206919061342d565b6122525760405162461bcd60e51b815260206004820152601760248201527f5041594d454e545f5452414e534645525f4641494c454400000000000000000060448201526064016104fe565b50505050565b60005b835181101561225257600084828151811061228657634e487b7160e01b600052603260045260246000fd5b6020026020010151905061229981611aed565b6122e55760405162461bcd60e51b815260206004820152601360248201527f494e56414c49445f434154414c5953545f49440000000000000000000000000060448201526064016104fe565b6123206122f18261240e565b308587868151811061231357634e487b7160e01b600052603260045260246000fd5b60200260200101516124c6565b508061232b81613b10565b91505061225b565b60005b835181101561225257600084828151811061236157634e487b7160e01b600052603260045260246000fd5b6020026020010151905061237481611bb6565b6123c05760405162461bcd60e51b815260206004820152600e60248201527f494e56414c49445f47454d5f494400000000000000000000000000000000000060448201526064016104fe565b6123fb6123cc8261259c565b30858786815181106123ee57634e487b7160e01b600052603260045260246000fd5b6020026020010151612608565b508061240681613b10565b915050612336565b6040517fe8a0806600000000000000000000000000000000000000000000000000000000815261ffff821660048201526000907f00000000000000000000000000000000000000000000000000000000000000006001600160a01b03169063e8a08066906024015b60206040518083038186803b15801561248e57600080fd5b505afa1580156124a2573d6000803e3d6000fd5b505050506040513d601f19601f8201168201806040525081019061065b91906134c5565b6040516323b872dd60e01b81526001600160a01b0384811660048301528381166024830152604482018390528516906323b872dd90606401602060405180830381600087803b15801561251857600080fd5b505af115801561252c573d6000803e3d6000fd5b505050506040513d601f19601f82011682018060405250810190612550919061342d565b6122525760405162461bcd60e51b815260206004820152601860248201527f434154414c5953545f5452414e534645525f4641494c4544000000000000000060448201526064016104fe565b6040517f786325dd00000000000000000000000000000000000000000000000000000000815261ffff821660048201526000907f00000000000000000000000000000000000000000000000000000000000000006001600160a01b03169063786325dd90602401612476565b6040516323b872dd60e01b81526001600160a01b0384811660048301528381166024830152604482018390528516906323b872dd90606401602060405180830381600087803b15801561265a57600080fd5b505af115801561266e573d6000803e3d6000fd5b505050506040513d601f19601f82011682018060405250810190612692919061342d565b6122525760405162461bcd60e51b815260206004820152601360248201527f47454d5f5452414e534645525f4641494c45440000000000000000000000000060448201526064016104fe565b6000306001600160a01b037f00000000000000000000000000000000000000000000000000000000000000001614801561273757507f000000000000000000000000000000000000000000000000000000000000000046145b1561276357507f0000000000000000000000000000000000000000000000000000000000000000610ad2565b50604080517f00000000000000000000000000000000000000000000000000000000000000006020808301919091527f0000000000000000000000000000000000000000000000000000000000000000828401527f000000000000000000000000000000000000000000000000000000000000000060608301524660808301523060a0808401919091528351808403909101815260c09092019092528051910120610ad2565b60606000612818836002613aae565b612823906002613a82565b67ffffffffffffffff81111561284957634e487b7160e01b600052604160045260246000fd5b6040519080825280601f01601f191660200182016040528015612873576020820181803683370190505b5090507f3000000000000000000000000000000000000000000000000000000000000000816000815181106128b857634e487b7160e01b600052603260045260246000fd5b60200101907effffffffffffffffffffffffffffffffffffffffffffffffffffffffffffff1916908160001a9053507f78000000000000000000000000000000000000000000000000000000000000008160018151811061292957634e487b7160e01b600052603260045260246000fd5b60200101907effffffffffffffffffffffffffffffffffffffffffffffffffffffffffffff1916908160001a9053506000612965846002613aae565b612970906001613a82565b90505b6001811115612a29577f303132333435363738396162636465660000000000000000000000000000000085600f16601081106129bf57634e487b7160e01b600052603260045260246000fd5b1a60f81b8282815181106129e357634e487b7160e01b600052603260045260246000fd5b60200101907effffffffffffffffffffffffffffffffffffffffffffffffffffffffffffff1916908160001a90535060049490941c93612a2281613af9565b9050612973565b508315612a785760405162461bcd60e51b815260206004820181905260248201527f537472696e67733a20686578206c656e67746820696e73756666696369656e7460448201526064016104fe565b9392505050565b600080612a9d70010000000000000000000000000000000084613a9a565b90506000612abc70010000000000000000000000000000000085613b2b565b6001600160a01b03861660009081526002602090815260408083206fffffffffffffffffffffffffffffffff8088168552925290912054919250908116908216811415612b7c57612b0e816001613a4e565b6001600160a01b03871660009081526002602090815260408083206fffffffffffffffffffffffffffffffff9788168452909152902080547fffffffffffffffffffffffffffffffff0000000000000000000000000000000016919094161790925550600191506110dd9050565b50600095945050505050565b600061065b612b956126de565b836040517f19010000000000000000000000000000000000000000000000000000000000006020820152602281018390526042810182905260009060620160405160208183030381529060405280519060200120905092915050565b6000806000612c008585612c57565b91509150612c0d81612cc7565b509392505050565b60008060045460001415612c2b57506001611a16565b610e10600454612c3b9190613a82565b421115612c4f575060006004556001611a16565b506000905090565b600080825160411415612c8e5760208301516040840151606085015160001a612c8287828585612f03565b94509450505050612cc0565b825160401415612cb85760208301516040840151612cad868383612ff0565b935093505050612cc0565b506000905060025b9250929050565b6000816004811115612ce957634e487b7160e01b600052602160045260246000fd5b1415612cf457612f00565b6001816004811115612d1657634e487b7160e01b600052602160045260246000fd5b1415612d645760405162461bcd60e51b815260206004820152601860248201527f45434453413a20696e76616c6964207369676e6174757265000000000000000060448201526064016104fe565b6002816004811115612d8657634e487b7160e01b600052602160045260246000fd5b1415612dd45760405162461bcd60e51b815260206004820152601f60248201527f45434453413a20696e76616c6964207369676e6174757265206c656e6774680060448201526064016104fe565b6003816004811115612df657634e487b7160e01b600052602160045260246000fd5b1415612e6a5760405162461bcd60e51b815260206004820152602260248201527f45434453413a20696e76616c6964207369676e6174757265202773272076616c60448201527f756500000000000000000000000000000000000000000000000000000000000060648201526084016104fe565b6004816004811115612e8c57634e487b7160e01b600052602160045260246000fd5b1415612f005760405162461bcd60e51b815260206004820152602260248201527f45434453413a20696e76616c6964207369676e6174757265202776272076616c60448201527f756500000000000000000000000000000000000000000000000000000000000060648201526084016104fe565b50565b6000807f7fffffffffffffffffffffffffffffff5d576e7357a4501ddfe92f46681b20a0831115612f3a5750600090506003612fe7565b8460ff16601b14158015612f5257508460ff16601c14155b15612f635750600090506004612fe7565b6040805160008082526020820180845289905260ff881692820192909252606081018690526080810185905260019060a0016020604051602081039080840390855afa158015612fb7573d6000803e3d6000fd5b5050604051601f1901519150506001600160a01b038116612fe057600060019250925050612fe7565b9150600090505b94509492505050565b6000807f7fffffffffffffffffffffffffffffffffffffffffffffffffffffffffffffff831660ff84901c601b0161302a87828885612f03565b935093505050935093915050565b60008083601f840112613049578182fd5b50813567ffffffffffffffff811115613060578182fd5b6020830191508360208083028501011115612cc057600080fd5b600082601f83011261308a578081fd5b8135602061309f61309a836139e2565b6139b1565b82815281810190858301838502870184018810156130bb578586fd5b855b858110156130e0576130ce82613147565b845292840192908401906001016130bd565b5090979650505050505050565b600082601f8301126130fd578081fd5b8135602061310d61309a836139e2565b8281528181019085830183850287018401881015613129578586fd5b855b858110156130e05781358452928401929084019060010161312b565b803561ffff8116811461065e57600080fd5b60006020828403121561316a578081fd5b8135612a7881613b81565b60008060008060006060868803121561318c578081fd5b853561319781613b81565b9450602086013567ffffffffffffffff808211156131b3578283fd5b6131bf89838a01613038565b909650945060408801359150808211156131d7578283fd5b506131e488828901613038565b969995985093965092949392505050565b60008060408385031215613207578182fd5b823561321281613b81565b915060208301356fffffffffffffffffffffffffffffffff81168114613236578182fd5b809150509250929050565b60008060008060408587031215613256578384fd5b843567ffffffffffffffff8082111561326d578586fd5b61327988838901613038565b90965094506020870135915080821115613291578384fd5b5061329e87828801613038565b95989497509550505050565b6000806000806000806000806080898b0312156132c5578283fd5b883567ffffffffffffffff808211156132dc578485fd5b6132e88c838d01613038565b909a50985060208b0135915080821115613300578485fd5b61330c8c838d01613038565b909850965060408b0135915080821115613324578485fd5b6133308c838d01613038565b909650945060608b0135915080821115613348578384fd5b506133558b828c01613038565b999c989b5096995094979396929594505050565b6000806000806080858703121561337e578182fd5b843567ffffffffffffffff80821115613395578384fd5b6133a18883890161307a565b955060208701359150808211156133b6578384fd5b6133c2888389016130ed565b945060408701359150808211156133d7578384fd5b6133e38883890161307a565b935060608701359150808211156133f8578283fd5b50613405878288016130ed565b91505092959194509250565b600060208284031215613422578081fd5b8135612a7881613b96565b60006020828403121561343e578081fd5b8151612a7881613b96565b60006020828403121561345a578081fd5b5035919050565b60008060408385031215613473578182fd5b82359150602083013561323681613b81565b600060208284031215613496578081fd5b81357fffffffff0000000000000000000000000000000000000000000000000000000081168114612a78578182fd5b6000602082840312156134d6578081fd5b8151612a7881613b81565b6000806000604084860312156134f5578081fd5b833567ffffffffffffffff8082111561350c578283fd5b9085019060c0828803121561351f578283fd5b90935060208501359080821115613534578283fd5b818601915086601f830112613547578283fd5b813581811115613555578384fd5b876020828501011115613566578384fd5b6020830194508093505050509250925092565b60006020828403121561358a578081fd5b612a7882613147565b6000602082840312156135a4578081fd5b5051919050565b60008284526020808501945082825b858110156135e15761ffff6135ce83613147565b16875295820195908201906001016135ba565b509495945050505050565b60008284527f07ffffffffffffffffffffffffffffffffffffffffffffffffffffffffffffff83111561361d578081fd5b6020830280836020870137939093016020019283525090919050565b6000815180845260208085019450808401835b838110156135e15781518752958201959082019060010161364c565b815160009082906020808601845b8381101561369657815161ffff1685529382019390820190600101613676565b50929695505050505050565b815160009082906020808601845b83811015613696578151855293820193908201906001016136b0565b60007f416363657373436f6e74726f6c3a206163636f756e742000000000000000000082528351613704816017850160208801613acd565b7f206973206d697373696e6720726f6c65200000000000000000000000000000006017918401918201528351613741816028840160208801613acd565b01602801949350505050565b6000604082526137616040830186886135ab565b82810360208401526137748185876135ab565b979650505050505050565b600060a0825261379360a083018b8d6135ab565b82810360208401526137a6818a8c6135ec565b905082810360408401526137bb81888a6135ab565b905082810360608401526137d08186886135ec565b9150508260808301529a9950505050505050505050565b600060a082526137fa60a0830188613639565b828103602084015261380c8188613639565b905082810360408401526138208187613639565b905082810360608401526138348186613639565b9150508260808301529695505050505050565b6000602082528251806020840152613866816040850160208701613acd565b601f01601f19169190910160400192915050565b600060408252833561388b81613b81565b6001600160a01b031660408301526138a66020850185613a06565b60c060608501526138bc610100850182846135ab565b9150506138cc6040860186613a06565b7fffffffffffffffffffffffffffffffffffffffffffffffffffffffffffffffc0808685030160808701526139028483856135ec565b93506139116060890189613a06565b93509150808685030160a087015261392a8484846135ab565b93506139396080890189613a06565b93509150808685030160c0870152506139538383836135ec565b60a0979097013560e0860152505050506020015290565b6000808335601e19843603018112613980578283fd5b83018035915067ffffffffffffffff82111561399a578283fd5b6020908101925081023603821315612cc057600080fd5b604051601f8201601f1916810167ffffffffffffffff811182821017156139da576139da613b6b565b604052919050565b600067ffffffffffffffff8211156139fc576139fc613b6b565b5060209081020190565b6000808335601e19843603018112613a1c578283fd5b830160208101925035905067ffffffffffffffff811115613a3c57600080fd5b602081023603831315612cc057600080fd5b60006fffffffffffffffffffffffffffffffff808316818516808303821115613a7957613a79613b3f565b01949350505050565b60008219821115613a9557613a95613b3f565b500190565b600082613aa957613aa9613b55565b500490565b6000816000190483118215151615613ac857613ac8613b3f565b500290565b60005b83811015613ae8578181015183820152602001613ad0565b838111156122525750506000910152565b600081613b0857613b08613b3f565b506000190190565b6000600019821415613b2457613b24613b3f565b5060010190565b600082613b3a57613b3a613b55565b500690565b634e487b7160e01b600052601160045260246000fd5b634e487b7160e01b600052601260045260246000fd5b634e487b7160e01b600052604160045260246000fd5b6001600160a01b0381168114612f0057600080fd5b8015158114612f0057600080fdfea26469706673582212207fe55d8ee0bbbc081cb32a26da1360a4a2d0ff6b1554f96a7593ceffe1acc44c64736f6c63430008020033",
  "devdoc": {
    "details": "DEFAULT_ADMIN_ROLE is intended for contract setup / emergency, STARTERPACK_ROLE is provided for business purposes",
    "kind": "dev",
    "methods": {
      "calculateTotalPriceInSAND(uint16[],uint256[],uint16[],uint256[])": {
        "params": {
          "catalystIds": "An array of catalyst IDs to be purchased",
          "catalystQuantities": "An array of catalyst amounts to be purchased",
          "gemIds": "An array of gem IDs to be purchased",
          "gemQuantities": "An array of gem amounts to be purchased"
        },
        "returns": {
          "_0": "the total price to pay in SAND for the cats and gems in the bundle"
        }
      },
      "getNonceByBuyer(address,uint128)": {
        "params": {
          "_buyer": "The address of the starterPack purchaser",
          "_queueId": "The ID of the nonce queue for the given address. The default is queueID=0, and the max is queueID=2**128-1"
        },
        "returns": {
          "_0": "uint128 representing the requested nonce"
        }
      },
      "getPrices(uint16[],uint16[])": {
        "params": {
          "catalystIds": "The IDs of the catalysts you want to obtain price information for",
          "gemIds": "The IDs of the gems you want to obtain price information for"
        },
        "returns": {
          "_0": "catalystPricesBeforeSwitch Catalyst prices before price change",
          "_1": "catalystPricesAfterSwitch Catalyst prices after price change",
          "_2": "gemPricesBeforeSwitch Gem prices before price change",
          "_3": "gemPricesAfterSwitch Gem prices after price change",
          "_4": "switchTime The time the latest price change will take effect, being the time of the price change plus the price change delay"
        }
      },
      "getReceivingWallet()": {
        "returns": {
          "_0": "the address of the receiving wallet"
        }
      },
      "getRoleAdmin(bytes32)": {
        "details": "Returns the admin role that controls `role`. See {grantRole} and {revokeRole}. To change a role's admin, use {_setRoleAdmin}."
      },
      "getSigningWallet()": {
        "returns": {
          "_0": "_signingWallet the address of the signing wallet"
        }
      },
      "grantRole(bytes32,address)": {
        "details": "Grants `role` to `account`. If `account` had not been already granted `role`, emits a {RoleGranted} event. Requirements: - the caller must have ``role``'s admin role."
      },
      "hasRole(bytes32,address)": {
        "details": "Returns `true` if `account` has been granted `role`."
      },
      "isSANDEnabled()": {
        "returns": {
          "_0": "Whether SAND payments are enabled"
        }
      },
      "purchaseWithSAND((address,uint16[],uint256[],uint16[],uint256[],uint256),bytes)": {
        "params": {
          "message": "A message containing information about the Catalysts and Gems to be purchased together with the destination (buyer) and a nonce",
          "signature": "A signed message specifying tx details"
        }
      },
      "renounceRole(bytes32,address)": {
        "details": "Revokes `role` from the calling account. Roles are often managed via {grantRole} and {revokeRole}: this function's purpose is to provide a mechanism for accounts to lose their privileges if they are compromised (such as when a trusted device is misplaced). If the calling account had been revoked `role`, emits a {RoleRevoked} event. Requirements: - the caller must be `account`."
      },
      "revokeRole(bytes32,address)": {
        "details": "Revokes `role` from `account`. If `account` had been granted `role`, emits a {RoleRevoked} event. Requirements: - the caller must have ``role``'s admin role."
      },
      "setPrices(uint16[],uint256[],uint16[],uint256[])": {
        "params": {
          "catalystIds": "Array of catalyst IDs for which new prices will take effect after a delay period",
          "catalystPrices": "Array of new catalyst prices that will take effect after a delay period",
          "gemIds": "Array of gem IDs for which new prices will take effect after a delay period",
          "gemPrices": "Array of new gems prices that will take effect after a delay period"
        }
      },
      "setReceivingWallet(address)": {
        "params": {
          "newReceivingWallet": "Address of the new receiving wallet"
        }
      },
      "setSANDEnabled(bool)": {
        "details": "Enable / disable the specific SAND payment for StarterPacks",
        "params": {
          "enabled": "Whether to enable or disable"
        }
      },
      "setSigningWallet(address)": {
        "params": {
          "newSigningWallet": "The new address of the signing wallet"
        }
      },
      "supportsInterface(bytes4)": {
        "details": "See {IERC165-supportsInterface}."
      },
      "withdrawAll(address,uint16[],uint16[])": {
        "details": "The sum length of catalystIds + gemIds must be <= MAX_WITHDRAWAL",
        "params": {
          "catalystIds": "The IDs of the catalysts to be transferred",
          "gemIds": "The IDs of the gems to be transferred",
          "to": "The destination address for the purchased Catalysts and Gems"
        }
      }
    },
    "title": "StarterPack contract for the purchase of StarterPacks (bundles of Catalysts and Gems) with EIP712",
    "version": 1
  },
  "userdoc": {
    "kind": "user",
    "methods": {
      "calculateTotalPriceInSAND(uint16[],uint256[],uint16[],uint256[])": {
        "notice": "Verify the total expected price to pay in SAND"
      },
      "domainSeparator()": {
        "notice": "Function to get the domain separator"
      },
      "getChainId()": {
        "notice": "Function to get the chainId"
      },
      "getNonceByBuyer(address,uint128)": {
        "notice": "Function to get the nonce for a given address and queue ID"
      },
      "getPrices(uint16[],uint16[])": {
        "notice": "Get current StarterPack prices for catalysts and gems by id"
      },
      "getReceivingWallet()": {
        "notice": "Get the beneficiary wallet."
      },
      "getSigningWallet()": {
        "notice": "Get the wallet authorized for signing purchase-messages."
      },
      "isSANDEnabled()": {
        "notice": "Return whether SAND payments are enabled"
      },
      "purchaseWithSAND((address,uint16[],uint256[],uint16[],uint256[],uint256),bytes)": {
        "notice": "Purchase StarterPacks with SAND"
      },
      "setPrices(uint16[],uint256[],uint16[],uint256[])": {
        "notice": "Enables admin to change the prices (in SAND) of the catalysts and gems in the StarterPack bundle"
      },
      "setReceivingWallet(address)": {
        "notice": "Set the wallet receiving the proceeds"
      },
      "setSigningWallet(address)": {
        "notice": "Update the signing wallet address"
      },
      "withdrawAll(address,uint16[],uint16[])": {
        "notice": "Enables admin to withdraw any remaining tokens"
      }
    },
    "notice": "This contract enables purchases with SAND when the backend authorizes it via message signingThe following privileged roles are used in StarterPackV2: DEFAULT_ADMIN_ROLE, STARTERPACK_ROLE",
    "version": 1
  },
  "storageLayout": {
    "storage": [
      {
        "astId": 2418,
        "contract": "src/solc_0.8/StarterPack/StarterPackV2.sol:StarterPackV2",
        "label": "_roles",
        "offset": 0,
        "slot": "0",
        "type": "t_mapping(t_bytes32,t_struct(RoleData)2413_storage)"
      },
      {
        "astId": 17772,
        "contract": "src/solc_0.8/StarterPack/StarterPackV2.sol:StarterPackV2",
        "label": "_signingWallet",
        "offset": 0,
        "slot": "1",
        "type": "t_address"
      },
      {
        "astId": 17778,
        "contract": "src/solc_0.8/StarterPack/StarterPackV2.sol:StarterPackV2",
        "label": "queuedNonces",
        "offset": 0,
        "slot": "2",
        "type": "t_mapping(t_address,t_mapping(t_uint128,t_uint128))"
      },
      {
        "astId": 33852,
        "contract": "src/solc_0.8/StarterPack/StarterPackV2.sol:StarterPackV2",
        "label": "_trustedForwarder",
        "offset": 0,
        "slot": "3",
        "type": "t_address"
      },
      {
        "astId": 18077,
        "contract": "src/solc_0.8/StarterPack/StarterPackV2.sol:StarterPackV2",
        "label": "_priceChangeTimestamp",
        "offset": 0,
        "slot": "4",
        "type": "t_uint256"
      },
      {
        "astId": 18088,
        "contract": "src/solc_0.8/StarterPack/StarterPackV2.sol:StarterPackV2",
        "label": "_wallet",
        "offset": 0,
        "slot": "5",
        "type": "t_address_payable"
      },
      {
        "astId": 18090,
        "contract": "src/solc_0.8/StarterPack/StarterPackV2.sol:StarterPackV2",
        "label": "_sandEnabled",
        "offset": 20,
        "slot": "5",
        "type": "t_bool"
      },
      {
        "astId": 18094,
        "contract": "src/solc_0.8/StarterPack/StarterPackV2.sol:StarterPackV2",
        "label": "_catalystPrices",
        "offset": 0,
        "slot": "6",
        "type": "t_mapping(t_uint16,t_uint256)"
      },
      {
        "astId": 18098,
        "contract": "src/solc_0.8/StarterPack/StarterPackV2.sol:StarterPackV2",
        "label": "_catalystPreviousPrices",
        "offset": 0,
        "slot": "7",
        "type": "t_mapping(t_uint16,t_uint256)"
      },
      {
        "astId": 18102,
        "contract": "src/solc_0.8/StarterPack/StarterPackV2.sol:StarterPackV2",
        "label": "_gemPrices",
        "offset": 0,
        "slot": "8",
        "type": "t_mapping(t_uint16,t_uint256)"
      },
      {
        "astId": 18106,
        "contract": "src/solc_0.8/StarterPack/StarterPackV2.sol:StarterPackV2",
        "label": "_gemPreviousPrices",
        "offset": 0,
        "slot": "9",
        "type": "t_mapping(t_uint16,t_uint256)"
      }
    ],
    "types": {
      "t_address": {
        "encoding": "inplace",
        "label": "address",
        "numberOfBytes": "20"
      },
      "t_address_payable": {
        "encoding": "inplace",
        "label": "address payable",
        "numberOfBytes": "20"
      },
      "t_bool": {
        "encoding": "inplace",
        "label": "bool",
        "numberOfBytes": "1"
      },
      "t_bytes32": {
        "encoding": "inplace",
        "label": "bytes32",
        "numberOfBytes": "32"
      },
      "t_mapping(t_address,t_bool)": {
        "encoding": "mapping",
        "key": "t_address",
        "label": "mapping(address => bool)",
        "numberOfBytes": "32",
        "value": "t_bool"
      },
      "t_mapping(t_address,t_mapping(t_uint128,t_uint128))": {
        "encoding": "mapping",
        "key": "t_address",
        "label": "mapping(address => mapping(uint128 => uint128))",
        "numberOfBytes": "32",
        "value": "t_mapping(t_uint128,t_uint128)"
      },
      "t_mapping(t_bytes32,t_struct(RoleData)2413_storage)": {
        "encoding": "mapping",
        "key": "t_bytes32",
        "label": "mapping(bytes32 => struct AccessControl.RoleData)",
        "numberOfBytes": "32",
        "value": "t_struct(RoleData)2413_storage"
      },
      "t_mapping(t_uint128,t_uint128)": {
        "encoding": "mapping",
        "key": "t_uint128",
        "label": "mapping(uint128 => uint128)",
        "numberOfBytes": "32",
        "value": "t_uint128"
      },
      "t_mapping(t_uint16,t_uint256)": {
        "encoding": "mapping",
        "key": "t_uint16",
        "label": "mapping(uint16 => uint256)",
        "numberOfBytes": "32",
        "value": "t_uint256"
      },
      "t_struct(RoleData)2413_storage": {
        "encoding": "inplace",
        "label": "struct AccessControl.RoleData",
        "members": [
          {
            "astId": 2410,
            "contract": "src/solc_0.8/StarterPack/StarterPackV2.sol:StarterPackV2",
            "label": "members",
            "offset": 0,
            "slot": "0",
            "type": "t_mapping(t_address,t_bool)"
          },
          {
            "astId": 2412,
            "contract": "src/solc_0.8/StarterPack/StarterPackV2.sol:StarterPackV2",
            "label": "adminRole",
            "offset": 0,
            "slot": "1",
            "type": "t_bytes32"
          }
        ],
        "numberOfBytes": "64"
      },
      "t_uint128": {
        "encoding": "inplace",
        "label": "uint128",
        "numberOfBytes": "16"
      },
      "t_uint16": {
        "encoding": "inplace",
        "label": "uint16",
        "numberOfBytes": "2"
      },
      "t_uint256": {
        "encoding": "inplace",
        "label": "uint256",
        "numberOfBytes": "32"
      }
    }
  }
}