{
  "address": "0xfb805360cCeCDcBF41d6415111084758797511f5",
  "abi": [
    {
      "inputs": [
        {
          "internalType": "address",
          "name": "landAddress",
          "type": "address"
        },
        {
          "internalType": "address",
          "name": "sandContractAddress",
          "type": "address"
        },
        {
          "internalType": "address",
          "name": "initialMetaTx",
          "type": "address"
        },
        {
          "internalType": "address",
          "name": "admin",
          "type": "address"
        },
        {
          "internalType": "address payable",
          "name": "initialWalletAddress",
          "type": "address"
        },
        {
          "internalType": "bytes32",
          "name": "merkleRoot",
          "type": "bytes32"
        },
        {
          "internalType": "uint256",
          "name": "expiryTime",
          "type": "uint256"
        },
        {
          "internalType": "address",
          "name": "initialSigningWallet",
          "type": "address"
        },
        {
          "internalType": "uint256",
          "name": "initialMaxCommissionRate",
          "type": "uint256"
        },
        {
          "internalType": "address",
          "name": "estate",
          "type": "address"
        },
        {
          "internalType": "address",
          "name": "asset",
          "type": "address"
        },
        {
          "internalType": "address",
          "name": "feeDistributor",
          "type": "address"
        },
        {
          "internalType": "address",
          "name": "authValidator",
          "type": "address"
        }
      ],
      "stateMutability": "nonpayable",
      "type": "constructor"
    },
    {
      "anonymous": false,
      "inputs": [
        {
          "indexed": false,
          "internalType": "address",
          "name": "oldAdmin",
          "type": "address"
        },
        {
          "indexed": false,
          "internalType": "address",
          "name": "newAdmin",
          "type": "address"
        }
      ],
      "name": "AdminChanged",
      "type": "event"
    },
    {
      "anonymous": false,
      "inputs": [
        {
          "indexed": true,
          "internalType": "address",
          "name": "buyer",
          "type": "address"
        },
        {
          "indexed": true,
          "internalType": "address",
          "name": "to",
          "type": "address"
        },
        {
          "indexed": true,
          "internalType": "uint256",
          "name": "topCornerId",
          "type": "uint256"
        },
        {
          "indexed": false,
          "internalType": "uint256",
          "name": "size",
          "type": "uint256"
        },
        {
          "indexed": false,
          "internalType": "uint256",
          "name": "price",
          "type": "uint256"
        },
        {
          "indexed": false,
          "internalType": "address",
          "name": "token",
          "type": "address"
        },
        {
          "indexed": false,
          "internalType": "uint256",
          "name": "amountPaid",
          "type": "uint256"
        }
      ],
      "name": "LandQuadPurchased",
      "type": "event"
    },
    {
      "anonymous": false,
      "inputs": [
        {
          "indexed": true,
          "internalType": "uint256",
          "name": "newMaxCommissionRate",
          "type": "uint256"
        }
      ],
      "name": "MaxCommissionRateUpdated",
      "type": "event"
    },
    {
      "anonymous": false,
      "inputs": [
        {
          "indexed": false,
          "internalType": "address",
          "name": "metaTransactionProcessor",
          "type": "address"
        },
        {
          "indexed": false,
          "internalType": "bool",
          "name": "enabled",
          "type": "bool"
        }
      ],
      "name": "MetaTransactionProcessor",
      "type": "event"
    },
    {
      "anonymous": false,
      "inputs": [
        {
          "indexed": true,
          "internalType": "address",
          "name": "newWallet",
          "type": "address"
        }
      ],
      "name": "NewReceivingWallet",
      "type": "event"
    },
    {
      "anonymous": false,
      "inputs": [
        {
          "indexed": true,
          "internalType": "address",
          "name": "referrer",
          "type": "address"
        },
        {
          "indexed": true,
          "internalType": "address",
          "name": "referee",
          "type": "address"
        },
        {
          "indexed": true,
          "internalType": "address",
          "name": "token",
          "type": "address"
        },
        {
          "indexed": false,
          "internalType": "uint256",
          "name": "amount",
          "type": "uint256"
        },
        {
          "indexed": false,
          "internalType": "uint256",
          "name": "commission",
          "type": "uint256"
        },
        {
          "indexed": false,
          "internalType": "uint256",
          "name": "commissionRate",
          "type": "uint256"
        }
      ],
      "name": "ReferralUsed",
      "type": "event"
    },
    {
      "anonymous": false,
      "inputs": [
        {
          "indexed": true,
          "internalType": "address",
          "name": "newSigningWallet",
          "type": "address"
        }
      ],
      "name": "SigningWalletUpdated",
      "type": "event"
    },
    {
      "inputs": [
        {
          "internalType": "address",
          "name": "buyer",
          "type": "address"
        },
        {
          "internalType": "address",
          "name": "to",
          "type": "address"
        },
        {
          "internalType": "address",
          "name": "reserved",
          "type": "address"
        },
        {
          "internalType": "uint256[]",
          "name": "info",
          "type": "uint256[]"
        },
        {
          "internalType": "bytes32",
          "name": "salt",
          "type": "bytes32"
        },
        {
          "internalType": "uint256[]",
          "name": "assetIds",
          "type": "uint256[]"
        },
        {
          "internalType": "bytes32[]",
          "name": "proof",
          "type": "bytes32[]"
        },
        {
          "internalType": "bytes",
          "name": "referral",
          "type": "bytes"
        },
        {
          "internalType": "bytes",
          "name": "signature",
          "type": "bytes"
        }
      ],
      "name": "buyLandWithSand",
      "outputs": [],
      "stateMutability": "nonpayable",
      "type": "function"
    },
    {
      "inputs": [
        {
          "internalType": "address",
          "name": "newAdmin",
          "type": "address"
        }
      ],
      "name": "changeAdmin",
      "outputs": [],
      "stateMutability": "nonpayable",
      "type": "function"
    },
    {
      "inputs": [
        {
          "internalType": "bytes",
          "name": "referral",
          "type": "bytes"
        }
      ],
      "name": "decodeReferral",
      "outputs": [
        {
          "internalType": "bytes",
          "name": "",
          "type": "bytes"
        },
        {
          "internalType": "address",
          "name": "",
          "type": "address"
        },
        {
          "internalType": "address",
          "name": "",
          "type": "address"
        },
        {
          "internalType": "uint256",
          "name": "",
          "type": "uint256"
        },
        {
          "internalType": "uint256",
          "name": "",
          "type": "uint256"
        }
      ],
      "stateMutability": "pure",
      "type": "function"
    },
    {
      "inputs": [
        {
          "internalType": "address",
          "name": "disableWallet",
          "type": "address"
        }
      ],
      "name": "disablePreviousSigningWallet",
      "outputs": [],
      "stateMutability": "nonpayable",
      "type": "function"
    },
    {
      "inputs": [],
      "name": "getAdmin",
      "outputs": [
        {
          "internalType": "address",
          "name": "",
          "type": "address"
        }
      ],
      "stateMutability": "view",
      "type": "function"
    },
    {
      "inputs": [],
      "name": "getExpiryTime",
      "outputs": [
        {
          "internalType": "uint256",
          "name": "",
          "type": "uint256"
        }
      ],
      "stateMutability": "view",
      "type": "function"
    },
    {
      "inputs": [],
      "name": "getMaxCommissionRate",
      "outputs": [
        {
          "internalType": "uint256",
          "name": "",
          "type": "uint256"
        }
      ],
      "stateMutability": "view",
      "type": "function"
    },
    {
      "inputs": [],
      "name": "getMerkleRoot",
      "outputs": [
        {
          "internalType": "bytes32",
          "name": "",
          "type": "bytes32"
        }
      ],
      "stateMutability": "view",
      "type": "function"
    },
    {
      "inputs": [],
      "name": "getSigningWallet",
      "outputs": [
        {
          "internalType": "address",
          "name": "",
          "type": "address"
        }
      ],
      "stateMutability": "view",
      "type": "function"
    },
    {
      "inputs": [
        {
          "internalType": "address",
          "name": "who",
          "type": "address"
        }
      ],
      "name": "isMetaTransactionProcessor",
      "outputs": [
        {
          "internalType": "bool",
          "name": "",
          "type": "bool"
        }
      ],
      "stateMutability": "view",
      "type": "function"
    },
    {
      "inputs": [
        {
          "internalType": "bytes",
          "name": "signature",
          "type": "bytes"
        },
        {
          "internalType": "address",
          "name": "referrer",
          "type": "address"
        },
        {
          "internalType": "address",
          "name": "referee",
          "type": "address"
        },
        {
          "internalType": "uint256",
          "name": "expiryTime",
          "type": "uint256"
        },
        {
          "internalType": "uint256",
          "name": "commissionRate",
          "type": "uint256"
        }
      ],
      "name": "isReferralValid",
      "outputs": [
        {
          "internalType": "bool",
          "name": "",
          "type": "bool"
        }
      ],
      "stateMutability": "view",
      "type": "function"
    },
    {
      "inputs": [
        {
          "internalType": "address",
          "name": "",
          "type": "address"
        },
        {
          "internalType": "address",
          "name": "",
          "type": "address"
        },
        {
          "internalType": "uint256[]",
          "name": "",
          "type": "uint256[]"
        },
        {
          "internalType": "uint256[]",
          "name": "",
          "type": "uint256[]"
        },
        {
          "internalType": "bytes",
          "name": "",
          "type": "bytes"
        }
      ],
      "name": "onERC1155BatchReceived",
      "outputs": [
        {
          "internalType": "bytes4",
          "name": "",
          "type": "bytes4"
        }
      ],
      "stateMutability": "pure",
      "type": "function"
    },
    {
      "inputs": [
        {
          "internalType": "address",
          "name": "",
          "type": "address"
        },
        {
          "internalType": "address",
          "name": "",
          "type": "address"
        },
        {
          "internalType": "uint256",
          "name": "",
          "type": "uint256"
        },
        {
          "internalType": "uint256",
          "name": "",
          "type": "uint256"
        },
        {
          "internalType": "bytes",
          "name": "",
          "type": "bytes"
        }
      ],
      "name": "onERC1155Received",
      "outputs": [
        {
          "internalType": "bytes4",
          "name": "",
          "type": "bytes4"
        }
      ],
      "stateMutability": "pure",
      "type": "function"
    },
    {
      "inputs": [
        {
          "internalType": "address",
          "name": "metaTransactionProcessor",
          "type": "address"
        },
        {
          "internalType": "bool",
          "name": "enabled",
          "type": "bool"
        }
      ],
      "name": "setMetaTransactionProcessor",
      "outputs": [],
      "stateMutability": "nonpayable",
      "type": "function"
    },
    {
      "inputs": [
        {
          "internalType": "address payable",
          "name": "newWallet",
          "type": "address"
        }
      ],
      "name": "setReceivingWallet",
      "outputs": [],
      "stateMutability": "nonpayable",
      "type": "function"
    },
    {
      "inputs": [
        {
          "internalType": "uint256",
          "name": "newMaxCommissionRate",
          "type": "uint256"
        }
      ],
      "name": "updateMaxCommissionRate",
      "outputs": [],
      "stateMutability": "nonpayable",
      "type": "function"
    },
    {
      "inputs": [
        {
          "internalType": "address",
          "name": "newSigningWallet",
          "type": "address"
        }
      ],
      "name": "updateSigningWallet",
      "outputs": [],
      "stateMutability": "nonpayable",
      "type": "function"
    },
    {
      "inputs": [
        {
          "internalType": "address",
          "name": "to",
          "type": "address"
        },
        {
          "internalType": "uint256[]",
          "name": "assetIds",
          "type": "uint256[]"
        },
        {
          "internalType": "uint256[]",
          "name": "values",
          "type": "uint256[]"
        }
      ],
      "name": "withdrawAssets",
      "outputs": [],
      "stateMutability": "nonpayable",
      "type": "function"
    }
  ],
  "transactionHash": "0xdb29f8005cf0b83beaaa62aeddad70c22ea77f88c8f76af5efee62a5c5469bd2",
  "args": [
    "0x525129b95bA89B9800e47ef3dc7d23fBAd27b1a3",
    "0x592daadC9eA7F56A81De1FD27A723Bd407709c46",
    "0x592daadC9eA7F56A81De1FD27A723Bd407709c46",
    "0x49c4D4C94829B9c44052C5f5Cb164Fc612181165",
    "0xa5Eb9C9Eb4F4c35B9Be8cFaAA7909F9ebe6Cb609",
    "0x05c440a2f96d4346b669c39ad42f35bdc4fb406513164d04e63b6eb1b787c170",
    1985259600,
    "0xB7060D3FeCAC3AE1F0A0AA416E3e8E472257950e",
    2000,
    "0x0000000000000000000000000000000000000000",
    "0xB766Af2EfCB61bd5a261E007D8866f005E305D5d",
    "0xAc3ff31f526Af7f386ea43649e3fa67e329AeF93",
    "0x1d3CE3489a064aEFc9928fe08F9d2Dd968F5c969"
  ],
  "numDeployments": 1,
  "linkedData": [
    {
      "x": 175,
      "y": 135,
      "size": 1,
      "price": "1011000000000000000000",
      "reserved": "",
      "salt": "0x23d11254e350e38fe0ec7ac4ed5064494b9b608d45e272ed28f5e211cdc45ccf",
      "assetIds": []
    },
    {
      "x": 175,
      "y": 136,
      "size": 1,
      "price": "1011000000000000000000",
      "reserved": "",
      "salt": "0xbf8adbc737a6e1ed09e50e3a5295030ce9b12c4e2cccd365e47acd3742672402",
      "assetIds": []
    },
    {
      "x": 175,
      "y": 137,
      "size": 1,
      "price": "1011000000000000000000",
      "reserved": "",
      "salt": "0xc032dc1cd3794305c131a48bcd4825d1f09cf4a4fff8940066a55827f8d2ac31",
      "assetIds": []
    },
    {
      "x": 175,
      "y": 138,
      "size": 1,
      "price": "1011000000000000000000",
      "reserved": "",
      "salt": "0xa37ac1a29ea9a5605dfc12a600392b3e1fe14e961f0c7a8ab4492ac681317113",
      "assetIds": []
    },
    {
      "x": 175,
      "y": 139,
      "size": 1,
      "price": "1011000000000000000000",
      "reserved": "",
      "salt": "0x2aa2d5ad97a6afa6ae1301623e5ba223ce166cf2c000c77f50aa41d73b60f584",
      "assetIds": []
    },
    {
      "x": 175,
      "y": 140,
      "size": 1,
      "price": "1011000000000000000000",
      "reserved": "",
      "salt": "0x84d113ddcddae611597ab51892f75fd6b9eca06d8e22af392fd297ea94cacb32",
      "assetIds": []
    },
    {
      "x": 175,
      "y": 141,
      "size": 1,
      "price": "1011000000000000000000",
      "reserved": "",
      "salt": "0xb73d7598a2630916affd143d9dd1df708328f9d71626528355f5a5c50525ce7c",
      "assetIds": []
    },
    {
      "x": 175,
      "y": 142,
      "size": 1,
      "price": "1011000000000000000000",
      "reserved": "",
      "salt": "0xfe50e6d2691078feca60407b630f8722a478bc716befb162a58664242c8cc8cb",
      "assetIds": []
    },
    {
      "x": 175,
      "y": 143,
      "size": 1,
      "price": "1011000000000000000000",
      "reserved": "",
      "salt": "0xe23ec6f402d2a2a13380137a79ea229848a7e498871998c13f0d54d0fb0663b6",
      "assetIds": []
    },
    {
      "x": 175,
      "y": 144,
      "size": 1,
      "price": "1011000000000000000000",
      "reserved": "",
      "salt": "0xa236b0fba1cd2b04a0487959a880f9ca13b0d7ccf93a15aae5e081e121c67508",
      "assetIds": []
    },
    {
      "x": 175,
      "y": 145,
      "size": 1,
      "price": "1011000000000000000000",
      "reserved": "",
      "salt": "0x9ddbedc92b8709a792b0f75c703aa3f1e754036638ad0cf3b45be46c10191a35",
      "assetIds": []
    },
    {
      "x": 175,
      "y": 146,
      "size": 1,
      "price": "1011000000000000000000",
      "reserved": "",
      "salt": "0x1e774da923723e32daab479d1c769db782e42d4d2bb5368758723800e7a69d71",
      "assetIds": []
    },
    {
      "x": 175,
      "y": 147,
      "size": 1,
      "price": "1011000000000000000000",
      "reserved": "",
      "salt": "0x7db7b43eec9e5c00d1523271f46c44dab24ead4efd5f0593510691bea1d539a2",
      "assetIds": []
    },
    {
      "x": 175,
      "y": 148,
      "size": 1,
      "price": "1011000000000000000000",
      "reserved": "",
      "salt": "0x7b45eed0163c2fca9bbbaa3e14327ccd35df3983027ab6e6cd207acf8d545c49",
      "assetIds": []
    },
    {
      "x": 175,
      "y": 149,
      "size": 1,
      "price": "1011000000000000000000",
      "reserved": "",
      "salt": "0xb062f49c9e9b2c797d00786e70651c8c2d8d52cb404e7a3db8ba2025ec20fb4a",
      "assetIds": []
    },
    {
      "x": 175,
      "y": 150,
      "size": 1,
      "price": "1011000000000000000000",
      "reserved": "",
      "salt": "0x5e4554e6dfd50897396c24b1e87a1de1b95729a4490aa2292ffe42f98835fdcd",
      "assetIds": []
    },
    {
      "x": 175,
      "y": 151,
      "size": 1,
      "price": "1011000000000000000000",
      "reserved": "",
      "salt": "0x5955de50e4cacf03e5c6f0e411b4ebf4bc03411816c1cec6d28193eb245712f2",
      "assetIds": []
    },
    {
      "x": 175,
      "y": 152,
      "size": 1,
      "price": "1011000000000000000000",
      "reserved": "",
      "salt": "0x7b95802bac3bdfd4ff073d5c40bf2f3977c1ededd3b9ea25a4d3708be7d790fb",
      "assetIds": []
    },
    {
      "x": 175,
      "y": 153,
      "size": 1,
      "price": "1011000000000000000000",
      "reserved": "",
      "salt": "0x75677a8ba4ecf31f228cf5536b6234cf30f0b2d5844dd5010d78eb6f87847b36",
      "assetIds": []
    },
    {
      "x": 175,
      "y": 154,
      "size": 1,
      "price": "1011000000000000000000",
      "reserved": "",
      "salt": "0xa430893e8ffd7a02cbaa03626e34345fb08c8009af956a32847779cbb931ef76",
      "assetIds": []
    },
    {
      "x": 175,
      "y": 155,
      "size": 1,
      "price": "1011000000000000000000",
      "reserved": "",
      "salt": "0x8c39df63da67bf79b74269f89f40d79be6dc15846c7fcd4d03428a71547be656",
      "assetIds": []
    },
    {
      "x": 175,
      "y": 156,
      "size": 1,
      "price": "1011000000000000000000",
      "reserved": "",
      "salt": "0x1c82a7ae1768d171a44f3a3badece1a211336fb2d9bffc0eb623633943fbdae2",
      "assetIds": []
    },
    {
      "x": 175,
      "y": 157,
      "size": 1,
      "price": "1011000000000000000000",
      "reserved": "",
      "salt": "0x9794a59682a933a46fa1e42a648483505761051ac3407142d1e0e150955ecfa6",
      "assetIds": []
    },
    {
      "x": 175,
      "y": 158,
      "size": 1,
      "price": "1011000000000000000000",
      "reserved": "",
      "salt": "0x3b68ceb9305fc3fc5bdc4ae2862757111688fd0cbbf9b39bf9c4945328e6db1f",
      "assetIds": []
    },
    {
      "x": 175,
      "y": 159,
      "size": 1,
      "price": "1011000000000000000000",
      "reserved": "",
      "salt": "0x6715e86a6f1deaebae058aaeca0a09a7327bea1573217ce9c39f41aace118c27",
      "assetIds": []
    },
    {
      "x": 175,
      "y": 160,
      "size": 1,
      "price": "1011000000000000000000",
      "reserved": "",
      "salt": "0x7fbded94a496f2993205e765fbd49aa16d8a60172c3f0e18e075b1c9f97d31d6",
      "assetIds": []
    },
    {
      "x": 175,
      "y": 161,
      "size": 1,
      "price": "1011000000000000000000",
      "reserved": "",
      "salt": "0xbc2b6511b6f210f643a3f701ddf04d4d5549c837dd4ef87d6a144710c3041743",
      "assetIds": []
    },
    {
      "x": 176,
      "y": 135,
      "size": 1,
      "price": "1011000000000000000000",
      "reserved": "",
      "salt": "0xc1bbe246c0d7cadbec46e47c48442ebefc512a883269d73d32044e8ee2ee0307",
      "assetIds": []
    },
    {
      "x": 176,
      "y": 136,
      "size": 1,
      "price": "1011000000000000000000",
      "reserved": "",
      "salt": "0x587e8fc9d327ccc366f3bb03ad9c76459c0b46bed251953ae576099a2f5549c0",
      "assetIds": []
    },
    {
      "x": 176,
      "y": 137,
      "size": 1,
      "price": "1011000000000000000000",
      "reserved": "",
      "salt": "0xedd3bbeb11b2e4d03fdd79e1b89f009bed393ccd96b06db26c1eeaae8366c51f",
      "assetIds": []
    },
    {
      "x": 176,
      "y": 138,
      "size": 1,
      "price": "1011000000000000000000",
      "reserved": "",
      "salt": "0xa3a4e4b1418c0fc8f3ab51a1aa543ee654d120dc1cc032344ca3fd7ddd1effbf",
      "assetIds": []
    },
    {
      "x": 176,
      "y": 139,
      "size": 1,
      "price": "1011000000000000000000",
      "reserved": "",
      "salt": "0xbd02f1d6a180085d21f254a687d096fe631c7038b1a56c54d5fe5fa35b6fbb58",
      "assetIds": []
    },
    {
      "x": 176,
      "y": 140,
      "size": 1,
      "price": "1011000000000000000000",
      "reserved": "",
      "salt": "0xdb3224fddea8a83cff93ca53a00ddc96121c4d27b33a25397a2e62c91962ac6f",
      "assetIds": []
    },
    {
      "x": 176,
      "y": 141,
      "size": 1,
      "price": "1011000000000000000000",
      "reserved": "",
      "salt": "0xfb6c7ffb5b46d303383f7268998a7a9145477e60027bb6eeb3fd4deb88b79271",
      "assetIds": []
    },
    {
      "x": 176,
      "y": 142,
      "size": 1,
      "price": "1011000000000000000000",
      "reserved": "",
      "salt": "0x055bd97af85f322c98054a534500d7f3d5d34d8abf1016298b4f62d31e0d1046",
      "assetIds": []
    },
    {
      "x": 176,
      "y": 143,
      "size": 1,
      "price": "1011000000000000000000",
      "reserved": "",
      "salt": "0xf14bcd3f217a2e6aa3e6c4ccdb978554f9fd3ccbfa7c0ac02d5646823e1a40ae",
      "assetIds": []
    },
    {
      "x": 176,
      "y": 144,
      "size": 1,
      "price": "1011000000000000000000",
      "reserved": "",
      "salt": "0x6deeb2142bb5d221b062dda2b541c8bcc415d2df204b04c7f1ebb92d71ed600c",
      "assetIds": []
    },
    {
      "x": 176,
      "y": 145,
      "size": 1,
      "price": "1011000000000000000000",
      "reserved": "",
      "salt": "0x11e889330cd14d6ff90605f910a1255a8e454a18ff391e43ac63ae39ea740a1d",
      "assetIds": []
    },
    {
      "x": 176,
      "y": 146,
      "size": 1,
      "price": "1011000000000000000000",
      "reserved": "",
      "salt": "0xfeaeb3d4e08a5edf8b96b16aa5f0cde97ec29aeaad001f4c76b8d99b48bffbd0",
      "assetIds": []
    },
    {
      "x": 176,
      "y": 147,
      "size": 1,
      "price": "1011000000000000000000",
      "reserved": "0x7a9fe22691c811ea339d9b73150e6911a5343dca",
      "salt": "0xe9b11990c602e916706513a4c69f41a2c896db4ade4038c82e3ecceabc2d1a62",
      "assetIds": []
    },
    {
      "x": 176,
      "y": 148,
      "size": 1,
      "price": "1011000000000000000000",
      "reserved": "",
      "salt": "0xfec52b7827c0bcc6a716bfa0432713f4fa7766ee470cd5e4d7afc65fc15712e1",
      "assetIds": []
    },
    {
      "x": 176,
      "y": 149,
      "size": 1,
      "price": "1011000000000000000000",
      "reserved": "",
      "salt": "0x7726c85be92187dd3b2f0c55ee08f92481c94b36df172fc17f5d120c890c9f65",
      "assetIds": []
    },
    {
      "x": 176,
      "y": 150,
      "size": 1,
      "price": "1011000000000000000000",
      "reserved": "",
      "salt": "0xbdba76724c95fdd2e02377e1e105212e8ca6ebf26de4e5a791fa36635fa6492b",
      "assetIds": []
    },
    {
      "x": 176,
      "y": 151,
      "size": 1,
      "price": "1011000000000000000000",
      "reserved": "",
      "salt": "0x220eed72070dbe1bdfbc96a09a43e55d9ad71b2feca8957148984b33da716c95",
      "assetIds": []
    },
    {
      "x": 176,
      "y": 152,
      "size": 1,
      "price": "1011000000000000000000",
      "reserved": "",
      "salt": "0xf72ee4fde50020ce519b6a6e0bc8f0002af2d3cf85cc09e3fc9cde97728b2754",
      "assetIds": []
    },
    {
      "x": 176,
      "y": 153,
      "size": 1,
      "price": "1011000000000000000000",
      "reserved": "",
      "salt": "0x78e02d59fd40d6294f6ff2dbfd3f94a66e9f2b5b5fa6edaaf05487d56f19fb0a",
      "assetIds": []
    },
    {
      "x": 176,
      "y": 154,
      "size": 1,
      "price": "1011000000000000000000",
      "reserved": "",
      "salt": "0xb9eed3d2dcec40ecc30a8f165a9950bdb33de74a5b4a2364c808de0c46fe2d9d",
      "assetIds": []
    },
    {
      "x": 176,
      "y": 155,
      "size": 1,
      "price": "1011000000000000000000",
      "reserved": "",
      "salt": "0xa84831d6365e7036ebcd0981b088c97280c782d23a0d54ff7c794fce0b02a2db",
      "assetIds": []
    },
    {
      "x": 176,
      "y": 156,
      "size": 1,
      "price": "1011000000000000000000",
      "reserved": "",
      "salt": "0xe5a082ecc9d68b832137e090351b1ac188e521f633b86801a4e417389582b4aa",
      "assetIds": []
    },
    {
      "x": 176,
      "y": 157,
      "size": 1,
      "price": "1011000000000000000000",
      "reserved": "",
      "salt": "0xfe7a15eff7ca91048909e888d86e4874557dc416e99573ba7e4c913af2c51bda",
      "assetIds": []
    },
    {
      "x": 176,
      "y": 158,
      "size": 1,
      "price": "1011000000000000000000",
      "reserved": "",
      "salt": "0xb82eeda2493af8c59528abeb10da33a9835fb1fd28131cddf65c62067725fbc7",
      "assetIds": []
    },
    {
      "x": 176,
      "y": 159,
      "size": 1,
      "price": "1011000000000000000000",
      "reserved": "",
      "salt": "0x55fa97a6a103a3d1f000c4d1ecdb81a93cab48db7656b9220dfe369c9a17168e",
      "assetIds": []
    },
    {
      "x": 176,
      "y": 160,
      "size": 1,
      "price": "1011000000000000000000",
      "reserved": "",
      "salt": "0xfb64a94543bdfc05efb6a2862c328226ae5b68541f614dc2ef3b72ed3b49f80e",
      "assetIds": []
    },
    {
      "x": 176,
      "y": 161,
      "size": 1,
      "price": "1011000000000000000000",
      "reserved": "",
      "salt": "0x932bdb49b782702b677b45a4123a16af132216e3072c9853c7ed396e3ea6385a",
      "assetIds": []
    },
    {
      "x": 177,
      "y": 135,
      "size": 1,
      "price": "1011000000000000000000",
      "reserved": "",
      "salt": "0x77916a28e60733684249145f8d84559901fca877493bec4f1d0fe12b3b987e9f",
      "assetIds": []
    },
    {
      "x": 177,
      "y": 136,
      "size": 1,
      "price": "1011000000000000000000",
      "reserved": "",
      "salt": "0x17e8ff898a8de9c8641744aa7d539b7901303f5eeda46b5d5c157495e472a839",
      "assetIds": []
    },
    {
      "x": 177,
      "y": 137,
      "size": 1,
      "price": "1011000000000000000000",
      "reserved": "",
      "salt": "0x1fee92b24f6574d3b64599185d9fa1829930926c92922d49090f123b6d8410f7",
      "assetIds": []
    },
    {
      "x": 177,
      "y": 138,
      "size": 1,
      "price": "1011000000000000000000",
      "reserved": "",
      "salt": "0x72c98782460e71942547201894d14da5c1fc0aec81ca7f1698ee957af0b3228a",
      "assetIds": []
    },
    {
      "x": 177,
      "y": 139,
      "size": 1,
      "price": "1011000000000000000000",
      "reserved": "",
      "salt": "0x9a18c9f01ea657350d9de4cc7a16c9e9b0fe1d0c76da35885c30afc0bfcc9fc9",
      "assetIds": []
    },
    {
      "x": 177,
      "y": 140,
      "size": 1,
      "price": "1011000000000000000000",
      "reserved": "",
      "salt": "0xce245d75c68c7a0e2c01677650e8c4196fe7ec8a58d925ddb006ce7f7490793a",
      "assetIds": []
    },
    {
      "x": 177,
      "y": 144,
      "size": 1,
      "price": "1011000000000000000000",
      "reserved": "",
      "salt": "0x682508426f5fe15f452137e4d43da025a1001dcabe385bca15ad07fe99faa6ee",
      "assetIds": []
    },
    {
      "x": 177,
      "y": 145,
      "size": 1,
      "price": "1011000000000000000000",
      "reserved": "",
      "salt": "0x5a2584e3f5d6db562badcd54c2f35cc878884e43b340543c671a0584336d1e40",
      "assetIds": []
    },
    {
      "x": 177,
      "y": 146,
      "size": 1,
      "price": "1011000000000000000000",
      "reserved": "",
      "salt": "0x66bdaf9ca021b95450d04ec2edf9c2def09d2fd4f65929d9c257825e02676460",
      "assetIds": []
    },
    {
      "x": 177,
      "y": 147,
      "size": 1,
      "price": "1011000000000000000000",
      "reserved": "",
      "salt": "0x291a42021350e1d89044156d55677d13149705a7333ccefd370e68c811619b5f",
      "assetIds": []
    },
    {
      "x": 177,
      "y": 148,
      "size": 1,
      "price": "1011000000000000000000",
      "reserved": "",
      "salt": "0xb340672c67f64dab045519abc6b4a3e847d51cb07a68a64bfbe381ff9a7434c4",
      "assetIds": []
    },
    {
      "x": 177,
      "y": 149,
      "size": 1,
      "price": "1011000000000000000000",
      "reserved": "",
      "salt": "0xf03dabee47a13ff099637a4497c7fcf0302eebfd792744e782aded05a6c57267",
      "assetIds": []
    },
    {
      "x": 177,
      "y": 150,
      "size": 1,
      "price": "1011000000000000000000",
      "reserved": "",
      "salt": "0x639c10173c15aadc8a9fd6ffb51a6562fc30e2455c3d299d4ea0797748839668",
      "assetIds": []
    },
    {
      "x": 177,
      "y": 151,
      "size": 1,
      "price": "1011000000000000000000",
      "reserved": "",
      "salt": "0xd415b935ffe1d2029fa80bb68740fa8db87f0e8ec2a055d653995dac8326f3db",
      "assetIds": []
    },
    {
      "x": 177,
      "y": 152,
      "size": 1,
      "price": "1011000000000000000000",
      "reserved": "",
      "salt": "0x0fcee75ad6b130aa0356ab653f2757263138a285841169f3b04e9ad004b93560",
      "assetIds": []
    },
    {
      "x": 177,
      "y": 153,
      "size": 1,
      "price": "1011000000000000000000",
      "reserved": "",
      "salt": "0x782c77649390a230940646e40924ab2d874e741f990b50c48df785552f60c82c",
      "assetIds": []
    },
    {
      "x": 177,
      "y": 154,
      "size": 1,
      "price": "1011000000000000000000",
      "reserved": "",
      "salt": "0xcf3151ace9b14da1db35c897df2654ffbbc29751a669fca58fc8ec6265d65941",
      "assetIds": []
    },
    {
      "x": 177,
      "y": 155,
      "size": 1,
      "price": "1011000000000000000000",
      "reserved": "",
      "salt": "0x4ea289cc63003fe08c164515d378c240b965920f848a8397e9c82a51dae0998e",
      "assetIds": []
    },
    {
      "x": 177,
      "y": 159,
      "size": 1,
      "price": "1011000000000000000000",
      "reserved": "",
      "salt": "0x1fb5b655e965f3ffcdd446a14bac78bbcd6a4a97ddb7da569fdd0bcc0a92467b",
      "assetIds": []
    },
    {
      "x": 177,
      "y": 160,
      "size": 1,
      "price": "1011000000000000000000",
      "reserved": "",
      "salt": "0x7deda8fab261c9562caec5846373674a5bb77a7127814161eee1bab69927ca0e",
      "assetIds": []
    },
    {
      "x": 177,
      "y": 161,
      "size": 1,
      "price": "1011000000000000000000",
      "reserved": "",
      "salt": "0xb42b237319777c5eaa689b07c108970f4f79b41347a184a4ff750975c00784e0",
      "assetIds": []
    },
    {
      "x": 178,
      "y": 135,
      "size": 1,
      "price": "1011000000000000000000",
      "reserved": "",
      "salt": "0xb29a33f039ac96228faed3344af862c5f27e1d83c7b5d58a607cfb246b4f8383",
      "assetIds": []
    },
    {
      "x": 178,
      "y": 136,
      "size": 1,
      "price": "1011000000000000000000",
      "reserved": "",
      "salt": "0x38c35729fa1c42988b712cb40e5550262e6f339de2d9b9b369f0dbccafa82c50",
      "assetIds": []
    },
    {
      "x": 178,
      "y": 137,
      "size": 1,
      "price": "1011000000000000000000",
      "reserved": "",
      "salt": "0x4aaf3077b472707e221ae24a9ba81f9ea41f9e30b95511923d092dec93f54a1f",
      "assetIds": []
    },
    {
      "x": 178,
      "y": 138,
      "size": 1,
      "price": "1011000000000000000000",
      "reserved": "",
      "salt": "0x37c45bada911300b1b3b820967b8e54a3fd42b83764f9b1285b618b9308a719f",
      "assetIds": []
    },
    {
      "x": 178,
      "y": 139,
      "size": 1,
      "price": "1011000000000000000000",
      "reserved": "",
      "salt": "0xaf3dbc566b64d18b71ee6fd856e87111566f52098e8ccee8ab45f49737876216",
      "assetIds": []
    },
    {
      "x": 178,
      "y": 140,
      "size": 1,
      "price": "1011000000000000000000",
      "reserved": "",
      "salt": "0x4775dba2c16b0ffbba41ca427fae7571cb59f58b0f5f9ef4a944f187f8a87ab9",
      "assetIds": []
    },
    {
      "x": 178,
      "y": 144,
      "size": 1,
      "price": "1011000000000000000000",
      "reserved": "",
      "salt": "0xbaec657f96d96d97707507385a983d039a86fbf84fc6799eaada7db91d6db4d6",
      "assetIds": []
    },
    {
      "x": 178,
      "y": 145,
      "size": 1,
      "price": "1011000000000000000000",
      "reserved": "",
      "salt": "0x1cc6152800685461f8350979683a27080c2b9321d5340060f8115e2183953143",
      "assetIds": []
    },
    {
      "x": 178,
      "y": 146,
      "size": 1,
      "price": "1011000000000000000000",
      "reserved": "",
      "salt": "0xc8a33a70b4da9aa19cc1845b917f692d216b6015112b14156eb99106577ec3ed",
      "assetIds": []
    },
    {
      "x": 178,
      "y": 147,
      "size": 1,
      "price": "1011000000000000000000",
      "reserved": "",
      "salt": "0x9e6a2d2f0af90ae2cac0cb0f4d13dfe214bea7d449abe95996b87214710fcc8a",
      "assetIds": []
    },
    {
      "x": 178,
      "y": 148,
      "size": 1,
      "price": "1011000000000000000000",
      "reserved": "",
      "salt": "0x5b4b2a8680799eaf6c7ce5046507edaccb7fa5b205af2c71d3dce99c1f49a989",
      "assetIds": []
    },
    {
      "x": 178,
      "y": 149,
      "size": 1,
      "price": "1011000000000000000000",
      "reserved": "",
      "salt": "0xa63f1ca6b2ec8ed53a913bc1fee9c11cf0e9bea9ce492ba5d8c2b1202eb52630",
      "assetIds": []
    },
    {
      "x": 178,
      "y": 150,
      "size": 1,
      "price": "1011000000000000000000",
      "reserved": "",
      "salt": "0x8f5413bc5ba7e6d12cebfa8b2ad3c59802917b684eee91327e0e566a83bbf560",
      "assetIds": []
    },
    {
      "x": 178,
      "y": 151,
      "size": 1,
      "price": "1011000000000000000000",
      "reserved": "",
      "salt": "0x00b83e66dcaaa87a8aec7add29efc70debdbc7a4370e28345e47df13185da455",
      "assetIds": []
    },
    {
      "x": 178,
      "y": 152,
      "size": 1,
      "price": "1011000000000000000000",
      "reserved": "",
      "salt": "0x6521a3c2f81c1f41f9af0c3666fed9d742abe411e1254c60bf036efb57d862f4",
      "assetIds": []
    },
    {
      "x": 178,
      "y": 153,
      "size": 1,
      "price": "1011000000000000000000",
      "reserved": "",
      "salt": "0xf73a76449e679c5a2544c3f8157d543e1cee3c891bfbf3665a01c3fc280832dc",
      "assetIds": []
    },
    {
      "x": 178,
      "y": 154,
      "size": 1,
      "price": "1011000000000000000000",
      "reserved": "",
      "salt": "0xae38f0077516bc2b68ddadb50d2995ceb6d8756d44e8730aace9aa031788fc40",
      "assetIds": []
    },
    {
      "x": 178,
      "y": 155,
      "size": 1,
      "price": "1011000000000000000000",
      "reserved": "",
      "salt": "0xe9a26a87487695e76645acf73737754233f42c03ca86f7b57a2e724c07eda50f",
      "assetIds": []
    },
    {
      "x": 178,
      "y": 159,
      "size": 1,
      "price": "1011000000000000000000",
      "reserved": "",
      "salt": "0x583e55a15a2ee45691c14d7bae3118787605cac1b7e36249a3888e38f78f3496",
      "assetIds": []
    },
    {
      "x": 178,
      "y": 160,
      "size": 1,
      "price": "1011000000000000000000",
      "reserved": "",
      "salt": "0x2de580b4808ea251c00e58d092d39cd745049a1dded64e3b84936ff94e004452",
      "assetIds": []
    },
    {
      "x": 178,
      "y": 161,
      "size": 1,
      "price": "1011000000000000000000",
      "reserved": "",
      "salt": "0x0fbd2c8e0d5f7852ff3744408a8531335ee7c3f8f91b6148aa86de59f5dd3bc0",
      "assetIds": []
    },
    {
      "x": 179,
      "y": 135,
      "size": 1,
      "price": "1011000000000000000000",
      "reserved": "",
      "salt": "0x703e7c6727c7a22d6957d310380b6590461105c7e55762f65f5a10f216893cba",
      "assetIds": []
    },
    {
      "x": 179,
      "y": 136,
      "size": 1,
      "price": "1011000000000000000000",
      "reserved": "",
      "salt": "0xc2a8eb971ac3329d1ca941b9921fb57bd8c469d624512842bc5862f475430db4",
      "assetIds": []
    },
    {
      "x": 179,
      "y": 137,
      "size": 1,
      "price": "1011000000000000000000",
      "reserved": "",
      "salt": "0xe6727525046447b0e357f8da65d84168fed833a610dea40a014957c5a6eaf9d8",
      "assetIds": []
    },
    {
      "x": 179,
      "y": 138,
      "size": 1,
      "price": "1011000000000000000000",
      "reserved": "",
      "salt": "0x45c7b650e4fc2e9bdc5ef0eeb0e3303f6575a71f752c32768332188ac642f54e",
      "assetIds": []
    },
    {
      "x": 179,
      "y": 139,
      "size": 1,
      "price": "1011000000000000000000",
      "reserved": "",
      "salt": "0x5a25981f77118e7abc489b493fae950287752a552ffe41b5c2ad5045a3ca2876",
      "assetIds": []
    },
    {
      "x": 179,
      "y": 140,
      "size": 1,
      "price": "1011000000000000000000",
      "reserved": "",
      "salt": "0x3b3fe4b71b74a0d56ce9d60403da747429b1138a7e41b2409a86b640cae968dd",
      "assetIds": []
    },
    {
      "x": 179,
      "y": 144,
      "size": 1,
      "price": "4683000000000000000000",
      "reserved": "",
      "salt": "0x330bbee59707933337c575d4918a6a0bb7ac51ae8dca96932568686f09c0271e",
      "assetIds": []
    },
    {
      "x": 179,
      "y": 145,
      "size": 1,
      "price": "4683000000000000000000",
      "reserved": "",
      "salt": "0xe846d9603d9f158205e34c6c2af2926c3eaea48ba2cb93caf4c68ebf83118a56",
      "assetIds": []
    },
    {
      "x": 179,
      "y": 146,
      "size": 1,
      "price": "1011000000000000000000",
      "reserved": "0x7a9fe22691c811ea339d9b73150e6911a5343dca",
      "salt": "0x35ca8cf3c88917596b9ddf125557bebd9885d76a9464d14fbcc6e7f4b68485ec",
      "assetIds": []
    },
    {
      "x": 179,
      "y": 147,
      "size": 1,
      "price": "4683000000000000000000",
      "reserved": "",
      "salt": "0x5cb958eceda1d6983312ba1c4b72f75d78e7ab74a06cb9c725afd62a58e10c99",
      "assetIds": []
    },
    {
      "x": 179,
      "y": 148,
      "size": 1,
      "price": "4683000000000000000000",
      "reserved": "",
      "salt": "0xd9327b3707c0acff5797f9d7c5e7c0599eae523c6819d0365426deb450929153",
      "assetIds": []
    },
    {
      "x": 179,
      "y": 149,
      "size": 1,
      "price": "1011000000000000000000",
      "reserved": "0x7a9fe22691c811ea339d9b73150e6911a5343dca",
      "salt": "0x5d98406826126cfb6476bc5f29349aa8cec53e0d8238b8fc0cd2a5070697a239",
      "assetIds": []
    },
    {
      "x": 179,
      "y": 150,
      "size": 1,
      "price": "1011000000000000000000",
      "reserved": "",
      "salt": "0xc561e6ea3e7164ec92d38f9db961eb99d3c6c064d1cd4638aa3674a3e54e5ca2",
      "assetIds": []
    },
    {
      "x": 179,
      "y": 151,
      "size": 1,
      "price": "1011000000000000000000",
      "reserved": "",
      "salt": "0x420330bd736a6759618b77e33a9762d969885d479ad08ac2f8ec9b0795bf5a1c",
      "assetIds": []
    },
    {
      "x": 179,
      "y": 152,
      "size": 1,
      "price": "1011000000000000000000",
      "reserved": "",
      "salt": "0x6b0b2c13769a54ec19f9eb024d02c8e26d124154de38e57991490fa3a4d24403",
      "assetIds": []
    },
    {
      "x": 179,
      "y": 153,
      "size": 1,
      "price": "1011000000000000000000",
      "reserved": "",
      "salt": "0xd9c73665a69c1cbbddd9de53ddca0644ec6af84903f0e00cbd01ab56895934fc",
      "assetIds": []
    },
    {
      "x": 179,
      "y": 154,
      "size": 1,
      "price": "1011000000000000000000",
      "reserved": "",
      "salt": "0x702ad4ebcd22a71512bb4bb1bf880f8c623cc287685b13c50ffd07dbc8c209d3",
      "assetIds": []
    },
    {
      "x": 179,
      "y": 155,
      "size": 1,
      "price": "1011000000000000000000",
      "reserved": "",
      "salt": "0x79d8358af303da10b6d4d7a654cb7e3395b01aa8501b6ecc142801bbf968ca5b",
      "assetIds": []
    },
    {
      "x": 179,
      "y": 159,
      "size": 1,
      "price": "1011000000000000000000",
      "reserved": "",
      "salt": "0x3b1558084be5a0e8bd90bb3c5dba6d92b0cf9c824ce3742848cd42ca32bf1049",
      "assetIds": []
    },
    {
      "x": 179,
      "y": 160,
      "size": 1,
      "price": "1011000000000000000000",
      "reserved": "",
      "salt": "0x2d047a4a1a01e0425290719fd5e123e2c2fcbad6e7430bbf9810c480e46a914f",
      "assetIds": []
    },
    {
      "x": 179,
      "y": 161,
      "size": 1,
      "price": "1011000000000000000000",
      "reserved": "",
      "salt": "0x4552fa8bd7e751845200a24ade66b6cc8b70413e59e5beb4ad64d19f83233072",
      "assetIds": []
    },
    {
      "x": 180,
      "y": 138,
      "size": 1,
      "price": "1011000000000000000000",
      "reserved": "",
      "salt": "0x03afc508b860b865e61e36396e978dee95b5f0a7d1efce53e2c5abc0e1d3d4f4",
      "assetIds": []
    },
    {
      "x": 180,
      "y": 139,
      "size": 1,
      "price": "1011000000000000000000",
      "reserved": "",
      "salt": "0x151032e6b2258e169c0515fe35e96269c07b3610f7115531a1aa6fb8c212ba69",
      "assetIds": []
    },
    {
      "x": 180,
      "y": 140,
      "size": 1,
      "price": "1011000000000000000000",
      "reserved": "",
      "salt": "0x18066759ebaa115ccb87857a00a7c7e9024bcc5cba1d464e3994095011d5bd27",
      "assetIds": []
    },
    {
      "x": 180,
      "y": 141,
      "size": 1,
      "price": "1011000000000000000000",
      "reserved": "",
      "salt": "0xa339c47d57c6c77f1dcc3f67a976b8ab52df4c3bd3fbff8b1fa4626c4af373f4",
      "assetIds": []
    },
    {
      "x": 180,
      "y": 142,
      "size": 1,
      "price": "1011000000000000000000",
      "reserved": "",
      "salt": "0xfd4517162639468234c4866d82413f37e3b7eaef981a9796c1d9120b89b880e9",
      "assetIds": []
    },
    {
      "x": 180,
      "y": 143,
      "size": 1,
      "price": "4683000000000000000000",
      "reserved": "",
      "salt": "0xa371416d6efdea49a00656c92294bd91fff05f90182d75a9715a39435165bddf",
      "assetIds": []
    },
    {
      "x": 180,
      "y": 150,
      "size": 1,
      "price": "4683000000000000000000",
      "reserved": "",
      "salt": "0x4824abae0ceca651803d61fa2e4c23fd223fd0e9b2aa4613befc5a5a1f0d2e79",
      "assetIds": []
    },
    {
      "x": 180,
      "y": 151,
      "size": 1,
      "price": "1011000000000000000000",
      "reserved": "",
      "salt": "0xdd652155e588a6a03a72a62ebd7adc1160f32bbdc0d44038a31305c3704dac9c",
      "assetIds": []
    },
    {
      "x": 180,
      "y": 152,
      "size": 1,
      "price": "1011000000000000000000",
      "reserved": "",
      "salt": "0x0c6e00277b6704cd1bc355531338528299bc2955529a0722c706015fc827955e",
      "assetIds": []
    },
    {
      "x": 180,
      "y": 153,
      "size": 1,
      "price": "1011000000000000000000",
      "reserved": "0x7a9fe22691c811ea339d9b73150e6911a5343dca",
      "salt": "0x1e679555e1c8ea575681e01e7f8df51d47e09b0281e330f52ba1ce371b7113b7",
      "assetIds": []
    },
    {
      "x": 180,
      "y": 154,
      "size": 1,
      "price": "1011000000000000000000",
      "reserved": "",
      "salt": "0x46caa877e2a1bd20c178bf9ab0a60c759323f70f2590a3614b8a1d2d20ca2fcb",
      "assetIds": []
    },
    {
      "x": 180,
      "y": 155,
      "size": 1,
      "price": "1011000000000000000000",
      "reserved": "",
      "salt": "0xe0a2f8169c449ca06b6117fce479d3e90e180b09f46d76cc263a1d6e5ce89d37",
      "assetIds": []
    },
    {
      "x": 181,
      "y": 138,
      "size": 1,
      "price": "1011000000000000000000",
      "reserved": "",
      "salt": "0x0bffe5fbe90e03a66b3a00d3ff267cdf8a1af885d4cc62196d24b4b6151d1cd7",
      "assetIds": []
    },
    {
      "x": 181,
      "y": 139,
      "size": 1,
      "price": "1011000000000000000000",
      "reserved": "0x7a9fe22691c811ea339d9b73150e6911a5343dca",
      "salt": "0x1f00ee2a34e01967b6563e7f624cc6d03d4e0955b0ce93a241a6ad9d8d5d7069",
      "assetIds": []
    },
    {
      "x": 181,
      "y": 140,
      "size": 1,
      "price": "1011000000000000000000",
      "reserved": "",
      "salt": "0xc251a7a625c210989a3bb2ad387b60cc1c33ffa10665149a7eb7cf58fd1a2ddd",
      "assetIds": []
    },
    {
      "x": 181,
      "y": 141,
      "size": 1,
      "price": "1011000000000000000000",
      "reserved": "",
      "salt": "0x6c87d538a4420f2dcdb332f810f0edf3e46de2d190cc53eec2d08797c8f84966",
      "assetIds": []
    },
    {
      "x": 181,
      "y": 142,
      "size": 1,
      "price": "1011000000000000000000",
      "reserved": "",
      "salt": "0x45b805e6e8756c4e7cad319a728eff0414c1b43b3df6e0c7c018e9b5e2c42b94",
      "assetIds": []
    },
    {
      "x": 181,
      "y": 143,
      "size": 1,
      "price": "4683000000000000000000",
      "reserved": "",
      "salt": "0x30b7df840265f7cd1bd7b1ff337ea86c489fa8fff343327930b8017cedd9c87a",
      "assetIds": []
    },
    {
      "x": 181,
      "y": 150,
      "size": 1,
      "price": "4683000000000000000000",
      "reserved": "",
      "salt": "0xde963a7692b468f423bca666b08215dee4ffbfde1f7bd5d68b3d26180faedbdd",
      "assetIds": []
    },
    {
      "x": 181,
      "y": 151,
      "size": 1,
      "price": "1011000000000000000000",
      "reserved": "",
      "salt": "0xb6f75b1ae5ceeab9d84ccb7a9210c7523f737efd8aa7075f325fbd65f938ccd1",
      "assetIds": []
    },
    {
      "x": 181,
      "y": 152,
      "size": 1,
      "price": "1011000000000000000000",
      "reserved": "",
      "salt": "0x2c056060c0a63e05e1ebb29df7f79b8f315ad7e449d0bce38e2c3a8d8d46f930",
      "assetIds": []
    },
    {
      "x": 181,
      "y": 153,
      "size": 1,
      "price": "1011000000000000000000",
      "reserved": "",
      "salt": "0xfc322e0419942118d1ebaf563fc492e9ecb196d05accf6b2690601cc0fa442e6",
      "assetIds": []
    },
    {
      "x": 181,
      "y": 154,
      "size": 1,
      "price": "1011000000000000000000",
      "reserved": "",
      "salt": "0x37f7f1342e8c3a57338cbe1e5631791c8b1aab4d3007eacaa0afdc63d6a3ebd8",
      "assetIds": []
    },
    {
      "x": 181,
      "y": 155,
      "size": 1,
      "price": "1011000000000000000000",
      "reserved": "",
      "salt": "0x7bac435c25eeb26c1ad028901f99e358523c6b8a6474711e0297fec0cdf53c84",
      "assetIds": []
    },
    {
      "x": 181,
      "y": 162,
      "size": 1,
      "price": "1011000000000000000000",
      "reserved": "",
      "salt": "0xd379df96e60bf6c0d5331769046bd6e0e995a711aceafe223c36d1b22d80ec86",
      "assetIds": []
    },
    {
      "x": 181,
      "y": 163,
      "size": 1,
      "price": "1011000000000000000000",
      "reserved": "",
      "salt": "0xc6b12ab5d338f295eebc206e94468d042dfc4bbed66a13c21fe6e3c8caaf45e7",
      "assetIds": []
    },
    {
      "x": 182,
      "y": 138,
      "size": 1,
      "price": "1011000000000000000000",
      "reserved": "",
      "salt": "0xaa86e9848bd491b99ef693b61e52a43b91e1cad06b4fad0d43fbfb6e9b1e9d6d",
      "assetIds": []
    },
    {
      "x": 182,
      "y": 139,
      "size": 1,
      "price": "1011000000000000000000",
      "reserved": "",
      "salt": "0x215ef4fdd1ae3521a0e38c7002a504e688b0ad9afdc74fdfe1ac5ba23a6c9702",
      "assetIds": []
    },
    {
      "x": 182,
      "y": 140,
      "size": 1,
      "price": "1011000000000000000000",
      "reserved": "",
      "salt": "0x4140c5a7089cf3e01aea9d642f9c787e101bf3e362963cde9b368221f4371044",
      "assetIds": []
    },
    {
      "x": 182,
      "y": 141,
      "size": 1,
      "price": "1011000000000000000000",
      "reserved": "",
      "salt": "0x253544fe4763f3e43ab229b4aed9ad638f3d9cd3529ee74cd4d4422c3073927d",
      "assetIds": []
    },
    {
      "x": 182,
      "y": 142,
      "size": 1,
      "price": "1011000000000000000000",
      "reserved": "",
      "salt": "0x0bab767dd0886eda1c5e83f8829e8cd8721b762721088cbf0c1e25de8616d8c1",
      "assetIds": []
    },
    {
      "x": 182,
      "y": 143,
      "size": 1,
      "price": "4683000000000000000000",
      "reserved": "",
      "salt": "0xc262862bcf5a56c7e27408d362f982088ec1e256f05b60fed7eeaf8e95ddeff0",
      "assetIds": []
    },
    {
      "x": 182,
      "y": 150,
      "size": 1,
      "price": "4683000000000000000000",
      "reserved": "",
      "salt": "0x26e17a0ab923cde7c9347059acb4b7e940ab56ac557d390dad177f863fb5d051",
      "assetIds": []
    },
    {
      "x": 182,
      "y": 151,
      "size": 1,
      "price": "1011000000000000000000",
      "reserved": "",
      "salt": "0x49d4a3ad4ff0439d4f18ebcf6ad607c7439a3df68bb262e44e524966c5943bac",
      "assetIds": []
    },
    {
      "x": 182,
      "y": 152,
      "size": 1,
      "price": "1011000000000000000000",
      "reserved": "",
      "salt": "0x0a30fc6ed58c96585fd6bbdf571bc22e680beb049ade1d2211397e8260cc01cc",
      "assetIds": []
    },
    {
      "x": 182,
      "y": 153,
      "size": 1,
      "price": "1011000000000000000000",
      "reserved": "",
      "salt": "0x006cd201b51acf8213fa0666a1df15fd9a10526116116b66d0e699b0227fe8d6",
      "assetIds": []
    },
    {
      "x": 182,
      "y": 154,
      "size": 1,
      "price": "1011000000000000000000",
      "reserved": "",
      "salt": "0x56e96422ac9a2d01a55b2f3599f03fcf3e5fbf86b19dbc2a67d5b9caec246414",
      "assetIds": []
    },
    {
      "x": 182,
      "y": 155,
      "size": 1,
      "price": "1011000000000000000000",
      "reserved": "",
      "salt": "0x096677edbc5773a25f6c034b7636892ebe0e8005668bad03cada7d5bec0a1e5b",
      "assetIds": []
    },
    {
      "x": 182,
      "y": 162,
      "size": 1,
      "price": "1011000000000000000000",
      "reserved": "0x7a9fe22691c811ea339d9b73150e6911a5343dca",
      "salt": "0xfdd165a674279e3bef1891d15bf18c63671bc9a5e9649243cd24af1cf718fc2f",
      "assetIds": []
    },
    {
      "x": 182,
      "y": 163,
      "size": 1,
      "price": "1011000000000000000000",
      "reserved": "",
      "salt": "0x8ea9ee16746d19b2933c237e7914f4ff457be30cce3fc355a593bbf3e1dd3c9b",
      "assetIds": []
    },
    {
      "x": 183,
      "y": 138,
      "size": 1,
      "price": "1011000000000000000000",
      "reserved": "",
      "salt": "0x7566c6ce84b1466eff858c2980250640c179111e95387f902f186d3d71d629fd",
      "assetIds": []
    },
    {
      "x": 183,
      "y": 139,
      "size": 1,
      "price": "1011000000000000000000",
      "reserved": "",
      "salt": "0x0f3d57d615177737e853c74a8f43ac36b32573490742185b4f58a7437fc401c1",
      "assetIds": []
    },
    {
      "x": 183,
      "y": 140,
      "size": 1,
      "price": "1011000000000000000000",
      "reserved": "",
      "salt": "0xc642dd002b92357c65461643effdd1dc3dc8a09dc83becd662bde2db7c5a9c1c",
      "assetIds": []
    },
    {
      "x": 183,
      "y": 150,
      "size": 1,
      "price": "4683000000000000000000",
      "reserved": "",
      "salt": "0x641fee272825b94c226e21a2718fd7f204a300d62a5bb43a60f840f2e01682a9",
      "assetIds": []
    },
    {
      "x": 183,
      "y": 151,
      "size": 1,
      "price": "1011000000000000000000",
      "reserved": "",
      "salt": "0x1d6ec00ecfa57654ad50b3c3a519762f5ddf9e54141338c19947776f2dd468b2",
      "assetIds": []
    },
    {
      "x": 183,
      "y": 152,
      "size": 1,
      "price": "1011000000000000000000",
      "reserved": "",
      "salt": "0x72d798f08445cb2a348449a5aea4d045ad4fb27233c3c2603ebb38cff3e099ae",
      "assetIds": []
    },
    {
      "x": 183,
      "y": 156,
      "size": 1,
      "price": "1011000000000000000000",
      "reserved": "",
      "salt": "0xbb126d5d815b5d33f83b7bb91756f23622fac065ce7488058c0c333c95d7177c",
      "assetIds": []
    },
    {
      "x": 183,
      "y": 157,
      "size": 1,
      "price": "1011000000000000000000",
      "reserved": "",
      "salt": "0xd1182cb0304f646d59b8867cd3c278f60c0f33e227dcc18345b2ed80301a9d86",
      "assetIds": []
    },
    {
      "x": 183,
      "y": 158,
      "size": 1,
      "price": "1011000000000000000000",
      "reserved": "",
      "salt": "0xd6698981a4f64548291f2b5f48a2c9c3c82ca34e76174c51500034e53ce38649",
      "assetIds": []
    },
    {
      "x": 183,
      "y": 159,
      "size": 1,
      "price": "1011000000000000000000",
      "reserved": "",
      "salt": "0x47ec578ede1a267c0d8edce5e7f32bcd04b74ad29e173888d1396c5e19e7d58b",
      "assetIds": []
    },
    {
      "x": 183,
      "y": 160,
      "size": 1,
      "price": "1011000000000000000000",
      "reserved": "",
      "salt": "0x692440e4f668148953d990462dc959280403da818e07146403d05a3d7981b800",
      "assetIds": []
    },
    {
      "x": 183,
      "y": 161,
      "size": 1,
      "price": "1011000000000000000000",
      "reserved": "",
      "salt": "0xa2497519dc524ce96edd5d4417b339920c2f7ab02635f5d5069eff8718b4789d",
      "assetIds": []
    },
    {
      "x": 183,
      "y": 162,
      "size": 1,
      "price": "1011000000000000000000",
      "reserved": "0x7a9fe22691c811ea339d9b73150e6911a5343dca",
      "salt": "0x58ec6bac0cde3be3cdd0a83c2c8dcb536ea8caa9b262bdc2c3d0aa7caf451e85",
      "assetIds": []
    },
    {
      "x": 183,
      "y": 163,
      "size": 1,
      "price": "1011000000000000000000",
      "reserved": "",
      "salt": "0x3cfaef7b12895935c3aeaa82b92165cd6c298f2a33f3f849c9c44c6f7399dc37",
      "assetIds": []
    },
    {
      "x": 184,
      "y": 138,
      "size": 1,
      "price": "1011000000000000000000",
      "reserved": "",
      "salt": "0x05e63656b579044207951c7fff4931358347ab8662820b6b289d82bf286554c0",
      "assetIds": []
    },
    {
      "x": 184,
      "y": 139,
      "size": 1,
      "price": "1011000000000000000000",
      "reserved": "",
      "salt": "0x804fc485d9321734015f89b9de9b61735cb13be9782f9217b7e1c8459e8371b4",
      "assetIds": []
    },
    {
      "x": 184,
      "y": 140,
      "size": 1,
      "price": "1011000000000000000000",
      "reserved": "",
      "salt": "0x0c283235dcc74cff5e46bd54fd10eb283586a8e51975fc7a40424ba6d03ed58d",
      "assetIds": []
    },
    {
      "x": 184,
      "y": 150,
      "size": 1,
      "price": "4683000000000000000000",
      "reserved": "",
      "salt": "0xa6d2824df48c480a43a9f698814e010bf797d6b2497482023d0ae0e9fb98dce4",
      "assetIds": []
    },
    {
      "x": 184,
      "y": 151,
      "size": 1,
      "price": "1011000000000000000000",
      "reserved": "",
      "salt": "0x7a9ed44554b299d78bc0463e63db4c81fc708fa4cb8310fcb0d2cff96b7b5573",
      "assetIds": []
    },
    {
      "x": 184,
      "y": 152,
      "size": 1,
      "price": "1011000000000000000000",
      "reserved": "",
      "salt": "0x5f07bbbc7c0bb38d319e2af7f5a4e5c3e95ed2c59b258917b00a61d0f9ec710f",
      "assetIds": []
    },
    {
      "x": 184,
      "y": 156,
      "size": 1,
      "price": "1011000000000000000000",
      "reserved": "",
      "salt": "0x4282d15ddd823c172ab7ee4c1c54cf4ac54de1264b3705709ec4a51647d8dca7",
      "assetIds": []
    },
    {
      "x": 184,
      "y": 157,
      "size": 1,
      "price": "1011000000000000000000",
      "reserved": "",
      "salt": "0xe3f235e31673e0720ddc3e920c9f3ed01ddf581035327b86b0ccbfcd6ff60a0f",
      "assetIds": []
    },
    {
      "x": 184,
      "y": 158,
      "size": 1,
      "price": "1011000000000000000000",
      "reserved": "",
      "salt": "0xff2c815c3c0c51c61eb4e81b456e7c91bbcb9bf54e2714afd4603821499d2520",
      "assetIds": []
    },
    {
      "x": 184,
      "y": 159,
      "size": 1,
      "price": "1011000000000000000000",
      "reserved": "",
      "salt": "0x063816f27d2476e963d69b2cbf38b3fe3e9e106f04f9aa1528f1503d86cf7709",
      "assetIds": []
    },
    {
      "x": 184,
      "y": 160,
      "size": 1,
      "price": "1011000000000000000000",
      "reserved": "",
      "salt": "0x7914e2c4ef55288c0ffbc353cda295626caf40567d1ef55f7d72cddd9629ca58",
      "assetIds": []
    },
    {
      "x": 184,
      "y": 161,
      "size": 1,
      "price": "1011000000000000000000",
      "reserved": "",
      "salt": "0xf4fc6617c822748ad15170766b07bd8273202e3b1a249d10e8682e5f1dfaa623",
      "assetIds": []
    },
    {
      "x": 184,
      "y": 162,
      "size": 1,
      "price": "1011000000000000000000",
      "reserved": "",
      "salt": "0xdb495382cf11be054f06b71202bd5bd18ec23241e83c60c85ff81c954bca5d41",
      "assetIds": []
    },
    {
      "x": 184,
      "y": 163,
      "size": 1,
      "price": "1011000000000000000000",
      "reserved": "",
      "salt": "0xabc97ff6ee7d1fbf4531a4e9ceaa7f72d340ebe351ba75760d3da6ea8e06cd9f",
      "assetIds": []
    },
    {
      "x": 185,
      "y": 138,
      "size": 1,
      "price": "1011000000000000000000",
      "reserved": "",
      "salt": "0xefa2c0008d1d5383231fc47cdaa15b4ba2760f8c04cbadcf5a078f93c0a4b82f",
      "assetIds": []
    },
    {
      "x": 185,
      "y": 139,
      "size": 1,
      "price": "1011000000000000000000",
      "reserved": "",
      "salt": "0xa742c1693878c5673ff6260026575012504297a2cedb109ae7ec0ff708461c11",
      "assetIds": []
    },
    {
      "x": 185,
      "y": 140,
      "size": 1,
      "price": "1011000000000000000000",
      "reserved": "",
      "salt": "0x3aab7edc9a7281fd321c97ffd9d5b6f3e8221838420ec8ff4e2e6910e03dc869",
      "assetIds": []
    },
    {
      "x": 185,
      "y": 150,
      "size": 1,
      "price": "1011000000000000000000",
      "reserved": "0x7a9fe22691c811ea339d9b73150e6911a5343dca",
      "salt": "0x6a7ca81521ab6d37142662e2af43b48b4883ca0172aca3bd55ccf9f5df77207e",
      "assetIds": []
    },
    {
      "x": 185,
      "y": 151,
      "size": 1,
      "price": "1011000000000000000000",
      "reserved": "",
      "salt": "0x201d700269369aeb148692fe88199ad7e0fe7aa31cfb41bcfdd7f3906896f454",
      "assetIds": []
    },
    {
      "x": 185,
      "y": 152,
      "size": 1,
      "price": "1011000000000000000000",
      "reserved": "",
      "salt": "0x185abca22fb98d214b54dcc895a387c2e45bd384f9c207adc8d506fbd81d2c8e",
      "assetIds": []
    },
    {
      "x": 185,
      "y": 156,
      "size": 1,
      "price": "4683000000000000000000",
      "reserved": "",
      "salt": "0xf96ddc52ea3c2f4691b21a04dad2293e4e2eea441c7bb1eaa892574b17dbfaf3",
      "assetIds": []
    },
    {
      "x": 185,
      "y": 157,
      "size": 1,
      "price": "4683000000000000000000",
      "reserved": "",
      "salt": "0x091c4e55fc867b64329363669e2e087bb5c1ab48b86de17edfebc28f53dd018a",
      "assetIds": []
    },
    {
      "x": 185,
      "y": 158,
      "size": 1,
      "price": "1011000000000000000000",
      "reserved": "",
      "salt": "0xc58eb69f535658b8fae1695e6dcbd295ae70eca1ac5b04d55ff645b7919d44e5",
      "assetIds": []
    },
    {
      "x": 185,
      "y": 159,
      "size": 1,
      "price": "4683000000000000000000",
      "reserved": "",
      "salt": "0x26d986f3fdab7da5c86102a04fd3649a1917a6a56b52ffe80929dd821291152d",
      "assetIds": []
    },
    {
      "x": 185,
      "y": 160,
      "size": 1,
      "price": "1011000000000000000000",
      "reserved": "0x7a9fe22691c811ea339d9b73150e6911a5343dca",
      "salt": "0x7af4e7c419235af1e07c4ab1ac30cb0cd98de89911c699a6aaf4452f7ad3a07d",
      "assetIds": []
    },
    {
      "x": 185,
      "y": 161,
      "size": 1,
      "price": "1011000000000000000000",
      "reserved": "0x7a9fe22691c811ea339d9b73150e6911a5343dca",
      "salt": "0xb0350f85d7b00f15c25118774c6176fe445ab8cf0b73ca12e1ecc70e5c11e4af",
      "assetIds": []
    },
    {
      "x": 185,
      "y": 162,
      "size": 1,
      "price": "1011000000000000000000",
      "reserved": "",
      "salt": "0xcc6df561b068cf923018341d8e2c93b705b31a630eaa955714b033a3c3d1e942",
      "assetIds": []
    },
    {
      "x": 185,
      "y": 163,
      "size": 1,
      "price": "1011000000000000000000",
      "reserved": "",
      "salt": "0x10bf5974cecd893bd3d7455017214cace1f2f1bc6d219d83ab836aa70485fc22",
      "assetIds": []
    },
    {
      "x": 186,
      "y": 138,
      "size": 1,
      "price": "1011000000000000000000",
      "reserved": "",
      "salt": "0xc3b9b13b78d7d43fe9edf1263db311bcdda4b2552e57d1032a0ccaaf38e1060d",
      "assetIds": []
    },
    {
      "x": 186,
      "y": 139,
      "size": 1,
      "price": "1011000000000000000000",
      "reserved": "",
      "salt": "0xf98a616219bd0c06e1d7f1e6ec552062562dcf6ab35bfe54210cb48a7233cf44",
      "assetIds": []
    },
    {
      "x": 186,
      "y": 140,
      "size": 1,
      "price": "1011000000000000000000",
      "reserved": "",
      "salt": "0x3bb63f1405cb27830dbdfef6d62bc1237cb9e655923cc99df3c05c08500311c2",
      "assetIds": []
    },
    {
      "x": 186,
      "y": 141,
      "size": 1,
      "price": "1011000000000000000000",
      "reserved": "",
      "salt": "0xb7f9897fb8b49c0529bf21b099050146acb4ba5c8a23c94ca6bde280fc83684f",
      "assetIds": []
    },
    {
      "x": 186,
      "y": 142,
      "size": 1,
      "price": "1011000000000000000000",
      "reserved": "",
      "salt": "0xfac5aadf12cf74ac43374341d5e44d3826676fb7366cb04574bd375ce060e6e0",
      "assetIds": []
    },
    {
      "x": 186,
      "y": 143,
      "size": 1,
      "price": "1011000000000000000000",
      "reserved": "",
      "salt": "0x42434d600d9a89d438186322a60108839f6ecb9a7c5cad671aea237f01e3db1e",
      "assetIds": []
    },
    {
      "x": 186,
      "y": 147,
      "size": 1,
      "price": "1011000000000000000000",
      "reserved": "",
      "salt": "0x762e55728f1d0ee23f0b761ac95dd0630b4c8b272170fe621bfb8112e0143034",
      "assetIds": []
    },
    {
      "x": 186,
      "y": 148,
      "size": 1,
      "price": "4683000000000000000000",
      "reserved": "",
      "salt": "0xe9e4a0da5c1fd804909f90c435fb4cca5cf5e9518cbcee0e60c481f17174924a",
      "assetIds": []
    },
    {
      "x": 186,
      "y": 149,
      "size": 1,
      "price": "4683000000000000000000",
      "reserved": "",
      "salt": "0xcbe7fdcc58573437725a2e92df1f2bf2bbea33889fdf51da6a49463fb22e1b7b",
      "assetIds": []
    },
    {
      "x": 186,
      "y": 162,
      "size": 1,
      "price": "4683000000000000000000",
      "reserved": "",
      "salt": "0x8590ac4c44d57113ce05ed13ee860c5dc6171bbaf344623bc3912993f4cc1ac9",
      "assetIds": []
    },
    {
      "x": 186,
      "y": 163,
      "size": 1,
      "price": "1011000000000000000000",
      "reserved": "",
      "salt": "0x4851b844dd06bd1caec9a5fffdcdc6292eb2f604984672fa43e0a3362238876b",
      "assetIds": []
    },
    {
      "x": 187,
      "y": 138,
      "size": 1,
      "price": "1011000000000000000000",
      "reserved": "",
      "salt": "0x6312cf76909f8a01ad3062f35acd309fda4f98714e1f907e2f2a52f5d5fdb320",
      "assetIds": []
    },
    {
      "x": 187,
      "y": 139,
      "size": 1,
      "price": "1011000000000000000000",
      "reserved": "",
      "salt": "0x27a5e5c40db1f2e04f3ee79c6b26c147dfe7de32e395d49d844a870b0e0a962c",
      "assetIds": []
    },
    {
      "x": 187,
      "y": 140,
      "size": 1,
      "price": "1011000000000000000000",
      "reserved": "",
      "salt": "0xe658a77a8f8a4674e227f5b76cce8f7bbe9050903ddfffc8e8ee7860eec33003",
      "assetIds": []
    },
    {
      "x": 187,
      "y": 141,
      "size": 1,
      "price": "1011000000000000000000",
      "reserved": "",
      "salt": "0xc3b7f2185d9a4bcfa43441b7627cc3b0f9a0b4e010064217d97f8fdf01674f1e",
      "assetIds": []
    },
    {
      "x": 187,
      "y": 142,
      "size": 1,
      "price": "1011000000000000000000",
      "reserved": "",
      "salt": "0xf2f4dd3679621fff256f21d550c27706796ac96d6e2000b90e224fb11cb26c03",
      "assetIds": []
    },
    {
      "x": 187,
      "y": 143,
      "size": 1,
      "price": "1011000000000000000000",
      "reserved": "",
      "salt": "0x8b54c9c2662f0a12a368be4935e1fa7abf6a4bb88ee0dcf8647df563a2f0f47a",
      "assetIds": []
    },
    {
      "x": 187,
      "y": 147,
      "size": 1,
      "price": "1011000000000000000000",
      "reserved": "",
      "salt": "0xc516ce7297ad824ec23f8607bfc98cf65e6324c6e5878498af158a8ea5068d06",
      "assetIds": []
    },
    {
      "x": 187,
      "y": 148,
      "size": 1,
      "price": "1011000000000000000000",
      "reserved": "",
      "salt": "0x2e9189cfa1c090c35aedabb06a85038ebf155f3d92a32b5034404b69297c5cd5",
      "assetIds": []
    },
    {
      "x": 187,
      "y": 149,
      "size": 1,
      "price": "1011000000000000000000",
      "reserved": "",
      "salt": "0x081f4a5afc1f6fd0e4ec7d1e0fed40248e994f32977d6d0afa34904dfc249ac2",
      "assetIds": []
    },
    {
      "x": 187,
      "y": 162,
      "size": 1,
      "price": "4683000000000000000000",
      "reserved": "",
      "salt": "0xfcbab043856624d1ea7e8cb089fc79515b371574f5444d72247d6020870405fd",
      "assetIds": []
    },
    {
      "x": 187,
      "y": 163,
      "size": 1,
      "price": "1011000000000000000000",
      "reserved": "",
      "salt": "0x67dba93e7697cda7c5d8f271326076361c25baf3a7f71c2b297e820485a47003",
      "assetIds": []
    },
    {
      "x": 188,
      "y": 138,
      "size": 1,
      "price": "1011000000000000000000",
      "reserved": "",
      "salt": "0xed456c8ae70eda87d4387871603dfba8a2f1d8bbedfc569e64e0b12db63ce44a",
      "assetIds": []
    },
    {
      "x": 188,
      "y": 139,
      "size": 1,
      "price": "1011000000000000000000",
      "reserved": "",
      "salt": "0x50e03284736f5e9e165e7c81f433630d61ce19863fa705e31e452304482c76df",
      "assetIds": []
    },
    {
      "x": 188,
      "y": 140,
      "size": 1,
      "price": "1011000000000000000000",
      "reserved": "",
      "salt": "0x394d36e5ff987c95f4655317812e38f5cbad59b74f2a943c8812fa287807ce3b",
      "assetIds": []
    },
    {
      "x": 188,
      "y": 141,
      "size": 1,
      "price": "1011000000000000000000",
      "reserved": "",
      "salt": "0x5b5db4c21dad628fadde128eed1c68836837e4d8f7c0c0b6f4635b64dcc8e35b",
      "assetIds": []
    },
    {
      "x": 188,
      "y": 142,
      "size": 1,
      "price": "1011000000000000000000",
      "reserved": "",
      "salt": "0x4875af24d75f4452fe8ce73658dc9f800b0e2a93abb3f9ac452221a24f6a6bba",
      "assetIds": []
    },
    {
      "x": 188,
      "y": 143,
      "size": 1,
      "price": "1011000000000000000000",
      "reserved": "",
      "salt": "0x2eaa45ba03a704787134df56318b8a32c4b448f5d02b2570a506bdda0733225d",
      "assetIds": []
    },
    {
      "x": 188,
      "y": 147,
      "size": 1,
      "price": "1011000000000000000000",
      "reserved": "",
      "salt": "0xd6ca9b0dde25187c96df98dd07e4e021fa4c0915ed652347681b21471c8a5434",
      "assetIds": []
    },
    {
      "x": 188,
      "y": 148,
      "size": 1,
      "price": "1011000000000000000000",
      "reserved": "",
      "salt": "0x5e9278d498f67d5bee2cce7e1a2c751aebb74221c4de6109f5da92354d2d805d",
      "assetIds": []
    },
    {
      "x": 188,
      "y": 149,
      "size": 1,
      "price": "1011000000000000000000",
      "reserved": "",
      "salt": "0xb3af2a132893f4613c4a27d04a2901e92d53a1d0f9e9d1c7d9b2752b4ba3233a",
      "assetIds": []
    },
    {
      "x": 188,
      "y": 162,
      "size": 1,
      "price": "4683000000000000000000",
      "reserved": "",
      "salt": "0xe4d7e74de38a699600554e926be852572e6eca1421c01ad73c7a4e97be5c511c",
      "assetIds": []
    },
    {
      "x": 188,
      "y": 163,
      "size": 1,
      "price": "1011000000000000000000",
      "reserved": "",
      "salt": "0x41a0f4d4264aac27ede02effa5576f558e96a26d45d0065e4711d5fe9046c203",
      "assetIds": []
    },
    {
      "x": 189,
      "y": 138,
      "size": 1,
      "price": "4683000000000000000000",
      "reserved": "",
      "salt": "0xe83143de2bb9937ea475ec89e74be9cf0f867200bb06082d14970528645fcfc7",
      "assetIds": []
    },
    {
      "x": 189,
      "y": 139,
      "size": 1,
      "price": "4683000000000000000000",
      "reserved": "",
      "salt": "0x1267f3528e659b7484ec14d6870437eb7eb54aa70cc22384878762872cf7b7bf",
      "assetIds": []
    },
    {
      "x": 189,
      "y": 140,
      "size": 1,
      "price": "4683000000000000000000",
      "reserved": "",
      "salt": "0x0d037b4d80104b48423df0881d4f66711fbc84dc3f136db8159e49f9132e7405",
      "assetIds": []
    },
    {
      "x": 189,
      "y": 144,
      "size": 1,
      "price": "4683000000000000000000",
      "reserved": "",
      "salt": "0x838b985f261455dea6b16701ffd1dfd5f00ddac1a5a8e22fd67d28dc679ef420",
      "assetIds": []
    },
    {
      "x": 189,
      "y": 145,
      "size": 1,
      "price": "4683000000000000000000",
      "reserved": "",
      "salt": "0x3cfd8f9ada9cb614f1e94a60bde35a490be5650488294b3a7403bacb76949f1e",
      "assetIds": []
    },
    {
      "x": 189,
      "y": 146,
      "size": 1,
      "price": "4683000000000000000000",
      "reserved": "",
      "salt": "0x19ed74dba4430bc3f69c21b1da17773faa3cd9615ff81437afa816ea50d53806",
      "assetIds": []
    },
    {
      "x": 189,
      "y": 147,
      "size": 1,
      "price": "1011000000000000000000",
      "reserved": "",
      "salt": "0x634aad278c0a6428e2e339918554818fd6bd6ae844373897b3c01221c6844758",
      "assetIds": []
    },
    {
      "x": 189,
      "y": 148,
      "size": 1,
      "price": "1011000000000000000000",
      "reserved": "",
      "salt": "0x06758b574bc5cbae933a2e8a284c4917a847a412a5fccf7c73a722f58d2bcf1a",
      "assetIds": []
    },
    {
      "x": 189,
      "y": 149,
      "size": 1,
      "price": "1011000000000000000000",
      "reserved": "",
      "salt": "0xe558198454842397aedb701ba0963b4bd929a2ee770df5af73f705e5b0cab8ed",
      "assetIds": []
    },
    {
      "x": 189,
      "y": 162,
      "size": 1,
      "price": "4683000000000000000000",
      "reserved": "",
      "salt": "0xad5e70ac2e22edb1651ee09436a917ab0149989676aed10968607e294a40f74a",
      "assetIds": []
    },
    {
      "x": 189,
      "y": 163,
      "size": 1,
      "price": "1011000000000000000000",
      "reserved": "",
      "salt": "0xdfe5f8c5b5443f3031008c4d92add88135a3cc0a7c7eb2aab2514338f616dc20",
      "assetIds": []
    },
    {
      "x": 190,
      "y": 138,
      "size": 1,
      "price": "4683000000000000000000",
      "reserved": "",
      "salt": "0x5c771ca11e286f1bb0d4e06767f07ee7f607311c8232a0d116d58971eb002b4f",
      "assetIds": []
    },
    {
      "x": 190,
      "y": 139,
      "size": 1,
      "price": "1011000000000000000000",
      "reserved": "0x7a9fe22691c811ea339d9b73150e6911a5343dca",
      "salt": "0xe4c16d9b58c413a65aeb25eba9afd0bb6612d8e1904e37431664a6368a18f644",
      "assetIds": []
    },
    {
      "x": 190,
      "y": 140,
      "size": 1,
      "price": "4683000000000000000000",
      "reserved": "",
      "salt": "0xea490a5cc049b9cd71535be7f2f77e3fb6b029f0182aa5554d486e66016eddc7",
      "assetIds": []
    },
    {
      "x": 190,
      "y": 144,
      "size": 1,
      "price": "4683000000000000000000",
      "reserved": "",
      "salt": "0x9c8a20840e8ce455949de937552dd5c11a21390d2c0e49cf569bfefc5a1b76ba",
      "assetIds": []
    },
    {
      "x": 190,
      "y": 145,
      "size": 1,
      "price": "4683000000000000000000",
      "reserved": "",
      "salt": "0x534ad51544a0c24a76ffc77feb6fc1231568b452c0328cbe31c116b636f5ff24",
      "assetIds": []
    },
    {
      "x": 190,
      "y": 146,
      "size": 1,
      "price": "4683000000000000000000",
      "reserved": "",
      "salt": "0xa03a6c7d71f92f40459a20d723275cca8652b14c67c7fa57071c3c991fa6738c",
      "assetIds": []
    },
    {
      "x": 190,
      "y": 147,
      "size": 1,
      "price": "1011000000000000000000",
      "reserved": "",
      "salt": "0x0add597c01534b73decfaf06a168cca1ba34f2e944bc2c8c02999803b0fc2503",
      "assetIds": []
    },
    {
      "x": 190,
      "y": 148,
      "size": 1,
      "price": "1011000000000000000000",
      "reserved": "",
      "salt": "0xfc1f4c55529a1bc1aaa17dfd431f04f1feeb754ea23426aed970d3f3e6e6273c",
      "assetIds": []
    },
    {
      "x": 190,
      "y": 149,
      "size": 1,
      "price": "1011000000000000000000",
      "reserved": "",
      "salt": "0xb0e78087ba36185ab351d43c635e050d23b4cd32533f9b3f1b9b8c438356350f",
      "assetIds": []
    },
    {
      "x": 190,
      "y": 162,
      "size": 1,
      "price": "4683000000000000000000",
      "reserved": "",
      "salt": "0xbcd7c9fac659a5cd413206730768bbc2ce3edf071dc9bc287bca02ebcab58271",
      "assetIds": []
    },
    {
      "x": 190,
      "y": 163,
      "size": 1,
      "price": "1011000000000000000000",
      "reserved": "",
      "salt": "0x6dcc15c8d882c994f7d9981aaa9f580ba5d7718c5d3a891787a3922bcb7815d6",
      "assetIds": []
    },
    {
      "x": 191,
      "y": 138,
      "size": 1,
      "price": "4683000000000000000000",
      "reserved": "",
      "salt": "0x9a374c28a962518fb8afbbbe7fc77db8436bb60cba029b4cd984f1f2405e445b",
      "assetIds": []
    },
    {
      "x": 191,
      "y": 139,
      "size": 1,
      "price": "4683000000000000000000",
      "reserved": "",
      "salt": "0xbe5eaa53f93740a7245833a5e24e376fd7a3165d5e2deb20b0e6630bded8d79e",
      "assetIds": []
    },
    {
      "x": 191,
      "y": 140,
      "size": 1,
      "price": "4683000000000000000000",
      "reserved": "",
      "salt": "0xa2fe96807910ec670a2c12ecf35f2bb8ef54e2e86ead070c8de11a767148a1ac",
      "assetIds": []
    },
    {
      "x": 191,
      "y": 144,
      "size": 1,
      "price": "4683000000000000000000",
      "reserved": "",
      "salt": "0x0548b7df9f3e621ae8a688e766431d5a39a792d95dfa3a945fec2d15552b17f8",
      "assetIds": []
    },
    {
      "x": 191,
      "y": 145,
      "size": 1,
      "price": "4683000000000000000000",
      "reserved": "",
      "salt": "0xdfa15142684534a8c2df9a82ed992d4a95a5a29a9bbc51eeadca5ebaf163a0fe",
      "assetIds": []
    },
    {
      "x": 191,
      "y": 146,
      "size": 1,
      "price": "4683000000000000000000",
      "reserved": "",
      "salt": "0x0650e7bc7956a5b32750acdebda2718180979a6dd8593690ac614cd801fd66a8",
      "assetIds": []
    },
    {
      "x": 191,
      "y": 147,
      "size": 1,
      "price": "1011000000000000000000",
      "reserved": "",
      "salt": "0x7fd3978455422ba90327dd07d75a34544d11479c898097a00d576d4d8bc9c05f",
      "assetIds": []
    },
    {
      "x": 191,
      "y": 148,
      "size": 1,
      "price": "1011000000000000000000",
      "reserved": "",
      "salt": "0x5f527cd6981767d0e67bb37854388173513e8360267d67c5edec647046969dce",
      "assetIds": []
    },
    {
      "x": 191,
      "y": 149,
      "size": 1,
      "price": "1011000000000000000000",
      "reserved": "",
      "salt": "0xb4d2bd3d96ed59b49ef0658d6ce733eb83b8068ab738c8fa19eb17ac4e29f86d",
      "assetIds": []
    },
    {
      "x": 191,
      "y": 162,
      "size": 1,
      "price": "1011000000000000000000",
      "reserved": "0x7a9fe22691c811ea339d9b73150e6911a5343dca",
      "salt": "0x73eb71d323afe1458c28232e179cc1d740021c753f13ad430abc64afa3b0adc2",
      "assetIds": []
    },
    {
      "x": 191,
      "y": 163,
      "size": 1,
      "price": "1011000000000000000000",
      "reserved": "",
      "salt": "0xe0e71c3274f07528f72bd9c3c8bd9b600233d0f7332657311b7e5401b210adf4",
      "assetIds": []
    },
    {
      "x": 192,
      "y": 144,
      "size": 1,
      "price": "4683000000000000000000",
      "reserved": "",
      "salt": "0xd7101daef23c43bfa521b81591eeee32896a9ea604a555e88ec2bd5d82c31454",
      "assetIds": []
    },
    {
      "x": 192,
      "y": 145,
      "size": 1,
      "price": "4683000000000000000000",
      "reserved": "",
      "salt": "0x81b360e51e3841fe904662857e12da94e0429a3d2212608a556ca2b7fa0cceac",
      "assetIds": []
    },
    {
      "x": 192,
      "y": 146,
      "size": 1,
      "price": "4683000000000000000000",
      "reserved": "",
      "salt": "0x4b484dac6d93b97b8609d58c6cca1ebc563022ceb1a715ef69741aa0cff6e185",
      "assetIds": []
    },
    {
      "x": 192,
      "y": 147,
      "size": 1,
      "price": "1011000000000000000000",
      "reserved": "",
      "salt": "0xb8050951149cde91c4a15d3f8a3781487db84866b502f62052e7415d2225d370",
      "assetIds": []
    },
    {
      "x": 192,
      "y": 148,
      "size": 1,
      "price": "1011000000000000000000",
      "reserved": "",
      "salt": "0x2cf4412798a40b39aefd60bf9f7806840aedace5ffc297bef02d399cba5c9a88",
      "assetIds": []
    },
    {
      "x": 192,
      "y": 149,
      "size": 1,
      "price": "4683000000000000000000",
      "reserved": "",
      "salt": "0x58c3df8819fbd3076ba46ee478dd6c73f197231cf19dc6199a49ef56db032031",
      "assetIds": []
    },
    {
      "x": 192,
      "y": 153,
      "size": 1,
      "price": "4683000000000000000000",
      "reserved": "",
      "salt": "0xc78067372351852ababb01b34e6dc343cc12f89c506eaf971a49649f05fafe38",
      "assetIds": []
    },
    {
      "x": 192,
      "y": 154,
      "size": 1,
      "price": "1011000000000000000000",
      "reserved": "",
      "salt": "0x7b262aba6d6aad3531d96fb74d524d230dc5421278ca795233f1044dc7bc6fd6",
      "assetIds": []
    },
    {
      "x": 192,
      "y": 155,
      "size": 1,
      "price": "1011000000000000000000",
      "reserved": "",
      "salt": "0xaf1e96fb583f1d406ce07ec65c72a8b45518090da84681bdce35e0e2c90de920",
      "assetIds": []
    },
    {
      "x": 192,
      "y": 156,
      "size": 1,
      "price": "4683000000000000000000",
      "reserved": "",
      "salt": "0x3241affffaa4c9c6335428b47be198d356b5b4dc7988fb7164158c2d786b2b5e",
      "assetIds": []
    },
    {
      "x": 192,
      "y": 157,
      "size": 1,
      "price": "4683000000000000000000",
      "reserved": "",
      "salt": "0x06502a887e0d6906d01f8a0deee47eab869bccdd312131a29b719e201eabce6e",
      "assetIds": []
    },
    {
      "x": 192,
      "y": 158,
      "size": 1,
      "price": "4683000000000000000000",
      "reserved": "",
      "salt": "0x35d5537b9ea61ba5b3fdd2dcb3d8ecffbb74a4227373ff978fc457395f947e0d",
      "assetIds": []
    },
    {
      "x": 192,
      "y": 162,
      "size": 1,
      "price": "1011000000000000000000",
      "reserved": "",
      "salt": "0x22cf5f52d33c1413abf844d476af63f9a6a6cea01b77dd8b4b52c8f98bfda325",
      "assetIds": []
    },
    {
      "x": 192,
      "y": 163,
      "size": 1,
      "price": "1011000000000000000000",
      "reserved": "",
      "salt": "0x546c4df825baad10db556f4c7bdb08e237568250249dfef1ec9442163ceba246",
      "assetIds": []
    },
    {
      "x": 193,
      "y": 144,
      "size": 1,
      "price": "4683000000000000000000",
      "reserved": "",
      "salt": "0xc291c45d5f3483271ed25c14225d5695ff495c3b3e7ed890b822be8935ebe0d3",
      "assetIds": []
    },
    {
      "x": 193,
      "y": 145,
      "size": 1,
      "price": "4683000000000000000000",
      "reserved": "",
      "salt": "0x10c188a11da7cf195006992b224cb0fb5a658061b8e256297d4f9405b84dd396",
      "assetIds": []
    },
    {
      "x": 193,
      "y": 146,
      "size": 1,
      "price": "4683000000000000000000",
      "reserved": "",
      "salt": "0x0f80cb4d409077814a2d476ae18ef3fe8e07f6911c1a38dcbc2ed9e5687fafa1",
      "assetIds": []
    },
    {
      "x": 193,
      "y": 147,
      "size": 1,
      "price": "1011000000000000000000",
      "reserved": "",
      "salt": "0xdaeb93cbeb51cfbe3f93b76b2a9acca4861c49a374d15efef8f7c1afa8189eb8",
      "assetIds": []
    },
    {
      "x": 193,
      "y": 148,
      "size": 1,
      "price": "1011000000000000000000",
      "reserved": "",
      "salt": "0xeb42328c466b6cc1b210f2dba884c0a27839990466f7a427afb5633c5c8cb3bf",
      "assetIds": []
    },
    {
      "x": 193,
      "y": 149,
      "size": 1,
      "price": "1011000000000000000000",
      "reserved": "",
      "salt": "0x364d9ac500aee485bade6c70842cf1e5d0d904957531ff31dad8050da1b75ab4",
      "assetIds": []
    },
    {
      "x": 193,
      "y": 153,
      "size": 1,
      "price": "4683000000000000000000",
      "reserved": "",
      "salt": "0xcaa78b89df5824292313d2f8bb3a4770d62797583560c503a14771c90e9257ae",
      "assetIds": []
    },
    {
      "x": 193,
      "y": 154,
      "size": 1,
      "price": "1011000000000000000000",
      "reserved": "",
      "salt": "0x9670449835b4c59b8221cd0fb91b0c644df8503de9fcf7c1e6c84659138b756c",
      "assetIds": []
    },
    {
      "x": 193,
      "y": 155,
      "size": 1,
      "price": "1011000000000000000000",
      "reserved": "",
      "salt": "0xefa4636ff345cf12a979a5faf105c9fa533e7ceae4f17a2edca1a68a1b6ada8a",
      "assetIds": []
    },
    {
      "x": 193,
      "y": 156,
      "size": 1,
      "price": "1011000000000000000000",
      "reserved": "",
      "salt": "0x865d0b3de3cdb92a1ccf34f03d63dc91ea6f4274968b767d71494c7f6363c68f",
      "assetIds": []
    },
    {
      "x": 193,
      "y": 157,
      "size": 1,
      "price": "1011000000000000000000",
      "reserved": "",
      "salt": "0x7521f1d840de7b520e7920c3f783215367dcf2ef10289f8eaaa169aa10890494",
      "assetIds": []
    },
    {
      "x": 193,
      "y": 158,
      "size": 1,
      "price": "1011000000000000000000",
      "reserved": "",
      "salt": "0x24fd44cc79eafed8a51e27d461f4037db380087071d946680f4a25264b93fa74",
      "assetIds": []
    },
    {
      "x": 193,
      "y": 162,
      "size": 1,
      "price": "1011000000000000000000",
      "reserved": "",
      "salt": "0x36c3349c3fa0d7d19f7b59b65470eb3c1a311d96bd3148e95853ab1db24e2de8",
      "assetIds": []
    },
    {
      "x": 193,
      "y": 163,
      "size": 1,
      "price": "1011000000000000000000",
      "reserved": "",
      "salt": "0xb9b467f2e2c809e301a84c2e19c2695786e3a7e74ec68f8582513c81e6a7e4ab",
      "assetIds": []
    },
    {
      "x": 193,
      "y": 164,
      "size": 1,
      "price": "1011000000000000000000",
      "reserved": "",
      "salt": "0xc71c84ddcbcdcd284078c8ef2469673e68fdea350264f23a94ef189f00c995e0",
      "assetIds": []
    },
    {
      "x": 194,
      "y": 144,
      "size": 1,
      "price": "4683000000000000000000",
      "reserved": "",
      "salt": "0x603b8059889ec623e0a5d77bb8e5c72de1dfc421e481d01745a12e39578a6dc4",
      "assetIds": []
    },
    {
      "x": 194,
      "y": 145,
      "size": 1,
      "price": "4683000000000000000000",
      "reserved": "",
      "salt": "0x87bf425000aebb9c18d15c317f7dea3a02cc703a84fbbbe7a5ab3ce0127a70ef",
      "assetIds": []
    },
    {
      "x": 194,
      "y": 146,
      "size": 1,
      "price": "4683000000000000000000",
      "reserved": "",
      "salt": "0x7ffc65a354adc65bbcda34a22c0f11cb9341aa6633d7112388dc5fe6f267ebea",
      "assetIds": []
    },
    {
      "x": 194,
      "y": 147,
      "size": 1,
      "price": "1011000000000000000000",
      "reserved": "",
      "salt": "0xb68192f26100c585fe2c12cccd9214193547e21edf18313d09c4324a7a01756b",
      "assetIds": []
    },
    {
      "x": 194,
      "y": 148,
      "size": 1,
      "price": "1011000000000000000000",
      "reserved": "",
      "salt": "0xb0e2facb0c562f3b7c9bd90f3f34025a2e59d4bc4bd4f9e2054cd74f13b8b33b",
      "assetIds": []
    },
    {
      "x": 194,
      "y": 149,
      "size": 1,
      "price": "4683000000000000000000",
      "reserved": "",
      "salt": "0x76a0414da938fc8fadd7553ce1eac3ad7a3f4033dc203678d3fb98e404a8b27d",
      "assetIds": []
    },
    {
      "x": 194,
      "y": 153,
      "size": 1,
      "price": "4683000000000000000000",
      "reserved": "",
      "salt": "0x828d73faaf21e01fc1fe74764e9f6829e1346112438516c2178ea98e710e8e61",
      "assetIds": []
    },
    {
      "x": 194,
      "y": 154,
      "size": 1,
      "price": "1011000000000000000000",
      "reserved": "",
      "salt": "0x4fdc6ef897ef40464791f751a016ae20a1ce52d142c60c2c7c12adecfdd1dd27",
      "assetIds": []
    },
    {
      "x": 194,
      "y": 155,
      "size": 1,
      "price": "1011000000000000000000",
      "reserved": "",
      "salt": "0x7d2a9e6eb6be575b0d4ac63fa04db6e2e42952f7744d595e709793f5d08aea5c",
      "assetIds": []
    },
    {
      "x": 194,
      "y": 156,
      "size": 1,
      "price": "1011000000000000000000",
      "reserved": "",
      "salt": "0x02626b6fd68ba99253b5ffad9338094ee0c34cfd28df48e01240400d83f527a8",
      "assetIds": []
    },
    {
      "x": 194,
      "y": 157,
      "size": 1,
      "price": "1011000000000000000000",
      "reserved": "",
      "salt": "0x6f01019443da8dbd61f47f76dd3c8737143ccf4d3c3e9565ca774db7d0cc57fb",
      "assetIds": []
    },
    {
      "x": 194,
      "y": 158,
      "size": 1,
      "price": "1011000000000000000000",
      "reserved": "",
      "salt": "0xda2412b3042acb4cf49f1124879c83d9beb7a007592270b7b185af075dc8e578",
      "assetIds": []
    },
    {
      "x": 194,
      "y": 162,
      "size": 1,
      "price": "1011000000000000000000",
      "reserved": "",
      "salt": "0x283786c7184c7d964dab0308788ef73a7150ab9a04d1322e9c84f64e084ab828",
      "assetIds": []
    },
    {
      "x": 194,
      "y": 163,
      "size": 1,
      "price": "1011000000000000000000",
      "reserved": "",
      "salt": "0xfbfa11d62dd7841edc5d5254d92993a53a918437f12fbd269c1a9d1ffded8654",
      "assetIds": []
    },
    {
      "x": 194,
      "y": 164,
      "size": 1,
      "price": "1011000000000000000000",
      "reserved": "",
      "salt": "0x319a680858a757d45fd208e5100f946eec83553f1018e1ba54b7745d1936e9ac",
      "assetIds": []
    },
    {
      "x": 195,
      "y": 144,
      "size": 1,
      "price": "4683000000000000000000",
      "reserved": "",
      "salt": "0xf9ccf0128980e5cb8d17251736edfdedd3bbb2b9115d39807eb89a5eb24ee977",
      "assetIds": []
    },
    {
      "x": 195,
      "y": 145,
      "size": 1,
      "price": "4683000000000000000000",
      "reserved": "",
      "salt": "0x087425741c3692d0f4189122f50b801688e09ea5684536e8d448eaf760e58641",
      "assetIds": []
    },
    {
      "x": 195,
      "y": 146,
      "size": 1,
      "price": "4683000000000000000000",
      "reserved": "",
      "salt": "0x7c7eacc0034939642b9a20e3887c8bf11e6873b3b5f934b8258461f3032ed3d1",
      "assetIds": []
    },
    {
      "x": 195,
      "y": 147,
      "size": 1,
      "price": "1011000000000000000000",
      "reserved": "",
      "salt": "0xadb46706e5254a19d7d0d24a780ab97c056f3b2ba4f575a6ea47e5c6ad8f56b9",
      "assetIds": []
    },
    {
      "x": 195,
      "y": 148,
      "size": 1,
      "price": "1011000000000000000000",
      "reserved": "",
      "salt": "0xcd050459c5848708404b5e563f796cbab8dd4d7d405495a3777199774f6b6c42",
      "assetIds": []
    },
    {
      "x": 195,
      "y": 149,
      "size": 1,
      "price": "1011000000000000000000",
      "reserved": "0x7a9fe22691c811ea339d9b73150e6911a5343dca",
      "salt": "0xe7698da142fb703719ef333e6bb4ffdf14f7a1e99ad73f18d50d136f882d5f52",
      "assetIds": []
    },
    {
      "x": 195,
      "y": 150,
      "size": 1,
      "price": "4683000000000000000000",
      "reserved": "",
      "salt": "0xf098a3136914642bd26396ed847206a325544403faf92b8cbb01f69606731ef0",
      "assetIds": []
    },
    {
      "x": 195,
      "y": 151,
      "size": 1,
      "price": "4683000000000000000000",
      "reserved": "",
      "salt": "0xeb307558524b531e9dd63fc85bda12057e43d69a0dc5404a307f26b22bf96f8b",
      "assetIds": []
    },
    {
      "x": 195,
      "y": 152,
      "size": 1,
      "price": "1011000000000000000000",
      "reserved": "0x7a9fe22691c811ea339d9b73150e6911a5343dca",
      "salt": "0xcc996a7cc310459bbe490faed61bdcb9a213d5c073f97081d653e4816d50f5f0",
      "assetIds": []
    },
    {
      "x": 195,
      "y": 156,
      "size": 1,
      "price": "1011000000000000000000",
      "reserved": "",
      "salt": "0xebd8ba533f92f33ee7436757c464b91a9797d087f4692a278107ad8111fb0340",
      "assetIds": []
    },
    {
      "x": 195,
      "y": 157,
      "size": 1,
      "price": "1011000000000000000000",
      "reserved": "",
      "salt": "0xed720e0bf063f7e932dd607469613b8d7bc6c1c2e39f598a4272f93871f93231",
      "assetIds": []
    },
    {
      "x": 195,
      "y": 158,
      "size": 1,
      "price": "1011000000000000000000",
      "reserved": "",
      "salt": "0xbe6f56b0a54e68f460b7573ddfadd03a684c82e4cbcb4bf570e02bdfe1033d91",
      "assetIds": []
    },
    {
      "x": 195,
      "y": 159,
      "size": 1,
      "price": "1011000000000000000000",
      "reserved": "",
      "salt": "0xf53dfa49309c53298d2a2c7ead622db6ffd04f40521df100499f12cb635d3d75",
      "assetIds": []
    },
    {
      "x": 195,
      "y": 160,
      "size": 1,
      "price": "1011000000000000000000",
      "reserved": "",
      "salt": "0x00f99ed38884433d432c4e84dca9c1b8dc150a36504753ba12dcb983fb1eab78",
      "assetIds": []
    },
    {
      "x": 195,
      "y": 161,
      "size": 1,
      "price": "1011000000000000000000",
      "reserved": "",
      "salt": "0xea46ae18df9ba05c6bbc65f493e97c92917e3f105b3e7a9697920ed2f4e26626",
      "assetIds": []
    },
    {
      "x": 195,
      "y": 162,
      "size": 1,
      "price": "1011000000000000000000",
      "reserved": "",
      "salt": "0x4223c870e51024d7f8170373e101d00de8016d5a1e8fbac32e06124b3041c1af",
      "assetIds": []
    },
    {
      "x": 195,
      "y": 163,
      "size": 1,
      "price": "1011000000000000000000",
      "reserved": "",
      "salt": "0x61876d607e0b193aadfce9735966e6711a6bd0342c37b0efbe03d00920da171c",
      "assetIds": []
    },
    {
      "x": 195,
      "y": 164,
      "size": 1,
      "price": "1011000000000000000000",
      "reserved": "",
      "salt": "0xad1c16b1efe72b93067d8f27ae32b339690e9ed57439e4e7185627f59e6574ce",
      "assetIds": []
    },
    {
      "x": 196,
      "y": 144,
      "size": 1,
      "price": "4683000000000000000000",
      "reserved": "",
      "salt": "0x93aaa9d73b935ec279ac810e53d399c67b0b811c82fa6b31d450558ea10f236e",
      "assetIds": []
    },
    {
      "x": 196,
      "y": 145,
      "size": 1,
      "price": "4683000000000000000000",
      "reserved": "",
      "salt": "0x94ef1bbb5a9a701196e3951d971a26d06c09b574d680c2feb341563360cd8fd4",
      "assetIds": []
    },
    {
      "x": 196,
      "y": 146,
      "size": 1,
      "price": "4683000000000000000000",
      "reserved": "",
      "salt": "0x0276c83d39448f1b5133faacbd1abb0aa059bbb7f983021d71f0723e065a86a1",
      "assetIds": []
    },
    {
      "x": 196,
      "y": 147,
      "size": 1,
      "price": "1011000000000000000000",
      "reserved": "",
      "salt": "0x2dd98db7d4d7e3fbb19898dabb913ed4e7c2487e8d75fc83c8fabb295164c929",
      "assetIds": []
    },
    {
      "x": 196,
      "y": 148,
      "size": 1,
      "price": "1011000000000000000000",
      "reserved": "",
      "salt": "0x6c93022eedf736e9564473baf094604c9eaffc553c9dc7ea1cc297ca81fa8a36",
      "assetIds": []
    },
    {
      "x": 196,
      "y": 149,
      "size": 1,
      "price": "1011000000000000000000",
      "reserved": "",
      "salt": "0x243e4f680ba438dd0bae4f51905898a2baf19ec5a82c8809ba10b69555c50925",
      "assetIds": []
    },
    {
      "x": 196,
      "y": 150,
      "size": 1,
      "price": "1011000000000000000000",
      "reserved": "",
      "salt": "0x4251e530d5d2366a3da1de2fea6d2be7d8325368b177d786a814f79191ca45ce",
      "assetIds": []
    },
    {
      "x": 196,
      "y": 151,
      "size": 1,
      "price": "1011000000000000000000",
      "reserved": "",
      "salt": "0x8f04d01dc25389fb6e9fa0722e71217d02c0d1098dacb1351d5a43bb8dd010ee",
      "assetIds": []
    },
    {
      "x": 196,
      "y": 152,
      "size": 1,
      "price": "1011000000000000000000",
      "reserved": "",
      "salt": "0x9e27d4581beb0a7a0079b48f387e6d50ef5313a11c311a25d3f2752bff883988",
      "assetIds": []
    },
    {
      "x": 196,
      "y": 156,
      "size": 1,
      "price": "1011000000000000000000",
      "reserved": "",
      "salt": "0x22439f9b49372e2a89c0c0578618fdb500a7cb25f6662ea2e00128eaf25711e3",
      "assetIds": []
    },
    {
      "x": 196,
      "y": 157,
      "size": 1,
      "price": "1011000000000000000000",
      "reserved": "",
      "salt": "0x830db1c3dd419ae5a5dc3b5d54f414b1117dc850e80f578a49e8bc6ed80c8ac6",
      "assetIds": []
    },
    {
      "x": 196,
      "y": 158,
      "size": 1,
      "price": "1011000000000000000000",
      "reserved": "",
      "salt": "0xc28b1eaaa73b13d5d85c1a1a0e4f342d530110c9018ee6e78a2de0521425a8d3",
      "assetIds": []
    },
    {
      "x": 196,
      "y": 159,
      "size": 1,
      "price": "1011000000000000000000",
      "reserved": "",
      "salt": "0xc558d3b7145e3fd99da921599879f79607e6e5a9ac76273b2bbb4319340807fd",
      "assetIds": []
    },
    {
      "x": 196,
      "y": 160,
      "size": 1,
      "price": "1011000000000000000000",
      "reserved": "",
      "salt": "0x9b5043e4e2f90031a0bdd80b5ae21af66d1a78135f8225a6bb4d66a08249323e",
      "assetIds": []
    },
    {
      "x": 196,
      "y": 161,
      "size": 1,
      "price": "1011000000000000000000",
      "reserved": "",
      "salt": "0x5989e51532f80377227483d15b6320b28f6d7737f646aaa5cdbbc5cf8c84a822",
      "assetIds": []
    },
    {
      "x": 196,
      "y": 162,
      "size": 1,
      "price": "1011000000000000000000",
      "reserved": "",
      "salt": "0x54a76a26718c04480e4b3fa7ace76ba0393d0b98324172a6d600610f5f35e5eb",
      "assetIds": []
    },
    {
      "x": 196,
      "y": 163,
      "size": 1,
      "price": "1011000000000000000000",
      "reserved": "",
      "salt": "0x593d9188ea3033234770321d33c0e69e3dd45cf5253eec71700301fbd982586a",
      "assetIds": []
    },
    {
      "x": 196,
      "y": 164,
      "size": 1,
      "price": "1011000000000000000000",
      "reserved": "",
      "salt": "0xef544428ef6d4bcd83cf0351c44786bb82214bc660706539bf6549b7a87cd9ab",
      "assetIds": []
    },
    {
      "x": 197,
      "y": 144,
      "size": 1,
      "price": "4683000000000000000000",
      "reserved": "",
      "salt": "0x067b02404ebbf3c1db6b01191eed7f5485db19aa50d1a36b1ecf5091e9f4b8a6",
      "assetIds": []
    },
    {
      "x": 197,
      "y": 145,
      "size": 1,
      "price": "4683000000000000000000",
      "reserved": "",
      "salt": "0x0faeb8ee60d6c1a8163f4a95245ee7585c6166fb800816855d2f241014680b70",
      "assetIds": []
    },
    {
      "x": 197,
      "y": 146,
      "size": 1,
      "price": "4683000000000000000000",
      "reserved": "",
      "salt": "0xf42ceae929a2ec977b09b160b44a5556aec6db0c8578121f7284fbd2a23a3c55",
      "assetIds": []
    },
    {
      "x": 197,
      "y": 147,
      "size": 1,
      "price": "1011000000000000000000",
      "reserved": "",
      "salt": "0xb40357377eb3e24e5cf856fc15e1d08d3eeaca3132c98be937dffea4204af5c6",
      "assetIds": []
    },
    {
      "x": 197,
      "y": 148,
      "size": 1,
      "price": "1011000000000000000000",
      "reserved": "",
      "salt": "0xfb877b0b813be9285f29c72479191ab6fc7bcbd2bd98f9596dca092f150f59df",
      "assetIds": []
    },
    {
      "x": 197,
      "y": 149,
      "size": 1,
      "price": "1011000000000000000000",
      "reserved": "",
      "salt": "0xe3f1409e99c71c1cf852b75ea1db3b72ba8ce8d6e52caa9c3e2ac94257fcafdb",
      "assetIds": []
    },
    {
      "x": 197,
      "y": 150,
      "size": 1,
      "price": "1011000000000000000000",
      "reserved": "",
      "salt": "0xf7bbf030079f69a63674bb09efb9cefc3f1469c27955f7a4065aaf602a25b00b",
      "assetIds": []
    },
    {
      "x": 197,
      "y": 151,
      "size": 1,
      "price": "1011000000000000000000",
      "reserved": "",
      "salt": "0x4173ffbd765aeb88b46b7c8cbcdd5d8a0cf8d28a10891a283bdbd01c1155eb37",
      "assetIds": []
    },
    {
      "x": 197,
      "y": 152,
      "size": 1,
      "price": "1011000000000000000000",
      "reserved": "",
      "salt": "0x1cb9e63486397cd31a15cb042fff5cef11a335d83de79c90fd7c2d86db61405b",
      "assetIds": []
    },
    {
      "x": 197,
      "y": 156,
      "size": 1,
      "price": "1011000000000000000000",
      "reserved": "",
      "salt": "0xdc951ffe18662b841acc6c77abd73b570cc484f42c87b0654d88acc0292ad6d3",
      "assetIds": []
    },
    {
      "x": 197,
      "y": 157,
      "size": 1,
      "price": "1011000000000000000000",
      "reserved": "",
      "salt": "0xa704fe414fb8a1d406d97ba68d7e3c78ea4455b3353cd8c4374d2693536f1117",
      "assetIds": []
    },
    {
      "x": 197,
      "y": 158,
      "size": 1,
      "price": "1011000000000000000000",
      "reserved": "",
      "salt": "0xb80d9af7dcd01dea5e64b8ff6e62b3ec8975a910c3a8c91220141e707bc3b166",
      "assetIds": []
    },
    {
      "x": 197,
      "y": 159,
      "size": 1,
      "price": "1011000000000000000000",
      "reserved": "",
      "salt": "0x940776b00e322e375360cc5e8fc5c72a0c025a931abd02f1670305a84ce56563",
      "assetIds": []
    },
    {
      "x": 197,
      "y": 160,
      "size": 1,
      "price": "1011000000000000000000",
      "reserved": "",
      "salt": "0xc24f8ef317d9fc7bfca0856d4e7eb4a411284f7079613a07e9f9eedcf3dc7185",
      "assetIds": []
    },
    {
      "x": 197,
      "y": 161,
      "size": 1,
      "price": "1011000000000000000000",
      "reserved": "",
      "salt": "0xa4e1815b75faec6370290c3bfa8c57bf5bcfbdf51bcac444dce581bb4d8b9fb9",
      "assetIds": []
    },
    {
      "x": 197,
      "y": 162,
      "size": 1,
      "price": "1011000000000000000000",
      "reserved": "",
      "salt": "0x88de6bccd8e51ba558040bc4479a7f9056c3f42b84bc70263543f00597e9424a",
      "assetIds": []
    },
    {
      "x": 197,
      "y": 163,
      "size": 1,
      "price": "1011000000000000000000",
      "reserved": "",
      "salt": "0x896b68b3b358d082dfebd3537de588ea81ea0b28043e220d613ad9b014fed8c9",
      "assetIds": []
    },
    {
      "x": 197,
      "y": 164,
      "size": 1,
      "price": "1011000000000000000000",
      "reserved": "",
      "salt": "0x1db4da2b207feadcada6175ef7eff4ba6513892ce145bdeac6d720c02b74bb5a",
      "assetIds": []
    },
    {
      "x": 198,
      "y": 147,
      "size": 1,
      "price": "1011000000000000000000",
      "reserved": "",
      "salt": "0xa3ca7a2da81c7c796a0ab59c1f179543526eda62119ed8b573c4a915e567d7d7",
      "assetIds": []
    },
    {
      "x": 198,
      "y": 148,
      "size": 1,
      "price": "1011000000000000000000",
      "reserved": "",
      "salt": "0x55c3f7e4ebc8e8bd7b7a9792114de138779300bce9f0a42879753fd778e4f9b1",
      "assetIds": []
    },
    {
      "x": 198,
      "y": 149,
      "size": 1,
      "price": "1011000000000000000000",
      "reserved": "",
      "salt": "0x050c4aa5002558cbdf97852345a51cd9baa18e2d22b074ace58789edc04c6131",
      "assetIds": []
    },
    {
      "x": 198,
      "y": 150,
      "size": 1,
      "price": "1011000000000000000000",
      "reserved": "",
      "salt": "0xe40791a19064104613948fa855ddb517d02b1312b6ce2d421b5115131749d44b",
      "assetIds": []
    },
    {
      "x": 198,
      "y": 151,
      "size": 1,
      "price": "1011000000000000000000",
      "reserved": "0x7a9fe22691c811ea339d9b73150e6911a5343dca",
      "salt": "0x24f8720d16520cfb521c32a532baa3760056c02b9057e3efd454140302c8a380",
      "assetIds": []
    },
    {
      "x": 198,
      "y": 152,
      "size": 1,
      "price": "1011000000000000000000",
      "reserved": "",
      "salt": "0xfdf64b22c4397ba069d9bfc7672f6e1ce6e8d24823aa4412d57cf313b9d7aae9",
      "assetIds": []
    },
    {
      "x": 198,
      "y": 153,
      "size": 1,
      "price": "1011000000000000000000",
      "reserved": "",
      "salt": "0x31de76c29bb8344cd1f50c424a5194b95cba3165a163832c0f21dce968b89fd4",
      "assetIds": []
    },
    {
      "x": 198,
      "y": 154,
      "size": 1,
      "price": "1011000000000000000000",
      "reserved": "",
      "salt": "0x36908320883fe881ed539961911f0919a6ff051bc51225711a0ba274c367a587",
      "assetIds": []
    },
    {
      "x": 198,
      "y": 155,
      "size": 1,
      "price": "1011000000000000000000",
      "reserved": "",
      "salt": "0xcab556d6445a27332442d43badeb89ec727eabefeca9508c9103e7974a6b860f",
      "assetIds": []
    },
    {
      "x": 199,
      "y": 147,
      "size": 1,
      "price": "1011000000000000000000",
      "reserved": "",
      "salt": "0xd718aa350684d7099c0f594bc5eeb119c9f0f7d23dba2964eb8417551bbbe979",
      "assetIds": []
    },
    {
      "x": 199,
      "y": 148,
      "size": 1,
      "price": "1011000000000000000000",
      "reserved": "",
      "salt": "0x880f5e02073ea5f5f5a7be65b4ad6e7d79e85893042acb273ccae929b141f8a6",
      "assetIds": []
    },
    {
      "x": 199,
      "y": 149,
      "size": 1,
      "price": "1011000000000000000000",
      "reserved": "",
      "salt": "0xdba1ab6f9b7d7460020114b714f4f9d24a32cadc0431eb1dd2fa10ba2bf39ccb",
      "assetIds": []
    },
    {
      "x": 199,
      "y": 150,
      "size": 1,
      "price": "1011000000000000000000",
      "reserved": "",
      "salt": "0x2920f11b0a292bd65a04499604b40fbd136e647c4712aa120ed9aaa8d6376967",
      "assetIds": []
    },
    {
      "x": 199,
      "y": 151,
      "size": 1,
      "price": "1011000000000000000000",
      "reserved": "",
      "salt": "0xfcb7448f4f69a90c4e8f6d38f981c90bbf7a8deef97dff61e7e73aea6746fe03",
      "assetIds": []
    },
    {
      "x": 199,
      "y": 152,
      "size": 1,
      "price": "1011000000000000000000",
      "reserved": "",
      "salt": "0xb8eac36b81d1f4f74a89738261236efa8a88af11bff659f833cdcd48acda7308",
      "assetIds": []
    },
    {
      "x": 199,
      "y": 153,
      "size": 1,
      "price": "1011000000000000000000",
      "reserved": "",
      "salt": "0x86988e54f3309ea008f20b0c1c5a1ee5bd83ef8709c53ca47b5a2e79954621d1",
      "assetIds": []
    },
    {
      "x": 199,
      "y": 154,
      "size": 1,
      "price": "1011000000000000000000",
      "reserved": "",
      "salt": "0xee0f2dbb9b5c61622e72aacb3d2cbdb22f29591df9601f8ef53e960d4724c917",
      "assetIds": []
    },
    {
      "x": 199,
      "y": 155,
      "size": 1,
      "price": "1011000000000000000000",
      "reserved": "",
      "salt": "0x2c888daac57d74c67c8b83ce2b6e58062b68d84bfa67f0cfbfcac43ccabefaa2",
      "assetIds": []
    },
    {
      "x": 200,
      "y": 147,
      "size": 1,
      "price": "1011000000000000000000",
      "reserved": "",
      "salt": "0x7ae371211d6e0ef57f5922b88f772c89a56f355c4aeb4553a434498ddd539c55",
      "assetIds": []
    },
    {
      "x": 200,
      "y": 148,
      "size": 1,
      "price": "1011000000000000000000",
      "reserved": "",
      "salt": "0x53b56e468b4dae6042155a8cb554a5cfd83c71dc040cd3884f7a63dbaebd909c",
      "assetIds": []
    },
    {
      "x": 200,
      "y": 149,
      "size": 1,
      "price": "1011000000000000000000",
      "reserved": "",
      "salt": "0x570a2addafb028a5b314916186464ff2b569a17eb38af66b4420a459044d2ac1",
      "assetIds": []
    },
    {
      "x": 200,
      "y": 150,
      "size": 1,
      "price": "1011000000000000000000",
      "reserved": "",
      "salt": "0xdb80f3931ae539ca23266ede79cce190e61ab53cec97e8c2a1bd25ce9a7d48df",
      "assetIds": []
    },
    {
      "x": 200,
      "y": 151,
      "size": 1,
      "price": "1011000000000000000000",
      "reserved": "",
      "salt": "0x4c09896e43c71a211978f3045aff8b872c50cfff36ad9f810af48c2dc18ec4f2",
      "assetIds": []
    },
    {
      "x": 200,
      "y": 152,
      "size": 1,
      "price": "1011000000000000000000",
      "reserved": "",
      "salt": "0xb59c47b71c254b85895c19b9d6a45ae7de002f7cd488f2142f4425d5743d5621",
      "assetIds": []
    },
    {
      "x": 200,
      "y": 153,
      "size": 1,
      "price": "1011000000000000000000",
      "reserved": "",
      "salt": "0xb63b441ac392d7284a4ac5f6b6951ec91e69aed7b994d891b28bc928cd28e5f6",
      "assetIds": []
    },
    {
      "x": 200,
      "y": 154,
      "size": 1,
      "price": "1011000000000000000000",
      "reserved": "",
      "salt": "0x0c0b5f7b70323da0e02c97655e590f49cb237ec46d3ce97fac33d651afe3779a",
      "assetIds": []
    },
    {
      "x": 200,
      "y": 155,
      "size": 1,
      "price": "1011000000000000000000",
      "reserved": "",
      "salt": "0x31381723ea74ad0a2b9afd156525d57541a7c6bff8ca248beec7d2c3f6523d07",
      "assetIds": []
    },
    {
      "x": 204,
      "y": 138,
      "size": 1,
      "price": "1011000000000000000000",
      "reserved": "",
      "salt": "0x3eb16cf3f5df3be77c71cbf3f29f002e5e7ac1608af606eeb98802329629ffee",
      "assetIds": []
    },
    {
      "x": 204,
      "y": 139,
      "size": 1,
      "price": "1011000000000000000000",
      "reserved": "0x7a9fe22691c811ea339d9b73150e6911a5343dca",
      "salt": "0xff093ff619585f3b65bd891ef58adbc8d2776b4e517cfa03961d66ceeb22d2fa",
      "assetIds": []
    },
    {
      "x": 204,
      "y": 140,
      "size": 1,
      "price": "4683000000000000000000",
      "reserved": "",
      "salt": "0x5aab09e8a9906ddc4a9791d71cddc7a46a657e9357e41341db7b118df2f1355c",
      "assetIds": []
    },
    {
      "x": 205,
      "y": 138,
      "size": 1,
      "price": "1011000000000000000000",
      "reserved": "",
      "salt": "0xe4d5101fbfb1d83d723e4261a560b026507b2a10d1a1b190db82f3af9758dd75",
      "assetIds": []
    },
    {
      "x": 205,
      "y": 139,
      "size": 1,
      "price": "1011000000000000000000",
      "reserved": "0x7a9fe22691c811ea339d9b73150e6911a5343dca",
      "salt": "0xf2f678bf1ef1b4d1618cdc4167d8204f4638fe665ae2ac9b8623eac025485c49",
      "assetIds": []
    },
    {
      "x": 205,
      "y": 140,
      "size": 1,
      "price": "1011000000000000000000",
      "reserved": "",
      "salt": "0x7a17b5e2a8960527fe17277007b374f44ae9f6f0e04a64a4c66d5e7c2c0ba3cf",
      "assetIds": []
    },
    {
      "x": 206,
      "y": 138,
      "size": 1,
      "price": "1011000000000000000000",
      "reserved": "",
      "salt": "0x47a5c47811e25c2b1ec7b88dc7230acfe3503eac48c98c902f6399f494a0f057",
      "assetIds": []
    },
    {
      "x": 206,
      "y": 139,
      "size": 1,
      "price": "1011000000000000000000",
      "reserved": "",
      "salt": "0x1d2c30447d7a2592897b11b94de748c4b0f0cfe7af6494d0d4aeeaef4f2769e9",
      "assetIds": []
    },
    {
      "x": 206,
      "y": 140,
      "size": 1,
      "price": "1011000000000000000000",
      "reserved": "",
      "salt": "0x5175a9011b9139af1c7812973023862c43b625da09630c35d38b2eae7aa7c01b",
      "assetIds": []
    },
    {
      "x": 177,
      "y": 141,
      "size": 3,
      "price": "8648000000000000000000",
      "reserved": "0x7a9fe22691c811ea339d9b73150e6911a5343dca",
      "salt": "0x4cbdd4fec663f0e389112707acde2342d8504a70bcb014e8f1f8c0e4d6d0a6f3",
      "assetIds": []
    },
    {
      "x": 177,
      "y": 156,
      "size": 3,
      "price": "8648000000000000000000",
      "reserved": "0x7a9fe22691c811ea339d9b73150e6911a5343dca",
      "salt": "0x76b7dd7c5ad6c307dd6cc28202c15414be2da8e29956a8785084f25f14ebe4a7",
      "assetIds": []
    },
    {
      "x": 180,
      "y": 156,
      "size": 3,
      "price": "8648000000000000000000",
      "reserved": "0x7a9fe22691c811ea339d9b73150e6911a5343dca",
      "salt": "0xbd635a3d1d737137cdda1c3a3843bc148fb593bb03a64a4f566f1773dd72e2ae",
      "assetIds": []
    },
    {
      "x": 180,
      "y": 159,
      "size": 3,
      "price": "8648000000000000000000",
      "reserved": "0x7a9fe22691c811ea339d9b73150e6911a5343dca",
      "salt": "0xfd24dcafae8b0c8464a73db380ef1ef4523ebc39eeeb2899c7a3fa12cbc48435",
      "assetIds": []
    },
    {
      "x": 183,
      "y": 141,
      "size": 3,
      "price": "8648000000000000000000",
      "reserved": "0x7a9fe22691c811ea339d9b73150e6911a5343dca",
      "salt": "0xedce061267aacf2677c7649032d2685e04fbe8c25d028334cc5c1840f5d51d56",
      "assetIds": []
    },
    {
      "x": 183,
      "y": 153,
      "size": 3,
      "price": "8648000000000000000000",
      "reserved": "0x7a9fe22691c811ea339d9b73150e6911a5343dca",
      "salt": "0x209fb1c8edfeeea329df338d56a1eff758f0af067f39235eee8f587d2e684b6c",
      "assetIds": []
    },
    {
      "x": 186,
      "y": 144,
      "size": 3,
      "price": "8648000000000000000000",
      "reserved": "0x7a9fe22691c811ea339d9b73150e6911a5343dca",
      "salt": "0xba01bc9cbd6740ad925405f967baccf4a87cf27eefcef908a3fd42d0fdd41596",
      "assetIds": []
    },
    {
      "x": 189,
      "y": 141,
      "size": 3,
      "price": "8648000000000000000000",
      "reserved": "0x7a9fe22691c811ea339d9b73150e6911a5343dca",
      "salt": "0xe4998537a53a66bceb32c213396fd4de51de61e39c778223660ad17e0ababec0",
      "assetIds": []
    },
    {
      "x": 192,
      "y": 150,
      "size": 3,
      "price": "8648000000000000000000",
      "reserved": "0x7a9fe22691c811ea339d9b73150e6911a5343dca",
      "salt": "0xd2ed3a57d0c7770f1d5f8be589e3af763bd37097729bfc71054f3bee8d0cfae9",
      "assetIds": []
    },
    {
      "x": 192,
      "y": 159,
      "size": 3,
      "price": "8648000000000000000000",
      "reserved": "0x7a9fe22691c811ea339d9b73150e6911a5343dca",
      "salt": "0xad0d888858b1ab7b5e5a0445e7682c3ac2021d1abb2f12f7883b219ef283fbfb",
      "assetIds": []
    },
    {
      "x": 195,
      "y": 153,
      "size": 3,
      "price": "8648000000000000000000",
      "reserved": "0x7a9fe22691c811ea339d9b73150e6911a5343dca",
      "salt": "0xe33843d49b327c29097e26b8cdf53a73748b6b54aafc49783b5a94cec5309a87",
      "assetIds": []
    },
    {
      "x": 198,
      "y": 144,
      "size": 3,
      "price": "8648000000000000000000",
      "reserved": "0x7a9fe22691c811ea339d9b73150e6911a5343dca",
      "salt": "0xa8b723cc030f809831b4a9774c4ebecf3a6d8203178ddbeef19ca48063b8982b",
      "assetIds": []
    },
    {
      "x": 204,
      "y": 141,
      "size": 3,
      "price": "8648000000000000000000",
      "reserved": "0x7a9fe22691c811ea339d9b73150e6911a5343dca",
      "salt": "0x5c402f77982a519cbda4735dec3e1f6ff59c608850e66c04a3792baa6558eb03",
      "assetIds": []
    },
    {
      "x": 207,
      "y": 138,
      "size": 3,
      "price": "8648000000000000000000",
      "reserved": "0x7a9fe22691c811ea339d9b73150e6911a5343dca",
      "salt": "0x7ab835b042f3001df0ea5017e3c78e637698a3e2813c0ff55b8f0ec778a2cf76",
      "assetIds": []
    },
    {
      "x": 180,
      "y": 144,
      "size": 6,
      "price": "32772000000000000000000",
      "reserved": "0x7a9fe22691c811ea339d9b73150e6911a5343dca",
      "salt": "0x4f532aa0fc1d9442147cd142bf9019c430d5205c1d494e8fdc9f545227aea162",
      "assetIds": []
    },
    {
      "x": 186,
      "y": 132,
      "size": 6,
      "price": "32772000000000000000000",
      "reserved": "0x7a9fe22691c811ea339d9b73150e6911a5343dca",
      "salt": "0x606337d26975324d874a8c49572ac4e86327ad10e3799b0910d26f9019eeb065",
      "assetIds": []
    },
    {
      "x": 186,
      "y": 150,
      "size": 6,
      "price": "32772000000000000000000",
      "reserved": "0x7a9fe22691c811ea339d9b73150e6911a5343dca",
      "salt": "0xddeea21e69342bbd01893b059252afad9e20ce13b21a46ba7bcb74a16abd1403",
      "assetIds": []
    },
    {
      "x": 186,
      "y": 156,
      "size": 6,
      "price": "32772000000000000000000",
      "reserved": "0x7a9fe22691c811ea339d9b73150e6911a5343dca",
      "salt": "0x38006fd4a6c0b36f7d5c9769e48d83add29aad99e9a2aa9ddf5107ca1d31623a",
      "assetIds": []
    },
    {
      "x": 204,
      "y": 132,
      "size": 6,
      "price": "32772000000000000000000",
      "reserved": "0x7a9fe22691c811ea339d9b73150e6911a5343dca",
      "salt": "0x601167f4eb373a11284c46a993ddd0730fde77be05bffd4657ac1b7c39cd25ea",
      "assetIds": []
    },
    {
      "x": 192,
      "y": 132,
      "size": 12,
      "price": "123806000000000000000000",
      "reserved": "0x7a9fe22691c811ea339d9b73150e6911a5343dca",
      "salt": "0x0d1b785158a79f4ac9a00f10b5816aae0d441ebccfa5e39ada928ec773485440",
      "assetIds": []
    }
  ],
  "solcInputHash": "ec605981be9adfd04d88d4245397bb77",
  "bytecode": "0x6101606040523480156200001257600080fd5b50604051620031e9380380620031e983398181016040526101a08110156200003957600080fd5b508051602082015160408301516060840151608085015160a086015160c087015160e08801516101008901516101208a01516101408b01516101608c0151610180909c015160016000559a9b999a9899979896979596949593949293919290919085856001600160a01b038216620000f8576040805162461bcd60e51b815260206004820152601f60248201527f526566657272616c56616c696461746f723a207a65726f206164647265737300604482015290519081900360640190fd5b600380546001600160a01b0319166001600160a01b0393841617905560045562000130908e1662000459602090811b62002adc17901c565b6200016d5760405162461bcd60e51b8152600401808060200182810382526025815260200180620031c46025913960400191505060405180910390fd5b6200018c8c6001600160a01b03166200045960201b62002adc1760201c565b620001c95760405162461bcd60e51b8152600401808060200182810382526025815260200180620031c46025913960400191505060405180910390fd5b6001600160a01b038b1662000214576040805162461bcd60e51b815260206004820181905260248201526000805160206200317f833981519152604482015290519081900360640190fd5b6001600160a01b038a166200025f576040805162461bcd60e51b815260206004820181905260248201526000805160206200317f833981519152604482015290519081900360640190fd5b6001600160a01b038916620002aa576040805162461bcd60e51b815260206004820181905260248201526000805160206200317f833981519152604482015290519081900360640190fd5b620002c9836001600160a01b03166200045960201b62002adc1760201c565b620003065760405162461bcd60e51b8152600401808060200182810382526025815260200180620031c46025913960400191505060405180910390fd5b6001600160a01b03821662000351576040805162461bcd60e51b815260206004820181905260248201526000805160206200317f833981519152604482015290519081900360640190fd5b62000370816001600160a01b03166200045960201b62002adc1760201c565b620003ad5760405162461bcd60e51b8152600401808060200182810382526025815260200180620031c46025913960400191505060405180910390fd5b6001600160601b031960608e811b821660a0528d901b1660c052620003dd8b60016001600160e01b036200045f16565b600680546001600160a01b039a8b166001600160a01b031991821617909155610140989098526101209690965260018054998916998816999099179098556001600160601b0319606092831b811660e05290821b811660805296901b909516610100525060078054919093169116179055506200050a92505050565b3b151590565b6001600160a01b038216620004a65760405162461bcd60e51b81526004018080602001828103825260258152602001806200319f6025913960400191505060405180910390fd5b6001600160a01b038216600081815260026020908152604091829020805460ff191685151590811790915582519384529083015280517fb21eb88b4e33b3f1281830a7178d74d8aa73220416215726b68ae23d539515cb9281900390910190a15050565b60805160601c60a05160601c60c05160601c60e05160601c6101005160601c6101205161014051612bef6200059060003980610be0528061247e525080610bbc528061159d5250806124fc525080611af25280611c4f525080611aa85280611e4e52806124d9525080611b235280611c205250806111075280611f3a5250612bef6000f3fe608060405234801561001057600080fd5b50600436106101365760003560e01c8063984d6252116100b2578063c10a420811610081578063dc5074af11610066578063dc5074af146108a0578063e56f8a9e146108c6578063f23a6e61146108e357610136565b8063c10a4208146107c1578063caed35001461089857610136565b8063984d62521461055f578063ab1cc78c14610631578063b522ecff14610639578063bc197c811461065f57610136565b806365194ce71161010957806378e6e5b9116100ee57806378e6e5b9146104e55780638a04af6a1461050b5780638f2839701461053957610136565b806365194ce7146103635780636e9960c3146104c157610136565b80631187fd3c1461013b57806325cb5bc01461031b578063495906571461033557806358bc29441461033d575b600080fd5b610319600480360361012081101561015257600080fd5b6001600160a01b038235811692602081013582169260408201359092169181019060808101606082013564010000000081111561018e57600080fd5b8201836020820111156101a057600080fd5b803590602001918460208302840111640100000000831117156101c257600080fd5b919390928235926040810190602001356401000000008111156101e457600080fd5b8201836020820111156101f657600080fd5b8035906020019184602083028401116401000000008311171561021857600080fd5b91939092909160208101903564010000000081111561023657600080fd5b82018360208201111561024857600080fd5b8035906020019184602083028401116401000000008311171561026a57600080fd5b91939092909160208101903564010000000081111561028857600080fd5b82018360208201111561029a57600080fd5b803590602001918460018302840111640100000000831117156102bc57600080fd5b9193909290916020810190356401000000008111156102da57600080fd5b8201836020820111156102ec57600080fd5b8035906020019184600183028401116401000000008311171561030e57600080fd5b509092509050610978565b005b610323610bba565b60408051918252519081900360200190f35b610323610bde565b6103196004803603602081101561035357600080fd5b50356001600160a01b0316610c02565b6104096004803603602081101561037957600080fd5b81019060208101813564010000000081111561039457600080fd5b8201836020820111156103a657600080fd5b803590602001918460018302840111640100000000831117156103c857600080fd5b91908080601f016020809104026020016040519081016040528093929190818152602001838380828437600092019190915250929550610d2e945050505050565b6040518080602001866001600160a01b03166001600160a01b03168152602001856001600160a01b03166001600160a01b03168152602001848152602001838152602001828103825287818151815260200191508051906020019080838360005b8381101561048257818101518382015260200161046a565b50505050905090810190601f1680156104af5780820380516001836020036101000a031916815260200191505b50965050505050505060405180910390f35b6104c9610e33565b604080516001600160a01b039092168252519081900360200190f35b610319600480360360208110156104fb57600080fd5b50356001600160a01b0316610e42565b6103196004803603604081101561052157600080fd5b506001600160a01b0381351690602001351515610f00565b6103196004803603602081101561054f57600080fd5b50356001600160a01b0316610f6d565b6103196004803603606081101561057557600080fd5b6001600160a01b0382351691908101906040810160208201356401000000008111156105a057600080fd5b8201836020820111156105b257600080fd5b803590602001918460208302840111640100000000831117156105d457600080fd5b9193909290916020810190356401000000008111156105f257600080fd5b82018360208201111561060457600080fd5b8035906020019184602083028401116401000000008311171561062657600080fd5b5090925090506110a6565b610323611231565b6103196004803603602081101561064f57600080fd5b50356001600160a01b0316611237565b61078c600480360360a081101561067557600080fd5b6001600160a01b0382358116926020810135909116918101906060810160408201356401000000008111156106a957600080fd5b8201836020820111156106bb57600080fd5b803590602001918460208302840111640100000000831117156106dd57600080fd5b9193909290916020810190356401000000008111156106fb57600080fd5b82018360208201111561070d57600080fd5b8035906020019184602083028401116401000000008311171561072f57600080fd5b91939092909160208101903564010000000081111561074d57600080fd5b82018360208201111561075f57600080fd5b8035906020019184600183028401116401000000008311171561078157600080fd5b509092509050611348565b604080517fffffffff000000000000000000000000000000000000000000000000000000009092168252519081900360200190f35b610884600480360360a08110156107d757600080fd5b8101906020810181356401000000008111156107f257600080fd5b82018360208201111561080457600080fd5b8035906020019184600183028401116401000000008311171561082657600080fd5b91908080601f016020809104026020016040519081016040528093929190818152602001838380828437600092019190915250929550506001600160a01b038335811694506020840135169260408101359250606001359050611375565b604080519115158252519081900360200190f35b6104c96114b1565b610884600480360360208110156108b657600080fd5b50356001600160a01b03166114c0565b610319600480360360208110156108dc57600080fd5b50356114de565b61078c600480360360a08110156108f957600080fd5b6001600160a01b03823581169260208101359091169160408201359160608101359181019060a08101608082013564010000000081111561093957600080fd5b82018360208201111561094b57600080fd5b8035906020019184600183028401116401000000008311171561096d57600080fd5b509092509050611570565b600260005414156109d0576040805162461bcd60e51b815260206004820152601f60248201527f5265656e7472616e637947756172643a207265656e7472616e742063616c6c00604482015290519081900360640190fd5b60026000556109df8e8d61159b565b610ad68d8d8d8d80806020026020016040519081016040528093929190818152602001838360200280828437600081840152601f19601f820116905080830192505050505050508c8c8c80806020026020016040519081016040528093929190818152602001838360200280828437600081840152601f19601f820116905080830192505050505050508b8b8080602002602001604051908101604052809392919081815260200183836020028082843760009201919091525050604080516020601f8d018190048102820181019092528b815292508b91508a90819084018382808284376000920191909152506116fe92505050565b610b2a8e8c8c6003818110610ae757fe5b9050602002013586868080601f016020809104026020016040519081016040528093929190818152602001838380828437600092019190915250611a8192505050565b610b688e8e8d8d80806020026020016040519081016040528093929190818152602001838360200280828437600092019190915250611ad292505050565b610ba58d898980806020026020016040519081016040528093929190818152602001838360200280828437600092019190915250611ec392505050565b50506001600055505050505050505050505050565b7f000000000000000000000000000000000000000000000000000000000000000090565b7f000000000000000000000000000000000000000000000000000000000000000090565b6001546001600160a01b03163314610c61576040805162461bcd60e51b815260206004820152601260248201527f6f6e6c792061646d696e20616c6c6f7765640000000000000000000000000000604482015290519081900360640190fd5b6001600160a01b038116610cbc576040805162461bcd60e51b815260206004820152601f60248201527f526566657272616c56616c696461746f723a207a65726f206164647265737300604482015290519081900360640190fd5b600380546001600160a01b03908116600090815260056020526040808220620d2f0042019055835473ffffffffffffffffffffffffffffffffffffffff1916928516928317909355915190917fbbb5fb2ee7e707ae0c968f63e94211ea81e66a718c34e2f810a7619e5678a21791a250565b606060008060008060606000806000808a80602001905160a0811015610d5357600080fd5b8101908080516040519392919084640100000000821115610d7357600080fd5b908301906020820185811115610d8857600080fd5b8251640100000000811182820188101715610da257600080fd5b82525081516020918201929091019080838360005b83811015610dcf578181015183820152602001610db7565b50505050905090810190601f168015610dfc5780820380516001836020036101000a031916815260200191505b5060409081526020820151908201516060830151608090930151959f50909d509b5099509197505050505050505091939590929450565b6001546001600160a01b031690565b6001546001600160a01b03163314610e8b5760405162461bcd60e51b8152600401808060200182810382526023815260200180612b056023913960400191505060405180910390fd5b6001600160a01b038116610ee6576040805162461bcd60e51b815260206004820152601f60248201527f526566657272616c56616c696461746f723a207a65726f206164647265737300604482015290519081900360640190fd5b6001600160a01b0316600090815260056020526040812055565b6001546001600160a01b03163314610f5f576040805162461bcd60e51b815260206004820152601260248201527f6f6e6c792061646d696e20616c6c6f7765640000000000000000000000000000604482015290519081900360640190fd5b610f698282612087565b5050565b6001546001600160a01b03163314610fcc576040805162461bcd60e51b815260206004820152601b60248201527f6f6e6c792061646d696e2063616e206368616e67652061646d696e0000000000604482015290519081900360640190fd5b6001546001600160a01b038281169116141561102f576040805162461bcd60e51b815260206004820152600d60248201527f616c72656164792061646d696e00000000000000000000000000000000000000604482015290519081900360640190fd5b600154604080516001600160a01b039283168152918316602083015280517f7e644d79422f17c01e4894b5f4f588d331ebfa28653d42ae832dc59e38c9798f9281900390910190a16001805473ffffffffffffffffffffffffffffffffffffffff19166001600160a01b0392909216919091179055565b6001546001600160a01b03163314611105576040805162461bcd60e51b815260206004820152600e60248201527f4e4f545f415554484f52495a4544000000000000000000000000000000000000604482015290519081900360640190fd5b7f00000000000000000000000000000000000000000000000000000000000000006001600160a01b0316632eb2c2d63087878787876040518763ffffffff1660e01b815260040180876001600160a01b03166001600160a01b03168152602001866001600160a01b03166001600160a01b031681526020018060200180602001806020018481038452888882818152602001925060200280828437600083820152601f01601f19169091018581038452868152602090810191508790870280828437600081840152601f19601f8201169050808301925050508481038252600081526020016020019950505050505050505050600060405180830381600087803b15801561121257600080fd5b505af1158015611226573d6000803e3d6000fd5b505050505050505050565b60045490565b6001600160a01b038116611292576040805162461bcd60e51b815260206004820152600c60248201527f5a45524f5f414444524553530000000000000000000000000000000000000000604482015290519081900360640190fd5b6001546001600160a01b031633146112f1576040805162461bcd60e51b815260206004820152600e60248201527f4e4f545f415554484f52495a4544000000000000000000000000000000000000604482015290519081900360640190fd5b6006805473ffffffffffffffffffffffffffffffffffffffff19166001600160a01b0383169081179091556040517f4d66958b757eb92a1b43d02be4c38c9500b73f532420ee3706cb43d420ba023690600090a250565b7fbc197c810000000000000000000000000000000000000000000000000000000098975050505050505050565b60006004548211806113985750836001600160a01b0316856001600160a01b0316145b806113a257508242115b156113af575060006114a8565b60408051606087811b7fffffffffffffffffffffffffffffffffffffffff0000000000000000000000009081166020808501919091529188901b166034830152604882018690526068808301869052835180840390910181526088830184528051908201207f19457468657265756d205369676e6564204d6573736167653a0a33320000000060a884015260c48084018290528451808503909101815260e49093019093528151910120600090611466908961214e565b6001600160a01b0381166000908152600560205260409020549091504211611493576001925050506114a8565b6003546001600160a01b039081169116149150505b95945050505050565b6003546001600160a01b031690565b6001600160a01b031660009081526002602052604090205460ff1690565b6001546001600160a01b0316331461153d576040805162461bcd60e51b815260206004820152601260248201527f6f6e6c792061646d696e20616c6c6f7765640000000000000000000000000000604482015290519081900360640190fd5b600481905560405181907f774069781371d65424b3b0b101c1d40014532cac040f979595b99a3fcf8ce08c90600090a250565b7ff23a6e61000000000000000000000000000000000000000000000000000000009695505050505050565b7f0000000000000000000000000000000000000000000000000000000000000000421061160f576040805162461bcd60e51b815260206004820152600c60248201527f53414c455f49535f4f5645520000000000000000000000000000000000000000604482015290519081900360640190fd5b6001600160a01b03821633148061163557503360009081526002602052604090205460ff165b611686576040805162461bcd60e51b815260206004820152600e60248201527f4e4f545f415554484f52495a4544000000000000000000000000000000000000604482015290519081900360640190fd5b6001600160a01b03811615806116ad5750816001600160a01b0316816001600160a01b0316145b610f69576040805162461bcd60e51b815260206004820152600d60248201527f52455345525645445f4c414e4400000000000000000000000000000000000000604482015290519081900360640190fd5b600087878760008151811061170f57fe5b60200260200101518860018151811061172457fe5b60200260200101518960028151811061173957fe5b60200260200101518a60038151811061174e57fe5b60200260200101518a8a60405160200180828051906020019060200280838360005b83811015611788578181015183820152602001611770565b50505050905001915050604051602081830303815290604052805190602001208a60405160200180828051906020019060200280838360005b838110156117d95781810151838201526020016117c1565b5050505090500191505060405160208183030381529060405280519060200120604051602001808a6001600160a01b03166001600160a01b031660601b8152601401896001600160a01b03166001600160a01b031660601b81526014018881526020018781526020018681526020018581526020018481526020018381526020018281526020019950505050505050505050604051602081830303815290604052805190602001209050600760009054906101000a90046001600160a01b03166001600160a01b031663012847ed83836040518363ffffffff1660e01b81526004018080602001838152602001828103825284818151815260200191508051906020019080838360005b838110156118fb5781810151838201526020016118e3565b50505050905090810190601f1680156119285780820380516001836020036101000a031916815260200191505b50935050505060206040518083038186803b15801561194657600080fd5b505afa15801561195a573d6000803e3d6000fd5b505050506040513d602081101561197057600080fd5b50516119c3576040805162461bcd60e51b815260206004820152600c60248201527f494e56414c49445f415554480000000000000000000000000000000000000000604482015290519081900360640190fd5b6000611a24876000815181106119d557fe5b6020026020010151886001815181106119ea57fe5b6020026020010151896002815181106119ff57fe5b60200260200101518a600381518110611a1457fe5b60200260200101518c8b8b612337565b9050611a3084826123dc565b611226576040805162461bcd60e51b815260206004820152600c60248201527f494e56414c49445f4c414e440000000000000000000000000000000000000000604482015290519081900360640190fd5b6000611a8d84846124a5565b600654909150611acc908590839085906001600160a01b03167f000000000000000000000000000000000000000000000000000000000000000061253f565b50505050565b80600281518110611adf57fe5b602002602001015160011480611b1c57507f00000000000000000000000000000000000000000000000000000000000000006001600160a01b0316155b15611c1e577f00000000000000000000000000000000000000000000000000000000000000006001600160a01b0316636e1e3bbf8383600281518110611b5e57fe5b602002602001015184600081518110611b7357fe5b602002602001015185600181518110611b8857fe5b60200260200101516040518563ffffffff1660e01b815260040180856001600160a01b03166001600160a01b031681526020018481526020018381526020018281526020018060200182810382526000815260200160200195505050505050600060405180830381600087803b158015611c0157600080fd5b505af1158015611c15573d6000803e3d6000fd5b50505050611dbe565b7f00000000000000000000000000000000000000000000000000000000000000006001600160a01b0316636e1e3bbf7f000000000000000000000000000000000000000000000000000000000000000083600281518110611c7b57fe5b602002602001015184600081518110611c9057fe5b602002602001015185600181518110611ca557fe5b60200260200101518760405160200180826001600160a01b03166001600160a01b031681526020019150506040516020818303038152906040526040518663ffffffff1660e01b815260040180866001600160a01b03166001600160a01b0316815260200185815260200184815260200183815260200180602001828103825283818151815260200191508051906020019080838360005b83811015611d55578181015183820152602001611d3d565b50505050905090810190601f168015611d825780820380516001836020036101000a031916815260200191505b509650505050505050600060405180830381600087803b158015611da557600080fd5b505af1158015611db9573d6000803e3d6000fd5b505050505b61019881600181518110611dce57fe5b60200260200101510281600081518110611de457fe5b602002602001015101826001600160a01b0316846001600160a01b03167fe4dfa6ac11314892f3029b34a25b1a887da3b1cab2bbf8506d87128ba6e3ac0284600281518110611e2f57fe5b602002602001015185600381518110611e4457fe5b60200260200101517f000000000000000000000000000000000000000000000000000000000000000087600381518110611e7a57fe5b602002602001015160405180858152602001848152602001836001600160a01b03166001600160a01b0316815260200182815260200194505050505060405180910390a4505050565b6060815167ffffffffffffffff81118015611edd57600080fd5b50604051908082528060200260200182016040528015611f07578160200160208202803683370190505b50905060005b8251811015611f37576001828281518110611f2457fe5b6020908102919091010152600101611f0d565b507f00000000000000000000000000000000000000000000000000000000000000006001600160a01b0316632eb2c2d6308585856040518563ffffffff1660e01b815260040180856001600160a01b03166001600160a01b03168152602001846001600160a01b03166001600160a01b03168152602001806020018060200180602001848103845286818151815260200191508051906020019060200280838360005b83811015611ff2578181015183820152602001611fda565b50505050905001848103835285818151815260200191508051906020019060200280838360005b83811015612031578181015183820152602001612019565b50505050905001848103825260008152602001602001975050505050505050600060405180830381600087803b15801561206a57600080fd5b505af115801561207e573d6000803e3d6000fd5b50505050505050565b6001600160a01b0382166120cc5760405162461bcd60e51b8152600401808060200182810382526025815260200180612b6b6025913960400191505060405180910390fd5b6001600160a01b03821660008181526002602090815260409182902080547fffffffffffffffffffffffffffffffffffffffffffffffffffffffffffffff001685151590811790915582519384529083015280517fb21eb88b4e33b3f1281830a7178d74d8aa73220416215726b68ae23d539515cb9281900390910190a15050565b600081516041146121a6576040805162461bcd60e51b815260206004820152601f60248201527f45434453413a20696e76616c6964207369676e6174757265206c656e67746800604482015290519081900360640190fd5b60208201516040830151606084015160001a7f7fffffffffffffffffffffffffffffff5d576e7357a4501ddfe92f46681b20a08211156122175760405162461bcd60e51b8152600401808060200182810382526022815260200180612ae36022913960400191505060405180910390fd5b8060ff16601b1415801561222f57508060ff16601c14155b1561226b5760405162461bcd60e51b8152600401808060200182810382526022815260200180612b286022913960400191505060405180910390fd5b60408051600080825260208083018085528a905260ff85168385015260608301879052608083018690529251909260019260a080820193601f1981019281900390910190855afa1580156122c3573d6000803e3d6000fd5b5050604051601f1901519150506001600160a01b03811661232b576040805162461bcd60e51b815260206004820152601860248201527f45434453413a20696e76616c6964207369676e61747572650000000000000000604482015290519081900360640190fd5b93505050505b92915050565b60008787878787878760405160200180888152602001878152602001868152602001858152602001846001600160a01b03166001600160a01b031660601b8152601401838152602001828051906020019060200280838360005b838110156123a9578181015183820152602001612391565b50505050905001975050505050505050604051602081830303815290604052805190602001209050979650505050505050565b600081815b845181101561247b5760008582815181106123f857fe5b60200260200101519050808310156124405782816040516020018083815260200182815260200192505050604051602081830303815290604052805190602001209250612472565b808360405160200180838152602001828152602001925050506040516020818303038152906040528051906020012092505b506001016123e1565b507f0000000000000000000000000000000000000000000000000000000000000000149392505050565b6000806124ca60646124be85600563ffffffff61264716565b9063ffffffff6126a716565b90506125276001600160a01b037f000000000000000000000000000000000000000000000000000000000000000016857f00000000000000000000000000000000000000000000000000000000000000008463ffffffff6126e916565b612537838263ffffffff61277116565b949350505050565b8251819085901561262c57606060008060008061255b8a610d2e565b93985091965094509250905060006125768686868686611375565b15612604576125906125888d84612647565b6127106126a7565b9050886001600160a01b0316846001600160a01b0316866001600160a01b03167fac7a699eb95c3c6d390ec4626de17ef9a67b35891efdb197beba7c7fdd45fac48f858760405180848152602001838152602001828152602001935050505060405180910390a46126018782612771565b96505b8015612625576126256001600160a01b0389168e878463ffffffff6126e916565b5050505050505b61207e6001600160a01b03831688868463ffffffff6126e916565b60008261265657506000612331565b8282028284828161266357fe5b04146126a05760405162461bcd60e51b8152600401808060200182810382526021815260200180612b4a6021913960400191505060405180910390fd5b9392505050565b60006126a083836040518060400160405280601a81526020017f536166654d6174683a206469766973696f6e206279207a65726f0000000000008152506127b3565b604080516001600160a01b0380861660248301528416604482015260648082018490528251808303909101815260849091019091526020810180517bffffffffffffffffffffffffffffffffffffffffffffffffffffffff167f23b872dd00000000000000000000000000000000000000000000000000000000179052611acc908590612855565b60006126a083836040518060400160405280601e81526020017f536166654d6174683a207375627472616374696f6e206f766572666c6f77000081525061290b565b6000818361283f5760405162461bcd60e51b81526004018080602001828103825283818151815260200191508051906020019080838360005b838110156128045781810151838201526020016127ec565b50505050905090810190601f1680156128315780820380516001836020036101000a031916815260200191505b509250505060405180910390fd5b50600083858161284b57fe5b0495945050505050565b60606128aa826040518060400160405280602081526020017f5361666545524332303a206c6f772d6c6576656c2063616c6c206661696c6564815250856001600160a01b03166129659092919063ffffffff16565b805190915015612906578080602001905160208110156128c957600080fd5b50516129065760405162461bcd60e51b815260040180806020018281038252602a815260200180612b90602a913960400191505060405180910390fd5b505050565b6000818484111561295d5760405162461bcd60e51b81526020600482018181528351602484015283519092839260449091019190850190808383600083156128045781810151838201526020016127ec565b505050900390565b60606125378484600085606061297a85612adc565b6129cb576040805162461bcd60e51b815260206004820152601d60248201527f416464726573733a2063616c6c20746f206e6f6e2d636f6e7472616374000000604482015290519081900360640190fd5b60006060866001600160a01b031685876040518082805190602001908083835b60208310612a0a5780518252601f1990920191602091820191016129eb565b6001836020036101000a03801982511681845116808217855250505050505090500191505060006040518083038185875af1925050503d8060008114612a6c576040519150601f19603f3d011682016040523d82523d6000602084013e612a71565b606091505b50915091508115612a855791506125379050565b805115612a955780518082602001fd5b60405162461bcd60e51b81526020600482018181528651602484015286518793919283926044019190850190808383600083156128045781810151838201526020016127ec565b3b15159056fe45434453413a20696e76616c6964207369676e6174757265202773272076616c7565526566657272616c56616c696461746f723a2053656e646572206e6f742061646d696e45434453413a20696e76616c6964207369676e6174757265202776272076616c7565536166654d6174683a206d756c7469706c69636174696f6e206f766572666c6f774d6574615472616e73616374696f6e52656365697665723a207a65726f20616464726573735361666545524332303a204552433230206f7065726174696f6e20646964206e6f742073756363656564a264697066735822122077f2d13cbcb85fa08010a53c1e4ef27117b031e8c1c9273d55cef362af299f3164736f6c6343000605003345737461746553616c6557697468417574683a207a65726f20616464726573734d6574615472616e73616374696f6e52656365697665723a207a65726f206164647265737345737461746553616c6557697468417574683a206973206e6f74206120636f6e7472616374",
  "devdoc": {
    "methods": {
      "buyLandWithSand(address,address,address,uint256[],bytes32,uint256[],bytes32[],bytes,bytes)": {
        "params": {
          "assetIds": "asset ids (lands) that will be bought",
          "buyer": "address that perform the payment",
          "info": "[X_INDEX=0] x coordinate of the Land [Y_INDEX=1] y coordinate of the Land [SIZE_INDEX=2] size of the pack of Land to purchase [PRICE_INDEX=3] price in SAND to purchase that Land",
          "proof": "merkleProof for that particular Land",
          "referral": "referral id",
          "reserved": "the reserved address (if any)",
          "salt": "The salt submitted for verification.",
          "signature": "A signed message specifying tx details",
          "to": "address that will own the purchased Land"
        }
      },
      "changeAdmin(address)": {
        "details": "change the administrator to be `newAdmin`.",
        "params": {
          "newAdmin": "address of the new administrator."
        }
      },
      "disablePreviousSigningWallet(address)": {
        "details": "Disable compromised signing wallet",
        "params": {
          "disableWallet": "The wallet address to be disabled"
        }
      },
      "getAdmin()": {
        "details": "gives the current administrator of this contract.",
        "returns": {
          "_0": "the current administrator of this contract."
        }
      },
      "getSigningWallet()": {
        "details": "signing wallet authorized for referral",
        "returns": {
          "_0": "the address of the signing wallet"
        }
      },
      "isMetaTransactionProcessor(address)": {
        "details": "check whether address `who` is given meta-transaction execution rights.",
        "params": {
          "who": "The address to query."
        },
        "returns": {
          "_0": "whether the address has meta-transaction execution rights."
        }
      },
      "isReferralValid(bytes,address,address,uint256,uint256)": {
        "params": {
          "commissionRate": "The commissionRate of the referral",
          "expiryTime": "The expiry time of the referral",
          "referee": "The address of the referee",
          "referrer": "The address of the referrer",
          "signature": "The signature to check (signed referral)"
        },
        "returns": {
          "_0": "True if the referral is valid"
        }
      },
      "setMetaTransactionProcessor(address,bool)": {
        "details": "Enable or disable the ability of `metaTransactionProcessor` to perform meta-tx (metaTransactionProcessor rights).",
        "params": {
          "enabled": "set whether the metaTransactionProcessor is enabled or disabled.",
          "metaTransactionProcessor": "address that will be given/removed metaTransactionProcessor rights."
        }
      },
      "setReceivingWallet(address)": {
        "params": {
          "newWallet": "address of the new receiving wallet"
        }
      },
      "updateMaxCommissionRate(uint256)": {
        "details": "Update the maximum commission rate",
        "params": {
          "newMaxCommissionRate": "The new maximum commission rate"
        }
      },
      "updateSigningWallet(address)": {
        "details": "Update the signing wallet The previous wallet is still valid for a grace period (_previousSigningDelay). If you want to disable the previous wallet, use the disablePreviousSigningWallet function.",
        "params": {
          "newSigningWallet": "The new address of the signing wallet"
        }
      },
      "withdrawAssets(address,uint256[],uint256[])": {
        "params": {
          "assetIds": "the assetIds to be transferred",
          "to": "intended recipient of the asset tokens",
          "values": "the quantities of the assetIds to be transferred"
        }
      }
    },
    "title": "Estate Sale contract with referral"
  },
  "userdoc": {
    "methods": {
      "buyLandWithSand(address,address,address,uint256[],bytes32,uint256[],bytes32[],bytes,bytes)": {
        "notice": "buy Land with SAND using the merkle proof associated with it"
      },
      "getExpiryTime()": {
        "notice": "Gets the expiry time for the current sale"
      },
      "getMaxCommissionRate()": {
        "notice": "the max commission rate"
      },
      "getMerkleRoot()": {
        "notice": "Gets the Merkle root associated with the current sale"
      },
      "isReferralValid(bytes,address,address,uint256,uint256)": {
        "notice": "Check if a referral is valid"
      },
      "setReceivingWallet(address)": {
        "notice": "set the wallet receiving the proceeds"
      },
      "withdrawAssets(address,uint256[],uint256[])": {
        "notice": "enable Admin to withdraw remaining assets from EstateSaleWithFee contract"
      }
    },
    "notice": "This contract manages the sale of our lands as Estates"
  },
  "storageLayout": {
    "storage": [
      {
        "astId": 1129,
        "contract": "src/solc_0.6/EstateSale/EstateSaleWithAuth.sol:EstateSaleWithAuth",
        "label": "_status",
        "offset": 0,
        "slot": "0",
        "type": "t_uint256"
      },
      {
        "astId": 14099,
        "contract": "src/solc_0.6/EstateSale/EstateSaleWithAuth.sol:EstateSaleWithAuth",
        "label": "_admin",
        "offset": 0,
        "slot": "1",
        "type": "t_address"
      },
      {
        "astId": 14168,
        "contract": "src/solc_0.6/EstateSale/EstateSaleWithAuth.sol:EstateSaleWithAuth",
        "label": "_metaTransactionContracts",
        "offset": 0,
        "slot": "2",
        "type": "t_mapping(t_address,t_bool)"
      },
      {
        "astId": 12200,
        "contract": "src/solc_0.6/EstateSale/EstateSaleWithAuth.sol:EstateSaleWithAuth",
        "label": "_signingWallet",
        "offset": 0,
        "slot": "3",
        "type": "t_address"
      },
      {
        "astId": 12202,
        "contract": "src/solc_0.6/EstateSale/EstateSaleWithAuth.sol:EstateSaleWithAuth",
        "label": "_maxCommissionRate",
        "offset": 0,
        "slot": "4",
        "type": "t_uint256"
      },
      {
        "astId": 12206,
        "contract": "src/solc_0.6/EstateSale/EstateSaleWithAuth.sol:EstateSaleWithAuth",
        "label": "_previousSigningWallets",
        "offset": 0,
        "slot": "5",
        "type": "t_mapping(t_address,t_uint256)"
      },
      {
        "astId": 7750,
        "contract": "src/solc_0.6/EstateSale/EstateSaleWithAuth.sol:EstateSaleWithAuth",
        "label": "_wallet",
        "offset": 0,
        "slot": "6",
        "type": "t_address_payable"
      },
      {
        "astId": 7752,
        "contract": "src/solc_0.6/EstateSale/EstateSaleWithAuth.sol:EstateSaleWithAuth",
        "label": "_authValidator",
        "offset": 0,
        "slot": "7",
        "type": "t_contract(AuthValidator)7063"
      }
    ],
    "types": {
      "t_address": {
        "encoding": "inplace",
        "label": "address",
        "numberOfBytes": "20"
      },
      "t_address_payable": {
        "encoding": "inplace",
        "label": "address payable",
        "numberOfBytes": "20"
      },
      "t_bool": {
        "encoding": "inplace",
        "label": "bool",
        "numberOfBytes": "1"
      },
      "t_contract(AuthValidator)7063": {
        "encoding": "inplace",
        "label": "contract AuthValidator",
        "numberOfBytes": "20"
      },
      "t_mapping(t_address,t_bool)": {
        "encoding": "mapping",
        "key": "t_address",
        "label": "mapping(address => bool)",
        "numberOfBytes": "32",
        "value": "t_bool"
      },
      "t_mapping(t_address,t_uint256)": {
        "encoding": "mapping",
        "key": "t_address",
        "label": "mapping(address => uint256)",
        "numberOfBytes": "32",
        "value": "t_uint256"
      },
      "t_uint256": {
        "encoding": "inplace",
        "label": "uint256",
        "numberOfBytes": "32"
      }
    }
  }
}