{
  "address": "0x773847Dbae0E64a57Fe0632e10252b6C3313c9F1",
  "abi": [
    {
      "anonymous": false,
      "inputs": [
        {
          "indexed": false,
          "internalType": "uint256",
          "name": "x",
          "type": "uint256"
        },
        {
          "indexed": false,
          "internalType": "uint256",
          "name": "y",
          "type": "uint256"
        }
      ],
      "name": "PixelClear",
      "type": "event"
    },
    {
      "anonymous": false,
      "inputs": [
        {
          "indexed": false,
          "internalType": "uint256",
          "name": "x",
          "type": "uint256"
        },
        {
          "indexed": false,
          "internalType": "uint256",
          "name": "y",
          "type": "uint256"
        }
      ],
      "name": "PixelSet",
      "type": "event"
    },
    {
      "anonymous": false,
      "inputs": [
        {
          "indexed": true,
          "internalType": "bytes32",
          "name": "role",
          "type": "bytes32"
        },
        {
          "indexed": true,
          "internalType": "bytes32",
          "name": "previousAdminRole",
          "type": "bytes32"
        },
        {
          "indexed": true,
          "internalType": "bytes32",
          "name": "newAdminRole",
          "type": "bytes32"
        }
      ],
      "name": "RoleAdminChanged",
      "type": "event"
    },
    {
      "anonymous": false,
      "inputs": [
        {
          "indexed": true,
          "internalType": "bytes32",
          "name": "role",
          "type": "bytes32"
        },
        {
          "indexed": true,
          "internalType": "address",
          "name": "account",
          "type": "address"
        },
        {
          "indexed": true,
          "internalType": "address",
          "name": "sender",
          "type": "address"
        }
      ],
      "name": "RoleGranted",
      "type": "event"
    },
    {
      "anonymous": false,
      "inputs": [
        {
          "indexed": true,
          "internalType": "bytes32",
          "name": "role",
          "type": "bytes32"
        },
        {
          "indexed": true,
          "internalType": "address",
          "name": "account",
          "type": "address"
        },
        {
          "indexed": true,
          "internalType": "address",
          "name": "sender",
          "type": "address"
        }
      ],
      "name": "RoleRevoked",
      "type": "event"
    },
    {
      "anonymous": false,
      "inputs": [
        {
          "components": [
            {
              "components": [
                {
                  "internalType": "uint256[3]",
                  "name": "data",
                  "type": "uint256[3]"
                }
              ],
              "internalType": "struct TileLib.Tile",
              "name": "tile",
              "type": "tuple"
            }
          ],
          "indexed": false,
          "internalType": "struct TileWithCoordLib.TileWithCoord[]",
          "name": "",
          "type": "tuple[]"
        }
      ],
      "name": "TileChanged",
      "type": "event"
    },
    {
      "inputs": [],
      "name": "DEFAULT_ADMIN_ROLE",
      "outputs": [
        {
          "internalType": "bytes32",
          "name": "",
          "type": "bytes32"
        }
      ],
      "stateMutability": "view",
      "type": "function"
    },
    {
      "inputs": [],
      "name": "MAP_DESIGNER_ROLE",
      "outputs": [
        {
          "internalType": "bytes32",
          "name": "",
          "type": "bytes32"
        }
      ],
      "stateMutability": "view",
      "type": "function"
    },
    {
      "inputs": [
        {
          "internalType": "address",
          "name": "admin",
          "type": "address"
        }
      ],
      "name": "PremiumLandRegistry_init",
      "outputs": [],
      "stateMutability": "nonpayable",
      "type": "function"
    },
    {
      "inputs": [
        {
          "components": [
            {
              "components": [
                {
                  "internalType": "uint256[3]",
                  "name": "data",
                  "type": "uint256[3]"
                }
              ],
              "internalType": "struct TileLib.Tile",
              "name": "tile",
              "type": "tuple"
            }
          ],
          "internalType": "struct TileWithCoordLib.TileWithCoord[]",
          "name": "tiles",
          "type": "tuple[]"
        }
      ],
      "name": "assign",
      "outputs": [],
      "stateMutability": "nonpayable",
      "type": "function"
    },
    {
      "inputs": [
        {
          "internalType": "uint256",
          "name": "offset",
          "type": "uint256"
        },
        {
          "internalType": "uint256",
          "name": "limit",
          "type": "uint256"
        }
      ],
      "name": "at",
      "outputs": [
        {
          "components": [
            {
              "components": [
                {
                  "internalType": "uint256[3]",
                  "name": "data",
                  "type": "uint256[3]"
                }
              ],
              "internalType": "struct TileLib.Tile",
              "name": "tile",
              "type": "tuple"
            }
          ],
          "internalType": "struct TileWithCoordLib.TileWithCoord[]",
          "name": "",
          "type": "tuple[]"
        }
      ],
      "stateMutability": "view",
      "type": "function"
    },
    {
      "inputs": [
        {
          "internalType": "uint256",
          "name": "index",
          "type": "uint256"
        }
      ],
      "name": "at",
      "outputs": [
        {
          "components": [
            {
              "components": [
                {
                  "internalType": "uint256[3]",
                  "name": "data",
                  "type": "uint256[3]"
                }
              ],
              "internalType": "struct TileLib.Tile",
              "name": "tile",
              "type": "tuple"
            }
          ],
          "internalType": "struct TileWithCoordLib.TileWithCoord",
          "name": "",
          "type": "tuple"
        }
      ],
      "stateMutability": "view",
      "type": "function"
    },
    {
      "inputs": [
        {
          "internalType": "uint256",
          "name": "x",
          "type": "uint256"
        },
        {
          "internalType": "uint256",
          "name": "y",
          "type": "uint256"
        }
      ],
      "name": "clear",
      "outputs": [],
      "stateMutability": "nonpayable",
      "type": "function"
    },
    {
      "inputs": [
        {
          "internalType": "uint256[]",
          "name": "xs",
          "type": "uint256[]"
        },
        {
          "internalType": "uint256[]",
          "name": "ys",
          "type": "uint256[]"
        },
        {
          "internalType": "uint256[]",
          "name": "sizes",
          "type": "uint256[]"
        }
      ],
      "name": "countPremium",
      "outputs": [
        {
          "internalType": "uint256",
          "name": "",
          "type": "uint256"
        }
      ],
      "stateMutability": "view",
      "type": "function"
    },
    {
      "inputs": [
        {
          "internalType": "uint256[]",
          "name": "xs",
          "type": "uint256[]"
        },
        {
          "internalType": "uint256[]",
          "name": "ys",
          "type": "uint256[]"
        }
      ],
      "name": "countPremium",
      "outputs": [
        {
          "internalType": "uint256",
          "name": "",
          "type": "uint256"
        }
      ],
      "stateMutability": "view",
      "type": "function"
    },
    {
      "inputs": [
        {
          "internalType": "uint256",
          "name": "x",
          "type": "uint256"
        },
        {
          "internalType": "uint256",
          "name": "y",
          "type": "uint256"
        },
        {
          "internalType": "uint256",
          "name": "size",
          "type": "uint256"
        }
      ],
      "name": "countPremium",
      "outputs": [
        {
          "internalType": "uint256",
          "name": "",
          "type": "uint256"
        }
      ],
      "stateMutability": "view",
      "type": "function"
    },
    {
      "inputs": [],
      "name": "getLandCount",
      "outputs": [
        {
          "internalType": "uint256",
          "name": "",
          "type": "uint256"
        }
      ],
      "stateMutability": "view",
      "type": "function"
    },
    {
      "inputs": [],
      "name": "getMap",
      "outputs": [
        {
          "components": [
            {
              "components": [
                {
                  "internalType": "uint256[3]",
                  "name": "data",
                  "type": "uint256[3]"
                }
              ],
              "internalType": "struct TileLib.Tile",
              "name": "tile",
              "type": "tuple"
            }
          ],
          "internalType": "struct TileWithCoordLib.TileWithCoord[]",
          "name": "",
          "type": "tuple[]"
        }
      ],
      "stateMutability": "view",
      "type": "function"
    },
    {
      "inputs": [
        {
          "internalType": "bytes32",
          "name": "role",
          "type": "bytes32"
        }
      ],
      "name": "getRoleAdmin",
      "outputs": [
        {
          "internalType": "bytes32",
          "name": "",
          "type": "bytes32"
        }
      ],
      "stateMutability": "view",
      "type": "function"
    },
    {
      "inputs": [
        {
          "internalType": "bytes32",
          "name": "role",
          "type": "bytes32"
        },
        {
          "internalType": "address",
          "name": "account",
          "type": "address"
        }
      ],
      "name": "grantRole",
      "outputs": [],
      "stateMutability": "nonpayable",
      "type": "function"
    },
    {
      "inputs": [
        {
          "internalType": "bytes32",
          "name": "role",
          "type": "bytes32"
        },
        {
          "internalType": "address",
          "name": "account",
          "type": "address"
        }
      ],
      "name": "hasRole",
      "outputs": [
        {
          "internalType": "bool",
          "name": "",
          "type": "bool"
        }
      ],
      "stateMutability": "view",
      "type": "function"
    },
    {
      "inputs": [
        {
          "internalType": "uint256",
          "name": "x",
          "type": "uint256"
        },
        {
          "internalType": "uint256",
          "name": "y",
          "type": "uint256"
        },
        {
          "internalType": "uint256",
          "name": "size",
          "type": "uint256"
        }
      ],
      "name": "isAdjacent",
      "outputs": [
        {
          "internalType": "bool",
          "name": "",
          "type": "bool"
        }
      ],
      "stateMutability": "view",
      "type": "function"
    },
    {
      "inputs": [
        {
          "internalType": "uint256",
          "name": "x",
          "type": "uint256"
        },
        {
          "internalType": "uint256",
          "name": "y",
          "type": "uint256"
        },
        {
          "internalType": "uint256",
          "name": "size",
          "type": "uint256"
        }
      ],
      "name": "isAllPremium",
      "outputs": [
        {
          "internalType": "bool",
          "name": "",
          "type": "bool"
        }
      ],
      "stateMutability": "view",
      "type": "function"
    },
    {
      "inputs": [
        {
          "components": [
            {
              "components": [
                {
                  "internalType": "uint256[3]",
                  "name": "data",
                  "type": "uint256[3]"
                }
              ],
              "internalType": "struct TileLib.Tile",
              "name": "tile",
              "type": "tuple"
            }
          ],
          "internalType": "struct TileWithCoordLib.TileWithCoord",
          "name": "tile",
          "type": "tuple"
        }
      ],
      "name": "isAllPremium",
      "outputs": [
        {
          "internalType": "bool",
          "name": "",
          "type": "bool"
        }
      ],
      "stateMutability": "view",
      "type": "function"
    },
    {
      "inputs": [
        {
          "components": [
            {
              "components": [
                {
                  "internalType": "uint256[3]",
                  "name": "data",
                  "type": "uint256[3]"
                }
              ],
              "internalType": "struct TileLib.Tile",
              "name": "tile",
              "type": "tuple"
            }
          ],
          "internalType": "struct TileWithCoordLib.TileWithCoord[]",
          "name": "tiles",
          "type": "tuple[]"
        }
      ],
      "name": "isAllPremium",
      "outputs": [
        {
          "internalType": "bool",
          "name": "",
          "type": "bool"
        }
      ],
      "stateMutability": "view",
      "type": "function"
    },
    {
      "inputs": [
        {
          "internalType": "uint256",
          "name": "x",
          "type": "uint256"
        },
        {
          "internalType": "uint256",
          "name": "y",
          "type": "uint256"
        }
      ],
      "name": "isPremium",
      "outputs": [
        {
          "internalType": "bool",
          "name": "",
          "type": "bool"
        }
      ],
      "stateMutability": "view",
      "type": "function"
    },
    {
      "inputs": [
        {
          "components": [
            {
              "components": [
                {
                  "internalType": "uint256[3]",
                  "name": "data",
                  "type": "uint256[3]"
                }
              ],
              "internalType": "struct TileLib.Tile",
              "name": "tile",
              "type": "tuple"
            }
          ],
          "internalType": "struct TileWithCoordLib.TileWithCoord",
          "name": "tile",
          "type": "tuple"
        }
      ],
      "name": "isSomePremium",
      "outputs": [
        {
          "internalType": "bool",
          "name": "",
          "type": "bool"
        }
      ],
      "stateMutability": "view",
      "type": "function"
    },
    {
      "inputs": [
        {
          "components": [
            {
              "components": [
                {
                  "internalType": "uint256[3]",
                  "name": "data",
                  "type": "uint256[3]"
                }
              ],
              "internalType": "struct TileLib.Tile",
              "name": "tile",
              "type": "tuple"
            }
          ],
          "internalType": "struct TileWithCoordLib.TileWithCoord[]",
          "name": "tiles",
          "type": "tuple[]"
        }
      ],
      "name": "isSomePremium",
      "outputs": [
        {
          "internalType": "bool",
          "name": "",
          "type": "bool"
        }
      ],
      "stateMutability": "view",
      "type": "function"
    },
    {
      "inputs": [
        {
          "internalType": "uint256",
          "name": "x",
          "type": "uint256"
        },
        {
          "internalType": "uint256",
          "name": "y",
          "type": "uint256"
        },
        {
          "internalType": "uint256",
          "name": "size",
          "type": "uint256"
        }
      ],
      "name": "isSomePremium",
      "outputs": [
        {
          "internalType": "bool",
          "name": "",
          "type": "bool"
        }
      ],
      "stateMutability": "view",
      "type": "function"
    },
    {
      "inputs": [],
      "name": "length",
      "outputs": [
        {
          "internalType": "uint256",
          "name": "",
          "type": "uint256"
        }
      ],
      "stateMutability": "view",
      "type": "function"
    },
    {
      "inputs": [
        {
          "internalType": "bytes32",
          "name": "role",
          "type": "bytes32"
        },
        {
          "internalType": "address",
          "name": "account",
          "type": "address"
        }
      ],
      "name": "renounceRole",
      "outputs": [],
      "stateMutability": "nonpayable",
      "type": "function"
    },
    {
      "inputs": [
        {
          "internalType": "bytes32",
          "name": "role",
          "type": "bytes32"
        },
        {
          "internalType": "address",
          "name": "account",
          "type": "address"
        }
      ],
      "name": "revokeRole",
      "outputs": [],
      "stateMutability": "nonpayable",
      "type": "function"
    },
    {
      "inputs": [
        {
          "internalType": "uint256",
          "name": "x",
          "type": "uint256"
        },
        {
          "internalType": "uint256",
          "name": "y",
          "type": "uint256"
        }
      ],
      "name": "set",
      "outputs": [],
      "stateMutability": "nonpayable",
      "type": "function"
    },
    {
      "inputs": [
        {
          "internalType": "bytes4",
          "name": "interfaceId",
          "type": "bytes4"
        }
      ],
      "name": "supportsInterface",
      "outputs": [
        {
          "internalType": "bool",
          "name": "",
          "type": "bool"
        }
      ],
      "stateMutability": "view",
      "type": "function"
    }
  ],
  "transactionHash": "0x08bf754834bfaffc5e6b1688ddd73f5c823fae89b079eda25b0cba805ba25d40",
  "args": [],
  "numDeployments": 1,
  "solcInputHash": "4c06a45491642fde82be8c463b1bd17f",
  "bytecode": "0x608060405234801561001057600080fd5b50612334806100206000396000f3fe608060405234801561001057600080fd5b50600436106101c45760003560e01c80635ceaa769116100f9578063b53ad8b711610097578063db7760a211610071578063db7760a2146103e1578063e0886f90146103f4578063e8d4ccd214610414578063fd7633c714610427576101c4565b8063b53ad8b714610394578063d305abc4146103a7578063d547741f146103ce576101c4565b806391d14854116100d357806391d1485414610338578063a0357e4b14610371578063a217fddf14610384578063ad3de14c1461038c576101c4565b80635ceaa7691461030a5780635de6a1d31461031257806372ac937114610325576101c4565b80632f2ff15d116101665780633d9972ec116101405780633d9972ec146102b157806341ee903e146102d157806343d41e66146102e4578063501a7032146102f7576101c4565b80632f2ff15d1461027857806336568abe1461028b5780633b4e3f781461029e576101c4565b8063248a9ca3116101a2578063248a9ca31461021c57806324cfdb211461023f5780632cb9eb64146102525780632dc84b3a14610265576101c4565b806301ffc9a7146101c95780631ab06ee5146101f15780631f7b6d3214610206575b600080fd5b6101dc6101d7366004611f63565b61043a565b60405190151581526020015b60405180910390f35b6102046101ff366004611ff1565b6104d5565b005b61020e6105f4565b6040519081526020016101e8565b61020e61022a366004611f20565b60009081526065602052604090206001015490565b61020461024d366004611cce565b6106b8565b6101dc610260366004612012565b6107c0565b6101dc610273366004611fa3565b61089e565b610204610286366004611f38565b610962565b610204610299366004611f38565b61098d565b6101dc6102ac366004611fa3565b610a1e565b6102c46102bf366004611ff1565b610a92565b6040516101e891906120eb565b6102046102df366004611ff1565b610b6d565b6102046102f2366004611cb4565b610ca2565b6101dc610305366004612012565b610dd4565b61020e610e5c565b6101dc610320366004611cce565b610ecf565b61020e610333366004611e6a565b610f43565b6101dc610346366004611f38565b60009182526065602090815260408084206001600160a01b0393909316845291905290205460ff1690565b6101dc61037f366004611ff1565b61110e565b61020e600081565b6102c46111dc565b61020e6103a2366004611e01565b6112a0565b61020e7f273772c667b9d5fc18a3ee69d57f53c8af15de4b350c3fdd1747bef66aa900a381565b6102046103dc366004611f38565b61144e565b61020e6103ef366004612012565b611474565b610407610402366004611f20565b611549565b6040516101e891906121d6565b6101dc610422366004611cce565b611616565b6101dc610435366004612012565b61168a565b60007fffffffff0000000000000000000000000000000000000000000000000000000082167f7965db0b0000000000000000000000000000000000000000000000000000000014806104cd57507f01ffc9a7000000000000000000000000000000000000000000000000000000007fffffffff000000000000000000000000000000000000000000000000000000008316145b90505b919050565b7f273772c667b9d5fc18a3ee69d57f53c8af15de4b350c3fdd1747bef66aa900a361050181335b611712565b7fa20a9ae32cf227a9909806d80726866eccc106fe3587cd22519ade23cbe219dd6040517ff9b9fec6000000000000000000000000000000000000000000000000000000008152600481019190915260248101849052604481018390526001606482015273058661Abb011d3E7C70475a5956856DFd81235C99063f9b9fec69060840160006040518083038186803b15801561059c57600080fd5b505af41580156105b0573d6000803e3d6000fd5b505060408051868152602081018690527f9dd19dd0ef54fcb0658a629e952840d8a2535b57a70181102424a0718dc4e5f093500190505b60405180910390a1505050565b6040517fac775cf80000000000000000000000000000000000000000000000000000000081527fa20a9ae32cf227a9909806d80726866eccc106fe3587cd22519ade23cbe219dd600482015260009073058661Abb011d3E7C70475a5956856DFd81235C99063ac775cf8906024015b60206040518083038186803b15801561067b57600080fd5b505af415801561068f573d6000803e3d6000fd5b505050506040513d601f19601f820116820180604052508101906106b39190611fd9565b905090565b7f273772c667b9d5fc18a3ee69d57f53c8af15de4b350c3fdd1747bef66aa900a36106e381336104fc565b7fa20a9ae32cf227a9909806d80726866eccc106fe3587cd22519ade23cbe219dd6040517f5f72059200000000000000000000000000000000000000000000000000000000815273058661Abb011d3E7C70475a5956856DFd81235C991635f720592916107559190869060040161216c565b60006040518083038186803b15801561076d57600080fd5b505af4158015610781573d6000803e3d6000fd5b505050507fc068270503dcae9b1183e157c00a13eb70ab6203160c8ef0fa1142a20e4582a7826040516107b491906120eb565b60405180910390a15050565b6040517f515004380000000000000000000000000000000000000000000000000000000081527fa20a9ae32cf227a9909806d80726866eccc106fe3587cd22519ade23cbe219dd600482015260248101849052604481018390526064810182905260009073058661Abb011d3E7C70475a5956856DFd81235C9906351500438906084015b60206040518083038186803b15801561085c57600080fd5b505af4158015610870573d6000803e3d6000fd5b505050506040513d601f19601f820116820180604052508101906108949190611f00565b90505b9392505050565b60007fa20a9ae32cf227a9909806d80726866eccc106fe3587cd22519ade23cbe219dd6040517f36fa623100000000000000000000000000000000000000000000000000000000815273058661Abb011d3E7C70475a5956856DFd81235C9916336fa623191610912919086906004016121c2565b60206040518083038186803b15801561092a57600080fd5b505af415801561093e573d6000803e3d6000fd5b505050506040513d601f19601f820116820180604052508101906104cd9190611f00565b60008281526065602052604090206001015461097e81336104fc565b6109888383611792565b505050565b6001600160a01b0381163314610a105760405162461bcd60e51b815260206004820152602f60248201527f416363657373436f6e74726f6c3a2063616e206f6e6c792072656e6f756e636560448201527f20726f6c657320666f722073656c66000000000000000000000000000000000060648201526084015b60405180910390fd5b610a1a8282611834565b5050565b60007fa20a9ae32cf227a9909806d80726866eccc106fe3587cd22519ade23cbe219dd6040517ff480051900000000000000000000000000000000000000000000000000000000815273058661Abb011d3E7C70475a5956856DFd81235C99163f480051991610912919086906004016121c2565b60607fa20a9ae32cf227a9909806d80726866eccc106fe3587cd22519ade23cbe219dd6040517f11c7db8e0000000000000000000000000000000000000000000000000000000081526004810191909152602481018490526044810183905273058661Abb011d3E7C70475a5956856DFd81235C9906311c7db8e9060640160006040518083038186803b158015610b2857600080fd5b505af4158015610b3c573d6000803e3d6000fd5b505050506040513d6000823e601f3d908101601f19168201604052610b649190810190611d71565b90505b92915050565b7f273772c667b9d5fc18a3ee69d57f53c8af15de4b350c3fdd1747bef66aa900a3610b9881336104fc565b7fa20a9ae32cf227a9909806d80726866eccc106fe3587cd22519ade23cbe219dd6040517fe8485b07000000000000000000000000000000000000000000000000000000008152600481019190915260248101849052604481018390526001606482015273058661Abb011d3E7C70475a5956856DFd81235C99063e8485b079060840160206040518083038186803b158015610c3357600080fd5b505af4158015610c47573d6000803e3d6000fd5b505050506040513d601f19601f82011682018060405250810190610c6b9190611f00565b5060408051848152602081018490527f3f4d6d47f818ddf69bb0866dc712ab567cec9de8a8ce0023739787896d5841d691016105e7565b600054610100900460ff16610cbd5760005460ff1615610cc1565b303b155b610d335760405162461bcd60e51b815260206004820152602e60248201527f496e697469616c697a61626c653a20636f6e747261637420697320616c72656160448201527f647920696e697469616c697a65640000000000000000000000000000000000006064820152608401610a07565b600054610100900460ff16158015610d5e576000805460ff1961ff0019909116610100171660011790555b6001600160a01b038216610db45760405162461bcd60e51b815260206004820152601560248201527f696e76616c69642061646d696e206164647265737300000000000000000000006044820152606401610a07565b610dbf600083611792565b8015610a1a576000805461ff00191690555050565b6040517f8addfdc40000000000000000000000000000000000000000000000000000000081527fa20a9ae32cf227a9909806d80726866eccc106fe3587cd22519ade23cbe219dd600482015260248101849052604481018390526064810182905260009073058661Abb011d3E7C70475a5956856DFd81235C990638addfdc490608401610844565b6040517f7c2c51480000000000000000000000000000000000000000000000000000000081527fa20a9ae32cf227a9909806d80726866eccc106fe3587cd22519ade23cbe219dd600482015260009073058661Abb011d3E7C70475a5956856DFd81235C990637c2c514890602401610663565b60007fa20a9ae32cf227a9909806d80726866eccc106fe3587cd22519ade23cbe219dd6040517f05a3338600000000000000000000000000000000000000000000000000000000815273058661Abb011d3E7C70475a5956856DFd81235C9916305a33386916109129190869060040161216c565b6000858481148015610f5457508083145b610fa05760405162461bcd60e51b815260206004820152601160248201527f696e76616c696420617267756d656e74730000000000000000000000000000006044820152606401610a07565b7fa20a9ae32cf227a9909806d80726866eccc106fe3587cd22519ade23cbe219dd6000805b838110156111005773058661Abb011d3E7C70475a5956856DFd81235C9632b8790ab848d8d8581811061100857634e487b7160e01b600052603260045260246000fd5b905060200201358c8c8681811061102f57634e487b7160e01b600052603260045260246000fd5b905060200201358b8b8781811061105657634e487b7160e01b600052603260045260246000fd5b905060200201356040518563ffffffff1660e01b8152600401611092949392919093845260208401929092526040830152606082015260800190565b60206040518083038186803b1580156110aa57600080fd5b505af41580156110be573d6000803e3d6000fd5b505050506040513d601f19601f820116820180604052508101906110e29190611fd9565b6110ec9083612239565b9150806110f8816122b7565b915050610fc5565b509998505050505050505050565b60007fa20a9ae32cf227a9909806d80726866eccc106fe3587cd22519ade23cbe219dd6040517f3362c7cd0000000000000000000000000000000000000000000000000000000081526004810191909152602481018490526044810183905273058661Abb011d3E7C70475a5956856DFd81235C990633362c7cd9060640160206040518083038186803b1580156111a457600080fd5b505af41580156111b8573d6000803e3d6000fd5b505050506040513d601f19601f82011682018060405250810190610b649190611f00565b60607fa20a9ae32cf227a9909806d80726866eccc106fe3587cd22519ade23cbe219dd6040517fc853cffe000000000000000000000000000000000000000000000000000000008152600481019190915273058661Abb011d3E7C70475a5956856DFd81235C99063c853cffe9060240160006040518083038186803b15801561126457600080fd5b505af4158015611278573d6000803e3d6000fd5b505050506040513d6000823e601f3d908101601f191682016040526106b39190810190611d71565b6000838281146112f25760405162461bcd60e51b815260206004820152601160248201527f696e76616c696420617267756d656e74730000000000000000000000000000006044820152606401610a07565b7fa20a9ae32cf227a9909806d80726866eccc106fe3587cd22519ade23cbe219dd6000805b838110156114425773058661Abb011d3E7C70475a5956856DFd81235C9633362c7cd848b8b8581811061135a57634e487b7160e01b600052603260045260246000fd5b905060200201358a8a8681811061138157634e487b7160e01b600052603260045260246000fd5b6040517fffffffff0000000000000000000000000000000000000000000000000000000060e088901b168152600481019590955260248501939093525060209091020135604482015260640160206040518083038186803b1580156113e557600080fd5b505af41580156113f9573d6000803e3d6000fd5b505050506040513d601f19601f8201168201806040525081019061141d9190611f00565b15611430578161142c816122b7565b9250505b8061143a816122b7565b915050611317565b50979650505050505050565b60008281526065602052604090206001015461146a81336104fc565b6109888383611834565b60007fa20a9ae32cf227a9909806d80726866eccc106fe3587cd22519ade23cbe219dd6040517f2b8790ab000000000000000000000000000000000000000000000000000000008152600481019190915260248101859052604481018490526064810183905273058661Abb011d3E7C70475a5956856DFd81235C990632b8790ab9060840160206040518083038186803b15801561151157600080fd5b505af4158015611525573d6000803e3d6000fd5b505050506040513d601f19601f820116820180604052508101906108949190611fd9565b611551611b26565b7fa20a9ae32cf227a9909806d80726866eccc106fe3587cd22519ade23cbe219dd6040517fdcedd4b000000000000000000000000000000000000000000000000000000000815260048101919091526024810183905273058661Abb011d3E7C70475a5956856DFd81235C99063dcedd4b09060440160606040518083038186803b1580156115de57600080fd5b505af41580156115f2573d6000803e3d6000fd5b505050506040513d601f19601f820116820180604052508101906104cd9190611fbe565b60007fa20a9ae32cf227a9909806d80726866eccc106fe3587cd22519ade23cbe219dd6040517fcca0f3b700000000000000000000000000000000000000000000000000000000815273058661Abb011d3E7C70475a5956856DFd81235C99163cca0f3b7916109129190869060040161216c565b6040517f72ba78880000000000000000000000000000000000000000000000000000000081527fa20a9ae32cf227a9909806d80726866eccc106fe3587cd22519ade23cbe219dd600482015260248101849052604481018390526064810182905260009073058661Abb011d3E7C70475a5956856DFd81235C9906372ba788890608401610844565b60008281526065602090815260408083206001600160a01b038516845290915290205460ff16610a1a57611750816001600160a01b031660146118b7565b61175b8360206118b7565b60405160200161176c92919061206a565b60408051601f198184030181529082905262461bcd60e51b8252610a0791600401612139565b60008281526065602090815260408083206001600160a01b038516845290915290205460ff16610a1a5760008281526065602090815260408083206001600160a01b03851684529091529020805460ff191660011790556117f03390565b6001600160a01b0316816001600160a01b0316837f2f8788117e7eff1d82e926ec794901d17c78024a50270940304540a733656f0d60405160405180910390a45050565b60008281526065602090815260408083206001600160a01b038516845290915290205460ff1615610a1a5760008281526065602090815260408083206001600160a01b0385168085529252808320805460ff1916905551339285917ff6391f5c32d9c69d2a47ea670b442974b53935d1edc7fd64eb21e047a839171b9190a45050565b606060006118c6836002612251565b6118d1906002612239565b67ffffffffffffffff8111156118f757634e487b7160e01b600052604160045260246000fd5b6040519080825280601f01601f191660200182016040528015611921576020820181803683370190505b5090507f30000000000000000000000000000000000000000000000000000000000000008160008151811061196657634e487b7160e01b600052603260045260246000fd5b60200101907effffffffffffffffffffffffffffffffffffffffffffffffffffffffffffff1916908160001a9053507f7800000000000000000000000000000000000000000000000000000000000000816001815181106119d757634e487b7160e01b600052603260045260246000fd5b60200101907effffffffffffffffffffffffffffffffffffffffffffffffffffffffffffff1916908160001a9053506000611a13846002612251565b611a1e906001612239565b90505b6001811115611ad7577f303132333435363738396162636465660000000000000000000000000000000085600f1660108110611a6d57634e487b7160e01b600052603260045260246000fd5b1a60f81b828281518110611a9157634e487b7160e01b600052603260045260246000fd5b60200101907effffffffffffffffffffffffffffffffffffffffffffffffffffffffffffff1916908160001a90535060049490941c93611ad0816122a0565b9050611a21565b508315610b645760405162461bcd60e51b815260206004820181905260248201527f537472696e67733a20686578206c656e67746820696e73756666696369656e746044820152606401610a07565b6040518060200160405280611b39611b3e565b905290565b604080516080810190915280611b3960208201600381606080368337509192915050565b80356001600160a01b03811681146104d057600080fd5b60008083601f840112611b8a578182fd5b50813567ffffffffffffffff811115611ba1578182fd5b6020830191508360208083028501011115611bbb57600080fd5b9250929050565b600060608284031215611bd3578081fd5b6020611bde816121e4565b9150611be9816121e4565b84601f850112611bf857600080fd5b611c0260606121e4565b808587606088011115611c1457600080fd5b60005b6003811015611c3457813584529285019290850190600101611c17565b505082525082525092915050565b600060608284031215611c53578081fd5b6020611c5e816121e4565b9150611c69816121e4565b84601f850112611c7857600080fd5b611c8260606121e4565b808587606088011115611c9457600080fd5b60005b6003811015611c3457815184529285019290850190600101611c97565b600060208284031215611cc5578081fd5b610b6482611b62565b60006020808385031215611ce0578182fd5b823567ffffffffffffffff811115611cf6578283fd5b8301601f81018513611d06578283fd5b8035611d19611d1482612215565b6121e4565b818152838101908385016060808502860187018a1015611d37578788fd5b8795505b84861015611d6357611d4d8a83611bc2565b8452600195909501949286019290810190611d3b565b509098975050505050505050565b60006020808385031215611d83578182fd5b825167ffffffffffffffff811115611d99578283fd5b8301601f81018513611da9578283fd5b8051611db7611d1482612215565b818152838101908385016060808502860187018a1015611dd5578788fd5b8795505b84861015611d6357611deb8a83611c42565b8452600195909501949286019290810190611dd9565b60008060008060408587031215611e16578283fd5b843567ffffffffffffffff80821115611e2d578485fd5b611e3988838901611b79565b90965094506020870135915080821115611e51578384fd5b50611e5e87828801611b79565b95989497509550505050565b60008060008060008060608789031215611e82578182fd5b863567ffffffffffffffff80821115611e99578384fd5b611ea58a838b01611b79565b90985096506020890135915080821115611ebd578384fd5b611ec98a838b01611b79565b90965094506040890135915080821115611ee1578384fd5b50611eee89828a01611b79565b979a9699509497509295939492505050565b600060208284031215611f11578081fd5b81518015158114610b64578182fd5b600060208284031215611f31578081fd5b5035919050565b60008060408385031215611f4a578182fd5b82359150611f5a60208401611b62565b90509250929050565b600060208284031215611f74578081fd5b81357fffffffff0000000000000000000000000000000000000000000000000000000081168114610b64578182fd5b600060608284031215611fb4578081fd5b610b648383611bc2565b600060608284031215611fcf578081fd5b610b648383611c42565b600060208284031215611fea578081fd5b5051919050565b60008060408385031215612003578182fd5b50508035926020909101359150565b600080600060608486031215612026578081fd5b505081359360208301359350604090920135919050565b8051518260005b6003811015612063578251825260209283019290910190600101612044565b5050505050565b60007f416363657373436f6e74726f6c3a206163636f756e7420000000000000000000825283516120a2816017850160208801612270565b7f206973206d697373696e6720726f6c652000000000000000000000000000000060179184019182015283516120df816028840160208801612270565b01602801949350505050565b6020808252825182820181905260009190848201906040850190845b8181101561212d5761211a83855161203d565b9284019260609290920191600101612107565b50909695505050505050565b6000602082528251806020840152612158816040850160208701612270565b601f01601f19169190910160400192915050565b6000604082018483526020604081850152818551808452606093508386019150828701855b828110156121b4576121a484835161203d565b9285019290840190600101612191565b509198975050505050505050565b82815260808101610897602083018461203d565b60608101610b67828461203d565b604051601f8201601f1916810167ffffffffffffffff8111828210171561220d5761220d6122e8565b604052919050565b600067ffffffffffffffff82111561222f5761222f6122e8565b5060209081020190565b6000821982111561224c5761224c6122d2565b500190565b600081600019048311821515161561226b5761226b6122d2565b500290565b60005b8381101561228b578181015183820152602001612273565b8381111561229a576000848401525b50505050565b6000816122af576122af6122d2565b506000190190565b60006000198214156122cb576122cb6122d2565b5060010190565b634e487b7160e01b600052601160045260246000fd5b634e487b7160e01b600052604160045260246000fdfea26469706673582212208ab79e54768842554d2dabf5809eb182a911df696b4d1f07c81400700036155b64736f6c63430008020033",
  "deployedBytecode": "0x608060405234801561001057600080fd5b50600436106101c45760003560e01c80635ceaa769116100f9578063b53ad8b711610097578063db7760a211610071578063db7760a2146103e1578063e0886f90146103f4578063e8d4ccd214610414578063fd7633c714610427576101c4565b8063b53ad8b714610394578063d305abc4146103a7578063d547741f146103ce576101c4565b806391d14854116100d357806391d1485414610338578063a0357e4b14610371578063a217fddf14610384578063ad3de14c1461038c576101c4565b80635ceaa7691461030a5780635de6a1d31461031257806372ac937114610325576101c4565b80632f2ff15d116101665780633d9972ec116101405780633d9972ec146102b157806341ee903e146102d157806343d41e66146102e4578063501a7032146102f7576101c4565b80632f2ff15d1461027857806336568abe1461028b5780633b4e3f781461029e576101c4565b8063248a9ca3116101a2578063248a9ca31461021c57806324cfdb211461023f5780632cb9eb64146102525780632dc84b3a14610265576101c4565b806301ffc9a7146101c95780631ab06ee5146101f15780631f7b6d3214610206575b600080fd5b6101dc6101d7366004611f63565b61043a565b60405190151581526020015b60405180910390f35b6102046101ff366004611ff1565b6104d5565b005b61020e6105f4565b6040519081526020016101e8565b61020e61022a366004611f20565b60009081526065602052604090206001015490565b61020461024d366004611cce565b6106b8565b6101dc610260366004612012565b6107c0565b6101dc610273366004611fa3565b61089e565b610204610286366004611f38565b610962565b610204610299366004611f38565b61098d565b6101dc6102ac366004611fa3565b610a1e565b6102c46102bf366004611ff1565b610a92565b6040516101e891906120eb565b6102046102df366004611ff1565b610b6d565b6102046102f2366004611cb4565b610ca2565b6101dc610305366004612012565b610dd4565b61020e610e5c565b6101dc610320366004611cce565b610ecf565b61020e610333366004611e6a565b610f43565b6101dc610346366004611f38565b60009182526065602090815260408084206001600160a01b0393909316845291905290205460ff1690565b6101dc61037f366004611ff1565b61110e565b61020e600081565b6102c46111dc565b61020e6103a2366004611e01565b6112a0565b61020e7f273772c667b9d5fc18a3ee69d57f53c8af15de4b350c3fdd1747bef66aa900a381565b6102046103dc366004611f38565b61144e565b61020e6103ef366004612012565b611474565b610407610402366004611f20565b611549565b6040516101e891906121d6565b6101dc610422366004611cce565b611616565b6101dc610435366004612012565b61168a565b60007fffffffff0000000000000000000000000000000000000000000000000000000082167f7965db0b0000000000000000000000000000000000000000000000000000000014806104cd57507f01ffc9a7000000000000000000000000000000000000000000000000000000007fffffffff000000000000000000000000000000000000000000000000000000008316145b90505b919050565b7f273772c667b9d5fc18a3ee69d57f53c8af15de4b350c3fdd1747bef66aa900a361050181335b611712565b7fa20a9ae32cf227a9909806d80726866eccc106fe3587cd22519ade23cbe219dd6040517ff9b9fec6000000000000000000000000000000000000000000000000000000008152600481019190915260248101849052604481018390526001606482015273__$c8b13b5401e105a03ccb2d5c98950fab3b$__9063f9b9fec69060840160006040518083038186803b15801561059c57600080fd5b505af41580156105b0573d6000803e3d6000fd5b505060408051868152602081018690527f9dd19dd0ef54fcb0658a629e952840d8a2535b57a70181102424a0718dc4e5f093500190505b60405180910390a1505050565b6040517fac775cf80000000000000000000000000000000000000000000000000000000081527fa20a9ae32cf227a9909806d80726866eccc106fe3587cd22519ade23cbe219dd600482015260009073__$c8b13b5401e105a03ccb2d5c98950fab3b$__9063ac775cf8906024015b60206040518083038186803b15801561067b57600080fd5b505af415801561068f573d6000803e3d6000fd5b505050506040513d601f19601f820116820180604052508101906106b39190611fd9565b905090565b7f273772c667b9d5fc18a3ee69d57f53c8af15de4b350c3fdd1747bef66aa900a36106e381336104fc565b7fa20a9ae32cf227a9909806d80726866eccc106fe3587cd22519ade23cbe219dd6040517f5f72059200000000000000000000000000000000000000000000000000000000815273__$c8b13b5401e105a03ccb2d5c98950fab3b$__91635f720592916107559190869060040161216c565b60006040518083038186803b15801561076d57600080fd5b505af4158015610781573d6000803e3d6000fd5b505050507fc068270503dcae9b1183e157c00a13eb70ab6203160c8ef0fa1142a20e4582a7826040516107b491906120eb565b60405180910390a15050565b6040517f515004380000000000000000000000000000000000000000000000000000000081527fa20a9ae32cf227a9909806d80726866eccc106fe3587cd22519ade23cbe219dd600482015260248101849052604481018390526064810182905260009073__$c8b13b5401e105a03ccb2d5c98950fab3b$__906351500438906084015b60206040518083038186803b15801561085c57600080fd5b505af4158015610870573d6000803e3d6000fd5b505050506040513d601f19601f820116820180604052508101906108949190611f00565b90505b9392505050565b60007fa20a9ae32cf227a9909806d80726866eccc106fe3587cd22519ade23cbe219dd6040517f36fa623100000000000000000000000000000000000000000000000000000000815273__$c8b13b5401e105a03ccb2d5c98950fab3b$__916336fa623191610912919086906004016121c2565b60206040518083038186803b15801561092a57600080fd5b505af415801561093e573d6000803e3d6000fd5b505050506040513d601f19601f820116820180604052508101906104cd9190611f00565b60008281526065602052604090206001015461097e81336104fc565b6109888383611792565b505050565b6001600160a01b0381163314610a105760405162461bcd60e51b815260206004820152602f60248201527f416363657373436f6e74726f6c3a2063616e206f6e6c792072656e6f756e636560448201527f20726f6c657320666f722073656c66000000000000000000000000000000000060648201526084015b60405180910390fd5b610a1a8282611834565b5050565b60007fa20a9ae32cf227a9909806d80726866eccc106fe3587cd22519ade23cbe219dd6040517ff480051900000000000000000000000000000000000000000000000000000000815273__$c8b13b5401e105a03ccb2d5c98950fab3b$__9163f480051991610912919086906004016121c2565b60607fa20a9ae32cf227a9909806d80726866eccc106fe3587cd22519ade23cbe219dd6040517f11c7db8e0000000000000000000000000000000000000000000000000000000081526004810191909152602481018490526044810183905273__$c8b13b5401e105a03ccb2d5c98950fab3b$__906311c7db8e9060640160006040518083038186803b158015610b2857600080fd5b505af4158015610b3c573d6000803e3d6000fd5b505050506040513d6000823e601f3d908101601f19168201604052610b649190810190611d71565b90505b92915050565b7f273772c667b9d5fc18a3ee69d57f53c8af15de4b350c3fdd1747bef66aa900a3610b9881336104fc565b7fa20a9ae32cf227a9909806d80726866eccc106fe3587cd22519ade23cbe219dd6040517fe8485b07000000000000000000000000000000000000000000000000000000008152600481019190915260248101849052604481018390526001606482015273__$c8b13b5401e105a03ccb2d5c98950fab3b$__9063e8485b079060840160206040518083038186803b158015610c3357600080fd5b505af4158015610c47573d6000803e3d6000fd5b505050506040513d601f19601f82011682018060405250810190610c6b9190611f00565b5060408051848152602081018490527f3f4d6d47f818ddf69bb0866dc712ab567cec9de8a8ce0023739787896d5841d691016105e7565b600054610100900460ff16610cbd5760005460ff1615610cc1565b303b155b610d335760405162461bcd60e51b815260206004820152602e60248201527f496e697469616c697a61626c653a20636f6e747261637420697320616c72656160448201527f647920696e697469616c697a65640000000000000000000000000000000000006064820152608401610a07565b600054610100900460ff16158015610d5e576000805460ff1961ff0019909116610100171660011790555b6001600160a01b038216610db45760405162461bcd60e51b815260206004820152601560248201527f696e76616c69642061646d696e206164647265737300000000000000000000006044820152606401610a07565b610dbf600083611792565b8015610a1a576000805461ff00191690555050565b6040517f8addfdc40000000000000000000000000000000000000000000000000000000081527fa20a9ae32cf227a9909806d80726866eccc106fe3587cd22519ade23cbe219dd600482015260248101849052604481018390526064810182905260009073__$c8b13b5401e105a03ccb2d5c98950fab3b$__90638addfdc490608401610844565b6040517f7c2c51480000000000000000000000000000000000000000000000000000000081527fa20a9ae32cf227a9909806d80726866eccc106fe3587cd22519ade23cbe219dd600482015260009073__$c8b13b5401e105a03ccb2d5c98950fab3b$__90637c2c514890602401610663565b60007fa20a9ae32cf227a9909806d80726866eccc106fe3587cd22519ade23cbe219dd6040517f05a3338600000000000000000000000000000000000000000000000000000000815273__$c8b13b5401e105a03ccb2d5c98950fab3b$__916305a33386916109129190869060040161216c565b6000858481148015610f5457508083145b610fa05760405162461bcd60e51b815260206004820152601160248201527f696e76616c696420617267756d656e74730000000000000000000000000000006044820152606401610a07565b7fa20a9ae32cf227a9909806d80726866eccc106fe3587cd22519ade23cbe219dd6000805b838110156111005773__$c8b13b5401e105a03ccb2d5c98950fab3b$__632b8790ab848d8d8581811061100857634e487b7160e01b600052603260045260246000fd5b905060200201358c8c8681811061102f57634e487b7160e01b600052603260045260246000fd5b905060200201358b8b8781811061105657634e487b7160e01b600052603260045260246000fd5b905060200201356040518563ffffffff1660e01b8152600401611092949392919093845260208401929092526040830152606082015260800190565b60206040518083038186803b1580156110aa57600080fd5b505af41580156110be573d6000803e3d6000fd5b505050506040513d601f19601f820116820180604052508101906110e29190611fd9565b6110ec9083612239565b9150806110f8816122b7565b915050610fc5565b509998505050505050505050565b60007fa20a9ae32cf227a9909806d80726866eccc106fe3587cd22519ade23cbe219dd6040517f3362c7cd0000000000000000000000000000000000000000000000000000000081526004810191909152602481018490526044810183905273__$c8b13b5401e105a03ccb2d5c98950fab3b$__90633362c7cd9060640160206040518083038186803b1580156111a457600080fd5b505af41580156111b8573d6000803e3d6000fd5b505050506040513d601f19601f82011682018060405250810190610b649190611f00565b60607fa20a9ae32cf227a9909806d80726866eccc106fe3587cd22519ade23cbe219dd6040517fc853cffe000000000000000000000000000000000000000000000000000000008152600481019190915273__$c8b13b5401e105a03ccb2d5c98950fab3b$__9063c853cffe9060240160006040518083038186803b15801561126457600080fd5b505af4158015611278573d6000803e3d6000fd5b505050506040513d6000823e601f3d908101601f191682016040526106b39190810190611d71565b6000838281146112f25760405162461bcd60e51b815260206004820152601160248201527f696e76616c696420617267756d656e74730000000000000000000000000000006044820152606401610a07565b7fa20a9ae32cf227a9909806d80726866eccc106fe3587cd22519ade23cbe219dd6000805b838110156114425773__$c8b13b5401e105a03ccb2d5c98950fab3b$__633362c7cd848b8b8581811061135a57634e487b7160e01b600052603260045260246000fd5b905060200201358a8a8681811061138157634e487b7160e01b600052603260045260246000fd5b6040517fffffffff0000000000000000000000000000000000000000000000000000000060e088901b168152600481019590955260248501939093525060209091020135604482015260640160206040518083038186803b1580156113e557600080fd5b505af41580156113f9573d6000803e3d6000fd5b505050506040513d601f19601f8201168201806040525081019061141d9190611f00565b15611430578161142c816122b7565b9250505b8061143a816122b7565b915050611317565b50979650505050505050565b60008281526065602052604090206001015461146a81336104fc565b6109888383611834565b60007fa20a9ae32cf227a9909806d80726866eccc106fe3587cd22519ade23cbe219dd6040517f2b8790ab000000000000000000000000000000000000000000000000000000008152600481019190915260248101859052604481018490526064810183905273__$c8b13b5401e105a03ccb2d5c98950fab3b$__90632b8790ab9060840160206040518083038186803b15801561151157600080fd5b505af4158015611525573d6000803e3d6000fd5b505050506040513d601f19601f820116820180604052508101906108949190611fd9565b611551611b26565b7fa20a9ae32cf227a9909806d80726866eccc106fe3587cd22519ade23cbe219dd6040517fdcedd4b000000000000000000000000000000000000000000000000000000000815260048101919091526024810183905273__$c8b13b5401e105a03ccb2d5c98950fab3b$__9063dcedd4b09060440160606040518083038186803b1580156115de57600080fd5b505af41580156115f2573d6000803e3d6000fd5b505050506040513d601f19601f820116820180604052508101906104cd9190611fbe565b60007fa20a9ae32cf227a9909806d80726866eccc106fe3587cd22519ade23cbe219dd6040517fcca0f3b700000000000000000000000000000000000000000000000000000000815273__$c8b13b5401e105a03ccb2d5c98950fab3b$__9163cca0f3b7916109129190869060040161216c565b6040517f72ba78880000000000000000000000000000000000000000000000000000000081527fa20a9ae32cf227a9909806d80726866eccc106fe3587cd22519ade23cbe219dd600482015260248101849052604481018390526064810182905260009073__$c8b13b5401e105a03ccb2d5c98950fab3b$__906372ba788890608401610844565b60008281526065602090815260408083206001600160a01b038516845290915290205460ff16610a1a57611750816001600160a01b031660146118b7565b61175b8360206118b7565b60405160200161176c92919061206a565b60408051601f198184030181529082905262461bcd60e51b8252610a0791600401612139565b60008281526065602090815260408083206001600160a01b038516845290915290205460ff16610a1a5760008281526065602090815260408083206001600160a01b03851684529091529020805460ff191660011790556117f03390565b6001600160a01b0316816001600160a01b0316837f2f8788117e7eff1d82e926ec794901d17c78024a50270940304540a733656f0d60405160405180910390a45050565b60008281526065602090815260408083206001600160a01b038516845290915290205460ff1615610a1a5760008281526065602090815260408083206001600160a01b0385168085529252808320805460ff1916905551339285917ff6391f5c32d9c69d2a47ea670b442974b53935d1edc7fd64eb21e047a839171b9190a45050565b606060006118c6836002612251565b6118d1906002612239565b67ffffffffffffffff8111156118f757634e487b7160e01b600052604160045260246000fd5b6040519080825280601f01601f191660200182016040528015611921576020820181803683370190505b5090507f30000000000000000000000000000000000000000000000000000000000000008160008151811061196657634e487b7160e01b600052603260045260246000fd5b60200101907effffffffffffffffffffffffffffffffffffffffffffffffffffffffffffff1916908160001a9053507f7800000000000000000000000000000000000000000000000000000000000000816001815181106119d757634e487b7160e01b600052603260045260246000fd5b60200101907effffffffffffffffffffffffffffffffffffffffffffffffffffffffffffff1916908160001a9053506000611a13846002612251565b611a1e906001612239565b90505b6001811115611ad7577f303132333435363738396162636465660000000000000000000000000000000085600f1660108110611a6d57634e487b7160e01b600052603260045260246000fd5b1a60f81b828281518110611a9157634e487b7160e01b600052603260045260246000fd5b60200101907effffffffffffffffffffffffffffffffffffffffffffffffffffffffffffff1916908160001a90535060049490941c93611ad0816122a0565b9050611a21565b508315610b645760405162461bcd60e51b815260206004820181905260248201527f537472696e67733a20686578206c656e67746820696e73756666696369656e746044820152606401610a07565b6040518060200160405280611b39611b3e565b905290565b604080516080810190915280611b3960208201600381606080368337509192915050565b80356001600160a01b03811681146104d057600080fd5b60008083601f840112611b8a578182fd5b50813567ffffffffffffffff811115611ba1578182fd5b6020830191508360208083028501011115611bbb57600080fd5b9250929050565b600060608284031215611bd3578081fd5b6020611bde816121e4565b9150611be9816121e4565b84601f850112611bf857600080fd5b611c0260606121e4565b808587606088011115611c1457600080fd5b60005b6003811015611c3457813584529285019290850190600101611c17565b505082525082525092915050565b600060608284031215611c53578081fd5b6020611c5e816121e4565b9150611c69816121e4565b84601f850112611c7857600080fd5b611c8260606121e4565b808587606088011115611c9457600080fd5b60005b6003811015611c3457815184529285019290850190600101611c97565b600060208284031215611cc5578081fd5b610b6482611b62565b60006020808385031215611ce0578182fd5b823567ffffffffffffffff811115611cf6578283fd5b8301601f81018513611d06578283fd5b8035611d19611d1482612215565b6121e4565b818152838101908385016060808502860187018a1015611d37578788fd5b8795505b84861015611d6357611d4d8a83611bc2565b8452600195909501949286019290810190611d3b565b509098975050505050505050565b60006020808385031215611d83578182fd5b825167ffffffffffffffff811115611d99578283fd5b8301601f81018513611da9578283fd5b8051611db7611d1482612215565b818152838101908385016060808502860187018a1015611dd5578788fd5b8795505b84861015611d6357611deb8a83611c42565b8452600195909501949286019290810190611dd9565b60008060008060408587031215611e16578283fd5b843567ffffffffffffffff80821115611e2d578485fd5b611e3988838901611b79565b90965094506020870135915080821115611e51578384fd5b50611e5e87828801611b79565b95989497509550505050565b60008060008060008060608789031215611e82578182fd5b863567ffffffffffffffff80821115611e99578384fd5b611ea58a838b01611b79565b90985096506020890135915080821115611ebd578384fd5b611ec98a838b01611b79565b90965094506040890135915080821115611ee1578384fd5b50611eee89828a01611b79565b979a9699509497509295939492505050565b600060208284031215611f11578081fd5b81518015158114610b64578182fd5b600060208284031215611f31578081fd5b5035919050565b60008060408385031215611f4a578182fd5b82359150611f5a60208401611b62565b90509250929050565b600060208284031215611f74578081fd5b81357fffffffff0000000000000000000000000000000000000000000000000000000081168114610b64578182fd5b600060608284031215611fb4578081fd5b610b648383611bc2565b600060608284031215611fcf578081fd5b610b648383611c42565b600060208284031215611fea578081fd5b5051919050565b60008060408385031215612003578182fd5b50508035926020909101359150565b600080600060608486031215612026578081fd5b505081359360208301359350604090920135919050565b8051518260005b6003811015612063578251825260209283019290910190600101612044565b5050505050565b60007f416363657373436f6e74726f6c3a206163636f756e7420000000000000000000825283516120a2816017850160208801612270565b7f206973206d697373696e6720726f6c652000000000000000000000000000000060179184019182015283516120df816028840160208801612270565b01602801949350505050565b6020808252825182820181905260009190848201906040850190845b8181101561212d5761211a83855161203d565b9284019260609290920191600101612107565b50909695505050505050565b6000602082528251806020840152612158816040850160208701612270565b601f01601f19169190910160400192915050565b6000604082018483526020604081850152818551808452606093508386019150828701855b828110156121b4576121a484835161203d565b9285019290840190600101612191565b509198975050505050505050565b82815260808101610897602083018461203d565b60608101610b67828461203d565b604051601f8201601f1916810167ffffffffffffffff8111828210171561220d5761220d6122e8565b604052919050565b600067ffffffffffffffff82111561222f5761222f6122e8565b5060209081020190565b6000821982111561224c5761224c6122d2565b500190565b600081600019048311821515161561226b5761226b6122d2565b500290565b60005b8381101561228b578181015183820152602001612273565b8381111561229a576000848401525b50505050565b6000816122af576122af6122d2565b506000190190565b60006000198214156122cb576122cb6122d2565b5060010190565b634e487b7160e01b600052601160045260246000fd5b634e487b7160e01b600052604160045260246000fdfea26469706673582212208ab79e54768842554d2dabf5809eb182a911df696b4d1f07c81400700036155b64736f6c63430008020033",
  "libraries": {
    "MapLib": "0x058661Abb011d3E7C70475a5956856DFd81235C9"
  },
  "devdoc": {
    "events": {
      "PixelClear(uint256,uint256)": {
        "details": "Emitted when a tile is updated"
      },
      "PixelSet(uint256,uint256)": {
        "details": "Emitted when a tile is updated"
      },
      "TileChanged(((uint256[3]))[])": {
        "details": "Emitted when a tile is updated"
      }
    },
    "kind": "dev",
    "methods": {
      "assign(((uint256[3]))[])": {
        "params": {
          "tiles": "the list of TileWithCoord to be assigned"
        }
      },
      "at(uint256)": {
        "details": "used to iterate off-chain over the tiles.",
        "params": {
          "index": "the index of the tile"
        },
        "returns": {
          "_0": "the tile that is in the position index in the list"
        }
      },
      "at(uint256,uint256)": {
        "details": "used to iterate off-chain over the tiles.",
        "params": {
          "limit": "amount of tiles to get",
          "offset": "initial offset used to paginate"
        },
        "returns": {
          "_0": "the partial list of tiles"
        }
      },
      "clear(uint256,uint256)": {
        "details": "helper method that can be called by hand",
        "params": {
          "x": "coordinate",
          "y": "coordinate"
        }
      },
      "countPremium(uint256,uint256,uint256)": {
        "details": "the coordinates must be % size and size can be 1, 3, 6, 12 and 24 to match the Quads in the land contract",
        "params": {
          "size": "the size of the square",
          "x": "the x coordinate of the square",
          "y": "the y coordinate of the square"
        },
        "returns": {
          "_0": "the amount of premium lands"
        }
      },
      "countPremium(uint256[],uint256[])": {
        "params": {
          "xs": "the x coordinate",
          "ys": "the  coordinate"
        },
        "returns": {
          "_0": "the amount of premium lands"
        }
      },
      "countPremium(uint256[],uint256[],uint256[])": {
        "details": "the coordinates must be % size and size can be 1, 3, 6, 12 and 24 to match the Quads in the land contract",
        "params": {
          "sizes": "the size of the square",
          "xs": "the x coordinate of the square",
          "ys": "the y coordinate of the square"
        },
        "returns": {
          "_0": "the amount of premium lands"
        }
      },
      "getLandCount()": {
        "returns": {
          "_0": "the quantity of lands"
        }
      },
      "getMap()": {
        "details": "Use only for testing. This can be problematic if it grows too much !!!",
        "returns": {
          "_0": "the list of internal tiles"
        }
      },
      "getRoleAdmin(bytes32)": {
        "details": "Returns the admin role that controls `role`. See {grantRole} and {revokeRole}. To change a role's admin, use {_setRoleAdmin}."
      },
      "grantRole(bytes32,address)": {
        "details": "Grants `role` to `account`. If `account` had not been already granted `role`, emits a {RoleGranted} event. Requirements: - the caller must have ``role``'s admin role."
      },
      "hasRole(bytes32,address)": {
        "details": "Returns `true` if `account` has been granted `role`."
      },
      "isAdjacent(uint256,uint256,uint256)": {
        "details": "used to add a quad to a map, it is cheaper than isAdjacent(map)",
        "params": {
          "size": "the size of the square",
          "x": "the x coordinate of the square",
          "y": "the y coordinate of the square"
        },
        "returns": {
          "_0": "true if the square is 4-connected to the map"
        }
      },
      "isAllPremium(((uint256[3])))": {
        "params": {
          "tile": "the TileWithCoord that must be included"
        },
        "returns": {
          "_0": "true if self contain tile TileWithCoord"
        }
      },
      "isAllPremium(((uint256[3]))[])": {
        "params": {
          "tiles": "the TileWithCoord that must be included"
        },
        "returns": {
          "_0": "true if self contain tiles TileWithCoord[]"
        }
      },
      "isAllPremium(uint256,uint256,uint256)": {
        "details": "the coordinates must be % size and size can be 1, 3, 6, 12 and 24 to match the Quads in the land contract",
        "params": {
          "size": "the size of the square",
          "x": "the x coordinate of the square",
          "y": "the y coordinate of the square"
        },
        "returns": {
          "_0": "true if al the bits are set or false if at least one bit is cleared"
        }
      },
      "isPremium(uint256,uint256)": {
        "params": {
          "x": "the x coordinate",
          "y": "the  coordinate"
        },
        "returns": {
          "_0": "true if the x,y coordinate bit is set or false if it is cleared"
        }
      },
      "isSomePremium(((uint256[3])))": {
        "params": {
          "tile": "the TileWithCoord to compare"
        },
        "returns": {
          "_0": "true if there is at least one bit set in both the Map and the TileWithCoord"
        }
      },
      "isSomePremium(((uint256[3]))[])": {
        "returns": {
          "_0": "true if there is at least one bit set in both the Map and the TileWithCoord[]"
        }
      },
      "isSomePremium(uint256,uint256,uint256)": {
        "details": "the coordinates must be % size and size can be 1, 3, 6, 12 and 24 to match the Quads in the land contract",
        "params": {
          "size": "the size of the square",
          "x": "the x coordinate of the square",
          "y": "the y coordinate of the square"
        },
        "returns": {
          "_0": "true if there is at least one bit set in both the Map and the square"
        }
      },
      "length()": {
        "details": "used to iterate off-chain over the tiles.",
        "returns": {
          "_0": "the length of the list"
        }
      },
      "renounceRole(bytes32,address)": {
        "details": "Revokes `role` from the calling account. Roles are often managed via {grantRole} and {revokeRole}: this function's purpose is to provide a mechanism for accounts to lose their privileges if they are compromised (such as when a trusted device is misplaced). If the calling account had been revoked `role`, emits a {RoleRevoked} event. Requirements: - the caller must be `account`."
      },
      "revokeRole(bytes32,address)": {
        "details": "Revokes `role` from `account`. If `account` had been granted `role`, emits a {RoleRevoked} event. Requirements: - the caller must have ``role``'s admin role."
      },
      "set(uint256,uint256)": {
        "details": "helper method that can be called by hand",
        "params": {
          "x": "coordinate",
          "y": "coordinate"
        }
      },
      "supportsInterface(bytes4)": {
        "details": "See {IERC165-supportsInterface}."
      }
    },
    "version": 1
  },
  "userdoc": {
    "kind": "user",
    "methods": {
      "assign(((uint256[3]))[])": {
        "notice": "assign the bits of a premium map"
      },
      "at(uint256)": {
        "notice": "get the tile that is in certain position in the internal list of tiles"
      },
      "at(uint256,uint256)": {
        "notice": "get the internal list of tiles with pagination"
      },
      "clear(uint256,uint256)": {
        "notice": "clear a pixel in the premium map"
      },
      "countPremium(uint256,uint256,uint256)": {
        "notice": "Count the amount of premium lands inside the Map filtered by a quad"
      },
      "countPremium(uint256[],uint256[])": {
        "notice": "Count the amount of premium lands."
      },
      "countPremium(uint256[],uint256[],uint256[])": {
        "notice": "Count the amount of premium lands inside the Map filtered by a quad"
      },
      "getLandCount()": {
        "notice": "count the amount of bits (lands) set inside a Map"
      },
      "getMap()": {
        "notice": "return the internal list of tiles"
      },
      "isAdjacent(uint256,uint256,uint256)": {
        "notice": "check if a square is adjacent (4-connected component) to the current map."
      },
      "isAllPremium(((uint256[3])))": {
        "notice": "Check if a Map includes all the bits that are set in a TileWithCoord"
      },
      "isAllPremium(((uint256[3]))[])": {
        "notice": "Check if a Map includes all the bits that are set in a TileWithCoord[]"
      },
      "isAllPremium(uint256,uint256,uint256)": {
        "notice": "Check if the all the bits of a square inside the Map are set or not"
      },
      "isPremium(uint256,uint256)": {
        "notice": "Check if the bit in certain coordinate are set or not inside the map"
      },
      "isSomePremium(((uint256[3])))": {
        "notice": "Check if a map has at least one bit in common with some TileWithCoord"
      },
      "isSomePremium(uint256,uint256,uint256)": {
        "notice": "Check if a map has at least one bit in common with a square (x,y,size)"
      },
      "length()": {
        "notice": "return the length of the internal list of tiles"
      },
      "set(uint256,uint256)": {
        "notice": "set a pixel in the premium map"
      }
    },
    "notice": "A 408x408 matrix of bits, true means that the land is premium",
    "version": 1
  },
  "storageLayout": {
    "storage": [
      {
        "astId": 10217,
        "contract": "src/solc_0.8/registry/PremiumLandRegistry.sol:PremiumLandRegistry",
        "label": "_initialized",
        "offset": 0,
        "slot": "0",
        "type": "t_bool"
      },
      {
        "astId": 10220,
        "contract": "src/solc_0.8/registry/PremiumLandRegistry.sol:PremiumLandRegistry",
        "label": "_initializing",
        "offset": 1,
        "slot": "0",
        "type": "t_bool"
      },
      {
        "astId": 12276,
        "contract": "src/solc_0.8/registry/PremiumLandRegistry.sol:PremiumLandRegistry",
        "label": "__gap",
        "offset": 0,
        "slot": "1",
        "type": "t_array(t_uint256)50_storage"
      },
      {
        "astId": 13138,
        "contract": "src/solc_0.8/registry/PremiumLandRegistry.sol:PremiumLandRegistry",
        "label": "__gap",
        "offset": 0,
        "slot": "51",
        "type": "t_array(t_uint256)50_storage"
      },
      {
        "astId": 9622,
        "contract": "src/solc_0.8/registry/PremiumLandRegistry.sol:PremiumLandRegistry",
        "label": "_roles",
        "offset": 0,
        "slot": "101",
        "type": "t_mapping(t_bytes32,t_struct(RoleData)9617_storage)"
      },
      {
        "astId": 9909,
        "contract": "src/solc_0.8/registry/PremiumLandRegistry.sol:PremiumLandRegistry",
        "label": "__gap",
        "offset": 0,
        "slot": "102",
        "type": "t_array(t_uint256)49_storage"
      },
      {
        "astId": 69026,
        "contract": "src/solc_0.8/registry/PremiumLandRegistry.sol:PremiumLandRegistry",
        "label": "__gap",
        "offset": 0,
        "slot": "151",
        "type": "t_array(t_uint256)50_storage"
      }
    ],
    "types": {
      "t_address": {
        "encoding": "inplace",
        "label": "address",
        "numberOfBytes": "20"
      },
      "t_array(t_uint256)49_storage": {
        "base": "t_uint256",
        "encoding": "inplace",
        "label": "uint256[49]",
        "numberOfBytes": "1568"
      },
      "t_array(t_uint256)50_storage": {
        "base": "t_uint256",
        "encoding": "inplace",
        "label": "uint256[50]",
        "numberOfBytes": "1600"
      },
      "t_bool": {
        "encoding": "inplace",
        "label": "bool",
        "numberOfBytes": "1"
      },
      "t_bytes32": {
        "encoding": "inplace",
        "label": "bytes32",
        "numberOfBytes": "32"
      },
      "t_mapping(t_address,t_bool)": {
        "encoding": "mapping",
        "key": "t_address",
        "label": "mapping(address => bool)",
        "numberOfBytes": "32",
        "value": "t_bool"
      },
      "t_mapping(t_bytes32,t_struct(RoleData)9617_storage)": {
        "encoding": "mapping",
        "key": "t_bytes32",
        "label": "mapping(bytes32 => struct AccessControlUpgradeable.RoleData)",
        "numberOfBytes": "32",
        "value": "t_struct(RoleData)9617_storage"
      },
      "t_struct(RoleData)9617_storage": {
        "encoding": "inplace",
        "label": "struct AccessControlUpgradeable.RoleData",
        "members": [
          {
            "astId": 9614,
            "contract": "src/solc_0.8/registry/PremiumLandRegistry.sol:PremiumLandRegistry",
            "label": "members",
            "offset": 0,
            "slot": "0",
            "type": "t_mapping(t_address,t_bool)"
          },
          {
            "astId": 9616,
            "contract": "src/solc_0.8/registry/PremiumLandRegistry.sol:PremiumLandRegistry",
            "label": "adminRole",
            "offset": 0,
            "slot": "1",
            "type": "t_bytes32"
          }
        ],
        "numberOfBytes": "64"
      },
      "t_uint256": {
        "encoding": "inplace",
        "label": "uint256",
        "numberOfBytes": "32"
      }
    }
  }
}