{
  "address": "0x1469A7af403A3137Fa6B246213D76d81CAe205ef",
  "abi": [
    {
      "inputs": [
        {
          "internalType": "address",
          "name": "landAddress",
          "type": "address"
        },
        {
          "internalType": "address",
          "name": "sandContractAddress",
          "type": "address"
        },
        {
          "internalType": "address",
          "name": "initialMetaTx",
          "type": "address"
        },
        {
          "internalType": "address",
          "name": "admin",
          "type": "address"
        },
        {
          "internalType": "address payable",
          "name": "initialWalletAddress",
          "type": "address"
        },
        {
          "internalType": "bytes32",
          "name": "merkleRoot",
          "type": "bytes32"
        },
        {
          "internalType": "uint256",
          "name": "expiryTime",
          "type": "uint256"
        },
        {
          "internalType": "address",
          "name": "initialSigningWallet",
          "type": "address"
        },
        {
          "internalType": "uint256",
          "name": "initialMaxCommissionRate",
          "type": "uint256"
        },
        {
          "internalType": "address",
          "name": "estate",
          "type": "address"
        },
        {
          "internalType": "address",
          "name": "asset",
          "type": "address"
        },
        {
          "internalType": "address",
          "name": "feeDistributor",
          "type": "address"
        },
        {
          "internalType": "address",
          "name": "authValidator",
          "type": "address"
        }
      ],
      "stateMutability": "nonpayable",
      "type": "constructor"
    },
    {
      "anonymous": false,
      "inputs": [
        {
          "indexed": false,
          "internalType": "address",
          "name": "oldAdmin",
          "type": "address"
        },
        {
          "indexed": false,
          "internalType": "address",
          "name": "newAdmin",
          "type": "address"
        }
      ],
      "name": "AdminChanged",
      "type": "event"
    },
    {
      "anonymous": false,
      "inputs": [
        {
          "indexed": true,
          "internalType": "address",
          "name": "buyer",
          "type": "address"
        },
        {
          "indexed": true,
          "internalType": "address",
          "name": "to",
          "type": "address"
        },
        {
          "indexed": true,
          "internalType": "uint256",
          "name": "topCornerId",
          "type": "uint256"
        },
        {
          "indexed": false,
          "internalType": "uint256",
          "name": "size",
          "type": "uint256"
        },
        {
          "indexed": false,
          "internalType": "uint256",
          "name": "price",
          "type": "uint256"
        },
        {
          "indexed": false,
          "internalType": "address",
          "name": "token",
          "type": "address"
        },
        {
          "indexed": false,
          "internalType": "uint256",
          "name": "amountPaid",
          "type": "uint256"
        }
      ],
      "name": "LandQuadPurchased",
      "type": "event"
    },
    {
      "anonymous": false,
      "inputs": [
        {
          "indexed": true,
          "internalType": "uint256",
          "name": "newMaxCommissionRate",
          "type": "uint256"
        }
      ],
      "name": "MaxCommissionRateUpdated",
      "type": "event"
    },
    {
      "anonymous": false,
      "inputs": [
        {
          "indexed": false,
          "internalType": "address",
          "name": "metaTransactionProcessor",
          "type": "address"
        },
        {
          "indexed": false,
          "internalType": "bool",
          "name": "enabled",
          "type": "bool"
        }
      ],
      "name": "MetaTransactionProcessor",
      "type": "event"
    },
    {
      "anonymous": false,
      "inputs": [
        {
          "indexed": true,
          "internalType": "address",
          "name": "newWallet",
          "type": "address"
        }
      ],
      "name": "NewReceivingWallet",
      "type": "event"
    },
    {
      "anonymous": false,
      "inputs": [
        {
          "indexed": true,
          "internalType": "address",
          "name": "referrer",
          "type": "address"
        },
        {
          "indexed": true,
          "internalType": "address",
          "name": "referee",
          "type": "address"
        },
        {
          "indexed": true,
          "internalType": "address",
          "name": "token",
          "type": "address"
        },
        {
          "indexed": false,
          "internalType": "uint256",
          "name": "amount",
          "type": "uint256"
        },
        {
          "indexed": false,
          "internalType": "uint256",
          "name": "commission",
          "type": "uint256"
        },
        {
          "indexed": false,
          "internalType": "uint256",
          "name": "commissionRate",
          "type": "uint256"
        }
      ],
      "name": "ReferralUsed",
      "type": "event"
    },
    {
      "anonymous": false,
      "inputs": [
        {
          "indexed": true,
          "internalType": "address",
          "name": "newSigningWallet",
          "type": "address"
        }
      ],
      "name": "SigningWalletUpdated",
      "type": "event"
    },
    {
      "inputs": [
        {
          "internalType": "address",
          "name": "buyer",
          "type": "address"
        },
        {
          "internalType": "address",
          "name": "to",
          "type": "address"
        },
        {
          "internalType": "address",
          "name": "reserved",
          "type": "address"
        },
        {
          "internalType": "uint256[]",
          "name": "info",
          "type": "uint256[]"
        },
        {
          "internalType": "bytes32",
          "name": "salt",
          "type": "bytes32"
        },
        {
          "internalType": "uint256[]",
          "name": "assetIds",
          "type": "uint256[]"
        },
        {
          "internalType": "bytes32[]",
          "name": "proof",
          "type": "bytes32[]"
        },
        {
          "internalType": "bytes",
          "name": "referral",
          "type": "bytes"
        },
        {
          "internalType": "bytes",
          "name": "signature",
          "type": "bytes"
        }
      ],
      "name": "buyLandWithSand",
      "outputs": [],
      "stateMutability": "nonpayable",
      "type": "function"
    },
    {
      "inputs": [
        {
          "internalType": "address",
          "name": "newAdmin",
          "type": "address"
        }
      ],
      "name": "changeAdmin",
      "outputs": [],
      "stateMutability": "nonpayable",
      "type": "function"
    },
    {
      "inputs": [
        {
          "internalType": "bytes",
          "name": "referral",
          "type": "bytes"
        }
      ],
      "name": "decodeReferral",
      "outputs": [
        {
          "internalType": "bytes",
          "name": "",
          "type": "bytes"
        },
        {
          "internalType": "address",
          "name": "",
          "type": "address"
        },
        {
          "internalType": "address",
          "name": "",
          "type": "address"
        },
        {
          "internalType": "uint256",
          "name": "",
          "type": "uint256"
        },
        {
          "internalType": "uint256",
          "name": "",
          "type": "uint256"
        }
      ],
      "stateMutability": "pure",
      "type": "function"
    },
    {
      "inputs": [
        {
          "internalType": "address",
          "name": "disableWallet",
          "type": "address"
        }
      ],
      "name": "disablePreviousSigningWallet",
      "outputs": [],
      "stateMutability": "nonpayable",
      "type": "function"
    },
    {
      "inputs": [],
      "name": "getAdmin",
      "outputs": [
        {
          "internalType": "address",
          "name": "",
          "type": "address"
        }
      ],
      "stateMutability": "view",
      "type": "function"
    },
    {
      "inputs": [],
      "name": "getExpiryTime",
      "outputs": [
        {
          "internalType": "uint256",
          "name": "",
          "type": "uint256"
        }
      ],
      "stateMutability": "view",
      "type": "function"
    },
    {
      "inputs": [],
      "name": "getMaxCommissionRate",
      "outputs": [
        {
          "internalType": "uint256",
          "name": "",
          "type": "uint256"
        }
      ],
      "stateMutability": "view",
      "type": "function"
    },
    {
      "inputs": [],
      "name": "getMerkleRoot",
      "outputs": [
        {
          "internalType": "bytes32",
          "name": "",
          "type": "bytes32"
        }
      ],
      "stateMutability": "view",
      "type": "function"
    },
    {
      "inputs": [],
      "name": "getSigningWallet",
      "outputs": [
        {
          "internalType": "address",
          "name": "",
          "type": "address"
        }
      ],
      "stateMutability": "view",
      "type": "function"
    },
    {
      "inputs": [
        {
          "internalType": "address",
          "name": "who",
          "type": "address"
        }
      ],
      "name": "isMetaTransactionProcessor",
      "outputs": [
        {
          "internalType": "bool",
          "name": "",
          "type": "bool"
        }
      ],
      "stateMutability": "view",
      "type": "function"
    },
    {
      "inputs": [
        {
          "internalType": "bytes",
          "name": "signature",
          "type": "bytes"
        },
        {
          "internalType": "address",
          "name": "referrer",
          "type": "address"
        },
        {
          "internalType": "address",
          "name": "referee",
          "type": "address"
        },
        {
          "internalType": "uint256",
          "name": "expiryTime",
          "type": "uint256"
        },
        {
          "internalType": "uint256",
          "name": "commissionRate",
          "type": "uint256"
        }
      ],
      "name": "isReferralValid",
      "outputs": [
        {
          "internalType": "bool",
          "name": "",
          "type": "bool"
        }
      ],
      "stateMutability": "view",
      "type": "function"
    },
    {
      "inputs": [
        {
          "internalType": "address",
          "name": "",
          "type": "address"
        },
        {
          "internalType": "address",
          "name": "",
          "type": "address"
        },
        {
          "internalType": "uint256[]",
          "name": "",
          "type": "uint256[]"
        },
        {
          "internalType": "uint256[]",
          "name": "",
          "type": "uint256[]"
        },
        {
          "internalType": "bytes",
          "name": "",
          "type": "bytes"
        }
      ],
      "name": "onERC1155BatchReceived",
      "outputs": [
        {
          "internalType": "bytes4",
          "name": "",
          "type": "bytes4"
        }
      ],
      "stateMutability": "pure",
      "type": "function"
    },
    {
      "inputs": [
        {
          "internalType": "address",
          "name": "",
          "type": "address"
        },
        {
          "internalType": "address",
          "name": "",
          "type": "address"
        },
        {
          "internalType": "uint256",
          "name": "",
          "type": "uint256"
        },
        {
          "internalType": "uint256",
          "name": "",
          "type": "uint256"
        },
        {
          "internalType": "bytes",
          "name": "",
          "type": "bytes"
        }
      ],
      "name": "onERC1155Received",
      "outputs": [
        {
          "internalType": "bytes4",
          "name": "",
          "type": "bytes4"
        }
      ],
      "stateMutability": "pure",
      "type": "function"
    },
    {
      "inputs": [
        {
          "internalType": "address",
          "name": "metaTransactionProcessor",
          "type": "address"
        },
        {
          "internalType": "bool",
          "name": "enabled",
          "type": "bool"
        }
      ],
      "name": "setMetaTransactionProcessor",
      "outputs": [],
      "stateMutability": "nonpayable",
      "type": "function"
    },
    {
      "inputs": [
        {
          "internalType": "address payable",
          "name": "newWallet",
          "type": "address"
        }
      ],
      "name": "setReceivingWallet",
      "outputs": [],
      "stateMutability": "nonpayable",
      "type": "function"
    },
    {
      "inputs": [
        {
          "internalType": "uint256",
          "name": "newMaxCommissionRate",
          "type": "uint256"
        }
      ],
      "name": "updateMaxCommissionRate",
      "outputs": [],
      "stateMutability": "nonpayable",
      "type": "function"
    },
    {
      "inputs": [
        {
          "internalType": "address",
          "name": "newSigningWallet",
          "type": "address"
        }
      ],
      "name": "updateSigningWallet",
      "outputs": [],
      "stateMutability": "nonpayable",
      "type": "function"
    },
    {
      "inputs": [
        {
          "internalType": "address",
          "name": "to",
          "type": "address"
        },
        {
          "internalType": "uint256[]",
          "name": "assetIds",
          "type": "uint256[]"
        },
        {
          "internalType": "uint256[]",
          "name": "values",
          "type": "uint256[]"
        }
      ],
      "name": "withdrawAssets",
      "outputs": [],
      "stateMutability": "nonpayable",
      "type": "function"
    }
  ],
  "transactionHash": "0x9ad2f6e91fa5cd8c9cccd57b7ea1ca583ca164d9d8356936b53b2f233abc3a5c",
  "args": [
    "0x525129b95bA89B9800e47ef3dc7d23fBAd27b1a3",
    "0x592daadC9eA7F56A81De1FD27A723Bd407709c46",
    "0x592daadC9eA7F56A81De1FD27A723Bd407709c46",
    "0x49c4D4C94829B9c44052C5f5Cb164Fc612181165",
    "0xa5Eb9C9Eb4F4c35B9Be8cFaAA7909F9ebe6Cb609",
    "0xc7d9d4879420770beb0f9e698fa51b55c2d0ac5195f5488413c10449e606b53b",
    2017310400,
    "0xB7060D3FeCAC3AE1F0A0AA416E3e8E472257950e",
    2000,
    "0x0000000000000000000000000000000000000000",
    "0xB766Af2EfCB61bd5a261E007D8866f005E305D5d",
    "0xAc3ff31f526Af7f386ea43649e3fa67e329AeF93",
    "0x1d3CE3489a064aEFc9928fe08F9d2Dd968F5c969"
  ],
  "numDeployments": 1,
  "linkedData": [
    {
      "x": 102,
      "y": 195,
      "size": 1,
      "price": "1011000000000000000000",
      "reserved": "",
      "salt": "0xcacb33dce6d3a0ee0dad2ef5470ed493479475ab3cdf261631afa57055070961",
      "assetIds": []
    },
    {
      "x": 102,
      "y": 196,
      "size": 1,
      "price": "1011000000000000000000",
      "reserved": "",
      "salt": "0xbec4faaecfc228d98804442422c970d057253132d79a719c561a0e583f0c53ff",
      "assetIds": []
    },
    {
      "x": 102,
      "y": 197,
      "size": 1,
      "price": "1011000000000000000000",
      "reserved": "",
      "salt": "0x75a180728213a3c191c7bbb8205c6769e448d584a89e537461c8922a9af0ebb8",
      "assetIds": []
    },
    {
      "x": 102,
      "y": 201,
      "size": 1,
      "price": "1011000000000000000000",
      "reserved": "",
      "salt": "0xdf0aef4a396dd90a59e10c53a350eab4c2d1dffb3e713e7acd7f5c5b9f723779",
      "assetIds": []
    },
    {
      "x": 102,
      "y": 202,
      "size": 1,
      "price": "1011000000000000000000",
      "reserved": "",
      "salt": "0x04fc6bc57ef9bc3a49b0eae830f28f664e57aeb13816b25667d3c923affea33a",
      "assetIds": []
    },
    {
      "x": 102,
      "y": 203,
      "size": 1,
      "price": "1011000000000000000000",
      "reserved": "",
      "salt": "0xbf9f5d998c0fa68e9800c25ea51e27cc2374b73fe4f8a4850be61c80c0f05e35",
      "assetIds": []
    },
    {
      "x": 103,
      "y": 195,
      "size": 1,
      "price": "1011000000000000000000",
      "reserved": "",
      "salt": "0xeda8d4f6690f8216b7f9de1d3ae01e0994cc44f82db811ae69fac2cb07643a16",
      "assetIds": []
    },
    {
      "x": 103,
      "y": 196,
      "size": 1,
      "price": "1011000000000000000000",
      "reserved": "",
      "salt": "0x5cc80e1f489d49c6d24e35bf402636f7f3fcd5908cf1898538adcee81e2d29ea",
      "assetIds": []
    },
    {
      "x": 103,
      "y": 197,
      "size": 1,
      "price": "1011000000000000000000",
      "reserved": "",
      "salt": "0x67e998995a7539637cb30d3749a1b8f91b84284512f649a6ee93b94ee8a76463",
      "assetIds": []
    },
    {
      "x": 103,
      "y": 201,
      "size": 1,
      "price": "1011000000000000000000",
      "reserved": "",
      "salt": "0xe43e6a20048faef7ca785af293059019510609cdfd9c609535375cead2e6ae7e",
      "assetIds": []
    },
    {
      "x": 103,
      "y": 202,
      "size": 1,
      "price": "1011000000000000000000",
      "reserved": "",
      "salt": "0xc3190ddd2b2248e30d15e11fdb9c9e1b2cdb108f93e6ca01fd1a6100fefc20fa",
      "assetIds": []
    },
    {
      "x": 103,
      "y": 203,
      "size": 1,
      "price": "1011000000000000000000",
      "reserved": "",
      "salt": "0x09fc6d1abfacadbc34a5cc12002f629311b95a1acc5d51f40a9e28abcc2dceb2",
      "assetIds": []
    },
    {
      "x": 104,
      "y": 195,
      "size": 1,
      "price": "1011000000000000000000",
      "reserved": "",
      "salt": "0xdea7ed9df6dca65f140fb091c7ca1c0081420d3e39b301fb94ee3e0bdd848461",
      "assetIds": []
    },
    {
      "x": 104,
      "y": 196,
      "size": 1,
      "price": "1011000000000000000000",
      "reserved": "",
      "salt": "0x7f011a7d5834ee3ebbaa60287d2ab4c826b3dde406bbc842c1e55984e85380dd",
      "assetIds": []
    },
    {
      "x": 104,
      "y": 197,
      "size": 1,
      "price": "1011000000000000000000",
      "reserved": "",
      "salt": "0xe061b10a5b1e8000ff46b4d41be41204c7ac8a01f7b466d0b7cf89d12f5ecee6",
      "assetIds": []
    },
    {
      "x": 104,
      "y": 201,
      "size": 1,
      "price": "1011000000000000000000",
      "reserved": "",
      "salt": "0xa14d2c3cd0849d711cf40b89c5cd18628e315fb73aa0462e72dc65a34dc177cf",
      "assetIds": []
    },
    {
      "x": 104,
      "y": 202,
      "size": 1,
      "price": "1011000000000000000000",
      "reserved": "",
      "salt": "0x37333724854fe3e9e48eb026a8171871061f9ccf6e7e2eed14d93386be91cac6",
      "assetIds": []
    },
    {
      "x": 104,
      "y": 203,
      "size": 1,
      "price": "1011000000000000000000",
      "reserved": "",
      "salt": "0x49e42aa5a80bc7f533176c4bae963224d940906b4b441bf7ef756ecceba7d296",
      "assetIds": []
    },
    {
      "x": 105,
      "y": 192,
      "size": 1,
      "price": "1011000000000000000000",
      "reserved": "",
      "salt": "0x10f259b00989c30cbe263c213cde3f9d2998fdc815bf5c286359be9ac680c8c7",
      "assetIds": []
    },
    {
      "x": 105,
      "y": 193,
      "size": 1,
      "price": "1011000000000000000000",
      "reserved": "",
      "salt": "0xd5dec1165eb3ee82ee70537787837c23328413da052d7114d51e8f20541b6a55",
      "assetIds": []
    },
    {
      "x": 105,
      "y": 194,
      "size": 1,
      "price": "4683000000000000000000",
      "reserved": "",
      "salt": "0x8dcce6020aa164c4a1b14811902d035732b90827188c3a9c66e8b14f9a494f04",
      "assetIds": []
    },
    {
      "x": 105,
      "y": 198,
      "size": 1,
      "price": "4683000000000000000000",
      "reserved": "",
      "salt": "0x778e8dfed573c7b1cb14e54b8834e0fd32da5094fe5bae2ef4b1a605213758d4",
      "assetIds": []
    },
    {
      "x": 105,
      "y": 199,
      "size": 1,
      "price": "1011000000000000000000",
      "reserved": "",
      "salt": "0xda7e072e8f027db4e987f286083185fbed73f0cbda15bfc2f1b533077ff66d93",
      "assetIds": []
    },
    {
      "x": 105,
      "y": 200,
      "size": 1,
      "price": "1011000000000000000000",
      "reserved": "",
      "salt": "0x014a37320c0c88ca8e66162e817b57eac1a83aece3315a9ef64ac8729db02df9",
      "assetIds": []
    },
    {
      "x": 106,
      "y": 192,
      "size": 1,
      "price": "1011000000000000000000",
      "reserved": "",
      "salt": "0x81fd5a3dd8cf26491e9289a1cb5f7107b8e6ce83fdd72674d2f10f948e08eb9e",
      "assetIds": []
    },
    {
      "x": 106,
      "y": 193,
      "size": 1,
      "price": "1011000000000000000000",
      "reserved": "",
      "salt": "0xb3b5aeab7c1c82056497602e61876eeab406b1c2ebabb3035c5bfc904dae4e67",
      "assetIds": []
    },
    {
      "x": 106,
      "y": 194,
      "size": 1,
      "price": "4683000000000000000000",
      "reserved": "",
      "salt": "0xe3ed91c69bd56b15aa0e9b453d3e08435b7bd8a1d78fd721dd9689512dd3c1e4",
      "assetIds": []
    },
    {
      "x": 106,
      "y": 198,
      "size": 1,
      "price": "1011000000000000000000",
      "reserved": "",
      "salt": "0xf62c42eee1041a025c71e511e16dafeae84dd76f4cf467093a98d84e843eb1bf",
      "assetIds": []
    },
    {
      "x": 106,
      "y": 199,
      "size": 1,
      "price": "1011000000000000000000",
      "reserved": "",
      "salt": "0x9b7179e176cc305cbb61f5ace5065016895028a30710955911d134872f141471",
      "assetIds": []
    },
    {
      "x": 106,
      "y": 200,
      "size": 1,
      "price": "1011000000000000000000",
      "reserved": "",
      "salt": "0x86a9167a15d6b53f214908d511b0c9876376bf4717d0a70baff270163f1d516d",
      "assetIds": []
    },
    {
      "x": 107,
      "y": 192,
      "size": 1,
      "price": "1011000000000000000000",
      "reserved": "",
      "salt": "0x36cb60c6f277f712ceff2561c641f07a263f7e6385b0d5fd5cbcd2400f4334d3",
      "assetIds": []
    },
    {
      "x": 107,
      "y": 193,
      "size": 1,
      "price": "1011000000000000000000",
      "reserved": "",
      "salt": "0xb61e755e7e7ca1fdb05b57fd2d3437f816600237604bc693f3e0b01b29dbd2c8",
      "assetIds": []
    },
    {
      "x": 107,
      "y": 194,
      "size": 1,
      "price": "4683000000000000000000",
      "reserved": "",
      "salt": "0x8ad8981ce5d104b1942f5f3be55426ed95cc650f94838187f54713af313be657",
      "assetIds": []
    },
    {
      "x": 107,
      "y": 198,
      "size": 1,
      "price": "4683000000000000000000",
      "reserved": "",
      "salt": "0xed572018682ef42f3fd173020814e58be0e26c6aa9ba415dc03e4da26348f832",
      "assetIds": []
    },
    {
      "x": 107,
      "y": 199,
      "size": 1,
      "price": "1011000000000000000000",
      "reserved": "",
      "salt": "0x90c5310b1dcbd986fdf7501a2b3ef842cedc080729f4b74fabdcec29b6185ad6",
      "assetIds": []
    },
    {
      "x": 107,
      "y": 200,
      "size": 1,
      "price": "1011000000000000000000",
      "reserved": "",
      "salt": "0x7bc589cbaa0561d95a2e58fb8ad38ddcc3d5b93c803daf33af9a2ff8442b3533",
      "assetIds": []
    },
    {
      "x": 108,
      "y": 189,
      "size": 1,
      "price": "1011000000000000000000",
      "reserved": "",
      "salt": "0x231227fba4b977af629d86b07bfc0187775cce88defe3b232921997fc4c85ad3",
      "assetIds": []
    },
    {
      "x": 108,
      "y": 190,
      "size": 1,
      "price": "1011000000000000000000",
      "reserved": "",
      "salt": "0xc8121500be54b942edeed8b36ceb4e0feca23e1c63620a28fb8d3cc91ff67043",
      "assetIds": []
    },
    {
      "x": 108,
      "y": 191,
      "size": 1,
      "price": "1011000000000000000000",
      "reserved": "",
      "salt": "0x9f4158bdcf8d6005c2865c7c2789186311a129e1782edd04463f038715be7245",
      "assetIds": []
    },
    {
      "x": 108,
      "y": 192,
      "size": 1,
      "price": "1011000000000000000000",
      "reserved": "",
      "salt": "0xe7becf209d5ee711b5baa10efadeca187675c8fb2c72de4c6dbfc81753bbef7a",
      "assetIds": []
    },
    {
      "x": 108,
      "y": 193,
      "size": 1,
      "price": "1011000000000000000000",
      "reserved": "",
      "salt": "0x6a62b520151daa459c44203a45490de54f4d82ffed373823a99c20f0ce4d47cc",
      "assetIds": []
    },
    {
      "x": 108,
      "y": 194,
      "size": 1,
      "price": "1011000000000000000000",
      "reserved": "",
      "salt": "0x8b454aacdf10a509a036828a446bf50befcecb0b9ecdf72e1f951621a6ccfc2c",
      "assetIds": []
    },
    {
      "x": 108,
      "y": 195,
      "size": 1,
      "price": "4683000000000000000000",
      "reserved": "",
      "salt": "0x57573d7e6e345975085c39b15fc9b968d7f46406b4116b4cc6e97fef9775689f",
      "assetIds": []
    },
    {
      "x": 108,
      "y": 196,
      "size": 1,
      "price": "4683000000000000000000",
      "reserved": "",
      "salt": "0x68daa7f4a1a4c720db6ee0d375841e86712b9d4196844ba62e0cc8b5f6afcbfc",
      "assetIds": []
    },
    {
      "x": 108,
      "y": 197,
      "size": 1,
      "price": "4683000000000000000000",
      "reserved": "",
      "salt": "0x2810e45ab63b2155ba74ac307a21cc61d4f708921dd7b32cf4adaaa2245c29bc",
      "assetIds": []
    },
    {
      "x": 108,
      "y": 198,
      "size": 1,
      "price": "1011000000000000000000",
      "reserved": "",
      "salt": "0xf9308b3a37aea0e15456e634404051be1938a070d020d6b3ca4b9f4845afa3f6",
      "assetIds": []
    },
    {
      "x": 108,
      "y": 199,
      "size": 1,
      "price": "1011000000000000000000",
      "reserved": "",
      "salt": "0xddbe4c593c2f15044bb76995654994fa8ccef2fb596056261b52d8285ca41071",
      "assetIds": []
    },
    {
      "x": 108,
      "y": 200,
      "size": 1,
      "price": "1011000000000000000000",
      "reserved": "",
      "salt": "0xa48c9553d0152789e1e2df596ac5f6bddb03dce7d92d15d59905d6201483bb99",
      "assetIds": []
    },
    {
      "x": 109,
      "y": 189,
      "size": 1,
      "price": "1011000000000000000000",
      "reserved": "",
      "salt": "0x46b90bf6167b25fe05f30d869d5c12553ebbfc339cb2fda464982cc658943ce9",
      "assetIds": []
    },
    {
      "x": 109,
      "y": 190,
      "size": 1,
      "price": "1011000000000000000000",
      "reserved": "",
      "salt": "0xdfbc7c5dc8e36775c805b01fc670e8036e2ff33edbb7fa3c7f6959c9ea8ab0cd",
      "assetIds": []
    },
    {
      "x": 109,
      "y": 191,
      "size": 1,
      "price": "1011000000000000000000",
      "reserved": "",
      "salt": "0xa468a49ce63b480aa0b5ea6012515c6e0f920cf0a169923d3cf57dbb6300049b",
      "assetIds": []
    },
    {
      "x": 109,
      "y": 192,
      "size": 1,
      "price": "1011000000000000000000",
      "reserved": "",
      "salt": "0xdfd004018065ed531b00cb6b82c13085f27962a8aef2500a5b6bf9bcb923ab44",
      "assetIds": []
    },
    {
      "x": 109,
      "y": 193,
      "size": 1,
      "price": "1011000000000000000000",
      "reserved": "",
      "salt": "0x6b037ac1474a9616e3ace3940971cf69236eb32fb726f5a7161e21268c3a499c",
      "assetIds": []
    },
    {
      "x": 109,
      "y": 194,
      "size": 1,
      "price": "1011000000000000000000",
      "reserved": "",
      "salt": "0xfc7b2e6ce2d616c6ea172e3fbd69904150b7752ec2dade1a11ab22d0138b7acc",
      "assetIds": []
    },
    {
      "x": 109,
      "y": 195,
      "size": 1,
      "price": "1011000000000000000000",
      "reserved": "",
      "salt": "0xef828fe47ec57b26b7b20034eaf57dfdc469bfa4019a7d9afe1d429a3a6886bc",
      "assetIds": []
    },
    {
      "x": 109,
      "y": 196,
      "size": 1,
      "price": "1011000000000000000000",
      "reserved": "",
      "salt": "0x21d0188dbcf7cf039977bda8779368effb1df36e6b014138d7304c58b2f383eb",
      "assetIds": []
    },
    {
      "x": 109,
      "y": 197,
      "size": 1,
      "price": "1011000000000000000000",
      "reserved": "",
      "salt": "0x27bd72766e39c67e3f384932a388239d00076bd303c9c4bda3f10e482a083d32",
      "assetIds": []
    },
    {
      "x": 109,
      "y": 198,
      "size": 1,
      "price": "1011000000000000000000",
      "reserved": "",
      "salt": "0x4ec06b9eba62f90fd529eb1632a52b6c0cd3c87b009cb8ca4be9532e733a7dcf",
      "assetIds": []
    },
    {
      "x": 109,
      "y": 199,
      "size": 1,
      "price": "1011000000000000000000",
      "reserved": "",
      "salt": "0x3b54c841369b3948b102e4bab9716e0ae37225f3dd2049b54467fcf045d676e0",
      "assetIds": []
    },
    {
      "x": 109,
      "y": 200,
      "size": 1,
      "price": "1011000000000000000000",
      "reserved": "",
      "salt": "0x1aa72f77a867d74c875ca551eae7d102f3a50eefaaa1d9aa5cf77273b60edda3",
      "assetIds": []
    },
    {
      "x": 110,
      "y": 189,
      "size": 1,
      "price": "1011000000000000000000",
      "reserved": "",
      "salt": "0x4b6cb0b4b4808f61d03d0a1982f95290a40bc084feae9ecf435dffdd3da41d0f",
      "assetIds": []
    },
    {
      "x": 110,
      "y": 190,
      "size": 1,
      "price": "4683000000000000000000",
      "reserved": "",
      "salt": "0x6f0ca9308bd063178f060a5f5d75d8a02e67e801831ebade172f42446c830037",
      "assetIds": []
    },
    {
      "x": 110,
      "y": 191,
      "size": 1,
      "price": "4683000000000000000000",
      "reserved": "",
      "salt": "0x0ee7338a493a299bfe59c2e94eeb80b793e302621148bd8a9df97d0a8a46bad1",
      "assetIds": []
    },
    {
      "x": 110,
      "y": 192,
      "size": 1,
      "price": "1011000000000000000000",
      "reserved": "",
      "salt": "0x305498e234eb48533263d1e7af1d1f6ac814c654ed654ec88f34a4578488782c",
      "assetIds": []
    },
    {
      "x": 110,
      "y": 193,
      "size": 1,
      "price": "1011000000000000000000",
      "reserved": "",
      "salt": "0x4ba0ae1fe10c6aafad202342dd10546480ba0c34e6395137e052f7ed64975fa3",
      "assetIds": []
    },
    {
      "x": 110,
      "y": 194,
      "size": 1,
      "price": "1011000000000000000000",
      "reserved": "",
      "salt": "0x57d01c516fc96058ef1bd362924c15accb862a44101687aead0bc08b6fec2e8f",
      "assetIds": []
    },
    {
      "x": 110,
      "y": 195,
      "size": 1,
      "price": "1011000000000000000000",
      "reserved": "",
      "salt": "0x587fe621cf3864e2f17cead740f06189b25545dd8c5f4f5e0fefc1aac60511aa",
      "assetIds": []
    },
    {
      "x": 110,
      "y": 196,
      "size": 1,
      "price": "1011000000000000000000",
      "reserved": "",
      "salt": "0x821217bc5a8e3715aea6e8e45b0e84336ef6693d5adf3e4001a0b67512324abc",
      "assetIds": []
    },
    {
      "x": 110,
      "y": 197,
      "size": 1,
      "price": "1011000000000000000000",
      "reserved": "",
      "salt": "0x4ebed934c1da52e9677aac460a1dde354591333f8319d5a3cfaaa7fe9d49b91a",
      "assetIds": []
    },
    {
      "x": 110,
      "y": 198,
      "size": 1,
      "price": "1011000000000000000000",
      "reserved": "",
      "salt": "0x7979f68ce51800324aac2494fbd2ae888c34fba64e43827fa042c4228dcb6014",
      "assetIds": []
    },
    {
      "x": 110,
      "y": 199,
      "size": 1,
      "price": "1011000000000000000000",
      "reserved": "",
      "salt": "0x53604fd82633c291efe2934da3ef71ddb82d077ec21eca838443fe0734b634c6",
      "assetIds": []
    },
    {
      "x": 110,
      "y": 200,
      "size": 1,
      "price": "1011000000000000000000",
      "reserved": "",
      "salt": "0x378c7c4b43a8e687a977aa30a9b89bd36aafe5bb8c9268f32f27e7c6e7c1073d",
      "assetIds": []
    },
    {
      "x": 111,
      "y": 186,
      "size": 1,
      "price": "1011000000000000000000",
      "reserved": "",
      "salt": "0x99fac769a36c3eb2aa7872a6d648419a66a072204c4d4d910c843fab3337db35",
      "assetIds": []
    },
    {
      "x": 111,
      "y": 187,
      "size": 1,
      "price": "1011000000000000000000",
      "reserved": "",
      "salt": "0xd0e986fc9b61d88c8eb80f7aeff97bae3dfe815d2316a2f8568ab35af3fab8ef",
      "assetIds": []
    },
    {
      "x": 111,
      "y": 188,
      "size": 1,
      "price": "4683000000000000000000",
      "reserved": "",
      "salt": "0x935a35a1f826ba313779cd0f3253a2ad2a1e24748538c9fd0768423a05676e20",
      "assetIds": []
    },
    {
      "x": 111,
      "y": 192,
      "size": 1,
      "price": "4683000000000000000000",
      "reserved": "",
      "salt": "0x7c7ae9fa6936909bc8536f5c09afbb8fee8a7c326303cb30f7cb23c1772bab37",
      "assetIds": []
    },
    {
      "x": 111,
      "y": 193,
      "size": 1,
      "price": "1011000000000000000000",
      "reserved": "",
      "salt": "0x8214661817e3ccfc281c8536e57bb506074bf497cde8284cde1acb4fae63e78d",
      "assetIds": []
    },
    {
      "x": 111,
      "y": 194,
      "size": 1,
      "price": "1011000000000000000000",
      "reserved": "",
      "salt": "0x6c2d19306e121f4dfb2cdc77f70f38d6d05cd6415acfa7a5d765528da3aad57d",
      "assetIds": []
    },
    {
      "x": 111,
      "y": 198,
      "size": 1,
      "price": "1011000000000000000000",
      "reserved": "",
      "salt": "0x6105997034ce48f1fa186ea4e16bbdedc74f9eccae73b6fa49eb9c8c486b86e2",
      "assetIds": []
    },
    {
      "x": 111,
      "y": 199,
      "size": 1,
      "price": "1011000000000000000000",
      "reserved": "",
      "salt": "0x386579dea3f149d2734191bea8a90e86ab8fa4726d51601ef8021fd6b984f6e7",
      "assetIds": []
    },
    {
      "x": 111,
      "y": 200,
      "size": 1,
      "price": "1011000000000000000000",
      "reserved": "",
      "salt": "0xe73db8cc3e6149f9476e1ff05c3443fc893e8fdd1c3929c66979daf4dc0d3943",
      "assetIds": []
    },
    {
      "x": 112,
      "y": 186,
      "size": 1,
      "price": "1011000000000000000000",
      "reserved": "",
      "salt": "0x2e5aeb61b7434f4be0d5039f7c69db8c68f2847ea46c2d49d254ebbf9d9fbd55",
      "assetIds": []
    },
    {
      "x": 112,
      "y": 187,
      "size": 1,
      "price": "1011000000000000000000",
      "reserved": "",
      "salt": "0xb0e5addfa1ccfdddd70d5eb35194f85e2b45dce13f8df1f574d05f9770d18427",
      "assetIds": []
    },
    {
      "x": 112,
      "y": 188,
      "size": 1,
      "price": "1011000000000000000000",
      "reserved": "0x7a9fe22691c811ea339d9b73150e6911a5343dca",
      "salt": "0xbe32b87215054d393fb78246553859e5798c9a7234219a48ab7a5abb1dd5b056",
      "assetIds": []
    },
    {
      "x": 112,
      "y": 192,
      "size": 1,
      "price": "4683000000000000000000",
      "reserved": "",
      "salt": "0xb92fc9a398bc3fcf51be749e7054b22d38ca9cee90110737a40c2aa885800e43",
      "assetIds": []
    },
    {
      "x": 112,
      "y": 193,
      "size": 1,
      "price": "1011000000000000000000",
      "reserved": "",
      "salt": "0x8ce69e9945eb90eef01a858d3975a21ef6771765987d54a5aba2dbfc59dfb746",
      "assetIds": []
    },
    {
      "x": 112,
      "y": 194,
      "size": 1,
      "price": "1011000000000000000000",
      "reserved": "",
      "salt": "0xd633a69b6c126714ff8d52f2691f8d9785e4b1c6a66d7abf756615bdc441e6c8",
      "assetIds": []
    },
    {
      "x": 112,
      "y": 198,
      "size": 1,
      "price": "1011000000000000000000",
      "reserved": "",
      "salt": "0xf66a769df30d8f518f08f5feb6ddad7c85c152052795563760b87cafaf0db934",
      "assetIds": []
    },
    {
      "x": 112,
      "y": 199,
      "size": 1,
      "price": "1011000000000000000000",
      "reserved": "0x7a9fe22691c811ea339d9b73150e6911a5343dca",
      "salt": "0xc0103a8bb82ffef3aa91f81e0a0d41d61cf30a837359584dc05979f8cc81f37a",
      "assetIds": []
    },
    {
      "x": 112,
      "y": 200,
      "size": 1,
      "price": "1011000000000000000000",
      "reserved": "",
      "salt": "0xc2c4eff86841e5c5ba45b28befa2928862bcbdbe7bf31dc9d6bafb6dd616db65",
      "assetIds": []
    },
    {
      "x": 113,
      "y": 186,
      "size": 1,
      "price": "1011000000000000000000",
      "reserved": "",
      "salt": "0x10a627979463a8dead059a15547ac4d0447228e3bff65ac3566189e53103fb3e",
      "assetIds": []
    },
    {
      "x": 113,
      "y": 187,
      "size": 1,
      "price": "1011000000000000000000",
      "reserved": "",
      "salt": "0x990452acbf8c629bfd440b369817bdd09b3c8e5eb5864d9683aa211daabd9aff",
      "assetIds": []
    },
    {
      "x": 113,
      "y": 188,
      "size": 1,
      "price": "4683000000000000000000",
      "reserved": "",
      "salt": "0x94005f0d049a9f57265d95418a5a9c7cc32a7901c08184113bc1aa266f6c34d7",
      "assetIds": []
    },
    {
      "x": 113,
      "y": 192,
      "size": 1,
      "price": "4683000000000000000000",
      "reserved": "",
      "salt": "0xa1c33de60b91be206f87b663eb95ec6dd6f8eba7d6ce55c1ab4a8ed7bb705bea",
      "assetIds": []
    },
    {
      "x": 113,
      "y": 193,
      "size": 1,
      "price": "1011000000000000000000",
      "reserved": "",
      "salt": "0x54e09121abda4f7beee56bcc4776ab0c33e8472a5731f3ede7f87c167a6e2380",
      "assetIds": []
    },
    {
      "x": 113,
      "y": 194,
      "size": 1,
      "price": "1011000000000000000000",
      "reserved": "",
      "salt": "0x11f7e56c47a2e5fcf10cca75edf41f9cf15e862062a5a462fe975c92e50ac775",
      "assetIds": []
    },
    {
      "x": 113,
      "y": 198,
      "size": 1,
      "price": "4683000000000000000000",
      "reserved": "",
      "salt": "0xa4721286c2d6fe48e0e25d0c41e04a4a77a49ac11c2d831243d6342248e776b5",
      "assetIds": []
    },
    {
      "x": 113,
      "y": 199,
      "size": 1,
      "price": "4683000000000000000000",
      "reserved": "",
      "salt": "0x50853429e20a70211237eb1d160bd65b9555621deedfef936a1b4bb312ad928e",
      "assetIds": []
    },
    {
      "x": 113,
      "y": 200,
      "size": 1,
      "price": "4683000000000000000000",
      "reserved": "",
      "salt": "0xb9568133fefe371e1725d08b764385d06b33997dafa5fb6cc0a9744c6dd6c176",
      "assetIds": []
    },
    {
      "x": 114,
      "y": 183,
      "size": 1,
      "price": "1011000000000000000000",
      "reserved": "",
      "salt": "0x3d7831906063d0ba2349adcb2cb5a2a98f5eaee997b641c5fda7d47750a044d2",
      "assetIds": []
    },
    {
      "x": 114,
      "y": 184,
      "size": 1,
      "price": "1011000000000000000000",
      "reserved": "",
      "salt": "0x7421823944bef05f012d1beac17c79d47ee7aeede799861421858a63e87ad681",
      "assetIds": []
    },
    {
      "x": 114,
      "y": 185,
      "size": 1,
      "price": "1011000000000000000000",
      "reserved": "",
      "salt": "0x6b9740ef2de9459737b2c8cb27d46170c5c4ad965cf00279cc6f01b7f4027e25",
      "assetIds": []
    },
    {
      "x": 114,
      "y": 192,
      "size": 1,
      "price": "1011000000000000000000",
      "reserved": "",
      "salt": "0x62ce4c7d15f1904d3ee7b75f414ee759eacde03f70c4d56984016eea4cc7ef6f",
      "assetIds": []
    },
    {
      "x": 114,
      "y": 193,
      "size": 1,
      "price": "1011000000000000000000",
      "reserved": "",
      "salt": "0x9f9e36ee98797a801e5f2575e65da9a5856f18b726533a875c330e71778d0134",
      "assetIds": []
    },
    {
      "x": 114,
      "y": 194,
      "size": 1,
      "price": "1011000000000000000000",
      "reserved": "",
      "salt": "0x868b6facd094dcc6f172b5ae3f759115110e95bf543f13884f583a75b858a53b",
      "assetIds": []
    },
    {
      "x": 114,
      "y": 195,
      "size": 1,
      "price": "1011000000000000000000",
      "reserved": "",
      "salt": "0x5a3e186c38857d03e952b8ab27111d2ff57a7eaff0f4c7fb681b09e7c3e90773",
      "assetIds": []
    },
    {
      "x": 114,
      "y": 196,
      "size": 1,
      "price": "1011000000000000000000",
      "reserved": "",
      "salt": "0x25f23c77b9fa258ed9d039ad52a14efd5b3ed5085f125ace8dba2d47a1f73af1",
      "assetIds": []
    },
    {
      "x": 114,
      "y": 197,
      "size": 1,
      "price": "1011000000000000000000",
      "reserved": "",
      "salt": "0x546699672aec6c40570a2467f97e767a1339e7a9d1baf120e910667f6132df83",
      "assetIds": []
    },
    {
      "x": 115,
      "y": 183,
      "size": 1,
      "price": "1011000000000000000000",
      "reserved": "",
      "salt": "0xe4b58856d6051bf723d29a7dd48c93d848c7b37adbeb987e28429ca27d4a537a",
      "assetIds": []
    },
    {
      "x": 115,
      "y": 184,
      "size": 1,
      "price": "1011000000000000000000",
      "reserved": "",
      "salt": "0xd82184913fd229f604c0c7b0b817c949c18c328602624d82b5843c128d4fedb8",
      "assetIds": []
    },
    {
      "x": 115,
      "y": 185,
      "size": 1,
      "price": "1011000000000000000000",
      "reserved": "",
      "salt": "0x07cf56241feec69e1bed13a8499b892efe92dc9d878d5ad51087c33ebc090072",
      "assetIds": []
    },
    {
      "x": 115,
      "y": 192,
      "size": 1,
      "price": "1011000000000000000000",
      "reserved": "",
      "salt": "0xe08f5d17d239e49e5b79022d960b5ab5fbe5f96d19ad3633bf5eee0433c31d8f",
      "assetIds": []
    },
    {
      "x": 115,
      "y": 193,
      "size": 1,
      "price": "1011000000000000000000",
      "reserved": "",
      "salt": "0x5ae8a80e59dc7920b3a244595595b0c8e14fd3f460e7e5546f399865bfbf10b2",
      "assetIds": []
    },
    {
      "x": 115,
      "y": 194,
      "size": 1,
      "price": "1011000000000000000000",
      "reserved": "",
      "salt": "0xc3630fe10776d5f3c10d31005b48b404bccf3dad47b0b91645c572cf569d3dde",
      "assetIds": []
    },
    {
      "x": 115,
      "y": 195,
      "size": 1,
      "price": "1011000000000000000000",
      "reserved": "",
      "salt": "0xaa165eba76dfd857c7777fb14eb417ed2a40e90ec93102b0febe7361285cb035",
      "assetIds": []
    },
    {
      "x": 115,
      "y": 196,
      "size": 1,
      "price": "1011000000000000000000",
      "reserved": "",
      "salt": "0x76d6432d9bcad4ee59539e9fe1d57da980340b1d21130090545ebe3ca93bbae6",
      "assetIds": []
    },
    {
      "x": 115,
      "y": 197,
      "size": 1,
      "price": "4683000000000000000000",
      "reserved": "",
      "salt": "0x104ed85ef921bc9ad11ebac431443d50350edd89f9c7b5482ce71d573751ba65",
      "assetIds": []
    },
    {
      "x": 116,
      "y": 183,
      "size": 1,
      "price": "1011000000000000000000",
      "reserved": "",
      "salt": "0x05856eccd4bab28add8a7c2d37bdcbd2fc8a1dff95e56d51a7329cbc04f7060c",
      "assetIds": []
    },
    {
      "x": 116,
      "y": 184,
      "size": 1,
      "price": "1011000000000000000000",
      "reserved": "",
      "salt": "0x141fc9504004625dfb1a34274d32fa9b1d9be681a772574796ffd32798687d66",
      "assetIds": []
    },
    {
      "x": 116,
      "y": 185,
      "size": 1,
      "price": "1011000000000000000000",
      "reserved": "",
      "salt": "0x8f909bef00241dcbcb3453d6ad2cd4304207ee9cbacecce5c5c57b08e3ddf9e9",
      "assetIds": []
    },
    {
      "x": 116,
      "y": 192,
      "size": 1,
      "price": "1011000000000000000000",
      "reserved": "",
      "salt": "0xe7a572a2aacab49ed3143de304968b1c1e675d279f1b6fbf22b3b6311b237065",
      "assetIds": []
    },
    {
      "x": 116,
      "y": 193,
      "size": 1,
      "price": "1011000000000000000000",
      "reserved": "",
      "salt": "0x63fdf445a2216a4ea3ca8c6c3bea0eae5483894153ac8b5409079edb3d828859",
      "assetIds": []
    },
    {
      "x": 116,
      "y": 194,
      "size": 1,
      "price": "1011000000000000000000",
      "reserved": "",
      "salt": "0xdf5a84f733fd39dc39dd9247fd9db63343684b45a124bc568cf8d625e693e1e3",
      "assetIds": []
    },
    {
      "x": 116,
      "y": 195,
      "size": 1,
      "price": "1011000000000000000000",
      "reserved": "",
      "salt": "0xa89c9a5a56256252f4e85a30296bbbce2ce0d715850da11be88fc59ebb184215",
      "assetIds": []
    },
    {
      "x": 116,
      "y": 196,
      "size": 1,
      "price": "1011000000000000000000",
      "reserved": "",
      "salt": "0x578c759be960a6e2f962fd2eecb57b4a17b09f24c2a1e50627b060443d6a279c",
      "assetIds": []
    },
    {
      "x": 116,
      "y": 197,
      "size": 1,
      "price": "4683000000000000000000",
      "reserved": "",
      "salt": "0x92fb84725c2c2a3de946ac6c1bb94e6b8688b7ae2334d5551cdcc622463adcc6",
      "assetIds": []
    },
    {
      "x": 117,
      "y": 183,
      "size": 1,
      "price": "1011000000000000000000",
      "reserved": "",
      "salt": "0x7eaf5dc21ba2fe0aa6cda07fc350ec163f56120d03a9072213639acd362a4c70",
      "assetIds": []
    },
    {
      "x": 117,
      "y": 184,
      "size": 1,
      "price": "1011000000000000000000",
      "reserved": "",
      "salt": "0x442c11d15e1437b867985e27ca4bc1cf956ebfccf5e636d44ae32bcdbf71b366",
      "assetIds": []
    },
    {
      "x": 117,
      "y": 185,
      "size": 1,
      "price": "1011000000000000000000",
      "reserved": "",
      "salt": "0x5d06a4888bd810581d815e8619958e7a72d3075614af2bd71cb3a23d52de64f9",
      "assetIds": []
    },
    {
      "x": 117,
      "y": 195,
      "size": 1,
      "price": "1011000000000000000000",
      "reserved": "",
      "salt": "0xa19256d41bb908d6515a8c547d5ca680af70727eb1d3658ea8772ffe2f8a45ce",
      "assetIds": []
    },
    {
      "x": 117,
      "y": 196,
      "size": 1,
      "price": "1011000000000000000000",
      "reserved": "",
      "salt": "0xd97cd806d8d064500b1fad6cc981395df28d7a68944b687287949c925ec05a40",
      "assetIds": []
    },
    {
      "x": 117,
      "y": 197,
      "size": 1,
      "price": "1011000000000000000000",
      "reserved": "",
      "salt": "0x3a8d71ab0842acfbe62d8842d8b26c3e461ead1f89ed328c8b615142a7206733",
      "assetIds": []
    },
    {
      "x": 117,
      "y": 198,
      "size": 1,
      "price": "4683000000000000000000",
      "reserved": "",
      "salt": "0xdb19154f09245a0e56e17b24b2d528273922a526200ff4b1c8c226e9a9aab55c",
      "assetIds": []
    },
    {
      "x": 117,
      "y": 199,
      "size": 1,
      "price": "1011000000000000000000",
      "reserved": "",
      "salt": "0x2364ad300400009164ada4a63324f42dcf1d1a1e93b25e9057acea4e70ff2cea",
      "assetIds": []
    },
    {
      "x": 117,
      "y": 200,
      "size": 1,
      "price": "4683000000000000000000",
      "reserved": "",
      "salt": "0x5fd77e68c10b3d1533dd022f4a04757192e2950dbf0630d1ba85a98bd56609ef",
      "assetIds": []
    },
    {
      "x": 118,
      "y": 183,
      "size": 1,
      "price": "1011000000000000000000",
      "reserved": "",
      "salt": "0x09880e88858949d3c37a6bee4f2751e9709a22307b9998b6872780dcbadfc1eb",
      "assetIds": []
    },
    {
      "x": 118,
      "y": 184,
      "size": 1,
      "price": "1011000000000000000000",
      "reserved": "",
      "salt": "0x834077becbfdc5d0fc8390c7da0bed1a8710fdfe600075097d54d6e19cef483b",
      "assetIds": []
    },
    {
      "x": 118,
      "y": 185,
      "size": 1,
      "price": "1011000000000000000000",
      "reserved": "",
      "salt": "0x39bf1e2f0c4efdacf6991103461aaffb704f017d88ed370166e30ee121b20318",
      "assetIds": []
    },
    {
      "x": 118,
      "y": 195,
      "size": 1,
      "price": "1011000000000000000000",
      "reserved": "",
      "salt": "0xfbfc24b80794d2b945e88bdd854e0c2144ab2b643b4a10d8b52a6a74eac93fc0",
      "assetIds": []
    },
    {
      "x": 118,
      "y": 196,
      "size": 1,
      "price": "1011000000000000000000",
      "reserved": "",
      "salt": "0x687c0178c22bed12a1f7e020789a7ea2f27ad9a87648fc14fdeb10de58aaa707",
      "assetIds": []
    },
    {
      "x": 118,
      "y": 197,
      "size": 1,
      "price": "1011000000000000000000",
      "reserved": "",
      "salt": "0x447bc8e325ad003d6de4f8dbb330bad55f08ee632e146fb21527ce89709d8d47",
      "assetIds": []
    },
    {
      "x": 118,
      "y": 198,
      "size": 1,
      "price": "1011000000000000000000",
      "reserved": "",
      "salt": "0x3099f2ad040426c2c4f702321b9ad585c65b8b9f37c78b3f2b1ae822dc0e8cc3",
      "assetIds": []
    },
    {
      "x": 118,
      "y": 199,
      "size": 1,
      "price": "1011000000000000000000",
      "reserved": "",
      "salt": "0x2796a644c21dc11fbea2d99858adb3bfed60541ec0bd4b13e6be75c837856dc4",
      "assetIds": []
    },
    {
      "x": 118,
      "y": 200,
      "size": 1,
      "price": "1011000000000000000000",
      "reserved": "",
      "salt": "0x2692aa2c8191aafb6f2c52515e04fdd6de10c8c3989a1d3755682de70a84baff",
      "assetIds": []
    },
    {
      "x": 119,
      "y": 183,
      "size": 1,
      "price": "1011000000000000000000",
      "reserved": "",
      "salt": "0x4d43c2307037ca7726e7d1c1cd8c1fb72020ce4ee6b1b3b8b8145c1fb7ae97b2",
      "assetIds": []
    },
    {
      "x": 119,
      "y": 184,
      "size": 1,
      "price": "1011000000000000000000",
      "reserved": "",
      "salt": "0x685a0fa03eff2dfa543859d2188b1bb69419779f1fc2ee6e748bc8c81b34be79",
      "assetIds": []
    },
    {
      "x": 119,
      "y": 185,
      "size": 1,
      "price": "1011000000000000000000",
      "reserved": "",
      "salt": "0x3ba12a6e2476756023d0e7856bf7bedf72895814b318e62fc401db8a3fe3c9ee",
      "assetIds": []
    },
    {
      "x": 119,
      "y": 195,
      "size": 1,
      "price": "1011000000000000000000",
      "reserved": "",
      "salt": "0x0a0a7c183b8e32e46780be83ad95b21f1f8da5da2ce09e997271edc1ccb1580c",
      "assetIds": []
    },
    {
      "x": 119,
      "y": 196,
      "size": 1,
      "price": "1011000000000000000000",
      "reserved": "",
      "salt": "0x4eb93329bdc723225e41d3b7c6e5658aa9a029fef0291b78fb3d19a3f25a3241",
      "assetIds": []
    },
    {
      "x": 119,
      "y": 197,
      "size": 1,
      "price": "1011000000000000000000",
      "reserved": "",
      "salt": "0xddea23ff9f0fa45a1be98d98de1340b6bb9158d1e8d2278929c3013ef65caec2",
      "assetIds": []
    },
    {
      "x": 119,
      "y": 198,
      "size": 1,
      "price": "1011000000000000000000",
      "reserved": "",
      "salt": "0x5d4f2d806e63c2d9f24129f33bc05f14ed1f69b7cb4f353f1674722ee062dbc2",
      "assetIds": []
    },
    {
      "x": 119,
      "y": 199,
      "size": 1,
      "price": "1011000000000000000000",
      "reserved": "",
      "salt": "0xc328d47a01e9a645868b7c179d17bf3253068d3356aca77adf0d77a7dcc8b35f",
      "assetIds": []
    },
    {
      "x": 119,
      "y": 200,
      "size": 1,
      "price": "1011000000000000000000",
      "reserved": "",
      "salt": "0xa5a78a5eaaf3137876d75c40bec6b3c9fb0328f726f421d70eb7d1ce5ed2bf53",
      "assetIds": []
    },
    {
      "x": 120,
      "y": 177,
      "size": 1,
      "price": "1011000000000000000000",
      "reserved": "",
      "salt": "0x6dd3fb302e073fe5cc8c47bfbd6d742d06fd50a88308e56761703d6693f2ef4a",
      "assetIds": []
    },
    {
      "x": 120,
      "y": 178,
      "size": 1,
      "price": "1011000000000000000000",
      "reserved": "",
      "salt": "0xbce541444e20d36fd4bdf8c28b8047d03ad05dadd6bf37782231e475f41e0417",
      "assetIds": []
    },
    {
      "x": 120,
      "y": 179,
      "size": 1,
      "price": "1011000000000000000000",
      "reserved": "",
      "salt": "0x87a998dbba0f008a0689da1e24dc0d8a07c31b2b3151b70ea18688a215691bd5",
      "assetIds": []
    },
    {
      "x": 120,
      "y": 180,
      "size": 1,
      "price": "1011000000000000000000",
      "reserved": "",
      "salt": "0xe847dc6fae206cc0c8fd5992d76ad372adc5e98007f512f1fe9aee5746302999",
      "assetIds": []
    },
    {
      "x": 120,
      "y": 181,
      "size": 1,
      "price": "1011000000000000000000",
      "reserved": "",
      "salt": "0xed17fc18e6eecbf5d47ee3f7cf9f4d60dd7196c78d567cd7073e6b5728c15f22",
      "assetIds": []
    },
    {
      "x": 120,
      "y": 182,
      "size": 1,
      "price": "1011000000000000000000",
      "reserved": "",
      "salt": "0xd2b579c9e60360d53366155b00eb135652b7cb5448bb2ccfb754c55f6e97ef5a",
      "assetIds": []
    },
    {
      "x": 120,
      "y": 183,
      "size": 1,
      "price": "1011000000000000000000",
      "reserved": "",
      "salt": "0x8d218711d816d65afe51e12cd57b1a19bf71c746e2ab22e4f6b15fc7fda35187",
      "assetIds": []
    },
    {
      "x": 120,
      "y": 184,
      "size": 1,
      "price": "1011000000000000000000",
      "reserved": "",
      "salt": "0xa7800853cfc95356d4236e67ff869247688b4ada7fa79240666753fe003dd592",
      "assetIds": []
    },
    {
      "x": 120,
      "y": 185,
      "size": 1,
      "price": "1011000000000000000000",
      "reserved": "",
      "salt": "0x9e771ff6df4d6992425ac085b36a6bdf4277319616e32ad224f0ec87adfd299c",
      "assetIds": []
    },
    {
      "x": 120,
      "y": 192,
      "size": 1,
      "price": "1011000000000000000000",
      "reserved": "",
      "salt": "0x3cc95cfcb7912e9066917ea1c065bcb6249315af884eb6b9aacf33c4d0ac8ed0",
      "assetIds": []
    },
    {
      "x": 120,
      "y": 193,
      "size": 1,
      "price": "1011000000000000000000",
      "reserved": "",
      "salt": "0x298a545de682134a14b1391720ac5308839c0bb49b03ad43f11cd54896d85b49",
      "assetIds": []
    },
    {
      "x": 120,
      "y": 194,
      "size": 1,
      "price": "1011000000000000000000",
      "reserved": "",
      "salt": "0xafb48ed35e7536e7c6f9844c3e150109beeb44e3a95f04f5995a60755abb59d5",
      "assetIds": []
    },
    {
      "x": 120,
      "y": 195,
      "size": 1,
      "price": "1011000000000000000000",
      "reserved": "",
      "salt": "0x2cb42bc253e38ad2481bf28176dacbea3d32d0514bad7868106768679765d032",
      "assetIds": []
    },
    {
      "x": 120,
      "y": 196,
      "size": 1,
      "price": "1011000000000000000000",
      "reserved": "",
      "salt": "0x26c28da4b2ac0f1056504a33099b150ff01e4216bd47e021ebdc531811f126e4",
      "assetIds": []
    },
    {
      "x": 120,
      "y": 197,
      "size": 1,
      "price": "1011000000000000000000",
      "reserved": "",
      "salt": "0x37febcc2645548f16e9d0180107ac206a42c33d2ec63dff83d6a215f5de71a05",
      "assetIds": []
    },
    {
      "x": 120,
      "y": 198,
      "size": 1,
      "price": "1011000000000000000000",
      "reserved": "",
      "salt": "0xe61bb9c483b90b0192b3b81179627c62baba9714f45194ef8987b1d31ac9d769",
      "assetIds": []
    },
    {
      "x": 120,
      "y": 199,
      "size": 1,
      "price": "1011000000000000000000",
      "reserved": "",
      "salt": "0x4df0a30d001610dd05e991467e007d2d9f7ed1cf7b0cfbf5af4a188bbfd7cb5e",
      "assetIds": []
    },
    {
      "x": 120,
      "y": 200,
      "size": 1,
      "price": "1011000000000000000000",
      "reserved": "",
      "salt": "0x29872d1056ab10672044abd1a0a46b8d8a8ac7c686e9d8247d6942aab91ae574",
      "assetIds": []
    },
    {
      "x": 121,
      "y": 177,
      "size": 1,
      "price": "1011000000000000000000",
      "reserved": "",
      "salt": "0xa067b4741b91f097ccf78a8fb0accb183009fc48f26a3ab542b02202020e269e",
      "assetIds": []
    },
    {
      "x": 121,
      "y": 178,
      "size": 1,
      "price": "1011000000000000000000",
      "reserved": "",
      "salt": "0x77c62158b5ab387be1577c25a7e96411f44972d6bd842c956b108713e9319fa0",
      "assetIds": []
    },
    {
      "x": 121,
      "y": 179,
      "size": 1,
      "price": "1011000000000000000000",
      "reserved": "",
      "salt": "0xfd47fc0f04fadfe88be1d5b9c17c84fc087617fe6f64ebc2802870fad8fe9661",
      "assetIds": []
    },
    {
      "x": 121,
      "y": 180,
      "size": 1,
      "price": "1011000000000000000000",
      "reserved": "",
      "salt": "0x34d18119a415083d9f96fbe26d278cc4220666de8bb92e7e63fd92f5216b8e16",
      "assetIds": []
    },
    {
      "x": 121,
      "y": 181,
      "size": 1,
      "price": "1011000000000000000000",
      "reserved": "",
      "salt": "0xb5a084d1c43764712caeac31f2635dfd6305538b3c30472e46b9bd856365c64b",
      "assetIds": []
    },
    {
      "x": 121,
      "y": 182,
      "size": 1,
      "price": "1011000000000000000000",
      "reserved": "",
      "salt": "0xee8112ef43f2a89a0b6770916eb7cfc5590da35068abe0887025161b72d2e870",
      "assetIds": []
    },
    {
      "x": 121,
      "y": 183,
      "size": 1,
      "price": "1011000000000000000000",
      "reserved": "",
      "salt": "0x39f7e1e482c04d6951f61e062e7a90fb31e50784bcd23868447007148f9cbb1e",
      "assetIds": []
    },
    {
      "x": 121,
      "y": 184,
      "size": 1,
      "price": "1011000000000000000000",
      "reserved": "",
      "salt": "0x9c469067b379891a451d42ae014455518f3e206a48db7355e1bc0d6deb349b36",
      "assetIds": []
    },
    {
      "x": 121,
      "y": 185,
      "size": 1,
      "price": "1011000000000000000000",
      "reserved": "",
      "salt": "0x56a4f728f9841826b7dbaaa9239700febf9217848b2df58e3111c218e24b0dc4",
      "assetIds": []
    },
    {
      "x": 121,
      "y": 192,
      "size": 1,
      "price": "1011000000000000000000",
      "reserved": "",
      "salt": "0x47e8a745c6f82137d12434d6112b3e7287057fdd0cf7339b00e0e46c430d3624",
      "assetIds": []
    },
    {
      "x": 121,
      "y": 193,
      "size": 1,
      "price": "1011000000000000000000",
      "reserved": "",
      "salt": "0x79d5e31d9e33e8c04cd60622d1e40f7de8a4abe5919f882246bd329881b0ce26",
      "assetIds": []
    },
    {
      "x": 121,
      "y": 194,
      "size": 1,
      "price": "1011000000000000000000",
      "reserved": "",
      "salt": "0x070a7f56df3c6e6d82b36a6c88b2699ca61025d79702e5b1600388df8567112b",
      "assetIds": []
    },
    {
      "x": 121,
      "y": 195,
      "size": 1,
      "price": "1011000000000000000000",
      "reserved": "",
      "salt": "0x75a56adf98059edc3257d56b312a0f1fb24de80aad38d324c773a96f0d0d2a13",
      "assetIds": []
    },
    {
      "x": 121,
      "y": 196,
      "size": 1,
      "price": "1011000000000000000000",
      "reserved": "",
      "salt": "0x22bcce33d41f9c18288c4c62a96bded720a60e5fc8e8646f2c751c467a39fa11",
      "assetIds": []
    },
    {
      "x": 121,
      "y": 197,
      "size": 1,
      "price": "1011000000000000000000",
      "reserved": "",
      "salt": "0xb9a31980bc18a555202c750f1868ae057e0e8a51247d4f9ccfeb5ac970e1f1f8",
      "assetIds": []
    },
    {
      "x": 121,
      "y": 198,
      "size": 1,
      "price": "1011000000000000000000",
      "reserved": "",
      "salt": "0xc3e0a066c7b4d2d0c5a2f166af316a4127307dff7c99bd16cfd7848ba998c498",
      "assetIds": []
    },
    {
      "x": 121,
      "y": 199,
      "size": 1,
      "price": "1011000000000000000000",
      "reserved": "",
      "salt": "0xeb59734b107bcd1fd4d465794f9a5fa5d0eeddf94fcd89920aab5793cf5d8a0d",
      "assetIds": []
    },
    {
      "x": 121,
      "y": 200,
      "size": 1,
      "price": "1011000000000000000000",
      "reserved": "",
      "salt": "0x21ac04b3980b4fad06344910300b63d7fbced4cbdf265e65747098c0d6eca55d",
      "assetIds": []
    },
    {
      "x": 122,
      "y": 177,
      "size": 1,
      "price": "1011000000000000000000",
      "reserved": "",
      "salt": "0xbea3a52ddcb30aa0a5f9d22b30ad692e3b52cd92064fcf32667e999a1045951a",
      "assetIds": []
    },
    {
      "x": 122,
      "y": 178,
      "size": 1,
      "price": "1011000000000000000000",
      "reserved": "",
      "salt": "0x19a84c5ec1f70912e38618e70eb72f56c055aec137e86dc9738386b8e12c85b4",
      "assetIds": []
    },
    {
      "x": 122,
      "y": 179,
      "size": 1,
      "price": "1011000000000000000000",
      "reserved": "",
      "salt": "0xcc705d359ff92b93f67cc3567d34c70e7f61b46e786cf3d452114b3072f9a6d5",
      "assetIds": []
    },
    {
      "x": 122,
      "y": 180,
      "size": 1,
      "price": "4683000000000000000000",
      "reserved": "",
      "salt": "0x23fbfa9a8b320f255fd0ff36486c01a2e5923dc3f29c3678ee509a3460c50941",
      "assetIds": []
    },
    {
      "x": 122,
      "y": 181,
      "size": 1,
      "price": "4683000000000000000000",
      "reserved": "",
      "salt": "0xa393a394e938118ec7c3552ca651e54b71f6b3b773c2a04358d31c361173db7c",
      "assetIds": []
    },
    {
      "x": 122,
      "y": 182,
      "size": 1,
      "price": "4683000000000000000000",
      "reserved": "",
      "salt": "0xe9cc71dea30fb29654a26c4359330242334b40431dbf1a220fedc90a594061f9",
      "assetIds": []
    },
    {
      "x": 122,
      "y": 183,
      "size": 1,
      "price": "1011000000000000000000",
      "reserved": "",
      "salt": "0x1b7ca58dc57f04327cfc8b6e18551b27a51f2dae8551ce28ae9054597cd947f0",
      "assetIds": []
    },
    {
      "x": 122,
      "y": 184,
      "size": 1,
      "price": "1011000000000000000000",
      "reserved": "",
      "salt": "0xda973efb43a8d6d34578638ab656415c6a77366c406bb300ecd67c0e721ee8c6",
      "assetIds": []
    },
    {
      "x": 122,
      "y": 185,
      "size": 1,
      "price": "1011000000000000000000",
      "reserved": "",
      "salt": "0x9e63e1233c86b28a7f184504ce370fe2d17d3d35610cfc58c82495df2c95ba2e",
      "assetIds": []
    },
    {
      "x": 122,
      "y": 192,
      "size": 1,
      "price": "1011000000000000000000",
      "reserved": "",
      "salt": "0xef786801a8993f18c1f3027ab6bff0bb2b18f8bbff12156f1168482485b02da6",
      "assetIds": []
    },
    {
      "x": 122,
      "y": 193,
      "size": 1,
      "price": "1011000000000000000000",
      "reserved": "",
      "salt": "0x5d140e804a9781ead396a0ab4170730e817cbd74614151c01453d61ec7fbe7b8",
      "assetIds": []
    },
    {
      "x": 122,
      "y": 194,
      "size": 1,
      "price": "1011000000000000000000",
      "reserved": "",
      "salt": "0xe919f20446783a2e8deb4133d5b53089d64ccdfb0e9730707da4a0d017978f4e",
      "assetIds": []
    },
    {
      "x": 122,
      "y": 195,
      "size": 1,
      "price": "1011000000000000000000",
      "reserved": "",
      "salt": "0xce0127f31c88b2e78ca0227aed4e7c93c202cd6c86d0bec26ead85a842c251b3",
      "assetIds": []
    },
    {
      "x": 122,
      "y": 196,
      "size": 1,
      "price": "1011000000000000000000",
      "reserved": "",
      "salt": "0xc22398788c72708559d23e1a412c083a14223320e2d0dffb01b82f4610f8a7c9",
      "assetIds": []
    },
    {
      "x": 122,
      "y": 197,
      "size": 1,
      "price": "1011000000000000000000",
      "reserved": "",
      "salt": "0x42c876c42d4839d060a22f9fab33db1d0bdd336d9521e354a2b8e6217cbca9c7",
      "assetIds": []
    },
    {
      "x": 122,
      "y": 198,
      "size": 1,
      "price": "1011000000000000000000",
      "reserved": "",
      "salt": "0x28086aaaf1edbdd339066be62f443e46111258d8c3e324f3cdac7060c01f5f03",
      "assetIds": []
    },
    {
      "x": 122,
      "y": 199,
      "size": 1,
      "price": "1011000000000000000000",
      "reserved": "",
      "salt": "0xb34507c20186c17615d2fc483c90c56850f327d4ab4dd303478146126c0eecaf",
      "assetIds": []
    },
    {
      "x": 122,
      "y": 200,
      "size": 1,
      "price": "1011000000000000000000",
      "reserved": "",
      "salt": "0x97ead4f76bc6cd1c116ad72ccdb67b87dcdf4d38f41710620a31e9019712f8c5",
      "assetIds": []
    },
    {
      "x": 123,
      "y": 177,
      "size": 1,
      "price": "1011000000000000000000",
      "reserved": "",
      "salt": "0xfd82323ab93c8927ae8f0181e644e76935223b4a86b678b0795dd6013722d1c7",
      "assetIds": []
    },
    {
      "x": 123,
      "y": 178,
      "size": 1,
      "price": "1011000000000000000000",
      "reserved": "",
      "salt": "0x75ce5b58727a21507f9153f1370a0bb34278d832e4527d8d5b7f4eef6c1da3f6",
      "assetIds": []
    },
    {
      "x": 123,
      "y": 179,
      "size": 1,
      "price": "1011000000000000000000",
      "reserved": "",
      "salt": "0xcd91bd115f43af4d6db67547ee281621f272edc68d557c62fdd46855b133e338",
      "assetIds": []
    },
    {
      "x": 123,
      "y": 183,
      "size": 1,
      "price": "4683000000000000000000",
      "reserved": "",
      "salt": "0x536fead24833c164d2aaf2870229469b985152093f692a60da955063c32db296",
      "assetIds": []
    },
    {
      "x": 123,
      "y": 184,
      "size": 1,
      "price": "1011000000000000000000",
      "reserved": "",
      "salt": "0xb4dd7dda4034ac140b3f3caca1026e0547c38e3f981892f2efbb7f8ba0a3d8ea",
      "assetIds": []
    },
    {
      "x": 123,
      "y": 185,
      "size": 1,
      "price": "1011000000000000000000",
      "reserved": "",
      "salt": "0x7ef9521773f89cdfcafd96b59d994f79b8a3cb77787392b40ee1a1d46615d813",
      "assetIds": []
    },
    {
      "x": 123,
      "y": 192,
      "size": 1,
      "price": "1011000000000000000000",
      "reserved": "",
      "salt": "0x1c50497a1430ea355531d04335e45e5ab85d32d2a14449d92619aab6bfe472f7",
      "assetIds": []
    },
    {
      "x": 123,
      "y": 193,
      "size": 1,
      "price": "1011000000000000000000",
      "reserved": "",
      "salt": "0x44eefa5828546aa5b4f14f6dbea9bfc99a2ec58f775011fcc342d758ec38353c",
      "assetIds": []
    },
    {
      "x": 123,
      "y": 194,
      "size": 1,
      "price": "1011000000000000000000",
      "reserved": "",
      "salt": "0x032b653360ec35d21044c2e0e5c47268dac5b8af57587ddf95404595ac1a2508",
      "assetIds": []
    },
    {
      "x": 123,
      "y": 195,
      "size": 1,
      "price": "1011000000000000000000",
      "reserved": "",
      "salt": "0x1ab6dcd256779b1b86d588de104dacfc515bc6461cc94e2f2cb852291c5a7157",
      "assetIds": []
    },
    {
      "x": 123,
      "y": 196,
      "size": 1,
      "price": "1011000000000000000000",
      "reserved": "",
      "salt": "0xe6d0799fe21bbb92d16b6369842d2b872c44a8f81fbb90b6d29cb02cc901d26e",
      "assetIds": []
    },
    {
      "x": 123,
      "y": 197,
      "size": 1,
      "price": "1011000000000000000000",
      "reserved": "",
      "salt": "0x7353414f27fa077e7e77a43810045dccbcd04992750c87e6d567d76c304de5df",
      "assetIds": []
    },
    {
      "x": 124,
      "y": 177,
      "size": 1,
      "price": "1011000000000000000000",
      "reserved": "",
      "salt": "0x9acfc0cf989e01bb82094831dfaf14f8009114e26b2dfe1f835d279fe741cff1",
      "assetIds": []
    },
    {
      "x": 124,
      "y": 178,
      "size": 1,
      "price": "1011000000000000000000",
      "reserved": "",
      "salt": "0xb49768631b09a3017c0bf33cd665be3c46bcea046548f06b5fd151694e2387ef",
      "assetIds": []
    },
    {
      "x": 124,
      "y": 179,
      "size": 1,
      "price": "4683000000000000000000",
      "reserved": "",
      "salt": "0xf9e09feef9433d1af5eac139493347a5f21fdf1524bcda2f68e793e5c4d22530",
      "assetIds": []
    },
    {
      "x": 124,
      "y": 183,
      "size": 1,
      "price": "4683000000000000000000",
      "reserved": "",
      "salt": "0xa4f8d725ec5f5537ebc1d3375e93e082147d9d48fa7a34368f0973c5936dfb56",
      "assetIds": []
    },
    {
      "x": 124,
      "y": 184,
      "size": 1,
      "price": "1011000000000000000000",
      "reserved": "",
      "salt": "0x30ba3db880fff4a0ac0457be5cd79bfd3949653aa0c659a29713b909ace9b94f",
      "assetIds": []
    },
    {
      "x": 124,
      "y": 185,
      "size": 1,
      "price": "1011000000000000000000",
      "reserved": "",
      "salt": "0xd652e5f12d336bcf658d841381841af637a7f00f32ed233989e519351eb807f9",
      "assetIds": []
    },
    {
      "x": 124,
      "y": 192,
      "size": 1,
      "price": "1011000000000000000000",
      "reserved": "",
      "salt": "0x9ccd05c1f95611013ff4b8785295339a70ba042df5a9c74b58311a41c347c6de",
      "assetIds": []
    },
    {
      "x": 124,
      "y": 193,
      "size": 1,
      "price": "1011000000000000000000",
      "reserved": "",
      "salt": "0xa3a907423f3537b3ada862264dcc7d226239af93984b484675754fdf843c3b81",
      "assetIds": []
    },
    {
      "x": 124,
      "y": 194,
      "size": 1,
      "price": "1011000000000000000000",
      "reserved": "",
      "salt": "0xb976f3996aaf7f95dae6f50682475bb8570577c26a1ec1456dba7f9cb7493825",
      "assetIds": []
    },
    {
      "x": 124,
      "y": 195,
      "size": 1,
      "price": "1011000000000000000000",
      "reserved": "",
      "salt": "0x330f1d6003378ddf4fc6fb68213cc7f4484ca179b5a4738fe83bc90bd259e495",
      "assetIds": []
    },
    {
      "x": 124,
      "y": 196,
      "size": 1,
      "price": "1011000000000000000000",
      "reserved": "",
      "salt": "0x880c77a7db0edb7b25a6d17b7cf7189663f5516213895fc541513c52e4c7c9b7",
      "assetIds": []
    },
    {
      "x": 124,
      "y": 197,
      "size": 1,
      "price": "1011000000000000000000",
      "reserved": "",
      "salt": "0x9371f41a6b89ae707d1f895d88ad3cd6cba148d13b4a8533067e7f4665e2ad0c",
      "assetIds": []
    },
    {
      "x": 125,
      "y": 177,
      "size": 1,
      "price": "1011000000000000000000",
      "reserved": "",
      "salt": "0x99f97f985a3df3fbdec6a50377f6e68bd65f22d00c79698dc860123d6d65cfe5",
      "assetIds": []
    },
    {
      "x": 125,
      "y": 178,
      "size": 1,
      "price": "1011000000000000000000",
      "reserved": "",
      "salt": "0xde3b6c14e9a0eb4aab97903f70db30f9fb75849a2b62b0f457e6fb5c1b732a82",
      "assetIds": []
    },
    {
      "x": 125,
      "y": 179,
      "size": 1,
      "price": "4683000000000000000000",
      "reserved": "",
      "salt": "0xfe7bf832f63254cd2d254e1fff0306761dbb47f092cdf553c945db4637e0c186",
      "assetIds": []
    },
    {
      "x": 125,
      "y": 183,
      "size": 1,
      "price": "4683000000000000000000",
      "reserved": "",
      "salt": "0xab7393a1fa4fec99698c169cbb415305441a0f5e35b764754ad92ef7bf3e8dc9",
      "assetIds": []
    },
    {
      "x": 125,
      "y": 184,
      "size": 1,
      "price": "1011000000000000000000",
      "reserved": "",
      "salt": "0x725c2472ae2002b1f163dda70c4996a6d80e219a8bc8901f5166875019e6433f",
      "assetIds": []
    },
    {
      "x": 125,
      "y": 185,
      "size": 1,
      "price": "1011000000000000000000",
      "reserved": "",
      "salt": "0x79016322727b95903946a008e2845434c3f631a44e02b57b181cdf9eba3fed20",
      "assetIds": []
    },
    {
      "x": 125,
      "y": 192,
      "size": 1,
      "price": "4683000000000000000000",
      "reserved": "",
      "salt": "0xed7673d7cc52bdf05656ed0c627ffeb3ca6d4f8dd8c2ee94ead63ee92e2a61e4",
      "assetIds": []
    },
    {
      "x": 125,
      "y": 193,
      "size": 1,
      "price": "4683000000000000000000",
      "reserved": "",
      "salt": "0x3b0436752f284c52593d4888126b52da02d830de4c9796a2862e4b3a7ac9165e",
      "assetIds": []
    },
    {
      "x": 125,
      "y": 194,
      "size": 1,
      "price": "4683000000000000000000",
      "reserved": "",
      "salt": "0x2e68ec4366fc8a47bb7f8e4714c0f87455025762dc816fe46d77793205593f67",
      "assetIds": []
    },
    {
      "x": 125,
      "y": 195,
      "size": 1,
      "price": "1011000000000000000000",
      "reserved": "",
      "salt": "0xb590e1b72dbf1203505589c4e225a2bb52f08c657a752e756d7632f9c83e509d",
      "assetIds": []
    },
    {
      "x": 125,
      "y": 196,
      "size": 1,
      "price": "1011000000000000000000",
      "reserved": "",
      "salt": "0x41736c3f8cfd94fdc331d6ba87df5135df3546779a98fefb7cf2ca6147dd56ab",
      "assetIds": []
    },
    {
      "x": 125,
      "y": 197,
      "size": 1,
      "price": "1011000000000000000000",
      "reserved": "",
      "salt": "0x60c963ff11ddc819cd9f1b4a172b31b8518bbb714fcf48e498362a76116e7e86",
      "assetIds": []
    },
    {
      "x": 126,
      "y": 177,
      "size": 1,
      "price": "1011000000000000000000",
      "reserved": "",
      "salt": "0xfc7ed1a2dd176dbe168af5826579d5988f3a93e30d79de124a29e39642e408df",
      "assetIds": []
    },
    {
      "x": 126,
      "y": 178,
      "size": 1,
      "price": "1011000000000000000000",
      "reserved": "",
      "salt": "0x7cb45cc000ca754344d07f4f9f30329ed4a4d7af34af5ec49ed8a3aaf6a2661e",
      "assetIds": []
    },
    {
      "x": 126,
      "y": 179,
      "size": 1,
      "price": "1011000000000000000000",
      "reserved": "",
      "salt": "0x0441ae28ea603e3a8739063822523c89d3c186705721b2933568193a85c201b3",
      "assetIds": []
    },
    {
      "x": 126,
      "y": 186,
      "size": 1,
      "price": "1011000000000000000000",
      "reserved": "",
      "salt": "0x1f653692539665cd33e35cdb1b9250210e2b7503770a24e3a6b5f12af11d6206",
      "assetIds": []
    },
    {
      "x": 126,
      "y": 187,
      "size": 1,
      "price": "1011000000000000000000",
      "reserved": "",
      "salt": "0x11ebe8746c6f0c5aa15377a26b9f67c158ae329bfa04920cba7186f463ecd8b2",
      "assetIds": []
    },
    {
      "x": 126,
      "y": 188,
      "size": 1,
      "price": "1011000000000000000000",
      "reserved": "",
      "salt": "0xef4a064fc1cdb1700a2c6539ac3a059cfc6e20ffa7436bfda3a2d92d5193679e",
      "assetIds": []
    },
    {
      "x": 126,
      "y": 189,
      "size": 1,
      "price": "1011000000000000000000",
      "reserved": "",
      "salt": "0x24174b4502381f10d19f5eb9a45eac62e41d61cb23c1dda16ee9669a87796db7",
      "assetIds": []
    },
    {
      "x": 126,
      "y": 190,
      "size": 1,
      "price": "1011000000000000000000",
      "reserved": "",
      "salt": "0x7c34ccfeefa2078761c3984739b2c5b0b97c5ec6be03a89638f1c24ec363fb71",
      "assetIds": []
    },
    {
      "x": 126,
      "y": 191,
      "size": 1,
      "price": "4683000000000000000000",
      "reserved": "",
      "salt": "0xbe10c48af3b011e6b1c9aa982671ce1c5762eb380990583e4e0b3d347c42a541",
      "assetIds": []
    },
    {
      "x": 126,
      "y": 195,
      "size": 1,
      "price": "4683000000000000000000",
      "reserved": "",
      "salt": "0x078762a59d036c76f8cf2bdf648490c739eea1fc7acd10a18054998f4d62d4de",
      "assetIds": []
    },
    {
      "x": 126,
      "y": 196,
      "size": 1,
      "price": "1011000000000000000000",
      "reserved": "",
      "salt": "0x58512459bb78b3e1108d2529a86742a0cc6f30fd48b17fe09d5451759e62b71d",
      "assetIds": []
    },
    {
      "x": 126,
      "y": 197,
      "size": 1,
      "price": "1011000000000000000000",
      "reserved": "",
      "salt": "0xeb1df891e21700b7a34c20d25c3ed8e8439163b33d5eebe8f194809b88376d17",
      "assetIds": []
    },
    {
      "x": 126,
      "y": 198,
      "size": 1,
      "price": "1011000000000000000000",
      "reserved": "",
      "salt": "0x6d787417eea7986c12639ec6023581f81ce8de84fffd283b0f0a8ebef8e54b8c",
      "assetIds": []
    },
    {
      "x": 126,
      "y": 199,
      "size": 1,
      "price": "1011000000000000000000",
      "reserved": "",
      "salt": "0x865f0be07ec660c39deb2aabd8370f4d0d86ca76f14aa58e309f47790bdd6363",
      "assetIds": []
    },
    {
      "x": 126,
      "y": 200,
      "size": 1,
      "price": "1011000000000000000000",
      "reserved": "",
      "salt": "0x1e89bd9d402e51b2fb9e2d3cb8d7c3e4fc9f222fd246c0eeb5999c99bb337ea0",
      "assetIds": []
    },
    {
      "x": 127,
      "y": 177,
      "size": 1,
      "price": "1011000000000000000000",
      "reserved": "",
      "salt": "0x51a7a38c9048687fbe78cc8bbf32611ef18f24deb283c27b4085d95cb59b1ccd",
      "assetIds": []
    },
    {
      "x": 127,
      "y": 178,
      "size": 1,
      "price": "1011000000000000000000",
      "reserved": "",
      "salt": "0x4f1d781f5fca6f90d18676e961e16736bdab81c45406f534dfaf71857d1e7fe6",
      "assetIds": []
    },
    {
      "x": 127,
      "y": 179,
      "size": 1,
      "price": "1011000000000000000000",
      "reserved": "",
      "salt": "0xdc2c6a0b711f7f23b42f7b7f722c6fec2cf915893f92fb968ab9808def66d67e",
      "assetIds": []
    },
    {
      "x": 127,
      "y": 186,
      "size": 1,
      "price": "1011000000000000000000",
      "reserved": "",
      "salt": "0xfb52d3b5780ba4507d093bf028ab6b583082c9c42d0a28f490bf8aaa8e760f95",
      "assetIds": []
    },
    {
      "x": 127,
      "y": 187,
      "size": 1,
      "price": "1011000000000000000000",
      "reserved": "",
      "salt": "0x375dfc859007e99e81d7a48a42565a79e69eb495be3221f0249eeb588bda53e5",
      "assetIds": []
    },
    {
      "x": 127,
      "y": 188,
      "size": 1,
      "price": "1011000000000000000000",
      "reserved": "",
      "salt": "0xbd05d6e1cf5478bd387a742c87212b032e3589e83be1ba70de3a5ae8efa98cfb",
      "assetIds": []
    },
    {
      "x": 127,
      "y": 189,
      "size": 1,
      "price": "1011000000000000000000",
      "reserved": "",
      "salt": "0x85980ef9a2b6c8a7613bdaff97fa921087c7d1a682d021beb86a99f636b2c35a",
      "assetIds": []
    },
    {
      "x": 127,
      "y": 190,
      "size": 1,
      "price": "1011000000000000000000",
      "reserved": "",
      "salt": "0xbc8302ba30eff7c5252a45155e069ffd0d0793f33c8b726dcfdf48ac8dc0a901",
      "assetIds": []
    },
    {
      "x": 127,
      "y": 191,
      "size": 1,
      "price": "4683000000000000000000",
      "reserved": "",
      "salt": "0x4e7920445cc0c14b0a8390758dbc7f06286625d2e731ab3784baac3417c8c85a",
      "assetIds": []
    },
    {
      "x": 127,
      "y": 195,
      "size": 1,
      "price": "1011000000000000000000",
      "reserved": "",
      "salt": "0xb712d65d99a9b7bcf172783999b1005c24db108006e6cb204f4ef9f7eba474f2",
      "assetIds": []
    },
    {
      "x": 127,
      "y": 196,
      "size": 1,
      "price": "1011000000000000000000",
      "reserved": "",
      "salt": "0x9c577a4b0f769262bb8b0815a4a1c01bd752f464f5dbbe296cb43a674b17349a",
      "assetIds": []
    },
    {
      "x": 127,
      "y": 197,
      "size": 1,
      "price": "1011000000000000000000",
      "reserved": "",
      "salt": "0x3a4827b41d7a337dc10260f8e3adf2de37bcf68fb9b2327c8b925c5063e7e46c",
      "assetIds": []
    },
    {
      "x": 127,
      "y": 198,
      "size": 1,
      "price": "1011000000000000000000",
      "reserved": "",
      "salt": "0xce28b6773877f225034149281414d7e24e8646b70457457ae9f784285777f85e",
      "assetIds": []
    },
    {
      "x": 127,
      "y": 199,
      "size": 1,
      "price": "1011000000000000000000",
      "reserved": "",
      "salt": "0xabbdcfdc148a58c0821f95d939de75eb18f4499b4931aa0edbe977e9e484f839",
      "assetIds": []
    },
    {
      "x": 127,
      "y": 200,
      "size": 1,
      "price": "1011000000000000000000",
      "reserved": "",
      "salt": "0x6b73d3e205fe4adc2c6bf333cd8ca55c8cb63bb3de4e905813ae47b7d299b600",
      "assetIds": []
    },
    {
      "x": 128,
      "y": 177,
      "size": 1,
      "price": "1011000000000000000000",
      "reserved": "",
      "salt": "0xebd5baf5f60dd0e593acaa55b7b49bf1a9fc8b977506c0b57def727e4376fe8f",
      "assetIds": []
    },
    {
      "x": 128,
      "y": 178,
      "size": 1,
      "price": "1011000000000000000000",
      "reserved": "",
      "salt": "0x56b74cc03ebc9fd6c82fca62b1385a2a56c1a5f3b4563563502fd3e1359300b1",
      "assetIds": []
    },
    {
      "x": 128,
      "y": 179,
      "size": 1,
      "price": "1011000000000000000000",
      "reserved": "",
      "salt": "0x767bb00f635d1651d23110b2a6f9025aacc3d44512ef43e50dc9e7de3c1d52e3",
      "assetIds": []
    },
    {
      "x": 128,
      "y": 186,
      "size": 1,
      "price": "1011000000000000000000",
      "reserved": "",
      "salt": "0xbbafe8505a09173ee4be303b9fbc0f361c650beb0cb439d175a5f6244aef8b38",
      "assetIds": []
    },
    {
      "x": 128,
      "y": 187,
      "size": 1,
      "price": "1011000000000000000000",
      "reserved": "",
      "salt": "0x18359e917795fce2b7411866d55d5c210dfe6239fb24f8c9b63eb5a865319cd4",
      "assetIds": []
    },
    {
      "x": 128,
      "y": 188,
      "size": 1,
      "price": "1011000000000000000000",
      "reserved": "0x7a9fe22691c811ea339d9b73150e6911a5343dca",
      "salt": "0xfcda1737baf37c6f1995cb74640a4d4fcdea380d22db5c4f63f3160ed26c4c17",
      "assetIds": []
    },
    {
      "x": 128,
      "y": 189,
      "size": 1,
      "price": "1011000000000000000000",
      "reserved": "",
      "salt": "0xde893bf6e63a4f3864b689b53c50204e588c0cb45999fa46e55a79c9517c7144",
      "assetIds": []
    },
    {
      "x": 128,
      "y": 190,
      "size": 1,
      "price": "1011000000000000000000",
      "reserved": "",
      "salt": "0x95e5c0fc554de912d52f7027c244e3fc1ffda4216d7a297e32a287337e352ebc",
      "assetIds": []
    },
    {
      "x": 128,
      "y": 191,
      "size": 1,
      "price": "4683000000000000000000",
      "reserved": "",
      "salt": "0xf5a597cba079d6b173acafb16dc954a7b76a9a253988ec3878656308f6907158",
      "assetIds": []
    },
    {
      "x": 128,
      "y": 195,
      "size": 1,
      "price": "4683000000000000000000",
      "reserved": "",
      "salt": "0xc6a0ccc5fecf85455798d577acb8a0a975cd5d0eda61031b4a0435ade80fe13d",
      "assetIds": []
    },
    {
      "x": 128,
      "y": 196,
      "size": 1,
      "price": "1011000000000000000000",
      "reserved": "",
      "salt": "0xb66e66c4abaac565437a4a8c26936d7497f90884d3d183ebab78cc619bf337f8",
      "assetIds": []
    },
    {
      "x": 128,
      "y": 197,
      "size": 1,
      "price": "1011000000000000000000",
      "reserved": "",
      "salt": "0x2dcde036e056ab706927d66ff921429c6be9e057c98a75c0f53b2970e9543337",
      "assetIds": []
    },
    {
      "x": 128,
      "y": 198,
      "size": 1,
      "price": "1011000000000000000000",
      "reserved": "",
      "salt": "0xd51d4a8d277ac631651cb45065f4b504980cf1e1a062a75ef77bca075194f0ae",
      "assetIds": []
    },
    {
      "x": 128,
      "y": 199,
      "size": 1,
      "price": "1011000000000000000000",
      "reserved": "",
      "salt": "0x60a5cc6d96f468c6dbae07fdfd9e9141c6444808a96ac8a9ac82709e6d337711",
      "assetIds": []
    },
    {
      "x": 128,
      "y": 200,
      "size": 1,
      "price": "1011000000000000000000",
      "reserved": "",
      "salt": "0x8640ede46282dc8a004ea41b7425b95f016ef24511ea4181ebe88118f712a4b9",
      "assetIds": []
    },
    {
      "x": 129,
      "y": 177,
      "size": 1,
      "price": "1011000000000000000000",
      "reserved": "",
      "salt": "0x598be8ab3d3f7b497303f2a10fd4065d79b20c77ac3e45dc519a0c346d263a71",
      "assetIds": []
    },
    {
      "x": 129,
      "y": 178,
      "size": 1,
      "price": "1011000000000000000000",
      "reserved": "",
      "salt": "0xf4370e7863bdb2de1caf5dfacfcf72ab0bfa5dd829d5a203f4cd6b3112f7e09e",
      "assetIds": []
    },
    {
      "x": 129,
      "y": 179,
      "size": 1,
      "price": "1011000000000000000000",
      "reserved": "",
      "salt": "0x2a5265c178096d9f25aa77309bd1f9aca3d3e797d80d97a85d72f10b842d45f2",
      "assetIds": []
    },
    {
      "x": 129,
      "y": 180,
      "size": 1,
      "price": "1011000000000000000000",
      "reserved": "",
      "salt": "0xd63b65f58f1ec0b32a14b85d559ebcba71cb237988b2a667e0dd69a1ff6ed881",
      "assetIds": []
    },
    {
      "x": 129,
      "y": 181,
      "size": 1,
      "price": "1011000000000000000000",
      "reserved": "",
      "salt": "0x009303266b2dc652acdfbe5146defaa99a1ad6e43f139bbc3685e4f92482fed2",
      "assetIds": []
    },
    {
      "x": 129,
      "y": 182,
      "size": 1,
      "price": "1011000000000000000000",
      "reserved": "",
      "salt": "0x5c0df757d295a25ff2f1420b833175de13477e67f0548ed1590ee0a6046fb322",
      "assetIds": []
    },
    {
      "x": 129,
      "y": 183,
      "size": 1,
      "price": "1011000000000000000000",
      "reserved": "",
      "salt": "0x55cee502c3c99e9cb5c72d3c9ab79c8b7a00516743d66cdb6cfbf7ae4c247950",
      "assetIds": []
    },
    {
      "x": 129,
      "y": 184,
      "size": 1,
      "price": "1011000000000000000000",
      "reserved": "",
      "salt": "0x31ff3bdf479bc44b81fa7ed461889f7a3b7beca4f04800555577e5cec761224f",
      "assetIds": []
    },
    {
      "x": 129,
      "y": 185,
      "size": 1,
      "price": "1011000000000000000000",
      "reserved": "",
      "salt": "0x61cd620fd825ae17cc53d2f756b7eab88d06646ee28b3c76ea9ae36cb34b188b",
      "assetIds": []
    },
    {
      "x": 129,
      "y": 189,
      "size": 1,
      "price": "1011000000000000000000",
      "reserved": "",
      "salt": "0xf91d5a4dfecdbc649a3102d80231f4808fbe979274b7ad58c7b2087746d14367",
      "assetIds": []
    },
    {
      "x": 129,
      "y": 190,
      "size": 1,
      "price": "1011000000000000000000",
      "reserved": "",
      "salt": "0x07d6985bce83ce05ee57ac44d8ef621df17053ca1610936ea7ce031281bfa604",
      "assetIds": []
    },
    {
      "x": 129,
      "y": 191,
      "size": 1,
      "price": "1011000000000000000000",
      "reserved": "",
      "salt": "0xd5e4bf06ff1cefc1d0f0c11f7752410bed1d6f8cefb970f01e40308fb4757821",
      "assetIds": []
    },
    {
      "x": 129,
      "y": 195,
      "size": 1,
      "price": "1011000000000000000000",
      "reserved": "",
      "salt": "0xc9f8129c40462d019ea786e59fd08b99e96cfefcc3999f4f385323e759c905dd",
      "assetIds": []
    },
    {
      "x": 129,
      "y": 196,
      "size": 1,
      "price": "1011000000000000000000",
      "reserved": "",
      "salt": "0x2bb8a7d33bc57298e1f1c64313450e34f13275c7ecac3e4cb7a777cec3b04f9a",
      "assetIds": []
    },
    {
      "x": 129,
      "y": 197,
      "size": 1,
      "price": "1011000000000000000000",
      "reserved": "",
      "salt": "0x684fdcec926b473151191628226795c091f2c17a42a7d7d64f8c5d92fb080a79",
      "assetIds": []
    },
    {
      "x": 129,
      "y": 198,
      "size": 1,
      "price": "1011000000000000000000",
      "reserved": "0x7a9fe22691c811ea339d9b73150e6911a5343dca",
      "salt": "0x28c66f8a9d98f41fe50d747b8f8614a7fcf84bf7965426b3eae36fad8f5b4b00",
      "assetIds": []
    },
    {
      "x": 129,
      "y": 199,
      "size": 1,
      "price": "1011000000000000000000",
      "reserved": "",
      "salt": "0xf34ac81fded43f990d3ea9981a51eb1bde043ef63807256e3c54086611f016c6",
      "assetIds": []
    },
    {
      "x": 129,
      "y": 200,
      "size": 1,
      "price": "1011000000000000000000",
      "reserved": "",
      "salt": "0xfdce9ec18e7b0618e6af085bdab6961886ad43805ebf96cc7a66a4ab38f81aa8",
      "assetIds": []
    },
    {
      "x": 130,
      "y": 177,
      "size": 1,
      "price": "1011000000000000000000",
      "reserved": "",
      "salt": "0xb8159c0cb86d4884a295b3aa0300dc27fabf3521abe3ac59ac13c5b2499c21f9",
      "assetIds": []
    },
    {
      "x": 130,
      "y": 178,
      "size": 1,
      "price": "1011000000000000000000",
      "reserved": "",
      "salt": "0x66db9e99f8753391b3b4eee0f9c76952b64cbb7f74bf10f88cffeba506f9fe80",
      "assetIds": []
    },
    {
      "x": 130,
      "y": 179,
      "size": 1,
      "price": "1011000000000000000000",
      "reserved": "",
      "salt": "0x0ec84ae3731130c050186b351dc5a5dc44860120810ce5009ec1b4ddc2f0cf6c",
      "assetIds": []
    },
    {
      "x": 130,
      "y": 180,
      "size": 1,
      "price": "1011000000000000000000",
      "reserved": "",
      "salt": "0x3a93a83e8b47a8e0b6db708aeee7b473e7771d5d1184ab1775b7107402618cec",
      "assetIds": []
    },
    {
      "x": 130,
      "y": 181,
      "size": 1,
      "price": "1011000000000000000000",
      "reserved": "",
      "salt": "0x46d5878ff549a43d54447e0114108ace8bdfa752d0877136f6ac8c763f659606",
      "assetIds": []
    },
    {
      "x": 130,
      "y": 182,
      "size": 1,
      "price": "1011000000000000000000",
      "reserved": "",
      "salt": "0x946a433a9f83950ac01ca001a58f8f31757602f94a48dc1cb1a474ea67077a6b",
      "assetIds": []
    },
    {
      "x": 130,
      "y": 183,
      "size": 1,
      "price": "1011000000000000000000",
      "reserved": "",
      "salt": "0xdb2bf62a1e0395913d52ead7599a7f7fadd0d272c67a89958cc96da458002e16",
      "assetIds": []
    },
    {
      "x": 130,
      "y": 184,
      "size": 1,
      "price": "1011000000000000000000",
      "reserved": "",
      "salt": "0xce30760dfa187d3a15528549f2b4c65ba5a89b494a3e402fe5fadb41334ef55a",
      "assetIds": []
    },
    {
      "x": 130,
      "y": 185,
      "size": 1,
      "price": "1011000000000000000000",
      "reserved": "",
      "salt": "0x8823db07386de4982bf31fb3a2750f58ae76de367f0598047397660c9e4b9930",
      "assetIds": []
    },
    {
      "x": 130,
      "y": 189,
      "size": 1,
      "price": "1011000000000000000000",
      "reserved": "",
      "salt": "0x9fa0219bb643ad27b88ac5af89dc3c13b809c8a44dcc7293df30abf097b9c572",
      "assetIds": []
    },
    {
      "x": 130,
      "y": 190,
      "size": 1,
      "price": "1011000000000000000000",
      "reserved": "",
      "salt": "0xb64b8d659ac9c01d7943219ab9dddb5fd95821fee36bb3f9804a3fc9e395d234",
      "assetIds": []
    },
    {
      "x": 130,
      "y": 191,
      "size": 1,
      "price": "1011000000000000000000",
      "reserved": "",
      "salt": "0x139d7d453604a9af3cd63c2d4bd19e5c72fd55e439bbaffd4b77e8d66be31247",
      "assetIds": []
    },
    {
      "x": 130,
      "y": 195,
      "size": 1,
      "price": "1011000000000000000000",
      "reserved": "",
      "salt": "0x3c3efb9b71f73b92a2ddc1859e227c453d327b85c3f65a973ad1234da21a2dac",
      "assetIds": []
    },
    {
      "x": 130,
      "y": 196,
      "size": 1,
      "price": "1011000000000000000000",
      "reserved": "",
      "salt": "0xa0145ede2dea5715b9fd3627c6ae43119869e3629a1d11b646d4cb22d9feee77",
      "assetIds": []
    },
    {
      "x": 130,
      "y": 197,
      "size": 1,
      "price": "1011000000000000000000",
      "reserved": "",
      "salt": "0xc6d7875db73281c893c4d3b995ba9df96d867f896f96bf69f8c59333f6784489",
      "assetIds": []
    },
    {
      "x": 130,
      "y": 198,
      "size": 1,
      "price": "1011000000000000000000",
      "reserved": "",
      "salt": "0x840c126cf3e3104e765836d960df4617df6580a45c8a3a3f0edfc7cf23854ffa",
      "assetIds": []
    },
    {
      "x": 130,
      "y": 199,
      "size": 1,
      "price": "1011000000000000000000",
      "reserved": "",
      "salt": "0x0f60e3c1dfbfe5202b1289a53f4ad7fcdc016653fc61ebcf4fab504000a9bba2",
      "assetIds": []
    },
    {
      "x": 130,
      "y": 200,
      "size": 1,
      "price": "1011000000000000000000",
      "reserved": "",
      "salt": "0x89be642ed34543a771977228e86988f566207ac384f4f2d5d27ccb57d2c55d81",
      "assetIds": []
    },
    {
      "x": 131,
      "y": 177,
      "size": 1,
      "price": "1011000000000000000000",
      "reserved": "",
      "salt": "0x8619f968bdab0c7d38ffe1a1e49850532a8d50805c091216513c6cd10b598bf2",
      "assetIds": []
    },
    {
      "x": 131,
      "y": 178,
      "size": 1,
      "price": "1011000000000000000000",
      "reserved": "",
      "salt": "0xd4b4337c8f6b35f1f99df55a99245ceacaf96971aafa87025e301b28d0c8bb95",
      "assetIds": []
    },
    {
      "x": 131,
      "y": 179,
      "size": 1,
      "price": "1011000000000000000000",
      "reserved": "",
      "salt": "0xa3e2f8a6f8dd0ed107aed908b2ca2ca3544f59474cf1b30efd9544ed1b90869e",
      "assetIds": []
    },
    {
      "x": 131,
      "y": 180,
      "size": 1,
      "price": "4683000000000000000000",
      "reserved": "",
      "salt": "0x4af6641a3a6c856768b4eec6ff6d0348d83d3b45ea4c3ed737e65575a9d07ae6",
      "assetIds": []
    },
    {
      "x": 131,
      "y": 181,
      "size": 1,
      "price": "4683000000000000000000",
      "reserved": "",
      "salt": "0x573b879b1d69f7754edfc2a68ae5ef86704e0f15121452ac3b379d5d29573bea",
      "assetIds": []
    },
    {
      "x": 131,
      "y": 182,
      "size": 1,
      "price": "4683000000000000000000",
      "reserved": "",
      "salt": "0xdd64e84666cbcb0cdd22521d4496e6cfedbf5f2a035730930dfa99772fecb7ec",
      "assetIds": []
    },
    {
      "x": 131,
      "y": 183,
      "size": 1,
      "price": "1011000000000000000000",
      "reserved": "",
      "salt": "0x0be23dbfd75847d7e038133d7a66a683202861240b8dff267dd7d617e4e784fa",
      "assetIds": []
    },
    {
      "x": 131,
      "y": 184,
      "size": 1,
      "price": "4683000000000000000000",
      "reserved": "",
      "salt": "0x07e00a8390949eee118f8cff811f189b3569bc8dc366d2bc3522522e7bb75600",
      "assetIds": []
    },
    {
      "x": 131,
      "y": 185,
      "size": 1,
      "price": "4683000000000000000000",
      "reserved": "",
      "salt": "0xfb5cf22f1e30f12acda2090150a60e274317f3ffe70bb11a97a52c0cf70ea89e",
      "assetIds": []
    },
    {
      "x": 131,
      "y": 189,
      "size": 1,
      "price": "1011000000000000000000",
      "reserved": "",
      "salt": "0xaeac785960ce0b29407834bfb9efa2ec43647c3f8d0c0914488a7b942da7ca0c",
      "assetIds": []
    },
    {
      "x": 131,
      "y": 190,
      "size": 1,
      "price": "1011000000000000000000",
      "reserved": "",
      "salt": "0x16f8b59491278193a2a5a9ed0ea9b7c0894452f4854a6044aa5bc9ae7ea31adb",
      "assetIds": []
    },
    {
      "x": 131,
      "y": 191,
      "size": 1,
      "price": "1011000000000000000000",
      "reserved": "",
      "salt": "0x77fb56a52f38ab2fdc1f6820c7e78d06be38aa568645431bc2cef8ed88f1dc0e",
      "assetIds": []
    },
    {
      "x": 131,
      "y": 195,
      "size": 1,
      "price": "4683000000000000000000",
      "reserved": "",
      "salt": "0xc4a4851c2bc1d159d133f7a482f62491a8648a6f71b4201772792ca18a54c0a3",
      "assetIds": []
    },
    {
      "x": 131,
      "y": 196,
      "size": 1,
      "price": "4683000000000000000000",
      "reserved": "",
      "salt": "0x6b6909be1aa6d85466fa1ef2fa7cf00782936508fbb81e237e3cc2d64759270e",
      "assetIds": []
    },
    {
      "x": 131,
      "y": 197,
      "size": 1,
      "price": "4683000000000000000000",
      "reserved": "",
      "salt": "0x9b3567399e24a3ba3f820d3435034d8578f72010979b70b09e8685440ac58710",
      "assetIds": []
    },
    {
      "x": 131,
      "y": 198,
      "size": 1,
      "price": "1011000000000000000000",
      "reserved": "",
      "salt": "0x1b3c88688e86b085a136a8e21f477441cb7be69720050f4ee45c14f83a5fed1a",
      "assetIds": []
    },
    {
      "x": 131,
      "y": 199,
      "size": 1,
      "price": "1011000000000000000000",
      "reserved": "",
      "salt": "0x65c7df5bbcf370251bcc2a08fd34ac94629225da20607a7e7b316834b6d5191f",
      "assetIds": []
    },
    {
      "x": 131,
      "y": 200,
      "size": 1,
      "price": "1011000000000000000000",
      "reserved": "",
      "salt": "0xb564d5d92db6505a32374a1f872e6cef68ca8ce19679f266f5320a75e65af979",
      "assetIds": []
    },
    {
      "x": 132,
      "y": 177,
      "size": 1,
      "price": "1011000000000000000000",
      "reserved": "",
      "salt": "0x3f86be089ee0d52cb29955b762078dc4cf5bcb6916f757967f532900e05cabac",
      "assetIds": []
    },
    {
      "x": 132,
      "y": 178,
      "size": 1,
      "price": "1011000000000000000000",
      "reserved": "",
      "salt": "0xe2d4e8e06df62561f6bb0fb1aef7fd0a71ce6a369bc2eed4ac5f1cabcf2d37dd",
      "assetIds": []
    },
    {
      "x": 132,
      "y": 179,
      "size": 1,
      "price": "4683000000000000000000",
      "reserved": "",
      "salt": "0xa2f67edfc1ce578babf47d98cc0e2bc8de053638e880d917215165314453bfcf",
      "assetIds": []
    },
    {
      "x": 132,
      "y": 189,
      "size": 1,
      "price": "1011000000000000000000",
      "reserved": "",
      "salt": "0xbe51bc65fdd7f9e6e85f0a87602e0d1fc5a3da48d468f8418f96057cdca628ff",
      "assetIds": []
    },
    {
      "x": 132,
      "y": 190,
      "size": 1,
      "price": "1011000000000000000000",
      "reserved": "",
      "salt": "0x1fc1b0fa7d8c90bf25e51614f8117b782f441c44f8904adc2b6d44f9fef9cfd5",
      "assetIds": []
    },
    {
      "x": 132,
      "y": 191,
      "size": 1,
      "price": "1011000000000000000000",
      "reserved": "",
      "salt": "0x38d7a5dec3d74333b26b572660ad1425ec66514577a931b2325654e7d8f65fa6",
      "assetIds": []
    },
    {
      "x": 132,
      "y": 192,
      "size": 1,
      "price": "1011000000000000000000",
      "reserved": "",
      "salt": "0x8a9337deb479f6514b921efa2b5ad33f8193aabd21c03487fac507555e1d0e64",
      "assetIds": []
    },
    {
      "x": 132,
      "y": 193,
      "size": 1,
      "price": "1011000000000000000000",
      "reserved": "",
      "salt": "0xaa0afc9fedcc874cf2ab4c43d359782f887328ba4a09deaaaf0d6b200753e1e7",
      "assetIds": []
    },
    {
      "x": 132,
      "y": 194,
      "size": 1,
      "price": "4683000000000000000000",
      "reserved": "",
      "salt": "0x644ac3656888d0ef89ea695bfbc3179ee1292860187769635d21518c79eeba52",
      "assetIds": []
    },
    {
      "x": 132,
      "y": 198,
      "size": 1,
      "price": "4683000000000000000000",
      "reserved": "",
      "salt": "0xfa51127d470a9ca1364eef46d7cfbaea0158d2a111f7e7ea3135c7076e3e2124",
      "assetIds": []
    },
    {
      "x": 132,
      "y": 199,
      "size": 1,
      "price": "1011000000000000000000",
      "reserved": "",
      "salt": "0x24f2d7de7fc282e9eeb48896ee99fda8c971b9befc968a44c6f4725188e94c58",
      "assetIds": []
    },
    {
      "x": 132,
      "y": 200,
      "size": 1,
      "price": "1011000000000000000000",
      "reserved": "",
      "salt": "0xfd15976f08d8460d786b7e1ac5778beeedb391ec20cf641d61db2150b618b078",
      "assetIds": []
    },
    {
      "x": 133,
      "y": 177,
      "size": 1,
      "price": "1011000000000000000000",
      "reserved": "",
      "salt": "0x8c3fc3e3847aace35e641166f7568f992c222f069a3c5b7960d2e01152f863db",
      "assetIds": []
    },
    {
      "x": 133,
      "y": 178,
      "size": 1,
      "price": "1011000000000000000000",
      "reserved": "",
      "salt": "0x1f021e02ab4a9cf8f75910dfdbcd04a16e696a091bf88ecd3a48350756c4a543",
      "assetIds": []
    },
    {
      "x": 133,
      "y": 179,
      "size": 1,
      "price": "4683000000000000000000",
      "reserved": "",
      "salt": "0x4092d6117ccfa7193d2db7f330e4a067fbeb83d58bb80bcf698acba89f22b6d2",
      "assetIds": []
    },
    {
      "x": 133,
      "y": 189,
      "size": 1,
      "price": "1011000000000000000000",
      "reserved": "",
      "salt": "0xc6e3bfdea5d5db180cfd74ea7935c050682d123ce4e1a18772bbafa4c9f076de",
      "assetIds": []
    },
    {
      "x": 133,
      "y": 190,
      "size": 1,
      "price": "1011000000000000000000",
      "reserved": "",
      "salt": "0xd17f60b879fab74ceb0fe93902433560e72ffbe54fd137c5735bc5a3ec4e245a",
      "assetIds": []
    },
    {
      "x": 133,
      "y": 191,
      "size": 1,
      "price": "1011000000000000000000",
      "reserved": "",
      "salt": "0x926180b53cbb3ea9dffe81126687c8d2a6b68d426e1ca1ad8dde915e0047d6fe",
      "assetIds": []
    },
    {
      "x": 133,
      "y": 192,
      "size": 1,
      "price": "1011000000000000000000",
      "reserved": "",
      "salt": "0x3ccdce79f30c22f6f8e3a0d1e4fa5db0b70507cb559f088ee16aa621fbd07d3d",
      "assetIds": []
    },
    {
      "x": 133,
      "y": 193,
      "size": 1,
      "price": "1011000000000000000000",
      "reserved": "",
      "salt": "0xca26dc3813ffe9c004a5c408f44ece54daaf34b1b888255730574180efb9b008",
      "assetIds": []
    },
    {
      "x": 133,
      "y": 194,
      "size": 1,
      "price": "4683000000000000000000",
      "reserved": "",
      "salt": "0xfc4789a6d8187a477994c7d5649c779bf43d86ccd75aabe300c5d0ff49d989ee",
      "assetIds": []
    },
    {
      "x": 133,
      "y": 198,
      "size": 1,
      "price": "1011000000000000000000",
      "reserved": "",
      "salt": "0xa651a95f373b3d5cb23bc02fe9b2480c47d31eae31796aa90443969c070fff77",
      "assetIds": []
    },
    {
      "x": 133,
      "y": 199,
      "size": 1,
      "price": "1011000000000000000000",
      "reserved": "",
      "salt": "0x8914f6746d09e4c792c1e88ced20256cde88f3fa5321c4f882fd316269f93ec5",
      "assetIds": []
    },
    {
      "x": 133,
      "y": 200,
      "size": 1,
      "price": "1011000000000000000000",
      "reserved": "",
      "salt": "0xfaad89c7751f0b1458243c42ba87b6ff13c57f5cb06c06167849a4d5f418f2d0",
      "assetIds": []
    },
    {
      "x": 134,
      "y": 177,
      "size": 1,
      "price": "1011000000000000000000",
      "reserved": "",
      "salt": "0xfc1bd096837ce07eb4c5ff06cb20345effba1670f48542a157e8636968be1076",
      "assetIds": []
    },
    {
      "x": 134,
      "y": 178,
      "size": 1,
      "price": "1011000000000000000000",
      "reserved": "",
      "salt": "0x69125f94542a678842bebd60d3af319ceeae3ec000423abce7600d1b688122e9",
      "assetIds": []
    },
    {
      "x": 134,
      "y": 179,
      "size": 1,
      "price": "4683000000000000000000",
      "reserved": "",
      "salt": "0x9c1d0801415e6133aded03e3ea02b1bc735d491344d3e817bbc8e8f37852c4a7",
      "assetIds": []
    },
    {
      "x": 134,
      "y": 189,
      "size": 1,
      "price": "4683000000000000000000",
      "reserved": "",
      "salt": "0x0f7dfda48d3e3956916f839e8bdc43c96a004881af38583db78f27bc6455638b",
      "assetIds": []
    },
    {
      "x": 134,
      "y": 190,
      "size": 1,
      "price": "1011000000000000000000",
      "reserved": "",
      "salt": "0x510b12f2484934efcd9c529c4438625e174ca0c5cff146cb5b3c5da49023b73d",
      "assetIds": []
    },
    {
      "x": 134,
      "y": 191,
      "size": 1,
      "price": "4683000000000000000000",
      "reserved": "",
      "salt": "0xebdc95cfe8bc5a0ebf58ffee24131aa9577ff5eb6ff2396ee4f960e188cfba08",
      "assetIds": []
    },
    {
      "x": 134,
      "y": 192,
      "size": 1,
      "price": "1011000000000000000000",
      "reserved": "",
      "salt": "0x34e2306dabd46d9a0ba0531df812326d1f7a1fc44ee706f19a536fb0b3e750a9",
      "assetIds": []
    },
    {
      "x": 134,
      "y": 193,
      "size": 1,
      "price": "1011000000000000000000",
      "reserved": "",
      "salt": "0x3a0249b63e981ad9e777983e631e43cdb177105ad40b93a203d4a295c00c61d3",
      "assetIds": []
    },
    {
      "x": 134,
      "y": 194,
      "size": 1,
      "price": "4683000000000000000000",
      "reserved": "",
      "salt": "0xdc88c03546c89c73c1e20b4bb1d8e638f758b022b451c64f746d8e4ef4e9de38",
      "assetIds": []
    },
    {
      "x": 134,
      "y": 198,
      "size": 1,
      "price": "4683000000000000000000",
      "reserved": "",
      "salt": "0xa153aec378010d7b0f3246e4b5aac1c63478f0b4a5b9bac8473de313465b1a19",
      "assetIds": []
    },
    {
      "x": 134,
      "y": 199,
      "size": 1,
      "price": "1011000000000000000000",
      "reserved": "",
      "salt": "0xea362cdefb52808fc27a9878e8a682eead8fb39a0abc70c7ef15da8996e23d76",
      "assetIds": []
    },
    {
      "x": 134,
      "y": 200,
      "size": 1,
      "price": "1011000000000000000000",
      "reserved": "",
      "salt": "0xd44491f21fc5fb687bbcebc9dd7372617ea468ad52b98a0d1c0d792c2b0b8abb",
      "assetIds": []
    },
    {
      "x": 135,
      "y": 177,
      "size": 1,
      "price": "1011000000000000000000",
      "reserved": "",
      "salt": "0x94f554ba565e6af0416731643fb27da74999f7fc8fc90743057ce191835b0ba9",
      "assetIds": []
    },
    {
      "x": 135,
      "y": 178,
      "size": 1,
      "price": "1011000000000000000000",
      "reserved": "",
      "salt": "0x00ca17aa47db7cfa62be77868283a3b8937ca5bbc702e852d3cfd09240224585",
      "assetIds": []
    },
    {
      "x": 135,
      "y": 179,
      "size": 1,
      "price": "1011000000000000000000",
      "reserved": "",
      "salt": "0x5967acd9c311c754c452f8c9fae6203fe736f48d204853fbc784930761b79198",
      "assetIds": []
    },
    {
      "x": 135,
      "y": 186,
      "size": 1,
      "price": "4683000000000000000000",
      "reserved": "",
      "salt": "0x43b2ba80cdeab1ec1782df9ea653bc08eb0d8384538fecfcee2cf5ad27c7019a",
      "assetIds": []
    },
    {
      "x": 135,
      "y": 187,
      "size": 1,
      "price": "1011000000000000000000",
      "reserved": "",
      "salt": "0xb40d7e4be958015f28c9becc40b03bad12390f0848366ce2dbf78715c3d4a5c8",
      "assetIds": []
    },
    {
      "x": 135,
      "y": 188,
      "size": 1,
      "price": "4683000000000000000000",
      "reserved": "",
      "salt": "0x003478bc7538c5c6a46e0fdfc133e137496541a956bdc611d067c590442d9048",
      "assetIds": []
    },
    {
      "x": 135,
      "y": 195,
      "size": 1,
      "price": "4683000000000000000000",
      "reserved": "",
      "salt": "0xfaddf9f52c123fae69fc745c388acd8912775800379b567e871e29a5d999a2f7",
      "assetIds": []
    },
    {
      "x": 135,
      "y": 196,
      "size": 1,
      "price": "4683000000000000000000",
      "reserved": "",
      "salt": "0xe59747208834e879e9ec62e5ae639f014f6afe94be58fb68d5a90137038d3049",
      "assetIds": []
    },
    {
      "x": 135,
      "y": 197,
      "size": 1,
      "price": "4683000000000000000000",
      "reserved": "",
      "salt": "0x3bb2e191df215c12688ff508905eec046c69ac460c5fc59ca36235290ecb4d1f",
      "assetIds": []
    },
    {
      "x": 136,
      "y": 177,
      "size": 1,
      "price": "1011000000000000000000",
      "reserved": "",
      "salt": "0xb7f56b5c4d9fe255fc673b13ac5d7cb1248cdbab772797820e6af7666eb2f83b",
      "assetIds": []
    },
    {
      "x": 136,
      "y": 178,
      "size": 1,
      "price": "1011000000000000000000",
      "reserved": "",
      "salt": "0xbe89beef58288c6c3c903fcb0758126ba54f97cd8523860888fb7d32189e1884",
      "assetIds": []
    },
    {
      "x": 136,
      "y": 179,
      "size": 1,
      "price": "4683000000000000000000",
      "reserved": "",
      "salt": "0xf20b2f9e831f06dcfa27af5e4cc4e16eaafaf136a5d1df65bbeed8956f51b4eb",
      "assetIds": []
    },
    {
      "x": 136,
      "y": 186,
      "size": 1,
      "price": "4683000000000000000000",
      "reserved": "",
      "salt": "0x9edebff0dba5cd23a84d18bc459334e2b8f277baa4637033eb334eb76331d914",
      "assetIds": []
    },
    {
      "x": 136,
      "y": 187,
      "size": 1,
      "price": "1011000000000000000000",
      "reserved": "",
      "salt": "0x88b5a716639628c8ec8ee4c23a7181fe2fb961346e889ad7b6efa9a79dccf99d",
      "assetIds": []
    },
    {
      "x": 136,
      "y": 188,
      "size": 1,
      "price": "1011000000000000000000",
      "reserved": "",
      "salt": "0xcc83ee55893a7c19919781b32f82ae63f6f661b3c653a4934c24a2832fb938bf",
      "assetIds": []
    },
    {
      "x": 136,
      "y": 195,
      "size": 1,
      "price": "1011000000000000000000",
      "reserved": "",
      "salt": "0x4986802d6d9fb96b5193ecbd338fe029dd8f0b5bfe8f16add67db2da1cb3e23d",
      "assetIds": []
    },
    {
      "x": 136,
      "y": 196,
      "size": 1,
      "price": "1011000000000000000000",
      "reserved": "",
      "salt": "0x62de25d2ab4b319ff31cb11384639237c69b44b2dd349d583d721d62db2e4a31",
      "assetIds": []
    },
    {
      "x": 136,
      "y": 197,
      "size": 1,
      "price": "1011000000000000000000",
      "reserved": "",
      "salt": "0x94c33c41c50d6c4dfcfd9fc38b4c7b0565d49c5c8b9048073420e31afd3cddc2",
      "assetIds": []
    },
    {
      "x": 137,
      "y": 177,
      "size": 1,
      "price": "1011000000000000000000",
      "reserved": "",
      "salt": "0xa119079d8920ecbde4682f4756902a34c3fe1a87cba6e46cbd07d14ab6c12b9d",
      "assetIds": []
    },
    {
      "x": 137,
      "y": 178,
      "size": 1,
      "price": "1011000000000000000000",
      "reserved": "",
      "salt": "0x8ee4669e57d24da19dfb0ef3303aa8581948678cc5a866efaae1e26acb50f695",
      "assetIds": []
    },
    {
      "x": 137,
      "y": 179,
      "size": 1,
      "price": "4683000000000000000000",
      "reserved": "",
      "salt": "0x67c50350a60114a8c7666bd08e6269a8b16688754b9da1505365f47382ac8d4d",
      "assetIds": []
    },
    {
      "x": 137,
      "y": 186,
      "size": 1,
      "price": "4683000000000000000000",
      "reserved": "",
      "salt": "0x5597f6487e3ae093af74e5494ac4ee918b0f754fc8b0987d2b387978b5ae5107",
      "assetIds": []
    },
    {
      "x": 137,
      "y": 187,
      "size": 1,
      "price": "1011000000000000000000",
      "reserved": "",
      "salt": "0x208ec84b9926280e1bf319bce88d2c41f49d7a30e9e599f4fb8e1bad3873222e",
      "assetIds": []
    },
    {
      "x": 137,
      "y": 188,
      "size": 1,
      "price": "4683000000000000000000",
      "reserved": "",
      "salt": "0x76e2968c8b7c07c7e83e449a962fd42e03deee58d9ddff47055b1c6b20b27ac2",
      "assetIds": []
    },
    {
      "x": 137,
      "y": 195,
      "size": 1,
      "price": "1011000000000000000000",
      "reserved": "",
      "salt": "0x0955c0fd6277dd4c41a1f03932ca15c988b1675bb43cc36316a354cae3c07c57",
      "assetIds": []
    },
    {
      "x": 137,
      "y": 196,
      "size": 1,
      "price": "1011000000000000000000",
      "reserved": "",
      "salt": "0xf0a6f321128177288b8bf48d426ded732e84f57585d9442b0ed4bc6e9a487dce",
      "assetIds": []
    },
    {
      "x": 137,
      "y": 197,
      "size": 1,
      "price": "1011000000000000000000",
      "reserved": "",
      "salt": "0xf8753530c8975f95c0216b7888d1b7b5b35e6c25d64d57ff880e0225acf67aca",
      "assetIds": []
    },
    {
      "x": 138,
      "y": 177,
      "size": 1,
      "price": "1011000000000000000000",
      "reserved": "",
      "salt": "0x91fc1fbb87b188314b43353be4cb47e2bf17b85d31efbe8dd67b008856ed0423",
      "assetIds": []
    },
    {
      "x": 138,
      "y": 178,
      "size": 1,
      "price": "1011000000000000000000",
      "reserved": "",
      "salt": "0x7cf2733ae94af9d30aac7304c5d31a69cf31ea9738b264814eda5fc823962008",
      "assetIds": []
    },
    {
      "x": 138,
      "y": 179,
      "size": 1,
      "price": "1011000000000000000000",
      "reserved": "",
      "salt": "0x91093a43041d894522f260c9c3aef9ca34ee1c77040f398b470030dad91ea043",
      "assetIds": []
    },
    {
      "x": 138,
      "y": 186,
      "size": 1,
      "price": "1011000000000000000000",
      "reserved": "",
      "salt": "0x968bd620c665a3d121faee15c61c5642d5806c26828fe8bac307b51339c69114",
      "assetIds": []
    },
    {
      "x": 138,
      "y": 187,
      "size": 1,
      "price": "1011000000000000000000",
      "reserved": "",
      "salt": "0x9b2ab7403c6bea317fd4c795fd79b04b0c6eba9ded7f2abb2e5ecea61cdc18c8",
      "assetIds": []
    },
    {
      "x": 138,
      "y": 188,
      "size": 1,
      "price": "1011000000000000000000",
      "reserved": "",
      "salt": "0x0abf46183ac64545f6043f7457c082c9b35870bc76791e811fed71703eadb26e",
      "assetIds": []
    },
    {
      "x": 138,
      "y": 189,
      "size": 1,
      "price": "4683000000000000000000",
      "reserved": "",
      "salt": "0x45a7e4870137b379a6905514bc622517011855c5a923275c6c8e3b9f77c507ea",
      "assetIds": []
    },
    {
      "x": 138,
      "y": 190,
      "size": 1,
      "price": "1011000000000000000000",
      "reserved": "0x7a9fe22691c811ea339d9b73150e6911a5343dca",
      "salt": "0xa30fb5c03b59d8826a8391404d350c93612516c609f9b1b45761faa415f92d19",
      "assetIds": []
    },
    {
      "x": 138,
      "y": 191,
      "size": 1,
      "price": "4683000000000000000000",
      "reserved": "",
      "salt": "0xb837020965dd2871ff5670393ada99942e4c5d1e626636fd48ab746b7929e49d",
      "assetIds": []
    },
    {
      "x": 138,
      "y": 192,
      "size": 1,
      "price": "1011000000000000000000",
      "reserved": "",
      "salt": "0xd1acbb774493ed946fa1a62e5c151345107c9c110fc7173c7c1a8c7d0eb804ec",
      "assetIds": []
    },
    {
      "x": 138,
      "y": 193,
      "size": 1,
      "price": "1011000000000000000000",
      "reserved": "",
      "salt": "0xdea7e2d237a52514c7ddc1eabb0ac9d2d586fd195b76dbdbf98f9dee93d044f1",
      "assetIds": []
    },
    {
      "x": 138,
      "y": 194,
      "size": 1,
      "price": "1011000000000000000000",
      "reserved": "",
      "salt": "0xbcf3279dbd0b323b24f6b0b59230621307048deb275bf2fabb2fc7bae157b298",
      "assetIds": []
    },
    {
      "x": 138,
      "y": 195,
      "size": 1,
      "price": "1011000000000000000000",
      "reserved": "",
      "salt": "0xaf12af8b185049b3d07cf2a23d91f3ce9daf291e970988ae37be6e3f9f403afb",
      "assetIds": []
    },
    {
      "x": 138,
      "y": 196,
      "size": 1,
      "price": "1011000000000000000000",
      "reserved": "",
      "salt": "0xb188c03fe7f5afb865d6a8fa5bd9068ecc90fb61a03f27528a9099aab97e4f20",
      "assetIds": []
    },
    {
      "x": 138,
      "y": 197,
      "size": 1,
      "price": "1011000000000000000000",
      "reserved": "",
      "salt": "0x4495357fe3a1607378587e99ebf511987bc8a56265e3bf81feb1656a7073d6d4",
      "assetIds": []
    },
    {
      "x": 138,
      "y": 198,
      "size": 1,
      "price": "1011000000000000000000",
      "reserved": "",
      "salt": "0xea59f8b3acf06ce3e17f94d120c2b46ba56926d720a4ad1029d1512042046e04",
      "assetIds": []
    },
    {
      "x": 138,
      "y": 199,
      "size": 1,
      "price": "1011000000000000000000",
      "reserved": "",
      "salt": "0xbb8f00b60c1b9f40c00fa4820b0901af10194a28b904efbf8aedf2916b9c629d",
      "assetIds": []
    },
    {
      "x": 138,
      "y": 200,
      "size": 1,
      "price": "1011000000000000000000",
      "reserved": "",
      "salt": "0x7f82cc71e5d51bfcaed4e8944c37916f6a1a3441b93760348f47752c872887da",
      "assetIds": []
    },
    {
      "x": 139,
      "y": 177,
      "size": 1,
      "price": "1011000000000000000000",
      "reserved": "",
      "salt": "0x05b878f74f1d0fff974f02947c605b66963ecb001f867dc8cb91569ac3447e63",
      "assetIds": []
    },
    {
      "x": 139,
      "y": 178,
      "size": 1,
      "price": "1011000000000000000000",
      "reserved": "",
      "salt": "0x78d3c7c186e4c3746997cbf50299724d0cbadf52b2e0ee1e66943738add9f6aa",
      "assetIds": []
    },
    {
      "x": 139,
      "y": 179,
      "size": 1,
      "price": "1011000000000000000000",
      "reserved": "",
      "salt": "0xdbe78b3444be302765eced39e0bf92ffca858d3db6c338b9c8cde9770fb565c6",
      "assetIds": []
    },
    {
      "x": 139,
      "y": 186,
      "size": 1,
      "price": "1011000000000000000000",
      "reserved": "",
      "salt": "0x63d863f17d83b1cc4fd08aacef60c3d704731c957c12e3fe35240493dbbe43a6",
      "assetIds": []
    },
    {
      "x": 139,
      "y": 187,
      "size": 1,
      "price": "1011000000000000000000",
      "reserved": "",
      "salt": "0x79c315ecdeec5cebe0415a53a20722aa3b9768318f40458446a6509734c98949",
      "assetIds": []
    },
    {
      "x": 139,
      "y": 188,
      "size": 1,
      "price": "1011000000000000000000",
      "reserved": "",
      "salt": "0xe7d0ef57036678249d7affab9fd1bcdbceee5e36993749cc681fd210cd098cc2",
      "assetIds": []
    },
    {
      "x": 139,
      "y": 189,
      "size": 1,
      "price": "1011000000000000000000",
      "reserved": "",
      "salt": "0x4cf178008ecc626834a2c64315496355d64d7cf6f969c30f856506a57c10f75d",
      "assetIds": []
    },
    {
      "x": 139,
      "y": 190,
      "size": 1,
      "price": "1011000000000000000000",
      "reserved": "",
      "salt": "0x3c893d5ef6b533839aa295f3a202783d8f76cfa7bd8d3328cc298404874e3676",
      "assetIds": []
    },
    {
      "x": 139,
      "y": 191,
      "size": 1,
      "price": "1011000000000000000000",
      "reserved": "",
      "salt": "0x7e94421ca8fc86cad9255bfc4b6a93bdbc8b8325bbf0127c5b3e19070868f2fb",
      "assetIds": []
    },
    {
      "x": 139,
      "y": 192,
      "size": 1,
      "price": "1011000000000000000000",
      "reserved": "",
      "salt": "0x8d1777a00f94174a665ac85406e4ce51fdaf83a8c723d621629775c65d6ee570",
      "assetIds": []
    },
    {
      "x": 139,
      "y": 193,
      "size": 1,
      "price": "1011000000000000000000",
      "reserved": "",
      "salt": "0x522ad27c3c0959236c2ae33d9bfbef3a54ec0054521cd959ba514f1bc2b8f39c",
      "assetIds": []
    },
    {
      "x": 139,
      "y": 194,
      "size": 1,
      "price": "1011000000000000000000",
      "reserved": "",
      "salt": "0x6d48e7dd7a5482871b54cbc15c27bb0b4ecded98a45a9ee1c831282dd8712334",
      "assetIds": []
    },
    {
      "x": 139,
      "y": 195,
      "size": 1,
      "price": "1011000000000000000000",
      "reserved": "",
      "salt": "0xb189fd2a7f347f90b65e79100141aba99eb551e31fe3b67a6f97a3bc281d7885",
      "assetIds": []
    },
    {
      "x": 139,
      "y": 196,
      "size": 1,
      "price": "1011000000000000000000",
      "reserved": "",
      "salt": "0xa6c0f4650bd1012cec9e44369393623ff4c4bfa09e873e66b962abac43e1bf1b",
      "assetIds": []
    },
    {
      "x": 139,
      "y": 197,
      "size": 1,
      "price": "1011000000000000000000",
      "reserved": "",
      "salt": "0x71ab50dab74432308bc7992f23fe149168be5b8c699333ba8688c374dea92463",
      "assetIds": []
    },
    {
      "x": 139,
      "y": 198,
      "size": 1,
      "price": "1011000000000000000000",
      "reserved": "",
      "salt": "0x390fcd42bc549ce9799ec44923fb43b58fd402b867cdc319228839550b5bac27",
      "assetIds": []
    },
    {
      "x": 139,
      "y": 199,
      "size": 1,
      "price": "1011000000000000000000",
      "reserved": "",
      "salt": "0xc1fd74a40ae6ff6221e5014c17efea7a95b5c48d845315c66b619bc5f943e36f",
      "assetIds": []
    },
    {
      "x": 139,
      "y": 200,
      "size": 1,
      "price": "1011000000000000000000",
      "reserved": "",
      "salt": "0x4ea53bcd6078d615c380fe26a44694bb994038a1de397554c421ff08bbdb2a68",
      "assetIds": []
    },
    {
      "x": 140,
      "y": 177,
      "size": 1,
      "price": "1011000000000000000000",
      "reserved": "",
      "salt": "0xa7964a34020affb80d801bdb4404956e9c69ca8b15e2e44a52f6487014541166",
      "assetIds": []
    },
    {
      "x": 140,
      "y": 178,
      "size": 1,
      "price": "1011000000000000000000",
      "reserved": "",
      "salt": "0xfe6a0c65163c903932ea6548a83a9796c4c08abe3e5f0515568875a2f5213fe4",
      "assetIds": []
    },
    {
      "x": 140,
      "y": 179,
      "size": 1,
      "price": "1011000000000000000000",
      "reserved": "",
      "salt": "0x9222a0dfc25c91e6ecccd3df8ba62397eb286fe3d5ce0f951558cfe90017749e",
      "assetIds": []
    },
    {
      "x": 140,
      "y": 186,
      "size": 1,
      "price": "1011000000000000000000",
      "reserved": "",
      "salt": "0x778a25e3502302f31b9964f8c30d72f20299886299059851949d1aba7fd2a1b0",
      "assetIds": []
    },
    {
      "x": 140,
      "y": 187,
      "size": 1,
      "price": "1011000000000000000000",
      "reserved": "",
      "salt": "0x305ff5cf889d579da791c8eeb7842c257879960a181891ea6d50ae768c14a527",
      "assetIds": []
    },
    {
      "x": 140,
      "y": 188,
      "size": 1,
      "price": "1011000000000000000000",
      "reserved": "",
      "salt": "0x5723c2d2ecca2ae0199c1c7a009f1d1cd837d1dd7b18e6ccbb5ac0c68d2530c0",
      "assetIds": []
    },
    {
      "x": 140,
      "y": 189,
      "size": 1,
      "price": "1011000000000000000000",
      "reserved": "",
      "salt": "0x2cf05cb6806832f37e5ff03b266cd72ab9c46655450f97194b99b7301f15fb76",
      "assetIds": []
    },
    {
      "x": 140,
      "y": 190,
      "size": 1,
      "price": "1011000000000000000000",
      "reserved": "",
      "salt": "0x2b3cdbb6a03665a96f7c6079491fa535c2dd87a964efc11cd923b3df97a425d5",
      "assetIds": []
    },
    {
      "x": 140,
      "y": 191,
      "size": 1,
      "price": "1011000000000000000000",
      "reserved": "",
      "salt": "0xcb481f9b5e3081b77393870fa735c9d6b42d57c25eeb1f7fed601abe8d25874f",
      "assetIds": []
    },
    {
      "x": 140,
      "y": 192,
      "size": 1,
      "price": "1011000000000000000000",
      "reserved": "",
      "salt": "0x18d5af4ebe3302438e3ad73b2f2e27bb2651cb0b6b097b12f3a610bb27ff654f",
      "assetIds": []
    },
    {
      "x": 140,
      "y": 193,
      "size": 1,
      "price": "1011000000000000000000",
      "reserved": "",
      "salt": "0xc9146718f13247f74214fb65f12bed11c92b68ec34be07572021457f78f3ca82",
      "assetIds": []
    },
    {
      "x": 140,
      "y": 194,
      "size": 1,
      "price": "1011000000000000000000",
      "reserved": "",
      "salt": "0x1096a8d13eb27b2db5601612184dd5baff4d3775376c67374983562427122af6",
      "assetIds": []
    },
    {
      "x": 140,
      "y": 195,
      "size": 1,
      "price": "1011000000000000000000",
      "reserved": "",
      "salt": "0x0c19dabcad60d46407b4618626ec5ccbf9d2df692bd33d74fc71efbb5de58f43",
      "assetIds": []
    },
    {
      "x": 140,
      "y": 196,
      "size": 1,
      "price": "1011000000000000000000",
      "reserved": "",
      "salt": "0xe657f7063c4920159019be69fa25105492650775308239d33b240031b1e1de81",
      "assetIds": []
    },
    {
      "x": 140,
      "y": 197,
      "size": 1,
      "price": "1011000000000000000000",
      "reserved": "",
      "salt": "0x30de538b82393bf48ae2cd77da78d65aa08c39458bac595620e5e4e6de7b0f64",
      "assetIds": []
    },
    {
      "x": 140,
      "y": 198,
      "size": 1,
      "price": "1011000000000000000000",
      "reserved": "",
      "salt": "0xe27b35b5bd4778f562165ba2636dd80bee4df84d4b22a8bf7f18b8658f6e0531",
      "assetIds": []
    },
    {
      "x": 140,
      "y": 199,
      "size": 1,
      "price": "1011000000000000000000",
      "reserved": "",
      "salt": "0x507e65eb6584fee141a9adc2e7e9706adf4b1542b9f9baf1a58e80f90f8effe4",
      "assetIds": []
    },
    {
      "x": 140,
      "y": 200,
      "size": 1,
      "price": "1011000000000000000000",
      "reserved": "",
      "salt": "0x144a05eff708bbd4aab4dab0d91a7a66118324de9d01bdc25dd80fb61ce8b14e",
      "assetIds": []
    },
    {
      "x": 141,
      "y": 177,
      "size": 1,
      "price": "1011000000000000000000",
      "reserved": "",
      "salt": "0x286e7ad54aec24ebf16e763ef3bfae645ba0798536331b3dc64669d2c80bc052",
      "assetIds": []
    },
    {
      "x": 141,
      "y": 178,
      "size": 1,
      "price": "1011000000000000000000",
      "reserved": "",
      "salt": "0xb0e55a5f7e7445f08c3db32e0672c4223f2fd848695faeea8e7def47c78aaa29",
      "assetIds": []
    },
    {
      "x": 141,
      "y": 179,
      "size": 1,
      "price": "1011000000000000000000",
      "reserved": "",
      "salt": "0xfae186ae0ec4bf8e9554a45018fb4a4889c871cc5b6c3fc26c99ce48a3772fea",
      "assetIds": []
    },
    {
      "x": 141,
      "y": 189,
      "size": 1,
      "price": "1011000000000000000000",
      "reserved": "",
      "salt": "0xbad7b2c8ad69fe0abae77b9b93ceda64c87c5cfd71ec6021bd5a13a4c5afe86d",
      "assetIds": []
    },
    {
      "x": 141,
      "y": 190,
      "size": 1,
      "price": "1011000000000000000000",
      "reserved": "",
      "salt": "0x994fd986043d3b39dffc4f363c115e6ab509008aaf79874a839407c850856bd3",
      "assetIds": []
    },
    {
      "x": 141,
      "y": 191,
      "size": 1,
      "price": "1011000000000000000000",
      "reserved": "",
      "salt": "0x77adac6fea7ff72bb89619f1d38d1978d81325931243b40a5bad82e7b605a9fd",
      "assetIds": []
    },
    {
      "x": 141,
      "y": 192,
      "size": 1,
      "price": "1011000000000000000000",
      "reserved": "",
      "salt": "0x5ba7b24c094c0b0030cd119effa3c6920777e79a6c472b7ca19e9c666630bc04",
      "assetIds": []
    },
    {
      "x": 141,
      "y": 193,
      "size": 1,
      "price": "1011000000000000000000",
      "reserved": "",
      "salt": "0xb4a602bd9cdb7c28366db9c711ae51f9f1417d72164f95f4a357c7ea75f1c2fa",
      "assetIds": []
    },
    {
      "x": 141,
      "y": 194,
      "size": 1,
      "price": "1011000000000000000000",
      "reserved": "",
      "salt": "0x4504faeb89917a78cf88e7f1f93e917431d9da3bb2a491e641fadba2425feaf6",
      "assetIds": []
    },
    {
      "x": 141,
      "y": 198,
      "size": 1,
      "price": "1011000000000000000000",
      "reserved": "0x7a9fe22691c811ea339d9b73150e6911a5343dca",
      "salt": "0xf047d2750d9a37b73d436e8fd90a0251b906a19957c88c6d11012edd023eefa5",
      "assetIds": []
    },
    {
      "x": 141,
      "y": 199,
      "size": 1,
      "price": "1011000000000000000000",
      "reserved": "",
      "salt": "0xd78b486c035e7f81ad2868dff7fec190a5d1f702154606a4dd578bd9ed3553d6",
      "assetIds": []
    },
    {
      "x": 141,
      "y": 200,
      "size": 1,
      "price": "1011000000000000000000",
      "reserved": "",
      "salt": "0xec53b27b7c72e0677dea19e6c89d7e5e2773042c79cc4d67097ddc6aa387cdbb",
      "assetIds": []
    },
    {
      "x": 142,
      "y": 177,
      "size": 1,
      "price": "1011000000000000000000",
      "reserved": "",
      "salt": "0xe41909a2c68fac12de7a394ff04a1e326d78e435546a07cabb34859b054b70b6",
      "assetIds": []
    },
    {
      "x": 142,
      "y": 178,
      "size": 1,
      "price": "1011000000000000000000",
      "reserved": "",
      "salt": "0x8797544816eb93721e1959c38d7b0e8c0fbe60462df38d99bfb1795abdb06f68",
      "assetIds": []
    },
    {
      "x": 142,
      "y": 179,
      "size": 1,
      "price": "1011000000000000000000",
      "reserved": "",
      "salt": "0xea5603b652c81d7813f5d1f861574ef2591da83bd532c10f181ddcc736e449aa",
      "assetIds": []
    },
    {
      "x": 142,
      "y": 189,
      "size": 1,
      "price": "1011000000000000000000",
      "reserved": "",
      "salt": "0xc53e5d7c8161bd916b99010ef58d8a51089b55e27e610ae7ed077184a93eb421",
      "assetIds": []
    },
    {
      "x": 142,
      "y": 190,
      "size": 1,
      "price": "1011000000000000000000",
      "reserved": "",
      "salt": "0xcffadf5969add03262aef5f5bc5dacf1288c227beb57cfde5d8e4612899c7816",
      "assetIds": []
    },
    {
      "x": 142,
      "y": 191,
      "size": 1,
      "price": "1011000000000000000000",
      "reserved": "",
      "salt": "0x31015073e0773a5f90c52e0bb72041d4c648713805beca47cd31d9ab9e0d25c7",
      "assetIds": []
    },
    {
      "x": 142,
      "y": 192,
      "size": 1,
      "price": "1011000000000000000000",
      "reserved": "",
      "salt": "0xd0e5f3b0f022704fbfb898863e8d386ee81bbac7507a2a81ef33b637dcd810b5",
      "assetIds": []
    },
    {
      "x": 142,
      "y": 193,
      "size": 1,
      "price": "1011000000000000000000",
      "reserved": "",
      "salt": "0xd46b80437752773e4be56d91a94fe83fdbb2118bb5283eefd6e714821d53668c",
      "assetIds": []
    },
    {
      "x": 142,
      "y": 194,
      "size": 1,
      "price": "1011000000000000000000",
      "reserved": "",
      "salt": "0x42edde8e5b25685046bf7a9d73c1f848efa3089f31688331a7ab9e7fc9add1ce",
      "assetIds": []
    },
    {
      "x": 142,
      "y": 198,
      "size": 1,
      "price": "1011000000000000000000",
      "reserved": "",
      "salt": "0xc1dfbac5f6460e6ea1418cc31d4fec2810427261862927e68ea4f7dc0fd149d1",
      "assetIds": []
    },
    {
      "x": 142,
      "y": 199,
      "size": 1,
      "price": "1011000000000000000000",
      "reserved": "",
      "salt": "0x1babb2d9a07956cebccc5d32f884b6c433f0db81583cb4af79752537f19a1664",
      "assetIds": []
    },
    {
      "x": 142,
      "y": 200,
      "size": 1,
      "price": "1011000000000000000000",
      "reserved": "",
      "salt": "0x4e134265191fb208ab79d3d6746c432a9fe0817772f206774d9efdc6f451f4b9",
      "assetIds": []
    },
    {
      "x": 143,
      "y": 177,
      "size": 1,
      "price": "4683000000000000000000",
      "reserved": "",
      "salt": "0xaacaed22621c999f4f43049d757d8725dd83c15ae3124ee561f2dcfded0abb88",
      "assetIds": []
    },
    {
      "x": 143,
      "y": 178,
      "size": 1,
      "price": "1011000000000000000000",
      "reserved": "0x7a9fe22691c811ea339d9b73150e6911a5343dca",
      "salt": "0xc262316afb060fe2ce883fc73a4de6397bc9fd0441d1b57c5ce8b4a15695953d",
      "assetIds": []
    },
    {
      "x": 143,
      "y": 179,
      "size": 1,
      "price": "4683000000000000000000",
      "reserved": "",
      "salt": "0x8d4a675a7681a16f443dd3e330ccaf658e7dc23a893230e06d413de1a233981f",
      "assetIds": []
    },
    {
      "x": 143,
      "y": 189,
      "size": 1,
      "price": "4683000000000000000000",
      "reserved": "",
      "salt": "0xfab6d59a533d7a1ec5001905e365a0a27c982d61e3d88b2f1f5afa58454d5485",
      "assetIds": []
    },
    {
      "x": 143,
      "y": 190,
      "size": 1,
      "price": "4683000000000000000000",
      "reserved": "",
      "salt": "0x72507ed930c1da24ecee3b104d41a82eeed785261baef370bfc49ce2c6e29190",
      "assetIds": []
    },
    {
      "x": 143,
      "y": 191,
      "size": 1,
      "price": "4683000000000000000000",
      "reserved": "",
      "salt": "0x926b3e304c4e82c0202b4b5435c5668a173466c9e7327b11e319c0868390fca7",
      "assetIds": []
    },
    {
      "x": 143,
      "y": 192,
      "size": 1,
      "price": "1011000000000000000000",
      "reserved": "",
      "salt": "0x2d7b071fbef73ed0a222158dfc8e8ba0ce17b250c9b49a5a8501283f7c0daf9d",
      "assetIds": []
    },
    {
      "x": 143,
      "y": 193,
      "size": 1,
      "price": "1011000000000000000000",
      "reserved": "",
      "salt": "0x2ceebd059ff281af97f4746745014466842acbee788e6a4c411f6d8210f7da7b",
      "assetIds": []
    },
    {
      "x": 143,
      "y": 194,
      "size": 1,
      "price": "1011000000000000000000",
      "reserved": "",
      "salt": "0x3b2b3aac2e3808b107804d9ab397e3e92410ba6a10738de6c1fae9b1360d980d",
      "assetIds": []
    },
    {
      "x": 143,
      "y": 198,
      "size": 1,
      "price": "1011000000000000000000",
      "reserved": "",
      "salt": "0x4e78e42c51956aeb9675789d0f84b9e573961e59ffd32d8053f0bfd7bee8681d",
      "assetIds": []
    },
    {
      "x": 143,
      "y": 199,
      "size": 1,
      "price": "1011000000000000000000",
      "reserved": "",
      "salt": "0x02ee2f4cd2e9f056bc40ab80308f442f423870ef50cf6ac90e7afe29b33d9f60",
      "assetIds": []
    },
    {
      "x": 143,
      "y": 200,
      "size": 1,
      "price": "1011000000000000000000",
      "reserved": "",
      "salt": "0x3e06139daa10e4b0dbd2c3b18603f95bfc774563ef0a848d584de88bfc411bba",
      "assetIds": []
    }
  ],
  "solcInputHash": "b42a863a795806b4ea3a8f05dfa42539",
  "bytecode": "0x6101606040523480156200001257600080fd5b50604051620031e9380380620031e983398181016040526101a08110156200003957600080fd5b508051602082015160408301516060840151608085015160a086015160c087015160e08801516101008901516101208a01516101408b01516101608c0151610180909c015160016000559a9b999a9899979896979596949593949293919290919085856001600160a01b038216620000f8576040805162461bcd60e51b815260206004820152601f60248201527f526566657272616c56616c696461746f723a207a65726f206164647265737300604482015290519081900360640190fd5b600380546001600160a01b0319166001600160a01b0393841617905560045562000130908e1662000459602090811b62002adc17901c565b6200016d5760405162461bcd60e51b8152600401808060200182810382526025815260200180620031c46025913960400191505060405180910390fd5b6200018c8c6001600160a01b03166200045960201b62002adc1760201c565b620001c95760405162461bcd60e51b8152600401808060200182810382526025815260200180620031c46025913960400191505060405180910390fd5b6001600160a01b038b1662000214576040805162461bcd60e51b815260206004820181905260248201526000805160206200317f833981519152604482015290519081900360640190fd5b6001600160a01b038a166200025f576040805162461bcd60e51b815260206004820181905260248201526000805160206200317f833981519152604482015290519081900360640190fd5b6001600160a01b038916620002aa576040805162461bcd60e51b815260206004820181905260248201526000805160206200317f833981519152604482015290519081900360640190fd5b620002c9836001600160a01b03166200045960201b62002adc1760201c565b620003065760405162461bcd60e51b8152600401808060200182810382526025815260200180620031c46025913960400191505060405180910390fd5b6001600160a01b03821662000351576040805162461bcd60e51b815260206004820181905260248201526000805160206200317f833981519152604482015290519081900360640190fd5b62000370816001600160a01b03166200045960201b62002adc1760201c565b620003ad5760405162461bcd60e51b8152600401808060200182810382526025815260200180620031c46025913960400191505060405180910390fd5b6001600160601b031960608e811b821660a0528d901b1660c052620003dd8b60016001600160e01b036200045f16565b600680546001600160a01b039a8b166001600160a01b031991821617909155610140989098526101209690965260018054998916998816999099179098556001600160601b0319606092831b811660e05290821b811660805296901b909516610100525060078054919093169116179055506200050a92505050565b3b151590565b6001600160a01b038216620004a65760405162461bcd60e51b81526004018080602001828103825260258152602001806200319f6025913960400191505060405180910390fd5b6001600160a01b038216600081815260026020908152604091829020805460ff191685151590811790915582519384529083015280517fb21eb88b4e33b3f1281830a7178d74d8aa73220416215726b68ae23d539515cb9281900390910190a15050565b60805160601c60a05160601c60c05160601c60e05160601c6101005160601c6101205161014051612bef6200059060003980610be0528061247e525080610bbc528061159d5250806124fc525080611af25280611c4f525080611aa85280611e4e52806124d9525080611b235280611c205250806111075280611f3a5250612bef6000f3fe608060405234801561001057600080fd5b50600436106101365760003560e01c8063984d6252116100b2578063c10a420811610081578063dc5074af11610066578063dc5074af146108a0578063e56f8a9e146108c6578063f23a6e61146108e357610136565b8063c10a4208146107c1578063caed35001461089857610136565b8063984d62521461055f578063ab1cc78c14610631578063b522ecff14610639578063bc197c811461065f57610136565b806365194ce71161010957806378e6e5b9116100ee57806378e6e5b9146104e55780638a04af6a1461050b5780638f2839701461053957610136565b806365194ce7146103635780636e9960c3146104c157610136565b80631187fd3c1461013b57806325cb5bc01461031b578063495906571461033557806358bc29441461033d575b600080fd5b610319600480360361012081101561015257600080fd5b6001600160a01b038235811692602081013582169260408201359092169181019060808101606082013564010000000081111561018e57600080fd5b8201836020820111156101a057600080fd5b803590602001918460208302840111640100000000831117156101c257600080fd5b919390928235926040810190602001356401000000008111156101e457600080fd5b8201836020820111156101f657600080fd5b8035906020019184602083028401116401000000008311171561021857600080fd5b91939092909160208101903564010000000081111561023657600080fd5b82018360208201111561024857600080fd5b8035906020019184602083028401116401000000008311171561026a57600080fd5b91939092909160208101903564010000000081111561028857600080fd5b82018360208201111561029a57600080fd5b803590602001918460018302840111640100000000831117156102bc57600080fd5b9193909290916020810190356401000000008111156102da57600080fd5b8201836020820111156102ec57600080fd5b8035906020019184600183028401116401000000008311171561030e57600080fd5b509092509050610978565b005b610323610bba565b60408051918252519081900360200190f35b610323610bde565b6103196004803603602081101561035357600080fd5b50356001600160a01b0316610c02565b6104096004803603602081101561037957600080fd5b81019060208101813564010000000081111561039457600080fd5b8201836020820111156103a657600080fd5b803590602001918460018302840111640100000000831117156103c857600080fd5b91908080601f016020809104026020016040519081016040528093929190818152602001838380828437600092019190915250929550610d2e945050505050565b6040518080602001866001600160a01b03166001600160a01b03168152602001856001600160a01b03166001600160a01b03168152602001848152602001838152602001828103825287818151815260200191508051906020019080838360005b8381101561048257818101518382015260200161046a565b50505050905090810190601f1680156104af5780820380516001836020036101000a031916815260200191505b50965050505050505060405180910390f35b6104c9610e33565b604080516001600160a01b039092168252519081900360200190f35b610319600480360360208110156104fb57600080fd5b50356001600160a01b0316610e42565b6103196004803603604081101561052157600080fd5b506001600160a01b0381351690602001351515610f00565b6103196004803603602081101561054f57600080fd5b50356001600160a01b0316610f6d565b6103196004803603606081101561057557600080fd5b6001600160a01b0382351691908101906040810160208201356401000000008111156105a057600080fd5b8201836020820111156105b257600080fd5b803590602001918460208302840111640100000000831117156105d457600080fd5b9193909290916020810190356401000000008111156105f257600080fd5b82018360208201111561060457600080fd5b8035906020019184602083028401116401000000008311171561062657600080fd5b5090925090506110a6565b610323611231565b6103196004803603602081101561064f57600080fd5b50356001600160a01b0316611237565b61078c600480360360a081101561067557600080fd5b6001600160a01b0382358116926020810135909116918101906060810160408201356401000000008111156106a957600080fd5b8201836020820111156106bb57600080fd5b803590602001918460208302840111640100000000831117156106dd57600080fd5b9193909290916020810190356401000000008111156106fb57600080fd5b82018360208201111561070d57600080fd5b8035906020019184602083028401116401000000008311171561072f57600080fd5b91939092909160208101903564010000000081111561074d57600080fd5b82018360208201111561075f57600080fd5b8035906020019184600183028401116401000000008311171561078157600080fd5b509092509050611348565b604080517fffffffff000000000000000000000000000000000000000000000000000000009092168252519081900360200190f35b610884600480360360a08110156107d757600080fd5b8101906020810181356401000000008111156107f257600080fd5b82018360208201111561080457600080fd5b8035906020019184600183028401116401000000008311171561082657600080fd5b91908080601f016020809104026020016040519081016040528093929190818152602001838380828437600092019190915250929550506001600160a01b038335811694506020840135169260408101359250606001359050611375565b604080519115158252519081900360200190f35b6104c96114b1565b610884600480360360208110156108b657600080fd5b50356001600160a01b03166114c0565b610319600480360360208110156108dc57600080fd5b50356114de565b61078c600480360360a08110156108f957600080fd5b6001600160a01b03823581169260208101359091169160408201359160608101359181019060a08101608082013564010000000081111561093957600080fd5b82018360208201111561094b57600080fd5b8035906020019184600183028401116401000000008311171561096d57600080fd5b509092509050611570565b600260005414156109d0576040805162461bcd60e51b815260206004820152601f60248201527f5265656e7472616e637947756172643a207265656e7472616e742063616c6c00604482015290519081900360640190fd5b60026000556109df8e8d61159b565b610ad68d8d8d8d80806020026020016040519081016040528093929190818152602001838360200280828437600081840152601f19601f820116905080830192505050505050508c8c8c80806020026020016040519081016040528093929190818152602001838360200280828437600081840152601f19601f820116905080830192505050505050508b8b8080602002602001604051908101604052809392919081815260200183836020028082843760009201919091525050604080516020601f8d018190048102820181019092528b815292508b91508a90819084018382808284376000920191909152506116fe92505050565b610b2a8e8c8c6003818110610ae757fe5b9050602002013586868080601f016020809104026020016040519081016040528093929190818152602001838380828437600092019190915250611a8192505050565b610b688e8e8d8d80806020026020016040519081016040528093929190818152602001838360200280828437600092019190915250611ad292505050565b610ba58d898980806020026020016040519081016040528093929190818152602001838360200280828437600092019190915250611ec392505050565b50506001600055505050505050505050505050565b7f000000000000000000000000000000000000000000000000000000000000000090565b7f000000000000000000000000000000000000000000000000000000000000000090565b6001546001600160a01b03163314610c61576040805162461bcd60e51b815260206004820152601260248201527f6f6e6c792061646d696e20616c6c6f7765640000000000000000000000000000604482015290519081900360640190fd5b6001600160a01b038116610cbc576040805162461bcd60e51b815260206004820152601f60248201527f526566657272616c56616c696461746f723a207a65726f206164647265737300604482015290519081900360640190fd5b600380546001600160a01b03908116600090815260056020526040808220620d2f0042019055835473ffffffffffffffffffffffffffffffffffffffff1916928516928317909355915190917fbbb5fb2ee7e707ae0c968f63e94211ea81e66a718c34e2f810a7619e5678a21791a250565b606060008060008060606000806000808a80602001905160a0811015610d5357600080fd5b8101908080516040519392919084640100000000821115610d7357600080fd5b908301906020820185811115610d8857600080fd5b8251640100000000811182820188101715610da257600080fd5b82525081516020918201929091019080838360005b83811015610dcf578181015183820152602001610db7565b50505050905090810190601f168015610dfc5780820380516001836020036101000a031916815260200191505b5060409081526020820151908201516060830151608090930151959f50909d509b5099509197505050505050505091939590929450565b6001546001600160a01b031690565b6001546001600160a01b03163314610e8b5760405162461bcd60e51b8152600401808060200182810382526023815260200180612b056023913960400191505060405180910390fd5b6001600160a01b038116610ee6576040805162461bcd60e51b815260206004820152601f60248201527f526566657272616c56616c696461746f723a207a65726f206164647265737300604482015290519081900360640190fd5b6001600160a01b0316600090815260056020526040812055565b6001546001600160a01b03163314610f5f576040805162461bcd60e51b815260206004820152601260248201527f6f6e6c792061646d696e20616c6c6f7765640000000000000000000000000000604482015290519081900360640190fd5b610f698282612087565b5050565b6001546001600160a01b03163314610fcc576040805162461bcd60e51b815260206004820152601b60248201527f6f6e6c792061646d696e2063616e206368616e67652061646d696e0000000000604482015290519081900360640190fd5b6001546001600160a01b038281169116141561102f576040805162461bcd60e51b815260206004820152600d60248201527f616c72656164792061646d696e00000000000000000000000000000000000000604482015290519081900360640190fd5b600154604080516001600160a01b039283168152918316602083015280517f7e644d79422f17c01e4894b5f4f588d331ebfa28653d42ae832dc59e38c9798f9281900390910190a16001805473ffffffffffffffffffffffffffffffffffffffff19166001600160a01b0392909216919091179055565b6001546001600160a01b03163314611105576040805162461bcd60e51b815260206004820152600e60248201527f4e4f545f415554484f52495a4544000000000000000000000000000000000000604482015290519081900360640190fd5b7f00000000000000000000000000000000000000000000000000000000000000006001600160a01b0316632eb2c2d63087878787876040518763ffffffff1660e01b815260040180876001600160a01b03166001600160a01b03168152602001866001600160a01b03166001600160a01b031681526020018060200180602001806020018481038452888882818152602001925060200280828437600083820152601f01601f19169091018581038452868152602090810191508790870280828437600081840152601f19601f8201169050808301925050508481038252600081526020016020019950505050505050505050600060405180830381600087803b15801561121257600080fd5b505af1158015611226573d6000803e3d6000fd5b505050505050505050565b60045490565b6001600160a01b038116611292576040805162461bcd60e51b815260206004820152600c60248201527f5a45524f5f414444524553530000000000000000000000000000000000000000604482015290519081900360640190fd5b6001546001600160a01b031633146112f1576040805162461bcd60e51b815260206004820152600e60248201527f4e4f545f415554484f52495a4544000000000000000000000000000000000000604482015290519081900360640190fd5b6006805473ffffffffffffffffffffffffffffffffffffffff19166001600160a01b0383169081179091556040517f4d66958b757eb92a1b43d02be4c38c9500b73f532420ee3706cb43d420ba023690600090a250565b7fbc197c810000000000000000000000000000000000000000000000000000000098975050505050505050565b60006004548211806113985750836001600160a01b0316856001600160a01b0316145b806113a257508242115b156113af575060006114a8565b60408051606087811b7fffffffffffffffffffffffffffffffffffffffff0000000000000000000000009081166020808501919091529188901b166034830152604882018690526068808301869052835180840390910181526088830184528051908201207f19457468657265756d205369676e6564204d6573736167653a0a33320000000060a884015260c48084018290528451808503909101815260e49093019093528151910120600090611466908961214e565b6001600160a01b0381166000908152600560205260409020549091504211611493576001925050506114a8565b6003546001600160a01b039081169116149150505b95945050505050565b6003546001600160a01b031690565b6001600160a01b031660009081526002602052604090205460ff1690565b6001546001600160a01b0316331461153d576040805162461bcd60e51b815260206004820152601260248201527f6f6e6c792061646d696e20616c6c6f7765640000000000000000000000000000604482015290519081900360640190fd5b600481905560405181907f774069781371d65424b3b0b101c1d40014532cac040f979595b99a3fcf8ce08c90600090a250565b7ff23a6e61000000000000000000000000000000000000000000000000000000009695505050505050565b7f0000000000000000000000000000000000000000000000000000000000000000421061160f576040805162461bcd60e51b815260206004820152600c60248201527f53414c455f49535f4f5645520000000000000000000000000000000000000000604482015290519081900360640190fd5b6001600160a01b03821633148061163557503360009081526002602052604090205460ff165b611686576040805162461bcd60e51b815260206004820152600e60248201527f4e4f545f415554484f52495a4544000000000000000000000000000000000000604482015290519081900360640190fd5b6001600160a01b03811615806116ad5750816001600160a01b0316816001600160a01b0316145b610f69576040805162461bcd60e51b815260206004820152600d60248201527f52455345525645445f4c414e4400000000000000000000000000000000000000604482015290519081900360640190fd5b600087878760008151811061170f57fe5b60200260200101518860018151811061172457fe5b60200260200101518960028151811061173957fe5b60200260200101518a60038151811061174e57fe5b60200260200101518a8a60405160200180828051906020019060200280838360005b83811015611788578181015183820152602001611770565b50505050905001915050604051602081830303815290604052805190602001208a60405160200180828051906020019060200280838360005b838110156117d95781810151838201526020016117c1565b5050505090500191505060405160208183030381529060405280519060200120604051602001808a6001600160a01b03166001600160a01b031660601b8152601401896001600160a01b03166001600160a01b031660601b81526014018881526020018781526020018681526020018581526020018481526020018381526020018281526020019950505050505050505050604051602081830303815290604052805190602001209050600760009054906101000a90046001600160a01b03166001600160a01b031663012847ed83836040518363ffffffff1660e01b81526004018080602001838152602001828103825284818151815260200191508051906020019080838360005b838110156118fb5781810151838201526020016118e3565b50505050905090810190601f1680156119285780820380516001836020036101000a031916815260200191505b50935050505060206040518083038186803b15801561194657600080fd5b505afa15801561195a573d6000803e3d6000fd5b505050506040513d602081101561197057600080fd5b50516119c3576040805162461bcd60e51b815260206004820152600c60248201527f494e56414c49445f415554480000000000000000000000000000000000000000604482015290519081900360640190fd5b6000611a24876000815181106119d557fe5b6020026020010151886001815181106119ea57fe5b6020026020010151896002815181106119ff57fe5b60200260200101518a600381518110611a1457fe5b60200260200101518c8b8b612337565b9050611a3084826123dc565b611226576040805162461bcd60e51b815260206004820152600c60248201527f494e56414c49445f4c414e440000000000000000000000000000000000000000604482015290519081900360640190fd5b6000611a8d84846124a5565b600654909150611acc908590839085906001600160a01b03167f000000000000000000000000000000000000000000000000000000000000000061253f565b50505050565b80600281518110611adf57fe5b602002602001015160011480611b1c57507f00000000000000000000000000000000000000000000000000000000000000006001600160a01b0316155b15611c1e577f00000000000000000000000000000000000000000000000000000000000000006001600160a01b0316636e1e3bbf8383600281518110611b5e57fe5b602002602001015184600081518110611b7357fe5b602002602001015185600181518110611b8857fe5b60200260200101516040518563ffffffff1660e01b815260040180856001600160a01b03166001600160a01b031681526020018481526020018381526020018281526020018060200182810382526000815260200160200195505050505050600060405180830381600087803b158015611c0157600080fd5b505af1158015611c15573d6000803e3d6000fd5b50505050611dbe565b7f00000000000000000000000000000000000000000000000000000000000000006001600160a01b0316636e1e3bbf7f000000000000000000000000000000000000000000000000000000000000000083600281518110611c7b57fe5b602002602001015184600081518110611c9057fe5b602002602001015185600181518110611ca557fe5b60200260200101518760405160200180826001600160a01b03166001600160a01b031681526020019150506040516020818303038152906040526040518663ffffffff1660e01b815260040180866001600160a01b03166001600160a01b0316815260200185815260200184815260200183815260200180602001828103825283818151815260200191508051906020019080838360005b83811015611d55578181015183820152602001611d3d565b50505050905090810190601f168015611d825780820380516001836020036101000a031916815260200191505b509650505050505050600060405180830381600087803b158015611da557600080fd5b505af1158015611db9573d6000803e3d6000fd5b505050505b61019881600181518110611dce57fe5b60200260200101510281600081518110611de457fe5b602002602001015101826001600160a01b0316846001600160a01b03167fe4dfa6ac11314892f3029b34a25b1a887da3b1cab2bbf8506d87128ba6e3ac0284600281518110611e2f57fe5b602002602001015185600381518110611e4457fe5b60200260200101517f000000000000000000000000000000000000000000000000000000000000000087600381518110611e7a57fe5b602002602001015160405180858152602001848152602001836001600160a01b03166001600160a01b0316815260200182815260200194505050505060405180910390a4505050565b6060815167ffffffffffffffff81118015611edd57600080fd5b50604051908082528060200260200182016040528015611f07578160200160208202803683370190505b50905060005b8251811015611f37576001828281518110611f2457fe5b6020908102919091010152600101611f0d565b507f00000000000000000000000000000000000000000000000000000000000000006001600160a01b0316632eb2c2d6308585856040518563ffffffff1660e01b815260040180856001600160a01b03166001600160a01b03168152602001846001600160a01b03166001600160a01b03168152602001806020018060200180602001848103845286818151815260200191508051906020019060200280838360005b83811015611ff2578181015183820152602001611fda565b50505050905001848103835285818151815260200191508051906020019060200280838360005b83811015612031578181015183820152602001612019565b50505050905001848103825260008152602001602001975050505050505050600060405180830381600087803b15801561206a57600080fd5b505af115801561207e573d6000803e3d6000fd5b50505050505050565b6001600160a01b0382166120cc5760405162461bcd60e51b8152600401808060200182810382526025815260200180612b6b6025913960400191505060405180910390fd5b6001600160a01b03821660008181526002602090815260409182902080547fffffffffffffffffffffffffffffffffffffffffffffffffffffffffffffff001685151590811790915582519384529083015280517fb21eb88b4e33b3f1281830a7178d74d8aa73220416215726b68ae23d539515cb9281900390910190a15050565b600081516041146121a6576040805162461bcd60e51b815260206004820152601f60248201527f45434453413a20696e76616c6964207369676e6174757265206c656e67746800604482015290519081900360640190fd5b60208201516040830151606084015160001a7f7fffffffffffffffffffffffffffffff5d576e7357a4501ddfe92f46681b20a08211156122175760405162461bcd60e51b8152600401808060200182810382526022815260200180612ae36022913960400191505060405180910390fd5b8060ff16601b1415801561222f57508060ff16601c14155b1561226b5760405162461bcd60e51b8152600401808060200182810382526022815260200180612b286022913960400191505060405180910390fd5b60408051600080825260208083018085528a905260ff85168385015260608301879052608083018690529251909260019260a080820193601f1981019281900390910190855afa1580156122c3573d6000803e3d6000fd5b5050604051601f1901519150506001600160a01b03811661232b576040805162461bcd60e51b815260206004820152601860248201527f45434453413a20696e76616c6964207369676e61747572650000000000000000604482015290519081900360640190fd5b93505050505b92915050565b60008787878787878760405160200180888152602001878152602001868152602001858152602001846001600160a01b03166001600160a01b031660601b8152601401838152602001828051906020019060200280838360005b838110156123a9578181015183820152602001612391565b50505050905001975050505050505050604051602081830303815290604052805190602001209050979650505050505050565b600081815b845181101561247b5760008582815181106123f857fe5b60200260200101519050808310156124405782816040516020018083815260200182815260200192505050604051602081830303815290604052805190602001209250612472565b808360405160200180838152602001828152602001925050506040516020818303038152906040528051906020012092505b506001016123e1565b507f0000000000000000000000000000000000000000000000000000000000000000149392505050565b6000806124ca60646124be85600563ffffffff61264716565b9063ffffffff6126a716565b90506125276001600160a01b037f000000000000000000000000000000000000000000000000000000000000000016857f00000000000000000000000000000000000000000000000000000000000000008463ffffffff6126e916565b612537838263ffffffff61277116565b949350505050565b8251819085901561262c57606060008060008061255b8a610d2e565b93985091965094509250905060006125768686868686611375565b15612604576125906125888d84612647565b6127106126a7565b9050886001600160a01b0316846001600160a01b0316866001600160a01b03167fac7a699eb95c3c6d390ec4626de17ef9a67b35891efdb197beba7c7fdd45fac48f858760405180848152602001838152602001828152602001935050505060405180910390a46126018782612771565b96505b8015612625576126256001600160a01b0389168e878463ffffffff6126e916565b5050505050505b61207e6001600160a01b03831688868463ffffffff6126e916565b60008261265657506000612331565b8282028284828161266357fe5b04146126a05760405162461bcd60e51b8152600401808060200182810382526021815260200180612b4a6021913960400191505060405180910390fd5b9392505050565b60006126a083836040518060400160405280601a81526020017f536166654d6174683a206469766973696f6e206279207a65726f0000000000008152506127b3565b604080516001600160a01b0380861660248301528416604482015260648082018490528251808303909101815260849091019091526020810180517bffffffffffffffffffffffffffffffffffffffffffffffffffffffff167f23b872dd00000000000000000000000000000000000000000000000000000000179052611acc908590612855565b60006126a083836040518060400160405280601e81526020017f536166654d6174683a207375627472616374696f6e206f766572666c6f77000081525061290b565b6000818361283f5760405162461bcd60e51b81526004018080602001828103825283818151815260200191508051906020019080838360005b838110156128045781810151838201526020016127ec565b50505050905090810190601f1680156128315780820380516001836020036101000a031916815260200191505b509250505060405180910390fd5b50600083858161284b57fe5b0495945050505050565b60606128aa826040518060400160405280602081526020017f5361666545524332303a206c6f772d6c6576656c2063616c6c206661696c6564815250856001600160a01b03166129659092919063ffffffff16565b805190915015612906578080602001905160208110156128c957600080fd5b50516129065760405162461bcd60e51b815260040180806020018281038252602a815260200180612b90602a913960400191505060405180910390fd5b505050565b6000818484111561295d5760405162461bcd60e51b81526020600482018181528351602484015283519092839260449091019190850190808383600083156128045781810151838201526020016127ec565b505050900390565b60606125378484600085606061297a85612adc565b6129cb576040805162461bcd60e51b815260206004820152601d60248201527f416464726573733a2063616c6c20746f206e6f6e2d636f6e7472616374000000604482015290519081900360640190fd5b60006060866001600160a01b031685876040518082805190602001908083835b60208310612a0a5780518252601f1990920191602091820191016129eb565b6001836020036101000a03801982511681845116808217855250505050505090500191505060006040518083038185875af1925050503d8060008114612a6c576040519150601f19603f3d011682016040523d82523d6000602084013e612a71565b606091505b50915091508115612a855791506125379050565b805115612a955780518082602001fd5b60405162461bcd60e51b81526020600482018181528651602484015286518793919283926044019190850190808383600083156128045781810151838201526020016127ec565b3b15159056fe45434453413a20696e76616c6964207369676e6174757265202773272076616c7565526566657272616c56616c696461746f723a2053656e646572206e6f742061646d696e45434453413a20696e76616c6964207369676e6174757265202776272076616c7565536166654d6174683a206d756c7469706c69636174696f6e206f766572666c6f774d6574615472616e73616374696f6e52656365697665723a207a65726f20616464726573735361666545524332303a204552433230206f7065726174696f6e20646964206e6f742073756363656564a264697066735822122077f2d13cbcb85fa08010a53c1e4ef27117b031e8c1c9273d55cef362af299f3164736f6c6343000605003345737461746553616c6557697468417574683a207a65726f20616464726573734d6574615472616e73616374696f6e52656365697665723a207a65726f206164647265737345737461746553616c6557697468417574683a206973206e6f74206120636f6e7472616374",
  "devdoc": {
    "methods": {
      "buyLandWithSand(address,address,address,uint256[],bytes32,uint256[],bytes32[],bytes,bytes)": {
        "params": {
          "assetIds": "asset ids (lands) that will be bought",
          "buyer": "address that perform the payment",
          "info": "[X_INDEX=0] x coordinate of the Land [Y_INDEX=1] y coordinate of the Land [SIZE_INDEX=2] size of the pack of Land to purchase [PRICE_INDEX=3] price in SAND to purchase that Land",
          "proof": "merkleProof for that particular Land",
          "referral": "referral id",
          "reserved": "the reserved address (if any)",
          "salt": "The salt submitted for verification.",
          "signature": "A signed message specifying tx details",
          "to": "address that will own the purchased Land"
        }
      },
      "changeAdmin(address)": {
        "details": "change the administrator to be `newAdmin`.",
        "params": {
          "newAdmin": "address of the new administrator."
        }
      },
      "disablePreviousSigningWallet(address)": {
        "details": "Disable compromised signing wallet",
        "params": {
          "disableWallet": "The wallet address to be disabled"
        }
      },
      "getAdmin()": {
        "details": "gives the current administrator of this contract.",
        "returns": {
          "_0": "the current administrator of this contract."
        }
      },
      "getSigningWallet()": {
        "details": "signing wallet authorized for referral",
        "returns": {
          "_0": "the address of the signing wallet"
        }
      },
      "isMetaTransactionProcessor(address)": {
        "details": "check whether address `who` is given meta-transaction execution rights.",
        "params": {
          "who": "The address to query."
        },
        "returns": {
          "_0": "whether the address has meta-transaction execution rights."
        }
      },
      "isReferralValid(bytes,address,address,uint256,uint256)": {
        "params": {
          "commissionRate": "The commissionRate of the referral",
          "expiryTime": "The expiry time of the referral",
          "referee": "The address of the referee",
          "referrer": "The address of the referrer",
          "signature": "The signature to check (signed referral)"
        },
        "returns": {
          "_0": "True if the referral is valid"
        }
      },
      "setMetaTransactionProcessor(address,bool)": {
        "details": "Enable or disable the ability of `metaTransactionProcessor` to perform meta-tx (metaTransactionProcessor rights).",
        "params": {
          "enabled": "set whether the metaTransactionProcessor is enabled or disabled.",
          "metaTransactionProcessor": "address that will be given/removed metaTransactionProcessor rights."
        }
      },
      "setReceivingWallet(address)": {
        "params": {
          "newWallet": "address of the new receiving wallet"
        }
      },
      "updateMaxCommissionRate(uint256)": {
        "details": "Update the maximum commission rate",
        "params": {
          "newMaxCommissionRate": "The new maximum commission rate"
        }
      },
      "updateSigningWallet(address)": {
        "details": "Update the signing wallet The previous wallet is still valid for a grace period (_previousSigningDelay). If you want to disable the previous wallet, use the disablePreviousSigningWallet function.",
        "params": {
          "newSigningWallet": "The new address of the signing wallet"
        }
      },
      "withdrawAssets(address,uint256[],uint256[])": {
        "params": {
          "assetIds": "the assetIds to be transferred",
          "to": "intended recipient of the asset tokens",
          "values": "the quantities of the assetIds to be transferred"
        }
      }
    },
    "title": "Estate Sale contract with referral"
  },
  "userdoc": {
    "methods": {
      "buyLandWithSand(address,address,address,uint256[],bytes32,uint256[],bytes32[],bytes,bytes)": {
        "notice": "buy Land with SAND using the merkle proof associated with it"
      },
      "getExpiryTime()": {
        "notice": "Gets the expiry time for the current sale"
      },
      "getMaxCommissionRate()": {
        "notice": "the max commission rate"
      },
      "getMerkleRoot()": {
        "notice": "Gets the Merkle root associated with the current sale"
      },
      "isReferralValid(bytes,address,address,uint256,uint256)": {
        "notice": "Check if a referral is valid"
      },
      "setReceivingWallet(address)": {
        "notice": "set the wallet receiving the proceeds"
      },
      "withdrawAssets(address,uint256[],uint256[])": {
        "notice": "enable Admin to withdraw remaining assets from EstateSaleWithFee contract"
      }
    },
    "notice": "This contract manages the sale of our lands as Estates"
  },
  "storageLayout": {
    "storage": [
      {
        "astId": 1129,
        "contract": "src/solc_0.6/EstateSale/EstateSaleWithAuth.sol:EstateSaleWithAuth",
        "label": "_status",
        "offset": 0,
        "slot": "0",
        "type": "t_uint256"
      },
      {
        "astId": 14099,
        "contract": "src/solc_0.6/EstateSale/EstateSaleWithAuth.sol:EstateSaleWithAuth",
        "label": "_admin",
        "offset": 0,
        "slot": "1",
        "type": "t_address"
      },
      {
        "astId": 14168,
        "contract": "src/solc_0.6/EstateSale/EstateSaleWithAuth.sol:EstateSaleWithAuth",
        "label": "_metaTransactionContracts",
        "offset": 0,
        "slot": "2",
        "type": "t_mapping(t_address,t_bool)"
      },
      {
        "astId": 12200,
        "contract": "src/solc_0.6/EstateSale/EstateSaleWithAuth.sol:EstateSaleWithAuth",
        "label": "_signingWallet",
        "offset": 0,
        "slot": "3",
        "type": "t_address"
      },
      {
        "astId": 12202,
        "contract": "src/solc_0.6/EstateSale/EstateSaleWithAuth.sol:EstateSaleWithAuth",
        "label": "_maxCommissionRate",
        "offset": 0,
        "slot": "4",
        "type": "t_uint256"
      },
      {
        "astId": 12206,
        "contract": "src/solc_0.6/EstateSale/EstateSaleWithAuth.sol:EstateSaleWithAuth",
        "label": "_previousSigningWallets",
        "offset": 0,
        "slot": "5",
        "type": "t_mapping(t_address,t_uint256)"
      },
      {
        "astId": 7750,
        "contract": "src/solc_0.6/EstateSale/EstateSaleWithAuth.sol:EstateSaleWithAuth",
        "label": "_wallet",
        "offset": 0,
        "slot": "6",
        "type": "t_address_payable"
      },
      {
        "astId": 7752,
        "contract": "src/solc_0.6/EstateSale/EstateSaleWithAuth.sol:EstateSaleWithAuth",
        "label": "_authValidator",
        "offset": 0,
        "slot": "7",
        "type": "t_contract(AuthValidator)7063"
      }
    ],
    "types": {
      "t_address": {
        "encoding": "inplace",
        "label": "address",
        "numberOfBytes": "20"
      },
      "t_address_payable": {
        "encoding": "inplace",
        "label": "address payable",
        "numberOfBytes": "20"
      },
      "t_bool": {
        "encoding": "inplace",
        "label": "bool",
        "numberOfBytes": "1"
      },
      "t_contract(AuthValidator)7063": {
        "encoding": "inplace",
        "label": "contract AuthValidator",
        "numberOfBytes": "20"
      },
      "t_mapping(t_address,t_bool)": {
        "encoding": "mapping",
        "key": "t_address",
        "label": "mapping(address => bool)",
        "numberOfBytes": "32",
        "value": "t_bool"
      },
      "t_mapping(t_address,t_uint256)": {
        "encoding": "mapping",
        "key": "t_address",
        "label": "mapping(address => uint256)",
        "numberOfBytes": "32",
        "value": "t_uint256"
      },
      "t_uint256": {
        "encoding": "inplace",
        "label": "uint256",
        "numberOfBytes": "32"
      }
    }
  }
}