{
  "address": "0x4f19b3B999e6746798A543868fEA0bDD299b1c60",
  "abi": [
    {
      "inputs": [
        {
          "internalType": "address",
          "name": "landAddress",
          "type": "address"
        },
        {
          "internalType": "address",
          "name": "sandContractAddress",
          "type": "address"
        },
        {
          "internalType": "address",
          "name": "initialMetaTx",
          "type": "address"
        },
        {
          "internalType": "address",
          "name": "admin",
          "type": "address"
        },
        {
          "internalType": "address payable",
          "name": "initialWalletAddress",
          "type": "address"
        },
        {
          "internalType": "bytes32",
          "name": "merkleRoot",
          "type": "bytes32"
        },
        {
          "internalType": "uint256",
          "name": "expiryTime",
          "type": "uint256"
        },
        {
          "internalType": "address",
          "name": "initialSigningWallet",
          "type": "address"
        },
        {
          "internalType": "uint256",
          "name": "initialMaxCommissionRate",
          "type": "uint256"
        },
        {
          "internalType": "address",
          "name": "estate",
          "type": "address"
        },
        {
          "internalType": "address",
          "name": "asset",
          "type": "address"
        },
        {
          "internalType": "address",
          "name": "feeDistributor",
          "type": "address"
        },
        {
          "internalType": "address",
          "name": "authValidator",
          "type": "address"
        }
      ],
      "stateMutability": "nonpayable",
      "type": "constructor"
    },
    {
      "anonymous": false,
      "inputs": [
        {
          "indexed": false,
          "internalType": "address",
          "name": "oldAdmin",
          "type": "address"
        },
        {
          "indexed": false,
          "internalType": "address",
          "name": "newAdmin",
          "type": "address"
        }
      ],
      "name": "AdminChanged",
      "type": "event"
    },
    {
      "anonymous": false,
      "inputs": [
        {
          "indexed": true,
          "internalType": "address",
          "name": "buyer",
          "type": "address"
        },
        {
          "indexed": true,
          "internalType": "address",
          "name": "to",
          "type": "address"
        },
        {
          "indexed": true,
          "internalType": "uint256",
          "name": "topCornerId",
          "type": "uint256"
        },
        {
          "indexed": false,
          "internalType": "uint256",
          "name": "size",
          "type": "uint256"
        },
        {
          "indexed": false,
          "internalType": "uint256",
          "name": "price",
          "type": "uint256"
        },
        {
          "indexed": false,
          "internalType": "address",
          "name": "token",
          "type": "address"
        },
        {
          "indexed": false,
          "internalType": "uint256",
          "name": "amountPaid",
          "type": "uint256"
        }
      ],
      "name": "LandQuadPurchased",
      "type": "event"
    },
    {
      "anonymous": false,
      "inputs": [
        {
          "indexed": true,
          "internalType": "uint256",
          "name": "newMaxCommissionRate",
          "type": "uint256"
        }
      ],
      "name": "MaxCommissionRateUpdated",
      "type": "event"
    },
    {
      "anonymous": false,
      "inputs": [
        {
          "indexed": false,
          "internalType": "address",
          "name": "metaTransactionProcessor",
          "type": "address"
        },
        {
          "indexed": false,
          "internalType": "bool",
          "name": "enabled",
          "type": "bool"
        }
      ],
      "name": "MetaTransactionProcessor",
      "type": "event"
    },
    {
      "anonymous": false,
      "inputs": [
        {
          "indexed": true,
          "internalType": "address",
          "name": "newWallet",
          "type": "address"
        }
      ],
      "name": "NewReceivingWallet",
      "type": "event"
    },
    {
      "anonymous": false,
      "inputs": [
        {
          "indexed": true,
          "internalType": "address",
          "name": "referrer",
          "type": "address"
        },
        {
          "indexed": true,
          "internalType": "address",
          "name": "referee",
          "type": "address"
        },
        {
          "indexed": true,
          "internalType": "address",
          "name": "token",
          "type": "address"
        },
        {
          "indexed": false,
          "internalType": "uint256",
          "name": "amount",
          "type": "uint256"
        },
        {
          "indexed": false,
          "internalType": "uint256",
          "name": "commission",
          "type": "uint256"
        },
        {
          "indexed": false,
          "internalType": "uint256",
          "name": "commissionRate",
          "type": "uint256"
        }
      ],
      "name": "ReferralUsed",
      "type": "event"
    },
    {
      "anonymous": false,
      "inputs": [
        {
          "indexed": true,
          "internalType": "address",
          "name": "newSigningWallet",
          "type": "address"
        }
      ],
      "name": "SigningWalletUpdated",
      "type": "event"
    },
    {
      "inputs": [
        {
          "internalType": "address",
          "name": "buyer",
          "type": "address"
        },
        {
          "internalType": "address",
          "name": "to",
          "type": "address"
        },
        {
          "internalType": "address",
          "name": "reserved",
          "type": "address"
        },
        {
          "internalType": "uint256[]",
          "name": "info",
          "type": "uint256[]"
        },
        {
          "internalType": "bytes32",
          "name": "salt",
          "type": "bytes32"
        },
        {
          "internalType": "uint256[]",
          "name": "assetIds",
          "type": "uint256[]"
        },
        {
          "internalType": "bytes32[]",
          "name": "proof",
          "type": "bytes32[]"
        },
        {
          "internalType": "bytes",
          "name": "referral",
          "type": "bytes"
        },
        {
          "internalType": "bytes",
          "name": "signature",
          "type": "bytes"
        }
      ],
      "name": "buyLandWithSand",
      "outputs": [],
      "stateMutability": "nonpayable",
      "type": "function"
    },
    {
      "inputs": [
        {
          "internalType": "address",
          "name": "newAdmin",
          "type": "address"
        }
      ],
      "name": "changeAdmin",
      "outputs": [],
      "stateMutability": "nonpayable",
      "type": "function"
    },
    {
      "inputs": [
        {
          "internalType": "bytes",
          "name": "referral",
          "type": "bytes"
        }
      ],
      "name": "decodeReferral",
      "outputs": [
        {
          "internalType": "bytes",
          "name": "",
          "type": "bytes"
        },
        {
          "internalType": "address",
          "name": "",
          "type": "address"
        },
        {
          "internalType": "address",
          "name": "",
          "type": "address"
        },
        {
          "internalType": "uint256",
          "name": "",
          "type": "uint256"
        },
        {
          "internalType": "uint256",
          "name": "",
          "type": "uint256"
        }
      ],
      "stateMutability": "pure",
      "type": "function"
    },
    {
      "inputs": [
        {
          "internalType": "address",
          "name": "disableWallet",
          "type": "address"
        }
      ],
      "name": "disablePreviousSigningWallet",
      "outputs": [],
      "stateMutability": "nonpayable",
      "type": "function"
    },
    {
      "inputs": [],
      "name": "getAdmin",
      "outputs": [
        {
          "internalType": "address",
          "name": "",
          "type": "address"
        }
      ],
      "stateMutability": "view",
      "type": "function"
    },
    {
      "inputs": [],
      "name": "getExpiryTime",
      "outputs": [
        {
          "internalType": "uint256",
          "name": "",
          "type": "uint256"
        }
      ],
      "stateMutability": "view",
      "type": "function"
    },
    {
      "inputs": [],
      "name": "getMaxCommissionRate",
      "outputs": [
        {
          "internalType": "uint256",
          "name": "",
          "type": "uint256"
        }
      ],
      "stateMutability": "view",
      "type": "function"
    },
    {
      "inputs": [],
      "name": "getMerkleRoot",
      "outputs": [
        {
          "internalType": "bytes32",
          "name": "",
          "type": "bytes32"
        }
      ],
      "stateMutability": "view",
      "type": "function"
    },
    {
      "inputs": [],
      "name": "getSigningWallet",
      "outputs": [
        {
          "internalType": "address",
          "name": "",
          "type": "address"
        }
      ],
      "stateMutability": "view",
      "type": "function"
    },
    {
      "inputs": [
        {
          "internalType": "address",
          "name": "who",
          "type": "address"
        }
      ],
      "name": "isMetaTransactionProcessor",
      "outputs": [
        {
          "internalType": "bool",
          "name": "",
          "type": "bool"
        }
      ],
      "stateMutability": "view",
      "type": "function"
    },
    {
      "inputs": [
        {
          "internalType": "bytes",
          "name": "signature",
          "type": "bytes"
        },
        {
          "internalType": "address",
          "name": "referrer",
          "type": "address"
        },
        {
          "internalType": "address",
          "name": "referee",
          "type": "address"
        },
        {
          "internalType": "uint256",
          "name": "expiryTime",
          "type": "uint256"
        },
        {
          "internalType": "uint256",
          "name": "commissionRate",
          "type": "uint256"
        }
      ],
      "name": "isReferralValid",
      "outputs": [
        {
          "internalType": "bool",
          "name": "",
          "type": "bool"
        }
      ],
      "stateMutability": "view",
      "type": "function"
    },
    {
      "inputs": [
        {
          "internalType": "address",
          "name": "",
          "type": "address"
        },
        {
          "internalType": "address",
          "name": "",
          "type": "address"
        },
        {
          "internalType": "uint256[]",
          "name": "",
          "type": "uint256[]"
        },
        {
          "internalType": "uint256[]",
          "name": "",
          "type": "uint256[]"
        },
        {
          "internalType": "bytes",
          "name": "",
          "type": "bytes"
        }
      ],
      "name": "onERC1155BatchReceived",
      "outputs": [
        {
          "internalType": "bytes4",
          "name": "",
          "type": "bytes4"
        }
      ],
      "stateMutability": "pure",
      "type": "function"
    },
    {
      "inputs": [
        {
          "internalType": "address",
          "name": "",
          "type": "address"
        },
        {
          "internalType": "address",
          "name": "",
          "type": "address"
        },
        {
          "internalType": "uint256",
          "name": "",
          "type": "uint256"
        },
        {
          "internalType": "uint256",
          "name": "",
          "type": "uint256"
        },
        {
          "internalType": "bytes",
          "name": "",
          "type": "bytes"
        }
      ],
      "name": "onERC1155Received",
      "outputs": [
        {
          "internalType": "bytes4",
          "name": "",
          "type": "bytes4"
        }
      ],
      "stateMutability": "pure",
      "type": "function"
    },
    {
      "inputs": [
        {
          "internalType": "address",
          "name": "metaTransactionProcessor",
          "type": "address"
        },
        {
          "internalType": "bool",
          "name": "enabled",
          "type": "bool"
        }
      ],
      "name": "setMetaTransactionProcessor",
      "outputs": [],
      "stateMutability": "nonpayable",
      "type": "function"
    },
    {
      "inputs": [
        {
          "internalType": "address payable",
          "name": "newWallet",
          "type": "address"
        }
      ],
      "name": "setReceivingWallet",
      "outputs": [],
      "stateMutability": "nonpayable",
      "type": "function"
    },
    {
      "inputs": [
        {
          "internalType": "uint256",
          "name": "newMaxCommissionRate",
          "type": "uint256"
        }
      ],
      "name": "updateMaxCommissionRate",
      "outputs": [],
      "stateMutability": "nonpayable",
      "type": "function"
    },
    {
      "inputs": [
        {
          "internalType": "address",
          "name": "newSigningWallet",
          "type": "address"
        }
      ],
      "name": "updateSigningWallet",
      "outputs": [],
      "stateMutability": "nonpayable",
      "type": "function"
    },
    {
      "inputs": [
        {
          "internalType": "address",
          "name": "to",
          "type": "address"
        },
        {
          "internalType": "uint256[]",
          "name": "assetIds",
          "type": "uint256[]"
        },
        {
          "internalType": "uint256[]",
          "name": "values",
          "type": "uint256[]"
        }
      ],
      "name": "withdrawAssets",
      "outputs": [],
      "stateMutability": "nonpayable",
      "type": "function"
    }
  ],
  "transactionHash": "0x9a8d5f815747807d5b7c8499876d5f95c2f9b05b36695487ff7967ee7da60edf",
  "args": [
    "0x525129b95bA89B9800e47ef3dc7d23fBAd27b1a3",
    "0x592daadC9eA7F56A81De1FD27A723Bd407709c46",
    "0x592daadC9eA7F56A81De1FD27A723Bd407709c46",
    "0x49c4D4C94829B9c44052C5f5Cb164Fc612181165",
    "0xa5Eb9C9Eb4F4c35B9Be8cFaAA7909F9ebe6Cb609",
    "0xeda5bf4f00c9fda5b1e5a20f6f0c05d058665b50ccf37b20a3ab1812e6ecadfa",
    2028715200,
    "0xB7060D3FeCAC3AE1F0A0AA416E3e8E472257950e",
    2000,
    "0x0000000000000000000000000000000000000000",
    "0x5D7121CC2320899124ad1c865552E94c834A9afE",
    "0xAc3ff31f526Af7f386ea43649e3fa67e329AeF93",
    "0x1d3CE3489a064aEFc9928fe08F9d2Dd968F5c969"
  ],
  "numDeployments": 1,
  "linkedData": [
    {
      "x": 297,
      "y": 228,
      "size": 1,
      "price": "1011000000000000000000",
      "reserved": "",
      "salt": "0xcdfe288ec800997fbde83430c866e555ba3c67da8083e6235eaf212bf2897faa",
      "assetIds": []
    },
    {
      "x": 297,
      "y": 229,
      "size": 1,
      "price": "1011000000000000000000",
      "reserved": "",
      "salt": "0xd49539bb3aede7f4ed73345b73d8b898606534ff78e4b1a098c9d6e65007fa3a",
      "assetIds": []
    },
    {
      "x": 297,
      "y": 230,
      "size": 1,
      "price": "1011000000000000000000",
      "reserved": "",
      "salt": "0x6153ba73341952147d8da24f3721552afdc2b4e707bcab0638ca1581e1348b9d",
      "assetIds": []
    },
    {
      "x": 297,
      "y": 231,
      "size": 1,
      "price": "1011000000000000000000",
      "reserved": "",
      "salt": "0x23ddf437a7f4653cbfffde987e996c0ec56a508800d761dbda89af8c781cf9a7",
      "assetIds": []
    },
    {
      "x": 297,
      "y": 232,
      "size": 1,
      "price": "1011000000000000000000",
      "reserved": "",
      "salt": "0x096e59d100ab987d839072ac961eab61b62161199f3f82efed7eaeb3bf9c9f40",
      "assetIds": []
    },
    {
      "x": 297,
      "y": 233,
      "size": 1,
      "price": "1011000000000000000000",
      "reserved": "",
      "salt": "0x37d5d2d70b7b19d6bb27ae036663a68fcefa96a4d58a7e807895be609af06b4e",
      "assetIds": []
    },
    {
      "x": 298,
      "y": 228,
      "size": 1,
      "price": "1011000000000000000000",
      "reserved": "",
      "salt": "0x98568df744797db5c651908b11b11c93a606ec40ccfc93dc06d21bf0b25f31f6",
      "assetIds": []
    },
    {
      "x": 298,
      "y": 229,
      "size": 1,
      "price": "1011000000000000000000",
      "reserved": "",
      "salt": "0x9a89d4c406e12775e933d4bc4a06c5528f94bf6c74b757dc6cf6c0272371502b",
      "assetIds": []
    },
    {
      "x": 298,
      "y": 230,
      "size": 1,
      "price": "1011000000000000000000",
      "reserved": "0x7a9fe22691c811ea339d9b73150e6911a5343dca",
      "salt": "0x0d1f0b36044866679de3f07a0ad549c69451250f746484af5e1e48ae900dceaf",
      "assetIds": []
    },
    {
      "x": 298,
      "y": 231,
      "size": 1,
      "price": "1011000000000000000000",
      "reserved": "",
      "salt": "0x50127e2731945bb87f16ad6ba8c4058bcdabb13a21780a93b7781919194034c8",
      "assetIds": []
    },
    {
      "x": 298,
      "y": 232,
      "size": 1,
      "price": "1011000000000000000000",
      "reserved": "0x7a9fe22691c811ea339d9b73150e6911a5343dca",
      "salt": "0x5c86bdfc062abd6471f8df518cf0f1b8fc680f865f9bfed18d9dc65933835873",
      "assetIds": []
    },
    {
      "x": 298,
      "y": 233,
      "size": 1,
      "price": "1011000000000000000000",
      "reserved": "",
      "salt": "0xb2d0f231eddc92f670fb477bb8f84eb41c6dbdcfd337d72f085f9eba51142760",
      "assetIds": []
    },
    {
      "x": 299,
      "y": 228,
      "size": 1,
      "price": "1011000000000000000000",
      "reserved": "",
      "salt": "0x0939dba7438971bd49755dce2f0d9091473b9589f4f0a11241e45bf492399065",
      "assetIds": []
    },
    {
      "x": 299,
      "y": 229,
      "size": 1,
      "price": "1011000000000000000000",
      "reserved": "",
      "salt": "0xd69f6f0575631ffad70cee8c99867c6dc2f2581077c1e79c4a153fca20b8cb04",
      "assetIds": []
    },
    {
      "x": 299,
      "y": 230,
      "size": 1,
      "price": "1011000000000000000000",
      "reserved": "",
      "salt": "0x68b4813db6532270580d8ce0395091a9e9e2dba99eeb70c33659a2ba98aed087",
      "assetIds": []
    },
    {
      "x": 299,
      "y": 231,
      "size": 1,
      "price": "1011000000000000000000",
      "reserved": "",
      "salt": "0x086b46d7c970761897b345764d9b1e391daa1346dac13ff457d62b44cad39a7c",
      "assetIds": []
    },
    {
      "x": 299,
      "y": 232,
      "size": 1,
      "price": "1011000000000000000000",
      "reserved": "",
      "salt": "0x2dff2641fa377bc4839a358e1f67609d04735a8016552a296a5ac894574ccddf",
      "assetIds": []
    },
    {
      "x": 299,
      "y": 233,
      "size": 1,
      "price": "1011000000000000000000",
      "reserved": "",
      "salt": "0xe4c1d0c6e0278ba7d97c9686256e0838cfe1834f0ba8ac20ec55663d20245905",
      "assetIds": []
    },
    {
      "x": 300,
      "y": 228,
      "size": 1,
      "price": "1011000000000000000000",
      "reserved": "",
      "salt": "0x87fab613860b893b772033343f1600c50dfbb678bfd78eeb687db72765373de5",
      "assetIds": []
    },
    {
      "x": 300,
      "y": 229,
      "size": 1,
      "price": "1011000000000000000000",
      "reserved": "",
      "salt": "0xd6f3d2195d0f12959e6b7b7d7b47144fb4f47c5774fb3bb923a37838c881b411",
      "assetIds": []
    },
    {
      "x": 300,
      "y": 230,
      "size": 1,
      "price": "1011000000000000000000",
      "reserved": "",
      "salt": "0xc83be85c14f3e1814b854c00f9e6cf558ab0b69295f0e2389edcdbe91bba125a",
      "assetIds": []
    },
    {
      "x": 301,
      "y": 228,
      "size": 1,
      "price": "1011000000000000000000",
      "reserved": "",
      "salt": "0xf6aeaa1ee2c99b8aa6b99cc27f7248d1e82f0c2bf0cb7d4cdebad65efb4a313f",
      "assetIds": []
    },
    {
      "x": 301,
      "y": 229,
      "size": 1,
      "price": "1011000000000000000000",
      "reserved": "",
      "salt": "0x3fdb68391a92411f54bdf2b4d97547f1e353596e54982eec26802a22a8645842",
      "assetIds": []
    },
    {
      "x": 301,
      "y": 230,
      "size": 1,
      "price": "1011000000000000000000",
      "reserved": "",
      "salt": "0xd86e271554a8efb530858242ec8110290d971763dc51bea469d3d1e3c68916a2",
      "assetIds": []
    },
    {
      "x": 302,
      "y": 228,
      "size": 1,
      "price": "1011000000000000000000",
      "reserved": "",
      "salt": "0xb0436b0f303e55efeb4e087371621ad54a4913e0418f510ab3d6302cd6878cc9",
      "assetIds": []
    },
    {
      "x": 302,
      "y": 229,
      "size": 1,
      "price": "1011000000000000000000",
      "reserved": "0x7a9fe22691c811ea339d9b73150e6911a5343dca",
      "salt": "0xac149bcd0ba79cf31f7818f9894396321bdba42491917c2b93318117a49e554f",
      "assetIds": []
    },
    {
      "x": 302,
      "y": 230,
      "size": 1,
      "price": "1011000000000000000000",
      "reserved": "",
      "salt": "0xfc778dd0b64ae44ee6608bdcdd3faa0b79e1541a0882e46a938a8a93b86570bd",
      "assetIds": []
    },
    {
      "x": 303,
      "y": 231,
      "size": 1,
      "price": "1011000000000000000000",
      "reserved": "",
      "salt": "0xef752d68b8d5b3ce63925b59fdbdf572bdb781f18597084e03d8be368bfb8b5f",
      "assetIds": []
    },
    {
      "x": 303,
      "y": 232,
      "size": 1,
      "price": "1011000000000000000000",
      "reserved": "",
      "salt": "0x7dd6c79ec8cdf5ab2ea60b774cfd09f1d2498230e6d9a9ed3599001f965f4f31",
      "assetIds": []
    },
    {
      "x": 303,
      "y": 233,
      "size": 1,
      "price": "1011000000000000000000",
      "reserved": "",
      "salt": "0x9322d73d0c37808a55fcfc7da0ecb3d39499469d96836ef3ba7372f26ccd0954",
      "assetIds": []
    },
    {
      "x": 304,
      "y": 231,
      "size": 1,
      "price": "1011000000000000000000",
      "reserved": "",
      "salt": "0x01275b7b79b6362be2de3cd5ba94ae2247cb86f1c4569fc0bc16d1ee82533560",
      "assetIds": []
    },
    {
      "x": 304,
      "y": 232,
      "size": 1,
      "price": "1011000000000000000000",
      "reserved": "",
      "salt": "0x3e566d4f128c03fbbbf2d9a436959f7764d3d741b19d7900fe58c59c6b6d30c2",
      "assetIds": []
    },
    {
      "x": 304,
      "y": 233,
      "size": 1,
      "price": "1011000000000000000000",
      "reserved": "",
      "salt": "0xf38f7f9e4773b1b4ce0403b3748ff381592608b2909db9e947f5d000f211ca5a",
      "assetIds": []
    },
    {
      "x": 305,
      "y": 231,
      "size": 1,
      "price": "1011000000000000000000",
      "reserved": "",
      "salt": "0xc1414cf0436aaef6b352ba326542b782eb033f1373d0660acd4e5a40c08d26ba",
      "assetIds": []
    },
    {
      "x": 305,
      "y": 232,
      "size": 1,
      "price": "4683000000000000000000",
      "reserved": "",
      "salt": "0x9a22d82460276e8bc1879bbabf85bedbfd724c2ef87e24c61ce1fd384a586d9e",
      "assetIds": [
        "2999950808015945883340482340364689288956643195923021",
        "7112616415465106695165651459628309706268437371857485"
      ]
    },
    {
      "x": 305,
      "y": 233,
      "size": 1,
      "price": "4683000000000000000000",
      "reserved": "",
      "salt": "0x9cb4bc8b9603cf12e0f3430bf5795c713b691ff214330a0a39be4b43078221d9",
      "assetIds": [
        "2999950808015945883340482340364689288956643195923021",
        "7112616415465106695165651459628309706268437371857485"
      ]
    },
    {
      "x": 306,
      "y": 218,
      "size": 1,
      "price": "1011000000000000000000",
      "reserved": "",
      "salt": "0x30dd768869653ef14c947e2070ee2ef59568f7ad73e0323187ed92b246c9fe57",
      "assetIds": []
    },
    {
      "x": 306,
      "y": 222,
      "size": 1,
      "price": "1011000000000000000000",
      "reserved": "",
      "salt": "0xd31a72c197b2b43a5156be51c626e96211852bac6e074e66858e511cb89bbaa6",
      "assetIds": []
    },
    {
      "x": 306,
      "y": 223,
      "size": 1,
      "price": "1011000000000000000000",
      "reserved": "",
      "salt": "0x50cee1dcd9d05a37471a13ccca16eb8f701036d7adbfb7d8836814f7bc01e471",
      "assetIds": []
    },
    {
      "x": 306,
      "y": 224,
      "size": 1,
      "price": "1011000000000000000000",
      "reserved": "",
      "salt": "0xad41fd8d6dec062c3a2ba4b56eb23d23188d203236e30d06ec251a32acf2766c",
      "assetIds": []
    },
    {
      "x": 306,
      "y": 225,
      "size": 1,
      "price": "1011000000000000000000",
      "reserved": "",
      "salt": "0xb1d75b7806c5a65bc8e2b84fb7730eac2a4dbda772db73651ee1ecc64c3fbde1",
      "assetIds": []
    },
    {
      "x": 306,
      "y": 226,
      "size": 1,
      "price": "1011000000000000000000",
      "reserved": "",
      "salt": "0xa3a6e8a9ad5b77d0864cc0755d1e73b123af556e17a563ef54356055132d96a2",
      "assetIds": []
    },
    {
      "x": 306,
      "y": 227,
      "size": 1,
      "price": "4683000000000000000000",
      "reserved": "",
      "salt": "0x5b9c3e19c481a523029327e5b411b387a3631ea1e6bc40c86f1b3f72660c63f1",
      "assetIds": [
        "2999950808015945883340482340364689288956643195923021",
        "7112616415465106695165651459628309706268437371857485"
      ]
    },
    {
      "x": 306,
      "y": 234,
      "size": 1,
      "price": "4683000000000000000000",
      "reserved": "",
      "salt": "0xcb1fff257667b2a62fc67cad227da869ffec1cfbfb05dac629b9bac7e053f0d0",
      "assetIds": [
        "2999950808015945883340482340364689288956643195923021",
        "7112616415465106695165651459628309706268437371857485"
      ]
    },
    {
      "x": 306,
      "y": 235,
      "size": 1,
      "price": "1011000000000000000000",
      "reserved": "",
      "salt": "0xb6bd69a9cfa7f7474fdb03fc64c0418d72bff27338461a36cf227c5be4a0f025",
      "assetIds": []
    },
    {
      "x": 306,
      "y": 236,
      "size": 1,
      "price": "1011000000000000000000",
      "reserved": "",
      "salt": "0x1d16f6fa658ddaba7e4d8dc0e78015535c8c59856583f298086de8a91e837db9",
      "assetIds": []
    },
    {
      "x": 307,
      "y": 207,
      "size": 1,
      "price": "1011000000000000000000",
      "reserved": "",
      "salt": "0x63d6060f130128096fe735bd6896a14f3616c0fca6628080d874e802173d0165",
      "assetIds": []
    },
    {
      "x": 307,
      "y": 208,
      "size": 1,
      "price": "1011000000000000000000",
      "reserved": "",
      "salt": "0x0355885ede70e816f4c7870f1c925b5e7bcca38110ab14ef4b6fee1379201767",
      "assetIds": []
    },
    {
      "x": 307,
      "y": 209,
      "size": 1,
      "price": "1011000000000000000000",
      "reserved": "",
      "salt": "0x1d0a3d7b4d4ee50c2fef3b9627f70392c75f6e407259f9f1ae75d31865b2f139",
      "assetIds": []
    },
    {
      "x": 307,
      "y": 210,
      "size": 1,
      "price": "1011000000000000000000",
      "reserved": "",
      "salt": "0xba459874949603d2d8fa4f7a6eb38e6390c119a78497f83da7ee7ff7f699e282",
      "assetIds": []
    },
    {
      "x": 307,
      "y": 211,
      "size": 1,
      "price": "1011000000000000000000",
      "reserved": "",
      "salt": "0xa0a450e13a2c014908fd9d31e27ae0e04099bd0106787956036cb2921340a34d",
      "assetIds": []
    },
    {
      "x": 307,
      "y": 212,
      "size": 1,
      "price": "1011000000000000000000",
      "reserved": "",
      "salt": "0x6ec4b64d6c42497dbd8fef1e49750c62244d736ba9bd9ff55fde7da8d1a24927",
      "assetIds": []
    },
    {
      "x": 307,
      "y": 213,
      "size": 1,
      "price": "1011000000000000000000",
      "reserved": "",
      "salt": "0xca0c9bb43374f1ce1cceffd8ad77265ce9de6644a3f840fcb670ecbeda14f031",
      "assetIds": []
    },
    {
      "x": 307,
      "y": 214,
      "size": 1,
      "price": "1011000000000000000000",
      "reserved": "",
      "salt": "0x50ac95b767884160e539bab472c31943455c29bc1f3957d5846b168422bd22b2",
      "assetIds": []
    },
    {
      "x": 307,
      "y": 215,
      "size": 1,
      "price": "1011000000000000000000",
      "reserved": "",
      "salt": "0xc6f91a8786801b16d549e791cf6811b8bdf3385a58d13f366c6cc46c7ce87383",
      "assetIds": []
    },
    {
      "x": 307,
      "y": 216,
      "size": 1,
      "price": "1011000000000000000000",
      "reserved": "",
      "salt": "0x5c01c59385340637195f8b8f7ed9f76bc46e02645b28407a08b9e328922f0b41",
      "assetIds": []
    },
    {
      "x": 307,
      "y": 217,
      "size": 1,
      "price": "1011000000000000000000",
      "reserved": "",
      "salt": "0x6077278821991deeb48041d29544d1626bf589bd8db218540e30e337ce9dccf2",
      "assetIds": []
    },
    {
      "x": 307,
      "y": 218,
      "size": 1,
      "price": "1011000000000000000000",
      "reserved": "",
      "salt": "0xcbc43b7e4adcf4b8443376df082016b38f7a849307f8d35d9ec46b715de6f7a2",
      "assetIds": []
    },
    {
      "x": 307,
      "y": 222,
      "size": 1,
      "price": "1011000000000000000000",
      "reserved": "",
      "salt": "0xe122698c10baa1f2b0c9ed2e6667291beca60b3c71bfcbe0c08a718249ce3b0e",
      "assetIds": []
    },
    {
      "x": 307,
      "y": 223,
      "size": 1,
      "price": "1011000000000000000000",
      "reserved": "",
      "salt": "0xc0bac94fef6601f8ec6b9c816b6873abf3993f457ab18041f47c4fb8f06af367",
      "assetIds": []
    },
    {
      "x": 307,
      "y": 224,
      "size": 1,
      "price": "1011000000000000000000",
      "reserved": "",
      "salt": "0x23177518edf2382b22c3ff1fc2920aad2ac7bf191a4f2d5a7362e8ff72ff058a",
      "assetIds": []
    },
    {
      "x": 307,
      "y": 225,
      "size": 1,
      "price": "1011000000000000000000",
      "reserved": "",
      "salt": "0x88e5e732379af03e49711eafb40fc74b5ffecef890cab4704df1537fc0544a8e",
      "assetIds": []
    },
    {
      "x": 307,
      "y": 226,
      "size": 1,
      "price": "1011000000000000000000",
      "reserved": "",
      "salt": "0xea7642ffd974e9404618360918d068549216172b2f4670f363c6b121768fb7fd",
      "assetIds": []
    },
    {
      "x": 307,
      "y": 227,
      "size": 1,
      "price": "4683000000000000000000",
      "reserved": "",
      "salt": "0x68894b3cba242131e4a32832476839df7765cff4061b31b1e0b66d0331fa888b",
      "assetIds": [
        "2999950808015945883340482340364689288956643195923021",
        "7112616415465106695165651459628309706268437371857485"
      ]
    },
    {
      "x": 307,
      "y": 234,
      "size": 1,
      "price": "4683000000000000000000",
      "reserved": "",
      "salt": "0x6f9a0ef593c58c81561bce7d8a912dc5d5cc2ee5a80d450358766ae9c3cb9ea7",
      "assetIds": [
        "2999950808015945883340482340364689288956643195923021",
        "7112616415465106695165651459628309706268437371857485"
      ]
    },
    {
      "x": 307,
      "y": 235,
      "size": 1,
      "price": "1011000000000000000000",
      "reserved": "",
      "salt": "0x2d4b0af0addb25251fadbde8c290b3bfbca522d18a41d9650b4526f908afe0de",
      "assetIds": []
    },
    {
      "x": 307,
      "y": 236,
      "size": 1,
      "price": "1011000000000000000000",
      "reserved": "",
      "salt": "0x2bc3495103160306c6c2f97ddefcaf133a158c9a21ff197054d24ad0170c62cf",
      "assetIds": []
    },
    {
      "x": 308,
      "y": 207,
      "size": 1,
      "price": "1011000000000000000000",
      "reserved": "",
      "salt": "0x5544d3b116614188ffeff62207e40e500b15b57bc0599c0c07af45bf6b390fe4",
      "assetIds": []
    },
    {
      "x": 308,
      "y": 208,
      "size": 1,
      "price": "1011000000000000000000",
      "reserved": "0x7a9fe22691c811ea339d9b73150e6911a5343dca",
      "salt": "0x180060eafe53229edbca1e91222bd72f81191e7b4035f266dba3bf0ca37df832",
      "assetIds": []
    },
    {
      "x": 308,
      "y": 209,
      "size": 1,
      "price": "1011000000000000000000",
      "reserved": "",
      "salt": "0x5d72aa4021541b01f6b98ae88725a22d1e5f56fe3f8561c0fc35be6fc600695d",
      "assetIds": []
    },
    {
      "x": 308,
      "y": 210,
      "size": 1,
      "price": "1011000000000000000000",
      "reserved": "",
      "salt": "0x005bf37f4a280b9adfe044e945b1fa5ede87011d0a6d0fd6757a1a93bf0762fe",
      "assetIds": []
    },
    {
      "x": 308,
      "y": 211,
      "size": 1,
      "price": "1011000000000000000000",
      "reserved": "",
      "salt": "0xa42cea62cbc11a1a9a02199219fe6ad32548a020b86fc99cdcc31af6db6935f6",
      "assetIds": []
    },
    {
      "x": 308,
      "y": 212,
      "size": 1,
      "price": "1011000000000000000000",
      "reserved": "",
      "salt": "0x0b13a389c9ae0e4bfd533c2e1f9f17ee948c8af820069bac6ba16b0147850b50",
      "assetIds": []
    },
    {
      "x": 308,
      "y": 213,
      "size": 1,
      "price": "4683000000000000000000",
      "reserved": "",
      "salt": "0x7ad608e5f5a7c1393e0be978e86be5141c0c39e0bb4a447f864b898f220d0517",
      "assetIds": [
        "9733088851199415627504858364688605160511524421413453",
        "10482757350880383364136719724438187734817346881852357"
      ]
    },
    {
      "x": 308,
      "y": 214,
      "size": 1,
      "price": "4683000000000000000000",
      "reserved": "",
      "salt": "0x731fa6b16424e4058f2b42e7c1772f1dbfc3679143fc2f752c7f6d0ed85d65ff",
      "assetIds": [
        "9733088851199415627504858364688605160511524421413453",
        "10482757350880383364136719724438187734817346881852357"
      ]
    },
    {
      "x": 308,
      "y": 215,
      "size": 1,
      "price": "4683000000000000000000",
      "reserved": "",
      "salt": "0xf8e14847888e4e08626014be4b8793d9ca397e32f9fd54ddcf01f764b8ae433c",
      "assetIds": [
        "9733088851199415627504858364688605160511524421413453",
        "10482757350880383364136719724438187734817346881852357"
      ]
    },
    {
      "x": 308,
      "y": 216,
      "size": 1,
      "price": "1011000000000000000000",
      "reserved": "",
      "salt": "0x3386b6bf27b9c17f5c5c02f17876232b1918a0d395dc8da53f38ffe3a265586b",
      "assetIds": []
    },
    {
      "x": 308,
      "y": 217,
      "size": 1,
      "price": "1011000000000000000000",
      "reserved": "",
      "salt": "0x3b0a543465a884ddf2f5302bfe545a164281cd38729069f1c26cd39d1dbb6a6f",
      "assetIds": []
    },
    {
      "x": 308,
      "y": 218,
      "size": 1,
      "price": "1011000000000000000000",
      "reserved": "",
      "salt": "0xb2abc65ef72c299a182b6e32b805cb5438370b44af8668ce5380c145bc552f64",
      "assetIds": []
    },
    {
      "x": 308,
      "y": 222,
      "size": 1,
      "price": "4683000000000000000000",
      "reserved": "",
      "salt": "0x4ab821cf6fe512bb3e750f4c90ded3d8387830182a030a1828042e043c6515d3",
      "assetIds": [
        "6742856501220388256860119196951090102295486438484557",
        "7863746416783405334715716504210608563593915764839365"
      ]
    },
    {
      "x": 308,
      "y": 223,
      "size": 1,
      "price": "4683000000000000000000",
      "reserved": "",
      "salt": "0x4587ac95e35dea989b84d7a8a7358a694d203847c6113ee8157c543b4e573a9d",
      "assetIds": [
        "6742856501220388256860119196951090102295486438484557",
        "7863746416783405334715716504210608563593915764839365"
      ]
    },
    {
      "x": 308,
      "y": 224,
      "size": 1,
      "price": "4683000000000000000000",
      "reserved": "",
      "salt": "0xc1c9a912a697a98941a8992fd92f0a1c789ae7d53da9a5268c06bfc6cc4d91d2",
      "assetIds": [
        "6742856501220388256860119196951090102295486438484557",
        "7863746416783405334715716504210608563593915764839365"
      ]
    },
    {
      "x": 308,
      "y": 225,
      "size": 1,
      "price": "1011000000000000000000",
      "reserved": "",
      "salt": "0x7c2983fc39244afdafc55fa3a9f841394c18870c5fe97a85b2b46a91331201fe",
      "assetIds": []
    },
    {
      "x": 308,
      "y": 226,
      "size": 1,
      "price": "1011000000000000000000",
      "reserved": "",
      "salt": "0x4df24babacbe409abfe6d80a6d7c322e4c32cae8c9fed38e8b04e71a289a745b",
      "assetIds": []
    },
    {
      "x": 308,
      "y": 227,
      "size": 1,
      "price": "4683000000000000000000",
      "reserved": "",
      "salt": "0xbe764f1290f4c3b96cdb0c2b4f91457926287e99c384b3d611f6aaf4d17c44e5",
      "assetIds": [
        "2999950808015945883340482340364689288956643195923021",
        "7112616415465106695165651459628309706268437371857485"
      ]
    },
    {
      "x": 308,
      "y": 234,
      "size": 1,
      "price": "4683000000000000000000",
      "reserved": "",
      "salt": "0x7e936dc9f039e360b319005df179d35bb4d4a6d7a91d0a9c5043041942ae1e8a",
      "assetIds": [
        "2999950808015945883340482340364689288956643195923021",
        "7112616415465106695165651459628309706268437371857485"
      ]
    },
    {
      "x": 308,
      "y": 235,
      "size": 1,
      "price": "1011000000000000000000",
      "reserved": "",
      "salt": "0xca0f25504616c44d02403a06765ea48b78c1bdbcb44e11f2441412c7bf1bb624",
      "assetIds": []
    },
    {
      "x": 308,
      "y": 236,
      "size": 1,
      "price": "1011000000000000000000",
      "reserved": "",
      "salt": "0x460fd9b91282539dd1af001f107d3d798b967409c221bc70c2d5c7be45ba63a6",
      "assetIds": []
    },
    {
      "x": 309,
      "y": 210,
      "size": 1,
      "price": "1011000000000000000000",
      "reserved": "",
      "salt": "0x3ab76dfe1e4e856768cac63686e887f6dfc9b83813ad3b2f4b75f963bec9e824",
      "assetIds": []
    },
    {
      "x": 309,
      "y": 211,
      "size": 1,
      "price": "1011000000000000000000",
      "reserved": "",
      "salt": "0xc21eacc0e3e9b504dc6173c1b712e1959f422f582e83fad760511a2aad74f746",
      "assetIds": []
    },
    {
      "x": 309,
      "y": 212,
      "size": 1,
      "price": "4683000000000000000000",
      "reserved": "",
      "salt": "0x7b69c073882476a999cf4b07bc362cb38e80fb4c70309c8a171577b722afb079",
      "assetIds": [
        "9733088851199415627504858364688605160511524421413453",
        "10482757350880383364136719724438187734817346881852357"
      ]
    },
    {
      "x": 309,
      "y": 216,
      "size": 1,
      "price": "4683000000000000000000",
      "reserved": "",
      "salt": "0x2e46b0446b46cc3934e12381d244163f73586cd4f38fd86c01885537bbbee499",
      "assetIds": [
        "9733088851199415627504858364688605160511524421413453",
        "10482757350880383364136719724438187734817346881852357"
      ]
    },
    {
      "x": 309,
      "y": 217,
      "size": 1,
      "price": "1011000000000000000000",
      "reserved": "",
      "salt": "0xf85234c857a48decf02d4c96f7990adec6cb42a87fed205eaf4747ef784da8c5",
      "assetIds": []
    },
    {
      "x": 309,
      "y": 218,
      "size": 1,
      "price": "1011000000000000000000",
      "reserved": "",
      "salt": "0x0a437c3f2d985eca761a1a611a8f1c24217c7f3ea3cab25d872514434becb3a8",
      "assetIds": []
    },
    {
      "x": 309,
      "y": 219,
      "size": 1,
      "price": "1011000000000000000000",
      "reserved": "",
      "salt": "0xdeff8fcbb581913a27c7ff2cf09cc7d28cd563fa81e9d6839b4a2219bb0e3f4f",
      "assetIds": []
    },
    {
      "x": 309,
      "y": 220,
      "size": 1,
      "price": "1011000000000000000000",
      "reserved": "",
      "salt": "0xec8a0e7250cf5779f3600599cbc55a62d7e07f2f2efb97b7d82c3154f6c538d7",
      "assetIds": []
    },
    {
      "x": 309,
      "y": 221,
      "size": 1,
      "price": "4683000000000000000000",
      "reserved": "",
      "salt": "0x5bc736d7703b92f3c59e9d0f8fcb518e8049732ae149dfad647aa78fde1388c6",
      "assetIds": [
        "6742856501220388256860119196951090102295486438484557",
        "7863746416783405334715716504210608563593915764839365"
      ]
    },
    {
      "x": 309,
      "y": 225,
      "size": 1,
      "price": "4683000000000000000000",
      "reserved": "",
      "salt": "0x559fcc6f9ccf7824ad68e88219ce755b78ec1a3445264d0f464abaa989c64495",
      "assetIds": [
        "6742856501220388256860119196951090102295486438484557",
        "7863746416783405334715716504210608563593915764839365"
      ]
    },
    {
      "x": 309,
      "y": 226,
      "size": 1,
      "price": "1011000000000000000000",
      "reserved": "",
      "salt": "0x9f0311514e0ef04c1694613217f526427dab2036ffe61750adff23ed87eb42a5",
      "assetIds": []
    },
    {
      "x": 309,
      "y": 227,
      "size": 1,
      "price": "4683000000000000000000",
      "reserved": "",
      "salt": "0xa7294e9765ceee57b234969ba4d66c2a0b1ff52c04db02c7f64faac5b96dfe19",
      "assetIds": [
        "2999950808015945883340482340364689288956643195923021",
        "7112616415465106695165651459628309706268437371857485"
      ]
    },
    {
      "x": 309,
      "y": 234,
      "size": 1,
      "price": "4683000000000000000000",
      "reserved": "",
      "salt": "0xa215bce7af506189dbd6dad9c7376b59d62a42dac045c94da64dcb6b70f5b349",
      "assetIds": [
        "2999950808015945883340482340364689288956643195923021",
        "7112616415465106695165651459628309706268437371857485"
      ]
    },
    {
      "x": 309,
      "y": 235,
      "size": 1,
      "price": "1011000000000000000000",
      "reserved": "",
      "salt": "0x6ee4e53bca500d93a29a58f29bff16ddbd1131fa3a65030189e4b5c9edfcb73b",
      "assetIds": []
    },
    {
      "x": 309,
      "y": 236,
      "size": 1,
      "price": "1011000000000000000000",
      "reserved": "",
      "salt": "0xecb3f3d8dc8bb5ea0f8bed2485106e3df221c3ad3dc934488f79f1fd3be0add0",
      "assetIds": []
    },
    {
      "x": 310,
      "y": 210,
      "size": 1,
      "price": "1011000000000000000000",
      "reserved": "",
      "salt": "0xc5d70eabd4d5e699af895a02f1c621642a41f9e66b3e2132218d99e942fbacd5",
      "assetIds": []
    },
    {
      "x": 310,
      "y": 211,
      "size": 1,
      "price": "1011000000000000000000",
      "reserved": "",
      "salt": "0x50b425248ae6810114c6d8a874430a8bf9a33238bcb0de6b6857e18990e1123f",
      "assetIds": []
    },
    {
      "x": 310,
      "y": 212,
      "size": 1,
      "price": "1011000000000000000000",
      "reserved": "",
      "salt": "0xfefd5e805e55d64603a29a6010a1692d23f3eaec3d30c416390f326cf8cfa442",
      "assetIds": []
    },
    {
      "x": 310,
      "y": 216,
      "size": 1,
      "price": "1011000000000000000000",
      "reserved": "0x7a9fe22691c811ea339d9b73150e6911a5343dca",
      "salt": "0xb873766d6a4fbbbf5068936b2cd24e4c877bf3e5ccdd9ba15ac82f6a4242630f",
      "assetIds": []
    },
    {
      "x": 310,
      "y": 217,
      "size": 1,
      "price": "1011000000000000000000",
      "reserved": "",
      "salt": "0x2d70509cc64d83384f01cd17e959814120a4f26a10338c434c78e17eac989cd8",
      "assetIds": []
    },
    {
      "x": 310,
      "y": 218,
      "size": 1,
      "price": "1011000000000000000000",
      "reserved": "",
      "salt": "0xffe526e247ba2b5e300b980f3c6dc993cdf5134a09a5622ba8bf6ad6ea4f6c13",
      "assetIds": []
    },
    {
      "x": 310,
      "y": 219,
      "size": 1,
      "price": "1011000000000000000000",
      "reserved": "",
      "salt": "0x6d1d24d505c66f2f7d6d65afdb6fe6174a31c8046138a8f81f7db4ab77f6d52c",
      "assetIds": []
    },
    {
      "x": 310,
      "y": 220,
      "size": 1,
      "price": "1011000000000000000000",
      "reserved": "",
      "salt": "0x59fe4ab641319d7bc5cdf9e2fd470b9823d51770d93433816b7fd95681213d25",
      "assetIds": []
    },
    {
      "x": 310,
      "y": 221,
      "size": 1,
      "price": "1011000000000000000000",
      "reserved": "0x7a9fe22691c811ea339d9b73150e6911a5343dca",
      "salt": "0xf1bcec541b668e02b30a5c96a54eaad9a6e5edadbcaa73cf24624a5901d56826",
      "assetIds": []
    },
    {
      "x": 310,
      "y": 225,
      "size": 1,
      "price": "1011000000000000000000",
      "reserved": "",
      "salt": "0x83ec223d06698ca34ea66bb054b4ea7ca0ea9f6cbff1fc1ced21b50bb68a154c",
      "assetIds": []
    },
    {
      "x": 310,
      "y": 226,
      "size": 1,
      "price": "1011000000000000000000",
      "reserved": "",
      "salt": "0x7471806ab62e0c90adda940f25cd64e48afa642bbcdaceab96c101f01c9f71ee",
      "assetIds": []
    },
    {
      "x": 310,
      "y": 227,
      "size": 1,
      "price": "4683000000000000000000",
      "reserved": "",
      "salt": "0x0d76b01ccadd1afd8fb6e4fcbf2bf84f77b607174b7283bb44a6a4ba6b37c3e7",
      "assetIds": [
        "2999950808015945883340482340364689288956643195923021",
        "7112616415465106695165651459628309706268437371857485"
      ]
    },
    {
      "x": 310,
      "y": 234,
      "size": 1,
      "price": "4683000000000000000000",
      "reserved": "",
      "salt": "0xacc08c80c89a805115ed3ef5698f8921f42bb1d8a99670107f95a98b8c452875",
      "assetIds": [
        "2999950808015945883340482340364689288956643195923021",
        "7112616415465106695165651459628309706268437371857485"
      ]
    },
    {
      "x": 310,
      "y": 235,
      "size": 1,
      "price": "1011000000000000000000",
      "reserved": "",
      "salt": "0xf112c99c83aab6a2129dc619ed632ce1e5488431f55f9f87e4b2e05f4a24336c",
      "assetIds": []
    },
    {
      "x": 310,
      "y": 236,
      "size": 1,
      "price": "1011000000000000000000",
      "reserved": "",
      "salt": "0x34386f34115d31a77effb33b66abf9bc0ca67bad229aa4861c92e1b0c7dcec2b",
      "assetIds": []
    },
    {
      "x": 311,
      "y": 210,
      "size": 1,
      "price": "1011000000000000000000",
      "reserved": "",
      "salt": "0x4994212aa6074c4d201b56b6a7d96e00b4e7dbd523f5c65c3c7c41330d542c09",
      "assetIds": []
    },
    {
      "x": 311,
      "y": 211,
      "size": 1,
      "price": "1011000000000000000000",
      "reserved": "",
      "salt": "0xe7e206c0cc97ccf1db0c7958ce2d4275818cea1013f7f35b4046fda9c3925654",
      "assetIds": []
    },
    {
      "x": 311,
      "y": 212,
      "size": 1,
      "price": "4683000000000000000000",
      "reserved": "",
      "salt": "0xc89d23db7c3020076964a04074ded531616351306c7e0b2f3be703e1c518eaae",
      "assetIds": [
        "9733088851199415627504858364688605160511524421413453",
        "10482757350880383364136719724438187734817346881852357"
      ]
    },
    {
      "x": 311,
      "y": 216,
      "size": 1,
      "price": "4683000000000000000000",
      "reserved": "",
      "salt": "0x60816f23b7d855ea7d38973dfac2dcf9d63bf4c01ac9ba31b47ab7a02bcd5c7e",
      "assetIds": [
        "9733088851199415627504858364688605160511524421413453",
        "10482757350880383364136719724438187734817346881852357"
      ]
    },
    {
      "x": 311,
      "y": 217,
      "size": 1,
      "price": "1011000000000000000000",
      "reserved": "",
      "salt": "0x91785b0adb6c75ee2e8af804d2a8ea6b1c5694a993eb1ea5f8d381d5964db79a",
      "assetIds": []
    },
    {
      "x": 311,
      "y": 218,
      "size": 1,
      "price": "1011000000000000000000",
      "reserved": "",
      "salt": "0xdf6ff41913498cf757658ac039e0745d35b9e1295de357488dcb068a7c8082c6",
      "assetIds": []
    },
    {
      "x": 311,
      "y": 219,
      "size": 1,
      "price": "1011000000000000000000",
      "reserved": "",
      "salt": "0xb820b5abb11884dc65f3a187eb8a016a7d6df2be2bedd786b854c801f339daa0",
      "assetIds": []
    },
    {
      "x": 311,
      "y": 220,
      "size": 1,
      "price": "1011000000000000000000",
      "reserved": "",
      "salt": "0x2e90ea27c204a75596359c3a02caf5e4b095349cc6be637450a7c6dd6cef3629",
      "assetIds": []
    },
    {
      "x": 311,
      "y": 221,
      "size": 1,
      "price": "4683000000000000000000",
      "reserved": "",
      "salt": "0xc22c94ccff42a610d7364a0bd7e723a538c0c6a80f6009d5e8157a3ef33766eb",
      "assetIds": [
        "6742856501220388256860119196951090102295486438484557",
        "7863746416783405334715716504210608563593915764839365"
      ]
    },
    {
      "x": 311,
      "y": 225,
      "size": 1,
      "price": "4683000000000000000000",
      "reserved": "",
      "salt": "0xd61bb9d55733cd1dd755a1acb47987c5fde84eda18bacbd34d0c8b7a56e92057",
      "assetIds": [
        "6742856501220388256860119196951090102295486438484557",
        "7863746416783405334715716504210608563593915764839365"
      ]
    },
    {
      "x": 311,
      "y": 226,
      "size": 1,
      "price": "1011000000000000000000",
      "reserved": "",
      "salt": "0xa4d66f47ad097cd02cc6b5307aa883bbe9349b9559950197c1a79e1b09bed9dc",
      "assetIds": []
    },
    {
      "x": 311,
      "y": 227,
      "size": 1,
      "price": "4683000000000000000000",
      "reserved": "",
      "salt": "0x0b5e8284e1e8df71ca37100228743ee70efdfacaf088e8c74ae9a5150fc64298",
      "assetIds": [
        "2999950808015945883340482340364689288956643195923021",
        "7112616415465106695165651459628309706268437371857485"
      ]
    },
    {
      "x": 311,
      "y": 234,
      "size": 1,
      "price": "4683000000000000000000",
      "reserved": "",
      "salt": "0x5a33b0da8956854425821cf2b78cdd8e90970684496b349cea1f6c0caf4eb406",
      "assetIds": [
        "2999950808015945883340482340364689288956643195923021",
        "7112616415465106695165651459628309706268437371857485"
      ]
    },
    {
      "x": 311,
      "y": 235,
      "size": 1,
      "price": "1011000000000000000000",
      "reserved": "",
      "salt": "0x05ffd6b0a1363c6c21b854b8a40e17feec669afbee1b0458adaa2fc1cfa47e39",
      "assetIds": []
    },
    {
      "x": 311,
      "y": 236,
      "size": 1,
      "price": "1011000000000000000000",
      "reserved": "",
      "salt": "0x8a6f3a791d7167f5247c63109eba634dc1d5f957001474e29ea24089906b9982",
      "assetIds": []
    },
    {
      "x": 312,
      "y": 213,
      "size": 1,
      "price": "4683000000000000000000",
      "reserved": "",
      "salt": "0x4ba3ba440f3450a77813938e9f2a973ee27b9863148132027a4b9650e0862c87",
      "assetIds": [
        "9733088851199415627504858364688605160511524421413453",
        "10482757350880383364136719724438187734817346881852357"
      ]
    },
    {
      "x": 312,
      "y": 214,
      "size": 1,
      "price": "4683000000000000000000",
      "reserved": "",
      "salt": "0x6636fa9e84fcc1d2ea1f5771d9b6de664aef088ce3c0c55cb89ce6bcb2f41d19",
      "assetIds": [
        "9733088851199415627504858364688605160511524421413453",
        "10482757350880383364136719724438187734817346881852357"
      ]
    },
    {
      "x": 312,
      "y": 215,
      "size": 1,
      "price": "4683000000000000000000",
      "reserved": "",
      "salt": "0xf63fcd14de2540f7cda79d7167fa8c2ee84aa018dee40dcddba880844aceb23e",
      "assetIds": [
        "9733088851199415627504858364688605160511524421413453",
        "10482757350880383364136719724438187734817346881852357"
      ]
    },
    {
      "x": 312,
      "y": 222,
      "size": 1,
      "price": "4683000000000000000000",
      "reserved": "",
      "salt": "0x2aa210835bc32f0b847bd458c731103b847d1400f784a5672ad42d8768425229",
      "assetIds": [
        "6742856501220388256860119196951090102295486438484557",
        "7863746416783405334715716504210608563593915764839365"
      ]
    },
    {
      "x": 312,
      "y": 223,
      "size": 1,
      "price": "4683000000000000000000",
      "reserved": "",
      "salt": "0x666518ba320e216f7e7948f41da235c54ecc1059228ba537853213524b536c4d",
      "assetIds": [
        "6742856501220388256860119196951090102295486438484557",
        "7863746416783405334715716504210608563593915764839365"
      ]
    },
    {
      "x": 312,
      "y": 224,
      "size": 1,
      "price": "4683000000000000000000",
      "reserved": "",
      "salt": "0xc180c572c3413e1f9a06e3ede2453c2441e7995b9a8f0b18b2f750f4bbd98067",
      "assetIds": [
        "6742856501220388256860119196951090102295486438484557",
        "7863746416783405334715716504210608563593915764839365"
      ]
    },
    {
      "x": 312,
      "y": 225,
      "size": 1,
      "price": "1011000000000000000000",
      "reserved": "",
      "salt": "0xcfb17ad3de4793e67933a585787ed1b75f5a78dadadc799d4b8b9fb33ab1c5d0",
      "assetIds": []
    },
    {
      "x": 312,
      "y": 226,
      "size": 1,
      "price": "1011000000000000000000",
      "reserved": "",
      "salt": "0xe63420a744974a9c3c1678265bc13b37dec1085e8e999ddd93dd5b1367277f61",
      "assetIds": []
    },
    {
      "x": 312,
      "y": 227,
      "size": 1,
      "price": "1011000000000000000000",
      "reserved": "",
      "salt": "0x2e816e8551ae1e95c9caa4e08a3e28a00117c0585e2be9ca58534c855aa5585a",
      "assetIds": []
    },
    {
      "x": 312,
      "y": 228,
      "size": 1,
      "price": "4683000000000000000000",
      "reserved": "",
      "salt": "0xdcfde2ad00c3a074439d2bb29090714eafa391d39cb44f94670a19d1ce23a3e4",
      "assetIds": [
        "2999950808015945883340482340364689288956643195923021",
        "7112616415465106695165651459628309706268437371857485"
      ]
    },
    {
      "x": 312,
      "y": 229,
      "size": 1,
      "price": "1011000000000000000000",
      "reserved": "0x7a9fe22691c811ea339d9b73150e6911a5343dca",
      "salt": "0x09f8537e109ec9cbbb31c4278f50fd83b878dc49e99a2f3eeba91e43e6b469b3",
      "assetIds": []
    },
    {
      "x": 312,
      "y": 230,
      "size": 1,
      "price": "4683000000000000000000",
      "reserved": "",
      "salt": "0x231ec70aa6413ff4e4182578cf70a3a11058edaa6c0683bbd5e02a84fdbf7633",
      "assetIds": [
        "2999950808015945883340482340364689288956643195923021",
        "7112616415465106695165651459628309706268437371857485"
      ]
    },
    {
      "x": 312,
      "y": 234,
      "size": 1,
      "price": "1011000000000000000000",
      "reserved": "",
      "salt": "0x6f78777128846fc5013c406f2b88adf29bc56276c9dbf5904bf4640dd2bc10fa",
      "assetIds": []
    },
    {
      "x": 312,
      "y": 235,
      "size": 1,
      "price": "1011000000000000000000",
      "reserved": "",
      "salt": "0xd0b1a99fcf020368291014577c5ea739ba3789f7f6eaddbc82d95c1516d0868e",
      "assetIds": []
    },
    {
      "x": 312,
      "y": 236,
      "size": 1,
      "price": "1011000000000000000000",
      "reserved": "",
      "salt": "0xf58e78d6c8806299e1a26eb121895f9ae39f84694eb3a5fa5c9c05778679d811",
      "assetIds": []
    },
    {
      "x": 313,
      "y": 213,
      "size": 1,
      "price": "1011000000000000000000",
      "reserved": "",
      "salt": "0x18030d6520db6b1be7dfe9547cbb32de2e13a31014eca5a762a98dc391770db7",
      "assetIds": []
    },
    {
      "x": 313,
      "y": 214,
      "size": 1,
      "price": "1011000000000000000000",
      "reserved": "",
      "salt": "0xff7ab1ae2d77081ef832de191c288d1532aad06d1a1a47240e1a8a0da190fa79",
      "assetIds": []
    },
    {
      "x": 313,
      "y": 215,
      "size": 1,
      "price": "1011000000000000000000",
      "reserved": "",
      "salt": "0xd7a11e684f5943426fa1907e225966615dff036b716c0f7366928035f9cda91b",
      "assetIds": []
    },
    {
      "x": 313,
      "y": 222,
      "size": 1,
      "price": "1011000000000000000000",
      "reserved": "",
      "salt": "0xe6087f8d154f2cc13320f4d52703183afc385131d94e38cbbb2ca0dd8cf37dc4",
      "assetIds": []
    },
    {
      "x": 313,
      "y": 223,
      "size": 1,
      "price": "1011000000000000000000",
      "reserved": "",
      "salt": "0xf24430cd9efc18b2e4b6765156d7a27c6dbeca6a0c0148c6fc99bf65b82cad07",
      "assetIds": []
    },
    {
      "x": 313,
      "y": 224,
      "size": 1,
      "price": "1011000000000000000000",
      "reserved": "",
      "salt": "0x69c6b9905bc5739879e03e6692d4188f9832ba50d7c0dae0ae7d7ef17357f889",
      "assetIds": []
    },
    {
      "x": 313,
      "y": 225,
      "size": 1,
      "price": "1011000000000000000000",
      "reserved": "",
      "salt": "0xc3d720853718a83b98816fe3f319288a08a9f21d65638018156b16f2b4e5f499",
      "assetIds": []
    },
    {
      "x": 313,
      "y": 226,
      "size": 1,
      "price": "1011000000000000000000",
      "reserved": "",
      "salt": "0x704b3c21bb311ff993b36864c443b95b036b10e810da764ff136f038f3ac807c",
      "assetIds": []
    },
    {
      "x": 313,
      "y": 227,
      "size": 1,
      "price": "1011000000000000000000",
      "reserved": "",
      "salt": "0x034a045f6af539abf00da03604b875cbb42dcc011ba6f00a46097dcaf2d65db3",
      "assetIds": []
    },
    {
      "x": 313,
      "y": 228,
      "size": 1,
      "price": "1011000000000000000000",
      "reserved": "",
      "salt": "0x507cc7eceaa92ec553db04d2a0c36794b39f7984891f590067c3dee4bfd0a4fb",
      "assetIds": []
    },
    {
      "x": 313,
      "y": 229,
      "size": 1,
      "price": "1011000000000000000000",
      "reserved": "",
      "salt": "0xd0e31b3b570cb8db87b2012dce9ac2004c676199e69cb64d6471c6b3d6d3b3f8",
      "assetIds": []
    },
    {
      "x": 313,
      "y": 230,
      "size": 1,
      "price": "1011000000000000000000",
      "reserved": "",
      "salt": "0x096ecdf047e56aeb1490e3c63351e486510bcf9143e8e5047810dc55395d7ff8",
      "assetIds": []
    },
    {
      "x": 313,
      "y": 234,
      "size": 1,
      "price": "1011000000000000000000",
      "reserved": "",
      "salt": "0x479b2a386faa8c40768b2b276209c7f1639afa846b7c6ee05f7683eb2800e149",
      "assetIds": []
    },
    {
      "x": 313,
      "y": 235,
      "size": 1,
      "price": "1011000000000000000000",
      "reserved": "",
      "salt": "0x1b2f70ee59415b4ddb21089bd4288ff071d224488204253fef05aa411bf3d7a6",
      "assetIds": []
    },
    {
      "x": 313,
      "y": 236,
      "size": 1,
      "price": "1011000000000000000000",
      "reserved": "",
      "salt": "0x4004196d8a4e59f7f161c1826e1de20f372c764fe7c41ca0fddfedc9eb5725c2",
      "assetIds": []
    },
    {
      "x": 314,
      "y": 213,
      "size": 1,
      "price": "1011000000000000000000",
      "reserved": "",
      "salt": "0x850b7cc4f2570db75da3163355b5d429f7ef6a5e41c0eb71d64a64a78fdcca34",
      "assetIds": []
    },
    {
      "x": 314,
      "y": 214,
      "size": 1,
      "price": "1011000000000000000000",
      "reserved": "",
      "salt": "0x7785522862ca7448c67c3df4d749ee91ffb669c780d5c4cca99900eeb8a82925",
      "assetIds": []
    },
    {
      "x": 314,
      "y": 215,
      "size": 1,
      "price": "1011000000000000000000",
      "reserved": "",
      "salt": "0x47e0cc2bb350a68fe7a4cc8663b1910b71ab1b906e78cef896fb0cfc8d467ac7",
      "assetIds": []
    },
    {
      "x": 314,
      "y": 222,
      "size": 1,
      "price": "1011000000000000000000",
      "reserved": "",
      "salt": "0x1d43443595e5af779f888ca4305eb2adea3c0f6364abeb29a4f23c50abb896ec",
      "assetIds": []
    },
    {
      "x": 314,
      "y": 223,
      "size": 1,
      "price": "1011000000000000000000",
      "reserved": "",
      "salt": "0x301cc7d54dcc26a76351c28911322e84357bc28006f82184bc49e8a5b38eac1a",
      "assetIds": []
    },
    {
      "x": 314,
      "y": 224,
      "size": 1,
      "price": "1011000000000000000000",
      "reserved": "",
      "salt": "0xea7c1194001629261bfc7486dcd9d5ad26ec7551d375e3db213c703ded080e52",
      "assetIds": []
    },
    {
      "x": 314,
      "y": 225,
      "size": 1,
      "price": "1011000000000000000000",
      "reserved": "0x7a9fe22691c811ea339d9b73150e6911a5343dca",
      "salt": "0x88479d4140af169e97a578287af173ec3ac1f435388b28ce3eed92eb0005e7bd",
      "assetIds": []
    },
    {
      "x": 314,
      "y": 226,
      "size": 1,
      "price": "1011000000000000000000",
      "reserved": "",
      "salt": "0x7fc60714401883a475e7d94185acd25ca60d99676f88b8e8c70bc6faaaf323e2",
      "assetIds": []
    },
    {
      "x": 314,
      "y": 227,
      "size": 1,
      "price": "1011000000000000000000",
      "reserved": "",
      "salt": "0x8ef934a00b21b59d490f6f1936cebf39c3c179306eccd12a0e946a8410764e46",
      "assetIds": []
    },
    {
      "x": 314,
      "y": 228,
      "size": 1,
      "price": "4683000000000000000000",
      "reserved": "",
      "salt": "0x0b0e4c1e4d35df02dbe616b9fdbcdbc03293f4b5535d5bd254501a7d5ed77f70",
      "assetIds": [
        "3746778144692037274542565289882709912000824725383757",
        "15717856215799677617142318795227913511224897250792389"
      ]
    },
    {
      "x": 314,
      "y": 229,
      "size": 1,
      "price": "1011000000000000000000",
      "reserved": "0x7a9fe22691c811ea339d9b73150e6911a5343dca",
      "salt": "0xb47f5a39ee6440fe06fb15f623b2835a02c5bad0c5257cba2e466eba88503d2f",
      "assetIds": []
    },
    {
      "x": 314,
      "y": 230,
      "size": 1,
      "price": "4683000000000000000000",
      "reserved": "",
      "salt": "0x7cdf810a14df060660a07d274e3d9598df31e2d723436d9257e1a196b6f0aa40",
      "assetIds": [
        "3746778144692037274542565289882709912000824725383757",
        "15717856215799677617142318795227913511224897250792389"
      ]
    },
    {
      "x": 314,
      "y": 234,
      "size": 1,
      "price": "1011000000000000000000",
      "reserved": "0x7a9fe22691c811ea339d9b73150e6911a5343dca",
      "salt": "0xee216700191df0b843fd9a651e6239baddba36f1d71e3af516fbcd1839ef2385",
      "assetIds": []
    },
    {
      "x": 314,
      "y": 235,
      "size": 1,
      "price": "1011000000000000000000",
      "reserved": "",
      "salt": "0x0dfce33abd03b5fbea1a5edc9c49518d44297fe60f7b133f0d0699a04c71a973",
      "assetIds": []
    },
    {
      "x": 314,
      "y": 236,
      "size": 1,
      "price": "1011000000000000000000",
      "reserved": "",
      "salt": "0xf09ba91c5aa631e90cb51963b758ff3a6b4682127d46ae516f6b1f5edb38df77",
      "assetIds": []
    },
    {
      "x": 315,
      "y": 213,
      "size": 1,
      "price": "1011000000000000000000",
      "reserved": "",
      "salt": "0xfdedfd6894a0b91655aa8e64ada4ae9bbd25930bae33bca3cbcec2e98c463653",
      "assetIds": []
    },
    {
      "x": 315,
      "y": 214,
      "size": 1,
      "price": "1011000000000000000000",
      "reserved": "",
      "salt": "0x889736410bbb4a1445c7663dd7cbf7721e5151c5b534f7988b635b95ac6b4c27",
      "assetIds": []
    },
    {
      "x": 315,
      "y": 215,
      "size": 1,
      "price": "1011000000000000000000",
      "reserved": "",
      "salt": "0xeb4275369f10be7d3366975303c5aea08473c8c2ebf3f55082490b936b954a52",
      "assetIds": []
    },
    {
      "x": 315,
      "y": 225,
      "size": 1,
      "price": "1011000000000000000000",
      "reserved": "",
      "salt": "0xc31881996c2b18485baa2d37b1dd37ef7fc416d6a4bc7f20447f960cf312377f",
      "assetIds": []
    },
    {
      "x": 315,
      "y": 226,
      "size": 1,
      "price": "1011000000000000000000",
      "reserved": "",
      "salt": "0x763c96fa25995e28d1af5f418e07fd741f2e7680fcc33a3a379c57594f809acf",
      "assetIds": []
    },
    {
      "x": 315,
      "y": 227,
      "size": 1,
      "price": "4683000000000000000000",
      "reserved": "",
      "salt": "0x0f0e7f59a16e387caf3cf2dd6a72f6939be1b2569ca5225c4e37bf6f7dcf06d3",
      "assetIds": [
        "3746778144692037274542565289882709912000824725383757",
        "15717856215799677617142318795227913511224897250792389"
      ]
    },
    {
      "x": 315,
      "y": 231,
      "size": 1,
      "price": "4683000000000000000000",
      "reserved": "",
      "salt": "0xb7710edd25049967e764aff9aa34cbd95f71c567b97e0326941b616cd8541aef",
      "assetIds": [
        "3746778144692037274542565289882709912000824725383757",
        "15717856215799677617142318795227913511224897250792389"
      ]
    },
    {
      "x": 315,
      "y": 232,
      "size": 1,
      "price": "1011000000000000000000",
      "reserved": "",
      "salt": "0x616e70a1cb6fdab1818089a1094beea703adc60f726017fb05123a885518ef75",
      "assetIds": []
    },
    {
      "x": 315,
      "y": 233,
      "size": 1,
      "price": "1011000000000000000000",
      "reserved": "0x7a9fe22691c811ea339d9b73150e6911a5343dca",
      "salt": "0x9d5545ec405546855029fef6503e40b0f2f74ae841bcc6aa505b1f1577810425",
      "assetIds": []
    },
    {
      "x": 316,
      "y": 213,
      "size": 1,
      "price": "1011000000000000000000",
      "reserved": "",
      "salt": "0xccf8cf5e12a9f2c6546329a85a1373e9792e9fae24a7e32871ce48b7327d4f15",
      "assetIds": []
    },
    {
      "x": 316,
      "y": 214,
      "size": 1,
      "price": "1011000000000000000000",
      "reserved": "",
      "salt": "0x3fbf31fe452760f74b9ebb145290a52909bce6f6430a87759996692377569cbc",
      "assetIds": []
    },
    {
      "x": 316,
      "y": 215,
      "size": 1,
      "price": "1011000000000000000000",
      "reserved": "",
      "salt": "0xfffeef384d8b150bdca4fb72eab53df93b0f167021e63a0c60f794e23fcd6a65",
      "assetIds": []
    },
    {
      "x": 316,
      "y": 225,
      "size": 1,
      "price": "1011000000000000000000",
      "reserved": "",
      "salt": "0x9a13ed590b6355719f497718b24232f16aaaa1ba115924e53ab38ba8b9b0fa67",
      "assetIds": []
    },
    {
      "x": 316,
      "y": 226,
      "size": 1,
      "price": "1011000000000000000000",
      "reserved": "",
      "salt": "0x260e66e590b8043a33de3f885ce9c20388b5624202ed3a02e21c8482682b7e96",
      "assetIds": []
    },
    {
      "x": 316,
      "y": 227,
      "size": 1,
      "price": "4683000000000000000000",
      "reserved": "",
      "salt": "0xcb0016df1a08a0248a9dcc910f4235007ae67823e072016a95c5208afc3434f3",
      "assetIds": [
        "3746778144692037274542565289882709912000824725383757",
        "15717856215799677617142318795227913511224897250792389"
      ]
    },
    {
      "x": 316,
      "y": 231,
      "size": 1,
      "price": "4683000000000000000000",
      "reserved": "",
      "salt": "0x7e4cc57fcca030975cdfd7f4259030d0e28d1cb62bc78d4097568a07a0270e17",
      "assetIds": [
        "3746778144692037274542565289882709912000824725383757",
        "15717856215799677617142318795227913511224897250792389"
      ]
    },
    {
      "x": 316,
      "y": 232,
      "size": 1,
      "price": "1011000000000000000000",
      "reserved": "",
      "salt": "0x2ace620b96e41059cce6a597be55cac9fcf297ac1f4afe81eda234932086f7cc",
      "assetIds": []
    },
    {
      "x": 316,
      "y": 233,
      "size": 1,
      "price": "1011000000000000000000",
      "reserved": "",
      "salt": "0x9080a3aca78b4420dda81839974ad8712808b171d5c0f904dce6aa7b812ae4ab",
      "assetIds": []
    },
    {
      "x": 317,
      "y": 213,
      "size": 1,
      "price": "1011000000000000000000",
      "reserved": "",
      "salt": "0x4e27d275f7f815fdc962c138a205c332107af23e21fd0017b1ea327f925eac45",
      "assetIds": []
    },
    {
      "x": 317,
      "y": 214,
      "size": 1,
      "price": "1011000000000000000000",
      "reserved": "",
      "salt": "0x7ef9353fd704403954f15875649366ab63335dc58da7bccf52304a550b5014fd",
      "assetIds": []
    },
    {
      "x": 317,
      "y": 215,
      "size": 1,
      "price": "1011000000000000000000",
      "reserved": "",
      "salt": "0x1670dbcd8ab11473a49b37bffc897c33c9c2bfb2937e5e2e5b009186036352f5",
      "assetIds": []
    },
    {
      "x": 317,
      "y": 225,
      "size": 1,
      "price": "1011000000000000000000",
      "reserved": "",
      "salt": "0x70c39274f7416dcf031e702671214e739828e8543c229165dbe7f419f1d10dd4",
      "assetIds": []
    },
    {
      "x": 317,
      "y": 226,
      "size": 1,
      "price": "1011000000000000000000",
      "reserved": "",
      "salt": "0xf9456a4001be2e9599f173801df8e6a7452cd6d67a313402d2e6ffa14fb801a2",
      "assetIds": []
    },
    {
      "x": 317,
      "y": 227,
      "size": 1,
      "price": "4683000000000000000000",
      "reserved": "",
      "salt": "0xe1d48a48f5fc7625e6ae96cee368c9cafbf8f7e1d6bc732f62f16c4eb50229b9",
      "assetIds": [
        "3746778144692037274542565289882709912000824725383757",
        "15717856215799677617142318795227913511224897250792389"
      ]
    },
    {
      "x": 317,
      "y": 231,
      "size": 1,
      "price": "4683000000000000000000",
      "reserved": "",
      "salt": "0xf2ab561caf197c3537cdb0e54cd670dd7aa9d66f3c9750d29582aa6928765ea2",
      "assetIds": [
        "3746778144692037274542565289882709912000824725383757",
        "15717856215799677617142318795227913511224897250792389"
      ]
    },
    {
      "x": 317,
      "y": 232,
      "size": 1,
      "price": "1011000000000000000000",
      "reserved": "",
      "salt": "0x5316f914f0e2465caa782249878b7f084f06741f1f1c001b1e3de9bd02000763",
      "assetIds": []
    },
    {
      "x": 317,
      "y": 233,
      "size": 1,
      "price": "1011000000000000000000",
      "reserved": "",
      "salt": "0x186495247d7781d0cf77d6655b92b7d73917e6c1608866721c5b2739a9550cfe",
      "assetIds": []
    },
    {
      "x": 318,
      "y": 216,
      "size": 1,
      "price": "1011000000000000000000",
      "reserved": "",
      "salt": "0x43cb848e64caea2a23c9341754e767ae803996a833ceaba8996c323f031f5801",
      "assetIds": []
    },
    {
      "x": 318,
      "y": 217,
      "size": 1,
      "price": "1011000000000000000000",
      "reserved": "",
      "salt": "0x317b9948f0d3729ae0d9212fcc66bb580afe770cf6c59a4f01e94890997ec611",
      "assetIds": []
    },
    {
      "x": 318,
      "y": 218,
      "size": 1,
      "price": "1011000000000000000000",
      "reserved": "",
      "salt": "0xce59fc758a69a6e08221cf57538dfe93e392e76316259c7e663c6657bd78e38d",
      "assetIds": []
    },
    {
      "x": 318,
      "y": 219,
      "size": 1,
      "price": "1011000000000000000000",
      "reserved": "",
      "salt": "0x045757fe22183947ce77c5ced6755816032b9c1d018d970c7ff9c330d0a3880d",
      "assetIds": []
    },
    {
      "x": 318,
      "y": 220,
      "size": 1,
      "price": "1011000000000000000000",
      "reserved": "",
      "salt": "0x0b79d002113b67e6ee183b5680dfae63762b42ef9a96bcd074fb7586a560c361",
      "assetIds": []
    },
    {
      "x": 318,
      "y": 221,
      "size": 1,
      "price": "1011000000000000000000",
      "reserved": "",
      "salt": "0x4d9bc989f22ca1b6ea43affde5687f122dcc8af4a2af5603d539c6f4396a70d1",
      "assetIds": []
    },
    {
      "x": 318,
      "y": 222,
      "size": 1,
      "price": "1011000000000000000000",
      "reserved": "",
      "salt": "0xf172df43aae6bd61d5a2563d09465ada93db1bfd02c572159a1e5663a26d5e1a",
      "assetIds": []
    },
    {
      "x": 318,
      "y": 223,
      "size": 1,
      "price": "1011000000000000000000",
      "reserved": "",
      "salt": "0xf754811625572316c01c63d336e5d7e72ff04fc84dbc26bc9d869390305d0568",
      "assetIds": []
    },
    {
      "x": 318,
      "y": 224,
      "size": 1,
      "price": "1011000000000000000000",
      "reserved": "",
      "salt": "0x97ed88958dcdf995fa998d74885ebd8845bc51a571ea4fc52f4f1a7625a06716",
      "assetIds": []
    },
    {
      "x": 318,
      "y": 228,
      "size": 1,
      "price": "4683000000000000000000",
      "reserved": "",
      "salt": "0x11c3f8484bcf9c73397d308993c94e0b9d25b13398d2bbbd032c96595ef6fa48",
      "assetIds": [
        "3746778144692037274542565289882709912000824725383757",
        "15717856215799677617142318795227913511224897250792389"
      ]
    },
    {
      "x": 318,
      "y": 229,
      "size": 1,
      "price": "1011000000000000000000",
      "reserved": "",
      "salt": "0xe5b8269be2b818f737a56114c31b4a7cc6b27597ed1979dc964c075ea8362a32",
      "assetIds": []
    },
    {
      "x": 318,
      "y": 230,
      "size": 1,
      "price": "4683000000000000000000",
      "reserved": "",
      "salt": "0x08cd1ed981afe92de8c9f33b737fe3a17a59c68c0e6c9c354c8c4eb330af1ac4",
      "assetIds": [
        "3746778144692037274542565289882709912000824725383757",
        "15717856215799677617142318795227913511224897250792389"
      ]
    },
    {
      "x": 318,
      "y": 231,
      "size": 1,
      "price": "1011000000000000000000",
      "reserved": "",
      "salt": "0x43ec35c7505fc1b4fb8a809c2b7ec9a843e41e3476f4abd7953985f70270336f",
      "assetIds": []
    },
    {
      "x": 318,
      "y": 232,
      "size": 1,
      "price": "1011000000000000000000",
      "reserved": "",
      "salt": "0x93a60bc493278d0b89ba48101499a2ca88bb88b880d0f188fdf7f9ebe9641268",
      "assetIds": []
    },
    {
      "x": 318,
      "y": 233,
      "size": 1,
      "price": "1011000000000000000000",
      "reserved": "",
      "salt": "0x9ce520fc426fb89054371a8699c8aebc52a2461f967e3de5f7bc5b15e2918ed2",
      "assetIds": []
    },
    {
      "x": 318,
      "y": 234,
      "size": 1,
      "price": "1011000000000000000000",
      "reserved": "",
      "salt": "0xa705609bf7d6364713a0161e976e4785f9a7ba02cdf83d58b95961977f32d445",
      "assetIds": []
    },
    {
      "x": 318,
      "y": 235,
      "size": 1,
      "price": "1011000000000000000000",
      "reserved": "",
      "salt": "0xc79202e1372e341db436d7a1183e1836843e64c5cbfc89056af925929aaa6f41",
      "assetIds": []
    },
    {
      "x": 318,
      "y": 236,
      "size": 1,
      "price": "1011000000000000000000",
      "reserved": "",
      "salt": "0xed8f644efe486fd176ee802d51b9e34e27603c083e4c0e6ec398300e505b315a",
      "assetIds": []
    },
    {
      "x": 319,
      "y": 216,
      "size": 1,
      "price": "1011000000000000000000",
      "reserved": "",
      "salt": "0xb7f92a32b30630390a6d5ce398d984ff6980da8aa003cbb9b4b7d3e135409e12",
      "assetIds": []
    },
    {
      "x": 319,
      "y": 217,
      "size": 1,
      "price": "1011000000000000000000",
      "reserved": "",
      "salt": "0x7549e35bc2de17ac3127124eeecbff0af8f92d1fa946daa48fc0ce231d249083",
      "assetIds": []
    },
    {
      "x": 319,
      "y": 218,
      "size": 1,
      "price": "1011000000000000000000",
      "reserved": "",
      "salt": "0xf9979c00877f5280528baf4ed5ad88f4b2fed6092a8f9c82fe1b537fb6b5d5d5",
      "assetIds": []
    },
    {
      "x": 319,
      "y": 219,
      "size": 1,
      "price": "1011000000000000000000",
      "reserved": "",
      "salt": "0xdebef6a473a6b59217d15986a49b3f3ec7a7ae221218e57f455f10ef4fecb884",
      "assetIds": []
    },
    {
      "x": 319,
      "y": 220,
      "size": 1,
      "price": "1011000000000000000000",
      "reserved": "0x7a9fe22691c811ea339d9b73150e6911a5343dca",
      "salt": "0x0c08bc45f95df83aa1affbab86da95ab36f19712e1ae3126270ff78fa46c9d76",
      "assetIds": []
    },
    {
      "x": 319,
      "y": 221,
      "size": 1,
      "price": "1011000000000000000000",
      "reserved": "",
      "salt": "0x6e7c183a4aeb38bb683adc0ea98b23d2709a4fce5d47b7198bb62f3c034ed167",
      "assetIds": []
    },
    {
      "x": 319,
      "y": 222,
      "size": 1,
      "price": "1011000000000000000000",
      "reserved": "",
      "salt": "0x406e57bb2bf64afac661dcbf679d57ac5d1640b2b018e6f43e29454f62665c45",
      "assetIds": []
    },
    {
      "x": 319,
      "y": 223,
      "size": 1,
      "price": "1011000000000000000000",
      "reserved": "0x7a9fe22691c811ea339d9b73150e6911a5343dca",
      "salt": "0xf80674b234128a127641f950a15ab422d1058638f1077c4e3889fda88886d4f5",
      "assetIds": []
    },
    {
      "x": 319,
      "y": 224,
      "size": 1,
      "price": "1011000000000000000000",
      "reserved": "",
      "salt": "0xef984f7e7a59a83576f5891971e54b94568a608513d27badf94fc2e4f4d33856",
      "assetIds": []
    },
    {
      "x": 319,
      "y": 228,
      "size": 1,
      "price": "1011000000000000000000",
      "reserved": "",
      "salt": "0xf2ce6ed506d8d5d46aea062dc9aab651098b618bbb13ad691c73c5503ec6d445",
      "assetIds": []
    },
    {
      "x": 319,
      "y": 229,
      "size": 1,
      "price": "1011000000000000000000",
      "reserved": "",
      "salt": "0xedbafc88845223ff44335033db334dbe5368194ffb8d33b196203394e66f0fbe",
      "assetIds": []
    },
    {
      "x": 319,
      "y": 230,
      "size": 1,
      "price": "1011000000000000000000",
      "reserved": "",
      "salt": "0x2737893a58dc5f475be595fd91d4cbe45471a75b05a2ebbfac2e538518000e3d",
      "assetIds": []
    },
    {
      "x": 319,
      "y": 231,
      "size": 1,
      "price": "1011000000000000000000",
      "reserved": "",
      "salt": "0x7190c6538f99395b05313c87ccb125c2c00bd87e466bcfc8ab5eb50bac250e75",
      "assetIds": []
    },
    {
      "x": 319,
      "y": 232,
      "size": 1,
      "price": "1011000000000000000000",
      "reserved": "0x7a9fe22691c811ea339d9b73150e6911a5343dca",
      "salt": "0xe977eb90a41fe542966ad43c554c44294c1aa2be0b61b52188d2c8d39250bd79",
      "assetIds": []
    },
    {
      "x": 319,
      "y": 233,
      "size": 1,
      "price": "1011000000000000000000",
      "reserved": "",
      "salt": "0x5a2c488390ab6d67b3748f141f727d1acdff4fc740fb4b2d865cbfb8b87170fa",
      "assetIds": []
    },
    {
      "x": 319,
      "y": 234,
      "size": 1,
      "price": "1011000000000000000000",
      "reserved": "",
      "salt": "0xba087c6d6c71219c734f123df1941d4ba0c229986784a5dfbca77a319c915b84",
      "assetIds": []
    },
    {
      "x": 319,
      "y": 235,
      "size": 1,
      "price": "1011000000000000000000",
      "reserved": "0x7a9fe22691c811ea339d9b73150e6911a5343dca",
      "salt": "0x1290098e7f0d5a92f32c2d56f405d85400bd9cb0f36ff549b3bff215dc630f47",
      "assetIds": []
    },
    {
      "x": 319,
      "y": 236,
      "size": 1,
      "price": "1011000000000000000000",
      "reserved": "",
      "salt": "0xb35d936ac5a33520f8350e8c490d03f928c409c44901bc0a20456395b03d24e9",
      "assetIds": []
    },
    {
      "x": 320,
      "y": 216,
      "size": 1,
      "price": "1011000000000000000000",
      "reserved": "",
      "salt": "0x57d6b1c2ce1c290a213a9d5617adcf116144d8e59648fbca2be09f0df233c60f",
      "assetIds": []
    },
    {
      "x": 320,
      "y": 217,
      "size": 1,
      "price": "1011000000000000000000",
      "reserved": "",
      "salt": "0xf7431ba14ede9c9f4999446a5b00c95c7700ef782a9bcac9a7125c2b0a47ddd8",
      "assetIds": []
    },
    {
      "x": 320,
      "y": 218,
      "size": 1,
      "price": "1011000000000000000000",
      "reserved": "",
      "salt": "0x827f557eebb49e357b74af6c8f9b128d42c17780c20030dd76df963ed48a7bd2",
      "assetIds": []
    },
    {
      "x": 320,
      "y": 219,
      "size": 1,
      "price": "1011000000000000000000",
      "reserved": "",
      "salt": "0x6867f5666e8d636283b06abe6703f2c9a47b15e1550963ab0d2573a9edd6b048",
      "assetIds": []
    },
    {
      "x": 320,
      "y": 220,
      "size": 1,
      "price": "1011000000000000000000",
      "reserved": "",
      "salt": "0x9fb972e0b510d2154df0d74b209f7a62809b701d327c68872b00e374ce98b890",
      "assetIds": []
    },
    {
      "x": 320,
      "y": 221,
      "size": 1,
      "price": "1011000000000000000000",
      "reserved": "",
      "salt": "0xc32efb7efd774cd9bb84c1e2f75f414202412d41d07f74f3dbfbd6ef6f940b93",
      "assetIds": []
    },
    {
      "x": 320,
      "y": 222,
      "size": 1,
      "price": "1011000000000000000000",
      "reserved": "",
      "salt": "0x39bd99c95003578f562cceff92b022674cdf945776a9ae3d956f239b61037cf9",
      "assetIds": []
    },
    {
      "x": 320,
      "y": 223,
      "size": 1,
      "price": "1011000000000000000000",
      "reserved": "",
      "salt": "0x0e82da85ac9c339bf58ab84da5f1b18b083a0f0bdbd44fb7ad253da9094fa5e9",
      "assetIds": []
    },
    {
      "x": 320,
      "y": 224,
      "size": 1,
      "price": "1011000000000000000000",
      "reserved": "",
      "salt": "0x3fd521fee5b3c791f0306739fe606a591fe757bebcabc9b8ac5bc4bb87ea857a",
      "assetIds": []
    },
    {
      "x": 320,
      "y": 228,
      "size": 1,
      "price": "1011000000000000000000",
      "reserved": "",
      "salt": "0x74e7a4f1fcc51772a58b44d30b14428a282149e7f1e96a5084ebda926abed295",
      "assetIds": []
    },
    {
      "x": 320,
      "y": 229,
      "size": 1,
      "price": "1011000000000000000000",
      "reserved": "",
      "salt": "0x1e3adecc742835e1b186865e490c43022b762e1a244cdc575638a4f9bd72ea00",
      "assetIds": []
    },
    {
      "x": 320,
      "y": 230,
      "size": 1,
      "price": "1011000000000000000000",
      "reserved": "",
      "salt": "0x3303dc43d25eebae0542baed7f04fa7a7069decc550e9b6470211d568b0932ab",
      "assetIds": []
    },
    {
      "x": 320,
      "y": 231,
      "size": 1,
      "price": "1011000000000000000000",
      "reserved": "",
      "salt": "0x5a8536c2e5ec30be54e8892dfe7ce46843ff95fad3859ceb2e20cf77113787a8",
      "assetIds": []
    },
    {
      "x": 320,
      "y": 232,
      "size": 1,
      "price": "1011000000000000000000",
      "reserved": "",
      "salt": "0x47be3f0cdeaf4521e36dbc129aee279e7a910557dc9dd30d7a017f5506bd4c09",
      "assetIds": []
    },
    {
      "x": 320,
      "y": 233,
      "size": 1,
      "price": "1011000000000000000000",
      "reserved": "",
      "salt": "0x23488934d658ec67edcd076d5f6428ca48679a0f0d39581042d05408d929196a",
      "assetIds": []
    },
    {
      "x": 320,
      "y": 234,
      "size": 1,
      "price": "1011000000000000000000",
      "reserved": "",
      "salt": "0xc0d2e09eef91420a2c7c5878b0b07be86b25b2f1d1119164465dcbac0b547d48",
      "assetIds": []
    },
    {
      "x": 320,
      "y": 235,
      "size": 1,
      "price": "1011000000000000000000",
      "reserved": "",
      "salt": "0x39abb82d0ceb5501b095e240d7c87ecfed7b55e8a1e7b7cafd0aba9968f40d0d",
      "assetIds": []
    },
    {
      "x": 320,
      "y": 236,
      "size": 1,
      "price": "1011000000000000000000",
      "reserved": "",
      "salt": "0x35b948bf2d258300426c9c22c1c4cdda5de841b8e16558ab8e56d0cbfe911696",
      "assetIds": []
    },
    {
      "x": 321,
      "y": 213,
      "size": 1,
      "price": "1011000000000000000000",
      "reserved": "",
      "salt": "0xec7ce1624f672f5c310730e84ff9e9b6700abaff2d798bae6309712649db096f",
      "assetIds": []
    },
    {
      "x": 321,
      "y": 214,
      "size": 1,
      "price": "1011000000000000000000",
      "reserved": "",
      "salt": "0xe295dc6e750be9094953de1e6b82e012e57ad293968aa4f48be5405bc71c5b45",
      "assetIds": []
    },
    {
      "x": 321,
      "y": 215,
      "size": 1,
      "price": "1011000000000000000000",
      "reserved": "",
      "salt": "0xac387e76af031b83687e257705a6e7bff6b9dd533a6f89aa7bdf1066c23466bb",
      "assetIds": []
    },
    {
      "x": 321,
      "y": 219,
      "size": 1,
      "price": "1011000000000000000000",
      "reserved": "",
      "salt": "0xcddeff7b231a0b36ffbc651c256ae71eee8c12c3f8b815d29915831164e0b9e4",
      "assetIds": []
    },
    {
      "x": 321,
      "y": 220,
      "size": 1,
      "price": "1011000000000000000000",
      "reserved": "",
      "salt": "0xa9535e78b49dda8718561e20710abda8b11ea3e9e45ea948a3109476040f788d",
      "assetIds": []
    },
    {
      "x": 321,
      "y": 221,
      "size": 1,
      "price": "1011000000000000000000",
      "reserved": "",
      "salt": "0x7c3ff540fabdbd5f29f92cf0c66dbc76b96d55f5068247a65b068d2daf42fa6b",
      "assetIds": []
    },
    {
      "x": 321,
      "y": 225,
      "size": 1,
      "price": "1011000000000000000000",
      "reserved": "",
      "salt": "0x8b10e2cc1c0286033718ee74d5f0ee42121b0412d95521d36da818767c04d7cf",
      "assetIds": []
    },
    {
      "x": 321,
      "y": 226,
      "size": 1,
      "price": "1011000000000000000000",
      "reserved": "",
      "salt": "0x33c0fa49124eedbefb046782f7de3685fcf831dd5137002d5ed8e172fb633d12",
      "assetIds": []
    },
    {
      "x": 321,
      "y": 227,
      "size": 1,
      "price": "1011000000000000000000",
      "reserved": "",
      "salt": "0xc225ef66329c77e46712db8899a2a661cb0b6e90fb9abee5a2819540088472b8",
      "assetIds": []
    },
    {
      "x": 321,
      "y": 231,
      "size": 1,
      "price": "1011000000000000000000",
      "reserved": "",
      "salt": "0x3d62248110a7b820416c6bbcf7617e05f202e9bb6a7bc011e0d12a62090063fa",
      "assetIds": []
    },
    {
      "x": 321,
      "y": 232,
      "size": 1,
      "price": "1011000000000000000000",
      "reserved": "",
      "salt": "0x520956fd369ef2fceedec330600d25fd6630bf1f82799145273d3960a33783bc",
      "assetIds": []
    },
    {
      "x": 321,
      "y": 233,
      "size": 1,
      "price": "1011000000000000000000",
      "reserved": "",
      "salt": "0x01156525c69c7d439ec6c459a342394b582d7b16ea9763b7d27ba3e686740f43",
      "assetIds": []
    },
    {
      "x": 322,
      "y": 213,
      "size": 1,
      "price": "1011000000000000000000",
      "reserved": "",
      "salt": "0xccb522770275a1bd8eb07a9e9c26829d053c7e1845013ca3c5000668c91fd1b8",
      "assetIds": []
    },
    {
      "x": 322,
      "y": 214,
      "size": 1,
      "price": "1011000000000000000000",
      "reserved": "",
      "salt": "0x0fd7f57767c0bf00516e9efe8571fead06b8fa3205c99ec01769fe991967c1e2",
      "assetIds": []
    },
    {
      "x": 322,
      "y": 215,
      "size": 1,
      "price": "1011000000000000000000",
      "reserved": "",
      "salt": "0x76ed01faf01ca310fb34da4d9a30c69b0bf7b40c2bbb1cadbd33217537952ea6",
      "assetIds": []
    },
    {
      "x": 322,
      "y": 219,
      "size": 1,
      "price": "1011000000000000000000",
      "reserved": "",
      "salt": "0x609b65dc46801068af2480f7b305e40f6f34869365cfba1144781909ce50a3ec",
      "assetIds": []
    },
    {
      "x": 322,
      "y": 220,
      "size": 1,
      "price": "1011000000000000000000",
      "reserved": "0x7a9fe22691c811ea339d9b73150e6911a5343dca",
      "salt": "0xb1fa5df8a6fec084010b742b3b9be728120c2298f68bf28d7e24ac3891545954",
      "assetIds": []
    },
    {
      "x": 322,
      "y": 221,
      "size": 1,
      "price": "1011000000000000000000",
      "reserved": "",
      "salt": "0x08515381e167e3280e3fdb42aaff29df2d55191d2bf17f2b685c986b4533d64b",
      "assetIds": []
    },
    {
      "x": 322,
      "y": 225,
      "size": 1,
      "price": "1011000000000000000000",
      "reserved": "",
      "salt": "0x577134831043379dfb911d95204a077c0ff798c94280006de828deb162866541",
      "assetIds": []
    },
    {
      "x": 322,
      "y": 226,
      "size": 1,
      "price": "1011000000000000000000",
      "reserved": "0x7a9fe22691c811ea339d9b73150e6911a5343dca",
      "salt": "0x0ad8e56315e7a34f4f5f7625f097eb6a9dfd5c1108979e5ab6b3844770ef3b77",
      "assetIds": []
    },
    {
      "x": 322,
      "y": 227,
      "size": 1,
      "price": "1011000000000000000000",
      "reserved": "",
      "salt": "0xf0c67690c873d7895cfb04e0d9e76411a35d1c1b0eabc213ad627e66fab61573",
      "assetIds": []
    },
    {
      "x": 322,
      "y": 231,
      "size": 1,
      "price": "1011000000000000000000",
      "reserved": "",
      "salt": "0x6e9c30827aa3f1e5d8fc9bbe7859ebea6cf557914c65e1031d56af3e4aefdbce",
      "assetIds": []
    },
    {
      "x": 322,
      "y": 232,
      "size": 1,
      "price": "1011000000000000000000",
      "reserved": "",
      "salt": "0x8df91834c4c3a99c38779d4ff293f5fa677bcbe625cee185bf9053028092cf8f",
      "assetIds": []
    },
    {
      "x": 322,
      "y": 233,
      "size": 1,
      "price": "1011000000000000000000",
      "reserved": "",
      "salt": "0x40a4e6a1117d476dd229c8b58ccb62b80b227ec3c5e70b2bcf1808179a03a639",
      "assetIds": []
    },
    {
      "x": 323,
      "y": 213,
      "size": 1,
      "price": "1011000000000000000000",
      "reserved": "",
      "salt": "0x3aeeda39396e8307ba043e2ca507237238821fd6f8ba3c78f41ed4f462ab52e3",
      "assetIds": []
    },
    {
      "x": 323,
      "y": 214,
      "size": 1,
      "price": "1011000000000000000000",
      "reserved": "",
      "salt": "0x9182d04742153f43a88f6c37934f737b469ee3115ee136c33036b6da6e7875bb",
      "assetIds": []
    },
    {
      "x": 323,
      "y": 215,
      "size": 1,
      "price": "1011000000000000000000",
      "reserved": "",
      "salt": "0x3371b8824ae63ca380b2ad74ef7edcc3ace2f1df6f1b1df265ccd09115f43dcd",
      "assetIds": []
    },
    {
      "x": 323,
      "y": 219,
      "size": 1,
      "price": "1011000000000000000000",
      "reserved": "",
      "salt": "0x640146cff10ca7d86b78a0c22f9b17453ff251fffc9e9a8f3c8382531cfd9680",
      "assetIds": []
    },
    {
      "x": 323,
      "y": 220,
      "size": 1,
      "price": "1011000000000000000000",
      "reserved": "",
      "salt": "0xeee26ed032bbca116535784f73d010bfcb20f626886d292268c5346771053632",
      "assetIds": []
    },
    {
      "x": 323,
      "y": 221,
      "size": 1,
      "price": "1011000000000000000000",
      "reserved": "",
      "salt": "0xa1a1a57d53b3d33a2f7b3bfe9ea65bde0bbfcfa812ad81b0e211d467236c0c44",
      "assetIds": []
    },
    {
      "x": 323,
      "y": 225,
      "size": 1,
      "price": "1011000000000000000000",
      "reserved": "",
      "salt": "0xea798a80826a171346682ad018aadcf719800865f3728e66cfafffcee571b0b9",
      "assetIds": []
    },
    {
      "x": 323,
      "y": 226,
      "size": 1,
      "price": "1011000000000000000000",
      "reserved": "",
      "salt": "0xd84769750867d5bcf846662a0dfe37a577282cf67a6d95a4cbecf1bd4d3099ef",
      "assetIds": []
    },
    {
      "x": 323,
      "y": 227,
      "size": 1,
      "price": "1011000000000000000000",
      "reserved": "",
      "salt": "0x5f1018073c73d35f94468386457737cb07e0b0ead66aa9369c374e80ed765919",
      "assetIds": []
    },
    {
      "x": 323,
      "y": 231,
      "size": 1,
      "price": "1011000000000000000000",
      "reserved": "",
      "salt": "0x5ac791dc809a5d574dcd7915eecf61631cfca6c4a03023ff9a7c8e5600d15802",
      "assetIds": []
    },
    {
      "x": 323,
      "y": 232,
      "size": 1,
      "price": "1011000000000000000000",
      "reserved": "",
      "salt": "0x00da85d15c9cfa7fd1a697677c855f2ff33b0835359eb0642e12dd26102ba58b",
      "assetIds": []
    },
    {
      "x": 323,
      "y": 233,
      "size": 1,
      "price": "1011000000000000000000",
      "reserved": "",
      "salt": "0x6890291b24959f0acb6a43bb3ddb8e4afacdfc4ee2b95ac13576e37870efda1e",
      "assetIds": []
    },
    {
      "x": 297,
      "y": 225,
      "size": 3,
      "price": "8648000000000000000000",
      "reserved": "0x7a9fe22691c811ea339d9b73150e6911a5343dca",
      "salt": "0xc41a0171a58447cad5ead0d6670a29b48e5d3035ba628ca39435a41e7823b06e",
      "assetIds": []
    },
    {
      "x": 300,
      "y": 231,
      "size": 3,
      "price": "8648000000000000000000",
      "reserved": "0x7a9fe22691c811ea339d9b73150e6911a5343dca",
      "salt": "0x9a3f76ab279ea8d1672c94d72a52d547929f042a5b87d65eb9df8893ecab3e04",
      "assetIds": []
    },
    {
      "x": 303,
      "y": 228,
      "size": 3,
      "price": "8648000000000000000000",
      "reserved": "0x7a9fe22691c811ea339d9b73150e6911a5343dca",
      "salt": "0x79ec5fdce1668b00b070250ca2b48ccebaeb635177214274c98d9ca5e23a947e",
      "assetIds": []
    },
    {
      "x": 306,
      "y": 219,
      "size": 3,
      "price": "8648000000000000000000",
      "reserved": "0x7a9fe22691c811ea339d9b73150e6911a5343dca",
      "salt": "0x4332fb775014b4708831882e069709ecd357116a2265df500e8c4a0bf11d9e61",
      "assetIds": []
    },
    {
      "x": 309,
      "y": 213,
      "size": 3,
      "price": "8648000000000000000000",
      "reserved": "0x7a9fe22691c811ea339d9b73150e6911a5343dca",
      "salt": "0x0e7b23fe2424bc2488989396a945e8d970120da4ed45d7fa890d452f16498a6e",
      "assetIds": []
    },
    {
      "x": 309,
      "y": 222,
      "size": 3,
      "price": "8648000000000000000000",
      "reserved": "0x7a9fe22691c811ea339d9b73150e6911a5343dca",
      "salt": "0x2300c8be3ddc9e602049585c5d375a363bebdc5bc0ef72772857f9fb0a7ccee3",
      "assetIds": []
    },
    {
      "x": 312,
      "y": 210,
      "size": 3,
      "price": "8648000000000000000000",
      "reserved": "0x7a9fe22691c811ea339d9b73150e6911a5343dca",
      "salt": "0x458198d8fad3ff94f983b1c7e826032b1f4159bd8b625ad3d2e02e5f12e351e9",
      "assetIds": []
    },
    {
      "x": 312,
      "y": 231,
      "size": 3,
      "price": "8648000000000000000000",
      "reserved": "0x7a9fe22691c811ea339d9b73150e6911a5343dca",
      "salt": "0xf662c4dc1a297f99edab03ed24d6cfd9e35651b2da2f45112190b10b6371f266",
      "assetIds": []
    },
    {
      "x": 315,
      "y": 228,
      "size": 3,
      "price": "8648000000000000000000",
      "reserved": "0x7a9fe22691c811ea339d9b73150e6911a5343dca",
      "salt": "0x3c10e4585586fe96ff82d282f0972e81b2837a06ca5ac6bc486646cb0fc1aa7e",
      "assetIds": []
    },
    {
      "x": 315,
      "y": 234,
      "size": 3,
      "price": "8648000000000000000000",
      "reserved": "0x7a9fe22691c811ea339d9b73150e6911a5343dca",
      "salt": "0xcd3bcddaacda1fb3a15af3105395d3c5ba6f8f314b13a4141f5fff7628285d0a",
      "assetIds": []
    },
    {
      "x": 318,
      "y": 213,
      "size": 3,
      "price": "8648000000000000000000",
      "reserved": "0x7a9fe22691c811ea339d9b73150e6911a5343dca",
      "salt": "0xe729e77f3d4e649abb66a9a83fab67b3c7b7c8b91392fe8f677fa8c0add42145",
      "assetIds": []
    },
    {
      "x": 318,
      "y": 225,
      "size": 3,
      "price": "8648000000000000000000",
      "reserved": "0x7a9fe22691c811ea339d9b73150e6911a5343dca",
      "salt": "0x4db8e0f3b538bb56629c249b295da310adaf5067f1bf1b610ba3889cd4620f97",
      "assetIds": []
    },
    {
      "x": 321,
      "y": 210,
      "size": 3,
      "price": "8648000000000000000000",
      "reserved": "0x7a9fe22691c811ea339d9b73150e6911a5343dca",
      "salt": "0x5fd57a95106271b0aa329de9580f5ddac5372381911446a976d519a037ac83ec",
      "assetIds": []
    },
    {
      "x": 321,
      "y": 216,
      "size": 3,
      "price": "8648000000000000000000",
      "reserved": "0x7a9fe22691c811ea339d9b73150e6911a5343dca",
      "salt": "0xc16fc31122a1f14201a398bbd99a6b1d8ca40d73b94a1e8407bd719459ea531c",
      "assetIds": []
    },
    {
      "x": 321,
      "y": 222,
      "size": 3,
      "price": "8648000000000000000000",
      "reserved": "0x7a9fe22691c811ea339d9b73150e6911a5343dca",
      "salt": "0x70d9b41e57967c6bb1219c765c8fb0c96ca0439deed8aa143bbc099edcce3961",
      "assetIds": []
    },
    {
      "x": 321,
      "y": 234,
      "size": 3,
      "price": "8648000000000000000000",
      "reserved": "0x7a9fe22691c811ea339d9b73150e6911a5343dca",
      "salt": "0x17cdc971674e7d8dfbe3e885a77fc0006e4243b4ee8398638f977145cf16b17d",
      "assetIds": []
    },
    {
      "x": 306,
      "y": 228,
      "size": 6,
      "price": "32772000000000000000000",
      "reserved": "0x7a9fe22691c811ea339d9b73150e6911a5343dca",
      "salt": "0x7a44ac81906b1f159280d444311e12bfe899b177285cd2938d2723827545f6a9",
      "assetIds": []
    }
  ],
  "solcInputHash": "b42a863a795806b4ea3a8f05dfa42539",
  "bytecode": "0x6101606040523480156200001257600080fd5b50604051620031e9380380620031e983398181016040526101a08110156200003957600080fd5b508051602082015160408301516060840151608085015160a086015160c087015160e08801516101008901516101208a01516101408b01516101608c0151610180909c015160016000559a9b999a9899979896979596949593949293919290919085856001600160a01b038216620000f8576040805162461bcd60e51b815260206004820152601f60248201527f526566657272616c56616c696461746f723a207a65726f206164647265737300604482015290519081900360640190fd5b600380546001600160a01b0319166001600160a01b0393841617905560045562000130908e1662000459602090811b62002adc17901c565b6200016d5760405162461bcd60e51b8152600401808060200182810382526025815260200180620031c46025913960400191505060405180910390fd5b6200018c8c6001600160a01b03166200045960201b62002adc1760201c565b620001c95760405162461bcd60e51b8152600401808060200182810382526025815260200180620031c46025913960400191505060405180910390fd5b6001600160a01b038b1662000214576040805162461bcd60e51b815260206004820181905260248201526000805160206200317f833981519152604482015290519081900360640190fd5b6001600160a01b038a166200025f576040805162461bcd60e51b815260206004820181905260248201526000805160206200317f833981519152604482015290519081900360640190fd5b6001600160a01b038916620002aa576040805162461bcd60e51b815260206004820181905260248201526000805160206200317f833981519152604482015290519081900360640190fd5b620002c9836001600160a01b03166200045960201b62002adc1760201c565b620003065760405162461bcd60e51b8152600401808060200182810382526025815260200180620031c46025913960400191505060405180910390fd5b6001600160a01b03821662000351576040805162461bcd60e51b815260206004820181905260248201526000805160206200317f833981519152604482015290519081900360640190fd5b62000370816001600160a01b03166200045960201b62002adc1760201c565b620003ad5760405162461bcd60e51b8152600401808060200182810382526025815260200180620031c46025913960400191505060405180910390fd5b6001600160601b031960608e811b821660a0528d901b1660c052620003dd8b60016001600160e01b036200045f16565b600680546001600160a01b039a8b166001600160a01b031991821617909155610140989098526101209690965260018054998916998816999099179098556001600160601b0319606092831b811660e05290821b811660805296901b909516610100525060078054919093169116179055506200050a92505050565b3b151590565b6001600160a01b038216620004a65760405162461bcd60e51b81526004018080602001828103825260258152602001806200319f6025913960400191505060405180910390fd5b6001600160a01b038216600081815260026020908152604091829020805460ff191685151590811790915582519384529083015280517fb21eb88b4e33b3f1281830a7178d74d8aa73220416215726b68ae23d539515cb9281900390910190a15050565b60805160601c60a05160601c60c05160601c60e05160601c6101005160601c6101205161014051612bef6200059060003980610be0528061247e525080610bbc528061159d5250806124fc525080611af25280611c4f525080611aa85280611e4e52806124d9525080611b235280611c205250806111075280611f3a5250612bef6000f3fe608060405234801561001057600080fd5b50600436106101365760003560e01c8063984d6252116100b2578063c10a420811610081578063dc5074af11610066578063dc5074af146108a0578063e56f8a9e146108c6578063f23a6e61146108e357610136565b8063c10a4208146107c1578063caed35001461089857610136565b8063984d62521461055f578063ab1cc78c14610631578063b522ecff14610639578063bc197c811461065f57610136565b806365194ce71161010957806378e6e5b9116100ee57806378e6e5b9146104e55780638a04af6a1461050b5780638f2839701461053957610136565b806365194ce7146103635780636e9960c3146104c157610136565b80631187fd3c1461013b57806325cb5bc01461031b578063495906571461033557806358bc29441461033d575b600080fd5b610319600480360361012081101561015257600080fd5b6001600160a01b038235811692602081013582169260408201359092169181019060808101606082013564010000000081111561018e57600080fd5b8201836020820111156101a057600080fd5b803590602001918460208302840111640100000000831117156101c257600080fd5b919390928235926040810190602001356401000000008111156101e457600080fd5b8201836020820111156101f657600080fd5b8035906020019184602083028401116401000000008311171561021857600080fd5b91939092909160208101903564010000000081111561023657600080fd5b82018360208201111561024857600080fd5b8035906020019184602083028401116401000000008311171561026a57600080fd5b91939092909160208101903564010000000081111561028857600080fd5b82018360208201111561029a57600080fd5b803590602001918460018302840111640100000000831117156102bc57600080fd5b9193909290916020810190356401000000008111156102da57600080fd5b8201836020820111156102ec57600080fd5b8035906020019184600183028401116401000000008311171561030e57600080fd5b509092509050610978565b005b610323610bba565b60408051918252519081900360200190f35b610323610bde565b6103196004803603602081101561035357600080fd5b50356001600160a01b0316610c02565b6104096004803603602081101561037957600080fd5b81019060208101813564010000000081111561039457600080fd5b8201836020820111156103a657600080fd5b803590602001918460018302840111640100000000831117156103c857600080fd5b91908080601f016020809104026020016040519081016040528093929190818152602001838380828437600092019190915250929550610d2e945050505050565b6040518080602001866001600160a01b03166001600160a01b03168152602001856001600160a01b03166001600160a01b03168152602001848152602001838152602001828103825287818151815260200191508051906020019080838360005b8381101561048257818101518382015260200161046a565b50505050905090810190601f1680156104af5780820380516001836020036101000a031916815260200191505b50965050505050505060405180910390f35b6104c9610e33565b604080516001600160a01b039092168252519081900360200190f35b610319600480360360208110156104fb57600080fd5b50356001600160a01b0316610e42565b6103196004803603604081101561052157600080fd5b506001600160a01b0381351690602001351515610f00565b6103196004803603602081101561054f57600080fd5b50356001600160a01b0316610f6d565b6103196004803603606081101561057557600080fd5b6001600160a01b0382351691908101906040810160208201356401000000008111156105a057600080fd5b8201836020820111156105b257600080fd5b803590602001918460208302840111640100000000831117156105d457600080fd5b9193909290916020810190356401000000008111156105f257600080fd5b82018360208201111561060457600080fd5b8035906020019184602083028401116401000000008311171561062657600080fd5b5090925090506110a6565b610323611231565b6103196004803603602081101561064f57600080fd5b50356001600160a01b0316611237565b61078c600480360360a081101561067557600080fd5b6001600160a01b0382358116926020810135909116918101906060810160408201356401000000008111156106a957600080fd5b8201836020820111156106bb57600080fd5b803590602001918460208302840111640100000000831117156106dd57600080fd5b9193909290916020810190356401000000008111156106fb57600080fd5b82018360208201111561070d57600080fd5b8035906020019184602083028401116401000000008311171561072f57600080fd5b91939092909160208101903564010000000081111561074d57600080fd5b82018360208201111561075f57600080fd5b8035906020019184600183028401116401000000008311171561078157600080fd5b509092509050611348565b604080517fffffffff000000000000000000000000000000000000000000000000000000009092168252519081900360200190f35b610884600480360360a08110156107d757600080fd5b8101906020810181356401000000008111156107f257600080fd5b82018360208201111561080457600080fd5b8035906020019184600183028401116401000000008311171561082657600080fd5b91908080601f016020809104026020016040519081016040528093929190818152602001838380828437600092019190915250929550506001600160a01b038335811694506020840135169260408101359250606001359050611375565b604080519115158252519081900360200190f35b6104c96114b1565b610884600480360360208110156108b657600080fd5b50356001600160a01b03166114c0565b610319600480360360208110156108dc57600080fd5b50356114de565b61078c600480360360a08110156108f957600080fd5b6001600160a01b03823581169260208101359091169160408201359160608101359181019060a08101608082013564010000000081111561093957600080fd5b82018360208201111561094b57600080fd5b8035906020019184600183028401116401000000008311171561096d57600080fd5b509092509050611570565b600260005414156109d0576040805162461bcd60e51b815260206004820152601f60248201527f5265656e7472616e637947756172643a207265656e7472616e742063616c6c00604482015290519081900360640190fd5b60026000556109df8e8d61159b565b610ad68d8d8d8d80806020026020016040519081016040528093929190818152602001838360200280828437600081840152601f19601f820116905080830192505050505050508c8c8c80806020026020016040519081016040528093929190818152602001838360200280828437600081840152601f19601f820116905080830192505050505050508b8b8080602002602001604051908101604052809392919081815260200183836020028082843760009201919091525050604080516020601f8d018190048102820181019092528b815292508b91508a90819084018382808284376000920191909152506116fe92505050565b610b2a8e8c8c6003818110610ae757fe5b9050602002013586868080601f016020809104026020016040519081016040528093929190818152602001838380828437600092019190915250611a8192505050565b610b688e8e8d8d80806020026020016040519081016040528093929190818152602001838360200280828437600092019190915250611ad292505050565b610ba58d898980806020026020016040519081016040528093929190818152602001838360200280828437600092019190915250611ec392505050565b50506001600055505050505050505050505050565b7f000000000000000000000000000000000000000000000000000000000000000090565b7f000000000000000000000000000000000000000000000000000000000000000090565b6001546001600160a01b03163314610c61576040805162461bcd60e51b815260206004820152601260248201527f6f6e6c792061646d696e20616c6c6f7765640000000000000000000000000000604482015290519081900360640190fd5b6001600160a01b038116610cbc576040805162461bcd60e51b815260206004820152601f60248201527f526566657272616c56616c696461746f723a207a65726f206164647265737300604482015290519081900360640190fd5b600380546001600160a01b03908116600090815260056020526040808220620d2f0042019055835473ffffffffffffffffffffffffffffffffffffffff1916928516928317909355915190917fbbb5fb2ee7e707ae0c968f63e94211ea81e66a718c34e2f810a7619e5678a21791a250565b606060008060008060606000806000808a80602001905160a0811015610d5357600080fd5b8101908080516040519392919084640100000000821115610d7357600080fd5b908301906020820185811115610d8857600080fd5b8251640100000000811182820188101715610da257600080fd5b82525081516020918201929091019080838360005b83811015610dcf578181015183820152602001610db7565b50505050905090810190601f168015610dfc5780820380516001836020036101000a031916815260200191505b5060409081526020820151908201516060830151608090930151959f50909d509b5099509197505050505050505091939590929450565b6001546001600160a01b031690565b6001546001600160a01b03163314610e8b5760405162461bcd60e51b8152600401808060200182810382526023815260200180612b056023913960400191505060405180910390fd5b6001600160a01b038116610ee6576040805162461bcd60e51b815260206004820152601f60248201527f526566657272616c56616c696461746f723a207a65726f206164647265737300604482015290519081900360640190fd5b6001600160a01b0316600090815260056020526040812055565b6001546001600160a01b03163314610f5f576040805162461bcd60e51b815260206004820152601260248201527f6f6e6c792061646d696e20616c6c6f7765640000000000000000000000000000604482015290519081900360640190fd5b610f698282612087565b5050565b6001546001600160a01b03163314610fcc576040805162461bcd60e51b815260206004820152601b60248201527f6f6e6c792061646d696e2063616e206368616e67652061646d696e0000000000604482015290519081900360640190fd5b6001546001600160a01b038281169116141561102f576040805162461bcd60e51b815260206004820152600d60248201527f616c72656164792061646d696e00000000000000000000000000000000000000604482015290519081900360640190fd5b600154604080516001600160a01b039283168152918316602083015280517f7e644d79422f17c01e4894b5f4f588d331ebfa28653d42ae832dc59e38c9798f9281900390910190a16001805473ffffffffffffffffffffffffffffffffffffffff19166001600160a01b0392909216919091179055565b6001546001600160a01b03163314611105576040805162461bcd60e51b815260206004820152600e60248201527f4e4f545f415554484f52495a4544000000000000000000000000000000000000604482015290519081900360640190fd5b7f00000000000000000000000000000000000000000000000000000000000000006001600160a01b0316632eb2c2d63087878787876040518763ffffffff1660e01b815260040180876001600160a01b03166001600160a01b03168152602001866001600160a01b03166001600160a01b031681526020018060200180602001806020018481038452888882818152602001925060200280828437600083820152601f01601f19169091018581038452868152602090810191508790870280828437600081840152601f19601f8201169050808301925050508481038252600081526020016020019950505050505050505050600060405180830381600087803b15801561121257600080fd5b505af1158015611226573d6000803e3d6000fd5b505050505050505050565b60045490565b6001600160a01b038116611292576040805162461bcd60e51b815260206004820152600c60248201527f5a45524f5f414444524553530000000000000000000000000000000000000000604482015290519081900360640190fd5b6001546001600160a01b031633146112f1576040805162461bcd60e51b815260206004820152600e60248201527f4e4f545f415554484f52495a4544000000000000000000000000000000000000604482015290519081900360640190fd5b6006805473ffffffffffffffffffffffffffffffffffffffff19166001600160a01b0383169081179091556040517f4d66958b757eb92a1b43d02be4c38c9500b73f532420ee3706cb43d420ba023690600090a250565b7fbc197c810000000000000000000000000000000000000000000000000000000098975050505050505050565b60006004548211806113985750836001600160a01b0316856001600160a01b0316145b806113a257508242115b156113af575060006114a8565b60408051606087811b7fffffffffffffffffffffffffffffffffffffffff0000000000000000000000009081166020808501919091529188901b166034830152604882018690526068808301869052835180840390910181526088830184528051908201207f19457468657265756d205369676e6564204d6573736167653a0a33320000000060a884015260c48084018290528451808503909101815260e49093019093528151910120600090611466908961214e565b6001600160a01b0381166000908152600560205260409020549091504211611493576001925050506114a8565b6003546001600160a01b039081169116149150505b95945050505050565b6003546001600160a01b031690565b6001600160a01b031660009081526002602052604090205460ff1690565b6001546001600160a01b0316331461153d576040805162461bcd60e51b815260206004820152601260248201527f6f6e6c792061646d696e20616c6c6f7765640000000000000000000000000000604482015290519081900360640190fd5b600481905560405181907f774069781371d65424b3b0b101c1d40014532cac040f979595b99a3fcf8ce08c90600090a250565b7ff23a6e61000000000000000000000000000000000000000000000000000000009695505050505050565b7f0000000000000000000000000000000000000000000000000000000000000000421061160f576040805162461bcd60e51b815260206004820152600c60248201527f53414c455f49535f4f5645520000000000000000000000000000000000000000604482015290519081900360640190fd5b6001600160a01b03821633148061163557503360009081526002602052604090205460ff165b611686576040805162461bcd60e51b815260206004820152600e60248201527f4e4f545f415554484f52495a4544000000000000000000000000000000000000604482015290519081900360640190fd5b6001600160a01b03811615806116ad5750816001600160a01b0316816001600160a01b0316145b610f69576040805162461bcd60e51b815260206004820152600d60248201527f52455345525645445f4c414e4400000000000000000000000000000000000000604482015290519081900360640190fd5b600087878760008151811061170f57fe5b60200260200101518860018151811061172457fe5b60200260200101518960028151811061173957fe5b60200260200101518a60038151811061174e57fe5b60200260200101518a8a60405160200180828051906020019060200280838360005b83811015611788578181015183820152602001611770565b50505050905001915050604051602081830303815290604052805190602001208a60405160200180828051906020019060200280838360005b838110156117d95781810151838201526020016117c1565b5050505090500191505060405160208183030381529060405280519060200120604051602001808a6001600160a01b03166001600160a01b031660601b8152601401896001600160a01b03166001600160a01b031660601b81526014018881526020018781526020018681526020018581526020018481526020018381526020018281526020019950505050505050505050604051602081830303815290604052805190602001209050600760009054906101000a90046001600160a01b03166001600160a01b031663012847ed83836040518363ffffffff1660e01b81526004018080602001838152602001828103825284818151815260200191508051906020019080838360005b838110156118fb5781810151838201526020016118e3565b50505050905090810190601f1680156119285780820380516001836020036101000a031916815260200191505b50935050505060206040518083038186803b15801561194657600080fd5b505afa15801561195a573d6000803e3d6000fd5b505050506040513d602081101561197057600080fd5b50516119c3576040805162461bcd60e51b815260206004820152600c60248201527f494e56414c49445f415554480000000000000000000000000000000000000000604482015290519081900360640190fd5b6000611a24876000815181106119d557fe5b6020026020010151886001815181106119ea57fe5b6020026020010151896002815181106119ff57fe5b60200260200101518a600381518110611a1457fe5b60200260200101518c8b8b612337565b9050611a3084826123dc565b611226576040805162461bcd60e51b815260206004820152600c60248201527f494e56414c49445f4c414e440000000000000000000000000000000000000000604482015290519081900360640190fd5b6000611a8d84846124a5565b600654909150611acc908590839085906001600160a01b03167f000000000000000000000000000000000000000000000000000000000000000061253f565b50505050565b80600281518110611adf57fe5b602002602001015160011480611b1c57507f00000000000000000000000000000000000000000000000000000000000000006001600160a01b0316155b15611c1e577f00000000000000000000000000000000000000000000000000000000000000006001600160a01b0316636e1e3bbf8383600281518110611b5e57fe5b602002602001015184600081518110611b7357fe5b602002602001015185600181518110611b8857fe5b60200260200101516040518563ffffffff1660e01b815260040180856001600160a01b03166001600160a01b031681526020018481526020018381526020018281526020018060200182810382526000815260200160200195505050505050600060405180830381600087803b158015611c0157600080fd5b505af1158015611c15573d6000803e3d6000fd5b50505050611dbe565b7f00000000000000000000000000000000000000000000000000000000000000006001600160a01b0316636e1e3bbf7f000000000000000000000000000000000000000000000000000000000000000083600281518110611c7b57fe5b602002602001015184600081518110611c9057fe5b602002602001015185600181518110611ca557fe5b60200260200101518760405160200180826001600160a01b03166001600160a01b031681526020019150506040516020818303038152906040526040518663ffffffff1660e01b815260040180866001600160a01b03166001600160a01b0316815260200185815260200184815260200183815260200180602001828103825283818151815260200191508051906020019080838360005b83811015611d55578181015183820152602001611d3d565b50505050905090810190601f168015611d825780820380516001836020036101000a031916815260200191505b509650505050505050600060405180830381600087803b158015611da557600080fd5b505af1158015611db9573d6000803e3d6000fd5b505050505b61019881600181518110611dce57fe5b60200260200101510281600081518110611de457fe5b602002602001015101826001600160a01b0316846001600160a01b03167fe4dfa6ac11314892f3029b34a25b1a887da3b1cab2bbf8506d87128ba6e3ac0284600281518110611e2f57fe5b602002602001015185600381518110611e4457fe5b60200260200101517f000000000000000000000000000000000000000000000000000000000000000087600381518110611e7a57fe5b602002602001015160405180858152602001848152602001836001600160a01b03166001600160a01b0316815260200182815260200194505050505060405180910390a4505050565b6060815167ffffffffffffffff81118015611edd57600080fd5b50604051908082528060200260200182016040528015611f07578160200160208202803683370190505b50905060005b8251811015611f37576001828281518110611f2457fe5b6020908102919091010152600101611f0d565b507f00000000000000000000000000000000000000000000000000000000000000006001600160a01b0316632eb2c2d6308585856040518563ffffffff1660e01b815260040180856001600160a01b03166001600160a01b03168152602001846001600160a01b03166001600160a01b03168152602001806020018060200180602001848103845286818151815260200191508051906020019060200280838360005b83811015611ff2578181015183820152602001611fda565b50505050905001848103835285818151815260200191508051906020019060200280838360005b83811015612031578181015183820152602001612019565b50505050905001848103825260008152602001602001975050505050505050600060405180830381600087803b15801561206a57600080fd5b505af115801561207e573d6000803e3d6000fd5b50505050505050565b6001600160a01b0382166120cc5760405162461bcd60e51b8152600401808060200182810382526025815260200180612b6b6025913960400191505060405180910390fd5b6001600160a01b03821660008181526002602090815260409182902080547fffffffffffffffffffffffffffffffffffffffffffffffffffffffffffffff001685151590811790915582519384529083015280517fb21eb88b4e33b3f1281830a7178d74d8aa73220416215726b68ae23d539515cb9281900390910190a15050565b600081516041146121a6576040805162461bcd60e51b815260206004820152601f60248201527f45434453413a20696e76616c6964207369676e6174757265206c656e67746800604482015290519081900360640190fd5b60208201516040830151606084015160001a7f7fffffffffffffffffffffffffffffff5d576e7357a4501ddfe92f46681b20a08211156122175760405162461bcd60e51b8152600401808060200182810382526022815260200180612ae36022913960400191505060405180910390fd5b8060ff16601b1415801561222f57508060ff16601c14155b1561226b5760405162461bcd60e51b8152600401808060200182810382526022815260200180612b286022913960400191505060405180910390fd5b60408051600080825260208083018085528a905260ff85168385015260608301879052608083018690529251909260019260a080820193601f1981019281900390910190855afa1580156122c3573d6000803e3d6000fd5b5050604051601f1901519150506001600160a01b03811661232b576040805162461bcd60e51b815260206004820152601860248201527f45434453413a20696e76616c6964207369676e61747572650000000000000000604482015290519081900360640190fd5b93505050505b92915050565b60008787878787878760405160200180888152602001878152602001868152602001858152602001846001600160a01b03166001600160a01b031660601b8152601401838152602001828051906020019060200280838360005b838110156123a9578181015183820152602001612391565b50505050905001975050505050505050604051602081830303815290604052805190602001209050979650505050505050565b600081815b845181101561247b5760008582815181106123f857fe5b60200260200101519050808310156124405782816040516020018083815260200182815260200192505050604051602081830303815290604052805190602001209250612472565b808360405160200180838152602001828152602001925050506040516020818303038152906040528051906020012092505b506001016123e1565b507f0000000000000000000000000000000000000000000000000000000000000000149392505050565b6000806124ca60646124be85600563ffffffff61264716565b9063ffffffff6126a716565b90506125276001600160a01b037f000000000000000000000000000000000000000000000000000000000000000016857f00000000000000000000000000000000000000000000000000000000000000008463ffffffff6126e916565b612537838263ffffffff61277116565b949350505050565b8251819085901561262c57606060008060008061255b8a610d2e565b93985091965094509250905060006125768686868686611375565b15612604576125906125888d84612647565b6127106126a7565b9050886001600160a01b0316846001600160a01b0316866001600160a01b03167fac7a699eb95c3c6d390ec4626de17ef9a67b35891efdb197beba7c7fdd45fac48f858760405180848152602001838152602001828152602001935050505060405180910390a46126018782612771565b96505b8015612625576126256001600160a01b0389168e878463ffffffff6126e916565b5050505050505b61207e6001600160a01b03831688868463ffffffff6126e916565b60008261265657506000612331565b8282028284828161266357fe5b04146126a05760405162461bcd60e51b8152600401808060200182810382526021815260200180612b4a6021913960400191505060405180910390fd5b9392505050565b60006126a083836040518060400160405280601a81526020017f536166654d6174683a206469766973696f6e206279207a65726f0000000000008152506127b3565b604080516001600160a01b0380861660248301528416604482015260648082018490528251808303909101815260849091019091526020810180517bffffffffffffffffffffffffffffffffffffffffffffffffffffffff167f23b872dd00000000000000000000000000000000000000000000000000000000179052611acc908590612855565b60006126a083836040518060400160405280601e81526020017f536166654d6174683a207375627472616374696f6e206f766572666c6f77000081525061290b565b6000818361283f5760405162461bcd60e51b81526004018080602001828103825283818151815260200191508051906020019080838360005b838110156128045781810151838201526020016127ec565b50505050905090810190601f1680156128315780820380516001836020036101000a031916815260200191505b509250505060405180910390fd5b50600083858161284b57fe5b0495945050505050565b60606128aa826040518060400160405280602081526020017f5361666545524332303a206c6f772d6c6576656c2063616c6c206661696c6564815250856001600160a01b03166129659092919063ffffffff16565b805190915015612906578080602001905160208110156128c957600080fd5b50516129065760405162461bcd60e51b815260040180806020018281038252602a815260200180612b90602a913960400191505060405180910390fd5b505050565b6000818484111561295d5760405162461bcd60e51b81526020600482018181528351602484015283519092839260449091019190850190808383600083156128045781810151838201526020016127ec565b505050900390565b60606125378484600085606061297a85612adc565b6129cb576040805162461bcd60e51b815260206004820152601d60248201527f416464726573733a2063616c6c20746f206e6f6e2d636f6e7472616374000000604482015290519081900360640190fd5b60006060866001600160a01b031685876040518082805190602001908083835b60208310612a0a5780518252601f1990920191602091820191016129eb565b6001836020036101000a03801982511681845116808217855250505050505090500191505060006040518083038185875af1925050503d8060008114612a6c576040519150601f19603f3d011682016040523d82523d6000602084013e612a71565b606091505b50915091508115612a855791506125379050565b805115612a955780518082602001fd5b60405162461bcd60e51b81526020600482018181528651602484015286518793919283926044019190850190808383600083156128045781810151838201526020016127ec565b3b15159056fe45434453413a20696e76616c6964207369676e6174757265202773272076616c7565526566657272616c56616c696461746f723a2053656e646572206e6f742061646d696e45434453413a20696e76616c6964207369676e6174757265202776272076616c7565536166654d6174683a206d756c7469706c69636174696f6e206f766572666c6f774d6574615472616e73616374696f6e52656365697665723a207a65726f20616464726573735361666545524332303a204552433230206f7065726174696f6e20646964206e6f742073756363656564a264697066735822122077f2d13cbcb85fa08010a53c1e4ef27117b031e8c1c9273d55cef362af299f3164736f6c6343000605003345737461746553616c6557697468417574683a207a65726f20616464726573734d6574615472616e73616374696f6e52656365697665723a207a65726f206164647265737345737461746553616c6557697468417574683a206973206e6f74206120636f6e7472616374",
  "devdoc": {
    "methods": {
      "buyLandWithSand(address,address,address,uint256[],bytes32,uint256[],bytes32[],bytes,bytes)": {
        "params": {
          "assetIds": "asset ids (lands) that will be bought",
          "buyer": "address that perform the payment",
          "info": "[X_INDEX=0] x coordinate of the Land [Y_INDEX=1] y coordinate of the Land [SIZE_INDEX=2] size of the pack of Land to purchase [PRICE_INDEX=3] price in SAND to purchase that Land",
          "proof": "merkleProof for that particular Land",
          "referral": "referral id",
          "reserved": "the reserved address (if any)",
          "salt": "The salt submitted for verification.",
          "signature": "A signed message specifying tx details",
          "to": "address that will own the purchased Land"
        }
      },
      "changeAdmin(address)": {
        "details": "change the administrator to be `newAdmin`.",
        "params": {
          "newAdmin": "address of the new administrator."
        }
      },
      "disablePreviousSigningWallet(address)": {
        "details": "Disable compromised signing wallet",
        "params": {
          "disableWallet": "The wallet address to be disabled"
        }
      },
      "getAdmin()": {
        "details": "gives the current administrator of this contract.",
        "returns": {
          "_0": "the current administrator of this contract."
        }
      },
      "getSigningWallet()": {
        "details": "signing wallet authorized for referral",
        "returns": {
          "_0": "the address of the signing wallet"
        }
      },
      "isMetaTransactionProcessor(address)": {
        "details": "check whether address `who` is given meta-transaction execution rights.",
        "params": {
          "who": "The address to query."
        },
        "returns": {
          "_0": "whether the address has meta-transaction execution rights."
        }
      },
      "isReferralValid(bytes,address,address,uint256,uint256)": {
        "params": {
          "commissionRate": "The commissionRate of the referral",
          "expiryTime": "The expiry time of the referral",
          "referee": "The address of the referee",
          "referrer": "The address of the referrer",
          "signature": "The signature to check (signed referral)"
        },
        "returns": {
          "_0": "True if the referral is valid"
        }
      },
      "setMetaTransactionProcessor(address,bool)": {
        "details": "Enable or disable the ability of `metaTransactionProcessor` to perform meta-tx (metaTransactionProcessor rights).",
        "params": {
          "enabled": "set whether the metaTransactionProcessor is enabled or disabled.",
          "metaTransactionProcessor": "address that will be given/removed metaTransactionProcessor rights."
        }
      },
      "setReceivingWallet(address)": {
        "params": {
          "newWallet": "address of the new receiving wallet"
        }
      },
      "updateMaxCommissionRate(uint256)": {
        "details": "Update the maximum commission rate",
        "params": {
          "newMaxCommissionRate": "The new maximum commission rate"
        }
      },
      "updateSigningWallet(address)": {
        "details": "Update the signing wallet The previous wallet is still valid for a grace period (_previousSigningDelay). If you want to disable the previous wallet, use the disablePreviousSigningWallet function.",
        "params": {
          "newSigningWallet": "The new address of the signing wallet"
        }
      },
      "withdrawAssets(address,uint256[],uint256[])": {
        "params": {
          "assetIds": "the assetIds to be transferred",
          "to": "intended recipient of the asset tokens",
          "values": "the quantities of the assetIds to be transferred"
        }
      }
    },
    "title": "Estate Sale contract with referral"
  },
  "userdoc": {
    "methods": {
      "buyLandWithSand(address,address,address,uint256[],bytes32,uint256[],bytes32[],bytes,bytes)": {
        "notice": "buy Land with SAND using the merkle proof associated with it"
      },
      "getExpiryTime()": {
        "notice": "Gets the expiry time for the current sale"
      },
      "getMaxCommissionRate()": {
        "notice": "the max commission rate"
      },
      "getMerkleRoot()": {
        "notice": "Gets the Merkle root associated with the current sale"
      },
      "isReferralValid(bytes,address,address,uint256,uint256)": {
        "notice": "Check if a referral is valid"
      },
      "setReceivingWallet(address)": {
        "notice": "set the wallet receiving the proceeds"
      },
      "withdrawAssets(address,uint256[],uint256[])": {
        "notice": "enable Admin to withdraw remaining assets from EstateSaleWithFee contract"
      }
    },
    "notice": "This contract manages the sale of our lands as Estates"
  },
  "storageLayout": {
    "storage": [
      {
        "astId": 1129,
        "contract": "src/solc_0.6/EstateSale/EstateSaleWithAuth.sol:EstateSaleWithAuth",
        "label": "_status",
        "offset": 0,
        "slot": "0",
        "type": "t_uint256"
      },
      {
        "astId": 14099,
        "contract": "src/solc_0.6/EstateSale/EstateSaleWithAuth.sol:EstateSaleWithAuth",
        "label": "_admin",
        "offset": 0,
        "slot": "1",
        "type": "t_address"
      },
      {
        "astId": 14168,
        "contract": "src/solc_0.6/EstateSale/EstateSaleWithAuth.sol:EstateSaleWithAuth",
        "label": "_metaTransactionContracts",
        "offset": 0,
        "slot": "2",
        "type": "t_mapping(t_address,t_bool)"
      },
      {
        "astId": 12200,
        "contract": "src/solc_0.6/EstateSale/EstateSaleWithAuth.sol:EstateSaleWithAuth",
        "label": "_signingWallet",
        "offset": 0,
        "slot": "3",
        "type": "t_address"
      },
      {
        "astId": 12202,
        "contract": "src/solc_0.6/EstateSale/EstateSaleWithAuth.sol:EstateSaleWithAuth",
        "label": "_maxCommissionRate",
        "offset": 0,
        "slot": "4",
        "type": "t_uint256"
      },
      {
        "astId": 12206,
        "contract": "src/solc_0.6/EstateSale/EstateSaleWithAuth.sol:EstateSaleWithAuth",
        "label": "_previousSigningWallets",
        "offset": 0,
        "slot": "5",
        "type": "t_mapping(t_address,t_uint256)"
      },
      {
        "astId": 7750,
        "contract": "src/solc_0.6/EstateSale/EstateSaleWithAuth.sol:EstateSaleWithAuth",
        "label": "_wallet",
        "offset": 0,
        "slot": "6",
        "type": "t_address_payable"
      },
      {
        "astId": 7752,
        "contract": "src/solc_0.6/EstateSale/EstateSaleWithAuth.sol:EstateSaleWithAuth",
        "label": "_authValidator",
        "offset": 0,
        "slot": "7",
        "type": "t_contract(AuthValidator)7063"
      }
    ],
    "types": {
      "t_address": {
        "encoding": "inplace",
        "label": "address",
        "numberOfBytes": "20"
      },
      "t_address_payable": {
        "encoding": "inplace",
        "label": "address payable",
        "numberOfBytes": "20"
      },
      "t_bool": {
        "encoding": "inplace",
        "label": "bool",
        "numberOfBytes": "1"
      },
      "t_contract(AuthValidator)7063": {
        "encoding": "inplace",
        "label": "contract AuthValidator",
        "numberOfBytes": "20"
      },
      "t_mapping(t_address,t_bool)": {
        "encoding": "mapping",
        "key": "t_address",
        "label": "mapping(address => bool)",
        "numberOfBytes": "32",
        "value": "t_bool"
      },
      "t_mapping(t_address,t_uint256)": {
        "encoding": "mapping",
        "key": "t_address",
        "label": "mapping(address => uint256)",
        "numberOfBytes": "32",
        "value": "t_uint256"
      },
      "t_uint256": {
        "encoding": "inplace",
        "label": "uint256",
        "numberOfBytes": "32"
      }
    }
  }
}