{
  "address": "0x4409Fa9deBC1836EacEa74196DD01aA8708dC50D",
  "abi": [
    {
      "anonymous": false,
      "inputs": [
        {
          "indexed": true,
          "internalType": "address",
          "name": "previousOwner",
          "type": "address"
        },
        {
          "indexed": true,
          "internalType": "address",
          "name": "newOwner",
          "type": "address"
        }
      ],
      "name": "OwnershipTransferred",
      "type": "event"
    },
    {
      "anonymous": false,
      "inputs": [
        {
          "indexed": true,
          "internalType": "bytes32",
          "name": "role",
          "type": "bytes32"
        },
        {
          "indexed": true,
          "internalType": "bytes32",
          "name": "previousAdminRole",
          "type": "bytes32"
        },
        {
          "indexed": true,
          "internalType": "bytes32",
          "name": "newAdminRole",
          "type": "bytes32"
        }
      ],
      "name": "RoleAdminChanged",
      "type": "event"
    },
    {
      "anonymous": false,
      "inputs": [
        {
          "indexed": true,
          "internalType": "bytes32",
          "name": "role",
          "type": "bytes32"
        },
        {
          "indexed": true,
          "internalType": "address",
          "name": "account",
          "type": "address"
        },
        {
          "indexed": true,
          "internalType": "address",
          "name": "sender",
          "type": "address"
        }
      ],
      "name": "RoleGranted",
      "type": "event"
    },
    {
      "anonymous": false,
      "inputs": [
        {
          "indexed": true,
          "internalType": "bytes32",
          "name": "role",
          "type": "bytes32"
        },
        {
          "indexed": true,
          "internalType": "address",
          "name": "account",
          "type": "address"
        },
        {
          "indexed": true,
          "internalType": "address",
          "name": "sender",
          "type": "address"
        }
      ],
      "name": "RoleRevoked",
      "type": "event"
    },
    {
      "anonymous": false,
      "inputs": [
        {
          "indexed": true,
          "internalType": "address",
          "name": "newTrustedForwarderAddress",
          "type": "address"
        }
      ],
      "name": "TrustedForwarderChanged",
      "type": "event"
    },
    {
      "inputs": [],
      "name": "DEFAULT_ADMIN_ROLE",
      "outputs": [
        {
          "internalType": "bytes32",
          "name": "",
          "type": "bytes32"
        }
      ],
      "stateMutability": "view",
      "type": "function"
    },
    {
      "inputs": [],
      "name": "SUPER_OPERATOR_ROLE",
      "outputs": [
        {
          "internalType": "bytes32",
          "name": "",
          "type": "bytes32"
        }
      ],
      "stateMutability": "view",
      "type": "function"
    },
    {
      "inputs": [
        {
          "internalType": "contract IGem[]",
          "name": "gems",
          "type": "address[]"
        },
        {
          "internalType": "contract ICatalyst[]",
          "name": "catalysts",
          "type": "address[]"
        }
      ],
      "name": "addGemsAndCatalysts",
      "outputs": [],
      "stateMutability": "nonpayable",
      "type": "function"
    },
    {
      "inputs": [
        {
          "internalType": "address",
          "name": "from",
          "type": "address"
        },
        {
          "internalType": "uint16[]",
          "name": "catalystIds",
          "type": "uint16[]"
        },
        {
          "internalType": "uint256[]",
          "name": "amounts",
          "type": "uint256[]"
        }
      ],
      "name": "batchBurnCatalysts",
      "outputs": [],
      "stateMutability": "nonpayable",
      "type": "function"
    },
    {
      "inputs": [
        {
          "internalType": "address",
          "name": "from",
          "type": "address"
        },
        {
          "internalType": "uint16[]",
          "name": "gemIds",
          "type": "uint16[]"
        },
        {
          "internalType": "uint256[]",
          "name": "amounts",
          "type": "uint256[]"
        }
      ],
      "name": "batchBurnGems",
      "outputs": [],
      "stateMutability": "nonpayable",
      "type": "function"
    },
    {
      "inputs": [
        {
          "internalType": "address",
          "name": "from",
          "type": "address"
        },
        {
          "internalType": "uint16",
          "name": "catalystId",
          "type": "uint16"
        },
        {
          "internalType": "uint256",
          "name": "amount",
          "type": "uint256"
        }
      ],
      "name": "burnCatalyst",
      "outputs": [],
      "stateMutability": "nonpayable",
      "type": "function"
    },
    {
      "inputs": [
        {
          "internalType": "address",
          "name": "from",
          "type": "address"
        },
        {
          "internalType": "uint16[]",
          "name": "catalystIds",
          "type": "uint16[]"
        },
        {
          "internalType": "uint256[]",
          "name": "amounts",
          "type": "uint256[]"
        }
      ],
      "name": "burnDifferentCatalysts",
      "outputs": [],
      "stateMutability": "nonpayable",
      "type": "function"
    },
    {
      "inputs": [
        {
          "internalType": "address",
          "name": "from",
          "type": "address"
        },
        {
          "internalType": "uint16[]",
          "name": "gemIds",
          "type": "uint16[]"
        },
        {
          "internalType": "uint256[]",
          "name": "amounts",
          "type": "uint256[]"
        }
      ],
      "name": "burnDifferentGems",
      "outputs": [],
      "stateMutability": "nonpayable",
      "type": "function"
    },
    {
      "inputs": [
        {
          "internalType": "address",
          "name": "from",
          "type": "address"
        },
        {
          "internalType": "uint16",
          "name": "gemId",
          "type": "uint16"
        },
        {
          "internalType": "uint256",
          "name": "amount",
          "type": "uint256"
        }
      ],
      "name": "burnGem",
      "outputs": [],
      "stateMutability": "nonpayable",
      "type": "function"
    },
    {
      "inputs": [
        {
          "internalType": "uint16",
          "name": "catalystId",
          "type": "uint16"
        }
      ],
      "name": "doesCatalystExist",
      "outputs": [
        {
          "internalType": "bool",
          "name": "",
          "type": "bool"
        }
      ],
      "stateMutability": "view",
      "type": "function"
    },
    {
      "inputs": [
        {
          "internalType": "uint16",
          "name": "gemId",
          "type": "uint16"
        }
      ],
      "name": "doesGemExist",
      "outputs": [
        {
          "internalType": "bool",
          "name": "",
          "type": "bool"
        }
      ],
      "stateMutability": "view",
      "type": "function"
    },
    {
      "inputs": [
        {
          "internalType": "uint16",
          "name": "catalystId",
          "type": "uint16"
        },
        {
          "internalType": "uint256",
          "name": "assetId",
          "type": "uint256"
        },
        {
          "components": [
            {
              "internalType": "uint16[]",
              "name": "gemIds",
              "type": "uint16[]"
            },
            {
              "internalType": "bytes32",
              "name": "blockHash",
              "type": "bytes32"
            }
          ],
          "internalType": "struct IAssetAttributesRegistry.GemEvent[]",
          "name": "events",
          "type": "tuple[]"
        }
      ],
      "name": "getAttributes",
      "outputs": [
        {
          "internalType": "uint32[]",
          "name": "values",
          "type": "uint32[]"
        }
      ],
      "stateMutability": "view",
      "type": "function"
    },
    {
      "inputs": [
        {
          "internalType": "uint16",
          "name": "catalystId",
          "type": "uint16"
        }
      ],
      "name": "getCatalyst",
      "outputs": [
        {
          "internalType": "contract ICatalyst",
          "name": "",
          "type": "address"
        }
      ],
      "stateMutability": "view",
      "type": "function"
    },
    {
      "inputs": [
        {
          "internalType": "uint16",
          "name": "catalystId",
          "type": "uint16"
        }
      ],
      "name": "getCatalystDecimals",
      "outputs": [
        {
          "internalType": "uint8",
          "name": "",
          "type": "uint8"
        }
      ],
      "stateMutability": "view",
      "type": "function"
    },
    {
      "inputs": [
        {
          "internalType": "uint16",
          "name": "gemId",
          "type": "uint16"
        }
      ],
      "name": "getGem",
      "outputs": [
        {
          "internalType": "contract IGem",
          "name": "",
          "type": "address"
        }
      ],
      "stateMutability": "view",
      "type": "function"
    },
    {
      "inputs": [
        {
          "internalType": "uint16",
          "name": "gemId",
          "type": "uint16"
        }
      ],
      "name": "getGemDecimals",
      "outputs": [
        {
          "internalType": "uint8",
          "name": "",
          "type": "uint8"
        }
      ],
      "stateMutability": "view",
      "type": "function"
    },
    {
      "inputs": [
        {
          "internalType": "uint16",
          "name": "catalystId",
          "type": "uint16"
        }
      ],
      "name": "getMaxGems",
      "outputs": [
        {
          "internalType": "uint8",
          "name": "",
          "type": "uint8"
        }
      ],
      "stateMutability": "view",
      "type": "function"
    },
    {
      "inputs": [],
      "name": "getNumberOfCatalystContracts",
      "outputs": [
        {
          "internalType": "uint256",
          "name": "number",
          "type": "uint256"
        }
      ],
      "stateMutability": "view",
      "type": "function"
    },
    {
      "inputs": [],
      "name": "getNumberOfGemContracts",
      "outputs": [
        {
          "internalType": "uint256",
          "name": "number",
          "type": "uint256"
        }
      ],
      "stateMutability": "view",
      "type": "function"
    },
    {
      "inputs": [
        {
          "internalType": "bytes32",
          "name": "role",
          "type": "bytes32"
        }
      ],
      "name": "getRoleAdmin",
      "outputs": [
        {
          "internalType": "bytes32",
          "name": "",
          "type": "bytes32"
        }
      ],
      "stateMutability": "view",
      "type": "function"
    },
    {
      "inputs": [],
      "name": "getTrustedForwarder",
      "outputs": [
        {
          "internalType": "address",
          "name": "trustedForwarder",
          "type": "address"
        }
      ],
      "stateMutability": "view",
      "type": "function"
    },
    {
      "inputs": [
        {
          "internalType": "bytes32",
          "name": "role",
          "type": "bytes32"
        },
        {
          "internalType": "address",
          "name": "account",
          "type": "address"
        }
      ],
      "name": "grantRole",
      "outputs": [],
      "stateMutability": "nonpayable",
      "type": "function"
    },
    {
      "inputs": [
        {
          "internalType": "bytes32",
          "name": "role",
          "type": "bytes32"
        },
        {
          "internalType": "address",
          "name": "account",
          "type": "address"
        }
      ],
      "name": "hasRole",
      "outputs": [
        {
          "internalType": "bool",
          "name": "",
          "type": "bool"
        }
      ],
      "stateMutability": "view",
      "type": "function"
    },
    {
      "inputs": [
        {
          "internalType": "address",
          "name": "trustedForwarder",
          "type": "address"
        },
        {
          "internalType": "address",
          "name": "admin",
          "type": "address"
        }
      ],
      "name": "initV1",
      "outputs": [],
      "stateMutability": "nonpayable",
      "type": "function"
    },
    {
      "inputs": [
        {
          "internalType": "address",
          "name": "forwarder",
          "type": "address"
        }
      ],
      "name": "isTrustedForwarder",
      "outputs": [
        {
          "internalType": "bool",
          "name": "",
          "type": "bool"
        }
      ],
      "stateMutability": "view",
      "type": "function"
    },
    {
      "inputs": [],
      "name": "owner",
      "outputs": [
        {
          "internalType": "address",
          "name": "",
          "type": "address"
        }
      ],
      "stateMutability": "view",
      "type": "function"
    },
    {
      "inputs": [],
      "name": "renounceOwnership",
      "outputs": [],
      "stateMutability": "nonpayable",
      "type": "function"
    },
    {
      "inputs": [
        {
          "internalType": "bytes32",
          "name": "role",
          "type": "bytes32"
        },
        {
          "internalType": "address",
          "name": "account",
          "type": "address"
        }
      ],
      "name": "renounceRole",
      "outputs": [],
      "stateMutability": "nonpayable",
      "type": "function"
    },
    {
      "inputs": [],
      "name": "revokeGemsandCatalystsMaxAllowance",
      "outputs": [],
      "stateMutability": "nonpayable",
      "type": "function"
    },
    {
      "inputs": [
        {
          "internalType": "bytes32",
          "name": "role",
          "type": "bytes32"
        },
        {
          "internalType": "address",
          "name": "account",
          "type": "address"
        }
      ],
      "name": "revokeRole",
      "outputs": [],
      "stateMutability": "nonpayable",
      "type": "function"
    },
    {
      "inputs": [],
      "name": "setGemsAndCatalystsMaxAllowance",
      "outputs": [],
      "stateMutability": "nonpayable",
      "type": "function"
    },
    {
      "inputs": [
        {
          "internalType": "address",
          "name": "trustedForwarder",
          "type": "address"
        }
      ],
      "name": "setTrustedForwarder",
      "outputs": [],
      "stateMutability": "nonpayable",
      "type": "function"
    },
    {
      "inputs": [
        {
          "internalType": "bytes4",
          "name": "interfaceId",
          "type": "bytes4"
        }
      ],
      "name": "supportsInterface",
      "outputs": [
        {
          "internalType": "bool",
          "name": "",
          "type": "bool"
        }
      ],
      "stateMutability": "view",
      "type": "function"
    },
    {
      "inputs": [
        {
          "internalType": "address",
          "name": "newOwner",
          "type": "address"
        }
      ],
      "name": "transferOwnership",
      "outputs": [],
      "stateMutability": "nonpayable",
      "type": "function"
    }
  ],
  "transactionHash": "0x81e298d5c9704386a7dacbb3ca6ce66161094d011edb1a7f41e4137ba64fd0ad",
  "args": [],
  "numDeployments": 1,
  "solcInputHash": "65e08b938528b163bea66d16d1e23da8",
  "bytecode": "0x608060405234801561001057600080fd5b506128f0806100206000396000f3fe608060405234801561001057600080fd5b50600436106102265760003560e01c806378bc8a191161012a578063c0569758116100bd578063da7422281161008c578063e8a0806611610071578063e8a08066146104de578063f2fde38b146104f1578063f96080a61461050457610226565b8063da742228146104b8578063e1946192146104cb57610226565b8063c05697581461046e578063ce1b815f14610481578063d0807d3114610492578063d547741f146104a557610226565b806391d14854116100f957806391d1485414610412578063a217fddf1461044b578063aeb845d114610453578063aff5d1fa1461045b57610226565b806378bc8a19146103bd5780637e8ee42f146103e25780638c4d91ed146104025780638da5cb5b1461040a57610226565b8063362e7e8c116101bd578063572b6c051161018c578063645c5f9e11610171578063645c5f9e14610382578063715018a61461038a578063786325dd1461039257610226565b8063572b6c051461034d578063590d0dce1461036f57610226565b8063362e7e8c1461030157806336568abe1461031457806352eea03014610327578063550d629c1461033a57610226565b8063248a9ca3116101f9578063248a9ca3146102a55780632a6a6451146102c85780632d0f97e7146102db5780632f2ff15d146102ee57610226565b806301ffc9a71461022b578063141376f9146102535780631818965314610266578063184dfff514610270575b600080fd5b61023e610239366004612478565b610517565b60405190151581526020015b60405180910390f35b61023e6102613660046124b8565b6105b2565b61026e6105cf565b005b6102977fe43cbdacb5a27491c5b15dcd2ddf377fcc3cf337bd999d6a7acb8c882b5554cb81565b60405190815260200161024a565b6102976102b336600461243c565b60009081526097602052604090206001015490565b61026e6102d63660046122ad565b6105dc565b61026e6102e936600461222d565b610761565b61026e6102fc366004612454565b610862565b61026e61030f36600461222d565b610894565b61026e610322366004612454565b6109be565b61026e61033536600461222d565b610a5a565b61026e6103483660046122ed565b610bc5565b61023e61035b3660046121d9565b6000546001600160a01b0390811691161490565b61026e61037d3660046122ad565b610f92565b60ca54610297565b61026e611090565b6103a56103a03660046124b8565b611109565b6040516001600160a01b03909116815260200161024a565b6103d06103cb3660046124b8565b61117c565b60405160ff909116815260200161024a565b6103f56103f03660046124f0565b611258565b60405161024a91906125e0565b60c954610297565b6103a5611364565b61023e610420366004612454565b60009182526097602090815260408084206001600160a01b0393909316845291905290205460ff1690565b610297600081565b61026e611374565b6103d06104693660046124b8565b61137e565b61023e61047c3660046124b8565b61141b565b6000546001600160a01b03166103a5565b61026e6104a03660046121f5565b611427565b61026e6104b3366004612454565b6115be565b61026e6104c63660046121d9565b6115e6565b61026e6104d936600461222d565b6116aa565b6103a56104ec3660046124b8565b611761565b61026e6104ff3660046121d9565b61178e565b6103d06105123660046124b8565b611885565b60007fffffffff0000000000000000000000000000000000000000000000000000000082167f7965db0b0000000000000000000000000000000000000000000000000000000014806105aa57507f01ffc9a7000000000000000000000000000000000000000000000000000000007fffffffff000000000000000000000000000000000000000000000000000000008316145b90505b919050565b6000806105be83611109565b6001600160a01b0316141592915050565b6105da6000196118e9565b565b82806001600160a01b03166105ef611aec565b6001600160a01b0316148061062b575061062b7fe43cbdacb5a27491c5b15dcd2ddf377fcc3cf337bd999d6a7acb8c882b5554cb610420611aec565b61067c5760405162461bcd60e51b815260206004820152601260248201527f415554485f4143434553535f44454e494544000000000000000000000000000060448201526064015b60405180910390fd5b600061068784611761565b90506001600160a01b0381166106df5760405162461bcd60e51b815260206004820152601760248201527f434154414c5953545f444f45535f4e4f545f45584953540000000000000000006044820152606401610673565b6040517f1dd319cb0000000000000000000000000000000000000000000000000000000081526001600160a01b03868116600483015260248201859052821690631dd319cb90604401600060405180830381600087803b15801561074257600080fd5b505af1158015610756573d6000803e3d6000fd5b505050505050505050565b828181146107d75760405162461bcd60e51b815260206004820152603a60248201527f47656d73436174616c7973747352656769737472793a2067656d73496473206160448201527f6e6420616d6f756e7473206c656e677468206d69736d617463680000000000006064820152608401610673565b60005b81811015610859576108478787878481811061080657634e487b7160e01b600052603260045260246000fd5b905060200201602081019061081b91906124b8565b86868581811061083b57634e487b7160e01b600052603260045260246000fd5b90506020020135610f92565b806108518161284e565b9150506107da565b50505050505050565b60008281526097602052604090206001015461088581610880611aec565b611afb565b61088f8383611b7b565b505050565b8281811461090a5760405162461bcd60e51b815260206004820152603a60248201527f47656d73436174616c7973747352656769737472793a2067656d73496473206160448201527f6e6420616d6f756e7473206c656e677468206d69736d617463680000000000006064820152608401610673565b60005b818110156108595785858281811061093557634e487b7160e01b600052603260045260246000fd5b905060200201602081019061094a91906124b8565b61ffff1615801590610983575083838281811061097757634e487b7160e01b600052603260045260246000fd5b90506020020135600014155b156109ac576109ac8787878481811061080657634e487b7160e01b600052603260045260246000fd5b806109b68161284e565b91505061090d565b6109c6611aec565b6001600160a01b0316816001600160a01b031614610a4c5760405162461bcd60e51b815260206004820152602f60248201527f416363657373436f6e74726f6c3a2063616e206f6e6c792072656e6f756e636560448201527f20726f6c657320666f722073656c6600000000000000000000000000000000006064820152608401610673565b610a568282611c1e565b5050565b82818114610ad05760405162461bcd60e51b815260206004820152603e60248201527f47656d73436174616c7973747352656769737472793a20636174616c7973744960448201527f647320616e6420616d6f756e7473206c656e677468206d69736d6174636800006064820152608401610673565b60005b8181101561085957858582818110610afb57634e487b7160e01b600052603260045260246000fd5b9050602002016020810190610b1091906124b8565b61ffff1615801590610b495750838382818110610b3d57634e487b7160e01b600052603260045260246000fd5b90506020020135600014155b15610bb357610bb387878784818110610b7257634e487b7160e01b600052603260045260246000fd5b9050602002016020810190610b8791906124b8565b868685818110610ba757634e487b7160e01b600052603260045260246000fd5b905060200201356105dc565b80610bbd8161284e565b915050610ad3565b6000610bd381610880611aec565b60ca5460c9546101009184918791610bea916127ad565b610bf491906127ad565b610bfe91906127ad565b10610c715760405162461bcd60e51b815260206004820152603a60248201527f47656d73436174616c7973747352656769737472793a20546f6f206d616e792060448201527f67656d20616e6420636174616c79737420636f6e7472616374730000000000006064820152608401610673565b60005b84811015610dfd576000868683818110610c9e57634e487b7160e01b600052603260045260246000fd5b9050602002016020810190610cb391906121d9565b90506000816001600160a01b031663caafdcff6040518163ffffffff1660e01b8152600401602060405180830381600087803b158015610cf257600080fd5b505af1158015610d06573d6000803e3d6000fd5b505050506040513d601f19601f82011682018060405250810190610d2a91906124d4565b60c954909150610d3b9060016127ad565b8161ffff1614610d8d5760405162461bcd60e51b815260206004820152601360248201527f47454d5f49445f4e4f545f494e5f4f52444552000000000000000000000000006044820152606401610673565b5060c980546001810182556000919091527f66be4f155c5ef2ebd3772b228f2f00681e4ed5826cdb3b1943cc11ad15ad1d2801805473ffffffffffffffffffffffffffffffffffffffff19166001600160a01b039290921691909117905580610df58161284e565b915050610c74565b5060005b82811015610f8a576000848483818110610e2b57634e487b7160e01b600052603260045260246000fd5b9050602002016020810190610e4091906121d9565b90506000816001600160a01b031663c7165bbb6040518163ffffffff1660e01b8152600401602060405180830381600087803b158015610e7f57600080fd5b505af1158015610e93573d6000803e3d6000fd5b505050506040513d601f19601f82011682018060405250810190610eb791906124d4565b60ca54909150610ec89060016127ad565b8161ffff1614610f1a5760405162461bcd60e51b815260206004820152601860248201527f434154414c5953545f49445f4e4f545f494e5f4f5244455200000000000000006044820152606401610673565b5060ca80546001810182556000919091527f42d72674974f694b5f5159593243114d38a5c39c89d6b62fee061ff523240ee101805473ffffffffffffffffffffffffffffffffffffffff19166001600160a01b039290921691909117905580610f828161284e565b915050610e01565b505050505050565b82806001600160a01b0316610fa5611aec565b6001600160a01b03161480610fe15750610fe17fe43cbdacb5a27491c5b15dcd2ddf377fcc3cf337bd999d6a7acb8c882b5554cb610420611aec565b61102d5760405162461bcd60e51b815260206004820152601260248201527f415554485f4143434553535f44454e49454400000000000000000000000000006044820152606401610673565b600061103884611109565b90506001600160a01b0381166106df5760405162461bcd60e51b815260206004820152601260248201527f47454d5f444f45535f4e4f545f455849535400000000000000000000000000006044820152606401610673565b611098611aec565b6001600160a01b03166110a9611364565b6001600160a01b0316146110ff5760405162461bcd60e51b815260206004820181905260248201527f4f776e61626c653a2063616c6c6572206973206e6f7420746865206f776e65726044820152606401610673565b6105da6000611cbf565b6000808261ffff16118015611124575060c95461ffff831611155b156111745760c96111366001846127e4565b61ffff168154811061115857634e487b7160e01b600052603260045260246000fd5b6000918252602090912001546001600160a01b031690506105ad565b5060006105ad565b60008061118883611761565b90506001600160a01b0381166111e05760405162461bcd60e51b815260206004820152601760248201527f434154414c5953545f444f45535f4e4f545f45584953540000000000000000006044820152606401610673565b806001600160a01b03166309cba36b6040518163ffffffff1660e01b815260040160206040518083038186803b15801561121957600080fd5b505afa15801561122d573d6000803e3d6000fd5b505050506040513d601f19601f82011682018060405250810190611251919061253e565b9392505050565b6060600061126586611761565b90506001600160a01b0381166112bd5760405162461bcd60e51b815260206004820152601760248201527f434154414c5953545f444f45535f4e4f545f45584953540000000000000000006044820152606401610673565b6040517f74903c860000000000000000000000000000000000000000000000000000000081526001600160a01b038216906374903c86906113069088908890889060040161265d565b60006040518083038186803b15801561131e57600080fd5b505afa158015611332573d6000803e3d6000fd5b505050506040513d6000823e601f3d908101601f1916820160405261135a9190810190612356565b9695505050505050565b6033546001600160a01b03165b90565b6105da60006118e9565b60008061138a83611761565b90506001600160a01b0381166113e25760405162461bcd60e51b815260206004820152601760248201527f434154414c5953545f444f45535f4e4f545f45584953540000000000000000006044820152606401610673565b806001600160a01b031663f0141d846040518163ffffffff1660e01b815260040160206040518083038186803b15801561121957600080fd5b6000806105be83611761565b600054600160a81b900460ff1661145c5760005474010000000000000000000000000000000000000000900460ff1615611460565b303b155b6114d25760405162461bcd60e51b815260206004820152602e60248201527f496e697469616c697a61626c653a20636f6e747261637420697320616c72656160448201527f647920696e697469616c697a65640000000000000000000000000000000000006064820152608401610673565b600054600160a81b900460ff1615801561155057600080547fffffffffffffffffffffff00ffffffffffffffffffffffffffffffffffffffff7fffffffffffffffffffff00ffffffffffffffffffffffffffffffffffffffffff909116600160a81b1716740100000000000000000000000000000000000000001790555b61155b600083611d1e565b6000805473ffffffffffffffffffffffffffffffffffffffff19166001600160a01b03851617905561158b611d28565b801561088f57600080547fffffffffffffffffffff00ffffffffffffffffffffffffffffffffffffffffff169055505050565b6000828152609760205260409020600101546115dc81610880611aec565b61088f8383611c1e565b6115ee611aec565b6001600160a01b03166115ff611364565b6001600160a01b0316146116555760405162461bcd60e51b815260206004820181905260248201527f4f776e61626c653a2063616c6c6572206973206e6f7420746865206f776e65726044820152606401610673565b6000805473ffffffffffffffffffffffffffffffffffffffff19166001600160a01b038316908117825560405190917f871264f4293af7d2865ae7eae628b228f4991c57cb45b39c99f0b774ebe2901891a250565b828181146117205760405162461bcd60e51b815260206004820152603e60248201527f47656d73436174616c7973747352656769737472793a20636174616c7973744960448201527f647320616e6420616d6f756e7473206c656e677468206d69736d6174636800006064820152608401610673565b60005b818110156108595761174f87878784818110610b7257634e487b7160e01b600052603260045260246000fd5b806117598161284e565b915050611723565b6000808261ffff1611801561177c575060ca5461ffff831611155b156111745760ca6111366001846127e4565b611796611aec565b6001600160a01b03166117a7611364565b6001600160a01b0316146117fd5760405162461bcd60e51b815260206004820181905260248201527f4f776e61626c653a2063616c6c6572206973206e6f7420746865206f776e65726044820152606401610673565b6001600160a01b0381166118795760405162461bcd60e51b815260206004820152602660248201527f4f776e61626c653a206e6577206f776e657220697320746865207a65726f206160448201527f64647265737300000000000000000000000000000000000000000000000000006064820152608401610673565b61188281611cbf565b50565b60008061189183611109565b90506001600160a01b0381166113e25760405162461bcd60e51b815260206004820152601260248201527f47454d5f444f45535f4e4f545f455849535400000000000000000000000000006044820152606401610673565b60005b60c9548110156119ea5760c9818154811061191757634e487b7160e01b600052603260045260246000fd5b6000918252602090912001546001600160a01b0316632b991746611939611aec565b6040517fffffffff0000000000000000000000000000000000000000000000000000000060e084901b1681526001600160a01b03909116600482015230602482015260448101859052606401602060405180830381600087803b15801561199f57600080fd5b505af11580156119b3573d6000803e3d6000fd5b505050506040513d601f19601f820116820180604052508101906119d7919061241c565b50806119e28161284e565b9150506118ec565b5060005b60ca54811015610a565760ca8181548110611a1957634e487b7160e01b600052603260045260246000fd5b6000918252602090912001546001600160a01b0316632b991746611a3b611aec565b6040517fffffffff0000000000000000000000000000000000000000000000000000000060e084901b1681526001600160a01b03909116600482015230602482015260448101859052606401602060405180830381600087803b158015611aa157600080fd5b505af1158015611ab5573d6000803e3d6000fd5b505050506040513d601f19601f82011682018060405250810190611ad9919061241c565b5080611ae48161284e565b9150506119ee565b6000611af6611db7565b905090565b60008281526097602090815260408083206001600160a01b038516845290915290205460ff16610a5657611b39816001600160a01b03166014611dff565b611b44836020611dff565b604051602001611b5592919061255f565b60408051601f198184030181529082905262461bcd60e51b82526106739160040161262a565b60008281526097602090815260408083206001600160a01b038516845290915290205460ff16610a565760008281526097602090815260408083206001600160a01b03851684529091529020805460ff19166001179055611bda611aec565b6001600160a01b0316816001600160a01b0316837f2f8788117e7eff1d82e926ec794901d17c78024a50270940304540a733656f0d60405160405180910390a45050565b60008281526097602090815260408083206001600160a01b038516845290915290205460ff1615610a565760008281526097602090815260408083206001600160a01b03851684529091529020805460ff19169055611c7b611aec565b6001600160a01b0316816001600160a01b0316837ff6391f5c32d9c69d2a47ea670b442974b53935d1edc7fd64eb21e047a839171b60405160405180910390a45050565b603380546001600160a01b0383811673ffffffffffffffffffffffffffffffffffffffff19831681179093556040519116919082907f8be0079c531659141344cd1fd0a4f28419497f9722a3daafe3b4186f6b6457e090600090a35050565b610a568282611b7b565b600054600160a81b900460ff16611da75760405162461bcd60e51b815260206004820152602b60248201527f496e697469616c697a61626c653a20636f6e7472616374206973206e6f74206960448201527f6e697469616c697a696e670000000000000000000000000000000000000000006064820152608401610673565b611daf61206e565b6105da6120ed565b600080546001600160a01b0316331415611df857507fffffffffffffffffffffffffffffffffffffffffffffffffffffffffffffffec36013560601c611371565b5033611371565b60606000611e0e8360026127c5565b611e199060026127ad565b67ffffffffffffffff811115611e3f57634e487b7160e01b600052604160045260246000fd5b6040519080825280601f01601f191660200182016040528015611e69576020820181803683370190505b5090507f300000000000000000000000000000000000000000000000000000000000000081600081518110611eae57634e487b7160e01b600052603260045260246000fd5b60200101907effffffffffffffffffffffffffffffffffffffffffffffffffffffffffffff1916908160001a9053507f780000000000000000000000000000000000000000000000000000000000000081600181518110611f1f57634e487b7160e01b600052603260045260246000fd5b60200101907effffffffffffffffffffffffffffffffffffffffffffffffffffffffffffff1916908160001a9053506000611f5b8460026127c5565b611f669060016127ad565b90505b600181111561201f577f303132333435363738396162636465660000000000000000000000000000000085600f1660108110611fb557634e487b7160e01b600052603260045260246000fd5b1a60f81b828281518110611fd957634e487b7160e01b600052603260045260246000fd5b60200101907effffffffffffffffffffffffffffffffffffffffffffffffffffffffffffff1916908160001a90535060049490941c9361201881612837565b9050611f69565b5083156112515760405162461bcd60e51b815260206004820181905260248201527f537472696e67733a20686578206c656e67746820696e73756666696369656e746044820152606401610673565b600054600160a81b900460ff166105da5760405162461bcd60e51b815260206004820152602b60248201527f496e697469616c697a61626c653a20636f6e7472616374206973206e6f74206960448201527f6e697469616c697a696e670000000000000000000000000000000000000000006064820152608401610673565b600054600160a81b900460ff1661216c5760405162461bcd60e51b815260206004820152602b60248201527f496e697469616c697a61626c653a20636f6e7472616374206973206e6f74206960448201527f6e697469616c697a696e670000000000000000000000000000000000000000006064820152608401610673565b6105da612177611aec565b611cbf565b60008083601f84011261218d578081fd5b50813567ffffffffffffffff8111156121a4578182fd5b60208301915083602080830285010111156121be57600080fd5b9250929050565b805163ffffffff811681146105ad57600080fd5b6000602082840312156121ea578081fd5b813561125181612895565b60008060408385031215612207578081fd5b823561221281612895565b9150602083013561222281612895565b809150509250929050565b600080600080600060608688031215612244578081fd5b853561224f81612895565b9450602086013567ffffffffffffffff8082111561226b578283fd5b61227789838a0161217c565b9096509450604088013591508082111561228f578283fd5b5061229c8882890161217c565b969995985093965092949392505050565b6000806000606084860312156122c1578283fd5b83356122cc81612895565b925060208401356122dc816128aa565b929592945050506040919091013590565b60008060008060408587031215612302578384fd5b843567ffffffffffffffff80821115612319578586fd5b6123258883890161217c565b9096509450602087013591508082111561233d578384fd5b5061234a8782880161217c565b95989497509550505050565b60006020808385031215612368578182fd5b825167ffffffffffffffff8082111561237f578384fd5b818501915085601f830112612392578384fd5b8151818111156123a4576123a461287f565b838102604051601f19603f830116810181811085821117156123c8576123c861287f565b604052828152858101935084860182860187018a10156123e6578788fd5b8795505b8386101561240f576123fb816121c5565b8552600195909501949386019386016123ea565b5098975050505050505050565b60006020828403121561242d578081fd5b81518015158114611251578182fd5b60006020828403121561244d578081fd5b5035919050565b60008060408385031215612466578081fd5b82359150602083013561222281612895565b600060208284031215612489578081fd5b81357fffffffff0000000000000000000000000000000000000000000000000000000081168114611251578182fd5b6000602082840312156124c9578081fd5b8135611251816128aa565b6000602082840312156124e5578081fd5b8151611251816128aa565b60008060008060608587031215612505578182fd5b8435612510816128aa565b935060208501359250604085013567ffffffffffffffff811115612532578283fd5b61234a8782880161217c565b60006020828403121561254f578081fd5b815160ff81168114611251578182fd5b60007f416363657373436f6e74726f6c3a206163636f756e742000000000000000000082528351612597816017850160208801612807565b7f206973206d697373696e6720726f6c652000000000000000000000000000000060179184019182015283516125d4816028840160208801612807565b01602801949350505050565b6020808252825182820181905260009190848201906040850190845b8181101561261e57835163ffffffff16835292840192918401916001016125fc565b50909695505050505050565b6000602082528251806020840152612649816040850160208701612807565b601f01601f19169190910160400192915050565b83815260406020808301829052828201849052600091906060908185018682028601830188865b8981101561279d577fffffffffffffffffffffffffffffffffffffffffffffffffffffffffffffffa089840301845281357fffffffffffffffffffffffffffffffffffffffffffffffffffffffffffffffc18c36030181126126e4578889fd5b8b018388018135368390037fffffffffffffffffffffffffffffffffffffffffffffffffffffffffffffffe101811261271b578a8bfd5b8201803567ffffffffffffffff811115612733578b8cfd5b8881023603841315612743578b8cfd5b8a8752918290528701908a908987015b8183101561277e578335612766816128aa565b61ffff16815292890192600192909201918901612753565b9389013596890196909652505093850193925090840190600101612684565b50909a9950505050505050505050565b600082198211156127c0576127c0612869565b500190565b60008160001904831182151516156127df576127df612869565b500290565b600061ffff838116908316818110156127ff576127ff612869565b039392505050565b60005b8381101561282257818101518382015260200161280a565b83811115612831576000848401525b50505050565b60008161284657612846612869565b506000190190565b600060001982141561286257612862612869565b5060010190565b634e487b7160e01b600052601160045260246000fd5b634e487b7160e01b600052604160045260246000fd5b6001600160a01b038116811461188257600080fd5b61ffff8116811461188257600080fdfea264697066735822122023d7197db6188d98dd9613c1e3f68584788a62bea2e743b1fa11e6d998858f7264736f6c63430008020033",
  "devdoc": {
    "kind": "dev",
    "methods": {
      "addGemsAndCatalysts(address[],address[])": {
        "params": {
          "catalysts": "array of catalysts to be added",
          "gems": "array of gems to be added"
        }
      },
      "batchBurnCatalysts(address,uint16[],uint256[])": {
        "params": {
          "amounts": "list of amounts of units to burn",
          "catalystIds": "list of catalysts to burn catalyst units from each",
          "from": "address of the beneficiary to burn on behalf of"
        }
      },
      "batchBurnGems(address,uint16[],uint256[])": {
        "params": {
          "amounts": "list of amounts of units to burn",
          "from": "address of the beneficiary to burn on behalf of",
          "gemIds": "list of gems to burn gem units from each"
        }
      },
      "burnCatalyst(address,uint16,uint256)": {
        "params": {
          "amount": "The number of catalyst tokens to burn.",
          "catalystId": "The id of the catalyst to burn.",
          "from": "The signing address for the tx."
        }
      },
      "burnDifferentCatalysts(address,uint16[],uint256[])": {
        "params": {
          "amounts": "amount to burn",
          "catalystIds": "list of catalysts to burn",
          "from": "address of the beneficiary to burn on behalf of"
        }
      },
      "burnDifferentGems(address,uint16[],uint256[])": {
        "params": {
          "amounts": "amount units to burn",
          "from": "address of the beneficiary to burn on behalf of",
          "gemIds": "list of gems to burn one gem from each"
        }
      },
      "burnGem(address,uint16,uint256)": {
        "params": {
          "amount": "The number of gem tokens to burn.",
          "from": "The signing address for the tx.",
          "gemId": "The id of the gem to burn."
        }
      },
      "doesCatalystExist(uint16)": {
        "params": {
          "catalystId": "The catalyst being queried."
        },
        "returns": {
          "_0": "Whether the catalyst exists."
        }
      },
      "doesGemExist(uint16)": {
        "params": {
          "gemId": "The gem being queried."
        },
        "returns": {
          "_0": "Whether the gem exists."
        }
      },
      "getAttributes(uint16,uint256,(uint16[],bytes32)[])": {
        "params": {
          "assetId": "The asset tokenId.",
          "catalystId": "The catalyst identifier.",
          "events": "An array of GemEvents. Be aware that only gemEvents from the last CatalystApplied event onwards should be used to populate a query. If gemEvents from multiple CatalystApplied events are included the output values will be incorrect."
        },
        "returns": {
          "values": "An array of values for each gem present in the asset."
        }
      },
      "getCatalyst(uint16)": {
        "details": "Get the catalyst contract corresponding to the id.",
        "params": {
          "catalystId": "The catalyst id to use to retrieve the contract."
        },
        "returns": {
          "_0": "The requested Catalyst contract."
        }
      },
      "getCatalystDecimals(uint16)": {
        "params": {
          "catalystId": "catalyst identifier"
        }
      },
      "getGem(uint16)": {
        "details": "Get the gem contract corresponding to the id.",
        "params": {
          "gemId": "The gem id to use to retrieve the contract."
        },
        "returns": {
          "_0": "The requested Gem contract."
        }
      },
      "getGemDecimals(uint16)": {
        "params": {
          "gemId": "gem identifier"
        }
      },
      "getMaxGems(uint16)": {
        "params": {
          "catalystId": "catalyst identifier"
        }
      },
      "getRoleAdmin(bytes32)": {
        "details": "Returns the admin role that controls `role`. See {grantRole} and {revokeRole}. To change a role's admin, use {_setRoleAdmin}."
      },
      "grantRole(bytes32,address)": {
        "details": "Grants `role` to `account`. If `account` had not been already granted `role`, emits a {RoleGranted} event. Requirements: - the caller must have ``role``'s admin role."
      },
      "hasRole(bytes32,address)": {
        "details": "Returns `true` if `account` has been granted `role`."
      },
      "owner()": {
        "details": "Returns the address of the current owner."
      },
      "renounceOwnership()": {
        "details": "Leaves the contract without owner. It will not be possible to call `onlyOwner` functions anymore. Can only be called by the current owner. NOTE: Renouncing ownership will leave the contract without an owner, thereby removing any functionality that is only available to the owner."
      },
      "renounceRole(bytes32,address)": {
        "details": "Revokes `role` from the calling account. Roles are often managed via {grantRole} and {revokeRole}: this function's purpose is to provide a mechanism for accounts to lose their privileges if they are compromised (such as when a trusted device is misplaced). If the calling account had been revoked `role`, emits a {RoleRevoked} event. Requirements: - the caller must be `account`."
      },
      "revokeRole(bytes32,address)": {
        "details": "Revokes `role` from `account`. If `account` had been granted `role`, emits a {RoleRevoked} event. Requirements: - the caller must have ``role``'s admin role."
      },
      "setTrustedForwarder(address)": {
        "details": "Change the address of the trusted forwarder for meta-TX",
        "params": {
          "trustedForwarder": "The new trustedForwarder"
        }
      },
      "supportsInterface(bytes4)": {
        "details": "See {IERC165-supportsInterface}."
      },
      "transferOwnership(address)": {
        "details": "Transfers ownership of the contract to a new account (`newOwner`). Can only be called by the current owner."
      }
    },
    "version": 1
  },
  "userdoc": {
    "kind": "user",
    "methods": {
      "addGemsAndCatalysts(address[],address[])": {
        "notice": "Adds both arrays of gems and catalysts to registry"
      },
      "batchBurnCatalysts(address,uint16[],uint256[])": {
        "notice": "Burns few catalyst units from each catalyst id on behalf of a beneficiary"
      },
      "batchBurnGems(address,uint16[],uint256[])": {
        "notice": "Burns few gem units from each gem id on behalf of a beneficiary"
      },
      "burnCatalyst(address,uint16,uint256)": {
        "notice": "Burn a catalyst."
      },
      "burnDifferentCatalysts(address,uint16[],uint256[])": {
        "notice": "Burns one catalyst unit from each catalyst id on behalf of a beneficiary"
      },
      "burnDifferentGems(address,uint16[],uint256[])": {
        "notice": "Burns one gem unit from each gem id on behalf of a beneficiary"
      },
      "burnGem(address,uint16,uint256)": {
        "notice": "Burn a gem."
      },
      "doesCatalystExist(uint16)": {
        "notice": "Query whether a giving catalyst exists."
      },
      "doesGemExist(uint16)": {
        "notice": "Query whether a given gem exists."
      },
      "getAttributes(uint16,uint256,(uint16[],bytes32)[])": {
        "notice": "Returns the values for each gem included in a given asset."
      },
      "getCatalystDecimals(uint16)": {
        "notice": "Returns the decimals for a given catalyst"
      },
      "getGemDecimals(uint16)": {
        "notice": "Returns the decimals for a given gem"
      },
      "getMaxGems(uint16)": {
        "notice": "Returns the maximum number of gems for a given catalyst"
      }
    },
    "notice": "Contract managing the Gems and Catalysts Each Gems and Catalyst must be registered here. Each new Gem get assigned a new id (starting at 1) Each new Catalyst get assigned a new id (starting at 1)",
    "version": 1
  },
  "storageLayout": {
    "storage": [
      {
        "astId": 29686,
        "contract": "src/solc_0.8/catalyst/GemsCatalystsRegistry.sol:GemsCatalystsRegistry",
        "label": "_trustedForwarder",
        "offset": 0,
        "slot": "0",
        "type": "t_address"
      },
      {
        "astId": 7669,
        "contract": "src/solc_0.8/catalyst/GemsCatalystsRegistry.sol:GemsCatalystsRegistry",
        "label": "_initialized",
        "offset": 20,
        "slot": "0",
        "type": "t_bool"
      },
      {
        "astId": 7672,
        "contract": "src/solc_0.8/catalyst/GemsCatalystsRegistry.sol:GemsCatalystsRegistry",
        "label": "_initializing",
        "offset": 21,
        "slot": "0",
        "type": "t_bool"
      },
      {
        "astId": 9670,
        "contract": "src/solc_0.8/catalyst/GemsCatalystsRegistry.sol:GemsCatalystsRegistry",
        "label": "__gap",
        "offset": 0,
        "slot": "1",
        "type": "t_array(t_uint256)50_storage"
      },
      {
        "astId": 7446,
        "contract": "src/solc_0.8/catalyst/GemsCatalystsRegistry.sol:GemsCatalystsRegistry",
        "label": "_owner",
        "offset": 0,
        "slot": "51",
        "type": "t_address"
      },
      {
        "astId": 7560,
        "contract": "src/solc_0.8/catalyst/GemsCatalystsRegistry.sol:GemsCatalystsRegistry",
        "label": "__gap",
        "offset": 0,
        "slot": "52",
        "type": "t_array(t_uint256)49_storage"
      },
      {
        "astId": 10532,
        "contract": "src/solc_0.8/catalyst/GemsCatalystsRegistry.sol:GemsCatalystsRegistry",
        "label": "__gap",
        "offset": 0,
        "slot": "101",
        "type": "t_array(t_uint256)50_storage"
      },
      {
        "astId": 7074,
        "contract": "src/solc_0.8/catalyst/GemsCatalystsRegistry.sol:GemsCatalystsRegistry",
        "label": "_roles",
        "offset": 0,
        "slot": "151",
        "type": "t_mapping(t_bytes32,t_struct(RoleData)7069_storage)"
      },
      {
        "astId": 7361,
        "contract": "src/solc_0.8/catalyst/GemsCatalystsRegistry.sol:GemsCatalystsRegistry",
        "label": "__gap",
        "offset": 0,
        "slot": "152",
        "type": "t_array(t_uint256)49_storage"
      },
      {
        "astId": 25206,
        "contract": "src/solc_0.8/catalyst/GemsCatalystsRegistry.sol:GemsCatalystsRegistry",
        "label": "_gems",
        "offset": 0,
        "slot": "201",
        "type": "t_array(t_contract(IGem)26173)dyn_storage"
      },
      {
        "astId": 25210,
        "contract": "src/solc_0.8/catalyst/GemsCatalystsRegistry.sol:GemsCatalystsRegistry",
        "label": "_catalysts",
        "offset": 0,
        "slot": "202",
        "type": "t_array(t_contract(ICatalyst)26126)dyn_storage"
      }
    ],
    "types": {
      "t_address": {
        "encoding": "inplace",
        "label": "address",
        "numberOfBytes": "20"
      },
      "t_array(t_contract(ICatalyst)26126)dyn_storage": {
        "base": "t_contract(ICatalyst)26126",
        "encoding": "dynamic_array",
        "label": "contract ICatalyst[]",
        "numberOfBytes": "32"
      },
      "t_array(t_contract(IGem)26173)dyn_storage": {
        "base": "t_contract(IGem)26173",
        "encoding": "dynamic_array",
        "label": "contract IGem[]",
        "numberOfBytes": "32"
      },
      "t_array(t_uint256)49_storage": {
        "base": "t_uint256",
        "encoding": "inplace",
        "label": "uint256[49]",
        "numberOfBytes": "1568"
      },
      "t_array(t_uint256)50_storage": {
        "base": "t_uint256",
        "encoding": "inplace",
        "label": "uint256[50]",
        "numberOfBytes": "1600"
      },
      "t_bool": {
        "encoding": "inplace",
        "label": "bool",
        "numberOfBytes": "1"
      },
      "t_bytes32": {
        "encoding": "inplace",
        "label": "bytes32",
        "numberOfBytes": "32"
      },
      "t_contract(ICatalyst)26126": {
        "encoding": "inplace",
        "label": "contract ICatalyst",
        "numberOfBytes": "20"
      },
      "t_contract(IGem)26173": {
        "encoding": "inplace",
        "label": "contract IGem",
        "numberOfBytes": "20"
      },
      "t_mapping(t_address,t_bool)": {
        "encoding": "mapping",
        "key": "t_address",
        "label": "mapping(address => bool)",
        "numberOfBytes": "32",
        "value": "t_bool"
      },
      "t_mapping(t_bytes32,t_struct(RoleData)7069_storage)": {
        "encoding": "mapping",
        "key": "t_bytes32",
        "label": "mapping(bytes32 => struct AccessControlUpgradeable.RoleData)",
        "numberOfBytes": "32",
        "value": "t_struct(RoleData)7069_storage"
      },
      "t_struct(RoleData)7069_storage": {
        "encoding": "inplace",
        "label": "struct AccessControlUpgradeable.RoleData",
        "members": [
          {
            "astId": 7066,
            "contract": "src/solc_0.8/catalyst/GemsCatalystsRegistry.sol:GemsCatalystsRegistry",
            "label": "members",
            "offset": 0,
            "slot": "0",
            "type": "t_mapping(t_address,t_bool)"
          },
          {
            "astId": 7068,
            "contract": "src/solc_0.8/catalyst/GemsCatalystsRegistry.sol:GemsCatalystsRegistry",
            "label": "adminRole",
            "offset": 0,
            "slot": "1",
            "type": "t_bytes32"
          }
        ],
        "numberOfBytes": "64"
      },
      "t_uint256": {
        "encoding": "inplace",
        "label": "uint256",
        "numberOfBytes": "32"
      }
    }
  }
}