{
  "address": "0x81FD2112B89c2355BD069189a690D5729735D3a0",
  "abi": [
    {
      "inputs": [],
      "stateMutability": "nonpayable",
      "type": "constructor"
    },
    {
      "anonymous": false,
      "inputs": [
        {
          "indexed": false,
          "internalType": "address",
          "name": "user",
          "type": "address"
        },
        {
          "indexed": false,
          "internalType": "uint256",
          "name": "id",
          "type": "uint256"
        },
        {
          "indexed": false,
          "internalType": "uint256",
          "name": "value",
          "type": "uint256"
        },
        {
          "indexed": false,
          "internalType": "bytes",
          "name": "data",
          "type": "bytes"
        }
      ],
      "name": "Deposit",
      "type": "event"
    },
    {
      "anonymous": false,
      "inputs": [
        {
          "indexed": false,
          "internalType": "bytes",
          "name": "message",
          "type": "bytes"
        }
      ],
      "name": "MessageSent",
      "type": "event"
    },
    {
      "anonymous": false,
      "inputs": [
        {
          "indexed": true,
          "internalType": "address",
          "name": "previousOwner",
          "type": "address"
        },
        {
          "indexed": true,
          "internalType": "address",
          "name": "newOwner",
          "type": "address"
        }
      ],
      "name": "OwnershipTransferred",
      "type": "event"
    },
    {
      "anonymous": false,
      "inputs": [
        {
          "indexed": false,
          "internalType": "address",
          "name": "account",
          "type": "address"
        }
      ],
      "name": "Paused",
      "type": "event"
    },
    {
      "anonymous": false,
      "inputs": [
        {
          "indexed": false,
          "internalType": "uint256",
          "name": "limit",
          "type": "uint256"
        }
      ],
      "name": "SetTransferLimit",
      "type": "event"
    },
    {
      "anonymous": false,
      "inputs": [
        {
          "indexed": false,
          "internalType": "address",
          "name": "account",
          "type": "address"
        }
      ],
      "name": "Unpaused",
      "type": "event"
    },
    {
      "anonymous": false,
      "inputs": [
        {
          "indexed": false,
          "internalType": "address",
          "name": "user",
          "type": "address"
        },
        {
          "indexed": false,
          "internalType": "uint256",
          "name": "id",
          "type": "uint256"
        },
        {
          "indexed": false,
          "internalType": "uint256",
          "name": "value",
          "type": "uint256"
        },
        {
          "indexed": false,
          "internalType": "bytes",
          "name": "data",
          "type": "bytes"
        }
      ],
      "name": "Withdraw",
      "type": "event"
    },
    {
      "inputs": [
        {
          "internalType": "address",
          "name": "to",
          "type": "address"
        },
        {
          "internalType": "uint256[]",
          "name": "ids",
          "type": "uint256[]"
        },
        {
          "internalType": "uint256[]",
          "name": "values",
          "type": "uint256[]"
        }
      ],
      "name": "batchWithdrawToRoot",
      "outputs": [],
      "stateMutability": "nonpayable",
      "type": "function"
    },
    {
      "inputs": [],
      "name": "childToken",
      "outputs": [
        {
          "internalType": "contract IPolygonAssetERC1155",
          "name": "",
          "type": "address"
        }
      ],
      "stateMutability": "view",
      "type": "function"
    },
    {
      "inputs": [],
      "name": "fxChild",
      "outputs": [
        {
          "internalType": "address",
          "name": "",
          "type": "address"
        }
      ],
      "stateMutability": "view",
      "type": "function"
    },
    {
      "inputs": [],
      "name": "fxRootTunnel",
      "outputs": [
        {
          "internalType": "address",
          "name": "",
          "type": "address"
        }
      ],
      "stateMutability": "view",
      "type": "function"
    },
    {
      "inputs": [],
      "name": "getTrustedForwarder",
      "outputs": [
        {
          "internalType": "address",
          "name": "trustedForwarder",
          "type": "address"
        }
      ],
      "stateMutability": "view",
      "type": "function"
    },
    {
      "inputs": [
        {
          "internalType": "address",
          "name": "_fxChild",
          "type": "address"
        },
        {
          "internalType": "contract IPolygonAssetERC1155",
          "name": "_childToken",
          "type": "address"
        },
        {
          "internalType": "address",
          "name": "trustedForwarder",
          "type": "address"
        },
        {
          "internalType": "uint256",
          "name": "_maxTransferLimit",
          "type": "uint256"
        }
      ],
      "name": "initialize",
      "outputs": [],
      "stateMutability": "nonpayable",
      "type": "function"
    },
    {
      "inputs": [
        {
          "internalType": "address",
          "name": "forwarder",
          "type": "address"
        }
      ],
      "name": "isTrustedForwarder",
      "outputs": [
        {
          "internalType": "bool",
          "name": "",
          "type": "bool"
        }
      ],
      "stateMutability": "view",
      "type": "function"
    },
    {
      "inputs": [],
      "name": "maxTransferLimit",
      "outputs": [
        {
          "internalType": "uint256",
          "name": "",
          "type": "uint256"
        }
      ],
      "stateMutability": "view",
      "type": "function"
    },
    {
      "inputs": [
        {
          "internalType": "address",
          "name": "",
          "type": "address"
        },
        {
          "internalType": "address",
          "name": "",
          "type": "address"
        },
        {
          "internalType": "uint256[]",
          "name": "",
          "type": "uint256[]"
        },
        {
          "internalType": "uint256[]",
          "name": "",
          "type": "uint256[]"
        },
        {
          "internalType": "bytes",
          "name": "",
          "type": "bytes"
        }
      ],
      "name": "onERC1155BatchReceived",
      "outputs": [
        {
          "internalType": "bytes4",
          "name": "",
          "type": "bytes4"
        }
      ],
      "stateMutability": "view",
      "type": "function"
    },
    {
      "inputs": [
        {
          "internalType": "address",
          "name": "",
          "type": "address"
        },
        {
          "internalType": "address",
          "name": "",
          "type": "address"
        },
        {
          "internalType": "uint256",
          "name": "",
          "type": "uint256"
        },
        {
          "internalType": "uint256",
          "name": "",
          "type": "uint256"
        },
        {
          "internalType": "bytes",
          "name": "",
          "type": "bytes"
        }
      ],
      "name": "onERC1155Received",
      "outputs": [
        {
          "internalType": "bytes4",
          "name": "",
          "type": "bytes4"
        }
      ],
      "stateMutability": "view",
      "type": "function"
    },
    {
      "inputs": [],
      "name": "owner",
      "outputs": [
        {
          "internalType": "address",
          "name": "",
          "type": "address"
        }
      ],
      "stateMutability": "view",
      "type": "function"
    },
    {
      "inputs": [],
      "name": "pause",
      "outputs": [],
      "stateMutability": "nonpayable",
      "type": "function"
    },
    {
      "inputs": [],
      "name": "paused",
      "outputs": [
        {
          "internalType": "bool",
          "name": "",
          "type": "bool"
        }
      ],
      "stateMutability": "view",
      "type": "function"
    },
    {
      "inputs": [
        {
          "internalType": "uint256",
          "name": "stateId",
          "type": "uint256"
        },
        {
          "internalType": "address",
          "name": "rootMessageSender",
          "type": "address"
        },
        {
          "internalType": "bytes",
          "name": "data",
          "type": "bytes"
        }
      ],
      "name": "processMessageFromRoot",
      "outputs": [],
      "stateMutability": "nonpayable",
      "type": "function"
    },
    {
      "inputs": [],
      "name": "renounceOwnership",
      "outputs": [],
      "stateMutability": "nonpayable",
      "type": "function"
    },
    {
      "inputs": [
        {
          "internalType": "address",
          "name": "_fxRootTunnel",
          "type": "address"
        }
      ],
      "name": "setFxRootTunnel",
      "outputs": [],
      "stateMutability": "nonpayable",
      "type": "function"
    },
    {
      "inputs": [
        {
          "internalType": "uint256",
          "name": "_maxTransferLimit",
          "type": "uint256"
        }
      ],
      "name": "setTransferLimit",
      "outputs": [],
      "stateMutability": "nonpayable",
      "type": "function"
    },
    {
      "inputs": [
        {
          "internalType": "address",
          "name": "trustedForwarder",
          "type": "address"
        }
      ],
      "name": "setTrustedForwarder",
      "outputs": [],
      "stateMutability": "nonpayable",
      "type": "function"
    },
    {
      "inputs": [
        {
          "internalType": "bytes4",
          "name": "interfaceId",
          "type": "bytes4"
        }
      ],
      "name": "supportsInterface",
      "outputs": [
        {
          "internalType": "bool",
          "name": "",
          "type": "bool"
        }
      ],
      "stateMutability": "pure",
      "type": "function"
    },
    {
      "inputs": [
        {
          "internalType": "address",
          "name": "newOwner",
          "type": "address"
        }
      ],
      "name": "transferOwnership",
      "outputs": [],
      "stateMutability": "nonpayable",
      "type": "function"
    },
    {
      "inputs": [],
      "name": "unpause",
      "outputs": [],
      "stateMutability": "nonpayable",
      "type": "function"
    }
  ],
  "transactionHash": "0x59e8637c8c00f937494bf7b73a69a8891a1b822158252fecc0529503a6a993a7",
  "args": [],
  "numDeployments": 1,
  "solcInputHash": "7b79638638f565cd9778fcf2a828ac07",
  "bytecode": "0x608060405260cd805460ff191690553480156200001b57600080fd5b50600080546001600160a01b0319169055600154600160a81b900460ff166200005257600154600160a01b900460ff16156200005c565b6200005c62000118565b620000c45760405162461bcd60e51b815260206004820152602e60248201527f496e697469616c697a61626c653a20636f6e747261637420697320616c72656160448201526d191e481a5b9a5d1a585b1a5e995960921b606482015260840160405180910390fd5b600154600160a81b900460ff16158015620000fc576001805460ff60a01b1960ff60a81b19909116600160a81b1716600160a01b1790555b801562000111576001805460ff60a81b191690555b506200013c565b600062000130306200013660201b620011d21760201c565b15905090565b3b151590565b6124a3806200014c6000396000f3fe608060405234801561001057600080fd5b50600436106101775760003560e01c80638da5cb5b116100d8578063ce1b815f1161008c578063da74222811610066578063da74222814610315578063f23a6e6114610328578063f2fde38b1461033b57610177565b8063ce1b815f146102de578063cf0927f5146102ef578063cf756fdf1461030257610177565b8063ac0007de116100bd578063ac0007de14610270578063bc197c8114610283578063bd85e93b146102c757610177565b80638da5cb5b1461024c5780639a7c4b711461025d57610177565b8063715018a61161012f5780637f1e9cb0116101145780637f1e9cb01461021e5780638456cb5914610231578063888370941461023957610177565b8063715018a6146102035780637a17feff1461020b57610177565b8063450d11f011610160578063450d11f0146101ae578063572b6c05146101d95780635c975abb146101fb57610177565b806301ffc9a71461017c5780633f4ba83a146101a4575b600080fd5b61018f61018a366004612107565b61034e565b60405190151581526020015b60405180910390f35b6101ac6103e7565b005b6000546101c1906001600160a01b031681565b6040516001600160a01b03909116815260200161019b565b61018f6101e7366004611d2c565b6034546001600160a01b0390811691161490565b61018f61046f565b6101ac610479565b6101ac610219366004612147565b6104fc565b6001546101c1906001600160a01b031681565b6101ac6105b1565b6101ac610247366004611d2c565b610632565b6067546001600160a01b03166101c1565b6101ac61026b36600461215f565b6106e0565b60cb546101c1906001600160a01b031681565b610296610291366004611e3a565b6107a7565b6040517fffffffff00000000000000000000000000000000000000000000000000000000909116815260200161019b565b6102d060cc5481565b60405190815260200161019b565b6034546001600160a01b03166101c1565b6101ac6102fd366004611f6f565b610855565b6101ac610310366004611fef565b610d15565b6101ac610323366004611d2c565b610f7d565b610296610336366004611ef5565b611025565b6101ac610349366004611d2c565b6110d1565b60007f4e2312e0000000000000000000000000000000000000000000000000000000007fffffffff00000000000000000000000000000000000000000000000000000000831614806103e157507f01ffc9a7000000000000000000000000000000000000000000000000000000007fffffffff000000000000000000000000000000000000000000000000000000008316145b92915050565b6103ef6111d8565b6001600160a01b031661040a6067546001600160a01b031690565b6001600160a01b0316146104655760405162461bcd60e51b815260206004820181905260248201527f4f776e61626c653a2063616c6c6572206973206e6f7420746865206f776e657260448201526064015b60405180910390fd5b61046d6111e7565b565b60995460ff165b90565b6104816111d8565b6001600160a01b031661049c6067546001600160a01b031690565b6001600160a01b0316146104f25760405162461bcd60e51b815260206004820181905260248201527f4f776e61626c653a2063616c6c6572206973206e6f7420746865206f776e6572604482015260640161045c565b61046d600061128b565b6105046111d8565b6001600160a01b031661051f6067546001600160a01b031690565b6001600160a01b0316146105755760405162461bcd60e51b815260206004820181905260248201527f4f776e61626c653a2063616c6c6572206973206e6f7420746865206f776e6572604482015260640161045c565b60cc8190556040518181527f3fc6a03e501b3ca46f5b6c08064272abf4e2b0d2bbdeeaeba4e4a4f22c9e616d906020015b60405180910390a150565b6105b96111d8565b6001600160a01b03166105d46067546001600160a01b031690565b6001600160a01b03161461062a5760405162461bcd60e51b815260206004820181905260248201527f4f776e61626c653a2063616c6c6572206973206e6f7420746865206f776e6572604482015260640161045c565b61046d6112ea565b6001546001600160a01b0316156106b15760405162461bcd60e51b815260206004820152602a60248201527f4678426173654368696c6454756e6e656c3a20524f4f545f54554e4e454c5f4160448201527f4c52454144595f53455400000000000000000000000000000000000000000000606482015260840161045c565b6001805473ffffffffffffffffffffffffffffffffffffffff19166001600160a01b0392909216919091179055565b6000546001600160a01b031633146107605760405162461bcd60e51b815260206004820152602160248201527f4678426173654368696c6454756e6e656c3a20494e56414c49445f53454e444560448201527f5200000000000000000000000000000000000000000000000000000000000000606482015260840161045c565b6107a1848484848080601f01602080910402602001604051908101604052809392919081815260200183838082843760009201919091525061137592505050565b50505050565b60cd5460009060ff1615156001146108275760405162461bcd60e51b815260206004820152603560248201527f506f6c79676f6e41737365744552433131353554756e6e656c3a2063616e277460448201527f206469726563746c792073656e64204173736574730000000000000000000000606482015260840161045c565b507fbc197c810000000000000000000000000000000000000000000000000000000098975050505050505050565b61085d61046f565b156108aa5760405162461bcd60e51b815260206004820152601060248201527f5061757361626c653a2070617573656400000000000000000000000000000000604482015260640161045c565b6001600160a01b0385166109265760405162461bcd60e51b815260206004820152602b60248201527f506f6c79676f6e41737365744552433131353554756e6e656c3a20746f20636160448201527f6e2774206265207a65726f000000000000000000000000000000000000000000606482015260840161045c565b826109735760405162461bcd60e51b815260206004820152601160248201527f4d495353494e475f544f4b454e5f494453000000000000000000000000000000604482015260640161045c565b60cc5483106109c45760405162461bcd60e51b815260206004820152601660248201527f455843454544535f5452414e534645525f4c494d495400000000000000000000604482015260640161045c565b60008367ffffffffffffffff8111156109ed57634e487b7160e01b600052604160045260246000fd5b604051908082528060200260200182016040528015610a16578160200160208202803683370190505b5060cd805460ff19166001179055905060005b84811015610cad5760cb546000906001600160a01b031663219cc8bc888885818110610a6557634e487b7160e01b600052603260045260246000fd5b905060200201356040518263ffffffff1660e01b8152600401610a8a91815260200190565b602060405180830381600087803b158015610aa457600080fd5b505af1158015610ab8573d6000803e3d6000fd5b505050506040513d601f19601f82011682018060405250810190610adc91906120ef565b905080838381518110610aff57634e487b7160e01b600052603260045260246000fd5b602002602001018181525050600081604051602001610b2091815260200190565b60408051601f1981840301815291905260cb549091506001600160a01b031663f242432a610b4c6111d8565b308b8b88818110610b6d57634e487b7160e01b600052603260045260246000fd5b905060200201358a8a89818110610b9457634e487b7160e01b600052603260045260246000fd5b9050602002013587604051602001610bae91815260200190565b6040516020818303038152906040526040518663ffffffff1660e01b8152600401610bdd959493929190612232565b600060405180830381600087803b158015610bf757600080fd5b505af1158015610c0b573d6000803e3d6000fd5b505050507f5b60e6b7a1385a03cd29f6ac8c80abbd3fe29663ec7d8bbe63bb79a35c176da489898986818110610c5157634e487b7160e01b600052603260045260246000fd5b90506020020135888887818110610c7857634e487b7160e01b600052603260045260246000fd5b9050602002013584604051610c9094939291906122cc565b60405180910390a150508080610ca5906123f3565b915050610a29565b5060cd805460ff19169055604051610d0d9087908790879087908790610cd7908890602001612304565b60408051601f1981840301815290829052610cf9969594939291602001612275565b604051602081830303815290604052611403565b505050505050565b600154600160a81b900460ff16610d4a5760015474010000000000000000000000000000000000000000900460ff1615610d4e565b303b155b610dc05760405162461bcd60e51b815260206004820152602e60248201527f496e697469616c697a61626c653a20636f6e747261637420697320616c72656160448201527f647920696e697469616c697a6564000000000000000000000000000000000000606482015260840161045c565b600154600160a81b900460ff16158015610e3e57600180547fffffffffffffffffffffff00ffffffffffffffffffffffffffffffffffffffff7fffffffffffffffffffff00ffffffffffffffffffffffffffffffffffffffffff909116600160a81b1716740100000000000000000000000000000000000000001790555b6001600160a01b038416610eba5760405162461bcd60e51b815260206004820152603460248201527f506f6c79676f6e41737365744552433131353554756e6e656c3a205f6368696c60448201527f64546f6b656e2063616e2774206265207a65726f000000000000000000000000606482015260840161045c565b60cb805473ffffffffffffffffffffffffffffffffffffffff19166001600160a01b03861617905560cc829055610eef611432565b610ef76114af565b6034805473ffffffffffffffffffffffffffffffffffffffff19166001600160a01b0385161790556000805473ffffffffffffffffffffffffffffffffffffffff19166001600160a01b0387161790558015610f7657600180547fffffffffffffffffffff00ffffffffffffffffffffffffffffffffffffffffff1690555b5050505050565b610f856111d8565b6001600160a01b0316610fa06067546001600160a01b031690565b6001600160a01b031614610ff65760405162461bcd60e51b815260206004820181905260248201527f4f776e61626c653a2063616c6c6572206973206e6f7420746865206f776e6572604482015260640161045c565b6034805473ffffffffffffffffffffffffffffffffffffffff19166001600160a01b0392909216919091179055565b60cd5460009060ff1615156001146110a55760405162461bcd60e51b815260206004820152603560248201527f506f6c79676f6e41737365744552433131353554756e6e656c3a2063616e277460448201527f206469726563746c792073656e64204173736574730000000000000000000000606482015260840161045c565b507ff23a6e61000000000000000000000000000000000000000000000000000000009695505050505050565b6110d96111d8565b6001600160a01b03166110f46067546001600160a01b031690565b6001600160a01b03161461114a5760405162461bcd60e51b815260206004820181905260248201527f4f776e61626c653a2063616c6c6572206973206e6f7420746865206f776e6572604482015260640161045c565b6001600160a01b0381166111c65760405162461bcd60e51b815260206004820152602660248201527f4f776e61626c653a206e6577206f776e657220697320746865207a65726f206160448201527f6464726573730000000000000000000000000000000000000000000000000000606482015260840161045c565b6111cf8161128b565b50565b3b151590565b60006111e261152c565b905090565b6111ef61046f565b61123b5760405162461bcd60e51b815260206004820152601460248201527f5061757361626c653a206e6f7420706175736564000000000000000000000000604482015260640161045c565b6099805460ff191690557f5db9ee0a495bf2e6ff9c91a7834c1ba4fdd244a5e8aa4e537bd38aeae4b073aa61126e6111d8565b6040516001600160a01b03909116815260200160405180910390a1565b606780546001600160a01b0383811673ffffffffffffffffffffffffffffffffffffffff19831681179093556040519116919082907f8be0079c531659141344cd1fd0a4f28419497f9722a3daafe3b4186f6b6457e090600090a35050565b6112f261046f565b1561133f5760405162461bcd60e51b815260206004820152601060248201527f5061757361626c653a2070617573656400000000000000000000000000000000604482015260640161045c565b6099805460ff191660011790557f62e78cea01bee320cd4e420270b5ea74000d11b0c9f74754ebdbfc544b05a25861126e6111d8565b60015482906001600160a01b038083169116146113fa5760405162461bcd60e51b815260206004820152602b60248201527f4678426173654368696c6454756e6e656c3a20494e56414c49445f53454e444560448201527f525f46524f4d5f524f4f54000000000000000000000000000000000000000000606482015260840161045c565b6107a182611576565b7f8c5261668696ce22758910d05bab8f186d6eb247ceac2af2e82c7dc17669b036816040516105a69190612348565b600154600160a81b900460ff1661149f5760405162461bcd60e51b815260206004820152602b60248201527f496e697469616c697a61626c653a20636f6e7472616374206973206e6f74206960448201526a6e697469616c697a696e6760a81b606482015260840161045c565b6114a761187d565b61046d6118ea565b600154600160a81b900460ff1661151c5760405162461bcd60e51b815260206004820152602b60248201527f496e697469616c697a61626c653a20636f6e7472616374206973206e6f74206960448201526a6e697469616c697a696e6760a81b606482015260840161045c565b61152461187d565b61046d611967565b6034546000906001600160a01b031633141561156f57507fffffffffffffffffffffffffffffffffffffffffffffffffffffffffffffffec36013560601c610476565b5033610476565b600080600080848060200190518101906115909190611d4f565b93509350935093506000818060200190518101906115ae919061203f565b905060005b84518110156118745760008282815181106115de57634e487b7160e01b600052603260045260246000fd5b60200260200101516040516020016115f891815260200190565b60408051601f1981840301815291905260cb5487519192506001600160a01b03169063f6c983fb9088908590811061164057634e487b7160e01b600052603260045260246000fd5b60200260200101516040518263ffffffff1660e01b815260040161166691815260200190565b60206040518083038186803b15801561167e57600080fd5b505afa158015611692573d6000803e3d6000fd5b505050506040513d601f19601f820116820180604052508101906116b691906120cf565b1561171a57611715878784815181106116df57634e487b7160e01b600052603260045260246000fd5b602002602001015187858151811061170757634e487b7160e01b600052603260045260246000fd5b6020026020010151846119e0565b6117d6565b60cb5486516001600160a01b039091169063731133e990899089908690811061175357634e487b7160e01b600052603260045260246000fd5b602002602001015188868151811061177b57634e487b7160e01b600052603260045260246000fd5b6020026020010151856040518563ffffffff1660e01b81526004016117a394939291906122cc565b600060405180830381600087803b1580156117bd57600080fd5b505af11580156117d1573d6000803e3d6000fd5b505050505b7f07c6d86eb9c47d0224ebbb590d5fbb1d9d0d7aca54f94611e5ed37a2c6ee20a78787848151811061181857634e487b7160e01b600052603260045260246000fd5b602002602001015187858151811061184057634e487b7160e01b600052603260045260246000fd5b60200260200101518460405161185994939291906122cc565b60405180910390a1508061186c816123f3565b9150506115b3565b50505050505050565b600154600160a81b900460ff1661046d5760405162461bcd60e51b815260206004820152602b60248201527f496e697469616c697a61626c653a20636f6e7472616374206973206e6f74206960448201526a6e697469616c697a696e6760a81b606482015260840161045c565b600154600160a81b900460ff166119575760405162461bcd60e51b815260206004820152602b60248201527f496e697469616c697a61626c653a20636f6e7472616374206973206e6f74206960448201526a6e697469616c697a696e6760a81b606482015260840161045c565b61046d6119626111d8565b61128b565b600154600160a81b900460ff166119d45760405162461bcd60e51b815260206004820152602b60248201527f496e697469616c697a61626c653a20636f6e7472616374206973206e6f74206960448201526a6e697469616c697a696e6760a81b606482015260840161045c565b6099805460ff19169055565b60cb546040517efdd58e000000000000000000000000000000000000000000000000000000008152306004820152602481018590526000916001600160a01b03169062fdd58e9060440160206040518083038186803b158015611a4257600080fd5b505afa158015611a56573d6000803e3d6000fd5b505050506040513d601f19601f82011682018060405250810190611a7a91906120ef565b9050828110611b0b5760cb546040517ff242432a0000000000000000000000000000000000000000000000000000000081526001600160a01b039091169063f242432a90611ad49030908990899089908990600401612232565b600060405180830381600087803b158015611aee57600080fd5b505af1158015611b02573d6000803e3d6000fd5b50505050610f76565b8015611b955760cb546040517ff242432a0000000000000000000000000000000000000000000000000000000081526001600160a01b039091169063f242432a90611b629030908990899087908990600401612232565b600060405180830381600087803b158015611b7c57600080fd5b505af1158015611b90573d6000803e3d6000fd5b505050505b60cb546001600160a01b031663409146138686611bb285886123b0565b6040517fffffffff0000000000000000000000000000000000000000000000000000000060e086901b1681526001600160a01b03909316600484015260248301919091526044820152606401600060405180830381600087803b158015611c1857600080fd5b505af1158015611c2c573d6000803e3d6000fd5b505050505050505050565b60008083601f840112611c48578182fd5b50813567ffffffffffffffff811115611c5f578182fd5b6020830191508360208083028501011115611c7957600080fd5b9250929050565b600082601f830112611c90578081fd5b81516020611ca5611ca08361238c565b61235b565b8281528181019085830183850287018401881015611cc1578586fd5b855b85811015611cdf57815184529284019290840190600101611cc3565b5090979650505050505050565b60008083601f840112611cfd578182fd5b50813567ffffffffffffffff811115611d14578182fd5b602083019150836020828501011115611c7957600080fd5b600060208284031215611d3d578081fd5b8135611d4881612458565b9392505050565b60008060008060808587031215611d64578283fd5b8451611d6f81612458565b602086015190945067ffffffffffffffff80821115611d8c578485fd5b611d9888838901611c80565b94506040870151915080821115611dad578384fd5b611db988838901611c80565b93506060870151915080821115611dce578283fd5b818701915087601f830112611de1578283fd5b815181811115611df357611df3612442565b611e066020601f19601f8401160161235b565b9150808252886020828501011115611e1c578384fd5b611e2d8160208401602086016123c7565b5094979396509194505050565b60008060008060008060008060a0898b031215611e55578384fd5b8835611e6081612458565b97506020890135611e7081612458565b9650604089013567ffffffffffffffff80821115611e8c578586fd5b611e988c838d01611c37565b909850965060608b0135915080821115611eb0578586fd5b611ebc8c838d01611c37565b909650945060808b0135915080821115611ed4578384fd5b50611ee18b828c01611cec565b999c989b5096995094979396929594505050565b60008060008060008060a08789031215611f0d578182fd5b8635611f1881612458565b95506020870135611f2881612458565b94506040870135935060608701359250608087013567ffffffffffffffff811115611f51578283fd5b611f5d89828a01611cec565b979a9699509497509295939492505050565b600080600080600060608688031215611f86578081fd5b8535611f9181612458565b9450602086013567ffffffffffffffff80821115611fad578283fd5b611fb989838a01611c37565b90965094506040880135915080821115611fd1578283fd5b50611fde88828901611c37565b969995985093965092949392505050565b60008060008060808587031215612004578182fd5b843561200f81612458565b9350602085013561201f81612458565b9250604085013561202f81612458565b9396929550929360600135925050565b60006020808385031215612051578182fd5b825167ffffffffffffffff811115612067578283fd5b8301601f81018513612077578283fd5b8051612085611ca08261238c565b81815283810190838501858402850186018910156120a1578687fd5b8694505b838510156120c35780518352600194909401939185019185016120a5565b50979650505050505050565b6000602082840312156120e0578081fd5b81518015158114611d48578182fd5b600060208284031215612100578081fd5b5051919050565b600060208284031215612118578081fd5b81357fffffffff0000000000000000000000000000000000000000000000000000000081168114611d48578182fd5b600060208284031215612158578081fd5b5035919050565b60008060008060608587031215612174578182fd5b84359350602085013561218681612458565b9250604085013567ffffffffffffffff8111156121a1578283fd5b6121ad87828801611cec565b95989497509550505050565b60008284527f07ffffffffffffffffffffffffffffffffffffffffffffffffffffffffffffff8311156121ea578081fd5b6020830280836020870137939093016020019283525090919050565b6000815180845261221e8160208601602086016123c7565b601f01601f19169290920160200192915050565b60006001600160a01b03808816835280871660208401525084604083015283606083015260a0608083015261226a60a0830184612206565b979650505050505050565b60006001600160a01b0388168252608060208301526122986080830187896121b9565b82810360408401526122ab8186886121b9565b905082810360608401526122bf8185612206565b9998505050505050505050565b60006001600160a01b0386168252846020830152836040830152608060608301526122fa6080830184612206565b9695505050505050565b6020808252825182820181905260009190848201906040850190845b8181101561233c57835183529284019291840191600101612320565b50909695505050505050565b600060208252611d486020830184612206565b604051601f8201601f1916810167ffffffffffffffff8111828210171561238457612384612442565b604052919050565b600067ffffffffffffffff8211156123a6576123a6612442565b5060209081020190565b6000828210156123c2576123c261242c565b500390565b60005b838110156123e25781810151838201526020016123ca565b838111156107a15750506000910152565b60007fffffffffffffffffffffffffffffffffffffffffffffffffffffffffffffffff8214156124255761242561242c565b5060010190565b634e487b7160e01b600052601160045260246000fd5b634e487b7160e01b600052604160045260246000fd5b6001600160a01b03811681146111cf57600080fdfea2646970667358221220cc9f34e98532e40936e7fa7c9337b54804ce2108b76f1eec30fa4c052b55f0c364736f6c63430008020033",
  "devdoc": {
    "kind": "dev",
    "methods": {
      "owner()": {
        "details": "Returns the address of the current owner."
      },
      "pause()": {
        "details": "Pauses all token transfers across bridge"
      },
      "paused()": {
        "details": "Returns true if the contract is paused, and false otherwise."
      },
      "renounceOwnership()": {
        "details": "Leaves the contract without owner. It will not be possible to call `onlyOwner` functions anymore. Can only be called by the current owner. NOTE: Renouncing ownership will leave the contract without an owner, thereby removing any functionality that is only available to the owner."
      },
      "setTrustedForwarder(address)": {
        "details": "Change the address of the trusted forwarder for meta-TX",
        "params": {
          "trustedForwarder": "The new trustedForwarder"
        }
      },
      "supportsInterface(bytes4)": {
        "details": "Returns true if this contract implements the interface defined by `interfaceId`. See the corresponding https://eips.ethereum.org/EIPS/eip-165#how-interfaces-are-identified[EIP section] to learn more about how these ids are created. This function call must use less than 30 000 gas."
      },
      "transferOwnership(address)": {
        "details": "Transfers ownership of the contract to a new account (`newOwner`). Can only be called by the current owner."
      },
      "unpause()": {
        "details": "Unpauses all token transfers across bridge"
      }
    },
    "title": "ASSETERC1155 bridge on L2",
    "version": 1
  },
  "userdoc": {
    "kind": "user",
    "methods": {},
    "version": 1
  },
  "storageLayout": {
    "storage": [
      {
        "astId": 1933,
        "contract": "src/solc_0.8/polygon/child/asset/PolygonAssetERC1155Tunnel.sol:PolygonAssetERC1155Tunnel",
        "label": "fxChild",
        "offset": 0,
        "slot": "0",
        "type": "t_address"
      },
      {
        "astId": 1935,
        "contract": "src/solc_0.8/polygon/child/asset/PolygonAssetERC1155Tunnel.sol:PolygonAssetERC1155Tunnel",
        "label": "fxRootTunnel",
        "offset": 0,
        "slot": "1",
        "type": "t_address"
      },
      {
        "astId": 10063,
        "contract": "src/solc_0.8/polygon/child/asset/PolygonAssetERC1155Tunnel.sol:PolygonAssetERC1155Tunnel",
        "label": "_initialized",
        "offset": 20,
        "slot": "1",
        "type": "t_bool"
      },
      {
        "astId": 10066,
        "contract": "src/solc_0.8/polygon/child/asset/PolygonAssetERC1155Tunnel.sol:PolygonAssetERC1155Tunnel",
        "label": "_initializing",
        "offset": 21,
        "slot": "1",
        "type": "t_bool"
      },
      {
        "astId": 36595,
        "contract": "src/solc_0.8/polygon/child/asset/PolygonAssetERC1155Tunnel.sol:PolygonAssetERC1155Tunnel",
        "label": "__gap",
        "offset": 0,
        "slot": "2",
        "type": "t_array(t_uint256)50_storage"
      },
      {
        "astId": 31913,
        "contract": "src/solc_0.8/polygon/child/asset/PolygonAssetERC1155Tunnel.sol:PolygonAssetERC1155Tunnel",
        "label": "_trustedForwarder",
        "offset": 0,
        "slot": "52",
        "type": "t_address"
      },
      {
        "astId": 12064,
        "contract": "src/solc_0.8/polygon/child/asset/PolygonAssetERC1155Tunnel.sol:PolygonAssetERC1155Tunnel",
        "label": "__gap",
        "offset": 0,
        "slot": "53",
        "type": "t_array(t_uint256)50_storage"
      },
      {
        "astId": 9840,
        "contract": "src/solc_0.8/polygon/child/asset/PolygonAssetERC1155Tunnel.sol:PolygonAssetERC1155Tunnel",
        "label": "_owner",
        "offset": 0,
        "slot": "103",
        "type": "t_address"
      },
      {
        "astId": 9954,
        "contract": "src/solc_0.8/polygon/child/asset/PolygonAssetERC1155Tunnel.sol:PolygonAssetERC1155Tunnel",
        "label": "__gap",
        "offset": 0,
        "slot": "104",
        "type": "t_array(t_uint256)49_storage"
      },
      {
        "astId": 10151,
        "contract": "src/solc_0.8/polygon/child/asset/PolygonAssetERC1155Tunnel.sol:PolygonAssetERC1155Tunnel",
        "label": "_paused",
        "offset": 0,
        "slot": "153",
        "type": "t_bool"
      },
      {
        "astId": 10242,
        "contract": "src/solc_0.8/polygon/child/asset/PolygonAssetERC1155Tunnel.sol:PolygonAssetERC1155Tunnel",
        "label": "__gap",
        "offset": 0,
        "slot": "154",
        "type": "t_array(t_uint256)49_storage"
      },
      {
        "astId": 44196,
        "contract": "src/solc_0.8/polygon/child/asset/PolygonAssetERC1155Tunnel.sol:PolygonAssetERC1155Tunnel",
        "label": "childToken",
        "offset": 0,
        "slot": "203",
        "type": "t_contract(IPolygonAssetERC1155)38801"
      },
      {
        "astId": 44198,
        "contract": "src/solc_0.8/polygon/child/asset/PolygonAssetERC1155Tunnel.sol:PolygonAssetERC1155Tunnel",
        "label": "maxTransferLimit",
        "offset": 0,
        "slot": "204",
        "type": "t_uint256"
      },
      {
        "astId": 44201,
        "contract": "src/solc_0.8/polygon/child/asset/PolygonAssetERC1155Tunnel.sol:PolygonAssetERC1155Tunnel",
        "label": "fetchingAssets",
        "offset": 0,
        "slot": "205",
        "type": "t_bool"
      }
    ],
    "types": {
      "t_address": {
        "encoding": "inplace",
        "label": "address",
        "numberOfBytes": "20"
      },
      "t_array(t_uint256)49_storage": {
        "base": "t_uint256",
        "encoding": "inplace",
        "label": "uint256[49]",
        "numberOfBytes": "1568"
      },
      "t_array(t_uint256)50_storage": {
        "base": "t_uint256",
        "encoding": "inplace",
        "label": "uint256[50]",
        "numberOfBytes": "1600"
      },
      "t_bool": {
        "encoding": "inplace",
        "label": "bool",
        "numberOfBytes": "1"
      },
      "t_contract(IPolygonAssetERC1155)38801": {
        "encoding": "inplace",
        "label": "contract IPolygonAssetERC1155",
        "numberOfBytes": "20"
      },
      "t_uint256": {
        "encoding": "inplace",
        "label": "uint256",
        "numberOfBytes": "32"
      }
    }
  }
}