{
  "address": "0x067752aBa7960F23C1a285E3AAd474A2fbf2CaAA",
  "abi": [
    {
      "inputs": [
        {
          "internalType": "address",
          "name": "landAddress",
          "type": "address"
        },
        {
          "internalType": "address",
          "name": "sandContractAddress",
          "type": "address"
        },
        {
          "internalType": "address",
          "name": "initialMetaTx",
          "type": "address"
        },
        {
          "internalType": "address",
          "name": "admin",
          "type": "address"
        },
        {
          "internalType": "address payable",
          "name": "initialWalletAddress",
          "type": "address"
        },
        {
          "internalType": "bytes32",
          "name": "merkleRoot",
          "type": "bytes32"
        },
        {
          "internalType": "uint256",
          "name": "expiryTime",
          "type": "uint256"
        },
        {
          "internalType": "address",
          "name": "initialSigningWallet",
          "type": "address"
        },
        {
          "internalType": "uint256",
          "name": "initialMaxCommissionRate",
          "type": "uint256"
        },
        {
          "internalType": "address",
          "name": "estate",
          "type": "address"
        },
        {
          "internalType": "address",
          "name": "asset",
          "type": "address"
        },
        {
          "internalType": "address",
          "name": "feeDistributor",
          "type": "address"
        },
        {
          "internalType": "address",
          "name": "authValidator",
          "type": "address"
        }
      ],
      "stateMutability": "nonpayable",
      "type": "constructor"
    },
    {
      "anonymous": false,
      "inputs": [
        {
          "indexed": false,
          "internalType": "address",
          "name": "oldAdmin",
          "type": "address"
        },
        {
          "indexed": false,
          "internalType": "address",
          "name": "newAdmin",
          "type": "address"
        }
      ],
      "name": "AdminChanged",
      "type": "event"
    },
    {
      "anonymous": false,
      "inputs": [
        {
          "indexed": true,
          "internalType": "address",
          "name": "buyer",
          "type": "address"
        },
        {
          "indexed": true,
          "internalType": "address",
          "name": "to",
          "type": "address"
        },
        {
          "indexed": true,
          "internalType": "uint256",
          "name": "topCornerId",
          "type": "uint256"
        },
        {
          "indexed": false,
          "internalType": "uint256",
          "name": "size",
          "type": "uint256"
        },
        {
          "indexed": false,
          "internalType": "uint256",
          "name": "price",
          "type": "uint256"
        },
        {
          "indexed": false,
          "internalType": "address",
          "name": "token",
          "type": "address"
        },
        {
          "indexed": false,
          "internalType": "uint256",
          "name": "amountPaid",
          "type": "uint256"
        }
      ],
      "name": "LandQuadPurchased",
      "type": "event"
    },
    {
      "anonymous": false,
      "inputs": [
        {
          "indexed": true,
          "internalType": "uint256",
          "name": "newMaxCommissionRate",
          "type": "uint256"
        }
      ],
      "name": "MaxCommissionRateUpdated",
      "type": "event"
    },
    {
      "anonymous": false,
      "inputs": [
        {
          "indexed": false,
          "internalType": "address",
          "name": "metaTransactionProcessor",
          "type": "address"
        },
        {
          "indexed": false,
          "internalType": "bool",
          "name": "enabled",
          "type": "bool"
        }
      ],
      "name": "MetaTransactionProcessor",
      "type": "event"
    },
    {
      "anonymous": false,
      "inputs": [
        {
          "indexed": true,
          "internalType": "address",
          "name": "newWallet",
          "type": "address"
        }
      ],
      "name": "NewReceivingWallet",
      "type": "event"
    },
    {
      "anonymous": false,
      "inputs": [
        {
          "indexed": true,
          "internalType": "address",
          "name": "referrer",
          "type": "address"
        },
        {
          "indexed": true,
          "internalType": "address",
          "name": "referee",
          "type": "address"
        },
        {
          "indexed": true,
          "internalType": "address",
          "name": "token",
          "type": "address"
        },
        {
          "indexed": false,
          "internalType": "uint256",
          "name": "amount",
          "type": "uint256"
        },
        {
          "indexed": false,
          "internalType": "uint256",
          "name": "commission",
          "type": "uint256"
        },
        {
          "indexed": false,
          "internalType": "uint256",
          "name": "commissionRate",
          "type": "uint256"
        }
      ],
      "name": "ReferralUsed",
      "type": "event"
    },
    {
      "anonymous": false,
      "inputs": [
        {
          "indexed": true,
          "internalType": "address",
          "name": "newSigningWallet",
          "type": "address"
        }
      ],
      "name": "SigningWalletUpdated",
      "type": "event"
    },
    {
      "inputs": [
        {
          "internalType": "address",
          "name": "buyer",
          "type": "address"
        },
        {
          "internalType": "address",
          "name": "to",
          "type": "address"
        },
        {
          "internalType": "address",
          "name": "reserved",
          "type": "address"
        },
        {
          "internalType": "uint256[]",
          "name": "info",
          "type": "uint256[]"
        },
        {
          "internalType": "bytes32",
          "name": "salt",
          "type": "bytes32"
        },
        {
          "internalType": "uint256[]",
          "name": "assetIds",
          "type": "uint256[]"
        },
        {
          "internalType": "bytes32[]",
          "name": "proof",
          "type": "bytes32[]"
        },
        {
          "internalType": "bytes",
          "name": "referral",
          "type": "bytes"
        },
        {
          "internalType": "bytes",
          "name": "signature",
          "type": "bytes"
        }
      ],
      "name": "buyLandWithSand",
      "outputs": [],
      "stateMutability": "nonpayable",
      "type": "function"
    },
    {
      "inputs": [
        {
          "internalType": "address",
          "name": "newAdmin",
          "type": "address"
        }
      ],
      "name": "changeAdmin",
      "outputs": [],
      "stateMutability": "nonpayable",
      "type": "function"
    },
    {
      "inputs": [
        {
          "internalType": "bytes",
          "name": "referral",
          "type": "bytes"
        }
      ],
      "name": "decodeReferral",
      "outputs": [
        {
          "internalType": "bytes",
          "name": "",
          "type": "bytes"
        },
        {
          "internalType": "address",
          "name": "",
          "type": "address"
        },
        {
          "internalType": "address",
          "name": "",
          "type": "address"
        },
        {
          "internalType": "uint256",
          "name": "",
          "type": "uint256"
        },
        {
          "internalType": "uint256",
          "name": "",
          "type": "uint256"
        }
      ],
      "stateMutability": "pure",
      "type": "function"
    },
    {
      "inputs": [
        {
          "internalType": "address",
          "name": "disableWallet",
          "type": "address"
        }
      ],
      "name": "disablePreviousSigningWallet",
      "outputs": [],
      "stateMutability": "nonpayable",
      "type": "function"
    },
    {
      "inputs": [],
      "name": "getAdmin",
      "outputs": [
        {
          "internalType": "address",
          "name": "",
          "type": "address"
        }
      ],
      "stateMutability": "view",
      "type": "function"
    },
    {
      "inputs": [],
      "name": "getExpiryTime",
      "outputs": [
        {
          "internalType": "uint256",
          "name": "",
          "type": "uint256"
        }
      ],
      "stateMutability": "view",
      "type": "function"
    },
    {
      "inputs": [],
      "name": "getMaxCommissionRate",
      "outputs": [
        {
          "internalType": "uint256",
          "name": "",
          "type": "uint256"
        }
      ],
      "stateMutability": "view",
      "type": "function"
    },
    {
      "inputs": [],
      "name": "getMerkleRoot",
      "outputs": [
        {
          "internalType": "bytes32",
          "name": "",
          "type": "bytes32"
        }
      ],
      "stateMutability": "view",
      "type": "function"
    },
    {
      "inputs": [],
      "name": "getSigningWallet",
      "outputs": [
        {
          "internalType": "address",
          "name": "",
          "type": "address"
        }
      ],
      "stateMutability": "view",
      "type": "function"
    },
    {
      "inputs": [
        {
          "internalType": "address",
          "name": "who",
          "type": "address"
        }
      ],
      "name": "isMetaTransactionProcessor",
      "outputs": [
        {
          "internalType": "bool",
          "name": "",
          "type": "bool"
        }
      ],
      "stateMutability": "view",
      "type": "function"
    },
    {
      "inputs": [
        {
          "internalType": "bytes",
          "name": "signature",
          "type": "bytes"
        },
        {
          "internalType": "address",
          "name": "referrer",
          "type": "address"
        },
        {
          "internalType": "address",
          "name": "referee",
          "type": "address"
        },
        {
          "internalType": "uint256",
          "name": "expiryTime",
          "type": "uint256"
        },
        {
          "internalType": "uint256",
          "name": "commissionRate",
          "type": "uint256"
        }
      ],
      "name": "isReferralValid",
      "outputs": [
        {
          "internalType": "bool",
          "name": "",
          "type": "bool"
        }
      ],
      "stateMutability": "view",
      "type": "function"
    },
    {
      "inputs": [
        {
          "internalType": "address",
          "name": "",
          "type": "address"
        },
        {
          "internalType": "address",
          "name": "",
          "type": "address"
        },
        {
          "internalType": "uint256[]",
          "name": "",
          "type": "uint256[]"
        },
        {
          "internalType": "uint256[]",
          "name": "",
          "type": "uint256[]"
        },
        {
          "internalType": "bytes",
          "name": "",
          "type": "bytes"
        }
      ],
      "name": "onERC1155BatchReceived",
      "outputs": [
        {
          "internalType": "bytes4",
          "name": "",
          "type": "bytes4"
        }
      ],
      "stateMutability": "pure",
      "type": "function"
    },
    {
      "inputs": [
        {
          "internalType": "address",
          "name": "",
          "type": "address"
        },
        {
          "internalType": "address",
          "name": "",
          "type": "address"
        },
        {
          "internalType": "uint256",
          "name": "",
          "type": "uint256"
        },
        {
          "internalType": "uint256",
          "name": "",
          "type": "uint256"
        },
        {
          "internalType": "bytes",
          "name": "",
          "type": "bytes"
        }
      ],
      "name": "onERC1155Received",
      "outputs": [
        {
          "internalType": "bytes4",
          "name": "",
          "type": "bytes4"
        }
      ],
      "stateMutability": "pure",
      "type": "function"
    },
    {
      "inputs": [
        {
          "internalType": "address",
          "name": "metaTransactionProcessor",
          "type": "address"
        },
        {
          "internalType": "bool",
          "name": "enabled",
          "type": "bool"
        }
      ],
      "name": "setMetaTransactionProcessor",
      "outputs": [],
      "stateMutability": "nonpayable",
      "type": "function"
    },
    {
      "inputs": [
        {
          "internalType": "address payable",
          "name": "newWallet",
          "type": "address"
        }
      ],
      "name": "setReceivingWallet",
      "outputs": [],
      "stateMutability": "nonpayable",
      "type": "function"
    },
    {
      "inputs": [
        {
          "internalType": "uint256",
          "name": "newMaxCommissionRate",
          "type": "uint256"
        }
      ],
      "name": "updateMaxCommissionRate",
      "outputs": [],
      "stateMutability": "nonpayable",
      "type": "function"
    },
    {
      "inputs": [
        {
          "internalType": "address",
          "name": "newSigningWallet",
          "type": "address"
        }
      ],
      "name": "updateSigningWallet",
      "outputs": [],
      "stateMutability": "nonpayable",
      "type": "function"
    },
    {
      "inputs": [
        {
          "internalType": "address",
          "name": "to",
          "type": "address"
        },
        {
          "internalType": "uint256[]",
          "name": "assetIds",
          "type": "uint256[]"
        },
        {
          "internalType": "uint256[]",
          "name": "values",
          "type": "uint256[]"
        }
      ],
      "name": "withdrawAssets",
      "outputs": [],
      "stateMutability": "nonpayable",
      "type": "function"
    }
  ],
  "transactionHash": "0x85f1ab9647d5f87255780b56beabd3adbc66667f825c64910f86f003ed3bd028",
  "args": [
    "0x525129b95bA89B9800e47ef3dc7d23fBAd27b1a3",
    "0x592daadC9eA7F56A81De1FD27A723Bd407709c46",
    "0x592daadC9eA7F56A81De1FD27A723Bd407709c46",
    "0x49c4D4C94829B9c44052C5f5Cb164Fc612181165",
    "0xa5Eb9C9Eb4F4c35B9Be8cFaAA7909F9ebe6Cb609",
    "0x9ceac16614b31798a7636165560914604e244780146ad276e06afc5c80bedf99",
    1992949200,
    "0xB7060D3FeCAC3AE1F0A0AA416E3e8E472257950e",
    2000,
    "0x0000000000000000000000000000000000000000",
    "0xB766Af2EfCB61bd5a261E007D8866f005E305D5d",
    "0xAc3ff31f526Af7f386ea43649e3fa67e329AeF93",
    "0x1d3CE3489a064aEFc9928fe08F9d2Dd968F5c969"
  ],
  "numDeployments": 1,
  "linkedData": [
    {
      "x": 186,
      "y": 309,
      "size": 1,
      "price": "4683000000000000000000",
      "reserved": "",
      "salt": "0x7ed497ba7970f11ba6836d666f10da43047016a7c4be77de8ed314dfda97500c",
      "assetIds": []
    },
    {
      "x": 187,
      "y": 309,
      "size": 1,
      "price": "4683000000000000000000",
      "reserved": "",
      "salt": "0xbcf0ae529c67876fc72a39e28403897f4a2045b1641db665a9882ca0745e6b05",
      "assetIds": []
    },
    {
      "x": 188,
      "y": 309,
      "size": 1,
      "price": "4683000000000000000000",
      "reserved": "",
      "salt": "0xbb767c4bcb01b38bb97573aa1b82f05084711cf8b635571e426ec18a7e4d948f",
      "assetIds": []
    },
    {
      "x": 189,
      "y": 308,
      "size": 1,
      "price": "4683000000000000000000",
      "reserved": "",
      "salt": "0x844d3409d6604cdd0b622852a204d6c7f43240f1b6baeb4288356a2116d17da1",
      "assetIds": []
    },
    {
      "x": 189,
      "y": 306,
      "size": 1,
      "price": "4683000000000000000000",
      "reserved": "",
      "salt": "0x443a0119b005ab9c885d5caef8047b02936faaccb7726fd540df732a68b8f9e4",
      "assetIds": []
    },
    {
      "x": 188,
      "y": 305,
      "size": 1,
      "price": "4683000000000000000000",
      "reserved": "",
      "salt": "0x2ae6ca5f6a87614a36811ad91ccf935296201beecad9b3cd432ca5776509838f",
      "assetIds": []
    },
    {
      "x": 187,
      "y": 305,
      "size": 1,
      "price": "4683000000000000000000",
      "reserved": "",
      "salt": "0xf1e21ed684fe9fc1040e83c9c97118f2fad47e23127801a00d7096c05125b35a",
      "assetIds": []
    },
    {
      "x": 186,
      "y": 305,
      "size": 1,
      "price": "4683000000000000000000",
      "reserved": "",
      "salt": "0xa1db07a6e8996f8bd916034f59a93743d8f2c05ab6ba5d8f3dae64fe0870915d",
      "assetIds": []
    },
    {
      "x": 181,
      "y": 300,
      "size": 1,
      "price": "4683000000000000000000",
      "reserved": "",
      "salt": "0x73c745cc18a35fa025c96035f847f42cd9d399f07af03090b987d05af1c2c7fa",
      "assetIds": []
    },
    {
      "x": 182,
      "y": 300,
      "size": 1,
      "price": "4683000000000000000000",
      "reserved": "",
      "salt": "0x43a9dbc5e5ca37c02fb62c717aa0c438d500696bb6c8645badb89ad6cf9c5a1d",
      "assetIds": []
    },
    {
      "x": 184,
      "y": 300,
      "size": 1,
      "price": "4683000000000000000000",
      "reserved": "",
      "salt": "0x20018e863a7ce2ddb897167af5a2af4a9fd97764f39ea0f0375cf19c1e72815f",
      "assetIds": []
    },
    {
      "x": 185,
      "y": 300,
      "size": 1,
      "price": "4683000000000000000000",
      "reserved": "",
      "salt": "0x1f79ee2769a87efadf2aaabf6c6159d1991f3b8cff0175d5a2e7cb4fb4430058",
      "assetIds": []
    },
    {
      "x": 187,
      "y": 300,
      "size": 1,
      "price": "4683000000000000000000",
      "reserved": "",
      "salt": "0xb1b2966ab9199aa46ecd9f0113e1d1974b6ca779622d20246b2b6e7ea58a6167",
      "assetIds": []
    },
    {
      "x": 188,
      "y": 300,
      "size": 1,
      "price": "4683000000000000000000",
      "reserved": "",
      "salt": "0x7bd45c05acd756a3a0d382d2055826febb6cc4ff958b8052f16f9e192000d9ee",
      "assetIds": []
    },
    {
      "x": 192,
      "y": 299,
      "size": 1,
      "price": "4683000000000000000000",
      "reserved": "",
      "salt": "0x3a22ba522e9ae65219b2cc7162b0469b9f5a68561643d4d09a91092fc71cd214",
      "assetIds": []
    },
    {
      "x": 192,
      "y": 297,
      "size": 1,
      "price": "4683000000000000000000",
      "reserved": "",
      "salt": "0x5782dee8eb5d8d7f59c0b277c89f3d4d4acfbcfff06aabc0a0120b95cc3bca5c",
      "assetIds": []
    },
    {
      "x": 192,
      "y": 294,
      "size": 1,
      "price": "4683000000000000000000",
      "reserved": "",
      "salt": "0xe928970b39381afe5432d3366fa4352a9543e8b511aab21e9e1fbde318d87835",
      "assetIds": []
    },
    {
      "x": 179,
      "y": 299,
      "size": 1,
      "price": "4683000000000000000000",
      "reserved": "",
      "salt": "0x17780e13aaa860af4440bd2c684cda02f46c0e70fb5879ce837961da413cf2a7",
      "assetIds": []
    },
    {
      "x": 179,
      "y": 298,
      "size": 1,
      "price": "4683000000000000000000",
      "reserved": "",
      "salt": "0x2128f8f0aec299178321fa980060aeb171a03bec547f5b28760f16eaa58de610",
      "assetIds": []
    },
    {
      "x": 179,
      "y": 297,
      "size": 1,
      "price": "4683000000000000000000",
      "reserved": "",
      "salt": "0x0ab96eb0c734861b645c5791d4e9cba95d445a4d34e511498df4c3b82cc8ca72",
      "assetIds": []
    },
    {
      "x": 179,
      "y": 293,
      "size": 1,
      "price": "4683000000000000000000",
      "reserved": "",
      "salt": "0xb589cd342ae687a381a019cd757c2fc8457953307bc7aedaa98294b19756a366",
      "assetIds": []
    },
    {
      "x": 179,
      "y": 292,
      "size": 1,
      "price": "4683000000000000000000",
      "reserved": "",
      "salt": "0xe270d58d256e4113c9f6add063f656d92dfe349211fbfcc3c3346cd9097d66ad",
      "assetIds": []
    },
    {
      "x": 179,
      "y": 289,
      "size": 1,
      "price": "4683000000000000000000",
      "reserved": "",
      "salt": "0x3cae7696470e456fe31c725b9dbbe02d5eefc2d1ff254a141d8b0a4c54267e4f",
      "assetIds": []
    },
    {
      "x": 179,
      "y": 288,
      "size": 1,
      "price": "4683000000000000000000",
      "reserved": "",
      "salt": "0xf44b97000022ae0fa10f17d4bc58d9a49463914da80b40f94b80971fe45cb389",
      "assetIds": []
    },
    {
      "x": 174,
      "y": 279,
      "size": 1,
      "price": "4683000000000000000000",
      "reserved": "",
      "salt": "0xf998bd5de0506b0815ffca89429c84f3ec145399196860fbad767d585f23f829",
      "assetIds": []
    },
    {
      "x": 175,
      "y": 279,
      "size": 1,
      "price": "4683000000000000000000",
      "reserved": "",
      "salt": "0x09df3ca2517cd6024d95d795f60efb5cd67306301e580b8e1a96346d2e88f4e7",
      "assetIds": []
    },
    {
      "x": 176,
      "y": 279,
      "size": 1,
      "price": "4683000000000000000000",
      "reserved": "",
      "salt": "0xdf83c39c4f2653b6312692d8cf0ad36cd8e0b7a14691510537e143da428bc5c9",
      "assetIds": []
    },
    {
      "x": 177,
      "y": 276,
      "size": 1,
      "price": "4683000000000000000000",
      "reserved": "",
      "salt": "0xd359f5759926c1a0665b9859560b463a2fed733ff572a08cd98b98dacf196962",
      "assetIds": []
    },
    {
      "x": 176,
      "y": 275,
      "size": 1,
      "price": "4683000000000000000000",
      "reserved": "",
      "salt": "0x6ec55e3275305ccff6bff89ede2526cbba1d1e729324f3e1982dedc454829f5d",
      "assetIds": []
    },
    {
      "x": 175,
      "y": 275,
      "size": 1,
      "price": "4683000000000000000000",
      "reserved": "",
      "salt": "0x72fe118eed2a663ec360a46763770c861d74b90179f206db4255945e44d9f6be",
      "assetIds": []
    },
    {
      "x": 185,
      "y": 274,
      "size": 1,
      "price": "4683000000000000000000",
      "reserved": "",
      "salt": "0xb0a910c80bdf26afef4849f1311df23d243eab004e77a9e38f290b5da8f24435",
      "assetIds": []
    },
    {
      "x": 185,
      "y": 275,
      "size": 1,
      "price": "4683000000000000000000",
      "reserved": "",
      "salt": "0x62e218d72d9160b4aedd4167c2f68e79f528b78f09e10209a48f451a9cde857b",
      "assetIds": []
    },
    {
      "x": 186,
      "y": 276,
      "size": 1,
      "price": "4683000000000000000000",
      "reserved": "",
      "salt": "0x531e1240e87f2c6cdd6bd373ae12c4995ba4174f81f9e90c5c8dc01dc457b70a",
      "assetIds": []
    },
    {
      "x": 187,
      "y": 276,
      "size": 1,
      "price": "4683000000000000000000",
      "reserved": "",
      "salt": "0x1d168daf25d8c7517087660efa72f40d2392c3abe69761be89b9bbbdea786eae",
      "assetIds": []
    },
    {
      "x": 188,
      "y": 276,
      "size": 1,
      "price": "4683000000000000000000",
      "reserved": "",
      "salt": "0xd307b034bb9573541c5c042ae67a25a68dfc9f0dbeea83216488cc4396ff59b2",
      "assetIds": []
    },
    {
      "x": 190,
      "y": 276,
      "size": 1,
      "price": "4683000000000000000000",
      "reserved": "",
      "salt": "0xa907d84a3b8bf3c386857ff771527b15a127e7de7c89a76c84262c674dff0041",
      "assetIds": []
    },
    {
      "x": 191,
      "y": 276,
      "size": 1,
      "price": "4683000000000000000000",
      "reserved": "",
      "salt": "0xbc93217ae7f86f5f84cdca4df329c14e9b2432157a7a4d68861d1a78c2da1d92",
      "assetIds": []
    },
    {
      "x": 192,
      "y": 272,
      "size": 1,
      "price": "4683000000000000000000",
      "reserved": "",
      "salt": "0x14337044bc24ff39f919f363e453e155a4bc18491a977cdd2faca2d5ce13375d",
      "assetIds": []
    },
    {
      "x": 192,
      "y": 271,
      "size": 1,
      "price": "4683000000000000000000",
      "reserved": "",
      "salt": "0x72accade4614a679d8c38da723c1592946882b38ae103bf5bbfebe3b69eff93e",
      "assetIds": []
    },
    {
      "x": 192,
      "y": 270,
      "size": 1,
      "price": "4683000000000000000000",
      "reserved": "",
      "salt": "0xd0f8944a12f2a2657fde5e31ca962bbef65a2472f6d24fb43939dda36780e641",
      "assetIds": []
    },
    {
      "x": 191,
      "y": 269,
      "size": 1,
      "price": "4683000000000000000000",
      "reserved": "",
      "salt": "0xae1d39ae7120b1b1cbe6ddbf9b02779d9f0d0588580dae4fa1082c35c763fb39",
      "assetIds": []
    },
    {
      "x": 190,
      "y": 269,
      "size": 1,
      "price": "4683000000000000000000",
      "reserved": "",
      "salt": "0x672de319e58190a4289b00342691f8cdfd119c31fb73e5369ad4d5c3bd4369fb",
      "assetIds": []
    },
    {
      "x": 189,
      "y": 269,
      "size": 1,
      "price": "4683000000000000000000",
      "reserved": "",
      "salt": "0x057842cccc1862375515f787237c7b0e1037488fe814cf88128bb97f99d73825",
      "assetIds": []
    },
    {
      "x": 187,
      "y": 269,
      "size": 1,
      "price": "4683000000000000000000",
      "reserved": "",
      "salt": "0x20b4150460616eedfd6c9e90bd8a25da119579b0728c2e9994b9a7e8fba3bf7b",
      "assetIds": []
    },
    {
      "x": 186,
      "y": 269,
      "size": 1,
      "price": "4683000000000000000000",
      "reserved": "",
      "salt": "0x2ae7aff1ee2be0ca3a3a02b93225704c110b7574f6b862e95e5f52940e3eddee",
      "assetIds": []
    },
    {
      "x": 185,
      "y": 309,
      "size": 1,
      "price": "1011000000000000000000",
      "reserved": "0x7a9fe22691c811ea339d9b73150e6911a5343dca",
      "salt": "0x99376d37bd8811ab41343cc0fb27d04bc5897f430ae101c507d47df621ae5410",
      "assetIds": []
    },
    {
      "x": 176,
      "y": 306,
      "size": 1,
      "price": "1011000000000000000000",
      "reserved": "0x7a9fe22691c811ea339d9b73150e6911a5343dca",
      "salt": "0x7af6c5309f15215eaae43f5e4da3361480ed126fb82fe251b07e56febe1f8c76",
      "assetIds": []
    },
    {
      "x": 191,
      "y": 306,
      "size": 1,
      "price": "1011000000000000000000",
      "reserved": "0x7a9fe22691c811ea339d9b73150e6911a5343dca",
      "salt": "0xe708b0c24ecdf3e26ce9fa336a5f4deb4dbbe977ac0d0029623c675796635421",
      "assetIds": []
    },
    {
      "x": 187,
      "y": 303,
      "size": 1,
      "price": "1011000000000000000000",
      "reserved": "0x7a9fe22691c811ea339d9b73150e6911a5343dca",
      "salt": "0xa8fe1d8846cb4dad441ebcd2d80b1591ad38f41188a042f6c256ccca72eb1e7f",
      "assetIds": []
    },
    {
      "x": 174,
      "y": 300,
      "size": 1,
      "price": "1011000000000000000000",
      "reserved": "0x7a9fe22691c811ea339d9b73150e6911a5343dca",
      "salt": "0xfd726cd3cec6ab6985d7ba9d91fa01fdc1109d9fa2f32cf73364830907da1577",
      "assetIds": []
    },
    {
      "x": 180,
      "y": 300,
      "size": 1,
      "price": "1011000000000000000000",
      "reserved": "0x7a9fe22691c811ea339d9b73150e6911a5343dca",
      "salt": "0x5ed91664ab458872994e7920b128fe3ff85b2751cc1846cab1371f75a4c86198",
      "assetIds": []
    },
    {
      "x": 192,
      "y": 298,
      "size": 1,
      "price": "1011000000000000000000",
      "reserved": "0x7a9fe22691c811ea339d9b73150e6911a5343dca",
      "salt": "0xc675f08874e5443654358529164babc09ec5251580c917907ae1979f7662a3db",
      "assetIds": []
    },
    {
      "x": 195,
      "y": 297,
      "size": 1,
      "price": "1011000000000000000000",
      "reserved": "0x7a9fe22691c811ea339d9b73150e6911a5343dca",
      "salt": "0xab7a7565a8d1c07fbd3b780bc750232f929189374004954a2dba50b7cba35e9d",
      "assetIds": []
    },
    {
      "x": 179,
      "y": 290,
      "size": 1,
      "price": "1011000000000000000000",
      "reserved": "0x7a9fe22691c811ea339d9b73150e6911a5343dca",
      "salt": "0xd96915f111b7e80151e5417b963e31359242edc48a64e4d0831d8983cd76de4a",
      "assetIds": []
    },
    {
      "x": 193,
      "y": 287,
      "size": 1,
      "price": "1011000000000000000000",
      "reserved": "0x7a9fe22691c811ea339d9b73150e6911a5343dca",
      "salt": "0xd6324f9b5004824bc181c07dbd89b9676adf751dbb76fa68d272274043c36ee9",
      "assetIds": []
    },
    {
      "x": 179,
      "y": 281,
      "size": 1,
      "price": "1011000000000000000000",
      "reserved": "0x7a9fe22691c811ea339d9b73150e6911a5343dca",
      "salt": "0xf7806c105169968e8aafb4c3b31444d4850fd91a3b64decf086cce0e18e8c49a",
      "assetIds": []
    },
    {
      "x": 180,
      "y": 278,
      "size": 1,
      "price": "1011000000000000000000",
      "reserved": "0x7a9fe22691c811ea339d9b73150e6911a5343dca",
      "salt": "0xc61177b8aedf9fddbebaffaa0f1018dae9749ab8142e56d81adae4b10f90368e",
      "assetIds": []
    },
    {
      "x": 193,
      "y": 277,
      "size": 1,
      "price": "1011000000000000000000",
      "reserved": "0x7a9fe22691c811ea339d9b73150e6911a5343dca",
      "salt": "0xee51d2087d768d6d0e04bb8a5e54d9c04ed16bb7b9a78267b86eae6d2f571f69",
      "assetIds": []
    },
    {
      "x": 175,
      "y": 273,
      "size": 1,
      "price": "1011000000000000000000",
      "reserved": "0x7a9fe22691c811ea339d9b73150e6911a5343dca",
      "salt": "0xb1a7ed8d3263fe0375fed04bacf0ee100cb1a939ee30684cd3bc8c0fc4222272",
      "assetIds": []
    },
    {
      "x": 196,
      "y": 272,
      "size": 1,
      "price": "1011000000000000000000",
      "reserved": "0x7a9fe22691c811ea339d9b73150e6911a5343dca",
      "salt": "0x85c1c850ed103872cec00e06727944fa5d53fdad07356ecedef9cb92389947af",
      "assetIds": []
    },
    {
      "x": 172,
      "y": 269,
      "size": 1,
      "price": "1011000000000000000000",
      "reserved": "0x7a9fe22691c811ea339d9b73150e6911a5343dca",
      "salt": "0xbe0a1f5ae17ff1e6b654b0221eb98bac2202c3508ab916d363a4d5d8174ef1fd",
      "assetIds": []
    },
    {
      "x": 175,
      "y": 291,
      "size": 1,
      "price": "1011000000000000000000",
      "reserved": "0x7a9fe22691c811ea339d9b73150e6911a5343dca",
      "salt": "0x090c05ff8cdc3bda0e159486c6b08a6dc586b33fc1f2a1f50c757aea8f521869",
      "assetIds": []
    },
    {
      "x": 185,
      "y": 310,
      "size": 1,
      "price": "1011000000000000000000",
      "reserved": "",
      "salt": "0x5a52d41ddec12df85df05b7409885a601e050f42c74c5094461ff340282ee781",
      "assetIds": []
    },
    {
      "x": 186,
      "y": 310,
      "size": 1,
      "price": "1011000000000000000000",
      "reserved": "",
      "salt": "0xe9654a34d932d9462094ca3cd635a56bc81ea2827ca8b8b1cf452424ff9557df",
      "assetIds": []
    },
    {
      "x": 187,
      "y": 310,
      "size": 1,
      "price": "1011000000000000000000",
      "reserved": "",
      "salt": "0x11477dbd21959ecd57d947dc6fa7c4a6dc1a3aba50d462230dec3dfff54513ee",
      "assetIds": []
    },
    {
      "x": 188,
      "y": 310,
      "size": 1,
      "price": "1011000000000000000000",
      "reserved": "",
      "salt": "0xbc61a7e444d80e800c64eccd33dfd12dacb58861e76b53c834e6c6c526a9738c",
      "assetIds": []
    },
    {
      "x": 189,
      "y": 310,
      "size": 1,
      "price": "1011000000000000000000",
      "reserved": "",
      "salt": "0xcb06e67229b7206781d7c4a6ccd252cb5ff9f50257d63b656ef6dfc2c27c00b6",
      "assetIds": []
    },
    {
      "x": 190,
      "y": 310,
      "size": 1,
      "price": "1011000000000000000000",
      "reserved": "",
      "salt": "0x6047493f1c2fa66b025a4e935b71b271030f31e58f7c0075f62b71817c4cc71e",
      "assetIds": []
    },
    {
      "x": 191,
      "y": 310,
      "size": 1,
      "price": "1011000000000000000000",
      "reserved": "",
      "salt": "0xc5d7bcc9a2eb5b6cfbc0b2faaab936025cda66feeda52930e7090ea90d869704",
      "assetIds": []
    },
    {
      "x": 190,
      "y": 309,
      "size": 1,
      "price": "1011000000000000000000",
      "reserved": "",
      "salt": "0x79e4ac1f92a70e553d86e02dad5b32e470bfe8c1ce3c40198a284871d4d69413",
      "assetIds": []
    },
    {
      "x": 190,
      "y": 308,
      "size": 1,
      "price": "1011000000000000000000",
      "reserved": "",
      "salt": "0x7b27806c4d971a95fc4f3380fd701477a2cab06ad60d61a2b389761c84a259fa",
      "assetIds": []
    },
    {
      "x": 190,
      "y": 307,
      "size": 1,
      "price": "1011000000000000000000",
      "reserved": "",
      "salt": "0x3107b82521c3ecf61e1bc5d5832c5636449bedf1ff166206c80baffaef83f052",
      "assetIds": []
    },
    {
      "x": 189,
      "y": 307,
      "size": 1,
      "price": "1011000000000000000000",
      "reserved": "",
      "salt": "0xa23fa3ae0a0b5f247415f2a93a3d45b99faf83807f9da5f5bf25be4198bab59f",
      "assetIds": []
    },
    {
      "x": 191,
      "y": 307,
      "size": 1,
      "price": "1011000000000000000000",
      "reserved": "",
      "salt": "0x86cbfba577d4dc52f725ac4f5a50c0246978a99d1cb1fabdb44b093e396d8b7a",
      "assetIds": []
    },
    {
      "x": 191,
      "y": 308,
      "size": 1,
      "price": "1011000000000000000000",
      "reserved": "",
      "salt": "0x0ccaed4dba23d98540b68b93ae7b0a26f5cfb164ee71844daa7dc7e45ac42785",
      "assetIds": []
    },
    {
      "x": 174,
      "y": 309,
      "size": 1,
      "price": "1011000000000000000000",
      "reserved": "",
      "salt": "0x41c9e4b014ff23c021c287db62d61b89b46e9d5d52681f047c6c8867f8f3eedc",
      "assetIds": []
    },
    {
      "x": 175,
      "y": 309,
      "size": 1,
      "price": "1011000000000000000000",
      "reserved": "",
      "salt": "0xaabb8ca9bb3f35371bcae60b22d81c6023a61ad04647a7ac5cbc61b2aa6c41fe",
      "assetIds": []
    },
    {
      "x": 176,
      "y": 309,
      "size": 1,
      "price": "1011000000000000000000",
      "reserved": "",
      "salt": "0x4a8c5dfba24bbb21fe93d192f7d8f0cd5cbcfaebb37d273e3d3424c84ac4f615",
      "assetIds": []
    },
    {
      "x": 177,
      "y": 309,
      "size": 1,
      "price": "1011000000000000000000",
      "reserved": "",
      "salt": "0x5fb3e58fc6b9f697b177e77d9f84221b08d6012812c25d8f4037289c2eba3006",
      "assetIds": []
    },
    {
      "x": 179,
      "y": 309,
      "size": 1,
      "price": "1011000000000000000000",
      "reserved": "",
      "salt": "0x8b90b5e3a67a69b9ee5ffcb5c6685be40650dc7796e33589dbe85879f89d280b",
      "assetIds": []
    },
    {
      "x": 180,
      "y": 309,
      "size": 1,
      "price": "1011000000000000000000",
      "reserved": "",
      "salt": "0x2314c0b471dbf1950674fd7f2fe301cd051cd58cba1855a2304af557206da689",
      "assetIds": []
    },
    {
      "x": 181,
      "y": 309,
      "size": 1,
      "price": "1011000000000000000000",
      "reserved": "",
      "salt": "0xf303c87652542c9f7ef6c436aade1d1d052f18234e68bd57d61bd49d1bb9d56d",
      "assetIds": []
    },
    {
      "x": 182,
      "y": 309,
      "size": 1,
      "price": "1011000000000000000000",
      "reserved": "",
      "salt": "0x3d532779ba3cc40f458cac121d9d071666de6eb8bd5c1e4410360c58944d92aa",
      "assetIds": []
    },
    {
      "x": 183,
      "y": 309,
      "size": 1,
      "price": "1011000000000000000000",
      "reserved": "",
      "salt": "0xec686f065e580f7cbecad6210cd7a61ac50c48289c93f6e73e696e3b288e88e3",
      "assetIds": []
    },
    {
      "x": 184,
      "y": 309,
      "size": 1,
      "price": "1011000000000000000000",
      "reserved": "",
      "salt": "0x216822c49151c71c225ffa080e49b2b79fb732767a483592aea715659ffbc03e",
      "assetIds": []
    },
    {
      "x": 182,
      "y": 308,
      "size": 1,
      "price": "1011000000000000000000",
      "reserved": "",
      "salt": "0x886b44fbd4113bd9d3523c31df354e917a439e177ef13d4170b4b4a9d54c032a",
      "assetIds": []
    },
    {
      "x": 182,
      "y": 307,
      "size": 1,
      "price": "1011000000000000000000",
      "reserved": "",
      "salt": "0x5113a2681c7ada5b7cb64203c1325a28eccfeb2f32532b71c5218e12ccf72cb2",
      "assetIds": []
    },
    {
      "x": 182,
      "y": 306,
      "size": 1,
      "price": "1011000000000000000000",
      "reserved": "",
      "salt": "0x4c3dd4b46f10c40aace7f478d965aa3f6e697c82457680beb65c807232659e6d",
      "assetIds": []
    },
    {
      "x": 181,
      "y": 306,
      "size": 1,
      "price": "1011000000000000000000",
      "reserved": "",
      "salt": "0xcf38196dd5459939d1c5a1922413e330237c6d0f3036f02cee0d2a9dd29aab47",
      "assetIds": []
    },
    {
      "x": 180,
      "y": 306,
      "size": 1,
      "price": "1011000000000000000000",
      "reserved": "",
      "salt": "0x56f624fbfe82155b44625c96601dcf475e92a4cf3c6af5c031845415b8475086",
      "assetIds": []
    },
    {
      "x": 180,
      "y": 308,
      "size": 1,
      "price": "1011000000000000000000",
      "reserved": "",
      "salt": "0x472b533ef8a26696c953bd47249223cc68694dd91dd0e8c592525ecbf1660822",
      "assetIds": []
    },
    {
      "x": 181,
      "y": 308,
      "size": 1,
      "price": "1011000000000000000000",
      "reserved": "",
      "salt": "0xa8a0ddff901edc55cb00941e9b3173d6769720c9a3103ae2e8651881d1584f77",
      "assetIds": []
    },
    {
      "x": 181,
      "y": 307,
      "size": 1,
      "price": "1011000000000000000000",
      "reserved": "",
      "salt": "0xdb5f0dbae75bc8d759601558550615dac695fa378f5b88ef60a6aa91ee320ec0",
      "assetIds": []
    },
    {
      "x": 176,
      "y": 308,
      "size": 1,
      "price": "1011000000000000000000",
      "reserved": "",
      "salt": "0x81b59c4cc28557ea3259af219dbf08efd48d1359873755d8dbdd5e88ede29617",
      "assetIds": []
    },
    {
      "x": 175,
      "y": 308,
      "size": 1,
      "price": "1011000000000000000000",
      "reserved": "",
      "salt": "0xf9fc892dbc03ed6c057b2884d12af43c00221cfd8abf0e1746254a382026928a",
      "assetIds": []
    },
    {
      "x": 174,
      "y": 308,
      "size": 1,
      "price": "1011000000000000000000",
      "reserved": "",
      "salt": "0x6b1b8de0d0f701b843dbe4fd25697f7bf44e403ecfbfb06f1f588b9e7e8c56c0",
      "assetIds": []
    },
    {
      "x": 174,
      "y": 307,
      "size": 1,
      "price": "1011000000000000000000",
      "reserved": "",
      "salt": "0x96bca1b67983dbefd4af28ff1c788241886f59c44fc7efef2bf96f3567a35083",
      "assetIds": []
    },
    {
      "x": 174,
      "y": 306,
      "size": 1,
      "price": "1011000000000000000000",
      "reserved": "",
      "salt": "0x7476fceba36d35dea559f369feb575da7474820cbdce85d4374afde78b7b91e5",
      "assetIds": []
    },
    {
      "x": 174,
      "y": 305,
      "size": 1,
      "price": "1011000000000000000000",
      "reserved": "",
      "salt": "0x35625b6067437c8f0e5f0bd741bb404b706a80de0161ba78933a6612e2537563",
      "assetIds": []
    },
    {
      "x": 175,
      "y": 307,
      "size": 1,
      "price": "1011000000000000000000",
      "reserved": "",
      "salt": "0x8c5404f24a4c3ef14c06a217316e44ab7384be2030f2434d86af4f9d441350d7",
      "assetIds": []
    },
    {
      "x": 175,
      "y": 306,
      "size": 1,
      "price": "1011000000000000000000",
      "reserved": "",
      "salt": "0x11ecdde9a146c8ddc6a5a860514a759273a9c9f788f1f38139dc89eda1b9ec57",
      "assetIds": []
    },
    {
      "x": 176,
      "y": 305,
      "size": 1,
      "price": "1011000000000000000000",
      "reserved": "",
      "salt": "0x4b8c9f4ae60da3f91b076a2ae6d4b3d7ea67f9f3eafc8407cbca07625ff1e985",
      "assetIds": []
    },
    {
      "x": 174,
      "y": 304,
      "size": 1,
      "price": "1011000000000000000000",
      "reserved": "",
      "salt": "0xd124f60b131b24b752236c351b352ba723fffbce7165d71745e46799aa83bf1c",
      "assetIds": []
    },
    {
      "x": 174,
      "y": 303,
      "size": 1,
      "price": "1011000000000000000000",
      "reserved": "",
      "salt": "0x4e69023ab125c6b264e7069cdaa098e114ec7b7990df3a10c976a1de1aba5164",
      "assetIds": []
    },
    {
      "x": 174,
      "y": 302,
      "size": 1,
      "price": "1011000000000000000000",
      "reserved": "",
      "salt": "0xf4c494bf17043da0f1784d810efb9c769daeb56a2a3a62374d3a8cf9f112a408",
      "assetIds": []
    },
    {
      "x": 174,
      "y": 301,
      "size": 1,
      "price": "1011000000000000000000",
      "reserved": "",
      "salt": "0x11efe1786f52b0f1531b2c3c875964a437e6fa8fa4e5659504c7414a7dcce932",
      "assetIds": []
    },
    {
      "x": 175,
      "y": 301,
      "size": 1,
      "price": "1011000000000000000000",
      "reserved": "",
      "salt": "0x29e7cc6d97520aefda330f473fa355f1da9c0625437e02b9482fba3a3835838e",
      "assetIds": []
    },
    {
      "x": 175,
      "y": 300,
      "size": 1,
      "price": "1011000000000000000000",
      "reserved": "",
      "salt": "0xd0c03f0df631f69bfbf68e9a54e7eea1431e6bf59b9b610274ebeea3109cf449",
      "assetIds": []
    },
    {
      "x": 177,
      "y": 300,
      "size": 1,
      "price": "1011000000000000000000",
      "reserved": "",
      "salt": "0xd4525cc8967f1b38b420a48ad7d3db545abe0acc2cf99dd44934f2b3665c310f",
      "assetIds": []
    },
    {
      "x": 177,
      "y": 299,
      "size": 1,
      "price": "1011000000000000000000",
      "reserved": "",
      "salt": "0xc6954729bc7c7139d72d37c7c3b72589a1177df4177f06e55c7476c09b8531ee",
      "assetIds": []
    },
    {
      "x": 177,
      "y": 298,
      "size": 1,
      "price": "1011000000000000000000",
      "reserved": "",
      "salt": "0x0cc8f48dda0491e41c691fa044cb7fac9a1049b2f14c6688e2cede8c1a2c52d0",
      "assetIds": []
    },
    {
      "x": 178,
      "y": 298,
      "size": 1,
      "price": "1011000000000000000000",
      "reserved": "",
      "salt": "0x1cb5e5186b031ce0d073996ba7976c5fd2d835bbd1aa4add220cbd415a838e64",
      "assetIds": []
    },
    {
      "x": 178,
      "y": 297,
      "size": 1,
      "price": "1011000000000000000000",
      "reserved": "",
      "salt": "0x6b26f4fc149e2f1c27433cedf56fcc9b655f789e41021f53093e040e184cd5bb",
      "assetIds": []
    },
    {
      "x": 177,
      "y": 297,
      "size": 1,
      "price": "1011000000000000000000",
      "reserved": "",
      "salt": "0x537196e1a1b2b25b8a05868f7e0c07a9edb578e132892a4196ad5791a63ccb23",
      "assetIds": []
    },
    {
      "x": 178,
      "y": 299,
      "size": 1,
      "price": "1011000000000000000000",
      "reserved": "",
      "salt": "0xba92398a5788161a08d4e78097a12ed7bb506f2916f9b3c615116ff6974e52b4",
      "assetIds": []
    },
    {
      "x": 178,
      "y": 300,
      "size": 1,
      "price": "1011000000000000000000",
      "reserved": "",
      "salt": "0x720fed2e88c2f59cbe0e3236966b64d5c61cab47dd746b08e9ce034b269f8fd4",
      "assetIds": []
    },
    {
      "x": 179,
      "y": 300,
      "size": 1,
      "price": "1011000000000000000000",
      "reserved": "",
      "salt": "0xc9902b6c770a40376620fdf8dce32cbf2d075d5886aeabb37410436188845038",
      "assetIds": []
    },
    {
      "x": 179,
      "y": 301,
      "size": 1,
      "price": "1011000000000000000000",
      "reserved": "",
      "salt": "0x94cb7d69b8fec31ad92c216faba45e12fa8a8c8a0cc325607a9dccd1ef2b8593",
      "assetIds": []
    },
    {
      "x": 180,
      "y": 301,
      "size": 1,
      "price": "1011000000000000000000",
      "reserved": "",
      "salt": "0x8673805000997cd183b7b7e808361bc6a7e223b2a5703b6ce157ccaba883be00",
      "assetIds": []
    },
    {
      "x": 181,
      "y": 301,
      "size": 1,
      "price": "1011000000000000000000",
      "reserved": "",
      "salt": "0xe47273e949bd9f73832e6b91221d1c10852fdaf028cbad87b2fe02d22bfece7a",
      "assetIds": []
    },
    {
      "x": 182,
      "y": 301,
      "size": 1,
      "price": "1011000000000000000000",
      "reserved": "",
      "salt": "0x2f93f6b8c71e1c140c05980bdac037c765d4aeeab0fb52087a4fdc3e299db9bd",
      "assetIds": []
    },
    {
      "x": 183,
      "y": 301,
      "size": 1,
      "price": "1011000000000000000000",
      "reserved": "",
      "salt": "0x34ed318093be702a1ed631be127c0ac302cf0efa60eac149e5131bb77ff4d604",
      "assetIds": []
    },
    {
      "x": 183,
      "y": 300,
      "size": 1,
      "price": "1011000000000000000000",
      "reserved": "",
      "salt": "0x077dfd0a0cc77393cfbc66504a656743ffba6299b14b7b432d01a32015238f6d",
      "assetIds": []
    },
    {
      "x": 184,
      "y": 301,
      "size": 1,
      "price": "1011000000000000000000",
      "reserved": "",
      "salt": "0x2ee8766d09eb646da186aff673b1d3d0d884d7f7276b0684fb8ebcd7877e00a7",
      "assetIds": []
    },
    {
      "x": 185,
      "y": 301,
      "size": 1,
      "price": "1011000000000000000000",
      "reserved": "",
      "salt": "0xdad97180879319d90d8d4fde65c1d0f2f8e4a763b1806c10c62a1275417237d0",
      "assetIds": []
    },
    {
      "x": 186,
      "y": 301,
      "size": 1,
      "price": "1011000000000000000000",
      "reserved": "",
      "salt": "0xde46ce9f0d6a97e4371baac116e599c764857b18d725f7c74d7cd55deba1beee",
      "assetIds": []
    },
    {
      "x": 187,
      "y": 301,
      "size": 1,
      "price": "1011000000000000000000",
      "reserved": "",
      "salt": "0xd7f20214470c9c805a89a07ace3c5bdf343b64579621d38b9794b916c0c9b27a",
      "assetIds": []
    },
    {
      "x": 188,
      "y": 301,
      "size": 1,
      "price": "1011000000000000000000",
      "reserved": "",
      "salt": "0x878de53d0b3790e9cbb9efa1e771780ced00fbfe1453b7dee1c9bbe476e20ba0",
      "assetIds": []
    },
    {
      "x": 188,
      "y": 302,
      "size": 1,
      "price": "1011000000000000000000",
      "reserved": "",
      "salt": "0x89e4557f75bb22dfaddd55ff2fc5e1ac993445f3c26dcc6e15afd16a6cda7b83",
      "assetIds": []
    },
    {
      "x": 189,
      "y": 303,
      "size": 1,
      "price": "1011000000000000000000",
      "reserved": "",
      "salt": "0x9e7e1405e5c1ae84632111e5218f12b8d1c604b8f4bdadff1181c4f9148c2f48",
      "assetIds": []
    },
    {
      "x": 190,
      "y": 303,
      "size": 1,
      "price": "1011000000000000000000",
      "reserved": "",
      "salt": "0xad0f4c5f2b71c87b3e73bfad4b322e5868a03a734a48d0b3f7b3aadd6b60096d",
      "assetIds": []
    },
    {
      "x": 191,
      "y": 303,
      "size": 1,
      "price": "1011000000000000000000",
      "reserved": "",
      "salt": "0x4af8a7d0167d1055230275dcdf90d14c05a0c838fae56cc8294ab74a6919905a",
      "assetIds": []
    },
    {
      "x": 191,
      "y": 305,
      "size": 1,
      "price": "1011000000000000000000",
      "reserved": "",
      "salt": "0x335f07a21f28661cf1bcca22c46b6269e973b07be5f30d0a0abb0c39c36230aa",
      "assetIds": []
    },
    {
      "x": 190,
      "y": 305,
      "size": 1,
      "price": "1011000000000000000000",
      "reserved": "",
      "salt": "0xea1eb83aee6f9bcdb4df7ae171c521ab93cad78fcf1995e61d6c77ddd2bcaceb",
      "assetIds": []
    },
    {
      "x": 190,
      "y": 306,
      "size": 1,
      "price": "1011000000000000000000",
      "reserved": "",
      "salt": "0xc39d69fedeae99d1339cd16c463da5e3d5577fca9dbdc7cca3022d4cbd231786",
      "assetIds": []
    },
    {
      "x": 189,
      "y": 305,
      "size": 1,
      "price": "1011000000000000000000",
      "reserved": "",
      "salt": "0x3572bdaa11d1bd91acbb31ebf88fb776b25c52b48739807bc7d74537791bf533",
      "assetIds": []
    },
    {
      "x": 190,
      "y": 304,
      "size": 1,
      "price": "1011000000000000000000",
      "reserved": "",
      "salt": "0x3b5bdfb1a788138132ff72d2ebc08e06bc84db40f439c0ce61e81b4773a00c58",
      "assetIds": []
    },
    {
      "x": 189,
      "y": 304,
      "size": 1,
      "price": "1011000000000000000000",
      "reserved": "",
      "salt": "0xc344416b1076d904988020152880b6f839edaff3a39e4746359d508f0edace7c",
      "assetIds": []
    },
    {
      "x": 188,
      "y": 304,
      "size": 1,
      "price": "1011000000000000000000",
      "reserved": "",
      "salt": "0x2832f1c25dc2233d8a09897d59e2d96501b6713df5f1adbca984437d97c6ef1a",
      "assetIds": []
    },
    {
      "x": 187,
      "y": 304,
      "size": 1,
      "price": "1011000000000000000000",
      "reserved": "",
      "salt": "0xe66756fd9542d4605c92bd8844f146619d547a8550270e4f3dd5459aa0a0ecf0",
      "assetIds": []
    },
    {
      "x": 186,
      "y": 304,
      "size": 1,
      "price": "1011000000000000000000",
      "reserved": "",
      "salt": "0xe99bae0dc24bfe3a61b8b28b2f73a89cc0f7a7d1de00c6bbe4be6fb6f660bccb",
      "assetIds": []
    },
    {
      "x": 185,
      "y": 304,
      "size": 1,
      "price": "1011000000000000000000",
      "reserved": "",
      "salt": "0x64692bcfe29be3de84636b1acc823f178fd6e70f4029a8270df6c98995b99b11",
      "assetIds": []
    },
    {
      "x": 185,
      "y": 305,
      "size": 1,
      "price": "1011000000000000000000",
      "reserved": "",
      "salt": "0x0aea71e1c017d01f02f9947df48608a731a678606b83b73c4955a93a566fceba",
      "assetIds": []
    },
    {
      "x": 184,
      "y": 305,
      "size": 1,
      "price": "1011000000000000000000",
      "reserved": "",
      "salt": "0x8219fa0785a2fb5ad04b2b4ffe2aa637a96014c8a930cb731f50b611e15c57fc",
      "assetIds": []
    },
    {
      "x": 183,
      "y": 305,
      "size": 1,
      "price": "1011000000000000000000",
      "reserved": "",
      "salt": "0xc3177b6d7cc9ae0fed71964ba3bd2fd8adc8a585a0027f45a94700b37e85ed54",
      "assetIds": []
    },
    {
      "x": 183,
      "y": 304,
      "size": 1,
      "price": "1011000000000000000000",
      "reserved": "",
      "salt": "0xe243cf2228087b610f9ce8ae0186eacf1315104f74d79b764acf59adaa64e031",
      "assetIds": []
    },
    {
      "x": 184,
      "y": 304,
      "size": 1,
      "price": "1011000000000000000000",
      "reserved": "",
      "salt": "0xa2e4fd26cdae0ab67f1cc1c25ec19659fba68b613fe156a3c4f9bf0626ac8c35",
      "assetIds": []
    },
    {
      "x": 184,
      "y": 303,
      "size": 1,
      "price": "1011000000000000000000",
      "reserved": "",
      "salt": "0x85b92336c89c3d444785d5da1e4cdc6083eebd4527b83c43ef948cacabca36b1",
      "assetIds": []
    },
    {
      "x": 186,
      "y": 303,
      "size": 1,
      "price": "1011000000000000000000",
      "reserved": "",
      "salt": "0x2a5209fe36c847008fca6a99da9251fc5795349f52f2ad769d9579cf0293d1c7",
      "assetIds": []
    },
    {
      "x": 188,
      "y": 303,
      "size": 1,
      "price": "1011000000000000000000",
      "reserved": "",
      "salt": "0x32a3c07383fcd2318eb18f3399296ca30a9803ee4e42ec678ffc6a01afa9f852",
      "assetIds": []
    },
    {
      "x": 187,
      "y": 302,
      "size": 1,
      "price": "1011000000000000000000",
      "reserved": "",
      "salt": "0x384861566e53c79faa5d703de873064fad1462fffb01ee635c277a222f305e12",
      "assetIds": []
    },
    {
      "x": 186,
      "y": 302,
      "size": 1,
      "price": "1011000000000000000000",
      "reserved": "",
      "salt": "0x839749e6ef67ecdd5bb519affa7a2a40fcbe177cf94d7029d943d9f4d36b425e",
      "assetIds": []
    },
    {
      "x": 185,
      "y": 302,
      "size": 1,
      "price": "1011000000000000000000",
      "reserved": "",
      "salt": "0xa744e3071ed681d72a249d7daf4553451c59562b798f7de112da7007904207e4",
      "assetIds": []
    },
    {
      "x": 184,
      "y": 302,
      "size": 1,
      "price": "1011000000000000000000",
      "reserved": "",
      "salt": "0x020fbaaa2226a2ef191cb7807b0392389d8ab0723d5b04d541f3f42727685aba",
      "assetIds": []
    },
    {
      "x": 183,
      "y": 302,
      "size": 1,
      "price": "1011000000000000000000",
      "reserved": "",
      "salt": "0xe8e97ec23e9d1dfe30ee7c34e8fc8eedbb7716c9857e796f136a7a5fecddab52",
      "assetIds": []
    },
    {
      "x": 182,
      "y": 302,
      "size": 1,
      "price": "1011000000000000000000",
      "reserved": "",
      "salt": "0xb33376e181c387de5b73d736512fbee34d339da8e792e4aa27e03b6bb9907c3b",
      "assetIds": []
    },
    {
      "x": 183,
      "y": 303,
      "size": 1,
      "price": "1011000000000000000000",
      "reserved": "",
      "salt": "0x68d89fb765b90965b3cb58954998539baeb157cd07fe42cbdb00a80e342b6999",
      "assetIds": []
    },
    {
      "x": 180,
      "y": 302,
      "size": 1,
      "price": "1011000000000000000000",
      "reserved": "",
      "salt": "0xcc2a2ce5d964b2e4f14b99e9e2a4157fb9d73c6398f9ecc388cf8219cdc4c9e6",
      "assetIds": []
    },
    {
      "x": 179,
      "y": 302,
      "size": 1,
      "price": "1011000000000000000000",
      "reserved": "",
      "salt": "0x8b623ee4658d70ea04de973c9b6bc31c20976ad2d9ecb9f9f1ba366e4f45f9b3",
      "assetIds": []
    },
    {
      "x": 178,
      "y": 302,
      "size": 1,
      "price": "1011000000000000000000",
      "reserved": "",
      "salt": "0xb1384b5c048c9fc11be29c45729394cd9578df4d95cfe97dc2be944ddbf8bc85",
      "assetIds": []
    },
    {
      "x": 177,
      "y": 302,
      "size": 1,
      "price": "1011000000000000000000",
      "reserved": "",
      "salt": "0x817121789e45fe00e1b6df9e51492a6480bcc50a3ec32d9990b8f3e930d50070",
      "assetIds": []
    },
    {
      "x": 176,
      "y": 303,
      "size": 1,
      "price": "1011000000000000000000",
      "reserved": "",
      "salt": "0x0a2bb80aff58b9dfc46bed6784826def568686daff465798330ea72f22ce39a0",
      "assetIds": []
    },
    {
      "x": 176,
      "y": 304,
      "size": 1,
      "price": "1011000000000000000000",
      "reserved": "",
      "salt": "0xbe7f5119825915f1467a26d045077f248d457f8f7779edbe55d8ffa1ac06756e",
      "assetIds": []
    },
    {
      "x": 175,
      "y": 303,
      "size": 1,
      "price": "1011000000000000000000",
      "reserved": "",
      "salt": "0x7580f1c829e4b95915d4fb4221cb2ca044cabfb04bdaf75f54f050f2ed05ae49",
      "assetIds": []
    },
    {
      "x": 175,
      "y": 302,
      "size": 1,
      "price": "1011000000000000000000",
      "reserved": "",
      "salt": "0xa9b73aced1a2ef8af1a28130b6ae1d28a650876d392a16e0f8f990c82e5cfd37",
      "assetIds": []
    },
    {
      "x": 176,
      "y": 302,
      "size": 1,
      "price": "1011000000000000000000",
      "reserved": "",
      "salt": "0x0cf1f295023953404514807d198534506eb5b83baeda4ac571871915a9584575",
      "assetIds": []
    },
    {
      "x": 176,
      "y": 301,
      "size": 1,
      "price": "1011000000000000000000",
      "reserved": "",
      "salt": "0x32824833ec75705b5d34d3bcdc43c424021d3a956b65661af2f2307a1eeab381",
      "assetIds": []
    },
    {
      "x": 177,
      "y": 301,
      "size": 1,
      "price": "1011000000000000000000",
      "reserved": "",
      "salt": "0xdb719b74b811c85af5146dd7ec0c2530d5ac5119d657ca2ff9ca7cef2550f518",
      "assetIds": []
    },
    {
      "x": 178,
      "y": 301,
      "size": 1,
      "price": "1011000000000000000000",
      "reserved": "",
      "salt": "0x86a392e3609566ba83d6d5e33324fc814bcdc243d691f04739eeaade0a7f3fc4",
      "assetIds": []
    },
    {
      "x": 174,
      "y": 296,
      "size": 1,
      "price": "1011000000000000000000",
      "reserved": "",
      "salt": "0x3892a75054072018fcdf359a40315f1462292fffb1148802e6cec721556a6e81",
      "assetIds": []
    },
    {
      "x": 174,
      "y": 295,
      "size": 1,
      "price": "1011000000000000000000",
      "reserved": "",
      "salt": "0xea3aac3dc4c05e033fb8dcb3c4876c7485eb32f679880a5481adb4adac1b7120",
      "assetIds": []
    },
    {
      "x": 174,
      "y": 294,
      "size": 1,
      "price": "1011000000000000000000",
      "reserved": "",
      "salt": "0x3dcb14de338dee068c3bbfb1449acfe025e77566767f64fc14d2478dc46cd089",
      "assetIds": []
    },
    {
      "x": 174,
      "y": 293,
      "size": 1,
      "price": "1011000000000000000000",
      "reserved": "",
      "salt": "0xb07d48f2d2d2d5d6cc81ee8d10ccade47c0e5811a258a4d2001df16e1b2ea468",
      "assetIds": []
    },
    {
      "x": 174,
      "y": 292,
      "size": 1,
      "price": "1011000000000000000000",
      "reserved": "",
      "salt": "0x438d0c66d82a0e8f3e5d7748d5b33b4fe2a919837125c86e3c46b83c68e94fbd",
      "assetIds": []
    },
    {
      "x": 174,
      "y": 291,
      "size": 1,
      "price": "1011000000000000000000",
      "reserved": "",
      "salt": "0xd6f9a6e7ee69d9f842c121ec2f819b7ac2beb96d92f4d31788d09c63a6ff1f69",
      "assetIds": []
    },
    {
      "x": 174,
      "y": 290,
      "size": 1,
      "price": "1011000000000000000000",
      "reserved": "",
      "salt": "0xca4e0066469cde829d2c585655a7bc061a1798d782283113dd287fe5b5bc77e9",
      "assetIds": []
    },
    {
      "x": 174,
      "y": 289,
      "size": 1,
      "price": "1011000000000000000000",
      "reserved": "",
      "salt": "0x7e29cfc4392ceceaccd7c94a4bcbe507d884c00b96d6dd99bf1eb7b972cf4726",
      "assetIds": []
    },
    {
      "x": 174,
      "y": 288,
      "size": 1,
      "price": "1011000000000000000000",
      "reserved": "",
      "salt": "0x66cee2b4113aca6d974041147b5658301a291badbc6e637da62245578f185212",
      "assetIds": []
    },
    {
      "x": 175,
      "y": 288,
      "size": 1,
      "price": "1011000000000000000000",
      "reserved": "",
      "salt": "0x2366d10fe201c9339ef25e4a2095b7b729ea3bec9900c03233c469462afcd55c",
      "assetIds": []
    },
    {
      "x": 176,
      "y": 289,
      "size": 1,
      "price": "1011000000000000000000",
      "reserved": "",
      "salt": "0x7a1ea925e1f4442770520f0e8f788069a0803c3caaa0b77481d2f6b40de86f06",
      "assetIds": []
    },
    {
      "x": 177,
      "y": 289,
      "size": 1,
      "price": "1011000000000000000000",
      "reserved": "",
      "salt": "0xf5158beb3036f719b4694ba23f5a7630a4ba839330602797ef99e216c4676f63",
      "assetIds": []
    },
    {
      "x": 178,
      "y": 289,
      "size": 1,
      "price": "1011000000000000000000",
      "reserved": "",
      "salt": "0xe97a466a3b906b0f56a5841f8723b1a0d467d29c2485fc331f71a415ebebbb05",
      "assetIds": []
    },
    {
      "x": 178,
      "y": 288,
      "size": 1,
      "price": "1011000000000000000000",
      "reserved": "",
      "salt": "0x7def85448712b1b4a23816b9a44054bd052b23a362622d2d6f6a66a9e15df297",
      "assetIds": []
    },
    {
      "x": 178,
      "y": 291,
      "size": 1,
      "price": "1011000000000000000000",
      "reserved": "",
      "salt": "0x95a8b4bfa7f7606cd0675e4b696c8e74483eefa71fa70f26448ab22c7ac8b13d",
      "assetIds": []
    },
    {
      "x": 178,
      "y": 292,
      "size": 1,
      "price": "1011000000000000000000",
      "reserved": "",
      "salt": "0x9f19349cf1a34398e9366131c1315ee799c17f8d919dca2861f1f6fb9b643584",
      "assetIds": []
    },
    {
      "x": 178,
      "y": 293,
      "size": 1,
      "price": "1011000000000000000000",
      "reserved": "",
      "salt": "0x583ba647a0a3e88e67ebf94ae1be4c0dc3d811fd2781d2f1a160ac89e5864e79",
      "assetIds": []
    },
    {
      "x": 178,
      "y": 290,
      "size": 1,
      "price": "1011000000000000000000",
      "reserved": "",
      "salt": "0x8da82c4d2005a5460bbf2297196d9576cf8fe169d72b7e0dd7c228d9622fd5b8",
      "assetIds": []
    },
    {
      "x": 177,
      "y": 290,
      "size": 1,
      "price": "1011000000000000000000",
      "reserved": "",
      "salt": "0xd722f380febce190d0b51054d33cbdfe851714eca1b7ef70d1194207f8c00aee",
      "assetIds": []
    },
    {
      "x": 175,
      "y": 296,
      "size": 1,
      "price": "1011000000000000000000",
      "reserved": "",
      "salt": "0x33f2787408eb26807abef0eaa869f5075e61e41dddb36da1a087ba317ebac6e2",
      "assetIds": []
    },
    {
      "x": 175,
      "y": 295,
      "size": 1,
      "price": "1011000000000000000000",
      "reserved": "",
      "salt": "0x91fa1d9a6b20df0da2e54af0470f54412a7c588110cc26c5c2aaad670893d2e0",
      "assetIds": []
    },
    {
      "x": 175,
      "y": 294,
      "size": 1,
      "price": "1011000000000000000000",
      "reserved": "",
      "salt": "0x9b283a50b4bb35710433b7f80fc458fb107b6cf6b8ac2957f3ca014323b96911",
      "assetIds": []
    },
    {
      "x": 175,
      "y": 293,
      "size": 1,
      "price": "1011000000000000000000",
      "reserved": "",
      "salt": "0x1febed36a487f5c394f1388ab73e0c29e25a33d78fdd68fa78d329b95d0fb98b",
      "assetIds": []
    },
    {
      "x": 176,
      "y": 293,
      "size": 1,
      "price": "1011000000000000000000",
      "reserved": "",
      "salt": "0x4b7ba859316a2a1e98cddca4887ec5b4fe303096f72260b4e3a25954979b03d1",
      "assetIds": []
    },
    {
      "x": 176,
      "y": 292,
      "size": 1,
      "price": "1011000000000000000000",
      "reserved": "",
      "salt": "0xef65415614201f99dce9ddcf8700ec7e4fee07cfa84af220540e31d8a114f25c",
      "assetIds": []
    },
    {
      "x": 176,
      "y": 290,
      "size": 1,
      "price": "1011000000000000000000",
      "reserved": "",
      "salt": "0xcc8311a7e3748541af88b0b566b8163d89928de4bfc48ea7068ca0050017a14a",
      "assetIds": []
    },
    {
      "x": 176,
      "y": 296,
      "size": 1,
      "price": "1011000000000000000000",
      "reserved": "",
      "salt": "0xee573502b64849b4bce1c8ef66533e2a75c7c436bb1fc74a865f4374110790fe",
      "assetIds": []
    },
    {
      "x": 176,
      "y": 295,
      "size": 1,
      "price": "1011000000000000000000",
      "reserved": "",
      "salt": "0xb2eae5f2713fa5d360d4eca53683862e297b839c97c8ea918d9cf393075b7818",
      "assetIds": []
    },
    {
      "x": 176,
      "y": 294,
      "size": 1,
      "price": "1011000000000000000000",
      "reserved": "",
      "salt": "0x8abc646846c910f0a73189709b6dabefed3ca9d661995d7537036fdae307a9c6",
      "assetIds": []
    },
    {
      "x": 177,
      "y": 293,
      "size": 1,
      "price": "1011000000000000000000",
      "reserved": "",
      "salt": "0xa025872c50fdd3ee1d357957bfc58693ae2b410a0dc56b0c8aabfa6b55fb35f3",
      "assetIds": []
    },
    {
      "x": 177,
      "y": 292,
      "size": 1,
      "price": "1011000000000000000000",
      "reserved": "",
      "salt": "0x3098fef3cdf8306472668e325750e9dbb5cc7459474265e0673d2961b43e7904",
      "assetIds": []
    },
    {
      "x": 177,
      "y": 291,
      "size": 1,
      "price": "1011000000000000000000",
      "reserved": "",
      "salt": "0x07a8f669c3b7f58de8de4d4e8e66e19739f772da323de2c37500e3f11179ba47",
      "assetIds": []
    },
    {
      "x": 175,
      "y": 292,
      "size": 1,
      "price": "1011000000000000000000",
      "reserved": "",
      "salt": "0x760c7fd95f0e55fc478dfdfdaf642c259e677dc37161a9df21a203adbd35079b",
      "assetIds": []
    },
    {
      "x": 175,
      "y": 290,
      "size": 1,
      "price": "1011000000000000000000",
      "reserved": "",
      "salt": "0xf0a7d9a51e11f4cc88ed9e240ea5748537d70e7a6dc533fbb121820c9417df05",
      "assetIds": []
    },
    {
      "x": 175,
      "y": 289,
      "size": 1,
      "price": "1011000000000000000000",
      "reserved": "",
      "salt": "0xeb5721a5c990d2e38fcb0cea7e54d4e805cabea81ef896668e46e368a9f8298f",
      "assetIds": []
    },
    {
      "x": 197,
      "y": 299,
      "size": 1,
      "price": "1011000000000000000000",
      "reserved": "",
      "salt": "0xaf592cae14d9c32aa2beefc91c99fd6cef22ade0d268fca7bec1978b36e621c9",
      "assetIds": []
    },
    {
      "x": 197,
      "y": 298,
      "size": 1,
      "price": "1011000000000000000000",
      "reserved": "",
      "salt": "0xca030ab6abf280cfa86537327e03decd9da25780cf316ceeb46f448ccc99cb55",
      "assetIds": []
    },
    {
      "x": 197,
      "y": 297,
      "size": 1,
      "price": "1011000000000000000000",
      "reserved": "",
      "salt": "0xf269d5039a3489af75bf72e44c8f5a1658f6b1025e7257c47f4e3e7c8525d46c",
      "assetIds": []
    },
    {
      "x": 197,
      "y": 296,
      "size": 1,
      "price": "1011000000000000000000",
      "reserved": "",
      "salt": "0xbaa04247e4551df163cf07e3dd4df7cb8ee0167f0316777ca993baa3f513c882",
      "assetIds": []
    },
    {
      "x": 197,
      "y": 295,
      "size": 1,
      "price": "1011000000000000000000",
      "reserved": "",
      "salt": "0x027297e96aef140c442876012a6bec8c339492b316baae49d1eb86cf6656a487",
      "assetIds": []
    },
    {
      "x": 197,
      "y": 294,
      "size": 1,
      "price": "1011000000000000000000",
      "reserved": "",
      "salt": "0xba2ce8cc302e354971fe4606673243af102f0fe947ef3122f5a250b4f2ce35b5",
      "assetIds": []
    },
    {
      "x": 197,
      "y": 293,
      "size": 1,
      "price": "1011000000000000000000",
      "reserved": "",
      "salt": "0x31674d599d3036fe6c1f4b7794e8798b8b46f946271d372830f089b807d892a5",
      "assetIds": []
    },
    {
      "x": 197,
      "y": 292,
      "size": 1,
      "price": "1011000000000000000000",
      "reserved": "",
      "salt": "0x2ea15b20faa0247166ecddea94ca89b9042929b3ba58a513c38c6054354aaea7",
      "assetIds": []
    },
    {
      "x": 197,
      "y": 291,
      "size": 1,
      "price": "1011000000000000000000",
      "reserved": "",
      "salt": "0x3cb99518cf043cdb7482be14fed82c585761ceeb48f6450f975bd2aa13c5b9c7",
      "assetIds": []
    },
    {
      "x": 196,
      "y": 291,
      "size": 1,
      "price": "1011000000000000000000",
      "reserved": "",
      "salt": "0x39ff72d88480f40afeeb61941666f1443f55302251583651d82cc6d39c3dbce0",
      "assetIds": []
    },
    {
      "x": 196,
      "y": 292,
      "size": 1,
      "price": "1011000000000000000000",
      "reserved": "",
      "salt": "0x61d694478a635490f656178f57743a425801edfc6da34dbe5322d6b342fc3a27",
      "assetIds": []
    },
    {
      "x": 195,
      "y": 292,
      "size": 1,
      "price": "1011000000000000000000",
      "reserved": "",
      "salt": "0x93d4ada0d15f3469f438ccdafc2c62442a55dc9b59802391ff3b19a374363d10",
      "assetIds": []
    },
    {
      "x": 195,
      "y": 291,
      "size": 1,
      "price": "1011000000000000000000",
      "reserved": "",
      "salt": "0x23b87ce57787342ec83289fe1fa401b2bfaa4475e9cb1fe8d5eaa2d3c4eb15cb",
      "assetIds": []
    },
    {
      "x": 195,
      "y": 293,
      "size": 1,
      "price": "1011000000000000000000",
      "reserved": "",
      "salt": "0xba2506da25efc4fe0cd7aa6256095d7f5aaf19c796af65499cbd85d1ec69de9f",
      "assetIds": []
    },
    {
      "x": 195,
      "y": 294,
      "size": 1,
      "price": "1011000000000000000000",
      "reserved": "",
      "salt": "0x080ef91bd2e4a03fd3ffd2af05b2a3105911fbc5439118ff01ecbce72831e9a8",
      "assetIds": []
    },
    {
      "x": 195,
      "y": 295,
      "size": 1,
      "price": "1011000000000000000000",
      "reserved": "",
      "salt": "0x39079bccdbb45c0dbca80cbfccad6ea6acd1e4f6538eeb7f69bd14b57477029b",
      "assetIds": []
    },
    {
      "x": 195,
      "y": 296,
      "size": 1,
      "price": "1011000000000000000000",
      "reserved": "",
      "salt": "0x726d3e7d9be094486bb0f343f4152be320c00704f609a41f43cc70b821725072",
      "assetIds": []
    },
    {
      "x": 195,
      "y": 298,
      "size": 1,
      "price": "1011000000000000000000",
      "reserved": "",
      "salt": "0xde41e745b3af5925c3fdb52272b89cfb9a2e5c7994afb2544417eab50030487b",
      "assetIds": []
    },
    {
      "x": 196,
      "y": 299,
      "size": 1,
      "price": "1011000000000000000000",
      "reserved": "",
      "salt": "0xf1258664636714c8efc9ecf68b97c88e8d5f3eca363c15cb9f348af90ecfc0ef",
      "assetIds": []
    },
    {
      "x": 196,
      "y": 298,
      "size": 1,
      "price": "1011000000000000000000",
      "reserved": "",
      "salt": "0x7d2cd64e5fd031239e50eabc13e60ca5f03ce69d24f7e08742a76098fff03744",
      "assetIds": []
    },
    {
      "x": 196,
      "y": 297,
      "size": 1,
      "price": "1011000000000000000000",
      "reserved": "",
      "salt": "0xa450d1c1c91b95e95e62361577fdc4ed9d095de8837659c58afb67ab151177ca",
      "assetIds": []
    },
    {
      "x": 196,
      "y": 294,
      "size": 1,
      "price": "1011000000000000000000",
      "reserved": "",
      "salt": "0x32822a9fba97c7f85279ae0bf383e910bf3e073ace2da82e9eacd965df665f27",
      "assetIds": []
    },
    {
      "x": 196,
      "y": 295,
      "size": 1,
      "price": "1011000000000000000000",
      "reserved": "",
      "salt": "0xa5ff1b6d8d31279ba0add9e3b5dffe8358d117bf423473dc449228a17f598531",
      "assetIds": []
    },
    {
      "x": 196,
      "y": 296,
      "size": 1,
      "price": "1011000000000000000000",
      "reserved": "",
      "salt": "0x637951cf0b28e2b2256ff3a47367c997541dbccd44864ecce42f9ce986e42c8e",
      "assetIds": []
    },
    {
      "x": 194,
      "y": 299,
      "size": 1,
      "price": "1011000000000000000000",
      "reserved": "",
      "salt": "0x00796ee1f46e9eadec2a0a33ef5aa98ad4c56b25b0045afd87f447fcb92e65c9",
      "assetIds": []
    },
    {
      "x": 193,
      "y": 299,
      "size": 1,
      "price": "1011000000000000000000",
      "reserved": "",
      "salt": "0xc0837ab218bf117a0b324f8d297fc1d265150350d7b95c903dbc03d130c4d8b6",
      "assetIds": []
    },
    {
      "x": 193,
      "y": 298,
      "size": 1,
      "price": "1011000000000000000000",
      "reserved": "",
      "salt": "0x70eba73fd58f088abe24497c8fb57c56ad2a7e1caa796faa5493f1b9e17086bd",
      "assetIds": []
    },
    {
      "x": 192,
      "y": 295,
      "size": 1,
      "price": "1011000000000000000000",
      "reserved": "",
      "salt": "0x234362557c244b7fabc6d83ec441e256fe5861b8a664d44491a31adb57de41ee",
      "assetIds": []
    },
    {
      "x": 193,
      "y": 295,
      "size": 1,
      "price": "1011000000000000000000",
      "reserved": "",
      "salt": "0xe569d007db24de435948150718ca82be568c06d562a42aa2efdec9aebb81b2c4",
      "assetIds": []
    },
    {
      "x": 193,
      "y": 294,
      "size": 1,
      "price": "1011000000000000000000",
      "reserved": "",
      "salt": "0x5d2abbfe519e9a1f0460a963e13f99f32b614874c0943c8ac955715d19366443",
      "assetIds": []
    },
    {
      "x": 194,
      "y": 294,
      "size": 1,
      "price": "1011000000000000000000",
      "reserved": "",
      "salt": "0x79d74f454e34c16156ac031b6cfb253be7de4d694ac1f70fdd03e7d678460b7f",
      "assetIds": []
    },
    {
      "x": 194,
      "y": 295,
      "size": 1,
      "price": "1011000000000000000000",
      "reserved": "",
      "salt": "0xbbb48c5b234ec7cb2f924c5e27545812fd853dc48b5d40c5b1bc83bb81f01b16",
      "assetIds": []
    },
    {
      "x": 194,
      "y": 296,
      "size": 1,
      "price": "1011000000000000000000",
      "reserved": "",
      "salt": "0x1f97ba00370b2bba08a7137b4eb5f9754643b4b5acf21ce5deb2b6c662e7ae46",
      "assetIds": []
    },
    {
      "x": 194,
      "y": 297,
      "size": 1,
      "price": "1011000000000000000000",
      "reserved": "",
      "salt": "0x8b0f07b212b10e85feb52ba2507f1da68632ea0e2995d8964d7e1bcf612a77a8",
      "assetIds": []
    },
    {
      "x": 194,
      "y": 298,
      "size": 1,
      "price": "1011000000000000000000",
      "reserved": "",
      "salt": "0xfdbc81273e515dd01a17f607caa58bc6828b632436714e37bd79ff1cdbe82fd9",
      "assetIds": []
    },
    {
      "x": 193,
      "y": 297,
      "size": 1,
      "price": "1011000000000000000000",
      "reserved": "",
      "salt": "0x8ae43815f9e587ca0fa4bfffaf4edb8785559fb101331942c1a9e9dbdad4294d",
      "assetIds": []
    },
    {
      "x": 193,
      "y": 296,
      "size": 1,
      "price": "1011000000000000000000",
      "reserved": "",
      "salt": "0x8b82f74f42772a83ef554bc7f75ad06a021ba5fa69edf9e10a77c0c1ea82b13b",
      "assetIds": []
    },
    {
      "x": 192,
      "y": 287,
      "size": 1,
      "price": "1011000000000000000000",
      "reserved": "",
      "salt": "0x931d2d9f39a23fbfeb8770545a505d788ac6c19178a76d7617b73bf76008cb24",
      "assetIds": []
    },
    {
      "x": 194,
      "y": 287,
      "size": 1,
      "price": "1011000000000000000000",
      "reserved": "",
      "salt": "0x2c1b9082abcf4c68c62aeba1ebd45bccb78b621d41f0f88e489ba4d42e595c0b",
      "assetIds": []
    },
    {
      "x": 194,
      "y": 286,
      "size": 1,
      "price": "1011000000000000000000",
      "reserved": "",
      "salt": "0x93fc6fb4ca27f68126d24e472dcc6cb7fb03307dcfd9ab555c9ddf2f9c58f8ad",
      "assetIds": []
    },
    {
      "x": 194,
      "y": 285,
      "size": 1,
      "price": "1011000000000000000000",
      "reserved": "",
      "salt": "0x6306a1740dc4b3b4668998cc554a68bdbbdcbbc053f64caa54fa7eb90f98f83c",
      "assetIds": []
    },
    {
      "x": 193,
      "y": 285,
      "size": 1,
      "price": "1011000000000000000000",
      "reserved": "",
      "salt": "0x1eba8610e0ff50a51f296395a1e68080f7a1d9a131eef59eba44789d71567f92",
      "assetIds": []
    },
    {
      "x": 192,
      "y": 285,
      "size": 1,
      "price": "1011000000000000000000",
      "reserved": "",
      "salt": "0xb885b246b18bc297110a73010a13b008dc60d240429382fe6568acc7b1527d7c",
      "assetIds": []
    },
    {
      "x": 193,
      "y": 286,
      "size": 1,
      "price": "1011000000000000000000",
      "reserved": "",
      "salt": "0x8d6c095192ad9f517de270f00465e11e307f0dacdfa8f3f0ad55e5acb66ea0da",
      "assetIds": []
    },
    {
      "x": 180,
      "y": 284,
      "size": 1,
      "price": "1011000000000000000000",
      "reserved": "",
      "salt": "0xf85ae7244c4915d1449f3784a93e0cda92293ef36620c663f684ee4ae2108b0f",
      "assetIds": []
    },
    {
      "x": 181,
      "y": 284,
      "size": 1,
      "price": "1011000000000000000000",
      "reserved": "",
      "salt": "0x6d638d6f736a2ad3e520821cbcbf5d2f2d4da610e01748557db2b7f1a0f593b1",
      "assetIds": []
    },
    {
      "x": 182,
      "y": 284,
      "size": 1,
      "price": "1011000000000000000000",
      "reserved": "",
      "salt": "0x35422fe8ad6eb931aa26b00d7d9e958f3aee6a1df62e85dbea021c23be722568",
      "assetIds": []
    },
    {
      "x": 183,
      "y": 284,
      "size": 1,
      "price": "1011000000000000000000",
      "reserved": "",
      "salt": "0xf089bdedc1db29ae46edaeaa27ca0a1ee1e41985366e46b2c0a9c22693d82706",
      "assetIds": []
    },
    {
      "x": 184,
      "y": 284,
      "size": 1,
      "price": "1011000000000000000000",
      "reserved": "",
      "salt": "0x4a2cf9022e67cbbf09cd59181700febed1dee111d88d33e6c788e7ecf0c846cf",
      "assetIds": []
    },
    {
      "x": 185,
      "y": 284,
      "size": 1,
      "price": "1011000000000000000000",
      "reserved": "",
      "salt": "0x7b48713ac86f78a738162ddd610015d1634e4991037df466b555ead3f221375b",
      "assetIds": []
    },
    {
      "x": 185,
      "y": 283,
      "size": 1,
      "price": "1011000000000000000000",
      "reserved": "",
      "salt": "0xf1dee4968a3b046ed3beed76080243bcdabc38a5f8d733781220341884db2428",
      "assetIds": []
    },
    {
      "x": 185,
      "y": 282,
      "size": 1,
      "price": "1011000000000000000000",
      "reserved": "",
      "salt": "0x23612a4687491588ef56e5c22d45865d1ce2a155cb28c98c3f28136ce1fc639f",
      "assetIds": []
    },
    {
      "x": 185,
      "y": 281,
      "size": 1,
      "price": "1011000000000000000000",
      "reserved": "",
      "salt": "0x8144cba10e2069894a3a3a5868ab49bc32246a4b08c13b2564d95addeeb68e06",
      "assetIds": []
    },
    {
      "x": 186,
      "y": 281,
      "size": 1,
      "price": "1011000000000000000000",
      "reserved": "",
      "salt": "0x162d78cbe5223d287d47b81b13b7c7019a5581426c39852f8a812b1e239b713b",
      "assetIds": []
    },
    {
      "x": 187,
      "y": 281,
      "size": 1,
      "price": "1011000000000000000000",
      "reserved": "",
      "salt": "0x2cecad171c1dc414119967791d792b3673fd57151d6fdc182b2bca20102870c8",
      "assetIds": []
    },
    {
      "x": 188,
      "y": 281,
      "size": 1,
      "price": "1011000000000000000000",
      "reserved": "",
      "salt": "0x99916bf9136beafc23a18cc50124b6b877ad01ba70014924ffa0b9b0bfc01206",
      "assetIds": []
    },
    {
      "x": 188,
      "y": 280,
      "size": 1,
      "price": "1011000000000000000000",
      "reserved": "",
      "salt": "0xf8bc2fa43f518a0cf62e190567636d58162ce7b13e5642d2aafb0914d91d5323",
      "assetIds": []
    },
    {
      "x": 188,
      "y": 279,
      "size": 1,
      "price": "1011000000000000000000",
      "reserved": "",
      "salt": "0xb0da5c59f719b96f8787bb147971acaecf8ae26dc6ea9fd051828232e748ebc4",
      "assetIds": []
    },
    {
      "x": 188,
      "y": 278,
      "size": 1,
      "price": "1011000000000000000000",
      "reserved": "",
      "salt": "0x67ba5306cbb797d07218294d091860e5ebb63315e3850e68921393dd2867e195",
      "assetIds": []
    },
    {
      "x": 189,
      "y": 278,
      "size": 1,
      "price": "1011000000000000000000",
      "reserved": "",
      "salt": "0x23101238deb6be2dfb0cf081921d56f847121b6240749fb80ebedc3c61e6ccb5",
      "assetIds": []
    },
    {
      "x": 190,
      "y": 278,
      "size": 1,
      "price": "1011000000000000000000",
      "reserved": "",
      "salt": "0xfd82988210a232604bddb1d482e1d1f536d517afb845520d23b23883b536e4c8",
      "assetIds": []
    },
    {
      "x": 191,
      "y": 278,
      "size": 1,
      "price": "1011000000000000000000",
      "reserved": "",
      "salt": "0x0db04e7c92d0f0cd4dee1e157c278bd1a40f44ece65f9e6f77904e08c396ec51",
      "assetIds": []
    },
    {
      "x": 192,
      "y": 278,
      "size": 1,
      "price": "1011000000000000000000",
      "reserved": "",
      "salt": "0x3b32bc49ef94c4ef1e56ba285c4d1e49c8bdd4e638b4df9fb4b3b012e7243a74",
      "assetIds": []
    },
    {
      "x": 192,
      "y": 279,
      "size": 1,
      "price": "1011000000000000000000",
      "reserved": "",
      "salt": "0x079344a5e6a9f983c38806f746784bab7d9e18a8a70e7574fb833500d39ff460",
      "assetIds": []
    },
    {
      "x": 192,
      "y": 280,
      "size": 1,
      "price": "1011000000000000000000",
      "reserved": "",
      "salt": "0xa7d72a44b33efaabd1c1612c293d984a74456dd2e2498103747ee8540db2ed98",
      "assetIds": []
    },
    {
      "x": 192,
      "y": 281,
      "size": 1,
      "price": "1011000000000000000000",
      "reserved": "",
      "salt": "0xe3d24fe342e7db1338a3e4abc52777e58fea546a493e276926329dcd5c515b40",
      "assetIds": []
    },
    {
      "x": 193,
      "y": 281,
      "size": 1,
      "price": "1011000000000000000000",
      "reserved": "",
      "salt": "0x0e8b99fa049bf38138fff3dc8a5d940737c961477fd6c6c43d73c3e257338520",
      "assetIds": []
    },
    {
      "x": 194,
      "y": 281,
      "size": 1,
      "price": "1011000000000000000000",
      "reserved": "",
      "salt": "0xd2172689c9c7f2431d62ea81efdf8e36efeddc688ab41f1586eb0c6ea055941d",
      "assetIds": []
    },
    {
      "x": 194,
      "y": 280,
      "size": 1,
      "price": "1011000000000000000000",
      "reserved": "",
      "salt": "0x7a2f4ed5227b706c096fada1e2405fe300e8a96ffb361e04054e27f87155ebec",
      "assetIds": []
    },
    {
      "x": 193,
      "y": 280,
      "size": 1,
      "price": "1011000000000000000000",
      "reserved": "",
      "salt": "0xd6cd0c8cc973a004043ec412251cdcc392e2a4213c0664f6e30e1e5ba68a947a",
      "assetIds": []
    },
    {
      "x": 193,
      "y": 279,
      "size": 1,
      "price": "1011000000000000000000",
      "reserved": "",
      "salt": "0x1780e3e01776362eda9a076145eead7e0aa5c843ef79799ef6148ab78fe12d85",
      "assetIds": []
    },
    {
      "x": 193,
      "y": 278,
      "size": 1,
      "price": "1011000000000000000000",
      "reserved": "",
      "salt": "0x15d6a4ad1686bf028990953450a14c0c973b35aec5effe095b077f1305c81dd5",
      "assetIds": []
    },
    {
      "x": 194,
      "y": 279,
      "size": 1,
      "price": "1011000000000000000000",
      "reserved": "",
      "salt": "0xa99b2d842559c35a6f71cc0bf177aa467ab1909ad8a50170ff457c6b1e241ed0",
      "assetIds": []
    },
    {
      "x": 194,
      "y": 278,
      "size": 1,
      "price": "1011000000000000000000",
      "reserved": "",
      "salt": "0xa1ea6549b7076bc3b6c35205f9e292a1c4312d40c1fd2df2ecde22e25049e946",
      "assetIds": []
    },
    {
      "x": 194,
      "y": 277,
      "size": 1,
      "price": "1011000000000000000000",
      "reserved": "",
      "salt": "0x99ba15469604d2137987c794cdd425ff3ced0158ea8088e30fbd54473529e5b3",
      "assetIds": []
    },
    {
      "x": 194,
      "y": 276,
      "size": 1,
      "price": "1011000000000000000000",
      "reserved": "",
      "salt": "0x748b2702d5d21e7e9c1b12f1328ca0be81e33d5fee1fd5916168a2e801aaa4da",
      "assetIds": []
    },
    {
      "x": 193,
      "y": 276,
      "size": 1,
      "price": "1011000000000000000000",
      "reserved": "",
      "salt": "0x571ffa09b6d811ad20238fcb0eee47a16a132c13923d0bbf8dd3c94ed0eb295e",
      "assetIds": []
    },
    {
      "x": 192,
      "y": 276,
      "size": 1,
      "price": "1011000000000000000000",
      "reserved": "",
      "salt": "0x095ad8580a34aac1ce8c5215822a093648f2ad1c501cb00344a3ae852e1242c8",
      "assetIds": []
    },
    {
      "x": 192,
      "y": 277,
      "size": 1,
      "price": "1011000000000000000000",
      "reserved": "",
      "salt": "0xeda48d1cee9ad4986f3107a08559e84e5d38e0606f768d7d747cd85903125746",
      "assetIds": []
    },
    {
      "x": 191,
      "y": 277,
      "size": 1,
      "price": "1011000000000000000000",
      "reserved": "",
      "salt": "0x7976e8ab0b5a6e940e8ebade7d00f3a402c37e43e60eab9864d41455310aa4e7",
      "assetIds": []
    },
    {
      "x": 190,
      "y": 277,
      "size": 1,
      "price": "1011000000000000000000",
      "reserved": "",
      "salt": "0x9dca8502cd0ae0994a83f4e99d19aae361f843c9549785b09d8db4a3b96c8442",
      "assetIds": []
    },
    {
      "x": 189,
      "y": 277,
      "size": 1,
      "price": "1011000000000000000000",
      "reserved": "",
      "salt": "0x45c0b21eaf1cb6ffbe32bc776d8b75c1b05f7b8d4614e6a5d951b0bdca8041f0",
      "assetIds": []
    },
    {
      "x": 188,
      "y": 277,
      "size": 1,
      "price": "1011000000000000000000",
      "reserved": "",
      "salt": "0x06dc90d6a8c18cdc3f9f98638848a01c53b8a166b8acdf6da6c27a08297f6882",
      "assetIds": []
    },
    {
      "x": 187,
      "y": 277,
      "size": 1,
      "price": "1011000000000000000000",
      "reserved": "",
      "salt": "0x88e6af8c0908063f8f40ca3c1d1d03afcca08e05596c343b8a10ae5bf0037e9b",
      "assetIds": []
    },
    {
      "x": 187,
      "y": 278,
      "size": 1,
      "price": "1011000000000000000000",
      "reserved": "",
      "salt": "0x356adec4daff7e3e46f697cd257423a937feb2349aed6df7705bd9c391c14e1e",
      "assetIds": []
    },
    {
      "x": 187,
      "y": 279,
      "size": 1,
      "price": "1011000000000000000000",
      "reserved": "",
      "salt": "0x29b528fc8d3988d7057e6ba42ea1afe582ff63fb8dfc474c58b68dcba3c55ac7",
      "assetIds": []
    },
    {
      "x": 187,
      "y": 280,
      "size": 1,
      "price": "1011000000000000000000",
      "reserved": "",
      "salt": "0x724e666c91162b0080abe1062c9ba49644e925a7d3ce0ffcf2fdc0cfa6e2c080",
      "assetIds": []
    },
    {
      "x": 186,
      "y": 280,
      "size": 1,
      "price": "1011000000000000000000",
      "reserved": "",
      "salt": "0x867004bc98b66d1f824d478e07e1d10f379246b2474328ef37a329626196bd1f",
      "assetIds": []
    },
    {
      "x": 186,
      "y": 279,
      "size": 1,
      "price": "1011000000000000000000",
      "reserved": "",
      "salt": "0x15ebffa93c9f20a6fe2cac9e116424378f372fef032893c3ea451f18f269127c",
      "assetIds": []
    },
    {
      "x": 186,
      "y": 278,
      "size": 1,
      "price": "1011000000000000000000",
      "reserved": "",
      "salt": "0x2ee30f78b9a61b7a37dfb831fbfcb9bc8f7fdfd17b7f7cc2f72572101145a884",
      "assetIds": []
    },
    {
      "x": 186,
      "y": 277,
      "size": 1,
      "price": "1011000000000000000000",
      "reserved": "",
      "salt": "0xf55f095aae10dd21c2265f5a33875c69c7edb8b8c0454924d4790fe6cca28cd2",
      "assetIds": []
    },
    {
      "x": 180,
      "y": 283,
      "size": 1,
      "price": "1011000000000000000000",
      "reserved": "",
      "salt": "0x8556981d7c106027e4ff9dbf32e03a5b1b1500113e32542db7f4f256bbe48fbe",
      "assetIds": []
    },
    {
      "x": 180,
      "y": 282,
      "size": 1,
      "price": "1011000000000000000000",
      "reserved": "",
      "salt": "0xf28e9a9767e7e727576a3252f14dfadbbac8282c671ba15c05a80a3c7cfd1103",
      "assetIds": []
    },
    {
      "x": 180,
      "y": 281,
      "size": 1,
      "price": "1011000000000000000000",
      "reserved": "",
      "salt": "0xb8dcaa3c68ca8f9b3da018a41441ff0934f6291086afc537fb04449a22b0585d",
      "assetIds": []
    },
    {
      "x": 178,
      "y": 281,
      "size": 1,
      "price": "1011000000000000000000",
      "reserved": "",
      "salt": "0x5af7b9d8f5e7f119a1f41744007dbec844370b919e56dc797e077ac77f93a0df",
      "assetIds": []
    },
    {
      "x": 176,
      "y": 281,
      "size": 1,
      "price": "1011000000000000000000",
      "reserved": "",
      "salt": "0x0915735b1fc1bab7d5ce9a95fa7333a9925545b91e0c4f768b5800ef5d407414",
      "assetIds": []
    },
    {
      "x": 174,
      "y": 281,
      "size": 1,
      "price": "1011000000000000000000",
      "reserved": "",
      "salt": "0xce3396290f409041f9dc55936f9539044e5838b35b7c396c23775ee4b4a36d3b",
      "assetIds": []
    },
    {
      "x": 174,
      "y": 280,
      "size": 1,
      "price": "1011000000000000000000",
      "reserved": "",
      "salt": "0xc49c87e9940937f6e5e2bb2d5ecac24d71225cda5f08aed899ba616cb33c5ffa",
      "assetIds": []
    },
    {
      "x": 175,
      "y": 280,
      "size": 1,
      "price": "1011000000000000000000",
      "reserved": "",
      "salt": "0xa25a725e85ae0a10a9061587277e9c3a98f463f6ee25c1e16c0a961b4073f87d",
      "assetIds": []
    },
    {
      "x": 176,
      "y": 280,
      "size": 1,
      "price": "1011000000000000000000",
      "reserved": "",
      "salt": "0x0ba0a9c39330129d693493c7cf5a8c7ba19a1e99f2200c7d196b962f55340504",
      "assetIds": []
    },
    {
      "x": 177,
      "y": 280,
      "size": 1,
      "price": "1011000000000000000000",
      "reserved": "",
      "salt": "0x08df2da3d8f68dc7dacabab6812ce6b46c87299181f0d4e4abc3bf46a33b9643",
      "assetIds": []
    },
    {
      "x": 178,
      "y": 280,
      "size": 1,
      "price": "1011000000000000000000",
      "reserved": "",
      "salt": "0x1e5ab8f83ebc862f5fce1a9d70d3b27e8e889ec70407e90176447a2614381869",
      "assetIds": []
    },
    {
      "x": 179,
      "y": 280,
      "size": 1,
      "price": "1011000000000000000000",
      "reserved": "",
      "salt": "0x5496de5fb2c268e937084c440b47a7d252f2da655af7214375eb84e49795560d",
      "assetIds": []
    },
    {
      "x": 179,
      "y": 279,
      "size": 1,
      "price": "1011000000000000000000",
      "reserved": "",
      "salt": "0xba7546c309467e57ba8a007b37759759c59ea4b837739e8d596c41d7031d2e1b",
      "assetIds": []
    },
    {
      "x": 180,
      "y": 279,
      "size": 1,
      "price": "1011000000000000000000",
      "reserved": "",
      "salt": "0xf9db18fdc18c71440afa74c63c7e4acb7e59993bbb3b885e7053e14ebc192c00",
      "assetIds": []
    },
    {
      "x": 181,
      "y": 279,
      "size": 1,
      "price": "1011000000000000000000",
      "reserved": "",
      "salt": "0xb42f738cfcf1ce68ea5ad4a1c47fbf776852693d92b3bc5717e7909c54d9dec0",
      "assetIds": []
    },
    {
      "x": 181,
      "y": 280,
      "size": 1,
      "price": "1011000000000000000000",
      "reserved": "",
      "salt": "0x4c762f1584b7de223532f7a0de143e47d9beaef68b9ad23e9bc96b810e4152b8",
      "assetIds": []
    },
    {
      "x": 181,
      "y": 281,
      "size": 1,
      "price": "1011000000000000000000",
      "reserved": "",
      "salt": "0x340a9b78f55a8e3fc701e26bb73f7b0594d2d749238ecc0becc890319cd6f819",
      "assetIds": []
    },
    {
      "x": 180,
      "y": 280,
      "size": 1,
      "price": "1011000000000000000000",
      "reserved": "",
      "salt": "0x1204017439014e825c84847f0e6ce6f323308bc715a0b7c21008e1cc565166b9",
      "assetIds": []
    },
    {
      "x": 181,
      "y": 282,
      "size": 1,
      "price": "1011000000000000000000",
      "reserved": "",
      "salt": "0xa1286ecd1dbb5cfa26354a2d51636de4cf5e9add1125eeaf6098b5fc6891e8d4",
      "assetIds": []
    },
    {
      "x": 182,
      "y": 282,
      "size": 1,
      "price": "1011000000000000000000",
      "reserved": "",
      "salt": "0x822d23a226da826074b90e3ce62554f8972db7f7a3c236313eb94aa14d5c1a6b",
      "assetIds": []
    },
    {
      "x": 182,
      "y": 283,
      "size": 1,
      "price": "1011000000000000000000",
      "reserved": "",
      "salt": "0x144d9ab9fc666142d091f87eaf6462fd497003550afd2295fb89fc351b21e495",
      "assetIds": []
    },
    {
      "x": 183,
      "y": 283,
      "size": 1,
      "price": "1011000000000000000000",
      "reserved": "",
      "salt": "0x957693bd42116d6214f117118662609a679c4e49b7a2f0d92a028d36bd341930",
      "assetIds": []
    },
    {
      "x": 184,
      "y": 282,
      "size": 1,
      "price": "1011000000000000000000",
      "reserved": "",
      "salt": "0x24a14a4c7770583118452b42a996cea36ecf7e9a18fe09b66e7be44f4c0af571",
      "assetIds": []
    },
    {
      "x": 184,
      "y": 281,
      "size": 1,
      "price": "1011000000000000000000",
      "reserved": "",
      "salt": "0x0148ba48ab168f28c6ccf4eba7e337d76c8df0f4c1fc60d23d2545984a0a81b9",
      "assetIds": []
    },
    {
      "x": 183,
      "y": 281,
      "size": 1,
      "price": "1011000000000000000000",
      "reserved": "",
      "salt": "0x52c0732d35025da1b8056d2503765685149cb6b0fa288639523a83cbdf9e7166",
      "assetIds": []
    },
    {
      "x": 183,
      "y": 282,
      "size": 1,
      "price": "1011000000000000000000",
      "reserved": "",
      "salt": "0xb3ecf93c8e12a2ac50baa6f2fa325567d0c06fb2fda6d25f027b4b13a75d16ac",
      "assetIds": []
    },
    {
      "x": 182,
      "y": 281,
      "size": 1,
      "price": "1011000000000000000000",
      "reserved": "",
      "salt": "0xc8c47a632d534abc90ac7e3c6e8b5d48e0d2d964ac96bbce940149310eb8624c",
      "assetIds": []
    },
    {
      "x": 182,
      "y": 280,
      "size": 1,
      "price": "1011000000000000000000",
      "reserved": "",
      "salt": "0x166864c68446f587314852bb0e5adeb9c9d33a45ee1acdbeb9ffec1a2a740918",
      "assetIds": []
    },
    {
      "x": 182,
      "y": 279,
      "size": 1,
      "price": "1011000000000000000000",
      "reserved": "",
      "salt": "0x2637debad8f487d807514595f9787d6389a7e6bcb0157580d2e50ce3e10dadd8",
      "assetIds": []
    },
    {
      "x": 184,
      "y": 280,
      "size": 1,
      "price": "1011000000000000000000",
      "reserved": "",
      "salt": "0x4e606633f06a5df5f3b56e5b94d6c3317ddf4bdda46907d6e7da9eb370c8c337",
      "assetIds": []
    },
    {
      "x": 185,
      "y": 280,
      "size": 1,
      "price": "1011000000000000000000",
      "reserved": "",
      "salt": "0xbae76921ee85e48a1730da1f96270538815aaf8788e5f1b07880c8babc18729a",
      "assetIds": []
    },
    {
      "x": 185,
      "y": 279,
      "size": 1,
      "price": "1011000000000000000000",
      "reserved": "",
      "salt": "0x4cbc4fa5c1288eebf4f7b808c973e4f3329af6e7a74bf3bea4b8d63c10b5d549",
      "assetIds": []
    },
    {
      "x": 184,
      "y": 279,
      "size": 1,
      "price": "1011000000000000000000",
      "reserved": "",
      "salt": "0xb50ead4f043ccecf15744490aae83951c1f7cec8483840f31bdea66b6754a4f1",
      "assetIds": []
    },
    {
      "x": 183,
      "y": 279,
      "size": 1,
      "price": "1011000000000000000000",
      "reserved": "",
      "salt": "0x0ccc3f84e962c53db4d54ccf764313b20ab02421a246a65f82c86ccb8ce7d258",
      "assetIds": []
    },
    {
      "x": 182,
      "y": 278,
      "size": 1,
      "price": "1011000000000000000000",
      "reserved": "",
      "salt": "0xec1fbcd0bd401466adf699de1c21cead2cdf3bcfd366de91091324b2293c45cc",
      "assetIds": []
    },
    {
      "x": 181,
      "y": 278,
      "size": 1,
      "price": "1011000000000000000000",
      "reserved": "",
      "salt": "0x48f17346c71346b72c3b4f0edaf07a67ce3935c8c81534de8fd3cf55046f88b3",
      "assetIds": []
    },
    {
      "x": 179,
      "y": 278,
      "size": 1,
      "price": "1011000000000000000000",
      "reserved": "",
      "salt": "0x8446c0dd7f47529de9584620aa4e7a8e3e492041609f699a13b9333ba7ab728f",
      "assetIds": []
    },
    {
      "x": 178,
      "y": 278,
      "size": 1,
      "price": "1011000000000000000000",
      "reserved": "",
      "salt": "0x29ec17363e1c1fd30038c347cfbaf94b349e17084554bb92ebf9543320aea4ad",
      "assetIds": []
    },
    {
      "x": 177,
      "y": 278,
      "size": 1,
      "price": "1011000000000000000000",
      "reserved": "",
      "salt": "0xb9a45224e242c410aa98c2d261f5cb5cc7da44ea322beeb54a8178ee0b0c423f",
      "assetIds": []
    },
    {
      "x": 178,
      "y": 279,
      "size": 1,
      "price": "1011000000000000000000",
      "reserved": "",
      "salt": "0xf7b99a718142797e4075f65853bba3e064bf916299ac871e9c8186848d058402",
      "assetIds": []
    },
    {
      "x": 178,
      "y": 277,
      "size": 1,
      "price": "1011000000000000000000",
      "reserved": "",
      "salt": "0xe6b47ecb75e460c88a5cf19e8e3d387e20335b4cb7e037e7bdb5d87a3147da87",
      "assetIds": []
    },
    {
      "x": 178,
      "y": 276,
      "size": 1,
      "price": "1011000000000000000000",
      "reserved": "",
      "salt": "0xcc8bd20140b0c668949517ff6c8def78a5273db565778b59fdc0ec499d72e6fe",
      "assetIds": []
    },
    {
      "x": 179,
      "y": 276,
      "size": 1,
      "price": "1011000000000000000000",
      "reserved": "",
      "salt": "0xb3b3d18ea9d7f6fbecdb3788893643c3e0d7b575a7eba87c2c12e073de5da647",
      "assetIds": []
    },
    {
      "x": 180,
      "y": 276,
      "size": 1,
      "price": "1011000000000000000000",
      "reserved": "",
      "salt": "0xce06b99ec7901eedcc6731ae7e4eb93af3d14bef708104fdee46adb6944755df",
      "assetIds": []
    },
    {
      "x": 179,
      "y": 277,
      "size": 1,
      "price": "1011000000000000000000",
      "reserved": "",
      "salt": "0x398caa6417720c3445f5e50ce70d49676008d31984d4e348cf0e9aca13f059b2",
      "assetIds": []
    },
    {
      "x": 180,
      "y": 277,
      "size": 1,
      "price": "1011000000000000000000",
      "reserved": "",
      "salt": "0x22d6bd41e1ce096d45fa58f0e8873705bfe4f5d12ec64fb2f8dafed0e2f3b65b",
      "assetIds": []
    },
    {
      "x": 181,
      "y": 277,
      "size": 1,
      "price": "1011000000000000000000",
      "reserved": "",
      "salt": "0xec2ecdcf208793e8109ec35b6e7f30d87293e20df00fcf4bf8a00171b2f0dfb1",
      "assetIds": []
    },
    {
      "x": 182,
      "y": 277,
      "size": 1,
      "price": "1011000000000000000000",
      "reserved": "",
      "salt": "0xc04fcd541dae1ed898ac8f4146060bfc6862eb5dea488eda1fdf050d17a3db4d",
      "assetIds": []
    },
    {
      "x": 182,
      "y": 276,
      "size": 1,
      "price": "1011000000000000000000",
      "reserved": "",
      "salt": "0x826dbf6f219d5864abb893162c612bdea92e4e3ed7681f0751c1dce56aec0d05",
      "assetIds": []
    },
    {
      "x": 183,
      "y": 275,
      "size": 1,
      "price": "1011000000000000000000",
      "reserved": "",
      "salt": "0xfa4111afd0221af64e8cc7565e6bcab94cc292ccc768c03342fa45f4c9fc3b1d",
      "assetIds": []
    },
    {
      "x": 184,
      "y": 275,
      "size": 1,
      "price": "1011000000000000000000",
      "reserved": "",
      "salt": "0xf068039078d945990276495ebc817a6e4fadddd9ca33640444026d30a90d394c",
      "assetIds": []
    },
    {
      "x": 184,
      "y": 274,
      "size": 1,
      "price": "1011000000000000000000",
      "reserved": "",
      "salt": "0xb041f912e07f6b776af86e6d4a37553992886a80f1eea5b87ddaf93228e88b87",
      "assetIds": []
    },
    {
      "x": 184,
      "y": 273,
      "size": 1,
      "price": "1011000000000000000000",
      "reserved": "",
      "salt": "0xcfa212d0ce7383f52b150cbfcf5c50d1e24f940b500383a553cccb6e5edae2af",
      "assetIds": []
    },
    {
      "x": 185,
      "y": 273,
      "size": 1,
      "price": "1011000000000000000000",
      "reserved": "",
      "salt": "0xbbf306156b63417ae3e4c6c83e1a98fbe711ad5275f0393ef213a6e80d41178d",
      "assetIds": []
    },
    {
      "x": 183,
      "y": 273,
      "size": 1,
      "price": "1011000000000000000000",
      "reserved": "",
      "salt": "0x7d05fc9e86c5047117113974a4878fadb59e3ab853109b1b37dfccf600bd9b2d",
      "assetIds": []
    },
    {
      "x": 170,
      "y": 275,
      "size": 1,
      "price": "1011000000000000000000",
      "reserved": "",
      "salt": "0xbaa1418c750fced6bf86f78fc3e6a10ee18b7ae0430edcd79d859bc67eaad043",
      "assetIds": []
    },
    {
      "x": 169,
      "y": 275,
      "size": 1,
      "price": "1011000000000000000000",
      "reserved": "",
      "salt": "0xafa5aaeb6b6015a0bb69301533196a18cc62f150a68629fee689014554e0b7c3",
      "assetIds": []
    },
    {
      "x": 168,
      "y": 275,
      "size": 1,
      "price": "1011000000000000000000",
      "reserved": "",
      "salt": "0xc5b67d7d3b69cadf4a5c434995ffa093a15acb03a9eda7b2c6a1a6066150efa0",
      "assetIds": []
    },
    {
      "x": 168,
      "y": 274,
      "size": 1,
      "price": "1011000000000000000000",
      "reserved": "",
      "salt": "0xbae800fd8a40b8be2d34568b43dc02d6fcd31c64efe5b02fee1c3196762339fe",
      "assetIds": []
    },
    {
      "x": 168,
      "y": 273,
      "size": 1,
      "price": "1011000000000000000000",
      "reserved": "",
      "salt": "0x50bb0155e9ea0e985e1d70f042b573d55e8fdb66f76dde76b4c2364e747af31d",
      "assetIds": []
    },
    {
      "x": 168,
      "y": 272,
      "size": 1,
      "price": "1011000000000000000000",
      "reserved": "",
      "salt": "0x8ce769f46091e84013bf213a98ffaa45c4c50bfbd7d9ffc218454510dfda3f08",
      "assetIds": []
    },
    {
      "x": 168,
      "y": 271,
      "size": 1,
      "price": "1011000000000000000000",
      "reserved": "",
      "salt": "0x0b7b9409e03c11b1d22e75342a184787b4414b37fc49c48f05305aa7b9d3e6a2",
      "assetIds": []
    },
    {
      "x": 168,
      "y": 270,
      "size": 1,
      "price": "1011000000000000000000",
      "reserved": "",
      "salt": "0x512b7f4a3bd9682cca4e9d6e31f3a4369cc8ebdb03559fcc25aec0f1a1ef9e8e",
      "assetIds": []
    },
    {
      "x": 169,
      "y": 270,
      "size": 1,
      "price": "1011000000000000000000",
      "reserved": "",
      "salt": "0xa38f4008bc0117d0bd7bc9b007918a7775d09ff11a05555c1f230293272d344f",
      "assetIds": []
    },
    {
      "x": 170,
      "y": 270,
      "size": 1,
      "price": "1011000000000000000000",
      "reserved": "",
      "salt": "0xe51a6d3d1cac76358353822ad3cb27650e4faa5f7616bd70a94bf3cc2306b162",
      "assetIds": []
    },
    {
      "x": 170,
      "y": 274,
      "size": 1,
      "price": "1011000000000000000000",
      "reserved": "",
      "salt": "0x40274f635fbfaf68de5a6f535dd6facb2ff9ae62df1e8d1735daff5cc56646a0",
      "assetIds": []
    },
    {
      "x": 170,
      "y": 273,
      "size": 1,
      "price": "1011000000000000000000",
      "reserved": "",
      "salt": "0xcf343d63039c50124497226f909e9082522282c4cd32185329202c4ab7fd0f78",
      "assetIds": []
    },
    {
      "x": 170,
      "y": 272,
      "size": 1,
      "price": "1011000000000000000000",
      "reserved": "",
      "salt": "0x4eb7468c89e3c84874e36cf8037bb25f6465a2fa7cfbcb768d33df71845cbeb2",
      "assetIds": []
    },
    {
      "x": 169,
      "y": 274,
      "size": 1,
      "price": "1011000000000000000000",
      "reserved": "",
      "salt": "0x54641d5a339638955ec4c67f33604845ddaf0d0776a3bfb4fde0a242119528be",
      "assetIds": []
    },
    {
      "x": 169,
      "y": 273,
      "size": 1,
      "price": "1011000000000000000000",
      "reserved": "",
      "salt": "0x04d1a4c0a2b432fb820923e2aabf96f9f640fc57a6dc0b0d929b5da9a37c9333",
      "assetIds": []
    },
    {
      "x": 169,
      "y": 272,
      "size": 1,
      "price": "1011000000000000000000",
      "reserved": "",
      "salt": "0xc26ef93525ed9e66a2b9158997afb9d36bbbe0ba3aed358d17221a077287cff9",
      "assetIds": []
    },
    {
      "x": 169,
      "y": 271,
      "size": 1,
      "price": "1011000000000000000000",
      "reserved": "",
      "salt": "0x54295f21d5f2980154fb8d530ddb81d9548eeee1811d963bf86cc86cbb18ab36",
      "assetIds": []
    },
    {
      "x": 174,
      "y": 274,
      "size": 1,
      "price": "1011000000000000000000",
      "reserved": "",
      "salt": "0xb77037f3fedf2ee938ef9ce3ee16d17b6b06705a4d50284e897db577d00f6d12",
      "assetIds": []
    },
    {
      "x": 174,
      "y": 273,
      "size": 1,
      "price": "1011000000000000000000",
      "reserved": "",
      "salt": "0xe3d40459651244e78386c8899a7a2e5ed52cb40dd70f63da313d08f3ede9314c",
      "assetIds": []
    },
    {
      "x": 174,
      "y": 272,
      "size": 1,
      "price": "1011000000000000000000",
      "reserved": "",
      "salt": "0xbf47f27739b4a0b9ef4a267de120135ef67d385f46476dbb5e4d0b6e8f6ad1da",
      "assetIds": []
    },
    {
      "x": 175,
      "y": 272,
      "size": 1,
      "price": "1011000000000000000000",
      "reserved": "",
      "salt": "0xc20cf7ae771314c227394f1d2e899e6f73f479c9865d5ff80c62fd5ebc5dc5be",
      "assetIds": []
    },
    {
      "x": 176,
      "y": 272,
      "size": 1,
      "price": "1011000000000000000000",
      "reserved": "",
      "salt": "0x8e83b0822c75852bc284be83f60c24e74522448cdf83545eb9c2019d18ad45e3",
      "assetIds": []
    },
    {
      "x": 176,
      "y": 273,
      "size": 1,
      "price": "1011000000000000000000",
      "reserved": "",
      "salt": "0xc86ecb2b4187137e9928c53ea93427489dc187a1d4c8a4f4afe0cf07c0320632",
      "assetIds": []
    },
    {
      "x": 176,
      "y": 274,
      "size": 1,
      "price": "1011000000000000000000",
      "reserved": "",
      "salt": "0xe3326629034a54d0a158353d1043dbf9ea6a842d8c2253ace884c79980633575",
      "assetIds": []
    },
    {
      "x": 175,
      "y": 274,
      "size": 1,
      "price": "1011000000000000000000",
      "reserved": "",
      "salt": "0x5f2bdb3cf6f3d0235db81216e90643149a366c105002aeac528153d656bebe99",
      "assetIds": []
    },
    {
      "x": 175,
      "y": 271,
      "size": 1,
      "price": "1011000000000000000000",
      "reserved": "",
      "salt": "0xf197dbc33ec3f14b7c37b070aadba10842b9235a81420a4a8b4a668b13473ee8",
      "assetIds": []
    },
    {
      "x": 176,
      "y": 271,
      "size": 1,
      "price": "1011000000000000000000",
      "reserved": "",
      "salt": "0xff3b8e65ff38706efa40d7106589fb09276f7070bf12af1a9a9612b2d2510c67",
      "assetIds": []
    },
    {
      "x": 176,
      "y": 270,
      "size": 1,
      "price": "1011000000000000000000",
      "reserved": "",
      "salt": "0x41e4963ccea8bc116bee9006e977c4bc776be762a05fd24bb8014acdeb163ba7",
      "assetIds": []
    },
    {
      "x": 175,
      "y": 270,
      "size": 1,
      "price": "1011000000000000000000",
      "reserved": "",
      "salt": "0xbfa825d0959251dce8dd96940410253e33d33b5315b7a2466b75f7031b5630b4",
      "assetIds": []
    },
    {
      "x": 174,
      "y": 270,
      "size": 1,
      "price": "1011000000000000000000",
      "reserved": "",
      "salt": "0x2c8f59365151ea0b4c5ee159c7673b8a3b42511d117db421a18ea0d29460bbf6",
      "assetIds": []
    },
    {
      "x": 173,
      "y": 269,
      "size": 1,
      "price": "1011000000000000000000",
      "reserved": "",
      "salt": "0xea2b862c52cc5aacde2171ee9249793c53c4ed6bdb2f56004ecbfdaafa12ace2",
      "assetIds": []
    },
    {
      "x": 173,
      "y": 268,
      "size": 1,
      "price": "1011000000000000000000",
      "reserved": "",
      "salt": "0xa7540d6f95cb0329def3507c0db88d56c675f887ca3950b1a3ed88147f6eb75c",
      "assetIds": []
    },
    {
      "x": 173,
      "y": 267,
      "size": 1,
      "price": "1011000000000000000000",
      "reserved": "",
      "salt": "0xc3dd629aab285b98b2c68ead5f12556018988d8d10684cbdb48338b3723b942d",
      "assetIds": []
    },
    {
      "x": 172,
      "y": 267,
      "size": 1,
      "price": "1011000000000000000000",
      "reserved": "",
      "salt": "0x74f9c918a7334d5c16fe95bf105efd97c2f9e0ee9150220f233e755cf178ad9a",
      "assetIds": []
    },
    {
      "x": 171,
      "y": 267,
      "size": 1,
      "price": "1011000000000000000000",
      "reserved": "",
      "salt": "0x7b1b1a62ee212b3d4d1eedd106650fe289f37abe9ee8a511b639a7c0445761dc",
      "assetIds": []
    },
    {
      "x": 171,
      "y": 268,
      "size": 1,
      "price": "1011000000000000000000",
      "reserved": "",
      "salt": "0x112ef654e2a0222ddd5744abbe7a2d517681c7483ebb1ef9b0c0f2d161a6f18c",
      "assetIds": []
    },
    {
      "x": 172,
      "y": 268,
      "size": 1,
      "price": "1011000000000000000000",
      "reserved": "",
      "salt": "0xb05108b56a471d45d43e8b8a80345796191d45c132669501bad88881b09a3ca1",
      "assetIds": []
    },
    {
      "x": 171,
      "y": 269,
      "size": 1,
      "price": "1011000000000000000000",
      "reserved": "",
      "salt": "0xe98f28a6c2701e69bae48fa855ac74adf52b876674208feb351af5f7386e7414",
      "assetIds": []
    },
    {
      "x": 174,
      "y": 266,
      "size": 1,
      "price": "1011000000000000000000",
      "reserved": "",
      "salt": "0xd3360fb3a69850d56444fdf808bb3035c10892157ef7fdbfaff08416e39412de",
      "assetIds": []
    },
    {
      "x": 174,
      "y": 265,
      "size": 1,
      "price": "1011000000000000000000",
      "reserved": "",
      "salt": "0x22c3c5225efc12c28620cb702b95bb1198b3959fdf71a41d2f5f75ea63c300c0",
      "assetIds": []
    },
    {
      "x": 175,
      "y": 265,
      "size": 1,
      "price": "1011000000000000000000",
      "reserved": "",
      "salt": "0x4a4e752cffab0f979f05f9f9d3c69a36e3d1b907c6e12c27f73842c04311ca41",
      "assetIds": []
    },
    {
      "x": 176,
      "y": 265,
      "size": 1,
      "price": "1011000000000000000000",
      "reserved": "",
      "salt": "0xe6ef14e59e2755df894fd58443af8a477910892954bca811e46d6bd65553a265",
      "assetIds": []
    },
    {
      "x": 176,
      "y": 266,
      "size": 1,
      "price": "1011000000000000000000",
      "reserved": "",
      "salt": "0x7dc1c53570e2e6e79035c2d98cdc91482b988e0e340f7463567dd3804b556899",
      "assetIds": []
    },
    {
      "x": 175,
      "y": 266,
      "size": 1,
      "price": "1011000000000000000000",
      "reserved": "",
      "salt": "0x9d90ddede71b8f3f4723c4a7b42b11b10613410dad1c1f8b21b969154ed37f08",
      "assetIds": []
    },
    {
      "x": 177,
      "y": 269,
      "size": 1,
      "price": "1011000000000000000000",
      "reserved": "",
      "salt": "0x904a9eba51bda623436cf69557a1c8f1b0708e1983bd5a22b95297f6690effbd",
      "assetIds": []
    },
    {
      "x": 177,
      "y": 268,
      "size": 1,
      "price": "1011000000000000000000",
      "reserved": "",
      "salt": "0x9d14c6560c8a28693e9e5540e4935767249799861f976fbab5f8b43486d91966",
      "assetIds": []
    },
    {
      "x": 177,
      "y": 267,
      "size": 1,
      "price": "1011000000000000000000",
      "reserved": "",
      "salt": "0xf264ab105f37597b4c574a85008f219920bbe6d7c748b5c69eee0b73e9f0eed2",
      "assetIds": []
    },
    {
      "x": 178,
      "y": 267,
      "size": 1,
      "price": "1011000000000000000000",
      "reserved": "",
      "salt": "0xe77554944da3154d52e8ccc0997cc24d0333a00244d977851ffa1f20f8cf830e",
      "assetIds": []
    },
    {
      "x": 178,
      "y": 268,
      "size": 1,
      "price": "1011000000000000000000",
      "reserved": "",
      "salt": "0x33a6f7bab081becf72eade2441777dadeaeb536d9f01340f44186283be4338f5",
      "assetIds": []
    },
    {
      "x": 179,
      "y": 268,
      "size": 1,
      "price": "1011000000000000000000",
      "reserved": "",
      "salt": "0xacb150e335d7d256cf0c2062d89e9df19ef2d96b011bcb3e80971638c34d0e2f",
      "assetIds": []
    },
    {
      "x": 179,
      "y": 267,
      "size": 1,
      "price": "1011000000000000000000",
      "reserved": "",
      "salt": "0xac6cd55bb95de3e7f6b331814da54993712bc6665021a98d2721dabf2e5a01a0",
      "assetIds": []
    },
    {
      "x": 179,
      "y": 269,
      "size": 1,
      "price": "1011000000000000000000",
      "reserved": "",
      "salt": "0x96758b1d193cce802ba0c5bc110e0df008bd91ba55af57ef3fea3dbd643ca9f4",
      "assetIds": []
    },
    {
      "x": 178,
      "y": 269,
      "size": 1,
      "price": "1011000000000000000000",
      "reserved": "",
      "salt": "0x73251a085a532035de5a77572867d3f838ce3db67d149c222a23507101364286",
      "assetIds": []
    },
    {
      "x": 180,
      "y": 270,
      "size": 1,
      "price": "1011000000000000000000",
      "reserved": "",
      "salt": "0xd56906ea6a26005264f7c8ea02efd0c15d6c1f9082adf5dcd2520f2043f330d1",
      "assetIds": []
    },
    {
      "x": 181,
      "y": 270,
      "size": 1,
      "price": "1011000000000000000000",
      "reserved": "",
      "salt": "0x893806732bb99900b0be661a219d5cbf88ae37b14173c478521730698d0c0dcb",
      "assetIds": []
    },
    {
      "x": 182,
      "y": 270,
      "size": 1,
      "price": "1011000000000000000000",
      "reserved": "",
      "salt": "0xf007eed5adeedc8d2c1a04478540d867e32bb54dfc4c8e85f4ecb6c003cdde26",
      "assetIds": []
    },
    {
      "x": 180,
      "y": 271,
      "size": 1,
      "price": "1011000000000000000000",
      "reserved": "",
      "salt": "0x85d348d8ec2dfb20a3e6c91fed7a604ae3794c217e4c1f6d0aa68addc8e9d3e5",
      "assetIds": []
    },
    {
      "x": 181,
      "y": 271,
      "size": 1,
      "price": "1011000000000000000000",
      "reserved": "",
      "salt": "0x56a15d3e4a243978970d47ce139838c6d73c163e0f2c5636f901e2aee382c3d4",
      "assetIds": []
    },
    {
      "x": 182,
      "y": 271,
      "size": 1,
      "price": "1011000000000000000000",
      "reserved": "",
      "salt": "0x862e144aaaf29c2d517fdd53b69decf238b2f9e8b07da42adbd22eb6875eb2f4",
      "assetIds": []
    },
    {
      "x": 180,
      "y": 272,
      "size": 1,
      "price": "1011000000000000000000",
      "reserved": "",
      "salt": "0x97b986691f38ff83a6f70b34fe2c47813a1bd65ec53847a7cf24fee0962082e3",
      "assetIds": []
    },
    {
      "x": 182,
      "y": 272,
      "size": 1,
      "price": "1011000000000000000000",
      "reserved": "",
      "salt": "0xa6b1fd480e2044438ebb5edaf88355778850880efb23d36408bdcf517edea098",
      "assetIds": []
    },
    {
      "x": 186,
      "y": 268,
      "size": 1,
      "price": "1011000000000000000000",
      "reserved": "",
      "salt": "0xe2d01956301c87edf217f48b77967a49189694a147dd105bee61268fa6a58664",
      "assetIds": []
    },
    {
      "x": 186,
      "y": 267,
      "size": 1,
      "price": "1011000000000000000000",
      "reserved": "",
      "salt": "0xe95b837f5a06d64101922ebed03b2513376efe7167daed0790d83ab8bdd5d008",
      "assetIds": []
    },
    {
      "x": 187,
      "y": 267,
      "size": 1,
      "price": "1011000000000000000000",
      "reserved": "",
      "salt": "0x6ccbd8dfce8f688189c2b1d96d1a3c2c69bb9fdc5d23d3593a4a6e8f6acb198b",
      "assetIds": []
    },
    {
      "x": 188,
      "y": 267,
      "size": 1,
      "price": "1011000000000000000000",
      "reserved": "",
      "salt": "0xa1ee14607da2413b67395a6f0ad6c09bfcedf2717beba108e4bf797f738c7db2",
      "assetIds": []
    },
    {
      "x": 189,
      "y": 267,
      "size": 1,
      "price": "1011000000000000000000",
      "reserved": "",
      "salt": "0xcde5cce05283d82a93155f69c3e43452dd4efea07949963881663168325aa7ad",
      "assetIds": []
    },
    {
      "x": 190,
      "y": 267,
      "size": 1,
      "price": "1011000000000000000000",
      "reserved": "",
      "salt": "0xe9ac0d80bebd09864f4d5b70f8e146b5c48139ba948a1354a1edc6b51876f356",
      "assetIds": []
    },
    {
      "x": 191,
      "y": 267,
      "size": 1,
      "price": "1011000000000000000000",
      "reserved": "",
      "salt": "0x1c4f12e54455b4f848c887f922f0029f1566bd50bd8668ac195008482c2472fb",
      "assetIds": []
    },
    {
      "x": 191,
      "y": 268,
      "size": 1,
      "price": "1011000000000000000000",
      "reserved": "",
      "salt": "0xef7d50b51575f8d5a1422f83205db4d47bd1fb1e31315e65f92c86c9b258cd97",
      "assetIds": []
    },
    {
      "x": 190,
      "y": 268,
      "size": 1,
      "price": "1011000000000000000000",
      "reserved": "",
      "salt": "0x64db0f1bd664af0d7ceccae42fa93a78f70b7a2a4fc39598af80614807f35c55",
      "assetIds": []
    },
    {
      "x": 189,
      "y": 268,
      "size": 1,
      "price": "1011000000000000000000",
      "reserved": "",
      "salt": "0x8b9e0c8f6ce2b463e21c17e4b6cb991637b4bef67e5f3c4af7e5aeff6adcabe9",
      "assetIds": []
    },
    {
      "x": 188,
      "y": 268,
      "size": 1,
      "price": "1011000000000000000000",
      "reserved": "",
      "salt": "0xc2a13b8e85ef48a447dec97a413f0786b90f3d8b5f25feaaaa8b5bb90b0fa5b3",
      "assetIds": []
    },
    {
      "x": 187,
      "y": 268,
      "size": 1,
      "price": "1011000000000000000000",
      "reserved": "",
      "salt": "0xa647032b2ebf09fac8d1ea64ef9b83eef5402d02c2d3f320e5d660c3b26a9c96",
      "assetIds": []
    },
    {
      "x": 195,
      "y": 272,
      "size": 1,
      "price": "1011000000000000000000",
      "reserved": "",
      "salt": "0xfcd2dca8057b0b075ba8a1f12ac1a2e75c512b553d0795fbf4ac6905fbac08b8",
      "assetIds": []
    },
    {
      "x": 194,
      "y": 272,
      "size": 1,
      "price": "1011000000000000000000",
      "reserved": "",
      "salt": "0x5cea9bbc42204fcbfc5ff8af8467c7e523916032e2c89796cd8e3e6dc51a6138",
      "assetIds": []
    },
    {
      "x": 193,
      "y": 272,
      "size": 1,
      "price": "1011000000000000000000",
      "reserved": "",
      "salt": "0xc3824c62ca2fbf681504074b691ed960c1a678d42e21e0428a80ef7a64d29f5e",
      "assetIds": []
    },
    {
      "x": 193,
      "y": 271,
      "size": 1,
      "price": "1011000000000000000000",
      "reserved": "",
      "salt": "0x7750f5310a4eba6aeeac28de04c7b688ce4988ef732be9cde28c9444d751eb9d",
      "assetIds": []
    },
    {
      "x": 193,
      "y": 270,
      "size": 1,
      "price": "1011000000000000000000",
      "reserved": "",
      "salt": "0x0a818a521b0aa4b721de1098b8f0ab051e1820971b9f160164126262f9600934",
      "assetIds": []
    },
    {
      "x": 194,
      "y": 270,
      "size": 1,
      "price": "1011000000000000000000",
      "reserved": "",
      "salt": "0x97a73ce0e167fb4c65b26bb01e43025b1f68a589d87c4b7fa718a48b054f7a2e",
      "assetIds": []
    },
    {
      "x": 195,
      "y": 270,
      "size": 1,
      "price": "1011000000000000000000",
      "reserved": "",
      "salt": "0x48d45a0c084ef5ffac7d32ed7506f00d918a101a4ef01515c1d26a62fbc8b7a1",
      "assetIds": []
    },
    {
      "x": 196,
      "y": 270,
      "size": 1,
      "price": "1011000000000000000000",
      "reserved": "",
      "salt": "0xf14b4968941ca5aa48281c6ef99cae904f33782a2edbff93cb467022df1b967d",
      "assetIds": []
    },
    {
      "x": 197,
      "y": 270,
      "size": 1,
      "price": "1011000000000000000000",
      "reserved": "",
      "salt": "0x5bcca8d7f1abffabc00aaad69a9eac417b194289b2ad8a9c5e4154812e5de787",
      "assetIds": []
    },
    {
      "x": 197,
      "y": 271,
      "size": 1,
      "price": "1011000000000000000000",
      "reserved": "",
      "salt": "0xc702437fa535cdf3259ac8272b9c719d6d3101f4ed3f7d2bd4a26e72424eeadf",
      "assetIds": []
    },
    {
      "x": 197,
      "y": 272,
      "size": 1,
      "price": "1011000000000000000000",
      "reserved": "",
      "salt": "0x55a5a16e85505f0a7a92e10f4573a1eecdbc3794b8c2909abfe05b416d7d1b16",
      "assetIds": []
    },
    {
      "x": 196,
      "y": 273,
      "size": 1,
      "price": "1011000000000000000000",
      "reserved": "",
      "salt": "0xf11aca3bcbe4366c77b00a7c2fe65052ff41b7fd2d064d3f543ca0ba6240c18d",
      "assetIds": []
    },
    {
      "x": 196,
      "y": 274,
      "size": 1,
      "price": "1011000000000000000000",
      "reserved": "",
      "salt": "0x9aa07489cdcf13cd075437d1ff22a58ce2659b20c44fddebdbc5fb37cf70c086",
      "assetIds": []
    },
    {
      "x": 196,
      "y": 275,
      "size": 1,
      "price": "1011000000000000000000",
      "reserved": "",
      "salt": "0x9e394b5eb061c30a6d4b392124b73d65f372d03ee9faa6320ecb1b6041413646",
      "assetIds": []
    },
    {
      "x": 197,
      "y": 275,
      "size": 1,
      "price": "1011000000000000000000",
      "reserved": "",
      "salt": "0xbf1c5982575f6c1d6b06083e2789744cb97f7a347a9bf5971c8c302ed1a6252b",
      "assetIds": []
    },
    {
      "x": 197,
      "y": 274,
      "size": 1,
      "price": "1011000000000000000000",
      "reserved": "",
      "salt": "0x9c0e18e5862a58e9d675fe625cb522f64800625eda778051cadc673c74e4ff71",
      "assetIds": []
    },
    {
      "x": 197,
      "y": 273,
      "size": 1,
      "price": "1011000000000000000000",
      "reserved": "",
      "salt": "0xb86907c2232050af1a466805c201cea41ad2d6fe4235f11e5962d47d6a7ae3bf",
      "assetIds": []
    },
    {
      "x": 195,
      "y": 275,
      "size": 1,
      "price": "1011000000000000000000",
      "reserved": "",
      "salt": "0x3b1d40275aa283365a6353a1f1f8fcf4aaa7babe7de78bc474c88d91de69b211",
      "assetIds": []
    },
    {
      "x": 195,
      "y": 274,
      "size": 1,
      "price": "1011000000000000000000",
      "reserved": "",
      "salt": "0x2b862eccf981e95306eb74afeb4fa084459af6ed7e9c5fc8a5dabb77af5c98a8",
      "assetIds": []
    },
    {
      "x": 195,
      "y": 273,
      "size": 1,
      "price": "1011000000000000000000",
      "reserved": "",
      "salt": "0xfb9a49866692e7fd3de7aee222aa61c1984146ce5fe762e7a46d05ddfd87c51f",
      "assetIds": []
    },
    {
      "x": 196,
      "y": 271,
      "size": 1,
      "price": "1011000000000000000000",
      "reserved": "",
      "salt": "0x2650bec3b3244b65a55cfa1ccf807f041b1adba16649d9fb8c24b447a9a715ee",
      "assetIds": []
    },
    {
      "x": 194,
      "y": 271,
      "size": 1,
      "price": "1011000000000000000000",
      "reserved": "",
      "salt": "0xdd75651860087591d7d05671dbfd4aedec5aeaa864571b9ca5df2e65c946148c",
      "assetIds": []
    },
    {
      "x": 175,
      "y": 305,
      "size": 1,
      "price": "1011000000000000000000",
      "reserved": "",
      "salt": "0xc23aa5a1ca9b720063cd69e5fd90c7d90fe831e5a84bb7cde5bbe45d9c10fd8c",
      "assetIds": []
    },
    {
      "x": 176,
      "y": 288,
      "size": 1,
      "price": "1011000000000000000000",
      "reserved": "",
      "salt": "0xfb8ae01afe85d02b6518df051ab6b2e8a2edce4449940d46e66b1af30dd98646",
      "assetIds": []
    },
    {
      "x": 178,
      "y": 309,
      "size": 1,
      "price": "1011000000000000000000",
      "reserved": "0x7a9fe22691c811ea339d9b73150e6911a5343dca",
      "salt": "0xbe4ab5a3a020a689e4599769cb8d6cfcee9860ce8c0e610b2b9cda0bd6852a13",
      "assetIds": []
    },
    {
      "x": 189,
      "y": 309,
      "size": 1,
      "price": "1011000000000000000000",
      "reserved": "0x7a9fe22691c811ea339d9b73150e6911a5343dca",
      "salt": "0x4ebde8a8694afdb32fa5ce49b9f1310c80a29c05e68d9dd63073f772f1ee3574",
      "assetIds": []
    },
    {
      "x": 191,
      "y": 309,
      "size": 1,
      "price": "1011000000000000000000",
      "reserved": "0x7a9fe22691c811ea339d9b73150e6911a5343dca",
      "salt": "0x9ed6a839faa7d6213539ea92730b9ea5381a5bb5bcb3f20d527f2ddfd9da05c6",
      "assetIds": []
    },
    {
      "x": 176,
      "y": 307,
      "size": 1,
      "price": "1011000000000000000000",
      "reserved": "0x7a9fe22691c811ea339d9b73150e6911a5343dca",
      "salt": "0xc448d42f77bd3813e7f3ae32ae89c0638e05248ae2d67f0c145905325a5faff6",
      "assetIds": []
    },
    {
      "x": 180,
      "y": 307,
      "size": 1,
      "price": "1011000000000000000000",
      "reserved": "0x7a9fe22691c811ea339d9b73150e6911a5343dca",
      "salt": "0xe878f3da9c75fb463b3750b6ba540bbe1faa28c30a452742de84f387201da162",
      "assetIds": []
    },
    {
      "x": 175,
      "y": 304,
      "size": 1,
      "price": "1011000000000000000000",
      "reserved": "0x7a9fe22691c811ea339d9b73150e6911a5343dca",
      "salt": "0x39cbd455ec30ee3914ad199c9f1f47e90e2c2d970838219f370c8ce717d9e911",
      "assetIds": []
    },
    {
      "x": 181,
      "y": 302,
      "size": 1,
      "price": "1011000000000000000000",
      "reserved": "0x7a9fe22691c811ea339d9b73150e6911a5343dca",
      "salt": "0x0b094dda6e7626cfe75a2b6fa6f2dc0dc80878e64477822602bb556b97e3e836",
      "assetIds": []
    },
    {
      "x": 185,
      "y": 303,
      "size": 1,
      "price": "1011000000000000000000",
      "reserved": "0x7a9fe22691c811ea339d9b73150e6911a5343dca",
      "salt": "0xe22de1c767435464e7a23b8b12bec427fb9ce40d8e8e59ee7b18adff1abd7e12",
      "assetIds": []
    },
    {
      "x": 191,
      "y": 304,
      "size": 1,
      "price": "1011000000000000000000",
      "reserved": "0x7a9fe22691c811ea339d9b73150e6911a5343dca",
      "salt": "0x82038cb82526ea48cbd8a8c7ad046186725b4c1f01dc98ef28ddc096b4492c9e",
      "assetIds": []
    },
    {
      "x": 186,
      "y": 300,
      "size": 1,
      "price": "1011000000000000000000",
      "reserved": "0x7a9fe22691c811ea339d9b73150e6911a5343dca",
      "salt": "0xc900edc73934241d3775d5635096d799526cac38207f756c4cd41709a8f99f16",
      "assetIds": []
    },
    {
      "x": 176,
      "y": 300,
      "size": 1,
      "price": "1011000000000000000000",
      "reserved": "0x7a9fe22691c811ea339d9b73150e6911a5343dca",
      "salt": "0x4540abacc8ff9054c89582735d465cf7f051e250fa4d2637be68aeb9240fe836",
      "assetIds": []
    },
    {
      "x": 195,
      "y": 299,
      "size": 1,
      "price": "1011000000000000000000",
      "reserved": "0x7a9fe22691c811ea339d9b73150e6911a5343dca",
      "salt": "0x43a21c1980b82f9ad8c7e7d49dc326cbd0dba3d27a6f6ac1f6a773ffe7696ed3",
      "assetIds": []
    },
    {
      "x": 192,
      "y": 296,
      "size": 1,
      "price": "1011000000000000000000",
      "reserved": "0x7a9fe22691c811ea339d9b73150e6911a5343dca",
      "salt": "0x5a4cbc76910f7b3092e247d9becae6aa9d8dd2ffdb140108212157ccb63c287b",
      "assetIds": []
    },
    {
      "x": 196,
      "y": 293,
      "size": 1,
      "price": "1011000000000000000000",
      "reserved": "0x7a9fe22691c811ea339d9b73150e6911a5343dca",
      "salt": "0x6829849f4d32be2a1485a87cddbca5256f786772880789d4d9b9072d7890b270",
      "assetIds": []
    },
    {
      "x": 176,
      "y": 291,
      "size": 1,
      "price": "1011000000000000000000",
      "reserved": "0x7a9fe22691c811ea339d9b73150e6911a5343dca",
      "salt": "0xae5b87a9daa5eae4032139219bd7ab684eca8b1e8a5bbbed176e5b6b73843362",
      "assetIds": []
    },
    {
      "x": 179,
      "y": 291,
      "size": 1,
      "price": "1011000000000000000000",
      "reserved": "0x7a9fe22691c811ea339d9b73150e6911a5343dca",
      "salt": "0xb65b0ce8cb521c39343eb35bef571547e63df9c00f0e298a706a9b17f5d8d916",
      "assetIds": []
    },
    {
      "x": 177,
      "y": 288,
      "size": 1,
      "price": "1011000000000000000000",
      "reserved": "0x7a9fe22691c811ea339d9b73150e6911a5343dca",
      "salt": "0xca90ad83606e344e18ac27031256e442e495970aa4a413a098e62f6d6c2ef258",
      "assetIds": []
    },
    {
      "x": 181,
      "y": 283,
      "size": 1,
      "price": "1011000000000000000000",
      "reserved": "0x7a9fe22691c811ea339d9b73150e6911a5343dca",
      "salt": "0x05e959f5c56eef73d21ecced86fc9249e4d9817f01c776c518e81e79fc352435",
      "assetIds": []
    },
    {
      "x": 184,
      "y": 283,
      "size": 1,
      "price": "1011000000000000000000",
      "reserved": "0x7a9fe22691c811ea339d9b73150e6911a5343dca",
      "salt": "0x004c577b38ca74784e85afffee4cc776df87be0659fb14afbd536ebb97fb9ea3",
      "assetIds": []
    },
    {
      "x": 192,
      "y": 286,
      "size": 1,
      "price": "1011000000000000000000",
      "reserved": "0x7a9fe22691c811ea339d9b73150e6911a5343dca",
      "salt": "0x137b0c7ed53da40ee176f3562fbba6484f2038a8f290a8df76d24eb18647d2f1",
      "assetIds": []
    },
    {
      "x": 175,
      "y": 281,
      "size": 1,
      "price": "1011000000000000000000",
      "reserved": "0x7a9fe22691c811ea339d9b73150e6911a5343dca",
      "salt": "0x063a9cd46438785ee60fa9a9cc48f0fdcf5f885f8edf14d52adb8d2b25131a91",
      "assetIds": []
    },
    {
      "x": 177,
      "y": 281,
      "size": 1,
      "price": "1011000000000000000000",
      "reserved": "0x7a9fe22691c811ea339d9b73150e6911a5343dca",
      "salt": "0xdce9d589a4b1118fb5a3a695011b36f556aca8793a87091c1ecf365009ec12e4",
      "assetIds": []
    },
    {
      "x": 177,
      "y": 279,
      "size": 1,
      "price": "1011000000000000000000",
      "reserved": "0x7a9fe22691c811ea339d9b73150e6911a5343dca",
      "salt": "0xa1a2fb084a49ce3f62aa7bf9864786831c7a709516c4d24ccd54b2474517378f",
      "assetIds": []
    },
    {
      "x": 183,
      "y": 280,
      "size": 1,
      "price": "1011000000000000000000",
      "reserved": "0x7a9fe22691c811ea339d9b73150e6911a5343dca",
      "salt": "0x333c949c0c6865768cead81ea1bc51b62b2bc06f5b33b3e0ad2f2fbb64b40425",
      "assetIds": []
    },
    {
      "x": 177,
      "y": 277,
      "size": 1,
      "price": "1011000000000000000000",
      "reserved": "0x7a9fe22691c811ea339d9b73150e6911a5343dca",
      "salt": "0xb75a43860ca69dc6f8d95d9b0c0187f2c07108f99f645dea050499132bf64086",
      "assetIds": []
    },
    {
      "x": 181,
      "y": 276,
      "size": 1,
      "price": "1011000000000000000000",
      "reserved": "0x7a9fe22691c811ea339d9b73150e6911a5343dca",
      "salt": "0x615f6e1ec13af65e6ba50f1e41d44854e5570fc4da7f99c342ab0dcd3cca9e30",
      "assetIds": []
    },
    {
      "x": 189,
      "y": 276,
      "size": 1,
      "price": "1011000000000000000000",
      "reserved": "0x7a9fe22691c811ea339d9b73150e6911a5343dca",
      "salt": "0x68b38a4f24829f64a6b7343d1899e6d6060f35dd1547fb11ce94fd0ae9048381",
      "assetIds": []
    },
    {
      "x": 183,
      "y": 274,
      "size": 1,
      "price": "1011000000000000000000",
      "reserved": "0x7a9fe22691c811ea339d9b73150e6911a5343dca",
      "salt": "0x6507f707817c6445955462582261556d4dd4f87285ee32c74dd013b8ecddec48",
      "assetIds": []
    },
    {
      "x": 181,
      "y": 272,
      "size": 1,
      "price": "1011000000000000000000",
      "reserved": "0x7a9fe22691c811ea339d9b73150e6911a5343dca",
      "salt": "0xa3825ded8e9ee82df0a80d77cada47b705ec6120c6f86450efde4ee167d3e6db",
      "assetIds": []
    },
    {
      "x": 174,
      "y": 275,
      "size": 1,
      "price": "1011000000000000000000",
      "reserved": "0x7a9fe22691c811ea339d9b73150e6911a5343dca",
      "salt": "0xc1a00003245f61e3c7515f5475c6799f81dc449eb67926e924c21b8ad3c4004e",
      "assetIds": []
    },
    {
      "x": 174,
      "y": 271,
      "size": 1,
      "price": "1011000000000000000000",
      "reserved": "0x7a9fe22691c811ea339d9b73150e6911a5343dca",
      "salt": "0x766d9fe369e35144098d63578d81f24703815fcc9b91c28f632a901d2556582d",
      "assetIds": []
    },
    {
      "x": 170,
      "y": 271,
      "size": 1,
      "price": "1011000000000000000000",
      "reserved": "0x7a9fe22691c811ea339d9b73150e6911a5343dca",
      "salt": "0x0d6ee6e8586fcaead36f7e3ac1822fc1d2d4cb130ef42c9c8af6b1fbf0e5a3ef",
      "assetIds": []
    },
    {
      "x": 188,
      "y": 269,
      "size": 1,
      "price": "1011000000000000000000",
      "reserved": "0x7a9fe22691c811ea339d9b73150e6911a5343dca",
      "salt": "0xa546e9199e719b524c7f9dc2bb53631e56d6c19378469bf9dbe5d12b3994a44b",
      "assetIds": []
    },
    {
      "x": 195,
      "y": 271,
      "size": 1,
      "price": "1011000000000000000000",
      "reserved": "0x7a9fe22691c811ea339d9b73150e6911a5343dca",
      "salt": "0x00c84af88c4714f6a45f9d23b60e11188554f97b902b1d75e46696f8cc943eb4",
      "assetIds": []
    }
  ],
  "solcInputHash": "c036f79ccddd697b5a9602e7ef0ca71e",
  "bytecode": "0x6101606040523480156200001257600080fd5b50604051620031e9380380620031e983398181016040526101a08110156200003957600080fd5b508051602082015160408301516060840151608085015160a086015160c087015160e08801516101008901516101208a01516101408b01516101608c0151610180909c015160016000559a9b999a9899979896979596949593949293919290919085856001600160a01b038216620000f8576040805162461bcd60e51b815260206004820152601f60248201527f526566657272616c56616c696461746f723a207a65726f206164647265737300604482015290519081900360640190fd5b600380546001600160a01b0319166001600160a01b0393841617905560045562000130908e1662000459602090811b62002adc17901c565b6200016d5760405162461bcd60e51b8152600401808060200182810382526025815260200180620031c46025913960400191505060405180910390fd5b6200018c8c6001600160a01b03166200045960201b62002adc1760201c565b620001c95760405162461bcd60e51b8152600401808060200182810382526025815260200180620031c46025913960400191505060405180910390fd5b6001600160a01b038b1662000214576040805162461bcd60e51b815260206004820181905260248201526000805160206200317f833981519152604482015290519081900360640190fd5b6001600160a01b038a166200025f576040805162461bcd60e51b815260206004820181905260248201526000805160206200317f833981519152604482015290519081900360640190fd5b6001600160a01b038916620002aa576040805162461bcd60e51b815260206004820181905260248201526000805160206200317f833981519152604482015290519081900360640190fd5b620002c9836001600160a01b03166200045960201b62002adc1760201c565b620003065760405162461bcd60e51b8152600401808060200182810382526025815260200180620031c46025913960400191505060405180910390fd5b6001600160a01b03821662000351576040805162461bcd60e51b815260206004820181905260248201526000805160206200317f833981519152604482015290519081900360640190fd5b62000370816001600160a01b03166200045960201b62002adc1760201c565b620003ad5760405162461bcd60e51b8152600401808060200182810382526025815260200180620031c46025913960400191505060405180910390fd5b6001600160601b031960608e811b821660a0528d901b1660c052620003dd8b60016001600160e01b036200045f16565b600680546001600160a01b039a8b166001600160a01b031991821617909155610140989098526101209690965260018054998916998816999099179098556001600160601b0319606092831b811660e05290821b811660805296901b909516610100525060078054919093169116179055506200050a92505050565b3b151590565b6001600160a01b038216620004a65760405162461bcd60e51b81526004018080602001828103825260258152602001806200319f6025913960400191505060405180910390fd5b6001600160a01b038216600081815260026020908152604091829020805460ff191685151590811790915582519384529083015280517fb21eb88b4e33b3f1281830a7178d74d8aa73220416215726b68ae23d539515cb9281900390910190a15050565b60805160601c60a05160601c60c05160601c60e05160601c6101005160601c6101205161014051612bef6200059060003980610be0528061247e525080610bbc528061159d5250806124fc525080611af25280611c4f525080611aa85280611e4e52806124d9525080611b235280611c205250806111075280611f3a5250612bef6000f3fe608060405234801561001057600080fd5b50600436106101365760003560e01c8063984d6252116100b2578063c10a420811610081578063dc5074af11610066578063dc5074af146108a0578063e56f8a9e146108c6578063f23a6e61146108e357610136565b8063c10a4208146107c1578063caed35001461089857610136565b8063984d62521461055f578063ab1cc78c14610631578063b522ecff14610639578063bc197c811461065f57610136565b806365194ce71161010957806378e6e5b9116100ee57806378e6e5b9146104e55780638a04af6a1461050b5780638f2839701461053957610136565b806365194ce7146103635780636e9960c3146104c157610136565b80631187fd3c1461013b57806325cb5bc01461031b578063495906571461033557806358bc29441461033d575b600080fd5b610319600480360361012081101561015257600080fd5b6001600160a01b038235811692602081013582169260408201359092169181019060808101606082013564010000000081111561018e57600080fd5b8201836020820111156101a057600080fd5b803590602001918460208302840111640100000000831117156101c257600080fd5b919390928235926040810190602001356401000000008111156101e457600080fd5b8201836020820111156101f657600080fd5b8035906020019184602083028401116401000000008311171561021857600080fd5b91939092909160208101903564010000000081111561023657600080fd5b82018360208201111561024857600080fd5b8035906020019184602083028401116401000000008311171561026a57600080fd5b91939092909160208101903564010000000081111561028857600080fd5b82018360208201111561029a57600080fd5b803590602001918460018302840111640100000000831117156102bc57600080fd5b9193909290916020810190356401000000008111156102da57600080fd5b8201836020820111156102ec57600080fd5b8035906020019184600183028401116401000000008311171561030e57600080fd5b509092509050610978565b005b610323610bba565b60408051918252519081900360200190f35b610323610bde565b6103196004803603602081101561035357600080fd5b50356001600160a01b0316610c02565b6104096004803603602081101561037957600080fd5b81019060208101813564010000000081111561039457600080fd5b8201836020820111156103a657600080fd5b803590602001918460018302840111640100000000831117156103c857600080fd5b91908080601f016020809104026020016040519081016040528093929190818152602001838380828437600092019190915250929550610d2e945050505050565b6040518080602001866001600160a01b03166001600160a01b03168152602001856001600160a01b03166001600160a01b03168152602001848152602001838152602001828103825287818151815260200191508051906020019080838360005b8381101561048257818101518382015260200161046a565b50505050905090810190601f1680156104af5780820380516001836020036101000a031916815260200191505b50965050505050505060405180910390f35b6104c9610e33565b604080516001600160a01b039092168252519081900360200190f35b610319600480360360208110156104fb57600080fd5b50356001600160a01b0316610e42565b6103196004803603604081101561052157600080fd5b506001600160a01b0381351690602001351515610f00565b6103196004803603602081101561054f57600080fd5b50356001600160a01b0316610f6d565b6103196004803603606081101561057557600080fd5b6001600160a01b0382351691908101906040810160208201356401000000008111156105a057600080fd5b8201836020820111156105b257600080fd5b803590602001918460208302840111640100000000831117156105d457600080fd5b9193909290916020810190356401000000008111156105f257600080fd5b82018360208201111561060457600080fd5b8035906020019184602083028401116401000000008311171561062657600080fd5b5090925090506110a6565b610323611231565b6103196004803603602081101561064f57600080fd5b50356001600160a01b0316611237565b61078c600480360360a081101561067557600080fd5b6001600160a01b0382358116926020810135909116918101906060810160408201356401000000008111156106a957600080fd5b8201836020820111156106bb57600080fd5b803590602001918460208302840111640100000000831117156106dd57600080fd5b9193909290916020810190356401000000008111156106fb57600080fd5b82018360208201111561070d57600080fd5b8035906020019184602083028401116401000000008311171561072f57600080fd5b91939092909160208101903564010000000081111561074d57600080fd5b82018360208201111561075f57600080fd5b8035906020019184600183028401116401000000008311171561078157600080fd5b509092509050611348565b604080517fffffffff000000000000000000000000000000000000000000000000000000009092168252519081900360200190f35b610884600480360360a08110156107d757600080fd5b8101906020810181356401000000008111156107f257600080fd5b82018360208201111561080457600080fd5b8035906020019184600183028401116401000000008311171561082657600080fd5b91908080601f016020809104026020016040519081016040528093929190818152602001838380828437600092019190915250929550506001600160a01b038335811694506020840135169260408101359250606001359050611375565b604080519115158252519081900360200190f35b6104c96114b1565b610884600480360360208110156108b657600080fd5b50356001600160a01b03166114c0565b610319600480360360208110156108dc57600080fd5b50356114de565b61078c600480360360a08110156108f957600080fd5b6001600160a01b03823581169260208101359091169160408201359160608101359181019060a08101608082013564010000000081111561093957600080fd5b82018360208201111561094b57600080fd5b8035906020019184600183028401116401000000008311171561096d57600080fd5b509092509050611570565b600260005414156109d0576040805162461bcd60e51b815260206004820152601f60248201527f5265656e7472616e637947756172643a207265656e7472616e742063616c6c00604482015290519081900360640190fd5b60026000556109df8e8d61159b565b610ad68d8d8d8d80806020026020016040519081016040528093929190818152602001838360200280828437600081840152601f19601f820116905080830192505050505050508c8c8c80806020026020016040519081016040528093929190818152602001838360200280828437600081840152601f19601f820116905080830192505050505050508b8b8080602002602001604051908101604052809392919081815260200183836020028082843760009201919091525050604080516020601f8d018190048102820181019092528b815292508b91508a90819084018382808284376000920191909152506116fe92505050565b610b2a8e8c8c6003818110610ae757fe5b9050602002013586868080601f016020809104026020016040519081016040528093929190818152602001838380828437600092019190915250611a8192505050565b610b688e8e8d8d80806020026020016040519081016040528093929190818152602001838360200280828437600092019190915250611ad292505050565b610ba58d898980806020026020016040519081016040528093929190818152602001838360200280828437600092019190915250611ec392505050565b50506001600055505050505050505050505050565b7f000000000000000000000000000000000000000000000000000000000000000090565b7f000000000000000000000000000000000000000000000000000000000000000090565b6001546001600160a01b03163314610c61576040805162461bcd60e51b815260206004820152601260248201527f6f6e6c792061646d696e20616c6c6f7765640000000000000000000000000000604482015290519081900360640190fd5b6001600160a01b038116610cbc576040805162461bcd60e51b815260206004820152601f60248201527f526566657272616c56616c696461746f723a207a65726f206164647265737300604482015290519081900360640190fd5b600380546001600160a01b03908116600090815260056020526040808220620d2f0042019055835473ffffffffffffffffffffffffffffffffffffffff1916928516928317909355915190917fbbb5fb2ee7e707ae0c968f63e94211ea81e66a718c34e2f810a7619e5678a21791a250565b606060008060008060606000806000808a80602001905160a0811015610d5357600080fd5b8101908080516040519392919084640100000000821115610d7357600080fd5b908301906020820185811115610d8857600080fd5b8251640100000000811182820188101715610da257600080fd5b82525081516020918201929091019080838360005b83811015610dcf578181015183820152602001610db7565b50505050905090810190601f168015610dfc5780820380516001836020036101000a031916815260200191505b5060409081526020820151908201516060830151608090930151959f50909d509b5099509197505050505050505091939590929450565b6001546001600160a01b031690565b6001546001600160a01b03163314610e8b5760405162461bcd60e51b8152600401808060200182810382526023815260200180612b056023913960400191505060405180910390fd5b6001600160a01b038116610ee6576040805162461bcd60e51b815260206004820152601f60248201527f526566657272616c56616c696461746f723a207a65726f206164647265737300604482015290519081900360640190fd5b6001600160a01b0316600090815260056020526040812055565b6001546001600160a01b03163314610f5f576040805162461bcd60e51b815260206004820152601260248201527f6f6e6c792061646d696e20616c6c6f7765640000000000000000000000000000604482015290519081900360640190fd5b610f698282612087565b5050565b6001546001600160a01b03163314610fcc576040805162461bcd60e51b815260206004820152601b60248201527f6f6e6c792061646d696e2063616e206368616e67652061646d696e0000000000604482015290519081900360640190fd5b6001546001600160a01b038281169116141561102f576040805162461bcd60e51b815260206004820152600d60248201527f616c72656164792061646d696e00000000000000000000000000000000000000604482015290519081900360640190fd5b600154604080516001600160a01b039283168152918316602083015280517f7e644d79422f17c01e4894b5f4f588d331ebfa28653d42ae832dc59e38c9798f9281900390910190a16001805473ffffffffffffffffffffffffffffffffffffffff19166001600160a01b0392909216919091179055565b6001546001600160a01b03163314611105576040805162461bcd60e51b815260206004820152600e60248201527f4e4f545f415554484f52495a4544000000000000000000000000000000000000604482015290519081900360640190fd5b7f00000000000000000000000000000000000000000000000000000000000000006001600160a01b0316632eb2c2d63087878787876040518763ffffffff1660e01b815260040180876001600160a01b03166001600160a01b03168152602001866001600160a01b03166001600160a01b031681526020018060200180602001806020018481038452888882818152602001925060200280828437600083820152601f01601f19169091018581038452868152602090810191508790870280828437600081840152601f19601f8201169050808301925050508481038252600081526020016020019950505050505050505050600060405180830381600087803b15801561121257600080fd5b505af1158015611226573d6000803e3d6000fd5b505050505050505050565b60045490565b6001600160a01b038116611292576040805162461bcd60e51b815260206004820152600c60248201527f5a45524f5f414444524553530000000000000000000000000000000000000000604482015290519081900360640190fd5b6001546001600160a01b031633146112f1576040805162461bcd60e51b815260206004820152600e60248201527f4e4f545f415554484f52495a4544000000000000000000000000000000000000604482015290519081900360640190fd5b6006805473ffffffffffffffffffffffffffffffffffffffff19166001600160a01b0383169081179091556040517f4d66958b757eb92a1b43d02be4c38c9500b73f532420ee3706cb43d420ba023690600090a250565b7fbc197c810000000000000000000000000000000000000000000000000000000098975050505050505050565b60006004548211806113985750836001600160a01b0316856001600160a01b0316145b806113a257508242115b156113af575060006114a8565b60408051606087811b7fffffffffffffffffffffffffffffffffffffffff0000000000000000000000009081166020808501919091529188901b166034830152604882018690526068808301869052835180840390910181526088830184528051908201207f19457468657265756d205369676e6564204d6573736167653a0a33320000000060a884015260c48084018290528451808503909101815260e49093019093528151910120600090611466908961214e565b6001600160a01b0381166000908152600560205260409020549091504211611493576001925050506114a8565b6003546001600160a01b039081169116149150505b95945050505050565b6003546001600160a01b031690565b6001600160a01b031660009081526002602052604090205460ff1690565b6001546001600160a01b0316331461153d576040805162461bcd60e51b815260206004820152601260248201527f6f6e6c792061646d696e20616c6c6f7765640000000000000000000000000000604482015290519081900360640190fd5b600481905560405181907f774069781371d65424b3b0b101c1d40014532cac040f979595b99a3fcf8ce08c90600090a250565b7ff23a6e61000000000000000000000000000000000000000000000000000000009695505050505050565b7f0000000000000000000000000000000000000000000000000000000000000000421061160f576040805162461bcd60e51b815260206004820152600c60248201527f53414c455f49535f4f5645520000000000000000000000000000000000000000604482015290519081900360640190fd5b6001600160a01b03821633148061163557503360009081526002602052604090205460ff165b611686576040805162461bcd60e51b815260206004820152600e60248201527f4e4f545f415554484f52495a4544000000000000000000000000000000000000604482015290519081900360640190fd5b6001600160a01b03811615806116ad5750816001600160a01b0316816001600160a01b0316145b610f69576040805162461bcd60e51b815260206004820152600d60248201527f52455345525645445f4c414e4400000000000000000000000000000000000000604482015290519081900360640190fd5b600087878760008151811061170f57fe5b60200260200101518860018151811061172457fe5b60200260200101518960028151811061173957fe5b60200260200101518a60038151811061174e57fe5b60200260200101518a8a60405160200180828051906020019060200280838360005b83811015611788578181015183820152602001611770565b50505050905001915050604051602081830303815290604052805190602001208a60405160200180828051906020019060200280838360005b838110156117d95781810151838201526020016117c1565b5050505090500191505060405160208183030381529060405280519060200120604051602001808a6001600160a01b03166001600160a01b031660601b8152601401896001600160a01b03166001600160a01b031660601b81526014018881526020018781526020018681526020018581526020018481526020018381526020018281526020019950505050505050505050604051602081830303815290604052805190602001209050600760009054906101000a90046001600160a01b03166001600160a01b031663012847ed83836040518363ffffffff1660e01b81526004018080602001838152602001828103825284818151815260200191508051906020019080838360005b838110156118fb5781810151838201526020016118e3565b50505050905090810190601f1680156119285780820380516001836020036101000a031916815260200191505b50935050505060206040518083038186803b15801561194657600080fd5b505afa15801561195a573d6000803e3d6000fd5b505050506040513d602081101561197057600080fd5b50516119c3576040805162461bcd60e51b815260206004820152600c60248201527f494e56414c49445f415554480000000000000000000000000000000000000000604482015290519081900360640190fd5b6000611a24876000815181106119d557fe5b6020026020010151886001815181106119ea57fe5b6020026020010151896002815181106119ff57fe5b60200260200101518a600381518110611a1457fe5b60200260200101518c8b8b612337565b9050611a3084826123dc565b611226576040805162461bcd60e51b815260206004820152600c60248201527f494e56414c49445f4c414e440000000000000000000000000000000000000000604482015290519081900360640190fd5b6000611a8d84846124a5565b600654909150611acc908590839085906001600160a01b03167f000000000000000000000000000000000000000000000000000000000000000061253f565b50505050565b80600281518110611adf57fe5b602002602001015160011480611b1c57507f00000000000000000000000000000000000000000000000000000000000000006001600160a01b0316155b15611c1e577f00000000000000000000000000000000000000000000000000000000000000006001600160a01b0316636e1e3bbf8383600281518110611b5e57fe5b602002602001015184600081518110611b7357fe5b602002602001015185600181518110611b8857fe5b60200260200101516040518563ffffffff1660e01b815260040180856001600160a01b03166001600160a01b031681526020018481526020018381526020018281526020018060200182810382526000815260200160200195505050505050600060405180830381600087803b158015611c0157600080fd5b505af1158015611c15573d6000803e3d6000fd5b50505050611dbe565b7f00000000000000000000000000000000000000000000000000000000000000006001600160a01b0316636e1e3bbf7f000000000000000000000000000000000000000000000000000000000000000083600281518110611c7b57fe5b602002602001015184600081518110611c9057fe5b602002602001015185600181518110611ca557fe5b60200260200101518760405160200180826001600160a01b03166001600160a01b031681526020019150506040516020818303038152906040526040518663ffffffff1660e01b815260040180866001600160a01b03166001600160a01b0316815260200185815260200184815260200183815260200180602001828103825283818151815260200191508051906020019080838360005b83811015611d55578181015183820152602001611d3d565b50505050905090810190601f168015611d825780820380516001836020036101000a031916815260200191505b509650505050505050600060405180830381600087803b158015611da557600080fd5b505af1158015611db9573d6000803e3d6000fd5b505050505b61019881600181518110611dce57fe5b60200260200101510281600081518110611de457fe5b602002602001015101826001600160a01b0316846001600160a01b03167fe4dfa6ac11314892f3029b34a25b1a887da3b1cab2bbf8506d87128ba6e3ac0284600281518110611e2f57fe5b602002602001015185600381518110611e4457fe5b60200260200101517f000000000000000000000000000000000000000000000000000000000000000087600381518110611e7a57fe5b602002602001015160405180858152602001848152602001836001600160a01b03166001600160a01b0316815260200182815260200194505050505060405180910390a4505050565b6060815167ffffffffffffffff81118015611edd57600080fd5b50604051908082528060200260200182016040528015611f07578160200160208202803683370190505b50905060005b8251811015611f37576001828281518110611f2457fe5b6020908102919091010152600101611f0d565b507f00000000000000000000000000000000000000000000000000000000000000006001600160a01b0316632eb2c2d6308585856040518563ffffffff1660e01b815260040180856001600160a01b03166001600160a01b03168152602001846001600160a01b03166001600160a01b03168152602001806020018060200180602001848103845286818151815260200191508051906020019060200280838360005b83811015611ff2578181015183820152602001611fda565b50505050905001848103835285818151815260200191508051906020019060200280838360005b83811015612031578181015183820152602001612019565b50505050905001848103825260008152602001602001975050505050505050600060405180830381600087803b15801561206a57600080fd5b505af115801561207e573d6000803e3d6000fd5b50505050505050565b6001600160a01b0382166120cc5760405162461bcd60e51b8152600401808060200182810382526025815260200180612b6b6025913960400191505060405180910390fd5b6001600160a01b03821660008181526002602090815260409182902080547fffffffffffffffffffffffffffffffffffffffffffffffffffffffffffffff001685151590811790915582519384529083015280517fb21eb88b4e33b3f1281830a7178d74d8aa73220416215726b68ae23d539515cb9281900390910190a15050565b600081516041146121a6576040805162461bcd60e51b815260206004820152601f60248201527f45434453413a20696e76616c6964207369676e6174757265206c656e67746800604482015290519081900360640190fd5b60208201516040830151606084015160001a7f7fffffffffffffffffffffffffffffff5d576e7357a4501ddfe92f46681b20a08211156122175760405162461bcd60e51b8152600401808060200182810382526022815260200180612ae36022913960400191505060405180910390fd5b8060ff16601b1415801561222f57508060ff16601c14155b1561226b5760405162461bcd60e51b8152600401808060200182810382526022815260200180612b286022913960400191505060405180910390fd5b60408051600080825260208083018085528a905260ff85168385015260608301879052608083018690529251909260019260a080820193601f1981019281900390910190855afa1580156122c3573d6000803e3d6000fd5b5050604051601f1901519150506001600160a01b03811661232b576040805162461bcd60e51b815260206004820152601860248201527f45434453413a20696e76616c6964207369676e61747572650000000000000000604482015290519081900360640190fd5b93505050505b92915050565b60008787878787878760405160200180888152602001878152602001868152602001858152602001846001600160a01b03166001600160a01b031660601b8152601401838152602001828051906020019060200280838360005b838110156123a9578181015183820152602001612391565b50505050905001975050505050505050604051602081830303815290604052805190602001209050979650505050505050565b600081815b845181101561247b5760008582815181106123f857fe5b60200260200101519050808310156124405782816040516020018083815260200182815260200192505050604051602081830303815290604052805190602001209250612472565b808360405160200180838152602001828152602001925050506040516020818303038152906040528051906020012092505b506001016123e1565b507f0000000000000000000000000000000000000000000000000000000000000000149392505050565b6000806124ca60646124be85600563ffffffff61264716565b9063ffffffff6126a716565b90506125276001600160a01b037f000000000000000000000000000000000000000000000000000000000000000016857f00000000000000000000000000000000000000000000000000000000000000008463ffffffff6126e916565b612537838263ffffffff61277116565b949350505050565b8251819085901561262c57606060008060008061255b8a610d2e565b93985091965094509250905060006125768686868686611375565b15612604576125906125888d84612647565b6127106126a7565b9050886001600160a01b0316846001600160a01b0316866001600160a01b03167fac7a699eb95c3c6d390ec4626de17ef9a67b35891efdb197beba7c7fdd45fac48f858760405180848152602001838152602001828152602001935050505060405180910390a46126018782612771565b96505b8015612625576126256001600160a01b0389168e878463ffffffff6126e916565b5050505050505b61207e6001600160a01b03831688868463ffffffff6126e916565b60008261265657506000612331565b8282028284828161266357fe5b04146126a05760405162461bcd60e51b8152600401808060200182810382526021815260200180612b4a6021913960400191505060405180910390fd5b9392505050565b60006126a083836040518060400160405280601a81526020017f536166654d6174683a206469766973696f6e206279207a65726f0000000000008152506127b3565b604080516001600160a01b0380861660248301528416604482015260648082018490528251808303909101815260849091019091526020810180517bffffffffffffffffffffffffffffffffffffffffffffffffffffffff167f23b872dd00000000000000000000000000000000000000000000000000000000179052611acc908590612855565b60006126a083836040518060400160405280601e81526020017f536166654d6174683a207375627472616374696f6e206f766572666c6f77000081525061290b565b6000818361283f5760405162461bcd60e51b81526004018080602001828103825283818151815260200191508051906020019080838360005b838110156128045781810151838201526020016127ec565b50505050905090810190601f1680156128315780820380516001836020036101000a031916815260200191505b509250505060405180910390fd5b50600083858161284b57fe5b0495945050505050565b60606128aa826040518060400160405280602081526020017f5361666545524332303a206c6f772d6c6576656c2063616c6c206661696c6564815250856001600160a01b03166129659092919063ffffffff16565b805190915015612906578080602001905160208110156128c957600080fd5b50516129065760405162461bcd60e51b815260040180806020018281038252602a815260200180612b90602a913960400191505060405180910390fd5b505050565b6000818484111561295d5760405162461bcd60e51b81526020600482018181528351602484015283519092839260449091019190850190808383600083156128045781810151838201526020016127ec565b505050900390565b60606125378484600085606061297a85612adc565b6129cb576040805162461bcd60e51b815260206004820152601d60248201527f416464726573733a2063616c6c20746f206e6f6e2d636f6e7472616374000000604482015290519081900360640190fd5b60006060866001600160a01b031685876040518082805190602001908083835b60208310612a0a5780518252601f1990920191602091820191016129eb565b6001836020036101000a03801982511681845116808217855250505050505090500191505060006040518083038185875af1925050503d8060008114612a6c576040519150601f19603f3d011682016040523d82523d6000602084013e612a71565b606091505b50915091508115612a855791506125379050565b805115612a955780518082602001fd5b60405162461bcd60e51b81526020600482018181528651602484015286518793919283926044019190850190808383600083156128045781810151838201526020016127ec565b3b15159056fe45434453413a20696e76616c6964207369676e6174757265202773272076616c7565526566657272616c56616c696461746f723a2053656e646572206e6f742061646d696e45434453413a20696e76616c6964207369676e6174757265202776272076616c7565536166654d6174683a206d756c7469706c69636174696f6e206f766572666c6f774d6574615472616e73616374696f6e52656365697665723a207a65726f20616464726573735361666545524332303a204552433230206f7065726174696f6e20646964206e6f742073756363656564a264697066735822122077f2d13cbcb85fa08010a53c1e4ef27117b031e8c1c9273d55cef362af299f3164736f6c6343000605003345737461746553616c6557697468417574683a207a65726f20616464726573734d6574615472616e73616374696f6e52656365697665723a207a65726f206164647265737345737461746553616c6557697468417574683a206973206e6f74206120636f6e7472616374",
  "devdoc": {
    "methods": {
      "buyLandWithSand(address,address,address,uint256[],bytes32,uint256[],bytes32[],bytes,bytes)": {
        "params": {
          "assetIds": "asset ids (lands) that will be bought",
          "buyer": "address that perform the payment",
          "info": "[X_INDEX=0] x coordinate of the Land [Y_INDEX=1] y coordinate of the Land [SIZE_INDEX=2] size of the pack of Land to purchase [PRICE_INDEX=3] price in SAND to purchase that Land",
          "proof": "merkleProof for that particular Land",
          "referral": "referral id",
          "reserved": "the reserved address (if any)",
          "salt": "The salt submitted for verification.",
          "signature": "A signed message specifying tx details",
          "to": "address that will own the purchased Land"
        }
      },
      "changeAdmin(address)": {
        "details": "change the administrator to be `newAdmin`.",
        "params": {
          "newAdmin": "address of the new administrator."
        }
      },
      "disablePreviousSigningWallet(address)": {
        "details": "Disable compromised signing wallet",
        "params": {
          "disableWallet": "The wallet address to be disabled"
        }
      },
      "getAdmin()": {
        "details": "gives the current administrator of this contract.",
        "returns": {
          "_0": "the current administrator of this contract."
        }
      },
      "getSigningWallet()": {
        "details": "signing wallet authorized for referral",
        "returns": {
          "_0": "the address of the signing wallet"
        }
      },
      "isMetaTransactionProcessor(address)": {
        "details": "check whether address `who` is given meta-transaction execution rights.",
        "params": {
          "who": "The address to query."
        },
        "returns": {
          "_0": "whether the address has meta-transaction execution rights."
        }
      },
      "isReferralValid(bytes,address,address,uint256,uint256)": {
        "params": {
          "commissionRate": "The commissionRate of the referral",
          "expiryTime": "The expiry time of the referral",
          "referee": "The address of the referee",
          "referrer": "The address of the referrer",
          "signature": "The signature to check (signed referral)"
        },
        "returns": {
          "_0": "True if the referral is valid"
        }
      },
      "setMetaTransactionProcessor(address,bool)": {
        "details": "Enable or disable the ability of `metaTransactionProcessor` to perform meta-tx (metaTransactionProcessor rights).",
        "params": {
          "enabled": "set whether the metaTransactionProcessor is enabled or disabled.",
          "metaTransactionProcessor": "address that will be given/removed metaTransactionProcessor rights."
        }
      },
      "setReceivingWallet(address)": {
        "params": {
          "newWallet": "address of the new receiving wallet"
        }
      },
      "updateMaxCommissionRate(uint256)": {
        "details": "Update the maximum commission rate",
        "params": {
          "newMaxCommissionRate": "The new maximum commission rate"
        }
      },
      "updateSigningWallet(address)": {
        "details": "Update the signing wallet The previous wallet is still valid for a grace period (_previousSigningDelay). If you want to disable the previous wallet, use the disablePreviousSigningWallet function.",
        "params": {
          "newSigningWallet": "The new address of the signing wallet"
        }
      },
      "withdrawAssets(address,uint256[],uint256[])": {
        "params": {
          "assetIds": "the assetIds to be transferred",
          "to": "intended recipient of the asset tokens",
          "values": "the quantities of the assetIds to be transferred"
        }
      }
    },
    "title": "Estate Sale contract with referral"
  },
  "userdoc": {
    "methods": {
      "buyLandWithSand(address,address,address,uint256[],bytes32,uint256[],bytes32[],bytes,bytes)": {
        "notice": "buy Land with SAND using the merkle proof associated with it"
      },
      "getExpiryTime()": {
        "notice": "Gets the expiry time for the current sale"
      },
      "getMaxCommissionRate()": {
        "notice": "the max commission rate"
      },
      "getMerkleRoot()": {
        "notice": "Gets the Merkle root associated with the current sale"
      },
      "isReferralValid(bytes,address,address,uint256,uint256)": {
        "notice": "Check if a referral is valid"
      },
      "setReceivingWallet(address)": {
        "notice": "set the wallet receiving the proceeds"
      },
      "withdrawAssets(address,uint256[],uint256[])": {
        "notice": "enable Admin to withdraw remaining assets from EstateSaleWithFee contract"
      }
    },
    "notice": "This contract manages the sale of our lands as Estates"
  },
  "storageLayout": {
    "storage": [
      {
        "astId": 1129,
        "contract": "src/solc_0.6/EstateSale/EstateSaleWithAuth.sol:EstateSaleWithAuth",
        "label": "_status",
        "offset": 0,
        "slot": "0",
        "type": "t_uint256"
      },
      {
        "astId": 14099,
        "contract": "src/solc_0.6/EstateSale/EstateSaleWithAuth.sol:EstateSaleWithAuth",
        "label": "_admin",
        "offset": 0,
        "slot": "1",
        "type": "t_address"
      },
      {
        "astId": 14168,
        "contract": "src/solc_0.6/EstateSale/EstateSaleWithAuth.sol:EstateSaleWithAuth",
        "label": "_metaTransactionContracts",
        "offset": 0,
        "slot": "2",
        "type": "t_mapping(t_address,t_bool)"
      },
      {
        "astId": 12200,
        "contract": "src/solc_0.6/EstateSale/EstateSaleWithAuth.sol:EstateSaleWithAuth",
        "label": "_signingWallet",
        "offset": 0,
        "slot": "3",
        "type": "t_address"
      },
      {
        "astId": 12202,
        "contract": "src/solc_0.6/EstateSale/EstateSaleWithAuth.sol:EstateSaleWithAuth",
        "label": "_maxCommissionRate",
        "offset": 0,
        "slot": "4",
        "type": "t_uint256"
      },
      {
        "astId": 12206,
        "contract": "src/solc_0.6/EstateSale/EstateSaleWithAuth.sol:EstateSaleWithAuth",
        "label": "_previousSigningWallets",
        "offset": 0,
        "slot": "5",
        "type": "t_mapping(t_address,t_uint256)"
      },
      {
        "astId": 7750,
        "contract": "src/solc_0.6/EstateSale/EstateSaleWithAuth.sol:EstateSaleWithAuth",
        "label": "_wallet",
        "offset": 0,
        "slot": "6",
        "type": "t_address_payable"
      },
      {
        "astId": 7752,
        "contract": "src/solc_0.6/EstateSale/EstateSaleWithAuth.sol:EstateSaleWithAuth",
        "label": "_authValidator",
        "offset": 0,
        "slot": "7",
        "type": "t_contract(AuthValidator)7063"
      }
    ],
    "types": {
      "t_address": {
        "encoding": "inplace",
        "label": "address",
        "numberOfBytes": "20"
      },
      "t_address_payable": {
        "encoding": "inplace",
        "label": "address payable",
        "numberOfBytes": "20"
      },
      "t_bool": {
        "encoding": "inplace",
        "label": "bool",
        "numberOfBytes": "1"
      },
      "t_contract(AuthValidator)7063": {
        "encoding": "inplace",
        "label": "contract AuthValidator",
        "numberOfBytes": "20"
      },
      "t_mapping(t_address,t_bool)": {
        "encoding": "mapping",
        "key": "t_address",
        "label": "mapping(address => bool)",
        "numberOfBytes": "32",
        "value": "t_bool"
      },
      "t_mapping(t_address,t_uint256)": {
        "encoding": "mapping",
        "key": "t_address",
        "label": "mapping(address => uint256)",
        "numberOfBytes": "32",
        "value": "t_uint256"
      },
      "t_uint256": {
        "encoding": "inplace",
        "label": "uint256",
        "numberOfBytes": "32"
      }
    }
  }
}