{
  "address": "0xCd116367a78AC2714948F1C95C456A298f41f225",
  "abi": [
    {
      "inputs": [
        {
          "internalType": "address",
          "name": "landAddress",
          "type": "address"
        },
        {
          "internalType": "address",
          "name": "sandContractAddress",
          "type": "address"
        },
        {
          "internalType": "address",
          "name": "initialMetaTx",
          "type": "address"
        },
        {
          "internalType": "address",
          "name": "admin",
          "type": "address"
        },
        {
          "internalType": "address payable",
          "name": "initialWalletAddress",
          "type": "address"
        },
        {
          "internalType": "bytes32",
          "name": "merkleRoot",
          "type": "bytes32"
        },
        {
          "internalType": "uint256",
          "name": "expiryTime",
          "type": "uint256"
        },
        {
          "internalType": "address",
          "name": "initialSigningWallet",
          "type": "address"
        },
        {
          "internalType": "uint256",
          "name": "initialMaxCommissionRate",
          "type": "uint256"
        },
        {
          "internalType": "address",
          "name": "estate",
          "type": "address"
        },
        {
          "internalType": "address",
          "name": "asset",
          "type": "address"
        },
        {
          "internalType": "address",
          "name": "feeDistributor",
          "type": "address"
        },
        {
          "internalType": "address",
          "name": "authValidator",
          "type": "address"
        }
      ],
      "stateMutability": "nonpayable",
      "type": "constructor"
    },
    {
      "anonymous": false,
      "inputs": [
        {
          "indexed": false,
          "internalType": "address",
          "name": "oldAdmin",
          "type": "address"
        },
        {
          "indexed": false,
          "internalType": "address",
          "name": "newAdmin",
          "type": "address"
        }
      ],
      "name": "AdminChanged",
      "type": "event"
    },
    {
      "anonymous": false,
      "inputs": [
        {
          "indexed": true,
          "internalType": "address",
          "name": "buyer",
          "type": "address"
        },
        {
          "indexed": true,
          "internalType": "address",
          "name": "to",
          "type": "address"
        },
        {
          "indexed": true,
          "internalType": "uint256",
          "name": "topCornerId",
          "type": "uint256"
        },
        {
          "indexed": false,
          "internalType": "uint256",
          "name": "size",
          "type": "uint256"
        },
        {
          "indexed": false,
          "internalType": "uint256",
          "name": "price",
          "type": "uint256"
        },
        {
          "indexed": false,
          "internalType": "address",
          "name": "token",
          "type": "address"
        },
        {
          "indexed": false,
          "internalType": "uint256",
          "name": "amountPaid",
          "type": "uint256"
        }
      ],
      "name": "LandQuadPurchased",
      "type": "event"
    },
    {
      "anonymous": false,
      "inputs": [
        {
          "indexed": true,
          "internalType": "uint256",
          "name": "newMaxCommissionRate",
          "type": "uint256"
        }
      ],
      "name": "MaxCommissionRateUpdated",
      "type": "event"
    },
    {
      "anonymous": false,
      "inputs": [
        {
          "indexed": false,
          "internalType": "address",
          "name": "metaTransactionProcessor",
          "type": "address"
        },
        {
          "indexed": false,
          "internalType": "bool",
          "name": "enabled",
          "type": "bool"
        }
      ],
      "name": "MetaTransactionProcessor",
      "type": "event"
    },
    {
      "anonymous": false,
      "inputs": [
        {
          "indexed": true,
          "internalType": "address",
          "name": "newWallet",
          "type": "address"
        }
      ],
      "name": "NewReceivingWallet",
      "type": "event"
    },
    {
      "anonymous": false,
      "inputs": [
        {
          "indexed": true,
          "internalType": "address",
          "name": "referrer",
          "type": "address"
        },
        {
          "indexed": true,
          "internalType": "address",
          "name": "referee",
          "type": "address"
        },
        {
          "indexed": true,
          "internalType": "address",
          "name": "token",
          "type": "address"
        },
        {
          "indexed": false,
          "internalType": "uint256",
          "name": "amount",
          "type": "uint256"
        },
        {
          "indexed": false,
          "internalType": "uint256",
          "name": "commission",
          "type": "uint256"
        },
        {
          "indexed": false,
          "internalType": "uint256",
          "name": "commissionRate",
          "type": "uint256"
        }
      ],
      "name": "ReferralUsed",
      "type": "event"
    },
    {
      "anonymous": false,
      "inputs": [
        {
          "indexed": true,
          "internalType": "address",
          "name": "newSigningWallet",
          "type": "address"
        }
      ],
      "name": "SigningWalletUpdated",
      "type": "event"
    },
    {
      "inputs": [
        {
          "internalType": "address",
          "name": "buyer",
          "type": "address"
        },
        {
          "internalType": "address",
          "name": "to",
          "type": "address"
        },
        {
          "internalType": "address",
          "name": "reserved",
          "type": "address"
        },
        {
          "internalType": "uint256[]",
          "name": "info",
          "type": "uint256[]"
        },
        {
          "internalType": "bytes32",
          "name": "salt",
          "type": "bytes32"
        },
        {
          "internalType": "uint256[]",
          "name": "assetIds",
          "type": "uint256[]"
        },
        {
          "internalType": "bytes32[]",
          "name": "proof",
          "type": "bytes32[]"
        },
        {
          "internalType": "bytes",
          "name": "referral",
          "type": "bytes"
        },
        {
          "internalType": "bytes",
          "name": "signature",
          "type": "bytes"
        }
      ],
      "name": "buyLandWithSand",
      "outputs": [],
      "stateMutability": "nonpayable",
      "type": "function"
    },
    {
      "inputs": [
        {
          "internalType": "address",
          "name": "newAdmin",
          "type": "address"
        }
      ],
      "name": "changeAdmin",
      "outputs": [],
      "stateMutability": "nonpayable",
      "type": "function"
    },
    {
      "inputs": [
        {
          "internalType": "bytes",
          "name": "referral",
          "type": "bytes"
        }
      ],
      "name": "decodeReferral",
      "outputs": [
        {
          "internalType": "bytes",
          "name": "",
          "type": "bytes"
        },
        {
          "internalType": "address",
          "name": "",
          "type": "address"
        },
        {
          "internalType": "address",
          "name": "",
          "type": "address"
        },
        {
          "internalType": "uint256",
          "name": "",
          "type": "uint256"
        },
        {
          "internalType": "uint256",
          "name": "",
          "type": "uint256"
        }
      ],
      "stateMutability": "pure",
      "type": "function"
    },
    {
      "inputs": [
        {
          "internalType": "address",
          "name": "disableWallet",
          "type": "address"
        }
      ],
      "name": "disablePreviousSigningWallet",
      "outputs": [],
      "stateMutability": "nonpayable",
      "type": "function"
    },
    {
      "inputs": [],
      "name": "getAdmin",
      "outputs": [
        {
          "internalType": "address",
          "name": "",
          "type": "address"
        }
      ],
      "stateMutability": "view",
      "type": "function"
    },
    {
      "inputs": [],
      "name": "getExpiryTime",
      "outputs": [
        {
          "internalType": "uint256",
          "name": "",
          "type": "uint256"
        }
      ],
      "stateMutability": "view",
      "type": "function"
    },
    {
      "inputs": [],
      "name": "getMaxCommissionRate",
      "outputs": [
        {
          "internalType": "uint256",
          "name": "",
          "type": "uint256"
        }
      ],
      "stateMutability": "view",
      "type": "function"
    },
    {
      "inputs": [],
      "name": "getMerkleRoot",
      "outputs": [
        {
          "internalType": "bytes32",
          "name": "",
          "type": "bytes32"
        }
      ],
      "stateMutability": "view",
      "type": "function"
    },
    {
      "inputs": [],
      "name": "getSigningWallet",
      "outputs": [
        {
          "internalType": "address",
          "name": "",
          "type": "address"
        }
      ],
      "stateMutability": "view",
      "type": "function"
    },
    {
      "inputs": [
        {
          "internalType": "address",
          "name": "who",
          "type": "address"
        }
      ],
      "name": "isMetaTransactionProcessor",
      "outputs": [
        {
          "internalType": "bool",
          "name": "",
          "type": "bool"
        }
      ],
      "stateMutability": "view",
      "type": "function"
    },
    {
      "inputs": [
        {
          "internalType": "bytes",
          "name": "signature",
          "type": "bytes"
        },
        {
          "internalType": "address",
          "name": "referrer",
          "type": "address"
        },
        {
          "internalType": "address",
          "name": "referee",
          "type": "address"
        },
        {
          "internalType": "uint256",
          "name": "expiryTime",
          "type": "uint256"
        },
        {
          "internalType": "uint256",
          "name": "commissionRate",
          "type": "uint256"
        }
      ],
      "name": "isReferralValid",
      "outputs": [
        {
          "internalType": "bool",
          "name": "",
          "type": "bool"
        }
      ],
      "stateMutability": "view",
      "type": "function"
    },
    {
      "inputs": [
        {
          "internalType": "address",
          "name": "",
          "type": "address"
        },
        {
          "internalType": "address",
          "name": "",
          "type": "address"
        },
        {
          "internalType": "uint256[]",
          "name": "",
          "type": "uint256[]"
        },
        {
          "internalType": "uint256[]",
          "name": "",
          "type": "uint256[]"
        },
        {
          "internalType": "bytes",
          "name": "",
          "type": "bytes"
        }
      ],
      "name": "onERC1155BatchReceived",
      "outputs": [
        {
          "internalType": "bytes4",
          "name": "",
          "type": "bytes4"
        }
      ],
      "stateMutability": "pure",
      "type": "function"
    },
    {
      "inputs": [
        {
          "internalType": "address",
          "name": "",
          "type": "address"
        },
        {
          "internalType": "address",
          "name": "",
          "type": "address"
        },
        {
          "internalType": "uint256",
          "name": "",
          "type": "uint256"
        },
        {
          "internalType": "uint256",
          "name": "",
          "type": "uint256"
        },
        {
          "internalType": "bytes",
          "name": "",
          "type": "bytes"
        }
      ],
      "name": "onERC1155Received",
      "outputs": [
        {
          "internalType": "bytes4",
          "name": "",
          "type": "bytes4"
        }
      ],
      "stateMutability": "pure",
      "type": "function"
    },
    {
      "inputs": [
        {
          "internalType": "address",
          "name": "metaTransactionProcessor",
          "type": "address"
        },
        {
          "internalType": "bool",
          "name": "enabled",
          "type": "bool"
        }
      ],
      "name": "setMetaTransactionProcessor",
      "outputs": [],
      "stateMutability": "nonpayable",
      "type": "function"
    },
    {
      "inputs": [
        {
          "internalType": "address payable",
          "name": "newWallet",
          "type": "address"
        }
      ],
      "name": "setReceivingWallet",
      "outputs": [],
      "stateMutability": "nonpayable",
      "type": "function"
    },
    {
      "inputs": [
        {
          "internalType": "uint256",
          "name": "newMaxCommissionRate",
          "type": "uint256"
        }
      ],
      "name": "updateMaxCommissionRate",
      "outputs": [],
      "stateMutability": "nonpayable",
      "type": "function"
    },
    {
      "inputs": [
        {
          "internalType": "address",
          "name": "newSigningWallet",
          "type": "address"
        }
      ],
      "name": "updateSigningWallet",
      "outputs": [],
      "stateMutability": "nonpayable",
      "type": "function"
    },
    {
      "inputs": [
        {
          "internalType": "address",
          "name": "to",
          "type": "address"
        },
        {
          "internalType": "uint256[]",
          "name": "assetIds",
          "type": "uint256[]"
        },
        {
          "internalType": "uint256[]",
          "name": "values",
          "type": "uint256[]"
        }
      ],
      "name": "withdrawAssets",
      "outputs": [],
      "stateMutability": "nonpayable",
      "type": "function"
    }
  ],
  "transactionHash": "0xc90670e1313c6f8bbc689c832dd460320c0af7abacf69ed3c0443984cbe68d67",
  "args": [
    "0x525129b95bA89B9800e47ef3dc7d23fBAd27b1a3",
    "0x592daadC9eA7F56A81De1FD27A723Bd407709c46",
    "0x592daadC9eA7F56A81De1FD27A723Bd407709c46",
    "0x49c4D4C94829B9c44052C5f5Cb164Fc612181165",
    "0xa5Eb9C9Eb4F4c35B9Be8cFaAA7909F9ebe6Cb609",
    "0xf2e8ddaa646a7a16fa845da5e21888d331bcb1e6b076e5881e4a50eedd496829",
    2005905600,
    "0xB7060D3FeCAC3AE1F0A0AA416E3e8E472257950e",
    2000,
    "0x0000000000000000000000000000000000000000",
    "0xB766Af2EfCB61bd5a261E007D8866f005E305D5d",
    "0xAc3ff31f526Af7f386ea43649e3fa67e329AeF93",
    "0x1d3CE3489a064aEFc9928fe08F9d2Dd968F5c969"
  ],
  "numDeployments": 1,
  "linkedData": [
    {
      "x": 99,
      "y": 219,
      "size": 1,
      "price": "1011000000000000000000",
      "reserved": "",
      "salt": "0x84f833eaa2c265de6d13f1812017e4a5abfe5adc239c2b180b38b3a184a6e328",
      "assetIds": []
    },
    {
      "x": 99,
      "y": 220,
      "size": 1,
      "price": "1011000000000000000000",
      "reserved": "",
      "salt": "0x81d52dd2497901b79824bc3ea9971f370e0104d23489dd02e76f7e04f6f3f35a",
      "assetIds": []
    },
    {
      "x": 99,
      "y": 221,
      "size": 1,
      "price": "1011000000000000000000",
      "reserved": "",
      "salt": "0x06fa989758193f09dfd3c909668fabc683003b7a8e65970253b7d8887b4b5ebc",
      "assetIds": []
    },
    {
      "x": 99,
      "y": 222,
      "size": 1,
      "price": "1011000000000000000000",
      "reserved": "",
      "salt": "0x4eeaeebcc1b29e77fa43b6486425a44075a993974ffe961e65aa170bfacb4223",
      "assetIds": []
    },
    {
      "x": 99,
      "y": 223,
      "size": 1,
      "price": "1011000000000000000000",
      "reserved": "",
      "salt": "0x369083b47d9ec0d20a6b646bdfe4f6c6e157642d1df93c1b4b41c43155b780a1",
      "assetIds": []
    },
    {
      "x": 99,
      "y": 224,
      "size": 1,
      "price": "1011000000000000000000",
      "reserved": "",
      "salt": "0x898785cc5ba9b215df235128150ece42d32b71feb3c45cc3e31816ab073eafc8",
      "assetIds": []
    },
    {
      "x": 99,
      "y": 237,
      "size": 1,
      "price": "1011000000000000000000",
      "reserved": "",
      "salt": "0x36d529ce57087d52ea688b39bae1f471811c9ec98ee0e46877fefee832840dad",
      "assetIds": []
    },
    {
      "x": 99,
      "y": 238,
      "size": 1,
      "price": "1011000000000000000000",
      "reserved": "",
      "salt": "0x59d66dcc84029d4cb37eff907e163df34485338832eb44676adb2d86ebfece9a",
      "assetIds": []
    },
    {
      "x": 99,
      "y": 239,
      "size": 1,
      "price": "1011000000000000000000",
      "reserved": "",
      "salt": "0xe4fd035d74d9205dedb1aa9d6454e2f400768af8f4e748b3ef34ff43a7fabb98",
      "assetIds": []
    },
    {
      "x": 99,
      "y": 240,
      "size": 1,
      "price": "1011000000000000000000",
      "reserved": "",
      "salt": "0xd3219059d1015c883c20e4bf8b7c68b4341a06f888469d8b7e0d4c4beecf36cc",
      "assetIds": []
    },
    {
      "x": 99,
      "y": 241,
      "size": 1,
      "price": "1011000000000000000000",
      "reserved": "",
      "salt": "0xb30f6788d588b6319cee2c54c309b46138d624c599efbe8a5857b3a465d2d697",
      "assetIds": []
    },
    {
      "x": 99,
      "y": 242,
      "size": 1,
      "price": "1011000000000000000000",
      "reserved": "",
      "salt": "0x26aa1ce476e3f03e17c1a424bab26b6ba26ff487083d91bec2d76222e79d5feb",
      "assetIds": []
    },
    {
      "x": 100,
      "y": 219,
      "size": 1,
      "price": "1011000000000000000000",
      "reserved": "",
      "salt": "0x4428692a2911b80f8b9775c02c94cc8d73b90bfcab1e5bb5fe8fb62898ffa26a",
      "assetIds": []
    },
    {
      "x": 100,
      "y": 220,
      "size": 1,
      "price": "1011000000000000000000",
      "reserved": "",
      "salt": "0x98f0c1481597b47d25b9671cbc9dce468b92ed5238fe7c1c1456be1a5aa08e86",
      "assetIds": []
    },
    {
      "x": 100,
      "y": 221,
      "size": 1,
      "price": "1011000000000000000000",
      "reserved": "",
      "salt": "0x49ba522561ce5e28b6246b5e49437e945dc9f3c6fb763c26fddcd92d5cea2fc2",
      "assetIds": []
    },
    {
      "x": 100,
      "y": 222,
      "size": 1,
      "price": "1011000000000000000000",
      "reserved": "",
      "salt": "0xb06297b35b31d50b493f956b1a306cac0da24e8467cd1bcec6efc5b5f034f36c",
      "assetIds": []
    },
    {
      "x": 100,
      "y": 223,
      "size": 1,
      "price": "1011000000000000000000",
      "reserved": "0x7a9fe22691c811ea339d9b73150e6911a5343dca",
      "salt": "0xb1603a0c0e838fe4f60f3efe6f1282d50157cacda75c1054b790eac6c038a8a7",
      "assetIds": []
    },
    {
      "x": 100,
      "y": 224,
      "size": 1,
      "price": "1011000000000000000000",
      "reserved": "",
      "salt": "0x4681e9e9eb1d8d813e0bafcefaa1a58f820e9e0bcb6ccd0f489f2bcc3c3b931a",
      "assetIds": []
    },
    {
      "x": 100,
      "y": 237,
      "size": 1,
      "price": "1011000000000000000000",
      "reserved": "",
      "salt": "0xdcba2f26127fe69f1b0c40e3d65c95e6793763383099ab4ebaaa4287aa62ab18",
      "assetIds": []
    },
    {
      "x": 100,
      "y": 238,
      "size": 1,
      "price": "1011000000000000000000",
      "reserved": "",
      "salt": "0x50727b149c930dda75de093346d628dddf36213822199ea8a40e79b313aa2d66",
      "assetIds": []
    },
    {
      "x": 100,
      "y": 239,
      "size": 1,
      "price": "1011000000000000000000",
      "reserved": "",
      "salt": "0x6d52f72332d1fed030f430b4c82b0f11574cd57274b43f6f8cea418f2ba09dc4",
      "assetIds": []
    },
    {
      "x": 100,
      "y": 240,
      "size": 1,
      "price": "1011000000000000000000",
      "reserved": "0x7a9fe22691c811ea339d9b73150e6911a5343dca",
      "salt": "0x3e37c70045d7cc3fb4eeb696fe40e5ceec7f18969e20c0343a7f41e7fb1ce27b",
      "assetIds": []
    },
    {
      "x": 100,
      "y": 241,
      "size": 1,
      "price": "1011000000000000000000",
      "reserved": "",
      "salt": "0x61e905d266df1331372dcf841558c3e131f659c96ce74769318ccd1e11c5d800",
      "assetIds": []
    },
    {
      "x": 100,
      "y": 242,
      "size": 1,
      "price": "1011000000000000000000",
      "reserved": "",
      "salt": "0x5e025aa51ba410e595164fb35ace02a77dd3b5118be8fe976b73e1cef1fbd050",
      "assetIds": []
    },
    {
      "x": 101,
      "y": 219,
      "size": 1,
      "price": "1011000000000000000000",
      "reserved": "",
      "salt": "0xf639ca0d9bf8d8438ba7cd23e6740fd6e81f51b8d5e8f2673862495b82babd69",
      "assetIds": []
    },
    {
      "x": 101,
      "y": 220,
      "size": 1,
      "price": "1011000000000000000000",
      "reserved": "",
      "salt": "0xa3a01d444ea390042dfd6b6ae53f746b010089ead4e8502e2b6ce7601b6c1f10",
      "assetIds": []
    },
    {
      "x": 101,
      "y": 221,
      "size": 1,
      "price": "1011000000000000000000",
      "reserved": "",
      "salt": "0xa277ab71d80b97bef210022c34c17283cb80440654dfc813c38cc53b468db63f",
      "assetIds": []
    },
    {
      "x": 101,
      "y": 222,
      "size": 1,
      "price": "1011000000000000000000",
      "reserved": "",
      "salt": "0x3e85390e34fd6d9740afd59598d86731fb327a604fb585c7ad55c9636410ebb9",
      "assetIds": []
    },
    {
      "x": 101,
      "y": 223,
      "size": 1,
      "price": "1011000000000000000000",
      "reserved": "",
      "salt": "0x96e5b2b42fa174cdaba1786471dbd59721cd16eb55b7a5f5dbcd6841d12cb6ac",
      "assetIds": []
    },
    {
      "x": 101,
      "y": 224,
      "size": 1,
      "price": "1011000000000000000000",
      "reserved": "",
      "salt": "0x119c30c65364bd79f021c837ac9d1108cb51c2d30a4ef69033c7f093e1945c26",
      "assetIds": []
    },
    {
      "x": 101,
      "y": 237,
      "size": 1,
      "price": "1011000000000000000000",
      "reserved": "",
      "salt": "0xd530ebe488991991c7c9d9a47c98367fb6da9acf1a4f102611adc91442139af3",
      "assetIds": []
    },
    {
      "x": 101,
      "y": 238,
      "size": 1,
      "price": "1011000000000000000000",
      "reserved": "",
      "salt": "0xb58205e0a3168ebe9c12860721d981f1c452c8d9ffd888d919f152e5cfcf371a",
      "assetIds": []
    },
    {
      "x": 101,
      "y": 239,
      "size": 1,
      "price": "1011000000000000000000",
      "reserved": "",
      "salt": "0x1bfe1e89de7007e21a01ee10d20d42226eee59e65dcfa4ddbf984cb31b307c7d",
      "assetIds": []
    },
    {
      "x": 101,
      "y": 240,
      "size": 1,
      "price": "1011000000000000000000",
      "reserved": "",
      "salt": "0xbd6b55dbfa507b16a229609b4f11dbc166fbeb3571e196fda76467bcad3db6ed",
      "assetIds": []
    },
    {
      "x": 101,
      "y": 241,
      "size": 1,
      "price": "1011000000000000000000",
      "reserved": "",
      "salt": "0xe16390775dec03aa63aed4647fcf18dcc2afb5acdeec3698315286bda78bc617",
      "assetIds": []
    },
    {
      "x": 101,
      "y": 242,
      "size": 1,
      "price": "1011000000000000000000",
      "reserved": "",
      "salt": "0xac171f904209193e5facb0b415b4c416aed9e780e2c839feba7bcd8a7bee1802",
      "assetIds": []
    },
    {
      "x": 102,
      "y": 216,
      "size": 1,
      "price": "1011000000000000000000",
      "reserved": "",
      "salt": "0x131556588de0f9f18d031b7a8558ed7a13f00547518e8855e0e4479fd4b92f9c",
      "assetIds": []
    },
    {
      "x": 102,
      "y": 217,
      "size": 1,
      "price": "1011000000000000000000",
      "reserved": "",
      "salt": "0x808f13e82d464601699a3e365e906452beb906a20e26dafa4aee6c888087a1cf",
      "assetIds": []
    },
    {
      "x": 102,
      "y": 218,
      "size": 1,
      "price": "1011000000000000000000",
      "reserved": "",
      "salt": "0x97acb222cb6f04dac114cc60f95a477d5ef5f60df45ffc9772b1d5990d51261b",
      "assetIds": []
    },
    {
      "x": 102,
      "y": 219,
      "size": 1,
      "price": "1011000000000000000000",
      "reserved": "",
      "salt": "0xe44c7bce0275266eaca7054466a30fd00597847f393634aa6d1407caa7599ce3",
      "assetIds": []
    },
    {
      "x": 102,
      "y": 220,
      "size": 1,
      "price": "1011000000000000000000",
      "reserved": "0x7a9fe22691c811ea339d9b73150e6911a5343dca",
      "salt": "0x6cef6990baffbdc368e8249bfa5370a5d700e9e2e3e3723c3ffe5fa6df031e4f",
      "assetIds": []
    },
    {
      "x": 102,
      "y": 221,
      "size": 1,
      "price": "1011000000000000000000",
      "reserved": "",
      "salt": "0x0dced77b730408242423cf876ffe267bc2a3a8f4cbd4e5aa9cfde087934e90b3",
      "assetIds": []
    },
    {
      "x": 102,
      "y": 222,
      "size": 1,
      "price": "1011000000000000000000",
      "reserved": "",
      "salt": "0x9283575c179be2af1e40325e12d304b26c91fc2f92b145b92a58062a86bb7fa6",
      "assetIds": []
    },
    {
      "x": 102,
      "y": 223,
      "size": 1,
      "price": "1011000000000000000000",
      "reserved": "",
      "salt": "0x38e672705b9d0632f16f58ca4a6466ed9ca14dd39640f0c34d606ec11a69c9fc",
      "assetIds": []
    },
    {
      "x": 102,
      "y": 224,
      "size": 1,
      "price": "1011000000000000000000",
      "reserved": "",
      "salt": "0xf71f62bdab8ee1880fbff54e87b9b2a708c1e159e34834c08578d9403333828c",
      "assetIds": []
    },
    {
      "x": 102,
      "y": 225,
      "size": 1,
      "price": "1011000000000000000000",
      "reserved": "",
      "salt": "0x100530d96ec184b4fc71b4c8e3bf5da676c431eea22486881431b2fcbd5a89dd",
      "assetIds": []
    },
    {
      "x": 102,
      "y": 226,
      "size": 1,
      "price": "1011000000000000000000",
      "reserved": "",
      "salt": "0xdc44b61cc31edde79bb864fcf0493984b32d668349234bdbb06589f589cfef46",
      "assetIds": []
    },
    {
      "x": 102,
      "y": 227,
      "size": 1,
      "price": "1011000000000000000000",
      "reserved": "",
      "salt": "0xcc0b3fcbbf24645dc562ff5d8a9bb0f9e45d10b36785906e2f21777cfc4aa905",
      "assetIds": []
    },
    {
      "x": 102,
      "y": 228,
      "size": 1,
      "price": "1011000000000000000000",
      "reserved": "",
      "salt": "0xe22386ac50b4ff18c023a8d74e7b38058a07860d1da2209e8252fc10d5b361b3",
      "assetIds": []
    },
    {
      "x": 102,
      "y": 229,
      "size": 1,
      "price": "1011000000000000000000",
      "reserved": "",
      "salt": "0x5bd046a16520c4c6db608bf81a151d9bd4961bd6a56d11edc8eaaf7a67e41594",
      "assetIds": []
    },
    {
      "x": 102,
      "y": 230,
      "size": 1,
      "price": "1011000000000000000000",
      "reserved": "",
      "salt": "0xdaefbc8beae1b4bb4b4a8383ceb413f849c98006252578c0d32efa6b4cb8abcf",
      "assetIds": []
    },
    {
      "x": 102,
      "y": 231,
      "size": 1,
      "price": "1011000000000000000000",
      "reserved": "",
      "salt": "0x6d6a07b61f743add295b5ce1a0bf1b18371effdbf38b37b15766b4e21a49269c",
      "assetIds": []
    },
    {
      "x": 102,
      "y": 232,
      "size": 1,
      "price": "1011000000000000000000",
      "reserved": "",
      "salt": "0xf3fed732318d5a6fe962a8c26e3d8db2d1f0fd05bb1d888cfd7bc9c272faf099",
      "assetIds": []
    },
    {
      "x": 102,
      "y": 233,
      "size": 1,
      "price": "1011000000000000000000",
      "reserved": "",
      "salt": "0xf6091576f4dc4a5ed05e08d627e673874528a9b0ed7c602f7e2676368b3704ad",
      "assetIds": []
    },
    {
      "x": 103,
      "y": 216,
      "size": 1,
      "price": "1011000000000000000000",
      "reserved": "",
      "salt": "0x05942861e280689e166b6259847acdf755a2c87ab319fe036e6dfbaca75b8ed5",
      "assetIds": []
    },
    {
      "x": 103,
      "y": 217,
      "size": 1,
      "price": "1011000000000000000000",
      "reserved": "",
      "salt": "0xc0ac09a4788a5fa83882fb1ee44bcdbaa06582fe0570d3e4fe7cf61dcd9fce59",
      "assetIds": []
    },
    {
      "x": 103,
      "y": 218,
      "size": 1,
      "price": "1011000000000000000000",
      "reserved": "",
      "salt": "0xd9583d900fe319611a40633c24b840843481170bb241ad607cc5c75749ea28fd",
      "assetIds": []
    },
    {
      "x": 103,
      "y": 219,
      "size": 1,
      "price": "1011000000000000000000",
      "reserved": "",
      "salt": "0x638a8f13a83ec250eba24e96149a8cfe02a75c7ccc3915198578b7192a538fad",
      "assetIds": []
    },
    {
      "x": 103,
      "y": 220,
      "size": 1,
      "price": "1011000000000000000000",
      "reserved": "",
      "salt": "0x018f41ac1ed8a86f836d3a1ec941687277b6e9f43670d91b35c71cb4655b8467",
      "assetIds": []
    },
    {
      "x": 103,
      "y": 221,
      "size": 1,
      "price": "1011000000000000000000",
      "reserved": "",
      "salt": "0x192631be376cf02c82df5aca724b2d2845563be545fb573d156ab21de301e3ba",
      "assetIds": []
    },
    {
      "x": 103,
      "y": 222,
      "size": 1,
      "price": "1011000000000000000000",
      "reserved": "",
      "salt": "0xe8d653fb9ebe922a1fb801854c6e694b18329d0b30d0b2cc4eb25f4b75ff57a8",
      "assetIds": []
    },
    {
      "x": 103,
      "y": 223,
      "size": 1,
      "price": "1011000000000000000000",
      "reserved": "",
      "salt": "0x43cda93e063ef9958b99d85ab83f6950896cf41ec1f0631d2c77f8ae34fd1991",
      "assetIds": []
    },
    {
      "x": 103,
      "y": 224,
      "size": 1,
      "price": "1011000000000000000000",
      "reserved": "",
      "salt": "0xd8d81e99d7e46daca21b0dc3ab1338f9cd5844cf69590af63e088a479f67c2bf",
      "assetIds": []
    },
    {
      "x": 103,
      "y": 225,
      "size": 1,
      "price": "1011000000000000000000",
      "reserved": "",
      "salt": "0x80b64538417867d5910240eaab5b0e8ecdbb148f08852f6f2612c132790d17e6",
      "assetIds": []
    },
    {
      "x": 103,
      "y": 226,
      "size": 1,
      "price": "1011000000000000000000",
      "reserved": "",
      "salt": "0xf7a0652cd888d75a93b742582462bfdfef90a2ae17f1a435e173c271db931d4b",
      "assetIds": []
    },
    {
      "x": 103,
      "y": 227,
      "size": 1,
      "price": "1011000000000000000000",
      "reserved": "",
      "salt": "0x24cbf56ad72b377330d48305a35e5da777f4c83ef9714959d61602bebbd048f5",
      "assetIds": []
    },
    {
      "x": 103,
      "y": 228,
      "size": 1,
      "price": "1011000000000000000000",
      "reserved": "",
      "salt": "0x8e43d5fdbce46fd8eb3335bcf140e3028c4020d561d68cbdaaf8ff1fb2f2e4be",
      "assetIds": []
    },
    {
      "x": 103,
      "y": 229,
      "size": 1,
      "price": "1011000000000000000000",
      "reserved": "",
      "salt": "0xcc6292acea2e9475faa0ac4002a6b03d4bddee0bd824fd0a3a5f5ccae6d892c7",
      "assetIds": []
    },
    {
      "x": 103,
      "y": 230,
      "size": 1,
      "price": "1011000000000000000000",
      "reserved": "",
      "salt": "0x2e3610b2047193211da2607cb06caa896e52e30d39e6041e66a772c3dec255d9",
      "assetIds": []
    },
    {
      "x": 103,
      "y": 231,
      "size": 1,
      "price": "1011000000000000000000",
      "reserved": "",
      "salt": "0x99190cf25133a91414dd427eff1aa708ce177e7062fc09169e6fa34e1d7380a2",
      "assetIds": []
    },
    {
      "x": 103,
      "y": 232,
      "size": 1,
      "price": "1011000000000000000000",
      "reserved": "",
      "salt": "0xcc1f1baa2e850fd73edec9005f200ee4e73701045edb00df5a62a85e51e5d934",
      "assetIds": []
    },
    {
      "x": 103,
      "y": 233,
      "size": 1,
      "price": "1011000000000000000000",
      "reserved": "",
      "salt": "0xc4fb8b74732761ceee7c8d0d28b71c4e71a4f31a6a7320460fa4dfcdcb9562ff",
      "assetIds": []
    },
    {
      "x": 104,
      "y": 216,
      "size": 1,
      "price": "1011000000000000000000",
      "reserved": "",
      "salt": "0x1581d0020dab795ac45d0effe4a4d032f038ebdc8fdcfd37d9393c0260f5ecb6",
      "assetIds": []
    },
    {
      "x": 104,
      "y": 217,
      "size": 1,
      "price": "1011000000000000000000",
      "reserved": "",
      "salt": "0xc7e27ba6651d4423015be08c7214353ea36bfd040d89c99232d04b1a97b2b533",
      "assetIds": []
    },
    {
      "x": 104,
      "y": 218,
      "size": 1,
      "price": "1011000000000000000000",
      "reserved": "",
      "salt": "0x8633fa6c715afc26f832debe6bc048fbef301d93026ad2a575e509eddbdd4c35",
      "assetIds": []
    },
    {
      "x": 104,
      "y": 219,
      "size": 1,
      "price": "1011000000000000000000",
      "reserved": "",
      "salt": "0x13b757e185b83599179d7e9563dd8a4c0badfaf63d7671dbd82d31f124bee9b1",
      "assetIds": []
    },
    {
      "x": 104,
      "y": 220,
      "size": 1,
      "price": "1011000000000000000000",
      "reserved": "",
      "salt": "0x953921edab63386aeec4643ffb8588c7de53c765747bbb03d5f6a1a06525d0d7",
      "assetIds": []
    },
    {
      "x": 104,
      "y": 221,
      "size": 1,
      "price": "1011000000000000000000",
      "reserved": "",
      "salt": "0x8e02d39438765f736336cb1662240fe6cfaab3ce82171d718886b921c5f235a1",
      "assetIds": []
    },
    {
      "x": 104,
      "y": 222,
      "size": 1,
      "price": "4683000000000000000000",
      "reserved": "",
      "salt": "0xa1505ccf4988fe66c4be40ffdf059604d8ce63645f47f2f6c7bc0c213334b012",
      "assetIds": []
    },
    {
      "x": 104,
      "y": 223,
      "size": 1,
      "price": "4683000000000000000000",
      "reserved": "",
      "salt": "0xaa4bc6ae54e6a9660c4394b8eaee98d25165a883f04cbce9a87974fbb56c7da0",
      "assetIds": []
    },
    {
      "x": 104,
      "y": 224,
      "size": 1,
      "price": "4683000000000000000000",
      "reserved": "",
      "salt": "0xc0b2a8183ee7a37613bd409e8cbb8c0dc467736c2876a685c7fc00b9bebcdd39",
      "assetIds": []
    },
    {
      "x": 104,
      "y": 225,
      "size": 1,
      "price": "1011000000000000000000",
      "reserved": "",
      "salt": "0x9678dbe934da6f74930e39abbc254bf8d62f2c01681701e872569eafd824d0d2",
      "assetIds": []
    },
    {
      "x": 104,
      "y": 226,
      "size": 1,
      "price": "1011000000000000000000",
      "reserved": "",
      "salt": "0x2d43914e3b96513190e37002dec5af8dccc933b348b97e0310396defc27a2d31",
      "assetIds": []
    },
    {
      "x": 104,
      "y": 227,
      "size": 1,
      "price": "1011000000000000000000",
      "reserved": "",
      "salt": "0xc1d8a5821d06174ebb42f3a0e8a1a4be70c85ba1f3aed138cb265deee4db8541",
      "assetIds": []
    },
    {
      "x": 104,
      "y": 228,
      "size": 1,
      "price": "1011000000000000000000",
      "reserved": "",
      "salt": "0x9a8d4c212ca1a6d5c16faf12ff0c54ef37239b4aa52fd24e958d31576578a9d9",
      "assetIds": []
    },
    {
      "x": 104,
      "y": 229,
      "size": 1,
      "price": "1011000000000000000000",
      "reserved": "",
      "salt": "0xc4bb76dca38be188e236fe6deb7d23766e2e0b3de265c7474a4289ac11fb3fd5",
      "assetIds": []
    },
    {
      "x": 104,
      "y": 230,
      "size": 1,
      "price": "1011000000000000000000",
      "reserved": "",
      "salt": "0x6f6dd20845d35a182c14830315dee272145e895b6d286af3c022ee0658c76d9b",
      "assetIds": []
    },
    {
      "x": 104,
      "y": 231,
      "size": 1,
      "price": "1011000000000000000000",
      "reserved": "",
      "salt": "0xc049d72bf6653d543baf40405986e50ed22e50233a05ce82f05c0a224a565813",
      "assetIds": []
    },
    {
      "x": 104,
      "y": 232,
      "size": 1,
      "price": "1011000000000000000000",
      "reserved": "",
      "salt": "0x7eef696c195b3b1120b222efb6b7929f3ee704a4882912f3a3e47e700f18283f",
      "assetIds": []
    },
    {
      "x": 104,
      "y": 233,
      "size": 1,
      "price": "1011000000000000000000",
      "reserved": "",
      "salt": "0x30bbc52531009e797abe7bfd10109cdd2bebb2c1f0ab1d6fe092525c92ff8e03",
      "assetIds": []
    },
    {
      "x": 105,
      "y": 216,
      "size": 1,
      "price": "1011000000000000000000",
      "reserved": "",
      "salt": "0x8657af3b3c8f93e8ec705db9bbde7ecd980e56897fb9ef427e2a05149a09b41e",
      "assetIds": []
    },
    {
      "x": 105,
      "y": 217,
      "size": 1,
      "price": "1011000000000000000000",
      "reserved": "",
      "salt": "0x406fa0f5d5dbe92166a6e420c5f0ce9a239d5fbee83025fa4a44190875bc4f60",
      "assetIds": []
    },
    {
      "x": 105,
      "y": 218,
      "size": 1,
      "price": "1011000000000000000000",
      "reserved": "",
      "salt": "0x36988512e408af9869ca9e0c07acbc2d548f4bd6e32457021db0bae1cd506369",
      "assetIds": []
    },
    {
      "x": 105,
      "y": 219,
      "size": 1,
      "price": "1011000000000000000000",
      "reserved": "",
      "salt": "0x9a9f9e9bc9bb0dc16583cd4f022793a9b7229982b4e1ba93469d2f4969e63f19",
      "assetIds": []
    },
    {
      "x": 105,
      "y": 220,
      "size": 1,
      "price": "1011000000000000000000",
      "reserved": "",
      "salt": "0xe911d7d6c86bf75db230bb447f9448f3a50397bd8588655ba9932b70fa40b838",
      "assetIds": []
    },
    {
      "x": 105,
      "y": 221,
      "size": 1,
      "price": "4683000000000000000000",
      "reserved": "",
      "salt": "0x5f97a092a33decfb4e3f9e6edfd55ecbc530777bdaba842fcaff5136511c7928",
      "assetIds": []
    },
    {
      "x": 105,
      "y": 225,
      "size": 1,
      "price": "4683000000000000000000",
      "reserved": "",
      "salt": "0xd5be4fc4a8dba06ccfcc9ae5155f9c31531af21ec0c4d13cf3ca2634fe840693",
      "assetIds": []
    },
    {
      "x": 105,
      "y": 226,
      "size": 1,
      "price": "1011000000000000000000",
      "reserved": "",
      "salt": "0xc0b50b5d308108acce80ab8ac616bcb2d5440f2b6c266f052525fa9a31395727",
      "assetIds": []
    },
    {
      "x": 105,
      "y": 227,
      "size": 1,
      "price": "1011000000000000000000",
      "reserved": "",
      "salt": "0xe0543cd72b84fc8d1b0415615d6504bca09213c14953697dfec4a7b00d3119ba",
      "assetIds": []
    },
    {
      "x": 105,
      "y": 228,
      "size": 1,
      "price": "1011000000000000000000",
      "reserved": "0x7a9fe22691c811ea339d9b73150e6911a5343dca",
      "salt": "0x00ce8fd9df8769e51392919eb86851d1f9cda5eb3c920701e98c2d66cb7a5f81",
      "assetIds": []
    },
    {
      "x": 105,
      "y": 229,
      "size": 1,
      "price": "1011000000000000000000",
      "reserved": "0x7a9fe22691c811ea339d9b73150e6911a5343dca",
      "salt": "0x92ec4251fc01353efd6a6f73fc6040bc6d33fe217d3cd1666ad196a7250c7e3a",
      "assetIds": []
    },
    {
      "x": 105,
      "y": 230,
      "size": 1,
      "price": "1011000000000000000000",
      "reserved": "",
      "salt": "0xfa2e8eb6bf8bdc964e24f95697bff2711e5fe9e38b164da834f85211bd40a5f0",
      "assetIds": []
    },
    {
      "x": 105,
      "y": 231,
      "size": 1,
      "price": "1011000000000000000000",
      "reserved": "",
      "salt": "0x5178acdcf3409762b55644c4940d27a8c9190eb3026cf32b59b9e4b769955100",
      "assetIds": []
    },
    {
      "x": 105,
      "y": 232,
      "size": 1,
      "price": "1011000000000000000000",
      "reserved": "0x7a9fe22691c811ea339d9b73150e6911a5343dca",
      "salt": "0x69ab43d3b1d2216f5b71058a99f462a3ce07b65db1c11c1d4e97f40eee0911a5",
      "assetIds": []
    },
    {
      "x": 105,
      "y": 233,
      "size": 1,
      "price": "1011000000000000000000",
      "reserved": "",
      "salt": "0x7b2ee0f8c619c227056361df11c66d2a02d55ed4a84f98f5ba3ce70d5612e701",
      "assetIds": []
    },
    {
      "x": 105,
      "y": 240,
      "size": 1,
      "price": "1011000000000000000000",
      "reserved": "",
      "salt": "0x8f14d957d305b0bbd248bf5c30265a379105ff76735056061b6bee536af58aee",
      "assetIds": []
    },
    {
      "x": 105,
      "y": 241,
      "size": 1,
      "price": "1011000000000000000000",
      "reserved": "",
      "salt": "0xe27ac85e3bb3e5d5b869242445e7ecf541ee4c152ea1b0b5853458f245f4456d",
      "assetIds": []
    },
    {
      "x": 105,
      "y": 242,
      "size": 1,
      "price": "1011000000000000000000",
      "reserved": "",
      "salt": "0xffd1e8f952a6a5b5a1dc23b7266f2c7221dac16d27f603627c47f7e8d810c296",
      "assetIds": []
    },
    {
      "x": 106,
      "y": 216,
      "size": 1,
      "price": "1011000000000000000000",
      "reserved": "",
      "salt": "0x0aa096dca17b7caf11b874057766cc55ce7c7cd60e0718a3c2d6ff3969474a00",
      "assetIds": []
    },
    {
      "x": 106,
      "y": 217,
      "size": 1,
      "price": "1011000000000000000000",
      "reserved": "",
      "salt": "0x0c1b13bd257c808abdb9a34713495013faf673566338bc0c0bea87f66cf0701c",
      "assetIds": []
    },
    {
      "x": 106,
      "y": 218,
      "size": 1,
      "price": "1011000000000000000000",
      "reserved": "",
      "salt": "0xfb547fb1d0922735a721cd90f5a463b92097796fec0001bee7d0312b0f21a8ab",
      "assetIds": []
    },
    {
      "x": 106,
      "y": 219,
      "size": 1,
      "price": "1011000000000000000000",
      "reserved": "",
      "salt": "0xf3ee3ff960c92de6cf9b2b86021a11b023b5390d29463daed4f63798f3b50dfb",
      "assetIds": []
    },
    {
      "x": 106,
      "y": 220,
      "size": 1,
      "price": "1011000000000000000000",
      "reserved": "",
      "salt": "0x4fbca42fc9169d14d309f22faae6ae8617f94be65d9da44dd935ead74ca89328",
      "assetIds": []
    },
    {
      "x": 106,
      "y": 221,
      "size": 1,
      "price": "1011000000000000000000",
      "reserved": "",
      "salt": "0x0719c913a4702be350c65310f88175df924db245f515630b2d2a7dd3a565dc4f",
      "assetIds": []
    },
    {
      "x": 106,
      "y": 225,
      "size": 1,
      "price": "4683000000000000000000",
      "reserved": "",
      "salt": "0x83fb188cf96cabb9cc8b4dfcee3295bab5461bf108507a669c02a107788492e0",
      "assetIds": []
    },
    {
      "x": 106,
      "y": 226,
      "size": 1,
      "price": "1011000000000000000000",
      "reserved": "",
      "salt": "0x957ec3e121c873b5090d7d89156138f3fde5f533031f33e9d66133e3205c2af8",
      "assetIds": []
    },
    {
      "x": 106,
      "y": 227,
      "size": 1,
      "price": "1011000000000000000000",
      "reserved": "",
      "salt": "0x2e7aab49f7f60d08be1592912d0ee272c7a8454fde33f38bde0aef77b2b0101a",
      "assetIds": []
    },
    {
      "x": 106,
      "y": 228,
      "size": 1,
      "price": "1011000000000000000000",
      "reserved": "",
      "salt": "0xa1ffabb2fc7361d07cb70485f68069d4c13922c5bd2a72fcaf901cf545bf30dd",
      "assetIds": []
    },
    {
      "x": 106,
      "y": 229,
      "size": 1,
      "price": "1011000000000000000000",
      "reserved": "",
      "salt": "0xeaae615f31b3b1e536e465490ca87d0b66faf16a65c587cafe15308a8615cc4d",
      "assetIds": []
    },
    {
      "x": 106,
      "y": 230,
      "size": 1,
      "price": "1011000000000000000000",
      "reserved": "",
      "salt": "0xdde8ad780d626c9aab65c00323cc32a7e94e70d7e7468c2ba850de948b1bc7ac",
      "assetIds": []
    },
    {
      "x": 106,
      "y": 231,
      "size": 1,
      "price": "1011000000000000000000",
      "reserved": "",
      "salt": "0x4f0b8d6157999dcfca76604c7121f0da827d6a16222ba5f62ced279ffbc2126a",
      "assetIds": []
    },
    {
      "x": 106,
      "y": 232,
      "size": 1,
      "price": "1011000000000000000000",
      "reserved": "",
      "salt": "0x071971ea267a72447e2e6df835692edf7c14668a209ca1ecff694b2e1670137c",
      "assetIds": []
    },
    {
      "x": 106,
      "y": 233,
      "size": 1,
      "price": "1011000000000000000000",
      "reserved": "",
      "salt": "0x6c5b48e66b96ed75d5700506aa4f318d55a85791ef6643aa3301753776ede661",
      "assetIds": []
    },
    {
      "x": 106,
      "y": 240,
      "size": 1,
      "price": "1011000000000000000000",
      "reserved": "",
      "salt": "0xafc3d5824f3b847bddd1633f5bcc2c2460a073ca3b2b19758e9b3c066d98aa59",
      "assetIds": []
    },
    {
      "x": 106,
      "y": 241,
      "size": 1,
      "price": "1011000000000000000000",
      "reserved": "0x7a9fe22691c811ea339d9b73150e6911a5343dca",
      "salt": "0xfe2f7208f5b31ffe3d33359d01d957f61ef57270de24cf57d33c5fdb444615ba",
      "assetIds": []
    },
    {
      "x": 106,
      "y": 242,
      "size": 1,
      "price": "1011000000000000000000",
      "reserved": "",
      "salt": "0x16654d8f05afe5d38a933b517e7e52e30c1363afdc2f1daedf9bb8f76f15c7ca",
      "assetIds": []
    },
    {
      "x": 107,
      "y": 216,
      "size": 1,
      "price": "1011000000000000000000",
      "reserved": "",
      "salt": "0x706be992b65324385ea46b39925edbadb1e1c1600430e9d641a1d1be4f43ae0d",
      "assetIds": []
    },
    {
      "x": 107,
      "y": 217,
      "size": 1,
      "price": "1011000000000000000000",
      "reserved": "",
      "salt": "0x8227a8a9b44ecdfbdb9b892a8cb29443a93b3ae43e05af1634d91a05266153ea",
      "assetIds": []
    },
    {
      "x": 107,
      "y": 218,
      "size": 1,
      "price": "1011000000000000000000",
      "reserved": "",
      "salt": "0xb86a3af827fe748c85db6fa800af519d37a7c1a6d01ea181ea73e33efe627942",
      "assetIds": []
    },
    {
      "x": 107,
      "y": 219,
      "size": 1,
      "price": "1011000000000000000000",
      "reserved": "",
      "salt": "0x4aadddd201ba98732d0716772650a3fe544bc9e55cb4e60defa6e0a98ce98e9e",
      "assetIds": []
    },
    {
      "x": 107,
      "y": 220,
      "size": 1,
      "price": "1011000000000000000000",
      "reserved": "",
      "salt": "0xe3dad8de48a9fd0c8679c51dd4ce810f3fdc4d4e5e0cc157607fd03b65485de4",
      "assetIds": []
    },
    {
      "x": 107,
      "y": 221,
      "size": 1,
      "price": "4683000000000000000000",
      "reserved": "",
      "salt": "0xa02de5816dee5f740401648cd3749c9704238ebb69bd77b6500d3860b7588260",
      "assetIds": []
    },
    {
      "x": 107,
      "y": 225,
      "size": 1,
      "price": "4683000000000000000000",
      "reserved": "",
      "salt": "0x2406f3898f5f0e3722d5d2825f54903d12b4c40715bd980a6c42fb91bac687e5",
      "assetIds": []
    },
    {
      "x": 107,
      "y": 226,
      "size": 1,
      "price": "1011000000000000000000",
      "reserved": "",
      "salt": "0x744092dd4a271cdc6e5800c8a0833f86c2094df666b841e1cbf943ce7644cb98",
      "assetIds": []
    },
    {
      "x": 107,
      "y": 227,
      "size": 1,
      "price": "1011000000000000000000",
      "reserved": "",
      "salt": "0x871bcef10e9a4e280ef1434ea0eae99526c14b74700402a33cab629ced344bda",
      "assetIds": []
    },
    {
      "x": 107,
      "y": 228,
      "size": 1,
      "price": "1011000000000000000000",
      "reserved": "",
      "salt": "0x9eb0841396a0c222dad2397eec4f942a55745566c9297a902ea35d33924f7069",
      "assetIds": []
    },
    {
      "x": 107,
      "y": 229,
      "size": 1,
      "price": "1011000000000000000000",
      "reserved": "",
      "salt": "0xea15294ea8969986bbde7a4cbb6b676ef4cb0a6a7805a110af2bc3242ede42aa",
      "assetIds": []
    },
    {
      "x": 107,
      "y": 230,
      "size": 1,
      "price": "1011000000000000000000",
      "reserved": "",
      "salt": "0x77bd5638bec3c596b0c7f16e803a29176dc4c450f5e904939c53a9c40e836879",
      "assetIds": []
    },
    {
      "x": 107,
      "y": 231,
      "size": 1,
      "price": "1011000000000000000000",
      "reserved": "",
      "salt": "0x696ebf0b8b5fbef6a1b32aa4557e110ae84fbf7edb0db924c69fa212350be32a",
      "assetIds": []
    },
    {
      "x": 107,
      "y": 232,
      "size": 1,
      "price": "1011000000000000000000",
      "reserved": "",
      "salt": "0x294c680f949644063d2583bae4b2c68764373a59ed11ce356a2fbb7159b6b0b0",
      "assetIds": []
    },
    {
      "x": 107,
      "y": 233,
      "size": 1,
      "price": "1011000000000000000000",
      "reserved": "",
      "salt": "0x8e2d95eb1081fa7eb145f855175ae00b4c3b10642230f51da915893deb5e99cc",
      "assetIds": []
    },
    {
      "x": 107,
      "y": 240,
      "size": 1,
      "price": "1011000000000000000000",
      "reserved": "",
      "salt": "0x967912174ffec8ae2bd08d9588bb8e78037f0cce6f12fc1bc0ce9a467c12499f",
      "assetIds": []
    },
    {
      "x": 107,
      "y": 241,
      "size": 1,
      "price": "1011000000000000000000",
      "reserved": "",
      "salt": "0xc7b88f30d30fcfd142d39ff2c2182c6947e03f887b18336277059595a151b8f1",
      "assetIds": []
    },
    {
      "x": 107,
      "y": 242,
      "size": 1,
      "price": "1011000000000000000000",
      "reserved": "",
      "salt": "0x5cbc84093a5a3799f93afa0d8b7bb5d6b33e861580ea96590b0a72a7deca595e",
      "assetIds": []
    },
    {
      "x": 108,
      "y": 201,
      "size": 1,
      "price": "1011000000000000000000",
      "reserved": "",
      "salt": "0x6521357e5028922bc004405f180681fbe57b3b96d48119fcc65775e38eb030f9",
      "assetIds": []
    },
    {
      "x": 108,
      "y": 202,
      "size": 1,
      "price": "1011000000000000000000",
      "reserved": "",
      "salt": "0x78423b5c02118188ce8c888d0ab657a1888ebc58f98487cc64dcdb7cff2d1a3f",
      "assetIds": []
    },
    {
      "x": 108,
      "y": 203,
      "size": 1,
      "price": "1011000000000000000000",
      "reserved": "",
      "salt": "0xa8b8511835bc4c95da708b78a4ccbdf2a251ded72af4999cd6df9b8da464634e",
      "assetIds": []
    },
    {
      "x": 108,
      "y": 204,
      "size": 1,
      "price": "1011000000000000000000",
      "reserved": "",
      "salt": "0xd17586e23f6c07563d94da1eefa89a0b041184cd9d41ff1eac970439f76b9146",
      "assetIds": []
    },
    {
      "x": 108,
      "y": 205,
      "size": 1,
      "price": "1011000000000000000000",
      "reserved": "",
      "salt": "0x8575b47eac852bcb7fa8ed0128eabb38a321b430dabfb4276b7c5aa816e79e33",
      "assetIds": []
    },
    {
      "x": 108,
      "y": 206,
      "size": 1,
      "price": "1011000000000000000000",
      "reserved": "",
      "salt": "0xfeeea7c774d288f654d1be000995fb2691fa52c25e514570de7fbc8d0a8a3e04",
      "assetIds": []
    },
    {
      "x": 108,
      "y": 207,
      "size": 1,
      "price": "1011000000000000000000",
      "reserved": "",
      "salt": "0xbc3cd1cac7bfd6fe2c84102176e65a647be22619a4375f73c70f7fdc3efe1752",
      "assetIds": []
    },
    {
      "x": 108,
      "y": 208,
      "size": 1,
      "price": "1011000000000000000000",
      "reserved": "",
      "salt": "0x06e7b47f0d6024e573367e0256e6e190ce9f9c9fd5416c46e0d4f3f18b420344",
      "assetIds": []
    },
    {
      "x": 108,
      "y": 209,
      "size": 1,
      "price": "1011000000000000000000",
      "reserved": "",
      "salt": "0x521f1285aaf582b6db73a293f7bb8055bad228034b09a71042dac084cf152056",
      "assetIds": []
    },
    {
      "x": 108,
      "y": 219,
      "size": 1,
      "price": "1011000000000000000000",
      "reserved": "",
      "salt": "0x407413b06cbdc158943612b327baea30e5183ec8e7b8feaba564364b0ef85fb1",
      "assetIds": []
    },
    {
      "x": 108,
      "y": 220,
      "size": 1,
      "price": "1011000000000000000000",
      "reserved": "",
      "salt": "0x04ccedfd4b3611e50a4ea9e2c0a2145a2b879d9a2e344d14c5d4e6bdad2b65e9",
      "assetIds": []
    },
    {
      "x": 108,
      "y": 221,
      "size": 1,
      "price": "1011000000000000000000",
      "reserved": "0x7a9fe22691c811ea339d9b73150e6911a5343dca",
      "salt": "0x4b5f5ccb3c12a14eaf692156df4fd45c7bb819b28fbc6a05a059d4669654e99e",
      "assetIds": []
    },
    {
      "x": 108,
      "y": 222,
      "size": 1,
      "price": "4683000000000000000000",
      "reserved": "",
      "salt": "0x963134d2f0dce91c5ec7989352003e064dd7ff9f8b83600dbabdfe288c907e1a",
      "assetIds": []
    },
    {
      "x": 108,
      "y": 223,
      "size": 1,
      "price": "1011000000000000000000",
      "reserved": "0x7a9fe22691c811ea339d9b73150e6911a5343dca",
      "salt": "0xaa12e67831cc172fed3ddf04380d8a68fcf187307bb4829c1cafe24f0186f603",
      "assetIds": []
    },
    {
      "x": 108,
      "y": 224,
      "size": 1,
      "price": "4683000000000000000000",
      "reserved": "",
      "salt": "0xc8594d928114f068a1285a548c264a400bb50eceb33d32a7eeb96f38e1ee8315",
      "assetIds": []
    },
    {
      "x": 108,
      "y": 231,
      "size": 1,
      "price": "1011000000000000000000",
      "reserved": "",
      "salt": "0x66971329e9ca4d35d2891ee68f8b6baac56006a373c27677ccb7fbd244ea662a",
      "assetIds": []
    },
    {
      "x": 108,
      "y": 232,
      "size": 1,
      "price": "1011000000000000000000",
      "reserved": "",
      "salt": "0x0083db11815a59f343c6affff5bd688235f9820a78065b5f88258eb2a71aae7f",
      "assetIds": []
    },
    {
      "x": 108,
      "y": 233,
      "size": 1,
      "price": "1011000000000000000000",
      "reserved": "",
      "salt": "0x332e0c669c6a8d141fe92c8b0f9d44aaee9f88587132e1f8971118adf6850fac",
      "assetIds": []
    },
    {
      "x": 108,
      "y": 234,
      "size": 1,
      "price": "1011000000000000000000",
      "reserved": "",
      "salt": "0xae6510ab7e065cf2ba776a5173fe3ca13bdd6dd80e0846c588fce9da380a5211",
      "assetIds": []
    },
    {
      "x": 108,
      "y": 235,
      "size": 1,
      "price": "1011000000000000000000",
      "reserved": "",
      "salt": "0xa0291fee38cddba6d8c31064bd11fe8f65c1dc127b10aa39f5606cf665176743",
      "assetIds": []
    },
    {
      "x": 108,
      "y": 236,
      "size": 1,
      "price": "1011000000000000000000",
      "reserved": "",
      "salt": "0x533489ff5833ec0367787099b50c19fdbf8da2c50ce20b79dd8cf95b76799a13",
      "assetIds": []
    },
    {
      "x": 108,
      "y": 240,
      "size": 1,
      "price": "1011000000000000000000",
      "reserved": "",
      "salt": "0xb1c4f130381cd7ef5e623b2191c53932d54d8ae2c1ce1aa3f4a3766afae281d2",
      "assetIds": []
    },
    {
      "x": 108,
      "y": 241,
      "size": 1,
      "price": "1011000000000000000000",
      "reserved": "",
      "salt": "0x33c9649f3c064d46f3c9556294c14d180e94eb76afa3d94e8e783aad08c01b46",
      "assetIds": []
    },
    {
      "x": 108,
      "y": 242,
      "size": 1,
      "price": "1011000000000000000000",
      "reserved": "",
      "salt": "0x0df3a0538ff93a389143ee5cbf876e2dccb711780cc5f0773e4518401384fd86",
      "assetIds": []
    },
    {
      "x": 109,
      "y": 201,
      "size": 1,
      "price": "1011000000000000000000",
      "reserved": "",
      "salt": "0x54d68740b6920d0291faa550ce13626558c941fc75803cbbc716e03e06245726",
      "assetIds": []
    },
    {
      "x": 109,
      "y": 202,
      "size": 1,
      "price": "1011000000000000000000",
      "reserved": "",
      "salt": "0x750d321ab514e3e7d32dbefa3143b46c0a026025f9cbe4afd8bf513f55b7160f",
      "assetIds": []
    },
    {
      "x": 109,
      "y": 203,
      "size": 1,
      "price": "1011000000000000000000",
      "reserved": "",
      "salt": "0x35aca13fb4bfc3f020e12b688c1ec223f76aa810588d1437faf57f7756e1f9cc",
      "assetIds": []
    },
    {
      "x": 109,
      "y": 204,
      "size": 1,
      "price": "1011000000000000000000",
      "reserved": "",
      "salt": "0x19e500d0b1492d7cffeb878f2c1c1ffd02bb0a7625c7d516d67128192157e3c5",
      "assetIds": []
    },
    {
      "x": 109,
      "y": 205,
      "size": 1,
      "price": "1011000000000000000000",
      "reserved": "",
      "salt": "0xd576d98893886a5e5c0865cc4dc43388bb2f81554e089bb0f962b04c8bbff904",
      "assetIds": []
    },
    {
      "x": 109,
      "y": 206,
      "size": 1,
      "price": "1011000000000000000000",
      "reserved": "",
      "salt": "0x49ab67baeffad9e6f6a5a498d4fded4c5699d0791d11751b4a59ae80a4c7208f",
      "assetIds": []
    },
    {
      "x": 109,
      "y": 207,
      "size": 1,
      "price": "1011000000000000000000",
      "reserved": "",
      "salt": "0x73d9deff1337bcc4d720728fa504c706aa7b6349d04911890bcc3bafb91f0184",
      "assetIds": []
    },
    {
      "x": 109,
      "y": 208,
      "size": 1,
      "price": "1011000000000000000000",
      "reserved": "",
      "salt": "0x13c7090e707c7be20ca6843dfadf44644384f1314fd02fa0de3e9fb6beb65b2d",
      "assetIds": []
    },
    {
      "x": 109,
      "y": 209,
      "size": 1,
      "price": "1011000000000000000000",
      "reserved": "",
      "salt": "0xc10681f77e1e391c025b99f03886833c04b4e1dd21f13dd25eb2d7827a6ce4db",
      "assetIds": []
    },
    {
      "x": 109,
      "y": 219,
      "size": 1,
      "price": "1011000000000000000000",
      "reserved": "",
      "salt": "0x1c45d860d3c692b720e9ab121049bce4aa4e9fbc02e8e6d3b4464320796fbd33",
      "assetIds": []
    },
    {
      "x": 109,
      "y": 220,
      "size": 1,
      "price": "1011000000000000000000",
      "reserved": "",
      "salt": "0xeba5bed498757e481fac506e25caa59014adef0ec40a590ae11cb4a85c2e68ce",
      "assetIds": []
    },
    {
      "x": 109,
      "y": 221,
      "size": 1,
      "price": "1011000000000000000000",
      "reserved": "",
      "salt": "0xc54a2d037c6973d93e1ba79d7915c3dce3f6a552e10367b0f5a1fdbc10fbafad",
      "assetIds": []
    },
    {
      "x": 109,
      "y": 222,
      "size": 1,
      "price": "1011000000000000000000",
      "reserved": "",
      "salt": "0x577d6c12e715a57671964123bf35ba75a5d4ec74a766ad4c8cb06cdad088bba4",
      "assetIds": []
    },
    {
      "x": 109,
      "y": 223,
      "size": 1,
      "price": "1011000000000000000000",
      "reserved": "",
      "salt": "0x181ae5d05c0d4ff863fb2bc1b150afd7047bd7f3938ac40f73d83436dd22446e",
      "assetIds": []
    },
    {
      "x": 109,
      "y": 224,
      "size": 1,
      "price": "1011000000000000000000",
      "reserved": "",
      "salt": "0xf76262ec94074021a3b627a586eb9cf323887e76f8d056a7ce23636b93165ae3",
      "assetIds": []
    },
    {
      "x": 109,
      "y": 231,
      "size": 1,
      "price": "1011000000000000000000",
      "reserved": "",
      "salt": "0x2f72d3a94167d7c07f113516ae7dce234ac5e64cb1293becfefa859159d931a8",
      "assetIds": []
    },
    {
      "x": 109,
      "y": 232,
      "size": 1,
      "price": "1011000000000000000000",
      "reserved": "",
      "salt": "0xf9dc615eac7383af559abbc4f32dcce0510826b999bb30b0a9a7ef8a44f4cbd3",
      "assetIds": []
    },
    {
      "x": 109,
      "y": 233,
      "size": 1,
      "price": "1011000000000000000000",
      "reserved": "",
      "salt": "0x62f8cb6da987063023f8180600977c59c69b35391440859d5df2c7f5ba464d8c",
      "assetIds": []
    },
    {
      "x": 109,
      "y": 234,
      "size": 1,
      "price": "1011000000000000000000",
      "reserved": "",
      "salt": "0xd39b44c25e3a49402e2e9a4378ddfd1c4a4a72d5c0becfec029a121d93d1d608",
      "assetIds": []
    },
    {
      "x": 109,
      "y": 235,
      "size": 1,
      "price": "1011000000000000000000",
      "reserved": "",
      "salt": "0xb02c3bbe6f4bd435411f0b7f565a7d68960fdb96f28c6c30247c6d931721a06b",
      "assetIds": []
    },
    {
      "x": 109,
      "y": 236,
      "size": 1,
      "price": "1011000000000000000000",
      "reserved": "",
      "salt": "0xc5e2c7700223b60d46180a21b3289c6ce90be1b66d0c058e312d9f1908d2325b",
      "assetIds": []
    },
    {
      "x": 109,
      "y": 240,
      "size": 1,
      "price": "1011000000000000000000",
      "reserved": "",
      "salt": "0xd08624c2be6409cdd849bfefab8597bd8b18df8501d461210e78b8d11730cbf4",
      "assetIds": []
    },
    {
      "x": 109,
      "y": 241,
      "size": 1,
      "price": "1011000000000000000000",
      "reserved": "",
      "salt": "0xb2e9148cad0f75bf3b580eb55a445d3a8f49df77c32c11c944d2a1526c50214d",
      "assetIds": []
    },
    {
      "x": 109,
      "y": 242,
      "size": 1,
      "price": "1011000000000000000000",
      "reserved": "",
      "salt": "0x1b3affbf23c182702c84af3de9c1f0c7d8918a36109dab0902a1b5871d9bbd83",
      "assetIds": []
    },
    {
      "x": 110,
      "y": 201,
      "size": 1,
      "price": "1011000000000000000000",
      "reserved": "",
      "salt": "0x8d2f4415ecd756da6dbf911960fea30a3321bcb5093a1f895e699c65388a9611",
      "assetIds": []
    },
    {
      "x": 110,
      "y": 202,
      "size": 1,
      "price": "1011000000000000000000",
      "reserved": "",
      "salt": "0x54d7c961707c3db794e4d8a2ecd7d2a9e55a118e862c118114924549c94c0434",
      "assetIds": []
    },
    {
      "x": 110,
      "y": 203,
      "size": 1,
      "price": "1011000000000000000000",
      "reserved": "",
      "salt": "0x17b1a217f7a0440b533a93e5b7eb0b679caa29554bb72adfd73ae05aad1e20c3",
      "assetIds": []
    },
    {
      "x": 110,
      "y": 204,
      "size": 1,
      "price": "1011000000000000000000",
      "reserved": "0x7a9fe22691c811ea339d9b73150e6911a5343dca",
      "salt": "0x563bcc4d9cc022d1abc72efd3d197f88242a204700de59d7a91d1a027fa8b00e",
      "assetIds": []
    },
    {
      "x": 110,
      "y": 205,
      "size": 1,
      "price": "1011000000000000000000",
      "reserved": "",
      "salt": "0x2ff11fa6d64fe4b387bad83b931744b0f4eb591092730df2731700c66aa7a6bf",
      "assetIds": []
    },
    {
      "x": 110,
      "y": 206,
      "size": 1,
      "price": "1011000000000000000000",
      "reserved": "",
      "salt": "0x2b2e501d674d5eb6a0bbb38ef5008d78515ddf778d8daf655679dced5110336e",
      "assetIds": []
    },
    {
      "x": 110,
      "y": 207,
      "size": 1,
      "price": "1011000000000000000000",
      "reserved": "",
      "salt": "0x5d3c70cf9740aa9e56c7800de1931cfb3a390a25394ad66cb02e9eb9856eaf2a",
      "assetIds": []
    },
    {
      "x": 110,
      "y": 208,
      "size": 1,
      "price": "1011000000000000000000",
      "reserved": "",
      "salt": "0xde0f3cc00e232ec26867a16438d64b7e8a921a5366f1a98ace292dcd1bdd31f7",
      "assetIds": []
    },
    {
      "x": 110,
      "y": 209,
      "size": 1,
      "price": "1011000000000000000000",
      "reserved": "",
      "salt": "0x2d05d5d42e20233f878ce1d96fcc367253a25da1c86805f40682706670496af3",
      "assetIds": []
    },
    {
      "x": 110,
      "y": 219,
      "size": 1,
      "price": "1011000000000000000000",
      "reserved": "",
      "salt": "0x224822b2b6be02b182d99b4be02a6af7194d69d63df803917437798226fdae34",
      "assetIds": []
    },
    {
      "x": 110,
      "y": 220,
      "size": 1,
      "price": "4683000000000000000000",
      "reserved": "",
      "salt": "0x5497f2a2c85520ec2bc121193384b7bf88542b744defde8f2f2f7852e75cd5a0",
      "assetIds": []
    },
    {
      "x": 110,
      "y": 221,
      "size": 1,
      "price": "4683000000000000000000",
      "reserved": "",
      "salt": "0xdf2d1f20e2859098a7b98efc9b4c046f10b7cf97a4e8ad6df7e212326b22e74c",
      "assetIds": []
    },
    {
      "x": 110,
      "y": 222,
      "size": 1,
      "price": "1011000000000000000000",
      "reserved": "",
      "salt": "0xf05c585e515e1f049e55a5eb5b5d6544342e00ae09c327cc50f7e5aab1e3ad22",
      "assetIds": []
    },
    {
      "x": 110,
      "y": 223,
      "size": 1,
      "price": "1011000000000000000000",
      "reserved": "",
      "salt": "0x8f2b9f94abe5ef5d182b98f6af6109063a9ca11cbcda603fe1c03edbd137d606",
      "assetIds": []
    },
    {
      "x": 110,
      "y": 224,
      "size": 1,
      "price": "1011000000000000000000",
      "reserved": "",
      "salt": "0x358e7aef4d2a96803c80058e964620377504cb1d13c503cfeb34e672260efdca",
      "assetIds": []
    },
    {
      "x": 110,
      "y": 231,
      "size": 1,
      "price": "1011000000000000000000",
      "reserved": "",
      "salt": "0x7ba8c88228eb6b6d592e3dc62d976fec7a88aa66a535dec5a9fa00fc6e4e6653",
      "assetIds": []
    },
    {
      "x": 110,
      "y": 232,
      "size": 1,
      "price": "1011000000000000000000",
      "reserved": "",
      "salt": "0x1a8a5628859dd61b17b2f957f4a701a99facc4c194c2f477026900b92f6055a2",
      "assetIds": []
    },
    {
      "x": 110,
      "y": 233,
      "size": 1,
      "price": "4683000000000000000000",
      "reserved": "",
      "salt": "0xf84097b5a9295df5043284d3287fe9529e7f1a19ca48b4ecdb311b3e7454c6ad",
      "assetIds": []
    },
    {
      "x": 110,
      "y": 234,
      "size": 1,
      "price": "4683000000000000000000",
      "reserved": "",
      "salt": "0x0fb3b48e6f61d086aa1322ee870dc76c9e44dbe0d8e56e497ba13fbeff3329b7",
      "assetIds": []
    },
    {
      "x": 110,
      "y": 235,
      "size": 1,
      "price": "4683000000000000000000",
      "reserved": "",
      "salt": "0xd20af5e5555f3212aeea76f64dc3c6392d638cc098cede324d9e7e0316a01ebd",
      "assetIds": []
    },
    {
      "x": 110,
      "y": 236,
      "size": 1,
      "price": "4683000000000000000000",
      "reserved": "",
      "salt": "0x0c784da1bde81dd48e242076701ab31af16eed01333ec4ad9ca1c1128d633eb9",
      "assetIds": []
    },
    {
      "x": 110,
      "y": 240,
      "size": 1,
      "price": "1011000000000000000000",
      "reserved": "",
      "salt": "0x55f1e5f89fd9750f274e802b7e6ba127912deb7054fa13f0430d8ddabb295e15",
      "assetIds": []
    },
    {
      "x": 110,
      "y": 241,
      "size": 1,
      "price": "1011000000000000000000",
      "reserved": "0x7a9fe22691c811ea339d9b73150e6911a5343dca",
      "salt": "0x57e8e6036872273d41bbf6fb075696b772e877a6b8be095a2ea654b0da90e04a",
      "assetIds": []
    },
    {
      "x": 110,
      "y": 242,
      "size": 1,
      "price": "1011000000000000000000",
      "reserved": "",
      "salt": "0x0ece3f19b7d97b78cdb8b13532537583ea5f5b555ee452f3b9df1b746a296598",
      "assetIds": []
    },
    {
      "x": 111,
      "y": 201,
      "size": 1,
      "price": "1011000000000000000000",
      "reserved": "",
      "salt": "0x88a21928c845be84b1475cc7a9da1d0e8a04e2d411841c077473ad00368dc157",
      "assetIds": []
    },
    {
      "x": 111,
      "y": 202,
      "size": 1,
      "price": "1011000000000000000000",
      "reserved": "",
      "salt": "0x117380f7373eb53f06693908ddd09513f54467dc9021f4dae43939382d5a7068",
      "assetIds": []
    },
    {
      "x": 111,
      "y": 203,
      "size": 1,
      "price": "1011000000000000000000",
      "reserved": "",
      "salt": "0x956089d96c4e7d1648f5e20cb7078687ac14a57ae8863f97b17c452255bfff91",
      "assetIds": []
    },
    {
      "x": 111,
      "y": 204,
      "size": 1,
      "price": "1011000000000000000000",
      "reserved": "",
      "salt": "0x4a103c63a8da8c2e5ae4324158b9f98496662807b986a702847fa56781bf41f7",
      "assetIds": []
    },
    {
      "x": 111,
      "y": 205,
      "size": 1,
      "price": "1011000000000000000000",
      "reserved": "",
      "salt": "0x918713d7db1eb519553728c4229f63c5897b736e259a076f04ca049ad7b2c8e7",
      "assetIds": []
    },
    {
      "x": 111,
      "y": 206,
      "size": 1,
      "price": "1011000000000000000000",
      "reserved": "",
      "salt": "0x2c34065ef9c03508f0c79a05faa4167f88a4b336ba445d2291e1c6f2f997375f",
      "assetIds": []
    },
    {
      "x": 111,
      "y": 216,
      "size": 1,
      "price": "1011000000000000000000",
      "reserved": "",
      "salt": "0xd4bf33164570ccde72bc38e2a3da2e59e3113d8460604470128304b9c4ffab7d",
      "assetIds": []
    },
    {
      "x": 111,
      "y": 217,
      "size": 1,
      "price": "1011000000000000000000",
      "reserved": "",
      "salt": "0x778a46072596c95032792f5a5e85ab2d946be105f05f9ffb6870d90023cea7ae",
      "assetIds": []
    },
    {
      "x": 111,
      "y": 218,
      "size": 1,
      "price": "4683000000000000000000",
      "reserved": "",
      "salt": "0x97ed0d258433f329bb87b168462b85bef5df53fa203e7db431cfd25b545055ca",
      "assetIds": []
    },
    {
      "x": 111,
      "y": 222,
      "size": 1,
      "price": "4683000000000000000000",
      "reserved": "",
      "salt": "0x42c2e1e72991569a9242d85c6f4c4e30e9100deebefbaa4e5700aced8a70dacc",
      "assetIds": []
    },
    {
      "x": 111,
      "y": 223,
      "size": 1,
      "price": "1011000000000000000000",
      "reserved": "",
      "salt": "0x8965f0dde6a23a8e91a87c4191dbcc130e48b82ed7379e5221cbc3e4ac6ad13f",
      "assetIds": []
    },
    {
      "x": 111,
      "y": 224,
      "size": 1,
      "price": "1011000000000000000000",
      "reserved": "",
      "salt": "0xfdf7e9da94bfad4d8ce57b63e69f478bdb001b9e323c7db9163ddb88dc2faea9",
      "assetIds": []
    },
    {
      "x": 111,
      "y": 225,
      "size": 1,
      "price": "1011000000000000000000",
      "reserved": "",
      "salt": "0xf5d0132208e6d1f2787bee13d8d1c9208834e0283769f806260a7d0c06fce109",
      "assetIds": []
    },
    {
      "x": 111,
      "y": 226,
      "size": 1,
      "price": "1011000000000000000000",
      "reserved": "",
      "salt": "0xd912e4425f5009df26aead7a0a3be5858af711419ed9eacaa0244ae6e9bc825a",
      "assetIds": []
    },
    {
      "x": 111,
      "y": 227,
      "size": 1,
      "price": "1011000000000000000000",
      "reserved": "",
      "salt": "0x953dbdb2e3348f3eab273a037de38fed6d7a0af984b9584079c18308ce5ed583",
      "assetIds": []
    },
    {
      "x": 111,
      "y": 228,
      "size": 1,
      "price": "1011000000000000000000",
      "reserved": "",
      "salt": "0x0acfbfb81b559a12a20e9f08ccd13474ed2c5aa2a7c88e75a50016663e2bec3c",
      "assetIds": []
    },
    {
      "x": 111,
      "y": 229,
      "size": 1,
      "price": "1011000000000000000000",
      "reserved": "",
      "salt": "0x66f6e4fe36bf764e55852afc29a35644fca0f6b99aac172195fc9ae7d3a708b7",
      "assetIds": []
    },
    {
      "x": 111,
      "y": 230,
      "size": 1,
      "price": "1011000000000000000000",
      "reserved": "",
      "salt": "0x663ee271bae37ee538c1a85b80cbf73005ba80924baa3d5e99167746387dedbf",
      "assetIds": []
    },
    {
      "x": 111,
      "y": 231,
      "size": 1,
      "price": "1011000000000000000000",
      "reserved": "",
      "salt": "0xcc409d524946175b64761365c7804462c140d794116103da7e7d15d699b84d12",
      "assetIds": []
    },
    {
      "x": 111,
      "y": 232,
      "size": 1,
      "price": "1011000000000000000000",
      "reserved": "",
      "salt": "0xcd7f8bbf191440ab2beffbdb05ce506caff162e14c5dd3134ff033f085abd8b2",
      "assetIds": []
    },
    {
      "x": 111,
      "y": 233,
      "size": 1,
      "price": "4683000000000000000000",
      "reserved": "",
      "salt": "0xf067402bdd9286f4865d23f058a71ccc95c46d3e021dca8cb2262001e073dd25",
      "assetIds": []
    },
    {
      "x": 111,
      "y": 240,
      "size": 1,
      "price": "1011000000000000000000",
      "reserved": "",
      "salt": "0x4a4d73e88e92a38fa8669d2944e84a4fa35818a43ab17cb0fc0f83023e5b7f21",
      "assetIds": []
    },
    {
      "x": 111,
      "y": 241,
      "size": 1,
      "price": "1011000000000000000000",
      "reserved": "",
      "salt": "0xdd7d78a57ea4d34eb3c8e72c2b22940a0fd6524425d52928c89efe8db83a7b0c",
      "assetIds": []
    },
    {
      "x": 111,
      "y": 242,
      "size": 1,
      "price": "1011000000000000000000",
      "reserved": "",
      "salt": "0x80d3f0348392d3e5bac4fd0424ea82ee2ce49e2b4b15bddf6cc4cfce7e8fcef7",
      "assetIds": []
    },
    {
      "x": 112,
      "y": 201,
      "size": 1,
      "price": "1011000000000000000000",
      "reserved": "",
      "salt": "0x7913fa515a12af2b269b0dba75ed5bdbc575e3f5d5ed10a8c7828051bba2c0cb",
      "assetIds": []
    },
    {
      "x": 112,
      "y": 202,
      "size": 1,
      "price": "1011000000000000000000",
      "reserved": "",
      "salt": "0xe666e7345041fd66d32ea00e4e66c86eee0a3d65c209ad302a807b748664f168",
      "assetIds": []
    },
    {
      "x": 112,
      "y": 203,
      "size": 1,
      "price": "1011000000000000000000",
      "reserved": "",
      "salt": "0xd772d522c77e891dd37a0726af6f05fe3e2b1b3c3a5202573250cd5fa6ac94a5",
      "assetIds": []
    },
    {
      "x": 112,
      "y": 204,
      "size": 1,
      "price": "1011000000000000000000",
      "reserved": "",
      "salt": "0xe617bbddae1154fea4a36cc043b0abd805f71df582cfe34e9692ccde15a6b0be",
      "assetIds": []
    },
    {
      "x": 112,
      "y": 205,
      "size": 1,
      "price": "1011000000000000000000",
      "reserved": "",
      "salt": "0x39a2ef0f1befca7786f695fce3048e7a2b45610897043f5d28c343993e8dafe0",
      "assetIds": []
    },
    {
      "x": 112,
      "y": 206,
      "size": 1,
      "price": "1011000000000000000000",
      "reserved": "",
      "salt": "0xfd61634fbdcf360110fc1d7d9edfb56084d7103ff3baf2f66765aa8db423d32a",
      "assetIds": []
    },
    {
      "x": 112,
      "y": 216,
      "size": 1,
      "price": "1011000000000000000000",
      "reserved": "0x7a9fe22691c811ea339d9b73150e6911a5343dca",
      "salt": "0x3ac9402f5c14bc8a833692f43bb49fa75dcbdeeade7fe74373b854634d929561",
      "assetIds": []
    },
    {
      "x": 112,
      "y": 217,
      "size": 1,
      "price": "1011000000000000000000",
      "reserved": "",
      "salt": "0x6a9d3afddf16a8de26099fe6172df62013dc7c17efdf47c29f5028cb058a7d32",
      "assetIds": []
    },
    {
      "x": 112,
      "y": 218,
      "size": 1,
      "price": "4683000000000000000000",
      "reserved": "",
      "salt": "0x76e1c6fb3e9ce7b01c52f80f7d88c237661bf8862fbe2753ca685d6b1be29ba0",
      "assetIds": []
    },
    {
      "x": 112,
      "y": 222,
      "size": 1,
      "price": "4683000000000000000000",
      "reserved": "",
      "salt": "0x912ac5ef986d9676315f55599476fbfd4e52bd3c2ec5dc5c41b1102f41b7f9b9",
      "assetIds": []
    },
    {
      "x": 112,
      "y": 223,
      "size": 1,
      "price": "1011000000000000000000",
      "reserved": "",
      "salt": "0xf5c068404e2ffacf3545f433881a4a2d1168838ae0eb16773309025ca960bedc",
      "assetIds": []
    },
    {
      "x": 112,
      "y": 224,
      "size": 1,
      "price": "1011000000000000000000",
      "reserved": "",
      "salt": "0xc36578a68a2c1e42880ac387a5ac0dc378d9e606d6db1b77d9802b73480b1fcc",
      "assetIds": []
    },
    {
      "x": 112,
      "y": 225,
      "size": 1,
      "price": "1011000000000000000000",
      "reserved": "",
      "salt": "0x147a4d3adb5ed8dfa90259ef31094840c35934bc8395089b845d884cff4a838b",
      "assetIds": []
    },
    {
      "x": 112,
      "y": 226,
      "size": 1,
      "price": "1011000000000000000000",
      "reserved": "",
      "salt": "0x7fa5f0be46d60171e725d3b8e16f67de806f49ddac917e83cfacb5b289640c4f",
      "assetIds": []
    },
    {
      "x": 112,
      "y": 227,
      "size": 1,
      "price": "1011000000000000000000",
      "reserved": "",
      "salt": "0x6541c42bcbce2efe07657535b43a3448c076fefc5cce41e08e777648aec92a74",
      "assetIds": []
    },
    {
      "x": 112,
      "y": 228,
      "size": 1,
      "price": "1011000000000000000000",
      "reserved": "",
      "salt": "0x246d765771603f5f1dabfc26bb953e7c85a036b5d2ca8c4eed3448d5565135c6",
      "assetIds": []
    },
    {
      "x": 112,
      "y": 229,
      "size": 1,
      "price": "1011000000000000000000",
      "reserved": "",
      "salt": "0xc28b7287bec4116dfa171eaea36911ac210a710a14d64d23d581a33d993d0aff",
      "assetIds": []
    },
    {
      "x": 112,
      "y": 230,
      "size": 1,
      "price": "1011000000000000000000",
      "reserved": "",
      "salt": "0xecb513380690e01ec2b0e19efc61d4d209d87ddd1a5954cb6f31e8491c98b351",
      "assetIds": []
    },
    {
      "x": 112,
      "y": 231,
      "size": 1,
      "price": "1011000000000000000000",
      "reserved": "",
      "salt": "0x50dfb4d9a29c918c9ecd7e83129c8d8abecd6f8f469e0541fc966287911c6188",
      "assetIds": []
    },
    {
      "x": 112,
      "y": 232,
      "size": 1,
      "price": "1011000000000000000000",
      "reserved": "",
      "salt": "0x8321ddb7d04f6c367e108f9b8437cdf1110fde6e5226f22ffa1171bce958aa08",
      "assetIds": []
    },
    {
      "x": 112,
      "y": 233,
      "size": 1,
      "price": "1011000000000000000000",
      "reserved": "",
      "salt": "0x05f4651212c3caf2be685b15b0b36e65261c7fd54cf6e6b24ea8fac00dcc8f0d",
      "assetIds": []
    },
    {
      "x": 112,
      "y": 240,
      "size": 1,
      "price": "1011000000000000000000",
      "reserved": "",
      "salt": "0x8e056f1762d081ddd906b0532dad027b95fac7f2102bdc8926f5c21e4b06c57f",
      "assetIds": []
    },
    {
      "x": 112,
      "y": 241,
      "size": 1,
      "price": "1011000000000000000000",
      "reserved": "",
      "salt": "0x3b8079dc608d7957cd046b528d2e2032b22ecde13de00c9ec05b411d00d11d31",
      "assetIds": []
    },
    {
      "x": 112,
      "y": 242,
      "size": 1,
      "price": "1011000000000000000000",
      "reserved": "",
      "salt": "0x5f3ea74a7e928447b42606d7c7a5095f19b1aa6a34398534d5ac8906f378a4b6",
      "assetIds": []
    },
    {
      "x": 113,
      "y": 201,
      "size": 1,
      "price": "1011000000000000000000",
      "reserved": "",
      "salt": "0x91703f1de4baf918b6c12e87dc9a593bdaa82d7c876f5a5c0afcc1ff11b06242",
      "assetIds": []
    },
    {
      "x": 113,
      "y": 202,
      "size": 1,
      "price": "1011000000000000000000",
      "reserved": "",
      "salt": "0xb896319c46faa897e4415002ea08e7db10c2bbe9bc3de223e9bd666700c8e6ef",
      "assetIds": []
    },
    {
      "x": 113,
      "y": 203,
      "size": 1,
      "price": "1011000000000000000000",
      "reserved": "",
      "salt": "0xae078e4cb41c11f87339b77b1e755ddac62e3aff9d7dc97470b161b6f6ffaedd",
      "assetIds": []
    },
    {
      "x": 113,
      "y": 204,
      "size": 1,
      "price": "1011000000000000000000",
      "reserved": "",
      "salt": "0x9f20b8e56afffadb5363da97c3f4d0dbd31426c2ac54d4e5350808d33e927f64",
      "assetIds": []
    },
    {
      "x": 113,
      "y": 205,
      "size": 1,
      "price": "1011000000000000000000",
      "reserved": "",
      "salt": "0xb385e9f4a636501e43d1fdeb7c8a401dc797888f4f17454136caf794c11c4cba",
      "assetIds": []
    },
    {
      "x": 113,
      "y": 206,
      "size": 1,
      "price": "1011000000000000000000",
      "reserved": "",
      "salt": "0x49be68fdcafa98a9e57eb80ce75200a8767066525d3841378e248ee2631e0cd5",
      "assetIds": []
    },
    {
      "x": 113,
      "y": 216,
      "size": 1,
      "price": "1011000000000000000000",
      "reserved": "",
      "salt": "0x8822f853775add0fa98d7fbb3675b45481d64c2f3693819485ecf3891009eb3f",
      "assetIds": []
    },
    {
      "x": 113,
      "y": 217,
      "size": 1,
      "price": "1011000000000000000000",
      "reserved": "",
      "salt": "0xdfc9d16270e70f149a61ddda51bcf81e06d0eda723660af7824e22d9f230301b",
      "assetIds": []
    },
    {
      "x": 113,
      "y": 218,
      "size": 1,
      "price": "4683000000000000000000",
      "reserved": "",
      "salt": "0xe4c5184ce9e2de79753dab6b9f9e2230a3e886490f887b44626d8d62f3ba5c8c",
      "assetIds": []
    },
    {
      "x": 113,
      "y": 222,
      "size": 1,
      "price": "4683000000000000000000",
      "reserved": "",
      "salt": "0x2f4bd6171319461110dbda9e758dd58e562a3cf604a59a13626eccfa83f09b6d",
      "assetIds": []
    },
    {
      "x": 113,
      "y": 223,
      "size": 1,
      "price": "1011000000000000000000",
      "reserved": "",
      "salt": "0xd6e5334a5e78a6de989d98bebebe8f30cc5ffe085045af3e519a666d2f73a7fe",
      "assetIds": []
    },
    {
      "x": 113,
      "y": 224,
      "size": 1,
      "price": "1011000000000000000000",
      "reserved": "",
      "salt": "0x0ad05a816ae2d724dc27022b24ffb03006b4c39efce69f28db1b9480d696f92d",
      "assetIds": []
    },
    {
      "x": 113,
      "y": 225,
      "size": 1,
      "price": "1011000000000000000000",
      "reserved": "",
      "salt": "0xfa3da82ce7f0b34394eb32bd47b52427bd7c32f7df9e381842dcce3c3a748e2b",
      "assetIds": []
    },
    {
      "x": 113,
      "y": 226,
      "size": 1,
      "price": "1011000000000000000000",
      "reserved": "",
      "salt": "0xa1bb7fba751ac3418ac1baec60b16e60bebaf04e00f324ba96fd7a479a184029",
      "assetIds": []
    },
    {
      "x": 113,
      "y": 227,
      "size": 1,
      "price": "1011000000000000000000",
      "reserved": "",
      "salt": "0xbf45235562d82e111ef2f244b13cfe6f06f067774e80bd36649756acfc4f8773",
      "assetIds": []
    },
    {
      "x": 113,
      "y": 228,
      "size": 1,
      "price": "1011000000000000000000",
      "reserved": "",
      "salt": "0xe022243a13fe74aa0d7bd7f50e67dc8ad8d2e72ebf31f0b6f388fe9236b567df",
      "assetIds": []
    },
    {
      "x": 113,
      "y": 229,
      "size": 1,
      "price": "1011000000000000000000",
      "reserved": "",
      "salt": "0xc1f7a4ff2df03b48b851a6802d4e2c680f76adf8edbd15abb058c7a95bb94c84",
      "assetIds": []
    },
    {
      "x": 113,
      "y": 230,
      "size": 1,
      "price": "1011000000000000000000",
      "reserved": "",
      "salt": "0x2f763ae19aff26d37aca931d1004ded2f1c3fa1a69aab047b14ff746a315e4b9",
      "assetIds": []
    },
    {
      "x": 113,
      "y": 231,
      "size": 1,
      "price": "1011000000000000000000",
      "reserved": "",
      "salt": "0xb289b525844032d5a3fdfc74aa76db7aa872b4002340f652c80aa4afb9373dfd",
      "assetIds": []
    },
    {
      "x": 113,
      "y": 232,
      "size": 1,
      "price": "1011000000000000000000",
      "reserved": "",
      "salt": "0xa4af7d0a19b54d7c36e4ea3387673437f1c5932ab1baf4ac2f93c6cb00007fca",
      "assetIds": []
    },
    {
      "x": 113,
      "y": 233,
      "size": 1,
      "price": "4683000000000000000000",
      "reserved": "",
      "salt": "0x3a7385d55500156c430ac08f130a3b72dc70bdef84feb95a8838f6ed217f3eb7",
      "assetIds": []
    },
    {
      "x": 113,
      "y": 240,
      "size": 1,
      "price": "1011000000000000000000",
      "reserved": "",
      "salt": "0x656c8fd0b5cdd7dc6eeae481b803fecd1b58e9400160a40aa1f10023ae5a9aa8",
      "assetIds": []
    },
    {
      "x": 113,
      "y": 241,
      "size": 1,
      "price": "1011000000000000000000",
      "reserved": "",
      "salt": "0x0055727a3cccd763728b64f0ab33df4e6c085c772ba318241c2940dab1cdd475",
      "assetIds": []
    },
    {
      "x": 113,
      "y": 242,
      "size": 1,
      "price": "1011000000000000000000",
      "reserved": "",
      "salt": "0x77dd1e57491ed549dbca4b2507597876d23c37d4da3c7d4e5682cc9443cced0a",
      "assetIds": []
    },
    {
      "x": 114,
      "y": 201,
      "size": 1,
      "price": "1011000000000000000000",
      "reserved": "",
      "salt": "0xebcd83a005812d4b284f9d3f948cda98b7d05badb782b38ed765a05d84b229be",
      "assetIds": []
    },
    {
      "x": 114,
      "y": 202,
      "size": 1,
      "price": "1011000000000000000000",
      "reserved": "",
      "salt": "0x270bf67daa9635df1e9cf288c4bb140bfdb9008e6ccc4726b1f06e00fb8eca62",
      "assetIds": []
    },
    {
      "x": 114,
      "y": 203,
      "size": 1,
      "price": "1011000000000000000000",
      "reserved": "",
      "salt": "0x2a50754831b6b3c666aac9a4219a8bbb8e9fabbbdf5e94756f3cf4d818b7de76",
      "assetIds": []
    },
    {
      "x": 114,
      "y": 207,
      "size": 1,
      "price": "1011000000000000000000",
      "reserved": "",
      "salt": "0x61dc60aebe0f4b9f1cb5fa01be2ae49780c5018004ba356bc5b9907b95c4033c",
      "assetIds": []
    },
    {
      "x": 114,
      "y": 208,
      "size": 1,
      "price": "1011000000000000000000",
      "reserved": "",
      "salt": "0x89e38a8760ee839deb88c21fdd1b5f9ab6885a1961d5277c2b4945230fdcdd21",
      "assetIds": []
    },
    {
      "x": 114,
      "y": 209,
      "size": 1,
      "price": "1011000000000000000000",
      "reserved": "",
      "salt": "0x4b89c7425d377a6ff694542f7afdd13e546465bdb56ab819ef219e3d5cb62785",
      "assetIds": []
    },
    {
      "x": 114,
      "y": 210,
      "size": 1,
      "price": "1011000000000000000000",
      "reserved": "",
      "salt": "0x0f28cb317f73293c37b587e2c774cbcaa7d8001f32bf8eff2fbd63a6960a9e60",
      "assetIds": []
    },
    {
      "x": 114,
      "y": 211,
      "size": 1,
      "price": "1011000000000000000000",
      "reserved": "",
      "salt": "0x6755acfabbb6b94e2cf5c3cabf2b44c618a93a9564df3a6c4879ace0f8f3a9e8",
      "assetIds": []
    },
    {
      "x": 114,
      "y": 212,
      "size": 1,
      "price": "1011000000000000000000",
      "reserved": "",
      "salt": "0x9bf5ecfb67e577c6104b116044c7a87767480cff60aa7286eea6e5e0c7b6fc2b",
      "assetIds": []
    },
    {
      "x": 114,
      "y": 213,
      "size": 1,
      "price": "1011000000000000000000",
      "reserved": "",
      "salt": "0x79770d88f903697bda343929988b4fb7a7b78b540c7710392ee883878d694729",
      "assetIds": []
    },
    {
      "x": 114,
      "y": 214,
      "size": 1,
      "price": "1011000000000000000000",
      "reserved": "",
      "salt": "0x63a459764084e03b055ca5113f74b658b03389830afbd988e2f285eccd36e4f7",
      "assetIds": []
    },
    {
      "x": 114,
      "y": 215,
      "size": 1,
      "price": "1011000000000000000000",
      "reserved": "",
      "salt": "0x95c0423fd0867e2386f4828c606cfabed07bb229df19c481da8b12272f35bc47",
      "assetIds": []
    },
    {
      "x": 114,
      "y": 216,
      "size": 1,
      "price": "1011000000000000000000",
      "reserved": "",
      "salt": "0x8de6a4ab8a3dfbe9493ffc53e934f5c2e669f90b301a11efc1a0a1dcbe0f7688",
      "assetIds": []
    },
    {
      "x": 114,
      "y": 217,
      "size": 1,
      "price": "1011000000000000000000",
      "reserved": "",
      "salt": "0xd914d62c56cd3bd6daf59167a94ce24ace7e888aec9d4c75e5208d25c9ba3b10",
      "assetIds": []
    },
    {
      "x": 114,
      "y": 218,
      "size": 1,
      "price": "1011000000000000000000",
      "reserved": "",
      "salt": "0xee89479c8a98304edef4737e44f4f9ed02b35beecde631b59f64958d454a5a19",
      "assetIds": []
    },
    {
      "x": 114,
      "y": 219,
      "size": 1,
      "price": "4683000000000000000000",
      "reserved": "",
      "salt": "0x5a6389cbaa04d3e3eacf880d1ea2e3e2a447b255b93b1f5f33b470e21af7149c",
      "assetIds": []
    },
    {
      "x": 114,
      "y": 220,
      "size": 1,
      "price": "4683000000000000000000",
      "reserved": "",
      "salt": "0xdfdf6a86387ab819c54e9738c509c669402e8b2d3d9efc5f621f019b978b6ea4",
      "assetIds": []
    },
    {
      "x": 114,
      "y": 221,
      "size": 1,
      "price": "4683000000000000000000",
      "reserved": "",
      "salt": "0x6af707be5c77d15b77b3f4a4490b98a62d8b7fd34f681cd583575d77741d0a8d",
      "assetIds": []
    },
    {
      "x": 114,
      "y": 228,
      "size": 1,
      "price": "1011000000000000000000",
      "reserved": "",
      "salt": "0xf3c7a6ce6e95e76ed5fbde3b2683beaa8a0c3bcf3c9462aa874baaf9fe1f391b",
      "assetIds": []
    },
    {
      "x": 114,
      "y": 229,
      "size": 1,
      "price": "1011000000000000000000",
      "reserved": "",
      "salt": "0xca6737281e2787b4f37b48e199220a869574ccf73ad7e6f16c2cc83b91e68b17",
      "assetIds": []
    },
    {
      "x": 114,
      "y": 230,
      "size": 1,
      "price": "1011000000000000000000",
      "reserved": "0x7a9fe22691c811ea339d9b73150e6911a5343dca",
      "salt": "0xa2d62b8b4c8f384a3b879ac95f2404c5a7d7777c053172226dcf793b79ac5703",
      "assetIds": []
    },
    {
      "x": 114,
      "y": 231,
      "size": 1,
      "price": "1011000000000000000000",
      "reserved": "",
      "salt": "0x59c3fc67af95ee717fe30ef03100c6b40c4a62f92c266bd92b2dad9c1740aa76",
      "assetIds": []
    },
    {
      "x": 114,
      "y": 232,
      "size": 1,
      "price": "1011000000000000000000",
      "reserved": "",
      "salt": "0x59988e605d780ec972c26bfdbc972e2622c7ec7560c62165f3b35fe8ef5b0187",
      "assetIds": []
    },
    {
      "x": 114,
      "y": 233,
      "size": 1,
      "price": "4683000000000000000000",
      "reserved": "",
      "salt": "0xe145cfff0b5812d72e65dfc0753379fe4dff5d94cbb756db80a3c606f8f81310",
      "assetIds": []
    },
    {
      "x": 114,
      "y": 234,
      "size": 1,
      "price": "4683000000000000000000",
      "reserved": "",
      "salt": "0x626c00fd9e99c05c536a1b29b470a29b8f409738b4a18ba3d58a384f1b666c44",
      "assetIds": []
    },
    {
      "x": 114,
      "y": 235,
      "size": 1,
      "price": "4683000000000000000000",
      "reserved": "",
      "salt": "0x2def43ea9b4b57cb5c1f8aef1a882f06410eeea4345d0d73a49e5b3591b7552d",
      "assetIds": []
    },
    {
      "x": 114,
      "y": 236,
      "size": 1,
      "price": "4683000000000000000000",
      "reserved": "",
      "salt": "0x53f0b2df8f1ddecf6ad6ebf78aafe22b6bdc9bae3823d3fb125ddd20f3d6e5ee",
      "assetIds": []
    },
    {
      "x": 114,
      "y": 237,
      "size": 1,
      "price": "1011000000000000000000",
      "reserved": "",
      "salt": "0xaade66898d422e46a2797e073e01b9ced28a412e8f723d572d3dac36816ca615",
      "assetIds": []
    },
    {
      "x": 114,
      "y": 238,
      "size": 1,
      "price": "1011000000000000000000",
      "reserved": "",
      "salt": "0x2cdf02c69dea31a9697422ecf65d678cd6d68b0455ca6ec63b6a6faffb7a7126",
      "assetIds": []
    },
    {
      "x": 114,
      "y": 239,
      "size": 1,
      "price": "1011000000000000000000",
      "reserved": "",
      "salt": "0xcbdc8fe0eb3b8f59275077cdfc958331cb1674417aa371e039147df0b62193ae",
      "assetIds": []
    },
    {
      "x": 114,
      "y": 240,
      "size": 1,
      "price": "1011000000000000000000",
      "reserved": "",
      "salt": "0x0e022534a82ab968c7249a5f0c897f08a4f9b993da44edb2633369480193f651",
      "assetIds": []
    },
    {
      "x": 114,
      "y": 241,
      "size": 1,
      "price": "1011000000000000000000",
      "reserved": "",
      "salt": "0x575acdcd0a14ad2507eed1026f7b5bd6c17a51d8b3aaf51190908bfef9848ef0",
      "assetIds": []
    },
    {
      "x": 114,
      "y": 242,
      "size": 1,
      "price": "1011000000000000000000",
      "reserved": "",
      "salt": "0xeefe83cce292f6a04bce5ac09831f1c8c05754ef6750d568cf4af96f44d98248",
      "assetIds": []
    },
    {
      "x": 115,
      "y": 201,
      "size": 1,
      "price": "1011000000000000000000",
      "reserved": "",
      "salt": "0xd2a1eab3cccb1e634130f9310b5370784f22b00e7157b0c081ea7f560bc1204b",
      "assetIds": []
    },
    {
      "x": 115,
      "y": 202,
      "size": 1,
      "price": "1011000000000000000000",
      "reserved": "",
      "salt": "0xbecc4ec5e6080632b209dcda524fb7cf8ea1d1be740d7d10bd7638cc0f727f2b",
      "assetIds": []
    },
    {
      "x": 115,
      "y": 203,
      "size": 1,
      "price": "1011000000000000000000",
      "reserved": "0x7a9fe22691c811ea339d9b73150e6911a5343dca",
      "salt": "0x764c936f356fe6d67a638153383bff2bb3db019df881fa34faeb87802fc60151",
      "assetIds": []
    },
    {
      "x": 115,
      "y": 207,
      "size": 1,
      "price": "1011000000000000000000",
      "reserved": "",
      "salt": "0x2f1e86459a8a9280a5521e2d1c64c1eaf7636fa285fb533c5a1f3cbc18a29eb8",
      "assetIds": []
    },
    {
      "x": 115,
      "y": 208,
      "size": 1,
      "price": "1011000000000000000000",
      "reserved": "",
      "salt": "0x36fb4305d2f57844ba1d2a1d03af418854973033ec15231da85f840745fbb39f",
      "assetIds": []
    },
    {
      "x": 115,
      "y": 209,
      "size": 1,
      "price": "1011000000000000000000",
      "reserved": "",
      "salt": "0xf91819e5313efc34d6e0dfc60be370002fb5cd91f799cbfbbacf800cc927e19c",
      "assetIds": []
    },
    {
      "x": 115,
      "y": 210,
      "size": 1,
      "price": "1011000000000000000000",
      "reserved": "",
      "salt": "0xe875db7959429f70158560d9ad688a56ebb7f3f3e36ba2ba54f87edbb6c11248",
      "assetIds": []
    },
    {
      "x": 115,
      "y": 211,
      "size": 1,
      "price": "1011000000000000000000",
      "reserved": "",
      "salt": "0x44a01a73446a6cbfbecdb038dbb1a183979f0f02354d494fea7748bc596de01b",
      "assetIds": []
    },
    {
      "x": 115,
      "y": 212,
      "size": 1,
      "price": "1011000000000000000000",
      "reserved": "",
      "salt": "0x9c1a8403af148ad68b1a77bb3403dd773f211dce9b2b3c21b7bee846e8f01677",
      "assetIds": []
    },
    {
      "x": 115,
      "y": 213,
      "size": 1,
      "price": "1011000000000000000000",
      "reserved": "",
      "salt": "0x1fff0eeb714a8fa708454077bb8816a184bf1cc9de0f9c20b26687b46c5df149",
      "assetIds": []
    },
    {
      "x": 115,
      "y": 214,
      "size": 1,
      "price": "1011000000000000000000",
      "reserved": "",
      "salt": "0x541d05eb91683d343dc4f2416bb4c5944c36bdc193974dc6b26f27c876d01da3",
      "assetIds": []
    },
    {
      "x": 115,
      "y": 215,
      "size": 1,
      "price": "1011000000000000000000",
      "reserved": "",
      "salt": "0xb697189e9fc3e7db21cef22e1e5d320f2474a967bde94bead93ba13d8ab86ad0",
      "assetIds": []
    },
    {
      "x": 115,
      "y": 216,
      "size": 1,
      "price": "1011000000000000000000",
      "reserved": "",
      "salt": "0xcdbbf750b09fee31244d2392c272bf7e6db2c5d4d12455ea2ada3dfe8ab705b9",
      "assetIds": []
    },
    {
      "x": 115,
      "y": 217,
      "size": 1,
      "price": "1011000000000000000000",
      "reserved": "",
      "salt": "0xccc5c884fcecc1d4b50e36d1c2489db989b236aa5a870d9484756bfe9d9ab78d",
      "assetIds": []
    },
    {
      "x": 115,
      "y": 218,
      "size": 1,
      "price": "1011000000000000000000",
      "reserved": "",
      "salt": "0xeafa2d47e1d63702d87f72f853d461f027484af32c90aae09bac889139723d07",
      "assetIds": []
    },
    {
      "x": 115,
      "y": 219,
      "size": 1,
      "price": "1011000000000000000000",
      "reserved": "",
      "salt": "0x7250d00350ec210ab8d275404070bce41b60e1e8b0b27066e31f77ce878c8e04",
      "assetIds": []
    },
    {
      "x": 115,
      "y": 220,
      "size": 1,
      "price": "1011000000000000000000",
      "reserved": "",
      "salt": "0xc5218a0ecba407757ce914ee40e1be4d6475fa0441303dedc65ae85deab9fdee",
      "assetIds": []
    },
    {
      "x": 115,
      "y": 221,
      "size": 1,
      "price": "1011000000000000000000",
      "reserved": "",
      "salt": "0x0445eb193bb63dab8c06b5277461cf222ead3d91cd577d6b3a3a4b44281af0a6",
      "assetIds": []
    },
    {
      "x": 115,
      "y": 228,
      "size": 1,
      "price": "1011000000000000000000",
      "reserved": "",
      "salt": "0x106045650734b5df6a92d31b7f9bc364c8bd64b20bf8aee7e2fd16f525aed984",
      "assetIds": []
    },
    {
      "x": 115,
      "y": 229,
      "size": 1,
      "price": "1011000000000000000000",
      "reserved": "",
      "salt": "0xe2ea40201bc21bff3ab6855a5ca7f17f2f248413bb435eb5f55bc123c962b06f",
      "assetIds": []
    },
    {
      "x": 115,
      "y": 230,
      "size": 1,
      "price": "1011000000000000000000",
      "reserved": "",
      "salt": "0xf553652259e7ca4a5b61c87a835c4dca5feed10106e6e53ef099244678f940bc",
      "assetIds": []
    },
    {
      "x": 115,
      "y": 231,
      "size": 1,
      "price": "1011000000000000000000",
      "reserved": "",
      "salt": "0xb69ce440bf436bfe591db47d016d990f816f9c72b6dbd0c38f8853c18e8398cc",
      "assetIds": []
    },
    {
      "x": 115,
      "y": 232,
      "size": 1,
      "price": "1011000000000000000000",
      "reserved": "",
      "salt": "0x3419e8f7a15fd4dd481466ac0314cfea167f790635a31af63ad7bc451130c674",
      "assetIds": []
    },
    {
      "x": 115,
      "y": 233,
      "size": 1,
      "price": "1011000000000000000000",
      "reserved": "",
      "salt": "0x93b00284aaa59bc03dfb0d92c1d2fe67157b2065d2b787ba6cdb4a4602a1b5c3",
      "assetIds": []
    },
    {
      "x": 115,
      "y": 234,
      "size": 1,
      "price": "1011000000000000000000",
      "reserved": "",
      "salt": "0xcc68fffcd6d918b0cdf1c86ee8dccb0f69d8ba52033a99bb73bfc156b507fa6e",
      "assetIds": []
    },
    {
      "x": 115,
      "y": 235,
      "size": 1,
      "price": "1011000000000000000000",
      "reserved": "",
      "salt": "0xb3bb95c833d29ebf99abf6064793445c051ce78db1a822fbbea5e76e571395eb",
      "assetIds": []
    },
    {
      "x": 115,
      "y": 236,
      "size": 1,
      "price": "1011000000000000000000",
      "reserved": "",
      "salt": "0x2e4c9e8181ee845e0cdee43e890c4019d4de3d858208628ed199a51a42892243",
      "assetIds": []
    },
    {
      "x": 115,
      "y": 237,
      "size": 1,
      "price": "1011000000000000000000",
      "reserved": "",
      "salt": "0x46f547c0fcde10cbf5935085c64f7eb6d31432a9911d445f5b5202af1a8c946e",
      "assetIds": []
    },
    {
      "x": 115,
      "y": 238,
      "size": 1,
      "price": "1011000000000000000000",
      "reserved": "",
      "salt": "0xc900dbc9f09fee9b4c4f590a8e1578456d853d0a0b2ece09242939cdbaf99de4",
      "assetIds": []
    },
    {
      "x": 115,
      "y": 239,
      "size": 1,
      "price": "1011000000000000000000",
      "reserved": "",
      "salt": "0x534068091f660d56397e27c175201439a3233506b6a79d6683e386b19e262f22",
      "assetIds": []
    },
    {
      "x": 115,
      "y": 240,
      "size": 1,
      "price": "1011000000000000000000",
      "reserved": "",
      "salt": "0xac369d9d7fab364ccb274e9af50025db77c9cfc5edaecaadc6dd3a6f3824e58b",
      "assetIds": []
    },
    {
      "x": 115,
      "y": 241,
      "size": 1,
      "price": "1011000000000000000000",
      "reserved": "",
      "salt": "0x31b230c35aed1e5f5e717d3ff40dba14602eefeace20bb7b2a637fe8f306b5be",
      "assetIds": []
    },
    {
      "x": 115,
      "y": 242,
      "size": 1,
      "price": "1011000000000000000000",
      "reserved": "",
      "salt": "0xcfe65af485ed013fe01afe684d7cece8fbbd5f6f8384c5d7e8e46a3ca7ae44d9",
      "assetIds": []
    },
    {
      "x": 116,
      "y": 201,
      "size": 1,
      "price": "1011000000000000000000",
      "reserved": "",
      "salt": "0x78007433946ceab36c063f0c3fae9b8c7c904eba2b6bc32d3b054ee89ad0d417",
      "assetIds": []
    },
    {
      "x": 116,
      "y": 202,
      "size": 1,
      "price": "1011000000000000000000",
      "reserved": "",
      "salt": "0x6ea35b03c6ffa24a72f39a610e43f713d1791962877fbab0476607194861fe50",
      "assetIds": []
    },
    {
      "x": 116,
      "y": 203,
      "size": 1,
      "price": "1011000000000000000000",
      "reserved": "",
      "salt": "0x0a8a6b5af8b37f1a1648784032797e124ee64962c1d5adf0320083557dd642a5",
      "assetIds": []
    },
    {
      "x": 116,
      "y": 207,
      "size": 1,
      "price": "1011000000000000000000",
      "reserved": "",
      "salt": "0xae096ba4c3a0b11110c577d1e37bff94aba8e0f210aa8f76efa0e3a01ecdacb2",
      "assetIds": []
    },
    {
      "x": 116,
      "y": 208,
      "size": 1,
      "price": "1011000000000000000000",
      "reserved": "",
      "salt": "0xbe0a16d6806cd62d084427b70a2f40cbf1ce492fd810440076a8995c686e4459",
      "assetIds": []
    },
    {
      "x": 116,
      "y": 209,
      "size": 1,
      "price": "1011000000000000000000",
      "reserved": "",
      "salt": "0x71463951fa01c6c76b00287f81cca98ee5e74d15d4eb771f7d4e34bdbd0fc3e5",
      "assetIds": []
    },
    {
      "x": 116,
      "y": 210,
      "size": 1,
      "price": "1011000000000000000000",
      "reserved": "",
      "salt": "0x857fd0b406e98d84e8e8c2ac056937b234122c5b316b07d70101558e39f392ff",
      "assetIds": []
    },
    {
      "x": 116,
      "y": 211,
      "size": 1,
      "price": "1011000000000000000000",
      "reserved": "",
      "salt": "0x64ac97066a6629655ad5c066a5b63c1d1ac774e031beeb05abcbb5fddad6d3ee",
      "assetIds": []
    },
    {
      "x": 116,
      "y": 212,
      "size": 1,
      "price": "1011000000000000000000",
      "reserved": "",
      "salt": "0x2fea919f680a7c6b2b87e6fc0bfbe5717efdcbb86745bec12213e4c802674ad6",
      "assetIds": []
    },
    {
      "x": 116,
      "y": 213,
      "size": 1,
      "price": "1011000000000000000000",
      "reserved": "",
      "salt": "0xdbf6f48520d31f7c623ea92fee0743536acf2795a9f63db51eb4d051a53d2730",
      "assetIds": []
    },
    {
      "x": 116,
      "y": 214,
      "size": 1,
      "price": "1011000000000000000000",
      "reserved": "",
      "salt": "0x2589d4c366a5a4bc31a4362ba48aa0f88fd76fa49b4bbd5a615b9ca552e66498",
      "assetIds": []
    },
    {
      "x": 116,
      "y": 215,
      "size": 1,
      "price": "1011000000000000000000",
      "reserved": "",
      "salt": "0xa2c1bdd334ef485c4f1add088195ba61ddcb25d8454562ef2f1497f9d12841c3",
      "assetIds": []
    },
    {
      "x": 116,
      "y": 216,
      "size": 1,
      "price": "1011000000000000000000",
      "reserved": "",
      "salt": "0xfaed21c8492c1e5e125728ff73caf4c65a3b4eaf95655db6596d6c508fd6e7ab",
      "assetIds": []
    },
    {
      "x": 116,
      "y": 217,
      "size": 1,
      "price": "1011000000000000000000",
      "reserved": "",
      "salt": "0x40f17868961da075ffb1109af79d56726ac97d9a96c59e00f429650b3c1751e5",
      "assetIds": []
    },
    {
      "x": 116,
      "y": 218,
      "size": 1,
      "price": "1011000000000000000000",
      "reserved": "",
      "salt": "0xf6be90f832f8377c955ae602f613237f73ce09c9a888387dba052eadb286bfa1",
      "assetIds": []
    },
    {
      "x": 116,
      "y": 219,
      "size": 1,
      "price": "1011000000000000000000",
      "reserved": "",
      "salt": "0x240b89bb88c2be8763552d0931e92a8e58ea41a62e48dfa54936abe5cb2cd53f",
      "assetIds": []
    },
    {
      "x": 116,
      "y": 220,
      "size": 1,
      "price": "1011000000000000000000",
      "reserved": "",
      "salt": "0x4d6f3e80f699b96a8388aa7729b83dee12fa2fa889d7afdf7c6e8ead56d94a72",
      "assetIds": []
    },
    {
      "x": 116,
      "y": 221,
      "size": 1,
      "price": "1011000000000000000000",
      "reserved": "",
      "salt": "0x186dae729f7308e446c063c72009d3b7a5acf4c21f6db17edb6eebcaf1d30c22",
      "assetIds": []
    },
    {
      "x": 116,
      "y": 228,
      "size": 1,
      "price": "1011000000000000000000",
      "reserved": "",
      "salt": "0xd5aafeeacc93f1f6b97d101206324e3e2bb20bfb43427581849da958112d1d18",
      "assetIds": []
    },
    {
      "x": 116,
      "y": 229,
      "size": 1,
      "price": "1011000000000000000000",
      "reserved": "",
      "salt": "0xfced61d8344e17b7928433f1c7d18443be2bb83a1f28b5e46c0f9e2868f4acca",
      "assetIds": []
    },
    {
      "x": 116,
      "y": 230,
      "size": 1,
      "price": "1011000000000000000000",
      "reserved": "",
      "salt": "0x75b68907f381e97927fa873cc64e06eb64c3e12376292cfddabe66cbe8029177",
      "assetIds": []
    },
    {
      "x": 116,
      "y": 231,
      "size": 1,
      "price": "1011000000000000000000",
      "reserved": "",
      "salt": "0x3ffa40a01103be419d2bec3ed0ac838dfafd010981a28f268bcc50095fefa31f",
      "assetIds": []
    },
    {
      "x": 116,
      "y": 232,
      "size": 1,
      "price": "1011000000000000000000",
      "reserved": "",
      "salt": "0x58de6f5accd2a33b5dac433637fa4561c0c7df942d75fa725864f7c99ea2b82c",
      "assetIds": []
    },
    {
      "x": 116,
      "y": 233,
      "size": 1,
      "price": "1011000000000000000000",
      "reserved": "",
      "salt": "0x169f74bf0b61da835de16f5d7114dd09c90dc21fddd2f440403165d55151d669",
      "assetIds": []
    },
    {
      "x": 116,
      "y": 234,
      "size": 1,
      "price": "1011000000000000000000",
      "reserved": "",
      "salt": "0x76cb37b3b1bccc844ff86d4bd601aea77fa8020d50131b213ee0c8d3ec82fa32",
      "assetIds": []
    },
    {
      "x": 116,
      "y": 235,
      "size": 1,
      "price": "1011000000000000000000",
      "reserved": "",
      "salt": "0x0cb05c7cbd27a3d9170d6123e945c22bf1af579964be8815b35c0d3a0c03ef14",
      "assetIds": []
    },
    {
      "x": 116,
      "y": 236,
      "size": 1,
      "price": "1011000000000000000000",
      "reserved": "0x7a9fe22691c811ea339d9b73150e6911a5343dca",
      "salt": "0x218877d669865d95b95a24b793b48c8173345c6ddbe28be1fff7b71aaa10b179",
      "assetIds": []
    },
    {
      "x": 116,
      "y": 237,
      "size": 1,
      "price": "1011000000000000000000",
      "reserved": "",
      "salt": "0x021d451ba0e05bd5a411f1cb1a758cb71b26bfe074bf00a77b64359d5c21d6a0",
      "assetIds": []
    },
    {
      "x": 116,
      "y": 238,
      "size": 1,
      "price": "1011000000000000000000",
      "reserved": "",
      "salt": "0x6d61fcd577d7f230c0a0253d2bb58517848f94deb5f5c87dcccf960090aec6b4",
      "assetIds": []
    },
    {
      "x": 116,
      "y": 239,
      "size": 1,
      "price": "1011000000000000000000",
      "reserved": "",
      "salt": "0xdb640f389261d8017412980ccd9602ce0ae2ad1d13824ea7e69263c258a80ba0",
      "assetIds": []
    },
    {
      "x": 116,
      "y": 240,
      "size": 1,
      "price": "1011000000000000000000",
      "reserved": "0x7a9fe22691c811ea339d9b73150e6911a5343dca",
      "salt": "0x0a2a32050a9abd5979e66a7af41d19c92f83f563eb23ff99a512fa8eac89aae4",
      "assetIds": []
    },
    {
      "x": 116,
      "y": 241,
      "size": 1,
      "price": "1011000000000000000000",
      "reserved": "",
      "salt": "0xae61b73031f882e23fa12f49e0c9115669e3cf85db2d38342e5895fee9c95f38",
      "assetIds": []
    },
    {
      "x": 116,
      "y": 242,
      "size": 1,
      "price": "1011000000000000000000",
      "reserved": "",
      "salt": "0xb26fff84f45766297ed354240da7f9af415a4e7ca4339c09324a4e4f59c825b8",
      "assetIds": []
    },
    {
      "x": 117,
      "y": 204,
      "size": 1,
      "price": "1011000000000000000000",
      "reserved": "",
      "salt": "0x39592380566f8f2082170572e45ea8a880ae15f247ec867fab41e57b18db29ce",
      "assetIds": []
    },
    {
      "x": 117,
      "y": 205,
      "size": 1,
      "price": "1011000000000000000000",
      "reserved": "",
      "salt": "0xa7e5d309df11fd6f21155094029851a81cbe71db0d1fe29ae6d470015dd0b8e6",
      "assetIds": []
    },
    {
      "x": 117,
      "y": 206,
      "size": 1,
      "price": "1011000000000000000000",
      "reserved": "",
      "salt": "0x2231ea79ae9d4c87bd9db149082037406dc361f8fd46e7a7cdb8c26f999c1bc8",
      "assetIds": []
    },
    {
      "x": 117,
      "y": 207,
      "size": 1,
      "price": "1011000000000000000000",
      "reserved": "",
      "salt": "0xc973941b054198c21f4423ba196bf5295891ea8c27ef742d5125c75262dec11a",
      "assetIds": []
    },
    {
      "x": 117,
      "y": 208,
      "size": 1,
      "price": "1011000000000000000000",
      "reserved": "",
      "salt": "0xdf222d4e77a19596c7b0af3ec0c09600557975d638721526ffb6f3fa2f1a59c6",
      "assetIds": []
    },
    {
      "x": 117,
      "y": 209,
      "size": 1,
      "price": "1011000000000000000000",
      "reserved": "",
      "salt": "0x67f82b152e07f9d56207d5a8b727b85e7163a51d2aa87e5614a82c27c601666b",
      "assetIds": []
    },
    {
      "x": 117,
      "y": 216,
      "size": 1,
      "price": "1011000000000000000000",
      "reserved": "",
      "salt": "0x63e3a3359fccd84333fe7531f7e93298c0522e6b118353df0359439d7cfab7ed",
      "assetIds": []
    },
    {
      "x": 117,
      "y": 217,
      "size": 1,
      "price": "1011000000000000000000",
      "reserved": "",
      "salt": "0xf2f97c839e642987cd3a32ee6a5593c43405622c141532c0f752198167a2b90d",
      "assetIds": []
    },
    {
      "x": 117,
      "y": 218,
      "size": 1,
      "price": "1011000000000000000000",
      "reserved": "",
      "salt": "0x989f5a275b6fe67d2c1d0302c15532754e409dec923142bfef1713b2610fce36",
      "assetIds": []
    },
    {
      "x": 117,
      "y": 219,
      "size": 1,
      "price": "1011000000000000000000",
      "reserved": "",
      "salt": "0xcc1f0afd9c617b98e131ac422b6028aca64a8a1f56032367c5b7269bf1be81c8",
      "assetIds": []
    },
    {
      "x": 117,
      "y": 220,
      "size": 1,
      "price": "1011000000000000000000",
      "reserved": "0x7a9fe22691c811ea339d9b73150e6911a5343dca",
      "salt": "0x5a19f13d9370e7ba947428322660260951151253b143cbfda6889e303e6abe2f",
      "assetIds": []
    },
    {
      "x": 117,
      "y": 221,
      "size": 1,
      "price": "1011000000000000000000",
      "reserved": "",
      "salt": "0x659649a2df8df541a0bcc477cf870d87fbaa527d5318fe4c3b90cd075e9f59a3",
      "assetIds": []
    },
    {
      "x": 117,
      "y": 228,
      "size": 1,
      "price": "1011000000000000000000",
      "reserved": "",
      "salt": "0x1b670b6cbe284f990cfbe4dcaa952941e82e32f21a6f3eadc44ea68d150442c7",
      "assetIds": []
    },
    {
      "x": 117,
      "y": 229,
      "size": 1,
      "price": "1011000000000000000000",
      "reserved": "",
      "salt": "0x1c6e4d9426ac98154a4bafdd1fc7d16788c3708bf51728dfc4a01424ad37f4be",
      "assetIds": []
    },
    {
      "x": 117,
      "y": 230,
      "size": 1,
      "price": "1011000000000000000000",
      "reserved": "",
      "salt": "0x71b8805b8222938d39762a9125d15f67d7cf3fd767848cd6c4bfe4060d10564b",
      "assetIds": []
    },
    {
      "x": 117,
      "y": 234,
      "size": 1,
      "price": "1011000000000000000000",
      "reserved": "",
      "salt": "0xf691f5d040eeb797ac573643c0a8892bc3b00925f13e9f4d56e174226fbda9ea",
      "assetIds": []
    },
    {
      "x": 117,
      "y": 235,
      "size": 1,
      "price": "1011000000000000000000",
      "reserved": "",
      "salt": "0x5b309e7e57e2eb9b5042f3f692e19b2dfe04fd1fbbd4da3f0a04836c465a8b0e",
      "assetIds": []
    },
    {
      "x": 117,
      "y": 236,
      "size": 1,
      "price": "1011000000000000000000",
      "reserved": "",
      "salt": "0x7b79aa9c66d2904faa81c92ae0ec52bf7f280b9a63dfd81fca7c735230365bc0",
      "assetIds": []
    },
    {
      "x": 117,
      "y": 237,
      "size": 1,
      "price": "1011000000000000000000",
      "reserved": "",
      "salt": "0xacc08e79dd9e5b585238445f5ece76b45b9def34dc4b6486f71af1db9f993ce0",
      "assetIds": []
    },
    {
      "x": 117,
      "y": 238,
      "size": 1,
      "price": "1011000000000000000000",
      "reserved": "",
      "salt": "0x2f5133374bc46487dc6e0b5ee6236920bf0a537963f09d60af8bc233b5c70336",
      "assetIds": []
    },
    {
      "x": 117,
      "y": 239,
      "size": 1,
      "price": "1011000000000000000000",
      "reserved": "",
      "salt": "0x0eb201d57342488e7aa69aa5edfe739cb5b90fe34d1250d06514d12ee2f005f8",
      "assetIds": []
    },
    {
      "x": 117,
      "y": 240,
      "size": 1,
      "price": "1011000000000000000000",
      "reserved": "",
      "salt": "0x987668db29e0d8ca69c855ad49e8b84ac3da92256c16cf5c67e21def0727d3c6",
      "assetIds": []
    },
    {
      "x": 117,
      "y": 241,
      "size": 1,
      "price": "1011000000000000000000",
      "reserved": "",
      "salt": "0xacc4691915abde69195d1c3a3df16af169647c2b35f5ac2c354a0658496d98d0",
      "assetIds": []
    },
    {
      "x": 117,
      "y": 242,
      "size": 1,
      "price": "1011000000000000000000",
      "reserved": "",
      "salt": "0x94234f226e82635d160071a1cb9a060ae3a0839f55f6314aaf54d312bcbdc4ce",
      "assetIds": []
    },
    {
      "x": 118,
      "y": 204,
      "size": 1,
      "price": "1011000000000000000000",
      "reserved": "",
      "salt": "0xf5d9a39d8d19d48029ffd67dc07355546cb01c3d02ac46836f5b96fbcf4f9b71",
      "assetIds": []
    },
    {
      "x": 118,
      "y": 205,
      "size": 1,
      "price": "1011000000000000000000",
      "reserved": "",
      "salt": "0xb14f2bd3d76955d17a9b1ad32aaf24d871f5e56a6e708521d469c4fb2c9fca32",
      "assetIds": []
    },
    {
      "x": 118,
      "y": 206,
      "size": 1,
      "price": "1011000000000000000000",
      "reserved": "",
      "salt": "0x91cfa5c02e12ec8dac1a67a32c245f32756e3bae60483a11cd8b014c499bcbb6",
      "assetIds": []
    },
    {
      "x": 118,
      "y": 207,
      "size": 1,
      "price": "1011000000000000000000",
      "reserved": "",
      "salt": "0xe9ea1224f794182951f4aebd658926dd8537712ffef8a1a3d8c9a0a6480e1f90",
      "assetIds": []
    },
    {
      "x": 118,
      "y": 208,
      "size": 1,
      "price": "1011000000000000000000",
      "reserved": "",
      "salt": "0x13b91b9e5d58517f16996d711ac6b938fe766c1acf91c109964302d7363c6dcc",
      "assetIds": []
    },
    {
      "x": 118,
      "y": 209,
      "size": 1,
      "price": "1011000000000000000000",
      "reserved": "",
      "salt": "0xaa3a15abe3c4297c9c1328116686d0638c519ed2d8edb78e0da5a17a2ad87e70",
      "assetIds": []
    },
    {
      "x": 118,
      "y": 216,
      "size": 1,
      "price": "1011000000000000000000",
      "reserved": "",
      "salt": "0xab21406efda6d2ea5d8faec26ff42864f00982b84f96591429371e95be0c4f55",
      "assetIds": []
    },
    {
      "x": 118,
      "y": 217,
      "size": 1,
      "price": "1011000000000000000000",
      "reserved": "",
      "salt": "0xc1b848f38562eb9623dce01c4e7fdf5c0d35077f03e46a43811f4676cc7d8b36",
      "assetIds": []
    },
    {
      "x": 118,
      "y": 218,
      "size": 1,
      "price": "1011000000000000000000",
      "reserved": "",
      "salt": "0x41a7d5e6449cb1bf38591ca9624106327f3784dbb8bf1224f407e1d701353574",
      "assetIds": []
    },
    {
      "x": 118,
      "y": 219,
      "size": 1,
      "price": "1011000000000000000000",
      "reserved": "",
      "salt": "0x0f8ee006226f1cdada7276c29351a0d2ba986652b7802d52d7f3c5efe4beb4f8",
      "assetIds": []
    },
    {
      "x": 118,
      "y": 220,
      "size": 1,
      "price": "1011000000000000000000",
      "reserved": "",
      "salt": "0x4e52d4793a37ec137beac1581a15eb414c18f8d77c457304ed88b7c372f676d0",
      "assetIds": []
    },
    {
      "x": 118,
      "y": 221,
      "size": 1,
      "price": "1011000000000000000000",
      "reserved": "",
      "salt": "0x553ab4161150607f41508fc4a1650880a226197f5b5a663ec83b86c74e80fcdf",
      "assetIds": []
    },
    {
      "x": 118,
      "y": 228,
      "size": 1,
      "price": "1011000000000000000000",
      "reserved": "",
      "salt": "0x2818525920af2582ad97d6296706086e37dc6b1758ac963910cd11c754ff1bd2",
      "assetIds": []
    },
    {
      "x": 118,
      "y": 229,
      "size": 1,
      "price": "1011000000000000000000",
      "reserved": "",
      "salt": "0xcc80dad99c63da44d2fbb31feaf18c29125c861cd32d2f3384af1eaf09bbace7",
      "assetIds": []
    },
    {
      "x": 118,
      "y": 230,
      "size": 1,
      "price": "1011000000000000000000",
      "reserved": "",
      "salt": "0x6becdc301b2fc2bb7e717adfd346d3bffeb51966f5f6fec9170ea5fbf76e0f65",
      "assetIds": []
    },
    {
      "x": 118,
      "y": 234,
      "size": 1,
      "price": "1011000000000000000000",
      "reserved": "",
      "salt": "0xd145e5e9f5f09f6c91689e6cf6503be88ea1bfc07faccec3fb074dc1123fa017",
      "assetIds": []
    },
    {
      "x": 118,
      "y": 235,
      "size": 1,
      "price": "1011000000000000000000",
      "reserved": "",
      "salt": "0x342c5134cb8cea2040407d0fcbfed125bcc2736e66f715e92b856d13e7f1e170",
      "assetIds": []
    },
    {
      "x": 118,
      "y": 236,
      "size": 1,
      "price": "1011000000000000000000",
      "reserved": "",
      "salt": "0x5fb2081dee02560cbe134a723f935e55feea1422425b634dede699ed7f3d5cc8",
      "assetIds": []
    },
    {
      "x": 118,
      "y": 237,
      "size": 1,
      "price": "1011000000000000000000",
      "reserved": "",
      "salt": "0x9f0238eb27aff47fb2f9409baa5736bac5190e36ca03d0db09dd51da989e21b2",
      "assetIds": []
    },
    {
      "x": 118,
      "y": 238,
      "size": 1,
      "price": "1011000000000000000000",
      "reserved": "",
      "salt": "0x832a9fbc21c6b43152a50a22e0a2b7067654f05ba631fe02acffbfd480d31a12",
      "assetIds": []
    },
    {
      "x": 118,
      "y": 239,
      "size": 1,
      "price": "1011000000000000000000",
      "reserved": "",
      "salt": "0xd687fa9f25cb8fec8248bb8b70f653c005a1b93276414096eff74760420537b7",
      "assetIds": []
    },
    {
      "x": 118,
      "y": 240,
      "size": 1,
      "price": "1011000000000000000000",
      "reserved": "",
      "salt": "0x61fbddc7686dcdf42e1f0361035a3770ddf1dfb875cbfafa4ba40b1c4cd9b67e",
      "assetIds": []
    },
    {
      "x": 118,
      "y": 241,
      "size": 1,
      "price": "1011000000000000000000",
      "reserved": "",
      "salt": "0xbeb9e5e7d32571ac2aad3e781ff39705641d49aa7843b336e0d0db81e2321913",
      "assetIds": []
    },
    {
      "x": 118,
      "y": 242,
      "size": 1,
      "price": "1011000000000000000000",
      "reserved": "",
      "salt": "0x726a0501ba677d8c0eb24c342c18801bbb2247a80f8d1c5eb21a77413b3e8c18",
      "assetIds": []
    },
    {
      "x": 119,
      "y": 204,
      "size": 1,
      "price": "1011000000000000000000",
      "reserved": "",
      "salt": "0xdbe153c1a0c458a3d22b88bf29d873f64482e080d938e7bcfb97262f7c5a6c47",
      "assetIds": []
    },
    {
      "x": 119,
      "y": 205,
      "size": 1,
      "price": "1011000000000000000000",
      "reserved": "",
      "salt": "0x6714da0d3a2693547445b55d6cf91ed56f441ba7212df65e4f4c7fc33a276456",
      "assetIds": []
    },
    {
      "x": 119,
      "y": 206,
      "size": 1,
      "price": "1011000000000000000000",
      "reserved": "",
      "salt": "0x4ebb2467b886364e069b1bc7163bdb844ed133d12d15399fb50dc956c9d21ca7",
      "assetIds": []
    },
    {
      "x": 119,
      "y": 207,
      "size": 1,
      "price": "1011000000000000000000",
      "reserved": "",
      "salt": "0xb9f0d7eb1869b1405280828eb2c7fe2a19b7dc5b56f31fa01a953eea58b0ecd9",
      "assetIds": []
    },
    {
      "x": 119,
      "y": 208,
      "size": 1,
      "price": "1011000000000000000000",
      "reserved": "",
      "salt": "0xa849a143c4dfebf5bc9221bca6113cc4808bf5bde09de7b67847379e8ff6243b",
      "assetIds": []
    },
    {
      "x": 119,
      "y": 209,
      "size": 1,
      "price": "1011000000000000000000",
      "reserved": "",
      "salt": "0x90cd0ade631cab19e40c9d988b04e46525d14d370e41b34f8a72a3668b638a0c",
      "assetIds": []
    },
    {
      "x": 119,
      "y": 216,
      "size": 1,
      "price": "4683000000000000000000",
      "reserved": "",
      "salt": "0x7aa1b149664851c00aabdbdaa4262d6fe03d01f39b737b9ca591a7f9a4c0444f",
      "assetIds": []
    },
    {
      "x": 119,
      "y": 217,
      "size": 1,
      "price": "4683000000000000000000",
      "reserved": "",
      "salt": "0xcd0e9c27a1c56370e7559f11a4076f00c0ad711b0b36ba32dfd649d0ddfcf325",
      "assetIds": []
    },
    {
      "x": 119,
      "y": 218,
      "size": 1,
      "price": "4683000000000000000000",
      "reserved": "",
      "salt": "0xee2e2b622b4e19fb8713d1bc90de42be8a04910fe2b721d21c40f888add8f863",
      "assetIds": []
    },
    {
      "x": 119,
      "y": 219,
      "size": 1,
      "price": "4683000000000000000000",
      "reserved": "",
      "salt": "0xba64e19cedf8db6772fdfeeb38d67387f7116529e5ebe80f53bbc11a9e40ea88",
      "assetIds": []
    },
    {
      "x": 119,
      "y": 220,
      "size": 1,
      "price": "4683000000000000000000",
      "reserved": "",
      "salt": "0xe431b194c45f332ea721ab706bde92908293f54e15cc45a46be5d3190f42eea4",
      "assetIds": []
    },
    {
      "x": 119,
      "y": 221,
      "size": 1,
      "price": "4683000000000000000000",
      "reserved": "",
      "salt": "0xa2cd6737eefb3ec97637d390125601d75874619944d54aede910170e6e4cac2e",
      "assetIds": []
    },
    {
      "x": 119,
      "y": 228,
      "size": 1,
      "price": "4683000000000000000000",
      "reserved": "",
      "salt": "0x8789678de828594570fdafb3fcea64793d281c6fe3805d54de834c68609ac0ea",
      "assetIds": []
    },
    {
      "x": 119,
      "y": 229,
      "size": 1,
      "price": "4683000000000000000000",
      "reserved": "",
      "salt": "0x22a549dd1d0027a9d48cad5553fff7c8230bd80d451042825ec16fb09380d140",
      "assetIds": []
    },
    {
      "x": 119,
      "y": 230,
      "size": 1,
      "price": "4683000000000000000000",
      "reserved": "",
      "salt": "0xbd22904b1555597a452fc49b5dca8065811ea59c89414498c276c119902d8dec",
      "assetIds": []
    },
    {
      "x": 119,
      "y": 234,
      "size": 1,
      "price": "4683000000000000000000",
      "reserved": "",
      "salt": "0xb8cc31bb1ec8f2330c311e184d18866a26dd56f74f75bea34db60e423324db7e",
      "assetIds": []
    },
    {
      "x": 119,
      "y": 235,
      "size": 1,
      "price": "4683000000000000000000",
      "reserved": "",
      "salt": "0xa06482df61b2c15616605caf90914598414b83ebd06b726745b12f3ba515ef85",
      "assetIds": []
    },
    {
      "x": 119,
      "y": 236,
      "size": 1,
      "price": "1011000000000000000000",
      "reserved": "0x7a9fe22691c811ea339d9b73150e6911a5343dca",
      "salt": "0x9554ab987e8e00668c64bfe94a19911f5f7a88c6d3a7981775ffa0e4b2357493",
      "assetIds": []
    },
    {
      "x": 119,
      "y": 237,
      "size": 1,
      "price": "4683000000000000000000",
      "reserved": "",
      "salt": "0x898b451f3f82f82f5c68ec5ec85f3a88a377c4bd89ecb6468810c74a857024b3",
      "assetIds": []
    },
    {
      "x": 119,
      "y": 238,
      "size": 1,
      "price": "4683000000000000000000",
      "reserved": "",
      "salt": "0x2c5c13a251e8c6a744520fda76aaa21da8f108cb632bab3ddb445d4eb0754fee",
      "assetIds": []
    },
    {
      "x": 119,
      "y": 239,
      "size": 1,
      "price": "4683000000000000000000",
      "reserved": "",
      "salt": "0x3eab008adbe48a5fa86845773d70b521e96095a3f352572efdaa81c47769b452",
      "assetIds": []
    },
    {
      "x": 119,
      "y": 240,
      "size": 1,
      "price": "1011000000000000000000",
      "reserved": "",
      "salt": "0x73202abbefda9352f7ad228e7ef735cbe214d374df8e2a3411e05dcba2a30f3a",
      "assetIds": []
    },
    {
      "x": 119,
      "y": 241,
      "size": 1,
      "price": "1011000000000000000000",
      "reserved": "",
      "salt": "0xac0eabd17b14b531661a554b5d05c754984f4e0595c94d4ee0923270d8f4de46",
      "assetIds": []
    },
    {
      "x": 119,
      "y": 242,
      "size": 1,
      "price": "1011000000000000000000",
      "reserved": "",
      "salt": "0x8b5e421034e348af9fc4f3ae61744b720df717f539288069e8791b8f4381fb0e",
      "assetIds": []
    },
    {
      "x": 120,
      "y": 201,
      "size": 1,
      "price": "1011000000000000000000",
      "reserved": "",
      "salt": "0xb798b704e6a0737bc8262251e98c992576a5a7052b88bab9a0cdf62f28fdb833",
      "assetIds": []
    },
    {
      "x": 120,
      "y": 202,
      "size": 1,
      "price": "1011000000000000000000",
      "reserved": "",
      "salt": "0xf7a6cf8b829860bdbbcfc99fb8f866e8c19379e62429c2e5ebcaf6f4a2423e11",
      "assetIds": []
    },
    {
      "x": 120,
      "y": 203,
      "size": 1,
      "price": "1011000000000000000000",
      "reserved": "",
      "salt": "0x66232eec4203d4b82ace6fbb58c769bf691e6d8707e728f76c68a1d1233d2737",
      "assetIds": []
    },
    {
      "x": 120,
      "y": 204,
      "size": 1,
      "price": "1011000000000000000000",
      "reserved": "",
      "salt": "0x6fda5406049401eb3db975a9939063d64d52c50e01c3d9e796677e912de9ef4e",
      "assetIds": []
    },
    {
      "x": 120,
      "y": 205,
      "size": 1,
      "price": "1011000000000000000000",
      "reserved": "",
      "salt": "0xa90dbc50039abf65047da4455fc0083b07a047f28b011ae5f4676957e61b82ed",
      "assetIds": []
    },
    {
      "x": 120,
      "y": 206,
      "size": 1,
      "price": "1011000000000000000000",
      "reserved": "",
      "salt": "0xc39c5922bfe328fdaf2ec8973f3f99c1eca3a133109bc34e287981ff8695b399",
      "assetIds": []
    },
    {
      "x": 120,
      "y": 210,
      "size": 1,
      "price": "1011000000000000000000",
      "reserved": "",
      "salt": "0x54c0178011b3dc64db51f74bec1c1c8e10a172e94826d7f6fc6220effac3952f",
      "assetIds": []
    },
    {
      "x": 120,
      "y": 211,
      "size": 1,
      "price": "1011000000000000000000",
      "reserved": "",
      "salt": "0x2e6641ccc3f2c525b8aab7a6f7e72702c02a28497877c8da3803f84177c47bed",
      "assetIds": []
    },
    {
      "x": 120,
      "y": 212,
      "size": 1,
      "price": "1011000000000000000000",
      "reserved": "",
      "salt": "0xb28a301ee5fc17c075c03328a9c23ceb4ab1047298b1292db6e363244ce910ac",
      "assetIds": []
    },
    {
      "x": 120,
      "y": 213,
      "size": 1,
      "price": "1011000000000000000000",
      "reserved": "",
      "salt": "0x3a29d2e2932cd9326e0bbe833ea51cc9d3b531fcfdbe1b792f90c2916bf6370a",
      "assetIds": []
    },
    {
      "x": 120,
      "y": 214,
      "size": 1,
      "price": "1011000000000000000000",
      "reserved": "",
      "salt": "0x5b31e7d794cbdb3398bfd8c6b20f85215b19ada92b33b32a1881ef2ee9824dd2",
      "assetIds": []
    },
    {
      "x": 120,
      "y": 215,
      "size": 1,
      "price": "4683000000000000000000",
      "reserved": "",
      "salt": "0xb6386773b89d2ea455efef0024823eef70ecff9b65d9d88a98f099ea931afe3f",
      "assetIds": []
    },
    {
      "x": 121,
      "y": 201,
      "size": 1,
      "price": "1011000000000000000000",
      "reserved": "",
      "salt": "0x508516908cdb215ba1f6a49dd453b5adfd5bd3cb00e70d7cdaa259f1055cba48",
      "assetIds": []
    },
    {
      "x": 121,
      "y": 202,
      "size": 1,
      "price": "1011000000000000000000",
      "reserved": "",
      "salt": "0xb498d8c69aaae9a766132d8f7d5bfd014f149765971faf18c744a819ce11ced9",
      "assetIds": []
    },
    {
      "x": 121,
      "y": 203,
      "size": 1,
      "price": "1011000000000000000000",
      "reserved": "",
      "salt": "0x5bdbcf61fc499f7a0c25393aa3250c3d833a2f0607d4cc3fcd3d0d70e9efd0d9",
      "assetIds": []
    },
    {
      "x": 121,
      "y": 204,
      "size": 1,
      "price": "1011000000000000000000",
      "reserved": "",
      "salt": "0x7c7cb4e82c40143b5e969a6dcee76913516c5cd0cbe6a53c48b61b9f76c73c17",
      "assetIds": []
    },
    {
      "x": 121,
      "y": 205,
      "size": 1,
      "price": "1011000000000000000000",
      "reserved": "",
      "salt": "0x619d882d4acacecbd67933b1835e6c28e7dfd009988091a2d0027d5ffaa847a5",
      "assetIds": []
    },
    {
      "x": 121,
      "y": 206,
      "size": 1,
      "price": "1011000000000000000000",
      "reserved": "",
      "salt": "0xa7491e76cb1f096db7e3e25e8fd9f95f6b7e0ac4b09e6066dbe54df9bb20964a",
      "assetIds": []
    },
    {
      "x": 121,
      "y": 210,
      "size": 1,
      "price": "1011000000000000000000",
      "reserved": "",
      "salt": "0xfb7ae8666d8dbd232887a6091406685c45033de3d2234b2b986c2f2af504283f",
      "assetIds": []
    },
    {
      "x": 121,
      "y": 211,
      "size": 1,
      "price": "1011000000000000000000",
      "reserved": "",
      "salt": "0xdfa7c1f627c9f5bac38de05c99e5a1ba1fa3a40e6fa7b90c8673b94b68a2fdb2",
      "assetIds": []
    },
    {
      "x": 121,
      "y": 212,
      "size": 1,
      "price": "1011000000000000000000",
      "reserved": "",
      "salt": "0x0e6c4120263a81254d2e89120a6604b8c6ef2ad1b9b084b94f218850d4eace91",
      "assetIds": []
    },
    {
      "x": 121,
      "y": 213,
      "size": 1,
      "price": "1011000000000000000000",
      "reserved": "",
      "salt": "0x1b149f59f5d01cd816103c1cdb6fd87d8679646347e16d09c2252330488a872f",
      "assetIds": []
    },
    {
      "x": 121,
      "y": 214,
      "size": 1,
      "price": "1011000000000000000000",
      "reserved": "",
      "salt": "0xcf207178bc7e5c96ece22395c6e77e61c129e6e3c081f3b0c2f6893784cf6024",
      "assetIds": []
    },
    {
      "x": 121,
      "y": 215,
      "size": 1,
      "price": "4683000000000000000000",
      "reserved": "",
      "salt": "0x4ce24c2ec398b2210dba75ee97dda7f827215480d0080c04588a63274df9651d",
      "assetIds": []
    },
    {
      "x": 122,
      "y": 201,
      "size": 1,
      "price": "1011000000000000000000",
      "reserved": "",
      "salt": "0xb9dca712d61ecf66d29a0c45ca36a1f6a2edb33ff70bcac67dcdaa65e2728dce",
      "assetIds": []
    },
    {
      "x": 122,
      "y": 202,
      "size": 1,
      "price": "1011000000000000000000",
      "reserved": "",
      "salt": "0x3d86b6ea4f22136c7bb2e7e29064135c8d4f3698a21980200be408fa046f88f2",
      "assetIds": []
    },
    {
      "x": 122,
      "y": 203,
      "size": 1,
      "price": "1011000000000000000000",
      "reserved": "",
      "salt": "0x1f31ad97f83f7709506bf3ec24b8f0997fb8a1b9fceb9abf5984cd05914de609",
      "assetIds": []
    },
    {
      "x": 122,
      "y": 204,
      "size": 1,
      "price": "4683000000000000000000",
      "reserved": "",
      "salt": "0xa779cb472fdfe3342fa3297b6a7e1bf23cb26af0f1a8d745539d5f983d446737",
      "assetIds": []
    },
    {
      "x": 122,
      "y": 205,
      "size": 1,
      "price": "1011000000000000000000",
      "reserved": "",
      "salt": "0x45a798b57c2fd693b60d01e0556698f1db51cede5de6b9a7c13421fda72c4151",
      "assetIds": []
    },
    {
      "x": 122,
      "y": 206,
      "size": 1,
      "price": "4683000000000000000000",
      "reserved": "",
      "salt": "0x761c4d348d0bb22c7d8ac6bf67c89602985b0d61434343aad2ce9b3a6de2ef42",
      "assetIds": []
    },
    {
      "x": 122,
      "y": 210,
      "size": 1,
      "price": "1011000000000000000000",
      "reserved": "",
      "salt": "0x653d45e1f0656b801dd993802d12beba7ea789d55aabf864bd7ca8d5553b5e60",
      "assetIds": []
    },
    {
      "x": 122,
      "y": 211,
      "size": 1,
      "price": "1011000000000000000000",
      "reserved": "",
      "salt": "0x59e337875e538de5ffc6f8073c7e29dcf01e06806af8f8e81384584fd9d02b2b",
      "assetIds": []
    },
    {
      "x": 122,
      "y": 212,
      "size": 1,
      "price": "1011000000000000000000",
      "reserved": "",
      "salt": "0x390f684977f6d12bb9cbf3a546133a77a71806d786c445ea33c398ed061a69db",
      "assetIds": []
    },
    {
      "x": 122,
      "y": 213,
      "size": 1,
      "price": "1011000000000000000000",
      "reserved": "",
      "salt": "0xb28b8448402c90f8a5133979b51dde5c07255c70a228239b979d30935175364a",
      "assetIds": []
    },
    {
      "x": 122,
      "y": 214,
      "size": 1,
      "price": "1011000000000000000000",
      "reserved": "",
      "salt": "0x9da0933fe53ce3aef8505c9b372804ca3240f6287eb90dd73bc34e31841af094",
      "assetIds": []
    },
    {
      "x": 122,
      "y": 215,
      "size": 1,
      "price": "4683000000000000000000",
      "reserved": "",
      "salt": "0xf7fcaea0e3e9647fca311fcbf4c305658dcb8000c66f97fb8269a5b88effcf81",
      "assetIds": []
    },
    {
      "x": 123,
      "y": 201,
      "size": 1,
      "price": "1011000000000000000000",
      "reserved": "",
      "salt": "0xf86f5f8d1be305e427fc90dd7ea020d71c7425434ee69ddf7a23382ae70db58e",
      "assetIds": []
    },
    {
      "x": 123,
      "y": 202,
      "size": 1,
      "price": "1011000000000000000000",
      "reserved": "",
      "salt": "0x501c98a9170e1322b1834b44f2b52a194e10bec59c571c973df272da7402a98d",
      "assetIds": []
    },
    {
      "x": 123,
      "y": 203,
      "size": 1,
      "price": "4683000000000000000000",
      "reserved": "",
      "salt": "0xa46beab8047f34bf0f252089dfa851a506600b8f39cc6e0af4cea362151e81a8",
      "assetIds": []
    },
    {
      "x": 123,
      "y": 207,
      "size": 1,
      "price": "4683000000000000000000",
      "reserved": "",
      "salt": "0x2b56ba132260dffa09b240a9cc64dc7d8a398d19a6ec46f1349e1bb91caf2aad",
      "assetIds": []
    },
    {
      "x": 123,
      "y": 208,
      "size": 1,
      "price": "1011000000000000000000",
      "reserved": "",
      "salt": "0x9de5d07bddf81ed8dc3aaf560b409e9f647d94db3788c6a6945df250bbdcf676",
      "assetIds": []
    },
    {
      "x": 123,
      "y": 209,
      "size": 1,
      "price": "1011000000000000000000",
      "reserved": "",
      "salt": "0x02ea881c38d929805f4deffe8d77da0aaa88961a726c8371cee03360c30f4d3f",
      "assetIds": []
    },
    {
      "x": 123,
      "y": 210,
      "size": 1,
      "price": "1011000000000000000000",
      "reserved": "",
      "salt": "0x71190936d15b1758d1af10f953da14283be6a57e05914d4b78a8be5a794bb44d",
      "assetIds": []
    },
    {
      "x": 123,
      "y": 211,
      "size": 1,
      "price": "1011000000000000000000",
      "reserved": "",
      "salt": "0x386aaa18b023cdb601fcdcf6d854a553af45ee487e557bed5c130f89af6a143c",
      "assetIds": []
    },
    {
      "x": 123,
      "y": 212,
      "size": 1,
      "price": "1011000000000000000000",
      "reserved": "",
      "salt": "0x23e68f4ee52e4752837b894f2f06379ddaf6f8a9626395b0a904c8537c515574",
      "assetIds": []
    },
    {
      "x": 123,
      "y": 213,
      "size": 1,
      "price": "1011000000000000000000",
      "reserved": "0x7a9fe22691c811ea339d9b73150e6911a5343dca",
      "salt": "0xaadd62e5bc581d335c082769d5b60097c76da60fee3ebedc5d9efbc4a5eab7cb",
      "assetIds": []
    },
    {
      "x": 123,
      "y": 214,
      "size": 1,
      "price": "1011000000000000000000",
      "reserved": "",
      "salt": "0xee1cf928b16982a2c196dfadbb69713378bc309e9162d7f45069a54a4ad6e709",
      "assetIds": []
    },
    {
      "x": 123,
      "y": 215,
      "size": 1,
      "price": "4683000000000000000000",
      "reserved": "",
      "salt": "0x9482dcf48e1fdf15716a764fa4a152c094e8babb61534416a91ccd2490d16146",
      "assetIds": []
    },
    {
      "x": 123,
      "y": 240,
      "size": 1,
      "price": "4683000000000000000000",
      "reserved": "",
      "salt": "0x2e379c8f81e1ef3185417531a6294ad08369018761bbbff286c0dcc8490ae0ca",
      "assetIds": []
    },
    {
      "x": 123,
      "y": 241,
      "size": 1,
      "price": "1011000000000000000000",
      "reserved": "",
      "salt": "0xf58e77c72a22dd7af7c71c5ad18e0ea0fbb50f9de5a6fb160b9333f16218c78b",
      "assetIds": []
    },
    {
      "x": 123,
      "y": 242,
      "size": 1,
      "price": "1011000000000000000000",
      "reserved": "",
      "salt": "0x8b4c979461a7f31a1d3d0198705e581e8a198988880fb24d73612a6ba723691d",
      "assetIds": []
    },
    {
      "x": 124,
      "y": 201,
      "size": 1,
      "price": "1011000000000000000000",
      "reserved": "",
      "salt": "0xf101195b8728fc419218fc16b511671a4328deabe77a89ce6c3f6314aaa44f08",
      "assetIds": []
    },
    {
      "x": 124,
      "y": 202,
      "size": 1,
      "price": "1011000000000000000000",
      "reserved": "",
      "salt": "0x9959158f73537e102ab89e62d301df041250f00b0db88cffeac9e12bb297c3fc",
      "assetIds": []
    },
    {
      "x": 124,
      "y": 203,
      "size": 1,
      "price": "4683000000000000000000",
      "reserved": "",
      "salt": "0x0edaa1b996d3b7de3d16d7bd94fd3ad5260b66dc6140e562cb26dbec6491c161",
      "assetIds": []
    },
    {
      "x": 124,
      "y": 207,
      "size": 1,
      "price": "4683000000000000000000",
      "reserved": "",
      "salt": "0xa74fef03d7f59b11f1a0c8ef579a8790569764d7c77b9686e307944eff35148f",
      "assetIds": []
    },
    {
      "x": 124,
      "y": 208,
      "size": 1,
      "price": "1011000000000000000000",
      "reserved": "",
      "salt": "0x2e2b4f3801d69697a3905cfc9e6296a5dbd5e288105aa5e0da85219ac8d1491a",
      "assetIds": []
    },
    {
      "x": 124,
      "y": 209,
      "size": 1,
      "price": "1011000000000000000000",
      "reserved": "",
      "salt": "0xe5df09d92dab085264d88fa3c90d52834f0a096dd0d18921f867d7ba96267fe9",
      "assetIds": []
    },
    {
      "x": 124,
      "y": 210,
      "size": 1,
      "price": "1011000000000000000000",
      "reserved": "",
      "salt": "0x8629d8fbdd2d5d4c2aed870b99c6ddcc6997d785229f34b2a6e5e430ffe6a6a3",
      "assetIds": []
    },
    {
      "x": 124,
      "y": 211,
      "size": 1,
      "price": "1011000000000000000000",
      "reserved": "",
      "salt": "0x6a7bbdd359f162b9c6ae161d140c60c3aaaa79766d37b27ff648916ab55b9663",
      "assetIds": []
    },
    {
      "x": 124,
      "y": 212,
      "size": 1,
      "price": "1011000000000000000000",
      "reserved": "",
      "salt": "0x1212ae5be543d18de5f8ddc236a913d9fd4b96147f8317fcc6cb0874b016cbef",
      "assetIds": []
    },
    {
      "x": 124,
      "y": 213,
      "size": 1,
      "price": "1011000000000000000000",
      "reserved": "",
      "salt": "0xe15b4ec670b86861af3569dd01c1c74fca4a84ac1038f119ebfeec07a68a5fc8",
      "assetIds": []
    },
    {
      "x": 124,
      "y": 214,
      "size": 1,
      "price": "1011000000000000000000",
      "reserved": "",
      "salt": "0x74dbec534f8eb972381546781754e35c10ba272f7d0be93986b8ec37f1366fd8",
      "assetIds": []
    },
    {
      "x": 124,
      "y": 215,
      "size": 1,
      "price": "4683000000000000000000",
      "reserved": "",
      "salt": "0x0fce48eb873e09de426168ee6f96d97627730836d349ebd0bfd9242be95169d2",
      "assetIds": []
    },
    {
      "x": 124,
      "y": 240,
      "size": 1,
      "price": "4683000000000000000000",
      "reserved": "",
      "salt": "0x3f6e634e142e64fb235a56410b54497c00c5192595a491df2b66fd36061e6751",
      "assetIds": []
    },
    {
      "x": 124,
      "y": 241,
      "size": 1,
      "price": "1011000000000000000000",
      "reserved": "",
      "salt": "0x38b5a1cba0941ece1d94f82c062c613fa8975ec5a76d52dadebde779c90002d8",
      "assetIds": []
    },
    {
      "x": 124,
      "y": 242,
      "size": 1,
      "price": "1011000000000000000000",
      "reserved": "",
      "salt": "0x74b10890d9a63d7bad400991aff4d3c460cb012fe8842d9cb8391647e37d8427",
      "assetIds": []
    },
    {
      "x": 125,
      "y": 201,
      "size": 1,
      "price": "1011000000000000000000",
      "reserved": "",
      "salt": "0x9a910f0d5c48682b6f880e0257e0a7828b01c4086db729024b15357fbad8d741",
      "assetIds": []
    },
    {
      "x": 125,
      "y": 202,
      "size": 1,
      "price": "1011000000000000000000",
      "reserved": "",
      "salt": "0xdfc8ddf425817ba93d95cbdc2c76abc9a565a48d5b27c0877d5e2253980e77ea",
      "assetIds": []
    },
    {
      "x": 125,
      "y": 203,
      "size": 1,
      "price": "4683000000000000000000",
      "reserved": "",
      "salt": "0xad761051689cd656db2af4d44374c8e17be6ef20d19a9d81bde1d7aa055c49ab",
      "assetIds": []
    },
    {
      "x": 125,
      "y": 207,
      "size": 1,
      "price": "4683000000000000000000",
      "reserved": "",
      "salt": "0xa81afd9339fc0ab8842f4e2d9bde3a7c0c052233d45388ccac396923766d205e",
      "assetIds": []
    },
    {
      "x": 125,
      "y": 208,
      "size": 1,
      "price": "1011000000000000000000",
      "reserved": "",
      "salt": "0xe8ef35a47df95c090f1cacb0d65bfe7b05d4e6f9c95ac8468819dc2d5b8acd6b",
      "assetIds": []
    },
    {
      "x": 125,
      "y": 209,
      "size": 1,
      "price": "1011000000000000000000",
      "reserved": "",
      "salt": "0xcea6b12743e850b698901a80447dd4cc062aba78f209342eb3665155cf19b88e",
      "assetIds": []
    },
    {
      "x": 125,
      "y": 210,
      "size": 1,
      "price": "1011000000000000000000",
      "reserved": "0x7a9fe22691c811ea339d9b73150e6911a5343dca",
      "salt": "0x738b61fd5f38dd98636f5f826faa23b1a64aeee70130ed11918a6ee1fbe7781c",
      "assetIds": []
    },
    {
      "x": 125,
      "y": 211,
      "size": 1,
      "price": "1011000000000000000000",
      "reserved": "0x7a9fe22691c811ea339d9b73150e6911a5343dca",
      "salt": "0xd0ffd77692d85648bff95526bf3a517be294d25b490d9a0c198369ee058da6ed",
      "assetIds": []
    },
    {
      "x": 125,
      "y": 212,
      "size": 1,
      "price": "1011000000000000000000",
      "reserved": "",
      "salt": "0xf0e686a8a547ad473a344a60c0d018f4f5bc9cc46a58d8549b41c34ca8df91ed",
      "assetIds": []
    },
    {
      "x": 125,
      "y": 213,
      "size": 1,
      "price": "1011000000000000000000",
      "reserved": "",
      "salt": "0x504a0c9a7506896e1c267f064dd0300b5eb69208551a3e5a711c901ba71c82de",
      "assetIds": []
    },
    {
      "x": 125,
      "y": 214,
      "size": 1,
      "price": "1011000000000000000000",
      "reserved": "",
      "salt": "0x1d3fc94c5ae6ce345b7fd8b03745180f2120be497d5c31959f30ac1003a4415e",
      "assetIds": []
    },
    {
      "x": 125,
      "y": 215,
      "size": 1,
      "price": "4683000000000000000000",
      "reserved": "",
      "salt": "0xb4fa42c5aed0a9de078c12bbfdcd283d408224db4c2a665533db0326b16a3c06",
      "assetIds": []
    },
    {
      "x": 125,
      "y": 240,
      "size": 1,
      "price": "1011000000000000000000",
      "reserved": "0x7a9fe22691c811ea339d9b73150e6911a5343dca",
      "salt": "0x97416b59d8932541711d4e67de353175c2ddae7e455999ee7ba22018eee844fc",
      "assetIds": []
    },
    {
      "x": 125,
      "y": 241,
      "size": 1,
      "price": "1011000000000000000000",
      "reserved": "",
      "salt": "0x7a20168840e01a6ea748c429e812ac806aa6b20ea945893dddd897e5fde3549e",
      "assetIds": []
    },
    {
      "x": 125,
      "y": 242,
      "size": 1,
      "price": "1011000000000000000000",
      "reserved": "",
      "salt": "0x6843d58113c5a796d9ef2ad1a2e176d48b2cf3a3ef5073da8d37225ca993daec",
      "assetIds": []
    },
    {
      "x": 126,
      "y": 201,
      "size": 1,
      "price": "1011000000000000000000",
      "reserved": "",
      "salt": "0xbeaf651ddc19845cd3bacaf9a9f4bca609b4797bf0a66e9a0bfa7974e6de6f21",
      "assetIds": []
    },
    {
      "x": 126,
      "y": 202,
      "size": 1,
      "price": "1011000000000000000000",
      "reserved": "",
      "salt": "0x581bd94d00ac995d9e1f527b0ebe40abc3da19552ae5f6a39ead1514c638c91a",
      "assetIds": []
    },
    {
      "x": 126,
      "y": 203,
      "size": 1,
      "price": "1011000000000000000000",
      "reserved": "",
      "salt": "0x2289d35ee29e452d53bf8770b30a3333bf73da10e75319f5935e64f75a70edba",
      "assetIds": []
    },
    {
      "x": 126,
      "y": 204,
      "size": 1,
      "price": "4683000000000000000000",
      "reserved": "",
      "salt": "0x144a9fd55c12985709ad5deddbba048a628d7555986f81d22f854ffd96fe2a5e",
      "assetIds": []
    },
    {
      "x": 126,
      "y": 205,
      "size": 1,
      "price": "1011000000000000000000",
      "reserved": "0x7a9fe22691c811ea339d9b73150e6911a5343dca",
      "salt": "0x17886adbae31d10e0d8db0f9f3603ba864db74f47c77233e9a1e30fd19fd421a",
      "assetIds": []
    },
    {
      "x": 126,
      "y": 206,
      "size": 1,
      "price": "4683000000000000000000",
      "reserved": "",
      "salt": "0x0533701f0f0f9868546d87fcd4c35842d6457a177100c453534fa7e3fe1a2c29",
      "assetIds": []
    },
    {
      "x": 126,
      "y": 207,
      "size": 1,
      "price": "1011000000000000000000",
      "reserved": "",
      "salt": "0xee18af85ff9bf39e5fa9f789807f24e95530f3cebe5db2eb29bd8e95bcf40b61",
      "assetIds": []
    },
    {
      "x": 126,
      "y": 208,
      "size": 1,
      "price": "1011000000000000000000",
      "reserved": "",
      "salt": "0x7258d62305b65b24b8f75f5f5d8c69dbdc64452d386db9159af494bd03738fdb",
      "assetIds": []
    },
    {
      "x": 126,
      "y": 209,
      "size": 1,
      "price": "1011000000000000000000",
      "reserved": "",
      "salt": "0x23f5dd886d913d1694dd2d67afad3126d8508286421625e4e4afc67693c6fb25",
      "assetIds": []
    },
    {
      "x": 126,
      "y": 210,
      "size": 1,
      "price": "1011000000000000000000",
      "reserved": "",
      "salt": "0xc3721414761e6697d9506be87292cc2481935352d70f31c1f6e3d6273a1e82e5",
      "assetIds": []
    },
    {
      "x": 126,
      "y": 211,
      "size": 1,
      "price": "1011000000000000000000",
      "reserved": "0x7a9fe22691c811ea339d9b73150e6911a5343dca",
      "salt": "0x6c29d74df59700710fcbb89b4ae78f10cc42ee55c95449d6862ac7115b863712",
      "assetIds": []
    },
    {
      "x": 126,
      "y": 212,
      "size": 1,
      "price": "1011000000000000000000",
      "reserved": "",
      "salt": "0xec7215f60797f643ccc495a29a96881159642585caf7eeedeeba73e4dbdabe91",
      "assetIds": []
    },
    {
      "x": 126,
      "y": 213,
      "size": 1,
      "price": "1011000000000000000000",
      "reserved": "",
      "salt": "0x943f97fb5624787db0afbaed37b0841be2ea02ec665d446cc09ebdda98e22819",
      "assetIds": []
    },
    {
      "x": 126,
      "y": 214,
      "size": 1,
      "price": "1011000000000000000000",
      "reserved": "",
      "salt": "0xb4ba0716fb92b6c7a7ea10c074dc35ab5b9a5967b88e169727310493947a17ce",
      "assetIds": []
    },
    {
      "x": 126,
      "y": 215,
      "size": 1,
      "price": "4683000000000000000000",
      "reserved": "",
      "salt": "0x6af646772bab9d73ab180a53d93c4ec0b633e3d8909e4de992bae016e681b16f",
      "assetIds": []
    },
    {
      "x": 126,
      "y": 240,
      "size": 1,
      "price": "4683000000000000000000",
      "reserved": "",
      "salt": "0x2b2f797b74f68d89d208249374463187cd04b62854c618df60b1de6f1d7aa3c0",
      "assetIds": []
    },
    {
      "x": 126,
      "y": 241,
      "size": 1,
      "price": "1011000000000000000000",
      "reserved": "",
      "salt": "0x2ca82afe1aa624ce8a0c75478cd73ebb3160c54d361ef52bfd1217a6e3f85143",
      "assetIds": []
    },
    {
      "x": 126,
      "y": 242,
      "size": 1,
      "price": "1011000000000000000000",
      "reserved": "",
      "salt": "0xb365ed7d122747538ec989d749ff2c818e5e385fd01d9769d6a0f496f3d009b1",
      "assetIds": []
    },
    {
      "x": 127,
      "y": 201,
      "size": 1,
      "price": "1011000000000000000000",
      "reserved": "",
      "salt": "0xa5ce8cf788b6c13183ebb99b70b4d33a8a87d81a75bc3d4884715d37721db5f2",
      "assetIds": []
    },
    {
      "x": 127,
      "y": 202,
      "size": 1,
      "price": "1011000000000000000000",
      "reserved": "",
      "salt": "0xd076313892bddfe40196b91fdb4ca52b59bdd111a52e3a830f66e1e134063258",
      "assetIds": []
    },
    {
      "x": 127,
      "y": 203,
      "size": 1,
      "price": "1011000000000000000000",
      "reserved": "",
      "salt": "0x35345c42d21519870475775db65e29cba838a7866a6129822c864d66f0d0b34e",
      "assetIds": []
    },
    {
      "x": 127,
      "y": 204,
      "size": 1,
      "price": "1011000000000000000000",
      "reserved": "",
      "salt": "0x15831f0f0ed90a48287573ba4a8acd8b5f5967f0a6dbeea19fda4c21280cbd09",
      "assetIds": []
    },
    {
      "x": 127,
      "y": 205,
      "size": 1,
      "price": "1011000000000000000000",
      "reserved": "",
      "salt": "0x24709668e8af46eac1c4ea918708bc3a159fe9d5cc7d5bd4dd09942bbd40a176",
      "assetIds": []
    },
    {
      "x": 127,
      "y": 206,
      "size": 1,
      "price": "1011000000000000000000",
      "reserved": "",
      "salt": "0x8a6888151e72828175e6bdea4b44abad3fb9527d41a6829b1b4ebd0d7e4ff187",
      "assetIds": []
    },
    {
      "x": 127,
      "y": 207,
      "size": 1,
      "price": "1011000000000000000000",
      "reserved": "",
      "salt": "0x0e5f0bc363ccd54af4002376d7efa6e272a5ee72e7373ffd8f38883803c9d981",
      "assetIds": []
    },
    {
      "x": 127,
      "y": 208,
      "size": 1,
      "price": "1011000000000000000000",
      "reserved": "",
      "salt": "0x565125d0214ddab83f4ffbcdf071c93f9cf06e3c630f4fa8ab3e19030518f6c8",
      "assetIds": []
    },
    {
      "x": 127,
      "y": 209,
      "size": 1,
      "price": "1011000000000000000000",
      "reserved": "",
      "salt": "0x2b3d968fca1012b436b88f14da4d54b849ab35f0d74da145e1d2f5f803a65bfb",
      "assetIds": []
    },
    {
      "x": 127,
      "y": 210,
      "size": 1,
      "price": "1011000000000000000000",
      "reserved": "",
      "salt": "0xd73cb1790c2e4c19d468f657878ec5342b34a7ccb00e1c49d70f31bdc672a1f2",
      "assetIds": []
    },
    {
      "x": 127,
      "y": 211,
      "size": 1,
      "price": "1011000000000000000000",
      "reserved": "",
      "salt": "0xd799d19700c731f1cace79fa0580f9af2a15f7d5275c4d026e4a563c5ffd2b97",
      "assetIds": []
    },
    {
      "x": 127,
      "y": 212,
      "size": 1,
      "price": "1011000000000000000000",
      "reserved": "",
      "salt": "0x4afb7a8101113f4ca84bf2984370eff4427f23add7c38dbf8b31210c414889b2",
      "assetIds": []
    },
    {
      "x": 127,
      "y": 213,
      "size": 1,
      "price": "1011000000000000000000",
      "reserved": "",
      "salt": "0x24d13c8b158972ef336dbe67000ff6cdf93dbd2d7e7e79a0a13ed0f77a01e25a",
      "assetIds": []
    },
    {
      "x": 127,
      "y": 214,
      "size": 1,
      "price": "1011000000000000000000",
      "reserved": "",
      "salt": "0xe672d8060efe33a4bbe0ffabfdf8c459e74feaa6aee1e0985c6c9f14c57a4b38",
      "assetIds": []
    },
    {
      "x": 127,
      "y": 215,
      "size": 1,
      "price": "4683000000000000000000",
      "reserved": "",
      "salt": "0x4d59bdd0052f174b92e418199b3d977c3ac9eef48612b83af70b77ff95c121b0",
      "assetIds": []
    },
    {
      "x": 127,
      "y": 240,
      "size": 1,
      "price": "4683000000000000000000",
      "reserved": "",
      "salt": "0x1ae6a118f582e73f9728a4bae9d61e9fc710965df1bc78d6b532132c918144f5",
      "assetIds": []
    },
    {
      "x": 127,
      "y": 241,
      "size": 1,
      "price": "1011000000000000000000",
      "reserved": "",
      "salt": "0x2f6398b9492cf271037875a1bd91a6bde5797cd71405912cd83693519caf01ec",
      "assetIds": []
    },
    {
      "x": 127,
      "y": 242,
      "size": 1,
      "price": "1011000000000000000000",
      "reserved": "",
      "salt": "0x35a54a4f28b4f5d631ba721a06754cdfd84ce0df6e6013961491eedfb67e3584",
      "assetIds": []
    },
    {
      "x": 128,
      "y": 201,
      "size": 1,
      "price": "1011000000000000000000",
      "reserved": "",
      "salt": "0xd43940f9f9344015eb9c957a3b21b071d0c222ccdd7d38ee2b538570c189d135",
      "assetIds": []
    },
    {
      "x": 128,
      "y": 202,
      "size": 1,
      "price": "1011000000000000000000",
      "reserved": "",
      "salt": "0x5732f2767edfaade16163ca71cafec3ccdcd215e53306a55f8f9dc2cd82d6bbf",
      "assetIds": []
    },
    {
      "x": 128,
      "y": 203,
      "size": 1,
      "price": "1011000000000000000000",
      "reserved": "",
      "salt": "0xc1d24eb1cc62489ba6464432914e093625e61d289286125d785d802ca92d7f4a",
      "assetIds": []
    },
    {
      "x": 128,
      "y": 204,
      "size": 1,
      "price": "1011000000000000000000",
      "reserved": "",
      "salt": "0xb53307b655580f0d156930261bce9584ae0074abcf7eac201ad8149bd349a544",
      "assetIds": []
    },
    {
      "x": 128,
      "y": 205,
      "size": 1,
      "price": "1011000000000000000000",
      "reserved": "",
      "salt": "0x4195a729dbbec8d7bb25b03eea506471c84eea9586d63e674e3ec9924ea95bb3",
      "assetIds": []
    },
    {
      "x": 128,
      "y": 206,
      "size": 1,
      "price": "1011000000000000000000",
      "reserved": "",
      "salt": "0x51d0741c30ec794a1d57a4f70763d7764a95bb158f181fc589ef1fbecdbd3604",
      "assetIds": []
    },
    {
      "x": 128,
      "y": 207,
      "size": 1,
      "price": "1011000000000000000000",
      "reserved": "",
      "salt": "0xdf9f9b512c106279cd2f310d50d6c3b317f176dbf3689f60889db3c0556eb5ba",
      "assetIds": []
    },
    {
      "x": 128,
      "y": 208,
      "size": 1,
      "price": "1011000000000000000000",
      "reserved": "",
      "salt": "0x3dc80e41c93365f7f6d9c88f0ef00ae496b0fe88d5b18dd6002cecdb0fc6ac29",
      "assetIds": []
    },
    {
      "x": 128,
      "y": 209,
      "size": 1,
      "price": "1011000000000000000000",
      "reserved": "0x7a9fe22691c811ea339d9b73150e6911a5343dca",
      "salt": "0x092966923d3d59c5226183471f2dc162ea7b6063898a79c86694f124c15effdd",
      "assetIds": []
    },
    {
      "x": 128,
      "y": 210,
      "size": 1,
      "price": "1011000000000000000000",
      "reserved": "",
      "salt": "0x3290cbd840babe48aac7cf98f3a539bb4bd46b2a2554b3bb48929e7c71d773e3",
      "assetIds": []
    },
    {
      "x": 128,
      "y": 211,
      "size": 1,
      "price": "1011000000000000000000",
      "reserved": "",
      "salt": "0x4b1658d2614790da40e5fc7fbdbc5b85786b822794b5c950ed06518ae56a4e90",
      "assetIds": []
    },
    {
      "x": 128,
      "y": 212,
      "size": 1,
      "price": "1011000000000000000000",
      "reserved": "",
      "salt": "0x286f5624506bf0e6655e7d704ccbaad417205187fcd4457c579794e4555b0a82",
      "assetIds": []
    },
    {
      "x": 128,
      "y": 213,
      "size": 1,
      "price": "1011000000000000000000",
      "reserved": "",
      "salt": "0x5af251633070e9cf32dc7512ae8d4ad074056abbe5a933cfe6e8ead1351510b6",
      "assetIds": []
    },
    {
      "x": 128,
      "y": 214,
      "size": 1,
      "price": "1011000000000000000000",
      "reserved": "",
      "salt": "0x3e27266c5109fc8907798cff5a5393b764817c401779799bbc88931bc8f39208",
      "assetIds": []
    },
    {
      "x": 128,
      "y": 215,
      "size": 1,
      "price": "4683000000000000000000",
      "reserved": "",
      "salt": "0x52e6dfa9450494872f4b600dc534f98acad6866eb36849a0c0c8bc65577e25c4",
      "assetIds": []
    },
    {
      "x": 128,
      "y": 240,
      "size": 1,
      "price": "4683000000000000000000",
      "reserved": "",
      "salt": "0x6071d17f86fab058ec5d46d697ddbe2413315b3d45ce3d24cdcd64989bc5088d",
      "assetIds": []
    },
    {
      "x": 128,
      "y": 241,
      "size": 1,
      "price": "1011000000000000000000",
      "reserved": "",
      "salt": "0x8b7894a10c91a80e66df090f6351b88279f99df17ebb1695a1e58b038011967b",
      "assetIds": []
    },
    {
      "x": 128,
      "y": 242,
      "size": 1,
      "price": "1011000000000000000000",
      "reserved": "",
      "salt": "0x73764738bcbec0835ae947e1c1148b262dcfcb9e75ad3c8b7d3dd1e813e389e8",
      "assetIds": []
    },
    {
      "x": 129,
      "y": 201,
      "size": 1,
      "price": "1011000000000000000000",
      "reserved": "",
      "salt": "0xbeeba0f0fb5b5e982f3fc0c6fde1d4bb1237a0256e59cb3c87e36849271eb959",
      "assetIds": []
    },
    {
      "x": 129,
      "y": 202,
      "size": 1,
      "price": "1011000000000000000000",
      "reserved": "",
      "salt": "0x69cb3ad7250541ddfe49e0f64298bfd127627b781845f3661f700c4fd147c983",
      "assetIds": []
    },
    {
      "x": 129,
      "y": 203,
      "size": 1,
      "price": "1011000000000000000000",
      "reserved": "",
      "salt": "0xd470925dcf3c0e579d99548e9f7e70009a7dfa7ec1bb76565e884f9e8cd445ca",
      "assetIds": []
    },
    {
      "x": 129,
      "y": 207,
      "size": 1,
      "price": "1011000000000000000000",
      "reserved": "",
      "salt": "0x7055cc3dd74e4ab709d384dfa8b119a43c52767e31a0e74a54dbcdaa9ecc0e86",
      "assetIds": []
    },
    {
      "x": 129,
      "y": 208,
      "size": 1,
      "price": "1011000000000000000000",
      "reserved": "",
      "salt": "0x8dc6b17e25ebc6666a0fd02bf4b0176a0589fc1706ee639e0e6336e81b39fdd0",
      "assetIds": []
    },
    {
      "x": 129,
      "y": 209,
      "size": 1,
      "price": "1011000000000000000000",
      "reserved": "0x7a9fe22691c811ea339d9b73150e6911a5343dca",
      "salt": "0xc3c5d36b1436dc3512d029d9dfe4678717d65f0a2c96a86f11ae6b5b2a025957",
      "assetIds": []
    },
    {
      "x": 129,
      "y": 210,
      "size": 1,
      "price": "1011000000000000000000",
      "reserved": "",
      "salt": "0x9c3c40e903d576a52612dbb566538f008782c01f4b561affeecd09097a57252a",
      "assetIds": []
    },
    {
      "x": 129,
      "y": 211,
      "size": 1,
      "price": "1011000000000000000000",
      "reserved": "",
      "salt": "0xbf721308718f817f8ccd11dd883afe67a2b07397e86cc2de70734f15111fb6d7",
      "assetIds": []
    },
    {
      "x": 129,
      "y": 212,
      "size": 1,
      "price": "1011000000000000000000",
      "reserved": "",
      "salt": "0x22511f37d5195bb55528072911bed27a805376b0961b0cfc79f62c94591a81e4",
      "assetIds": []
    },
    {
      "x": 129,
      "y": 240,
      "size": 1,
      "price": "4683000000000000000000",
      "reserved": "",
      "salt": "0x9e3e7da07cf2b3af21daaad8e03737a6c532216b889e5e6c88adf92d1c881fd2",
      "assetIds": []
    },
    {
      "x": 129,
      "y": 241,
      "size": 1,
      "price": "1011000000000000000000",
      "reserved": "",
      "salt": "0xe2b7b05b181d7a43c63da2b446169c6b04ddfdd454c644b8ea88d45e51b600f3",
      "assetIds": []
    },
    {
      "x": 129,
      "y": 242,
      "size": 1,
      "price": "1011000000000000000000",
      "reserved": "",
      "salt": "0x3c2fedd1595e7aff14f1c05d494dfce163817fdc0835909ab9f185b621eb64a3",
      "assetIds": []
    },
    {
      "x": 130,
      "y": 201,
      "size": 1,
      "price": "1011000000000000000000",
      "reserved": "",
      "salt": "0x8b37f26f2692e9e59ba5720a3accbce55347ef73b66acd9a35f8bc6c626372ac",
      "assetIds": []
    },
    {
      "x": 130,
      "y": 202,
      "size": 1,
      "price": "1011000000000000000000",
      "reserved": "",
      "salt": "0x72e25a9e9193aa173ab270dfffed887ccf03a0775351c97ed1ee94aefe40857f",
      "assetIds": []
    },
    {
      "x": 130,
      "y": 203,
      "size": 1,
      "price": "1011000000000000000000",
      "reserved": "",
      "salt": "0x74021bed26613d2af95b4af6feb3e448dac66096b3242e0c5cdd4f27b7739fe7",
      "assetIds": []
    },
    {
      "x": 130,
      "y": 207,
      "size": 1,
      "price": "1011000000000000000000",
      "reserved": "",
      "salt": "0x49146cd473479e6b654c7627010cc3d52ca83efd0fb93b944c3d9eed78123171",
      "assetIds": []
    },
    {
      "x": 130,
      "y": 208,
      "size": 1,
      "price": "1011000000000000000000",
      "reserved": "",
      "salt": "0xfe5202729bea9f32ca77e1306ebef78848cb5fec4a55a21d7f002b59ea6a197d",
      "assetIds": []
    },
    {
      "x": 130,
      "y": 209,
      "size": 1,
      "price": "1011000000000000000000",
      "reserved": "",
      "salt": "0x550b6967b77cd91f44eebe36d088effbc01f0c553bcad26db62e242cc7c528b5",
      "assetIds": []
    },
    {
      "x": 130,
      "y": 210,
      "size": 1,
      "price": "1011000000000000000000",
      "reserved": "",
      "salt": "0xa062d66872654e8a55835f5ccd268dc175b21e81e8d6b6d1874380cab5ee23fa",
      "assetIds": []
    },
    {
      "x": 130,
      "y": 211,
      "size": 1,
      "price": "1011000000000000000000",
      "reserved": "",
      "salt": "0xf65fc3fe1c915b303cd412e76b21b261d81e154f0f71847945cdedd165fa0e86",
      "assetIds": []
    },
    {
      "x": 130,
      "y": 212,
      "size": 1,
      "price": "1011000000000000000000",
      "reserved": "",
      "salt": "0x6ac89ff8add7146f90db15d1d08892a0237a2b19f52795b1fb78445d6fed5dbb",
      "assetIds": []
    },
    {
      "x": 130,
      "y": 240,
      "size": 1,
      "price": "4683000000000000000000",
      "reserved": "",
      "salt": "0xa23aa658949e05ec9f73d676e7fa05e9843b0e9fdaf5a222b0d34ea6d88f8a4a",
      "assetIds": []
    },
    {
      "x": 130,
      "y": 241,
      "size": 1,
      "price": "1011000000000000000000",
      "reserved": "",
      "salt": "0x02209547a23b25789a246d3bd743b3173ad707b30e27e16b5fed6ecd0fbf27cb",
      "assetIds": []
    },
    {
      "x": 130,
      "y": 242,
      "size": 1,
      "price": "1011000000000000000000",
      "reserved": "",
      "salt": "0x63363546e2ad9e1356e9b24d2959801a3a3ea5685bdfb2c83fc29e9893d28201",
      "assetIds": []
    },
    {
      "x": 131,
      "y": 201,
      "size": 1,
      "price": "4683000000000000000000",
      "reserved": "",
      "salt": "0x74861b9a48d21cded09e51a709e0fac46c8842af790c1009edcc3f4e73ebaba5",
      "assetIds": []
    },
    {
      "x": 131,
      "y": 202,
      "size": 1,
      "price": "1011000000000000000000",
      "reserved": "0x7a9fe22691c811ea339d9b73150e6911a5343dca",
      "salt": "0x1de0c4b5d09c6da5a3651030265077b8171ab3df0efb42ed96b30d1985fd9c16",
      "assetIds": []
    },
    {
      "x": 131,
      "y": 203,
      "size": 1,
      "price": "4683000000000000000000",
      "reserved": "",
      "salt": "0xf4f929182bf5cb5beeb99c043a32ac5ba9196d518ced3bf7e9192a2b8254948b",
      "assetIds": []
    },
    {
      "x": 131,
      "y": 207,
      "size": 1,
      "price": "1011000000000000000000",
      "reserved": "",
      "salt": "0x2221b123ea32eeb4b964681a804d38a03744b465e43c3f27701654d9f1086e71",
      "assetIds": []
    },
    {
      "x": 131,
      "y": 208,
      "size": 1,
      "price": "1011000000000000000000",
      "reserved": "",
      "salt": "0x49699f21d600ca571554aae94ebed57a05405e4be8badc956d7564761e9108eb",
      "assetIds": []
    },
    {
      "x": 131,
      "y": 209,
      "size": 1,
      "price": "1011000000000000000000",
      "reserved": "",
      "salt": "0x9f063e6df3a2f3b77dad16ed0cb9b7cebef56b253b23b33b7cb64c174ff8e220",
      "assetIds": []
    },
    {
      "x": 131,
      "y": 210,
      "size": 1,
      "price": "1011000000000000000000",
      "reserved": "",
      "salt": "0xe3f2a80d7f55f4d21030e1b21b101bbf66ada2be603f5ac506d8575bb818aeb1",
      "assetIds": []
    },
    {
      "x": 131,
      "y": 211,
      "size": 1,
      "price": "1011000000000000000000",
      "reserved": "",
      "salt": "0x292e06cdfdbad22e76ac464e4da0cd484f36ae6ca28fa36d5e2cb5828da0d244",
      "assetIds": []
    },
    {
      "x": 131,
      "y": 212,
      "size": 1,
      "price": "1011000000000000000000",
      "reserved": "",
      "salt": "0xd7f738e3d197400577771784ba0b7191a2e15d1522052b2f7349d08ce4718d79",
      "assetIds": []
    },
    {
      "x": 131,
      "y": 240,
      "size": 1,
      "price": "4683000000000000000000",
      "reserved": "",
      "salt": "0x86ed8a05cea909a36c85710eb8dc8b976b83e31e1357e99e55c7988cb5601913",
      "assetIds": []
    },
    {
      "x": 131,
      "y": 241,
      "size": 1,
      "price": "1011000000000000000000",
      "reserved": "",
      "salt": "0x2342183ef49e01c4924ce561f44dbe8f3b9ae061a72a6ae9b9a22d8c64fc3ab2",
      "assetIds": []
    },
    {
      "x": 131,
      "y": 242,
      "size": 1,
      "price": "1011000000000000000000",
      "reserved": "",
      "salt": "0x31098addb4ff252ff2ca4e129b373e216c9f78d2fbda20988cac5bc247224f1c",
      "assetIds": []
    },
    {
      "x": 132,
      "y": 204,
      "size": 1,
      "price": "4683000000000000000000",
      "reserved": "",
      "salt": "0x0828b74e5ed383859ebf9bf9276e4b3aea334de679b38f9c3b145b6b980ca31c",
      "assetIds": []
    },
    {
      "x": 132,
      "y": 205,
      "size": 1,
      "price": "1011000000000000000000",
      "reserved": "",
      "salt": "0x961e11ee413a973b6853c1e90e215d1494b97730af5c180b6e2ae6983b0fe13e",
      "assetIds": []
    },
    {
      "x": 132,
      "y": 206,
      "size": 1,
      "price": "1011000000000000000000",
      "reserved": "",
      "salt": "0x0cb931a9740a9df104aa36df27c9474c4f3603a651d7111de445cc49aff5ba53",
      "assetIds": []
    },
    {
      "x": 132,
      "y": 207,
      "size": 1,
      "price": "1011000000000000000000",
      "reserved": "",
      "salt": "0x84a9a65f3ac951414848019699a57cb6adea1de7223cf86091ab00e56205fdd1",
      "assetIds": []
    },
    {
      "x": 132,
      "y": 208,
      "size": 1,
      "price": "1011000000000000000000",
      "reserved": "",
      "salt": "0x0c7ad05664858c1a59f0cbbb351c8d6b6d54245b8a248f73962aabc447454eb2",
      "assetIds": []
    },
    {
      "x": 132,
      "y": 209,
      "size": 1,
      "price": "1011000000000000000000",
      "reserved": "",
      "salt": "0x79f7db5306a7488f0fe9fa8921b1f34fa5eef90420cdcb896cf27dff9d894e58",
      "assetIds": []
    },
    {
      "x": 132,
      "y": 210,
      "size": 1,
      "price": "1011000000000000000000",
      "reserved": "",
      "salt": "0x8a93c3c6f6be11554ad62aca1551afa42b55c588b037e401ea3c29b3e70e0f80",
      "assetIds": []
    },
    {
      "x": 132,
      "y": 211,
      "size": 1,
      "price": "1011000000000000000000",
      "reserved": "",
      "salt": "0xf892b5e6a2b6b74d9ec59c3e065033e0906a9493a3dd11e4d2863a4f87a4af2b",
      "assetIds": []
    },
    {
      "x": 132,
      "y": 212,
      "size": 1,
      "price": "1011000000000000000000",
      "reserved": "",
      "salt": "0x05ac0bc91d6ea1916818a8c84d643f75175789316da80a062e0d2cbde6ec7127",
      "assetIds": []
    },
    {
      "x": 132,
      "y": 213,
      "size": 1,
      "price": "1011000000000000000000",
      "reserved": "",
      "salt": "0x9616b57a1afaaa6f5a11f6976d14449063b5215331ee94a319d1fcc59cb2cfe1",
      "assetIds": []
    },
    {
      "x": 132,
      "y": 214,
      "size": 1,
      "price": "1011000000000000000000",
      "reserved": "",
      "salt": "0xd6e4344715456dadf6fac80846a110911d5ac4385edab355e260c3e8c0d1143e",
      "assetIds": []
    },
    {
      "x": 132,
      "y": 215,
      "size": 1,
      "price": "4683000000000000000000",
      "reserved": "",
      "salt": "0x2104360152bf13a025e0998ea4826953d0e63c4f8b9caf4c024cc2fe05a9bbda",
      "assetIds": []
    },
    {
      "x": 132,
      "y": 240,
      "size": 1,
      "price": "4683000000000000000000",
      "reserved": "",
      "salt": "0x36766bbee6fbd54ba0bff87bdfbbf657f0af53715cfc0c1b7db5ec517054e2c7",
      "assetIds": []
    },
    {
      "x": 132,
      "y": 241,
      "size": 1,
      "price": "1011000000000000000000",
      "reserved": "",
      "salt": "0x53a0bc60c37fcad493e31535b50553b39c62d55be2cccb405fc1d109b823ddad",
      "assetIds": []
    },
    {
      "x": 132,
      "y": 242,
      "size": 1,
      "price": "1011000000000000000000",
      "reserved": "",
      "salt": "0xf66acce9aafa792f3d9ee1147791a8e572bef876e7a0623e8a0cf06561145783",
      "assetIds": []
    },
    {
      "x": 133,
      "y": 204,
      "size": 1,
      "price": "4683000000000000000000",
      "reserved": "",
      "salt": "0x5de81646448e9f93acd70f62c5e2c5d669ce259ba928dfed5eb734a340f026e1",
      "assetIds": []
    },
    {
      "x": 133,
      "y": 205,
      "size": 1,
      "price": "1011000000000000000000",
      "reserved": "",
      "salt": "0x6dfd354ca7859c0d22fe3103c795c20b61ad9e71856cc70580d9876977520ecf",
      "assetIds": []
    },
    {
      "x": 133,
      "y": 206,
      "size": 1,
      "price": "1011000000000000000000",
      "reserved": "",
      "salt": "0x0c3fc2aa49c56259eb8223233b9c4f427fcc96f51b4cf4e343982aeba0dbb355",
      "assetIds": []
    },
    {
      "x": 133,
      "y": 207,
      "size": 1,
      "price": "1011000000000000000000",
      "reserved": "",
      "salt": "0x1dc733115a2b8c1c07e1a3cb73bf4791032659446b2aba4a2f51b2eb2770ac33",
      "assetIds": []
    },
    {
      "x": 133,
      "y": 208,
      "size": 1,
      "price": "1011000000000000000000",
      "reserved": "",
      "salt": "0xec2d9e597b2e5aff923813f2db6cfcb3ae3f79f33c9aa870dce0da7c9443deb9",
      "assetIds": []
    },
    {
      "x": 133,
      "y": 209,
      "size": 1,
      "price": "1011000000000000000000",
      "reserved": "",
      "salt": "0x3a29675019c5c538fc9d952d694a6ce40f67c4ed7111df770276554720d2e4f4",
      "assetIds": []
    },
    {
      "x": 133,
      "y": 210,
      "size": 1,
      "price": "1011000000000000000000",
      "reserved": "",
      "salt": "0x0b7681e5ab720fbc31fe9fc04aefbef7fe114dd5ecda7bbf1ea2ab61d1e545d2",
      "assetIds": []
    },
    {
      "x": 133,
      "y": 211,
      "size": 1,
      "price": "1011000000000000000000",
      "reserved": "",
      "salt": "0xb157d33160022e23554604ef732512c42c77075c0ccd0ff09edcebca898e3dd9",
      "assetIds": []
    },
    {
      "x": 133,
      "y": 212,
      "size": 1,
      "price": "1011000000000000000000",
      "reserved": "",
      "salt": "0xa8852dac64842d48a7d0bf8f3008755a78a6f58a67a04a5c00a479099f82d788",
      "assetIds": []
    },
    {
      "x": 133,
      "y": 213,
      "size": 1,
      "price": "1011000000000000000000",
      "reserved": "",
      "salt": "0x60cc9e9bdbc4e3aabbacc402ad83e7f5025ec22a399809a26b2de81f5b36d246",
      "assetIds": []
    },
    {
      "x": 133,
      "y": 214,
      "size": 1,
      "price": "1011000000000000000000",
      "reserved": "",
      "salt": "0x1664415d0445954c92cc02258a4830f6099a4356237e0b5467e265a32ce7133b",
      "assetIds": []
    },
    {
      "x": 133,
      "y": 215,
      "size": 1,
      "price": "4683000000000000000000",
      "reserved": "",
      "salt": "0x0205d14984a5023deee37e75486b74e31426073045578ca7151d685f3fa2da0f",
      "assetIds": []
    },
    {
      "x": 133,
      "y": 240,
      "size": 1,
      "price": "4683000000000000000000",
      "reserved": "",
      "salt": "0xeac6c5d4b739255632a69e6d96a500b8e1869b839e0df0bc48748108805592dc",
      "assetIds": []
    },
    {
      "x": 133,
      "y": 241,
      "size": 1,
      "price": "1011000000000000000000",
      "reserved": "",
      "salt": "0x9d7e39d63ef9782fce34ba13a50536c01f984aa7b0ccf7d0a2e8fa3c12d36162",
      "assetIds": []
    },
    {
      "x": 133,
      "y": 242,
      "size": 1,
      "price": "1011000000000000000000",
      "reserved": "",
      "salt": "0x7b827979b346bf45f691a111fe5dac7a7068557163bb8882c9ed7e7e4bf7c73f",
      "assetIds": []
    },
    {
      "x": 134,
      "y": 204,
      "size": 1,
      "price": "4683000000000000000000",
      "reserved": "",
      "salt": "0x5520c155b126baefd3edf262f541075e4e5d94c7dbb692d432a5aaa3db10528f",
      "assetIds": []
    },
    {
      "x": 134,
      "y": 205,
      "size": 1,
      "price": "1011000000000000000000",
      "reserved": "",
      "salt": "0x3a6edfb8b57ed5f8df2461334932606e9252ee144cf84b93af937e98d91fe544",
      "assetIds": []
    },
    {
      "x": 134,
      "y": 206,
      "size": 1,
      "price": "1011000000000000000000",
      "reserved": "",
      "salt": "0x87f769ceeb66d4faf8f37b9acc2de7a9e9a4208bc10b61670a821727624828d1",
      "assetIds": []
    },
    {
      "x": 134,
      "y": 207,
      "size": 1,
      "price": "1011000000000000000000",
      "reserved": "",
      "salt": "0x73fecdf4c185299bbfb1327559649526fb09b9ea2f4533c0f79cedeeacc42aee",
      "assetIds": []
    },
    {
      "x": 134,
      "y": 208,
      "size": 1,
      "price": "1011000000000000000000",
      "reserved": "",
      "salt": "0xa7f66f1c76ab7adf8355d0c7a7d1befc840f136df57cf290a3c55ef63230ada1",
      "assetIds": []
    },
    {
      "x": 134,
      "y": 209,
      "size": 1,
      "price": "1011000000000000000000",
      "reserved": "",
      "salt": "0x14c1a8c9ecef3f5853ba1e28f7aa51b1b219e2eb0abbd93b146d03133a834500",
      "assetIds": []
    },
    {
      "x": 134,
      "y": 210,
      "size": 1,
      "price": "1011000000000000000000",
      "reserved": "",
      "salt": "0x5e3871d64a9b46e039ae3778184bfc3f0ef0139e62b7a1a50564d2689357878b",
      "assetIds": []
    },
    {
      "x": 134,
      "y": 211,
      "size": 1,
      "price": "1011000000000000000000",
      "reserved": "",
      "salt": "0x1a3a0612734506719b61a2d61b4a39db57b5363337f9736754f7a1f978b54619",
      "assetIds": []
    },
    {
      "x": 134,
      "y": 212,
      "size": 1,
      "price": "1011000000000000000000",
      "reserved": "0x7a9fe22691c811ea339d9b73150e6911a5343dca",
      "salt": "0xc685b407389b18a13cd2f2c4a036c3426841d5ef7aa85161ac7df231696b005e",
      "assetIds": []
    },
    {
      "x": 134,
      "y": 213,
      "size": 1,
      "price": "1011000000000000000000",
      "reserved": "",
      "salt": "0x7e448cd9fcc7026b76a39ee97d353f2232b37f4b7aeef8ad4b9b1fe8b62e845c",
      "assetIds": []
    },
    {
      "x": 134,
      "y": 214,
      "size": 1,
      "price": "1011000000000000000000",
      "reserved": "",
      "salt": "0x937165450915b4d4c2428bd71f4056d95b80a777be12a4ea0123664577120636",
      "assetIds": []
    },
    {
      "x": 134,
      "y": 215,
      "size": 1,
      "price": "1011000000000000000000",
      "reserved": "0x7a9fe22691c811ea339d9b73150e6911a5343dca",
      "salt": "0xac41d9d289a0452d2dd4a500098c8a08c8a03638a3ee0b891524dfb62b1f489c",
      "assetIds": []
    },
    {
      "x": 134,
      "y": 240,
      "size": 1,
      "price": "4683000000000000000000",
      "reserved": "",
      "salt": "0x4320eb611376ece1d94d462e1bf21d0c6fcbf86a7712e05b675e457edc599023",
      "assetIds": []
    },
    {
      "x": 134,
      "y": 241,
      "size": 1,
      "price": "1011000000000000000000",
      "reserved": "",
      "salt": "0x4cb85f6c309472c451125b36601d51ce164131592bd8d175a3218a1c021a9dea",
      "assetIds": []
    },
    {
      "x": 134,
      "y": 242,
      "size": 1,
      "price": "1011000000000000000000",
      "reserved": "",
      "salt": "0x98013cece55b777d0756dc6a55e227a31b35d2ac8eae5e18fe054cdbfe9a4c2d",
      "assetIds": []
    },
    {
      "x": 135,
      "y": 201,
      "size": 1,
      "price": "1011000000000000000000",
      "reserved": "",
      "salt": "0x1f8efcc5094d04969de3120a1a1602663c11d33db6b499b740fe279324715470",
      "assetIds": []
    },
    {
      "x": 135,
      "y": 202,
      "size": 1,
      "price": "4683000000000000000000",
      "reserved": "",
      "salt": "0xb9cf3125164f1b90bd1b32c00cac9cb671239c73096f4cd87d8fb3635248bfd7",
      "assetIds": []
    },
    {
      "x": 135,
      "y": 203,
      "size": 1,
      "price": "4683000000000000000000",
      "reserved": "",
      "salt": "0x81a86b97931765603be0c0566ef728b2acda09f3f26df81d273ea9c14d000f74",
      "assetIds": []
    },
    {
      "x": 135,
      "y": 204,
      "size": 1,
      "price": "1011000000000000000000",
      "reserved": "",
      "salt": "0x28f55494541c8decfb1815a1958c82be9d9be0e57258e56942e0d5d8b193cb62",
      "assetIds": []
    },
    {
      "x": 135,
      "y": 205,
      "size": 1,
      "price": "1011000000000000000000",
      "reserved": "",
      "salt": "0xb1146a7c1b1254b58df60bcc8a4804db56820ffad65dc07111517a8f97284932",
      "assetIds": []
    },
    {
      "x": 135,
      "y": 206,
      "size": 1,
      "price": "1011000000000000000000",
      "reserved": "",
      "salt": "0xdbd33eccc21b2bd6821f280f3db9e90a3a3dde40b2963399620d38d14032ac4f",
      "assetIds": []
    },
    {
      "x": 135,
      "y": 210,
      "size": 1,
      "price": "1011000000000000000000",
      "reserved": "",
      "salt": "0x3bf46e9154a8c3efb4db26458072edac2954b4a6e6217806bde1dc90a4c7f01a",
      "assetIds": []
    },
    {
      "x": 135,
      "y": 211,
      "size": 1,
      "price": "1011000000000000000000",
      "reserved": "",
      "salt": "0xae55c58cdf599cc849fa62cc3415a5d0cf1b492fb79b6a96bed463a1e2af4f2b",
      "assetIds": []
    },
    {
      "x": 135,
      "y": 212,
      "size": 1,
      "price": "1011000000000000000000",
      "reserved": "",
      "salt": "0xcc405115fc2651f2711025193933f3f45b75e728883b7724faf3d8c2ed42e7bc",
      "assetIds": []
    },
    {
      "x": 135,
      "y": 213,
      "size": 1,
      "price": "1011000000000000000000",
      "reserved": "",
      "salt": "0xb834fe6ef71d659d6af6bb86ee2ef10745a9ffd403c9ce8fd1ee54e7fe69e5d3",
      "assetIds": []
    },
    {
      "x": 135,
      "y": 214,
      "size": 1,
      "price": "1011000000000000000000",
      "reserved": "",
      "salt": "0xeb016642a92458a4102478563fda78c0ea425fb3aaf9a7ccf30620cae38f1019",
      "assetIds": []
    },
    {
      "x": 135,
      "y": 215,
      "size": 1,
      "price": "4683000000000000000000",
      "reserved": "",
      "salt": "0x6c8ba34ce8eec32099e20c2a11076633ffb49f706db5985f61310a35266e6ed3",
      "assetIds": []
    },
    {
      "x": 135,
      "y": 240,
      "size": 1,
      "price": "4683000000000000000000",
      "reserved": "",
      "salt": "0xd62fda2ee3415fb1206fca22028843cc84be2530f07b771a6ab4388590226cf2",
      "assetIds": []
    },
    {
      "x": 135,
      "y": 241,
      "size": 1,
      "price": "1011000000000000000000",
      "reserved": "",
      "salt": "0xe1b1c58106f765801a855334353b1de83341d253d94024594bbb0532bd458297",
      "assetIds": []
    },
    {
      "x": 135,
      "y": 242,
      "size": 1,
      "price": "1011000000000000000000",
      "reserved": "",
      "salt": "0xa1f17aa3ce4d4efdb8c0610feaf09d9cf30e1322609802467ec01af225c07a76",
      "assetIds": []
    },
    {
      "x": 136,
      "y": 201,
      "size": 1,
      "price": "1011000000000000000000",
      "reserved": "",
      "salt": "0x2f5214dfd9b8abb01bcb99db715ff761a5009dab4d85d74e364f1578854dbf4c",
      "assetIds": []
    },
    {
      "x": 136,
      "y": 202,
      "size": 1,
      "price": "1011000000000000000000",
      "reserved": "",
      "salt": "0xb83d34a549b7b496ba22c6defbb4a6a8031a1a98d453f967d44ba3bb1d9dc3d3",
      "assetIds": []
    },
    {
      "x": 136,
      "y": 203,
      "size": 1,
      "price": "1011000000000000000000",
      "reserved": "",
      "salt": "0x7e8ab1e4bab5545af78ecaab9179f2a695e1ead0caef82cbb3d38d43a35697e9",
      "assetIds": []
    },
    {
      "x": 136,
      "y": 204,
      "size": 1,
      "price": "1011000000000000000000",
      "reserved": "",
      "salt": "0xb8ea05e27e4224ee415bed3f920c8a29e439fcd2c6e35ca1c6eb5e2ea55711b5",
      "assetIds": []
    },
    {
      "x": 136,
      "y": 205,
      "size": 1,
      "price": "1011000000000000000000",
      "reserved": "",
      "salt": "0xf16b31ce51f8df7b67fa83e87cf8f16a36409273bb7deb5ea328d3ff278e86f6",
      "assetIds": []
    },
    {
      "x": 136,
      "y": 206,
      "size": 1,
      "price": "1011000000000000000000",
      "reserved": "",
      "salt": "0x7b6c6adba9355969ce7382263c03e835587600ddf13752d357b538ccc03babfb",
      "assetIds": []
    },
    {
      "x": 136,
      "y": 210,
      "size": 1,
      "price": "1011000000000000000000",
      "reserved": "",
      "salt": "0x30ecb331e626d0e5728d3c305673fe0445fe409ae0430af37f4c01dce915bda0",
      "assetIds": []
    },
    {
      "x": 136,
      "y": 211,
      "size": 1,
      "price": "1011000000000000000000",
      "reserved": "",
      "salt": "0xb88565bbb78fd73cd06af0c2a6f9443b1db25f4ddcf56a394e8b146cc62082d6",
      "assetIds": []
    },
    {
      "x": 136,
      "y": 212,
      "size": 1,
      "price": "1011000000000000000000",
      "reserved": "",
      "salt": "0x078c332e3d930c3398a75cfd4ae992c3098d36d29a154082c35b4f22cb9ec853",
      "assetIds": []
    },
    {
      "x": 136,
      "y": 213,
      "size": 1,
      "price": "1011000000000000000000",
      "reserved": "",
      "salt": "0xd6165d14cd12ac0bdf58b7af178af2bcb6729f2d4308a430195a85ee4c2e46ae",
      "assetIds": []
    },
    {
      "x": 136,
      "y": 214,
      "size": 1,
      "price": "1011000000000000000000",
      "reserved": "",
      "salt": "0x1f3ad4806c663febc3877bae06fc9d85136eced04570af332cabf9c9f8f6d24e",
      "assetIds": []
    },
    {
      "x": 136,
      "y": 215,
      "size": 1,
      "price": "4683000000000000000000",
      "reserved": "",
      "salt": "0xadac3e08ecb890e17ed11b56d80e307a3d9fa39d7ebcec9f0468650dec01fc78",
      "assetIds": []
    },
    {
      "x": 136,
      "y": 240,
      "size": 1,
      "price": "4683000000000000000000",
      "reserved": "",
      "salt": "0x8af5f2bd66bd077e884de2fa7e7b51fca6a66e8b89dc78d5591a2f12e88df827",
      "assetIds": []
    },
    {
      "x": 136,
      "y": 241,
      "size": 1,
      "price": "1011000000000000000000",
      "reserved": "",
      "salt": "0x7892cf7429ffbad9ab1b59522bef147608fc8e99761729c27f6d8184019b3323",
      "assetIds": []
    },
    {
      "x": 136,
      "y": 242,
      "size": 1,
      "price": "1011000000000000000000",
      "reserved": "",
      "salt": "0x33a748ab2c1999fc457ae122aa9de878c343b6c6e53702b992bae36ab302614f",
      "assetIds": []
    },
    {
      "x": 137,
      "y": 201,
      "size": 1,
      "price": "1011000000000000000000",
      "reserved": "",
      "salt": "0xac3cab22c4c53aa0ab53998fa4bcb2bb7c8acc11909a754909222c9b769e9ef5",
      "assetIds": []
    },
    {
      "x": 137,
      "y": 202,
      "size": 1,
      "price": "1011000000000000000000",
      "reserved": "",
      "salt": "0x7fcddb19871ba8330eba045be39d1239dc1b982d8d690172731fd2847e186808",
      "assetIds": []
    },
    {
      "x": 137,
      "y": 203,
      "size": 1,
      "price": "1011000000000000000000",
      "reserved": "",
      "salt": "0x3d3aada3658cec10e641d0623b63eb1c280074ff0d97e76cd3f1123e95089516",
      "assetIds": []
    },
    {
      "x": 137,
      "y": 204,
      "size": 1,
      "price": "1011000000000000000000",
      "reserved": "",
      "salt": "0x715fb7f7e75cd57389ba9fb618ba8b576d8942d564ae61d572d82fe7feeb0f57",
      "assetIds": []
    },
    {
      "x": 137,
      "y": 205,
      "size": 1,
      "price": "1011000000000000000000",
      "reserved": "",
      "salt": "0xf4f83388137104213fbb0cb7b2443935f5690a33f9b12cc397b03365d84a2779",
      "assetIds": []
    },
    {
      "x": 137,
      "y": 206,
      "size": 1,
      "price": "1011000000000000000000",
      "reserved": "",
      "salt": "0x83b2ef9fccbfcd0f5abde0fd38475e11f120c7994031079fe7473ebd10f3c23e",
      "assetIds": []
    },
    {
      "x": 137,
      "y": 210,
      "size": 1,
      "price": "1011000000000000000000",
      "reserved": "",
      "salt": "0x5f34dee900c12bc1dae9a5f0998b356cfe0af63e920cbb069f61c619c4664692",
      "assetIds": []
    },
    {
      "x": 137,
      "y": 211,
      "size": 1,
      "price": "1011000000000000000000",
      "reserved": "",
      "salt": "0x7f2cf799867f8b61776127e7ca76dd024f92c7b46ba14bd0a82e4c6125414e04",
      "assetIds": []
    },
    {
      "x": 137,
      "y": 212,
      "size": 1,
      "price": "1011000000000000000000",
      "reserved": "",
      "salt": "0x39612993fb68918e8c195d21cf7a7042dd872c5e63f3adf2f8d8f22e7e799b80",
      "assetIds": []
    },
    {
      "x": 137,
      "y": 213,
      "size": 1,
      "price": "1011000000000000000000",
      "reserved": "",
      "salt": "0x9c3591ec08adf8d744cfe74af53df25e036437285e995a358b51244a6d87c3e9",
      "assetIds": []
    },
    {
      "x": 137,
      "y": 214,
      "size": 1,
      "price": "1011000000000000000000",
      "reserved": "",
      "salt": "0x62271b074f055a09a3e99c5aa7bf0de16ee64d8342e36f4960c7498781afe5b0",
      "assetIds": []
    },
    {
      "x": 137,
      "y": 215,
      "size": 1,
      "price": "4683000000000000000000",
      "reserved": "",
      "salt": "0xc146cd0dfdd71763a9045ac53c453989bcde983d254a1ef9361b43e6b222f415",
      "assetIds": []
    },
    {
      "x": 137,
      "y": 240,
      "size": 1,
      "price": "4683000000000000000000",
      "reserved": "",
      "salt": "0x9f6b4635db2e4aa2809e62810a02f94f19032e6358a16cb8d34446e4695b2aeb",
      "assetIds": []
    },
    {
      "x": 137,
      "y": 241,
      "size": 1,
      "price": "1011000000000000000000",
      "reserved": "",
      "salt": "0x05cee7c50afb3757b43df94305db51280d3d5a891647d20d7b1f6cdacf89f439",
      "assetIds": []
    },
    {
      "x": 137,
      "y": 242,
      "size": 1,
      "price": "1011000000000000000000",
      "reserved": "",
      "salt": "0x4dd7904a696d01a94812e67b8dfba4d4b0eebc9b2e0642d85fec089aeacc62ad",
      "assetIds": []
    },
    {
      "x": 138,
      "y": 204,
      "size": 1,
      "price": "1011000000000000000000",
      "reserved": "",
      "salt": "0xd25ff5506a1fa759d12e7bbc14ba4718867b53918602147c3d7ab1c38e83bcd8",
      "assetIds": []
    },
    {
      "x": 138,
      "y": 205,
      "size": 1,
      "price": "1011000000000000000000",
      "reserved": "",
      "salt": "0x2c9bdc2585d0431ecb762fc5251da01d0973e5ea622322b16b225e2acbdfff50",
      "assetIds": []
    },
    {
      "x": 138,
      "y": 206,
      "size": 1,
      "price": "1011000000000000000000",
      "reserved": "",
      "salt": "0xf4ffba7b559e67c07dc5af9ef8fab628e335633f9c4e093bdc4e9fb7f8146195",
      "assetIds": []
    },
    {
      "x": 138,
      "y": 210,
      "size": 1,
      "price": "1011000000000000000000",
      "reserved": "",
      "salt": "0xcc76dd6dc3ff1f3a32969949519181334713b93b64ff53a837c3c638ce1613e8",
      "assetIds": []
    },
    {
      "x": 138,
      "y": 211,
      "size": 1,
      "price": "1011000000000000000000",
      "reserved": "",
      "salt": "0xbb93efcbe72d0b8ec99509994755aaef77b093dee9e75ac74908194935e644ed",
      "assetIds": []
    },
    {
      "x": 138,
      "y": 212,
      "size": 1,
      "price": "1011000000000000000000",
      "reserved": "",
      "salt": "0xdda0dcf073a784dd40adcc6c2b0964eb9d2ed0738f615ca4695ee80c8888e48a",
      "assetIds": []
    },
    {
      "x": 139,
      "y": 204,
      "size": 1,
      "price": "1011000000000000000000",
      "reserved": "",
      "salt": "0x257bff6a122b052985792458c512ea9f49b20b724d69a59a754508e8f1ed8dea",
      "assetIds": []
    },
    {
      "x": 139,
      "y": 205,
      "size": 1,
      "price": "1011000000000000000000",
      "reserved": "",
      "salt": "0x06421fe52e93bbb91db35ae5ecedf8b6e7bd4b9e12239108300020745aad75cc",
      "assetIds": []
    },
    {
      "x": 139,
      "y": 206,
      "size": 1,
      "price": "1011000000000000000000",
      "reserved": "",
      "salt": "0xdd56267f22fc3b47c5f74e2e3de07fc78cb7f5299ecb0b10ef3dd7b5b7d1305f",
      "assetIds": []
    },
    {
      "x": 139,
      "y": 210,
      "size": 1,
      "price": "1011000000000000000000",
      "reserved": "",
      "salt": "0xfeec079c0ad9faee75f9c13cb18dcf1612407723c64e535cea776bd148bb1de6",
      "assetIds": []
    },
    {
      "x": 139,
      "y": 211,
      "size": 1,
      "price": "1011000000000000000000",
      "reserved": "",
      "salt": "0xa6efab5c447d921a85b2460a55fd4968312ba5d0eb166bbff3e8101e86145251",
      "assetIds": []
    },
    {
      "x": 139,
      "y": 212,
      "size": 1,
      "price": "1011000000000000000000",
      "reserved": "",
      "salt": "0x33fb53d49051ab02bbd46fc978b54a3162e83775e9381e2fd39d25b92c38fe49",
      "assetIds": []
    },
    {
      "x": 140,
      "y": 204,
      "size": 1,
      "price": "1011000000000000000000",
      "reserved": "",
      "salt": "0xb7594442a1eecbc40f7fbb21707f3ea8024175def5e1d69b10c740b0242d76d6",
      "assetIds": []
    },
    {
      "x": 140,
      "y": 205,
      "size": 1,
      "price": "1011000000000000000000",
      "reserved": "",
      "salt": "0xc397ef4fff2337836a103386f3f4950fec2c81ea587bd7aef1e8f6213a364a4e",
      "assetIds": []
    },
    {
      "x": 140,
      "y": 206,
      "size": 1,
      "price": "1011000000000000000000",
      "reserved": "",
      "salt": "0x13fb888605396ec4a4bf152779c1da5352c63b31389cbc48c01d9b6fe550dc59",
      "assetIds": []
    },
    {
      "x": 140,
      "y": 210,
      "size": 1,
      "price": "1011000000000000000000",
      "reserved": "",
      "salt": "0xbcb5b6dcb2c2ff6bb137afa3f81ba8a94bf5f35aa178c50e1d56301eca427fd3",
      "assetIds": []
    },
    {
      "x": 140,
      "y": 211,
      "size": 1,
      "price": "1011000000000000000000",
      "reserved": "",
      "salt": "0x0fa24448d69c714a4585be32c2893b05007d66130f0499e831e98e6061ad1898",
      "assetIds": []
    },
    {
      "x": 140,
      "y": 212,
      "size": 1,
      "price": "1011000000000000000000",
      "reserved": "",
      "salt": "0xcdbeb5d9cea7cf84bd1849c91f4aa3cedb15bb2e4686243d00a2a61ec71dcc8a",
      "assetIds": []
    },
    {
      "x": 141,
      "y": 201,
      "size": 1,
      "price": "1011000000000000000000",
      "reserved": "",
      "salt": "0xa5caef4001c75a20dc1af2454839b02c435c24e2997402ff1d95979bf2b38815",
      "assetIds": []
    },
    {
      "x": 141,
      "y": 202,
      "size": 1,
      "price": "1011000000000000000000",
      "reserved": "",
      "salt": "0xcf6169d3828284d59c3a9c26a8d98fbb396561c61e253caf1f378f11f8b96c19",
      "assetIds": []
    },
    {
      "x": 141,
      "y": 203,
      "size": 1,
      "price": "1011000000000000000000",
      "reserved": "",
      "salt": "0x4fdcedc475ba2e8517597cec4fe034a2f1ec59f6718e4acd8e6253c3fdd87d92",
      "assetIds": []
    },
    {
      "x": 141,
      "y": 204,
      "size": 1,
      "price": "1011000000000000000000",
      "reserved": "",
      "salt": "0x834ad2a90fda0a908607b3a856d41cd53194edc9795e6c146138215149bca026",
      "assetIds": []
    },
    {
      "x": 141,
      "y": 205,
      "size": 1,
      "price": "1011000000000000000000",
      "reserved": "",
      "salt": "0x4d7cdd3cb708aa1069f4781fdc08985063b769e80a465d88ac3540493b7ea3d3",
      "assetIds": []
    },
    {
      "x": 141,
      "y": 206,
      "size": 1,
      "price": "1011000000000000000000",
      "reserved": "",
      "salt": "0x87663472eb24d5b901b22a9367a248025d8cc5d8f7f3158a42d48488d15a0642",
      "assetIds": []
    },
    {
      "x": 141,
      "y": 207,
      "size": 1,
      "price": "1011000000000000000000",
      "reserved": "",
      "salt": "0x83c843354282c2c9cd4811f6f5cc49488ac8b3d891cb84bc47a0507126c73dd6",
      "assetIds": []
    },
    {
      "x": 141,
      "y": 208,
      "size": 1,
      "price": "1011000000000000000000",
      "reserved": "",
      "salt": "0xc06a5f98db77367be08b958b5316a2684ce55aa4b5fc35cac972dadc0cef085e",
      "assetIds": []
    },
    {
      "x": 141,
      "y": 209,
      "size": 1,
      "price": "1011000000000000000000",
      "reserved": "",
      "salt": "0x596e3265097c81f180fd37ddc46886fe4f6c3607fb8f7a268d447a3252dd0004",
      "assetIds": []
    },
    {
      "x": 141,
      "y": 210,
      "size": 1,
      "price": "1011000000000000000000",
      "reserved": "",
      "salt": "0x7b43e664b5e245432c03994e490f6c30562c898510cc8d6a9f1089a2c73704cc",
      "assetIds": []
    },
    {
      "x": 141,
      "y": 211,
      "size": 1,
      "price": "1011000000000000000000",
      "reserved": "",
      "salt": "0xd96bfb94c602e62a67846f3fe51b4fcf6d072ffe7d4ef51cc890819d7891019b",
      "assetIds": []
    },
    {
      "x": 141,
      "y": 212,
      "size": 1,
      "price": "1011000000000000000000",
      "reserved": "",
      "salt": "0xb0b0833ff82d266ba6c3be9b8e42317acf21f5f83a5a1bb42d95449123acb0ac",
      "assetIds": []
    },
    {
      "x": 141,
      "y": 213,
      "size": 1,
      "price": "1011000000000000000000",
      "reserved": "",
      "salt": "0x269bbf911878b951ff2c094682976fcc1d34975d1082b69637fb81e662555d79",
      "assetIds": []
    },
    {
      "x": 141,
      "y": 214,
      "size": 1,
      "price": "1011000000000000000000",
      "reserved": "",
      "salt": "0x8b850c4893c9ddb80bd5439459e63859f9cefd7a01fdd9d423e7e37bb734ac22",
      "assetIds": []
    },
    {
      "x": 141,
      "y": 215,
      "size": 1,
      "price": "4683000000000000000000",
      "reserved": "",
      "salt": "0x36d9f40226fb76483180a6372624ade61348006815b5ab1320306f237238983b",
      "assetIds": []
    },
    {
      "x": 141,
      "y": 240,
      "size": 1,
      "price": "4683000000000000000000",
      "reserved": "",
      "salt": "0x58ac1541ee124cfb5a3758963853826f96ed7b5bcf7dfdf933a6297e79215e7e",
      "assetIds": []
    },
    {
      "x": 141,
      "y": 241,
      "size": 1,
      "price": "1011000000000000000000",
      "reserved": "",
      "salt": "0xca458378fea70d09b9ea70862a17ca985a7c01a71950f22ebdd7595486c3d8fe",
      "assetIds": []
    },
    {
      "x": 141,
      "y": 242,
      "size": 1,
      "price": "1011000000000000000000",
      "reserved": "",
      "salt": "0x9a2e37ed6173e1c9893dd073c36f7d2c5caa2db41c890fdab2f62c2d340108d0",
      "assetIds": []
    },
    {
      "x": 142,
      "y": 201,
      "size": 1,
      "price": "1011000000000000000000",
      "reserved": "",
      "salt": "0x185efcbb5b3472bc78143eda54d3eef83b1cc493110d9b187b813a3ea0a153af",
      "assetIds": []
    },
    {
      "x": 142,
      "y": 202,
      "size": 1,
      "price": "1011000000000000000000",
      "reserved": "",
      "salt": "0x2ef2fd8b8adfed86899acda965c8d5b60d6b774964b6f3f0c95274926858b8de",
      "assetIds": []
    },
    {
      "x": 142,
      "y": 203,
      "size": 1,
      "price": "1011000000000000000000",
      "reserved": "",
      "salt": "0x8046f73047f1d79019c6e10bd82746c95876c2b8b99d9094e080be74f8d6ab35",
      "assetIds": []
    },
    {
      "x": 142,
      "y": 204,
      "size": 1,
      "price": "1011000000000000000000",
      "reserved": "",
      "salt": "0x5fc500b8bcccea402743a101da85d39524d274902cd5bb69b805fab8013c5688",
      "assetIds": []
    },
    {
      "x": 142,
      "y": 205,
      "size": 1,
      "price": "1011000000000000000000",
      "reserved": "",
      "salt": "0xc49098a6fde7826474991070803682fa90ad80c169b51d0157c4483b8d309aa1",
      "assetIds": []
    },
    {
      "x": 142,
      "y": 206,
      "size": 1,
      "price": "1011000000000000000000",
      "reserved": "",
      "salt": "0xf02811ebe7a977daf36e4aad287751a218562ee4e639a9b5d970997b217d01c4",
      "assetIds": []
    },
    {
      "x": 142,
      "y": 207,
      "size": 1,
      "price": "1011000000000000000000",
      "reserved": "",
      "salt": "0x7a8da85272a291485be20326caa222320f3a025019f5138055d4353b58f52a6c",
      "assetIds": []
    },
    {
      "x": 142,
      "y": 208,
      "size": 1,
      "price": "1011000000000000000000",
      "reserved": "",
      "salt": "0x4ed50c5f2224ea1b594db030c24d6bdc14f77e2249c3cca8a3645ea0ddc9edc6",
      "assetIds": []
    },
    {
      "x": 142,
      "y": 209,
      "size": 1,
      "price": "1011000000000000000000",
      "reserved": "",
      "salt": "0xdf3399db16f5acf7ea4f1fadf6ae3037edb8f3c910df781223eee5d3b410e830",
      "assetIds": []
    },
    {
      "x": 142,
      "y": 210,
      "size": 1,
      "price": "1011000000000000000000",
      "reserved": "",
      "salt": "0xfaca7df30bbd9dd0ca2a92617d126303dd46ba9201442111acd53fa866dbc3f4",
      "assetIds": []
    },
    {
      "x": 142,
      "y": 211,
      "size": 1,
      "price": "1011000000000000000000",
      "reserved": "",
      "salt": "0x1387a8faac431ffa1f6e1e6bc8c317fa624ce3e61addc6c8feef604247950b0e",
      "assetIds": []
    },
    {
      "x": 142,
      "y": 212,
      "size": 1,
      "price": "1011000000000000000000",
      "reserved": "",
      "salt": "0xfc05756bb319dd3f655ca979fb9a1878416d2b7785a5609564783a52a635f801",
      "assetIds": []
    },
    {
      "x": 142,
      "y": 213,
      "size": 1,
      "price": "1011000000000000000000",
      "reserved": "",
      "salt": "0xc43d7672899853d4cb75b66911fe3c4f14080876032414f14bc965b0579c48f7",
      "assetIds": []
    },
    {
      "x": 142,
      "y": 214,
      "size": 1,
      "price": "1011000000000000000000",
      "reserved": "0x7a9fe22691c811ea339d9b73150e6911a5343dca",
      "salt": "0xbd9963dd63acbafbc0f70df813353c4ab1f27a384a5bbcd19385b1095983786f",
      "assetIds": []
    },
    {
      "x": 142,
      "y": 215,
      "size": 1,
      "price": "4683000000000000000000",
      "reserved": "",
      "salt": "0x8753db57e5812e6fe8bfce26603c5c8faa3cfc83d15e453f79c64b1834069183",
      "assetIds": []
    },
    {
      "x": 142,
      "y": 240,
      "size": 1,
      "price": "4683000000000000000000",
      "reserved": "",
      "salt": "0x8855ff994c79e480472f72f0c712d5b585d6a791c07583644a9b1836713b804a",
      "assetIds": []
    },
    {
      "x": 142,
      "y": 241,
      "size": 1,
      "price": "1011000000000000000000",
      "reserved": "",
      "salt": "0xe2728e828c7309effdc6eda3ce3d2b2824244462c877b2fef325a90af2b73777",
      "assetIds": []
    },
    {
      "x": 142,
      "y": 242,
      "size": 1,
      "price": "1011000000000000000000",
      "reserved": "",
      "salt": "0xcf2d53ecf747a931002e4bdad2e430a325d710a16338baa9ef592d53631a3a9a",
      "assetIds": []
    },
    {
      "x": 143,
      "y": 201,
      "size": 1,
      "price": "1011000000000000000000",
      "reserved": "",
      "salt": "0xcb3b34db0f1657ceb2c5660807f4b7721ecf3917f55968a0aae412936fc8f101",
      "assetIds": []
    },
    {
      "x": 143,
      "y": 202,
      "size": 1,
      "price": "1011000000000000000000",
      "reserved": "",
      "salt": "0x2ae92d3172071985fed6e73bf888f71e37b4efab0240ca4bf3916e5de0d7112e",
      "assetIds": []
    },
    {
      "x": 143,
      "y": 203,
      "size": 1,
      "price": "1011000000000000000000",
      "reserved": "",
      "salt": "0xaf00777a1fcc5752e096e2b015141797f7d0ca0c220f8e1733b1e67415c392ce",
      "assetIds": []
    },
    {
      "x": 143,
      "y": 204,
      "size": 1,
      "price": "1011000000000000000000",
      "reserved": "",
      "salt": "0xeaa00896adca600162964da492e3b68b3097706b498997b14bb5550fcb4027e8",
      "assetIds": []
    },
    {
      "x": 143,
      "y": 205,
      "size": 1,
      "price": "1011000000000000000000",
      "reserved": "",
      "salt": "0xba2edf8d2545866d7138de964ce16f3d5aa8e3b34b9987f2bae6a6f03433cb46",
      "assetIds": []
    },
    {
      "x": 143,
      "y": 206,
      "size": 1,
      "price": "1011000000000000000000",
      "reserved": "",
      "salt": "0x8e830587ff94ceb7c5619004084d424b90e28951ffca0c7e9754f937a2e57cfe",
      "assetIds": []
    },
    {
      "x": 143,
      "y": 207,
      "size": 1,
      "price": "1011000000000000000000",
      "reserved": "",
      "salt": "0x29bc188e8aad01e1082a0b2a8ef7770b4a991d3aee61a6f04d315e3521eeeef6",
      "assetIds": []
    },
    {
      "x": 143,
      "y": 208,
      "size": 1,
      "price": "1011000000000000000000",
      "reserved": "",
      "salt": "0xf41d0e14fc0e4bd36aedeff6cbb9cfcd43fc87304f4777d6bfc5d69e19c17d1c",
      "assetIds": []
    },
    {
      "x": 143,
      "y": 209,
      "size": 1,
      "price": "1011000000000000000000",
      "reserved": "",
      "salt": "0x8a66b7183528b161a1bdbe661491106bb36d5f9f526c2d71cb347a6f7fe6a0a0",
      "assetIds": []
    },
    {
      "x": 143,
      "y": 210,
      "size": 1,
      "price": "1011000000000000000000",
      "reserved": "",
      "salt": "0x228c1f97b92b54fe3686fba63c9d113ab183cf67f2c3a5d2dd18bc41549c0e4d",
      "assetIds": []
    },
    {
      "x": 143,
      "y": 211,
      "size": 1,
      "price": "1011000000000000000000",
      "reserved": "",
      "salt": "0x220233830e86710712fc61c44a73e58ab47112852ded403e864a8cbece8a5aae",
      "assetIds": []
    },
    {
      "x": 143,
      "y": 212,
      "size": 1,
      "price": "1011000000000000000000",
      "reserved": "",
      "salt": "0xedbaa7f4e567f978ff23ac3809826dbbc27123415bfcdccb0ffe6194c28c8ec7",
      "assetIds": []
    },
    {
      "x": 143,
      "y": 213,
      "size": 1,
      "price": "1011000000000000000000",
      "reserved": "",
      "salt": "0x5f73a447377189c05dc19b4d8c511e69fcf49c553f686b1c6689c9f5b24387f5",
      "assetIds": []
    },
    {
      "x": 143,
      "y": 214,
      "size": 1,
      "price": "1011000000000000000000",
      "reserved": "",
      "salt": "0xa98400920715ebdc3abd5148236a12311d9bfbf8a9b6a31f8d46ec9ecde90e64",
      "assetIds": []
    },
    {
      "x": 143,
      "y": 215,
      "size": 1,
      "price": "4683000000000000000000",
      "reserved": "",
      "salt": "0x242a0def253db7c049e89f9c7cd072881794206be431ae38be035afb9636e5c2",
      "assetIds": []
    },
    {
      "x": 143,
      "y": 240,
      "size": 1,
      "price": "4683000000000000000000",
      "reserved": "",
      "salt": "0xe2b1e1c6ae254177801ca73df51fc300528c9b0e379b9b2907993107dfd4ddcd",
      "assetIds": []
    },
    {
      "x": 143,
      "y": 241,
      "size": 1,
      "price": "1011000000000000000000",
      "reserved": "",
      "salt": "0x66d5e08a0235441a400fa85f0e4c60cf7a999f71b1d2e410f79bae5855269e20",
      "assetIds": []
    },
    {
      "x": 143,
      "y": 242,
      "size": 1,
      "price": "1011000000000000000000",
      "reserved": "",
      "salt": "0x2cb97eb29707d6b032d7f99eba6c05fbe9c3fc222bf1c7c9a86cf3ee1df7f4f9",
      "assetIds": []
    },
    {
      "x": 144,
      "y": 216,
      "size": 1,
      "price": "4683000000000000000000",
      "reserved": "",
      "salt": "0xfda733fd049a00b21ba49d421ef5b5d5adf0fad2e6fd064524a0e5cbc10568a5",
      "assetIds": []
    },
    {
      "x": 144,
      "y": 217,
      "size": 1,
      "price": "4683000000000000000000",
      "reserved": "",
      "salt": "0x952e012cac964765508f26c465f2fbb5638dd28a92b6da3eb5576c565b0b2b22",
      "assetIds": []
    },
    {
      "x": 144,
      "y": 218,
      "size": 1,
      "price": "4683000000000000000000",
      "reserved": "",
      "salt": "0xa582734e3d9f2a4a95fc7175b2128d621487c000a2949f631468bbebae06f573",
      "assetIds": []
    },
    {
      "x": 144,
      "y": 234,
      "size": 1,
      "price": "4683000000000000000000",
      "reserved": "",
      "salt": "0x8a33bc544c1323ab036e1713ac95e826b939606b7301012d15f9946fd9668913",
      "assetIds": []
    },
    {
      "x": 144,
      "y": 235,
      "size": 1,
      "price": "1011000000000000000000",
      "reserved": "",
      "salt": "0xc312a2f0f6a5a54625e45cbef06e023acd9efcea5317628d1241d72928670602",
      "assetIds": []
    },
    {
      "x": 144,
      "y": 236,
      "size": 1,
      "price": "4683000000000000000000",
      "reserved": "",
      "salt": "0x10234b68af2860255b1f39befec828e1483045d3ba2999094f444f659436df81",
      "assetIds": []
    },
    {
      "x": 144,
      "y": 237,
      "size": 1,
      "price": "4683000000000000000000",
      "reserved": "",
      "salt": "0x00b42c6b37196214a9feb058c4feb83446b07beca532e40732b52824ef55b9da",
      "assetIds": []
    },
    {
      "x": 144,
      "y": 238,
      "size": 1,
      "price": "4683000000000000000000",
      "reserved": "",
      "salt": "0x001be55dfef3c396a3a9152c777b9b94c58f2b6b36f95a5343d2814f21a2c4ee",
      "assetIds": []
    },
    {
      "x": 144,
      "y": 239,
      "size": 1,
      "price": "4683000000000000000000",
      "reserved": "",
      "salt": "0x136e5dfe550eca26d2cab97965f87348b19a9bebb489b07c68fb561572a6732e",
      "assetIds": []
    },
    {
      "x": 145,
      "y": 216,
      "size": 1,
      "price": "1011000000000000000000",
      "reserved": "",
      "salt": "0xebdf3e2d5b4a455c202a7bc676f986a17f7cd9e8bdf3fbcdf9c8e61aeac5e3c5",
      "assetIds": []
    },
    {
      "x": 145,
      "y": 217,
      "size": 1,
      "price": "1011000000000000000000",
      "reserved": "",
      "salt": "0xdf727dc32511eaba24cc6f9ab6e01a04266db1cb380ed4a298b4aae39542056b",
      "assetIds": []
    },
    {
      "x": 145,
      "y": 218,
      "size": 1,
      "price": "1011000000000000000000",
      "reserved": "",
      "salt": "0xd1b2de514cd43ef6a0486eecc0b3f574e18fa1197cc2dcdd255aedcb90d5d8ea",
      "assetIds": []
    },
    {
      "x": 145,
      "y": 234,
      "size": 1,
      "price": "1011000000000000000000",
      "reserved": "",
      "salt": "0xad56f50dab75780ebe3a65672b339cd91f2faa053902f5adfc11958bc5785b23",
      "assetIds": []
    },
    {
      "x": 145,
      "y": 235,
      "size": 1,
      "price": "1011000000000000000000",
      "reserved": "",
      "salt": "0x0c081e6b4c0b68f548933a5fee08591b040f2b26ec3736d880f387b7725c71c8",
      "assetIds": []
    },
    {
      "x": 145,
      "y": 236,
      "size": 1,
      "price": "1011000000000000000000",
      "reserved": "",
      "salt": "0x39cb21c2ca649316e1298f44dcae132c74bc494c171d9f1d46824f6a1809c283",
      "assetIds": []
    },
    {
      "x": 145,
      "y": 237,
      "size": 1,
      "price": "1011000000000000000000",
      "reserved": "",
      "salt": "0x9e7219fda8df04ffec2ccc35405f77abfc8d503f90f5fea3a4c50b6c99539ed3",
      "assetIds": []
    },
    {
      "x": 145,
      "y": 238,
      "size": 1,
      "price": "1011000000000000000000",
      "reserved": "",
      "salt": "0xa8688d8f1b285bd12f5c2e341c2cf22584b87d7b6efe1753f93a593cc3763aba",
      "assetIds": []
    },
    {
      "x": 145,
      "y": 239,
      "size": 1,
      "price": "1011000000000000000000",
      "reserved": "",
      "salt": "0x9a5567c02bcd5e60d59842b3567f342f83f78943d0f417a7d7b588ccdfc90d2a",
      "assetIds": []
    },
    {
      "x": 146,
      "y": 216,
      "size": 1,
      "price": "1011000000000000000000",
      "reserved": "",
      "salt": "0xadf57d6317bc40398cbb8385c03ae9f39d4003cdcc23982767a92ebc60a2fa32",
      "assetIds": []
    },
    {
      "x": 146,
      "y": 217,
      "size": 1,
      "price": "1011000000000000000000",
      "reserved": "0x7a9fe22691c811ea339d9b73150e6911a5343dca",
      "salt": "0x1bbe0c366aa32a5140b21840456f11757aa02038d05e2042c768befe8dbdd2b1",
      "assetIds": []
    },
    {
      "x": 146,
      "y": 218,
      "size": 1,
      "price": "1011000000000000000000",
      "reserved": "0x7a9fe22691c811ea339d9b73150e6911a5343dca",
      "salt": "0x5da7d297b990e1d7453c37c2d6d880a3cee2fc5c724dcb491557e07cfe8bb727",
      "assetIds": []
    },
    {
      "x": 146,
      "y": 234,
      "size": 1,
      "price": "1011000000000000000000",
      "reserved": "",
      "salt": "0x9a4f93aa0e1294797e4fe65a90946d6af2607a8069d9bb24210c8eadcbac66d5",
      "assetIds": []
    },
    {
      "x": 146,
      "y": 235,
      "size": 1,
      "price": "1011000000000000000000",
      "reserved": "",
      "salt": "0x7395bb38a41d31088c9c82f007f5cc421f1e367ddbd0170c5e4c336cdece2157",
      "assetIds": []
    },
    {
      "x": 146,
      "y": 236,
      "size": 1,
      "price": "1011000000000000000000",
      "reserved": "",
      "salt": "0xb389ab8528255e6d6bdbb9e973f830f4f41c7346eb77166809683743092a3245",
      "assetIds": []
    },
    {
      "x": 146,
      "y": 237,
      "size": 1,
      "price": "1011000000000000000000",
      "reserved": "",
      "salt": "0x213b98a8433f2ae7211463e75a0699d0341f714e52dbd48acb0a931ea34a6739",
      "assetIds": []
    },
    {
      "x": 146,
      "y": 238,
      "size": 1,
      "price": "1011000000000000000000",
      "reserved": "",
      "salt": "0x1eb275fe7dbadfd1750bdfa65c4ed93bb962690cc95a895c8f0368efecf5191b",
      "assetIds": []
    },
    {
      "x": 146,
      "y": 239,
      "size": 1,
      "price": "1011000000000000000000",
      "reserved": "",
      "salt": "0xb48e51a08ec4696b5bb3b5c7d65bca21a95ad4049275c1f6e7c406fcede3d6c2",
      "assetIds": []
    },
    {
      "x": 147,
      "y": 216,
      "size": 1,
      "price": "1011000000000000000000",
      "reserved": "",
      "salt": "0xf85b51ebcf9690f4adc2ef88c7f826d00408dbb4f462848cf6dcf9c4d01ce841",
      "assetIds": []
    },
    {
      "x": 147,
      "y": 217,
      "size": 1,
      "price": "1011000000000000000000",
      "reserved": "",
      "salt": "0x8fa3b13ca522fc9a7b7f677f1bb7df672d470713bed1ec475a5bdcbd6d14c0bc",
      "assetIds": []
    },
    {
      "x": 147,
      "y": 218,
      "size": 1,
      "price": "1011000000000000000000",
      "reserved": "",
      "salt": "0x90d84fa05d82208151188fc65c59d21c99acc7abbac67ebfc4f54b51081e706c",
      "assetIds": []
    },
    {
      "x": 147,
      "y": 231,
      "size": 1,
      "price": "1011000000000000000000",
      "reserved": "",
      "salt": "0x155c0ff65881c56cbcbdc74b0dda1b1b6252ef868e77d9e12db6c84ff9216f91",
      "assetIds": []
    },
    {
      "x": 147,
      "y": 232,
      "size": 1,
      "price": "1011000000000000000000",
      "reserved": "",
      "salt": "0x5addebe629af193eae833c8416eebc37bb502d9bc3a2d9e2bac933cdb0b6f256",
      "assetIds": []
    },
    {
      "x": 147,
      "y": 233,
      "size": 1,
      "price": "1011000000000000000000",
      "reserved": "",
      "salt": "0x1f4525265721f0320a3e6634bc9b52933d1b0bacf90413dbf3aab7a03388e81c",
      "assetIds": []
    },
    {
      "x": 147,
      "y": 234,
      "size": 1,
      "price": "1011000000000000000000",
      "reserved": "",
      "salt": "0x2b109fa2f151bf428f1b8eb537d88762147b0dbb70f9c0bff079fb9338080a65",
      "assetIds": []
    },
    {
      "x": 147,
      "y": 235,
      "size": 1,
      "price": "1011000000000000000000",
      "reserved": "",
      "salt": "0x653419482ca491ec980bcd1264fd95386948eff52ac253c30cba861c6d1e273b",
      "assetIds": []
    },
    {
      "x": 147,
      "y": 236,
      "size": 1,
      "price": "1011000000000000000000",
      "reserved": "0x7a9fe22691c811ea339d9b73150e6911a5343dca",
      "salt": "0x59790307a02a5fcf4a3b6bef1d328b48d6f9a6b33419cb733533670831e61cfb",
      "assetIds": []
    },
    {
      "x": 147,
      "y": 237,
      "size": 1,
      "price": "1011000000000000000000",
      "reserved": "",
      "salt": "0x77e7d1d609eef85ca82ad40ef432db88ac5976261dbb634663fab62512c45d3a",
      "assetIds": []
    },
    {
      "x": 147,
      "y": 238,
      "size": 1,
      "price": "1011000000000000000000",
      "reserved": "",
      "salt": "0xa3620508fc98977cf00eae71a3f5d781f11bce6e6f802424c8c85070bae87144",
      "assetIds": []
    },
    {
      "x": 147,
      "y": 239,
      "size": 1,
      "price": "1011000000000000000000",
      "reserved": "",
      "salt": "0x9bfabbf09646f5152ee724005084a2b0592cc55cadc7d307b395d259d188f91a",
      "assetIds": []
    },
    {
      "x": 148,
      "y": 216,
      "size": 1,
      "price": "1011000000000000000000",
      "reserved": "",
      "salt": "0x65c5f36335af49f16cac09b2639c5167638de70492d67bc9238eb36bc702f2f6",
      "assetIds": []
    },
    {
      "x": 148,
      "y": 217,
      "size": 1,
      "price": "1011000000000000000000",
      "reserved": "",
      "salt": "0xf34e369ec55cbdd5d7d8643afbb6e3cde1a90c3ef2e27a15bb96b78e12c38913",
      "assetIds": []
    },
    {
      "x": 148,
      "y": 218,
      "size": 1,
      "price": "1011000000000000000000",
      "reserved": "",
      "salt": "0xc02e4254f3a2beb6ea03bbf636319f48ebbd47629ce7f2d01e1512623ad9221e",
      "assetIds": []
    },
    {
      "x": 148,
      "y": 231,
      "size": 1,
      "price": "1011000000000000000000",
      "reserved": "",
      "salt": "0x263f9448639ae5b946180a6dd87734c0befbb40d592b582d98c076c1a65d93a5",
      "assetIds": []
    },
    {
      "x": 148,
      "y": 232,
      "size": 1,
      "price": "1011000000000000000000",
      "reserved": "",
      "salt": "0x180528b6865008d509113089412b95244944b1713ace60cb4e496f3e41eb5543",
      "assetIds": []
    },
    {
      "x": 148,
      "y": 233,
      "size": 1,
      "price": "1011000000000000000000",
      "reserved": "",
      "salt": "0x69e74e2a2831325e34e07e758de5b9ee0afff1e392dc09f536f20a01ae61d5ac",
      "assetIds": []
    },
    {
      "x": 148,
      "y": 234,
      "size": 1,
      "price": "1011000000000000000000",
      "reserved": "",
      "salt": "0x4b2d8200e3bfbf46eaaf0f4114a89e66470ddde51031454a133c1b88b2550d21",
      "assetIds": []
    },
    {
      "x": 148,
      "y": 235,
      "size": 1,
      "price": "1011000000000000000000",
      "reserved": "",
      "salt": "0xa4aa0964e59b7e05cf8117bc159e2832b07c72f179725d4d0cad44ef8a661783",
      "assetIds": []
    },
    {
      "x": 148,
      "y": 236,
      "size": 1,
      "price": "1011000000000000000000",
      "reserved": "",
      "salt": "0x5671cfb236d9085e058e667b938ea3fc3a081296fc13b77177817d333b1afa17",
      "assetIds": []
    },
    {
      "x": 148,
      "y": 237,
      "size": 1,
      "price": "1011000000000000000000",
      "reserved": "",
      "salt": "0xe739d6fbac9d54eebca7dc135740492626e9c5591b8b07d6363cd2641cbaf579",
      "assetIds": []
    },
    {
      "x": 148,
      "y": 238,
      "size": 1,
      "price": "1011000000000000000000",
      "reserved": "",
      "salt": "0x3b789a470865fcebade5077e0971a217c8981721895dfde62af3dda2a5e50064",
      "assetIds": []
    },
    {
      "x": 148,
      "y": 239,
      "size": 1,
      "price": "1011000000000000000000",
      "reserved": "",
      "salt": "0xfed55acaad6a3f270baa08014ae60b6291f3861460386ce173d778763a3ff855",
      "assetIds": []
    },
    {
      "x": 149,
      "y": 231,
      "size": 1,
      "price": "1011000000000000000000",
      "reserved": "",
      "salt": "0xda5df4ad4cbcafcf5a830e73732671df949128d71e464a6438cdeaf3991be38f",
      "assetIds": []
    },
    {
      "x": 149,
      "y": 232,
      "size": 1,
      "price": "1011000000000000000000",
      "reserved": "",
      "salt": "0xf34ea372ede2277f7490f6002caffe77348cf171089cc91e906b4f9b7da61623",
      "assetIds": []
    },
    {
      "x": 149,
      "y": 233,
      "size": 1,
      "price": "1011000000000000000000",
      "reserved": "",
      "salt": "0x8b5deb2163cb2590aeed975b10e06d18203554af9ebfde82085da9ef8ccc2750",
      "assetIds": []
    },
    {
      "x": 149,
      "y": 234,
      "size": 1,
      "price": "1011000000000000000000",
      "reserved": "",
      "salt": "0x7ddf7c520bff6586c2f0c9ba1dd2aff657dbdd513d03dfdecaf8ff51f1473dcb",
      "assetIds": []
    },
    {
      "x": 149,
      "y": 235,
      "size": 1,
      "price": "1011000000000000000000",
      "reserved": "",
      "salt": "0x6c32e4a20e92cb11d8baef019b995e5e31e546426173fff19fc56f64d9f3a9bb",
      "assetIds": []
    },
    {
      "x": 149,
      "y": 236,
      "size": 1,
      "price": "1011000000000000000000",
      "reserved": "",
      "salt": "0x7bea6a9c5715e1bb5e297bddb40e46c3eb1e362883142d12dafc62354550d7dc",
      "assetIds": []
    },
    {
      "x": 149,
      "y": 237,
      "size": 1,
      "price": "1011000000000000000000",
      "reserved": "",
      "salt": "0x3d4e14a2964e5f5614a119cac73a7ebf0fc8a83d98ec509529a7a6e57f06c54f",
      "assetIds": []
    },
    {
      "x": 149,
      "y": 238,
      "size": 1,
      "price": "1011000000000000000000",
      "reserved": "",
      "salt": "0x63b14451cab271075e812ef521c217e5ac83e5a83882cce375f4c03d11df8458",
      "assetIds": []
    },
    {
      "x": 149,
      "y": 239,
      "size": 1,
      "price": "1011000000000000000000",
      "reserved": "",
      "salt": "0x95e4474a8b461e6c415bab3b36a14f5a025eb2e47d9389a29d3e73c84c869659",
      "assetIds": []
    },
    {
      "x": 150,
      "y": 234,
      "size": 1,
      "price": "1011000000000000000000",
      "reserved": "",
      "salt": "0xe302b7723a331512527e3769cddd71f67696bcfd14083ffa1a0ee9ff81176293",
      "assetIds": []
    },
    {
      "x": 150,
      "y": 235,
      "size": 1,
      "price": "1011000000000000000000",
      "reserved": "",
      "salt": "0x7fad961a7356b76562088539c01f9755b7dfe0dfad4977ba36c58fb29ccb59e3",
      "assetIds": []
    },
    {
      "x": 150,
      "y": 236,
      "size": 1,
      "price": "1011000000000000000000",
      "reserved": "",
      "salt": "0x45023355fb9ad7770f6d28f7b003b4c28249e9ef3cd92ebaacb0be390de71483",
      "assetIds": []
    },
    {
      "x": 151,
      "y": 234,
      "size": 1,
      "price": "1011000000000000000000",
      "reserved": "",
      "salt": "0xf84ce7071a14c59890b94c327c2da0d7b43cae06d378d8a9447a16a25b604b4d",
      "assetIds": []
    },
    {
      "x": 151,
      "y": 235,
      "size": 1,
      "price": "1011000000000000000000",
      "reserved": "",
      "salt": "0x183649b12e7cea38dc45727a3c89e86679f18dc2d59a0daad497ddea2e3b0788",
      "assetIds": []
    },
    {
      "x": 151,
      "y": 236,
      "size": 1,
      "price": "1011000000000000000000",
      "reserved": "",
      "salt": "0xf6bb841b967dbcd8b4ecf9c60cb60e7208e3f08b2c354675dfa6563b7f718632",
      "assetIds": []
    }
  ],
  "solcInputHash": "b42a863a795806b4ea3a8f05dfa42539",
  "bytecode": "0x6101606040523480156200001257600080fd5b50604051620031e9380380620031e983398181016040526101a08110156200003957600080fd5b508051602082015160408301516060840151608085015160a086015160c087015160e08801516101008901516101208a01516101408b01516101608c0151610180909c015160016000559a9b999a9899979896979596949593949293919290919085856001600160a01b038216620000f8576040805162461bcd60e51b815260206004820152601f60248201527f526566657272616c56616c696461746f723a207a65726f206164647265737300604482015290519081900360640190fd5b600380546001600160a01b0319166001600160a01b0393841617905560045562000130908e1662000459602090811b62002adc17901c565b6200016d5760405162461bcd60e51b8152600401808060200182810382526025815260200180620031c46025913960400191505060405180910390fd5b6200018c8c6001600160a01b03166200045960201b62002adc1760201c565b620001c95760405162461bcd60e51b8152600401808060200182810382526025815260200180620031c46025913960400191505060405180910390fd5b6001600160a01b038b1662000214576040805162461bcd60e51b815260206004820181905260248201526000805160206200317f833981519152604482015290519081900360640190fd5b6001600160a01b038a166200025f576040805162461bcd60e51b815260206004820181905260248201526000805160206200317f833981519152604482015290519081900360640190fd5b6001600160a01b038916620002aa576040805162461bcd60e51b815260206004820181905260248201526000805160206200317f833981519152604482015290519081900360640190fd5b620002c9836001600160a01b03166200045960201b62002adc1760201c565b620003065760405162461bcd60e51b8152600401808060200182810382526025815260200180620031c46025913960400191505060405180910390fd5b6001600160a01b03821662000351576040805162461bcd60e51b815260206004820181905260248201526000805160206200317f833981519152604482015290519081900360640190fd5b62000370816001600160a01b03166200045960201b62002adc1760201c565b620003ad5760405162461bcd60e51b8152600401808060200182810382526025815260200180620031c46025913960400191505060405180910390fd5b6001600160601b031960608e811b821660a0528d901b1660c052620003dd8b60016001600160e01b036200045f16565b600680546001600160a01b039a8b166001600160a01b031991821617909155610140989098526101209690965260018054998916998816999099179098556001600160601b0319606092831b811660e05290821b811660805296901b909516610100525060078054919093169116179055506200050a92505050565b3b151590565b6001600160a01b038216620004a65760405162461bcd60e51b81526004018080602001828103825260258152602001806200319f6025913960400191505060405180910390fd5b6001600160a01b038216600081815260026020908152604091829020805460ff191685151590811790915582519384529083015280517fb21eb88b4e33b3f1281830a7178d74d8aa73220416215726b68ae23d539515cb9281900390910190a15050565b60805160601c60a05160601c60c05160601c60e05160601c6101005160601c6101205161014051612bef6200059060003980610be0528061247e525080610bbc528061159d5250806124fc525080611af25280611c4f525080611aa85280611e4e52806124d9525080611b235280611c205250806111075280611f3a5250612bef6000f3fe608060405234801561001057600080fd5b50600436106101365760003560e01c8063984d6252116100b2578063c10a420811610081578063dc5074af11610066578063dc5074af146108a0578063e56f8a9e146108c6578063f23a6e61146108e357610136565b8063c10a4208146107c1578063caed35001461089857610136565b8063984d62521461055f578063ab1cc78c14610631578063b522ecff14610639578063bc197c811461065f57610136565b806365194ce71161010957806378e6e5b9116100ee57806378e6e5b9146104e55780638a04af6a1461050b5780638f2839701461053957610136565b806365194ce7146103635780636e9960c3146104c157610136565b80631187fd3c1461013b57806325cb5bc01461031b578063495906571461033557806358bc29441461033d575b600080fd5b610319600480360361012081101561015257600080fd5b6001600160a01b038235811692602081013582169260408201359092169181019060808101606082013564010000000081111561018e57600080fd5b8201836020820111156101a057600080fd5b803590602001918460208302840111640100000000831117156101c257600080fd5b919390928235926040810190602001356401000000008111156101e457600080fd5b8201836020820111156101f657600080fd5b8035906020019184602083028401116401000000008311171561021857600080fd5b91939092909160208101903564010000000081111561023657600080fd5b82018360208201111561024857600080fd5b8035906020019184602083028401116401000000008311171561026a57600080fd5b91939092909160208101903564010000000081111561028857600080fd5b82018360208201111561029a57600080fd5b803590602001918460018302840111640100000000831117156102bc57600080fd5b9193909290916020810190356401000000008111156102da57600080fd5b8201836020820111156102ec57600080fd5b8035906020019184600183028401116401000000008311171561030e57600080fd5b509092509050610978565b005b610323610bba565b60408051918252519081900360200190f35b610323610bde565b6103196004803603602081101561035357600080fd5b50356001600160a01b0316610c02565b6104096004803603602081101561037957600080fd5b81019060208101813564010000000081111561039457600080fd5b8201836020820111156103a657600080fd5b803590602001918460018302840111640100000000831117156103c857600080fd5b91908080601f016020809104026020016040519081016040528093929190818152602001838380828437600092019190915250929550610d2e945050505050565b6040518080602001866001600160a01b03166001600160a01b03168152602001856001600160a01b03166001600160a01b03168152602001848152602001838152602001828103825287818151815260200191508051906020019080838360005b8381101561048257818101518382015260200161046a565b50505050905090810190601f1680156104af5780820380516001836020036101000a031916815260200191505b50965050505050505060405180910390f35b6104c9610e33565b604080516001600160a01b039092168252519081900360200190f35b610319600480360360208110156104fb57600080fd5b50356001600160a01b0316610e42565b6103196004803603604081101561052157600080fd5b506001600160a01b0381351690602001351515610f00565b6103196004803603602081101561054f57600080fd5b50356001600160a01b0316610f6d565b6103196004803603606081101561057557600080fd5b6001600160a01b0382351691908101906040810160208201356401000000008111156105a057600080fd5b8201836020820111156105b257600080fd5b803590602001918460208302840111640100000000831117156105d457600080fd5b9193909290916020810190356401000000008111156105f257600080fd5b82018360208201111561060457600080fd5b8035906020019184602083028401116401000000008311171561062657600080fd5b5090925090506110a6565b610323611231565b6103196004803603602081101561064f57600080fd5b50356001600160a01b0316611237565b61078c600480360360a081101561067557600080fd5b6001600160a01b0382358116926020810135909116918101906060810160408201356401000000008111156106a957600080fd5b8201836020820111156106bb57600080fd5b803590602001918460208302840111640100000000831117156106dd57600080fd5b9193909290916020810190356401000000008111156106fb57600080fd5b82018360208201111561070d57600080fd5b8035906020019184602083028401116401000000008311171561072f57600080fd5b91939092909160208101903564010000000081111561074d57600080fd5b82018360208201111561075f57600080fd5b8035906020019184600183028401116401000000008311171561078157600080fd5b509092509050611348565b604080517fffffffff000000000000000000000000000000000000000000000000000000009092168252519081900360200190f35b610884600480360360a08110156107d757600080fd5b8101906020810181356401000000008111156107f257600080fd5b82018360208201111561080457600080fd5b8035906020019184600183028401116401000000008311171561082657600080fd5b91908080601f016020809104026020016040519081016040528093929190818152602001838380828437600092019190915250929550506001600160a01b038335811694506020840135169260408101359250606001359050611375565b604080519115158252519081900360200190f35b6104c96114b1565b610884600480360360208110156108b657600080fd5b50356001600160a01b03166114c0565b610319600480360360208110156108dc57600080fd5b50356114de565b61078c600480360360a08110156108f957600080fd5b6001600160a01b03823581169260208101359091169160408201359160608101359181019060a08101608082013564010000000081111561093957600080fd5b82018360208201111561094b57600080fd5b8035906020019184600183028401116401000000008311171561096d57600080fd5b509092509050611570565b600260005414156109d0576040805162461bcd60e51b815260206004820152601f60248201527f5265656e7472616e637947756172643a207265656e7472616e742063616c6c00604482015290519081900360640190fd5b60026000556109df8e8d61159b565b610ad68d8d8d8d80806020026020016040519081016040528093929190818152602001838360200280828437600081840152601f19601f820116905080830192505050505050508c8c8c80806020026020016040519081016040528093929190818152602001838360200280828437600081840152601f19601f820116905080830192505050505050508b8b8080602002602001604051908101604052809392919081815260200183836020028082843760009201919091525050604080516020601f8d018190048102820181019092528b815292508b91508a90819084018382808284376000920191909152506116fe92505050565b610b2a8e8c8c6003818110610ae757fe5b9050602002013586868080601f016020809104026020016040519081016040528093929190818152602001838380828437600092019190915250611a8192505050565b610b688e8e8d8d80806020026020016040519081016040528093929190818152602001838360200280828437600092019190915250611ad292505050565b610ba58d898980806020026020016040519081016040528093929190818152602001838360200280828437600092019190915250611ec392505050565b50506001600055505050505050505050505050565b7f000000000000000000000000000000000000000000000000000000000000000090565b7f000000000000000000000000000000000000000000000000000000000000000090565b6001546001600160a01b03163314610c61576040805162461bcd60e51b815260206004820152601260248201527f6f6e6c792061646d696e20616c6c6f7765640000000000000000000000000000604482015290519081900360640190fd5b6001600160a01b038116610cbc576040805162461bcd60e51b815260206004820152601f60248201527f526566657272616c56616c696461746f723a207a65726f206164647265737300604482015290519081900360640190fd5b600380546001600160a01b03908116600090815260056020526040808220620d2f0042019055835473ffffffffffffffffffffffffffffffffffffffff1916928516928317909355915190917fbbb5fb2ee7e707ae0c968f63e94211ea81e66a718c34e2f810a7619e5678a21791a250565b606060008060008060606000806000808a80602001905160a0811015610d5357600080fd5b8101908080516040519392919084640100000000821115610d7357600080fd5b908301906020820185811115610d8857600080fd5b8251640100000000811182820188101715610da257600080fd5b82525081516020918201929091019080838360005b83811015610dcf578181015183820152602001610db7565b50505050905090810190601f168015610dfc5780820380516001836020036101000a031916815260200191505b5060409081526020820151908201516060830151608090930151959f50909d509b5099509197505050505050505091939590929450565b6001546001600160a01b031690565b6001546001600160a01b03163314610e8b5760405162461bcd60e51b8152600401808060200182810382526023815260200180612b056023913960400191505060405180910390fd5b6001600160a01b038116610ee6576040805162461bcd60e51b815260206004820152601f60248201527f526566657272616c56616c696461746f723a207a65726f206164647265737300604482015290519081900360640190fd5b6001600160a01b0316600090815260056020526040812055565b6001546001600160a01b03163314610f5f576040805162461bcd60e51b815260206004820152601260248201527f6f6e6c792061646d696e20616c6c6f7765640000000000000000000000000000604482015290519081900360640190fd5b610f698282612087565b5050565b6001546001600160a01b03163314610fcc576040805162461bcd60e51b815260206004820152601b60248201527f6f6e6c792061646d696e2063616e206368616e67652061646d696e0000000000604482015290519081900360640190fd5b6001546001600160a01b038281169116141561102f576040805162461bcd60e51b815260206004820152600d60248201527f616c72656164792061646d696e00000000000000000000000000000000000000604482015290519081900360640190fd5b600154604080516001600160a01b039283168152918316602083015280517f7e644d79422f17c01e4894b5f4f588d331ebfa28653d42ae832dc59e38c9798f9281900390910190a16001805473ffffffffffffffffffffffffffffffffffffffff19166001600160a01b0392909216919091179055565b6001546001600160a01b03163314611105576040805162461bcd60e51b815260206004820152600e60248201527f4e4f545f415554484f52495a4544000000000000000000000000000000000000604482015290519081900360640190fd5b7f00000000000000000000000000000000000000000000000000000000000000006001600160a01b0316632eb2c2d63087878787876040518763ffffffff1660e01b815260040180876001600160a01b03166001600160a01b03168152602001866001600160a01b03166001600160a01b031681526020018060200180602001806020018481038452888882818152602001925060200280828437600083820152601f01601f19169091018581038452868152602090810191508790870280828437600081840152601f19601f8201169050808301925050508481038252600081526020016020019950505050505050505050600060405180830381600087803b15801561121257600080fd5b505af1158015611226573d6000803e3d6000fd5b505050505050505050565b60045490565b6001600160a01b038116611292576040805162461bcd60e51b815260206004820152600c60248201527f5a45524f5f414444524553530000000000000000000000000000000000000000604482015290519081900360640190fd5b6001546001600160a01b031633146112f1576040805162461bcd60e51b815260206004820152600e60248201527f4e4f545f415554484f52495a4544000000000000000000000000000000000000604482015290519081900360640190fd5b6006805473ffffffffffffffffffffffffffffffffffffffff19166001600160a01b0383169081179091556040517f4d66958b757eb92a1b43d02be4c38c9500b73f532420ee3706cb43d420ba023690600090a250565b7fbc197c810000000000000000000000000000000000000000000000000000000098975050505050505050565b60006004548211806113985750836001600160a01b0316856001600160a01b0316145b806113a257508242115b156113af575060006114a8565b60408051606087811b7fffffffffffffffffffffffffffffffffffffffff0000000000000000000000009081166020808501919091529188901b166034830152604882018690526068808301869052835180840390910181526088830184528051908201207f19457468657265756d205369676e6564204d6573736167653a0a33320000000060a884015260c48084018290528451808503909101815260e49093019093528151910120600090611466908961214e565b6001600160a01b0381166000908152600560205260409020549091504211611493576001925050506114a8565b6003546001600160a01b039081169116149150505b95945050505050565b6003546001600160a01b031690565b6001600160a01b031660009081526002602052604090205460ff1690565b6001546001600160a01b0316331461153d576040805162461bcd60e51b815260206004820152601260248201527f6f6e6c792061646d696e20616c6c6f7765640000000000000000000000000000604482015290519081900360640190fd5b600481905560405181907f774069781371d65424b3b0b101c1d40014532cac040f979595b99a3fcf8ce08c90600090a250565b7ff23a6e61000000000000000000000000000000000000000000000000000000009695505050505050565b7f0000000000000000000000000000000000000000000000000000000000000000421061160f576040805162461bcd60e51b815260206004820152600c60248201527f53414c455f49535f4f5645520000000000000000000000000000000000000000604482015290519081900360640190fd5b6001600160a01b03821633148061163557503360009081526002602052604090205460ff165b611686576040805162461bcd60e51b815260206004820152600e60248201527f4e4f545f415554484f52495a4544000000000000000000000000000000000000604482015290519081900360640190fd5b6001600160a01b03811615806116ad5750816001600160a01b0316816001600160a01b0316145b610f69576040805162461bcd60e51b815260206004820152600d60248201527f52455345525645445f4c414e4400000000000000000000000000000000000000604482015290519081900360640190fd5b600087878760008151811061170f57fe5b60200260200101518860018151811061172457fe5b60200260200101518960028151811061173957fe5b60200260200101518a60038151811061174e57fe5b60200260200101518a8a60405160200180828051906020019060200280838360005b83811015611788578181015183820152602001611770565b50505050905001915050604051602081830303815290604052805190602001208a60405160200180828051906020019060200280838360005b838110156117d95781810151838201526020016117c1565b5050505090500191505060405160208183030381529060405280519060200120604051602001808a6001600160a01b03166001600160a01b031660601b8152601401896001600160a01b03166001600160a01b031660601b81526014018881526020018781526020018681526020018581526020018481526020018381526020018281526020019950505050505050505050604051602081830303815290604052805190602001209050600760009054906101000a90046001600160a01b03166001600160a01b031663012847ed83836040518363ffffffff1660e01b81526004018080602001838152602001828103825284818151815260200191508051906020019080838360005b838110156118fb5781810151838201526020016118e3565b50505050905090810190601f1680156119285780820380516001836020036101000a031916815260200191505b50935050505060206040518083038186803b15801561194657600080fd5b505afa15801561195a573d6000803e3d6000fd5b505050506040513d602081101561197057600080fd5b50516119c3576040805162461bcd60e51b815260206004820152600c60248201527f494e56414c49445f415554480000000000000000000000000000000000000000604482015290519081900360640190fd5b6000611a24876000815181106119d557fe5b6020026020010151886001815181106119ea57fe5b6020026020010151896002815181106119ff57fe5b60200260200101518a600381518110611a1457fe5b60200260200101518c8b8b612337565b9050611a3084826123dc565b611226576040805162461bcd60e51b815260206004820152600c60248201527f494e56414c49445f4c414e440000000000000000000000000000000000000000604482015290519081900360640190fd5b6000611a8d84846124a5565b600654909150611acc908590839085906001600160a01b03167f000000000000000000000000000000000000000000000000000000000000000061253f565b50505050565b80600281518110611adf57fe5b602002602001015160011480611b1c57507f00000000000000000000000000000000000000000000000000000000000000006001600160a01b0316155b15611c1e577f00000000000000000000000000000000000000000000000000000000000000006001600160a01b0316636e1e3bbf8383600281518110611b5e57fe5b602002602001015184600081518110611b7357fe5b602002602001015185600181518110611b8857fe5b60200260200101516040518563ffffffff1660e01b815260040180856001600160a01b03166001600160a01b031681526020018481526020018381526020018281526020018060200182810382526000815260200160200195505050505050600060405180830381600087803b158015611c0157600080fd5b505af1158015611c15573d6000803e3d6000fd5b50505050611dbe565b7f00000000000000000000000000000000000000000000000000000000000000006001600160a01b0316636e1e3bbf7f000000000000000000000000000000000000000000000000000000000000000083600281518110611c7b57fe5b602002602001015184600081518110611c9057fe5b602002602001015185600181518110611ca557fe5b60200260200101518760405160200180826001600160a01b03166001600160a01b031681526020019150506040516020818303038152906040526040518663ffffffff1660e01b815260040180866001600160a01b03166001600160a01b0316815260200185815260200184815260200183815260200180602001828103825283818151815260200191508051906020019080838360005b83811015611d55578181015183820152602001611d3d565b50505050905090810190601f168015611d825780820380516001836020036101000a031916815260200191505b509650505050505050600060405180830381600087803b158015611da557600080fd5b505af1158015611db9573d6000803e3d6000fd5b505050505b61019881600181518110611dce57fe5b60200260200101510281600081518110611de457fe5b602002602001015101826001600160a01b0316846001600160a01b03167fe4dfa6ac11314892f3029b34a25b1a887da3b1cab2bbf8506d87128ba6e3ac0284600281518110611e2f57fe5b602002602001015185600381518110611e4457fe5b60200260200101517f000000000000000000000000000000000000000000000000000000000000000087600381518110611e7a57fe5b602002602001015160405180858152602001848152602001836001600160a01b03166001600160a01b0316815260200182815260200194505050505060405180910390a4505050565b6060815167ffffffffffffffff81118015611edd57600080fd5b50604051908082528060200260200182016040528015611f07578160200160208202803683370190505b50905060005b8251811015611f37576001828281518110611f2457fe5b6020908102919091010152600101611f0d565b507f00000000000000000000000000000000000000000000000000000000000000006001600160a01b0316632eb2c2d6308585856040518563ffffffff1660e01b815260040180856001600160a01b03166001600160a01b03168152602001846001600160a01b03166001600160a01b03168152602001806020018060200180602001848103845286818151815260200191508051906020019060200280838360005b83811015611ff2578181015183820152602001611fda565b50505050905001848103835285818151815260200191508051906020019060200280838360005b83811015612031578181015183820152602001612019565b50505050905001848103825260008152602001602001975050505050505050600060405180830381600087803b15801561206a57600080fd5b505af115801561207e573d6000803e3d6000fd5b50505050505050565b6001600160a01b0382166120cc5760405162461bcd60e51b8152600401808060200182810382526025815260200180612b6b6025913960400191505060405180910390fd5b6001600160a01b03821660008181526002602090815260409182902080547fffffffffffffffffffffffffffffffffffffffffffffffffffffffffffffff001685151590811790915582519384529083015280517fb21eb88b4e33b3f1281830a7178d74d8aa73220416215726b68ae23d539515cb9281900390910190a15050565b600081516041146121a6576040805162461bcd60e51b815260206004820152601f60248201527f45434453413a20696e76616c6964207369676e6174757265206c656e67746800604482015290519081900360640190fd5b60208201516040830151606084015160001a7f7fffffffffffffffffffffffffffffff5d576e7357a4501ddfe92f46681b20a08211156122175760405162461bcd60e51b8152600401808060200182810382526022815260200180612ae36022913960400191505060405180910390fd5b8060ff16601b1415801561222f57508060ff16601c14155b1561226b5760405162461bcd60e51b8152600401808060200182810382526022815260200180612b286022913960400191505060405180910390fd5b60408051600080825260208083018085528a905260ff85168385015260608301879052608083018690529251909260019260a080820193601f1981019281900390910190855afa1580156122c3573d6000803e3d6000fd5b5050604051601f1901519150506001600160a01b03811661232b576040805162461bcd60e51b815260206004820152601860248201527f45434453413a20696e76616c6964207369676e61747572650000000000000000604482015290519081900360640190fd5b93505050505b92915050565b60008787878787878760405160200180888152602001878152602001868152602001858152602001846001600160a01b03166001600160a01b031660601b8152601401838152602001828051906020019060200280838360005b838110156123a9578181015183820152602001612391565b50505050905001975050505050505050604051602081830303815290604052805190602001209050979650505050505050565b600081815b845181101561247b5760008582815181106123f857fe5b60200260200101519050808310156124405782816040516020018083815260200182815260200192505050604051602081830303815290604052805190602001209250612472565b808360405160200180838152602001828152602001925050506040516020818303038152906040528051906020012092505b506001016123e1565b507f0000000000000000000000000000000000000000000000000000000000000000149392505050565b6000806124ca60646124be85600563ffffffff61264716565b9063ffffffff6126a716565b90506125276001600160a01b037f000000000000000000000000000000000000000000000000000000000000000016857f00000000000000000000000000000000000000000000000000000000000000008463ffffffff6126e916565b612537838263ffffffff61277116565b949350505050565b8251819085901561262c57606060008060008061255b8a610d2e565b93985091965094509250905060006125768686868686611375565b15612604576125906125888d84612647565b6127106126a7565b9050886001600160a01b0316846001600160a01b0316866001600160a01b03167fac7a699eb95c3c6d390ec4626de17ef9a67b35891efdb197beba7c7fdd45fac48f858760405180848152602001838152602001828152602001935050505060405180910390a46126018782612771565b96505b8015612625576126256001600160a01b0389168e878463ffffffff6126e916565b5050505050505b61207e6001600160a01b03831688868463ffffffff6126e916565b60008261265657506000612331565b8282028284828161266357fe5b04146126a05760405162461bcd60e51b8152600401808060200182810382526021815260200180612b4a6021913960400191505060405180910390fd5b9392505050565b60006126a083836040518060400160405280601a81526020017f536166654d6174683a206469766973696f6e206279207a65726f0000000000008152506127b3565b604080516001600160a01b0380861660248301528416604482015260648082018490528251808303909101815260849091019091526020810180517bffffffffffffffffffffffffffffffffffffffffffffffffffffffff167f23b872dd00000000000000000000000000000000000000000000000000000000179052611acc908590612855565b60006126a083836040518060400160405280601e81526020017f536166654d6174683a207375627472616374696f6e206f766572666c6f77000081525061290b565b6000818361283f5760405162461bcd60e51b81526004018080602001828103825283818151815260200191508051906020019080838360005b838110156128045781810151838201526020016127ec565b50505050905090810190601f1680156128315780820380516001836020036101000a031916815260200191505b509250505060405180910390fd5b50600083858161284b57fe5b0495945050505050565b60606128aa826040518060400160405280602081526020017f5361666545524332303a206c6f772d6c6576656c2063616c6c206661696c6564815250856001600160a01b03166129659092919063ffffffff16565b805190915015612906578080602001905160208110156128c957600080fd5b50516129065760405162461bcd60e51b815260040180806020018281038252602a815260200180612b90602a913960400191505060405180910390fd5b505050565b6000818484111561295d5760405162461bcd60e51b81526020600482018181528351602484015283519092839260449091019190850190808383600083156128045781810151838201526020016127ec565b505050900390565b60606125378484600085606061297a85612adc565b6129cb576040805162461bcd60e51b815260206004820152601d60248201527f416464726573733a2063616c6c20746f206e6f6e2d636f6e7472616374000000604482015290519081900360640190fd5b60006060866001600160a01b031685876040518082805190602001908083835b60208310612a0a5780518252601f1990920191602091820191016129eb565b6001836020036101000a03801982511681845116808217855250505050505090500191505060006040518083038185875af1925050503d8060008114612a6c576040519150601f19603f3d011682016040523d82523d6000602084013e612a71565b606091505b50915091508115612a855791506125379050565b805115612a955780518082602001fd5b60405162461bcd60e51b81526020600482018181528651602484015286518793919283926044019190850190808383600083156128045781810151838201526020016127ec565b3b15159056fe45434453413a20696e76616c6964207369676e6174757265202773272076616c7565526566657272616c56616c696461746f723a2053656e646572206e6f742061646d696e45434453413a20696e76616c6964207369676e6174757265202776272076616c7565536166654d6174683a206d756c7469706c69636174696f6e206f766572666c6f774d6574615472616e73616374696f6e52656365697665723a207a65726f20616464726573735361666545524332303a204552433230206f7065726174696f6e20646964206e6f742073756363656564a264697066735822122077f2d13cbcb85fa08010a53c1e4ef27117b031e8c1c9273d55cef362af299f3164736f6c6343000605003345737461746553616c6557697468417574683a207a65726f20616464726573734d6574615472616e73616374696f6e52656365697665723a207a65726f206164647265737345737461746553616c6557697468417574683a206973206e6f74206120636f6e7472616374",
  "devdoc": {
    "methods": {
      "buyLandWithSand(address,address,address,uint256[],bytes32,uint256[],bytes32[],bytes,bytes)": {
        "params": {
          "assetIds": "asset ids (lands) that will be bought",
          "buyer": "address that perform the payment",
          "info": "[X_INDEX=0] x coordinate of the Land [Y_INDEX=1] y coordinate of the Land [SIZE_INDEX=2] size of the pack of Land to purchase [PRICE_INDEX=3] price in SAND to purchase that Land",
          "proof": "merkleProof for that particular Land",
          "referral": "referral id",
          "reserved": "the reserved address (if any)",
          "salt": "The salt submitted for verification.",
          "signature": "A signed message specifying tx details",
          "to": "address that will own the purchased Land"
        }
      },
      "changeAdmin(address)": {
        "details": "change the administrator to be `newAdmin`.",
        "params": {
          "newAdmin": "address of the new administrator."
        }
      },
      "disablePreviousSigningWallet(address)": {
        "details": "Disable compromised signing wallet",
        "params": {
          "disableWallet": "The wallet address to be disabled"
        }
      },
      "getAdmin()": {
        "details": "gives the current administrator of this contract.",
        "returns": {
          "_0": "the current administrator of this contract."
        }
      },
      "getSigningWallet()": {
        "details": "signing wallet authorized for referral",
        "returns": {
          "_0": "the address of the signing wallet"
        }
      },
      "isMetaTransactionProcessor(address)": {
        "details": "check whether address `who` is given meta-transaction execution rights.",
        "params": {
          "who": "The address to query."
        },
        "returns": {
          "_0": "whether the address has meta-transaction execution rights."
        }
      },
      "isReferralValid(bytes,address,address,uint256,uint256)": {
        "params": {
          "commissionRate": "The commissionRate of the referral",
          "expiryTime": "The expiry time of the referral",
          "referee": "The address of the referee",
          "referrer": "The address of the referrer",
          "signature": "The signature to check (signed referral)"
        },
        "returns": {
          "_0": "True if the referral is valid"
        }
      },
      "setMetaTransactionProcessor(address,bool)": {
        "details": "Enable or disable the ability of `metaTransactionProcessor` to perform meta-tx (metaTransactionProcessor rights).",
        "params": {
          "enabled": "set whether the metaTransactionProcessor is enabled or disabled.",
          "metaTransactionProcessor": "address that will be given/removed metaTransactionProcessor rights."
        }
      },
      "setReceivingWallet(address)": {
        "params": {
          "newWallet": "address of the new receiving wallet"
        }
      },
      "updateMaxCommissionRate(uint256)": {
        "details": "Update the maximum commission rate",
        "params": {
          "newMaxCommissionRate": "The new maximum commission rate"
        }
      },
      "updateSigningWallet(address)": {
        "details": "Update the signing wallet The previous wallet is still valid for a grace period (_previousSigningDelay). If you want to disable the previous wallet, use the disablePreviousSigningWallet function.",
        "params": {
          "newSigningWallet": "The new address of the signing wallet"
        }
      },
      "withdrawAssets(address,uint256[],uint256[])": {
        "params": {
          "assetIds": "the assetIds to be transferred",
          "to": "intended recipient of the asset tokens",
          "values": "the quantities of the assetIds to be transferred"
        }
      }
    },
    "title": "Estate Sale contract with referral"
  },
  "userdoc": {
    "methods": {
      "buyLandWithSand(address,address,address,uint256[],bytes32,uint256[],bytes32[],bytes,bytes)": {
        "notice": "buy Land with SAND using the merkle proof associated with it"
      },
      "getExpiryTime()": {
        "notice": "Gets the expiry time for the current sale"
      },
      "getMaxCommissionRate()": {
        "notice": "the max commission rate"
      },
      "getMerkleRoot()": {
        "notice": "Gets the Merkle root associated with the current sale"
      },
      "isReferralValid(bytes,address,address,uint256,uint256)": {
        "notice": "Check if a referral is valid"
      },
      "setReceivingWallet(address)": {
        "notice": "set the wallet receiving the proceeds"
      },
      "withdrawAssets(address,uint256[],uint256[])": {
        "notice": "enable Admin to withdraw remaining assets from EstateSaleWithFee contract"
      }
    },
    "notice": "This contract manages the sale of our lands as Estates"
  },
  "storageLayout": {
    "storage": [
      {
        "astId": 1129,
        "contract": "src/solc_0.6/EstateSale/EstateSaleWithAuth.sol:EstateSaleWithAuth",
        "label": "_status",
        "offset": 0,
        "slot": "0",
        "type": "t_uint256"
      },
      {
        "astId": 14099,
        "contract": "src/solc_0.6/EstateSale/EstateSaleWithAuth.sol:EstateSaleWithAuth",
        "label": "_admin",
        "offset": 0,
        "slot": "1",
        "type": "t_address"
      },
      {
        "astId": 14168,
        "contract": "src/solc_0.6/EstateSale/EstateSaleWithAuth.sol:EstateSaleWithAuth",
        "label": "_metaTransactionContracts",
        "offset": 0,
        "slot": "2",
        "type": "t_mapping(t_address,t_bool)"
      },
      {
        "astId": 12200,
        "contract": "src/solc_0.6/EstateSale/EstateSaleWithAuth.sol:EstateSaleWithAuth",
        "label": "_signingWallet",
        "offset": 0,
        "slot": "3",
        "type": "t_address"
      },
      {
        "astId": 12202,
        "contract": "src/solc_0.6/EstateSale/EstateSaleWithAuth.sol:EstateSaleWithAuth",
        "label": "_maxCommissionRate",
        "offset": 0,
        "slot": "4",
        "type": "t_uint256"
      },
      {
        "astId": 12206,
        "contract": "src/solc_0.6/EstateSale/EstateSaleWithAuth.sol:EstateSaleWithAuth",
        "label": "_previousSigningWallets",
        "offset": 0,
        "slot": "5",
        "type": "t_mapping(t_address,t_uint256)"
      },
      {
        "astId": 7750,
        "contract": "src/solc_0.6/EstateSale/EstateSaleWithAuth.sol:EstateSaleWithAuth",
        "label": "_wallet",
        "offset": 0,
        "slot": "6",
        "type": "t_address_payable"
      },
      {
        "astId": 7752,
        "contract": "src/solc_0.6/EstateSale/EstateSaleWithAuth.sol:EstateSaleWithAuth",
        "label": "_authValidator",
        "offset": 0,
        "slot": "7",
        "type": "t_contract(AuthValidator)7063"
      }
    ],
    "types": {
      "t_address": {
        "encoding": "inplace",
        "label": "address",
        "numberOfBytes": "20"
      },
      "t_address_payable": {
        "encoding": "inplace",
        "label": "address payable",
        "numberOfBytes": "20"
      },
      "t_bool": {
        "encoding": "inplace",
        "label": "bool",
        "numberOfBytes": "1"
      },
      "t_contract(AuthValidator)7063": {
        "encoding": "inplace",
        "label": "contract AuthValidator",
        "numberOfBytes": "20"
      },
      "t_mapping(t_address,t_bool)": {
        "encoding": "mapping",
        "key": "t_address",
        "label": "mapping(address => bool)",
        "numberOfBytes": "32",
        "value": "t_bool"
      },
      "t_mapping(t_address,t_uint256)": {
        "encoding": "mapping",
        "key": "t_address",
        "label": "mapping(address => uint256)",
        "numberOfBytes": "32",
        "value": "t_uint256"
      },
      "t_uint256": {
        "encoding": "inplace",
        "label": "uint256",
        "numberOfBytes": "32"
      }
    }
  }
}