{
  "address": "0xf0367fd3bA749Ad5C190fA24f76B098C2127E594",
  "abi": [
    {
      "inputs": [
        {
          "internalType": "address",
          "name": "landAddress",
          "type": "address"
        },
        {
          "internalType": "address",
          "name": "sandContractAddress",
          "type": "address"
        },
        {
          "internalType": "address",
          "name": "initialMetaTx",
          "type": "address"
        },
        {
          "internalType": "address",
          "name": "admin",
          "type": "address"
        },
        {
          "internalType": "address payable",
          "name": "initialWalletAddress",
          "type": "address"
        },
        {
          "internalType": "bytes32",
          "name": "merkleRoot",
          "type": "bytes32"
        },
        {
          "internalType": "uint256",
          "name": "expiryTime",
          "type": "uint256"
        },
        {
          "internalType": "address",
          "name": "initialSigningWallet",
          "type": "address"
        },
        {
          "internalType": "uint256",
          "name": "initialMaxCommissionRate",
          "type": "uint256"
        },
        {
          "internalType": "address",
          "name": "estate",
          "type": "address"
        },
        {
          "internalType": "address",
          "name": "asset",
          "type": "address"
        },
        {
          "internalType": "address",
          "name": "feeDistributor",
          "type": "address"
        },
        {
          "internalType": "address",
          "name": "authValidator",
          "type": "address"
        }
      ],
      "stateMutability": "nonpayable",
      "type": "constructor"
    },
    {
      "anonymous": false,
      "inputs": [
        {
          "indexed": false,
          "internalType": "address",
          "name": "oldAdmin",
          "type": "address"
        },
        {
          "indexed": false,
          "internalType": "address",
          "name": "newAdmin",
          "type": "address"
        }
      ],
      "name": "AdminChanged",
      "type": "event"
    },
    {
      "anonymous": false,
      "inputs": [
        {
          "indexed": true,
          "internalType": "address",
          "name": "buyer",
          "type": "address"
        },
        {
          "indexed": true,
          "internalType": "address",
          "name": "to",
          "type": "address"
        },
        {
          "indexed": true,
          "internalType": "uint256",
          "name": "topCornerId",
          "type": "uint256"
        },
        {
          "indexed": false,
          "internalType": "uint256",
          "name": "size",
          "type": "uint256"
        },
        {
          "indexed": false,
          "internalType": "uint256",
          "name": "price",
          "type": "uint256"
        },
        {
          "indexed": false,
          "internalType": "address",
          "name": "token",
          "type": "address"
        },
        {
          "indexed": false,
          "internalType": "uint256",
          "name": "amountPaid",
          "type": "uint256"
        }
      ],
      "name": "LandQuadPurchased",
      "type": "event"
    },
    {
      "anonymous": false,
      "inputs": [
        {
          "indexed": true,
          "internalType": "uint256",
          "name": "newMaxCommissionRate",
          "type": "uint256"
        }
      ],
      "name": "MaxCommissionRateUpdated",
      "type": "event"
    },
    {
      "anonymous": false,
      "inputs": [
        {
          "indexed": false,
          "internalType": "address",
          "name": "metaTransactionProcessor",
          "type": "address"
        },
        {
          "indexed": false,
          "internalType": "bool",
          "name": "enabled",
          "type": "bool"
        }
      ],
      "name": "MetaTransactionProcessor",
      "type": "event"
    },
    {
      "anonymous": false,
      "inputs": [
        {
          "indexed": true,
          "internalType": "address",
          "name": "newWallet",
          "type": "address"
        }
      ],
      "name": "NewReceivingWallet",
      "type": "event"
    },
    {
      "anonymous": false,
      "inputs": [
        {
          "indexed": true,
          "internalType": "address",
          "name": "referrer",
          "type": "address"
        },
        {
          "indexed": true,
          "internalType": "address",
          "name": "referee",
          "type": "address"
        },
        {
          "indexed": true,
          "internalType": "address",
          "name": "token",
          "type": "address"
        },
        {
          "indexed": false,
          "internalType": "uint256",
          "name": "amount",
          "type": "uint256"
        },
        {
          "indexed": false,
          "internalType": "uint256",
          "name": "commission",
          "type": "uint256"
        },
        {
          "indexed": false,
          "internalType": "uint256",
          "name": "commissionRate",
          "type": "uint256"
        }
      ],
      "name": "ReferralUsed",
      "type": "event"
    },
    {
      "anonymous": false,
      "inputs": [
        {
          "indexed": true,
          "internalType": "address",
          "name": "newSigningWallet",
          "type": "address"
        }
      ],
      "name": "SigningWalletUpdated",
      "type": "event"
    },
    {
      "inputs": [
        {
          "internalType": "address",
          "name": "buyer",
          "type": "address"
        },
        {
          "internalType": "address",
          "name": "to",
          "type": "address"
        },
        {
          "internalType": "address",
          "name": "reserved",
          "type": "address"
        },
        {
          "internalType": "uint256[]",
          "name": "info",
          "type": "uint256[]"
        },
        {
          "internalType": "bytes32",
          "name": "salt",
          "type": "bytes32"
        },
        {
          "internalType": "uint256[]",
          "name": "assetIds",
          "type": "uint256[]"
        },
        {
          "internalType": "bytes32[]",
          "name": "proof",
          "type": "bytes32[]"
        },
        {
          "internalType": "bytes",
          "name": "referral",
          "type": "bytes"
        },
        {
          "internalType": "bytes",
          "name": "signature",
          "type": "bytes"
        }
      ],
      "name": "buyLandWithSand",
      "outputs": [],
      "stateMutability": "nonpayable",
      "type": "function"
    },
    {
      "inputs": [
        {
          "internalType": "address",
          "name": "newAdmin",
          "type": "address"
        }
      ],
      "name": "changeAdmin",
      "outputs": [],
      "stateMutability": "nonpayable",
      "type": "function"
    },
    {
      "inputs": [
        {
          "internalType": "bytes",
          "name": "referral",
          "type": "bytes"
        }
      ],
      "name": "decodeReferral",
      "outputs": [
        {
          "internalType": "bytes",
          "name": "",
          "type": "bytes"
        },
        {
          "internalType": "address",
          "name": "",
          "type": "address"
        },
        {
          "internalType": "address",
          "name": "",
          "type": "address"
        },
        {
          "internalType": "uint256",
          "name": "",
          "type": "uint256"
        },
        {
          "internalType": "uint256",
          "name": "",
          "type": "uint256"
        }
      ],
      "stateMutability": "pure",
      "type": "function"
    },
    {
      "inputs": [
        {
          "internalType": "address",
          "name": "disableWallet",
          "type": "address"
        }
      ],
      "name": "disablePreviousSigningWallet",
      "outputs": [],
      "stateMutability": "nonpayable",
      "type": "function"
    },
    {
      "inputs": [],
      "name": "getAdmin",
      "outputs": [
        {
          "internalType": "address",
          "name": "",
          "type": "address"
        }
      ],
      "stateMutability": "view",
      "type": "function"
    },
    {
      "inputs": [],
      "name": "getExpiryTime",
      "outputs": [
        {
          "internalType": "uint256",
          "name": "",
          "type": "uint256"
        }
      ],
      "stateMutability": "view",
      "type": "function"
    },
    {
      "inputs": [],
      "name": "getMaxCommissionRate",
      "outputs": [
        {
          "internalType": "uint256",
          "name": "",
          "type": "uint256"
        }
      ],
      "stateMutability": "view",
      "type": "function"
    },
    {
      "inputs": [],
      "name": "getMerkleRoot",
      "outputs": [
        {
          "internalType": "bytes32",
          "name": "",
          "type": "bytes32"
        }
      ],
      "stateMutability": "view",
      "type": "function"
    },
    {
      "inputs": [],
      "name": "getSigningWallet",
      "outputs": [
        {
          "internalType": "address",
          "name": "",
          "type": "address"
        }
      ],
      "stateMutability": "view",
      "type": "function"
    },
    {
      "inputs": [
        {
          "internalType": "address",
          "name": "who",
          "type": "address"
        }
      ],
      "name": "isMetaTransactionProcessor",
      "outputs": [
        {
          "internalType": "bool",
          "name": "",
          "type": "bool"
        }
      ],
      "stateMutability": "view",
      "type": "function"
    },
    {
      "inputs": [
        {
          "internalType": "bytes",
          "name": "signature",
          "type": "bytes"
        },
        {
          "internalType": "address",
          "name": "referrer",
          "type": "address"
        },
        {
          "internalType": "address",
          "name": "referee",
          "type": "address"
        },
        {
          "internalType": "uint256",
          "name": "expiryTime",
          "type": "uint256"
        },
        {
          "internalType": "uint256",
          "name": "commissionRate",
          "type": "uint256"
        }
      ],
      "name": "isReferralValid",
      "outputs": [
        {
          "internalType": "bool",
          "name": "",
          "type": "bool"
        }
      ],
      "stateMutability": "view",
      "type": "function"
    },
    {
      "inputs": [
        {
          "internalType": "address",
          "name": "",
          "type": "address"
        },
        {
          "internalType": "address",
          "name": "",
          "type": "address"
        },
        {
          "internalType": "uint256[]",
          "name": "",
          "type": "uint256[]"
        },
        {
          "internalType": "uint256[]",
          "name": "",
          "type": "uint256[]"
        },
        {
          "internalType": "bytes",
          "name": "",
          "type": "bytes"
        }
      ],
      "name": "onERC1155BatchReceived",
      "outputs": [
        {
          "internalType": "bytes4",
          "name": "",
          "type": "bytes4"
        }
      ],
      "stateMutability": "pure",
      "type": "function"
    },
    {
      "inputs": [
        {
          "internalType": "address",
          "name": "",
          "type": "address"
        },
        {
          "internalType": "address",
          "name": "",
          "type": "address"
        },
        {
          "internalType": "uint256",
          "name": "",
          "type": "uint256"
        },
        {
          "internalType": "uint256",
          "name": "",
          "type": "uint256"
        },
        {
          "internalType": "bytes",
          "name": "",
          "type": "bytes"
        }
      ],
      "name": "onERC1155Received",
      "outputs": [
        {
          "internalType": "bytes4",
          "name": "",
          "type": "bytes4"
        }
      ],
      "stateMutability": "pure",
      "type": "function"
    },
    {
      "inputs": [
        {
          "internalType": "address",
          "name": "metaTransactionProcessor",
          "type": "address"
        },
        {
          "internalType": "bool",
          "name": "enabled",
          "type": "bool"
        }
      ],
      "name": "setMetaTransactionProcessor",
      "outputs": [],
      "stateMutability": "nonpayable",
      "type": "function"
    },
    {
      "inputs": [
        {
          "internalType": "address payable",
          "name": "newWallet",
          "type": "address"
        }
      ],
      "name": "setReceivingWallet",
      "outputs": [],
      "stateMutability": "nonpayable",
      "type": "function"
    },
    {
      "inputs": [
        {
          "internalType": "uint256",
          "name": "newMaxCommissionRate",
          "type": "uint256"
        }
      ],
      "name": "updateMaxCommissionRate",
      "outputs": [],
      "stateMutability": "nonpayable",
      "type": "function"
    },
    {
      "inputs": [
        {
          "internalType": "address",
          "name": "newSigningWallet",
          "type": "address"
        }
      ],
      "name": "updateSigningWallet",
      "outputs": [],
      "stateMutability": "nonpayable",
      "type": "function"
    },
    {
      "inputs": [
        {
          "internalType": "address",
          "name": "to",
          "type": "address"
        },
        {
          "internalType": "uint256[]",
          "name": "assetIds",
          "type": "uint256[]"
        },
        {
          "internalType": "uint256[]",
          "name": "values",
          "type": "uint256[]"
        }
      ],
      "name": "withdrawAssets",
      "outputs": [],
      "stateMutability": "nonpayable",
      "type": "function"
    }
  ],
  "transactionHash": "0x90d925b27a031f1939175fd4dc52819e649bd52b7fffbdabd8fd4f85fcabcc92",
  "args": [
    "0x525129b95bA89B9800e47ef3dc7d23fBAd27b1a3",
    "0x592daadC9eA7F56A81De1FD27A723Bd407709c46",
    "0x592daadC9eA7F56A81De1FD27A723Bd407709c46",
    "0x49c4D4C94829B9c44052C5f5Cb164Fc612181165",
    "0xa5Eb9C9Eb4F4c35B9Be8cFaAA7909F9ebe6Cb609",
    "0x60a187cccb38407cc8e7b32ccdc2fbb37e18a9d927ba5439c5e0e49fa4758581",
    2009188800,
    "0xB7060D3FeCAC3AE1F0A0AA416E3e8E472257950e",
    2000,
    "0x0000000000000000000000000000000000000000",
    "0xB766Af2EfCB61bd5a261E007D8866f005E305D5d",
    "0xAc3ff31f526Af7f386ea43649e3fa67e329AeF93",
    "0x1d3CE3489a064aEFc9928fe08F9d2Dd968F5c969"
  ],
  "numDeployments": 1,
  "linkedData": [
    {
      "x": 9,
      "y": 288,
      "size": 1,
      "price": "1011000000000000000000",
      "reserved": "",
      "salt": "0x200565f4c43f00d7a1e2e021f32862ffa7284cfa003ddc4246f27e6ac50fc975",
      "assetIds": []
    },
    {
      "x": 9,
      "y": 289,
      "size": 1,
      "price": "1011000000000000000000",
      "reserved": "",
      "salt": "0x46c35d2180db8928c921e297c1b437b02ed583acfdd980c563a08ab192d588d1",
      "assetIds": []
    },
    {
      "x": 9,
      "y": 290,
      "size": 1,
      "price": "1011000000000000000000",
      "reserved": "",
      "salt": "0x00c3dbe508ab4c7cd34e6dbf688f16eda52bb5843c3f9752aa914cfe06cee428",
      "assetIds": []
    },
    {
      "x": 9,
      "y": 291,
      "size": 1,
      "price": "1011000000000000000000",
      "reserved": "",
      "salt": "0x6e45f0530acdc38b0c204193d076e4535e837aae030c98230fc42ac61d2e0f08",
      "assetIds": []
    },
    {
      "x": 9,
      "y": 292,
      "size": 1,
      "price": "1011000000000000000000",
      "reserved": "",
      "salt": "0xf8031c8a9b7409e120b1050d916123d76529891ee183381b914b17431550bb48",
      "assetIds": []
    },
    {
      "x": 9,
      "y": 293,
      "size": 1,
      "price": "1011000000000000000000",
      "reserved": "",
      "salt": "0x36f0266a0583e78228536e6e761e314b531a588b5045ecc697fa1f742fb9673d",
      "assetIds": []
    },
    {
      "x": 9,
      "y": 294,
      "size": 1,
      "price": "1011000000000000000000",
      "reserved": "",
      "salt": "0x9fe29af0d51852b7a84cdacdae31866b277e46aba66d61e0589a32b39e0f292e",
      "assetIds": []
    },
    {
      "x": 9,
      "y": 295,
      "size": 1,
      "price": "1011000000000000000000",
      "reserved": "",
      "salt": "0x1044ef7b05f6156d17b8c49fdf06675767f8681705fb4535b3578d2953d2a1ed",
      "assetIds": []
    },
    {
      "x": 9,
      "y": 296,
      "size": 1,
      "price": "1011000000000000000000",
      "reserved": "",
      "salt": "0x318bf3d664ecb7b3feca6a41b817a4e0bc71471cd179199e26fb122ff1e573fe",
      "assetIds": []
    },
    {
      "x": 9,
      "y": 300,
      "size": 1,
      "price": "1011000000000000000000",
      "reserved": "",
      "salt": "0xb6faedcb2cf057ee3eab8eb8a2bd0ddaf2ff5db4babce76b9e6bd178be23ebd4",
      "assetIds": []
    },
    {
      "x": 9,
      "y": 301,
      "size": 1,
      "price": "1011000000000000000000",
      "reserved": "",
      "salt": "0xe791a69ead58bdef12846060126baf1ebfd810ba2a593be19680587140938ddc",
      "assetIds": []
    },
    {
      "x": 9,
      "y": 302,
      "size": 1,
      "price": "1011000000000000000000",
      "reserved": "",
      "salt": "0x85cb0da611874b7c5e9a8e9de03f215cedd31bc7cbaece441878aed441a32f53",
      "assetIds": []
    },
    {
      "x": 9,
      "y": 303,
      "size": 1,
      "price": "1011000000000000000000",
      "reserved": "0x7a9fe22691c811ea339d9b73150e6911a5343dca",
      "salt": "0xc4ab6d9cc1c447c73d05f3261714c8559de4b52732983ae239ff3e9863bd8cee",
      "assetIds": []
    },
    {
      "x": 9,
      "y": 304,
      "size": 1,
      "price": "1011000000000000000000",
      "reserved": "",
      "salt": "0x00073eb5c655b37f6a2f03d939e1f09c59560fccb601207bd91efcbd0c71d283",
      "assetIds": []
    },
    {
      "x": 9,
      "y": 305,
      "size": 1,
      "price": "1011000000000000000000",
      "reserved": "0x7a9fe22691c811ea339d9b73150e6911a5343dca",
      "salt": "0x5d938599573e1fd4b1358b58fd0e41af9f3f7c1acd809e5529615e33fc212e71",
      "assetIds": []
    },
    {
      "x": 9,
      "y": 306,
      "size": 1,
      "price": "1011000000000000000000",
      "reserved": "",
      "salt": "0xf134aa3592e435c979f6a0b1ee5bd7f9e1ac790cdedb66dcbe4563a109200aea",
      "assetIds": []
    },
    {
      "x": 9,
      "y": 307,
      "size": 1,
      "price": "1011000000000000000000",
      "reserved": "",
      "salt": "0xc62accf03eb2bc3428fff4edfc49966d926165497669132fbcdce01be1c77615",
      "assetIds": []
    },
    {
      "x": 9,
      "y": 308,
      "size": 1,
      "price": "1011000000000000000000",
      "reserved": "",
      "salt": "0x976c5fb7a2cb6022415c839b3b4fa4ffa85429e61027457c4ea031d7efdb8aef",
      "assetIds": []
    },
    {
      "x": 9,
      "y": 309,
      "size": 1,
      "price": "1011000000000000000000",
      "reserved": "",
      "salt": "0x8baef35d4060b5f522212c39d7e099ebc3ecec08e68462b949523c4d46ffba15",
      "assetIds": []
    },
    {
      "x": 9,
      "y": 310,
      "size": 1,
      "price": "1011000000000000000000",
      "reserved": "",
      "salt": "0x1efc84adcdf3a26e9454a2865718ce4a6f823879e6d01282f26baeac1f971628",
      "assetIds": []
    },
    {
      "x": 9,
      "y": 311,
      "size": 1,
      "price": "1011000000000000000000",
      "reserved": "",
      "salt": "0xf0cc1d6ed48647db9903f2fe0426aeedb02c719627ba86ed67c9b68468642955",
      "assetIds": []
    },
    {
      "x": 9,
      "y": 312,
      "size": 1,
      "price": "1011000000000000000000",
      "reserved": "",
      "salt": "0xf2b17fefa0a7579c2dfeb99107d617695f7cab82d023bbefe9d2da4d2c55c552",
      "assetIds": []
    },
    {
      "x": 9,
      "y": 313,
      "size": 1,
      "price": "1011000000000000000000",
      "reserved": "",
      "salt": "0x7bf617db613afa5f0c57de215541ecf30c7c5f9fbf368a64ccb522d5b3cc4637",
      "assetIds": []
    },
    {
      "x": 9,
      "y": 314,
      "size": 1,
      "price": "1011000000000000000000",
      "reserved": "",
      "salt": "0xde702a2af52c2182fd8bf76e39b45a4fd0714335c3378d4834d798c50273380e",
      "assetIds": []
    },
    {
      "x": 10,
      "y": 288,
      "size": 1,
      "price": "1011000000000000000000",
      "reserved": "",
      "salt": "0x511cb0a66e04c99f0d392e8b5a75402e03f56f94439cf51805625c91f3f46e13",
      "assetIds": []
    },
    {
      "x": 10,
      "y": 289,
      "size": 1,
      "price": "1011000000000000000000",
      "reserved": "0x7a9fe22691c811ea339d9b73150e6911a5343dca",
      "salt": "0xff3f1c8d5cc13f415c1fb76edf4b6372dd2cfd4a432ecf61f6c3480a9411b67b",
      "assetIds": []
    },
    {
      "x": 10,
      "y": 290,
      "size": 1,
      "price": "1011000000000000000000",
      "reserved": "",
      "salt": "0x7c408eea4d153873353d29d26d79bdb8cab42703e73d802aa094d92214f2ba1f",
      "assetIds": []
    },
    {
      "x": 10,
      "y": 291,
      "size": 1,
      "price": "1011000000000000000000",
      "reserved": "0x7a9fe22691c811ea339d9b73150e6911a5343dca",
      "salt": "0x4b2cf9e39e1dd18f9133b90f99344b6030a72c69e4b39133d6101485118881ce",
      "assetIds": []
    },
    {
      "x": 10,
      "y": 292,
      "size": 1,
      "price": "1011000000000000000000",
      "reserved": "",
      "salt": "0x2bfdbf0a5915a9aa0ce0978b45dbbaea3ac96354e1d4dd502f734151979157d9",
      "assetIds": []
    },
    {
      "x": 10,
      "y": 293,
      "size": 1,
      "price": "1011000000000000000000",
      "reserved": "",
      "salt": "0xcfc0a5e38f8d4f50c4fd65ac41b76868d63f134231ebfbe4efe105aa27f7ec19",
      "assetIds": []
    },
    {
      "x": 10,
      "y": 294,
      "size": 1,
      "price": "1011000000000000000000",
      "reserved": "",
      "salt": "0x81940778e2988df791d025f90eab103431679d76f340b932f2ad676769779336",
      "assetIds": []
    },
    {
      "x": 10,
      "y": 295,
      "size": 1,
      "price": "1011000000000000000000",
      "reserved": "",
      "salt": "0xe36897c1b940e9df9fd1122ae650b4140c5695c3cbb8c3bc8806bbee7b34403a",
      "assetIds": []
    },
    {
      "x": 10,
      "y": 296,
      "size": 1,
      "price": "1011000000000000000000",
      "reserved": "",
      "salt": "0xd5dcd2a89021c09d773188cbaa08e7d228e332dbfff5ca9b37ed4e5280a520d0",
      "assetIds": []
    },
    {
      "x": 10,
      "y": 300,
      "size": 1,
      "price": "1011000000000000000000",
      "reserved": "",
      "salt": "0xdca3d35d3f63480ab0974c1fccb0b7cc4c0e2d30fb407efe0bee44d64d8846be",
      "assetIds": []
    },
    {
      "x": 10,
      "y": 301,
      "size": 1,
      "price": "1011000000000000000000",
      "reserved": "",
      "salt": "0x476c7369d0b310e0282372f5a0c4a712ffb9be01d1d0e3756185fd294a9d10b9",
      "assetIds": []
    },
    {
      "x": 10,
      "y": 302,
      "size": 1,
      "price": "1011000000000000000000",
      "reserved": "",
      "salt": "0xb023a66357a09179c9f442a67b93dd1269d76e50b4d2fd7e4d9ef25a606328be",
      "assetIds": []
    },
    {
      "x": 10,
      "y": 303,
      "size": 1,
      "price": "1011000000000000000000",
      "reserved": "",
      "salt": "0x963c1fc3ac24c6945401c4a301adeca62767c3a9325f3767aae61598e35e99e2",
      "assetIds": []
    },
    {
      "x": 10,
      "y": 304,
      "size": 1,
      "price": "1011000000000000000000",
      "reserved": "0x7a9fe22691c811ea339d9b73150e6911a5343dca",
      "salt": "0x638276f75f746fd38fa642f9d2813718225e45fd3ca82207bb5a771ad1183189",
      "assetIds": []
    },
    {
      "x": 10,
      "y": 305,
      "size": 1,
      "price": "1011000000000000000000",
      "reserved": "",
      "salt": "0x147e455dd31963ee2cfeb5ee80e25d638c30ea8afec906d85603a9806dd16bff",
      "assetIds": []
    },
    {
      "x": 10,
      "y": 306,
      "size": 1,
      "price": "1011000000000000000000",
      "reserved": "",
      "salt": "0x10afb1061012c06c2cc3cdba2a61b79f517fdf0ce7aea342628a5f9a0a14ae58",
      "assetIds": []
    },
    {
      "x": 10,
      "y": 307,
      "size": 1,
      "price": "1011000000000000000000",
      "reserved": "",
      "salt": "0x5c360aaf981998d6b2d8c2dccd83526633b5c9a1ccbe1c60e0423928d19f1bb3",
      "assetIds": []
    },
    {
      "x": 10,
      "y": 308,
      "size": 1,
      "price": "1011000000000000000000",
      "reserved": "",
      "salt": "0x4889f48d51a94f7c133bfec9b8fac7c0826ad401e4d2d7fdcbf810f0c2f5f129",
      "assetIds": []
    },
    {
      "x": 10,
      "y": 309,
      "size": 1,
      "price": "1011000000000000000000",
      "reserved": "",
      "salt": "0x447e04c30624bead4a1d8943b5deb6830dda98fc6c66526ac5c071b8b9449342",
      "assetIds": []
    },
    {
      "x": 10,
      "y": 310,
      "size": 1,
      "price": "1011000000000000000000",
      "reserved": "",
      "salt": "0x6c8b627541bd8c2eea6705863707a5b3de56b86cabf8e3cd45b5e3370f781d2d",
      "assetIds": []
    },
    {
      "x": 10,
      "y": 311,
      "size": 1,
      "price": "1011000000000000000000",
      "reserved": "",
      "salt": "0xe82026ed6f9d5189b3fc15f05ac3093f901dfb7240e0c684af948fef0a2b1435",
      "assetIds": []
    },
    {
      "x": 10,
      "y": 312,
      "size": 1,
      "price": "1011000000000000000000",
      "reserved": "0x7a9fe22691c811ea339d9b73150e6911a5343dca",
      "salt": "0xec195fa372bafcb80ebed2e21a85ac5eb140ecb6f01fcc7d9a5c478ad45b9c9e",
      "assetIds": []
    },
    {
      "x": 10,
      "y": 313,
      "size": 1,
      "price": "1011000000000000000000",
      "reserved": "",
      "salt": "0xf3ad271cc59220647c180994302611fe65986c17e08e20dfd1e7e8f115f657e0",
      "assetIds": []
    },
    {
      "x": 10,
      "y": 314,
      "size": 1,
      "price": "1011000000000000000000",
      "reserved": "",
      "salt": "0x83042062506af0770d6401d7698fe6095f0af0002d96f2eee532e28f8af56e2d",
      "assetIds": []
    },
    {
      "x": 11,
      "y": 288,
      "size": 1,
      "price": "1011000000000000000000",
      "reserved": "",
      "salt": "0x7b26f167931e7e4a51d5b3b945858a71d34ce1b309b2a570f5d80012c4bd43cf",
      "assetIds": []
    },
    {
      "x": 11,
      "y": 289,
      "size": 1,
      "price": "1011000000000000000000",
      "reserved": "",
      "salt": "0x4511a9b0133a11111f84fc7891000162904cc29f9dd0c15b4c28c8385544325c",
      "assetIds": []
    },
    {
      "x": 11,
      "y": 290,
      "size": 1,
      "price": "1011000000000000000000",
      "reserved": "",
      "salt": "0x347bbbaeeed382d8faa74a468853233238ca4c1c0a11a5b2bd3f08fa6b3d33a3",
      "assetIds": []
    },
    {
      "x": 11,
      "y": 291,
      "size": 1,
      "price": "1011000000000000000000",
      "reserved": "",
      "salt": "0xfa3a2c912e4cb9516cde22881963d820b677b7be88223e368fc0dd85a67f2727",
      "assetIds": []
    },
    {
      "x": 11,
      "y": 292,
      "size": 1,
      "price": "1011000000000000000000",
      "reserved": "",
      "salt": "0xaac7a899f4d13d814eed5ffb447fc86b8e98f46021975a68fecba58e10f986ee",
      "assetIds": []
    },
    {
      "x": 11,
      "y": 293,
      "size": 1,
      "price": "1011000000000000000000",
      "reserved": "",
      "salt": "0x789d8c95f00122117ded6d8bc21059d23b47afddfa5a76d4569cc4439c187b6b",
      "assetIds": []
    },
    {
      "x": 11,
      "y": 294,
      "size": 1,
      "price": "4683000000000000000000",
      "reserved": "",
      "salt": "0x4a791ff1838268359ccdf02be4338eda26647fe9c72e20de7e7af2bf70cb725c",
      "assetIds": []
    },
    {
      "x": 11,
      "y": 295,
      "size": 1,
      "price": "4683000000000000000000",
      "reserved": "",
      "salt": "0xd8904a4fe62e7f5ed50c581a94ae6ddecdea18db19aefffcc973bce0a74626e3",
      "assetIds": []
    },
    {
      "x": 11,
      "y": 296,
      "size": 1,
      "price": "4683000000000000000000",
      "reserved": "",
      "salt": "0x8bd17b12c07c61f46ba1bb2b407aaa6e05885612be540b3d2bacecaf6f8fba96",
      "assetIds": []
    },
    {
      "x": 11,
      "y": 300,
      "size": 1,
      "price": "1011000000000000000000",
      "reserved": "",
      "salt": "0x03e6f7f108f45725566cf0b1c4d88924d30cc1aa517bc83dbc2a6b5c9562d6a0",
      "assetIds": []
    },
    {
      "x": 11,
      "y": 301,
      "size": 1,
      "price": "1011000000000000000000",
      "reserved": "",
      "salt": "0xc550d43d5b7c839c15d776ea1f579be2741ca4e442c07e54b0b43f4d2e00e052",
      "assetIds": []
    },
    {
      "x": 11,
      "y": 302,
      "size": 1,
      "price": "1011000000000000000000",
      "reserved": "",
      "salt": "0x3de3ee0fb10a48437537c99af2151b0b229afa13e254ab9ca7876aca8a68f5e1",
      "assetIds": []
    },
    {
      "x": 11,
      "y": 303,
      "size": 1,
      "price": "1011000000000000000000",
      "reserved": "0x7a9fe22691c811ea339d9b73150e6911a5343dca",
      "salt": "0xaceaba7495b76f9483454037c9d9cd8f1d22d3f08ae6b2759d0bfa3885f968d1",
      "assetIds": []
    },
    {
      "x": 11,
      "y": 304,
      "size": 1,
      "price": "1011000000000000000000",
      "reserved": "",
      "salt": "0xf31117469d268f8db0f46ea95ea86aaa3404f68f53e83d1d9a44dc4d100caa3b",
      "assetIds": []
    },
    {
      "x": 11,
      "y": 305,
      "size": 1,
      "price": "1011000000000000000000",
      "reserved": "0x7a9fe22691c811ea339d9b73150e6911a5343dca",
      "salt": "0xb7a9893b0aabec2f05407aa3d19709251d7ced2768e621e227281185f8132524",
      "assetIds": []
    },
    {
      "x": 11,
      "y": 306,
      "size": 1,
      "price": "1011000000000000000000",
      "reserved": "",
      "salt": "0x3bde7014e999a81d211c749bd61b5c98386eb48d6642f6d451167a6e1ff076c7",
      "assetIds": []
    },
    {
      "x": 11,
      "y": 307,
      "size": 1,
      "price": "1011000000000000000000",
      "reserved": "",
      "salt": "0xabaf73270d2ac771330df52278f18aeef0c308db5323d12cbd025c5371b3bf22",
      "assetIds": []
    },
    {
      "x": 11,
      "y": 308,
      "size": 1,
      "price": "1011000000000000000000",
      "reserved": "",
      "salt": "0x4424e2d01975c0c7f4edb5eaec49b4ecd86ac3ed09f49f4701cf4fc543a62423",
      "assetIds": []
    },
    {
      "x": 11,
      "y": 309,
      "size": 1,
      "price": "1011000000000000000000",
      "reserved": "",
      "salt": "0x5de3af5b2b5aa74937374f9f0733154e417219f2f7d4d24cc56b89ec323da0fc",
      "assetIds": []
    },
    {
      "x": 11,
      "y": 310,
      "size": 1,
      "price": "1011000000000000000000",
      "reserved": "",
      "salt": "0x82211d68efa6bfa496aa1e757a2220ce4ac059f26ea772444be0e2bc41046465",
      "assetIds": []
    },
    {
      "x": 11,
      "y": 311,
      "size": 1,
      "price": "1011000000000000000000",
      "reserved": "0x7a9fe22691c811ea339d9b73150e6911a5343dca",
      "salt": "0xdd03f49d38ebaaa8c8dfe3b2e4f5b9439ed0efb0097b68486f8814b4f51184d9",
      "assetIds": []
    },
    {
      "x": 11,
      "y": 312,
      "size": 1,
      "price": "1011000000000000000000",
      "reserved": "0x7a9fe22691c811ea339d9b73150e6911a5343dca",
      "salt": "0x70d0cb801f9584b1008941957df48e66243bc6d43fb3079f4c8fcaa7ac89da6a",
      "assetIds": []
    },
    {
      "x": 11,
      "y": 313,
      "size": 1,
      "price": "1011000000000000000000",
      "reserved": "",
      "salt": "0x58fed9cacbb30ee17da59f2aa5b8c751c3fc2cd8ea5e4371515470673d6edd80",
      "assetIds": []
    },
    {
      "x": 11,
      "y": 314,
      "size": 1,
      "price": "1011000000000000000000",
      "reserved": "",
      "salt": "0xb1af43d899a92736d7c767dc8e81c32340f6db92ce77172ffc771cfb95805293",
      "assetIds": []
    },
    {
      "x": 12,
      "y": 288,
      "size": 1,
      "price": "1011000000000000000000",
      "reserved": "",
      "salt": "0x91a08f7b1870b43e6628a0f41dbb5806b4749664a68d4b36685254da8395afa2",
      "assetIds": []
    },
    {
      "x": 12,
      "y": 289,
      "size": 1,
      "price": "1011000000000000000000",
      "reserved": "",
      "salt": "0xca285038f00da84236ab309333aef85ef2b6d5e785ea71bc5da66009803ea0a5",
      "assetIds": []
    },
    {
      "x": 12,
      "y": 290,
      "size": 1,
      "price": "1011000000000000000000",
      "reserved": "",
      "salt": "0x3480e88e072929da54e88d37b0c7fcb1e7b48690d01f6b8231472c0a1dbd1267",
      "assetIds": []
    },
    {
      "x": 12,
      "y": 297,
      "size": 1,
      "price": "4683000000000000000000",
      "reserved": "",
      "salt": "0xe88decd9d5e8cf44b3d2a1dc9f0fa3d2f1d09a64757b30ceb90dda8a8acb3949",
      "assetIds": []
    },
    {
      "x": 12,
      "y": 298,
      "size": 1,
      "price": "1011000000000000000000",
      "reserved": "",
      "salt": "0x205888f772743a7a183e1d8b4436d56011a5b9071d1c3f7b143505350c59ee46",
      "assetIds": []
    },
    {
      "x": 12,
      "y": 299,
      "size": 1,
      "price": "1011000000000000000000",
      "reserved": "",
      "salt": "0xa4b9bdebf44c0fad3baeffc5882bc1b38b3eb80d007665be41105c21ba2d4bdc",
      "assetIds": []
    },
    {
      "x": 12,
      "y": 303,
      "size": 1,
      "price": "1011000000000000000000",
      "reserved": "",
      "salt": "0x14456d5166b379ab386ea58ae38a65bf4f64dd37b321ca6994edc8faf45c9c8c",
      "assetIds": []
    },
    {
      "x": 12,
      "y": 304,
      "size": 1,
      "price": "1011000000000000000000",
      "reserved": "",
      "salt": "0x61d3505221e9fa87f6e6a6e3d9986f4ac976abb013776f0c2b7241e8a9be2000",
      "assetIds": []
    },
    {
      "x": 12,
      "y": 305,
      "size": 1,
      "price": "1011000000000000000000",
      "reserved": "",
      "salt": "0x5dabf4de4d96475214ac040c573bbc532316a07b62cf7fba76baaa38ee99b465",
      "assetIds": []
    },
    {
      "x": 12,
      "y": 309,
      "size": 1,
      "price": "1011000000000000000000",
      "reserved": "",
      "salt": "0xaeea6d99fb038b943a9ee3ac069c7223264331e077f8dd9b315cc292c5f58596",
      "assetIds": []
    },
    {
      "x": 12,
      "y": 310,
      "size": 1,
      "price": "1011000000000000000000",
      "reserved": "",
      "salt": "0x42cc0428c11d085b8098b5bf4c411937c2d60a08c50668653694798c96394701",
      "assetIds": []
    },
    {
      "x": 12,
      "y": 311,
      "size": 1,
      "price": "1011000000000000000000",
      "reserved": "",
      "salt": "0xbf23927f954325aabb4f56f641d1ff1d43e8bfe3556726d2ae5b0bbb99ec4950",
      "assetIds": []
    },
    {
      "x": 12,
      "y": 312,
      "size": 1,
      "price": "1011000000000000000000",
      "reserved": "0x7a9fe22691c811ea339d9b73150e6911a5343dca",
      "salt": "0x3156be1523c9d59efa48152c6f6976691fd44d295c0ad325ad00be1dfac79262",
      "assetIds": []
    },
    {
      "x": 12,
      "y": 313,
      "size": 1,
      "price": "1011000000000000000000",
      "reserved": "",
      "salt": "0x1ab8565b19b62886b14970840586a00cf1911d50542bc74e453a868ef30ad1bc",
      "assetIds": []
    },
    {
      "x": 12,
      "y": 314,
      "size": 1,
      "price": "1011000000000000000000",
      "reserved": "",
      "salt": "0x8d4c44bdb6717f979861f097e85f15fcdbafacca606be13e4fad4207f779790b",
      "assetIds": []
    },
    {
      "x": 13,
      "y": 288,
      "size": 1,
      "price": "1011000000000000000000",
      "reserved": "",
      "salt": "0x09edff1888bac2b835f7a89cd1fa0a90720ed3259c4095f9d08a3678293e048b",
      "assetIds": []
    },
    {
      "x": 13,
      "y": 289,
      "size": 1,
      "price": "1011000000000000000000",
      "reserved": "",
      "salt": "0xe3dfdf7d0383036a399a994ceb609f17996b5cae879e6717f5dd3be12c8cdd68",
      "assetIds": []
    },
    {
      "x": 13,
      "y": 290,
      "size": 1,
      "price": "1011000000000000000000",
      "reserved": "",
      "salt": "0x53e716fab4332f0038f97e1386955c1eebed9330e48a7095b398694e1b9a3eec",
      "assetIds": []
    },
    {
      "x": 13,
      "y": 297,
      "size": 1,
      "price": "1011000000000000000000",
      "reserved": "0x7a9fe22691c811ea339d9b73150e6911a5343dca",
      "salt": "0x589ca237db7cf5923aefd69d41ea3e8e71e0cbc75526bd8d3196516570605ef6",
      "assetIds": []
    },
    {
      "x": 13,
      "y": 298,
      "size": 1,
      "price": "1011000000000000000000",
      "reserved": "",
      "salt": "0xf8bee55584aae2ee64a4ef0b47170f30aa832a7b83a017b1c54315a17137e20f",
      "assetIds": []
    },
    {
      "x": 13,
      "y": 299,
      "size": 1,
      "price": "1011000000000000000000",
      "reserved": "",
      "salt": "0x1287ee6086139e56b70189f1117aed2af37a9d12b433a99c803126ed8807b477",
      "assetIds": []
    },
    {
      "x": 13,
      "y": 303,
      "size": 1,
      "price": "1011000000000000000000",
      "reserved": "",
      "salt": "0x8498616935cb473882d2a8797cf32cb49d494033bdf7734e324315c5c107ce76",
      "assetIds": []
    },
    {
      "x": 13,
      "y": 304,
      "size": 1,
      "price": "1011000000000000000000",
      "reserved": "0x7a9fe22691c811ea339d9b73150e6911a5343dca",
      "salt": "0x1e9bb19f92ac7f589d4e15ae9c538dfb14470591d8fd04e1e79c16e223a718a2",
      "assetIds": []
    },
    {
      "x": 13,
      "y": 305,
      "size": 1,
      "price": "1011000000000000000000",
      "reserved": "",
      "salt": "0xa02cc57ecc0598d7628a65530c978c297c6dfb553e4511c962051403897e82d0",
      "assetIds": []
    },
    {
      "x": 13,
      "y": 309,
      "size": 1,
      "price": "1011000000000000000000",
      "reserved": "",
      "salt": "0x4d3573702dc328a4ad62c1a879c3378b5ab43ae8e22bd1d6e7a84315193e159a",
      "assetIds": []
    },
    {
      "x": 13,
      "y": 310,
      "size": 1,
      "price": "1011000000000000000000",
      "reserved": "",
      "salt": "0x397eb624a237b6670645b8624a722422b283a46cf5e2aa74f8a8b3a4bf4e11ff",
      "assetIds": []
    },
    {
      "x": 13,
      "y": 311,
      "size": 1,
      "price": "1011000000000000000000",
      "reserved": "",
      "salt": "0x2f6b426fef04b00c927a03065cb10e20d45b90d58609577d7ce2b8ae881ca6be",
      "assetIds": []
    },
    {
      "x": 13,
      "y": 312,
      "size": 1,
      "price": "1011000000000000000000",
      "reserved": "",
      "salt": "0x43e0937726abb39fb4db76e1c3fb510e45dbc00b1b794300d2e98d903d1a9ec8",
      "assetIds": []
    },
    {
      "x": 13,
      "y": 313,
      "size": 1,
      "price": "1011000000000000000000",
      "reserved": "",
      "salt": "0xcae8291f2832b0726dff8a2cd831c8c50f7572420fa54674be9e6a3c910b03ea",
      "assetIds": []
    },
    {
      "x": 13,
      "y": 314,
      "size": 1,
      "price": "1011000000000000000000",
      "reserved": "",
      "salt": "0x942b5e02f9493a9a6616ca147de664691b55f1b9c2b74a69001ba407c4aa0e04",
      "assetIds": []
    },
    {
      "x": 14,
      "y": 288,
      "size": 1,
      "price": "1011000000000000000000",
      "reserved": "",
      "salt": "0xece94aea823e6b8f5ea73faef0ee8007304a6fb193d027d4cb78197eaea92255",
      "assetIds": []
    },
    {
      "x": 14,
      "y": 289,
      "size": 1,
      "price": "1011000000000000000000",
      "reserved": "",
      "salt": "0x68f07c529e8b0928417edfe093e53c9e805ac0285a3ee01d6402bafa4f127df8",
      "assetIds": []
    },
    {
      "x": 14,
      "y": 290,
      "size": 1,
      "price": "1011000000000000000000",
      "reserved": "",
      "salt": "0xa2457c3b933034b189adf02959e85023b7d83e2fcc4edcaa7900d70075525a37",
      "assetIds": []
    },
    {
      "x": 14,
      "y": 297,
      "size": 1,
      "price": "4683000000000000000000",
      "reserved": "",
      "salt": "0xfad96e1a2dfba3e18f836a4992f5a7662fc48002c898bce69e45078e3fb4ea80",
      "assetIds": []
    },
    {
      "x": 14,
      "y": 298,
      "size": 1,
      "price": "1011000000000000000000",
      "reserved": "",
      "salt": "0x448a59a44cb8dcd1da61d39328ad8c80a3ab0a3874161dd91c3d5eccb9d7b5d9",
      "assetIds": []
    },
    {
      "x": 14,
      "y": 299,
      "size": 1,
      "price": "1011000000000000000000",
      "reserved": "",
      "salt": "0xb70940008847ff731bb770ec1a3ec51fd98fa0e59b3c38c181ed1e1ac93dd758",
      "assetIds": []
    },
    {
      "x": 14,
      "y": 303,
      "size": 1,
      "price": "1011000000000000000000",
      "reserved": "",
      "salt": "0xaed61b2fd009695cb0879d353274825aa4015a69ac7019da526f53fd2f19cf3f",
      "assetIds": []
    },
    {
      "x": 14,
      "y": 304,
      "size": 1,
      "price": "1011000000000000000000",
      "reserved": "",
      "salt": "0x0c437c1a70c9eb4aec1399535801c55fe8291efb40398fbba8742c659d37cb26",
      "assetIds": []
    },
    {
      "x": 14,
      "y": 305,
      "size": 1,
      "price": "1011000000000000000000",
      "reserved": "",
      "salt": "0xfcde4862d12926111651211c77d1b537861da8052aaaf0e95ba526cc08d34198",
      "assetIds": []
    },
    {
      "x": 14,
      "y": 309,
      "size": 1,
      "price": "1011000000000000000000",
      "reserved": "",
      "salt": "0xfb91233ad43eaa263b51f058c1ebdcd26c001937eb945dcb39e805ebb1f47137",
      "assetIds": []
    },
    {
      "x": 14,
      "y": 310,
      "size": 1,
      "price": "1011000000000000000000",
      "reserved": "",
      "salt": "0xa60fcdc21428fab25199b4be05add06db2d7d1458f2dd110931dacad87bc1ecb",
      "assetIds": []
    },
    {
      "x": 14,
      "y": 311,
      "size": 1,
      "price": "1011000000000000000000",
      "reserved": "",
      "salt": "0xd71e2cee13b8ff43a5ad0f7222b72acfdbc8364aeec43a5779bf4f6064766799",
      "assetIds": []
    },
    {
      "x": 14,
      "y": 312,
      "size": 1,
      "price": "1011000000000000000000",
      "reserved": "",
      "salt": "0x621eb72468f9266f36c6e0f47cd72a5862d40324b16b5f27f46ddf8401eb7cae",
      "assetIds": []
    },
    {
      "x": 14,
      "y": 313,
      "size": 1,
      "price": "1011000000000000000000",
      "reserved": "",
      "salt": "0x8addfddd39b8a23b3ce42f113ef38647f2320f32b009d741a912e163ee5ff7f1",
      "assetIds": []
    },
    {
      "x": 14,
      "y": 314,
      "size": 1,
      "price": "1011000000000000000000",
      "reserved": "",
      "salt": "0x3394a46b2a911f060a4e1ed4d31c3f5a983c82a89732ca59b731e0b1c3f79845",
      "assetIds": []
    },
    {
      "x": 15,
      "y": 288,
      "size": 1,
      "price": "1011000000000000000000",
      "reserved": "",
      "salt": "0xdc41884d0e8410e75f2c5df2887b8b932ee88ec7d9370f0a550581d6c242213c",
      "assetIds": []
    },
    {
      "x": 15,
      "y": 289,
      "size": 1,
      "price": "1011000000000000000000",
      "reserved": "",
      "salt": "0xc905d6bcd615b9289e2503f767657564798d16b119e03a64e0a3beef176f7b88",
      "assetIds": []
    },
    {
      "x": 15,
      "y": 290,
      "size": 1,
      "price": "1011000000000000000000",
      "reserved": "",
      "salt": "0xcdc93fe58eb845947e1001a16259d8fe0de4f2ad65c30f267b6a299237e90440",
      "assetIds": []
    },
    {
      "x": 15,
      "y": 291,
      "size": 1,
      "price": "1011000000000000000000",
      "reserved": "",
      "salt": "0x7153a3f2d2c7533e78770add1a1ef817239085d4d25fedbd6b57c5bc3635fb2c",
      "assetIds": []
    },
    {
      "x": 15,
      "y": 292,
      "size": 1,
      "price": "1011000000000000000000",
      "reserved": "",
      "salt": "0xb9d80f26ba2fe4cd79413f4ac0eae6aa58942d13623cfa94ec142e583a21bf84",
      "assetIds": []
    },
    {
      "x": 15,
      "y": 293,
      "size": 1,
      "price": "1011000000000000000000",
      "reserved": "",
      "salt": "0x4f25e9174abf2670f93aa851ea35ed897178f90e39350546015ed56972c00b1d",
      "assetIds": []
    },
    {
      "x": 15,
      "y": 294,
      "size": 1,
      "price": "4683000000000000000000",
      "reserved": "",
      "salt": "0xe22be5d9f5bd34e789f01f84764fd070e68d0054038ccc58a6b6fa3385d67cdb",
      "assetIds": []
    },
    {
      "x": 15,
      "y": 295,
      "size": 1,
      "price": "1011000000000000000000",
      "reserved": "",
      "salt": "0x6070f6cb27fc4b80290f4443d8c94604f799340b12dc2d42f10bac3757703e51",
      "assetIds": []
    },
    {
      "x": 15,
      "y": 296,
      "size": 1,
      "price": "4683000000000000000000",
      "reserved": "",
      "salt": "0xc2d10bac2708b3f6ad53c3e9b47aecec9d1fe168340dcc99bced984028361dd1",
      "assetIds": []
    },
    {
      "x": 15,
      "y": 297,
      "size": 1,
      "price": "1011000000000000000000",
      "reserved": "",
      "salt": "0x674096059ff8260184b2a26046b500977ee768861696e94b7d23dce2de44bb57",
      "assetIds": []
    },
    {
      "x": 15,
      "y": 298,
      "size": 1,
      "price": "1011000000000000000000",
      "reserved": "",
      "salt": "0xbb9e8e5b98f482968765adec567507f42d7d280ba5d938f9b19e2cc97adbde73",
      "assetIds": []
    },
    {
      "x": 15,
      "y": 299,
      "size": 1,
      "price": "1011000000000000000000",
      "reserved": "",
      "salt": "0x07c31363c20f03493c72419c5b413dc17f1aaa243affaae7d03caa708a72a1d4",
      "assetIds": []
    },
    {
      "x": 15,
      "y": 300,
      "size": 1,
      "price": "1011000000000000000000",
      "reserved": "",
      "salt": "0xafd66ad257f904adc3462fa66c44cb3a365deba9b646920a1360eee5d6e1890d",
      "assetIds": []
    },
    {
      "x": 15,
      "y": 301,
      "size": 1,
      "price": "1011000000000000000000",
      "reserved": "",
      "salt": "0xe5232ced6fd206a6f2213daeb57b3cf58145cac5b46b0ab7f7c4e19213ea7e74",
      "assetIds": []
    },
    {
      "x": 15,
      "y": 302,
      "size": 1,
      "price": "1011000000000000000000",
      "reserved": "",
      "salt": "0xe64ca4db7a64940474c53443d5fb388a2e6481147e2ec1175f89f7518c0ee8a1",
      "assetIds": []
    },
    {
      "x": 15,
      "y": 303,
      "size": 1,
      "price": "1011000000000000000000",
      "reserved": "",
      "salt": "0xa54b6dee0f39fa354830c26cb3f7e6ee00bd87645710ff65977d717d9205f803",
      "assetIds": []
    },
    {
      "x": 15,
      "y": 304,
      "size": 1,
      "price": "1011000000000000000000",
      "reserved": "",
      "salt": "0x6d62be51c28ffc584a1e32368f9e0b9ede64d5644e452e649c24257dab22a039",
      "assetIds": []
    },
    {
      "x": 15,
      "y": 305,
      "size": 1,
      "price": "1011000000000000000000",
      "reserved": "",
      "salt": "0xe034f11f0c5e0f532db93b6bebaae55d618fe8d42edfe93dce866ddade568dd5",
      "assetIds": []
    },
    {
      "x": 15,
      "y": 306,
      "size": 1,
      "price": "4683000000000000000000",
      "reserved": "",
      "salt": "0xd374ed17f985cb1549e582578105b44c5993cb541816794088bfba3e89384171",
      "assetIds": []
    },
    {
      "x": 15,
      "y": 307,
      "size": 1,
      "price": "1011000000000000000000",
      "reserved": "",
      "salt": "0x7227dbf9cc1f4c9caa3936e531a9c1ec1025465a6fc0245025875daec0d6a1db",
      "assetIds": []
    },
    {
      "x": 15,
      "y": 308,
      "size": 1,
      "price": "1011000000000000000000",
      "reserved": "",
      "salt": "0xca181881f92130a609c09a27df0662fca206dbf52e4f365ea07b66b7f541a77b",
      "assetIds": []
    },
    {
      "x": 15,
      "y": 312,
      "size": 1,
      "price": "1011000000000000000000",
      "reserved": "",
      "salt": "0x4934d12cb3c992586b1ad9983ad73b6153dc0f0b09fc4ab72890edc681d37228",
      "assetIds": []
    },
    {
      "x": 15,
      "y": 313,
      "size": 1,
      "price": "1011000000000000000000",
      "reserved": "",
      "salt": "0x009bb1ff3036f75e4bf52f87937b0bb7afa4c22ef403c2a59c522f9c99e48320",
      "assetIds": []
    },
    {
      "x": 15,
      "y": 314,
      "size": 1,
      "price": "1011000000000000000000",
      "reserved": "",
      "salt": "0xc3ca2b5b0443198db24d3196b6551e5ab15768fb7321b36dbcc98bd220e5ee08",
      "assetIds": []
    },
    {
      "x": 16,
      "y": 288,
      "size": 1,
      "price": "1011000000000000000000",
      "reserved": "",
      "salt": "0x318d2cfbb392d494b54fcdaf3e8919afcd3119b4caf1c5683d49bcdeeb2cc962",
      "assetIds": []
    },
    {
      "x": 16,
      "y": 289,
      "size": 1,
      "price": "1011000000000000000000",
      "reserved": "0x7a9fe22691c811ea339d9b73150e6911a5343dca",
      "salt": "0x3e2a2638c73f888b545622eb493ffb2b3839dabdabfcd91d4da1160f76540e8e",
      "assetIds": []
    },
    {
      "x": 16,
      "y": 290,
      "size": 1,
      "price": "1011000000000000000000",
      "reserved": "",
      "salt": "0xaa99621c2e32ffcc55d2e61d3edfcfd4be8c6b2da0060ffbf2c7848a2edba57b",
      "assetIds": []
    },
    {
      "x": 16,
      "y": 291,
      "size": 1,
      "price": "1011000000000000000000",
      "reserved": "",
      "salt": "0x29555a1594d7785800c8ac2568baa2f42e0e451e62cbef32f2222f61763f6962",
      "assetIds": []
    },
    {
      "x": 16,
      "y": 292,
      "size": 1,
      "price": "1011000000000000000000",
      "reserved": "",
      "salt": "0x593d583e780fc151ab1540622ad3b36f05ea6218253662f6860987b74fe3e50c",
      "assetIds": []
    },
    {
      "x": 16,
      "y": 293,
      "size": 1,
      "price": "1011000000000000000000",
      "reserved": "",
      "salt": "0x80ef8dedd10bdd0eed01058882cece4544f9dffb90409f53662076d1d4a9565c",
      "assetIds": []
    },
    {
      "x": 16,
      "y": 294,
      "size": 1,
      "price": "1011000000000000000000",
      "reserved": "",
      "salt": "0x5c5d9b120993e48880eee73dc20f741222ec2e408f2da05e2afca132197c605f",
      "assetIds": []
    },
    {
      "x": 16,
      "y": 295,
      "size": 1,
      "price": "1011000000000000000000",
      "reserved": "",
      "salt": "0x4e017cae71e6351d81924fb6e8996e2adfb162705bf9411ed82cdb467df46c99",
      "assetIds": []
    },
    {
      "x": 16,
      "y": 296,
      "size": 1,
      "price": "1011000000000000000000",
      "reserved": "",
      "salt": "0xc700b76e67898f69d825f507988155be89cff37dd8dd325b1488a0ad864e91f3",
      "assetIds": []
    },
    {
      "x": 16,
      "y": 297,
      "size": 1,
      "price": "1011000000000000000000",
      "reserved": "",
      "salt": "0x434c3cd9cba0223f228a321d435ecac879502e40727e5e165bcb746b2a8aa289",
      "assetIds": []
    },
    {
      "x": 16,
      "y": 298,
      "size": 1,
      "price": "1011000000000000000000",
      "reserved": "",
      "salt": "0x772c957c0b6582ca9be2c0a44bf3bed74ad554453a536f78a07ad25778a4b548",
      "assetIds": []
    },
    {
      "x": 16,
      "y": 299,
      "size": 1,
      "price": "1011000000000000000000",
      "reserved": "",
      "salt": "0xb38a9813cd134b041a882c07990a6aa69243a36a9a44dc7a06467dd57630b891",
      "assetIds": []
    },
    {
      "x": 16,
      "y": 300,
      "size": 1,
      "price": "1011000000000000000000",
      "reserved": "",
      "salt": "0xa0755af07470636d76028a635b479cc9d023bcb4cf90d6bfc52048aaf90846dc",
      "assetIds": []
    },
    {
      "x": 16,
      "y": 301,
      "size": 1,
      "price": "1011000000000000000000",
      "reserved": "",
      "salt": "0x672a2b6697db8885a9887cb98c1a463eec4dfcc8a1589986366ee606dffa928d",
      "assetIds": []
    },
    {
      "x": 16,
      "y": 302,
      "size": 1,
      "price": "1011000000000000000000",
      "reserved": "",
      "salt": "0x4e62d05b0cbf63dbf8952e03e3c0a3c2b38c8e242b9a902fae2635213a5c3a92",
      "assetIds": []
    },
    {
      "x": 16,
      "y": 303,
      "size": 1,
      "price": "1011000000000000000000",
      "reserved": "",
      "salt": "0xf3aa339f4afafca73dbc759b7963cf3b9219ce9a3a5ad1e765272964da5bd5d6",
      "assetIds": []
    },
    {
      "x": 16,
      "y": 304,
      "size": 1,
      "price": "1011000000000000000000",
      "reserved": "",
      "salt": "0x89ac9956c3edb36b3372af920848c0ee02f99a8e542d8e41ad327da79701759b",
      "assetIds": []
    },
    {
      "x": 16,
      "y": 305,
      "size": 1,
      "price": "4683000000000000000000",
      "reserved": "",
      "salt": "0xbfc0323461882b7206d291b80c666dc73b2d97c333be380d7ed8bfb20c1e27e4",
      "assetIds": []
    },
    {
      "x": 16,
      "y": 306,
      "size": 1,
      "price": "1011000000000000000000",
      "reserved": "0x7a9fe22691c811ea339d9b73150e6911a5343dca",
      "salt": "0x105f29b3ddac0b4df6f21219bd82a32529ef6a070948c1d0e1880d5a8b4656fb",
      "assetIds": []
    },
    {
      "x": 16,
      "y": 307,
      "size": 1,
      "price": "4683000000000000000000",
      "reserved": "",
      "salt": "0x4c0bf8e603f6074e6300b6fcfaa4b301d0ed87ceaa048682f5f6c58b91d79bbe",
      "assetIds": []
    },
    {
      "x": 16,
      "y": 308,
      "size": 1,
      "price": "1011000000000000000000",
      "reserved": "",
      "salt": "0xcc52ee0fe699fcdc2ab886f90e433bc2ae4242dd5673bccfcffaafe9cd30c962",
      "assetIds": []
    },
    {
      "x": 16,
      "y": 312,
      "size": 1,
      "price": "1011000000000000000000",
      "reserved": "",
      "salt": "0x42ae3915217f75aeaf71e97c1561b85ec8e94a7325a662f852f9b8f5d61406e5",
      "assetIds": []
    },
    {
      "x": 16,
      "y": 313,
      "size": 1,
      "price": "1011000000000000000000",
      "reserved": "",
      "salt": "0x1b0a7a0cf785681a6698b82e723ecb02eb0d378ba174771f9d61412937bea302",
      "assetIds": []
    },
    {
      "x": 16,
      "y": 314,
      "size": 1,
      "price": "1011000000000000000000",
      "reserved": "",
      "salt": "0xace316f9b67c9fcf35fbf6fe6f31081e529786d2d6ad78c632b3e6690e6ea561",
      "assetIds": []
    },
    {
      "x": 17,
      "y": 288,
      "size": 1,
      "price": "1011000000000000000000",
      "reserved": "",
      "salt": "0x25203e49fd2fd16b09f2986b681a60be247a66649493474a325db65b5cf45bbc",
      "assetIds": []
    },
    {
      "x": 17,
      "y": 289,
      "size": 1,
      "price": "1011000000000000000000",
      "reserved": "",
      "salt": "0xe752279ccdd3d1b1d1e5505d9bbbb45cb986c59a77a5bc8772b7b53e44e2d786",
      "assetIds": []
    },
    {
      "x": 17,
      "y": 290,
      "size": 1,
      "price": "1011000000000000000000",
      "reserved": "",
      "salt": "0x2286753a48fa596ae370cec7ff7d3e0c100b5d97d690f8f8a3f6a45e7c00105e",
      "assetIds": []
    },
    {
      "x": 17,
      "y": 291,
      "size": 1,
      "price": "1011000000000000000000",
      "reserved": "",
      "salt": "0xa6f13e917e5f8d1c47b9e6af5e357d331bd27225a638c0f9a6f9445192bcdbc8",
      "assetIds": []
    },
    {
      "x": 17,
      "y": 292,
      "size": 1,
      "price": "1011000000000000000000",
      "reserved": "0x7a9fe22691c811ea339d9b73150e6911a5343dca",
      "salt": "0x20004bd3f45c6c8a0b737cfbdc542eb13836c9ddde6c492f6bbceac8cd3bd0d7",
      "assetIds": []
    },
    {
      "x": 17,
      "y": 293,
      "size": 1,
      "price": "1011000000000000000000",
      "reserved": "",
      "salt": "0x4134ca96b3deadfc49ee5a7ac96cfb859ae419872295e8bde3786b671775fb62",
      "assetIds": []
    },
    {
      "x": 17,
      "y": 294,
      "size": 1,
      "price": "1011000000000000000000",
      "reserved": "",
      "salt": "0xe5483d0800435a52a6d4401aca8a7b1d204ef12f02167a2f238df6a9effb4971",
      "assetIds": []
    },
    {
      "x": 17,
      "y": 295,
      "size": 1,
      "price": "1011000000000000000000",
      "reserved": "0x7a9fe22691c811ea339d9b73150e6911a5343dca",
      "salt": "0x7d2b07d998192ac9ba68a1827776d47ed87d10d996d78fb6ffc6a54eb1c09bf8",
      "assetIds": []
    },
    {
      "x": 17,
      "y": 296,
      "size": 1,
      "price": "1011000000000000000000",
      "reserved": "",
      "salt": "0xb6c019e84d95a1dade6e6b5636a6de4881707f405ceb26c6e5c9cf2576a0d2f7",
      "assetIds": []
    },
    {
      "x": 17,
      "y": 297,
      "size": 1,
      "price": "1011000000000000000000",
      "reserved": "",
      "salt": "0x87ad0bd5b4939f93b9bb7e36e259b49608868384121c8a9a6e247afcd79978ad",
      "assetIds": []
    },
    {
      "x": 17,
      "y": 298,
      "size": 1,
      "price": "1011000000000000000000",
      "reserved": "",
      "salt": "0x33e580b33f0e34be167083d8f0e5b80d2ba5c1b031a5fd6439cd3fe793db0ed7",
      "assetIds": []
    },
    {
      "x": 17,
      "y": 299,
      "size": 1,
      "price": "1011000000000000000000",
      "reserved": "0x7a9fe22691c811ea339d9b73150e6911a5343dca",
      "salt": "0x7411ecf9eac2f3c8771b84cf2a82d5c5304bbfe9acbcf5eaf28a5f9390f0b002",
      "assetIds": []
    },
    {
      "x": 17,
      "y": 300,
      "size": 1,
      "price": "1011000000000000000000",
      "reserved": "",
      "salt": "0x002b827c1951612665305d16352adf7f9ffaf716c552f404f5a4426d60078b8c",
      "assetIds": []
    },
    {
      "x": 17,
      "y": 301,
      "size": 1,
      "price": "1011000000000000000000",
      "reserved": "",
      "salt": "0x7dedf29cb154e9bdc2079501300e52d7d824bbac0bf8508c7b1ee11d76f6a99e",
      "assetIds": []
    },
    {
      "x": 17,
      "y": 302,
      "size": 1,
      "price": "1011000000000000000000",
      "reserved": "",
      "salt": "0x296fa655dcce530991bf65a5221f8f28c40fb1fecb0215603cd08d6c11ce5441",
      "assetIds": []
    },
    {
      "x": 17,
      "y": 303,
      "size": 1,
      "price": "1011000000000000000000",
      "reserved": "",
      "salt": "0xa135fb8fe51f0f86a54656e9dfac84c33ba62ac29cb552b30bbf719efce78ff6",
      "assetIds": []
    },
    {
      "x": 17,
      "y": 304,
      "size": 1,
      "price": "4683000000000000000000",
      "reserved": "",
      "salt": "0x5bf3eadd44a295bdb8fd866158e55402799f67a7cffe1d7dcf168f977adcb914",
      "assetIds": []
    },
    {
      "x": 17,
      "y": 305,
      "size": 1,
      "price": "1011000000000000000000",
      "reserved": "",
      "salt": "0xcdb880f767442039a5a65fc6c63ec9c1522a738ba39bf85fbb9fc636e457cb24",
      "assetIds": []
    },
    {
      "x": 17,
      "y": 306,
      "size": 1,
      "price": "1011000000000000000000",
      "reserved": "",
      "salt": "0xabc7882aea48d524afdcafb162600cffe18717405fdcec9e2a913c11e2e39b20",
      "assetIds": []
    },
    {
      "x": 17,
      "y": 307,
      "size": 1,
      "price": "1011000000000000000000",
      "reserved": "",
      "salt": "0xc2b735600e905f2be3fef1217eee3835e0f6d900e1aa29b6a4a116c366379ca4",
      "assetIds": []
    },
    {
      "x": 17,
      "y": 308,
      "size": 1,
      "price": "1011000000000000000000",
      "reserved": "",
      "salt": "0xdd53524f157768eeb5b456086ceb2e970e1083b923c9f7f4a71a1f9d50df8a23",
      "assetIds": []
    },
    {
      "x": 17,
      "y": 312,
      "size": 1,
      "price": "1011000000000000000000",
      "reserved": "",
      "salt": "0xaa71c7b6cd2b30c37d56d4cd32d541c8733d1778cd8f57e18ad63063b09d811b",
      "assetIds": []
    },
    {
      "x": 17,
      "y": 313,
      "size": 1,
      "price": "1011000000000000000000",
      "reserved": "",
      "salt": "0xdd191443eb3d86d045c2027d7485395e3288b74a55aaa8c8efe9d529f0416091",
      "assetIds": []
    },
    {
      "x": 17,
      "y": 314,
      "size": 1,
      "price": "1011000000000000000000",
      "reserved": "",
      "salt": "0x30ac0e442903b98cc1fa9b22dfa72ecb3dd07ab7c01b668a630485766051da24",
      "assetIds": []
    },
    {
      "x": 18,
      "y": 300,
      "size": 1,
      "price": "1011000000000000000000",
      "reserved": "",
      "salt": "0x1bbc02aa56e6180c4f6703b9fd89e4c1053af370ab560db789ac92a2462733cc",
      "assetIds": []
    },
    {
      "x": 18,
      "y": 301,
      "size": 1,
      "price": "1011000000000000000000",
      "reserved": "",
      "salt": "0x33c34716dd2b3991cad429d8c30b769face59fe68a9af5df624ee8842b2b2f0f",
      "assetIds": []
    },
    {
      "x": 18,
      "y": 302,
      "size": 1,
      "price": "1011000000000000000000",
      "reserved": "",
      "salt": "0x92d3fba04a2a7ea93b0bbf176d36ddc3a59a046da4742697628adfeb818d24c2",
      "assetIds": []
    },
    {
      "x": 18,
      "y": 306,
      "size": 1,
      "price": "4683000000000000000000",
      "reserved": "",
      "salt": "0xed26d54f39dc4f5d4aa3446053ee0ecc55dd5f68eedc8c647b6d131d846a2a19",
      "assetIds": []
    },
    {
      "x": 18,
      "y": 307,
      "size": 1,
      "price": "1011000000000000000000",
      "reserved": "",
      "salt": "0x364dffab435209f0f0ca0babf83023991576ca233e02304a5c5afb3be02d9509",
      "assetIds": []
    },
    {
      "x": 18,
      "y": 308,
      "size": 1,
      "price": "1011000000000000000000",
      "reserved": "",
      "salt": "0xc3be58f9778d09dc6a4647015c7e3425dfb2cad14950d33d72aa074cbe0e7736",
      "assetIds": []
    },
    {
      "x": 18,
      "y": 309,
      "size": 1,
      "price": "1011000000000000000000",
      "reserved": "",
      "salt": "0xc7db25f0fee86a1bcc5255082ce16b6ec7f6564eb9190e60a9056075cf6bbe15",
      "assetIds": []
    },
    {
      "x": 18,
      "y": 310,
      "size": 1,
      "price": "1011000000000000000000",
      "reserved": "",
      "salt": "0xe7c8d65e293bb6babf380a1d99444fdef1d7060c87d4c0a4a0e6ed4f7406eb74",
      "assetIds": []
    },
    {
      "x": 18,
      "y": 311,
      "size": 1,
      "price": "1011000000000000000000",
      "reserved": "",
      "salt": "0xaeb0c08c014d48dd487bcfcbaa597f8a504cde621f439f775579a1657957fba2",
      "assetIds": []
    },
    {
      "x": 18,
      "y": 312,
      "size": 1,
      "price": "1011000000000000000000",
      "reserved": "",
      "salt": "0xd322bb98f7da94fc8cb9b252a7c41ba48821ee32aac69ffed3ebd7bfddccfd72",
      "assetIds": []
    },
    {
      "x": 18,
      "y": 313,
      "size": 1,
      "price": "1011000000000000000000",
      "reserved": "",
      "salt": "0x30f99974b6ad1755ae38cfbac20b293baaf9bcebf98b2aa3cbc48a32b10c6fb4",
      "assetIds": []
    },
    {
      "x": 18,
      "y": 314,
      "size": 1,
      "price": "1011000000000000000000",
      "reserved": "",
      "salt": "0x061209f8e99f8cba0d54821b8fc45c9323f69d976ad22da5a78f218fa9c06847",
      "assetIds": []
    },
    {
      "x": 19,
      "y": 300,
      "size": 1,
      "price": "1011000000000000000000",
      "reserved": "",
      "salt": "0x888e8a734da7f2952ba1dabe6eb05443d50a7ceadb96674916f95baf5233bbb4",
      "assetIds": []
    },
    {
      "x": 19,
      "y": 301,
      "size": 1,
      "price": "1011000000000000000000",
      "reserved": "",
      "salt": "0x1f68b368c7a5004c1f411a77c0ca3969ba958d25b245a728d171ff5bf13c71a4",
      "assetIds": []
    },
    {
      "x": 19,
      "y": 302,
      "size": 1,
      "price": "1011000000000000000000",
      "reserved": "",
      "salt": "0x2a6354b5ae642b6c50a605adc0a05e85d599659f46554c6716601df56d66e57e",
      "assetIds": []
    },
    {
      "x": 19,
      "y": 306,
      "size": 1,
      "price": "4683000000000000000000",
      "reserved": "",
      "salt": "0x247b2fa2aef82d596705ad5372b07229f07e82153b99da7646a7d91c4e81b1ee",
      "assetIds": []
    },
    {
      "x": 19,
      "y": 307,
      "size": 1,
      "price": "1011000000000000000000",
      "reserved": "",
      "salt": "0x9cf7c44b9411ac8ad4df562f1a0b0c1ec30a1321030391fb35aee8e451344162",
      "assetIds": []
    },
    {
      "x": 19,
      "y": 308,
      "size": 1,
      "price": "1011000000000000000000",
      "reserved": "",
      "salt": "0x1f246acefcd3589f2acd82f22e22ce000d4df51ad11fef99dfa23e98018ab193",
      "assetIds": []
    },
    {
      "x": 19,
      "y": 309,
      "size": 1,
      "price": "1011000000000000000000",
      "reserved": "",
      "salt": "0x948d128033910695fb418e64d4755f3f2cf9aae431b930dec6910eda1d0f5726",
      "assetIds": []
    },
    {
      "x": 19,
      "y": 310,
      "size": 1,
      "price": "1011000000000000000000",
      "reserved": "",
      "salt": "0xf611223bc1bc55fa845e1e3a191f1fe85ac2a0e2e074ada56c0b3a5ffd4f409d",
      "assetIds": []
    },
    {
      "x": 19,
      "y": 311,
      "size": 1,
      "price": "1011000000000000000000",
      "reserved": "",
      "salt": "0xf9ae57e4f79582e24d3f78c28f9c16e178bc660a994e5e3728a7adbf07ee8d7e",
      "assetIds": []
    },
    {
      "x": 19,
      "y": 312,
      "size": 1,
      "price": "1011000000000000000000",
      "reserved": "",
      "salt": "0xdb37133534ac3244845c8663c46975453b5f248eaf6859571a2a9199c5389e69",
      "assetIds": []
    },
    {
      "x": 19,
      "y": 313,
      "size": 1,
      "price": "1011000000000000000000",
      "reserved": "0x7a9fe22691c811ea339d9b73150e6911a5343dca",
      "salt": "0x5f37b9fef7032585c4dab071537648a51a48e699e8def9f0685ab8ac5204f36b",
      "assetIds": []
    },
    {
      "x": 19,
      "y": 314,
      "size": 1,
      "price": "1011000000000000000000",
      "reserved": "",
      "salt": "0x36711cf757cd8a7c5c6301f0c9dac2011c18095032378d67b7bb1dcff8188739",
      "assetIds": []
    },
    {
      "x": 20,
      "y": 300,
      "size": 1,
      "price": "1011000000000000000000",
      "reserved": "",
      "salt": "0x8abe9ad4e0e287244bbbd2fa8b639f268fe09775fdcad237822e6a855a686c27",
      "assetIds": []
    },
    {
      "x": 20,
      "y": 301,
      "size": 1,
      "price": "1011000000000000000000",
      "reserved": "",
      "salt": "0x06387e205099cbf0d0a89001e5e11974a945372dc97a24e228da4548b58dc4ad",
      "assetIds": []
    },
    {
      "x": 20,
      "y": 302,
      "size": 1,
      "price": "1011000000000000000000",
      "reserved": "",
      "salt": "0xff74a5b49f24a9b9af02e2ceccdb56fe5ac2fd78dbbb513570e941dc5e5c3c60",
      "assetIds": []
    },
    {
      "x": 20,
      "y": 306,
      "size": 1,
      "price": "4683000000000000000000",
      "reserved": "",
      "salt": "0xff80679d800542baebf2ab3af55b32a41dd65c17af4d1ba80d3569e4f3254639",
      "assetIds": []
    },
    {
      "x": 20,
      "y": 307,
      "size": 1,
      "price": "1011000000000000000000",
      "reserved": "0x7a9fe22691c811ea339d9b73150e6911a5343dca",
      "salt": "0xf0098405597db111d391845d82a724e4e36b3909d309bd8dfcb37c44285a8147",
      "assetIds": []
    },
    {
      "x": 20,
      "y": 308,
      "size": 1,
      "price": "1011000000000000000000",
      "reserved": "",
      "salt": "0x02932e5e4d61d5f5bf0702d0b4dbbdfa03a5fea15b131bdfc868836ac5e08d63",
      "assetIds": []
    },
    {
      "x": 20,
      "y": 309,
      "size": 1,
      "price": "4683000000000000000000",
      "reserved": "",
      "salt": "0x9331b77912d5bf4e7d7230ec1d51c1c0a6b2ae8d68c36eea2d86e95268b1f3f2",
      "assetIds": []
    },
    {
      "x": 20,
      "y": 310,
      "size": 1,
      "price": "1011000000000000000000",
      "reserved": "",
      "salt": "0x4a9fcbbb674763c5f6686031bf57aaf0a0bdea2584a11af0524030a271d55ede",
      "assetIds": []
    },
    {
      "x": 20,
      "y": 311,
      "size": 1,
      "price": "4683000000000000000000",
      "reserved": "",
      "salt": "0xc9292b603583e2cdd2032db3e7521b9b2705325a31fdad5d76acc6f56cd494e0",
      "assetIds": []
    },
    {
      "x": 20,
      "y": 312,
      "size": 1,
      "price": "1011000000000000000000",
      "reserved": "",
      "salt": "0x26158e1bc56c0b80843c948f97ecef46ec8e47062d4ca2b875f6bf42bf651fe8",
      "assetIds": []
    },
    {
      "x": 20,
      "y": 313,
      "size": 1,
      "price": "1011000000000000000000",
      "reserved": "",
      "salt": "0x5d51e7e73806a1bbf87f68311588e16088ef0e3a849b95a2190af730d756af9d",
      "assetIds": []
    },
    {
      "x": 20,
      "y": 314,
      "size": 1,
      "price": "1011000000000000000000",
      "reserved": "",
      "salt": "0xe5a93d63bc2c2759675448937a0804d831b270b9cd8464b4f98dfb653f61277a",
      "assetIds": []
    },
    {
      "x": 21,
      "y": 300,
      "size": 1,
      "price": "1011000000000000000000",
      "reserved": "",
      "salt": "0x0726d0c17866924869b016d2dc328b5b1714ffa37e23dfbf482bb72a07fd1a07",
      "assetIds": []
    },
    {
      "x": 21,
      "y": 301,
      "size": 1,
      "price": "1011000000000000000000",
      "reserved": "",
      "salt": "0xe64d696feedd07d1d7d98fb1da0414e59ae6290c26d41540ec628fbe967ddb20",
      "assetIds": []
    },
    {
      "x": 21,
      "y": 302,
      "size": 1,
      "price": "1011000000000000000000",
      "reserved": "",
      "salt": "0x1bb417fdd19e6ad1cf8511e58404cc24c1e0fb6c239354421de95590192a4f62",
      "assetIds": []
    },
    {
      "x": 21,
      "y": 303,
      "size": 1,
      "price": "4683000000000000000000",
      "reserved": "",
      "salt": "0x5e1bedab39c43c190075243d1028cd8293fc3eb058b1bb2e0a762d52029f441a",
      "assetIds": []
    },
    {
      "x": 21,
      "y": 304,
      "size": 1,
      "price": "1011000000000000000000",
      "reserved": "",
      "salt": "0x83b0c0e49060f9f72f36c1186c60ba39ee68fe7e8b9184bed8ca96c237f235f1",
      "assetIds": []
    },
    {
      "x": 21,
      "y": 305,
      "size": 1,
      "price": "4683000000000000000000",
      "reserved": "",
      "salt": "0xe1a8fd044394031ca2698256089132a3c5557067489b21122005e9c223e7d431",
      "assetIds": []
    },
    {
      "x": 21,
      "y": 306,
      "size": 1,
      "price": "1011000000000000000000",
      "reserved": "",
      "salt": "0x08a634bd8b606645a3c0f9659b22f897f82bfeb3de1e222fbebd8d5d8a092a8c",
      "assetIds": []
    },
    {
      "x": 21,
      "y": 307,
      "size": 1,
      "price": "1011000000000000000000",
      "reserved": "",
      "salt": "0x031c2ec0b280fc147f64584a97bb6102d9905a27b53ec7ad7c9ab9f07b42c51c",
      "assetIds": []
    },
    {
      "x": 21,
      "y": 308,
      "size": 1,
      "price": "4683000000000000000000",
      "reserved": "",
      "salt": "0x32899a384c9a79fecb19f8bdb73007a67d61ae2abc50c51af2a3f791bc439150",
      "assetIds": []
    },
    {
      "x": 22,
      "y": 300,
      "size": 1,
      "price": "1011000000000000000000",
      "reserved": "",
      "salt": "0x5eaa33f8e1b62269c4b2129050291da4bf8885aece513c6ea875dc47e008937d",
      "assetIds": []
    },
    {
      "x": 22,
      "y": 301,
      "size": 1,
      "price": "1011000000000000000000",
      "reserved": "",
      "salt": "0x9edb907607a0e32f47c377c3fffb04aed70e9d08b83058036a1c6045e80c24f9",
      "assetIds": []
    },
    {
      "x": 22,
      "y": 302,
      "size": 1,
      "price": "1011000000000000000000",
      "reserved": "",
      "salt": "0x80da55a89d8124b8e279bdcee71de58193232fad4aeb192bbbeff0f1708471e6",
      "assetIds": []
    },
    {
      "x": 22,
      "y": 303,
      "size": 1,
      "price": "1011000000000000000000",
      "reserved": "",
      "salt": "0x47aad8393853c1a283fb500bd647c47d14bee98215ba134841656d5623bc367d",
      "assetIds": []
    },
    {
      "x": 22,
      "y": 304,
      "size": 1,
      "price": "1011000000000000000000",
      "reserved": "",
      "salt": "0xa31842db21d8b36a4d0fa2e31ba5633dca4fafb43b86f588de2b22e99eda97c2",
      "assetIds": []
    },
    {
      "x": 22,
      "y": 305,
      "size": 1,
      "price": "1011000000000000000000",
      "reserved": "",
      "salt": "0x87ba898b67c27872af740ad17a6718bef9cf8655fb2fe6349c79e36311261379",
      "assetIds": []
    },
    {
      "x": 22,
      "y": 306,
      "size": 1,
      "price": "1011000000000000000000",
      "reserved": "",
      "salt": "0x6fcffb681416eff926566001f31dafe191db18d4f1c34bf04275a1eaa4d67b9a",
      "assetIds": []
    },
    {
      "x": 22,
      "y": 307,
      "size": 1,
      "price": "1011000000000000000000",
      "reserved": "",
      "salt": "0xff62d8bb49fb4e863b1ba5275702b7ab6b7228becdd48e9a25e51bf67a5a5f7e",
      "assetIds": []
    },
    {
      "x": 22,
      "y": 308,
      "size": 1,
      "price": "4683000000000000000000",
      "reserved": "",
      "salt": "0x5cdfb9b8867242c88700af168f89289cf85fc8f3d405a7366bbb5e3458fd814a",
      "assetIds": []
    },
    {
      "x": 23,
      "y": 300,
      "size": 1,
      "price": "1011000000000000000000",
      "reserved": "",
      "salt": "0x30d0d4ab5f141c57933dde667235389f2b245049c9ee377bbdd6e313708bb257",
      "assetIds": []
    },
    {
      "x": 23,
      "y": 301,
      "size": 1,
      "price": "1011000000000000000000",
      "reserved": "",
      "salt": "0x38760f51c967704b3a4f261974b589cc784502fd0106205eed1781ba4d9feffc",
      "assetIds": []
    },
    {
      "x": 23,
      "y": 302,
      "size": 1,
      "price": "1011000000000000000000",
      "reserved": "",
      "salt": "0x6792690b2743924d0159fd16cc767e827d1f85f7b0f012a6a2b1cf79f8c1cfbd",
      "assetIds": []
    },
    {
      "x": 23,
      "y": 303,
      "size": 1,
      "price": "1011000000000000000000",
      "reserved": "",
      "salt": "0xf5c89019e1182abe3a1be308eae9efec8ef76e1ca4849363b0aad68a679799b8",
      "assetIds": []
    },
    {
      "x": 23,
      "y": 304,
      "size": 1,
      "price": "1011000000000000000000",
      "reserved": "",
      "salt": "0xe66e67f7472285016048c93bdd2a719258da323d4980b63a491f1a46298cd5fe",
      "assetIds": []
    },
    {
      "x": 23,
      "y": 305,
      "size": 1,
      "price": "1011000000000000000000",
      "reserved": "",
      "salt": "0xe8c1170a4be442c502833cadc19fe18b790049a6d58bf0ddeb6433e61d0f53cc",
      "assetIds": []
    },
    {
      "x": 23,
      "y": 306,
      "size": 1,
      "price": "1011000000000000000000",
      "reserved": "",
      "salt": "0xfac833ca79977891c3f941543783e13213c342e3399eb912e9d2b67b7046c2a9",
      "assetIds": []
    },
    {
      "x": 23,
      "y": 307,
      "size": 1,
      "price": "1011000000000000000000",
      "reserved": "",
      "salt": "0x6066f738ae9ff8c7c924a3c1e0ea0933d63cec9d71bdb13c10be45086fc49fec",
      "assetIds": []
    },
    {
      "x": 23,
      "y": 308,
      "size": 1,
      "price": "4683000000000000000000",
      "reserved": "",
      "salt": "0x14e34dc3476b341f9879896fc893db4eca05d59e9b6e17b959add774612876e6",
      "assetIds": []
    },
    {
      "x": 24,
      "y": 288,
      "size": 1,
      "price": "1011000000000000000000",
      "reserved": "",
      "salt": "0x0da618adfdbd5629a02a777f5bb7c094f136d14cf97b4aeb748a0f856e1cca24",
      "assetIds": []
    },
    {
      "x": 24,
      "y": 289,
      "size": 1,
      "price": "1011000000000000000000",
      "reserved": "0x7a9fe22691c811ea339d9b73150e6911a5343dca",
      "salt": "0xb525cf17a8f1e69c43da9d3cb36e78f78f6173fe868b2f11e7fb740b334c50d8",
      "assetIds": []
    },
    {
      "x": 24,
      "y": 290,
      "size": 1,
      "price": "4683000000000000000000",
      "reserved": "",
      "salt": "0xd50d9551804fcecaa030f5afcb58b956f5944ca791bcbe12b47ac1434263a703",
      "assetIds": []
    },
    {
      "x": 24,
      "y": 294,
      "size": 1,
      "price": "1011000000000000000000",
      "reserved": "",
      "salt": "0x65e158050756ece4ef356e55d195c09c1eecea61db83c3c3e6b1af03a3cb8767",
      "assetIds": []
    },
    {
      "x": 24,
      "y": 295,
      "size": 1,
      "price": "1011000000000000000000",
      "reserved": "",
      "salt": "0xcbc233220803d777524ac5842a9c43d318aff53289c3e6aa15b726c6cb2b3498",
      "assetIds": []
    },
    {
      "x": 24,
      "y": 296,
      "size": 1,
      "price": "4683000000000000000000",
      "reserved": "",
      "salt": "0xf2268df7bfa351c6adcaf1462043559bb0c720425723d7a55489f202bf321274",
      "assetIds": []
    },
    {
      "x": 24,
      "y": 300,
      "size": 1,
      "price": "4683000000000000000000",
      "reserved": "",
      "salt": "0xce2bccb2ee3a946f53f53aa86728cb197c53c5743f3cc9ba0ee777428d16b14f",
      "assetIds": []
    },
    {
      "x": 24,
      "y": 301,
      "size": 1,
      "price": "1011000000000000000000",
      "reserved": "",
      "salt": "0xffc9df615b79badadc8539d59a9117bbabc417c6465efb4b3af415e3d26913f7",
      "assetIds": []
    },
    {
      "x": 24,
      "y": 302,
      "size": 1,
      "price": "1011000000000000000000",
      "reserved": "",
      "salt": "0x45eadbdbba06fcb035049d0bbbaac0f717fdf682fb2a3c8c9929735aa3616252",
      "assetIds": []
    },
    {
      "x": 24,
      "y": 312,
      "size": 1,
      "price": "1011000000000000000000",
      "reserved": "",
      "salt": "0x2ae2652a367c27dd5a071b2e9b7a8ffd3babffeb475b472d960d2fdc72b9c55a",
      "assetIds": []
    },
    {
      "x": 24,
      "y": 313,
      "size": 1,
      "price": "1011000000000000000000",
      "reserved": "",
      "salt": "0x7123ff5a838da7761b07838bcb8aa555001f9f5d2ae07fb3af18b06558cbaf06",
      "assetIds": []
    },
    {
      "x": 24,
      "y": 314,
      "size": 1,
      "price": "1011000000000000000000",
      "reserved": "",
      "salt": "0x3a8ce0ae0bcfe1f2fd7b8a529ab2555c0eec389dc15983b1f8201708b97817ab",
      "assetIds": []
    },
    {
      "x": 25,
      "y": 288,
      "size": 1,
      "price": "1011000000000000000000",
      "reserved": "",
      "salt": "0x67179c1a0b576947d3c9f6aab7098d381abe19bdbade1df4907309e9faf3eaff",
      "assetIds": []
    },
    {
      "x": 25,
      "y": 289,
      "size": 1,
      "price": "1011000000000000000000",
      "reserved": "",
      "salt": "0x9b3c06523074c715bb13c4e05cb8ee026417b151e40763dbab5ef7a68776c4e7",
      "assetIds": []
    },
    {
      "x": 25,
      "y": 290,
      "size": 1,
      "price": "4683000000000000000000",
      "reserved": "",
      "salt": "0x36f0e3b9a4ec225f15c2f9b1d782e008387e9dca916728f994e78d2526eb59da",
      "assetIds": []
    },
    {
      "x": 25,
      "y": 294,
      "size": 1,
      "price": "1011000000000000000000",
      "reserved": "0x7a9fe22691c811ea339d9b73150e6911a5343dca",
      "salt": "0xef021775db92ef9ecb5b720b53ffb12e17d1963e00194d97174fdb980761b740",
      "assetIds": []
    },
    {
      "x": 25,
      "y": 295,
      "size": 1,
      "price": "1011000000000000000000",
      "reserved": "",
      "salt": "0xd6a364f2abc8e0d8ea92ff12333fc37e6286c2623197098a5caa09aceaf94883",
      "assetIds": []
    },
    {
      "x": 25,
      "y": 296,
      "size": 1,
      "price": "1011000000000000000000",
      "reserved": "0x7a9fe22691c811ea339d9b73150e6911a5343dca",
      "salt": "0x3a2492807878d0b73326dec3d656157e6e0d135c45eea42381b66c29cb9710e5",
      "assetIds": []
    },
    {
      "x": 25,
      "y": 300,
      "size": 1,
      "price": "4683000000000000000000",
      "reserved": "",
      "salt": "0xc2e43ca67774dd5fde60e7a60884985d7d154e689cea14eee72a8c6db017b448",
      "assetIds": []
    },
    {
      "x": 25,
      "y": 301,
      "size": 1,
      "price": "1011000000000000000000",
      "reserved": "",
      "salt": "0x8dfba8cd753091815897cdea7cffa525e9a3ecc72f5f3e9b8492bf25e5658771",
      "assetIds": []
    },
    {
      "x": 25,
      "y": 302,
      "size": 1,
      "price": "1011000000000000000000",
      "reserved": "",
      "salt": "0x86c58a4c0dcd7418f4fa434e01483224ca4485bca3a56fb8db691826a04b3232",
      "assetIds": []
    },
    {
      "x": 25,
      "y": 312,
      "size": 1,
      "price": "1011000000000000000000",
      "reserved": "",
      "salt": "0x7fe12342c2c9dc6fcc49f3250f7c2bacb1fc4a545be3a7acc604203e63a1f286",
      "assetIds": []
    },
    {
      "x": 25,
      "y": 313,
      "size": 1,
      "price": "1011000000000000000000",
      "reserved": "",
      "salt": "0x47a713b894392882b1fabd684bd3e7299c7e62e7c0fffe5b77c512c60c75bd64",
      "assetIds": []
    },
    {
      "x": 25,
      "y": 314,
      "size": 1,
      "price": "1011000000000000000000",
      "reserved": "",
      "salt": "0x5652636b0342d53c889e2f4ac292fdd3cbf79be21d8bd4ba6fccc69abce8c502",
      "assetIds": []
    },
    {
      "x": 26,
      "y": 288,
      "size": 1,
      "price": "1011000000000000000000",
      "reserved": "",
      "salt": "0x35a2a16e7266a8371b5dc18dcca413e70205864857a164138025bd715a51676a",
      "assetIds": []
    },
    {
      "x": 26,
      "y": 289,
      "size": 1,
      "price": "1011000000000000000000",
      "reserved": "",
      "salt": "0xd27f31406319f5d71da208d58000aa84528031db9c6250dc2f8dbad132fc5453",
      "assetIds": []
    },
    {
      "x": 26,
      "y": 290,
      "size": 1,
      "price": "4683000000000000000000",
      "reserved": "",
      "salt": "0xdddcd0867d032de330ebdd0a31c4410e459482b32c934b38203d2ddbabdd4a99",
      "assetIds": []
    },
    {
      "x": 26,
      "y": 294,
      "size": 1,
      "price": "1011000000000000000000",
      "reserved": "",
      "salt": "0x99b23fff7d5e845edee66faf9d14c27231aa06a3d9d3b3b8bdcd6d8e7e0743eb",
      "assetIds": []
    },
    {
      "x": 26,
      "y": 295,
      "size": 1,
      "price": "1011000000000000000000",
      "reserved": "",
      "salt": "0xe51a6bfbb7a4892057825c68e7a443481c28b753f541ac1baf9732a0bb14bf0d",
      "assetIds": []
    },
    {
      "x": 26,
      "y": 296,
      "size": 1,
      "price": "4683000000000000000000",
      "reserved": "",
      "salt": "0x3d6d201379c4499de8cea4d93f38bce88ce02c4a4ed68707bc42cc075a808460",
      "assetIds": []
    },
    {
      "x": 26,
      "y": 300,
      "size": 1,
      "price": "4683000000000000000000",
      "reserved": "",
      "salt": "0x97a69804af3505f8245542894711b4eb3a813d8ba5d022d0629d48b2566f8664",
      "assetIds": []
    },
    {
      "x": 26,
      "y": 301,
      "size": 1,
      "price": "1011000000000000000000",
      "reserved": "",
      "salt": "0xff87e74ade2a50f953ae24a162e1b39ea333dd2ca220f783a7144bbfa3e93bd4",
      "assetIds": []
    },
    {
      "x": 26,
      "y": 302,
      "size": 1,
      "price": "1011000000000000000000",
      "reserved": "",
      "salt": "0xa9c5337c47d89b7ea378e020e2f3d41055f4dc87f467376c8c364111920a72cb",
      "assetIds": []
    },
    {
      "x": 26,
      "y": 312,
      "size": 1,
      "price": "1011000000000000000000",
      "reserved": "",
      "salt": "0xabcb5af0159d2e455d1aff513df7aef55c8aaa44d3f3779afc124d86aac08784",
      "assetIds": []
    },
    {
      "x": 26,
      "y": 313,
      "size": 1,
      "price": "1011000000000000000000",
      "reserved": "",
      "salt": "0x6c90a469ebdc1f57a2f2838102cd5b92ed999933886384ba71bd3e3c613f9cc1",
      "assetIds": []
    },
    {
      "x": 26,
      "y": 314,
      "size": 1,
      "price": "1011000000000000000000",
      "reserved": "",
      "salt": "0x8ef0de7a723650c9590a649c5e68b0c39aa5dc86e94de205a8ae10f9713e4a04",
      "assetIds": []
    },
    {
      "x": 27,
      "y": 288,
      "size": 1,
      "price": "1011000000000000000000",
      "reserved": "",
      "salt": "0x9b747f89ad1256d8695d5a66455098e0fadb54185d6eb5783a47a7771e7ab30d",
      "assetIds": []
    },
    {
      "x": 27,
      "y": 289,
      "size": 1,
      "price": "1011000000000000000000",
      "reserved": "",
      "salt": "0x173021617501154ec82d1567ec0c77da69a3b984cf9c9a868162f6875aa1d765",
      "assetIds": []
    },
    {
      "x": 27,
      "y": 290,
      "size": 1,
      "price": "1011000000000000000000",
      "reserved": "",
      "salt": "0xe9edb6bcad45a8cf8a821d8c3b65aaa625860b55575f42cb8d000bc7d0356692",
      "assetIds": []
    },
    {
      "x": 27,
      "y": 291,
      "size": 1,
      "price": "4683000000000000000000",
      "reserved": "",
      "salt": "0xc0cf8c51977f96e59dec6f6cff4fd557e8405e4c4f62cdd8a9a453ac20b7c7ad",
      "assetIds": []
    },
    {
      "x": 27,
      "y": 292,
      "size": 1,
      "price": "1011000000000000000000",
      "reserved": "",
      "salt": "0x7273904ef1004aeefc076453ffc9f1a14211dcfd41d38fbcef6f4fdef12005fc",
      "assetIds": []
    },
    {
      "x": 27,
      "y": 293,
      "size": 1,
      "price": "4683000000000000000000",
      "reserved": "",
      "salt": "0xe2a4459782b725ada46bbc873e1943147e87f4967b2fcc521834e34fa818d7af",
      "assetIds": []
    },
    {
      "x": 27,
      "y": 294,
      "size": 1,
      "price": "1011000000000000000000",
      "reserved": "",
      "salt": "0x5fa4cab6b9c590c7b3cf695985f264e08b9802ad9c3a2807113b9c6acdf4cee2",
      "assetIds": []
    },
    {
      "x": 27,
      "y": 295,
      "size": 1,
      "price": "1011000000000000000000",
      "reserved": "",
      "salt": "0x84c44ec0b4474175e235d3d9b2a295c1e2962cb782132a95b061f98d69e52e69",
      "assetIds": []
    },
    {
      "x": 27,
      "y": 296,
      "size": 1,
      "price": "1011000000000000000000",
      "reserved": "",
      "salt": "0x615a0a54b6df943f91d3d9d0044a1e9f28f8f11cae587718241ab5a8d9e21582",
      "assetIds": []
    },
    {
      "x": 27,
      "y": 297,
      "size": 1,
      "price": "4683000000000000000000",
      "reserved": "",
      "salt": "0x94aaf2c828f9e56dd6037940ae689a9cbcb0f738c4c9302d970b8af302dc8418",
      "assetIds": []
    },
    {
      "x": 27,
      "y": 298,
      "size": 1,
      "price": "1011000000000000000000",
      "reserved": "",
      "salt": "0x4edfa92739adf9eef5eeb477d0af1cbf85ef57f210cca6a90e27abd87500cd5b",
      "assetIds": []
    },
    {
      "x": 27,
      "y": 299,
      "size": 1,
      "price": "4683000000000000000000",
      "reserved": "",
      "salt": "0x76aa46fb8710ae823d5d44b9f50674beb8c31e4a58c398d93cfee3a4177a3549",
      "assetIds": []
    },
    {
      "x": 27,
      "y": 303,
      "size": 1,
      "price": "1011000000000000000000",
      "reserved": "",
      "salt": "0xa9d4866f32af58e2f2e95d9061fa549058704fef6859b047f38c6e461a8db512",
      "assetIds": []
    },
    {
      "x": 27,
      "y": 304,
      "size": 1,
      "price": "1011000000000000000000",
      "reserved": "",
      "salt": "0xe3ef1a68649ee115c039b4e6752c6844ec4a76d14ab13b8396ee74da1a50a124",
      "assetIds": []
    },
    {
      "x": 27,
      "y": 305,
      "size": 1,
      "price": "1011000000000000000000",
      "reserved": "",
      "salt": "0x5d673fc6d1aee2d9afa11296070fee5bbc91313dc6d0d27f323651583d1349cb",
      "assetIds": []
    },
    {
      "x": 27,
      "y": 312,
      "size": 1,
      "price": "1011000000000000000000",
      "reserved": "",
      "salt": "0x83b1d3a3d3626149bef9e5eb68ac5bc478f8fbe060148beacb107ad21a00c742",
      "assetIds": []
    },
    {
      "x": 27,
      "y": 313,
      "size": 1,
      "price": "1011000000000000000000",
      "reserved": "",
      "salt": "0xbf7bb5965a5aa573479c4e043deab41a8b3d5d0ca44e21e9377e04634d899260",
      "assetIds": []
    },
    {
      "x": 27,
      "y": 314,
      "size": 1,
      "price": "1011000000000000000000",
      "reserved": "",
      "salt": "0xe3adb12e0adcf5d84f4dd4010fd6ad1b77973c78fef9f849d569c5ad0973e0f6",
      "assetIds": []
    },
    {
      "x": 28,
      "y": 288,
      "size": 1,
      "price": "1011000000000000000000",
      "reserved": "",
      "salt": "0xc67e4c15751719a3bfc6f5ed1a5b70553f5f629a2d3d8b3cd53a7d9fecf169f7",
      "assetIds": []
    },
    {
      "x": 28,
      "y": 289,
      "size": 1,
      "price": "1011000000000000000000",
      "reserved": "",
      "salt": "0x70444acca1b00fb2c2d9d0cdfc9b2656d90682e30ed762eb828580f4e72ddfee",
      "assetIds": []
    },
    {
      "x": 28,
      "y": 290,
      "size": 1,
      "price": "1011000000000000000000",
      "reserved": "",
      "salt": "0x99585efcdc55b97601da6e363d7bfa6102e60ee5a9bd654a206370314a659a41",
      "assetIds": []
    },
    {
      "x": 28,
      "y": 291,
      "size": 1,
      "price": "1011000000000000000000",
      "reserved": "",
      "salt": "0xc7f5fd3cd5eb95d06c8d3f97970fcd850a5106cf5ae5de85c66213f1e016083d",
      "assetIds": []
    },
    {
      "x": 28,
      "y": 292,
      "size": 1,
      "price": "1011000000000000000000",
      "reserved": "",
      "salt": "0x831be9d5da13cb0db40470e084de6732114c5d6b4a2414455535a918116d64ec",
      "assetIds": []
    },
    {
      "x": 28,
      "y": 293,
      "size": 1,
      "price": "1011000000000000000000",
      "reserved": "",
      "salt": "0x4833aa69e36d3a2574a8e08cea316f3780f3179de7bc93107bff5978450e3b9f",
      "assetIds": []
    },
    {
      "x": 28,
      "y": 294,
      "size": 1,
      "price": "1011000000000000000000",
      "reserved": "",
      "salt": "0xe1bca6b737af6d613705d3b9a71e46e6ea97a4169ed88a80cc1e12d75fd2d203",
      "assetIds": []
    },
    {
      "x": 28,
      "y": 295,
      "size": 1,
      "price": "1011000000000000000000",
      "reserved": "",
      "salt": "0xc86600f25badfd67b8c97d3f612acf3c58a714f4659e5b1cc7157e34b36416ad",
      "assetIds": []
    },
    {
      "x": 28,
      "y": 296,
      "size": 1,
      "price": "1011000000000000000000",
      "reserved": "",
      "salt": "0x641061be199fcd20335b58ad0828b3d82e48455c8002acaa6cef7a41a172697a",
      "assetIds": []
    },
    {
      "x": 28,
      "y": 297,
      "size": 1,
      "price": "1011000000000000000000",
      "reserved": "",
      "salt": "0x96633e844f71ebaed3da665a01804b37cd59da7bc83f1d0af9173d9dc435b740",
      "assetIds": []
    },
    {
      "x": 28,
      "y": 298,
      "size": 1,
      "price": "1011000000000000000000",
      "reserved": "",
      "salt": "0x1011213c46074b2585d0f19160d73faf47cb692cbe0099a0c58a7b39875fa811",
      "assetIds": []
    },
    {
      "x": 28,
      "y": 299,
      "size": 1,
      "price": "1011000000000000000000",
      "reserved": "",
      "salt": "0xabbedfdfd22b657e813decd3b176ad6db31e2570da1455f6703a9ab3a317f54b",
      "assetIds": []
    },
    {
      "x": 28,
      "y": 303,
      "size": 1,
      "price": "1011000000000000000000",
      "reserved": "",
      "salt": "0xcf6a74ffb16434bc0d40a91749688fea5726f9d4a3ac8a798ccb45eed771a2cd",
      "assetIds": []
    },
    {
      "x": 28,
      "y": 304,
      "size": 1,
      "price": "1011000000000000000000",
      "reserved": "",
      "salt": "0x425b61945655a29e78f8590011475a02b4bc6364450641ab180d5f69a6f924bd",
      "assetIds": []
    },
    {
      "x": 28,
      "y": 305,
      "size": 1,
      "price": "1011000000000000000000",
      "reserved": "",
      "salt": "0xfc14e895aa9ffd70b203f1c348c16e811acead5c1306f9cd98fa465eb79dda84",
      "assetIds": []
    },
    {
      "x": 28,
      "y": 312,
      "size": 1,
      "price": "1011000000000000000000",
      "reserved": "",
      "salt": "0x878cd40f5029c2d2e60589d3df801a690d0aafef447ce3bd6d78c0e1b1d0354b",
      "assetIds": []
    },
    {
      "x": 28,
      "y": 313,
      "size": 1,
      "price": "1011000000000000000000",
      "reserved": "0x7a9fe22691c811ea339d9b73150e6911a5343dca",
      "salt": "0x654b9374fc7a7a603a0e00a984952912bbf54b2f30fcd11e7300fab9a5a47b04",
      "assetIds": []
    },
    {
      "x": 28,
      "y": 314,
      "size": 1,
      "price": "1011000000000000000000",
      "reserved": "",
      "salt": "0x6c360e2505d832e78c869aadbc7a123f669735f98dbf327066fee4a92841d905",
      "assetIds": []
    },
    {
      "x": 29,
      "y": 288,
      "size": 1,
      "price": "1011000000000000000000",
      "reserved": "",
      "salt": "0xd4cc260dc3949be063ba48004eeb1b4e372e05dfceba276bedeea8575a0594e6",
      "assetIds": []
    },
    {
      "x": 29,
      "y": 289,
      "size": 1,
      "price": "1011000000000000000000",
      "reserved": "",
      "salt": "0x7d1c0b09058c8957a37d8414742f146496755f05296729cf2f668ebe4ab4e0e6",
      "assetIds": []
    },
    {
      "x": 29,
      "y": 290,
      "size": 1,
      "price": "1011000000000000000000",
      "reserved": "",
      "salt": "0x1047337c58c995357d8ebb2e8b989cb5fd170cbbf33663c48bf253e50b705ffa",
      "assetIds": []
    },
    {
      "x": 29,
      "y": 291,
      "size": 1,
      "price": "4683000000000000000000",
      "reserved": "",
      "salt": "0xc77919a25d8577f585dd843b502e8db52dfd53401527332f3af2b741a5e6586a",
      "assetIds": []
    },
    {
      "x": 29,
      "y": 292,
      "size": 1,
      "price": "1011000000000000000000",
      "reserved": "0x7a9fe22691c811ea339d9b73150e6911a5343dca",
      "salt": "0xfd3e26789b27e406ef8d9279b97137c6acf609b33d4e226a58bdb63131d42eca",
      "assetIds": []
    },
    {
      "x": 29,
      "y": 293,
      "size": 1,
      "price": "4683000000000000000000",
      "reserved": "",
      "salt": "0x22cd0aec83e8591dce53f0132fc3195e2f67a80ca3adcb943a40647aab374a07",
      "assetIds": []
    },
    {
      "x": 29,
      "y": 294,
      "size": 1,
      "price": "1011000000000000000000",
      "reserved": "",
      "salt": "0x6f877dd80d117dbd0c86578a0fe630337b99d1596c966cdeb194dbf9994c6482",
      "assetIds": []
    },
    {
      "x": 29,
      "y": 295,
      "size": 1,
      "price": "1011000000000000000000",
      "reserved": "",
      "salt": "0x34e2a0cfed49d856062914ec0da98f8a58949ef8288cad7583d0512e555fc611",
      "assetIds": []
    },
    {
      "x": 29,
      "y": 296,
      "size": 1,
      "price": "1011000000000000000000",
      "reserved": "",
      "salt": "0x4be59bdec54456a277137ca6df87bbe0b37d9529087f64a792a73c43382273e2",
      "assetIds": []
    },
    {
      "x": 29,
      "y": 297,
      "size": 1,
      "price": "1011000000000000000000",
      "reserved": "",
      "salt": "0x2df278492451053100f2d310534353629aeee338d11bad1711eef40f52f4ffe8",
      "assetIds": []
    },
    {
      "x": 29,
      "y": 298,
      "size": 1,
      "price": "1011000000000000000000",
      "reserved": "",
      "salt": "0x6e4bd22c9542beec12875c0ac92d4332467ab21aa51c6dffe31323005c6c9a42",
      "assetIds": []
    },
    {
      "x": 29,
      "y": 299,
      "size": 1,
      "price": "1011000000000000000000",
      "reserved": "",
      "salt": "0xb9a1f83d6b10b36372dd708249a02d5955c587566a9d71ad1e2f2041c50940b7",
      "assetIds": []
    },
    {
      "x": 29,
      "y": 303,
      "size": 1,
      "price": "1011000000000000000000",
      "reserved": "",
      "salt": "0x6507c5bb40eeae1956ea67a26c59b3c610e1845db32132590ecfe4d25ab726b4",
      "assetIds": []
    },
    {
      "x": 29,
      "y": 304,
      "size": 1,
      "price": "1011000000000000000000",
      "reserved": "",
      "salt": "0x70978cd13fa5ab11a608f8c693aa77a551ffecf09f0c99d5c93dcbd5bf33af75",
      "assetIds": []
    },
    {
      "x": 29,
      "y": 305,
      "size": 1,
      "price": "1011000000000000000000",
      "reserved": "",
      "salt": "0x22a938b9492847fa526ed6072af74ad725ba453037ff01c01c09c2b5be3454f9",
      "assetIds": []
    },
    {
      "x": 29,
      "y": 312,
      "size": 1,
      "price": "1011000000000000000000",
      "reserved": "",
      "salt": "0x4d3a8725c0cb3fe625b3a08fd4a60d598da89471763db512635c4bf6c0a44e80",
      "assetIds": []
    },
    {
      "x": 29,
      "y": 313,
      "size": 1,
      "price": "1011000000000000000000",
      "reserved": "",
      "salt": "0x8bc2c42d3a04fdcd9c15a82504113ccb68591d5a16f1a8d8936b700952b3aeb0",
      "assetIds": []
    },
    {
      "x": 29,
      "y": 314,
      "size": 1,
      "price": "1011000000000000000000",
      "reserved": "",
      "salt": "0x0d43a560916cf06c7abbaa228f617d4c8caca33148a8f409dc5303bccc4afe48",
      "assetIds": []
    },
    {
      "x": 30,
      "y": 288,
      "size": 1,
      "price": "1011000000000000000000",
      "reserved": "",
      "salt": "0xa9ee168f8e28620b9b1b8945c39515594c117ad65a695c400721eff86192021a",
      "assetIds": []
    },
    {
      "x": 30,
      "y": 289,
      "size": 1,
      "price": "1011000000000000000000",
      "reserved": "",
      "salt": "0x24754358845be4edf0bf4c372a8def15dc4dd27aa53ef44b323ce19638a49994",
      "assetIds": []
    },
    {
      "x": 30,
      "y": 290,
      "size": 1,
      "price": "4683000000000000000000",
      "reserved": "",
      "salt": "0x30ff9688494fee6b0fa5ac4411e503de915f84953f204f9f5d2040adeb0aed3e",
      "assetIds": []
    },
    {
      "x": 30,
      "y": 294,
      "size": 1,
      "price": "4683000000000000000000",
      "reserved": "",
      "salt": "0xf0053af390b0f4eeb774d1f2f6eb913450162dd244903551c2b4057f825afab1",
      "assetIds": []
    },
    {
      "x": 30,
      "y": 295,
      "size": 1,
      "price": "1011000000000000000000",
      "reserved": "",
      "salt": "0x5b46959806519360c7b4b522791a4b630370b59be76e165ec7967b6578839e56",
      "assetIds": []
    },
    {
      "x": 30,
      "y": 296,
      "size": 1,
      "price": "1011000000000000000000",
      "reserved": "",
      "salt": "0x7c9b11d97a0e7521695d92cf547b83624abeae92534e077df16ba91e8826e849",
      "assetIds": []
    },
    {
      "x": 30,
      "y": 300,
      "size": 1,
      "price": "1011000000000000000000",
      "reserved": "",
      "salt": "0xe823dca001ecbe7bd1bacd9e069f5880c79ab612d3cc2fa95ff445d4c326dd28",
      "assetIds": []
    },
    {
      "x": 30,
      "y": 301,
      "size": 1,
      "price": "1011000000000000000000",
      "reserved": "",
      "salt": "0xaf800997a87656d4ef945300882fc15c28a796417e48233a93a1afbcf34399e0",
      "assetIds": []
    },
    {
      "x": 30,
      "y": 302,
      "size": 1,
      "price": "1011000000000000000000",
      "reserved": "",
      "salt": "0x8c1afcf29e7283359325e229fb5ac9098d8539ba6a63bd0565f48357217a157e",
      "assetIds": []
    },
    {
      "x": 30,
      "y": 303,
      "size": 1,
      "price": "1011000000000000000000",
      "reserved": "",
      "salt": "0x16b608bda27cce1ad4f2b0800dc7950a0de54ebae8a6ade42b94acd961e07055",
      "assetIds": []
    },
    {
      "x": 30,
      "y": 304,
      "size": 1,
      "price": "1011000000000000000000",
      "reserved": "",
      "salt": "0x0f8e9b2f4f82887acc72b04b61340509a71d7559d0c5e0b3bfefab47b48d05f8",
      "assetIds": []
    },
    {
      "x": 30,
      "y": 305,
      "size": 1,
      "price": "4683000000000000000000",
      "reserved": "",
      "salt": "0x471ed933ec07df7c109044dcc2e83c5834baad5699fdd97d4335f613cece4584",
      "assetIds": []
    },
    {
      "x": 30,
      "y": 312,
      "size": 1,
      "price": "1011000000000000000000",
      "reserved": "",
      "salt": "0xaddf5c834d827ad3aa424ba12c3eda7e311c5d3a6853d51eae61cbe625bcc8ff",
      "assetIds": []
    },
    {
      "x": 30,
      "y": 313,
      "size": 1,
      "price": "1011000000000000000000",
      "reserved": "",
      "salt": "0x71e45ba3b61d2d14b036476e10e1b4daf7fd4fb7ef2ff71c6a015b19bfd0d9f2",
      "assetIds": []
    },
    {
      "x": 30,
      "y": 314,
      "size": 1,
      "price": "1011000000000000000000",
      "reserved": "",
      "salt": "0xd2d74f755a8353d29f2dec6b5c1b40b0c18a9c921dd7d9fbbeb520e568928894",
      "assetIds": []
    },
    {
      "x": 31,
      "y": 288,
      "size": 1,
      "price": "1011000000000000000000",
      "reserved": "",
      "salt": "0xfaef5f5f50f47bbf7f6daa8cfa7e8236721c96c416dbc7b1afc291eda04301a3",
      "assetIds": []
    },
    {
      "x": 31,
      "y": 289,
      "size": 1,
      "price": "1011000000000000000000",
      "reserved": "",
      "salt": "0xea390fafe69e916d74292c52724e576998330af6bfc63cb02e224c293bb9bb83",
      "assetIds": []
    },
    {
      "x": 31,
      "y": 290,
      "size": 1,
      "price": "1011000000000000000000",
      "reserved": "",
      "salt": "0xa28ddc675b6ba69d5f9beb4e3fee94c2e6eb7a8b9df594d46858b241ad45a490",
      "assetIds": []
    },
    {
      "x": 31,
      "y": 294,
      "size": 1,
      "price": "1011000000000000000000",
      "reserved": "",
      "salt": "0x416e9d36209d453fec6264dfd3e398b5b7784ee5231c148656c06c19dd7d2277",
      "assetIds": []
    },
    {
      "x": 31,
      "y": 295,
      "size": 1,
      "price": "1011000000000000000000",
      "reserved": "",
      "salt": "0x1b673ee9616b2ff57f2157d73df025d2cfd83448bf40db96331f9a15599992a5",
      "assetIds": []
    },
    {
      "x": 31,
      "y": 296,
      "size": 1,
      "price": "1011000000000000000000",
      "reserved": "",
      "salt": "0x5a5e1bf443662a27517a252c8b6c9fca7cd26870fbdb7dffe60c4ea91006c585",
      "assetIds": []
    },
    {
      "x": 31,
      "y": 300,
      "size": 1,
      "price": "1011000000000000000000",
      "reserved": "",
      "salt": "0xd18043ed4a36e52ef750e7b75d0848205e6c420071024224b811cfc36b705f03",
      "assetIds": []
    },
    {
      "x": 31,
      "y": 301,
      "size": 1,
      "price": "1011000000000000000000",
      "reserved": "0x7a9fe22691c811ea339d9b73150e6911a5343dca",
      "salt": "0x1b32e4e221edd143f44416fba0b40f862eb090e9614bf592a00931379ff652a4",
      "assetIds": []
    },
    {
      "x": 31,
      "y": 302,
      "size": 1,
      "price": "1011000000000000000000",
      "reserved": "0x7a9fe22691c811ea339d9b73150e6911a5343dca",
      "salt": "0x3bdd3cec1cb9ba44e2f30f251c3fc7c98c38a94e135f708a2510bb555ed5b317",
      "assetIds": []
    },
    {
      "x": 31,
      "y": 303,
      "size": 1,
      "price": "1011000000000000000000",
      "reserved": "",
      "salt": "0x0499aca0d38a65bc725ec3cb695b3edb25185f3831459781b8c15ae0a41e76d2",
      "assetIds": []
    },
    {
      "x": 31,
      "y": 304,
      "size": 1,
      "price": "1011000000000000000000",
      "reserved": "",
      "salt": "0x8749eae0ed26d7b77ddc52227a7eab2c78f33a0536bfe44f62da6d341b9c5a08",
      "assetIds": []
    },
    {
      "x": 31,
      "y": 305,
      "size": 1,
      "price": "4683000000000000000000",
      "reserved": "",
      "salt": "0x7f2b4315e3032bb13221068626d867b6e558d962b8913d4b79ad72cd8b900e11",
      "assetIds": []
    },
    {
      "x": 31,
      "y": 312,
      "size": 1,
      "price": "1011000000000000000000",
      "reserved": "",
      "salt": "0xa2f2460552a4bcac817944fec4ae28ffbcb0fb86cd765cd48eeb0f426bdcce6a",
      "assetIds": []
    },
    {
      "x": 31,
      "y": 313,
      "size": 1,
      "price": "1011000000000000000000",
      "reserved": "0x7a9fe22691c811ea339d9b73150e6911a5343dca",
      "salt": "0x29e865901f2190639127c727453f7979c8889bb52ccaa60b3db455ceda43925b",
      "assetIds": []
    },
    {
      "x": 31,
      "y": 314,
      "size": 1,
      "price": "1011000000000000000000",
      "reserved": "",
      "salt": "0x0605b37860b97716ba82338993a17fdc9d7c39178956555e5c6faa8329a3dcd6",
      "assetIds": []
    },
    {
      "x": 32,
      "y": 288,
      "size": 1,
      "price": "1011000000000000000000",
      "reserved": "",
      "salt": "0x9bdf0f8dc5b9f588194c64fb4b1f583d82469fc514019cedb63f400af57aff62",
      "assetIds": []
    },
    {
      "x": 32,
      "y": 289,
      "size": 1,
      "price": "1011000000000000000000",
      "reserved": "",
      "salt": "0xa33d62b5a602913bce15a3b74c442be35020827b81d9d321e94da36b985c4069",
      "assetIds": []
    },
    {
      "x": 32,
      "y": 290,
      "size": 1,
      "price": "4683000000000000000000",
      "reserved": "",
      "salt": "0xaf3521c89a60304480132872a49eba20aa18db5654df6c1e3233c0766edf66da",
      "assetIds": []
    },
    {
      "x": 32,
      "y": 294,
      "size": 1,
      "price": "4683000000000000000000",
      "reserved": "",
      "salt": "0x77650d2b4f2e6c882b5a931b7ea4d06aad3d3dda4e829189ad0cd21906cd249a",
      "assetIds": []
    },
    {
      "x": 32,
      "y": 295,
      "size": 1,
      "price": "1011000000000000000000",
      "reserved": "",
      "salt": "0x0a902117fe5b65227438d06ccfbc037ae1645ece59152b789ef4b2bf99b0f395",
      "assetIds": []
    },
    {
      "x": 32,
      "y": 296,
      "size": 1,
      "price": "1011000000000000000000",
      "reserved": "",
      "salt": "0x1ed8f87f418a49103339f75b87eef547f202ac60c6fb45014bb80565a023e9e1",
      "assetIds": []
    },
    {
      "x": 32,
      "y": 300,
      "size": 1,
      "price": "1011000000000000000000",
      "reserved": "",
      "salt": "0x3dab5e4baec3774a23629a727b073388cca4ee5625a04b805de4e739c3239bb7",
      "assetIds": []
    },
    {
      "x": 32,
      "y": 301,
      "size": 1,
      "price": "1011000000000000000000",
      "reserved": "",
      "salt": "0x198892b3982a522d0f5be44449e65ec39af74fbcf0fed89add1144479ebcb133",
      "assetIds": []
    },
    {
      "x": 32,
      "y": 302,
      "size": 1,
      "price": "1011000000000000000000",
      "reserved": "",
      "salt": "0xaaf2d62088c55cb6636c6f50fef65d7e345dc93326185e90abaffbf7f49b6fe9",
      "assetIds": []
    },
    {
      "x": 32,
      "y": 303,
      "size": 1,
      "price": "1011000000000000000000",
      "reserved": "",
      "salt": "0x22695a9bc58c98361536948d028ebb126cc4b6134d92a51c7b06bf4cb11e5321",
      "assetIds": []
    },
    {
      "x": 32,
      "y": 304,
      "size": 1,
      "price": "1011000000000000000000",
      "reserved": "",
      "salt": "0xa33ec34cd667d3cf7b8dc0b5b3feb695949c5f2718d3d994c8374d1e1c4f8943",
      "assetIds": []
    },
    {
      "x": 32,
      "y": 305,
      "size": 1,
      "price": "4683000000000000000000",
      "reserved": "",
      "salt": "0x60f8b9390e373da8ff0bd8d2d4a81a6a9067bfaa7949d58cece594986f479fe8",
      "assetIds": []
    },
    {
      "x": 32,
      "y": 312,
      "size": 1,
      "price": "1011000000000000000000",
      "reserved": "",
      "salt": "0xe2c00ef2342f47611c605c79427c993f9310c1bfdfddfe1396e9f7bce3fb3f89",
      "assetIds": []
    },
    {
      "x": 32,
      "y": 313,
      "size": 1,
      "price": "1011000000000000000000",
      "reserved": "",
      "salt": "0x3cfc4e5b2fa59ee1d7e62f9c50161dbde09c40a5c09ac443704dc19b3a44d9b0",
      "assetIds": []
    },
    {
      "x": 32,
      "y": 314,
      "size": 1,
      "price": "1011000000000000000000",
      "reserved": "",
      "salt": "0x8432de72cad817b79bab02570f4d3e63bd8e3c4a0a2da5ea41d3327c239021ce",
      "assetIds": []
    },
    {
      "x": 33,
      "y": 288,
      "size": 1,
      "price": "1011000000000000000000",
      "reserved": "",
      "salt": "0xc061240bd00d19014dd0e3c900b0214bf377585f0526e65849645f19c2795245",
      "assetIds": []
    },
    {
      "x": 33,
      "y": 289,
      "size": 1,
      "price": "1011000000000000000000",
      "reserved": "",
      "salt": "0x46774cc793bdf683271e6f189ab337a8d941bf98ed483250f00e16bd814825e7",
      "assetIds": []
    },
    {
      "x": 33,
      "y": 290,
      "size": 1,
      "price": "1011000000000000000000",
      "reserved": "",
      "salt": "0x32f7a2be82dc95b3c58d5aa096cd19a17e18716bcb45b9c97666c196d5e70dcc",
      "assetIds": []
    },
    {
      "x": 33,
      "y": 291,
      "size": 1,
      "price": "4683000000000000000000",
      "reserved": "",
      "salt": "0x09aaf538f103019d8f1c7164c80dc34f18c7e4c67a4a4d578edeeccaa7c7adc1",
      "assetIds": []
    },
    {
      "x": 33,
      "y": 292,
      "size": 1,
      "price": "1011000000000000000000",
      "reserved": "",
      "salt": "0x90829145640e6cfbc11cc2f1640bcf46317fa24b759d4196e262d5c89fd7ad87",
      "assetIds": []
    },
    {
      "x": 33,
      "y": 293,
      "size": 1,
      "price": "4683000000000000000000",
      "reserved": "",
      "salt": "0x6edb74a60ce3b1d8dfad6f05ecedcf49f71ab66c23c364fc6b1f2cac5b1e98d0",
      "assetIds": []
    },
    {
      "x": 33,
      "y": 294,
      "size": 1,
      "price": "1011000000000000000000",
      "reserved": "",
      "salt": "0xe2f25eb6ea037ea6cc1bffb6061b5b019824e1159949da17b5ae9619a57ca67a",
      "assetIds": []
    },
    {
      "x": 33,
      "y": 295,
      "size": 1,
      "price": "1011000000000000000000",
      "reserved": "",
      "salt": "0xb551c895b907a37dc0ca53600b1e2edd42e3829acad858f49b6d1ae18a1df2b8",
      "assetIds": []
    },
    {
      "x": 33,
      "y": 296,
      "size": 1,
      "price": "1011000000000000000000",
      "reserved": "",
      "salt": "0x5d405115d881c174a74bb1d4fd1df3309196524d1325fe2af39ca71ebda2625f",
      "assetIds": []
    },
    {
      "x": 33,
      "y": 297,
      "size": 1,
      "price": "1011000000000000000000",
      "reserved": "0x7a9fe22691c811ea339d9b73150e6911a5343dca",
      "salt": "0x9bd2b87d328cbab288dc8651922ffce3b28718753797810bd9465d511c9227f1",
      "assetIds": []
    },
    {
      "x": 33,
      "y": 298,
      "size": 1,
      "price": "1011000000000000000000",
      "reserved": "",
      "salt": "0x2f4306dddc32221946323eecf8d331d8fe060e02d4590d09c818f15e1b74154e",
      "assetIds": []
    },
    {
      "x": 33,
      "y": 299,
      "size": 1,
      "price": "1011000000000000000000",
      "reserved": "",
      "salt": "0x81ac21e5fc8119f5645ee4892b769a66bfaa5c6272521149abae60a41cbe2f4b",
      "assetIds": []
    },
    {
      "x": 33,
      "y": 300,
      "size": 1,
      "price": "1011000000000000000000",
      "reserved": "",
      "salt": "0xbcb625654633b05ea2e77233e2cd2b7406b68666cad6612ff7c2b9312ab60a55",
      "assetIds": []
    },
    {
      "x": 33,
      "y": 301,
      "size": 1,
      "price": "1011000000000000000000",
      "reserved": "",
      "salt": "0x753d6ca15f8a0d3b12184fc5e1bd36c1f5d633680afdb792141b273693aaf937",
      "assetIds": []
    },
    {
      "x": 33,
      "y": 302,
      "size": 1,
      "price": "1011000000000000000000",
      "reserved": "",
      "salt": "0x83343f67bfb6be5596b25f7682876023a00b5dfca552414036ef6b342b659707",
      "assetIds": []
    },
    {
      "x": 33,
      "y": 306,
      "size": 1,
      "price": "4683000000000000000000",
      "reserved": "",
      "salt": "0xa56fe1a5e311dc1cf2c340e9216488c35331f68a9f145457989bdf36733252e7",
      "assetIds": []
    },
    {
      "x": 33,
      "y": 307,
      "size": 1,
      "price": "1011000000000000000000",
      "reserved": "",
      "salt": "0xd380b9747ab314a335f455ea0209772322fa8de99a22a16e649da4a07d5eada1",
      "assetIds": []
    },
    {
      "x": 33,
      "y": 308,
      "size": 1,
      "price": "4683000000000000000000",
      "reserved": "",
      "salt": "0xb6db8aba56b60c104836de4b440fad99d3ceb78e80de0e2f85c10b7a04b58695",
      "assetIds": []
    },
    {
      "x": 33,
      "y": 309,
      "size": 1,
      "price": "1011000000000000000000",
      "reserved": "",
      "salt": "0x2f835a810834c50966348b0b048d87376b9294441895715f6a4031d3aaecc19e",
      "assetIds": []
    },
    {
      "x": 33,
      "y": 310,
      "size": 1,
      "price": "1011000000000000000000",
      "reserved": "",
      "salt": "0xa6d31ba176b2395384dc6f3692c5f41cb99dc6b2499cfb5ebaf54bc0c50e1b5d",
      "assetIds": []
    },
    {
      "x": 33,
      "y": 311,
      "size": 1,
      "price": "1011000000000000000000",
      "reserved": "",
      "salt": "0x85da9c1cc960ab44dccebdd5ce62cb0739b7a715ef4734aa46d6469e0c150804",
      "assetIds": []
    },
    {
      "x": 33,
      "y": 312,
      "size": 1,
      "price": "4683000000000000000000",
      "reserved": "",
      "salt": "0x8b83be6d8ab4462f8b36fb5bf07fedbbcc29749f76793c18a64e2ee0cde48c9a",
      "assetIds": []
    },
    {
      "x": 33,
      "y": 313,
      "size": 1,
      "price": "1011000000000000000000",
      "reserved": "0x7a9fe22691c811ea339d9b73150e6911a5343dca",
      "salt": "0xa2c4ab832b402e6d8362a9fd5210a058e1e1fe796f4890c9e19ba5f45d54914e",
      "assetIds": []
    },
    {
      "x": 33,
      "y": 314,
      "size": 1,
      "price": "4683000000000000000000",
      "reserved": "",
      "salt": "0x8c4ff23f7a8196553a8224134e5f42aba8f9a288232a0822e6dad13e24330b57",
      "assetIds": []
    },
    {
      "x": 34,
      "y": 288,
      "size": 1,
      "price": "1011000000000000000000",
      "reserved": "",
      "salt": "0xc42225732b543f8a4a1676dbd8115b8150bdd3935b4188633a1a9c8f61cb6198",
      "assetIds": []
    },
    {
      "x": 34,
      "y": 289,
      "size": 1,
      "price": "1011000000000000000000",
      "reserved": "",
      "salt": "0x9ef315f0b2fac933e22ddeee6eb3cd70e2f5676d24448a7cd1d1151848e1bc7e",
      "assetIds": []
    },
    {
      "x": 34,
      "y": 290,
      "size": 1,
      "price": "1011000000000000000000",
      "reserved": "",
      "salt": "0xa7a8ca7b648b1dc2108f43ca8d7e1337960ad5e62b9d9814a240d893ef79388e",
      "assetIds": []
    },
    {
      "x": 34,
      "y": 291,
      "size": 1,
      "price": "1011000000000000000000",
      "reserved": "",
      "salt": "0xaeca9cc96ddc89c37e87e86639c32ce0b2c5911b78028cbe8d9be40f9f88a5e3",
      "assetIds": []
    },
    {
      "x": 34,
      "y": 292,
      "size": 1,
      "price": "1011000000000000000000",
      "reserved": "",
      "salt": "0x1ff99a0321ff4692e98e3b643d345454c7ba0820f4d22f6e1201a00f4a801544",
      "assetIds": []
    },
    {
      "x": 34,
      "y": 293,
      "size": 1,
      "price": "1011000000000000000000",
      "reserved": "",
      "salt": "0x9e442996244fef9e2300b74ff60d7d021f866f47cceaa16021da0b3d84ad6c19",
      "assetIds": []
    },
    {
      "x": 34,
      "y": 294,
      "size": 1,
      "price": "1011000000000000000000",
      "reserved": "",
      "salt": "0x4f1d4c7ed0794888651537360806dd08e049d219acbec532cb265ab3f7b90976",
      "assetIds": []
    },
    {
      "x": 34,
      "y": 295,
      "size": 1,
      "price": "1011000000000000000000",
      "reserved": "0x7a9fe22691c811ea339d9b73150e6911a5343dca",
      "salt": "0x1bf663ec01b297738c9204247628eeb94871aff7c7c99803f936ac09f4de4b78",
      "assetIds": []
    },
    {
      "x": 34,
      "y": 296,
      "size": 1,
      "price": "1011000000000000000000",
      "reserved": "",
      "salt": "0xdd480caf8c7560dfc9f098c1da5497e6c9d31967f14208959e027a7fc2cf160c",
      "assetIds": []
    },
    {
      "x": 34,
      "y": 297,
      "size": 1,
      "price": "1011000000000000000000",
      "reserved": "",
      "salt": "0xa7f7d62003b125eafc999e825b80bcbd2fb0f40cfceb84ec48642041c0085fae",
      "assetIds": []
    },
    {
      "x": 34,
      "y": 298,
      "size": 1,
      "price": "1011000000000000000000",
      "reserved": "",
      "salt": "0xd18369ec5b1c5f87b59dcf87291f9cec33ffd61998edfc2253f1d93b9b7c0c32",
      "assetIds": []
    },
    {
      "x": 34,
      "y": 299,
      "size": 1,
      "price": "1011000000000000000000",
      "reserved": "",
      "salt": "0xb8548c592eeba2e78e29b79767ad054e8c4be1e82c5b7ed2f7ed690b37a1ce44",
      "assetIds": []
    },
    {
      "x": 34,
      "y": 300,
      "size": 1,
      "price": "1011000000000000000000",
      "reserved": "",
      "salt": "0x4e14f5c6ade25d1ff29dae3f626d885b6c38bc3adc14be09007fa72771db851a",
      "assetIds": []
    },
    {
      "x": 34,
      "y": 301,
      "size": 1,
      "price": "1011000000000000000000",
      "reserved": "",
      "salt": "0x3e5e4799aa613a9247ed9bd0ee8ce069c4fc40909f7e0d8b14a825aa294c25ff",
      "assetIds": []
    },
    {
      "x": 34,
      "y": 302,
      "size": 1,
      "price": "1011000000000000000000",
      "reserved": "",
      "salt": "0x5728cd815d33482ea1cc185a28d498ed0fc694512ab22516116b3faca181529a",
      "assetIds": []
    },
    {
      "x": 34,
      "y": 306,
      "size": 1,
      "price": "1011000000000000000000",
      "reserved": "",
      "salt": "0x10e595de488ec8b30f0825cc2849bcc63d6bb7cfac35ef9e581322d5e0142db6",
      "assetIds": []
    },
    {
      "x": 34,
      "y": 307,
      "size": 1,
      "price": "1011000000000000000000",
      "reserved": "",
      "salt": "0x6d914c3e91f48c56fb5352c7379a737ccfcb67780ddff57dbb2167b26fca7f95",
      "assetIds": []
    },
    {
      "x": 34,
      "y": 308,
      "size": 1,
      "price": "1011000000000000000000",
      "reserved": "",
      "salt": "0x266c91f0b430d347e0704a61ccf8b6001637331524c298224de19b482bdd5f6d",
      "assetIds": []
    },
    {
      "x": 34,
      "y": 309,
      "size": 1,
      "price": "1011000000000000000000",
      "reserved": "",
      "salt": "0x677d05f3435e012cce1eb3cb46bc264b069790989654becaaad96e5283c6d9a6",
      "assetIds": []
    },
    {
      "x": 34,
      "y": 310,
      "size": 1,
      "price": "1011000000000000000000",
      "reserved": "",
      "salt": "0xdf73e704ce30db451a56ed01178f177465eecc7177c2faaae0fa075616f931b5",
      "assetIds": []
    },
    {
      "x": 34,
      "y": 311,
      "size": 1,
      "price": "1011000000000000000000",
      "reserved": "",
      "salt": "0xc3c625b5b9b956e572e10d6b5cb541ad3dddb874f81be602cda7eaeaf7ea2f6b",
      "assetIds": []
    },
    {
      "x": 34,
      "y": 312,
      "size": 1,
      "price": "1011000000000000000000",
      "reserved": "",
      "salt": "0xa3109b0199e276717423db6ce7d58abc32da853756388e9e4f1d25cc51ae6b34",
      "assetIds": []
    },
    {
      "x": 34,
      "y": 313,
      "size": 1,
      "price": "1011000000000000000000",
      "reserved": "",
      "salt": "0x4f9082c0998620a941925455c114a682aeb610eb9e41b142e52c2b5d1a7a3efc",
      "assetIds": []
    },
    {
      "x": 34,
      "y": 314,
      "size": 1,
      "price": "1011000000000000000000",
      "reserved": "",
      "salt": "0xbfb3c5e5955a7e4a12f5f55b29f7176291c13095c910c82371ea1ae3b5cddb25",
      "assetIds": []
    },
    {
      "x": 35,
      "y": 288,
      "size": 1,
      "price": "1011000000000000000000",
      "reserved": "",
      "salt": "0x13477789120c168611807749c77cb75083771473d4d5b3367feed71555a44b85",
      "assetIds": []
    },
    {
      "x": 35,
      "y": 289,
      "size": 1,
      "price": "1011000000000000000000",
      "reserved": "",
      "salt": "0xb113db7da9c7de5e612a93af8c126bba2a07f474c2aae4ec01c70a6573fcfd9c",
      "assetIds": []
    },
    {
      "x": 35,
      "y": 290,
      "size": 1,
      "price": "1011000000000000000000",
      "reserved": "",
      "salt": "0xbe4f06c3c7130bbc25c75f0bb514808b8726816ad10b52b94eb4ee4caa7746f3",
      "assetIds": []
    },
    {
      "x": 35,
      "y": 291,
      "size": 1,
      "price": "1011000000000000000000",
      "reserved": "",
      "salt": "0x4ee9e33c49e868f19d6315c6d53a9c5606cc37801c7f4d617eab368b872673c7",
      "assetIds": []
    },
    {
      "x": 35,
      "y": 292,
      "size": 1,
      "price": "1011000000000000000000",
      "reserved": "",
      "salt": "0xd193b6dbbb332d84e9acd17485fa8689964d8e5a81192b5281484ad5e0bf5981",
      "assetIds": []
    },
    {
      "x": 35,
      "y": 293,
      "size": 1,
      "price": "1011000000000000000000",
      "reserved": "",
      "salt": "0x4193bebc6c7fffc55cb6d49bb15a0193affed86a9d82a1437857b73f9b19a6af",
      "assetIds": []
    },
    {
      "x": 35,
      "y": 294,
      "size": 1,
      "price": "1011000000000000000000",
      "reserved": "",
      "salt": "0x906d2979655a7b0bcffea87f6621a6561ab431edf4138b853084949c6001b54d",
      "assetIds": []
    },
    {
      "x": 35,
      "y": 295,
      "size": 1,
      "price": "1011000000000000000000",
      "reserved": "",
      "salt": "0xdb51c50a52b248064aa541b78f8eaf205f432547b5576ac352fae74be61b7d27",
      "assetIds": []
    },
    {
      "x": 35,
      "y": 296,
      "size": 1,
      "price": "1011000000000000000000",
      "reserved": "",
      "salt": "0x764eab48ec265c9bb58634382e2e6b9eb84fd61aa3068e2255193d70dfdb923b",
      "assetIds": []
    },
    {
      "x": 35,
      "y": 297,
      "size": 1,
      "price": "1011000000000000000000",
      "reserved": "",
      "salt": "0x5ccadf05b7f4c5b1c5fc0a8fd6a0ca4e3372a5898ba49e3677ee37e24164f72e",
      "assetIds": []
    },
    {
      "x": 35,
      "y": 298,
      "size": 1,
      "price": "1011000000000000000000",
      "reserved": "",
      "salt": "0x6414fbc496bbf03d57a2c8794cf5d0b3bc061d9f122ef53c88437276b65bc7f7",
      "assetIds": []
    },
    {
      "x": 35,
      "y": 299,
      "size": 1,
      "price": "1011000000000000000000",
      "reserved": "",
      "salt": "0x1a9c92a98beb2a1d67fef87afaababe86a7b3ee081af7dd15c38ebc2ba60046f",
      "assetIds": []
    },
    {
      "x": 35,
      "y": 300,
      "size": 1,
      "price": "1011000000000000000000",
      "reserved": "",
      "salt": "0xb0c0556042c0b6018a97040d9890c0dbc0f27b44522aeb7a4f95a2ae3272f273",
      "assetIds": []
    },
    {
      "x": 35,
      "y": 301,
      "size": 1,
      "price": "1011000000000000000000",
      "reserved": "",
      "salt": "0xac9f833d4e3418ed66edd42f0eddb4c521da205ebdcd969708b60c39291383f3",
      "assetIds": []
    },
    {
      "x": 35,
      "y": 302,
      "size": 1,
      "price": "1011000000000000000000",
      "reserved": "",
      "salt": "0x097499f9ec1c653d5fefd680236505c3ed41504dd24065073420d3664f2ed05d",
      "assetIds": []
    },
    {
      "x": 35,
      "y": 306,
      "size": 1,
      "price": "1011000000000000000000",
      "reserved": "",
      "salt": "0x1090cf33cf6cb64e512c88bc742a6a53edb5bb180f837e1ea4e9661a2e2017b0",
      "assetIds": []
    },
    {
      "x": 35,
      "y": 307,
      "size": 1,
      "price": "1011000000000000000000",
      "reserved": "",
      "salt": "0x36504b3f8cbf1d1fb5de9daa8669ca5e248f7fac3ed5718f15ca24519ba5dfe1",
      "assetIds": []
    },
    {
      "x": 35,
      "y": 308,
      "size": 1,
      "price": "1011000000000000000000",
      "reserved": "",
      "salt": "0x056302e5c118dc24302482f87f6be712666f73d03c71aed76cc9120e8e42f1c8",
      "assetIds": []
    },
    {
      "x": 35,
      "y": 309,
      "size": 1,
      "price": "1011000000000000000000",
      "reserved": "",
      "salt": "0xc6ab9dea4802f17548c4cd7aa01d68c44455fdeb043309b5b54e0e8dc3b4b80b",
      "assetIds": []
    },
    {
      "x": 35,
      "y": 310,
      "size": 1,
      "price": "1011000000000000000000",
      "reserved": "",
      "salt": "0x6ba08f1dda82a2d5b8999017ab33171cb548b32bde8b1c3de4550e1b054f6615",
      "assetIds": []
    },
    {
      "x": 35,
      "y": 311,
      "size": 1,
      "price": "1011000000000000000000",
      "reserved": "",
      "salt": "0x2ed2af93a9ab02ce91d3fc2062f3969faa6a3c10af3b491120697aa4ada4e258",
      "assetIds": []
    },
    {
      "x": 35,
      "y": 312,
      "size": 1,
      "price": "1011000000000000000000",
      "reserved": "",
      "salt": "0x37741e0dc09a28f20253424e065fc006a62ca1e0f2b9178e3932418ddda09a06",
      "assetIds": []
    },
    {
      "x": 35,
      "y": 313,
      "size": 1,
      "price": "1011000000000000000000",
      "reserved": "",
      "salt": "0x9a983cbac954a1e1ec8c0bc1548f1b711b8710e3fbd846b73e13c2c3162bb1a4",
      "assetIds": []
    },
    {
      "x": 35,
      "y": 314,
      "size": 1,
      "price": "1011000000000000000000",
      "reserved": "",
      "salt": "0xacb14e29052034e867141d1a90b5b9e140ee2814d9f8c012b9f2df0c615f239d",
      "assetIds": []
    }
  ],
  "solcInputHash": "b42a863a795806b4ea3a8f05dfa42539",
  "bytecode": "0x6101606040523480156200001257600080fd5b50604051620031e9380380620031e983398181016040526101a08110156200003957600080fd5b508051602082015160408301516060840151608085015160a086015160c087015160e08801516101008901516101208a01516101408b01516101608c0151610180909c015160016000559a9b999a9899979896979596949593949293919290919085856001600160a01b038216620000f8576040805162461bcd60e51b815260206004820152601f60248201527f526566657272616c56616c696461746f723a207a65726f206164647265737300604482015290519081900360640190fd5b600380546001600160a01b0319166001600160a01b0393841617905560045562000130908e1662000459602090811b62002adc17901c565b6200016d5760405162461bcd60e51b8152600401808060200182810382526025815260200180620031c46025913960400191505060405180910390fd5b6200018c8c6001600160a01b03166200045960201b62002adc1760201c565b620001c95760405162461bcd60e51b8152600401808060200182810382526025815260200180620031c46025913960400191505060405180910390fd5b6001600160a01b038b1662000214576040805162461bcd60e51b815260206004820181905260248201526000805160206200317f833981519152604482015290519081900360640190fd5b6001600160a01b038a166200025f576040805162461bcd60e51b815260206004820181905260248201526000805160206200317f833981519152604482015290519081900360640190fd5b6001600160a01b038916620002aa576040805162461bcd60e51b815260206004820181905260248201526000805160206200317f833981519152604482015290519081900360640190fd5b620002c9836001600160a01b03166200045960201b62002adc1760201c565b620003065760405162461bcd60e51b8152600401808060200182810382526025815260200180620031c46025913960400191505060405180910390fd5b6001600160a01b03821662000351576040805162461bcd60e51b815260206004820181905260248201526000805160206200317f833981519152604482015290519081900360640190fd5b62000370816001600160a01b03166200045960201b62002adc1760201c565b620003ad5760405162461bcd60e51b8152600401808060200182810382526025815260200180620031c46025913960400191505060405180910390fd5b6001600160601b031960608e811b821660a0528d901b1660c052620003dd8b60016001600160e01b036200045f16565b600680546001600160a01b039a8b166001600160a01b031991821617909155610140989098526101209690965260018054998916998816999099179098556001600160601b0319606092831b811660e05290821b811660805296901b909516610100525060078054919093169116179055506200050a92505050565b3b151590565b6001600160a01b038216620004a65760405162461bcd60e51b81526004018080602001828103825260258152602001806200319f6025913960400191505060405180910390fd5b6001600160a01b038216600081815260026020908152604091829020805460ff191685151590811790915582519384529083015280517fb21eb88b4e33b3f1281830a7178d74d8aa73220416215726b68ae23d539515cb9281900390910190a15050565b60805160601c60a05160601c60c05160601c60e05160601c6101005160601c6101205161014051612bef6200059060003980610be0528061247e525080610bbc528061159d5250806124fc525080611af25280611c4f525080611aa85280611e4e52806124d9525080611b235280611c205250806111075280611f3a5250612bef6000f3fe608060405234801561001057600080fd5b50600436106101365760003560e01c8063984d6252116100b2578063c10a420811610081578063dc5074af11610066578063dc5074af146108a0578063e56f8a9e146108c6578063f23a6e61146108e357610136565b8063c10a4208146107c1578063caed35001461089857610136565b8063984d62521461055f578063ab1cc78c14610631578063b522ecff14610639578063bc197c811461065f57610136565b806365194ce71161010957806378e6e5b9116100ee57806378e6e5b9146104e55780638a04af6a1461050b5780638f2839701461053957610136565b806365194ce7146103635780636e9960c3146104c157610136565b80631187fd3c1461013b57806325cb5bc01461031b578063495906571461033557806358bc29441461033d575b600080fd5b610319600480360361012081101561015257600080fd5b6001600160a01b038235811692602081013582169260408201359092169181019060808101606082013564010000000081111561018e57600080fd5b8201836020820111156101a057600080fd5b803590602001918460208302840111640100000000831117156101c257600080fd5b919390928235926040810190602001356401000000008111156101e457600080fd5b8201836020820111156101f657600080fd5b8035906020019184602083028401116401000000008311171561021857600080fd5b91939092909160208101903564010000000081111561023657600080fd5b82018360208201111561024857600080fd5b8035906020019184602083028401116401000000008311171561026a57600080fd5b91939092909160208101903564010000000081111561028857600080fd5b82018360208201111561029a57600080fd5b803590602001918460018302840111640100000000831117156102bc57600080fd5b9193909290916020810190356401000000008111156102da57600080fd5b8201836020820111156102ec57600080fd5b8035906020019184600183028401116401000000008311171561030e57600080fd5b509092509050610978565b005b610323610bba565b60408051918252519081900360200190f35b610323610bde565b6103196004803603602081101561035357600080fd5b50356001600160a01b0316610c02565b6104096004803603602081101561037957600080fd5b81019060208101813564010000000081111561039457600080fd5b8201836020820111156103a657600080fd5b803590602001918460018302840111640100000000831117156103c857600080fd5b91908080601f016020809104026020016040519081016040528093929190818152602001838380828437600092019190915250929550610d2e945050505050565b6040518080602001866001600160a01b03166001600160a01b03168152602001856001600160a01b03166001600160a01b03168152602001848152602001838152602001828103825287818151815260200191508051906020019080838360005b8381101561048257818101518382015260200161046a565b50505050905090810190601f1680156104af5780820380516001836020036101000a031916815260200191505b50965050505050505060405180910390f35b6104c9610e33565b604080516001600160a01b039092168252519081900360200190f35b610319600480360360208110156104fb57600080fd5b50356001600160a01b0316610e42565b6103196004803603604081101561052157600080fd5b506001600160a01b0381351690602001351515610f00565b6103196004803603602081101561054f57600080fd5b50356001600160a01b0316610f6d565b6103196004803603606081101561057557600080fd5b6001600160a01b0382351691908101906040810160208201356401000000008111156105a057600080fd5b8201836020820111156105b257600080fd5b803590602001918460208302840111640100000000831117156105d457600080fd5b9193909290916020810190356401000000008111156105f257600080fd5b82018360208201111561060457600080fd5b8035906020019184602083028401116401000000008311171561062657600080fd5b5090925090506110a6565b610323611231565b6103196004803603602081101561064f57600080fd5b50356001600160a01b0316611237565b61078c600480360360a081101561067557600080fd5b6001600160a01b0382358116926020810135909116918101906060810160408201356401000000008111156106a957600080fd5b8201836020820111156106bb57600080fd5b803590602001918460208302840111640100000000831117156106dd57600080fd5b9193909290916020810190356401000000008111156106fb57600080fd5b82018360208201111561070d57600080fd5b8035906020019184602083028401116401000000008311171561072f57600080fd5b91939092909160208101903564010000000081111561074d57600080fd5b82018360208201111561075f57600080fd5b8035906020019184600183028401116401000000008311171561078157600080fd5b509092509050611348565b604080517fffffffff000000000000000000000000000000000000000000000000000000009092168252519081900360200190f35b610884600480360360a08110156107d757600080fd5b8101906020810181356401000000008111156107f257600080fd5b82018360208201111561080457600080fd5b8035906020019184600183028401116401000000008311171561082657600080fd5b91908080601f016020809104026020016040519081016040528093929190818152602001838380828437600092019190915250929550506001600160a01b038335811694506020840135169260408101359250606001359050611375565b604080519115158252519081900360200190f35b6104c96114b1565b610884600480360360208110156108b657600080fd5b50356001600160a01b03166114c0565b610319600480360360208110156108dc57600080fd5b50356114de565b61078c600480360360a08110156108f957600080fd5b6001600160a01b03823581169260208101359091169160408201359160608101359181019060a08101608082013564010000000081111561093957600080fd5b82018360208201111561094b57600080fd5b8035906020019184600183028401116401000000008311171561096d57600080fd5b509092509050611570565b600260005414156109d0576040805162461bcd60e51b815260206004820152601f60248201527f5265656e7472616e637947756172643a207265656e7472616e742063616c6c00604482015290519081900360640190fd5b60026000556109df8e8d61159b565b610ad68d8d8d8d80806020026020016040519081016040528093929190818152602001838360200280828437600081840152601f19601f820116905080830192505050505050508c8c8c80806020026020016040519081016040528093929190818152602001838360200280828437600081840152601f19601f820116905080830192505050505050508b8b8080602002602001604051908101604052809392919081815260200183836020028082843760009201919091525050604080516020601f8d018190048102820181019092528b815292508b91508a90819084018382808284376000920191909152506116fe92505050565b610b2a8e8c8c6003818110610ae757fe5b9050602002013586868080601f016020809104026020016040519081016040528093929190818152602001838380828437600092019190915250611a8192505050565b610b688e8e8d8d80806020026020016040519081016040528093929190818152602001838360200280828437600092019190915250611ad292505050565b610ba58d898980806020026020016040519081016040528093929190818152602001838360200280828437600092019190915250611ec392505050565b50506001600055505050505050505050505050565b7f000000000000000000000000000000000000000000000000000000000000000090565b7f000000000000000000000000000000000000000000000000000000000000000090565b6001546001600160a01b03163314610c61576040805162461bcd60e51b815260206004820152601260248201527f6f6e6c792061646d696e20616c6c6f7765640000000000000000000000000000604482015290519081900360640190fd5b6001600160a01b038116610cbc576040805162461bcd60e51b815260206004820152601f60248201527f526566657272616c56616c696461746f723a207a65726f206164647265737300604482015290519081900360640190fd5b600380546001600160a01b03908116600090815260056020526040808220620d2f0042019055835473ffffffffffffffffffffffffffffffffffffffff1916928516928317909355915190917fbbb5fb2ee7e707ae0c968f63e94211ea81e66a718c34e2f810a7619e5678a21791a250565b606060008060008060606000806000808a80602001905160a0811015610d5357600080fd5b8101908080516040519392919084640100000000821115610d7357600080fd5b908301906020820185811115610d8857600080fd5b8251640100000000811182820188101715610da257600080fd5b82525081516020918201929091019080838360005b83811015610dcf578181015183820152602001610db7565b50505050905090810190601f168015610dfc5780820380516001836020036101000a031916815260200191505b5060409081526020820151908201516060830151608090930151959f50909d509b5099509197505050505050505091939590929450565b6001546001600160a01b031690565b6001546001600160a01b03163314610e8b5760405162461bcd60e51b8152600401808060200182810382526023815260200180612b056023913960400191505060405180910390fd5b6001600160a01b038116610ee6576040805162461bcd60e51b815260206004820152601f60248201527f526566657272616c56616c696461746f723a207a65726f206164647265737300604482015290519081900360640190fd5b6001600160a01b0316600090815260056020526040812055565b6001546001600160a01b03163314610f5f576040805162461bcd60e51b815260206004820152601260248201527f6f6e6c792061646d696e20616c6c6f7765640000000000000000000000000000604482015290519081900360640190fd5b610f698282612087565b5050565b6001546001600160a01b03163314610fcc576040805162461bcd60e51b815260206004820152601b60248201527f6f6e6c792061646d696e2063616e206368616e67652061646d696e0000000000604482015290519081900360640190fd5b6001546001600160a01b038281169116141561102f576040805162461bcd60e51b815260206004820152600d60248201527f616c72656164792061646d696e00000000000000000000000000000000000000604482015290519081900360640190fd5b600154604080516001600160a01b039283168152918316602083015280517f7e644d79422f17c01e4894b5f4f588d331ebfa28653d42ae832dc59e38c9798f9281900390910190a16001805473ffffffffffffffffffffffffffffffffffffffff19166001600160a01b0392909216919091179055565b6001546001600160a01b03163314611105576040805162461bcd60e51b815260206004820152600e60248201527f4e4f545f415554484f52495a4544000000000000000000000000000000000000604482015290519081900360640190fd5b7f00000000000000000000000000000000000000000000000000000000000000006001600160a01b0316632eb2c2d63087878787876040518763ffffffff1660e01b815260040180876001600160a01b03166001600160a01b03168152602001866001600160a01b03166001600160a01b031681526020018060200180602001806020018481038452888882818152602001925060200280828437600083820152601f01601f19169091018581038452868152602090810191508790870280828437600081840152601f19601f8201169050808301925050508481038252600081526020016020019950505050505050505050600060405180830381600087803b15801561121257600080fd5b505af1158015611226573d6000803e3d6000fd5b505050505050505050565b60045490565b6001600160a01b038116611292576040805162461bcd60e51b815260206004820152600c60248201527f5a45524f5f414444524553530000000000000000000000000000000000000000604482015290519081900360640190fd5b6001546001600160a01b031633146112f1576040805162461bcd60e51b815260206004820152600e60248201527f4e4f545f415554484f52495a4544000000000000000000000000000000000000604482015290519081900360640190fd5b6006805473ffffffffffffffffffffffffffffffffffffffff19166001600160a01b0383169081179091556040517f4d66958b757eb92a1b43d02be4c38c9500b73f532420ee3706cb43d420ba023690600090a250565b7fbc197c810000000000000000000000000000000000000000000000000000000098975050505050505050565b60006004548211806113985750836001600160a01b0316856001600160a01b0316145b806113a257508242115b156113af575060006114a8565b60408051606087811b7fffffffffffffffffffffffffffffffffffffffff0000000000000000000000009081166020808501919091529188901b166034830152604882018690526068808301869052835180840390910181526088830184528051908201207f19457468657265756d205369676e6564204d6573736167653a0a33320000000060a884015260c48084018290528451808503909101815260e49093019093528151910120600090611466908961214e565b6001600160a01b0381166000908152600560205260409020549091504211611493576001925050506114a8565b6003546001600160a01b039081169116149150505b95945050505050565b6003546001600160a01b031690565b6001600160a01b031660009081526002602052604090205460ff1690565b6001546001600160a01b0316331461153d576040805162461bcd60e51b815260206004820152601260248201527f6f6e6c792061646d696e20616c6c6f7765640000000000000000000000000000604482015290519081900360640190fd5b600481905560405181907f774069781371d65424b3b0b101c1d40014532cac040f979595b99a3fcf8ce08c90600090a250565b7ff23a6e61000000000000000000000000000000000000000000000000000000009695505050505050565b7f0000000000000000000000000000000000000000000000000000000000000000421061160f576040805162461bcd60e51b815260206004820152600c60248201527f53414c455f49535f4f5645520000000000000000000000000000000000000000604482015290519081900360640190fd5b6001600160a01b03821633148061163557503360009081526002602052604090205460ff165b611686576040805162461bcd60e51b815260206004820152600e60248201527f4e4f545f415554484f52495a4544000000000000000000000000000000000000604482015290519081900360640190fd5b6001600160a01b03811615806116ad5750816001600160a01b0316816001600160a01b0316145b610f69576040805162461bcd60e51b815260206004820152600d60248201527f52455345525645445f4c414e4400000000000000000000000000000000000000604482015290519081900360640190fd5b600087878760008151811061170f57fe5b60200260200101518860018151811061172457fe5b60200260200101518960028151811061173957fe5b60200260200101518a60038151811061174e57fe5b60200260200101518a8a60405160200180828051906020019060200280838360005b83811015611788578181015183820152602001611770565b50505050905001915050604051602081830303815290604052805190602001208a60405160200180828051906020019060200280838360005b838110156117d95781810151838201526020016117c1565b5050505090500191505060405160208183030381529060405280519060200120604051602001808a6001600160a01b03166001600160a01b031660601b8152601401896001600160a01b03166001600160a01b031660601b81526014018881526020018781526020018681526020018581526020018481526020018381526020018281526020019950505050505050505050604051602081830303815290604052805190602001209050600760009054906101000a90046001600160a01b03166001600160a01b031663012847ed83836040518363ffffffff1660e01b81526004018080602001838152602001828103825284818151815260200191508051906020019080838360005b838110156118fb5781810151838201526020016118e3565b50505050905090810190601f1680156119285780820380516001836020036101000a031916815260200191505b50935050505060206040518083038186803b15801561194657600080fd5b505afa15801561195a573d6000803e3d6000fd5b505050506040513d602081101561197057600080fd5b50516119c3576040805162461bcd60e51b815260206004820152600c60248201527f494e56414c49445f415554480000000000000000000000000000000000000000604482015290519081900360640190fd5b6000611a24876000815181106119d557fe5b6020026020010151886001815181106119ea57fe5b6020026020010151896002815181106119ff57fe5b60200260200101518a600381518110611a1457fe5b60200260200101518c8b8b612337565b9050611a3084826123dc565b611226576040805162461bcd60e51b815260206004820152600c60248201527f494e56414c49445f4c414e440000000000000000000000000000000000000000604482015290519081900360640190fd5b6000611a8d84846124a5565b600654909150611acc908590839085906001600160a01b03167f000000000000000000000000000000000000000000000000000000000000000061253f565b50505050565b80600281518110611adf57fe5b602002602001015160011480611b1c57507f00000000000000000000000000000000000000000000000000000000000000006001600160a01b0316155b15611c1e577f00000000000000000000000000000000000000000000000000000000000000006001600160a01b0316636e1e3bbf8383600281518110611b5e57fe5b602002602001015184600081518110611b7357fe5b602002602001015185600181518110611b8857fe5b60200260200101516040518563ffffffff1660e01b815260040180856001600160a01b03166001600160a01b031681526020018481526020018381526020018281526020018060200182810382526000815260200160200195505050505050600060405180830381600087803b158015611c0157600080fd5b505af1158015611c15573d6000803e3d6000fd5b50505050611dbe565b7f00000000000000000000000000000000000000000000000000000000000000006001600160a01b0316636e1e3bbf7f000000000000000000000000000000000000000000000000000000000000000083600281518110611c7b57fe5b602002602001015184600081518110611c9057fe5b602002602001015185600181518110611ca557fe5b60200260200101518760405160200180826001600160a01b03166001600160a01b031681526020019150506040516020818303038152906040526040518663ffffffff1660e01b815260040180866001600160a01b03166001600160a01b0316815260200185815260200184815260200183815260200180602001828103825283818151815260200191508051906020019080838360005b83811015611d55578181015183820152602001611d3d565b50505050905090810190601f168015611d825780820380516001836020036101000a031916815260200191505b509650505050505050600060405180830381600087803b158015611da557600080fd5b505af1158015611db9573d6000803e3d6000fd5b505050505b61019881600181518110611dce57fe5b60200260200101510281600081518110611de457fe5b602002602001015101826001600160a01b0316846001600160a01b03167fe4dfa6ac11314892f3029b34a25b1a887da3b1cab2bbf8506d87128ba6e3ac0284600281518110611e2f57fe5b602002602001015185600381518110611e4457fe5b60200260200101517f000000000000000000000000000000000000000000000000000000000000000087600381518110611e7a57fe5b602002602001015160405180858152602001848152602001836001600160a01b03166001600160a01b0316815260200182815260200194505050505060405180910390a4505050565b6060815167ffffffffffffffff81118015611edd57600080fd5b50604051908082528060200260200182016040528015611f07578160200160208202803683370190505b50905060005b8251811015611f37576001828281518110611f2457fe5b6020908102919091010152600101611f0d565b507f00000000000000000000000000000000000000000000000000000000000000006001600160a01b0316632eb2c2d6308585856040518563ffffffff1660e01b815260040180856001600160a01b03166001600160a01b03168152602001846001600160a01b03166001600160a01b03168152602001806020018060200180602001848103845286818151815260200191508051906020019060200280838360005b83811015611ff2578181015183820152602001611fda565b50505050905001848103835285818151815260200191508051906020019060200280838360005b83811015612031578181015183820152602001612019565b50505050905001848103825260008152602001602001975050505050505050600060405180830381600087803b15801561206a57600080fd5b505af115801561207e573d6000803e3d6000fd5b50505050505050565b6001600160a01b0382166120cc5760405162461bcd60e51b8152600401808060200182810382526025815260200180612b6b6025913960400191505060405180910390fd5b6001600160a01b03821660008181526002602090815260409182902080547fffffffffffffffffffffffffffffffffffffffffffffffffffffffffffffff001685151590811790915582519384529083015280517fb21eb88b4e33b3f1281830a7178d74d8aa73220416215726b68ae23d539515cb9281900390910190a15050565b600081516041146121a6576040805162461bcd60e51b815260206004820152601f60248201527f45434453413a20696e76616c6964207369676e6174757265206c656e67746800604482015290519081900360640190fd5b60208201516040830151606084015160001a7f7fffffffffffffffffffffffffffffff5d576e7357a4501ddfe92f46681b20a08211156122175760405162461bcd60e51b8152600401808060200182810382526022815260200180612ae36022913960400191505060405180910390fd5b8060ff16601b1415801561222f57508060ff16601c14155b1561226b5760405162461bcd60e51b8152600401808060200182810382526022815260200180612b286022913960400191505060405180910390fd5b60408051600080825260208083018085528a905260ff85168385015260608301879052608083018690529251909260019260a080820193601f1981019281900390910190855afa1580156122c3573d6000803e3d6000fd5b5050604051601f1901519150506001600160a01b03811661232b576040805162461bcd60e51b815260206004820152601860248201527f45434453413a20696e76616c6964207369676e61747572650000000000000000604482015290519081900360640190fd5b93505050505b92915050565b60008787878787878760405160200180888152602001878152602001868152602001858152602001846001600160a01b03166001600160a01b031660601b8152601401838152602001828051906020019060200280838360005b838110156123a9578181015183820152602001612391565b50505050905001975050505050505050604051602081830303815290604052805190602001209050979650505050505050565b600081815b845181101561247b5760008582815181106123f857fe5b60200260200101519050808310156124405782816040516020018083815260200182815260200192505050604051602081830303815290604052805190602001209250612472565b808360405160200180838152602001828152602001925050506040516020818303038152906040528051906020012092505b506001016123e1565b507f0000000000000000000000000000000000000000000000000000000000000000149392505050565b6000806124ca60646124be85600563ffffffff61264716565b9063ffffffff6126a716565b90506125276001600160a01b037f000000000000000000000000000000000000000000000000000000000000000016857f00000000000000000000000000000000000000000000000000000000000000008463ffffffff6126e916565b612537838263ffffffff61277116565b949350505050565b8251819085901561262c57606060008060008061255b8a610d2e565b93985091965094509250905060006125768686868686611375565b15612604576125906125888d84612647565b6127106126a7565b9050886001600160a01b0316846001600160a01b0316866001600160a01b03167fac7a699eb95c3c6d390ec4626de17ef9a67b35891efdb197beba7c7fdd45fac48f858760405180848152602001838152602001828152602001935050505060405180910390a46126018782612771565b96505b8015612625576126256001600160a01b0389168e878463ffffffff6126e916565b5050505050505b61207e6001600160a01b03831688868463ffffffff6126e916565b60008261265657506000612331565b8282028284828161266357fe5b04146126a05760405162461bcd60e51b8152600401808060200182810382526021815260200180612b4a6021913960400191505060405180910390fd5b9392505050565b60006126a083836040518060400160405280601a81526020017f536166654d6174683a206469766973696f6e206279207a65726f0000000000008152506127b3565b604080516001600160a01b0380861660248301528416604482015260648082018490528251808303909101815260849091019091526020810180517bffffffffffffffffffffffffffffffffffffffffffffffffffffffff167f23b872dd00000000000000000000000000000000000000000000000000000000179052611acc908590612855565b60006126a083836040518060400160405280601e81526020017f536166654d6174683a207375627472616374696f6e206f766572666c6f77000081525061290b565b6000818361283f5760405162461bcd60e51b81526004018080602001828103825283818151815260200191508051906020019080838360005b838110156128045781810151838201526020016127ec565b50505050905090810190601f1680156128315780820380516001836020036101000a031916815260200191505b509250505060405180910390fd5b50600083858161284b57fe5b0495945050505050565b60606128aa826040518060400160405280602081526020017f5361666545524332303a206c6f772d6c6576656c2063616c6c206661696c6564815250856001600160a01b03166129659092919063ffffffff16565b805190915015612906578080602001905160208110156128c957600080fd5b50516129065760405162461bcd60e51b815260040180806020018281038252602a815260200180612b90602a913960400191505060405180910390fd5b505050565b6000818484111561295d5760405162461bcd60e51b81526020600482018181528351602484015283519092839260449091019190850190808383600083156128045781810151838201526020016127ec565b505050900390565b60606125378484600085606061297a85612adc565b6129cb576040805162461bcd60e51b815260206004820152601d60248201527f416464726573733a2063616c6c20746f206e6f6e2d636f6e7472616374000000604482015290519081900360640190fd5b60006060866001600160a01b031685876040518082805190602001908083835b60208310612a0a5780518252601f1990920191602091820191016129eb565b6001836020036101000a03801982511681845116808217855250505050505090500191505060006040518083038185875af1925050503d8060008114612a6c576040519150601f19603f3d011682016040523d82523d6000602084013e612a71565b606091505b50915091508115612a855791506125379050565b805115612a955780518082602001fd5b60405162461bcd60e51b81526020600482018181528651602484015286518793919283926044019190850190808383600083156128045781810151838201526020016127ec565b3b15159056fe45434453413a20696e76616c6964207369676e6174757265202773272076616c7565526566657272616c56616c696461746f723a2053656e646572206e6f742061646d696e45434453413a20696e76616c6964207369676e6174757265202776272076616c7565536166654d6174683a206d756c7469706c69636174696f6e206f766572666c6f774d6574615472616e73616374696f6e52656365697665723a207a65726f20616464726573735361666545524332303a204552433230206f7065726174696f6e20646964206e6f742073756363656564a264697066735822122077f2d13cbcb85fa08010a53c1e4ef27117b031e8c1c9273d55cef362af299f3164736f6c6343000605003345737461746553616c6557697468417574683a207a65726f20616464726573734d6574615472616e73616374696f6e52656365697665723a207a65726f206164647265737345737461746553616c6557697468417574683a206973206e6f74206120636f6e7472616374",
  "devdoc": {
    "methods": {
      "buyLandWithSand(address,address,address,uint256[],bytes32,uint256[],bytes32[],bytes,bytes)": {
        "params": {
          "assetIds": "asset ids (lands) that will be bought",
          "buyer": "address that perform the payment",
          "info": "[X_INDEX=0] x coordinate of the Land [Y_INDEX=1] y coordinate of the Land [SIZE_INDEX=2] size of the pack of Land to purchase [PRICE_INDEX=3] price in SAND to purchase that Land",
          "proof": "merkleProof for that particular Land",
          "referral": "referral id",
          "reserved": "the reserved address (if any)",
          "salt": "The salt submitted for verification.",
          "signature": "A signed message specifying tx details",
          "to": "address that will own the purchased Land"
        }
      },
      "changeAdmin(address)": {
        "details": "change the administrator to be `newAdmin`.",
        "params": {
          "newAdmin": "address of the new administrator."
        }
      },
      "disablePreviousSigningWallet(address)": {
        "details": "Disable compromised signing wallet",
        "params": {
          "disableWallet": "The wallet address to be disabled"
        }
      },
      "getAdmin()": {
        "details": "gives the current administrator of this contract.",
        "returns": {
          "_0": "the current administrator of this contract."
        }
      },
      "getSigningWallet()": {
        "details": "signing wallet authorized for referral",
        "returns": {
          "_0": "the address of the signing wallet"
        }
      },
      "isMetaTransactionProcessor(address)": {
        "details": "check whether address `who` is given meta-transaction execution rights.",
        "params": {
          "who": "The address to query."
        },
        "returns": {
          "_0": "whether the address has meta-transaction execution rights."
        }
      },
      "isReferralValid(bytes,address,address,uint256,uint256)": {
        "params": {
          "commissionRate": "The commissionRate of the referral",
          "expiryTime": "The expiry time of the referral",
          "referee": "The address of the referee",
          "referrer": "The address of the referrer",
          "signature": "The signature to check (signed referral)"
        },
        "returns": {
          "_0": "True if the referral is valid"
        }
      },
      "setMetaTransactionProcessor(address,bool)": {
        "details": "Enable or disable the ability of `metaTransactionProcessor` to perform meta-tx (metaTransactionProcessor rights).",
        "params": {
          "enabled": "set whether the metaTransactionProcessor is enabled or disabled.",
          "metaTransactionProcessor": "address that will be given/removed metaTransactionProcessor rights."
        }
      },
      "setReceivingWallet(address)": {
        "params": {
          "newWallet": "address of the new receiving wallet"
        }
      },
      "updateMaxCommissionRate(uint256)": {
        "details": "Update the maximum commission rate",
        "params": {
          "newMaxCommissionRate": "The new maximum commission rate"
        }
      },
      "updateSigningWallet(address)": {
        "details": "Update the signing wallet The previous wallet is still valid for a grace period (_previousSigningDelay). If you want to disable the previous wallet, use the disablePreviousSigningWallet function.",
        "params": {
          "newSigningWallet": "The new address of the signing wallet"
        }
      },
      "withdrawAssets(address,uint256[],uint256[])": {
        "params": {
          "assetIds": "the assetIds to be transferred",
          "to": "intended recipient of the asset tokens",
          "values": "the quantities of the assetIds to be transferred"
        }
      }
    },
    "title": "Estate Sale contract with referral"
  },
  "userdoc": {
    "methods": {
      "buyLandWithSand(address,address,address,uint256[],bytes32,uint256[],bytes32[],bytes,bytes)": {
        "notice": "buy Land with SAND using the merkle proof associated with it"
      },
      "getExpiryTime()": {
        "notice": "Gets the expiry time for the current sale"
      },
      "getMaxCommissionRate()": {
        "notice": "the max commission rate"
      },
      "getMerkleRoot()": {
        "notice": "Gets the Merkle root associated with the current sale"
      },
      "isReferralValid(bytes,address,address,uint256,uint256)": {
        "notice": "Check if a referral is valid"
      },
      "setReceivingWallet(address)": {
        "notice": "set the wallet receiving the proceeds"
      },
      "withdrawAssets(address,uint256[],uint256[])": {
        "notice": "enable Admin to withdraw remaining assets from EstateSaleWithFee contract"
      }
    },
    "notice": "This contract manages the sale of our lands as Estates"
  },
  "storageLayout": {
    "storage": [
      {
        "astId": 1129,
        "contract": "src/solc_0.6/EstateSale/EstateSaleWithAuth.sol:EstateSaleWithAuth",
        "label": "_status",
        "offset": 0,
        "slot": "0",
        "type": "t_uint256"
      },
      {
        "astId": 14099,
        "contract": "src/solc_0.6/EstateSale/EstateSaleWithAuth.sol:EstateSaleWithAuth",
        "label": "_admin",
        "offset": 0,
        "slot": "1",
        "type": "t_address"
      },
      {
        "astId": 14168,
        "contract": "src/solc_0.6/EstateSale/EstateSaleWithAuth.sol:EstateSaleWithAuth",
        "label": "_metaTransactionContracts",
        "offset": 0,
        "slot": "2",
        "type": "t_mapping(t_address,t_bool)"
      },
      {
        "astId": 12200,
        "contract": "src/solc_0.6/EstateSale/EstateSaleWithAuth.sol:EstateSaleWithAuth",
        "label": "_signingWallet",
        "offset": 0,
        "slot": "3",
        "type": "t_address"
      },
      {
        "astId": 12202,
        "contract": "src/solc_0.6/EstateSale/EstateSaleWithAuth.sol:EstateSaleWithAuth",
        "label": "_maxCommissionRate",
        "offset": 0,
        "slot": "4",
        "type": "t_uint256"
      },
      {
        "astId": 12206,
        "contract": "src/solc_0.6/EstateSale/EstateSaleWithAuth.sol:EstateSaleWithAuth",
        "label": "_previousSigningWallets",
        "offset": 0,
        "slot": "5",
        "type": "t_mapping(t_address,t_uint256)"
      },
      {
        "astId": 7750,
        "contract": "src/solc_0.6/EstateSale/EstateSaleWithAuth.sol:EstateSaleWithAuth",
        "label": "_wallet",
        "offset": 0,
        "slot": "6",
        "type": "t_address_payable"
      },
      {
        "astId": 7752,
        "contract": "src/solc_0.6/EstateSale/EstateSaleWithAuth.sol:EstateSaleWithAuth",
        "label": "_authValidator",
        "offset": 0,
        "slot": "7",
        "type": "t_contract(AuthValidator)7063"
      }
    ],
    "types": {
      "t_address": {
        "encoding": "inplace",
        "label": "address",
        "numberOfBytes": "20"
      },
      "t_address_payable": {
        "encoding": "inplace",
        "label": "address payable",
        "numberOfBytes": "20"
      },
      "t_bool": {
        "encoding": "inplace",
        "label": "bool",
        "numberOfBytes": "1"
      },
      "t_contract(AuthValidator)7063": {
        "encoding": "inplace",
        "label": "contract AuthValidator",
        "numberOfBytes": "20"
      },
      "t_mapping(t_address,t_bool)": {
        "encoding": "mapping",
        "key": "t_address",
        "label": "mapping(address => bool)",
        "numberOfBytes": "32",
        "value": "t_bool"
      },
      "t_mapping(t_address,t_uint256)": {
        "encoding": "mapping",
        "key": "t_address",
        "label": "mapping(address => uint256)",
        "numberOfBytes": "32",
        "value": "t_uint256"
      },
      "t_uint256": {
        "encoding": "inplace",
        "label": "uint256",
        "numberOfBytes": "32"
      }
    }
  }
}