{
  "abi": [
    {
      "inputs": [],
      "stateMutability": "nonpayable",
      "type": "constructor"
    },
    {
      "anonymous": false,
      "inputs": [
        {
          "indexed": false,
          "internalType": "uint8",
          "name": "version",
          "type": "uint8"
        }
      ],
      "name": "Initialized",
      "type": "event"
    },
    {
      "anonymous": false,
      "inputs": [
        {
          "indexed": true,
          "internalType": "address",
          "name": "previousOwner",
          "type": "address"
        },
        {
          "indexed": true,
          "internalType": "address",
          "name": "newOwner",
          "type": "address"
        }
      ],
      "name": "OwnershipTransferred",
      "type": "event"
    },
    {
      "inputs": [],
      "name": "VERSION",
      "outputs": [
        {
          "internalType": "string",
          "name": "",
          "type": "string"
        }
      ],
      "stateMutability": "view",
      "type": "function"
    },
    {
      "inputs": [],
      "name": "addressTwo",
      "outputs": [
        {
          "internalType": "address",
          "name": "",
          "type": "address"
        }
      ],
      "stateMutability": "view",
      "type": "function"
    },
    {
      "inputs": [
        {
          "internalType": "address",
          "name": "_owner",
          "type": "address"
        },
        {
          "internalType": "string",
          "name": "_name",
          "type": "string"
        },
        {
          "internalType": "address payable",
          "name": "_someAddress",
          "type": "address"
        },
        {
          "internalType": "address",
          "name": "_addressTwo",
          "type": "address"
        },
        {
          "internalType": "bool",
          "name": "_someBool",
          "type": "bool"
        },
        {
          "internalType": "uint256",
          "name": "_maxSupply",
          "type": "uint256"
        }
      ],
      "name": "initialize",
      "outputs": [],
      "stateMutability": "nonpayable",
      "type": "function"
    },
    {
      "inputs": [],
      "name": "maxSupply",
      "outputs": [
        {
          "internalType": "uint256",
          "name": "",
          "type": "uint256"
        }
      ],
      "stateMutability": "view",
      "type": "function"
    },
    {
      "inputs": [],
      "name": "name",
      "outputs": [
        {
          "internalType": "string",
          "name": "",
          "type": "string"
        }
      ],
      "stateMutability": "view",
      "type": "function"
    },
    {
      "inputs": [],
      "name": "owner",
      "outputs": [
        {
          "internalType": "address",
          "name": "",
          "type": "address"
        }
      ],
      "stateMutability": "view",
      "type": "function"
    },
    {
      "inputs": [],
      "name": "renounceOwnership",
      "outputs": [],
      "stateMutability": "nonpayable",
      "type": "function"
    },
    {
      "inputs": [],
      "name": "someAddress",
      "outputs": [
        {
          "internalType": "address payable",
          "name": "",
          "type": "address"
        }
      ],
      "stateMutability": "view",
      "type": "function"
    },
    {
      "inputs": [],
      "name": "someBool",
      "outputs": [
        {
          "internalType": "bool",
          "name": "",
          "type": "bool"
        }
      ],
      "stateMutability": "view",
      "type": "function"
    },
    {
      "inputs": [
        {
          "internalType": "address",
          "name": "newOwner",
          "type": "address"
        }
      ],
      "name": "transferOwnership",
      "outputs": [],
      "stateMutability": "nonpayable",
      "type": "function"
    }
  ],
  "bytecode": {
    "object": "0x608060405234801561001057600080fd5b5061001961001e565b6100de565b600054610100900460ff161561008a5760405162461bcd60e51b815260206004820152602760248201527f496e697469616c697a61626c653a20636f6e747261637420697320696e697469604482015266616c697a696e6760c81b606482015260840160405180910390fd5b60005460ff90811610156100dc576000805460ff191660ff9081179091556040519081527f7f26b83ff96e1f2b6a682f133852f6798a09c465da95921460cefb38474024989060200160405180910390a15b565b6108f9806100ed6000396000f3fe608060405234801561001057600080fd5b506004361061009e5760003560e01c8063ce8d5d0411610066578063ce8d5d041461012b578063d5abeb011461013e578063d8c98deb14610155578063f2fde38b14610168578063ffa1ad741461017b57600080fd5b806306fdde03146100a357806318e5f16b146100c1578063715018a6146100ec5780638da5cb5b146100f6578063c2779c8614610107575b600080fd5b6100ab61019c565b6040516100b8919061056d565b60405180910390f35b6098546100d4906001600160a01b031681565b6040516001600160a01b0390911681526020016100b8565b6100f461022a565b005b6033546001600160a01b03166100d4565b60995461011b90600160a01b900460ff1681565b60405190151581526020016100b8565b6100f461013936600461060d565b61023e565b610147609a5481565b6040519081526020016100b8565b6099546100d4906001600160a01b031681565b6100f461017636600461070b565b6103c0565b6100ab60405180604001604052806002815260200161563160f01b81525081565b609780546101a99061072f565b80601f01602080910402602001604051908101604052809291908181526020018280546101d59061072f565b80156102225780601f106101f757610100808354040283529160200191610222565b820191906000526020600020905b81548152906001019060200180831161020557829003601f168201915b505050505081565b610232610439565b61023c6000610493565b565b600054610100900460ff161580801561025e5750600054600160ff909116105b806102785750303b158015610278575060005460ff166001145b6102e05760405162461bcd60e51b815260206004820152602e60248201527f496e697469616c697a61626c653a20636f6e747261637420697320616c72656160448201526d191e481a5b9a5d1a585b1a5e995960921b60648201526084015b60405180910390fd5b6000805460ff191660011790558015610303576000805461ff0019166101001790555b61030b6104e5565b610313610515565b609761031f87826107b8565b50609880546001600160a01b0319166001600160a01b0387811691909117909155609980549186166001600160a81b031990921691909117600160a01b85151502179055609a829055610371876103c0565b80156103b7576000805461ff0019169055604051600181527f7f26b83ff96e1f2b6a682f133852f6798a09c465da95921460cefb38474024989060200160405180910390a15b50505050505050565b6103c8610439565b6001600160a01b03811661042d5760405162461bcd60e51b815260206004820152602660248201527f4f776e61626c653a206e6577206f776e657220697320746865207a65726f206160448201526564647265737360d01b60648201526084016102d7565b61043681610493565b50565b6033546001600160a01b0316331461023c5760405162461bcd60e51b815260206004820181905260248201527f4f776e61626c653a2063616c6c6572206973206e6f7420746865206f776e657260448201526064016102d7565b603380546001600160a01b038381166001600160a01b0319831681179093556040519116919082907f8be0079c531659141344cd1fd0a4f28419497f9722a3daafe3b4186f6b6457e090600090a35050565b600054610100900460ff1661050c5760405162461bcd60e51b81526004016102d790610878565b61023c33610493565b600054610100900460ff1661053c5760405162461bcd60e51b81526004016102d790610878565b61023c600054610100900460ff166105665760405162461bcd60e51b81526004016102d790610878565b6001606555565b600060208083528351808285015260005b8181101561059a5785810183015185820160400152820161057e565b818111156105ac576000604083870101525b50601f01601f1916929092016040019392505050565b6001600160a01b038116811461043657600080fd5b80356105e2816105c2565b919050565b634e487b7160e01b600052604160045260246000fd5b803580151581146105e257600080fd5b60008060008060008060c0878903121561062657600080fd5b8635610631816105c2565b9550602087013567ffffffffffffffff8082111561064e57600080fd5b818901915089601f83011261066257600080fd5b813581811115610674576106746105e7565b604051601f8201601f19908116603f0116810190838211818310171561069c5761069c6105e7565b816040528281528c60208487010111156106b557600080fd5b8260208601602083013760006020848301015280995050505050506106dc604088016105d7565b93506106ea606088016105d7565b92506106f8608088016105fd565b915060a087013590509295509295509295565b60006020828403121561071d57600080fd5b8135610728816105c2565b9392505050565b600181811c9082168061074357607f821691505b60208210810361076357634e487b7160e01b600052602260045260246000fd5b50919050565b601f8211156107b357600081815260208120601f850160051c810160208610156107905750805b601f850160051c820191505b818110156107af5782815560010161079c565b5050505b505050565b815167ffffffffffffffff8111156107d2576107d26105e7565b6107e6816107e0845461072f565b84610769565b602080601f83116001811461081b57600084156108035750858301515b600019600386901b1c1916600185901b1785556107af565b600085815260208120601f198616915b8281101561084a5788860151825594840194600190910190840161082b565b50858210156108685787850151600019600388901b60f8161c191681555b5050505050600190811b01905550565b6020808252602b908201527f496e697469616c697a61626c653a20636f6e7472616374206973206e6f74206960408201526a6e697469616c697a696e6760a81b60608201526080019056fea2646970667358221220a0da776ffb7cdece4868034fa4524fa9f2a5d4606f7688d1ea2377ea5a27ba6164736f6c634300080f0033",
    "linkReferences": {}
  },
  "methodIdentifiers": {
    "VERSION()": "ffa1ad74",
    "addressTwo()": "d8c98deb",
    "initialize(address,string,address,address,bool,uint256)": "ce8d5d04",
    "maxSupply()": "d5abeb01",
    "name()": "06fdde03",
    "owner()": "8da5cb5b",
    "renounceOwnership()": "715018a6",
    "someAddress()": "18e5f16b",
    "someBool()": "c2779c86",
    "transferOwnership(address)": "f2fde38b"
  },
  "id": 58
}