{
  "abi": [
    {
      "anonymous": false,
      "inputs": [
        {
          "indexed": true,
          "internalType": "enum CollectionStateManagement.State",
          "name": "oldState",
          "type": "uint8"
        },
        {
          "indexed": true,
          "internalType": "enum CollectionStateManagement.State",
          "name": "newState",
          "type": "uint8"
        }
      ],
      "name": "StateChanged",
      "type": "event"
    },
    {
      "inputs": [
        {
          "internalType": "enum CollectionStateManagement.State",
          "name": "state",
          "type": "uint8"
        }
      ],
      "name": "changeState",
      "outputs": [],
      "stateMutability": "nonpayable",
      "type": "function"
    },
    {
      "inputs": [],
      "name": "currentState",
      "outputs": [
        {
          "internalType": "enum CollectionStateManagement.State",
          "name": "",
          "type": "uint8"
        }
      ],
      "stateMutability": "view",
      "type": "function"
    }
  ],
  "bytecode": {
    "object": "0x608060405234801561001057600080fd5b5061021b806100206000396000f3fe608060405234801561001057600080fd5b50600436106100365760003560e01c80630c3f6acf1461003b578063268f11531461005e575b600080fd5b6000546100489060ff1681565b6040516100559190610195565b60405180910390f35b61007161006c3660046101bd565b610073565b005b60005460ff1681600381111561008b5761008b61017f565b81600381111561009d5761009d61017f565b0361010a5760405162461bcd60e51b815260206004820152603360248201527f436f6c6c656374696f6e53746174654d616e6167656d656e743a20616c726561604482015272647920696e206465736972656420737461746560681b606482015260840160405180910390fd5b6000805483919060ff191660018360038111156101295761012961017f565b02179055508160038111156101405761014061017f565b8160038111156101525761015261017f565b6040517fe8a97ea87e4388fa22d496b95a8ed5ced6717f49790318de2b928aaf37a021d890600090a35050565b634e487b7160e01b600052602160045260246000fd5b60208101600483106101b757634e487b7160e01b600052602160045260246000fd5b91905290565b6000602082840312156101cf57600080fd5b8135600481106101de57600080fd5b939250505056fea2646970667358221220559fb45d63c0459efce81270f58e825e8941b91944f7233aa9490a47652b4b7a64736f6c634300080f0033",
    "linkReferences": {}
  },
  "methodIdentifiers": {
    "changeState(uint8)": "268f1153",
    "currentState()": "0c3f6acf"
  },
  "id": 30
}