{
  "abi": [
    {
      "anonymous": false,
      "inputs": [
        {
          "indexed": true,
          "internalType": "address",
          "name": "owner",
          "type": "address"
        },
        {
          "indexed": true,
          "internalType": "address",
          "name": "approved",
          "type": "address"
        },
        {
          "indexed": true,
          "internalType": "uint256",
          "name": "tokenId",
          "type": "uint256"
        }
      ],
      "name": "Approval",
      "type": "event"
    },
    {
      "anonymous": false,
      "inputs": [
        {
          "indexed": true,
          "internalType": "address",
          "name": "owner",
          "type": "address"
        },
        {
          "indexed": true,
          "internalType": "address",
          "name": "operator",
          "type": "address"
        },
        {
          "indexed": false,
          "internalType": "bool",
          "name": "approved",
          "type": "bool"
        }
      ],
      "name": "ApprovalForAll",
      "type": "event"
    },
    {
      "anonymous": false,
      "inputs": [
        {
          "indexed": false,
          "internalType": "uint8",
          "name": "version",
          "type": "uint8"
        }
      ],
      "name": "Initialized",
      "type": "event"
    },
    {
      "anonymous": false,
      "inputs": [
        {
          "indexed": true,
          "internalType": "address",
          "name": "from",
          "type": "address"
        },
        {
          "indexed": true,
          "internalType": "address",
          "name": "to",
          "type": "address"
        },
        {
          "indexed": true,
          "internalType": "uint256",
          "name": "tokenId",
          "type": "uint256"
        }
      ],
      "name": "Transfer",
      "type": "event"
    },
    {
      "inputs": [
        {
          "internalType": "address",
          "name": "to",
          "type": "address"
        },
        {
          "internalType": "uint256",
          "name": "tokenId",
          "type": "uint256"
        }
      ],
      "name": "approve",
      "outputs": [],
      "stateMutability": "nonpayable",
      "type": "function"
    },
    {
      "inputs": [
        {
          "internalType": "address",
          "name": "owner",
          "type": "address"
        }
      ],
      "name": "balanceOf",
      "outputs": [
        {
          "internalType": "uint256",
          "name": "",
          "type": "uint256"
        }
      ],
      "stateMutability": "view",
      "type": "function"
    },
    {
      "inputs": [
        {
          "internalType": "uint256",
          "name": "tokenId",
          "type": "uint256"
        }
      ],
      "name": "getApproved",
      "outputs": [
        {
          "internalType": "address",
          "name": "",
          "type": "address"
        }
      ],
      "stateMutability": "view",
      "type": "function"
    },
    {
      "inputs": [
        {
          "internalType": "address",
          "name": "owner",
          "type": "address"
        },
        {
          "internalType": "address",
          "name": "operator",
          "type": "address"
        }
      ],
      "name": "isApprovedForAll",
      "outputs": [
        {
          "internalType": "bool",
          "name": "",
          "type": "bool"
        }
      ],
      "stateMutability": "view",
      "type": "function"
    },
    {
      "inputs": [],
      "name": "name",
      "outputs": [
        {
          "internalType": "string",
          "name": "",
          "type": "string"
        }
      ],
      "stateMutability": "view",
      "type": "function"
    },
    {
      "inputs": [
        {
          "internalType": "uint256",
          "name": "tokenId",
          "type": "uint256"
        }
      ],
      "name": "ownerOf",
      "outputs": [
        {
          "internalType": "address",
          "name": "",
          "type": "address"
        }
      ],
      "stateMutability": "view",
      "type": "function"
    },
    {
      "inputs": [
        {
          "internalType": "address",
          "name": "from",
          "type": "address"
        },
        {
          "internalType": "address",
          "name": "to",
          "type": "address"
        },
        {
          "internalType": "uint256",
          "name": "tokenId",
          "type": "uint256"
        }
      ],
      "name": "safeTransferFrom",
      "outputs": [],
      "stateMutability": "nonpayable",
      "type": "function"
    },
    {
      "inputs": [
        {
          "internalType": "address",
          "name": "from",
          "type": "address"
        },
        {
          "internalType": "address",
          "name": "to",
          "type": "address"
        },
        {
          "internalType": "uint256",
          "name": "tokenId",
          "type": "uint256"
        },
        {
          "internalType": "bytes",
          "name": "data",
          "type": "bytes"
        }
      ],
      "name": "safeTransferFrom",
      "outputs": [],
      "stateMutability": "nonpayable",
      "type": "function"
    },
    {
      "inputs": [
        {
          "internalType": "address",
          "name": "operator",
          "type": "address"
        },
        {
          "internalType": "bool",
          "name": "approved",
          "type": "bool"
        }
      ],
      "name": "setApprovalForAll",
      "outputs": [],
      "stateMutability": "nonpayable",
      "type": "function"
    },
    {
      "inputs": [
        {
          "internalType": "bytes4",
          "name": "interfaceId",
          "type": "bytes4"
        }
      ],
      "name": "supportsInterface",
      "outputs": [
        {
          "internalType": "bool",
          "name": "",
          "type": "bool"
        }
      ],
      "stateMutability": "view",
      "type": "function"
    },
    {
      "inputs": [],
      "name": "symbol",
      "outputs": [
        {
          "internalType": "string",
          "name": "",
          "type": "string"
        }
      ],
      "stateMutability": "view",
      "type": "function"
    },
    {
      "inputs": [
        {
          "internalType": "uint256",
          "name": "tokenId",
          "type": "uint256"
        }
      ],
      "name": "tokenURI",
      "outputs": [
        {
          "internalType": "string",
          "name": "",
          "type": "string"
        }
      ],
      "stateMutability": "view",
      "type": "function"
    },
    {
      "inputs": [
        {
          "internalType": "address",
          "name": "from",
          "type": "address"
        },
        {
          "internalType": "address",
          "name": "to",
          "type": "address"
        },
        {
          "internalType": "uint256",
          "name": "tokenId",
          "type": "uint256"
        }
      ],
      "name": "transferFrom",
      "outputs": [],
      "stateMutability": "nonpayable",
      "type": "function"
    }
  ],
  "bytecode": {
    "object": "0x608060405234801561001057600080fd5b506111d5806100206000396000f3fe608060405234801561001057600080fd5b50600436106100cf5760003560e01c80636352211e1161008c578063a22cb46511610066578063a22cb465146101b3578063b88d4fde146101c6578063c87b56dd146101d9578063e985e9c5146101ec57600080fd5b80636352211e1461017757806370a082311461018a57806395d89b41146101ab57600080fd5b806301ffc9a7146100d457806306fdde03146100fc578063081812fc14610111578063095ea7b31461013c57806323b872dd1461015157806342842e0e14610164575b600080fd5b6100e76100e2366004610d14565b610228565b60405190151581526020015b60405180910390f35b61010461027a565b6040516100f39190610d89565b61012461011f366004610d9c565b61030c565b6040516001600160a01b0390911681526020016100f3565b61014f61014a366004610dd1565b610333565b005b61014f61015f366004610dfb565b61044d565b61014f610172366004610dfb565b61047e565b610124610185366004610d9c565b610499565b61019d610198366004610e37565b6104f9565b6040519081526020016100f3565b61010461057f565b61014f6101c1366004610e52565b61058e565b61014f6101d4366004610ea4565b61059d565b6101046101e7366004610d9c565b6105d5565b6100e76101fa366004610f80565b6001600160a01b039182166000908152606a6020908152604080832093909416825291909152205460ff1690565b60006001600160e01b031982166380ac58cd60e01b148061025957506001600160e01b03198216635b5e139f60e01b145b8061027457506301ffc9a760e01b6001600160e01b03198316145b92915050565b60606065805461028990610fb3565b80601f01602080910402602001604051908101604052809291908181526020018280546102b590610fb3565b80156103025780601f106102d757610100808354040283529160200191610302565b820191906000526020600020905b8154815290600101906020018083116102e557829003601f168201915b5050505050905090565b600061031782610649565b506000908152606960205260409020546001600160a01b031690565b600061033e82610499565b9050806001600160a01b0316836001600160a01b0316036103b05760405162461bcd60e51b815260206004820152602160248201527f4552433732313a20617070726f76616c20746f2063757272656e74206f776e656044820152603960f91b60648201526084015b60405180910390fd5b336001600160a01b03821614806103cc57506103cc81336101fa565b61043e5760405162461bcd60e51b815260206004820152603d60248201527f4552433732313a20617070726f76652063616c6c6572206973206e6f7420746f60448201527f6b656e206f776e6572206f7220617070726f76656420666f7220616c6c00000060648201526084016103a7565b61044883836106ab565b505050565b6104573382610719565b6104735760405162461bcd60e51b81526004016103a790610fed565b610448838383610798565b6104488383836040518060200160405280600081525061059d565b6000818152606760205260408120546001600160a01b0316806102745760405162461bcd60e51b8152602060048201526018602482015277115490cdcc8c4e881a5b9d985b1a59081d1bdad95b88125160421b60448201526064016103a7565b60006001600160a01b0382166105635760405162461bcd60e51b815260206004820152602960248201527f4552433732313a2061646472657373207a65726f206973206e6f7420612076616044820152683634b21037bbb732b960b91b60648201526084016103a7565b506001600160a01b031660009081526068602052604090205490565b60606066805461028990610fb3565b610599338383610909565b5050565b6105a73383610719565b6105c35760405162461bcd60e51b81526004016103a790610fed565b6105cf848484846109d7565b50505050565b60606105e082610649565b60006105f760408051602081019091526000815290565b905060008151116106175760405180602001604052806000815250610642565b8061062184610a0a565b60405160200161063292919061103a565b6040516020818303038152906040525b9392505050565b6000818152606760205260409020546001600160a01b03166106a85760405162461bcd60e51b8152602060048201526018602482015277115490cdcc8c4e881a5b9d985b1a59081d1bdad95b88125160421b60448201526064016103a7565b50565b600081815260696020526040902080546001600160a01b0319166001600160a01b03841690811790915581906106e082610499565b6001600160a01b03167f8c5be1e5ebec7d5bd14f71427d1e84f3dd0314c0f7b2291e5b200ac8c7c3b92560405160405180910390a45050565b60008061072583610499565b9050806001600160a01b0316846001600160a01b0316148061076c57506001600160a01b038082166000908152606a602090815260408083209388168352929052205460ff165b806107905750836001600160a01b03166107858461030c565b6001600160a01b0316145b949350505050565b826001600160a01b03166107ab82610499565b6001600160a01b0316146107d15760405162461bcd60e51b81526004016103a790611069565b6001600160a01b0382166108335760405162461bcd60e51b8152602060048201526024808201527f4552433732313a207472616e7366657220746f20746865207a65726f206164646044820152637265737360e01b60648201526084016103a7565b6108408383836001610a9d565b826001600160a01b031661085382610499565b6001600160a01b0316146108795760405162461bcd60e51b81526004016103a790611069565b600081815260696020908152604080832080546001600160a01b03199081169091556001600160a01b0387811680865260688552838620805460001901905590871680865283862080546001019055868652606790945282852080549092168417909155905184937fddf252ad1be2c89b69c2b068fc378daa952ba7f163c4a11628f55a4df523b3ef91a4505050565b816001600160a01b0316836001600160a01b03160361096a5760405162461bcd60e51b815260206004820152601960248201527f4552433732313a20617070726f766520746f2063616c6c65720000000000000060448201526064016103a7565b6001600160a01b038381166000818152606a6020908152604080832094871680845294825291829020805460ff191686151590811790915591519182527f17307eab39ab6107e8899845ad3d59bd9653f200f220920489ca2b5937696c31910160405180910390a3505050565b6109e2848484610798565b6109ee84848484610b25565b6105cf5760405162461bcd60e51b81526004016103a7906110ae565b60606000610a1783610c26565b600101905060008167ffffffffffffffff811115610a3757610a37610e8e565b6040519080825280601f01601f191660200182016040528015610a61576020820181803683370190505b5090508181016020015b600019016f181899199a1a9b1b9c1cb0b131b232b360811b600a86061a8153600a8504945084610a6b57509392505050565b60018111156105cf576001600160a01b03841615610ae3576001600160a01b03841660009081526068602052604081208054839290610add908490611116565b90915550505b6001600160a01b038316156105cf576001600160a01b03831660009081526068602052604081208054839290610b1a90849061112d565b909155505050505050565b60006001600160a01b0384163b15610c1b57604051630a85bd0160e11b81526001600160a01b0385169063150b7a0290610b69903390899088908890600401611145565b6020604051808303816000875af1925050508015610ba4575060408051601f3d908101601f19168201909252610ba191810190611182565b60015b610c01573d808015610bd2576040519150601f19603f3d011682016040523d82523d6000602084013e610bd7565b606091505b508051600003610bf95760405162461bcd60e51b81526004016103a7906110ae565b805181602001fd5b6001600160e01b031916630a85bd0160e11b149050610790565b506001949350505050565b60008072184f03e93ff9f4daa797ed6e38ed64bf6a1f0160401b8310610c655772184f03e93ff9f4daa797ed6e38ed64bf6a1f0160401b830492506040015b6d04ee2d6d415b85acef81000000008310610c91576d04ee2d6d415b85acef8100000000830492506020015b662386f26fc100008310610caf57662386f26fc10000830492506010015b6305f5e1008310610cc7576305f5e100830492506008015b6127108310610cdb57612710830492506004015b60648310610ced576064830492506002015b600a83106102745760010192915050565b6001600160e01b0319811681146106a857600080fd5b600060208284031215610d2657600080fd5b813561064281610cfe565b60005b83811015610d4c578181015183820152602001610d34565b838111156105cf5750506000910152565b60008151808452610d75816020860160208601610d31565b601f01601f19169290920160200192915050565b6020815260006106426020830184610d5d565b600060208284031215610dae57600080fd5b5035919050565b80356001600160a01b0381168114610dcc57600080fd5b919050565b60008060408385031215610de457600080fd5b610ded83610db5565b946020939093013593505050565b600080600060608486031215610e1057600080fd5b610e1984610db5565b9250610e2760208501610db5565b9150604084013590509250925092565b600060208284031215610e4957600080fd5b61064282610db5565b60008060408385031215610e6557600080fd5b610e6e83610db5565b915060208301358015158114610e8357600080fd5b809150509250929050565b634e487b7160e01b600052604160045260246000fd5b60008060008060808587031215610eba57600080fd5b610ec385610db5565b9350610ed160208601610db5565b925060408501359150606085013567ffffffffffffffff80821115610ef557600080fd5b818701915087601f830112610f0957600080fd5b813581811115610f1b57610f1b610e8e565b604051601f8201601f19908116603f01168101908382118183101715610f4357610f43610e8e565b816040528281528a6020848701011115610f5c57600080fd5b82602086016020830137600060208483010152809550505050505092959194509250565b60008060408385031215610f9357600080fd5b610f9c83610db5565b9150610faa60208401610db5565b90509250929050565b600181811c90821680610fc757607f821691505b602082108103610fe757634e487b7160e01b600052602260045260246000fd5b50919050565b6020808252602d908201527f4552433732313a2063616c6c6572206973206e6f7420746f6b656e206f776e6560408201526c1c881bdc88185c1c1c9bdd9959609a1b606082015260800190565b6000835161104c818460208801610d31565b835190830190611060818360208801610d31565b01949350505050565b60208082526025908201527f4552433732313a207472616e736665722066726f6d20696e636f72726563742060408201526437bbb732b960d91b606082015260800190565b60208082526032908201527f4552433732313a207472616e7366657220746f206e6f6e20455243373231526560408201527131b2b4bb32b91034b6b83632b6b2b73a32b960711b606082015260800190565b634e487b7160e01b600052601160045260246000fd5b60008282101561112857611128611100565b500390565b6000821982111561114057611140611100565b500190565b6001600160a01b038581168252841660208201526040810183905260806060820181905260009061117890830184610d5d565b9695505050505050565b60006020828403121561119457600080fd5b815161064281610cfe56fea2646970667358221220c1938b54438d852d8a49d7e3d69c2036b443a804b717d34a7a7d88cde327509164736f6c634300080f0033",
    "linkReferences": {}
  },
  "methodIdentifiers": {
    "approve(address,uint256)": "095ea7b3",
    "balanceOf(address)": "70a08231",
    "getApproved(uint256)": "081812fc",
    "isApprovedForAll(address,address)": "e985e9c5",
    "name()": "06fdde03",
    "ownerOf(uint256)": "6352211e",
    "safeTransferFrom(address,address,uint256)": "42842e0e",
    "safeTransferFrom(address,address,uint256,bytes)": "b88d4fde",
    "setApprovalForAll(address,bool)": "a22cb465",
    "supportsInterface(bytes4)": "01ffc9a7",
    "symbol()": "95d89b41",
    "tokenURI(uint256)": "c87b56dd",
    "transferFrom(address,address,uint256)": "23b872dd"
  },
  "id": 42
}