{
  "address": "0x3D41535AE487912BAE1E83Bb668C4B3a3B8F6E24",
  "abi": [
    {
      "constant": true,
      "inputs": [
        {
          "name": "id",
          "type": "bytes4"
        }
      ],
      "name": "supportsInterface",
      "outputs": [
        {
          "name": "",
          "type": "bool"
        }
      ],
      "payable": false,
      "stateMutability": "pure",
      "type": "function"
    },
    {
      "constant": true,
      "inputs": [],
      "name": "name",
      "outputs": [
        {
          "name": "",
          "type": "string"
        }
      ],
      "payable": false,
      "stateMutability": "pure",
      "type": "function"
    },
    {
      "constant": true,
      "inputs": [
        {
          "name": "id",
          "type": "uint256"
        }
      ],
      "name": "getApproved",
      "outputs": [
        {
          "name": "",
          "type": "address"
        }
      ],
      "payable": false,
      "stateMutability": "view",
      "type": "function"
    },
    {
      "constant": false,
      "inputs": [
        {
          "name": "operator",
          "type": "address"
        },
        {
          "name": "id",
          "type": "uint256"
        }
      ],
      "name": "approve",
      "outputs": [],
      "payable": false,
      "stateMutability": "nonpayable",
      "type": "function"
    },
    {
      "constant": true,
      "inputs": [],
      "name": "height",
      "outputs": [
        {
          "name": "",
          "type": "uint256"
        }
      ],
      "payable": false,
      "stateMutability": "pure",
      "type": "function"
    },
    {
      "constant": false,
      "inputs": [
        {
          "name": "from",
          "type": "address"
        },
        {
          "name": "to",
          "type": "address"
        },
        {
          "name": "ids",
          "type": "uint256[]"
        },
        {
          "name": "data",
          "type": "bytes"
        }
      ],
      "name": "batchTransferFrom",
      "outputs": [],
      "payable": false,
      "stateMutability": "nonpayable",
      "type": "function"
    },
    {
      "constant": false,
      "inputs": [
        {
          "name": "from",
          "type": "address"
        },
        {
          "name": "to",
          "type": "address"
        },
        {
          "name": "id",
          "type": "uint256"
        }
      ],
      "name": "transferFrom",
      "outputs": [],
      "payable": false,
      "stateMutability": "nonpayable",
      "type": "function"
    },
    {
      "constant": false,
      "inputs": [
        {
          "name": "from",
          "type": "address"
        },
        {
          "name": "to",
          "type": "address"
        },
        {
          "name": "ids",
          "type": "uint256[]"
        },
        {
          "name": "data",
          "type": "bytes"
        }
      ],
      "name": "safeBatchTransferFrom",
      "outputs": [],
      "payable": false,
      "stateMutability": "nonpayable",
      "type": "function"
    },
    {
      "constant": false,
      "inputs": [
        {
          "name": "sender",
          "type": "address"
        },
        {
          "name": "operator",
          "type": "address"
        },
        {
          "name": "id",
          "type": "uint256"
        }
      ],
      "name": "approveFor",
      "outputs": [],
      "payable": false,
      "stateMutability": "nonpayable",
      "type": "function"
    },
    {
      "constant": false,
      "inputs": [
        {
          "name": "from",
          "type": "address"
        },
        {
          "name": "to",
          "type": "address"
        },
        {
          "name": "size",
          "type": "uint256"
        },
        {
          "name": "x",
          "type": "uint256"
        },
        {
          "name": "y",
          "type": "uint256"
        },
        {
          "name": "data",
          "type": "bytes"
        }
      ],
      "name": "transferQuad",
      "outputs": [],
      "payable": false,
      "stateMutability": "nonpayable",
      "type": "function"
    },
    {
      "constant": false,
      "inputs": [
        {
          "name": "from",
          "type": "address"
        },
        {
          "name": "to",
          "type": "address"
        },
        {
          "name": "id",
          "type": "uint256"
        }
      ],
      "name": "safeTransferFrom",
      "outputs": [],
      "payable": false,
      "stateMutability": "nonpayable",
      "type": "function"
    },
    {
      "constant": false,
      "inputs": [
        {
          "name": "id",
          "type": "uint256"
        }
      ],
      "name": "burn",
      "outputs": [],
      "payable": false,
      "stateMutability": "nonpayable",
      "type": "function"
    },
    {
      "constant": false,
      "inputs": [
        {
          "name": "metaTransactionContract",
          "type": "address"
        },
        {
          "name": "admin",
          "type": "address"
        }
      ],
      "name": "initialize",
      "outputs": [],
      "payable": false,
      "stateMutability": "nonpayable",
      "type": "function"
    },
    {
      "constant": true,
      "inputs": [
        {
          "name": "size",
          "type": "uint256"
        },
        {
          "name": "x",
          "type": "uint256"
        },
        {
          "name": "y",
          "type": "uint256"
        }
      ],
      "name": "exists",
      "outputs": [
        {
          "name": "",
          "type": "bool"
        }
      ],
      "payable": false,
      "stateMutability": "view",
      "type": "function"
    },
    {
      "constant": true,
      "inputs": [
        {
          "name": "id",
          "type": "uint256"
        }
      ],
      "name": "ownerOf",
      "outputs": [
        {
          "name": "owner",
          "type": "address"
        }
      ],
      "payable": false,
      "stateMutability": "view",
      "type": "function"
    },
    {
      "constant": true,
      "inputs": [
        {
          "name": "who",
          "type": "address"
        }
      ],
      "name": "isSuperOperator",
      "outputs": [
        {
          "name": "",
          "type": "bool"
        }
      ],
      "payable": false,
      "stateMutability": "view",
      "type": "function"
    },
    {
      "constant": false,
      "inputs": [
        {
          "name": "to",
          "type": "address"
        },
        {
          "name": "size",
          "type": "uint256"
        },
        {
          "name": "x",
          "type": "uint256"
        },
        {
          "name": "y",
          "type": "uint256"
        },
        {
          "name": "data",
          "type": "bytes"
        }
      ],
      "name": "mintQuad",
      "outputs": [],
      "payable": false,
      "stateMutability": "nonpayable",
      "type": "function"
    },
    {
      "constant": true,
      "inputs": [],
      "name": "getAdmin",
      "outputs": [
        {
          "name": "",
          "type": "address"
        }
      ],
      "payable": false,
      "stateMutability": "view",
      "type": "function"
    },
    {
      "constant": true,
      "inputs": [
        {
          "name": "owner",
          "type": "address"
        }
      ],
      "name": "balanceOf",
      "outputs": [
        {
          "name": "",
          "type": "uint256"
        }
      ],
      "payable": false,
      "stateMutability": "view",
      "type": "function"
    },
    {
      "constant": false,
      "inputs": [
        {
          "name": "from",
          "type": "address"
        },
        {
          "name": "id",
          "type": "uint256"
        }
      ],
      "name": "burnFrom",
      "outputs": [],
      "payable": false,
      "stateMutability": "nonpayable",
      "type": "function"
    },
    {
      "constant": true,
      "inputs": [
        {
          "name": "id",
          "type": "uint256"
        }
      ],
      "name": "getY",
      "outputs": [
        {
          "name": "",
          "type": "uint256"
        }
      ],
      "payable": false,
      "stateMutability": "view",
      "type": "function"
    },
    {
      "constant": true,
      "inputs": [
        {
          "name": "",
          "type": "address"
        }
      ],
      "name": "_numNFTPerAddress",
      "outputs": [
        {
          "name": "",
          "type": "uint256"
        }
      ],
      "payable": false,
      "stateMutability": "view",
      "type": "function"
    },
    {
      "constant": false,
      "inputs": [
        {
          "name": "metaTransactionProcessor",
          "type": "address"
        },
        {
          "name": "enabled",
          "type": "bool"
        }
      ],
      "name": "setMetaTransactionProcessor",
      "outputs": [],
      "payable": false,
      "stateMutability": "nonpayable",
      "type": "function"
    },
    {
      "constant": true,
      "inputs": [
        {
          "name": "id",
          "type": "uint256"
        }
      ],
      "name": "getX",
      "outputs": [
        {
          "name": "",
          "type": "uint256"
        }
      ],
      "payable": false,
      "stateMutability": "view",
      "type": "function"
    },
    {
      "constant": false,
      "inputs": [
        {
          "name": "newAdmin",
          "type": "address"
        }
      ],
      "name": "changeAdmin",
      "outputs": [],
      "payable": false,
      "stateMutability": "nonpayable",
      "type": "function"
    },
    {
      "constant": true,
      "inputs": [],
      "name": "symbol",
      "outputs": [
        {
          "name": "",
          "type": "string"
        }
      ],
      "payable": false,
      "stateMutability": "pure",
      "type": "function"
    },
    {
      "constant": true,
      "inputs": [
        {
          "name": "",
          "type": "uint256"
        }
      ],
      "name": "_owners",
      "outputs": [
        {
          "name": "",
          "type": "uint256"
        }
      ],
      "payable": false,
      "stateMutability": "view",
      "type": "function"
    },
    {
      "constant": true,
      "inputs": [
        {
          "name": "",
          "type": "address"
        },
        {
          "name": "",
          "type": "address"
        }
      ],
      "name": "_operatorsForAll",
      "outputs": [
        {
          "name": "",
          "type": "bool"
        }
      ],
      "payable": false,
      "stateMutability": "view",
      "type": "function"
    },
    {
      "constant": true,
      "inputs": [],
      "name": "width",
      "outputs": [
        {
          "name": "",
          "type": "uint256"
        }
      ],
      "payable": false,
      "stateMutability": "pure",
      "type": "function"
    },
    {
      "constant": false,
      "inputs": [
        {
          "name": "operator",
          "type": "address"
        },
        {
          "name": "approved",
          "type": "bool"
        }
      ],
      "name": "setApprovalForAll",
      "outputs": [],
      "payable": false,
      "stateMutability": "nonpayable",
      "type": "function"
    },
    {
      "constant": true,
      "inputs": [
        {
          "name": "who",
          "type": "address"
        }
      ],
      "name": "isMinter",
      "outputs": [
        {
          "name": "",
          "type": "bool"
        }
      ],
      "payable": false,
      "stateMutability": "view",
      "type": "function"
    },
    {
      "constant": false,
      "inputs": [
        {
          "name": "superOperator",
          "type": "address"
        },
        {
          "name": "enabled",
          "type": "bool"
        }
      ],
      "name": "setSuperOperator",
      "outputs": [],
      "payable": false,
      "stateMutability": "nonpayable",
      "type": "function"
    },
    {
      "constant": false,
      "inputs": [
        {
          "name": "from",
          "type": "address"
        },
        {
          "name": "to",
          "type": "address"
        },
        {
          "name": "id",
          "type": "uint256"
        },
        {
          "name": "data",
          "type": "bytes"
        }
      ],
      "name": "safeTransferFrom",
      "outputs": [],
      "payable": false,
      "stateMutability": "nonpayable",
      "type": "function"
    },
    {
      "constant": true,
      "inputs": [
        {
          "name": "",
          "type": "uint256"
        }
      ],
      "name": "_operators",
      "outputs": [
        {
          "name": "",
          "type": "address"
        }
      ],
      "payable": false,
      "stateMutability": "view",
      "type": "function"
    },
    {
      "constant": true,
      "inputs": [
        {
          "name": "id",
          "type": "uint256"
        }
      ],
      "name": "tokenURI",
      "outputs": [
        {
          "name": "",
          "type": "string"
        }
      ],
      "payable": false,
      "stateMutability": "view",
      "type": "function"
    },
    {
      "constant": false,
      "inputs": [
        {
          "name": "minter",
          "type": "address"
        },
        {
          "name": "enabled",
          "type": "bool"
        }
      ],
      "name": "setMinter",
      "outputs": [],
      "payable": false,
      "stateMutability": "nonpayable",
      "type": "function"
    },
    {
      "constant": true,
      "inputs": [
        {
          "name": "who",
          "type": "address"
        }
      ],
      "name": "isMetaTransactionProcessor",
      "outputs": [
        {
          "name": "",
          "type": "bool"
        }
      ],
      "payable": false,
      "stateMutability": "view",
      "type": "function"
    },
    {
      "constant": true,
      "inputs": [
        {
          "name": "owner",
          "type": "address"
        },
        {
          "name": "operator",
          "type": "address"
        }
      ],
      "name": "isApprovedForAll",
      "outputs": [
        {
          "name": "isOperator",
          "type": "bool"
        }
      ],
      "payable": false,
      "stateMutability": "view",
      "type": "function"
    },
    {
      "constant": false,
      "inputs": [
        {
          "name": "from",
          "type": "address"
        },
        {
          "name": "to",
          "type": "address"
        },
        {
          "name": "sizes",
          "type": "uint256[]"
        },
        {
          "name": "xs",
          "type": "uint256[]"
        },
        {
          "name": "ys",
          "type": "uint256[]"
        },
        {
          "name": "data",
          "type": "bytes"
        }
      ],
      "name": "batchTransferQuad",
      "outputs": [],
      "payable": false,
      "stateMutability": "nonpayable",
      "type": "function"
    },
    {
      "constant": false,
      "inputs": [
        {
          "name": "sender",
          "type": "address"
        },
        {
          "name": "operator",
          "type": "address"
        },
        {
          "name": "approved",
          "type": "bool"
        }
      ],
      "name": "setApprovalForAllFor",
      "outputs": [],
      "payable": false,
      "stateMutability": "nonpayable",
      "type": "function"
    },
    {
      "anonymous": false,
      "inputs": [
        {
          "indexed": false,
          "name": "superOperator",
          "type": "address"
        },
        {
          "indexed": false,
          "name": "enabled",
          "type": "bool"
        }
      ],
      "name": "Minter",
      "type": "event"
    },
    {
      "anonymous": false,
      "inputs": [
        {
          "indexed": false,
          "name": "metaTransactionProcessor",
          "type": "address"
        },
        {
          "indexed": false,
          "name": "enabled",
          "type": "bool"
        }
      ],
      "name": "MetaTransactionProcessor",
      "type": "event"
    },
    {
      "anonymous": false,
      "inputs": [
        {
          "indexed": false,
          "name": "superOperator",
          "type": "address"
        },
        {
          "indexed": false,
          "name": "enabled",
          "type": "bool"
        }
      ],
      "name": "SuperOperator",
      "type": "event"
    },
    {
      "anonymous": false,
      "inputs": [
        {
          "indexed": false,
          "name": "oldAdmin",
          "type": "address"
        },
        {
          "indexed": false,
          "name": "newAdmin",
          "type": "address"
        }
      ],
      "name": "AdminChanged",
      "type": "event"
    },
    {
      "anonymous": false,
      "inputs": [
        {
          "indexed": true,
          "name": "_from",
          "type": "address"
        },
        {
          "indexed": true,
          "name": "_to",
          "type": "address"
        },
        {
          "indexed": true,
          "name": "_tokenId",
          "type": "uint256"
        }
      ],
      "name": "Transfer",
      "type": "event"
    },
    {
      "anonymous": false,
      "inputs": [
        {
          "indexed": true,
          "name": "_owner",
          "type": "address"
        },
        {
          "indexed": true,
          "name": "_approved",
          "type": "address"
        },
        {
          "indexed": true,
          "name": "_tokenId",
          "type": "uint256"
        }
      ],
      "name": "Approval",
      "type": "event"
    },
    {
      "anonymous": false,
      "inputs": [
        {
          "indexed": true,
          "name": "_owner",
          "type": "address"
        },
        {
          "indexed": true,
          "name": "_operator",
          "type": "address"
        },
        {
          "indexed": false,
          "name": "_approved",
          "type": "bool"
        }
      ],
      "name": "ApprovalForAll",
      "type": "event"
    }
  ],
  "transactionHash": "0xdcb94e2d46ba1c9f19832c97f992b5080a112ea32d4812ecdba639bc4457ec77",
  "args": [],
  "numDeployments": 3,
  "solcInputHash": "6ebb9bf723bd40b5a63e1a8d418c6a00",
  "bytecode": "0x608060405234801561001057600080fd5b50614d47806100206000396000f3fe608060405234801561001057600080fd5b50600436106102c85760003560e01c8063845a46971161017b578063aa271e1a116100d8578063cf456ae71161008c578063e985e9c511610071578063e985e9c514610b79578063eaa5e06714610ba7578063eeb5a5d114610d26576102c8565b8063cf456ae714610b25578063dc5074af14610b53576102c8565b8063b88d4fde116100bd578063b88d4fde14610a25578063b9b710e914610aeb578063c87b56dd14610b08576102c8565b8063aa271e1a146109d1578063ac9fe421146109f7576102c8565b806395d89b411161012f5780639d786bbc116101145780639d786bbc146109755780639ededf77146103ec578063a22cb465146109a3576102c8565b806395d89b4114610950578063992924a614610958576102c8565b80638a04af6a116101605780638a04af6a146108df5780638e5cb5f61461090d5780638f2839701461092a576102c8565b8063845a46971461089c57806387826764146108b9576102c8565b806342842e0e11610229578063654b748a116101dd5780636e9960c3116101c25780636e9960c31461084257806370a082311461084a57806379cc679014610870576102c8565b8063654b748a1461078b5780636e1e3bbf146107b1576102c8565b8063485cc9551161020e578063485cc9551461071757806355064d85146107455780636352211e1461076e576102c8565b806342842e0e146106c457806342966c68146106fa576102c8565b806315ddc5351161028057806328cfbd461161026557806328cfbd46146105175780632b991746146105f257806338bb305a14610628576102c8565b806315ddc5351461040657806323b872dd146104e1576102c8565b8063081812fc116102b1578063081812fc14610385578063095ea7b3146103be5780630ef26743146103ec576102c8565b806301ffc9a7146102cd57806306fdde0314610308575b600080fd5b6102f4600480360360208110156102e357600080fd5b50356001600160e01b031916610d5e565b604080519115158252519081900360200190f35b610310610dfd565b6040805160208082528351818301528351919283929083019185019080838360005b8381101561034a578181015183820152602001610332565b50505050905090810190601f1680156103775780820380516001836020036101000a031916815260200191505b509250505060405180910390f35b6103a26004803603602081101561039b57600080fd5b5035610e34565b604080516001600160a01b039092168252519081900360200190f35b6103ea600480360360408110156103d457600080fd5b506001600160a01b038135169060200135610eca565b005b6103f4610fde565b60408051918252519081900360200190f35b6103ea6004803603608081101561041c57600080fd5b6001600160a01b03823581169260208101359091169181019060608101604082013564010000000081111561045057600080fd5b82018360208201111561046257600080fd5b8035906020019184602083028401116401000000008311171561048457600080fd5b9193909290916020810190356401000000008111156104a257600080fd5b8201836020820111156104b457600080fd5b803590602001918460018302840111640100000000831117156104d657600080fd5b509092509050610fe4565b6103ea600480360360608110156104f757600080fd5b506001600160a01b0381358116916020810135909116906040013561105e565b6103ea6004803603608081101561052d57600080fd5b6001600160a01b03823581169260208101359091169181019060608101604082013564010000000081111561056157600080fd5b82018360208201111561057357600080fd5b8035906020019184602083028401116401000000008311171561059557600080fd5b9193909290916020810190356401000000008111156105b357600080fd5b8201836020820111156105c557600080fd5b803590602001918460018302840111640100000000831117156105e757600080fd5b509092509050611126565b6103ea6004803603606081101561060857600080fd5b506001600160a01b0381358116916020810135909116906040013561119b565b6103ea600480360360c081101561063e57600080fd5b6001600160a01b0382358116926020810135909116916040820135916060810135916080820135919081019060c0810160a082013564010000000081111561068557600080fd5b82018360208201111561069757600080fd5b803590602001918460018302840111640100000000831117156106b957600080fd5b509092509050611333565b6103ea600480360360608110156106da57600080fd5b506001600160a01b0381358116916020810135909116906040013561155f565b6103ea6004803603602081101561071057600080fd5b503561157a565b6103ea6004803603604081101561072d57600080fd5b506001600160a01b0381358116916020013516611590565b6102f46004803603606081101561075b57600080fd5b5080359060208101359060400135611616565b6103a26004803603602081101561078457600080fd5b50356116a9565b6102f4600480360360208110156107a157600080fd5b50356001600160a01b0316611708565b6103ea600480360360a08110156107c757600080fd5b6001600160a01b038235169160208101359160408201359160608101359181019060a08101608082013564010000000081111561080357600080fd5b82018360208201111561081557600080fd5b8035906020019184600183028401116401000000008311171561083757600080fd5b509092509050611726565b6103a2611ec4565b6103f46004803603602081101561086057600080fd5b50356001600160a01b0316611ed3565b6103ea6004803603604081101561088657600080fd5b506001600160a01b038135169060200135611f4c565b6103f4600480360360208110156108b257600080fd5b50356120ab565b6103f4600480360360208110156108cf57600080fd5b50356001600160a01b0316612113565b6103ea600480360360408110156108f557600080fd5b506001600160a01b0381351690602001351515612125565b6103f46004803603602081101561092357600080fd5b50356121df565b6103ea6004803603602081101561094057600080fd5b50356001600160a01b0316612247565b61031061236d565b6103f46004803603602081101561096e57600080fd5b50356123a4565b6102f46004803603604081101561098b57600080fd5b506001600160a01b03813581169160200135166123b6565b6103ea600480360360408110156109b957600080fd5b506001600160a01b03813516906020013515156123d6565b6102f4600480360360208110156109e757600080fd5b50356001600160a01b03166123e1565b6103ea60048036036040811015610a0d57600080fd5b506001600160a01b03813516906020013515156123ff565b6103ea60048036036080811015610a3b57600080fd5b6001600160a01b03823581169260208101359091169160408201359190810190608081016060820135640100000000811115610a7657600080fd5b820183602082011115610a8857600080fd5b80359060200191846001830284011164010000000083111715610aaa57600080fd5b91908080601f016020809104026020016040519081016040528093929190818152602001838380828437600092019190915250929550612565945050505050565b6103a260048036036020811015610b0157600080fd5b5035612607565b61031060048036036020811015610b1e57600080fd5b5035612622565b6103ea60048036036040811015610b3b57600080fd5b506001600160a01b038135169060200135151561278b565b6102f460048036036020811015610b6957600080fd5b50356001600160a01b03166128f1565b6102f460048036036040811015610b8f57600080fd5b506001600160a01b038135811691602001351661290f565b6103ea600480360360c0811015610bbd57600080fd5b6001600160a01b038235811692602081013590911691810190606081016040820135640100000000811115610bf157600080fd5b820183602082011115610c0357600080fd5b80359060200191846020830284011164010000000083111715610c2557600080fd5b919390929091602081019035640100000000811115610c4357600080fd5b820183602082011115610c5557600080fd5b80359060200191846020830284011164010000000083111715610c7757600080fd5b919390929091602081019035640100000000811115610c9557600080fd5b820183602082011115610ca757600080fd5b80359060200191846020830284011164010000000083111715610cc957600080fd5b919390929091602081019035640100000000811115610ce757600080fd5b820183602082011115610cf957600080fd5b80359060200191846001830284011164010000000083111715610d1b57600080fd5b509092509050612966565b6103ea60048036036060811015610d3c57600080fd5b506001600160a01b038135811691602081013590911690604001351515612d54565b60007f01ffc9a7000000000000000000000000000000000000000000000000000000006001600160e01b031983161480610dc157507f80ac58cd000000000000000000000000000000000000000000000000000000006001600160e01b03198316145b80610df557507f5b5e139f000000000000000000000000000000000000000000000000000000006001600160e01b03198316145b90505b919050565b60408051808201909152600f81527f53616e64626f782773204c414e44730000000000000000000000000000000000602082015290565b6000806000610e4284612e35565b90925090506001600160a01b038216610e99576040805162461bcd60e51b81526020600482015260146024820152731d1bdad95b88191bd95cc81b9bdd08195e1a5cdd60621b604482015290519081900360640190fd5b8015610ebf575050506000818152600660205260409020546001600160a01b0316610df8565b600092505050610df8565b6000610ed582613059565b90506001600160a01b038116610f29576040805162461bcd60e51b81526020600482015260146024820152731d1bdad95b88191bd95cc81b9bdd08195e1a5cdd60621b604482015290519081900360640190fd5b6001600160a01b038116331480610f6357506001600160a01b038116600090815260056020908152604080832033845290915290205460ff165b80610f7d57503360009081526001602052604090205460ff165b610fce576040805162461bcd60e51b815260206004820152601960248201527f6e6f7420617574686f72697a656420746f20617070726f766500000000000000604482015290519081900360640190fd5b610fd981848461324e565b505050565b61019890565b611056868686868080602002602001604051908101604052809392919081815260200183836020028082843760009201919091525050604080516020601f8a0181900481028201810190925288815292508891508790819084018382808284376000920182905250925061332d915050565b505050505050565b600061106b848484613770565b90506110788484846139a0565b61108a836001600160a01b0316613a10565b80156110a257506110a2836317a2fd9160e21b613a4c565b15611120576110cf816110b557336110b7565b845b85858560405180602001604052806000815250613aff565b611120576040805162461bcd60e51b815260206004820152601e60248201527f657263373231207472616e736665722072656a656374656420627920746f0000604482015290519081900360640190fd5b50505050565b611056868686868080602002602001604051908101604052809392919081815260200183836020028082843760009201919091525050604080516020601f8a0181900481028201810190925288815292508891508790819084018382808284376000920191909152506001925061332d915050565b60006111a682613059565b90506001600160a01b038416611203576040805162461bcd60e51b815260206004820152601660248201527f73656e646572206973207a65726f206164647265737300000000000000000000604482015290519081900360640190fd5b336001600160a01b038516148061122957503360009081526002602052604090205460ff165b8061125757506001600160a01b038416600090815260056020908152604080832033845290915290205460ff165b8061127157503360009081526001602052604090205460ff165b6112c2576040805162461bcd60e51b815260206004820152601960248201527f6e6f7420617574686f72697a656420746f20617070726f766500000000000000604482015290519081900360640190fd5b836001600160a01b0316816001600160a01b031614611328576040805162461bcd60e51b815260206004820152600f60248201527f6f776e657220213d2073656e6465720000000000000000000000000000000000604482015290519081900360640190fd5b61112081848461324e565b6001600160a01b03871661138e576040805162461bcd60e51b815260206004820152601460248201527f66726f6d206973207a65726f2061646472657373000000000000000000000000604482015290519081900360640190fd5b6001600160a01b0386166113e9576040805162461bcd60e51b815260206004820152601a60248201527f63616e27742073656e6420746f207a65726f2061646472657373000000000000604482015290519081900360640190fd5b6000336001600160a01b0389161480159061141357503360009081526002602052604090205460ff165b9050336001600160a01b0389161480159061142c575080155b156114c3576001600160a01b038816600090815260056020908152604080832033845290915290205460ff168061147257503360009081526001602052604090205460ff165b6114c3576040805162461bcd60e51b815260206004820152601e60248201527f6e6f7420617574686f72697a656420746f207472616e73666572517561640000604482015290519081900360640190fd5b6114d08888888888613c4b565b6001600160a01b0380891660009081526003602052604080822080548a800290819003909155928a168252902080549091019055611555816115125733611514565b885b898989898989898080601f016020809104026020016040519081016040528093929190818152602001838380828437600092019190915250613dae92505050565b5050505050505050565b610fd983838360405180602001604052806000815250612565565b61158d3361158783613059565b83613e98565b50565b60075460ff16156115d25760405162461bcd60e51b815260040180806020018281038252602d815260200180614b1e602d913960400191505060405180910390fd5b6000805473ffffffffffffffffffffffffffffffffffffffff19166001600160a01b038316179055611605826001613f73565b50506007805460ff19166001179055565b600083838161162157fe5b06158015611636575083828161163357fe5b06155b611687576040805162461bcd60e51b815260206004820152601b60248201527f4c616e6442617365546f6b656e56333a20496e76616c69642049640000000000604482015290519081900360640190fd5b6000611694858585613fd7565b6001600160a01b0316141590505b9392505050565b60006116b482613059565b90506001600160a01b038116610df8576040805162461bcd60e51b81526020600482015260146024820152731d1bdad95b88191bd95cc81b9bdd08195e1a5cdd60621b604482015290519081900360640190fd5b6001600160a01b031660009081526001602052604090205460ff1690565b6001600160a01b038616611781576040805162461bcd60e51b815260206004820152601260248201527f746f206973207a65726f20616464726573730000000000000000000000000000604482015290519081900360640190fd5b61178a336123e1565b6117db576040805162461bcd60e51b815260206004820152601660248201527f4f6e6c792061206d696e7465722063616e206d696e7400000000000000000000604482015290519081900360640190fd5b8484816117e457fe5b061580156117f957508483816117f657fe5b06155b61184a576040805162461bcd60e51b815260206004820152601360248201527f496e76616c696420636f6f7264696e6174657300000000000000000000000000604482015290519081900360640190fd5b84610198038411158015611862575084610198038311155b6118b3576040805162461bcd60e51b815260206004820152600d60248201527f4f7574206f6620626f756e647300000000000000000000000000000000000000604482015290519081900360640190fd5b60006101988402850160018714156118cd57809150611976565b86600314156118e45780600160f81b019150611976565b86600614156118fb5780600160f91b019150611976565b86600c14156119125780600360f81b019150611976565b86601814156119295780600160fa1b019150611976565b6040805162461bcd60e51b815260206004820152600c60248201527f496e76616c69642073697a650000000000000000000000000000000000000000604482015290519081900360640190fd5b6004600061019860188804601802026018898161198f57fe5b04601802600160fa1b01018152602001908152602001600020546000146119fd576040805162461bcd60e51b815260206004820152601760248201527f416c7265616479206d696e746564206173203234783234000000000000000000604482015290519081900360640190fd5b858701858801600c8911611a975760046000610198600c8a04600c0202600c8b81611a2457fe5b04600c02600360f81b0101815260200190815260200160002054600014611a92576040805162461bcd60e51b815260206004820152601760248201527f416c7265616479206d696e746564206173203132783132000000000000000000604482015290519081900360640190fd5b611b2d565b875b82811015611b2b57875b82811015611b225761019881028201600360f81b0160008181526004602052604090205415611b19576040805162461bcd60e51b815260206004820152601760248201527f416c7265616479206d696e746564206173203132783132000000000000000000604482015290519081900360640190fd5b50600c01611aa3565b50600c01611a99565b505b60068911611bc1576004600061019860068a046006020260068b81611b4e57fe5b04600602600160f91b0101815260200190815260200160002054600014611bbc576040805162461bcd60e51b815260206004820152601560248201527f416c7265616479206d696e746564206173203678360000000000000000000000604482015290519081900360640190fd5b611c57565b875b82811015611c5557875b82811015611c4c5761019881028201600160f91b0160008181526004602052604090205415611c43576040805162461bcd60e51b815260206004820152601560248201527f416c7265616479206d696e746564206173203678360000000000000000000000604482015290519081900360640190fd5b50600601611bcd565b50600601611bc3565b505b60038911611ceb576004600061019860038a046003020260038b81611c7857fe5b04600302600160f81b0101815260200190815260200160002054600014611ce6576040805162461bcd60e51b815260206004820152601560248201527f416c7265616479206d696e746564206173203378330000000000000000000000604482015290519081900360640190fd5b611d81565b875b82811015611d7f57875b82811015611d765761019881028201600160f81b0160008181526004602052604090205415611d6d576040805162461bcd60e51b815260206004820152601560248201527f416c7265616479206d696e746564206173203378330000000000000000000000604482015290519081900360640190fd5b50600301611cf7565b50600301611ced565b505b60005b898a02811015611e41576000611d9c828c8c8c6140de565b60008681526004602052604090205490915015611e00576040805162461bcd60e51b815260206004820152600e60248201527f416c7265616479206d696e746564000000000000000000000000000000000000604482015290519081900360640190fd5b60405181906001600160a01b038e16906000907fddf252ad1be2c89b69c2b068fc378daa952ba7f163c4a11628f55a4df523b3ef908290a450600101611d84565b5060008481526004602090815260408083206001600160a01b038e169081905583526003825280832080548d80020190558051601f8901839004830281018301909152878152611eb892339290918e918e918e918e91908e908e9081908401838280828437600092019190915250613dae92505050565b50505050505050505050565b6000546001600160a01b031690565b60006001600160a01b038216611f30576040805162461bcd60e51b815260206004820152601560248201527f6f776e6572206973207a65726f20616464726573730000000000000000000000604482015290519081900360640190fd5b506001600160a01b031660009081526003602052604090205490565b6001600160a01b038216611fa7576040805162461bcd60e51b815260206004820152601660248201527f496e76616c69642073656e646572206164647265737300000000000000000000604482015290519081900360640190fd5b600080611fb383612e35565b9092509050336001600160a01b0385161480611fde57503360009081526002602052604090205460ff165b80612007575080801561200757506000838152600660205260409020546001600160a01b031633145b8061203557506001600160a01b038416600090815260056020908152604080832033845290915290205460ff165b8061204f57503360009081526001602052604090205460ff165b6120a0576040805162461bcd60e51b815260206004820152601660248201527f6e6f7420617574686f72697a656420746f206275726e00000000000000000000604482015290519081900360640190fd5b611120848385613e98565b6000806120b783613059565b6001600160a01b0316141561210a576040805162461bcd60e51b81526020600482015260146024820152731d1bdad95b88191bd95cc81b9bdd08195e1a5cdd60621b604482015290519081900360640190fd5b50610198900490565b60036020526000908152604090205481565b6000546001600160a01b03163314612184576040805162461bcd60e51b815260206004820152601260248201527f6f6e6c792061646d696e20616c6c6f7765640000000000000000000000000000604482015290519081900360640190fd5b612196826001600160a01b0316613a10565b6121d15760405162461bcd60e51b8152600401808060200182810382526030815260200180614bee6030913960400191505060405180910390fd5b6121db8282613f73565b5050565b6000806121eb83613059565b6001600160a01b0316141561223e576040805162461bcd60e51b81526020600482015260146024820152731d1bdad95b88191bd95cc81b9bdd08195e1a5cdd60621b604482015290519081900360640190fd5b50610198900690565b6000546001600160a01b03163381146122a7576040805162461bcd60e51b815260206004820152601b60248201527f6f6e6c792061646d696e2063616e206368616e67652061646d696e0000000000604482015290519081900360640190fd5b806001600160a01b0316826001600160a01b031614156122f85760405162461bcd60e51b8152600401808060200182810382526025815260200180614ca26025913960400191505060405180910390fd5b604080516001600160a01b0380841682528416602082015281517f7e644d79422f17c01e4894b5f4f588d331ebfa28653d42ae832dc59e38c9798f929181900390910190a1506000805473ffffffffffffffffffffffffffffffffffffffff19166001600160a01b0392909216919091179055565b60408051808201909152600481527f4c414e4400000000000000000000000000000000000000000000000000000000602082015290565b60046020526000908152604090205481565b600560209081526000928352604080842090915290825290205460ff1681565b6121db338383614135565b6001600160a01b031660009081526039602052604090205460ff1690565b6000546001600160a01b0316331461245e576040805162461bcd60e51b815260206004820152601260248201527f6f6e6c792061646d696e20616c6c6f7765640000000000000000000000000000604482015290519081900360640190fd5b6001600160a01b0382166124a35760405162461bcd60e51b815260040180806020018281038252602a815260200180614b4b602a913960400191505060405180910390fd5b6001600160a01b03821660009081526001602052604090205460ff16151581151514156125015760405162461bcd60e51b8152600401808060200182810382526033815260200180614b756033913960400191505060405180910390fd5b6001600160a01b038216600081815260016020908152604091829020805460ff191685151590811790915582519384529083015280517f44f92d27abdf4cfb6a7d712c3af68f3be086d4ca747ab802c36f67d6790060d89281900390910190a15050565b6000612572858585613770565b905061257f8585856139a0565b612591846001600160a01b0316613a10565b15612600576125af816125a457336125a6565b855b86868686613aff565b612600576040805162461bcd60e51b815260206004820152601f60248201527f4552433732313a207472616e736665722072656a656374656420627920746f00604482015290519081900360640190fd5b5050505050565b6006602052600090815260409020546001600160a01b031681565b6060600061262f83613059565b6001600160a01b0316141561268b576040805162461bcd60e51b815260206004820152601160248201527f496420646f6573206e6f74206578697374000000000000000000000000000000604482015290519081900360640190fd5b612694826141fb565b60405160200180807f68747470733a2f2f6170692e73616e64626f782e67616d652f6c616e64732f00815250601f0182805190602001908083835b6020831061270c57805182527fffffffffffffffffffffffffffffffffffffffffffffffffffffffffffffffe090920191602091820191016126cf565b5181516020939093036101000a60001901801990911692169190911790527f2f6d657461646174612e6a736f6e000000000000000000000000000000000000920191825250604080518083037fffffffffffffffffffffffffffffffffffffffffffffffffffffffffffffffee018152600e9092019052949350505050565b6000546001600160a01b031633146127ea576040805162461bcd60e51b815260206004820152601260248201527f6f6e6c792061646d696e20616c6c6f7765640000000000000000000000000000604482015290519081900360640190fd5b6001600160a01b03821661282f5760405162461bcd60e51b8152600401808060200182810382526022815260200180614bcc6022913960400191505060405180910390fd5b6001600160a01b03821660009081526039602052604090205460ff161515811515141561288d5760405162461bcd60e51b8152600401808060200182810382526033815260200180614b756033913960400191505060405180910390fd5b6001600160a01b038216600081815260396020908152604091829020805460ff191685151590811790915582519384529083015280517fff452b3b9159b024a9098f0058c63eccd90d36b3584608202800d662f962bb609281900390910190a15050565b6001600160a01b031660009081526002602052604090205460ff1690565b6001600160a01b03808316600090815260056020908152604080832093851683529290529081205460ff168061295d57506001600160a01b03821660009081526001602052604090205460ff165b90505b92915050565b6001600160a01b038a166129c1576040805162461bcd60e51b815260206004820152601460248201527f66726f6d206973207a65726f2061646472657373000000000000000000000000604482015290519081900360640190fd5b6001600160a01b038916612a1c576040805162461bcd60e51b815260206004820152601a60248201527f63616e27742073656e6420746f207a65726f2061646472657373000000000000604482015290519081900360640190fd5b8685148015612a2a57508483145b612a7b576040805162461bcd60e51b815260206004820152600c60248201527f696e76616c696420646174610000000000000000000000000000000000000000604482015290519081900360640190fd5b6000336001600160a01b038c1614801590612aa557503360009081526002602052604090205460ff165b9050336001600160a01b038c1614801590612abe575080155b15612b3f576001600160a01b038b16600090815260056020908152604080832033845290915290205460ff1680612b0457503360009081526001602052604090205460ff165b612b3f5760405162461bcd60e51b8152600401808060200182810382526024815260200180614c546024913960400191505060405180910390fd5b6000805b89811015612ba25760008b8b83818110612b5957fe5b905060200201359050612b938e8e838d8d87818110612b7457fe5b905060200201358c8c88818110612b8757fe5b90506020020135613c4b565b80029190910190600101612b43565b506001600160a01b03808d1660009081526003602052604080822080548590039055918d16808252919020805483019055612bdc90613a10565b8015612bf45750612bf48b6317a2fd9160e21b613a4c565b15612d4657606081604051908082528060200260200182016040528015612c25578160200160208202803883390190505b5090506000805b8b811015612cb85760008d8d83818110612c4257fe5b90506020020135905060008090505b818202811015612cae57612c8b81838f8f87818110612c6c57fe5b905060200201358e8e88818110612c7f57fe5b905060200201356140de565b858581518110612c9757fe5b602090810291909101015260019384019301612c51565b5050600101612c2c565b50612d0884612cc75733612cc9565b8e5b8f8f858a8a8080601f0160208091040260200160405190810160405280939291908181526020018383808284376000920191909152506142f092505050565b612d435760405162461bcd60e51b8152600401808060200182810382526024815260200180614ba86024913960400191505060405180910390fd5b50505b505050505050505050505050565b6001600160a01b038316612daf576040805162461bcd60e51b815260206004820152601660248201527f496e76616c69642073656e646572206164647265737300000000000000000000604482015290519081900360640190fd5b336001600160a01b0384161480612dd557503360009081526002602052604090205460ff165b80612def57503360009081526001602052604090205460ff165b612e2a5760405162461bcd60e51b8152600401808060200182810382526021815260200180614cc76021913960400191505060405180910390fd5b610fd9838383614135565b6000807fff00000000000000000000000000000000000000000000000000000000000000831615612ead576040805162461bcd60e51b815260206004820152601060248201527f496e76616c696420746f6b656e20696400000000000000000000000000000000604482015290519081900360640190fd5b60008381526004602052604090205461019880850691908504908015612efd579350837f800000000000000000000000000000000000000000000000000000000000000081046001149350613051565b6000600481610198600386046003020260038781612f1757fe5b04600302600160f81b0101815260200190815260200160002054905060006001600160a01b0316816001600160a01b031614612f59578095506000945061304f565b6000600481610198600687046006020260068881612f7357fe5b04600602600160f91b0101815260200190815260200160002054905060006001600160a01b0316816001600160a01b031614612fb5578096506000955061304d565b6000600481610198600c8804600c0202600c8981612fcf57fe5b04600c02600360f81b0101815260200190815260200160002054905060006001600160a01b0316816001600160a01b031614613011578097506000965061304b565b6004600061019860188804601802026018898161302a57fe5b04601802600160fa1b01018152602001908152602001600020549750600096505b505b505b505b505050915091565b60007fff000000000000000000000000000000000000000000000000000000000000008216156130d0576040805162461bcd60e51b815260206004820152601060248201527f496e76616c696420746f6b656e20696400000000000000000000000000000000604482015290519081900360640190fd5b600082815260046020526040902054610198808406919084049080156130fa579250610df8915050565b600060048161019860038604600302026003878161311457fe5b04600302600160f81b0101815260200190815260200160002054905060006001600160a01b0316816001600160a01b031614613155579350610df892505050565b600060048161019860068704600602026006888161316f57fe5b04600602600160f91b0101815260200190815260200160002054905060006001600160a01b0316816001600160a01b0316146131b1579450610df89350505050565b6000600481610198600c8804600c0202600c89816131cb57fe5b04600c02600360f81b0101815260200190815260200160002054905060006001600160a01b0316816001600160a01b03161461320e579550610df8945050505050565b6004600061019860188804601802026018898161322757fe5b04601802600160fa1b01018152602001908152602001600020549650505050505050610df8565b6001600160a01b03821661327b5760008181526004602052604090206001600160a01b03841690556132e7565b60008181526004602090815260408083206001600160a01b038781167f8000000000000000000000000000000000000000000000000000000000000000019091556006909252909120805473ffffffffffffffffffffffffffffffffffffffff19169184169190911790555b80826001600160a01b0316846001600160a01b03167f8c5be1e5ebec7d5bd14f71427d1e84f3dd0314c0f7b2291e5b200ac8c7c3b92560405160405180910390a4505050565b6000336001600160a01b0387161480159061335757503360009081526002602052604090205460ff165b90506000336001600160a01b038816148061336f5750815b8061339d57506001600160a01b038716600090815260056020908152604080832033845290915290205460ff165b806133b757503360009081526001602052604090205460ff165b90506001600160a01b038716613414576040805162461bcd60e51b815260206004820152601460248201527f66726f6d206973207a65726f2061646472657373000000000000000000000000604482015290519081900360640190fd5b6001600160a01b03861661346f576040805162461bcd60e51b815260206004820152601a60248201527f63616e27742073656e6420746f207a65726f2061646472657373000000000000604482015290519081900360640190fd5b845160005b818110156135f257600087828151811061348a57fe5b602002602001015190506000806134a083612e35565b915091508b6001600160a01b0316826001600160a01b03161461350a576040805162461bcd60e51b815260206004820152601e60248201527f6e6f74206f776e657220696e2062617463685472616e7366657246726f6d0000604482015290519081900360640190fd5b8580613534575080801561353457506000838152600660205260409020546001600160a01b031633145b613585576040805162461bcd60e51b815260206004820152600e60248201527f6e6f7420617574686f72697a6564000000000000000000000000000000000000604482015290519081900360640190fd5b8a6001600160a01b03166004600085815260200190815260200160002081905550828b6001600160a01b03168d6001600160a01b03167fddf252ad1be2c89b69c2b068fc378daa952ba7f163c4a11628f55a4df523b3ef60405160405180910390a4505050600101613474565b50866001600160a01b0316886001600160a01b03161461363a576001600160a01b03808916600090815260036020526040808220805485900390559189168152208054820190555b61364c876001600160a01b0316613a10565b1561155557613662876317a2fd9160e21b613a4c565b156136c057613680836136755733613677565b885b898989896142f0565b6136bb5760405162461bcd60e51b8152600401808060200182810382526024815260200180614ba86024913960400191505060405180910390fd5b611555565b83156115555760005b818110156137655761370c846136df57336136e1565b895b8a8a8a85815181106136ef57fe5b602002602001015160405180602001604052806000815250613aff565b61375d576040805162461bcd60e51b815260206004820152601e60248201527f657263373231207472616e736665722072656a656374656420627920746f0000604482015290519081900360640190fd5b6001016136c9565b505050505050505050565b600080600061377e84612e35565b90925090506001600160a01b0382166137d5576040805162461bcd60e51b81526020600482015260146024820152731d1bdad95b88191bd95cc81b9bdd08195e1a5cdd60621b604482015290519081900360640190fd5b856001600160a01b0316826001600160a01b03161461383b576040805162461bcd60e51b815260206004820152601b60248201527f6e6f74206f776e657220696e205f636865636b5472616e736665720000000000604482015290519081900360640190fd5b6001600160a01b038516613896576040805162461bcd60e51b815260206004820152601a60248201527f63616e27742073656e6420746f207a65726f2061646472657373000000000000604482015290519081900360640190fd5b336001600160a01b038716148015906138be57503360009081526002602052604090205460ff165b9250336001600160a01b038716148015906138d7575082155b15613997576001600160a01b038616600090815260056020908152604080832033845290915290205460ff168061392c575080801561392c57506000848152600660205260409020546001600160a01b031633145b8061394657503360009081526001602052604090205460ff165b613997576040805162461bcd60e51b815260206004820152601860248201527f6e6f7420617070726f76656420746f207472616e736665720000000000000000604482015290519081900360640190fd5b50509392505050565b6001600160a01b03808416600081815260036020908152604080832080546000190190559386168083528483208054600101905585835260049091528382208190559251849392917fddf252ad1be2c89b69c2b068fc378daa952ba7f163c4a11628f55a4df523b3ef91a4505050565b60007fc5d2460186f7233c927e7db2dcc703c0e500b653ca82273b7bfad8045d85a470823f8015801590613a445750818114155b949350505050565b604080516001600160e01b031983166024808301919091528251808303909101815260449091018252602081810180517bffffffffffffffffffffffffffffffffffffffffffffffffffffffff167f01ffc9a7000000000000000000000000000000000000000000000000000000001781528251935160008082529485948594909392908183858c612710fa955080519450505050609e5a11613aeb57fe5b828015613af55750815b9695505050505050565b600080846001600160a01b031663150b7a02888887876040518563ffffffff1660e01b815260040180856001600160a01b03166001600160a01b03168152602001846001600160a01b03166001600160a01b0316815260200183815260200180602001828103825283818151815260200191508051906020019080838360005b83811015613b97578181015183820152602001613b7f565b50505050905090810190601f168015613bc45780820380516001836020036101000a031916815260200191505b5095505050505050602060405180830381600087803b158015613be657600080fd5b505af1158015613bfa573d6000803e3d6000fd5b505050506040513d6020811015613c1057600080fd5b50516001600160e01b0319167f150b7a0200000000000000000000000000000000000000000000000000000000149150505b95945050505050565b8260011415613d4057610198810282016000613c6682613059565b90506001600160a01b038116613cba576040805162461bcd60e51b81526020600482015260146024820152731d1bdad95b88191bd95cc81b9bdd08195e1a5cdd60621b604482015290519081900360640190fd5b866001600160a01b0316816001600160a01b031614613d20576040805162461bcd60e51b815260206004820152601a60248201527f6e6f74206f776e657220696e205f7472616e7366657251756164000000000000604482015290519081900360640190fd5b5060009081526004602052604090206001600160a01b0385169055613d4d565b613d4d8585858585614479565b60005b83840281101561105657613d66818585856140de565b856001600160a01b0316876001600160a01b03167fddf252ad1be2c89b69c2b068fc378daa952ba7f163c4a11628f55a4df523b3ef60405160405180910390a4600101613d50565b613dc0856001600160a01b0316613a10565b8015613dd85750613dd8856317a2fd9160e21b613a4c565b15613e8f576060848502604051908082528060200260200182016040528015613e0b578160200160208202803883390190505b50905060005b858602811015613e4657613e27818787876140de565b828281518110613e3357fe5b6020908102919091010152600101613e11565b50613e5488888884866142f0565b6115555760405162461bcd60e51b8152600401808060200182810382526024815260200180614ba86024913960400191505060405180910390fd5b50505050505050565b816001600160a01b0316836001600160a01b031614613efe576040805162461bcd60e51b815260206004820152600960248201527f6e6f74206f776e65720000000000000000000000000000000000000000000000604482015290519081900360640190fd5b60008181526004602090815260408083207401000000000000000000000000000000000000000090556001600160a01b0386168084526003909252808320805460001901905551839291907fddf252ad1be2c89b69c2b068fc378daa952ba7f163c4a11628f55a4df523b3ef908390a4505050565b6001600160a01b038216600081815260026020908152604091829020805460ff191685151590811790915582519384529083015280517fb21eb88b4e33b3f1281830a7178d74d8aa73220416215726b68ae23d539515cb9281900390910190a15050565b60008060028502600186141561401257507fff0000000000000000000000000000000000000000000000000000000000000090506003614062565b856003141561402757600160f81b9150614062565b856006141561403c57600160f91b9150614062565b85600c141561405157600360f81b9150614062565b856018141561192957600160fa1b91505b600060046000610198898a898161407557fe5b040202898a8a8161408257fe5b0402860101815260208101919091526040016000205490506001600160a01b038116156140b35792506116a2915050565b60188710156140d1576140c7828787613fd7565b93505050506116a2565b5060009695505050505050565b6000808486816140ea57fe5b04905060028106614111576101988184010285878161410557fe5b06850101915050613a44565b6101988184010285878161412157fe5b066001018686010301915050949350505050565b6001600160a01b03821660009081526001602052604090205460ff161561418d5760405162461bcd60e51b8152600401808060200182810382526036815260200180614c1e6036913960400191505060405180910390fd5b6001600160a01b03838116600081815260056020908152604080832094871680845294825291829020805460ff1916861515908117909155825190815291517f17307eab39ab6107e8899845ad3d59bd9653f200f220920489ca2b5937696c319281900390910190a3505050565b60608161423c575060408051808201909152600181527f30000000000000000000000000000000000000000000000000000000000000006020820152610df8565b8160005b811561425457600101600a82049150614240565b6060816040519080825280601f01601f191660200182016040528015614281576020820181803883390190505b50905060001982015b85156142e757600a860660300160f81b828280600190039350815181106142ad57fe5b60200101907effffffffffffffffffffffffffffffffffffffffffffffffffffffffffffff1916908160001a905350600a8604955061428a565b50949350505050565b600080846001600160a01b0316634b808c46888887876040518563ffffffff1660e01b815260040180856001600160a01b03166001600160a01b03168152602001846001600160a01b03166001600160a01b031681526020018060200180602001838103835285818151815260200191508051906020019060200280838360005b83811015614389578181015183820152602001614371565b50505050905001838103825284818151815260200191508051906020019080838360005b838110156143c55781810151838201526020016143ad565b50505050905090810190601f1680156143f25780820380516001836020036101000a031916815260200191505b509650505050505050602060405180830381600087803b15801561441557600080fd5b505af1158015614429573d6000803e3d6000fd5b505050506040513d602081101561443f57600080fd5b50516001600160e01b0319167f4b808c46000000000000000000000000000000000000000000000000000000001491505095945050505050565b82828161448257fe5b06158015614497575082818161449457fe5b06155b6144e8576040805162461bcd60e51b815260206004820152601360248201527f496e76616c696420636f6f7264696e6174657300000000000000000000000000604482015290519081900360640190fd5b82610198038211158015614500575082610198038111155b614551576040805162461bcd60e51b815260206004820152600d60248201527f4f7574206f6620626f756e647300000000000000000000000000000000000000604482015290519081900360640190fd5b826003141561456e576145688585848460016145b3565b50612600565b8260061415614585576145688585848460016146a3565b82600c141561459c576145688585848460016147c6565b8260181415611929576145688585848460016148e9565b600061019883028401600160f81b81016001865b8760030181101561460b57865b87600301811015614602576145ef8b61019883028401614a80565b80156145f85750825b92506001016145d4565b506001016145c7565b508415614697578061467257886001600160a01b031661462d60038989613fd7565b6001600160a01b0316146146725760405162461bcd60e51b815260040180806020018281038252602b815260200180614ce8602b913960400191505060405180910390fd5b5060009081526004602052604090206001600160a01b03871690555060019050613c42565b98975050505050505050565b600061019883028401600160f91b81016001865b876006018110156147a457865b8760060181101561479b5760006146df8c8c858560006145b3565b61019883028401600160f81b016000818152600460205260409020549192509080156147775782614767578d6001600160a01b03168114614767576040805162461bcd60e51b815260206004820152601560248201527f6e6f74206f776e6572206f662033783320717561640000000000000000000000604482015290519081900360640190fd5b6000828152600460205260408120555b828061478257508015155b801561478b5750855b95505050506003810190506146c4565b506003016146b7565b508415614697578061467257886001600160a01b031661462d60068989613fd7565b600061019883028401600360f81b81016001865b87600c018110156148c757865b87600c018110156148be5760006148028c8c858560006146a3565b61019883028401600160f91b0160008181526004602052604090205491925090801561489a578261488a578d6001600160a01b0316811461488a576040805162461bcd60e51b815260206004820152601560248201527f6e6f74206f776e6572206f662036783620717561640000000000000000000000604482015290519081900360640190fd5b6000828152600460205260408120555b82806148a557508015155b80156148ae5750855b95505050506006810190506147e7565b506006016147da565b508415614697578061467257886001600160a01b031661462d600c8989613fd7565b600061019883028401600160fa1b81016001865b876018018110156149ea57865b876018018110156149e15760006149258c8c858560006147c6565b61019883028401600360f81b016000818152600460205260409020549192509080156149bd57826149ad578d6001600160a01b031681146149ad576040805162461bcd60e51b815260206004820152601760248201527f6e6f74206f776e6572206f662031327831322071756164000000000000000000604482015290519081900360640190fd5b6000828152600460205260408120555b82806149c857508015155b80156149d15750855b9550505050600c8101905061490a565b50600c016148fd565b508415614a51578061467257886001600160a01b0316614a0c60188989613fd7565b6001600160a01b0316146146725760405162461bcd60e51b815260040180806020018281038252602a815260200180614c78602a913960400191505060405180910390fd5b8080614a7357506000828152600460205260409020546001600160a01b038a16145b9998505050505050505050565b6000818152600460205260408120548015614b1357836001600160a01b0316816001600160a01b031614614afb576040805162461bcd60e51b815260206004820152600960248201527f6e6f74206f776e65720000000000000000000000000000000000000000000000604482015290519081900360640190fd5b50506000818152600460205260408120556001612960565b506000939250505056fe45524337323142617365546f6b656e3a20436f6e747261637420616c726561647920696e697469616c697a6564616464726573732030206973206e6f7420616c6c6f776564206173207375706572206f70657261746f72746865207374617475732073686f756c6420626520646966666572656e74207468616e207468652063757272656e74206f6e65657263373231206261746368207472616e736665722072656a656374656420627920746f616464726573732030206973206e6f7420616c6c6f776564206173206d696e7465726f6e6c7920636f6e7472616374732063616e206265206d657461207472616e73616374696f6e2070726f636573736f727375706572206f70657261746f722063616e2774206861766520746865697220617070726f76616c466f72416c6c206368616e6765646e6f7420617574686f72697a656420746f207472616e736665724d756c746951756164736e6f74206f776e6572206f6620616c6c20737562207175616473206e6f7420706172656e74207175616469742063616e206265206f6e6c79206368616e67656420746f2061206e65772061646d696e6e6f7420617574686f72697a656420746f20617070726f766520666f7220616c6c6e6f74206f776e6572206f6620616c6c20737562207175616473206e6f7220706172656e74207175616473a265627a7a7230582051a76da8e5c69c2ab59d86da122dede909b1e6fe23e5f19f0a538df8a4d5d24564736f6c63430005090032",
  "devdoc": {
    "methods": {
      "approve(address,uint256)": {
        "params": {
          "id": "The id of the token",
          "operator": "The address receiving the approval"
        }
      },
      "approveFor(address,address,uint256)": {
        "params": {
          "id": "The id of the token",
          "operator": "The address receiving the approval",
          "sender": "The address giving the approval"
        }
      },
      "balanceOf(address)": {
        "params": {
          "owner": "The address to look for"
        },
        "return": "The number of Land token owned by the address"
      },
      "batchTransferFrom(address,address,uint256[],bytes)": {
        "params": {
          "data": "additional data",
          "from": "The sender of the token",
          "ids": "The ids of the tokens",
          "to": "The recipient of the token"
        }
      },
      "batchTransferQuad(address,address,uint256[],uint256[],uint256[],bytes)": {
        "params": {
          "data": "additional data",
          "from": "current owner of the quad",
          "sizes": "list of sizes for each quad",
          "to": "destination",
          "xs": "list of top left x coordinates for each quad",
          "ys": "list of top left y coordinates for each quad"
        }
      },
      "burn(uint256)": {
        "params": {
          "id": "token which will be burnt."
        }
      },
      "burnFrom(address,uint256)": {
        "params": {
          "from": "address whose token is to be burnt.",
          "id": "token which will be burnt."
        }
      },
      "changeAdmin(address)": {
        "params": {
          "newAdmin": "address of the new administrator."
        }
      },
      "exists(uint256,uint256,uint256)": {
        "params": {
          "size": "size of the  ",
          "x": "x coordinate of the quad",
          "y": "y coordinate of the quad"
        },
        "return": "bool for if Land has been minted or not"
      },
      "getAdmin()": {
        "return": "the current administrator of this contract."
      },
      "getApproved(uint256)": {
        "params": {
          "id": "The id of the token"
        },
        "return": "The address of the operator"
      },
      "getX(uint256)": {
        "params": {
          "id": "tokenId"
        },
        "return": "the x coordinates"
      },
      "getY(uint256)": {
        "params": {
          "id": "tokenId"
        },
        "return": "the y coordinates"
      },
      "height()": {
        "return": "height"
      },
      "isApprovedForAll(address,address)": {
        "params": {
          "operator": "The address of the operator",
          "owner": "The address of the owner"
        },
        "return": "The status of the approval"
      },
      "isMetaTransactionProcessor(address)": {
        "params": {
          "who": "The address to query."
        },
        "return": "whether the address has meta-transaction execution rights."
      },
      "isMinter(address)": {
        "params": {
          "who": "The address to query."
        },
        "return": "whether the address has minter rights."
      },
      "isSuperOperator(address)": {
        "params": {
          "who": "The address to query."
        },
        "return": "whether the address has superOperator rights."
      },
      "mintQuad(address,uint256,uint256,uint256,bytes)": {
        "params": {
          "data": "extra data to pass to the transfer",
          "size": "The size of the new quad",
          "to": "The recipient of the new quad",
          "x": "The top left x coordinate of the new quad",
          "y": "The top left y coordinate of the new quad"
        }
      },
      "name()": {
        "return": "The name of the token contract"
      },
      "ownerOf(uint256)": {
        "params": {
          "id": "The id of the Land"
        },
        "return": "The address of the owner"
      },
      "safeBatchTransferFrom(address,address,uint256[],bytes)": {
        "params": {
          "data": "additional data",
          "from": "The sender of the token",
          "ids": "The ids of the tokens",
          "to": "The recipient of the token"
        }
      },
      "safeTransferFrom(address,address,uint256)": {
        "params": {
          "from": "The send of the token",
          "id": "The id of the token",
          "to": "The recipient of the token"
        }
      },
      "safeTransferFrom(address,address,uint256,bytes)": {
        "params": {
          "data": "Additional data",
          "from": "The sender of the token",
          "id": "The id of the token",
          "to": "The recipient of the token"
        }
      },
      "setApprovalForAll(address,bool)": {
        "params": {
          "approved": "The determination of the approval",
          "operator": "The address receiving the approval"
        }
      },
      "setApprovalForAllFor(address,address,bool)": {
        "params": {
          "approved": "The determination of the approval",
          "operator": "The address receiving the approval",
          "sender": "The address giving the approval"
        }
      },
      "setMetaTransactionProcessor(address,bool)": {
        "params": {
          "enabled": "set whether the metaTransactionProcessor is enabled or disabled.",
          "metaTransactionProcessor": "address that will be given/removed metaTransactionProcessor rights."
        }
      },
      "setMinter(address,bool)": {
        "params": {
          "enabled": "set whether the minter is enabled or disabled.",
          "minter": "address that will be given/removed minter right."
        }
      },
      "setSuperOperator(address,bool)": {
        "params": {
          "enabled": "set whether the superOperator is enabled or disabled.",
          "superOperator": "address that will be given/removed superOperator right."
        }
      },
      "supportsInterface(bytes4)": {
        "params": {
          "id": "The id of the interface"
        },
        "return": "True if the interface is supported"
      },
      "symbol()": {
        "return": "The symbol of the token contract"
      },
      "tokenURI(uint256)": {
        "params": {
          "id": "The id of the token"
        },
        "return": "The URI of the token"
      },
      "transferFrom(address,address,uint256)": {
        "params": {
          "from": "The sender of the token",
          "id": "The id of the token",
          "to": "The recipient of the token"
        }
      },
      "transferQuad(address,address,uint256,uint256,uint256,bytes)": {
        "params": {
          "data": "additional data",
          "from": "current owner of the quad",
          "size": "size of the quad",
          "to": "destination",
          "x": "The top left x coordinate of the quad",
          "y": "The top left y coordinate of the quad"
        }
      },
      "width()": {
        "return": "width"
      }
    }
  },
  "userdoc": {
    "methods": {
      "approve(address,uint256)": {
        "notice": "Approve an operator to spend tokens on the sender behalf"
      },
      "approveFor(address,address,uint256)": {
        "notice": "Approve an operator to spend tokens on the sender behalf"
      },
      "balanceOf(address)": {
        "notice": "Return the number of Land owned by an address"
      },
      "batchTransferFrom(address,address,uint256[],bytes)": {
        "notice": "Transfer many tokens between 2 addresses"
      },
      "batchTransferQuad(address,address,uint256[],uint256[],uint256[],bytes)": {
        "notice": "transfer multiple quad (aligned to a quad tree with size 3, 6, 12 or 24 only)"
      },
      "burn(uint256)": {
        "notice": "Burns token `id`."
      },
      "burnFrom(address,uint256)": {
        "notice": "Burn token`id` from `from`."
      },
      "changeAdmin(address)": {
        "notice": "change the administrator to be `newAdmin`."
      },
      "exists(uint256,uint256,uint256)": {
        "notice": "checks if Land has been minted or not"
      },
      "getAdmin()": {
        "notice": "gives the current administrator of this contract."
      },
      "getApproved(uint256)": {
        "notice": "Get the approved operator for a specific token"
      },
      "getX(uint256)": {
        "notice": "x coordinate of Land token"
      },
      "getY(uint256)": {
        "notice": "y coordinate of Land token"
      },
      "height()": {
        "notice": "total height of the map"
      },
      "isApprovedForAll(address,address)": {
        "notice": "Check if the sender approved the operator"
      },
      "isMetaTransactionProcessor(address)": {
        "notice": "check whether address `who` is given meta-transaction execution rights."
      },
      "isMinter(address)": {
        "notice": "check whether address `who` is given minter rights."
      },
      "isSuperOperator(address)": {
        "notice": "check whether address `who` is given superOperator rights."
      },
      "mintQuad(address,uint256,uint256,uint256,bytes)": {
        "notice": "Mint a new quad (aligned to a quad tree with size 1, 3, 6, 12 or 24 only)"
      },
      "name()": {
        "notice": "Return the name of the token contract"
      },
      "ownerOf(uint256)": {
        "notice": "Return the owner of a Land"
      },
      "safeBatchTransferFrom(address,address,uint256[],bytes)": {
        "notice": "Transfer many tokens between 2 addresses ensuring the receiving contract has a receiver method"
      },
      "safeTransferFrom(address,address,uint256)": {
        "notice": "Transfer a token between 2 addresses letting the receiver knows of the transfer"
      },
      "safeTransferFrom(address,address,uint256,bytes)": {
        "notice": "Transfer a token between 2 addresses letting the receiver knows of the transfer"
      },
      "setApprovalForAll(address,bool)": {
        "notice": "Set the approval for an operator to manage all the tokens of the sender"
      },
      "setApprovalForAllFor(address,address,bool)": {
        "notice": "Set the approval for an operator to manage all the tokens of the sender"
      },
      "setMetaTransactionProcessor(address,bool)": {
        "notice": "Enable or disable the ability of `metaTransactionProcessor` to perform meta-tx (metaTransactionProcessor rights)."
      },
      "setMinter(address,bool)": {
        "notice": "Enable or disable the ability of `minter` to mint tokens"
      },
      "setSuperOperator(address,bool)": {
        "notice": "Enable or disable the ability of `superOperator` to transfer tokens of all (superOperator rights)."
      },
      "supportsInterface(bytes4)": {
        "notice": "Check if the contract supports an interface 0x01ffc9a7 is ERC-165 0x80ac58cd is ERC-721 0x5b5e139f is ERC-721 metadata"
      },
      "symbol()": {
        "notice": "Return the symbol of the token contract"
      },
      "tokenURI(uint256)": {
        "notice": "Return the URI of a specific token"
      },
      "transferFrom(address,address,uint256)": {
        "notice": "Transfer a token between 2 addresses"
      },
      "transferQuad(address,address,uint256,uint256,uint256,bytes)": {
        "notice": "transfer one quad (aligned to a quad tree with size 3, 6, 12 or 24 only)"
      },
      "width()": {
        "notice": "total width of the map"
      }
    }
  }
}