{
  "address": "0x1c20510Cae478e15406185bE64F24e21c17345D9",
  "abi": [
    {
      "inputs": [
        {
          "internalType": "address",
          "name": "_executor",
          "type": "address"
        }
      ],
      "stateMutability": "nonpayable",
      "type": "constructor"
    },
    {
      "inputs": [
        {
          "components": [
            {
              "internalType": "address",
              "name": "target",
              "type": "address"
            },
            {
              "internalType": "bytes",
              "name": "callData",
              "type": "bytes"
            }
          ],
          "internalType": "struct Batch.Execution[]",
          "name": "executions",
          "type": "tuple[]"
        }
      ],
      "name": "atomicBatch",
      "outputs": [],
      "stateMutability": "nonpayable",
      "type": "function"
    },
    {
      "inputs": [
        {
          "components": [
            {
              "internalType": "address",
              "name": "target",
              "type": "address"
            },
            {
              "internalType": "bytes",
              "name": "callData",
              "type": "bytes"
            },
            {
              "internalType": "uint256",
              "name": "value",
              "type": "uint256"
            }
          ],
          "internalType": "struct Batch.ExecutionWithETH[]",
          "name": "executions",
          "type": "tuple[]"
        }
      ],
      "name": "atomicBatchWithETH",
      "outputs": [],
      "stateMutability": "payable",
      "type": "function"
    },
    {
      "inputs": [],
      "name": "executor",
      "outputs": [
        {
          "internalType": "address",
          "name": "",
          "type": "address"
        }
      ],
      "stateMutability": "view",
      "type": "function"
    },
    {
      "inputs": [
        {
          "components": [
            {
              "internalType": "address",
              "name": "target",
              "type": "address"
            },
            {
              "internalType": "bytes",
              "name": "callData",
              "type": "bytes"
            }
          ],
          "internalType": "struct Batch.Execution[]",
          "name": "executions",
          "type": "tuple[]"
        }
      ],
      "name": "nonAtomicBatch",
      "outputs": [],
      "stateMutability": "nonpayable",
      "type": "function"
    },
    {
      "inputs": [
        {
          "components": [
            {
              "internalType": "address",
              "name": "target",
              "type": "address"
            },
            {
              "internalType": "bytes",
              "name": "callData",
              "type": "bytes"
            },
            {
              "internalType": "uint256",
              "name": "value",
              "type": "uint256"
            }
          ],
          "internalType": "struct Batch.ExecutionWithETH[]",
          "name": "executions",
          "type": "tuple[]"
        }
      ],
      "name": "nonAtomicBatchWithETH",
      "outputs": [],
      "stateMutability": "payable",
      "type": "function"
    },
    {
      "inputs": [
        {
          "internalType": "address",
          "name": "",
          "type": "address"
        },
        {
          "internalType": "address",
          "name": "",
          "type": "address"
        },
        {
          "internalType": "uint256[]",
          "name": "",
          "type": "uint256[]"
        },
        {
          "internalType": "uint256[]",
          "name": "",
          "type": "uint256[]"
        },
        {
          "internalType": "bytes",
          "name": "",
          "type": "bytes"
        }
      ],
      "name": "onERC1155BatchReceived",
      "outputs": [
        {
          "internalType": "bytes4",
          "name": "",
          "type": "bytes4"
        }
      ],
      "stateMutability": "pure",
      "type": "function"
    },
    {
      "inputs": [
        {
          "internalType": "address",
          "name": "",
          "type": "address"
        },
        {
          "internalType": "address",
          "name": "",
          "type": "address"
        },
        {
          "internalType": "uint256",
          "name": "",
          "type": "uint256"
        },
        {
          "internalType": "uint256",
          "name": "",
          "type": "uint256"
        },
        {
          "internalType": "bytes",
          "name": "",
          "type": "bytes"
        }
      ],
      "name": "onERC1155Received",
      "outputs": [
        {
          "internalType": "bytes4",
          "name": "",
          "type": "bytes4"
        }
      ],
      "stateMutability": "pure",
      "type": "function"
    },
    {
      "inputs": [
        {
          "internalType": "address",
          "name": "",
          "type": "address"
        },
        {
          "internalType": "address",
          "name": "",
          "type": "address"
        },
        {
          "internalType": "uint256",
          "name": "",
          "type": "uint256"
        },
        {
          "internalType": "bytes",
          "name": "",
          "type": "bytes"
        }
      ],
      "name": "onERC721Received",
      "outputs": [
        {
          "internalType": "bytes4",
          "name": "",
          "type": "bytes4"
        }
      ],
      "stateMutability": "pure",
      "type": "function"
    },
    {
      "inputs": [
        {
          "internalType": "address",
          "name": "target",
          "type": "address"
        },
        {
          "internalType": "bytes[]",
          "name": "callDatas",
          "type": "bytes[]"
        }
      ],
      "name": "singleTargetAtomicBatch",
      "outputs": [],
      "stateMutability": "nonpayable",
      "type": "function"
    },
    {
      "inputs": [
        {
          "internalType": "address",
          "name": "target",
          "type": "address"
        },
        {
          "components": [
            {
              "internalType": "bytes",
              "name": "callData",
              "type": "bytes"
            },
            {
              "internalType": "uint256",
              "name": "value",
              "type": "uint256"
            }
          ],
          "internalType": "struct Batch.SingleTargetExecutionWithETH[]",
          "name": "executions",
          "type": "tuple[]"
        }
      ],
      "name": "singleTargetAtomicBatchWithETH",
      "outputs": [],
      "stateMutability": "payable",
      "type": "function"
    },
    {
      "inputs": [
        {
          "internalType": "address",
          "name": "target",
          "type": "address"
        },
        {
          "internalType": "bytes[]",
          "name": "callDatas",
          "type": "bytes[]"
        }
      ],
      "name": "singleTargetNonAtomicBatch",
      "outputs": [],
      "stateMutability": "nonpayable",
      "type": "function"
    },
    {
      "inputs": [
        {
          "internalType": "address",
          "name": "target",
          "type": "address"
        },
        {
          "components": [
            {
              "internalType": "bytes",
              "name": "callData",
              "type": "bytes"
            },
            {
              "internalType": "uint256",
              "name": "value",
              "type": "uint256"
            }
          ],
          "internalType": "struct Batch.SingleTargetExecutionWithETH[]",
          "name": "executions",
          "type": "tuple[]"
        }
      ],
      "name": "singleTargetNonAtomicBatchWithETH",
      "outputs": [],
      "stateMutability": "payable",
      "type": "function"
    },
    {
      "inputs": [
        {
          "internalType": "bytes4",
          "name": "_interfaceId",
          "type": "bytes4"
        }
      ],
      "name": "supportsInterface",
      "outputs": [
        {
          "internalType": "bool",
          "name": "",
          "type": "bool"
        }
      ],
      "stateMutability": "pure",
      "type": "function"
    }
  ],
  "args": [
    "0x8A0e83DE499d7543CF486974a6196a35B5F573E7"
  ],
  "solcInputHash": "d69091a9bbfb40829ea61ac74df83f00",
  "bytecode": "0x60a060405234801561001057600080fd5b5060405161147238038061147283398101604081905261002f91610044565b60601b6001600160601b031916608052610072565b600060208284031215610055578081fd5b81516001600160a01b038116811461006b578182fd5b9392505050565b60805160601c6113bb6100b760003980610274528061040f52806104ba5280610550528061061052806106dd528061070a52806107c1528061086e52506113bb6000f3fe6080604052600436106100d15760003560e01c806393538f111161007f578063d2570b3b11610059578063d2570b3b146101f6578063f23a6e6114610216578063f28503e914610236578063fad5f5ed14610249576100d1565b806393538f11146101a1578063bc197c81146101b4578063c34c08e5146101d4576100d1565b8063150b7a02116100b0578063150b7a021461014e578063570187a01461017b5780638fc179571461018e576100d1565b8062ebd9e5146100d657806301ffc9a7146100f85780630dc09f2f1461012e575b600080fd5b3480156100e257600080fd5b506100f66100f1366004611129565b610269565b005b34801561010457600080fd5b506101186101133660046111f8565b61031d565b6040516101259190611285565b60405180910390f35b34801561013a57600080fd5b506100f6610149366004610eb6565b610404565b34801561015a57600080fd5b5061016e610169366004610dda565b610485565b6040516101259190611290565b6100f6610189366004610f55565b6104af565b6100f661019c366004611040565b610545565b6100f66101af366004610f55565b610605565b3480156101c057600080fd5b5061016e6101cf366004610d23565b6106ae565b3480156101e057600080fd5b506101e96106db565b6040516101259190611271565b34801561020257600080fd5b506100f6610211366004610eb6565b6106ff565b34801561022257600080fd5b5061016e610231366004610e40565b61078b565b6100f6610244366004611040565b6107b6565b34801561025557600080fd5b506100f6610264366004611129565b610863565b336001600160a01b037f000000000000000000000000000000000000000000000000000000000000000016146102ba5760405162461bcd60e51b81526004016102b1906112bd565b60405180910390fd5b60005b8151811015610319576103108282815181106102d557fe5b6020026020010151602001518383815181106102ed57fe5b6020026020010151600001516001600160a01b03166108fa90919063ffffffff16565b506001016102bd565b5050565b60007f01ffc9a7000000000000000000000000000000000000000000000000000000007fffffffff00000000000000000000000000000000000000000000000000000000831614806103b057507fffffffff0000000000000000000000000000000000000000000000000000000082167f4e2312e000000000000000000000000000000000000000000000000000000000145b806103fc57507fffffffff0000000000000000000000000000000000000000000000000000000082167f150b7a0200000000000000000000000000000000000000000000000000000000145b90505b919050565b336001600160a01b037f0000000000000000000000000000000000000000000000000000000000000000161461044c5760405162461bcd60e51b81526004016102b1906112bd565b60005b8151811015610480576104778383838151811061046857fe5b60200260200101516000610943565b5060010161044f565b505050565b7f150b7a02000000000000000000000000000000000000000000000000000000005b949350505050565b336001600160a01b037f000000000000000000000000000000000000000000000000000000000000000016146104f75760405162461bcd60e51b81526004016102b1906112bd565b60005b81518110156104805761053c8383838151811061051357fe5b60200260200101516000015184848151811061052b57fe5b602002602001015160200151610943565b506001016104fa565b336001600160a01b037f0000000000000000000000000000000000000000000000000000000000000000161461058d5760405162461bcd60e51b81526004016102b1906112bd565b60005b8151811015610319576105fc8282815181106105a857fe5b6020026020010151602001518383815181106105c057fe5b6020026020010151604001518484815181106105d857fe5b6020026020010151600001516001600160a01b03166109ad9092919063ffffffff16565b50600101610590565b336001600160a01b037f0000000000000000000000000000000000000000000000000000000000000000161461064d5760405162461bcd60e51b81526004016102b1906112bd565b60005b8151811015610480576106a582828151811061066857fe5b60200260200101516000015183838151811061068057fe5b602002602001015160200151856001600160a01b03166109ad9092919063ffffffff16565b50600101610650565b7fbc197c810000000000000000000000000000000000000000000000000000000098975050505050505050565b7f000000000000000000000000000000000000000000000000000000000000000081565b336001600160a01b037f000000000000000000000000000000000000000000000000000000000000000016146107475760405162461bcd60e51b81526004016102b1906112bd565b60005b81518110156104805761078282828151811061076257fe5b6020026020010151846001600160a01b03166108fa90919063ffffffff16565b5060010161074a565b7ff23a6e61000000000000000000000000000000000000000000000000000000009695505050505050565b336001600160a01b037f000000000000000000000000000000000000000000000000000000000000000016146107fe5760405162461bcd60e51b81526004016102b1906112bd565b60005b81518110156103195761085a82828151811061081957fe5b60200260200101516000015183838151811061083157fe5b60200260200101516020015184848151811061084957fe5b602002602001015160400151610943565b50600101610801565b336001600160a01b037f000000000000000000000000000000000000000000000000000000000000000016146108ab5760405162461bcd60e51b81526004016102b1906112bd565b60005b8151811015610319576108f18282815181106108c657fe5b6020026020010151600001518383815181106108de57fe5b6020026020010151602001516000610943565b506001016108ae565b606061093c83836040518060400160405280601e81526020017f416464726573733a206c6f772d6c6576656c2063616c6c206661696c656400008152506109d3565b9392505050565b600080846001600160a01b0316838560405161095f9190611238565b60006040518083038185875af1925050503d806000811461099c576040519150601f19603f3d011682016040523d82523d6000602084013e6109a1565b606091505b50909695505050505050565b60606104a784848460405180606001604052806029815260200161135d602991396109e2565b60606104a78484600085610a38565b606082471015610a235760405162461bcd60e51b81526004018080602001828103825260268152602001806113376026913960400191505060405180910390fd5b610a2f85858585610a38565b95945050505050565b6060610a4385610be3565b610a94576040805162461bcd60e51b815260206004820152601d60248201527f416464726573733a2063616c6c20746f206e6f6e2d636f6e7472616374000000604482015290519081900360640190fd5b60006060866001600160a01b031685876040518082805190602001908083835b60208310610ad35780518252601f199092019160209182019101610ab4565b6001836020036101000a03801982511681845116808217855250505050505090500191505060006040518083038185875af1925050503d8060008114610b35576040519150601f19603f3d011682016040523d82523d6000602084013e610b3a565b606091505b50915091508115610b4e5791506104a79050565b805115610b5e5780518082602001fd5b8360405162461bcd60e51b81526004018080602001828103825283818151815260200191508051906020019080838360005b83811015610ba8578181015183820152602001610b90565b50505050905090810190601f168015610bd55780820380516001836020036101000a031916815260200191505b509250505060405180910390fd5b6000813f7fc5d2460186f7233c927e7db2dcc703c0e500b653ca82273b7bfad8045d85a4708181148015906104a7575050151592915050565b80356001600160a01b03811681146103ff57600080fd5b60008083601f840112610c44578182fd5b50813567ffffffffffffffff811115610c5b578182fd5b6020830191508360208083028501011115610c7557600080fd5b9250929050565b60008083601f840112610c8d578182fd5b50813567ffffffffffffffff811115610ca4578182fd5b602083019150836020828501011115610c7557600080fd5b600082601f830112610ccc578081fd5b813567ffffffffffffffff811115610ce057fe5b610cf36020601f19601f840116016112f4565b9150808252836020828501011115610d0a57600080fd5b8060208401602084013760009082016020015292915050565b60008060008060008060008060a0898b031215610d3e578384fd5b610d4789610c1c565b9750610d5560208a01610c1c565b9650604089013567ffffffffffffffff80821115610d71578586fd5b610d7d8c838d01610c33565b909850965060608b0135915080821115610d95578586fd5b610da18c838d01610c33565b909650945060808b0135915080821115610db9578384fd5b50610dc68b828c01610c7c565b999c989b5096995094979396929594505050565b60008060008060808587031215610def578384fd5b610df885610c1c565b9350610e0660208601610c1c565b925060408501359150606085013567ffffffffffffffff811115610e28578182fd5b610e3487828801610cbc565b91505092959194509250565b60008060008060008060a08789031215610e58578182fd5b610e6187610c1c565b9550610e6f60208801610c1c565b94506040870135935060608701359250608087013567ffffffffffffffff811115610e98578283fd5b610ea489828a01610c7c565b979a9699509497509295939492505050565b60008060408385031215610ec8578182fd5b610ed183610c1c565b915060208084013567ffffffffffffffff811115610eed578283fd5b8401601f81018613610efd578283fd5b8035610f10610f0b82611318565b6112f4565b81815283810190838501865b84811015610f4557610f338b888435890101610cbc565b84529286019290860190600101610f1c565b5096999098509650505050505050565b60008060408385031215610f67578182fd5b610f7083610c1c565b915060208084013567ffffffffffffffff80821115610f8d578384fd5b818601915086601f830112610fa0578384fd5b8135610fae610f0b82611318565b81815284810190848601875b8481101561102f57813587016040601f19828f03011215610fd957898afd5b604051604081018181108982111715610fee57fe5b604052818a013588811115611001578b8cfd5b61100f8f8c83860101610cbc565b825250604091909101358982015284529287019290870190600101610fba565b50979a909950975050505050505050565b60006020808385031215611052578182fd5b823567ffffffffffffffff80821115611069578384fd5b818501915085601f83011261107c578384fd5b813561108a610f0b82611318565b81815284810190848601875b8481101561111a57813587016060601f19828e030112156110b557898afd5b60408051606081018181108a821117156110cb57fe5b82526110d8838c01610c1c565b815281830135898111156110ea578c8dfd5b6110f88f8d83870101610cbc565b828d015250606092909201359082015284529287019290870190600101611096565b50909998505050505050505050565b6000602080838503121561113b578182fd5b823567ffffffffffffffff80821115611152578384fd5b818501915085601f830112611165578384fd5b8135611173610f0b82611318565b81815284810190848601875b8481101561111a5781358701604080601f19838f0301121561119f578a8bfd5b80518181018181108a821117156111b257fe5b82526111bf838c01610c1c565b81529082013590888211156111d2578b8cfd5b6111e08e8c84860101610cbc565b818c015286525050928701929087019060010161117f565b600060208284031215611209578081fd5b81357fffffffff000000000000000000000000000000000000000000000000000000008116811461093c578182fd5b60008251815b81811015611258576020818601810151858301520161123e565b818111156112665782828501525b509190910192915050565b6001600160a01b0391909116815260200190565b901515815260200190565b7fffffffff0000000000000000000000000000000000000000000000000000000091909116815260200190565b6020808252600e908201527f4e4f545f415554484f52495a4544000000000000000000000000000000000000604082015260600190565b60405181810167ffffffffffffffff8111828210171561131057fe5b604052919050565b600067ffffffffffffffff82111561132c57fe5b506020908102019056fe416464726573733a20696e73756666696369656e742062616c616e636520666f722063616c6c416464726573733a206c6f772d6c6576656c2063616c6c20776974682076616c7565206661696c6564a26469706673582212203603f802188aab61b9f08c3e86f77899d0f0cef0a19d10ad9804887a25f57fb264736f6c63430007050033",
  "devdoc": {
    "kind": "dev",
    "methods": {},
    "version": 1
  },
  "userdoc": {
    "kind": "user",
    "methods": {},
    "version": 1
  },
  "storageLayout": {
    "storage": [],
    "types": null
  }
}