{
  "abi": [
    {
      "inputs": [
        {
          "internalType": "address",
          "name": "metaTransactionContract",
          "type": "address"
        },
        {
          "internalType": "address",
          "name": "admin",
          "type": "address"
        },
        {
          "internalType": "address",
          "name": "initialMinter",
          "type": "address"
        }
      ],
      "stateMutability": "nonpayable",
      "type": "constructor"
    },
    {
      "anonymous": false,
      "inputs": [
        {
          "indexed": false,
          "internalType": "address",
          "name": "oldAdmin",
          "type": "address"
        },
        {
          "indexed": false,
          "internalType": "address",
          "name": "newAdmin",
          "type": "address"
        }
      ],
      "name": "AdminChanged",
      "type": "event"
    },
    {
      "anonymous": false,
      "inputs": [
        {
          "indexed": true,
          "internalType": "address",
          "name": "owner",
          "type": "address"
        },
        {
          "indexed": true,
          "internalType": "address",
          "name": "operator",
          "type": "address"
        },
        {
          "indexed": false,
          "internalType": "bool",
          "name": "approved",
          "type": "bool"
        }
      ],
      "name": "ApprovalForAll",
      "type": "event"
    },
    {
      "anonymous": false,
      "inputs": [
        {
          "indexed": false,
          "internalType": "address",
          "name": "metaTransactionProcessor",
          "type": "address"
        },
        {
          "indexed": false,
          "internalType": "bool",
          "name": "enabled",
          "type": "bool"
        }
      ],
      "name": "MetaTransactionProcessor",
      "type": "event"
    },
    {
      "anonymous": false,
      "inputs": [
        {
          "indexed": false,
          "internalType": "address",
          "name": "minter",
          "type": "address"
        },
        {
          "indexed": false,
          "internalType": "bool",
          "name": "enabled",
          "type": "bool"
        }
      ],
      "name": "Minter",
      "type": "event"
    },
    {
      "anonymous": false,
      "inputs": [
        {
          "indexed": false,
          "internalType": "contract ERC20SubToken",
          "name": "subToken",
          "type": "address"
        }
      ],
      "name": "SubToken",
      "type": "event"
    },
    {
      "anonymous": false,
      "inputs": [
        {
          "indexed": false,
          "internalType": "address",
          "name": "superOperator",
          "type": "address"
        },
        {
          "indexed": false,
          "internalType": "bool",
          "name": "enabled",
          "type": "bool"
        }
      ],
      "name": "SuperOperator",
      "type": "event"
    },
    {
      "inputs": [
        {
          "internalType": "contract ERC20SubToken[]",
          "name": "catalysts",
          "type": "address[]"
        }
      ],
      "name": "addGems",
      "outputs": [],
      "stateMutability": "nonpayable",
      "type": "function"
    },
    {
      "inputs": [
        {
          "internalType": "address",
          "name": "owner",
          "type": "address"
        },
        {
          "internalType": "uint256",
          "name": "id",
          "type": "uint256"
        }
      ],
      "name": "balanceOf",
      "outputs": [
        {
          "internalType": "uint256",
          "name": "balance",
          "type": "uint256"
        }
      ],
      "stateMutability": "view",
      "type": "function"
    },
    {
      "inputs": [
        {
          "internalType": "address[]",
          "name": "owners",
          "type": "address[]"
        },
        {
          "internalType": "uint256[]",
          "name": "ids",
          "type": "uint256[]"
        }
      ],
      "name": "balanceOfBatch",
      "outputs": [
        {
          "internalType": "uint256[]",
          "name": "balances",
          "type": "uint256[]"
        }
      ],
      "stateMutability": "view",
      "type": "function"
    },
    {
      "inputs": [
        {
          "internalType": "address",
          "name": "from",
          "type": "address"
        },
        {
          "internalType": "uint256[]",
          "name": "ids",
          "type": "uint256[]"
        },
        {
          "internalType": "uint256[]",
          "name": "amounts",
          "type": "uint256[]"
        }
      ],
      "name": "batchBurnFrom",
      "outputs": [],
      "stateMutability": "nonpayable",
      "type": "function"
    },
    {
      "inputs": [
        {
          "internalType": "address",
          "name": "to",
          "type": "address"
        },
        {
          "internalType": "uint256[]",
          "name": "ids",
          "type": "uint256[]"
        },
        {
          "internalType": "uint256[]",
          "name": "amounts",
          "type": "uint256[]"
        }
      ],
      "name": "batchMint",
      "outputs": [],
      "stateMutability": "nonpayable",
      "type": "function"
    },
    {
      "inputs": [
        {
          "internalType": "address",
          "name": "from",
          "type": "address"
        },
        {
          "internalType": "address",
          "name": "to",
          "type": "address"
        },
        {
          "internalType": "uint256[]",
          "name": "ids",
          "type": "uint256[]"
        },
        {
          "internalType": "uint256[]",
          "name": "values",
          "type": "uint256[]"
        }
      ],
      "name": "batchTransferFrom",
      "outputs": [],
      "stateMutability": "nonpayable",
      "type": "function"
    },
    {
      "inputs": [
        {
          "internalType": "uint256",
          "name": "id",
          "type": "uint256"
        },
        {
          "internalType": "uint256",
          "name": "value",
          "type": "uint256"
        }
      ],
      "name": "burn",
      "outputs": [],
      "stateMutability": "nonpayable",
      "type": "function"
    },
    {
      "inputs": [
        {
          "internalType": "address",
          "name": "from",
          "type": "address"
        },
        {
          "internalType": "uint256",
          "name": "id",
          "type": "uint256"
        },
        {
          "internalType": "uint256",
          "name": "value",
          "type": "uint256"
        }
      ],
      "name": "burnFrom",
      "outputs": [],
      "stateMutability": "nonpayable",
      "type": "function"
    },
    {
      "inputs": [
        {
          "internalType": "address",
          "name": "newAdmin",
          "type": "address"
        }
      ],
      "name": "changeAdmin",
      "outputs": [],
      "stateMutability": "nonpayable",
      "type": "function"
    },
    {
      "inputs": [],
      "name": "getAdmin",
      "outputs": [
        {
          "internalType": "address",
          "name": "",
          "type": "address"
        }
      ],
      "stateMutability": "view",
      "type": "function"
    },
    {
      "inputs": [
        {
          "internalType": "address",
          "name": "owner",
          "type": "address"
        },
        {
          "internalType": "address",
          "name": "operator",
          "type": "address"
        }
      ],
      "name": "isApprovedForAll",
      "outputs": [
        {
          "internalType": "bool",
          "name": "isOperator",
          "type": "bool"
        }
      ],
      "stateMutability": "view",
      "type": "function"
    },
    {
      "inputs": [
        {
          "internalType": "address",
          "name": "sender",
          "type": "address"
        }
      ],
      "name": "isAuthorizedToApprove",
      "outputs": [
        {
          "internalType": "bool",
          "name": "",
          "type": "bool"
        }
      ],
      "stateMutability": "view",
      "type": "function"
    },
    {
      "inputs": [
        {
          "internalType": "address",
          "name": "owner",
          "type": "address"
        },
        {
          "internalType": "address",
          "name": "sender",
          "type": "address"
        }
      ],
      "name": "isAuthorizedToTransfer",
      "outputs": [
        {
          "internalType": "bool",
          "name": "",
          "type": "bool"
        }
      ],
      "stateMutability": "view",
      "type": "function"
    },
    {
      "inputs": [
        {
          "internalType": "address",
          "name": "who",
          "type": "address"
        }
      ],
      "name": "isMetaTransactionProcessor",
      "outputs": [
        {
          "internalType": "bool",
          "name": "",
          "type": "bool"
        }
      ],
      "stateMutability": "view",
      "type": "function"
    },
    {
      "inputs": [
        {
          "internalType": "address",
          "name": "who",
          "type": "address"
        }
      ],
      "name": "isMinter",
      "outputs": [
        {
          "internalType": "bool",
          "name": "",
          "type": "bool"
        }
      ],
      "stateMutability": "view",
      "type": "function"
    },
    {
      "inputs": [
        {
          "internalType": "address",
          "name": "who",
          "type": "address"
        }
      ],
      "name": "isSuperOperator",
      "outputs": [
        {
          "internalType": "bool",
          "name": "",
          "type": "bool"
        }
      ],
      "stateMutability": "view",
      "type": "function"
    },
    {
      "inputs": [
        {
          "internalType": "address",
          "name": "to",
          "type": "address"
        },
        {
          "internalType": "uint256",
          "name": "id",
          "type": "uint256"
        },
        {
          "internalType": "uint256",
          "name": "amount",
          "type": "uint256"
        }
      ],
      "name": "mint",
      "outputs": [],
      "stateMutability": "nonpayable",
      "type": "function"
    },
    {
      "inputs": [
        {
          "internalType": "address",
          "name": "operator",
          "type": "address"
        },
        {
          "internalType": "bool",
          "name": "approved",
          "type": "bool"
        }
      ],
      "name": "setApprovalForAll",
      "outputs": [],
      "stateMutability": "nonpayable",
      "type": "function"
    },
    {
      "inputs": [
        {
          "internalType": "address",
          "name": "sender",
          "type": "address"
        },
        {
          "internalType": "address",
          "name": "operator",
          "type": "address"
        },
        {
          "internalType": "bool",
          "name": "approved",
          "type": "bool"
        }
      ],
      "name": "setApprovalForAllFor",
      "outputs": [],
      "stateMutability": "nonpayable",
      "type": "function"
    },
    {
      "inputs": [
        {
          "internalType": "address",
          "name": "metaTransactionProcessor",
          "type": "address"
        },
        {
          "internalType": "bool",
          "name": "enabled",
          "type": "bool"
        }
      ],
      "name": "setMetaTransactionProcessor",
      "outputs": [],
      "stateMutability": "nonpayable",
      "type": "function"
    },
    {
      "inputs": [
        {
          "internalType": "address",
          "name": "minter",
          "type": "address"
        },
        {
          "internalType": "bool",
          "name": "enabled",
          "type": "bool"
        }
      ],
      "name": "setMinter",
      "outputs": [],
      "stateMutability": "nonpayable",
      "type": "function"
    },
    {
      "inputs": [
        {
          "internalType": "address",
          "name": "superOperator",
          "type": "address"
        },
        {
          "internalType": "bool",
          "name": "enabled",
          "type": "bool"
        }
      ],
      "name": "setSuperOperator",
      "outputs": [],
      "stateMutability": "nonpayable",
      "type": "function"
    },
    {
      "inputs": [
        {
          "internalType": "address",
          "name": "from",
          "type": "address"
        },
        {
          "internalType": "address",
          "name": "to",
          "type": "address"
        },
        {
          "internalType": "uint256",
          "name": "id",
          "type": "uint256"
        },
        {
          "internalType": "uint256",
          "name": "value",
          "type": "uint256"
        }
      ],
      "name": "singleTransferFrom",
      "outputs": [],
      "stateMutability": "nonpayable",
      "type": "function"
    },
    {
      "inputs": [
        {
          "internalType": "uint256",
          "name": "id",
          "type": "uint256"
        }
      ],
      "name": "supplyOf",
      "outputs": [
        {
          "internalType": "uint256",
          "name": "supply",
          "type": "uint256"
        }
      ],
      "stateMutability": "view",
      "type": "function"
    }
  ],
  "address": "0xAC3B753ae3eA12EA2a901E5659E1632BFeEDd64c",
  "args": [
    "0xCc933a862fc15379E441F2A16Cb943D385a4695f",
    "0x61c461EcC993aaDEB7e4b47E96d1B8cC37314B20",
    "0xcbc70EcCd52bF3910CDC1455E6D2Bd45725F573D"
  ],
  "bytecode": "0x60806040523480156200001157600080fd5b50604051620027ff380380620027ff83398101604081905262000034916200013d565b600080546001600160a01b0319166001600160a01b0384161790558282826200005f83600162000081565b620000758160016001600160e01b03620000e516565b505050505050620001c4565b6001600160a01b03821660009081526002602052604090819020805460ff1916831515179055517fb21eb88b4e33b3f1281830a7178d74d8aa73220416215726b68ae23d539515cb90620000d9908490849062000190565b60405180910390a15050565b6001600160a01b03821660009081526007602052604090819020805460ff1916831515179055517fff452b3b9159b024a9098f0058c63eccd90d36b3584608202800d662f962bb6090620000d9908490849062000190565b60008060006060848603121562000152578283fd5b83516200015f81620001ab565b60208501519093506200017281620001ab565b60408501519092506200018581620001ab565b809150509250925092565b6001600160a01b039290921682521515602082015260400190565b6001600160a01b0381168114620001c157600080fd5b50565b61262b80620001d46000396000f3fe608060405234801561001057600080fd5b50600436106101975760003560e01c80638f283970116100e3578063b390c0ab1161008c578063e985e9c511610066578063e985e9c51461035f578063eaa5125114610372578063eeb5a5d11461038557610197565b8063b390c0ab14610326578063cf456ae714610339578063dc5074af1461034c57610197565b8063aa271e1a116100bd578063aa271e1a146102ed578063ab1c2cf314610300578063ac9fe4211461031357610197565b80638f283970146102b4578063a22cb465146102c7578063a531e0fa146102da57610197565b80634e1273f411610145578063805349341161011f578063805349341461027b5780638806792f1461028e5780638a04af6a146102a157610197565b80634e1273f414610233578063654b748a146102535780636e9960c31461026657610197565b8063124d91e511610176578063124d91e5146101fa578063156e29f61461020d57806317fad7fc1461022057610197565b8062fdd58e1461019c5780630ca83480146101c55780630d70e29c146101da575b600080fd5b6101af6101aa366004611f80565b610398565b6040516101bc91906125d4565b60405180910390f35b6101d86101d3366004611ecf565b6103e8565b005b6101ed6101e8366004611d72565b6104b4565b6040516101bc919061218a565b6101d8610208366004611fab565b61052a565b6101d861021b366004611fab565b6105c4565b6101d861022e366004611daa565b610710565b610246610241366004611fdf565b610a6b565b6040516101bc9190612146565b6101ed610261366004611d3a565b610b3f565b61026e610b5d565b6040516101bc91906120d9565b6101d8610289366004611ecf565b610b6c565b6101af61029c366004612088565b610c8a565b6101d86102af366004611f4f565b610cc4565b6101d86102c2366004611d3a565b610cfc565b6101d86102d5366004611f4f565b610da7565b6101d86102e8366004611e8a565b610db2565b6101ed6102fb366004611d3a565b610fb6565b6101d861030e366004612048565b610fd4565b6101d8610321366004611f4f565b61103b565b6101d86103343660046120b8565b6110c7565b6101d8610347366004611f4f565b6110d2565b6101ed61035a366004611d3a565b611106565b6101ed61036d366004611d72565b611124565b6101ed610380366004611d3a565b611176565b6101d8610393366004611e3c565b6111bb565b60008060006103a684611222565b6001600160a01b038716600090815260046020908152604080832085845290915290205491935091506103df908263ffffffff61123316565b95945050505050565b3360009081526007602052604090205460ff166104205760405162461bcd60e51b81526004016104179061259d565b60405180910390fd5b82811461043f5760405162461bcd60e51b8152600401610417906121cc565b6104ad858585808060200260200160405190810160405280939291908181526020018383602002808284376000920191909152505060408051602080890282810182019093528882529093508892508791829185019084908082843760009201919091525061124d92505050565b5050505050565b6001600160a01b03811660009081526002602052604081205460ff16806104f357506001600160a01b03821660009081526001602052604090205460ff165b8061052357506001600160a01b0380841660009081526005602090815260408083209386168352929052205460ff165b9392505050565b6001600160a01b03831633148061055057503360009081526001602052604090205460ff165b8061057e57506001600160a01b038316600090815260056020908152604080832033845290915290205460ff165b8061059857503360009081526002602052604090205460ff165b6105b45760405162461bcd60e51b815260040161041790612566565b6105bf8383836114bc565b505050565b3360009081526007602052604090205460ff166105f35760405162461bcd60e51b81526004016104179061259d565b6000806105ff84611222565b6001600160a01b038716600090815260046020908152604080832085845290915281205492945090925061063d91908390869063ffffffff6115d516565b6001600160a01b0386166000908152600460209081526040808320868452825280832093909355600390529081205461067f918390869063ffffffff6115d516565b600083815260036020526040902055600680548590811061069c57fe5b600091825260208220015460405163536a4ee560e11b81526001600160a01b039091169163a6d49dca916106d79190899088906004016120ed565b600060405180830381600087803b1580156106f157600080fd5b505af1158015610705573d6000803e3d6000fd5b505050505050505050565b82811461072f5760405162461bcd60e51b8152600401610417906121cc565b6001600160a01b0385166107555760405162461bcd60e51b81526004016104179061223a565b6001600160a01b03861633148061077b57503360009081526001602052604090205460ff165b806107a957506001600160a01b038616600090815260056020908152604080832033845290915290205460ff165b806107c357503360009081526002602052604090205460ff165b6107df5760405162461bcd60e51b815260040161041790612566565b600019600080805b86811015610a1b5760008061080d8a8a8581811061080157fe5b90506020020135611222565b915091506000198614156108b0576001600160a01b038c166000908152600460209081526040808320858452909152902054919550859161086390828a8a8781811061085557fe5b9050602002013560016115d5565b6001600160a01b038c1660009081526004602090815260408083208684529091529020549095506108a990828a8a8781811061089b57fe5b9050602002013560006115d5565b9350610969565b858214610912576001600160a01b038c811660009081526004602081815260408084208b85528083528185209a909a55938f16835290815282822098825288815282822096909655838152958552808620549690945292909320549293929184905b61093b8189898681811061092257fe5b899392602090910201359050600163ffffffff6115d516565b94506109668189898681811061094d57fe5b889392602090910201359050600063ffffffff6115d516565b93505b600060068b8b8681811061097957fe5b905060200201358154811061098a57fe5b6000918252602090912001546001600160a01b031690508063a6d49dca8e8e8c8c898181106109b557fe5b905060200201356040518463ffffffff1660e01b81526004016109da939291906120ed565b600060405180830381600087803b1580156109f457600080fd5b505af1158015610a08573d6000803e3d6000fd5b5050600190950194506107e79350505050565b506000198314610705576001600160a01b03808a1660009081526004602081815260408084208885528252808420879055938c168352908152828220868352905220819055505050505050505050565b6060838214610a8c5760405162461bcd60e51b8152600401610417906121cc565b8167ffffffffffffffff81118015610aa357600080fd5b50604051908082528060200260200182016040528015610acd578160200160208202803683370190505b50905060005b82811015610b3657610b17868683818110610aea57fe5b9050602002016020810190610aff9190611d3a565b858584818110610b0b57fe5b90506020020135610398565b828281518110610b2357fe5b6020908102919091010152600101610ad3565b50949350505050565b6001600160a01b031660009081526001602052604090205460ff1690565b6000546001600160a01b031690565b6001600160a01b038516610b925760405162461bcd60e51b815260040161041790612373565b6001600160a01b038516331480610bb857503360009081526002602052604090205460ff165b80610bd257503360009081526001602052604090205460ff165b80610c0057506001600160a01b038516600090815260056020908152604080832033845290915290205460ff165b610c1c5760405162461bcd60e51b815260040161041790612566565b6104ad85858580806020026020016040519081016040528093929190818152602001838360200280828437600092019190915250506040805160208089028281018201909352888252909350889250879182918501908490808284376000920191909152506116a492505050565b6000806000610c9884611222565b6000828152600360205260409020549193509150610cbc908263ffffffff61123316565b949350505050565b6000546001600160a01b03163314610cee5760405162461bcd60e51b81526004016104179061249b565b610cf8828261192d565b5050565b6000546001600160a01b03163314610d265760405162461bcd60e51b8152600401610417906124f8565b6000546040517f7e644d79422f17c01e4894b5f4f588d331ebfa28653d42ae832dc59e38c9798f91610d65916001600160a01b03909116908490612111565b60405180910390a1600080547fffffffffffffffffffffffff0000000000000000000000000000000000000000166001600160a01b0392909216919091179055565b610cf8338383611983565b6001600160a01b038316610dd85760405162461bcd60e51b81526004016104179061223a565b600060068381548110610de757fe5b6000918252602090912001546001600160a01b0390811691508516331480610e175750336001600160a01b038216145b80610e3157503360009081526002602052604090205460ff165b80610e4b57503360009081526001602052604090205460ff165b80610e7957506001600160a01b038516600090815260056020908152604080832033845290915290205460ff165b610e955760405162461bcd60e51b815260040161041790612566565b600080610ea185611222565b6001600160a01b03891660009081526004602090815260408083208584529091529020549193509150610edd908286600163ffffffff6115d516565b6001600160a01b038089166000908152600460208181526040808420888552825280842095909555928a168252825282812085825290915290812054610f2c918390879063ffffffff6115d516565b6001600160a01b03808816600090815260046020818152604080842088855290915291829020939093555163536a4ee560e11b81529085169163a6d49dca91610f7b918b918b918a91016120ed565b600060405180830381600087803b158015610f9557600080fd5b505af1158015610fa9573d6000803e3d6000fd5b5050505050505050505050565b6001600160a01b031660009081526007602052604090205460ff1690565b6000546001600160a01b03163314610ffe5760405162461bcd60e51b81526004016104179061233c565b60005b818110156105bf5761103283838381811061101857fe5b905060200201602081019061102d9190611d3a565b611a2d565b50600101611001565b6000546001600160a01b031633146110655760405162461bcd60e51b8152600401610417906123aa565b6001600160a01b03821660009081526001602052604090819020805460ff1916831515179055517f44f92d27abdf4cfb6a7d712c3af68f3be086d4ca747ab802c36f67d6790060d8906110bb908490849061212b565b60405180910390a15050565b610cf83383836114bc565b6000546001600160a01b031633146110fc5760405162461bcd60e51b81526004016104179061233c565b610cf88282611c07565b6001600160a01b031660009081526002602052604090205460ff1690565b6001600160a01b03808316600090815260056020908152604080832093851683529290529081205460ff16806105235750506001600160a01b031660009081526001602052604090205460ff16919050565b6001600160a01b03811660009081526002602052604081205460ff16806111b557506001600160a01b03821660009081526001602052604090205460ff165b92915050565b336001600160a01b03841614806111e157503360009081526002602052604090205460ff165b806111fb57503360009081526001602052604090205460ff165b6112175760405162461bcd60e51b815260040161041790612566565b6105bf838383611983565b610100602082020491600790911690565b600181016020026101000382901c63ffffffff1692915050565b600019600080805b85518110156114795760008061127d88848151811061127057fe5b6020026020010151611222565b9150915060001986141561131a578195506112d98188858151811061129e57fe5b6020908102919091018101516001600160a01b038d16600090815260048352604080822088835290935291822054929163ffffffff6115d516565b9450611313818885815181106112eb57fe5b602090810291909101810151600086815260039092526040822054929163ffffffff6115d516565b93506113c6565b85821461136b576001600160a01b0389166000908152600460209081526040808320898452825280832097909755838252868220549782526003905285812094909455818452939092205491939284905b6113968188858151811061137b57fe5b60200260200101516000886115d5909392919063ffffffff16565b94506113c3818885815181106113a857fe5b60200260200101516000876115d5909392919063ffffffff16565b93505b60068884815181106113d457fe5b6020026020010151815481106113e657fe5b600091825260208220015488516001600160a01b039091169163a6d49dca918c908b908890811061141357fe5b60200260200101516040518463ffffffff1660e01b8152600401611439939291906120ed565b600060405180830381600087803b15801561145357600080fd5b505af1158015611467573d6000803e3d6000fd5b50506001909401935061125592505050565b5060001983146114b4576001600160a01b03861660009081526004602090815260408083208684528252808320859055600390915290208190555b505050505050565b6000600683815481106114cb57fe5b60009182526020822001546001600160a01b03169150806114eb85611222565b6001600160a01b0388166000908152600460209081526040808320858452909152902054919350915061152190828660016115d5565b6001600160a01b038716600090815260046020908152604080832086845282528083209390935560039052205461155b90828660016115d5565b60008381526003602052604080822092909255905163536a4ee560e11b81526001600160a01b0385169163a6d49dca9161159b918a9189906004016120ed565b600060405180830381600087803b1580156115b557600080fd5b505af11580156115c9573d6000803e3d6000fd5b50505050505050505050565b600080808360028111156115e557fe5b1415611618576115f58686611233565b9050611611868661160c848863ffffffff611c5d16565b611c80565b9150610b36565b600183600281111561162657fe5b141561166d576116368686611233565b9050838110156116585760405162461bcd60e51b81526004016104179061243e565b611611868661160c848863ffffffff611cc916565b600283600281111561167b57fe5b141561168c57611611868686611c80565b60405162461bcd60e51b815260040161041790612305565b600080600019815b85518110156118eb578481815181106116c157fe5b6020026020010151600014611839576000806116e288848151811061127057fe5b91509150600019841415611788578193506117418188858151811061170357fe5b6020908102919091018101516001600160a01b038d16600090815260048352604080822088835290935291909120549190600163ffffffff6115d516565b95506117818188858151811061175357fe5b6020026020010151600160036000878152602001908152602001600020546115d5909392919063ffffffff16565b9450611836565b8382146117db576001600160a01b03891660009081526004602090815260408083208784528252808320989098558382528782205495825260039052868120959095558185529490932054919391929182905b611806818885815181106117eb57fe5b60200260200101516001896115d5909392919063ffffffff16565b95506118338188858151811061181857fe5b60200260200101516001886115d5909392919063ffffffff16565b94505b50505b600686828151811061184757fe5b60200260200101518154811061185957fe5b600091825260208220015486516001600160a01b039091169163a6d49dca918a919089908690811061188757fe5b60200260200101516040518463ffffffff1660e01b81526004016118ad939291906120ed565b600060405180830381600087803b1580156118c757600080fd5b505af11580156118db573d6000803e3d6000fd5b5050600190920191506116ac9050565b5060001981146114b4576001600160a01b0386166000908152600460209081526040808320848452825280832086905560039091529020829055505050505050565b6001600160a01b03821660009081526002602052604090819020805460ff1916831515179055517fb21eb88b4e33b3f1281830a7178d74d8aa73220416215726b68ae23d539515cb906110bb908490849061212b565b6001600160a01b03821660009081526001602052604090205460ff16156119bc5760405162461bcd60e51b815260040161041790612203565b6001600160a01b0383811660008181526005602090815260408083209487168084529490915290819020805460ff1916851515179055517f17307eab39ab6107e8899845ad3d59bd9653f200f220920489ca2b5937696c3190611a2090859061218a565b60405180910390a3505050565b60006006805490509050306001600160a01b0316826001600160a01b0316638b7b59d06040518163ffffffff1660e01b815260040160206040518083038186803b158015611a7a57600080fd5b505afa158015611a8e573d6000803e3d6000fd5b505050506040513d601f19601f82011682018060405250810190611ab29190611d56565b6001600160a01b031614611ad85760405162461bcd60e51b815260040161041790612195565b80826001600160a01b031663b8f9260b6040518163ffffffff1660e01b815260040160206040518083038186803b158015611b1257600080fd5b505afa158015611b26573d6000803e3d6000fd5b505050506040513d601f19601f82011682018060405250810190611b4a91906120a0565b14611b675760405162461bcd60e51b815260040161041790612407565b600680546001810182556000919091527ff652222313e28459528d920b65115c16c04f3efc82aaedc97be59f3f377c0d3f0180547fffffffffffffffffffffffff0000000000000000000000000000000000000000166001600160a01b0384161790556040517f2f334d8c412c0143e93911652cc34f5fcaae2f287a574eae9736d648f9b4363190611bfa9084906120d9565b60405180910390a1919050565b6001600160a01b03821660009081526007602052604090819020805460ff1916831515179055517fff452b3b9159b024a9098f0058c63eccd90d36b3584608202800d662f962bb60906110bb908490849061212b565b818101828110156111b55760405162461bcd60e51b81526004016104179061252f565b60006401000000008210611ca65760405162461bcd60e51b815260040161041790612271565b5063ffffffff600183016020026101000390811b1984169082901b179392505050565b600082821115611ceb5760405162461bcd60e51b8152600401610417906122ce565b50900390565b60008083601f840112611d02578182fd5b50813567ffffffffffffffff811115611d19578182fd5b6020830191508360208083028501011115611d3357600080fd5b9250929050565b600060208284031215611d4b578081fd5b8135610523816125dd565b600060208284031215611d67578081fd5b8151610523816125dd565b60008060408385031215611d84578081fd5b8235611d8f816125dd565b91506020830135611d9f816125dd565b809150509250929050565b60008060008060008060808789031215611dc2578182fd5b8635611dcd816125dd565b95506020870135611ddd816125dd565b9450604087013567ffffffffffffffff80821115611df9578384fd5b611e058a838b01611cf1565b90965094506060890135915080821115611e1d578384fd5b50611e2a89828a01611cf1565b979a9699509497509295939492505050565b600080600060608486031215611e50578283fd5b8335611e5b816125dd565b92506020840135611e6b816125dd565b915060408401358015158114611e7f578182fd5b809150509250925092565b60008060008060808587031215611e9f578384fd5b8435611eaa816125dd565b93506020850135611eba816125dd565b93969395505050506040820135916060013590565b600080600080600060608688031215611ee6578081fd5b8535611ef1816125dd565b9450602086013567ffffffffffffffff80821115611f0d578283fd5b611f1989838a01611cf1565b90965094506040880135915080821115611f31578283fd5b50611f3e88828901611cf1565b969995985093965092949392505050565b60008060408385031215611f61578182fd5b8235611f6c816125dd565b915060208301358015158114611d9f578182fd5b60008060408385031215611f92578182fd5b8235611f9d816125dd565b946020939093013593505050565b600080600060608486031215611fbf578283fd5b8335611fca816125dd565b95602085013595506040909401359392505050565b60008060008060408587031215611ff4578384fd5b843567ffffffffffffffff8082111561200b578586fd5b61201788838901611cf1565b9096509450602087013591508082111561202f578384fd5b5061203c87828801611cf1565b95989497509550505050565b6000806020838503121561205a578182fd5b823567ffffffffffffffff811115612070578283fd5b61207c85828601611cf1565b90969095509350505050565b600060208284031215612099578081fd5b5035919050565b6000602082840312156120b1578081fd5b5051919050565b600080604083850312156120ca578182fd5b50508035926020909101359150565b6001600160a01b0391909116815260200190565b6001600160a01b039384168152919092166020820152604081019190915260600190565b6001600160a01b0392831681529116602082015260400190565b6001600160a01b039290921682521515602082015260400190565b6020808252825182820181905260009190848201906040850190845b8181101561217e57835183529284019291840191600101612162565b50909695505050505050565b901515815260200190565b6020808252600d908201527f494e56414c49445f47524f555000000000000000000000000000000000000000604082015260600190565b6020808252601b908201527f494e56414c49445f494e434f4e53495354454e545f4c454e4754480000000000604082015260600190565b60208082526016908201527f494e56414c49445f53555045525f4f50455241544f5200000000000000000000604082015260600190565b60208082526017908201527f494e56414c49445f544f5f5a45524f5f41444452455353000000000000000000604082015260600190565b60208082526023908201527f416d6f756e7420746f20777269746520696e2062696e20697320746f6f206c6160408201527f7267650000000000000000000000000000000000000000000000000000000000606082015260800190565b60208082526008908201527f756e6465666c6f77000000000000000000000000000000000000000000000000604082015260600190565b60208082526011908201527f496e76616c6964206f7065726174696f6e000000000000000000000000000000604082015260600190565b60208082526014908201527f4e4f545f415554484f52495a45445f41444d494e000000000000000000000000604082015260600190565b60208082526019908201527f494e56414c49445f46524f4d5f5a45524f5f4144445245535300000000000000604082015260600190565b6020808252602c908201527f6f6e6c792061646d696e20697320616c6c6f77656420746f206164642073757060408201527f6572206f70657261746f72730000000000000000000000000000000000000000606082015260800190565b6020808252600a908201527f494e56414c49445f494400000000000000000000000000000000000000000000604082015260600190565b60208082526022908201527f63616e277420737562737472616374206d6f7265207468616e2074686572652060408201527f6973000000000000000000000000000000000000000000000000000000000000606082015260800190565b6020808252602e908201527f6f6e6c792061646d696e2063616e207365747570206d6574615472616e73616360408201527f74696f6e50726f636573736f7273000000000000000000000000000000000000606082015260800190565b6020808252601b908201527f6f6e6c792061646d696e2063616e206368616e67652061646d696e0000000000604082015260600190565b60208082526008908201527f6f766572666c6f77000000000000000000000000000000000000000000000000604082015260600190565b6020808252600e908201527f4e4f545f415554484f52495a4544000000000000000000000000000000000000604082015260600190565b60208082526015908201527f4e4f545f415554484f52495a45445f4d494e5445520000000000000000000000604082015260600190565b90815260200190565b6001600160a01b03811681146125f257600080fd5b5056fea2646970667358221220386e834e1c0b8e0ddc8554de2fb66f46706e320774bb825bb69a2867c301660364736f6c63430006050033"
}