{
  "address": "0x03C1eaDa8f578Aa8FcDc90ee69e41333fab52A12",
  "abi": [
    {
      "inputs": [
        {
          "internalType": "address",
          "name": "landAddress",
          "type": "address"
        },
        {
          "internalType": "address",
          "name": "sandContractAddress",
          "type": "address"
        },
        {
          "internalType": "address",
          "name": "initialMetaTx",
          "type": "address"
        },
        {
          "internalType": "address",
          "name": "admin",
          "type": "address"
        },
        {
          "internalType": "address payable",
          "name": "initialWalletAddress",
          "type": "address"
        },
        {
          "internalType": "bytes32",
          "name": "merkleRoot",
          "type": "bytes32"
        },
        {
          "internalType": "uint256",
          "name": "expiryTime",
          "type": "uint256"
        },
        {
          "internalType": "address",
          "name": "initialSigningWallet",
          "type": "address"
        },
        {
          "internalType": "uint256",
          "name": "initialMaxCommissionRate",
          "type": "uint256"
        },
        {
          "internalType": "address",
          "name": "estate",
          "type": "address"
        },
        {
          "internalType": "address",
          "name": "asset",
          "type": "address"
        },
        {
          "internalType": "address",
          "name": "feeDistributor",
          "type": "address"
        }
      ],
      "stateMutability": "nonpayable",
      "type": "constructor"
    },
    {
      "anonymous": false,
      "inputs": [
        {
          "indexed": false,
          "internalType": "address",
          "name": "oldAdmin",
          "type": "address"
        },
        {
          "indexed": false,
          "internalType": "address",
          "name": "newAdmin",
          "type": "address"
        }
      ],
      "name": "AdminChanged",
      "type": "event"
    },
    {
      "anonymous": false,
      "inputs": [
        {
          "indexed": true,
          "internalType": "address",
          "name": "buyer",
          "type": "address"
        },
        {
          "indexed": true,
          "internalType": "address",
          "name": "to",
          "type": "address"
        },
        {
          "indexed": true,
          "internalType": "uint256",
          "name": "topCornerId",
          "type": "uint256"
        },
        {
          "indexed": false,
          "internalType": "uint256",
          "name": "size",
          "type": "uint256"
        },
        {
          "indexed": false,
          "internalType": "uint256",
          "name": "price",
          "type": "uint256"
        },
        {
          "indexed": false,
          "internalType": "address",
          "name": "token",
          "type": "address"
        },
        {
          "indexed": false,
          "internalType": "uint256",
          "name": "amountPaid",
          "type": "uint256"
        }
      ],
      "name": "LandQuadPurchased",
      "type": "event"
    },
    {
      "anonymous": false,
      "inputs": [
        {
          "indexed": false,
          "internalType": "address",
          "name": "metaTransactionProcessor",
          "type": "address"
        },
        {
          "indexed": false,
          "internalType": "bool",
          "name": "enabled",
          "type": "bool"
        }
      ],
      "name": "MetaTransactionProcessor",
      "type": "event"
    },
    {
      "anonymous": false,
      "inputs": [
        {
          "indexed": true,
          "internalType": "address",
          "name": "referrer",
          "type": "address"
        },
        {
          "indexed": true,
          "internalType": "address",
          "name": "referee",
          "type": "address"
        },
        {
          "indexed": true,
          "internalType": "address",
          "name": "token",
          "type": "address"
        },
        {
          "indexed": false,
          "internalType": "uint256",
          "name": "amount",
          "type": "uint256"
        },
        {
          "indexed": false,
          "internalType": "uint256",
          "name": "commission",
          "type": "uint256"
        },
        {
          "indexed": false,
          "internalType": "uint256",
          "name": "commissionRate",
          "type": "uint256"
        }
      ],
      "name": "ReferralUsed",
      "type": "event"
    },
    {
      "inputs": [
        {
          "internalType": "address",
          "name": "buyer",
          "type": "address"
        },
        {
          "internalType": "address",
          "name": "to",
          "type": "address"
        },
        {
          "internalType": "address",
          "name": "reserved",
          "type": "address"
        },
        {
          "internalType": "uint256",
          "name": "x",
          "type": "uint256"
        },
        {
          "internalType": "uint256",
          "name": "y",
          "type": "uint256"
        },
        {
          "internalType": "uint256",
          "name": "size",
          "type": "uint256"
        },
        {
          "internalType": "uint256",
          "name": "priceInSand",
          "type": "uint256"
        },
        {
          "internalType": "uint256",
          "name": "adjustedPriceInSand",
          "type": "uint256"
        },
        {
          "internalType": "bytes32",
          "name": "salt",
          "type": "bytes32"
        },
        {
          "internalType": "uint256[]",
          "name": "assetIds",
          "type": "uint256[]"
        },
        {
          "internalType": "bytes32[]",
          "name": "proof",
          "type": "bytes32[]"
        },
        {
          "internalType": "bytes",
          "name": "referral",
          "type": "bytes"
        }
      ],
      "name": "buyLandWithSand",
      "outputs": [],
      "stateMutability": "nonpayable",
      "type": "function"
    },
    {
      "inputs": [
        {
          "internalType": "address",
          "name": "newAdmin",
          "type": "address"
        }
      ],
      "name": "changeAdmin",
      "outputs": [],
      "stateMutability": "nonpayable",
      "type": "function"
    },
    {
      "inputs": [
        {
          "internalType": "bytes",
          "name": "referral",
          "type": "bytes"
        }
      ],
      "name": "decodeReferral",
      "outputs": [
        {
          "internalType": "bytes",
          "name": "",
          "type": "bytes"
        },
        {
          "internalType": "address",
          "name": "",
          "type": "address"
        },
        {
          "internalType": "address",
          "name": "",
          "type": "address"
        },
        {
          "internalType": "uint256",
          "name": "",
          "type": "uint256"
        },
        {
          "internalType": "uint256",
          "name": "",
          "type": "uint256"
        }
      ],
      "stateMutability": "pure",
      "type": "function"
    },
    {
      "inputs": [],
      "name": "getAdmin",
      "outputs": [
        {
          "internalType": "address",
          "name": "",
          "type": "address"
        }
      ],
      "stateMutability": "view",
      "type": "function"
    },
    {
      "inputs": [],
      "name": "getExpiryTime",
      "outputs": [
        {
          "internalType": "uint256",
          "name": "",
          "type": "uint256"
        }
      ],
      "stateMutability": "view",
      "type": "function"
    },
    {
      "inputs": [],
      "name": "getMaxCommisionRate",
      "outputs": [
        {
          "internalType": "uint256",
          "name": "",
          "type": "uint256"
        }
      ],
      "stateMutability": "view",
      "type": "function"
    },
    {
      "inputs": [],
      "name": "getMerkleRoot",
      "outputs": [
        {
          "internalType": "bytes32",
          "name": "",
          "type": "bytes32"
        }
      ],
      "stateMutability": "view",
      "type": "function"
    },
    {
      "inputs": [],
      "name": "getSandMultiplier",
      "outputs": [
        {
          "internalType": "uint256",
          "name": "",
          "type": "uint256"
        }
      ],
      "stateMutability": "view",
      "type": "function"
    },
    {
      "inputs": [],
      "name": "getSigningWallet",
      "outputs": [
        {
          "internalType": "address",
          "name": "",
          "type": "address"
        }
      ],
      "stateMutability": "view",
      "type": "function"
    },
    {
      "inputs": [
        {
          "internalType": "address",
          "name": "who",
          "type": "address"
        }
      ],
      "name": "isMetaTransactionProcessor",
      "outputs": [
        {
          "internalType": "bool",
          "name": "",
          "type": "bool"
        }
      ],
      "stateMutability": "view",
      "type": "function"
    },
    {
      "inputs": [
        {
          "internalType": "bytes",
          "name": "signature",
          "type": "bytes"
        },
        {
          "internalType": "address",
          "name": "referrer",
          "type": "address"
        },
        {
          "internalType": "address",
          "name": "referee",
          "type": "address"
        },
        {
          "internalType": "uint256",
          "name": "expiryTime",
          "type": "uint256"
        },
        {
          "internalType": "uint256",
          "name": "commissionRate",
          "type": "uint256"
        }
      ],
      "name": "isReferralValid",
      "outputs": [
        {
          "internalType": "bool",
          "name": "",
          "type": "bool"
        }
      ],
      "stateMutability": "view",
      "type": "function"
    },
    {
      "inputs": [
        {
          "internalType": "address",
          "name": "",
          "type": "address"
        },
        {
          "internalType": "address",
          "name": "",
          "type": "address"
        },
        {
          "internalType": "uint256[]",
          "name": "",
          "type": "uint256[]"
        },
        {
          "internalType": "uint256[]",
          "name": "",
          "type": "uint256[]"
        },
        {
          "internalType": "bytes",
          "name": "",
          "type": "bytes"
        }
      ],
      "name": "onERC1155BatchReceived",
      "outputs": [
        {
          "internalType": "bytes4",
          "name": "",
          "type": "bytes4"
        }
      ],
      "stateMutability": "pure",
      "type": "function"
    },
    {
      "inputs": [
        {
          "internalType": "address",
          "name": "",
          "type": "address"
        },
        {
          "internalType": "address",
          "name": "",
          "type": "address"
        },
        {
          "internalType": "uint256",
          "name": "",
          "type": "uint256"
        },
        {
          "internalType": "uint256",
          "name": "",
          "type": "uint256"
        },
        {
          "internalType": "bytes",
          "name": "",
          "type": "bytes"
        }
      ],
      "name": "onERC1155Received",
      "outputs": [
        {
          "internalType": "bytes4",
          "name": "",
          "type": "bytes4"
        }
      ],
      "stateMutability": "pure",
      "type": "function"
    },
    {
      "inputs": [
        {
          "internalType": "uint256",
          "name": "newMultiplier",
          "type": "uint256"
        }
      ],
      "name": "rebalanceSand",
      "outputs": [],
      "stateMutability": "nonpayable",
      "type": "function"
    },
    {
      "inputs": [
        {
          "internalType": "address",
          "name": "metaTransactionProcessor",
          "type": "address"
        },
        {
          "internalType": "bool",
          "name": "enabled",
          "type": "bool"
        }
      ],
      "name": "setMetaTransactionProcessor",
      "outputs": [],
      "stateMutability": "nonpayable",
      "type": "function"
    },
    {
      "inputs": [
        {
          "internalType": "address payable",
          "name": "newWallet",
          "type": "address"
        }
      ],
      "name": "setReceivingWallet",
      "outputs": [],
      "stateMutability": "nonpayable",
      "type": "function"
    },
    {
      "inputs": [
        {
          "internalType": "uint256",
          "name": "newMaxCommissionRate",
          "type": "uint256"
        }
      ],
      "name": "updateMaxCommissionRate",
      "outputs": [],
      "stateMutability": "nonpayable",
      "type": "function"
    },
    {
      "inputs": [
        {
          "internalType": "address",
          "name": "newSigningWallet",
          "type": "address"
        }
      ],
      "name": "updateSigningWallet",
      "outputs": [],
      "stateMutability": "nonpayable",
      "type": "function"
    },
    {
      "inputs": [
        {
          "internalType": "address",
          "name": "to",
          "type": "address"
        },
        {
          "internalType": "uint256[]",
          "name": "assetIds",
          "type": "uint256[]"
        },
        {
          "internalType": "uint256[]",
          "name": "values",
          "type": "uint256[]"
        }
      ],
      "name": "withdrawAssets",
      "outputs": [],
      "stateMutability": "nonpayable",
      "type": "function"
    }
  ],
  "transactionHash": "0xa0a074e460e947c824f0f5652a09a8ec35b24a3a1185b2d723f03451d659fa05",
  "args": [
    "0xaF40A483bF77AAb7b7D13dB18187E6D62C1EA41b",
    "0xCc933a862fc15379E441F2A16Cb943D385a4695f",
    "0xCc933a862fc15379E441F2A16Cb943D385a4695f",
    "0x8A0e83DE499d7543CF486974a6196a35B5F573E7",
    "0x60927eB036621b801491B6c5e9A60A8d2dEeD75A",
    "0x4205032e0880b018bd24bc246efff4710570dc30ca63703cc5537fa412234225",
    1650502800,
    "0xB7060D3FeCAC3AE1F0A0AA416E3e8E472257950e",
    2000,
    "0x0000000000000000000000000000000000000000",
    "0x8055a2c0f7EB177BeaB357B70E6504402d2b5fF6",
    "0x5983532A5b9009E05428595b87F19e42068a232B"
  ],
  "linkedData": [
    {
      "x": 324,
      "y": 288,
      "size": 1,
      "price": "4683000000000000000000",
      "reserved": "",
      "salt": "0x70858693c0e1662cd39faed270ac9a8b16a8f9901a6e23707eb10aa48b44a469",
      "assetIds": [
        "41506478881403507969696680653240014914910929820314476107906210059990541021187"
      ]
    },
    {
      "x": 324,
      "y": 289,
      "size": 1,
      "price": "4683000000000000000000",
      "reserved": "",
      "salt": "0x7bc85674220f5d7c4d9274fedc60de08febe2bb2abc2c703775ec658bfca90d4",
      "assetIds": [
        "41506478881403507969696680653240014914910929820314476107906210059990541021184"
      ]
    },
    {
      "x": 324,
      "y": 290,
      "size": 1,
      "price": "1011000000000000000000",
      "reserved": "0x7a9fe22691c811ea339d9b73150e6911a5343dca",
      "salt": "0x5c2856020d58c0dc7d465c0629811202efdac4dd9803ee424c82a890bb8c3c9c",
      "assetIds": []
    },
    {
      "x": 324,
      "y": 291,
      "size": 1,
      "price": "4683000000000000000000",
      "reserved": "",
      "salt": "0x8d3ee34fa13580213dcb6f00641112db0aaff556887e69157b2981f7716f6822",
      "assetIds": [
        "41506478881403507969696680653240014914910929820314476107906210059990541021184"
      ]
    },
    {
      "x": 324,
      "y": 292,
      "size": 1,
      "price": "4683000000000000000000",
      "reserved": "",
      "salt": "0x025beb38df6654319c741ec31f6406cbf4b96b1b82d8ebb26174db6d327231ee",
      "assetIds": [
        "41506478881403507969696680653240014914910929820314476107906210059990541021185"
      ]
    },
    {
      "x": 324,
      "y": 293,
      "size": 1,
      "price": "4683000000000000000000",
      "reserved": "",
      "salt": "0x6c56aed408b212ffa65f20ed094e0b5e0fa7587c98e21665ccdda4799ce66b27",
      "assetIds": [
        "41506478881403507969696680653240014914910929820314476107906210059990541021185"
      ]
    },
    {
      "x": 324,
      "y": 294,
      "size": 1,
      "price": "4683000000000000000000",
      "reserved": "",
      "salt": "0x9f6b22e31ce47361274d968115297c51f510b0060df72832f6100a84e74037c0",
      "assetIds": [
        "41506478881403507969696680653240014914910929820314476107906210059990541021187"
      ]
    },
    {
      "x": 324,
      "y": 295,
      "size": 1,
      "price": "4683000000000000000000",
      "reserved": "",
      "salt": "0xdd5045da90677dd19b0affefd48a4fc002b95cd0e04f90a9d56c54d7cdf557f3",
      "assetIds": [
        "41506478881403507969696680653240014914910929820314476107906210059990541021184"
      ]
    },
    {
      "x": 324,
      "y": 296,
      "size": 1,
      "price": "4683000000000000000000",
      "reserved": "",
      "salt": "0x6c38945b2570c91bc7fb86992fb651622c7c16d3efacff2200f09b9056a769f9",
      "assetIds": [
        "41506478881403507969696680653240014914910929820314476107906210059990541021188"
      ]
    },
    {
      "x": 324,
      "y": 297,
      "size": 1,
      "price": "4683000000000000000000",
      "reserved": "",
      "salt": "0xf2d27370d32d8f4cab4d0e94b4e34187365cce30a21c571b8bdf49661c21a68b",
      "assetIds": [
        "41506478881403507969696680653240014914910929820314476107906210059990541021187"
      ]
    },
    {
      "x": 325,
      "y": 288,
      "size": 1,
      "price": "4683000000000000000000",
      "reserved": "",
      "salt": "0x3258708b9c6d3d14219d2039d500bba812424c0ae4c8390a14f65373afb6040e",
      "assetIds": [
        "41506478881403507969696680653240014914910929820314476107906210059990541021186"
      ]
    },
    {
      "x": 325,
      "y": 289,
      "size": 1,
      "price": "4683000000000000000000",
      "reserved": "",
      "salt": "0x7c548f031b5e915fc743f561ce709aaf657f246d2227dabd3157a22f842194de",
      "assetIds": [
        "41506478881403507969696680653240014914910929820314476107906210059990541021185"
      ]
    },
    {
      "x": 325,
      "y": 290,
      "size": 1,
      "price": "4683000000000000000000",
      "reserved": "",
      "salt": "0x65d8dfb1d4bc55800c2270dafa4b0ff320678e8f090d79f2ea6f9b477d8d4f8a",
      "assetIds": [
        "41506478881403507969696680653240014914910929820314476107906210059990541021184"
      ]
    },
    {
      "x": 325,
      "y": 291,
      "size": 1,
      "price": "4683000000000000000000",
      "reserved": "",
      "salt": "0xe3ca5c4ece68d5ebe5f75175b497eabf1c9d046638843eebde43cfe6998fbef4",
      "assetIds": [
        "41506478881403507969696680653240014914910929820314476107906210059990541021185"
      ]
    },
    {
      "x": 325,
      "y": 292,
      "size": 1,
      "price": "4683000000000000000000",
      "reserved": "",
      "salt": "0x3b9b34dcd38d96318e49a36e5d2fbd19fed0b1bc45877e7f8d1019de9456c37e",
      "assetIds": [
        "41506478881403507969696680653240014914910929820314476107906210059990532622336"
      ]
    },
    {
      "x": 325,
      "y": 293,
      "size": 1,
      "price": "4683000000000000000000",
      "reserved": "",
      "salt": "0xec7c9eb8e73697b481cbb5ec3a545e5cd6ab8dd5755578af31d869c11aaca5d9",
      "assetIds": [
        "41506478881403507969696680653240014914910929820314476107906210059990541021186"
      ]
    },
    {
      "x": 325,
      "y": 294,
      "size": 1,
      "price": "4683000000000000000000",
      "reserved": "",
      "salt": "0xd2541eb80e929b4f80aca8b122b7a8edde2d8be6ef64b75f09df19fe995756ae",
      "assetIds": [
        "41506478881403507969696680653240014914910929820314476107906210059990541021185"
      ]
    },
    {
      "x": 325,
      "y": 295,
      "size": 1,
      "price": "4683000000000000000000",
      "reserved": "",
      "salt": "0xfef60391ceea8b327a4e8217474512b91455577949cd9d19f0a12d3256e0a65e",
      "assetIds": [
        "41506478881403507969696680653240014914910929820314476107906210059990541021184"
      ]
    },
    {
      "x": 325,
      "y": 296,
      "size": 1,
      "price": "4683000000000000000000",
      "reserved": "",
      "salt": "0x7e2ebc5da16eaf267ef5e899f2c74a6d9a27332decd8d9226cbb63b747832a02",
      "assetIds": [
        "41506478881403507969696680653240014914910929820314476107906210059990541021187"
      ]
    },
    {
      "x": 325,
      "y": 297,
      "size": 1,
      "price": "4683000000000000000000",
      "reserved": "",
      "salt": "0x22cd98d5c9c46509eb6c481c4f40ed8dcb189f5a9bc4a2b98d52d86822566b1e",
      "assetIds": [
        "41506478881403507969696680653240014914910929820314476107906210059990541021184"
      ]
    },
    {
      "x": 326,
      "y": 288,
      "size": 1,
      "price": "4683000000000000000000",
      "reserved": "",
      "salt": "0xeab2fccdbd1d23979190fabf564f5e8c82cfaae65168649ff49e3ec6ac5391c2",
      "assetIds": [
        "41506478881403507969696680653240014914910929820314476107906210059990541021184"
      ]
    },
    {
      "x": 326,
      "y": 289,
      "size": 1,
      "price": "4683000000000000000000",
      "reserved": "",
      "salt": "0x4fbb1ba5e304523c50961e9559718d5d94b5ed38a451f840b4861da0c80a48be",
      "assetIds": [
        "41506478881403507969696680653240014914910929820314476107906210059990541021184"
      ]
    },
    {
      "x": 326,
      "y": 290,
      "size": 1,
      "price": "4683000000000000000000",
      "reserved": "",
      "salt": "0xb10402b9522e558df793dcb78f7090c8e2fa873a881fc541c13fa4ca8b829e76",
      "assetIds": [
        "41506478881403507969696680653240014914910929820314476107906210059990541021187"
      ]
    },
    {
      "x": 326,
      "y": 291,
      "size": 1,
      "price": "4683000000000000000000",
      "reserved": "",
      "salt": "0x2a13e4cff90844c37a33fadb421cba0e93d4a4799a373b1850a4ac6feab795f5",
      "assetIds": [
        "41506478881403507969696680653240014914910929820314476107906210059990541021185"
      ]
    },
    {
      "x": 326,
      "y": 292,
      "size": 1,
      "price": "4683000000000000000000",
      "reserved": "",
      "salt": "0xe0eec6b25c049bbb22863e9ab313b6e9bb02346906c7da85510e92498534dc2f",
      "assetIds": [
        "41506478881403507969696680653240014914910929820314476107906210059990541021187"
      ]
    },
    {
      "x": 326,
      "y": 293,
      "size": 1,
      "price": "4683000000000000000000",
      "reserved": "",
      "salt": "0x78c039eb7332755416f0721bd62e9bec984066a0b6122c9f1e668fc766e10470",
      "assetIds": [
        "41506478881403507969696680653240014914910929820314476107906210059990541021184"
      ]
    },
    {
      "x": 326,
      "y": 294,
      "size": 1,
      "price": "4683000000000000000000",
      "reserved": "",
      "salt": "0x8e43d5466f6a657eeeb9688fc0b137777b405ea89442b65150511b7702351f34",
      "assetIds": [
        "41506478881403507969696680653240014914910929820314476107906210059990541021184"
      ]
    },
    {
      "x": 326,
      "y": 295,
      "size": 1,
      "price": "4683000000000000000000",
      "reserved": "",
      "salt": "0x09ec27a4f0a1f93bb30906e5e2432bb305e3347f31c5357941eba952db4ae9d0",
      "assetIds": [
        "41506478881403507969696680653240014914910929820314476107906210059990541021186"
      ]
    },
    {
      "x": 326,
      "y": 296,
      "size": 1,
      "price": "4683000000000000000000",
      "reserved": "",
      "salt": "0xfbafb36c7150d2315cad1dc4ba3ac8952f468c9cfa37577496f3a7f2fa4e712f",
      "assetIds": [
        "41506478881403507969696680653240014914910929820314476107906210059990532622336"
      ]
    },
    {
      "x": 326,
      "y": 297,
      "size": 1,
      "price": "4683000000000000000000",
      "reserved": "",
      "salt": "0xaf0abb38381b36b5a18efb2ae006cfae81b0f69b027a1b5bb3206c28b5b8f68d",
      "assetIds": [
        "41506478881403507969696680653240014914910929820314476107906210059990541021187"
      ]
    },
    {
      "x": 326,
      "y": 298,
      "size": 1,
      "price": "4683000000000000000000",
      "reserved": "",
      "salt": "0xf8af7d1ae499aed5733af98abcb083a73108ce8b0d28787501824394311ef65d",
      "assetIds": [
        "41506478881403507969696680653240014914910929820314476107906210059990541021184"
      ]
    },
    {
      "x": 326,
      "y": 299,
      "size": 1,
      "price": "4683000000000000000000",
      "reserved": "",
      "salt": "0x98ab29e8f0c08e1db9febdac7364fb7f368cdd5c4d36b69f8f4e828a69fef7f9",
      "assetIds": [
        "41506478881403507969696680653240014914910929820314476107906210059990541021189"
      ]
    },
    {
      "x": 327,
      "y": 288,
      "size": 1,
      "price": "1011000000000000000000",
      "reserved": "0x7a9fe22691c811ea339d9b73150e6911a5343dca",
      "salt": "0x2b5c3212bb145670afb26f032c853d485b153cda0a44c53e8d4d14f210c891e5",
      "assetIds": []
    },
    {
      "x": 327,
      "y": 289,
      "size": 1,
      "price": "4683000000000000000000",
      "reserved": "",
      "salt": "0x8d70b62446d5152c0aada06ad0d188be4d7a00eea5436abffbcfb88db08a0608",
      "assetIds": [
        "41506478881403507969696680653240014914910929820314476107906210059990541021187"
      ]
    },
    {
      "x": 327,
      "y": 290,
      "size": 1,
      "price": "4683000000000000000000",
      "reserved": "",
      "salt": "0x2f6e6978fb8b58b135b44847ef5825bf067ed4ed307272a84aa76494904ef4fe",
      "assetIds": [
        "41506478881403507969696680653240014914910929820314476107906210059990532622336"
      ]
    },
    {
      "x": 327,
      "y": 291,
      "size": 1,
      "price": "4683000000000000000000",
      "reserved": "",
      "salt": "0x08ca85f0f609e1bce7e38d4fea512ee35c25fd0ae226bc667670de33459016ab",
      "assetIds": [
        "41506478881403507969696680653240014914910929820314476107906210059990541021187"
      ]
    },
    {
      "x": 327,
      "y": 292,
      "size": 1,
      "price": "4683000000000000000000",
      "reserved": "",
      "salt": "0x091768e463bff2fe782e2917c021b0e635815deadbb3a61cadd209f1affdb777",
      "assetIds": [
        "41506478881403507969696680653240014914910929820314476107906210059990541021185"
      ]
    },
    {
      "x": 327,
      "y": 293,
      "size": 1,
      "price": "4683000000000000000000",
      "reserved": "",
      "salt": "0x5aa1c04141d8b614e6c038ad9efcef9c35939e6488324e775d5ce114a9a6b21a",
      "assetIds": [
        "41506478881403507969696680653240014914910929820314476107906210059990541021187"
      ]
    },
    {
      "x": 327,
      "y": 294,
      "size": 1,
      "price": "4683000000000000000000",
      "reserved": "",
      "salt": "0x9b03d55d56f9a1b5d75a311d520779652e81c2e8eba52cc3ced25156e79fbb4a",
      "assetIds": [
        "41506478881403507969696680653240014914910929820314476107906210059990541021186"
      ]
    },
    {
      "x": 327,
      "y": 295,
      "size": 1,
      "price": "4683000000000000000000",
      "reserved": "",
      "salt": "0x0cbe04ec460e321357c180cdac7ec30aa929e2e152f78e35a2c059c85f358a0d",
      "assetIds": [
        "41506478881403507969696680653240014914910929820314476107906210059990541021184"
      ]
    },
    {
      "x": 327,
      "y": 296,
      "size": 1,
      "price": "1011000000000000000000",
      "reserved": "0x7a9fe22691c811ea339d9b73150e6911a5343dca",
      "salt": "0xf83810b8ecc417f37fda52af1ac019e1ec3b7f2a4b28a99ccb9f33a939d2eae0",
      "assetIds": []
    },
    {
      "x": 327,
      "y": 297,
      "size": 1,
      "price": "4683000000000000000000",
      "reserved": "",
      "salt": "0x80d5b93d39131edb164f7d5ed2f96dfc8afbd9ca19fabc72bc44a83c597a8d68",
      "assetIds": [
        "41506478881403507969696680653240014914910929820314476107906210059990532622336"
      ]
    },
    {
      "x": 327,
      "y": 298,
      "size": 1,
      "price": "4683000000000000000000",
      "reserved": "",
      "salt": "0xaf9a44b693522d140b990bbc9beac2f1ccb311ba56172c4a80abdab730d3df56",
      "assetIds": [
        "41506478881403507969696680653240014914910929820314476107906210059990532622336"
      ]
    },
    {
      "x": 327,
      "y": 299,
      "size": 1,
      "price": "4683000000000000000000",
      "reserved": "",
      "salt": "0x33e1b33b6cbef1a7463b8a3c69b7adcc4d96d1128bc8ef76cdf248140ee105e4",
      "assetIds": [
        "41506478881403507969696680653240014914910929820314476107906210059990541021184"
      ]
    },
    {
      "x": 328,
      "y": 288,
      "size": 1,
      "price": "4683000000000000000000",
      "reserved": "",
      "salt": "0x56ebff70150d3065268c30eb3b1d951399b1c220661533f3f41a8d94651e99f5",
      "assetIds": [
        "41506478881403507969696680653240014914910929820314476107906210059990541021188"
      ]
    },
    {
      "x": 328,
      "y": 289,
      "size": 1,
      "price": "4683000000000000000000",
      "reserved": "",
      "salt": "0x1133068b5aeeaee492c5f281e3679275fd3926cb9a3ec95699c557ff8811e285",
      "assetIds": [
        "41506478881403507969696680653240014914910929820314476107906210059990541021184"
      ]
    },
    {
      "x": 328,
      "y": 290,
      "size": 1,
      "price": "4683000000000000000000",
      "reserved": "",
      "salt": "0xb339e191cf0fb168d54e1ccfbc5a5509f8f8c2e3f500420922c6bd8743c08d68",
      "assetIds": [
        "41506478881403507969696680653240014914910929820314476107906210059990541021184"
      ]
    },
    {
      "x": 328,
      "y": 291,
      "size": 1,
      "price": "4683000000000000000000",
      "reserved": "",
      "salt": "0x25818456a2befd3cfa2554ecd484561bbb8b3c4843d16698e757bd6b025ae8e5",
      "assetIds": [
        "41506478881403507969696680653240014914910929820314476107906210059990541021184"
      ]
    },
    {
      "x": 328,
      "y": 292,
      "size": 1,
      "price": "4683000000000000000000",
      "reserved": "",
      "salt": "0xcea785946c4560941f4f45f1539eb6714c6238768eaf2a77beea4f0fb3ab9f7e",
      "assetIds": [
        "41506478881403507969696680653240014914910929820314476107906210059990532622336"
      ]
    },
    {
      "x": 328,
      "y": 293,
      "size": 1,
      "price": "4683000000000000000000",
      "reserved": "",
      "salt": "0x3320741673b9b9ca0ffe2ae6b99142ad7cb1730f29f3bc3ad9a40f92dc99d6aa",
      "assetIds": [
        "41506478881403507969696680653240014914910929820314476107906210059990541021189"
      ]
    },
    {
      "x": 328,
      "y": 294,
      "size": 1,
      "price": "4683000000000000000000",
      "reserved": "",
      "salt": "0xc4b45764de0c746046faddaadb5cdfba951d5253e7e1afd26ba79ca7fe42e987",
      "assetIds": [
        "41506478881403507969696680653240014914910929820314476107906210059990541021187"
      ]
    },
    {
      "x": 328,
      "y": 295,
      "size": 1,
      "price": "4683000000000000000000",
      "reserved": "",
      "salt": "0x999ae693f774c12edcca84aebfc9625598f7d7dc2243137db200c7d348b429c9",
      "assetIds": [
        "41506478881403507969696680653240014914910929820314476107906210059990541021184"
      ]
    },
    {
      "x": 328,
      "y": 296,
      "size": 1,
      "price": "4683000000000000000000",
      "reserved": "",
      "salt": "0x93362e21c86eeacceda7ea36b181d62484fb8f6a78d20a78fbb3851ef47dc1b6",
      "assetIds": [
        "41506478881403507969696680653240014914910929820314476107906210059990541021184"
      ]
    },
    {
      "x": 328,
      "y": 297,
      "size": 1,
      "price": "4683000000000000000000",
      "reserved": "",
      "salt": "0x4f72026c8e2111286a1a36d0669e99464301205b10861321bc753f3278d6271d",
      "assetIds": [
        "41506478881403507969696680653240014914910929820314476107906210059990541021187"
      ]
    },
    {
      "x": 328,
      "y": 298,
      "size": 1,
      "price": "4683000000000000000000",
      "reserved": "",
      "salt": "0xbb59b8de2ba218e1feb753565b78007f4c35218e8e8da183a19260f2107a0560",
      "assetIds": [
        "41506478881403507969696680653240014914910929820314476107906210059990541021189"
      ]
    },
    {
      "x": 328,
      "y": 299,
      "size": 1,
      "price": "4683000000000000000000",
      "reserved": "",
      "salt": "0x301b8db2c0e902cfdb68afffe4c083ea9fe2391a6bf2d002519c45a374058188",
      "assetIds": [
        "41506478881403507969696680653240014914910929820314476107906210059990541021185"
      ]
    },
    {
      "x": 329,
      "y": 288,
      "size": 1,
      "price": "4683000000000000000000",
      "reserved": "",
      "salt": "0xad6def2136a3e58d84d6cd6aca973fc61039045be237e8ca19fb2fefa1e04ba4",
      "assetIds": [
        "41506478881403507969696680653240014914910929820314476107906210059990541021187"
      ]
    },
    {
      "x": 329,
      "y": 289,
      "size": 1,
      "price": "4683000000000000000000",
      "reserved": "",
      "salt": "0x1c13dc43cf54abc890fa35dd209eb6035b617c21992059e460e8e000bda9ddea",
      "assetIds": [
        "41506478881403507969696680653240014914910929820314476107906210059990541021186"
      ]
    },
    {
      "x": 329,
      "y": 290,
      "size": 1,
      "price": "4683000000000000000000",
      "reserved": "",
      "salt": "0x70c2262729dd15e405dc76f7acc6196f222d6cc3835a2e401ba52ba30fa22a26",
      "assetIds": [
        "41506478881403507969696680653240014914910929820314476107906210059990541021189"
      ]
    },
    {
      "x": 329,
      "y": 291,
      "size": 1,
      "price": "4683000000000000000000",
      "reserved": "",
      "salt": "0x98a895325b88c4e0c0b7d92dc8be6369a600dc5d60426e7f99596390e0bd7b4b",
      "assetIds": [
        "41506478881403507969696680653240014914910929820314476107906210059990541021189"
      ]
    },
    {
      "x": 329,
      "y": 292,
      "size": 1,
      "price": "4683000000000000000000",
      "reserved": "",
      "salt": "0xcedc683b54043297d47ef236d691b061371c3dde7672edf2084534b436e27b3e",
      "assetIds": [
        "41506478881403507969696680653240014914910929820314476107906210059990532622336"
      ]
    },
    {
      "x": 329,
      "y": 293,
      "size": 1,
      "price": "4683000000000000000000",
      "reserved": "",
      "salt": "0x3c7b36a9d797684b0f18efb9f5710275280aaca1544cda399a996e4b65416cc6",
      "assetIds": [
        "41506478881403507969696680653240014914910929820314476107906210059990541021189"
      ]
    },
    {
      "x": 329,
      "y": 294,
      "size": 1,
      "price": "4683000000000000000000",
      "reserved": "",
      "salt": "0xbd6f2464a929f97b65db4b598f81b772b5279ddeece834827beb73611e5d5d93",
      "assetIds": [
        "41506478881403507969696680653240014914910929820314476107906210059990541021185"
      ]
    },
    {
      "x": 329,
      "y": 295,
      "size": 1,
      "price": "4683000000000000000000",
      "reserved": "",
      "salt": "0x91daf6693dba2174fd891504ec85c64d95531a68ee0014e8e4ec1a4219fafee4",
      "assetIds": [
        "41506478881403507969696680653240014914910929820314476107906210059990541021184"
      ]
    },
    {
      "x": 329,
      "y": 296,
      "size": 1,
      "price": "4683000000000000000000",
      "reserved": "",
      "salt": "0x233cbfadaf747c29f7459f62776c43d28ee645758266abfa328c74239985f346",
      "assetIds": [
        "41506478881403507969696680653240014914910929820314476107906210059990541021187"
      ]
    },
    {
      "x": 329,
      "y": 297,
      "size": 1,
      "price": "4683000000000000000000",
      "reserved": "",
      "salt": "0xf2080719aa2ab29ee36892a1db8975c8120cc758784602cf34d0dfc5952e23f4",
      "assetIds": [
        "41506478881403507969696680653240014914910929820314476107906210059990541021186"
      ]
    },
    {
      "x": 329,
      "y": 298,
      "size": 1,
      "price": "4683000000000000000000",
      "reserved": "",
      "salt": "0xc8c14e0d26c3e190f965df54ebfca6e9fcdba7cbb61416079b4a9c94038889cd",
      "assetIds": [
        "41506478881403507969696680653240014914910929820314476107906210059990541021187"
      ]
    },
    {
      "x": 329,
      "y": 299,
      "size": 1,
      "price": "4683000000000000000000",
      "reserved": "",
      "salt": "0x727b0972f212ad9af66a54953c435dcc0f4c27469f94c51f1394407622fcc0e1",
      "assetIds": [
        "41506478881403507969696680653240014914910929820314476107906210059990541021184"
      ]
    },
    {
      "x": 330,
      "y": 288,
      "size": 1,
      "price": "4683000000000000000000",
      "reserved": "",
      "salt": "0xbde1627f805c4ce668b8e77642a013163bc2b9fa9553a391f6b05c845c268f5c",
      "assetIds": [
        "41506478881403507969696680653240014914910929820314476107906210059990541021186"
      ]
    },
    {
      "x": 330,
      "y": 289,
      "size": 1,
      "price": "4683000000000000000000",
      "reserved": "",
      "salt": "0x40dce1a1aa7817dcdde096df793baaa447f291e7f82ca5d091cd2b7722a2b45b",
      "assetIds": [
        "41506478881403507969696680653240014914910929820314476107906210059990532622336"
      ]
    },
    {
      "x": 330,
      "y": 290,
      "size": 1,
      "price": "4683000000000000000000",
      "reserved": "",
      "salt": "0xc252f0c88c84370ea30f74b4dff4041fb97719463cdd793cde27932496318b54",
      "assetIds": [
        "41506478881403507969696680653240014914910929820314476107906210059990532622336"
      ]
    },
    {
      "x": 330,
      "y": 291,
      "size": 1,
      "price": "4683000000000000000000",
      "reserved": "",
      "salt": "0x273f77b78e0e7d76c51e38db07799c2ff94ab7bb294caf1480001153560ab55b",
      "assetIds": [
        "41506478881403507969696680653240014914910929820314476107906210059990541021188"
      ]
    },
    {
      "x": 330,
      "y": 292,
      "size": 1,
      "price": "4683000000000000000000",
      "reserved": "",
      "salt": "0xfbe5e0d6c52a55b34d06488f3eae3eb31f319be3830dc7b65f53b69576ca10ce",
      "assetIds": [
        "41506478881403507969696680653240014914910929820314476107906210059990541021189"
      ]
    },
    {
      "x": 330,
      "y": 293,
      "size": 1,
      "price": "4683000000000000000000",
      "reserved": "",
      "salt": "0x2577158f4d4bcae971064b460d3e9abd354ca390bba5c730050026a4fa3d1e89",
      "assetIds": [
        "41506478881403507969696680653240014914910929820314476107906210059990541021189"
      ]
    },
    {
      "x": 331,
      "y": 288,
      "size": 1,
      "price": "4683000000000000000000",
      "reserved": "",
      "salt": "0x980be54f1e42b998be09a1a6faf83652bc354c683c30b921d824554f1f73548e",
      "assetIds": [
        "41506478881403507969696680653240014914910929820314476107906210059990532622336"
      ]
    },
    {
      "x": 331,
      "y": 289,
      "size": 1,
      "price": "4683000000000000000000",
      "reserved": "",
      "salt": "0xe2ab4b5f96ba86b0ccf5fbcad9f5e98c20409799088f0bdab5e649f86eae0190",
      "assetIds": [
        "41506478881403507969696680653240014914910929820314476107906210059990541021185"
      ]
    },
    {
      "x": 331,
      "y": 290,
      "size": 1,
      "price": "4683000000000000000000",
      "reserved": "",
      "salt": "0x9894b6118be4cc962f0db1e10e3848b49fdb7c6273993f9e631f4ee341727a7e",
      "assetIds": [
        "41506478881403507969696680653240014914910929820314476107906210059990532622336"
      ]
    },
    {
      "x": 331,
      "y": 291,
      "size": 1,
      "price": "4683000000000000000000",
      "reserved": "",
      "salt": "0x7e694198c47a42b304c6b9317528448a529dfcb3e8e649ad24bf9f31e0afac94",
      "assetIds": [
        "41506478881403507969696680653240014914910929820314476107906210059990541021188"
      ]
    },
    {
      "x": 331,
      "y": 292,
      "size": 1,
      "price": "4683000000000000000000",
      "reserved": "",
      "salt": "0x0c44feb9afe1cb9b33b0c63c22b07fb0f8955287fd339193e5f91464656b3512",
      "assetIds": [
        "41506478881403507969696680653240014914910929820314476107906210059990541021184"
      ]
    },
    {
      "x": 331,
      "y": 293,
      "size": 1,
      "price": "4683000000000000000000",
      "reserved": "",
      "salt": "0x0513a8ed44dd5da0289ce4352ab6c91f6e0f6020434aa5a9622e34be96829a07",
      "assetIds": [
        "41506478881403507969696680653240014914910929820314476107906210059990541021188"
      ]
    },
    {
      "x": 332,
      "y": 288,
      "size": 1,
      "price": "4683000000000000000000",
      "reserved": "",
      "salt": "0x6dfe8d297e855737585b1b2c885b50fb29cb5c714f206e128feaa282b224f9cb",
      "assetIds": [
        "41506478881403507969696680653240014914910929820314476107906210059990541021187"
      ]
    },
    {
      "x": 332,
      "y": 289,
      "size": 1,
      "price": "4683000000000000000000",
      "reserved": "",
      "salt": "0x637ba7f5ce52e7c652293cadfc1a0a61067cb056c92074b6d16c1d1b710644e1",
      "assetIds": [
        "41506478881403507969696680653240014914910929820314476107906210059990541021184"
      ]
    },
    {
      "x": 332,
      "y": 290,
      "size": 1,
      "price": "4683000000000000000000",
      "reserved": "",
      "salt": "0x5e5df860f82a99945fc83d76c9446280cc90e086e9516d387cb8bd329d583453",
      "assetIds": [
        "41506478881403507969696680653240014914910929820314476107906210059990541021187"
      ]
    },
    {
      "x": 332,
      "y": 291,
      "size": 1,
      "price": "4683000000000000000000",
      "reserved": "",
      "salt": "0xaa10bee05ca645827d606f51727de758c1eb2094cd7a32d0582bf1fe9828f00a",
      "assetIds": [
        "41506478881403507969696680653240014914910929820314476107906210059990541021187"
      ]
    },
    {
      "x": 332,
      "y": 292,
      "size": 1,
      "price": "4683000000000000000000",
      "reserved": "",
      "salt": "0xd8bd44063e54c5bf8c51309f52a34198575ad082cdce58949a23c981f1b91990",
      "assetIds": [
        "41506478881403507969696680653240014914910929820314476107906210059990541021188"
      ]
    },
    {
      "x": 332,
      "y": 293,
      "size": 1,
      "price": "4683000000000000000000",
      "reserved": "",
      "salt": "0x4969f7e9e4bc090bdcd07ac93cc8d71fcf16d151cd0a7bdd734c39154932350f",
      "assetIds": [
        "41506478881403507969696680653240014914910929820314476107906210059990541021185"
      ]
    },
    {
      "x": 333,
      "y": 261,
      "size": 1,
      "price": "4683000000000000000000",
      "reserved": "",
      "salt": "0xd9933e62837631c09a8d5060f378cf61a6073c5b9a5f063521fbdcca5de94411",
      "assetIds": [
        "41506478881403507969696680653240014914910929820314476107906210059990532622336"
      ]
    },
    {
      "x": 333,
      "y": 262,
      "size": 1,
      "price": "4683000000000000000000",
      "reserved": "",
      "salt": "0x7846445173200dfc864bae75ec2b56db2f52b90edf2b73b88e5ede4a9be27889",
      "assetIds": [
        "41506478881403507969696680653240014914910929820314476107906210059990541021187"
      ]
    },
    {
      "x": 333,
      "y": 263,
      "size": 1,
      "price": "4683000000000000000000",
      "reserved": "",
      "salt": "0xd9effa33fb33f32913b7087a1afe25f1bd51fe4db6e58e260176ec5be87cb130",
      "assetIds": [
        "41506478881403507969696680653240014914910929820314476107906210059990541021184"
      ]
    },
    {
      "x": 333,
      "y": 288,
      "size": 1,
      "price": "4683000000000000000000",
      "reserved": "",
      "salt": "0xb259bec520d8b95fc1a0a78b3d361e356a367b59107a3286ce9c29e92094eb86",
      "assetIds": [
        "41506478881403507969696680653240014914910929820314476107906210059990532622336"
      ]
    },
    {
      "x": 333,
      "y": 289,
      "size": 1,
      "price": "4683000000000000000000",
      "reserved": "",
      "salt": "0xde93ae3fa4b0c0f77666aa38622a9d68590e847bcd5fd56e6ee844b5ead639c4",
      "assetIds": [
        "41506478881403507969696680653240014914910929820314476107906210059990541021186"
      ]
    },
    {
      "x": 333,
      "y": 290,
      "size": 1,
      "price": "4683000000000000000000",
      "reserved": "",
      "salt": "0x8874ea6f65332d4555681e23050defe605a051a589b16f80b3bfbe3ddbf19665",
      "assetIds": [
        "41506478881403507969696680653240014914910929820314476107906210059990532622336"
      ]
    },
    {
      "x": 334,
      "y": 261,
      "size": 1,
      "price": "4683000000000000000000",
      "reserved": "",
      "salt": "0x9a5427e1fe7078a83edff8b1eb9c91f7fc7d4225e2437d4ad4390df70b4929ce",
      "assetIds": [
        "41506478881403507969696680653240014914910929820314476107906210059990541021189"
      ]
    },
    {
      "x": 334,
      "y": 262,
      "size": 1,
      "price": "4683000000000000000000",
      "reserved": "",
      "salt": "0x0e755bec8b4a3f2b679ca45158a8fb15331d2411c9841841ef8aa3cf92268c94",
      "assetIds": [
        "41506478881403507969696680653240014914910929820314476107906210059990541021184"
      ]
    },
    {
      "x": 334,
      "y": 263,
      "size": 1,
      "price": "4683000000000000000000",
      "reserved": "",
      "salt": "0x1dbac9511f13836b8aad30a7e7c54ce18ba9b07efdcda6b49cdb8a83f7c36d9f",
      "assetIds": [
        "41506478881403507969696680653240014914910929820314476107906210059990541021185"
      ]
    },
    {
      "x": 334,
      "y": 288,
      "size": 1,
      "price": "4683000000000000000000",
      "reserved": "",
      "salt": "0x09da7767571655e5d4e3a285fdf862f3cfc201ab229b85b63edeff2f2b3aecc4",
      "assetIds": [
        "41506478881403507969696680653240014914910929820314476107906210059990541021186"
      ]
    },
    {
      "x": 334,
      "y": 289,
      "size": 1,
      "price": "4683000000000000000000",
      "reserved": "",
      "salt": "0x2559419dc7c74264fb8b64833f04d43b0d127fa7671c29b8b5aaa4ffa8ea00d0",
      "assetIds": [
        "41506478881403507969696680653240014914910929820314476107906210059990541021184"
      ]
    },
    {
      "x": 334,
      "y": 290,
      "size": 1,
      "price": "4683000000000000000000",
      "reserved": "",
      "salt": "0x2e9d09a507c83c9a5a6a362aa4ae073ea84d7e05a4a6b5b024794e9385236bf3",
      "assetIds": [
        "41506478881403507969696680653240014914910929820314476107906210059990532622336"
      ]
    },
    {
      "x": 335,
      "y": 261,
      "size": 1,
      "price": "4683000000000000000000",
      "reserved": "",
      "salt": "0x4976a468c3726a75712dbf6ff0ac23a2be29434249d25865cbbaf3229b83280a",
      "assetIds": [
        "41506478881403507969696680653240014914910929820314476107906210059990541021189"
      ]
    },
    {
      "x": 335,
      "y": 262,
      "size": 1,
      "price": "4683000000000000000000",
      "reserved": "",
      "salt": "0x3e5e82453c077fc28d21f40819bf6710440fcf520b33c6c82dec7891cff8f44b",
      "assetIds": [
        "41506478881403507969696680653240014914910929820314476107906210059990541021188"
      ]
    },
    {
      "x": 335,
      "y": 263,
      "size": 1,
      "price": "4683000000000000000000",
      "reserved": "",
      "salt": "0x0a5b7deb6ae47062299db4147a66b4e5880e2f989a3af077d5af99e462c14e6f",
      "assetIds": [
        "41506478881403507969696680653240014914910929820314476107906210059990541021189"
      ]
    },
    {
      "x": 335,
      "y": 288,
      "size": 1,
      "price": "1011000000000000000000",
      "reserved": "0x7a9fe22691c811ea339d9b73150e6911a5343dca",
      "salt": "0x0c789dfd18274e9600a0ca0377c36fd11dfaf7730eea82cede97f3b4f994c2bd",
      "assetIds": []
    },
    {
      "x": 335,
      "y": 289,
      "size": 1,
      "price": "4683000000000000000000",
      "reserved": "",
      "salt": "0x719df5bc826f9ef6cb0081085dab37b19a1249aceea23924f51cef550a394f76",
      "assetIds": [
        "41506478881403507969696680653240014914910929820314476107906210059990532622336"
      ]
    },
    {
      "x": 335,
      "y": 290,
      "size": 1,
      "price": "4683000000000000000000",
      "reserved": "",
      "salt": "0x615797156cf375317d5966684878882874bafef46e310ba0af2cd8872828fd0a",
      "assetIds": [
        "41506478881403507969696680653240014914910929820314476107906210059990541021185"
      ]
    },
    {
      "x": 336,
      "y": 252,
      "size": 1,
      "price": "4683000000000000000000",
      "reserved": "",
      "salt": "0xd893008bea711e6f5c687fc4c4f9bee12d156962cb2c23cb16be2e11329591cc",
      "assetIds": [
        "41506478881403507969696680653240014914910929820314476107906210059990532622336"
      ]
    },
    {
      "x": 336,
      "y": 253,
      "size": 1,
      "price": "4683000000000000000000",
      "reserved": "",
      "salt": "0x3af2ca45aaa242c0bb2c1c57fb77b21ce9cd572a35a37af055d9b45b6b5457dc",
      "assetIds": [
        "41506478881403507969696680653240014914910929820314476107906210059990541021189"
      ]
    },
    {
      "x": 336,
      "y": 254,
      "size": 1,
      "price": "4683000000000000000000",
      "reserved": "",
      "salt": "0x0125c5c765245c5c4f2c9d4da6440a5b1d4bec9f32c0e423c7a4c1e4291b3cb8",
      "assetIds": [
        "41506478881403507969696680653240014914910929820314476107906210059990532622336"
      ]
    },
    {
      "x": 336,
      "y": 258,
      "size": 1,
      "price": "4683000000000000000000",
      "reserved": "",
      "salt": "0xf06748de4f6e06bbe3be71bed89dbadb2a400185834074b4f42fc24fb1421292",
      "assetIds": [
        "41506478881403507969696680653240014914910929820314476107906210059990532622336"
      ]
    },
    {
      "x": 336,
      "y": 259,
      "size": 1,
      "price": "4683000000000000000000",
      "reserved": "",
      "salt": "0x98905b4ca51d0f6c216efc6ae082314164dd7dc6a8ab234a7f9688214b8cf371",
      "assetIds": [
        "41506478881403507969696680653240014914910929820314476107906210059990541021187"
      ]
    },
    {
      "x": 336,
      "y": 260,
      "size": 1,
      "price": "4683000000000000000000",
      "reserved": "",
      "salt": "0xb614bbad150c7aac81dc49161d72abdec4202972d13be6f6a0732a7e75a16df1",
      "assetIds": [
        "41506478881403507969696680653240014914910929820314476107906210059990541021187"
      ]
    },
    {
      "x": 336,
      "y": 261,
      "size": 1,
      "price": "4683000000000000000000",
      "reserved": "",
      "salt": "0x941473aec6eeeb1f2640a685bca12b9f9e9a35e414edbea7698d246c335b0d50",
      "assetIds": [
        "41506478881403507969696680653240014914910929820314476107906210059990541021188"
      ]
    },
    {
      "x": 336,
      "y": 262,
      "size": 1,
      "price": "4683000000000000000000",
      "reserved": "",
      "salt": "0x4c9ba52c67a33227f166a7c3d9868eafaa88632b0fdc35eab61c268c4b1d0895",
      "assetIds": [
        "41506478881403507969696680653240014914910929820314476107906210059990532622336"
      ]
    },
    {
      "x": 336,
      "y": 263,
      "size": 1,
      "price": "4683000000000000000000",
      "reserved": "",
      "salt": "0xb28784f7c470283915aa091c3ed20b4c30f2465da9174d1a5488695c263a38c9",
      "assetIds": [
        "41506478881403507969696680653240014914910929820314476107906210059990541021187"
      ]
    },
    {
      "x": 336,
      "y": 288,
      "size": 1,
      "price": "4683000000000000000000",
      "reserved": "",
      "salt": "0xc05b18b911e075b98746540e7a1fe362da481ba09c137e66d9ce397e9aadc84e",
      "assetIds": [
        "41506478881403507969696680653240014914910929820314476107906210059990541021186"
      ]
    },
    {
      "x": 336,
      "y": 289,
      "size": 1,
      "price": "4683000000000000000000",
      "reserved": "",
      "salt": "0xf89d7a11ac76d202e1429cd1cd797f3b0b0c93178d1a2e25ddbdcd69f2713513",
      "assetIds": [
        "41506478881403507969696680653240014914910929820314476107906210059990541021188"
      ]
    },
    {
      "x": 336,
      "y": 290,
      "size": 1,
      "price": "4683000000000000000000",
      "reserved": "",
      "salt": "0x7a77c0c0f6d8011500d417776c3aa0a3368975a6b44516ee3fe0534f5ceb262a",
      "assetIds": [
        "41506478881403507969696680653240014914910929820314476107906210059990541021186"
      ]
    },
    {
      "x": 336,
      "y": 291,
      "size": 1,
      "price": "4683000000000000000000",
      "reserved": "",
      "salt": "0x9c8b31d280654301f8b708d0a92c1dbc3afad2c9d099d9de64fed87b34197229",
      "assetIds": [
        "41506478881403507969696680653240014914910929820314476107906210059990541021185"
      ]
    },
    {
      "x": 336,
      "y": 292,
      "size": 1,
      "price": "4683000000000000000000",
      "reserved": "",
      "salt": "0xbb25a7c6e63f9ece2c24bcd9fb88637cb4a018128d2c81886d67045017a72510",
      "assetIds": [
        "41506478881403507969696680653240014914910929820314476107906210059990541021184"
      ]
    },
    {
      "x": 336,
      "y": 293,
      "size": 1,
      "price": "4683000000000000000000",
      "reserved": "",
      "salt": "0x86795c93297e929be58d89f9a3c488e4838bd0a83e9f3592a69925d6c77ea0eb",
      "assetIds": [
        "41506478881403507969696680653240014914910929820314476107906210059990541021186"
      ]
    },
    {
      "x": 336,
      "y": 294,
      "size": 1,
      "price": "4683000000000000000000",
      "reserved": "",
      "salt": "0xfc97587af451156bee76049e8a4ba1992404a68b6f84ae0e6f604733c3d8a335",
      "assetIds": [
        "41506478881403507969696680653240014914910929820314476107906210059990541021189"
      ]
    },
    {
      "x": 336,
      "y": 295,
      "size": 1,
      "price": "4683000000000000000000",
      "reserved": "",
      "salt": "0xc5c302a1266000805be19b038003d339cf545a6304a967d3dd70399300f69d72",
      "assetIds": [
        "41506478881403507969696680653240014914910929820314476107906210059990541021189"
      ]
    },
    {
      "x": 336,
      "y": 296,
      "size": 1,
      "price": "4683000000000000000000",
      "reserved": "",
      "salt": "0x657a1380b798ae6794f8c04ea5097fbf533458de439b8bec61a83d7db0143d9c",
      "assetIds": [
        "41506478881403507969696680653240014914910929820314476107906210059990532622336"
      ]
    },
    {
      "x": 336,
      "y": 297,
      "size": 1,
      "price": "4683000000000000000000",
      "reserved": "",
      "salt": "0xd3af865c4193437e536849c43d076e727abe5f7326175b995e39e804a68aef1e",
      "assetIds": [
        "41506478881403507969696680653240014914910929820314476107906210059990541021185"
      ]
    },
    {
      "x": 336,
      "y": 298,
      "size": 1,
      "price": "4683000000000000000000",
      "reserved": "",
      "salt": "0x67fa70febc31add8973398226d81063bec91e3343c82294e95e716c5995600ca",
      "assetIds": [
        "41506478881403507969696680653240014914910929820314476107906210059990541021184"
      ]
    },
    {
      "x": 336,
      "y": 299,
      "size": 1,
      "price": "4683000000000000000000",
      "reserved": "",
      "salt": "0x82ea25a72f0966eb1a2fecf5260dc44de1b90a06e8b6dfd882cac6cf5bed03d0",
      "assetIds": [
        "41506478881403507969696680653240014914910929820314476107906210059990541021189"
      ]
    },
    {
      "x": 337,
      "y": 252,
      "size": 1,
      "price": "4683000000000000000000",
      "reserved": "",
      "salt": "0x84f75893cdb916a7d82a4650352abb1fb858dc375065e39d11327060cec4d99c",
      "assetIds": [
        "41506478881403507969696680653240014914910929820314476107906210059990541021189"
      ]
    },
    {
      "x": 337,
      "y": 253,
      "size": 1,
      "price": "1011000000000000000000",
      "reserved": "0x7a9fe22691c811ea339d9b73150e6911a5343dca",
      "salt": "0x5617eb70ea2c8627bf6756b9f981c1ae76c68f0dc488cba216d7f6b58038b352",
      "assetIds": []
    },
    {
      "x": 337,
      "y": 254,
      "size": 1,
      "price": "4683000000000000000000",
      "reserved": "",
      "salt": "0x578e37fd98d718dec6d1c6a6dd7154bdfbe0a184f87a2bd54e6a671ed9627c04",
      "assetIds": [
        "41506478881403507969696680653240014914910929820314476107906210059990541021189"
      ]
    },
    {
      "x": 337,
      "y": 258,
      "size": 1,
      "price": "4683000000000000000000",
      "reserved": "",
      "salt": "0xf5300b18f28e51b18d5e6151f5900670a7f7b889aba6f0a9562158807a34c29f",
      "assetIds": [
        "41506478881403507969696680653240014914910929820314476107906210059990541021188"
      ]
    },
    {
      "x": 337,
      "y": 259,
      "size": 1,
      "price": "4683000000000000000000",
      "reserved": "",
      "salt": "0x7bd45d27e8cf70cbe63587e2dfb8b6df953fda23596529510a675dd0ee8e6dee",
      "assetIds": [
        "41506478881403507969696680653240014914910929820314476107906210059990541021188"
      ]
    },
    {
      "x": 337,
      "y": 260,
      "size": 1,
      "price": "4683000000000000000000",
      "reserved": "",
      "salt": "0xe2f436798920445ce896ac9a52ffeb1910eeb383f13eba42615a95b545f6f180",
      "assetIds": [
        "41506478881403507969696680653240014914910929820314476107906210059990541021189"
      ]
    },
    {
      "x": 337,
      "y": 261,
      "size": 1,
      "price": "4683000000000000000000",
      "reserved": "",
      "salt": "0x681ef5749505e897b1d8e9d35e32007f69eb9243e2215d8f8f42dc741e91dc03",
      "assetIds": [
        "41506478881403507969696680653240014914910929820314476107906210059990541021188"
      ]
    },
    {
      "x": 337,
      "y": 262,
      "size": 1,
      "price": "4683000000000000000000",
      "reserved": "",
      "salt": "0x7aac70db8b0de065fb55720d1edd9c2b8b031ccd9faea325fe9c59ef6ed238fe",
      "assetIds": [
        "41506478881403507969696680653240014914910929820314476107906210059990541021189"
      ]
    },
    {
      "x": 337,
      "y": 263,
      "size": 1,
      "price": "4683000000000000000000",
      "reserved": "",
      "salt": "0xe9a1b7a0cfecdb8efcd03fb204a92421aa15ea06ebf1d727c39b3f26fb99bd63",
      "assetIds": [
        "41506478881403507969696680653240014914910929820314476107906210059990532622336"
      ]
    },
    {
      "x": 337,
      "y": 288,
      "size": 1,
      "price": "4683000000000000000000",
      "reserved": "",
      "salt": "0x926c908eb0fd506d6229abc8ff566fbeaf5a2702781caf10a9ee208cd5eadadc",
      "assetIds": [
        "41506478881403507969696680653240014914910929820314476107906210059990532622336"
      ]
    },
    {
      "x": 337,
      "y": 289,
      "size": 1,
      "price": "4683000000000000000000",
      "reserved": "",
      "salt": "0x85f24412f421dd2dca62498891dfff92d4bb09878a5636cae25a8761814a004d",
      "assetIds": [
        "41506478881403507969696680653240014914910929820314476107906210059990541021185"
      ]
    },
    {
      "x": 337,
      "y": 290,
      "size": 1,
      "price": "4683000000000000000000",
      "reserved": "",
      "salt": "0xa1a0cb758bc2065d218add4595985022f46d5589a279e5a4da706c7efe893f76",
      "assetIds": [
        "41506478881403507969696680653240014914910929820314476107906210059990532622336"
      ]
    },
    {
      "x": 337,
      "y": 291,
      "size": 1,
      "price": "4683000000000000000000",
      "reserved": "",
      "salt": "0x06c5799453248ce60f495f4253ab7dbf462d58af88041cc6d9c686f0fc2f3bec",
      "assetIds": [
        "41506478881403507969696680653240014914910929820314476107906210059990541021188"
      ]
    },
    {
      "x": 337,
      "y": 292,
      "size": 1,
      "price": "4683000000000000000000",
      "reserved": "",
      "salt": "0xfd57f5d4ae98462cf3f978ad70cda6d4baeb9a45f4e4619d2dc9753d6502a222",
      "assetIds": [
        "41506478881403507969696680653240014914910929820314476107906210059990541021189"
      ]
    },
    {
      "x": 337,
      "y": 293,
      "size": 1,
      "price": "4683000000000000000000",
      "reserved": "",
      "salt": "0x2f844a3332633a3658c6bb095d96a327ffb0e9cd4509050ca2560765ac4e6b8d",
      "assetIds": [
        "41506478881403507969696680653240014914910929820314476107906210059990541021189"
      ]
    },
    {
      "x": 337,
      "y": 294,
      "size": 1,
      "price": "4683000000000000000000",
      "reserved": "",
      "salt": "0xc0e99178b830c9daeff3361269a07279703460380b75df146b16d884cf4b0ccf",
      "assetIds": [
        "41506478881403507969696680653240014914910929820314476107906210059990541021187"
      ]
    },
    {
      "x": 337,
      "y": 295,
      "size": 1,
      "price": "4683000000000000000000",
      "reserved": "",
      "salt": "0x11a6a834d86d0fd037731172bb4458960978a2f811c743418e43928d14b744cd",
      "assetIds": [
        "41506478881403507969696680653240014914910929820314476107906210059990532622336"
      ]
    },
    {
      "x": 337,
      "y": 296,
      "size": 1,
      "price": "4683000000000000000000",
      "reserved": "",
      "salt": "0x353a2982bcb1fafba31338f66659940286408363bd170264bd384577b5cd6a58",
      "assetIds": [
        "41506478881403507969696680653240014914910929820314476107906210059990541021187"
      ]
    },
    {
      "x": 337,
      "y": 297,
      "size": 1,
      "price": "4683000000000000000000",
      "reserved": "",
      "salt": "0xfae9f9b8832c60c8b9123777c018701b34ce08d1df67ffdc10e1881166adde32",
      "assetIds": [
        "41506478881403507969696680653240014914910929820314476107906210059990541021187"
      ]
    },
    {
      "x": 337,
      "y": 298,
      "size": 1,
      "price": "4683000000000000000000",
      "reserved": "",
      "salt": "0x5e8cee1c869442b6d4ca050b4c80b94132770b71bef89fc90f692829cab5c50c",
      "assetIds": [
        "41506478881403507969696680653240014914910929820314476107906210059990541021187"
      ]
    },
    {
      "x": 337,
      "y": 299,
      "size": 1,
      "price": "4683000000000000000000",
      "reserved": "",
      "salt": "0x92dfbaecbb55a36cc93e34e7df1e1c3def430165a7acc2c4e12536edcbe91428",
      "assetIds": [
        "41506478881403507969696680653240014914910929820314476107906210059990541021184"
      ]
    },
    {
      "x": 338,
      "y": 252,
      "size": 1,
      "price": "4683000000000000000000",
      "reserved": "",
      "salt": "0xc91eb3f05eed158b1d8be09748a5e6ae53a7d66364928a059a29869b4c8c7f47",
      "assetIds": [
        "41506478881403507969696680653240014914910929820314476107906210059990532622336"
      ]
    },
    {
      "x": 338,
      "y": 253,
      "size": 1,
      "price": "4683000000000000000000",
      "reserved": "",
      "salt": "0x33891e20794a5c2e0d5af75a01967b02c4d11ed14788542f00220f354642e40c",
      "assetIds": [
        "41506478881403507969696680653240014914910929820314476107906210059990541021186"
      ]
    },
    {
      "x": 338,
      "y": 254,
      "size": 1,
      "price": "4683000000000000000000",
      "reserved": "",
      "salt": "0xd93290e80786cd6fd867068a35aa5830c4a952b6217b4105abd9aadb02a2a5c4",
      "assetIds": [
        "41506478881403507969696680653240014914910929820314476107906210059990541021184"
      ]
    },
    {
      "x": 338,
      "y": 258,
      "size": 1,
      "price": "4683000000000000000000",
      "reserved": "",
      "salt": "0x22b31bdfc3e8a9b2f0f4232b878f5c34746b81a48b1c97fe68dcb4ad635ce825",
      "assetIds": [
        "41506478881403507969696680653240014914910929820314476107906210059990541021185"
      ]
    },
    {
      "x": 338,
      "y": 259,
      "size": 1,
      "price": "4683000000000000000000",
      "reserved": "",
      "salt": "0xea55f34b790efbb636cd3d47076734852a7439e177b0975c82a0746964446a62",
      "assetIds": [
        "41506478881403507969696680653240014914910929820314476107906210059990541021187"
      ]
    },
    {
      "x": 338,
      "y": 260,
      "size": 1,
      "price": "4683000000000000000000",
      "reserved": "",
      "salt": "0xc1b6514ae3245de07af0204bc9e20d07d1e8d96e9e1e098456e50cf1b244d952",
      "assetIds": [
        "41506478881403507969696680653240014914910929820314476107906210059990541021186"
      ]
    },
    {
      "x": 338,
      "y": 261,
      "size": 1,
      "price": "4683000000000000000000",
      "reserved": "",
      "salt": "0x19bf0314902d34b875d1c26a96f3f002b70e691940a7bf914327a8f9c95eedc0",
      "assetIds": [
        "41506478881403507969696680653240014914910929820314476107906210059990541021184"
      ]
    },
    {
      "x": 338,
      "y": 262,
      "size": 1,
      "price": "4683000000000000000000",
      "reserved": "",
      "salt": "0xbbcda946664decae43c2ebebc4d08eb68a6c9d7e92ae7666aae5a7cb4c1ca56c",
      "assetIds": [
        "41506478881403507969696680653240014914910929820314476107906210059990541021185"
      ]
    },
    {
      "x": 338,
      "y": 263,
      "size": 1,
      "price": "4683000000000000000000",
      "reserved": "",
      "salt": "0x2f59e2d425d156bd2a93d61355c79ffed654d42d6620f20c066c1bb51a4e476d",
      "assetIds": [
        "41506478881403507969696680653240014914910929820314476107906210059990541021189"
      ]
    },
    {
      "x": 338,
      "y": 288,
      "size": 1,
      "price": "4683000000000000000000",
      "reserved": "",
      "salt": "0x19b278cc46cf192938cbb8fbb20dc7c0214b5fdcd6d2198ab9d7b949c65d9278",
      "assetIds": [
        "41506478881403507969696680653240014914910929820314476107906210059990541021184"
      ]
    },
    {
      "x": 338,
      "y": 289,
      "size": 1,
      "price": "1011000000000000000000",
      "reserved": "0x7a9fe22691c811ea339d9b73150e6911a5343dca",
      "salt": "0x33287d5fa8527e570df8b055f517a688b474f865e26713f113a9987043e8176c",
      "assetIds": []
    },
    {
      "x": 338,
      "y": 290,
      "size": 1,
      "price": "4683000000000000000000",
      "reserved": "",
      "salt": "0x350794359bf73a457560e6585b93b84036a3955bae6ff39af73f05df03eacc9f",
      "assetIds": [
        "41506478881403507969696680653240014914910929820314476107906210059990541021185"
      ]
    },
    {
      "x": 338,
      "y": 291,
      "size": 1,
      "price": "4683000000000000000000",
      "reserved": "",
      "salt": "0xfbd19f6cfce66475bc1625c2487bdb0d981bf985a092ee759462e6579a3c2651",
      "assetIds": [
        "41506478881403507969696680653240014914910929820314476107906210059990541021189"
      ]
    },
    {
      "x": 338,
      "y": 292,
      "size": 1,
      "price": "4683000000000000000000",
      "reserved": "",
      "salt": "0x9176925e503950d99d0cd1f31b5e0beed663a660de35b5fe9f60d26623e8dda2",
      "assetIds": [
        "41506478881403507969696680653240014914910929820314476107906210059990532622336"
      ]
    },
    {
      "x": 338,
      "y": 293,
      "size": 1,
      "price": "4683000000000000000000",
      "reserved": "",
      "salt": "0x672c9b638df5e011058c725beaf77fc0f9ce334ae5f49241cab8b3270a6eacee",
      "assetIds": [
        "41506478881403507969696680653240014914910929820314476107906210059990541021184"
      ]
    },
    {
      "x": 338,
      "y": 294,
      "size": 1,
      "price": "4683000000000000000000",
      "reserved": "",
      "salt": "0xbbc06d121bbe897fe7ce6dced0e21774375a64f63b624644a865a29f96836f41",
      "assetIds": [
        "41506478881403507969696680653240014914910929820314476107906210059990541021188"
      ]
    },
    {
      "x": 338,
      "y": 295,
      "size": 1,
      "price": "4683000000000000000000",
      "reserved": "",
      "salt": "0x64d51e90137cb1e17c1b21106c9f1f1c0d219b2226874f45fd9b83bab590e983",
      "assetIds": [
        "41506478881403507969696680653240014914910929820314476107906210059990541021184"
      ]
    },
    {
      "x": 338,
      "y": 296,
      "size": 1,
      "price": "4683000000000000000000",
      "reserved": "",
      "salt": "0x5830f0e36283fff63d5e7cbec53e6e45055b184035608c6a0fc6d0663ae59dad",
      "assetIds": [
        "41506478881403507969696680653240014914910929820314476107906210059990541021185"
      ]
    },
    {
      "x": 338,
      "y": 297,
      "size": 1,
      "price": "4683000000000000000000",
      "reserved": "",
      "salt": "0x5798b6994a2c5e4a85af9701bef012f6780fc62837e168ede3a9f2b26a0f216c",
      "assetIds": [
        "41506478881403507969696680653240014914910929820314476107906210059990541021188"
      ]
    },
    {
      "x": 338,
      "y": 298,
      "size": 1,
      "price": "4683000000000000000000",
      "reserved": "",
      "salt": "0xf24c4aa45d9499b8a5964d15f817e889b7feb3bbc08ae0d7f927f1c04c21df94",
      "assetIds": [
        "41506478881403507969696680653240014914910929820314476107906210059990532622336"
      ]
    },
    {
      "x": 338,
      "y": 299,
      "size": 1,
      "price": "4683000000000000000000",
      "reserved": "",
      "salt": "0x08d60afc16e8e08dd9931c8dc907730c5340db3ea21ed41d9db7ad8cbbf3991e",
      "assetIds": [
        "41506478881403507969696680653240014914910929820314476107906210059990541021188"
      ]
    },
    {
      "x": 339,
      "y": 246,
      "size": 1,
      "price": "4683000000000000000000",
      "reserved": "",
      "salt": "0x36531498838ea8d13963994b0074c1915cc7aaf3e4ee89f47bb3a1681524a6e9",
      "assetIds": [
        "41506478881403507969696680653240014914910929820314476107906210059990541021184"
      ]
    },
    {
      "x": 339,
      "y": 247,
      "size": 1,
      "price": "4683000000000000000000",
      "reserved": "",
      "salt": "0xda9c9c1d6dd39bb3c6528f194ea76f0de5c149acae5c59affc60535f28be95ce",
      "assetIds": [
        "41506478881403507969696680653240014914910929820314476107906210059990541021189"
      ]
    },
    {
      "x": 339,
      "y": 248,
      "size": 1,
      "price": "4683000000000000000000",
      "reserved": "",
      "salt": "0xed63c21a4c3d04267fe9952124e82ef89708af7548165d3a96811365558164e2",
      "assetIds": [
        "41506478881403507969696680653240014914910929820314476107906210059990541021188"
      ]
    },
    {
      "x": 339,
      "y": 249,
      "size": 1,
      "price": "4683000000000000000000",
      "reserved": "",
      "salt": "0x0c0c3c123428abbc92ea12fd39e4427778c62b94ef2eaa1767b1eeb3d02ec328",
      "assetIds": [
        "41506478881403507969696680653240014914910929820314476107906210059990541021189"
      ]
    },
    {
      "x": 339,
      "y": 250,
      "size": 1,
      "price": "4683000000000000000000",
      "reserved": "",
      "salt": "0x1cd7ed7318c4fb8bcc90f49bca1706dd739df27cf6686d90132d0aa2874dd2b2",
      "assetIds": [
        "41506478881403507969696680653240014914910929820314476107906210059990541021188"
      ]
    },
    {
      "x": 339,
      "y": 251,
      "size": 1,
      "price": "4683000000000000000000",
      "reserved": "",
      "salt": "0xee3d43154f8d818cf69731bd9c7760e5f918c77e4180f51d532ef276d1bc885d",
      "assetIds": [
        "41506478881403507969696680653240014914910929820314476107906210059990532622336"
      ]
    },
    {
      "x": 339,
      "y": 255,
      "size": 1,
      "price": "4683000000000000000000",
      "reserved": "",
      "salt": "0xeb00d1d35b4de208fdf2488c3c0610b63f4c0f16bc89bd71885224b255601227",
      "assetIds": [
        "41506478881403507969696680653240014914910929820314476107906210059990532622336"
      ]
    },
    {
      "x": 339,
      "y": 256,
      "size": 1,
      "price": "4683000000000000000000",
      "reserved": "",
      "salt": "0xbf68250fa1f90fb53fc3e94e16f90d59203ebe8cc75cff8e18d92879badf6614",
      "assetIds": [
        "41506478881403507969696680653240014914910929820314476107906210059990541021189"
      ]
    },
    {
      "x": 339,
      "y": 257,
      "size": 1,
      "price": "4683000000000000000000",
      "reserved": "",
      "salt": "0x92150616f3811e122969d8969b5d12293cba28bbd00f8df1bac5815acf37535c",
      "assetIds": [
        "41506478881403507969696680653240014914910929820314476107906210059990541021186"
      ]
    },
    {
      "x": 339,
      "y": 258,
      "size": 1,
      "price": "4683000000000000000000",
      "reserved": "",
      "salt": "0x61acc9b08d9e636afd9f5d203f5800404265012298d169f9a33778ab81b30be9",
      "assetIds": [
        "41506478881403507969696680653240014914910929820314476107906210059990541021187"
      ]
    },
    {
      "x": 339,
      "y": 259,
      "size": 1,
      "price": "4683000000000000000000",
      "reserved": "",
      "salt": "0x96c9c8cd0567a40a6468cdf90eaf6e908003c9d9e57ad3292438e8d16075668f",
      "assetIds": [
        "41506478881403507969696680653240014914910929820314476107906210059990541021186"
      ]
    },
    {
      "x": 339,
      "y": 260,
      "size": 1,
      "price": "4683000000000000000000",
      "reserved": "",
      "salt": "0x3e30221bd49b5e3d0da20dca7f672ccaff3e7289110001dd4d9558ceef95b7ff",
      "assetIds": [
        "41506478881403507969696680653240014914910929820314476107906210059990532622336"
      ]
    },
    {
      "x": 339,
      "y": 261,
      "size": 1,
      "price": "4683000000000000000000",
      "reserved": "",
      "salt": "0xeab3ff089ae8546a836746bab21993f258445c02848bc6e8bedba855f948c23c",
      "assetIds": [
        "41506478881403507969696680653240014914910929820314476107906210059990541021188"
      ]
    },
    {
      "x": 339,
      "y": 262,
      "size": 1,
      "price": "1011000000000000000000",
      "reserved": "0x7a9fe22691c811ea339d9b73150e6911a5343dca",
      "salt": "0x56f428a6121b0f6de83b364abc9662f912fb1d2c761f60c38d4fb23db6b7abf8",
      "assetIds": []
    },
    {
      "x": 339,
      "y": 263,
      "size": 1,
      "price": "4683000000000000000000",
      "reserved": "",
      "salt": "0x9f8ce15ca4f5fb4d652b7e2e9d69b4e7575aba404aad0b8649b7361810d62417",
      "assetIds": [
        "41506478881403507969696680653240014914910929820314476107906210059990532622336"
      ]
    },
    {
      "x": 339,
      "y": 288,
      "size": 1,
      "price": "4683000000000000000000",
      "reserved": "",
      "salt": "0xf4c0bab640333f7c3bbf1684439e5a9075cdf2977e8deabe115dcd67060792cc",
      "assetIds": [
        "41506478881403507969696680653240014914910929820314476107906210059990541021187"
      ]
    },
    {
      "x": 339,
      "y": 289,
      "size": 1,
      "price": "4683000000000000000000",
      "reserved": "",
      "salt": "0x65de23db292bdd7a27e7b9eaba8f574d690461c62965617577f33c086dbcdca1",
      "assetIds": [
        "41506478881403507969696680653240014914910929820314476107906210059990532622336"
      ]
    },
    {
      "x": 339,
      "y": 290,
      "size": 1,
      "price": "4683000000000000000000",
      "reserved": "",
      "salt": "0x0c95e8d6fafedcd8778e3f3db0ea438d107b6048847741bd825e5573aa777fef",
      "assetIds": [
        "41506478881403507969696680653240014914910929820314476107906210059990541021186"
      ]
    },
    {
      "x": 339,
      "y": 291,
      "size": 1,
      "price": "4683000000000000000000",
      "reserved": "",
      "salt": "0xf3b75dfd6c5acd092d10d75564f7a0b9c491a8b593010604d2a9137dd0bb7d26",
      "assetIds": [
        "41506478881403507969696680653240014914910929820314476107906210059990541021187"
      ]
    },
    {
      "x": 339,
      "y": 292,
      "size": 1,
      "price": "4683000000000000000000",
      "reserved": "",
      "salt": "0x2cf05efa5bd0a2c685900a48b1cb5265d04e170d3a9a512e27c0f6748de761de",
      "assetIds": [
        "41506478881403507969696680653240014914910929820314476107906210059990541021189"
      ]
    },
    {
      "x": 339,
      "y": 293,
      "size": 1,
      "price": "4683000000000000000000",
      "reserved": "",
      "salt": "0xc43fcef70e52bae815a2e28deff3d50f8672bf1b30a4c154461be1aacd3d9090",
      "assetIds": [
        "41506478881403507969696680653240014914910929820314476107906210059990541021189"
      ]
    },
    {
      "x": 339,
      "y": 294,
      "size": 1,
      "price": "4683000000000000000000",
      "reserved": "",
      "salt": "0x2e3fae8aab0d13588f41861e9277e5d2df87dfe3909f0ea10199b80e625e4004",
      "assetIds": [
        "41506478881403507969696680653240014914910929820314476107906210059990541021188"
      ]
    },
    {
      "x": 339,
      "y": 295,
      "size": 1,
      "price": "4683000000000000000000",
      "reserved": "",
      "salt": "0xe3c1b74dc9b04876dbba2f9ba0c04e5c498008a19593f60d9db4e188ecb60c57",
      "assetIds": [
        "41506478881403507969696680653240014914910929820314476107906210059990541021184"
      ]
    },
    {
      "x": 339,
      "y": 296,
      "size": 1,
      "price": "4683000000000000000000",
      "reserved": "",
      "salt": "0x62f5bb271301ce8641476856d7fd344d3c2e7a0b616ff1273e33895c17a4c54f",
      "assetIds": [
        "41506478881403507969696680653240014914910929820314476107906210059990541021186"
      ]
    },
    {
      "x": 339,
      "y": 297,
      "size": 1,
      "price": "4683000000000000000000",
      "reserved": "",
      "salt": "0xe22f79d7f16d52a5e7fb5b104c66d5a53a57507d9b5f5b59432fc053b2767270",
      "assetIds": [
        "41506478881403507969696680653240014914910929820314476107906210059990541021186"
      ]
    },
    {
      "x": 339,
      "y": 298,
      "size": 1,
      "price": "4683000000000000000000",
      "reserved": "",
      "salt": "0x7e3a9cd5573b8fc55b32ea6b7fd52d17995469561a5d53b3b8d52f3f2a1ea6b1",
      "assetIds": [
        "41506478881403507969696680653240014914910929820314476107906210059990541021187"
      ]
    },
    {
      "x": 339,
      "y": 299,
      "size": 1,
      "price": "4683000000000000000000",
      "reserved": "",
      "salt": "0xea248196c528357ddd0e6dcc33f417beb1e0f19927e7138b9cd76d260d437222",
      "assetIds": [
        "41506478881403507969696680653240014914910929820314476107906210059990541021186"
      ]
    },
    {
      "x": 340,
      "y": 246,
      "size": 1,
      "price": "4683000000000000000000",
      "reserved": "",
      "salt": "0xa2c272a856525157f9c266bd09f79db8ff97c0bbe8b3b6cd667305d16421f6c7",
      "assetIds": [
        "41506478881403507969696680653240014914910929820314476107906210059990541021185"
      ]
    },
    {
      "x": 340,
      "y": 247,
      "size": 1,
      "price": "4683000000000000000000",
      "reserved": "",
      "salt": "0x6730df62c2502bb6643971f1aabc5294c5ea9dfc1afccc290e68832c0b7c6875",
      "assetIds": [
        "41506478881403507969696680653240014914910929820314476107906210059990541021186"
      ]
    },
    {
      "x": 340,
      "y": 248,
      "size": 1,
      "price": "4683000000000000000000",
      "reserved": "",
      "salt": "0x34f3e9d3858739fb9f0acd11f7d64cc88d635ac35eea54cd62b337bfee191c46",
      "assetIds": [
        "41506478881403507969696680653240014914910929820314476107906210059990541021184"
      ]
    },
    {
      "x": 340,
      "y": 249,
      "size": 1,
      "price": "4683000000000000000000",
      "reserved": "",
      "salt": "0x2e23b073e4aeeaa7ed70048d4fa7ba295446f7e9c91557d6e9d47a98661b9e6a",
      "assetIds": [
        "41506478881403507969696680653240014914910929820314476107906210059990541021184"
      ]
    },
    {
      "x": 340,
      "y": 250,
      "size": 1,
      "price": "4683000000000000000000",
      "reserved": "",
      "salt": "0xde93d57c21a0ae6b647aa4186de978057f0778b2911e22261e2ded890190b3c8",
      "assetIds": [
        "41506478881403507969696680653240014914910929820314476107906210059990541021189"
      ]
    },
    {
      "x": 340,
      "y": 251,
      "size": 1,
      "price": "4683000000000000000000",
      "reserved": "",
      "salt": "0xdf4f0e3f49e7907b832b5f9e9398964126c6fff0d1f84e6783d5fc05a4abec09",
      "assetIds": [
        "41506478881403507969696680653240014914910929820314476107906210059990541021184"
      ]
    },
    {
      "x": 340,
      "y": 255,
      "size": 1,
      "price": "4683000000000000000000",
      "reserved": "",
      "salt": "0xa7c0b9a8edd1386803daea123bbb0a3d3171803a1a3a81a79126240a666131da",
      "assetIds": [
        "41506478881403507969696680653240014914910929820314476107906210059990541021184"
      ]
    },
    {
      "x": 340,
      "y": 256,
      "size": 1,
      "price": "4683000000000000000000",
      "reserved": "",
      "salt": "0x0cdfb249c0b81d8acb79baad1fa8fb12dfc2114cea9cd5cfe7db2f2386dfd61b",
      "assetIds": [
        "41506478881403507969696680653240014914910929820314476107906210059990541021188"
      ]
    },
    {
      "x": 340,
      "y": 257,
      "size": 1,
      "price": "4683000000000000000000",
      "reserved": "",
      "salt": "0x46213ce5650f64572de8e763023e571db8c0d6d86cea7a0fe25058ffb7315811",
      "assetIds": [
        "41506478881403507969696680653240014914910929820314476107906210059990541021184"
      ]
    },
    {
      "x": 340,
      "y": 258,
      "size": 1,
      "price": "4683000000000000000000",
      "reserved": "",
      "salt": "0x5946b173eb169d1135e07792d78bd822f6a7fffed3ebf4c2dd91823c394a49e0",
      "assetIds": [
        "41506478881403507969696680653240014914910929820314476107906210059990541021184"
      ]
    },
    {
      "x": 340,
      "y": 259,
      "size": 1,
      "price": "4683000000000000000000",
      "reserved": "",
      "salt": "0xce6e1f02fd2dec8076c26787567ad22d2b5345ff915855c9436a4ad114dde990",
      "assetIds": [
        "41506478881403507969696680653240014914910929820314476107906210059990541021187"
      ]
    },
    {
      "x": 340,
      "y": 260,
      "size": 1,
      "price": "4683000000000000000000",
      "reserved": "",
      "salt": "0x101c62d2d56866bb6ca8a5522fb6b524cb90318ad822cbc2f00abc410498829f",
      "assetIds": [
        "41506478881403507969696680653240014914910929820314476107906210059990541021186"
      ]
    },
    {
      "x": 340,
      "y": 261,
      "size": 1,
      "price": "4683000000000000000000",
      "reserved": "",
      "salt": "0x3ef53753e04b3bd0f1c134c44e3267f868715cbec5631cf9586569536c4f31bd",
      "assetIds": [
        "41506478881403507969696680653240014914910929820314476107906210059990541021185"
      ]
    },
    {
      "x": 340,
      "y": 262,
      "size": 1,
      "price": "4683000000000000000000",
      "reserved": "",
      "salt": "0xe076d6a0f445abc96ba9a00fb68a3d6405854675047d87bb32d0761945537f7d",
      "assetIds": [
        "41506478881403507969696680653240014914910929820314476107906210059990541021187"
      ]
    },
    {
      "x": 340,
      "y": 263,
      "size": 1,
      "price": "4683000000000000000000",
      "reserved": "",
      "salt": "0x89079b7cf001897c9346c0f20284a6e177d4ad2ff288b20e493a13fa4323c6dd",
      "assetIds": [
        "41506478881403507969696680653240014914910929820314476107906210059990541021185"
      ]
    },
    {
      "x": 340,
      "y": 288,
      "size": 1,
      "price": "4683000000000000000000",
      "reserved": "",
      "salt": "0x5fb738efe18b15292e6874d0ea5f50830d1d601bdcdcc0c0a2554b0320c99636",
      "assetIds": [
        "41506478881403507969696680653240014914910929820314476107906210059990541021186"
      ]
    },
    {
      "x": 340,
      "y": 289,
      "size": 1,
      "price": "4683000000000000000000",
      "reserved": "",
      "salt": "0xfd1d182528eca74d3c98a895e1bc757ea10852b2cb11506da1895c2766b5b9d7",
      "assetIds": [
        "41506478881403507969696680653240014914910929820314476107906210059990541021186"
      ]
    },
    {
      "x": 340,
      "y": 290,
      "size": 1,
      "price": "4683000000000000000000",
      "reserved": "",
      "salt": "0xafd733253c99afdbb927705bd820177e39262fb501c43ce6352bf3b1943f8df6",
      "assetIds": [
        "41506478881403507969696680653240014914910929820314476107906210059990541021186"
      ]
    },
    {
      "x": 340,
      "y": 291,
      "size": 1,
      "price": "4683000000000000000000",
      "reserved": "",
      "salt": "0x86d5dbc96f70759d495951acd4311b8309e26217198322df2b3b93d024ae7fd7",
      "assetIds": [
        "41506478881403507969696680653240014914910929820314476107906210059990532622336"
      ]
    },
    {
      "x": 340,
      "y": 292,
      "size": 1,
      "price": "4683000000000000000000",
      "reserved": "",
      "salt": "0xae64bc7c13603969651369216a32822fb6b4795fa66e4434eac8d86fc91c3941",
      "assetIds": [
        "41506478881403507969696680653240014914910929820314476107906210059990541021187"
      ]
    },
    {
      "x": 340,
      "y": 293,
      "size": 1,
      "price": "4683000000000000000000",
      "reserved": "",
      "salt": "0x39bed5eb237a77ebeedb71a0e1331fac464bc2390c5391ead125decba9942e86",
      "assetIds": [
        "41506478881403507969696680653240014914910929820314476107906210059990541021184"
      ]
    },
    {
      "x": 340,
      "y": 294,
      "size": 1,
      "price": "4683000000000000000000",
      "reserved": "",
      "salt": "0x406095d3a26367e21c1ead4ebdc1bd5a5a2868ea45353d51a720b0075c1119ab",
      "assetIds": [
        "41506478881403507969696680653240014914910929820314476107906210059990541021189"
      ]
    },
    {
      "x": 340,
      "y": 295,
      "size": 1,
      "price": "4683000000000000000000",
      "reserved": "",
      "salt": "0xefa661ddd2fe914c00bce96b11c5f0f1287107933b696010390ad34f7b5194f3",
      "assetIds": [
        "41506478881403507969696680653240014914910929820314476107906210059990541021189"
      ]
    },
    {
      "x": 340,
      "y": 296,
      "size": 1,
      "price": "4683000000000000000000",
      "reserved": "",
      "salt": "0x425a284caac18db2d8ce640f902dafe4e28d81eb00f41c5946c598e15ed77d7c",
      "assetIds": [
        "41506478881403507969696680653240014914910929820314476107906210059990541021187"
      ]
    },
    {
      "x": 340,
      "y": 297,
      "size": 1,
      "price": "4683000000000000000000",
      "reserved": "",
      "salt": "0xa5530fd0c6135ea96ff6f95e13c9ac2fc3d66a0d39195bf5378edfb8de6ab8f8",
      "assetIds": [
        "41506478881403507969696680653240014914910929820314476107906210059990541021185"
      ]
    },
    {
      "x": 340,
      "y": 298,
      "size": 1,
      "price": "4683000000000000000000",
      "reserved": "",
      "salt": "0x7d5ffcac1478e495f3da88c8f5ca51114f07ca1b76294cf2f132c6b806107f9a",
      "assetIds": [
        "41506478881403507969696680653240014914910929820314476107906210059990541021186"
      ]
    },
    {
      "x": 340,
      "y": 299,
      "size": 1,
      "price": "4683000000000000000000",
      "reserved": "",
      "salt": "0x8de93bde5c67ee8042dc8628c9da66c3e5062a110171d0b5566120d15aea4168",
      "assetIds": [
        "41506478881403507969696680653240014914910929820314476107906210059990541021186"
      ]
    },
    {
      "x": 341,
      "y": 246,
      "size": 1,
      "price": "4683000000000000000000",
      "reserved": "",
      "salt": "0x105d938e91dd7fa2fb7dbb283cd622b15e7ac7529f6857bd774db9b0873eca77",
      "assetIds": [
        "41506478881403507969696680653240014914910929820314476107906210059990541021185"
      ]
    },
    {
      "x": 341,
      "y": 247,
      "size": 1,
      "price": "4683000000000000000000",
      "reserved": "",
      "salt": "0xb914b081feccc38a80771ab08e24dfaecbf23d25a39b33b3ff252ab0c6e450ae",
      "assetIds": [
        "41506478881403507969696680653240014914910929820314476107906210059990532622336"
      ]
    },
    {
      "x": 341,
      "y": 248,
      "size": 1,
      "price": "4683000000000000000000",
      "reserved": "",
      "salt": "0xc901c1a2cc7dd08021200b6c4c83a2b6940b20878d6ea402c56223a95dfb407a",
      "assetIds": [
        "41506478881403507969696680653240014914910929820314476107906210059990541021188"
      ]
    },
    {
      "x": 341,
      "y": 249,
      "size": 1,
      "price": "4683000000000000000000",
      "reserved": "",
      "salt": "0x6db5af8a6f86ba363f7cc6f969f348e0ef94d2f9f4712c6896cefa762705d804",
      "assetIds": [
        "41506478881403507969696680653240014914910929820314476107906210059990541021187"
      ]
    },
    {
      "x": 341,
      "y": 250,
      "size": 1,
      "price": "4683000000000000000000",
      "reserved": "",
      "salt": "0x21113bad45d7c3855da817988fe33b924454c55d2120f93c7047eccda9cbf7fa",
      "assetIds": [
        "41506478881403507969696680653240014914910929820314476107906210059990541021188"
      ]
    },
    {
      "x": 341,
      "y": 251,
      "size": 1,
      "price": "4683000000000000000000",
      "reserved": "",
      "salt": "0x51b5c204760aca3ebab99485e9cd13b9a33f9933b9fb4df0821661a9ec4ae82b",
      "assetIds": [
        "41506478881403507969696680653240014914910929820314476107906210059990541021186"
      ]
    },
    {
      "x": 341,
      "y": 255,
      "size": 1,
      "price": "4683000000000000000000",
      "reserved": "",
      "salt": "0x7918a71b29f1c4158f4d2a018d405b5d71f4b730225c699697b4da9109963694",
      "assetIds": [
        "41506478881403507969696680653240014914910929820314476107906210059990541021185"
      ]
    },
    {
      "x": 341,
      "y": 256,
      "size": 1,
      "price": "4683000000000000000000",
      "reserved": "",
      "salt": "0xeb5ea16011766370970be72e5633d25aa7ddf10e4bba353acb9472e29cc5e9de",
      "assetIds": [
        "41506478881403507969696680653240014914910929820314476107906210059990541021187"
      ]
    },
    {
      "x": 341,
      "y": 257,
      "size": 1,
      "price": "4683000000000000000000",
      "reserved": "",
      "salt": "0xfa1e34a0e30b8f0b1ad607ea7f292c63881321906ce69883328f1b21515775b9",
      "assetIds": [
        "41506478881403507969696680653240014914910929820314476107906210059990541021187"
      ]
    },
    {
      "x": 341,
      "y": 258,
      "size": 1,
      "price": "4683000000000000000000",
      "reserved": "",
      "salt": "0xfaefa9532bb455fbcc30828676a88b75679fd28899ec27a720b412ad887eb4c4",
      "assetIds": [
        "41506478881403507969696680653240014914910929820314476107906210059990541021186"
      ]
    },
    {
      "x": 341,
      "y": 259,
      "size": 1,
      "price": "4683000000000000000000",
      "reserved": "",
      "salt": "0x149319430bf66cb232ef4c3de9cfcf8560e536dea0bd3405cb94ecd9d2d8de49",
      "assetIds": [
        "41506478881403507969696680653240014914910929820314476107906210059990541021184"
      ]
    },
    {
      "x": 341,
      "y": 260,
      "size": 1,
      "price": "4683000000000000000000",
      "reserved": "",
      "salt": "0x1f5c04f40f911f2da7fa54b678c05147533da24909558de9aa10a687e7198c3d",
      "assetIds": [
        "41506478881403507969696680653240014914910929820314476107906210059990541021187"
      ]
    },
    {
      "x": 341,
      "y": 261,
      "size": 1,
      "price": "4683000000000000000000",
      "reserved": "",
      "salt": "0x092768b14774afe2ed2e4fd4c7a0115c0e2d23a6e5b073bbe70a9abe252471cd",
      "assetIds": [
        "41506478881403507969696680653240014914910929820314476107906210059990541021189"
      ]
    },
    {
      "x": 341,
      "y": 262,
      "size": 1,
      "price": "4683000000000000000000",
      "reserved": "",
      "salt": "0xb08294a4bc4a4c68bcea50bca491921e795d2e66b45abeb52007b09ba82d286a",
      "assetIds": [
        "41506478881403507969696680653240014914910929820314476107906210059990532622336"
      ]
    },
    {
      "x": 341,
      "y": 263,
      "size": 1,
      "price": "4683000000000000000000",
      "reserved": "",
      "salt": "0x53721081e71a0681f6558531bd2cec61e4a010c7c79fa27b54bc0e4ea1cd6bc0",
      "assetIds": [
        "41506478881403507969696680653240014914910929820314476107906210059990541021184"
      ]
    },
    {
      "x": 341,
      "y": 288,
      "size": 1,
      "price": "4683000000000000000000",
      "reserved": "",
      "salt": "0xcefa8f6b5a80a66dfc4aa30b7801626eab086588f0b279a3d1c0c8188c291db7",
      "assetIds": [
        "41506478881403507969696680653240014914910929820314476107906210059990541021188"
      ]
    },
    {
      "x": 341,
      "y": 289,
      "size": 1,
      "price": "4683000000000000000000",
      "reserved": "",
      "salt": "0x0c5d9562a3cf024ed55ca19af30c27a4de4497598a61eec165b7c36c9c93bba5",
      "assetIds": [
        "41506478881403507969696680653240014914910929820314476107906210059990541021188"
      ]
    },
    {
      "x": 341,
      "y": 290,
      "size": 1,
      "price": "4683000000000000000000",
      "reserved": "",
      "salt": "0x4f0bcdc1d1f101bfd96a6348ed7bf35de79e9c0cfbf3f5e3678cf10d07f8f551",
      "assetIds": [
        "41506478881403507969696680653240014914910929820314476107906210059990541021188"
      ]
    },
    {
      "x": 341,
      "y": 291,
      "size": 1,
      "price": "4683000000000000000000",
      "reserved": "",
      "salt": "0x987ff94172cfffbde030e7f69736c5af8058909bc36809966bd8d2943a82c685",
      "assetIds": [
        "41506478881403507969696680653240014914910929820314476107906210059990541021186"
      ]
    },
    {
      "x": 341,
      "y": 292,
      "size": 1,
      "price": "4683000000000000000000",
      "reserved": "",
      "salt": "0x52761df75948ce1abc165741995fba4d1682624ae8af09cf1d75b4fc706535f7",
      "assetIds": [
        "41506478881403507969696680653240014914910929820314476107906210059990541021184"
      ]
    },
    {
      "x": 341,
      "y": 293,
      "size": 1,
      "price": "4683000000000000000000",
      "reserved": "",
      "salt": "0xc1f48b7c3be2b7bacafa1914e8c8836c8be22f61df2782b7f42e6930246e8fe4",
      "assetIds": [
        "41506478881403507969696680653240014914910929820314476107906210059990541021187"
      ]
    },
    {
      "x": 341,
      "y": 294,
      "size": 1,
      "price": "4683000000000000000000",
      "reserved": "",
      "salt": "0x0a0409b35b716bb69a6730c355bac6f4edbc69cb8a223bca6151f1a31cc85b1f",
      "assetIds": [
        "41506478881403507969696680653240014914910929820314476107906210059990541021185"
      ]
    },
    {
      "x": 341,
      "y": 295,
      "size": 1,
      "price": "4683000000000000000000",
      "reserved": "",
      "salt": "0xbdc488fa6bf99ba5a84e92ed377a18b03b980b09e0aec0e9c6621d68d09ba508",
      "assetIds": [
        "41506478881403507969696680653240014914910929820314476107906210059990541021186"
      ]
    },
    {
      "x": 341,
      "y": 296,
      "size": 1,
      "price": "4683000000000000000000",
      "reserved": "",
      "salt": "0x17486bfd0aa7396d6883d9713dd85e8a869586a25322afea53941a4077819b0a",
      "assetIds": [
        "41506478881403507969696680653240014914910929820314476107906210059990541021185"
      ]
    },
    {
      "x": 341,
      "y": 297,
      "size": 1,
      "price": "4683000000000000000000",
      "reserved": "",
      "salt": "0x9e4f87c975ddde5a4f5f8c7b2db67769cc7c7d940907f701f6b916f4da6140b2",
      "assetIds": [
        "41506478881403507969696680653240014914910929820314476107906210059990541021187"
      ]
    },
    {
      "x": 341,
      "y": 298,
      "size": 1,
      "price": "4683000000000000000000",
      "reserved": "",
      "salt": "0x7d3ce3cbce011f3a79d9a72a63dfd17fd5c17dbb10fe7fe68d4e432b754d61d0",
      "assetIds": [
        "41506478881403507969696680653240014914910929820314476107906210059990532622336"
      ]
    },
    {
      "x": 341,
      "y": 299,
      "size": 1,
      "price": "4683000000000000000000",
      "reserved": "",
      "salt": "0x997cbe40034ed8dd5c0cd52fc56b23abd3bd75f719fee688c383044612e4a52a",
      "assetIds": [
        "41506478881403507969696680653240014914910929820314476107906210059990541021185"
      ]
    },
    {
      "x": 342,
      "y": 240,
      "size": 1,
      "price": "4683000000000000000000",
      "reserved": "",
      "salt": "0x1ecefe3b845d2473dca592929fe951d0f719e0d23c7b09f0ac96464700e1be02",
      "assetIds": [
        "41506478881403507969696680653240014914910929820314476107906210059990541021186"
      ]
    },
    {
      "x": 342,
      "y": 241,
      "size": 1,
      "price": "4683000000000000000000",
      "reserved": "",
      "salt": "0x066b5e80cffd702cdf38a2eea52038c41d0484cc163f2d53085b789fc7d691e6",
      "assetIds": [
        "41506478881403507969696680653240014914910929820314476107906210059990541021186"
      ]
    },
    {
      "x": 342,
      "y": 242,
      "size": 1,
      "price": "4683000000000000000000",
      "reserved": "",
      "salt": "0x266f4f319c9ad4183da6290cc52ebe297f5435af835a03e18937a8c1ae365ca8",
      "assetIds": [
        "41506478881403507969696680653240014914910929820314476107906210059990541021185"
      ]
    },
    {
      "x": 342,
      "y": 243,
      "size": 1,
      "price": "4683000000000000000000",
      "reserved": "",
      "salt": "0x086497062646228ff91c70d25c7c7f66336fd9e36d4b80553c471cf773b95726",
      "assetIds": [
        "41506478881403507969696680653240014914910929820314476107906210059990541021184"
      ]
    },
    {
      "x": 342,
      "y": 244,
      "size": 1,
      "price": "4683000000000000000000",
      "reserved": "",
      "salt": "0xb83776e95587f2794ed52bf9f82d45153d450411f4ad1d595217cc8036b38138",
      "assetIds": [
        "41506478881403507969696680653240014914910929820314476107906210059990532622336"
      ]
    },
    {
      "x": 342,
      "y": 245,
      "size": 1,
      "price": "4683000000000000000000",
      "reserved": "",
      "salt": "0xcc824fd126e8f57e2a95813d2420bb55b7155c172d0d84dd39b42f9a9cc7c653",
      "assetIds": [
        "41506478881403507969696680653240014914910929820314476107906210059990541021187"
      ]
    },
    {
      "x": 342,
      "y": 246,
      "size": 1,
      "price": "4683000000000000000000",
      "reserved": "",
      "salt": "0xf735b3ee8b3b781a00b7407185947137d5ade87c5bcfd2b50b5e2622ca956a42",
      "assetIds": [
        "41506478881403507969696680653240014914910929820314476107906210059990541021188"
      ]
    },
    {
      "x": 342,
      "y": 247,
      "size": 1,
      "price": "4683000000000000000000",
      "reserved": "",
      "salt": "0x23ced0fdca4acc07c0f4d3a0ae3f4950858cfd713bed66fe2491b2d45609f1bc",
      "assetIds": [
        "41506478881403507969696680653240014914910929820314476107906210059990541021187"
      ]
    },
    {
      "x": 342,
      "y": 248,
      "size": 1,
      "price": "4683000000000000000000",
      "reserved": "",
      "salt": "0x35230ce61727cdd5c23b7b4d6288164d090608480c1750fb479680445e268620",
      "assetIds": [
        "41506478881403507969696680653240014914910929820314476107906210059990541021187"
      ]
    },
    {
      "x": 342,
      "y": 249,
      "size": 1,
      "price": "4683000000000000000000",
      "reserved": "",
      "salt": "0xda0de3b7654c9c3e92e2e26e967f9428cd26f00ba9394496206b09ce10ad9388",
      "assetIds": [
        "41506478881403507969696680653240014914910929820314476107906210059990541021187"
      ]
    },
    {
      "x": 342,
      "y": 250,
      "size": 1,
      "price": "4683000000000000000000",
      "reserved": "",
      "salt": "0xc0f4234a1fc20d72ba2ba4c18cfc70cc19628e5dec4b64e861e1c337067500a6",
      "assetIds": [
        "41506478881403507969696680653240014914910929820314476107906210059990541021185"
      ]
    },
    {
      "x": 342,
      "y": 251,
      "size": 1,
      "price": "4683000000000000000000",
      "reserved": "",
      "salt": "0xe4bf32114fb16b8391258227f5f19a741ffa5bf259e21417d52ac0dcb25b8297",
      "assetIds": [
        "41506478881403507969696680653240014914910929820314476107906210059990541021185"
      ]
    },
    {
      "x": 342,
      "y": 252,
      "size": 1,
      "price": "4683000000000000000000",
      "reserved": "",
      "salt": "0xc00ced0e9b034005dbbd48bb299235b6f37c59d488363d3f24df332077c7942e",
      "assetIds": [
        "41506478881403507969696680653240014914910929820314476107906210059990541021188"
      ]
    },
    {
      "x": 342,
      "y": 253,
      "size": 1,
      "price": "4683000000000000000000",
      "reserved": "",
      "salt": "0x49d3dd0029bb0626ba42ef5ba5336ff0faca9a8bea2353e045d06db0bf07aac6",
      "assetIds": [
        "41506478881403507969696680653240014914910929820314476107906210059990541021185"
      ]
    },
    {
      "x": 342,
      "y": 254,
      "size": 1,
      "price": "4683000000000000000000",
      "reserved": "",
      "salt": "0x5b0cf01818296f1d5b71112541a763da0f599e884d464364893a834ee1b3df61",
      "assetIds": [
        "41506478881403507969696680653240014914910929820314476107906210059990541021185"
      ]
    },
    {
      "x": 342,
      "y": 255,
      "size": 1,
      "price": "4683000000000000000000",
      "reserved": "",
      "salt": "0x840a5289a1bfa273d7cbe95dc8f30a24e5c510cffa3c68531e8ec81ab6ef4de7",
      "assetIds": [
        "41506478881403507969696680653240014914910929820314476107906210059990541021188"
      ]
    },
    {
      "x": 342,
      "y": 256,
      "size": 1,
      "price": "4683000000000000000000",
      "reserved": "",
      "salt": "0x25ccc4c20748d19498733dbcc948c36f33038156bb626a597b62befdc23c478e",
      "assetIds": [
        "41506478881403507969696680653240014914910929820314476107906210059990541021187"
      ]
    },
    {
      "x": 342,
      "y": 257,
      "size": 1,
      "price": "4683000000000000000000",
      "reserved": "",
      "salt": "0x6cabb82c34b20c3018368774c50f535cf2a6c83b657d91a97fce28d1d735fcd8",
      "assetIds": [
        "41506478881403507969696680653240014914910929820314476107906210059990541021189"
      ]
    },
    {
      "x": 342,
      "y": 294,
      "size": 1,
      "price": "4683000000000000000000",
      "reserved": "",
      "salt": "0xb3676bd6e799aa32904de6326632c82eb302d9af83bb23b5d6d3e1b8431c5483",
      "assetIds": [
        "41506478881403507969696680653240014914910929820314476107906210059990541021188"
      ]
    },
    {
      "x": 342,
      "y": 295,
      "size": 1,
      "price": "4683000000000000000000",
      "reserved": "",
      "salt": "0x78fb5ae352870b15a3f7b651333aaf73d5b1748e9813ba7f310e9ce70adb1a01",
      "assetIds": [
        "41506478881403507969696680653240014914910929820314476107906210059990541021184"
      ]
    },
    {
      "x": 342,
      "y": 296,
      "size": 1,
      "price": "4683000000000000000000",
      "reserved": "",
      "salt": "0xe639f8242fffae2e44c1802d279bf2b3c5a3b1b046deab424d82c12f260f08dc",
      "assetIds": [
        "41506478881403507969696680653240014914910929820314476107906210059990532622336"
      ]
    },
    {
      "x": 342,
      "y": 297,
      "size": 1,
      "price": "4683000000000000000000",
      "reserved": "",
      "salt": "0x14db0d96868eb645d11486014b88246897875dea45cd9727a870cda92f89bab5",
      "assetIds": [
        "41506478881403507969696680653240014914910929820314476107906210059990541021185"
      ]
    },
    {
      "x": 342,
      "y": 298,
      "size": 1,
      "price": "4683000000000000000000",
      "reserved": "",
      "salt": "0xf2d276558d8196bfea466261b8881b1f772fdc447bd3ff3dcdf65e37e7de46d5",
      "assetIds": [
        "41506478881403507969696680653240014914910929820314476107906210059990541021188"
      ]
    },
    {
      "x": 342,
      "y": 299,
      "size": 1,
      "price": "4683000000000000000000",
      "reserved": "",
      "salt": "0xde8cad2bdda7c86bafff6e8a63497f1867d9d52df757601699e0e3c68dfb6e6a",
      "assetIds": [
        "41506478881403507969696680653240014914910929820314476107906210059990541021185"
      ]
    },
    {
      "x": 343,
      "y": 240,
      "size": 1,
      "price": "4683000000000000000000",
      "reserved": "",
      "salt": "0xd04629428d186a454548225d60f696397764f0f45e86b84d8cf32769d610b99e",
      "assetIds": [
        "41506478881403507969696680653240014914910929820314476107906210059990541021187"
      ]
    },
    {
      "x": 343,
      "y": 241,
      "size": 1,
      "price": "4683000000000000000000",
      "reserved": "",
      "salt": "0x4517888238775e345b295ec0c69d926a3e856d7569bae703e88cd93601b043d8",
      "assetIds": [
        "41506478881403507969696680653240014914910929820314476107906210059990532622336"
      ]
    },
    {
      "x": 343,
      "y": 242,
      "size": 1,
      "price": "4683000000000000000000",
      "reserved": "",
      "salt": "0x13be6a54cf93bca80d661e0b3dfcc2f95b514087d0ee9370b4c9d1172639c6fd",
      "assetIds": [
        "41506478881403507969696680653240014914910929820314476107906210059990541021187"
      ]
    },
    {
      "x": 343,
      "y": 243,
      "size": 1,
      "price": "4683000000000000000000",
      "reserved": "",
      "salt": "0xa75eac129f8dccd8fe6030a0e89de9721acf153dadca084f3391eb79939275d5",
      "assetIds": [
        "41506478881403507969696680653240014914910929820314476107906210059990541021186"
      ]
    },
    {
      "x": 343,
      "y": 244,
      "size": 1,
      "price": "4683000000000000000000",
      "reserved": "",
      "salt": "0x081acc39871c4f3dd0fc36dea2ef282a20e9711ca6379b0513661a5e258da4f8",
      "assetIds": [
        "41506478881403507969696680653240014914910929820314476107906210059990541021186"
      ]
    },
    {
      "x": 343,
      "y": 245,
      "size": 1,
      "price": "4683000000000000000000",
      "reserved": "",
      "salt": "0x1832657664db5af267020abd0ccfa27dbfe74dc0ce5ed08bf6ca4bf277eaf06c",
      "assetIds": [
        "41506478881403507969696680653240014914910929820314476107906210059990541021187"
      ]
    },
    {
      "x": 343,
      "y": 246,
      "size": 1,
      "price": "4683000000000000000000",
      "reserved": "",
      "salt": "0xeddd8c130a07be5291b45663ab263a72274a025ec3f0fb49ba6f56c20dac27f2",
      "assetIds": [
        "41506478881403507969696680653240014914910929820314476107906210059990541021184"
      ]
    },
    {
      "x": 343,
      "y": 247,
      "size": 1,
      "price": "4683000000000000000000",
      "reserved": "",
      "salt": "0xddf871a7a85743a9ea6c479d54dac06d894b4873def3710d3947f1a6b1994575",
      "assetIds": [
        "41506478881403507969696680653240014914910929820314476107906210059990541021187"
      ]
    },
    {
      "x": 343,
      "y": 248,
      "size": 1,
      "price": "4683000000000000000000",
      "reserved": "",
      "salt": "0xf5f4283684db5ad944d82672c8a60fb08b8fd7ec0c9e7a58d223947157f1e58b",
      "assetIds": [
        "41506478881403507969696680653240014914910929820314476107906210059990541021184"
      ]
    },
    {
      "x": 343,
      "y": 249,
      "size": 1,
      "price": "4683000000000000000000",
      "reserved": "",
      "salt": "0x62fa61439daeec72acbbeead7544aebb6982a9a78b9807d3a1f14fec2796827b",
      "assetIds": [
        "41506478881403507969696680653240014914910929820314476107906210059990541021185"
      ]
    },
    {
      "x": 343,
      "y": 250,
      "size": 1,
      "price": "4683000000000000000000",
      "reserved": "",
      "salt": "0xa9a4e5a7154a8258cef1d13b16b18829a6f9547f8e49770f009b3e7cf7abc8e7",
      "assetIds": [
        "41506478881403507969696680653240014914910929820314476107906210059990532622336"
      ]
    },
    {
      "x": 343,
      "y": 251,
      "size": 1,
      "price": "4683000000000000000000",
      "reserved": "",
      "salt": "0x938849e04e1cc33396d6547b9737b3a3bb2606cb49be581e016d0a67b01443a1",
      "assetIds": [
        "41506478881403507969696680653240014914910929820314476107906210059990541021184"
      ]
    },
    {
      "x": 343,
      "y": 252,
      "size": 1,
      "price": "4683000000000000000000",
      "reserved": "",
      "salt": "0xd73b12452fdcd24a16d78853769e57b3b1f850c5a480efc6ca002fce12c1aef1",
      "assetIds": [
        "41506478881403507969696680653240014914910929820314476107906210059990541021186"
      ]
    },
    {
      "x": 343,
      "y": 253,
      "size": 1,
      "price": "4683000000000000000000",
      "reserved": "",
      "salt": "0x56cfe1c1a774eb9cc02f09bb52a9723a6ad7bb92e0116cf789c0117d68f47744",
      "assetIds": [
        "41506478881403507969696680653240014914910929820314476107906210059990541021186"
      ]
    },
    {
      "x": 343,
      "y": 254,
      "size": 1,
      "price": "4683000000000000000000",
      "reserved": "",
      "salt": "0x085d35c72c2917e784911d873d9c4b6cfbc7b67d10d79fa5a9792d896dffe2b1",
      "assetIds": [
        "41506478881403507969696680653240014914910929820314476107906210059990541021185"
      ]
    },
    {
      "x": 343,
      "y": 255,
      "size": 1,
      "price": "4683000000000000000000",
      "reserved": "",
      "salt": "0x412e61ed429ae489e794f772d73c95637234f0540c1d163c86cd44e58dc3ef0e",
      "assetIds": [
        "41506478881403507969696680653240014914910929820314476107906210059990541021189"
      ]
    },
    {
      "x": 343,
      "y": 256,
      "size": 1,
      "price": "1011000000000000000000",
      "reserved": "0x7a9fe22691c811ea339d9b73150e6911a5343dca",
      "salt": "0x5c38687d95ebbf81e26bcae0fb76b43d4593a9c5b26c2a22f701233065b13742",
      "assetIds": []
    },
    {
      "x": 343,
      "y": 257,
      "size": 1,
      "price": "4683000000000000000000",
      "reserved": "",
      "salt": "0x90a372f86df22e821b7d3230a91c38195a2c08a27b4f089aec84f964468b1f59",
      "assetIds": [
        "41506478881403507969696680653240014914910929820314476107906210059990532622336"
      ]
    },
    {
      "x": 343,
      "y": 294,
      "size": 1,
      "price": "4683000000000000000000",
      "reserved": "",
      "salt": "0x72302f8dd33a6e16459b7858a291cbce8983725a30702d7474bbe96d16327bb5",
      "assetIds": [
        "41506478881403507969696680653240014914910929820314476107906210059990541021185"
      ]
    },
    {
      "x": 343,
      "y": 295,
      "size": 1,
      "price": "1011000000000000000000",
      "reserved": "0x7a9fe22691c811ea339d9b73150e6911a5343dca",
      "salt": "0xa44d4204a6d4c7b41728bdcd58cc00cf2555637cb717f2b5a1905ee7466169e9",
      "assetIds": []
    },
    {
      "x": 343,
      "y": 296,
      "size": 1,
      "price": "4683000000000000000000",
      "reserved": "",
      "salt": "0x6ac1a154c5cb8e9682a75cbe9a6dacd940234323df15984fd8f2ef980c90b58a",
      "assetIds": [
        "41506478881403507969696680653240014914910929820314476107906210059990541021186"
      ]
    },
    {
      "x": 343,
      "y": 297,
      "size": 1,
      "price": "4683000000000000000000",
      "reserved": "",
      "salt": "0xeb752e35ae393e155d5fc8c96f80ff473d97272162d82d0eb13a5c1ba9ebbff1",
      "assetIds": [
        "41506478881403507969696680653240014914910929820314476107906210059990541021189"
      ]
    },
    {
      "x": 343,
      "y": 298,
      "size": 1,
      "price": "4683000000000000000000",
      "reserved": "",
      "salt": "0xd90836f81c6a489c9ddd83c7065ee1e356fa730915d4a0c2e8a2d055d938fbce",
      "assetIds": [
        "41506478881403507969696680653240014914910929820314476107906210059990541021184"
      ]
    },
    {
      "x": 343,
      "y": 299,
      "size": 1,
      "price": "4683000000000000000000",
      "reserved": "",
      "salt": "0x1a3d95145f170789907199cc160384360f27cc96f6a4a2c64da401bd81556f41",
      "assetIds": [
        "41506478881403507969696680653240014914910929820314476107906210059990541021186"
      ]
    },
    {
      "x": 344,
      "y": 240,
      "size": 1,
      "price": "4683000000000000000000",
      "reserved": "",
      "salt": "0x465b83c38178e2baaa75ee42c28dd5e6d945202e6c63a46707fb63b8edfcbf18",
      "assetIds": [
        "41506478881403507969696680653240014914910929820314476107906210059990541021189"
      ]
    },
    {
      "x": 344,
      "y": 241,
      "size": 1,
      "price": "4683000000000000000000",
      "reserved": "",
      "salt": "0x26dc39e982e13821cb2695fc63a4182c4b0e1060ba8e1179f07ca2e7af08b89a",
      "assetIds": [
        "41506478881403507969696680653240014914910929820314476107906210059990541021186"
      ]
    },
    {
      "x": 344,
      "y": 242,
      "size": 1,
      "price": "4683000000000000000000",
      "reserved": "",
      "salt": "0xaecb53e21cec137ad81734fc464e6b4578412fbe66ed4b055beeda8bb39c3d6f",
      "assetIds": [
        "41506478881403507969696680653240014914910929820314476107906210059990541021187"
      ]
    },
    {
      "x": 344,
      "y": 243,
      "size": 1,
      "price": "4683000000000000000000",
      "reserved": "",
      "salt": "0x82711fbe59e32c694ff3daf3d17007e4acf7fd0fe72ad9f3f5f8158a0a47b045",
      "assetIds": [
        "41506478881403507969696680653240014914910929820314476107906210059990541021188"
      ]
    },
    {
      "x": 344,
      "y": 244,
      "size": 1,
      "price": "4683000000000000000000",
      "reserved": "",
      "salt": "0x76787fcc4636207e8e5bcc4360677f9801468a675ff95323409f6662c4bf1c0e",
      "assetIds": [
        "41506478881403507969696680653240014914910929820314476107906210059990541021184"
      ]
    },
    {
      "x": 344,
      "y": 245,
      "size": 1,
      "price": "4683000000000000000000",
      "reserved": "",
      "salt": "0x7c1308568941ead5a4ca44e1575a3da122fb55c853ff1f6d47a754012db19daf",
      "assetIds": [
        "41506478881403507969696680653240014914910929820314476107906210059990541021184"
      ]
    },
    {
      "x": 344,
      "y": 246,
      "size": 1,
      "price": "4683000000000000000000",
      "reserved": "",
      "salt": "0xd034253c596a03ef7ee79bab07f4c74d9f77284185d86161e878cb8324e88d25",
      "assetIds": [
        "41506478881403507969696680653240014914910929820314476107906210059990541021189"
      ]
    },
    {
      "x": 344,
      "y": 247,
      "size": 1,
      "price": "4683000000000000000000",
      "reserved": "",
      "salt": "0xaffd25823fa11d16c5d32bdd51d2e5025c897c73e4a64af5284637ff51aae3ae",
      "assetIds": [
        "41506478881403507969696680653240014914910929820314476107906210059990541021189"
      ]
    },
    {
      "x": 344,
      "y": 248,
      "size": 1,
      "price": "4683000000000000000000",
      "reserved": "",
      "salt": "0x59b72e9143848362c0e6d4f9b8be31d2597ba21522107e3d401a2bb909e139c9",
      "assetIds": [
        "41506478881403507969696680653240014914910929820314476107906210059990541021184"
      ]
    },
    {
      "x": 344,
      "y": 249,
      "size": 1,
      "price": "4683000000000000000000",
      "reserved": "",
      "salt": "0x449a6585a828553ee057020793807e566e350edb798dae02f3afbf33f0e5bddb",
      "assetIds": [
        "41506478881403507969696680653240014914910929820314476107906210059990541021186"
      ]
    },
    {
      "x": 344,
      "y": 250,
      "size": 1,
      "price": "4683000000000000000000",
      "reserved": "",
      "salt": "0xce568973bd4fc9ce31df1f00b5220d5b9bcd73a5e242ee8754bddddb97707c68",
      "assetIds": [
        "41506478881403507969696680653240014914910929820314476107906210059990532622336"
      ]
    },
    {
      "x": 344,
      "y": 251,
      "size": 1,
      "price": "4683000000000000000000",
      "reserved": "",
      "salt": "0x87853df2ada4d23b4ff48fa309652b9120fd23cb0d34442aea18ab82175af11a",
      "assetIds": [
        "41506478881403507969696680653240014914910929820314476107906210059990541021185"
      ]
    },
    {
      "x": 344,
      "y": 252,
      "size": 1,
      "price": "4683000000000000000000",
      "reserved": "",
      "salt": "0x39bf18b4e6416bc3ec7f0e9853c6ef2856eb5378483a8d9d4c00cb2447f7b55e",
      "assetIds": [
        "41506478881403507969696680653240014914910929820314476107906210059990541021189"
      ]
    },
    {
      "x": 344,
      "y": 253,
      "size": 1,
      "price": "4683000000000000000000",
      "reserved": "",
      "salt": "0x9457bcb604b865b849192a7212e8e953d44566369790221d035757fe9f6fa3ab",
      "assetIds": [
        "41506478881403507969696680653240014914910929820314476107906210059990541021184"
      ]
    },
    {
      "x": 344,
      "y": 254,
      "size": 1,
      "price": "4683000000000000000000",
      "reserved": "",
      "salt": "0x7c387e375f4535312449a4291cc5c030604436a4cd4d39854690e97252892a92",
      "assetIds": [
        "41506478881403507969696680653240014914910929820314476107906210059990541021186"
      ]
    },
    {
      "x": 344,
      "y": 255,
      "size": 1,
      "price": "4683000000000000000000",
      "reserved": "",
      "salt": "0x41d30cc4945e9fb35ec1df5a85a4452b6bffeceb685ddab4404656a41307eb56",
      "assetIds": [
        "41506478881403507969696680653240014914910929820314476107906210059990541021185"
      ]
    },
    {
      "x": 344,
      "y": 256,
      "size": 1,
      "price": "4683000000000000000000",
      "reserved": "",
      "salt": "0x0747576cb7cc071882a08c426035aaf331c8ca4a9202f87b6e99b7efaa91de73",
      "assetIds": [
        "41506478881403507969696680653240014914910929820314476107906210059990541021189"
      ]
    },
    {
      "x": 344,
      "y": 257,
      "size": 1,
      "price": "4683000000000000000000",
      "reserved": "",
      "salt": "0xea4cbb4541a812b7797230005717d9fc940fa0eb1f2394e3a0516763e8a3c466",
      "assetIds": [
        "41506478881403507969696680653240014914910929820314476107906210059990541021188"
      ]
    },
    {
      "x": 344,
      "y": 294,
      "size": 1,
      "price": "4683000000000000000000",
      "reserved": "",
      "salt": "0xf719fe7c035701db3921162b2aee75d041d63a3ae8a82cb0581696810677ae12",
      "assetIds": [
        "41506478881403507969696680653240014914910929820314476107906210059990541021186"
      ]
    },
    {
      "x": 344,
      "y": 295,
      "size": 1,
      "price": "4683000000000000000000",
      "reserved": "",
      "salt": "0xca50c6320d4cad4e3e8d017a92c807e7bde643c9f6796599d77283465c479a72",
      "assetIds": [
        "41506478881403507969696680653240014914910929820314476107906210059990541021189"
      ]
    },
    {
      "x": 344,
      "y": 296,
      "size": 1,
      "price": "4683000000000000000000",
      "reserved": "",
      "salt": "0x7194b95908771c04f1bf8220468a5f2164937f85ea997a780c94d701e2115941",
      "assetIds": [
        "41506478881403507969696680653240014914910929820314476107906210059990541021189"
      ]
    },
    {
      "x": 344,
      "y": 297,
      "size": 1,
      "price": "4683000000000000000000",
      "reserved": "",
      "salt": "0x15b0f31ba8bde1437e73acc624712b89bc569111c620e87258353ce0f4c8e71f",
      "assetIds": [
        "41506478881403507969696680653240014914910929820314476107906210059990541021187"
      ]
    },
    {
      "x": 344,
      "y": 298,
      "size": 1,
      "price": "4683000000000000000000",
      "reserved": "",
      "salt": "0x7058cc3c737b6a4de0ed1031f92dd8b5ea8f97b463acaf8bff395792ed27a4da",
      "assetIds": [
        "41506478881403507969696680653240014914910929820314476107906210059990532622336"
      ]
    },
    {
      "x": 344,
      "y": 299,
      "size": 1,
      "price": "4683000000000000000000",
      "reserved": "",
      "salt": "0x0f18db268c9fe39415d1a82720d886d76c90398215608d346b9e028ce37586dc",
      "assetIds": [
        "41506478881403507969696680653240014914910929820314476107906210059990541021188"
      ]
    },
    {
      "x": 345,
      "y": 240,
      "size": 1,
      "price": "4683000000000000000000",
      "reserved": "",
      "salt": "0x8c528e4f472ee51a3e1c16ed884c78c317885756a9b083581c86fe690b716d1e",
      "assetIds": [
        "41506478881403507969696680653240014914910929820314476107906210059990541021184"
      ]
    },
    {
      "x": 345,
      "y": 241,
      "size": 1,
      "price": "4683000000000000000000",
      "reserved": "",
      "salt": "0x420c1f074b249196a7c37fb32652c06b2d822487e2820c3f3223cddaf2767777",
      "assetIds": [
        "41506478881403507969696680653240014914910929820314476107906210059990541021189"
      ]
    },
    {
      "x": 345,
      "y": 242,
      "size": 1,
      "price": "4683000000000000000000",
      "reserved": "",
      "salt": "0xdac6d2704c8898f1fc49992f0aa874b2b68510f63c3f2e194a16872be9923f6e",
      "assetIds": [
        "41506478881403507969696680653240014914910929820314476107906210059990541021187"
      ]
    },
    {
      "x": 345,
      "y": 243,
      "size": 1,
      "price": "4683000000000000000000",
      "reserved": "",
      "salt": "0xb94e26d33a97a441808d87066b3227432687dd9b624b531b1e5827fe600ac26a",
      "assetIds": [
        "41506478881403507969696680653240014914910929820314476107906210059990532622336"
      ]
    },
    {
      "x": 345,
      "y": 244,
      "size": 1,
      "price": "1011000000000000000000",
      "reserved": "0x7a9fe22691c811ea339d9b73150e6911a5343dca",
      "salt": "0x33e78dc002ca7b421bb24e32e5dee8d575be4d03903d1c77664392e146690b86",
      "assetIds": []
    },
    {
      "x": 345,
      "y": 245,
      "size": 1,
      "price": "4683000000000000000000",
      "reserved": "",
      "salt": "0x07036f7a7f660d1911db0a0192079831d02e267042d651d108c9f299b5fd9adc",
      "assetIds": [
        "41506478881403507969696680653240014914910929820314476107906210059990541021184"
      ]
    },
    {
      "x": 345,
      "y": 246,
      "size": 1,
      "price": "4683000000000000000000",
      "reserved": "",
      "salt": "0xaa3f82e976a2c1daa78b7e9c7c5c8be14dab5bc9fd4350ded8e602728d44a268",
      "assetIds": [
        "41506478881403507969696680653240014914910929820314476107906210059990541021188"
      ]
    },
    {
      "x": 345,
      "y": 247,
      "size": 1,
      "price": "4683000000000000000000",
      "reserved": "",
      "salt": "0x9ab1e4b0b90d3d37124d74c462bf86f9248cca0550bcd7efb6d26bbf7b9e519d",
      "assetIds": [
        "41506478881403507969696680653240014914910929820314476107906210059990532622336"
      ]
    },
    {
      "x": 345,
      "y": 248,
      "size": 1,
      "price": "4683000000000000000000",
      "reserved": "",
      "salt": "0xcfe06c1cf5680d8d6d314f01396daea619a66b619d7a8dedfc8d5d3ae8993800",
      "assetIds": [
        "41506478881403507969696680653240014914910929820314476107906210059990532622336"
      ]
    },
    {
      "x": 345,
      "y": 249,
      "size": 1,
      "price": "4683000000000000000000",
      "reserved": "",
      "salt": "0xcc951e0ee114398c9cc25f4be7cab6b65e36f59409368711b9abf40b4fd818c2",
      "assetIds": [
        "41506478881403507969696680653240014914910929820314476107906210059990541021187"
      ]
    },
    {
      "x": 345,
      "y": 250,
      "size": 1,
      "price": "4683000000000000000000",
      "reserved": "",
      "salt": "0xda3628cc1e250cf449dcde114eb604199fffdbc1b1fccfeba2e9bedf003a2ea1",
      "assetIds": [
        "41506478881403507969696680653240014914910929820314476107906210059990541021189"
      ]
    },
    {
      "x": 345,
      "y": 251,
      "size": 1,
      "price": "1011000000000000000000",
      "reserved": "0x7a9fe22691c811ea339d9b73150e6911a5343dca",
      "salt": "0x324e26d8e5f28ab2a225bfbe884587746ab2166e3e98dee9583369885058689f",
      "assetIds": []
    },
    {
      "x": 345,
      "y": 252,
      "size": 1,
      "price": "4683000000000000000000",
      "reserved": "",
      "salt": "0x173c96726aa85d8ba61c8e544c88c439ffbffc7350364ab15446a97bafda666f",
      "assetIds": [
        "41506478881403507969696680653240014914910929820314476107906210059990532622336"
      ]
    },
    {
      "x": 345,
      "y": 253,
      "size": 1,
      "price": "4683000000000000000000",
      "reserved": "",
      "salt": "0x32e6b51cf26fbf5701787f757d19823efb6aac85142fdab003587dcbd3ff5815",
      "assetIds": [
        "41506478881403507969696680653240014914910929820314476107906210059990541021186"
      ]
    },
    {
      "x": 345,
      "y": 254,
      "size": 1,
      "price": "4683000000000000000000",
      "reserved": "",
      "salt": "0xafecc3d16e49f07a96f8e1d3ae2dc89fe392d3cda104b6f7c99e80897c35360e",
      "assetIds": [
        "41506478881403507969696680653240014914910929820314476107906210059990541021185"
      ]
    },
    {
      "x": 345,
      "y": 255,
      "size": 1,
      "price": "4683000000000000000000",
      "reserved": "",
      "salt": "0xb01935b287852279da23c5af9942c7f484ac6d31f9dd09091e79b9cd3616beb0",
      "assetIds": [
        "41506478881403507969696680653240014914910929820314476107906210059990541021187"
      ]
    },
    {
      "x": 345,
      "y": 256,
      "size": 1,
      "price": "4683000000000000000000",
      "reserved": "",
      "salt": "0x13302d2994f6dcdcbca8a8fdbd899f12c7cb428eb9b60729ad3199d07ad104ad",
      "assetIds": [
        "41506478881403507969696680653240014914910929820314476107906210059990541021189"
      ]
    },
    {
      "x": 345,
      "y": 257,
      "size": 1,
      "price": "4683000000000000000000",
      "reserved": "",
      "salt": "0x1110078ad8660e42e426ff202cd0f8be2bca3b8836aaa98b91e81d835ba4c682",
      "assetIds": [
        "41506478881403507969696680653240014914910929820314476107906210059990541021187"
      ]
    },
    {
      "x": 345,
      "y": 297,
      "size": 1,
      "price": "4683000000000000000000",
      "reserved": "",
      "salt": "0xaae31ee9f6fd6f25361586cc6046459e049b63ba0dacd280b2c3dc106f49144e",
      "assetIds": [
        "41506478881403507969696680653240014914910929820314476107906210059990541021187"
      ]
    },
    {
      "x": 345,
      "y": 298,
      "size": 1,
      "price": "4683000000000000000000",
      "reserved": "",
      "salt": "0x5fde77cb47ac5165aa5f82e673e466e16b724f9889d53143ff0a8552a3cdc236",
      "assetIds": [
        "41506478881403507969696680653240014914910929820314476107906210059990541021185"
      ]
    },
    {
      "x": 345,
      "y": 299,
      "size": 1,
      "price": "4683000000000000000000",
      "reserved": "",
      "salt": "0xf10dc5734a2af0db7ae5d83142c5699399430428ef0091831366d57c705ce692",
      "assetIds": [
        "41506478881403507969696680653240014914910929820314476107906210059990541021188"
      ]
    },
    {
      "x": 345,
      "y": 303,
      "size": 1,
      "price": "4683000000000000000000",
      "reserved": "",
      "salt": "0x9f89b244fe28e5207f3ea441cf6498798668289e477fc1a3c2a57ae210aefa33",
      "assetIds": [
        "41506478881403507969696680653240014914910929820314476107906210059990541021184"
      ]
    },
    {
      "x": 345,
      "y": 304,
      "size": 1,
      "price": "4683000000000000000000",
      "reserved": "",
      "salt": "0x82129d949ca4530660e47e4f08fd8496e8ff8c3ecd531c1b9bef86b8dce07562",
      "assetIds": [
        "41506478881403507969696680653240014914910929820314476107906210059990541021189"
      ]
    },
    {
      "x": 345,
      "y": 305,
      "size": 1,
      "price": "4683000000000000000000",
      "reserved": "",
      "salt": "0xac39628d33117fa8a04d46a5a0685f5590728467a23874dc39427029815374ce",
      "assetIds": [
        "41506478881403507969696680653240014914910929820314476107906210059990541021189"
      ]
    },
    {
      "x": 346,
      "y": 240,
      "size": 1,
      "price": "4683000000000000000000",
      "reserved": "",
      "salt": "0x6ac16acc11b15cea1047829b01cb9760b7669763b990996f69bdd0790639e750",
      "assetIds": [
        "41506478881403507969696680653240014914910929820314476107906210059990541021186"
      ]
    },
    {
      "x": 346,
      "y": 241,
      "size": 1,
      "price": "4683000000000000000000",
      "reserved": "",
      "salt": "0x26cf043b0bb03b3f37395f4c3778b4fa912ea5355e2b94a40e5bb960080fa859",
      "assetIds": [
        "41506478881403507969696680653240014914910929820314476107906210059990532622336"
      ]
    },
    {
      "x": 346,
      "y": 242,
      "size": 1,
      "price": "4683000000000000000000",
      "reserved": "",
      "salt": "0xdf7eb6a261613ce31742106488b5fa0bff282d7028547561c84fcfecd1051a6c",
      "assetIds": [
        "41506478881403507969696680653240014914910929820314476107906210059990541021188"
      ]
    },
    {
      "x": 346,
      "y": 243,
      "size": 1,
      "price": "4683000000000000000000",
      "reserved": "",
      "salt": "0x7c137ec4776529e096b875f6b276a0b9fab8367a3a6e6d202ceda66b0070903a",
      "assetIds": [
        "41506478881403507969696680653240014914910929820314476107906210059990541021185"
      ]
    },
    {
      "x": 346,
      "y": 244,
      "size": 1,
      "price": "4683000000000000000000",
      "reserved": "",
      "salt": "0x67b668bc974479129a64b236a58da1bf006c58759aeec22d5c66bf267985aecc",
      "assetIds": [
        "41506478881403507969696680653240014914910929820314476107906210059990541021184"
      ]
    },
    {
      "x": 346,
      "y": 245,
      "size": 1,
      "price": "4683000000000000000000",
      "reserved": "",
      "salt": "0x3db259a8cee033d6a51412df71a97cd7339e759719d6d4161dcee1af21499a31",
      "assetIds": [
        "41506478881403507969696680653240014914910929820314476107906210059990541021184"
      ]
    },
    {
      "x": 346,
      "y": 246,
      "size": 1,
      "price": "4683000000000000000000",
      "reserved": "",
      "salt": "0x1e7872140de185c84ee4ed63803f0a6f13902eda5a9277298b72d1e8f8deaf81",
      "assetIds": [
        "41506478881403507969696680653240014914910929820314476107906210059990541021184"
      ]
    },
    {
      "x": 346,
      "y": 247,
      "size": 1,
      "price": "4683000000000000000000",
      "reserved": "",
      "salt": "0x06bcc5829287226d31bfbb8c22d68ac3d358790c6d98909d619d0249050aa1a5",
      "assetIds": [
        "41506478881403507969696680653240014914910929820314476107906210059990541021185"
      ]
    },
    {
      "x": 346,
      "y": 248,
      "size": 1,
      "price": "4683000000000000000000",
      "reserved": "",
      "salt": "0xf2ae9c8ae882732ccb39bdd305b64e802879b742c8bdb8b3282dffbc70e67e1e",
      "assetIds": [
        "41506478881403507969696680653240014914910929820314476107906210059990541021189"
      ]
    },
    {
      "x": 346,
      "y": 249,
      "size": 1,
      "price": "4683000000000000000000",
      "reserved": "",
      "salt": "0x9f01b557157356e63b3da67dbe85d0457f2f70df5f5eaa195ca5b3a8ed192577",
      "assetIds": [
        "41506478881403507969696680653240014914910929820314476107906210059990541021184"
      ]
    },
    {
      "x": 346,
      "y": 250,
      "size": 1,
      "price": "4683000000000000000000",
      "reserved": "",
      "salt": "0xc3ba577bbf468245d6de9e1f8ae9df6ba88ab436b342f0d6995b10df4e093c10",
      "assetIds": [
        "41506478881403507969696680653240014914910929820314476107906210059990541021189"
      ]
    },
    {
      "x": 346,
      "y": 251,
      "size": 1,
      "price": "4683000000000000000000",
      "reserved": "",
      "salt": "0x1e7444730de5ff171c41a46388a67161ef3bc786ab6c974d236b415df492314e",
      "assetIds": [
        "41506478881403507969696680653240014914910929820314476107906210059990541021187"
      ]
    },
    {
      "x": 346,
      "y": 252,
      "size": 1,
      "price": "4683000000000000000000",
      "reserved": "",
      "salt": "0x73b6b82a6b1682e1bd3974fc6dcc9b8cfb8bc13da01c2f5a7d543137f1b6aca3",
      "assetIds": [
        "41506478881403507969696680653240014914910929820314476107906210059990541021186"
      ]
    },
    {
      "x": 346,
      "y": 253,
      "size": 1,
      "price": "4683000000000000000000",
      "reserved": "",
      "salt": "0x7d8121ab5c9311ba7debcc548790f24a58f4aef280bf5987b7ca25a26eae11e2",
      "assetIds": [
        "41506478881403507969696680653240014914910929820314476107906210059990541021185"
      ]
    },
    {
      "x": 346,
      "y": 254,
      "size": 1,
      "price": "4683000000000000000000",
      "reserved": "",
      "salt": "0xa6beb680c68e69a181822f2fcda9717d270885c13b200daffb8edfee0136d707",
      "assetIds": [
        "41506478881403507969696680653240014914910929820314476107906210059990532622336"
      ]
    },
    {
      "x": 346,
      "y": 255,
      "size": 1,
      "price": "4683000000000000000000",
      "reserved": "",
      "salt": "0xee96ea5afec47434013fb7253f2f399f8db5a07bfd3d25baab5a02eb7cafaf1e",
      "assetIds": [
        "41506478881403507969696680653240014914910929820314476107906210059990532622336"
      ]
    },
    {
      "x": 346,
      "y": 256,
      "size": 1,
      "price": "4683000000000000000000",
      "reserved": "",
      "salt": "0xc261ac83ff0560b04a7500399d21ed3e10a6983ded742473c61f2ffcf3928cd4",
      "assetIds": [
        "41506478881403507969696680653240014914910929820314476107906210059990541021186"
      ]
    },
    {
      "x": 346,
      "y": 257,
      "size": 1,
      "price": "4683000000000000000000",
      "reserved": "",
      "salt": "0x11e835b94a2492ae9c808daac9cde5cf3954216d354978a3d618362f0bed9654",
      "assetIds": [
        "41506478881403507969696680653240014914910929820314476107906210059990541021188"
      ]
    },
    {
      "x": 346,
      "y": 297,
      "size": 1,
      "price": "4683000000000000000000",
      "reserved": "",
      "salt": "0x900de4cd25e3f4f1a8dee2105c754187aa7e9bf3b0ee320b15a302a36cacf2e8",
      "assetIds": [
        "41506478881403507969696680653240014914910929820314476107906210059990541021189"
      ]
    },
    {
      "x": 346,
      "y": 298,
      "size": 1,
      "price": "4683000000000000000000",
      "reserved": "",
      "salt": "0xa184ea18ae987c10533bea371cc8319383bf87505a90c7a0dea3a0fe11fe1f6f",
      "assetIds": [
        "41506478881403507969696680653240014914910929820314476107906210059990541021187"
      ]
    },
    {
      "x": 346,
      "y": 299,
      "size": 1,
      "price": "4683000000000000000000",
      "reserved": "",
      "salt": "0xbdbc639ec61001daf067031180581313bc21ba8ce125b7e7a5eda7d63f0b3cf1",
      "assetIds": [
        "41506478881403507969696680653240014914910929820314476107906210059990541021184"
      ]
    },
    {
      "x": 346,
      "y": 303,
      "size": 1,
      "price": "4683000000000000000000",
      "reserved": "",
      "salt": "0x6d7c401780ee49d7885969e70786b12e6797d3c0072d5a05d8dda5893da561dd",
      "assetIds": [
        "41506478881403507969696680653240014914910929820314476107906210059990541021187"
      ]
    },
    {
      "x": 346,
      "y": 304,
      "size": 1,
      "price": "4683000000000000000000",
      "reserved": "",
      "salt": "0x579df0f083fc0930d76453a963ce41247543bef700bd98c6d595f68329138441",
      "assetIds": [
        "41506478881403507969696680653240014914910929820314476107906210059990541021186"
      ]
    },
    {
      "x": 346,
      "y": 305,
      "size": 1,
      "price": "4683000000000000000000",
      "reserved": "",
      "salt": "0x0c3f2a9a2db43cf218737beb17c3ca4843842192ad047f7d52e2ec1ccfeeb8c1",
      "assetIds": [
        "41506478881403507969696680653240014914910929820314476107906210059990532622336"
      ]
    },
    {
      "x": 347,
      "y": 240,
      "size": 1,
      "price": "4683000000000000000000",
      "reserved": "",
      "salt": "0x8ff08c6fc3ad158a1354405684e75c7fd77bcb1901053feb092f7257a2692673",
      "assetIds": [
        "41506478881403507969696680653240014914910929820314476107906210059990541021184"
      ]
    },
    {
      "x": 347,
      "y": 241,
      "size": 1,
      "price": "4683000000000000000000",
      "reserved": "",
      "salt": "0x8d0d916b74be4ace0d8d3a6fc760600b5b24cdbe705c9e7db02adefd7e9d9b20",
      "assetIds": [
        "41506478881403507969696680653240014914910929820314476107906210059990541021185"
      ]
    },
    {
      "x": 347,
      "y": 242,
      "size": 1,
      "price": "4683000000000000000000",
      "reserved": "",
      "salt": "0x394138a8ae42b06bf0294e3e2881d12791f6da47150a48a7ced427834ddf3440",
      "assetIds": [
        "41506478881403507969696680653240014914910929820314476107906210059990541021184"
      ]
    },
    {
      "x": 347,
      "y": 243,
      "size": 1,
      "price": "4683000000000000000000",
      "reserved": "",
      "salt": "0x450f037fd44eb93b1fcc83e30c455a2efaa9dd58e60583cab611dd64820b16af",
      "assetIds": [
        "41506478881403507969696680653240014914910929820314476107906210059990532622336"
      ]
    },
    {
      "x": 347,
      "y": 244,
      "size": 1,
      "price": "4683000000000000000000",
      "reserved": "",
      "salt": "0x46ac35112b882d4136e68b40aff4a09f5167987fc56b38c67d49e75fe30e1817",
      "assetIds": [
        "41506478881403507969696680653240014914910929820314476107906210059990541021185"
      ]
    },
    {
      "x": 347,
      "y": 245,
      "size": 1,
      "price": "4683000000000000000000",
      "reserved": "",
      "salt": "0x6eb0ec0464bba42afee09fc9ae080b01f00fe281fe77ca689fd555a505f1aa46",
      "assetIds": [
        "41506478881403507969696680653240014914910929820314476107906210059990541021185"
      ]
    },
    {
      "x": 347,
      "y": 246,
      "size": 1,
      "price": "4683000000000000000000",
      "reserved": "",
      "salt": "0x07e7fecb40770bc2efd6de2554f946644f11a14d16cd5fe3b08f3384a9e41e51",
      "assetIds": [
        "41506478881403507969696680653240014914910929820314476107906210059990541021188"
      ]
    },
    {
      "x": 347,
      "y": 247,
      "size": 1,
      "price": "4683000000000000000000",
      "reserved": "",
      "salt": "0xbfa9bffbde5671bb289c3a8fe6ff22b5a643baf2e0ab189a194392b52c56ac66",
      "assetIds": [
        "41506478881403507969696680653240014914910929820314476107906210059990541021189"
      ]
    },
    {
      "x": 347,
      "y": 248,
      "size": 1,
      "price": "4683000000000000000000",
      "reserved": "",
      "salt": "0x631d5b8370dfb4cf6166b412b0bec6a2e80c2cc02238440ec34d802a78911548",
      "assetIds": [
        "41506478881403507969696680653240014914910929820314476107906210059990541021186"
      ]
    },
    {
      "x": 347,
      "y": 249,
      "size": 1,
      "price": "4683000000000000000000",
      "reserved": "",
      "salt": "0x01223019e10cd215a74a77c019169247ba8fdcecf0632dbfa4b381f0ea00765d",
      "assetIds": [
        "41506478881403507969696680653240014914910929820314476107906210059990541021184"
      ]
    },
    {
      "x": 347,
      "y": 250,
      "size": 1,
      "price": "4683000000000000000000",
      "reserved": "",
      "salt": "0x955b1d69df081c649e89b5bbc2a009c97053fbe4427a5071b9c1aaeebe3bd422",
      "assetIds": [
        "41506478881403507969696680653240014914910929820314476107906210059990541021188"
      ]
    },
    {
      "x": 347,
      "y": 251,
      "size": 1,
      "price": "4683000000000000000000",
      "reserved": "",
      "salt": "0x650a39dd0296b28b992cd5f88df360a445d3fc0772aedd1191a8c95cda376a70",
      "assetIds": [
        "41506478881403507969696680653240014914910929820314476107906210059990541021186"
      ]
    },
    {
      "x": 347,
      "y": 252,
      "size": 1,
      "price": "4683000000000000000000",
      "reserved": "",
      "salt": "0xce89bde733f287c6d8f77c0e35be24ecd8105c67749e1a290e919f7513425cd3",
      "assetIds": [
        "41506478881403507969696680653240014914910929820314476107906210059990541021185"
      ]
    },
    {
      "x": 347,
      "y": 253,
      "size": 1,
      "price": "4683000000000000000000",
      "reserved": "",
      "salt": "0x07e140dd0c39ff0e6193597dc4001cf349b7f52b2ac91660735c6c9d22bfde0a",
      "assetIds": [
        "41506478881403507969696680653240014914910929820314476107906210059990541021187"
      ]
    },
    {
      "x": 347,
      "y": 254,
      "size": 1,
      "price": "4683000000000000000000",
      "reserved": "",
      "salt": "0xa3544c5abe6f3b8712a544beab17314719e3d3b58142291fd94825001075d1dd",
      "assetIds": [
        "41506478881403507969696680653240014914910929820314476107906210059990541021188"
      ]
    },
    {
      "x": 347,
      "y": 255,
      "size": 1,
      "price": "4683000000000000000000",
      "reserved": "",
      "salt": "0x86face8ddc29b17a815a637976ebb09b5fb8677ca198e7724241bfe4ea939e98",
      "assetIds": [
        "41506478881403507969696680653240014914910929820314476107906210059990541021187"
      ]
    },
    {
      "x": 347,
      "y": 256,
      "size": 1,
      "price": "4683000000000000000000",
      "reserved": "",
      "salt": "0x66d02a316a62893b50e1b6f861a6047a44be53f86b48843118289ed6a94cd38b",
      "assetIds": [
        "41506478881403507969696680653240014914910929820314476107906210059990541021185"
      ]
    },
    {
      "x": 347,
      "y": 257,
      "size": 1,
      "price": "4683000000000000000000",
      "reserved": "",
      "salt": "0x08164c53858b3668b159ce8639be22452c5920f9ec0b72486c15678d3fff95f0",
      "assetIds": [
        "41506478881403507969696680653240014914910929820314476107906210059990541021187"
      ]
    },
    {
      "x": 347,
      "y": 297,
      "size": 1,
      "price": "4683000000000000000000",
      "reserved": "",
      "salt": "0x7507e09b3a3660fe05f5554b1c17e71662b9920837107e915f6a8b69e4f5f2a7",
      "assetIds": [
        "41506478881403507969696680653240014914910929820314476107906210059990541021186"
      ]
    },
    {
      "x": 347,
      "y": 298,
      "size": 1,
      "price": "4683000000000000000000",
      "reserved": "",
      "salt": "0x8c59a5d28a7bdb1f917725023c783b84aa917af648c27fd5f35810453d5aaa53",
      "assetIds": [
        "41506478881403507969696680653240014914910929820314476107906210059990532622336"
      ]
    },
    {
      "x": 347,
      "y": 299,
      "size": 1,
      "price": "4683000000000000000000",
      "reserved": "",
      "salt": "0x164e90615c7eefde9a01154b9abe660517745dc957734f09d906d8846c262fd0",
      "assetIds": [
        "41506478881403507969696680653240014914910929820314476107906210059990541021189"
      ]
    },
    {
      "x": 347,
      "y": 303,
      "size": 1,
      "price": "4683000000000000000000",
      "reserved": "",
      "salt": "0xcaa4ef4447aeabd3f537bfee2dd65e5367337389c70e6b51176fdeb2769186ce",
      "assetIds": [
        "41506478881403507969696680653240014914910929820314476107906210059990541021186"
      ]
    },
    {
      "x": 347,
      "y": 304,
      "size": 1,
      "price": "4683000000000000000000",
      "reserved": "",
      "salt": "0x4ecc1c8e8e1af8774129202a24794150586767cadc2b0a1a82306bf402034581",
      "assetIds": [
        "41506478881403507969696680653240014914910929820314476107906210059990541021185"
      ]
    },
    {
      "x": 347,
      "y": 305,
      "size": 1,
      "price": "4683000000000000000000",
      "reserved": "",
      "salt": "0xcda2bb5f86c49203e4a4fa86fc8ddc321562d4558018066f6a7d08478c551211",
      "assetIds": [
        "41506478881403507969696680653240014914910929820314476107906210059990541021185"
      ]
    },
    {
      "x": 348,
      "y": 255,
      "size": 1,
      "price": "4683000000000000000000",
      "reserved": "",
      "salt": "0x5d2935c1d72edada882a294b64df38cbff11253701df16139d0e4492d402c03a",
      "assetIds": [
        "41506478881403507969696680653240014914910929820314476107906210059990541021186"
      ]
    },
    {
      "x": 348,
      "y": 256,
      "size": 1,
      "price": "4683000000000000000000",
      "reserved": "",
      "salt": "0xed9481d42b95cd135b548f73155315c033fdca37798662b66070455c53c0a248",
      "assetIds": [
        "41506478881403507969696680653240014914910929820314476107906210059990541021184"
      ]
    },
    {
      "x": 348,
      "y": 257,
      "size": 1,
      "price": "4683000000000000000000",
      "reserved": "",
      "salt": "0x91bf4c701f9b2d870e957da72032bb795b7521e419de9b3d8537eac1c7beef3e",
      "assetIds": [
        "41506478881403507969696680653240014914910929820314476107906210059990541021185"
      ]
    },
    {
      "x": 348,
      "y": 258,
      "size": 1,
      "price": "4683000000000000000000",
      "reserved": "",
      "salt": "0x4cc45da343e6ecf48c90c666607a0fabdef2e28096c2df9beb5a8e4cf0359c8d",
      "assetIds": [
        "41506478881403507969696680653240014914910929820314476107906210059990532622336"
      ]
    },
    {
      "x": 348,
      "y": 259,
      "size": 1,
      "price": "4683000000000000000000",
      "reserved": "",
      "salt": "0x7e445ba08276e24f42c2efce2bf314451f974497cf8259c5a2ec744e807b00b4",
      "assetIds": [
        "41506478881403507969696680653240014914910929820314476107906210059990541021184"
      ]
    },
    {
      "x": 348,
      "y": 260,
      "size": 1,
      "price": "4683000000000000000000",
      "reserved": "",
      "salt": "0xb68809bcee4a965303840e522a60f00b4bb9be270c642bd39cbbe9e20fe9bcb3",
      "assetIds": [
        "41506478881403507969696680653240014914910929820314476107906210059990532622336"
      ]
    },
    {
      "x": 348,
      "y": 261,
      "size": 1,
      "price": "4683000000000000000000",
      "reserved": "",
      "salt": "0xb0713c53b7726b63c4904678ff1f6a54b3ded9b1c24473012672f43a501d747d",
      "assetIds": [
        "41506478881403507969696680653240014914910929820314476107906210059990532622336"
      ]
    },
    {
      "x": 348,
      "y": 262,
      "size": 1,
      "price": "4683000000000000000000",
      "reserved": "",
      "salt": "0x9920a4bafbdff82b7618976e3a395449d8d668d57b5cf8f9c21b09d87d56fa44",
      "assetIds": [
        "41506478881403507969696680653240014914910929820314476107906210059990541021187"
      ]
    },
    {
      "x": 348,
      "y": 263,
      "size": 1,
      "price": "4683000000000000000000",
      "reserved": "",
      "salt": "0xd79a1e17094cd8e4b478dd47e191bf9f78eddb2ea30f202f8ea3630a7bda454b",
      "assetIds": [
        "41506478881403507969696680653240014914910929820314476107906210059990541021187"
      ]
    },
    {
      "x": 348,
      "y": 300,
      "size": 1,
      "price": "4683000000000000000000",
      "reserved": "",
      "salt": "0x261f1acc68a989a0b4d6961a77304450b9b01a521774bc235f3df70e1d202b7c",
      "assetIds": [
        "41506478881403507969696680653240014914910929820314476107906210059990541021186"
      ]
    },
    {
      "x": 348,
      "y": 301,
      "size": 1,
      "price": "4683000000000000000000",
      "reserved": "",
      "salt": "0xa7682e2ce1ea437443f7d614f2a3b787575efe737126c9367e21ecaa58fecab4",
      "assetIds": [
        "41506478881403507969696680653240014914910929820314476107906210059990541021188"
      ]
    },
    {
      "x": 348,
      "y": 302,
      "size": 1,
      "price": "4683000000000000000000",
      "reserved": "",
      "salt": "0xe60d3aa34127be92bd71f46cdc3c52f6dee6907826b23f3ab1226d95aaae8302",
      "assetIds": [
        "41506478881403507969696680653240014914910929820314476107906210059990541021184"
      ]
    },
    {
      "x": 348,
      "y": 303,
      "size": 1,
      "price": "4683000000000000000000",
      "reserved": "",
      "salt": "0x44fdc92635453d18f9d72538ba627f393f12677bf71c1a407ae58db63d338eeb",
      "assetIds": [
        "41506478881403507969696680653240014914910929820314476107906210059990541021188"
      ]
    },
    {
      "x": 348,
      "y": 304,
      "size": 1,
      "price": "4683000000000000000000",
      "reserved": "",
      "salt": "0x7e927d6f1adf44a061af94650c587d87ef5930fa28946ee0b7691907d067b7ae",
      "assetIds": [
        "41506478881403507969696680653240014914910929820314476107906210059990532622336"
      ]
    },
    {
      "x": 348,
      "y": 305,
      "size": 1,
      "price": "4683000000000000000000",
      "reserved": "",
      "salt": "0xd5233912eecd280420d93e9d3e842d09ee7310efbf57ab4d51e9c0ba7cdddd86",
      "assetIds": [
        "41506478881403507969696680653240014914910929820314476107906210059990541021186"
      ]
    },
    {
      "x": 349,
      "y": 255,
      "size": 1,
      "price": "4683000000000000000000",
      "reserved": "",
      "salt": "0xc7ec711ac22946383538b3aa31a2d6295ab405a6e1c4f81292e0e3adb604e9cf",
      "assetIds": [
        "41506478881403507969696680653240014914910929820314476107906210059990532622336"
      ]
    },
    {
      "x": 349,
      "y": 256,
      "size": 1,
      "price": "4683000000000000000000",
      "reserved": "",
      "salt": "0xc948088030dd0a592e0c443bad0491d494db11be2d9e41022f4a845c38a489ab",
      "assetIds": [
        "41506478881403507969696680653240014914910929820314476107906210059990541021188"
      ]
    },
    {
      "x": 349,
      "y": 257,
      "size": 1,
      "price": "4683000000000000000000",
      "reserved": "",
      "salt": "0x8cba25fcf95b7f95d1c9a15382b1773d20682f697b5890f6a161de611e32b56b",
      "assetIds": [
        "41506478881403507969696680653240014914910929820314476107906210059990541021184"
      ]
    },
    {
      "x": 349,
      "y": 258,
      "size": 1,
      "price": "4683000000000000000000",
      "reserved": "",
      "salt": "0x58cb6a59eacd3bc33589e2803036dbe28af4813d4afdeef198a2962964055c3a",
      "assetIds": [
        "41506478881403507969696680653240014914910929820314476107906210059990541021186"
      ]
    },
    {
      "x": 349,
      "y": 259,
      "size": 1,
      "price": "4683000000000000000000",
      "reserved": "",
      "salt": "0x97a89e0d4e5f8e28289bd46249788c7f6361f36c0b410d6fa11e785a0cee9bf4",
      "assetIds": [
        "41506478881403507969696680653240014914910929820314476107906210059990541021188"
      ]
    },
    {
      "x": 349,
      "y": 260,
      "size": 1,
      "price": "4683000000000000000000",
      "reserved": "",
      "salt": "0x9aae090f0fc6a5c6172865c97dba4930e2886eafad1664837b18c1125272f009",
      "assetIds": [
        "41506478881403507969696680653240014914910929820314476107906210059990532622336"
      ]
    },
    {
      "x": 349,
      "y": 261,
      "size": 1,
      "price": "4683000000000000000000",
      "reserved": "",
      "salt": "0xce3173700c502278e99799faab8ed2b9caab0303565c516a2789b402f54b6f79",
      "assetIds": [
        "41506478881403507969696680653240014914910929820314476107906210059990541021186"
      ]
    },
    {
      "x": 349,
      "y": 262,
      "size": 1,
      "price": "4683000000000000000000",
      "reserved": "",
      "salt": "0x04c0021009fcaa5859394141508d980bffb63efbb40066f18b47e9e297bc5fe4",
      "assetIds": [
        "41506478881403507969696680653240014914910929820314476107906210059990541021189"
      ]
    },
    {
      "x": 349,
      "y": 263,
      "size": 1,
      "price": "4683000000000000000000",
      "reserved": "",
      "salt": "0xce29f5eaaa32024636911e26dc2b5d58c377f13a35ef4a181a7b13acff045855",
      "assetIds": [
        "41506478881403507969696680653240014914910929820314476107906210059990541021189"
      ]
    },
    {
      "x": 349,
      "y": 300,
      "size": 1,
      "price": "4683000000000000000000",
      "reserved": "",
      "salt": "0xc4fac75e27cd7e9ef758b271857524d1484341aa716ce6477a7eed850ec8cff0",
      "assetIds": [
        "41506478881403507969696680653240014914910929820314476107906210059990532622336"
      ]
    },
    {
      "x": 349,
      "y": 301,
      "size": 1,
      "price": "4683000000000000000000",
      "reserved": "",
      "salt": "0xa98c388700b126dcdaabe6a72ba374ca074e1cc021c7873f48cb375052a943e8",
      "assetIds": [
        "41506478881403507969696680653240014914910929820314476107906210059990541021186"
      ]
    },
    {
      "x": 349,
      "y": 302,
      "size": 1,
      "price": "4683000000000000000000",
      "reserved": "",
      "salt": "0x2a0d04f049722502155de9315c43161edce36d937dcb06a9519d4e95a759529a",
      "assetIds": [
        "41506478881403507969696680653240014914910929820314476107906210059990541021184"
      ]
    },
    {
      "x": 349,
      "y": 303,
      "size": 1,
      "price": "1011000000000000000000",
      "reserved": "0x7a9fe22691c811ea339d9b73150e6911a5343dca",
      "salt": "0x393ac2e3a5de1436da614bbd4836b4f37f22547a26b059440a13be773634ffb4",
      "assetIds": []
    },
    {
      "x": 349,
      "y": 304,
      "size": 1,
      "price": "4683000000000000000000",
      "reserved": "",
      "salt": "0x8f8765fedbb1dae89e964a634e5fab2918094558ea14a0f679a6c107f15e2af4",
      "assetIds": [
        "41506478881403507969696680653240014914910929820314476107906210059990532622336"
      ]
    },
    {
      "x": 349,
      "y": 305,
      "size": 1,
      "price": "4683000000000000000000",
      "reserved": "",
      "salt": "0x09a804a3d07f4749f1b2a66978ea78ef4c2507b7cc7ca89366ac59058e4dbecc",
      "assetIds": [
        "41506478881403507969696680653240014914910929820314476107906210059990541021186"
      ]
    },
    {
      "x": 350,
      "y": 255,
      "size": 1,
      "price": "4683000000000000000000",
      "reserved": "",
      "salt": "0x9be06ffb630daf4323b30b4b98d142219186e14a4d813f224980a33190b6322c",
      "assetIds": [
        "41506478881403507969696680653240014914910929820314476107906210059990532622336"
      ]
    },
    {
      "x": 350,
      "y": 256,
      "size": 1,
      "price": "4683000000000000000000",
      "reserved": "",
      "salt": "0x4b5851c36f46cd954af01b74515441c11c52dcc0a81841633e12e6b63cccaff8",
      "assetIds": [
        "41506478881403507969696680653240014914910929820314476107906210059990541021188"
      ]
    },
    {
      "x": 350,
      "y": 257,
      "size": 1,
      "price": "4683000000000000000000",
      "reserved": "",
      "salt": "0xa1830376437a0a5aa0298595ce686af48213868ac2f25bcbd840066303063b3a",
      "assetIds": [
        "41506478881403507969696680653240014914910929820314476107906210059990541021188"
      ]
    },
    {
      "x": 350,
      "y": 258,
      "size": 1,
      "price": "4683000000000000000000",
      "reserved": "",
      "salt": "0xeb5a76fca1e8c0591809933044a3ad4bec3efb0d7397728857684c4dbb4a154c",
      "assetIds": [
        "41506478881403507969696680653240014914910929820314476107906210059990541021184"
      ]
    },
    {
      "x": 350,
      "y": 259,
      "size": 1,
      "price": "4683000000000000000000",
      "reserved": "",
      "salt": "0x2e5f7548e8c1572079073fab411cf51e2dbc2a653f0fa0677c35d573a7a79871",
      "assetIds": [
        "41506478881403507969696680653240014914910929820314476107906210059990541021184"
      ]
    },
    {
      "x": 350,
      "y": 260,
      "size": 1,
      "price": "4683000000000000000000",
      "reserved": "",
      "salt": "0xeb8c927d6ec59778fdafd7d0724fe02daa7a0f6cde7ada0950b467a197e8ff46",
      "assetIds": [
        "41506478881403507969696680653240014914910929820314476107906210059990541021186"
      ]
    },
    {
      "x": 350,
      "y": 261,
      "size": 1,
      "price": "4683000000000000000000",
      "reserved": "",
      "salt": "0x0fec0201ef459f7570c61a0a9fe22abc76c249928027fb6869ec9b8df7f1defe",
      "assetIds": [
        "41506478881403507969696680653240014914910929820314476107906210059990541021184"
      ]
    },
    {
      "x": 350,
      "y": 262,
      "size": 1,
      "price": "4683000000000000000000",
      "reserved": "",
      "salt": "0xcf94f4930c02874eb0fd98866c2cfe951ba49726438405d874d31645a8322120",
      "assetIds": [
        "41506478881403507969696680653240014914910929820314476107906210059990541021184"
      ]
    },
    {
      "x": 350,
      "y": 263,
      "size": 1,
      "price": "4683000000000000000000",
      "reserved": "",
      "salt": "0x8c2f07c39675a701b148641e6f0e25782450508889ee56b64f285f1cbd437e5f",
      "assetIds": [
        "41506478881403507969696680653240014914910929820314476107906210059990541021187"
      ]
    },
    {
      "x": 350,
      "y": 300,
      "size": 1,
      "price": "4683000000000000000000",
      "reserved": "",
      "salt": "0xef62be13ed501c1d9bd2ac5d5cc0903e47628d542fdcdc70f32fd1e5ae0f3ba9",
      "assetIds": [
        "41506478881403507969696680653240014914910929820314476107906210059990541021189"
      ]
    },
    {
      "x": 350,
      "y": 301,
      "size": 1,
      "price": "4683000000000000000000",
      "reserved": "",
      "salt": "0x967a768b05d9b155a40378ea41e89553ef461ad068d2ca71fe78b80bc7ee2a3c",
      "assetIds": [
        "41506478881403507969696680653240014914910929820314476107906210059990541021186"
      ]
    },
    {
      "x": 350,
      "y": 302,
      "size": 1,
      "price": "4683000000000000000000",
      "reserved": "",
      "salt": "0xf3986340fbc2552496cfa232a9d98c39862343c2872dd1b911ee0a82aeb9a638",
      "assetIds": [
        "41506478881403507969696680653240014914910929820314476107906210059990541021189"
      ]
    },
    {
      "x": 350,
      "y": 303,
      "size": 1,
      "price": "4683000000000000000000",
      "reserved": "",
      "salt": "0xc5df91b78e3ce471d57ff6615fffe2766c36ff360e2d1c2c4181987d0f749b7f",
      "assetIds": [
        "41506478881403507969696680653240014914910929820314476107906210059990541021185"
      ]
    },
    {
      "x": 350,
      "y": 304,
      "size": 1,
      "price": "4683000000000000000000",
      "reserved": "",
      "salt": "0x1389d2e89fd0760ae0f4e25741b22f5e37c414ef9b74bd2fb9c8138642e97fdf",
      "assetIds": [
        "41506478881403507969696680653240014914910929820314476107906210059990541021185"
      ]
    },
    {
      "x": 350,
      "y": 305,
      "size": 1,
      "price": "4683000000000000000000",
      "reserved": "",
      "salt": "0xf8f082d057b64226c2971c3bb7f81c87d9cb100d5c4a0e8a5b25971a692c2ef7",
      "assetIds": [
        "41506478881403507969696680653240014914910929820314476107906210059990532622336"
      ]
    },
    {
      "x": 351,
      "y": 252,
      "size": 1,
      "price": "4683000000000000000000",
      "reserved": "",
      "salt": "0x7f9df0e26426beeed007b01c6abc986ce80186fb5ba57d81f98999be1c0edbed",
      "assetIds": [
        "41506478881403507969696680653240014914910929820314476107906210059990541021189"
      ]
    },
    {
      "x": 351,
      "y": 253,
      "size": 1,
      "price": "4683000000000000000000",
      "reserved": "",
      "salt": "0xc3e249a75118dfea3bebe8214ab9a9157fbfd63f0908a1c6a7e1b59e00389ff3",
      "assetIds": [
        "41506478881403507969696680653240014914910929820314476107906210059990541021186"
      ]
    },
    {
      "x": 351,
      "y": 254,
      "size": 1,
      "price": "4683000000000000000000",
      "reserved": "",
      "salt": "0xad7b725bb2be9445c266f695c7511322d75c13759268ba7d6a11cf404510409b",
      "assetIds": [
        "41506478881403507969696680653240014914910929820314476107906210059990541021184"
      ]
    },
    {
      "x": 351,
      "y": 255,
      "size": 1,
      "price": "4683000000000000000000",
      "reserved": "",
      "salt": "0x8c87a1a52f27d6b21260675842bb581a98139d898231f2ead5e506cf8bbf6149",
      "assetIds": [
        "41506478881403507969696680653240014914910929820314476107906210059990541021188"
      ]
    },
    {
      "x": 351,
      "y": 256,
      "size": 1,
      "price": "4683000000000000000000",
      "reserved": "",
      "salt": "0x33ca523ddea3a91317b7ad568da87984b38ca2e343adc577c482b0b05d883b64",
      "assetIds": [
        "41506478881403507969696680653240014914910929820314476107906210059990541021185"
      ]
    },
    {
      "x": 351,
      "y": 257,
      "size": 1,
      "price": "4683000000000000000000",
      "reserved": "",
      "salt": "0xc525f2d539a8136c99f1391702144bfea8aa94a02f6e0e075be80b01e99f709e",
      "assetIds": [
        "41506478881403507969696680653240014914910929820314476107906210059990541021187"
      ]
    },
    {
      "x": 351,
      "y": 258,
      "size": 1,
      "price": "4683000000000000000000",
      "reserved": "",
      "salt": "0xcd359e512734e4f0f0cbef66ee67a1767c4aa0fb4676bd3c1f559fabce21d5ce",
      "assetIds": [
        "41506478881403507969696680653240014914910929820314476107906210059990541021189"
      ]
    },
    {
      "x": 351,
      "y": 259,
      "size": 1,
      "price": "4683000000000000000000",
      "reserved": "",
      "salt": "0x7a117012a67cc6d123375977da931fa5f558ed916a28bbbe887df72516317c56",
      "assetIds": [
        "41506478881403507969696680653240014914910929820314476107906210059990541021188"
      ]
    },
    {
      "x": 351,
      "y": 260,
      "size": 1,
      "price": "4683000000000000000000",
      "reserved": "",
      "salt": "0x0d8b62324d28639c4a114b8b1311b057542da0b69f19f9219a5151ac8a9bcdd8",
      "assetIds": [
        "41506478881403507969696680653240014914910929820314476107906210059990541021188"
      ]
    },
    {
      "x": 351,
      "y": 261,
      "size": 1,
      "price": "4683000000000000000000",
      "reserved": "",
      "salt": "0x4e4a7c48e3271924ad5b66a2d6a038f0dea4faa8e182d8372d905e730d566ed5",
      "assetIds": [
        "41506478881403507969696680653240014914910929820314476107906210059990541021188"
      ]
    },
    {
      "x": 351,
      "y": 262,
      "size": 1,
      "price": "4683000000000000000000",
      "reserved": "",
      "salt": "0xb0e19901e2e0bae6eb4d2086ea1eaf5bdc097e7c239083552ba70a9341111ee3",
      "assetIds": [
        "41506478881403507969696680653240014914910929820314476107906210059990541021188"
      ]
    },
    {
      "x": 351,
      "y": 263,
      "size": 1,
      "price": "4683000000000000000000",
      "reserved": "",
      "salt": "0x14a8271db64ac167a7bee8ff5df1205a5891bbfea53d81e3d85d8190f6e8908c",
      "assetIds": [
        "41506478881403507969696680653240014914910929820314476107906210059990541021189"
      ]
    },
    {
      "x": 351,
      "y": 300,
      "size": 1,
      "price": "4683000000000000000000",
      "reserved": "",
      "salt": "0x6493c962ac0285548f60fdf54febd5b1ddf330696bb84862ca8705bb5b9e243a",
      "assetIds": [
        "41506478881403507969696680653240014914910929820314476107906210059990541021184"
      ]
    },
    {
      "x": 351,
      "y": 301,
      "size": 1,
      "price": "4683000000000000000000",
      "reserved": "",
      "salt": "0xee40b9a5fdecd306a94841e3a8316146c6902a209d693fc9fd47696e3217a736",
      "assetIds": [
        "41506478881403507969696680653240014914910929820314476107906210059990541021187"
      ]
    },
    {
      "x": 351,
      "y": 302,
      "size": 1,
      "price": "4683000000000000000000",
      "reserved": "",
      "salt": "0x503ea20b6ccbf231e9869511e8df593ba5b40262337e69392a21811a66032d8c",
      "assetIds": [
        "41506478881403507969696680653240014914910929820314476107906210059990532622336"
      ]
    },
    {
      "x": 351,
      "y": 303,
      "size": 1,
      "price": "4683000000000000000000",
      "reserved": "",
      "salt": "0xc2e7f361449d30922e2dbcda9f2780862d7b82f04cee55ae3f7d58307bb9c4c0",
      "assetIds": [
        "41506478881403507969696680653240014914910929820314476107906210059990541021184"
      ]
    },
    {
      "x": 351,
      "y": 304,
      "size": 1,
      "price": "4683000000000000000000",
      "reserved": "",
      "salt": "0x0bdcd5219dd86abce5585db9173cfa6c04758ee6b7564fed956b8a5e0efdcb1f",
      "assetIds": [
        "41506478881403507969696680653240014914910929820314476107906210059990541021187"
      ]
    },
    {
      "x": 351,
      "y": 305,
      "size": 1,
      "price": "4683000000000000000000",
      "reserved": "",
      "salt": "0x15df5c55d341e39293367b9da34ece0428fc9857b3bd2249f22a65b0fad882d2",
      "assetIds": [
        "41506478881403507969696680653240014914910929820314476107906210059990541021188"
      ]
    },
    {
      "x": 352,
      "y": 252,
      "size": 1,
      "price": "4683000000000000000000",
      "reserved": "",
      "salt": "0x3d56649f3835ceea622fa16dabaf25b15b096d950d340eed4a3b670f9cc63c0b",
      "assetIds": [
        "41506478881403507969696680653240014914910929820314476107906210059990541021187"
      ]
    },
    {
      "x": 352,
      "y": 253,
      "size": 1,
      "price": "4683000000000000000000",
      "reserved": "",
      "salt": "0x9db38e33b49d73daa2717753232db7d241059991e8b5257935b55205b867e6d3",
      "assetIds": [
        "41506478881403507969696680653240014914910929820314476107906210059990541021185"
      ]
    },
    {
      "x": 352,
      "y": 254,
      "size": 1,
      "price": "4683000000000000000000",
      "reserved": "",
      "salt": "0xbb7ded4897c5cd7d79c7a6cc8c3aa4f60cade04d8bbdb789743f5b9b792faad3",
      "assetIds": [
        "41506478881403507969696680653240014914910929820314476107906210059990541021187"
      ]
    },
    {
      "x": 352,
      "y": 255,
      "size": 1,
      "price": "4683000000000000000000",
      "reserved": "",
      "salt": "0x7bc9a209dcbb21ab3a35e27595db2c5954a5982af0398c729c49b58daa2a3b04",
      "assetIds": [
        "41506478881403507969696680653240014914910929820314476107906210059990532622336"
      ]
    },
    {
      "x": 352,
      "y": 256,
      "size": 1,
      "price": "4683000000000000000000",
      "reserved": "",
      "salt": "0x694c54bdfca722f8f05e1d4a594847e9550209be52edcc18ebfd84c1fefdc230",
      "assetIds": [
        "41506478881403507969696680653240014914910929820314476107906210059990532622336"
      ]
    },
    {
      "x": 352,
      "y": 257,
      "size": 1,
      "price": "4683000000000000000000",
      "reserved": "",
      "salt": "0x4c928651fedb3767f85f002e9ed1230c070e903f8746bf51f4d1427c89950993",
      "assetIds": [
        "41506478881403507969696680653240014914910929820314476107906210059990541021188"
      ]
    },
    {
      "x": 352,
      "y": 258,
      "size": 1,
      "price": "4683000000000000000000",
      "reserved": "",
      "salt": "0x9afade87c6b91611802fce3e5f7afb00a86ff3dd0ab7a1fa527574599278dd81",
      "assetIds": [
        "41506478881403507969696680653240014914910929820314476107906210059990541021188"
      ]
    },
    {
      "x": 352,
      "y": 259,
      "size": 1,
      "price": "4683000000000000000000",
      "reserved": "",
      "salt": "0x15ddac2920d33e7acde0cc52be7d7b77e859e3c1262e439bec9c48fccda2e1c4",
      "assetIds": [
        "41506478881403507969696680653240014914910929820314476107906210059990541021187"
      ]
    },
    {
      "x": 352,
      "y": 260,
      "size": 1,
      "price": "4683000000000000000000",
      "reserved": "",
      "salt": "0x7230cc14a6215767f9dd5cd3c1261db9e5bc95095bb1be9e7ff87e608aabfb28",
      "assetIds": [
        "41506478881403507969696680653240014914910929820314476107906210059990541021184"
      ]
    },
    {
      "x": 352,
      "y": 261,
      "size": 1,
      "price": "4683000000000000000000",
      "reserved": "",
      "salt": "0x3415bc183d8f36a1b39a4d38df1ebdbfb07d28d39171edf08b1f21a794c32c83",
      "assetIds": [
        "41506478881403507969696680653240014914910929820314476107906210059990541021188"
      ]
    },
    {
      "x": 352,
      "y": 262,
      "size": 1,
      "price": "1011000000000000000000",
      "reserved": "0x7a9fe22691c811ea339d9b73150e6911a5343dca",
      "salt": "0x88cca0bf9d10ede951cd5f10c369f1ac9aa0f9f2e2c6d21fcbf1606b0e7adc30",
      "assetIds": []
    },
    {
      "x": 352,
      "y": 263,
      "size": 1,
      "price": "4683000000000000000000",
      "reserved": "",
      "salt": "0xa3e5dabc944571414ecf0daf0b1b334d262e3e95a0a1c91d70fc432e8742e1bb",
      "assetIds": [
        "41506478881403507969696680653240014914910929820314476107906210059990541021184"
      ]
    },
    {
      "x": 352,
      "y": 300,
      "size": 1,
      "price": "4683000000000000000000",
      "reserved": "",
      "salt": "0x22b76a30d5fd4601830e9cdf3df7855f71be9c5b18680e519d1ea379cf62e708",
      "assetIds": [
        "41506478881403507969696680653240014914910929820314476107906210059990541021184"
      ]
    },
    {
      "x": 352,
      "y": 301,
      "size": 1,
      "price": "4683000000000000000000",
      "reserved": "",
      "salt": "0x93cfc911d715b448ce2d31837f7e5ce188581445049c672648ee4cfb42e67425",
      "assetIds": [
        "41506478881403507969696680653240014914910929820314476107906210059990541021186"
      ]
    },
    {
      "x": 352,
      "y": 302,
      "size": 1,
      "price": "4683000000000000000000",
      "reserved": "",
      "salt": "0x3e079d3f0535318a21bb0818b99d05047aec35c4f7b26a2a74120c9c3da4be85",
      "assetIds": [
        "41506478881403507969696680653240014914910929820314476107906210059990541021186"
      ]
    },
    {
      "x": 352,
      "y": 303,
      "size": 1,
      "price": "4683000000000000000000",
      "reserved": "",
      "salt": "0x7220c5b8c8483c3b6029d46997443eca100ad454ffd0ba688d24ba592f62e422",
      "assetIds": [
        "41506478881403507969696680653240014914910929820314476107906210059990541021186"
      ]
    },
    {
      "x": 352,
      "y": 304,
      "size": 1,
      "price": "4683000000000000000000",
      "reserved": "",
      "salt": "0xab47303e117d27d0a452eaeb94ded2ec3f4ba083a424ddc500ba102208793155",
      "assetIds": [
        "41506478881403507969696680653240014914910929820314476107906210059990541021185"
      ]
    },
    {
      "x": 352,
      "y": 305,
      "size": 1,
      "price": "4683000000000000000000",
      "reserved": "",
      "salt": "0x1249173ef932fa83fd16c3db327c485f8c077e6fc4a7f27b1692aa366f744632",
      "assetIds": [
        "41506478881403507969696680653240014914910929820314476107906210059990532622336"
      ]
    },
    {
      "x": 353,
      "y": 252,
      "size": 1,
      "price": "1011000000000000000000",
      "reserved": "0x7a9fe22691c811ea339d9b73150e6911a5343dca",
      "salt": "0x1aa8095778de99bf2313a3f18705b6a01861864a4f84a21953fbf21fad41c80f",
      "assetIds": []
    },
    {
      "x": 353,
      "y": 253,
      "size": 1,
      "price": "4683000000000000000000",
      "reserved": "",
      "salt": "0x16e0a1e124d7b4e46782da1d4568cb9b9a1c2f23b2a0e9aedd9bf965781c351a",
      "assetIds": [
        "41506478881403507969696680653240014914910929820314476107906210059990541021188"
      ]
    },
    {
      "x": 353,
      "y": 254,
      "size": 1,
      "price": "4683000000000000000000",
      "reserved": "",
      "salt": "0x8e01421fe811a113ed503bc577282abb173149f76df6c1d81686023eb0f37383",
      "assetIds": [
        "41506478881403507969696680653240014914910929820314476107906210059990541021186"
      ]
    },
    {
      "x": 353,
      "y": 255,
      "size": 1,
      "price": "4683000000000000000000",
      "reserved": "",
      "salt": "0xe755b2e1cd0f8241df1ebbe8e1f640c33f84359d2c9620ae89bc8a4f603fb7ce",
      "assetIds": [
        "41506478881403507969696680653240014914910929820314476107906210059990541021185"
      ]
    },
    {
      "x": 353,
      "y": 256,
      "size": 1,
      "price": "4683000000000000000000",
      "reserved": "",
      "salt": "0x24313fbbb21610b8b2b27e468dbc01334ec5468dd19c91e6ac3787a93f70ab79",
      "assetIds": [
        "41506478881403507969696680653240014914910929820314476107906210059990541021189"
      ]
    },
    {
      "x": 353,
      "y": 257,
      "size": 1,
      "price": "4683000000000000000000",
      "reserved": "",
      "salt": "0xe8b25d73e33c732474e4a3e2bc31c496639808859196f3b4a4b7ed5b69b23487",
      "assetIds": [
        "41506478881403507969696680653240014914910929820314476107906210059990541021186"
      ]
    },
    {
      "x": 353,
      "y": 258,
      "size": 1,
      "price": "4683000000000000000000",
      "reserved": "",
      "salt": "0xcb8ba90691b8033f5eabd2f54f35adb2476d2407fedf9d44b67a7b60c807d21a",
      "assetIds": [
        "41506478881403507969696680653240014914910929820314476107906210059990541021186"
      ]
    },
    {
      "x": 353,
      "y": 259,
      "size": 1,
      "price": "4683000000000000000000",
      "reserved": "",
      "salt": "0xeb401ec1f78325f971998816144b47ae3b625d201ec1dcd8a55d69b3913d587e",
      "assetIds": [
        "41506478881403507969696680653240014914910929820314476107906210059990541021188"
      ]
    },
    {
      "x": 353,
      "y": 260,
      "size": 1,
      "price": "4683000000000000000000",
      "reserved": "",
      "salt": "0x51116b72457e375a1a8c6f53fe0de2963baad75971eb469a5d040fe7018bce98",
      "assetIds": [
        "41506478881403507969696680653240014914910929820314476107906210059990541021189"
      ]
    },
    {
      "x": 353,
      "y": 261,
      "size": 1,
      "price": "4683000000000000000000",
      "reserved": "",
      "salt": "0xe1748219e07eccc79b311e496e88c6b67c89adfe768ae63b456b5dce1db0d147",
      "assetIds": [
        "41506478881403507969696680653240014914910929820314476107906210059990541021185"
      ]
    },
    {
      "x": 353,
      "y": 262,
      "size": 1,
      "price": "4683000000000000000000",
      "reserved": "",
      "salt": "0x6d48c0463bb1dccef511c3ea99b64adc616e7841a8fd3e3055c31749abc66fed",
      "assetIds": [
        "41506478881403507969696680653240014914910929820314476107906210059990541021185"
      ]
    },
    {
      "x": 353,
      "y": 263,
      "size": 1,
      "price": "4683000000000000000000",
      "reserved": "",
      "salt": "0x6ce2c10fea30e9cfacdb9c008c4ea25cca6fcb9addb5740f9ad83912524ecabe",
      "assetIds": [
        "41506478881403507969696680653240014914910929820314476107906210059990541021186"
      ]
    },
    {
      "x": 353,
      "y": 300,
      "size": 1,
      "price": "4683000000000000000000",
      "reserved": "",
      "salt": "0x7b65122752963fb70c8cdd49a08847a8a5099adfb8b601ad77617ec7be7c7705",
      "assetIds": [
        "41506478881403507969696680653240014914910929820314476107906210059990541021189"
      ]
    },
    {
      "x": 353,
      "y": 301,
      "size": 1,
      "price": "4683000000000000000000",
      "reserved": "",
      "salt": "0xedfd81cf47a00278ab70ccb81d7247e9f18222fcac512e3e27f6e426b9740882",
      "assetIds": [
        "41506478881403507969696680653240014914910929820314476107906210059990541021187"
      ]
    },
    {
      "x": 353,
      "y": 302,
      "size": 1,
      "price": "4683000000000000000000",
      "reserved": "",
      "salt": "0xb81f65327ad4be44b1d99620d99ef7ecf25d7a0233c97b7df5c1f6aafde5d836",
      "assetIds": [
        "41506478881403507969696680653240014914910929820314476107906210059990532622336"
      ]
    },
    {
      "x": 353,
      "y": 303,
      "size": 1,
      "price": "4683000000000000000000",
      "reserved": "",
      "salt": "0x83091e759da6f8c7ca96304ee0835c7c88411a973f349b04d1b82b91d16afa75",
      "assetIds": [
        "41506478881403507969696680653240014914910929820314476107906210059990541021184"
      ]
    },
    {
      "x": 353,
      "y": 304,
      "size": 1,
      "price": "4683000000000000000000",
      "reserved": "",
      "salt": "0xbe96935035dfaa750635b2a44f1a751dd30cd24af66f55b7123762f603c3a07d",
      "assetIds": [
        "41506478881403507969696680653240014914910929820314476107906210059990532622336"
      ]
    },
    {
      "x": 353,
      "y": 305,
      "size": 1,
      "price": "4683000000000000000000",
      "reserved": "",
      "salt": "0x4626894f70e22be7e4f877939cbbc54ee30ea9ea1c0bc510ccc15aaadf9bd4bf",
      "assetIds": [
        "41506478881403507969696680653240014914910929820314476107906210059990541021186"
      ]
    },
    {
      "x": 354,
      "y": 252,
      "size": 1,
      "price": "4683000000000000000000",
      "reserved": "",
      "salt": "0x0f4f20978f718e91b1e855d9024ea593b5d3cc0cfe07a81b7b0c6090191e711e",
      "assetIds": [
        "41506478881403507969696680653240014914910929820314476107906210059990541021184"
      ]
    },
    {
      "x": 354,
      "y": 253,
      "size": 1,
      "price": "4683000000000000000000",
      "reserved": "",
      "salt": "0x73f2e0a051c9e34ae86bafec0a20851cb637efee4e5a25f4e9e4e97226f27c2c",
      "assetIds": [
        "41506478881403507969696680653240014914910929820314476107906210059990532622336"
      ]
    },
    {
      "x": 354,
      "y": 254,
      "size": 1,
      "price": "4683000000000000000000",
      "reserved": "",
      "salt": "0x315f27fefe294866fd24d2fcf2d86e6777f596cc23747602acaeaed06b9747fb",
      "assetIds": [
        "41506478881403507969696680653240014914910929820314476107906210059990541021189"
      ]
    },
    {
      "x": 354,
      "y": 255,
      "size": 1,
      "price": "4683000000000000000000",
      "reserved": "",
      "salt": "0x3919952582196eaca57ad10cf067122c63324c8b384808f972fb63ddfc1cea7a",
      "assetIds": [
        "41506478881403507969696680653240014914910929820314476107906210059990541021186"
      ]
    },
    {
      "x": 354,
      "y": 256,
      "size": 1,
      "price": "4683000000000000000000",
      "reserved": "",
      "salt": "0x870b0646e428d632e7e5c96398dc08b8eaa8c2bc7440e735d36c686e91e8484b",
      "assetIds": [
        "41506478881403507969696680653240014914910929820314476107906210059990532622336"
      ]
    },
    {
      "x": 354,
      "y": 257,
      "size": 1,
      "price": "4683000000000000000000",
      "reserved": "",
      "salt": "0xa8809dc8b9d0a63b0c31379ca6d841b65e2d3b7fb1fd5016685e18cac1b339c4",
      "assetIds": [
        "41506478881403507969696680653240014914910929820314476107906210059990532622336"
      ]
    },
    {
      "x": 354,
      "y": 300,
      "size": 1,
      "price": "4683000000000000000000",
      "reserved": "",
      "salt": "0xcd3037f47c49f67370ea78de6642aeb9f8a29f17bfc7becd3f78cac9544e94ab",
      "assetIds": [
        "41506478881403507969696680653240014914910929820314476107906210059990541021187"
      ]
    },
    {
      "x": 354,
      "y": 301,
      "size": 1,
      "price": "4683000000000000000000",
      "reserved": "",
      "salt": "0x6a59daf58035c5edf2369d8f6a11065b74ed7aba6aa01de6f631b2073d67e4ff",
      "assetIds": [
        "41506478881403507969696680653240014914910929820314476107906210059990541021186"
      ]
    },
    {
      "x": 354,
      "y": 302,
      "size": 1,
      "price": "4683000000000000000000",
      "reserved": "",
      "salt": "0xf92f7786bc0ffc2d4b6be523e4e3cc69735d483a617ee10d955e7e6f89f0d90e",
      "assetIds": [
        "41506478881403507969696680653240014914910929820314476107906210059990541021186"
      ]
    },
    {
      "x": 354,
      "y": 303,
      "size": 1,
      "price": "4683000000000000000000",
      "reserved": "",
      "salt": "0xd241e4bf0c8c678aea7289bd19cc56f6815c29a9947f5e830ab9d2360b700133",
      "assetIds": [
        "41506478881403507969696680653240014914910929820314476107906210059990541021188"
      ]
    },
    {
      "x": 354,
      "y": 304,
      "size": 1,
      "price": "4683000000000000000000",
      "reserved": "",
      "salt": "0x2b5e7b178aba85ecf9c19236395d75a8d072f5c5261b2c0e13b7c25ab31a89bc",
      "assetIds": [
        "41506478881403507969696680653240014914910929820314476107906210059990541021188"
      ]
    },
    {
      "x": 354,
      "y": 305,
      "size": 1,
      "price": "4683000000000000000000",
      "reserved": "",
      "salt": "0x6de5494d5a954f2bf2a2f476864a360324fa8fe8196c91a3c236b4d4a909730a",
      "assetIds": [
        "41506478881403507969696680653240014914910929820314476107906210059990541021184"
      ]
    },
    {
      "x": 354,
      "y": 306,
      "size": 1,
      "price": "4683000000000000000000",
      "reserved": "",
      "salt": "0x199dd238ccae21cedd8579af3e521ad5c384a285f730a62ef396949ea062f906",
      "assetIds": [
        "41506478881403507969696680653240014914910929820314476107906210059990541021187"
      ]
    },
    {
      "x": 354,
      "y": 307,
      "size": 1,
      "price": "4683000000000000000000",
      "reserved": "",
      "salt": "0xb52b760109f85a6faeb518478deef12aa9d3aeef70ab0811c47be46edbd4f591",
      "assetIds": [
        "41506478881403507969696680653240014914910929820314476107906210059990532622336"
      ]
    },
    {
      "x": 354,
      "y": 308,
      "size": 1,
      "price": "4683000000000000000000",
      "reserved": "",
      "salt": "0x67791e01e151cdcab7a1b56a5e0e302187f0f7848ed5992617fc52431916fa45",
      "assetIds": [
        "41506478881403507969696680653240014914910929820314476107906210059990541021184"
      ]
    },
    {
      "x": 354,
      "y": 309,
      "size": 1,
      "price": "4683000000000000000000",
      "reserved": "",
      "salt": "0x29da313d899bafcd84d371905fad153aa0423c01811065dcfd06fa5e8e728a99",
      "assetIds": [
        "41506478881403507969696680653240014914910929820314476107906210059990532622336"
      ]
    },
    {
      "x": 354,
      "y": 310,
      "size": 1,
      "price": "4683000000000000000000",
      "reserved": "",
      "salt": "0xc73cad6282fdf4cf3700858d6133adacbd20102bd9171389159c22f932fdc18a",
      "assetIds": [
        "41506478881403507969696680653240014914910929820314476107906210059990541021189"
      ]
    },
    {
      "x": 354,
      "y": 311,
      "size": 1,
      "price": "4683000000000000000000",
      "reserved": "",
      "salt": "0xfcec3946b80650c557deeb92dc3d683aea43bb03f2d536226b04d3a9a14e4b3d",
      "assetIds": [
        "41506478881403507969696680653240014914910929820314476107906210059990541021188"
      ]
    },
    {
      "x": 355,
      "y": 252,
      "size": 1,
      "price": "4683000000000000000000",
      "reserved": "",
      "salt": "0xb43b3873dcbd45f15d940f2dd430d95d7b8a2eb372abb705dc1b3b435d6fbd82",
      "assetIds": [
        "41506478881403507969696680653240014914910929820314476107906210059990541021185"
      ]
    },
    {
      "x": 355,
      "y": 253,
      "size": 1,
      "price": "4683000000000000000000",
      "reserved": "",
      "salt": "0x6ab2ae20b40f13892e019b54fe2904a9bd4bcc8d34fb3ae6cab0d086835af4fe",
      "assetIds": [
        "41506478881403507969696680653240014914910929820314476107906210059990541021184"
      ]
    },
    {
      "x": 355,
      "y": 254,
      "size": 1,
      "price": "4683000000000000000000",
      "reserved": "",
      "salt": "0xd77cbd918c394857596d0b58eef4190fea5f3d145cd65bfce03aec2c43641220",
      "assetIds": [
        "41506478881403507969696680653240014914910929820314476107906210059990541021184"
      ]
    },
    {
      "x": 355,
      "y": 255,
      "size": 1,
      "price": "4683000000000000000000",
      "reserved": "",
      "salt": "0x0016b8b816d758a3a35b3cdc5a31d84cc6cb79582db847fd0da489cb9e4b406b",
      "assetIds": [
        "41506478881403507969696680653240014914910929820314476107906210059990541021187"
      ]
    },
    {
      "x": 355,
      "y": 256,
      "size": 1,
      "price": "4683000000000000000000",
      "reserved": "",
      "salt": "0xf89f7fdfcd020677db61403240073964f759a9ae7d3108ada29c84ca4ead0876",
      "assetIds": [
        "41506478881403507969696680653240014914910929820314476107906210059990532622336"
      ]
    },
    {
      "x": 355,
      "y": 257,
      "size": 1,
      "price": "4683000000000000000000",
      "reserved": "",
      "salt": "0x6d0a303295b8deac20e493124e2ae6beb7e2d9fc6a6fdeb0ee51079ae14ab390",
      "assetIds": [
        "41506478881403507969696680653240014914910929820314476107906210059990541021187"
      ]
    },
    {
      "x": 355,
      "y": 300,
      "size": 1,
      "price": "4683000000000000000000",
      "reserved": "",
      "salt": "0xdd2fbfcc494badf2cd3f2c06b0b7c76dd765283c12fc413dfa9b3a5f42abf99c",
      "assetIds": [
        "41506478881403507969696680653240014914910929820314476107906210059990541021188"
      ]
    },
    {
      "x": 355,
      "y": 301,
      "size": 1,
      "price": "4683000000000000000000",
      "reserved": "",
      "salt": "0x198f684332c649ab43efe86f132644d67b9ab0ef9f916fa09dcedad65065a8d2",
      "assetIds": [
        "41506478881403507969696680653240014914910929820314476107906210059990541021189"
      ]
    },
    {
      "x": 355,
      "y": 302,
      "size": 1,
      "price": "4683000000000000000000",
      "reserved": "",
      "salt": "0x929897b02f56627cd944064b4f07718e770f960cefd5308d54d0dfce9ba63083",
      "assetIds": [
        "41506478881403507969696680653240014914910929820314476107906210059990541021185"
      ]
    },
    {
      "x": 355,
      "y": 303,
      "size": 1,
      "price": "4683000000000000000000",
      "reserved": "",
      "salt": "0x26b8d72e7bbd08e0a1a9c624469a737606bb155447eb65ee0efaaf2e7a5c3cc1",
      "assetIds": [
        "41506478881403507969696680653240014914910929820314476107906210059990541021187"
      ]
    },
    {
      "x": 355,
      "y": 304,
      "size": 1,
      "price": "4683000000000000000000",
      "reserved": "",
      "salt": "0x2de8e494db6384977a76e89c8a48bbb92e833a6d0b16284f7d38e8122de8c4ff",
      "assetIds": [
        "41506478881403507969696680653240014914910929820314476107906210059990541021189"
      ]
    },
    {
      "x": 355,
      "y": 305,
      "size": 1,
      "price": "1011000000000000000000",
      "reserved": "0x7a9fe22691c811ea339d9b73150e6911a5343dca",
      "salt": "0x697e4d0c6810ea38213f70444816492024b894c527b41cbe6f2fcb848ced0374",
      "assetIds": []
    },
    {
      "x": 355,
      "y": 306,
      "size": 1,
      "price": "4683000000000000000000",
      "reserved": "",
      "salt": "0xffdd4b2ed2178e1a60bdecb21a7c8a820e2bb437ca8cca6501d5cf2f1e6d99d3",
      "assetIds": [
        "41506478881403507969696680653240014914910929820314476107906210059990541021185"
      ]
    },
    {
      "x": 355,
      "y": 307,
      "size": 1,
      "price": "4683000000000000000000",
      "reserved": "",
      "salt": "0x69d570b70390f7d621915ed95649cadec18a779b1913e27ea233df91ade58492",
      "assetIds": [
        "41506478881403507969696680653240014914910929820314476107906210059990541021185"
      ]
    },
    {
      "x": 355,
      "y": 308,
      "size": 1,
      "price": "4683000000000000000000",
      "reserved": "",
      "salt": "0x9ea1c77fcd5315bd9c53d22c00df04aadd513ebdc83c377309b968652dcc5825",
      "assetIds": [
        "41506478881403507969696680653240014914910929820314476107906210059990541021188"
      ]
    },
    {
      "x": 355,
      "y": 309,
      "size": 1,
      "price": "4683000000000000000000",
      "reserved": "",
      "salt": "0x3e4f7d02992f38027c8a7fb4ec07e8cb7bfe43a0c20dbaf9e4d231007ddf980c",
      "assetIds": [
        "41506478881403507969696680653240014914910929820314476107906210059990541021184"
      ]
    },
    {
      "x": 355,
      "y": 310,
      "size": 1,
      "price": "4683000000000000000000",
      "reserved": "",
      "salt": "0x3ca8ef8e2b36bcdd48f1eb073154d95c6a627ce31d62af822c91e02beec73f75",
      "assetIds": [
        "41506478881403507969696680653240014914910929820314476107906210059990532622336"
      ]
    },
    {
      "x": 355,
      "y": 311,
      "size": 1,
      "price": "4683000000000000000000",
      "reserved": "",
      "salt": "0x92eb022d07828cb0235dc916e956856021bb4057fc7e45b9c2c664e21c66dc3e",
      "assetIds": [
        "41506478881403507969696680653240014914910929820314476107906210059990532622336"
      ]
    },
    {
      "x": 356,
      "y": 252,
      "size": 1,
      "price": "4683000000000000000000",
      "reserved": "",
      "salt": "0x96a87e5d26e09d270cd1cde37c6c78c4d2bd7c4efad2f6dc3f8473961cfa19c3",
      "assetIds": [
        "41506478881403507969696680653240014914910929820314476107906210059990532622336"
      ]
    },
    {
      "x": 356,
      "y": 253,
      "size": 1,
      "price": "4683000000000000000000",
      "reserved": "",
      "salt": "0x8b4b8716c4cf1199123a6f112d80203d1dd278ded27a43f521a94d007c29cdc0",
      "assetIds": [
        "41506478881403507969696680653240014914910929820314476107906210059990541021188"
      ]
    },
    {
      "x": 356,
      "y": 254,
      "size": 1,
      "price": "4683000000000000000000",
      "reserved": "",
      "salt": "0x943a72406155d9c3dca6f7f33dec0858ab369bb9c2f5c92e1fec339e5fcec78b",
      "assetIds": [
        "41506478881403507969696680653240014914910929820314476107906210059990541021187"
      ]
    },
    {
      "x": 356,
      "y": 255,
      "size": 1,
      "price": "4683000000000000000000",
      "reserved": "",
      "salt": "0x70ef4773794b5bdde9455b3a322e9960dcf58105dde4375c9e7c0ae103737b83",
      "assetIds": [
        "41506478881403507969696680653240014914910929820314476107906210059990541021189"
      ]
    },
    {
      "x": 356,
      "y": 256,
      "size": 1,
      "price": "4683000000000000000000",
      "reserved": "",
      "salt": "0xdfa75ea1325168fadf9f553267f83d5816f57518501d7f35cbbf38eb2eb8f830",
      "assetIds": [
        "41506478881403507969696680653240014914910929820314476107906210059990541021184"
      ]
    },
    {
      "x": 356,
      "y": 257,
      "size": 1,
      "price": "4683000000000000000000",
      "reserved": "",
      "salt": "0x96cd132e72cff0487be13d82221141ba5500c4f4a8693a5dc4d0f812d619483a",
      "assetIds": [
        "41506478881403507969696680653240014914910929820314476107906210059990541021187"
      ]
    },
    {
      "x": 356,
      "y": 300,
      "size": 1,
      "price": "4683000000000000000000",
      "reserved": "",
      "salt": "0x0ae050921bb3e203e6eef0492dc64ffc63905d8a6fd895621333af9749107257",
      "assetIds": [
        "41506478881403507969696680653240014914910929820314476107906210059990541021189"
      ]
    },
    {
      "x": 356,
      "y": 301,
      "size": 1,
      "price": "4683000000000000000000",
      "reserved": "",
      "salt": "0x00431a1e51865506afa1348cc62fa5c547e74eff5f73bf8dde1ffff997cdf1f0",
      "assetIds": [
        "41506478881403507969696680653240014914910929820314476107906210059990541021185"
      ]
    },
    {
      "x": 356,
      "y": 302,
      "size": 1,
      "price": "4683000000000000000000",
      "reserved": "",
      "salt": "0xbe5c81fdb7200ee156c67795057b7574b1d02393273a4cbcde9e58ac27118bfe",
      "assetIds": [
        "41506478881403507969696680653240014914910929820314476107906210059990541021185"
      ]
    },
    {
      "x": 356,
      "y": 303,
      "size": 1,
      "price": "4683000000000000000000",
      "reserved": "",
      "salt": "0x38bf0f2db363ce7f0ec5b1bd7d2655660468b2df832461803280a500b0723e9a",
      "assetIds": [
        "41506478881403507969696680653240014914910929820314476107906210059990541021185"
      ]
    },
    {
      "x": 356,
      "y": 304,
      "size": 1,
      "price": "4683000000000000000000",
      "reserved": "",
      "salt": "0x5fd01668dae1cffe139f35910cfb34dcb1ea075df8806f845a8d7df009a64684",
      "assetIds": [
        "41506478881403507969696680653240014914910929820314476107906210059990541021185"
      ]
    },
    {
      "x": 356,
      "y": 305,
      "size": 1,
      "price": "4683000000000000000000",
      "reserved": "",
      "salt": "0xb622bbc3838b1fce6c6c0c5f5c9c6e1e8f9e9cc421100f8807889d214fcf31b4",
      "assetIds": [
        "41506478881403507969696680653240014914910929820314476107906210059990541021186"
      ]
    },
    {
      "x": 356,
      "y": 306,
      "size": 1,
      "price": "4683000000000000000000",
      "reserved": "",
      "salt": "0x97f10bf50627aac48866708a185401a06181dd2154ee17fbcb324b0eeb519719",
      "assetIds": [
        "41506478881403507969696680653240014914910929820314476107906210059990532622336"
      ]
    },
    {
      "x": 356,
      "y": 307,
      "size": 1,
      "price": "4683000000000000000000",
      "reserved": "",
      "salt": "0xb150ca34c145e8fd1db240d5474acf0e856873fa96cf8cfd28aa751f0a697b5a",
      "assetIds": [
        "41506478881403507969696680653240014914910929820314476107906210059990541021185"
      ]
    },
    {
      "x": 356,
      "y": 308,
      "size": 1,
      "price": "4683000000000000000000",
      "reserved": "",
      "salt": "0xb28d6767ea8d823417297eab1c00c4c6be237e3144469bf278109c83e61d890f",
      "assetIds": [
        "41506478881403507969696680653240014914910929820314476107906210059990541021185"
      ]
    },
    {
      "x": 356,
      "y": 309,
      "size": 1,
      "price": "4683000000000000000000",
      "reserved": "",
      "salt": "0x918e0eabf3855d7c5ba1b3441a75da921212c592c49cca2cb3d74b6b672360b0",
      "assetIds": [
        "41506478881403507969696680653240014914910929820314476107906210059990541021187"
      ]
    },
    {
      "x": 356,
      "y": 310,
      "size": 1,
      "price": "4683000000000000000000",
      "reserved": "",
      "salt": "0xb24886a2b5555b1af91cff29a349526a0ad3fbc1b7a2d7bf33ac355578288b5e",
      "assetIds": [
        "41506478881403507969696680653240014914910929820314476107906210059990541021187"
      ]
    },
    {
      "x": 356,
      "y": 311,
      "size": 1,
      "price": "4683000000000000000000",
      "reserved": "",
      "salt": "0xadec2469f624fb80236bfbc2cf4af8a6e11efc80a64dc2c0f59b0f2eb25b7b47",
      "assetIds": [
        "41506478881403507969696680653240014914910929820314476107906210059990541021186"
      ]
    },
    {
      "x": 357,
      "y": 252,
      "size": 1,
      "price": "4683000000000000000000",
      "reserved": "",
      "salt": "0x043020d7e02b56dc73282aba82864f953befaeb9cc06f3946537f73f71507e01",
      "assetIds": [
        "41506478881403507969696680653240014914910929820314476107906210059990532622336"
      ]
    },
    {
      "x": 357,
      "y": 253,
      "size": 1,
      "price": "4683000000000000000000",
      "reserved": "",
      "salt": "0x8cf1adae9674e48ae9167aced706282ff054f0b00d775ef3d066c7c23b71ecd3",
      "assetIds": [
        "41506478881403507969696680653240014914910929820314476107906210059990541021186"
      ]
    },
    {
      "x": 357,
      "y": 254,
      "size": 1,
      "price": "4683000000000000000000",
      "reserved": "",
      "salt": "0x36428b1d8a525d701711f028d1e14720f9c9bc5e4706408191c476caa2ae1bb5",
      "assetIds": [
        "41506478881403507969696680653240014914910929820314476107906210059990541021187"
      ]
    },
    {
      "x": 357,
      "y": 255,
      "size": 1,
      "price": "4683000000000000000000",
      "reserved": "",
      "salt": "0xbdaad1ac5f5f8423c5f9b853e6fdf32cd5c6a1d2f64008ae56f4e8bff5b333ac",
      "assetIds": [
        "41506478881403507969696680653240014914910929820314476107906210059990541021185"
      ]
    },
    {
      "x": 357,
      "y": 256,
      "size": 1,
      "price": "4683000000000000000000",
      "reserved": "",
      "salt": "0x838e56b3901e9ec1283e8c6fe6baa8c12b6cc070c80a913076f584a4b130b481",
      "assetIds": [
        "41506478881403507969696680653240014914910929820314476107906210059990541021189"
      ]
    },
    {
      "x": 357,
      "y": 257,
      "size": 1,
      "price": "4683000000000000000000",
      "reserved": "",
      "salt": "0xa95585ebca13d5e842030d9cd32011b320ca79494c8fb5ebfe959ab05082cb37",
      "assetIds": [
        "41506478881403507969696680653240014914910929820314476107906210059990541021188"
      ]
    },
    {
      "x": 357,
      "y": 300,
      "size": 1,
      "price": "4683000000000000000000",
      "reserved": "",
      "salt": "0x7fe079b6cf3c0483ecb011960f2e426a39eaf3ab8717e82038bb407a0f240f9d",
      "assetIds": [
        "41506478881403507969696680653240014914910929820314476107906210059990541021184"
      ]
    },
    {
      "x": 357,
      "y": 301,
      "size": 1,
      "price": "4683000000000000000000",
      "reserved": "",
      "salt": "0x520b26a17ee4e4f31ba20edf8f72fb153ab3e3a8b4bbc5d889c25eddeb3b532e",
      "assetIds": [
        "41506478881403507969696680653240014914910929820314476107906210059990541021184"
      ]
    },
    {
      "x": 357,
      "y": 302,
      "size": 1,
      "price": "4683000000000000000000",
      "reserved": "",
      "salt": "0xc283ddc924ae3a6987277ee294f1b711485ffce4d760ef84ea23356c96e8849b",
      "assetIds": [
        "41506478881403507969696680653240014914910929820314476107906210059990532622336"
      ]
    },
    {
      "x": 357,
      "y": 306,
      "size": 1,
      "price": "4683000000000000000000",
      "reserved": "",
      "salt": "0xdcd6ada42a1fad7343c0ecd2b89b9baba2a90bcb29062aba661ff71903eb2284",
      "assetIds": [
        "41506478881403507969696680653240014914910929820314476107906210059990541021185"
      ]
    },
    {
      "x": 357,
      "y": 307,
      "size": 1,
      "price": "4683000000000000000000",
      "reserved": "",
      "salt": "0x52c53ac8372b089cf212aba45a7f749495b0ea718d51fd78a0404244629ddfd4",
      "assetIds": [
        "41506478881403507969696680653240014914910929820314476107906210059990541021188"
      ]
    },
    {
      "x": 357,
      "y": 308,
      "size": 1,
      "price": "4683000000000000000000",
      "reserved": "",
      "salt": "0x687b874b00cc117b25f16d7a7a6ccf918721f9aaba02bc9fcb6803a04a4b62d2",
      "assetIds": [
        "41506478881403507969696680653240014914910929820314476107906210059990541021189"
      ]
    },
    {
      "x": 358,
      "y": 252,
      "size": 1,
      "price": "4683000000000000000000",
      "reserved": "",
      "salt": "0x17171daa021f9fd67e9f05a1fc484cfa64053e9e66c5afdc5a8b47839a748c9b",
      "assetIds": [
        "41506478881403507969696680653240014914910929820314476107906210059990541021187"
      ]
    },
    {
      "x": 358,
      "y": 253,
      "size": 1,
      "price": "4683000000000000000000",
      "reserved": "",
      "salt": "0x670ab47cf8122bf6b101ddeb20264d36c069d05ff46b3e078dde6055fea3a691",
      "assetIds": [
        "41506478881403507969696680653240014914910929820314476107906210059990532622336"
      ]
    },
    {
      "x": 358,
      "y": 254,
      "size": 1,
      "price": "1011000000000000000000",
      "reserved": "0x7a9fe22691c811ea339d9b73150e6911a5343dca",
      "salt": "0x5c8633a73c71ead692b70c1539d4fdd0bf93edb338f5d334d708114661e6824d",
      "assetIds": []
    },
    {
      "x": 358,
      "y": 255,
      "size": 1,
      "price": "4683000000000000000000",
      "reserved": "",
      "salt": "0x7d34c8220d6586f39feeb165571d570e1b4b59c74ac328c1513c04a02d06303e",
      "assetIds": [
        "41506478881403507969696680653240014914910929820314476107906210059990541021188"
      ]
    },
    {
      "x": 358,
      "y": 256,
      "size": 1,
      "price": "4683000000000000000000",
      "reserved": "",
      "salt": "0x2d70dd3384430f75821cdf3b5cd6023f4298adde54ee2f94f700169bb842dc33",
      "assetIds": [
        "41506478881403507969696680653240014914910929820314476107906210059990541021185"
      ]
    },
    {
      "x": 358,
      "y": 257,
      "size": 1,
      "price": "4683000000000000000000",
      "reserved": "",
      "salt": "0x47f250f22ad59f952bf562f5b04513d272f03e4f5a7a7a4be7fac499a80e5f5c",
      "assetIds": [
        "41506478881403507969696680653240014914910929820314476107906210059990541021189"
      ]
    },
    {
      "x": 358,
      "y": 300,
      "size": 1,
      "price": "4683000000000000000000",
      "reserved": "",
      "salt": "0x72606f92575bb16b3f6073c1cf41272eefeb7137a23278e56b9f060b8bbd6bed",
      "assetIds": [
        "41506478881403507969696680653240014914910929820314476107906210059990541021184"
      ]
    },
    {
      "x": 358,
      "y": 301,
      "size": 1,
      "price": "4683000000000000000000",
      "reserved": "",
      "salt": "0xa158ec4f49344aac87c8008de2c4312971138b7827e219169530cf9149912eda",
      "assetIds": [
        "41506478881403507969696680653240014914910929820314476107906210059990541021185"
      ]
    },
    {
      "x": 358,
      "y": 302,
      "size": 1,
      "price": "4683000000000000000000",
      "reserved": "",
      "salt": "0x9ad7aab63ae6547a6e05ca3c81c371481fb86427ffb5c18fca5a6a01dbadba14",
      "assetIds": [
        "41506478881403507969696680653240014914910929820314476107906210059990541021185"
      ]
    },
    {
      "x": 358,
      "y": 306,
      "size": 1,
      "price": "4683000000000000000000",
      "reserved": "",
      "salt": "0x34591cd890c1ea466189a18a8e30b38a64d9ddb2e451b2fac40b7c33b13ae860",
      "assetIds": [
        "41506478881403507969696680653240014914910929820314476107906210059990541021186"
      ]
    },
    {
      "x": 358,
      "y": 307,
      "size": 1,
      "price": "4683000000000000000000",
      "reserved": "",
      "salt": "0xae2a7564da2b894a8079bdb95d653f2a7cb81062aa6da9b4444b023e7f1f892d",
      "assetIds": [
        "41506478881403507969696680653240014914910929820314476107906210059990541021185"
      ]
    },
    {
      "x": 358,
      "y": 308,
      "size": 1,
      "price": "4683000000000000000000",
      "reserved": "",
      "salt": "0x823e9393e6eaefff5496caae0b296322940941eb598d79f5bcd3e429ee7d68cf",
      "assetIds": [
        "41506478881403507969696680653240014914910929820314476107906210059990541021188"
      ]
    },
    {
      "x": 359,
      "y": 252,
      "size": 1,
      "price": "4683000000000000000000",
      "reserved": "",
      "salt": "0xe6b48704fcd89e5072901c34cb4b6968e72bb44d000cb4045059cc2920b4ec8a",
      "assetIds": [
        "41506478881403507969696680653240014914910929820314476107906210059990541021185"
      ]
    },
    {
      "x": 359,
      "y": 253,
      "size": 1,
      "price": "4683000000000000000000",
      "reserved": "",
      "salt": "0xbe8460e84b10ed498005728ebe31e48cbbc1f22bdb24161eda5a066ce820c16d",
      "assetIds": [
        "41506478881403507969696680653240014914910929820314476107906210059990541021188"
      ]
    },
    {
      "x": 359,
      "y": 254,
      "size": 1,
      "price": "4683000000000000000000",
      "reserved": "",
      "salt": "0xb63c309a6873e0d272e1238018811403660e4bd697829d8264bbc1749415cc0a",
      "assetIds": [
        "41506478881403507969696680653240014914910929820314476107906210059990541021188"
      ]
    },
    {
      "x": 359,
      "y": 255,
      "size": 1,
      "price": "4683000000000000000000",
      "reserved": "",
      "salt": "0x056857e51955cfad195c6087f6540f55d6eba6b1fd3a0092be706ea45d227d19",
      "assetIds": [
        "41506478881403507969696680653240014914910929820314476107906210059990532622336"
      ]
    },
    {
      "x": 359,
      "y": 256,
      "size": 1,
      "price": "4683000000000000000000",
      "reserved": "",
      "salt": "0x4c05941bf362a66a84bb918fcdd5cd13c9099d9ce9f96b6cf571e2c40c168522",
      "assetIds": [
        "41506478881403507969696680653240014914910929820314476107906210059990541021184"
      ]
    },
    {
      "x": 359,
      "y": 257,
      "size": 1,
      "price": "4683000000000000000000",
      "reserved": "",
      "salt": "0x7cf25a15d8ea47bd17de9b7cff57d8233f655709e47e7bbae45c63408c75ccf5",
      "assetIds": [
        "41506478881403507969696680653240014914910929820314476107906210059990532622336"
      ]
    },
    {
      "x": 359,
      "y": 300,
      "size": 1,
      "price": "4683000000000000000000",
      "reserved": "",
      "salt": "0x4953bb8651bfa548bafd28d947f3ef3951eb21eb5bdb9ed40539f5bd20394a48",
      "assetIds": [
        "41506478881403507969696680653240014914910929820314476107906210059990541021186"
      ]
    },
    {
      "x": 359,
      "y": 301,
      "size": 1,
      "price": "4683000000000000000000",
      "reserved": "",
      "salt": "0x571706697740d68ae1fd34dfa1db49606e505f2fe5a4a622015473e2f9caff26",
      "assetIds": [
        "41506478881403507969696680653240014914910929820314476107906210059990541021185"
      ]
    },
    {
      "x": 359,
      "y": 302,
      "size": 1,
      "price": "4683000000000000000000",
      "reserved": "",
      "salt": "0xfc97ed7020583618700a0ffbd8ff7365337fc7b77d11ddd108b86ba9ec93b42b",
      "assetIds": [
        "41506478881403507969696680653240014914910929820314476107906210059990541021186"
      ]
    },
    {
      "x": 359,
      "y": 306,
      "size": 1,
      "price": "4683000000000000000000",
      "reserved": "",
      "salt": "0xf6320bcfbf2b788f8d8e5d04de963ef0329e14c86fa5547f35d73e75bd81e001",
      "assetIds": [
        "41506478881403507969696680653240014914910929820314476107906210059990541021184"
      ]
    },
    {
      "x": 359,
      "y": 307,
      "size": 1,
      "price": "4683000000000000000000",
      "reserved": "",
      "salt": "0xb2c120e64038ec9b689e080901c4b3359a2c50011e8597e1ac17bddb67763c3f",
      "assetIds": [
        "41506478881403507969696680653240014914910929820314476107906210059990541021187"
      ]
    },
    {
      "x": 359,
      "y": 308,
      "size": 1,
      "price": "4683000000000000000000",
      "reserved": "",
      "salt": "0xabe4cc1df302ad2b4fffb5c83a9cd081b9344dd310b11e9a00cc3bb92528ea80",
      "assetIds": [
        "41506478881403507969696680653240014914910929820314476107906210059990541021187"
      ]
    },
    {
      "x": 360,
      "y": 270,
      "size": 1,
      "price": "4683000000000000000000",
      "reserved": "",
      "salt": "0x6185519d375f18d2089ab6f317720d9508e517608700910c93ab485806fc5502",
      "assetIds": [
        "41506478881403507969696680653240014914910929820314476107906210059990541021187"
      ]
    },
    {
      "x": 360,
      "y": 271,
      "size": 1,
      "price": "4683000000000000000000",
      "reserved": "",
      "salt": "0x81b52c62a302b438c9163451ee04742690a89c8871a011fa93d6e800adf501b3",
      "assetIds": [
        "41506478881403507969696680653240014914910929820314476107906210059990541021185"
      ]
    },
    {
      "x": 360,
      "y": 272,
      "size": 1,
      "price": "4683000000000000000000",
      "reserved": "",
      "salt": "0x29a0226cf5a0ed43255a17d2a166771962a8aba7cdf8813a42bac50238104c2d",
      "assetIds": [
        "41506478881403507969696680653240014914910929820314476107906210059990541021184"
      ]
    },
    {
      "x": 360,
      "y": 288,
      "size": 1,
      "price": "4683000000000000000000",
      "reserved": "",
      "salt": "0x961e948318dcfc48e39e8c06b17ed21c1d762af5319b5fd6a1109edbbec8db28",
      "assetIds": [
        "41506478881403507969696680653240014914910929820314476107906210059990541021187"
      ]
    },
    {
      "x": 360,
      "y": 289,
      "size": 1,
      "price": "4683000000000000000000",
      "reserved": "",
      "salt": "0x3b96f4a5f8adbd263f03ae57c2a1799a030cac607bfe819788c8f40613dd52d8",
      "assetIds": [
        "41506478881403507969696680653240014914910929820314476107906210059990541021188"
      ]
    },
    {
      "x": 360,
      "y": 290,
      "size": 1,
      "price": "4683000000000000000000",
      "reserved": "",
      "salt": "0x121c60f2203b2db6e39752716601b6241a346c536feddc04dd23b0636fb43719",
      "assetIds": [
        "41506478881403507969696680653240014914910929820314476107906210059990541021188"
      ]
    },
    {
      "x": 360,
      "y": 291,
      "size": 1,
      "price": "4683000000000000000000",
      "reserved": "",
      "salt": "0x6c6ef56909d7c05d70cab5aa5f12031713eacd0c9ad43743ed6d4b0e69ab38c6",
      "assetIds": [
        "41506478881403507969696680653240014914910929820314476107906210059990532622336"
      ]
    },
    {
      "x": 360,
      "y": 292,
      "size": 1,
      "price": "4683000000000000000000",
      "reserved": "",
      "salt": "0x9ff8b12c7ebc3e6be6f35c9bf8d100c7595526b32094d7cca574d340069e493e",
      "assetIds": [
        "41506478881403507969696680653240014914910929820314476107906210059990541021185"
      ]
    },
    {
      "x": 360,
      "y": 293,
      "size": 1,
      "price": "4683000000000000000000",
      "reserved": "",
      "salt": "0x92650cc1b54c43b5b41fe792c25a4555d13ae8e5d217ac6e1b7fc61dc86f0661",
      "assetIds": [
        "41506478881403507969696680653240014914910929820314476107906210059990541021187"
      ]
    },
    {
      "x": 360,
      "y": 297,
      "size": 1,
      "price": "4683000000000000000000",
      "reserved": "",
      "salt": "0x1e7e26cbc6aa5ee1a0e4b878569bcba8599c266ae9e8ece6b5a713dc5b0984f6",
      "assetIds": [
        "41506478881403507969696680653240014914910929820314476107906210059990541021186"
      ]
    },
    {
      "x": 360,
      "y": 298,
      "size": 1,
      "price": "4683000000000000000000",
      "reserved": "",
      "salt": "0x7d474b24cf377622e7a6a36916a402ca2f6d38a0d7f8886453d93c1923f6bba7",
      "assetIds": [
        "41506478881403507969696680653240014914910929820314476107906210059990541021185"
      ]
    },
    {
      "x": 360,
      "y": 299,
      "size": 1,
      "price": "4683000000000000000000",
      "reserved": "",
      "salt": "0xd0310331ce9570b1becbe67c737a9e0b94387b47a449267078dcb82d9b977060",
      "assetIds": [
        "41506478881403507969696680653240014914910929820314476107906210059990541021186"
      ]
    },
    {
      "x": 360,
      "y": 300,
      "size": 1,
      "price": "4683000000000000000000",
      "reserved": "",
      "salt": "0xb2235b96dc1b4af176c31b615dd145661138d6bd9b49f4116080aefb0fcf40e6",
      "assetIds": [
        "41506478881403507969696680653240014914910929820314476107906210059990541021189"
      ]
    },
    {
      "x": 360,
      "y": 301,
      "size": 1,
      "price": "4683000000000000000000",
      "reserved": "",
      "salt": "0xda0f95e1a8d6c2361679f9165ea1c827f401f28afa44061900de660656820640",
      "assetIds": [
        "41506478881403507969696680653240014914910929820314476107906210059990541021186"
      ]
    },
    {
      "x": 360,
      "y": 302,
      "size": 1,
      "price": "4683000000000000000000",
      "reserved": "",
      "salt": "0x9814c96f35affd450aa15becd8a84471ad6023246d2e819501a77be8c7edfe74",
      "assetIds": [
        "41506478881403507969696680653240014914910929820314476107906210059990541021185"
      ]
    },
    {
      "x": 360,
      "y": 303,
      "size": 1,
      "price": "4683000000000000000000",
      "reserved": "",
      "salt": "0xed5463b48ad685803c3b31b99c0ad0cc84f687d1916084b5761d29b674a17a50",
      "assetIds": [
        "41506478881403507969696680653240014914910929820314476107906210059990541021184"
      ]
    },
    {
      "x": 360,
      "y": 304,
      "size": 1,
      "price": "4683000000000000000000",
      "reserved": "",
      "salt": "0xed71e61f52eceb828a31f22f97256a65bd58116cb9d2e311c99ca35267ca73ec",
      "assetIds": [
        "41506478881403507969696680653240014914910929820314476107906210059990532622336"
      ]
    },
    {
      "x": 360,
      "y": 305,
      "size": 1,
      "price": "4683000000000000000000",
      "reserved": "",
      "salt": "0x0ba63e7ce035f26399e2720864b12fed8c70c2a7d0575de06ebcb2f69276d5f5",
      "assetIds": [
        "41506478881403507969696680653240014914910929820314476107906210059990541021185"
      ]
    },
    {
      "x": 360,
      "y": 306,
      "size": 1,
      "price": "4683000000000000000000",
      "reserved": "",
      "salt": "0x86177d7580a584beeaaec544b01ca72e8b289c089e00af986d7e03e746baf911",
      "assetIds": [
        "41506478881403507969696680653240014914910929820314476107906210059990541021187"
      ]
    },
    {
      "x": 360,
      "y": 307,
      "size": 1,
      "price": "4683000000000000000000",
      "reserved": "",
      "salt": "0x4056fd74e81665ca5dab4ea4993b180649295d8549f5f4a60111f95274d5b775",
      "assetIds": [
        "41506478881403507969696680653240014914910929820314476107906210059990532622336"
      ]
    },
    {
      "x": 360,
      "y": 308,
      "size": 1,
      "price": "4683000000000000000000",
      "reserved": "",
      "salt": "0xe69fd4e71fb9b8099f92db50b3f2ef06534ed7a245bed5eed9540804a788cd85",
      "assetIds": [
        "41506478881403507969696680653240014914910929820314476107906210059990532622336"
      ]
    },
    {
      "x": 361,
      "y": 270,
      "size": 1,
      "price": "4683000000000000000000",
      "reserved": "",
      "salt": "0x7acf8e32300916ed8f846409d5932331264ba01ba1e0795b7acad240782d4888",
      "assetIds": [
        "41506478881403507969696680653240014914910929820314476107906210059990541021188"
      ]
    },
    {
      "x": 361,
      "y": 271,
      "size": 1,
      "price": "4683000000000000000000",
      "reserved": "",
      "salt": "0x57e3b8e39a95d9eaf2742c070bab0204608ab4f28bfc0dab3b7d17a80cde124d",
      "assetIds": [
        "41506478881403507969696680653240014914910929820314476107906210059990541021187"
      ]
    },
    {
      "x": 361,
      "y": 272,
      "size": 1,
      "price": "4683000000000000000000",
      "reserved": "",
      "salt": "0x9e233cca8968912ada025abb54854d246ffd2d92e54abe854fae2d4a5ed09f2f",
      "assetIds": [
        "41506478881403507969696680653240014914910929820314476107906210059990541021184"
      ]
    },
    {
      "x": 361,
      "y": 288,
      "size": 1,
      "price": "4683000000000000000000",
      "reserved": "",
      "salt": "0x4a9e778bf2987c4b4322942430bc98a2b7fd08dcb5516be9f8e0321784d8a0ad",
      "assetIds": [
        "41506478881403507969696680653240014914910929820314476107906210059990541021184"
      ]
    },
    {
      "x": 361,
      "y": 289,
      "size": 1,
      "price": "4683000000000000000000",
      "reserved": "",
      "salt": "0x40c8ec75bdfedf33a27ed86a6c6defd6293a2373a352b971fa81d5b25eab5428",
      "assetIds": [
        "41506478881403507969696680653240014914910929820314476107906210059990541021184"
      ]
    },
    {
      "x": 361,
      "y": 290,
      "size": 1,
      "price": "4683000000000000000000",
      "reserved": "",
      "salt": "0xe0f1c52aae4748b62b49decb644794c4dd0c56921be71f2b5b8bf1bdb613ecac",
      "assetIds": [
        "41506478881403507969696680653240014914910929820314476107906210059990541021189"
      ]
    },
    {
      "x": 361,
      "y": 291,
      "size": 1,
      "price": "4683000000000000000000",
      "reserved": "",
      "salt": "0x4f5e7f2cea686a261e13926cd4ecd1ca5844e01dfb44878c51786b7acaa01db1",
      "assetIds": [
        "41506478881403507969696680653240014914910929820314476107906210059990541021185"
      ]
    },
    {
      "x": 361,
      "y": 292,
      "size": 1,
      "price": "4683000000000000000000",
      "reserved": "",
      "salt": "0x9869f6c6fe2e54f9fe7baee757fcae633c56f6ac48255b38399654645198baa2",
      "assetIds": [
        "41506478881403507969696680653240014914910929820314476107906210059990541021184"
      ]
    },
    {
      "x": 361,
      "y": 293,
      "size": 1,
      "price": "4683000000000000000000",
      "reserved": "",
      "salt": "0xd462fc600a0394e220ea39da1477bac5fca94190ef5af6a8f4eeafda323eac61",
      "assetIds": [
        "41506478881403507969696680653240014914910929820314476107906210059990541021189"
      ]
    },
    {
      "x": 361,
      "y": 297,
      "size": 1,
      "price": "4683000000000000000000",
      "reserved": "",
      "salt": "0x4590664e4b249fcedc6d1420701210f10bacd5164fcf5adbe0f69e9c063da1cc",
      "assetIds": [
        "41506478881403507969696680653240014914910929820314476107906210059990541021184"
      ]
    },
    {
      "x": 361,
      "y": 298,
      "size": 1,
      "price": "4683000000000000000000",
      "reserved": "",
      "salt": "0x2a64e36d0b92fe3ff7d31907dc6a260bd7af8c2725035c28b69302341573b573",
      "assetIds": [
        "41506478881403507969696680653240014914910929820314476107906210059990541021188"
      ]
    },
    {
      "x": 361,
      "y": 299,
      "size": 1,
      "price": "4683000000000000000000",
      "reserved": "",
      "salt": "0x2362933e509508ea5119792ee371db5d75d61ef089d045ddb9a95e83e3ff8f1f",
      "assetIds": [
        "41506478881403507969696680653240014914910929820314476107906210059990541021186"
      ]
    },
    {
      "x": 361,
      "y": 300,
      "size": 1,
      "price": "4683000000000000000000",
      "reserved": "",
      "salt": "0xae3b2e8d6100ccdab73b8ad277502d542af5d1f063c90651e96cc712d88e5074",
      "assetIds": [
        "41506478881403507969696680653240014914910929820314476107906210059990541021188"
      ]
    },
    {
      "x": 361,
      "y": 301,
      "size": 1,
      "price": "4683000000000000000000",
      "reserved": "",
      "salt": "0x331591fa65a176319e67b429f2a0e3536cf7f65268025903c5fc15ac49b75894",
      "assetIds": [
        "41506478881403507969696680653240014914910929820314476107906210059990532622336"
      ]
    },
    {
      "x": 361,
      "y": 302,
      "size": 1,
      "price": "4683000000000000000000",
      "reserved": "",
      "salt": "0x7a8e22af4d73a2b4e7e547b3cd318fd374f6417fbc34b891ae34f1ec41fe0c94",
      "assetIds": [
        "41506478881403507969696680653240014914910929820314476107906210059990541021187"
      ]
    },
    {
      "x": 361,
      "y": 303,
      "size": 1,
      "price": "4683000000000000000000",
      "reserved": "",
      "salt": "0xe4bb83e643325b2e81b86356e8405f53c1c84d895ea5e4609cbd8a0930f1eae4",
      "assetIds": [
        "41506478881403507969696680653240014914910929820314476107906210059990541021186"
      ]
    },
    {
      "x": 361,
      "y": 304,
      "size": 1,
      "price": "4683000000000000000000",
      "reserved": "",
      "salt": "0xd74e5ee866490501a6ec6371312714755fd79d3726cf9dff322c15c395aa742c",
      "assetIds": [
        "41506478881403507969696680653240014914910929820314476107906210059990541021189"
      ]
    },
    {
      "x": 361,
      "y": 305,
      "size": 1,
      "price": "4683000000000000000000",
      "reserved": "",
      "salt": "0xc92dc2b0811e03739ff3bf77867663cf0adf0c1aaf200518349e3bfbad884dc8",
      "assetIds": [
        "41506478881403507969696680653240014914910929820314476107906210059990541021184"
      ]
    },
    {
      "x": 361,
      "y": 306,
      "size": 1,
      "price": "4683000000000000000000",
      "reserved": "",
      "salt": "0xe73c8018e9bc55aefed95b0f030f4df72164e280412b78be0be250da8ebe98d4",
      "assetIds": [
        "41506478881403507969696680653240014914910929820314476107906210059990541021185"
      ]
    },
    {
      "x": 361,
      "y": 307,
      "size": 1,
      "price": "4683000000000000000000",
      "reserved": "",
      "salt": "0xa5f70d939ab7323ec2c3a885b943e35764b5f90030c613140011a340bd20fe1e",
      "assetIds": [
        "41506478881403507969696680653240014914910929820314476107906210059990541021187"
      ]
    },
    {
      "x": 361,
      "y": 308,
      "size": 1,
      "price": "4683000000000000000000",
      "reserved": "",
      "salt": "0x2429ec49f7daa03e93200245d1a8955bd671102379eb4eb56e1b699dceb25833",
      "assetIds": [
        "41506478881403507969696680653240014914910929820314476107906210059990541021184"
      ]
    },
    {
      "x": 362,
      "y": 270,
      "size": 1,
      "price": "4683000000000000000000",
      "reserved": "",
      "salt": "0x86ae3f870e9f22b3aa7d3d1e86b9a7d0a7a51c76c7db2aa9f70463e4da9ef4e9",
      "assetIds": [
        "41506478881403507969696680653240014914910929820314476107906210059990541021189"
      ]
    },
    {
      "x": 362,
      "y": 271,
      "size": 1,
      "price": "4683000000000000000000",
      "reserved": "",
      "salt": "0x1e060cad3401cbfdb6b1671976328f4a73916d110b91ee09ea716a02574f9599",
      "assetIds": [
        "41506478881403507969696680653240014914910929820314476107906210059990541021188"
      ]
    },
    {
      "x": 362,
      "y": 272,
      "size": 1,
      "price": "4683000000000000000000",
      "reserved": "",
      "salt": "0x70c906a44ce82a03efe3939e84b8ccec6eb0ecdd481d511b84601f481a586d48",
      "assetIds": [
        "41506478881403507969696680653240014914910929820314476107906210059990541021184"
      ]
    },
    {
      "x": 362,
      "y": 288,
      "size": 1,
      "price": "4683000000000000000000",
      "reserved": "",
      "salt": "0x425d73dbdffe6ee2f2f4509eca3922eba0ed1286c747aa9676c9f00897f2abee",
      "assetIds": [
        "41506478881403507969696680653240014914910929820314476107906210059990541021184"
      ]
    },
    {
      "x": 362,
      "y": 289,
      "size": 1,
      "price": "4683000000000000000000",
      "reserved": "",
      "salt": "0xcfdf90449da7e04e4c858208b696923795c09631c637de74481a21b4a3635f62",
      "assetIds": [
        "41506478881403507969696680653240014914910929820314476107906210059990541021187"
      ]
    },
    {
      "x": 362,
      "y": 290,
      "size": 1,
      "price": "4683000000000000000000",
      "reserved": "",
      "salt": "0xc8e4191cd5d090213117c1bb4489327a43dbc3892793afcd374c0067ff0c3b47",
      "assetIds": [
        "41506478881403507969696680653240014914910929820314476107906210059990541021189"
      ]
    },
    {
      "x": 362,
      "y": 291,
      "size": 1,
      "price": "4683000000000000000000",
      "reserved": "",
      "salt": "0x2c71e58e3ebcb637086d3e21b210a3fa4cb37ff5d00750f1303907fe7f4ab2c4",
      "assetIds": [
        "41506478881403507969696680653240014914910929820314476107906210059990541021187"
      ]
    },
    {
      "x": 362,
      "y": 292,
      "size": 1,
      "price": "4683000000000000000000",
      "reserved": "",
      "salt": "0x9ca5e0114d9fc1f9ee07509bc36053aa5b534fc1ebde92fd94d7629017d07301",
      "assetIds": [
        "41506478881403507969696680653240014914910929820314476107906210059990532622336"
      ]
    },
    {
      "x": 362,
      "y": 293,
      "size": 1,
      "price": "4683000000000000000000",
      "reserved": "",
      "salt": "0xa65016b5bc7d4aa54d18624eeaa5d363478357aa1622a041076900ee60ee16d0",
      "assetIds": [
        "41506478881403507969696680653240014914910929820314476107906210059990541021188"
      ]
    },
    {
      "x": 362,
      "y": 297,
      "size": 1,
      "price": "4683000000000000000000",
      "reserved": "",
      "salt": "0x0249ba4937dd8953ae3c0daab572be39add311a02e6b1fad18d48a5fdc9a004a",
      "assetIds": [
        "41506478881403507969696680653240014914910929820314476107906210059990541021186"
      ]
    },
    {
      "x": 362,
      "y": 298,
      "size": 1,
      "price": "4683000000000000000000",
      "reserved": "",
      "salt": "0x36bab172fb3818df732fa988bd6bda78aac8240f8512c03ed259741df5cfde91",
      "assetIds": [
        "41506478881403507969696680653240014914910929820314476107906210059990541021186"
      ]
    },
    {
      "x": 362,
      "y": 299,
      "size": 1,
      "price": "4683000000000000000000",
      "reserved": "",
      "salt": "0xbd75d1ea798a8eac47a02eeddeae835002db356debe2ef0cd3597417f565b17b",
      "assetIds": [
        "41506478881403507969696680653240014914910929820314476107906210059990541021185"
      ]
    },
    {
      "x": 362,
      "y": 300,
      "size": 1,
      "price": "4683000000000000000000",
      "reserved": "",
      "salt": "0xde9251f603ab79d502b3a9d7d714cc3554708405a862da7c1e30a7af68039b06",
      "assetIds": [
        "41506478881403507969696680653240014914910929820314476107906210059990541021189"
      ]
    },
    {
      "x": 362,
      "y": 301,
      "size": 1,
      "price": "4683000000000000000000",
      "reserved": "",
      "salt": "0x83848e02c676989d3a0a462674ac4acea6709397f448a0a7297babd8b7517453",
      "assetIds": [
        "41506478881403507969696680653240014914910929820314476107906210059990532622336"
      ]
    },
    {
      "x": 362,
      "y": 302,
      "size": 1,
      "price": "4683000000000000000000",
      "reserved": "",
      "salt": "0x16ee7bbff9c53714967228204460d261882d683fbe330ee91fee7dba47ba2fa7",
      "assetIds": [
        "41506478881403507969696680653240014914910929820314476107906210059990541021189"
      ]
    },
    {
      "x": 362,
      "y": 303,
      "size": 1,
      "price": "4683000000000000000000",
      "reserved": "",
      "salt": "0xc729f0450b2252bbca8c2e61040243ff3a28f4a7380731c558faebf517bc4340",
      "assetIds": [
        "41506478881403507969696680653240014914910929820314476107906210059990541021187"
      ]
    },
    {
      "x": 362,
      "y": 304,
      "size": 1,
      "price": "4683000000000000000000",
      "reserved": "",
      "salt": "0x6f521bb46e98f75cd63a6c9153865a7c35d0f3f053fe3cf37b2d98c8cb564fbf",
      "assetIds": [
        "41506478881403507969696680653240014914910929820314476107906210059990541021187"
      ]
    },
    {
      "x": 362,
      "y": 305,
      "size": 1,
      "price": "4683000000000000000000",
      "reserved": "",
      "salt": "0xaf4c19ce2064ecea77fe8b8168fc39a148ddd65cb2b400a1fd2fb20c16c5974a",
      "assetIds": [
        "41506478881403507969696680653240014914910929820314476107906210059990541021185"
      ]
    },
    {
      "x": 362,
      "y": 306,
      "size": 1,
      "price": "4683000000000000000000",
      "reserved": "",
      "salt": "0xd18a709f610b64f752b5af0f608a8169fc689ccedbe83216d0c88221b871d0d4",
      "assetIds": [
        "41506478881403507969696680653240014914910929820314476107906210059990541021189"
      ]
    },
    {
      "x": 362,
      "y": 307,
      "size": 1,
      "price": "4683000000000000000000",
      "reserved": "",
      "salt": "0xde130e7006a903d6aab1af2f545b7f3c6e63622b6865bfbb1eb97622e2bf73cb",
      "assetIds": [
        "41506478881403507969696680653240014914910929820314476107906210059990541021188"
      ]
    },
    {
      "x": 362,
      "y": 308,
      "size": 1,
      "price": "4683000000000000000000",
      "reserved": "",
      "salt": "0xf7dc70cb29be3285851d6e197e0f54818493955f7d78e36b08ef27872a51f5ce",
      "assetIds": [
        "41506478881403507969696680653240014914910929820314476107906210059990541021189"
      ]
    },
    {
      "x": 363,
      "y": 270,
      "size": 1,
      "price": "4683000000000000000000",
      "reserved": "",
      "salt": "0xd0ea3a4bfaf0ab40743ae9707a24323dac716aa13ac9b82623f8793e5bbc7890",
      "assetIds": [
        "41506478881403507969696680653240014914910929820314476107906210059990541021189"
      ]
    },
    {
      "x": 363,
      "y": 271,
      "size": 1,
      "price": "4683000000000000000000",
      "reserved": "",
      "salt": "0xa2cdd3e181cf38cf15fd341f43e17a51af6c1099d4a97efb08c6f7d06a8b877e",
      "assetIds": [
        "41506478881403507969696680653240014914910929820314476107906210059990541021185"
      ]
    },
    {
      "x": 363,
      "y": 272,
      "size": 1,
      "price": "4683000000000000000000",
      "reserved": "",
      "salt": "0xaba8b5cae4190bfbad4a14059725b8b6e3f3953515aa81753f9b9f12a607045a",
      "assetIds": [
        "41506478881403507969696680653240014914910929820314476107906210059990541021184"
      ]
    },
    {
      "x": 363,
      "y": 273,
      "size": 1,
      "price": "4683000000000000000000",
      "reserved": "",
      "salt": "0x8592cfb67511e78538050364d7ae9691604ca2d8ed26ccd9435167cba5071420",
      "assetIds": [
        "41506478881403507969696680653240014914910929820314476107906210059990541021186"
      ]
    },
    {
      "x": 363,
      "y": 274,
      "size": 1,
      "price": "4683000000000000000000",
      "reserved": "",
      "salt": "0x1d620b308e981fab063f6eab50ef5b620ef04ee9c75049ceed010074029e0973",
      "assetIds": [
        "41506478881403507969696680653240014914910929820314476107906210059990532622336"
      ]
    },
    {
      "x": 363,
      "y": 275,
      "size": 1,
      "price": "4683000000000000000000",
      "reserved": "",
      "salt": "0x3abf35eba19c26ea698484e47d6d2d2a2bfc57d21ade5fba02280620321608bb",
      "assetIds": [
        "41506478881403507969696680653240014914910929820314476107906210059990541021184"
      ]
    },
    {
      "x": 363,
      "y": 288,
      "size": 1,
      "price": "4683000000000000000000",
      "reserved": "",
      "salt": "0x6edbe7d8efab162aba37a0f9a003a0bac1bd7eec96d2001681c03970893d8945",
      "assetIds": [
        "41506478881403507969696680653240014914910929820314476107906210059990541021189"
      ]
    },
    {
      "x": 363,
      "y": 289,
      "size": 1,
      "price": "1011000000000000000000",
      "reserved": "0x7a9fe22691c811ea339d9b73150e6911a5343dca",
      "salt": "0x2ea243598bb5bb1ed9dbb5c20a72de5ebb97e72f8492de36a5a005f0ab143c1b",
      "assetIds": []
    },
    {
      "x": 363,
      "y": 290,
      "size": 1,
      "price": "4683000000000000000000",
      "reserved": "",
      "salt": "0xef7d4469845fedb47b71ffa963ec9e6ed7b07143f8398e37fe8fae385f246c1a",
      "assetIds": [
        "41506478881403507969696680653240014914910929820314476107906210059990541021185"
      ]
    },
    {
      "x": 363,
      "y": 291,
      "size": 1,
      "price": "4683000000000000000000",
      "reserved": "",
      "salt": "0xae41cf614ccc8506587c8c8ec3ee01358ec68d15629d7748abfcbc1613840d48",
      "assetIds": [
        "41506478881403507969696680653240014914910929820314476107906210059990541021187"
      ]
    },
    {
      "x": 363,
      "y": 292,
      "size": 1,
      "price": "4683000000000000000000",
      "reserved": "",
      "salt": "0xdc364ee8ecef1ccb0d504f3d4a00b80d7c1aacdf5c860397e46c38d8f2ce9fc9",
      "assetIds": [
        "41506478881403507969696680653240014914910929820314476107906210059990541021186"
      ]
    },
    {
      "x": 363,
      "y": 293,
      "size": 1,
      "price": "4683000000000000000000",
      "reserved": "",
      "salt": "0xcca4966f5e535f358fd4c189a94590d3139bfab22e1888b2311765e3e91e0ef0",
      "assetIds": [
        "41506478881403507969696680653240014914910929820314476107906210059990541021186"
      ]
    },
    {
      "x": 363,
      "y": 294,
      "size": 1,
      "price": "4683000000000000000000",
      "reserved": "",
      "salt": "0x6738bfe5c5669f4ea847cf9a0eec8462ccf433e48aa449dadf98c021855de84e",
      "assetIds": [
        "41506478881403507969696680653240014914910929820314476107906210059990541021185"
      ]
    },
    {
      "x": 363,
      "y": 295,
      "size": 1,
      "price": "4683000000000000000000",
      "reserved": "",
      "salt": "0xdcf8cb3397ae99352d901b7dc7df25da137d10efc89fb85df8e0892b00753a1e",
      "assetIds": [
        "41506478881403507969696680653240014914910929820314476107906210059990541021188"
      ]
    },
    {
      "x": 363,
      "y": 296,
      "size": 1,
      "price": "4683000000000000000000",
      "reserved": "",
      "salt": "0xa7aec3431aaeaf485d1ce480eb09227362f5f3f7f6e2062d99d4f3cbdec23638",
      "assetIds": [
        "41506478881403507969696680653240014914910929820314476107906210059990541021188"
      ]
    },
    {
      "x": 363,
      "y": 297,
      "size": 1,
      "price": "4683000000000000000000",
      "reserved": "",
      "salt": "0x4de4af1979712aa81d197aea47802ce2948175330a9d17af44d3a974518f0615",
      "assetIds": [
        "41506478881403507969696680653240014914910929820314476107906210059990541021188"
      ]
    },
    {
      "x": 363,
      "y": 298,
      "size": 1,
      "price": "4683000000000000000000",
      "reserved": "",
      "salt": "0x38a0d6221d5478be40bc22141f666101ca8f9dab747307f33f3cd87b865e9bd5",
      "assetIds": [
        "41506478881403507969696680653240014914910929820314476107906210059990532622336"
      ]
    },
    {
      "x": 363,
      "y": 299,
      "size": 1,
      "price": "1011000000000000000000",
      "reserved": "0x7a9fe22691c811ea339d9b73150e6911a5343dca",
      "salt": "0x454b6a435e8c2546f5a9c79ac322b88912d3cb5420f17f9f4159a2779cd691f8",
      "assetIds": []
    },
    {
      "x": 363,
      "y": 300,
      "size": 1,
      "price": "4683000000000000000000",
      "reserved": "",
      "salt": "0xbe87dc073e3a4f2d3376a6131b34c5bbe61091dda47f270bcb9f4dd481ca7f92",
      "assetIds": [
        "41506478881403507969696680653240014914910929820314476107906210059990541021185"
      ]
    },
    {
      "x": 363,
      "y": 301,
      "size": 1,
      "price": "4683000000000000000000",
      "reserved": "",
      "salt": "0x889627f3ef3297d423d25a0c08cdf39bda176a499187eaead3d5e5fc810dc931",
      "assetIds": [
        "41506478881403507969696680653240014914910929820314476107906210059990541021185"
      ]
    },
    {
      "x": 363,
      "y": 302,
      "size": 1,
      "price": "4683000000000000000000",
      "reserved": "",
      "salt": "0x3b6f50a61bf2a4bc9834ba4d046a2004a43b7ee7149c47e14f77e500e92f376e",
      "assetIds": [
        "41506478881403507969696680653240014914910929820314476107906210059990541021185"
      ]
    },
    {
      "x": 363,
      "y": 303,
      "size": 1,
      "price": "4683000000000000000000",
      "reserved": "",
      "salt": "0x21d9016a36c79d10f0afb017b645f6ebab538fa1c0167f1831c89c3764ac1c63",
      "assetIds": [
        "41506478881403507969696680653240014914910929820314476107906210059990541021189"
      ]
    },
    {
      "x": 363,
      "y": 304,
      "size": 1,
      "price": "1011000000000000000000",
      "reserved": "0x7a9fe22691c811ea339d9b73150e6911a5343dca",
      "salt": "0xa0af8a9104f524aba58d8f79a2e9cea6a56366605b731ba64d4c38370c8d8fad",
      "assetIds": []
    },
    {
      "x": 363,
      "y": 305,
      "size": 1,
      "price": "4683000000000000000000",
      "reserved": "",
      "salt": "0x60772c39199d89c5a486a944921504227f591c241f15cbb6e5c81558220034ba",
      "assetIds": [
        "41506478881403507969696680653240014914910929820314476107906210059990541021187"
      ]
    },
    {
      "x": 363,
      "y": 306,
      "size": 1,
      "price": "4683000000000000000000",
      "reserved": "",
      "salt": "0x318919859836602ef65362cce3d5ebeb68bc3c78d0b8fca8611d59611001a9c5",
      "assetIds": [
        "41506478881403507969696680653240014914910929820314476107906210059990541021186"
      ]
    },
    {
      "x": 363,
      "y": 307,
      "size": 1,
      "price": "4683000000000000000000",
      "reserved": "",
      "salt": "0xc8a9ff476a3967e090369341296934d345960e4376bc052b911a1818eebdde12",
      "assetIds": [
        "41506478881403507969696680653240014914910929820314476107906210059990541021185"
      ]
    },
    {
      "x": 363,
      "y": 308,
      "size": 1,
      "price": "4683000000000000000000",
      "reserved": "",
      "salt": "0x14fa6d10bbb5ffe9b4b31a05005a7997582eaa586e2df5f7f1a3f6ccb6a26f9b",
      "assetIds": [
        "41506478881403507969696680653240014914910929820314476107906210059990541021186"
      ]
    },
    {
      "x": 364,
      "y": 270,
      "size": 1,
      "price": "4683000000000000000000",
      "reserved": "",
      "salt": "0xa8581e0d52dade408204d8abe90ef0397e1e9072eab0b3c4de2ae4b23829a6f3",
      "assetIds": [
        "41506478881403507969696680653240014914910929820314476107906210059990541021189"
      ]
    },
    {
      "x": 364,
      "y": 271,
      "size": 1,
      "price": "4683000000000000000000",
      "reserved": "",
      "salt": "0x8f8fa15efe0bc6edb04d5e7e78774fe033a20c9e1afaf22d8246e410f1ae4de3",
      "assetIds": [
        "41506478881403507969696680653240014914910929820314476107906210059990541021189"
      ]
    },
    {
      "x": 364,
      "y": 272,
      "size": 1,
      "price": "4683000000000000000000",
      "reserved": "",
      "salt": "0x4d46cf5217cf96b5f8634ac08e8990e8dcf812657e4658c297ac6bac1c3a4f6a",
      "assetIds": [
        "41506478881403507969696680653240014914910929820314476107906210059990541021187"
      ]
    },
    {
      "x": 364,
      "y": 273,
      "size": 1,
      "price": "4683000000000000000000",
      "reserved": "",
      "salt": "0x3dad7aa611f61891fac7e937d149f9a05dec4236358880c7f34308e0939408aa",
      "assetIds": [
        "41506478881403507969696680653240014914910929820314476107906210059990541021186"
      ]
    },
    {
      "x": 364,
      "y": 274,
      "size": 1,
      "price": "4683000000000000000000",
      "reserved": "",
      "salt": "0xe995fcccc194f719f2e8e0747d1717839d15cece3e8df597de92963b37672e36",
      "assetIds": [
        "41506478881403507969696680653240014914910929820314476107906210059990532622336"
      ]
    },
    {
      "x": 364,
      "y": 275,
      "size": 1,
      "price": "4683000000000000000000",
      "reserved": "",
      "salt": "0x2899c6fd6414c6ce4f8083c122b86be2a8f76a26ec8acfa63a4058e8088c3361",
      "assetIds": [
        "41506478881403507969696680653240014914910929820314476107906210059990541021188"
      ]
    },
    {
      "x": 364,
      "y": 288,
      "size": 1,
      "price": "4683000000000000000000",
      "reserved": "",
      "salt": "0x8d9ecbd36ce505407df6774664ceedbcbdfbeb9f1968e19e922b39520c679403",
      "assetIds": [
        "41506478881403507969696680653240014914910929820314476107906210059990532622336"
      ]
    },
    {
      "x": 364,
      "y": 289,
      "size": 1,
      "price": "4683000000000000000000",
      "reserved": "",
      "salt": "0x33c929323f2c59596e777f59c9b067b459cd9a8a615c26f7ab498bbc25cb6d82",
      "assetIds": [
        "41506478881403507969696680653240014914910929820314476107906210059990541021186"
      ]
    },
    {
      "x": 364,
      "y": 290,
      "size": 1,
      "price": "4683000000000000000000",
      "reserved": "",
      "salt": "0x915fa1baa958d40965bbe5e32055dab819c6b589b95baf571c6430b8a693f862",
      "assetIds": [
        "41506478881403507969696680653240014914910929820314476107906210059990541021184"
      ]
    },
    {
      "x": 364,
      "y": 291,
      "size": 1,
      "price": "4683000000000000000000",
      "reserved": "",
      "salt": "0xef50f9b611c9a6eb3a1951c03a92264d9c2b0d40538f5a2f41597c0a3d06891f",
      "assetIds": [
        "41506478881403507969696680653240014914910929820314476107906210059990541021185"
      ]
    },
    {
      "x": 364,
      "y": 292,
      "size": 1,
      "price": "4683000000000000000000",
      "reserved": "",
      "salt": "0x1aadd63370825b3bc1054d522b8b260b04768ae472ac7d03a4ae8fac6519e6ee",
      "assetIds": [
        "41506478881403507969696680653240014914910929820314476107906210059990541021187"
      ]
    },
    {
      "x": 364,
      "y": 293,
      "size": 1,
      "price": "4683000000000000000000",
      "reserved": "",
      "salt": "0xafb1a6ee5dddd9f5cb7904120ff852a549577a89aa64307c0e5e252e3b7d7cd6",
      "assetIds": [
        "41506478881403507969696680653240014914910929820314476107906210059990541021186"
      ]
    },
    {
      "x": 364,
      "y": 294,
      "size": 1,
      "price": "4683000000000000000000",
      "reserved": "",
      "salt": "0x12ed1efcc64d971a15070cacb7791bfdb3a2acd5625ee0190b3c302434fb24ae",
      "assetIds": [
        "41506478881403507969696680653240014914910929820314476107906210059990541021184"
      ]
    },
    {
      "x": 364,
      "y": 295,
      "size": 1,
      "price": "4683000000000000000000",
      "reserved": "",
      "salt": "0x38017a2c7f940893f806a39b811eec55e152b2496e2d4a1ba0001a335d88a98a",
      "assetIds": [
        "41506478881403507969696680653240014914910929820314476107906210059990541021189"
      ]
    },
    {
      "x": 364,
      "y": 296,
      "size": 1,
      "price": "4683000000000000000000",
      "reserved": "",
      "salt": "0x103faf9d35ceaba971317f3bae1f6630116e6f481052888fc3fdf554e78dad7d",
      "assetIds": [
        "41506478881403507969696680653240014914910929820314476107906210059990541021184"
      ]
    },
    {
      "x": 364,
      "y": 297,
      "size": 1,
      "price": "4683000000000000000000",
      "reserved": "",
      "salt": "0x211aa8093c6e6861a681fb73056bec18889411ae3dde1b59c086d6e808d9f801",
      "assetIds": [
        "41506478881403507969696680653240014914910929820314476107906210059990541021184"
      ]
    },
    {
      "x": 364,
      "y": 298,
      "size": 1,
      "price": "4683000000000000000000",
      "reserved": "",
      "salt": "0x862a8e9218dbde6c6c66a808e9b273224fd9d032f08ce1c1b911893e52d0bc9c",
      "assetIds": [
        "41506478881403507969696680653240014914910929820314476107906210059990541021185"
      ]
    },
    {
      "x": 364,
      "y": 299,
      "size": 1,
      "price": "4683000000000000000000",
      "reserved": "",
      "salt": "0x20f6612180a473a80c478dd06c855fe7b91cca0400522088d620e1de8f4f2007",
      "assetIds": [
        "41506478881403507969696680653240014914910929820314476107906210059990541021188"
      ]
    },
    {
      "x": 364,
      "y": 300,
      "size": 1,
      "price": "4683000000000000000000",
      "reserved": "",
      "salt": "0xcf8af388ff88d4b9e47ac9e3f3254fc04a0cad483de8f0bbb8d4b853b13c8bf4",
      "assetIds": [
        "41506478881403507969696680653240014914910929820314476107906210059990532622336"
      ]
    },
    {
      "x": 364,
      "y": 301,
      "size": 1,
      "price": "4683000000000000000000",
      "reserved": "",
      "salt": "0xda080dea0459385cf10b1df661090251060a2b9f73cadcfbbf0df3476fa2319b",
      "assetIds": [
        "41506478881403507969696680653240014914910929820314476107906210059990541021188"
      ]
    },
    {
      "x": 364,
      "y": 302,
      "size": 1,
      "price": "4683000000000000000000",
      "reserved": "",
      "salt": "0x5490e50eb7ee39f8c59c5f70e1fa6fdf36032080af153eccd4bfb54802ebe4eb",
      "assetIds": [
        "41506478881403507969696680653240014914910929820314476107906210059990541021184"
      ]
    },
    {
      "x": 364,
      "y": 303,
      "size": 1,
      "price": "4683000000000000000000",
      "reserved": "",
      "salt": "0x739828901e11e7d35075e5cc37e0035531ed8aa642e65a554f8f51e950505829",
      "assetIds": [
        "41506478881403507969696680653240014914910929820314476107906210059990532622336"
      ]
    },
    {
      "x": 364,
      "y": 304,
      "size": 1,
      "price": "4683000000000000000000",
      "reserved": "",
      "salt": "0xd2c4baec8c80a36a0d9ba4fedef739c436c4235f875a32c1445f905ab11428d5",
      "assetIds": [
        "41506478881403507969696680653240014914910929820314476107906210059990532622336"
      ]
    },
    {
      "x": 364,
      "y": 305,
      "size": 1,
      "price": "4683000000000000000000",
      "reserved": "",
      "salt": "0x904c0d6beb8e4728ab8dde12e363dfc341c3a483dc4abe194ec536540eb40149",
      "assetIds": [
        "41506478881403507969696680653240014914910929820314476107906210059990541021188"
      ]
    },
    {
      "x": 364,
      "y": 306,
      "size": 1,
      "price": "4683000000000000000000",
      "reserved": "",
      "salt": "0x7ae563acb77763cd2cc718c340f517ac1bf4c4fe4ce9c49f68b008a070f26e93",
      "assetIds": [
        "41506478881403507969696680653240014914910929820314476107906210059990541021184"
      ]
    },
    {
      "x": 364,
      "y": 307,
      "size": 1,
      "price": "1011000000000000000000",
      "reserved": "0x7a9fe22691c811ea339d9b73150e6911a5343dca",
      "salt": "0x5a62e9d04673acff4f02f3574df73c1b8fd35c1baec44f01a879a0b0c7278b71",
      "assetIds": []
    },
    {
      "x": 364,
      "y": 308,
      "size": 1,
      "price": "4683000000000000000000",
      "reserved": "",
      "salt": "0x8c1682bd0267616f78e98def5018370888cea561f1b2bc5f16d64be3b1532718",
      "assetIds": [
        "41506478881403507969696680653240014914910929820314476107906210059990541021185"
      ]
    },
    {
      "x": 365,
      "y": 270,
      "size": 1,
      "price": "4683000000000000000000",
      "reserved": "",
      "salt": "0xd82bf9288c6714165782830fe1c1e383d44402f3baf0254c390cf64b1512a176",
      "assetIds": [
        "41506478881403507969696680653240014914910929820314476107906210059990541021188"
      ]
    },
    {
      "x": 365,
      "y": 271,
      "size": 1,
      "price": "4683000000000000000000",
      "reserved": "",
      "salt": "0x651092a7d5c6b18aacaf3417bb94dfa6b9522d4e9130e9b2ef03d0e548bc2d9d",
      "assetIds": [
        "41506478881403507969696680653240014914910929820314476107906210059990541021185"
      ]
    },
    {
      "x": 365,
      "y": 272,
      "size": 1,
      "price": "4683000000000000000000",
      "reserved": "",
      "salt": "0x40cc03f5d7dac6f2ba662fdf91d91dc159446a6756fba768b1f6879d87596343",
      "assetIds": [
        "41506478881403507969696680653240014914910929820314476107906210059990541021187"
      ]
    },
    {
      "x": 365,
      "y": 273,
      "size": 1,
      "price": "4683000000000000000000",
      "reserved": "",
      "salt": "0xce7574263ed660707e67b18198ef590b06b6bf3f8a9825a7c91100fe585fd125",
      "assetIds": [
        "41506478881403507969696680653240014914910929820314476107906210059990541021187"
      ]
    },
    {
      "x": 365,
      "y": 274,
      "size": 1,
      "price": "4683000000000000000000",
      "reserved": "",
      "salt": "0x44b088551401b6dd7ff8c704a3d634e3423afe6b36ce465ad1423dbf949a276e",
      "assetIds": [
        "41506478881403507969696680653240014914910929820314476107906210059990541021188"
      ]
    },
    {
      "x": 365,
      "y": 275,
      "size": 1,
      "price": "4683000000000000000000",
      "reserved": "",
      "salt": "0xd3196f20a4549cf8c50312b9a926fb6e6f1b36fdc2f304bd71cb65668182aed2",
      "assetIds": [
        "41506478881403507969696680653240014914910929820314476107906210059990541021185"
      ]
    },
    {
      "x": 365,
      "y": 288,
      "size": 1,
      "price": "4683000000000000000000",
      "reserved": "",
      "salt": "0xbf15ffd73e0625ada9d0a1f609b61e72516f9eb4c003c93b96e05f0fd0e57c32",
      "assetIds": [
        "41506478881403507969696680653240014914910929820314476107906210059990532622336"
      ]
    },
    {
      "x": 365,
      "y": 289,
      "size": 1,
      "price": "4683000000000000000000",
      "reserved": "",
      "salt": "0x6c38b564c0129789bbf60ab013344c47498fa562e7a8d4298160fb16862f424c",
      "assetIds": [
        "41506478881403507969696680653240014914910929820314476107906210059990541021185"
      ]
    },
    {
      "x": 365,
      "y": 290,
      "size": 1,
      "price": "4683000000000000000000",
      "reserved": "",
      "salt": "0x5f2f8bbfa9b42485f6e6f1a56f7a55af25bb22bbbe49beca31198083663b6f28",
      "assetIds": [
        "41506478881403507969696680653240014914910929820314476107906210059990541021185"
      ]
    },
    {
      "x": 365,
      "y": 291,
      "size": 1,
      "price": "4683000000000000000000",
      "reserved": "",
      "salt": "0x052394c459519f1c96b0e391c279cfe812465acfd85240f5dd2c650a57d23ff8",
      "assetIds": [
        "41506478881403507969696680653240014914910929820314476107906210059990541021184"
      ]
    },
    {
      "x": 365,
      "y": 292,
      "size": 1,
      "price": "4683000000000000000000",
      "reserved": "",
      "salt": "0xb2f53c5fce062f084b542bd98e85bbd94814c608be84dad2d5ef37d4c6cd8653",
      "assetIds": [
        "41506478881403507969696680653240014914910929820314476107906210059990541021184"
      ]
    },
    {
      "x": 365,
      "y": 293,
      "size": 1,
      "price": "4683000000000000000000",
      "reserved": "",
      "salt": "0xa7964093867158bd442ca6f29752c01b61be363c2c9ef20a56c88d7e59d144d1",
      "assetIds": [
        "41506478881403507969696680653240014914910929820314476107906210059990541021187"
      ]
    },
    {
      "x": 365,
      "y": 294,
      "size": 1,
      "price": "4683000000000000000000",
      "reserved": "",
      "salt": "0x8fc5d680e791c1da4ef72755ce3739f34325b51e823936a89762998c24b06c8e",
      "assetIds": [
        "41506478881403507969696680653240014914910929820314476107906210059990541021187"
      ]
    },
    {
      "x": 365,
      "y": 295,
      "size": 1,
      "price": "4683000000000000000000",
      "reserved": "",
      "salt": "0x52f3a39eb6e8a4f03f2ecd24869c1fac4a6ba4e278f014b9de4a96f23af3d3aa",
      "assetIds": [
        "41506478881403507969696680653240014914910929820314476107906210059990541021188"
      ]
    },
    {
      "x": 365,
      "y": 296,
      "size": 1,
      "price": "4683000000000000000000",
      "reserved": "",
      "salt": "0x4b6c810d0c8a3a544b953d041321aab8a969de2f69b90b42c1f3339838f5826c",
      "assetIds": [
        "41506478881403507969696680653240014914910929820314476107906210059990541021189"
      ]
    },
    {
      "x": 365,
      "y": 297,
      "size": 1,
      "price": "4683000000000000000000",
      "reserved": "",
      "salt": "0x1ff8125f3c4b6fd1fe664d0a633f3fb67ce0e9f3654dc9a2126bd858afa36af6",
      "assetIds": [
        "41506478881403507969696680653240014914910929820314476107906210059990541021188"
      ]
    },
    {
      "x": 365,
      "y": 298,
      "size": 1,
      "price": "4683000000000000000000",
      "reserved": "",
      "salt": "0xe1836417f9bc1a159af7a805b569f3a2bd961476791d2dcdaf91046065bf5687",
      "assetIds": [
        "41506478881403507969696680653240014914910929820314476107906210059990541021186"
      ]
    },
    {
      "x": 365,
      "y": 299,
      "size": 1,
      "price": "4683000000000000000000",
      "reserved": "",
      "salt": "0x58939f4b8f31eae56c6b6fb890410cdec9d5c40c7eff5d4e1a65d7d4b9f98235",
      "assetIds": [
        "41506478881403507969696680653240014914910929820314476107906210059990541021187"
      ]
    },
    {
      "x": 365,
      "y": 300,
      "size": 1,
      "price": "4683000000000000000000",
      "reserved": "",
      "salt": "0x756d26f81387b920d1c514cdd2bb3f169a98018b20a7755956fbacce05b07c14",
      "assetIds": [
        "41506478881403507969696680653240014914910929820314476107906210059990541021186"
      ]
    },
    {
      "x": 365,
      "y": 301,
      "size": 1,
      "price": "4683000000000000000000",
      "reserved": "",
      "salt": "0x1b7ad6d81801148daef6f004fc5d6775c3bd80ca3704a98a4c6504735b270190",
      "assetIds": [
        "41506478881403507969696680653240014914910929820314476107906210059990532622336"
      ]
    },
    {
      "x": 365,
      "y": 302,
      "size": 1,
      "price": "4683000000000000000000",
      "reserved": "",
      "salt": "0x61ea90c4b8dfdd548da662ae26b37d5756c1312d276e4ac95667128d589d8ce1",
      "assetIds": [
        "41506478881403507969696680653240014914910929820314476107906210059990541021188"
      ]
    },
    {
      "x": 365,
      "y": 303,
      "size": 1,
      "price": "4683000000000000000000",
      "reserved": "",
      "salt": "0x34a6489c21a54b1d355db28e34cd460a4ed94e41f02555b74c633ba22a0606d9",
      "assetIds": [
        "41506478881403507969696680653240014914910929820314476107906210059990541021185"
      ]
    },
    {
      "x": 365,
      "y": 304,
      "size": 1,
      "price": "4683000000000000000000",
      "reserved": "",
      "salt": "0x2612ad594675483bf4d0dc0bd00abea6f6e4b7c6c8ea70aa187da7fb6ad61e62",
      "assetIds": [
        "41506478881403507969696680653240014914910929820314476107906210059990541021186"
      ]
    },
    {
      "x": 365,
      "y": 305,
      "size": 1,
      "price": "4683000000000000000000",
      "reserved": "",
      "salt": "0x191729aa1fd2e96a810ed21fca726191f41d778f19e9ab6b1be951d8de3f5662",
      "assetIds": [
        "41506478881403507969696680653240014914910929820314476107906210059990541021188"
      ]
    },
    {
      "x": 365,
      "y": 306,
      "size": 1,
      "price": "4683000000000000000000",
      "reserved": "",
      "salt": "0x65762ca463386aee08a11db1a64efa3f7ab26e0767d29bafe958d69cf7937bea",
      "assetIds": [
        "41506478881403507969696680653240014914910929820314476107906210059990541021186"
      ]
    },
    {
      "x": 365,
      "y": 307,
      "size": 1,
      "price": "4683000000000000000000",
      "reserved": "",
      "salt": "0x0f06fd82f320112e86b4ddfeba423d3f473fd4dc249251c0f8e9e9cd277a2b74",
      "assetIds": [
        "41506478881403507969696680653240014914910929820314476107906210059990532622336"
      ]
    },
    {
      "x": 365,
      "y": 308,
      "size": 1,
      "price": "4683000000000000000000",
      "reserved": "",
      "salt": "0xe7785bcd55410b8496aad19540acccee5b25ba8a8eb664008778998700a5885b",
      "assetIds": [
        "41506478881403507969696680653240014914910929820314476107906210059990541021189"
      ]
    },
    {
      "x": 366,
      "y": 231,
      "size": 1,
      "price": "4683000000000000000000",
      "reserved": "",
      "salt": "0x4768b375e70366a01ba69b9c40d671daa0b0159c6b308113c4eeaaa2ac3ebfd1",
      "assetIds": [
        "41506478881403507969696680653240014914910929820314476107906210059990541021187"
      ]
    },
    {
      "x": 366,
      "y": 232,
      "size": 1,
      "price": "4683000000000000000000",
      "reserved": "",
      "salt": "0x68d5d1d048d362d9650685160260561a1bca0f5f485d36eaa9ec639255266455",
      "assetIds": [
        "41506478881403507969696680653240014914910929820314476107906210059990541021189"
      ]
    },
    {
      "x": 366,
      "y": 233,
      "size": 1,
      "price": "4683000000000000000000",
      "reserved": "",
      "salt": "0x03984201122b8e7f732d808b12751f6ec93d0c9061e001ec469f4ecdfb595c26",
      "assetIds": [
        "41506478881403507969696680653240014914910929820314476107906210059990541021186"
      ]
    },
    {
      "x": 366,
      "y": 234,
      "size": 1,
      "price": "4683000000000000000000",
      "reserved": "",
      "salt": "0x342bdb7a5eaaad291969cc27c5b766e38682ca340d1186e081a5696cdda15669",
      "assetIds": [
        "41506478881403507969696680653240014914910929820314476107906210059990541021187"
      ]
    },
    {
      "x": 366,
      "y": 235,
      "size": 1,
      "price": "4683000000000000000000",
      "reserved": "",
      "salt": "0x7d7db35055d03510bd6c8cd335bb5958c0175f97e46bb0c2cf372e0ed0ddf0f6",
      "assetIds": [
        "41506478881403507969696680653240014914910929820314476107906210059990541021186"
      ]
    },
    {
      "x": 366,
      "y": 236,
      "size": 1,
      "price": "4683000000000000000000",
      "reserved": "",
      "salt": "0x5306f932f1057c7ef27410e62cca19d42b1e4b7428bb8b98357fa22c526eb327",
      "assetIds": [
        "41506478881403507969696680653240014914910929820314476107906210059990541021185"
      ]
    },
    {
      "x": 366,
      "y": 237,
      "size": 1,
      "price": "4683000000000000000000",
      "reserved": "",
      "salt": "0xc9d1ddf211c48d91a396a602d244ff6c00f8d837f4491c7626d19c4d079025db",
      "assetIds": [
        "41506478881403507969696680653240014914910929820314476107906210059990541021185"
      ]
    },
    {
      "x": 366,
      "y": 238,
      "size": 1,
      "price": "4683000000000000000000",
      "reserved": "",
      "salt": "0x02f340921cff3341958a644a4959c08cc0e047a8d7646d8cc1d92cd4deb948bc",
      "assetIds": [
        "41506478881403507969696680653240014914910929820314476107906210059990541021187"
      ]
    },
    {
      "x": 366,
      "y": 239,
      "size": 1,
      "price": "4683000000000000000000",
      "reserved": "",
      "salt": "0x9f53a408799a6ca816ae338b6dbadfb688c93c1f9f6b689101056e06d5fb2356",
      "assetIds": [
        "41506478881403507969696680653240014914910929820314476107906210059990541021185"
      ]
    },
    {
      "x": 366,
      "y": 264,
      "size": 1,
      "price": "4683000000000000000000",
      "reserved": "",
      "salt": "0xfc4d01ffe2ee5742bc541e579bca52fbc9e5f8099fb1ce5e919f4890803d7c3f",
      "assetIds": [
        "41506478881403507969696680653240014914910929820314476107906210059990541021187"
      ]
    },
    {
      "x": 366,
      "y": 265,
      "size": 1,
      "price": "4683000000000000000000",
      "reserved": "",
      "salt": "0xbdb519c06b5e22ffc0baf9a2e907c488b548d3216ff3baf734a3961efb6a79ca",
      "assetIds": [
        "41506478881403507969696680653240014914910929820314476107906210059990532622336"
      ]
    },
    {
      "x": 366,
      "y": 266,
      "size": 1,
      "price": "4683000000000000000000",
      "reserved": "",
      "salt": "0x152273dba1f859ae467bf9ec08429fdad36d82251162bbe25ec3d801bdd4ef86",
      "assetIds": [
        "41506478881403507969696680653240014914910929820314476107906210059990541021189"
      ]
    },
    {
      "x": 366,
      "y": 288,
      "size": 1,
      "price": "4683000000000000000000",
      "reserved": "",
      "salt": "0x47bb420f65e8d3d14b954c919fa6008fa05851f24da6419d299705ca919a9f3a",
      "assetIds": [
        "41506478881403507969696680653240014914910929820314476107906210059990541021189"
      ]
    },
    {
      "x": 366,
      "y": 289,
      "size": 1,
      "price": "4683000000000000000000",
      "reserved": "",
      "salt": "0x619120bb9547c44438fc20bb4bec8eed7f66384a6fd93c5d38900dd81462b1c5",
      "assetIds": [
        "41506478881403507969696680653240014914910929820314476107906210059990541021188"
      ]
    },
    {
      "x": 366,
      "y": 290,
      "size": 1,
      "price": "4683000000000000000000",
      "reserved": "",
      "salt": "0xe1e9906add2b903d04319b13611060e49357944253c7bfc028601de39ca259c6",
      "assetIds": [
        "41506478881403507969696680653240014914910929820314476107906210059990541021188"
      ]
    },
    {
      "x": 366,
      "y": 294,
      "size": 1,
      "price": "4683000000000000000000",
      "reserved": "",
      "salt": "0xdf6a19a6ec8459ead07e38592e52c2562de26965e8b23008f75b483263117e1b",
      "assetIds": [
        "41506478881403507969696680653240014914910929820314476107906210059990541021186"
      ]
    },
    {
      "x": 366,
      "y": 295,
      "size": 1,
      "price": "4683000000000000000000",
      "reserved": "",
      "salt": "0xa7745b132563cc22a77311d53571b4253a81c9b216c88e723b2fa81123ec746b",
      "assetIds": [
        "41506478881403507969696680653240014914910929820314476107906210059990541021186"
      ]
    },
    {
      "x": 366,
      "y": 296,
      "size": 1,
      "price": "4683000000000000000000",
      "reserved": "",
      "salt": "0x61688ec412663637d536dbf356cc6504d09c8af284e0d6e246b3b87fe6c7b529",
      "assetIds": [
        "41506478881403507969696680653240014914910929820314476107906210059990541021186"
      ]
    },
    {
      "x": 366,
      "y": 297,
      "size": 1,
      "price": "4683000000000000000000",
      "reserved": "",
      "salt": "0xc50b4a559b1c7dae112d358e7cf2568365b6e6aabc29f74c2ee717871c267528",
      "assetIds": [
        "41506478881403507969696680653240014914910929820314476107906210059990541021186"
      ]
    },
    {
      "x": 366,
      "y": 298,
      "size": 1,
      "price": "4683000000000000000000",
      "reserved": "",
      "salt": "0xb1d3d9677f406aba64331f3fe55b836be3df2bde48fe5ce6fbd110f0f4fec625",
      "assetIds": [
        "41506478881403507969696680653240014914910929820314476107906210059990541021186"
      ]
    },
    {
      "x": 366,
      "y": 299,
      "size": 1,
      "price": "4683000000000000000000",
      "reserved": "",
      "salt": "0x4c8501839d84e7bc40cba8cae6d2036a513625802328b3965063b8b09264c1a7",
      "assetIds": [
        "41506478881403507969696680653240014914910929820314476107906210059990541021184"
      ]
    },
    {
      "x": 366,
      "y": 300,
      "size": 1,
      "price": "4683000000000000000000",
      "reserved": "",
      "salt": "0x3344f693a56f5a53cfff76504361e0fb1bdb83beea631f4308fe85a74f60395f",
      "assetIds": [
        "41506478881403507969696680653240014914910929820314476107906210059990541021189"
      ]
    },
    {
      "x": 366,
      "y": 301,
      "size": 1,
      "price": "4683000000000000000000",
      "reserved": "",
      "salt": "0xd63b3f3b08dd5aa4bbfc41a551535ff876a7e975bff6a50d9797731e7d78c957",
      "assetIds": [
        "41506478881403507969696680653240014914910929820314476107906210059990541021187"
      ]
    },
    {
      "x": 366,
      "y": 302,
      "size": 1,
      "price": "4683000000000000000000",
      "reserved": "",
      "salt": "0xc3ecddaf6194f517f2d918815b4a92d3e6bd24e7de2bf5271f65c82772062a1e",
      "assetIds": [
        "41506478881403507969696680653240014914910929820314476107906210059990541021186"
      ]
    },
    {
      "x": 366,
      "y": 303,
      "size": 1,
      "price": "4683000000000000000000",
      "reserved": "",
      "salt": "0xb0ef7196ec84ce5bf33bf495c7f55285ad806d8fb014215219638044cbc43307",
      "assetIds": [
        "41506478881403507969696680653240014914910929820314476107906210059990541021189"
      ]
    },
    {
      "x": 366,
      "y": 304,
      "size": 1,
      "price": "4683000000000000000000",
      "reserved": "",
      "salt": "0x127a54ff5d1f93e4302966b990a5dbdcaf420c1972a8a12f014c8fe7bb1ca572",
      "assetIds": [
        "41506478881403507969696680653240014914910929820314476107906210059990541021185"
      ]
    },
    {
      "x": 366,
      "y": 305,
      "size": 1,
      "price": "4683000000000000000000",
      "reserved": "",
      "salt": "0xe9dc5ff6cff236681934e5c30e157de64cf226e99130fdbed64c44677f6058ce",
      "assetIds": [
        "41506478881403507969696680653240014914910929820314476107906210059990541021187"
      ]
    },
    {
      "x": 366,
      "y": 306,
      "size": 1,
      "price": "4683000000000000000000",
      "reserved": "",
      "salt": "0x72e0712d6c0365ed03f803461544afedd987936e4b3cb1cf9b15d21279248f2a",
      "assetIds": [
        "41506478881403507969696680653240014914910929820314476107906210059990541021189"
      ]
    },
    {
      "x": 367,
      "y": 231,
      "size": 1,
      "price": "4683000000000000000000",
      "reserved": "",
      "salt": "0x64ad577ea981227b9208f16c5ad93f9f0f9ead6c262df7929fd160183ea6bab0",
      "assetIds": [
        "41506478881403507969696680653240014914910929820314476107906210059990541021189"
      ]
    },
    {
      "x": 367,
      "y": 232,
      "size": 1,
      "price": "4683000000000000000000",
      "reserved": "",
      "salt": "0xc5187ad47f1ba1debe747d348a9d087bbbb91b54fe8b75bf3cd6b6edaade996a",
      "assetIds": [
        "41506478881403507969696680653240014914910929820314476107906210059990541021189"
      ]
    },
    {
      "x": 367,
      "y": 233,
      "size": 1,
      "price": "4683000000000000000000",
      "reserved": "",
      "salt": "0x5b6330c1df344f899c8eecad5c137b0bafeb305183ccd7217de14ef2ce37dfb1",
      "assetIds": [
        "41506478881403507969696680653240014914910929820314476107906210059990532622336"
      ]
    },
    {
      "x": 367,
      "y": 234,
      "size": 1,
      "price": "4683000000000000000000",
      "reserved": "",
      "salt": "0x5d3952ccdaf51b76cf84eae4bb73fe672804128489f0cc34dc38ba75e5aeb07f",
      "assetIds": [
        "41506478881403507969696680653240014914910929820314476107906210059990532622336"
      ]
    },
    {
      "x": 367,
      "y": 235,
      "size": 1,
      "price": "4683000000000000000000",
      "reserved": "",
      "salt": "0x506a5b5a5087de6c0c6acc9bd445f25d031bc6255c5fd89c17466e0bc2271e23",
      "assetIds": [
        "41506478881403507969696680653240014914910929820314476107906210059990541021188"
      ]
    },
    {
      "x": 367,
      "y": 236,
      "size": 1,
      "price": "4683000000000000000000",
      "reserved": "",
      "salt": "0x0b0dee465ebe46a2dbfc3cc19338b98ca6ca6e3d5b1ea6416be0dfc9602983c4",
      "assetIds": [
        "41506478881403507969696680653240014914910929820314476107906210059990532622336"
      ]
    },
    {
      "x": 367,
      "y": 237,
      "size": 1,
      "price": "1011000000000000000000",
      "reserved": "0x7a9fe22691c811ea339d9b73150e6911a5343dca",
      "salt": "0xfe73016980f0c3c6ecfb13f8907576f679704ede465df8c0aa049ff94fd509b6",
      "assetIds": []
    },
    {
      "x": 367,
      "y": 238,
      "size": 1,
      "price": "4683000000000000000000",
      "reserved": "",
      "salt": "0x2bbe621e0c19e86c9746dad075e445a5bb5f8561152a4275ef6e2e11daff6677",
      "assetIds": [
        "41506478881403507969696680653240014914910929820314476107906210059990532622336"
      ]
    },
    {
      "x": 367,
      "y": 239,
      "size": 1,
      "price": "4683000000000000000000",
      "reserved": "",
      "salt": "0x4488011dbf21e60df227c200a1cd138a58368321e94e1c75224a91e4f59d5e2e",
      "assetIds": [
        "41506478881403507969696680653240014914910929820314476107906210059990532622336"
      ]
    },
    {
      "x": 367,
      "y": 264,
      "size": 1,
      "price": "4683000000000000000000",
      "reserved": "",
      "salt": "0xd6693418fc3cd7601f5c0d91708432c2abeafdd124bbbd2ad1e73db0b799877a",
      "assetIds": [
        "41506478881403507969696680653240014914910929820314476107906210059990541021185"
      ]
    },
    {
      "x": 367,
      "y": 265,
      "size": 1,
      "price": "4683000000000000000000",
      "reserved": "",
      "salt": "0xc9ccac3eac2419f9d186fd4488060f4c8c70c95cf8937366c90eb1d9b19612fe",
      "assetIds": [
        "41506478881403507969696680653240014914910929820314476107906210059990541021185"
      ]
    },
    {
      "x": 367,
      "y": 266,
      "size": 1,
      "price": "4683000000000000000000",
      "reserved": "",
      "salt": "0xdc977d6ec0ddd253a0cd5d8ecd9b011f8b19656ae0e74bb93a1828bfc7c85842",
      "assetIds": [
        "41506478881403507969696680653240014914910929820314476107906210059990541021187"
      ]
    },
    {
      "x": 367,
      "y": 288,
      "size": 1,
      "price": "4683000000000000000000",
      "reserved": "",
      "salt": "0x432fc7f380ad496891056c30d6cea91217042a5554eab03c58e488613b196384",
      "assetIds": [
        "41506478881403507969696680653240014914910929820314476107906210059990541021189"
      ]
    },
    {
      "x": 367,
      "y": 289,
      "size": 1,
      "price": "1011000000000000000000",
      "reserved": "0x7a9fe22691c811ea339d9b73150e6911a5343dca",
      "salt": "0x01d2276f77cc79137cc750c40ab363ffd2a4b1eb293bb648eb6f559f831184dd",
      "assetIds": []
    },
    {
      "x": 367,
      "y": 290,
      "size": 1,
      "price": "4683000000000000000000",
      "reserved": "",
      "salt": "0xbf8af1a2b03726816ba3ebad041f1878d6a319f3e86627970d0c53563385a1b7",
      "assetIds": [
        "41506478881403507969696680653240014914910929820314476107906210059990541021189"
      ]
    },
    {
      "x": 367,
      "y": 294,
      "size": 1,
      "price": "4683000000000000000000",
      "reserved": "",
      "salt": "0x1e64288e57bb0b670fbf24e620b51b457fe4a57663649b5bd7c11e859e6a51ab",
      "assetIds": [
        "41506478881403507969696680653240014914910929820314476107906210059990541021186"
      ]
    },
    {
      "x": 367,
      "y": 295,
      "size": 1,
      "price": "4683000000000000000000",
      "reserved": "",
      "salt": "0xb554863f179870d6dc46c0e61294f6d8833bec9dd9514c6616eaadf862d95196",
      "assetIds": [
        "41506478881403507969696680653240014914910929820314476107906210059990532622336"
      ]
    },
    {
      "x": 367,
      "y": 296,
      "size": 1,
      "price": "4683000000000000000000",
      "reserved": "",
      "salt": "0xde4cd67e20fe4d4eae7995206c0b0456b35a5156a62f959f9da55176aec5f490",
      "assetIds": [
        "41506478881403507969696680653240014914910929820314476107906210059990541021184"
      ]
    },
    {
      "x": 367,
      "y": 297,
      "size": 1,
      "price": "4683000000000000000000",
      "reserved": "",
      "salt": "0x9f7a18a73c0f1060b5ba2947d9b53bca8a8218b18daa24c0859bfd4f8e613368",
      "assetIds": [
        "41506478881403507969696680653240014914910929820314476107906210059990532622336"
      ]
    },
    {
      "x": 367,
      "y": 298,
      "size": 1,
      "price": "4683000000000000000000",
      "reserved": "",
      "salt": "0xb03b84d7cf78dd537ff2e560eec1e3271bc0c1d36649aaf01a7db4a7b6067fdd",
      "assetIds": [
        "41506478881403507969696680653240014914910929820314476107906210059990541021186"
      ]
    },
    {
      "x": 367,
      "y": 299,
      "size": 1,
      "price": "4683000000000000000000",
      "reserved": "",
      "salt": "0x2b14d0ae4793d4d25b8d5e1f9491f0f553f0355ca435dc42acbb124a6df20bf0",
      "assetIds": [
        "41506478881403507969696680653240014914910929820314476107906210059990541021184"
      ]
    },
    {
      "x": 367,
      "y": 300,
      "size": 1,
      "price": "4683000000000000000000",
      "reserved": "",
      "salt": "0xe656106d4886919ea19f19df7e8a9302a0a3e8507ba2d6cde6615e296504786f",
      "assetIds": [
        "41506478881403507969696680653240014914910929820314476107906210059990541021189"
      ]
    },
    {
      "x": 367,
      "y": 301,
      "size": 1,
      "price": "4683000000000000000000",
      "reserved": "",
      "salt": "0x513dd89ee4266947e85d501e8c14507b3a32ac2801a7193e43b85d8e78c3412b",
      "assetIds": [
        "41506478881403507969696680653240014914910929820314476107906210059990541021186"
      ]
    },
    {
      "x": 367,
      "y": 302,
      "size": 1,
      "price": "4683000000000000000000",
      "reserved": "",
      "salt": "0x858cde376b1d0338b24413cd24a9b4cecedc0a013757cf44e445916fb8356ca1",
      "assetIds": [
        "41506478881403507969696680653240014914910929820314476107906210059990541021184"
      ]
    },
    {
      "x": 367,
      "y": 303,
      "size": 1,
      "price": "1011000000000000000000",
      "reserved": "0x7a9fe22691c811ea339d9b73150e6911a5343dca",
      "salt": "0x5d24e8eac1923c506d72f12168991f660d9b53d08fefa580aa12bb8eec2f3697",
      "assetIds": []
    },
    {
      "x": 367,
      "y": 304,
      "size": 1,
      "price": "4683000000000000000000",
      "reserved": "",
      "salt": "0x7cba5e989a803ce2c80d4343bd54961342083307e100b896bea42438262124c3",
      "assetIds": [
        "41506478881403507969696680653240014914910929820314476107906210059990541021185"
      ]
    },
    {
      "x": 367,
      "y": 305,
      "size": 1,
      "price": "4683000000000000000000",
      "reserved": "",
      "salt": "0x6a6f8b007ebe34c1611da689926f0d789baa04cef81f5a85370193233d1afd83",
      "assetIds": [
        "41506478881403507969696680653240014914910929820314476107906210059990541021184"
      ]
    },
    {
      "x": 367,
      "y": 306,
      "size": 1,
      "price": "4683000000000000000000",
      "reserved": "",
      "salt": "0xf3e67e93264d82270e0c93e62d7075ad77d55eaf40127958e0dc371cd8cee92e",
      "assetIds": [
        "41506478881403507969696680653240014914910929820314476107906210059990541021187"
      ]
    },
    {
      "x": 368,
      "y": 231,
      "size": 1,
      "price": "4683000000000000000000",
      "reserved": "",
      "salt": "0x8eefe0159d0783df2d10090c601577897b2896f10d1f134d0c73463fa2aa0a74",
      "assetIds": [
        "41506478881403507969696680653240014914910929820314476107906210059990532622336"
      ]
    },
    {
      "x": 368,
      "y": 232,
      "size": 1,
      "price": "4683000000000000000000",
      "reserved": "",
      "salt": "0x29629b9ca27f4eb84ad9f81b4e7bf9ef549fdd2df1e65e98ef3734f602b714f3",
      "assetIds": [
        "41506478881403507969696680653240014914910929820314476107906210059990541021185"
      ]
    },
    {
      "x": 368,
      "y": 233,
      "size": 1,
      "price": "4683000000000000000000",
      "reserved": "",
      "salt": "0x50a02c801f7bdff4745a100f84ba7041966f62e6e90694f3b2cc03c8ce89dbaa",
      "assetIds": [
        "41506478881403507969696680653240014914910929820314476107906210059990532622336"
      ]
    },
    {
      "x": 368,
      "y": 234,
      "size": 1,
      "price": "4683000000000000000000",
      "reserved": "",
      "salt": "0x1365fa8da4b49b0d8069934fdfd8fed9b5b499f65a995c571257a4d2e91ab3c8",
      "assetIds": [
        "41506478881403507969696680653240014914910929820314476107906210059990541021185"
      ]
    },
    {
      "x": 368,
      "y": 235,
      "size": 1,
      "price": "4683000000000000000000",
      "reserved": "",
      "salt": "0x6a4ffc7c0699490e0499ce6e7bae6fe8dd9ff2fc85fc0c724a9d96f4518e076c",
      "assetIds": [
        "41506478881403507969696680653240014914910929820314476107906210059990541021189"
      ]
    },
    {
      "x": 368,
      "y": 236,
      "size": 1,
      "price": "4683000000000000000000",
      "reserved": "",
      "salt": "0xd102d5d89f28d484eb7f2b1a8d828c41d6c383a259ff63a9fb2f85deaad62be6",
      "assetIds": [
        "41506478881403507969696680653240014914910929820314476107906210059990541021188"
      ]
    },
    {
      "x": 368,
      "y": 237,
      "size": 1,
      "price": "4683000000000000000000",
      "reserved": "",
      "salt": "0x96929a37ca5a7b70a66e0e0c14c22b96dabdb0a862a5cfd3b4bcfec06465579e",
      "assetIds": [
        "41506478881403507969696680653240014914910929820314476107906210059990541021188"
      ]
    },
    {
      "x": 368,
      "y": 238,
      "size": 1,
      "price": "4683000000000000000000",
      "reserved": "",
      "salt": "0x3313c129790b89934e8c1f546dd6cb6410edd87002f0d791e6e8db62b6dfb281",
      "assetIds": [
        "41506478881403507969696680653240014914910929820314476107906210059990541021184"
      ]
    },
    {
      "x": 368,
      "y": 239,
      "size": 1,
      "price": "4683000000000000000000",
      "reserved": "",
      "salt": "0xc9568cfae511142e0d8310ad4661015f83afdc8c3790863868887057dc43f4f8",
      "assetIds": [
        "41506478881403507969696680653240014914910929820314476107906210059990541021188"
      ]
    },
    {
      "x": 368,
      "y": 264,
      "size": 1,
      "price": "4683000000000000000000",
      "reserved": "",
      "salt": "0x257957fa693126586d9babff95e51d74e47ec42527033f23ab74234d53539c8a",
      "assetIds": [
        "41506478881403507969696680653240014914910929820314476107906210059990541021186"
      ]
    },
    {
      "x": 368,
      "y": 265,
      "size": 1,
      "price": "4683000000000000000000",
      "reserved": "",
      "salt": "0x1a1f598957c98d5c950b308cfe9773268d6552471eab47ed1dcf576f4456f5a0",
      "assetIds": [
        "41506478881403507969696680653240014914910929820314476107906210059990541021184"
      ]
    },
    {
      "x": 368,
      "y": 266,
      "size": 1,
      "price": "4683000000000000000000",
      "reserved": "",
      "salt": "0x95dce18b71e91aa659043b5b7f44886e3005eca25f38d845f1524703cbff8ad3",
      "assetIds": [
        "41506478881403507969696680653240014914910929820314476107906210059990541021188"
      ]
    },
    {
      "x": 368,
      "y": 288,
      "size": 1,
      "price": "4683000000000000000000",
      "reserved": "",
      "salt": "0x730caa6ee920058b2f6604ffd8123eda5cf467781aca29a3f43ba4546006c3b4",
      "assetIds": [
        "41506478881403507969696680653240014914910929820314476107906210059990541021185"
      ]
    },
    {
      "x": 368,
      "y": 289,
      "size": 1,
      "price": "4683000000000000000000",
      "reserved": "",
      "salt": "0xff5604c9701f21435902cd7a135ca4d9d17caff96949a3a34b8a9879d691edcc",
      "assetIds": [
        "41506478881403507969696680653240014914910929820314476107906210059990532622336"
      ]
    },
    {
      "x": 368,
      "y": 290,
      "size": 1,
      "price": "4683000000000000000000",
      "reserved": "",
      "salt": "0xbd3197d081d425610d365e1c98d312c8e820c0b4ecb64ea891195e1d14992d1e",
      "assetIds": [
        "41506478881403507969696680653240014914910929820314476107906210059990541021186"
      ]
    },
    {
      "x": 368,
      "y": 294,
      "size": 1,
      "price": "4683000000000000000000",
      "reserved": "",
      "salt": "0x55fa96ce4ad23c2350110f542e7094ca3d92d7eb7c48b9938798ffd58fe8caab",
      "assetIds": [
        "41506478881403507969696680653240014914910929820314476107906210059990541021185"
      ]
    },
    {
      "x": 368,
      "y": 295,
      "size": 1,
      "price": "4683000000000000000000",
      "reserved": "",
      "salt": "0x3e601283f774eda95e83f368797acdb6761711b5dfaea2cb2b0b136dd6f24101",
      "assetIds": [
        "41506478881403507969696680653240014914910929820314476107906210059990541021185"
      ]
    },
    {
      "x": 368,
      "y": 296,
      "size": 1,
      "price": "4683000000000000000000",
      "reserved": "",
      "salt": "0x1bab34658eecf81c10ff6e0045237aec73ede0ef617ddd44a10624d83b14cd2c",
      "assetIds": [
        "41506478881403507969696680653240014914910929820314476107906210059990532622336"
      ]
    },
    {
      "x": 368,
      "y": 297,
      "size": 1,
      "price": "4683000000000000000000",
      "reserved": "",
      "salt": "0xb9d048abea32beb18abd3f4a53304321f15bbcbe4510b9918690882ac86b5051",
      "assetIds": [
        "41506478881403507969696680653240014914910929820314476107906210059990541021185"
      ]
    },
    {
      "x": 368,
      "y": 298,
      "size": 1,
      "price": "4683000000000000000000",
      "reserved": "",
      "salt": "0x02e8f4e73d3c127bb256c4b5a825414df31b97362b5ad048c042a0c07b48a542",
      "assetIds": [
        "41506478881403507969696680653240014914910929820314476107906210059990532622336"
      ]
    },
    {
      "x": 368,
      "y": 299,
      "size": 1,
      "price": "4683000000000000000000",
      "reserved": "",
      "salt": "0x118f17b633adac0d22f197ceea666020b5f2555f16b5aebb017b268859cf7ec3",
      "assetIds": [
        "41506478881403507969696680653240014914910929820314476107906210059990541021188"
      ]
    },
    {
      "x": 368,
      "y": 300,
      "size": 1,
      "price": "4683000000000000000000",
      "reserved": "",
      "salt": "0xcbd661db19fafe02b9631f98340c8a5339db355bc82e2051d1fec92c65e7283c",
      "assetIds": [
        "41506478881403507969696680653240014914910929820314476107906210059990532622336"
      ]
    },
    {
      "x": 368,
      "y": 301,
      "size": 1,
      "price": "4683000000000000000000",
      "reserved": "",
      "salt": "0x70f3ab9cfb451b77f03a1058d4352eb3fb10d8c92c856a499d0ee2a0b07c0f67",
      "assetIds": [
        "41506478881403507969696680653240014914910929820314476107906210059990541021185"
      ]
    },
    {
      "x": 368,
      "y": 302,
      "size": 1,
      "price": "4683000000000000000000",
      "reserved": "",
      "salt": "0x122a4e2d96ad6848436a74cc5b57a1a7ea766be24b1a878938c7b46c56589247",
      "assetIds": [
        "41506478881403507969696680653240014914910929820314476107906210059990541021185"
      ]
    },
    {
      "x": 368,
      "y": 303,
      "size": 1,
      "price": "4683000000000000000000",
      "reserved": "",
      "salt": "0x67aaa16e35c560cc6fb5dea5cca34befd8c37494a652644396cc29b0e333c317",
      "assetIds": [
        "41506478881403507969696680653240014914910929820314476107906210059990541021185"
      ]
    },
    {
      "x": 368,
      "y": 304,
      "size": 1,
      "price": "4683000000000000000000",
      "reserved": "",
      "salt": "0x3f504ae1064f7ea3d457d323db4f053a0f6bd76a18a2bb7f6b96e52bca96bb4a",
      "assetIds": [
        "41506478881403507969696680653240014914910929820314476107906210059990541021188"
      ]
    },
    {
      "x": 368,
      "y": 305,
      "size": 1,
      "price": "4683000000000000000000",
      "reserved": "",
      "salt": "0x4eca2d3a1aeda7ec235c34a93b9c6a74b4f70917ce7bd7e779e9ab10ee994ff5",
      "assetIds": [
        "41506478881403507969696680653240014914910929820314476107906210059990541021187"
      ]
    },
    {
      "x": 369,
      "y": 231,
      "size": 1,
      "price": "4683000000000000000000",
      "reserved": "",
      "salt": "0x63103a6999bab6bda599d9ab75c50909928c785ed921701948011f474ce76ef5",
      "assetIds": [
        "41506478881403507969696680653240014914910929820314476107906210059990532622336"
      ]
    },
    {
      "x": 369,
      "y": 232,
      "size": 1,
      "price": "4683000000000000000000",
      "reserved": "",
      "salt": "0x5ad22efc79261a3b7ad62e142148b6ca29a1561d8f6bb4cf0d428de756067a2c",
      "assetIds": [
        "41506478881403507969696680653240014914910929820314476107906210059990532622336"
      ]
    },
    {
      "x": 369,
      "y": 233,
      "size": 1,
      "price": "4683000000000000000000",
      "reserved": "",
      "salt": "0xd4fb1781e3031cae0ca8cb2d78555de86f84e1bc58da0ffd2be639022ea138c1",
      "assetIds": [
        "41506478881403507969696680653240014914910929820314476107906210059990532622336"
      ]
    },
    {
      "x": 369,
      "y": 234,
      "size": 1,
      "price": "4683000000000000000000",
      "reserved": "",
      "salt": "0xe867fa8fe785ed9b127e21f82884113a3b778f7a98fff76a821033f923c3293a",
      "assetIds": [
        "41506478881403507969696680653240014914910929820314476107906210059990541021186"
      ]
    },
    {
      "x": 369,
      "y": 235,
      "size": 1,
      "price": "4683000000000000000000",
      "reserved": "",
      "salt": "0x269a3cb74e2fff9b5aaf85d8fa7900d043e9857c982bbc5f39ec9552e2953e18",
      "assetIds": [
        "41506478881403507969696680653240014914910929820314476107906210059990541021186"
      ]
    },
    {
      "x": 369,
      "y": 236,
      "size": 1,
      "price": "4683000000000000000000",
      "reserved": "",
      "salt": "0xdc863c2142eb460dabd45e34e4b0f7003ba3ba0092610bf1259505b51fd6666e",
      "assetIds": [
        "41506478881403507969696680653240014914910929820314476107906210059990541021185"
      ]
    },
    {
      "x": 369,
      "y": 237,
      "size": 1,
      "price": "4683000000000000000000",
      "reserved": "",
      "salt": "0xbc22cc2a9af82a41db3a8092258482ddc69f355b28d36f9759599cff48322105",
      "assetIds": [
        "41506478881403507969696680653240014914910929820314476107906210059990541021184"
      ]
    },
    {
      "x": 369,
      "y": 238,
      "size": 1,
      "price": "4683000000000000000000",
      "reserved": "",
      "salt": "0x0134c017537390422b22c105239f76b09e8eebe6e65f14f9d0c17b2bc08089a7",
      "assetIds": [
        "41506478881403507969696680653240014914910929820314476107906210059990541021187"
      ]
    },
    {
      "x": 369,
      "y": 239,
      "size": 1,
      "price": "4683000000000000000000",
      "reserved": "",
      "salt": "0xdbb213064dceab0f5e7d9cabaf48cf342fe543946dfaa345c70ddb140b8f7997",
      "assetIds": [
        "41506478881403507969696680653240014914910929820314476107906210059990541021185"
      ]
    },
    {
      "x": 369,
      "y": 264,
      "size": 1,
      "price": "4683000000000000000000",
      "reserved": "",
      "salt": "0xee6196496ddeeaebf4808caa0100d69b1524c1d230f33b4f0979a34c58e47efe",
      "assetIds": [
        "41506478881403507969696680653240014914910929820314476107906210059990541021184"
      ]
    },
    {
      "x": 369,
      "y": 265,
      "size": 1,
      "price": "4683000000000000000000",
      "reserved": "",
      "salt": "0x03ddfe81144166f100c46d5daeb831bdd1cbdc3b82a4b5939e39036f12dc6229",
      "assetIds": [
        "41506478881403507969696680653240014914910929820314476107906210059990541021187"
      ]
    },
    {
      "x": 369,
      "y": 266,
      "size": 1,
      "price": "4683000000000000000000",
      "reserved": "",
      "salt": "0xe6f1496cc344c014ba29a01068af4667b7c52503434f3dbc5139328b95510132",
      "assetIds": [
        "41506478881403507969696680653240014914910929820314476107906210059990541021184"
      ]
    },
    {
      "x": 369,
      "y": 267,
      "size": 1,
      "price": "4683000000000000000000",
      "reserved": "",
      "salt": "0x84e9e42234e492238d432ae4592b4f9991e9041fef8d851ada7ee7ea450f42cc",
      "assetIds": [
        "41506478881403507969696680653240014914910929820314476107906210059990541021184"
      ]
    },
    {
      "x": 369,
      "y": 268,
      "size": 1,
      "price": "4683000000000000000000",
      "reserved": "",
      "salt": "0x012a04d38cf01c44dc4ebb665eef0ca9d771417a9e18c3e78c3937609fc431b5",
      "assetIds": [
        "41506478881403507969696680653240014914910929820314476107906210059990541021187"
      ]
    },
    {
      "x": 369,
      "y": 269,
      "size": 1,
      "price": "4683000000000000000000",
      "reserved": "",
      "salt": "0x8183f61c4219940d64ee13c6e2fb77e42379eabb822b537a8713992313b96be4",
      "assetIds": [
        "41506478881403507969696680653240014914910929820314476107906210059990541021189"
      ]
    },
    {
      "x": 369,
      "y": 288,
      "size": 1,
      "price": "4683000000000000000000",
      "reserved": "",
      "salt": "0x4adb205e281c6249a3764800ffd8271d334bf7a8deec52e752f19ce9c6a690c5",
      "assetIds": [
        "41506478881403507969696680653240014914910929820314476107906210059990541021189"
      ]
    },
    {
      "x": 369,
      "y": 289,
      "size": 1,
      "price": "4683000000000000000000",
      "reserved": "",
      "salt": "0x3d172ce72e479d3b393d486940d08f436567b7ff26f068843c305ec7612499dc",
      "assetIds": [
        "41506478881403507969696680653240014914910929820314476107906210059990541021186"
      ]
    },
    {
      "x": 369,
      "y": 290,
      "size": 1,
      "price": "4683000000000000000000",
      "reserved": "",
      "salt": "0x434c127a1d86aea54639db80bb9fed91c4a841349d8690101759d7ccae8894bc",
      "assetIds": [
        "41506478881403507969696680653240014914910929820314476107906210059990532622336"
      ]
    },
    {
      "x": 369,
      "y": 291,
      "size": 1,
      "price": "4683000000000000000000",
      "reserved": "",
      "salt": "0xe6dcb3a22d4eda222011973024d74bc02fb8ba4bb3fdd935cd0f79998f75bade",
      "assetIds": [
        "41506478881403507969696680653240014914910929820314476107906210059990541021184"
      ]
    },
    {
      "x": 369,
      "y": 292,
      "size": 1,
      "price": "4683000000000000000000",
      "reserved": "",
      "salt": "0x9afb67be0f9168e8239ed2f431c594e588963c68522f6be5060177237a83ec6c",
      "assetIds": [
        "41506478881403507969696680653240014914910929820314476107906210059990532622336"
      ]
    },
    {
      "x": 369,
      "y": 293,
      "size": 1,
      "price": "4683000000000000000000",
      "reserved": "",
      "salt": "0x4220fb159f956ef125a3d134a5e5790a18a3da9eab5cb85b6b0bf24fd8d087c0",
      "assetIds": [
        "41506478881403507969696680653240014914910929820314476107906210059990541021184"
      ]
    },
    {
      "x": 369,
      "y": 294,
      "size": 1,
      "price": "4683000000000000000000",
      "reserved": "",
      "salt": "0x98eaef01b2e6fb4b0e8abaf87b3c1853500bdd2ecfba05bf0817ec7108aba815",
      "assetIds": [
        "41506478881403507969696680653240014914910929820314476107906210059990532622336"
      ]
    },
    {
      "x": 369,
      "y": 295,
      "size": 1,
      "price": "4683000000000000000000",
      "reserved": "",
      "salt": "0x7990bb957358463f47a7a69a759f688fe31d5df4268f40e6d8a815c4b8983dbe",
      "assetIds": [
        "41506478881403507969696680653240014914910929820314476107906210059990532622336"
      ]
    },
    {
      "x": 369,
      "y": 296,
      "size": 1,
      "price": "4683000000000000000000",
      "reserved": "",
      "salt": "0xd691701d3233cf5af1ab63b7f730d82c2f1b4f30664bd0ae8c559d2a685cf92c",
      "assetIds": [
        "41506478881403507969696680653240014914910929820314476107906210059990541021186"
      ]
    },
    {
      "x": 369,
      "y": 297,
      "size": 1,
      "price": "4683000000000000000000",
      "reserved": "",
      "salt": "0x4e6bc2f45c29801d6460020b6afb0d222d4ce5d5f24d3ab2ac9173fc8b0fa8d5",
      "assetIds": [
        "41506478881403507969696680653240014914910929820314476107906210059990541021184"
      ]
    },
    {
      "x": 369,
      "y": 298,
      "size": 1,
      "price": "4683000000000000000000",
      "reserved": "",
      "salt": "0xb20a09e3d2847d6caf1ec40794a5b131cf3b5ef492c0f8e53ea032941df60bca",
      "assetIds": [
        "41506478881403507969696680653240014914910929820314476107906210059990532622336"
      ]
    },
    {
      "x": 369,
      "y": 299,
      "size": 1,
      "price": "4683000000000000000000",
      "reserved": "",
      "salt": "0xb13f71b81ef828d361aee0a2b5491f934eb7e4b04459a5c82a0e75926e9dd758",
      "assetIds": [
        "41506478881403507969696680653240014914910929820314476107906210059990541021189"
      ]
    },
    {
      "x": 369,
      "y": 300,
      "size": 1,
      "price": "4683000000000000000000",
      "reserved": "",
      "salt": "0x3cf08e68518b24a058112e74fa1b8e81ba16bb467575c98b05e5536843a5a13b",
      "assetIds": [
        "41506478881403507969696680653240014914910929820314476107906210059990541021187"
      ]
    },
    {
      "x": 369,
      "y": 301,
      "size": 1,
      "price": "4683000000000000000000",
      "reserved": "",
      "salt": "0x28ee2c27a802f5d607bd3a0e75f6fe04f3a1d439135de1f99be754228dc405b2",
      "assetIds": [
        "41506478881403507969696680653240014914910929820314476107906210059990541021188"
      ]
    },
    {
      "x": 369,
      "y": 302,
      "size": 1,
      "price": "4683000000000000000000",
      "reserved": "",
      "salt": "0xaef4f37e32b4add1524c3b7861c714115c9c576ec17b0dad007eb4800719e951",
      "assetIds": [
        "41506478881403507969696680653240014914910929820314476107906210059990541021186"
      ]
    },
    {
      "x": 369,
      "y": 303,
      "size": 1,
      "price": "4683000000000000000000",
      "reserved": "",
      "salt": "0x2501c9d3335dfce0a4794f915528488df2364e782e24da2c6fdafd58d9e3f020",
      "assetIds": [
        "41506478881403507969696680653240014914910929820314476107906210059990541021188"
      ]
    },
    {
      "x": 369,
      "y": 304,
      "size": 1,
      "price": "4683000000000000000000",
      "reserved": "",
      "salt": "0xe55ab79684ca3cfdab34fa97c926debacd037e6fad3010766768640c31bc09ee",
      "assetIds": [
        "41506478881403507969696680653240014914910929820314476107906210059990541021185"
      ]
    },
    {
      "x": 369,
      "y": 305,
      "size": 1,
      "price": "4683000000000000000000",
      "reserved": "",
      "salt": "0x3c2bc80b57908cb4ec1c0b63467236b060429009186873d018aedbd9b89ca3ac",
      "assetIds": [
        "41506478881403507969696680653240014914910929820314476107906210059990541021185"
      ]
    },
    {
      "x": 370,
      "y": 231,
      "size": 1,
      "price": "4683000000000000000000",
      "reserved": "",
      "salt": "0x5a0cbb37cb1633781063c0eee44ad638bf9abb43024fcb3516958e79c3c722aa",
      "assetIds": [
        "41506478881403507969696680653240014914910929820314476107906210059990541021189"
      ]
    },
    {
      "x": 370,
      "y": 232,
      "size": 1,
      "price": "1011000000000000000000",
      "reserved": "0x7a9fe22691c811ea339d9b73150e6911a5343dca",
      "salt": "0x3757d152e4059a84a327429c9abdc5d5f940d5d21c6abb021e820348adab46b0",
      "assetIds": []
    },
    {
      "x": 370,
      "y": 233,
      "size": 1,
      "price": "4683000000000000000000",
      "reserved": "",
      "salt": "0x5973fa48108fa899ba8cf94ae6078afbebc399f2eca76eb2e81056cd932488d7",
      "assetIds": [
        "41506478881403507969696680653240014914910929820314476107906210059990541021187"
      ]
    },
    {
      "x": 370,
      "y": 234,
      "size": 1,
      "price": "4683000000000000000000",
      "reserved": "",
      "salt": "0x67c6c0d9376d036adb8e159d6a0418f37be87d69d14504342246e94535ad861a",
      "assetIds": [
        "41506478881403507969696680653240014914910929820314476107906210059990532622336"
      ]
    },
    {
      "x": 370,
      "y": 235,
      "size": 1,
      "price": "4683000000000000000000",
      "reserved": "",
      "salt": "0xc472988b25f55a685cf57897193198456c8221c8c034cfaa5c92847cb065a368",
      "assetIds": [
        "41506478881403507969696680653240014914910929820314476107906210059990541021187"
      ]
    },
    {
      "x": 370,
      "y": 236,
      "size": 1,
      "price": "4683000000000000000000",
      "reserved": "",
      "salt": "0xa1b6891f6ecf29ae527acd7a522a95016976381022d3999c25e6de039d50b4c3",
      "assetIds": [
        "41506478881403507969696680653240014914910929820314476107906210059990532622336"
      ]
    },
    {
      "x": 370,
      "y": 237,
      "size": 1,
      "price": "4683000000000000000000",
      "reserved": "",
      "salt": "0xf528332c4abafdac2a97eb06ee397c6e1adcafc3beda6709289660ee295974d4",
      "assetIds": [
        "41506478881403507969696680653240014914910929820314476107906210059990541021186"
      ]
    },
    {
      "x": 370,
      "y": 238,
      "size": 1,
      "price": "4683000000000000000000",
      "reserved": "",
      "salt": "0xb24652376746e7ed69fd484ea871ed306e8f77da3692583c3042cbd572024add",
      "assetIds": [
        "41506478881403507969696680653240014914910929820314476107906210059990541021184"
      ]
    },
    {
      "x": 370,
      "y": 239,
      "size": 1,
      "price": "4683000000000000000000",
      "reserved": "",
      "salt": "0xbbb9fd31f2f5782091ded71ac9f6d5cd942884c6dca5904ccb507d97178aefc9",
      "assetIds": [
        "41506478881403507969696680653240014914910929820314476107906210059990541021189"
      ]
    },
    {
      "x": 370,
      "y": 264,
      "size": 1,
      "price": "1011000000000000000000",
      "reserved": "0x7a9fe22691c811ea339d9b73150e6911a5343dca",
      "salt": "0x8072a39bf6b345fc61ceb87b6fb1871a214c307818ba85714320d68f157b4662",
      "assetIds": []
    },
    {
      "x": 370,
      "y": 265,
      "size": 1,
      "price": "4683000000000000000000",
      "reserved": "",
      "salt": "0x46e77324a8ab02447c905a32e90e48d9ff3cc7416082b08e8c3b3a98ab189bde",
      "assetIds": [
        "41506478881403507969696680653240014914910929820314476107906210059990541021188"
      ]
    },
    {
      "x": 370,
      "y": 266,
      "size": 1,
      "price": "4683000000000000000000",
      "reserved": "",
      "salt": "0x02e2aad1609e286a3aac46ee94be393d4b145fd3ec64f8cadc1d51e6cadf317f",
      "assetIds": [
        "41506478881403507969696680653240014914910929820314476107906210059990541021184"
      ]
    },
    {
      "x": 370,
      "y": 267,
      "size": 1,
      "price": "4683000000000000000000",
      "reserved": "",
      "salt": "0xa14d3a0d9c6283fda544796f1e04b33552fc80acb95263f382c4f4f52170b1c0",
      "assetIds": [
        "41506478881403507969696680653240014914910929820314476107906210059990541021184"
      ]
    },
    {
      "x": 370,
      "y": 268,
      "size": 1,
      "price": "4683000000000000000000",
      "reserved": "",
      "salt": "0x63f6030b81bd9615367bd517bd1a61a8ad39e4e75fd86806b1e62a02f336a38b",
      "assetIds": [
        "41506478881403507969696680653240014914910929820314476107906210059990541021187"
      ]
    },
    {
      "x": 370,
      "y": 269,
      "size": 1,
      "price": "4683000000000000000000",
      "reserved": "",
      "salt": "0x8715c503bd9cf8e789aee6f0b2dd680523177f93b02f2e6ac48e529fc56618ed",
      "assetIds": [
        "41506478881403507969696680653240014914910929820314476107906210059990541021187"
      ]
    },
    {
      "x": 370,
      "y": 288,
      "size": 1,
      "price": "4683000000000000000000",
      "reserved": "",
      "salt": "0x73bb154e27b54d51b11a50c7dccc24b124243d2370c187e0c8b5e90fa2245519",
      "assetIds": [
        "41506478881403507969696680653240014914910929820314476107906210059990541021184"
      ]
    },
    {
      "x": 370,
      "y": 289,
      "size": 1,
      "price": "4683000000000000000000",
      "reserved": "",
      "salt": "0xa0a27bf4d89a633ae96691117eab127e4d44ac72776d0e2c20b57624fa9699be",
      "assetIds": [
        "41506478881403507969696680653240014914910929820314476107906210059990541021188"
      ]
    },
    {
      "x": 370,
      "y": 290,
      "size": 1,
      "price": "4683000000000000000000",
      "reserved": "",
      "salt": "0xb58d57d43d8a286b3c5a74c41b9d3aef44a44b014ad309798946c9b2556726e1",
      "assetIds": [
        "41506478881403507969696680653240014914910929820314476107906210059990541021186"
      ]
    },
    {
      "x": 370,
      "y": 291,
      "size": 1,
      "price": "4683000000000000000000",
      "reserved": "",
      "salt": "0x02f475595c7e18957ec8b4b710a9bd2a0caf912b3ad7c7a72b69e278962ad4e3",
      "assetIds": [
        "41506478881403507969696680653240014914910929820314476107906210059990541021186"
      ]
    },
    {
      "x": 370,
      "y": 292,
      "size": 1,
      "price": "4683000000000000000000",
      "reserved": "",
      "salt": "0x3a072360fa762e806d00bb350dcab6d44702daa59dd29bf81920b16c1fe0ddb7",
      "assetIds": [
        "41506478881403507969696680653240014914910929820314476107906210059990541021186"
      ]
    },
    {
      "x": 370,
      "y": 293,
      "size": 1,
      "price": "4683000000000000000000",
      "reserved": "",
      "salt": "0x4058052e3282e112474a80f4d4828d8f584a57c4e3a8495d4c3792f9ba62ed68",
      "assetIds": [
        "41506478881403507969696680653240014914910929820314476107906210059990532622336"
      ]
    },
    {
      "x": 370,
      "y": 294,
      "size": 1,
      "price": "4683000000000000000000",
      "reserved": "",
      "salt": "0xaa0206c92bc65a379b9dce927cafa813b585e81d37677082a148537002ef17ce",
      "assetIds": [
        "41506478881403507969696680653240014914910929820314476107906210059990532622336"
      ]
    },
    {
      "x": 370,
      "y": 295,
      "size": 1,
      "price": "4683000000000000000000",
      "reserved": "",
      "salt": "0x68721ecff00f1243777c973b3c96f7583d8680923a5d5b3972bfef53c960f3e2",
      "assetIds": [
        "41506478881403507969696680653240014914910929820314476107906210059990541021184"
      ]
    },
    {
      "x": 370,
      "y": 296,
      "size": 1,
      "price": "4683000000000000000000",
      "reserved": "",
      "salt": "0x159efbac6716e3b0c24c2f8ccfe10c16061b347b4e6387acba8a59d7c55f9d46",
      "assetIds": [
        "41506478881403507969696680653240014914910929820314476107906210059990541021189"
      ]
    },
    {
      "x": 370,
      "y": 297,
      "size": 1,
      "price": "4683000000000000000000",
      "reserved": "",
      "salt": "0x623d573867d4d7e43ac648a6fc24b0206beeeb79b899d2c9afafc03162abe21a",
      "assetIds": [
        "41506478881403507969696680653240014914910929820314476107906210059990541021185"
      ]
    },
    {
      "x": 370,
      "y": 298,
      "size": 1,
      "price": "4683000000000000000000",
      "reserved": "",
      "salt": "0x2e4d235a54c55282991c3f73f631faf0b4039646b2618874573d639c228d885e",
      "assetIds": [
        "41506478881403507969696680653240014914910929820314476107906210059990541021185"
      ]
    },
    {
      "x": 370,
      "y": 299,
      "size": 1,
      "price": "4683000000000000000000",
      "reserved": "",
      "salt": "0x130142aacf68c498cd57b4d4369ccf2c3a590aa8775784b3dec7780fba41f69a",
      "assetIds": [
        "41506478881403507969696680653240014914910929820314476107906210059990541021186"
      ]
    },
    {
      "x": 370,
      "y": 300,
      "size": 1,
      "price": "4683000000000000000000",
      "reserved": "",
      "salt": "0xaffaccc92f17083995325cd9c110121e2bf0584b9070da46b3f8bf5caa72378a",
      "assetIds": [
        "41506478881403507969696680653240014914910929820314476107906210059990541021186"
      ]
    },
    {
      "x": 370,
      "y": 301,
      "size": 1,
      "price": "4683000000000000000000",
      "reserved": "",
      "salt": "0xcdb5490b0e29ac6e0ac15980b9ab44e4c581906ddc4e1cd4a0bd288044571dbf",
      "assetIds": [
        "41506478881403507969696680653240014914910929820314476107906210059990541021188"
      ]
    },
    {
      "x": 370,
      "y": 302,
      "size": 1,
      "price": "4683000000000000000000",
      "reserved": "",
      "salt": "0x13cfc17e241c53b235ccfc52df1fa309ad575b1b44b747fd2727795087478bfb",
      "assetIds": [
        "41506478881403507969696680653240014914910929820314476107906210059990541021188"
      ]
    },
    {
      "x": 370,
      "y": 303,
      "size": 1,
      "price": "4683000000000000000000",
      "reserved": "",
      "salt": "0x18cf23dcbfe3c170bda8a3b24f6b741b43a572e1e93ad966caa6c6f30b6f7c20",
      "assetIds": [
        "41506478881403507969696680653240014914910929820314476107906210059990541021186"
      ]
    },
    {
      "x": 370,
      "y": 304,
      "size": 1,
      "price": "4683000000000000000000",
      "reserved": "",
      "salt": "0xe423a843f5e964f57f590d54e4f59b97256a8dad69f35c6d0767a47b4f733cc4",
      "assetIds": [
        "41506478881403507969696680653240014914910929820314476107906210059990541021186"
      ]
    },
    {
      "x": 370,
      "y": 305,
      "size": 1,
      "price": "4683000000000000000000",
      "reserved": "",
      "salt": "0xc080e80ee6a581fd1af5089a8d18be63bfc2ad84d1ecdfa84d18bd4bab1aa8cc",
      "assetIds": [
        "41506478881403507969696680653240014914910929820314476107906210059990541021188"
      ]
    },
    {
      "x": 371,
      "y": 231,
      "size": 1,
      "price": "4683000000000000000000",
      "reserved": "",
      "salt": "0xcaf165f8118dfc06296a1076737484071dbd586ec8cbec124b3724ac4b5ff18a",
      "assetIds": [
        "41506478881403507969696680653240014914910929820314476107906210059990541021189"
      ]
    },
    {
      "x": 371,
      "y": 232,
      "size": 1,
      "price": "4683000000000000000000",
      "reserved": "",
      "salt": "0xbbda503d0d8bcda584375fcf0022ec061f7f96340b7ad3f28cee1b301571e7c2",
      "assetIds": [
        "41506478881403507969696680653240014914910929820314476107906210059990541021189"
      ]
    },
    {
      "x": 371,
      "y": 233,
      "size": 1,
      "price": "4683000000000000000000",
      "reserved": "",
      "salt": "0xc8fca820f7c78c4feae7f0902b627a2dd0137196e718a4219f4e50bf377b4a40",
      "assetIds": [
        "41506478881403507969696680653240014914910929820314476107906210059990541021186"
      ]
    },
    {
      "x": 371,
      "y": 234,
      "size": 1,
      "price": "4683000000000000000000",
      "reserved": "",
      "salt": "0x40de3c96430f12221d5b3cf20d9ae91a7216a5b864312ec981929e7b29e21d05",
      "assetIds": [
        "41506478881403507969696680653240014914910929820314476107906210059990541021188"
      ]
    },
    {
      "x": 371,
      "y": 235,
      "size": 1,
      "price": "4683000000000000000000",
      "reserved": "",
      "salt": "0x441f192790718d38e2c8306937071995d4d5938553d4cb76422cedf4aa62da38",
      "assetIds": [
        "41506478881403507969696680653240014914910929820314476107906210059990532622336"
      ]
    },
    {
      "x": 371,
      "y": 236,
      "size": 1,
      "price": "4683000000000000000000",
      "reserved": "",
      "salt": "0x04ae288490ea9e0d017e53e16419204f1f9ac43f5ddacd3c1cb70a0547b2e0fd",
      "assetIds": [
        "41506478881403507969696680653240014914910929820314476107906210059990541021187"
      ]
    },
    {
      "x": 371,
      "y": 237,
      "size": 1,
      "price": "4683000000000000000000",
      "reserved": "",
      "salt": "0xfe578da77c0378063ddb12e266ea68456d2f1753742e02e1be04444888d9ade5",
      "assetIds": [
        "41506478881403507969696680653240014914910929820314476107906210059990541021186"
      ]
    },
    {
      "x": 371,
      "y": 238,
      "size": 1,
      "price": "4683000000000000000000",
      "reserved": "",
      "salt": "0x6f5a60af2c70132a248c1e9e94590d84a67d19d53741fe0186c36849c3e7595e",
      "assetIds": [
        "41506478881403507969696680653240014914910929820314476107906210059990541021187"
      ]
    },
    {
      "x": 371,
      "y": 239,
      "size": 1,
      "price": "4683000000000000000000",
      "reserved": "",
      "salt": "0xaf406d970eecbed19226e5c0dfc660678b37486b84deebaa784736dd6ecaaaf9",
      "assetIds": [
        "41506478881403507969696680653240014914910929820314476107906210059990541021184"
      ]
    },
    {
      "x": 371,
      "y": 264,
      "size": 1,
      "price": "4683000000000000000000",
      "reserved": "",
      "salt": "0xe260f339eade2ff40a055b984e58f4b9c9c5f2e2b5a47f34287bfb815121cba3",
      "assetIds": [
        "41506478881403507969696680653240014914910929820314476107906210059990541021187"
      ]
    },
    {
      "x": 371,
      "y": 265,
      "size": 1,
      "price": "4683000000000000000000",
      "reserved": "",
      "salt": "0xe0ba080f6030fa7da79a4a069a9c8bda66df2813a501e2bffd5ba5226e1cd284",
      "assetIds": [
        "41506478881403507969696680653240014914910929820314476107906210059990532622336"
      ]
    },
    {
      "x": 371,
      "y": 266,
      "size": 1,
      "price": "4683000000000000000000",
      "reserved": "",
      "salt": "0xcbb8991099bf6e5653d8c8f7d0dc591506f12b99c2e8248a07b531c24f596f72",
      "assetIds": [
        "41506478881403507969696680653240014914910929820314476107906210059990541021188"
      ]
    },
    {
      "x": 371,
      "y": 267,
      "size": 1,
      "price": "4683000000000000000000",
      "reserved": "",
      "salt": "0x5756d5ec76ce88448ed3d105e693f7560df1d98a7d0c3d0c0170e602cbc86b00",
      "assetIds": [
        "41506478881403507969696680653240014914910929820314476107906210059990541021187"
      ]
    },
    {
      "x": 371,
      "y": 268,
      "size": 1,
      "price": "4683000000000000000000",
      "reserved": "",
      "salt": "0xd930dfd97b1097c3cf808ead90428ee976c09cb3227228f74b249e0810de4f4a",
      "assetIds": [
        "41506478881403507969696680653240014914910929820314476107906210059990541021186"
      ]
    },
    {
      "x": 371,
      "y": 269,
      "size": 1,
      "price": "4683000000000000000000",
      "reserved": "",
      "salt": "0xaa4d09e6cad16db12a5eedef0e0669237951e1d629c911fa8e5069fb52b7fd24",
      "assetIds": [
        "41506478881403507969696680653240014914910929820314476107906210059990541021189"
      ]
    },
    {
      "x": 371,
      "y": 288,
      "size": 1,
      "price": "4683000000000000000000",
      "reserved": "",
      "salt": "0xbd82762dbc78360661c2c1652ad1b1fa5e0a4a57eb77e785a2daadc650c1bf69",
      "assetIds": [
        "41506478881403507969696680653240014914910929820314476107906210059990541021187"
      ]
    },
    {
      "x": 371,
      "y": 289,
      "size": 1,
      "price": "4683000000000000000000",
      "reserved": "",
      "salt": "0x023e5143ae33a687416be262a9875a3a0edf7690f5c321df6896f0fa75990871",
      "assetIds": [
        "41506478881403507969696680653240014914910929820314476107906210059990541021184"
      ]
    },
    {
      "x": 371,
      "y": 290,
      "size": 1,
      "price": "4683000000000000000000",
      "reserved": "",
      "salt": "0xc9f7b5a0f4b3b72b590d6696774aa6f6366cbff9aa07e851666c58b14a25459b",
      "assetIds": [
        "41506478881403507969696680653240014914910929820314476107906210059990541021188"
      ]
    },
    {
      "x": 371,
      "y": 291,
      "size": 1,
      "price": "4683000000000000000000",
      "reserved": "",
      "salt": "0x2f1e7caa27db942ace73c287071255aab15e286343f42134893a6ecb5b6b1159",
      "assetIds": [
        "41506478881403507969696680653240014914910929820314476107906210059990541021188"
      ]
    },
    {
      "x": 371,
      "y": 292,
      "size": 1,
      "price": "4683000000000000000000",
      "reserved": "",
      "salt": "0xfb9d1642a34cce74fb4df6629149c70fc0da3d0d4cf6584867aeaadb9e9e03e2",
      "assetIds": [
        "41506478881403507969696680653240014914910929820314476107906210059990541021184"
      ]
    },
    {
      "x": 371,
      "y": 293,
      "size": 1,
      "price": "4683000000000000000000",
      "reserved": "",
      "salt": "0x58b8a891e159272cb94a6eb7bc7341c7974ed1894f7c1d5136b4260117470ee0",
      "assetIds": [
        "41506478881403507969696680653240014914910929820314476107906210059990541021187"
      ]
    },
    {
      "x": 371,
      "y": 294,
      "size": 1,
      "price": "1011000000000000000000",
      "reserved": "0x7a9fe22691c811ea339d9b73150e6911a5343dca",
      "salt": "0xd3c9ab5d5edf6e1d706326dc44a0f879bfcf343061796884f97eb4ea96c65774",
      "assetIds": []
    },
    {
      "x": 371,
      "y": 295,
      "size": 1,
      "price": "4683000000000000000000",
      "reserved": "",
      "salt": "0xac0510563a86981977543d45fe856f2ed7100f0859ccf4e09447295e183728c5",
      "assetIds": [
        "41506478881403507969696680653240014914910929820314476107906210059990541021189"
      ]
    },
    {
      "x": 371,
      "y": 296,
      "size": 1,
      "price": "4683000000000000000000",
      "reserved": "",
      "salt": "0x06d1ffe7c899ae0e6207d91a5178a6585df6b3453a854fed4d4273998334e94e",
      "assetIds": [
        "41506478881403507969696680653240014914910929820314476107906210059990541021185"
      ]
    },
    {
      "x": 371,
      "y": 297,
      "size": 1,
      "price": "4683000000000000000000",
      "reserved": "",
      "salt": "0x2a15e1ecba85e943b57cd3b003d016d5afa7ea75853f61a1c6f2df936ba90661",
      "assetIds": [
        "41506478881403507969696680653240014914910929820314476107906210059990532622336"
      ]
    },
    {
      "x": 371,
      "y": 298,
      "size": 1,
      "price": "4683000000000000000000",
      "reserved": "",
      "salt": "0xac80c395bcfe52e25fe64516d836a16822609149343096e4c93ef3b0a1bf2ae2",
      "assetIds": [
        "41506478881403507969696680653240014914910929820314476107906210059990532622336"
      ]
    },
    {
      "x": 371,
      "y": 299,
      "size": 1,
      "price": "4683000000000000000000",
      "reserved": "",
      "salt": "0xa9276aaaa3b843bdba5be303055e2f580f4c01fc3881953b0d975f2ca9415a49",
      "assetIds": [
        "41506478881403507969696680653240014914910929820314476107906210059990541021187"
      ]
    },
    {
      "x": 371,
      "y": 300,
      "size": 1,
      "price": "4683000000000000000000",
      "reserved": "",
      "salt": "0x0573b3afa1f5eb36fec37f04e432dfc5a83f3f97f449c72d37bbf1fdc8359d55",
      "assetIds": [
        "41506478881403507969696680653240014914910929820314476107906210059990541021188"
      ]
    },
    {
      "x": 371,
      "y": 301,
      "size": 1,
      "price": "4683000000000000000000",
      "reserved": "",
      "salt": "0x2bc126cf1c6c20345c85e9a92d074de94d54b25143a285c27bc64ebe6a66548d",
      "assetIds": [
        "41506478881403507969696680653240014914910929820314476107906210059990541021186"
      ]
    },
    {
      "x": 371,
      "y": 302,
      "size": 1,
      "price": "4683000000000000000000",
      "reserved": "",
      "salt": "0xdb9625649fde67ff5544d4389e4287ebb2593b9e9d841cd1e499b7a028efc845",
      "assetIds": [
        "41506478881403507969696680653240014914910929820314476107906210059990541021189"
      ]
    },
    {
      "x": 371,
      "y": 303,
      "size": 1,
      "price": "4683000000000000000000",
      "reserved": "",
      "salt": "0x537b419ce99543058ab77dfa6e32ec03a749538fd10038464a32dc67c46ceb12",
      "assetIds": [
        "41506478881403507969696680653240014914910929820314476107906210059990541021189"
      ]
    },
    {
      "x": 371,
      "y": 304,
      "size": 1,
      "price": "4683000000000000000000",
      "reserved": "",
      "salt": "0x6da4afe7412fcf482ec7251ebf77ce52867a10ed8de3f360fb343b7b0d97b29f",
      "assetIds": [
        "41506478881403507969696680653240014914910929820314476107906210059990541021185"
      ]
    },
    {
      "x": 371,
      "y": 305,
      "size": 1,
      "price": "4683000000000000000000",
      "reserved": "",
      "salt": "0xf34b2ef7a05da6261040a81f80fdfb00d3e3df056ee9ab76cb2a21ce2effcb2e",
      "assetIds": [
        "41506478881403507969696680653240014914910929820314476107906210059990541021184"
      ]
    },
    {
      "x": 372,
      "y": 231,
      "size": 1,
      "price": "4683000000000000000000",
      "reserved": "",
      "salt": "0x047a636982af9580f504fcc0c22fe3f4797db4dc1d610ddb94072470d5f4abad",
      "assetIds": [
        "41506478881403507969696680653240014914910929820314476107906210059990541021186"
      ]
    },
    {
      "x": 372,
      "y": 232,
      "size": 1,
      "price": "4683000000000000000000",
      "reserved": "",
      "salt": "0xbbe1eccaac4f8ff877f5e7d1af66b51386015c917349664352179619960a50a2",
      "assetIds": [
        "41506478881403507969696680653240014914910929820314476107906210059990541021186"
      ]
    },
    {
      "x": 372,
      "y": 233,
      "size": 1,
      "price": "4683000000000000000000",
      "reserved": "",
      "salt": "0x5cfabb342068a07ffa600f54b0dbd32fb51d55fd5b862438b7d6d9c078706c97",
      "assetIds": [
        "41506478881403507969696680653240014914910929820314476107906210059990541021188"
      ]
    },
    {
      "x": 372,
      "y": 276,
      "size": 1,
      "price": "4683000000000000000000",
      "reserved": "",
      "salt": "0x65c2aaca547a7c9c457b4bc314550e1c302fb18e263eec13ef7cc08d3df56488",
      "assetIds": [
        "41506478881403507969696680653240014914910929820314476107906210059990541021186"
      ]
    },
    {
      "x": 372,
      "y": 277,
      "size": 1,
      "price": "4683000000000000000000",
      "reserved": "",
      "salt": "0xe1074e93365f0716327016232b344cf5afe49f3c943a8db6200dc9fad60a3112",
      "assetIds": [
        "41506478881403507969696680653240014914910929820314476107906210059990541021189"
      ]
    },
    {
      "x": 372,
      "y": 278,
      "size": 1,
      "price": "4683000000000000000000",
      "reserved": "",
      "salt": "0x380b75ee15920f4ae65adb45cc1baa877695dd5c4b4540495cd2d26532674153",
      "assetIds": [
        "41506478881403507969696680653240014914910929820314476107906210059990541021186"
      ]
    },
    {
      "x": 372,
      "y": 279,
      "size": 1,
      "price": "4683000000000000000000",
      "reserved": "",
      "salt": "0xecb4ab545d0532fe44e7f26385e28868be333eec4c7ec8ea84728d4c761782b7",
      "assetIds": [
        "41506478881403507969696680653240014914910929820314476107906210059990541021189"
      ]
    },
    {
      "x": 372,
      "y": 280,
      "size": 1,
      "price": "4683000000000000000000",
      "reserved": "",
      "salt": "0xeec144da3e202d21a580a8e3d16e53fdb396f6fcce84de73f214427faac925b4",
      "assetIds": [
        "41506478881403507969696680653240014914910929820314476107906210059990541021185"
      ]
    },
    {
      "x": 372,
      "y": 281,
      "size": 1,
      "price": "4683000000000000000000",
      "reserved": "",
      "salt": "0x3fa5ddb31de2aae49af6d634b8e9edc9b0dca539830653ff31ea8ccb463076d5",
      "assetIds": [
        "41506478881403507969696680653240014914910929820314476107906210059990541021187"
      ]
    },
    {
      "x": 372,
      "y": 288,
      "size": 1,
      "price": "4683000000000000000000",
      "reserved": "",
      "salt": "0x2c584b81bf674a815ccc56f1d74bb220854f2e5b2c2d016ae4c918ba7db13a5f",
      "assetIds": [
        "41506478881403507969696680653240014914910929820314476107906210059990541021188"
      ]
    },
    {
      "x": 372,
      "y": 289,
      "size": 1,
      "price": "4683000000000000000000",
      "reserved": "",
      "salt": "0x17ff326d803fd66ca43c3c898d2d8c0866c585ba1648f95897a9853f0e6bc7b6",
      "assetIds": [
        "41506478881403507969696680653240014914910929820314476107906210059990532622336"
      ]
    },
    {
      "x": 372,
      "y": 290,
      "size": 1,
      "price": "4683000000000000000000",
      "reserved": "",
      "salt": "0x80f77e7ac40eeef59d35961ec11229077fe949b60e99d1f830055e0e4e5aa4b1",
      "assetIds": [
        "41506478881403507969696680653240014914910929820314476107906210059990541021189"
      ]
    },
    {
      "x": 372,
      "y": 291,
      "size": 1,
      "price": "4683000000000000000000",
      "reserved": "",
      "salt": "0x807ef97f25f91aac6b734e3c8b7ce945ab95c8e54170352c676c86de83b4f4cd",
      "assetIds": [
        "41506478881403507969696680653240014914910929820314476107906210059990541021185"
      ]
    },
    {
      "x": 372,
      "y": 292,
      "size": 1,
      "price": "4683000000000000000000",
      "reserved": "",
      "salt": "0x07bb7cadc738075f77f7bc809ef8fa24b6283b4c94f650b63ed8832bf6e6b156",
      "assetIds": [
        "41506478881403507969696680653240014914910929820314476107906210059990532622336"
      ]
    },
    {
      "x": 372,
      "y": 293,
      "size": 1,
      "price": "4683000000000000000000",
      "reserved": "",
      "salt": "0xc93c3ff6b57887413dc56da790b882c964f60bd5dbb2511df34c278d06bf0056",
      "assetIds": [
        "41506478881403507969696680653240014914910929820314476107906210059990541021185"
      ]
    },
    {
      "x": 372,
      "y": 294,
      "size": 1,
      "price": "4683000000000000000000",
      "reserved": "",
      "salt": "0x7fbf5353b0eac529af92dda829c7518f11f795a2a0aa066f66c699cda53b9a63",
      "assetIds": [
        "41506478881403507969696680653240014914910929820314476107906210059990541021184"
      ]
    },
    {
      "x": 372,
      "y": 295,
      "size": 1,
      "price": "4683000000000000000000",
      "reserved": "",
      "salt": "0x3f0688bd1bfb714dbeb39e338cb57fd686a1baf202c8993cdc63fc2ff5f59380",
      "assetIds": [
        "41506478881403507969696680653240014914910929820314476107906210059990541021185"
      ]
    },
    {
      "x": 372,
      "y": 296,
      "size": 1,
      "price": "4683000000000000000000",
      "reserved": "",
      "salt": "0x34ff2560161d6c4e0c306bc97ec0011f4aba95e7e37d6b7a321656b24262537c",
      "assetIds": [
        "41506478881403507969696680653240014914910929820314476107906210059990541021184"
      ]
    },
    {
      "x": 372,
      "y": 297,
      "size": 1,
      "price": "4683000000000000000000",
      "reserved": "",
      "salt": "0xaaba01c2ed5a9821e4823feaf9cebda9f76e08acf7d2e40970ab56e524d69cec",
      "assetIds": [
        "41506478881403507969696680653240014914910929820314476107906210059990541021185"
      ]
    },
    {
      "x": 372,
      "y": 298,
      "size": 1,
      "price": "4683000000000000000000",
      "reserved": "",
      "salt": "0xa5f52dd0d4767f0b668b356f5d90240f66e159b16d4f304339602b93b16c62de",
      "assetIds": [
        "41506478881403507969696680653240014914910929820314476107906210059990541021189"
      ]
    },
    {
      "x": 372,
      "y": 299,
      "size": 1,
      "price": "4683000000000000000000",
      "reserved": "",
      "salt": "0xbc7069f064ceb6ffc8f6da34548f59f5597c48c8d28cd98c58aa0d9b773ba58a",
      "assetIds": [
        "41506478881403507969696680653240014914910929820314476107906210059990541021186"
      ]
    },
    {
      "x": 372,
      "y": 300,
      "size": 1,
      "price": "4683000000000000000000",
      "reserved": "",
      "salt": "0xdbd210796150c4728eee3d90428b58af61230310f42c87997a6fc8c25dac177b",
      "assetIds": [
        "41506478881403507969696680653240014914910929820314476107906210059990541021185"
      ]
    },
    {
      "x": 372,
      "y": 301,
      "size": 1,
      "price": "4683000000000000000000",
      "reserved": "",
      "salt": "0x5f34b99da0755eb61672247604198cae9825b6cac2ff23a9c484780662e1ab12",
      "assetIds": [
        "41506478881403507969696680653240014914910929820314476107906210059990541021184"
      ]
    },
    {
      "x": 372,
      "y": 302,
      "size": 1,
      "price": "4683000000000000000000",
      "reserved": "",
      "salt": "0x1920b21f8be67ce9270b5b50de7a12dc1a0ad4191cf18c59d9f9c68f8c34ddeb",
      "assetIds": [
        "41506478881403507969696680653240014914910929820314476107906210059990541021189"
      ]
    },
    {
      "x": 372,
      "y": 303,
      "size": 1,
      "price": "4683000000000000000000",
      "reserved": "",
      "salt": "0x05316dd5f161557189ec61a2246a3386237c26a16c2af775c2b3732a684eeaf9",
      "assetIds": [
        "41506478881403507969696680653240014914910929820314476107906210059990532622336"
      ]
    },
    {
      "x": 372,
      "y": 304,
      "size": 1,
      "price": "4683000000000000000000",
      "reserved": "",
      "salt": "0x313c6b3c3aa2a6c2b44cdf4c5f662f12e0f646e60f98425684cf9b1b420bf5e1",
      "assetIds": [
        "41506478881403507969696680653240014914910929820314476107906210059990541021189"
      ]
    },
    {
      "x": 372,
      "y": 305,
      "size": 1,
      "price": "4683000000000000000000",
      "reserved": "",
      "salt": "0xfd66ee43307f6c3d4f8c0b0ebf954e16051c2ba4014d521201c31623219f69be",
      "assetIds": [
        "41506478881403507969696680653240014914910929820314476107906210059990541021188"
      ]
    },
    {
      "x": 373,
      "y": 231,
      "size": 1,
      "price": "4683000000000000000000",
      "reserved": "",
      "salt": "0xf23fb10f62d94c4967746a8ce4d08f4da0139719fb6a2494c0385643d6d65f49",
      "assetIds": [
        "41506478881403507969696680653240014914910929820314476107906210059990541021189"
      ]
    },
    {
      "x": 373,
      "y": 232,
      "size": 1,
      "price": "4683000000000000000000",
      "reserved": "",
      "salt": "0x27b95d34cdd1e6b8c2d82c5e6221e5a4059541fa8d128c2dbbcb9ca00f9f832e",
      "assetIds": [
        "41506478881403507969696680653240014914910929820314476107906210059990541021184"
      ]
    },
    {
      "x": 373,
      "y": 233,
      "size": 1,
      "price": "4683000000000000000000",
      "reserved": "",
      "salt": "0x36c8efb2ed63adbaff4628a287a0bad3567e289d2d47e9bf344c02621a9645e0",
      "assetIds": [
        "41506478881403507969696680653240014914910929820314476107906210059990541021185"
      ]
    },
    {
      "x": 373,
      "y": 276,
      "size": 1,
      "price": "4683000000000000000000",
      "reserved": "",
      "salt": "0xafbcee42cab1a45bb8e4c79f1d9bc10b4909ed4e3065a5753ef4a835d9da628e",
      "assetIds": [
        "41506478881403507969696680653240014914910929820314476107906210059990532622336"
      ]
    },
    {
      "x": 373,
      "y": 277,
      "size": 1,
      "price": "1011000000000000000000",
      "reserved": "0x7a9fe22691c811ea339d9b73150e6911a5343dca",
      "salt": "0xa34069a1854f3899acaa67dae3f1c84f40efc1189955ae987363cc858a2413b2",
      "assetIds": []
    },
    {
      "x": 373,
      "y": 278,
      "size": 1,
      "price": "4683000000000000000000",
      "reserved": "",
      "salt": "0xebe775cf84543bdbfef36bf7861ebd4ed8d479ff0dc67eefa1bd69788f1a6d41",
      "assetIds": [
        "41506478881403507969696680653240014914910929820314476107906210059990541021188"
      ]
    },
    {
      "x": 373,
      "y": 279,
      "size": 1,
      "price": "4683000000000000000000",
      "reserved": "",
      "salt": "0x1d73bc05f21884f06261d6e3cba24735f1738c6682c863c7c0fbaf6c190c78cc",
      "assetIds": [
        "41506478881403507969696680653240014914910929820314476107906210059990541021186"
      ]
    },
    {
      "x": 373,
      "y": 280,
      "size": 1,
      "price": "4683000000000000000000",
      "reserved": "",
      "salt": "0xc52aaea71d672857f0cb05117a79583d497fe5fb5cb7f8323cf0f855d5e18163",
      "assetIds": [
        "41506478881403507969696680653240014914910929820314476107906210059990532622336"
      ]
    },
    {
      "x": 373,
      "y": 281,
      "size": 1,
      "price": "4683000000000000000000",
      "reserved": "",
      "salt": "0x4cdf494473f6e9aefa17e7f8b2380074f20ad84d5b9070229c600b44bbe89036",
      "assetIds": [
        "41506478881403507969696680653240014914910929820314476107906210059990541021188"
      ]
    },
    {
      "x": 373,
      "y": 288,
      "size": 1,
      "price": "4683000000000000000000",
      "reserved": "",
      "salt": "0xf3f26447b288ac9b8b7ce3468b8dcc5eb3241be7cd570785dd6dfce73328c6ba",
      "assetIds": [
        "41506478881403507969696680653240014914910929820314476107906210059990541021187"
      ]
    },
    {
      "x": 373,
      "y": 289,
      "size": 1,
      "price": "4683000000000000000000",
      "reserved": "",
      "salt": "0xe37c6c09d20319260a2c10603bed10e26db56cfaf83fc2049a443d4e12dcb684",
      "assetIds": [
        "41506478881403507969696680653240014914910929820314476107906210059990532622336"
      ]
    },
    {
      "x": 373,
      "y": 290,
      "size": 1,
      "price": "4683000000000000000000",
      "reserved": "",
      "salt": "0x873e1a31fa663a822a3e6969b90d57b0888131b3b4a90f4bd3ed08e2041aa1ab",
      "assetIds": [
        "41506478881403507969696680653240014914910929820314476107906210059990532622336"
      ]
    },
    {
      "x": 373,
      "y": 291,
      "size": 1,
      "price": "4683000000000000000000",
      "reserved": "",
      "salt": "0x8f3776e1be25cb79c8a3971fc7a9175430fa74c7c63b7e2c13cc7aaee9c5de65",
      "assetIds": [
        "41506478881403507969696680653240014914910929820314476107906210059990532622336"
      ]
    },
    {
      "x": 373,
      "y": 292,
      "size": 1,
      "price": "4683000000000000000000",
      "reserved": "",
      "salt": "0x21f33d1aba9b108abefa2e6bc70440afb9630d0a2e9803419e57652b55335c4f",
      "assetIds": [
        "41506478881403507969696680653240014914910929820314476107906210059990541021187"
      ]
    },
    {
      "x": 373,
      "y": 293,
      "size": 1,
      "price": "4683000000000000000000",
      "reserved": "",
      "salt": "0x468925fd34c43a728b31e7cd7114cf7709691594a7b7bc92cf28439b61f7b7a0",
      "assetIds": [
        "41506478881403507969696680653240014914910929820314476107906210059990532622336"
      ]
    },
    {
      "x": 373,
      "y": 294,
      "size": 1,
      "price": "4683000000000000000000",
      "reserved": "",
      "salt": "0xfe753ce16b8f603d7fafc0ddb466eeddc81aeff3e2d1b05537a851016a98a8f3",
      "assetIds": [
        "41506478881403507969696680653240014914910929820314476107906210059990541021187"
      ]
    },
    {
      "x": 373,
      "y": 295,
      "size": 1,
      "price": "4683000000000000000000",
      "reserved": "",
      "salt": "0x78bb4375b1497f31f96e6b3cd9108e32f61e21e73cac377690615e0907d6b3d7",
      "assetIds": [
        "41506478881403507969696680653240014914910929820314476107906210059990541021184"
      ]
    },
    {
      "x": 373,
      "y": 296,
      "size": 1,
      "price": "4683000000000000000000",
      "reserved": "",
      "salt": "0x6c0f08411bcfe4ac1a48f62d14da69a46351ccde66d83a34045996c05e72e745",
      "assetIds": [
        "41506478881403507969696680653240014914910929820314476107906210059990541021184"
      ]
    },
    {
      "x": 373,
      "y": 297,
      "size": 1,
      "price": "4683000000000000000000",
      "reserved": "",
      "salt": "0x15148a4fbdcd45f0441183782f964fb1d730f0ce79d646882b12b6e89c931524",
      "assetIds": [
        "41506478881403507969696680653240014914910929820314476107906210059990541021184"
      ]
    },
    {
      "x": 373,
      "y": 298,
      "size": 1,
      "price": "4683000000000000000000",
      "reserved": "",
      "salt": "0xc78199cd25944c9ff120b331268b6c550b7a6595b92f6405326b2122feaca13b",
      "assetIds": [
        "41506478881403507969696680653240014914910929820314476107906210059990541021187"
      ]
    },
    {
      "x": 373,
      "y": 299,
      "size": 1,
      "price": "4683000000000000000000",
      "reserved": "",
      "salt": "0xf744c08ba4751eaf1ceddc8d0fa2a5af02fe232e7f74558a4edfb4bf9bcff467",
      "assetIds": [
        "41506478881403507969696680653240014914910929820314476107906210059990541021185"
      ]
    },
    {
      "x": 373,
      "y": 300,
      "size": 1,
      "price": "4683000000000000000000",
      "reserved": "",
      "salt": "0x58230c8e6b0187d4753c9c986655bdd2ba8b18a6376907698f4fb5a92ce045ec",
      "assetIds": [
        "41506478881403507969696680653240014914910929820314476107906210059990541021184"
      ]
    },
    {
      "x": 373,
      "y": 301,
      "size": 1,
      "price": "4683000000000000000000",
      "reserved": "",
      "salt": "0x5097f7a4f6929176315558988730699e6c29d23f8600a50bbd96c8df305164ee",
      "assetIds": [
        "41506478881403507969696680653240014914910929820314476107906210059990541021189"
      ]
    },
    {
      "x": 373,
      "y": 302,
      "size": 1,
      "price": "4683000000000000000000",
      "reserved": "",
      "salt": "0x59535340df61fd8c33b436d4a7b6434d84a6a0e8b49bd6d9ceb6bd6da86ac00e",
      "assetIds": [
        "41506478881403507969696680653240014914910929820314476107906210059990541021188"
      ]
    },
    {
      "x": 373,
      "y": 303,
      "size": 1,
      "price": "4683000000000000000000",
      "reserved": "",
      "salt": "0x0d418e91ad9bf7f09df52fdb063152029f557fdbf61bb94ddd2048605b7ddb26",
      "assetIds": [
        "41506478881403507969696680653240014914910929820314476107906210059990541021184"
      ]
    },
    {
      "x": 373,
      "y": 304,
      "size": 1,
      "price": "4683000000000000000000",
      "reserved": "",
      "salt": "0x152d09093674f7346805ef25807d0c627c1056513d1ea8d659df42b948a3d43e",
      "assetIds": [
        "41506478881403507969696680653240014914910929820314476107906210059990541021187"
      ]
    },
    {
      "x": 373,
      "y": 305,
      "size": 1,
      "price": "4683000000000000000000",
      "reserved": "",
      "salt": "0xd25ea8a5824e78d94f45895ebb87460d6d7e9dc113fb8b256bf1f76e32c65836",
      "assetIds": [
        "41506478881403507969696680653240014914910929820314476107906210059990541021184"
      ]
    },
    {
      "x": 374,
      "y": 231,
      "size": 1,
      "price": "4683000000000000000000",
      "reserved": "",
      "salt": "0x09a487c425da3d4cedd28b99165109e38c4b3c901818f4128c2b79b359577642",
      "assetIds": [
        "41506478881403507969696680653240014914910929820314476107906210059990541021188"
      ]
    },
    {
      "x": 374,
      "y": 232,
      "size": 1,
      "price": "4683000000000000000000",
      "reserved": "",
      "salt": "0xdc16615b1333f0a153078b51957ff935bfbaef7dd0d2db57f8c678a73b9fcae5",
      "assetIds": [
        "41506478881403507969696680653240014914910929820314476107906210059990541021185"
      ]
    },
    {
      "x": 374,
      "y": 233,
      "size": 1,
      "price": "4683000000000000000000",
      "reserved": "",
      "salt": "0xa07e5c1cc511931e0a13d78b30942e645592c67a8635ad86e723793e250a94f2",
      "assetIds": [
        "41506478881403507969696680653240014914910929820314476107906210059990541021185"
      ]
    },
    {
      "x": 374,
      "y": 276,
      "size": 1,
      "price": "4683000000000000000000",
      "reserved": "",
      "salt": "0xe41389c60426c7658aafc8bfd8eb439b6368ddea9ef3ee98d737c25956cf9b5f",
      "assetIds": [
        "41506478881403507969696680653240014914910929820314476107906210059990541021189"
      ]
    },
    {
      "x": 374,
      "y": 277,
      "size": 1,
      "price": "4683000000000000000000",
      "reserved": "",
      "salt": "0x105c19b3c139c6a902327b909d382280180c24c37b097262b7de6b28c3100e9c",
      "assetIds": [
        "41506478881403507969696680653240014914910929820314476107906210059990541021186"
      ]
    },
    {
      "x": 374,
      "y": 278,
      "size": 1,
      "price": "4683000000000000000000",
      "reserved": "",
      "salt": "0x1405803e05f3af7aca170df33807371a7c77fd1362997312d8b81a6e3c0b2500",
      "assetIds": [
        "41506478881403507969696680653240014914910929820314476107906210059990541021188"
      ]
    },
    {
      "x": 374,
      "y": 279,
      "size": 1,
      "price": "4683000000000000000000",
      "reserved": "",
      "salt": "0x495528793836234c9bef8482959c15d408e503362f007fbd7adf3ea6e433c632",
      "assetIds": [
        "41506478881403507969696680653240014914910929820314476107906210059990532622336"
      ]
    },
    {
      "x": 374,
      "y": 280,
      "size": 1,
      "price": "4683000000000000000000",
      "reserved": "",
      "salt": "0xe7015119df501d05a7693a476f49963b09ec699dea637ad7605a556b3143f64e",
      "assetIds": [
        "41506478881403507969696680653240014914910929820314476107906210059990532622336"
      ]
    },
    {
      "x": 374,
      "y": 281,
      "size": 1,
      "price": "4683000000000000000000",
      "reserved": "",
      "salt": "0x383229f9eb76e0134027cf14624bfe112765a71e93c874669bcae2845306d0fd",
      "assetIds": [
        "41506478881403507969696680653240014914910929820314476107906210059990541021189"
      ]
    },
    {
      "x": 374,
      "y": 288,
      "size": 1,
      "price": "4683000000000000000000",
      "reserved": "",
      "salt": "0x196c31a88101cddc8b48f261c8f105e4e44fa17d2d0b24b7d1a7657e82da1faa",
      "assetIds": [
        "41506478881403507969696680653240014914910929820314476107906210059990541021188"
      ]
    },
    {
      "x": 374,
      "y": 289,
      "size": 1,
      "price": "4683000000000000000000",
      "reserved": "",
      "salt": "0x3922c9969eb26384a663a7d2bed42ea0e62b6892691a7789a76eb64aefd12095",
      "assetIds": [
        "41506478881403507969696680653240014914910929820314476107906210059990541021187"
      ]
    },
    {
      "x": 374,
      "y": 290,
      "size": 1,
      "price": "4683000000000000000000",
      "reserved": "",
      "salt": "0xd404a1fe025de373e49837c76a853b3e7e85f6010891e67873ee7d7ccd9366f1",
      "assetIds": [
        "41506478881403507969696680653240014914910929820314476107906210059990541021186"
      ]
    },
    {
      "x": 374,
      "y": 291,
      "size": 1,
      "price": "4683000000000000000000",
      "reserved": "",
      "salt": "0x1fbf25f40692dc316ab19a5c7b8e659739f81287869a9e6115bd14aebcf97300",
      "assetIds": [
        "41506478881403507969696680653240014914910929820314476107906210059990532622336"
      ]
    },
    {
      "x": 374,
      "y": 292,
      "size": 1,
      "price": "4683000000000000000000",
      "reserved": "",
      "salt": "0xa104eafe208371f9b3b88053171e0304b87df34a6faa7be603d2bd4a7cd1a3ed",
      "assetIds": [
        "41506478881403507969696680653240014914910929820314476107906210059990541021187"
      ]
    },
    {
      "x": 374,
      "y": 293,
      "size": 1,
      "price": "4683000000000000000000",
      "reserved": "",
      "salt": "0x3208644854eaba5749c4a36ef35874c8c14f71a7d669e05deee7436875d79b2d",
      "assetIds": [
        "41506478881403507969696680653240014914910929820314476107906210059990541021184"
      ]
    },
    {
      "x": 374,
      "y": 294,
      "size": 1,
      "price": "4683000000000000000000",
      "reserved": "",
      "salt": "0x05295ac83c68f3551c76bb80b24e53703bf367d4c0e3bfbff743ad49c3905136",
      "assetIds": [
        "41506478881403507969696680653240014914910929820314476107906210059990541021186"
      ]
    },
    {
      "x": 374,
      "y": 295,
      "size": 1,
      "price": "4683000000000000000000",
      "reserved": "",
      "salt": "0x9561a2cdce95b0de17e2fefb754721933f44d727fa255c5a25f2e8a3b7101bc2",
      "assetIds": [
        "41506478881403507969696680653240014914910929820314476107906210059990541021184"
      ]
    },
    {
      "x": 374,
      "y": 296,
      "size": 1,
      "price": "4683000000000000000000",
      "reserved": "",
      "salt": "0x850811a3da8ccc7a37606a3a7c4c176c6941de9086a27a50140736e81cb7bf01",
      "assetIds": [
        "41506478881403507969696680653240014914910929820314476107906210059990541021189"
      ]
    },
    {
      "x": 374,
      "y": 297,
      "size": 1,
      "price": "4683000000000000000000",
      "reserved": "",
      "salt": "0x4b0c5d60806dbb9093225ea525a025676394f24caa5b7e54523365d8b8cf6e08",
      "assetIds": [
        "41506478881403507969696680653240014914910929820314476107906210059990541021186"
      ]
    },
    {
      "x": 374,
      "y": 298,
      "size": 1,
      "price": "1011000000000000000000",
      "reserved": "0x7a9fe22691c811ea339d9b73150e6911a5343dca",
      "salt": "0xbf693ae2db5c05b340d86f84a35bcbcc3e708fd0a2a50aa848781a6b254c9b07",
      "assetIds": []
    },
    {
      "x": 374,
      "y": 299,
      "size": 1,
      "price": "4683000000000000000000",
      "reserved": "",
      "salt": "0xf553efb3b0987004ed3e50b310f3288fff76c8e250751256e2fce532453f6e3d",
      "assetIds": [
        "41506478881403507969696680653240014914910929820314476107906210059990541021189"
      ]
    },
    {
      "x": 374,
      "y": 300,
      "size": 1,
      "price": "4683000000000000000000",
      "reserved": "",
      "salt": "0x6dfa516473022ba02c42db2a6c6b449dbe9f339d7b9985e68f2b6b7b080f6e64",
      "assetIds": [
        "41506478881403507969696680653240014914910929820314476107906210059990541021189"
      ]
    },
    {
      "x": 374,
      "y": 301,
      "size": 1,
      "price": "4683000000000000000000",
      "reserved": "",
      "salt": "0xd868d6e198c0eb66f54d72e6f9c40e0c10f07d3733b2d5bc84eb6939aea590e9",
      "assetIds": [
        "41506478881403507969696680653240014914910929820314476107906210059990541021187"
      ]
    },
    {
      "x": 374,
      "y": 302,
      "size": 1,
      "price": "4683000000000000000000",
      "reserved": "",
      "salt": "0xa74e6a691cb2f927b5826f3fb5c45b50fd04d69dc56d5e928effca6f5992304f",
      "assetIds": [
        "41506478881403507969696680653240014914910929820314476107906210059990541021188"
      ]
    },
    {
      "x": 374,
      "y": 303,
      "size": 1,
      "price": "4683000000000000000000",
      "reserved": "",
      "salt": "0xe29992969db3d2b4dbd0d62051c85fbfc0121a250f2be9e7d9273c0171fc0279",
      "assetIds": [
        "41506478881403507969696680653240014914910929820314476107906210059990541021188"
      ]
    },
    {
      "x": 374,
      "y": 304,
      "size": 1,
      "price": "1011000000000000000000",
      "reserved": "0x7a9fe22691c811ea339d9b73150e6911a5343dca",
      "salt": "0x8ec17475e027d0aae62fedbea9a3bfee338d6e715e2be1474b10a850945b1187",
      "assetIds": []
    },
    {
      "x": 374,
      "y": 305,
      "size": 1,
      "price": "4683000000000000000000",
      "reserved": "",
      "salt": "0x22a52de66eb6ba7b4fb31fa333223161bacbae474fccdcaad6af288e0dd629d1",
      "assetIds": [
        "41506478881403507969696680653240014914910929820314476107906210059990541021186"
      ]
    },
    {
      "x": 375,
      "y": 231,
      "size": 1,
      "price": "4683000000000000000000",
      "reserved": "",
      "salt": "0x7e24b398845c2877305fe2c9e4f80ed20ce7f75e44300b83362f685a68168f87",
      "assetIds": [
        "41506478881403507969696680653240014914910929820314476107906210059990541021187"
      ]
    },
    {
      "x": 375,
      "y": 232,
      "size": 1,
      "price": "4683000000000000000000",
      "reserved": "",
      "salt": "0x91ce556f33e3b6f786d1d08eb74bf30bbca0920e983579ff36351f3c86f47461",
      "assetIds": [
        "41506478881403507969696680653240014914910929820314476107906210059990541021187"
      ]
    },
    {
      "x": 375,
      "y": 233,
      "size": 1,
      "price": "4683000000000000000000",
      "reserved": "",
      "salt": "0xb7d5278c23ff623e040a306f623e028b3cbf21c15dd145ec178c486557167fe3",
      "assetIds": [
        "41506478881403507969696680653240014914910929820314476107906210059990541021185"
      ]
    },
    {
      "x": 375,
      "y": 276,
      "size": 1,
      "price": "4683000000000000000000",
      "reserved": "",
      "salt": "0xc22695b18ea29b37fa7fa7d1fc208871140390ff5763bad0fb791865c48959ac",
      "assetIds": [
        "41506478881403507969696680653240014914910929820314476107906210059990541021186"
      ]
    },
    {
      "x": 375,
      "y": 277,
      "size": 1,
      "price": "4683000000000000000000",
      "reserved": "",
      "salt": "0x7edafcf2b43b6abbc8234cf341154fdb0f0f7c811df3d62833d6edd10eb3f7c6",
      "assetIds": [
        "41506478881403507969696680653240014914910929820314476107906210059990541021185"
      ]
    },
    {
      "x": 375,
      "y": 278,
      "size": 1,
      "price": "4683000000000000000000",
      "reserved": "",
      "salt": "0x85d563ef8f711ca6c5c2c0cb32ee88550c6ce9c3c6e06c4fbbf2d968d041d696",
      "assetIds": [
        "41506478881403507969696680653240014914910929820314476107906210059990532622336"
      ]
    },
    {
      "x": 375,
      "y": 279,
      "size": 1,
      "price": "4683000000000000000000",
      "reserved": "",
      "salt": "0xe92636b6bbd83128dcb41888edf41c13dc70151906dc8d9d87a04fadb062030f",
      "assetIds": [
        "41506478881403507969696680653240014914910929820314476107906210059990532622336"
      ]
    },
    {
      "x": 375,
      "y": 280,
      "size": 1,
      "price": "4683000000000000000000",
      "reserved": "",
      "salt": "0xd05ec2c8441f6616e28a117e84259862e680ea2f0ea0a472efa8c00a0547daa5",
      "assetIds": [
        "41506478881403507969696680653240014914910929820314476107906210059990532622336"
      ]
    },
    {
      "x": 375,
      "y": 281,
      "size": 1,
      "price": "4683000000000000000000",
      "reserved": "",
      "salt": "0x78904bd912772796a67eec0eccf54750d53921b9167471c86959ae382730672a",
      "assetIds": [
        "41506478881403507969696680653240014914910929820314476107906210059990541021184"
      ]
    },
    {
      "x": 375,
      "y": 288,
      "size": 1,
      "price": "4683000000000000000000",
      "reserved": "",
      "salt": "0x159f70c5bc3e5ff0968beee940c7960138e8c471ca404e7161d17677d6349029",
      "assetIds": [
        "41506478881403507969696680653240014914910929820314476107906210059990541021187"
      ]
    },
    {
      "x": 375,
      "y": 289,
      "size": 1,
      "price": "4683000000000000000000",
      "reserved": "",
      "salt": "0x9425d53efcb293b4f0d9791036c45db7e5713194a107f4bf4e34458bad3e0506",
      "assetIds": [
        "41506478881403507969696680653240014914910929820314476107906210059990532622336"
      ]
    },
    {
      "x": 375,
      "y": 290,
      "size": 1,
      "price": "4683000000000000000000",
      "reserved": "",
      "salt": "0xc7c7de28496507256f8f1ff2a3124aaf8da6880dc51973dd711f49435d431558",
      "assetIds": [
        "41506478881403507969696680653240014914910929820314476107906210059990541021188"
      ]
    },
    {
      "x": 375,
      "y": 291,
      "size": 1,
      "price": "4683000000000000000000",
      "reserved": "",
      "salt": "0xf56c1c3dc4906221cc820d4f23fd26b6be3ed0e532a73528c7892a96592a7e9e",
      "assetIds": [
        "41506478881403507969696680653240014914910929820314476107906210059990541021184"
      ]
    },
    {
      "x": 375,
      "y": 292,
      "size": 1,
      "price": "4683000000000000000000",
      "reserved": "",
      "salt": "0xdd013c9d284c984081881307f58e1e9ca78c2ff5221f04a886c2e85fd06116ad",
      "assetIds": [
        "41506478881403507969696680653240014914910929820314476107906210059990541021189"
      ]
    },
    {
      "x": 375,
      "y": 293,
      "size": 1,
      "price": "4683000000000000000000",
      "reserved": "",
      "salt": "0xef2d6b8a37712d27c318fc31231553a64ecbaaf0ff758125ccecf7752244a4f6",
      "assetIds": [
        "41506478881403507969696680653240014914910929820314476107906210059990541021188"
      ]
    },
    {
      "x": 375,
      "y": 294,
      "size": 1,
      "price": "4683000000000000000000",
      "reserved": "",
      "salt": "0x0c1741a502e60f1a10d25e175fc4d13ca1aff9599646ebd812f5e89ee7148c4d",
      "assetIds": [
        "41506478881403507969696680653240014914910929820314476107906210059990541021188"
      ]
    },
    {
      "x": 375,
      "y": 295,
      "size": 1,
      "price": "4683000000000000000000",
      "reserved": "",
      "salt": "0x28f61a69e0045413edfc44f97d7cd865c4563f1b54e4e09dbe086af37ecfee72",
      "assetIds": [
        "41506478881403507969696680653240014914910929820314476107906210059990541021189"
      ]
    },
    {
      "x": 375,
      "y": 296,
      "size": 1,
      "price": "4683000000000000000000",
      "reserved": "",
      "salt": "0x30ae202726c0f98d0ab672560fd3e16ff14241bfc3e79a562da724323a28e405",
      "assetIds": [
        "41506478881403507969696680653240014914910929820314476107906210059990541021184"
      ]
    },
    {
      "x": 375,
      "y": 297,
      "size": 1,
      "price": "4683000000000000000000",
      "reserved": "",
      "salt": "0x6ffba6b0cb2df566ff51a1d7723cad68b0d4edac041f858ec943419fdc83587f",
      "assetIds": [
        "41506478881403507969696680653240014914910929820314476107906210059990541021188"
      ]
    },
    {
      "x": 375,
      "y": 298,
      "size": 1,
      "price": "4683000000000000000000",
      "reserved": "",
      "salt": "0x8a659c2803c447b1abedf17b9a9ccc0d318feddf37684a965c9928e17e7408e6",
      "assetIds": [
        "41506478881403507969696680653240014914910929820314476107906210059990541021186"
      ]
    },
    {
      "x": 375,
      "y": 299,
      "size": 1,
      "price": "4683000000000000000000",
      "reserved": "",
      "salt": "0x05238b39a36eb67caf04b231bfa3ed52e82b2149f64e250c1c2b8961df1214f2",
      "assetIds": [
        "41506478881403507969696680653240014914910929820314476107906210059990541021184"
      ]
    },
    {
      "x": 375,
      "y": 300,
      "size": 1,
      "price": "4683000000000000000000",
      "reserved": "",
      "salt": "0x450962efa1828f1ee8af835ea2f07f19e17d3b1542884a69e972bb11c8d57760",
      "assetIds": [
        "41506478881403507969696680653240014914910929820314476107906210059990541021184"
      ]
    },
    {
      "x": 375,
      "y": 301,
      "size": 1,
      "price": "4683000000000000000000",
      "reserved": "",
      "salt": "0xedef738ced95c0fac9271a3b6213acb29cdc9d0081c56605d2157f961846c73c",
      "assetIds": [
        "41506478881403507969696680653240014914910929820314476107906210059990541021187"
      ]
    },
    {
      "x": 375,
      "y": 302,
      "size": 1,
      "price": "4683000000000000000000",
      "reserved": "",
      "salt": "0x7b6bbc02f6fefdb24ac51ad8cff5bd9a19d59cd4f436178cb6c637b906863faf",
      "assetIds": [
        "41506478881403507969696680653240014914910929820314476107906210059990541021188"
      ]
    },
    {
      "x": 375,
      "y": 303,
      "size": 1,
      "price": "4683000000000000000000",
      "reserved": "",
      "salt": "0xec63847be68e18c9952bf220e85dbc9ff390e2e0d28f852ca0fc87f64924a68d",
      "assetIds": [
        "41506478881403507969696680653240014914910929820314476107906210059990541021184"
      ]
    },
    {
      "x": 375,
      "y": 304,
      "size": 1,
      "price": "4683000000000000000000",
      "reserved": "",
      "salt": "0x9ddc6c3d666e3aa1e3d8337ee310f8587f7c7c22545be8d58fd790f41a0bd916",
      "assetIds": [
        "41506478881403507969696680653240014914910929820314476107906210059990541021187"
      ]
    },
    {
      "x": 375,
      "y": 305,
      "size": 1,
      "price": "4683000000000000000000",
      "reserved": "",
      "salt": "0xf8300df1cb16fd1b6e37d6acbee75125c1141c0187233bef0342890ac340102d",
      "assetIds": [
        "41506478881403507969696680653240014914910929820314476107906210059990541021188"
      ]
    },
    {
      "x": 376,
      "y": 231,
      "size": 1,
      "price": "4683000000000000000000",
      "reserved": "",
      "salt": "0xbfd7aba583b5fcc031b4778ec6275a0789b7f763b3116ade14541243af305429",
      "assetIds": [
        "41506478881403507969696680653240014914910929820314476107906210059990541021186"
      ]
    },
    {
      "x": 376,
      "y": 232,
      "size": 1,
      "price": "4683000000000000000000",
      "reserved": "",
      "salt": "0x245a28492c4e71d60fb6f30d2688a4abbdb2fb1dea4894dfff38b75315549fb2",
      "assetIds": [
        "41506478881403507969696680653240014914910929820314476107906210059990532622336"
      ]
    },
    {
      "x": 376,
      "y": 233,
      "size": 1,
      "price": "4683000000000000000000",
      "reserved": "",
      "salt": "0xa72aa40b027d44f23ef7ebb239504e89f770a17674b70e92c7771f931bd86dd2",
      "assetIds": [
        "41506478881403507969696680653240014914910929820314476107906210059990541021185"
      ]
    },
    {
      "x": 376,
      "y": 276,
      "size": 1,
      "price": "4683000000000000000000",
      "reserved": "",
      "salt": "0xbd1d2fb5630c9cdf75a42444147d9e12a5c5938559396e1573889523ac40743e",
      "assetIds": [
        "41506478881403507969696680653240014914910929820314476107906210059990541021184"
      ]
    },
    {
      "x": 376,
      "y": 277,
      "size": 1,
      "price": "4683000000000000000000",
      "reserved": "",
      "salt": "0x76c2071f676b756eedf84b9aa0dbfe1a33250de12c7ae3b82c1fb0d447a6f69e",
      "assetIds": [
        "41506478881403507969696680653240014914910929820314476107906210059990541021188"
      ]
    },
    {
      "x": 376,
      "y": 278,
      "size": 1,
      "price": "4683000000000000000000",
      "reserved": "",
      "salt": "0xa0bc05eca627ecaef54b0d763dedf13645ed918c28413d0f29c22092217ba230",
      "assetIds": [
        "41506478881403507969696680653240014914910929820314476107906210059990541021186"
      ]
    },
    {
      "x": 376,
      "y": 279,
      "size": 1,
      "price": "4683000000000000000000",
      "reserved": "",
      "salt": "0x5155e21e61404968f150ffcd19eb82376c068c386e8d8669571faeb50d2787e0",
      "assetIds": [
        "41506478881403507969696680653240014914910929820314476107906210059990541021184"
      ]
    },
    {
      "x": 376,
      "y": 280,
      "size": 1,
      "price": "4683000000000000000000",
      "reserved": "",
      "salt": "0x5478caa2fbce9bcd151084039afb1fe581be8f7e8bddeb9aaeb25899f57a764c",
      "assetIds": [
        "41506478881403507969696680653240014914910929820314476107906210059990541021185"
      ]
    },
    {
      "x": 376,
      "y": 281,
      "size": 1,
      "price": "4683000000000000000000",
      "reserved": "",
      "salt": "0x5327824547e4b8d9060f6f87b34aec86e9b12c990b03f8c51f0b1ecd8e96ee69",
      "assetIds": [
        "41506478881403507969696680653240014914910929820314476107906210059990541021186"
      ]
    },
    {
      "x": 376,
      "y": 288,
      "size": 1,
      "price": "4683000000000000000000",
      "reserved": "",
      "salt": "0x5847dd19a1ed1f2dd6be7015ba00f6ba06893b7c63fb84b3d939f974caead53a",
      "assetIds": [
        "41506478881403507969696680653240014914910929820314476107906210059990532622336"
      ]
    },
    {
      "x": 376,
      "y": 289,
      "size": 1,
      "price": "4683000000000000000000",
      "reserved": "",
      "salt": "0xefc09d0e176ecfaeeffc5ee26e3cc39fa202b8cdbb30959de7524e1363d21ada",
      "assetIds": [
        "41506478881403507969696680653240014914910929820314476107906210059990532622336"
      ]
    },
    {
      "x": 376,
      "y": 290,
      "size": 1,
      "price": "4683000000000000000000",
      "reserved": "",
      "salt": "0xeac0b71c96256687a34594fc2b55495517be16c1fc446778b9665b1c6ce807e7",
      "assetIds": [
        "41506478881403507969696680653240014914910929820314476107906210059990541021189"
      ]
    },
    {
      "x": 376,
      "y": 291,
      "size": 1,
      "price": "4683000000000000000000",
      "reserved": "",
      "salt": "0x74ca1d0ad6917e7d9dfa0da9bae6bb5a83b2fd0dc0c56ea4b341f471bf020965",
      "assetIds": [
        "41506478881403507969696680653240014914910929820314476107906210059990541021188"
      ]
    },
    {
      "x": 376,
      "y": 292,
      "size": 1,
      "price": "4683000000000000000000",
      "reserved": "",
      "salt": "0x748e7b7c311fb5f4857c00f3a8dacbddd6af5a07254c0c48acfe1185e8ad2386",
      "assetIds": [
        "41506478881403507969696680653240014914910929820314476107906210059990541021186"
      ]
    },
    {
      "x": 376,
      "y": 293,
      "size": 1,
      "price": "4683000000000000000000",
      "reserved": "",
      "salt": "0xf85dec343aafe753c51f2bdd852f44a775db55ed61410ebef9ade064dc08b6f5",
      "assetIds": [
        "41506478881403507969696680653240014914910929820314476107906210059990532622336"
      ]
    },
    {
      "x": 376,
      "y": 294,
      "size": 1,
      "price": "4683000000000000000000",
      "reserved": "",
      "salt": "0x193a67761ab6c1e56ee83fcbe9981626dc69f602696bc145420bbfdede6ade64",
      "assetIds": [
        "41506478881403507969696680653240014914910929820314476107906210059990541021185"
      ]
    },
    {
      "x": 376,
      "y": 295,
      "size": 1,
      "price": "4683000000000000000000",
      "reserved": "",
      "salt": "0xfbf1b251d76b65a755a834da153fb6d487a8f598495420e6e12e5a7fc58cfa5b",
      "assetIds": [
        "41506478881403507969696680653240014914910929820314476107906210059990541021185"
      ]
    },
    {
      "x": 376,
      "y": 296,
      "size": 1,
      "price": "4683000000000000000000",
      "reserved": "",
      "salt": "0x6bb0863a15bc4915716eb024e3490b74d4c8452f33c0d71af8c79e6dbbb38cb4",
      "assetIds": [
        "41506478881403507969696680653240014914910929820314476107906210059990541021187"
      ]
    },
    {
      "x": 376,
      "y": 297,
      "size": 1,
      "price": "4683000000000000000000",
      "reserved": "",
      "salt": "0xd3f44f3b644b68dc8d458592a7020064e7c43a08c33d71561c463ee5f29b29fb",
      "assetIds": [
        "41506478881403507969696680653240014914910929820314476107906210059990541021189"
      ]
    },
    {
      "x": 376,
      "y": 298,
      "size": 1,
      "price": "4683000000000000000000",
      "reserved": "",
      "salt": "0x32b221a30af86740455ab2e5ed3e6b0881d5d71794f62accb8da6e6f4dfe6027",
      "assetIds": [
        "41506478881403507969696680653240014914910929820314476107906210059990541021184"
      ]
    },
    {
      "x": 376,
      "y": 299,
      "size": 1,
      "price": "4683000000000000000000",
      "reserved": "",
      "salt": "0x6963c926e5a30f83448984754d30432a026b0c5e49f8bfe57684f28d2556f6d3",
      "assetIds": [
        "41506478881403507969696680653240014914910929820314476107906210059990532622336"
      ]
    },
    {
      "x": 376,
      "y": 300,
      "size": 1,
      "price": "4683000000000000000000",
      "reserved": "",
      "salt": "0x70f5b41f5faa188123295cb557caed93ed4b6cab903c1e730544a4e9b5307b9a",
      "assetIds": [
        "41506478881403507969696680653240014914910929820314476107906210059990541021186"
      ]
    },
    {
      "x": 376,
      "y": 301,
      "size": 1,
      "price": "4683000000000000000000",
      "reserved": "",
      "salt": "0x7f06a1417ce333e5e2308270c9d64c5ae71d44891421650a781c90c26509676b",
      "assetIds": [
        "41506478881403507969696680653240014914910929820314476107906210059990541021188"
      ]
    },
    {
      "x": 376,
      "y": 302,
      "size": 1,
      "price": "4683000000000000000000",
      "reserved": "",
      "salt": "0x86562c403dd26b990a1bc98295d400b09a2485e96dba55015c10b89095862a51",
      "assetIds": [
        "41506478881403507969696680653240014914910929820314476107906210059990541021186"
      ]
    },
    {
      "x": 376,
      "y": 303,
      "size": 1,
      "price": "4683000000000000000000",
      "reserved": "",
      "salt": "0xca75c66304ae39533cb1ea423b447d973d7b4676bd8a0a690d746613445d5ab3",
      "assetIds": [
        "41506478881403507969696680653240014914910929820314476107906210059990541021189"
      ]
    },
    {
      "x": 376,
      "y": 304,
      "size": 1,
      "price": "4683000000000000000000",
      "reserved": "",
      "salt": "0x972327a3e985039d3abbf486db3cbf30e39ccc549b3d3d9be385c647743ec449",
      "assetIds": [
        "41506478881403507969696680653240014914910929820314476107906210059990541021186"
      ]
    },
    {
      "x": 376,
      "y": 305,
      "size": 1,
      "price": "4683000000000000000000",
      "reserved": "",
      "salt": "0xcb3dc472ea8d11911a1de3d47ef4ff362119f3b6018a9591a8723d2528711a13",
      "assetIds": [
        "41506478881403507969696680653240014914910929820314476107906210059990541021185"
      ]
    },
    {
      "x": 377,
      "y": 231,
      "size": 1,
      "price": "4683000000000000000000",
      "reserved": "",
      "salt": "0xaf0df9299c01f52be5fcfd341d0c655e239777d3e24ee585b8fc781ef4d60d38",
      "assetIds": [
        "41506478881403507969696680653240014914910929820314476107906210059990541021187"
      ]
    },
    {
      "x": 377,
      "y": 232,
      "size": 1,
      "price": "4683000000000000000000",
      "reserved": "",
      "salt": "0xa524cc04cfb5305cad3acb8613f49270c1036413ee0e4d88bd7b8ff9070fa4d0",
      "assetIds": [
        "41506478881403507969696680653240014914910929820314476107906210059990541021186"
      ]
    },
    {
      "x": 377,
      "y": 233,
      "size": 1,
      "price": "4683000000000000000000",
      "reserved": "",
      "salt": "0x18f8c70c8b8c305996f90526fe401bd38573537017777a3815c153b7550f2938",
      "assetIds": [
        "41506478881403507969696680653240014914910929820314476107906210059990541021187"
      ]
    },
    {
      "x": 377,
      "y": 276,
      "size": 1,
      "price": "4683000000000000000000",
      "reserved": "",
      "salt": "0x6e7e0021c0bc61bf223fda43a1f29b50100caf2f6732210a067db6fd477c9032",
      "assetIds": [
        "41506478881403507969696680653240014914910929820314476107906210059990532622336"
      ]
    },
    {
      "x": 377,
      "y": 277,
      "size": 1,
      "price": "4683000000000000000000",
      "reserved": "",
      "salt": "0x8fd2b7d98fca1c0ba41c214094c7b1c39df51c5ed173c283092f6f2e44e9098d",
      "assetIds": [
        "41506478881403507969696680653240014914910929820314476107906210059990541021188"
      ]
    },
    {
      "x": 377,
      "y": 278,
      "size": 1,
      "price": "4683000000000000000000",
      "reserved": "",
      "salt": "0x08bcf45a56be30ff6e1c29c3e1b7747861458ac72e34cf43a4501d6fbc021e38",
      "assetIds": [
        "41506478881403507969696680653240014914910929820314476107906210059990532622336"
      ]
    },
    {
      "x": 377,
      "y": 279,
      "size": 1,
      "price": "4683000000000000000000",
      "reserved": "",
      "salt": "0xbd88b659dda2d28a37f47f4b43e25149d5d45b7f2b125dabe280e83e2235e18e",
      "assetIds": [
        "41506478881403507969696680653240014914910929820314476107906210059990541021188"
      ]
    },
    {
      "x": 377,
      "y": 280,
      "size": 1,
      "price": "4683000000000000000000",
      "reserved": "",
      "salt": "0x65c9f3ff69a8a78b0dab8181b217e993aecb746cbcd5478d1af6e47f9dfa0978",
      "assetIds": [
        "41506478881403507969696680653240014914910929820314476107906210059990541021189"
      ]
    },
    {
      "x": 377,
      "y": 281,
      "size": 1,
      "price": "4683000000000000000000",
      "reserved": "",
      "salt": "0xb8fe9dcb5c44d77d91ca2f7b6754bc45430d72edf6dec336c46c21f15786bcf0",
      "assetIds": [
        "41506478881403507969696680653240014914910929820314476107906210059990541021185"
      ]
    },
    {
      "x": 377,
      "y": 288,
      "size": 1,
      "price": "4683000000000000000000",
      "reserved": "",
      "salt": "0x01200eba64c20f35e2454566eefca6f85ef4ef233c6da5222da36805d18b9818",
      "assetIds": [
        "41506478881403507969696680653240014914910929820314476107906210059990541021184"
      ]
    },
    {
      "x": 377,
      "y": 289,
      "size": 1,
      "price": "4683000000000000000000",
      "reserved": "",
      "salt": "0x44417934645c50639f602ddac6cbfe5610d88deca2a7422f2aed1ce352889228",
      "assetIds": [
        "41506478881403507969696680653240014914910929820314476107906210059990541021188"
      ]
    },
    {
      "x": 377,
      "y": 290,
      "size": 1,
      "price": "4683000000000000000000",
      "reserved": "",
      "salt": "0x768121b4f07a31327445254aefc8046104de2fb6be37266a5a1dc55fa8ad7161",
      "assetIds": [
        "41506478881403507969696680653240014914910929820314476107906210059990541021187"
      ]
    },
    {
      "x": 377,
      "y": 291,
      "size": 1,
      "price": "4683000000000000000000",
      "reserved": "",
      "salt": "0x7545c8065ae37718db2c768ebfa8792568122155036af9e72f77e75d98d788a3",
      "assetIds": [
        "41506478881403507969696680653240014914910929820314476107906210059990532622336"
      ]
    },
    {
      "x": 377,
      "y": 292,
      "size": 1,
      "price": "4683000000000000000000",
      "reserved": "",
      "salt": "0x52a767c82570c7f995bdf12402d9ebbf3fe3c6f80c9091df527fceac643442a2",
      "assetIds": [
        "41506478881403507969696680653240014914910929820314476107906210059990541021189"
      ]
    },
    {
      "x": 377,
      "y": 293,
      "size": 1,
      "price": "4683000000000000000000",
      "reserved": "",
      "salt": "0xe146b82bc5c27e9300310ff2df97076deb073bbbd8a3ba6f2ef247cfcb8f77e2",
      "assetIds": [
        "41506478881403507969696680653240014914910929820314476107906210059990532622336"
      ]
    },
    {
      "x": 377,
      "y": 294,
      "size": 1,
      "price": "4683000000000000000000",
      "reserved": "",
      "salt": "0xcb98afa10ba55e97ff941e737e3f785043fc346fe84612102878207247d7fe74",
      "assetIds": [
        "41506478881403507969696680653240014914910929820314476107906210059990541021189"
      ]
    },
    {
      "x": 377,
      "y": 295,
      "size": 1,
      "price": "4683000000000000000000",
      "reserved": "",
      "salt": "0x19ec8dbfa24bbbc1bc38ae884bbfdf53a1ee2077944763c64ca21d9a11c3f2e7",
      "assetIds": [
        "41506478881403507969696680653240014914910929820314476107906210059990541021189"
      ]
    },
    {
      "x": 377,
      "y": 296,
      "size": 1,
      "price": "4683000000000000000000",
      "reserved": "",
      "salt": "0xe498cf0de05a942586d9645e09c425faa16bed63a8b1412a3772ea3b1757e675",
      "assetIds": [
        "41506478881403507969696680653240014914910929820314476107906210059990541021185"
      ]
    },
    {
      "x": 377,
      "y": 297,
      "size": 1,
      "price": "4683000000000000000000",
      "reserved": "",
      "salt": "0x1867df953d66fd1731dfcbb42014c56c05fee3561040d009c841c4675049a2a5",
      "assetIds": [
        "41506478881403507969696680653240014914910929820314476107906210059990541021189"
      ]
    },
    {
      "x": 377,
      "y": 298,
      "size": 1,
      "price": "4683000000000000000000",
      "reserved": "",
      "salt": "0xb38e39813958f3345c4adc4b65ffb508a74787bf80f55fcf8f26d51d9fc9de54",
      "assetIds": [
        "41506478881403507969696680653240014914910929820314476107906210059990541021188"
      ]
    },
    {
      "x": 377,
      "y": 299,
      "size": 1,
      "price": "4683000000000000000000",
      "reserved": "",
      "salt": "0x73530129c0c6d8f15d17379a1543f2a9f9ddb8077064e5296553f7c425d0b7c7",
      "assetIds": [
        "41506478881403507969696680653240014914910929820314476107906210059990541021187"
      ]
    },
    {
      "x": 377,
      "y": 300,
      "size": 1,
      "price": "4683000000000000000000",
      "reserved": "",
      "salt": "0x9aec96558e86fa492079e473874a5f7b4f411171c6bde58e8206508d84fec7fc",
      "assetIds": [
        "41506478881403507969696680653240014914910929820314476107906210059990541021189"
      ]
    },
    {
      "x": 377,
      "y": 301,
      "size": 1,
      "price": "4683000000000000000000",
      "reserved": "",
      "salt": "0xf0ebe03f41a1a99f88bdfce5704c8ea3b77c24c8bac9018f0a8a59b586082275",
      "assetIds": [
        "41506478881403507969696680653240014914910929820314476107906210059990532622336"
      ]
    },
    {
      "x": 377,
      "y": 302,
      "size": 1,
      "price": "4683000000000000000000",
      "reserved": "",
      "salt": "0x9b58c5793d90d7b6ee253e503084c8e7e0f1b9425a3d8b8e9047e41180c2c2af",
      "assetIds": [
        "41506478881403507969696680653240014914910929820314476107906210059990541021188"
      ]
    },
    {
      "x": 377,
      "y": 303,
      "size": 1,
      "price": "4683000000000000000000",
      "reserved": "",
      "salt": "0x0c9108d6dc044794664a477efc9dacd32f9f85367e83de13ec121a036366bc40",
      "assetIds": [
        "41506478881403507969696680653240014914910929820314476107906210059990541021188"
      ]
    },
    {
      "x": 377,
      "y": 304,
      "size": 1,
      "price": "4683000000000000000000",
      "reserved": "",
      "salt": "0x9b2d0a5625b5b110243c3c94bfbf059a59b996528a82f31083a172c3bcb6e7dd",
      "assetIds": [
        "41506478881403507969696680653240014914910929820314476107906210059990541021187"
      ]
    },
    {
      "x": 377,
      "y": 305,
      "size": 1,
      "price": "4683000000000000000000",
      "reserved": "",
      "salt": "0xa88191ea7535df601d4c913403533f63151e56b89af74a4e199a8c992e93d815",
      "assetIds": [
        "41506478881403507969696680653240014914910929820314476107906210059990541021186"
      ]
    },
    {
      "x": 378,
      "y": 228,
      "size": 1,
      "price": "4683000000000000000000",
      "reserved": "",
      "salt": "0xa92b5b2f40950b4a84890a9188a2f31d971a2f37bf407ae9f940581aebd562e7",
      "assetIds": [
        "41506478881403507969696680653240014914910929820314476107906210059990541021189"
      ]
    },
    {
      "x": 378,
      "y": 229,
      "size": 1,
      "price": "4683000000000000000000",
      "reserved": "",
      "salt": "0xb12ceac81d7db83c0ead6bd3de9bca4a816265d2f87422bc7e0374394c7ec8d4",
      "assetIds": [
        "41506478881403507969696680653240014914910929820314476107906210059990541021187"
      ]
    },
    {
      "x": 378,
      "y": 230,
      "size": 1,
      "price": "4683000000000000000000",
      "reserved": "",
      "salt": "0x8646a2d8b34477c4d0e7575f230be04b4b1a1c92e22d82a61f119b9b0e039b8b",
      "assetIds": [
        "41506478881403507969696680653240014914910929820314476107906210059990541021189"
      ]
    },
    {
      "x": 378,
      "y": 234,
      "size": 1,
      "price": "4683000000000000000000",
      "reserved": "",
      "salt": "0x6dac3a1ee0973bf3659cf68f9890f3df9bd045de853b555f966b91e241834458",
      "assetIds": [
        "41506478881403507969696680653240014914910929820314476107906210059990532622336"
      ]
    },
    {
      "x": 378,
      "y": 235,
      "size": 1,
      "price": "4683000000000000000000",
      "reserved": "",
      "salt": "0x9095a35d4f4890d4bfbd629315473e9e9cddfe2f594223f89643a808d2d0ce8c",
      "assetIds": [
        "41506478881403507969696680653240014914910929820314476107906210059990541021186"
      ]
    },
    {
      "x": 378,
      "y": 236,
      "size": 1,
      "price": "4683000000000000000000",
      "reserved": "",
      "salt": "0x68ce19a0ac0bb2425af92a360d64f3cda9b361f4d34d0e30bb34268be995b1ac",
      "assetIds": [
        "41506478881403507969696680653240014914910929820314476107906210059990541021185"
      ]
    },
    {
      "x": 378,
      "y": 237,
      "size": 1,
      "price": "4683000000000000000000",
      "reserved": "",
      "salt": "0x348d2950859121e8a3cb9b98281fe329a23e7bf27ae3cea0fa1d39fadf8d53f7",
      "assetIds": [
        "41506478881403507969696680653240014914910929820314476107906210059990541021184"
      ]
    },
    {
      "x": 378,
      "y": 238,
      "size": 1,
      "price": "4683000000000000000000",
      "reserved": "",
      "salt": "0x74c1c3791807cc7fc2203c70ca3728e81cb74e1347ec40fb51a187d6f360191a",
      "assetIds": [
        "41506478881403507969696680653240014914910929820314476107906210059990532622336"
      ]
    },
    {
      "x": 378,
      "y": 239,
      "size": 1,
      "price": "4683000000000000000000",
      "reserved": "",
      "salt": "0xc7dca9f720e207bb43a1aec6fbac570bd0c5d6d1c7a7c0453526e1968271853c",
      "assetIds": [
        "41506478881403507969696680653240014914910929820314476107906210059990541021184"
      ]
    },
    {
      "x": 378,
      "y": 282,
      "size": 1,
      "price": "4683000000000000000000",
      "reserved": "",
      "salt": "0x043e1b43d8546858805d1e0a4ab0fe038f0f34c74ddc3fe7ea4f3a3d7792d16e",
      "assetIds": [
        "41506478881403507969696680653240014914910929820314476107906210059990541021187"
      ]
    },
    {
      "x": 378,
      "y": 283,
      "size": 1,
      "price": "4683000000000000000000",
      "reserved": "",
      "salt": "0xbf0347d04685cfab67bdde34ed11a443ac45ed554825f1f4278e756ed9a6bc6a",
      "assetIds": [
        "41506478881403507969696680653240014914910929820314476107906210059990541021188"
      ]
    },
    {
      "x": 378,
      "y": 284,
      "size": 1,
      "price": "4683000000000000000000",
      "reserved": "",
      "salt": "0x6a1f194cfd6ed7f24bdf414b2c396d330a693c1f5af8359071ef1ce996b5d547",
      "assetIds": [
        "41506478881403507969696680653240014914910929820314476107906210059990541021187"
      ]
    },
    {
      "x": 378,
      "y": 288,
      "size": 1,
      "price": "4683000000000000000000",
      "reserved": "",
      "salt": "0x3429f3a20822c3cbf16556d3efd8ac3f1daf420fffc4489f17fa5a5ce7bcb61b",
      "assetIds": [
        "41506478881403507969696680653240014914910929820314476107906210059990541021189"
      ]
    },
    {
      "x": 378,
      "y": 289,
      "size": 1,
      "price": "4683000000000000000000",
      "reserved": "",
      "salt": "0x808f1dbf32a84026f6aa6536530fdb313943dc66fb6e1ba047d075275dd3f81a",
      "assetIds": [
        "41506478881403507969696680653240014914910929820314476107906210059990541021187"
      ]
    },
    {
      "x": 378,
      "y": 290,
      "size": 1,
      "price": "4683000000000000000000",
      "reserved": "",
      "salt": "0xa70f76bec0faa5f5a4a3267e72c87a0dbc824a60c8c228905d74e11ebe0da164",
      "assetIds": [
        "41506478881403507969696680653240014914910929820314476107906210059990541021189"
      ]
    },
    {
      "x": 378,
      "y": 300,
      "size": 1,
      "price": "4683000000000000000000",
      "reserved": "",
      "salt": "0x2d21c708d1302e8ee65561472c3578cb6cdfbaf9b0e5bdb24d51d1dfe5e30907",
      "assetIds": [
        "41506478881403507969696680653240014914910929820314476107906210059990541021185"
      ]
    },
    {
      "x": 378,
      "y": 301,
      "size": 1,
      "price": "4683000000000000000000",
      "reserved": "",
      "salt": "0x9186b1d8984bb7e89328279feb43f352e35ee99c3c8ccb3efacc7365515a9673",
      "assetIds": [
        "41506478881403507969696680653240014914910929820314476107906210059990532622336"
      ]
    },
    {
      "x": 378,
      "y": 302,
      "size": 1,
      "price": "4683000000000000000000",
      "reserved": "",
      "salt": "0x7bc74c2108d4ea5c9d249cb4d5811d51f94835666e846cb053dc81fb06f9a446",
      "assetIds": [
        "41506478881403507969696680653240014914910929820314476107906210059990532622336"
      ]
    },
    {
      "x": 378,
      "y": 303,
      "size": 1,
      "price": "4683000000000000000000",
      "reserved": "",
      "salt": "0xdfe83f8c41d02a791e30eda269735b28be9e82de8c824b727d3d63af89463ffd",
      "assetIds": [
        "41506478881403507969696680653240014914910929820314476107906210059990541021186"
      ]
    },
    {
      "x": 378,
      "y": 304,
      "size": 1,
      "price": "4683000000000000000000",
      "reserved": "",
      "salt": "0x5621b1b47cded510db89ccf18ce519c4b98e4c4926f45db9084b88591a1c0357",
      "assetIds": [
        "41506478881403507969696680653240014914910929820314476107906210059990541021187"
      ]
    },
    {
      "x": 378,
      "y": 305,
      "size": 1,
      "price": "4683000000000000000000",
      "reserved": "",
      "salt": "0xe06da7a4dff40a6f42fcca0e818842349880a4ca80689a1ffe25973415bc0301",
      "assetIds": [
        "41506478881403507969696680653240014914910929820314476107906210059990541021189"
      ]
    },
    {
      "x": 379,
      "y": 228,
      "size": 1,
      "price": "4683000000000000000000",
      "reserved": "",
      "salt": "0x40463a1ff814fd11eaba494d8bc0f35b4ba0dbba5a05901eec914e0138f22936",
      "assetIds": [
        "41506478881403507969696680653240014914910929820314476107906210059990541021189"
      ]
    },
    {
      "x": 379,
      "y": 229,
      "size": 1,
      "price": "4683000000000000000000",
      "reserved": "",
      "salt": "0x06ff3ea883d7f0b8306dde327e6a30ce8b80faef249761fd45eb02a45e12d28f",
      "assetIds": [
        "41506478881403507969696680653240014914910929820314476107906210059990541021185"
      ]
    },
    {
      "x": 379,
      "y": 230,
      "size": 1,
      "price": "4683000000000000000000",
      "reserved": "",
      "salt": "0xcad0f48a75ad62494d8ee5ccfa7b8807f70417f820d8e4b82d544f7bfdd74957",
      "assetIds": [
        "41506478881403507969696680653240014914910929820314476107906210059990541021185"
      ]
    },
    {
      "x": 379,
      "y": 234,
      "size": 1,
      "price": "4683000000000000000000",
      "reserved": "",
      "salt": "0x14a81b37981c3e6a86f0641a4dfea6a322a5387a837ff19b5654932d1c3a6e4a",
      "assetIds": [
        "41506478881403507969696680653240014914910929820314476107906210059990541021188"
      ]
    },
    {
      "x": 379,
      "y": 235,
      "size": 1,
      "price": "4683000000000000000000",
      "reserved": "",
      "salt": "0x05533b9162ceb861f54c500dbd79622b5b519a6692b13477f6fc3aaaaf6c12ba",
      "assetIds": [
        "41506478881403507969696680653240014914910929820314476107906210059990532622336"
      ]
    },
    {
      "x": 379,
      "y": 236,
      "size": 1,
      "price": "4683000000000000000000",
      "reserved": "",
      "salt": "0x72af2b4d8a2dd1a4afc3e512726273dd4ac599817610653fcdff277124322905",
      "assetIds": [
        "41506478881403507969696680653240014914910929820314476107906210059990541021184"
      ]
    },
    {
      "x": 379,
      "y": 237,
      "size": 1,
      "price": "4683000000000000000000",
      "reserved": "",
      "salt": "0x0fa81355db153856733252aa3c7bb908913bd560d94d73655205a81b9422a595",
      "assetIds": [
        "41506478881403507969696680653240014914910929820314476107906210059990541021186"
      ]
    },
    {
      "x": 379,
      "y": 238,
      "size": 1,
      "price": "4683000000000000000000",
      "reserved": "",
      "salt": "0x29f48382fbf3816df95828d3789bf49ce0ae18a97d44d140579415ddfc17c738",
      "assetIds": [
        "41506478881403507969696680653240014914910929820314476107906210059990541021186"
      ]
    },
    {
      "x": 379,
      "y": 239,
      "size": 1,
      "price": "4683000000000000000000",
      "reserved": "",
      "salt": "0x67f1b7183a8490d7548618046ba67ad40a4a2f538ca99b230b47edcc655b988c",
      "assetIds": [
        "41506478881403507969696680653240014914910929820314476107906210059990532622336"
      ]
    },
    {
      "x": 379,
      "y": 282,
      "size": 1,
      "price": "4683000000000000000000",
      "reserved": "",
      "salt": "0xef1d8da1a725d091ba0b6a13f7e124ed9395790e53852c0a0e936e2b3eef87a2",
      "assetIds": [
        "41506478881403507969696680653240014914910929820314476107906210059990541021188"
      ]
    },
    {
      "x": 379,
      "y": 283,
      "size": 1,
      "price": "4683000000000000000000",
      "reserved": "",
      "salt": "0x9a23e186ecb96be9a5275b2fcf500967d808b1b6583306ee90fb63f1a7c74a9d",
      "assetIds": [
        "41506478881403507969696680653240014914910929820314476107906210059990541021189"
      ]
    },
    {
      "x": 379,
      "y": 284,
      "size": 1,
      "price": "4683000000000000000000",
      "reserved": "",
      "salt": "0x57e9e2fb857be955453cf4c5044236cb934a4dfeb1c40cc14be00eb77a7d695d",
      "assetIds": [
        "41506478881403507969696680653240014914910929820314476107906210059990541021184"
      ]
    },
    {
      "x": 379,
      "y": 288,
      "size": 1,
      "price": "4683000000000000000000",
      "reserved": "",
      "salt": "0x75d1e32ef8110340a1fdb4c534e63f31f14964ee1ec468292532baae74faa6a7",
      "assetIds": [
        "41506478881403507969696680653240014914910929820314476107906210059990532622336"
      ]
    },
    {
      "x": 379,
      "y": 289,
      "size": 1,
      "price": "4683000000000000000000",
      "reserved": "",
      "salt": "0x317a72bf204a67e52d79188a9cf62db32a081eaa295717f5341ac16495d8d475",
      "assetIds": [
        "41506478881403507969696680653240014914910929820314476107906210059990541021187"
      ]
    },
    {
      "x": 379,
      "y": 290,
      "size": 1,
      "price": "4683000000000000000000",
      "reserved": "",
      "salt": "0xf6697d9a469f7b1e13b5c52c70508a30af734a3be794c2240d46f2fc0b25c4ea",
      "assetIds": [
        "41506478881403507969696680653240014914910929820314476107906210059990541021189"
      ]
    },
    {
      "x": 379,
      "y": 300,
      "size": 1,
      "price": "4683000000000000000000",
      "reserved": "",
      "salt": "0x1f45b72c6da8648fcc18ecdc0afd5da246bd4f30559a431e5a935ea4776f04f4",
      "assetIds": [
        "41506478881403507969696680653240014914910929820314476107906210059990541021184"
      ]
    },
    {
      "x": 379,
      "y": 301,
      "size": 1,
      "price": "4683000000000000000000",
      "reserved": "",
      "salt": "0xbad98107968006d2f0b5cdd830f293eab10eb7159911dc60285ab8f6c57ac513",
      "assetIds": [
        "41506478881403507969696680653240014914910929820314476107906210059990532622336"
      ]
    },
    {
      "x": 379,
      "y": 302,
      "size": 1,
      "price": "4683000000000000000000",
      "reserved": "",
      "salt": "0xd91bab541307a44304de7efc19b77990672801521b64007c4277149a57146a69",
      "assetIds": [
        "41506478881403507969696680653240014914910929820314476107906210059990532622336"
      ]
    },
    {
      "x": 379,
      "y": 303,
      "size": 1,
      "price": "4683000000000000000000",
      "reserved": "",
      "salt": "0x114783e86a47cfe679e96ec540df52aced6a6e69019a5ccb7f0cf29cf2e8000e",
      "assetIds": [
        "41506478881403507969696680653240014914910929820314476107906210059990541021188"
      ]
    },
    {
      "x": 379,
      "y": 304,
      "size": 1,
      "price": "4683000000000000000000",
      "reserved": "",
      "salt": "0x433ad4fb7145034b3db37103ef96e793b137dd5ddfe44e876eee88914821000f",
      "assetIds": [
        "41506478881403507969696680653240014914910929820314476107906210059990541021188"
      ]
    },
    {
      "x": 379,
      "y": 305,
      "size": 1,
      "price": "4683000000000000000000",
      "reserved": "",
      "salt": "0x7fe0b7df788a38da797b89ea95e1fc48aede02c224c560c6033cbfdee13ad5a3",
      "assetIds": [
        "41506478881403507969696680653240014914910929820314476107906210059990541021184"
      ]
    },
    {
      "x": 380,
      "y": 228,
      "size": 1,
      "price": "4683000000000000000000",
      "reserved": "",
      "salt": "0x26bfd8bed216b53fb1c1bc56bcbfb65d52c84253590313ce9600ffcb9c25014e",
      "assetIds": [
        "41506478881403507969696680653240014914910929820314476107906210059990541021188"
      ]
    },
    {
      "x": 380,
      "y": 229,
      "size": 1,
      "price": "4683000000000000000000",
      "reserved": "",
      "salt": "0x6ef14f4c00c36dd42db395ca0c4925f2434f18a878546038f9858820fe406bf7",
      "assetIds": [
        "41506478881403507969696680653240014914910929820314476107906210059990541021184"
      ]
    },
    {
      "x": 380,
      "y": 230,
      "size": 1,
      "price": "4683000000000000000000",
      "reserved": "",
      "salt": "0xae190279211d7ae895323963da4f8468690bfb6ab5b6ae70aebc44c7628f1df7",
      "assetIds": [
        "41506478881403507969696680653240014914910929820314476107906210059990541021188"
      ]
    },
    {
      "x": 380,
      "y": 234,
      "size": 1,
      "price": "4683000000000000000000",
      "reserved": "",
      "salt": "0x4ccfb3de669fc633f6db13d4982fcfcc8fc4e5dd80e9a92c2366bfa56f6f4527",
      "assetIds": [
        "41506478881403507969696680653240014914910929820314476107906210059990541021184"
      ]
    },
    {
      "x": 380,
      "y": 235,
      "size": 1,
      "price": "4683000000000000000000",
      "reserved": "",
      "salt": "0xbc40d671c284c37da0c693d0562a7904d5cec52b2ace3715f4c572bc665ebf32",
      "assetIds": [
        "41506478881403507969696680653240014914910929820314476107906210059990541021188"
      ]
    },
    {
      "x": 380,
      "y": 236,
      "size": 1,
      "price": "4683000000000000000000",
      "reserved": "",
      "salt": "0x06d6bcf59a7e0b4563d999ec8654418051513159e59cc33be89622335cadd3c7",
      "assetIds": [
        "41506478881403507969696680653240014914910929820314476107906210059990541021189"
      ]
    },
    {
      "x": 380,
      "y": 237,
      "size": 1,
      "price": "4683000000000000000000",
      "reserved": "",
      "salt": "0xfbd6d5b85bd30a87aa32671542eab12da80453c973fe6630565132e6b5542a5a",
      "assetIds": [
        "41506478881403507969696680653240014914910929820314476107906210059990541021189"
      ]
    },
    {
      "x": 380,
      "y": 238,
      "size": 1,
      "price": "4683000000000000000000",
      "reserved": "",
      "salt": "0xa90f3779c9bfc5244c97908f9883dae371af636829718cbde052c65bd1dbc268",
      "assetIds": [
        "41506478881403507969696680653240014914910929820314476107906210059990541021184"
      ]
    },
    {
      "x": 380,
      "y": 239,
      "size": 1,
      "price": "4683000000000000000000",
      "reserved": "",
      "salt": "0x0ee3d35c5f8b0ea28431855fb3386adc8a7285a1b191f79dd570067f2acd6bef",
      "assetIds": [
        "41506478881403507969696680653240014914910929820314476107906210059990541021187"
      ]
    },
    {
      "x": 380,
      "y": 282,
      "size": 1,
      "price": "4683000000000000000000",
      "reserved": "",
      "salt": "0xca018ac593c65415c192c62fea230cb25f6d2f7114baa9b8d716ef97e7178694",
      "assetIds": [
        "41506478881403507969696680653240014914910929820314476107906210059990541021185"
      ]
    },
    {
      "x": 380,
      "y": 283,
      "size": 1,
      "price": "4683000000000000000000",
      "reserved": "",
      "salt": "0x52c05259d4d0a44a8eb8072a4f11338882ae642fd3adfc6b3b204d32ea9d3ae0",
      "assetIds": [
        "41506478881403507969696680653240014914910929820314476107906210059990541021186"
      ]
    },
    {
      "x": 380,
      "y": 284,
      "size": 1,
      "price": "4683000000000000000000",
      "reserved": "",
      "salt": "0x870ac1fd9f5987f9cf82ad113c943ef8fc0e58652843cf86e3774f8cb8566b3d",
      "assetIds": [
        "41506478881403507969696680653240014914910929820314476107906210059990541021189"
      ]
    },
    {
      "x": 380,
      "y": 288,
      "size": 1,
      "price": "4683000000000000000000",
      "reserved": "",
      "salt": "0x0dcacf1ec0d457dc209d651da2b040bb054ab9c9d203eb19db5be05ec82b8d60",
      "assetIds": [
        "41506478881403507969696680653240014914910929820314476107906210059990541021189"
      ]
    },
    {
      "x": 380,
      "y": 289,
      "size": 1,
      "price": "4683000000000000000000",
      "reserved": "",
      "salt": "0x40f51652c623434494452598ffeb4fe4d0e8d66fca12914c7a031a0c19b8bf06",
      "assetIds": [
        "41506478881403507969696680653240014914910929820314476107906210059990541021184"
      ]
    },
    {
      "x": 380,
      "y": 290,
      "size": 1,
      "price": "4683000000000000000000",
      "reserved": "",
      "salt": "0x9b8de684c6027b5b9aaa93e829eb5cf13d9380cb73060ed35e35aeab7b3b069b",
      "assetIds": [
        "41506478881403507969696680653240014914910929820314476107906210059990541021187"
      ]
    },
    {
      "x": 380,
      "y": 300,
      "size": 1,
      "price": "4683000000000000000000",
      "reserved": "",
      "salt": "0xa794c67ae61c08fc194b320b93c882108e576be4928dff345a0f8fc941332cb6",
      "assetIds": [
        "41506478881403507969696680653240014914910929820314476107906210059990541021184"
      ]
    },
    {
      "x": 380,
      "y": 301,
      "size": 1,
      "price": "4683000000000000000000",
      "reserved": "",
      "salt": "0x19295a153d3ce4f324f2a77d565b7fca7c0627f4433c69df35f81ab7bcec5916",
      "assetIds": [
        "41506478881403507969696680653240014914910929820314476107906210059990532622336"
      ]
    },
    {
      "x": 380,
      "y": 302,
      "size": 1,
      "price": "1011000000000000000000",
      "reserved": "0x7a9fe22691c811ea339d9b73150e6911a5343dca",
      "salt": "0xf99807ca958ce18c02ff6e93c5574033e0a3488827e6de07708ac0db893b6e2f",
      "assetIds": []
    },
    {
      "x": 380,
      "y": 303,
      "size": 1,
      "price": "4683000000000000000000",
      "reserved": "",
      "salt": "0x4559cdd962eca8d7d0c59ad197f886f9407537e29115088bba14be16204fe5b1",
      "assetIds": [
        "41506478881403507969696680653240014914910929820314476107906210059990541021189"
      ]
    },
    {
      "x": 380,
      "y": 304,
      "size": 1,
      "price": "4683000000000000000000",
      "reserved": "",
      "salt": "0xfa890f4a4ddd90c47cb393601b2801f67f5e6955990608bc67c7db2a8255b6d2",
      "assetIds": [
        "41506478881403507969696680653240014914910929820314476107906210059990541021184"
      ]
    },
    {
      "x": 380,
      "y": 305,
      "size": 1,
      "price": "4683000000000000000000",
      "reserved": "",
      "salt": "0xd68427541f340de22b7e9ef30ab235fc516c74ea283ed3df1226346d0f8f2a02",
      "assetIds": [
        "41506478881403507969696680653240014914910929820314476107906210059990532622336"
      ]
    },
    {
      "x": 381,
      "y": 228,
      "size": 1,
      "price": "4683000000000000000000",
      "reserved": "",
      "salt": "0x102a759c4f45e95515e9b83b175769636946083c718a191ce903e59787feb0a0",
      "assetIds": [
        "41506478881403507969696680653240014914910929820314476107906210059990541021184"
      ]
    },
    {
      "x": 381,
      "y": 229,
      "size": 1,
      "price": "4683000000000000000000",
      "reserved": "",
      "salt": "0x45029c9befb69f9627ac3ced6f9b74d74aab34b09805abf14407a19e461aa645",
      "assetIds": [
        "41506478881403507969696680653240014914910929820314476107906210059990541021185"
      ]
    },
    {
      "x": 381,
      "y": 230,
      "size": 1,
      "price": "4683000000000000000000",
      "reserved": "",
      "salt": "0x79ece2e64a717c9a1a37397898a286a907fbde51a25a3b54b1677dffbc2956b4",
      "assetIds": [
        "41506478881403507969696680653240014914910929820314476107906210059990541021186"
      ]
    },
    {
      "x": 381,
      "y": 231,
      "size": 1,
      "price": "4683000000000000000000",
      "reserved": "",
      "salt": "0xd92291f1edbf2df85a1dc7b27c2fbc95029cd2a3314bf6495b31bbe2e84a2999",
      "assetIds": [
        "41506478881403507969696680653240014914910929820314476107906210059990541021188"
      ]
    },
    {
      "x": 381,
      "y": 232,
      "size": 1,
      "price": "4683000000000000000000",
      "reserved": "",
      "salt": "0x007c12ba88a0455be2d54f80ebda75d606996db4be1ab1175ec125ecf9639289",
      "assetIds": [
        "41506478881403507969696680653240014914910929820314476107906210059990541021184"
      ]
    },
    {
      "x": 381,
      "y": 233,
      "size": 1,
      "price": "4683000000000000000000",
      "reserved": "",
      "salt": "0x4aa3be7a4aeda89078cb31398453aaa9b7c09dc1dbde2149ee407dd2bc54d9f4",
      "assetIds": [
        "41506478881403507969696680653240014914910929820314476107906210059990541021189"
      ]
    },
    {
      "x": 381,
      "y": 234,
      "size": 1,
      "price": "4683000000000000000000",
      "reserved": "",
      "salt": "0xb6eba93bc73277766939d88d68fbf779b93f8dd97046352d8688282c5b57e03e",
      "assetIds": [
        "41506478881403507969696680653240014914910929820314476107906210059990541021184"
      ]
    },
    {
      "x": 381,
      "y": 235,
      "size": 1,
      "price": "4683000000000000000000",
      "reserved": "",
      "salt": "0x66e40ab177431a828bb61aa133e08f9ed66457d7da5cf7e81cdb4570c60d70b4",
      "assetIds": [
        "41506478881403507969696680653240014914910929820314476107906210059990541021189"
      ]
    },
    {
      "x": 381,
      "y": 236,
      "size": 1,
      "price": "1011000000000000000000",
      "reserved": "0x7a9fe22691c811ea339d9b73150e6911a5343dca",
      "salt": "0x1463d6ccc9a7057a48c9dc4694b81ab1338dc8122403d2648638bfe621e70de2",
      "assetIds": []
    },
    {
      "x": 381,
      "y": 237,
      "size": 1,
      "price": "4683000000000000000000",
      "reserved": "",
      "salt": "0x1a3c32afb14f7de679c342d4d2fff9cd9647bba6949a5e4010e4a5e873662a17",
      "assetIds": [
        "41506478881403507969696680653240014914910929820314476107906210059990541021184"
      ]
    },
    {
      "x": 381,
      "y": 238,
      "size": 1,
      "price": "4683000000000000000000",
      "reserved": "",
      "salt": "0x9d85ad4d145c1daeb0a900dcf2cd2ed7fcc0c1011851be00067c15e9a20d7ac3",
      "assetIds": [
        "41506478881403507969696680653240014914910929820314476107906210059990541021185"
      ]
    },
    {
      "x": 381,
      "y": 239,
      "size": 1,
      "price": "4683000000000000000000",
      "reserved": "",
      "salt": "0x1b60dfd2adb55a630cb51bf4c7d02fef1b3c0c0f33fae2d3b9a79d06473ff75c",
      "assetIds": [
        "41506478881403507969696680653240014914910929820314476107906210059990532622336"
      ]
    },
    {
      "x": 381,
      "y": 282,
      "size": 1,
      "price": "4683000000000000000000",
      "reserved": "",
      "salt": "0x1f4839aa6f54bcfe95d5158aafd846498475609b1de8a7145cf5952bf6309598",
      "assetIds": [
        "41506478881403507969696680653240014914910929820314476107906210059990541021186"
      ]
    },
    {
      "x": 381,
      "y": 283,
      "size": 1,
      "price": "4683000000000000000000",
      "reserved": "",
      "salt": "0xf7eaa87f588190ca0c6e8914c157d9eb7fbb01722772480097a82093916b485e",
      "assetIds": [
        "41506478881403507969696680653240014914910929820314476107906210059990541021188"
      ]
    },
    {
      "x": 381,
      "y": 284,
      "size": 1,
      "price": "4683000000000000000000",
      "reserved": "",
      "salt": "0xc824d93c44e5b9e971b2f57ac199508e3b1869b7893af4cb4d32e49fb627652b",
      "assetIds": [
        "41506478881403507969696680653240014914910929820314476107906210059990541021188"
      ]
    },
    {
      "x": 381,
      "y": 288,
      "size": 1,
      "price": "4683000000000000000000",
      "reserved": "",
      "salt": "0x909029f225ddeb0d3ac7b52b8cd6e81a089ccd467eb6d508f80d0f0ff67ee2be",
      "assetIds": [
        "41506478881403507969696680653240014914910929820314476107906210059990541021187"
      ]
    },
    {
      "x": 381,
      "y": 289,
      "size": 1,
      "price": "4683000000000000000000",
      "reserved": "",
      "salt": "0xa7941f3adf92b959b36f88e8e5a754baefc463617ae37b69a5b3b9f276c98aa5",
      "assetIds": [
        "41506478881403507969696680653240014914910929820314476107906210059990541021187"
      ]
    },
    {
      "x": 381,
      "y": 290,
      "size": 1,
      "price": "4683000000000000000000",
      "reserved": "",
      "salt": "0xdefcc10d507ed474d7c25c478f5ede0d129c3f79137ec6768e99ee7f47039794",
      "assetIds": [
        "41506478881403507969696680653240014914910929820314476107906210059990541021185"
      ]
    },
    {
      "x": 381,
      "y": 291,
      "size": 1,
      "price": "4683000000000000000000",
      "reserved": "",
      "salt": "0xc82fe5fe82f3f31725f7e0ae91a110f3e3cb70e465b3c1220023a07f012f11be",
      "assetIds": [
        "41506478881403507969696680653240014914910929820314476107906210059990541021187"
      ]
    },
    {
      "x": 381,
      "y": 292,
      "size": 1,
      "price": "4683000000000000000000",
      "reserved": "",
      "salt": "0xaf2104e33adff1726ccdcf98beec7923e49698d0c8e45d4461ff660f63127fd0",
      "assetIds": [
        "41506478881403507969696680653240014914910929820314476107906210059990541021188"
      ]
    },
    {
      "x": 381,
      "y": 293,
      "size": 1,
      "price": "4683000000000000000000",
      "reserved": "",
      "salt": "0xdefa5097e0dddc849dc3546ad6ae34f8b044e390012fd1dc0d82c2cc13c39ea2",
      "assetIds": [
        "41506478881403507969696680653240014914910929820314476107906210059990541021184"
      ]
    },
    {
      "x": 381,
      "y": 300,
      "size": 1,
      "price": "4683000000000000000000",
      "reserved": "",
      "salt": "0x7853294f37fc4b0b9cf638236c5957f22da4c43ddc1a435c92efc799e49b907c",
      "assetIds": [
        "41506478881403507969696680653240014914910929820314476107906210059990541021184"
      ]
    },
    {
      "x": 381,
      "y": 301,
      "size": 1,
      "price": "4683000000000000000000",
      "reserved": "",
      "salt": "0x558b27899354741b2965b3a0a9488f3e5ebafbe2fdc0116eaad2e76511db8571",
      "assetIds": [
        "41506478881403507969696680653240014914910929820314476107906210059990541021188"
      ]
    },
    {
      "x": 381,
      "y": 302,
      "size": 1,
      "price": "4683000000000000000000",
      "reserved": "",
      "salt": "0xcc97d898aa36b53ac8cdb4a329ff328196a088a8e145e654e90f09a2a799afd2",
      "assetIds": [
        "41506478881403507969696680653240014914910929820314476107906210059990541021184"
      ]
    },
    {
      "x": 381,
      "y": 303,
      "size": 1,
      "price": "4683000000000000000000",
      "reserved": "",
      "salt": "0x3aed6d9c0b2a41c9ac0c965419587298dc26ec96755988d316994d42098b038f",
      "assetIds": [
        "41506478881403507969696680653240014914910929820314476107906210059990541021187"
      ]
    },
    {
      "x": 381,
      "y": 304,
      "size": 1,
      "price": "4683000000000000000000",
      "reserved": "",
      "salt": "0xf1dcdc2db193793e77dbb58abea620fca4a96a85fa3546fafa9386e284e3a71b",
      "assetIds": [
        "41506478881403507969696680653240014914910929820314476107906210059990541021188"
      ]
    },
    {
      "x": 381,
      "y": 305,
      "size": 1,
      "price": "4683000000000000000000",
      "reserved": "",
      "salt": "0xa544adab3cc4538b8a35cf5ee41f95ff2c16de64c924dca7e0e3a6817f1081d2",
      "assetIds": [
        "41506478881403507969696680653240014914910929820314476107906210059990541021189"
      ]
    },
    {
      "x": 382,
      "y": 228,
      "size": 1,
      "price": "4683000000000000000000",
      "reserved": "",
      "salt": "0x5e9a054d407c342adc6cf8122db16573fb45dc4f2f9153a6d46ac4005edbcad2",
      "assetIds": [
        "41506478881403507969696680653240014914910929820314476107906210059990541021188"
      ]
    },
    {
      "x": 382,
      "y": 229,
      "size": 1,
      "price": "4683000000000000000000",
      "reserved": "",
      "salt": "0x726f0c87b692575a9c058cecda0ffb64770a2d2bad8535893b80c1f77847a928",
      "assetIds": [
        "41506478881403507969696680653240014914910929820314476107906210059990541021185"
      ]
    },
    {
      "x": 382,
      "y": 230,
      "size": 1,
      "price": "4683000000000000000000",
      "reserved": "",
      "salt": "0xa32c0d35524ee4ba550251c9c082215491e32e17ca654436ae24098cabe87555",
      "assetIds": [
        "41506478881403507969696680653240014914910929820314476107906210059990541021188"
      ]
    },
    {
      "x": 382,
      "y": 231,
      "size": 1,
      "price": "4683000000000000000000",
      "reserved": "",
      "salt": "0xb007b2a2a8ed3bf9ab7dc47bf0c5bd8da8d2ab8dbd9b2b29546fb4cf720e9817",
      "assetIds": [
        "41506478881403507969696680653240014914910929820314476107906210059990541021184"
      ]
    },
    {
      "x": 382,
      "y": 232,
      "size": 1,
      "price": "4683000000000000000000",
      "reserved": "",
      "salt": "0xfbaf58607209b9a657d9fa807476f20f8e70826e5017c814630fb73c015592d1",
      "assetIds": [
        "41506478881403507969696680653240014914910929820314476107906210059990541021185"
      ]
    },
    {
      "x": 382,
      "y": 233,
      "size": 1,
      "price": "4683000000000000000000",
      "reserved": "",
      "salt": "0x2e8cb1e00de50177b42ce9cfb2c27895d225ebe217c4a03d0a72123229988682",
      "assetIds": [
        "41506478881403507969696680653240014914910929820314476107906210059990532622336"
      ]
    },
    {
      "x": 382,
      "y": 234,
      "size": 1,
      "price": "4683000000000000000000",
      "reserved": "",
      "salt": "0x6519c7029f89d9f76bd26a7dedc0fae571a6b1a6e4be9997872e4850552efcaf",
      "assetIds": [
        "41506478881403507969696680653240014914910929820314476107906210059990541021184"
      ]
    },
    {
      "x": 382,
      "y": 235,
      "size": 1,
      "price": "4683000000000000000000",
      "reserved": "",
      "salt": "0xe0ab9def5d192a6e9ab42bae97db61e095982c5791d04f2d3177082ee9475366",
      "assetIds": [
        "41506478881403507969696680653240014914910929820314476107906210059990541021185"
      ]
    },
    {
      "x": 382,
      "y": 236,
      "size": 1,
      "price": "4683000000000000000000",
      "reserved": "",
      "salt": "0xdaaa0699fe6f9e33f7bcb23e954f28454bb0006b35caaf71802b05aa880dfc33",
      "assetIds": [
        "41506478881403507969696680653240014914910929820314476107906210059990541021186"
      ]
    },
    {
      "x": 382,
      "y": 237,
      "size": 1,
      "price": "4683000000000000000000",
      "reserved": "",
      "salt": "0x2e1654b07f7a0817d4f70f3061861bba0ddf5e46dd6b902b10e40a762ae39cbe",
      "assetIds": [
        "41506478881403507969696680653240014914910929820314476107906210059990541021184"
      ]
    },
    {
      "x": 382,
      "y": 238,
      "size": 1,
      "price": "4683000000000000000000",
      "reserved": "",
      "salt": "0x0fde54ddbede3b5333ea6e9b103486dee520e789fdd7684d51e81403189f4bc7",
      "assetIds": [
        "41506478881403507969696680653240014914910929820314476107906210059990541021184"
      ]
    },
    {
      "x": 382,
      "y": 239,
      "size": 1,
      "price": "4683000000000000000000",
      "reserved": "",
      "salt": "0x534df3a5a3a5bfb9c8475ce989246d81fbe679b46fb21fe0062c02e2ecb6e23c",
      "assetIds": [
        "41506478881403507969696680653240014914910929820314476107906210059990532622336"
      ]
    },
    {
      "x": 382,
      "y": 282,
      "size": 1,
      "price": "4683000000000000000000",
      "reserved": "",
      "salt": "0x9e650c0cfce82ebb83b21a56d1835711b1b81bc6229d63b59c2eaa4a59f3f074",
      "assetIds": [
        "41506478881403507969696680653240014914910929820314476107906210059990541021189"
      ]
    },
    {
      "x": 382,
      "y": 283,
      "size": 1,
      "price": "1011000000000000000000",
      "reserved": "0x7a9fe22691c811ea339d9b73150e6911a5343dca",
      "salt": "0x9e7d2334f84763a312d42322fe3a7a2e9a04733c4c4a28a087fec9a56bd8452d",
      "assetIds": []
    },
    {
      "x": 382,
      "y": 284,
      "size": 1,
      "price": "4683000000000000000000",
      "reserved": "",
      "salt": "0x997683fd8d78be08d8e16f41742973b223415404495f9affc2f11c2a49705833",
      "assetIds": [
        "41506478881403507969696680653240014914910929820314476107906210059990541021187"
      ]
    },
    {
      "x": 382,
      "y": 288,
      "size": 1,
      "price": "4683000000000000000000",
      "reserved": "",
      "salt": "0xe59b9cf50747a032df469ce2456ccdf276d536f4ed0e1ce1a39ec10deb4e4d5b",
      "assetIds": [
        "41506478881403507969696680653240014914910929820314476107906210059990532622336"
      ]
    },
    {
      "x": 382,
      "y": 289,
      "size": 1,
      "price": "4683000000000000000000",
      "reserved": "",
      "salt": "0x83edcb59f977b0c6e6aa8f34abe7545e7cdc3cd7b2c89563d3cb99535916bbfb",
      "assetIds": [
        "41506478881403507969696680653240014914910929820314476107906210059990541021186"
      ]
    },
    {
      "x": 382,
      "y": 290,
      "size": 1,
      "price": "4683000000000000000000",
      "reserved": "",
      "salt": "0x2dccd7adf2cbe6e13fc88b255d87e9050cb65c0f8c8963b9c3e4f7abc5abf408",
      "assetIds": [
        "41506478881403507969696680653240014914910929820314476107906210059990541021188"
      ]
    },
    {
      "x": 382,
      "y": 291,
      "size": 1,
      "price": "4683000000000000000000",
      "reserved": "",
      "salt": "0x588d7600e9116d136d73cf79e6e772ed26b40ca2293feb1382fd691fb9a51a54",
      "assetIds": [
        "41506478881403507969696680653240014914910929820314476107906210059990541021189"
      ]
    },
    {
      "x": 382,
      "y": 292,
      "size": 1,
      "price": "4683000000000000000000",
      "reserved": "",
      "salt": "0x477dd80d65916c0fe16f7491e2761ec1ad3d8a73fae1f5b59c227f7762ac5f81",
      "assetIds": [
        "41506478881403507969696680653240014914910929820314476107906210059990541021186"
      ]
    },
    {
      "x": 382,
      "y": 293,
      "size": 1,
      "price": "4683000000000000000000",
      "reserved": "",
      "salt": "0x3150b666e50daee4bbcff19fb0b4c793572a89bd6a69197b7e28b80daa066208",
      "assetIds": [
        "41506478881403507969696680653240014914910929820314476107906210059990532622336"
      ]
    },
    {
      "x": 382,
      "y": 300,
      "size": 1,
      "price": "4683000000000000000000",
      "reserved": "",
      "salt": "0x7de78038b107c6010dec247cbabccca518ae21723c439111e9b756788748a76f",
      "assetIds": [
        "41506478881403507969696680653240014914910929820314476107906210059990541021187"
      ]
    },
    {
      "x": 382,
      "y": 301,
      "size": 1,
      "price": "4683000000000000000000",
      "reserved": "",
      "salt": "0x00909927e2d73eda02ec4de38f6d43acd746759dbbfa578889eee438aa0cf35e",
      "assetIds": [
        "41506478881403507969696680653240014914910929820314476107906210059990541021189"
      ]
    },
    {
      "x": 382,
      "y": 302,
      "size": 1,
      "price": "4683000000000000000000",
      "reserved": "",
      "salt": "0x01e46dc87588050c41d12302eeca789a8c00337ae875150321185910109ac28b",
      "assetIds": [
        "41506478881403507969696680653240014914910929820314476107906210059990541021184"
      ]
    },
    {
      "x": 382,
      "y": 303,
      "size": 1,
      "price": "4683000000000000000000",
      "reserved": "",
      "salt": "0x3362869c70b051d315fd84b5dd35bb54e33b6eb7c89dfa44fe629c3b15679d50",
      "assetIds": [
        "41506478881403507969696680653240014914910929820314476107906210059990541021189"
      ]
    },
    {
      "x": 382,
      "y": 304,
      "size": 1,
      "price": "4683000000000000000000",
      "reserved": "",
      "salt": "0x54af0882c84838ee60690ce8c23c4fcb8ac60d77ef81442353592b34512a511a",
      "assetIds": [
        "41506478881403507969696680653240014914910929820314476107906210059990541021185"
      ]
    },
    {
      "x": 382,
      "y": 305,
      "size": 1,
      "price": "4683000000000000000000",
      "reserved": "",
      "salt": "0xda331b999c2426f2e20624267a032746fe88664bc813888d08479824cdaeb6f0",
      "assetIds": [
        "41506478881403507969696680653240014914910929820314476107906210059990541021184"
      ]
    },
    {
      "x": 383,
      "y": 228,
      "size": 1,
      "price": "4683000000000000000000",
      "reserved": "",
      "salt": "0x32ec0b9668a65bd310f5f2b40f12c99d3bdd4ee978b98bc2f256e487e353ee90",
      "assetIds": [
        "41506478881403507969696680653240014914910929820314476107906210059990532622336"
      ]
    },
    {
      "x": 383,
      "y": 229,
      "size": 1,
      "price": "4683000000000000000000",
      "reserved": "",
      "salt": "0x8865a53ec1530c544b36ea4ab3e3622feb79b8753182f2cc159ec9cefcce0b9f",
      "assetIds": [
        "41506478881403507969696680653240014914910929820314476107906210059990541021187"
      ]
    },
    {
      "x": 383,
      "y": 230,
      "size": 1,
      "price": "4683000000000000000000",
      "reserved": "",
      "salt": "0x0cec81aa9c25bdf637997b7d45bd2176e3d47e236e0790a205f993cf252f2d48",
      "assetIds": [
        "41506478881403507969696680653240014914910929820314476107906210059990541021188"
      ]
    },
    {
      "x": 383,
      "y": 231,
      "size": 1,
      "price": "4683000000000000000000",
      "reserved": "",
      "salt": "0xc1e6b2a905461d356eb359119a27f56484e2788cf508eb885c2c90871398fd70",
      "assetIds": [
        "41506478881403507969696680653240014914910929820314476107906210059990541021187"
      ]
    },
    {
      "x": 383,
      "y": 232,
      "size": 1,
      "price": "4683000000000000000000",
      "reserved": "",
      "salt": "0xee0760b4f4bb6afe534738d1c430adfd5b16ec500d3b676589b6e848fe7c8055",
      "assetIds": [
        "41506478881403507969696680653240014914910929820314476107906210059990541021188"
      ]
    },
    {
      "x": 383,
      "y": 233,
      "size": 1,
      "price": "4683000000000000000000",
      "reserved": "",
      "salt": "0x6453cb118e801ec4cc338422bf5116293a426c39bb902f9ff06cb8425b0c825c",
      "assetIds": [
        "41506478881403507969696680653240014914910929820314476107906210059990541021185"
      ]
    },
    {
      "x": 383,
      "y": 234,
      "size": 1,
      "price": "4683000000000000000000",
      "reserved": "",
      "salt": "0xe13f8353ef17ff7f0010b4c26c16217fc9e4919e867f584cfa5731444058f4e9",
      "assetIds": [
        "41506478881403507969696680653240014914910929820314476107906210059990541021188"
      ]
    },
    {
      "x": 383,
      "y": 235,
      "size": 1,
      "price": "4683000000000000000000",
      "reserved": "",
      "salt": "0x23b95990620a7c741b80f99e3eae12e59e62495bb3618fe6d28d1c52206ba81a",
      "assetIds": [
        "41506478881403507969696680653240014914910929820314476107906210059990541021185"
      ]
    },
    {
      "x": 383,
      "y": 236,
      "size": 1,
      "price": "4683000000000000000000",
      "reserved": "",
      "salt": "0x6d1ab49665a3ed054fe402aa46ad7e8f686ca0c8224af5bbe973f96819e8736a",
      "assetIds": [
        "41506478881403507969696680653240014914910929820314476107906210059990541021188"
      ]
    },
    {
      "x": 383,
      "y": 237,
      "size": 1,
      "price": "4683000000000000000000",
      "reserved": "",
      "salt": "0xd51c7190d94e1fef4204ec6ccc222f93410a34e503a41e6a5e4c5c9e9b583a3d",
      "assetIds": [
        "41506478881403507969696680653240014914910929820314476107906210059990541021189"
      ]
    },
    {
      "x": 383,
      "y": 238,
      "size": 1,
      "price": "4683000000000000000000",
      "reserved": "",
      "salt": "0x44047a30e07793518c4cc84247e0e4baae2c3ce8922e72cf17c6e71eb6980221",
      "assetIds": [
        "41506478881403507969696680653240014914910929820314476107906210059990541021189"
      ]
    },
    {
      "x": 383,
      "y": 239,
      "size": 1,
      "price": "4683000000000000000000",
      "reserved": "",
      "salt": "0x5df564321d3e537b0fd7c1176e7217a143087ffe656da4fa634b420883711c44",
      "assetIds": [
        "41506478881403507969696680653240014914910929820314476107906210059990541021184"
      ]
    },
    {
      "x": 383,
      "y": 282,
      "size": 1,
      "price": "4683000000000000000000",
      "reserved": "",
      "salt": "0x229508d115bda8d647ab681142aade4f6bfab24c17337c3cc19a4d6c5b085cac",
      "assetIds": [
        "41506478881403507969696680653240014914910929820314476107906210059990541021189"
      ]
    },
    {
      "x": 383,
      "y": 283,
      "size": 1,
      "price": "4683000000000000000000",
      "reserved": "",
      "salt": "0x58d1314c33caeed8364cf4ac11905a203a071bd47120e069a3b29a0c92a0729f",
      "assetIds": [
        "41506478881403507969696680653240014914910929820314476107906210059990541021187"
      ]
    },
    {
      "x": 383,
      "y": 284,
      "size": 1,
      "price": "4683000000000000000000",
      "reserved": "",
      "salt": "0xcd7b8ff2cc04943a024d6adddf815800f652e5b19a406591d9a24700f2476b5d",
      "assetIds": [
        "41506478881403507969696680653240014914910929820314476107906210059990541021189"
      ]
    },
    {
      "x": 383,
      "y": 288,
      "size": 1,
      "price": "4683000000000000000000",
      "reserved": "",
      "salt": "0x468c8e8b59bf3c4a5c280d4671509259f8f660b4a0d07c83f81dd8639297918c",
      "assetIds": [
        "41506478881403507969696680653240014914910929820314476107906210059990541021185"
      ]
    },
    {
      "x": 383,
      "y": 289,
      "size": 1,
      "price": "4683000000000000000000",
      "reserved": "",
      "salt": "0x73351debd7cd9923d617efbd91b3e43853cf89151ab149a86e56c8d3bac6c0b5",
      "assetIds": [
        "41506478881403507969696680653240014914910929820314476107906210059990541021189"
      ]
    },
    {
      "x": 383,
      "y": 290,
      "size": 1,
      "price": "4683000000000000000000",
      "reserved": "",
      "salt": "0x0f3fa1f00ac8218c25645b2c868bb662f84990388cda25b0b196f942b16528b7",
      "assetIds": [
        "41506478881403507969696680653240014914910929820314476107906210059990541021188"
      ]
    },
    {
      "x": 383,
      "y": 291,
      "size": 1,
      "price": "4683000000000000000000",
      "reserved": "",
      "salt": "0x5bb5d1c8d015731946f3cdf0d27575dd4c5ab4fb5b47bc32711e639d3086a76c",
      "assetIds": [
        "41506478881403507969696680653240014914910929820314476107906210059990541021184"
      ]
    },
    {
      "x": 383,
      "y": 292,
      "size": 1,
      "price": "4683000000000000000000",
      "reserved": "",
      "salt": "0x0c64eb059631e809a6d5aa01e163591fb10d03550eb356433925c099730b864a",
      "assetIds": [
        "41506478881403507969696680653240014914910929820314476107906210059990541021186"
      ]
    },
    {
      "x": 383,
      "y": 293,
      "size": 1,
      "price": "4683000000000000000000",
      "reserved": "",
      "salt": "0x10f5c40d377db4840a2b1d768f163aaf4fe57929a44681aecefb4e3a7f16bcbb",
      "assetIds": [
        "41506478881403507969696680653240014914910929820314476107906210059990541021189"
      ]
    },
    {
      "x": 383,
      "y": 300,
      "size": 1,
      "price": "4683000000000000000000",
      "reserved": "",
      "salt": "0x0dcb1a3cdbc75fcd60f72bb0dc22127d3b48734aeeb672efadfbf89a1d064193",
      "assetIds": [
        "41506478881403507969696680653240014914910929820314476107906210059990541021189"
      ]
    },
    {
      "x": 383,
      "y": 301,
      "size": 1,
      "price": "4683000000000000000000",
      "reserved": "",
      "salt": "0xa02acd987dbd5450ce50f4e17a0fc7dbe11d74c8e434c6d25e263146a6a24541",
      "assetIds": [
        "41506478881403507969696680653240014914910929820314476107906210059990541021187"
      ]
    },
    {
      "x": 383,
      "y": 302,
      "size": 1,
      "price": "4683000000000000000000",
      "reserved": "",
      "salt": "0x67d05cb3c83eb370c6cac3bcdb7648fc906116a863da5c9ed470d39eddd960da",
      "assetIds": [
        "41506478881403507969696680653240014914910929820314476107906210059990541021185"
      ]
    },
    {
      "x": 383,
      "y": 303,
      "size": 1,
      "price": "4683000000000000000000",
      "reserved": "",
      "salt": "0xa18d9207d1a1bf2904ad4b8142522aa6d56d96a087adddbebc720e7d3157cf1e",
      "assetIds": [
        "41506478881403507969696680653240014914910929820314476107906210059990541021184"
      ]
    },
    {
      "x": 383,
      "y": 304,
      "size": 1,
      "price": "4683000000000000000000",
      "reserved": "",
      "salt": "0x17da2e5d0c00bca2d0aa24f2b4a895dea19ab79ee68cef26bbd3a9440a1fd4be",
      "assetIds": [
        "41506478881403507969696680653240014914910929820314476107906210059990532622336"
      ]
    },
    {
      "x": 383,
      "y": 305,
      "size": 1,
      "price": "4683000000000000000000",
      "reserved": "",
      "salt": "0x36a4037feece9a1121f39f0f55516580ac7818fd106c300da62098127f7d6d77",
      "assetIds": [
        "41506478881403507969696680653240014914910929820314476107906210059990541021184"
      ]
    },
    {
      "x": 384,
      "y": 225,
      "size": 1,
      "price": "4683000000000000000000",
      "reserved": "",
      "salt": "0x959025c461fb6a49ccc93c6fe96c437af22debe334d9201b34fbb7af3c41c3bf",
      "assetIds": [
        "41506478881403507969696680653240014914910929820314476107906210059990541021188"
      ]
    },
    {
      "x": 384,
      "y": 226,
      "size": 1,
      "price": "4683000000000000000000",
      "reserved": "",
      "salt": "0x46357e83dab6adfcad2f532935531510b7b433bae57ce2b672a26c05106d4c19",
      "assetIds": [
        "41506478881403507969696680653240014914910929820314476107906210059990541021188"
      ]
    },
    {
      "x": 384,
      "y": 227,
      "size": 1,
      "price": "4683000000000000000000",
      "reserved": "",
      "salt": "0x05a31982c3917c9fae2d2fbe48ffcce8dd5dc1869aeb9570ebd0502ea70e0f7a",
      "assetIds": [
        "41506478881403507969696680653240014914910929820314476107906210059990541021188"
      ]
    },
    {
      "x": 384,
      "y": 228,
      "size": 1,
      "price": "4683000000000000000000",
      "reserved": "",
      "salt": "0x260a69b783422e45c73a0dc3ba86c788d0af687d15dd0e25eb902c727363bca6",
      "assetIds": [
        "41506478881403507969696680653240014914910929820314476107906210059990541021186"
      ]
    },
    {
      "x": 384,
      "y": 229,
      "size": 1,
      "price": "4683000000000000000000",
      "reserved": "",
      "salt": "0xb90b40c1c8ba65a0bc7cce604685f098c342990e4a5702db890fab78febad172",
      "assetIds": [
        "41506478881403507969696680653240014914910929820314476107906210059990541021185"
      ]
    },
    {
      "x": 384,
      "y": 230,
      "size": 1,
      "price": "4683000000000000000000",
      "reserved": "",
      "salt": "0xaa6db5a7f8751777328c194f053106b73acd995d664a2322545b63baa46f14d9",
      "assetIds": [
        "41506478881403507969696680653240014914910929820314476107906210059990541021189"
      ]
    },
    {
      "x": 384,
      "y": 231,
      "size": 1,
      "price": "4683000000000000000000",
      "reserved": "",
      "salt": "0xab27debbed5551486f5a4c4b0fcea7dd01f5d2681b8b6942b2303129c64ac491",
      "assetIds": [
        "41506478881403507969696680653240014914910929820314476107906210059990541021189"
      ]
    },
    {
      "x": 384,
      "y": 232,
      "size": 1,
      "price": "4683000000000000000000",
      "reserved": "",
      "salt": "0xc6262bb6b4a0bb2c74c857a94d8d80b671d28437b7e7ad470a18dd941ab83f0b",
      "assetIds": [
        "41506478881403507969696680653240014914910929820314476107906210059990541021187"
      ]
    },
    {
      "x": 384,
      "y": 233,
      "size": 1,
      "price": "4683000000000000000000",
      "reserved": "",
      "salt": "0x25c70dd4d955135d1a734dae9b35e8d20396476521aaa4a698752dc58a05aca3",
      "assetIds": [
        "41506478881403507969696680653240014914910929820314476107906210059990541021186"
      ]
    },
    {
      "x": 384,
      "y": 234,
      "size": 1,
      "price": "4683000000000000000000",
      "reserved": "",
      "salt": "0x13ea8df597c6efb2923e8b91418239bfaad5072f9ade4c47b01124f5c9e0108d",
      "assetIds": [
        "41506478881403507969696680653240014914910929820314476107906210059990541021185"
      ]
    },
    {
      "x": 384,
      "y": 235,
      "size": 1,
      "price": "4683000000000000000000",
      "reserved": "",
      "salt": "0x2271063b3ade5a6908e90aa04c437438d176b6431333671cbc7d28e04dff3c5b",
      "assetIds": [
        "41506478881403507969696680653240014914910929820314476107906210059990532622336"
      ]
    },
    {
      "x": 384,
      "y": 236,
      "size": 1,
      "price": "4683000000000000000000",
      "reserved": "",
      "salt": "0x11c06efede3f19154abe710ded88db25b5bee4ce8feefacb57e0663ed0e928c6",
      "assetIds": [
        "41506478881403507969696680653240014914910929820314476107906210059990541021189"
      ]
    },
    {
      "x": 384,
      "y": 237,
      "size": 1,
      "price": "4683000000000000000000",
      "reserved": "",
      "salt": "0x615ee381e080f1fb989f513189e59b340a1bf90516fd3a9efeb9ef074863d7f3",
      "assetIds": [
        "41506478881403507969696680653240014914910929820314476107906210059990541021187"
      ]
    },
    {
      "x": 384,
      "y": 238,
      "size": 1,
      "price": "4683000000000000000000",
      "reserved": "",
      "salt": "0x43908e6b8005aa9660cbb6b5473250e96d7fe3a0c5e9b0739e4e93f65b6c3c7f",
      "assetIds": [
        "41506478881403507969696680653240014914910929820314476107906210059990532622336"
      ]
    },
    {
      "x": 384,
      "y": 239,
      "size": 1,
      "price": "4683000000000000000000",
      "reserved": "",
      "salt": "0xdc43524edf6c0ef9d827925391a8821a1b5052b92df29159890ee5c1c92c7409",
      "assetIds": [
        "41506478881403507969696680653240014914910929820314476107906210059990532622336"
      ]
    },
    {
      "x": 384,
      "y": 255,
      "size": 1,
      "price": "4683000000000000000000",
      "reserved": "",
      "salt": "0x0e70e885696d6db929c0df8c8efcf2e128089f5f80c00c9f2fa7c3dd7f5ad3b3",
      "assetIds": [
        "41506478881403507969696680653240014914910929820314476107906210059990541021189"
      ]
    },
    {
      "x": 384,
      "y": 256,
      "size": 1,
      "price": "4683000000000000000000",
      "reserved": "",
      "salt": "0x464ba6b984e272d9cd9e9fba6e2b01d08976c912957989b7fd350cd58034bfd7",
      "assetIds": [
        "41506478881403507969696680653240014914910929820314476107906210059990541021187"
      ]
    },
    {
      "x": 384,
      "y": 257,
      "size": 1,
      "price": "4683000000000000000000",
      "reserved": "",
      "salt": "0xcbb56de8b79aa843e1711276dee96e4170a8293963b8f798af39b53a053bc4a6",
      "assetIds": [
        "41506478881403507969696680653240014914910929820314476107906210059990541021187"
      ]
    },
    {
      "x": 384,
      "y": 294,
      "size": 1,
      "price": "4683000000000000000000",
      "reserved": "",
      "salt": "0xa65a7fc8423abdabb508976f86816ca5627578f6480699dd0de63318edaf9049",
      "assetIds": [
        "41506478881403507969696680653240014914910929820314476107906210059990541021185"
      ]
    },
    {
      "x": 384,
      "y": 295,
      "size": 1,
      "price": "4683000000000000000000",
      "reserved": "",
      "salt": "0x6ecaaa2cda4bc54562ea13d0491940c5d2e891f00b673a2e6862b99818729d65",
      "assetIds": [
        "41506478881403507969696680653240014914910929820314476107906210059990541021188"
      ]
    },
    {
      "x": 384,
      "y": 296,
      "size": 1,
      "price": "4683000000000000000000",
      "reserved": "",
      "salt": "0x60ffb3de16351f6b75f6d81be45c9e1a73cbb851c4eb4cfda0fe3dd42f7ea40c",
      "assetIds": [
        "41506478881403507969696680653240014914910929820314476107906210059990541021189"
      ]
    },
    {
      "x": 384,
      "y": 297,
      "size": 1,
      "price": "4683000000000000000000",
      "reserved": "",
      "salt": "0x10dff1c5dcbd338686b5e219116add2e252bf1f05d7039e36493bd8764783f98",
      "assetIds": [
        "41506478881403507969696680653240014914910929820314476107906210059990541021185"
      ]
    },
    {
      "x": 384,
      "y": 298,
      "size": 1,
      "price": "4683000000000000000000",
      "reserved": "",
      "salt": "0xed621311ea5f406ce87a5cc83b69bbeee6deb283a670c7405c8e9aa62066cdf9",
      "assetIds": [
        "41506478881403507969696680653240014914910929820314476107906210059990541021184"
      ]
    },
    {
      "x": 384,
      "y": 299,
      "size": 1,
      "price": "4683000000000000000000",
      "reserved": "",
      "salt": "0x7a77698669b6a04d715744585eab666362ca19624f0193e7ccb28c48edff7f6f",
      "assetIds": [
        "41506478881403507969696680653240014914910929820314476107906210059990541021187"
      ]
    },
    {
      "x": 385,
      "y": 225,
      "size": 1,
      "price": "4683000000000000000000",
      "reserved": "",
      "salt": "0x3f8b13a9ae57cdbc76c78d967e59f438f8bb77553646b0133558d22a9b730e07",
      "assetIds": [
        "41506478881403507969696680653240014914910929820314476107906210059990541021187"
      ]
    },
    {
      "x": 385,
      "y": 226,
      "size": 1,
      "price": "4683000000000000000000",
      "reserved": "",
      "salt": "0x9a4e4d1938b3c6120a4699702b92dc3be03da388704e8f3bc120848eb59267ee",
      "assetIds": [
        "41506478881403507969696680653240014914910929820314476107906210059990541021185"
      ]
    },
    {
      "x": 385,
      "y": 227,
      "size": 1,
      "price": "4683000000000000000000",
      "reserved": "",
      "salt": "0x610543cfdca987d63b8f558aadc16dc0a6b76f9138a90cd90c8f7b0f1b345e4d",
      "assetIds": [
        "41506478881403507969696680653240014914910929820314476107906210059990541021186"
      ]
    },
    {
      "x": 385,
      "y": 228,
      "size": 1,
      "price": "4683000000000000000000",
      "reserved": "",
      "salt": "0xdb3db8637f3d25b75599d36537e89f460662ce2753283c2d3520a1aed14b9763",
      "assetIds": [
        "41506478881403507969696680653240014914910929820314476107906210059990532622336"
      ]
    },
    {
      "x": 385,
      "y": 229,
      "size": 1,
      "price": "1011000000000000000000",
      "reserved": "0x7a9fe22691c811ea339d9b73150e6911a5343dca",
      "salt": "0x8b6ac3f22bad015f7a3b7dc283a40f4040fcde7acc06524a6d0011ac9c06aaac",
      "assetIds": []
    },
    {
      "x": 385,
      "y": 230,
      "size": 1,
      "price": "4683000000000000000000",
      "reserved": "",
      "salt": "0xae2da879ef1510efb72e63001387f3808f91a3da77810241ab22eaca8001ad31",
      "assetIds": [
        "41506478881403507969696680653240014914910929820314476107906210059990541021187"
      ]
    },
    {
      "x": 385,
      "y": 231,
      "size": 1,
      "price": "4683000000000000000000",
      "reserved": "",
      "salt": "0x49b41d36d29a64f1d44e67fed74ff50ce3fefeb57f11f6233c13d51a0da8d3de",
      "assetIds": [
        "41506478881403507969696680653240014914910929820314476107906210059990541021185"
      ]
    },
    {
      "x": 385,
      "y": 232,
      "size": 1,
      "price": "4683000000000000000000",
      "reserved": "",
      "salt": "0xc1543ff3c0f3c072c18217e5a5253a368fe26ec8708a414ca07e0a6eadd8695e",
      "assetIds": [
        "41506478881403507969696680653240014914910929820314476107906210059990541021184"
      ]
    },
    {
      "x": 385,
      "y": 233,
      "size": 1,
      "price": "4683000000000000000000",
      "reserved": "",
      "salt": "0x2d5ba8c3232999bb93612c044bbfbc8dc47c61034edccd7c88b4fa849065bbce",
      "assetIds": [
        "41506478881403507969696680653240014914910929820314476107906210059990541021187"
      ]
    },
    {
      "x": 385,
      "y": 234,
      "size": 1,
      "price": "4683000000000000000000",
      "reserved": "",
      "salt": "0x9b6406badd45b503e3513bf773461e578ebe05b40e07122f8951a2bfa9fde30c",
      "assetIds": [
        "41506478881403507969696680653240014914910929820314476107906210059990541021187"
      ]
    },
    {
      "x": 385,
      "y": 235,
      "size": 1,
      "price": "4683000000000000000000",
      "reserved": "",
      "salt": "0xf39a4899537996728d065aa0c5702781137f4192758d131d0f2c61d678927a55",
      "assetIds": [
        "41506478881403507969696680653240014914910929820314476107906210059990541021184"
      ]
    },
    {
      "x": 385,
      "y": 236,
      "size": 1,
      "price": "4683000000000000000000",
      "reserved": "",
      "salt": "0xe47bfea3e0c1f0c6c1ad08c3d2dc5109de1fb72149ea4d02051125966dc46604",
      "assetIds": [
        "41506478881403507969696680653240014914910929820314476107906210059990532622336"
      ]
    },
    {
      "x": 385,
      "y": 237,
      "size": 1,
      "price": "1011000000000000000000",
      "reserved": "0x7a9fe22691c811ea339d9b73150e6911a5343dca",
      "salt": "0xdd8e8a4586f0cd2eacf18341cbdad0a553d76889028fab661e9206d1d9404bb4",
      "assetIds": []
    },
    {
      "x": 385,
      "y": 238,
      "size": 1,
      "price": "4683000000000000000000",
      "reserved": "",
      "salt": "0x44157b9acc11029cd9e55dac8222467638db3b1e286dd02f87af310461819ab4",
      "assetIds": [
        "41506478881403507969696680653240014914910929820314476107906210059990541021189"
      ]
    },
    {
      "x": 385,
      "y": 239,
      "size": 1,
      "price": "4683000000000000000000",
      "reserved": "",
      "salt": "0xd6d7e1c7cfc57e64cf21dca5e6116281460e8112a6f81bb567982601dcce8b72",
      "assetIds": [
        "41506478881403507969696680653240014914910929820314476107906210059990541021189"
      ]
    },
    {
      "x": 385,
      "y": 255,
      "size": 1,
      "price": "4683000000000000000000",
      "reserved": "",
      "salt": "0x82d287dee701bf5e18e77a83ad99e97db79aa4205d3585ba59f8f2824818dfbb",
      "assetIds": [
        "41506478881403507969696680653240014914910929820314476107906210059990541021184"
      ]
    },
    {
      "x": 385,
      "y": 256,
      "size": 1,
      "price": "1011000000000000000000",
      "reserved": "0x7a9fe22691c811ea339d9b73150e6911a5343dca",
      "salt": "0x472d31df2a48403b527010f5b85448d39a2395eaaf5386eae1defcda6ec8b026",
      "assetIds": []
    },
    {
      "x": 385,
      "y": 257,
      "size": 1,
      "price": "4683000000000000000000",
      "reserved": "",
      "salt": "0x9fdca6452970e15ecb4cfdb10f2c8fe66765c5a24a3033fdf25b40e31993a32f",
      "assetIds": [
        "41506478881403507969696680653240014914910929820314476107906210059990532622336"
      ]
    },
    {
      "x": 385,
      "y": 294,
      "size": 1,
      "price": "4683000000000000000000",
      "reserved": "",
      "salt": "0x876f07707885394797ff16015d947b050dee10c2dee120e62a75c370fdb7e486",
      "assetIds": [
        "41506478881403507969696680653240014914910929820314476107906210059990541021186"
      ]
    },
    {
      "x": 385,
      "y": 295,
      "size": 1,
      "price": "4683000000000000000000",
      "reserved": "",
      "salt": "0x6481808a2cdcb32778a6910319a77a647ed9bdb0cf939d6c0f59029e6d59aba9",
      "assetIds": [
        "41506478881403507969696680653240014914910929820314476107906210059990541021189"
      ]
    },
    {
      "x": 385,
      "y": 296,
      "size": 1,
      "price": "4683000000000000000000",
      "reserved": "",
      "salt": "0xb5847fd1c5892489e4eb1aac51362bd878dc105e0c21bcc47dd20a58635f44ca",
      "assetIds": [
        "41506478881403507969696680653240014914910929820314476107906210059990541021187"
      ]
    },
    {
      "x": 385,
      "y": 297,
      "size": 1,
      "price": "4683000000000000000000",
      "reserved": "",
      "salt": "0x23b6b811d023dc4949196d5967a16d1a1eb92b46fcfa9c0cf42070989c66e56d",
      "assetIds": [
        "41506478881403507969696680653240014914910929820314476107906210059990532622336"
      ]
    },
    {
      "x": 385,
      "y": 298,
      "size": 1,
      "price": "4683000000000000000000",
      "reserved": "",
      "salt": "0xc01994cb9c3d6776ab22dbba6c192414645804374f0205063e9e5cd1866ccea5",
      "assetIds": [
        "41506478881403507969696680653240014914910929820314476107906210059990541021187"
      ]
    },
    {
      "x": 385,
      "y": 299,
      "size": 1,
      "price": "4683000000000000000000",
      "reserved": "",
      "salt": "0x96363ce1983b86de043680930fecf1b590eb94c868b833aa8efb33dacf8b5440",
      "assetIds": [
        "41506478881403507969696680653240014914910929820314476107906210059990541021187"
      ]
    },
    {
      "x": 386,
      "y": 225,
      "size": 1,
      "price": "4683000000000000000000",
      "reserved": "",
      "salt": "0xb7f6f3d6b72abcfea603fe7f9a57babecc443be258d8b870feb08f935125a414",
      "assetIds": [
        "41506478881403507969696680653240014914910929820314476107906210059990541021185"
      ]
    },
    {
      "x": 386,
      "y": 226,
      "size": 1,
      "price": "4683000000000000000000",
      "reserved": "",
      "salt": "0x806c3b62d6dc8d33a4df0d0d36f2aed4b58385727ba588ac401ab7f67f60291f",
      "assetIds": [
        "41506478881403507969696680653240014914910929820314476107906210059990541021188"
      ]
    },
    {
      "x": 386,
      "y": 227,
      "size": 1,
      "price": "4683000000000000000000",
      "reserved": "",
      "salt": "0x19e217059b6b03fda63850f7d6df1e5bf959fa4bb75af3175d0db9578b6d1fe0",
      "assetIds": [
        "41506478881403507969696680653240014914910929820314476107906210059990532622336"
      ]
    },
    {
      "x": 386,
      "y": 228,
      "size": 1,
      "price": "4683000000000000000000",
      "reserved": "",
      "salt": "0x8fc5120e8152ebbf01d9e43825fa80b38ceb5cc5b09d291fbd0b3f2d4252cc51",
      "assetIds": [
        "41506478881403507969696680653240014914910929820314476107906210059990532622336"
      ]
    },
    {
      "x": 386,
      "y": 229,
      "size": 1,
      "price": "4683000000000000000000",
      "reserved": "",
      "salt": "0x4833872cec13f42f5581b5923beca0cb81b9def710a4651386c6dddef2d5ddb3",
      "assetIds": [
        "41506478881403507969696680653240014914910929820314476107906210059990541021186"
      ]
    },
    {
      "x": 386,
      "y": 230,
      "size": 1,
      "price": "4683000000000000000000",
      "reserved": "",
      "salt": "0xea015aee85a7335404e5f4167fc2399701849b0f2a074657b3c92ade4a5472b1",
      "assetIds": [
        "41506478881403507969696680653240014914910929820314476107906210059990541021188"
      ]
    },
    {
      "x": 386,
      "y": 231,
      "size": 1,
      "price": "4683000000000000000000",
      "reserved": "",
      "salt": "0x9bb16cd7fff09f4f2590aa26e468eee795f7d44a94f4cfc38c39402016701e51",
      "assetIds": [
        "41506478881403507969696680653240014914910929820314476107906210059990541021187"
      ]
    },
    {
      "x": 386,
      "y": 232,
      "size": 1,
      "price": "4683000000000000000000",
      "reserved": "",
      "salt": "0xe7f272477147fe48bf3c0a1e2a434e8b73ede13b346a040c040f6910d0816e51",
      "assetIds": [
        "41506478881403507969696680653240014914910929820314476107906210059990541021189"
      ]
    },
    {
      "x": 386,
      "y": 233,
      "size": 1,
      "price": "4683000000000000000000",
      "reserved": "",
      "salt": "0x02d4c7c22ddd73d926d793de122f3ade4320e79773264d00b43d7922e17c9566",
      "assetIds": [
        "41506478881403507969696680653240014914910929820314476107906210059990532622336"
      ]
    },
    {
      "x": 386,
      "y": 234,
      "size": 1,
      "price": "4683000000000000000000",
      "reserved": "",
      "salt": "0x88a60cd86472bb6bf26a2b1727a1afaebe3228028ba946e0df5da5c1ac323241",
      "assetIds": [
        "41506478881403507969696680653240014914910929820314476107906210059990541021188"
      ]
    },
    {
      "x": 386,
      "y": 235,
      "size": 1,
      "price": "4683000000000000000000",
      "reserved": "",
      "salt": "0xc836c9057138fe30ed2079a972d3315d99d90b19428dfc8d6429bd33d1d62b2c",
      "assetIds": [
        "41506478881403507969696680653240014914910929820314476107906210059990541021187"
      ]
    },
    {
      "x": 386,
      "y": 236,
      "size": 1,
      "price": "4683000000000000000000",
      "reserved": "",
      "salt": "0x18f2c3b994b3e2c178c3cd97348243dbcf4a563a18cd6bcf39e5c5f1854e05c6",
      "assetIds": [
        "41506478881403507969696680653240014914910929820314476107906210059990541021189"
      ]
    },
    {
      "x": 386,
      "y": 237,
      "size": 1,
      "price": "4683000000000000000000",
      "reserved": "",
      "salt": "0x248ca290c1afec78a7963b3f1acee6574e7e8c83b3bbd9845beb5e4208cb1a44",
      "assetIds": [
        "41506478881403507969696680653240014914910929820314476107906210059990541021186"
      ]
    },
    {
      "x": 386,
      "y": 238,
      "size": 1,
      "price": "4683000000000000000000",
      "reserved": "",
      "salt": "0x0e1fc0857e125c49b8cc3d9c507417863c44fded5b125ee4108ac425ec6ac650",
      "assetIds": [
        "41506478881403507969696680653240014914910929820314476107906210059990541021186"
      ]
    },
    {
      "x": 386,
      "y": 239,
      "size": 1,
      "price": "4683000000000000000000",
      "reserved": "",
      "salt": "0x1c40e18b0b89d1471f9707a0fd4b8fe4890f95a864ed4c8916b81571b62ffc85",
      "assetIds": [
        "41506478881403507969696680653240014914910929820314476107906210059990541021184"
      ]
    },
    {
      "x": 386,
      "y": 255,
      "size": 1,
      "price": "4683000000000000000000",
      "reserved": "",
      "salt": "0xad639a2d7eca884552ded69840208c87ad82d9c414545dab82d9afcd73dca992",
      "assetIds": [
        "41506478881403507969696680653240014914910929820314476107906210059990541021185"
      ]
    },
    {
      "x": 386,
      "y": 256,
      "size": 1,
      "price": "4683000000000000000000",
      "reserved": "",
      "salt": "0x90858c1638863e4da948386900247cb25fce65c125b3abe90d66fee700be6615",
      "assetIds": [
        "41506478881403507969696680653240014914910929820314476107906210059990532622336"
      ]
    },
    {
      "x": 386,
      "y": 257,
      "size": 1,
      "price": "4683000000000000000000",
      "reserved": "",
      "salt": "0xdcd8a1a1bd6d01611ddd5e355cef06d41d90ff958cb509fa3f5dac1140e37bed",
      "assetIds": [
        "41506478881403507969696680653240014914910929820314476107906210059990541021188"
      ]
    },
    {
      "x": 386,
      "y": 294,
      "size": 1,
      "price": "4683000000000000000000",
      "reserved": "",
      "salt": "0x4a7d3d7607e679baddf57d31ec7f0ed8aceb6a70095e999c1f9286107faa0a8c",
      "assetIds": [
        "41506478881403507969696680653240014914910929820314476107906210059990532622336"
      ]
    },
    {
      "x": 386,
      "y": 295,
      "size": 1,
      "price": "4683000000000000000000",
      "reserved": "",
      "salt": "0xc6b10e17e60bcc38f358e3300b102e36aeeb192c70049d19cd974ae291fa2fa7",
      "assetIds": [
        "41506478881403507969696680653240014914910929820314476107906210059990541021184"
      ]
    },
    {
      "x": 386,
      "y": 296,
      "size": 1,
      "price": "4683000000000000000000",
      "reserved": "",
      "salt": "0x66cf5107b185a8baf5c7ea73271fc7bf7a99de2d873af1c967425f4cbcb85fea",
      "assetIds": [
        "41506478881403507969696680653240014914910929820314476107906210059990532622336"
      ]
    },
    {
      "x": 386,
      "y": 297,
      "size": 1,
      "price": "4683000000000000000000",
      "reserved": "",
      "salt": "0xa8552c12072496db4bd522dbdcbc16e78dc4a89e6436e8c88cf795a8ae5c3bb3",
      "assetIds": [
        "41506478881403507969696680653240014914910929820314476107906210059990541021187"
      ]
    },
    {
      "x": 386,
      "y": 298,
      "size": 1,
      "price": "4683000000000000000000",
      "reserved": "",
      "salt": "0x2b0eb2425e88e490a9ef0ac7d58c93a09ad042ab023f959958d51303cc5b9c33",
      "assetIds": [
        "41506478881403507969696680653240014914910929820314476107906210059990532622336"
      ]
    },
    {
      "x": 386,
      "y": 299,
      "size": 1,
      "price": "4683000000000000000000",
      "reserved": "",
      "salt": "0x6362de1c493a6f1173b9f0265e7dd568a1522e6b2d62aeb4fbebe5d784c6fc44",
      "assetIds": [
        "41506478881403507969696680653240014914910929820314476107906210059990541021187"
      ]
    },
    {
      "x": 387,
      "y": 225,
      "size": 1,
      "price": "4683000000000000000000",
      "reserved": "",
      "salt": "0xe50ca722a7ab60225d70f288ae41d3fd94bdc8b4216075702e1e624580d234f5",
      "assetIds": [
        "41506478881403507969696680653240014914910929820314476107906210059990541021186"
      ]
    },
    {
      "x": 387,
      "y": 226,
      "size": 1,
      "price": "4683000000000000000000",
      "reserved": "",
      "salt": "0xeb562f549bdedc31e7d8f1f3285654dabae1d8488ca3b151fc322ca7a43e199c",
      "assetIds": [
        "41506478881403507969696680653240014914910929820314476107906210059990541021185"
      ]
    },
    {
      "x": 387,
      "y": 227,
      "size": 1,
      "price": "4683000000000000000000",
      "reserved": "",
      "salt": "0x978938155a9d4599b9bce91964dc2fe774670878df02da78bc61011df0bdb533",
      "assetIds": [
        "41506478881403507969696680653240014914910929820314476107906210059990541021186"
      ]
    },
    {
      "x": 387,
      "y": 228,
      "size": 1,
      "price": "4683000000000000000000",
      "reserved": "",
      "salt": "0x8709d1a6d274ad31cf139642d3e8ec37b1afc456664748e004cf9b66f31dc226",
      "assetIds": [
        "41506478881403507969696680653240014914910929820314476107906210059990541021189"
      ]
    },
    {
      "x": 387,
      "y": 229,
      "size": 1,
      "price": "4683000000000000000000",
      "reserved": "",
      "salt": "0x28cbf30d7dbd8ba9d17055aa8be5f479cec259b657f4ae6717d02faebbd6826a",
      "assetIds": [
        "41506478881403507969696680653240014914910929820314476107906210059990541021188"
      ]
    },
    {
      "x": 387,
      "y": 230,
      "size": 1,
      "price": "4683000000000000000000",
      "reserved": "",
      "salt": "0xf5626e83ba42798ea860717fb17a36007f2e842a897a865cdddd99427e767dd1",
      "assetIds": [
        "41506478881403507969696680653240014914910929820314476107906210059990532622336"
      ]
    },
    {
      "x": 387,
      "y": 231,
      "size": 1,
      "price": "4683000000000000000000",
      "reserved": "",
      "salt": "0xd30f8cc8e07d76260b6d5aec4543d6946409dc09e318358c9e2bb79e18201808",
      "assetIds": [
        "41506478881403507969696680653240014914910929820314476107906210059990541021186"
      ]
    },
    {
      "x": 387,
      "y": 232,
      "size": 1,
      "price": "4683000000000000000000",
      "reserved": "",
      "salt": "0x30feeea72954cd4a41bc53438662177447967a71da442d5c7efd22c34a508bbf",
      "assetIds": [
        "41506478881403507969696680653240014914910929820314476107906210059990541021185"
      ]
    },
    {
      "x": 387,
      "y": 233,
      "size": 1,
      "price": "4683000000000000000000",
      "reserved": "",
      "salt": "0x9ba72d9436f62c9e35c7bd279ec4b2860fe0d2525891fc1fbc890d56a76afc19",
      "assetIds": [
        "41506478881403507969696680653240014914910929820314476107906210059990541021185"
      ]
    },
    {
      "x": 387,
      "y": 234,
      "size": 1,
      "price": "4683000000000000000000",
      "reserved": "",
      "salt": "0xf0c01130e8eddc4e61a71b72229b93152749b3c14e419cc184f64f2f08f042cb",
      "assetIds": [
        "41506478881403507969696680653240014914910929820314476107906210059990541021185"
      ]
    },
    {
      "x": 387,
      "y": 235,
      "size": 1,
      "price": "4683000000000000000000",
      "reserved": "",
      "salt": "0xea2455b022788a03b76049664d849011a5fdb34f204232df4957946446119575",
      "assetIds": [
        "41506478881403507969696680653240014914910929820314476107906210059990541021189"
      ]
    },
    {
      "x": 387,
      "y": 236,
      "size": 1,
      "price": "4683000000000000000000",
      "reserved": "",
      "salt": "0x19bf1655494fb44548d6b8e524ec70a7093f3098fd3075bee9e2c093c08cc6be",
      "assetIds": [
        "41506478881403507969696680653240014914910929820314476107906210059990541021188"
      ]
    },
    {
      "x": 387,
      "y": 237,
      "size": 1,
      "price": "4683000000000000000000",
      "reserved": "",
      "salt": "0xbe27019850118acb229641d36e134ec3327ca655c49a683f3effbbe39372afe6",
      "assetIds": [
        "41506478881403507969696680653240014914910929820314476107906210059990541021187"
      ]
    },
    {
      "x": 387,
      "y": 238,
      "size": 1,
      "price": "4683000000000000000000",
      "reserved": "",
      "salt": "0xaedc92627bfefdb9d0cdcc02c3762d9961ca089d281066c7366d7057c48d7612",
      "assetIds": [
        "41506478881403507969696680653240014914910929820314476107906210059990541021185"
      ]
    },
    {
      "x": 387,
      "y": 239,
      "size": 1,
      "price": "4683000000000000000000",
      "reserved": "",
      "salt": "0x096247b8ff1ecfe460704afe65c8f58a3f37a7e2713f0a0a5da2f4df27216bf4",
      "assetIds": [
        "41506478881403507969696680653240014914910929820314476107906210059990541021187"
      ]
    },
    {
      "x": 387,
      "y": 252,
      "size": 1,
      "price": "4683000000000000000000",
      "reserved": "",
      "salt": "0xcb5be8d72018cae21f9e45f351c33a42938ef797d24ca4c8322fa678e6de077c",
      "assetIds": [
        "41506478881403507969696680653240014914910929820314476107906210059990532622336"
      ]
    },
    {
      "x": 387,
      "y": 253,
      "size": 1,
      "price": "4683000000000000000000",
      "reserved": "",
      "salt": "0x09ac64e1df6ddba831cccfe2eba317995c9f91462f7270ba6c0ae059ee48d042",
      "assetIds": [
        "41506478881403507969696680653240014914910929820314476107906210059990532622336"
      ]
    },
    {
      "x": 387,
      "y": 254,
      "size": 1,
      "price": "4683000000000000000000",
      "reserved": "",
      "salt": "0xe6432533efd2a2a219d6d7c1ef9598ec9a24d3c8e6053d68d63e81f572351066",
      "assetIds": [
        "41506478881403507969696680653240014914910929820314476107906210059990532622336"
      ]
    },
    {
      "x": 387,
      "y": 255,
      "size": 1,
      "price": "4683000000000000000000",
      "reserved": "",
      "salt": "0xa435cae57344a9056c0127c130bb5a1b04a2fb563597d9a09d0b70e92e82af6d",
      "assetIds": [
        "41506478881403507969696680653240014914910929820314476107906210059990541021187"
      ]
    },
    {
      "x": 387,
      "y": 256,
      "size": 1,
      "price": "4683000000000000000000",
      "reserved": "",
      "salt": "0x7ff956b12b5705b59e0b827b9fe7e1b878561d5720644b0ee072d88ebbba5240",
      "assetIds": [
        "41506478881403507969696680653240014914910929820314476107906210059990541021188"
      ]
    },
    {
      "x": 387,
      "y": 257,
      "size": 1,
      "price": "4683000000000000000000",
      "reserved": "",
      "salt": "0x9d0ff1f2fcffb6f939d169fbe767fbe0329be529970dcad441970aa7402868ca",
      "assetIds": [
        "41506478881403507969696680653240014914910929820314476107906210059990541021184"
      ]
    },
    {
      "x": 387,
      "y": 294,
      "size": 1,
      "price": "4683000000000000000000",
      "reserved": "",
      "salt": "0x066965aad73e07a4eb52928aaee2dcd6b8c28fc0260bbaf650337696b4e306d5",
      "assetIds": [
        "41506478881403507969696680653240014914910929820314476107906210059990541021189"
      ]
    },
    {
      "x": 387,
      "y": 295,
      "size": 1,
      "price": "4683000000000000000000",
      "reserved": "",
      "salt": "0x9b8cde49f75a2d9fa98ce3db1bdb89141a68c430725908a1400e37f263ed7b4a",
      "assetIds": [
        "41506478881403507969696680653240014914910929820314476107906210059990532622336"
      ]
    },
    {
      "x": 387,
      "y": 296,
      "size": 1,
      "price": "4683000000000000000000",
      "reserved": "",
      "salt": "0xa899304276f3b5e7618f409ab020b98119cd918bf1d43ec63d26ff55a51db1c8",
      "assetIds": [
        "41506478881403507969696680653240014914910929820314476107906210059990541021186"
      ]
    },
    {
      "x": 387,
      "y": 297,
      "size": 1,
      "price": "4683000000000000000000",
      "reserved": "",
      "salt": "0x599a057d6a7f47dd337943b9f08e0d1d3b5a13ea232b0bab41058ad87529f316",
      "assetIds": [
        "41506478881403507969696680653240014914910929820314476107906210059990541021187"
      ]
    },
    {
      "x": 387,
      "y": 298,
      "size": 1,
      "price": "4683000000000000000000",
      "reserved": "",
      "salt": "0xa5084b95867003f8c7106b817173cf7308c7ab07c2d67ca29247bcb5f12bbd4a",
      "assetIds": [
        "41506478881403507969696680653240014914910929820314476107906210059990541021186"
      ]
    },
    {
      "x": 387,
      "y": 299,
      "size": 1,
      "price": "4683000000000000000000",
      "reserved": "",
      "salt": "0xa6ef35e42b391105fd1049502cfe0cae49383748a0e2224b1edd9e3791b135d7",
      "assetIds": [
        "41506478881403507969696680653240014914910929820314476107906210059990541021188"
      ]
    },
    {
      "x": 387,
      "y": 306,
      "size": 1,
      "price": "4683000000000000000000",
      "reserved": "",
      "salt": "0x7d95a17c01cf0482adcfc7f5b80f3947c515c800951f6f4366f8081dc9013343",
      "assetIds": [
        "41506478881403507969696680653240014914910929820314476107906210059990541021184"
      ]
    },
    {
      "x": 387,
      "y": 307,
      "size": 1,
      "price": "4683000000000000000000",
      "reserved": "",
      "salt": "0xf2482641f1ef01ce68957abb11b408d799f946bab0547e4420102910d6f4a7cb",
      "assetIds": [
        "41506478881403507969696680653240014914910929820314476107906210059990532622336"
      ]
    },
    {
      "x": 387,
      "y": 308,
      "size": 1,
      "price": "4683000000000000000000",
      "reserved": "",
      "salt": "0x7c650c21857d1eae5903adac2d4e06ecef13cf9d40c11eeb347f8fcb2a16960c",
      "assetIds": [
        "41506478881403507969696680653240014914910929820314476107906210059990541021187"
      ]
    },
    {
      "x": 387,
      "y": 309,
      "size": 1,
      "price": "4683000000000000000000",
      "reserved": "",
      "salt": "0xede83626a3a4a0592c847bc23bc921a041478a210a8005de924ef4273192a30f",
      "assetIds": [
        "41506478881403507969696680653240014914910929820314476107906210059990541021184"
      ]
    },
    {
      "x": 387,
      "y": 310,
      "size": 1,
      "price": "4683000000000000000000",
      "reserved": "",
      "salt": "0xd374f6e593bee0006bc9f7bd7ab52b0f3708988ce5f7ff5ffbadeaa44f13f3a2",
      "assetIds": [
        "41506478881403507969696680653240014914910929820314476107906210059990541021188"
      ]
    },
    {
      "x": 387,
      "y": 311,
      "size": 1,
      "price": "4683000000000000000000",
      "reserved": "",
      "salt": "0x26a714db66f1da379b3c5799110f571429dda576fa2442dfcd8e196275565556",
      "assetIds": [
        "41506478881403507969696680653240014914910929820314476107906210059990541021189"
      ]
    },
    {
      "x": 388,
      "y": 225,
      "size": 1,
      "price": "4683000000000000000000",
      "reserved": "",
      "salt": "0x2acec67536f423903465fe7ccceae33144b8cb7bfb75b1e2d566a72bf9fb59c7",
      "assetIds": [
        "41506478881403507969696680653240014914910929820314476107906210059990541021187"
      ]
    },
    {
      "x": 388,
      "y": 226,
      "size": 1,
      "price": "4683000000000000000000",
      "reserved": "",
      "salt": "0x59b5823d1f873dd4249f9c514e3f56fb6d7685a82c60e21baa0c0064bdc831d4",
      "assetIds": [
        "41506478881403507969696680653240014914910929820314476107906210059990541021185"
      ]
    },
    {
      "x": 388,
      "y": 227,
      "size": 1,
      "price": "4683000000000000000000",
      "reserved": "",
      "salt": "0x757dedde51ad0c2d97183a528ccabcb97ba373857fa5af4a651a464a020109c8",
      "assetIds": [
        "41506478881403507969696680653240014914910929820314476107906210059990532622336"
      ]
    },
    {
      "x": 388,
      "y": 228,
      "size": 1,
      "price": "4683000000000000000000",
      "reserved": "",
      "salt": "0x97ea7620210e3273df367691066e3a16bc2ab169bb4770671034e1bf352866ae",
      "assetIds": [
        "41506478881403507969696680653240014914910929820314476107906210059990541021186"
      ]
    },
    {
      "x": 388,
      "y": 229,
      "size": 1,
      "price": "4683000000000000000000",
      "reserved": "",
      "salt": "0x5c1c61bfc7f24c15bbcf00814e183adc6d5124a85a0d543d69eb7e955c76bd19",
      "assetIds": [
        "41506478881403507969696680653240014914910929820314476107906210059990541021188"
      ]
    },
    {
      "x": 388,
      "y": 230,
      "size": 1,
      "price": "4683000000000000000000",
      "reserved": "",
      "salt": "0x25b6d7241ce9b1538340e8dd8280aeb7313a8c5a990c108fa8a3c8d0f31265c1",
      "assetIds": [
        "41506478881403507969696680653240014914910929820314476107906210059990541021188"
      ]
    },
    {
      "x": 388,
      "y": 231,
      "size": 1,
      "price": "4683000000000000000000",
      "reserved": "",
      "salt": "0x39044604227f8a40f0f1f6984e042836639fb2893c6c29e64f291869955d87bb",
      "assetIds": [
        "41506478881403507969696680653240014914910929820314476107906210059990541021186"
      ]
    },
    {
      "x": 388,
      "y": 232,
      "size": 1,
      "price": "4683000000000000000000",
      "reserved": "",
      "salt": "0xb45a14797f0836cf65513ada911414fcf8ba136e6fa0abeeb1715f99c0d0fb4d",
      "assetIds": [
        "41506478881403507969696680653240014914910929820314476107906210059990541021186"
      ]
    },
    {
      "x": 388,
      "y": 233,
      "size": 1,
      "price": "4683000000000000000000",
      "reserved": "",
      "salt": "0x7a547c1aba6de8e4a604dcb197a8553eaa95a17944290f569614f1e2e70faa18",
      "assetIds": [
        "41506478881403507969696680653240014914910929820314476107906210059990541021187"
      ]
    },
    {
      "x": 388,
      "y": 234,
      "size": 1,
      "price": "4683000000000000000000",
      "reserved": "",
      "salt": "0x1dd11f46c14c2ac345204e758d63817a63594344de87cdb52b96f00f85857e8e",
      "assetIds": [
        "41506478881403507969696680653240014914910929820314476107906210059990541021186"
      ]
    },
    {
      "x": 388,
      "y": 235,
      "size": 1,
      "price": "4683000000000000000000",
      "reserved": "",
      "salt": "0xda01b26bcd692fe41b4bd7ec69fd4015a1e71ee4934713d14f1b63bd48839f33",
      "assetIds": [
        "41506478881403507969696680653240014914910929820314476107906210059990541021188"
      ]
    },
    {
      "x": 388,
      "y": 236,
      "size": 1,
      "price": "4683000000000000000000",
      "reserved": "",
      "salt": "0x6f869895e6b816b46d5976fd36da2ae493e58a45c51b48c7c1151fbd21100d7f",
      "assetIds": [
        "41506478881403507969696680653240014914910929820314476107906210059990541021186"
      ]
    },
    {
      "x": 388,
      "y": 237,
      "size": 1,
      "price": "4683000000000000000000",
      "reserved": "",
      "salt": "0x51a0e2a511e1ca1720945e1fa7e4f7aacf72eb5c861e67c7ff8b6171b3bb4d33",
      "assetIds": [
        "41506478881403507969696680653240014914910929820314476107906210059990541021185"
      ]
    },
    {
      "x": 388,
      "y": 238,
      "size": 1,
      "price": "4683000000000000000000",
      "reserved": "",
      "salt": "0x4ea2c8afbaf2a35c7044a5901230745aca53e41df2982672e894b2412820b971",
      "assetIds": [
        "41506478881403507969696680653240014914910929820314476107906210059990541021187"
      ]
    },
    {
      "x": 388,
      "y": 239,
      "size": 1,
      "price": "4683000000000000000000",
      "reserved": "",
      "salt": "0xe1e0ea4ee083914539d0700931d6bc150851796b355d10b4d2db9997d1041dac",
      "assetIds": [
        "41506478881403507969696680653240014914910929820314476107906210059990541021189"
      ]
    },
    {
      "x": 388,
      "y": 252,
      "size": 1,
      "price": "4683000000000000000000",
      "reserved": "",
      "salt": "0x384363bb8dcf7eb8a0bf05c47b53cd17e7183f84011201d827381899dad86c3b",
      "assetIds": [
        "41506478881403507969696680653240014914910929820314476107906210059990532622336"
      ]
    },
    {
      "x": 388,
      "y": 253,
      "size": 1,
      "price": "4683000000000000000000",
      "reserved": "",
      "salt": "0x2ce1a073097e232b04539cd0dad95293ca4e53930dec3814be42f80fa0dcafb3",
      "assetIds": [
        "41506478881403507969696680653240014914910929820314476107906210059990541021187"
      ]
    },
    {
      "x": 388,
      "y": 254,
      "size": 1,
      "price": "4683000000000000000000",
      "reserved": "",
      "salt": "0x2550cc889da3a23933b580a5ab5326419113e4723911611cd21bed67c46347f0",
      "assetIds": [
        "41506478881403507969696680653240014914910929820314476107906210059990541021187"
      ]
    },
    {
      "x": 388,
      "y": 255,
      "size": 1,
      "price": "4683000000000000000000",
      "reserved": "",
      "salt": "0x74270e6b7f5e55bf2c4392397cafc351e4ae47cbc1197cfbf81884fae092ec29",
      "assetIds": [
        "41506478881403507969696680653240014914910929820314476107906210059990541021188"
      ]
    },
    {
      "x": 388,
      "y": 256,
      "size": 1,
      "price": "4683000000000000000000",
      "reserved": "",
      "salt": "0xd1d142915cd4ad093d40077c1c4ea6d6b3147ed5a860067a96f70eca6fc33a08",
      "assetIds": [
        "41506478881403507969696680653240014914910929820314476107906210059990541021189"
      ]
    },
    {
      "x": 388,
      "y": 257,
      "size": 1,
      "price": "4683000000000000000000",
      "reserved": "",
      "salt": "0xf9dee8bcd6397e1ce13698b13c3dbb0165fa1541ae1a1d4152c4b4efce94bbc5",
      "assetIds": [
        "41506478881403507969696680653240014914910929820314476107906210059990541021188"
      ]
    },
    {
      "x": 388,
      "y": 294,
      "size": 1,
      "price": "4683000000000000000000",
      "reserved": "",
      "salt": "0xc6a0420395fc0656d34ee6079f6798e32957838b6b9ed65468507ac75c12bf9a",
      "assetIds": [
        "41506478881403507969696680653240014914910929820314476107906210059990532622336"
      ]
    },
    {
      "x": 388,
      "y": 295,
      "size": 1,
      "price": "4683000000000000000000",
      "reserved": "",
      "salt": "0x467e2720c8bf07cf8c201e483f580a9d209cfc16784cb841a889c4a327056b88",
      "assetIds": [
        "41506478881403507969696680653240014914910929820314476107906210059990541021186"
      ]
    },
    {
      "x": 388,
      "y": 296,
      "size": 1,
      "price": "4683000000000000000000",
      "reserved": "",
      "salt": "0x1a759dccedb229eaa5ae2db9ffcf3c5dbb12006214ab2197e02424118e30ef49",
      "assetIds": [
        "41506478881403507969696680653240014914910929820314476107906210059990541021185"
      ]
    },
    {
      "x": 388,
      "y": 297,
      "size": 1,
      "price": "4683000000000000000000",
      "reserved": "",
      "salt": "0x1b5e10c390b00a1218108889f6917b69669e58c3f3d0396e9bffe3bb3cdd6e93",
      "assetIds": [
        "41506478881403507969696680653240014914910929820314476107906210059990541021187"
      ]
    },
    {
      "x": 388,
      "y": 298,
      "size": 1,
      "price": "4683000000000000000000",
      "reserved": "",
      "salt": "0x6d62c1b97b0790e508b0a125cef690f22af8420e89039bc2127b643955e7c69b",
      "assetIds": [
        "41506478881403507969696680653240014914910929820314476107906210059990541021187"
      ]
    },
    {
      "x": 388,
      "y": 299,
      "size": 1,
      "price": "1011000000000000000000",
      "reserved": "0x7a9fe22691c811ea339d9b73150e6911a5343dca",
      "salt": "0x1263e40fa08f094ab338aede6e16cae0bc7d30ebe7f076df166a91035dc652dc",
      "assetIds": []
    },
    {
      "x": 388,
      "y": 306,
      "size": 1,
      "price": "4683000000000000000000",
      "reserved": "",
      "salt": "0xe1acb157fd0929a80d995d11c187f5ccb6dad35a993aac33959a4954552b45e6",
      "assetIds": [
        "41506478881403507969696680653240014914910929820314476107906210059990532622336"
      ]
    },
    {
      "x": 388,
      "y": 307,
      "size": 1,
      "price": "4683000000000000000000",
      "reserved": "",
      "salt": "0x6d3190cd4f6598c1f2afda948bdd916faf22f56e3bea79f376248ddde0429d56",
      "assetIds": [
        "41506478881403507969696680653240014914910929820314476107906210059990541021185"
      ]
    },
    {
      "x": 388,
      "y": 308,
      "size": 1,
      "price": "4683000000000000000000",
      "reserved": "",
      "salt": "0x5de947d0ae94f325ad76dbd4adb11824e8af4ef92534a791b7a226b25c219fd0",
      "assetIds": [
        "41506478881403507969696680653240014914910929820314476107906210059990541021189"
      ]
    },
    {
      "x": 388,
      "y": 309,
      "size": 1,
      "price": "4683000000000000000000",
      "reserved": "",
      "salt": "0xa68101970985b205cb8ce585d7c8eb92340e3e386d13e01288c9a28e17d16930",
      "assetIds": [
        "41506478881403507969696680653240014914910929820314476107906210059990541021187"
      ]
    },
    {
      "x": 388,
      "y": 310,
      "size": 1,
      "price": "4683000000000000000000",
      "reserved": "",
      "salt": "0x48d9384576a7b6946e526b38abcaf218097d070f849e8e716e618de2770e54bc",
      "assetIds": [
        "41506478881403507969696680653240014914910929820314476107906210059990541021185"
      ]
    },
    {
      "x": 388,
      "y": 311,
      "size": 1,
      "price": "4683000000000000000000",
      "reserved": "",
      "salt": "0x8f00ff3216fa81620cc120d11e396d062d4b014d9890adddc38bc97fb3f7e05f",
      "assetIds": [
        "41506478881403507969696680653240014914910929820314476107906210059990541021186"
      ]
    },
    {
      "x": 389,
      "y": 225,
      "size": 1,
      "price": "4683000000000000000000",
      "reserved": "",
      "salt": "0x7e3541027f10956f2ca2fe28da43312299d45f17899372b9c99611124915c977",
      "assetIds": [
        "41506478881403507969696680653240014914910929820314476107906210059990541021185"
      ]
    },
    {
      "x": 389,
      "y": 226,
      "size": 1,
      "price": "4683000000000000000000",
      "reserved": "",
      "salt": "0x584a1613f31ab6920a20d5f9906f60a77c691aedf5ff66ce4d4e3a8c86f83869",
      "assetIds": [
        "41506478881403507969696680653240014914910929820314476107906210059990541021184"
      ]
    },
    {
      "x": 389,
      "y": 227,
      "size": 1,
      "price": "4683000000000000000000",
      "reserved": "",
      "salt": "0x7899ef0e6b474de5842486f66d3a1988b68e65a7c36f778cf5af62a2ea8996de",
      "assetIds": [
        "41506478881403507969696680653240014914910929820314476107906210059990541021184"
      ]
    },
    {
      "x": 389,
      "y": 228,
      "size": 1,
      "price": "4683000000000000000000",
      "reserved": "",
      "salt": "0xf36b0b6214249f01287d55bb08840435a1c3c447d78d16ea0bd023ec70d29c7e",
      "assetIds": [
        "41506478881403507969696680653240014914910929820314476107906210059990541021187"
      ]
    },
    {
      "x": 389,
      "y": 229,
      "size": 1,
      "price": "4683000000000000000000",
      "reserved": "",
      "salt": "0xf53e787f660a1aac53640767c8bf0e09718ce169de736a5e3879c6029f60bc21",
      "assetIds": [
        "41506478881403507969696680653240014914910929820314476107906210059990541021185"
      ]
    },
    {
      "x": 389,
      "y": 230,
      "size": 1,
      "price": "4683000000000000000000",
      "reserved": "",
      "salt": "0xb1815eb95e1db90d45b9f146f5856eb8e70514c2f7f61603baa80f003ed3a60b",
      "assetIds": [
        "41506478881403507969696680653240014914910929820314476107906210059990541021187"
      ]
    },
    {
      "x": 389,
      "y": 231,
      "size": 1,
      "price": "4683000000000000000000",
      "reserved": "",
      "salt": "0xcff29870189912a2ba07250e9eca8712ab5a52d5d0c1cc451323b4fe2f336707",
      "assetIds": [
        "41506478881403507969696680653240014914910929820314476107906210059990541021184"
      ]
    },
    {
      "x": 389,
      "y": 232,
      "size": 1,
      "price": "4683000000000000000000",
      "reserved": "",
      "salt": "0xe9a102254509469c59fcc9cbbfcd083e9d694e77520fdcfdff41ce71ad0d9f63",
      "assetIds": [
        "41506478881403507969696680653240014914910929820314476107906210059990541021185"
      ]
    },
    {
      "x": 389,
      "y": 233,
      "size": 1,
      "price": "4683000000000000000000",
      "reserved": "",
      "salt": "0x85a7b8acdaff02cdcccb6dd7a771731199a90606ee04f1c2c159848423b97f54",
      "assetIds": [
        "41506478881403507969696680653240014914910929820314476107906210059990541021188"
      ]
    },
    {
      "x": 389,
      "y": 234,
      "size": 1,
      "price": "4683000000000000000000",
      "reserved": "",
      "salt": "0x001c4f5618082632c1bf698ae74c58ceeab4a8945c54c62cf3a42e335bc1c341",
      "assetIds": [
        "41506478881403507969696680653240014914910929820314476107906210059990541021185"
      ]
    },
    {
      "x": 389,
      "y": 235,
      "size": 1,
      "price": "4683000000000000000000",
      "reserved": "",
      "salt": "0x7ed1a6afccd07d7f1fbc6be139b99b7659d164184d8e5e14feab16eeaaaa932e",
      "assetIds": [
        "41506478881403507969696680653240014914910929820314476107906210059990541021188"
      ]
    },
    {
      "x": 389,
      "y": 236,
      "size": 1,
      "price": "4683000000000000000000",
      "reserved": "",
      "salt": "0x114020328df5628e8a2385d6b3a6cea37e6aee10b50facac9de557a52171b621",
      "assetIds": [
        "41506478881403507969696680653240014914910929820314476107906210059990541021185"
      ]
    },
    {
      "x": 389,
      "y": 237,
      "size": 1,
      "price": "4683000000000000000000",
      "reserved": "",
      "salt": "0xe0f4c671da28ec016512e7b74b2c008c7591bed1038541ae41a03ceb088064b7",
      "assetIds": [
        "41506478881403507969696680653240014914910929820314476107906210059990541021185"
      ]
    },
    {
      "x": 389,
      "y": 238,
      "size": 1,
      "price": "4683000000000000000000",
      "reserved": "",
      "salt": "0xcd4ee88c8899ebffce0142e8d287c846a77895f489c224a1500c1b084da5c713",
      "assetIds": [
        "41506478881403507969696680653240014914910929820314476107906210059990532622336"
      ]
    },
    {
      "x": 389,
      "y": 239,
      "size": 1,
      "price": "4683000000000000000000",
      "reserved": "",
      "salt": "0x86fbc089e84f09e8320fc1221da083e7dd6583849ade6eb38c25fd717b3818e4",
      "assetIds": [
        "41506478881403507969696680653240014914910929820314476107906210059990541021189"
      ]
    },
    {
      "x": 389,
      "y": 252,
      "size": 1,
      "price": "4683000000000000000000",
      "reserved": "",
      "salt": "0x66bb7b753f1ab8c6dbd4100d4b1da8fdb3ac0f0d367c0d687c3ec686fcc42572",
      "assetIds": [
        "41506478881403507969696680653240014914910929820314476107906210059990541021189"
      ]
    },
    {
      "x": 389,
      "y": 253,
      "size": 1,
      "price": "4683000000000000000000",
      "reserved": "",
      "salt": "0xa6ca9f0639d2c6c1092908f8bb868af00216d388463475e759430e0a22a158a4",
      "assetIds": [
        "41506478881403507969696680653240014914910929820314476107906210059990541021189"
      ]
    },
    {
      "x": 389,
      "y": 254,
      "size": 1,
      "price": "4683000000000000000000",
      "reserved": "",
      "salt": "0x8c6dbfbfd950fe86e1e380664855b591a8b8b036a674cdd7921ca9b23c760764",
      "assetIds": [
        "41506478881403507969696680653240014914910929820314476107906210059990541021185"
      ]
    },
    {
      "x": 389,
      "y": 255,
      "size": 1,
      "price": "4683000000000000000000",
      "reserved": "",
      "salt": "0x83a9bdb0d0dc5dfec64e3045bfb419e86269257c95e20dafc251f9479a0ac816",
      "assetIds": [
        "41506478881403507969696680653240014914910929820314476107906210059990541021186"
      ]
    },
    {
      "x": 389,
      "y": 256,
      "size": 1,
      "price": "4683000000000000000000",
      "reserved": "",
      "salt": "0x1417717969107580d75cfb7287920a245a25b153c17aa853697d9e79c1abbae2",
      "assetIds": [
        "41506478881403507969696680653240014914910929820314476107906210059990541021184"
      ]
    },
    {
      "x": 389,
      "y": 257,
      "size": 1,
      "price": "4683000000000000000000",
      "reserved": "",
      "salt": "0x290d954fdaef38a1b27cdb9b348c04ae25f9c695f47f36b395a4c5381610d601",
      "assetIds": [
        "41506478881403507969696680653240014914910929820314476107906210059990541021185"
      ]
    },
    {
      "x": 389,
      "y": 294,
      "size": 1,
      "price": "4683000000000000000000",
      "reserved": "",
      "salt": "0x78602c8aaa0bc4dfbbe907651cec8ff717afbcaf11928292e8506431a09df48c",
      "assetIds": [
        "41506478881403507969696680653240014914910929820314476107906210059990541021186"
      ]
    },
    {
      "x": 389,
      "y": 295,
      "size": 1,
      "price": "4683000000000000000000",
      "reserved": "",
      "salt": "0x2fa3e30196fe3ab1a589bf44f7f1cc734ca1a80a19b7b7f32ffb9324ab8b162a",
      "assetIds": [
        "41506478881403507969696680653240014914910929820314476107906210059990541021188"
      ]
    },
    {
      "x": 389,
      "y": 296,
      "size": 1,
      "price": "4683000000000000000000",
      "reserved": "",
      "salt": "0x9ed2977ca7ef880f84ee9ab5f2188d5ad573dc30952edbc71d76af25699a5c17",
      "assetIds": [
        "41506478881403507969696680653240014914910929820314476107906210059990532622336"
      ]
    },
    {
      "x": 389,
      "y": 297,
      "size": 1,
      "price": "4683000000000000000000",
      "reserved": "",
      "salt": "0x25e37299b018d2570a8c5aa5222e5225391636bffff149110d251bfd90d59ce1",
      "assetIds": [
        "41506478881403507969696680653240014914910929820314476107906210059990541021185"
      ]
    },
    {
      "x": 389,
      "y": 298,
      "size": 1,
      "price": "4683000000000000000000",
      "reserved": "",
      "salt": "0xd3e4e8452fd9b96b79cb1eeb20d068c6d5f3720d94a42d85c9880b6c3648aa94",
      "assetIds": [
        "41506478881403507969696680653240014914910929820314476107906210059990541021188"
      ]
    },
    {
      "x": 389,
      "y": 299,
      "size": 1,
      "price": "4683000000000000000000",
      "reserved": "",
      "salt": "0xb7e6301a40fbd8d2a91fe4248c2b71e02dae5cfa683345531f51c02b188293a2",
      "assetIds": [
        "41506478881403507969696680653240014914910929820314476107906210059990532622336"
      ]
    },
    {
      "x": 389,
      "y": 306,
      "size": 1,
      "price": "4683000000000000000000",
      "reserved": "",
      "salt": "0x485a94ace0b2e5e1e88e274f3e0adf1707cbcb5e53646e683157f9ac2978c504",
      "assetIds": [
        "41506478881403507969696680653240014914910929820314476107906210059990532622336"
      ]
    },
    {
      "x": 389,
      "y": 307,
      "size": 1,
      "price": "4683000000000000000000",
      "reserved": "",
      "salt": "0x421823214016dbf0416a316e2daaf702219e2e06cea71dc191465543f04f4db1",
      "assetIds": [
        "41506478881403507969696680653240014914910929820314476107906210059990541021188"
      ]
    },
    {
      "x": 389,
      "y": 308,
      "size": 1,
      "price": "4683000000000000000000",
      "reserved": "",
      "salt": "0x2e656a191a67cc41ce931b57edc001ca803a149dc55825917942cc3a3d344a4b",
      "assetIds": [
        "41506478881403507969696680653240014914910929820314476107906210059990541021185"
      ]
    },
    {
      "x": 389,
      "y": 309,
      "size": 1,
      "price": "4683000000000000000000",
      "reserved": "",
      "salt": "0x2c98afd57d9def4f8086ebe4a90b2041acb96092ddc7b4cba7eed1300d2b5238",
      "assetIds": [
        "41506478881403507969696680653240014914910929820314476107906210059990541021189"
      ]
    },
    {
      "x": 389,
      "y": 310,
      "size": 1,
      "price": "4683000000000000000000",
      "reserved": "",
      "salt": "0x6992b45f25e9297e48d1899f21ad74f8d1e093dd3aad46af243b4eec481bcd76",
      "assetIds": [
        "41506478881403507969696680653240014914910929820314476107906210059990541021184"
      ]
    },
    {
      "x": 389,
      "y": 311,
      "size": 1,
      "price": "4683000000000000000000",
      "reserved": "",
      "salt": "0x7f55373f2c189f1282f048d756627cff8d7d2ef03e5da1ba4f93baedc716cb8a",
      "assetIds": [
        "41506478881403507969696680653240014914910929820314476107906210059990541021186"
      ]
    },
    {
      "x": 390,
      "y": 222,
      "size": 1,
      "price": "4683000000000000000000",
      "reserved": "",
      "salt": "0x18e16ced8355395d82e400263f7b9ff72e0b35dfe1195fecff38b35728a25188",
      "assetIds": [
        "41506478881403507969696680653240014914910929820314476107906210059990541021186"
      ]
    },
    {
      "x": 390,
      "y": 223,
      "size": 1,
      "price": "4683000000000000000000",
      "reserved": "",
      "salt": "0xb372274841dd1c8a1342b2e6a65884084633bbbd34adb7f38b193a99ed84bc02",
      "assetIds": [
        "41506478881403507969696680653240014914910929820314476107906210059990541021184"
      ]
    },
    {
      "x": 390,
      "y": 224,
      "size": 1,
      "price": "4683000000000000000000",
      "reserved": "",
      "salt": "0xe53575c4c8b3bcf0c9885f8b123425e575a13f6c643505334fd6ad4aa837b195",
      "assetIds": [
        "41506478881403507969696680653240014914910929820314476107906210059990541021187"
      ]
    },
    {
      "x": 390,
      "y": 225,
      "size": 1,
      "price": "4683000000000000000000",
      "reserved": "",
      "salt": "0x585816e79e641080f5654e16bed7d6b09cec048959d568de8d3c24e618228656",
      "assetIds": [
        "41506478881403507969696680653240014914910929820314476107906210059990532622336"
      ]
    },
    {
      "x": 390,
      "y": 226,
      "size": 1,
      "price": "4683000000000000000000",
      "reserved": "",
      "salt": "0x42f3cacab4b6d0d8f304fe2f1922d4b75fd767b49f80ecfcce7334a3d3f3034e",
      "assetIds": [
        "41506478881403507969696680653240014914910929820314476107906210059990541021184"
      ]
    },
    {
      "x": 390,
      "y": 227,
      "size": 1,
      "price": "4683000000000000000000",
      "reserved": "",
      "salt": "0x320794b187f22e065619224292bd66bd18c43d67e1381bcb5456e76d03fc2f69",
      "assetIds": [
        "41506478881403507969696680653240014914910929820314476107906210059990541021189"
      ]
    },
    {
      "x": 390,
      "y": 234,
      "size": 1,
      "price": "4683000000000000000000",
      "reserved": "",
      "salt": "0x36ef06dec1e93f83e8c188afe489cf9056981da8338745e6b68e78bdc45cdc46",
      "assetIds": [
        "41506478881403507969696680653240014914910929820314476107906210059990541021187"
      ]
    },
    {
      "x": 390,
      "y": 235,
      "size": 1,
      "price": "4683000000000000000000",
      "reserved": "",
      "salt": "0x8d876f967f1a2b5a45c0057e79d4dc65a43519797c5193808563a770c8f6ac52",
      "assetIds": [
        "41506478881403507969696680653240014914910929820314476107906210059990532622336"
      ]
    },
    {
      "x": 390,
      "y": 236,
      "size": 1,
      "price": "4683000000000000000000",
      "reserved": "",
      "salt": "0xd3f5458f22fe6766a94870b0b417c30cff107a18dfa731651909179eaba9cf07",
      "assetIds": [
        "41506478881403507969696680653240014914910929820314476107906210059990541021189"
      ]
    },
    {
      "x": 390,
      "y": 237,
      "size": 1,
      "price": "4683000000000000000000",
      "reserved": "",
      "salt": "0xc6452a32801970f104c82f76bf9704885e62c88c6f27b6de6a0b7f1fea93c0a8",
      "assetIds": [
        "41506478881403507969696680653240014914910929820314476107906210059990541021184"
      ]
    },
    {
      "x": 390,
      "y": 238,
      "size": 1,
      "price": "4683000000000000000000",
      "reserved": "",
      "salt": "0xc6cf005cd10d2f6381babdcf53cd810d8fa93b90d30e3958b39fe1c098ffee9f",
      "assetIds": [
        "41506478881403507969696680653240014914910929820314476107906210059990541021185"
      ]
    },
    {
      "x": 390,
      "y": 239,
      "size": 1,
      "price": "4683000000000000000000",
      "reserved": "",
      "salt": "0x12bd4e91ed9c1d99bd296cdbb3a68637b7c9d77890f5a7d53aca39ad9f1c3970",
      "assetIds": [
        "41506478881403507969696680653240014914910929820314476107906210059990532622336"
      ]
    },
    {
      "x": 390,
      "y": 252,
      "size": 1,
      "price": "4683000000000000000000",
      "reserved": "",
      "salt": "0x1fd277c620bff9721387bd52046cda9946f48d3637a07aae89acc72966882af0",
      "assetIds": [
        "41506478881403507969696680653240014914910929820314476107906210059990541021187"
      ]
    },
    {
      "x": 390,
      "y": 253,
      "size": 1,
      "price": "4683000000000000000000",
      "reserved": "",
      "salt": "0x0ccb5ed6420a347ce0771b7d6526b89b58ac1d5c99436504b381fc3ed623c51a",
      "assetIds": [
        "41506478881403507969696680653240014914910929820314476107906210059990532622336"
      ]
    },
    {
      "x": 390,
      "y": 254,
      "size": 1,
      "price": "4683000000000000000000",
      "reserved": "",
      "salt": "0x8b98c605ea1a37f5292be618364a8a153ab30927b4ef70b40ee4e46bf8013f0b",
      "assetIds": [
        "41506478881403507969696680653240014914910929820314476107906210059990541021184"
      ]
    },
    {
      "x": 390,
      "y": 255,
      "size": 1,
      "price": "4683000000000000000000",
      "reserved": "",
      "salt": "0xfb67ecd2a0f6cd8bd87f0583f2c76cb89e3dbf3b16553f35c6bab14d0c52e641",
      "assetIds": [
        "41506478881403507969696680653240014914910929820314476107906210059990541021188"
      ]
    },
    {
      "x": 390,
      "y": 256,
      "size": 1,
      "price": "4683000000000000000000",
      "reserved": "",
      "salt": "0xda4219fae98ef41d640308ae48b58d52abbb1c211469b676cdab4d56e5fd2077",
      "assetIds": [
        "41506478881403507969696680653240014914910929820314476107906210059990541021189"
      ]
    },
    {
      "x": 390,
      "y": 257,
      "size": 1,
      "price": "4683000000000000000000",
      "reserved": "",
      "salt": "0x2bba65e6b02aecd360eee214734238bf3cbb76079f41efec5232f847b2d233f3",
      "assetIds": [
        "41506478881403507969696680653240014914910929820314476107906210059990541021188"
      ]
    },
    {
      "x": 390,
      "y": 261,
      "size": 1,
      "price": "4683000000000000000000",
      "reserved": "",
      "salt": "0xbf99e6aa9d9e8741efc3c40969e291d2d69ad2c7556c412b4c4a352838b6f469",
      "assetIds": [
        "41506478881403507969696680653240014914910929820314476107906210059990541021184"
      ]
    },
    {
      "x": 390,
      "y": 262,
      "size": 1,
      "price": "4683000000000000000000",
      "reserved": "",
      "salt": "0x03813707cbe627cc2f619c78ffa401f9550ce122cd061e65580a1dade64d1774",
      "assetIds": [
        "41506478881403507969696680653240014914910929820314476107906210059990541021186"
      ]
    },
    {
      "x": 390,
      "y": 263,
      "size": 1,
      "price": "4683000000000000000000",
      "reserved": "",
      "salt": "0xa2d1f3c511d9bb3d96ebe0db2aa1f3227f6c4bddcd8be2765fd51a59b0582557",
      "assetIds": [
        "41506478881403507969696680653240014914910929820314476107906210059990541021186"
      ]
    },
    {
      "x": 390,
      "y": 291,
      "size": 1,
      "price": "4683000000000000000000",
      "reserved": "",
      "salt": "0x5766830a6133fe0f6798b2085011932ec2c819d136d3266ca1fe95139030f772",
      "assetIds": [
        "41506478881403507969696680653240014914910929820314476107906210059990541021186"
      ]
    },
    {
      "x": 390,
      "y": 292,
      "size": 1,
      "price": "4683000000000000000000",
      "reserved": "",
      "salt": "0xea6ea223b08b0a9b969434dcf6d90db1d97567990237e517d8be9ef96e62ba4a",
      "assetIds": [
        "41506478881403507969696680653240014914910929820314476107906210059990532622336"
      ]
    },
    {
      "x": 390,
      "y": 293,
      "size": 1,
      "price": "4683000000000000000000",
      "reserved": "",
      "salt": "0xaadbd3c2df922d1a51b4e98ea40e38024f4cb087ff59a25523d4778e703048e4",
      "assetIds": [
        "41506478881403507969696680653240014914910929820314476107906210059990532622336"
      ]
    },
    {
      "x": 390,
      "y": 294,
      "size": 1,
      "price": "4683000000000000000000",
      "reserved": "",
      "salt": "0x8da6c168a45434be5270356c60d358fc9e7566b9d8ddfbc8a8471c693408f217",
      "assetIds": [
        "41506478881403507969696680653240014914910929820314476107906210059990541021188"
      ]
    },
    {
      "x": 390,
      "y": 295,
      "size": 1,
      "price": "4683000000000000000000",
      "reserved": "",
      "salt": "0xad550a0d3af813d4b59d3120b11565b01e9fa23aaf7a0f2dda4e61fc23ff9edf",
      "assetIds": [
        "41506478881403507969696680653240014914910929820314476107906210059990532622336"
      ]
    },
    {
      "x": 390,
      "y": 296,
      "size": 1,
      "price": "4683000000000000000000",
      "reserved": "",
      "salt": "0x71eea8e68598cf963664948eedc9ad47166c18b3fc4a6adb73ce6ba1097ff5c5",
      "assetIds": [
        "41506478881403507969696680653240014914910929820314476107906210059990541021186"
      ]
    },
    {
      "x": 390,
      "y": 297,
      "size": 1,
      "price": "4683000000000000000000",
      "reserved": "",
      "salt": "0x0b358dde297e04c935955943d73a7ab722295e64f6a9e105c50b9571b28014c2",
      "assetIds": [
        "41506478881403507969696680653240014914910929820314476107906210059990541021188"
      ]
    },
    {
      "x": 390,
      "y": 298,
      "size": 1,
      "price": "4683000000000000000000",
      "reserved": "",
      "salt": "0x7861118a1828fd072855a6ab24663d96810853e2fa2634928f5bed734026cda8",
      "assetIds": [
        "41506478881403507969696680653240014914910929820314476107906210059990532622336"
      ]
    },
    {
      "x": 390,
      "y": 299,
      "size": 1,
      "price": "4683000000000000000000",
      "reserved": "",
      "salt": "0x5975624f53374268ad7cf10d29a3045f99e2a75e896baa6d6af596d0ddc6c841",
      "assetIds": [
        "41506478881403507969696680653240014914910929820314476107906210059990541021184"
      ]
    },
    {
      "x": 390,
      "y": 300,
      "size": 1,
      "price": "4683000000000000000000",
      "reserved": "",
      "salt": "0xfa61f5f319cd638b36de99feb96df03796d875bcb7df49b7c75dd5bcbaf05701",
      "assetIds": [
        "41506478881403507969696680653240014914910929820314476107906210059990541021185"
      ]
    },
    {
      "x": 390,
      "y": 301,
      "size": 1,
      "price": "4683000000000000000000",
      "reserved": "",
      "salt": "0xc3a78c0390ce9036293ad6d6a7fba7bdca212022d362d293dc04adf2fc96e38e",
      "assetIds": [
        "41506478881403507969696680653240014914910929820314476107906210059990541021187"
      ]
    },
    {
      "x": 390,
      "y": 302,
      "size": 1,
      "price": "4683000000000000000000",
      "reserved": "",
      "salt": "0x57448e677b28918ee46ef4ea3f6af7ddff64a8a52c17b574499f2d215b7b3b9b",
      "assetIds": [
        "41506478881403507969696680653240014914910929820314476107906210059990541021186"
      ]
    },
    {
      "x": 390,
      "y": 306,
      "size": 1,
      "price": "4683000000000000000000",
      "reserved": "",
      "salt": "0x7b155c766fdeefcb8f1924ee15e895c5d71fdb9ae86c130c37411393f26009ab",
      "assetIds": [
        "41506478881403507969696680653240014914910929820314476107906210059990541021186"
      ]
    },
    {
      "x": 390,
      "y": 307,
      "size": 1,
      "price": "4683000000000000000000",
      "reserved": "",
      "salt": "0xc048ef69cae1975e9d71b1e10d213b3921d9b6d8d15b4ec99ad3bf20121ed629",
      "assetIds": [
        "41506478881403507969696680653240014914910929820314476107906210059990541021185"
      ]
    },
    {
      "x": 390,
      "y": 308,
      "size": 1,
      "price": "4683000000000000000000",
      "reserved": "",
      "salt": "0x29dd20080ca54e59848bd47ed2a1a8839ae43d89be1703a934ba00fcc748c05c",
      "assetIds": [
        "41506478881403507969696680653240014914910929820314476107906210059990541021186"
      ]
    },
    {
      "x": 391,
      "y": 222,
      "size": 1,
      "price": "4683000000000000000000",
      "reserved": "",
      "salt": "0x74c9349dee23711d39c66bce7527884aa6d543699ebb4638b5ac906676290cff",
      "assetIds": [
        "41506478881403507969696680653240014914910929820314476107906210059990541021189"
      ]
    },
    {
      "x": 391,
      "y": 223,
      "size": 1,
      "price": "4683000000000000000000",
      "reserved": "",
      "salt": "0x3aef7d35efe8c331a1d26caca2cdc3b55b21d65cba3722c2f943d7ad0ddc939f",
      "assetIds": [
        "41506478881403507969696680653240014914910929820314476107906210059990541021189"
      ]
    },
    {
      "x": 391,
      "y": 224,
      "size": 1,
      "price": "4683000000000000000000",
      "reserved": "",
      "salt": "0x6fb7cc525fca90fd417575add661fdd3833f23c954b2164f819d089f09fe6e62",
      "assetIds": [
        "41506478881403507969696680653240014914910929820314476107906210059990541021189"
      ]
    },
    {
      "x": 391,
      "y": 225,
      "size": 1,
      "price": "4683000000000000000000",
      "reserved": "",
      "salt": "0xbc3f255a141e1cb2ee19fbb24f73e24141714a27c7f4ca2039db388bbc0a1e42",
      "assetIds": [
        "41506478881403507969696680653240014914910929820314476107906210059990541021184"
      ]
    },
    {
      "x": 391,
      "y": 226,
      "size": 1,
      "price": "4683000000000000000000",
      "reserved": "",
      "salt": "0x7ad36cbdf8373fa295ff09dfab32fa8ba0397da47b503fc6f555e81a8fa1d0b8",
      "assetIds": [
        "41506478881403507969696680653240014914910929820314476107906210059990541021189"
      ]
    },
    {
      "x": 391,
      "y": 227,
      "size": 1,
      "price": "4683000000000000000000",
      "reserved": "",
      "salt": "0xb50d4cde5ee781d56ffd5debc0e2c1178035d4317a3ade7f79065dce7fa0d687",
      "assetIds": [
        "41506478881403507969696680653240014914910929820314476107906210059990541021184"
      ]
    },
    {
      "x": 391,
      "y": 234,
      "size": 1,
      "price": "4683000000000000000000",
      "reserved": "",
      "salt": "0xdce1c5dcf5b4bffdb8f6cc9fb676d97295be0853c7bda012b7f857ec7a9a84bd",
      "assetIds": [
        "41506478881403507969696680653240014914910929820314476107906210059990541021186"
      ]
    },
    {
      "x": 391,
      "y": 235,
      "size": 1,
      "price": "4683000000000000000000",
      "reserved": "",
      "salt": "0x5f2025932c9f4fe43d1d6663e4b56f66faf53b94b41c70604777d2b64ad8803c",
      "assetIds": [
        "41506478881403507969696680653240014914910929820314476107906210059990541021185"
      ]
    },
    {
      "x": 391,
      "y": 236,
      "size": 1,
      "price": "4683000000000000000000",
      "reserved": "",
      "salt": "0xa662fd4e7ac6d4fb8ca635f23c0d6dc059855fe5b2de73583bb28d2845c16ed6",
      "assetIds": [
        "41506478881403507969696680653240014914910929820314476107906210059990532622336"
      ]
    },
    {
      "x": 391,
      "y": 237,
      "size": 1,
      "price": "4683000000000000000000",
      "reserved": "",
      "salt": "0xd1870b3a4f07ba61c0cca6cce97e1230ecbf7f14ecc2484f10c572f3337930e1",
      "assetIds": [
        "41506478881403507969696680653240014914910929820314476107906210059990541021184"
      ]
    },
    {
      "x": 391,
      "y": 238,
      "size": 1,
      "price": "1011000000000000000000",
      "reserved": "0x7a9fe22691c811ea339d9b73150e6911a5343dca",
      "salt": "0xc90148b1354e82d6572c04637aaeb22fbda5837dafc9864b28fdbd21ed4af8c2",
      "assetIds": []
    },
    {
      "x": 391,
      "y": 239,
      "size": 1,
      "price": "4683000000000000000000",
      "reserved": "",
      "salt": "0xd1255d30299c705e90f483663a8e25adbad8c6f7475d335bdc02ad3fc21c59da",
      "assetIds": [
        "41506478881403507969696680653240014914910929820314476107906210059990541021189"
      ]
    },
    {
      "x": 391,
      "y": 252,
      "size": 1,
      "price": "4683000000000000000000",
      "reserved": "",
      "salt": "0x8c94524d8d7d364745d1b4901d77e1b8cd03b7cd68cef9a1f84c582f7fb27555",
      "assetIds": [
        "41506478881403507969696680653240014914910929820314476107906210059990532622336"
      ]
    },
    {
      "x": 391,
      "y": 253,
      "size": 1,
      "price": "4683000000000000000000",
      "reserved": "",
      "salt": "0xbf558a196fa6aa5f5c7fc2774f34bb66fd1f33100f69e5bf50f80364993815c1",
      "assetIds": [
        "41506478881403507969696680653240014914910929820314476107906210059990541021186"
      ]
    },
    {
      "x": 391,
      "y": 254,
      "size": 1,
      "price": "4683000000000000000000",
      "reserved": "",
      "salt": "0xe0a48a04600201da52f5ef8fafed3ec91184e8cc819c74c89587ac0d29ce232f",
      "assetIds": [
        "41506478881403507969696680653240014914910929820314476107906210059990541021188"
      ]
    },
    {
      "x": 391,
      "y": 255,
      "size": 1,
      "price": "1011000000000000000000",
      "reserved": "0x7a9fe22691c811ea339d9b73150e6911a5343dca",
      "salt": "0xa1ee2b2d2dc7661a3f440a180de29f3f8da5b2635206428cc3b50c16d0204e95",
      "assetIds": []
    },
    {
      "x": 391,
      "y": 256,
      "size": 1,
      "price": "4683000000000000000000",
      "reserved": "",
      "salt": "0xf9a6e5a1ebd15fd64bfb5a1fa57fa8cf8380ae5a97bb94dd1dbb2c01ae61d47a",
      "assetIds": [
        "41506478881403507969696680653240014914910929820314476107906210059990541021185"
      ]
    },
    {
      "x": 391,
      "y": 257,
      "size": 1,
      "price": "4683000000000000000000",
      "reserved": "",
      "salt": "0x974f88330e2213b5455e77c85a1d25f8a016194cd13f8a6ed80604f025ee978d",
      "assetIds": [
        "41506478881403507969696680653240014914910929820314476107906210059990541021184"
      ]
    },
    {
      "x": 391,
      "y": 261,
      "size": 1,
      "price": "4683000000000000000000",
      "reserved": "",
      "salt": "0xd55635570554a3f168bf7705209400297b8c8d5f655643ab331baf04de3d7ba1",
      "assetIds": [
        "41506478881403507969696680653240014914910929820314476107906210059990541021184"
      ]
    },
    {
      "x": 391,
      "y": 262,
      "size": 1,
      "price": "4683000000000000000000",
      "reserved": "",
      "salt": "0x428da854239f96f7f7f556bff8c880077282456232c8a358c08458b69f06de3c",
      "assetIds": [
        "41506478881403507969696680653240014914910929820314476107906210059990541021189"
      ]
    },
    {
      "x": 391,
      "y": 263,
      "size": 1,
      "price": "4683000000000000000000",
      "reserved": "",
      "salt": "0x5f99b5d5a497380ba7d1f5b1b1293359c8424b46b3b5ffab86ea3c2a2aa92daa",
      "assetIds": [
        "41506478881403507969696680653240014914910929820314476107906210059990541021185"
      ]
    },
    {
      "x": 391,
      "y": 291,
      "size": 1,
      "price": "4683000000000000000000",
      "reserved": "",
      "salt": "0xc167c3443b3afd903c78540e681cf18ccd084e81337eec98d2c7d3362101aa84",
      "assetIds": [
        "41506478881403507969696680653240014914910929820314476107906210059990541021185"
      ]
    },
    {
      "x": 391,
      "y": 292,
      "size": 1,
      "price": "4683000000000000000000",
      "reserved": "",
      "salt": "0x88bead847209953bfa1ef67ee76b1935d5b0ccd905e6882fb263175aa10fe1b7",
      "assetIds": [
        "41506478881403507969696680653240014914910929820314476107906210059990541021184"
      ]
    },
    {
      "x": 391,
      "y": 293,
      "size": 1,
      "price": "4683000000000000000000",
      "reserved": "",
      "salt": "0xb783a2ba6ce768fbae9ef037da83c9f2035f5c622d7e1004ba1d6b26d1256369",
      "assetIds": [
        "41506478881403507969696680653240014914910929820314476107906210059990541021188"
      ]
    },
    {
      "x": 391,
      "y": 294,
      "size": 1,
      "price": "4683000000000000000000",
      "reserved": "",
      "salt": "0x517179eba4ffee352805f31f05620f44e1a4343716f8af6767201cbc274ff0c4",
      "assetIds": [
        "41506478881403507969696680653240014914910929820314476107906210059990541021189"
      ]
    },
    {
      "x": 391,
      "y": 295,
      "size": 1,
      "price": "4683000000000000000000",
      "reserved": "",
      "salt": "0xe00724ef8f5c45192961a92b5d68520216c55dfb42af12e82cd2d91ae9ff7790",
      "assetIds": [
        "41506478881403507969696680653240014914910929820314476107906210059990541021189"
      ]
    },
    {
      "x": 391,
      "y": 296,
      "size": 1,
      "price": "4683000000000000000000",
      "reserved": "",
      "salt": "0xa3d41daebdb2d3be3321b558b21c4cb4f2a14b2589dcdedeb81d00793fc20e86",
      "assetIds": [
        "41506478881403507969696680653240014914910929820314476107906210059990541021187"
      ]
    },
    {
      "x": 391,
      "y": 297,
      "size": 1,
      "price": "4683000000000000000000",
      "reserved": "",
      "salt": "0x69889672809e0a7cf9f2015beaba603ce220c28e6b92615f41e50a4fa73ab0e4",
      "assetIds": [
        "41506478881403507969696680653240014914910929820314476107906210059990541021184"
      ]
    },
    {
      "x": 391,
      "y": 298,
      "size": 1,
      "price": "4683000000000000000000",
      "reserved": "",
      "salt": "0x798f73afd0ea0e6c06155c626d4d47e85a711f8f6d84ada55d6684f2c1f88303",
      "assetIds": [
        "41506478881403507969696680653240014914910929820314476107906210059990541021186"
      ]
    },
    {
      "x": 391,
      "y": 299,
      "size": 1,
      "price": "4683000000000000000000",
      "reserved": "",
      "salt": "0xe024683ee62c05d48ba679c932350ae8c41db289385a98b893dd72abdf316c85",
      "assetIds": [
        "41506478881403507969696680653240014914910929820314476107906210059990532622336"
      ]
    },
    {
      "x": 391,
      "y": 300,
      "size": 1,
      "price": "4683000000000000000000",
      "reserved": "",
      "salt": "0xdd48791a60671979978247459c1c3f78885368b31a581325784ba4e151305456",
      "assetIds": [
        "41506478881403507969696680653240014914910929820314476107906210059990541021186"
      ]
    },
    {
      "x": 391,
      "y": 301,
      "size": 1,
      "price": "4683000000000000000000",
      "reserved": "",
      "salt": "0xbb15e74f3e2ba1e4fe4ac0b668fe5a20acc05c33d6f2161f97f89b9004e0c93d",
      "assetIds": [
        "41506478881403507969696680653240014914910929820314476107906210059990541021189"
      ]
    },
    {
      "x": 391,
      "y": 302,
      "size": 1,
      "price": "4683000000000000000000",
      "reserved": "",
      "salt": "0x4fc5f60533c00b7098d0c35af6839eb101debfdbc657b18dc247c98d0e8cafcb",
      "assetIds": [
        "41506478881403507969696680653240014914910929820314476107906210059990541021189"
      ]
    },
    {
      "x": 391,
      "y": 306,
      "size": 1,
      "price": "4683000000000000000000",
      "reserved": "",
      "salt": "0xb0e3a5a4fe3513e345bb7ace12bde1735b793e31cf07c07d75bb2e7af1acc615",
      "assetIds": [
        "41506478881403507969696680653240014914910929820314476107906210059990541021184"
      ]
    },
    {
      "x": 391,
      "y": 307,
      "size": 1,
      "price": "4683000000000000000000",
      "reserved": "",
      "salt": "0x671b39a0763842450e75a2de430c9fd45cb77cbf45b0237eb5eb0d9f961f0297",
      "assetIds": [
        "41506478881403507969696680653240014914910929820314476107906210059990541021185"
      ]
    },
    {
      "x": 391,
      "y": 308,
      "size": 1,
      "price": "4683000000000000000000",
      "reserved": "",
      "salt": "0x2895b1e8a3f7f8f1cabc676653d9a483e63ab60a514c025a872fee84f0453a96",
      "assetIds": [
        "41506478881403507969696680653240014914910929820314476107906210059990541021188"
      ]
    },
    {
      "x": 392,
      "y": 222,
      "size": 1,
      "price": "4683000000000000000000",
      "reserved": "",
      "salt": "0x43556e25c34ea82021649098c3b7147559db1d379621578c47f89528a49b0c60",
      "assetIds": [
        "41506478881403507969696680653240014914910929820314476107906210059990541021189"
      ]
    },
    {
      "x": 392,
      "y": 223,
      "size": 1,
      "price": "4683000000000000000000",
      "reserved": "",
      "salt": "0x5587919d37b589788d7973598db631c365db1ccd111e687d0e2c7184bd88088e",
      "assetIds": [
        "41506478881403507969696680653240014914910929820314476107906210059990541021184"
      ]
    },
    {
      "x": 392,
      "y": 224,
      "size": 1,
      "price": "4683000000000000000000",
      "reserved": "",
      "salt": "0x92ec5e2c8879067738ef11f64938ad9fe188ed40b03a9bd959d8195ba2c55ca0",
      "assetIds": [
        "41506478881403507969696680653240014914910929820314476107906210059990541021187"
      ]
    },
    {
      "x": 392,
      "y": 225,
      "size": 1,
      "price": "4683000000000000000000",
      "reserved": "",
      "salt": "0x20ccfaa41c02fc4ba2c46094954c7ecd543dda85ba2390325003d8dd212ca126",
      "assetIds": [
        "41506478881403507969696680653240014914910929820314476107906210059990541021186"
      ]
    },
    {
      "x": 392,
      "y": 226,
      "size": 1,
      "price": "4683000000000000000000",
      "reserved": "",
      "salt": "0xecae358d94b19a3f9f7f6878896e1b5374ff8755357ec42d8b0c47826005954d",
      "assetIds": [
        "41506478881403507969696680653240014914910929820314476107906210059990541021185"
      ]
    },
    {
      "x": 392,
      "y": 227,
      "size": 1,
      "price": "4683000000000000000000",
      "reserved": "",
      "salt": "0x3fc825e1b95dbbccb7d5936bf373fbccb123978ca86418995f0ed1ad96c7c257",
      "assetIds": [
        "41506478881403507969696680653240014914910929820314476107906210059990541021185"
      ]
    },
    {
      "x": 392,
      "y": 234,
      "size": 1,
      "price": "4683000000000000000000",
      "reserved": "",
      "salt": "0x282f9c7f376e30b947690b18ad8e54a20309ef47e420cce2359c0bd0068c21dd",
      "assetIds": [
        "41506478881403507969696680653240014914910929820314476107906210059990541021184"
      ]
    },
    {
      "x": 392,
      "y": 235,
      "size": 1,
      "price": "4683000000000000000000",
      "reserved": "",
      "salt": "0x38973d119cfb4786f5d8437147234196bb637a06f9d5e2273168e12b231e7064",
      "assetIds": [
        "41506478881403507969696680653240014914910929820314476107906210059990541021185"
      ]
    },
    {
      "x": 392,
      "y": 236,
      "size": 1,
      "price": "4683000000000000000000",
      "reserved": "",
      "salt": "0x8b0559ecdaa22248468f2395a0f223867f6e633b1d2fe6cb889a45daea5871a1",
      "assetIds": [
        "41506478881403507969696680653240014914910929820314476107906210059990541021188"
      ]
    },
    {
      "x": 392,
      "y": 237,
      "size": 1,
      "price": "4683000000000000000000",
      "reserved": "",
      "salt": "0x6aed0bac5dd3717db2dbac5d112254f20b4504dfc3b4c4e5ba1d4346166493af",
      "assetIds": [
        "41506478881403507969696680653240014914910929820314476107906210059990541021186"
      ]
    },
    {
      "x": 392,
      "y": 238,
      "size": 1,
      "price": "4683000000000000000000",
      "reserved": "",
      "salt": "0x98418948a766dc76541a39de060f147c747906312cb46ff14cdad7e567c951dd",
      "assetIds": [
        "41506478881403507969696680653240014914910929820314476107906210059990541021186"
      ]
    },
    {
      "x": 392,
      "y": 239,
      "size": 1,
      "price": "4683000000000000000000",
      "reserved": "",
      "salt": "0x3c4ffec10f13d998aa18a81a68476610e5e7b72c2c543b43ad4baf586fb817ef",
      "assetIds": [
        "41506478881403507969696680653240014914910929820314476107906210059990541021186"
      ]
    },
    {
      "x": 392,
      "y": 252,
      "size": 1,
      "price": "4683000000000000000000",
      "reserved": "",
      "salt": "0x1fca484ec77ddf5d462e3e31702b8f1cd613e2e904277fc3bd15a484ead5f143",
      "assetIds": [
        "41506478881403507969696680653240014914910929820314476107906210059990541021189"
      ]
    },
    {
      "x": 392,
      "y": 253,
      "size": 1,
      "price": "4683000000000000000000",
      "reserved": "",
      "salt": "0x40d502d101ef50ce8f71d367cfdc297fca1f582f1028a34c022d167087383e67",
      "assetIds": [
        "41506478881403507969696680653240014914910929820314476107906210059990541021189"
      ]
    },
    {
      "x": 392,
      "y": 254,
      "size": 1,
      "price": "4683000000000000000000",
      "reserved": "",
      "salt": "0x3a73f192d25d01cf02a03bf70e8026dda4f38605fb970b8d72c0d40a57e73b0a",
      "assetIds": [
        "41506478881403507969696680653240014914910929820314476107906210059990541021188"
      ]
    },
    {
      "x": 392,
      "y": 255,
      "size": 1,
      "price": "4683000000000000000000",
      "reserved": "",
      "salt": "0xb998c1ee0f75acb3fe6d7a6ade9ce912d4f24bad5b38798a78cb7836ccdb9e07",
      "assetIds": [
        "41506478881403507969696680653240014914910929820314476107906210059990541021188"
      ]
    },
    {
      "x": 392,
      "y": 256,
      "size": 1,
      "price": "4683000000000000000000",
      "reserved": "",
      "salt": "0xf04f72bdbd92c79fbf162903799695b2dc686ec03b86d7ce9d037b7ac6a21bb3",
      "assetIds": [
        "41506478881403507969696680653240014914910929820314476107906210059990541021184"
      ]
    },
    {
      "x": 392,
      "y": 257,
      "size": 1,
      "price": "4683000000000000000000",
      "reserved": "",
      "salt": "0xa431885dda10690fec2f34d92f3034db39b5a5651797ca93a63b6ab2da4d0e34",
      "assetIds": [
        "41506478881403507969696680653240014914910929820314476107906210059990541021185"
      ]
    },
    {
      "x": 392,
      "y": 261,
      "size": 1,
      "price": "4683000000000000000000",
      "reserved": "",
      "salt": "0x8f4354e14d7dd4689bb4621ded721269db55dea94a3e7f1fb1eab61718150e2a",
      "assetIds": [
        "41506478881403507969696680653240014914910929820314476107906210059990541021185"
      ]
    },
    {
      "x": 392,
      "y": 262,
      "size": 1,
      "price": "4683000000000000000000",
      "reserved": "",
      "salt": "0x96724c6af03e17e5c4dd94f906bf651f07f40498f587581fd765b167f1f790eb",
      "assetIds": [
        "41506478881403507969696680653240014914910929820314476107906210059990541021185"
      ]
    },
    {
      "x": 392,
      "y": 263,
      "size": 1,
      "price": "4683000000000000000000",
      "reserved": "",
      "salt": "0xc4b96e826dc0089b739ee6c4055752f4644c2c690f2dee0a975c8d534988ec95",
      "assetIds": [
        "41506478881403507969696680653240014914910929820314476107906210059990541021187"
      ]
    },
    {
      "x": 392,
      "y": 291,
      "size": 1,
      "price": "4683000000000000000000",
      "reserved": "",
      "salt": "0x1aa6d58f147d78dec68ee3ddf3547a91745c31033bfdb1963c571036c00665b8",
      "assetIds": [
        "41506478881403507969696680653240014914910929820314476107906210059990541021187"
      ]
    },
    {
      "x": 392,
      "y": 292,
      "size": 1,
      "price": "4683000000000000000000",
      "reserved": "",
      "salt": "0xcce40b14ad00841e2470daccb135e4451d8b4a97fb6885be84f6c5e7e8a7807a",
      "assetIds": [
        "41506478881403507969696680653240014914910929820314476107906210059990532622336"
      ]
    },
    {
      "x": 392,
      "y": 293,
      "size": 1,
      "price": "4683000000000000000000",
      "reserved": "",
      "salt": "0xe76dfdeb17a3dc95ecc9a81e4fe7bfe0fb6f0bf3e01ef25a34a93bdd8ced7b47",
      "assetIds": [
        "41506478881403507969696680653240014914910929820314476107906210059990541021184"
      ]
    },
    {
      "x": 392,
      "y": 294,
      "size": 1,
      "price": "4683000000000000000000",
      "reserved": "",
      "salt": "0x9203fb9b889ccf159311ddc5225e4aead35df11a7c82fe16817c29b76f3b61ca",
      "assetIds": [
        "41506478881403507969696680653240014914910929820314476107906210059990541021185"
      ]
    },
    {
      "x": 392,
      "y": 295,
      "size": 1,
      "price": "4683000000000000000000",
      "reserved": "",
      "salt": "0xb27805f87ff3739fd9cc1c58b09cb130de64f6855c72fb558df381b83bc86460",
      "assetIds": [
        "41506478881403507969696680653240014914910929820314476107906210059990541021186"
      ]
    },
    {
      "x": 392,
      "y": 296,
      "size": 1,
      "price": "4683000000000000000000",
      "reserved": "",
      "salt": "0x5fa78bee56c2b504b72787ba25a5d354c8f1997e7864f12bdc3969c29d5f472f",
      "assetIds": [
        "41506478881403507969696680653240014914910929820314476107906210059990541021186"
      ]
    },
    {
      "x": 392,
      "y": 297,
      "size": 1,
      "price": "4683000000000000000000",
      "reserved": "",
      "salt": "0x6ffa1c365e05f11190043331053a57a35cf6f71c20f15f397d590ca465a14179",
      "assetIds": [
        "41506478881403507969696680653240014914910929820314476107906210059990541021184"
      ]
    },
    {
      "x": 392,
      "y": 298,
      "size": 1,
      "price": "4683000000000000000000",
      "reserved": "",
      "salt": "0x5d8f1e2f75a0f909b58c625a3d7f25eb8186756f7e7f2598516fa7668ab9cdff",
      "assetIds": [
        "41506478881403507969696680653240014914910929820314476107906210059990541021187"
      ]
    },
    {
      "x": 392,
      "y": 299,
      "size": 1,
      "price": "4683000000000000000000",
      "reserved": "",
      "salt": "0x633f422e1985b79ed465db4093b2891abcfc782c3e8cb3bedc17251630f46305",
      "assetIds": [
        "41506478881403507969696680653240014914910929820314476107906210059990541021188"
      ]
    },
    {
      "x": 392,
      "y": 300,
      "size": 1,
      "price": "4683000000000000000000",
      "reserved": "",
      "salt": "0x857f05efd928ea412a4e41ade3c5ac09ba268c3d21107e3252c4fda7172dc3ef",
      "assetIds": [
        "41506478881403507969696680653240014914910929820314476107906210059990541021184"
      ]
    },
    {
      "x": 392,
      "y": 301,
      "size": 1,
      "price": "4683000000000000000000",
      "reserved": "",
      "salt": "0x3d1604604177669426aa02d7b92ed2a53a6091c1768f7869e244f83016268a41",
      "assetIds": [
        "41506478881403507969696680653240014914910929820314476107906210059990541021187"
      ]
    },
    {
      "x": 392,
      "y": 302,
      "size": 1,
      "price": "4683000000000000000000",
      "reserved": "",
      "salt": "0xf2c41b535a50706051d17b44628461617eaf883e1c56d35bc6308e939d78e6ea",
      "assetIds": [
        "41506478881403507969696680653240014914910929820314476107906210059990541021184"
      ]
    },
    {
      "x": 392,
      "y": 306,
      "size": 1,
      "price": "4683000000000000000000",
      "reserved": "",
      "salt": "0x1b08833c1845e1670e22645a66fdef7f63ef69c667df67b945ffd77869384777",
      "assetIds": [
        "41506478881403507969696680653240014914910929820314476107906210059990541021187"
      ]
    },
    {
      "x": 392,
      "y": 307,
      "size": 1,
      "price": "4683000000000000000000",
      "reserved": "",
      "salt": "0x9d306abb481edf069029f33e706584bcceb352d7b3846b91fc17d4855a0d3aea",
      "assetIds": [
        "41506478881403507969696680653240014914910929820314476107906210059990541021188"
      ]
    },
    {
      "x": 392,
      "y": 308,
      "size": 1,
      "price": "4683000000000000000000",
      "reserved": "",
      "salt": "0x2a5b8c2c60857a940e9cab69d551d6b5351e62cbc1a1d78e4c7d86e8abc17b2f",
      "assetIds": [
        "41506478881403507969696680653240014914910929820314476107906210059990541021188"
      ]
    },
    {
      "x": 393,
      "y": 222,
      "size": 1,
      "price": "4683000000000000000000",
      "reserved": "",
      "salt": "0xd30078d671a6c0a5bddb8b32f976c3bbf11f6a115dd6e57e24bb2a69e65b04bd",
      "assetIds": [
        "41506478881403507969696680653240014914910929820314476107906210059990532622336"
      ]
    },
    {
      "x": 393,
      "y": 223,
      "size": 1,
      "price": "4683000000000000000000",
      "reserved": "",
      "salt": "0x93024cb0ee3bed5b22160348468fc42b1ef229419130d8ca07eed737d7b5a65a",
      "assetIds": [
        "41506478881403507969696680653240014914910929820314476107906210059990541021186"
      ]
    },
    {
      "x": 393,
      "y": 224,
      "size": 1,
      "price": "4683000000000000000000",
      "reserved": "",
      "salt": "0x6efd074414e35116651b0f20187b40579ab7f416044d32072cbca72848dbe32e",
      "assetIds": [
        "41506478881403507969696680653240014914910929820314476107906210059990532622336"
      ]
    },
    {
      "x": 393,
      "y": 225,
      "size": 1,
      "price": "4683000000000000000000",
      "reserved": "",
      "salt": "0xd27ff1ebd1213c3dc41a3dc49c5246c11dd2fda680964a8596ff0d3e85857b48",
      "assetIds": [
        "41506478881403507969696680653240014914910929820314476107906210059990532622336"
      ]
    },
    {
      "x": 393,
      "y": 226,
      "size": 1,
      "price": "4683000000000000000000",
      "reserved": "",
      "salt": "0xecc27a4bdef3ddf6d45e7d320f5c28ada6a6a8e623fe7712524bff12081aa888",
      "assetIds": [
        "41506478881403507969696680653240014914910929820314476107906210059990541021189"
      ]
    },
    {
      "x": 393,
      "y": 227,
      "size": 1,
      "price": "4683000000000000000000",
      "reserved": "",
      "salt": "0x86b37a7dd5cb613951a9b790514ba022a7ba28ff3fd026c146352be0aa07967f",
      "assetIds": [
        "41506478881403507969696680653240014914910929820314476107906210059990541021189"
      ]
    },
    {
      "x": 393,
      "y": 234,
      "size": 1,
      "price": "4683000000000000000000",
      "reserved": "",
      "salt": "0xfdac17bdcdced34e11c65216b2c3434060698cb99486526b75a0c0a287ffb942",
      "assetIds": [
        "41506478881403507969696680653240014914910929820314476107906210059990541021185"
      ]
    },
    {
      "x": 393,
      "y": 235,
      "size": 1,
      "price": "4683000000000000000000",
      "reserved": "",
      "salt": "0xeebaa60cc13aed274075a8b8b258b103381728a4d800a5ddd195f961a19a0875",
      "assetIds": [
        "41506478881403507969696680653240014914910929820314476107906210059990541021185"
      ]
    },
    {
      "x": 393,
      "y": 236,
      "size": 1,
      "price": "4683000000000000000000",
      "reserved": "",
      "salt": "0x5b3ced76bbbe30a4a33b32632daa9d16696778bb9fe029ca000247b5e2ce7ffc",
      "assetIds": [
        "41506478881403507969696680653240014914910929820314476107906210059990541021189"
      ]
    },
    {
      "x": 393,
      "y": 237,
      "size": 1,
      "price": "4683000000000000000000",
      "reserved": "",
      "salt": "0x81dee0721ab1dc9528ce1601967ea4f3ba1c7d4736b49519af41bb6f2d2803a6",
      "assetIds": [
        "41506478881403507969696680653240014914910929820314476107906210059990541021185"
      ]
    },
    {
      "x": 393,
      "y": 238,
      "size": 1,
      "price": "4683000000000000000000",
      "reserved": "",
      "salt": "0x7ad84069f0c1a1f22b3883aa732aec73d3b843fcd2a17dc839893a6329101e95",
      "assetIds": [
        "41506478881403507969696680653240014914910929820314476107906210059990541021186"
      ]
    },
    {
      "x": 393,
      "y": 239,
      "size": 1,
      "price": "4683000000000000000000",
      "reserved": "",
      "salt": "0xd1cb1e9e4c1625393e27ac5729e785b71ce5c5cff4b1920e4ce5ad49f0b42896",
      "assetIds": [
        "41506478881403507969696680653240014914910929820314476107906210059990532622336"
      ]
    },
    {
      "x": 393,
      "y": 252,
      "size": 1,
      "price": "4683000000000000000000",
      "reserved": "",
      "salt": "0xfc38b09df4a99a1c8001d040b096645e32becca67311917f224606eaa0089f11",
      "assetIds": [
        "41506478881403507969696680653240014914910929820314476107906210059990541021185"
      ]
    },
    {
      "x": 393,
      "y": 253,
      "size": 1,
      "price": "4683000000000000000000",
      "reserved": "",
      "salt": "0xb48866d9f4ca70e7df3941a28d5022743051202ab9541c0adca9cb00a9f27b57",
      "assetIds": [
        "41506478881403507969696680653240014914910929820314476107906210059990532622336"
      ]
    },
    {
      "x": 393,
      "y": 254,
      "size": 1,
      "price": "4683000000000000000000",
      "reserved": "",
      "salt": "0x5439fd18890e48d0e9c3a83fd36f6f27cd8adbab0a5cda1771d086f48fdd995b",
      "assetIds": [
        "41506478881403507969696680653240014914910929820314476107906210059990541021189"
      ]
    },
    {
      "x": 393,
      "y": 255,
      "size": 1,
      "price": "4683000000000000000000",
      "reserved": "",
      "salt": "0x3b1d83631cdd49747badd902d9429fd4c6f8473fb6e9aa330ad5c98fcba7484e",
      "assetIds": [
        "41506478881403507969696680653240014914910929820314476107906210059990541021188"
      ]
    },
    {
      "x": 393,
      "y": 256,
      "size": 1,
      "price": "4683000000000000000000",
      "reserved": "",
      "salt": "0x1659a65b925a2f5d494d4bbb831def244b45892669b5296a3c94ebad85463ca6",
      "assetIds": [
        "41506478881403507969696680653240014914910929820314476107906210059990541021188"
      ]
    },
    {
      "x": 393,
      "y": 257,
      "size": 1,
      "price": "4683000000000000000000",
      "reserved": "",
      "salt": "0x99de62d9a433932853d5ba8d46619402a41d46d7b8614f04ff66d54361f55164",
      "assetIds": [
        "41506478881403507969696680653240014914910929820314476107906210059990541021188"
      ]
    },
    {
      "x": 393,
      "y": 258,
      "size": 1,
      "price": "4683000000000000000000",
      "reserved": "",
      "salt": "0xa80efbf61cd1a9385470bbd1a7c2c62ae165d0c3b14f7a080419e8d93eef3f54",
      "assetIds": [
        "41506478881403507969696680653240014914910929820314476107906210059990541021187"
      ]
    },
    {
      "x": 393,
      "y": 259,
      "size": 1,
      "price": "4683000000000000000000",
      "reserved": "",
      "salt": "0x5b1a997132c40fbba53bb27c215486dade95b829dcdaf4d6b846c996f5ebc356",
      "assetIds": [
        "41506478881403507969696680653240014914910929820314476107906210059990541021184"
      ]
    },
    {
      "x": 393,
      "y": 260,
      "size": 1,
      "price": "4683000000000000000000",
      "reserved": "",
      "salt": "0x859ac822d22f6bed1cc55d273f424739715fb4da66f28e42b4cf6fd34b90c17c",
      "assetIds": [
        "41506478881403507969696680653240014914910929820314476107906210059990541021189"
      ]
    },
    {
      "x": 393,
      "y": 288,
      "size": 1,
      "price": "4683000000000000000000",
      "reserved": "",
      "salt": "0x268872755e526d05eca2585386c782f853aa17947706337ede899db6a40a41b6",
      "assetIds": [
        "41506478881403507969696680653240014914910929820314476107906210059990541021187"
      ]
    },
    {
      "x": 393,
      "y": 289,
      "size": 1,
      "price": "4683000000000000000000",
      "reserved": "",
      "salt": "0xdf2d567770a68a145ee267ed36b566d34c3d29e275e767fa392255d4261a4fb5",
      "assetIds": [
        "41506478881403507969696680653240014914910929820314476107906210059990541021186"
      ]
    },
    {
      "x": 393,
      "y": 290,
      "size": 1,
      "price": "4683000000000000000000",
      "reserved": "",
      "salt": "0x539fc99ef2665ef74f4834436ef0fd1725d204cb6dbf39ee97b404bf1b9ac153",
      "assetIds": [
        "41506478881403507969696680653240014914910929820314476107906210059990541021186"
      ]
    },
    {
      "x": 393,
      "y": 291,
      "size": 1,
      "price": "4683000000000000000000",
      "reserved": "",
      "salt": "0x05a295a9ad21775e92b8927b9214a53fe5fcc6aecd61aa2158c47e4785865c94",
      "assetIds": [
        "41506478881403507969696680653240014914910929820314476107906210059990532622336"
      ]
    },
    {
      "x": 393,
      "y": 292,
      "size": 1,
      "price": "4683000000000000000000",
      "reserved": "",
      "salt": "0x43922ba4291feb2d2422a7c8f5911fcab08abc806bb717d9be80cfce8d79ee47",
      "assetIds": [
        "41506478881403507969696680653240014914910929820314476107906210059990541021188"
      ]
    },
    {
      "x": 393,
      "y": 293,
      "size": 1,
      "price": "4683000000000000000000",
      "reserved": "",
      "salt": "0x7be41e5d14d93a8104ae349f662e10fc1eff3ae4f7b490c9894a10f72c206883",
      "assetIds": [
        "41506478881403507969696680653240014914910929820314476107906210059990541021186"
      ]
    },
    {
      "x": 393,
      "y": 294,
      "size": 1,
      "price": "4683000000000000000000",
      "reserved": "",
      "salt": "0x235aa37859c138f36ec68c3ea82ef043790696c14ba7a8a119cf6298e2fb18b1",
      "assetIds": [
        "41506478881403507969696680653240014914910929820314476107906210059990541021188"
      ]
    },
    {
      "x": 393,
      "y": 295,
      "size": 1,
      "price": "4683000000000000000000",
      "reserved": "",
      "salt": "0x008b090d9dfe7a2c01703019b8159a5708531aba7904248cfd37bcaf03d7a817",
      "assetIds": [
        "41506478881403507969696680653240014914910929820314476107906210059990541021187"
      ]
    },
    {
      "x": 393,
      "y": 296,
      "size": 1,
      "price": "4683000000000000000000",
      "reserved": "",
      "salt": "0x617d0f6ec93e083cad916dae2f5d21f95f1bead4250deae42a6a2d3d6e958ef5",
      "assetIds": [
        "41506478881403507969696680653240014914910929820314476107906210059990541021188"
      ]
    },
    {
      "x": 393,
      "y": 300,
      "size": 1,
      "price": "4683000000000000000000",
      "reserved": "",
      "salt": "0x9970bfce671f0f01675f95ca8fea62ec8aed5aa2a21f65b1f512462f65edbde8",
      "assetIds": [
        "41506478881403507969696680653240014914910929820314476107906210059990541021189"
      ]
    },
    {
      "x": 393,
      "y": 301,
      "size": 1,
      "price": "4683000000000000000000",
      "reserved": "",
      "salt": "0x4ef633cce6a17d7cc010ce3e75f1b916686c0c91049e477020a0f708f34a9308",
      "assetIds": [
        "41506478881403507969696680653240014914910929820314476107906210059990541021189"
      ]
    },
    {
      "x": 393,
      "y": 302,
      "size": 1,
      "price": "4683000000000000000000",
      "reserved": "",
      "salt": "0x1d9fed9b143451546e2ee4fe33a1f4532ace613a495c01c34018c2f2ede1122a",
      "assetIds": [
        "41506478881403507969696680653240014914910929820314476107906210059990541021189"
      ]
    },
    {
      "x": 393,
      "y": 303,
      "size": 1,
      "price": "4683000000000000000000",
      "reserved": "",
      "salt": "0x62308370e865c36b0bfa2c1e38c58b85f01e2253e327849e0f8b398b8e0508b1",
      "assetIds": [
        "41506478881403507969696680653240014914910929820314476107906210059990532622336"
      ]
    },
    {
      "x": 393,
      "y": 304,
      "size": 1,
      "price": "4683000000000000000000",
      "reserved": "",
      "salt": "0x2c8a3f7525130f15d0a7ee67e957ad8f31be939aa83187acf6ca750e27202794",
      "assetIds": [
        "41506478881403507969696680653240014914910929820314476107906210059990541021186"
      ]
    },
    {
      "x": 393,
      "y": 305,
      "size": 1,
      "price": "4683000000000000000000",
      "reserved": "",
      "salt": "0xf35969c0c0212820cf1cae953bd4eec69ee9a58a8675b75ddb1b97fb97b26488",
      "assetIds": [
        "41506478881403507969696680653240014914910929820314476107906210059990541021185"
      ]
    },
    {
      "x": 393,
      "y": 306,
      "size": 1,
      "price": "4683000000000000000000",
      "reserved": "",
      "salt": "0x3cea0184d59d8dbe039ff7fd90bdcb273b90053b1cc38d58c6cd69c14e08c9e7",
      "assetIds": [
        "41506478881403507969696680653240014914910929820314476107906210059990532622336"
      ]
    },
    {
      "x": 393,
      "y": 307,
      "size": 1,
      "price": "4683000000000000000000",
      "reserved": "",
      "salt": "0x176a262a7ee2f3bd4f22d0c615e00b680d6a6d221fbe8b8c7b7f9a57eebb94ca",
      "assetIds": [
        "41506478881403507969696680653240014914910929820314476107906210059990541021184"
      ]
    },
    {
      "x": 393,
      "y": 308,
      "size": 1,
      "price": "4683000000000000000000",
      "reserved": "",
      "salt": "0xfac3936686eafd871bb5e90fb7c4e0eda5ac6e420f994e2daf191f7a0d43a4f9",
      "assetIds": [
        "41506478881403507969696680653240014914910929820314476107906210059990541021187"
      ]
    },
    {
      "x": 393,
      "y": 309,
      "size": 1,
      "price": "4683000000000000000000",
      "reserved": "",
      "salt": "0xd199e87deefa7e0645991350909117c17b65cc2e8fc2736aada13e76aa2e13d2",
      "assetIds": [
        "41506478881403507969696680653240014914910929820314476107906210059990541021187"
      ]
    },
    {
      "x": 393,
      "y": 310,
      "size": 1,
      "price": "4683000000000000000000",
      "reserved": "",
      "salt": "0x2bc227c850064a943fa55aed337a1a8c39780f9525918b2a13e1c5ad819721d2",
      "assetIds": [
        "41506478881403507969696680653240014914910929820314476107906210059990541021188"
      ]
    },
    {
      "x": 393,
      "y": 311,
      "size": 1,
      "price": "4683000000000000000000",
      "reserved": "",
      "salt": "0x19af5cda66d7d8abe627d6dbf3ec455aa5793c8f23ae273a7ba3d5c7304c9ab3",
      "assetIds": [
        "41506478881403507969696680653240014914910929820314476107906210059990541021188"
      ]
    },
    {
      "x": 394,
      "y": 222,
      "size": 1,
      "price": "4683000000000000000000",
      "reserved": "",
      "salt": "0x3aea30124870b307e30f2469ce3e4b6f688ba660acf716598d8e3cff9007ada6",
      "assetIds": [
        "41506478881403507969696680653240014914910929820314476107906210059990541021189"
      ]
    },
    {
      "x": 394,
      "y": 223,
      "size": 1,
      "price": "4683000000000000000000",
      "reserved": "",
      "salt": "0x1f31850bff6ec2db6ee1bbd9bd50986846c1ff2a72539823233fe49377401db7",
      "assetIds": [
        "41506478881403507969696680653240014914910929820314476107906210059990541021186"
      ]
    },
    {
      "x": 394,
      "y": 224,
      "size": 1,
      "price": "4683000000000000000000",
      "reserved": "",
      "salt": "0x22ad4aa5e5ed0bf9017d74c0a7fea1d04c76899602aa6cbdfffd770e173a8287",
      "assetIds": [
        "41506478881403507969696680653240014914910929820314476107906210059990541021187"
      ]
    },
    {
      "x": 394,
      "y": 225,
      "size": 1,
      "price": "4683000000000000000000",
      "reserved": "",
      "salt": "0x70abe8313c2f1557f657d491c6370817f7b0748dfe4903666539639cd4b1fa14",
      "assetIds": [
        "41506478881403507969696680653240014914910929820314476107906210059990532622336"
      ]
    },
    {
      "x": 394,
      "y": 226,
      "size": 1,
      "price": "4683000000000000000000",
      "reserved": "",
      "salt": "0x03fc6541f5ea4d919470048cc5df198607b1275af91bc08603baa4289599d563",
      "assetIds": [
        "41506478881403507969696680653240014914910929820314476107906210059990541021188"
      ]
    },
    {
      "x": 394,
      "y": 227,
      "size": 1,
      "price": "4683000000000000000000",
      "reserved": "",
      "salt": "0x765812433689d9b02e6176482ce16f550d9746e47d02bf5246be1d25b8f5059f",
      "assetIds": [
        "41506478881403507969696680653240014914910929820314476107906210059990541021188"
      ]
    },
    {
      "x": 394,
      "y": 234,
      "size": 1,
      "price": "4683000000000000000000",
      "reserved": "",
      "salt": "0xb8e7072b8b5c0056a9eefdfbe634cdf87e5cb322ffdae2e876642ce009060f02",
      "assetIds": [
        "41506478881403507969696680653240014914910929820314476107906210059990541021187"
      ]
    },
    {
      "x": 394,
      "y": 235,
      "size": 1,
      "price": "4683000000000000000000",
      "reserved": "",
      "salt": "0x0da18cb721e10a9facb6f9658735b6d76a416ebed855d4493cb161ff18c55c06",
      "assetIds": [
        "41506478881403507969696680653240014914910929820314476107906210059990541021185"
      ]
    },
    {
      "x": 394,
      "y": 236,
      "size": 1,
      "price": "4683000000000000000000",
      "reserved": "",
      "salt": "0xd38b721a569dc84b5eb6419f7ab532ce6b1e3a11ee72ea3d871b9f111f52458b",
      "assetIds": [
        "41506478881403507969696680653240014914910929820314476107906210059990541021185"
      ]
    },
    {
      "x": 394,
      "y": 237,
      "size": 1,
      "price": "4683000000000000000000",
      "reserved": "",
      "salt": "0xdc103fc979e55379e21f3a9eb3b03d872ee8bf76324f8a806a495e8edd80ef3a",
      "assetIds": [
        "41506478881403507969696680653240014914910929820314476107906210059990541021189"
      ]
    },
    {
      "x": 394,
      "y": 238,
      "size": 1,
      "price": "4683000000000000000000",
      "reserved": "",
      "salt": "0x3c441ca1d7c9d5faf1a1033211fe7a39f79dff7fe182fb2d1ae6e7a9d08cf90d",
      "assetIds": [
        "41506478881403507969696680653240014914910929820314476107906210059990541021189"
      ]
    },
    {
      "x": 394,
      "y": 239,
      "size": 1,
      "price": "4683000000000000000000",
      "reserved": "",
      "salt": "0xa383f8f36b61472c25d7ef875688ae6323872f0b0dc3eec6143760dc318e3920",
      "assetIds": [
        "41506478881403507969696680653240014914910929820314476107906210059990532622336"
      ]
    },
    {
      "x": 394,
      "y": 252,
      "size": 1,
      "price": "4683000000000000000000",
      "reserved": "",
      "salt": "0xe9e77c6c79e45116955fa772d09fd209ee4e795e9b55d4271fcfe5aa2a0e99ba",
      "assetIds": [
        "41506478881403507969696680653240014914910929820314476107906210059990541021188"
      ]
    },
    {
      "x": 394,
      "y": 253,
      "size": 1,
      "price": "4683000000000000000000",
      "reserved": "",
      "salt": "0x0da6ecea3e4b3f60e6afc95bd9def3370b849b911312815157b55571ceedbc11",
      "assetIds": [
        "41506478881403507969696680653240014914910929820314476107906210059990532622336"
      ]
    },
    {
      "x": 394,
      "y": 254,
      "size": 1,
      "price": "4683000000000000000000",
      "reserved": "",
      "salt": "0x1886f1fcfacf6c3dec26c70bdf6dde08f9a4e0d6ac6382dcb599324e860e2f65",
      "assetIds": [
        "41506478881403507969696680653240014914910929820314476107906210059990541021184"
      ]
    },
    {
      "x": 394,
      "y": 255,
      "size": 1,
      "price": "4683000000000000000000",
      "reserved": "",
      "salt": "0xf88a7434e04b8990d29d8f964060c41f59c8e22cd48ac4f5224abc537a63e074",
      "assetIds": [
        "41506478881403507969696680653240014914910929820314476107906210059990541021184"
      ]
    },
    {
      "x": 394,
      "y": 256,
      "size": 1,
      "price": "4683000000000000000000",
      "reserved": "",
      "salt": "0x2eb7a2cf04f34e5dbc69bba185a333e1cc3239d990ba344b3bde92f748090750",
      "assetIds": [
        "41506478881403507969696680653240014914910929820314476107906210059990541021186"
      ]
    },
    {
      "x": 394,
      "y": 257,
      "size": 1,
      "price": "4683000000000000000000",
      "reserved": "",
      "salt": "0x39b5376cfa4f1760c24adb8b815c516185d89a9489d960cbf833dffc0d9c15be",
      "assetIds": [
        "41506478881403507969696680653240014914910929820314476107906210059990541021184"
      ]
    },
    {
      "x": 394,
      "y": 258,
      "size": 1,
      "price": "4683000000000000000000",
      "reserved": "",
      "salt": "0x5141d7056a4984c0d8c7101a3c8c0dab75b6df2a785561f460b39375d5dd451d",
      "assetIds": [
        "41506478881403507969696680653240014914910929820314476107906210059990541021187"
      ]
    },
    {
      "x": 394,
      "y": 259,
      "size": 1,
      "price": "4683000000000000000000",
      "reserved": "",
      "salt": "0x815eaf23fcf5dc4093d5cdb35cf7b75b09c28b35cf865860c62004561213df92",
      "assetIds": [
        "41506478881403507969696680653240014914910929820314476107906210059990541021187"
      ]
    },
    {
      "x": 394,
      "y": 260,
      "size": 1,
      "price": "4683000000000000000000",
      "reserved": "",
      "salt": "0x4a04c1d940a5b410f35cd30ddd569bc4be1869a39df56e23ddcd1092d634e164",
      "assetIds": [
        "41506478881403507969696680653240014914910929820314476107906210059990541021184"
      ]
    },
    {
      "x": 394,
      "y": 288,
      "size": 1,
      "price": "4683000000000000000000",
      "reserved": "",
      "salt": "0x51cbac7caf1cd6975a8ef20f283ec1ac1f3f064345c42018515217a22a92b965",
      "assetIds": [
        "41506478881403507969696680653240014914910929820314476107906210059990541021189"
      ]
    },
    {
      "x": 394,
      "y": 289,
      "size": 1,
      "price": "1011000000000000000000",
      "reserved": "0x7a9fe22691c811ea339d9b73150e6911a5343dca",
      "salt": "0x28c06cc6fbc74cfa04769288e132cf79f94abe5d24d6792a1f04ca9f1fc4475b",
      "assetIds": []
    },
    {
      "x": 394,
      "y": 290,
      "size": 1,
      "price": "4683000000000000000000",
      "reserved": "",
      "salt": "0xc4f60a38c6abc05a4f1ecc91d1590e14445fffff81a2ec1dd33804cc6af7ca24",
      "assetIds": [
        "41506478881403507969696680653240014914910929820314476107906210059990541021189"
      ]
    },
    {
      "x": 394,
      "y": 291,
      "size": 1,
      "price": "4683000000000000000000",
      "reserved": "",
      "salt": "0xd2b136ab008e465d5e7b5fb7ef30705c6dbe1156c2567e872b47e4e6a0863008",
      "assetIds": [
        "41506478881403507969696680653240014914910929820314476107906210059990541021185"
      ]
    },
    {
      "x": 394,
      "y": 292,
      "size": 1,
      "price": "4683000000000000000000",
      "reserved": "",
      "salt": "0x8f9659929b5749911be4a6c867bc6d5cfe5506d58792d6350170fd63fb3bafb7",
      "assetIds": [
        "41506478881403507969696680653240014914910929820314476107906210059990532622336"
      ]
    },
    {
      "x": 394,
      "y": 293,
      "size": 1,
      "price": "4683000000000000000000",
      "reserved": "",
      "salt": "0x2429a177bca865557e921208490f029c6e3065c1d36a9a93b211130ad717b3ea",
      "assetIds": [
        "41506478881403507969696680653240014914910929820314476107906210059990541021186"
      ]
    },
    {
      "x": 394,
      "y": 294,
      "size": 1,
      "price": "4683000000000000000000",
      "reserved": "",
      "salt": "0xb4cca3563ee6b594957fd6a95b43c1f498ec20f0a56d47fedb5adff35a17629b",
      "assetIds": [
        "41506478881403507969696680653240014914910929820314476107906210059990541021186"
      ]
    },
    {
      "x": 394,
      "y": 295,
      "size": 1,
      "price": "4683000000000000000000",
      "reserved": "",
      "salt": "0xcec8278973e39ccfdd44af76ca48aad0c523a1e9ba22e07e95cf00696e7ca5fd",
      "assetIds": [
        "41506478881403507969696680653240014914910929820314476107906210059990541021187"
      ]
    },
    {
      "x": 394,
      "y": 296,
      "size": 1,
      "price": "4683000000000000000000",
      "reserved": "",
      "salt": "0xca870af2a6f90dc977bddc588d77414414e79505c9117bc271cebc70c47efd3b",
      "assetIds": [
        "41506478881403507969696680653240014914910929820314476107906210059990541021186"
      ]
    },
    {
      "x": 394,
      "y": 300,
      "size": 1,
      "price": "4683000000000000000000",
      "reserved": "",
      "salt": "0x21db207c1bea54bc2369babe0e6613dce9fad731f586a4241db718a8a726bbf4",
      "assetIds": [
        "41506478881403507969696680653240014914910929820314476107906210059990541021189"
      ]
    },
    {
      "x": 394,
      "y": 301,
      "size": 1,
      "price": "4683000000000000000000",
      "reserved": "",
      "salt": "0x52b8b72327351f55a742e2641bc13aeec6f1da10243fa6764d811ab2c7fef068",
      "assetIds": [
        "41506478881403507969696680653240014914910929820314476107906210059990541021186"
      ]
    },
    {
      "x": 394,
      "y": 302,
      "size": 1,
      "price": "4683000000000000000000",
      "reserved": "",
      "salt": "0xb81a554cbbdf0427aa30eba50df0de6fcbe77ad56b95e20a9da42c1cd6eb0226",
      "assetIds": [
        "41506478881403507969696680653240014914910929820314476107906210059990541021185"
      ]
    },
    {
      "x": 394,
      "y": 303,
      "size": 1,
      "price": "4683000000000000000000",
      "reserved": "",
      "salt": "0x037811531ab80403324c3b5cd75080de1899d8143d452422d63c732b5e3e2b4b",
      "assetIds": [
        "41506478881403507969696680653240014914910929820314476107906210059990541021184"
      ]
    },
    {
      "x": 394,
      "y": 304,
      "size": 1,
      "price": "4683000000000000000000",
      "reserved": "",
      "salt": "0xf1725a83e9df3e15ce10fbec461cdfe62092b5bebce001665b10c6b28bfee206",
      "assetIds": [
        "41506478881403507969696680653240014914910929820314476107906210059990541021186"
      ]
    },
    {
      "x": 394,
      "y": 305,
      "size": 1,
      "price": "4683000000000000000000",
      "reserved": "",
      "salt": "0x258bd161ef9d5c0bfb432267601ec61c68849fd2fae0875353a17b3ba27af9f6",
      "assetIds": [
        "41506478881403507969696680653240014914910929820314476107906210059990541021185"
      ]
    },
    {
      "x": 394,
      "y": 306,
      "size": 1,
      "price": "4683000000000000000000",
      "reserved": "",
      "salt": "0x8c3e67e5608ee917e9d29fde95d17d45abd829ac70b4879b3b37a88bc9dcbbb7",
      "assetIds": [
        "41506478881403507969696680653240014914910929820314476107906210059990532622336"
      ]
    },
    {
      "x": 394,
      "y": 307,
      "size": 1,
      "price": "1011000000000000000000",
      "reserved": "0x7a9fe22691c811ea339d9b73150e6911a5343dca",
      "salt": "0x5e549dd3d2fca318c0d4b8d4db130e07153b0f0e4511aa7d243ca0dc2d3aa651",
      "assetIds": []
    },
    {
      "x": 394,
      "y": 308,
      "size": 1,
      "price": "4683000000000000000000",
      "reserved": "",
      "salt": "0xba4735a08c3e6c80c929152b4e76a2d75d8b09a16c6e8831b89d996ab6406475",
      "assetIds": [
        "41506478881403507969696680653240014914910929820314476107906210059990541021188"
      ]
    },
    {
      "x": 394,
      "y": 309,
      "size": 1,
      "price": "4683000000000000000000",
      "reserved": "",
      "salt": "0xaac60a077c1681a2128727f38bad27807102a31635f604273f4ad248f5d2d7e7",
      "assetIds": [
        "41506478881403507969696680653240014914910929820314476107906210059990541021188"
      ]
    },
    {
      "x": 394,
      "y": 310,
      "size": 1,
      "price": "4683000000000000000000",
      "reserved": "",
      "salt": "0xe66e492c690e3714eb962ebfd41b897bb8e9ab54ea49e877b40145d46cd0eac9",
      "assetIds": [
        "41506478881403507969696680653240014914910929820314476107906210059990541021188"
      ]
    },
    {
      "x": 394,
      "y": 311,
      "size": 1,
      "price": "4683000000000000000000",
      "reserved": "",
      "salt": "0x46a0cd3ed125c820ffc42c0362487de8c24fcbf91ac394edfe814e95b177f0fc",
      "assetIds": [
        "41506478881403507969696680653240014914910929820314476107906210059990541021187"
      ]
    },
    {
      "x": 395,
      "y": 222,
      "size": 1,
      "price": "4683000000000000000000",
      "reserved": "",
      "salt": "0x7e8248d6472a03093b845c8ea0e643806dcef3c1b41919b7e84ca2abb68b0ecc",
      "assetIds": [
        "41506478881403507969696680653240014914910929820314476107906210059990541021186"
      ]
    },
    {
      "x": 395,
      "y": 223,
      "size": 1,
      "price": "1011000000000000000000",
      "reserved": "0x7a9fe22691c811ea339d9b73150e6911a5343dca",
      "salt": "0x3544b213f5685f9ac1fe2e77438d4179d54a1421031b443e9abb68951ffbd830",
      "assetIds": []
    },
    {
      "x": 395,
      "y": 224,
      "size": 1,
      "price": "4683000000000000000000",
      "reserved": "",
      "salt": "0x550be3b694f600e2be9264e7194ef25169652588b60e41540190f06bacd0f31d",
      "assetIds": [
        "41506478881403507969696680653240014914910929820314476107906210059990532622336"
      ]
    },
    {
      "x": 395,
      "y": 225,
      "size": 1,
      "price": "4683000000000000000000",
      "reserved": "",
      "salt": "0x86e5029baa7b612119acde69c152549623684d83e4cca2e62d2b7aa5dcdb5694",
      "assetIds": [
        "41506478881403507969696680653240014914910929820314476107906210059990541021187"
      ]
    },
    {
      "x": 395,
      "y": 226,
      "size": 1,
      "price": "4683000000000000000000",
      "reserved": "",
      "salt": "0x488b665e5ae02499a75b335755778092354b19fcc322e4f8a649e90ef1fa26e6",
      "assetIds": [
        "41506478881403507969696680653240014914910929820314476107906210059990541021189"
      ]
    },
    {
      "x": 395,
      "y": 227,
      "size": 1,
      "price": "4683000000000000000000",
      "reserved": "",
      "salt": "0xfb1ef6c020885f2a36e629b7a3072bd718d7d96309d868276e413f9d5076d60a",
      "assetIds": [
        "41506478881403507969696680653240014914910929820314476107906210059990532622336"
      ]
    },
    {
      "x": 395,
      "y": 234,
      "size": 1,
      "price": "4683000000000000000000",
      "reserved": "",
      "salt": "0xa96dc6d839414c607b620c909724b2cfc5910ec4a2c5be714967bf4885b506b5",
      "assetIds": [
        "41506478881403507969696680653240014914910929820314476107906210059990541021187"
      ]
    },
    {
      "x": 395,
      "y": 235,
      "size": 1,
      "price": "4683000000000000000000",
      "reserved": "",
      "salt": "0x591d8c71c390b8edfd1067fc008a774bf71e01f5552dfc85e888274bef3be8a4",
      "assetIds": [
        "41506478881403507969696680653240014914910929820314476107906210059990541021188"
      ]
    },
    {
      "x": 395,
      "y": 236,
      "size": 1,
      "price": "4683000000000000000000",
      "reserved": "",
      "salt": "0x2df094d751ba1569772a59dc971d52447adec89d745f02a84d30b051b85b0ad1",
      "assetIds": [
        "41506478881403507969696680653240014914910929820314476107906210059990541021186"
      ]
    },
    {
      "x": 395,
      "y": 237,
      "size": 1,
      "price": "4683000000000000000000",
      "reserved": "",
      "salt": "0x642dfd014261d8b50aedf3a2f0a894bdf24c83722c49a3304b82039ed0a312cd",
      "assetIds": [
        "41506478881403507969696680653240014914910929820314476107906210059990532622336"
      ]
    },
    {
      "x": 395,
      "y": 238,
      "size": 1,
      "price": "4683000000000000000000",
      "reserved": "",
      "salt": "0x462f42ad3a4a20fa52f21b68891337b8f8eaa852e0b5315284975f091d844fc8",
      "assetIds": [
        "41506478881403507969696680653240014914910929820314476107906210059990541021187"
      ]
    },
    {
      "x": 395,
      "y": 239,
      "size": 1,
      "price": "4683000000000000000000",
      "reserved": "",
      "salt": "0x5b195302a5007c6fcba2b33ab3e61e7c402e560d186a272928f72b83ce50b351",
      "assetIds": [
        "41506478881403507969696680653240014914910929820314476107906210059990541021187"
      ]
    },
    {
      "x": 395,
      "y": 252,
      "size": 1,
      "price": "4683000000000000000000",
      "reserved": "",
      "salt": "0x22c5d5da99de6a2a3c88f4d62b9b6d2ff5032e3ed89a787c5ea1ab0b5a675071",
      "assetIds": [
        "41506478881403507969696680653240014914910929820314476107906210059990541021186"
      ]
    },
    {
      "x": 395,
      "y": 253,
      "size": 1,
      "price": "4683000000000000000000",
      "reserved": "",
      "salt": "0xdbf1e8ebfa6b55642ab49c8631b9f4a3d68f9705b56e400d32d4ed20870a9d60",
      "assetIds": [
        "41506478881403507969696680653240014914910929820314476107906210059990541021186"
      ]
    },
    {
      "x": 395,
      "y": 254,
      "size": 1,
      "price": "4683000000000000000000",
      "reserved": "",
      "salt": "0x157e3b24645129ca7326e91419b12d811466d261ed9ca12921b03616d25d0dc7",
      "assetIds": [
        "41506478881403507969696680653240014914910929820314476107906210059990541021185"
      ]
    },
    {
      "x": 395,
      "y": 255,
      "size": 1,
      "price": "4683000000000000000000",
      "reserved": "",
      "salt": "0x1926ab0b9e3a5e7338e642b0dccfe1dd3b4b285404cd7cda0ed232f34301154c",
      "assetIds": [
        "41506478881403507969696680653240014914910929820314476107906210059990541021188"
      ]
    },
    {
      "x": 395,
      "y": 256,
      "size": 1,
      "price": "4683000000000000000000",
      "reserved": "",
      "salt": "0xb66d55ff6c4bebac433d33d9e8886f70668fecd52639c4afcad7d808519f8bed",
      "assetIds": [
        "41506478881403507969696680653240014914910929820314476107906210059990541021186"
      ]
    },
    {
      "x": 395,
      "y": 257,
      "size": 1,
      "price": "4683000000000000000000",
      "reserved": "",
      "salt": "0x959219f0bde91b7d97d2a6c20ef634973916981b2aeb1c097a85e745757431c5",
      "assetIds": [
        "41506478881403507969696680653240014914910929820314476107906210059990541021184"
      ]
    },
    {
      "x": 395,
      "y": 258,
      "size": 1,
      "price": "4683000000000000000000",
      "reserved": "",
      "salt": "0x5fd922bb02d7ea2813d6f31fa26e73ce75350e7110b56c56af6c89dd0f3e8353",
      "assetIds": [
        "41506478881403507969696680653240014914910929820314476107906210059990541021187"
      ]
    },
    {
      "x": 395,
      "y": 259,
      "size": 1,
      "price": "4683000000000000000000",
      "reserved": "",
      "salt": "0x3d5691ce79a997c6c0d8fb216861dd05a684a2a9e70f95a3a66fddfdb47b639a",
      "assetIds": [
        "41506478881403507969696680653240014914910929820314476107906210059990541021187"
      ]
    },
    {
      "x": 395,
      "y": 260,
      "size": 1,
      "price": "4683000000000000000000",
      "reserved": "",
      "salt": "0x4cefc936eeb8d56040e2a708f8e11c950cd7b6a0cd2e98addffedbf7ca2a89e9",
      "assetIds": [
        "41506478881403507969696680653240014914910929820314476107906210059990541021189"
      ]
    },
    {
      "x": 395,
      "y": 288,
      "size": 1,
      "price": "4683000000000000000000",
      "reserved": "",
      "salt": "0xa1cad04ae87a099f4f083092806ecd3a025644f7965d6bb4421cd8cc5568f9bc",
      "assetIds": [
        "41506478881403507969696680653240014914910929820314476107906210059990532622336"
      ]
    },
    {
      "x": 395,
      "y": 289,
      "size": 1,
      "price": "4683000000000000000000",
      "reserved": "",
      "salt": "0x37c171f90c168909fa13f9a6b22d988cb314e36c8cba67010bdd29a8ef609792",
      "assetIds": [
        "41506478881403507969696680653240014914910929820314476107906210059990541021188"
      ]
    },
    {
      "x": 395,
      "y": 290,
      "size": 1,
      "price": "4683000000000000000000",
      "reserved": "",
      "salt": "0xc9f42a4aba5e793c88507c6bc573460255555fd5ecbfd67f14a74c09d8d31ebb",
      "assetIds": [
        "41506478881403507969696680653240014914910929820314476107906210059990541021184"
      ]
    },
    {
      "x": 395,
      "y": 291,
      "size": 1,
      "price": "4683000000000000000000",
      "reserved": "",
      "salt": "0xd81a21db26a5e7cafe69e5b95d63c6dee1389d0f999aa5d7e2e1e7e3a1b7615c",
      "assetIds": [
        "41506478881403507969696680653240014914910929820314476107906210059990541021185"
      ]
    },
    {
      "x": 395,
      "y": 292,
      "size": 1,
      "price": "4683000000000000000000",
      "reserved": "",
      "salt": "0x8bf0d9a61280620bc39e2bed06e4085b2f84c8a3ea22bd731cf1de09b52b2fe2",
      "assetIds": [
        "41506478881403507969696680653240014914910929820314476107906210059990541021186"
      ]
    },
    {
      "x": 395,
      "y": 293,
      "size": 1,
      "price": "4683000000000000000000",
      "reserved": "",
      "salt": "0x382786efa0dbf811cbcd5355efc8726b03906ee68c45ab94e767c9a5be6f58d2",
      "assetIds": [
        "41506478881403507969696680653240014914910929820314476107906210059990541021184"
      ]
    },
    {
      "x": 395,
      "y": 294,
      "size": 1,
      "price": "4683000000000000000000",
      "reserved": "",
      "salt": "0xdb39163d0b070435c44eb6e453695206e4d10bed3d2b4ba4ab43b09df03f96ae",
      "assetIds": [
        "41506478881403507969696680653240014914910929820314476107906210059990541021189"
      ]
    },
    {
      "x": 395,
      "y": 295,
      "size": 1,
      "price": "4683000000000000000000",
      "reserved": "",
      "salt": "0x7c3070897a30727a262ce22b716774409f4756967921ed9a9126e04db4464cfc",
      "assetIds": [
        "41506478881403507969696680653240014914910929820314476107906210059990541021184"
      ]
    },
    {
      "x": 395,
      "y": 296,
      "size": 1,
      "price": "4683000000000000000000",
      "reserved": "",
      "salt": "0x873547bdfda8611e1ca89b830cfde66188e9070103b0f8c6854b2b2ba6453bec",
      "assetIds": [
        "41506478881403507969696680653240014914910929820314476107906210059990541021188"
      ]
    },
    {
      "x": 395,
      "y": 300,
      "size": 1,
      "price": "4683000000000000000000",
      "reserved": "",
      "salt": "0x82bf477af512221ed1e1594b955544d47391da7bbff5343e2422cc49a615757e",
      "assetIds": [
        "41506478881403507969696680653240014914910929820314476107906210059990541021185"
      ]
    },
    {
      "x": 395,
      "y": 301,
      "size": 1,
      "price": "4683000000000000000000",
      "reserved": "",
      "salt": "0xa1df0ada53d0d4d4f9b68ce8e24c2fc77463980fe9555909cc985b249ca32b05",
      "assetIds": [
        "41506478881403507969696680653240014914910929820314476107906210059990541021186"
      ]
    },
    {
      "x": 395,
      "y": 302,
      "size": 1,
      "price": "4683000000000000000000",
      "reserved": "",
      "salt": "0x95ebdf3aeb8b6dee3424a42aa58bfcbe39cd400827553709f93534242e0ebe2a",
      "assetIds": [
        "41506478881403507969696680653240014914910929820314476107906210059990541021184"
      ]
    },
    {
      "x": 395,
      "y": 303,
      "size": 1,
      "price": "4683000000000000000000",
      "reserved": "",
      "salt": "0x3fe2a913f910f45b0fe609ffe8e0aac90a56b721ba27b4d091b027242a5d425d",
      "assetIds": [
        "41506478881403507969696680653240014914910929820314476107906210059990541021188"
      ]
    },
    {
      "x": 395,
      "y": 304,
      "size": 1,
      "price": "4683000000000000000000",
      "reserved": "",
      "salt": "0x33ab75d88e489046c8005337a3a2d3ba3df73519829268d6eefc39e6c3767fc7",
      "assetIds": [
        "41506478881403507969696680653240014914910929820314476107906210059990541021186"
      ]
    },
    {
      "x": 395,
      "y": 305,
      "size": 1,
      "price": "4683000000000000000000",
      "reserved": "",
      "salt": "0xc24db0ca86a34811f95ad954ad99ed74acaa2e9e9d4622da0ac20691cf2287ef",
      "assetIds": [
        "41506478881403507969696680653240014914910929820314476107906210059990541021189"
      ]
    },
    {
      "x": 395,
      "y": 306,
      "size": 1,
      "price": "4683000000000000000000",
      "reserved": "",
      "salt": "0xec95d714babdb1d5b611e02264f78e1fa7eafff9fe1dba4e4362b91bdfcd6fa1",
      "assetIds": [
        "41506478881403507969696680653240014914910929820314476107906210059990541021186"
      ]
    },
    {
      "x": 395,
      "y": 307,
      "size": 1,
      "price": "4683000000000000000000",
      "reserved": "",
      "salt": "0xd812d092d881dde59e3054813093ab6656af7ed492ce6682c462b26f3aad1f6a",
      "assetIds": [
        "41506478881403507969696680653240014914910929820314476107906210059990541021187"
      ]
    },
    {
      "x": 395,
      "y": 308,
      "size": 1,
      "price": "4683000000000000000000",
      "reserved": "",
      "salt": "0xf21f3d99674df828f15931cb99d260f8f90612fb8a51781cfd4e93630c1b5df7",
      "assetIds": [
        "41506478881403507969696680653240014914910929820314476107906210059990541021187"
      ]
    },
    {
      "x": 395,
      "y": 309,
      "size": 1,
      "price": "4683000000000000000000",
      "reserved": "",
      "salt": "0x0fd2d9f5c8f1c0c5039265cdf6175ea575aaa5483771a85952af80a362bc0a1a",
      "assetIds": [
        "41506478881403507969696680653240014914910929820314476107906210059990541021186"
      ]
    },
    {
      "x": 395,
      "y": 310,
      "size": 1,
      "price": "4683000000000000000000",
      "reserved": "",
      "salt": "0x52060b1078b1e571b6b7edaa16e294e45bc9c50a0370c5b709b97a238c00e2e8",
      "assetIds": [
        "41506478881403507969696680653240014914910929820314476107906210059990541021189"
      ]
    },
    {
      "x": 395,
      "y": 311,
      "size": 1,
      "price": "4683000000000000000000",
      "reserved": "",
      "salt": "0xded3fc4482e2007173012519af5fc7a3b044799a031eba928d3ed5aee37acd1a",
      "assetIds": [
        "41506478881403507969696680653240014914910929820314476107906210059990541021187"
      ]
    },
    {
      "x": 396,
      "y": 228,
      "size": 1,
      "price": "4683000000000000000000",
      "reserved": "",
      "salt": "0x552e409e7aaefa38c97404005b1816d2f56b7fb4b4c119bf1c6911af84d5309c",
      "assetIds": [
        "41506478881403507969696680653240014914910929820314476107906210059990541021189"
      ]
    },
    {
      "x": 396,
      "y": 229,
      "size": 1,
      "price": "4683000000000000000000",
      "reserved": "",
      "salt": "0xaa6084c34908b47db61f0ae379a2e96e174a3d444eb5a0e9891b3550d9ef1dc7",
      "assetIds": [
        "41506478881403507969696680653240014914910929820314476107906210059990541021189"
      ]
    },
    {
      "x": 396,
      "y": 230,
      "size": 1,
      "price": "4683000000000000000000",
      "reserved": "",
      "salt": "0x6f0d2e324acbb0e7993621a77aa3a754c6f2c99ca7be3f763bad39b8b8b06532",
      "assetIds": [
        "41506478881403507969696680653240014914910929820314476107906210059990532622336"
      ]
    },
    {
      "x": 396,
      "y": 231,
      "size": 1,
      "price": "4683000000000000000000",
      "reserved": "",
      "salt": "0xb68592c2e94da744c9dd02c69c9e7bb9032ea704f8363e973023e48bbec1c882",
      "assetIds": [
        "41506478881403507969696680653240014914910929820314476107906210059990541021189"
      ]
    },
    {
      "x": 396,
      "y": 232,
      "size": 1,
      "price": "4683000000000000000000",
      "reserved": "",
      "salt": "0x86ef12a5cdb9fa48ac475e1393c058eeb3c02747a1bbf02922c81da2f62e78cb",
      "assetIds": [
        "41506478881403507969696680653240014914910929820314476107906210059990532622336"
      ]
    },
    {
      "x": 396,
      "y": 233,
      "size": 1,
      "price": "4683000000000000000000",
      "reserved": "",
      "salt": "0x4eec13c8f81b62916abffe146fb2c56a486e0310eae53717587fb4778df76ca2",
      "assetIds": [
        "41506478881403507969696680653240014914910929820314476107906210059990541021187"
      ]
    },
    {
      "x": 396,
      "y": 234,
      "size": 1,
      "price": "4683000000000000000000",
      "reserved": "",
      "salt": "0x3d1dbdffda0a8a9f8810c1b02d72c5b7e1c86c2ebcad85ccd602d4ff0080dcfb",
      "assetIds": [
        "41506478881403507969696680653240014914910929820314476107906210059990541021189"
      ]
    },
    {
      "x": 396,
      "y": 235,
      "size": 1,
      "price": "4683000000000000000000",
      "reserved": "",
      "salt": "0xa29ee3af92ffe4dc3d8730fa8fed7161f9f7516b76739d502ced7a03d2c1552c",
      "assetIds": [
        "41506478881403507969696680653240014914910929820314476107906210059990541021189"
      ]
    },
    {
      "x": 396,
      "y": 236,
      "size": 1,
      "price": "4683000000000000000000",
      "reserved": "",
      "salt": "0x1f8bf77f4b451bc2f40fca0ac9461bacd3825f134e570b102fa90f3257b409cf",
      "assetIds": [
        "41506478881403507969696680653240014914910929820314476107906210059990541021185"
      ]
    },
    {
      "x": 396,
      "y": 237,
      "size": 1,
      "price": "4683000000000000000000",
      "reserved": "",
      "salt": "0x7a2f62a005285d7c02a87c4a0878dbe06f18fc3bdc8cc95ebdb148da52e48c88",
      "assetIds": [
        "41506478881403507969696680653240014914910929820314476107906210059990541021189"
      ]
    },
    {
      "x": 396,
      "y": 238,
      "size": 1,
      "price": "4683000000000000000000",
      "reserved": "",
      "salt": "0x7a7236df9ab9a73fb43f4841fc9a52e01bb09a4169491a62ba14395f43f85673",
      "assetIds": [
        "41506478881403507969696680653240014914910929820314476107906210059990541021189"
      ]
    },
    {
      "x": 396,
      "y": 239,
      "size": 1,
      "price": "4683000000000000000000",
      "reserved": "",
      "salt": "0x6959e9cfb99024c37a26282368334b7d365b190aded75792e9c1d886087210c8",
      "assetIds": [
        "41506478881403507969696680653240014914910929820314476107906210059990541021187"
      ]
    },
    {
      "x": 396,
      "y": 240,
      "size": 1,
      "price": "4683000000000000000000",
      "reserved": "",
      "salt": "0x474fb601f6eb64bd76beea5d6aade130b0c1e7e023759357606dc131586cda97",
      "assetIds": [
        "41506478881403507969696680653240014914910929820314476107906210059990532622336"
      ]
    },
    {
      "x": 396,
      "y": 241,
      "size": 1,
      "price": "4683000000000000000000",
      "reserved": "",
      "salt": "0x6bf2275c4f1b63929ea168f22e5656521cfc6652a7ff554f2933dfdbdd74c39d",
      "assetIds": [
        "41506478881403507969696680653240014914910929820314476107906210059990541021185"
      ]
    },
    {
      "x": 396,
      "y": 242,
      "size": 1,
      "price": "4683000000000000000000",
      "reserved": "",
      "salt": "0x83b9fbfce7e0b4f0def6ed1dc6bd0e5b4545c30b5b6970e892b5789046c9b420",
      "assetIds": [
        "41506478881403507969696680653240014914910929820314476107906210059990541021187"
      ]
    },
    {
      "x": 396,
      "y": 243,
      "size": 1,
      "price": "4683000000000000000000",
      "reserved": "",
      "salt": "0x3025798623ccf57dba2c9a76ef8115105c351ba8f86f2e46414df952244fc3b6",
      "assetIds": [
        "41506478881403507969696680653240014914910929820314476107906210059990541021188"
      ]
    },
    {
      "x": 396,
      "y": 244,
      "size": 1,
      "price": "4683000000000000000000",
      "reserved": "",
      "salt": "0x18b97d6aac8bc5a22ac936b05aa288efcafec63a49d8c16a8bdb8c245cef92ec",
      "assetIds": [
        "41506478881403507969696680653240014914910929820314476107906210059990532622336"
      ]
    },
    {
      "x": 396,
      "y": 245,
      "size": 1,
      "price": "4683000000000000000000",
      "reserved": "",
      "salt": "0x841695b8c17fd493e217d657899e3c313ea4fa7847ea5275752b0b0161ce04e1",
      "assetIds": [
        "41506478881403507969696680653240014914910929820314476107906210059990541021185"
      ]
    },
    {
      "x": 396,
      "y": 246,
      "size": 1,
      "price": "4683000000000000000000",
      "reserved": "",
      "salt": "0xf2f095976b9caa832a21e195691d7ff3014d931b3b875064b5fb124e8e217ac4",
      "assetIds": [
        "41506478881403507969696680653240014914910929820314476107906210059990541021186"
      ]
    },
    {
      "x": 396,
      "y": 247,
      "size": 1,
      "price": "4683000000000000000000",
      "reserved": "",
      "salt": "0x7e0f384868d1e8a63fc690465139fee854c406a9c32bf9516ac021078255c0fe",
      "assetIds": [
        "41506478881403507969696680653240014914910929820314476107906210059990541021184"
      ]
    },
    {
      "x": 396,
      "y": 248,
      "size": 1,
      "price": "4683000000000000000000",
      "reserved": "",
      "salt": "0x661d4cba84c96e767698a4d57891cb2cfbb4fd9cfece5a0b8215b8733002a4b6",
      "assetIds": [
        "41506478881403507969696680653240014914910929820314476107906210059990541021187"
      ]
    },
    {
      "x": 396,
      "y": 249,
      "size": 1,
      "price": "4683000000000000000000",
      "reserved": "",
      "salt": "0x7a0faf598df1b3858b8f110bd94356134957ed1e40d4f5a0ab2fb3002a298804",
      "assetIds": [
        "41506478881403507969696680653240014914910929820314476107906210059990541021189"
      ]
    },
    {
      "x": 396,
      "y": 250,
      "size": 1,
      "price": "4683000000000000000000",
      "reserved": "",
      "salt": "0x2d04f6eae2c4b1f522c21ae2a293ef314df822caf0adb2cbf85be6daf28c4837",
      "assetIds": [
        "41506478881403507969696680653240014914910929820314476107906210059990541021188"
      ]
    },
    {
      "x": 396,
      "y": 251,
      "size": 1,
      "price": "4683000000000000000000",
      "reserved": "",
      "salt": "0x04da052031a28b725bdd8b7c99e8ca83403e6b1acb119629ad514584e4d00c69",
      "assetIds": [
        "41506478881403507969696680653240014914910929820314476107906210059990541021187"
      ]
    },
    {
      "x": 396,
      "y": 294,
      "size": 1,
      "price": "4683000000000000000000",
      "reserved": "",
      "salt": "0xea8ce14526cace8bf3dda9d09efaefae442c55c29a9544cd65aa4fb2a2774a72",
      "assetIds": [
        "41506478881403507969696680653240014914910929820314476107906210059990541021184"
      ]
    },
    {
      "x": 396,
      "y": 295,
      "size": 1,
      "price": "4683000000000000000000",
      "reserved": "",
      "salt": "0xdc4552b8993b50983828e7a1c9398213cc799680ac992bd6730b84d1934dd084",
      "assetIds": [
        "41506478881403507969696680653240014914910929820314476107906210059990541021185"
      ]
    },
    {
      "x": 396,
      "y": 296,
      "size": 1,
      "price": "4683000000000000000000",
      "reserved": "",
      "salt": "0xb39da3328553d1bdf1adbfeac151a193a938b0cc8a81e9582a12ae666aa18830",
      "assetIds": [
        "41506478881403507969696680653240014914910929820314476107906210059990541021187"
      ]
    },
    {
      "x": 396,
      "y": 297,
      "size": 1,
      "price": "4683000000000000000000",
      "reserved": "",
      "salt": "0x1470c96d98cc80b8f31e760b8155c427eab91e565aa3fbe45d2fcce2911e9f9c",
      "assetIds": [
        "41506478881403507969696680653240014914910929820314476107906210059990541021188"
      ]
    },
    {
      "x": 396,
      "y": 298,
      "size": 1,
      "price": "4683000000000000000000",
      "reserved": "",
      "salt": "0xa82cbf7d5d583a2c2c35bdb822c1d461fd4426b7707a532fc6361f8f81b206c2",
      "assetIds": [
        "41506478881403507969696680653240014914910929820314476107906210059990541021188"
      ]
    },
    {
      "x": 396,
      "y": 299,
      "size": 1,
      "price": "4683000000000000000000",
      "reserved": "",
      "salt": "0xe867e688c27122c2f575784c09c977a47d939e308f18a878999ba680136ac905",
      "assetIds": [
        "41506478881403507969696680653240014914910929820314476107906210059990541021187"
      ]
    },
    {
      "x": 397,
      "y": 228,
      "size": 1,
      "price": "4683000000000000000000",
      "reserved": "",
      "salt": "0xd157af95771ed9a61e79d84f972b22c44b184ce916e58794cebf5a185b74156b",
      "assetIds": [
        "41506478881403507969696680653240014914910929820314476107906210059990541021187"
      ]
    },
    {
      "x": 397,
      "y": 229,
      "size": 1,
      "price": "4683000000000000000000",
      "reserved": "",
      "salt": "0x0c61bb1f14af68a01165b4095ceb3ac21ca0629530360f891ebc0f5a8f75a755",
      "assetIds": [
        "41506478881403507969696680653240014914910929820314476107906210059990541021184"
      ]
    },
    {
      "x": 397,
      "y": 230,
      "size": 1,
      "price": "4683000000000000000000",
      "reserved": "",
      "salt": "0xc5ee8964769776eac1d58f9cc089ff33fbdc67ab0962ed53191cc3e82e5e75e5",
      "assetIds": [
        "41506478881403507969696680653240014914910929820314476107906210059990541021185"
      ]
    },
    {
      "x": 397,
      "y": 231,
      "size": 1,
      "price": "4683000000000000000000",
      "reserved": "",
      "salt": "0x75d796152346575c2e5019cd29f6f786268999203557d9eca8d4ff19305c84a8",
      "assetIds": [
        "41506478881403507969696680653240014914910929820314476107906210059990541021185"
      ]
    },
    {
      "x": 397,
      "y": 232,
      "size": 1,
      "price": "4683000000000000000000",
      "reserved": "",
      "salt": "0xd9744931b9d1c62c0812f745c9739f570cda00d4c6ca90dd2ae0c0644437e252",
      "assetIds": [
        "41506478881403507969696680653240014914910929820314476107906210059990532622336"
      ]
    },
    {
      "x": 397,
      "y": 233,
      "size": 1,
      "price": "4683000000000000000000",
      "reserved": "",
      "salt": "0x335e6abfe91e25e4d81f767c857ca55cf2960eff8717839fe04785f1ba0ad456",
      "assetIds": [
        "41506478881403507969696680653240014914910929820314476107906210059990541021188"
      ]
    },
    {
      "x": 397,
      "y": 234,
      "size": 1,
      "price": "4683000000000000000000",
      "reserved": "",
      "salt": "0x005b88bd991d6d1e5ef10b1f9d0c00568999b5dd0d74281bc47d749fa45dc652",
      "assetIds": [
        "41506478881403507969696680653240014914910929820314476107906210059990541021186"
      ]
    },
    {
      "x": 397,
      "y": 235,
      "size": 1,
      "price": "4683000000000000000000",
      "reserved": "",
      "salt": "0x650c9d8866523aec526123a0d3d65d1ff2e712b9fce6ab108af1d15dbb4b77d5",
      "assetIds": [
        "41506478881403507969696680653240014914910929820314476107906210059990532622336"
      ]
    },
    {
      "x": 397,
      "y": 236,
      "size": 1,
      "price": "4683000000000000000000",
      "reserved": "",
      "salt": "0x456b9a5feab90dd703bd16c28c78e5ab21366892300c9869c3558b80526aed93",
      "assetIds": [
        "41506478881403507969696680653240014914910929820314476107906210059990541021187"
      ]
    },
    {
      "x": 397,
      "y": 237,
      "size": 1,
      "price": "4683000000000000000000",
      "reserved": "",
      "salt": "0x4bd7587299f17d3d3a21618db96675ee65907941ee172a16f46e0e25ba344edc",
      "assetIds": [
        "41506478881403507969696680653240014914910929820314476107906210059990541021188"
      ]
    },
    {
      "x": 397,
      "y": 238,
      "size": 1,
      "price": "4683000000000000000000",
      "reserved": "",
      "salt": "0xa38994673064fbd507b468ea19621e2c3a97195cb22b7a3fc004ed0cea7ca6aa",
      "assetIds": [
        "41506478881403507969696680653240014914910929820314476107906210059990541021185"
      ]
    },
    {
      "x": 397,
      "y": 239,
      "size": 1,
      "price": "4683000000000000000000",
      "reserved": "",
      "salt": "0x2e6b41a04247bf548a82d732aaf123f637cc572b8bdec7f8cdb718ffdff155b7",
      "assetIds": [
        "41506478881403507969696680653240014914910929820314476107906210059990532622336"
      ]
    },
    {
      "x": 397,
      "y": 240,
      "size": 1,
      "price": "4683000000000000000000",
      "reserved": "",
      "salt": "0x8b7e62a80c7d4fdac2c020cc0fa42aa7f2b53042c4da041f3ad5ec9e6a9df0cf",
      "assetIds": [
        "41506478881403507969696680653240014914910929820314476107906210059990541021184"
      ]
    },
    {
      "x": 397,
      "y": 241,
      "size": 1,
      "price": "4683000000000000000000",
      "reserved": "",
      "salt": "0xaa72e2aae4e728e68882c8d9e8f644121a64b2998e149e15855a8a58a7776cc9",
      "assetIds": [
        "41506478881403507969696680653240014914910929820314476107906210059990541021188"
      ]
    },
    {
      "x": 397,
      "y": 242,
      "size": 1,
      "price": "4683000000000000000000",
      "reserved": "",
      "salt": "0x59e9634ddf5d2e8c54ef6d8b4cde31fd7c31765bf46b5175d027d2d6f74add7f",
      "assetIds": [
        "41506478881403507969696680653240014914910929820314476107906210059990541021188"
      ]
    },
    {
      "x": 397,
      "y": 243,
      "size": 1,
      "price": "4683000000000000000000",
      "reserved": "",
      "salt": "0xf1d023be2d168f8941afe7608f0c166dfbc7455f151d449c7df5c492142d2748",
      "assetIds": [
        "41506478881403507969696680653240014914910929820314476107906210059990541021186"
      ]
    },
    {
      "x": 397,
      "y": 244,
      "size": 1,
      "price": "4683000000000000000000",
      "reserved": "",
      "salt": "0xc58a7ef097130b20167614db4708502f4186ddb165955dee752a44bd0cbbdfb3",
      "assetIds": [
        "41506478881403507969696680653240014914910929820314476107906210059990532622336"
      ]
    },
    {
      "x": 397,
      "y": 245,
      "size": 1,
      "price": "4683000000000000000000",
      "reserved": "",
      "salt": "0x3708da9f9c016311690e94310f9e7fd3fef138159b24661ce7e2e81edf7b1c98",
      "assetIds": [
        "41506478881403507969696680653240014914910929820314476107906210059990541021187"
      ]
    },
    {
      "x": 397,
      "y": 246,
      "size": 1,
      "price": "4683000000000000000000",
      "reserved": "",
      "salt": "0x38d69f63b9858263c3385286a3ac28cd8afa4b27afc0a84089ab3b4d19109d8c",
      "assetIds": [
        "41506478881403507969696680653240014914910929820314476107906210059990541021188"
      ]
    },
    {
      "x": 397,
      "y": 247,
      "size": 1,
      "price": "4683000000000000000000",
      "reserved": "",
      "salt": "0x498c2a169a765ca187b5edb84a46d2a3fc67b7e6c59d6918ab614c760415a1eb",
      "assetIds": [
        "41506478881403507969696680653240014914910929820314476107906210059990541021188"
      ]
    },
    {
      "x": 397,
      "y": 248,
      "size": 1,
      "price": "4683000000000000000000",
      "reserved": "",
      "salt": "0x86c3f55a2752ea522d6bcb0bdb9c3de54b3c878edbc0f29ff6a06fde13550d1d",
      "assetIds": [
        "41506478881403507969696680653240014914910929820314476107906210059990541021188"
      ]
    },
    {
      "x": 397,
      "y": 249,
      "size": 1,
      "price": "4683000000000000000000",
      "reserved": "",
      "salt": "0x2a42b5ea99a1abc480ce7ce964cf4347a69ad19766ded08c842deaab00cf2872",
      "assetIds": [
        "41506478881403507969696680653240014914910929820314476107906210059990532622336"
      ]
    },
    {
      "x": 397,
      "y": 250,
      "size": 1,
      "price": "4683000000000000000000",
      "reserved": "",
      "salt": "0xb9add7914d4359a329dba56fa4a26389cca964a7b248a6dae8cbfee6caabb531",
      "assetIds": [
        "41506478881403507969696680653240014914910929820314476107906210059990532622336"
      ]
    },
    {
      "x": 397,
      "y": 251,
      "size": 1,
      "price": "4683000000000000000000",
      "reserved": "",
      "salt": "0x125cea8cf1c557a6e128f779c547fc4acc2f54514f542804be9db4cdfb9e66ed",
      "assetIds": [
        "41506478881403507969696680653240014914910929820314476107906210059990541021189"
      ]
    },
    {
      "x": 397,
      "y": 294,
      "size": 1,
      "price": "4683000000000000000000",
      "reserved": "",
      "salt": "0x41bcae7e0509de60ac7bb876b2dee3afb107583d36b61bceddd32bdcfec1256e",
      "assetIds": [
        "41506478881403507969696680653240014914910929820314476107906210059990541021186"
      ]
    },
    {
      "x": 397,
      "y": 295,
      "size": 1,
      "price": "4683000000000000000000",
      "reserved": "",
      "salt": "0x415f853073aa4321c9871ba3efca45152cc70e39d250e5870dda8b74d437812a",
      "assetIds": [
        "41506478881403507969696680653240014914910929820314476107906210059990541021188"
      ]
    },
    {
      "x": 397,
      "y": 296,
      "size": 1,
      "price": "4683000000000000000000",
      "reserved": "",
      "salt": "0x29f1b1772b533ecd675469740850cc22920455ffdf20aefe9fedf0beb8655b69",
      "assetIds": [
        "41506478881403507969696680653240014914910929820314476107906210059990541021188"
      ]
    },
    {
      "x": 397,
      "y": 297,
      "size": 1,
      "price": "4683000000000000000000",
      "reserved": "",
      "salt": "0x7dd6c1cc4486242d796b9754f6e33607b3373f1bbbebef37039115c129953fc2",
      "assetIds": [
        "41506478881403507969696680653240014914910929820314476107906210059990541021186"
      ]
    },
    {
      "x": 397,
      "y": 298,
      "size": 1,
      "price": "4683000000000000000000",
      "reserved": "",
      "salt": "0xeafca725415c3dce609c50f1678b4be0fd1146ff532ab8a75bc3ad2818a46e3c",
      "assetIds": [
        "41506478881403507969696680653240014914910929820314476107906210059990541021185"
      ]
    },
    {
      "x": 397,
      "y": 299,
      "size": 1,
      "price": "4683000000000000000000",
      "reserved": "",
      "salt": "0x32f40026b00e4e6806897d9eb97d06576b633de0746feeae372fdba753e22b0b",
      "assetIds": [
        "41506478881403507969696680653240014914910929820314476107906210059990541021188"
      ]
    },
    {
      "x": 398,
      "y": 228,
      "size": 1,
      "price": "4683000000000000000000",
      "reserved": "",
      "salt": "0xb3af85341695f44e0b8286e39da7533f64730e9cc2d7bee455014587eb55f711",
      "assetIds": [
        "41506478881403507969696680653240014914910929820314476107906210059990541021185"
      ]
    },
    {
      "x": 398,
      "y": 229,
      "size": 1,
      "price": "4683000000000000000000",
      "reserved": "",
      "salt": "0xe9b40f137fa6d73289d060654ccc03cc34d98a79ae6b55e511e71767537544a0",
      "assetIds": [
        "41506478881403507969696680653240014914910929820314476107906210059990532622336"
      ]
    },
    {
      "x": 398,
      "y": 230,
      "size": 1,
      "price": "4683000000000000000000",
      "reserved": "",
      "salt": "0xe0c1d061e8373405bbff94c5920bf5136cef3ad10dec9465a63a5edb0be41e1e",
      "assetIds": [
        "41506478881403507969696680653240014914910929820314476107906210059990541021184"
      ]
    },
    {
      "x": 398,
      "y": 231,
      "size": 1,
      "price": "4683000000000000000000",
      "reserved": "",
      "salt": "0xf97c0a1ce5b7c3ffb4273e7dda7b5e39acdb5c52848625ad95650d9fecf071b4",
      "assetIds": [
        "41506478881403507969696680653240014914910929820314476107906210059990541021185"
      ]
    },
    {
      "x": 398,
      "y": 232,
      "size": 1,
      "price": "4683000000000000000000",
      "reserved": "",
      "salt": "0xfc39e5bb3bcc546ecb9483f6639d1ce600a1339bafd820a9d8232f73db6b0550",
      "assetIds": [
        "41506478881403507969696680653240014914910929820314476107906210059990541021185"
      ]
    },
    {
      "x": 398,
      "y": 233,
      "size": 1,
      "price": "4683000000000000000000",
      "reserved": "",
      "salt": "0xd9219fedfb8caba36a9e7ad3d9813fbb046dfee2d9638fd260f0945f72384420",
      "assetIds": [
        "41506478881403507969696680653240014914910929820314476107906210059990541021185"
      ]
    },
    {
      "x": 398,
      "y": 234,
      "size": 1,
      "price": "4683000000000000000000",
      "reserved": "",
      "salt": "0xeb58d3d7d4ca1c948254bd6e385a46c4a57e18f34f229474d8a59d6a380386f5",
      "assetIds": [
        "41506478881403507969696680653240014914910929820314476107906210059990541021186"
      ]
    },
    {
      "x": 398,
      "y": 235,
      "size": 1,
      "price": "4683000000000000000000",
      "reserved": "",
      "salt": "0xd250b341edea3ce59dfe9c1b7db8f14e601093145b16761c015a7168721f49e6",
      "assetIds": [
        "41506478881403507969696680653240014914910929820314476107906210059990541021186"
      ]
    },
    {
      "x": 398,
      "y": 236,
      "size": 1,
      "price": "4683000000000000000000",
      "reserved": "",
      "salt": "0xb1b19de55d125fa85ccd9819a31ead06e7778fec0f963acb56a84e254ad69f81",
      "assetIds": [
        "41506478881403507969696680653240014914910929820314476107906210059990541021184"
      ]
    },
    {
      "x": 398,
      "y": 237,
      "size": 1,
      "price": "4683000000000000000000",
      "reserved": "",
      "salt": "0x311b57d3737c40599eef82f845e1dae0914e1d98ad25615efe55e5f95a92d57d",
      "assetIds": [
        "41506478881403507969696680653240014914910929820314476107906210059990541021189"
      ]
    },
    {
      "x": 398,
      "y": 238,
      "size": 1,
      "price": "4683000000000000000000",
      "reserved": "",
      "salt": "0x60ff0bde79f0b0be69432ab006d798a9161e2d5d1e9467eab540d201ae3548aa",
      "assetIds": [
        "41506478881403507969696680653240014914910929820314476107906210059990541021188"
      ]
    },
    {
      "x": 398,
      "y": 239,
      "size": 1,
      "price": "4683000000000000000000",
      "reserved": "",
      "salt": "0x68d46300fd331833aac242ae962692159453dda1a8a7a3a5544380b27ab7797f",
      "assetIds": [
        "41506478881403507969696680653240014914910929820314476107906210059990532622336"
      ]
    },
    {
      "x": 398,
      "y": 240,
      "size": 1,
      "price": "4683000000000000000000",
      "reserved": "",
      "salt": "0x02c6b3c27b9f4e0fdfd92664272a50f2ccef5a1b2d9bd996a2c03f8ad56fddba",
      "assetIds": [
        "41506478881403507969696680653240014914910929820314476107906210059990541021187"
      ]
    },
    {
      "x": 398,
      "y": 241,
      "size": 1,
      "price": "4683000000000000000000",
      "reserved": "",
      "salt": "0x936eed8fa149882afd16197cd1f8456fade936dc675b3eb65e5ea91020d0627d",
      "assetIds": [
        "41506478881403507969696680653240014914910929820314476107906210059990541021185"
      ]
    },
    {
      "x": 398,
      "y": 242,
      "size": 1,
      "price": "4683000000000000000000",
      "reserved": "",
      "salt": "0x151bd89b0b23a47dbc181b0f10513fbfe944eeed27b87488fd8a871d7beffda3",
      "assetIds": [
        "41506478881403507969696680653240014914910929820314476107906210059990541021188"
      ]
    },
    {
      "x": 398,
      "y": 243,
      "size": 1,
      "price": "4683000000000000000000",
      "reserved": "",
      "salt": "0xd51b578245a5f85238a1b922bbe1c3cbed8b2153e94d7659964e54ecd70b59f2",
      "assetIds": [
        "41506478881403507969696680653240014914910929820314476107906210059990541021189"
      ]
    },
    {
      "x": 398,
      "y": 244,
      "size": 1,
      "price": "4683000000000000000000",
      "reserved": "",
      "salt": "0xdc11cc64c9a12e3fdd673c6719357f0a0f29bd6c1447680af68a70f43cd991c9",
      "assetIds": [
        "41506478881403507969696680653240014914910929820314476107906210059990541021187"
      ]
    },
    {
      "x": 398,
      "y": 245,
      "size": 1,
      "price": "4683000000000000000000",
      "reserved": "",
      "salt": "0x5d916cc94ac90580a211fc9296c7b5052f0fecc091263865e4de06615549e992",
      "assetIds": [
        "41506478881403507969696680653240014914910929820314476107906210059990541021188"
      ]
    },
    {
      "x": 398,
      "y": 246,
      "size": 1,
      "price": "4683000000000000000000",
      "reserved": "",
      "salt": "0x50322da783316725b650216ec1b709eb5de0e9b85ea9317886f848ecfc8b8f68",
      "assetIds": [
        "41506478881403507969696680653240014914910929820314476107906210059990541021186"
      ]
    },
    {
      "x": 398,
      "y": 247,
      "size": 1,
      "price": "4683000000000000000000",
      "reserved": "",
      "salt": "0x73b18cfb4577f5234c8a03732cd73b8857285ff7769b0ba0e14524a48964dba7",
      "assetIds": [
        "41506478881403507969696680653240014914910929820314476107906210059990541021186"
      ]
    },
    {
      "x": 398,
      "y": 248,
      "size": 1,
      "price": "4683000000000000000000",
      "reserved": "",
      "salt": "0x0e232f052ebb6b9c097679f19f10277d8462c8a23041e67b74ce108ebbe026b1",
      "assetIds": [
        "41506478881403507969696680653240014914910929820314476107906210059990541021189"
      ]
    },
    {
      "x": 398,
      "y": 249,
      "size": 1,
      "price": "4683000000000000000000",
      "reserved": "",
      "salt": "0x945d11108fb70de7a685ace500f852a478fa85c470ed87a8d4eff24025282814",
      "assetIds": [
        "41506478881403507969696680653240014914910929820314476107906210059990541021189"
      ]
    },
    {
      "x": 398,
      "y": 250,
      "size": 1,
      "price": "4683000000000000000000",
      "reserved": "",
      "salt": "0xa569a96a72e96a1465ac3a38f36d3326297d20091f084a9080d60e43b3cdb84e",
      "assetIds": [
        "41506478881403507969696680653240014914910929820314476107906210059990541021186"
      ]
    },
    {
      "x": 398,
      "y": 251,
      "size": 1,
      "price": "4683000000000000000000",
      "reserved": "",
      "salt": "0xee001c8581867780c9aec406dee1ede7b6a657075cbd4430d81c8023f9cdfd50",
      "assetIds": [
        "41506478881403507969696680653240014914910929820314476107906210059990541021188"
      ]
    },
    {
      "x": 398,
      "y": 294,
      "size": 1,
      "price": "4683000000000000000000",
      "reserved": "",
      "salt": "0xe673682e656cda31d2d30a84844fac852d86ee374b3159cbe40c4538a60ad70c",
      "assetIds": [
        "41506478881403507969696680653240014914910929820314476107906210059990532622336"
      ]
    },
    {
      "x": 398,
      "y": 295,
      "size": 1,
      "price": "4683000000000000000000",
      "reserved": "",
      "salt": "0x65d5defdfa889cdfe225809eb7eeffd9609ba34a264aa0f8d4ccc65d7e7ffacd",
      "assetIds": [
        "41506478881403507969696680653240014914910929820314476107906210059990541021187"
      ]
    },
    {
      "x": 398,
      "y": 296,
      "size": 1,
      "price": "4683000000000000000000",
      "reserved": "",
      "salt": "0xecda85fe00c7604c58575a16672e6898b073411d066460f2b08c4612c24a42fe",
      "assetIds": [
        "41506478881403507969696680653240014914910929820314476107906210059990541021186"
      ]
    },
    {
      "x": 398,
      "y": 297,
      "size": 1,
      "price": "4683000000000000000000",
      "reserved": "",
      "salt": "0xa64a17ce56578ca44ce7242dd0f96e16596da921d6b55f7ef5a5b49494839ca9",
      "assetIds": [
        "41506478881403507969696680653240014914910929820314476107906210059990541021189"
      ]
    },
    {
      "x": 398,
      "y": 298,
      "size": 1,
      "price": "4683000000000000000000",
      "reserved": "",
      "salt": "0xc4eff346cf3357a3971a82ba7748a75d28cde9512921c820bd19882c4141f7ea",
      "assetIds": [
        "41506478881403507969696680653240014914910929820314476107906210059990541021186"
      ]
    },
    {
      "x": 398,
      "y": 299,
      "size": 1,
      "price": "4683000000000000000000",
      "reserved": "",
      "salt": "0xb08197acc5bad706ae54201799195d095152c620d2605fde2f0075232fed5ef8",
      "assetIds": [
        "41506478881403507969696680653240014914910929820314476107906210059990532622336"
      ]
    },
    {
      "x": 399,
      "y": 228,
      "size": 1,
      "price": "4683000000000000000000",
      "reserved": "",
      "salt": "0xe27b3cf3774644198e2739ca2d127e25b05e0b3743dfe1972355f0bec49068c2",
      "assetIds": [
        "41506478881403507969696680653240014914910929820314476107906210059990541021184"
      ]
    },
    {
      "x": 399,
      "y": 229,
      "size": 1,
      "price": "4683000000000000000000",
      "reserved": "",
      "salt": "0x8c00c12a9ff3d2a1ea2cdc0f559f69d2726beec5da73b53abc2ee3e85cabb062",
      "assetIds": [
        "41506478881403507969696680653240014914910929820314476107906210059990541021188"
      ]
    },
    {
      "x": 399,
      "y": 230,
      "size": 1,
      "price": "4683000000000000000000",
      "reserved": "",
      "salt": "0xc24b74a08330346c349e349e54409dcdf1bfc5cab94279ccf5ea62f8d756381b",
      "assetIds": [
        "41506478881403507969696680653240014914910929820314476107906210059990541021186"
      ]
    },
    {
      "x": 399,
      "y": 231,
      "size": 1,
      "price": "4683000000000000000000",
      "reserved": "",
      "salt": "0x26556cecf98e3ce16654406c8f2f71be086b0fadac7fba0f40bac85c17492ac6",
      "assetIds": [
        "41506478881403507969696680653240014914910929820314476107906210059990541021189"
      ]
    },
    {
      "x": 399,
      "y": 232,
      "size": 1,
      "price": "4683000000000000000000",
      "reserved": "",
      "salt": "0xa4cc8bf9c07e338db5cf4f5c4ede3c624eb0d53c28e99c609ab55e7196d735c5",
      "assetIds": [
        "41506478881403507969696680653240014914910929820314476107906210059990541021185"
      ]
    },
    {
      "x": 399,
      "y": 233,
      "size": 1,
      "price": "4683000000000000000000",
      "reserved": "",
      "salt": "0x5dc1c570583ba12d16bb943d6942ea03f3cbddc3caaeb91de018a68a0155cdfe",
      "assetIds": [
        "41506478881403507969696680653240014914910929820314476107906210059990541021184"
      ]
    },
    {
      "x": 399,
      "y": 234,
      "size": 1,
      "price": "4683000000000000000000",
      "reserved": "",
      "salt": "0x822a0eadc28210a4b2f131439b82b11dfa146ab07a9fffff2e0164f1dbc0092a",
      "assetIds": [
        "41506478881403507969696680653240014914910929820314476107906210059990541021187"
      ]
    },
    {
      "x": 399,
      "y": 235,
      "size": 1,
      "price": "4683000000000000000000",
      "reserved": "",
      "salt": "0x6af3adbc200d60a5b73643d8d69dd14c112d08df01720774f9ab195b4b772b6c",
      "assetIds": [
        "41506478881403507969696680653240014914910929820314476107906210059990541021188"
      ]
    },
    {
      "x": 399,
      "y": 236,
      "size": 1,
      "price": "4683000000000000000000",
      "reserved": "",
      "salt": "0x84ecc5ebe064dd5f1755d0594ca598b900489ee61c1fff3b542c0e6f05f78974",
      "assetIds": [
        "41506478881403507969696680653240014914910929820314476107906210059990541021189"
      ]
    },
    {
      "x": 399,
      "y": 240,
      "size": 1,
      "price": "4683000000000000000000",
      "reserved": "",
      "salt": "0x79eb1ee6c6626bc22ca8caeb2a002490df0e96584840c1d07849dcb3fe2faf88",
      "assetIds": [
        "41506478881403507969696680653240014914910929820314476107906210059990541021186"
      ]
    },
    {
      "x": 399,
      "y": 241,
      "size": 1,
      "price": "1011000000000000000000",
      "reserved": "0x7a9fe22691c811ea339d9b73150e6911a5343dca",
      "salt": "0x3cce845cbd7678b05c4ea187fd4e918ca4b5de8eb8114483d28bcf2ec71fb586",
      "assetIds": []
    },
    {
      "x": 399,
      "y": 242,
      "size": 1,
      "price": "4683000000000000000000",
      "reserved": "",
      "salt": "0x9b8cc7be12b9b63234dd548063f47ecded8a5db1bd87a0f38c223a20e8de9274",
      "assetIds": [
        "41506478881403507969696680653240014914910929820314476107906210059990541021185"
      ]
    },
    {
      "x": 399,
      "y": 243,
      "size": 1,
      "price": "4683000000000000000000",
      "reserved": "",
      "salt": "0xd9a13db8329e33bd59a82151a42491aade2686ce5c210821f2ec731bc6473211",
      "assetIds": [
        "41506478881403507969696680653240014914910929820314476107906210059990532622336"
      ]
    },
    {
      "x": 399,
      "y": 244,
      "size": 1,
      "price": "4683000000000000000000",
      "reserved": "",
      "salt": "0xe12491ec8ced8c6354ec393ab1cb920e4419a6b644119d4e556d5474a66c62f2",
      "assetIds": [
        "41506478881403507969696680653240014914910929820314476107906210059990541021184"
      ]
    },
    {
      "x": 399,
      "y": 245,
      "size": 1,
      "price": "4683000000000000000000",
      "reserved": "",
      "salt": "0xa972165132d2017d461aa170b61aebf5e9f36fe555789ef9e45a459cefe87f74",
      "assetIds": [
        "41506478881403507969696680653240014914910929820314476107906210059990541021187"
      ]
    },
    {
      "x": 399,
      "y": 246,
      "size": 1,
      "price": "4683000000000000000000",
      "reserved": "",
      "salt": "0x3878b1a32ab27f961bbeafd47a9eeb89b493c53c5725d7a8812cc181021ca0bd",
      "assetIds": [
        "41506478881403507969696680653240014914910929820314476107906210059990532622336"
      ]
    },
    {
      "x": 399,
      "y": 247,
      "size": 1,
      "price": "4683000000000000000000",
      "reserved": "",
      "salt": "0xc8b723a4427ff2547c86060bbe6c7b1aca5b64db148474cf785ae698d7d96a01",
      "assetIds": [
        "41506478881403507969696680653240014914910929820314476107906210059990541021186"
      ]
    },
    {
      "x": 399,
      "y": 248,
      "size": 1,
      "price": "4683000000000000000000",
      "reserved": "",
      "salt": "0x976c42f265a24604aaf8495aabe75f5017ed2d9a01adfe98622d47fa6e650b2d",
      "assetIds": [
        "41506478881403507969696680653240014914910929820314476107906210059990541021185"
      ]
    },
    {
      "x": 399,
      "y": 249,
      "size": 1,
      "price": "4683000000000000000000",
      "reserved": "",
      "salt": "0x6e5d62a2d88925dad1d5f83dd8b022bae30dc64eeccdf4268ff1d9776f540678",
      "assetIds": [
        "41506478881403507969696680653240014914910929820314476107906210059990541021186"
      ]
    },
    {
      "x": 399,
      "y": 250,
      "size": 1,
      "price": "4683000000000000000000",
      "reserved": "",
      "salt": "0xef42f32cfe8e89c970a1bc930bb027818b82409aea95e98bc3eaa60f9a35f296",
      "assetIds": [
        "41506478881403507969696680653240014914910929820314476107906210059990532622336"
      ]
    },
    {
      "x": 399,
      "y": 251,
      "size": 1,
      "price": "4683000000000000000000",
      "reserved": "",
      "salt": "0x456e3540e17fb7c6c9ad0611452ff0f9a866ae12a8531bc56fc439399bba6aae",
      "assetIds": [
        "41506478881403507969696680653240014914910929820314476107906210059990541021184"
      ]
    },
    {
      "x": 399,
      "y": 294,
      "size": 1,
      "price": "4683000000000000000000",
      "reserved": "",
      "salt": "0x6f3a3b72d34925c177810940b17b786827b0175edeb93c766f956811d5b70248",
      "assetIds": [
        "41506478881403507969696680653240014914910929820314476107906210059990541021189"
      ]
    },
    {
      "x": 399,
      "y": 295,
      "size": 1,
      "price": "4683000000000000000000",
      "reserved": "",
      "salt": "0x50781253eb5e3d1144da948942dea255ff0a3f4b14b787b1409ebd2a629074d9",
      "assetIds": [
        "41506478881403507969696680653240014914910929820314476107906210059990541021185"
      ]
    },
    {
      "x": 399,
      "y": 296,
      "size": 1,
      "price": "1011000000000000000000",
      "reserved": "0x7a9fe22691c811ea339d9b73150e6911a5343dca",
      "salt": "0x908c1a7ba3f6a4fa5bdca2c5e55b419d9f55b343f28e85c51b5f24b0eecb34e4",
      "assetIds": []
    },
    {
      "x": 399,
      "y": 297,
      "size": 1,
      "price": "4683000000000000000000",
      "reserved": "",
      "salt": "0xdb9d0cfd29ec28fc4c97e0c4d012e233670bddce7d5931308d38b086dd047256",
      "assetIds": [
        "41506478881403507969696680653240014914910929820314476107906210059990541021185"
      ]
    },
    {
      "x": 399,
      "y": 298,
      "size": 1,
      "price": "4683000000000000000000",
      "reserved": "",
      "salt": "0x52807c0f04eaa451c632944cceeabac32e8d8f920115b717ad6683bc3015c891",
      "assetIds": [
        "41506478881403507969696680653240014914910929820314476107906210059990541021186"
      ]
    },
    {
      "x": 399,
      "y": 299,
      "size": 1,
      "price": "4683000000000000000000",
      "reserved": "",
      "salt": "0xd22f952446036774b290240316352bb9b0756a462d51bd0faf89393779233c8b",
      "assetIds": [
        "41506478881403507969696680653240014914910929820314476107906210059990541021186"
      ]
    },
    {
      "x": 400,
      "y": 228,
      "size": 1,
      "price": "4683000000000000000000",
      "reserved": "",
      "salt": "0x13fd608f21175b0ada9ce39003aa51bb0c402a063ed1990fad198d201b8ac8a2",
      "assetIds": [
        "41506478881403507969696680653240014914910929820314476107906210059990541021184"
      ]
    },
    {
      "x": 400,
      "y": 229,
      "size": 1,
      "price": "4683000000000000000000",
      "reserved": "",
      "salt": "0x37f3436bb5ef613dbffcfd1e1bd254921df9fc1f03fc2a67c7c43f049683174b",
      "assetIds": [
        "41506478881403507969696680653240014914910929820314476107906210059990541021189"
      ]
    },
    {
      "x": 400,
      "y": 230,
      "size": 1,
      "price": "4683000000000000000000",
      "reserved": "",
      "salt": "0xecf982b6d0afa8c2c6c59fe8cf0371a7831122faf37bc39417170899f47a1ffc",
      "assetIds": [
        "41506478881403507969696680653240014914910929820314476107906210059990541021185"
      ]
    },
    {
      "x": 400,
      "y": 231,
      "size": 1,
      "price": "4683000000000000000000",
      "reserved": "",
      "salt": "0xdec625b02426f09cffe5856b2f8b1837804731e66a5d001265b3763c679cd536",
      "assetIds": [
        "41506478881403507969696680653240014914910929820314476107906210059990541021188"
      ]
    },
    {
      "x": 400,
      "y": 232,
      "size": 1,
      "price": "4683000000000000000000",
      "reserved": "",
      "salt": "0x291bf8afa0e643e6ae0558f59a5ac9edeedbd3bdc431eda4bb2100b11d3c5a9f",
      "assetIds": [
        "41506478881403507969696680653240014914910929820314476107906210059990541021185"
      ]
    },
    {
      "x": 400,
      "y": 233,
      "size": 1,
      "price": "4683000000000000000000",
      "reserved": "",
      "salt": "0x3c69f69a472998b1213ad113eaff636cf139cd8360d08ad601f2e0d2339877c4",
      "assetIds": [
        "41506478881403507969696680653240014914910929820314476107906210059990541021185"
      ]
    },
    {
      "x": 400,
      "y": 234,
      "size": 1,
      "price": "4683000000000000000000",
      "reserved": "",
      "salt": "0x56b59425cd751847ab219eda099fda9e4e17f56899626e210835048ae331eec6",
      "assetIds": [
        "41506478881403507969696680653240014914910929820314476107906210059990541021189"
      ]
    },
    {
      "x": 400,
      "y": 235,
      "size": 1,
      "price": "4683000000000000000000",
      "reserved": "",
      "salt": "0x484cc587ca2cd7b685b13ff0c6d91730b5d1c134e9fe462b915ffce3740371a0",
      "assetIds": [
        "41506478881403507969696680653240014914910929820314476107906210059990532622336"
      ]
    },
    {
      "x": 400,
      "y": 236,
      "size": 1,
      "price": "4683000000000000000000",
      "reserved": "",
      "salt": "0x7a824922734c208da8d107a3fef986ed643cbb4a2e128aa04e80509d977d3175",
      "assetIds": [
        "41506478881403507969696680653240014914910929820314476107906210059990541021184"
      ]
    },
    {
      "x": 400,
      "y": 240,
      "size": 1,
      "price": "4683000000000000000000",
      "reserved": "",
      "salt": "0xda4fa7fa2b5b07d7561d08fd69077376ad691378b05ceb0de64698165536310c",
      "assetIds": [
        "41506478881403507969696680653240014914910929820314476107906210059990541021185"
      ]
    },
    {
      "x": 400,
      "y": 241,
      "size": 1,
      "price": "4683000000000000000000",
      "reserved": "",
      "salt": "0x9c5f1585d78fa6e4fb8a60e2205f2c4bd3d6c97a3af0e56d85f169cc895a9f32",
      "assetIds": [
        "41506478881403507969696680653240014914910929820314476107906210059990541021184"
      ]
    },
    {
      "x": 400,
      "y": 242,
      "size": 1,
      "price": "4683000000000000000000",
      "reserved": "",
      "salt": "0xe15d692ff58546a4da55b870da9f14d12351dd6975ae43bd09ce63e9824eebd6",
      "assetIds": [
        "41506478881403507969696680653240014914910929820314476107906210059990532622336"
      ]
    },
    {
      "x": 400,
      "y": 243,
      "size": 1,
      "price": "4683000000000000000000",
      "reserved": "",
      "salt": "0xdbc06e2d30f63ad26925a2e55f9661d2d446124979d2767291ff86f668fbbdce",
      "assetIds": [
        "41506478881403507969696680653240014914910929820314476107906210059990541021185"
      ]
    },
    {
      "x": 400,
      "y": 244,
      "size": 1,
      "price": "4683000000000000000000",
      "reserved": "",
      "salt": "0xad8d65ebc9b237202f6bce6a2f6981c8a1a0fafe724aa29f97e803c8f35aec35",
      "assetIds": [
        "41506478881403507969696680653240014914910929820314476107906210059990541021187"
      ]
    },
    {
      "x": 400,
      "y": 245,
      "size": 1,
      "price": "4683000000000000000000",
      "reserved": "",
      "salt": "0x0168e0f02d4f8af505ae31867eb3cc45244779c0cd204cad6297284a3adae7a8",
      "assetIds": [
        "41506478881403507969696680653240014914910929820314476107906210059990541021185"
      ]
    },
    {
      "x": 400,
      "y": 246,
      "size": 1,
      "price": "4683000000000000000000",
      "reserved": "",
      "salt": "0xa87ca8030dbfeb5a78ff84c1c27fe3da90b2567a78f995b5358d0ebf98b0452c",
      "assetIds": [
        "41506478881403507969696680653240014914910929820314476107906210059990541021188"
      ]
    },
    {
      "x": 400,
      "y": 247,
      "size": 1,
      "price": "4683000000000000000000",
      "reserved": "",
      "salt": "0x3c35728b36c173305bb0845e28cfc44db0e7b78c460a5502273af9c7b9ee24c9",
      "assetIds": [
        "41506478881403507969696680653240014914910929820314476107906210059990532622336"
      ]
    },
    {
      "x": 400,
      "y": 248,
      "size": 1,
      "price": "4683000000000000000000",
      "reserved": "",
      "salt": "0xc0187058640509534cdbdc791a56ec907ed38f890ffb3e182c70a3edbe105c27",
      "assetIds": [
        "41506478881403507969696680653240014914910929820314476107906210059990541021186"
      ]
    },
    {
      "x": 400,
      "y": 249,
      "size": 1,
      "price": "4683000000000000000000",
      "reserved": "",
      "salt": "0x13b0134e8cc963db7fb5bf43633e5509f9d84743affe140dd5ad35032d1388e2",
      "assetIds": [
        "41506478881403507969696680653240014914910929820314476107906210059990541021187"
      ]
    },
    {
      "x": 400,
      "y": 250,
      "size": 1,
      "price": "1011000000000000000000",
      "reserved": "0x7a9fe22691c811ea339d9b73150e6911a5343dca",
      "salt": "0xbeca1e1793d9fd126675a232282cef6c1f3a83c868e7c852832923f742be009a",
      "assetIds": []
    },
    {
      "x": 400,
      "y": 251,
      "size": 1,
      "price": "4683000000000000000000",
      "reserved": "",
      "salt": "0x7caf3494d99edb47bbf7c06df75734ddd5eab65cdea5fc39a2c574e2e47deae4",
      "assetIds": [
        "41506478881403507969696680653240014914910929820314476107906210059990541021186"
      ]
    },
    {
      "x": 400,
      "y": 294,
      "size": 1,
      "price": "4683000000000000000000",
      "reserved": "",
      "salt": "0x74daed1b612885615b8c174e977cfc72bcb1ead85b80405ce26048217988161e",
      "assetIds": [
        "41506478881403507969696680653240014914910929820314476107906210059990541021185"
      ]
    },
    {
      "x": 400,
      "y": 295,
      "size": 1,
      "price": "4683000000000000000000",
      "reserved": "",
      "salt": "0xdf816fae9d89efe89ef19d9a8ebd35721da378f5f5caa52691bd2a8f9c5c769f",
      "assetIds": [
        "41506478881403507969696680653240014914910929820314476107906210059990541021188"
      ]
    },
    {
      "x": 400,
      "y": 296,
      "size": 1,
      "price": "4683000000000000000000",
      "reserved": "",
      "salt": "0x716aeb68d7070769ddcbfa5967f5245c11a8e17fb0b97efb0b350d60f1c01159",
      "assetIds": [
        "41506478881403507969696680653240014914910929820314476107906210059990541021186"
      ]
    },
    {
      "x": 400,
      "y": 297,
      "size": 1,
      "price": "4683000000000000000000",
      "reserved": "",
      "salt": "0xe6c5504c01f3eb637b58d173774eb7218398d4fcc53d85f1e03aa3c96e87a402",
      "assetIds": [
        "41506478881403507969696680653240014914910929820314476107906210059990541021189"
      ]
    },
    {
      "x": 400,
      "y": 298,
      "size": 1,
      "price": "4683000000000000000000",
      "reserved": "",
      "salt": "0x446411defc02d1cf9e5334cdc7e4185c04855ecc6bed6ef054aa7b72454c8f82",
      "assetIds": [
        "41506478881403507969696680653240014914910929820314476107906210059990541021186"
      ]
    },
    {
      "x": 400,
      "y": 299,
      "size": 1,
      "price": "4683000000000000000000",
      "reserved": "",
      "salt": "0x0d8384959447280371816b4f86d29df2157a5ddcf77ccf6938c6ff842ab83519",
      "assetIds": [
        "41506478881403507969696680653240014914910929820314476107906210059990541021184"
      ]
    },
    {
      "x": 401,
      "y": 228,
      "size": 1,
      "price": "4683000000000000000000",
      "reserved": "",
      "salt": "0x97e219dc097bef2a010ed3329d68fa52de3049eb19cb9607a98de6321b35fbcc",
      "assetIds": [
        "41506478881403507969696680653240014914910929820314476107906210059990541021189"
      ]
    },
    {
      "x": 401,
      "y": 229,
      "size": 1,
      "price": "4683000000000000000000",
      "reserved": "",
      "salt": "0xf3809e308453a56254f73488a91b7f7d57ae50dbae46c2c76114564541cb5f69",
      "assetIds": [
        "41506478881403507969696680653240014914910929820314476107906210059990541021185"
      ]
    },
    {
      "x": 401,
      "y": 230,
      "size": 1,
      "price": "4683000000000000000000",
      "reserved": "",
      "salt": "0x333c28c5aac7b57c8c2a0bfc72a095d296204d27c49b97ce0cec9060ba0df58a",
      "assetIds": [
        "41506478881403507969696680653240014914910929820314476107906210059990532622336"
      ]
    },
    {
      "x": 401,
      "y": 231,
      "size": 1,
      "price": "1011000000000000000000",
      "reserved": "0x7a9fe22691c811ea339d9b73150e6911a5343dca",
      "salt": "0xb43ded6bfd7e943aef526b3804f09aa4fb5669dbdc3aea5e73700e7888449b27",
      "assetIds": []
    },
    {
      "x": 401,
      "y": 232,
      "size": 1,
      "price": "4683000000000000000000",
      "reserved": "",
      "salt": "0x2a7fcbc4b152e9bb0c70b650bed85d20ede5dfa726dc742ac6d51db54de6fc66",
      "assetIds": [
        "41506478881403507969696680653240014914910929820314476107906210059990541021186"
      ]
    },
    {
      "x": 401,
      "y": 233,
      "size": 1,
      "price": "1011000000000000000000",
      "reserved": "0x7a9fe22691c811ea339d9b73150e6911a5343dca",
      "salt": "0xefa5f613e2e1c058a4bcdae7606fd2157a741d609713d217b1e10f7b3468b07e",
      "assetIds": []
    },
    {
      "x": 401,
      "y": 234,
      "size": 1,
      "price": "4683000000000000000000",
      "reserved": "",
      "salt": "0x2c894d0a06d5bedaf64d76b551a78543dcb78b05e0d05fca548c31ec600a6ea4",
      "assetIds": [
        "41506478881403507969696680653240014914910929820314476107906210059990541021189"
      ]
    },
    {
      "x": 401,
      "y": 235,
      "size": 1,
      "price": "4683000000000000000000",
      "reserved": "",
      "salt": "0x70f736cd2c162161e250f7f61ccd807b72611d6a0acbe2757ca26d8824a45e8c",
      "assetIds": [
        "41506478881403507969696680653240014914910929820314476107906210059990541021187"
      ]
    },
    {
      "x": 401,
      "y": 236,
      "size": 1,
      "price": "4683000000000000000000",
      "reserved": "",
      "salt": "0xf9207851a77f96ec04cdf1e77c7ff03b9f96fd0a9ee4d87ae4f66e6b98b4a706",
      "assetIds": [
        "41506478881403507969696680653240014914910929820314476107906210059990541021186"
      ]
    },
    {
      "x": 401,
      "y": 240,
      "size": 1,
      "price": "4683000000000000000000",
      "reserved": "",
      "salt": "0x198cc848d3743cc13bccc87a7ab62f66a7d46759ee995a506eb1743dc6d02fb0",
      "assetIds": [
        "41506478881403507969696680653240014914910929820314476107906210059990541021186"
      ]
    },
    {
      "x": 401,
      "y": 241,
      "size": 1,
      "price": "4683000000000000000000",
      "reserved": "",
      "salt": "0x1a9d39c4b9e28dc322efe80aeaf0033f9ef64b2fe7b53cbe05baa04d60e1e6ba",
      "assetIds": [
        "41506478881403507969696680653240014914910929820314476107906210059990541021187"
      ]
    },
    {
      "x": 401,
      "y": 242,
      "size": 1,
      "price": "4683000000000000000000",
      "reserved": "",
      "salt": "0x62d0b34c5c21dc1d860e2eb63de5c0a9dd14dd95f420420fe407866a7a554a75",
      "assetIds": [
        "41506478881403507969696680653240014914910929820314476107906210059990541021189"
      ]
    },
    {
      "x": 401,
      "y": 243,
      "size": 1,
      "price": "4683000000000000000000",
      "reserved": "",
      "salt": "0x34ebc141761398d8a3c4d59eac7c19f4eda089af5815fbef798646ea1847bdec",
      "assetIds": [
        "41506478881403507969696680653240014914910929820314476107906210059990541021184"
      ]
    },
    {
      "x": 401,
      "y": 244,
      "size": 1,
      "price": "4683000000000000000000",
      "reserved": "",
      "salt": "0xa5923c3fd7e9026baddf3aafbcf3dceca8d5107b4491e3148474c18675392c79",
      "assetIds": [
        "41506478881403507969696680653240014914910929820314476107906210059990532622336"
      ]
    },
    {
      "x": 401,
      "y": 245,
      "size": 1,
      "price": "4683000000000000000000",
      "reserved": "",
      "salt": "0xce2197cd8ec79b28d375bb039d5f85a426da6394443b5b233cd3244baba39c40",
      "assetIds": [
        "41506478881403507969696680653240014914910929820314476107906210059990541021184"
      ]
    },
    {
      "x": 401,
      "y": 246,
      "size": 1,
      "price": "4683000000000000000000",
      "reserved": "",
      "salt": "0x7008cd781798b5258ffc8549dc221e2504c221d8215768d4cf230030cde891f7",
      "assetIds": [
        "41506478881403507969696680653240014914910929820314476107906210059990541021187"
      ]
    },
    {
      "x": 401,
      "y": 247,
      "size": 1,
      "price": "4683000000000000000000",
      "reserved": "",
      "salt": "0x4d7ae3e7b01041548c4cf94fb134e6f4dae0e9631b1d8224cf71ab540e2617da",
      "assetIds": [
        "41506478881403507969696680653240014914910929820314476107906210059990541021185"
      ]
    },
    {
      "x": 401,
      "y": 248,
      "size": 1,
      "price": "4683000000000000000000",
      "reserved": "",
      "salt": "0x795138cacdf7070f94fb7f4ecbadd9f4df0bab4a5be4200a4422d72efe15e534",
      "assetIds": [
        "41506478881403507969696680653240014914910929820314476107906210059990541021189"
      ]
    },
    {
      "x": 401,
      "y": 249,
      "size": 1,
      "price": "4683000000000000000000",
      "reserved": "",
      "salt": "0xb6c7abd19f198a8841c1cdb3ad77ce1026fb51591294a764859976c02dae0dfd",
      "assetIds": [
        "41506478881403507969696680653240014914910929820314476107906210059990541021186"
      ]
    },
    {
      "x": 401,
      "y": 250,
      "size": 1,
      "price": "4683000000000000000000",
      "reserved": "",
      "salt": "0xf47b365ef534fc889e5be4d7d4b9d543717cd97ae5cb5cdb5c8a69bcc7bc4650",
      "assetIds": [
        "41506478881403507969696680653240014914910929820314476107906210059990532622336"
      ]
    },
    {
      "x": 401,
      "y": 251,
      "size": 1,
      "price": "4683000000000000000000",
      "reserved": "",
      "salt": "0x045e1d68c30d41be79c459b3a5066bff0b306d9ef4d38dcaf1037c219943a5af",
      "assetIds": [
        "41506478881403507969696680653240014914910929820314476107906210059990541021189"
      ]
    },
    {
      "x": 401,
      "y": 294,
      "size": 1,
      "price": "4683000000000000000000",
      "reserved": "",
      "salt": "0xd013f06c2ecbc729195e9f46286ff834015a4751281d4481dae98c40481374f1",
      "assetIds": [
        "41506478881403507969696680653240014914910929820314476107906210059990532622336"
      ]
    },
    {
      "x": 401,
      "y": 295,
      "size": 1,
      "price": "4683000000000000000000",
      "reserved": "",
      "salt": "0xdd9dcf0c6b5da47044d3dc9be5a39ffd31471c7fc18182c8735253889e59c43c",
      "assetIds": [
        "41506478881403507969696680653240014914910929820314476107906210059990541021189"
      ]
    },
    {
      "x": 401,
      "y": 296,
      "size": 1,
      "price": "4683000000000000000000",
      "reserved": "",
      "salt": "0x9117e2b909003eb3bae84b15af2dc84e5b8610bb600f11f9654676f1074f4a26",
      "assetIds": [
        "41506478881403507969696680653240014914910929820314476107906210059990541021189"
      ]
    },
    {
      "x": 401,
      "y": 297,
      "size": 1,
      "price": "4683000000000000000000",
      "reserved": "",
      "salt": "0x7f228ddc89403bf072952ecdcfaee458f4d591de4c153fdb2de328b167e994bb",
      "assetIds": [
        "41506478881403507969696680653240014914910929820314476107906210059990541021188"
      ]
    },
    {
      "x": 401,
      "y": 298,
      "size": 1,
      "price": "4683000000000000000000",
      "reserved": "",
      "salt": "0x7f7e1503a6d9177c955bbce8edd42eb9ceca6235362841c57c4df7d86b2568dd",
      "assetIds": [
        "41506478881403507969696680653240014914910929820314476107906210059990541021188"
      ]
    },
    {
      "x": 401,
      "y": 299,
      "size": 1,
      "price": "4683000000000000000000",
      "reserved": "",
      "salt": "0x9e7503a81da28f0b9cc7fc16480cfd1720d24db90959c5917183292bdfa261ba",
      "assetIds": [
        "41506478881403507969696680653240014914910929820314476107906210059990541021187"
      ]
    },
    {
      "x": 402,
      "y": 240,
      "size": 1,
      "price": "4683000000000000000000",
      "reserved": "",
      "salt": "0xa2868ba2d3a68a8cec6efe124e81d4ae8fa288e5a0a2fb4927b435f2373ac1a0",
      "assetIds": [
        "41506478881403507969696680653240014914910929820314476107906210059990541021185"
      ]
    },
    {
      "x": 402,
      "y": 241,
      "size": 1,
      "price": "4683000000000000000000",
      "reserved": "",
      "salt": "0x7460f10f2f287c1c392a39568f312cbb7ebdc4f34418d04a65de4edeb4fce9ba",
      "assetIds": [
        "41506478881403507969696680653240014914910929820314476107906210059990541021187"
      ]
    },
    {
      "x": 402,
      "y": 242,
      "size": 1,
      "price": "4683000000000000000000",
      "reserved": "",
      "salt": "0x1bd530e2926633391d9a1aac6620ce6e36a3d5651a7b61303d13540610d08fae",
      "assetIds": [
        "41506478881403507969696680653240014914910929820314476107906210059990532622336"
      ]
    },
    {
      "x": 402,
      "y": 243,
      "size": 1,
      "price": "4683000000000000000000",
      "reserved": "",
      "salt": "0x8c492f74ae38c829d218bf74ec6058115b93bd817c49702c10b029057750f718",
      "assetIds": [
        "41506478881403507969696680653240014914910929820314476107906210059990541021185"
      ]
    },
    {
      "x": 402,
      "y": 244,
      "size": 1,
      "price": "4683000000000000000000",
      "reserved": "",
      "salt": "0x2109202c76b46bd6747f837f13ee1821856b8830872ac5be40ecff94cca90ec1",
      "assetIds": [
        "41506478881403507969696680653240014914910929820314476107906210059990541021188"
      ]
    },
    {
      "x": 402,
      "y": 245,
      "size": 1,
      "price": "4683000000000000000000",
      "reserved": "",
      "salt": "0x8cba6094e0b302aba96bad4ee1571073f923f86d0ed33651e04fd8d7347c9024",
      "assetIds": [
        "41506478881403507969696680653240014914910929820314476107906210059990541021188"
      ]
    },
    {
      "x": 402,
      "y": 246,
      "size": 1,
      "price": "4683000000000000000000",
      "reserved": "",
      "salt": "0x9aa59d01f4008fd92e05629f403c5a95ecf21100d8a4cf4ffe2b4caae649980e",
      "assetIds": [
        "41506478881403507969696680653240014914910929820314476107906210059990541021189"
      ]
    },
    {
      "x": 402,
      "y": 247,
      "size": 1,
      "price": "4683000000000000000000",
      "reserved": "",
      "salt": "0x252310bd56674a348196adc4750e378a1157a9406bbd491fca1d652258d45f76",
      "assetIds": [
        "41506478881403507969696680653240014914910929820314476107906210059990541021185"
      ]
    },
    {
      "x": 402,
      "y": 248,
      "size": 1,
      "price": "4683000000000000000000",
      "reserved": "",
      "salt": "0x3c987e3f7f51f49e59c024f8f31a2272eb1b42748fdbf2d2b3b6113e306e6d18",
      "assetIds": [
        "41506478881403507969696680653240014914910929820314476107906210059990541021184"
      ]
    },
    {
      "x": 402,
      "y": 249,
      "size": 1,
      "price": "4683000000000000000000",
      "reserved": "",
      "salt": "0xd9b104462d8959bc01e9c9f067a4b2e1018ffb840f6f2350001f8034ce7d2f08",
      "assetIds": [
        "41506478881403507969696680653240014914910929820314476107906210059990541021187"
      ]
    },
    {
      "x": 402,
      "y": 250,
      "size": 1,
      "price": "4683000000000000000000",
      "reserved": "",
      "salt": "0x98bb1ced037c41d104e8e1ee73a52f4836ffad37f10d951b1f08fce5799b45cc",
      "assetIds": [
        "41506478881403507969696680653240014914910929820314476107906210059990541021188"
      ]
    },
    {
      "x": 402,
      "y": 251,
      "size": 1,
      "price": "4683000000000000000000",
      "reserved": "",
      "salt": "0x43b096eb518d464386605835de6df49f11871df3f353b58cb5b0bb994e90524a",
      "assetIds": [
        "41506478881403507969696680653240014914910929820314476107906210059990541021185"
      ]
    },
    {
      "x": 402,
      "y": 288,
      "size": 1,
      "price": "4683000000000000000000",
      "reserved": "",
      "salt": "0xb847476f8b743d4dcbcc7c5dc50a8e9250e6f8014e8d8d5baa3882dd8cf93849",
      "assetIds": [
        "41506478881403507969696680653240014914910929820314476107906210059990541021184"
      ]
    },
    {
      "x": 402,
      "y": 289,
      "size": 1,
      "price": "4683000000000000000000",
      "reserved": "",
      "salt": "0x7c0a6a30d87e8dc04b946abed5f7db9bf189f034446029a8fb89be994a9f69c8",
      "assetIds": [
        "41506478881403507969696680653240014914910929820314476107906210059990532622336"
      ]
    },
    {
      "x": 402,
      "y": 290,
      "size": 1,
      "price": "4683000000000000000000",
      "reserved": "",
      "salt": "0x7e96e563afa18515b21497a2ef1023684892a10f46a7f5eaad4eef5036c7d6e7",
      "assetIds": [
        "41506478881403507969696680653240014914910929820314476107906210059990541021186"
      ]
    },
    {
      "x": 402,
      "y": 291,
      "size": 1,
      "price": "4683000000000000000000",
      "reserved": "",
      "salt": "0x664ca24df7d669129a48f355699aba1a3d0d854511f57fef7ce98eeaba4fd5b4",
      "assetIds": [
        "41506478881403507969696680653240014914910929820314476107906210059990541021186"
      ]
    },
    {
      "x": 402,
      "y": 292,
      "size": 1,
      "price": "4683000000000000000000",
      "reserved": "",
      "salt": "0xa23726173f3fd3061ae9980da46f05fdaadcca91b4e3cc1eab0335e7168a8df0",
      "assetIds": [
        "41506478881403507969696680653240014914910929820314476107906210059990541021189"
      ]
    },
    {
      "x": 402,
      "y": 293,
      "size": 1,
      "price": "4683000000000000000000",
      "reserved": "",
      "salt": "0x1bbe651bc32c61bf3649d0988e934f68be38cbb969028bb96330969ef3fa6a97",
      "assetIds": [
        "41506478881403507969696680653240014914910929820314476107906210059990541021189"
      ]
    },
    {
      "x": 402,
      "y": 306,
      "size": 1,
      "price": "4683000000000000000000",
      "reserved": "",
      "salt": "0x5cb1415a63d3f061f368b7fa972faf92feb487ea695b4094917b14d260654f1c",
      "assetIds": [
        "41506478881403507969696680653240014914910929820314476107906210059990541021186"
      ]
    },
    {
      "x": 402,
      "y": 307,
      "size": 1,
      "price": "4683000000000000000000",
      "reserved": "",
      "salt": "0xb5614ffc5946c70569feed028b8f4b07dda6fa75cd017419fa04d73b6dfec7ce",
      "assetIds": [
        "41506478881403507969696680653240014914910929820314476107906210059990532622336"
      ]
    },
    {
      "x": 402,
      "y": 308,
      "size": 1,
      "price": "4683000000000000000000",
      "reserved": "",
      "salt": "0xad1cc60878ff8cfb60f08b0dbc30aa74f0b0432639a4c66b291ff47c8e6293d2",
      "assetIds": [
        "41506478881403507969696680653240014914910929820314476107906210059990541021189"
      ]
    },
    {
      "x": 402,
      "y": 309,
      "size": 1,
      "price": "4683000000000000000000",
      "reserved": "",
      "salt": "0x543ee93896080458a3ba55baf21bc48b68ba72da92b4f202674dbfe94284963a",
      "assetIds": [
        "41506478881403507969696680653240014914910929820314476107906210059990541021184"
      ]
    },
    {
      "x": 402,
      "y": 310,
      "size": 1,
      "price": "4683000000000000000000",
      "reserved": "",
      "salt": "0x3d60ab79d274e3d0fff3b9945cb491f8f409527d97ec120db0f5ce39a4418680",
      "assetIds": [
        "41506478881403507969696680653240014914910929820314476107906210059990541021189"
      ]
    },
    {
      "x": 402,
      "y": 311,
      "size": 1,
      "price": "4683000000000000000000",
      "reserved": "",
      "salt": "0xb24109e9594b846d5de108123c25b1627575478be523b5c6c0ec78621a88e2e9",
      "assetIds": [
        "41506478881403507969696680653240014914910929820314476107906210059990541021187"
      ]
    },
    {
      "x": 403,
      "y": 240,
      "size": 1,
      "price": "4683000000000000000000",
      "reserved": "",
      "salt": "0xef6686e479d814b0b7883b88d36bbbad7e858c665151bbe4a78693f7f843522f",
      "assetIds": [
        "41506478881403507969696680653240014914910929820314476107906210059990541021184"
      ]
    },
    {
      "x": 403,
      "y": 241,
      "size": 1,
      "price": "4683000000000000000000",
      "reserved": "",
      "salt": "0x2adbf7a5866757cd16b0cd857e5c56e3ff752d4eb7af761528f86e6dc2f69e57",
      "assetIds": [
        "41506478881403507969696680653240014914910929820314476107906210059990541021186"
      ]
    },
    {
      "x": 403,
      "y": 242,
      "size": 1,
      "price": "4683000000000000000000",
      "reserved": "",
      "salt": "0xf797ccdd9d5e11ec0d71a32efb2099ef3620f56fa826b8ba5832f9c62a2eed3f",
      "assetIds": [
        "41506478881403507969696680653240014914910929820314476107906210059990541021186"
      ]
    },
    {
      "x": 403,
      "y": 243,
      "size": 1,
      "price": "4683000000000000000000",
      "reserved": "",
      "salt": "0xf7e71fbe52ee85d8356849d08c6470dc36fd60440543dff46e60a6d2afdbcff7",
      "assetIds": [
        "41506478881403507969696680653240014914910929820314476107906210059990541021187"
      ]
    },
    {
      "x": 403,
      "y": 244,
      "size": 1,
      "price": "4683000000000000000000",
      "reserved": "",
      "salt": "0x0983fe6b7d1743b78f165f813a27007c137b113bf4f9c1985b753f4526082b67",
      "assetIds": [
        "41506478881403507969696680653240014914910929820314476107906210059990541021188"
      ]
    },
    {
      "x": 403,
      "y": 245,
      "size": 1,
      "price": "4683000000000000000000",
      "reserved": "",
      "salt": "0x263bf83b3b76b93e425fd5bc0d1d222354b638a0341eb39ac1cc63105617abe6",
      "assetIds": [
        "41506478881403507969696680653240014914910929820314476107906210059990541021188"
      ]
    },
    {
      "x": 403,
      "y": 246,
      "size": 1,
      "price": "4683000000000000000000",
      "reserved": "",
      "salt": "0x5455d45f54c9ded86a853b5887e8da5d7c609beb0f64fa77b94a0d524429af6a",
      "assetIds": [
        "41506478881403507969696680653240014914910929820314476107906210059990541021184"
      ]
    },
    {
      "x": 403,
      "y": 247,
      "size": 1,
      "price": "4683000000000000000000",
      "reserved": "",
      "salt": "0x9e52065270c54e3bd83eb8eb33e7e37f13fcfe57d101b29320c2a2dc8f3beb7d",
      "assetIds": [
        "41506478881403507969696680653240014914910929820314476107906210059990541021185"
      ]
    },
    {
      "x": 403,
      "y": 248,
      "size": 1,
      "price": "4683000000000000000000",
      "reserved": "",
      "salt": "0x60bc007f9958284572af0c82534aa51e3ca4c67c5876139ff303eb052060d5ef",
      "assetIds": [
        "41506478881403507969696680653240014914910929820314476107906210059990541021188"
      ]
    },
    {
      "x": 403,
      "y": 249,
      "size": 1,
      "price": "4683000000000000000000",
      "reserved": "",
      "salt": "0x1e809fd070b4940384d9a3069e6f49dda30b0016982e6c94aa7d1772f1ab0f8f",
      "assetIds": [
        "41506478881403507969696680653240014914910929820314476107906210059990541021188"
      ]
    },
    {
      "x": 403,
      "y": 250,
      "size": 1,
      "price": "4683000000000000000000",
      "reserved": "",
      "salt": "0x8ed3bc00ccecdc7be441cc36c640a9c1c9f33c15a56cecc947b5e715d771c862",
      "assetIds": [
        "41506478881403507969696680653240014914910929820314476107906210059990541021189"
      ]
    },
    {
      "x": 403,
      "y": 251,
      "size": 1,
      "price": "4683000000000000000000",
      "reserved": "",
      "salt": "0x523dad5f42a20e60ecf53a16169e76d9d67dbc8c71b656ef9a6fcfc5aed38c8e",
      "assetIds": [
        "41506478881403507969696680653240014914910929820314476107906210059990541021185"
      ]
    },
    {
      "x": 403,
      "y": 288,
      "size": 1,
      "price": "4683000000000000000000",
      "reserved": "",
      "salt": "0xd6d8e0254f8a1b9965cc648ee706ed8e8d717890dd1e6a9d2d6091c67635d3f5",
      "assetIds": [
        "41506478881403507969696680653240014914910929820314476107906210059990541021186"
      ]
    },
    {
      "x": 403,
      "y": 289,
      "size": 1,
      "price": "4683000000000000000000",
      "reserved": "",
      "salt": "0xc78111501e0cf76c459c9a41e78b1732471c2b4e6b6d80283a75cf67b8152c05",
      "assetIds": [
        "41506478881403507969696680653240014914910929820314476107906210059990541021186"
      ]
    },
    {
      "x": 403,
      "y": 290,
      "size": 1,
      "price": "4683000000000000000000",
      "reserved": "",
      "salt": "0x869ac56a9e3493e3f4ee5df87055717d63604b914391060e5066fcdfabe6e73e",
      "assetIds": [
        "41506478881403507969696680653240014914910929820314476107906210059990532622336"
      ]
    },
    {
      "x": 403,
      "y": 291,
      "size": 1,
      "price": "4683000000000000000000",
      "reserved": "",
      "salt": "0x2c1333dd6d65094ef9f509df49a8d1209b8ee7f769fd0fbfca06138eed34bde2",
      "assetIds": [
        "41506478881403507969696680653240014914910929820314476107906210059990541021188"
      ]
    },
    {
      "x": 403,
      "y": 292,
      "size": 1,
      "price": "4683000000000000000000",
      "reserved": "",
      "salt": "0xac6997c20302e833474b040bd70a02462ff6dbdc9a8909b03682e7d55b405811",
      "assetIds": [
        "41506478881403507969696680653240014914910929820314476107906210059990541021188"
      ]
    },
    {
      "x": 403,
      "y": 293,
      "size": 1,
      "price": "4683000000000000000000",
      "reserved": "",
      "salt": "0xa46696b086ca111578e6cce54e1a63e1acc1ee284eff592289438f9fcabaddd5",
      "assetIds": [
        "41506478881403507969696680653240014914910929820314476107906210059990541021188"
      ]
    },
    {
      "x": 403,
      "y": 306,
      "size": 1,
      "price": "4683000000000000000000",
      "reserved": "",
      "salt": "0xdaabb63df8ae21f6efc76333282654714ab8f6ecec03eb1e8ca55f8ee3f753d9",
      "assetIds": [
        "41506478881403507969696680653240014914910929820314476107906210059990541021187"
      ]
    },
    {
      "x": 403,
      "y": 307,
      "size": 1,
      "price": "4683000000000000000000",
      "reserved": "",
      "salt": "0x132d1bcdd78c6abf7e770c753728d4e5de82c4777bf41b11af07e131fe23f7b2",
      "assetIds": [
        "41506478881403507969696680653240014914910929820314476107906210059990541021184"
      ]
    },
    {
      "x": 403,
      "y": 308,
      "size": 1,
      "price": "4683000000000000000000",
      "reserved": "",
      "salt": "0xff19241df80adca3ea10452748c2dd45a6d140fdc2fdac3e42895f78b3d7001d",
      "assetIds": [
        "41506478881403507969696680653240014914910929820314476107906210059990541021188"
      ]
    },
    {
      "x": 403,
      "y": 309,
      "size": 1,
      "price": "1011000000000000000000",
      "reserved": "0x7a9fe22691c811ea339d9b73150e6911a5343dca",
      "salt": "0x1d3507a2d8c72e0bd8b982f742b00ffd93eba117b5fc90c1db0a6adb26d1d9ae",
      "assetIds": []
    },
    {
      "x": 403,
      "y": 310,
      "size": 1,
      "price": "4683000000000000000000",
      "reserved": "",
      "salt": "0x6ca79d601229a59645e02d6de2e5111ea570b8d2618d51d7012261809a39d43a",
      "assetIds": [
        "41506478881403507969696680653240014914910929820314476107906210059990541021187"
      ]
    },
    {
      "x": 403,
      "y": 311,
      "size": 1,
      "price": "4683000000000000000000",
      "reserved": "",
      "salt": "0x7e4eb95daa3da3ab09fc7529ff2582c7f878001a4a09e6c553fd6a86622deb60",
      "assetIds": [
        "41506478881403507969696680653240014914910929820314476107906210059990541021187"
      ]
    },
    {
      "x": 404,
      "y": 240,
      "size": 1,
      "price": "4683000000000000000000",
      "reserved": "",
      "salt": "0xd428f178b5fe8fbaeba1d307ef3889da319f3d8881b55f03a59896985e8a4174",
      "assetIds": [
        "41506478881403507969696680653240014914910929820314476107906210059990541021188"
      ]
    },
    {
      "x": 404,
      "y": 241,
      "size": 1,
      "price": "4683000000000000000000",
      "reserved": "",
      "salt": "0xb83c30aeb332d6fb1189321f0e7c17ef7aec09ae63b22e03fdaa674590c52c64",
      "assetIds": [
        "41506478881403507969696680653240014914910929820314476107906210059990541021186"
      ]
    },
    {
      "x": 404,
      "y": 242,
      "size": 1,
      "price": "4683000000000000000000",
      "reserved": "",
      "salt": "0x2f20755fc7c55ba96663c9b8dca154249799cb31ca274555fb9f2f60593af1e0",
      "assetIds": [
        "41506478881403507969696680653240014914910929820314476107906210059990541021188"
      ]
    },
    {
      "x": 404,
      "y": 243,
      "size": 1,
      "price": "4683000000000000000000",
      "reserved": "",
      "salt": "0xfbff189fa5924c15cdaeb59b2a0886a244416d045d2abc2157986d2747f8e377",
      "assetIds": [
        "41506478881403507969696680653240014914910929820314476107906210059990541021187"
      ]
    },
    {
      "x": 404,
      "y": 244,
      "size": 1,
      "price": "4683000000000000000000",
      "reserved": "",
      "salt": "0x98a3ca393b75141789aff957440f8315010cd4b8a3d9c898a37ba8d1fd809f50",
      "assetIds": [
        "41506478881403507969696680653240014914910929820314476107906210059990541021188"
      ]
    },
    {
      "x": 404,
      "y": 245,
      "size": 1,
      "price": "4683000000000000000000",
      "reserved": "",
      "salt": "0xd48b71f0022045ca8869d50e113177f7d87ce692ab50edb407976bab1ba75c9e",
      "assetIds": [
        "41506478881403507969696680653240014914910929820314476107906210059990541021188"
      ]
    },
    {
      "x": 404,
      "y": 246,
      "size": 1,
      "price": "4683000000000000000000",
      "reserved": "",
      "salt": "0xd10a95437791cccdaef450a13f47ba6313dd0e75395659119f73ecbe5453613d",
      "assetIds": [
        "41506478881403507969696680653240014914910929820314476107906210059990541021189"
      ]
    },
    {
      "x": 404,
      "y": 247,
      "size": 1,
      "price": "4683000000000000000000",
      "reserved": "",
      "salt": "0xd7cd66c1d773a8d1fbce674d1e65243346ee324954b95818beb40cbf72c479ba",
      "assetIds": [
        "41506478881403507969696680653240014914910929820314476107906210059990541021189"
      ]
    },
    {
      "x": 404,
      "y": 248,
      "size": 1,
      "price": "4683000000000000000000",
      "reserved": "",
      "salt": "0x79103ea1658c773c073e9be3f1fcf4360291684cd7ff1bd81ddb33379fb9adfe",
      "assetIds": [
        "41506478881403507969696680653240014914910929820314476107906210059990541021186"
      ]
    },
    {
      "x": 404,
      "y": 249,
      "size": 1,
      "price": "4683000000000000000000",
      "reserved": "",
      "salt": "0xe6b30c2bb752cc5bcb51820b4f9967b6ac0973cecc3c65900d3cec479c938dda",
      "assetIds": [
        "41506478881403507969696680653240014914910929820314476107906210059990541021188"
      ]
    },
    {
      "x": 404,
      "y": 250,
      "size": 1,
      "price": "4683000000000000000000",
      "reserved": "",
      "salt": "0x5466e4b0980acfe0d2b9681d12b5d1137426f2f8f49c4ca541c4df48758f53d5",
      "assetIds": [
        "41506478881403507969696680653240014914910929820314476107906210059990541021185"
      ]
    },
    {
      "x": 404,
      "y": 251,
      "size": 1,
      "price": "4683000000000000000000",
      "reserved": "",
      "salt": "0xb2c76a9672be277716b85c79cd3faa108cd3835a68d9d85cd99c4c74f4ff6a70",
      "assetIds": [
        "41506478881403507969696680653240014914910929820314476107906210059990532622336"
      ]
    },
    {
      "x": 404,
      "y": 288,
      "size": 1,
      "price": "4683000000000000000000",
      "reserved": "",
      "salt": "0x2c5464b6eff4ba113510e338da64cf7764d393b8635bad9a077afca99fce2c34",
      "assetIds": [
        "41506478881403507969696680653240014914910929820314476107906210059990541021187"
      ]
    },
    {
      "x": 404,
      "y": 289,
      "size": 1,
      "price": "4683000000000000000000",
      "reserved": "",
      "salt": "0x98762829ff03089a219a817a2a3894e9051652d29c735b8affc3b36e72ce9e7e",
      "assetIds": [
        "41506478881403507969696680653240014914910929820314476107906210059990532622336"
      ]
    },
    {
      "x": 404,
      "y": 290,
      "size": 1,
      "price": "4683000000000000000000",
      "reserved": "",
      "salt": "0xfce3b1baf96e6fa3d35e27f1afbdf2db58a9749a8c43c6abea8ebbd3e38a3a13",
      "assetIds": [
        "41506478881403507969696680653240014914910929820314476107906210059990541021184"
      ]
    },
    {
      "x": 404,
      "y": 291,
      "size": 1,
      "price": "4683000000000000000000",
      "reserved": "",
      "salt": "0x8e1fdcb0a2067702b3da87fb86a540966c901f317bc76f23ad16912d7bd96112",
      "assetIds": [
        "41506478881403507969696680653240014914910929820314476107906210059990541021185"
      ]
    },
    {
      "x": 404,
      "y": 292,
      "size": 1,
      "price": "4683000000000000000000",
      "reserved": "",
      "salt": "0x1b6cfa575b045658c02df9927d901828cfd7cad4574eeb7466864075ef02603f",
      "assetIds": [
        "41506478881403507969696680653240014914910929820314476107906210059990541021187"
      ]
    },
    {
      "x": 404,
      "y": 293,
      "size": 1,
      "price": "4683000000000000000000",
      "reserved": "",
      "salt": "0x4c3890efee80c6fc696daf09b341a72e615f736c706af3c9d42c75d6f3e4659c",
      "assetIds": [
        "41506478881403507969696680653240014914910929820314476107906210059990541021188"
      ]
    },
    {
      "x": 404,
      "y": 306,
      "size": 1,
      "price": "4683000000000000000000",
      "reserved": "",
      "salt": "0x0a4753fb3158572e5dd072f5ff8551e9f474f2b16d6e224acd96dd8276f5100a",
      "assetIds": [
        "41506478881403507969696680653240014914910929820314476107906210059990541021188"
      ]
    },
    {
      "x": 404,
      "y": 307,
      "size": 1,
      "price": "4683000000000000000000",
      "reserved": "",
      "salt": "0x60b823e2c78323cf41307106c6b043897781d618f8e6c05584a9818d22c2f1fa",
      "assetIds": [
        "41506478881403507969696680653240014914910929820314476107906210059990541021189"
      ]
    },
    {
      "x": 404,
      "y": 308,
      "size": 1,
      "price": "4683000000000000000000",
      "reserved": "",
      "salt": "0x0ae5a6163f3b514e3a73be35ee47514224c63efdd115164036a3f7c5398f3d64",
      "assetIds": [
        "41506478881403507969696680653240014914910929820314476107906210059990541021186"
      ]
    },
    {
      "x": 404,
      "y": 309,
      "size": 1,
      "price": "4683000000000000000000",
      "reserved": "",
      "salt": "0xda0a59d6526fd38d479d421a585a50d0f577d3ac87dd85740380707a43d97d46",
      "assetIds": [
        "41506478881403507969696680653240014914910929820314476107906210059990541021186"
      ]
    },
    {
      "x": 404,
      "y": 310,
      "size": 1,
      "price": "4683000000000000000000",
      "reserved": "",
      "salt": "0x1aa8fb600e1ff53885c6fb520c880aa870b1b3e269217bf3ed385f71e63fdc7e",
      "assetIds": [
        "41506478881403507969696680653240014914910929820314476107906210059990541021184"
      ]
    },
    {
      "x": 404,
      "y": 311,
      "size": 1,
      "price": "4683000000000000000000",
      "reserved": "",
      "salt": "0xbc3ec59f67c1e865a8890a3ce3912b6fcbe195ee819049edd75a2827adfa157f",
      "assetIds": [
        "41506478881403507969696680653240014914910929820314476107906210059990541021185"
      ]
    },
    {
      "x": 405,
      "y": 240,
      "size": 1,
      "price": "4683000000000000000000",
      "reserved": "",
      "salt": "0x725a769f5f01afe6966ca983dcdb567e2e09534ef8535e17b5576dfe4ddeb036",
      "assetIds": [
        "41506478881403507969696680653240014914910929820314476107906210059990541021185"
      ]
    },
    {
      "x": 405,
      "y": 241,
      "size": 1,
      "price": "4683000000000000000000",
      "reserved": "",
      "salt": "0xc0e2a01018b93e6558d1afebdf211dd77772642419157348599f2bb8230820dc",
      "assetIds": [
        "41506478881403507969696680653240014914910929820314476107906210059990541021189"
      ]
    },
    {
      "x": 405,
      "y": 242,
      "size": 1,
      "price": "4683000000000000000000",
      "reserved": "",
      "salt": "0x6a6678476710437473d55041032ae220805eb97d44a78103b42504ce37aa67c7",
      "assetIds": [
        "41506478881403507969696680653240014914910929820314476107906210059990541021189"
      ]
    },
    {
      "x": 405,
      "y": 243,
      "size": 1,
      "price": "4683000000000000000000",
      "reserved": "",
      "salt": "0xdb089564fbf70d45a2efefff82d930b13abcf80f17f53af93da553ee587d8996",
      "assetIds": [
        "41506478881403507969696680653240014914910929820314476107906210059990541021185"
      ]
    },
    {
      "x": 405,
      "y": 244,
      "size": 1,
      "price": "4683000000000000000000",
      "reserved": "",
      "salt": "0xc9bbcf61b193ae8d1da37fecdf0d1d041395f8741478da240167765c14b471c2",
      "assetIds": [
        "41506478881403507969696680653240014914910929820314476107906210059990541021189"
      ]
    },
    {
      "x": 405,
      "y": 245,
      "size": 1,
      "price": "4683000000000000000000",
      "reserved": "",
      "salt": "0x86d289b882d14ed79c2b26e0a2c079fa059adf15b34d89c6acdd8f5678161902",
      "assetIds": [
        "41506478881403507969696680653240014914910929820314476107906210059990541021189"
      ]
    },
    {
      "x": 405,
      "y": 246,
      "size": 1,
      "price": "4683000000000000000000",
      "reserved": "",
      "salt": "0xab49f7c2431ce0c4e72b5f673841f600ea8414359760d4bdeb9d46abd764feb6",
      "assetIds": [
        "41506478881403507969696680653240014914910929820314476107906210059990541021185"
      ]
    },
    {
      "x": 405,
      "y": 247,
      "size": 1,
      "price": "1011000000000000000000",
      "reserved": "0x7a9fe22691c811ea339d9b73150e6911a5343dca",
      "salt": "0x6af6e55f158b319f08fdd8e2d23bf960569015894960babcd80aa036a1d8e44b",
      "assetIds": []
    },
    {
      "x": 405,
      "y": 248,
      "size": 1,
      "price": "4683000000000000000000",
      "reserved": "",
      "salt": "0x12fc86ab06370014b5b27357874f904c6ba36df8be400892f4b861764ca86938",
      "assetIds": [
        "41506478881403507969696680653240014914910929820314476107906210059990541021184"
      ]
    },
    {
      "x": 405,
      "y": 249,
      "size": 1,
      "price": "4683000000000000000000",
      "reserved": "",
      "salt": "0x091ff81f2e23de8dfd4c24e08c0a60e43209d816e68b5535a13e457469d2dd8e",
      "assetIds": [
        "41506478881403507969696680653240014914910929820314476107906210059990541021187"
      ]
    },
    {
      "x": 405,
      "y": 250,
      "size": 1,
      "price": "4683000000000000000000",
      "reserved": "",
      "salt": "0xa9b55a8534f5d0a59318f611f8fcf65c67175e8dbc4530e9710233b98c91f096",
      "assetIds": [
        "41506478881403507969696680653240014914910929820314476107906210059990541021187"
      ]
    },
    {
      "x": 405,
      "y": 251,
      "size": 1,
      "price": "4683000000000000000000",
      "reserved": "",
      "salt": "0xda0455077a1a49274c6a04c40789782e7dd15ae27fe19106744e1f3de5cacd0a",
      "assetIds": [
        "41506478881403507969696680653240014914910929820314476107906210059990541021189"
      ]
    },
    {
      "x": 405,
      "y": 291,
      "size": 1,
      "price": "4683000000000000000000",
      "reserved": "",
      "salt": "0xf6c01f0d5b257cdf8bf94686a9521d2fcd2b1eac113a2741115d095979d74d2d",
      "assetIds": [
        "41506478881403507969696680653240014914910929820314476107906210059990541021188"
      ]
    },
    {
      "x": 405,
      "y": 292,
      "size": 1,
      "price": "1011000000000000000000",
      "reserved": "0x7a9fe22691c811ea339d9b73150e6911a5343dca",
      "salt": "0xdd46ba6c7e186d86de3d163bd969bf044330b18093ab66835f827deacfb5b525",
      "assetIds": []
    },
    {
      "x": 405,
      "y": 293,
      "size": 1,
      "price": "4683000000000000000000",
      "reserved": "",
      "salt": "0xe8a4ac94267a3cac91dfed942724583cbe198039ac15ed6a03420ec376505e3d",
      "assetIds": [
        "41506478881403507969696680653240014914910929820314476107906210059990541021186"
      ]
    },
    {
      "x": 405,
      "y": 306,
      "size": 1,
      "price": "4683000000000000000000",
      "reserved": "",
      "salt": "0x1d6b5766e70f1e43a3e796bbf5b214fc3685fbea8b769397ed3d3adcc9497b92",
      "assetIds": [
        "41506478881403507969696680653240014914910929820314476107906210059990541021185"
      ]
    },
    {
      "x": 405,
      "y": 307,
      "size": 1,
      "price": "4683000000000000000000",
      "reserved": "",
      "salt": "0xec6d3ec3eff0527113ade1e386fd72e14912bf31d7a3aab6ca40203ee09d5e91",
      "assetIds": [
        "41506478881403507969696680653240014914910929820314476107906210059990541021189"
      ]
    },
    {
      "x": 405,
      "y": 308,
      "size": 1,
      "price": "4683000000000000000000",
      "reserved": "",
      "salt": "0x92e9371349d451a551adc8008039e786751f23a266fe4b78809a25aa110adb8e",
      "assetIds": [
        "41506478881403507969696680653240014914910929820314476107906210059990541021185"
      ]
    },
    {
      "x": 405,
      "y": 309,
      "size": 1,
      "price": "4683000000000000000000",
      "reserved": "",
      "salt": "0x02b18a139777fe6ce632bbd5e1ac68439509cc7460a78aabc59fe1c3d24b7e46",
      "assetIds": [
        "41506478881403507969696680653240014914910929820314476107906210059990532622336"
      ]
    },
    {
      "x": 405,
      "y": 310,
      "size": 1,
      "price": "4683000000000000000000",
      "reserved": "",
      "salt": "0x8ae80474b8f2a25b27703c983bc87fc292ccdbbe5c130bc86ca232c977d829d6",
      "assetIds": [
        "41506478881403507969696680653240014914910929820314476107906210059990541021184"
      ]
    },
    {
      "x": 405,
      "y": 311,
      "size": 1,
      "price": "4683000000000000000000",
      "reserved": "",
      "salt": "0xf7cadc613c168fd104828b78e8c75636d7f08cf1d9ebbef0c24d2610a2306f71",
      "assetIds": [
        "41506478881403507969696680653240014914910929820314476107906210059990541021189"
      ]
    },
    {
      "x": 406,
      "y": 240,
      "size": 1,
      "price": "4683000000000000000000",
      "reserved": "",
      "salt": "0x47441c063fde7647f3f57832ff43bc3ec41decc8eb5113e646219693fba88428",
      "assetIds": [
        "41506478881403507969696680653240014914910929820314476107906210059990541021188"
      ]
    },
    {
      "x": 406,
      "y": 241,
      "size": 1,
      "price": "4683000000000000000000",
      "reserved": "",
      "salt": "0x869f97ca539ad1671386b0dd60a20b7886cda22e55f60e16402aa95cc6f2d213",
      "assetIds": [
        "41506478881403507969696680653240014914910929820314476107906210059990541021186"
      ]
    },
    {
      "x": 406,
      "y": 242,
      "size": 1,
      "price": "1011000000000000000000",
      "reserved": "0x7a9fe22691c811ea339d9b73150e6911a5343dca",
      "salt": "0x91150fd47ea3df97739cc498725ed4e98d44e1a78870bcd6b8ac5c303dbf9de1",
      "assetIds": []
    },
    {
      "x": 406,
      "y": 243,
      "size": 1,
      "price": "4683000000000000000000",
      "reserved": "",
      "salt": "0x6f7b843ce236133a7f7fe733c4a3b98b1cdcaafcbbda9220b178b89623731937",
      "assetIds": [
        "41506478881403507969696680653240014914910929820314476107906210059990541021186"
      ]
    },
    {
      "x": 406,
      "y": 244,
      "size": 1,
      "price": "4683000000000000000000",
      "reserved": "",
      "salt": "0x61d4adeedf009864ac08abcda95d47cf5bba68b21b79ba2b9fb2c60b92183f39",
      "assetIds": [
        "41506478881403507969696680653240014914910929820314476107906210059990541021184"
      ]
    },
    {
      "x": 406,
      "y": 245,
      "size": 1,
      "price": "4683000000000000000000",
      "reserved": "",
      "salt": "0x41acd433678ded607f5c646387cac0be603c691b6440c9c0d2462c93636a6175",
      "assetIds": [
        "41506478881403507969696680653240014914910929820314476107906210059990541021188"
      ]
    },
    {
      "x": 406,
      "y": 246,
      "size": 1,
      "price": "4683000000000000000000",
      "reserved": "",
      "salt": "0xa0b45d09c0c7e8369a34af8c48e5f3fe5794976fc6a03d055284eea047f66cdc",
      "assetIds": [
        "41506478881403507969696680653240014914910929820314476107906210059990541021184"
      ]
    },
    {
      "x": 406,
      "y": 247,
      "size": 1,
      "price": "4683000000000000000000",
      "reserved": "",
      "salt": "0xe9315d191cc48b03bd1fecc92cd089ac5758f22d1366bb4d5f7920d5909275c6",
      "assetIds": [
        "41506478881403507969696680653240014914910929820314476107906210059990541021188"
      ]
    },
    {
      "x": 406,
      "y": 248,
      "size": 1,
      "price": "4683000000000000000000",
      "reserved": "",
      "salt": "0x880416601ed3013427aec91cad9138d1ab64530500a7ec0615b42a81b7cf74c2",
      "assetIds": [
        "41506478881403507969696680653240014914910929820314476107906210059990541021188"
      ]
    },
    {
      "x": 406,
      "y": 249,
      "size": 1,
      "price": "4683000000000000000000",
      "reserved": "",
      "salt": "0xac39d22f6c1ac706c5da5dcb8ff07a8a2b22571dec1bc8da3acc57c600f242a8",
      "assetIds": [
        "41506478881403507969696680653240014914910929820314476107906210059990541021188"
      ]
    },
    {
      "x": 406,
      "y": 250,
      "size": 1,
      "price": "4683000000000000000000",
      "reserved": "",
      "salt": "0xb0de3b4c82ea7829357de281053f59db4904ae788f96238ec2795e70e23e8cc8",
      "assetIds": [
        "41506478881403507969696680653240014914910929820314476107906210059990532622336"
      ]
    },
    {
      "x": 406,
      "y": 251,
      "size": 1,
      "price": "4683000000000000000000",
      "reserved": "",
      "salt": "0xbe9086fc2abbd67b51087a17aecead70cb4717164310c9828f84d7cab83328ac",
      "assetIds": [
        "41506478881403507969696680653240014914910929820314476107906210059990541021186"
      ]
    },
    {
      "x": 406,
      "y": 291,
      "size": 1,
      "price": "4683000000000000000000",
      "reserved": "",
      "salt": "0xf05da8416778d609cbe80e5659effdf191c454bcaed8dad77340c94cecc3bab6",
      "assetIds": [
        "41506478881403507969696680653240014914910929820314476107906210059990541021187"
      ]
    },
    {
      "x": 406,
      "y": 292,
      "size": 1,
      "price": "4683000000000000000000",
      "reserved": "",
      "salt": "0xf4d1abe9fe707657d23f132cbb56d153bddb94e6e651edb30be92e074524e1cd",
      "assetIds": [
        "41506478881403507969696680653240014914910929820314476107906210059990541021188"
      ]
    },
    {
      "x": 406,
      "y": 293,
      "size": 1,
      "price": "4683000000000000000000",
      "reserved": "",
      "salt": "0xf09e087f8bdec718ccc40d1686835c2801d9cd024ef971753d1dc307ef26b452",
      "assetIds": [
        "41506478881403507969696680653240014914910929820314476107906210059990541021185"
      ]
    },
    {
      "x": 406,
      "y": 306,
      "size": 1,
      "price": "4683000000000000000000",
      "reserved": "",
      "salt": "0x5684acdff0f12addf48e3dbfd9fab1806560e5799b0a5440d01f636c21a1006e",
      "assetIds": [
        "41506478881403507969696680653240014914910929820314476107906210059990541021187"
      ]
    },
    {
      "x": 406,
      "y": 307,
      "size": 1,
      "price": "4683000000000000000000",
      "reserved": "",
      "salt": "0xcd549fd254987421831f954cad2c4e014af0a4e9f188a4af407c61a6614395ec",
      "assetIds": [
        "41506478881403507969696680653240014914910929820314476107906210059990532622336"
      ]
    },
    {
      "x": 406,
      "y": 308,
      "size": 1,
      "price": "4683000000000000000000",
      "reserved": "",
      "salt": "0x46fa5b01a50dc3c419680f5fa0869033f02239afbf9eaf945c7e3e14917129ee",
      "assetIds": [
        "41506478881403507969696680653240014914910929820314476107906210059990541021187"
      ]
    },
    {
      "x": 406,
      "y": 309,
      "size": 1,
      "price": "4683000000000000000000",
      "reserved": "",
      "salt": "0x2a07577f446f54fe7b795f087c6b167f982901e1e7735bc9d3c2fa961ee590b9",
      "assetIds": [
        "41506478881403507969696680653240014914910929820314476107906210059990541021184"
      ]
    },
    {
      "x": 406,
      "y": 310,
      "size": 1,
      "price": "4683000000000000000000",
      "reserved": "",
      "salt": "0x0c7f2b82eb7b3f82e05d2ba4ba29b4bbf7e72c2bb1dd58a9a8b752b898069603",
      "assetIds": [
        "41506478881403507969696680653240014914910929820314476107906210059990541021184"
      ]
    },
    {
      "x": 406,
      "y": 311,
      "size": 1,
      "price": "4683000000000000000000",
      "reserved": "",
      "salt": "0xf94775637ac8f074509c618fcbdd7c714471274552b6df97d46386345c66b8aa",
      "assetIds": [
        "41506478881403507969696680653240014914910929820314476107906210059990541021184"
      ]
    },
    {
      "x": 407,
      "y": 240,
      "size": 1,
      "price": "4683000000000000000000",
      "reserved": "",
      "salt": "0x9fbb2ba341bbe324cbe61d6de3ef647bf2da6ed42b91d4b2627eb51feec8218f",
      "assetIds": [
        "41506478881403507969696680653240014914910929820314476107906210059990541021186"
      ]
    },
    {
      "x": 407,
      "y": 241,
      "size": 1,
      "price": "4683000000000000000000",
      "reserved": "",
      "salt": "0x63f17d7dd0a02d015d9c5cc39c09eda4abf50eab5ed4a6a7aa65324ef8008935",
      "assetIds": [
        "41506478881403507969696680653240014914910929820314476107906210059990541021186"
      ]
    },
    {
      "x": 407,
      "y": 242,
      "size": 1,
      "price": "4683000000000000000000",
      "reserved": "",
      "salt": "0xb78373fe135427e6e9c690dd5ddc74e2c704fc2eae8b0e5faa2a31e6537aef96",
      "assetIds": [
        "41506478881403507969696680653240014914910929820314476107906210059990541021188"
      ]
    },
    {
      "x": 407,
      "y": 243,
      "size": 1,
      "price": "4683000000000000000000",
      "reserved": "",
      "salt": "0xab3d3fbc13a4ed4cd2ed66a9cea42814c9f44acd10578c05edea8795e58411fe",
      "assetIds": [
        "41506478881403507969696680653240014914910929820314476107906210059990541021188"
      ]
    },
    {
      "x": 407,
      "y": 244,
      "size": 1,
      "price": "4683000000000000000000",
      "reserved": "",
      "salt": "0xd2bbf4224951d2ca07e4b014f3659ed2b3990fca1641db9395dc77a7778915db",
      "assetIds": [
        "41506478881403507969696680653240014914910929820314476107906210059990541021189"
      ]
    },
    {
      "x": 407,
      "y": 245,
      "size": 1,
      "price": "4683000000000000000000",
      "reserved": "",
      "salt": "0x146f1bf24b0c6c458da6c2e176c1c776e01896a5a06a88510ac0dc8a9507150e",
      "assetIds": [
        "41506478881403507969696680653240014914910929820314476107906210059990541021184"
      ]
    },
    {
      "x": 407,
      "y": 246,
      "size": 1,
      "price": "4683000000000000000000",
      "reserved": "",
      "salt": "0x57bac4456c2356cd71ecb0cbe1970e714d9f3401b80d072afd28b2a269ee2c77",
      "assetIds": [
        "41506478881403507969696680653240014914910929820314476107906210059990541021189"
      ]
    },
    {
      "x": 407,
      "y": 247,
      "size": 1,
      "price": "4683000000000000000000",
      "reserved": "",
      "salt": "0x62c7403a3cfb4d91fcc925f06f15be243a59a369cbe020d57cc4e6c501324b03",
      "assetIds": [
        "41506478881403507969696680653240014914910929820314476107906210059990541021185"
      ]
    },
    {
      "x": 407,
      "y": 248,
      "size": 1,
      "price": "4683000000000000000000",
      "reserved": "",
      "salt": "0xa71af536fd9bd7c170a6862e93ca962ffd19b437c4173fcac0d735ed581d9616",
      "assetIds": [
        "41506478881403507969696680653240014914910929820314476107906210059990541021187"
      ]
    },
    {
      "x": 407,
      "y": 249,
      "size": 1,
      "price": "4683000000000000000000",
      "reserved": "",
      "salt": "0xfd459e83d762b73a83ade0aaffb7241cf5db4b612cbde6d35c4a92b21f0ca0e4",
      "assetIds": [
        "41506478881403507969696680653240014914910929820314476107906210059990541021185"
      ]
    },
    {
      "x": 407,
      "y": 250,
      "size": 1,
      "price": "4683000000000000000000",
      "reserved": "",
      "salt": "0x256b14830230f609770142aef01b17e904f613f4161aec7cd1578b04e5679f00",
      "assetIds": [
        "41506478881403507969696680653240014914910929820314476107906210059990541021187"
      ]
    },
    {
      "x": 407,
      "y": 251,
      "size": 1,
      "price": "4683000000000000000000",
      "reserved": "",
      "salt": "0x1bc9c048c34e5a17a906dbb6eec7ddaac5d5203a3e7bf22c99e7d62a38b4fe4f",
      "assetIds": [
        "41506478881403507969696680653240014914910929820314476107906210059990541021189"
      ]
    },
    {
      "x": 407,
      "y": 291,
      "size": 1,
      "price": "4683000000000000000000",
      "reserved": "",
      "salt": "0x2456178b6c645dab5fe96f62cd3adcc4c186cf98d50c3803b35ad5f5bb407767",
      "assetIds": [
        "41506478881403507969696680653240014914910929820314476107906210059990541021185"
      ]
    },
    {
      "x": 407,
      "y": 292,
      "size": 1,
      "price": "4683000000000000000000",
      "reserved": "",
      "salt": "0x7966962b0b809400ae46ca48ac5bc7d6c81633eecf26b4aaedad5d0669956e17",
      "assetIds": [
        "41506478881403507969696680653240014914910929820314476107906210059990541021185"
      ]
    },
    {
      "x": 407,
      "y": 293,
      "size": 1,
      "price": "4683000000000000000000",
      "reserved": "",
      "salt": "0x575be5e303e771037ed5f280f7d0f4d11466540e5f8c078750882a5b78d385d8",
      "assetIds": [
        "41506478881403507969696680653240014914910929820314476107906210059990541021185"
      ]
    },
    {
      "x": 407,
      "y": 306,
      "size": 1,
      "price": "4683000000000000000000",
      "reserved": "",
      "salt": "0x19bcc3aba4796669d04ecf6af199f709151916094a5c2aeaf52cbb9722e5922c",
      "assetIds": [
        "41506478881403507969696680653240014914910929820314476107906210059990541021189"
      ]
    },
    {
      "x": 407,
      "y": 307,
      "size": 1,
      "price": "4683000000000000000000",
      "reserved": "",
      "salt": "0xda0584aa1261bf4f75e12422afe4c1af48b97967e445d9b5593e3a6298030d9c",
      "assetIds": [
        "41506478881403507969696680653240014914910929820314476107906210059990532622336"
      ]
    },
    {
      "x": 407,
      "y": 308,
      "size": 1,
      "price": "4683000000000000000000",
      "reserved": "",
      "salt": "0xdc08bb2ac540c6765ca0781f3c61caea3a29c0023d4210c21764102ea4678886",
      "assetIds": [
        "41506478881403507969696680653240014914910929820314476107906210059990541021185"
      ]
    },
    {
      "x": 407,
      "y": 309,
      "size": 1,
      "price": "4683000000000000000000",
      "reserved": "",
      "salt": "0x978998a6f8436a512935579f8e8c6a30e4459eb0d1d20284373f83e9e13b7409",
      "assetIds": [
        "41506478881403507969696680653240014914910929820314476107906210059990532622336"
      ]
    },
    {
      "x": 407,
      "y": 310,
      "size": 1,
      "price": "4683000000000000000000",
      "reserved": "",
      "salt": "0xd67ba1710d36d125e96751b61953cd562c792acbf44e8c899c6485b016792738",
      "assetIds": [
        "41506478881403507969696680653240014914910929820314476107906210059990541021186"
      ]
    },
    {
      "x": 407,
      "y": 311,
      "size": 1,
      "price": "4683000000000000000000",
      "reserved": "",
      "salt": "0xf9dbf7820ace4629a774cee0dcd425d6b51ef1658841cf0c699321808eeb2244",
      "assetIds": [
        "41506478881403507969696680653240014914910929820314476107906210059990541021185"
      ]
    },
    {
      "x": 333,
      "y": 258,
      "size": 3,
      "price": "8648000000000000000000",
      "reserved": "",
      "salt": "0xa9d38e1ceb918bbeda8f5e2624ffa15cc7e6a72a3afa9d406612fdad8ca45641",
      "assetIds": []
    },
    {
      "x": 333,
      "y": 270,
      "size": 3,
      "price": "8648000000000000000000",
      "reserved": "0x7a9fe22691c811ea339d9b73150e6911a5343dca",
      "salt": "0x9d3ae917294d6f1f60ffcbd03528e5c95879377e693f9d0afb9ef324e6293950",
      "assetIds": []
    },
    {
      "x": 333,
      "y": 273,
      "size": 3,
      "price": "8648000000000000000000",
      "reserved": "",
      "salt": "0x783ef697b60ed0c2a39b0ba8313ba50ec366287b5fd29c95b58e12929c8e9c20",
      "assetIds": []
    },
    {
      "x": 333,
      "y": 291,
      "size": 3,
      "price": "8648000000000000000000",
      "reserved": "",
      "salt": "0xa5b761f42ba54446fb0d5a120f7e5630ccbab59397310a29847f24ec16316139",
      "assetIds": []
    },
    {
      "x": 336,
      "y": 255,
      "size": 3,
      "price": "8648000000000000000000",
      "reserved": "",
      "salt": "0x521a7a985bdb3af6d59195ecfc49864b467af515c79ca32577d3cc1a6912f5da",
      "assetIds": []
    },
    {
      "x": 339,
      "y": 252,
      "size": 3,
      "price": "8648000000000000000000",
      "reserved": "0x7a9fe22691c811ea339d9b73150e6911a5343dca",
      "salt": "0x116d2688b4a7c828a266f49a9219bcdc99686f17a6a87b7ab2d4633064f96cf1",
      "assetIds": []
    },
    {
      "x": 345,
      "y": 294,
      "size": 3,
      "price": "8648000000000000000000",
      "reserved": "0x7a9fe22691c811ea339d9b73150e6911a5343dca",
      "salt": "0xe642b6ec570b8a19de7c3387c78b8cec3d6582f11906704d7148fb39c0828ad6",
      "assetIds": []
    },
    {
      "x": 345,
      "y": 300,
      "size": 3,
      "price": "8648000000000000000000",
      "reserved": "0xdeaddeaddeaddeaddeaddeaddeaddeaddeaddead",
      "salt": "0x23723416dadff3d462d84688efbee485c4f2876fe90d45020e03cb27256ed8e3",
      "assetIds": []
    },
    {
      "x": 348,
      "y": 252,
      "size": 3,
      "price": "8648000000000000000000",
      "reserved": "",
      "salt": "0xcff8496fdd9c1dbb56cddbe3ea4d2bed319e53ee30321539107083c0f870d7c2",
      "assetIds": []
    },
    {
      "x": 357,
      "y": 303,
      "size": 3,
      "price": "8648000000000000000000",
      "reserved": "",
      "salt": "0xafea79e2116f68749e374ed67bf2a52a4b9a0beb4bc58d37ec9c415a384feb24",
      "assetIds": []
    },
    {
      "x": 360,
      "y": 273,
      "size": 3,
      "price": "8648000000000000000000",
      "reserved": "0x7a9fe22691c811ea339d9b73150e6911a5343dca",
      "salt": "0x0867efdbe6ec613d521c507f11a88b5fb0eaf8f5900a5a7b267c9a0bb566c50c",
      "assetIds": []
    },
    {
      "x": 360,
      "y": 294,
      "size": 3,
      "price": "8648000000000000000000",
      "reserved": "",
      "salt": "0x7c03b938ad05cd8ec3148820a8bacf4c377128d0d44c87fd4ba3fe122f20ec03",
      "assetIds": []
    },
    {
      "x": 366,
      "y": 267,
      "size": 3,
      "price": "8648000000000000000000",
      "reserved": "",
      "salt": "0x202209fe90f159636a87c321d0bfe7bfc9db872d7f2822bb41c56a93ff7ef4e1",
      "assetIds": []
    },
    {
      "x": 366,
      "y": 291,
      "size": 3,
      "price": "8648000000000000000000",
      "reserved": "0x7a9fe22691c811ea339d9b73150e6911a5343dca",
      "salt": "0xdd27540ba451c526743abd3c7efda66b06b4cf6d9893c5b66c9681e9c9aa23c1",
      "assetIds": []
    },
    {
      "x": 378,
      "y": 231,
      "size": 3,
      "price": "8648000000000000000000",
      "reserved": "0x7a9fe22691c811ea339d9b73150e6911a5343dca",
      "salt": "0xbd53ce6096ee4bbe407ff3a589f85b5621ea2032855cd7ca54f9331c9f130c83",
      "assetIds": []
    },
    {
      "x": 378,
      "y": 285,
      "size": 3,
      "price": "8648000000000000000000",
      "reserved": "",
      "salt": "0xf79a36256fcdc03801bbb974aae496839fb256b2ae2062b43b6c93c4a0963647",
      "assetIds": []
    },
    {
      "x": 378,
      "y": 291,
      "size": 3,
      "price": "8648000000000000000000",
      "reserved": "0x7a9fe22691c811ea339d9b73150e6911a5343dca",
      "salt": "0xb991515766e0e6cc5e66e59a4f465cbcc76db84ee0b56c425f36c9a810bb40a7",
      "assetIds": []
    },
    {
      "x": 381,
      "y": 285,
      "size": 3,
      "price": "8648000000000000000000",
      "reserved": "0xdeaddeaddeaddeaddeaddeaddeaddeaddeaddead",
      "salt": "0xcd29ba026467b73501d8691540998220d0ce7559287526f5093df0301c628e61",
      "assetIds": []
    },
    {
      "x": 384,
      "y": 252,
      "size": 3,
      "price": "8648000000000000000000",
      "reserved": "",
      "salt": "0x3cf12852181c895a3427c7374c4c548476970628cab6f98abfe7b8bad0b72eca",
      "assetIds": []
    },
    {
      "x": 387,
      "y": 222,
      "size": 3,
      "price": "8648000000000000000000",
      "reserved": "0xdeaddeaddeaddeaddeaddeaddeaddeaddeaddead",
      "salt": "0xa2b440cd7e2cfd97ba866150bc6d232a560147aa19901235bbc1595b0587bea9",
      "assetIds": []
    },
    {
      "x": 390,
      "y": 258,
      "size": 3,
      "price": "8648000000000000000000",
      "reserved": "0x7a9fe22691c811ea339d9b73150e6911a5343dca",
      "salt": "0x01c9e305bcb3667d16e2db4f070dc2ff58a1ba338672edcbd0fd9c0ad56a134e",
      "assetIds": []
    },
    {
      "x": 390,
      "y": 288,
      "size": 3,
      "price": "8648000000000000000000",
      "reserved": "0xdeaddeaddeaddeaddeaddeaddeaddeaddeaddead",
      "salt": "0xc567bd9174adf1bebe04248607d23a10fb27701342a1fc2f0020a0844239fde9",
      "assetIds": []
    },
    {
      "x": 390,
      "y": 303,
      "size": 3,
      "price": "8648000000000000000000",
      "reserved": "0x7a9fe22691c811ea339d9b73150e6911a5343dca",
      "salt": "0x396467e6d02229e3c8e38149effa57a779e5a323f68bee063265aaa63b469776",
      "assetIds": []
    },
    {
      "x": 390,
      "y": 309,
      "size": 3,
      "price": "8648000000000000000000",
      "reserved": "",
      "salt": "0x617f66d5bd70d4bbd35aedf56d3fbc00968e2ff677359bf8ceb42a3239303633",
      "assetIds": []
    },
    {
      "x": 393,
      "y": 261,
      "size": 3,
      "price": "8648000000000000000000",
      "reserved": "0xdeaddeaddeaddeaddeaddeaddeaddeaddeaddead",
      "salt": "0x1bf74a021934e895156e07908babdf77e87604958ddad40537cda2c862850955",
      "assetIds": []
    },
    {
      "x": 393,
      "y": 297,
      "size": 3,
      "price": "8648000000000000000000",
      "reserved": "",
      "salt": "0xbee948b1986f5fabe5cce3aeef1598fa0b7a9600dce862e2946cb4253405487f",
      "assetIds": []
    },
    {
      "x": 399,
      "y": 237,
      "size": 3,
      "price": "8648000000000000000000",
      "reserved": "",
      "salt": "0xf7a08417c1d7b819d1f7770d3ecdca3cce8dfee2e9e019e7f53121f5da2f2f5d",
      "assetIds": []
    },
    {
      "x": 405,
      "y": 288,
      "size": 3,
      "price": "8648000000000000000000",
      "reserved": "0xdeaddeaddeaddeaddeaddeaddeaddeaddeaddead",
      "salt": "0x309343ea0af02d72354fa7ff3e5b5a009f0c4f3e2bb0339a9dd2a7f3217dea9f",
      "assetIds": []
    },
    {
      "x": 168,
      "y": 198,
      "size": 6,
      "price": "32772000000000000000000",
      "reserved": "0x7a9fe22691c811ea339d9b73150e6911a5343dca",
      "salt": "0x29be33ecd2451661224b27e614fbfff3ff2a8d0804fa489277aa795039aefc51",
      "assetIds": []
    },
    {
      "x": 174,
      "y": 198,
      "size": 6,
      "price": "32772000000000000000000",
      "reserved": "0x7a9fe22691c811ea339d9b73150e6911a5343dca",
      "salt": "0x504518478c542cb8bbb9be2cc6e24d213cecae9508979b66739850b1ac0e0f88",
      "assetIds": []
    },
    {
      "x": 180,
      "y": 198,
      "size": 6,
      "price": "32772000000000000000000",
      "reserved": "0x7a9fe22691c811ea339d9b73150e6911a5343dca",
      "salt": "0xf1c9781bf3fea0ac167b1f6de007713bf1adff28cdb8f82a236c10711cbc01f1",
      "assetIds": []
    },
    {
      "x": 186,
      "y": 198,
      "size": 6,
      "price": "32772000000000000000000",
      "reserved": "0x7a9fe22691c811ea339d9b73150e6911a5343dca",
      "salt": "0xb08e29ad6ae836472d837830bc19173180421dce7b1085777188660eefe2e6e3",
      "assetIds": []
    },
    {
      "x": 330,
      "y": 252,
      "size": 6,
      "price": "32772000000000000000000",
      "reserved": "0xdeaddeaddeaddeaddeaddeaddeaddeaddeaddead",
      "salt": "0x3ba74a21cdce82fb375db4c312015f637dbfed9d47b305f76d1ffe7e2db80243",
      "assetIds": []
    },
    {
      "x": 330,
      "y": 264,
      "size": 6,
      "price": "32772000000000000000000",
      "reserved": "0xdeaddeaddeaddeaddeaddeaddeaddeaddeaddead",
      "salt": "0x5fd2dcfee2cac0767d6148a4dbbed7c13fb8ba9ccc4eba4afbb33f94063c1dee",
      "assetIds": []
    },
    {
      "x": 330,
      "y": 294,
      "size": 6,
      "price": "32772000000000000000000",
      "reserved": "0x7a9fe22691c811ea339d9b73150e6911a5343dca",
      "salt": "0x77b016945acab9f73ccddbb5f8d43ba3d9f29217734858a954bd5da7e2be6adc",
      "assetIds": []
    },
    {
      "x": 342,
      "y": 258,
      "size": 6,
      "price": "32772000000000000000000",
      "reserved": "0xdeaddeaddeaddeaddeaddeaddeaddeaddeaddead",
      "salt": "0x2b9d90f20b8aa69c170d90e9f7737a3c24504023787172e772b90e1f53528b12",
      "assetIds": []
    },
    {
      "x": 342,
      "y": 288,
      "size": 6,
      "price": "32772000000000000000000",
      "reserved": "0xdeaddeaddeaddeaddeaddeaddeaddeaddeaddead",
      "salt": "0x3ccf8f3229668122e09bde2720055d5ae6d329382bd759e69ede49fb34a3f854",
      "assetIds": []
    },
    {
      "x": 348,
      "y": 306,
      "size": 6,
      "price": "32772000000000000000000",
      "reserved": "0x7a9fe22691c811ea339d9b73150e6911a5343dca",
      "salt": "0x21976ec010517092506e5e7b89dcf16c4e1dc522398821121d2db454ba8602ef",
      "assetIds": []
    },
    {
      "x": 354,
      "y": 258,
      "size": 6,
      "price": "32772000000000000000000",
      "reserved": "0x716eb921f3b346d2c5749b5380dc740d359055d7",
      "salt": "0x80e3964a7118a85ecaab3a7f08d8b36c701a0390f763d8eebd3fa8fcf5e5d746",
      "assetIds": []
    },
    {
      "x": 360,
      "y": 234,
      "size": 6,
      "price": "32772000000000000000000",
      "reserved": "0xdeaddeaddeaddeaddeaddeaddeaddeaddeaddead",
      "salt": "0x374e0a684ee735b986f187c786bf6b3a5585e9da3e7efcc2240435276b8b9dbe",
      "assetIds": []
    },
    {
      "x": 360,
      "y": 264,
      "size": 6,
      "price": "32772000000000000000000",
      "reserved": "0xdeaddeaddeaddeaddeaddeaddeaddeaddeaddead",
      "salt": "0x05f8b8a7792d8b13eae6e9b3efd797e61e7db5c2ae51c11a338083496731f470",
      "assetIds": []
    },
    {
      "x": 366,
      "y": 270,
      "size": 6,
      "price": "32772000000000000000000",
      "reserved": "0x7a9fe22691c811ea339d9b73150e6911a5343dca",
      "salt": "0xf927a2c2f482e822fa473981b54b5b898fb3ed13e300c8ac8cb9beab1a8ab60b",
      "assetIds": []
    },
    {
      "x": 372,
      "y": 234,
      "size": 6,
      "price": "32772000000000000000000",
      "reserved": "0xdeaddeaddeaddeaddeaddeaddeaddeaddeaddead",
      "salt": "0x252eb36d69b8edc4ac3338cba361bbe02d8c32cb970753b7a82d6de241c8c7b2",
      "assetIds": []
    },
    {
      "x": 372,
      "y": 282,
      "size": 6,
      "price": "32772000000000000000000",
      "reserved": "0x7a9fe22691c811ea339d9b73150e6911a5343dca",
      "salt": "0x6f945eca6eaf0e994aa0be6e5cff1573cf729909fe7d1a0c57379a3185116e15",
      "assetIds": []
    },
    {
      "x": 378,
      "y": 276,
      "size": 6,
      "price": "32772000000000000000000",
      "reserved": "0x7a9fe22691c811ea339d9b73150e6911a5343dca",
      "salt": "0xfcba2a6bb8acf76017d4085bfbbc1d6408ad1e295072df9987edaa2d66f68f7b",
      "assetIds": []
    },
    {
      "x": 378,
      "y": 294,
      "size": 6,
      "price": "32772000000000000000000",
      "reserved": "0x7a9fe22691c811ea339d9b73150e6911a5343dca",
      "salt": "0xd7952c5d96404a5ea0f60127e138889effd5134989b53b4e99b44d1549d6d1f1",
      "assetIds": []
    },
    {
      "x": 384,
      "y": 258,
      "size": 6,
      "price": "32772000000000000000000",
      "reserved": "0x7a9fe22691c811ea339d9b73150e6911a5343dca",
      "salt": "0xd2ba8de21ed1bd6dfc1402309d299aab9ceae0421025e3b959100675abfd5f76",
      "assetIds": []
    },
    {
      "x": 384,
      "y": 288,
      "size": 6,
      "price": "32772000000000000000000",
      "reserved": "0x7a9fe22691c811ea339d9b73150e6911a5343dca",
      "salt": "0x5a4dba53ca90f61fd4f7e4fcffe197fd1876f43fcc08c3e84b2c4d90c0097790",
      "assetIds": []
    },
    {
      "x": 384,
      "y": 300,
      "size": 6,
      "price": "32772000000000000000000",
      "reserved": "0x7a9fe22691c811ea339d9b73150e6911a5343dca",
      "salt": "0x64c6bea2fc148e15a3c6e9d122954e8d69f026793e96f90e682b16bb27a5f8b1",
      "assetIds": []
    },
    {
      "x": 390,
      "y": 216,
      "size": 6,
      "price": "32772000000000000000000",
      "reserved": "0x7a9fe22691c811ea339d9b73150e6911a5343dca",
      "salt": "0x5be28cbce83fcb6f083582a59934b97b876dafc2f244be0614c0e9cec1989417",
      "assetIds": []
    },
    {
      "x": 390,
      "y": 228,
      "size": 6,
      "price": "32772000000000000000000",
      "reserved": "0x7a9fe22691c811ea339d9b73150e6911a5343dca",
      "salt": "0xfa4df2515cd57320d994ddc745c0a46e889e99a2f4707ad0c033ef884ed16b05",
      "assetIds": []
    },
    {
      "x": 396,
      "y": 288,
      "size": 6,
      "price": "32772000000000000000000",
      "reserved": "0x7a9fe22691c811ea339d9b73150e6911a5343dca",
      "salt": "0xabbb959678f79b82cdab70b138beb1f01867d80c348592c389553c18d1dfd55a",
      "assetIds": []
    },
    {
      "x": 396,
      "y": 300,
      "size": 6,
      "price": "32772000000000000000000",
      "reserved": "0x7a9fe22691c811ea339d9b73150e6911a5343dca",
      "salt": "0xf0964079e2e0eed810754c2bdce9e9c7c07029a0a873c735f3aab8ebf4b49a9a",
      "assetIds": []
    },
    {
      "x": 396,
      "y": 306,
      "size": 6,
      "price": "32772000000000000000000",
      "reserved": "0x7a9fe22691c811ea339d9b73150e6911a5343dca",
      "salt": "0xa9e330dbdb884ba02236caa11eec572ea29499fc8bf4a490e71e20eeead27e38",
      "assetIds": []
    },
    {
      "x": 402,
      "y": 228,
      "size": 6,
      "price": "32772000000000000000000",
      "reserved": "0x7a9fe22691c811ea339d9b73150e6911a5343dca",
      "salt": "0xa8aa6a3b77f585fade188938136f2c5c774c6d371689b9ae6b20534602d9b6bd",
      "assetIds": []
    },
    {
      "x": 402,
      "y": 234,
      "size": 6,
      "price": "32772000000000000000000",
      "reserved": "0x7a9fe22691c811ea339d9b73150e6911a5343dca",
      "salt": "0x126eb9ddee08fde2f808ce7034992cdac0e07b86624db5802628c9d733efab21",
      "assetIds": []
    },
    {
      "x": 402,
      "y": 294,
      "size": 6,
      "price": "32772000000000000000000",
      "reserved": "0x7a9fe22691c811ea339d9b73150e6911a5343dca",
      "salt": "0xc5c1878c43a5f7df87f68cd1e54cb4edf96021dc8dbd1d8bd6dc6ddb8a28f460",
      "assetIds": []
    },
    {
      "x": 402,
      "y": 300,
      "size": 6,
      "price": "32772000000000000000000",
      "reserved": "0x7a9fe22691c811ea339d9b73150e6911a5343dca",
      "salt": "0x49795c37238691b93100524d960986ed065ab970fddebf0e964f46c5827f85ca",
      "assetIds": []
    },
    {
      "x": 324,
      "y": 276,
      "size": 12,
      "price": "123806000000000000000000",
      "reserved": "0x7a9fe22691c811ea339d9b73150e6911a5343dca",
      "salt": "0xadbf31ccba3364c46415ae5d94da1db75132c5fe3a0d517e17a02542f1ad0a18",
      "assetIds": []
    },
    {
      "x": 348,
      "y": 240,
      "size": 12,
      "price": "123806000000000000000000",
      "reserved": "0x7a9fe22691c811ea339d9b73150e6911a5343dca",
      "salt": "0x60201a7d8bbbaf8d7e54ca13d842d3eea83dfe151becbd4bd32d7bceab200ec3",
      "assetIds": []
    },
    {
      "x": 348,
      "y": 288,
      "size": 12,
      "price": "123806000000000000000000",
      "reserved": "0x7a9fe22691c811ea339d9b73150e6911a5343dca",
      "salt": "0xfdf61a9764655ba041f5d22e6f69144b5bfa29604c0a1497bfb40220e7bf5df2",
      "assetIds": []
    },
    {
      "x": 360,
      "y": 276,
      "size": 12,
      "price": "123806000000000000000000",
      "reserved": "0xdeaddeaddeaddeaddeaddeaddeaddeaddeaddead",
      "salt": "0x11b69922facdca53213bfd6d569dec6d8ce69923131516583bb443272f9428ac",
      "assetIds": []
    },
    {
      "x": 372,
      "y": 264,
      "size": 12,
      "price": "123806000000000000000000",
      "reserved": "0x7a9fe22691c811ea339d9b73150e6911a5343dca",
      "salt": "0x33e25dfae576793f93403054a89c0f25b0035f279a385e455f549e8bd07104f7",
      "assetIds": []
    },
    {
      "x": 384,
      "y": 240,
      "size": 12,
      "price": "123806000000000000000000",
      "reserved": "0x7a9fe22691c811ea339d9b73150e6911a5343dca",
      "salt": "0x585a1aba75cbd99719d3e73be7989fe92c9865816955f62346dcfceebf334f64",
      "assetIds": []
    },
    {
      "x": 396,
      "y": 216,
      "size": 12,
      "price": "123806000000000000000000",
      "reserved": "0x7a9fe22691c811ea339d9b73150e6911a5343dca",
      "salt": "0x315fdbb8a491e000847142071626ecca6a17e29ef8c16e315ec9861d915d5c0e",
      "assetIds": []
    },
    {
      "x": 396,
      "y": 252,
      "size": 12,
      "price": "123806000000000000000000",
      "reserved": "0xdeaddeaddeaddeaddeaddeaddeaddeaddeaddead",
      "salt": "0x5eeb45f5c638d724eca2e257e59442a8739bec16291c20d453a396cb318cc4a9",
      "assetIds": []
    },
    {
      "x": 336,
      "y": 264,
      "size": 24,
      "price": "466102000000000000000000",
      "reserved": "0xdeaddeaddeaddeaddeaddeaddeaddeaddeaddead",
      "salt": "0x6f499b4eb139db554997687d585b74b6f035e8332cffdfbd62a74caa957af20b",
      "assetIds": []
    },
    {
      "x": 360,
      "y": 240,
      "size": 24,
      "price": "466102000000000000000000",
      "reserved": "0xdeaddeaddeaddeaddeaddeaddeaddeaddeaddead",
      "salt": "0x7073a2470954d26cb2885c5016353db76991846641557d5c722a38c97b8d5bc2",
      "assetIds": []
    },
    {
      "x": 384,
      "y": 264,
      "size": 24,
      "price": "466102000000000000000000",
      "reserved": "0xdeaddeaddeaddeaddeaddeaddeaddeaddeaddead",
      "salt": "0xa8b2cf7eac8f737a376cdd9006b9a2fd7070ee8b5d7ce71a55cac567fb4ad3cf",
      "assetIds": []
    }
  ],
  "solcInputHash": "a4de1e9cf87be8a7daa33c15e9438e26",
  "bytecode": "0x610160604052620d2f006005556103e860075534801561001e57600080fd5b5060405161242e38038061242e833981810160405261018081101561004257600080fd5b50805160208201516040830151606080850151608086015160a08088015160c0808a015160e08b01516101008c01516101208d01516101408e0151610160909e0151600280546001600160a01b0319166001600160a01b03861617905560038390558d8b1b6001600160601b0319908116909852998c901b909616909352999a9899979895979496929590949391926100dc8a600161014a565b600680546001600160a01b03199081166001600160a01b039a8b1617909155610140979097526101209590955260008054909616979096169690961790935550606093841b6001600160601b031990811660e05292841b831660805290921b1661010052506101ae92505050565b6001600160a01b038216600081815260016020908152604091829020805460ff191685151590811790915582519384529083015280517fb21eb88b4e33b3f1281830a7178d74d8aa73220416215726b68ae23d539515cb9281900390910190a15050565b60805160601c60a05160601c60c05160601c60e05160601c6101005160601c61012051610140516121fb610233600039806109375280611d44525080610913528061139a525080611da45250806115d252806116f4525080610c50528061159c5280611dd852508061166152806116c5525080610dfa528061190852506121fb6000f3fe608060405234801561001057600080fd5b50600436106101515760003560e01c8063984d6252116100cd578063dc5074af11610081578063ecb255b511610066578063ecb255b514610857578063f23a6e6114610874578063f2e7b3811461090957610151565b8063dc5074af14610814578063e56f8a9e1461083a57610151565b8063bc197c81116100b2578063bc197c81146105d3578063c10a420814610735578063caed35001461080c57610151565b8063984d6252146104db578063b522ecff146105ad57610151565b80636e9960c3116101245780638a04af6a116101095780638a04af6a1461032a5780638a12b82f146103585780638f283970146104b557610151565b80636e9960c3146102fe57806377f1c3ac1461032257610151565b806325cb5bc014610156578063495906571461017057806358bc29441461017857806365194ce7146101a0575b600080fd5b61015e610911565b60408051918252519081900360200190f35b61015e610935565b61019e6004803603602081101561018e57600080fd5b50356001600160a01b0316610959565b005b610246600480360360208110156101b657600080fd5b8101906020810181356401000000008111156101d157600080fd5b8201836020820111156101e357600080fd5b8035906020019184600183028401116401000000008311171561020557600080fd5b91908080601f016020809104026020016040519081016040528093929190818152602001838380828437600092019190915250929550610a04945050505050565b6040518080602001866001600160a01b03166001600160a01b03168152602001856001600160a01b03166001600160a01b03168152602001848152602001838152602001828103825287818151815260200191508051906020019080838360005b838110156102bf5781810151838201526020016102a7565b50505050905090810190601f1680156102ec5780820380516001836020036101000a031916815260200191505b50965050505050505060405180910390f35b610306610b09565b604080516001600160a01b039092168252519081900360200190f35b61015e610b18565b61019e6004803603604081101561034057600080fd5b506001600160a01b0381351690602001351515610b1e565b61019e600480360361018081101561036f57600080fd5b6001600160a01b038235811692602081013582169260408201359092169160608201359160808101359160a08201359160c08101359160e0820135916101008101359181019061014081016101208201356401000000008111156103d257600080fd5b8201836020820111156103e457600080fd5b8035906020019184602083028401116401000000008311171561040657600080fd5b91939092909160208101903564010000000081111561042457600080fd5b82018360208201111561043657600080fd5b8035906020019184602083028401116401000000008311171561045857600080fd5b91939092909160208101903564010000000081111561047657600080fd5b82018360208201111561048857600080fd5b803590602001918460018302840111640100000000831117156104aa57600080fd5b509092509050610b75565b61019e600480360360208110156104cb57600080fd5b50356001600160a01b0316610cc3565b61019e600480360360608110156104f157600080fd5b6001600160a01b03823516919081019060408101602082013564010000000081111561051c57600080fd5b82018360208201111561052e57600080fd5b8035906020019184602083028401116401000000008311171561055057600080fd5b91939092909160208101903564010000000081111561056e57600080fd5b82018360208201111561058057600080fd5b803590602001918460208302840111640100000000831117156105a257600080fd5b509092509050610d99565b61019e600480360360208110156105c357600080fd5b50356001600160a01b0316610f24565b610700600480360360a08110156105e957600080fd5b6001600160a01b03823581169260208101359091169181019060608101604082013564010000000081111561061d57600080fd5b82018360208201111561062f57600080fd5b8035906020019184602083028401116401000000008311171561065157600080fd5b91939092909160208101903564010000000081111561066f57600080fd5b82018360208201111561068157600080fd5b803590602001918460208302840111640100000000831117156106a357600080fd5b9193909290916020810190356401000000008111156106c157600080fd5b8201836020820111156106d357600080fd5b803590602001918460018302840111640100000000831117156106f557600080fd5b50909250905061100d565b604080517fffffffff000000000000000000000000000000000000000000000000000000009092168252519081900360200190f35b6107f8600480360360a081101561074b57600080fd5b81019060208101813564010000000081111561076657600080fd5b82018360208201111561077857600080fd5b8035906020019184600183028401116401000000008311171561079a57600080fd5b91908080601f016020809104026020016040519081016040528093929190818152602001838380828437600092019190915250929550506001600160a01b03833581169450602084013516926040810135925060600135905061103a565b604080519115158252519081900360200190f35b610306611176565b6107f86004803603602081101561082a57600080fd5b50356001600160a01b0316611185565b61019e6004803603602081101561085057600080fd5b50356111a3565b61019e6004803603602081101561086d57600080fd5b5035611207565b610700600480360360a081101561088a57600080fd5b6001600160a01b03823581169260208101359091169160408201359160608101359181019060a0810160808201356401000000008111156108ca57600080fd5b8201836020820111156108dc57600080fd5b803590602001918460018302840111640100000000831117156108fe57600080fd5b50909250905061126b565b61015e611296565b7f000000000000000000000000000000000000000000000000000000000000000090565b7f000000000000000000000000000000000000000000000000000000000000000090565b6000546001600160a01b031633146109b8576040805162461bcd60e51b815260206004820152601060248201527f53656e646572206e6f742061646d696e00000000000000000000000000000000604482015290519081900360640190fd5b600554600280546001600160a01b03908116600090815260046020526040902042909301909255805473ffffffffffffffffffffffffffffffffffffffff191692909116919091179055565b606060008060008060606000806000808a80602001905160a0811015610a2957600080fd5b8101908080516040519392919084640100000000821115610a4957600080fd5b908301906020820185811115610a5e57600080fd5b8251640100000000811182820188101715610a7857600080fd5b82525081516020918201929091019080838360005b83811015610aa5578181015183820152602001610a8d565b50505050905090810190601f168015610ad25780820380516001836020036101000a031916815260200191505b5060409081526020820151908201516060830151608090930151959f50909d509b5099509197505050505050505091939590929450565b6000546001600160a01b031690565b60035490565b6000546001600160a01b03163314610b675760405162461bcd60e51b815260040180806020018281038252602e815260200180612198602e913960400191505060405180910390fd5b610b71828261129c565b5050565b610b7f898961131e565b610c048f8e8e8e8e8e8d8d8d80806020026020016040519081016040528093929190818152602001838360200280828437600081840152601f19601f820116905080830192505050505050508c8c8080602002602001604051908101604052809392919081815260200183836020028082843760009201919091525061139892505050565b610c458f8984848080601f01602080910402602001604051908101604052809392919081815260200183838082843760009201919091525061157592505050565b610c758f8f8e8e8e8d7f00000000000000000000000000000000000000000000000000000000000000008f6115c6565b610cb28e87878080602002602001604051908101604052809392919081815260200183836020028082843760009201919091525061189192505050565b505050505050505050505050505050565b6000546001600160a01b03163314610d22576040805162461bcd60e51b815260206004820152601b60248201527f6f6e6c792061646d696e2063616e206368616e67652061646d696e0000000000604482015290519081900360640190fd5b600054604080516001600160a01b039283168152918316602083015280517f7e644d79422f17c01e4894b5f4f588d331ebfa28653d42ae832dc59e38c9798f9281900390910190a16000805473ffffffffffffffffffffffffffffffffffffffff19166001600160a01b0392909216919091179055565b6000546001600160a01b03163314610df8576040805162461bcd60e51b815260206004820152600e60248201527f4e4f545f415554484f52495a4544000000000000000000000000000000000000604482015290519081900360640190fd5b7f00000000000000000000000000000000000000000000000000000000000000006001600160a01b0316632eb2c2d63087878787876040518763ffffffff1660e01b815260040180876001600160a01b03166001600160a01b03168152602001866001600160a01b03166001600160a01b031681526020018060200180602001806020018481038452888882818152602001925060200280828437600083820152601f01601f19169091018581038452868152602090810191508790870280828437600081840152601f19601f8201169050808301925050508481038252600081526020016020019950505050505050505050600060405180830381600087803b158015610f0557600080fd5b505af1158015610f19573d6000803e3d6000fd5b505050505050505050565b6001600160a01b038116610f7f576040805162461bcd60e51b815260206004820152600c60248201527f5a45524f5f414444524553530000000000000000000000000000000000000000604482015290519081900360640190fd5b6000546001600160a01b03163314610fde576040805162461bcd60e51b815260206004820152600e60248201527f4e4f545f415554484f52495a4544000000000000000000000000000000000000604482015290519081900360640190fd5b6006805473ffffffffffffffffffffffffffffffffffffffff19166001600160a01b0392909216919091179055565b7fbc197c810000000000000000000000000000000000000000000000000000000098975050505050505050565b600060035482118061105d5750836001600160a01b0316856001600160a01b0316145b8061106757508242115b156110745750600061116d565b60408051606087811b7fffffffffffffffffffffffffffffffffffffffff0000000000000000000000009081166020808501919091529188901b166034830152604882018690526068808301869052835180840390910181526088830184528051908201207f19457468657265756d205369676e6564204d6573736167653a0a33320000000060a884015260c48084018290528451808503909101815260e4909301909352815191012060009061112b9089611a55565b6001600160a01b03811660009081526004602052604090205490915042116111585760019250505061116d565b6002546001600160a01b039081169116149150505b95945050505050565b6002546001600160a01b031690565b6001600160a01b031660009081526001602052604090205460ff1690565b6000546001600160a01b03163314611202576040805162461bcd60e51b815260206004820152601060248201527f53656e646572206e6f742061646d696e00000000000000000000000000000000604482015290519081900360640190fd5b600355565b6000546001600160a01b03163314611266576040805162461bcd60e51b815260206004820152600e60248201527f4e4f545f415554484f52495a4544000000000000000000000000000000000000604482015290519081900360640190fd5b600755565b7ff23a6e61000000000000000000000000000000000000000000000000000000009695505050505050565b60075490565b6001600160a01b03821660008181526001602090815260409182902080547fffffffffffffffffffffffffffffffffffffffffffffffffffffffffffffff001685151590811790915582519384529083015280517fb21eb88b4e33b3f1281830a7178d74d8aa73220416215726b68ae23d539515cb9281900390910190a15050565b6113456103e861133960075485611b2290919063ffffffff16565b9063ffffffff611b9816565b8114610b71576040805162461bcd60e51b815260206004820152600d60248201527f494e56414c49445f505249434500000000000000000000000000000000000000604482015290519081900360640190fd5b7f0000000000000000000000000000000000000000000000000000000000000000421061140c576040805162461bcd60e51b815260206004820152600c60248201527f53414c455f49535f4f5645520000000000000000000000000000000000000000604482015290519081900360640190fd5b6001600160a01b03891633148061143257503360009081526001602052604090205460ff165b611483576040805162461bcd60e51b815260206004820152600e60248201527f4e4f545f415554484f52495a4544000000000000000000000000000000000000604482015290519081900360640190fd5b6001600160a01b03881615806114aa5750886001600160a01b0316886001600160a01b0316145b6114fb576040805162461bcd60e51b815260206004820152600d60248201527f52455345525645445f4c414e4400000000000000000000000000000000000000604482015290519081900360640190fd5b600061150c888888888d8989611bfd565b90506115188282611ca2565b611569576040805162461bcd60e51b815260206004820152600c60248201527f494e56414c49445f4c414e440000000000000000000000000000000000000000604482015290519081900360640190fd5b50505050505050505050565b60006115818484611d6b565b6006549091506115c0908590839085906001600160a01b03167f0000000000000000000000000000000000000000000000000000000000000000611eb8565b50505050565b83600114806115fc57507f00000000000000000000000000000000000000000000000000000000000000006001600160a01b0316155b156116c357604080517f6e1e3bbf0000000000000000000000000000000000000000000000000000000081526001600160a01b03898116600483015260248201879052604482018990526064820188905260a06084830152600060a4830181905292517f000000000000000000000000000000000000000000000000000000000000000090911692636e1e3bbf9260e4808201939182900301818387803b1580156116a657600080fd5b505af11580156116ba573d6000803e3d6000fd5b50505050611827565b7f00000000000000000000000000000000000000000000000000000000000000006001600160a01b0316636e1e3bbf7f00000000000000000000000000000000000000000000000000000000000000008689898c60405160200180826001600160a01b03166001600160a01b031681526020019150506040516020818303038152906040526040518663ffffffff1660e01b815260040180866001600160a01b03166001600160a01b0316815260200185815260200184815260200183815260200180602001828103825283818151815260200191508051906020019080838360005b838110156117be5781810151838201526020016117a6565b50505050905090810190601f1680156117eb5780820380516001836020036101000a031916815260200191505b509650505050505050600060405180830381600087803b15801561180e57600080fd5b505af1158015611822573d6000803e3d6000fd5b505050505b60408051858152602081018590526001600160a01b03848116828401526060820184905291516101988802890192808b1692908c16917fe4dfa6ac11314892f3029b34a25b1a887da3b1cab2bbf8506d87128ba6e3ac029181900360800190a45050505050505050565b6060815167ffffffffffffffff811180156118ab57600080fd5b506040519080825280602002602001820160405280156118d5578160200160208202803683370190505b50905060005b82518110156119055760018282815181106118f257fe5b60209081029190910101526001016118db565b507f00000000000000000000000000000000000000000000000000000000000000006001600160a01b0316632eb2c2d6308585856040518563ffffffff1660e01b815260040180856001600160a01b03166001600160a01b03168152602001846001600160a01b03166001600160a01b03168152602001806020018060200180602001848103845286818151815260200191508051906020019060200280838360005b838110156119c05781810151838201526020016119a8565b50505050905001848103835285818151815260200191508051906020019060200280838360005b838110156119ff5781810151838201526020016119e7565b50505050905001848103825260008152602001602001975050505050505050600060405180830381600087803b158015611a3857600080fd5b505af1158015611a4c573d6000803e3d6000fd5b50505050505050565b60008151604114611a6557600080fd5b60208201516040830151606084015160001a601b811015611a8457601b015b8060ff16601b1480611a9957508060ff16601c145b611aa257600080fd5b6040805160008152602080820180845289905260ff8416828401526060820186905260808201859052915160019260a0808401939192601f1981019281900390910190855afa158015611af9573d6000803e3d6000fd5b5050604051601f1901519450506001600160a01b038416611b1957600080fd5b50505092915050565b600082611b3157506000611b92565b5081810281838281611b3f57fe5b0414611b92576040805162461bcd60e51b815260206004820152600860248201527f6f766572666c6f77000000000000000000000000000000000000000000000000604482015290519081900360640190fd5b92915050565b600081611bec576040805162461bcd60e51b815260206004820152600960248201527f64697662797a65726f0000000000000000000000000000000000000000000000604482015290519081900360640190fd5b818381611bf557fe5b049392505050565b60008787878787878760405160200180888152602001878152602001868152602001858152602001846001600160a01b03166001600160a01b031660601b8152601401838152602001828051906020019060200280838360005b83811015611c6f578181015183820152602001611c57565b50505050905001975050505050505050604051602081830303815290604052805190602001209050979650505050505050565b600081815b8451811015611d41576000858281518110611cbe57fe5b6020026020010151905080831015611d065782816040516020018083815260200182815260200192505050604051602081830303815290604052805190602001209250611d38565b808360405160200180838152602001828152602001925050506040516020818303038152906040528051906020012092505b50600101611ca7565b507f0000000000000000000000000000000000000000000000000000000000000000149392505050565b600080611d84606461133985600563ffffffff611b2216565b604080516323b872dd60e01b81526001600160a01b0387811660048301527f0000000000000000000000000000000000000000000000000000000000000000811660248301526044820184905291519293507f0000000000000000000000000000000000000000000000000000000000000000909116916323b872dd916064808201926020929091908290030181600087803b158015611e2357600080fd5b505af1158015611e37573d6000803e3d6000fd5b505050506040513d6020811015611e4d57600080fd5b5051611ea0576040805162461bcd60e51b815260206004820152601360248201527f4645455f5452414e534645525f4641494c454400000000000000000000000000604482015290519081900360640190fd5b611eb0838263ffffffff61213a16565b949350505050565b82518190859015612062576060600080600080611ed48a610a04565b9398509196509450925090506000611eef868686868661103a565b15611f7d57611f09611f018d84611b22565b612710611b98565b9050886001600160a01b0316846001600160a01b0316866001600160a01b03167fac7a699eb95c3c6d390ec4626de17ef9a67b35891efdb197beba7c7fdd45fac48f858760405180848152602001838152602001828152602001935050505060405180910390a4611f7a878261213a565b96505b801561205b57604080516323b872dd60e01b81526001600160a01b038f811660048301528781166024830152604482018490529151918a16916323b872dd916064808201926020929091908290030181600087803b158015611fde57600080fd5b505af1158015611ff2573d6000803e3d6000fd5b505050506040513d602081101561200857600080fd5b505161205b576040805162461bcd60e51b815260206004820152601960248201527f636f6d6d6973696f6e207472616e73666572206661696c656400000000000000604482015290519081900360640190fd5b5050505050505b604080516323b872dd60e01b81526001600160a01b0389811660048301528681166024830152604482018490529151918416916323b872dd916064808201926020929091908290030181600087803b1580156120bd57600080fd5b505af11580156120d1573d6000803e3d6000fd5b505050506040513d60208110156120e757600080fd5b5051611a4c576040805162461bcd60e51b815260206004820152601760248201527f7061796d656e74207472616e73666572206661696c6564000000000000000000604482015290519081900360640190fd5b600082821115612191576040805162461bcd60e51b815260206004820152600860248201527f756e6465666c6f77000000000000000000000000000000000000000000000000604482015290519081900360640190fd5b5090039056fe6f6e6c792061646d696e2063616e207365747570206d6574615472616e73616374696f6e50726f636573736f7273a26469706673582212200ff38c5741c66b2a22a9a9ee2abe0f55626323082b6b4443921fd3b25484584a64736f6c63430006050033",
  "devdoc": {
    "methods": {
      "buyLandWithSand(address,address,address,uint256,uint256,uint256,uint256,uint256,bytes32,uint256[],bytes32[],bytes)": {
        "params": {
          "buyer": "address that perform the payment",
          "priceInSand": "price in SAND to purchase that Land",
          "proof": "merkleProof for that particular Land",
          "reserved": "the reserved address (if any)",
          "size": "size of the pack of Land to purchase",
          "to": "address that will own the purchased Land",
          "x": "x coordinate of the Land",
          "y": "y coordinate of the Land"
        }
      },
      "changeAdmin(address)": {
        "details": "change the administrator to be `newAdmin`.",
        "params": {
          "newAdmin": "address of the new administrator."
        }
      },
      "getAdmin()": {
        "details": "gives the current administrator of this contract.",
        "returns": {
          "_0": "the current administrator of this contract."
        }
      },
      "getSigningWallet()": {
        "details": "signing wallet authorized for referral",
        "returns": {
          "_0": "the address of the signing wallet"
        }
      },
      "isMetaTransactionProcessor(address)": {
        "details": "check whether address `who` is given meta-transaction execution rights.",
        "params": {
          "who": "The address to query."
        },
        "returns": {
          "_0": "whether the address has meta-transaction execution rights."
        }
      },
      "isReferralValid(bytes,address,address,uint256,uint256)": {
        "params": {
          "commissionRate": "The commissionRate of the referral",
          "expiryTime": "The expiry time of the referral",
          "referee": "The address of the referee",
          "referrer": "The address of the referrer",
          "signature": "The signature to check (signed referral)"
        },
        "returns": {
          "_0": "True if the referral is valid"
        }
      },
      "setMetaTransactionProcessor(address,bool)": {
        "details": "Enable or disable the ability of `metaTransactionProcessor` to perform meta-tx (metaTransactionProcessor rights).",
        "params": {
          "enabled": "set whether the metaTransactionProcessor is enabled or disabled.",
          "metaTransactionProcessor": "address that will be given/removed metaTransactionProcessor rights."
        }
      },
      "setReceivingWallet(address)": {
        "params": {
          "newWallet": "address of the new receiving wallet"
        }
      },
      "updateMaxCommissionRate(uint256)": {
        "details": "Update the maximum commission rate",
        "params": {
          "newMaxCommissionRate": "The new maximum commission rate"
        }
      },
      "updateSigningWallet(address)": {
        "details": "Update the signing wallet",
        "params": {
          "newSigningWallet": "The new address of the signing wallet"
        }
      },
      "withdrawAssets(address,uint256[],uint256[])": {
        "params": {
          "assetIds": "the assetIds to be transferred",
          "to": "intended recipient of the asset tokens",
          "values": "the quantities of the assetIds to be transferred"
        }
      }
    },
    "title": "Estate Sale contract with referral"
  },
  "userdoc": {
    "methods": {
      "buyLandWithSand(address,address,address,uint256,uint256,uint256,uint256,uint256,bytes32,uint256[],bytes32[],bytes)": {
        "notice": "buy Land with SAND using the merkle proof associated with it"
      },
      "getExpiryTime()": {
        "notice": "Gets the expiry time for the current sale"
      },
      "getMaxCommisionRate()": {
        "notice": "the max commision rate"
      },
      "getMerkleRoot()": {
        "notice": "Gets the Merkle root associated with the current sale"
      },
      "isReferralValid(bytes,address,address,uint256,uint256)": {
        "notice": "Check if a referral is valid"
      },
      "setReceivingWallet(address)": {
        "notice": "set the wallet receiving the proceeds"
      },
      "withdrawAssets(address,uint256[],uint256[])": {
        "notice": "enable Admin to withdraw remaining assets from EstateSaleWithFee contract"
      }
    },
    "notice": "This contract manages the sale of our lands as Estates"
  },
  "storageLayout": {
    "storage": [
      {
        "astId": 15353,
        "contract": "src/solc_0.6/EstateSale/EstateSaleWithFee.sol:EstateSaleWithFee",
        "label": "_admin",
        "offset": 0,
        "slot": "0",
        "type": "t_address"
      },
      {
        "astId": 15415,
        "contract": "src/solc_0.6/EstateSale/EstateSaleWithFee.sol:EstateSaleWithFee",
        "label": "_metaTransactionContracts",
        "offset": 0,
        "slot": "1",
        "type": "t_mapping(t_address,t_bool)"
      },
      {
        "astId": 13531,
        "contract": "src/solc_0.6/EstateSale/EstateSaleWithFee.sol:EstateSaleWithFee",
        "label": "_signingWallet",
        "offset": 0,
        "slot": "2",
        "type": "t_address"
      },
      {
        "astId": 13533,
        "contract": "src/solc_0.6/EstateSale/EstateSaleWithFee.sol:EstateSaleWithFee",
        "label": "_maxCommissionRate",
        "offset": 0,
        "slot": "3",
        "type": "t_uint256"
      },
      {
        "astId": 13537,
        "contract": "src/solc_0.6/EstateSale/EstateSaleWithFee.sol:EstateSaleWithFee",
        "label": "_previousSigningWallets",
        "offset": 0,
        "slot": "4",
        "type": "t_mapping(t_address,t_uint256)"
      },
      {
        "astId": 13546,
        "contract": "src/solc_0.6/EstateSale/EstateSaleWithFee.sol:EstateSaleWithFee",
        "label": "_previousSigningDelay",
        "offset": 0,
        "slot": "5",
        "type": "t_uint256"
      },
      {
        "astId": 9918,
        "contract": "src/solc_0.6/EstateSale/EstateSaleWithFee.sol:EstateSaleWithFee",
        "label": "_wallet",
        "offset": 0,
        "slot": "6",
        "type": "t_address_payable"
      },
      {
        "astId": 9928,
        "contract": "src/solc_0.6/EstateSale/EstateSaleWithFee.sol:EstateSaleWithFee",
        "label": "_multiplier",
        "offset": 0,
        "slot": "7",
        "type": "t_uint256"
      }
    ],
    "types": {
      "t_address": {
        "encoding": "inplace",
        "label": "address",
        "numberOfBytes": "20"
      },
      "t_address_payable": {
        "encoding": "inplace",
        "label": "address payable",
        "numberOfBytes": "20"
      },
      "t_bool": {
        "encoding": "inplace",
        "label": "bool",
        "numberOfBytes": "1"
      },
      "t_mapping(t_address,t_bool)": {
        "encoding": "mapping",
        "key": "t_address",
        "label": "mapping(address => bool)",
        "numberOfBytes": "32",
        "value": "t_bool"
      },
      "t_mapping(t_address,t_uint256)": {
        "encoding": "mapping",
        "key": "t_address",
        "label": "mapping(address => uint256)",
        "numberOfBytes": "32",
        "value": "t_uint256"
      },
      "t_uint256": {
        "encoding": "inplace",
        "label": "uint256",
        "numberOfBytes": "32"
      }
    }
  }
}