{
  "address": "0xd8eE0F5D0f04aAA1E258D65A520e3e3da7c8F6B8",
  "abi": [
    {
      "inputs": [
        {
          "internalType": "address",
          "name": "landAddress",
          "type": "address"
        },
        {
          "internalType": "address",
          "name": "sandContractAddress",
          "type": "address"
        },
        {
          "internalType": "address",
          "name": "initialMetaTx",
          "type": "address"
        },
        {
          "internalType": "address",
          "name": "admin",
          "type": "address"
        },
        {
          "internalType": "address payable",
          "name": "initialWalletAddress",
          "type": "address"
        },
        {
          "internalType": "bytes32",
          "name": "merkleRoot",
          "type": "bytes32"
        },
        {
          "internalType": "uint256",
          "name": "expiryTime",
          "type": "uint256"
        },
        {
          "internalType": "address",
          "name": "initialSigningWallet",
          "type": "address"
        },
        {
          "internalType": "uint256",
          "name": "initialMaxCommissionRate",
          "type": "uint256"
        },
        {
          "internalType": "address",
          "name": "estate",
          "type": "address"
        },
        {
          "internalType": "address",
          "name": "asset",
          "type": "address"
        },
        {
          "internalType": "address",
          "name": "feeDistributor",
          "type": "address"
        }
      ],
      "stateMutability": "nonpayable",
      "type": "constructor"
    },
    {
      "anonymous": false,
      "inputs": [
        {
          "indexed": false,
          "internalType": "address",
          "name": "oldAdmin",
          "type": "address"
        },
        {
          "indexed": false,
          "internalType": "address",
          "name": "newAdmin",
          "type": "address"
        }
      ],
      "name": "AdminChanged",
      "type": "event"
    },
    {
      "anonymous": false,
      "inputs": [
        {
          "indexed": true,
          "internalType": "address",
          "name": "buyer",
          "type": "address"
        },
        {
          "indexed": true,
          "internalType": "address",
          "name": "to",
          "type": "address"
        },
        {
          "indexed": true,
          "internalType": "uint256",
          "name": "topCornerId",
          "type": "uint256"
        },
        {
          "indexed": false,
          "internalType": "uint256",
          "name": "size",
          "type": "uint256"
        },
        {
          "indexed": false,
          "internalType": "uint256",
          "name": "price",
          "type": "uint256"
        },
        {
          "indexed": false,
          "internalType": "address",
          "name": "token",
          "type": "address"
        },
        {
          "indexed": false,
          "internalType": "uint256",
          "name": "amountPaid",
          "type": "uint256"
        }
      ],
      "name": "LandQuadPurchased",
      "type": "event"
    },
    {
      "anonymous": false,
      "inputs": [
        {
          "indexed": false,
          "internalType": "address",
          "name": "metaTransactionProcessor",
          "type": "address"
        },
        {
          "indexed": false,
          "internalType": "bool",
          "name": "enabled",
          "type": "bool"
        }
      ],
      "name": "MetaTransactionProcessor",
      "type": "event"
    },
    {
      "anonymous": false,
      "inputs": [
        {
          "indexed": true,
          "internalType": "address",
          "name": "referrer",
          "type": "address"
        },
        {
          "indexed": true,
          "internalType": "address",
          "name": "referee",
          "type": "address"
        },
        {
          "indexed": true,
          "internalType": "address",
          "name": "token",
          "type": "address"
        },
        {
          "indexed": false,
          "internalType": "uint256",
          "name": "amount",
          "type": "uint256"
        },
        {
          "indexed": false,
          "internalType": "uint256",
          "name": "commission",
          "type": "uint256"
        },
        {
          "indexed": false,
          "internalType": "uint256",
          "name": "commissionRate",
          "type": "uint256"
        }
      ],
      "name": "ReferralUsed",
      "type": "event"
    },
    {
      "inputs": [
        {
          "internalType": "address",
          "name": "buyer",
          "type": "address"
        },
        {
          "internalType": "address",
          "name": "to",
          "type": "address"
        },
        {
          "internalType": "address",
          "name": "reserved",
          "type": "address"
        },
        {
          "internalType": "uint256",
          "name": "x",
          "type": "uint256"
        },
        {
          "internalType": "uint256",
          "name": "y",
          "type": "uint256"
        },
        {
          "internalType": "uint256",
          "name": "size",
          "type": "uint256"
        },
        {
          "internalType": "uint256",
          "name": "priceInSand",
          "type": "uint256"
        },
        {
          "internalType": "uint256",
          "name": "adjustedPriceInSand",
          "type": "uint256"
        },
        {
          "internalType": "bytes32",
          "name": "salt",
          "type": "bytes32"
        },
        {
          "internalType": "uint256[]",
          "name": "assetIds",
          "type": "uint256[]"
        },
        {
          "internalType": "bytes32[]",
          "name": "proof",
          "type": "bytes32[]"
        },
        {
          "internalType": "bytes",
          "name": "referral",
          "type": "bytes"
        }
      ],
      "name": "buyLandWithSand",
      "outputs": [],
      "stateMutability": "nonpayable",
      "type": "function"
    },
    {
      "inputs": [
        {
          "internalType": "address",
          "name": "newAdmin",
          "type": "address"
        }
      ],
      "name": "changeAdmin",
      "outputs": [],
      "stateMutability": "nonpayable",
      "type": "function"
    },
    {
      "inputs": [
        {
          "internalType": "bytes",
          "name": "referral",
          "type": "bytes"
        }
      ],
      "name": "decodeReferral",
      "outputs": [
        {
          "internalType": "bytes",
          "name": "",
          "type": "bytes"
        },
        {
          "internalType": "address",
          "name": "",
          "type": "address"
        },
        {
          "internalType": "address",
          "name": "",
          "type": "address"
        },
        {
          "internalType": "uint256",
          "name": "",
          "type": "uint256"
        },
        {
          "internalType": "uint256",
          "name": "",
          "type": "uint256"
        }
      ],
      "stateMutability": "pure",
      "type": "function"
    },
    {
      "inputs": [],
      "name": "getAdmin",
      "outputs": [
        {
          "internalType": "address",
          "name": "",
          "type": "address"
        }
      ],
      "stateMutability": "view",
      "type": "function"
    },
    {
      "inputs": [],
      "name": "getExpiryTime",
      "outputs": [
        {
          "internalType": "uint256",
          "name": "",
          "type": "uint256"
        }
      ],
      "stateMutability": "view",
      "type": "function"
    },
    {
      "inputs": [],
      "name": "getMaxCommisionRate",
      "outputs": [
        {
          "internalType": "uint256",
          "name": "",
          "type": "uint256"
        }
      ],
      "stateMutability": "view",
      "type": "function"
    },
    {
      "inputs": [],
      "name": "getMerkleRoot",
      "outputs": [
        {
          "internalType": "bytes32",
          "name": "",
          "type": "bytes32"
        }
      ],
      "stateMutability": "view",
      "type": "function"
    },
    {
      "inputs": [],
      "name": "getSandMultiplier",
      "outputs": [
        {
          "internalType": "uint256",
          "name": "",
          "type": "uint256"
        }
      ],
      "stateMutability": "view",
      "type": "function"
    },
    {
      "inputs": [],
      "name": "getSigningWallet",
      "outputs": [
        {
          "internalType": "address",
          "name": "",
          "type": "address"
        }
      ],
      "stateMutability": "view",
      "type": "function"
    },
    {
      "inputs": [
        {
          "internalType": "address",
          "name": "who",
          "type": "address"
        }
      ],
      "name": "isMetaTransactionProcessor",
      "outputs": [
        {
          "internalType": "bool",
          "name": "",
          "type": "bool"
        }
      ],
      "stateMutability": "view",
      "type": "function"
    },
    {
      "inputs": [
        {
          "internalType": "bytes",
          "name": "signature",
          "type": "bytes"
        },
        {
          "internalType": "address",
          "name": "referrer",
          "type": "address"
        },
        {
          "internalType": "address",
          "name": "referee",
          "type": "address"
        },
        {
          "internalType": "uint256",
          "name": "expiryTime",
          "type": "uint256"
        },
        {
          "internalType": "uint256",
          "name": "commissionRate",
          "type": "uint256"
        }
      ],
      "name": "isReferralValid",
      "outputs": [
        {
          "internalType": "bool",
          "name": "",
          "type": "bool"
        }
      ],
      "stateMutability": "view",
      "type": "function"
    },
    {
      "inputs": [
        {
          "internalType": "address",
          "name": "",
          "type": "address"
        },
        {
          "internalType": "address",
          "name": "",
          "type": "address"
        },
        {
          "internalType": "uint256[]",
          "name": "",
          "type": "uint256[]"
        },
        {
          "internalType": "uint256[]",
          "name": "",
          "type": "uint256[]"
        },
        {
          "internalType": "bytes",
          "name": "",
          "type": "bytes"
        }
      ],
      "name": "onERC1155BatchReceived",
      "outputs": [
        {
          "internalType": "bytes4",
          "name": "",
          "type": "bytes4"
        }
      ],
      "stateMutability": "pure",
      "type": "function"
    },
    {
      "inputs": [
        {
          "internalType": "address",
          "name": "",
          "type": "address"
        },
        {
          "internalType": "address",
          "name": "",
          "type": "address"
        },
        {
          "internalType": "uint256",
          "name": "",
          "type": "uint256"
        },
        {
          "internalType": "uint256",
          "name": "",
          "type": "uint256"
        },
        {
          "internalType": "bytes",
          "name": "",
          "type": "bytes"
        }
      ],
      "name": "onERC1155Received",
      "outputs": [
        {
          "internalType": "bytes4",
          "name": "",
          "type": "bytes4"
        }
      ],
      "stateMutability": "pure",
      "type": "function"
    },
    {
      "inputs": [
        {
          "internalType": "uint256",
          "name": "newMultiplier",
          "type": "uint256"
        }
      ],
      "name": "rebalanceSand",
      "outputs": [],
      "stateMutability": "nonpayable",
      "type": "function"
    },
    {
      "inputs": [
        {
          "internalType": "address",
          "name": "metaTransactionProcessor",
          "type": "address"
        },
        {
          "internalType": "bool",
          "name": "enabled",
          "type": "bool"
        }
      ],
      "name": "setMetaTransactionProcessor",
      "outputs": [],
      "stateMutability": "nonpayable",
      "type": "function"
    },
    {
      "inputs": [
        {
          "internalType": "address payable",
          "name": "newWallet",
          "type": "address"
        }
      ],
      "name": "setReceivingWallet",
      "outputs": [],
      "stateMutability": "nonpayable",
      "type": "function"
    },
    {
      "inputs": [
        {
          "internalType": "uint256",
          "name": "newMaxCommissionRate",
          "type": "uint256"
        }
      ],
      "name": "updateMaxCommissionRate",
      "outputs": [],
      "stateMutability": "nonpayable",
      "type": "function"
    },
    {
      "inputs": [
        {
          "internalType": "address",
          "name": "newSigningWallet",
          "type": "address"
        }
      ],
      "name": "updateSigningWallet",
      "outputs": [],
      "stateMutability": "nonpayable",
      "type": "function"
    },
    {
      "inputs": [
        {
          "internalType": "address",
          "name": "to",
          "type": "address"
        },
        {
          "internalType": "uint256[]",
          "name": "assetIds",
          "type": "uint256[]"
        },
        {
          "internalType": "uint256[]",
          "name": "values",
          "type": "uint256[]"
        }
      ],
      "name": "withdrawAssets",
      "outputs": [],
      "stateMutability": "nonpayable",
      "type": "function"
    }
  ],
  "transactionHash": "0x969beea3f6b87626452cedcddc053fd5d651cc4af37a9d18c3f2924d12cc5317",
  "args": [
    "0xaF40A483bF77AAb7b7D13dB18187E6D62C1EA41b",
    "0xCc933a862fc15379E441F2A16Cb943D385a4695f",
    "0xCc933a862fc15379E441F2A16Cb943D385a4695f",
    "0x8A0e83DE499d7543CF486974a6196a35B5F573E7",
    "0x60927eB036621b801491B6c5e9A60A8d2dEeD75A",
    "0x3de50affd0874c92202f238c89b0a8fdf41d3c7698e2df38cd9fb34e316fa0cc",
    1645621200,
    "0xB7060D3FeCAC3AE1F0A0AA416E3e8E472257950e",
    2000,
    "0x0000000000000000000000000000000000000000",
    "0x8055a2c0f7EB177BeaB357B70E6504402d2b5fF6",
    "0x5983532A5b9009E05428595b87F19e42068a232B"
  ],
  "linkedData": [
    {
      "x": 404,
      "y": 325,
      "size": 1,
      "price": "905000000000000000000",
      "reserved": "0x7a9fe22691c811ea339d9b73150e6911a5343dca",
      "salt": "0x84ee9cbbe58f6501b38ab012afc938f908cfade176594f72dc9ae74347a5b4d3",
      "assetIds": []
    },
    {
      "x": 402,
      "y": 319,
      "size": 1,
      "price": "905000000000000000000",
      "reserved": "0x7a9fe22691c811ea339d9b73150e6911a5343dca",
      "salt": "0xf487255554a2d687a7e2a0cff034f8f47801d61049b9c25a1633222cea7bba4b",
      "assetIds": []
    },
    {
      "x": 398,
      "y": 320,
      "size": 1,
      "price": "905000000000000000000",
      "reserved": "0x7a9fe22691c811ea339d9b73150e6911a5343dca",
      "salt": "0x46684c3546235505626cb3311b1a68fdaf9d94b96361a7b95b5bb5764e3b096a",
      "assetIds": []
    },
    {
      "x": 391,
      "y": 321,
      "size": 1,
      "price": "905000000000000000000",
      "reserved": "0x7a9fe22691c811ea339d9b73150e6911a5343dca",
      "salt": "0x63d2a70fef7a5175767c1a4e487d06b7b97cbf777c9f5f032b04942d0800d4b8",
      "assetIds": []
    },
    {
      "x": 387,
      "y": 314,
      "size": 1,
      "price": "905000000000000000000",
      "reserved": "0x7a9fe22691c811ea339d9b73150e6911a5343dca",
      "salt": "0x13dca91a1bec0e68827001009099ec2fad7cc04da14bfa3323a3d772cd811b56",
      "assetIds": []
    },
    {
      "x": 390,
      "y": 313,
      "size": 1,
      "price": "905000000000000000000",
      "reserved": "0x7a9fe22691c811ea339d9b73150e6911a5343dca",
      "salt": "0xe800946c0db38b0b0e8beb2c103941a3c033c3579f7f3ecd947176e1069d603c",
      "assetIds": []
    },
    {
      "x": 384,
      "y": 307,
      "size": 1,
      "price": "905000000000000000000",
      "reserved": "0x7a9fe22691c811ea339d9b73150e6911a5343dca",
      "salt": "0x7be9b1903495600f0d8373789d6b6654efd3a2422774eeb0d436608c7a7780a0",
      "assetIds": []
    },
    {
      "x": 406,
      "y": 314,
      "size": 1,
      "price": "905000000000000000000",
      "reserved": "0x7a9fe22691c811ea339d9b73150e6911a5343dca",
      "salt": "0xac11f0a5dbcb12d11e41638cc3f19ea2015cda0d22f0e947822c8bb79037a237",
      "assetIds": []
    },
    {
      "x": 406,
      "y": 318,
      "size": 1,
      "price": "905000000000000000000",
      "reserved": "0x7a9fe22691c811ea339d9b73150e6911a5343dca",
      "salt": "0x232241d1ed3a445203fe3d3d258a1e9c5db64215c4081099466c1a1158689548",
      "assetIds": []
    },
    {
      "x": 405,
      "y": 333,
      "size": 1,
      "price": "905000000000000000000",
      "reserved": "0x7a9fe22691c811ea339d9b73150e6911a5343dca",
      "salt": "0x29b26d7c9b2682475671d5108c54229dc9513360cbe1c111724a93b45d1805b0",
      "assetIds": []
    },
    {
      "x": 399,
      "y": 334,
      "size": 1,
      "price": "905000000000000000000",
      "reserved": "0x7a9fe22691c811ea339d9b73150e6911a5343dca",
      "salt": "0x56c19048eb7423ae87feadc4370f35b1a475deef0eaf75f7eee7e0340bee1d3c",
      "assetIds": []
    },
    {
      "x": 385,
      "y": 340,
      "size": 1,
      "price": "905000000000000000000",
      "reserved": "0x7a9fe22691c811ea339d9b73150e6911a5343dca",
      "salt": "0x83803bf3c9d128c92eba491077569c787f88cd662c50ff24e35e8bc5131d45d7",
      "assetIds": []
    },
    {
      "x": 389,
      "y": 343,
      "size": 1,
      "price": "905000000000000000000",
      "reserved": "0x7a9fe22691c811ea339d9b73150e6911a5343dca",
      "salt": "0xb9522d4f5202247ad8aa14dc9f05dcbc67b7bcc4e0ffe7c8481dee3e671cebda",
      "assetIds": []
    },
    {
      "x": 391,
      "y": 342,
      "size": 1,
      "price": "905000000000000000000",
      "reserved": "0x7a9fe22691c811ea339d9b73150e6911a5343dca",
      "salt": "0x9dd2a2120e06db9a603fcf88453bec864e4645fb5452f7d3b2071dd5ce9ea2cd",
      "assetIds": []
    },
    {
      "x": 391,
      "y": 344,
      "size": 1,
      "price": "905000000000000000000",
      "reserved": "0x7a9fe22691c811ea339d9b73150e6911a5343dca",
      "salt": "0xf5d88fdbb822c1033922c62e595052de66c093dcf35bf438c6aa359f924258d7",
      "assetIds": []
    },
    {
      "x": 391,
      "y": 343,
      "size": 1,
      "price": "905000000000000000000",
      "reserved": "0x7a9fe22691c811ea339d9b73150e6911a5343dca",
      "salt": "0x46f09aeebacbaed2a970c1e761b78b54d4c08d7d781909e43c67b98a368e59d5",
      "assetIds": []
    },
    {
      "x": 394,
      "y": 342,
      "size": 1,
      "price": "905000000000000000000",
      "reserved": "0x7a9fe22691c811ea339d9b73150e6911a5343dca",
      "salt": "0xc638c44c9afa12dd6f7c7b121da18056365f3272e14bd6874522240af32b620d",
      "assetIds": []
    },
    {
      "x": 386,
      "y": 345,
      "size": 1,
      "price": "905000000000000000000",
      "reserved": "0x7a9fe22691c811ea339d9b73150e6911a5343dca",
      "salt": "0x6be23b1f4b845b8278c91b2fb104cddce8436eacda4e1d171740a8bee3c1bc0f",
      "assetIds": []
    },
    {
      "x": 385,
      "y": 345,
      "size": 1,
      "price": "905000000000000000000",
      "reserved": "0x7a9fe22691c811ea339d9b73150e6911a5343dca",
      "salt": "0x723925d6100ab3bdb3a8c1afd7f752c1f50cd9306fd339b0457bce214bc7b17f",
      "assetIds": []
    },
    {
      "x": 388,
      "y": 346,
      "size": 1,
      "price": "905000000000000000000",
      "reserved": "0x7a9fe22691c811ea339d9b73150e6911a5343dca",
      "salt": "0xf010dad3176649dc0551be578ae3dde477210d06da27b08528ff9b514eb1fbbc",
      "assetIds": []
    },
    {
      "x": 380,
      "y": 345,
      "size": 1,
      "price": "905000000000000000000",
      "reserved": "0x7a9fe22691c811ea339d9b73150e6911a5343dca",
      "salt": "0xeb1c78ea01fe85cf44f5e21cfd270120379e7c2fc5614177e5cc8b50e296e6a1",
      "assetIds": []
    },
    {
      "x": 380,
      "y": 349,
      "size": 1,
      "price": "905000000000000000000",
      "reserved": "0x7a9fe22691c811ea339d9b73150e6911a5343dca",
      "salt": "0x5affbe9d81694b4a4682a9e1a182ecc61988dce7210de63a58232e2b543b7f56",
      "assetIds": []
    },
    {
      "x": 382,
      "y": 352,
      "size": 1,
      "price": "905000000000000000000",
      "reserved": "0x7a9fe22691c811ea339d9b73150e6911a5343dca",
      "salt": "0x801dee6d63d13ec4e7f475b78cc9c2c3e5d4ce0b518cd39de3e60f238326c9bc",
      "assetIds": []
    },
    {
      "x": 376,
      "y": 340,
      "size": 1,
      "price": "905000000000000000000",
      "reserved": "0x7a9fe22691c811ea339d9b73150e6911a5343dca",
      "salt": "0x897277acbe5d11877dc774e210db2dda5eb2d6f541e3c878fcd57b4d0e40658c",
      "assetIds": []
    },
    {
      "x": 372,
      "y": 338,
      "size": 1,
      "price": "905000000000000000000",
      "reserved": "0x7a9fe22691c811ea339d9b73150e6911a5343dca",
      "salt": "0x175a4b5dd0eff169e1ffd4c356ee02650979c786db4a88c6aed00f7701f8aada",
      "assetIds": []
    },
    {
      "x": 395,
      "y": 347,
      "size": 1,
      "price": "905000000000000000000",
      "reserved": "0x7a9fe22691c811ea339d9b73150e6911a5343dca",
      "salt": "0xb9ad4865dd781f5c399a905df48b8caf1d88a29283f74e97fccd24336ca2e53c",
      "assetIds": []
    },
    {
      "x": 397,
      "y": 348,
      "size": 1,
      "price": "905000000000000000000",
      "reserved": "0x7a9fe22691c811ea339d9b73150e6911a5343dca",
      "salt": "0x44b134dd469e1ca6e0878ae97dedb3d4fb176554f02d10d7a3b6e0f4610eb3f1",
      "assetIds": []
    },
    {
      "x": 391,
      "y": 349,
      "size": 1,
      "price": "905000000000000000000",
      "reserved": "0x7a9fe22691c811ea339d9b73150e6911a5343dca",
      "salt": "0x2b0a3c730b7b6e64c231eda01c1deeb21ac592b4381af3357f41297b3aa5de9f",
      "assetIds": []
    },
    {
      "x": 393,
      "y": 353,
      "size": 1,
      "price": "905000000000000000000",
      "reserved": "0x7a9fe22691c811ea339d9b73150e6911a5343dca",
      "salt": "0x6d11f6aedf860c50ea3a0a5e25b52a5b328f9fccf27251816fa0f4a9a29ac678",
      "assetIds": []
    },
    {
      "x": 397,
      "y": 355,
      "size": 1,
      "price": "905000000000000000000",
      "reserved": "0x7a9fe22691c811ea339d9b73150e6911a5343dca",
      "salt": "0x3859ca62ab30ac27b880ff2b942333a01e0c41c4605b10883c7d0c0f1ab2e00b",
      "assetIds": []
    },
    {
      "x": 400,
      "y": 352,
      "size": 1,
      "price": "905000000000000000000",
      "reserved": "0x7a9fe22691c811ea339d9b73150e6911a5343dca",
      "salt": "0xd425f11db82c2ebebe36888856fea36fdbb5bd61e4185b0f889d3221e1716ace",
      "assetIds": []
    },
    {
      "x": 402,
      "y": 352,
      "size": 1,
      "price": "905000000000000000000",
      "reserved": "0x7a9fe22691c811ea339d9b73150e6911a5343dca",
      "salt": "0xed79e43d29fd3e925ee1657ef4cb25ad3969e5a793036b99c15dd370fad17b5b",
      "assetIds": []
    },
    {
      "x": 403,
      "y": 352,
      "size": 1,
      "price": "905000000000000000000",
      "reserved": "0x7a9fe22691c811ea339d9b73150e6911a5343dca",
      "salt": "0x6a3500474d60c3ec09093ff9399e3c2eea7c9c099a45bb1d4b414dfd84174127",
      "assetIds": []
    },
    {
      "x": 403,
      "y": 351,
      "size": 1,
      "price": "905000000000000000000",
      "reserved": "0x7a9fe22691c811ea339d9b73150e6911a5343dca",
      "salt": "0x66727ad747bee318f4097b9f0ec3c9706155fb8a837e1e9b8e393563377c0c71",
      "assetIds": []
    },
    {
      "x": 372,
      "y": 351,
      "size": 1,
      "price": "905000000000000000000",
      "reserved": "0x7a9fe22691c811ea339d9b73150e6911a5343dca",
      "salt": "0x0f08a7635c03f1a95bffee2fefe08354c30fc91726f8c6b9d63f013123892d2d",
      "assetIds": []
    },
    {
      "x": 363,
      "y": 350,
      "size": 1,
      "price": "905000000000000000000",
      "reserved": "0x7a9fe22691c811ea339d9b73150e6911a5343dca",
      "salt": "0x63ec74074a2c69e69c09e6860c8da18df02b8c315bda1e105762d24843394b4e",
      "assetIds": []
    },
    {
      "x": 357,
      "y": 353,
      "size": 1,
      "price": "905000000000000000000",
      "reserved": "0x7a9fe22691c811ea339d9b73150e6911a5343dca",
      "salt": "0x14c257904a3caa62f975aa98c53451618d609fc62aae1ad95b59fe7e8cf9683a",
      "assetIds": []
    },
    {
      "x": 354,
      "y": 345,
      "size": 1,
      "price": "905000000000000000000",
      "reserved": "0x7a9fe22691c811ea339d9b73150e6911a5343dca",
      "salt": "0x295b11ae89ddf1fa65ea00643bff3abe456232f254ea68f3d860b969aa509ea4",
      "assetIds": []
    },
    {
      "x": 356,
      "y": 344,
      "size": 1,
      "price": "905000000000000000000",
      "reserved": "0x7a9fe22691c811ea339d9b73150e6911a5343dca",
      "salt": "0xd3196d8139421451e62b0a2c39a2ce40ca61df74b34ec1cd660a60852609e5fe",
      "assetIds": []
    },
    {
      "x": 357,
      "y": 339,
      "size": 1,
      "price": "905000000000000000000",
      "reserved": "0x7a9fe22691c811ea339d9b73150e6911a5343dca",
      "salt": "0xa30f8bc013f47aadbf27496f599380aa68bba6e83130fa350b7334af3ef07e98",
      "assetIds": []
    },
    {
      "x": 351,
      "y": 314,
      "size": 1,
      "price": "905000000000000000000",
      "reserved": "0x7a9fe22691c811ea339d9b73150e6911a5343dca",
      "salt": "0x3ec375da5106834c215342b39d2b86b608b3464a3fd78ea38edaf5f7ac752706",
      "assetIds": []
    },
    {
      "x": 352,
      "y": 321,
      "size": 1,
      "price": "905000000000000000000",
      "reserved": "0x7a9fe22691c811ea339d9b73150e6911a5343dca",
      "salt": "0xb3f205c88948816cdc7546890e4f6c6bde61ea4e58ae5f50ce92a89288f16176",
      "assetIds": []
    },
    {
      "x": 349,
      "y": 324,
      "size": 1,
      "price": "905000000000000000000",
      "reserved": "0x7a9fe22691c811ea339d9b73150e6911a5343dca",
      "salt": "0x0634e49182562901f2fc9a1127f64cc4ae723ca2023ccca00bf9992c377f55a7",
      "assetIds": []
    },
    {
      "x": 350,
      "y": 330,
      "size": 1,
      "price": "905000000000000000000",
      "reserved": "0x7a9fe22691c811ea339d9b73150e6911a5343dca",
      "salt": "0x9db68573f27ac61143355710f0947654972605cb0a6e5f6491a5eeb3f84e1645",
      "assetIds": []
    },
    {
      "x": 350,
      "y": 331,
      "size": 1,
      "price": "905000000000000000000",
      "reserved": "0x7a9fe22691c811ea339d9b73150e6911a5343dca",
      "salt": "0x8c695cf16f29805e78bbb3b54aab4434142bd7df69aba45de3fafb8c0f387c0d",
      "assetIds": []
    },
    {
      "x": 353,
      "y": 333,
      "size": 1,
      "price": "905000000000000000000",
      "reserved": "0x7a9fe22691c811ea339d9b73150e6911a5343dca",
      "salt": "0x2ed7212c63c07488824e3bfde28b8f8eda1c98d075d7f4c6d460da742b3460a6",
      "assetIds": []
    },
    {
      "x": 353,
      "y": 334,
      "size": 1,
      "price": "905000000000000000000",
      "reserved": "0x7a9fe22691c811ea339d9b73150e6911a5343dca",
      "salt": "0x89f3fc0bc0437bd7f4b6932a7d41117f5519b7ba8a796084192e515d3422e6c4",
      "assetIds": []
    },
    {
      "x": 353,
      "y": 335,
      "size": 1,
      "price": "905000000000000000000",
      "reserved": "0x7a9fe22691c811ea339d9b73150e6911a5343dca",
      "salt": "0xf6e27e9b7651c25279c1f862fd725cffafb2071a49fcfd20f927927ad61150c4",
      "assetIds": []
    },
    {
      "x": 351,
      "y": 337,
      "size": 1,
      "price": "905000000000000000000",
      "reserved": "0x7a9fe22691c811ea339d9b73150e6911a5343dca",
      "salt": "0xb2b0dfdea323fe42859efc764af0711d3cdf43d8c3d06999885b386eb57507af",
      "assetIds": []
    },
    {
      "x": 356,
      "y": 327,
      "size": 1,
      "price": "905000000000000000000",
      "reserved": "0x7a9fe22691c811ea339d9b73150e6911a5343dca",
      "salt": "0xfea06d0d87ad5629773bd64349774397ad764809a9a437f62cd2e58e60bcbfa6",
      "assetIds": []
    },
    {
      "x": 378,
      "y": 306,
      "size": 1,
      "price": "2106000000000000000000",
      "reserved": "",
      "salt": "0x1feda1931b7a533e3731a1cd7f644dc1b8c188150b3db6a81e8baa266c754bfb",
      "assetIds": [
        "41506478881403507969696680653240014914910929820314476107906210059990431967235",
        "41506478881403507969696680653240014914910929820314476107906210059990431967236"
      ]
    },
    {
      "x": 379,
      "y": 306,
      "size": 1,
      "price": "2106000000000000000000",
      "reserved": "",
      "salt": "0x8dc7a9479b7c81da0bc85a06e2fe95c930cd6c4284dfa5c3a3e0dc0a44d7dae0",
      "assetIds": [
        "41506478881403507969696680653240014914910929820314476107906210059990431967233",
        "41506478881403507969696680653240014914910929820314476107906210059990431967234"
      ]
    },
    {
      "x": 380,
      "y": 306,
      "size": 1,
      "price": "2106000000000000000000",
      "reserved": "",
      "salt": "0x36682f24f23b201252f131a5c73da38d402c0c3f5f0013540330a7e33f600f74",
      "assetIds": [
        "41506478881403507969696680653240014914910929820314476107906210059990431967232",
        "41506478881403507969696680653240014914910929820314476107906210059990431967233"
      ]
    },
    {
      "x": 381,
      "y": 306,
      "size": 1,
      "price": "2106000000000000000000",
      "reserved": "",
      "salt": "0x95c97be00818324f42b1d96da1ea1662e05d47195bb964e7a4668f7d2550829f",
      "assetIds": [
        "41506478881403507969696680653240014914910929820314476107906210059990431967235",
        "41506478881403507969696680653240014914910929820314476107906210059990431967236"
      ]
    },
    {
      "x": 382,
      "y": 306,
      "size": 1,
      "price": "2106000000000000000000",
      "reserved": "",
      "salt": "0xc68372c47a4aa193c8cd4f1b2075e9ab75b1f6de381d62ad5621db994f1191f7",
      "assetIds": [
        "41506478881403507969696680653240014914910929820314476107906210059990431967232",
        "41506478881403507969696680653240014914910929820314476107906210059990431967233"
      ]
    },
    {
      "x": 383,
      "y": 306,
      "size": 1,
      "price": "2106000000000000000000",
      "reserved": "",
      "salt": "0xe72907d755ba01f0b855e772412fbc7974efec6b476534acccc69ea768825f0d",
      "assetIds": [
        "41506478881403507969696680653240014914910929820314476107906210059990431967235",
        "41506478881403507969696680653240014914910929820314476107906210059990431967236"
      ]
    },
    {
      "x": 384,
      "y": 306,
      "size": 1,
      "price": "2106000000000000000000",
      "reserved": "",
      "salt": "0xafd4605a53e1e33d61aca4e7e9f0b0eda9ec49593ed51dece903650429f11e2e",
      "assetIds": [
        "41506478881403507969696680653240014914910929820314476107906210059990431967234",
        "41506478881403507969696680653240014914910929820314476107906210059990431967235"
      ]
    },
    {
      "x": 385,
      "y": 306,
      "size": 1,
      "price": "2106000000000000000000",
      "reserved": "",
      "salt": "0xbb2f33f1a863d1d4a0801edbc97bc02e37121729f9105efd9729712940af077a",
      "assetIds": [
        "41506478881403507969696680653240014914910929820314476107906210059990431967233",
        "41506478881403507969696680653240014914910929820314476107906210059990431967234"
      ]
    },
    {
      "x": 386,
      "y": 306,
      "size": 1,
      "price": "2106000000000000000000",
      "reserved": "",
      "salt": "0x0a87c61d83de3557975966983278a675dda61259945adbda04a71848ede9a00c",
      "assetIds": [
        "41506478881403507969696680653240014914910929820314476107906210059990431967232",
        "41506478881403507969696680653240014914910929820314476107906210059990431967233"
      ]
    },
    {
      "x": 386,
      "y": 307,
      "size": 1,
      "price": "2106000000000000000000",
      "reserved": "",
      "salt": "0xfb37a89252c4d8f7b96fc323523a6610f6d59cba9abd2c88a5dcf85a1e4952fc",
      "assetIds": [
        "41506478881403507969696680653240014914910929820314476107906210059990431967235",
        "41506478881403507969696680653240014914910929820314476107906210059990431967236"
      ]
    },
    {
      "x": 386,
      "y": 308,
      "size": 1,
      "price": "2106000000000000000000",
      "reserved": "",
      "salt": "0x63fa0bcb928077c63c6173746f677b69c2b9679de54a3702cd7e44af9b9a1ced",
      "assetIds": [
        "41506478881403507969696680653240014914910929820314476107906210059990431967235",
        "41506478881403507969696680653240014914910929820314476107906210059990431967236"
      ]
    },
    {
      "x": 386,
      "y": 309,
      "size": 1,
      "price": "2106000000000000000000",
      "reserved": "",
      "salt": "0xd73e2fc7acbf9434b78826797507ec6aad29f02995cefaa26846bc023a7acbd5",
      "assetIds": [
        "41506478881403507969696680653240014914910929820314476107906210059990431967233",
        "41506478881403507969696680653240014914910929820314476107906210059990431967234"
      ]
    },
    {
      "x": 386,
      "y": 310,
      "size": 1,
      "price": "2106000000000000000000",
      "reserved": "",
      "salt": "0xc4a24903534c6916e487d5cbb52bcef428513de844f80c5a79bdb8d5307d3e9f",
      "assetIds": [
        "41506478881403507969696680653240014914910929820314476107906210059990431967235",
        "41506478881403507969696680653240014914910929820314476107906210059990431967236"
      ]
    },
    {
      "x": 386,
      "y": 311,
      "size": 1,
      "price": "2106000000000000000000",
      "reserved": "",
      "salt": "0xe88bb7a19f2632dd227a39848cb4cfefd0f4a96b2bec5175b1a484cb6f41e380",
      "assetIds": [
        "41506478881403507969696680653240014914910929820314476107906210059990431967232",
        "41506478881403507969696680653240014914910929820314476107906210059990431967233"
      ]
    },
    {
      "x": 386,
      "y": 312,
      "size": 1,
      "price": "2106000000000000000000",
      "reserved": "",
      "salt": "0x39bb1d5603d5004af75f56509c11bd63b161dde75e3bab61121cf101f0af7307",
      "assetIds": [
        "41506478881403507969696680653240014914910929820314476107906210059990431967235",
        "41506478881403507969696680653240014914910929820314476107906210059990431967236"
      ]
    },
    {
      "x": 387,
      "y": 312,
      "size": 1,
      "price": "2106000000000000000000",
      "reserved": "",
      "salt": "0x73925d3a6621c7221f65d8181c59bcccf0685e9c88304ff3ace6ec5d69e8863b",
      "assetIds": [
        "41506478881403507969696680653240014914910929820314476107906210059990431967234",
        "41506478881403507969696680653240014914910929820314476107906210059990431967235"
      ]
    },
    {
      "x": 388,
      "y": 312,
      "size": 1,
      "price": "2106000000000000000000",
      "reserved": "",
      "salt": "0xf88b06d1bd406a214c649d11602214379d8f2c672ab77fdb52f619777f65cffc",
      "assetIds": [
        "41506478881403507969696680653240014914910929820314476107906210059990431967234",
        "41506478881403507969696680653240014914910929820314476107906210059990431967235"
      ]
    },
    {
      "x": 389,
      "y": 312,
      "size": 1,
      "price": "2106000000000000000000",
      "reserved": "",
      "salt": "0xbc324e35c6aa86588f588d9d235048e904d4b5e068680518ab90e32fddd46281",
      "assetIds": [
        "41506478881403507969696680653240014914910929820314476107906210059990431967235",
        "41506478881403507969696680653240014914910929820314476107906210059990431967236"
      ]
    },
    {
      "x": 390,
      "y": 312,
      "size": 1,
      "price": "2106000000000000000000",
      "reserved": "",
      "salt": "0x1535251b734d1c23728e3942e1b915cfb4eea746d1f699814a2c5a6d56fc7aae",
      "assetIds": [
        "41506478881403507969696680653240014914910929820314476107906210059990431967233",
        "41506478881403507969696680653240014914910929820314476107906210059990431967234"
      ]
    },
    {
      "x": 391,
      "y": 312,
      "size": 1,
      "price": "2106000000000000000000",
      "reserved": "",
      "salt": "0x1d6842f56c29454813c40ec7120b43a80d8730053cc93cd822543909b0a8e1f6",
      "assetIds": [
        "41506478881403507969696680653240014914910929820314476107906210059990431967234",
        "41506478881403507969696680653240014914910929820314476107906210059990431967235"
      ]
    },
    {
      "x": 392,
      "y": 312,
      "size": 1,
      "price": "2106000000000000000000",
      "reserved": "",
      "salt": "0xea7907c6d665289286d25fd45f9a7c3feb9427e1b2ab863334e826e8cf7c1557",
      "assetIds": [
        "41506478881403507969696680653240014914910929820314476107906210059990431967232",
        "41506478881403507969696680653240014914910929820314476107906210059990431967233"
      ]
    },
    {
      "x": 392,
      "y": 313,
      "size": 1,
      "price": "2106000000000000000000",
      "reserved": "",
      "salt": "0xb507c554fd13c4d3377b079ffba7fe9c7765d065ed8134c1430b1fc962692099",
      "assetIds": [
        "41506478881403507969696680653240014914910929820314476107906210059990431967235",
        "41506478881403507969696680653240014914910929820314476107906210059990431967236"
      ]
    },
    {
      "x": 393,
      "y": 313,
      "size": 1,
      "price": "2106000000000000000000",
      "reserved": "",
      "salt": "0x494aa9e466436951c08934e9c2bb8a78b2fa15e7cc565e2e3219d0269b93ee72",
      "assetIds": [
        "41506478881403507969696680653240014914910929820314476107906210059990431967235",
        "41506478881403507969696680653240014914910929820314476107906210059990431967236"
      ]
    },
    {
      "x": 394,
      "y": 313,
      "size": 1,
      "price": "2106000000000000000000",
      "reserved": "",
      "salt": "0x5390d1fa7da13739429c86f0215084e9f7bd3c2fb4d154aaa0bd4f0f03497154",
      "assetIds": [
        "41506478881403507969696680653240014914910929820314476107906210059990431967232",
        "41506478881403507969696680653240014914910929820314476107906210059990431967233"
      ]
    },
    {
      "x": 395,
      "y": 313,
      "size": 1,
      "price": "2106000000000000000000",
      "reserved": "",
      "salt": "0x2f18ef8b0f7c81fe04da2efb34f37c75476220b501922cf92b7914be0a09f60a",
      "assetIds": [
        "41506478881403507969696680653240014914910929820314476107906210059990431967235",
        "41506478881403507969696680653240014914910929820314476107906210059990431967236"
      ]
    },
    {
      "x": 395,
      "y": 312,
      "size": 1,
      "price": "2106000000000000000000",
      "reserved": "",
      "salt": "0xf911a3e42a17a60f7f580a4bc810c9877685d3ac33785c138d1863ecd9d3613f",
      "assetIds": [
        "41506478881403507969696680653240014914910929820314476107906210059990431967235",
        "41506478881403507969696680653240014914910929820314476107906210059990431967236"
      ]
    },
    {
      "x": 394,
      "y": 312,
      "size": 1,
      "price": "2106000000000000000000",
      "reserved": "",
      "salt": "0x6dcc571e8dc94be51341e9c611cdb99f1650439dea283482203a03ea6f98d353",
      "assetIds": [
        "41506478881403507969696680653240014914910929820314476107906210059990431967233",
        "41506478881403507969696680653240014914910929820314476107906210059990431967234"
      ]
    },
    {
      "x": 393,
      "y": 312,
      "size": 1,
      "price": "2106000000000000000000",
      "reserved": "",
      "salt": "0x43c3afc9b02ba13728822e1489461a4c69f15b226a65dd49486fd7507d3533b5",
      "assetIds": [
        "41506478881403507969696680653240014914910929820314476107906210059990431967235",
        "41506478881403507969696680653240014914910929820314476107906210059990431967236"
      ]
    },
    {
      "x": 371,
      "y": 306,
      "size": 1,
      "price": "2106000000000000000000",
      "reserved": "",
      "salt": "0x6b3af406498ca83dd0640881fe1380695eb32ba7c462186913c79391699cff17",
      "assetIds": [
        "41506478881403507969696680653240014914910929820314476107906210059990431967234",
        "41506478881403507969696680653240014914910929820314476107906210059990431967235"
      ]
    },
    {
      "x": 370,
      "y": 306,
      "size": 1,
      "price": "2106000000000000000000",
      "reserved": "",
      "salt": "0x7cd26ef634f705cee10b958972450f4106c8f61b6158492e6e082516cca37e2e",
      "assetIds": [
        "41506478881403507969696680653240014914910929820314476107906210059990431967234",
        "41506478881403507969696680653240014914910929820314476107906210059990431967235"
      ]
    },
    {
      "x": 369,
      "y": 306,
      "size": 1,
      "price": "2106000000000000000000",
      "reserved": "",
      "salt": "0x80e698bdb6f1f2d904c04c106d4dbaf0171939e7f8399c0e1e0013c1188625ca",
      "assetIds": [
        "41506478881403507969696680653240014914910929820314476107906210059990431967233",
        "41506478881403507969696680653240014914910929820314476107906210059990431967234"
      ]
    },
    {
      "x": 369,
      "y": 307,
      "size": 1,
      "price": "2106000000000000000000",
      "reserved": "",
      "salt": "0xf21114c2f03f9315db1dbde6004772cadb8d815b7ba4a72c6157a6f641afab86",
      "assetIds": [
        "41506478881403507969696680653240014914910929820314476107906210059990431967232",
        "41506478881403507969696680653240014914910929820314476107906210059990431967233"
      ]
    },
    {
      "x": 368,
      "y": 307,
      "size": 1,
      "price": "2106000000000000000000",
      "reserved": "",
      "salt": "0xd469000ff944e225fafbc61efaf412f357160d27fce3f39c08891cd960d8bb3b",
      "assetIds": [
        "41506478881403507969696680653240014914910929820314476107906210059990431967235",
        "41506478881403507969696680653240014914910929820314476107906210059990431967236"
      ]
    },
    {
      "x": 367,
      "y": 307,
      "size": 1,
      "price": "2106000000000000000000",
      "reserved": "",
      "salt": "0x957a067c086c4f914e84effd22f3608b8c64f7f1c8bf6b448366dacb4c189c43",
      "assetIds": [
        "41506478881403507969696680653240014914910929820314476107906210059990431967233",
        "41506478881403507969696680653240014914910929820314476107906210059990431967234"
      ]
    },
    {
      "x": 366,
      "y": 307,
      "size": 1,
      "price": "2106000000000000000000",
      "reserved": "",
      "salt": "0xe3ed971b24adef9fa8d288e5751417be766996d940a2de4e7baeb860bbb8643d",
      "assetIds": [
        "41506478881403507969696680653240014914910929820314476107906210059990431967232",
        "41506478881403507969696680653240014914910929820314476107906210059990431967233"
      ]
    },
    {
      "x": 366,
      "y": 308,
      "size": 1,
      "price": "2106000000000000000000",
      "reserved": "",
      "salt": "0x1148e1b2c65c248299bdfb9b85ee2515a21a66ea0fe6b2a7963a4b2ed5859ed7",
      "assetIds": [
        "41506478881403507969696680653240014914910929820314476107906210059990431967235",
        "41506478881403507969696680653240014914910929820314476107906210059990431967236"
      ]
    },
    {
      "x": 366,
      "y": 309,
      "size": 1,
      "price": "2106000000000000000000",
      "reserved": "",
      "salt": "0x349de66c3a78725758364c96f06aa9c57c262eef42276a3ac67fce712ba297e6",
      "assetIds": [
        "41506478881403507969696680653240014914910929820314476107906210059990431967233",
        "41506478881403507969696680653240014914910929820314476107906210059990431967234"
      ]
    },
    {
      "x": 365,
      "y": 309,
      "size": 1,
      "price": "2106000000000000000000",
      "reserved": "",
      "salt": "0x95c63677db76dc2499164252a6eafe175f53d5b495adcde0cdf424ed193f2836",
      "assetIds": [
        "41506478881403507969696680653240014914910929820314476107906210059990431967235",
        "41506478881403507969696680653240014914910929820314476107906210059990431967236"
      ]
    },
    {
      "x": 364,
      "y": 309,
      "size": 1,
      "price": "2106000000000000000000",
      "reserved": "",
      "salt": "0x475f0fbfb5c172596c242a428d12c264039cde7a55780a3ec8461f3b40ef805f",
      "assetIds": [
        "41506478881403507969696680653240014914910929820314476107906210059990431967235",
        "41506478881403507969696680653240014914910929820314476107906210059990431967236"
      ]
    },
    {
      "x": 364,
      "y": 310,
      "size": 1,
      "price": "2106000000000000000000",
      "reserved": "",
      "salt": "0x9e830ab6df94bd66c7eb9ae3986498b7ee11de936b9124426929f5defb2da93d",
      "assetIds": [
        "41506478881403507969696680653240014914910929820314476107906210059990431967234",
        "41506478881403507969696680653240014914910929820314476107906210059990431967235"
      ]
    },
    {
      "x": 363,
      "y": 310,
      "size": 1,
      "price": "2106000000000000000000",
      "reserved": "",
      "salt": "0x25482b7a70e90e6c8d1686e2d1f5dce1d861287d3b43bac3971a0d2e6205217c",
      "assetIds": [
        "41506478881403507969696680653240014914910929820314476107906210059990431967233",
        "41506478881403507969696680653240014914910929820314476107906210059990431967234"
      ]
    },
    {
      "x": 362,
      "y": 310,
      "size": 1,
      "price": "2106000000000000000000",
      "reserved": "",
      "salt": "0x79b65e9983453c88216f84516b795be1c3ae212535604c4412333143175a0ad2",
      "assetIds": [
        "41506478881403507969696680653240014914910929820314476107906210059990431967234",
        "41506478881403507969696680653240014914910929820314476107906210059990431967235"
      ]
    },
    {
      "x": 362,
      "y": 309,
      "size": 1,
      "price": "2106000000000000000000",
      "reserved": "",
      "salt": "0xb5ade5d563fb06a9caee20604956b08d6a21812c5efc267ed928f7968b5074b6",
      "assetIds": [
        "41506478881403507969696680653240014914910929820314476107906210059990431967232",
        "41506478881403507969696680653240014914910929820314476107906210059990431967233"
      ]
    },
    {
      "x": 361,
      "y": 309,
      "size": 1,
      "price": "2106000000000000000000",
      "reserved": "",
      "salt": "0xc98bb5d58c60a5b38a3b75880efd90413fc27ade072c166f23080c8c6ec1004a",
      "assetIds": [
        "41506478881403507969696680653240014914910929820314476107906210059990431967233",
        "41506478881403507969696680653240014914910929820314476107906210059990431967234"
      ]
    },
    {
      "x": 360,
      "y": 309,
      "size": 1,
      "price": "2106000000000000000000",
      "reserved": "",
      "salt": "0x6062d4a7db1dc8642edf107012080711533fe7a3b388290b0a1b7b128a6ae4e0",
      "assetIds": [
        "41506478881403507969696680653240014914910929820314476107906210059990431967235",
        "41506478881403507969696680653240014914910929820314476107906210059990431967236"
      ]
    },
    {
      "x": 359,
      "y": 309,
      "size": 1,
      "price": "2106000000000000000000",
      "reserved": "",
      "salt": "0x005ddc2b6235a52434e543e73ced910e2c4a1eeb62b5d15e5cc0a70438590182",
      "assetIds": [
        "41506478881403507969696680653240014914910929820314476107906210059990431967233",
        "41506478881403507969696680653240014914910929820314476107906210059990431967234"
      ]
    },
    {
      "x": 358,
      "y": 309,
      "size": 1,
      "price": "2106000000000000000000",
      "reserved": "",
      "salt": "0x490a7788367311dd62521081ddcd59124cd06754e5f92b2e496de8708a1f844a",
      "assetIds": [
        "41506478881403507969696680653240014914910929820314476107906210059990431967234",
        "41506478881403507969696680653240014914910929820314476107906210059990431967235"
      ]
    },
    {
      "x": 358,
      "y": 310,
      "size": 1,
      "price": "2106000000000000000000",
      "reserved": "",
      "salt": "0xe28638e7f9c370becc029957e97a437f1321ce73dd2e93200218840392591203",
      "assetIds": [
        "41506478881403507969696680653240014914910929820314476107906210059990431967234",
        "41506478881403507969696680653240014914910929820314476107906210059990431967235"
      ]
    },
    {
      "x": 357,
      "y": 310,
      "size": 1,
      "price": "2106000000000000000000",
      "reserved": "",
      "salt": "0x2a0b2ae662b52de0c03d69ce41d85159a3e89ad5d4db0f524e1178a459afc495",
      "assetIds": [
        "41506478881403507969696680653240014914910929820314476107906210059990431967234",
        "41506478881403507969696680653240014914910929820314476107906210059990431967235"
      ]
    },
    {
      "x": 357,
      "y": 311,
      "size": 1,
      "price": "2106000000000000000000",
      "reserved": "",
      "salt": "0x3de546b4cad3e66db4027853f19525c2afb12f66e7803c7c9cc8901cd9cebf2e",
      "assetIds": [
        "41506478881403507969696680653240014914910929820314476107906210059990431967232",
        "41506478881403507969696680653240014914910929820314476107906210059990431967233"
      ]
    },
    {
      "x": 357,
      "y": 309,
      "size": 1,
      "price": "2106000000000000000000",
      "reserved": "",
      "salt": "0xd1c3176ec87ad7034e9385e1edfc1d85198d2a198d427c44b87f3d93b0635baf",
      "assetIds": [
        "41506478881403507969696680653240014914910929820314476107906210059990431967233",
        "41506478881403507969696680653240014914910929820314476107906210059990431967234"
      ]
    },
    {
      "x": 363,
      "y": 309,
      "size": 1,
      "price": "2106000000000000000000",
      "reserved": "",
      "salt": "0xf9fc56a58a5d6a90658215a7f589d96655a38e1e30d71bcefd19f6fb3746d93c",
      "assetIds": [
        "41506478881403507969696680653240014914910929820314476107906210059990431967233",
        "41506478881403507969696680653240014914910929820314476107906210059990431967234"
      ]
    },
    {
      "x": 359,
      "y": 310,
      "size": 1,
      "price": "2106000000000000000000",
      "reserved": "",
      "salt": "0x95ab3ee58750bba1444444de58e8d43d3fe81ea9c4477616d890d1d17d86d7e8",
      "assetIds": [
        "41506478881403507969696680653240014914910929820314476107906210059990431967235",
        "41506478881403507969696680653240014914910929820314476107906210059990431967236"
      ]
    },
    {
      "x": 360,
      "y": 310,
      "size": 1,
      "price": "2106000000000000000000",
      "reserved": "",
      "salt": "0x8905abed395335678b5f87760be825efb84748b16e8780962c9e22c92b18b813",
      "assetIds": [
        "41506478881403507969696680653240014914910929820314476107906210059990431967233",
        "41506478881403507969696680653240014914910929820314476107906210059990431967234"
      ]
    },
    {
      "x": 361,
      "y": 310,
      "size": 1,
      "price": "2106000000000000000000",
      "reserved": "",
      "salt": "0x9117de771fcac570221eed08923645203694198b3bdd2bb7e851f046da46482c",
      "assetIds": [
        "41506478881403507969696680653240014914910929820314476107906210059990431967232",
        "41506478881403507969696680653240014914910929820314476107906210059990431967233"
      ]
    },
    {
      "x": 358,
      "y": 311,
      "size": 1,
      "price": "2106000000000000000000",
      "reserved": "",
      "salt": "0x2e1db5fdb14e5780cd02f3783f295f5ca85e5f01147137dcfba5b91c0f347144",
      "assetIds": [
        "41506478881403507969696680653240014914910929820314476107906210059990431967232",
        "41506478881403507969696680653240014914910929820314476107906210059990431967233"
      ]
    },
    {
      "x": 359,
      "y": 311,
      "size": 1,
      "price": "2106000000000000000000",
      "reserved": "",
      "salt": "0xd06e03c335b0ad8b11406e62aa6f265f8915c8343872ad78fb0d233c9b9a2068",
      "assetIds": [
        "41506478881403507969696680653240014914910929820314476107906210059990431967233",
        "41506478881403507969696680653240014914910929820314476107906210059990431967234"
      ]
    },
    {
      "x": 360,
      "y": 311,
      "size": 1,
      "price": "2106000000000000000000",
      "reserved": "",
      "salt": "0xc78b51f1648e75164f3b286a491f4854e57e7a905f4f8e1d3ecde7ea67f33af1",
      "assetIds": [
        "41506478881403507969696680653240014914910929820314476107906210059990431967233",
        "41506478881403507969696680653240014914910929820314476107906210059990431967234"
      ]
    },
    {
      "x": 361,
      "y": 311,
      "size": 1,
      "price": "2106000000000000000000",
      "reserved": "",
      "salt": "0x8dcce408159e042b45c738f7bd86b806d1a01debe8ec1ef17ec66ab53eda9540",
      "assetIds": [
        "41506478881403507969696680653240014914910929820314476107906210059990431967232",
        "41506478881403507969696680653240014914910929820314476107906210059990431967233"
      ]
    },
    {
      "x": 362,
      "y": 311,
      "size": 1,
      "price": "2106000000000000000000",
      "reserved": "",
      "salt": "0x09c9076cce86c9a245c89a68624e8b80583bc6ce67345499b13cb06ee2415967",
      "assetIds": [
        "41506478881403507969696680653240014914910929820314476107906210059990431967234",
        "41506478881403507969696680653240014914910929820314476107906210059990431967235"
      ]
    },
    {
      "x": 363,
      "y": 311,
      "size": 1,
      "price": "2106000000000000000000",
      "reserved": "",
      "salt": "0xfd41c10f2c6b42f03bbeca8eb12f7154cb1d0def4ef1fa65e84c858055da490f",
      "assetIds": [
        "41506478881403507969696680653240014914910929820314476107906210059990431967234",
        "41506478881403507969696680653240014914910929820314476107906210059990431967235"
      ]
    },
    {
      "x": 364,
      "y": 311,
      "size": 1,
      "price": "2106000000000000000000",
      "reserved": "",
      "salt": "0x9a10e94cdc9487ef03c4af6c036aea3ec51c7db2992b18e418af2c96aa2d3a61",
      "assetIds": [
        "41506478881403507969696680653240014914910929820314476107906210059990431967235",
        "41506478881403507969696680653240014914910929820314476107906210059990431967236"
      ]
    },
    {
      "x": 365,
      "y": 311,
      "size": 1,
      "price": "2106000000000000000000",
      "reserved": "",
      "salt": "0x3da9a3c4caa7acfaef225940ed5779f8c88335f1d0e6b6f15049c58668853b14",
      "assetIds": [
        "41506478881403507969696680653240014914910929820314476107906210059990431967232",
        "41506478881403507969696680653240014914910929820314476107906210059990431967233"
      ]
    },
    {
      "x": 366,
      "y": 311,
      "size": 1,
      "price": "2106000000000000000000",
      "reserved": "",
      "salt": "0x0035c6e076afbe3779c22d4b24213940626f36e9cdef1534d569a4c9ebea1892",
      "assetIds": [
        "41506478881403507969696680653240014914910929820314476107906210059990431967233",
        "41506478881403507969696680653240014914910929820314476107906210059990431967234"
      ]
    },
    {
      "x": 367,
      "y": 311,
      "size": 1,
      "price": "2106000000000000000000",
      "reserved": "",
      "salt": "0x79f2ac8f04939029b36826726ed7c1674e5de59ece6fb17e809b0df6e9c2c4ba",
      "assetIds": [
        "41506478881403507969696680653240014914910929820314476107906210059990431967233",
        "41506478881403507969696680653240014914910929820314476107906210059990431967234"
      ]
    },
    {
      "x": 368,
      "y": 311,
      "size": 1,
      "price": "2106000000000000000000",
      "reserved": "",
      "salt": "0xa674376945c7c0a23e6c0696ec01effb6bb68b0c51272ef9a28856b23be679ba",
      "assetIds": [
        "41506478881403507969696680653240014914910929820314476107906210059990431967235",
        "41506478881403507969696680653240014914910929820314476107906210059990431967236"
      ]
    },
    {
      "x": 369,
      "y": 311,
      "size": 1,
      "price": "2106000000000000000000",
      "reserved": "",
      "salt": "0xc26da522e8e9d7b2793526934d32dc9178831de34b798a237f3da8cc1d38c173",
      "assetIds": [
        "41506478881403507969696680653240014914910929820314476107906210059990431967235",
        "41506478881403507969696680653240014914910929820314476107906210059990431967236"
      ]
    },
    {
      "x": 370,
      "y": 311,
      "size": 1,
      "price": "2106000000000000000000",
      "reserved": "",
      "salt": "0x15c57d3721db125d77960d771cc63d440d3f1ccd9452f7e4b17609c2406dc3ac",
      "assetIds": [
        "41506478881403507969696680653240014914910929820314476107906210059990431967235",
        "41506478881403507969696680653240014914910929820314476107906210059990431967236"
      ]
    },
    {
      "x": 371,
      "y": 311,
      "size": 1,
      "price": "2106000000000000000000",
      "reserved": "",
      "salt": "0x166a68edb303ac92c9e16e59b80d6d26e77b4865f63bf5f2b3d0d6d73a0806d0",
      "assetIds": [
        "41506478881403507969696680653240014914910929820314476107906210059990431967234",
        "41506478881403507969696680653240014914910929820314476107906210059990431967235"
      ]
    },
    {
      "x": 371,
      "y": 310,
      "size": 1,
      "price": "2106000000000000000000",
      "reserved": "",
      "salt": "0x271ba714451af92195d6e8b86d3d4fbe710e7e2ef9be821346781c8199d581da",
      "assetIds": [
        "41506478881403507969696680653240014914910929820314476107906210059990431967234",
        "41506478881403507969696680653240014914910929820314476107906210059990431967235"
      ]
    },
    {
      "x": 371,
      "y": 309,
      "size": 1,
      "price": "2106000000000000000000",
      "reserved": "",
      "salt": "0x0eb189688b4b916d94395fae0ac2c3038dd38cb2bbd89bff8d978816c80db213",
      "assetIds": [
        "41506478881403507969696680653240014914910929820314476107906210059990431967232",
        "41506478881403507969696680653240014914910929820314476107906210059990431967233"
      ]
    },
    {
      "x": 371,
      "y": 308,
      "size": 1,
      "price": "2106000000000000000000",
      "reserved": "",
      "salt": "0x3061fdf73b69e5378b0e50d95ba74fad6416796806de7ad78887726acee1a6d6",
      "assetIds": [
        "41506478881403507969696680653240014914910929820314476107906210059990431967233",
        "41506478881403507969696680653240014914910929820314476107906210059990431967234"
      ]
    },
    {
      "x": 371,
      "y": 307,
      "size": 1,
      "price": "2106000000000000000000",
      "reserved": "",
      "salt": "0xc183ac7b9bfb9202b22493a226a15ebab2283a3bdcdbd6a91048dabd04e069fd",
      "assetIds": [
        "41506478881403507969696680653240014914910929820314476107906210059990431967232",
        "41506478881403507969696680653240014914910929820314476107906210059990431967233"
      ]
    },
    {
      "x": 370,
      "y": 307,
      "size": 1,
      "price": "2106000000000000000000",
      "reserved": "",
      "salt": "0x2071f2d91bb7455e3320682fdf068d853d3d343c10d562c3a65370ab9ec8ad8f",
      "assetIds": [
        "41506478881403507969696680653240014914910929820314476107906210059990431967233",
        "41506478881403507969696680653240014914910929820314476107906210059990431967234"
      ]
    },
    {
      "x": 369,
      "y": 308,
      "size": 1,
      "price": "2106000000000000000000",
      "reserved": "",
      "salt": "0x8fe60ed3c262d534f90bfaef5c2ee94288e7364452e39d9bf02ab5e251ec4c86",
      "assetIds": [
        "41506478881403507969696680653240014914910929820314476107906210059990431967232",
        "41506478881403507969696680653240014914910929820314476107906210059990431967233"
      ]
    },
    {
      "x": 369,
      "y": 309,
      "size": 1,
      "price": "2106000000000000000000",
      "reserved": "",
      "salt": "0xf8b93cee2d278a59adb626eb487ebb7979d84f67182028f2fe5b023db9c0286b",
      "assetIds": [
        "41506478881403507969696680653240014914910929820314476107906210059990431967232",
        "41506478881403507969696680653240014914910929820314476107906210059990431967233"
      ]
    },
    {
      "x": 369,
      "y": 310,
      "size": 1,
      "price": "2106000000000000000000",
      "reserved": "",
      "salt": "0xeca82bf5c8a9c3df5dc9f6b25d34f1a4a0be88c7416d0359d3314dfe883268e5",
      "assetIds": [
        "41506478881403507969696680653240014914910929820314476107906210059990431967234",
        "41506478881403507969696680653240014914910929820314476107906210059990431967235"
      ]
    },
    {
      "x": 368,
      "y": 310,
      "size": 1,
      "price": "2106000000000000000000",
      "reserved": "",
      "salt": "0x12a3c38f4bfa2e43963f264ac6e307337d3facb6ae381529ef53a156235c9398",
      "assetIds": [
        "41506478881403507969696680653240014914910929820314476107906210059990431967233",
        "41506478881403507969696680653240014914910929820314476107906210059990431967234"
      ]
    },
    {
      "x": 367,
      "y": 310,
      "size": 1,
      "price": "2106000000000000000000",
      "reserved": "",
      "salt": "0x462207a2fec3e840a83f462c9d60918be52fd72da57baad24b595fc97081034f",
      "assetIds": [
        "41506478881403507969696680653240014914910929820314476107906210059990431967234",
        "41506478881403507969696680653240014914910929820314476107906210059990431967235"
      ]
    },
    {
      "x": 367,
      "y": 309,
      "size": 1,
      "price": "2106000000000000000000",
      "reserved": "",
      "salt": "0xd5c100a947d60fd97d8a7dea5eec949653a23e4cb208577fbdc9d4edda41d5d6",
      "assetIds": [
        "41506478881403507969696680653240014914910929820314476107906210059990431967232",
        "41506478881403507969696680653240014914910929820314476107906210059990431967233"
      ]
    },
    {
      "x": 366,
      "y": 310,
      "size": 1,
      "price": "2106000000000000000000",
      "reserved": "",
      "salt": "0xe3a77cdc1d36b10a636bc63d319ba1f4806959fdb93b432cf20bf0813fcce864",
      "assetIds": [
        "41506478881403507969696680653240014914910929820314476107906210059990431967235",
        "41506478881403507969696680653240014914910929820314476107906210059990431967236"
      ]
    },
    {
      "x": 365,
      "y": 310,
      "size": 1,
      "price": "2106000000000000000000",
      "reserved": "",
      "salt": "0xbac9781e5a668916860c1f7f9e7534fbf41c8e4a7db11a276771d7dc60c8ce43",
      "assetIds": [
        "41506478881403507969696680653240014914910929820314476107906210059990431967234",
        "41506478881403507969696680653240014914910929820314476107906210059990431967235"
      ]
    },
    {
      "x": 368,
      "y": 309,
      "size": 1,
      "price": "2106000000000000000000",
      "reserved": "",
      "salt": "0xf170621099a4b86cd7847c0825ff936d1d42171307eea4ac29a844cf8f94bc05",
      "assetIds": [
        "41506478881403507969696680653240014914910929820314476107906210059990431967233",
        "41506478881403507969696680653240014914910929820314476107906210059990431967234"
      ]
    },
    {
      "x": 368,
      "y": 308,
      "size": 1,
      "price": "2106000000000000000000",
      "reserved": "",
      "salt": "0x346308b0ba7d43eb6dfaad1a7ce9734d8dc359212902ebeb504d3915a2aedc1f",
      "assetIds": [
        "41506478881403507969696680653240014914910929820314476107906210059990431967232",
        "41506478881403507969696680653240014914910929820314476107906210059990431967233"
      ]
    },
    {
      "x": 367,
      "y": 308,
      "size": 1,
      "price": "2106000000000000000000",
      "reserved": "",
      "salt": "0x4cd7255e13f0a1971c696e142080cc9303ef01df810db8138d6aa3a1f23ff5ed",
      "assetIds": [
        "41506478881403507969696680653240014914910929820314476107906210059990431967233",
        "41506478881403507969696680653240014914910929820314476107906210059990431967234"
      ]
    },
    {
      "x": 370,
      "y": 308,
      "size": 1,
      "price": "2106000000000000000000",
      "reserved": "",
      "salt": "0x3f13a0d5178c4e7f0416b095ea33c9aa60c9cd419bece8f70b2158d58fb5b2e0",
      "assetIds": [
        "41506478881403507969696680653240014914910929820314476107906210059990431967232",
        "41506478881403507969696680653240014914910929820314476107906210059990431967233"
      ]
    },
    {
      "x": 370,
      "y": 309,
      "size": 1,
      "price": "2106000000000000000000",
      "reserved": "",
      "salt": "0xd9b26a5c1d16b4df6f42ec3447505856ea1eb1b5758a9a03d77091713838cd1b",
      "assetIds": [
        "41506478881403507969696680653240014914910929820314476107906210059990431967233",
        "41506478881403507969696680653240014914910929820314476107906210059990431967234"
      ]
    },
    {
      "x": 370,
      "y": 310,
      "size": 1,
      "price": "2106000000000000000000",
      "reserved": "",
      "salt": "0x045d36325d36fdccd083985997e01e56bd97867b5d26215039d1a97869bdc5dc",
      "assetIds": [
        "41506478881403507969696680653240014914910929820314476107906210059990431967234",
        "41506478881403507969696680653240014914910929820314476107906210059990431967235"
      ]
    },
    {
      "x": 378,
      "y": 311,
      "size": 1,
      "price": "2106000000000000000000",
      "reserved": "",
      "salt": "0x460f7afca71f1769f5a5fd9a6d413ae661b63c231fa968bf223f879abc89331e",
      "assetIds": [
        "41506478881403507969696680653240014914910929820314476107906210059990431967235",
        "41506478881403507969696680653240014914910929820314476107906210059990431967236"
      ]
    },
    {
      "x": 379,
      "y": 311,
      "size": 1,
      "price": "2106000000000000000000",
      "reserved": "",
      "salt": "0x97f3bdd5027b8576b0d51f2ddb13cde38ea363c4ddd705b30e8c67b8033f1f58",
      "assetIds": [
        "41506478881403507969696680653240014914910929820314476107906210059990431967232",
        "41506478881403507969696680653240014914910929820314476107906210059990431967233"
      ]
    },
    {
      "x": 379,
      "y": 310,
      "size": 1,
      "price": "2106000000000000000000",
      "reserved": "",
      "salt": "0xca4904f9241758cc9e2abcb85ccbb25271fd6d0e7be2a56d0f77bd4653e6a213",
      "assetIds": [
        "41506478881403507969696680653240014914910929820314476107906210059990431967235",
        "41506478881403507969696680653240014914910929820314476107906210059990431967236"
      ]
    },
    {
      "x": 380,
      "y": 310,
      "size": 1,
      "price": "2106000000000000000000",
      "reserved": "",
      "salt": "0x5796b09749885f2630ad0e028711fc0d450a4f8c1874a38c371006b980e84ff6",
      "assetIds": [
        "41506478881403507969696680653240014914910929820314476107906210059990431967233",
        "41506478881403507969696680653240014914910929820314476107906210059990431967234"
      ]
    },
    {
      "x": 381,
      "y": 310,
      "size": 1,
      "price": "2106000000000000000000",
      "reserved": "",
      "salt": "0xfb064cb2b7c0c35b9b1507cc2d2e61ed4ed23f12df542bcd6fb818ae6030ab03",
      "assetIds": [
        "41506478881403507969696680653240014914910929820314476107906210059990431967233",
        "41506478881403507969696680653240014914910929820314476107906210059990431967234"
      ]
    },
    {
      "x": 382,
      "y": 310,
      "size": 1,
      "price": "2106000000000000000000",
      "reserved": "",
      "salt": "0x7befce5e77feadd00d235dd35341337b20cdc248649e9a1091b333203039220f",
      "assetIds": [
        "41506478881403507969696680653240014914910929820314476107906210059990431967232",
        "41506478881403507969696680653240014914910929820314476107906210059990431967233"
      ]
    },
    {
      "x": 383,
      "y": 310,
      "size": 1,
      "price": "2106000000000000000000",
      "reserved": "",
      "salt": "0x02f21677adbe0e5c73e634e63af4e628030448196789ef547f50a77c9d176e73",
      "assetIds": [
        "41506478881403507969696680653240014914910929820314476107906210059990431967234",
        "41506478881403507969696680653240014914910929820314476107906210059990431967235"
      ]
    },
    {
      "x": 384,
      "y": 310,
      "size": 1,
      "price": "2106000000000000000000",
      "reserved": "",
      "salt": "0x1de6c566fdae1e8c48fae54a6032b6b3ad1c3b1b7d965a898906689263b96c84",
      "assetIds": [
        "41506478881403507969696680653240014914910929820314476107906210059990431967232",
        "41506478881403507969696680653240014914910929820314476107906210059990431967233"
      ]
    },
    {
      "x": 385,
      "y": 310,
      "size": 1,
      "price": "2106000000000000000000",
      "reserved": "",
      "salt": "0x4e518b465679e3ed5d22f09efa8292e6af6b723f92a0ebe95b276e0a17f5232e",
      "assetIds": [
        "41506478881403507969696680653240014914910929820314476107906210059990431967234",
        "41506478881403507969696680653240014914910929820314476107906210059990431967235"
      ]
    },
    {
      "x": 385,
      "y": 309,
      "size": 1,
      "price": "2106000000000000000000",
      "reserved": "",
      "salt": "0x8f2673a4c42e9ae36c0a4c98007d9bc4aed970eee437ab4f34736e21028ae802",
      "assetIds": [
        "41506478881403507969696680653240014914910929820314476107906210059990431967234",
        "41506478881403507969696680653240014914910929820314476107906210059990431967235"
      ]
    },
    {
      "x": 385,
      "y": 308,
      "size": 1,
      "price": "2106000000000000000000",
      "reserved": "",
      "salt": "0x85421b28b09f6b5fc98a14b60176f501fc0d0aa676aeb936b413f62f9940cde7",
      "assetIds": [
        "41506478881403507969696680653240014914910929820314476107906210059990431967233",
        "41506478881403507969696680653240014914910929820314476107906210059990431967234"
      ]
    },
    {
      "x": 385,
      "y": 307,
      "size": 1,
      "price": "2106000000000000000000",
      "reserved": "",
      "salt": "0x30c001faae0e5a87e420f79501821eb4fe6981e4d10be3b8780dd8693a55a9a9",
      "assetIds": [
        "41506478881403507969696680653240014914910929820314476107906210059990431967232",
        "41506478881403507969696680653240014914910929820314476107906210059990431967233"
      ]
    },
    {
      "x": 383,
      "y": 307,
      "size": 1,
      "price": "2106000000000000000000",
      "reserved": "",
      "salt": "0x24ecdb46c26816dbf6aa22c39574cc5bb2c2698ab752693f21bd729a765f6a6b",
      "assetIds": [
        "41506478881403507969696680653240014914910929820314476107906210059990431967233",
        "41506478881403507969696680653240014914910929820314476107906210059990431967234"
      ]
    },
    {
      "x": 382,
      "y": 307,
      "size": 1,
      "price": "2106000000000000000000",
      "reserved": "",
      "salt": "0x6de1fc6e6356cf93619b85cf9812a487233278cfa9ead128fd4e1dd0673d4ce4",
      "assetIds": [
        "41506478881403507969696680653240014914910929820314476107906210059990431967235",
        "41506478881403507969696680653240014914910929820314476107906210059990431967236"
      ]
    },
    {
      "x": 381,
      "y": 307,
      "size": 1,
      "price": "2106000000000000000000",
      "reserved": "",
      "salt": "0x268caf8b850b753434c398fe4bff3030e6ced971463e9cb9b7f12e33166d3280",
      "assetIds": [
        "41506478881403507969696680653240014914910929820314476107906210059990431967232",
        "41506478881403507969696680653240014914910929820314476107906210059990431967233"
      ]
    },
    {
      "x": 380,
      "y": 307,
      "size": 1,
      "price": "2106000000000000000000",
      "reserved": "",
      "salt": "0x73d6dd10cac0cfad3a5b211911355511c9b42d14c1e2b89172977a7608bd54a4",
      "assetIds": [
        "41506478881403507969696680653240014914910929820314476107906210059990431967235",
        "41506478881403507969696680653240014914910929820314476107906210059990431967236"
      ]
    },
    {
      "x": 379,
      "y": 307,
      "size": 1,
      "price": "2106000000000000000000",
      "reserved": "",
      "salt": "0x0871ff02e6c506bf0b18de3b25da57d5f2208cb6b14266eb681f932d5652f090",
      "assetIds": [
        "41506478881403507969696680653240014914910929820314476107906210059990431967232",
        "41506478881403507969696680653240014914910929820314476107906210059990431967233"
      ]
    },
    {
      "x": 378,
      "y": 307,
      "size": 1,
      "price": "2106000000000000000000",
      "reserved": "",
      "salt": "0x51b4767502e59b375af792bb092839314b58c7448933ea71c7ed64cc48f4d95e",
      "assetIds": [
        "41506478881403507969696680653240014914910929820314476107906210059990431967233",
        "41506478881403507969696680653240014914910929820314476107906210059990431967234"
      ]
    },
    {
      "x": 378,
      "y": 308,
      "size": 1,
      "price": "2106000000000000000000",
      "reserved": "",
      "salt": "0x7c76bc508f23eb86b3eb5640be96947f483f2263937bc58c60cdea4f412a6661",
      "assetIds": [
        "41506478881403507969696680653240014914910929820314476107906210059990431967233",
        "41506478881403507969696680653240014914910929820314476107906210059990431967234"
      ]
    },
    {
      "x": 378,
      "y": 309,
      "size": 1,
      "price": "2106000000000000000000",
      "reserved": "",
      "salt": "0x7ebd4804d0ec478d7a4a8c1b24b0196d36ec6aef1cc61753a752c9d2c5d3428b",
      "assetIds": [
        "41506478881403507969696680653240014914910929820314476107906210059990431967232",
        "41506478881403507969696680653240014914910929820314476107906210059990431967233"
      ]
    },
    {
      "x": 378,
      "y": 310,
      "size": 1,
      "price": "2106000000000000000000",
      "reserved": "",
      "salt": "0xedb2fddddf0aaba065dff504f97d2fa8300e6a08efaa8bac4b700f9163611e95",
      "assetIds": [
        "41506478881403507969696680653240014914910929820314476107906210059990431967235",
        "41506478881403507969696680653240014914910929820314476107906210059990431967236"
      ]
    },
    {
      "x": 379,
      "y": 308,
      "size": 1,
      "price": "2106000000000000000000",
      "reserved": "",
      "salt": "0x8ef20e75c36c5a09e1d31493e29c348f423f9399159d970cb03eb11cb806735d",
      "assetIds": [
        "41506478881403507969696680653240014914910929820314476107906210059990431967232",
        "41506478881403507969696680653240014914910929820314476107906210059990431967233"
      ]
    },
    {
      "x": 380,
      "y": 308,
      "size": 1,
      "price": "2106000000000000000000",
      "reserved": "",
      "salt": "0x7779ca08d6d1be1aebe82ff6b976dcfbdeb1b9f39edb70d4983fb48bacd81416",
      "assetIds": [
        "41506478881403507969696680653240014914910929820314476107906210059990431967235",
        "41506478881403507969696680653240014914910929820314476107906210059990431967236"
      ]
    },
    {
      "x": 381,
      "y": 308,
      "size": 1,
      "price": "2106000000000000000000",
      "reserved": "",
      "salt": "0xd268cc3c24fcc7f1345a78594c77481ef07c5eb37a146bdea484a410c3a029ef",
      "assetIds": [
        "41506478881403507969696680653240014914910929820314476107906210059990431967235",
        "41506478881403507969696680653240014914910929820314476107906210059990431967236"
      ]
    },
    {
      "x": 381,
      "y": 309,
      "size": 1,
      "price": "2106000000000000000000",
      "reserved": "",
      "salt": "0x4dd7614821fc104749aaffb3ef910dad5826cae8524b3921b488520a4d075fa4",
      "assetIds": [
        "41506478881403507969696680653240014914910929820314476107906210059990431967233",
        "41506478881403507969696680653240014914910929820314476107906210059990431967234"
      ]
    },
    {
      "x": 382,
      "y": 309,
      "size": 1,
      "price": "2106000000000000000000",
      "reserved": "",
      "salt": "0xa98a6d23bea648c67949deb1a8228ad04190bb4ed6a20de033222b45b8fa61a1",
      "assetIds": [
        "41506478881403507969696680653240014914910929820314476107906210059990431967234",
        "41506478881403507969696680653240014914910929820314476107906210059990431967235"
      ]
    },
    {
      "x": 383,
      "y": 309,
      "size": 1,
      "price": "2106000000000000000000",
      "reserved": "",
      "salt": "0x58c032527e5114acc366466d18237152413675e56c11f5876b6bac694411d50b",
      "assetIds": [
        "41506478881403507969696680653240014914910929820314476107906210059990431967235",
        "41506478881403507969696680653240014914910929820314476107906210059990431967236"
      ]
    },
    {
      "x": 384,
      "y": 309,
      "size": 1,
      "price": "2106000000000000000000",
      "reserved": "",
      "salt": "0x105119d0f3af40cd5f8123b0351dfef87b5d78803e734525c15729e5a6f7a6e6",
      "assetIds": [
        "41506478881403507969696680653240014914910929820314476107906210059990431967232",
        "41506478881403507969696680653240014914910929820314476107906210059990431967233"
      ]
    },
    {
      "x": 384,
      "y": 308,
      "size": 1,
      "price": "2106000000000000000000",
      "reserved": "",
      "salt": "0x8855ebf148726645ebe92373aa128897fc0b804f9e34f4fc6e623eb2c29a909f",
      "assetIds": [
        "41506478881403507969696680653240014914910929820314476107906210059990431967232",
        "41506478881403507969696680653240014914910929820314476107906210059990431967233"
      ]
    },
    {
      "x": 383,
      "y": 308,
      "size": 1,
      "price": "2106000000000000000000",
      "reserved": "",
      "salt": "0x43995fe8028cecb74c0d5c68a2bbc386187a12563577ae676f9974ba87d73876",
      "assetIds": [
        "41506478881403507969696680653240014914910929820314476107906210059990431967233",
        "41506478881403507969696680653240014914910929820314476107906210059990431967234"
      ]
    },
    {
      "x": 382,
      "y": 308,
      "size": 1,
      "price": "2106000000000000000000",
      "reserved": "",
      "salt": "0xdbdefccc56472708adcd680d768d7c861634e760edc06ff9148313ddb753eb8a",
      "assetIds": [
        "41506478881403507969696680653240014914910929820314476107906210059990431967232",
        "41506478881403507969696680653240014914910929820314476107906210059990431967233"
      ]
    },
    {
      "x": 380,
      "y": 309,
      "size": 1,
      "price": "2106000000000000000000",
      "reserved": "",
      "salt": "0x977cf5be5b8934f04866d27cf75dfa5f276923f5659a22ce42e2d34a9b9092ce",
      "assetIds": [
        "41506478881403507969696680653240014914910929820314476107906210059990431967235",
        "41506478881403507969696680653240014914910929820314476107906210059990431967236"
      ]
    },
    {
      "x": 379,
      "y": 309,
      "size": 1,
      "price": "2106000000000000000000",
      "reserved": "",
      "salt": "0xa9af82f433aa664c39cf68f90fc08dfb192e73b1206d04d9a79d1afb0b99fd7e",
      "assetIds": [
        "41506478881403507969696680653240014914910929820314476107906210059990431967235",
        "41506478881403507969696680653240014914910929820314476107906210059990431967236"
      ]
    },
    {
      "x": 380,
      "y": 311,
      "size": 1,
      "price": "2106000000000000000000",
      "reserved": "",
      "salt": "0x66d5f03e7c9e96c8f544f8dd4ae2f6a16a576bfb41a427fecef9aad4cf4481fa",
      "assetIds": [
        "41506478881403507969696680653240014914910929820314476107906210059990431967233",
        "41506478881403507969696680653240014914910929820314476107906210059990431967234"
      ]
    },
    {
      "x": 381,
      "y": 311,
      "size": 1,
      "price": "2106000000000000000000",
      "reserved": "",
      "salt": "0x12fd0c270ab077f753945620ab789deb024d1f621c93ed60534e0e0efdaf2271",
      "assetIds": [
        "41506478881403507969696680653240014914910929820314476107906210059990431967235",
        "41506478881403507969696680653240014914910929820314476107906210059990431967236"
      ]
    },
    {
      "x": 382,
      "y": 311,
      "size": 1,
      "price": "2106000000000000000000",
      "reserved": "",
      "salt": "0xa044f31a6770c68afc1bc5be9dfabfcc6705730e5c31532dfffaf6c0a1d08c36",
      "assetIds": [
        "41506478881403507969696680653240014914910929820314476107906210059990431967232",
        "41506478881403507969696680653240014914910929820314476107906210059990431967233"
      ]
    },
    {
      "x": 383,
      "y": 311,
      "size": 1,
      "price": "2106000000000000000000",
      "reserved": "",
      "salt": "0xe213fa768685dd8795162ec2b325c94cb8f04cd509a512fc83e346233c72e651",
      "assetIds": [
        "41506478881403507969696680653240014914910929820314476107906210059990431967232",
        "41506478881403507969696680653240014914910929820314476107906210059990431967233"
      ]
    },
    {
      "x": 384,
      "y": 311,
      "size": 1,
      "price": "2106000000000000000000",
      "reserved": "",
      "salt": "0x22fa0bab2249bf5123baf187c6a3fed3a1180e7f3c173f097c57bfac87863cb5",
      "assetIds": [
        "41506478881403507969696680653240014914910929820314476107906210059990431967234",
        "41506478881403507969696680653240014914910929820314476107906210059990431967235"
      ]
    },
    {
      "x": 385,
      "y": 311,
      "size": 1,
      "price": "2106000000000000000000",
      "reserved": "",
      "salt": "0xaef08266f1476b796ac85fbc4fb608a35ed18ca7d6dda10a23d83d071e770a73",
      "assetIds": [
        "41506478881403507969696680653240014914910929820314476107906210059990431967232",
        "41506478881403507969696680653240014914910929820314476107906210059990431967233"
      ]
    },
    {
      "x": 385,
      "y": 312,
      "size": 1,
      "price": "2106000000000000000000",
      "reserved": "",
      "salt": "0x6fbe73be44cd18b6104ec5b5224c6c1e842c56aebc3cfce3b0adbb71d3aa49db",
      "assetIds": [
        "41506478881403507969696680653240014914910929820314476107906210059990431967232",
        "41506478881403507969696680653240014914910929820314476107906210059990431967233"
      ]
    },
    {
      "x": 385,
      "y": 313,
      "size": 1,
      "price": "2106000000000000000000",
      "reserved": "",
      "salt": "0x37bde62c71af74a22d1017cbddffb0f23340baf6a4991e1e4d895e28ccc056c8",
      "assetIds": [
        "41506478881403507969696680653240014914910929820314476107906210059990431967234",
        "41506478881403507969696680653240014914910929820314476107906210059990431967235"
      ]
    },
    {
      "x": 385,
      "y": 314,
      "size": 1,
      "price": "2106000000000000000000",
      "reserved": "",
      "salt": "0x6013edf7079c10d1728b2973e3e0277a7b1e7dc85e6493b15d43c5b4ea050165",
      "assetIds": [
        "41506478881403507969696680653240014914910929820314476107906210059990431967235",
        "41506478881403507969696680653240014914910929820314476107906210059990431967236"
      ]
    },
    {
      "x": 385,
      "y": 315,
      "size": 1,
      "price": "2106000000000000000000",
      "reserved": "",
      "salt": "0x1eab665732c4b2d2284d089089d98d09790df7e00d3b88fd2b8bd7f209afffb0",
      "assetIds": [
        "41506478881403507969696680653240014914910929820314476107906210059990431967235",
        "41506478881403507969696680653240014914910929820314476107906210059990431967236"
      ]
    },
    {
      "x": 384,
      "y": 315,
      "size": 1,
      "price": "2106000000000000000000",
      "reserved": "",
      "salt": "0x5a0d2c64af694e4b61d56eafad1ec3ab028219f5b28957d4bb12efd2a97867f3",
      "assetIds": [
        "41506478881403507969696680653240014914910929820314476107906210059990431967234",
        "41506478881403507969696680653240014914910929820314476107906210059990431967235"
      ]
    },
    {
      "x": 384,
      "y": 316,
      "size": 1,
      "price": "2106000000000000000000",
      "reserved": "",
      "salt": "0x3a96f3b4d0c488d5e3c9202e5b2afe229992251d52ff1cd83582566a8a34afa0",
      "assetIds": [
        "41506478881403507969696680653240014914910929820314476107906210059990431967233",
        "41506478881403507969696680653240014914910929820314476107906210059990431967234"
      ]
    },
    {
      "x": 384,
      "y": 317,
      "size": 1,
      "price": "2106000000000000000000",
      "reserved": "",
      "salt": "0x10c5087ed5d074cc9c8cf74951ed00fb1d66083db1f2e71e889d2e9b3416e582",
      "assetIds": [
        "41506478881403507969696680653240014914910929820314476107906210059990431967234",
        "41506478881403507969696680653240014914910929820314476107906210059990431967235"
      ]
    },
    {
      "x": 384,
      "y": 314,
      "size": 1,
      "price": "2106000000000000000000",
      "reserved": "",
      "salt": "0x449e1eafb00c0f6dbdf8510ab7137b86f8a3c26d65d96bfe3b4d7c4d60d9d801",
      "assetIds": [
        "41506478881403507969696680653240014914910929820314476107906210059990431967234",
        "41506478881403507969696680653240014914910929820314476107906210059990431967235"
      ]
    },
    {
      "x": 384,
      "y": 313,
      "size": 1,
      "price": "2106000000000000000000",
      "reserved": "",
      "salt": "0xd810f69cb4cdbe58a5d8849b2054e1b28799d57a93c8b5592d27338af703b1d5",
      "assetIds": [
        "41506478881403507969696680653240014914910929820314476107906210059990431967232",
        "41506478881403507969696680653240014914910929820314476107906210059990431967233"
      ]
    },
    {
      "x": 384,
      "y": 312,
      "size": 1,
      "price": "2106000000000000000000",
      "reserved": "",
      "salt": "0x50f1206dea2e9772f92826bcf7cdade33d684ccefbe86cf13886f0233e8fd6bd",
      "assetIds": [
        "41506478881403507969696680653240014914910929820314476107906210059990431967232",
        "41506478881403507969696680653240014914910929820314476107906210059990431967233"
      ]
    },
    {
      "x": 386,
      "y": 313,
      "size": 1,
      "price": "2106000000000000000000",
      "reserved": "",
      "salt": "0x8a3175f1c51d51472aca97ddce362264fb64097ff5b4c426ca1289e993d7457a",
      "assetIds": [
        "41506478881403507969696680653240014914910929820314476107906210059990431967233",
        "41506478881403507969696680653240014914910929820314476107906210059990431967234"
      ]
    },
    {
      "x": 387,
      "y": 313,
      "size": 1,
      "price": "2106000000000000000000",
      "reserved": "",
      "salt": "0xa02d4b321c11c07f97587a4a4772dae3a31bd1f48811c3486a28afc966e3daa6",
      "assetIds": [
        "41506478881403507969696680653240014914910929820314476107906210059990431967234",
        "41506478881403507969696680653240014914910929820314476107906210059990431967235"
      ]
    },
    {
      "x": 388,
      "y": 313,
      "size": 1,
      "price": "2106000000000000000000",
      "reserved": "",
      "salt": "0x0abca76872c7ef98111d5e4e236e148cdbc933f3c63275e178a38ea79c7b5d6b",
      "assetIds": [
        "41506478881403507969696680653240014914910929820314476107906210059990431967232",
        "41506478881403507969696680653240014914910929820314476107906210059990431967233"
      ]
    },
    {
      "x": 389,
      "y": 313,
      "size": 1,
      "price": "2106000000000000000000",
      "reserved": "",
      "salt": "0x4cd33b052e31965be1428e1941e2cfb7db1cfbbe97d216002a14701024d7a55d",
      "assetIds": [
        "41506478881403507969696680653240014914910929820314476107906210059990431967234",
        "41506478881403507969696680653240014914910929820314476107906210059990431967235"
      ]
    },
    {
      "x": 391,
      "y": 313,
      "size": 1,
      "price": "2106000000000000000000",
      "reserved": "",
      "salt": "0x1594d80659743306368f6bbc69eac9e1d25071fe37defdc04d35055e87f22690",
      "assetIds": [
        "41506478881403507969696680653240014914910929820314476107906210059990431967235",
        "41506478881403507969696680653240014914910929820314476107906210059990431967236"
      ]
    },
    {
      "x": 395,
      "y": 314,
      "size": 1,
      "price": "2106000000000000000000",
      "reserved": "",
      "salt": "0x8a5d09e25d04a93990093c79a469000d5fd630a0d265200592e211314e8aacb5",
      "assetIds": [
        "41506478881403507969696680653240014914910929820314476107906210059990431967234",
        "41506478881403507969696680653240014914910929820314476107906210059990431967235"
      ]
    },
    {
      "x": 394,
      "y": 314,
      "size": 1,
      "price": "2106000000000000000000",
      "reserved": "",
      "salt": "0xca397cbaeea4557f45b145f8ebe677f174c2446dce9148cab29245ff54cd713a",
      "assetIds": [
        "41506478881403507969696680653240014914910929820314476107906210059990431967233",
        "41506478881403507969696680653240014914910929820314476107906210059990431967234"
      ]
    },
    {
      "x": 394,
      "y": 315,
      "size": 1,
      "price": "2106000000000000000000",
      "reserved": "",
      "salt": "0x1cbef6e994eb43fdbfcbb8c93475a219c92282da28e06fd3160ee678fa34e19a",
      "assetIds": [
        "41506478881403507969696680653240014914910929820314476107906210059990431967232",
        "41506478881403507969696680653240014914910929820314476107906210059990431967233"
      ]
    },
    {
      "x": 395,
      "y": 315,
      "size": 1,
      "price": "2106000000000000000000",
      "reserved": "",
      "salt": "0x18d9d070fc298644097e4b24ab859f38a7aa2ccecbe94f6e40fbc4fd40223b5c",
      "assetIds": [
        "41506478881403507969696680653240014914910929820314476107906210059990431967235",
        "41506478881403507969696680653240014914910929820314476107906210059990431967236"
      ]
    },
    {
      "x": 395,
      "y": 316,
      "size": 1,
      "price": "2106000000000000000000",
      "reserved": "",
      "salt": "0x15b33af5cce56616d2ae51b592f61d0c7576faabfa50e68c7d424ae0c9c0319b",
      "assetIds": [
        "41506478881403507969696680653240014914910929820314476107906210059990431967234",
        "41506478881403507969696680653240014914910929820314476107906210059990431967235"
      ]
    },
    {
      "x": 395,
      "y": 317,
      "size": 1,
      "price": "2106000000000000000000",
      "reserved": "",
      "salt": "0x4904bdbcce2a1b997bf164f532ab54239f9f932fc5958489cd0eea1d1a8d9939",
      "assetIds": [
        "41506478881403507969696680653240014914910929820314476107906210059990431967235",
        "41506478881403507969696680653240014914910929820314476107906210059990431967236"
      ]
    },
    {
      "x": 394,
      "y": 317,
      "size": 1,
      "price": "2106000000000000000000",
      "reserved": "",
      "salt": "0x5445bc699d985fcc76dd534e165f6e4a5d328b88ca2e873c7c5d3c376ebc56ff",
      "assetIds": [
        "41506478881403507969696680653240014914910929820314476107906210059990431967233",
        "41506478881403507969696680653240014914910929820314476107906210059990431967234"
      ]
    },
    {
      "x": 393,
      "y": 317,
      "size": 1,
      "price": "2106000000000000000000",
      "reserved": "",
      "salt": "0x3838eaba495597e690ad4e3c4a3015311d2e90d845dcb8a6d2dc0a1f48617796",
      "assetIds": [
        "41506478881403507969696680653240014914910929820314476107906210059990431967233",
        "41506478881403507969696680653240014914910929820314476107906210059990431967234"
      ]
    },
    {
      "x": 392,
      "y": 317,
      "size": 1,
      "price": "2106000000000000000000",
      "reserved": "",
      "salt": "0xb825c75ec53e46147eb75e288c1ec513e9fe27c19bdecafd1bd5a2f274d3ed79",
      "assetIds": [
        "41506478881403507969696680653240014914910929820314476107906210059990431967232",
        "41506478881403507969696680653240014914910929820314476107906210059990431967233"
      ]
    },
    {
      "x": 391,
      "y": 317,
      "size": 1,
      "price": "2106000000000000000000",
      "reserved": "",
      "salt": "0xe65c0aec03bb395b77ff194ac1cbcaaa3153a9b71c97080346f42fe13670139f",
      "assetIds": [
        "41506478881403507969696680653240014914910929820314476107906210059990431967235",
        "41506478881403507969696680653240014914910929820314476107906210059990431967236"
      ]
    },
    {
      "x": 390,
      "y": 317,
      "size": 1,
      "price": "2106000000000000000000",
      "reserved": "",
      "salt": "0x93000fec292989d61ab05d08f4a99edae55e5a42b88294af452243a774970e10",
      "assetIds": [
        "41506478881403507969696680653240014914910929820314476107906210059990431967232",
        "41506478881403507969696680653240014914910929820314476107906210059990431967233"
      ]
    },
    {
      "x": 389,
      "y": 317,
      "size": 1,
      "price": "2106000000000000000000",
      "reserved": "",
      "salt": "0x41637127857dca0d3bdb5c0b1332501f925d5582795c3232a181ce7c93fe63d1",
      "assetIds": [
        "41506478881403507969696680653240014914910929820314476107906210059990431967233",
        "41506478881403507969696680653240014914910929820314476107906210059990431967234"
      ]
    },
    {
      "x": 388,
      "y": 317,
      "size": 1,
      "price": "2106000000000000000000",
      "reserved": "",
      "salt": "0x600f8b3d345495c65694763e76185201f28808b320ee3f65e8d98e5ad44cfb4a",
      "assetIds": [
        "41506478881403507969696680653240014914910929820314476107906210059990431967235",
        "41506478881403507969696680653240014914910929820314476107906210059990431967236"
      ]
    },
    {
      "x": 388,
      "y": 316,
      "size": 1,
      "price": "2106000000000000000000",
      "reserved": "",
      "salt": "0x23079157b9ddbda6c339910fe716e9ecf7f2a22ae794278eb8f77247eaa5cf8c",
      "assetIds": [
        "41506478881403507969696680653240014914910929820314476107906210059990431967234",
        "41506478881403507969696680653240014914910929820314476107906210059990431967235"
      ]
    },
    {
      "x": 387,
      "y": 316,
      "size": 1,
      "price": "2106000000000000000000",
      "reserved": "",
      "salt": "0x1eea38534fde52bee5b7c2c61e904e59cb817d074f8edac249086015049560d3",
      "assetIds": [
        "41506478881403507969696680653240014914910929820314476107906210059990431967233",
        "41506478881403507969696680653240014914910929820314476107906210059990431967234"
      ]
    },
    {
      "x": 386,
      "y": 316,
      "size": 1,
      "price": "2106000000000000000000",
      "reserved": "",
      "salt": "0x16f9d8e85a89647e03d56bfc63b04dce5e72296fb28e75f27ba9b6ea6ede1f67",
      "assetIds": [
        "41506478881403507969696680653240014914910929820314476107906210059990431967235",
        "41506478881403507969696680653240014914910929820314476107906210059990431967236"
      ]
    },
    {
      "x": 385,
      "y": 316,
      "size": 1,
      "price": "2106000000000000000000",
      "reserved": "",
      "salt": "0x98f35606905009acee15e749e43c790f7afe1d2592180b42d120cd171003ee89",
      "assetIds": [
        "41506478881403507969696680653240014914910929820314476107906210059990431967233",
        "41506478881403507969696680653240014914910929820314476107906210059990431967234"
      ]
    },
    {
      "x": 386,
      "y": 317,
      "size": 1,
      "price": "2106000000000000000000",
      "reserved": "",
      "salt": "0xc980ce1ac8da752245a34c83f8f1492dfda56b562b481e31f2bb22092b834378",
      "assetIds": [
        "41506478881403507969696680653240014914910929820314476107906210059990431967232",
        "41506478881403507969696680653240014914910929820314476107906210059990431967233"
      ]
    },
    {
      "x": 387,
      "y": 317,
      "size": 1,
      "price": "2106000000000000000000",
      "reserved": "",
      "salt": "0x83ae4783b06f7ce2aa336e770359244e3ab333dbb648018fd9d523035a823b25",
      "assetIds": [
        "41506478881403507969696680653240014914910929820314476107906210059990431967235",
        "41506478881403507969696680653240014914910929820314476107906210059990431967236"
      ]
    },
    {
      "x": 385,
      "y": 317,
      "size": 1,
      "price": "2106000000000000000000",
      "reserved": "",
      "salt": "0x20e62b7b1ebe97878d4209556e3d761dcdeed3add5987e145d36d517b88a4ab4",
      "assetIds": [
        "41506478881403507969696680653240014914910929820314476107906210059990431967235",
        "41506478881403507969696680653240014914910929820314476107906210059990431967236"
      ]
    },
    {
      "x": 386,
      "y": 315,
      "size": 1,
      "price": "2106000000000000000000",
      "reserved": "",
      "salt": "0xbc11182aa5ed58237cb29412361dbae62f5e8957ab5fad51ccfeec4183527b42",
      "assetIds": [
        "41506478881403507969696680653240014914910929820314476107906210059990431967235",
        "41506478881403507969696680653240014914910929820314476107906210059990431967236"
      ]
    },
    {
      "x": 386,
      "y": 314,
      "size": 1,
      "price": "2106000000000000000000",
      "reserved": "",
      "salt": "0xb7434442c6e7fa2bbb60e4a24dec63521fe2223e34834f74139b6d5895c553b9",
      "assetIds": [
        "41506478881403507969696680653240014914910929820314476107906210059990431967232",
        "41506478881403507969696680653240014914910929820314476107906210059990431967233"
      ]
    },
    {
      "x": 388,
      "y": 314,
      "size": 1,
      "price": "2106000000000000000000",
      "reserved": "",
      "salt": "0x8e717b08761a896ad375c71b4bad335102f068e413a5101eb92f3a63612f332c",
      "assetIds": [
        "41506478881403507969696680653240014914910929820314476107906210059990431967232",
        "41506478881403507969696680653240014914910929820314476107906210059990431967233"
      ]
    },
    {
      "x": 389,
      "y": 314,
      "size": 1,
      "price": "2106000000000000000000",
      "reserved": "",
      "salt": "0x85decf0a58cbe1c0d15dedbba990a2075a68311948d0d5028b05d7e3af35c3a4",
      "assetIds": [
        "41506478881403507969696680653240014914910929820314476107906210059990431967233",
        "41506478881403507969696680653240014914910929820314476107906210059990431967234"
      ]
    },
    {
      "x": 390,
      "y": 314,
      "size": 1,
      "price": "2106000000000000000000",
      "reserved": "",
      "salt": "0xe4747622cc7d8fc76e70d06a43ccb77ad9aef370000a058e356218698320b3e6",
      "assetIds": [
        "41506478881403507969696680653240014914910929820314476107906210059990431967234",
        "41506478881403507969696680653240014914910929820314476107906210059990431967235"
      ]
    },
    {
      "x": 389,
      "y": 315,
      "size": 1,
      "price": "2106000000000000000000",
      "reserved": "",
      "salt": "0xabc6da2a5641f28fc27ad6e97b19f11a1d4795e5e414c66233cab3174320eb03",
      "assetIds": [
        "41506478881403507969696680653240014914910929820314476107906210059990431967234",
        "41506478881403507969696680653240014914910929820314476107906210059990431967235"
      ]
    },
    {
      "x": 388,
      "y": 315,
      "size": 1,
      "price": "2106000000000000000000",
      "reserved": "",
      "salt": "0x2e5225f2f6b23336be96d9441edee6d1700c79922f266e18114d176702ae605e",
      "assetIds": [
        "41506478881403507969696680653240014914910929820314476107906210059990431967234",
        "41506478881403507969696680653240014914910929820314476107906210059990431967235"
      ]
    },
    {
      "x": 387,
      "y": 315,
      "size": 1,
      "price": "2106000000000000000000",
      "reserved": "",
      "salt": "0x1960764dfb3d82d86e5d8fd47c2163b15abcb211b5ac66e43e2dc62efdf1a5f9",
      "assetIds": [
        "41506478881403507969696680653240014914910929820314476107906210059990431967232",
        "41506478881403507969696680653240014914910929820314476107906210059990431967233"
      ]
    },
    {
      "x": 391,
      "y": 314,
      "size": 1,
      "price": "2106000000000000000000",
      "reserved": "",
      "salt": "0x69b8a46969b717edd27f65f116bfbb53b38c918f07f0be1dd1f18d417eb5b097",
      "assetIds": [
        "41506478881403507969696680653240014914910929820314476107906210059990431967232",
        "41506478881403507969696680653240014914910929820314476107906210059990431967233"
      ]
    },
    {
      "x": 392,
      "y": 314,
      "size": 1,
      "price": "2106000000000000000000",
      "reserved": "",
      "salt": "0xb0a38a29f79446164166889742fee34a1e910a338a653afe24f3011681f8f4b4",
      "assetIds": [
        "41506478881403507969696680653240014914910929820314476107906210059990431967235",
        "41506478881403507969696680653240014914910929820314476107906210059990431967236"
      ]
    },
    {
      "x": 393,
      "y": 314,
      "size": 1,
      "price": "2106000000000000000000",
      "reserved": "",
      "salt": "0xb9e7504fa627ea57f0157d2217f875a76637c1682f155e3b8ff7c4a751edd47f",
      "assetIds": [
        "41506478881403507969696680653240014914910929820314476107906210059990431967234",
        "41506478881403507969696680653240014914910929820314476107906210059990431967235"
      ]
    },
    {
      "x": 394,
      "y": 316,
      "size": 1,
      "price": "2106000000000000000000",
      "reserved": "",
      "salt": "0xdd071fac2cd14464a874ee302d5240a65f45484c0b4736e9582de96d0455e6c1",
      "assetIds": [
        "41506478881403507969696680653240014914910929820314476107906210059990431967234",
        "41506478881403507969696680653240014914910929820314476107906210059990431967235"
      ]
    },
    {
      "x": 393,
      "y": 316,
      "size": 1,
      "price": "2106000000000000000000",
      "reserved": "",
      "salt": "0xa7b03cd763343a18fb810808bad6dbcd294342e0a26c4947c5250f969223976b",
      "assetIds": [
        "41506478881403507969696680653240014914910929820314476107906210059990431967232",
        "41506478881403507969696680653240014914910929820314476107906210059990431967233"
      ]
    },
    {
      "x": 392,
      "y": 316,
      "size": 1,
      "price": "2106000000000000000000",
      "reserved": "",
      "salt": "0x9a23d267ba80b3b978b7433543a6268536e3cd8f6bb13b52c6f01ef8ee115e93",
      "assetIds": [
        "41506478881403507969696680653240014914910929820314476107906210059990431967235",
        "41506478881403507969696680653240014914910929820314476107906210059990431967236"
      ]
    },
    {
      "x": 391,
      "y": 316,
      "size": 1,
      "price": "2106000000000000000000",
      "reserved": "",
      "salt": "0xeccb2adc76e85da351519835af38f7aa0680dfdfb30e68ce35107620f3042d08",
      "assetIds": [
        "41506478881403507969696680653240014914910929820314476107906210059990431967234",
        "41506478881403507969696680653240014914910929820314476107906210059990431967235"
      ]
    },
    {
      "x": 390,
      "y": 316,
      "size": 1,
      "price": "2106000000000000000000",
      "reserved": "",
      "salt": "0x58f8f561fa72aa198d875b149cc4f4606ed3470835eacb30c83b926f9213fd28",
      "assetIds": [
        "41506478881403507969696680653240014914910929820314476107906210059990431967233",
        "41506478881403507969696680653240014914910929820314476107906210059990431967234"
      ]
    },
    {
      "x": 389,
      "y": 316,
      "size": 1,
      "price": "2106000000000000000000",
      "reserved": "",
      "salt": "0x70e7c110c7a3805b5f7d2ada184dbe8f2e7c64298ed154f83adcf035fb1e2499",
      "assetIds": [
        "41506478881403507969696680653240014914910929820314476107906210059990431967233",
        "41506478881403507969696680653240014914910929820314476107906210059990431967234"
      ]
    },
    {
      "x": 390,
      "y": 315,
      "size": 1,
      "price": "2106000000000000000000",
      "reserved": "",
      "salt": "0xb2be693371c98cbffc363b6f3a6417685020d871c932a98e169a9b0b96e5aed9",
      "assetIds": [
        "41506478881403507969696680653240014914910929820314476107906210059990431967232",
        "41506478881403507969696680653240014914910929820314476107906210059990431967233"
      ]
    },
    {
      "x": 391,
      "y": 315,
      "size": 1,
      "price": "2106000000000000000000",
      "reserved": "",
      "salt": "0x555c233238d1bce68e7e86df6b5891cba35af2cb95d7ac2cedf868164031fff2",
      "assetIds": [
        "41506478881403507969696680653240014914910929820314476107906210059990431967232",
        "41506478881403507969696680653240014914910929820314476107906210059990431967233"
      ]
    },
    {
      "x": 392,
      "y": 315,
      "size": 1,
      "price": "2106000000000000000000",
      "reserved": "",
      "salt": "0x74141328c539ac69a708b6e21f8ede8c73c564b7550fa57305bd6dfeed6b62e1",
      "assetIds": [
        "41506478881403507969696680653240014914910929820314476107906210059990431967233",
        "41506478881403507969696680653240014914910929820314476107906210059990431967234"
      ]
    },
    {
      "x": 393,
      "y": 315,
      "size": 1,
      "price": "2106000000000000000000",
      "reserved": "",
      "salt": "0x66713fc8bdda54340b9e80631d5079ebc1d07bdab62e5806b879fd3d78505bf7",
      "assetIds": [
        "41506478881403507969696680653240014914910929820314476107906210059990431967234",
        "41506478881403507969696680653240014914910929820314476107906210059990431967235"
      ]
    },
    {
      "x": 402,
      "y": 312,
      "size": 1,
      "price": "2106000000000000000000",
      "reserved": "",
      "salt": "0x6c759c8e5bc6d16507f5a511cdef382454ee5bcf36ebcc34b46fe2f0e16b5a14",
      "assetIds": [
        "41506478881403507969696680653240014914910929820314476107906210059990431967234",
        "41506478881403507969696680653240014914910929820314476107906210059990431967235"
      ]
    },
    {
      "x": 403,
      "y": 312,
      "size": 1,
      "price": "2106000000000000000000",
      "reserved": "",
      "salt": "0xc2c58c2273a98491fc90f232d4914c06bbaeeacc83dc1322da2915979c3a629c",
      "assetIds": [
        "41506478881403507969696680653240014914910929820314476107906210059990431967233",
        "41506478881403507969696680653240014914910929820314476107906210059990431967234"
      ]
    },
    {
      "x": 404,
      "y": 312,
      "size": 1,
      "price": "2106000000000000000000",
      "reserved": "",
      "salt": "0xc6a1bc549840f373002a84157a24f705a69bedbe82395e979452f284175f329c",
      "assetIds": [
        "41506478881403507969696680653240014914910929820314476107906210059990431967232",
        "41506478881403507969696680653240014914910929820314476107906210059990431967233"
      ]
    },
    {
      "x": 405,
      "y": 312,
      "size": 1,
      "price": "2106000000000000000000",
      "reserved": "",
      "salt": "0x7a764de5412ccbc4c525e227b7f8e1d5400026d399485cf0d481249398739f77",
      "assetIds": [
        "41506478881403507969696680653240014914910929820314476107906210059990431967232",
        "41506478881403507969696680653240014914910929820314476107906210059990431967233"
      ]
    },
    {
      "x": 406,
      "y": 312,
      "size": 1,
      "price": "2106000000000000000000",
      "reserved": "",
      "salt": "0xbcf2bee62eae616ebbc331deeba1c9d2821caa836d7b33fab6b06d3fa967964d",
      "assetIds": [
        "41506478881403507969696680653240014914910929820314476107906210059990431967233",
        "41506478881403507969696680653240014914910929820314476107906210059990431967234"
      ]
    },
    {
      "x": 407,
      "y": 312,
      "size": 1,
      "price": "2106000000000000000000",
      "reserved": "",
      "salt": "0xe83c149c1e7c88ca933f7329e4c57164a3ee71f2241293d186853e98d7a8c4d3",
      "assetIds": [
        "41506478881403507969696680653240014914910929820314476107906210059990431967234",
        "41506478881403507969696680653240014914910929820314476107906210059990431967235"
      ]
    },
    {
      "x": 407,
      "y": 313,
      "size": 1,
      "price": "2106000000000000000000",
      "reserved": "",
      "salt": "0x555dbb720877de6af0291b12c049c0ff677f7b8c61ea1c85a45d0e923338cd56",
      "assetIds": [
        "41506478881403507969696680653240014914910929820314476107906210059990431967232",
        "41506478881403507969696680653240014914910929820314476107906210059990431967233"
      ]
    },
    {
      "x": 407,
      "y": 314,
      "size": 1,
      "price": "2106000000000000000000",
      "reserved": "",
      "salt": "0xfb47f20802a692ab52cf2d953be0c76528a2f237fe9d122c9bb10b51568007a6",
      "assetIds": [
        "41506478881403507969696680653240014914910929820314476107906210059990431967235",
        "41506478881403507969696680653240014914910929820314476107906210059990431967236"
      ]
    },
    {
      "x": 407,
      "y": 315,
      "size": 1,
      "price": "2106000000000000000000",
      "reserved": "",
      "salt": "0x51f33fd26949a91fe4d636d3628334a689c4b643ff228c2d64de99edcb5fc56e",
      "assetIds": [
        "41506478881403507969696680653240014914910929820314476107906210059990431967232",
        "41506478881403507969696680653240014914910929820314476107906210059990431967233"
      ]
    },
    {
      "x": 407,
      "y": 316,
      "size": 1,
      "price": "2106000000000000000000",
      "reserved": "",
      "salt": "0x21791d9cee82725188dc6da8bbe42b38264c2eb0f2a2b5a70bf77cc436914494",
      "assetIds": [
        "41506478881403507969696680653240014914910929820314476107906210059990431967232",
        "41506478881403507969696680653240014914910929820314476107906210059990431967233"
      ]
    },
    {
      "x": 407,
      "y": 317,
      "size": 1,
      "price": "2106000000000000000000",
      "reserved": "",
      "salt": "0x2fcceded9ebba398a5160912f3a7a0839a1613d82afc9d6548d32597fd396e1a",
      "assetIds": [
        "41506478881403507969696680653240014914910929820314476107906210059990431967234",
        "41506478881403507969696680653240014914910929820314476107906210059990431967235"
      ]
    },
    {
      "x": 407,
      "y": 318,
      "size": 1,
      "price": "2106000000000000000000",
      "reserved": "",
      "salt": "0x9966574326f1dd7aba9c08f82d6f9a59a3466bb4d6ff44ada911b4ba5b9cef7c",
      "assetIds": [
        "41506478881403507969696680653240014914910929820314476107906210059990431967233",
        "41506478881403507969696680653240014914910929820314476107906210059990431967234"
      ]
    },
    {
      "x": 407,
      "y": 319,
      "size": 1,
      "price": "2106000000000000000000",
      "reserved": "",
      "salt": "0xe5c0a40071f7fac38a9ead10976d9847968d5191709588b687c6d555e24313e3",
      "assetIds": [
        "41506478881403507969696680653240014914910929820314476107906210059990431967235",
        "41506478881403507969696680653240014914910929820314476107906210059990431967236"
      ]
    },
    {
      "x": 407,
      "y": 320,
      "size": 1,
      "price": "2106000000000000000000",
      "reserved": "",
      "salt": "0x027a457615f49609b2720575ae9fc5e17f0d21140fed675f1926c6ad8cb0b932",
      "assetIds": [
        "41506478881403507969696680653240014914910929820314476107906210059990431967234",
        "41506478881403507969696680653240014914910929820314476107906210059990431967235"
      ]
    },
    {
      "x": 406,
      "y": 320,
      "size": 1,
      "price": "2106000000000000000000",
      "reserved": "",
      "salt": "0xf40e2546f47ae094020a3197d1d0936d07816542d311f822b3dca0eb138bb3e2",
      "assetIds": [
        "41506478881403507969696680653240014914910929820314476107906210059990431967232",
        "41506478881403507969696680653240014914910929820314476107906210059990431967233"
      ]
    },
    {
      "x": 405,
      "y": 320,
      "size": 1,
      "price": "2106000000000000000000",
      "reserved": "",
      "salt": "0xcbab9d0594b28d4d201ae4ff34e699f86d6e9e7dbdf840bdcdbc7b1021207672",
      "assetIds": [
        "41506478881403507969696680653240014914910929820314476107906210059990431967232",
        "41506478881403507969696680653240014914910929820314476107906210059990431967233"
      ]
    },
    {
      "x": 404,
      "y": 320,
      "size": 1,
      "price": "2106000000000000000000",
      "reserved": "",
      "salt": "0xa2beb8adcb4e75034e56fe46aeafcaa7f1720f248c08d0d69eecf821dff7af46",
      "assetIds": [
        "41506478881403507969696680653240014914910929820314476107906210059990431967233",
        "41506478881403507969696680653240014914910929820314476107906210059990431967234"
      ]
    },
    {
      "x": 403,
      "y": 320,
      "size": 1,
      "price": "2106000000000000000000",
      "reserved": "",
      "salt": "0xca2f35c3d4c258a91aaefab9d466ab1f1f39cbce111da0d98d93e88cececf6de",
      "assetIds": [
        "41506478881403507969696680653240014914910929820314476107906210059990431967235",
        "41506478881403507969696680653240014914910929820314476107906210059990431967236"
      ]
    },
    {
      "x": 403,
      "y": 319,
      "size": 1,
      "price": "2106000000000000000000",
      "reserved": "",
      "salt": "0x7da693cc46d3bafe2e74ecf1b560937af22e59d7e995b078f204b1e6267cb8c2",
      "assetIds": [
        "41506478881403507969696680653240014914910929820314476107906210059990431967233",
        "41506478881403507969696680653240014914910929820314476107906210059990431967234"
      ]
    },
    {
      "x": 403,
      "y": 318,
      "size": 1,
      "price": "2106000000000000000000",
      "reserved": "",
      "salt": "0x6254b7455fa1d29a87d448e6443dd18fc1684eabe6a2f5a13dd5e5657ffd9596",
      "assetIds": [
        "41506478881403507969696680653240014914910929820314476107906210059990431967232",
        "41506478881403507969696680653240014914910929820314476107906210059990431967233"
      ]
    },
    {
      "x": 403,
      "y": 317,
      "size": 1,
      "price": "2106000000000000000000",
      "reserved": "",
      "salt": "0xcb008b0e7d3d2e4d1e8c64b82d51dda297b1d451c3d57f169e3784aa6ebdc7dd",
      "assetIds": [
        "41506478881403507969696680653240014914910929820314476107906210059990431967234",
        "41506478881403507969696680653240014914910929820314476107906210059990431967235"
      ]
    },
    {
      "x": 403,
      "y": 316,
      "size": 1,
      "price": "2106000000000000000000",
      "reserved": "",
      "salt": "0xfe1bfe0f2e7f7f039af3109007b811a6c2f00c6e8b2d5c4a1324b92d829daab1",
      "assetIds": [
        "41506478881403507969696680653240014914910929820314476107906210059990431967234",
        "41506478881403507969696680653240014914910929820314476107906210059990431967235"
      ]
    },
    {
      "x": 403,
      "y": 315,
      "size": 1,
      "price": "2106000000000000000000",
      "reserved": "",
      "salt": "0x73291a032ae6ef640e4eaa25314e9daaa0f80d7c80c176d93c6267903f15c1d8",
      "assetIds": [
        "41506478881403507969696680653240014914910929820314476107906210059990431967233",
        "41506478881403507969696680653240014914910929820314476107906210059990431967234"
      ]
    },
    {
      "x": 403,
      "y": 314,
      "size": 1,
      "price": "2106000000000000000000",
      "reserved": "",
      "salt": "0x717606e8dc0e238b9dbde3ed5926d705ee1c12cee85c712298c491a4ea295d43",
      "assetIds": [
        "41506478881403507969696680653240014914910929820314476107906210059990431967232",
        "41506478881403507969696680653240014914910929820314476107906210059990431967233"
      ]
    },
    {
      "x": 403,
      "y": 313,
      "size": 1,
      "price": "2106000000000000000000",
      "reserved": "",
      "salt": "0x35f9c8e4abe201e58ff44840156456af9c1f9a41a2b60c5bea53673c0b496002",
      "assetIds": [
        "41506478881403507969696680653240014914910929820314476107906210059990431967235",
        "41506478881403507969696680653240014914910929820314476107906210059990431967236"
      ]
    },
    {
      "x": 402,
      "y": 313,
      "size": 1,
      "price": "2106000000000000000000",
      "reserved": "",
      "salt": "0x5a2d87f80a0e55dd4df7704ef5cc7271913cb08586ddb01823c49209c2a5f4d9",
      "assetIds": [
        "41506478881403507969696680653240014914910929820314476107906210059990431967235",
        "41506478881403507969696680653240014914910929820314476107906210059990431967236"
      ]
    },
    {
      "x": 402,
      "y": 314,
      "size": 1,
      "price": "2106000000000000000000",
      "reserved": "",
      "salt": "0x16a8775b5c0d5f3228da6c3a6475b4fabd0a6c1590b4b608e1b51317cec0f043",
      "assetIds": [
        "41506478881403507969696680653240014914910929820314476107906210059990431967233",
        "41506478881403507969696680653240014914910929820314476107906210059990431967234"
      ]
    },
    {
      "x": 402,
      "y": 315,
      "size": 1,
      "price": "2106000000000000000000",
      "reserved": "",
      "salt": "0x19f6e8712002a6948ab0b54145a46079a53387636426bd23457dfe3431aabc42",
      "assetIds": [
        "41506478881403507969696680653240014914910929820314476107906210059990431967235",
        "41506478881403507969696680653240014914910929820314476107906210059990431967236"
      ]
    },
    {
      "x": 402,
      "y": 316,
      "size": 1,
      "price": "2106000000000000000000",
      "reserved": "",
      "salt": "0x901438982ec725a01154511d529a8b6df782b4029deeedb3254acc38673394a4",
      "assetIds": [
        "41506478881403507969696680653240014914910929820314476107906210059990431967232",
        "41506478881403507969696680653240014914910929820314476107906210059990431967233"
      ]
    },
    {
      "x": 402,
      "y": 317,
      "size": 1,
      "price": "2106000000000000000000",
      "reserved": "",
      "salt": "0x3776b200cfec3341d7076dd68e6ad62d70b7685a6fbad0cd36e2a486b3e85f2d",
      "assetIds": [
        "41506478881403507969696680653240014914910929820314476107906210059990431967233",
        "41506478881403507969696680653240014914910929820314476107906210059990431967234"
      ]
    },
    {
      "x": 402,
      "y": 318,
      "size": 1,
      "price": "2106000000000000000000",
      "reserved": "",
      "salt": "0xcfb6eb36ee67957f7b10431d6114f4a607f563d5d90fda2322eb9211bab2d546",
      "assetIds": [
        "41506478881403507969696680653240014914910929820314476107906210059990431967235",
        "41506478881403507969696680653240014914910929820314476107906210059990431967236"
      ]
    },
    {
      "x": 404,
      "y": 318,
      "size": 1,
      "price": "2106000000000000000000",
      "reserved": "",
      "salt": "0x06885d013555cb235c8c31165bdfb7b3da3a6c862b70e72a677678cae8836620",
      "assetIds": [
        "41506478881403507969696680653240014914910929820314476107906210059990431967233",
        "41506478881403507969696680653240014914910929820314476107906210059990431967234"
      ]
    },
    {
      "x": 405,
      "y": 319,
      "size": 1,
      "price": "2106000000000000000000",
      "reserved": "",
      "salt": "0xbb5e08e3d4850b63bd2433c1354451720c146b6951fe2fa72ad014e173d01eaf",
      "assetIds": [
        "41506478881403507969696680653240014914910929820314476107906210059990431967234",
        "41506478881403507969696680653240014914910929820314476107906210059990431967235"
      ]
    },
    {
      "x": 406,
      "y": 319,
      "size": 1,
      "price": "2106000000000000000000",
      "reserved": "",
      "salt": "0x908e0cdaa2daf28d212f2fc559f34f8785d23c5d257dda4410d9e54099655763",
      "assetIds": [
        "41506478881403507969696680653240014914910929820314476107906210059990431967234",
        "41506478881403507969696680653240014914910929820314476107906210059990431967235"
      ]
    },
    {
      "x": 404,
      "y": 319,
      "size": 1,
      "price": "2106000000000000000000",
      "reserved": "",
      "salt": "0xc95ee5b6280280a36e098ed02267213b7bc0ab54caf7b48b74d7131435127d18",
      "assetIds": [
        "41506478881403507969696680653240014914910929820314476107906210059990431967233",
        "41506478881403507969696680653240014914910929820314476107906210059990431967234"
      ]
    },
    {
      "x": 404,
      "y": 317,
      "size": 1,
      "price": "2106000000000000000000",
      "reserved": "",
      "salt": "0xdec4d6d90dce41d400ac08244eb82ad92cb0643e29abac134d4f2325210db3a1",
      "assetIds": [
        "41506478881403507969696680653240014914910929820314476107906210059990431967232",
        "41506478881403507969696680653240014914910929820314476107906210059990431967233"
      ]
    },
    {
      "x": 404,
      "y": 316,
      "size": 1,
      "price": "2106000000000000000000",
      "reserved": "",
      "salt": "0x508485ff5f42b7c63b78856f98204b7d6db84df178e13b5455081c2c2b73b182",
      "assetIds": [
        "41506478881403507969696680653240014914910929820314476107906210059990431967235",
        "41506478881403507969696680653240014914910929820314476107906210059990431967236"
      ]
    },
    {
      "x": 404,
      "y": 315,
      "size": 1,
      "price": "2106000000000000000000",
      "reserved": "",
      "salt": "0xd8af5c5b38fa771035f85bd89fba070a8fd71552e0d67b5bfd1d74367a472c3d",
      "assetIds": [
        "41506478881403507969696680653240014914910929820314476107906210059990431967235",
        "41506478881403507969696680653240014914910929820314476107906210059990431967236"
      ]
    },
    {
      "x": 404,
      "y": 314,
      "size": 1,
      "price": "2106000000000000000000",
      "reserved": "",
      "salt": "0x7fbfc865eb1f5c0283286133224fef7f95b960fc5339f7988e2a41de1541d139",
      "assetIds": [
        "41506478881403507969696680653240014914910929820314476107906210059990431967234",
        "41506478881403507969696680653240014914910929820314476107906210059990431967235"
      ]
    },
    {
      "x": 405,
      "y": 314,
      "size": 1,
      "price": "2106000000000000000000",
      "reserved": "",
      "salt": "0x28bcaa58f19587c8d3d3c798cf03200b0b9ed970de0925fcc722c59ae22bed50",
      "assetIds": [
        "41506478881403507969696680653240014914910929820314476107906210059990431967234",
        "41506478881403507969696680653240014914910929820314476107906210059990431967235"
      ]
    },
    {
      "x": 406,
      "y": 313,
      "size": 1,
      "price": "2106000000000000000000",
      "reserved": "",
      "salt": "0x8f70d261d9c3d607ff8455e13a1e1907e257ffac2fe61f1ac2be5eb9dee129e8",
      "assetIds": [
        "41506478881403507969696680653240014914910929820314476107906210059990431967234",
        "41506478881403507969696680653240014914910929820314476107906210059990431967235"
      ]
    },
    {
      "x": 405,
      "y": 313,
      "size": 1,
      "price": "2106000000000000000000",
      "reserved": "",
      "salt": "0x260767245326382d26a0c217f31720624ea03870840df79d62aad3f653bc60ef",
      "assetIds": [
        "41506478881403507969696680653240014914910929820314476107906210059990431967232",
        "41506478881403507969696680653240014914910929820314476107906210059990431967233"
      ]
    },
    {
      "x": 404,
      "y": 313,
      "size": 1,
      "price": "2106000000000000000000",
      "reserved": "",
      "salt": "0x5654aa899088dcfb280b4ef8a276fd05027e6e3542acbda780fdcbdce85238e2",
      "assetIds": [
        "41506478881403507969696680653240014914910929820314476107906210059990431967232",
        "41506478881403507969696680653240014914910929820314476107906210059990431967233"
      ]
    },
    {
      "x": 405,
      "y": 315,
      "size": 1,
      "price": "2106000000000000000000",
      "reserved": "",
      "salt": "0xcf4859d59ba155a660a09a7bee4e66b35116f5b03f792634b02b277b89332c3e",
      "assetIds": [
        "41506478881403507969696680653240014914910929820314476107906210059990431967234",
        "41506478881403507969696680653240014914910929820314476107906210059990431967235"
      ]
    },
    {
      "x": 405,
      "y": 316,
      "size": 1,
      "price": "2106000000000000000000",
      "reserved": "",
      "salt": "0x96fdf55e0e40b229710086de23a4b0aa1f4529472b0642fe9e063bca9bb4aec5",
      "assetIds": [
        "41506478881403507969696680653240014914910929820314476107906210059990431967235",
        "41506478881403507969696680653240014914910929820314476107906210059990431967236"
      ]
    },
    {
      "x": 405,
      "y": 317,
      "size": 1,
      "price": "2106000000000000000000",
      "reserved": "",
      "salt": "0x4b6007515847be89353813ff4c947db0fc47c41ddb48a442ac4e39d38fa6f28e",
      "assetIds": [
        "41506478881403507969696680653240014914910929820314476107906210059990431967233",
        "41506478881403507969696680653240014914910929820314476107906210059990431967234"
      ]
    },
    {
      "x": 405,
      "y": 318,
      "size": 1,
      "price": "2106000000000000000000",
      "reserved": "",
      "salt": "0x0d6125eb485dc6fb57016d7f1a53ff2ce7254edb1a1fb9f6fed69570af73c8bc",
      "assetIds": [
        "41506478881403507969696680653240014914910929820314476107906210059990431967235",
        "41506478881403507969696680653240014914910929820314476107906210059990431967236"
      ]
    },
    {
      "x": 406,
      "y": 317,
      "size": 1,
      "price": "2106000000000000000000",
      "reserved": "",
      "salt": "0x12450d1ab576a185da47d63b1ecdc62bc37b349dbf68dbdd5202a33f64e7f410",
      "assetIds": [
        "41506478881403507969696680653240014914910929820314476107906210059990431967232",
        "41506478881403507969696680653240014914910929820314476107906210059990431967233"
      ]
    },
    {
      "x": 406,
      "y": 316,
      "size": 1,
      "price": "2106000000000000000000",
      "reserved": "",
      "salt": "0xf7ddb9fbc4e9889ae0472a9eef39ec156352e59cef7fab8e0b16cd0d9b26a89f",
      "assetIds": [
        "41506478881403507969696680653240014914910929820314476107906210059990431967235",
        "41506478881403507969696680653240014914910929820314476107906210059990431967236"
      ]
    },
    {
      "x": 406,
      "y": 315,
      "size": 1,
      "price": "2106000000000000000000",
      "reserved": "",
      "salt": "0xd4e400732b24350d002f7e252fca6adc983b22d155732cb8ce33501e26439818",
      "assetIds": [
        "41506478881403507969696680653240014914910929820314476107906210059990431967234",
        "41506478881403507969696680653240014914910929820314476107906210059990431967235"
      ]
    },
    {
      "x": 405,
      "y": 324,
      "size": 1,
      "price": "2106000000000000000000",
      "reserved": "",
      "salt": "0x60cd7246afd4335a26d5bbe3ffe32da7cb32294fb658dbd5ac29302c7bcfbaac",
      "assetIds": [
        "41506478881403507969696680653240014914910929820314476107906210059990431967233",
        "41506478881403507969696680653240014914910929820314476107906210059990431967234"
      ]
    },
    {
      "x": 405,
      "y": 325,
      "size": 1,
      "price": "2106000000000000000000",
      "reserved": "",
      "salt": "0x30c4f56d785ef370b2688eb6a60ce0c344e19880a46fee3aef1bdc5bcf157eff",
      "assetIds": [
        "41506478881403507969696680653240014914910929820314476107906210059990431967233",
        "41506478881403507969696680653240014914910929820314476107906210059990431967234"
      ]
    },
    {
      "x": 405,
      "y": 326,
      "size": 1,
      "price": "2106000000000000000000",
      "reserved": "",
      "salt": "0x5c610d9a8062d6e8de30ea9a066ceb09aa70392108b59f3d34bfdd08bebde6c1",
      "assetIds": [
        "41506478881403507969696680653240014914910929820314476107906210059990431967232",
        "41506478881403507969696680653240014914910929820314476107906210059990431967233"
      ]
    },
    {
      "x": 405,
      "y": 327,
      "size": 1,
      "price": "2106000000000000000000",
      "reserved": "",
      "salt": "0xdde4733021234ccac2ac30d10d98fc9cec8c356fc6b34b1e91b099886610ed8d",
      "assetIds": [
        "41506478881403507969696680653240014914910929820314476107906210059990431967232",
        "41506478881403507969696680653240014914910929820314476107906210059990431967233"
      ]
    },
    {
      "x": 405,
      "y": 328,
      "size": 1,
      "price": "2106000000000000000000",
      "reserved": "",
      "salt": "0x88c81dbefa5a9317efcd797bc06c1a8d8d432bc0e6682efceb6c43b1f43db173",
      "assetIds": [
        "41506478881403507969696680653240014914910929820314476107906210059990431967233",
        "41506478881403507969696680653240014914910929820314476107906210059990431967234"
      ]
    },
    {
      "x": 405,
      "y": 329,
      "size": 1,
      "price": "2106000000000000000000",
      "reserved": "",
      "salt": "0x370f58c1c428eab55fc371175f9d2524aa2c787d9dc2f9082557e08bad170a34",
      "assetIds": [
        "41506478881403507969696680653240014914910929820314476107906210059990431967232",
        "41506478881403507969696680653240014914910929820314476107906210059990431967233"
      ]
    },
    {
      "x": 405,
      "y": 330,
      "size": 1,
      "price": "2106000000000000000000",
      "reserved": "",
      "salt": "0x488a130952666aac9f89f89d37dba7fee5e2fde5e5d212141c1726866a46ab8b",
      "assetIds": [
        "41506478881403507969696680653240014914910929820314476107906210059990431967235",
        "41506478881403507969696680653240014914910929820314476107906210059990431967236"
      ]
    },
    {
      "x": 405,
      "y": 331,
      "size": 1,
      "price": "2106000000000000000000",
      "reserved": "",
      "salt": "0xd256ab69e8e8ae16b8964bb055c03afd20188390204d4c7557e3f989c1f05a41",
      "assetIds": [
        "41506478881403507969696680653240014914910929820314476107906210059990431967234",
        "41506478881403507969696680653240014914910929820314476107906210059990431967235"
      ]
    },
    {
      "x": 405,
      "y": 332,
      "size": 1,
      "price": "2106000000000000000000",
      "reserved": "",
      "salt": "0x481903505c82865789129296e9446c00224b772d3bb13219fd6c1dff68ce55af",
      "assetIds": [
        "41506478881403507969696680653240014914910929820314476107906210059990431967235",
        "41506478881403507969696680653240014914910929820314476107906210059990431967236"
      ]
    },
    {
      "x": 404,
      "y": 332,
      "size": 1,
      "price": "2106000000000000000000",
      "reserved": "",
      "salt": "0x2ee9746deb8d9a61c9677d51741f7df3a9dc2fa36b2d08bb85c88ba87bbddccb",
      "assetIds": [
        "41506478881403507969696680653240014914910929820314476107906210059990431967233",
        "41506478881403507969696680653240014914910929820314476107906210059990431967234"
      ]
    },
    {
      "x": 404,
      "y": 333,
      "size": 1,
      "price": "2106000000000000000000",
      "reserved": "",
      "salt": "0x4bb0c35aa27f74a739b0e47a451b87a629e66faa365b6cb2f0b7ddae94c605a8",
      "assetIds": [
        "41506478881403507969696680653240014914910929820314476107906210059990431967233",
        "41506478881403507969696680653240014914910929820314476107906210059990431967234"
      ]
    },
    {
      "x": 403,
      "y": 333,
      "size": 1,
      "price": "2106000000000000000000",
      "reserved": "",
      "salt": "0xa948ac102f1bab52f43d036c4faea517dd919fdcac604bf3b3e8865bc65aec61",
      "assetIds": [
        "41506478881403507969696680653240014914910929820314476107906210059990431967232",
        "41506478881403507969696680653240014914910929820314476107906210059990431967233"
      ]
    },
    {
      "x": 403,
      "y": 334,
      "size": 1,
      "price": "2106000000000000000000",
      "reserved": "",
      "salt": "0x5869415d26baa570cb2975767f2b3f1959a2142e82e33a9fd27bb46906b4f3c3",
      "assetIds": [
        "41506478881403507969696680653240014914910929820314476107906210059990431967232",
        "41506478881403507969696680653240014914910929820314476107906210059990431967233"
      ]
    },
    {
      "x": 403,
      "y": 335,
      "size": 1,
      "price": "2106000000000000000000",
      "reserved": "",
      "salt": "0x486bafaf2a42cfc0a6b82299482f4afa3ae1159cbe76be61105e089bfa5f7471",
      "assetIds": [
        "41506478881403507969696680653240014914910929820314476107906210059990431967232",
        "41506478881403507969696680653240014914910929820314476107906210059990431967233"
      ]
    },
    {
      "x": 402,
      "y": 335,
      "size": 1,
      "price": "2106000000000000000000",
      "reserved": "",
      "salt": "0xf4140448814f359a66bf3fc084d4cf0ed38226854db6f62466ecb2bbd9a32b37",
      "assetIds": [
        "41506478881403507969696680653240014914910929820314476107906210059990431967234",
        "41506478881403507969696680653240014914910929820314476107906210059990431967235"
      ]
    },
    {
      "x": 401,
      "y": 335,
      "size": 1,
      "price": "2106000000000000000000",
      "reserved": "",
      "salt": "0xead23b98cf1ea3a849b82a744afb6272fc7056eb0b215ed107183f51125c1b63",
      "assetIds": [
        "41506478881403507969696680653240014914910929820314476107906210059990431967232",
        "41506478881403507969696680653240014914910929820314476107906210059990431967233"
      ]
    },
    {
      "x": 400,
      "y": 335,
      "size": 1,
      "price": "2106000000000000000000",
      "reserved": "",
      "salt": "0xa9cd9ce946a6e84b63f9c6d20298f2fcfa70ae6caa64cc07ebf92e2b5659f263",
      "assetIds": [
        "41506478881403507969696680653240014914910929820314476107906210059990431967232",
        "41506478881403507969696680653240014914910929820314476107906210059990431967233"
      ]
    },
    {
      "x": 399,
      "y": 335,
      "size": 1,
      "price": "2106000000000000000000",
      "reserved": "",
      "salt": "0x1aff35bd803639e452e878051151d2d7cda02df92c3ace5b41c93580fc419a7b",
      "assetIds": [
        "41506478881403507969696680653240014914910929820314476107906210059990431967234",
        "41506478881403507969696680653240014914910929820314476107906210059990431967235"
      ]
    },
    {
      "x": 398,
      "y": 335,
      "size": 1,
      "price": "2106000000000000000000",
      "reserved": "",
      "salt": "0x42a9d47bd160fff95c46cfebc1d0a73bfbe126376dd2c64fe06966406979b516",
      "assetIds": [
        "41506478881403507969696680653240014914910929820314476107906210059990431967235",
        "41506478881403507969696680653240014914910929820314476107906210059990431967236"
      ]
    },
    {
      "x": 397,
      "y": 335,
      "size": 1,
      "price": "2106000000000000000000",
      "reserved": "",
      "salt": "0xd5bdd25fb166051d36203e733a2885973c982c3b04d40eac9141bfad83a5f16f",
      "assetIds": [
        "41506478881403507969696680653240014914910929820314476107906210059990431967232",
        "41506478881403507969696680653240014914910929820314476107906210059990431967233"
      ]
    },
    {
      "x": 396,
      "y": 335,
      "size": 1,
      "price": "2106000000000000000000",
      "reserved": "",
      "salt": "0xd81485c3f934f3fa1d29d9760d4c92dd28cea6c931d1f7730ac139a3e8e04a2e",
      "assetIds": [
        "41506478881403507969696680653240014914910929820314476107906210059990431967233",
        "41506478881403507969696680653240014914910929820314476107906210059990431967234"
      ]
    },
    {
      "x": 396,
      "y": 334,
      "size": 1,
      "price": "2106000000000000000000",
      "reserved": "",
      "salt": "0xca6ca1acc3fd80ac4debf0b99705e03c6802a023abe357fc35b70a97a5b616f6",
      "assetIds": [
        "41506478881403507969696680653240014914910929820314476107906210059990431967235",
        "41506478881403507969696680653240014914910929820314476107906210059990431967236"
      ]
    },
    {
      "x": 396,
      "y": 333,
      "size": 1,
      "price": "2106000000000000000000",
      "reserved": "",
      "salt": "0xd16e61dcb3585dbbf8a3990edc7db8b459da395760019a53aa896b13af535ca2",
      "assetIds": [
        "41506478881403507969696680653240014914910929820314476107906210059990431967233",
        "41506478881403507969696680653240014914910929820314476107906210059990431967234"
      ]
    },
    {
      "x": 396,
      "y": 332,
      "size": 1,
      "price": "2106000000000000000000",
      "reserved": "",
      "salt": "0x22824e721d3c8b99198fa3e9c162b638d8cf0b77129351bf52b9772c37692c14",
      "assetIds": [
        "41506478881403507969696680653240014914910929820314476107906210059990431967233",
        "41506478881403507969696680653240014914910929820314476107906210059990431967234"
      ]
    },
    {
      "x": 396,
      "y": 331,
      "size": 1,
      "price": "2106000000000000000000",
      "reserved": "",
      "salt": "0x0fa9a5b5da4111fe80c117e9559f8b4a1ee66847853553425e208ae0a389a966",
      "assetIds": [
        "41506478881403507969696680653240014914910929820314476107906210059990431967233",
        "41506478881403507969696680653240014914910929820314476107906210059990431967234"
      ]
    },
    {
      "x": 396,
      "y": 330,
      "size": 1,
      "price": "2106000000000000000000",
      "reserved": "",
      "salt": "0x99094ce6979944775074522165f8181b221bb173d42f6e916468e30b6148bbf5",
      "assetIds": [
        "41506478881403507969696680653240014914910929820314476107906210059990431967234",
        "41506478881403507969696680653240014914910929820314476107906210059990431967235"
      ]
    },
    {
      "x": 396,
      "y": 329,
      "size": 1,
      "price": "2106000000000000000000",
      "reserved": "",
      "salt": "0x51482d995da11c24db56f15c2a718499d399e891b9ff2aaea289d84c9838110e",
      "assetIds": [
        "41506478881403507969696680653240014914910929820314476107906210059990431967235",
        "41506478881403507969696680653240014914910929820314476107906210059990431967236"
      ]
    },
    {
      "x": 396,
      "y": 328,
      "size": 1,
      "price": "2106000000000000000000",
      "reserved": "",
      "salt": "0xb1e73a651ae8e12a25752ea4730359b1dc4e2d97220c8d8e7c6120b6c59663e9",
      "assetIds": [
        "41506478881403507969696680653240014914910929820314476107906210059990431967232",
        "41506478881403507969696680653240014914910929820314476107906210059990431967233"
      ]
    },
    {
      "x": 396,
      "y": 327,
      "size": 1,
      "price": "2106000000000000000000",
      "reserved": "",
      "salt": "0x642cd0fa81ae7317cb64b0f08ce490161e729c6098f1758554fd1c596b14873d",
      "assetIds": [
        "41506478881403507969696680653240014914910929820314476107906210059990431967234",
        "41506478881403507969696680653240014914910929820314476107906210059990431967235"
      ]
    },
    {
      "x": 396,
      "y": 326,
      "size": 1,
      "price": "2106000000000000000000",
      "reserved": "",
      "salt": "0xa358a7b351385f9ce0bb8e6b50189e56853e4769e95543a0ebed140f78ec9671",
      "assetIds": [
        "41506478881403507969696680653240014914910929820314476107906210059990431967234",
        "41506478881403507969696680653240014914910929820314476107906210059990431967235"
      ]
    },
    {
      "x": 396,
      "y": 325,
      "size": 1,
      "price": "2106000000000000000000",
      "reserved": "",
      "salt": "0x5f4dcf38dc2b6b8a9a28445b4971c9de547517d0b91f4fd7c80b2d910961182d",
      "assetIds": [
        "41506478881403507969696680653240014914910929820314476107906210059990431967234",
        "41506478881403507969696680653240014914910929820314476107906210059990431967235"
      ]
    },
    {
      "x": 396,
      "y": 324,
      "size": 1,
      "price": "2106000000000000000000",
      "reserved": "",
      "salt": "0xca12cd7f0b8403a427389a4c4c17b5c2d80218bb6b7329b283dade5463a89f73",
      "assetIds": [
        "41506478881403507969696680653240014914910929820314476107906210059990431967233",
        "41506478881403507969696680653240014914910929820314476107906210059990431967234"
      ]
    },
    {
      "x": 396,
      "y": 323,
      "size": 1,
      "price": "2106000000000000000000",
      "reserved": "",
      "salt": "0x02bfe292dcca375fb09008f8236b9ba2263ac071a6047462f34c95f627e00744",
      "assetIds": [
        "41506478881403507969696680653240014914910929820314476107906210059990431967234",
        "41506478881403507969696680653240014914910929820314476107906210059990431967235"
      ]
    },
    {
      "x": 396,
      "y": 322,
      "size": 1,
      "price": "2106000000000000000000",
      "reserved": "",
      "salt": "0x0bafc23490546a39c177f6e64b76a99db68fe3ecbd578c7a17deba2ba5cd03da",
      "assetIds": [
        "41506478881403507969696680653240014914910929820314476107906210059990431967234",
        "41506478881403507969696680653240014914910929820314476107906210059990431967235"
      ]
    },
    {
      "x": 396,
      "y": 321,
      "size": 1,
      "price": "2106000000000000000000",
      "reserved": "",
      "salt": "0xf78810aacd5a0bc3d94e60ea5687729b34b43c80dfb118323463c90c0cf9c1b4",
      "assetIds": [
        "41506478881403507969696680653240014914910929820314476107906210059990431967234",
        "41506478881403507969696680653240014914910929820314476107906210059990431967235"
      ]
    },
    {
      "x": 396,
      "y": 320,
      "size": 1,
      "price": "2106000000000000000000",
      "reserved": "",
      "salt": "0x4c4fd705a06d9d20407efcebf6a3b08ad238d0cf44d8b185b86379a729a9633a",
      "assetIds": [
        "41506478881403507969696680653240014914910929820314476107906210059990431967233",
        "41506478881403507969696680653240014914910929820314476107906210059990431967234"
      ]
    },
    {
      "x": 396,
      "y": 319,
      "size": 1,
      "price": "2106000000000000000000",
      "reserved": "",
      "salt": "0x63f50850fbbea8ee0be0ecd746b58b32b84c5096969836639486ea15baba6b1a",
      "assetIds": [
        "41506478881403507969696680653240014914910929820314476107906210059990431967234",
        "41506478881403507969696680653240014914910929820314476107906210059990431967235"
      ]
    },
    {
      "x": 396,
      "y": 318,
      "size": 1,
      "price": "2106000000000000000000",
      "reserved": "",
      "salt": "0x454ab0e67f6353e84104e4fd76eb21a88e2860e30258b0e86fce83e84d27b221",
      "assetIds": [
        "41506478881403507969696680653240014914910929820314476107906210059990431967235",
        "41506478881403507969696680653240014914910929820314476107906210059990431967236"
      ]
    },
    {
      "x": 395,
      "y": 318,
      "size": 1,
      "price": "2106000000000000000000",
      "reserved": "",
      "salt": "0x38e405983eb4d26d0bd493ac529f019afb6a399fa9b0c6c6ffc40cb83964a000",
      "assetIds": [
        "41506478881403507969696680653240014914910929820314476107906210059990431967234",
        "41506478881403507969696680653240014914910929820314476107906210059990431967235"
      ]
    },
    {
      "x": 394,
      "y": 318,
      "size": 1,
      "price": "2106000000000000000000",
      "reserved": "",
      "salt": "0xe73fe99c237f69bc1dd53b3163c92948d95883a0797d2440f548f9a34af0af27",
      "assetIds": [
        "41506478881403507969696680653240014914910929820314476107906210059990431967233",
        "41506478881403507969696680653240014914910929820314476107906210059990431967234"
      ]
    },
    {
      "x": 393,
      "y": 318,
      "size": 1,
      "price": "2106000000000000000000",
      "reserved": "",
      "salt": "0x3a15231d03c8363df73dbf9fcc122668551f1e7a2001a4bf59c52cddeeb344bd",
      "assetIds": [
        "41506478881403507969696680653240014914910929820314476107906210059990431967233",
        "41506478881403507969696680653240014914910929820314476107906210059990431967234"
      ]
    },
    {
      "x": 392,
      "y": 318,
      "size": 1,
      "price": "2106000000000000000000",
      "reserved": "",
      "salt": "0x4e7008804a6b91baa185a8cdfcd6a6fc591311e1f4c89f0edb768d87ca574336",
      "assetIds": [
        "41506478881403507969696680653240014914910929820314476107906210059990431967235",
        "41506478881403507969696680653240014914910929820314476107906210059990431967236"
      ]
    },
    {
      "x": 391,
      "y": 318,
      "size": 1,
      "price": "2106000000000000000000",
      "reserved": "",
      "salt": "0xfea3b37e00085b679a4707ad8aff48609f5930397e71b44087e91805de9f21f2",
      "assetIds": [
        "41506478881403507969696680653240014914910929820314476107906210059990431967235",
        "41506478881403507969696680653240014914910929820314476107906210059990431967236"
      ]
    },
    {
      "x": 390,
      "y": 318,
      "size": 1,
      "price": "2106000000000000000000",
      "reserved": "",
      "salt": "0x3ca51436211b417b0427b3955ce63e59c99d5b1492dbf7f7dd95bb550272f273",
      "assetIds": [
        "41506478881403507969696680653240014914910929820314476107906210059990431967232",
        "41506478881403507969696680653240014914910929820314476107906210059990431967233"
      ]
    },
    {
      "x": 390,
      "y": 319,
      "size": 1,
      "price": "2106000000000000000000",
      "reserved": "",
      "salt": "0xb525ce96834b4026c91a81751b34d0dc7a52fcb13d6cea36f4526df7ac6a4bd6",
      "assetIds": [
        "41506478881403507969696680653240014914910929820314476107906210059990431967232",
        "41506478881403507969696680653240014914910929820314476107906210059990431967233"
      ]
    },
    {
      "x": 390,
      "y": 320,
      "size": 1,
      "price": "2106000000000000000000",
      "reserved": "",
      "salt": "0x8d70eaa38aa88504fe79fab465793724962369ed30aa160852be6d06102d3eef",
      "assetIds": [
        "41506478881403507969696680653240014914910929820314476107906210059990431967234",
        "41506478881403507969696680653240014914910929820314476107906210059990431967235"
      ]
    },
    {
      "x": 390,
      "y": 321,
      "size": 1,
      "price": "2106000000000000000000",
      "reserved": "",
      "salt": "0xf2e374a090c44035adbe042d4b39bae85ef44678d37e5ac3821d6fe6696c767e",
      "assetIds": [
        "41506478881403507969696680653240014914910929820314476107906210059990431967233",
        "41506478881403507969696680653240014914910929820314476107906210059990431967234"
      ]
    },
    {
      "x": 391,
      "y": 322,
      "size": 1,
      "price": "2106000000000000000000",
      "reserved": "",
      "salt": "0xdd5890241fbdbd48f2d4687b9e6e5e1b2912bd4316e86ddc0d950451ba69bd51",
      "assetIds": [
        "41506478881403507969696680653240014914910929820314476107906210059990431967232",
        "41506478881403507969696680653240014914910929820314476107906210059990431967233"
      ]
    },
    {
      "x": 391,
      "y": 323,
      "size": 1,
      "price": "2106000000000000000000",
      "reserved": "",
      "salt": "0xad88dab7e78ed3a087d9c97358aa7c8ad2646d55fbc109e77cd93c6ce4636094",
      "assetIds": [
        "41506478881403507969696680653240014914910929820314476107906210059990431967232",
        "41506478881403507969696680653240014914910929820314476107906210059990431967233"
      ]
    },
    {
      "x": 393,
      "y": 323,
      "size": 1,
      "price": "2106000000000000000000",
      "reserved": "",
      "salt": "0x8a75c0918748dd0150fcf5ad8a93e07927289d341504840d7f552744b7c21742",
      "assetIds": [
        "41506478881403507969696680653240014914910929820314476107906210059990431967232",
        "41506478881403507969696680653240014914910929820314476107906210059990431967233"
      ]
    },
    {
      "x": 394,
      "y": 323,
      "size": 1,
      "price": "2106000000000000000000",
      "reserved": "",
      "salt": "0xf812881355cd37afca5abf093c9e2e5f171981bf7ed39fe1b2ceadc8c367fa1f",
      "assetIds": [
        "41506478881403507969696680653240014914910929820314476107906210059990431967233",
        "41506478881403507969696680653240014914910929820314476107906210059990431967234"
      ]
    },
    {
      "x": 395,
      "y": 323,
      "size": 1,
      "price": "2106000000000000000000",
      "reserved": "",
      "salt": "0xa88f34e780b122a9d3a819853c071622783683d3ae4e78fcf9edcef221381cfd",
      "assetIds": [
        "41506478881403507969696680653240014914910929820314476107906210059990431967234",
        "41506478881403507969696680653240014914910929820314476107906210059990431967235"
      ]
    },
    {
      "x": 395,
      "y": 320,
      "size": 1,
      "price": "2106000000000000000000",
      "reserved": "",
      "salt": "0x289feb0490a01d17b0b807a3c94b4788786f1b8a5fcf8f6560ce7bd20f2ca22a",
      "assetIds": [
        "41506478881403507969696680653240014914910929820314476107906210059990431967234",
        "41506478881403507969696680653240014914910929820314476107906210059990431967235"
      ]
    },
    {
      "x": 395,
      "y": 319,
      "size": 1,
      "price": "2106000000000000000000",
      "reserved": "",
      "salt": "0x7b9ed78d937a5696bc69f90f5ecbe7969cd45ce30217ccfc46d7f36332bf159a",
      "assetIds": [
        "41506478881403507969696680653240014914910929820314476107906210059990431967233",
        "41506478881403507969696680653240014914910929820314476107906210059990431967234"
      ]
    },
    {
      "x": 394,
      "y": 319,
      "size": 1,
      "price": "2106000000000000000000",
      "reserved": "",
      "salt": "0xcad762c287e0f9bb9365c5ccd4d7d4d49e2f509415e09ca61e9511bfa8ca5b03",
      "assetIds": [
        "41506478881403507969696680653240014914910929820314476107906210059990431967232",
        "41506478881403507969696680653240014914910929820314476107906210059990431967233"
      ]
    },
    {
      "x": 394,
      "y": 320,
      "size": 1,
      "price": "2106000000000000000000",
      "reserved": "",
      "salt": "0x1a5c8fb93b0d7acaef0d58e8e25a7fc8fa5434345bd714b611ccc0f97ea7d35b",
      "assetIds": [
        "41506478881403507969696680653240014914910929820314476107906210059990431967232",
        "41506478881403507969696680653240014914910929820314476107906210059990431967233"
      ]
    },
    {
      "x": 394,
      "y": 321,
      "size": 1,
      "price": "2106000000000000000000",
      "reserved": "",
      "salt": "0xca0bb3cdb542dcdfa75eec49d3fa05d67fdf7ced51be56c4aa394ae8a3ac437f",
      "assetIds": [
        "41506478881403507969696680653240014914910929820314476107906210059990431967233",
        "41506478881403507969696680653240014914910929820314476107906210059990431967234"
      ]
    },
    {
      "x": 395,
      "y": 321,
      "size": 1,
      "price": "2106000000000000000000",
      "reserved": "",
      "salt": "0x7c2573a39be0a77e9ccb4701be2cc119a7c2c797414f5c44953aab67dfe917c3",
      "assetIds": [
        "41506478881403507969696680653240014914910929820314476107906210059990431967235",
        "41506478881403507969696680653240014914910929820314476107906210059990431967236"
      ]
    },
    {
      "x": 395,
      "y": 322,
      "size": 1,
      "price": "2106000000000000000000",
      "reserved": "",
      "salt": "0x2a99a141064f54b0a86d6364898afce0782f68ef52b56f10c6b502b9f12fd262",
      "assetIds": [
        "41506478881403507969696680653240014914910929820314476107906210059990431967235",
        "41506478881403507969696680653240014914910929820314476107906210059990431967236"
      ]
    },
    {
      "x": 397,
      "y": 323,
      "size": 1,
      "price": "2106000000000000000000",
      "reserved": "",
      "salt": "0x2ffcf29d7f3859dfef81f9da38cdc651a146f01fddb20d1b593047f8239fac3e",
      "assetIds": [
        "41506478881403507969696680653240014914910929820314476107906210059990431967234",
        "41506478881403507969696680653240014914910929820314476107906210059990431967235"
      ]
    },
    {
      "x": 397,
      "y": 324,
      "size": 1,
      "price": "2106000000000000000000",
      "reserved": "",
      "salt": "0x55acea44795c1cd917ae79157a0a7860fa737516e029e92cd57ad12356b537ce",
      "assetIds": [
        "41506478881403507969696680653240014914910929820314476107906210059990431967235",
        "41506478881403507969696680653240014914910929820314476107906210059990431967236"
      ]
    },
    {
      "x": 394,
      "y": 322,
      "size": 1,
      "price": "2106000000000000000000",
      "reserved": "",
      "salt": "0x80ce9600a657906b0c5a0b2a3be7c5e3a8e36f24201c10ec97f0aa7b9062edff",
      "assetIds": [
        "41506478881403507969696680653240014914910929820314476107906210059990431967234",
        "41506478881403507969696680653240014914910929820314476107906210059990431967235"
      ]
    },
    {
      "x": 393,
      "y": 322,
      "size": 1,
      "price": "2106000000000000000000",
      "reserved": "",
      "salt": "0x4aeb42b5637ecdd3cfd26f832bf2b712839614f6345194d8081b6d60fb6e136b",
      "assetIds": [
        "41506478881403507969696680653240014914910929820314476107906210059990431967233",
        "41506478881403507969696680653240014914910929820314476107906210059990431967234"
      ]
    },
    {
      "x": 393,
      "y": 321,
      "size": 1,
      "price": "2106000000000000000000",
      "reserved": "",
      "salt": "0x1ac5a1034571565cd7501942345bd882b88a2817bba904b2ce9c21eb039a630c",
      "assetIds": [
        "41506478881403507969696680653240014914910929820314476107906210059990431967233",
        "41506478881403507969696680653240014914910929820314476107906210059990431967234"
      ]
    },
    {
      "x": 393,
      "y": 320,
      "size": 1,
      "price": "2106000000000000000000",
      "reserved": "",
      "salt": "0x5cc7929b2c42f5395a4292aa2064d4e1d72ecf1abe84eb778f0f077aed950473",
      "assetIds": [
        "41506478881403507969696680653240014914910929820314476107906210059990431967233",
        "41506478881403507969696680653240014914910929820314476107906210059990431967234"
      ]
    },
    {
      "x": 392,
      "y": 319,
      "size": 1,
      "price": "2106000000000000000000",
      "reserved": "",
      "salt": "0x8955ccde185136a36369a02e3152900ace2e3f25566991509df3d389d93e910b",
      "assetIds": [
        "41506478881403507969696680653240014914910929820314476107906210059990431967233",
        "41506478881403507969696680653240014914910929820314476107906210059990431967234"
      ]
    },
    {
      "x": 393,
      "y": 319,
      "size": 1,
      "price": "2106000000000000000000",
      "reserved": "",
      "salt": "0x29ea31b14119819dad164ee62ab6eb9ef389eb8ed2c0db482773d4da62f47bb0",
      "assetIds": [
        "41506478881403507969696680653240014914910929820314476107906210059990431967233",
        "41506478881403507969696680653240014914910929820314476107906210059990431967234"
      ]
    },
    {
      "x": 391,
      "y": 319,
      "size": 1,
      "price": "2106000000000000000000",
      "reserved": "",
      "salt": "0x60822ca85a6816a11cb8338aefd16f85e6650a299854dcf7a572e8b616909872",
      "assetIds": [
        "41506478881403507969696680653240014914910929820314476107906210059990431967233",
        "41506478881403507969696680653240014914910929820314476107906210059990431967234"
      ]
    },
    {
      "x": 391,
      "y": 320,
      "size": 1,
      "price": "2106000000000000000000",
      "reserved": "",
      "salt": "0x3d42f0baa6673f0c44a032f763a46802ef8c694200ee5e17af5461efaae4e5bb",
      "assetIds": [
        "41506478881403507969696680653240014914910929820314476107906210059990431967232",
        "41506478881403507969696680653240014914910929820314476107906210059990431967233"
      ]
    },
    {
      "x": 392,
      "y": 320,
      "size": 1,
      "price": "2106000000000000000000",
      "reserved": "",
      "salt": "0xf2105bbad29c6ffeec974a559bf9d22ead69b4a467655fda1bf6ac5f6d8b5681",
      "assetIds": [
        "41506478881403507969696680653240014914910929820314476107906210059990431967234",
        "41506478881403507969696680653240014914910929820314476107906210059990431967235"
      ]
    },
    {
      "x": 392,
      "y": 321,
      "size": 1,
      "price": "2106000000000000000000",
      "reserved": "",
      "salt": "0xa4c8733de1d222cfdc091ec9ae03a3280efb6690d63cc745526a46029ae861fe",
      "assetIds": [
        "41506478881403507969696680653240014914910929820314476107906210059990431967235",
        "41506478881403507969696680653240014914910929820314476107906210059990431967236"
      ]
    },
    {
      "x": 392,
      "y": 323,
      "size": 1,
      "price": "2106000000000000000000",
      "reserved": "",
      "salt": "0x93d2e3c2922fd027c01c73ffafb39a3b8e82b6e88609b9da2ad42ddaea248214",
      "assetIds": [
        "41506478881403507969696680653240014914910929820314476107906210059990431967232",
        "41506478881403507969696680653240014914910929820314476107906210059990431967233"
      ]
    },
    {
      "x": 392,
      "y": 322,
      "size": 1,
      "price": "2106000000000000000000",
      "reserved": "",
      "salt": "0x682ed496cf051e762d60e541fad2b759108c6938a634e88501ca68b0c702ac01",
      "assetIds": [
        "41506478881403507969696680653240014914910929820314476107906210059990431967233",
        "41506478881403507969696680653240014914910929820314476107906210059990431967234"
      ]
    },
    {
      "x": 390,
      "y": 322,
      "size": 1,
      "price": "2106000000000000000000",
      "reserved": "",
      "salt": "0x20e874626d3e44f917cf48be76deac9ffea9c3b5cd1f3d5131446cae7a906b09",
      "assetIds": [
        "41506478881403507969696680653240014914910929820314476107906210059990431967232",
        "41506478881403507969696680653240014914910929820314476107906210059990431967233"
      ]
    },
    {
      "x": 390,
      "y": 323,
      "size": 1,
      "price": "2106000000000000000000",
      "reserved": "",
      "salt": "0xd7d62482b14356139a60630c2964e7556f3693cda17292f3d2b45cf69c00bb42",
      "assetIds": [
        "41506478881403507969696680653240014914910929820314476107906210059990431967234",
        "41506478881403507969696680653240014914910929820314476107906210059990431967235"
      ]
    },
    {
      "x": 397,
      "y": 322,
      "size": 1,
      "price": "2106000000000000000000",
      "reserved": "",
      "salt": "0x55400e1bc21212adc5f5a334a758d79fc2fb1dead7f0cedb8331eebde5ea79c0",
      "assetIds": [
        "41506478881403507969696680653240014914910929820314476107906210059990431967235",
        "41506478881403507969696680653240014914910929820314476107906210059990431967236"
      ]
    },
    {
      "x": 397,
      "y": 321,
      "size": 1,
      "price": "2106000000000000000000",
      "reserved": "",
      "salt": "0x462e2ba45de4b2900b12050a7e60bcace5cea41a657fb1dcd920b4ed5aaccd9a",
      "assetIds": [
        "41506478881403507969696680653240014914910929820314476107906210059990431967232",
        "41506478881403507969696680653240014914910929820314476107906210059990431967233"
      ]
    },
    {
      "x": 398,
      "y": 321,
      "size": 1,
      "price": "2106000000000000000000",
      "reserved": "",
      "salt": "0xe8d72cc6e080457f7e6334d807373d03bdde3727ee07013c22921719c5a72fd5",
      "assetIds": [
        "41506478881403507969696680653240014914910929820314476107906210059990431967234",
        "41506478881403507969696680653240014914910929820314476107906210059990431967235"
      ]
    },
    {
      "x": 399,
      "y": 320,
      "size": 1,
      "price": "2106000000000000000000",
      "reserved": "",
      "salt": "0x20003e22d29bca6191afd9fa536aa89944bd1a3beeff37db85c7f85ed2ba1bd6",
      "assetIds": [
        "41506478881403507969696680653240014914910929820314476107906210059990431967232",
        "41506478881403507969696680653240014914910929820314476107906210059990431967233"
      ]
    },
    {
      "x": 399,
      "y": 319,
      "size": 1,
      "price": "2106000000000000000000",
      "reserved": "",
      "salt": "0x64e77eeaa18cf368fe7260f4b91973924e44c65efd0e56beacd0ea2702c9eff3",
      "assetIds": [
        "41506478881403507969696680653240014914910929820314476107906210059990431967232",
        "41506478881403507969696680653240014914910929820314476107906210059990431967233"
      ]
    },
    {
      "x": 400,
      "y": 319,
      "size": 1,
      "price": "2106000000000000000000",
      "reserved": "",
      "salt": "0x9393f180d1889074dbf734712d1412deac2ae7b040be3eb5587d80dbd9cb19ee",
      "assetIds": [
        "41506478881403507969696680653240014914910929820314476107906210059990431967234",
        "41506478881403507969696680653240014914910929820314476107906210059990431967235"
      ]
    },
    {
      "x": 401,
      "y": 319,
      "size": 1,
      "price": "2106000000000000000000",
      "reserved": "",
      "salt": "0x31a6d95d65e1fc365a411e55883b939c68365775f1a3034700235989c7e38000",
      "assetIds": [
        "41506478881403507969696680653240014914910929820314476107906210059990431967235",
        "41506478881403507969696680653240014914910929820314476107906210059990431967236"
      ]
    },
    {
      "x": 400,
      "y": 318,
      "size": 1,
      "price": "2106000000000000000000",
      "reserved": "",
      "salt": "0x5721c003e3bb2119bda2cd659521e74bb4c520c8190476eba7fd7e44cdccd50d",
      "assetIds": [
        "41506478881403507969696680653240014914910929820314476107906210059990431967235",
        "41506478881403507969696680653240014914910929820314476107906210059990431967236"
      ]
    },
    {
      "x": 399,
      "y": 318,
      "size": 1,
      "price": "2106000000000000000000",
      "reserved": "",
      "salt": "0x07fcc293c81926225461b6fde10c9684ec8c2b7a54fcfa7e33383314ffa1fbf3",
      "assetIds": [
        "41506478881403507969696680653240014914910929820314476107906210059990431967232",
        "41506478881403507969696680653240014914910929820314476107906210059990431967233"
      ]
    },
    {
      "x": 398,
      "y": 318,
      "size": 1,
      "price": "2106000000000000000000",
      "reserved": "",
      "salt": "0x6c2f7a4e74a2b856744cc2d4fdd239d78aa188e5d7bd502f03f61836f7c9166f",
      "assetIds": [
        "41506478881403507969696680653240014914910929820314476107906210059990431967235",
        "41506478881403507969696680653240014914910929820314476107906210059990431967236"
      ]
    },
    {
      "x": 397,
      "y": 318,
      "size": 1,
      "price": "2106000000000000000000",
      "reserved": "",
      "salt": "0xffa8665b2429eadc7a340d4368cf969b9bd69c00029cc01dfe0f58cf6bf8561c",
      "assetIds": [
        "41506478881403507969696680653240014914910929820314476107906210059990431967233",
        "41506478881403507969696680653240014914910929820314476107906210059990431967234"
      ]
    },
    {
      "x": 401,
      "y": 318,
      "size": 1,
      "price": "2106000000000000000000",
      "reserved": "",
      "salt": "0xb8af141b1b911d670f90bd6f2927f22a6c4cdc1cc51a747562d6e76004970260",
      "assetIds": [
        "41506478881403507969696680653240014914910929820314476107906210059990431967235",
        "41506478881403507969696680653240014914910929820314476107906210059990431967236"
      ]
    },
    {
      "x": 398,
      "y": 319,
      "size": 1,
      "price": "2106000000000000000000",
      "reserved": "",
      "salt": "0x8e50824fb2034e7cfd600c12194b3225fa39da1e3d63439a211729f2b5889f4d",
      "assetIds": [
        "41506478881403507969696680653240014914910929820314476107906210059990431967234",
        "41506478881403507969696680653240014914910929820314476107906210059990431967235"
      ]
    },
    {
      "x": 397,
      "y": 319,
      "size": 1,
      "price": "2106000000000000000000",
      "reserved": "",
      "salt": "0xa83a84f31067304726f29ec39c991187c53e1c133a0af817b646f87e2475d73d",
      "assetIds": [
        "41506478881403507969696680653240014914910929820314476107906210059990431967234",
        "41506478881403507969696680653240014914910929820314476107906210059990431967235"
      ]
    },
    {
      "x": 397,
      "y": 320,
      "size": 1,
      "price": "2106000000000000000000",
      "reserved": "",
      "salt": "0x092b2facc6bcd4380cba963cb1b40ae01d4d23636535b0297b06578de1d84ce0",
      "assetIds": [
        "41506478881403507969696680653240014914910929820314476107906210059990431967233",
        "41506478881403507969696680653240014914910929820314476107906210059990431967234"
      ]
    },
    {
      "x": 398,
      "y": 322,
      "size": 1,
      "price": "2106000000000000000000",
      "reserved": "",
      "salt": "0xbf210ca352644007a0737e1849d030812e527b827455e498e598ee840800342e",
      "assetIds": [
        "41506478881403507969696680653240014914910929820314476107906210059990431967232",
        "41506478881403507969696680653240014914910929820314476107906210059990431967233"
      ]
    },
    {
      "x": 399,
      "y": 322,
      "size": 1,
      "price": "2106000000000000000000",
      "reserved": "",
      "salt": "0x2abdd5ce59e41df469e8d401a57f02c80600722cd56f41b731dee18d78878b55",
      "assetIds": [
        "41506478881403507969696680653240014914910929820314476107906210059990431967235",
        "41506478881403507969696680653240014914910929820314476107906210059990431967236"
      ]
    },
    {
      "x": 400,
      "y": 322,
      "size": 1,
      "price": "2106000000000000000000",
      "reserved": "",
      "salt": "0x929d01dea4ed9bb7b10830b1172c975a092283823c4036f2c994d9b30c6c6139",
      "assetIds": [
        "41506478881403507969696680653240014914910929820314476107906210059990431967233",
        "41506478881403507969696680653240014914910929820314476107906210059990431967234"
      ]
    },
    {
      "x": 401,
      "y": 322,
      "size": 1,
      "price": "2106000000000000000000",
      "reserved": "",
      "salt": "0xa743702ce7f6abd3e7d9b6b6d04dfd13539986fec33b2090cb3cee286f41a1fe",
      "assetIds": [
        "41506478881403507969696680653240014914910929820314476107906210059990431967234",
        "41506478881403507969696680653240014914910929820314476107906210059990431967235"
      ]
    },
    {
      "x": 402,
      "y": 322,
      "size": 1,
      "price": "2106000000000000000000",
      "reserved": "",
      "salt": "0x7638de2f452367eaf67d38a68738cc5bb10995154eba006c17d00f2c5b19b032",
      "assetIds": [
        "41506478881403507969696680653240014914910929820314476107906210059990431967234",
        "41506478881403507969696680653240014914910929820314476107906210059990431967235"
      ]
    },
    {
      "x": 402,
      "y": 321,
      "size": 1,
      "price": "2106000000000000000000",
      "reserved": "",
      "salt": "0xdc3a5b6769efe5d264dee2334f8db25ead1c8e22852fc1aaad0777549dde8eb7",
      "assetIds": [
        "41506478881403507969696680653240014914910929820314476107906210059990431967232",
        "41506478881403507969696680653240014914910929820314476107906210059990431967233"
      ]
    },
    {
      "x": 403,
      "y": 321,
      "size": 1,
      "price": "2106000000000000000000",
      "reserved": "",
      "salt": "0x31c6c604979c2a6e7587666b80fcdee1acffd0119efa3e0c812313b8b5837fae",
      "assetIds": [
        "41506478881403507969696680653240014914910929820314476107906210059990431967234",
        "41506478881403507969696680653240014914910929820314476107906210059990431967235"
      ]
    },
    {
      "x": 401,
      "y": 321,
      "size": 1,
      "price": "2106000000000000000000",
      "reserved": "",
      "salt": "0xafe392f74935fd10bbd55c7bff74a192469d50d75c1399684fe053977f163917",
      "assetIds": [
        "41506478881403507969696680653240014914910929820314476107906210059990431967234",
        "41506478881403507969696680653240014914910929820314476107906210059990431967235"
      ]
    },
    {
      "x": 401,
      "y": 320,
      "size": 1,
      "price": "2106000000000000000000",
      "reserved": "",
      "salt": "0x25781099cae700ed2b1587d53294e319ec95ff5774db2bbde4f591cdbf4b6b43",
      "assetIds": [
        "41506478881403507969696680653240014914910929820314476107906210059990431967232",
        "41506478881403507969696680653240014914910929820314476107906210059990431967233"
      ]
    },
    {
      "x": 400,
      "y": 320,
      "size": 1,
      "price": "2106000000000000000000",
      "reserved": "",
      "salt": "0xaa2f22c95eeb853135f0ffcaecfa8bfc9e273be7cb2aa67d20f6e222798fd3a0",
      "assetIds": [
        "41506478881403507969696680653240014914910929820314476107906210059990431967232",
        "41506478881403507969696680653240014914910929820314476107906210059990431967233"
      ]
    },
    {
      "x": 402,
      "y": 320,
      "size": 1,
      "price": "2106000000000000000000",
      "reserved": "",
      "salt": "0x624280c6d3152386fb8b94b19251dbad4509365b320aa03b1bccc70c6db5b9af",
      "assetIds": [
        "41506478881403507969696680653240014914910929820314476107906210059990431967234",
        "41506478881403507969696680653240014914910929820314476107906210059990431967235"
      ]
    },
    {
      "x": 400,
      "y": 321,
      "size": 1,
      "price": "2106000000000000000000",
      "reserved": "",
      "salt": "0x4bdfb57fa9b0ecf3f519e61159afd2995c347205a0bb400917d1d9ff20aeda99",
      "assetIds": [
        "41506478881403507969696680653240014914910929820314476107906210059990431967232",
        "41506478881403507969696680653240014914910929820314476107906210059990431967233"
      ]
    },
    {
      "x": 399,
      "y": 321,
      "size": 1,
      "price": "2106000000000000000000",
      "reserved": "",
      "salt": "0x9bca7ed625ab1617b7d7068c8b65a0ce60aa135ff5f507a331e1c504d314f6ea",
      "assetIds": [
        "41506478881403507969696680653240014914910929820314476107906210059990431967233",
        "41506478881403507969696680653240014914910929820314476107906210059990431967234"
      ]
    },
    {
      "x": 404,
      "y": 321,
      "size": 1,
      "price": "2106000000000000000000",
      "reserved": "",
      "salt": "0x4436316cbcadcbcb145a166fa664e0d073f77fffb4b5a97d0b20e758496e3c06",
      "assetIds": [
        "41506478881403507969696680653240014914910929820314476107906210059990431967234",
        "41506478881403507969696680653240014914910929820314476107906210059990431967235"
      ]
    },
    {
      "x": 404,
      "y": 322,
      "size": 1,
      "price": "2106000000000000000000",
      "reserved": "",
      "salt": "0x57c64d7f2806d8e832ec371adc204cc84d5736f4a0923a9c5ff4a625580de125",
      "assetIds": [
        "41506478881403507969696680653240014914910929820314476107906210059990431967232",
        "41506478881403507969696680653240014914910929820314476107906210059990431967233"
      ]
    },
    {
      "x": 404,
      "y": 323,
      "size": 1,
      "price": "2106000000000000000000",
      "reserved": "",
      "salt": "0x170cffb1e3d08856f04b5b4aa61d9dd25d854868c06cd422438584f356a33eb9",
      "assetIds": [
        "41506478881403507969696680653240014914910929820314476107906210059990431967232",
        "41506478881403507969696680653240014914910929820314476107906210059990431967233"
      ]
    },
    {
      "x": 404,
      "y": 324,
      "size": 1,
      "price": "2106000000000000000000",
      "reserved": "",
      "salt": "0x5678426edb67e05c9dd156072ca5aebdd01b134197686b189df3c3f582281886",
      "assetIds": [
        "41506478881403507969696680653240014914910929820314476107906210059990431967234",
        "41506478881403507969696680653240014914910929820314476107906210059990431967235"
      ]
    },
    {
      "x": 404,
      "y": 326,
      "size": 1,
      "price": "2106000000000000000000",
      "reserved": "",
      "salt": "0xc53aabc3ab7592d56ae98a443e05ba8b45ece9eedcb17c496e19aa809eda83bd",
      "assetIds": [
        "41506478881403507969696680653240014914910929820314476107906210059990431967234",
        "41506478881403507969696680653240014914910929820314476107906210059990431967235"
      ]
    },
    {
      "x": 403,
      "y": 324,
      "size": 1,
      "price": "2106000000000000000000",
      "reserved": "",
      "salt": "0xca0adec16f16639596599ef7f386334122526a588926eb0fdc7f85edb2bcf077",
      "assetIds": [
        "41506478881403507969696680653240014914910929820314476107906210059990431967235",
        "41506478881403507969696680653240014914910929820314476107906210059990431967236"
      ]
    },
    {
      "x": 402,
      "y": 324,
      "size": 1,
      "price": "2106000000000000000000",
      "reserved": "",
      "salt": "0x814093dcbf5a2a3eae367d161a2260455fcb0aee79536320536e6c19c9356d63",
      "assetIds": [
        "41506478881403507969696680653240014914910929820314476107906210059990431967232",
        "41506478881403507969696680653240014914910929820314476107906210059990431967233"
      ]
    },
    {
      "x": 401,
      "y": 324,
      "size": 1,
      "price": "2106000000000000000000",
      "reserved": "",
      "salt": "0x2afee54d0fae147caca92ad05508938503ad834d7041bbd962d78c16b0c53c40",
      "assetIds": [
        "41506478881403507969696680653240014914910929820314476107906210059990431967233",
        "41506478881403507969696680653240014914910929820314476107906210059990431967234"
      ]
    },
    {
      "x": 401,
      "y": 323,
      "size": 1,
      "price": "2106000000000000000000",
      "reserved": "",
      "salt": "0xacbf148854102d4101393b97fe8017965432dec4f94ee6b74effa70c7c976e61",
      "assetIds": [
        "41506478881403507969696680653240014914910929820314476107906210059990431967233",
        "41506478881403507969696680653240014914910929820314476107906210059990431967234"
      ]
    },
    {
      "x": 403,
      "y": 323,
      "size": 1,
      "price": "2106000000000000000000",
      "reserved": "",
      "salt": "0xf288e7526943e6dc08cbaddf0258379c392ce355a931a6fed2c1b76dc3754a8f",
      "assetIds": [
        "41506478881403507969696680653240014914910929820314476107906210059990431967232",
        "41506478881403507969696680653240014914910929820314476107906210059990431967233"
      ]
    },
    {
      "x": 402,
      "y": 323,
      "size": 1,
      "price": "2106000000000000000000",
      "reserved": "",
      "salt": "0x7d2b152576d6b41c851c15777af3558a89a627704b829a24d0ae84009dc9f301",
      "assetIds": [
        "41506478881403507969696680653240014914910929820314476107906210059990431967233",
        "41506478881403507969696680653240014914910929820314476107906210059990431967234"
      ]
    },
    {
      "x": 400,
      "y": 323,
      "size": 1,
      "price": "2106000000000000000000",
      "reserved": "",
      "salt": "0x56d175e27be4e7729d4d0b7b5bdbcc79844372b2244baa61359c6215c54d67bd",
      "assetIds": [
        "41506478881403507969696680653240014914910929820314476107906210059990431967233",
        "41506478881403507969696680653240014914910929820314476107906210059990431967234"
      ]
    },
    {
      "x": 403,
      "y": 322,
      "size": 1,
      "price": "2106000000000000000000",
      "reserved": "",
      "salt": "0x59f33bf8999d6ccd9ea0fc80df15823b4bb749e9cf14d90cae9a9195eb8b6b21",
      "assetIds": [
        "41506478881403507969696680653240014914910929820314476107906210059990431967234",
        "41506478881403507969696680653240014914910929820314476107906210059990431967235"
      ]
    },
    {
      "x": 400,
      "y": 324,
      "size": 1,
      "price": "2106000000000000000000",
      "reserved": "",
      "salt": "0x7161423cba04fb2ed659839f6f92a041208438abe338edc340ee733a4e7fc685",
      "assetIds": [
        "41506478881403507969696680653240014914910929820314476107906210059990431967235",
        "41506478881403507969696680653240014914910929820314476107906210059990431967236"
      ]
    },
    {
      "x": 399,
      "y": 324,
      "size": 1,
      "price": "2106000000000000000000",
      "reserved": "",
      "salt": "0x199c62f0c49cec154595aa92f81ef4f1041b5565b7d36aa9408ef19a67b2efa1",
      "assetIds": [
        "41506478881403507969696680653240014914910929820314476107906210059990431967233",
        "41506478881403507969696680653240014914910929820314476107906210059990431967234"
      ]
    },
    {
      "x": 398,
      "y": 324,
      "size": 1,
      "price": "2106000000000000000000",
      "reserved": "",
      "salt": "0x725bb28424aefea7a56a231db27b5380f346563878b1ad316becac43e334f32f",
      "assetIds": [
        "41506478881403507969696680653240014914910929820314476107906210059990431967233",
        "41506478881403507969696680653240014914910929820314476107906210059990431967234"
      ]
    },
    {
      "x": 399,
      "y": 323,
      "size": 1,
      "price": "2106000000000000000000",
      "reserved": "",
      "salt": "0x06fd5e8e7959a5f44e1da67efd11357417f92605e89557837d2785d7a36ed14b",
      "assetIds": [
        "41506478881403507969696680653240014914910929820314476107906210059990431967232",
        "41506478881403507969696680653240014914910929820314476107906210059990431967233"
      ]
    },
    {
      "x": 398,
      "y": 323,
      "size": 1,
      "price": "2106000000000000000000",
      "reserved": "",
      "salt": "0xab23cef6e78dcea28c38d47296cb522f3cd11ebc029066c8d8d856fefc722645",
      "assetIds": [
        "41506478881403507969696680653240014914910929820314476107906210059990431967235",
        "41506478881403507969696680653240014914910929820314476107906210059990431967236"
      ]
    },
    {
      "x": 399,
      "y": 325,
      "size": 1,
      "price": "2106000000000000000000",
      "reserved": "",
      "salt": "0x66e8a54eed67bce72c4a4e312f8a66d19f924919c6b415cc1d36a9a2f4010e25",
      "assetIds": [
        "41506478881403507969696680653240014914910929820314476107906210059990431967235",
        "41506478881403507969696680653240014914910929820314476107906210059990431967236"
      ]
    },
    {
      "x": 399,
      "y": 326,
      "size": 1,
      "price": "2106000000000000000000",
      "reserved": "",
      "salt": "0x56c9306c1f8ca65a1a6d60436a95b8484c8314e7295f77e0f459c63746ccd82e",
      "assetIds": [
        "41506478881403507969696680653240014914910929820314476107906210059990431967233",
        "41506478881403507969696680653240014914910929820314476107906210059990431967234"
      ]
    },
    {
      "x": 399,
      "y": 330,
      "size": 1,
      "price": "2106000000000000000000",
      "reserved": "",
      "salt": "0xfc34f438a25d6ca5ffa7a9563d08964d8720a838768bd3fd423547ea7d0cd5b2",
      "assetIds": [
        "41506478881403507969696680653240014914910929820314476107906210059990431967234",
        "41506478881403507969696680653240014914910929820314476107906210059990431967235"
      ]
    },
    {
      "x": 399,
      "y": 331,
      "size": 1,
      "price": "2106000000000000000000",
      "reserved": "",
      "salt": "0x70f810753ed85901a13e704a91bedf0aa5ac2627711d88207bdc352a1d186d4f",
      "assetIds": [
        "41506478881403507969696680653240014914910929820314476107906210059990431967233",
        "41506478881403507969696680653240014914910929820314476107906210059990431967234"
      ]
    },
    {
      "x": 399,
      "y": 332,
      "size": 1,
      "price": "2106000000000000000000",
      "reserved": "",
      "salt": "0x4cf5fee677ca68ff6aaeaa2fecf0b08690a0ebcbc93ed24795713c8d616309a8",
      "assetIds": [
        "41506478881403507969696680653240014914910929820314476107906210059990431967235",
        "41506478881403507969696680653240014914910929820314476107906210059990431967236"
      ]
    },
    {
      "x": 398,
      "y": 333,
      "size": 1,
      "price": "2106000000000000000000",
      "reserved": "",
      "salt": "0xa63eceb71496a2c8b080cce44c40e0ca149c9745aea38f5f078dac82f7637e25",
      "assetIds": [
        "41506478881403507969696680653240014914910929820314476107906210059990431967235",
        "41506478881403507969696680653240014914910929820314476107906210059990431967236"
      ]
    },
    {
      "x": 398,
      "y": 334,
      "size": 1,
      "price": "2106000000000000000000",
      "reserved": "",
      "salt": "0x54cc3cc5d6e213a1817dfa3e772179fc78934b51e13ffa3e5a34a2819a0b198e",
      "assetIds": [
        "41506478881403507969696680653240014914910929820314476107906210059990431967232",
        "41506478881403507969696680653240014914910929820314476107906210059990431967233"
      ]
    },
    {
      "x": 398,
      "y": 332,
      "size": 1,
      "price": "2106000000000000000000",
      "reserved": "",
      "salt": "0x6c53b2f8e288d8ab8535379eaecbdc24ba13a1d3c1f8109dd3104e1906cc211e",
      "assetIds": [
        "41506478881403507969696680653240014914910929820314476107906210059990431967234",
        "41506478881403507969696680653240014914910929820314476107906210059990431967235"
      ]
    },
    {
      "x": 398,
      "y": 331,
      "size": 1,
      "price": "2106000000000000000000",
      "reserved": "",
      "salt": "0xb9104e6445ed5445d206f1eb5a552fec7e162d73f4465ce071d1f45352bc008d",
      "assetIds": [
        "41506478881403507969696680653240014914910929820314476107906210059990431967233",
        "41506478881403507969696680653240014914910929820314476107906210059990431967234"
      ]
    },
    {
      "x": 398,
      "y": 330,
      "size": 1,
      "price": "2106000000000000000000",
      "reserved": "",
      "salt": "0xc8883aca7863e566341942d9c54b97644cc26469e2bc359eb946ade634443793",
      "assetIds": [
        "41506478881403507969696680653240014914910929820314476107906210059990431967235",
        "41506478881403507969696680653240014914910929820314476107906210059990431967236"
      ]
    },
    {
      "x": 398,
      "y": 329,
      "size": 1,
      "price": "2106000000000000000000",
      "reserved": "",
      "salt": "0xbab99da942f2bc96c4f2daf38199874361621d743c0f60a428598bb5469bb28d",
      "assetIds": [
        "41506478881403507969696680653240014914910929820314476107906210059990431967234",
        "41506478881403507969696680653240014914910929820314476107906210059990431967235"
      ]
    },
    {
      "x": 398,
      "y": 328,
      "size": 1,
      "price": "2106000000000000000000",
      "reserved": "",
      "salt": "0x9e183a0ea35cd7f6ffce7d3b0417e9aa9d20f97dde8930d378303f2be4bfae2b",
      "assetIds": [
        "41506478881403507969696680653240014914910929820314476107906210059990431967233",
        "41506478881403507969696680653240014914910929820314476107906210059990431967234"
      ]
    },
    {
      "x": 398,
      "y": 327,
      "size": 1,
      "price": "2106000000000000000000",
      "reserved": "",
      "salt": "0xe49b236d9b6684f71c98ceb318e78a171f804b9c7c4748dea6ae325c1726ab74",
      "assetIds": [
        "41506478881403507969696680653240014914910929820314476107906210059990431967233",
        "41506478881403507969696680653240014914910929820314476107906210059990431967234"
      ]
    },
    {
      "x": 397,
      "y": 326,
      "size": 1,
      "price": "2106000000000000000000",
      "reserved": "",
      "salt": "0x5d58a2ac2523f47b1813152086e8615e1ece4740835f517ac787e6d62e7cc6bb",
      "assetIds": [
        "41506478881403507969696680653240014914910929820314476107906210059990431967233",
        "41506478881403507969696680653240014914910929820314476107906210059990431967234"
      ]
    },
    {
      "x": 397,
      "y": 325,
      "size": 1,
      "price": "2106000000000000000000",
      "reserved": "",
      "salt": "0x1646bd9725d893d37546730c2951fb9821b7f9b85e6fcc437a6d4b0b57cfe309",
      "assetIds": [
        "41506478881403507969696680653240014914910929820314476107906210059990431967233",
        "41506478881403507969696680653240014914910929820314476107906210059990431967234"
      ]
    },
    {
      "x": 397,
      "y": 327,
      "size": 1,
      "price": "2106000000000000000000",
      "reserved": "",
      "salt": "0x7fd928c815c098bdc0aac9b62576391f9ac6fb09a9119c60ec832e2200a46517",
      "assetIds": [
        "41506478881403507969696680653240014914910929820314476107906210059990431967233",
        "41506478881403507969696680653240014914910929820314476107906210059990431967234"
      ]
    },
    {
      "x": 397,
      "y": 328,
      "size": 1,
      "price": "2106000000000000000000",
      "reserved": "",
      "salt": "0x5ee67b620693879012bdcfb05796b05775004ef40833600cbb03d07f8aa10eed",
      "assetIds": [
        "41506478881403507969696680653240014914910929820314476107906210059990431967234",
        "41506478881403507969696680653240014914910929820314476107906210059990431967235"
      ]
    },
    {
      "x": 397,
      "y": 329,
      "size": 1,
      "price": "2106000000000000000000",
      "reserved": "",
      "salt": "0xa2f675f268aa26d03c1574c6bb1cc02306515ba2982d9f5026faf64cafa581cf",
      "assetIds": [
        "41506478881403507969696680653240014914910929820314476107906210059990431967232",
        "41506478881403507969696680653240014914910929820314476107906210059990431967233"
      ]
    },
    {
      "x": 397,
      "y": 330,
      "size": 1,
      "price": "2106000000000000000000",
      "reserved": "",
      "salt": "0x5fe1d467f5d264528ec9fa88077691f37203263f18602d68e66cf4ab82212614",
      "assetIds": [
        "41506478881403507969696680653240014914910929820314476107906210059990431967233",
        "41506478881403507969696680653240014914910929820314476107906210059990431967234"
      ]
    },
    {
      "x": 397,
      "y": 331,
      "size": 1,
      "price": "2106000000000000000000",
      "reserved": "",
      "salt": "0xeec97c3243f8cf7a9e3fc572ff1bf3e763ed0000e456cf365dbb7a169115e890",
      "assetIds": [
        "41506478881403507969696680653240014914910929820314476107906210059990431967234",
        "41506478881403507969696680653240014914910929820314476107906210059990431967235"
      ]
    },
    {
      "x": 397,
      "y": 332,
      "size": 1,
      "price": "2106000000000000000000",
      "reserved": "",
      "salt": "0x9abda1e3c4a7e55b4d32c745cfe49c9ae4d891da4a7211928c79ac18e6fd2591",
      "assetIds": [
        "41506478881403507969696680653240014914910929820314476107906210059990431967232",
        "41506478881403507969696680653240014914910929820314476107906210059990431967233"
      ]
    },
    {
      "x": 397,
      "y": 333,
      "size": 1,
      "price": "2106000000000000000000",
      "reserved": "",
      "salt": "0xb8dd621814ded40c84c4523f636cd560c995ea1c19335b6d6349b756bc12c318",
      "assetIds": [
        "41506478881403507969696680653240014914910929820314476107906210059990431967233",
        "41506478881403507969696680653240014914910929820314476107906210059990431967234"
      ]
    },
    {
      "x": 397,
      "y": 334,
      "size": 1,
      "price": "2106000000000000000000",
      "reserved": "",
      "salt": "0x812ac087e86fbd5a40b731419af5ce06c7a822fc90749edbc1745e3ca863be08",
      "assetIds": [
        "41506478881403507969696680653240014914910929820314476107906210059990431967233",
        "41506478881403507969696680653240014914910929820314476107906210059990431967234"
      ]
    },
    {
      "x": 400,
      "y": 334,
      "size": 1,
      "price": "2106000000000000000000",
      "reserved": "",
      "salt": "0x44f94aba04f15d4f3690ad690a623382860c6bcff2bf2ba031db4f9861035daf",
      "assetIds": [
        "41506478881403507969696680653240014914910929820314476107906210059990431967235",
        "41506478881403507969696680653240014914910929820314476107906210059990431967236"
      ]
    },
    {
      "x": 400,
      "y": 333,
      "size": 1,
      "price": "2106000000000000000000",
      "reserved": "",
      "salt": "0x2792e58138fc73a90900b97ff29278c6496b447be702956137171c614d491b50",
      "assetIds": [
        "41506478881403507969696680653240014914910929820314476107906210059990431967234",
        "41506478881403507969696680653240014914910929820314476107906210059990431967235"
      ]
    },
    {
      "x": 399,
      "y": 333,
      "size": 1,
      "price": "2106000000000000000000",
      "reserved": "",
      "salt": "0x914d6543de9e59f5a87c657be1a9329b1e2922317b801372cb7d524095417716",
      "assetIds": [
        "41506478881403507969696680653240014914910929820314476107906210059990431967232",
        "41506478881403507969696680653240014914910929820314476107906210059990431967233"
      ]
    },
    {
      "x": 398,
      "y": 326,
      "size": 1,
      "price": "2106000000000000000000",
      "reserved": "",
      "salt": "0x74b155d13775ba51fb1e469ae07fb9c586f349c1a081a6cd87c5e3e86ea1c35d",
      "assetIds": [
        "41506478881403507969696680653240014914910929820314476107906210059990431967234",
        "41506478881403507969696680653240014914910929820314476107906210059990431967235"
      ]
    },
    {
      "x": 398,
      "y": 325,
      "size": 1,
      "price": "2106000000000000000000",
      "reserved": "",
      "salt": "0x23f2a1619cbeaad0a0c6ace8efcebb00f6efc596bd57d6d7f3bc09c1a282cf5d",
      "assetIds": [
        "41506478881403507969696680653240014914910929820314476107906210059990431967233",
        "41506478881403507969696680653240014914910929820314476107906210059990431967234"
      ]
    },
    {
      "x": 401,
      "y": 325,
      "size": 1,
      "price": "2106000000000000000000",
      "reserved": "",
      "salt": "0xd3463368244bdd980112eb1d654d4dac72869d5b3ebd81be50ca971d8045dfb1",
      "assetIds": [
        "41506478881403507969696680653240014914910929820314476107906210059990431967234",
        "41506478881403507969696680653240014914910929820314476107906210059990431967235"
      ]
    },
    {
      "x": 402,
      "y": 325,
      "size": 1,
      "price": "2106000000000000000000",
      "reserved": "",
      "salt": "0xeebe8f6e25eb10c977d4cd2aa85c1829b3f2088cbae0200df02e65d1abcbd0c7",
      "assetIds": [
        "41506478881403507969696680653240014914910929820314476107906210059990431967234",
        "41506478881403507969696680653240014914910929820314476107906210059990431967235"
      ]
    },
    {
      "x": 403,
      "y": 325,
      "size": 1,
      "price": "2106000000000000000000",
      "reserved": "",
      "salt": "0xa20f4cacfc40f60e2fba118c58966b8c4ea625dbce62aeb56afa2601bf22120c",
      "assetIds": [
        "41506478881403507969696680653240014914910929820314476107906210059990431967235",
        "41506478881403507969696680653240014914910929820314476107906210059990431967236"
      ]
    },
    {
      "x": 403,
      "y": 326,
      "size": 1,
      "price": "2106000000000000000000",
      "reserved": "",
      "salt": "0x262bec0aa2a0e2a88927d83625a30b4bc525ffb2e41c108e17b024399715fbb2",
      "assetIds": [
        "41506478881403507969696680653240014914910929820314476107906210059990431967235",
        "41506478881403507969696680653240014914910929820314476107906210059990431967236"
      ]
    },
    {
      "x": 403,
      "y": 327,
      "size": 1,
      "price": "2106000000000000000000",
      "reserved": "",
      "salt": "0x0015cd2c17414a017a8e16edcdefb2aea930499eb7d862c77b4d7b338db7302d",
      "assetIds": [
        "41506478881403507969696680653240014914910929820314476107906210059990431967235",
        "41506478881403507969696680653240014914910929820314476107906210059990431967236"
      ]
    },
    {
      "x": 404,
      "y": 327,
      "size": 1,
      "price": "2106000000000000000000",
      "reserved": "",
      "salt": "0x4d1e84c50d2de7faf8664e1e1fbd0aa90f56b122e455bae320fe369baeaffb29",
      "assetIds": [
        "41506478881403507969696680653240014914910929820314476107906210059990431967234",
        "41506478881403507969696680653240014914910929820314476107906210059990431967235"
      ]
    },
    {
      "x": 402,
      "y": 327,
      "size": 1,
      "price": "2106000000000000000000",
      "reserved": "",
      "salt": "0xe326a2a37003dc090ef6e5b65fadb13e1dde7cb08f61f720adca35806e69fe54",
      "assetIds": [
        "41506478881403507969696680653240014914910929820314476107906210059990431967235",
        "41506478881403507969696680653240014914910929820314476107906210059990431967236"
      ]
    },
    {
      "x": 400,
      "y": 326,
      "size": 1,
      "price": "2106000000000000000000",
      "reserved": "",
      "salt": "0xa2c7321ea904bc2eff074fd18c9b6dc521da7f730d6a76f223b1039cb5561b83",
      "assetIds": [
        "41506478881403507969696680653240014914910929820314476107906210059990431967232",
        "41506478881403507969696680653240014914910929820314476107906210059990431967233"
      ]
    },
    {
      "x": 400,
      "y": 325,
      "size": 1,
      "price": "2106000000000000000000",
      "reserved": "",
      "salt": "0x9848a0da4ce874ae568a26baa76d1c91da5c027dce0a68d429c635246abe29d2",
      "assetIds": [
        "41506478881403507969696680653240014914910929820314476107906210059990431967235",
        "41506478881403507969696680653240014914910929820314476107906210059990431967236"
      ]
    },
    {
      "x": 402,
      "y": 326,
      "size": 1,
      "price": "2106000000000000000000",
      "reserved": "",
      "salt": "0xede52831c0d6dd2df7ea0afccbc28f9082590d9c78309aaa954a6573d5266731",
      "assetIds": [
        "41506478881403507969696680653240014914910929820314476107906210059990431967235",
        "41506478881403507969696680653240014914910929820314476107906210059990431967236"
      ]
    },
    {
      "x": 401,
      "y": 326,
      "size": 1,
      "price": "2106000000000000000000",
      "reserved": "",
      "salt": "0xd9566bf8f40c5b8208409b6a96a45a49a3a842f6bb9d97d75410631e9674c35f",
      "assetIds": [
        "41506478881403507969696680653240014914910929820314476107906210059990431967233",
        "41506478881403507969696680653240014914910929820314476107906210059990431967234"
      ]
    },
    {
      "x": 404,
      "y": 330,
      "size": 1,
      "price": "2106000000000000000000",
      "reserved": "",
      "salt": "0x10fb82752c71c621c4d1ea179d5eb6597fabba2301cedd627743620f820462b2",
      "assetIds": [
        "41506478881403507969696680653240014914910929820314476107906210059990431967232",
        "41506478881403507969696680653240014914910929820314476107906210059990431967233"
      ]
    },
    {
      "x": 404,
      "y": 331,
      "size": 1,
      "price": "2106000000000000000000",
      "reserved": "",
      "salt": "0x98faf877df27285d6c08ea557641f99dd7b3b61a4a15258fcae2b4191e780829",
      "assetIds": [
        "41506478881403507969696680653240014914910929820314476107906210059990431967235",
        "41506478881403507969696680653240014914910929820314476107906210059990431967236"
      ]
    },
    {
      "x": 403,
      "y": 331,
      "size": 1,
      "price": "2106000000000000000000",
      "reserved": "",
      "salt": "0x12a590313ee51522214fedd026137d4c2996ace4ffde0507d85cd452a0f85fe0",
      "assetIds": [
        "41506478881403507969696680653240014914910929820314476107906210059990431967232",
        "41506478881403507969696680653240014914910929820314476107906210059990431967233"
      ]
    },
    {
      "x": 403,
      "y": 330,
      "size": 1,
      "price": "2106000000000000000000",
      "reserved": "",
      "salt": "0x72a878003cf3a940c08fca06e91387422d267fc0126c7bbbc9dff44c94ea47f8",
      "assetIds": [
        "41506478881403507969696680653240014914910929820314476107906210059990431967232",
        "41506478881403507969696680653240014914910929820314476107906210059990431967233"
      ]
    },
    {
      "x": 402,
      "y": 329,
      "size": 1,
      "price": "2106000000000000000000",
      "reserved": "",
      "salt": "0x0b7049a6d93e8ab41a62205d36458713aee5725e27eceadb568c550494727c1f",
      "assetIds": [
        "41506478881403507969696680653240014914910929820314476107906210059990431967234",
        "41506478881403507969696680653240014914910929820314476107906210059990431967235"
      ]
    },
    {
      "x": 402,
      "y": 328,
      "size": 1,
      "price": "2106000000000000000000",
      "reserved": "",
      "salt": "0xaf63c88d1a27e2975e54eee3f27b8d362f3c4166e99dc48b479430e535d86e88",
      "assetIds": [
        "41506478881403507969696680653240014914910929820314476107906210059990431967234",
        "41506478881403507969696680653240014914910929820314476107906210059990431967235"
      ]
    },
    {
      "x": 403,
      "y": 328,
      "size": 1,
      "price": "2106000000000000000000",
      "reserved": "",
      "salt": "0x9024f70d2fd6dfd95f885266534a3acc5d4b0111023a3fe480527cc691eb88d3",
      "assetIds": [
        "41506478881403507969696680653240014914910929820314476107906210059990431967235",
        "41506478881403507969696680653240014914910929820314476107906210059990431967236"
      ]
    },
    {
      "x": 403,
      "y": 329,
      "size": 1,
      "price": "2106000000000000000000",
      "reserved": "",
      "salt": "0xd80a90a3e34aa5ee4cb007cacba33d530702a29c6c6e295efb846a274ff6c8b2",
      "assetIds": [
        "41506478881403507969696680653240014914910929820314476107906210059990431967234",
        "41506478881403507969696680653240014914910929820314476107906210059990431967235"
      ]
    },
    {
      "x": 404,
      "y": 328,
      "size": 1,
      "price": "2106000000000000000000",
      "reserved": "",
      "salt": "0x4bc776e7b72c3c5782ebdd805ce9e3d996e007e8ed5af0c475c1b5c43d3d0083",
      "assetIds": [
        "41506478881403507969696680653240014914910929820314476107906210059990431967234",
        "41506478881403507969696680653240014914910929820314476107906210059990431967235"
      ]
    },
    {
      "x": 404,
      "y": 329,
      "size": 1,
      "price": "2106000000000000000000",
      "reserved": "",
      "salt": "0x678c1bf57fd5e66563beddd87d2133dfaadab01bac21ebdf3ccbee548bbf8428",
      "assetIds": [
        "41506478881403507969696680653240014914910929820314476107906210059990431967235",
        "41506478881403507969696680653240014914910929820314476107906210059990431967236"
      ]
    },
    {
      "x": 402,
      "y": 330,
      "size": 1,
      "price": "2106000000000000000000",
      "reserved": "",
      "salt": "0xc51b4aec390154e74c1ad9ef35f9ff323ba49ecba216a0d75c6163ce392a8e47",
      "assetIds": [
        "41506478881403507969696680653240014914910929820314476107906210059990431967234",
        "41506478881403507969696680653240014914910929820314476107906210059990431967235"
      ]
    },
    {
      "x": 402,
      "y": 331,
      "size": 1,
      "price": "2106000000000000000000",
      "reserved": "",
      "salt": "0x34636071db778ea4a641c28432969f8fa43d28ccd470bda214be7017911efc58",
      "assetIds": [
        "41506478881403507969696680653240014914910929820314476107906210059990431967234",
        "41506478881403507969696680653240014914910929820314476107906210059990431967235"
      ]
    },
    {
      "x": 402,
      "y": 332,
      "size": 1,
      "price": "2106000000000000000000",
      "reserved": "",
      "salt": "0xc1f68268997cc72c3b94b0c6bbfa3f160c745fca1995682ddf15a784ab9820c8",
      "assetIds": [
        "41506478881403507969696680653240014914910929820314476107906210059990431967235",
        "41506478881403507969696680653240014914910929820314476107906210059990431967236"
      ]
    },
    {
      "x": 402,
      "y": 333,
      "size": 1,
      "price": "2106000000000000000000",
      "reserved": "",
      "salt": "0xda14670cfe1bb9c6c8cabd8cecf5f247cf6d470c7906789c494434897be0f1b2",
      "assetIds": [
        "41506478881403507969696680653240014914910929820314476107906210059990431967234",
        "41506478881403507969696680653240014914910929820314476107906210059990431967235"
      ]
    },
    {
      "x": 401,
      "y": 333,
      "size": 1,
      "price": "2106000000000000000000",
      "reserved": "",
      "salt": "0xd27b9c382c9dafb74f1a91a38f2ea85af8c84436945513e7c1d93568cf1af453",
      "assetIds": [
        "41506478881403507969696680653240014914910929820314476107906210059990431967234",
        "41506478881403507969696680653240014914910929820314476107906210059990431967235"
      ]
    },
    {
      "x": 401,
      "y": 334,
      "size": 1,
      "price": "2106000000000000000000",
      "reserved": "",
      "salt": "0x9d1bedea56c2aafa0bb0692e27fbaf48cdac5c6b9fb44e2900415f8c4f962e92",
      "assetIds": [
        "41506478881403507969696680653240014914910929820314476107906210059990431967233",
        "41506478881403507969696680653240014914910929820314476107906210059990431967234"
      ]
    },
    {
      "x": 402,
      "y": 334,
      "size": 1,
      "price": "2106000000000000000000",
      "reserved": "",
      "salt": "0xfdc3fc83c2a54b1b2b60e0726c1a7726f726ea0c3ac397feaa8b91f224ced2f1",
      "assetIds": [
        "41506478881403507969696680653240014914910929820314476107906210059990431967232",
        "41506478881403507969696680653240014914910929820314476107906210059990431967233"
      ]
    },
    {
      "x": 403,
      "y": 332,
      "size": 1,
      "price": "2106000000000000000000",
      "reserved": "",
      "salt": "0x9381233a35c1d6b58073548f2db4fba09cbb6a11a3550ea791e0591fa70d1ed3",
      "assetIds": [
        "41506478881403507969696680653240014914910929820314476107906210059990431967235",
        "41506478881403507969696680653240014914910929820314476107906210059990431967236"
      ]
    },
    {
      "x": 401,
      "y": 331,
      "size": 1,
      "price": "2106000000000000000000",
      "reserved": "",
      "salt": "0x3520289c5c8471b9978bd6ad806de940df8aa4fbf384203d166148b5ec97faf4",
      "assetIds": [
        "41506478881403507969696680653240014914910929820314476107906210059990431967233",
        "41506478881403507969696680653240014914910929820314476107906210059990431967234"
      ]
    },
    {
      "x": 400,
      "y": 331,
      "size": 1,
      "price": "2106000000000000000000",
      "reserved": "",
      "salt": "0x61e092ec3385ef583193e07885a496a8118ba03b8cfedeae9eb12ee33068dfdd",
      "assetIds": [
        "41506478881403507969696680653240014914910929820314476107906210059990431967232",
        "41506478881403507969696680653240014914910929820314476107906210059990431967233"
      ]
    },
    {
      "x": 401,
      "y": 330,
      "size": 1,
      "price": "2106000000000000000000",
      "reserved": "",
      "salt": "0xda43e5e20a422503e4c90b615b472bd6d496b7c1e941b8ba382cba95106c018a",
      "assetIds": [
        "41506478881403507969696680653240014914910929820314476107906210059990431967233",
        "41506478881403507969696680653240014914910929820314476107906210059990431967234"
      ]
    },
    {
      "x": 401,
      "y": 332,
      "size": 1,
      "price": "2106000000000000000000",
      "reserved": "",
      "salt": "0x17844089fd29aa75be8dc70ee86dc3cbcf1212515c96c5fd7dd806f8ef5c485f",
      "assetIds": [
        "41506478881403507969696680653240014914910929820314476107906210059990431967232",
        "41506478881403507969696680653240014914910929820314476107906210059990431967233"
      ]
    },
    {
      "x": 400,
      "y": 332,
      "size": 1,
      "price": "2106000000000000000000",
      "reserved": "",
      "salt": "0x013d2e3bb7b54188587cb0f807c3457de60262f3b86842e15e9faf9ccc35dc90",
      "assetIds": [
        "41506478881403507969696680653240014914910929820314476107906210059990431967232",
        "41506478881403507969696680653240014914910929820314476107906210059990431967233"
      ]
    },
    {
      "x": 400,
      "y": 330,
      "size": 1,
      "price": "2106000000000000000000",
      "reserved": "",
      "salt": "0x6587e817954476735b051d945520c14e29462813e3832447c57ba104cd3eaa98",
      "assetIds": [
        "41506478881403507969696680653240014914910929820314476107906210059990431967232",
        "41506478881403507969696680653240014914910929820314476107906210059990431967233"
      ]
    },
    {
      "x": 406,
      "y": 324,
      "size": 1,
      "price": "2106000000000000000000",
      "reserved": "",
      "salt": "0x72c86ce0d76587e42e0b0e6454a28e3f4778d754316c41f745a134b7591bbd54",
      "assetIds": [
        "41506478881403507969696680653240014914910929820314476107906210059990431967232",
        "41506478881403507969696680653240014914910929820314476107906210059990431967233"
      ]
    },
    {
      "x": 407,
      "y": 324,
      "size": 1,
      "price": "2106000000000000000000",
      "reserved": "",
      "salt": "0x52e5ee0832bfb8848bb5891fed468eb509a292b907edf596d4eac4cb041725bf",
      "assetIds": [
        "41506478881403507969696680653240014914910929820314476107906210059990431967233",
        "41506478881403507969696680653240014914910929820314476107906210059990431967234"
      ]
    },
    {
      "x": 407,
      "y": 325,
      "size": 1,
      "price": "2106000000000000000000",
      "reserved": "",
      "salt": "0x4a9d5eea7292383190d4a34765ad9cd9721afe257f1f7e45f9db83473aaf8164",
      "assetIds": [
        "41506478881403507969696680653240014914910929820314476107906210059990431967234",
        "41506478881403507969696680653240014914910929820314476107906210059990431967235"
      ]
    },
    {
      "x": 407,
      "y": 326,
      "size": 1,
      "price": "2106000000000000000000",
      "reserved": "",
      "salt": "0x340778f5530b3f2026e9fed25c3823ca702f5668df788f2d82eeb7e54701983b",
      "assetIds": [
        "41506478881403507969696680653240014914910929820314476107906210059990431967234",
        "41506478881403507969696680653240014914910929820314476107906210059990431967235"
      ]
    },
    {
      "x": 407,
      "y": 327,
      "size": 1,
      "price": "2106000000000000000000",
      "reserved": "",
      "salt": "0x49088744403f975a020e37d61d290f4ef7730fee0adbd1eaa03525c32fb50be1",
      "assetIds": [
        "41506478881403507969696680653240014914910929820314476107906210059990431967235",
        "41506478881403507969696680653240014914910929820314476107906210059990431967236"
      ]
    },
    {
      "x": 407,
      "y": 328,
      "size": 1,
      "price": "2106000000000000000000",
      "reserved": "",
      "salt": "0x01f78af86689ca1a088edbef0d793c961df80e338f734366ae6fd152e4ea570e",
      "assetIds": [
        "41506478881403507969696680653240014914910929820314476107906210059990431967235",
        "41506478881403507969696680653240014914910929820314476107906210059990431967236"
      ]
    },
    {
      "x": 407,
      "y": 329,
      "size": 1,
      "price": "2106000000000000000000",
      "reserved": "",
      "salt": "0xa0a3ae988126fab86ef0f966ad430e1e9a268ae380c9ac3a70ba110447b27643",
      "assetIds": [
        "41506478881403507969696680653240014914910929820314476107906210059990431967235",
        "41506478881403507969696680653240014914910929820314476107906210059990431967236"
      ]
    },
    {
      "x": 407,
      "y": 330,
      "size": 1,
      "price": "2106000000000000000000",
      "reserved": "",
      "salt": "0x465247a3fdf6cac9fb87c4c07f5a5fa536ef6a6a62602e58807f3b6409c0e21e",
      "assetIds": [
        "41506478881403507969696680653240014914910929820314476107906210059990431967232",
        "41506478881403507969696680653240014914910929820314476107906210059990431967233"
      ]
    },
    {
      "x": 406,
      "y": 330,
      "size": 1,
      "price": "2106000000000000000000",
      "reserved": "",
      "salt": "0xa04736340c10c8e71b28d996c14010939e8f91253a08b0e6df15ebcfe71520d5",
      "assetIds": [
        "41506478881403507969696680653240014914910929820314476107906210059990431967232",
        "41506478881403507969696680653240014914910929820314476107906210059990431967233"
      ]
    },
    {
      "x": 406,
      "y": 331,
      "size": 1,
      "price": "2106000000000000000000",
      "reserved": "",
      "salt": "0xe3dfc3226df1ab52185b127a9a3805a6cb1374d7ea53357fb03691b13aded4b6",
      "assetIds": [
        "41506478881403507969696680653240014914910929820314476107906210059990431967232",
        "41506478881403507969696680653240014914910929820314476107906210059990431967233"
      ]
    },
    {
      "x": 406,
      "y": 332,
      "size": 1,
      "price": "2106000000000000000000",
      "reserved": "",
      "salt": "0x245e7075d9adc7f15088f09e5c3e4fdb1fc481ecb150bbfd3db5814341620623",
      "assetIds": [
        "41506478881403507969696680653240014914910929820314476107906210059990431967232",
        "41506478881403507969696680653240014914910929820314476107906210059990431967233"
      ]
    },
    {
      "x": 406,
      "y": 333,
      "size": 1,
      "price": "2106000000000000000000",
      "reserved": "",
      "salt": "0x966129aa2dd4a2d92726259403c9af15a3622d5378d44fa0d93a09799376aa08",
      "assetIds": [
        "41506478881403507969696680653240014914910929820314476107906210059990431967233",
        "41506478881403507969696680653240014914910929820314476107906210059990431967234"
      ]
    },
    {
      "x": 406,
      "y": 334,
      "size": 1,
      "price": "2106000000000000000000",
      "reserved": "",
      "salt": "0x6e9255615c9888f60cf64d853cc094cd851170311e10a0739935b9eea191458a",
      "assetIds": [
        "41506478881403507969696680653240014914910929820314476107906210059990431967233",
        "41506478881403507969696680653240014914910929820314476107906210059990431967234"
      ]
    },
    {
      "x": 407,
      "y": 334,
      "size": 1,
      "price": "2106000000000000000000",
      "reserved": "",
      "salt": "0x421b971ae04a3a4c02c4de1a0a2c4e5f7ef33470da34a7d0fb07c8cf8c0ac8bb",
      "assetIds": [
        "41506478881403507969696680653240014914910929820314476107906210059990431967235",
        "41506478881403507969696680653240014914910929820314476107906210059990431967236"
      ]
    },
    {
      "x": 407,
      "y": 335,
      "size": 1,
      "price": "2106000000000000000000",
      "reserved": "",
      "salt": "0x107e2d9fce94408b728754445962acb04e18a4f4a53f41d4df8ca1efdf099bc0",
      "assetIds": [
        "41506478881403507969696680653240014914910929820314476107906210059990431967234",
        "41506478881403507969696680653240014914910929820314476107906210059990431967235"
      ]
    },
    {
      "x": 407,
      "y": 333,
      "size": 1,
      "price": "2106000000000000000000",
      "reserved": "",
      "salt": "0x3449d263214836c4a2715a8210c3e2fa5df67bc72fe8eed2a20d3b2ee37213aa",
      "assetIds": [
        "41506478881403507969696680653240014914910929820314476107906210059990431967234",
        "41506478881403507969696680653240014914910929820314476107906210059990431967235"
      ]
    },
    {
      "x": 407,
      "y": 332,
      "size": 1,
      "price": "2106000000000000000000",
      "reserved": "",
      "salt": "0x4b98d2631f07e495327dc58c4d69ae8b06a4db43a54cc10d49f375fdfa9944b5",
      "assetIds": [
        "41506478881403507969696680653240014914910929820314476107906210059990431967235",
        "41506478881403507969696680653240014914910929820314476107906210059990431967236"
      ]
    },
    {
      "x": 407,
      "y": 331,
      "size": 1,
      "price": "2106000000000000000000",
      "reserved": "",
      "salt": "0xe9fa3c2a440be61e9ebd1d20ba0518939dd16dde2392c8287fbaea581f393c23",
      "assetIds": [
        "41506478881403507969696680653240014914910929820314476107906210059990431967232",
        "41506478881403507969696680653240014914910929820314476107906210059990431967233"
      ]
    },
    {
      "x": 406,
      "y": 327,
      "size": 1,
      "price": "2106000000000000000000",
      "reserved": "",
      "salt": "0xa5b9456c6949b44d66b952a6c7be608cf062c2bda72f599028dcad561072e106",
      "assetIds": [
        "41506478881403507969696680653240014914910929820314476107906210059990431967233",
        "41506478881403507969696680653240014914910929820314476107906210059990431967234"
      ]
    },
    {
      "x": 406,
      "y": 326,
      "size": 1,
      "price": "2106000000000000000000",
      "reserved": "",
      "salt": "0x8ce9aa03cf4ea5c2e2f49b1d016c644c28c6b1058cabc06a9b3006e9d4c18714",
      "assetIds": [
        "41506478881403507969696680653240014914910929820314476107906210059990431967233",
        "41506478881403507969696680653240014914910929820314476107906210059990431967234"
      ]
    },
    {
      "x": 406,
      "y": 325,
      "size": 1,
      "price": "2106000000000000000000",
      "reserved": "",
      "salt": "0x0ca8736ff9a398a6e301a537bffe7ff38b691c24e24d12418d28e8ad21a52f74",
      "assetIds": [
        "41506478881403507969696680653240014914910929820314476107906210059990431967233",
        "41506478881403507969696680653240014914910929820314476107906210059990431967234"
      ]
    },
    {
      "x": 406,
      "y": 328,
      "size": 1,
      "price": "2106000000000000000000",
      "reserved": "",
      "salt": "0x9d9a984545cb7be1e797be853d5570531227fc9439bcb41d8da75327bf087808",
      "assetIds": [
        "41506478881403507969696680653240014914910929820314476107906210059990431967235",
        "41506478881403507969696680653240014914910929820314476107906210059990431967236"
      ]
    },
    {
      "x": 406,
      "y": 329,
      "size": 1,
      "price": "2106000000000000000000",
      "reserved": "",
      "salt": "0xeb2702d071767da4b9b2e4eb4165f1eb11000c1eb7485f5e5730f073ddebc277",
      "assetIds": [
        "41506478881403507969696680653240014914910929820314476107906210059990431967235",
        "41506478881403507969696680653240014914910929820314476107906210059990431967236"
      ]
    },
    {
      "x": 406,
      "y": 335,
      "size": 1,
      "price": "2106000000000000000000",
      "reserved": "",
      "salt": "0x39b50ec46ff40e398c89c2e40acac8080a18171fe1bb18f9a2955c2f5c38c500",
      "assetIds": [
        "41506478881403507969696680653240014914910929820314476107906210059990431967235",
        "41506478881403507969696680653240014914910929820314476107906210059990431967236"
      ]
    },
    {
      "x": 405,
      "y": 335,
      "size": 1,
      "price": "2106000000000000000000",
      "reserved": "",
      "salt": "0xac39e0a18c9d9da4c4706862062b92c49c0d71a5f86b239a8387e912214db840",
      "assetIds": [
        "41506478881403507969696680653240014914910929820314476107906210059990431967235",
        "41506478881403507969696680653240014914910929820314476107906210059990431967236"
      ]
    },
    {
      "x": 404,
      "y": 335,
      "size": 1,
      "price": "2106000000000000000000",
      "reserved": "",
      "salt": "0x282ab10b63cebb4d2c06bdcfbe3648c113772561be6f02be9a6ef5eb327e34c0",
      "assetIds": [
        "41506478881403507969696680653240014914910929820314476107906210059990431967233",
        "41506478881403507969696680653240014914910929820314476107906210059990431967234"
      ]
    },
    {
      "x": 404,
      "y": 334,
      "size": 1,
      "price": "2106000000000000000000",
      "reserved": "",
      "salt": "0xf4006fc42089458be8dc85ec85495006d53aa0ff99a5643f5cb424925d1f10fb",
      "assetIds": [
        "41506478881403507969696680653240014914910929820314476107906210059990431967234",
        "41506478881403507969696680653240014914910929820314476107906210059990431967235"
      ]
    },
    {
      "x": 405,
      "y": 334,
      "size": 1,
      "price": "2106000000000000000000",
      "reserved": "",
      "salt": "0xbb338fba612f334a2db92c0b5d8ba3619c3545a722985f7b031c0cacc39c7912",
      "assetIds": [
        "41506478881403507969696680653240014914910929820314476107906210059990431967234",
        "41506478881403507969696680653240014914910929820314476107906210059990431967235"
      ]
    },
    {
      "x": 353,
      "y": 312,
      "size": 1,
      "price": "2106000000000000000000",
      "reserved": "",
      "salt": "0x0cbde41e63af2e012380020689600d99e7b4f2124fcefadce10992c000c672b9",
      "assetIds": [
        "41506478881403507969696680653240014914910929820314476107906210059990431967234",
        "41506478881403507969696680653240014914910929820314476107906210059990431967235"
      ]
    },
    {
      "x": 352,
      "y": 312,
      "size": 1,
      "price": "2106000000000000000000",
      "reserved": "",
      "salt": "0xc6b3ad3d8681eafce40e86d823d44cf4461c3edd79cd33570139cad291a81980",
      "assetIds": [
        "41506478881403507969696680653240014914910929820314476107906210059990431967233",
        "41506478881403507969696680653240014914910929820314476107906210059990431967234"
      ]
    },
    {
      "x": 351,
      "y": 312,
      "size": 1,
      "price": "2106000000000000000000",
      "reserved": "",
      "salt": "0xce855b2c7a7d489d0469ccf4cdba28e55521ee91fed40e4ea3ecf1ad34bf298a",
      "assetIds": [
        "41506478881403507969696680653240014914910929820314476107906210059990431967234",
        "41506478881403507969696680653240014914910929820314476107906210059990431967235"
      ]
    },
    {
      "x": 350,
      "y": 312,
      "size": 1,
      "price": "2106000000000000000000",
      "reserved": "",
      "salt": "0xb0e5cf8533caef0a64ee9beaef8996b15b17812a782e619c9aed3c0004aaae80",
      "assetIds": [
        "41506478881403507969696680653240014914910929820314476107906210059990431967232",
        "41506478881403507969696680653240014914910929820314476107906210059990431967233"
      ]
    },
    {
      "x": 349,
      "y": 312,
      "size": 1,
      "price": "2106000000000000000000",
      "reserved": "",
      "salt": "0xc76ea515e8d359f9555dbd9d47354b1b9a065d6dbc10c6032a4b22e529347b09",
      "assetIds": [
        "41506478881403507969696680653240014914910929820314476107906210059990431967235",
        "41506478881403507969696680653240014914910929820314476107906210059990431967236"
      ]
    },
    {
      "x": 348,
      "y": 312,
      "size": 1,
      "price": "2106000000000000000000",
      "reserved": "",
      "salt": "0xabbbf97fdd5598932da488a2939d9d08650d1f040011ae1e988d034f3f689deb",
      "assetIds": [
        "41506478881403507969696680653240014914910929820314476107906210059990431967235",
        "41506478881403507969696680653240014914910929820314476107906210059990431967236"
      ]
    },
    {
      "x": 348,
      "y": 313,
      "size": 1,
      "price": "2106000000000000000000",
      "reserved": "",
      "salt": "0x7602dba76b9abf9df82207f6527b7023371d76053fd77d44abf44ad4f85dacad",
      "assetIds": [
        "41506478881403507969696680653240014914910929820314476107906210059990431967232",
        "41506478881403507969696680653240014914910929820314476107906210059990431967233"
      ]
    },
    {
      "x": 348,
      "y": 314,
      "size": 1,
      "price": "2106000000000000000000",
      "reserved": "",
      "salt": "0x8cbded6c3ff385aede773687fe5c6adaa594b987babdbf9ebc3dc4e958a91f81",
      "assetIds": [
        "41506478881403507969696680653240014914910929820314476107906210059990431967235",
        "41506478881403507969696680653240014914910929820314476107906210059990431967236"
      ]
    },
    {
      "x": 348,
      "y": 315,
      "size": 1,
      "price": "2106000000000000000000",
      "reserved": "",
      "salt": "0xf276e84082a4909619c7f120c56c66b83e62b7a0fff390872632586e856b9dd5",
      "assetIds": [
        "41506478881403507969696680653240014914910929820314476107906210059990431967234",
        "41506478881403507969696680653240014914910929820314476107906210059990431967235"
      ]
    },
    {
      "x": 348,
      "y": 316,
      "size": 1,
      "price": "2106000000000000000000",
      "reserved": "",
      "salt": "0xe119a9b1d860f871d8c9bcc5676d24d974fbbceee576e62fd772add1c69d1171",
      "assetIds": [
        "41506478881403507969696680653240014914910929820314476107906210059990431967233",
        "41506478881403507969696680653240014914910929820314476107906210059990431967234"
      ]
    },
    {
      "x": 349,
      "y": 316,
      "size": 1,
      "price": "2106000000000000000000",
      "reserved": "",
      "salt": "0x09d66388b6d2f6cc28ec348cd6f87e375e0f66adf78b010f2f25eb9de1b532c5",
      "assetIds": [
        "41506478881403507969696680653240014914910929820314476107906210059990431967235",
        "41506478881403507969696680653240014914910929820314476107906210059990431967236"
      ]
    },
    {
      "x": 349,
      "y": 317,
      "size": 1,
      "price": "2106000000000000000000",
      "reserved": "",
      "salt": "0x6490580033cf6c65a3af5bf26f01dca54fd7fbe4d45ae4f844f89f5ec187e0fe",
      "assetIds": [
        "41506478881403507969696680653240014914910929820314476107906210059990431967235",
        "41506478881403507969696680653240014914910929820314476107906210059990431967236"
      ]
    },
    {
      "x": 349,
      "y": 318,
      "size": 1,
      "price": "2106000000000000000000",
      "reserved": "",
      "salt": "0x5cb9aaff2270d2a6f8fca728452fd84fbb69d431bfbf08ccbd4a6b612cb3c41e",
      "assetIds": [
        "41506478881403507969696680653240014914910929820314476107906210059990431967235",
        "41506478881403507969696680653240014914910929820314476107906210059990431967236"
      ]
    },
    {
      "x": 349,
      "y": 319,
      "size": 1,
      "price": "2106000000000000000000",
      "reserved": "",
      "salt": "0x84d49517cef2d678d4fdbc31315d4d4ad7f0741ddafe8c20cac8898c6ff5f4c6",
      "assetIds": [
        "41506478881403507969696680653240014914910929820314476107906210059990431967232",
        "41506478881403507969696680653240014914910929820314476107906210059990431967233"
      ]
    },
    {
      "x": 349,
      "y": 320,
      "size": 1,
      "price": "2106000000000000000000",
      "reserved": "",
      "salt": "0xde95ec9cb9cf4125eeb533261077390f292fa88952698fa4e2e85841fb16930a",
      "assetIds": [
        "41506478881403507969696680653240014914910929820314476107906210059990431967233",
        "41506478881403507969696680653240014914910929820314476107906210059990431967234"
      ]
    },
    {
      "x": 349,
      "y": 321,
      "size": 1,
      "price": "2106000000000000000000",
      "reserved": "",
      "salt": "0x1883e071daa0f9c205f08cc4530eed49c218a51a13c91f022d3fafa2cc1626ee",
      "assetIds": [
        "41506478881403507969696680653240014914910929820314476107906210059990431967234",
        "41506478881403507969696680653240014914910929820314476107906210059990431967235"
      ]
    },
    {
      "x": 349,
      "y": 322,
      "size": 1,
      "price": "2106000000000000000000",
      "reserved": "",
      "salt": "0xa260596f7ee725dafa6fb5a1f313d960c21b61c7c5cc6906974c1564cf033524",
      "assetIds": [
        "41506478881403507969696680653240014914910929820314476107906210059990431967233",
        "41506478881403507969696680653240014914910929820314476107906210059990431967234"
      ]
    },
    {
      "x": 349,
      "y": 323,
      "size": 1,
      "price": "2106000000000000000000",
      "reserved": "",
      "salt": "0x7f06f62bbda66d5697b778fbf2f150499c05a458b019575287191955c7aeffcf",
      "assetIds": [
        "41506478881403507969696680653240014914910929820314476107906210059990431967234",
        "41506478881403507969696680653240014914910929820314476107906210059990431967235"
      ]
    },
    {
      "x": 349,
      "y": 325,
      "size": 1,
      "price": "2106000000000000000000",
      "reserved": "",
      "salt": "0xeb7cf8381610ddb42423f067e9d7edc6ad742420c1086dfe543bab39efcca3e2",
      "assetIds": [
        "41506478881403507969696680653240014914910929820314476107906210059990431967235",
        "41506478881403507969696680653240014914910929820314476107906210059990431967236"
      ]
    },
    {
      "x": 349,
      "y": 326,
      "size": 1,
      "price": "2106000000000000000000",
      "reserved": "",
      "salt": "0xab53d594602b6669789cd71997ddcf67dea56e869dfcc50584d2d213d9fac6ad",
      "assetIds": [
        "41506478881403507969696680653240014914910929820314476107906210059990431967233",
        "41506478881403507969696680653240014914910929820314476107906210059990431967234"
      ]
    },
    {
      "x": 349,
      "y": 327,
      "size": 1,
      "price": "2106000000000000000000",
      "reserved": "",
      "salt": "0x7aeea7f6b6d1d45dc3a3f42081f3ba9ecfc6bd4f5421df805cfdbd3cbbb15f1e",
      "assetIds": [
        "41506478881403507969696680653240014914910929820314476107906210059990431967235",
        "41506478881403507969696680653240014914910929820314476107906210059990431967236"
      ]
    },
    {
      "x": 348,
      "y": 326,
      "size": 1,
      "price": "2106000000000000000000",
      "reserved": "",
      "salt": "0x351f4b5059013f0a7b531ca272a09f066ab7a44b24e324685ae1887c8c69d3bc",
      "assetIds": [
        "41506478881403507969696680653240014914910929820314476107906210059990431967235",
        "41506478881403507969696680653240014914910929820314476107906210059990431967236"
      ]
    },
    {
      "x": 348,
      "y": 325,
      "size": 1,
      "price": "2106000000000000000000",
      "reserved": "",
      "salt": "0x4670f0e8e86dec01e22c1471d8f6aefea19640f218a3baa9b549dd742c61d41e",
      "assetIds": [
        "41506478881403507969696680653240014914910929820314476107906210059990431967233",
        "41506478881403507969696680653240014914910929820314476107906210059990431967234"
      ]
    },
    {
      "x": 348,
      "y": 324,
      "size": 1,
      "price": "2106000000000000000000",
      "reserved": "",
      "salt": "0x99baa952b872c0bb0743debc9c3723c35e8d51ffc21c0dbb448014bc9e33f5b7",
      "assetIds": [
        "41506478881403507969696680653240014914910929820314476107906210059990431967232",
        "41506478881403507969696680653240014914910929820314476107906210059990431967233"
      ]
    },
    {
      "x": 348,
      "y": 323,
      "size": 1,
      "price": "2106000000000000000000",
      "reserved": "",
      "salt": "0x7298e7fe3b312228ec3834f5d9e69f52290194406c327678487e8f1358fdf9e9",
      "assetIds": [
        "41506478881403507969696680653240014914910929820314476107906210059990431967234",
        "41506478881403507969696680653240014914910929820314476107906210059990431967235"
      ]
    },
    {
      "x": 348,
      "y": 322,
      "size": 1,
      "price": "2106000000000000000000",
      "reserved": "",
      "salt": "0xe6c5237c7c66e1af4d64ae8a80c08bc4e63901cc9d594e18ebaa658e07b9ef51",
      "assetIds": [
        "41506478881403507969696680653240014914910929820314476107906210059990431967235",
        "41506478881403507969696680653240014914910929820314476107906210059990431967236"
      ]
    },
    {
      "x": 348,
      "y": 321,
      "size": 1,
      "price": "2106000000000000000000",
      "reserved": "",
      "salt": "0xeb1c12a8f4d5dbdc93ae41983d7f741daecb9bd77f5ebffd8ea43245f7bfbd45",
      "assetIds": [
        "41506478881403507969696680653240014914910929820314476107906210059990431967232",
        "41506478881403507969696680653240014914910929820314476107906210059990431967233"
      ]
    },
    {
      "x": 348,
      "y": 320,
      "size": 1,
      "price": "2106000000000000000000",
      "reserved": "",
      "salt": "0x00483f2d95ac4cd1dfc2ec6255c8b331221714e72242e029bec9fec57f93c2c8",
      "assetIds": [
        "41506478881403507969696680653240014914910929820314476107906210059990431967233",
        "41506478881403507969696680653240014914910929820314476107906210059990431967234"
      ]
    },
    {
      "x": 348,
      "y": 319,
      "size": 1,
      "price": "2106000000000000000000",
      "reserved": "",
      "salt": "0x5fef799d659e4414af34e1357e20f7136ea319cf95c429a69045e086ae55a75b",
      "assetIds": [
        "41506478881403507969696680653240014914910929820314476107906210059990431967232",
        "41506478881403507969696680653240014914910929820314476107906210059990431967233"
      ]
    },
    {
      "x": 348,
      "y": 318,
      "size": 1,
      "price": "2106000000000000000000",
      "reserved": "",
      "salt": "0xb25cdb3527b563738bf58bda4c446629daf76390186ddbdaaf02c9ee685fd048",
      "assetIds": [
        "41506478881403507969696680653240014914910929820314476107906210059990431967232",
        "41506478881403507969696680653240014914910929820314476107906210059990431967233"
      ]
    },
    {
      "x": 348,
      "y": 317,
      "size": 1,
      "price": "2106000000000000000000",
      "reserved": "",
      "salt": "0x35c11fa8f05050945369eddabcc8acd4077d3abdd5ddad1b4bbc7524e8bcd84a",
      "assetIds": [
        "41506478881403507969696680653240014914910929820314476107906210059990431967233",
        "41506478881403507969696680653240014914910929820314476107906210059990431967234"
      ]
    },
    {
      "x": 350,
      "y": 317,
      "size": 1,
      "price": "2106000000000000000000",
      "reserved": "",
      "salt": "0x119ba866cc78f2e57e843d8118b926ba74cac2f1782dedb831940ec706f145fe",
      "assetIds": [
        "41506478881403507969696680653240014914910929820314476107906210059990431967235",
        "41506478881403507969696680653240014914910929820314476107906210059990431967236"
      ]
    },
    {
      "x": 351,
      "y": 317,
      "size": 1,
      "price": "2106000000000000000000",
      "reserved": "",
      "salt": "0xb6a17fdcea1d9771c7b7a87e62ff23c848a21f55c8209726407523b8925f9869",
      "assetIds": [
        "41506478881403507969696680653240014914910929820314476107906210059990431967233",
        "41506478881403507969696680653240014914910929820314476107906210059990431967234"
      ]
    },
    {
      "x": 352,
      "y": 317,
      "size": 1,
      "price": "2106000000000000000000",
      "reserved": "",
      "salt": "0xb7039d60224f6a7a61018d6abb0160eff880ed1fee39bfaec8b8d92ebc30c6ef",
      "assetIds": [
        "41506478881403507969696680653240014914910929820314476107906210059990431967233",
        "41506478881403507969696680653240014914910929820314476107906210059990431967234"
      ]
    },
    {
      "x": 353,
      "y": 317,
      "size": 1,
      "price": "2106000000000000000000",
      "reserved": "",
      "salt": "0x7b418b5d08d34f87bc40a2e033deeee42e9fe10676f14b5ac5c8c879bcbacd86",
      "assetIds": [
        "41506478881403507969696680653240014914910929820314476107906210059990431967235",
        "41506478881403507969696680653240014914910929820314476107906210059990431967236"
      ]
    },
    {
      "x": 353,
      "y": 315,
      "size": 1,
      "price": "2106000000000000000000",
      "reserved": "",
      "salt": "0x2fa7dbd4aa74a34545fdb7113146da8c385528815b265f0d8d9cba087bb68d0f",
      "assetIds": [
        "41506478881403507969696680653240014914910929820314476107906210059990431967233",
        "41506478881403507969696680653240014914910929820314476107906210059990431967234"
      ]
    },
    {
      "x": 352,
      "y": 315,
      "size": 1,
      "price": "2106000000000000000000",
      "reserved": "",
      "salt": "0xeb7810b6b95484dea05cc9f3729c90bcb65eb5e1b4a3caad354b8d43cfd622ab",
      "assetIds": [
        "41506478881403507969696680653240014914910929820314476107906210059990431967234",
        "41506478881403507969696680653240014914910929820314476107906210059990431967235"
      ]
    },
    {
      "x": 351,
      "y": 315,
      "size": 1,
      "price": "2106000000000000000000",
      "reserved": "",
      "salt": "0xdba365c1ab4a86f58d4d9d93cfcfba7e9a5aa809a360b2a63d95244495df9dce",
      "assetIds": [
        "41506478881403507969696680653240014914910929820314476107906210059990431967234",
        "41506478881403507969696680653240014914910929820314476107906210059990431967235"
      ]
    },
    {
      "x": 352,
      "y": 314,
      "size": 1,
      "price": "2106000000000000000000",
      "reserved": "",
      "salt": "0xa30dfded1283e91614487ba5db3ee65e7bea7dec1dc3d111054c0653b072af45",
      "assetIds": [
        "41506478881403507969696680653240014914910929820314476107906210059990431967234",
        "41506478881403507969696680653240014914910929820314476107906210059990431967235"
      ]
    },
    {
      "x": 353,
      "y": 314,
      "size": 1,
      "price": "2106000000000000000000",
      "reserved": "",
      "salt": "0xfcc37b5d093de518cb3c8a8bdf41683ca720bc2a3ebf961c89bddbe0265a9b07",
      "assetIds": [
        "41506478881403507969696680653240014914910929820314476107906210059990431967234",
        "41506478881403507969696680653240014914910929820314476107906210059990431967235"
      ]
    },
    {
      "x": 353,
      "y": 313,
      "size": 1,
      "price": "2106000000000000000000",
      "reserved": "",
      "salt": "0xaac1b7098156fd89b33b8c5099f13605a44757248e349db417653e13e8583da7",
      "assetIds": [
        "41506478881403507969696680653240014914910929820314476107906210059990431967235",
        "41506478881403507969696680653240014914910929820314476107906210059990431967236"
      ]
    },
    {
      "x": 349,
      "y": 313,
      "size": 1,
      "price": "2106000000000000000000",
      "reserved": "",
      "salt": "0x5c33925e8ac325db3ffabd687728dd13a2060def8a105d18667c346e4814ff2d",
      "assetIds": [
        "41506478881403507969696680653240014914910929820314476107906210059990431967235",
        "41506478881403507969696680653240014914910929820314476107906210059990431967236"
      ]
    },
    {
      "x": 350,
      "y": 313,
      "size": 1,
      "price": "2106000000000000000000",
      "reserved": "",
      "salt": "0x5fde0953c346a0391ef8a9337864d5ac9b3eb7401c94754c92deae065d1c1636",
      "assetIds": [
        "41506478881403507969696680653240014914910929820314476107906210059990431967235",
        "41506478881403507969696680653240014914910929820314476107906210059990431967236"
      ]
    },
    {
      "x": 351,
      "y": 313,
      "size": 1,
      "price": "2106000000000000000000",
      "reserved": "",
      "salt": "0x61257650470c8d34a916f31eb3b62759c725f943c82de36e5c7b0b7a63fcfc03",
      "assetIds": [
        "41506478881403507969696680653240014914910929820314476107906210059990431967232",
        "41506478881403507969696680653240014914910929820314476107906210059990431967233"
      ]
    },
    {
      "x": 352,
      "y": 313,
      "size": 1,
      "price": "2106000000000000000000",
      "reserved": "",
      "salt": "0x3b39a8fc744b6310f57a231c8e6d5b8b3c9320711a963a8103d2efe1d80929d5",
      "assetIds": [
        "41506478881403507969696680653240014914910929820314476107906210059990431967234",
        "41506478881403507969696680653240014914910929820314476107906210059990431967235"
      ]
    },
    {
      "x": 350,
      "y": 314,
      "size": 1,
      "price": "2106000000000000000000",
      "reserved": "",
      "salt": "0xf1978e3def849eea228dd51388415dc8e2a78f35752cc96e7abeefc1d9710f69",
      "assetIds": [
        "41506478881403507969696680653240014914910929820314476107906210059990431967235",
        "41506478881403507969696680653240014914910929820314476107906210059990431967236"
      ]
    },
    {
      "x": 350,
      "y": 315,
      "size": 1,
      "price": "2106000000000000000000",
      "reserved": "",
      "salt": "0x4186653618608ecde3bbaba6681c75ecc941cebf0257b613ceed9c8faf4dc763",
      "assetIds": [
        "41506478881403507969696680653240014914910929820314476107906210059990431967235",
        "41506478881403507969696680653240014914910929820314476107906210059990431967236"
      ]
    },
    {
      "x": 350,
      "y": 316,
      "size": 1,
      "price": "2106000000000000000000",
      "reserved": "",
      "salt": "0x8e5fa59dd22cbb80d272e0944cb57ecb697ce20085909f0d830f584f05f12016",
      "assetIds": [
        "41506478881403507969696680653240014914910929820314476107906210059990431967234",
        "41506478881403507969696680653240014914910929820314476107906210059990431967235"
      ]
    },
    {
      "x": 349,
      "y": 315,
      "size": 1,
      "price": "2106000000000000000000",
      "reserved": "",
      "salt": "0x688c5f413f93e85cb350f9fafebdcbb8aa5a3c8144e8cfd45d03bc2a5b25705f",
      "assetIds": [
        "41506478881403507969696680653240014914910929820314476107906210059990431967235",
        "41506478881403507969696680653240014914910929820314476107906210059990431967236"
      ]
    },
    {
      "x": 349,
      "y": 314,
      "size": 1,
      "price": "2106000000000000000000",
      "reserved": "",
      "salt": "0x5004233be9d187c768c59648cd8f08e8b74ea9fe7a0c2a31d9d7138cfa791455",
      "assetIds": [
        "41506478881403507969696680653240014914910929820314476107906210059990431967233",
        "41506478881403507969696680653240014914910929820314476107906210059990431967234"
      ]
    },
    {
      "x": 351,
      "y": 316,
      "size": 1,
      "price": "2106000000000000000000",
      "reserved": "",
      "salt": "0x82eff5f0913ba43d43f33bead6b560ab90337fa902ef4fd1b1fe41d55aac4680",
      "assetIds": [
        "41506478881403507969696680653240014914910929820314476107906210059990431967235",
        "41506478881403507969696680653240014914910929820314476107906210059990431967236"
      ]
    },
    {
      "x": 352,
      "y": 316,
      "size": 1,
      "price": "2106000000000000000000",
      "reserved": "",
      "salt": "0xd6148934697835b2f554781a31dde465da0924908aacc85e19fdebe2c6443be6",
      "assetIds": [
        "41506478881403507969696680653240014914910929820314476107906210059990431967232",
        "41506478881403507969696680653240014914910929820314476107906210059990431967233"
      ]
    },
    {
      "x": 353,
      "y": 316,
      "size": 1,
      "price": "2106000000000000000000",
      "reserved": "",
      "salt": "0x259bdc9591d0507f4a74e678c478c67fd5009e3419de4c5eaf79118c6ccbfc19",
      "assetIds": [
        "41506478881403507969696680653240014914910929820314476107906210059990431967233",
        "41506478881403507969696680653240014914910929820314476107906210059990431967234"
      ]
    },
    {
      "x": 353,
      "y": 320,
      "size": 1,
      "price": "2106000000000000000000",
      "reserved": "",
      "salt": "0x452041f0976217bb93537b379881beb059f2aa42d30960e5f37db540871aa2e6",
      "assetIds": [
        "41506478881403507969696680653240014914910929820314476107906210059990431967234",
        "41506478881403507969696680653240014914910929820314476107906210059990431967235"
      ]
    },
    {
      "x": 353,
      "y": 319,
      "size": 1,
      "price": "2106000000000000000000",
      "reserved": "",
      "salt": "0x5f382176f195a7237d96f3d3cac5a125592484a254e6480fe1a9a5021669c5bd",
      "assetIds": [
        "41506478881403507969696680653240014914910929820314476107906210059990431967234",
        "41506478881403507969696680653240014914910929820314476107906210059990431967235"
      ]
    },
    {
      "x": 353,
      "y": 318,
      "size": 1,
      "price": "2106000000000000000000",
      "reserved": "",
      "salt": "0xf6a6f1f3687d1433ddef02006b3cf066cf30246ef7a0c41055249d1e78019efc",
      "assetIds": [
        "41506478881403507969696680653240014914910929820314476107906210059990431967235",
        "41506478881403507969696680653240014914910929820314476107906210059990431967236"
      ]
    },
    {
      "x": 353,
      "y": 321,
      "size": 1,
      "price": "2106000000000000000000",
      "reserved": "",
      "salt": "0x3dd83da613c2c66eeda13cb789522bf34f0449f6d5609734c2203f81ea17bd72",
      "assetIds": [
        "41506478881403507969696680653240014914910929820314476107906210059990431967235",
        "41506478881403507969696680653240014914910929820314476107906210059990431967236"
      ]
    },
    {
      "x": 353,
      "y": 322,
      "size": 1,
      "price": "2106000000000000000000",
      "reserved": "",
      "salt": "0x15dcc299ff4dda60548e04998c7eaeaf280151bfb333755596b90ddaed3c75b8",
      "assetIds": [
        "41506478881403507969696680653240014914910929820314476107906210059990431967233",
        "41506478881403507969696680653240014914910929820314476107906210059990431967234"
      ]
    },
    {
      "x": 353,
      "y": 323,
      "size": 1,
      "price": "2106000000000000000000",
      "reserved": "",
      "salt": "0x7a97a1c80b9f846c2c2b2f92cb7b9bf5fd79fd1660bdf7eb25d1bb61163dd817",
      "assetIds": [
        "41506478881403507969696680653240014914910929820314476107906210059990431967234",
        "41506478881403507969696680653240014914910929820314476107906210059990431967235"
      ]
    },
    {
      "x": 352,
      "y": 323,
      "size": 1,
      "price": "2106000000000000000000",
      "reserved": "",
      "salt": "0xee2b555d7b839fe7ec9c436eec19cf0c28198c2737e24fabfb0601d0fdc0fb78",
      "assetIds": [
        "41506478881403507969696680653240014914910929820314476107906210059990431967233",
        "41506478881403507969696680653240014914910929820314476107906210059990431967234"
      ]
    },
    {
      "x": 351,
      "y": 323,
      "size": 1,
      "price": "2106000000000000000000",
      "reserved": "",
      "salt": "0x6402d2098acf0d01a13112b69521710af0002da8d0e63fbfb6240c6693a3aed9",
      "assetIds": [
        "41506478881403507969696680653240014914910929820314476107906210059990431967235",
        "41506478881403507969696680653240014914910929820314476107906210059990431967236"
      ]
    },
    {
      "x": 351,
      "y": 322,
      "size": 1,
      "price": "2106000000000000000000",
      "reserved": "",
      "salt": "0x5c624b5ef0cde1e4200190de1c6013ddc94952e3ed5b97357052d170ec35c311",
      "assetIds": [
        "41506478881403507969696680653240014914910929820314476107906210059990431967235",
        "41506478881403507969696680653240014914910929820314476107906210059990431967236"
      ]
    },
    {
      "x": 350,
      "y": 322,
      "size": 1,
      "price": "2106000000000000000000",
      "reserved": "",
      "salt": "0x22dfbf2216a1f3a00e2e4444a7cb30dcc660e02b7934b4ea1c9077d3c9c4cddf",
      "assetIds": [
        "41506478881403507969696680653240014914910929820314476107906210059990431967234",
        "41506478881403507969696680653240014914910929820314476107906210059990431967235"
      ]
    },
    {
      "x": 350,
      "y": 321,
      "size": 1,
      "price": "2106000000000000000000",
      "reserved": "",
      "salt": "0x943d1374b66d98b79078c8da5b14aeb75643bc8b391883a2f6cd6a94e3089502",
      "assetIds": [
        "41506478881403507969696680653240014914910929820314476107906210059990431967232",
        "41506478881403507969696680653240014914910929820314476107906210059990431967233"
      ]
    },
    {
      "x": 350,
      "y": 320,
      "size": 1,
      "price": "2106000000000000000000",
      "reserved": "",
      "salt": "0x9bd1d3076c14cb515e97612de6004ff6618504ee96c25e3d14656745657dd855",
      "assetIds": [
        "41506478881403507969696680653240014914910929820314476107906210059990431967234",
        "41506478881403507969696680653240014914910929820314476107906210059990431967235"
      ]
    },
    {
      "x": 350,
      "y": 319,
      "size": 1,
      "price": "2106000000000000000000",
      "reserved": "",
      "salt": "0xa4c186a9e07bb8a4e299493288b994417c0f93ff9f70bb3e5700e1d176cda9a8",
      "assetIds": [
        "41506478881403507969696680653240014914910929820314476107906210059990431967234",
        "41506478881403507969696680653240014914910929820314476107906210059990431967235"
      ]
    },
    {
      "x": 351,
      "y": 319,
      "size": 1,
      "price": "2106000000000000000000",
      "reserved": "",
      "salt": "0x9e46604f4d8f4fe75198ef44b1bfb0d9198e0643532ea0039576d2531d924ffc",
      "assetIds": [
        "41506478881403507969696680653240014914910929820314476107906210059990431967234",
        "41506478881403507969696680653240014914910929820314476107906210059990431967235"
      ]
    },
    {
      "x": 351,
      "y": 318,
      "size": 1,
      "price": "2106000000000000000000",
      "reserved": "",
      "salt": "0x2a5c58a643c2fd0a9b03bb21ad8865d7028b958d27b09559603ec49fe6311ee9",
      "assetIds": [
        "41506478881403507969696680653240014914910929820314476107906210059990431967235",
        "41506478881403507969696680653240014914910929820314476107906210059990431967236"
      ]
    },
    {
      "x": 352,
      "y": 318,
      "size": 1,
      "price": "2106000000000000000000",
      "reserved": "",
      "salt": "0x5017e8763f93aa3705248bad0afacc466bfc9136cc58127a2bccff95e06a2dae",
      "assetIds": [
        "41506478881403507969696680653240014914910929820314476107906210059990431967232",
        "41506478881403507969696680653240014914910929820314476107906210059990431967233"
      ]
    },
    {
      "x": 350,
      "y": 318,
      "size": 1,
      "price": "2106000000000000000000",
      "reserved": "",
      "salt": "0xb6762af40dc0be868ccd22f9de4c773daa70c3630dc8391521abe86c7bfdd31c",
      "assetIds": [
        "41506478881403507969696680653240014914910929820314476107906210059990431967232",
        "41506478881403507969696680653240014914910929820314476107906210059990431967233"
      ]
    },
    {
      "x": 352,
      "y": 319,
      "size": 1,
      "price": "2106000000000000000000",
      "reserved": "",
      "salt": "0x9e34d27c71375c13551d3099d4e4fe33839c1e9b97a8c632db7d1597c9ac7193",
      "assetIds": [
        "41506478881403507969696680653240014914910929820314476107906210059990431967232",
        "41506478881403507969696680653240014914910929820314476107906210059990431967233"
      ]
    },
    {
      "x": 352,
      "y": 320,
      "size": 1,
      "price": "2106000000000000000000",
      "reserved": "",
      "salt": "0xc6b0ef4fe0afeadcf2e4ce836ccbedfe97ad7d14eccf6df94d87aeedfd54de31",
      "assetIds": [
        "41506478881403507969696680653240014914910929820314476107906210059990431967234",
        "41506478881403507969696680653240014914910929820314476107906210059990431967235"
      ]
    },
    {
      "x": 351,
      "y": 320,
      "size": 1,
      "price": "2106000000000000000000",
      "reserved": "",
      "salt": "0x49a5599c55e46311c07942f081be731e9bb899486afc96326a54c7917fb486c5",
      "assetIds": [
        "41506478881403507969696680653240014914910929820314476107906210059990431967234",
        "41506478881403507969696680653240014914910929820314476107906210059990431967235"
      ]
    },
    {
      "x": 351,
      "y": 321,
      "size": 1,
      "price": "2106000000000000000000",
      "reserved": "",
      "salt": "0x1391c4492ee6f4200894e25ee451c950d8dd0177932cc6380f59878cbacad986",
      "assetIds": [
        "41506478881403507969696680653240014914910929820314476107906210059990431967233",
        "41506478881403507969696680653240014914910929820314476107906210059990431967234"
      ]
    },
    {
      "x": 352,
      "y": 322,
      "size": 1,
      "price": "2106000000000000000000",
      "reserved": "",
      "salt": "0xab6ef17715fc59a4a524dc837cf2e00d1bb0747d40dca6dc0a7b6d80d48bfe7d",
      "assetIds": [
        "41506478881403507969696680653240014914910929820314476107906210059990431967233",
        "41506478881403507969696680653240014914910929820314476107906210059990431967234"
      ]
    },
    {
      "x": 353,
      "y": 324,
      "size": 1,
      "price": "2106000000000000000000",
      "reserved": "",
      "salt": "0x65d9528b86f907b6eb3d819f6016ced1737121d0829313e99f0bdcd1aa5d266d",
      "assetIds": [
        "41506478881403507969696680653240014914910929820314476107906210059990431967235",
        "41506478881403507969696680653240014914910929820314476107906210059990431967236"
      ]
    },
    {
      "x": 354,
      "y": 324,
      "size": 1,
      "price": "2106000000000000000000",
      "reserved": "",
      "salt": "0x13de95ac185079ff002666d307aa2a9d820e15ec7f47cb7b08c38b17af671cd7",
      "assetIds": [
        "41506478881403507969696680653240014914910929820314476107906210059990431967232",
        "41506478881403507969696680653240014914910929820314476107906210059990431967233"
      ]
    },
    {
      "x": 354,
      "y": 325,
      "size": 1,
      "price": "2106000000000000000000",
      "reserved": "",
      "salt": "0x7178718d029cf108e5d4a2eae51cf39a2a7cbe202e2cfca0a5957aaeb8f6f940",
      "assetIds": [
        "41506478881403507969696680653240014914910929820314476107906210059990431967234",
        "41506478881403507969696680653240014914910929820314476107906210059990431967235"
      ]
    },
    {
      "x": 354,
      "y": 326,
      "size": 1,
      "price": "2106000000000000000000",
      "reserved": "",
      "salt": "0x0f502bf30794ab3ee7b784adeac956535df70fa6d244804485eb9b07d0123135",
      "assetIds": [
        "41506478881403507969696680653240014914910929820314476107906210059990431967233",
        "41506478881403507969696680653240014914910929820314476107906210059990431967234"
      ]
    },
    {
      "x": 354,
      "y": 327,
      "size": 1,
      "price": "2106000000000000000000",
      "reserved": "",
      "salt": "0x76a2cbc3f30c22fa120e6d2548a47c80f9d87b378778d78ede984514bd00c2c9",
      "assetIds": [
        "41506478881403507969696680653240014914910929820314476107906210059990431967233",
        "41506478881403507969696680653240014914910929820314476107906210059990431967234"
      ]
    },
    {
      "x": 355,
      "y": 327,
      "size": 1,
      "price": "2106000000000000000000",
      "reserved": "",
      "salt": "0xa83e6d1946e95e86d73e5f423457982956ba4abcdcdd5415551bc1162fb4f268",
      "assetIds": [
        "41506478881403507969696680653240014914910929820314476107906210059990431967233",
        "41506478881403507969696680653240014914910929820314476107906210059990431967234"
      ]
    },
    {
      "x": 357,
      "y": 327,
      "size": 1,
      "price": "2106000000000000000000",
      "reserved": "",
      "salt": "0xe53dd28c9410909d0172ecfb2fa479d7dfc6f3e08acf862707972ef5c1c08be6",
      "assetIds": [
        "41506478881403507969696680653240014914910929820314476107906210059990431967235",
        "41506478881403507969696680653240014914910929820314476107906210059990431967236"
      ]
    },
    {
      "x": 358,
      "y": 327,
      "size": 1,
      "price": "2106000000000000000000",
      "reserved": "",
      "salt": "0x573e780bf864634e815eb5de6f6a4d4876fd702ef6866061701c93ab0be67cc2",
      "assetIds": [
        "41506478881403507969696680653240014914910929820314476107906210059990431967235",
        "41506478881403507969696680653240014914910929820314476107906210059990431967236"
      ]
    },
    {
      "x": 359,
      "y": 327,
      "size": 1,
      "price": "2106000000000000000000",
      "reserved": "",
      "salt": "0x6d2e9ce14ec727aed8baed9dbb77e88363d27b7b0613114a707935328f1738d5",
      "assetIds": [
        "41506478881403507969696680653240014914910929820314476107906210059990431967233",
        "41506478881403507969696680653240014914910929820314476107906210059990431967234"
      ]
    },
    {
      "x": 359,
      "y": 326,
      "size": 1,
      "price": "2106000000000000000000",
      "reserved": "",
      "salt": "0x61857604e9fa3d64ec35fe909bde0f55226b147ce543a17b094d9e185c46dbdf",
      "assetIds": [
        "41506478881403507969696680653240014914910929820314476107906210059990431967235",
        "41506478881403507969696680653240014914910929820314476107906210059990431967236"
      ]
    },
    {
      "x": 359,
      "y": 325,
      "size": 1,
      "price": "2106000000000000000000",
      "reserved": "",
      "salt": "0x8988c3034d19de2520fc4d754c0e18706c72d2ac420fc41e015871948afe7d11",
      "assetIds": [
        "41506478881403507969696680653240014914910929820314476107906210059990431967233",
        "41506478881403507969696680653240014914910929820314476107906210059990431967234"
      ]
    },
    {
      "x": 359,
      "y": 324,
      "size": 1,
      "price": "2106000000000000000000",
      "reserved": "",
      "salt": "0x74f7cd23d7d72fde96ac9c5defaa4df065e53643cf2c8aa12d4129ce5c4ba346",
      "assetIds": [
        "41506478881403507969696680653240014914910929820314476107906210059990431967234",
        "41506478881403507969696680653240014914910929820314476107906210059990431967235"
      ]
    },
    {
      "x": 358,
      "y": 324,
      "size": 1,
      "price": "2106000000000000000000",
      "reserved": "",
      "salt": "0x5390c227eddd8aea87ff921dab13e045d769ba5b80850cb10b73d228fd99757d",
      "assetIds": [
        "41506478881403507969696680653240014914910929820314476107906210059990431967234",
        "41506478881403507969696680653240014914910929820314476107906210059990431967235"
      ]
    },
    {
      "x": 357,
      "y": 324,
      "size": 1,
      "price": "2106000000000000000000",
      "reserved": "",
      "salt": "0x0839cd56f03dbf4c6510ded34713ec31e8ae0c3c12f4ae23ef852d7daee4aa19",
      "assetIds": [
        "41506478881403507969696680653240014914910929820314476107906210059990431967232",
        "41506478881403507969696680653240014914910929820314476107906210059990431967233"
      ]
    },
    {
      "x": 356,
      "y": 324,
      "size": 1,
      "price": "2106000000000000000000",
      "reserved": "",
      "salt": "0xc7f4174aaa1dcc60a4af803ea44da64796869464112ee195a55821dfdc808435",
      "assetIds": [
        "41506478881403507969696680653240014914910929820314476107906210059990431967233",
        "41506478881403507969696680653240014914910929820314476107906210059990431967234"
      ]
    },
    {
      "x": 355,
      "y": 324,
      "size": 1,
      "price": "2106000000000000000000",
      "reserved": "",
      "salt": "0xcc18c45aaf08d9ce294c37dacad1e99c7add4c202491d02017d7883bb32dfbaf",
      "assetIds": [
        "41506478881403507969696680653240014914910929820314476107906210059990431967233",
        "41506478881403507969696680653240014914910929820314476107906210059990431967234"
      ]
    },
    {
      "x": 352,
      "y": 324,
      "size": 1,
      "price": "2106000000000000000000",
      "reserved": "",
      "salt": "0xec34048bd78342acfea009c1d4ac87b98177f21e94fe848118bc1c4010b52094",
      "assetIds": [
        "41506478881403507969696680653240014914910929820314476107906210059990431967232",
        "41506478881403507969696680653240014914910929820314476107906210059990431967233"
      ]
    },
    {
      "x": 351,
      "y": 324,
      "size": 1,
      "price": "2106000000000000000000",
      "reserved": "",
      "salt": "0x5fbce488be21d71ef50ae795150574aab37279d5e6a6e9fb51f9f51a901c7e57",
      "assetIds": [
        "41506478881403507969696680653240014914910929820314476107906210059990431967232",
        "41506478881403507969696680653240014914910929820314476107906210059990431967233"
      ]
    },
    {
      "x": 350,
      "y": 324,
      "size": 1,
      "price": "2106000000000000000000",
      "reserved": "",
      "salt": "0xfa27d705819afcc1e55fa198323cfdd3c5c6317916670841436c0d62df359bf8",
      "assetIds": [
        "41506478881403507969696680653240014914910929820314476107906210059990431967233",
        "41506478881403507969696680653240014914910929820314476107906210059990431967234"
      ]
    },
    {
      "x": 350,
      "y": 323,
      "size": 1,
      "price": "2106000000000000000000",
      "reserved": "",
      "salt": "0xe2986e14ca4ebbcb087441bebcb9ac0af58c4eb7319e61c87022963299475425",
      "assetIds": [
        "41506478881403507969696680653240014914910929820314476107906210059990431967233",
        "41506478881403507969696680653240014914910929820314476107906210059990431967234"
      ]
    },
    {
      "x": 350,
      "y": 325,
      "size": 1,
      "price": "2106000000000000000000",
      "reserved": "",
      "salt": "0x14c162e9dc03937ddde82fb3e1b7628704803dc7da4bfecb052bcc6eb0720b85",
      "assetIds": [
        "41506478881403507969696680653240014914910929820314476107906210059990431967235",
        "41506478881403507969696680653240014914910929820314476107906210059990431967236"
      ]
    },
    {
      "x": 350,
      "y": 326,
      "size": 1,
      "price": "2106000000000000000000",
      "reserved": "",
      "salt": "0x7bc992c9b89305c747368cabe0c80de3c1b27bbbaddcb85613b348645ee4f103",
      "assetIds": [
        "41506478881403507969696680653240014914910929820314476107906210059990431967235",
        "41506478881403507969696680653240014914910929820314476107906210059990431967236"
      ]
    },
    {
      "x": 350,
      "y": 327,
      "size": 1,
      "price": "2106000000000000000000",
      "reserved": "",
      "salt": "0x687a827c198faca3a7f89829c1b66f5267e3af9ffc53e5baeecb84bc637c1383",
      "assetIds": [
        "41506478881403507969696680653240014914910929820314476107906210059990431967232",
        "41506478881403507969696680653240014914910929820314476107906210059990431967233"
      ]
    },
    {
      "x": 351,
      "y": 327,
      "size": 1,
      "price": "2106000000000000000000",
      "reserved": "",
      "salt": "0x25979afc351954c85905282694c63413d570c79e24ddda94273478c0b53b8233",
      "assetIds": [
        "41506478881403507969696680653240014914910929820314476107906210059990431967232",
        "41506478881403507969696680653240014914910929820314476107906210059990431967233"
      ]
    },
    {
      "x": 352,
      "y": 327,
      "size": 1,
      "price": "2106000000000000000000",
      "reserved": "",
      "salt": "0x9ac30e5dd650bb8a3ab4ed943226dcd1f049ae020251c867a936e1d0b9c54f07",
      "assetIds": [
        "41506478881403507969696680653240014914910929820314476107906210059990431967232",
        "41506478881403507969696680653240014914910929820314476107906210059990431967233"
      ]
    },
    {
      "x": 353,
      "y": 327,
      "size": 1,
      "price": "2106000000000000000000",
      "reserved": "",
      "salt": "0x8adcc6862de00afb1195a0e03e2091aa71d8f0b7647376da975350309a78d60e",
      "assetIds": [
        "41506478881403507969696680653240014914910929820314476107906210059990431967232",
        "41506478881403507969696680653240014914910929820314476107906210059990431967233"
      ]
    },
    {
      "x": 358,
      "y": 326,
      "size": 1,
      "price": "2106000000000000000000",
      "reserved": "",
      "salt": "0x944939ce9bf0bc96e11f46b95a2f129eac59c4478644ca159bcaae487156509d",
      "assetIds": [
        "41506478881403507969696680653240014914910929820314476107906210059990431967232",
        "41506478881403507969696680653240014914910929820314476107906210059990431967233"
      ]
    },
    {
      "x": 357,
      "y": 326,
      "size": 1,
      "price": "2106000000000000000000",
      "reserved": "",
      "salt": "0xc385054c7f64a0d3e3b658a750e5cbdc7f3f0213967ce927250cd23e4d6e87f8",
      "assetIds": [
        "41506478881403507969696680653240014914910929820314476107906210059990431967232",
        "41506478881403507969696680653240014914910929820314476107906210059990431967233"
      ]
    },
    {
      "x": 356,
      "y": 325,
      "size": 1,
      "price": "2106000000000000000000",
      "reserved": "",
      "salt": "0xbef4ceda83c341b5b9b0b18740f7ae35e56ca01b2b1c493c2385ad01a3495ed9",
      "assetIds": [
        "41506478881403507969696680653240014914910929820314476107906210059990431967232",
        "41506478881403507969696680653240014914910929820314476107906210059990431967233"
      ]
    },
    {
      "x": 355,
      "y": 325,
      "size": 1,
      "price": "2106000000000000000000",
      "reserved": "",
      "salt": "0x8d915fa5f695b9a15eebcb9839cf9c9dbe733f66f6eaee1ca6348fb76f46fe53",
      "assetIds": [
        "41506478881403507969696680653240014914910929820314476107906210059990431967234",
        "41506478881403507969696680653240014914910929820314476107906210059990431967235"
      ]
    },
    {
      "x": 353,
      "y": 325,
      "size": 1,
      "price": "2106000000000000000000",
      "reserved": "",
      "salt": "0xaf211137819363c9eaf90d672d5912af9f7cbf4e676d00b8886c68ffc519caeb",
      "assetIds": [
        "41506478881403507969696680653240014914910929820314476107906210059990431967233",
        "41506478881403507969696680653240014914910929820314476107906210059990431967234"
      ]
    },
    {
      "x": 352,
      "y": 325,
      "size": 1,
      "price": "2106000000000000000000",
      "reserved": "",
      "salt": "0xcad3dbbbab020172f39093797d1adcd42ec65e5d57f048b721abb0045021712a",
      "assetIds": [
        "41506478881403507969696680653240014914910929820314476107906210059990431967234",
        "41506478881403507969696680653240014914910929820314476107906210059990431967235"
      ]
    },
    {
      "x": 351,
      "y": 325,
      "size": 1,
      "price": "2106000000000000000000",
      "reserved": "",
      "salt": "0x1d84294c877aaec682571005ef118381988fd93438f04fa564b854a072cc1995",
      "assetIds": [
        "41506478881403507969696680653240014914910929820314476107906210059990431967235",
        "41506478881403507969696680653240014914910929820314476107906210059990431967236"
      ]
    },
    {
      "x": 351,
      "y": 326,
      "size": 1,
      "price": "2106000000000000000000",
      "reserved": "",
      "salt": "0x572b2902ac2098cb5a311f6a1738246d45047db547909deaa233bbca9ce60db8",
      "assetIds": [
        "41506478881403507969696680653240014914910929820314476107906210059990431967235",
        "41506478881403507969696680653240014914910929820314476107906210059990431967236"
      ]
    },
    {
      "x": 352,
      "y": 326,
      "size": 1,
      "price": "2106000000000000000000",
      "reserved": "",
      "salt": "0x9bad459f9a97c2537993a1b299eedf54210cf12e61721e64b59c01565d69a87b",
      "assetIds": [
        "41506478881403507969696680653240014914910929820314476107906210059990431967235",
        "41506478881403507969696680653240014914910929820314476107906210059990431967236"
      ]
    },
    {
      "x": 353,
      "y": 326,
      "size": 1,
      "price": "2106000000000000000000",
      "reserved": "",
      "salt": "0x769db66489f03732ac8dc61f099393c116f38b0952f7d840a923bd6329d97e60",
      "assetIds": [
        "41506478881403507969696680653240014914910929820314476107906210059990431967233",
        "41506478881403507969696680653240014914910929820314476107906210059990431967234"
      ]
    },
    {
      "x": 355,
      "y": 326,
      "size": 1,
      "price": "2106000000000000000000",
      "reserved": "",
      "salt": "0x2e06c6cec34542ba5fe6bb6d8cdc4166662190570b311ebc089e8f18a436d483",
      "assetIds": [
        "41506478881403507969696680653240014914910929820314476107906210059990431967235",
        "41506478881403507969696680653240014914910929820314476107906210059990431967236"
      ]
    },
    {
      "x": 356,
      "y": 326,
      "size": 1,
      "price": "2106000000000000000000",
      "reserved": "",
      "salt": "0xa172d1d308c26692980fafb6d6e159aa019464a09a53c033f366c2c65e7c40fc",
      "assetIds": [
        "41506478881403507969696680653240014914910929820314476107906210059990431967235",
        "41506478881403507969696680653240014914910929820314476107906210059990431967236"
      ]
    },
    {
      "x": 357,
      "y": 325,
      "size": 1,
      "price": "2106000000000000000000",
      "reserved": "",
      "salt": "0x75e4be8a655a4a7afcf5b2aef2a4f3bd9bb558836b902df1e121531cf0db3d74",
      "assetIds": [
        "41506478881403507969696680653240014914910929820314476107906210059990431967232",
        "41506478881403507969696680653240014914910929820314476107906210059990431967233"
      ]
    },
    {
      "x": 358,
      "y": 325,
      "size": 1,
      "price": "2106000000000000000000",
      "reserved": "",
      "salt": "0x064e31dacf31c7182de58bd5aad6f54ddb5f551acffb6ad0b5e91eedd74b2b20",
      "assetIds": [
        "41506478881403507969696680653240014914910929820314476107906210059990431967233",
        "41506478881403507969696680653240014914910929820314476107906210059990431967234"
      ]
    },
    {
      "x": 350,
      "y": 337,
      "size": 1,
      "price": "2106000000000000000000",
      "reserved": "",
      "salt": "0x601e7371ab585d1accde6a2e36a8a3912ee95c80a3dfabd9b765c3cf9ba24eca",
      "assetIds": [
        "41506478881403507969696680653240014914910929820314476107906210059990431967235",
        "41506478881403507969696680653240014914910929820314476107906210059990431967236"
      ]
    },
    {
      "x": 350,
      "y": 336,
      "size": 1,
      "price": "2106000000000000000000",
      "reserved": "",
      "salt": "0xb2aaed932c2a43781cd51ed20d5106949cd9c41a7af8e31af85dbd107fbb3bb7",
      "assetIds": [
        "41506478881403507969696680653240014914910929820314476107906210059990431967234",
        "41506478881403507969696680653240014914910929820314476107906210059990431967235"
      ]
    },
    {
      "x": 350,
      "y": 335,
      "size": 1,
      "price": "2106000000000000000000",
      "reserved": "",
      "salt": "0x85a4dac2cb4789e28431b6c8556997b4b0fb13f5be9f74037d614100c5d610d8",
      "assetIds": [
        "41506478881403507969696680653240014914910929820314476107906210059990431967235",
        "41506478881403507969696680653240014914910929820314476107906210059990431967236"
      ]
    },
    {
      "x": 350,
      "y": 334,
      "size": 1,
      "price": "2106000000000000000000",
      "reserved": "",
      "salt": "0x0fa2703725245996f2f3e5b2954d61c05d552eb77484dcc1cbec8bb72203d643",
      "assetIds": [
        "41506478881403507969696680653240014914910929820314476107906210059990431967232",
        "41506478881403507969696680653240014914910929820314476107906210059990431967233"
      ]
    },
    {
      "x": 350,
      "y": 333,
      "size": 1,
      "price": "2106000000000000000000",
      "reserved": "",
      "salt": "0x0dbc65a518abd8a39b2304cd74e4f94d751ac74e36240834a5e989b16662a3e5",
      "assetIds": [
        "41506478881403507969696680653240014914910929820314476107906210059990431967235",
        "41506478881403507969696680653240014914910929820314476107906210059990431967236"
      ]
    },
    {
      "x": 351,
      "y": 333,
      "size": 1,
      "price": "2106000000000000000000",
      "reserved": "",
      "salt": "0xec03715bbc47dc9e8026713b2a2b59958bb5f1a3e3defb2e62007104a6c16c86",
      "assetIds": [
        "41506478881403507969696680653240014914910929820314476107906210059990431967235",
        "41506478881403507969696680653240014914910929820314476107906210059990431967236"
      ]
    },
    {
      "x": 351,
      "y": 332,
      "size": 1,
      "price": "2106000000000000000000",
      "reserved": "",
      "salt": "0xc58499e1ae6490bc7482a99b10b89faef9ae20278ecd81a02969144a52c01619",
      "assetIds": [
        "41506478881403507969696680653240014914910929820314476107906210059990431967235",
        "41506478881403507969696680653240014914910929820314476107906210059990431967236"
      ]
    },
    {
      "x": 350,
      "y": 332,
      "size": 1,
      "price": "2106000000000000000000",
      "reserved": "",
      "salt": "0x079ccd4eda650471435f5d04a814031b467fd71ba878c52ea02a89aebb0c4ca8",
      "assetIds": [
        "41506478881403507969696680653240014914910929820314476107906210059990431967235",
        "41506478881403507969696680653240014914910929820314476107906210059990431967236"
      ]
    },
    {
      "x": 351,
      "y": 331,
      "size": 1,
      "price": "2106000000000000000000",
      "reserved": "",
      "salt": "0x16a2c20ecbe3c9d4799ef6005482683644a639b4ec279cf5b89f09713cbea921",
      "assetIds": [
        "41506478881403507969696680653240014914910929820314476107906210059990431967234",
        "41506478881403507969696680653240014914910929820314476107906210059990431967235"
      ]
    },
    {
      "x": 352,
      "y": 331,
      "size": 1,
      "price": "2106000000000000000000",
      "reserved": "",
      "salt": "0xb10923316c1662f94f3fe93028687f12700e1951c732cc6569cdac462c78b600",
      "assetIds": [
        "41506478881403507969696680653240014914910929820314476107906210059990431967232",
        "41506478881403507969696680653240014914910929820314476107906210059990431967233"
      ]
    },
    {
      "x": 353,
      "y": 331,
      "size": 1,
      "price": "2106000000000000000000",
      "reserved": "",
      "salt": "0x0fe887c40586cf75601debb4348eecc3482e44a87d0ddb57b47ae71a6b5775c8",
      "assetIds": [
        "41506478881403507969696680653240014914910929820314476107906210059990431967235",
        "41506478881403507969696680653240014914910929820314476107906210059990431967236"
      ]
    },
    {
      "x": 353,
      "y": 330,
      "size": 1,
      "price": "2106000000000000000000",
      "reserved": "",
      "salt": "0x31deb3cef2f1f186d702307ad96e6c8dc852350720a570e8efd41e87945e3327",
      "assetIds": [
        "41506478881403507969696680653240014914910929820314476107906210059990431967233",
        "41506478881403507969696680653240014914910929820314476107906210059990431967234"
      ]
    },
    {
      "x": 353,
      "y": 329,
      "size": 1,
      "price": "2106000000000000000000",
      "reserved": "",
      "salt": "0xf8279d7605dee6af8029a8f1ee81cc6d1d6867e320d3eec188d02b4e84d2aa28",
      "assetIds": [
        "41506478881403507969696680653240014914910929820314476107906210059990431967232",
        "41506478881403507969696680653240014914910929820314476107906210059990431967233"
      ]
    },
    {
      "x": 353,
      "y": 328,
      "size": 1,
      "price": "2106000000000000000000",
      "reserved": "",
      "salt": "0xc74eae52bff14d85bd24ab187e1f148beb5a62fd7756ab5fbd69295ee88bf2b3",
      "assetIds": [
        "41506478881403507969696680653240014914910929820314476107906210059990431967235",
        "41506478881403507969696680653240014914910929820314476107906210059990431967236"
      ]
    },
    {
      "x": 352,
      "y": 328,
      "size": 1,
      "price": "2106000000000000000000",
      "reserved": "",
      "salt": "0x1fbb37699f7a32778a7c57b5493f6b9a6e6a52db5a81dbb876bb3bf9a567fb18",
      "assetIds": [
        "41506478881403507969696680653240014914910929820314476107906210059990431967235",
        "41506478881403507969696680653240014914910929820314476107906210059990431967236"
      ]
    },
    {
      "x": 351,
      "y": 328,
      "size": 1,
      "price": "2106000000000000000000",
      "reserved": "",
      "salt": "0x4876a269aa60be4246f548051e1da9325157418b59e98fa3a1c871cceda5d939",
      "assetIds": [
        "41506478881403507969696680653240014914910929820314476107906210059990431967235",
        "41506478881403507969696680653240014914910929820314476107906210059990431967236"
      ]
    },
    {
      "x": 351,
      "y": 329,
      "size": 1,
      "price": "2106000000000000000000",
      "reserved": "",
      "salt": "0x58e370dab7230c9dfa806b502e550c9ee6225d785d478b7fafee3a8d55790cfb",
      "assetIds": [
        "41506478881403507969696680653240014914910929820314476107906210059990431967233",
        "41506478881403507969696680653240014914910929820314476107906210059990431967234"
      ]
    },
    {
      "x": 351,
      "y": 330,
      "size": 1,
      "price": "2106000000000000000000",
      "reserved": "",
      "salt": "0xf9173bbe4a55ff045a93008026bf5c769d6119e2a1f4c27545fef08691fe35f2",
      "assetIds": [
        "41506478881403507969696680653240014914910929820314476107906210059990431967234",
        "41506478881403507969696680653240014914910929820314476107906210059990431967235"
      ]
    },
    {
      "x": 352,
      "y": 330,
      "size": 1,
      "price": "2106000000000000000000",
      "reserved": "",
      "salt": "0xde3caa7a793588754b308d47f8393264776c36a45eab50690005be43e45315e4",
      "assetIds": [
        "41506478881403507969696680653240014914910929820314476107906210059990431967232",
        "41506478881403507969696680653240014914910929820314476107906210059990431967233"
      ]
    },
    {
      "x": 352,
      "y": 329,
      "size": 1,
      "price": "2106000000000000000000",
      "reserved": "",
      "salt": "0x43e7fdb4c028fae701b4fc9cf2e8d3eb8c6a06b6ebaca08a01e7206b5e4a5056",
      "assetIds": [
        "41506478881403507969696680653240014914910929820314476107906210059990431967232",
        "41506478881403507969696680653240014914910929820314476107906210059990431967233"
      ]
    },
    {
      "x": 354,
      "y": 329,
      "size": 1,
      "price": "2106000000000000000000",
      "reserved": "",
      "salt": "0x122cf007ae0ea0c0f5f504428eb0e89842483b0444465a2794a5ddb8a9e5b385",
      "assetIds": [
        "41506478881403507969696680653240014914910929820314476107906210059990431967235",
        "41506478881403507969696680653240014914910929820314476107906210059990431967236"
      ]
    },
    {
      "x": 355,
      "y": 329,
      "size": 1,
      "price": "2106000000000000000000",
      "reserved": "",
      "salt": "0xede33cbf868c1a785cbf66002630a227d601c68102e5367e30ef27d755f17cc0",
      "assetIds": [
        "41506478881403507969696680653240014914910929820314476107906210059990431967234",
        "41506478881403507969696680653240014914910929820314476107906210059990431967235"
      ]
    },
    {
      "x": 356,
      "y": 329,
      "size": 1,
      "price": "2106000000000000000000",
      "reserved": "",
      "salt": "0x586126079a94766e51b07f8d18fe8712a31a06ff380908e16e99b22c4c520a33",
      "assetIds": [
        "41506478881403507969696680653240014914910929820314476107906210059990431967235",
        "41506478881403507969696680653240014914910929820314476107906210059990431967236"
      ]
    },
    {
      "x": 357,
      "y": 329,
      "size": 1,
      "price": "2106000000000000000000",
      "reserved": "",
      "salt": "0x7d8f0528a7e6ce9a119022dc40ab902d9a9ca3f724e738a171c5c2913820afe2",
      "assetIds": [
        "41506478881403507969696680653240014914910929820314476107906210059990431967233",
        "41506478881403507969696680653240014914910929820314476107906210059990431967234"
      ]
    },
    {
      "x": 359,
      "y": 329,
      "size": 1,
      "price": "2106000000000000000000",
      "reserved": "",
      "salt": "0xfc0d23d7f8f4140f172a8a4a8f9b74e96f4cd62e252c9c4800e4981b4dccdd46",
      "assetIds": [
        "41506478881403507969696680653240014914910929820314476107906210059990431967235",
        "41506478881403507969696680653240014914910929820314476107906210059990431967236"
      ]
    },
    {
      "x": 358,
      "y": 329,
      "size": 1,
      "price": "2106000000000000000000",
      "reserved": "",
      "salt": "0xcba4cf71a37146668f44c0285670193c5d9ba8e76455a2ce5d0b11266cf7a9ad",
      "assetIds": [
        "41506478881403507969696680653240014914910929820314476107906210059990431967235",
        "41506478881403507969696680653240014914910929820314476107906210059990431967236"
      ]
    },
    {
      "x": 355,
      "y": 328,
      "size": 1,
      "price": "2106000000000000000000",
      "reserved": "",
      "salt": "0xb1dfbbfde142a5a13a837b52f292a4985ba410d2ce5519ce6a7fd83d1c72e367",
      "assetIds": [
        "41506478881403507969696680653240014914910929820314476107906210059990431967232",
        "41506478881403507969696680653240014914910929820314476107906210059990431967233"
      ]
    },
    {
      "x": 354,
      "y": 328,
      "size": 1,
      "price": "2106000000000000000000",
      "reserved": "",
      "salt": "0x8e646f0d340715a0def4f8417b72a27e250613364420a4c74eddafd006b40b82",
      "assetIds": [
        "41506478881403507969696680653240014914910929820314476107906210059990431967234",
        "41506478881403507969696680653240014914910929820314476107906210059990431967235"
      ]
    },
    {
      "x": 356,
      "y": 328,
      "size": 1,
      "price": "2106000000000000000000",
      "reserved": "",
      "salt": "0x6904ba6866b1ed0e689e01f4cf436ae50d493c9271ce6d505c23e79975df39bd",
      "assetIds": [
        "41506478881403507969696680653240014914910929820314476107906210059990431967234",
        "41506478881403507969696680653240014914910929820314476107906210059990431967235"
      ]
    },
    {
      "x": 357,
      "y": 328,
      "size": 1,
      "price": "2106000000000000000000",
      "reserved": "",
      "salt": "0xeea3ebb36c81a127437ff067885150055e7d011ae79aea21f8af29806fce9ab4",
      "assetIds": [
        "41506478881403507969696680653240014914910929820314476107906210059990431967233",
        "41506478881403507969696680653240014914910929820314476107906210059990431967234"
      ]
    },
    {
      "x": 358,
      "y": 328,
      "size": 1,
      "price": "2106000000000000000000",
      "reserved": "",
      "salt": "0x9bfd19903bb68fd5b3a0120dd3136dd588eaa29eee1d4c3ef9129f091c1b56aa",
      "assetIds": [
        "41506478881403507969696680653240014914910929820314476107906210059990431967233",
        "41506478881403507969696680653240014914910929820314476107906210059990431967234"
      ]
    },
    {
      "x": 359,
      "y": 328,
      "size": 1,
      "price": "2106000000000000000000",
      "reserved": "",
      "salt": "0x3594db5085496e9313ee5296856ccdd83c2edf7fccda33d85db889c69a252bd0",
      "assetIds": [
        "41506478881403507969696680653240014914910929820314476107906210059990431967235",
        "41506478881403507969696680653240014914910929820314476107906210059990431967236"
      ]
    },
    {
      "x": 353,
      "y": 332,
      "size": 1,
      "price": "2106000000000000000000",
      "reserved": "",
      "salt": "0x3a8315f866146208982f7af97a64c84456b42d204467a8a4ddc3e90286ab5ffe",
      "assetIds": [
        "41506478881403507969696680653240014914910929820314476107906210059990431967235",
        "41506478881403507969696680653240014914910929820314476107906210059990431967236"
      ]
    },
    {
      "x": 352,
      "y": 333,
      "size": 1,
      "price": "2106000000000000000000",
      "reserved": "",
      "salt": "0xe23fc8e01080d9fb68aabeefa1cd90234b7411e279f40bfcecdf311ac65ed8c0",
      "assetIds": [
        "41506478881403507969696680653240014914910929820314476107906210059990431967233",
        "41506478881403507969696680653240014914910929820314476107906210059990431967234"
      ]
    },
    {
      "x": 351,
      "y": 334,
      "size": 1,
      "price": "2106000000000000000000",
      "reserved": "",
      "salt": "0x4ce0d9ffd5b991c0add0a62da3c1e44b3f108c97542317cd10cff7b2f235e0de",
      "assetIds": [
        "41506478881403507969696680653240014914910929820314476107906210059990431967234",
        "41506478881403507969696680653240014914910929820314476107906210059990431967235"
      ]
    },
    {
      "x": 351,
      "y": 335,
      "size": 1,
      "price": "2106000000000000000000",
      "reserved": "",
      "salt": "0x2154ee1037c2e740820b6a09430cd653ffee15752fb867cbcc9cb08c5f99a6d5",
      "assetIds": [
        "41506478881403507969696680653240014914910929820314476107906210059990431967232",
        "41506478881403507969696680653240014914910929820314476107906210059990431967233"
      ]
    },
    {
      "x": 352,
      "y": 335,
      "size": 1,
      "price": "2106000000000000000000",
      "reserved": "",
      "salt": "0xadd1f030358789b618a3d874cd50cf2d5fe5611ed2e4697753afce1cc5931a92",
      "assetIds": [
        "41506478881403507969696680653240014914910929820314476107906210059990431967234",
        "41506478881403507969696680653240014914910929820314476107906210059990431967235"
      ]
    },
    {
      "x": 352,
      "y": 336,
      "size": 1,
      "price": "2106000000000000000000",
      "reserved": "",
      "salt": "0x1c08ea9cda7e6b28a6c29c1fcf16d7e8cb52bcd3ae0ba4957854b41157db25a9",
      "assetIds": [
        "41506478881403507969696680653240014914910929820314476107906210059990431967235",
        "41506478881403507969696680653240014914910929820314476107906210059990431967236"
      ]
    },
    {
      "x": 352,
      "y": 337,
      "size": 1,
      "price": "2106000000000000000000",
      "reserved": "",
      "salt": "0x09a26856a2eb063bcfc705edc35479b26b2a1e03ddeaa47218005d957ad2ccf3",
      "assetIds": [
        "41506478881403507969696680653240014914910929820314476107906210059990431967234",
        "41506478881403507969696680653240014914910929820314476107906210059990431967235"
      ]
    },
    {
      "x": 352,
      "y": 338,
      "size": 1,
      "price": "2106000000000000000000",
      "reserved": "",
      "salt": "0x7857ccc21532eec394ce110011acb05f15b27c22a35e59d2323dc28271423e0f",
      "assetIds": [
        "41506478881403507969696680653240014914910929820314476107906210059990431967232",
        "41506478881403507969696680653240014914910929820314476107906210059990431967233"
      ]
    },
    {
      "x": 351,
      "y": 338,
      "size": 1,
      "price": "2106000000000000000000",
      "reserved": "",
      "salt": "0xa570331dd24f3be6215f17ce42675b5f957807144bc16e314427c2424f4352f6",
      "assetIds": [
        "41506478881403507969696680653240014914910929820314476107906210059990431967235",
        "41506478881403507969696680653240014914910929820314476107906210059990431967236"
      ]
    },
    {
      "x": 353,
      "y": 338,
      "size": 1,
      "price": "2106000000000000000000",
      "reserved": "",
      "salt": "0x10f4d0be2a24315144d73bb52b0559060492a4196a714bc54dd2e6a9f6b6f727",
      "assetIds": [
        "41506478881403507969696680653240014914910929820314476107906210059990431967233",
        "41506478881403507969696680653240014914910929820314476107906210059990431967234"
      ]
    },
    {
      "x": 354,
      "y": 338,
      "size": 1,
      "price": "2106000000000000000000",
      "reserved": "",
      "salt": "0x87f573dd620c6f9841680591ff5e128b408b5ffa6ed52fd275f0c7f3202ae04f",
      "assetIds": [
        "41506478881403507969696680653240014914910929820314476107906210059990431967235",
        "41506478881403507969696680653240014914910929820314476107906210059990431967236"
      ]
    },
    {
      "x": 355,
      "y": 338,
      "size": 1,
      "price": "2106000000000000000000",
      "reserved": "",
      "salt": "0xf080b77b31fddacf183b06c584a00e80025ea3e232e1324d322764294351de3d",
      "assetIds": [
        "41506478881403507969696680653240014914910929820314476107906210059990431967233",
        "41506478881403507969696680653240014914910929820314476107906210059990431967234"
      ]
    },
    {
      "x": 356,
      "y": 338,
      "size": 1,
      "price": "2106000000000000000000",
      "reserved": "",
      "salt": "0xe85288f06ce753d43db7a0ef01ee9984b8f517706ed1702b12d7508482f43fca",
      "assetIds": [
        "41506478881403507969696680653240014914910929820314476107906210059990431967235",
        "41506478881403507969696680653240014914910929820314476107906210059990431967236"
      ]
    },
    {
      "x": 357,
      "y": 338,
      "size": 1,
      "price": "2106000000000000000000",
      "reserved": "",
      "salt": "0x7705fdc0ebbbb2c300461ec75eb2597d2ac5e71ab7ac00b04493c829c6174b94",
      "assetIds": [
        "41506478881403507969696680653240014914910929820314476107906210059990431967234",
        "41506478881403507969696680653240014914910929820314476107906210059990431967235"
      ]
    },
    {
      "x": 358,
      "y": 338,
      "size": 1,
      "price": "2106000000000000000000",
      "reserved": "",
      "salt": "0x85817419a9d32592b9ed415b5fc401a2621364e43d03b39f0e04b7439a9b0e71",
      "assetIds": [
        "41506478881403507969696680653240014914910929820314476107906210059990431967232",
        "41506478881403507969696680653240014914910929820314476107906210059990431967233"
      ]
    },
    {
      "x": 359,
      "y": 338,
      "size": 1,
      "price": "2106000000000000000000",
      "reserved": "",
      "salt": "0x25695a3b077a6358bd09906640cf76cd440f90e359817cd0b12812c973530bfb",
      "assetIds": [
        "41506478881403507969696680653240014914910929820314476107906210059990431967235",
        "41506478881403507969696680653240014914910929820314476107906210059990431967236"
      ]
    },
    {
      "x": 359,
      "y": 337,
      "size": 1,
      "price": "2106000000000000000000",
      "reserved": "",
      "salt": "0xcb67a2bcfe1243bdad553398378f74b4a6f0f498bff0de241537a8e3054cf200",
      "assetIds": [
        "41506478881403507969696680653240014914910929820314476107906210059990431967233",
        "41506478881403507969696680653240014914910929820314476107906210059990431967234"
      ]
    },
    {
      "x": 359,
      "y": 336,
      "size": 1,
      "price": "2106000000000000000000",
      "reserved": "",
      "salt": "0x11018c6c1830cae3419e3521261ab83ab0436fa1d1cc0e65fd57b5ee65982cb7",
      "assetIds": [
        "41506478881403507969696680653240014914910929820314476107906210059990431967235",
        "41506478881403507969696680653240014914910929820314476107906210059990431967236"
      ]
    },
    {
      "x": 358,
      "y": 336,
      "size": 1,
      "price": "2106000000000000000000",
      "reserved": "",
      "salt": "0x1cefb172a57616132feb5939f95f4218d04f1839a3e2b613ffa9a069efcabfb9",
      "assetIds": [
        "41506478881403507969696680653240014914910929820314476107906210059990431967233",
        "41506478881403507969696680653240014914910929820314476107906210059990431967234"
      ]
    },
    {
      "x": 357,
      "y": 336,
      "size": 1,
      "price": "2106000000000000000000",
      "reserved": "",
      "salt": "0x0f568aeaf81a532b47accfc4c26146660e691e4b3045d9c91acf40d26008b3fd",
      "assetIds": [
        "41506478881403507969696680653240014914910929820314476107906210059990431967233",
        "41506478881403507969696680653240014914910929820314476107906210059990431967234"
      ]
    },
    {
      "x": 356,
      "y": 336,
      "size": 1,
      "price": "2106000000000000000000",
      "reserved": "",
      "salt": "0xa31f4847967af5b8ea6ac2eeb4c6ea17686e06578c010b050ec5255dc8472bb2",
      "assetIds": [
        "41506478881403507969696680653240014914910929820314476107906210059990431967233",
        "41506478881403507969696680653240014914910929820314476107906210059990431967234"
      ]
    },
    {
      "x": 355,
      "y": 336,
      "size": 1,
      "price": "2106000000000000000000",
      "reserved": "",
      "salt": "0x3f84c995aec3ffe3bfcd75fad3a2647504f727305f6d381106d06edc29fad432",
      "assetIds": [
        "41506478881403507969696680653240014914910929820314476107906210059990431967235",
        "41506478881403507969696680653240014914910929820314476107906210059990431967236"
      ]
    },
    {
      "x": 354,
      "y": 336,
      "size": 1,
      "price": "2106000000000000000000",
      "reserved": "",
      "salt": "0xedd98ec03af18c70c95bf3ae5382b902264b8e6b1ebac1f40156d3db294b77cc",
      "assetIds": [
        "41506478881403507969696680653240014914910929820314476107906210059990431967232",
        "41506478881403507969696680653240014914910929820314476107906210059990431967233"
      ]
    },
    {
      "x": 353,
      "y": 336,
      "size": 1,
      "price": "2106000000000000000000",
      "reserved": "",
      "salt": "0xc674470c3b051760fe5a0e58459deae0762ac412fa4cb77ca1234a56ad4056dc",
      "assetIds": [
        "41506478881403507969696680653240014914910929820314476107906210059990431967235",
        "41506478881403507969696680653240014914910929820314476107906210059990431967236"
      ]
    },
    {
      "x": 352,
      "y": 334,
      "size": 1,
      "price": "2106000000000000000000",
      "reserved": "",
      "salt": "0xfb68875492a7a2094a1f24bb0b999dbb68174aaeff472145279006d5b466be45",
      "assetIds": [
        "41506478881403507969696680653240014914910929820314476107906210059990431967235",
        "41506478881403507969696680653240014914910929820314476107906210059990431967236"
      ]
    },
    {
      "x": 352,
      "y": 332,
      "size": 1,
      "price": "2106000000000000000000",
      "reserved": "",
      "salt": "0xce348562a8d1bd44df71ee94c3f2131853117d0ceef6e736cc040178aa8ac50b",
      "assetIds": [
        "41506478881403507969696680653240014914910929820314476107906210059990431967232",
        "41506478881403507969696680653240014914910929820314476107906210059990431967233"
      ]
    },
    {
      "x": 351,
      "y": 336,
      "size": 1,
      "price": "2106000000000000000000",
      "reserved": "",
      "salt": "0x90b456c8dc9ae2a6e3a058233b69cb52d2450f4cc35b5d3186a04bc66b99b712",
      "assetIds": [
        "41506478881403507969696680653240014914910929820314476107906210059990431967232",
        "41506478881403507969696680653240014914910929820314476107906210059990431967233"
      ]
    },
    {
      "x": 353,
      "y": 337,
      "size": 1,
      "price": "2106000000000000000000",
      "reserved": "",
      "salt": "0x625ee4593da05c158b246aa8493807d39af70cc6b723f480f214def8566f439c",
      "assetIds": [
        "41506478881403507969696680653240014914910929820314476107906210059990431967233",
        "41506478881403507969696680653240014914910929820314476107906210059990431967234"
      ]
    },
    {
      "x": 354,
      "y": 337,
      "size": 1,
      "price": "2106000000000000000000",
      "reserved": "",
      "salt": "0x0958d3b375109e0edc69e3dd655a782576277a5712d2c6147525f3d56699a4f4",
      "assetIds": [
        "41506478881403507969696680653240014914910929820314476107906210059990431967232",
        "41506478881403507969696680653240014914910929820314476107906210059990431967233"
      ]
    },
    {
      "x": 355,
      "y": 337,
      "size": 1,
      "price": "2106000000000000000000",
      "reserved": "",
      "salt": "0x60631c0b861f7c149b97ac257fc9b50b4393cd5098c952fbf9f283c84f757942",
      "assetIds": [
        "41506478881403507969696680653240014914910929820314476107906210059990431967235",
        "41506478881403507969696680653240014914910929820314476107906210059990431967236"
      ]
    },
    {
      "x": 356,
      "y": 337,
      "size": 1,
      "price": "2106000000000000000000",
      "reserved": "",
      "salt": "0xfcbd6491bd6467c97d12288541fcdf004e8d3ea76bb99d85660bf14417e39056",
      "assetIds": [
        "41506478881403507969696680653240014914910929820314476107906210059990431967233",
        "41506478881403507969696680653240014914910929820314476107906210059990431967234"
      ]
    },
    {
      "x": 357,
      "y": 337,
      "size": 1,
      "price": "2106000000000000000000",
      "reserved": "",
      "salt": "0x5baaa334594bf5f84d95ea2ac7cb50684bcf7fbc69ad0f6ee19f3bfb4d65ed76",
      "assetIds": [
        "41506478881403507969696680653240014914910929820314476107906210059990431967232",
        "41506478881403507969696680653240014914910929820314476107906210059990431967233"
      ]
    },
    {
      "x": 358,
      "y": 337,
      "size": 1,
      "price": "2106000000000000000000",
      "reserved": "",
      "salt": "0xb837e6716fe02c35b82bc88ff8a0b96e4c3dda17a67bf9b8f75388ddd94becaf",
      "assetIds": [
        "41506478881403507969696680653240014914910929820314476107906210059990431967234",
        "41506478881403507969696680653240014914910929820314476107906210059990431967235"
      ]
    },
    {
      "x": 396,
      "y": 359,
      "size": 1,
      "price": "2106000000000000000000",
      "reserved": "",
      "salt": "0xf53aaaad5cd4dd089b210652da74a7f07937770ba08faf373fda207c712f6b15",
      "assetIds": [
        "41506478881403507969696680653240014914910929820314476107906210059990431967232",
        "41506478881403507969696680653240014914910929820314476107906210059990431967233"
      ]
    },
    {
      "x": 397,
      "y": 359,
      "size": 1,
      "price": "2106000000000000000000",
      "reserved": "",
      "salt": "0x2ad6a9bbb0ead273f02871dceebb73c32c3e89d3551a1dccf2b902cfd446cbb8",
      "assetIds": [
        "41506478881403507969696680653240014914910929820314476107906210059990431967232",
        "41506478881403507969696680653240014914910929820314476107906210059990431967233"
      ]
    },
    {
      "x": 397,
      "y": 358,
      "size": 1,
      "price": "2106000000000000000000",
      "reserved": "",
      "salt": "0x76a89d4107bb95694388ecb501874b8a3f1364fdbde779d31e76263e63346cec",
      "assetIds": [
        "41506478881403507969696680653240014914910929820314476107906210059990431967235",
        "41506478881403507969696680653240014914910929820314476107906210059990431967236"
      ]
    },
    {
      "x": 397,
      "y": 357,
      "size": 1,
      "price": "2106000000000000000000",
      "reserved": "",
      "salt": "0x09d39f70816e61264f30eaaf62e1738783ddfadd5fec339dd37a098d103dea75",
      "assetIds": [
        "41506478881403507969696680653240014914910929820314476107906210059990431967233",
        "41506478881403507969696680653240014914910929820314476107906210059990431967234"
      ]
    },
    {
      "x": 397,
      "y": 356,
      "size": 1,
      "price": "2106000000000000000000",
      "reserved": "",
      "salt": "0x49bf2b8125711c760b1a449751153def777108a7d9fa81caba48ababb71be0aa",
      "assetIds": [
        "41506478881403507969696680653240014914910929820314476107906210059990431967233",
        "41506478881403507969696680653240014914910929820314476107906210059990431967234"
      ]
    },
    {
      "x": 396,
      "y": 358,
      "size": 1,
      "price": "2106000000000000000000",
      "reserved": "",
      "salt": "0xcc5ce5a6eccde58053af39f59aded6a912bf38c339d8ab63cdfacc4912298720",
      "assetIds": [
        "41506478881403507969696680653240014914910929820314476107906210059990431967235",
        "41506478881403507969696680653240014914910929820314476107906210059990431967236"
      ]
    },
    {
      "x": 396,
      "y": 357,
      "size": 1,
      "price": "2106000000000000000000",
      "reserved": "",
      "salt": "0xd54b3a09859e37ed720a73b476b063f5bc9d7f8d100f23f6e434f11882eb0b5e",
      "assetIds": [
        "41506478881403507969696680653240014914910929820314476107906210059990431967232",
        "41506478881403507969696680653240014914910929820314476107906210059990431967233"
      ]
    },
    {
      "x": 396,
      "y": 356,
      "size": 1,
      "price": "2106000000000000000000",
      "reserved": "",
      "salt": "0xe7c8ddbf9aace4b68e9ea8fa0393330fc7801f52ef299fe10fb7637b4770657f",
      "assetIds": [
        "41506478881403507969696680653240014914910929820314476107906210059990431967233",
        "41506478881403507969696680653240014914910929820314476107906210059990431967234"
      ]
    },
    {
      "x": 396,
      "y": 355,
      "size": 1,
      "price": "2106000000000000000000",
      "reserved": "",
      "salt": "0x96cb4775152d027b716e8d6f5ddf940200a6609650df648241ce7b83284845e4",
      "assetIds": [
        "41506478881403507969696680653240014914910929820314476107906210059990431967233",
        "41506478881403507969696680653240014914910929820314476107906210059990431967234"
      ]
    },
    {
      "x": 396,
      "y": 354,
      "size": 1,
      "price": "2106000000000000000000",
      "reserved": "",
      "salt": "0xf0da5c4f5adeddfe2c2b3c3dca52ba80a222f36f1860f1dd8af26fef108c96a4",
      "assetIds": [
        "41506478881403507969696680653240014914910929820314476107906210059990431967232",
        "41506478881403507969696680653240014914910929820314476107906210059990431967233"
      ]
    },
    {
      "x": 396,
      "y": 353,
      "size": 1,
      "price": "2106000000000000000000",
      "reserved": "",
      "salt": "0x985eeea5e24a1bfdf5b526ef042e9296c8f5927f10081324734f5d6c7839cbe6",
      "assetIds": [
        "41506478881403507969696680653240014914910929820314476107906210059990431967234",
        "41506478881403507969696680653240014914910929820314476107906210059990431967235"
      ]
    },
    {
      "x": 396,
      "y": 352,
      "size": 1,
      "price": "2106000000000000000000",
      "reserved": "",
      "salt": "0x337979517ed3f479639fc12f65a8572b0d307c4eb9ee707bf8869934d8271e2c",
      "assetIds": [
        "41506478881403507969696680653240014914910929820314476107906210059990431967235",
        "41506478881403507969696680653240014914910929820314476107906210059990431967236"
      ]
    },
    {
      "x": 396,
      "y": 351,
      "size": 1,
      "price": "2106000000000000000000",
      "reserved": "",
      "salt": "0xd61b0bc5b965744e7b40fa129f3037299e169b44c002b4a94e47e7227ef5bb92",
      "assetIds": [
        "41506478881403507969696680653240014914910929820314476107906210059990431967233",
        "41506478881403507969696680653240014914910929820314476107906210059990431967234"
      ]
    },
    {
      "x": 396,
      "y": 350,
      "size": 1,
      "price": "2106000000000000000000",
      "reserved": "",
      "salt": "0x67b8c8a699c5f58f2405b40413dec63b4feb4bf688e2940a4eb021e8bb6737c3",
      "assetIds": [
        "41506478881403507969696680653240014914910929820314476107906210059990431967234",
        "41506478881403507969696680653240014914910929820314476107906210059990431967235"
      ]
    },
    {
      "x": 396,
      "y": 349,
      "size": 1,
      "price": "2106000000000000000000",
      "reserved": "",
      "salt": "0xb7b40f246fbfd620050202eb5c262f9db10e973c346ce2145180fe4cd602997a",
      "assetIds": [
        "41506478881403507969696680653240014914910929820314476107906210059990431967233",
        "41506478881403507969696680653240014914910929820314476107906210059990431967234"
      ]
    },
    {
      "x": 396,
      "y": 348,
      "size": 1,
      "price": "2106000000000000000000",
      "reserved": "",
      "salt": "0x06775dfee18d3872a7a830fbb47ffc7f30d586551eb1cdaf550e22c8dec18dcb",
      "assetIds": [
        "41506478881403507969696680653240014914910929820314476107906210059990431967232",
        "41506478881403507969696680653240014914910929820314476107906210059990431967233"
      ]
    },
    {
      "x": 398,
      "y": 356,
      "size": 1,
      "price": "2106000000000000000000",
      "reserved": "",
      "salt": "0xacd32705bbf23650909b0a77ce87adcefd9801e0d0a51c9c7c6e59eb727d1b2b",
      "assetIds": [
        "41506478881403507969696680653240014914910929820314476107906210059990431967233",
        "41506478881403507969696680653240014914910929820314476107906210059990431967234"
      ]
    },
    {
      "x": 399,
      "y": 356,
      "size": 1,
      "price": "2106000000000000000000",
      "reserved": "",
      "salt": "0xa5ac5d70a36605fc9b904102fb272245c7632c1c01215b85839bf878091f626d",
      "assetIds": [
        "41506478881403507969696680653240014914910929820314476107906210059990431967235",
        "41506478881403507969696680653240014914910929820314476107906210059990431967236"
      ]
    },
    {
      "x": 400,
      "y": 356,
      "size": 1,
      "price": "2106000000000000000000",
      "reserved": "",
      "salt": "0xbde9819b4da5ef8991fa58df303195a4291a75c8c8380149b01646f171dbf1b4",
      "assetIds": [
        "41506478881403507969696680653240014914910929820314476107906210059990431967234",
        "41506478881403507969696680653240014914910929820314476107906210059990431967235"
      ]
    },
    {
      "x": 401,
      "y": 356,
      "size": 1,
      "price": "2106000000000000000000",
      "reserved": "",
      "salt": "0x01cbee6ca8263da242986f92c8108d4a9484f952256c7d81d1d05e541ed4d16b",
      "assetIds": [
        "41506478881403507969696680653240014914910929820314476107906210059990431967233",
        "41506478881403507969696680653240014914910929820314476107906210059990431967234"
      ]
    },
    {
      "x": 401,
      "y": 355,
      "size": 1,
      "price": "2106000000000000000000",
      "reserved": "",
      "salt": "0xc8bfaca6b66fc27776e04f1790ce17b64aaa3c14885c015a32573575192a1933",
      "assetIds": [
        "41506478881403507969696680653240014914910929820314476107906210059990431967233",
        "41506478881403507969696680653240014914910929820314476107906210059990431967234"
      ]
    },
    {
      "x": 401,
      "y": 354,
      "size": 1,
      "price": "2106000000000000000000",
      "reserved": "",
      "salt": "0x8c08f3a2b907c0e4c05d523752a7b6d660b7bcb2b69b267a4372ce155ff931c0",
      "assetIds": [
        "41506478881403507969696680653240014914910929820314476107906210059990431967233",
        "41506478881403507969696680653240014914910929820314476107906210059990431967234"
      ]
    },
    {
      "x": 401,
      "y": 353,
      "size": 1,
      "price": "2106000000000000000000",
      "reserved": "",
      "salt": "0x48513443db28c138c5434d28de6a499be9347452539e7f7868c891040aff783c",
      "assetIds": [
        "41506478881403507969696680653240014914910929820314476107906210059990431967233",
        "41506478881403507969696680653240014914910929820314476107906210059990431967234"
      ]
    },
    {
      "x": 401,
      "y": 352,
      "size": 1,
      "price": "2106000000000000000000",
      "reserved": "",
      "salt": "0x9b835f28752c582398836da9212be803c7bb9701b634e73b9d231c56333b90eb",
      "assetIds": [
        "41506478881403507969696680653240014914910929820314476107906210059990431967232",
        "41506478881403507969696680653240014914910929820314476107906210059990431967233"
      ]
    },
    {
      "x": 401,
      "y": 351,
      "size": 1,
      "price": "2106000000000000000000",
      "reserved": "",
      "salt": "0xe34ac84b2a14c7018d80ae5d928a4a94d3a1276d947bb6a4dff0969227c799eb",
      "assetIds": [
        "41506478881403507969696680653240014914910929820314476107906210059990431967234",
        "41506478881403507969696680653240014914910929820314476107906210059990431967235"
      ]
    },
    {
      "x": 401,
      "y": 350,
      "size": 1,
      "price": "2106000000000000000000",
      "reserved": "",
      "salt": "0x51ef50c90193e356d252c7ba0ac53e6d956402d9ee03a5b19e7f90e8fdfa0bdc",
      "assetIds": [
        "41506478881403507969696680653240014914910929820314476107906210059990431967232",
        "41506478881403507969696680653240014914910929820314476107906210059990431967233"
      ]
    },
    {
      "x": 402,
      "y": 353,
      "size": 1,
      "price": "2106000000000000000000",
      "reserved": "",
      "salt": "0x698b7d0c5ea5770435130a2f28e1678eb00f1252066a7bfa8b8c85ae3e3a3b94",
      "assetIds": [
        "41506478881403507969696680653240014914910929820314476107906210059990431967234",
        "41506478881403507969696680653240014914910929820314476107906210059990431967235"
      ]
    },
    {
      "x": 403,
      "y": 353,
      "size": 1,
      "price": "2106000000000000000000",
      "reserved": "",
      "salt": "0xd9e1f14c76ee0e0cc1992294f69b7a4ab8d732f86236899145647851ec77da12",
      "assetIds": [
        "41506478881403507969696680653240014914910929820314476107906210059990431967233",
        "41506478881403507969696680653240014914910929820314476107906210059990431967234"
      ]
    },
    {
      "x": 404,
      "y": 353,
      "size": 1,
      "price": "2106000000000000000000",
      "reserved": "",
      "salt": "0x40de0ceb4490ebfc9760b1cc3dc888405a2aee6433e7823580fa13a95406618c",
      "assetIds": [
        "41506478881403507969696680653240014914910929820314476107906210059990431967233",
        "41506478881403507969696680653240014914910929820314476107906210059990431967234"
      ]
    },
    {
      "x": 405,
      "y": 353,
      "size": 1,
      "price": "2106000000000000000000",
      "reserved": "",
      "salt": "0x577db556c66ac1f58c0e8a5e3ff4eaec3222b895774aab90e4d5f3e99c128cc4",
      "assetIds": [
        "41506478881403507969696680653240014914910929820314476107906210059990431967232",
        "41506478881403507969696680653240014914910929820314476107906210059990431967233"
      ]
    },
    {
      "x": 406,
      "y": 353,
      "size": 1,
      "price": "2106000000000000000000",
      "reserved": "",
      "salt": "0xed6404dbd48b0e0631a3863225b51b9bbb05884138cbf6e1372e5309e6c1ecaa",
      "assetIds": [
        "41506478881403507969696680653240014914910929820314476107906210059990431967235",
        "41506478881403507969696680653240014914910929820314476107906210059990431967236"
      ]
    },
    {
      "x": 407,
      "y": 353,
      "size": 1,
      "price": "2106000000000000000000",
      "reserved": "",
      "salt": "0x1d0361fe5223ba83a2343261c95816e26a6c412f0bfc5569b3ba2f7fdec79c45",
      "assetIds": [
        "41506478881403507969696680653240014914910929820314476107906210059990431967235",
        "41506478881403507969696680653240014914910929820314476107906210059990431967236"
      ]
    },
    {
      "x": 407,
      "y": 352,
      "size": 1,
      "price": "2106000000000000000000",
      "reserved": "",
      "salt": "0x0b3b9462e1495016239786574dd01e05317cb4654f2382f23750956d3ea0263f",
      "assetIds": [
        "41506478881403507969696680653240014914910929820314476107906210059990431967234",
        "41506478881403507969696680653240014914910929820314476107906210059990431967235"
      ]
    },
    {
      "x": 407,
      "y": 351,
      "size": 1,
      "price": "2106000000000000000000",
      "reserved": "",
      "salt": "0x60fab37d37efe9865fa045cb8472ac402b41474a59e6b1db0bedbf39e2febe7b",
      "assetIds": [
        "41506478881403507969696680653240014914910929820314476107906210059990431967234",
        "41506478881403507969696680653240014914910929820314476107906210059990431967235"
      ]
    },
    {
      "x": 407,
      "y": 350,
      "size": 1,
      "price": "2106000000000000000000",
      "reserved": "",
      "salt": "0x49461475cdac9cb7314551a4d7e5d66cbb953ab0ba6db4ae21b8c6f62cf2f8f7",
      "assetIds": [
        "41506478881403507969696680653240014914910929820314476107906210059990431967232",
        "41506478881403507969696680653240014914910929820314476107906210059990431967233"
      ]
    },
    {
      "x": 407,
      "y": 349,
      "size": 1,
      "price": "2106000000000000000000",
      "reserved": "",
      "salt": "0xd8cd043ab23c366990c1216518b0d0e1b236d957749a5235b967e3ef6a8f82ee",
      "assetIds": [
        "41506478881403507969696680653240014914910929820314476107906210059990431967235",
        "41506478881403507969696680653240014914910929820314476107906210059990431967236"
      ]
    },
    {
      "x": 406,
      "y": 349,
      "size": 1,
      "price": "2106000000000000000000",
      "reserved": "",
      "salt": "0xfc3c81eec46847004e1fe47969c61ea6d3b1db01e5a9e502f92cda5aa9b4c07f",
      "assetIds": [
        "41506478881403507969696680653240014914910929820314476107906210059990431967233",
        "41506478881403507969696680653240014914910929820314476107906210059990431967234"
      ]
    },
    {
      "x": 405,
      "y": 349,
      "size": 1,
      "price": "2106000000000000000000",
      "reserved": "",
      "salt": "0x213d79201f0f99546c265af857099740b08695278d7da0848f377d1bd44032ae",
      "assetIds": [
        "41506478881403507969696680653240014914910929820314476107906210059990431967235",
        "41506478881403507969696680653240014914910929820314476107906210059990431967236"
      ]
    },
    {
      "x": 405,
      "y": 348,
      "size": 1,
      "price": "2106000000000000000000",
      "reserved": "",
      "salt": "0xbb0a60267bf085c3b49c97b09ce0a7102537fe114c620d301501ba6e8b0e4340",
      "assetIds": [
        "41506478881403507969696680653240014914910929820314476107906210059990431967233",
        "41506478881403507969696680653240014914910929820314476107906210059990431967234"
      ]
    },
    {
      "x": 404,
      "y": 348,
      "size": 1,
      "price": "2106000000000000000000",
      "reserved": "",
      "salt": "0x5d0904b5372569ee84a61bcb1503fccf6a0d54b24f6e2064c4ff4cd8bd054131",
      "assetIds": [
        "41506478881403507969696680653240014914910929820314476107906210059990431967232",
        "41506478881403507969696680653240014914910929820314476107906210059990431967233"
      ]
    },
    {
      "x": 403,
      "y": 348,
      "size": 1,
      "price": "2106000000000000000000",
      "reserved": "",
      "salt": "0x9cdfedc8ec73c27625bcd8f9fb15a1b7d87fc6a7323e10a118cfe4e5c88a4484",
      "assetIds": [
        "41506478881403507969696680653240014914910929820314476107906210059990431967234",
        "41506478881403507969696680653240014914910929820314476107906210059990431967235"
      ]
    },
    {
      "x": 402,
      "y": 348,
      "size": 1,
      "price": "2106000000000000000000",
      "reserved": "",
      "salt": "0x582ac8192409d3bee11ba150ceeb40cc52393a2d298993ab8621b1324a2fe070",
      "assetIds": [
        "41506478881403507969696680653240014914910929820314476107906210059990431967235",
        "41506478881403507969696680653240014914910929820314476107906210059990431967236"
      ]
    },
    {
      "x": 401,
      "y": 348,
      "size": 1,
      "price": "2106000000000000000000",
      "reserved": "",
      "salt": "0x749eec6ab4e0ecc1cbf6a0a39f0351cebfe9427e713d9a543de8db911691d05e",
      "assetIds": [
        "41506478881403507969696680653240014914910929820314476107906210059990431967232",
        "41506478881403507969696680653240014914910929820314476107906210059990431967233"
      ]
    },
    {
      "x": 400,
      "y": 348,
      "size": 1,
      "price": "2106000000000000000000",
      "reserved": "",
      "salt": "0xf7ae7480439352a5f75b83f244f74e1c6d80007b58eb1af3b2c2b379bbbcf2fb",
      "assetIds": [
        "41506478881403507969696680653240014914910929820314476107906210059990431967235",
        "41506478881403507969696680653240014914910929820314476107906210059990431967236"
      ]
    },
    {
      "x": 399,
      "y": 348,
      "size": 1,
      "price": "2106000000000000000000",
      "reserved": "",
      "salt": "0x1b98e618d939a5f643baaa0dae936e4fd34725014448132bf8d38a97fa0f24ba",
      "assetIds": [
        "41506478881403507969696680653240014914910929820314476107906210059990431967235",
        "41506478881403507969696680653240014914910929820314476107906210059990431967236"
      ]
    },
    {
      "x": 398,
      "y": 348,
      "size": 1,
      "price": "2106000000000000000000",
      "reserved": "",
      "salt": "0x46dea9e0f0e80214aaa538f76638e775a725e34d4d34e924c73a76035290b6a7",
      "assetIds": [
        "41506478881403507969696680653240014914910929820314476107906210059990431967235",
        "41506478881403507969696680653240014914910929820314476107906210059990431967236"
      ]
    },
    {
      "x": 406,
      "y": 348,
      "size": 1,
      "price": "2106000000000000000000",
      "reserved": "",
      "salt": "0xfa9189049f6214b03f138387c05255b59534bd94c3b88d26d7bc307ce7ff7b74",
      "assetIds": [
        "41506478881403507969696680653240014914910929820314476107906210059990431967235",
        "41506478881403507969696680653240014914910929820314476107906210059990431967236"
      ]
    },
    {
      "x": 407,
      "y": 348,
      "size": 1,
      "price": "2106000000000000000000",
      "reserved": "",
      "salt": "0x234b5baa047ba5d08e6b34ee9d336e1d4166354f5515c0339d8a48e8977004e5",
      "assetIds": [
        "41506478881403507969696680653240014914910929820314476107906210059990431967235",
        "41506478881403507969696680653240014914910929820314476107906210059990431967236"
      ]
    },
    {
      "x": 404,
      "y": 349,
      "size": 1,
      "price": "2106000000000000000000",
      "reserved": "",
      "salt": "0x2ca7958bcdcdb535f689887f9b5fd95f6c6e07719c01fe81639cf77cab83d748",
      "assetIds": [
        "41506478881403507969696680653240014914910929820314476107906210059990431967233",
        "41506478881403507969696680653240014914910929820314476107906210059990431967234"
      ]
    },
    {
      "x": 403,
      "y": 349,
      "size": 1,
      "price": "2106000000000000000000",
      "reserved": "",
      "salt": "0xf557baf486ff7486b9413ef5861e299a85783c809aa4204d94e911314696a50d",
      "assetIds": [
        "41506478881403507969696680653240014914910929820314476107906210059990431967234",
        "41506478881403507969696680653240014914910929820314476107906210059990431967235"
      ]
    },
    {
      "x": 402,
      "y": 349,
      "size": 1,
      "price": "2106000000000000000000",
      "reserved": "",
      "salt": "0xdcd6513c149ce509a48bab0fddd51292912e93c1403c947d8579a19cc6114928",
      "assetIds": [
        "41506478881403507969696680653240014914910929820314476107906210059990431967232",
        "41506478881403507969696680653240014914910929820314476107906210059990431967233"
      ]
    },
    {
      "x": 402,
      "y": 350,
      "size": 1,
      "price": "2106000000000000000000",
      "reserved": "",
      "salt": "0x5381b779bb6a45ae9b31f292a6900912cba4b4faa703e6b500e9450f037b1c37",
      "assetIds": [
        "41506478881403507969696680653240014914910929820314476107906210059990431967232",
        "41506478881403507969696680653240014914910929820314476107906210059990431967233"
      ]
    },
    {
      "x": 400,
      "y": 350,
      "size": 1,
      "price": "2106000000000000000000",
      "reserved": "",
      "salt": "0xac710133a0424b4abe16763911d5ed4424cf2a0f6a517ade8c07b24e34d0614e",
      "assetIds": [
        "41506478881403507969696680653240014914910929820314476107906210059990431967232",
        "41506478881403507969696680653240014914910929820314476107906210059990431967233"
      ]
    },
    {
      "x": 399,
      "y": 350,
      "size": 1,
      "price": "2106000000000000000000",
      "reserved": "",
      "salt": "0x7215efb83a00575155abbd00de708539dc82bef25cf1b969d3ca56c890d99beb",
      "assetIds": [
        "41506478881403507969696680653240014914910929820314476107906210059990431967233",
        "41506478881403507969696680653240014914910929820314476107906210059990431967234"
      ]
    },
    {
      "x": 398,
      "y": 350,
      "size": 1,
      "price": "2106000000000000000000",
      "reserved": "",
      "salt": "0x461bd0e98f19f1be3c45da20743eace8935c2c480c437ea24f3bb22bd7368bf6",
      "assetIds": [
        "41506478881403507969696680653240014914910929820314476107906210059990431967233",
        "41506478881403507969696680653240014914910929820314476107906210059990431967234"
      ]
    },
    {
      "x": 397,
      "y": 350,
      "size": 1,
      "price": "2106000000000000000000",
      "reserved": "",
      "salt": "0xd98e8c7e90ebaf91bbe757b2aca5409c87ce6d7dfc595efadb8abb2fcb1c7497",
      "assetIds": [
        "41506478881403507969696680653240014914910929820314476107906210059990431967234",
        "41506478881403507969696680653240014914910929820314476107906210059990431967235"
      ]
    },
    {
      "x": 395,
      "y": 350,
      "size": 1,
      "price": "2106000000000000000000",
      "reserved": "",
      "salt": "0x0eaa479dbb52cd46f4493f24286f3be99df15a9775a228f644157a672937c639",
      "assetIds": [
        "41506478881403507969696680653240014914910929820314476107906210059990431967233",
        "41506478881403507969696680653240014914910929820314476107906210059990431967234"
      ]
    },
    {
      "x": 401,
      "y": 349,
      "size": 1,
      "price": "2106000000000000000000",
      "reserved": "",
      "salt": "0x46a8b741097ccfa76cf0b2a32bbced738753edc381b5c93b0b1d76afc6a8bccc",
      "assetIds": [
        "41506478881403507969696680653240014914910929820314476107906210059990431967234",
        "41506478881403507969696680653240014914910929820314476107906210059990431967235"
      ]
    },
    {
      "x": 400,
      "y": 349,
      "size": 1,
      "price": "2106000000000000000000",
      "reserved": "",
      "salt": "0x4e5e931a65c9824255ade6a9f64b209f69f820835af207365cfd90ee4ce33713",
      "assetIds": [
        "41506478881403507969696680653240014914910929820314476107906210059990431967235",
        "41506478881403507969696680653240014914910929820314476107906210059990431967236"
      ]
    },
    {
      "x": 399,
      "y": 349,
      "size": 1,
      "price": "2106000000000000000000",
      "reserved": "",
      "salt": "0xdf50c5d587aa215d1ad4d62974d9a5027c2a7a3af7c7eb6e85fac2ac2b2589cf",
      "assetIds": [
        "41506478881403507969696680653240014914910929820314476107906210059990431967232",
        "41506478881403507969696680653240014914910929820314476107906210059990431967233"
      ]
    },
    {
      "x": 398,
      "y": 349,
      "size": 1,
      "price": "2106000000000000000000",
      "reserved": "",
      "salt": "0x8e5a836477eb89993dc7bfc692d53309b1f5b330f5cd9e134d3895195bf1e1d5",
      "assetIds": [
        "41506478881403507969696680653240014914910929820314476107906210059990431967235",
        "41506478881403507969696680653240014914910929820314476107906210059990431967236"
      ]
    },
    {
      "x": 397,
      "y": 349,
      "size": 1,
      "price": "2106000000000000000000",
      "reserved": "",
      "salt": "0x71f225916e2a55a3cb0e3c6efa0e2da10bcaa560df29ef1a32a910fce73f3211",
      "assetIds": [
        "41506478881403507969696680653240014914910929820314476107906210059990431967233",
        "41506478881403507969696680653240014914910929820314476107906210059990431967234"
      ]
    },
    {
      "x": 398,
      "y": 351,
      "size": 1,
      "price": "2106000000000000000000",
      "reserved": "",
      "salt": "0x1c7c81e99e83d53492b601e381561befff2d0f1afd4924aab9195390eaae845e",
      "assetIds": [
        "41506478881403507969696680653240014914910929820314476107906210059990431967235",
        "41506478881403507969696680653240014914910929820314476107906210059990431967236"
      ]
    },
    {
      "x": 398,
      "y": 352,
      "size": 1,
      "price": "2106000000000000000000",
      "reserved": "",
      "salt": "0xf1b5d46ee5a4a9a57f67c792110effd9c39741b6bf5aa182798bb262d3274e1a",
      "assetIds": [
        "41506478881403507969696680653240014914910929820314476107906210059990431967233",
        "41506478881403507969696680653240014914910929820314476107906210059990431967234"
      ]
    },
    {
      "x": 399,
      "y": 352,
      "size": 1,
      "price": "2106000000000000000000",
      "reserved": "",
      "salt": "0x44e165007ca85e00fd7e6c67a771580ed3c31d8d351759bb999f2e6404559777",
      "assetIds": [
        "41506478881403507969696680653240014914910929820314476107906210059990431967232",
        "41506478881403507969696680653240014914910929820314476107906210059990431967233"
      ]
    },
    {
      "x": 402,
      "y": 351,
      "size": 1,
      "price": "2106000000000000000000",
      "reserved": "",
      "salt": "0x4aad096e7de0892b170618307764aebf7cce503a9f0b824e64f89a64faba2d5e",
      "assetIds": [
        "41506478881403507969696680653240014914910929820314476107906210059990431967233",
        "41506478881403507969696680653240014914910929820314476107906210059990431967234"
      ]
    },
    {
      "x": 400,
      "y": 351,
      "size": 1,
      "price": "2106000000000000000000",
      "reserved": "",
      "salt": "0x1452288bf269f14cdf713a156923619e52fa02bb995757a5831abbf8b4ba8ab2",
      "assetIds": [
        "41506478881403507969696680653240014914910929820314476107906210059990431967234",
        "41506478881403507969696680653240014914910929820314476107906210059990431967235"
      ]
    },
    {
      "x": 399,
      "y": 351,
      "size": 1,
      "price": "2106000000000000000000",
      "reserved": "",
      "salt": "0xe854879057e3b218ee46f68f40787a2cd8da6979cf96a0878e5a13689227e5fc",
      "assetIds": [
        "41506478881403507969696680653240014914910929820314476107906210059990431967234",
        "41506478881403507969696680653240014914910929820314476107906210059990431967235"
      ]
    },
    {
      "x": 397,
      "y": 351,
      "size": 1,
      "price": "2106000000000000000000",
      "reserved": "",
      "salt": "0xdee45a1deeedc2342849ef69e9664ca677c83d6f88824650cb07a8500393f58f",
      "assetIds": [
        "41506478881403507969696680653240014914910929820314476107906210059990431967232",
        "41506478881403507969696680653240014914910929820314476107906210059990431967233"
      ]
    },
    {
      "x": 397,
      "y": 352,
      "size": 1,
      "price": "2106000000000000000000",
      "reserved": "",
      "salt": "0x1518921146b308560628deb5fbd1a81c9a3a7ea4b77147050ea916fffeef8ce5",
      "assetIds": [
        "41506478881403507969696680653240014914910929820314476107906210059990431967235",
        "41506478881403507969696680653240014914910929820314476107906210059990431967236"
      ]
    },
    {
      "x": 398,
      "y": 353,
      "size": 1,
      "price": "2106000000000000000000",
      "reserved": "",
      "salt": "0xb38afe706afeeb8286398ea1b1f70adc158f9a4a3528b793ec2cc4e06546b9f5",
      "assetIds": [
        "41506478881403507969696680653240014914910929820314476107906210059990431967234",
        "41506478881403507969696680653240014914910929820314476107906210059990431967235"
      ]
    },
    {
      "x": 399,
      "y": 353,
      "size": 1,
      "price": "2106000000000000000000",
      "reserved": "",
      "salt": "0xec5679330012e43d8a2321ee991d3db0f99aa90e5856f7e3c638c9077e3ab20a",
      "assetIds": [
        "41506478881403507969696680653240014914910929820314476107906210059990431967233",
        "41506478881403507969696680653240014914910929820314476107906210059990431967234"
      ]
    },
    {
      "x": 400,
      "y": 353,
      "size": 1,
      "price": "2106000000000000000000",
      "reserved": "",
      "salt": "0xdfec16f8333755df54f920c0e019c0e85212ef4952916eed2081e3d7b6d8baf0",
      "assetIds": [
        "41506478881403507969696680653240014914910929820314476107906210059990431967235",
        "41506478881403507969696680653240014914910929820314476107906210059990431967236"
      ]
    },
    {
      "x": 397,
      "y": 353,
      "size": 1,
      "price": "2106000000000000000000",
      "reserved": "",
      "salt": "0xbd46748ee8d19acd013820eb247d5168785841813e3023292f01df3cd12b7ac0",
      "assetIds": [
        "41506478881403507969696680653240014914910929820314476107906210059990431967232",
        "41506478881403507969696680653240014914910929820314476107906210059990431967233"
      ]
    },
    {
      "x": 397,
      "y": 354,
      "size": 1,
      "price": "2106000000000000000000",
      "reserved": "",
      "salt": "0x3935bc9cf11297c25e7150293bf23291d9c9308aeb0ec572e3f2ade37b97dd82",
      "assetIds": [
        "41506478881403507969696680653240014914910929820314476107906210059990431967234",
        "41506478881403507969696680653240014914910929820314476107906210059990431967235"
      ]
    },
    {
      "x": 398,
      "y": 354,
      "size": 1,
      "price": "2106000000000000000000",
      "reserved": "",
      "salt": "0x88c98df678c429b22c524e6300d58ff3f3539bcfcac82e0d3a92d9bbe92d4571",
      "assetIds": [
        "41506478881403507969696680653240014914910929820314476107906210059990431967235",
        "41506478881403507969696680653240014914910929820314476107906210059990431967236"
      ]
    },
    {
      "x": 399,
      "y": 354,
      "size": 1,
      "price": "2106000000000000000000",
      "reserved": "",
      "salt": "0xdabfd3e33d93b48759641931e33881d44fb0a6416be492055e5f57a93e8c2672",
      "assetIds": [
        "41506478881403507969696680653240014914910929820314476107906210059990431967235",
        "41506478881403507969696680653240014914910929820314476107906210059990431967236"
      ]
    },
    {
      "x": 400,
      "y": 354,
      "size": 1,
      "price": "2106000000000000000000",
      "reserved": "",
      "salt": "0xda8967e7c881cc8202805d26c968ea5d4d774a4967e13eecd5502e348b69c6b0",
      "assetIds": [
        "41506478881403507969696680653240014914910929820314476107906210059990431967232",
        "41506478881403507969696680653240014914910929820314476107906210059990431967233"
      ]
    },
    {
      "x": 400,
      "y": 355,
      "size": 1,
      "price": "2106000000000000000000",
      "reserved": "",
      "salt": "0x66e5f3d8ce007d5019f76d28a9678690e14932414ba403a0722d2b31a58b116a",
      "assetIds": [
        "41506478881403507969696680653240014914910929820314476107906210059990431967233",
        "41506478881403507969696680653240014914910929820314476107906210059990431967234"
      ]
    },
    {
      "x": 399,
      "y": 355,
      "size": 1,
      "price": "2106000000000000000000",
      "reserved": "",
      "salt": "0x7171d2d8b8ca4e4074792da0f08ff4ee70e5b43d04c638a326fd6d8ecb6cc3c6",
      "assetIds": [
        "41506478881403507969696680653240014914910929820314476107906210059990431967233",
        "41506478881403507969696680653240014914910929820314476107906210059990431967234"
      ]
    },
    {
      "x": 398,
      "y": 355,
      "size": 1,
      "price": "2106000000000000000000",
      "reserved": "",
      "salt": "0x1e13f1e5cac952cb5a200139cb9f662c717a26e830de7311e2725750a0dfcd44",
      "assetIds": [
        "41506478881403507969696680653240014914910929820314476107906210059990431967232",
        "41506478881403507969696680653240014914910929820314476107906210059990431967233"
      ]
    },
    {
      "x": 405,
      "y": 351,
      "size": 1,
      "price": "2106000000000000000000",
      "reserved": "",
      "salt": "0xf1d8e5f9dabbd569fa41bdb0cec8291d617c54b4dc422874948f2d43985546eb",
      "assetIds": [
        "41506478881403507969696680653240014914910929820314476107906210059990431967234",
        "41506478881403507969696680653240014914910929820314476107906210059990431967235"
      ]
    },
    {
      "x": 405,
      "y": 350,
      "size": 1,
      "price": "2106000000000000000000",
      "reserved": "",
      "salt": "0xee3eff1b303fef48844ea5e649973241261c3e5ac631e4e2795fc6ae871f1831",
      "assetIds": [
        "41506478881403507969696680653240014914910929820314476107906210059990431967235",
        "41506478881403507969696680653240014914910929820314476107906210059990431967236"
      ]
    },
    {
      "x": 404,
      "y": 350,
      "size": 1,
      "price": "2106000000000000000000",
      "reserved": "",
      "salt": "0x04bbfb952f9a33c9f736055679432ed8cff18a79f7cf0ce31b0cad3c99a38b6a",
      "assetIds": [
        "41506478881403507969696680653240014914910929820314476107906210059990431967232",
        "41506478881403507969696680653240014914910929820314476107906210059990431967233"
      ]
    },
    {
      "x": 403,
      "y": 350,
      "size": 1,
      "price": "2106000000000000000000",
      "reserved": "",
      "salt": "0xbe99af3c76b7d6f5cb3ef30ad95e644c52158f81a97d2974ededbbaf67c5f1ad",
      "assetIds": [
        "41506478881403507969696680653240014914910929820314476107906210059990431967233",
        "41506478881403507969696680653240014914910929820314476107906210059990431967234"
      ]
    },
    {
      "x": 406,
      "y": 350,
      "size": 1,
      "price": "2106000000000000000000",
      "reserved": "",
      "salt": "0x071ce89b97b6ec8434ea419fd431f4bb7610cb6c4c60d28e24884c4ec95754dd",
      "assetIds": [
        "41506478881403507969696680653240014914910929820314476107906210059990431967233",
        "41506478881403507969696680653240014914910929820314476107906210059990431967234"
      ]
    },
    {
      "x": 406,
      "y": 351,
      "size": 1,
      "price": "2106000000000000000000",
      "reserved": "",
      "salt": "0x5ab3fad8af32f1a6b7dc1a9d8b15e177798629da28fb92200b944cc506889ea0",
      "assetIds": [
        "41506478881403507969696680653240014914910929820314476107906210059990431967233",
        "41506478881403507969696680653240014914910929820314476107906210059990431967234"
      ]
    },
    {
      "x": 406,
      "y": 352,
      "size": 1,
      "price": "2106000000000000000000",
      "reserved": "",
      "salt": "0x8d503cfcdc98a82b7d2c25362dc66251a5a1bb73550b547687016fa45e67887f",
      "assetIds": [
        "41506478881403507969696680653240014914910929820314476107906210059990431967235",
        "41506478881403507969696680653240014914910929820314476107906210059990431967236"
      ]
    },
    {
      "x": 405,
      "y": 352,
      "size": 1,
      "price": "2106000000000000000000",
      "reserved": "",
      "salt": "0x12c5a0004ba603a945b372d0f7bea4839b12d78449a6753c48a1dceabd599cb8",
      "assetIds": [
        "41506478881403507969696680653240014914910929820314476107906210059990431967234",
        "41506478881403507969696680653240014914910929820314476107906210059990431967235"
      ]
    },
    {
      "x": 404,
      "y": 352,
      "size": 1,
      "price": "2106000000000000000000",
      "reserved": "",
      "salt": "0x65438fcde4bb5febca5a7cc9173cf4976e827adc4df5f728f3b1fab3d6a2dfb3",
      "assetIds": [
        "41506478881403507969696680653240014914910929820314476107906210059990431967234",
        "41506478881403507969696680653240014914910929820314476107906210059990431967235"
      ]
    },
    {
      "x": 404,
      "y": 351,
      "size": 1,
      "price": "2106000000000000000000",
      "reserved": "",
      "salt": "0x1292ce5698c14457330d758aa492e72328b97d309133bee2f4017645cec2d86b",
      "assetIds": [
        "41506478881403507969696680653240014914910929820314476107906210059990431967233",
        "41506478881403507969696680653240014914910929820314476107906210059990431967234"
      ]
    },
    {
      "x": 395,
      "y": 353,
      "size": 1,
      "price": "2106000000000000000000",
      "reserved": "",
      "salt": "0x3ae7ed963eeb7b31bc4dd845e7c32c478781005871a09336485d89721c711cab",
      "assetIds": [
        "41506478881403507969696680653240014914910929820314476107906210059990431967235",
        "41506478881403507969696680653240014914910929820314476107906210059990431967236"
      ]
    },
    {
      "x": 394,
      "y": 353,
      "size": 1,
      "price": "2106000000000000000000",
      "reserved": "",
      "salt": "0xc37714fa71d95f8bffb173fd94ed3419f765a5d31a594f006c2ec9550fc91061",
      "assetIds": [
        "41506478881403507969696680653240014914910929820314476107906210059990431967232",
        "41506478881403507969696680653240014914910929820314476107906210059990431967233"
      ]
    },
    {
      "x": 392,
      "y": 353,
      "size": 1,
      "price": "2106000000000000000000",
      "reserved": "",
      "salt": "0x77886140524084037b6b50256429f500491fdf64a40f318500c80829f9925f79",
      "assetIds": [
        "41506478881403507969696680653240014914910929820314476107906210059990431967234",
        "41506478881403507969696680653240014914910929820314476107906210059990431967235"
      ]
    },
    {
      "x": 391,
      "y": 353,
      "size": 1,
      "price": "2106000000000000000000",
      "reserved": "",
      "salt": "0xc0c3bf1772ee5a8a612c3ee445cb05bf462bd46bb7fddde8b5f8f6b9f20f2070",
      "assetIds": [
        "41506478881403507969696680653240014914910929820314476107906210059990431967233",
        "41506478881403507969696680653240014914910929820314476107906210059990431967234"
      ]
    },
    {
      "x": 390,
      "y": 353,
      "size": 1,
      "price": "2106000000000000000000",
      "reserved": "",
      "salt": "0x794d4c851a79c863e52c991013525c3f46ed4ca3c1d2b9e5ebc5a610afaf4273",
      "assetIds": [
        "41506478881403507969696680653240014914910929820314476107906210059990431967235",
        "41506478881403507969696680653240014914910929820314476107906210059990431967236"
      ]
    },
    {
      "x": 389,
      "y": 353,
      "size": 1,
      "price": "2106000000000000000000",
      "reserved": "",
      "salt": "0x5979f74347e76843a4c82d2437f25b1b814bf6f9bd19401be910cf7a2049fc2e",
      "assetIds": [
        "41506478881403507969696680653240014914910929820314476107906210059990431967233",
        "41506478881403507969696680653240014914910929820314476107906210059990431967234"
      ]
    },
    {
      "x": 388,
      "y": 353,
      "size": 1,
      "price": "2106000000000000000000",
      "reserved": "",
      "salt": "0x7a32013946099eda5024c2c61452f7e934c2d79f539e3fba7c37ecf639616f3c",
      "assetIds": [
        "41506478881403507969696680653240014914910929820314476107906210059990431967232",
        "41506478881403507969696680653240014914910929820314476107906210059990431967233"
      ]
    },
    {
      "x": 387,
      "y": 353,
      "size": 1,
      "price": "2106000000000000000000",
      "reserved": "",
      "salt": "0x0f5f23ddeeba7252b3643aa9b0ec483d928dd45cca02631bc7a281534e755a4f",
      "assetIds": [
        "41506478881403507969696680653240014914910929820314476107906210059990431967233",
        "41506478881403507969696680653240014914910929820314476107906210059990431967234"
      ]
    },
    {
      "x": 386,
      "y": 353,
      "size": 1,
      "price": "2106000000000000000000",
      "reserved": "",
      "salt": "0xca4453d6ceb7f997d639d914815e8c3ce59fbd9777f5a7f1fb5ff0106161e387",
      "assetIds": [
        "41506478881403507969696680653240014914910929820314476107906210059990431967235",
        "41506478881403507969696680653240014914910929820314476107906210059990431967236"
      ]
    },
    {
      "x": 385,
      "y": 353,
      "size": 1,
      "price": "2106000000000000000000",
      "reserved": "",
      "salt": "0x35672a264275d360b96ed0fb199d431c84845dad2a0940643828c379e73abea5",
      "assetIds": [
        "41506478881403507969696680653240014914910929820314476107906210059990431967235",
        "41506478881403507969696680653240014914910929820314476107906210059990431967236"
      ]
    },
    {
      "x": 384,
      "y": 353,
      "size": 1,
      "price": "2106000000000000000000",
      "reserved": "",
      "salt": "0x6d8fdd8915cd03e108645f28f6ba23b2e792cbe77227040441969b077b376a47",
      "assetIds": [
        "41506478881403507969696680653240014914910929820314476107906210059990431967233",
        "41506478881403507969696680653240014914910929820314476107906210059990431967234"
      ]
    },
    {
      "x": 383,
      "y": 353,
      "size": 1,
      "price": "2106000000000000000000",
      "reserved": "",
      "salt": "0x6efa9ec98a33d289bf78187692d3474b25ca370c7a4ee7a2e901349716406f53",
      "assetIds": [
        "41506478881403507969696680653240014914910929820314476107906210059990431967234",
        "41506478881403507969696680653240014914910929820314476107906210059990431967235"
      ]
    },
    {
      "x": 382,
      "y": 353,
      "size": 1,
      "price": "2106000000000000000000",
      "reserved": "",
      "salt": "0x707d3cc8c90ceb5a80a17685ffe630f4daea285812a0e4b00ebb2623f5a12200",
      "assetIds": [
        "41506478881403507969696680653240014914910929820314476107906210059990431967234",
        "41506478881403507969696680653240014914910929820314476107906210059990431967235"
      ]
    },
    {
      "x": 381,
      "y": 353,
      "size": 1,
      "price": "2106000000000000000000",
      "reserved": "",
      "salt": "0x49a7aa1af4a4bd9393ba558d204624a904773c3de53fa911008f7916e4379854",
      "assetIds": [
        "41506478881403507969696680653240014914910929820314476107906210059990431967235",
        "41506478881403507969696680653240014914910929820314476107906210059990431967236"
      ]
    },
    {
      "x": 372,
      "y": 353,
      "size": 1,
      "price": "2106000000000000000000",
      "reserved": "",
      "salt": "0x74a9a8129da9de996adc0e2d34605d3eb05d87c9aed0612de6b14c46a422829a",
      "assetIds": [
        "41506478881403507969696680653240014914910929820314476107906210059990431967235",
        "41506478881403507969696680653240014914910929820314476107906210059990431967236"
      ]
    },
    {
      "x": 373,
      "y": 353,
      "size": 1,
      "price": "2106000000000000000000",
      "reserved": "",
      "salt": "0xd5e2f1844936b3dc5a4fe2fec414df4f66b8e534e5a136af19af071b0a7fff9e",
      "assetIds": [
        "41506478881403507969696680653240014914910929820314476107906210059990431967235",
        "41506478881403507969696680653240014914910929820314476107906210059990431967236"
      ]
    },
    {
      "x": 374,
      "y": 353,
      "size": 1,
      "price": "2106000000000000000000",
      "reserved": "",
      "salt": "0x617c10b43b8bf0a48ffb14efce0fb4a7248865446b920a3aade53e98e9ebb295",
      "assetIds": [
        "41506478881403507969696680653240014914910929820314476107906210059990431967234",
        "41506478881403507969696680653240014914910929820314476107906210059990431967235"
      ]
    },
    {
      "x": 375,
      "y": 353,
      "size": 1,
      "price": "2106000000000000000000",
      "reserved": "",
      "salt": "0x9f01b6390a9bb5ee5a253bed6ee165fb202da2882e979c633ccc1f8743732cbb",
      "assetIds": [
        "41506478881403507969696680653240014914910929820314476107906210059990431967232",
        "41506478881403507969696680653240014914910929820314476107906210059990431967233"
      ]
    },
    {
      "x": 376,
      "y": 353,
      "size": 1,
      "price": "2106000000000000000000",
      "reserved": "",
      "salt": "0x49741edb6cbc426827ec2ea39b7a77a1e0df1b7868b1a164feabf194d17d19b9",
      "assetIds": [
        "41506478881403507969696680653240014914910929820314476107906210059990431967234",
        "41506478881403507969696680653240014914910929820314476107906210059990431967235"
      ]
    },
    {
      "x": 377,
      "y": 353,
      "size": 1,
      "price": "2106000000000000000000",
      "reserved": "",
      "salt": "0x4446be8f9b2097398b5e61fa8741faa655b8fa2e4ec69396797f65d12bf09a24",
      "assetIds": [
        "41506478881403507969696680653240014914910929820314476107906210059990431967234",
        "41506478881403507969696680653240014914910929820314476107906210059990431967235"
      ]
    },
    {
      "x": 378,
      "y": 353,
      "size": 1,
      "price": "2106000000000000000000",
      "reserved": "",
      "salt": "0xc28c83141184f8fc94f2d4bce5dc2b6753bdaf4185347302ca9d56dbed79b35b",
      "assetIds": [
        "41506478881403507969696680653240014914910929820314476107906210059990431967234",
        "41506478881403507969696680653240014914910929820314476107906210059990431967235"
      ]
    },
    {
      "x": 379,
      "y": 353,
      "size": 1,
      "price": "2106000000000000000000",
      "reserved": "",
      "salt": "0x76c371d484c17c7e801b58b244fe6de90d6ce2c65d72e2750ed0463eaa13d297",
      "assetIds": [
        "41506478881403507969696680653240014914910929820314476107906210059990431967234",
        "41506478881403507969696680653240014914910929820314476107906210059990431967235"
      ]
    },
    {
      "x": 380,
      "y": 353,
      "size": 1,
      "price": "2106000000000000000000",
      "reserved": "",
      "salt": "0xaa13dc1bfb9db50c16648e098b29b0d15d70b723e757e0f54823411dde5f38ad",
      "assetIds": [
        "41506478881403507969696680653240014914910929820314476107906210059990431967234",
        "41506478881403507969696680653240014914910929820314476107906210059990431967235"
      ]
    },
    {
      "x": 372,
      "y": 352,
      "size": 1,
      "price": "2106000000000000000000",
      "reserved": "",
      "salt": "0xd642998e31e0be87dbe94e5ee7adfc73cbacbdd3d979da2d40108d555f138434",
      "assetIds": [
        "41506478881403507969696680653240014914910929820314476107906210059990431967232",
        "41506478881403507969696680653240014914910929820314476107906210059990431967233"
      ]
    },
    {
      "x": 372,
      "y": 350,
      "size": 1,
      "price": "2106000000000000000000",
      "reserved": "",
      "salt": "0xd7ddbf175a320a1027a5144b95c556195d52d21d99c80a7a2e346f48c18144de",
      "assetIds": [
        "41506478881403507969696680653240014914910929820314476107906210059990431967234",
        "41506478881403507969696680653240014914910929820314476107906210059990431967235"
      ]
    },
    {
      "x": 372,
      "y": 349,
      "size": 1,
      "price": "2106000000000000000000",
      "reserved": "",
      "salt": "0x58d3e75c04c2ca0d1d2689ea9a2bd0e0b624fab2f39c33391f6786571055bc29",
      "assetIds": [
        "41506478881403507969696680653240014914910929820314476107906210059990431967234",
        "41506478881403507969696680653240014914910929820314476107906210059990431967235"
      ]
    },
    {
      "x": 372,
      "y": 348,
      "size": 1,
      "price": "2106000000000000000000",
      "reserved": "",
      "salt": "0x0a12f9680468f2bdf1241ed1b34871ea81863925a394012069b5de6abf140e8d",
      "assetIds": [
        "41506478881403507969696680653240014914910929820314476107906210059990431967233",
        "41506478881403507969696680653240014914910929820314476107906210059990431967234"
      ]
    },
    {
      "x": 371,
      "y": 351,
      "size": 1,
      "price": "2106000000000000000000",
      "reserved": "",
      "salt": "0x7d0d390926ad892964b57d7a804446d4c6c82a1e5edf5219f1810ada9f684d01",
      "assetIds": [
        "41506478881403507969696680653240014914910929820314476107906210059990431967232",
        "41506478881403507969696680653240014914910929820314476107906210059990431967233"
      ]
    },
    {
      "x": 370,
      "y": 351,
      "size": 1,
      "price": "2106000000000000000000",
      "reserved": "",
      "salt": "0x8444b0b2a8cbb42a8db35e5004ffcefa2a62fd84f4a779934385ae11d8d9a211",
      "assetIds": [
        "41506478881403507969696680653240014914910929820314476107906210059990431967234",
        "41506478881403507969696680653240014914910929820314476107906210059990431967235"
      ]
    },
    {
      "x": 369,
      "y": 351,
      "size": 1,
      "price": "2106000000000000000000",
      "reserved": "",
      "salt": "0x2488a7dc36c282011ea35a3d9cc08a82929cd834d9e5c32685d641d6dd615112",
      "assetIds": [
        "41506478881403507969696680653240014914910929820314476107906210059990431967234",
        "41506478881403507969696680653240014914910929820314476107906210059990431967235"
      ]
    },
    {
      "x": 368,
      "y": 351,
      "size": 1,
      "price": "2106000000000000000000",
      "reserved": "",
      "salt": "0x2d82586be994a57d92371ce90552b62b2f0cfc65b5a718ec53ebe73490076c03",
      "assetIds": [
        "41506478881403507969696680653240014914910929820314476107906210059990431967232",
        "41506478881403507969696680653240014914910929820314476107906210059990431967233"
      ]
    },
    {
      "x": 367,
      "y": 351,
      "size": 1,
      "price": "2106000000000000000000",
      "reserved": "",
      "salt": "0x88cb381ee43ca6c4875bf3de5f09549704585f90ecd29f9c2d99da96f6bfd279",
      "assetIds": [
        "41506478881403507969696680653240014914910929820314476107906210059990431967235",
        "41506478881403507969696680653240014914910929820314476107906210059990431967236"
      ]
    },
    {
      "x": 366,
      "y": 351,
      "size": 1,
      "price": "2106000000000000000000",
      "reserved": "",
      "salt": "0xe6f569d67137903b3874e5da155d890a36a0630aab96ec7724d41c5d22632faa",
      "assetIds": [
        "41506478881403507969696680653240014914910929820314476107906210059990431967233",
        "41506478881403507969696680653240014914910929820314476107906210059990431967234"
      ]
    },
    {
      "x": 366,
      "y": 352,
      "size": 1,
      "price": "2106000000000000000000",
      "reserved": "",
      "salt": "0x9ae5528c00328ee61a539a9ba0f4228b3a783657c90450c5dc7d7fdd6cbce489",
      "assetIds": [
        "41506478881403507969696680653240014914910929820314476107906210059990431967235",
        "41506478881403507969696680653240014914910929820314476107906210059990431967236"
      ]
    },
    {
      "x": 365,
      "y": 352,
      "size": 1,
      "price": "2106000000000000000000",
      "reserved": "",
      "salt": "0xc605d644410273dca8d9db0094e6f736061c01d2444c1c90c914fdac33facd5a",
      "assetIds": [
        "41506478881403507969696680653240014914910929820314476107906210059990431967233",
        "41506478881403507969696680653240014914910929820314476107906210059990431967234"
      ]
    },
    {
      "x": 364,
      "y": 352,
      "size": 1,
      "price": "2106000000000000000000",
      "reserved": "",
      "salt": "0x36be481ecce4a6b2f0e078a7c1a1643892fac628499dbc9952b3625d453bf022",
      "assetIds": [
        "41506478881403507969696680653240014914910929820314476107906210059990431967233",
        "41506478881403507969696680653240014914910929820314476107906210059990431967234"
      ]
    },
    {
      "x": 363,
      "y": 352,
      "size": 1,
      "price": "2106000000000000000000",
      "reserved": "",
      "salt": "0x01c0620cc025ec66bc3e7282405b193dabe920cd56aed4cc02f1061d6fd29268",
      "assetIds": [
        "41506478881403507969696680653240014914910929820314476107906210059990431967232",
        "41506478881403507969696680653240014914910929820314476107906210059990431967233"
      ]
    },
    {
      "x": 362,
      "y": 352,
      "size": 1,
      "price": "2106000000000000000000",
      "reserved": "",
      "salt": "0xbd35e9d4d523ddee29f0c152a2bcb52757df1309621bbc62809015e2efe0be9e",
      "assetIds": [
        "41506478881403507969696680653240014914910929820314476107906210059990431967233",
        "41506478881403507969696680653240014914910929820314476107906210059990431967234"
      ]
    },
    {
      "x": 361,
      "y": 352,
      "size": 1,
      "price": "2106000000000000000000",
      "reserved": "",
      "salt": "0x486e0cc8742a81ce67c5f10dc66fb28ca85a60760abf76efb2348a9489bdfd68",
      "assetIds": [
        "41506478881403507969696680653240014914910929820314476107906210059990431967235",
        "41506478881403507969696680653240014914910929820314476107906210059990431967236"
      ]
    },
    {
      "x": 360,
      "y": 352,
      "size": 1,
      "price": "2106000000000000000000",
      "reserved": "",
      "salt": "0x6bea474a5419b92847bb2c195beebac1bc87b445e2b71168714944c8c981d646",
      "assetIds": [
        "41506478881403507969696680653240014914910929820314476107906210059990431967234",
        "41506478881403507969696680653240014914910929820314476107906210059990431967235"
      ]
    },
    {
      "x": 359,
      "y": 352,
      "size": 1,
      "price": "2106000000000000000000",
      "reserved": "",
      "salt": "0x5a874124295794ddb6dd80cb863c2b2f5d352bc780b6ba63aed629734a535ac0",
      "assetIds": [
        "41506478881403507969696680653240014914910929820314476107906210059990431967232",
        "41506478881403507969696680653240014914910929820314476107906210059990431967233"
      ]
    },
    {
      "x": 358,
      "y": 352,
      "size": 1,
      "price": "2106000000000000000000",
      "reserved": "",
      "salt": "0x41b131e50dc8aaf45d948a5552b2eb47aa788eddc95d8a705a9b32eb1a79259b",
      "assetIds": [
        "41506478881403507969696680653240014914910929820314476107906210059990431967232",
        "41506478881403507969696680653240014914910929820314476107906210059990431967233"
      ]
    },
    {
      "x": 357,
      "y": 352,
      "size": 1,
      "price": "2106000000000000000000",
      "reserved": "",
      "salt": "0x4bed634d5ddb5743d0db64b99d4bd7006deb4794fcfeddca40d38f923e5c1bac",
      "assetIds": [
        "41506478881403507969696680653240014914910929820314476107906210059990431967232",
        "41506478881403507969696680653240014914910929820314476107906210059990431967233"
      ]
    },
    {
      "x": 359,
      "y": 353,
      "size": 1,
      "price": "2106000000000000000000",
      "reserved": "",
      "salt": "0x93b13768792ea17950656726e7ea7d518c83ec585dd89ebf8ae1bcd9fab7868c",
      "assetIds": [
        "41506478881403507969696680653240014914910929820314476107906210059990431967235",
        "41506478881403507969696680653240014914910929820314476107906210059990431967236"
      ]
    },
    {
      "x": 368,
      "y": 352,
      "size": 1,
      "price": "2106000000000000000000",
      "reserved": "",
      "salt": "0x8a38c9c0559442f27dbd2fec873f8622cf766f9f73ec1381bd2afd12fa9524d8",
      "assetIds": [
        "41506478881403507969696680653240014914910929820314476107906210059990431967232",
        "41506478881403507969696680653240014914910929820314476107906210059990431967233"
      ]
    },
    {
      "x": 367,
      "y": 352,
      "size": 1,
      "price": "2106000000000000000000",
      "reserved": "",
      "salt": "0x59afce36eaa5f8a343f245548d1eebb60f755847252ba1d2972e0c390c3363cb",
      "assetIds": [
        "41506478881403507969696680653240014914910929820314476107906210059990431967232",
        "41506478881403507969696680653240014914910929820314476107906210059990431967233"
      ]
    },
    {
      "x": 368,
      "y": 353,
      "size": 1,
      "price": "2106000000000000000000",
      "reserved": "",
      "salt": "0xec4238551302a171e4a31b1658a64545f316a3f935277b12ddfb7b73894b7ecc",
      "assetIds": [
        "41506478881403507969696680653240014914910929820314476107906210059990431967232",
        "41506478881403507969696680653240014914910929820314476107906210059990431967233"
      ]
    },
    {
      "x": 367,
      "y": 353,
      "size": 1,
      "price": "2106000000000000000000",
      "reserved": "",
      "salt": "0x5eee9cd41511687dc86873dc1e1c415ccc9aa7f631087a4be875fda30a6c7415",
      "assetIds": [
        "41506478881403507969696680653240014914910929820314476107906210059990431967233",
        "41506478881403507969696680653240014914910929820314476107906210059990431967234"
      ]
    },
    {
      "x": 366,
      "y": 353,
      "size": 1,
      "price": "2106000000000000000000",
      "reserved": "",
      "salt": "0x2843ba898880b9220411aaffa5970bed3fbab894a512ef9deba8b8bb1c841008",
      "assetIds": [
        "41506478881403507969696680653240014914910929820314476107906210059990431967234",
        "41506478881403507969696680653240014914910929820314476107906210059990431967235"
      ]
    },
    {
      "x": 365,
      "y": 353,
      "size": 1,
      "price": "2106000000000000000000",
      "reserved": "",
      "salt": "0x38bd476ad308f75c2cc70266a94a78deceaca54135291d577e8f5dc4ff2810e4",
      "assetIds": [
        "41506478881403507969696680653240014914910929820314476107906210059990431967233",
        "41506478881403507969696680653240014914910929820314476107906210059990431967234"
      ]
    },
    {
      "x": 364,
      "y": 353,
      "size": 1,
      "price": "2106000000000000000000",
      "reserved": "",
      "salt": "0x9eeb8befd40875fb86f495a9669ad440f6840a63d7ffe2531144619f2da017cd",
      "assetIds": [
        "41506478881403507969696680653240014914910929820314476107906210059990431967234",
        "41506478881403507969696680653240014914910929820314476107906210059990431967235"
      ]
    },
    {
      "x": 363,
      "y": 353,
      "size": 1,
      "price": "2106000000000000000000",
      "reserved": "",
      "salt": "0x1bd43b69730dd1dd037d131ecc58b4f85c512433a741fcdea6dfb8f122b33a88",
      "assetIds": [
        "41506478881403507969696680653240014914910929820314476107906210059990431967232",
        "41506478881403507969696680653240014914910929820314476107906210059990431967233"
      ]
    },
    {
      "x": 362,
      "y": 353,
      "size": 1,
      "price": "2106000000000000000000",
      "reserved": "",
      "salt": "0x76eec96056ac939b3c5c09a49d499ac6074ffe8c7b2a69f4471a055f471f7007",
      "assetIds": [
        "41506478881403507969696680653240014914910929820314476107906210059990431967234",
        "41506478881403507969696680653240014914910929820314476107906210059990431967235"
      ]
    },
    {
      "x": 361,
      "y": 353,
      "size": 1,
      "price": "2106000000000000000000",
      "reserved": "",
      "salt": "0x3c727c1ab4202fb19e9efe4a442712e5ba3e50b785212a724cc7f3521bf1d984",
      "assetIds": [
        "41506478881403507969696680653240014914910929820314476107906210059990431967232",
        "41506478881403507969696680653240014914910929820314476107906210059990431967233"
      ]
    },
    {
      "x": 360,
      "y": 353,
      "size": 1,
      "price": "2106000000000000000000",
      "reserved": "",
      "salt": "0xbcb422572267a8b7a7a40f1083d8bc2ec4e4ed83fdb0b8c5073c9e4f705cb658",
      "assetIds": [
        "41506478881403507969696680653240014914910929820314476107906210059990431967232",
        "41506478881403507969696680653240014914910929820314476107906210059990431967233"
      ]
    },
    {
      "x": 358,
      "y": 353,
      "size": 1,
      "price": "2106000000000000000000",
      "reserved": "",
      "salt": "0xe97b49974573cef38e48574d7642599322c8c30cc0b69875c7e231f617931e6a",
      "assetIds": [
        "41506478881403507969696680653240014914910929820314476107906210059990431967232",
        "41506478881403507969696680653240014914910929820314476107906210059990431967233"
      ]
    },
    {
      "x": 354,
      "y": 350,
      "size": 1,
      "price": "2106000000000000000000",
      "reserved": "",
      "salt": "0x820c868522ae574c7f84d1994a753c63fa986b71481b7b0546f968d0e2d4fcac",
      "assetIds": [
        "41506478881403507969696680653240014914910929820314476107906210059990431967232",
        "41506478881403507969696680653240014914910929820314476107906210059990431967233"
      ]
    },
    {
      "x": 354,
      "y": 349,
      "size": 1,
      "price": "2106000000000000000000",
      "reserved": "",
      "salt": "0x56fb6d75af2f0297ca85d7cbce53c9bb7ebd7a1817050c97d9146923ebe46365",
      "assetIds": [
        "41506478881403507969696680653240014914910929820314476107906210059990431967234",
        "41506478881403507969696680653240014914910929820314476107906210059990431967235"
      ]
    },
    {
      "x": 354,
      "y": 348,
      "size": 1,
      "price": "2106000000000000000000",
      "reserved": "",
      "salt": "0x56b7640200d01d001ed9beb2ecfc86cb7ee4b048e6152b978b2d234c9edd572f",
      "assetIds": [
        "41506478881403507969696680653240014914910929820314476107906210059990431967235",
        "41506478881403507969696680653240014914910929820314476107906210059990431967236"
      ]
    },
    {
      "x": 354,
      "y": 347,
      "size": 1,
      "price": "2106000000000000000000",
      "reserved": "",
      "salt": "0x05d4e53fae6c4ddfd62f2cbbd13bb62fc7d84c0277169d243cc617d4fcdad983",
      "assetIds": [
        "41506478881403507969696680653240014914910929820314476107906210059990431967232",
        "41506478881403507969696680653240014914910929820314476107906210059990431967233"
      ]
    },
    {
      "x": 354,
      "y": 346,
      "size": 1,
      "price": "2106000000000000000000",
      "reserved": "",
      "salt": "0x6a82c5a6d673a32850e761bf2aad7b2dc3bf309f74f40210d027fd80a73566a1",
      "assetIds": [
        "41506478881403507969696680653240014914910929820314476107906210059990431967232",
        "41506478881403507969696680653240014914910929820314476107906210059990431967233"
      ]
    },
    {
      "x": 355,
      "y": 350,
      "size": 1,
      "price": "2106000000000000000000",
      "reserved": "",
      "salt": "0xe7c0a92d3aa3e30ba54d9dd8313c6aff9060892b36bea189a90c43720605fd2d",
      "assetIds": [
        "41506478881403507969696680653240014914910929820314476107906210059990431967233",
        "41506478881403507969696680653240014914910929820314476107906210059990431967234"
      ]
    },
    {
      "x": 356,
      "y": 350,
      "size": 1,
      "price": "2106000000000000000000",
      "reserved": "",
      "salt": "0x86883cb26c64cef40aed84708f6011530315960e77c77ceae9b0fcb8a89afb54",
      "assetIds": [
        "41506478881403507969696680653240014914910929820314476107906210059990431967232",
        "41506478881403507969696680653240014914910929820314476107906210059990431967233"
      ]
    },
    {
      "x": 357,
      "y": 350,
      "size": 1,
      "price": "2106000000000000000000",
      "reserved": "",
      "salt": "0x30fb1f9d1a46b0c7d1975cb5d04f29065783991dc1c6b7dd262a8bc19a6c3117",
      "assetIds": [
        "41506478881403507969696680653240014914910929820314476107906210059990431967235",
        "41506478881403507969696680653240014914910929820314476107906210059990431967236"
      ]
    },
    {
      "x": 358,
      "y": 350,
      "size": 1,
      "price": "2106000000000000000000",
      "reserved": "",
      "salt": "0x48ef7b2b51fe0907e54d6f39a717bfeaf9a7858187e34380cf0c24b9adcd1ad5",
      "assetIds": [
        "41506478881403507969696680653240014914910929820314476107906210059990431967234",
        "41506478881403507969696680653240014914910929820314476107906210059990431967235"
      ]
    },
    {
      "x": 359,
      "y": 350,
      "size": 1,
      "price": "2106000000000000000000",
      "reserved": "",
      "salt": "0xaa4748d505acceb0b5ccc3626bea6d276f72be83995170165adb852865b418be",
      "assetIds": [
        "41506478881403507969696680653240014914910929820314476107906210059990431967235",
        "41506478881403507969696680653240014914910929820314476107906210059990431967236"
      ]
    },
    {
      "x": 357,
      "y": 351,
      "size": 1,
      "price": "2106000000000000000000",
      "reserved": "",
      "salt": "0x5134ae57ebefe339efc913f9e424c6fe06b293d50312e4171929782f197602d8",
      "assetIds": [
        "41506478881403507969696680653240014914910929820314476107906210059990431967235",
        "41506478881403507969696680653240014914910929820314476107906210059990431967236"
      ]
    },
    {
      "x": 358,
      "y": 349,
      "size": 1,
      "price": "2106000000000000000000",
      "reserved": "",
      "salt": "0x6f4a11b262c0fff5940f94edf94dacbf979ab91830db4ea53c53d109c495775d",
      "assetIds": [
        "41506478881403507969696680653240014914910929820314476107906210059990431967235",
        "41506478881403507969696680653240014914910929820314476107906210059990431967236"
      ]
    },
    {
      "x": 354,
      "y": 344,
      "size": 1,
      "price": "2106000000000000000000",
      "reserved": "",
      "salt": "0x7f9c1231e5226c6b8959aaf99b1636ffe22bc3fdbd2364c0892ae45767db89e4",
      "assetIds": [
        "41506478881403507969696680653240014914910929820314476107906210059990431967235",
        "41506478881403507969696680653240014914910929820314476107906210059990431967236"
      ]
    },
    {
      "x": 354,
      "y": 343,
      "size": 1,
      "price": "2106000000000000000000",
      "reserved": "",
      "salt": "0x21ee93031688b2d147e70de8dce04859637b19d40b83b1b183ae6697d717d103",
      "assetIds": [
        "41506478881403507969696680653240014914910929820314476107906210059990431967233",
        "41506478881403507969696680653240014914910929820314476107906210059990431967234"
      ]
    },
    {
      "x": 354,
      "y": 342,
      "size": 1,
      "price": "2106000000000000000000",
      "reserved": "",
      "salt": "0x1eed30d84831fa6de4368721631cb1ac74d133742abc425d4c674c3dbb98e52f",
      "assetIds": [
        "41506478881403507969696680653240014914910929820314476107906210059990431967232",
        "41506478881403507969696680653240014914910929820314476107906210059990431967233"
      ]
    },
    {
      "x": 355,
      "y": 341,
      "size": 1,
      "price": "2106000000000000000000",
      "reserved": "",
      "salt": "0xef8276aec7e869b13cbe76fcf8190902f49c665375708d72e7ec7ca4132d4460",
      "assetIds": [
        "41506478881403507969696680653240014914910929820314476107906210059990431967232",
        "41506478881403507969696680653240014914910929820314476107906210059990431967233"
      ]
    },
    {
      "x": 355,
      "y": 340,
      "size": 1,
      "price": "2106000000000000000000",
      "reserved": "",
      "salt": "0x660a16008e169a2eaa9004f4e7a4094e2353940a243d05ce7eac1437e08bbf99",
      "assetIds": [
        "41506478881403507969696680653240014914910929820314476107906210059990431967233",
        "41506478881403507969696680653240014914910929820314476107906210059990431967234"
      ]
    },
    {
      "x": 355,
      "y": 339,
      "size": 1,
      "price": "2106000000000000000000",
      "reserved": "",
      "salt": "0xa662cccc209eab44137935fbbfb7a2a01ea389c5cc1754893515c9a585c1a85f",
      "assetIds": [
        "41506478881403507969696680653240014914910929820314476107906210059990431967232",
        "41506478881403507969696680653240014914910929820314476107906210059990431967233"
      ]
    },
    {
      "x": 354,
      "y": 339,
      "size": 1,
      "price": "2106000000000000000000",
      "reserved": "",
      "salt": "0x690463074007f5cb36b0408351729055d93a190c43bd0e473ad9ea3075f9baf1",
      "assetIds": [
        "41506478881403507969696680653240014914910929820314476107906210059990431967233",
        "41506478881403507969696680653240014914910929820314476107906210059990431967234"
      ]
    },
    {
      "x": 354,
      "y": 340,
      "size": 1,
      "price": "2106000000000000000000",
      "reserved": "",
      "salt": "0xfbaf6c0e77689e79639ce3ab8002d007570dcf77a1e1d86dcc839d3ae35fef88",
      "assetIds": [
        "41506478881403507969696680653240014914910929820314476107906210059990431967232",
        "41506478881403507969696680653240014914910929820314476107906210059990431967233"
      ]
    },
    {
      "x": 354,
      "y": 341,
      "size": 1,
      "price": "2106000000000000000000",
      "reserved": "",
      "salt": "0x0204ac64574d96d0267bad86fc1f52f5fd99a99eed5c8db3635ce48891a76d06",
      "assetIds": [
        "41506478881403507969696680653240014914910929820314476107906210059990431967234",
        "41506478881403507969696680653240014914910929820314476107906210059990431967235"
      ]
    },
    {
      "x": 355,
      "y": 342,
      "size": 1,
      "price": "2106000000000000000000",
      "reserved": "",
      "salt": "0xe4defc6c2f81aeb913ae45069715f01986cb1ac174499af17331bfb19cd61b19",
      "assetIds": [
        "41506478881403507969696680653240014914910929820314476107906210059990431967234",
        "41506478881403507969696680653240014914910929820314476107906210059990431967235"
      ]
    },
    {
      "x": 356,
      "y": 342,
      "size": 1,
      "price": "2106000000000000000000",
      "reserved": "",
      "salt": "0x767659e54335a6637bf9520ce5a0b6af92f3cee15ed167b8c1d59b5ef7da6bd1",
      "assetIds": [
        "41506478881403507969696680653240014914910929820314476107906210059990431967235",
        "41506478881403507969696680653240014914910929820314476107906210059990431967236"
      ]
    },
    {
      "x": 356,
      "y": 341,
      "size": 1,
      "price": "2106000000000000000000",
      "reserved": "",
      "salt": "0xb168b9014e847db1b46580418190317621246efe03067a42656a350b3a271729",
      "assetIds": [
        "41506478881403507969696680653240014914910929820314476107906210059990431967233",
        "41506478881403507969696680653240014914910929820314476107906210059990431967234"
      ]
    },
    {
      "x": 357,
      "y": 341,
      "size": 1,
      "price": "2106000000000000000000",
      "reserved": "",
      "salt": "0xd00e4b4aef1f63a85e1f55889d1ee3e7dc52fa551e854183b3d4b252069c0e9c",
      "assetIds": [
        "41506478881403507969696680653240014914910929820314476107906210059990431967235",
        "41506478881403507969696680653240014914910929820314476107906210059990431967236"
      ]
    },
    {
      "x": 358,
      "y": 341,
      "size": 1,
      "price": "2106000000000000000000",
      "reserved": "",
      "salt": "0xaa19f02cd98b2a708b04e9d64e955245746fc52abdba1953f37720f705e3d195",
      "assetIds": [
        "41506478881403507969696680653240014914910929820314476107906210059990431967234",
        "41506478881403507969696680653240014914910929820314476107906210059990431967235"
      ]
    },
    {
      "x": 358,
      "y": 340,
      "size": 1,
      "price": "2106000000000000000000",
      "reserved": "",
      "salt": "0x94e4c478e23941f7a5365037ff6548db7a6a9dd3cfbd073accfbefac5322eac0",
      "assetIds": [
        "41506478881403507969696680653240014914910929820314476107906210059990431967235",
        "41506478881403507969696680653240014914910929820314476107906210059990431967236"
      ]
    },
    {
      "x": 359,
      "y": 340,
      "size": 1,
      "price": "2106000000000000000000",
      "reserved": "",
      "salt": "0xa47e7dc971a4a6f5978b6887137a23831aeabc17dc4f909619f2e928b7b3fa75",
      "assetIds": [
        "41506478881403507969696680653240014914910929820314476107906210059990431967233",
        "41506478881403507969696680653240014914910929820314476107906210059990431967234"
      ]
    },
    {
      "x": 359,
      "y": 339,
      "size": 1,
      "price": "2106000000000000000000",
      "reserved": "",
      "salt": "0x0f46c81b9793974cbcf5c115a971c90e5ef8ea5232608f46bd0c8623b6e9a299",
      "assetIds": [
        "41506478881403507969696680653240014914910929820314476107906210059990431967233",
        "41506478881403507969696680653240014914910929820314476107906210059990431967234"
      ]
    },
    {
      "x": 358,
      "y": 339,
      "size": 1,
      "price": "2106000000000000000000",
      "reserved": "",
      "salt": "0x3895e20f56dbab6835af86f5130927a6dbc24949b786cf6e66e94e65a29ed95f",
      "assetIds": [
        "41506478881403507969696680653240014914910929820314476107906210059990431967232",
        "41506478881403507969696680653240014914910929820314476107906210059990431967233"
      ]
    },
    {
      "x": 357,
      "y": 340,
      "size": 1,
      "price": "2106000000000000000000",
      "reserved": "",
      "salt": "0x58c5dd99808b44bc4110b6525b18ec76552536b9775ad71c7cdbd87cf14e1343",
      "assetIds": [
        "41506478881403507969696680653240014914910929820314476107906210059990431967233",
        "41506478881403507969696680653240014914910929820314476107906210059990431967234"
      ]
    },
    {
      "x": 356,
      "y": 340,
      "size": 1,
      "price": "2106000000000000000000",
      "reserved": "",
      "salt": "0x32efaa05b8509c0c8341bdb123faecb0c1afbda4373eff71c093e7fc5a6f83e6",
      "assetIds": [
        "41506478881403507969696680653240014914910929820314476107906210059990431967232",
        "41506478881403507969696680653240014914910929820314476107906210059990431967233"
      ]
    },
    {
      "x": 356,
      "y": 339,
      "size": 1,
      "price": "2106000000000000000000",
      "reserved": "",
      "salt": "0x86a8cfeb2fc146f78249359b5ec2a5d8b75ea975e240fefa1dfa5af422485edf",
      "assetIds": [
        "41506478881403507969696680653240014914910929820314476107906210059990431967234",
        "41506478881403507969696680653240014914910929820314476107906210059990431967235"
      ]
    },
    {
      "x": 359,
      "y": 341,
      "size": 1,
      "price": "2106000000000000000000",
      "reserved": "",
      "salt": "0xbf56d16ef439f5d5f12a271a3e0793d5d1ed510a7f80b1d24607971c651e830c",
      "assetIds": [
        "41506478881403507969696680653240014914910929820314476107906210059990431967235",
        "41506478881403507969696680653240014914910929820314476107906210059990431967236"
      ]
    },
    {
      "x": 359,
      "y": 342,
      "size": 1,
      "price": "2106000000000000000000",
      "reserved": "",
      "salt": "0xd0772daf47740cf07436d4af93468e63ed50e54d2cc61519c691665b529ff887",
      "assetIds": [
        "41506478881403507969696680653240014914910929820314476107906210059990431967235",
        "41506478881403507969696680653240014914910929820314476107906210059990431967236"
      ]
    },
    {
      "x": 359,
      "y": 343,
      "size": 1,
      "price": "2106000000000000000000",
      "reserved": "",
      "salt": "0x3057bf9dec9bd92d5c0c22b9b4aaee70f2c4f6f204566272cd901560309889da",
      "assetIds": [
        "41506478881403507969696680653240014914910929820314476107906210059990431967234",
        "41506478881403507969696680653240014914910929820314476107906210059990431967235"
      ]
    },
    {
      "x": 359,
      "y": 344,
      "size": 1,
      "price": "2106000000000000000000",
      "reserved": "",
      "salt": "0x83047451b9e9acfdaaab77a79653e7d3823b61931a6a0d91828fc6dfa359c4a0",
      "assetIds": [
        "41506478881403507969696680653240014914910929820314476107906210059990431967235",
        "41506478881403507969696680653240014914910929820314476107906210059990431967236"
      ]
    },
    {
      "x": 359,
      "y": 345,
      "size": 1,
      "price": "2106000000000000000000",
      "reserved": "",
      "salt": "0xfc5dcf2d26120d6e4ed62906c6f448f59697f87bc3ea4fbe0246bd46d2eadc8f",
      "assetIds": [
        "41506478881403507969696680653240014914910929820314476107906210059990431967234",
        "41506478881403507969696680653240014914910929820314476107906210059990431967235"
      ]
    },
    {
      "x": 359,
      "y": 346,
      "size": 1,
      "price": "2106000000000000000000",
      "reserved": "",
      "salt": "0x0763236eb686ae9ff1a105557e999b398b53abff04b6d86fd4703014b80b1cd4",
      "assetIds": [
        "41506478881403507969696680653240014914910929820314476107906210059990431967235",
        "41506478881403507969696680653240014914910929820314476107906210059990431967236"
      ]
    },
    {
      "x": 359,
      "y": 347,
      "size": 1,
      "price": "2106000000000000000000",
      "reserved": "",
      "salt": "0xa65a9744ee94a6a8841da473b875aedbffde180607b319e3f53baef9ab9928f8",
      "assetIds": [
        "41506478881403507969696680653240014914910929820314476107906210059990431967233",
        "41506478881403507969696680653240014914910929820314476107906210059990431967234"
      ]
    },
    {
      "x": 359,
      "y": 348,
      "size": 1,
      "price": "2106000000000000000000",
      "reserved": "",
      "salt": "0x03f45d84a552ce84a21eeecd1967fb58422fd497be8219be8ec603669c2b2bd1",
      "assetIds": [
        "41506478881403507969696680653240014914910929820314476107906210059990431967234",
        "41506478881403507969696680653240014914910929820314476107906210059990431967235"
      ]
    },
    {
      "x": 359,
      "y": 349,
      "size": 1,
      "price": "2106000000000000000000",
      "reserved": "",
      "salt": "0x92f14734fefb6ad2a8c846419529a7ec1515b81234777ba6cee8b89cc70f1d4a",
      "assetIds": [
        "41506478881403507969696680653240014914910929820314476107906210059990431967232",
        "41506478881403507969696680653240014914910929820314476107906210059990431967233"
      ]
    },
    {
      "x": 357,
      "y": 349,
      "size": 1,
      "price": "2106000000000000000000",
      "reserved": "",
      "salt": "0x0289fe5c22ed4dbdd438417a3f0b8539efa0168cf9ca4709ad484bb16ce4026c",
      "assetIds": [
        "41506478881403507969696680653240014914910929820314476107906210059990431967232",
        "41506478881403507969696680653240014914910929820314476107906210059990431967233"
      ]
    },
    {
      "x": 357,
      "y": 348,
      "size": 1,
      "price": "2106000000000000000000",
      "reserved": "",
      "salt": "0xdb0f1bac7de981fe6de981c5d27cd3b8718329c01c2b655544e0b736e4d31dd9",
      "assetIds": [
        "41506478881403507969696680653240014914910929820314476107906210059990431967233",
        "41506478881403507969696680653240014914910929820314476107906210059990431967234"
      ]
    },
    {
      "x": 357,
      "y": 347,
      "size": 1,
      "price": "2106000000000000000000",
      "reserved": "",
      "salt": "0x4f16c80d532b578e765493b200103c0992564aee055d93f1eb0a6c26245f6112",
      "assetIds": [
        "41506478881403507969696680653240014914910929820314476107906210059990431967235",
        "41506478881403507969696680653240014914910929820314476107906210059990431967236"
      ]
    },
    {
      "x": 357,
      "y": 346,
      "size": 1,
      "price": "2106000000000000000000",
      "reserved": "",
      "salt": "0xfc927bafeff95728f9a24266069c60734b31e11a24b187d05e606411be73d7d2",
      "assetIds": [
        "41506478881403507969696680653240014914910929820314476107906210059990431967234",
        "41506478881403507969696680653240014914910929820314476107906210059990431967235"
      ]
    },
    {
      "x": 357,
      "y": 345,
      "size": 1,
      "price": "2106000000000000000000",
      "reserved": "",
      "salt": "0x2afdb611ddf5ea76c85248d2db897ed4a6d6a0236f0b5ea22ab5217729db660b",
      "assetIds": [
        "41506478881403507969696680653240014914910929820314476107906210059990431967235",
        "41506478881403507969696680653240014914910929820314476107906210059990431967236"
      ]
    },
    {
      "x": 357,
      "y": 344,
      "size": 1,
      "price": "2106000000000000000000",
      "reserved": "",
      "salt": "0xee2a90a2809e434ca2832882fd1d71346afd999d342d989da07f0e0fe99e19d3",
      "assetIds": [
        "41506478881403507969696680653240014914910929820314476107906210059990431967235",
        "41506478881403507969696680653240014914910929820314476107906210059990431967236"
      ]
    },
    {
      "x": 357,
      "y": 343,
      "size": 1,
      "price": "2106000000000000000000",
      "reserved": "",
      "salt": "0x8ef38f5f888f1fd8511a6adc8caf1401537b49209de95978c1cac4e3ad936385",
      "assetIds": [
        "41506478881403507969696680653240014914910929820314476107906210059990431967232",
        "41506478881403507969696680653240014914910929820314476107906210059990431967233"
      ]
    },
    {
      "x": 357,
      "y": 342,
      "size": 1,
      "price": "2106000000000000000000",
      "reserved": "",
      "salt": "0xf5e708e848834050fae80c8090e3cfc4269ffe2ca6b1a4d13adf711774ffef21",
      "assetIds": [
        "41506478881403507969696680653240014914910929820314476107906210059990431967233",
        "41506478881403507969696680653240014914910929820314476107906210059990431967234"
      ]
    },
    {
      "x": 358,
      "y": 342,
      "size": 1,
      "price": "2106000000000000000000",
      "reserved": "",
      "salt": "0x54f83cec669ca437bb5b9e94f37c8e260783b474ca1a2a0cc090fdde5e686169",
      "assetIds": [
        "41506478881403507969696680653240014914910929820314476107906210059990431967234",
        "41506478881403507969696680653240014914910929820314476107906210059990431967235"
      ]
    },
    {
      "x": 358,
      "y": 343,
      "size": 1,
      "price": "2106000000000000000000",
      "reserved": "",
      "salt": "0x83598af0840118fb2d6f563eb21450b705b7d10cfc42ca196a911c8f27373387",
      "assetIds": [
        "41506478881403507969696680653240014914910929820314476107906210059990431967232",
        "41506478881403507969696680653240014914910929820314476107906210059990431967233"
      ]
    },
    {
      "x": 358,
      "y": 344,
      "size": 1,
      "price": "2106000000000000000000",
      "reserved": "",
      "salt": "0xaca60d7f9f97ff9c9106579204d39834e303d95baf7887cf3d0ece844c090cdf",
      "assetIds": [
        "41506478881403507969696680653240014914910929820314476107906210059990431967235",
        "41506478881403507969696680653240014914910929820314476107906210059990431967236"
      ]
    },
    {
      "x": 358,
      "y": 345,
      "size": 1,
      "price": "2106000000000000000000",
      "reserved": "",
      "salt": "0xcc112e57f8ffb0450fb2eef826322bd9cf01eb684fd177cdee59dece77c41cff",
      "assetIds": [
        "41506478881403507969696680653240014914910929820314476107906210059990431967235",
        "41506478881403507969696680653240014914910929820314476107906210059990431967236"
      ]
    },
    {
      "x": 358,
      "y": 347,
      "size": 1,
      "price": "2106000000000000000000",
      "reserved": "",
      "salt": "0xc8908f6c3a38a589e77761cc4d8e99ffbb9a02b30f382cec430dc74cfc9b0039",
      "assetIds": [
        "41506478881403507969696680653240014914910929820314476107906210059990431967232",
        "41506478881403507969696680653240014914910929820314476107906210059990431967233"
      ]
    },
    {
      "x": 358,
      "y": 348,
      "size": 1,
      "price": "2106000000000000000000",
      "reserved": "",
      "salt": "0x41de930198c1accfbd35ce84178465974dca75d019e8298c027ab18466cadbfe",
      "assetIds": [
        "41506478881403507969696680653240014914910929820314476107906210059990431967233",
        "41506478881403507969696680653240014914910929820314476107906210059990431967234"
      ]
    },
    {
      "x": 358,
      "y": 346,
      "size": 1,
      "price": "2106000000000000000000",
      "reserved": "",
      "salt": "0xc1bf2a795441d367494e0ce6764b11a06dd2595789b2b61b36815e01b89b3e14",
      "assetIds": [
        "41506478881403507969696680653240014914910929820314476107906210059990431967233",
        "41506478881403507969696680653240014914910929820314476107906210059990431967234"
      ]
    },
    {
      "x": 355,
      "y": 343,
      "size": 1,
      "price": "2106000000000000000000",
      "reserved": "",
      "salt": "0x6fe5b9a81319055ff30d6c1e88b58d901d1a1d65d3b0350710f05cf110004e1b",
      "assetIds": [
        "41506478881403507969696680653240014914910929820314476107906210059990431967233",
        "41506478881403507969696680653240014914910929820314476107906210059990431967234"
      ]
    },
    {
      "x": 356,
      "y": 343,
      "size": 1,
      "price": "2106000000000000000000",
      "reserved": "",
      "salt": "0x04a7e96e0dd8dc36a607ce9a2e64551250aefae8239d170fac9172050e13440f",
      "assetIds": [
        "41506478881403507969696680653240014914910929820314476107906210059990431967235",
        "41506478881403507969696680653240014914910929820314476107906210059990431967236"
      ]
    },
    {
      "x": 356,
      "y": 345,
      "size": 1,
      "price": "2106000000000000000000",
      "reserved": "",
      "salt": "0xf6069120988b8944e08f49714d53b515f0baea656ced44e3b96569ae033fa357",
      "assetIds": [
        "41506478881403507969696680653240014914910929820314476107906210059990431967232",
        "41506478881403507969696680653240014914910929820314476107906210059990431967233"
      ]
    },
    {
      "x": 356,
      "y": 346,
      "size": 1,
      "price": "2106000000000000000000",
      "reserved": "",
      "salt": "0x151151f2f0b9f479502bd29edbc41328f59244397d13cdcb2523c1b172e78b44",
      "assetIds": [
        "41506478881403507969696680653240014914910929820314476107906210059990431967232",
        "41506478881403507969696680653240014914910929820314476107906210059990431967233"
      ]
    },
    {
      "x": 356,
      "y": 347,
      "size": 1,
      "price": "2106000000000000000000",
      "reserved": "",
      "salt": "0xd5bb1dc1c0fcefcdd78778228332fb71afcf9a02457e1424db5f3022ec589547",
      "assetIds": [
        "41506478881403507969696680653240014914910929820314476107906210059990431967232",
        "41506478881403507969696680653240014914910929820314476107906210059990431967233"
      ]
    },
    {
      "x": 356,
      "y": 348,
      "size": 1,
      "price": "2106000000000000000000",
      "reserved": "",
      "salt": "0xbff99ed1a8aabf4455c7ea9aa6eb416615d37c4d9f23acbe81a66c0948c09d84",
      "assetIds": [
        "41506478881403507969696680653240014914910929820314476107906210059990431967234",
        "41506478881403507969696680653240014914910929820314476107906210059990431967235"
      ]
    },
    {
      "x": 356,
      "y": 349,
      "size": 1,
      "price": "2106000000000000000000",
      "reserved": "",
      "salt": "0xd7ee38b27fd395ff9094f4fc3476a32be90d227bc11cddebadac37e28cf8471b",
      "assetIds": [
        "41506478881403507969696680653240014914910929820314476107906210059990431967233",
        "41506478881403507969696680653240014914910929820314476107906210059990431967234"
      ]
    },
    {
      "x": 355,
      "y": 349,
      "size": 1,
      "price": "2106000000000000000000",
      "reserved": "",
      "salt": "0x0a9b7301c010a0b26d39acd219f5800987a14c10630e9f2b5fe20f0499ecbd64",
      "assetIds": [
        "41506478881403507969696680653240014914910929820314476107906210059990431967232",
        "41506478881403507969696680653240014914910929820314476107906210059990431967233"
      ]
    },
    {
      "x": 355,
      "y": 348,
      "size": 1,
      "price": "2106000000000000000000",
      "reserved": "",
      "salt": "0x39b8c3269c9d51f99ead4534b85cf2e6f079b57f63c5d9d264b2940fb1afa790",
      "assetIds": [
        "41506478881403507969696680653240014914910929820314476107906210059990431967233",
        "41506478881403507969696680653240014914910929820314476107906210059990431967234"
      ]
    },
    {
      "x": 355,
      "y": 347,
      "size": 1,
      "price": "2106000000000000000000",
      "reserved": "",
      "salt": "0xb8f4bb09169ce29a09f9553096a45a5292292ecd276b9148d26451196bf84d6b",
      "assetIds": [
        "41506478881403507969696680653240014914910929820314476107906210059990431967232",
        "41506478881403507969696680653240014914910929820314476107906210059990431967233"
      ]
    },
    {
      "x": 355,
      "y": 346,
      "size": 1,
      "price": "2106000000000000000000",
      "reserved": "",
      "salt": "0x25d8fe9c47ce703f2534cc16a5d3954442d12fcc2a666ebcea7243f69b52790a",
      "assetIds": [
        "41506478881403507969696680653240014914910929820314476107906210059990431967233",
        "41506478881403507969696680653240014914910929820314476107906210059990431967234"
      ]
    },
    {
      "x": 355,
      "y": 345,
      "size": 1,
      "price": "2106000000000000000000",
      "reserved": "",
      "salt": "0xcbcdbd1a0125225079965560e6807a3048fb0a9dca56f76935055958a0aef3de",
      "assetIds": [
        "41506478881403507969696680653240014914910929820314476107906210059990431967233",
        "41506478881403507969696680653240014914910929820314476107906210059990431967234"
      ]
    },
    {
      "x": 355,
      "y": 344,
      "size": 1,
      "price": "2106000000000000000000",
      "reserved": "",
      "salt": "0x13c3f405dbe4e7a0464f76eb231ec51ad7e5bd51ced4cb2b5d62d8b64c723be6",
      "assetIds": [
        "41506478881403507969696680653240014914910929820314476107906210059990431967232",
        "41506478881403507969696680653240014914910929820314476107906210059990431967233"
      ]
    },
    {
      "x": 358,
      "y": 351,
      "size": 1,
      "price": "2106000000000000000000",
      "reserved": "",
      "salt": "0x28a194393acc6c0fc70ae806fb6612ea794ea0a7439988e72e39809baa6924b0",
      "assetIds": [
        "41506478881403507969696680653240014914910929820314476107906210059990431967232",
        "41506478881403507969696680653240014914910929820314476107906210059990431967233"
      ]
    },
    {
      "x": 359,
      "y": 351,
      "size": 1,
      "price": "2106000000000000000000",
      "reserved": "",
      "salt": "0xde2b3bb8ca46b553e7c8f496825263c92d369b51fdf3d000433d107b426586bf",
      "assetIds": [
        "41506478881403507969696680653240014914910929820314476107906210059990431967234",
        "41506478881403507969696680653240014914910929820314476107906210059990431967235"
      ]
    },
    {
      "x": 360,
      "y": 351,
      "size": 1,
      "price": "2106000000000000000000",
      "reserved": "",
      "salt": "0x7a24cdeb3434d11549ab21dbba53d78e73e4958667688373ede6f6b613b26519",
      "assetIds": [
        "41506478881403507969696680653240014914910929820314476107906210059990431967234",
        "41506478881403507969696680653240014914910929820314476107906210059990431967235"
      ]
    },
    {
      "x": 360,
      "y": 350,
      "size": 1,
      "price": "2106000000000000000000",
      "reserved": "",
      "salt": "0x31ae6894d7783e22c54b51bf8695027cf438da0391650f1f08c62a9b26ff9fef",
      "assetIds": [
        "41506478881403507969696680653240014914910929820314476107906210059990431967232",
        "41506478881403507969696680653240014914910929820314476107906210059990431967233"
      ]
    },
    {
      "x": 361,
      "y": 350,
      "size": 1,
      "price": "2106000000000000000000",
      "reserved": "",
      "salt": "0x5bbdabeb060b4c7083c737d4871ec85caad56571e6dd6a636cc61db48fcd4c97",
      "assetIds": [
        "41506478881403507969696680653240014914910929820314476107906210059990431967234",
        "41506478881403507969696680653240014914910929820314476107906210059990431967235"
      ]
    },
    {
      "x": 362,
      "y": 350,
      "size": 1,
      "price": "2106000000000000000000",
      "reserved": "",
      "salt": "0xdca6cdf0b752efa60558b31be164e901ee90cffeea12ad942fae045f969be7c6",
      "assetIds": [
        "41506478881403507969696680653240014914910929820314476107906210059990431967233",
        "41506478881403507969696680653240014914910929820314476107906210059990431967234"
      ]
    },
    {
      "x": 364,
      "y": 350,
      "size": 1,
      "price": "2106000000000000000000",
      "reserved": "",
      "salt": "0xdc08c95fc96f29e5a812c81315bd58415d99929abe85e2fec7fac13b19b745c0",
      "assetIds": [
        "41506478881403507969696680653240014914910929820314476107906210059990431967234",
        "41506478881403507969696680653240014914910929820314476107906210059990431967235"
      ]
    },
    {
      "x": 365,
      "y": 350,
      "size": 1,
      "price": "2106000000000000000000",
      "reserved": "",
      "salt": "0x23acfc29854953e988ac3d37db6e388597c8bf31d27b5d780251a8181a05ff4c",
      "assetIds": [
        "41506478881403507969696680653240014914910929820314476107906210059990431967233",
        "41506478881403507969696680653240014914910929820314476107906210059990431967234"
      ]
    },
    {
      "x": 366,
      "y": 350,
      "size": 1,
      "price": "2106000000000000000000",
      "reserved": "",
      "salt": "0xd4f991f4a530cd432fe4ce9360e725c9d3ba811ecbb69a31a5f8dc0621193981",
      "assetIds": [
        "41506478881403507969696680653240014914910929820314476107906210059990431967234",
        "41506478881403507969696680653240014914910929820314476107906210059990431967235"
      ]
    },
    {
      "x": 367,
      "y": 350,
      "size": 1,
      "price": "2106000000000000000000",
      "reserved": "",
      "salt": "0x63880ce1d55f2f244732af6700b967c4de85a0532535514d9892106d3d9ee6ea",
      "assetIds": [
        "41506478881403507969696680653240014914910929820314476107906210059990431967235",
        "41506478881403507969696680653240014914910929820314476107906210059990431967236"
      ]
    },
    {
      "x": 368,
      "y": 350,
      "size": 1,
      "price": "2106000000000000000000",
      "reserved": "",
      "salt": "0x0454cfde339d8678e8594a53b17962ff00afb7f5f101cd0d9d692993efe3af03",
      "assetIds": [
        "41506478881403507969696680653240014914910929820314476107906210059990431967235",
        "41506478881403507969696680653240014914910929820314476107906210059990431967236"
      ]
    },
    {
      "x": 368,
      "y": 349,
      "size": 1,
      "price": "2106000000000000000000",
      "reserved": "",
      "salt": "0x6df4bf976ce2468516513a44e93ab7cc5cbb5f2ea112eebce7846bd11d076905",
      "assetIds": [
        "41506478881403507969696680653240014914910929820314476107906210059990431967232",
        "41506478881403507969696680653240014914910929820314476107906210059990431967233"
      ]
    },
    {
      "x": 369,
      "y": 349,
      "size": 1,
      "price": "2106000000000000000000",
      "reserved": "",
      "salt": "0x10ca42ec3e5fdcecd128240801adc86919cdd4b5ad2e97a3bb469672eae7f7f5",
      "assetIds": [
        "41506478881403507969696680653240014914910929820314476107906210059990431967235",
        "41506478881403507969696680653240014914910929820314476107906210059990431967236"
      ]
    },
    {
      "x": 370,
      "y": 349,
      "size": 1,
      "price": "2106000000000000000000",
      "reserved": "",
      "salt": "0x016d96a1c175db7af904be3ed4e2c49b3ccd02bb4e0fb625e878dc1621c952bd",
      "assetIds": [
        "41506478881403507969696680653240014914910929820314476107906210059990431967234",
        "41506478881403507969696680653240014914910929820314476107906210059990431967235"
      ]
    },
    {
      "x": 371,
      "y": 348,
      "size": 1,
      "price": "2106000000000000000000",
      "reserved": "",
      "salt": "0xa42750d64144308edc39938fdcade3a289541102099f14bc38fd66120458ac05",
      "assetIds": [
        "41506478881403507969696680653240014914910929820314476107906210059990431967234",
        "41506478881403507969696680653240014914910929820314476107906210059990431967235"
      ]
    },
    {
      "x": 370,
      "y": 348,
      "size": 1,
      "price": "2106000000000000000000",
      "reserved": "",
      "salt": "0x74795fbde4eb7a486c85357beab5780d44ec035e35491e5d67aaec992234a6f6",
      "assetIds": [
        "41506478881403507969696680653240014914910929820314476107906210059990431967235",
        "41506478881403507969696680653240014914910929820314476107906210059990431967236"
      ]
    },
    {
      "x": 369,
      "y": 348,
      "size": 1,
      "price": "2106000000000000000000",
      "reserved": "",
      "salt": "0x5e7fbff4bb257186b280975a8ec50f43c5d9b33b826f73860ca857cd12d9cc35",
      "assetIds": [
        "41506478881403507969696680653240014914910929820314476107906210059990431967235",
        "41506478881403507969696680653240014914910929820314476107906210059990431967236"
      ]
    },
    {
      "x": 368,
      "y": 348,
      "size": 1,
      "price": "2106000000000000000000",
      "reserved": "",
      "salt": "0x4765a347a150fb89247048a07c8c03849770f273b402642a04b1f8589ba48c8f",
      "assetIds": [
        "41506478881403507969696680653240014914910929820314476107906210059990431967232",
        "41506478881403507969696680653240014914910929820314476107906210059990431967233"
      ]
    },
    {
      "x": 367,
      "y": 348,
      "size": 1,
      "price": "2106000000000000000000",
      "reserved": "",
      "salt": "0xf7ea2282307db59d2872fa73fb87aa348cd24909097014052980f70c110d36f3",
      "assetIds": [
        "41506478881403507969696680653240014914910929820314476107906210059990431967233",
        "41506478881403507969696680653240014914910929820314476107906210059990431967234"
      ]
    },
    {
      "x": 366,
      "y": 348,
      "size": 1,
      "price": "2106000000000000000000",
      "reserved": "",
      "salt": "0x558943c5dbfc1727a259cdb9b9ad4a340e16f7baba1548041135a09cbb64aec9",
      "assetIds": [
        "41506478881403507969696680653240014914910929820314476107906210059990431967234",
        "41506478881403507969696680653240014914910929820314476107906210059990431967235"
      ]
    },
    {
      "x": 365,
      "y": 348,
      "size": 1,
      "price": "2106000000000000000000",
      "reserved": "",
      "salt": "0xcebec59d41aae8a72738da265af8d36ef4105bf065c8daab447a5868779dac79",
      "assetIds": [
        "41506478881403507969696680653240014914910929820314476107906210059990431967235",
        "41506478881403507969696680653240014914910929820314476107906210059990431967236"
      ]
    },
    {
      "x": 364,
      "y": 348,
      "size": 1,
      "price": "2106000000000000000000",
      "reserved": "",
      "salt": "0x0367792c42e21aac084f5f5c751e5d1ff3591f5249fdfef16c52a79fc4f02fc1",
      "assetIds": [
        "41506478881403507969696680653240014914910929820314476107906210059990431967234",
        "41506478881403507969696680653240014914910929820314476107906210059990431967235"
      ]
    },
    {
      "x": 363,
      "y": 348,
      "size": 1,
      "price": "2106000000000000000000",
      "reserved": "",
      "salt": "0x8390d918e99ddb8d959682fe0f5cc184bd66de20fc09304b2d3896382280157a",
      "assetIds": [
        "41506478881403507969696680653240014914910929820314476107906210059990431967233",
        "41506478881403507969696680653240014914910929820314476107906210059990431967234"
      ]
    },
    {
      "x": 362,
      "y": 348,
      "size": 1,
      "price": "2106000000000000000000",
      "reserved": "",
      "salt": "0x350a21097a02fcb3727946ba098142891b40668033065e3136e566f5850cdee2",
      "assetIds": [
        "41506478881403507969696680653240014914910929820314476107906210059990431967235",
        "41506478881403507969696680653240014914910929820314476107906210059990431967236"
      ]
    },
    {
      "x": 361,
      "y": 348,
      "size": 1,
      "price": "2106000000000000000000",
      "reserved": "",
      "salt": "0x4171214e13aea11c672a42b5349cae64b90ff66938fb70f043ddabe447c97b7b",
      "assetIds": [
        "41506478881403507969696680653240014914910929820314476107906210059990431967234",
        "41506478881403507969696680653240014914910929820314476107906210059990431967235"
      ]
    },
    {
      "x": 360,
      "y": 348,
      "size": 1,
      "price": "2106000000000000000000",
      "reserved": "",
      "salt": "0x5b7d95a3eacf9868994978aecdc8984a0b67cc8742fe2e26d63eadab70fbafb1",
      "assetIds": [
        "41506478881403507969696680653240014914910929820314476107906210059990431967235",
        "41506478881403507969696680653240014914910929820314476107906210059990431967236"
      ]
    },
    {
      "x": 360,
      "y": 349,
      "size": 1,
      "price": "2106000000000000000000",
      "reserved": "",
      "salt": "0x8a9d365bc6438cf83a4dc9f76ad359ea8ca86c66d2be54b9189eed0e0319c31d",
      "assetIds": [
        "41506478881403507969696680653240014914910929820314476107906210059990431967234",
        "41506478881403507969696680653240014914910929820314476107906210059990431967235"
      ]
    },
    {
      "x": 361,
      "y": 349,
      "size": 1,
      "price": "2106000000000000000000",
      "reserved": "",
      "salt": "0x944c2d46285b89949ed1ef4dacebf9e31c11ee5112ea0d6001f7775055f15018",
      "assetIds": [
        "41506478881403507969696680653240014914910929820314476107906210059990431967232",
        "41506478881403507969696680653240014914910929820314476107906210059990431967233"
      ]
    },
    {
      "x": 362,
      "y": 349,
      "size": 1,
      "price": "2106000000000000000000",
      "reserved": "",
      "salt": "0x1b587e62cd6a9fc6ca0a09993cf605e456ac3be07749d78198bb8992aa76cbb0",
      "assetIds": [
        "41506478881403507969696680653240014914910929820314476107906210059990431967235",
        "41506478881403507969696680653240014914910929820314476107906210059990431967236"
      ]
    },
    {
      "x": 363,
      "y": 349,
      "size": 1,
      "price": "2106000000000000000000",
      "reserved": "",
      "salt": "0xe82ed31d56bd82da70ae1e1dce4017d5bad5c7d310de93d3767f0b917cb3b8e0",
      "assetIds": [
        "41506478881403507969696680653240014914910929820314476107906210059990431967234",
        "41506478881403507969696680653240014914910929820314476107906210059990431967235"
      ]
    },
    {
      "x": 365,
      "y": 349,
      "size": 1,
      "price": "2106000000000000000000",
      "reserved": "",
      "salt": "0xdf94d6e12c591f36524f2c1505f1ac63799e8ed4f0a4024f792bb8cf5246a46a",
      "assetIds": [
        "41506478881403507969696680653240014914910929820314476107906210059990431967232",
        "41506478881403507969696680653240014914910929820314476107906210059990431967233"
      ]
    },
    {
      "x": 364,
      "y": 349,
      "size": 1,
      "price": "2106000000000000000000",
      "reserved": "",
      "salt": "0xb937829b6faff549530d550c2511ad790ecd8ed9b675beadfe8a3efd4a0459d8",
      "assetIds": [
        "41506478881403507969696680653240014914910929820314476107906210059990431967235",
        "41506478881403507969696680653240014914910929820314476107906210059990431967236"
      ]
    },
    {
      "x": 367,
      "y": 349,
      "size": 1,
      "price": "2106000000000000000000",
      "reserved": "",
      "salt": "0x5c3890bb3dc047615b684674b672bb3d59264c87741456bc8712e1917299ca3c",
      "assetIds": [
        "41506478881403507969696680653240014914910929820314476107906210059990431967233",
        "41506478881403507969696680653240014914910929820314476107906210059990431967234"
      ]
    },
    {
      "x": 366,
      "y": 349,
      "size": 1,
      "price": "2106000000000000000000",
      "reserved": "",
      "salt": "0xbb3e23e668883cff111c57db07e0856cd39d5790eb66c7fe1c6400c21ed53e6b",
      "assetIds": [
        "41506478881403507969696680653240014914910929820314476107906210059990431967233",
        "41506478881403507969696680653240014914910929820314476107906210059990431967234"
      ]
    },
    {
      "x": 371,
      "y": 349,
      "size": 1,
      "price": "2106000000000000000000",
      "reserved": "",
      "salt": "0xec0966937a32d6d4bd868885cfd62cdb9325b1662a9b269c83a50d6552bb8c93",
      "assetIds": [
        "41506478881403507969696680653240014914910929820314476107906210059990431967233",
        "41506478881403507969696680653240014914910929820314476107906210059990431967234"
      ]
    },
    {
      "x": 371,
      "y": 350,
      "size": 1,
      "price": "2106000000000000000000",
      "reserved": "",
      "salt": "0x7932741e6ed17b99f4bfdd14e700d869b5af047a133e3939ae79ce405fec7907",
      "assetIds": [
        "41506478881403507969696680653240014914910929820314476107906210059990431967234",
        "41506478881403507969696680653240014914910929820314476107906210059990431967235"
      ]
    },
    {
      "x": 369,
      "y": 350,
      "size": 1,
      "price": "2106000000000000000000",
      "reserved": "",
      "salt": "0x9e79544c29aeae9162e41681912dd59ddb324e282c4e83e4c3bd60a717ae325c",
      "assetIds": [
        "41506478881403507969696680653240014914910929820314476107906210059990431967232",
        "41506478881403507969696680653240014914910929820314476107906210059990431967233"
      ]
    },
    {
      "x": 370,
      "y": 350,
      "size": 1,
      "price": "2106000000000000000000",
      "reserved": "",
      "salt": "0xcbb8e7fc43184585e333ee0c6136458432aa5d6dc02cccc1bee38f0ab2adfe04",
      "assetIds": [
        "41506478881403507969696680653240014914910929820314476107906210059990431967234",
        "41506478881403507969696680653240014914910929820314476107906210059990431967235"
      ]
    },
    {
      "x": 365,
      "y": 351,
      "size": 1,
      "price": "2106000000000000000000",
      "reserved": "",
      "salt": "0xbb3faf8f84d98df37df096113c25eee9365ffe6d5fb4b6f8f22b73027a6e3a13",
      "assetIds": [
        "41506478881403507969696680653240014914910929820314476107906210059990431967234",
        "41506478881403507969696680653240014914910929820314476107906210059990431967235"
      ]
    },
    {
      "x": 364,
      "y": 351,
      "size": 1,
      "price": "2106000000000000000000",
      "reserved": "",
      "salt": "0xb083ebc3277191dc06b2646e78efa55aa58ef3945e3027ca7b4495b2eac2d996",
      "assetIds": [
        "41506478881403507969696680653240014914910929820314476107906210059990431967234",
        "41506478881403507969696680653240014914910929820314476107906210059990431967235"
      ]
    },
    {
      "x": 363,
      "y": 351,
      "size": 1,
      "price": "2106000000000000000000",
      "reserved": "",
      "salt": "0x9aa74b77489f2c9a1e0c1ab916424009bc1174dbb46d663eb6b824c2b543ac39",
      "assetIds": [
        "41506478881403507969696680653240014914910929820314476107906210059990431967232",
        "41506478881403507969696680653240014914910929820314476107906210059990431967233"
      ]
    },
    {
      "x": 362,
      "y": 351,
      "size": 1,
      "price": "2106000000000000000000",
      "reserved": "",
      "salt": "0x4a3773684e2255d1a8dfce0f8c48ca5a2620f87bfa37a225370c558b953dc6c9",
      "assetIds": [
        "41506478881403507969696680653240014914910929820314476107906210059990431967235",
        "41506478881403507969696680653240014914910929820314476107906210059990431967236"
      ]
    },
    {
      "x": 361,
      "y": 351,
      "size": 1,
      "price": "2106000000000000000000",
      "reserved": "",
      "salt": "0xc02be721d33b2d4e56393efdd47656568486faab7031d1e998ff8bc1cff537b4",
      "assetIds": [
        "41506478881403507969696680653240014914910929820314476107906210059990431967233",
        "41506478881403507969696680653240014914910929820314476107906210059990431967234"
      ]
    },
    {
      "x": 376,
      "y": 350,
      "size": 1,
      "price": "2106000000000000000000",
      "reserved": "",
      "salt": "0xa3755780b919701c07ad79f8151b73cce948156c9d01069d75b04513075eace0",
      "assetIds": [
        "41506478881403507969696680653240014914910929820314476107906210059990431967233",
        "41506478881403507969696680653240014914910929820314476107906210059990431967234"
      ]
    },
    {
      "x": 377,
      "y": 350,
      "size": 1,
      "price": "2106000000000000000000",
      "reserved": "",
      "salt": "0xadb73a24eb59eedebccaf1b2a48b56b09a3b727c50d7d39975a7e6df16ea42f8",
      "assetIds": [
        "41506478881403507969696680653240014914910929820314476107906210059990431967235",
        "41506478881403507969696680653240014914910929820314476107906210059990431967236"
      ]
    },
    {
      "x": 378,
      "y": 350,
      "size": 1,
      "price": "2106000000000000000000",
      "reserved": "",
      "salt": "0x618482cbb5ece83ae5ff2856ee5c44c1108a65f9102835077b2178bd6b1d260b",
      "assetIds": [
        "41506478881403507969696680653240014914910929820314476107906210059990431967233",
        "41506478881403507969696680653240014914910929820314476107906210059990431967234"
      ]
    },
    {
      "x": 379,
      "y": 350,
      "size": 1,
      "price": "2106000000000000000000",
      "reserved": "",
      "salt": "0xea58cf7bb26de5144d6ccba96f2996241298047f52c8d04f041e53190c74cdbb",
      "assetIds": [
        "41506478881403507969696680653240014914910929820314476107906210059990431967233",
        "41506478881403507969696680653240014914910929820314476107906210059990431967234"
      ]
    },
    {
      "x": 379,
      "y": 349,
      "size": 1,
      "price": "2106000000000000000000",
      "reserved": "",
      "salt": "0x34db1c7d60e80be27adae790adcbd7c2f78881af593fa1e95180cc461bb24ad6",
      "assetIds": [
        "41506478881403507969696680653240014914910929820314476107906210059990431967234",
        "41506478881403507969696680653240014914910929820314476107906210059990431967235"
      ]
    },
    {
      "x": 381,
      "y": 349,
      "size": 1,
      "price": "2106000000000000000000",
      "reserved": "",
      "salt": "0x67f1adefd49e9a41c191444af7ef497b247ea43d36c19468c2a00351c5b748c6",
      "assetIds": [
        "41506478881403507969696680653240014914910929820314476107906210059990431967235",
        "41506478881403507969696680653240014914910929820314476107906210059990431967236"
      ]
    },
    {
      "x": 382,
      "y": 349,
      "size": 1,
      "price": "2106000000000000000000",
      "reserved": "",
      "salt": "0x631a1f0686d1dfa17c07957d2c809b59c940b7723f90f77d509ce378c3bdf5b5",
      "assetIds": [
        "41506478881403507969696680653240014914910929820314476107906210059990431967233",
        "41506478881403507969696680653240014914910929820314476107906210059990431967234"
      ]
    },
    {
      "x": 383,
      "y": 349,
      "size": 1,
      "price": "2106000000000000000000",
      "reserved": "",
      "salt": "0x0d00091d19a84f7b1cde9c29fd70dbd7fda96a82137cd70d81624c06baeabcdc",
      "assetIds": [
        "41506478881403507969696680653240014914910929820314476107906210059990431967233",
        "41506478881403507969696680653240014914910929820314476107906210059990431967234"
      ]
    },
    {
      "x": 383,
      "y": 348,
      "size": 1,
      "price": "2106000000000000000000",
      "reserved": "",
      "salt": "0x18c859dfddcc27e3b18fb6abefb61decd80f2bf862ae10e6b756460b1cb39cc3",
      "assetIds": [
        "41506478881403507969696680653240014914910929820314476107906210059990431967235",
        "41506478881403507969696680653240014914910929820314476107906210059990431967236"
      ]
    },
    {
      "x": 383,
      "y": 347,
      "size": 1,
      "price": "2106000000000000000000",
      "reserved": "",
      "salt": "0x949539ee7e9ebd05239ea5066367e60753b857ccfd761ed80f4686b1ce91c4e7",
      "assetIds": [
        "41506478881403507969696680653240014914910929820314476107906210059990431967233",
        "41506478881403507969696680653240014914910929820314476107906210059990431967234"
      ]
    },
    {
      "x": 382,
      "y": 346,
      "size": 1,
      "price": "2106000000000000000000",
      "reserved": "",
      "salt": "0xbe0e043d5e5f224eef4af4985ab4eae436ef3a21fa522041f01327da13c3f882",
      "assetIds": [
        "41506478881403507969696680653240014914910929820314476107906210059990431967232",
        "41506478881403507969696680653240014914910929820314476107906210059990431967233"
      ]
    },
    {
      "x": 382,
      "y": 345,
      "size": 1,
      "price": "2106000000000000000000",
      "reserved": "",
      "salt": "0x20a7cd976f12d864d092bce610f09bdab30db5628b2e7e325ed17b430a45cab5",
      "assetIds": [
        "41506478881403507969696680653240014914910929820314476107906210059990431967234",
        "41506478881403507969696680653240014914910929820314476107906210059990431967235"
      ]
    },
    {
      "x": 382,
      "y": 344,
      "size": 1,
      "price": "2106000000000000000000",
      "reserved": "",
      "salt": "0xbae2af0dec0513d4588c3ec391c534ba12df38ad237ebd6b518c1b6d8391b7c9",
      "assetIds": [
        "41506478881403507969696680653240014914910929820314476107906210059990431967234",
        "41506478881403507969696680653240014914910929820314476107906210059990431967235"
      ]
    },
    {
      "x": 381,
      "y": 344,
      "size": 1,
      "price": "2106000000000000000000",
      "reserved": "",
      "salt": "0xb93e0abb41e7f049bf6ebda25b4f25aeb1bd317408075306adf54c13d2e9321e",
      "assetIds": [
        "41506478881403507969696680653240014914910929820314476107906210059990431967233",
        "41506478881403507969696680653240014914910929820314476107906210059990431967234"
      ]
    },
    {
      "x": 381,
      "y": 343,
      "size": 1,
      "price": "2106000000000000000000",
      "reserved": "",
      "salt": "0xf40f3f7a13723b26393a024008d197dffcf24a252a72715627838f437c202fc1",
      "assetIds": [
        "41506478881403507969696680653240014914910929820314476107906210059990431967235",
        "41506478881403507969696680653240014914910929820314476107906210059990431967236"
      ]
    },
    {
      "x": 380,
      "y": 342,
      "size": 1,
      "price": "2106000000000000000000",
      "reserved": "",
      "salt": "0x05b036f08fd2ae288166db55d592487034304afdee9c68f2be152658fbeffba5",
      "assetIds": [
        "41506478881403507969696680653240014914910929820314476107906210059990431967232",
        "41506478881403507969696680653240014914910929820314476107906210059990431967233"
      ]
    },
    {
      "x": 379,
      "y": 342,
      "size": 1,
      "price": "2106000000000000000000",
      "reserved": "",
      "salt": "0x9a3ab9ed1b002c979198a18cd5eef8206e26248b60d3f3d92e0765cf95c96de6",
      "assetIds": [
        "41506478881403507969696680653240014914910929820314476107906210059990431967233",
        "41506478881403507969696680653240014914910929820314476107906210059990431967234"
      ]
    },
    {
      "x": 379,
      "y": 343,
      "size": 1,
      "price": "2106000000000000000000",
      "reserved": "",
      "salt": "0x61a6303ac6926145f8ec480865a6b3a31325cd9368e021c364fca6ba84c7d612",
      "assetIds": [
        "41506478881403507969696680653240014914910929820314476107906210059990431967235",
        "41506478881403507969696680653240014914910929820314476107906210059990431967236"
      ]
    },
    {
      "x": 378,
      "y": 343,
      "size": 1,
      "price": "2106000000000000000000",
      "reserved": "",
      "salt": "0x2cc1c49591550e45283a7355987890a626e9a2df04f42733ec94be8d6b16526a",
      "assetIds": [
        "41506478881403507969696680653240014914910929820314476107906210059990431967232",
        "41506478881403507969696680653240014914910929820314476107906210059990431967233"
      ]
    },
    {
      "x": 378,
      "y": 342,
      "size": 1,
      "price": "2106000000000000000000",
      "reserved": "",
      "salt": "0x966f1d087e1371f78bfa9a5fad2b3d2f435fb3ad35f69513743d369e7fe78dd3",
      "assetIds": [
        "41506478881403507969696680653240014914910929820314476107906210059990431967234",
        "41506478881403507969696680653240014914910929820314476107906210059990431967235"
      ]
    },
    {
      "x": 376,
      "y": 341,
      "size": 1,
      "price": "2106000000000000000000",
      "reserved": "",
      "salt": "0x5e689bf2a91ada00e56fe76cff0e646455e466c97ba44b84e3637b105d6a1f62",
      "assetIds": [
        "41506478881403507969696680653240014914910929820314476107906210059990431967232",
        "41506478881403507969696680653240014914910929820314476107906210059990431967233"
      ]
    },
    {
      "x": 376,
      "y": 339,
      "size": 1,
      "price": "2106000000000000000000",
      "reserved": "",
      "salt": "0xc5d4e631d047ade8320f83794746f8ea6a6b354f2eee1be68be048e2cb7fdfa5",
      "assetIds": [
        "41506478881403507969696680653240014914910929820314476107906210059990431967235",
        "41506478881403507969696680653240014914910929820314476107906210059990431967236"
      ]
    },
    {
      "x": 376,
      "y": 338,
      "size": 1,
      "price": "2106000000000000000000",
      "reserved": "",
      "salt": "0xa10e88e5dede3ae5198840c2507819282a2ab62537ca5c8c21dd4762e7f9c844",
      "assetIds": [
        "41506478881403507969696680653240014914910929820314476107906210059990431967232",
        "41506478881403507969696680653240014914910929820314476107906210059990431967233"
      ]
    },
    {
      "x": 377,
      "y": 338,
      "size": 1,
      "price": "2106000000000000000000",
      "reserved": "",
      "salt": "0xb29f7337551b90388c9f26efe29f248fba55ac97e8982677f06f0879ad88b09c",
      "assetIds": [
        "41506478881403507969696680653240014914910929820314476107906210059990431967233",
        "41506478881403507969696680653240014914910929820314476107906210059990431967234"
      ]
    },
    {
      "x": 376,
      "y": 337,
      "size": 1,
      "price": "2106000000000000000000",
      "reserved": "",
      "salt": "0xb3b1fdc0b4d6186a660b530e71e1be64252da9383c364a173fce3005b4755664",
      "assetIds": [
        "41506478881403507969696680653240014914910929820314476107906210059990431967234",
        "41506478881403507969696680653240014914910929820314476107906210059990431967235"
      ]
    },
    {
      "x": 375,
      "y": 337,
      "size": 1,
      "price": "2106000000000000000000",
      "reserved": "",
      "salt": "0xac2093a7c6b5f30b25ee926b7dc0747ead76768231ddf6f557025ef70d4f0998",
      "assetIds": [
        "41506478881403507969696680653240014914910929820314476107906210059990431967232",
        "41506478881403507969696680653240014914910929820314476107906210059990431967233"
      ]
    },
    {
      "x": 374,
      "y": 337,
      "size": 1,
      "price": "2106000000000000000000",
      "reserved": "",
      "salt": "0x74dc0cf11c46f4cbc084686f08bc22e9f5d0a663a800ed1edbe153bd8996c648",
      "assetIds": [
        "41506478881403507969696680653240014914910929820314476107906210059990431967232",
        "41506478881403507969696680653240014914910929820314476107906210059990431967233"
      ]
    },
    {
      "x": 373,
      "y": 337,
      "size": 1,
      "price": "2106000000000000000000",
      "reserved": "",
      "salt": "0x81ff43cb35fa55bb6092a4da5df16ec04decbdb7459167ba52ecba96f8b382ca",
      "assetIds": [
        "41506478881403507969696680653240014914910929820314476107906210059990431967234",
        "41506478881403507969696680653240014914910929820314476107906210059990431967235"
      ]
    },
    {
      "x": 374,
      "y": 336,
      "size": 1,
      "price": "2106000000000000000000",
      "reserved": "",
      "salt": "0x967df14fea5c265ad0377ae395184a879525ad9d1f4141daec6dacf974f013e5",
      "assetIds": [
        "41506478881403507969696680653240014914910929820314476107906210059990431967234",
        "41506478881403507969696680653240014914910929820314476107906210059990431967235"
      ]
    },
    {
      "x": 375,
      "y": 336,
      "size": 1,
      "price": "2106000000000000000000",
      "reserved": "",
      "salt": "0x7e81c297e34d2f68cad6ebe899da541ff69df94bb6e9466734613df3ba7c3035",
      "assetIds": [
        "41506478881403507969696680653240014914910929820314476107906210059990431967232",
        "41506478881403507969696680653240014914910929820314476107906210059990431967233"
      ]
    },
    {
      "x": 376,
      "y": 336,
      "size": 1,
      "price": "2106000000000000000000",
      "reserved": "",
      "salt": "0x2db78514a6356374a98a6893ae7c9aebcaf94645eb9b9214221a0cc47b8ca617",
      "assetIds": [
        "41506478881403507969696680653240014914910929820314476107906210059990431967235",
        "41506478881403507969696680653240014914910929820314476107906210059990431967236"
      ]
    },
    {
      "x": 377,
      "y": 336,
      "size": 1,
      "price": "2106000000000000000000",
      "reserved": "",
      "salt": "0x76d0142d101cb6b7f9e61577a73a802778210cc40eac69edb31959fd45761d7f",
      "assetIds": [
        "41506478881403507969696680653240014914910929820314476107906210059990431967235",
        "41506478881403507969696680653240014914910929820314476107906210059990431967236"
      ]
    },
    {
      "x": 377,
      "y": 337,
      "size": 1,
      "price": "2106000000000000000000",
      "reserved": "",
      "salt": "0xd76b6afa313f849ae9b319d1d00d5f6e956eab3210766e364fa83c2bdcc06efd",
      "assetIds": [
        "41506478881403507969696680653240014914910929820314476107906210059990431967233",
        "41506478881403507969696680653240014914910929820314476107906210059990431967234"
      ]
    },
    {
      "x": 372,
      "y": 337,
      "size": 1,
      "price": "2106000000000000000000",
      "reserved": "",
      "salt": "0x913111c25cee4d3535c5783eaecfbebb02582cfc4b7337de09cd94d7d1e5ffbf",
      "assetIds": [
        "41506478881403507969696680653240014914910929820314476107906210059990431967234",
        "41506478881403507969696680653240014914910929820314476107906210059990431967235"
      ]
    },
    {
      "x": 372,
      "y": 336,
      "size": 1,
      "price": "2106000000000000000000",
      "reserved": "",
      "salt": "0x3dda1a2a364580844d4f34def3473c8679073ee5155189cf3a7f1305013062cd",
      "assetIds": [
        "41506478881403507969696680653240014914910929820314476107906210059990431967234",
        "41506478881403507969696680653240014914910929820314476107906210059990431967235"
      ]
    },
    {
      "x": 373,
      "y": 336,
      "size": 1,
      "price": "2106000000000000000000",
      "reserved": "",
      "salt": "0xb4b8d57962fc83b847c9585b9e6bbc02b9fef877a5ac81ef232025e2bb65afb6",
      "assetIds": [
        "41506478881403507969696680653240014914910929820314476107906210059990431967235",
        "41506478881403507969696680653240014914910929820314476107906210059990431967236"
      ]
    },
    {
      "x": 374,
      "y": 338,
      "size": 1,
      "price": "2106000000000000000000",
      "reserved": "",
      "salt": "0x7b2afe13e75d39b38f29a9f96513ce50760ec693bb8b04a3be37b6e7a49e35a1",
      "assetIds": [
        "41506478881403507969696680653240014914910929820314476107906210059990431967233",
        "41506478881403507969696680653240014914910929820314476107906210059990431967234"
      ]
    },
    {
      "x": 374,
      "y": 339,
      "size": 1,
      "price": "2106000000000000000000",
      "reserved": "",
      "salt": "0x475e9552fcbacf1cbd3ac796e806c0cbb25d86e5dcd8e9d7730eabbeca925e5a",
      "assetIds": [
        "41506478881403507969696680653240014914910929820314476107906210059990431967235",
        "41506478881403507969696680653240014914910929820314476107906210059990431967236"
      ]
    },
    {
      "x": 373,
      "y": 339,
      "size": 1,
      "price": "2106000000000000000000",
      "reserved": "",
      "salt": "0x1cf5a1de37be2831f4065dd72b571aec157f003cb4a7eb92aceccfff021aadb1",
      "assetIds": [
        "41506478881403507969696680653240014914910929820314476107906210059990431967233",
        "41506478881403507969696680653240014914910929820314476107906210059990431967234"
      ]
    },
    {
      "x": 373,
      "y": 340,
      "size": 1,
      "price": "2106000000000000000000",
      "reserved": "",
      "salt": "0x99fd77c99ee3adb8898b83b4de6bd6fc55848e67f59051940ce71a8b2cc0e203",
      "assetIds": [
        "41506478881403507969696680653240014914910929820314476107906210059990431967234",
        "41506478881403507969696680653240014914910929820314476107906210059990431967235"
      ]
    },
    {
      "x": 373,
      "y": 341,
      "size": 1,
      "price": "2106000000000000000000",
      "reserved": "",
      "salt": "0x0f2d476fdf555e78ed1a7756cb40de107f37477f25dc50dc05f811bf83dab47c",
      "assetIds": [
        "41506478881403507969696680653240014914910929820314476107906210059990431967233",
        "41506478881403507969696680653240014914910929820314476107906210059990431967234"
      ]
    },
    {
      "x": 372,
      "y": 340,
      "size": 1,
      "price": "2106000000000000000000",
      "reserved": "",
      "salt": "0x6ccbb94ed405067af45e6a99e7598be1a2fc9316340265bdb792461e9adb40e7",
      "assetIds": [
        "41506478881403507969696680653240014914910929820314476107906210059990431967232",
        "41506478881403507969696680653240014914910929820314476107906210059990431967233"
      ]
    },
    {
      "x": 372,
      "y": 339,
      "size": 1,
      "price": "2106000000000000000000",
      "reserved": "",
      "salt": "0xd459ebc98241c4cd67dd175822f1f1f6b5dcaec23804b6ae64cd9448c2f11c4f",
      "assetIds": [
        "41506478881403507969696680653240014914910929820314476107906210059990431967233",
        "41506478881403507969696680653240014914910929820314476107906210059990431967234"
      ]
    },
    {
      "x": 373,
      "y": 338,
      "size": 1,
      "price": "2106000000000000000000",
      "reserved": "",
      "salt": "0xa4b452b932c711490e23ec6b66bab3990401d0ef3c5e603c51cf684a3668706f",
      "assetIds": [
        "41506478881403507969696680653240014914910929820314476107906210059990431967234",
        "41506478881403507969696680653240014914910929820314476107906210059990431967235"
      ]
    },
    {
      "x": 372,
      "y": 341,
      "size": 1,
      "price": "2106000000000000000000",
      "reserved": "",
      "salt": "0xcc599f337b237d3c418c3f0ccc65f4fe5ead6d3b79fce48a02f017f71f148e8e",
      "assetIds": [
        "41506478881403507969696680653240014914910929820314476107906210059990431967234",
        "41506478881403507969696680653240014914910929820314476107906210059990431967235"
      ]
    },
    {
      "x": 374,
      "y": 340,
      "size": 1,
      "price": "2106000000000000000000",
      "reserved": "",
      "salt": "0x68c9e2d08bc607d0b460b877e1ee413b52db0262ac67b60b9d72a281ba2ec9a8",
      "assetIds": [
        "41506478881403507969696680653240014914910929820314476107906210059990431967235",
        "41506478881403507969696680653240014914910929820314476107906210059990431967236"
      ]
    },
    {
      "x": 375,
      "y": 340,
      "size": 1,
      "price": "2106000000000000000000",
      "reserved": "",
      "salt": "0xc74c24a4723e91d4152980f3e5e30382a8758691b199e0dad7907c3aa9717fd4",
      "assetIds": [
        "41506478881403507969696680653240014914910929820314476107906210059990431967233",
        "41506478881403507969696680653240014914910929820314476107906210059990431967234"
      ]
    },
    {
      "x": 375,
      "y": 339,
      "size": 1,
      "price": "2106000000000000000000",
      "reserved": "",
      "salt": "0x9e9a69862ac11a131a8293a7af056262d11ae5c0d1a7d6a08b30fd6a0a2820d6",
      "assetIds": [
        "41506478881403507969696680653240014914910929820314476107906210059990431967235",
        "41506478881403507969696680653240014914910929820314476107906210059990431967236"
      ]
    },
    {
      "x": 375,
      "y": 338,
      "size": 1,
      "price": "2106000000000000000000",
      "reserved": "",
      "salt": "0x5631322bf41bcf683e7bfd8ded8c22ccea29fe99c94e6bf8f4e74bfd4fa0cd91",
      "assetIds": [
        "41506478881403507969696680653240014914910929820314476107906210059990431967235",
        "41506478881403507969696680653240014914910929820314476107906210059990431967236"
      ]
    },
    {
      "x": 375,
      "y": 341,
      "size": 1,
      "price": "2106000000000000000000",
      "reserved": "",
      "salt": "0xb269f320b824bf1fc6b5258d91a6bf7510a36f5e2b509f162713e84e68112073",
      "assetIds": [
        "41506478881403507969696680653240014914910929820314476107906210059990431967233",
        "41506478881403507969696680653240014914910929820314476107906210059990431967234"
      ]
    },
    {
      "x": 374,
      "y": 341,
      "size": 1,
      "price": "2106000000000000000000",
      "reserved": "",
      "salt": "0x90af3582278f3e504f1ca50c8ffc889a6c3b5bb4dc5a7c4a97e33f075af0c397",
      "assetIds": [
        "41506478881403507969696680653240014914910929820314476107906210059990431967234",
        "41506478881403507969696680653240014914910929820314476107906210059990431967235"
      ]
    },
    {
      "x": 377,
      "y": 340,
      "size": 1,
      "price": "2106000000000000000000",
      "reserved": "",
      "salt": "0xf5196475ae8e2b33bc6cf9daf11d3d4ead20aeaf42c57989e23e4d80ed2a4f76",
      "assetIds": [
        "41506478881403507969696680653240014914910929820314476107906210059990431967233",
        "41506478881403507969696680653240014914910929820314476107906210059990431967234"
      ]
    },
    {
      "x": 377,
      "y": 339,
      "size": 1,
      "price": "2106000000000000000000",
      "reserved": "",
      "salt": "0x70a4b09c265da0c4edca99f1ed77ce0e757361c9a97c25104b86069fc9267074",
      "assetIds": [
        "41506478881403507969696680653240014914910929820314476107906210059990431967234",
        "41506478881403507969696680653240014914910929820314476107906210059990431967235"
      ]
    },
    {
      "x": 377,
      "y": 341,
      "size": 1,
      "price": "2106000000000000000000",
      "reserved": "",
      "salt": "0xd678673011b7dd6862a28ece2a273df051537aa73d2c99b86230d877940b9230",
      "assetIds": [
        "41506478881403507969696680653240014914910929820314476107906210059990431967233",
        "41506478881403507969696680653240014914910929820314476107906210059990431967234"
      ]
    },
    {
      "x": 381,
      "y": 342,
      "size": 1,
      "price": "2106000000000000000000",
      "reserved": "",
      "salt": "0xa87c4cbe36c5d246c7fd90d2f9be70069c47dcd7ca6b639c5a02ba71f528f3da",
      "assetIds": [
        "41506478881403507969696680653240014914910929820314476107906210059990431967233",
        "41506478881403507969696680653240014914910929820314476107906210059990431967234"
      ]
    },
    {
      "x": 382,
      "y": 342,
      "size": 1,
      "price": "2106000000000000000000",
      "reserved": "",
      "salt": "0x7f7f38b6e21c0c7e543a914c49d66c94169a10f37830844fad9531155d4b9b7d",
      "assetIds": [
        "41506478881403507969696680653240014914910929820314476107906210059990431967235",
        "41506478881403507969696680653240014914910929820314476107906210059990431967236"
      ]
    },
    {
      "x": 380,
      "y": 343,
      "size": 1,
      "price": "2106000000000000000000",
      "reserved": "",
      "salt": "0x454c8deac6f20511e8e38fd1655037458fc294575a61303e0a59d757459aa246",
      "assetIds": [
        "41506478881403507969696680653240014914910929820314476107906210059990431967232",
        "41506478881403507969696680653240014914910929820314476107906210059990431967233"
      ]
    },
    {
      "x": 380,
      "y": 344,
      "size": 1,
      "price": "2106000000000000000000",
      "reserved": "",
      "salt": "0x58071af97387ba2956379422a3372bc2bc435c775d06984d3a4c619f040b6994",
      "assetIds": [
        "41506478881403507969696680653240014914910929820314476107906210059990431967234",
        "41506478881403507969696680653240014914910929820314476107906210059990431967235"
      ]
    },
    {
      "x": 379,
      "y": 345,
      "size": 1,
      "price": "2106000000000000000000",
      "reserved": "",
      "salt": "0xdb9f7f2a75dd6ac81f68ab0d18a8a366db629461853b5652b0460e41b95c25ca",
      "assetIds": [
        "41506478881403507969696680653240014914910929820314476107906210059990431967234",
        "41506478881403507969696680653240014914910929820314476107906210059990431967235"
      ]
    },
    {
      "x": 379,
      "y": 344,
      "size": 1,
      "price": "2106000000000000000000",
      "reserved": "",
      "salt": "0x94b3e48dc785cb9344e7e85b57eafcc6c7fc1969d702087a53276c8d69d921a0",
      "assetIds": [
        "41506478881403507969696680653240014914910929820314476107906210059990431967234",
        "41506478881403507969696680653240014914910929820314476107906210059990431967235"
      ]
    },
    {
      "x": 378,
      "y": 345,
      "size": 1,
      "price": "2106000000000000000000",
      "reserved": "",
      "salt": "0x3029b2ca0558ef54bfc732a6fbdefb343662d68f97ab0a58dde267ee8067e2cf",
      "assetIds": [
        "41506478881403507969696680653240014914910929820314476107906210059990431967232",
        "41506478881403507969696680653240014914910929820314476107906210059990431967233"
      ]
    },
    {
      "x": 378,
      "y": 346,
      "size": 1,
      "price": "2106000000000000000000",
      "reserved": "",
      "salt": "0x104022f2bc22d46afe73678ad4878ca44600e12c7f29dd5aa060811ac5262e61",
      "assetIds": [
        "41506478881403507969696680653240014914910929820314476107906210059990431967232",
        "41506478881403507969696680653240014914910929820314476107906210059990431967233"
      ]
    },
    {
      "x": 378,
      "y": 347,
      "size": 1,
      "price": "2106000000000000000000",
      "reserved": "",
      "salt": "0x8c2f7e703484970f589f975ee93b07e324b7cd461a01be6cd3f21c92713ee3c9",
      "assetIds": [
        "41506478881403507969696680653240014914910929820314476107906210059990431967234",
        "41506478881403507969696680653240014914910929820314476107906210059990431967235"
      ]
    },
    {
      "x": 378,
      "y": 344,
      "size": 1,
      "price": "2106000000000000000000",
      "reserved": "",
      "salt": "0xd7e28e7bdeb79e47d4489d71ea5c94f54c6890b61cd0cddc90ec66d8c303c2fa",
      "assetIds": [
        "41506478881403507969696680653240014914910929820314476107906210059990431967233",
        "41506478881403507969696680653240014914910929820314476107906210059990431967234"
      ]
    },
    {
      "x": 379,
      "y": 346,
      "size": 1,
      "price": "2106000000000000000000",
      "reserved": "",
      "salt": "0x1f079a8c68d9c90aeaf255845782f5ffcb6d3c905c5f07e21c9ef08283873067",
      "assetIds": [
        "41506478881403507969696680653240014914910929820314476107906210059990431967233",
        "41506478881403507969696680653240014914910929820314476107906210059990431967234"
      ]
    },
    {
      "x": 379,
      "y": 347,
      "size": 1,
      "price": "2106000000000000000000",
      "reserved": "",
      "salt": "0xce6bef8cd7a233f4cb8c5833e77221814e5b82bbd850c83dadc280199b25fb02",
      "assetIds": [
        "41506478881403507969696680653240014914910929820314476107906210059990431967234",
        "41506478881403507969696680653240014914910929820314476107906210059990431967235"
      ]
    },
    {
      "x": 380,
      "y": 347,
      "size": 1,
      "price": "2106000000000000000000",
      "reserved": "",
      "salt": "0xc5550107c546d9ef207289786522f7230776cdd7cd4f83e2473dca225c20778d",
      "assetIds": [
        "41506478881403507969696680653240014914910929820314476107906210059990431967234",
        "41506478881403507969696680653240014914910929820314476107906210059990431967235"
      ]
    },
    {
      "x": 380,
      "y": 346,
      "size": 1,
      "price": "2106000000000000000000",
      "reserved": "",
      "salt": "0x86e4838ae50de98604faf10d785fa85b475206c5061640da277d9b6e21587aef",
      "assetIds": [
        "41506478881403507969696680653240014914910929820314476107906210059990431967234",
        "41506478881403507969696680653240014914910929820314476107906210059990431967235"
      ]
    },
    {
      "x": 381,
      "y": 346,
      "size": 1,
      "price": "2106000000000000000000",
      "reserved": "",
      "salt": "0xf4e06dad1e8f27800654ce377999618e76743d954b140e8248404f32b51fa35d",
      "assetIds": [
        "41506478881403507969696680653240014914910929820314476107906210059990431967233",
        "41506478881403507969696680653240014914910929820314476107906210059990431967234"
      ]
    },
    {
      "x": 381,
      "y": 345,
      "size": 1,
      "price": "2106000000000000000000",
      "reserved": "",
      "salt": "0x25cd9d0ef3241d14453c1f1803b9c745220298bfcfcf2e903d68f1b228304ee6",
      "assetIds": [
        "41506478881403507969696680653240014914910929820314476107906210059990431967234",
        "41506478881403507969696680653240014914910929820314476107906210059990431967235"
      ]
    },
    {
      "x": 381,
      "y": 347,
      "size": 1,
      "price": "2106000000000000000000",
      "reserved": "",
      "salt": "0xac1744e28ddc751168e49a953a991f248bd7795209ff5659e21e9e8d7a165c77",
      "assetIds": [
        "41506478881403507969696680653240014914910929820314476107906210059990431967232",
        "41506478881403507969696680653240014914910929820314476107906210059990431967233"
      ]
    },
    {
      "x": 382,
      "y": 347,
      "size": 1,
      "price": "2106000000000000000000",
      "reserved": "",
      "salt": "0xe8078447a72b212727ae756a0bd6b7c1e7fc08491736855374cceddfccb66a82",
      "assetIds": [
        "41506478881403507969696680653240014914910929820314476107906210059990431967234",
        "41506478881403507969696680653240014914910929820314476107906210059990431967235"
      ]
    },
    {
      "x": 382,
      "y": 348,
      "size": 1,
      "price": "2106000000000000000000",
      "reserved": "",
      "salt": "0x57d6b6bbfcf469d3401b69ea1cbefb06c014869f169a3a92de9236fabbe4b5e0",
      "assetIds": [
        "41506478881403507969696680653240014914910929820314476107906210059990431967234",
        "41506478881403507969696680653240014914910929820314476107906210059990431967235"
      ]
    },
    {
      "x": 374,
      "y": 348,
      "size": 1,
      "price": "2106000000000000000000",
      "reserved": "",
      "salt": "0x46474bc259d787826b5c71009663ff8d28a62daddbedc103f3f8305cce930674",
      "assetIds": [
        "41506478881403507969696680653240014914910929820314476107906210059990431967233",
        "41506478881403507969696680653240014914910929820314476107906210059990431967234"
      ]
    },
    {
      "x": 373,
      "y": 348,
      "size": 1,
      "price": "2106000000000000000000",
      "reserved": "",
      "salt": "0x514fbcf792f2969eb259fc744112aea3cf7839e2686d6eea72cae07adb01aea0",
      "assetIds": [
        "41506478881403507969696680653240014914910929820314476107906210059990431967235",
        "41506478881403507969696680653240014914910929820314476107906210059990431967236"
      ]
    },
    {
      "x": 375,
      "y": 348,
      "size": 1,
      "price": "2106000000000000000000",
      "reserved": "",
      "salt": "0xbc2b63ef0ec7bb694ce1a869906d944fdd531d5c01c11efc1f2337dc16b2234b",
      "assetIds": [
        "41506478881403507969696680653240014914910929820314476107906210059990431967234",
        "41506478881403507969696680653240014914910929820314476107906210059990431967235"
      ]
    },
    {
      "x": 376,
      "y": 348,
      "size": 1,
      "price": "2106000000000000000000",
      "reserved": "",
      "salt": "0x0e7b659aebbf3ce4f426a0efdd7ab7c03658ce40f5b535d7c79d3d67870679ca",
      "assetIds": [
        "41506478881403507969696680653240014914910929820314476107906210059990431967235",
        "41506478881403507969696680653240014914910929820314476107906210059990431967236"
      ]
    },
    {
      "x": 377,
      "y": 348,
      "size": 1,
      "price": "2106000000000000000000",
      "reserved": "",
      "salt": "0x620891a8ff0656d92d74fef0ca1234dfe7bf096c98e41dbcd12ce870f56ea421",
      "assetIds": [
        "41506478881403507969696680653240014914910929820314476107906210059990431967234",
        "41506478881403507969696680653240014914910929820314476107906210059990431967235"
      ]
    },
    {
      "x": 381,
      "y": 348,
      "size": 1,
      "price": "2106000000000000000000",
      "reserved": "",
      "salt": "0x60ea0c2bcd21c78bc052b8708895f73b0fec1589b349515a7f464fc588577a74",
      "assetIds": [
        "41506478881403507969696680653240014914910929820314476107906210059990431967234",
        "41506478881403507969696680653240014914910929820314476107906210059990431967235"
      ]
    },
    {
      "x": 380,
      "y": 348,
      "size": 1,
      "price": "2106000000000000000000",
      "reserved": "",
      "salt": "0x669c670e9c57668f6aedd72529cba6014f4ef315dede0ff13cd1a1d211034ba1",
      "assetIds": [
        "41506478881403507969696680653240014914910929820314476107906210059990431967234",
        "41506478881403507969696680653240014914910929820314476107906210059990431967235"
      ]
    },
    {
      "x": 379,
      "y": 348,
      "size": 1,
      "price": "2106000000000000000000",
      "reserved": "",
      "salt": "0x586121f5a414fb1990c6c8fd37401cf3cfe32fddd28abe4e29f09b2249eff37f",
      "assetIds": [
        "41506478881403507969696680653240014914910929820314476107906210059990431967233",
        "41506478881403507969696680653240014914910929820314476107906210059990431967234"
      ]
    },
    {
      "x": 378,
      "y": 348,
      "size": 1,
      "price": "2106000000000000000000",
      "reserved": "",
      "salt": "0x448b3607953e0a29107daddf43262610d3405423b624a8b96660af4ef049af19",
      "assetIds": [
        "41506478881403507969696680653240014914910929820314476107906210059990431967235",
        "41506478881403507969696680653240014914910929820314476107906210059990431967236"
      ]
    },
    {
      "x": 375,
      "y": 349,
      "size": 1,
      "price": "2106000000000000000000",
      "reserved": "",
      "salt": "0x9803222e15bd506c7b6119dd59aef2976a0204a400ff35804dc123d29e8eea60",
      "assetIds": [
        "41506478881403507969696680653240014914910929820314476107906210059990431967232",
        "41506478881403507969696680653240014914910929820314476107906210059990431967233"
      ]
    },
    {
      "x": 374,
      "y": 349,
      "size": 1,
      "price": "2106000000000000000000",
      "reserved": "",
      "salt": "0x134335df4b7f65a73070c2950862d555c44a5c93f8dbfcd61e4d7725608200af",
      "assetIds": [
        "41506478881403507969696680653240014914910929820314476107906210059990431967234",
        "41506478881403507969696680653240014914910929820314476107906210059990431967235"
      ]
    },
    {
      "x": 374,
      "y": 350,
      "size": 1,
      "price": "2106000000000000000000",
      "reserved": "",
      "salt": "0xc73c6dffb96518c20eb71cb3e28d17fa5680a73087ae444ae0ad1b651f7d3cf6",
      "assetIds": [
        "41506478881403507969696680653240014914910929820314476107906210059990431967235",
        "41506478881403507969696680653240014914910929820314476107906210059990431967236"
      ]
    },
    {
      "x": 373,
      "y": 350,
      "size": 1,
      "price": "2106000000000000000000",
      "reserved": "",
      "salt": "0x7520a17ff6d44dec38a327c1a15cd1aa19c6696a17baa7e6e51a9efbd5107aea",
      "assetIds": [
        "41506478881403507969696680653240014914910929820314476107906210059990431967233",
        "41506478881403507969696680653240014914910929820314476107906210059990431967234"
      ]
    },
    {
      "x": 376,
      "y": 349,
      "size": 1,
      "price": "2106000000000000000000",
      "reserved": "",
      "salt": "0x3d37acc8df6ead66b8c569c5f5ca630207c6c20adba23ab8c8ac6bfddcbfba5d",
      "assetIds": [
        "41506478881403507969696680653240014914910929820314476107906210059990431967235",
        "41506478881403507969696680653240014914910929820314476107906210059990431967236"
      ]
    },
    {
      "x": 373,
      "y": 349,
      "size": 1,
      "price": "2106000000000000000000",
      "reserved": "",
      "salt": "0x560104a619cfdc8117c0ad01146dd9e529cf1c34c1b38ab827605cf7decbd1e4",
      "assetIds": [
        "41506478881403507969696680653240014914910929820314476107906210059990431967232",
        "41506478881403507969696680653240014914910929820314476107906210059990431967233"
      ]
    },
    {
      "x": 378,
      "y": 349,
      "size": 1,
      "price": "2106000000000000000000",
      "reserved": "",
      "salt": "0x9dd8a65b51ae36b4dab1a20fc28953b9afb0eca0e8768c85bd5c3eb142f16554",
      "assetIds": [
        "41506478881403507969696680653240014914910929820314476107906210059990431967232",
        "41506478881403507969696680653240014914910929820314476107906210059990431967233"
      ]
    },
    {
      "x": 377,
      "y": 349,
      "size": 1,
      "price": "2106000000000000000000",
      "reserved": "",
      "salt": "0xf1f4e18c9a5588f3069cafea5dda0adcea8d36871416dd0bfcea3dbdbad5c9e1",
      "assetIds": [
        "41506478881403507969696680653240014914910929820314476107906210059990431967234",
        "41506478881403507969696680653240014914910929820314476107906210059990431967235"
      ]
    },
    {
      "x": 374,
      "y": 351,
      "size": 1,
      "price": "2106000000000000000000",
      "reserved": "",
      "salt": "0x5d73251b887ffe9ba8d2ac4016f7b3b7531dfc77ee91d1451a23977e07aee5e2",
      "assetIds": [
        "41506478881403507969696680653240014914910929820314476107906210059990431967232",
        "41506478881403507969696680653240014914910929820314476107906210059990431967233"
      ]
    },
    {
      "x": 375,
      "y": 351,
      "size": 1,
      "price": "2106000000000000000000",
      "reserved": "",
      "salt": "0xee5c6808e8df7234855bc1121edab0eb313d735874c17f2715f9ac249e8e0611",
      "assetIds": [
        "41506478881403507969696680653240014914910929820314476107906210059990431967232",
        "41506478881403507969696680653240014914910929820314476107906210059990431967233"
      ]
    },
    {
      "x": 375,
      "y": 352,
      "size": 1,
      "price": "2106000000000000000000",
      "reserved": "",
      "salt": "0x5712edf3cb499c819879d40d644ca79b07111b711e6ff3d2ab6868398b7b4f77",
      "assetIds": [
        "41506478881403507969696680653240014914910929820314476107906210059990431967233",
        "41506478881403507969696680653240014914910929820314476107906210059990431967234"
      ]
    },
    {
      "x": 375,
      "y": 350,
      "size": 1,
      "price": "2106000000000000000000",
      "reserved": "",
      "salt": "0x0468293e907e4a02dd8c158968ddd93b1dcf6c5eac8516349d272211fcc431f5",
      "assetIds": [
        "41506478881403507969696680653240014914910929820314476107906210059990431967232",
        "41506478881403507969696680653240014914910929820314476107906210059990431967233"
      ]
    },
    {
      "x": 374,
      "y": 352,
      "size": 1,
      "price": "2106000000000000000000",
      "reserved": "",
      "salt": "0x0f5fdc9660e0ba6f7ed6d9fa257aea45a23196d4ecb868a2aef595fe321a8e47",
      "assetIds": [
        "41506478881403507969696680653240014914910929820314476107906210059990431967233",
        "41506478881403507969696680653240014914910929820314476107906210059990431967234"
      ]
    },
    {
      "x": 373,
      "y": 352,
      "size": 1,
      "price": "2106000000000000000000",
      "reserved": "",
      "salt": "0x94db61d31367f408f5e99f8f8b5f58d84d3f6ded09315aaa3e40900bf44e5637",
      "assetIds": [
        "41506478881403507969696680653240014914910929820314476107906210059990431967235",
        "41506478881403507969696680653240014914910929820314476107906210059990431967236"
      ]
    },
    {
      "x": 373,
      "y": 351,
      "size": 1,
      "price": "2106000000000000000000",
      "reserved": "",
      "salt": "0x743cffe4c1cdda26be79ab0ae88211b5f65736863b844e7328e9b2b6af261c90",
      "assetIds": [
        "41506478881403507969696680653240014914910929820314476107906210059990431967232",
        "41506478881403507969696680653240014914910929820314476107906210059990431967233"
      ]
    },
    {
      "x": 376,
      "y": 351,
      "size": 1,
      "price": "2106000000000000000000",
      "reserved": "",
      "salt": "0xb85f34064312aa0ddebbc4d40e243d3419888dc62e594ef6cc3a797b97ab7528",
      "assetIds": [
        "41506478881403507969696680653240014914910929820314476107906210059990431967232",
        "41506478881403507969696680653240014914910929820314476107906210059990431967233"
      ]
    },
    {
      "x": 377,
      "y": 351,
      "size": 1,
      "price": "2106000000000000000000",
      "reserved": "",
      "salt": "0xd0f093e87a850f16a3214e9f978219b616c8c61cd47bef129f102665d2e2f0b4",
      "assetIds": [
        "41506478881403507969696680653240014914910929820314476107906210059990431967234",
        "41506478881403507969696680653240014914910929820314476107906210059990431967235"
      ]
    },
    {
      "x": 378,
      "y": 351,
      "size": 1,
      "price": "2106000000000000000000",
      "reserved": "",
      "salt": "0x8c8372db24b0cb2f2fdf690ccae4d6bf6aa614080b6f5c1246495b720f02a848",
      "assetIds": [
        "41506478881403507969696680653240014914910929820314476107906210059990431967235",
        "41506478881403507969696680653240014914910929820314476107906210059990431967236"
      ]
    },
    {
      "x": 380,
      "y": 350,
      "size": 1,
      "price": "2106000000000000000000",
      "reserved": "",
      "salt": "0xadf153d6ff00a02259460968c40b381efcb500c59794cf1ecee2cb03ad1873b6",
      "assetIds": [
        "41506478881403507969696680653240014914910929820314476107906210059990431967235",
        "41506478881403507969696680653240014914910929820314476107906210059990431967236"
      ]
    },
    {
      "x": 381,
      "y": 350,
      "size": 1,
      "price": "2106000000000000000000",
      "reserved": "",
      "salt": "0x756faee09cb6bd2d4e8647cd146cdc7a7b584981716af60306a4f4c69e1f9723",
      "assetIds": [
        "41506478881403507969696680653240014914910929820314476107906210059990431967232",
        "41506478881403507969696680653240014914910929820314476107906210059990431967233"
      ]
    },
    {
      "x": 381,
      "y": 351,
      "size": 1,
      "price": "2106000000000000000000",
      "reserved": "",
      "salt": "0x1b88a60164adcc69d053a0879df35e70120602ed95da48b595893e80388633d6",
      "assetIds": [
        "41506478881403507969696680653240014914910929820314476107906210059990431967233",
        "41506478881403507969696680653240014914910929820314476107906210059990431967234"
      ]
    },
    {
      "x": 376,
      "y": 352,
      "size": 1,
      "price": "2106000000000000000000",
      "reserved": "",
      "salt": "0xbdb5ea25d78c8fe40099b2105fc49f1d42c1db83709c2a3fcbbe2e95e1219bd1",
      "assetIds": [
        "41506478881403507969696680653240014914910929820314476107906210059990431967233",
        "41506478881403507969696680653240014914910929820314476107906210059990431967234"
      ]
    },
    {
      "x": 377,
      "y": 352,
      "size": 1,
      "price": "2106000000000000000000",
      "reserved": "",
      "salt": "0x1a918b2b7274a3a4d1f31134ec557bdb72b631e7191f418d5c976cddaf33285a",
      "assetIds": [
        "41506478881403507969696680653240014914910929820314476107906210059990431967235",
        "41506478881403507969696680653240014914910929820314476107906210059990431967236"
      ]
    },
    {
      "x": 378,
      "y": 352,
      "size": 1,
      "price": "2106000000000000000000",
      "reserved": "",
      "salt": "0xf2b3ee4126df91269f61b70c3489091f33ab0cf464bdf12bbdffd4aaa1aa699c",
      "assetIds": [
        "41506478881403507969696680653240014914910929820314476107906210059990431967233",
        "41506478881403507969696680653240014914910929820314476107906210059990431967234"
      ]
    },
    {
      "x": 379,
      "y": 352,
      "size": 1,
      "price": "2106000000000000000000",
      "reserved": "",
      "salt": "0x98dc64acfb3d4b9d7559528d727bde09edac4a2603b10b3b397a94c1a1ff1b81",
      "assetIds": [
        "41506478881403507969696680653240014914910929820314476107906210059990431967234",
        "41506478881403507969696680653240014914910929820314476107906210059990431967235"
      ]
    },
    {
      "x": 380,
      "y": 352,
      "size": 1,
      "price": "2106000000000000000000",
      "reserved": "",
      "salt": "0x3a118f96a2faede81fc9a2484faddce03f345ceddfef0d8e50974ebbe5bcac9e",
      "assetIds": [
        "41506478881403507969696680653240014914910929820314476107906210059990431967234",
        "41506478881403507969696680653240014914910929820314476107906210059990431967235"
      ]
    },
    {
      "x": 381,
      "y": 352,
      "size": 1,
      "price": "2106000000000000000000",
      "reserved": "",
      "salt": "0xb1a0670d2e292eeb76513cc067a9bb6a57f1818d21a41f77e477072d2e456999",
      "assetIds": [
        "41506478881403507969696680653240014914910929820314476107906210059990431967233",
        "41506478881403507969696680653240014914910929820314476107906210059990431967234"
      ]
    },
    {
      "x": 379,
      "y": 351,
      "size": 1,
      "price": "2106000000000000000000",
      "reserved": "",
      "salt": "0x39d52690b8db39512f6ca94eaf75667251902e541291c8a1c5387d1657a5a245",
      "assetIds": [
        "41506478881403507969696680653240014914910929820314476107906210059990431967233",
        "41506478881403507969696680653240014914910929820314476107906210059990431967234"
      ]
    },
    {
      "x": 380,
      "y": 351,
      "size": 1,
      "price": "2106000000000000000000",
      "reserved": "",
      "salt": "0xe38d228f9480ea0cc56b3909702fcc90363560cb5e9b49453589cf820c11b7bc",
      "assetIds": [
        "41506478881403507969696680653240014914910929820314476107906210059990431967234",
        "41506478881403507969696680653240014914910929820314476107906210059990431967235"
      ]
    },
    {
      "x": 382,
      "y": 350,
      "size": 1,
      "price": "2106000000000000000000",
      "reserved": "",
      "salt": "0x13fb0bfbc27484ea11d15ba323cae699840ba0eafe946d82d928ac8df727cf6f",
      "assetIds": [
        "41506478881403507969696680653240014914910929820314476107906210059990431967232",
        "41506478881403507969696680653240014914910929820314476107906210059990431967233"
      ]
    },
    {
      "x": 383,
      "y": 350,
      "size": 1,
      "price": "2106000000000000000000",
      "reserved": "",
      "salt": "0xe9794a1acc55f715fd98506caf6642bc77bf3e5207e3ed4fd0ec11c5093181e0",
      "assetIds": [
        "41506478881403507969696680653240014914910929820314476107906210059990431967232",
        "41506478881403507969696680653240014914910929820314476107906210059990431967233"
      ]
    },
    {
      "x": 384,
      "y": 350,
      "size": 1,
      "price": "2106000000000000000000",
      "reserved": "",
      "salt": "0xe0df436f9da8a18f9291fef7e474304cf4868022fd509397db74f7328340934a",
      "assetIds": [
        "41506478881403507969696680653240014914910929820314476107906210059990431967234",
        "41506478881403507969696680653240014914910929820314476107906210059990431967235"
      ]
    },
    {
      "x": 385,
      "y": 350,
      "size": 1,
      "price": "2106000000000000000000",
      "reserved": "",
      "salt": "0x3fa4c2054c739e372c7bd18a35bf1ec01714f377e87348b2979a9242f9423ac1",
      "assetIds": [
        "41506478881403507969696680653240014914910929820314476107906210059990431967233",
        "41506478881403507969696680653240014914910929820314476107906210059990431967234"
      ]
    },
    {
      "x": 386,
      "y": 350,
      "size": 1,
      "price": "2106000000000000000000",
      "reserved": "",
      "salt": "0x535ab228d64b5c451d87caf2ba32d835af4a5c62becd1f005747b877cdf39d84",
      "assetIds": [
        "41506478881403507969696680653240014914910929820314476107906210059990431967233",
        "41506478881403507969696680653240014914910929820314476107906210059990431967234"
      ]
    },
    {
      "x": 387,
      "y": 349,
      "size": 1,
      "price": "2106000000000000000000",
      "reserved": "",
      "salt": "0xcda9a7347acaed0f963e5eeaa2d5302c01f98620100702d439cf5c83ae4b9abb",
      "assetIds": [
        "41506478881403507969696680653240014914910929820314476107906210059990431967234",
        "41506478881403507969696680653240014914910929820314476107906210059990431967235"
      ]
    },
    {
      "x": 387,
      "y": 348,
      "size": 1,
      "price": "2106000000000000000000",
      "reserved": "",
      "salt": "0x62cf2b2e7c52e479f46a848e542f2e3132ca0af81e1f806b2385ca2f19434a76",
      "assetIds": [
        "41506478881403507969696680653240014914910929820314476107906210059990431967232",
        "41506478881403507969696680653240014914910929820314476107906210059990431967233"
      ]
    },
    {
      "x": 387,
      "y": 347,
      "size": 1,
      "price": "2106000000000000000000",
      "reserved": "",
      "salt": "0x9720576b63118a73744bedc5ae369a8e13c16c1b994354df28f733a86cb5eb26",
      "assetIds": [
        "41506478881403507969696680653240014914910929820314476107906210059990431967233",
        "41506478881403507969696680653240014914910929820314476107906210059990431967234"
      ]
    },
    {
      "x": 387,
      "y": 346,
      "size": 1,
      "price": "2106000000000000000000",
      "reserved": "",
      "salt": "0xd015a92a1f02991b7ae30175bce7b2fd455a06f5416f0cfdaabd9761ec653005",
      "assetIds": [
        "41506478881403507969696680653240014914910929820314476107906210059990431967235",
        "41506478881403507969696680653240014914910929820314476107906210059990431967236"
      ]
    },
    {
      "x": 387,
      "y": 345,
      "size": 1,
      "price": "2106000000000000000000",
      "reserved": "",
      "salt": "0xbe2912fa493e7e3ded6ec8a59f35fd1b9d17587fbf83cb991c02240da05b445d",
      "assetIds": [
        "41506478881403507969696680653240014914910929820314476107906210059990431967233",
        "41506478881403507969696680653240014914910929820314476107906210059990431967234"
      ]
    },
    {
      "x": 386,
      "y": 344,
      "size": 1,
      "price": "2106000000000000000000",
      "reserved": "",
      "salt": "0x50e54fe2144d376b4284b31faa28cd721f5374680c6626c4fa144661df98d19a",
      "assetIds": [
        "41506478881403507969696680653240014914910929820314476107906210059990431967232",
        "41506478881403507969696680653240014914910929820314476107906210059990431967233"
      ]
    },
    {
      "x": 386,
      "y": 343,
      "size": 1,
      "price": "2106000000000000000000",
      "reserved": "",
      "salt": "0x3342fe87b4a8116337e9474d6cf07001306e642df34dffe60db43e49e268b3e1",
      "assetIds": [
        "41506478881403507969696680653240014914910929820314476107906210059990431967234",
        "41506478881403507969696680653240014914910929820314476107906210059990431967235"
      ]
    },
    {
      "x": 386,
      "y": 342,
      "size": 1,
      "price": "2106000000000000000000",
      "reserved": "",
      "salt": "0x5eef8366d31d44f020d7b12198458870ad5076ff0a40e0ac2595fa91244a9fa6",
      "assetIds": [
        "41506478881403507969696680653240014914910929820314476107906210059990431967233",
        "41506478881403507969696680653240014914910929820314476107906210059990431967234"
      ]
    },
    {
      "x": 386,
      "y": 341,
      "size": 1,
      "price": "2106000000000000000000",
      "reserved": "",
      "salt": "0xff1ef8f7f8e445118f0d54bf91ec042023c927e4d90403522e9067a475c05154",
      "assetIds": [
        "41506478881403507969696680653240014914910929820314476107906210059990431967232",
        "41506478881403507969696680653240014914910929820314476107906210059990431967233"
      ]
    },
    {
      "x": 386,
      "y": 340,
      "size": 1,
      "price": "2106000000000000000000",
      "reserved": "",
      "salt": "0xf27ccf16a4000c91d8b3c9aaac5c6e92484a8302a55ff54509682a98a7535177",
      "assetIds": [
        "41506478881403507969696680653240014914910929820314476107906210059990431967232",
        "41506478881403507969696680653240014914910929820314476107906210059990431967233"
      ]
    },
    {
      "x": 386,
      "y": 339,
      "size": 1,
      "price": "2106000000000000000000",
      "reserved": "",
      "salt": "0xd8f2f43bfe65233f377d2822ccc4e2787269818e0a148dbdc9a0450dfcedb596",
      "assetIds": [
        "41506478881403507969696680653240014914910929820314476107906210059990431967232",
        "41506478881403507969696680653240014914910929820314476107906210059990431967233"
      ]
    },
    {
      "x": 386,
      "y": 338,
      "size": 1,
      "price": "2106000000000000000000",
      "reserved": "",
      "salt": "0xe311e8f05319c296e888cb997d95ee6275f255ece1cae2a61db6bdd9fde6c149",
      "assetIds": [
        "41506478881403507969696680653240014914910929820314476107906210059990431967235",
        "41506478881403507969696680653240014914910929820314476107906210059990431967236"
      ]
    },
    {
      "x": 385,
      "y": 337,
      "size": 1,
      "price": "2106000000000000000000",
      "reserved": "",
      "salt": "0x5b2ad117f1ccea7a99b47d0c04b033e93be16b383d1b5a4c0f09e7bf85e3c2cf",
      "assetIds": [
        "41506478881403507969696680653240014914910929820314476107906210059990431967235",
        "41506478881403507969696680653240014914910929820314476107906210059990431967236"
      ]
    },
    {
      "x": 384,
      "y": 337,
      "size": 1,
      "price": "2106000000000000000000",
      "reserved": "",
      "salt": "0x9d6d9ab95e203b718267206a6ab74727469d980ae78b311af4ddb387aa4a12ac",
      "assetIds": [
        "41506478881403507969696680653240014914910929820314476107906210059990431967234",
        "41506478881403507969696680653240014914910929820314476107906210059990431967235"
      ]
    },
    {
      "x": 384,
      "y": 336,
      "size": 1,
      "price": "2106000000000000000000",
      "reserved": "",
      "salt": "0x99ecb43ab8c7c38cc3ca1d2dd360d6478db1878053e81463a83ed99a651f85a3",
      "assetIds": [
        "41506478881403507969696680653240014914910929820314476107906210059990431967232",
        "41506478881403507969696680653240014914910929820314476107906210059990431967233"
      ]
    },
    {
      "x": 385,
      "y": 336,
      "size": 1,
      "price": "2106000000000000000000",
      "reserved": "",
      "salt": "0xa3777ad14d428660b286488c43995e80637978fab79d7ccad5bdee2112d88827",
      "assetIds": [
        "41506478881403507969696680653240014914910929820314476107906210059990431967233",
        "41506478881403507969696680653240014914910929820314476107906210059990431967234"
      ]
    },
    {
      "x": 386,
      "y": 336,
      "size": 1,
      "price": "2106000000000000000000",
      "reserved": "",
      "salt": "0x6aece4f44cb211b7b69582df5860f9ebc11afcf9bf6340eb607cade783b4c069",
      "assetIds": [
        "41506478881403507969696680653240014914910929820314476107906210059990431967235",
        "41506478881403507969696680653240014914910929820314476107906210059990431967236"
      ]
    },
    {
      "x": 387,
      "y": 336,
      "size": 1,
      "price": "2106000000000000000000",
      "reserved": "",
      "salt": "0xae155c101cc30ee7e97db955c46649a3fa6efc370868fc82850f437a4a8f8093",
      "assetIds": [
        "41506478881403507969696680653240014914910929820314476107906210059990431967232",
        "41506478881403507969696680653240014914910929820314476107906210059990431967233"
      ]
    },
    {
      "x": 388,
      "y": 336,
      "size": 1,
      "price": "2106000000000000000000",
      "reserved": "",
      "salt": "0x2c86c5a19a3187cd28f57b133411ccef6444dd69e83519a5de0085790254683b",
      "assetIds": [
        "41506478881403507969696680653240014914910929820314476107906210059990431967232",
        "41506478881403507969696680653240014914910929820314476107906210059990431967233"
      ]
    },
    {
      "x": 388,
      "y": 337,
      "size": 1,
      "price": "2106000000000000000000",
      "reserved": "",
      "salt": "0x43a9b0d47f64b1b86907963d1052b7aa69aa329a9fa8c8c3593156c4dd614e82",
      "assetIds": [
        "41506478881403507969696680653240014914910929820314476107906210059990431967233",
        "41506478881403507969696680653240014914910929820314476107906210059990431967234"
      ]
    },
    {
      "x": 389,
      "y": 337,
      "size": 1,
      "price": "2106000000000000000000",
      "reserved": "",
      "salt": "0x5af34b10242e732ca21f91cc8a4c845c93d835a085d443dd91a724e4e23f9881",
      "assetIds": [
        "41506478881403507969696680653240014914910929820314476107906210059990431967233",
        "41506478881403507969696680653240014914910929820314476107906210059990431967234"
      ]
    },
    {
      "x": 390,
      "y": 337,
      "size": 1,
      "price": "2106000000000000000000",
      "reserved": "",
      "salt": "0xe044de355f7f38305784a5f355db9a46f7638c1fff90b9c70549e930479fed3a",
      "assetIds": [
        "41506478881403507969696680653240014914910929820314476107906210059990431967232",
        "41506478881403507969696680653240014914910929820314476107906210059990431967233"
      ]
    },
    {
      "x": 391,
      "y": 337,
      "size": 1,
      "price": "2106000000000000000000",
      "reserved": "",
      "salt": "0xc76c584354196a7216963514931323e0995eb95c5eb51874504bb84821d3535b",
      "assetIds": [
        "41506478881403507969696680653240014914910929820314476107906210059990431967235",
        "41506478881403507969696680653240014914910929820314476107906210059990431967236"
      ]
    },
    {
      "x": 392,
      "y": 337,
      "size": 1,
      "price": "2106000000000000000000",
      "reserved": "",
      "salt": "0x0fdc9764c9b942922c8b9524dabe9de76d9d089fc804041c6de52f9f516f5ffc",
      "assetIds": [
        "41506478881403507969696680653240014914910929820314476107906210059990431967234",
        "41506478881403507969696680653240014914910929820314476107906210059990431967235"
      ]
    },
    {
      "x": 393,
      "y": 337,
      "size": 1,
      "price": "2106000000000000000000",
      "reserved": "",
      "salt": "0x6ff39bd2362659cfbc5d91e7011a2e6f667e5106944d1fb3c75e1973f9d4202b",
      "assetIds": [
        "41506478881403507969696680653240014914910929820314476107906210059990431967233",
        "41506478881403507969696680653240014914910929820314476107906210059990431967234"
      ]
    },
    {
      "x": 394,
      "y": 337,
      "size": 1,
      "price": "2106000000000000000000",
      "reserved": "",
      "salt": "0x55b37ab3124aba887ae9cbeedf98f5769c2dd5600ca1bcdba942975fb1b9e676",
      "assetIds": [
        "41506478881403507969696680653240014914910929820314476107906210059990431967234",
        "41506478881403507969696680653240014914910929820314476107906210059990431967235"
      ]
    },
    {
      "x": 395,
      "y": 337,
      "size": 1,
      "price": "2106000000000000000000",
      "reserved": "",
      "salt": "0x8b0aebc222cb9976b65859abb5b59fd234ad41de9f5358445047f70eec14b815",
      "assetIds": [
        "41506478881403507969696680653240014914910929820314476107906210059990431967232",
        "41506478881403507969696680653240014914910929820314476107906210059990431967233"
      ]
    },
    {
      "x": 392,
      "y": 336,
      "size": 1,
      "price": "2106000000000000000000",
      "reserved": "",
      "salt": "0xb3cab6e5945c340bad692734842ec994169ec823c68d2483dcd51078df1d7fdd",
      "assetIds": [
        "41506478881403507969696680653240014914910929820314476107906210059990431967233",
        "41506478881403507969696680653240014914910929820314476107906210059990431967234"
      ]
    },
    {
      "x": 391,
      "y": 336,
      "size": 1,
      "price": "2106000000000000000000",
      "reserved": "",
      "salt": "0xf5ec446fb4b262771d73a76ee512b911400dfe2661109f29907847d2407abf84",
      "assetIds": [
        "41506478881403507969696680653240014914910929820314476107906210059990431967234",
        "41506478881403507969696680653240014914910929820314476107906210059990431967235"
      ]
    },
    {
      "x": 390,
      "y": 336,
      "size": 1,
      "price": "2106000000000000000000",
      "reserved": "",
      "salt": "0xf6093ced8a7cc766a88fa39ef8dca4153fe5f4b8f1554e38cd7a7177b04c28cf",
      "assetIds": [
        "41506478881403507969696680653240014914910929820314476107906210059990431967232",
        "41506478881403507969696680653240014914910929820314476107906210059990431967233"
      ]
    },
    {
      "x": 389,
      "y": 336,
      "size": 1,
      "price": "2106000000000000000000",
      "reserved": "",
      "salt": "0xfa3a658e58f7fc1b58f69a587b452800217495d4cf5e289f6fcbd849926e2a79",
      "assetIds": [
        "41506478881403507969696680653240014914910929820314476107906210059990431967234",
        "41506478881403507969696680653240014914910929820314476107906210059990431967235"
      ]
    },
    {
      "x": 393,
      "y": 336,
      "size": 1,
      "price": "2106000000000000000000",
      "reserved": "",
      "salt": "0x1a681fdb1d3455cd42d63c9d606c1510f8498a295c4d92324e2d43e4bf2391a7",
      "assetIds": [
        "41506478881403507969696680653240014914910929820314476107906210059990431967232",
        "41506478881403507969696680653240014914910929820314476107906210059990431967233"
      ]
    },
    {
      "x": 394,
      "y": 336,
      "size": 1,
      "price": "2106000000000000000000",
      "reserved": "",
      "salt": "0x3de09523f5002d83c7abe05020e56e51dd6f17705e7292e89e21ba056984684e",
      "assetIds": [
        "41506478881403507969696680653240014914910929820314476107906210059990431967234",
        "41506478881403507969696680653240014914910929820314476107906210059990431967235"
      ]
    },
    {
      "x": 395,
      "y": 336,
      "size": 1,
      "price": "2106000000000000000000",
      "reserved": "",
      "salt": "0xf0338948509b0056c48e7dfd59cfde104a5fa68bb4746f1c10c9044eb1a62a95",
      "assetIds": [
        "41506478881403507969696680653240014914910929820314476107906210059990431967232",
        "41506478881403507969696680653240014914910929820314476107906210059990431967233"
      ]
    },
    {
      "x": 395,
      "y": 338,
      "size": 1,
      "price": "2106000000000000000000",
      "reserved": "",
      "salt": "0x854dc048557bbcbef5fe5a0ffac174df8b2846b572eec309e5797c0f87ae490b",
      "assetIds": [
        "41506478881403507969696680653240014914910929820314476107906210059990431967233",
        "41506478881403507969696680653240014914910929820314476107906210059990431967234"
      ]
    },
    {
      "x": 395,
      "y": 339,
      "size": 1,
      "price": "2106000000000000000000",
      "reserved": "",
      "salt": "0x2bc9ba7a3d65fbe2760fccdbf1fc1f37d8a26257c10d6528453a52ec7af01b67",
      "assetIds": [
        "41506478881403507969696680653240014914910929820314476107906210059990431967234",
        "41506478881403507969696680653240014914910929820314476107906210059990431967235"
      ]
    },
    {
      "x": 395,
      "y": 340,
      "size": 1,
      "price": "2106000000000000000000",
      "reserved": "",
      "salt": "0x9f0029ba92be3eaa29b82845c0a460d53817b215a235d207cd202acfc3c39bf5",
      "assetIds": [
        "41506478881403507969696680653240014914910929820314476107906210059990431967235",
        "41506478881403507969696680653240014914910929820314476107906210059990431967236"
      ]
    },
    {
      "x": 395,
      "y": 341,
      "size": 1,
      "price": "2106000000000000000000",
      "reserved": "",
      "salt": "0xabfb82e219a754e1927406dc2729a471892a01a5fa3bb489c9d7dee0c4ad0040",
      "assetIds": [
        "41506478881403507969696680653240014914910929820314476107906210059990431967232",
        "41506478881403507969696680653240014914910929820314476107906210059990431967233"
      ]
    },
    {
      "x": 395,
      "y": 342,
      "size": 1,
      "price": "2106000000000000000000",
      "reserved": "",
      "salt": "0x1b590f8a007271050a8f8355d9df247d20a18880ae97cf8eff1a1b7c427b80d6",
      "assetIds": [
        "41506478881403507969696680653240014914910929820314476107906210059990431967232",
        "41506478881403507969696680653240014914910929820314476107906210059990431967233"
      ]
    },
    {
      "x": 395,
      "y": 343,
      "size": 1,
      "price": "2106000000000000000000",
      "reserved": "",
      "salt": "0xf4fc7f676622b64e3905025db6b63f335e4c5bd812c301685eff2b90a8c886f8",
      "assetIds": [
        "41506478881403507969696680653240014914910929820314476107906210059990431967234",
        "41506478881403507969696680653240014914910929820314476107906210059990431967235"
      ]
    },
    {
      "x": 395,
      "y": 344,
      "size": 1,
      "price": "2106000000000000000000",
      "reserved": "",
      "salt": "0x4655fbf5d98cba13b48e4a5ceff68afd4e1ab29a440973ecabbaeb2258085e51",
      "assetIds": [
        "41506478881403507969696680653240014914910929820314476107906210059990431967234",
        "41506478881403507969696680653240014914910929820314476107906210059990431967235"
      ]
    },
    {
      "x": 394,
      "y": 341,
      "size": 1,
      "price": "2106000000000000000000",
      "reserved": "",
      "salt": "0xf3056fe4565c2defe48a1e072c7c6b3ca718846092cf79d206887988597c74a4",
      "assetIds": [
        "41506478881403507969696680653240014914910929820314476107906210059990431967234",
        "41506478881403507969696680653240014914910929820314476107906210059990431967235"
      ]
    },
    {
      "x": 394,
      "y": 340,
      "size": 1,
      "price": "2106000000000000000000",
      "reserved": "",
      "salt": "0x3c227d90a04c87915e801e804a4c1f31679280ee96cd68da8a997f428033f21c",
      "assetIds": [
        "41506478881403507969696680653240014914910929820314476107906210059990431967234",
        "41506478881403507969696680653240014914910929820314476107906210059990431967235"
      ]
    },
    {
      "x": 394,
      "y": 339,
      "size": 1,
      "price": "2106000000000000000000",
      "reserved": "",
      "salt": "0xdc8ba5ddc102cd9cd2739121784535357e9a940325d0f291e5217df8cf1ccf6b",
      "assetIds": [
        "41506478881403507969696680653240014914910929820314476107906210059990431967234",
        "41506478881403507969696680653240014914910929820314476107906210059990431967235"
      ]
    },
    {
      "x": 393,
      "y": 339,
      "size": 1,
      "price": "2106000000000000000000",
      "reserved": "",
      "salt": "0x59bbb20328f87387bbcbc6b4782dfd429b1140274ff65d9804788a6115f8b6f8",
      "assetIds": [
        "41506478881403507969696680653240014914910929820314476107906210059990431967232",
        "41506478881403507969696680653240014914910929820314476107906210059990431967233"
      ]
    },
    {
      "x": 393,
      "y": 338,
      "size": 1,
      "price": "2106000000000000000000",
      "reserved": "",
      "salt": "0x0c3bcf6549d7f1af7cd5242a9772eaed94e8dcec26ea411e930d18e14589cb98",
      "assetIds": [
        "41506478881403507969696680653240014914910929820314476107906210059990431967232",
        "41506478881403507969696680653240014914910929820314476107906210059990431967233"
      ]
    },
    {
      "x": 392,
      "y": 338,
      "size": 1,
      "price": "2106000000000000000000",
      "reserved": "",
      "salt": "0x1b97867fb28aaa2687d63585fcca1c4e4b8265c7f4e7d6f6748a5f56b9a49d4f",
      "assetIds": [
        "41506478881403507969696680653240014914910929820314476107906210059990431967232",
        "41506478881403507969696680653240014914910929820314476107906210059990431967233"
      ]
    },
    {
      "x": 392,
      "y": 339,
      "size": 1,
      "price": "2106000000000000000000",
      "reserved": "",
      "salt": "0x06cf6491c2597eb4b0c146d20613ecf59635a93718e202d4b9620f2a7f139a89",
      "assetIds": [
        "41506478881403507969696680653240014914910929820314476107906210059990431967234",
        "41506478881403507969696680653240014914910929820314476107906210059990431967235"
      ]
    },
    {
      "x": 392,
      "y": 340,
      "size": 1,
      "price": "2106000000000000000000",
      "reserved": "",
      "salt": "0xf834351181bde445f1772193670894da49534e3f84c79612b539079d4a0d9ba9",
      "assetIds": [
        "41506478881403507969696680653240014914910929820314476107906210059990431967233",
        "41506478881403507969696680653240014914910929820314476107906210059990431967234"
      ]
    },
    {
      "x": 392,
      "y": 341,
      "size": 1,
      "price": "2106000000000000000000",
      "reserved": "",
      "salt": "0x86a16a91b6b002c37aa5f6e908630f8a2c89e49de67048e2d86a43d638b4597d",
      "assetIds": [
        "41506478881403507969696680653240014914910929820314476107906210059990431967235",
        "41506478881403507969696680653240014914910929820314476107906210059990431967236"
      ]
    },
    {
      "x": 392,
      "y": 342,
      "size": 1,
      "price": "2106000000000000000000",
      "reserved": "",
      "salt": "0xf883546ae3ffdee36e4a40572cdc4dc45a41e7898a71493faa941c690e2647d6",
      "assetIds": [
        "41506478881403507969696680653240014914910929820314476107906210059990431967234",
        "41506478881403507969696680653240014914910929820314476107906210059990431967235"
      ]
    },
    {
      "x": 392,
      "y": 343,
      "size": 1,
      "price": "2106000000000000000000",
      "reserved": "",
      "salt": "0x8859fd085e9cf7ffc7e0a17dcac08ca1a13f1b43365b65b55742e7d2f82404e3",
      "assetIds": [
        "41506478881403507969696680653240014914910929820314476107906210059990431967235",
        "41506478881403507969696680653240014914910929820314476107906210059990431967236"
      ]
    },
    {
      "x": 393,
      "y": 340,
      "size": 1,
      "price": "2106000000000000000000",
      "reserved": "",
      "salt": "0x5d5029dbbb021dc936d6f032682b5ea29a55e1bcf5d4858e433ac1f75683dce8",
      "assetIds": [
        "41506478881403507969696680653240014914910929820314476107906210059990431967233",
        "41506478881403507969696680653240014914910929820314476107906210059990431967234"
      ]
    },
    {
      "x": 393,
      "y": 341,
      "size": 1,
      "price": "2106000000000000000000",
      "reserved": "",
      "salt": "0x5f0a4b215684c73ac5fb49b42dd26e0dde992771ad504f8013f3986170f7c02f",
      "assetIds": [
        "41506478881403507969696680653240014914910929820314476107906210059990431967235",
        "41506478881403507969696680653240014914910929820314476107906210059990431967236"
      ]
    },
    {
      "x": 391,
      "y": 340,
      "size": 1,
      "price": "2106000000000000000000",
      "reserved": "",
      "salt": "0xabbb8817b9a5c3b542f98f632bfa53f0769dfc27c4206e1c7c6bbae5d710fc6a",
      "assetIds": [
        "41506478881403507969696680653240014914910929820314476107906210059990431967233",
        "41506478881403507969696680653240014914910929820314476107906210059990431967234"
      ]
    },
    {
      "x": 390,
      "y": 340,
      "size": 1,
      "price": "2106000000000000000000",
      "reserved": "",
      "salt": "0x26aac1e57876332039e8756dc5e22323a3f7f60738e958ae48b523a71a3360d1",
      "assetIds": [
        "41506478881403507969696680653240014914910929820314476107906210059990431967233",
        "41506478881403507969696680653240014914910929820314476107906210059990431967234"
      ]
    },
    {
      "x": 390,
      "y": 339,
      "size": 1,
      "price": "2106000000000000000000",
      "reserved": "",
      "salt": "0x3550c6f0f0da47d2a51210b2c5eb6b6c1a5f36e81abdf907e8cc5a4c9eb0ce3b",
      "assetIds": [
        "41506478881403507969696680653240014914910929820314476107906210059990431967235",
        "41506478881403507969696680653240014914910929820314476107906210059990431967236"
      ]
    },
    {
      "x": 390,
      "y": 338,
      "size": 1,
      "price": "2106000000000000000000",
      "reserved": "",
      "salt": "0xb0f7b84f081d08219d4155b8f946e42dcf1ece434c4833e293e33271655e11e7",
      "assetIds": [
        "41506478881403507969696680653240014914910929820314476107906210059990431967234",
        "41506478881403507969696680653240014914910929820314476107906210059990431967235"
      ]
    },
    {
      "x": 389,
      "y": 338,
      "size": 1,
      "price": "2106000000000000000000",
      "reserved": "",
      "salt": "0x468f92a6208f4be8c47bed3a02bcfaa3b6ea5c0bf8cb2e25f49dc71df24c1ce3",
      "assetIds": [
        "41506478881403507969696680653240014914910929820314476107906210059990431967235",
        "41506478881403507969696680653240014914910929820314476107906210059990431967236"
      ]
    },
    {
      "x": 389,
      "y": 339,
      "size": 1,
      "price": "2106000000000000000000",
      "reserved": "",
      "salt": "0xfaab1e58baf8962d41fecb37af91360978a3a8c956e99d5444173e1e3837bd75",
      "assetIds": [
        "41506478881403507969696680653240014914910929820314476107906210059990431967232",
        "41506478881403507969696680653240014914910929820314476107906210059990431967233"
      ]
    },
    {
      "x": 389,
      "y": 340,
      "size": 1,
      "price": "2106000000000000000000",
      "reserved": "",
      "salt": "0xeab4816652034911f28181442585f4bbac93c80c51c38794d3f92b3455e7c2a7",
      "assetIds": [
        "41506478881403507969696680653240014914910929820314476107906210059990431967233",
        "41506478881403507969696680653240014914910929820314476107906210059990431967234"
      ]
    },
    {
      "x": 391,
      "y": 338,
      "size": 1,
      "price": "2106000000000000000000",
      "reserved": "",
      "salt": "0x0e59d080ceea529118b73f73bd197ec5bf2740648cde3bc36fcbb11549d8abfb",
      "assetIds": [
        "41506478881403507969696680653240014914910929820314476107906210059990431967234",
        "41506478881403507969696680653240014914910929820314476107906210059990431967235"
      ]
    },
    {
      "x": 394,
      "y": 338,
      "size": 1,
      "price": "2106000000000000000000",
      "reserved": "",
      "salt": "0xc246e0080dc9da75352dc1f56c6563b9e697640c1e46a15bbba7f1a5fc28c7ae",
      "assetIds": [
        "41506478881403507969696680653240014914910929820314476107906210059990431967234",
        "41506478881403507969696680653240014914910929820314476107906210059990431967235"
      ]
    },
    {
      "x": 387,
      "y": 337,
      "size": 1,
      "price": "2106000000000000000000",
      "reserved": "",
      "salt": "0x156bca822e38c844edc1b78727c27ebfa468ad70eca385db8639e3355de52f9f",
      "assetIds": [
        "41506478881403507969696680653240014914910929820314476107906210059990431967232",
        "41506478881403507969696680653240014914910929820314476107906210059990431967233"
      ]
    },
    {
      "x": 386,
      "y": 337,
      "size": 1,
      "price": "2106000000000000000000",
      "reserved": "",
      "salt": "0xb8e3fca342be87e9286946b6b95a56cda066878f72563ac5d558f51ff6a0873b",
      "assetIds": [
        "41506478881403507969696680653240014914910929820314476107906210059990431967232",
        "41506478881403507969696680653240014914910929820314476107906210059990431967233"
      ]
    },
    {
      "x": 387,
      "y": 338,
      "size": 1,
      "price": "2106000000000000000000",
      "reserved": "",
      "salt": "0xbd19f1fd45f58e2d4923b25678df235a3658d6493de3ace7b7c41a97d1508d9c",
      "assetIds": [
        "41506478881403507969696680653240014914910929820314476107906210059990431967234",
        "41506478881403507969696680653240014914910929820314476107906210059990431967235"
      ]
    },
    {
      "x": 388,
      "y": 338,
      "size": 1,
      "price": "2106000000000000000000",
      "reserved": "",
      "salt": "0x101d5c3ce330a2d3d0a8e7b90077a796623b7a0ed2793372e6056784c457ba62",
      "assetIds": [
        "41506478881403507969696680653240014914910929820314476107906210059990431967235",
        "41506478881403507969696680653240014914910929820314476107906210059990431967236"
      ]
    },
    {
      "x": 385,
      "y": 338,
      "size": 1,
      "price": "2106000000000000000000",
      "reserved": "",
      "salt": "0xe1f73e51d975c967df0feb6790bae03940522d321a171128edfdc2a51fbde53c",
      "assetIds": [
        "41506478881403507969696680653240014914910929820314476107906210059990431967233",
        "41506478881403507969696680653240014914910929820314476107906210059990431967234"
      ]
    },
    {
      "x": 384,
      "y": 338,
      "size": 1,
      "price": "2106000000000000000000",
      "reserved": "",
      "salt": "0xfec0c6d37a00e9d311d344b130b411b6040ed861df821ee47ea438e414913f2f",
      "assetIds": [
        "41506478881403507969696680653240014914910929820314476107906210059990431967233",
        "41506478881403507969696680653240014914910929820314476107906210059990431967234"
      ]
    },
    {
      "x": 385,
      "y": 339,
      "size": 1,
      "price": "2106000000000000000000",
      "reserved": "",
      "salt": "0xe3f8b94349807368150678b36eafdbd621c7b0865ec46f880bbb21aae60cf742",
      "assetIds": [
        "41506478881403507969696680653240014914910929820314476107906210059990431967232",
        "41506478881403507969696680653240014914910929820314476107906210059990431967233"
      ]
    },
    {
      "x": 387,
      "y": 340,
      "size": 1,
      "price": "2106000000000000000000",
      "reserved": "",
      "salt": "0x0eb6d769c71ec0f14196f402af8f178eabcacbda07175e66f958a3e4031f64a5",
      "assetIds": [
        "41506478881403507969696680653240014914910929820314476107906210059990431967232",
        "41506478881403507969696680653240014914910929820314476107906210059990431967233"
      ]
    },
    {
      "x": 388,
      "y": 340,
      "size": 1,
      "price": "2106000000000000000000",
      "reserved": "",
      "salt": "0xf5e96958445adf26d4f133a1d703b535c21aa79c5e7946d8964a217cec48ba0c",
      "assetIds": [
        "41506478881403507969696680653240014914910929820314476107906210059990431967232",
        "41506478881403507969696680653240014914910929820314476107906210059990431967233"
      ]
    },
    {
      "x": 384,
      "y": 339,
      "size": 1,
      "price": "2106000000000000000000",
      "reserved": "",
      "salt": "0x4a3d60e6dad12b531b0525347558743f493eae84f814476b01a4a4dcc2b91fd4",
      "assetIds": [
        "41506478881403507969696680653240014914910929820314476107906210059990431967235",
        "41506478881403507969696680653240014914910929820314476107906210059990431967236"
      ]
    },
    {
      "x": 387,
      "y": 339,
      "size": 1,
      "price": "2106000000000000000000",
      "reserved": "",
      "salt": "0xe95556331f94cfb12196c547cc64637bb6d490c18bb4cfc65f23cc29d5eca340",
      "assetIds": [
        "41506478881403507969696680653240014914910929820314476107906210059990431967234",
        "41506478881403507969696680653240014914910929820314476107906210059990431967235"
      ]
    },
    {
      "x": 388,
      "y": 339,
      "size": 1,
      "price": "2106000000000000000000",
      "reserved": "",
      "salt": "0xb80eeb0852100db082c5327579c94b5df132238059f0e4fa41c576e863563acb",
      "assetIds": [
        "41506478881403507969696680653240014914910929820314476107906210059990431967232",
        "41506478881403507969696680653240014914910929820314476107906210059990431967233"
      ]
    },
    {
      "x": 391,
      "y": 339,
      "size": 1,
      "price": "2106000000000000000000",
      "reserved": "",
      "salt": "0x19c819c3b5461957efbfc1bcab574b0db41bc2aa7ab8967e1b9d8bf95094168f",
      "assetIds": [
        "41506478881403507969696680653240014914910929820314476107906210059990431967232",
        "41506478881403507969696680653240014914910929820314476107906210059990431967233"
      ]
    },
    {
      "x": 392,
      "y": 344,
      "size": 1,
      "price": "2106000000000000000000",
      "reserved": "",
      "salt": "0x76ef2b352d14d95ca004fae2b6e02d104b9f04150368ac9a66d4406ad6696b4c",
      "assetIds": [
        "41506478881403507969696680653240014914910929820314476107906210059990431967232",
        "41506478881403507969696680653240014914910929820314476107906210059990431967233"
      ]
    },
    {
      "x": 391,
      "y": 341,
      "size": 1,
      "price": "2106000000000000000000",
      "reserved": "",
      "salt": "0x6dec7096d61cce8c53a81428c42c991fb13d7a16514a28d9524b3c522d1f1d29",
      "assetIds": [
        "41506478881403507969696680653240014914910929820314476107906210059990431967235",
        "41506478881403507969696680653240014914910929820314476107906210059990431967236"
      ]
    },
    {
      "x": 389,
      "y": 341,
      "size": 1,
      "price": "2106000000000000000000",
      "reserved": "",
      "salt": "0x2279c1a33be4f175e2dae3eff55f1c8553855c562977387f5dd95e0dfdfdf317",
      "assetIds": [
        "41506478881403507969696680653240014914910929820314476107906210059990431967234",
        "41506478881403507969696680653240014914910929820314476107906210059990431967235"
      ]
    },
    {
      "x": 388,
      "y": 341,
      "size": 1,
      "price": "2106000000000000000000",
      "reserved": "",
      "salt": "0x1bce1a11d4984637cda432bafd5e4a2dda442ded095b9eb01008ec9a7f844383",
      "assetIds": [
        "41506478881403507969696680653240014914910929820314476107906210059990431967233",
        "41506478881403507969696680653240014914910929820314476107906210059990431967234"
      ]
    },
    {
      "x": 387,
      "y": 341,
      "size": 1,
      "price": "2106000000000000000000",
      "reserved": "",
      "salt": "0x500ae1e7f82ce9e829ecb8d6c0de1cf2fa905db162816bd2de0786ee51dbb76b",
      "assetIds": [
        "41506478881403507969696680653240014914910929820314476107906210059990431967233",
        "41506478881403507969696680653240014914910929820314476107906210059990431967234"
      ]
    },
    {
      "x": 385,
      "y": 341,
      "size": 1,
      "price": "2106000000000000000000",
      "reserved": "",
      "salt": "0x07a932d4e5ad197df9c928c22e8bb0db72c895d6bcaa67820798dd27f228cab2",
      "assetIds": [
        "41506478881403507969696680653240014914910929820314476107906210059990431967233",
        "41506478881403507969696680653240014914910929820314476107906210059990431967234"
      ]
    },
    {
      "x": 384,
      "y": 341,
      "size": 1,
      "price": "2106000000000000000000",
      "reserved": "",
      "salt": "0x712c5f634b2292c26b1c72aeb661753f19baef36d63d71c016d7b3f15604009b",
      "assetIds": [
        "41506478881403507969696680653240014914910929820314476107906210059990431967235",
        "41506478881403507969696680653240014914910929820314476107906210059990431967236"
      ]
    },
    {
      "x": 384,
      "y": 340,
      "size": 1,
      "price": "2106000000000000000000",
      "reserved": "",
      "salt": "0xad740ceb47117eb1dac0c458e865a7fd345f0d3415873f78cee4e4c6157b4ebb",
      "assetIds": [
        "41506478881403507969696680653240014914910929820314476107906210059990431967232",
        "41506478881403507969696680653240014914910929820314476107906210059990431967233"
      ]
    },
    {
      "x": 385,
      "y": 342,
      "size": 1,
      "price": "2106000000000000000000",
      "reserved": "",
      "salt": "0xbdbda69d23a0def11ce552912312bba000ede342461895144a7dad7065e76f95",
      "assetIds": [
        "41506478881403507969696680653240014914910929820314476107906210059990431967232",
        "41506478881403507969696680653240014914910929820314476107906210059990431967233"
      ]
    },
    {
      "x": 387,
      "y": 342,
      "size": 1,
      "price": "2106000000000000000000",
      "reserved": "",
      "salt": "0x213e439d233794fac6a568ae0cca2d6426bc23419db2ae523569e9bfe354a8b5",
      "assetIds": [
        "41506478881403507969696680653240014914910929820314476107906210059990431967233",
        "41506478881403507969696680653240014914910929820314476107906210059990431967234"
      ]
    },
    {
      "x": 388,
      "y": 342,
      "size": 1,
      "price": "2106000000000000000000",
      "reserved": "",
      "salt": "0x053ebd02f5c261253899d53fcb7f946e26295cf30775ca6df99cbba5e5366acb",
      "assetIds": [
        "41506478881403507969696680653240014914910929820314476107906210059990431967232",
        "41506478881403507969696680653240014914910929820314476107906210059990431967233"
      ]
    },
    {
      "x": 389,
      "y": 342,
      "size": 1,
      "price": "2106000000000000000000",
      "reserved": "",
      "salt": "0x67741898cc4d64823ba65072231a49999d790a4d766f7e0f4f02925b32c03603",
      "assetIds": [
        "41506478881403507969696680653240014914910929820314476107906210059990431967232",
        "41506478881403507969696680653240014914910929820314476107906210059990431967233"
      ]
    },
    {
      "x": 390,
      "y": 342,
      "size": 1,
      "price": "2106000000000000000000",
      "reserved": "",
      "salt": "0x84ac328204a7f02e9536d65e4ec03c6608e638ea77edbf36a420bbd8e98bd7b3",
      "assetIds": [
        "41506478881403507969696680653240014914910929820314476107906210059990431967232",
        "41506478881403507969696680653240014914910929820314476107906210059990431967233"
      ]
    },
    {
      "x": 393,
      "y": 342,
      "size": 1,
      "price": "2106000000000000000000",
      "reserved": "",
      "salt": "0xa4be9993b140dde2738eefc01e62d17d526dc346d04ce7c2e0e3719f47fd78f8",
      "assetIds": [
        "41506478881403507969696680653240014914910929820314476107906210059990431967234",
        "41506478881403507969696680653240014914910929820314476107906210059990431967235"
      ]
    },
    {
      "x": 390,
      "y": 341,
      "size": 1,
      "price": "2106000000000000000000",
      "reserved": "",
      "salt": "0x3427264ccbeba9fc62dd60440cbff40259411b775edc2bf6a4039213760fa4cd",
      "assetIds": [
        "41506478881403507969696680653240014914910929820314476107906210059990431967234",
        "41506478881403507969696680653240014914910929820314476107906210059990431967235"
      ]
    },
    {
      "x": 384,
      "y": 342,
      "size": 1,
      "price": "2106000000000000000000",
      "reserved": "",
      "salt": "0xfd7a6f083f1089264f1f59dbb27b080b32b33a77e7cab03f7e7298f6b1baac3e",
      "assetIds": [
        "41506478881403507969696680653240014914910929820314476107906210059990431967234",
        "41506478881403507969696680653240014914910929820314476107906210059990431967235"
      ]
    },
    {
      "x": 383,
      "y": 342,
      "size": 1,
      "price": "2106000000000000000000",
      "reserved": "",
      "salt": "0x3831fcf1ed47ff6e994894094ffe47436866161a3352d2678b4cb7e008190799",
      "assetIds": [
        "41506478881403507969696680653240014914910929820314476107906210059990431967235",
        "41506478881403507969696680653240014914910929820314476107906210059990431967236"
      ]
    },
    {
      "x": 382,
      "y": 343,
      "size": 1,
      "price": "2106000000000000000000",
      "reserved": "",
      "salt": "0xf7ce77c909a60fab730e20d30b45b8fd4b3df2ce62a5b4b45cc4d3acf5b04e44",
      "assetIds": [
        "41506478881403507969696680653240014914910929820314476107906210059990431967233",
        "41506478881403507969696680653240014914910929820314476107906210059990431967234"
      ]
    },
    {
      "x": 383,
      "y": 343,
      "size": 1,
      "price": "2106000000000000000000",
      "reserved": "",
      "salt": "0xea8f2952a9d75523a801276c7696ae79455c6d65ee27bc477274f08b130a3738",
      "assetIds": [
        "41506478881403507969696680653240014914910929820314476107906210059990431967233",
        "41506478881403507969696680653240014914910929820314476107906210059990431967234"
      ]
    },
    {
      "x": 384,
      "y": 343,
      "size": 1,
      "price": "2106000000000000000000",
      "reserved": "",
      "salt": "0xcf30dc48d0ba25206f882da42ba8fffc34445c30b0351b886e4cf060f8955623",
      "assetIds": [
        "41506478881403507969696680653240014914910929820314476107906210059990431967235",
        "41506478881403507969696680653240014914910929820314476107906210059990431967236"
      ]
    },
    {
      "x": 385,
      "y": 343,
      "size": 1,
      "price": "2106000000000000000000",
      "reserved": "",
      "salt": "0x7bb7bc50fa476024e570e3d2ec436f6dd58cfc8100d617bb2edf11b5fc9ddab8",
      "assetIds": [
        "41506478881403507969696680653240014914910929820314476107906210059990431967233",
        "41506478881403507969696680653240014914910929820314476107906210059990431967234"
      ]
    },
    {
      "x": 387,
      "y": 343,
      "size": 1,
      "price": "2106000000000000000000",
      "reserved": "",
      "salt": "0x1081d1fe7a5b0b3f733bb0e7b9aae837fa8b0989b308392eaab9deea76c6a325",
      "assetIds": [
        "41506478881403507969696680653240014914910929820314476107906210059990431967232",
        "41506478881403507969696680653240014914910929820314476107906210059990431967233"
      ]
    },
    {
      "x": 388,
      "y": 343,
      "size": 1,
      "price": "2106000000000000000000",
      "reserved": "",
      "salt": "0x95d6f0d2d09f42d56b4999184197186f33210b71a50b87a08c1878a63924f219",
      "assetIds": [
        "41506478881403507969696680653240014914910929820314476107906210059990431967235",
        "41506478881403507969696680653240014914910929820314476107906210059990431967236"
      ]
    },
    {
      "x": 390,
      "y": 343,
      "size": 1,
      "price": "2106000000000000000000",
      "reserved": "",
      "salt": "0x2589456961e95663c406d62560000616d943fcf5575df6e316f61d08823a4dc9",
      "assetIds": [
        "41506478881403507969696680653240014914910929820314476107906210059990431967234",
        "41506478881403507969696680653240014914910929820314476107906210059990431967235"
      ]
    },
    {
      "x": 393,
      "y": 343,
      "size": 1,
      "price": "2106000000000000000000",
      "reserved": "",
      "salt": "0xdb7998ea864fcc70f3315ef5006b19a5ff43c65c090a5aa03d8483d26611ddb3",
      "assetIds": [
        "41506478881403507969696680653240014914910929820314476107906210059990431967233",
        "41506478881403507969696680653240014914910929820314476107906210059990431967234"
      ]
    },
    {
      "x": 394,
      "y": 343,
      "size": 1,
      "price": "2106000000000000000000",
      "reserved": "",
      "salt": "0xd1ff84d633c7b05426303d59e03ebf81f3f0607c5adab34e3e02f011da4e4dc4",
      "assetIds": [
        "41506478881403507969696680653240014914910929820314476107906210059990431967235",
        "41506478881403507969696680653240014914910929820314476107906210059990431967236"
      ]
    },
    {
      "x": 395,
      "y": 345,
      "size": 1,
      "price": "2106000000000000000000",
      "reserved": "",
      "salt": "0x0e82b018780755a39846e219ae2a61d3943aa50e7a9ef198ac5d4f2c968ce329",
      "assetIds": [
        "41506478881403507969696680653240014914910929820314476107906210059990431967232",
        "41506478881403507969696680653240014914910929820314476107906210059990431967233"
      ]
    },
    {
      "x": 394,
      "y": 345,
      "size": 1,
      "price": "2106000000000000000000",
      "reserved": "",
      "salt": "0x176eedaeb075744db0359f210c5d06853265f202145fa4beed138323342c4c92",
      "assetIds": [
        "41506478881403507969696680653240014914910929820314476107906210059990431967235",
        "41506478881403507969696680653240014914910929820314476107906210059990431967236"
      ]
    },
    {
      "x": 393,
      "y": 345,
      "size": 1,
      "price": "2106000000000000000000",
      "reserved": "",
      "salt": "0x2ba01cb4e491198de60ba0653d33367c0e8408e3533a9b77a67d1d8b1a2a92d6",
      "assetIds": [
        "41506478881403507969696680653240014914910929820314476107906210059990431967235",
        "41506478881403507969696680653240014914910929820314476107906210059990431967236"
      ]
    },
    {
      "x": 392,
      "y": 345,
      "size": 1,
      "price": "2106000000000000000000",
      "reserved": "",
      "salt": "0xb5253703ad49a01dbe6333abbaf8f8ee4124f145350bac8ca6f0ce4582a718ef",
      "assetIds": [
        "41506478881403507969696680653240014914910929820314476107906210059990431967232",
        "41506478881403507969696680653240014914910929820314476107906210059990431967233"
      ]
    },
    {
      "x": 391,
      "y": 345,
      "size": 1,
      "price": "2106000000000000000000",
      "reserved": "",
      "salt": "0x7ab3cd17ea1e2cff4276bd43e73f7d1d699414eea8a489def51bb5c82e0088e5",
      "assetIds": [
        "41506478881403507969696680653240014914910929820314476107906210059990431967232",
        "41506478881403507969696680653240014914910929820314476107906210059990431967233"
      ]
    },
    {
      "x": 390,
      "y": 345,
      "size": 1,
      "price": "2106000000000000000000",
      "reserved": "",
      "salt": "0xde3ddab743ae33e1fdb55123486ec81290b90da15ed1a6997b774d970d98eb94",
      "assetIds": [
        "41506478881403507969696680653240014914910929820314476107906210059990431967233",
        "41506478881403507969696680653240014914910929820314476107906210059990431967234"
      ]
    },
    {
      "x": 389,
      "y": 345,
      "size": 1,
      "price": "2106000000000000000000",
      "reserved": "",
      "salt": "0x6c05398db829edacc94099709ac44ebbe04676ff1a89b4eb6807c81c26b4a357",
      "assetIds": [
        "41506478881403507969696680653240014914910929820314476107906210059990431967234",
        "41506478881403507969696680653240014914910929820314476107906210059990431967235"
      ]
    },
    {
      "x": 388,
      "y": 345,
      "size": 1,
      "price": "2106000000000000000000",
      "reserved": "",
      "salt": "0xf400899cc480eb46c6701c73211ddadf5eb23f3b880cf142fe9c17ff44a41dbf",
      "assetIds": [
        "41506478881403507969696680653240014914910929820314476107906210059990431967234",
        "41506478881403507969696680653240014914910929820314476107906210059990431967235"
      ]
    },
    {
      "x": 384,
      "y": 345,
      "size": 1,
      "price": "2106000000000000000000",
      "reserved": "",
      "salt": "0xcd666b6b18dfd996711be178be5e18a2b3a672741508b640433edcae0e73a71c",
      "assetIds": [
        "41506478881403507969696680653240014914910929820314476107906210059990431967233",
        "41506478881403507969696680653240014914910929820314476107906210059990431967234"
      ]
    },
    {
      "x": 384,
      "y": 344,
      "size": 1,
      "price": "2106000000000000000000",
      "reserved": "",
      "salt": "0x549cb016fe5c007a5c2da27c469ccc7c65c45f78e3d5eed3aa92b8fa922ddf30",
      "assetIds": [
        "41506478881403507969696680653240014914910929820314476107906210059990431967235",
        "41506478881403507969696680653240014914910929820314476107906210059990431967236"
      ]
    },
    {
      "x": 383,
      "y": 344,
      "size": 1,
      "price": "2106000000000000000000",
      "reserved": "",
      "salt": "0xba069c3a4154492f03e821fc51ffcb651d64d7668d7cee0f5d4054774ca840a8",
      "assetIds": [
        "41506478881403507969696680653240014914910929820314476107906210059990431967234",
        "41506478881403507969696680653240014914910929820314476107906210059990431967235"
      ]
    },
    {
      "x": 393,
      "y": 344,
      "size": 1,
      "price": "2106000000000000000000",
      "reserved": "",
      "salt": "0x6fee4c445bb9251614725ec137d8a512b7777bf082c614d6be03d27d1560f291",
      "assetIds": [
        "41506478881403507969696680653240014914910929820314476107906210059990431967232",
        "41506478881403507969696680653240014914910929820314476107906210059990431967233"
      ]
    },
    {
      "x": 394,
      "y": 344,
      "size": 1,
      "price": "2106000000000000000000",
      "reserved": "",
      "salt": "0x3301656af17f247ac9b544bc6d5ee9891b12cbb186552ada1213fdceb7b6d1a8",
      "assetIds": [
        "41506478881403507969696680653240014914910929820314476107906210059990431967233",
        "41506478881403507969696680653240014914910929820314476107906210059990431967234"
      ]
    },
    {
      "x": 390,
      "y": 344,
      "size": 1,
      "price": "2106000000000000000000",
      "reserved": "",
      "salt": "0xea343928438f41e718e2fded177e620199c2879ab50525c3a613ccbba3e1ec43",
      "assetIds": [
        "41506478881403507969696680653240014914910929820314476107906210059990431967233",
        "41506478881403507969696680653240014914910929820314476107906210059990431967234"
      ]
    },
    {
      "x": 389,
      "y": 344,
      "size": 1,
      "price": "2106000000000000000000",
      "reserved": "",
      "salt": "0x2f5da91b509e57b6fb3a51ad61a893afc3dd58bfe7a21588ad194e24c4cc3087",
      "assetIds": [
        "41506478881403507969696680653240014914910929820314476107906210059990431967234",
        "41506478881403507969696680653240014914910929820314476107906210059990431967235"
      ]
    },
    {
      "x": 388,
      "y": 344,
      "size": 1,
      "price": "2106000000000000000000",
      "reserved": "",
      "salt": "0x1ac987aa354a0c1db002f8fd64861a401d12f227984d0171cf0770880c8ba0bf",
      "assetIds": [
        "41506478881403507969696680653240014914910929820314476107906210059990431967232",
        "41506478881403507969696680653240014914910929820314476107906210059990431967233"
      ]
    },
    {
      "x": 387,
      "y": 344,
      "size": 1,
      "price": "2106000000000000000000",
      "reserved": "",
      "salt": "0xaa64b05d21bccb4b072cdb2b032c8c33b8a68b81194c6faad6023e9f9f66b5b7",
      "assetIds": [
        "41506478881403507969696680653240014914910929820314476107906210059990431967233",
        "41506478881403507969696680653240014914910929820314476107906210059990431967234"
      ]
    },
    {
      "x": 385,
      "y": 344,
      "size": 1,
      "price": "2106000000000000000000",
      "reserved": "",
      "salt": "0x2ddd918e5b32e553c7d13687a14b47b6ecb317d2b107e648efba19e7235479d4",
      "assetIds": [
        "41506478881403507969696680653240014914910929820314476107906210059990431967234",
        "41506478881403507969696680653240014914910929820314476107906210059990431967235"
      ]
    },
    {
      "x": 383,
      "y": 346,
      "size": 1,
      "price": "2106000000000000000000",
      "reserved": "",
      "salt": "0x19804d960cb327e04ccb454ae67547ff5b5bada87ca7423c32a4f2ca186796f5",
      "assetIds": [
        "41506478881403507969696680653240014914910929820314476107906210059990431967233",
        "41506478881403507969696680653240014914910929820314476107906210059990431967234"
      ]
    },
    {
      "x": 383,
      "y": 345,
      "size": 1,
      "price": "2106000000000000000000",
      "reserved": "",
      "salt": "0xbb03d67d3887a73e6dec46b2514b2ed6f7ccca1fbb1239987801a1381e2ebcc3",
      "assetIds": [
        "41506478881403507969696680653240014914910929820314476107906210059990431967235",
        "41506478881403507969696680653240014914910929820314476107906210059990431967236"
      ]
    },
    {
      "x": 384,
      "y": 346,
      "size": 1,
      "price": "2106000000000000000000",
      "reserved": "",
      "salt": "0x6cb76fc952b34da3fc4d135a0c24c9b5999a8bfdcc16f01483f9859ff6cf2d98",
      "assetIds": [
        "41506478881403507969696680653240014914910929820314476107906210059990431967233",
        "41506478881403507969696680653240014914910929820314476107906210059990431967234"
      ]
    },
    {
      "x": 384,
      "y": 347,
      "size": 1,
      "price": "2106000000000000000000",
      "reserved": "",
      "salt": "0xc5648c09dcb15e88dc54c54096c516bbb3fa54f9df5736f02ad374df45caac7c",
      "assetIds": [
        "41506478881403507969696680653240014914910929820314476107906210059990431967232",
        "41506478881403507969696680653240014914910929820314476107906210059990431967233"
      ]
    },
    {
      "x": 385,
      "y": 347,
      "size": 1,
      "price": "2106000000000000000000",
      "reserved": "",
      "salt": "0x1bb1af282f3a59a3275d3bd9c8e8b6320767ed9637c8b162b14a71591916a14a",
      "assetIds": [
        "41506478881403507969696680653240014914910929820314476107906210059990431967232",
        "41506478881403507969696680653240014914910929820314476107906210059990431967233"
      ]
    },
    {
      "x": 386,
      "y": 347,
      "size": 1,
      "price": "2106000000000000000000",
      "reserved": "",
      "salt": "0x743f9e641f0b73d8529a4fcabaeeccf00933a676071efc7d9300d906e279c6d9",
      "assetIds": [
        "41506478881403507969696680653240014914910929820314476107906210059990431967233",
        "41506478881403507969696680653240014914910929820314476107906210059990431967234"
      ]
    },
    {
      "x": 388,
      "y": 347,
      "size": 1,
      "price": "2106000000000000000000",
      "reserved": "",
      "salt": "0x36896943e686652a8734505b49bc638bd394848e612d62d9ab5223c4a5c85e28",
      "assetIds": [
        "41506478881403507969696680653240014914910929820314476107906210059990431967235",
        "41506478881403507969696680653240014914910929820314476107906210059990431967236"
      ]
    },
    {
      "x": 389,
      "y": 347,
      "size": 1,
      "price": "2106000000000000000000",
      "reserved": "",
      "salt": "0x5cdfef9b6f230c3160eb55e14f7518c1794dbb5df31504fb01d1eb040dd7344a",
      "assetIds": [
        "41506478881403507969696680653240014914910929820314476107906210059990431967235",
        "41506478881403507969696680653240014914910929820314476107906210059990431967236"
      ]
    },
    {
      "x": 390,
      "y": 346,
      "size": 1,
      "price": "2106000000000000000000",
      "reserved": "",
      "salt": "0x910637f4f2401f7de0d14da85b706990ce479df340116b4ce8620e3f94b1ab3f",
      "assetIds": [
        "41506478881403507969696680653240014914910929820314476107906210059990431967234",
        "41506478881403507969696680653240014914910929820314476107906210059990431967235"
      ]
    },
    {
      "x": 391,
      "y": 346,
      "size": 1,
      "price": "2106000000000000000000",
      "reserved": "",
      "salt": "0xcea1ba70dc91332a670e0bf6f87ea13604e1b924009669bd6d0bd6865d31536a",
      "assetIds": [
        "41506478881403507969696680653240014914910929820314476107906210059990431967233",
        "41506478881403507969696680653240014914910929820314476107906210059990431967234"
      ]
    },
    {
      "x": 392,
      "y": 346,
      "size": 1,
      "price": "2106000000000000000000",
      "reserved": "",
      "salt": "0x6b33a1cc278723531e0dfbd14e168790ee6f4b45e0a551723b5f1c9398027ed7",
      "assetIds": [
        "41506478881403507969696680653240014914910929820314476107906210059990431967235",
        "41506478881403507969696680653240014914910929820314476107906210059990431967236"
      ]
    },
    {
      "x": 393,
      "y": 346,
      "size": 1,
      "price": "2106000000000000000000",
      "reserved": "",
      "salt": "0xdb09dc56fe49081dd3aa2fbe702fc6e2ec6d654070ab442563a53f2e9346e8a0",
      "assetIds": [
        "41506478881403507969696680653240014914910929820314476107906210059990431967232",
        "41506478881403507969696680653240014914910929820314476107906210059990431967233"
      ]
    },
    {
      "x": 394,
      "y": 346,
      "size": 1,
      "price": "2106000000000000000000",
      "reserved": "",
      "salt": "0x7f5f6bd08c5bbf437204354883512c7bb2c1becb38a4128c3465aec3f034e9a4",
      "assetIds": [
        "41506478881403507969696680653240014914910929820314476107906210059990431967234",
        "41506478881403507969696680653240014914910929820314476107906210059990431967235"
      ]
    },
    {
      "x": 395,
      "y": 346,
      "size": 1,
      "price": "2106000000000000000000",
      "reserved": "",
      "salt": "0x5a5e056fb3e2f05e090c8aeb481eac23f16a6412b87e490ecf84ff1281566f91",
      "assetIds": [
        "41506478881403507969696680653240014914910929820314476107906210059990431967234",
        "41506478881403507969696680653240014914910929820314476107906210059990431967235"
      ]
    },
    {
      "x": 389,
      "y": 346,
      "size": 1,
      "price": "2106000000000000000000",
      "reserved": "",
      "salt": "0x4bd4a56040204fa1ad91de6cb7f4924f7febd945b9984756f571f33cc6a0a1b8",
      "assetIds": [
        "41506478881403507969696680653240014914910929820314476107906210059990431967232",
        "41506478881403507969696680653240014914910929820314476107906210059990431967233"
      ]
    },
    {
      "x": 386,
      "y": 346,
      "size": 1,
      "price": "2106000000000000000000",
      "reserved": "",
      "salt": "0x8997dabe4be9a16a73671e45f52438165dc4eb0dbfeccde471b79a436c25cea5",
      "assetIds": [
        "41506478881403507969696680653240014914910929820314476107906210059990431967233",
        "41506478881403507969696680653240014914910929820314476107906210059990431967234"
      ]
    },
    {
      "x": 385,
      "y": 346,
      "size": 1,
      "price": "2106000000000000000000",
      "reserved": "",
      "salt": "0x3eb7c31457cead9c9f12d99473a60d8b2703205c6f4a1c88aab7f1855c84b7ea",
      "assetIds": [
        "41506478881403507969696680653240014914910929820314476107906210059990431967235",
        "41506478881403507969696680653240014914910929820314476107906210059990431967236"
      ]
    },
    {
      "x": 384,
      "y": 348,
      "size": 1,
      "price": "2106000000000000000000",
      "reserved": "",
      "salt": "0x5ff1db696971f7d3853830d19668040c8a2e29036476e13205090bfd8c47e97a",
      "assetIds": [
        "41506478881403507969696680653240014914910929820314476107906210059990431967235",
        "41506478881403507969696680653240014914910929820314476107906210059990431967236"
      ]
    },
    {
      "x": 385,
      "y": 348,
      "size": 1,
      "price": "2106000000000000000000",
      "reserved": "",
      "salt": "0x3c0983ce252e5d931e2be4a490e904ff886a7fcde31b3e38097d5ce3c3ad8a8a",
      "assetIds": [
        "41506478881403507969696680653240014914910929820314476107906210059990431967234",
        "41506478881403507969696680653240014914910929820314476107906210059990431967235"
      ]
    },
    {
      "x": 386,
      "y": 348,
      "size": 1,
      "price": "2106000000000000000000",
      "reserved": "",
      "salt": "0x9a9e9d5f47441eae95802e0951ba59494901746470aabcc24fdbee4424c237ba",
      "assetIds": [
        "41506478881403507969696680653240014914910929820314476107906210059990431967235",
        "41506478881403507969696680653240014914910929820314476107906210059990431967236"
      ]
    },
    {
      "x": 390,
      "y": 347,
      "size": 1,
      "price": "2106000000000000000000",
      "reserved": "",
      "salt": "0x731740d290db3117a1ed61b0aa3f5cfcaf73a1da4cffc1a66923c11125c676f2",
      "assetIds": [
        "41506478881403507969696680653240014914910929820314476107906210059990431967235",
        "41506478881403507969696680653240014914910929820314476107906210059990431967236"
      ]
    },
    {
      "x": 391,
      "y": 347,
      "size": 1,
      "price": "2106000000000000000000",
      "reserved": "",
      "salt": "0x22abec41d4d21ca69eb752caf79a5f4b395762207b1d680bf3dfb7ea4be4f7bf",
      "assetIds": [
        "41506478881403507969696680653240014914910929820314476107906210059990431967232",
        "41506478881403507969696680653240014914910929820314476107906210059990431967233"
      ]
    },
    {
      "x": 392,
      "y": 347,
      "size": 1,
      "price": "2106000000000000000000",
      "reserved": "",
      "salt": "0xd70e94a8a889a3778ddbfc8f19465e6c31ee4c76e24d3ebe899d03f5f82b894a",
      "assetIds": [
        "41506478881403507969696680653240014914910929820314476107906210059990431967234",
        "41506478881403507969696680653240014914910929820314476107906210059990431967235"
      ]
    },
    {
      "x": 393,
      "y": 347,
      "size": 1,
      "price": "2106000000000000000000",
      "reserved": "",
      "salt": "0x5cfaeddb3c2e690bbfce120e187df211f550e289d7b52f431c1bbdf60e6d46a1",
      "assetIds": [
        "41506478881403507969696680653240014914910929820314476107906210059990431967233",
        "41506478881403507969696680653240014914910929820314476107906210059990431967234"
      ]
    },
    {
      "x": 394,
      "y": 347,
      "size": 1,
      "price": "2106000000000000000000",
      "reserved": "",
      "salt": "0xb891dde3657b7aaa9ad38be7b3d32eb54ac425745940a78d30dd909048567b24",
      "assetIds": [
        "41506478881403507969696680653240014914910929820314476107906210059990431967234",
        "41506478881403507969696680653240014914910929820314476107906210059990431967235"
      ]
    },
    {
      "x": 394,
      "y": 348,
      "size": 1,
      "price": "2106000000000000000000",
      "reserved": "",
      "salt": "0xd4f6661eb4b88e85a879fa3c16fc549995f3ec99d4c850bd2738e787f5b448f9",
      "assetIds": [
        "41506478881403507969696680653240014914910929820314476107906210059990431967232",
        "41506478881403507969696680653240014914910929820314476107906210059990431967233"
      ]
    },
    {
      "x": 395,
      "y": 348,
      "size": 1,
      "price": "2106000000000000000000",
      "reserved": "",
      "salt": "0x541c73e7b0fc40112ab1b40192155ac87b9815a0943dfbb85c95c0f283232500",
      "assetIds": [
        "41506478881403507969696680653240014914910929820314476107906210059990431967232",
        "41506478881403507969696680653240014914910929820314476107906210059990431967233"
      ]
    },
    {
      "x": 395,
      "y": 349,
      "size": 1,
      "price": "2106000000000000000000",
      "reserved": "",
      "salt": "0x752a1c39dfb687cebf8e4524a12d78cde5744a8da1cae58c7bb121bdd40e922d",
      "assetIds": [
        "41506478881403507969696680653240014914910929820314476107906210059990431967234",
        "41506478881403507969696680653240014914910929820314476107906210059990431967235"
      ]
    },
    {
      "x": 394,
      "y": 349,
      "size": 1,
      "price": "2106000000000000000000",
      "reserved": "",
      "salt": "0x185ed16fc4a1afa724c4e680853c62af739049f28b7720b0d1743d3a3761d8e1",
      "assetIds": [
        "41506478881403507969696680653240014914910929820314476107906210059990431967233",
        "41506478881403507969696680653240014914910929820314476107906210059990431967234"
      ]
    },
    {
      "x": 393,
      "y": 349,
      "size": 1,
      "price": "2106000000000000000000",
      "reserved": "",
      "salt": "0x5e77494eacf70f03c6cd22905e64d5f0e22d0f60fe3c59a6553d7dffbee71c8f",
      "assetIds": [
        "41506478881403507969696680653240014914910929820314476107906210059990431967234",
        "41506478881403507969696680653240014914910929820314476107906210059990431967235"
      ]
    },
    {
      "x": 392,
      "y": 349,
      "size": 1,
      "price": "2106000000000000000000",
      "reserved": "",
      "salt": "0xde37d4e02ab1c495075858acad64a37e20f757ec702f5bdd20e296ff9d4bf659",
      "assetIds": [
        "41506478881403507969696680653240014914910929820314476107906210059990431967233",
        "41506478881403507969696680653240014914910929820314476107906210059990431967234"
      ]
    },
    {
      "x": 390,
      "y": 349,
      "size": 1,
      "price": "2106000000000000000000",
      "reserved": "",
      "salt": "0xb2807f23be39a5f60b22da1f4757e2ac66c8755fa3bca5d897ad78005e2b60b2",
      "assetIds": [
        "41506478881403507969696680653240014914910929820314476107906210059990431967233",
        "41506478881403507969696680653240014914910929820314476107906210059990431967234"
      ]
    },
    {
      "x": 389,
      "y": 349,
      "size": 1,
      "price": "2106000000000000000000",
      "reserved": "",
      "salt": "0xdf4241cc801efeb91f3f9f024219f956b7a78f83c004176f60a556fbefae0685",
      "assetIds": [
        "41506478881403507969696680653240014914910929820314476107906210059990431967234",
        "41506478881403507969696680653240014914910929820314476107906210059990431967235"
      ]
    },
    {
      "x": 388,
      "y": 349,
      "size": 1,
      "price": "2106000000000000000000",
      "reserved": "",
      "salt": "0x2ec26ebc7bc7aff0a9576a35aa7afb011b31385ced9412715f0ffa45e5853155",
      "assetIds": [
        "41506478881403507969696680653240014914910929820314476107906210059990431967235",
        "41506478881403507969696680653240014914910929820314476107906210059990431967236"
      ]
    },
    {
      "x": 386,
      "y": 349,
      "size": 1,
      "price": "2106000000000000000000",
      "reserved": "",
      "salt": "0xb15723026de38fb523d031d5fafa8e53a476f061ebfef0f724bc10f5ad1f9894",
      "assetIds": [
        "41506478881403507969696680653240014914910929820314476107906210059990431967233",
        "41506478881403507969696680653240014914910929820314476107906210059990431967234"
      ]
    },
    {
      "x": 385,
      "y": 349,
      "size": 1,
      "price": "2106000000000000000000",
      "reserved": "",
      "salt": "0xac3074ad697373f0ea858669b138a55db7e1d38a60bfe348f673c072372caff5",
      "assetIds": [
        "41506478881403507969696680653240014914910929820314476107906210059990431967234",
        "41506478881403507969696680653240014914910929820314476107906210059990431967235"
      ]
    },
    {
      "x": 384,
      "y": 349,
      "size": 1,
      "price": "2106000000000000000000",
      "reserved": "",
      "salt": "0x828d6c08d1ea5be229693500844393079f0941a746fd5749563621df52849e1a",
      "assetIds": [
        "41506478881403507969696680653240014914910929820314476107906210059990431967234",
        "41506478881403507969696680653240014914910929820314476107906210059990431967235"
      ]
    },
    {
      "x": 392,
      "y": 348,
      "size": 1,
      "price": "2106000000000000000000",
      "reserved": "",
      "salt": "0x9b5c41335128723b07cee688023c8597111b423d40ecf6d1b1e2581d3ad4b3d2",
      "assetIds": [
        "41506478881403507969696680653240014914910929820314476107906210059990431967234",
        "41506478881403507969696680653240014914910929820314476107906210059990431967235"
      ]
    },
    {
      "x": 393,
      "y": 348,
      "size": 1,
      "price": "2106000000000000000000",
      "reserved": "",
      "salt": "0xa64196a1534d6b5cc6bdb2098ab1b4d5220f2bda4bfbc96e6e0e3c2d019a1e7c",
      "assetIds": [
        "41506478881403507969696680653240014914910929820314476107906210059990431967233",
        "41506478881403507969696680653240014914910929820314476107906210059990431967234"
      ]
    },
    {
      "x": 391,
      "y": 348,
      "size": 1,
      "price": "2106000000000000000000",
      "reserved": "",
      "salt": "0x074cac83872572d2e9a69e2b9d0ba03fdc945992ddb72fd2999d60e170f6b0bc",
      "assetIds": [
        "41506478881403507969696680653240014914910929820314476107906210059990431967235",
        "41506478881403507969696680653240014914910929820314476107906210059990431967236"
      ]
    },
    {
      "x": 390,
      "y": 348,
      "size": 1,
      "price": "2106000000000000000000",
      "reserved": "",
      "salt": "0x78a7f791a4e26bb35a62f11c6cd87ea9459c47d388e321cac6a6a70c6b554365",
      "assetIds": [
        "41506478881403507969696680653240014914910929820314476107906210059990431967234",
        "41506478881403507969696680653240014914910929820314476107906210059990431967235"
      ]
    },
    {
      "x": 389,
      "y": 348,
      "size": 1,
      "price": "2106000000000000000000",
      "reserved": "",
      "salt": "0xb7ef4a01a736be502b00eebfc46a79c12e9f5b864a1b9a55d59e3dce06176351",
      "assetIds": [
        "41506478881403507969696680653240014914910929820314476107906210059990431967232",
        "41506478881403507969696680653240014914910929820314476107906210059990431967233"
      ]
    },
    {
      "x": 388,
      "y": 348,
      "size": 1,
      "price": "2106000000000000000000",
      "reserved": "",
      "salt": "0xdfe65f48d63d429d2ac79cfa2df1012b1c5f09dbe1e2d78eef721a97d772e331",
      "assetIds": [
        "41506478881403507969696680653240014914910929820314476107906210059990431967233",
        "41506478881403507969696680653240014914910929820314476107906210059990431967234"
      ]
    },
    {
      "x": 382,
      "y": 351,
      "size": 1,
      "price": "2106000000000000000000",
      "reserved": "",
      "salt": "0x064e4cef85e8ac693286ce0225f017a06d0cf2b292d9d930b5b8785e39e563cb",
      "assetIds": [
        "41506478881403507969696680653240014914910929820314476107906210059990431967235",
        "41506478881403507969696680653240014914910929820314476107906210059990431967236"
      ]
    },
    {
      "x": 383,
      "y": 351,
      "size": 1,
      "price": "2106000000000000000000",
      "reserved": "",
      "salt": "0x5ec2ad8c49df0979b2d2e9362425b661976a90da2d5bddd889356e2d21e7a8b4",
      "assetIds": [
        "41506478881403507969696680653240014914910929820314476107906210059990431967235",
        "41506478881403507969696680653240014914910929820314476107906210059990431967236"
      ]
    },
    {
      "x": 384,
      "y": 351,
      "size": 1,
      "price": "2106000000000000000000",
      "reserved": "",
      "salt": "0x05964bc1e3e67f71d2b2100a693ff1d59c86af53b14ea729029e42679abacbaa",
      "assetIds": [
        "41506478881403507969696680653240014914910929820314476107906210059990431967235",
        "41506478881403507969696680653240014914910929820314476107906210059990431967236"
      ]
    },
    {
      "x": 385,
      "y": 351,
      "size": 1,
      "price": "2106000000000000000000",
      "reserved": "",
      "salt": "0xfd867197ce86c40bb1c773d893b9eb9e947f8f58be52bac29c9a2c746792f4b5",
      "assetIds": [
        "41506478881403507969696680653240014914910929820314476107906210059990431967234",
        "41506478881403507969696680653240014914910929820314476107906210059990431967235"
      ]
    },
    {
      "x": 386,
      "y": 351,
      "size": 1,
      "price": "2106000000000000000000",
      "reserved": "",
      "salt": "0x0c81e39eeca28ddeb1fe1b02417fe239ad607796ce18881cbf733abbd27ce3e2",
      "assetIds": [
        "41506478881403507969696680653240014914910929820314476107906210059990431967235",
        "41506478881403507969696680653240014914910929820314476107906210059990431967236"
      ]
    },
    {
      "x": 387,
      "y": 351,
      "size": 1,
      "price": "2106000000000000000000",
      "reserved": "",
      "salt": "0x18082089665e57360ce1d1a498cb23236359ad6925eb8851e85d03a3c7a0c3f5",
      "assetIds": [
        "41506478881403507969696680653240014914910929820314476107906210059990431967234",
        "41506478881403507969696680653240014914910929820314476107906210059990431967235"
      ]
    },
    {
      "x": 388,
      "y": 351,
      "size": 1,
      "price": "2106000000000000000000",
      "reserved": "",
      "salt": "0x9672207c6ca14e77db58d89ed52b2d47b6b285f697cee115f220bfc63a81ed8f",
      "assetIds": [
        "41506478881403507969696680653240014914910929820314476107906210059990431967235",
        "41506478881403507969696680653240014914910929820314476107906210059990431967236"
      ]
    },
    {
      "x": 389,
      "y": 351,
      "size": 1,
      "price": "2106000000000000000000",
      "reserved": "",
      "salt": "0xc2819ee4dbe74e83981b2ce03dfa07a312eb661baa163e8d96af1f571d07cb7e",
      "assetIds": [
        "41506478881403507969696680653240014914910929820314476107906210059990431967232",
        "41506478881403507969696680653240014914910929820314476107906210059990431967233"
      ]
    },
    {
      "x": 390,
      "y": 351,
      "size": 1,
      "price": "2106000000000000000000",
      "reserved": "",
      "salt": "0x50e09a6927106686a29f48d333de066d3478997e7a2a423123ec8cfde9912b89",
      "assetIds": [
        "41506478881403507969696680653240014914910929820314476107906210059990431967235",
        "41506478881403507969696680653240014914910929820314476107906210059990431967236"
      ]
    },
    {
      "x": 391,
      "y": 350,
      "size": 1,
      "price": "2106000000000000000000",
      "reserved": "",
      "salt": "0xd046929f2aa9b029d317c45e96164282e61e3a7195c272540fd060b3515f7854",
      "assetIds": [
        "41506478881403507969696680653240014914910929820314476107906210059990431967232",
        "41506478881403507969696680653240014914910929820314476107906210059990431967233"
      ]
    },
    {
      "x": 392,
      "y": 350,
      "size": 1,
      "price": "2106000000000000000000",
      "reserved": "",
      "salt": "0xa50637867fe70c923531e9f47123b69f1c5f1025c7c16cfb72c09c780b454a0d",
      "assetIds": [
        "41506478881403507969696680653240014914910929820314476107906210059990431967234",
        "41506478881403507969696680653240014914910929820314476107906210059990431967235"
      ]
    },
    {
      "x": 393,
      "y": 350,
      "size": 1,
      "price": "2106000000000000000000",
      "reserved": "",
      "salt": "0x2af1d3ff97b09905d47d650e8998533db6f35b1b342240ca6178e21be50a82c8",
      "assetIds": [
        "41506478881403507969696680653240014914910929820314476107906210059990431967234",
        "41506478881403507969696680653240014914910929820314476107906210059990431967235"
      ]
    },
    {
      "x": 394,
      "y": 350,
      "size": 1,
      "price": "2106000000000000000000",
      "reserved": "",
      "salt": "0x34f3527bd5ee4bcfcca100724ee2efcc2c2ce616207c9ca74e7cd420cdfcf1ea",
      "assetIds": [
        "41506478881403507969696680653240014914910929820314476107906210059990431967234",
        "41506478881403507969696680653240014914910929820314476107906210059990431967235"
      ]
    },
    {
      "x": 390,
      "y": 350,
      "size": 1,
      "price": "2106000000000000000000",
      "reserved": "",
      "salt": "0x25c0f2142d3a503ac60b9b217ca476e8c662d52c0e47319d99f8d06c7c8b3730",
      "assetIds": [
        "41506478881403507969696680653240014914910929820314476107906210059990431967232",
        "41506478881403507969696680653240014914910929820314476107906210059990431967233"
      ]
    },
    {
      "x": 389,
      "y": 350,
      "size": 1,
      "price": "2106000000000000000000",
      "reserved": "",
      "salt": "0x0434773e8cd62db287bfe1cdee42e2463bd90aacd2475bff1cb4d02edf1afde9",
      "assetIds": [
        "41506478881403507969696680653240014914910929820314476107906210059990431967233",
        "41506478881403507969696680653240014914910929820314476107906210059990431967234"
      ]
    },
    {
      "x": 388,
      "y": 350,
      "size": 1,
      "price": "2106000000000000000000",
      "reserved": "",
      "salt": "0x2bff4367175098e05139627ab32414c5227c5d9e91c61322cc8f0caa6ef9dd40",
      "assetIds": [
        "41506478881403507969696680653240014914910929820314476107906210059990431967235",
        "41506478881403507969696680653240014914910929820314476107906210059990431967236"
      ]
    },
    {
      "x": 384,
      "y": 352,
      "size": 1,
      "price": "2106000000000000000000",
      "reserved": "",
      "salt": "0x65c92eeb9d5c8e08af58a39301e10ae8cf7ca1b2bfa2ffbd0407ec020a5a1ebb",
      "assetIds": [
        "41506478881403507969696680653240014914910929820314476107906210059990431967234",
        "41506478881403507969696680653240014914910929820314476107906210059990431967235"
      ]
    },
    {
      "x": 383,
      "y": 352,
      "size": 1,
      "price": "2106000000000000000000",
      "reserved": "",
      "salt": "0x4d3bfa371861da8516a0ef802ee7ddfa2968eecb0d12d858d35ca15a25569045",
      "assetIds": [
        "41506478881403507969696680653240014914910929820314476107906210059990431967232",
        "41506478881403507969696680653240014914910929820314476107906210059990431967233"
      ]
    },
    {
      "x": 385,
      "y": 352,
      "size": 1,
      "price": "2106000000000000000000",
      "reserved": "",
      "salt": "0xb1ae72d0732246d78e6d9644fe17d42c05acb049e2a551eb02f30c0d00485fc5",
      "assetIds": [
        "41506478881403507969696680653240014914910929820314476107906210059990431967234",
        "41506478881403507969696680653240014914910929820314476107906210059990431967235"
      ]
    },
    {
      "x": 386,
      "y": 352,
      "size": 1,
      "price": "2106000000000000000000",
      "reserved": "",
      "salt": "0xca9a8a329869b72d93f28eaf15604850628c172d14d09b49e4ea86434dcda9db",
      "assetIds": [
        "41506478881403507969696680653240014914910929820314476107906210059990431967235",
        "41506478881403507969696680653240014914910929820314476107906210059990431967236"
      ]
    },
    {
      "x": 387,
      "y": 352,
      "size": 1,
      "price": "2106000000000000000000",
      "reserved": "",
      "salt": "0x945a638963ae0255b30dc0926948e00534585b9c68238b6129e39969cfd9cc01",
      "assetIds": [
        "41506478881403507969696680653240014914910929820314476107906210059990431967235",
        "41506478881403507969696680653240014914910929820314476107906210059990431967236"
      ]
    },
    {
      "x": 388,
      "y": 352,
      "size": 1,
      "price": "2106000000000000000000",
      "reserved": "",
      "salt": "0x6d9e12134cda837e891893d5c6ed73506b47b4bed980be8fe340f31ea95e4c7a",
      "assetIds": [
        "41506478881403507969696680653240014914910929820314476107906210059990431967235",
        "41506478881403507969696680653240014914910929820314476107906210059990431967236"
      ]
    },
    {
      "x": 389,
      "y": 352,
      "size": 1,
      "price": "2106000000000000000000",
      "reserved": "",
      "salt": "0x24d801e9425d960a4588765f8b0d0bfe5119c9691600121eaddab47a517b0089",
      "assetIds": [
        "41506478881403507969696680653240014914910929820314476107906210059990431967232",
        "41506478881403507969696680653240014914910929820314476107906210059990431967233"
      ]
    },
    {
      "x": 390,
      "y": 352,
      "size": 1,
      "price": "2106000000000000000000",
      "reserved": "",
      "salt": "0x19810efae1236a1793280e56d6294a4b68e1de9984193ec42bec92828ddb6b02",
      "assetIds": [
        "41506478881403507969696680653240014914910929820314476107906210059990431967234",
        "41506478881403507969696680653240014914910929820314476107906210059990431967235"
      ]
    },
    {
      "x": 391,
      "y": 352,
      "size": 1,
      "price": "2106000000000000000000",
      "reserved": "",
      "salt": "0xfee03280538872de13ee5e9f0a78e9dc3229d2059997aff4acd79608547aa389",
      "assetIds": [
        "41506478881403507969696680653240014914910929820314476107906210059990431967234",
        "41506478881403507969696680653240014914910929820314476107906210059990431967235"
      ]
    },
    {
      "x": 392,
      "y": 352,
      "size": 1,
      "price": "2106000000000000000000",
      "reserved": "",
      "salt": "0x12b56f56b10482d3b944df6a527a69fb44277d96f4cbab354a93f45b59b0dc6a",
      "assetIds": [
        "41506478881403507969696680653240014914910929820314476107906210059990431967235",
        "41506478881403507969696680653240014914910929820314476107906210059990431967236"
      ]
    },
    {
      "x": 393,
      "y": 352,
      "size": 1,
      "price": "2106000000000000000000",
      "reserved": "",
      "salt": "0x9693fd2b20618330b6caa3daaaf16067cc6bce829a1f716f5ff8d8656700a81e",
      "assetIds": [
        "41506478881403507969696680653240014914910929820314476107906210059990431967235",
        "41506478881403507969696680653240014914910929820314476107906210059990431967236"
      ]
    },
    {
      "x": 394,
      "y": 352,
      "size": 1,
      "price": "2106000000000000000000",
      "reserved": "",
      "salt": "0x8472c518b40e72de12b891ac7929d6b8a1037a69a23000ac6cbed150343314e7",
      "assetIds": [
        "41506478881403507969696680653240014914910929820314476107906210059990431967233",
        "41506478881403507969696680653240014914910929820314476107906210059990431967234"
      ]
    },
    {
      "x": 395,
      "y": 352,
      "size": 1,
      "price": "2106000000000000000000",
      "reserved": "",
      "salt": "0xb9ce54beb3ce62a0668a902f12bf23c51e4af9650a43dc3bdf543b47400d9a25",
      "assetIds": [
        "41506478881403507969696680653240014914910929820314476107906210059990431967234",
        "41506478881403507969696680653240014914910929820314476107906210059990431967235"
      ]
    },
    {
      "x": 394,
      "y": 351,
      "size": 1,
      "price": "2106000000000000000000",
      "reserved": "",
      "salt": "0x2bc24653900b60991f8b79ce731c6e8130e823477b0f05c9d6a9da5ff6ed94ad",
      "assetIds": [
        "41506478881403507969696680653240014914910929820314476107906210059990431967234",
        "41506478881403507969696680653240014914910929820314476107906210059990431967235"
      ]
    },
    {
      "x": 393,
      "y": 351,
      "size": 1,
      "price": "2106000000000000000000",
      "reserved": "",
      "salt": "0x5d8a6f6b4c83e26f90efb6027c98667a7d1d5e17a74f3d8811ab963dd6888751",
      "assetIds": [
        "41506478881403507969696680653240014914910929820314476107906210059990431967234",
        "41506478881403507969696680653240014914910929820314476107906210059990431967235"
      ]
    },
    {
      "x": 392,
      "y": 351,
      "size": 1,
      "price": "2106000000000000000000",
      "reserved": "",
      "salt": "0xd1f49a80d09a619f6b3628b97f058769770d8baceee02a66eebb81b7b657c22d",
      "assetIds": [
        "41506478881403507969696680653240014914910929820314476107906210059990431967232",
        "41506478881403507969696680653240014914910929820314476107906210059990431967233"
      ]
    },
    {
      "x": 391,
      "y": 351,
      "size": 1,
      "price": "2106000000000000000000",
      "reserved": "",
      "salt": "0x4253cd3b86df1cef546b64f024d4f7d6aa381d20dd3e4e9556471f1ca410cad2",
      "assetIds": [
        "41506478881403507969696680653240014914910929820314476107906210059990431967232",
        "41506478881403507969696680653240014914910929820314476107906210059990431967233"
      ]
    },
    {
      "x": 395,
      "y": 351,
      "size": 1,
      "price": "2106000000000000000000",
      "reserved": "",
      "salt": "0x92c9f08b2d89dd75796b42bd15bd9234d609f9127d2bbc2068f343c6e2c58ef5",
      "assetIds": [
        "41506478881403507969696680653240014914910929820314476107906210059990431967233",
        "41506478881403507969696680653240014914910929820314476107906210059990431967234"
      ]
    },
    {
      "x": 387,
      "y": 350,
      "size": 1,
      "price": "2106000000000000000000",
      "reserved": "",
      "salt": "0x32006bc016ae2d2cd3c7eea330e312c372d193baad2f0333717a401fcf41217a",
      "assetIds": [
        "41506478881403507969696680653240014914910929820314476107906210059990431967235",
        "41506478881403507969696680653240014914910929820314476107906210059990431967236"
      ]
    },
    {
      "x": 368,
      "y": 306,
      "size": 1,
      "price": "2106000000000000000000",
      "reserved": "",
      "salt": "0x0539be9cfc66c7e1dd72b24112842da4443925a5e8ba344168e5400d7ab9b371",
      "assetIds": [
        "41506478881403507969696680653240014914910929820314476107906210059990431967235",
        "41506478881403507969696680653240014914910929820314476107906210059990431967236"
      ]
    },
    {
      "x": 384,
      "y": 324,
      "size": 12,
      "price": "111381000000000000000000",
      "reserved": "",
      "salt": "0x342abea096fce8ee58d2cf77c3fe2eafd8942667d0d5799f74556daabd59bb6a",
      "assetIds": []
    },
    {
      "x": 360,
      "y": 336,
      "size": 12,
      "price": "111381000000000000000000",
      "reserved": "",
      "salt": "0x00011d723c660490bd1d709b8d0a43bb71343293e4fe4635fae5503ecea53bbb",
      "assetIds": []
    },
    {
      "x": 360,
      "y": 312,
      "size": 24,
      "price": "419302000000000000000000",
      "reserved": "0xdeaddeaddeaddeaddeaddeaddeaddeaddeaddead",
      "salt": "0xca0812b91fade3bc0d5077f8410b611e5b9026624927ad4950e289247743c780",
      "assetIds": []
    },
    {
      "x": 396,
      "y": 336,
      "size": 12,
      "price": "111381000000000000000000",
      "reserved": "0x7a9fe22691c811ea339d9b73150e6911a5343dca",
      "salt": "0x2e627d312775ace065f63e50514b541d30e102c3e1d282a21182278f7d1ceb3b",
      "assetIds": []
    },
    {
      "x": 354,
      "y": 318,
      "size": 6,
      "price": "29487000000000000000000",
      "reserved": "0x7a9fe22691c811ea339d9b73150e6911a5343dca",
      "salt": "0xb6e64654dc2b607b4d1605a455a68dcb189771410929f3a9d97c816a10e866c2",
      "assetIds": []
    },
    {
      "x": 390,
      "y": 354,
      "size": 6,
      "price": "29487000000000000000000",
      "reserved": "0x7a9fe22691c811ea339d9b73150e6911a5343dca",
      "salt": "0x103fa6d14fe2a07be4d8c5830f36c1c9166d7f30682b8d5f40bfe89d7ddaf565",
      "assetIds": []
    },
    {
      "x": 396,
      "y": 312,
      "size": 6,
      "price": "29487000000000000000000",
      "reserved": "",
      "salt": "0xdcaa6948ad428d695b892d0e1310d2e47a9b7118c4f2c6c35497b951ee925037",
      "assetIds": []
    },
    {
      "x": 384,
      "y": 318,
      "size": 6,
      "price": "29487000000000000000000",
      "reserved": "",
      "salt": "0x71e9a34fb5cea73fd928f7e5f4b48bb42bd6e1c9e9b756e4ae64fb9ce3fe7c7f",
      "assetIds": []
    },
    {
      "x": 372,
      "y": 306,
      "size": 6,
      "price": "29487000000000000000000",
      "reserved": "",
      "salt": "0x374c97b6989299fb00c15dff527707aff50fd67262cb21357265e0352644409c",
      "assetIds": []
    },
    {
      "x": 354,
      "y": 312,
      "size": 6,
      "price": "29487000000000000000000",
      "reserved": "",
      "salt": "0xee1d9881e94521b20cb5e1f20b4ffc91c3e8be5e52432bcaf00b8564c673d460",
      "assetIds": []
    },
    {
      "x": 354,
      "y": 330,
      "size": 6,
      "price": "29487000000000000000000",
      "reserved": "",
      "salt": "0x8280b51dfbd77b2435688ef79b3d6f7863134d680c76f07b1988c76d20f474b1",
      "assetIds": []
    },
    {
      "x": 378,
      "y": 336,
      "size": 6,
      "price": "29487000000000000000000",
      "reserved": "",
      "salt": "0x11d6321203713162a6269c18f52a33f877a689067f080b98c7c6055d7217275c",
      "assetIds": []
    },
    {
      "x": 399,
      "y": 327,
      "size": 3,
      "price": "7772000000000000000000",
      "reserved": "0x7a9fe22691c811ea339d9b73150e6911a5343dca",
      "salt": "0xb74f97a4d78a1242021a49ec0f7d95497a8e57dab2d93ec8b174d8c086e2f19b",
      "assetIds": []
    },
    {
      "x": 405,
      "y": 321,
      "size": 3,
      "price": "7772000000000000000000",
      "reserved": "0x7a9fe22691c811ea339d9b73150e6911a5343dca",
      "salt": "0xa73e9954c631b97c00f31a9c296c0e5e44450f47029628e7b09853b8a1c0e8c6",
      "assetIds": []
    },
    {
      "x": 372,
      "y": 342,
      "size": 6,
      "price": "29487000000000000000000",
      "reserved": "",
      "salt": "0xc56c13d10b53e7e769ff1e55cc76e2ad2f51ed7318855c8928bcfa5da1bb02fa",
      "assetIds": []
    }
  ],
  "solcInputHash": "a4de1e9cf87be8a7daa33c15e9438e26",
  "bytecode": "0x610160604052620d2f006005556103e860075534801561001e57600080fd5b5060405161242e38038061242e833981810160405261018081101561004257600080fd5b50805160208201516040830151606080850151608086015160a08088015160c0808a015160e08b01516101008c01516101208d01516101408e0151610160909e0151600280546001600160a01b0319166001600160a01b03861617905560038390558d8b1b6001600160601b0319908116909852998c901b909616909352999a9899979895979496929590949391926100dc8a600161014a565b600680546001600160a01b03199081166001600160a01b039a8b1617909155610140979097526101209590955260008054909616979096169690961790935550606093841b6001600160601b031990811660e05292841b831660805290921b1661010052506101ae92505050565b6001600160a01b038216600081815260016020908152604091829020805460ff191685151590811790915582519384529083015280517fb21eb88b4e33b3f1281830a7178d74d8aa73220416215726b68ae23d539515cb9281900390910190a15050565b60805160601c60a05160601c60c05160601c60e05160601c6101005160601c61012051610140516121fb610233600039806109375280611d44525080610913528061139a525080611da45250806115d252806116f4525080610c50528061159c5280611dd852508061166152806116c5525080610dfa528061190852506121fb6000f3fe608060405234801561001057600080fd5b50600436106101515760003560e01c8063984d6252116100cd578063dc5074af11610081578063ecb255b511610066578063ecb255b514610857578063f23a6e6114610874578063f2e7b3811461090957610151565b8063dc5074af14610814578063e56f8a9e1461083a57610151565b8063bc197c81116100b2578063bc197c81146105d3578063c10a420814610735578063caed35001461080c57610151565b8063984d6252146104db578063b522ecff146105ad57610151565b80636e9960c3116101245780638a04af6a116101095780638a04af6a1461032a5780638a12b82f146103585780638f283970146104b557610151565b80636e9960c3146102fe57806377f1c3ac1461032257610151565b806325cb5bc014610156578063495906571461017057806358bc29441461017857806365194ce7146101a0575b600080fd5b61015e610911565b60408051918252519081900360200190f35b61015e610935565b61019e6004803603602081101561018e57600080fd5b50356001600160a01b0316610959565b005b610246600480360360208110156101b657600080fd5b8101906020810181356401000000008111156101d157600080fd5b8201836020820111156101e357600080fd5b8035906020019184600183028401116401000000008311171561020557600080fd5b91908080601f016020809104026020016040519081016040528093929190818152602001838380828437600092019190915250929550610a04945050505050565b6040518080602001866001600160a01b03166001600160a01b03168152602001856001600160a01b03166001600160a01b03168152602001848152602001838152602001828103825287818151815260200191508051906020019080838360005b838110156102bf5781810151838201526020016102a7565b50505050905090810190601f1680156102ec5780820380516001836020036101000a031916815260200191505b50965050505050505060405180910390f35b610306610b09565b604080516001600160a01b039092168252519081900360200190f35b61015e610b18565b61019e6004803603604081101561034057600080fd5b506001600160a01b0381351690602001351515610b1e565b61019e600480360361018081101561036f57600080fd5b6001600160a01b038235811692602081013582169260408201359092169160608201359160808101359160a08201359160c08101359160e0820135916101008101359181019061014081016101208201356401000000008111156103d257600080fd5b8201836020820111156103e457600080fd5b8035906020019184602083028401116401000000008311171561040657600080fd5b91939092909160208101903564010000000081111561042457600080fd5b82018360208201111561043657600080fd5b8035906020019184602083028401116401000000008311171561045857600080fd5b91939092909160208101903564010000000081111561047657600080fd5b82018360208201111561048857600080fd5b803590602001918460018302840111640100000000831117156104aa57600080fd5b509092509050610b75565b61019e600480360360208110156104cb57600080fd5b50356001600160a01b0316610cc3565b61019e600480360360608110156104f157600080fd5b6001600160a01b03823516919081019060408101602082013564010000000081111561051c57600080fd5b82018360208201111561052e57600080fd5b8035906020019184602083028401116401000000008311171561055057600080fd5b91939092909160208101903564010000000081111561056e57600080fd5b82018360208201111561058057600080fd5b803590602001918460208302840111640100000000831117156105a257600080fd5b509092509050610d99565b61019e600480360360208110156105c357600080fd5b50356001600160a01b0316610f24565b610700600480360360a08110156105e957600080fd5b6001600160a01b03823581169260208101359091169181019060608101604082013564010000000081111561061d57600080fd5b82018360208201111561062f57600080fd5b8035906020019184602083028401116401000000008311171561065157600080fd5b91939092909160208101903564010000000081111561066f57600080fd5b82018360208201111561068157600080fd5b803590602001918460208302840111640100000000831117156106a357600080fd5b9193909290916020810190356401000000008111156106c157600080fd5b8201836020820111156106d357600080fd5b803590602001918460018302840111640100000000831117156106f557600080fd5b50909250905061100d565b604080517fffffffff000000000000000000000000000000000000000000000000000000009092168252519081900360200190f35b6107f8600480360360a081101561074b57600080fd5b81019060208101813564010000000081111561076657600080fd5b82018360208201111561077857600080fd5b8035906020019184600183028401116401000000008311171561079a57600080fd5b91908080601f016020809104026020016040519081016040528093929190818152602001838380828437600092019190915250929550506001600160a01b03833581169450602084013516926040810135925060600135905061103a565b604080519115158252519081900360200190f35b610306611176565b6107f86004803603602081101561082a57600080fd5b50356001600160a01b0316611185565b61019e6004803603602081101561085057600080fd5b50356111a3565b61019e6004803603602081101561086d57600080fd5b5035611207565b610700600480360360a081101561088a57600080fd5b6001600160a01b03823581169260208101359091169160408201359160608101359181019060a0810160808201356401000000008111156108ca57600080fd5b8201836020820111156108dc57600080fd5b803590602001918460018302840111640100000000831117156108fe57600080fd5b50909250905061126b565b61015e611296565b7f000000000000000000000000000000000000000000000000000000000000000090565b7f000000000000000000000000000000000000000000000000000000000000000090565b6000546001600160a01b031633146109b8576040805162461bcd60e51b815260206004820152601060248201527f53656e646572206e6f742061646d696e00000000000000000000000000000000604482015290519081900360640190fd5b600554600280546001600160a01b03908116600090815260046020526040902042909301909255805473ffffffffffffffffffffffffffffffffffffffff191692909116919091179055565b606060008060008060606000806000808a80602001905160a0811015610a2957600080fd5b8101908080516040519392919084640100000000821115610a4957600080fd5b908301906020820185811115610a5e57600080fd5b8251640100000000811182820188101715610a7857600080fd5b82525081516020918201929091019080838360005b83811015610aa5578181015183820152602001610a8d565b50505050905090810190601f168015610ad25780820380516001836020036101000a031916815260200191505b5060409081526020820151908201516060830151608090930151959f50909d509b5099509197505050505050505091939590929450565b6000546001600160a01b031690565b60035490565b6000546001600160a01b03163314610b675760405162461bcd60e51b815260040180806020018281038252602e815260200180612198602e913960400191505060405180910390fd5b610b71828261129c565b5050565b610b7f898961131e565b610c048f8e8e8e8e8e8d8d8d80806020026020016040519081016040528093929190818152602001838360200280828437600081840152601f19601f820116905080830192505050505050508c8c8080602002602001604051908101604052809392919081815260200183836020028082843760009201919091525061139892505050565b610c458f8984848080601f01602080910402602001604051908101604052809392919081815260200183838082843760009201919091525061157592505050565b610c758f8f8e8e8e8d7f00000000000000000000000000000000000000000000000000000000000000008f6115c6565b610cb28e87878080602002602001604051908101604052809392919081815260200183836020028082843760009201919091525061189192505050565b505050505050505050505050505050565b6000546001600160a01b03163314610d22576040805162461bcd60e51b815260206004820152601b60248201527f6f6e6c792061646d696e2063616e206368616e67652061646d696e0000000000604482015290519081900360640190fd5b600054604080516001600160a01b039283168152918316602083015280517f7e644d79422f17c01e4894b5f4f588d331ebfa28653d42ae832dc59e38c9798f9281900390910190a16000805473ffffffffffffffffffffffffffffffffffffffff19166001600160a01b0392909216919091179055565b6000546001600160a01b03163314610df8576040805162461bcd60e51b815260206004820152600e60248201527f4e4f545f415554484f52495a4544000000000000000000000000000000000000604482015290519081900360640190fd5b7f00000000000000000000000000000000000000000000000000000000000000006001600160a01b0316632eb2c2d63087878787876040518763ffffffff1660e01b815260040180876001600160a01b03166001600160a01b03168152602001866001600160a01b03166001600160a01b031681526020018060200180602001806020018481038452888882818152602001925060200280828437600083820152601f01601f19169091018581038452868152602090810191508790870280828437600081840152601f19601f8201169050808301925050508481038252600081526020016020019950505050505050505050600060405180830381600087803b158015610f0557600080fd5b505af1158015610f19573d6000803e3d6000fd5b505050505050505050565b6001600160a01b038116610f7f576040805162461bcd60e51b815260206004820152600c60248201527f5a45524f5f414444524553530000000000000000000000000000000000000000604482015290519081900360640190fd5b6000546001600160a01b03163314610fde576040805162461bcd60e51b815260206004820152600e60248201527f4e4f545f415554484f52495a4544000000000000000000000000000000000000604482015290519081900360640190fd5b6006805473ffffffffffffffffffffffffffffffffffffffff19166001600160a01b0392909216919091179055565b7fbc197c810000000000000000000000000000000000000000000000000000000098975050505050505050565b600060035482118061105d5750836001600160a01b0316856001600160a01b0316145b8061106757508242115b156110745750600061116d565b60408051606087811b7fffffffffffffffffffffffffffffffffffffffff0000000000000000000000009081166020808501919091529188901b166034830152604882018690526068808301869052835180840390910181526088830184528051908201207f19457468657265756d205369676e6564204d6573736167653a0a33320000000060a884015260c48084018290528451808503909101815260e4909301909352815191012060009061112b9089611a55565b6001600160a01b03811660009081526004602052604090205490915042116111585760019250505061116d565b6002546001600160a01b039081169116149150505b95945050505050565b6002546001600160a01b031690565b6001600160a01b031660009081526001602052604090205460ff1690565b6000546001600160a01b03163314611202576040805162461bcd60e51b815260206004820152601060248201527f53656e646572206e6f742061646d696e00000000000000000000000000000000604482015290519081900360640190fd5b600355565b6000546001600160a01b03163314611266576040805162461bcd60e51b815260206004820152600e60248201527f4e4f545f415554484f52495a4544000000000000000000000000000000000000604482015290519081900360640190fd5b600755565b7ff23a6e61000000000000000000000000000000000000000000000000000000009695505050505050565b60075490565b6001600160a01b03821660008181526001602090815260409182902080547fffffffffffffffffffffffffffffffffffffffffffffffffffffffffffffff001685151590811790915582519384529083015280517fb21eb88b4e33b3f1281830a7178d74d8aa73220416215726b68ae23d539515cb9281900390910190a15050565b6113456103e861133960075485611b2290919063ffffffff16565b9063ffffffff611b9816565b8114610b71576040805162461bcd60e51b815260206004820152600d60248201527f494e56414c49445f505249434500000000000000000000000000000000000000604482015290519081900360640190fd5b7f0000000000000000000000000000000000000000000000000000000000000000421061140c576040805162461bcd60e51b815260206004820152600c60248201527f53414c455f49535f4f5645520000000000000000000000000000000000000000604482015290519081900360640190fd5b6001600160a01b03891633148061143257503360009081526001602052604090205460ff165b611483576040805162461bcd60e51b815260206004820152600e60248201527f4e4f545f415554484f52495a4544000000000000000000000000000000000000604482015290519081900360640190fd5b6001600160a01b03881615806114aa5750886001600160a01b0316886001600160a01b0316145b6114fb576040805162461bcd60e51b815260206004820152600d60248201527f52455345525645445f4c414e4400000000000000000000000000000000000000604482015290519081900360640190fd5b600061150c888888888d8989611bfd565b90506115188282611ca2565b611569576040805162461bcd60e51b815260206004820152600c60248201527f494e56414c49445f4c414e440000000000000000000000000000000000000000604482015290519081900360640190fd5b50505050505050505050565b60006115818484611d6b565b6006549091506115c0908590839085906001600160a01b03167f0000000000000000000000000000000000000000000000000000000000000000611eb8565b50505050565b83600114806115fc57507f00000000000000000000000000000000000000000000000000000000000000006001600160a01b0316155b156116c357604080517f6e1e3bbf0000000000000000000000000000000000000000000000000000000081526001600160a01b03898116600483015260248201879052604482018990526064820188905260a06084830152600060a4830181905292517f000000000000000000000000000000000000000000000000000000000000000090911692636e1e3bbf9260e4808201939182900301818387803b1580156116a657600080fd5b505af11580156116ba573d6000803e3d6000fd5b50505050611827565b7f00000000000000000000000000000000000000000000000000000000000000006001600160a01b0316636e1e3bbf7f00000000000000000000000000000000000000000000000000000000000000008689898c60405160200180826001600160a01b03166001600160a01b031681526020019150506040516020818303038152906040526040518663ffffffff1660e01b815260040180866001600160a01b03166001600160a01b0316815260200185815260200184815260200183815260200180602001828103825283818151815260200191508051906020019080838360005b838110156117be5781810151838201526020016117a6565b50505050905090810190601f1680156117eb5780820380516001836020036101000a031916815260200191505b509650505050505050600060405180830381600087803b15801561180e57600080fd5b505af1158015611822573d6000803e3d6000fd5b505050505b60408051858152602081018590526001600160a01b03848116828401526060820184905291516101988802890192808b1692908c16917fe4dfa6ac11314892f3029b34a25b1a887da3b1cab2bbf8506d87128ba6e3ac029181900360800190a45050505050505050565b6060815167ffffffffffffffff811180156118ab57600080fd5b506040519080825280602002602001820160405280156118d5578160200160208202803683370190505b50905060005b82518110156119055760018282815181106118f257fe5b60209081029190910101526001016118db565b507f00000000000000000000000000000000000000000000000000000000000000006001600160a01b0316632eb2c2d6308585856040518563ffffffff1660e01b815260040180856001600160a01b03166001600160a01b03168152602001846001600160a01b03166001600160a01b03168152602001806020018060200180602001848103845286818151815260200191508051906020019060200280838360005b838110156119c05781810151838201526020016119a8565b50505050905001848103835285818151815260200191508051906020019060200280838360005b838110156119ff5781810151838201526020016119e7565b50505050905001848103825260008152602001602001975050505050505050600060405180830381600087803b158015611a3857600080fd5b505af1158015611a4c573d6000803e3d6000fd5b50505050505050565b60008151604114611a6557600080fd5b60208201516040830151606084015160001a601b811015611a8457601b015b8060ff16601b1480611a9957508060ff16601c145b611aa257600080fd5b6040805160008152602080820180845289905260ff8416828401526060820186905260808201859052915160019260a0808401939192601f1981019281900390910190855afa158015611af9573d6000803e3d6000fd5b5050604051601f1901519450506001600160a01b038416611b1957600080fd5b50505092915050565b600082611b3157506000611b92565b5081810281838281611b3f57fe5b0414611b92576040805162461bcd60e51b815260206004820152600860248201527f6f766572666c6f77000000000000000000000000000000000000000000000000604482015290519081900360640190fd5b92915050565b600081611bec576040805162461bcd60e51b815260206004820152600960248201527f64697662797a65726f0000000000000000000000000000000000000000000000604482015290519081900360640190fd5b818381611bf557fe5b049392505050565b60008787878787878760405160200180888152602001878152602001868152602001858152602001846001600160a01b03166001600160a01b031660601b8152601401838152602001828051906020019060200280838360005b83811015611c6f578181015183820152602001611c57565b50505050905001975050505050505050604051602081830303815290604052805190602001209050979650505050505050565b600081815b8451811015611d41576000858281518110611cbe57fe5b6020026020010151905080831015611d065782816040516020018083815260200182815260200192505050604051602081830303815290604052805190602001209250611d38565b808360405160200180838152602001828152602001925050506040516020818303038152906040528051906020012092505b50600101611ca7565b507f0000000000000000000000000000000000000000000000000000000000000000149392505050565b600080611d84606461133985600563ffffffff611b2216565b604080516323b872dd60e01b81526001600160a01b0387811660048301527f0000000000000000000000000000000000000000000000000000000000000000811660248301526044820184905291519293507f0000000000000000000000000000000000000000000000000000000000000000909116916323b872dd916064808201926020929091908290030181600087803b158015611e2357600080fd5b505af1158015611e37573d6000803e3d6000fd5b505050506040513d6020811015611e4d57600080fd5b5051611ea0576040805162461bcd60e51b815260206004820152601360248201527f4645455f5452414e534645525f4641494c454400000000000000000000000000604482015290519081900360640190fd5b611eb0838263ffffffff61213a16565b949350505050565b82518190859015612062576060600080600080611ed48a610a04565b9398509196509450925090506000611eef868686868661103a565b15611f7d57611f09611f018d84611b22565b612710611b98565b9050886001600160a01b0316846001600160a01b0316866001600160a01b03167fac7a699eb95c3c6d390ec4626de17ef9a67b35891efdb197beba7c7fdd45fac48f858760405180848152602001838152602001828152602001935050505060405180910390a4611f7a878261213a565b96505b801561205b57604080516323b872dd60e01b81526001600160a01b038f811660048301528781166024830152604482018490529151918a16916323b872dd916064808201926020929091908290030181600087803b158015611fde57600080fd5b505af1158015611ff2573d6000803e3d6000fd5b505050506040513d602081101561200857600080fd5b505161205b576040805162461bcd60e51b815260206004820152601960248201527f636f6d6d6973696f6e207472616e73666572206661696c656400000000000000604482015290519081900360640190fd5b5050505050505b604080516323b872dd60e01b81526001600160a01b0389811660048301528681166024830152604482018490529151918416916323b872dd916064808201926020929091908290030181600087803b1580156120bd57600080fd5b505af11580156120d1573d6000803e3d6000fd5b505050506040513d60208110156120e757600080fd5b5051611a4c576040805162461bcd60e51b815260206004820152601760248201527f7061796d656e74207472616e73666572206661696c6564000000000000000000604482015290519081900360640190fd5b600082821115612191576040805162461bcd60e51b815260206004820152600860248201527f756e6465666c6f77000000000000000000000000000000000000000000000000604482015290519081900360640190fd5b5090039056fe6f6e6c792061646d696e2063616e207365747570206d6574615472616e73616374696f6e50726f636573736f7273a26469706673582212200ff38c5741c66b2a22a9a9ee2abe0f55626323082b6b4443921fd3b25484584a64736f6c63430006050033",
  "devdoc": {
    "methods": {
      "buyLandWithSand(address,address,address,uint256,uint256,uint256,uint256,uint256,bytes32,uint256[],bytes32[],bytes)": {
        "params": {
          "buyer": "address that perform the payment",
          "priceInSand": "price in SAND to purchase that Land",
          "proof": "merkleProof for that particular Land",
          "reserved": "the reserved address (if any)",
          "size": "size of the pack of Land to purchase",
          "to": "address that will own the purchased Land",
          "x": "x coordinate of the Land",
          "y": "y coordinate of the Land"
        }
      },
      "changeAdmin(address)": {
        "details": "change the administrator to be `newAdmin`.",
        "params": {
          "newAdmin": "address of the new administrator."
        }
      },
      "getAdmin()": {
        "details": "gives the current administrator of this contract.",
        "returns": {
          "_0": "the current administrator of this contract."
        }
      },
      "getSigningWallet()": {
        "details": "signing wallet authorized for referral",
        "returns": {
          "_0": "the address of the signing wallet"
        }
      },
      "isMetaTransactionProcessor(address)": {
        "details": "check whether address `who` is given meta-transaction execution rights.",
        "params": {
          "who": "The address to query."
        },
        "returns": {
          "_0": "whether the address has meta-transaction execution rights."
        }
      },
      "isReferralValid(bytes,address,address,uint256,uint256)": {
        "params": {
          "commissionRate": "The commissionRate of the referral",
          "expiryTime": "The expiry time of the referral",
          "referee": "The address of the referee",
          "referrer": "The address of the referrer",
          "signature": "The signature to check (signed referral)"
        },
        "returns": {
          "_0": "True if the referral is valid"
        }
      },
      "setMetaTransactionProcessor(address,bool)": {
        "details": "Enable or disable the ability of `metaTransactionProcessor` to perform meta-tx (metaTransactionProcessor rights).",
        "params": {
          "enabled": "set whether the metaTransactionProcessor is enabled or disabled.",
          "metaTransactionProcessor": "address that will be given/removed metaTransactionProcessor rights."
        }
      },
      "setReceivingWallet(address)": {
        "params": {
          "newWallet": "address of the new receiving wallet"
        }
      },
      "updateMaxCommissionRate(uint256)": {
        "details": "Update the maximum commission rate",
        "params": {
          "newMaxCommissionRate": "The new maximum commission rate"
        }
      },
      "updateSigningWallet(address)": {
        "details": "Update the signing wallet",
        "params": {
          "newSigningWallet": "The new address of the signing wallet"
        }
      },
      "withdrawAssets(address,uint256[],uint256[])": {
        "params": {
          "assetIds": "the assetIds to be transferred",
          "to": "intended recipient of the asset tokens",
          "values": "the quantities of the assetIds to be transferred"
        }
      }
    },
    "title": "Estate Sale contract with referral"
  },
  "userdoc": {
    "methods": {
      "buyLandWithSand(address,address,address,uint256,uint256,uint256,uint256,uint256,bytes32,uint256[],bytes32[],bytes)": {
        "notice": "buy Land with SAND using the merkle proof associated with it"
      },
      "getExpiryTime()": {
        "notice": "Gets the expiry time for the current sale"
      },
      "getMaxCommisionRate()": {
        "notice": "the max commision rate"
      },
      "getMerkleRoot()": {
        "notice": "Gets the Merkle root associated with the current sale"
      },
      "isReferralValid(bytes,address,address,uint256,uint256)": {
        "notice": "Check if a referral is valid"
      },
      "setReceivingWallet(address)": {
        "notice": "set the wallet receiving the proceeds"
      },
      "withdrawAssets(address,uint256[],uint256[])": {
        "notice": "enable Admin to withdraw remaining assets from EstateSaleWithFee contract"
      }
    },
    "notice": "This contract manages the sale of our lands as Estates"
  },
  "storageLayout": {
    "storage": [
      {
        "astId": 15353,
        "contract": "src/solc_0.6/EstateSale/EstateSaleWithFee.sol:EstateSaleWithFee",
        "label": "_admin",
        "offset": 0,
        "slot": "0",
        "type": "t_address"
      },
      {
        "astId": 15415,
        "contract": "src/solc_0.6/EstateSale/EstateSaleWithFee.sol:EstateSaleWithFee",
        "label": "_metaTransactionContracts",
        "offset": 0,
        "slot": "1",
        "type": "t_mapping(t_address,t_bool)"
      },
      {
        "astId": 13531,
        "contract": "src/solc_0.6/EstateSale/EstateSaleWithFee.sol:EstateSaleWithFee",
        "label": "_signingWallet",
        "offset": 0,
        "slot": "2",
        "type": "t_address"
      },
      {
        "astId": 13533,
        "contract": "src/solc_0.6/EstateSale/EstateSaleWithFee.sol:EstateSaleWithFee",
        "label": "_maxCommissionRate",
        "offset": 0,
        "slot": "3",
        "type": "t_uint256"
      },
      {
        "astId": 13537,
        "contract": "src/solc_0.6/EstateSale/EstateSaleWithFee.sol:EstateSaleWithFee",
        "label": "_previousSigningWallets",
        "offset": 0,
        "slot": "4",
        "type": "t_mapping(t_address,t_uint256)"
      },
      {
        "astId": 13546,
        "contract": "src/solc_0.6/EstateSale/EstateSaleWithFee.sol:EstateSaleWithFee",
        "label": "_previousSigningDelay",
        "offset": 0,
        "slot": "5",
        "type": "t_uint256"
      },
      {
        "astId": 9918,
        "contract": "src/solc_0.6/EstateSale/EstateSaleWithFee.sol:EstateSaleWithFee",
        "label": "_wallet",
        "offset": 0,
        "slot": "6",
        "type": "t_address_payable"
      },
      {
        "astId": 9928,
        "contract": "src/solc_0.6/EstateSale/EstateSaleWithFee.sol:EstateSaleWithFee",
        "label": "_multiplier",
        "offset": 0,
        "slot": "7",
        "type": "t_uint256"
      }
    ],
    "types": {
      "t_address": {
        "encoding": "inplace",
        "label": "address",
        "numberOfBytes": "20"
      },
      "t_address_payable": {
        "encoding": "inplace",
        "label": "address payable",
        "numberOfBytes": "20"
      },
      "t_bool": {
        "encoding": "inplace",
        "label": "bool",
        "numberOfBytes": "1"
      },
      "t_mapping(t_address,t_bool)": {
        "encoding": "mapping",
        "key": "t_address",
        "label": "mapping(address => bool)",
        "numberOfBytes": "32",
        "value": "t_bool"
      },
      "t_mapping(t_address,t_uint256)": {
        "encoding": "mapping",
        "key": "t_address",
        "label": "mapping(address => uint256)",
        "numberOfBytes": "32",
        "value": "t_uint256"
      },
      "t_uint256": {
        "encoding": "inplace",
        "label": "uint256",
        "numberOfBytes": "32"
      }
    }
  }
}