{
  "abi": [
    {
      "inputs": [
        {
          "internalType": "address",
          "name": "landAddress",
          "type": "address"
        },
        {
          "internalType": "address",
          "name": "sandContractAddress",
          "type": "address"
        },
        {
          "internalType": "address",
          "name": "initialMetaTx",
          "type": "address"
        },
        {
          "internalType": "address",
          "name": "admin",
          "type": "address"
        },
        {
          "internalType": "address payable",
          "name": "initialWalletAddress",
          "type": "address"
        },
        {
          "internalType": "bytes32",
          "name": "merkleRoot",
          "type": "bytes32"
        },
        {
          "internalType": "uint256",
          "name": "expiryTime",
          "type": "uint256"
        },
        {
          "internalType": "address",
          "name": "medianizerContractAddress",
          "type": "address"
        },
        {
          "internalType": "address",
          "name": "daiTokenContractAddress",
          "type": "address"
        },
        {
          "internalType": "address",
          "name": "initialSigningWallet",
          "type": "address"
        },
        {
          "internalType": "uint256",
          "name": "initialMaxCommissionRate",
          "type": "uint256"
        },
        {
          "internalType": "address",
          "name": "estate",
          "type": "address"
        },
        {
          "internalType": "address",
          "name": "asset",
          "type": "address"
        }
      ],
      "stateMutability": "nonpayable",
      "type": "constructor"
    },
    {
      "anonymous": false,
      "inputs": [
        {
          "indexed": false,
          "internalType": "address",
          "name": "oldAdmin",
          "type": "address"
        },
        {
          "indexed": false,
          "internalType": "address",
          "name": "newAdmin",
          "type": "address"
        }
      ],
      "name": "AdminChanged",
      "type": "event"
    },
    {
      "anonymous": false,
      "inputs": [
        {
          "indexed": true,
          "internalType": "address",
          "name": "buyer",
          "type": "address"
        },
        {
          "indexed": true,
          "internalType": "address",
          "name": "to",
          "type": "address"
        },
        {
          "indexed": true,
          "internalType": "uint256",
          "name": "topCornerId",
          "type": "uint256"
        },
        {
          "indexed": false,
          "internalType": "uint256",
          "name": "size",
          "type": "uint256"
        },
        {
          "indexed": false,
          "internalType": "uint256",
          "name": "price",
          "type": "uint256"
        },
        {
          "indexed": false,
          "internalType": "address",
          "name": "token",
          "type": "address"
        },
        {
          "indexed": false,
          "internalType": "uint256",
          "name": "amountPaid",
          "type": "uint256"
        }
      ],
      "name": "LandQuadPurchased",
      "type": "event"
    },
    {
      "anonymous": false,
      "inputs": [
        {
          "indexed": false,
          "internalType": "address",
          "name": "metaTransactionProcessor",
          "type": "address"
        },
        {
          "indexed": false,
          "internalType": "bool",
          "name": "enabled",
          "type": "bool"
        }
      ],
      "name": "MetaTransactionProcessor",
      "type": "event"
    },
    {
      "anonymous": false,
      "inputs": [
        {
          "indexed": true,
          "internalType": "address",
          "name": "referrer",
          "type": "address"
        },
        {
          "indexed": true,
          "internalType": "address",
          "name": "referee",
          "type": "address"
        },
        {
          "indexed": true,
          "internalType": "address",
          "name": "token",
          "type": "address"
        },
        {
          "indexed": false,
          "internalType": "uint256",
          "name": "amount",
          "type": "uint256"
        },
        {
          "indexed": false,
          "internalType": "uint256",
          "name": "commission",
          "type": "uint256"
        },
        {
          "indexed": false,
          "internalType": "uint256",
          "name": "commissionRate",
          "type": "uint256"
        }
      ],
      "name": "ReferralUsed",
      "type": "event"
    },
    {
      "inputs": [
        {
          "internalType": "address",
          "name": "buyer",
          "type": "address"
        },
        {
          "internalType": "address",
          "name": "to",
          "type": "address"
        },
        {
          "internalType": "address",
          "name": "reserved",
          "type": "address"
        },
        {
          "internalType": "uint256",
          "name": "x",
          "type": "uint256"
        },
        {
          "internalType": "uint256",
          "name": "y",
          "type": "uint256"
        },
        {
          "internalType": "uint256",
          "name": "size",
          "type": "uint256"
        },
        {
          "internalType": "uint256",
          "name": "priceInSand",
          "type": "uint256"
        },
        {
          "internalType": "bytes32",
          "name": "salt",
          "type": "bytes32"
        },
        {
          "internalType": "uint256[]",
          "name": "assetIds",
          "type": "uint256[]"
        },
        {
          "internalType": "bytes32[]",
          "name": "proof",
          "type": "bytes32[]"
        },
        {
          "internalType": "bytes",
          "name": "referral",
          "type": "bytes"
        }
      ],
      "name": "buyLandWithDAI",
      "outputs": [],
      "stateMutability": "nonpayable",
      "type": "function"
    },
    {
      "inputs": [
        {
          "internalType": "address",
          "name": "buyer",
          "type": "address"
        },
        {
          "internalType": "address",
          "name": "to",
          "type": "address"
        },
        {
          "internalType": "address",
          "name": "reserved",
          "type": "address"
        },
        {
          "internalType": "uint256",
          "name": "x",
          "type": "uint256"
        },
        {
          "internalType": "uint256",
          "name": "y",
          "type": "uint256"
        },
        {
          "internalType": "uint256",
          "name": "size",
          "type": "uint256"
        },
        {
          "internalType": "uint256",
          "name": "priceInSand",
          "type": "uint256"
        },
        {
          "internalType": "bytes32",
          "name": "salt",
          "type": "bytes32"
        },
        {
          "internalType": "uint256[]",
          "name": "assetIds",
          "type": "uint256[]"
        },
        {
          "internalType": "bytes32[]",
          "name": "proof",
          "type": "bytes32[]"
        },
        {
          "internalType": "bytes",
          "name": "referral",
          "type": "bytes"
        }
      ],
      "name": "buyLandWithETH",
      "outputs": [],
      "stateMutability": "payable",
      "type": "function"
    },
    {
      "inputs": [
        {
          "internalType": "address",
          "name": "buyer",
          "type": "address"
        },
        {
          "internalType": "address",
          "name": "to",
          "type": "address"
        },
        {
          "internalType": "address",
          "name": "reserved",
          "type": "address"
        },
        {
          "internalType": "uint256",
          "name": "x",
          "type": "uint256"
        },
        {
          "internalType": "uint256",
          "name": "y",
          "type": "uint256"
        },
        {
          "internalType": "uint256",
          "name": "size",
          "type": "uint256"
        },
        {
          "internalType": "uint256",
          "name": "priceInSand",
          "type": "uint256"
        },
        {
          "internalType": "bytes32",
          "name": "salt",
          "type": "bytes32"
        },
        {
          "internalType": "uint256[]",
          "name": "assetIds",
          "type": "uint256[]"
        },
        {
          "internalType": "bytes32[]",
          "name": "proof",
          "type": "bytes32[]"
        },
        {
          "internalType": "bytes",
          "name": "referral",
          "type": "bytes"
        }
      ],
      "name": "buyLandWithSand",
      "outputs": [],
      "stateMutability": "nonpayable",
      "type": "function"
    },
    {
      "inputs": [
        {
          "internalType": "address",
          "name": "newAdmin",
          "type": "address"
        }
      ],
      "name": "changeAdmin",
      "outputs": [],
      "stateMutability": "nonpayable",
      "type": "function"
    },
    {
      "inputs": [
        {
          "internalType": "bytes",
          "name": "referral",
          "type": "bytes"
        }
      ],
      "name": "decodeReferral",
      "outputs": [
        {
          "internalType": "bytes",
          "name": "",
          "type": "bytes"
        },
        {
          "internalType": "address",
          "name": "",
          "type": "address"
        },
        {
          "internalType": "address",
          "name": "",
          "type": "address"
        },
        {
          "internalType": "uint256",
          "name": "",
          "type": "uint256"
        },
        {
          "internalType": "uint256",
          "name": "",
          "type": "uint256"
        }
      ],
      "stateMutability": "pure",
      "type": "function"
    },
    {
      "inputs": [],
      "name": "getAdmin",
      "outputs": [
        {
          "internalType": "address",
          "name": "",
          "type": "address"
        }
      ],
      "stateMutability": "view",
      "type": "function"
    },
    {
      "inputs": [
        {
          "internalType": "uint256",
          "name": "sandAmount",
          "type": "uint256"
        }
      ],
      "name": "getEtherAmountWithSAND",
      "outputs": [
        {
          "internalType": "uint256",
          "name": "",
          "type": "uint256"
        }
      ],
      "stateMutability": "view",
      "type": "function"
    },
    {
      "inputs": [],
      "name": "getExpiryTime",
      "outputs": [
        {
          "internalType": "uint256",
          "name": "",
          "type": "uint256"
        }
      ],
      "stateMutability": "view",
      "type": "function"
    },
    {
      "inputs": [],
      "name": "getMaxCommisionRate",
      "outputs": [
        {
          "internalType": "uint256",
          "name": "",
          "type": "uint256"
        }
      ],
      "stateMutability": "view",
      "type": "function"
    },
    {
      "inputs": [],
      "name": "getSigningWallet",
      "outputs": [
        {
          "internalType": "address",
          "name": "",
          "type": "address"
        }
      ],
      "stateMutability": "view",
      "type": "function"
    },
    {
      "inputs": [],
      "name": "isDAIEnabled",
      "outputs": [
        {
          "internalType": "bool",
          "name": "",
          "type": "bool"
        }
      ],
      "stateMutability": "view",
      "type": "function"
    },
    {
      "inputs": [],
      "name": "isETHEnabled",
      "outputs": [
        {
          "internalType": "bool",
          "name": "",
          "type": "bool"
        }
      ],
      "stateMutability": "view",
      "type": "function"
    },
    {
      "inputs": [
        {
          "internalType": "address",
          "name": "who",
          "type": "address"
        }
      ],
      "name": "isMetaTransactionProcessor",
      "outputs": [
        {
          "internalType": "bool",
          "name": "",
          "type": "bool"
        }
      ],
      "stateMutability": "view",
      "type": "function"
    },
    {
      "inputs": [
        {
          "internalType": "bytes",
          "name": "signature",
          "type": "bytes"
        },
        {
          "internalType": "address",
          "name": "referrer",
          "type": "address"
        },
        {
          "internalType": "address",
          "name": "referee",
          "type": "address"
        },
        {
          "internalType": "uint256",
          "name": "expiryTime",
          "type": "uint256"
        },
        {
          "internalType": "uint256",
          "name": "commissionRate",
          "type": "uint256"
        }
      ],
      "name": "isReferralValid",
      "outputs": [
        {
          "internalType": "bool",
          "name": "",
          "type": "bool"
        }
      ],
      "stateMutability": "view",
      "type": "function"
    },
    {
      "inputs": [],
      "name": "isSANDEnabled",
      "outputs": [
        {
          "internalType": "bool",
          "name": "",
          "type": "bool"
        }
      ],
      "stateMutability": "view",
      "type": "function"
    },
    {
      "inputs": [],
      "name": "merkleRoot",
      "outputs": [
        {
          "internalType": "bytes32",
          "name": "",
          "type": "bytes32"
        }
      ],
      "stateMutability": "view",
      "type": "function"
    },
    {
      "inputs": [
        {
          "internalType": "address",
          "name": "",
          "type": "address"
        },
        {
          "internalType": "address",
          "name": "",
          "type": "address"
        },
        {
          "internalType": "uint256[]",
          "name": "",
          "type": "uint256[]"
        },
        {
          "internalType": "uint256[]",
          "name": "",
          "type": "uint256[]"
        },
        {
          "internalType": "bytes",
          "name": "",
          "type": "bytes"
        }
      ],
      "name": "onERC1155BatchReceived",
      "outputs": [
        {
          "internalType": "bytes4",
          "name": "",
          "type": "bytes4"
        }
      ],
      "stateMutability": "pure",
      "type": "function"
    },
    {
      "inputs": [
        {
          "internalType": "address",
          "name": "",
          "type": "address"
        },
        {
          "internalType": "address",
          "name": "",
          "type": "address"
        },
        {
          "internalType": "uint256",
          "name": "",
          "type": "uint256"
        },
        {
          "internalType": "uint256",
          "name": "",
          "type": "uint256"
        },
        {
          "internalType": "bytes",
          "name": "",
          "type": "bytes"
        }
      ],
      "name": "onERC1155Received",
      "outputs": [
        {
          "internalType": "bytes4",
          "name": "",
          "type": "bytes4"
        }
      ],
      "stateMutability": "pure",
      "type": "function"
    },
    {
      "inputs": [
        {
          "internalType": "bool",
          "name": "enabled",
          "type": "bool"
        }
      ],
      "name": "setDAIEnabled",
      "outputs": [],
      "stateMutability": "nonpayable",
      "type": "function"
    },
    {
      "inputs": [
        {
          "internalType": "bool",
          "name": "enabled",
          "type": "bool"
        }
      ],
      "name": "setETHEnabled",
      "outputs": [],
      "stateMutability": "nonpayable",
      "type": "function"
    },
    {
      "inputs": [
        {
          "internalType": "address",
          "name": "metaTransactionProcessor",
          "type": "address"
        },
        {
          "internalType": "bool",
          "name": "enabled",
          "type": "bool"
        }
      ],
      "name": "setMetaTransactionProcessor",
      "outputs": [],
      "stateMutability": "nonpayable",
      "type": "function"
    },
    {
      "inputs": [
        {
          "internalType": "address payable",
          "name": "newWallet",
          "type": "address"
        }
      ],
      "name": "setReceivingWallet",
      "outputs": [],
      "stateMutability": "nonpayable",
      "type": "function"
    },
    {
      "inputs": [
        {
          "internalType": "bool",
          "name": "enabled",
          "type": "bool"
        }
      ],
      "name": "setSANDEnabled",
      "outputs": [],
      "stateMutability": "nonpayable",
      "type": "function"
    },
    {
      "inputs": [
        {
          "internalType": "uint256",
          "name": "newMaxCommissionRate",
          "type": "uint256"
        }
      ],
      "name": "updateMaxCommissionRate",
      "outputs": [],
      "stateMutability": "nonpayable",
      "type": "function"
    },
    {
      "inputs": [
        {
          "internalType": "address",
          "name": "newSigningWallet",
          "type": "address"
        }
      ],
      "name": "updateSigningWallet",
      "outputs": [],
      "stateMutability": "nonpayable",
      "type": "function"
    },
    {
      "inputs": [
        {
          "internalType": "address",
          "name": "to",
          "type": "address"
        },
        {
          "internalType": "uint256[]",
          "name": "assetIds",
          "type": "uint256[]"
        },
        {
          "internalType": "uint256[]",
          "name": "values",
          "type": "uint256[]"
        }
      ],
      "name": "withdrawAssets",
      "outputs": [],
      "stateMutability": "nonpayable",
      "type": "function"
    }
  ],
  "address": "0x8100FaBDc79A776311c4ff90C8ad85d774E139d9",
  "args": [
    "0xaF40A483bF77AAb7b7D13dB18187E6D62C1EA41b",
    "0xCc933a862fc15379E441F2A16Cb943D385a4695f",
    "0xCc933a862fc15379E441F2A16Cb943D385a4695f",
    "0x61c461EcC993aaDEB7e4b47E96d1B8cC37314B20",
    "0xcbc70EcCd52bF3910CDC1455E6D2Bd45725F573D",
    "0x0df85bae1fa31662777805ed5c50e89b11c3c0a77101acd62b8b74fdf6af3bd2",
    1597755600,
    "0x41A9Da774cD4c9323d5E73ccF4c68d1A06B67599",
    "0x6D288aA0a7c7aF331e795cBca04eE3b4026F2aE8",
    "0xB7060D3FeCAC3AE1F0A0AA416E3e8E472257950e",
    2000,
    "0x0000000000000000000000000000000000000000",
    "0x42D39493e3A59026Ab92f13F340F56038114f329"
  ],
  "linkedData": [
    {
      "x": 96,
      "y": 383,
      "size": 1,
      "price": "3000000000000000000000",
      "assetIds": []
    },
    {
      "x": 96,
      "y": 382,
      "size": 1,
      "price": "3000000000000000000000",
      "assetIds": []
    },
    {
      "x": 97,
      "y": 382,
      "size": 1,
      "price": "3000000000000000000000",
      "assetIds": []
    },
    {
      "x": 97,
      "y": 381,
      "size": 1,
      "price": "3000000000000000000000",
      "reserved": "0x7a9fe22691c811ea339d9b73150e6911a5343dca",
      "assetIds": []
    },
    {
      "x": 98,
      "y": 381,
      "size": 1,
      "price": "3000000000000000000000",
      "assetIds": []
    },
    {
      "x": 98,
      "y": 382,
      "size": 1,
      "price": "3000000000000000000000",
      "assetIds": []
    },
    {
      "x": 98,
      "y": 383,
      "size": 1,
      "price": "3000000000000000000000",
      "assetIds": []
    },
    {
      "x": 97,
      "y": 383,
      "size": 1,
      "price": "3000000000000000000000",
      "assetIds": []
    },
    {
      "x": 96,
      "y": 381,
      "size": 1,
      "price": "3000000000000000000000",
      "assetIds": []
    },
    {
      "x": 102,
      "y": 383,
      "size": 1,
      "price": "3000000000000000000000",
      "assetIds": []
    },
    {
      "x": 102,
      "y": 382,
      "size": 1,
      "price": "3000000000000000000000",
      "assetIds": []
    },
    {
      "x": 103,
      "y": 382,
      "size": 1,
      "price": "3000000000000000000000",
      "assetIds": []
    },
    {
      "x": 103,
      "y": 381,
      "size": 1,
      "price": "3000000000000000000000",
      "reserved": "0x7a9fe22691c811ea339d9b73150e6911a5343dca",
      "assetIds": []
    },
    {
      "x": 104,
      "y": 381,
      "size": 1,
      "price": "3000000000000000000000",
      "assetIds": []
    },
    {
      "x": 104,
      "y": 382,
      "size": 1,
      "price": "3000000000000000000000",
      "assetIds": []
    },
    {
      "x": 104,
      "y": 383,
      "size": 1,
      "price": "3000000000000000000000",
      "assetIds": []
    },
    {
      "x": 103,
      "y": 383,
      "size": 1,
      "price": "3000000000000000000000",
      "assetIds": []
    },
    {
      "x": 102,
      "y": 381,
      "size": 1,
      "price": "3000000000000000000000",
      "assetIds": []
    },
    {
      "x": 101,
      "y": 380,
      "size": 1,
      "price": "3000000000000000000000",
      "assetIds": []
    },
    {
      "x": 100,
      "y": 380,
      "size": 1,
      "price": "3000000000000000000000",
      "assetIds": []
    },
    {
      "x": 99,
      "y": 379,
      "size": 1,
      "price": "3000000000000000000000",
      "assetIds": []
    },
    {
      "x": 99,
      "y": 378,
      "size": 1,
      "price": "3000000000000000000000",
      "assetIds": []
    },
    {
      "x": 100,
      "y": 378,
      "size": 1,
      "price": "3000000000000000000000",
      "assetIds": []
    },
    {
      "x": 101,
      "y": 378,
      "size": 1,
      "price": "3000000000000000000000",
      "reserved": "0x7a9fe22691c811ea339d9b73150e6911a5343dca",
      "assetIds": []
    },
    {
      "x": 101,
      "y": 379,
      "size": 1,
      "price": "3000000000000000000000",
      "assetIds": []
    },
    {
      "x": 100,
      "y": 379,
      "size": 1,
      "price": "3000000000000000000000",
      "assetIds": []
    },
    {
      "x": 99,
      "y": 380,
      "size": 1,
      "price": "3000000000000000000000",
      "assetIds": []
    },
    {
      "x": 105,
      "y": 380,
      "size": 1,
      "price": "3000000000000000000000",
      "reserved": "0x7a9fe22691c811ea339d9b73150e6911a5343dca",
      "assetIds": []
    },
    {
      "x": 106,
      "y": 380,
      "size": 1,
      "price": "3000000000000000000000",
      "assetIds": []
    },
    {
      "x": 107,
      "y": 380,
      "size": 1,
      "price": "3000000000000000000000",
      "assetIds": []
    },
    {
      "x": 106,
      "y": 379,
      "size": 1,
      "price": "3000000000000000000000",
      "assetIds": []
    },
    {
      "x": 105,
      "y": 379,
      "size": 1,
      "price": "3000000000000000000000",
      "assetIds": []
    },
    {
      "x": 105,
      "y": 378,
      "size": 1,
      "price": "3000000000000000000000",
      "assetIds": []
    },
    {
      "x": 106,
      "y": 378,
      "size": 1,
      "price": "3000000000000000000000",
      "assetIds": []
    },
    {
      "x": 107,
      "y": 378,
      "size": 1,
      "price": "3000000000000000000000",
      "reserved": "0x7a9fe22691c811ea339d9b73150e6911a5343dca",
      "assetIds": []
    },
    {
      "x": 107,
      "y": 379,
      "size": 1,
      "price": "3000000000000000000000",
      "assetIds": []
    },
    {
      "x": 106,
      "y": 374,
      "size": 1,
      "price": "3000000000000000000000",
      "assetIds": []
    },
    {
      "x": 106,
      "y": 373,
      "size": 1,
      "price": "3000000000000000000000",
      "assetIds": []
    },
    {
      "x": 106,
      "y": 372,
      "size": 1,
      "price": "3000000000000000000000",
      "assetIds": []
    },
    {
      "x": 107,
      "y": 372,
      "size": 1,
      "price": "3000000000000000000000",
      "assetIds": []
    },
    {
      "x": 107,
      "y": 373,
      "size": 1,
      "price": "3000000000000000000000",
      "reserved": "0x7a9fe22691c811ea339d9b73150e6911a5343dca",
      "assetIds": []
    },
    {
      "x": 107,
      "y": 374,
      "size": 1,
      "price": "3000000000000000000000",
      "assetIds": []
    },
    {
      "x": 105,
      "y": 373,
      "size": 1,
      "price": "3000000000000000000000",
      "assetIds": []
    },
    {
      "x": 105,
      "y": 372,
      "size": 1,
      "price": "3000000000000000000000",
      "reserved": "0x7a9fe22691c811ea339d9b73150e6911a5343dca",
      "assetIds": []
    },
    {
      "x": 105,
      "y": 374,
      "size": 1,
      "price": "3000000000000000000000",
      "assetIds": []
    },
    {
      "x": 114,
      "y": 371,
      "size": 1,
      "price": "3000000000000000000000",
      "assetIds": []
    },
    {
      "x": 114,
      "y": 370,
      "size": 1,
      "price": "3000000000000000000000",
      "assetIds": []
    },
    {
      "x": 115,
      "y": 369,
      "size": 1,
      "price": "3000000000000000000000",
      "assetIds": []
    },
    {
      "x": 116,
      "y": 369,
      "size": 1,
      "price": "3000000000000000000000",
      "assetIds": []
    },
    {
      "x": 116,
      "y": 370,
      "size": 1,
      "price": "3000000000000000000000",
      "assetIds": []
    },
    {
      "x": 116,
      "y": 371,
      "size": 1,
      "price": "3000000000000000000000",
      "reserved": "0x7a9fe22691c811ea339d9b73150e6911a5343dca",
      "assetIds": []
    },
    {
      "x": 115,
      "y": 371,
      "size": 1,
      "price": "3000000000000000000000",
      "assetIds": []
    },
    {
      "x": 114,
      "y": 369,
      "size": 1,
      "price": "3000000000000000000000",
      "reserved": "0x7a9fe22691c811ea339d9b73150e6911a5343dca",
      "assetIds": []
    },
    {
      "x": 115,
      "y": 370,
      "size": 1,
      "price": "3000000000000000000000",
      "assetIds": []
    },
    {
      "x": 115,
      "y": 365,
      "size": 1,
      "price": "3000000000000000000000",
      "assetIds": []
    },
    {
      "x": 114,
      "y": 365,
      "size": 1,
      "price": "3000000000000000000000",
      "assetIds": []
    },
    {
      "x": 114,
      "y": 364,
      "size": 1,
      "price": "3000000000000000000000",
      "assetIds": []
    },
    {
      "x": 114,
      "y": 363,
      "size": 1,
      "price": "3000000000000000000000",
      "assetIds": []
    },
    {
      "x": 114,
      "y": 362,
      "size": 1,
      "price": "3000000000000000000000",
      "assetIds": []
    },
    {
      "x": 114,
      "y": 361,
      "size": 1,
      "price": "3000000000000000000000",
      "reserved": "0x7a9fe22691c811ea339d9b73150e6911a5343dca",
      "assetIds": []
    },
    {
      "x": 115,
      "y": 360,
      "size": 1,
      "price": "3000000000000000000000",
      "assetIds": []
    },
    {
      "x": 115,
      "y": 359,
      "size": 1,
      "price": "3000000000000000000000",
      "assetIds": []
    },
    {
      "x": 116,
      "y": 359,
      "size": 1,
      "price": "3000000000000000000000",
      "reserved": "0x7a9fe22691c811ea339d9b73150e6911a5343dca",
      "assetIds": []
    },
    {
      "x": 117,
      "y": 360,
      "size": 1,
      "price": "3000000000000000000000",
      "assetIds": []
    },
    {
      "x": 117,
      "y": 361,
      "size": 1,
      "price": "3000000000000000000000",
      "assetIds": []
    },
    {
      "x": 116,
      "y": 364,
      "size": 1,
      "price": "3000000000000000000000",
      "assetIds": []
    },
    {
      "x": 115,
      "y": 364,
      "size": 1,
      "price": "3000000000000000000000",
      "reserved": "0x7a9fe22691c811ea339d9b73150e6911a5343dca",
      "assetIds": []
    },
    {
      "x": 115,
      "y": 363,
      "size": 1,
      "price": "3000000000000000000000",
      "assetIds": []
    },
    {
      "x": 115,
      "y": 362,
      "size": 1,
      "price": "3000000000000000000000",
      "assetIds": []
    },
    {
      "x": 115,
      "y": 361,
      "size": 1,
      "price": "3000000000000000000000",
      "assetIds": []
    },
    {
      "x": 116,
      "y": 360,
      "size": 1,
      "price": "3000000000000000000000",
      "assetIds": []
    },
    {
      "x": 116,
      "y": 361,
      "size": 1,
      "price": "3000000000000000000000",
      "assetIds": []
    },
    {
      "x": 116,
      "y": 363,
      "size": 1,
      "price": "3000000000000000000000",
      "assetIds": []
    },
    {
      "x": 116,
      "y": 365,
      "size": 1,
      "price": "3000000000000000000000",
      "assetIds": []
    },
    {
      "x": 117,
      "y": 362,
      "size": 1,
      "price": "3000000000000000000000",
      "reserved": "0x7a9fe22691c811ea339d9b73150e6911a5343dca",
      "assetIds": []
    },
    {
      "x": 116,
      "y": 362,
      "size": 1,
      "price": "3000000000000000000000",
      "assetIds": []
    },
    {
      "x": 118,
      "y": 362,
      "size": 1,
      "price": "3000000000000000000000",
      "assetIds": []
    },
    {
      "x": 118,
      "y": 361,
      "size": 1,
      "price": "3000000000000000000000",
      "assetIds": []
    },
    {
      "x": 119,
      "y": 361,
      "size": 1,
      "price": "3000000000000000000000",
      "assetIds": []
    },
    {
      "x": 119,
      "y": 360,
      "size": 1,
      "price": "3000000000000000000000",
      "assetIds": []
    },
    {
      "x": 118,
      "y": 360,
      "size": 1,
      "price": "3000000000000000000000",
      "assetIds": []
    },
    {
      "x": 119,
      "y": 362,
      "size": 1,
      "price": "3000000000000000000000",
      "assetIds": []
    },
    {
      "x": 116,
      "y": 358,
      "size": 1,
      "price": "3000000000000000000000",
      "assetIds": []
    },
    {
      "x": 116,
      "y": 357,
      "size": 1,
      "price": "3000000000000000000000",
      "assetIds": []
    },
    {
      "x": 114,
      "y": 357,
      "size": 1,
      "price": "3000000000000000000000",
      "reserved": "0x7a9fe22691c811ea339d9b73150e6911a5343dca",
      "assetIds": []
    },
    {
      "x": 114,
      "y": 358,
      "size": 1,
      "price": "3000000000000000000000",
      "assetIds": []
    },
    {
      "x": 114,
      "y": 359,
      "size": 1,
      "price": "3000000000000000000000",
      "assetIds": []
    },
    {
      "x": 114,
      "y": 360,
      "size": 1,
      "price": "3000000000000000000000",
      "assetIds": []
    },
    {
      "x": 115,
      "y": 358,
      "size": 1,
      "price": "3000000000000000000000",
      "assetIds": []
    },
    {
      "x": 115,
      "y": 357,
      "size": 1,
      "price": "3000000000000000000000",
      "assetIds": []
    },
    {
      "x": 110,
      "y": 362,
      "size": 1,
      "price": "3000000000000000000000",
      "assetIds": []
    },
    {
      "x": 109,
      "y": 362,
      "size": 1,
      "price": "3000000000000000000000",
      "assetIds": []
    },
    {
      "x": 108,
      "y": 362,
      "size": 1,
      "price": "3000000000000000000000",
      "assetIds": []
    },
    {
      "x": 108,
      "y": 361,
      "size": 1,
      "price": "3000000000000000000000",
      "assetIds": []
    },
    {
      "x": 108,
      "y": 360,
      "size": 1,
      "price": "3000000000000000000000",
      "assetIds": []
    },
    {
      "x": 109,
      "y": 360,
      "size": 1,
      "price": "3000000000000000000000",
      "assetIds": []
    },
    {
      "x": 110,
      "y": 361,
      "size": 1,
      "price": "3000000000000000000000",
      "reserved": "0x7a9fe22691c811ea339d9b73150e6911a5343dca",
      "assetIds": []
    },
    {
      "x": 109,
      "y": 361,
      "size": 1,
      "price": "3000000000000000000000",
      "assetIds": []
    },
    {
      "x": 110,
      "y": 360,
      "size": 1,
      "price": "3000000000000000000000",
      "assetIds": []
    },
    {
      "x": 107,
      "y": 359,
      "size": 1,
      "price": "3000000000000000000000",
      "reserved": "0x7a9fe22691c811ea339d9b73150e6911a5343dca",
      "assetIds": []
    },
    {
      "x": 106,
      "y": 359,
      "size": 1,
      "price": "3000000000000000000000",
      "assetIds": []
    },
    {
      "x": 105,
      "y": 359,
      "size": 1,
      "price": "3000000000000000000000",
      "assetIds": []
    },
    {
      "x": 105,
      "y": 357,
      "size": 1,
      "price": "3000000000000000000000",
      "assetIds": []
    },
    {
      "x": 106,
      "y": 357,
      "size": 1,
      "price": "3000000000000000000000",
      "assetIds": []
    },
    {
      "x": 107,
      "y": 357,
      "size": 1,
      "price": "3000000000000000000000",
      "assetIds": []
    },
    {
      "x": 105,
      "y": 358,
      "size": 1,
      "price": "3000000000000000000000",
      "assetIds": []
    },
    {
      "x": 107,
      "y": 358,
      "size": 1,
      "price": "3000000000000000000000",
      "assetIds": []
    },
    {
      "x": 106,
      "y": 358,
      "size": 1,
      "price": "3000000000000000000000",
      "assetIds": []
    },
    {
      "x": 95,
      "y": 358,
      "size": 1,
      "price": "3000000000000000000000",
      "reserved": "0x7a9fe22691c811ea339d9b73150e6911a5343dca",
      "assetIds": []
    },
    {
      "x": 94,
      "y": 358,
      "size": 1,
      "price": "3000000000000000000000",
      "assetIds": []
    },
    {
      "x": 93,
      "y": 358,
      "size": 1,
      "price": "3000000000000000000000",
      "assetIds": []
    },
    {
      "x": 93,
      "y": 359,
      "size": 1,
      "price": "3000000000000000000000",
      "assetIds": []
    },
    {
      "x": 94,
      "y": 359,
      "size": 1,
      "price": "3000000000000000000000",
      "assetIds": []
    },
    {
      "x": 95,
      "y": 359,
      "size": 1,
      "price": "3000000000000000000000",
      "assetIds": []
    },
    {
      "x": 93,
      "y": 357,
      "size": 1,
      "price": "3000000000000000000000",
      "assetIds": []
    },
    {
      "x": 94,
      "y": 357,
      "size": 1,
      "price": "3000000000000000000000",
      "assetIds": []
    },
    {
      "x": 95,
      "y": 357,
      "size": 1,
      "price": "3000000000000000000000",
      "assetIds": []
    },
    {
      "x": 106,
      "y": 356,
      "size": 1,
      "price": "3000000000000000000000",
      "assetIds": []
    },
    {
      "x": 107,
      "y": 356,
      "size": 1,
      "price": "3000000000000000000000",
      "assetIds": []
    },
    {
      "x": 111,
      "y": 356,
      "size": 1,
      "price": "3000000000000000000000",
      "assetIds": []
    },
    {
      "x": 112,
      "y": 356,
      "size": 1,
      "price": "3000000000000000000000",
      "assetIds": []
    },
    {
      "x": 113,
      "y": 355,
      "size": 1,
      "price": "3000000000000000000000",
      "assetIds": []
    },
    {
      "x": 105,
      "y": 356,
      "size": 1,
      "price": "3000000000000000000000",
      "reserved": "0x7a9fe22691c811ea339d9b73150e6911a5343dca",
      "assetIds": []
    },
    {
      "x": 104,
      "y": 353,
      "size": 1,
      "price": "3000000000000000000000",
      "assetIds": []
    },
    {
      "x": 105,
      "y": 353,
      "size": 1,
      "price": "3000000000000000000000",
      "assetIds": []
    },
    {
      "x": 106,
      "y": 353,
      "size": 1,
      "price": "3000000000000000000000",
      "assetIds": []
    },
    {
      "x": 107,
      "y": 353,
      "size": 1,
      "price": "3000000000000000000000",
      "assetIds": []
    },
    {
      "x": 107,
      "y": 355,
      "size": 1,
      "price": "3000000000000000000000",
      "assetIds": []
    },
    {
      "x": 106,
      "y": 355,
      "size": 1,
      "price": "3000000000000000000000",
      "assetIds": []
    },
    {
      "x": 105,
      "y": 354,
      "size": 1,
      "price": "3000000000000000000000",
      "assetIds": []
    },
    {
      "x": 106,
      "y": 354,
      "size": 1,
      "price": "3000000000000000000000",
      "assetIds": []
    },
    {
      "x": 107,
      "y": 354,
      "size": 1,
      "price": "3000000000000000000000",
      "reserved": "0x7a9fe22691c811ea339d9b73150e6911a5343dca",
      "assetIds": []
    },
    {
      "x": 105,
      "y": 355,
      "size": 1,
      "price": "3000000000000000000000",
      "assetIds": []
    },
    {
      "x": 111,
      "y": 355,
      "size": 1,
      "price": "3000000000000000000000",
      "assetIds": []
    },
    {
      "x": 113,
      "y": 356,
      "size": 1,
      "price": "3000000000000000000000",
      "assetIds": []
    },
    {
      "x": 112,
      "y": 355,
      "size": 1,
      "price": "3000000000000000000000",
      "assetIds": []
    },
    {
      "x": 111,
      "y": 354,
      "size": 1,
      "price": "3000000000000000000000",
      "assetIds": []
    },
    {
      "x": 109,
      "y": 353,
      "size": 1,
      "price": "3000000000000000000000",
      "assetIds": []
    },
    {
      "x": 108,
      "y": 353,
      "size": 1,
      "price": "6950000000000000000000",
      "assetIds": [
        "35541503283276933796147438414694400616078274122459190822474961601238453471232",
        "35541503283276933796147438414694400616078274122459190822474961601238453471233",
        "35541503283276933796147438414694400616078274122459190822474961601238453471234",
        "35541503283276933796147438414694400616078274122459190822474961601238453471240"
      ]
    },
    {
      "x": 110,
      "y": 353,
      "size": 1,
      "price": "3000000000000000000000",
      "assetIds": []
    },
    {
      "x": 111,
      "y": 353,
      "size": 1,
      "price": "3000000000000000000000",
      "assetIds": []
    },
    {
      "x": 112,
      "y": 353,
      "size": 1,
      "price": "6950000000000000000000",
      "assetIds": [
        "35541503283276933796147438414694400616078274122459190822474961601238453471232",
        "35541503283276933796147438414694400616078274122459190822474961601238453471233",
        "35541503283276933796147438414694400616078274122459190822474961601238453471234",
        "35541503283276933796147438414694400616078274122459190822474961601238453471238"
      ]
    },
    {
      "x": 113,
      "y": 353,
      "size": 1,
      "price": "3000000000000000000000",
      "assetIds": []
    },
    {
      "x": 113,
      "y": 354,
      "size": 1,
      "price": "3000000000000000000000",
      "reserved": "0x7a9fe22691c811ea339d9b73150e6911a5343dca",
      "assetIds": []
    },
    {
      "x": 112,
      "y": 354,
      "size": 1,
      "price": "3000000000000000000000",
      "assetIds": []
    },
    {
      "x": 113,
      "y": 352,
      "size": 1,
      "price": "6950000000000000000000",
      "assetIds": [
        "35541503283276933796147438414694400616078274122459190822474961601238453471232",
        "35541503283276933796147438414694400616078274122459190822474961601238453471233",
        "35541503283276933796147438414694400616078274122459190822474961601238453471234",
        "35541503283276933796147438414694400616078274122459190822474961601238453471235"
      ]
    },
    {
      "x": 114,
      "y": 352,
      "size": 1,
      "price": "3000000000000000000000",
      "reserved": "0x7a9fe22691c811ea339d9b73150e6911a5343dca",
      "assetIds": []
    },
    {
      "x": 115,
      "y": 353,
      "size": 1,
      "price": "3000000000000000000000",
      "assetIds": []
    },
    {
      "x": 116,
      "y": 353,
      "size": 1,
      "price": "6950000000000000000000",
      "assetIds": [
        "35541503283276933796147438414694400616078274122459190822474961601238453471232",
        "35541503283276933796147438414694400616078274122459190822474961601238453471233",
        "35541503283276933796147438414694400616078274122459190822474961601238453471234",
        "35541503283276933796147438414694400616078274122459190822474961601238453471239"
      ]
    },
    {
      "x": 117,
      "y": 353,
      "size": 1,
      "price": "3000000000000000000000",
      "assetIds": []
    },
    {
      "x": 118,
      "y": 353,
      "size": 1,
      "price": "3000000000000000000000",
      "reserved": "0x7a9fe22691c811ea339d9b73150e6911a5343dca",
      "assetIds": []
    },
    {
      "x": 119,
      "y": 353,
      "size": 1,
      "price": "3000000000000000000000",
      "assetIds": []
    },
    {
      "x": 114,
      "y": 353,
      "size": 1,
      "price": "3000000000000000000000",
      "assetIds": []
    },
    {
      "x": 103,
      "y": 353,
      "size": 1,
      "price": "3000000000000000000000",
      "assetIds": []
    },
    {
      "x": 92,
      "y": 356,
      "size": 1,
      "price": "3000000000000000000000",
      "assetIds": []
    },
    {
      "x": 91,
      "y": 356,
      "size": 1,
      "price": "3000000000000000000000",
      "assetIds": []
    },
    {
      "x": 90,
      "y": 356,
      "size": 1,
      "price": "3000000000000000000000",
      "assetIds": []
    },
    {
      "x": 90,
      "y": 353,
      "size": 1,
      "price": "3000000000000000000000",
      "assetIds": []
    },
    {
      "x": 91,
      "y": 353,
      "size": 1,
      "price": "3000000000000000000000",
      "assetIds": []
    },
    {
      "x": 92,
      "y": 353,
      "size": 1,
      "price": "3000000000000000000000",
      "assetIds": []
    },
    {
      "x": 92,
      "y": 355,
      "size": 1,
      "price": "3000000000000000000000",
      "assetIds": []
    },
    {
      "x": 91,
      "y": 355,
      "size": 1,
      "price": "3000000000000000000000",
      "assetIds": []
    },
    {
      "x": 90,
      "y": 355,
      "size": 1,
      "price": "3000000000000000000000",
      "assetIds": []
    },
    {
      "x": 90,
      "y": 354,
      "size": 1,
      "price": "3000000000000000000000",
      "assetIds": []
    },
    {
      "x": 91,
      "y": 354,
      "size": 1,
      "price": "3000000000000000000000",
      "assetIds": []
    },
    {
      "x": 92,
      "y": 354,
      "size": 1,
      "price": "3000000000000000000000",
      "reserved": "0x7a9fe22691c811ea339d9b73150e6911a5343dca",
      "assetIds": []
    },
    {
      "x": 90,
      "y": 351,
      "size": 1,
      "price": "3000000000000000000000",
      "assetIds": []
    },
    {
      "x": 91,
      "y": 351,
      "size": 1,
      "price": "3000000000000000000000",
      "assetIds": []
    },
    {
      "x": 92,
      "y": 351,
      "size": 1,
      "price": "3000000000000000000000",
      "assetIds": []
    },
    {
      "x": 92,
      "y": 352,
      "size": 1,
      "price": "3000000000000000000000",
      "assetIds": []
    },
    {
      "x": 91,
      "y": 352,
      "size": 1,
      "price": "3000000000000000000000",
      "assetIds": []
    },
    {
      "x": 90,
      "y": 352,
      "size": 1,
      "price": "3000000000000000000000",
      "reserved": "0x7a9fe22691c811ea339d9b73150e6911a5343dca",
      "assetIds": []
    },
    {
      "x": 102,
      "y": 351,
      "size": 1,
      "price": "3000000000000000000000",
      "assetIds": []
    },
    {
      "x": 103,
      "y": 351,
      "size": 1,
      "price": "3000000000000000000000",
      "assetIds": []
    },
    {
      "x": 103,
      "y": 352,
      "size": 1,
      "price": "3000000000000000000000",
      "assetIds": []
    },
    {
      "x": 102,
      "y": 353,
      "size": 1,
      "price": "3000000000000000000000",
      "reserved": "0x7a9fe22691c811ea339d9b73150e6911a5343dca",
      "assetIds": []
    },
    {
      "x": 101,
      "y": 353,
      "size": 1,
      "price": "3000000000000000000000",
      "assetIds": []
    },
    {
      "x": 100,
      "y": 352,
      "size": 1,
      "price": "3000000000000000000000",
      "assetIds": []
    },
    {
      "x": 100,
      "y": 351,
      "size": 1,
      "price": "3000000000000000000000",
      "assetIds": []
    },
    {
      "x": 101,
      "y": 351,
      "size": 1,
      "price": "3000000000000000000000",
      "assetIds": []
    },
    {
      "x": 101,
      "y": 352,
      "size": 1,
      "price": "3000000000000000000000",
      "assetIds": []
    },
    {
      "x": 100,
      "y": 353,
      "size": 1,
      "price": "3000000000000000000000",
      "assetIds": []
    },
    {
      "x": 99,
      "y": 353,
      "size": 1,
      "price": "3000000000000000000000",
      "assetIds": []
    },
    {
      "x": 99,
      "y": 352,
      "size": 1,
      "price": "3000000000000000000000",
      "assetIds": []
    },
    {
      "x": 99,
      "y": 351,
      "size": 1,
      "price": "3000000000000000000000",
      "reserved": "0x7a9fe22691c811ea339d9b73150e6911a5343dca",
      "assetIds": []
    },
    {
      "x": 104,
      "y": 352,
      "size": 1,
      "price": "3000000000000000000000",
      "assetIds": []
    },
    {
      "x": 102,
      "y": 350,
      "size": 1,
      "price": "3000000000000000000000",
      "assetIds": []
    },
    {
      "x": 102,
      "y": 349,
      "size": 1,
      "price": "3000000000000000000000",
      "assetIds": []
    },
    {
      "x": 103,
      "y": 349,
      "size": 1,
      "price": "6950000000000000000000",
      "assetIds": [
        "35541503283276933796147438414694400616078274122459190822474961601238453471232",
        "35541503283276933796147438414694400616078274122459190822474961601238453471233",
        "35541503283276933796147438414694400616078274122459190822474961601238453471234",
        "35541503283276933796147438414694400616078274122459190822474961601238453471235"
      ]
    },
    {
      "x": 104,
      "y": 350,
      "size": 1,
      "price": "3000000000000000000000",
      "reserved": "0x7a9fe22691c811ea339d9b73150e6911a5343dca",
      "assetIds": []
    },
    {
      "x": 102,
      "y": 352,
      "size": 1,
      "price": "3000000000000000000000",
      "assetIds": []
    },
    {
      "x": 103,
      "y": 350,
      "size": 1,
      "price": "3000000000000000000000",
      "assetIds": []
    },
    {
      "x": 104,
      "y": 349,
      "size": 1,
      "price": "6950000000000000000000",
      "assetIds": [
        "35541503283276933796147438414694400616078274122459190822474961601238453471232",
        "35541503283276933796147438414694400616078274122459190822474961601238453471233",
        "35541503283276933796147438414694400616078274122459190822474961601238453471234",
        "35541503283276933796147438414694400616078274122459190822474961601238453471237"
      ]
    },
    {
      "x": 105,
      "y": 349,
      "size": 1,
      "price": "6950000000000000000000",
      "assetIds": [
        "35541503283276933796147438414694400616078274122459190822474961601238453471232",
        "35541503283276933796147438414694400616078274122459190822474961601238453471233",
        "35541503283276933796147438414694400616078274122459190822474961601238453471234",
        "35541503283276933796147438414694400616078274122459190822474961601238453471239"
      ]
    },
    {
      "x": 106,
      "y": 349,
      "size": 1,
      "price": "6950000000000000000000",
      "assetIds": [
        "35541503283276933796147438414694400616078274122459190822474961601238453471232",
        "35541503283276933796147438414694400616078274122459190822474961601238453471233",
        "35541503283276933796147438414694400616078274122459190822474961601238453471234",
        "35541503283276933796147438414694400616078274122459190822474961601238453471240"
      ]
    },
    {
      "x": 108,
      "y": 350,
      "size": 1,
      "price": "6950000000000000000000",
      "assetIds": [
        "35541503283276933796147438414694400616078274122459190822474961601238453471232",
        "35541503283276933796147438414694400616078274122459190822474961601238453471233",
        "35541503283276933796147438414694400616078274122459190822474961601238453471234",
        "35541503283276933796147438414694400616078274122459190822474961601238453471239"
      ]
    },
    {
      "x": 109,
      "y": 350,
      "size": 1,
      "price": "6950000000000000000000",
      "assetIds": [
        "35541503283276933796147438414694400616078274122459190822474961601238453471232",
        "35541503283276933796147438414694400616078274122459190822474961601238453471233",
        "35541503283276933796147438414694400616078274122459190822474961601238453471234",
        "35541503283276933796147438414694400616078274122459190822474961601238453471240"
      ]
    },
    {
      "x": 109,
      "y": 351,
      "size": 1,
      "price": "6950000000000000000000",
      "assetIds": [
        "35541503283276933796147438414694400616078274122459190822474961601238453471232",
        "35541503283276933796147438414694400616078274122459190822474961601238453471233",
        "35541503283276933796147438414694400616078274122459190822474961601238453471234",
        "35541503283276933796147438414694400616078274122459190822474961601238453471236"
      ]
    },
    {
      "x": 110,
      "y": 351,
      "size": 1,
      "price": "6950000000000000000000",
      "assetIds": [
        "35541503283276933796147438414694400616078274122459190822474961601238453471232",
        "35541503283276933796147438414694400616078274122459190822474961601238453471233",
        "35541503283276933796147438414694400616078274122459190822474961601238453471234",
        "35541503283276933796147438414694400616078274122459190822474961601238453471235"
      ]
    },
    {
      "x": 111,
      "y": 351,
      "size": 1,
      "price": "6950000000000000000000",
      "assetIds": [
        "35541503283276933796147438414694400616078274122459190822474961601238453471232",
        "35541503283276933796147438414694400616078274122459190822474961601238453471233",
        "35541503283276933796147438414694400616078274122459190822474961601238453471234",
        "35541503283276933796147438414694400616078274122459190822474961601238453471239"
      ]
    },
    {
      "x": 112,
      "y": 351,
      "size": 1,
      "price": "6950000000000000000000",
      "assetIds": [
        "35541503283276933796147438414694400616078274122459190822474961601238453471232",
        "35541503283276933796147438414694400616078274122459190822474961601238453471233",
        "35541503283276933796147438414694400616078274122459190822474961601238453471234",
        "35541503283276933796147438414694400616078274122459190822474961601238453471239"
      ]
    },
    {
      "x": 113,
      "y": 351,
      "size": 1,
      "price": "6950000000000000000000",
      "assetIds": [
        "35541503283276933796147438414694400616078274122459190822474961601238453471232",
        "35541503283276933796147438414694400616078274122459190822474961601238453471233",
        "35541503283276933796147438414694400616078274122459190822474961601238453471234",
        "35541503283276933796147438414694400616078274122459190822474961601238453471240"
      ]
    },
    {
      "x": 114,
      "y": 351,
      "size": 1,
      "price": "6950000000000000000000",
      "assetIds": [
        "35541503283276933796147438414694400616078274122459190822474961601238453471232",
        "35541503283276933796147438414694400616078274122459190822474961601238453471233",
        "35541503283276933796147438414694400616078274122459190822474961601238453471234",
        "35541503283276933796147438414694400616078274122459190822474961601238453471238"
      ]
    },
    {
      "x": 115,
      "y": 351,
      "size": 1,
      "price": "6950000000000000000000",
      "assetIds": [
        "35541503283276933796147438414694400616078274122459190822474961601238453471232",
        "35541503283276933796147438414694400616078274122459190822474961601238453471233",
        "35541503283276933796147438414694400616078274122459190822474961601238453471234",
        "35541503283276933796147438414694400616078274122459190822474961601238453471240"
      ]
    },
    {
      "x": 116,
      "y": 351,
      "size": 1,
      "price": "6950000000000000000000",
      "assetIds": [
        "35541503283276933796147438414694400616078274122459190822474961601238453471232",
        "35541503283276933796147438414694400616078274122459190822474961601238453471233",
        "35541503283276933796147438414694400616078274122459190822474961601238453471234",
        "35541503283276933796147438414694400616078274122459190822474961601238453471236"
      ]
    },
    {
      "x": 116,
      "y": 350,
      "size": 1,
      "price": "6950000000000000000000",
      "assetIds": [
        "35541503283276933796147438414694400616078274122459190822474961601238453471232",
        "35541503283276933796147438414694400616078274122459190822474961601238453471233",
        "35541503283276933796147438414694400616078274122459190822474961601238453471234",
        "35541503283276933796147438414694400616078274122459190822474961601238453471238"
      ]
    },
    {
      "x": 117,
      "y": 350,
      "size": 1,
      "price": "6950000000000000000000",
      "assetIds": [
        "35541503283276933796147438414694400616078274122459190822474961601238453471232",
        "35541503283276933796147438414694400616078274122459190822474961601238453471233",
        "35541503283276933796147438414694400616078274122459190822474961601238453471234",
        "35541503283276933796147438414694400616078274122459190822474961601238453471236"
      ]
    },
    {
      "x": 118,
      "y": 350,
      "size": 1,
      "price": "6950000000000000000000",
      "assetIds": [
        "35541503283276933796147438414694400616078274122459190822474961601238453471232",
        "35541503283276933796147438414694400616078274122459190822474961601238453471233",
        "35541503283276933796147438414694400616078274122459190822474961601238453471234",
        "35541503283276933796147438414694400616078274122459190822474961601238453471236"
      ]
    },
    {
      "x": 119,
      "y": 349,
      "size": 1,
      "price": "6950000000000000000000",
      "assetIds": [
        "35541503283276933796147438414694400616078274122459190822474961601238453471232",
        "35541503283276933796147438414694400616078274122459190822474961601238453471233",
        "35541503283276933796147438414694400616078274122459190822474961601238453471234",
        "35541503283276933796147438414694400616078274122459190822474961601238453471235"
      ]
    },
    {
      "x": 118,
      "y": 349,
      "size": 1,
      "price": "6950000000000000000000",
      "assetIds": [
        "35541503283276933796147438414694400616078274122459190822474961601238453471232",
        "35541503283276933796147438414694400616078274122459190822474961601238453471233",
        "35541503283276933796147438414694400616078274122459190822474961601238453471234",
        "35541503283276933796147438414694400616078274122459190822474961601238453471238"
      ]
    },
    {
      "x": 117,
      "y": 349,
      "size": 1,
      "price": "6950000000000000000000",
      "assetIds": [
        "35541503283276933796147438414694400616078274122459190822474961601238453471232",
        "35541503283276933796147438414694400616078274122459190822474961601238453471233",
        "35541503283276933796147438414694400616078274122459190822474961601238453471234",
        "35541503283276933796147438414694400616078274122459190822474961601238453471235"
      ]
    },
    {
      "x": 119,
      "y": 352,
      "size": 1,
      "price": "6950000000000000000000",
      "assetIds": [
        "35541503283276933796147438414694400616078274122459190822474961601238453471232",
        "35541503283276933796147438414694400616078274122459190822474961601238453471233",
        "35541503283276933796147438414694400616078274122459190822474961601238453471234",
        "35541503283276933796147438414694400616078274122459190822474961601238453471238"
      ]
    },
    {
      "x": 119,
      "y": 351,
      "size": 1,
      "price": "3000000000000000000000",
      "reserved": "0x7a9fe22691c811ea339d9b73150e6911a5343dca",
      "assetIds": []
    },
    {
      "x": 119,
      "y": 350,
      "size": 1,
      "price": "6950000000000000000000",
      "assetIds": [
        "35541503283276933796147438414694400616078274122459190822474961601238453471232",
        "35541503283276933796147438414694400616078274122459190822474961601238453471233",
        "35541503283276933796147438414694400616078274122459190822474961601238453471234",
        "35541503283276933796147438414694400616078274122459190822474961601238453471237"
      ]
    },
    {
      "x": 119,
      "y": 348,
      "size": 1,
      "price": "6950000000000000000000",
      "assetIds": [
        "35541503283276933796147438414694400616078274122459190822474961601238453471232",
        "35541503283276933796147438414694400616078274122459190822474961601238453471233",
        "35541503283276933796147438414694400616078274122459190822474961601238453471234",
        "35541503283276933796147438414694400616078274122459190822474961601238453471240"
      ]
    },
    {
      "x": 117,
      "y": 348,
      "size": 1,
      "price": "6950000000000000000000",
      "assetIds": [
        "35541503283276933796147438414694400616078274122459190822474961601238453471232",
        "35541503283276933796147438414694400616078274122459190822474961601238453471233",
        "35541503283276933796147438414694400616078274122459190822474961601238453471234",
        "35541503283276933796147438414694400616078274122459190822474961601238453471240"
      ]
    },
    {
      "x": 117,
      "y": 351,
      "size": 1,
      "price": "6950000000000000000000",
      "assetIds": [
        "35541503283276933796147438414694400616078274122459190822474961601238453471232",
        "35541503283276933796147438414694400616078274122459190822474961601238453471233",
        "35541503283276933796147438414694400616078274122459190822474961601238453471234",
        "35541503283276933796147438414694400616078274122459190822474961601238453471237"
      ]
    },
    {
      "x": 117,
      "y": 352,
      "size": 1,
      "price": "6950000000000000000000",
      "assetIds": [
        "35541503283276933796147438414694400616078274122459190822474961601238453471232",
        "35541503283276933796147438414694400616078274122459190822474961601238453471233",
        "35541503283276933796147438414694400616078274122459190822474961601238453471234",
        "35541503283276933796147438414694400616078274122459190822474961601238453471240"
      ]
    },
    {
      "x": 118,
      "y": 351,
      "size": 1,
      "price": "6950000000000000000000",
      "assetIds": [
        "35541503283276933796147438414694400616078274122459190822474961601238453471232",
        "35541503283276933796147438414694400616078274122459190822474961601238453471233",
        "35541503283276933796147438414694400616078274122459190822474961601238453471234",
        "35541503283276933796147438414694400616078274122459190822474961601238453471235"
      ]
    },
    {
      "x": 118,
      "y": 348,
      "size": 1,
      "price": "6950000000000000000000",
      "assetIds": [
        "35541503283276933796147438414694400616078274122459190822474961601238453471232",
        "35541503283276933796147438414694400616078274122459190822474961601238453471233",
        "35541503283276933796147438414694400616078274122459190822474961601238453471234",
        "35541503283276933796147438414694400616078274122459190822474961601238453471238"
      ]
    },
    {
      "x": 118,
      "y": 352,
      "size": 1,
      "price": "6950000000000000000000",
      "assetIds": [
        "35541503283276933796147438414694400616078274122459190822474961601238453471232",
        "35541503283276933796147438414694400616078274122459190822474961601238453471233",
        "35541503283276933796147438414694400616078274122459190822474961601238453471234",
        "35541503283276933796147438414694400616078274122459190822474961601238453471235"
      ]
    },
    {
      "x": 116,
      "y": 352,
      "size": 1,
      "price": "6950000000000000000000",
      "assetIds": [
        "35541503283276933796147438414694400616078274122459190822474961601238453471232",
        "35541503283276933796147438414694400616078274122459190822474961601238453471233",
        "35541503283276933796147438414694400616078274122459190822474961601238453471234",
        "35541503283276933796147438414694400616078274122459190822474961601238453471237"
      ]
    },
    {
      "x": 115,
      "y": 352,
      "size": 1,
      "price": "6950000000000000000000",
      "assetIds": [
        "35541503283276933796147438414694400616078274122459190822474961601238453471232",
        "35541503283276933796147438414694400616078274122459190822474961601238453471233",
        "35541503283276933796147438414694400616078274122459190822474961601238453471234",
        "35541503283276933796147438414694400616078274122459190822474961601238453471236"
      ]
    },
    {
      "x": 114,
      "y": 350,
      "size": 1,
      "price": "6950000000000000000000",
      "assetIds": [
        "35541503283276933796147438414694400616078274122459190822474961601238453471232",
        "35541503283276933796147438414694400616078274122459190822474961601238453471233",
        "35541503283276933796147438414694400616078274122459190822474961601238453471234",
        "35541503283276933796147438414694400616078274122459190822474961601238453471238"
      ]
    },
    {
      "x": 114,
      "y": 349,
      "size": 1,
      "price": "6950000000000000000000",
      "assetIds": [
        "35541503283276933796147438414694400616078274122459190822474961601238453471232",
        "35541503283276933796147438414694400616078274122459190822474961601238453471233",
        "35541503283276933796147438414694400616078274122459190822474961601238453471234",
        "35541503283276933796147438414694400616078274122459190822474961601238453471236"
      ]
    },
    {
      "x": 115,
      "y": 349,
      "size": 1,
      "price": "6950000000000000000000",
      "assetIds": [
        "35541503283276933796147438414694400616078274122459190822474961601238453471232",
        "35541503283276933796147438414694400616078274122459190822474961601238453471233",
        "35541503283276933796147438414694400616078274122459190822474961601238453471234",
        "35541503283276933796147438414694400616078274122459190822474961601238453471240"
      ]
    },
    {
      "x": 116,
      "y": 349,
      "size": 1,
      "price": "3000000000000000000000",
      "reserved": "0x7a9fe22691c811ea339d9b73150e6911a5343dca",
      "assetIds": []
    },
    {
      "x": 115,
      "y": 350,
      "size": 1,
      "price": "6950000000000000000000",
      "assetIds": [
        "35541503283276933796147438414694400616078274122459190822474961601238453471232",
        "35541503283276933796147438414694400616078274122459190822474961601238453471233",
        "35541503283276933796147438414694400616078274122459190822474961601238453471234",
        "35541503283276933796147438414694400616078274122459190822474961601238453471238"
      ]
    },
    {
      "x": 115,
      "y": 348,
      "size": 1,
      "price": "6950000000000000000000",
      "assetIds": [
        "35541503283276933796147438414694400616078274122459190822474961601238453471232",
        "35541503283276933796147438414694400616078274122459190822474961601238453471233",
        "35541503283276933796147438414694400616078274122459190822474961601238453471234",
        "35541503283276933796147438414694400616078274122459190822474961601238453471238"
      ]
    },
    {
      "x": 116,
      "y": 348,
      "size": 1,
      "price": "6950000000000000000000",
      "assetIds": [
        "35541503283276933796147438414694400616078274122459190822474961601238453471232",
        "35541503283276933796147438414694400616078274122459190822474961601238453471233",
        "35541503283276933796147438414694400616078274122459190822474961601238453471234",
        "35541503283276933796147438414694400616078274122459190822474961601238453471240"
      ]
    },
    {
      "x": 113,
      "y": 350,
      "size": 1,
      "price": "6950000000000000000000",
      "assetIds": [
        "35541503283276933796147438414694400616078274122459190822474961601238453471232",
        "35541503283276933796147438414694400616078274122459190822474961601238453471233",
        "35541503283276933796147438414694400616078274122459190822474961601238453471234",
        "35541503283276933796147438414694400616078274122459190822474961601238453471240"
      ]
    },
    {
      "x": 113,
      "y": 349,
      "size": 1,
      "price": "6950000000000000000000",
      "assetIds": [
        "35541503283276933796147438414694400616078274122459190822474961601238453471232",
        "35541503283276933796147438414694400616078274122459190822474961601238453471233",
        "35541503283276933796147438414694400616078274122459190822474961601238453471234",
        "35541503283276933796147438414694400616078274122459190822474961601238453471237"
      ]
    },
    {
      "x": 112,
      "y": 349,
      "size": 1,
      "price": "6950000000000000000000",
      "assetIds": [
        "35541503283276933796147438414694400616078274122459190822474961601238453471232",
        "35541503283276933796147438414694400616078274122459190822474961601238453471233",
        "35541503283276933796147438414694400616078274122459190822474961601238453471234",
        "35541503283276933796147438414694400616078274122459190822474961601238453471238"
      ]
    },
    {
      "x": 112,
      "y": 348,
      "size": 1,
      "price": "6950000000000000000000",
      "assetIds": [
        "35541503283276933796147438414694400616078274122459190822474961601238453471232",
        "35541503283276933796147438414694400616078274122459190822474961601238453471233",
        "35541503283276933796147438414694400616078274122459190822474961601238453471234",
        "35541503283276933796147438414694400616078274122459190822474961601238453471235"
      ]
    },
    {
      "x": 113,
      "y": 348,
      "size": 1,
      "price": "6950000000000000000000",
      "assetIds": [
        "35541503283276933796147438414694400616078274122459190822474961601238453471232",
        "35541503283276933796147438414694400616078274122459190822474961601238453471233",
        "35541503283276933796147438414694400616078274122459190822474961601238453471234",
        "35541503283276933796147438414694400616078274122459190822474961601238453471240"
      ]
    },
    {
      "x": 114,
      "y": 348,
      "size": 1,
      "price": "6950000000000000000000",
      "assetIds": [
        "35541503283276933796147438414694400616078274122459190822474961601238453471232",
        "35541503283276933796147438414694400616078274122459190822474961601238453471233",
        "35541503283276933796147438414694400616078274122459190822474961601238453471234",
        "35541503283276933796147438414694400616078274122459190822474961601238453471240"
      ]
    },
    {
      "x": 112,
      "y": 352,
      "size": 1,
      "price": "6950000000000000000000",
      "assetIds": [
        "35541503283276933796147438414694400616078274122459190822474961601238453471232",
        "35541503283276933796147438414694400616078274122459190822474961601238453471233",
        "35541503283276933796147438414694400616078274122459190822474961601238453471234",
        "35541503283276933796147438414694400616078274122459190822474961601238453471240"
      ]
    },
    {
      "x": 111,
      "y": 350,
      "size": 1,
      "price": "3000000000000000000000",
      "reserved": "0x7a9fe22691c811ea339d9b73150e6911a5343dca",
      "assetIds": []
    },
    {
      "x": 111,
      "y": 352,
      "size": 1,
      "price": "6950000000000000000000",
      "assetIds": [
        "35541503283276933796147438414694400616078274122459190822474961601238453471232",
        "35541503283276933796147438414694400616078274122459190822474961601238453471233",
        "35541503283276933796147438414694400616078274122459190822474961601238453471234",
        "35541503283276933796147438414694400616078274122459190822474961601238453471238"
      ]
    },
    {
      "x": 110,
      "y": 350,
      "size": 1,
      "price": "6950000000000000000000",
      "assetIds": [
        "35541503283276933796147438414694400616078274122459190822474961601238453471232",
        "35541503283276933796147438414694400616078274122459190822474961601238453471233",
        "35541503283276933796147438414694400616078274122459190822474961601238453471234",
        "35541503283276933796147438414694400616078274122459190822474961601238453471236"
      ]
    },
    {
      "x": 112,
      "y": 350,
      "size": 1,
      "price": "6950000000000000000000",
      "assetIds": [
        "35541503283276933796147438414694400616078274122459190822474961601238453471232",
        "35541503283276933796147438414694400616078274122459190822474961601238453471233",
        "35541503283276933796147438414694400616078274122459190822474961601238453471234",
        "35541503283276933796147438414694400616078274122459190822474961601238453471239"
      ]
    },
    {
      "x": 107,
      "y": 351,
      "size": 1,
      "price": "3000000000000000000000",
      "reserved": "0x7a9fe22691c811ea339d9b73150e6911a5343dca",
      "assetIds": []
    },
    {
      "x": 106,
      "y": 351,
      "size": 1,
      "price": "6950000000000000000000",
      "assetIds": [
        "35541503283276933796147438414694400616078274122459190822474961601238453471232",
        "35541503283276933796147438414694400616078274122459190822474961601238453471233",
        "35541503283276933796147438414694400616078274122459190822474961601238453471234",
        "35541503283276933796147438414694400616078274122459190822474961601238453471240"
      ]
    },
    {
      "x": 105,
      "y": 351,
      "size": 1,
      "price": "6950000000000000000000",
      "assetIds": [
        "35541503283276933796147438414694400616078274122459190822474961601238453471232",
        "35541503283276933796147438414694400616078274122459190822474961601238453471233",
        "35541503283276933796147438414694400616078274122459190822474961601238453471234",
        "35541503283276933796147438414694400616078274122459190822474961601238453471237"
      ]
    },
    {
      "x": 106,
      "y": 350,
      "size": 1,
      "price": "6950000000000000000000",
      "assetIds": [
        "35541503283276933796147438414694400616078274122459190822474961601238453471232",
        "35541503283276933796147438414694400616078274122459190822474961601238453471233",
        "35541503283276933796147438414694400616078274122459190822474961601238453471234",
        "35541503283276933796147438414694400616078274122459190822474961601238453471236"
      ]
    },
    {
      "x": 107,
      "y": 349,
      "size": 1,
      "price": "6950000000000000000000",
      "assetIds": [
        "35541503283276933796147438414694400616078274122459190822474961601238453471232",
        "35541503283276933796147438414694400616078274122459190822474961601238453471233",
        "35541503283276933796147438414694400616078274122459190822474961601238453471234",
        "35541503283276933796147438414694400616078274122459190822474961601238453471238"
      ]
    },
    {
      "x": 108,
      "y": 349,
      "size": 1,
      "price": "6950000000000000000000",
      "assetIds": [
        "35541503283276933796147438414694400616078274122459190822474961601238453471232",
        "35541503283276933796147438414694400616078274122459190822474961601238453471233",
        "35541503283276933796147438414694400616078274122459190822474961601238453471234",
        "35541503283276933796147438414694400616078274122459190822474961601238453471236"
      ]
    },
    {
      "x": 110,
      "y": 352,
      "size": 1,
      "price": "3000000000000000000000",
      "reserved": "0x7a9fe22691c811ea339d9b73150e6911a5343dca",
      "assetIds": []
    },
    {
      "x": 105,
      "y": 352,
      "size": 1,
      "price": "6950000000000000000000",
      "assetIds": [
        "35541503283276933796147438414694400616078274122459190822474961601238453471232",
        "35541503283276933796147438414694400616078274122459190822474961601238453471233",
        "35541503283276933796147438414694400616078274122459190822474961601238453471234",
        "35541503283276933796147438414694400616078274122459190822474961601238453471240"
      ]
    },
    {
      "x": 104,
      "y": 351,
      "size": 1,
      "price": "6950000000000000000000",
      "assetIds": [
        "35541503283276933796147438414694400616078274122459190822474961601238453471232",
        "35541503283276933796147438414694400616078274122459190822474961601238453471233",
        "35541503283276933796147438414694400616078274122459190822474961601238453471234",
        "35541503283276933796147438414694400616078274122459190822474961601238453471239"
      ]
    },
    {
      "x": 105,
      "y": 350,
      "size": 1,
      "price": "6950000000000000000000",
      "assetIds": [
        "35541503283276933796147438414694400616078274122459190822474961601238453471232",
        "35541503283276933796147438414694400616078274122459190822474961601238453471233",
        "35541503283276933796147438414694400616078274122459190822474961601238453471234",
        "35541503283276933796147438414694400616078274122459190822474961601238453471238"
      ]
    },
    {
      "x": 108,
      "y": 351,
      "size": 1,
      "price": "6950000000000000000000",
      "assetIds": [
        "35541503283276933796147438414694400616078274122459190822474961601238453471232",
        "35541503283276933796147438414694400616078274122459190822474961601238453471233",
        "35541503283276933796147438414694400616078274122459190822474961601238453471234",
        "35541503283276933796147438414694400616078274122459190822474961601238453471239"
      ]
    },
    {
      "x": 109,
      "y": 352,
      "size": 1,
      "price": "6950000000000000000000",
      "assetIds": [
        "35541503283276933796147438414694400616078274122459190822474961601238453471232",
        "35541503283276933796147438414694400616078274122459190822474961601238453471233",
        "35541503283276933796147438414694400616078274122459190822474961601238453471234",
        "35541503283276933796147438414694400616078274122459190822474961601238453471240"
      ]
    },
    {
      "x": 108,
      "y": 352,
      "size": 1,
      "price": "6950000000000000000000",
      "assetIds": [
        "35541503283276933796147438414694400616078274122459190822474961601238453471232",
        "35541503283276933796147438414694400616078274122459190822474961601238453471233",
        "35541503283276933796147438414694400616078274122459190822474961601238453471234",
        "35541503283276933796147438414694400616078274122459190822474961601238453471239"
      ]
    },
    {
      "x": 107,
      "y": 352,
      "size": 1,
      "price": "6950000000000000000000",
      "assetIds": [
        "35541503283276933796147438414694400616078274122459190822474961601238453471232",
        "35541503283276933796147438414694400616078274122459190822474961601238453471233",
        "35541503283276933796147438414694400616078274122459190822474961601238453471234",
        "35541503283276933796147438414694400616078274122459190822474961601238453471235"
      ]
    },
    {
      "x": 106,
      "y": 352,
      "size": 1,
      "price": "6950000000000000000000",
      "assetIds": [
        "35541503283276933796147438414694400616078274122459190822474961601238453471232",
        "35541503283276933796147438414694400616078274122459190822474961601238453471233",
        "35541503283276933796147438414694400616078274122459190822474961601238453471234",
        "35541503283276933796147438414694400616078274122459190822474961601238453471237"
      ]
    },
    {
      "x": 107,
      "y": 350,
      "size": 1,
      "price": "6950000000000000000000",
      "assetIds": [
        "35541503283276933796147438414694400616078274122459190822474961601238453471232",
        "35541503283276933796147438414694400616078274122459190822474961601238453471233",
        "35541503283276933796147438414694400616078274122459190822474961601238453471234",
        "35541503283276933796147438414694400616078274122459190822474961601238453471236"
      ]
    },
    {
      "x": 75,
      "y": 358,
      "size": 1,
      "price": "3000000000000000000000",
      "assetIds": []
    },
    {
      "x": 75,
      "y": 359,
      "size": 1,
      "price": "3000000000000000000000",
      "assetIds": []
    },
    {
      "x": 75,
      "y": 357,
      "size": 1,
      "price": "3000000000000000000000",
      "assetIds": []
    },
    {
      "x": 76,
      "y": 357,
      "size": 1,
      "price": "3000000000000000000000",
      "assetIds": []
    },
    {
      "x": 77,
      "y": 357,
      "size": 1,
      "price": "3000000000000000000000",
      "assetIds": []
    },
    {
      "x": 77,
      "y": 359,
      "size": 1,
      "price": "3000000000000000000000",
      "assetIds": []
    },
    {
      "x": 76,
      "y": 359,
      "size": 1,
      "price": "3000000000000000000000",
      "reserved": "0x7a9fe22691c811ea339d9b73150e6911a5343dca",
      "assetIds": []
    },
    {
      "x": 76,
      "y": 358,
      "size": 1,
      "price": "3000000000000000000000",
      "assetIds": []
    },
    {
      "x": 77,
      "y": 358,
      "size": 1,
      "price": "3000000000000000000000",
      "assetIds": []
    },
    {
      "x": 73,
      "y": 356,
      "size": 1,
      "price": "3000000000000000000000",
      "assetIds": []
    },
    {
      "x": 72,
      "y": 356,
      "size": 1,
      "price": "3000000000000000000000",
      "assetIds": []
    },
    {
      "x": 72,
      "y": 355,
      "size": 1,
      "price": "3000000000000000000000",
      "assetIds": []
    },
    {
      "x": 72,
      "y": 354,
      "size": 1,
      "price": "3000000000000000000000",
      "assetIds": []
    },
    {
      "x": 75,
      "y": 353,
      "size": 1,
      "price": "3000000000000000000000",
      "assetIds": []
    },
    {
      "x": 74,
      "y": 355,
      "size": 1,
      "price": "3000000000000000000000",
      "reserved": "0x7a9fe22691c811ea339d9b73150e6911a5343dca",
      "assetIds": []
    },
    {
      "x": 74,
      "y": 354,
      "size": 1,
      "price": "3000000000000000000000",
      "assetIds": []
    },
    {
      "x": 73,
      "y": 354,
      "size": 1,
      "price": "3000000000000000000000",
      "assetIds": []
    },
    {
      "x": 74,
      "y": 356,
      "size": 1,
      "price": "3000000000000000000000",
      "assetIds": []
    },
    {
      "x": 73,
      "y": 350,
      "size": 1,
      "price": "3000000000000000000000",
      "assetIds": []
    },
    {
      "x": 73,
      "y": 349,
      "size": 1,
      "price": "3000000000000000000000",
      "reserved": "0x7a9fe22691c811ea339d9b73150e6911a5343dca",
      "assetIds": []
    },
    {
      "x": 73,
      "y": 348,
      "size": 1,
      "price": "3000000000000000000000",
      "assetIds": []
    },
    {
      "x": 74,
      "y": 348,
      "size": 1,
      "price": "3000000000000000000000",
      "assetIds": []
    },
    {
      "x": 74,
      "y": 349,
      "size": 1,
      "price": "3000000000000000000000",
      "assetIds": []
    },
    {
      "x": 73,
      "y": 355,
      "size": 1,
      "price": "3000000000000000000000",
      "assetIds": []
    },
    {
      "x": 72,
      "y": 349,
      "size": 1,
      "price": "3000000000000000000000",
      "assetIds": []
    },
    {
      "x": 72,
      "y": 348,
      "size": 1,
      "price": "3000000000000000000000",
      "assetIds": []
    },
    {
      "x": 72,
      "y": 350,
      "size": 1,
      "price": "3000000000000000000000",
      "assetIds": []
    },
    {
      "x": 75,
      "y": 351,
      "size": 1,
      "price": "3000000000000000000000",
      "assetIds": []
    },
    {
      "x": 74,
      "y": 350,
      "size": 1,
      "price": "3000000000000000000000",
      "assetIds": []
    },
    {
      "x": 76,
      "y": 352,
      "size": 1,
      "price": "3000000000000000000000",
      "assetIds": []
    },
    {
      "x": 77,
      "y": 353,
      "size": 1,
      "price": "3000000000000000000000",
      "reserved": "0x7a9fe22691c811ea339d9b73150e6911a5343dca",
      "assetIds": []
    },
    {
      "x": 76,
      "y": 353,
      "size": 1,
      "price": "3000000000000000000000",
      "assetIds": []
    },
    {
      "x": 76,
      "y": 351,
      "size": 1,
      "price": "3000000000000000000000",
      "reserved": "0x7a9fe22691c811ea339d9b73150e6911a5343dca",
      "assetIds": []
    },
    {
      "x": 77,
      "y": 352,
      "size": 1,
      "price": "3000000000000000000000",
      "assetIds": []
    },
    {
      "x": 75,
      "y": 352,
      "size": 1,
      "price": "3000000000000000000000",
      "assetIds": []
    },
    {
      "x": 78,
      "y": 349,
      "size": 1,
      "price": "3000000000000000000000",
      "assetIds": []
    },
    {
      "x": 78,
      "y": 350,
      "size": 1,
      "price": "3000000000000000000000",
      "assetIds": []
    },
    {
      "x": 77,
      "y": 351,
      "size": 1,
      "price": "3000000000000000000000",
      "assetIds": []
    },
    {
      "x": 78,
      "y": 348,
      "size": 1,
      "price": "3000000000000000000000",
      "assetIds": []
    },
    {
      "x": 79,
      "y": 349,
      "size": 1,
      "price": "3000000000000000000000",
      "reserved": "0x7a9fe22691c811ea339d9b73150e6911a5343dca",
      "assetIds": []
    },
    {
      "x": 80,
      "y": 350,
      "size": 1,
      "price": "3000000000000000000000",
      "assetIds": []
    },
    {
      "x": 79,
      "y": 350,
      "size": 1,
      "price": "3000000000000000000000",
      "assetIds": []
    },
    {
      "x": 79,
      "y": 348,
      "size": 1,
      "price": "3000000000000000000000",
      "assetIds": []
    },
    {
      "x": 80,
      "y": 348,
      "size": 1,
      "price": "3000000000000000000000",
      "assetIds": []
    },
    {
      "x": 80,
      "y": 349,
      "size": 1,
      "price": "3000000000000000000000",
      "assetIds": []
    },
    {
      "x": 83,
      "y": 351,
      "size": 1,
      "price": "3000000000000000000000",
      "reserved": "0x7a9fe22691c811ea339d9b73150e6911a5343dca",
      "assetIds": []
    },
    {
      "x": 83,
      "y": 353,
      "size": 1,
      "price": "3000000000000000000000",
      "assetIds": []
    },
    {
      "x": 82,
      "y": 352,
      "size": 1,
      "price": "3000000000000000000000",
      "assetIds": []
    },
    {
      "x": 81,
      "y": 352,
      "size": 1,
      "price": "3000000000000000000000",
      "assetIds": []
    },
    {
      "x": 81,
      "y": 351,
      "size": 1,
      "price": "3000000000000000000000",
      "assetIds": []
    },
    {
      "x": 82,
      "y": 351,
      "size": 1,
      "price": "3000000000000000000000",
      "assetIds": []
    },
    {
      "x": 83,
      "y": 352,
      "size": 1,
      "price": "3000000000000000000000",
      "assetIds": []
    },
    {
      "x": 82,
      "y": 353,
      "size": 1,
      "price": "3000000000000000000000",
      "assetIds": []
    },
    {
      "x": 81,
      "y": 353,
      "size": 1,
      "price": "3000000000000000000000",
      "reserved": "0x7a9fe22691c811ea339d9b73150e6911a5343dca",
      "assetIds": []
    },
    {
      "x": 84,
      "y": 347,
      "size": 1,
      "price": "3000000000000000000000",
      "assetIds": []
    },
    {
      "x": 85,
      "y": 347,
      "size": 1,
      "price": "3000000000000000000000",
      "assetIds": []
    },
    {
      "x": 86,
      "y": 347,
      "size": 1,
      "price": "3000000000000000000000",
      "assetIds": []
    },
    {
      "x": 86,
      "y": 349,
      "size": 1,
      "price": "3000000000000000000000",
      "assetIds": []
    },
    {
      "x": 85,
      "y": 349,
      "size": 1,
      "price": "3000000000000000000000",
      "assetIds": []
    },
    {
      "x": 85,
      "y": 350,
      "size": 1,
      "price": "3000000000000000000000",
      "assetIds": []
    },
    {
      "x": 84,
      "y": 349,
      "size": 1,
      "price": "3000000000000000000000",
      "assetIds": []
    },
    {
      "x": 84,
      "y": 348,
      "size": 1,
      "price": "3000000000000000000000",
      "reserved": "0x7a9fe22691c811ea339d9b73150e6911a5343dca",
      "assetIds": []
    },
    {
      "x": 85,
      "y": 348,
      "size": 1,
      "price": "3000000000000000000000",
      "assetIds": []
    },
    {
      "x": 86,
      "y": 348,
      "size": 1,
      "price": "3000000000000000000000",
      "assetIds": []
    },
    {
      "x": 84,
      "y": 350,
      "size": 1,
      "price": "3000000000000000000000",
      "assetIds": []
    },
    {
      "x": 86,
      "y": 346,
      "size": 1,
      "price": "3000000000000000000000",
      "assetIds": []
    },
    {
      "x": 86,
      "y": 345,
      "size": 1,
      "price": "3000000000000000000000",
      "assetIds": []
    },
    {
      "x": 87,
      "y": 345,
      "size": 1,
      "price": "3000000000000000000000",
      "assetIds": []
    },
    {
      "x": 88,
      "y": 345,
      "size": 1,
      "price": "3000000000000000000000",
      "assetIds": []
    },
    {
      "x": 89,
      "y": 347,
      "size": 1,
      "price": "3000000000000000000000",
      "assetIds": []
    },
    {
      "x": 87,
      "y": 347,
      "size": 1,
      "price": "3000000000000000000000",
      "assetIds": []
    },
    {
      "x": 85,
      "y": 346,
      "size": 1,
      "price": "3000000000000000000000",
      "assetIds": []
    },
    {
      "x": 85,
      "y": 345,
      "size": 1,
      "price": "3000000000000000000000",
      "reserved": "0x7a9fe22691c811ea339d9b73150e6911a5343dca",
      "assetIds": []
    },
    {
      "x": 87,
      "y": 346,
      "size": 1,
      "price": "3000000000000000000000",
      "assetIds": []
    },
    {
      "x": 88,
      "y": 346,
      "size": 1,
      "price": "3000000000000000000000",
      "assetIds": []
    },
    {
      "x": 88,
      "y": 347,
      "size": 1,
      "price": "3000000000000000000000",
      "assetIds": []
    },
    {
      "x": 89,
      "y": 346,
      "size": 1,
      "price": "3000000000000000000000",
      "reserved": "0x7a9fe22691c811ea339d9b73150e6911a5343dca",
      "assetIds": []
    },
    {
      "x": 89,
      "y": 345,
      "size": 1,
      "price": "3000000000000000000000",
      "assetIds": []
    },
    {
      "x": 84,
      "y": 346,
      "size": 1,
      "price": "3000000000000000000000",
      "assetIds": []
    },
    {
      "x": 84,
      "y": 345,
      "size": 1,
      "price": "3000000000000000000000",
      "assetIds": []
    },
    {
      "x": 86,
      "y": 350,
      "size": 1,
      "price": "3000000000000000000000",
      "reserved": "0x7a9fe22691c811ea339d9b73150e6911a5343dca",
      "assetIds": []
    },
    {
      "x": 93,
      "y": 349,
      "size": 1,
      "price": "3000000000000000000000",
      "reserved": "0x7a9fe22691c811ea339d9b73150e6911a5343dca",
      "assetIds": []
    },
    {
      "x": 94,
      "y": 349,
      "size": 1,
      "price": "3000000000000000000000",
      "assetIds": []
    },
    {
      "x": 94,
      "y": 348,
      "size": 1,
      "price": "3000000000000000000000",
      "assetIds": []
    },
    {
      "x": 95,
      "y": 349,
      "size": 1,
      "price": "3000000000000000000000",
      "assetIds": []
    },
    {
      "x": 95,
      "y": 350,
      "size": 1,
      "price": "3000000000000000000000",
      "assetIds": []
    },
    {
      "x": 94,
      "y": 350,
      "size": 1,
      "price": "3000000000000000000000",
      "assetIds": []
    },
    {
      "x": 93,
      "y": 350,
      "size": 1,
      "price": "3000000000000000000000",
      "assetIds": []
    },
    {
      "x": 95,
      "y": 348,
      "size": 1,
      "price": "3000000000000000000000",
      "assetIds": []
    },
    {
      "x": 93,
      "y": 348,
      "size": 1,
      "price": "3000000000000000000000",
      "assetIds": []
    },
    {
      "x": 102,
      "y": 348,
      "size": 1,
      "price": "3000000000000000000000",
      "reserved": "0x7a9fe22691c811ea339d9b73150e6911a5343dca",
      "assetIds": []
    },
    {
      "x": 103,
      "y": 348,
      "size": 1,
      "price": "6950000000000000000000",
      "assetIds": [
        "35541503283276933796147438414694400616078274122459190822474961601238453471232",
        "35541503283276933796147438414694400616078274122459190822474961601238453471233",
        "35541503283276933796147438414694400616078274122459190822474961601238453471234",
        "35541503283276933796147438414694400616078274122459190822474961601238453471238"
      ]
    },
    {
      "x": 104,
      "y": 348,
      "size": 1,
      "price": "6950000000000000000000",
      "assetIds": [
        "35541503283276933796147438414694400616078274122459190822474961601238453471232",
        "35541503283276933796147438414694400616078274122459190822474961601238453471233",
        "35541503283276933796147438414694400616078274122459190822474961601238453471234",
        "35541503283276933796147438414694400616078274122459190822474961601238453471238"
      ]
    },
    {
      "x": 105,
      "y": 348,
      "size": 1,
      "price": "6950000000000000000000",
      "assetIds": [
        "35541503283276933796147438414694400616078274122459190822474961601238453471232",
        "35541503283276933796147438414694400616078274122459190822474961601238453471233",
        "35541503283276933796147438414694400616078274122459190822474961601238453471234",
        "35541503283276933796147438414694400616078274122459190822474961601238453471235"
      ]
    },
    {
      "x": 106,
      "y": 348,
      "size": 1,
      "price": "6950000000000000000000",
      "assetIds": [
        "35541503283276933796147438414694400616078274122459190822474961601238453471232",
        "35541503283276933796147438414694400616078274122459190822474961601238453471233",
        "35541503283276933796147438414694400616078274122459190822474961601238453471234",
        "35541503283276933796147438414694400616078274122459190822474961601238453471236"
      ]
    },
    {
      "x": 107,
      "y": 348,
      "size": 1,
      "price": "6950000000000000000000",
      "assetIds": [
        "35541503283276933796147438414694400616078274122459190822474961601238453471232",
        "35541503283276933796147438414694400616078274122459190822474961601238453471233",
        "35541503283276933796147438414694400616078274122459190822474961601238453471234",
        "35541503283276933796147438414694400616078274122459190822474961601238453471240"
      ]
    },
    {
      "x": 108,
      "y": 348,
      "size": 1,
      "price": "6950000000000000000000",
      "assetIds": [
        "35541503283276933796147438414694400616078274122459190822474961601238453471232",
        "35541503283276933796147438414694400616078274122459190822474961601238453471233",
        "35541503283276933796147438414694400616078274122459190822474961601238453471234",
        "35541503283276933796147438414694400616078274122459190822474961601238453471235"
      ]
    },
    {
      "x": 109,
      "y": 348,
      "size": 1,
      "price": "6950000000000000000000",
      "assetIds": [
        "35541503283276933796147438414694400616078274122459190822474961601238453471232",
        "35541503283276933796147438414694400616078274122459190822474961601238453471233",
        "35541503283276933796147438414694400616078274122459190822474961601238453471234",
        "35541503283276933796147438414694400616078274122459190822474961601238453471238"
      ]
    },
    {
      "x": 110,
      "y": 348,
      "size": 1,
      "price": "6950000000000000000000",
      "assetIds": [
        "35541503283276933796147438414694400616078274122459190822474961601238453471232",
        "35541503283276933796147438414694400616078274122459190822474961601238453471233",
        "35541503283276933796147438414694400616078274122459190822474961601238453471234",
        "35541503283276933796147438414694400616078274122459190822474961601238453471236"
      ]
    },
    {
      "x": 111,
      "y": 348,
      "size": 1,
      "price": "6950000000000000000000",
      "assetIds": [
        "35541503283276933796147438414694400616078274122459190822474961601238453471232",
        "35541503283276933796147438414694400616078274122459190822474961601238453471233",
        "35541503283276933796147438414694400616078274122459190822474961601238453471234",
        "35541503283276933796147438414694400616078274122459190822474961601238453471237"
      ]
    },
    {
      "x": 111,
      "y": 349,
      "size": 1,
      "price": "6950000000000000000000",
      "assetIds": [
        "35541503283276933796147438414694400616078274122459190822474961601238453471232",
        "35541503283276933796147438414694400616078274122459190822474961601238453471233",
        "35541503283276933796147438414694400616078274122459190822474961601238453471234",
        "35541503283276933796147438414694400616078274122459190822474961601238453471239"
      ]
    },
    {
      "x": 110,
      "y": 349,
      "size": 1,
      "price": "6950000000000000000000",
      "assetIds": [
        "35541503283276933796147438414694400616078274122459190822474961601238453471232",
        "35541503283276933796147438414694400616078274122459190822474961601238453471233",
        "35541503283276933796147438414694400616078274122459190822474961601238453471234",
        "35541503283276933796147438414694400616078274122459190822474961601238453471236"
      ]
    },
    {
      "x": 109,
      "y": 349,
      "size": 1,
      "price": "6950000000000000000000",
      "assetIds": [
        "35541503283276933796147438414694400616078274122459190822474961601238453471232",
        "35541503283276933796147438414694400616078274122459190822474961601238453471233",
        "35541503283276933796147438414694400616078274122459190822474961601238453471234",
        "35541503283276933796147438414694400616078274122459190822474961601238453471235"
      ]
    },
    {
      "x": 122,
      "y": 347,
      "size": 1,
      "price": "3000000000000000000000",
      "reserved": "0x7a9fe22691c811ea339d9b73150e6911a5343dca",
      "assetIds": []
    },
    {
      "x": 122,
      "y": 346,
      "size": 1,
      "price": "6950000000000000000000",
      "assetIds": [
        "35541503283276933796147438414694400616078274122459190822474961601238453471232",
        "35541503283276933796147438414694400616078274122459190822474961601238453471233",
        "35541503283276933796147438414694400616078274122459190822474961601238453471234",
        "35541503283276933796147438414694400616078274122459190822474961601238453471238"
      ]
    },
    {
      "x": 122,
      "y": 345,
      "size": 1,
      "price": "6950000000000000000000",
      "assetIds": [
        "35541503283276933796147438414694400616078274122459190822474961601238453471232",
        "35541503283276933796147438414694400616078274122459190822474961601238453471233",
        "35541503283276933796147438414694400616078274122459190822474961601238453471234",
        "35541503283276933796147438414694400616078274122459190822474961601238453471240"
      ]
    },
    {
      "x": 122,
      "y": 344,
      "size": 1,
      "price": "6950000000000000000000",
      "assetIds": [
        "35541503283276933796147438414694400616078274122459190822474961601238453471232",
        "35541503283276933796147438414694400616078274122459190822474961601238453471233",
        "35541503283276933796147438414694400616078274122459190822474961601238453471234",
        "35541503283276933796147438414694400616078274122459190822474961601238453471236"
      ]
    },
    {
      "x": 123,
      "y": 344,
      "size": 1,
      "price": "3000000000000000000000",
      "reserved": "0x7a9fe22691c811ea339d9b73150e6911a5343dca",
      "assetIds": []
    },
    {
      "x": 124,
      "y": 344,
      "size": 1,
      "price": "6950000000000000000000",
      "assetIds": [
        "35541503283276933796147438414694400616078274122459190822474961601238453471232",
        "35541503283276933796147438414694400616078274122459190822474961601238453471233",
        "35541503283276933796147438414694400616078274122459190822474961601238453471234",
        "35541503283276933796147438414694400616078274122459190822474961601238453471240"
      ]
    },
    {
      "x": 125,
      "y": 344,
      "size": 1,
      "price": "3000000000000000000000",
      "assetIds": []
    },
    {
      "x": 126,
      "y": 344,
      "size": 1,
      "price": "3000000000000000000000",
      "assetIds": []
    },
    {
      "x": 127,
      "y": 344,
      "size": 1,
      "price": "3000000000000000000000",
      "assetIds": []
    },
    {
      "x": 128,
      "y": 344,
      "size": 1,
      "price": "3000000000000000000000",
      "reserved": "0x7a9fe22691c811ea339d9b73150e6911a5343dca",
      "assetIds": []
    },
    {
      "x": 128,
      "y": 343,
      "size": 1,
      "price": "3000000000000000000000",
      "assetIds": []
    },
    {
      "x": 128,
      "y": 342,
      "size": 1,
      "price": "3000000000000000000000",
      "assetIds": []
    },
    {
      "x": 127,
      "y": 342,
      "size": 1,
      "price": "3000000000000000000000",
      "reserved": "0x7a9fe22691c811ea339d9b73150e6911a5343dca",
      "assetIds": []
    },
    {
      "x": 126,
      "y": 343,
      "size": 1,
      "price": "3000000000000000000000",
      "assetIds": []
    },
    {
      "x": 127,
      "y": 343,
      "size": 1,
      "price": "3000000000000000000000",
      "assetIds": []
    },
    {
      "x": 126,
      "y": 342,
      "size": 1,
      "price": "3000000000000000000000",
      "assetIds": []
    },
    {
      "x": 107,
      "y": 337,
      "size": 1,
      "price": "6950000000000000000000",
      "assetIds": [
        "35541503283276933796147438414694400616078274122459190822474961601238453471232",
        "35541503283276933796147438414694400616078274122459190822474961601238453471233",
        "35541503283276933796147438414694400616078274122459190822474961601238453471234",
        "35541503283276933796147438414694400616078274122459190822474961601238453471240"
      ]
    },
    {
      "x": 106,
      "y": 337,
      "size": 1,
      "price": "6950000000000000000000",
      "assetIds": [
        "35541503283276933796147438414694400616078274122459190822474961601238453471232",
        "35541503283276933796147438414694400616078274122459190822474961601238453471233",
        "35541503283276933796147438414694400616078274122459190822474961601238453471234",
        "35541503283276933796147438414694400616078274122459190822474961601238453471238"
      ]
    },
    {
      "x": 105,
      "y": 337,
      "size": 1,
      "price": "6950000000000000000000",
      "assetIds": [
        "35541503283276933796147438414694400616078274122459190822474961601238453471232",
        "35541503283276933796147438414694400616078274122459190822474961601238453471233",
        "35541503283276933796147438414694400616078274122459190822474961601238453471234",
        "35541503283276933796147438414694400616078274122459190822474961601238453471236"
      ]
    },
    {
      "x": 104,
      "y": 337,
      "size": 1,
      "price": "6950000000000000000000",
      "assetIds": [
        "35541503283276933796147438414694400616078274122459190822474961601238453471232",
        "35541503283276933796147438414694400616078274122459190822474961601238453471233",
        "35541503283276933796147438414694400616078274122459190822474961601238453471234",
        "35541503283276933796147438414694400616078274122459190822474961601238453471235"
      ]
    },
    {
      "x": 103,
      "y": 337,
      "size": 1,
      "price": "6950000000000000000000",
      "assetIds": [
        "35541503283276933796147438414694400616078274122459190822474961601238453471232",
        "35541503283276933796147438414694400616078274122459190822474961601238453471233",
        "35541503283276933796147438414694400616078274122459190822474961601238453471234",
        "35541503283276933796147438414694400616078274122459190822474961601238453471239"
      ]
    },
    {
      "x": 102,
      "y": 337,
      "size": 1,
      "price": "3000000000000000000000",
      "assetIds": []
    },
    {
      "x": 101,
      "y": 337,
      "size": 1,
      "price": "3000000000000000000000",
      "assetIds": []
    },
    {
      "x": 100,
      "y": 337,
      "size": 1,
      "price": "3000000000000000000000",
      "reserved": "0x7a9fe22691c811ea339d9b73150e6911a5343dca",
      "assetIds": []
    },
    {
      "x": 99,
      "y": 337,
      "size": 1,
      "price": "3000000000000000000000",
      "assetIds": []
    },
    {
      "x": 92,
      "y": 337,
      "size": 1,
      "price": "3000000000000000000000",
      "assetIds": []
    },
    {
      "x": 91,
      "y": 337,
      "size": 1,
      "price": "3000000000000000000000",
      "reserved": "0x7a9fe22691c811ea339d9b73150e6911a5343dca",
      "assetIds": []
    },
    {
      "x": 90,
      "y": 337,
      "size": 1,
      "price": "3000000000000000000000",
      "assetIds": []
    },
    {
      "x": 90,
      "y": 338,
      "size": 1,
      "price": "3000000000000000000000",
      "assetIds": []
    },
    {
      "x": 91,
      "y": 338,
      "size": 1,
      "price": "3000000000000000000000",
      "assetIds": []
    },
    {
      "x": 92,
      "y": 338,
      "size": 1,
      "price": "3000000000000000000000",
      "assetIds": []
    },
    {
      "x": 99,
      "y": 338,
      "size": 1,
      "price": "3000000000000000000000",
      "assetIds": []
    },
    {
      "x": 100,
      "y": 338,
      "size": 1,
      "price": "3000000000000000000000",
      "assetIds": []
    },
    {
      "x": 101,
      "y": 338,
      "size": 1,
      "price": "3000000000000000000000",
      "assetIds": []
    },
    {
      "x": 102,
      "y": 338,
      "size": 1,
      "price": "6950000000000000000000",
      "assetIds": [
        "35541503283276933796147438414694400616078274122459190822474961601238453471232",
        "35541503283276933796147438414694400616078274122459190822474961601238453471233",
        "35541503283276933796147438414694400616078274122459190822474961601238453471234",
        "35541503283276933796147438414694400616078274122459190822474961601238453471239"
      ]
    },
    {
      "x": 103,
      "y": 338,
      "size": 1,
      "price": "6950000000000000000000",
      "assetIds": [
        "35541503283276933796147438414694400616078274122459190822474961601238453471232",
        "35541503283276933796147438414694400616078274122459190822474961601238453471233",
        "35541503283276933796147438414694400616078274122459190822474961601238453471234",
        "35541503283276933796147438414694400616078274122459190822474961601238453471235"
      ]
    },
    {
      "x": 104,
      "y": 338,
      "size": 1,
      "price": "6950000000000000000000",
      "assetIds": [
        "35541503283276933796147438414694400616078274122459190822474961601238453471232",
        "35541503283276933796147438414694400616078274122459190822474961601238453471233",
        "35541503283276933796147438414694400616078274122459190822474961601238453471234",
        "35541503283276933796147438414694400616078274122459190822474961601238453471235"
      ]
    },
    {
      "x": 105,
      "y": 338,
      "size": 1,
      "price": "6950000000000000000000",
      "assetIds": [
        "35541503283276933796147438414694400616078274122459190822474961601238453471232",
        "35541503283276933796147438414694400616078274122459190822474961601238453471233",
        "35541503283276933796147438414694400616078274122459190822474961601238453471234",
        "35541503283276933796147438414694400616078274122459190822474961601238453471238"
      ]
    },
    {
      "x": 106,
      "y": 338,
      "size": 1,
      "price": "6950000000000000000000",
      "assetIds": [
        "35541503283276933796147438414694400616078274122459190822474961601238453471232",
        "35541503283276933796147438414694400616078274122459190822474961601238453471233",
        "35541503283276933796147438414694400616078274122459190822474961601238453471234",
        "35541503283276933796147438414694400616078274122459190822474961601238453471237"
      ]
    },
    {
      "x": 107,
      "y": 338,
      "size": 1,
      "price": "6950000000000000000000",
      "assetIds": [
        "35541503283276933796147438414694400616078274122459190822474961601238453471232",
        "35541503283276933796147438414694400616078274122459190822474961601238453471233",
        "35541503283276933796147438414694400616078274122459190822474961601238453471234",
        "35541503283276933796147438414694400616078274122459190822474961601238453471237"
      ]
    },
    {
      "x": 120,
      "y": 339,
      "size": 1,
      "price": "6950000000000000000000",
      "assetIds": [
        "35541503283276933796147438414694400616078274122459190822474961601238453471232",
        "35541503283276933796147438414694400616078274122459190822474961601238453471233",
        "35541503283276933796147438414694400616078274122459190822474961601238453471234",
        "35541503283276933796147438414694400616078274122459190822474961601238453471239"
      ]
    },
    {
      "x": 121,
      "y": 339,
      "size": 1,
      "price": "6950000000000000000000",
      "assetIds": [
        "35541503283276933796147438414694400616078274122459190822474961601238453471232",
        "35541503283276933796147438414694400616078274122459190822474961601238453471233",
        "35541503283276933796147438414694400616078274122459190822474961601238453471234",
        "35541503283276933796147438414694400616078274122459190822474961601238453471237"
      ]
    },
    {
      "x": 122,
      "y": 339,
      "size": 1,
      "price": "6950000000000000000000",
      "assetIds": [
        "35541503283276933796147438414694400616078274122459190822474961601238453471232",
        "35541503283276933796147438414694400616078274122459190822474961601238453471233",
        "35541503283276933796147438414694400616078274122459190822474961601238453471234",
        "35541503283276933796147438414694400616078274122459190822474961601238453471237"
      ]
    },
    {
      "x": 123,
      "y": 339,
      "size": 1,
      "price": "6950000000000000000000",
      "assetIds": [
        "35541503283276933796147438414694400616078274122459190822474961601238453471232",
        "35541503283276933796147438414694400616078274122459190822474961601238453471233",
        "35541503283276933796147438414694400616078274122459190822474961601238453471234",
        "35541503283276933796147438414694400616078274122459190822474961601238453471237"
      ]
    },
    {
      "x": 124,
      "y": 339,
      "size": 1,
      "price": "6950000000000000000000",
      "assetIds": [
        "35541503283276933796147438414694400616078274122459190822474961601238453471232",
        "35541503283276933796147438414694400616078274122459190822474961601238453471233",
        "35541503283276933796147438414694400616078274122459190822474961601238453471234",
        "35541503283276933796147438414694400616078274122459190822474961601238453471236"
      ]
    },
    {
      "x": 125,
      "y": 339,
      "size": 1,
      "price": "6950000000000000000000",
      "assetIds": [
        "35541503283276933796147438414694400616078274122459190822474961601238453471232",
        "35541503283276933796147438414694400616078274122459190822474961601238453471233",
        "35541503283276933796147438414694400616078274122459190822474961601238453471234",
        "35541503283276933796147438414694400616078274122459190822474961601238453471237"
      ]
    },
    {
      "x": 107,
      "y": 339,
      "size": 1,
      "price": "6950000000000000000000",
      "assetIds": [
        "35541503283276933796147438414694400616078274122459190822474961601238453471232",
        "35541503283276933796147438414694400616078274122459190822474961601238453471233",
        "35541503283276933796147438414694400616078274122459190822474961601238453471234",
        "35541503283276933796147438414694400616078274122459190822474961601238453471239"
      ]
    },
    {
      "x": 106,
      "y": 339,
      "size": 1,
      "price": "6950000000000000000000",
      "assetIds": [
        "35541503283276933796147438414694400616078274122459190822474961601238453471232",
        "35541503283276933796147438414694400616078274122459190822474961601238453471233",
        "35541503283276933796147438414694400616078274122459190822474961601238453471234",
        "35541503283276933796147438414694400616078274122459190822474961601238453471237"
      ]
    },
    {
      "x": 105,
      "y": 339,
      "size": 1,
      "price": "6950000000000000000000",
      "assetIds": [
        "35541503283276933796147438414694400616078274122459190822474961601238453471232",
        "35541503283276933796147438414694400616078274122459190822474961601238453471233",
        "35541503283276933796147438414694400616078274122459190822474961601238453471234",
        "35541503283276933796147438414694400616078274122459190822474961601238453471238"
      ]
    },
    {
      "x": 104,
      "y": 339,
      "size": 1,
      "price": "6950000000000000000000",
      "assetIds": [
        "35541503283276933796147438414694400616078274122459190822474961601238453471232",
        "35541503283276933796147438414694400616078274122459190822474961601238453471233",
        "35541503283276933796147438414694400616078274122459190822474961601238453471234",
        "35541503283276933796147438414694400616078274122459190822474961601238453471238"
      ]
    },
    {
      "x": 103,
      "y": 339,
      "size": 1,
      "price": "6950000000000000000000",
      "assetIds": [
        "35541503283276933796147438414694400616078274122459190822474961601238453471232",
        "35541503283276933796147438414694400616078274122459190822474961601238453471233",
        "35541503283276933796147438414694400616078274122459190822474961601238453471234",
        "35541503283276933796147438414694400616078274122459190822474961601238453471239"
      ]
    },
    {
      "x": 102,
      "y": 339,
      "size": 1,
      "price": "3000000000000000000000",
      "assetIds": []
    },
    {
      "x": 98,
      "y": 339,
      "size": 1,
      "price": "3000000000000000000000",
      "assetIds": []
    },
    {
      "x": 97,
      "y": 339,
      "size": 1,
      "price": "3000000000000000000000",
      "assetIds": []
    },
    {
      "x": 96,
      "y": 339,
      "size": 1,
      "price": "3000000000000000000000",
      "assetIds": []
    },
    {
      "x": 95,
      "y": 339,
      "size": 1,
      "price": "3000000000000000000000",
      "assetIds": []
    },
    {
      "x": 94,
      "y": 339,
      "size": 1,
      "price": "3000000000000000000000",
      "assetIds": []
    },
    {
      "x": 93,
      "y": 339,
      "size": 1,
      "price": "3000000000000000000000",
      "assetIds": []
    },
    {
      "x": 93,
      "y": 340,
      "size": 1,
      "price": "3000000000000000000000",
      "assetIds": []
    },
    {
      "x": 94,
      "y": 340,
      "size": 1,
      "price": "3000000000000000000000",
      "assetIds": []
    },
    {
      "x": 95,
      "y": 340,
      "size": 1,
      "price": "3000000000000000000000",
      "assetIds": []
    },
    {
      "x": 96,
      "y": 340,
      "size": 1,
      "price": "3000000000000000000000",
      "reserved": "0x7a9fe22691c811ea339d9b73150e6911a5343dca",
      "assetIds": []
    },
    {
      "x": 97,
      "y": 340,
      "size": 1,
      "price": "3000000000000000000000",
      "assetIds": []
    },
    {
      "x": 98,
      "y": 340,
      "size": 1,
      "price": "3000000000000000000000",
      "assetIds": []
    },
    {
      "x": 102,
      "y": 340,
      "size": 1,
      "price": "6950000000000000000000",
      "assetIds": [
        "35541503283276933796147438414694400616078274122459190822474961601238453471232",
        "35541503283276933796147438414694400616078274122459190822474961601238453471233",
        "35541503283276933796147438414694400616078274122459190822474961601238453471234",
        "35541503283276933796147438414694400616078274122459190822474961601238453471236"
      ]
    },
    {
      "x": 103,
      "y": 340,
      "size": 1,
      "price": "6950000000000000000000",
      "assetIds": [
        "35541503283276933796147438414694400616078274122459190822474961601238453471232",
        "35541503283276933796147438414694400616078274122459190822474961601238453471233",
        "35541503283276933796147438414694400616078274122459190822474961601238453471234",
        "35541503283276933796147438414694400616078274122459190822474961601238453471236"
      ]
    },
    {
      "x": 104,
      "y": 340,
      "size": 1,
      "price": "6950000000000000000000",
      "assetIds": [
        "35541503283276933796147438414694400616078274122459190822474961601238453471232",
        "35541503283276933796147438414694400616078274122459190822474961601238453471233",
        "35541503283276933796147438414694400616078274122459190822474961601238453471234",
        "35541503283276933796147438414694400616078274122459190822474961601238453471240"
      ]
    },
    {
      "x": 105,
      "y": 340,
      "size": 1,
      "price": "6950000000000000000000",
      "assetIds": [
        "35541503283276933796147438414694400616078274122459190822474961601238453471232",
        "35541503283276933796147438414694400616078274122459190822474961601238453471233",
        "35541503283276933796147438414694400616078274122459190822474961601238453471234",
        "35541503283276933796147438414694400616078274122459190822474961601238453471239"
      ]
    },
    {
      "x": 106,
      "y": 340,
      "size": 1,
      "price": "6950000000000000000000",
      "assetIds": [
        "35541503283276933796147438414694400616078274122459190822474961601238453471232",
        "35541503283276933796147438414694400616078274122459190822474961601238453471233",
        "35541503283276933796147438414694400616078274122459190822474961601238453471234",
        "35541503283276933796147438414694400616078274122459190822474961601238453471237"
      ]
    },
    {
      "x": 107,
      "y": 340,
      "size": 1,
      "price": "6950000000000000000000",
      "assetIds": [
        "35541503283276933796147438414694400616078274122459190822474961601238453471232",
        "35541503283276933796147438414694400616078274122459190822474961601238453471233",
        "35541503283276933796147438414694400616078274122459190822474961601238453471234",
        "35541503283276933796147438414694400616078274122459190822474961601238453471238"
      ]
    },
    {
      "x": 120,
      "y": 340,
      "size": 1,
      "price": "6950000000000000000000",
      "assetIds": [
        "35541503283276933796147438414694400616078274122459190822474961601238453471232",
        "35541503283276933796147438414694400616078274122459190822474961601238453471233",
        "35541503283276933796147438414694400616078274122459190822474961601238453471234",
        "35541503283276933796147438414694400616078274122459190822474961601238453471238"
      ]
    },
    {
      "x": 121,
      "y": 340,
      "size": 1,
      "price": "6950000000000000000000",
      "assetIds": [
        "35541503283276933796147438414694400616078274122459190822474961601238453471232",
        "35541503283276933796147438414694400616078274122459190822474961601238453471233",
        "35541503283276933796147438414694400616078274122459190822474961601238453471234",
        "35541503283276933796147438414694400616078274122459190822474961601238453471236"
      ]
    },
    {
      "x": 122,
      "y": 340,
      "size": 1,
      "price": "6950000000000000000000",
      "assetIds": [
        "35541503283276933796147438414694400616078274122459190822474961601238453471232",
        "35541503283276933796147438414694400616078274122459190822474961601238453471233",
        "35541503283276933796147438414694400616078274122459190822474961601238453471234",
        "35541503283276933796147438414694400616078274122459190822474961601238453471236"
      ]
    },
    {
      "x": 123,
      "y": 340,
      "size": 1,
      "price": "6950000000000000000000",
      "assetIds": [
        "35541503283276933796147438414694400616078274122459190822474961601238453471232",
        "35541503283276933796147438414694400616078274122459190822474961601238453471233",
        "35541503283276933796147438414694400616078274122459190822474961601238453471234",
        "35541503283276933796147438414694400616078274122459190822474961601238453471235"
      ]
    },
    {
      "x": 124,
      "y": 340,
      "size": 1,
      "price": "6950000000000000000000",
      "assetIds": [
        "35541503283276933796147438414694400616078274122459190822474961601238453471232",
        "35541503283276933796147438414694400616078274122459190822474961601238453471233",
        "35541503283276933796147438414694400616078274122459190822474961601238453471234",
        "35541503283276933796147438414694400616078274122459190822474961601238453471236"
      ]
    },
    {
      "x": 125,
      "y": 340,
      "size": 1,
      "price": "3000000000000000000000",
      "assetIds": []
    },
    {
      "x": 125,
      "y": 341,
      "size": 1,
      "price": "3000000000000000000000",
      "assetIds": []
    },
    {
      "x": 124,
      "y": 341,
      "size": 1,
      "price": "3000000000000000000000",
      "reserved": "0x7a9fe22691c811ea339d9b73150e6911a5343dca",
      "assetIds": []
    },
    {
      "x": 123,
      "y": 341,
      "size": 1,
      "price": "6950000000000000000000",
      "assetIds": [
        "35541503283276933796147438414694400616078274122459190822474961601238453471232",
        "35541503283276933796147438414694400616078274122459190822474961601238453471233",
        "35541503283276933796147438414694400616078274122459190822474961601238453471234",
        "35541503283276933796147438414694400616078274122459190822474961601238453471240"
      ]
    },
    {
      "x": 122,
      "y": 341,
      "size": 1,
      "price": "6950000000000000000000",
      "assetIds": [
        "35541503283276933796147438414694400616078274122459190822474961601238453471232",
        "35541503283276933796147438414694400616078274122459190822474961601238453471233",
        "35541503283276933796147438414694400616078274122459190822474961601238453471234",
        "35541503283276933796147438414694400616078274122459190822474961601238453471239"
      ]
    },
    {
      "x": 121,
      "y": 341,
      "size": 1,
      "price": "6950000000000000000000",
      "assetIds": [
        "35541503283276933796147438414694400616078274122459190822474961601238453471232",
        "35541503283276933796147438414694400616078274122459190822474961601238453471233",
        "35541503283276933796147438414694400616078274122459190822474961601238453471234",
        "35541503283276933796147438414694400616078274122459190822474961601238453471236"
      ]
    },
    {
      "x": 120,
      "y": 341,
      "size": 1,
      "price": "6950000000000000000000",
      "assetIds": [
        "35541503283276933796147438414694400616078274122459190822474961601238453471232",
        "35541503283276933796147438414694400616078274122459190822474961601238453471233",
        "35541503283276933796147438414694400616078274122459190822474961601238453471234",
        "35541503283276933796147438414694400616078274122459190822474961601238453471237"
      ]
    },
    {
      "x": 107,
      "y": 341,
      "size": 1,
      "price": "6950000000000000000000",
      "assetIds": [
        "35541503283276933796147438414694400616078274122459190822474961601238453471232",
        "35541503283276933796147438414694400616078274122459190822474961601238453471233",
        "35541503283276933796147438414694400616078274122459190822474961601238453471234",
        "35541503283276933796147438414694400616078274122459190822474961601238453471238"
      ]
    },
    {
      "x": 105,
      "y": 341,
      "size": 1,
      "price": "6950000000000000000000",
      "assetIds": [
        "35541503283276933796147438414694400616078274122459190822474961601238453471232",
        "35541503283276933796147438414694400616078274122459190822474961601238453471233",
        "35541503283276933796147438414694400616078274122459190822474961601238453471234",
        "35541503283276933796147438414694400616078274122459190822474961601238453471235"
      ]
    },
    {
      "x": 104,
      "y": 341,
      "size": 1,
      "price": "6950000000000000000000",
      "assetIds": [
        "35541503283276933796147438414694400616078274122459190822474961601238453471232",
        "35541503283276933796147438414694400616078274122459190822474961601238453471233",
        "35541503283276933796147438414694400616078274122459190822474961601238453471234",
        "35541503283276933796147438414694400616078274122459190822474961601238453471239"
      ]
    },
    {
      "x": 103,
      "y": 341,
      "size": 1,
      "price": "6950000000000000000000",
      "assetIds": [
        "35541503283276933796147438414694400616078274122459190822474961601238453471232",
        "35541503283276933796147438414694400616078274122459190822474961601238453471233",
        "35541503283276933796147438414694400616078274122459190822474961601238453471234",
        "35541503283276933796147438414694400616078274122459190822474961601238453471240"
      ]
    },
    {
      "x": 102,
      "y": 341,
      "size": 1,
      "price": "3000000000000000000000",
      "assetIds": []
    },
    {
      "x": 98,
      "y": 341,
      "size": 1,
      "price": "3000000000000000000000",
      "reserved": "0x7a9fe22691c811ea339d9b73150e6911a5343dca",
      "assetIds": []
    },
    {
      "x": 97,
      "y": 341,
      "size": 1,
      "price": "3000000000000000000000",
      "assetIds": []
    },
    {
      "x": 96,
      "y": 341,
      "size": 1,
      "price": "3000000000000000000000",
      "assetIds": []
    },
    {
      "x": 95,
      "y": 341,
      "size": 1,
      "price": "3000000000000000000000",
      "assetIds": []
    },
    {
      "x": 94,
      "y": 341,
      "size": 1,
      "price": "3000000000000000000000",
      "assetIds": []
    },
    {
      "x": 93,
      "y": 341,
      "size": 1,
      "price": "3000000000000000000000",
      "reserved": "0x7a9fe22691c811ea339d9b73150e6911a5343dca",
      "assetIds": []
    },
    {
      "x": 106,
      "y": 341,
      "size": 1,
      "price": "6950000000000000000000",
      "assetIds": [
        "35541503283276933796147438414694400616078274122459190822474961601238453471232",
        "35541503283276933796147438414694400616078274122459190822474961601238453471233",
        "35541503283276933796147438414694400616078274122459190822474961601238453471234",
        "35541503283276933796147438414694400616078274122459190822474961601238453471235"
      ]
    },
    {
      "x": 120,
      "y": 342,
      "size": 1,
      "price": "6950000000000000000000",
      "assetIds": [
        "35541503283276933796147438414694400616078274122459190822474961601238453471232",
        "35541503283276933796147438414694400616078274122459190822474961601238453471233",
        "35541503283276933796147438414694400616078274122459190822474961601238453471234",
        "35541503283276933796147438414694400616078274122459190822474961601238453471240"
      ]
    },
    {
      "x": 121,
      "y": 342,
      "size": 1,
      "price": "6950000000000000000000",
      "assetIds": [
        "35541503283276933796147438414694400616078274122459190822474961601238453471232",
        "35541503283276933796147438414694400616078274122459190822474961601238453471233",
        "35541503283276933796147438414694400616078274122459190822474961601238453471234",
        "35541503283276933796147438414694400616078274122459190822474961601238453471236"
      ]
    },
    {
      "x": 122,
      "y": 343,
      "size": 1,
      "price": "6950000000000000000000",
      "assetIds": [
        "35541503283276933796147438414694400616078274122459190822474961601238453471232",
        "35541503283276933796147438414694400616078274122459190822474961601238453471233",
        "35541503283276933796147438414694400616078274122459190822474961601238453471234",
        "35541503283276933796147438414694400616078274122459190822474961601238453471237"
      ]
    },
    {
      "x": 123,
      "y": 343,
      "size": 1,
      "price": "6950000000000000000000",
      "assetIds": [
        "35541503283276933796147438414694400616078274122459190822474961601238453471232",
        "35541503283276933796147438414694400616078274122459190822474961601238453471233",
        "35541503283276933796147438414694400616078274122459190822474961601238453471234",
        "35541503283276933796147438414694400616078274122459190822474961601238453471235"
      ]
    },
    {
      "x": 124,
      "y": 343,
      "size": 1,
      "price": "6950000000000000000000",
      "assetIds": [
        "35541503283276933796147438414694400616078274122459190822474961601238453471232",
        "35541503283276933796147438414694400616078274122459190822474961601238453471233",
        "35541503283276933796147438414694400616078274122459190822474961601238453471234",
        "35541503283276933796147438414694400616078274122459190822474961601238453471236"
      ]
    },
    {
      "x": 125,
      "y": 343,
      "size": 1,
      "price": "6950000000000000000000",
      "assetIds": [
        "35541503283276933796147438414694400616078274122459190822474961601238453471232",
        "35541503283276933796147438414694400616078274122459190822474961601238453471233",
        "35541503283276933796147438414694400616078274122459190822474961601238453471234",
        "35541503283276933796147438414694400616078274122459190822474961601238453471240"
      ]
    },
    {
      "x": 125,
      "y": 342,
      "size": 1,
      "price": "3000000000000000000000",
      "assetIds": []
    },
    {
      "x": 124,
      "y": 342,
      "size": 1,
      "price": "6950000000000000000000",
      "assetIds": [
        "35541503283276933796147438414694400616078274122459190822474961601238453471232",
        "35541503283276933796147438414694400616078274122459190822474961601238453471233",
        "35541503283276933796147438414694400616078274122459190822474961601238453471234",
        "35541503283276933796147438414694400616078274122459190822474961601238453471238"
      ]
    },
    {
      "x": 123,
      "y": 342,
      "size": 1,
      "price": "6950000000000000000000",
      "assetIds": [
        "35541503283276933796147438414694400616078274122459190822474961601238453471232",
        "35541503283276933796147438414694400616078274122459190822474961601238453471233",
        "35541503283276933796147438414694400616078274122459190822474961601238453471234",
        "35541503283276933796147438414694400616078274122459190822474961601238453471235"
      ]
    },
    {
      "x": 122,
      "y": 342,
      "size": 1,
      "price": "6950000000000000000000",
      "assetIds": [
        "35541503283276933796147438414694400616078274122459190822474961601238453471232",
        "35541503283276933796147438414694400616078274122459190822474961601238453471233",
        "35541503283276933796147438414694400616078274122459190822474961601238453471234",
        "35541503283276933796147438414694400616078274122459190822474961601238453471237"
      ]
    },
    {
      "x": 107,
      "y": 342,
      "size": 1,
      "price": "6950000000000000000000",
      "assetIds": [
        "35541503283276933796147438414694400616078274122459190822474961601238453471232",
        "35541503283276933796147438414694400616078274122459190822474961601238453471233",
        "35541503283276933796147438414694400616078274122459190822474961601238453471234",
        "35541503283276933796147438414694400616078274122459190822474961601238453471240"
      ]
    },
    {
      "x": 106,
      "y": 342,
      "size": 1,
      "price": "6950000000000000000000",
      "assetIds": [
        "35541503283276933796147438414694400616078274122459190822474961601238453471232",
        "35541503283276933796147438414694400616078274122459190822474961601238453471233",
        "35541503283276933796147438414694400616078274122459190822474961601238453471234",
        "35541503283276933796147438414694400616078274122459190822474961601238453471237"
      ]
    },
    {
      "x": 105,
      "y": 342,
      "size": 1,
      "price": "6950000000000000000000",
      "assetIds": [
        "35541503283276933796147438414694400616078274122459190822474961601238453471232",
        "35541503283276933796147438414694400616078274122459190822474961601238453471233",
        "35541503283276933796147438414694400616078274122459190822474961601238453471234",
        "35541503283276933796147438414694400616078274122459190822474961601238453471238"
      ]
    },
    {
      "x": 104,
      "y": 342,
      "size": 1,
      "price": "6950000000000000000000",
      "assetIds": [
        "35541503283276933796147438414694400616078274122459190822474961601238453471232",
        "35541503283276933796147438414694400616078274122459190822474961601238453471233",
        "35541503283276933796147438414694400616078274122459190822474961601238453471234",
        "35541503283276933796147438414694400616078274122459190822474961601238453471238"
      ]
    },
    {
      "x": 103,
      "y": 342,
      "size": 1,
      "price": "6950000000000000000000",
      "assetIds": [
        "35541503283276933796147438414694400616078274122459190822474961601238453471232",
        "35541503283276933796147438414694400616078274122459190822474961601238453471233",
        "35541503283276933796147438414694400616078274122459190822474961601238453471234",
        "35541503283276933796147438414694400616078274122459190822474961601238453471238"
      ]
    },
    {
      "x": 102,
      "y": 342,
      "size": 1,
      "price": "3000000000000000000000",
      "assetIds": []
    },
    {
      "x": 102,
      "y": 343,
      "size": 1,
      "price": "3000000000000000000000",
      "reserved": "0x7a9fe22691c811ea339d9b73150e6911a5343dca",
      "assetIds": []
    },
    {
      "x": 103,
      "y": 343,
      "size": 1,
      "price": "6950000000000000000000",
      "assetIds": [
        "35541503283276933796147438414694400616078274122459190822474961601238453471232",
        "35541503283276933796147438414694400616078274122459190822474961601238453471233",
        "35541503283276933796147438414694400616078274122459190822474961601238453471234",
        "35541503283276933796147438414694400616078274122459190822474961601238453471239"
      ]
    },
    {
      "x": 104,
      "y": 343,
      "size": 1,
      "price": "6950000000000000000000",
      "assetIds": [
        "35541503283276933796147438414694400616078274122459190822474961601238453471232",
        "35541503283276933796147438414694400616078274122459190822474961601238453471233",
        "35541503283276933796147438414694400616078274122459190822474961601238453471234",
        "35541503283276933796147438414694400616078274122459190822474961601238453471239"
      ]
    },
    {
      "x": 105,
      "y": 343,
      "size": 1,
      "price": "6950000000000000000000",
      "assetIds": [
        "35541503283276933796147438414694400616078274122459190822474961601238453471232",
        "35541503283276933796147438414694400616078274122459190822474961601238453471233",
        "35541503283276933796147438414694400616078274122459190822474961601238453471234",
        "35541503283276933796147438414694400616078274122459190822474961601238453471235"
      ]
    },
    {
      "x": 106,
      "y": 343,
      "size": 1,
      "price": "6950000000000000000000",
      "assetIds": [
        "35541503283276933796147438414694400616078274122459190822474961601238453471232",
        "35541503283276933796147438414694400616078274122459190822474961601238453471233",
        "35541503283276933796147438414694400616078274122459190822474961601238453471234",
        "35541503283276933796147438414694400616078274122459190822474961601238453471239"
      ]
    },
    {
      "x": 107,
      "y": 343,
      "size": 1,
      "price": "6950000000000000000000",
      "assetIds": [
        "35541503283276933796147438414694400616078274122459190822474961601238453471232",
        "35541503283276933796147438414694400616078274122459190822474961601238453471233",
        "35541503283276933796147438414694400616078274122459190822474961601238453471234",
        "35541503283276933796147438414694400616078274122459190822474961601238453471239"
      ]
    },
    {
      "x": 120,
      "y": 343,
      "size": 1,
      "price": "6950000000000000000000",
      "assetIds": [
        "35541503283276933796147438414694400616078274122459190822474961601238453471232",
        "35541503283276933796147438414694400616078274122459190822474961601238453471233",
        "35541503283276933796147438414694400616078274122459190822474961601238453471234",
        "35541503283276933796147438414694400616078274122459190822474961601238453471239"
      ]
    },
    {
      "x": 121,
      "y": 343,
      "size": 1,
      "price": "6950000000000000000000",
      "assetIds": [
        "35541503283276933796147438414694400616078274122459190822474961601238453471232",
        "35541503283276933796147438414694400616078274122459190822474961601238453471233",
        "35541503283276933796147438414694400616078274122459190822474961601238453471234",
        "35541503283276933796147438414694400616078274122459190822474961601238453471237"
      ]
    },
    {
      "x": 121,
      "y": 344,
      "size": 1,
      "price": "6950000000000000000000",
      "assetIds": [
        "35541503283276933796147438414694400616078274122459190822474961601238453471232",
        "35541503283276933796147438414694400616078274122459190822474961601238453471233",
        "35541503283276933796147438414694400616078274122459190822474961601238453471234",
        "35541503283276933796147438414694400616078274122459190822474961601238453471238"
      ]
    },
    {
      "x": 120,
      "y": 344,
      "size": 1,
      "price": "6950000000000000000000",
      "assetIds": [
        "35541503283276933796147438414694400616078274122459190822474961601238453471232",
        "35541503283276933796147438414694400616078274122459190822474961601238453471233",
        "35541503283276933796147438414694400616078274122459190822474961601238453471234",
        "35541503283276933796147438414694400616078274122459190822474961601238453471237"
      ]
    },
    {
      "x": 107,
      "y": 344,
      "size": 1,
      "price": "6950000000000000000000",
      "assetIds": [
        "35541503283276933796147438414694400616078274122459190822474961601238453471232",
        "35541503283276933796147438414694400616078274122459190822474961601238453471233",
        "35541503283276933796147438414694400616078274122459190822474961601238453471234",
        "35541503283276933796147438414694400616078274122459190822474961601238453471238"
      ]
    },
    {
      "x": 106,
      "y": 344,
      "size": 1,
      "price": "6950000000000000000000",
      "assetIds": [
        "35541503283276933796147438414694400616078274122459190822474961601238453471232",
        "35541503283276933796147438414694400616078274122459190822474961601238453471233",
        "35541503283276933796147438414694400616078274122459190822474961601238453471234",
        "35541503283276933796147438414694400616078274122459190822474961601238453471236"
      ]
    },
    {
      "x": 105,
      "y": 344,
      "size": 1,
      "price": "3000000000000000000000",
      "reserved": "0x7a9fe22691c811ea339d9b73150e6911a5343dca",
      "assetIds": []
    },
    {
      "x": 104,
      "y": 344,
      "size": 1,
      "price": "6950000000000000000000",
      "assetIds": [
        "35541503283276933796147438414694400616078274122459190822474961601238453471232",
        "35541503283276933796147438414694400616078274122459190822474961601238453471233",
        "35541503283276933796147438414694400616078274122459190822474961601238453471234",
        "35541503283276933796147438414694400616078274122459190822474961601238453471237"
      ]
    },
    {
      "x": 103,
      "y": 344,
      "size": 1,
      "price": "6950000000000000000000",
      "assetIds": [
        "35541503283276933796147438414694400616078274122459190822474961601238453471232",
        "35541503283276933796147438414694400616078274122459190822474961601238453471233",
        "35541503283276933796147438414694400616078274122459190822474961601238453471234",
        "35541503283276933796147438414694400616078274122459190822474961601238453471238"
      ]
    },
    {
      "x": 102,
      "y": 344,
      "size": 1,
      "price": "6950000000000000000000",
      "assetIds": [
        "35541503283276933796147438414694400616078274122459190822474961601238453471232",
        "35541503283276933796147438414694400616078274122459190822474961601238453471233",
        "35541503283276933796147438414694400616078274122459190822474961601238453471234",
        "35541503283276933796147438414694400616078274122459190822474961601238453471239"
      ]
    },
    {
      "x": 99,
      "y": 345,
      "size": 1,
      "price": "3000000000000000000000",
      "assetIds": []
    },
    {
      "x": 100,
      "y": 345,
      "size": 1,
      "price": "3000000000000000000000",
      "assetIds": []
    },
    {
      "x": 101,
      "y": 345,
      "size": 1,
      "price": "3000000000000000000000",
      "assetIds": []
    },
    {
      "x": 102,
      "y": 345,
      "size": 1,
      "price": "3000000000000000000000",
      "assetIds": []
    },
    {
      "x": 103,
      "y": 345,
      "size": 1,
      "price": "6950000000000000000000",
      "assetIds": [
        "35541503283276933796147438414694400616078274122459190822474961601238453471232",
        "35541503283276933796147438414694400616078274122459190822474961601238453471233",
        "35541503283276933796147438414694400616078274122459190822474961601238453471234",
        "35541503283276933796147438414694400616078274122459190822474961601238453471240"
      ]
    },
    {
      "x": 104,
      "y": 345,
      "size": 1,
      "price": "6950000000000000000000",
      "assetIds": [
        "35541503283276933796147438414694400616078274122459190822474961601238453471232",
        "35541503283276933796147438414694400616078274122459190822474961601238453471233",
        "35541503283276933796147438414694400616078274122459190822474961601238453471234",
        "35541503283276933796147438414694400616078274122459190822474961601238453471237"
      ]
    },
    {
      "x": 105,
      "y": 345,
      "size": 1,
      "price": "6950000000000000000000",
      "assetIds": [
        "35541503283276933796147438414694400616078274122459190822474961601238453471232",
        "35541503283276933796147438414694400616078274122459190822474961601238453471233",
        "35541503283276933796147438414694400616078274122459190822474961601238453471234",
        "35541503283276933796147438414694400616078274122459190822474961601238453471235"
      ]
    },
    {
      "x": 106,
      "y": 345,
      "size": 1,
      "price": "6950000000000000000000",
      "assetIds": [
        "35541503283276933796147438414694400616078274122459190822474961601238453471232",
        "35541503283276933796147438414694400616078274122459190822474961601238453471233",
        "35541503283276933796147438414694400616078274122459190822474961601238453471234",
        "35541503283276933796147438414694400616078274122459190822474961601238453471236"
      ]
    },
    {
      "x": 107,
      "y": 345,
      "size": 1,
      "price": "6950000000000000000000",
      "assetIds": [
        "35541503283276933796147438414694400616078274122459190822474961601238453471232",
        "35541503283276933796147438414694400616078274122459190822474961601238453471233",
        "35541503283276933796147438414694400616078274122459190822474961601238453471234",
        "35541503283276933796147438414694400616078274122459190822474961601238453471236"
      ]
    },
    {
      "x": 120,
      "y": 345,
      "size": 1,
      "price": "6950000000000000000000",
      "assetIds": [
        "35541503283276933796147438414694400616078274122459190822474961601238453471232",
        "35541503283276933796147438414694400616078274122459190822474961601238453471233",
        "35541503283276933796147438414694400616078274122459190822474961601238453471234",
        "35541503283276933796147438414694400616078274122459190822474961601238453471239"
      ]
    },
    {
      "x": 121,
      "y": 345,
      "size": 1,
      "price": "6950000000000000000000",
      "assetIds": [
        "35541503283276933796147438414694400616078274122459190822474961601238453471232",
        "35541503283276933796147438414694400616078274122459190822474961601238453471233",
        "35541503283276933796147438414694400616078274122459190822474961601238453471234",
        "35541503283276933796147438414694400616078274122459190822474961601238453471239"
      ]
    },
    {
      "x": 121,
      "y": 346,
      "size": 1,
      "price": "6950000000000000000000",
      "assetIds": [
        "35541503283276933796147438414694400616078274122459190822474961601238453471232",
        "35541503283276933796147438414694400616078274122459190822474961601238453471233",
        "35541503283276933796147438414694400616078274122459190822474961601238453471234",
        "35541503283276933796147438414694400616078274122459190822474961601238453471237"
      ]
    },
    {
      "x": 120,
      "y": 346,
      "size": 1,
      "price": "6950000000000000000000",
      "assetIds": [
        "35541503283276933796147438414694400616078274122459190822474961601238453471232",
        "35541503283276933796147438414694400616078274122459190822474961601238453471233",
        "35541503283276933796147438414694400616078274122459190822474961601238453471234",
        "35541503283276933796147438414694400616078274122459190822474961601238453471235"
      ]
    },
    {
      "x": 107,
      "y": 346,
      "size": 1,
      "price": "6950000000000000000000",
      "assetIds": [
        "35541503283276933796147438414694400616078274122459190822474961601238453471232",
        "35541503283276933796147438414694400616078274122459190822474961601238453471233",
        "35541503283276933796147438414694400616078274122459190822474961601238453471234",
        "35541503283276933796147438414694400616078274122459190822474961601238453471235"
      ]
    },
    {
      "x": 106,
      "y": 346,
      "size": 1,
      "price": "6950000000000000000000",
      "assetIds": [
        "35541503283276933796147438414694400616078274122459190822474961601238453471232",
        "35541503283276933796147438414694400616078274122459190822474961601238453471233",
        "35541503283276933796147438414694400616078274122459190822474961601238453471234",
        "35541503283276933796147438414694400616078274122459190822474961601238453471237"
      ]
    },
    {
      "x": 105,
      "y": 346,
      "size": 1,
      "price": "6950000000000000000000",
      "assetIds": [
        "35541503283276933796147438414694400616078274122459190822474961601238453471232",
        "35541503283276933796147438414694400616078274122459190822474961601238453471233",
        "35541503283276933796147438414694400616078274122459190822474961601238453471234",
        "35541503283276933796147438414694400616078274122459190822474961601238453471240"
      ]
    },
    {
      "x": 104,
      "y": 346,
      "size": 1,
      "price": "6950000000000000000000",
      "assetIds": [
        "35541503283276933796147438414694400616078274122459190822474961601238453471232",
        "35541503283276933796147438414694400616078274122459190822474961601238453471233",
        "35541503283276933796147438414694400616078274122459190822474961601238453471234",
        "35541503283276933796147438414694400616078274122459190822474961601238453471238"
      ]
    },
    {
      "x": 103,
      "y": 346,
      "size": 1,
      "price": "6950000000000000000000",
      "assetIds": [
        "35541503283276933796147438414694400616078274122459190822474961601238453471232",
        "35541503283276933796147438414694400616078274122459190822474961601238453471233",
        "35541503283276933796147438414694400616078274122459190822474961601238453471234",
        "35541503283276933796147438414694400616078274122459190822474961601238453471240"
      ]
    },
    {
      "x": 102,
      "y": 346,
      "size": 1,
      "price": "6950000000000000000000",
      "assetIds": [
        "35541503283276933796147438414694400616078274122459190822474961601238453471232",
        "35541503283276933796147438414694400616078274122459190822474961601238453471233",
        "35541503283276933796147438414694400616078274122459190822474961601238453471234",
        "35541503283276933796147438414694400616078274122459190822474961601238453471236"
      ]
    },
    {
      "x": 101,
      "y": 346,
      "size": 1,
      "price": "3000000000000000000000",
      "assetIds": []
    },
    {
      "x": 100,
      "y": 346,
      "size": 1,
      "price": "3000000000000000000000",
      "assetIds": []
    },
    {
      "x": 99,
      "y": 346,
      "size": 1,
      "price": "3000000000000000000000",
      "assetIds": []
    },
    {
      "x": 99,
      "y": 347,
      "size": 1,
      "price": "3000000000000000000000",
      "reserved": "0x7a9fe22691c811ea339d9b73150e6911a5343dca",
      "assetIds": []
    },
    {
      "x": 100,
      "y": 347,
      "size": 1,
      "price": "3000000000000000000000",
      "assetIds": []
    },
    {
      "x": 101,
      "y": 347,
      "size": 1,
      "price": "3000000000000000000000",
      "assetIds": []
    },
    {
      "x": 102,
      "y": 347,
      "size": 1,
      "price": "3000000000000000000000",
      "assetIds": []
    },
    {
      "x": 103,
      "y": 347,
      "size": 1,
      "price": "6950000000000000000000",
      "assetIds": [
        "35541503283276933796147438414694400616078274122459190822474961601238453471232",
        "35541503283276933796147438414694400616078274122459190822474961601238453471233",
        "35541503283276933796147438414694400616078274122459190822474961601238453471234",
        "35541503283276933796147438414694400616078274122459190822474961601238453471236"
      ]
    },
    {
      "x": 104,
      "y": 347,
      "size": 1,
      "price": "6950000000000000000000",
      "assetIds": [
        "35541503283276933796147438414694400616078274122459190822474961601238453471232",
        "35541503283276933796147438414694400616078274122459190822474961601238453471233",
        "35541503283276933796147438414694400616078274122459190822474961601238453471234",
        "35541503283276933796147438414694400616078274122459190822474961601238453471235"
      ]
    },
    {
      "x": 105,
      "y": 347,
      "size": 1,
      "price": "6950000000000000000000",
      "assetIds": [
        "35541503283276933796147438414694400616078274122459190822474961601238453471232",
        "35541503283276933796147438414694400616078274122459190822474961601238453471233",
        "35541503283276933796147438414694400616078274122459190822474961601238453471234",
        "35541503283276933796147438414694400616078274122459190822474961601238453471237"
      ]
    },
    {
      "x": 106,
      "y": 347,
      "size": 1,
      "price": "6950000000000000000000",
      "assetIds": [
        "35541503283276933796147438414694400616078274122459190822474961601238453471232",
        "35541503283276933796147438414694400616078274122459190822474961601238453471233",
        "35541503283276933796147438414694400616078274122459190822474961601238453471234",
        "35541503283276933796147438414694400616078274122459190822474961601238453471236"
      ]
    },
    {
      "x": 107,
      "y": 347,
      "size": 1,
      "price": "6950000000000000000000",
      "assetIds": [
        "35541503283276933796147438414694400616078274122459190822474961601238453471232",
        "35541503283276933796147438414694400616078274122459190822474961601238453471233",
        "35541503283276933796147438414694400616078274122459190822474961601238453471234",
        "35541503283276933796147438414694400616078274122459190822474961601238453471236"
      ]
    },
    {
      "x": 120,
      "y": 347,
      "size": 1,
      "price": "6950000000000000000000",
      "assetIds": [
        "35541503283276933796147438414694400616078274122459190822474961601238453471232",
        "35541503283276933796147438414694400616078274122459190822474961601238453471233",
        "35541503283276933796147438414694400616078274122459190822474961601238453471234",
        "35541503283276933796147438414694400616078274122459190822474961601238453471236"
      ]
    },
    {
      "x": 121,
      "y": 347,
      "size": 1,
      "price": "6950000000000000000000",
      "assetIds": [
        "35541503283276933796147438414694400616078274122459190822474961601238453471232",
        "35541503283276933796147438414694400616078274122459190822474961601238453471233",
        "35541503283276933796147438414694400616078274122459190822474961601238453471234",
        "35541503283276933796147438414694400616078274122459190822474961601238453471235"
      ]
    },
    {
      "x": 125,
      "y": 338,
      "size": 1,
      "price": "3000000000000000000000",
      "assetIds": []
    },
    {
      "x": 125,
      "y": 337,
      "size": 1,
      "price": "3000000000000000000000",
      "assetIds": []
    },
    {
      "x": 125,
      "y": 336,
      "size": 1,
      "price": "3000000000000000000000",
      "assetIds": []
    },
    {
      "x": 125,
      "y": 335,
      "size": 1,
      "price": "3000000000000000000000",
      "reserved": "0x7a9fe22691c811ea339d9b73150e6911a5343dca",
      "assetIds": []
    },
    {
      "x": 125,
      "y": 334,
      "size": 1,
      "price": "3000000000000000000000",
      "assetIds": []
    },
    {
      "x": 125,
      "y": 333,
      "size": 1,
      "price": "3000000000000000000000",
      "assetIds": []
    },
    {
      "x": 124,
      "y": 333,
      "size": 1,
      "price": "3000000000000000000000",
      "assetIds": []
    },
    {
      "x": 124,
      "y": 334,
      "size": 1,
      "price": "3000000000000000000000",
      "assetIds": []
    },
    {
      "x": 124,
      "y": 335,
      "size": 1,
      "price": "3000000000000000000000",
      "assetIds": []
    },
    {
      "x": 124,
      "y": 336,
      "size": 1,
      "price": "6950000000000000000000",
      "assetIds": [
        "35541503283276933796147438414694400616078274122459190822474961601238453471232",
        "35541503283276933796147438414694400616078274122459190822474961601238453471233",
        "35541503283276933796147438414694400616078274122459190822474961601238453471234",
        "35541503283276933796147438414694400616078274122459190822474961601238453471235"
      ]
    },
    {
      "x": 124,
      "y": 337,
      "size": 1,
      "price": "3000000000000000000000",
      "assetIds": []
    },
    {
      "x": 124,
      "y": 338,
      "size": 1,
      "price": "6950000000000000000000",
      "assetIds": [
        "35541503283276933796147438414694400616078274122459190822474961601238453471232",
        "35541503283276933796147438414694400616078274122459190822474961601238453471233",
        "35541503283276933796147438414694400616078274122459190822474961601238453471234",
        "35541503283276933796147438414694400616078274122459190822474961601238453471235"
      ]
    },
    {
      "x": 123,
      "y": 337,
      "size": 1,
      "price": "6950000000000000000000",
      "assetIds": [
        "35541503283276933796147438414694400616078274122459190822474961601238453471232",
        "35541503283276933796147438414694400616078274122459190822474961601238453471233",
        "35541503283276933796147438414694400616078274122459190822474961601238453471234",
        "35541503283276933796147438414694400616078274122459190822474961601238453471235"
      ]
    },
    {
      "x": 123,
      "y": 336,
      "size": 1,
      "price": "6950000000000000000000",
      "assetIds": [
        "35541503283276933796147438414694400616078274122459190822474961601238453471232",
        "35541503283276933796147438414694400616078274122459190822474961601238453471233",
        "35541503283276933796147438414694400616078274122459190822474961601238453471234",
        "35541503283276933796147438414694400616078274122459190822474961601238453471237"
      ]
    },
    {
      "x": 123,
      "y": 335,
      "size": 1,
      "price": "6950000000000000000000",
      "assetIds": [
        "35541503283276933796147438414694400616078274122459190822474961601238453471232",
        "35541503283276933796147438414694400616078274122459190822474961601238453471233",
        "35541503283276933796147438414694400616078274122459190822474961601238453471234",
        "35541503283276933796147438414694400616078274122459190822474961601238453471235"
      ]
    },
    {
      "x": 123,
      "y": 334,
      "size": 1,
      "price": "6950000000000000000000",
      "assetIds": [
        "35541503283276933796147438414694400616078274122459190822474961601238453471232",
        "35541503283276933796147438414694400616078274122459190822474961601238453471233",
        "35541503283276933796147438414694400616078274122459190822474961601238453471234",
        "35541503283276933796147438414694400616078274122459190822474961601238453471235"
      ]
    },
    {
      "x": 123,
      "y": 333,
      "size": 1,
      "price": "3000000000000000000000",
      "assetIds": []
    },
    {
      "x": 123,
      "y": 338,
      "size": 1,
      "price": "6950000000000000000000",
      "assetIds": [
        "35541503283276933796147438414694400616078274122459190822474961601238453471232",
        "35541503283276933796147438414694400616078274122459190822474961601238453471233",
        "35541503283276933796147438414694400616078274122459190822474961601238453471234",
        "35541503283276933796147438414694400616078274122459190822474961601238453471236"
      ]
    },
    {
      "x": 122,
      "y": 338,
      "size": 1,
      "price": "6950000000000000000000",
      "assetIds": [
        "35541503283276933796147438414694400616078274122459190822474961601238453471232",
        "35541503283276933796147438414694400616078274122459190822474961601238453471233",
        "35541503283276933796147438414694400616078274122459190822474961601238453471234",
        "35541503283276933796147438414694400616078274122459190822474961601238453471238"
      ]
    },
    {
      "x": 122,
      "y": 337,
      "size": 1,
      "price": "6950000000000000000000",
      "assetIds": [
        "35541503283276933796147438414694400616078274122459190822474961601238453471232",
        "35541503283276933796147438414694400616078274122459190822474961601238453471233",
        "35541503283276933796147438414694400616078274122459190822474961601238453471234",
        "35541503283276933796147438414694400616078274122459190822474961601238453471235"
      ]
    },
    {
      "x": 121,
      "y": 337,
      "size": 1,
      "price": "6950000000000000000000",
      "assetIds": [
        "35541503283276933796147438414694400616078274122459190822474961601238453471232",
        "35541503283276933796147438414694400616078274122459190822474961601238453471233",
        "35541503283276933796147438414694400616078274122459190822474961601238453471234",
        "35541503283276933796147438414694400616078274122459190822474961601238453471237"
      ]
    },
    {
      "x": 121,
      "y": 336,
      "size": 1,
      "price": "6950000000000000000000",
      "assetIds": [
        "35541503283276933796147438414694400616078274122459190822474961601238453471232",
        "35541503283276933796147438414694400616078274122459190822474961601238453471233",
        "35541503283276933796147438414694400616078274122459190822474961601238453471234",
        "35541503283276933796147438414694400616078274122459190822474961601238453471237"
      ]
    },
    {
      "x": 122,
      "y": 336,
      "size": 1,
      "price": "6950000000000000000000",
      "assetIds": [
        "35541503283276933796147438414694400616078274122459190822474961601238453471232",
        "35541503283276933796147438414694400616078274122459190822474961601238453471233",
        "35541503283276933796147438414694400616078274122459190822474961601238453471234",
        "35541503283276933796147438414694400616078274122459190822474961601238453471239"
      ]
    },
    {
      "x": 122,
      "y": 335,
      "size": 1,
      "price": "6950000000000000000000",
      "assetIds": [
        "35541503283276933796147438414694400616078274122459190822474961601238453471232",
        "35541503283276933796147438414694400616078274122459190822474961601238453471233",
        "35541503283276933796147438414694400616078274122459190822474961601238453471234",
        "35541503283276933796147438414694400616078274122459190822474961601238453471240"
      ]
    },
    {
      "x": 122,
      "y": 334,
      "size": 1,
      "price": "6950000000000000000000",
      "assetIds": [
        "35541503283276933796147438414694400616078274122459190822474961601238453471232",
        "35541503283276933796147438414694400616078274122459190822474961601238453471233",
        "35541503283276933796147438414694400616078274122459190822474961601238453471234",
        "35541503283276933796147438414694400616078274122459190822474961601238453471238"
      ]
    },
    {
      "x": 121,
      "y": 334,
      "size": 1,
      "price": "6950000000000000000000",
      "assetIds": [
        "35541503283276933796147438414694400616078274122459190822474961601238453471232",
        "35541503283276933796147438414694400616078274122459190822474961601238453471233",
        "35541503283276933796147438414694400616078274122459190822474961601238453471234",
        "35541503283276933796147438414694400616078274122459190822474961601238453471239"
      ]
    },
    {
      "x": 121,
      "y": 333,
      "size": 1,
      "price": "6950000000000000000000",
      "assetIds": [
        "35541503283276933796147438414694400616078274122459190822474961601238453471232",
        "35541503283276933796147438414694400616078274122459190822474961601238453471233",
        "35541503283276933796147438414694400616078274122459190822474961601238453471234",
        "35541503283276933796147438414694400616078274122459190822474961601238453471240"
      ]
    },
    {
      "x": 122,
      "y": 333,
      "size": 1,
      "price": "3000000000000000000000",
      "reserved": "0x7a9fe22691c811ea339d9b73150e6911a5343dca",
      "assetIds": []
    },
    {
      "x": 121,
      "y": 338,
      "size": 1,
      "price": "3000000000000000000000",
      "reserved": "0x7a9fe22691c811ea339d9b73150e6911a5343dca",
      "assetIds": []
    },
    {
      "x": 120,
      "y": 338,
      "size": 1,
      "price": "6950000000000000000000",
      "assetIds": [
        "35541503283276933796147438414694400616078274122459190822474961601238453471232",
        "35541503283276933796147438414694400616078274122459190822474961601238453471233",
        "35541503283276933796147438414694400616078274122459190822474961601238453471234",
        "35541503283276933796147438414694400616078274122459190822474961601238453471239"
      ]
    },
    {
      "x": 120,
      "y": 337,
      "size": 1,
      "price": "6950000000000000000000",
      "assetIds": [
        "35541503283276933796147438414694400616078274122459190822474961601238453471232",
        "35541503283276933796147438414694400616078274122459190822474961601238453471233",
        "35541503283276933796147438414694400616078274122459190822474961601238453471234",
        "35541503283276933796147438414694400616078274122459190822474961601238453471237"
      ]
    },
    {
      "x": 120,
      "y": 336,
      "size": 1,
      "price": "6950000000000000000000",
      "assetIds": [
        "35541503283276933796147438414694400616078274122459190822474961601238453471232",
        "35541503283276933796147438414694400616078274122459190822474961601238453471233",
        "35541503283276933796147438414694400616078274122459190822474961601238453471234",
        "35541503283276933796147438414694400616078274122459190822474961601238453471236"
      ]
    },
    {
      "x": 120,
      "y": 335,
      "size": 1,
      "price": "6950000000000000000000",
      "assetIds": [
        "35541503283276933796147438414694400616078274122459190822474961601238453471232",
        "35541503283276933796147438414694400616078274122459190822474961601238453471233",
        "35541503283276933796147438414694400616078274122459190822474961601238453471234",
        "35541503283276933796147438414694400616078274122459190822474961601238453471239"
      ]
    },
    {
      "x": 121,
      "y": 335,
      "size": 1,
      "price": "6950000000000000000000",
      "assetIds": [
        "35541503283276933796147438414694400616078274122459190822474961601238453471232",
        "35541503283276933796147438414694400616078274122459190822474961601238453471233",
        "35541503283276933796147438414694400616078274122459190822474961601238453471234",
        "35541503283276933796147438414694400616078274122459190822474961601238453471237"
      ]
    },
    {
      "x": 120,
      "y": 334,
      "size": 1,
      "price": "6950000000000000000000",
      "assetIds": [
        "35541503283276933796147438414694400616078274122459190822474961601238453471232",
        "35541503283276933796147438414694400616078274122459190822474961601238453471233",
        "35541503283276933796147438414694400616078274122459190822474961601238453471234",
        "35541503283276933796147438414694400616078274122459190822474961601238453471236"
      ]
    },
    {
      "x": 119,
      "y": 334,
      "size": 1,
      "price": "6950000000000000000000",
      "assetIds": [
        "35541503283276933796147438414694400616078274122459190822474961601238453471232",
        "35541503283276933796147438414694400616078274122459190822474961601238453471233",
        "35541503283276933796147438414694400616078274122459190822474961601238453471234",
        "35541503283276933796147438414694400616078274122459190822474961601238453471235"
      ]
    },
    {
      "x": 118,
      "y": 334,
      "size": 1,
      "price": "3000000000000000000000",
      "reserved": "0x7a9fe22691c811ea339d9b73150e6911a5343dca",
      "assetIds": []
    },
    {
      "x": 117,
      "y": 334,
      "size": 1,
      "price": "6950000000000000000000",
      "assetIds": [
        "35541503283276933796147438414694400616078274122459190822474961601238453471232",
        "35541503283276933796147438414694400616078274122459190822474961601238453471233",
        "35541503283276933796147438414694400616078274122459190822474961601238453471234",
        "35541503283276933796147438414694400616078274122459190822474961601238453471235"
      ]
    },
    {
      "x": 116,
      "y": 333,
      "size": 1,
      "price": "6950000000000000000000",
      "assetIds": [
        "35541503283276933796147438414694400616078274122459190822474961601238453471232",
        "35541503283276933796147438414694400616078274122459190822474961601238453471233",
        "35541503283276933796147438414694400616078274122459190822474961601238453471234",
        "35541503283276933796147438414694400616078274122459190822474961601238453471240"
      ]
    },
    {
      "x": 115,
      "y": 333,
      "size": 1,
      "price": "6950000000000000000000",
      "assetIds": [
        "35541503283276933796147438414694400616078274122459190822474961601238453471232",
        "35541503283276933796147438414694400616078274122459190822474961601238453471233",
        "35541503283276933796147438414694400616078274122459190822474961601238453471234",
        "35541503283276933796147438414694400616078274122459190822474961601238453471239"
      ]
    },
    {
      "x": 114,
      "y": 334,
      "size": 1,
      "price": "6950000000000000000000",
      "assetIds": [
        "35541503283276933796147438414694400616078274122459190822474961601238453471232",
        "35541503283276933796147438414694400616078274122459190822474961601238453471233",
        "35541503283276933796147438414694400616078274122459190822474961601238453471234",
        "35541503283276933796147438414694400616078274122459190822474961601238453471236"
      ]
    },
    {
      "x": 114,
      "y": 335,
      "size": 1,
      "price": "6950000000000000000000",
      "assetIds": [
        "35541503283276933796147438414694400616078274122459190822474961601238453471232",
        "35541503283276933796147438414694400616078274122459190822474961601238453471233",
        "35541503283276933796147438414694400616078274122459190822474961601238453471234",
        "35541503283276933796147438414694400616078274122459190822474961601238453471236"
      ]
    },
    {
      "x": 113,
      "y": 335,
      "size": 1,
      "price": "6950000000000000000000",
      "assetIds": [
        "35541503283276933796147438414694400616078274122459190822474961601238453471232",
        "35541503283276933796147438414694400616078274122459190822474961601238453471233",
        "35541503283276933796147438414694400616078274122459190822474961601238453471234",
        "35541503283276933796147438414694400616078274122459190822474961601238453471240"
      ]
    },
    {
      "x": 113,
      "y": 334,
      "size": 1,
      "price": "6950000000000000000000",
      "assetIds": [
        "35541503283276933796147438414694400616078274122459190822474961601238453471232",
        "35541503283276933796147438414694400616078274122459190822474961601238453471233",
        "35541503283276933796147438414694400616078274122459190822474961601238453471234",
        "35541503283276933796147438414694400616078274122459190822474961601238453471235"
      ]
    },
    {
      "x": 112,
      "y": 334,
      "size": 1,
      "price": "6950000000000000000000",
      "assetIds": [
        "35541503283276933796147438414694400616078274122459190822474961601238453471232",
        "35541503283276933796147438414694400616078274122459190822474961601238453471233",
        "35541503283276933796147438414694400616078274122459190822474961601238453471234",
        "35541503283276933796147438414694400616078274122459190822474961601238453471239"
      ]
    },
    {
      "x": 112,
      "y": 333,
      "size": 1,
      "price": "6950000000000000000000",
      "assetIds": [
        "35541503283276933796147438414694400616078274122459190822474961601238453471232",
        "35541503283276933796147438414694400616078274122459190822474961601238453471233",
        "35541503283276933796147438414694400616078274122459190822474961601238453471234",
        "35541503283276933796147438414694400616078274122459190822474961601238453471238"
      ]
    },
    {
      "x": 113,
      "y": 333,
      "size": 1,
      "price": "6950000000000000000000",
      "assetIds": [
        "35541503283276933796147438414694400616078274122459190822474961601238453471232",
        "35541503283276933796147438414694400616078274122459190822474961601238453471233",
        "35541503283276933796147438414694400616078274122459190822474961601238453471234",
        "35541503283276933796147438414694400616078274122459190822474961601238453471240"
      ]
    },
    {
      "x": 114,
      "y": 333,
      "size": 1,
      "price": "6950000000000000000000",
      "assetIds": [
        "35541503283276933796147438414694400616078274122459190822474961601238453471232",
        "35541503283276933796147438414694400616078274122459190822474961601238453471233",
        "35541503283276933796147438414694400616078274122459190822474961601238453471234",
        "35541503283276933796147438414694400616078274122459190822474961601238453471235"
      ]
    },
    {
      "x": 115,
      "y": 334,
      "size": 1,
      "price": "6950000000000000000000",
      "assetIds": [
        "35541503283276933796147438414694400616078274122459190822474961601238453471232",
        "35541503283276933796147438414694400616078274122459190822474961601238453471233",
        "35541503283276933796147438414694400616078274122459190822474961601238453471234",
        "35541503283276933796147438414694400616078274122459190822474961601238453471240"
      ]
    },
    {
      "x": 116,
      "y": 334,
      "size": 1,
      "price": "6950000000000000000000",
      "assetIds": [
        "35541503283276933796147438414694400616078274122459190822474961601238453471232",
        "35541503283276933796147438414694400616078274122459190822474961601238453471233",
        "35541503283276933796147438414694400616078274122459190822474961601238453471234",
        "35541503283276933796147438414694400616078274122459190822474961601238453471235"
      ]
    },
    {
      "x": 110,
      "y": 334,
      "size": 1,
      "price": "6950000000000000000000",
      "assetIds": [
        "35541503283276933796147438414694400616078274122459190822474961601238453471232",
        "35541503283276933796147438414694400616078274122459190822474961601238453471233",
        "35541503283276933796147438414694400616078274122459190822474961601238453471234",
        "35541503283276933796147438414694400616078274122459190822474961601238453471239"
      ]
    },
    {
      "x": 109,
      "y": 334,
      "size": 1,
      "price": "6950000000000000000000",
      "assetIds": [
        "35541503283276933796147438414694400616078274122459190822474961601238453471232",
        "35541503283276933796147438414694400616078274122459190822474961601238453471233",
        "35541503283276933796147438414694400616078274122459190822474961601238453471234",
        "35541503283276933796147438414694400616078274122459190822474961601238453471236"
      ]
    },
    {
      "x": 108,
      "y": 334,
      "size": 1,
      "price": "6950000000000000000000",
      "assetIds": [
        "35541503283276933796147438414694400616078274122459190822474961601238453471232",
        "35541503283276933796147438414694400616078274122459190822474961601238453471233",
        "35541503283276933796147438414694400616078274122459190822474961601238453471234",
        "35541503283276933796147438414694400616078274122459190822474961601238453471235"
      ]
    },
    {
      "x": 107,
      "y": 334,
      "size": 1,
      "price": "3000000000000000000000",
      "reserved": "0x7a9fe22691c811ea339d9b73150e6911a5343dca",
      "assetIds": []
    },
    {
      "x": 106,
      "y": 334,
      "size": 1,
      "price": "6950000000000000000000",
      "assetIds": [
        "35541503283276933796147438414694400616078274122459190822474961601238453471232",
        "35541503283276933796147438414694400616078274122459190822474961601238453471233",
        "35541503283276933796147438414694400616078274122459190822474961601238453471234",
        "35541503283276933796147438414694400616078274122459190822474961601238453471237"
      ]
    },
    {
      "x": 105,
      "y": 334,
      "size": 1,
      "price": "6950000000000000000000",
      "assetIds": [
        "35541503283276933796147438414694400616078274122459190822474961601238453471232",
        "35541503283276933796147438414694400616078274122459190822474961601238453471233",
        "35541503283276933796147438414694400616078274122459190822474961601238453471234",
        "35541503283276933796147438414694400616078274122459190822474961601238453471235"
      ]
    },
    {
      "x": 104,
      "y": 334,
      "size": 1,
      "price": "6950000000000000000000",
      "assetIds": [
        "35541503283276933796147438414694400616078274122459190822474961601238453471232",
        "35541503283276933796147438414694400616078274122459190822474961601238453471233",
        "35541503283276933796147438414694400616078274122459190822474961601238453471234",
        "35541503283276933796147438414694400616078274122459190822474961601238453471235"
      ]
    },
    {
      "x": 103,
      "y": 334,
      "size": 1,
      "price": "3000000000000000000000",
      "assetIds": []
    },
    {
      "x": 102,
      "y": 334,
      "size": 1,
      "price": "3000000000000000000000",
      "assetIds": []
    },
    {
      "x": 101,
      "y": 334,
      "size": 1,
      "price": "3000000000000000000000",
      "reserved": "0x7a9fe22691c811ea339d9b73150e6911a5343dca",
      "assetIds": []
    },
    {
      "x": 100,
      "y": 334,
      "size": 1,
      "price": "3000000000000000000000",
      "assetIds": []
    },
    {
      "x": 111,
      "y": 334,
      "size": 1,
      "price": "6950000000000000000000",
      "assetIds": [
        "35541503283276933796147438414694400616078274122459190822474961601238453471232",
        "35541503283276933796147438414694400616078274122459190822474961601238453471233",
        "35541503283276933796147438414694400616078274122459190822474961601238453471234",
        "35541503283276933796147438414694400616078274122459190822474961601238453471238"
      ]
    },
    {
      "x": 119,
      "y": 335,
      "size": 1,
      "price": "6950000000000000000000",
      "assetIds": [
        "35541503283276933796147438414694400616078274122459190822474961601238453471232",
        "35541503283276933796147438414694400616078274122459190822474961601238453471233",
        "35541503283276933796147438414694400616078274122459190822474961601238453471234",
        "35541503283276933796147438414694400616078274122459190822474961601238453471237"
      ]
    },
    {
      "x": 118,
      "y": 335,
      "size": 1,
      "price": "6950000000000000000000",
      "assetIds": [
        "35541503283276933796147438414694400616078274122459190822474961601238453471232",
        "35541503283276933796147438414694400616078274122459190822474961601238453471233",
        "35541503283276933796147438414694400616078274122459190822474961601238453471234",
        "35541503283276933796147438414694400616078274122459190822474961601238453471239"
      ]
    },
    {
      "x": 117,
      "y": 335,
      "size": 1,
      "price": "6950000000000000000000",
      "assetIds": [
        "35541503283276933796147438414694400616078274122459190822474961601238453471232",
        "35541503283276933796147438414694400616078274122459190822474961601238453471233",
        "35541503283276933796147438414694400616078274122459190822474961601238453471234",
        "35541503283276933796147438414694400616078274122459190822474961601238453471239"
      ]
    },
    {
      "x": 116,
      "y": 335,
      "size": 1,
      "price": "6950000000000000000000",
      "assetIds": [
        "35541503283276933796147438414694400616078274122459190822474961601238453471232",
        "35541503283276933796147438414694400616078274122459190822474961601238453471233",
        "35541503283276933796147438414694400616078274122459190822474961601238453471234",
        "35541503283276933796147438414694400616078274122459190822474961601238453471239"
      ]
    },
    {
      "x": 115,
      "y": 335,
      "size": 1,
      "price": "6950000000000000000000",
      "assetIds": [
        "35541503283276933796147438414694400616078274122459190822474961601238453471232",
        "35541503283276933796147438414694400616078274122459190822474961601238453471233",
        "35541503283276933796147438414694400616078274122459190822474961601238453471234",
        "35541503283276933796147438414694400616078274122459190822474961601238453471235"
      ]
    },
    {
      "x": 112,
      "y": 335,
      "size": 1,
      "price": "3000000000000000000000",
      "reserved": "0x7a9fe22691c811ea339d9b73150e6911a5343dca",
      "assetIds": []
    },
    {
      "x": 111,
      "y": 335,
      "size": 1,
      "price": "6950000000000000000000",
      "assetIds": [
        "35541503283276933796147438414694400616078274122459190822474961601238453471232",
        "35541503283276933796147438414694400616078274122459190822474961601238453471233",
        "35541503283276933796147438414694400616078274122459190822474961601238453471234",
        "35541503283276933796147438414694400616078274122459190822474961601238453471236"
      ]
    },
    {
      "x": 110,
      "y": 335,
      "size": 1,
      "price": "6950000000000000000000",
      "assetIds": [
        "35541503283276933796147438414694400616078274122459190822474961601238453471232",
        "35541503283276933796147438414694400616078274122459190822474961601238453471233",
        "35541503283276933796147438414694400616078274122459190822474961601238453471234",
        "35541503283276933796147438414694400616078274122459190822474961601238453471236"
      ]
    },
    {
      "x": 109,
      "y": 335,
      "size": 1,
      "price": "6950000000000000000000",
      "assetIds": [
        "35541503283276933796147438414694400616078274122459190822474961601238453471232",
        "35541503283276933796147438414694400616078274122459190822474961601238453471233",
        "35541503283276933796147438414694400616078274122459190822474961601238453471234",
        "35541503283276933796147438414694400616078274122459190822474961601238453471240"
      ]
    },
    {
      "x": 108,
      "y": 335,
      "size": 1,
      "price": "6950000000000000000000",
      "assetIds": [
        "35541503283276933796147438414694400616078274122459190822474961601238453471232",
        "35541503283276933796147438414694400616078274122459190822474961601238453471233",
        "35541503283276933796147438414694400616078274122459190822474961601238453471234",
        "35541503283276933796147438414694400616078274122459190822474961601238453471236"
      ]
    },
    {
      "x": 107,
      "y": 335,
      "size": 1,
      "price": "6950000000000000000000",
      "assetIds": [
        "35541503283276933796147438414694400616078274122459190822474961601238453471232",
        "35541503283276933796147438414694400616078274122459190822474961601238453471233",
        "35541503283276933796147438414694400616078274122459190822474961601238453471234",
        "35541503283276933796147438414694400616078274122459190822474961601238453471238"
      ]
    },
    {
      "x": 106,
      "y": 335,
      "size": 1,
      "price": "6950000000000000000000",
      "assetIds": [
        "35541503283276933796147438414694400616078274122459190822474961601238453471232",
        "35541503283276933796147438414694400616078274122459190822474961601238453471233",
        "35541503283276933796147438414694400616078274122459190822474961601238453471234",
        "35541503283276933796147438414694400616078274122459190822474961601238453471240"
      ]
    },
    {
      "x": 105,
      "y": 335,
      "size": 1,
      "price": "6950000000000000000000",
      "assetIds": [
        "35541503283276933796147438414694400616078274122459190822474961601238453471232",
        "35541503283276933796147438414694400616078274122459190822474961601238453471233",
        "35541503283276933796147438414694400616078274122459190822474961601238453471234",
        "35541503283276933796147438414694400616078274122459190822474961601238453471238"
      ]
    },
    {
      "x": 104,
      "y": 335,
      "size": 1,
      "price": "6950000000000000000000",
      "assetIds": [
        "35541503283276933796147438414694400616078274122459190822474961601238453471232",
        "35541503283276933796147438414694400616078274122459190822474961601238453471233",
        "35541503283276933796147438414694400616078274122459190822474961601238453471234",
        "35541503283276933796147438414694400616078274122459190822474961601238453471239"
      ]
    },
    {
      "x": 103,
      "y": 335,
      "size": 1,
      "price": "6950000000000000000000",
      "assetIds": [
        "35541503283276933796147438414694400616078274122459190822474961601238453471232",
        "35541503283276933796147438414694400616078274122459190822474961601238453471233",
        "35541503283276933796147438414694400616078274122459190822474961601238453471234",
        "35541503283276933796147438414694400616078274122459190822474961601238453471237"
      ]
    },
    {
      "x": 102,
      "y": 335,
      "size": 1,
      "price": "3000000000000000000000",
      "assetIds": []
    },
    {
      "x": 101,
      "y": 335,
      "size": 1,
      "price": "3000000000000000000000",
      "assetIds": []
    },
    {
      "x": 100,
      "y": 335,
      "size": 1,
      "price": "3000000000000000000000",
      "assetIds": []
    },
    {
      "x": 99,
      "y": 335,
      "size": 1,
      "price": "3000000000000000000000",
      "assetIds": []
    },
    {
      "x": 98,
      "y": 335,
      "size": 1,
      "price": "3000000000000000000000",
      "assetIds": []
    },
    {
      "x": 97,
      "y": 335,
      "size": 1,
      "price": "3000000000000000000000",
      "assetIds": []
    },
    {
      "x": 96,
      "y": 335,
      "size": 1,
      "price": "3000000000000000000000",
      "assetIds": []
    },
    {
      "x": 92,
      "y": 336,
      "size": 1,
      "price": "3000000000000000000000",
      "assetIds": []
    },
    {
      "x": 91,
      "y": 336,
      "size": 1,
      "price": "3000000000000000000000",
      "assetIds": []
    },
    {
      "x": 90,
      "y": 336,
      "size": 1,
      "price": "3000000000000000000000",
      "assetIds": []
    },
    {
      "x": 99,
      "y": 336,
      "size": 1,
      "price": "3000000000000000000000",
      "assetIds": []
    },
    {
      "x": 100,
      "y": 336,
      "size": 1,
      "price": "3000000000000000000000",
      "assetIds": []
    },
    {
      "x": 101,
      "y": 336,
      "size": 1,
      "price": "3000000000000000000000",
      "assetIds": []
    },
    {
      "x": 102,
      "y": 336,
      "size": 1,
      "price": "3000000000000000000000",
      "assetIds": []
    },
    {
      "x": 103,
      "y": 336,
      "size": 1,
      "price": "6950000000000000000000",
      "assetIds": [
        "35541503283276933796147438414694400616078274122459190822474961601238453471232",
        "35541503283276933796147438414694400616078274122459190822474961601238453471233",
        "35541503283276933796147438414694400616078274122459190822474961601238453471234",
        "35541503283276933796147438414694400616078274122459190822474961601238453471236"
      ]
    },
    {
      "x": 104,
      "y": 336,
      "size": 1,
      "price": "3000000000000000000000",
      "reserved": "0x7a9fe22691c811ea339d9b73150e6911a5343dca",
      "assetIds": []
    },
    {
      "x": 105,
      "y": 336,
      "size": 1,
      "price": "6950000000000000000000",
      "assetIds": [
        "35541503283276933796147438414694400616078274122459190822474961601238453471232",
        "35541503283276933796147438414694400616078274122459190822474961601238453471233",
        "35541503283276933796147438414694400616078274122459190822474961601238453471234",
        "35541503283276933796147438414694400616078274122459190822474961601238453471238"
      ]
    },
    {
      "x": 106,
      "y": 336,
      "size": 1,
      "price": "6950000000000000000000",
      "assetIds": [
        "35541503283276933796147438414694400616078274122459190822474961601238453471232",
        "35541503283276933796147438414694400616078274122459190822474961601238453471233",
        "35541503283276933796147438414694400616078274122459190822474961601238453471234",
        "35541503283276933796147438414694400616078274122459190822474961601238453471238"
      ]
    },
    {
      "x": 107,
      "y": 336,
      "size": 1,
      "price": "6950000000000000000000",
      "assetIds": [
        "35541503283276933796147438414694400616078274122459190822474961601238453471232",
        "35541503283276933796147438414694400616078274122459190822474961601238453471233",
        "35541503283276933796147438414694400616078274122459190822474961601238453471234",
        "35541503283276933796147438414694400616078274122459190822474961601238453471237"
      ]
    },
    {
      "x": 116,
      "y": 332,
      "size": 1,
      "price": "6950000000000000000000",
      "assetIds": [
        "35541503283276933796147438414694400616078274122459190822474961601238453471232",
        "35541503283276933796147438414694400616078274122459190822474961601238453471233",
        "35541503283276933796147438414694400616078274122459190822474961601238453471234",
        "35541503283276933796147438414694400616078274122459190822474961601238453471238"
      ]
    },
    {
      "x": 117,
      "y": 332,
      "size": 1,
      "price": "6950000000000000000000",
      "assetIds": [
        "35541503283276933796147438414694400616078274122459190822474961601238453471232",
        "35541503283276933796147438414694400616078274122459190822474961601238453471233",
        "35541503283276933796147438414694400616078274122459190822474961601238453471234",
        "35541503283276933796147438414694400616078274122459190822474961601238453471240"
      ]
    },
    {
      "x": 118,
      "y": 332,
      "size": 1,
      "price": "6950000000000000000000",
      "assetIds": [
        "35541503283276933796147438414694400616078274122459190822474961601238453471232",
        "35541503283276933796147438414694400616078274122459190822474961601238453471233",
        "35541503283276933796147438414694400616078274122459190822474961601238453471234",
        "35541503283276933796147438414694400616078274122459190822474961601238453471238"
      ]
    },
    {
      "x": 119,
      "y": 332,
      "size": 1,
      "price": "6950000000000000000000",
      "assetIds": [
        "35541503283276933796147438414694400616078274122459190822474961601238453471232",
        "35541503283276933796147438414694400616078274122459190822474961601238453471233",
        "35541503283276933796147438414694400616078274122459190822474961601238453471234",
        "35541503283276933796147438414694400616078274122459190822474961601238453471239"
      ]
    },
    {
      "x": 120,
      "y": 332,
      "size": 1,
      "price": "6950000000000000000000",
      "assetIds": [
        "35541503283276933796147438414694400616078274122459190822474961601238453471232",
        "35541503283276933796147438414694400616078274122459190822474961601238453471233",
        "35541503283276933796147438414694400616078274122459190822474961601238453471234",
        "35541503283276933796147438414694400616078274122459190822474961601238453471237"
      ]
    },
    {
      "x": 120,
      "y": 333,
      "size": 1,
      "price": "6950000000000000000000",
      "assetIds": [
        "35541503283276933796147438414694400616078274122459190822474961601238453471232",
        "35541503283276933796147438414694400616078274122459190822474961601238453471233",
        "35541503283276933796147438414694400616078274122459190822474961601238453471234",
        "35541503283276933796147438414694400616078274122459190822474961601238453471235"
      ]
    },
    {
      "x": 119,
      "y": 333,
      "size": 1,
      "price": "6950000000000000000000",
      "assetIds": [
        "35541503283276933796147438414694400616078274122459190822474961601238453471232",
        "35541503283276933796147438414694400616078274122459190822474961601238453471233",
        "35541503283276933796147438414694400616078274122459190822474961601238453471234",
        "35541503283276933796147438414694400616078274122459190822474961601238453471236"
      ]
    },
    {
      "x": 118,
      "y": 331,
      "size": 1,
      "price": "6950000000000000000000",
      "assetIds": [
        "35541503283276933796147438414694400616078274122459190822474961601238453471232",
        "35541503283276933796147438414694400616078274122459190822474961601238453471233",
        "35541503283276933796147438414694400616078274122459190822474961601238453471234",
        "35541503283276933796147438414694400616078274122459190822474961601238453471240"
      ]
    },
    {
      "x": 119,
      "y": 331,
      "size": 1,
      "price": "6950000000000000000000",
      "assetIds": [
        "35541503283276933796147438414694400616078274122459190822474961601238453471232",
        "35541503283276933796147438414694400616078274122459190822474961601238453471233",
        "35541503283276933796147438414694400616078274122459190822474961601238453471234",
        "35541503283276933796147438414694400616078274122459190822474961601238453471238"
      ]
    },
    {
      "x": 120,
      "y": 331,
      "size": 1,
      "price": "3000000000000000000000",
      "reserved": "0x7a9fe22691c811ea339d9b73150e6911a5343dca",
      "assetIds": []
    },
    {
      "x": 121,
      "y": 331,
      "size": 1,
      "price": "3000000000000000000000",
      "assetIds": []
    },
    {
      "x": 122,
      "y": 331,
      "size": 1,
      "price": "3000000000000000000000",
      "assetIds": []
    },
    {
      "x": 122,
      "y": 332,
      "size": 1,
      "price": "3000000000000000000000",
      "assetIds": []
    },
    {
      "x": 121,
      "y": 332,
      "size": 1,
      "price": "6950000000000000000000",
      "assetIds": [
        "35541503283276933796147438414694400616078274122459190822474961601238453471232",
        "35541503283276933796147438414694400616078274122459190822474961601238453471233",
        "35541503283276933796147438414694400616078274122459190822474961601238453471234",
        "35541503283276933796147438414694400616078274122459190822474961601238453471235"
      ]
    },
    {
      "x": 121,
      "y": 330,
      "size": 1,
      "price": "3000000000000000000000",
      "assetIds": []
    },
    {
      "x": 122,
      "y": 330,
      "size": 1,
      "price": "3000000000000000000000",
      "assetIds": []
    },
    {
      "x": 120,
      "y": 330,
      "size": 1,
      "price": "3000000000000000000000",
      "assetIds": []
    },
    {
      "x": 119,
      "y": 330,
      "size": 1,
      "price": "3000000000000000000000",
      "assetIds": []
    },
    {
      "x": 118,
      "y": 330,
      "size": 1,
      "price": "3000000000000000000000",
      "reserved": "0x7a9fe22691c811ea339d9b73150e6911a5343dca",
      "assetIds": []
    },
    {
      "x": 117,
      "y": 330,
      "size": 1,
      "price": "3000000000000000000000",
      "assetIds": []
    },
    {
      "x": 116,
      "y": 330,
      "size": 1,
      "price": "3000000000000000000000",
      "assetIds": []
    },
    {
      "x": 115,
      "y": 330,
      "size": 1,
      "price": "3000000000000000000000",
      "assetIds": []
    },
    {
      "x": 114,
      "y": 330,
      "size": 1,
      "price": "3000000000000000000000",
      "assetIds": []
    },
    {
      "x": 113,
      "y": 330,
      "size": 1,
      "price": "3000000000000000000000",
      "assetIds": []
    },
    {
      "x": 112,
      "y": 330,
      "size": 1,
      "price": "3000000000000000000000",
      "assetIds": []
    },
    {
      "x": 111,
      "y": 330,
      "size": 1,
      "price": "3000000000000000000000",
      "assetIds": []
    },
    {
      "x": 110,
      "y": 330,
      "size": 1,
      "price": "6950000000000000000000",
      "assetIds": [
        "35541503283276933796147438414694400616078274122459190822474961601238453471232",
        "35541503283276933796147438414694400616078274122459190822474961601238453471233",
        "35541503283276933796147438414694400616078274122459190822474961601238453471234",
        "35541503283276933796147438414694400616078274122459190822474961601238453471236"
      ]
    },
    {
      "x": 109,
      "y": 330,
      "size": 1,
      "price": "3000000000000000000000",
      "assetIds": []
    },
    {
      "x": 108,
      "y": 330,
      "size": 1,
      "price": "3000000000000000000000",
      "assetIds": []
    },
    {
      "x": 107,
      "y": 330,
      "size": 1,
      "price": "3000000000000000000000",
      "reserved": "0x7a9fe22691c811ea339d9b73150e6911a5343dca",
      "assetIds": []
    },
    {
      "x": 106,
      "y": 330,
      "size": 1,
      "price": "3000000000000000000000",
      "assetIds": []
    },
    {
      "x": 105,
      "y": 330,
      "size": 1,
      "price": "3000000000000000000000",
      "assetIds": []
    },
    {
      "x": 96,
      "y": 334,
      "size": 1,
      "price": "3000000000000000000000",
      "assetIds": []
    },
    {
      "x": 97,
      "y": 334,
      "size": 1,
      "price": "3000000000000000000000",
      "assetIds": []
    },
    {
      "x": 98,
      "y": 334,
      "size": 1,
      "price": "3000000000000000000000",
      "assetIds": []
    },
    {
      "x": 99,
      "y": 334,
      "size": 1,
      "price": "3000000000000000000000",
      "assetIds": []
    },
    {
      "x": 118,
      "y": 333,
      "size": 1,
      "price": "6950000000000000000000",
      "assetIds": [
        "35541503283276933796147438414694400616078274122459190822474961601238453471232",
        "35541503283276933796147438414694400616078274122459190822474961601238453471233",
        "35541503283276933796147438414694400616078274122459190822474961601238453471234",
        "35541503283276933796147438414694400616078274122459190822474961601238453471235"
      ]
    },
    {
      "x": 117,
      "y": 333,
      "size": 1,
      "price": "6950000000000000000000",
      "assetIds": [
        "35541503283276933796147438414694400616078274122459190822474961601238453471232",
        "35541503283276933796147438414694400616078274122459190822474961601238453471233",
        "35541503283276933796147438414694400616078274122459190822474961601238453471234",
        "35541503283276933796147438414694400616078274122459190822474961601238453471238"
      ]
    },
    {
      "x": 117,
      "y": 331,
      "size": 1,
      "price": "6950000000000000000000",
      "assetIds": [
        "35541503283276933796147438414694400616078274122459190822474961601238453471232",
        "35541503283276933796147438414694400616078274122459190822474961601238453471233",
        "35541503283276933796147438414694400616078274122459190822474961601238453471234",
        "35541503283276933796147438414694400616078274122459190822474961601238453471237"
      ]
    },
    {
      "x": 116,
      "y": 331,
      "size": 1,
      "price": "3000000000000000000000",
      "assetIds": []
    },
    {
      "x": 115,
      "y": 331,
      "size": 1,
      "price": "6950000000000000000000",
      "assetIds": [
        "35541503283276933796147438414694400616078274122459190822474961601238453471232",
        "35541503283276933796147438414694400616078274122459190822474961601238453471233",
        "35541503283276933796147438414694400616078274122459190822474961601238453471234",
        "35541503283276933796147438414694400616078274122459190822474961601238453471235"
      ]
    },
    {
      "x": 114,
      "y": 331,
      "size": 1,
      "price": "3000000000000000000000",
      "reserved": "0x7a9fe22691c811ea339d9b73150e6911a5343dca",
      "assetIds": []
    },
    {
      "x": 113,
      "y": 331,
      "size": 1,
      "price": "6950000000000000000000",
      "assetIds": [
        "35541503283276933796147438414694400616078274122459190822474961601238453471232",
        "35541503283276933796147438414694400616078274122459190822474961601238453471233",
        "35541503283276933796147438414694400616078274122459190822474961601238453471234",
        "35541503283276933796147438414694400616078274122459190822474961601238453471238"
      ]
    },
    {
      "x": 112,
      "y": 331,
      "size": 1,
      "price": "6950000000000000000000",
      "assetIds": [
        "35541503283276933796147438414694400616078274122459190822474961601238453471232",
        "35541503283276933796147438414694400616078274122459190822474961601238453471233",
        "35541503283276933796147438414694400616078274122459190822474961601238453471234",
        "35541503283276933796147438414694400616078274122459190822474961601238453471235"
      ]
    },
    {
      "x": 111,
      "y": 331,
      "size": 1,
      "price": "6950000000000000000000",
      "assetIds": [
        "35541503283276933796147438414694400616078274122459190822474961601238453471232",
        "35541503283276933796147438414694400616078274122459190822474961601238453471233",
        "35541503283276933796147438414694400616078274122459190822474961601238453471234",
        "35541503283276933796147438414694400616078274122459190822474961601238453471237"
      ]
    },
    {
      "x": 110,
      "y": 331,
      "size": 1,
      "price": "6950000000000000000000",
      "assetIds": [
        "35541503283276933796147438414694400616078274122459190822474961601238453471232",
        "35541503283276933796147438414694400616078274122459190822474961601238453471233",
        "35541503283276933796147438414694400616078274122459190822474961601238453471234",
        "35541503283276933796147438414694400616078274122459190822474961601238453471239"
      ]
    },
    {
      "x": 109,
      "y": 331,
      "size": 1,
      "price": "6950000000000000000000",
      "assetIds": [
        "35541503283276933796147438414694400616078274122459190822474961601238453471232",
        "35541503283276933796147438414694400616078274122459190822474961601238453471233",
        "35541503283276933796147438414694400616078274122459190822474961601238453471234",
        "35541503283276933796147438414694400616078274122459190822474961601238453471238"
      ]
    },
    {
      "x": 108,
      "y": 331,
      "size": 1,
      "price": "6950000000000000000000",
      "assetIds": [
        "35541503283276933796147438414694400616078274122459190822474961601238453471232",
        "35541503283276933796147438414694400616078274122459190822474961601238453471233",
        "35541503283276933796147438414694400616078274122459190822474961601238453471234",
        "35541503283276933796147438414694400616078274122459190822474961601238453471236"
      ]
    },
    {
      "x": 107,
      "y": 331,
      "size": 1,
      "price": "6950000000000000000000",
      "assetIds": [
        "35541503283276933796147438414694400616078274122459190822474961601238453471232",
        "35541503283276933796147438414694400616078274122459190822474961601238453471233",
        "35541503283276933796147438414694400616078274122459190822474961601238453471234",
        "35541503283276933796147438414694400616078274122459190822474961601238453471237"
      ]
    },
    {
      "x": 106,
      "y": 331,
      "size": 1,
      "price": "3000000000000000000000",
      "assetIds": []
    },
    {
      "x": 105,
      "y": 331,
      "size": 1,
      "price": "3000000000000000000000",
      "assetIds": []
    },
    {
      "x": 96,
      "y": 333,
      "size": 1,
      "price": "3000000000000000000000",
      "assetIds": []
    },
    {
      "x": 97,
      "y": 333,
      "size": 1,
      "price": "3000000000000000000000",
      "assetIds": []
    },
    {
      "x": 98,
      "y": 333,
      "size": 1,
      "price": "3000000000000000000000",
      "reserved": "0x7a9fe22691c811ea339d9b73150e6911a5343dca",
      "assetIds": []
    },
    {
      "x": 99,
      "y": 333,
      "size": 1,
      "price": "3000000000000000000000",
      "assetIds": []
    },
    {
      "x": 100,
      "y": 333,
      "size": 1,
      "price": "3000000000000000000000",
      "assetIds": []
    },
    {
      "x": 101,
      "y": 333,
      "size": 1,
      "price": "3000000000000000000000",
      "assetIds": []
    },
    {
      "x": 102,
      "y": 333,
      "size": 1,
      "price": "3000000000000000000000",
      "assetIds": []
    },
    {
      "x": 104,
      "y": 333,
      "size": 1,
      "price": "6950000000000000000000",
      "assetIds": [
        "35541503283276933796147438414694400616078274122459190822474961601238453471232",
        "35541503283276933796147438414694400616078274122459190822474961601238453471233",
        "35541503283276933796147438414694400616078274122459190822474961601238453471234",
        "35541503283276933796147438414694400616078274122459190822474961601238453471239"
      ]
    },
    {
      "x": 105,
      "y": 333,
      "size": 1,
      "price": "6950000000000000000000",
      "assetIds": [
        "35541503283276933796147438414694400616078274122459190822474961601238453471232",
        "35541503283276933796147438414694400616078274122459190822474961601238453471233",
        "35541503283276933796147438414694400616078274122459190822474961601238453471234",
        "35541503283276933796147438414694400616078274122459190822474961601238453471236"
      ]
    },
    {
      "x": 106,
      "y": 333,
      "size": 1,
      "price": "6950000000000000000000",
      "assetIds": [
        "35541503283276933796147438414694400616078274122459190822474961601238453471232",
        "35541503283276933796147438414694400616078274122459190822474961601238453471233",
        "35541503283276933796147438414694400616078274122459190822474961601238453471234",
        "35541503283276933796147438414694400616078274122459190822474961601238453471235"
      ]
    },
    {
      "x": 107,
      "y": 333,
      "size": 1,
      "price": "6950000000000000000000",
      "assetIds": [
        "35541503283276933796147438414694400616078274122459190822474961601238453471232",
        "35541503283276933796147438414694400616078274122459190822474961601238453471233",
        "35541503283276933796147438414694400616078274122459190822474961601238453471234",
        "35541503283276933796147438414694400616078274122459190822474961601238453471236"
      ]
    },
    {
      "x": 108,
      "y": 333,
      "size": 1,
      "price": "6950000000000000000000",
      "assetIds": [
        "35541503283276933796147438414694400616078274122459190822474961601238453471232",
        "35541503283276933796147438414694400616078274122459190822474961601238453471233",
        "35541503283276933796147438414694400616078274122459190822474961601238453471234",
        "35541503283276933796147438414694400616078274122459190822474961601238453471240"
      ]
    },
    {
      "x": 109,
      "y": 333,
      "size": 1,
      "price": "6950000000000000000000",
      "assetIds": [
        "35541503283276933796147438414694400616078274122459190822474961601238453471232",
        "35541503283276933796147438414694400616078274122459190822474961601238453471233",
        "35541503283276933796147438414694400616078274122459190822474961601238453471234",
        "35541503283276933796147438414694400616078274122459190822474961601238453471237"
      ]
    },
    {
      "x": 110,
      "y": 333,
      "size": 1,
      "price": "6950000000000000000000",
      "assetIds": [
        "35541503283276933796147438414694400616078274122459190822474961601238453471232",
        "35541503283276933796147438414694400616078274122459190822474961601238453471233",
        "35541503283276933796147438414694400616078274122459190822474961601238453471234",
        "35541503283276933796147438414694400616078274122459190822474961601238453471237"
      ]
    },
    {
      "x": 111,
      "y": 333,
      "size": 1,
      "price": "6950000000000000000000",
      "assetIds": [
        "35541503283276933796147438414694400616078274122459190822474961601238453471232",
        "35541503283276933796147438414694400616078274122459190822474961601238453471233",
        "35541503283276933796147438414694400616078274122459190822474961601238453471234",
        "35541503283276933796147438414694400616078274122459190822474961601238453471238"
      ]
    },
    {
      "x": 115,
      "y": 332,
      "size": 1,
      "price": "6950000000000000000000",
      "assetIds": [
        "35541503283276933796147438414694400616078274122459190822474961601238453471232",
        "35541503283276933796147438414694400616078274122459190822474961601238453471233",
        "35541503283276933796147438414694400616078274122459190822474961601238453471234",
        "35541503283276933796147438414694400616078274122459190822474961601238453471239"
      ]
    },
    {
      "x": 114,
      "y": 332,
      "size": 1,
      "price": "6950000000000000000000",
      "assetIds": [
        "35541503283276933796147438414694400616078274122459190822474961601238453471232",
        "35541503283276933796147438414694400616078274122459190822474961601238453471233",
        "35541503283276933796147438414694400616078274122459190822474961601238453471234",
        "35541503283276933796147438414694400616078274122459190822474961601238453471240"
      ]
    },
    {
      "x": 113,
      "y": 332,
      "size": 1,
      "price": "6950000000000000000000",
      "assetIds": [
        "35541503283276933796147438414694400616078274122459190822474961601238453471232",
        "35541503283276933796147438414694400616078274122459190822474961601238453471233",
        "35541503283276933796147438414694400616078274122459190822474961601238453471234",
        "35541503283276933796147438414694400616078274122459190822474961601238453471236"
      ]
    },
    {
      "x": 112,
      "y": 332,
      "size": 1,
      "price": "6950000000000000000000",
      "assetIds": [
        "35541503283276933796147438414694400616078274122459190822474961601238453471232",
        "35541503283276933796147438414694400616078274122459190822474961601238453471233",
        "35541503283276933796147438414694400616078274122459190822474961601238453471234",
        "35541503283276933796147438414694400616078274122459190822474961601238453471237"
      ]
    },
    {
      "x": 111,
      "y": 332,
      "size": 1,
      "price": "3000000000000000000000",
      "reserved": "0x7a9fe22691c811ea339d9b73150e6911a5343dca",
      "assetIds": []
    },
    {
      "x": 110,
      "y": 332,
      "size": 1,
      "price": "6950000000000000000000",
      "assetIds": [
        "35541503283276933796147438414694400616078274122459190822474961601238453471232",
        "35541503283276933796147438414694400616078274122459190822474961601238453471233",
        "35541503283276933796147438414694400616078274122459190822474961601238453471234",
        "35541503283276933796147438414694400616078274122459190822474961601238453471237"
      ]
    },
    {
      "x": 109,
      "y": 332,
      "size": 1,
      "price": "6950000000000000000000",
      "assetIds": [
        "35541503283276933796147438414694400616078274122459190822474961601238453471232",
        "35541503283276933796147438414694400616078274122459190822474961601238453471233",
        "35541503283276933796147438414694400616078274122459190822474961601238453471234",
        "35541503283276933796147438414694400616078274122459190822474961601238453471238"
      ]
    },
    {
      "x": 108,
      "y": 332,
      "size": 1,
      "price": "6950000000000000000000",
      "assetIds": [
        "35541503283276933796147438414694400616078274122459190822474961601238453471232",
        "35541503283276933796147438414694400616078274122459190822474961601238453471233",
        "35541503283276933796147438414694400616078274122459190822474961601238453471234",
        "35541503283276933796147438414694400616078274122459190822474961601238453471240"
      ]
    },
    {
      "x": 107,
      "y": 332,
      "size": 1,
      "price": "6950000000000000000000",
      "assetIds": [
        "35541503283276933796147438414694400616078274122459190822474961601238453471232",
        "35541503283276933796147438414694400616078274122459190822474961601238453471233",
        "35541503283276933796147438414694400616078274122459190822474961601238453471234",
        "35541503283276933796147438414694400616078274122459190822474961601238453471239"
      ]
    },
    {
      "x": 106,
      "y": 332,
      "size": 1,
      "price": "6950000000000000000000",
      "assetIds": [
        "35541503283276933796147438414694400616078274122459190822474961601238453471232",
        "35541503283276933796147438414694400616078274122459190822474961601238453471233",
        "35541503283276933796147438414694400616078274122459190822474961601238453471234",
        "35541503283276933796147438414694400616078274122459190822474961601238453471239"
      ]
    },
    {
      "x": 105,
      "y": 332,
      "size": 1,
      "price": "6950000000000000000000",
      "assetIds": [
        "35541503283276933796147438414694400616078274122459190822474961601238453471232",
        "35541503283276933796147438414694400616078274122459190822474961601238453471233",
        "35541503283276933796147438414694400616078274122459190822474961601238453471234",
        "35541503283276933796147438414694400616078274122459190822474961601238453471237"
      ]
    },
    {
      "x": 98,
      "y": 329,
      "size": 1,
      "price": "3000000000000000000000",
      "assetIds": []
    },
    {
      "x": 98,
      "y": 328,
      "size": 1,
      "price": "3000000000000000000000",
      "assetIds": []
    },
    {
      "x": 98,
      "y": 327,
      "size": 1,
      "price": "3000000000000000000000",
      "assetIds": []
    },
    {
      "x": 98,
      "y": 323,
      "size": 1,
      "price": "3000000000000000000000",
      "assetIds": []
    },
    {
      "x": 98,
      "y": 322,
      "size": 1,
      "price": "3000000000000000000000",
      "assetIds": []
    },
    {
      "x": 98,
      "y": 321,
      "size": 1,
      "price": "3000000000000000000000",
      "assetIds": []
    },
    {
      "x": 98,
      "y": 314,
      "size": 1,
      "price": "3000000000000000000000",
      "assetIds": []
    },
    {
      "x": 98,
      "y": 313,
      "size": 1,
      "price": "3000000000000000000000",
      "assetIds": []
    },
    {
      "x": 98,
      "y": 312,
      "size": 1,
      "price": "3000000000000000000000",
      "assetIds": []
    },
    {
      "x": 98,
      "y": 308,
      "size": 1,
      "price": "3000000000000000000000",
      "assetIds": []
    },
    {
      "x": 98,
      "y": 307,
      "size": 1,
      "price": "3000000000000000000000",
      "assetIds": []
    },
    {
      "x": 98,
      "y": 306,
      "size": 1,
      "price": "3000000000000000000000",
      "assetIds": []
    },
    {
      "x": 98,
      "y": 305,
      "size": 1,
      "price": "6950000000000000000000",
      "assetIds": [
        "35541503283276933796147438414694400616078274122459190822474961601238453471232",
        "35541503283276933796147438414694400616078274122459190822474961601238453471233",
        "35541503283276933796147438414694400616078274122459190822474961601238453471234",
        "35541503283276933796147438414694400616078274122459190822474961601238453471237"
      ]
    },
    {
      "x": 98,
      "y": 304,
      "size": 1,
      "price": "6950000000000000000000",
      "assetIds": [
        "35541503283276933796147438414694400616078274122459190822474961601238453471232",
        "35541503283276933796147438414694400616078274122459190822474961601238453471233",
        "35541503283276933796147438414694400616078274122459190822474961601238453471234",
        "35541503283276933796147438414694400616078274122459190822474961601238453471237"
      ]
    },
    {
      "x": 98,
      "y": 303,
      "size": 1,
      "price": "6950000000000000000000",
      "assetIds": [
        "35541503283276933796147438414694400616078274122459190822474961601238453471232",
        "35541503283276933796147438414694400616078274122459190822474961601238453471233",
        "35541503283276933796147438414694400616078274122459190822474961601238453471234",
        "35541503283276933796147438414694400616078274122459190822474961601238453471237"
      ]
    },
    {
      "x": 99,
      "y": 303,
      "size": 1,
      "price": "6950000000000000000000",
      "assetIds": [
        "35541503283276933796147438414694400616078274122459190822474961601238453471232",
        "35541503283276933796147438414694400616078274122459190822474961601238453471233",
        "35541503283276933796147438414694400616078274122459190822474961601238453471234",
        "35541503283276933796147438414694400616078274122459190822474961601238453471237"
      ]
    },
    {
      "x": 99,
      "y": 302,
      "size": 1,
      "price": "6950000000000000000000",
      "assetIds": [
        "35541503283276933796147438414694400616078274122459190822474961601238453471232",
        "35541503283276933796147438414694400616078274122459190822474961601238453471233",
        "35541503283276933796147438414694400616078274122459190822474961601238453471234",
        "35541503283276933796147438414694400616078274122459190822474961601238453471238"
      ]
    },
    {
      "x": 99,
      "y": 304,
      "size": 1,
      "price": "6950000000000000000000",
      "assetIds": [
        "35541503283276933796147438414694400616078274122459190822474961601238453471232",
        "35541503283276933796147438414694400616078274122459190822474961601238453471233",
        "35541503283276933796147438414694400616078274122459190822474961601238453471234",
        "35541503283276933796147438414694400616078274122459190822474961601238453471237"
      ]
    },
    {
      "x": 99,
      "y": 305,
      "size": 1,
      "price": "3000000000000000000000",
      "assetIds": []
    },
    {
      "x": 99,
      "y": 306,
      "size": 1,
      "price": "3000000000000000000000",
      "assetIds": []
    },
    {
      "x": 99,
      "y": 307,
      "size": 1,
      "price": "3000000000000000000000",
      "assetIds": []
    },
    {
      "x": 99,
      "y": 308,
      "size": 1,
      "price": "3000000000000000000000",
      "assetIds": []
    },
    {
      "x": 99,
      "y": 309,
      "size": 1,
      "price": "3000000000000000000000",
      "assetIds": []
    },
    {
      "x": 99,
      "y": 310,
      "size": 1,
      "price": "3000000000000000000000",
      "reserved": "0x7a9fe22691c811ea339d9b73150e6911a5343dca",
      "assetIds": []
    },
    {
      "x": 99,
      "y": 311,
      "size": 1,
      "price": "3000000000000000000000",
      "assetIds": []
    },
    {
      "x": 99,
      "y": 315,
      "size": 1,
      "price": "3000000000000000000000",
      "assetIds": []
    },
    {
      "x": 99,
      "y": 316,
      "size": 1,
      "price": "3000000000000000000000",
      "assetIds": []
    },
    {
      "x": 99,
      "y": 317,
      "size": 1,
      "price": "3000000000000000000000",
      "reserved": "0x7a9fe22691c811ea339d9b73150e6911a5343dca",
      "assetIds": []
    },
    {
      "x": 99,
      "y": 318,
      "size": 1,
      "price": "3000000000000000000000",
      "assetIds": []
    },
    {
      "x": 99,
      "y": 319,
      "size": 1,
      "price": "3000000000000000000000",
      "assetIds": []
    },
    {
      "x": 99,
      "y": 320,
      "size": 1,
      "price": "3000000000000000000000",
      "reserved": "0x7a9fe22691c811ea339d9b73150e6911a5343dca",
      "assetIds": []
    },
    {
      "x": 99,
      "y": 321,
      "size": 1,
      "price": "3000000000000000000000",
      "assetIds": []
    },
    {
      "x": 99,
      "y": 322,
      "size": 1,
      "price": "3000000000000000000000",
      "assetIds": []
    },
    {
      "x": 99,
      "y": 323,
      "size": 1,
      "price": "3000000000000000000000",
      "assetIds": []
    },
    {
      "x": 100,
      "y": 323,
      "size": 1,
      "price": "3000000000000000000000",
      "assetIds": []
    },
    {
      "x": 100,
      "y": 322,
      "size": 1,
      "price": "3000000000000000000000",
      "assetIds": []
    },
    {
      "x": 100,
      "y": 321,
      "size": 1,
      "price": "3000000000000000000000",
      "assetIds": []
    },
    {
      "x": 100,
      "y": 320,
      "size": 1,
      "price": "3000000000000000000000",
      "assetIds": []
    },
    {
      "x": 100,
      "y": 319,
      "size": 1,
      "price": "3000000000000000000000",
      "assetIds": []
    },
    {
      "x": 100,
      "y": 318,
      "size": 1,
      "price": "3000000000000000000000",
      "assetIds": []
    },
    {
      "x": 100,
      "y": 317,
      "size": 1,
      "price": "3000000000000000000000",
      "assetIds": []
    },
    {
      "x": 100,
      "y": 315,
      "size": 1,
      "price": "3000000000000000000000",
      "assetIds": []
    },
    {
      "x": 100,
      "y": 311,
      "size": 1,
      "price": "3000000000000000000000",
      "assetIds": []
    },
    {
      "x": 100,
      "y": 310,
      "size": 1,
      "price": "3000000000000000000000",
      "assetIds": []
    },
    {
      "x": 100,
      "y": 309,
      "size": 1,
      "price": "3000000000000000000000",
      "assetIds": []
    },
    {
      "x": 100,
      "y": 308,
      "size": 1,
      "price": "3000000000000000000000",
      "assetIds": []
    },
    {
      "x": 100,
      "y": 307,
      "size": 1,
      "price": "3000000000000000000000",
      "assetIds": []
    },
    {
      "x": 100,
      "y": 306,
      "size": 1,
      "price": "3000000000000000000000",
      "assetIds": []
    },
    {
      "x": 100,
      "y": 305,
      "size": 1,
      "price": "6950000000000000000000",
      "assetIds": [
        "35541503283276933796147438414694400616078274122459190822474961601238453471232",
        "35541503283276933796147438414694400616078274122459190822474961601238453471233",
        "35541503283276933796147438414694400616078274122459190822474961601238453471234",
        "35541503283276933796147438414694400616078274122459190822474961601238453471239"
      ]
    },
    {
      "x": 100,
      "y": 304,
      "size": 1,
      "price": "6950000000000000000000",
      "assetIds": [
        "35541503283276933796147438414694400616078274122459190822474961601238453471232",
        "35541503283276933796147438414694400616078274122459190822474961601238453471233",
        "35541503283276933796147438414694400616078274122459190822474961601238453471234",
        "35541503283276933796147438414694400616078274122459190822474961601238453471237"
      ]
    },
    {
      "x": 100,
      "y": 303,
      "size": 1,
      "price": "6950000000000000000000",
      "assetIds": [
        "35541503283276933796147438414694400616078274122459190822474961601238453471232",
        "35541503283276933796147438414694400616078274122459190822474961601238453471233",
        "35541503283276933796147438414694400616078274122459190822474961601238453471234",
        "35541503283276933796147438414694400616078274122459190822474961601238453471239"
      ]
    },
    {
      "x": 100,
      "y": 302,
      "size": 1,
      "price": "6950000000000000000000",
      "assetIds": [
        "35541503283276933796147438414694400616078274122459190822474961601238453471232",
        "35541503283276933796147438414694400616078274122459190822474961601238453471233",
        "35541503283276933796147438414694400616078274122459190822474961601238453471234",
        "35541503283276933796147438414694400616078274122459190822474961601238453471239"
      ]
    },
    {
      "x": 100,
      "y": 301,
      "size": 1,
      "price": "6950000000000000000000",
      "assetIds": [
        "35541503283276933796147438414694400616078274122459190822474961601238453471232",
        "35541503283276933796147438414694400616078274122459190822474961601238453471233",
        "35541503283276933796147438414694400616078274122459190822474961601238453471234",
        "35541503283276933796147438414694400616078274122459190822474961601238453471240"
      ]
    },
    {
      "x": 100,
      "y": 300,
      "size": 1,
      "price": "6950000000000000000000",
      "assetIds": [
        "35541503283276933796147438414694400616078274122459190822474961601238453471232",
        "35541503283276933796147438414694400616078274122459190822474961601238453471233",
        "35541503283276933796147438414694400616078274122459190822474961601238453471234",
        "35541503283276933796147438414694400616078274122459190822474961601238453471240"
      ]
    },
    {
      "x": 101,
      "y": 300,
      "size": 1,
      "price": "6950000000000000000000",
      "assetIds": [
        "35541503283276933796147438414694400616078274122459190822474961601238453471232",
        "35541503283276933796147438414694400616078274122459190822474961601238453471233",
        "35541503283276933796147438414694400616078274122459190822474961601238453471234",
        "35541503283276933796147438414694400616078274122459190822474961601238453471240"
      ]
    },
    {
      "x": 101,
      "y": 301,
      "size": 1,
      "price": "6950000000000000000000",
      "assetIds": [
        "35541503283276933796147438414694400616078274122459190822474961601238453471232",
        "35541503283276933796147438414694400616078274122459190822474961601238453471233",
        "35541503283276933796147438414694400616078274122459190822474961601238453471234",
        "35541503283276933796147438414694400616078274122459190822474961601238453471236"
      ]
    },
    {
      "x": 101,
      "y": 302,
      "size": 1,
      "price": "3000000000000000000000",
      "reserved": "0x7a9fe22691c811ea339d9b73150e6911a5343dca",
      "assetIds": []
    },
    {
      "x": 101,
      "y": 303,
      "size": 1,
      "price": "6950000000000000000000",
      "assetIds": [
        "35541503283276933796147438414694400616078274122459190822474961601238453471232",
        "35541503283276933796147438414694400616078274122459190822474961601238453471233",
        "35541503283276933796147438414694400616078274122459190822474961601238453471234",
        "35541503283276933796147438414694400616078274122459190822474961601238453471240"
      ]
    },
    {
      "x": 101,
      "y": 304,
      "size": 1,
      "price": "6950000000000000000000",
      "assetIds": [
        "35541503283276933796147438414694400616078274122459190822474961601238453471232",
        "35541503283276933796147438414694400616078274122459190822474961601238453471233",
        "35541503283276933796147438414694400616078274122459190822474961601238453471234",
        "35541503283276933796147438414694400616078274122459190822474961601238453471238"
      ]
    },
    {
      "x": 101,
      "y": 305,
      "size": 1,
      "price": "3000000000000000000000",
      "assetIds": []
    },
    {
      "x": 101,
      "y": 306,
      "size": 1,
      "price": "3000000000000000000000",
      "assetIds": []
    },
    {
      "x": 101,
      "y": 307,
      "size": 1,
      "price": "3000000000000000000000",
      "assetIds": []
    },
    {
      "x": 101,
      "y": 308,
      "size": 1,
      "price": "3000000000000000000000",
      "reserved": "0x7a9fe22691c811ea339d9b73150e6911a5343dca",
      "assetIds": []
    },
    {
      "x": 101,
      "y": 309,
      "size": 1,
      "price": "3000000000000000000000",
      "assetIds": []
    },
    {
      "x": 101,
      "y": 310,
      "size": 1,
      "price": "3000000000000000000000",
      "assetIds": []
    },
    {
      "x": 101,
      "y": 311,
      "size": 1,
      "price": "3000000000000000000000",
      "assetIds": []
    },
    {
      "x": 101,
      "y": 315,
      "size": 1,
      "price": "3000000000000000000000",
      "reserved": "0x7a9fe22691c811ea339d9b73150e6911a5343dca",
      "assetIds": []
    },
    {
      "x": 101,
      "y": 316,
      "size": 1,
      "price": "3000000000000000000000",
      "assetIds": []
    },
    {
      "x": 101,
      "y": 317,
      "size": 1,
      "price": "3000000000000000000000",
      "assetIds": []
    },
    {
      "x": 101,
      "y": 318,
      "size": 1,
      "price": "3000000000000000000000",
      "assetIds": []
    },
    {
      "x": 101,
      "y": 319,
      "size": 1,
      "price": "3000000000000000000000",
      "assetIds": []
    },
    {
      "x": 101,
      "y": 320,
      "size": 1,
      "price": "3000000000000000000000",
      "assetIds": []
    },
    {
      "x": 101,
      "y": 321,
      "size": 1,
      "price": "3000000000000000000000",
      "assetIds": []
    },
    {
      "x": 101,
      "y": 322,
      "size": 1,
      "price": "3000000000000000000000",
      "assetIds": []
    },
    {
      "x": 101,
      "y": 323,
      "size": 1,
      "price": "3000000000000000000000",
      "reserved": "0x7a9fe22691c811ea339d9b73150e6911a5343dca",
      "assetIds": []
    },
    {
      "x": 102,
      "y": 329,
      "size": 1,
      "price": "3000000000000000000000",
      "assetIds": []
    },
    {
      "x": 102,
      "y": 328,
      "size": 1,
      "price": "3000000000000000000000",
      "assetIds": []
    },
    {
      "x": 102,
      "y": 327,
      "size": 1,
      "price": "3000000000000000000000",
      "assetIds": []
    },
    {
      "x": 102,
      "y": 326,
      "size": 1,
      "price": "3000000000000000000000",
      "reserved": "0x7a9fe22691c811ea339d9b73150e6911a5343dca",
      "assetIds": []
    },
    {
      "x": 102,
      "y": 325,
      "size": 1,
      "price": "3000000000000000000000",
      "assetIds": []
    },
    {
      "x": 102,
      "y": 324,
      "size": 1,
      "price": "3000000000000000000000",
      "assetIds": []
    },
    {
      "x": 102,
      "y": 320,
      "size": 1,
      "price": "3000000000000000000000",
      "assetIds": []
    },
    {
      "x": 102,
      "y": 319,
      "size": 1,
      "price": "3000000000000000000000",
      "assetIds": []
    },
    {
      "x": 102,
      "y": 318,
      "size": 1,
      "price": "3000000000000000000000",
      "assetIds": []
    },
    {
      "x": 102,
      "y": 311,
      "size": 1,
      "price": "3000000000000000000000",
      "reserved": "0x7a9fe22691c811ea339d9b73150e6911a5343dca",
      "assetIds": []
    },
    {
      "x": 102,
      "y": 310,
      "size": 1,
      "price": "3000000000000000000000",
      "assetIds": []
    },
    {
      "x": 102,
      "y": 309,
      "size": 1,
      "price": "3000000000000000000000",
      "assetIds": []
    },
    {
      "x": 102,
      "y": 305,
      "size": 1,
      "price": "3000000000000000000000",
      "reserved": "0x7a9fe22691c811ea339d9b73150e6911a5343dca",
      "assetIds": []
    },
    {
      "x": 102,
      "y": 304,
      "size": 1,
      "price": "6950000000000000000000",
      "assetIds": [
        "35541503283276933796147438414694400616078274122459190822474961601238453471232",
        "35541503283276933796147438414694400616078274122459190822474961601238453471233",
        "35541503283276933796147438414694400616078274122459190822474961601238453471234",
        "35541503283276933796147438414694400616078274122459190822474961601238453471236"
      ]
    },
    {
      "x": 102,
      "y": 303,
      "size": 1,
      "price": "6950000000000000000000",
      "assetIds": [
        "35541503283276933796147438414694400616078274122459190822474961601238453471232",
        "35541503283276933796147438414694400616078274122459190822474961601238453471233",
        "35541503283276933796147438414694400616078274122459190822474961601238453471234",
        "35541503283276933796147438414694400616078274122459190822474961601238453471236"
      ]
    },
    {
      "x": 102,
      "y": 302,
      "size": 1,
      "price": "6950000000000000000000",
      "assetIds": [
        "35541503283276933796147438414694400616078274122459190822474961601238453471232",
        "35541503283276933796147438414694400616078274122459190822474961601238453471233",
        "35541503283276933796147438414694400616078274122459190822474961601238453471234",
        "35541503283276933796147438414694400616078274122459190822474961601238453471240"
      ]
    },
    {
      "x": 102,
      "y": 301,
      "size": 1,
      "price": "6950000000000000000000",
      "assetIds": [
        "35541503283276933796147438414694400616078274122459190822474961601238453471232",
        "35541503283276933796147438414694400616078274122459190822474961601238453471233",
        "35541503283276933796147438414694400616078274122459190822474961601238453471234",
        "35541503283276933796147438414694400616078274122459190822474961601238453471236"
      ]
    },
    {
      "x": 102,
      "y": 300,
      "size": 1,
      "price": "6950000000000000000000",
      "assetIds": [
        "35541503283276933796147438414694400616078274122459190822474961601238453471232",
        "35541503283276933796147438414694400616078274122459190822474961601238453471233",
        "35541503283276933796147438414694400616078274122459190822474961601238453471234",
        "35541503283276933796147438414694400616078274122459190822474961601238453471240"
      ]
    },
    {
      "x": 103,
      "y": 318,
      "size": 1,
      "price": "3000000000000000000000",
      "assetIds": []
    },
    {
      "x": 103,
      "y": 319,
      "size": 1,
      "price": "3000000000000000000000",
      "assetIds": []
    },
    {
      "x": 103,
      "y": 320,
      "size": 1,
      "price": "3000000000000000000000",
      "assetIds": []
    },
    {
      "x": 103,
      "y": 333,
      "size": 1,
      "price": "3000000000000000000000",
      "assetIds": []
    },
    {
      "x": 103,
      "y": 329,
      "size": 1,
      "price": "3000000000000000000000",
      "assetIds": []
    },
    {
      "x": 103,
      "y": 328,
      "size": 1,
      "price": "3000000000000000000000",
      "assetIds": []
    },
    {
      "x": 103,
      "y": 327,
      "size": 1,
      "price": "3000000000000000000000",
      "assetIds": []
    },
    {
      "x": 103,
      "y": 326,
      "size": 1,
      "price": "3000000000000000000000",
      "assetIds": []
    },
    {
      "x": 103,
      "y": 325,
      "size": 1,
      "price": "3000000000000000000000",
      "assetIds": []
    },
    {
      "x": 103,
      "y": 324,
      "size": 1,
      "price": "3000000000000000000000",
      "assetIds": []
    },
    {
      "x": 103,
      "y": 311,
      "size": 1,
      "price": "3000000000000000000000",
      "assetIds": []
    },
    {
      "x": 103,
      "y": 310,
      "size": 1,
      "price": "3000000000000000000000",
      "assetIds": []
    },
    {
      "x": 103,
      "y": 309,
      "size": 1,
      "price": "3000000000000000000000",
      "assetIds": []
    },
    {
      "x": 103,
      "y": 305,
      "size": 1,
      "price": "6950000000000000000000",
      "assetIds": [
        "35541503283276933796147438414694400616078274122459190822474961601238453471232",
        "35541503283276933796147438414694400616078274122459190822474961601238453471233",
        "35541503283276933796147438414694400616078274122459190822474961601238453471234",
        "35541503283276933796147438414694400616078274122459190822474961601238453471236"
      ]
    },
    {
      "x": 103,
      "y": 304,
      "size": 1,
      "price": "6950000000000000000000",
      "assetIds": [
        "35541503283276933796147438414694400616078274122459190822474961601238453471232",
        "35541503283276933796147438414694400616078274122459190822474961601238453471233",
        "35541503283276933796147438414694400616078274122459190822474961601238453471234",
        "35541503283276933796147438414694400616078274122459190822474961601238453471237"
      ]
    },
    {
      "x": 104,
      "y": 304,
      "size": 1,
      "price": "6950000000000000000000",
      "assetIds": [
        "35541503283276933796147438414694400616078274122459190822474961601238453471232",
        "35541503283276933796147438414694400616078274122459190822474961601238453471233",
        "35541503283276933796147438414694400616078274122459190822474961601238453471234",
        "35541503283276933796147438414694400616078274122459190822474961601238453471238"
      ]
    },
    {
      "x": 104,
      "y": 305,
      "size": 1,
      "price": "3000000000000000000000",
      "assetIds": []
    },
    {
      "x": 104,
      "y": 309,
      "size": 1,
      "price": "3000000000000000000000",
      "reserved": "0x7a9fe22691c811ea339d9b73150e6911a5343dca",
      "assetIds": []
    },
    {
      "x": 104,
      "y": 310,
      "size": 1,
      "price": "3000000000000000000000",
      "assetIds": []
    },
    {
      "x": 104,
      "y": 311,
      "size": 1,
      "price": "3000000000000000000000",
      "assetIds": []
    },
    {
      "x": 104,
      "y": 318,
      "size": 1,
      "price": "3000000000000000000000",
      "assetIds": []
    },
    {
      "x": 104,
      "y": 319,
      "size": 1,
      "price": "3000000000000000000000",
      "reserved": "0x7a9fe22691c811ea339d9b73150e6911a5343dca",
      "assetIds": []
    },
    {
      "x": 104,
      "y": 320,
      "size": 1,
      "price": "3000000000000000000000",
      "assetIds": []
    },
    {
      "x": 104,
      "y": 324,
      "size": 1,
      "price": "3000000000000000000000",
      "reserved": "0x7a9fe22691c811ea339d9b73150e6911a5343dca",
      "assetIds": []
    },
    {
      "x": 104,
      "y": 325,
      "size": 1,
      "price": "3000000000000000000000",
      "assetIds": []
    },
    {
      "x": 104,
      "y": 326,
      "size": 1,
      "price": "3000000000000000000000",
      "assetIds": []
    },
    {
      "x": 104,
      "y": 327,
      "size": 1,
      "price": "3000000000000000000000",
      "assetIds": []
    },
    {
      "x": 104,
      "y": 328,
      "size": 1,
      "price": "3000000000000000000000",
      "assetIds": []
    },
    {
      "x": 104,
      "y": 329,
      "size": 1,
      "price": "3000000000000000000000",
      "reserved": "0x7a9fe22691c811ea339d9b73150e6911a5343dca",
      "assetIds": []
    },
    {
      "x": 105,
      "y": 323,
      "size": 1,
      "price": "3000000000000000000000",
      "assetIds": []
    },
    {
      "x": 105,
      "y": 322,
      "size": 1,
      "price": "3000000000000000000000",
      "assetIds": []
    },
    {
      "x": 105,
      "y": 321,
      "size": 1,
      "price": "3000000000000000000000",
      "assetIds": []
    },
    {
      "x": 105,
      "y": 311,
      "size": 1,
      "price": "3000000000000000000000",
      "assetIds": []
    },
    {
      "x": 105,
      "y": 310,
      "size": 1,
      "price": "3000000000000000000000",
      "assetIds": []
    },
    {
      "x": 105,
      "y": 309,
      "size": 1,
      "price": "3000000000000000000000",
      "assetIds": []
    },
    {
      "x": 105,
      "y": 305,
      "size": 1,
      "price": "6950000000000000000000",
      "assetIds": [
        "35541503283276933796147438414694400616078274122459190822474961601238453471232",
        "35541503283276933796147438414694400616078274122459190822474961601238453471233",
        "35541503283276933796147438414694400616078274122459190822474961601238453471234",
        "35541503283276933796147438414694400616078274122459190822474961601238453471236"
      ]
    },
    {
      "x": 105,
      "y": 304,
      "size": 1,
      "price": "6950000000000000000000",
      "assetIds": [
        "35541503283276933796147438414694400616078274122459190822474961601238453471232",
        "35541503283276933796147438414694400616078274122459190822474961601238453471233",
        "35541503283276933796147438414694400616078274122459190822474961601238453471234",
        "35541503283276933796147438414694400616078274122459190822474961601238453471240"
      ]
    },
    {
      "x": 105,
      "y": 303,
      "size": 1,
      "price": "3000000000000000000000",
      "reserved": "0x7a9fe22691c811ea339d9b73150e6911a5343dca",
      "assetIds": []
    },
    {
      "x": 105,
      "y": 302,
      "size": 1,
      "price": "6950000000000000000000",
      "assetIds": [
        "35541503283276933796147438414694400616078274122459190822474961601238453471232",
        "35541503283276933796147438414694400616078274122459190822474961601238453471233",
        "35541503283276933796147438414694400616078274122459190822474961601238453471234",
        "35541503283276933796147438414694400616078274122459190822474961601238453471240"
      ]
    },
    {
      "x": 105,
      "y": 301,
      "size": 1,
      "price": "6950000000000000000000",
      "assetIds": [
        "35541503283276933796147438414694400616078274122459190822474961601238453471232",
        "35541503283276933796147438414694400616078274122459190822474961601238453471233",
        "35541503283276933796147438414694400616078274122459190822474961601238453471234",
        "35541503283276933796147438414694400616078274122459190822474961601238453471236"
      ]
    },
    {
      "x": 105,
      "y": 300,
      "size": 1,
      "price": "6950000000000000000000",
      "assetIds": [
        "35541503283276933796147438414694400616078274122459190822474961601238453471232",
        "35541503283276933796147438414694400616078274122459190822474961601238453471233",
        "35541503283276933796147438414694400616078274122459190822474961601238453471234",
        "35541503283276933796147438414694400616078274122459190822474961601238453471238"
      ]
    },
    {
      "x": 106,
      "y": 300,
      "size": 1,
      "price": "6950000000000000000000",
      "assetIds": [
        "35541503283276933796147438414694400616078274122459190822474961601238453471232",
        "35541503283276933796147438414694400616078274122459190822474961601238453471233",
        "35541503283276933796147438414694400616078274122459190822474961601238453471234",
        "35541503283276933796147438414694400616078274122459190822474961601238453471237"
      ]
    },
    {
      "x": 106,
      "y": 301,
      "size": 1,
      "price": "6950000000000000000000",
      "assetIds": [
        "35541503283276933796147438414694400616078274122459190822474961601238453471232",
        "35541503283276933796147438414694400616078274122459190822474961601238453471233",
        "35541503283276933796147438414694400616078274122459190822474961601238453471234",
        "35541503283276933796147438414694400616078274122459190822474961601238453471239"
      ]
    },
    {
      "x": 106,
      "y": 302,
      "size": 1,
      "price": "6950000000000000000000",
      "assetIds": [
        "35541503283276933796147438414694400616078274122459190822474961601238453471232",
        "35541503283276933796147438414694400616078274122459190822474961601238453471233",
        "35541503283276933796147438414694400616078274122459190822474961601238453471234",
        "35541503283276933796147438414694400616078274122459190822474961601238453471239"
      ]
    },
    {
      "x": 106,
      "y": 303,
      "size": 1,
      "price": "6950000000000000000000",
      "assetIds": [
        "35541503283276933796147438414694400616078274122459190822474961601238453471232",
        "35541503283276933796147438414694400616078274122459190822474961601238453471233",
        "35541503283276933796147438414694400616078274122459190822474961601238453471234",
        "35541503283276933796147438414694400616078274122459190822474961601238453471238"
      ]
    },
    {
      "x": 106,
      "y": 304,
      "size": 1,
      "price": "6950000000000000000000",
      "assetIds": [
        "35541503283276933796147438414694400616078274122459190822474961601238453471232",
        "35541503283276933796147438414694400616078274122459190822474961601238453471233",
        "35541503283276933796147438414694400616078274122459190822474961601238453471234",
        "35541503283276933796147438414694400616078274122459190822474961601238453471239"
      ]
    },
    {
      "x": 106,
      "y": 305,
      "size": 1,
      "price": "3000000000000000000000",
      "assetIds": []
    },
    {
      "x": 106,
      "y": 309,
      "size": 1,
      "price": "3000000000000000000000",
      "assetIds": []
    },
    {
      "x": 106,
      "y": 310,
      "size": 1,
      "price": "3000000000000000000000",
      "assetIds": []
    },
    {
      "x": 106,
      "y": 311,
      "size": 1,
      "price": "3000000000000000000000",
      "reserved": "0x7a9fe22691c811ea339d9b73150e6911a5343dca",
      "assetIds": []
    },
    {
      "x": 106,
      "y": 321,
      "size": 1,
      "price": "3000000000000000000000",
      "assetIds": []
    },
    {
      "x": 106,
      "y": 322,
      "size": 1,
      "price": "3000000000000000000000",
      "assetIds": []
    },
    {
      "x": 106,
      "y": 323,
      "size": 1,
      "price": "3000000000000000000000",
      "assetIds": []
    },
    {
      "x": 107,
      "y": 323,
      "size": 1,
      "price": "3000000000000000000000",
      "assetIds": []
    },
    {
      "x": 107,
      "y": 322,
      "size": 1,
      "price": "3000000000000000000000",
      "reserved": "0x7a9fe22691c811ea339d9b73150e6911a5343dca",
      "assetIds": []
    },
    {
      "x": 107,
      "y": 321,
      "size": 1,
      "price": "3000000000000000000000",
      "assetIds": []
    },
    {
      "x": 107,
      "y": 311,
      "size": 1,
      "price": "3000000000000000000000",
      "assetIds": []
    },
    {
      "x": 107,
      "y": 310,
      "size": 1,
      "price": "3000000000000000000000",
      "assetIds": []
    },
    {
      "x": 107,
      "y": 309,
      "size": 1,
      "price": "3000000000000000000000",
      "assetIds": []
    },
    {
      "x": 107,
      "y": 305,
      "size": 1,
      "price": "3000000000000000000000",
      "assetIds": []
    },
    {
      "x": 107,
      "y": 304,
      "size": 1,
      "price": "6950000000000000000000",
      "assetIds": [
        "35541503283276933796147438414694400616078274122459190822474961601238453471232",
        "35541503283276933796147438414694400616078274122459190822474961601238453471233",
        "35541503283276933796147438414694400616078274122459190822474961601238453471234",
        "35541503283276933796147438414694400616078274122459190822474961601238453471235"
      ]
    },
    {
      "x": 107,
      "y": 303,
      "size": 1,
      "price": "6950000000000000000000",
      "assetIds": [
        "35541503283276933796147438414694400616078274122459190822474961601238453471232",
        "35541503283276933796147438414694400616078274122459190822474961601238453471233",
        "35541503283276933796147438414694400616078274122459190822474961601238453471234",
        "35541503283276933796147438414694400616078274122459190822474961601238453471238"
      ]
    },
    {
      "x": 107,
      "y": 302,
      "size": 1,
      "price": "6950000000000000000000",
      "assetIds": [
        "35541503283276933796147438414694400616078274122459190822474961601238453471232",
        "35541503283276933796147438414694400616078274122459190822474961601238453471233",
        "35541503283276933796147438414694400616078274122459190822474961601238453471234",
        "35541503283276933796147438414694400616078274122459190822474961601238453471235"
      ]
    },
    {
      "x": 107,
      "y": 301,
      "size": 1,
      "price": "6950000000000000000000",
      "assetIds": [
        "35541503283276933796147438414694400616078274122459190822474961601238453471232",
        "35541503283276933796147438414694400616078274122459190822474961601238453471233",
        "35541503283276933796147438414694400616078274122459190822474961601238453471234",
        "35541503283276933796147438414694400616078274122459190822474961601238453471239"
      ]
    },
    {
      "x": 107,
      "y": 300,
      "size": 1,
      "price": "6950000000000000000000",
      "assetIds": [
        "35541503283276933796147438414694400616078274122459190822474961601238453471232",
        "35541503283276933796147438414694400616078274122459190822474961601238453471233",
        "35541503283276933796147438414694400616078274122459190822474961601238453471234",
        "35541503283276933796147438414694400616078274122459190822474961601238453471238"
      ]
    },
    {
      "x": 108,
      "y": 296,
      "size": 1,
      "price": "6950000000000000000000",
      "assetIds": [
        "35541503283276933796147438414694400616078274122459190822474961601238453471232",
        "35541503283276933796147438414694400616078274122459190822474961601238453471233",
        "35541503283276933796147438414694400616078274122459190822474961601238453471234",
        "35541503283276933796147438414694400616078274122459190822474961601238453471239"
      ]
    },
    {
      "x": 108,
      "y": 297,
      "size": 1,
      "price": "6950000000000000000000",
      "assetIds": [
        "35541503283276933796147438414694400616078274122459190822474961601238453471232",
        "35541503283276933796147438414694400616078274122459190822474961601238453471233",
        "35541503283276933796147438414694400616078274122459190822474961601238453471234",
        "35541503283276933796147438414694400616078274122459190822474961601238453471237"
      ]
    },
    {
      "x": 108,
      "y": 298,
      "size": 1,
      "price": "6950000000000000000000",
      "assetIds": [
        "35541503283276933796147438414694400616078274122459190822474961601238453471232",
        "35541503283276933796147438414694400616078274122459190822474961601238453471233",
        "35541503283276933796147438414694400616078274122459190822474961601238453471234",
        "35541503283276933796147438414694400616078274122459190822474961601238453471239"
      ]
    },
    {
      "x": 108,
      "y": 299,
      "size": 1,
      "price": "6950000000000000000000",
      "assetIds": [
        "35541503283276933796147438414694400616078274122459190822474961601238453471232",
        "35541503283276933796147438414694400616078274122459190822474961601238453471233",
        "35541503283276933796147438414694400616078274122459190822474961601238453471234",
        "35541503283276933796147438414694400616078274122459190822474961601238453471240"
      ]
    },
    {
      "x": 108,
      "y": 300,
      "size": 1,
      "price": "3000000000000000000000",
      "reserved": "0x7a9fe22691c811ea339d9b73150e6911a5343dca",
      "assetIds": []
    },
    {
      "x": 108,
      "y": 301,
      "size": 1,
      "price": "6950000000000000000000",
      "assetIds": [
        "35541503283276933796147438414694400616078274122459190822474961601238453471232",
        "35541503283276933796147438414694400616078274122459190822474961601238453471233",
        "35541503283276933796147438414694400616078274122459190822474961601238453471234",
        "35541503283276933796147438414694400616078274122459190822474961601238453471238"
      ]
    },
    {
      "x": 108,
      "y": 302,
      "size": 1,
      "price": "6950000000000000000000",
      "assetIds": [
        "35541503283276933796147438414694400616078274122459190822474961601238453471232",
        "35541503283276933796147438414694400616078274122459190822474961601238453471233",
        "35541503283276933796147438414694400616078274122459190822474961601238453471234",
        "35541503283276933796147438414694400616078274122459190822474961601238453471235"
      ]
    },
    {
      "x": 108,
      "y": 303,
      "size": 1,
      "price": "6950000000000000000000",
      "assetIds": [
        "35541503283276933796147438414694400616078274122459190822474961601238453471232",
        "35541503283276933796147438414694400616078274122459190822474961601238453471233",
        "35541503283276933796147438414694400616078274122459190822474961601238453471234",
        "35541503283276933796147438414694400616078274122459190822474961601238453471237"
      ]
    },
    {
      "x": 108,
      "y": 304,
      "size": 1,
      "price": "6950000000000000000000",
      "assetIds": [
        "35541503283276933796147438414694400616078274122459190822474961601238453471232",
        "35541503283276933796147438414694400616078274122459190822474961601238453471233",
        "35541503283276933796147438414694400616078274122459190822474961601238453471234",
        "35541503283276933796147438414694400616078274122459190822474961601238453471238"
      ]
    },
    {
      "x": 108,
      "y": 305,
      "size": 1,
      "price": "6950000000000000000000",
      "assetIds": [
        "35541503283276933796147438414694400616078274122459190822474961601238453471232",
        "35541503283276933796147438414694400616078274122459190822474961601238453471233",
        "35541503283276933796147438414694400616078274122459190822474961601238453471234",
        "35541503283276933796147438414694400616078274122459190822474961601238453471235"
      ]
    },
    {
      "x": 108,
      "y": 306,
      "size": 1,
      "price": "3000000000000000000000",
      "assetIds": []
    },
    {
      "x": 108,
      "y": 307,
      "size": 1,
      "price": "3000000000000000000000",
      "assetIds": []
    },
    {
      "x": 108,
      "y": 308,
      "size": 1,
      "price": "3000000000000000000000",
      "reserved": "0x7a9fe22691c811ea339d9b73150e6911a5343dca",
      "assetIds": []
    },
    {
      "x": 108,
      "y": 312,
      "size": 1,
      "price": "3000000000000000000000",
      "assetIds": []
    },
    {
      "x": 108,
      "y": 313,
      "size": 1,
      "price": "3000000000000000000000",
      "assetIds": []
    },
    {
      "x": 108,
      "y": 314,
      "size": 1,
      "price": "3000000000000000000000",
      "assetIds": []
    },
    {
      "x": 109,
      "y": 324,
      "size": 1,
      "price": "3000000000000000000000",
      "assetIds": []
    },
    {
      "x": 109,
      "y": 325,
      "size": 1,
      "price": "3000000000000000000000",
      "assetIds": []
    },
    {
      "x": 109,
      "y": 326,
      "size": 1,
      "price": "3000000000000000000000",
      "assetIds": []
    },
    {
      "x": 110,
      "y": 326,
      "size": 1,
      "price": "3000000000000000000000",
      "assetIds": []
    },
    {
      "x": 110,
      "y": 325,
      "size": 1,
      "price": "3000000000000000000000",
      "assetIds": []
    },
    {
      "x": 110,
      "y": 324,
      "size": 1,
      "price": "3000000000000000000000",
      "assetIds": []
    },
    {
      "x": 110,
      "y": 314,
      "size": 1,
      "price": "3000000000000000000000",
      "assetIds": []
    },
    {
      "x": 110,
      "y": 313,
      "size": 1,
      "price": "3000000000000000000000",
      "assetIds": []
    },
    {
      "x": 110,
      "y": 312,
      "size": 1,
      "price": "3000000000000000000000",
      "assetIds": []
    },
    {
      "x": 110,
      "y": 308,
      "size": 1,
      "price": "3000000000000000000000",
      "assetIds": []
    },
    {
      "x": 110,
      "y": 307,
      "size": 1,
      "price": "3000000000000000000000",
      "assetIds": []
    },
    {
      "x": 110,
      "y": 306,
      "size": 1,
      "price": "3000000000000000000000",
      "assetIds": []
    },
    {
      "x": 110,
      "y": 305,
      "size": 1,
      "price": "3000000000000000000000",
      "reserved": "0x7a9fe22691c811ea339d9b73150e6911a5343dca",
      "assetIds": []
    },
    {
      "x": 110,
      "y": 304,
      "size": 1,
      "price": "3000000000000000000000",
      "assetIds": []
    },
    {
      "x": 110,
      "y": 303,
      "size": 1,
      "price": "6950000000000000000000",
      "assetIds": [
        "35541503283276933796147438414694400616078274122459190822474961601238453471232",
        "35541503283276933796147438414694400616078274122459190822474961601238453471233",
        "35541503283276933796147438414694400616078274122459190822474961601238453471234",
        "35541503283276933796147438414694400616078274122459190822474961601238453471235"
      ]
    },
    {
      "x": 110,
      "y": 302,
      "size": 1,
      "price": "6950000000000000000000",
      "assetIds": [
        "35541503283276933796147438414694400616078274122459190822474961601238453471232",
        "35541503283276933796147438414694400616078274122459190822474961601238453471233",
        "35541503283276933796147438414694400616078274122459190822474961601238453471234",
        "35541503283276933796147438414694400616078274122459190822474961601238453471237"
      ]
    },
    {
      "x": 110,
      "y": 301,
      "size": 1,
      "price": "6950000000000000000000",
      "assetIds": [
        "35541503283276933796147438414694400616078274122459190822474961601238453471232",
        "35541503283276933796147438414694400616078274122459190822474961601238453471233",
        "35541503283276933796147438414694400616078274122459190822474961601238453471234",
        "35541503283276933796147438414694400616078274122459190822474961601238453471240"
      ]
    },
    {
      "x": 110,
      "y": 300,
      "size": 1,
      "price": "6950000000000000000000",
      "assetIds": [
        "35541503283276933796147438414694400616078274122459190822474961601238453471232",
        "35541503283276933796147438414694400616078274122459190822474961601238453471233",
        "35541503283276933796147438414694400616078274122459190822474961601238453471234",
        "35541503283276933796147438414694400616078274122459190822474961601238453471239"
      ]
    },
    {
      "x": 110,
      "y": 299,
      "size": 1,
      "price": "6950000000000000000000",
      "assetIds": [
        "35541503283276933796147438414694400616078274122459190822474961601238453471232",
        "35541503283276933796147438414694400616078274122459190822474961601238453471233",
        "35541503283276933796147438414694400616078274122459190822474961601238453471234",
        "35541503283276933796147438414694400616078274122459190822474961601238453471236"
      ]
    },
    {
      "x": 110,
      "y": 298,
      "size": 1,
      "price": "3000000000000000000000",
      "reserved": "0x7a9fe22691c811ea339d9b73150e6911a5343dca",
      "assetIds": []
    },
    {
      "x": 110,
      "y": 297,
      "size": 1,
      "price": "6950000000000000000000",
      "assetIds": [
        "35541503283276933796147438414694400616078274122459190822474961601238453471232",
        "35541503283276933796147438414694400616078274122459190822474961601238453471233",
        "35541503283276933796147438414694400616078274122459190822474961601238453471234",
        "35541503283276933796147438414694400616078274122459190822474961601238453471236"
      ]
    },
    {
      "x": 110,
      "y": 296,
      "size": 1,
      "price": "6950000000000000000000",
      "assetIds": [
        "35541503283276933796147438414694400616078274122459190822474961601238453471232",
        "35541503283276933796147438414694400616078274122459190822474961601238453471233",
        "35541503283276933796147438414694400616078274122459190822474961601238453471234",
        "35541503283276933796147438414694400616078274122459190822474961601238453471239"
      ]
    },
    {
      "x": 110,
      "y": 295,
      "size": 1,
      "price": "6950000000000000000000",
      "assetIds": [
        "35541503283276933796147438414694400616078274122459190822474961601238453471232",
        "35541503283276933796147438414694400616078274122459190822474961601238453471233",
        "35541503283276933796147438414694400616078274122459190822474961601238453471234",
        "35541503283276933796147438414694400616078274122459190822474961601238453471237"
      ]
    },
    {
      "x": 110,
      "y": 294,
      "size": 1,
      "price": "6950000000000000000000",
      "assetIds": [
        "35541503283276933796147438414694400616078274122459190822474961601238453471232",
        "35541503283276933796147438414694400616078274122459190822474961601238453471233",
        "35541503283276933796147438414694400616078274122459190822474961601238453471234",
        "35541503283276933796147438414694400616078274122459190822474961601238453471237"
      ]
    },
    {
      "x": 109,
      "y": 294,
      "size": 1,
      "price": "6950000000000000000000",
      "assetIds": [
        "35541503283276933796147438414694400616078274122459190822474961601238453471232",
        "35541503283276933796147438414694400616078274122459190822474961601238453471233",
        "35541503283276933796147438414694400616078274122459190822474961601238453471234",
        "35541503283276933796147438414694400616078274122459190822474961601238453471240"
      ]
    },
    {
      "x": 109,
      "y": 295,
      "size": 1,
      "price": "3000000000000000000000",
      "reserved": "0x7a9fe22691c811ea339d9b73150e6911a5343dca",
      "assetIds": []
    },
    {
      "x": 109,
      "y": 296,
      "size": 1,
      "price": "6950000000000000000000",
      "assetIds": [
        "35541503283276933796147438414694400616078274122459190822474961601238453471232",
        "35541503283276933796147438414694400616078274122459190822474961601238453471233",
        "35541503283276933796147438414694400616078274122459190822474961601238453471234",
        "35541503283276933796147438414694400616078274122459190822474961601238453471235"
      ]
    },
    {
      "x": 109,
      "y": 297,
      "size": 1,
      "price": "6950000000000000000000",
      "assetIds": [
        "35541503283276933796147438414694400616078274122459190822474961601238453471232",
        "35541503283276933796147438414694400616078274122459190822474961601238453471233",
        "35541503283276933796147438414694400616078274122459190822474961601238453471234",
        "35541503283276933796147438414694400616078274122459190822474961601238453471238"
      ]
    },
    {
      "x": 109,
      "y": 298,
      "size": 1,
      "price": "6950000000000000000000",
      "assetIds": [
        "35541503283276933796147438414694400616078274122459190822474961601238453471232",
        "35541503283276933796147438414694400616078274122459190822474961601238453471233",
        "35541503283276933796147438414694400616078274122459190822474961601238453471234",
        "35541503283276933796147438414694400616078274122459190822474961601238453471238"
      ]
    },
    {
      "x": 109,
      "y": 299,
      "size": 1,
      "price": "6950000000000000000000",
      "assetIds": [
        "35541503283276933796147438414694400616078274122459190822474961601238453471232",
        "35541503283276933796147438414694400616078274122459190822474961601238453471233",
        "35541503283276933796147438414694400616078274122459190822474961601238453471234",
        "35541503283276933796147438414694400616078274122459190822474961601238453471240"
      ]
    },
    {
      "x": 109,
      "y": 300,
      "size": 1,
      "price": "6950000000000000000000",
      "assetIds": [
        "35541503283276933796147438414694400616078274122459190822474961601238453471232",
        "35541503283276933796147438414694400616078274122459190822474961601238453471233",
        "35541503283276933796147438414694400616078274122459190822474961601238453471234",
        "35541503283276933796147438414694400616078274122459190822474961601238453471235"
      ]
    },
    {
      "x": 109,
      "y": 301,
      "size": 1,
      "price": "6950000000000000000000",
      "assetIds": [
        "35541503283276933796147438414694400616078274122459190822474961601238453471232",
        "35541503283276933796147438414694400616078274122459190822474961601238453471233",
        "35541503283276933796147438414694400616078274122459190822474961601238453471234",
        "35541503283276933796147438414694400616078274122459190822474961601238453471240"
      ]
    },
    {
      "x": 109,
      "y": 302,
      "size": 1,
      "price": "6950000000000000000000",
      "assetIds": [
        "35541503283276933796147438414694400616078274122459190822474961601238453471232",
        "35541503283276933796147438414694400616078274122459190822474961601238453471233",
        "35541503283276933796147438414694400616078274122459190822474961601238453471234",
        "35541503283276933796147438414694400616078274122459190822474961601238453471238"
      ]
    },
    {
      "x": 109,
      "y": 303,
      "size": 1,
      "price": "6950000000000000000000",
      "assetIds": [
        "35541503283276933796147438414694400616078274122459190822474961601238453471232",
        "35541503283276933796147438414694400616078274122459190822474961601238453471233",
        "35541503283276933796147438414694400616078274122459190822474961601238453471234",
        "35541503283276933796147438414694400616078274122459190822474961601238453471237"
      ]
    },
    {
      "x": 109,
      "y": 304,
      "size": 1,
      "price": "6950000000000000000000",
      "assetIds": [
        "35541503283276933796147438414694400616078274122459190822474961601238453471232",
        "35541503283276933796147438414694400616078274122459190822474961601238453471233",
        "35541503283276933796147438414694400616078274122459190822474961601238453471234",
        "35541503283276933796147438414694400616078274122459190822474961601238453471240"
      ]
    },
    {
      "x": 109,
      "y": 305,
      "size": 1,
      "price": "3000000000000000000000",
      "assetIds": []
    },
    {
      "x": 109,
      "y": 306,
      "size": 1,
      "price": "3000000000000000000000",
      "assetIds": []
    },
    {
      "x": 109,
      "y": 307,
      "size": 1,
      "price": "3000000000000000000000",
      "assetIds": []
    },
    {
      "x": 109,
      "y": 308,
      "size": 1,
      "price": "3000000000000000000000",
      "assetIds": []
    },
    {
      "x": 109,
      "y": 312,
      "size": 1,
      "price": "3000000000000000000000",
      "assetIds": []
    },
    {
      "x": 109,
      "y": 313,
      "size": 1,
      "price": "3000000000000000000000",
      "assetIds": []
    },
    {
      "x": 109,
      "y": 314,
      "size": 1,
      "price": "3000000000000000000000",
      "reserved": "0x7a9fe22691c811ea339d9b73150e6911a5343dca",
      "assetIds": []
    },
    {
      "x": 111,
      "y": 329,
      "size": 1,
      "price": "3000000000000000000000",
      "assetIds": []
    },
    {
      "x": 111,
      "y": 328,
      "size": 1,
      "price": "3000000000000000000000",
      "reserved": "0x7a9fe22691c811ea339d9b73150e6911a5343dca",
      "assetIds": []
    },
    {
      "x": 111,
      "y": 327,
      "size": 1,
      "price": "3000000000000000000000",
      "assetIds": []
    },
    {
      "x": 111,
      "y": 323,
      "size": 1,
      "price": "3000000000000000000000",
      "assetIds": []
    },
    {
      "x": 111,
      "y": 322,
      "size": 1,
      "price": "3000000000000000000000",
      "assetIds": []
    },
    {
      "x": 111,
      "y": 321,
      "size": 1,
      "price": "3000000000000000000000",
      "assetIds": []
    },
    {
      "x": 111,
      "y": 320,
      "size": 1,
      "price": "3000000000000000000000",
      "assetIds": []
    },
    {
      "x": 111,
      "y": 319,
      "size": 1,
      "price": "3000000000000000000000",
      "assetIds": []
    },
    {
      "x": 111,
      "y": 318,
      "size": 1,
      "price": "3000000000000000000000",
      "assetIds": []
    },
    {
      "x": 111,
      "y": 317,
      "size": 1,
      "price": "3000000000000000000000",
      "reserved": "0x7a9fe22691c811ea339d9b73150e6911a5343dca",
      "assetIds": []
    },
    {
      "x": 111,
      "y": 316,
      "size": 1,
      "price": "3000000000000000000000",
      "assetIds": []
    },
    {
      "x": 111,
      "y": 315,
      "size": 1,
      "price": "3000000000000000000000",
      "assetIds": []
    },
    {
      "x": 111,
      "y": 311,
      "size": 1,
      "price": "3000000000000000000000",
      "assetIds": []
    },
    {
      "x": 111,
      "y": 310,
      "size": 1,
      "price": "3000000000000000000000",
      "assetIds": []
    },
    {
      "x": 111,
      "y": 309,
      "size": 1,
      "price": "3000000000000000000000",
      "assetIds": []
    },
    {
      "x": 111,
      "y": 302,
      "size": 1,
      "price": "6950000000000000000000",
      "assetIds": [
        "35541503283276933796147438414694400616078274122459190822474961601238453471232",
        "35541503283276933796147438414694400616078274122459190822474961601238453471233",
        "35541503283276933796147438414694400616078274122459190822474961601238453471234",
        "35541503283276933796147438414694400616078274122459190822474961601238453471235"
      ]
    },
    {
      "x": 111,
      "y": 301,
      "size": 1,
      "price": "6950000000000000000000",
      "assetIds": [
        "35541503283276933796147438414694400616078274122459190822474961601238453471232",
        "35541503283276933796147438414694400616078274122459190822474961601238453471233",
        "35541503283276933796147438414694400616078274122459190822474961601238453471234",
        "35541503283276933796147438414694400616078274122459190822474961601238453471235"
      ]
    },
    {
      "x": 111,
      "y": 300,
      "size": 1,
      "price": "6950000000000000000000",
      "assetIds": [
        "35541503283276933796147438414694400616078274122459190822474961601238453471232",
        "35541503283276933796147438414694400616078274122459190822474961601238453471233",
        "35541503283276933796147438414694400616078274122459190822474961601238453471234",
        "35541503283276933796147438414694400616078274122459190822474961601238453471235"
      ]
    },
    {
      "x": 111,
      "y": 299,
      "size": 1,
      "price": "6950000000000000000000",
      "assetIds": [
        "35541503283276933796147438414694400616078274122459190822474961601238453471232",
        "35541503283276933796147438414694400616078274122459190822474961601238453471233",
        "35541503283276933796147438414694400616078274122459190822474961601238453471234",
        "35541503283276933796147438414694400616078274122459190822474961601238453471235"
      ]
    },
    {
      "x": 111,
      "y": 298,
      "size": 1,
      "price": "6950000000000000000000",
      "assetIds": [
        "35541503283276933796147438414694400616078274122459190822474961601238453471232",
        "35541503283276933796147438414694400616078274122459190822474961601238453471233",
        "35541503283276933796147438414694400616078274122459190822474961601238453471234",
        "35541503283276933796147438414694400616078274122459190822474961601238453471236"
      ]
    },
    {
      "x": 111,
      "y": 297,
      "size": 1,
      "price": "6950000000000000000000",
      "assetIds": [
        "35541503283276933796147438414694400616078274122459190822474961601238453471232",
        "35541503283276933796147438414694400616078274122459190822474961601238453471233",
        "35541503283276933796147438414694400616078274122459190822474961601238453471234",
        "35541503283276933796147438414694400616078274122459190822474961601238453471236"
      ]
    },
    {
      "x": 111,
      "y": 296,
      "size": 1,
      "price": "6950000000000000000000",
      "assetIds": [
        "35541503283276933796147438414694400616078274122459190822474961601238453471232",
        "35541503283276933796147438414694400616078274122459190822474961601238453471233",
        "35541503283276933796147438414694400616078274122459190822474961601238453471234",
        "35541503283276933796147438414694400616078274122459190822474961601238453471237"
      ]
    },
    {
      "x": 111,
      "y": 295,
      "size": 1,
      "price": "6950000000000000000000",
      "assetIds": [
        "35541503283276933796147438414694400616078274122459190822474961601238453471232",
        "35541503283276933796147438414694400616078274122459190822474961601238453471233",
        "35541503283276933796147438414694400616078274122459190822474961601238453471234",
        "35541503283276933796147438414694400616078274122459190822474961601238453471236"
      ]
    },
    {
      "x": 111,
      "y": 294,
      "size": 1,
      "price": "6950000000000000000000",
      "assetIds": [
        "35541503283276933796147438414694400616078274122459190822474961601238453471232",
        "35541503283276933796147438414694400616078274122459190822474961601238453471233",
        "35541503283276933796147438414694400616078274122459190822474961601238453471234",
        "35541503283276933796147438414694400616078274122459190822474961601238453471239"
      ]
    },
    {
      "x": 111,
      "y": 293,
      "size": 1,
      "price": "6950000000000000000000",
      "assetIds": [
        "35541503283276933796147438414694400616078274122459190822474961601238453471232",
        "35541503283276933796147438414694400616078274122459190822474961601238453471233",
        "35541503283276933796147438414694400616078274122459190822474961601238453471234",
        "35541503283276933796147438414694400616078274122459190822474961601238453471237"
      ]
    },
    {
      "x": 111,
      "y": 292,
      "size": 1,
      "price": "6950000000000000000000",
      "assetIds": [
        "35541503283276933796147438414694400616078274122459190822474961601238453471232",
        "35541503283276933796147438414694400616078274122459190822474961601238453471233",
        "35541503283276933796147438414694400616078274122459190822474961601238453471234",
        "35541503283276933796147438414694400616078274122459190822474961601238453471240"
      ]
    },
    {
      "x": 111,
      "y": 291,
      "size": 1,
      "price": "6950000000000000000000",
      "assetIds": [
        "35541503283276933796147438414694400616078274122459190822474961601238453471232",
        "35541503283276933796147438414694400616078274122459190822474961601238453471233",
        "35541503283276933796147438414694400616078274122459190822474961601238453471234",
        "35541503283276933796147438414694400616078274122459190822474961601238453471239"
      ]
    },
    {
      "x": 111,
      "y": 290,
      "size": 1,
      "price": "6950000000000000000000",
      "assetIds": [
        "35541503283276933796147438414694400616078274122459190822474961601238453471232",
        "35541503283276933796147438414694400616078274122459190822474961601238453471233",
        "35541503283276933796147438414694400616078274122459190822474961601238453471234",
        "35541503283276933796147438414694400616078274122459190822474961601238453471237"
      ]
    },
    {
      "x": 111,
      "y": 289,
      "size": 1,
      "price": "3000000000000000000000",
      "reserved": "0x7a9fe22691c811ea339d9b73150e6911a5343dca",
      "assetIds": []
    },
    {
      "x": 111,
      "y": 288,
      "size": 1,
      "price": "6950000000000000000000",
      "assetIds": [
        "35541503283276933796147438414694400616078274122459190822474961601238453471232",
        "35541503283276933796147438414694400616078274122459190822474961601238453471233",
        "35541503283276933796147438414694400616078274122459190822474961601238453471234",
        "35541503283276933796147438414694400616078274122459190822474961601238453471236"
      ]
    },
    {
      "x": 111,
      "y": 287,
      "size": 1,
      "price": "6950000000000000000000",
      "assetIds": [
        "35541503283276933796147438414694400616078274122459190822474961601238453471232",
        "35541503283276933796147438414694400616078274122459190822474961601238453471233",
        "35541503283276933796147438414694400616078274122459190822474961601238453471234",
        "35541503283276933796147438414694400616078274122459190822474961601238453471236"
      ]
    },
    {
      "x": 112,
      "y": 287,
      "size": 1,
      "price": "6950000000000000000000",
      "assetIds": [
        "35541503283276933796147438414694400616078274122459190822474961601238453471232",
        "35541503283276933796147438414694400616078274122459190822474961601238453471233",
        "35541503283276933796147438414694400616078274122459190822474961601238453471234",
        "35541503283276933796147438414694400616078274122459190822474961601238453471236"
      ]
    },
    {
      "x": 112,
      "y": 288,
      "size": 1,
      "price": "6950000000000000000000",
      "assetIds": [
        "35541503283276933796147438414694400616078274122459190822474961601238453471232",
        "35541503283276933796147438414694400616078274122459190822474961601238453471233",
        "35541503283276933796147438414694400616078274122459190822474961601238453471234",
        "35541503283276933796147438414694400616078274122459190822474961601238453471238"
      ]
    },
    {
      "x": 112,
      "y": 289,
      "size": 1,
      "price": "6950000000000000000000",
      "assetIds": [
        "35541503283276933796147438414694400616078274122459190822474961601238453471232",
        "35541503283276933796147438414694400616078274122459190822474961601238453471233",
        "35541503283276933796147438414694400616078274122459190822474961601238453471234",
        "35541503283276933796147438414694400616078274122459190822474961601238453471238"
      ]
    },
    {
      "x": 112,
      "y": 290,
      "size": 1,
      "price": "6950000000000000000000",
      "assetIds": [
        "35541503283276933796147438414694400616078274122459190822474961601238453471232",
        "35541503283276933796147438414694400616078274122459190822474961601238453471233",
        "35541503283276933796147438414694400616078274122459190822474961601238453471234",
        "35541503283276933796147438414694400616078274122459190822474961601238453471238"
      ]
    },
    {
      "x": 112,
      "y": 291,
      "size": 1,
      "price": "6950000000000000000000",
      "assetIds": [
        "35541503283276933796147438414694400616078274122459190822474961601238453471232",
        "35541503283276933796147438414694400616078274122459190822474961601238453471233",
        "35541503283276933796147438414694400616078274122459190822474961601238453471234",
        "35541503283276933796147438414694400616078274122459190822474961601238453471238"
      ]
    },
    {
      "x": 112,
      "y": 292,
      "size": 1,
      "price": "6950000000000000000000",
      "assetIds": [
        "35541503283276933796147438414694400616078274122459190822474961601238453471232",
        "35541503283276933796147438414694400616078274122459190822474961601238453471233",
        "35541503283276933796147438414694400616078274122459190822474961601238453471234",
        "35541503283276933796147438414694400616078274122459190822474961601238453471236"
      ]
    },
    {
      "x": 112,
      "y": 293,
      "size": 1,
      "price": "6950000000000000000000",
      "assetIds": [
        "35541503283276933796147438414694400616078274122459190822474961601238453471232",
        "35541503283276933796147438414694400616078274122459190822474961601238453471233",
        "35541503283276933796147438414694400616078274122459190822474961601238453471234",
        "35541503283276933796147438414694400616078274122459190822474961601238453471235"
      ]
    },
    {
      "x": 112,
      "y": 294,
      "size": 1,
      "price": "3000000000000000000000",
      "reserved": "0x7a9fe22691c811ea339d9b73150e6911a5343dca",
      "assetIds": []
    },
    {
      "x": 112,
      "y": 295,
      "size": 1,
      "price": "6950000000000000000000",
      "assetIds": [
        "35541503283276933796147438414694400616078274122459190822474961601238453471232",
        "35541503283276933796147438414694400616078274122459190822474961601238453471233",
        "35541503283276933796147438414694400616078274122459190822474961601238453471234",
        "35541503283276933796147438414694400616078274122459190822474961601238453471238"
      ]
    },
    {
      "x": 112,
      "y": 296,
      "size": 1,
      "price": "6950000000000000000000",
      "assetIds": [
        "35541503283276933796147438414694400616078274122459190822474961601238453471232",
        "35541503283276933796147438414694400616078274122459190822474961601238453471233",
        "35541503283276933796147438414694400616078274122459190822474961601238453471234",
        "35541503283276933796147438414694400616078274122459190822474961601238453471236"
      ]
    },
    {
      "x": 112,
      "y": 297,
      "size": 1,
      "price": "6950000000000000000000",
      "assetIds": [
        "35541503283276933796147438414694400616078274122459190822474961601238453471232",
        "35541503283276933796147438414694400616078274122459190822474961601238453471233",
        "35541503283276933796147438414694400616078274122459190822474961601238453471234",
        "35541503283276933796147438414694400616078274122459190822474961601238453471240"
      ]
    },
    {
      "x": 112,
      "y": 298,
      "size": 1,
      "price": "6950000000000000000000",
      "assetIds": [
        "35541503283276933796147438414694400616078274122459190822474961601238453471232",
        "35541503283276933796147438414694400616078274122459190822474961601238453471233",
        "35541503283276933796147438414694400616078274122459190822474961601238453471234",
        "35541503283276933796147438414694400616078274122459190822474961601238453471240"
      ]
    },
    {
      "x": 112,
      "y": 299,
      "size": 1,
      "price": "6950000000000000000000",
      "assetIds": [
        "35541503283276933796147438414694400616078274122459190822474961601238453471232",
        "35541503283276933796147438414694400616078274122459190822474961601238453471233",
        "35541503283276933796147438414694400616078274122459190822474961601238453471234",
        "35541503283276933796147438414694400616078274122459190822474961601238453471238"
      ]
    },
    {
      "x": 112,
      "y": 300,
      "size": 1,
      "price": "6950000000000000000000",
      "assetIds": [
        "35541503283276933796147438414694400616078274122459190822474961601238453471232",
        "35541503283276933796147438414694400616078274122459190822474961601238453471233",
        "35541503283276933796147438414694400616078274122459190822474961601238453471234",
        "35541503283276933796147438414694400616078274122459190822474961601238453471239"
      ]
    },
    {
      "x": 112,
      "y": 301,
      "size": 1,
      "price": "6950000000000000000000",
      "assetIds": [
        "35541503283276933796147438414694400616078274122459190822474961601238453471232",
        "35541503283276933796147438414694400616078274122459190822474961601238453471233",
        "35541503283276933796147438414694400616078274122459190822474961601238453471234",
        "35541503283276933796147438414694400616078274122459190822474961601238453471237"
      ]
    },
    {
      "x": 112,
      "y": 302,
      "size": 1,
      "price": "3000000000000000000000",
      "reserved": "0x7a9fe22691c811ea339d9b73150e6911a5343dca",
      "assetIds": []
    },
    {
      "x": 112,
      "y": 309,
      "size": 1,
      "price": "3000000000000000000000",
      "assetIds": []
    },
    {
      "x": 112,
      "y": 310,
      "size": 1,
      "price": "3000000000000000000000",
      "assetIds": []
    },
    {
      "x": 112,
      "y": 311,
      "size": 1,
      "price": "3000000000000000000000",
      "reserved": "0x7a9fe22691c811ea339d9b73150e6911a5343dca",
      "assetIds": []
    },
    {
      "x": 112,
      "y": 315,
      "size": 1,
      "price": "3000000000000000000000",
      "assetIds": []
    },
    {
      "x": 112,
      "y": 316,
      "size": 1,
      "price": "3000000000000000000000",
      "assetIds": []
    },
    {
      "x": 112,
      "y": 317,
      "size": 1,
      "price": "3000000000000000000000",
      "assetIds": []
    },
    {
      "x": 112,
      "y": 318,
      "size": 1,
      "price": "3000000000000000000000",
      "assetIds": []
    },
    {
      "x": 112,
      "y": 319,
      "size": 1,
      "price": "3000000000000000000000",
      "assetIds": []
    },
    {
      "x": 112,
      "y": 320,
      "size": 1,
      "price": "3000000000000000000000",
      "reserved": "0x7a9fe22691c811ea339d9b73150e6911a5343dca",
      "assetIds": []
    },
    {
      "x": 112,
      "y": 321,
      "size": 1,
      "price": "3000000000000000000000",
      "assetIds": []
    },
    {
      "x": 112,
      "y": 322,
      "size": 1,
      "price": "3000000000000000000000",
      "assetIds": []
    },
    {
      "x": 112,
      "y": 323,
      "size": 1,
      "price": "3000000000000000000000",
      "assetIds": []
    },
    {
      "x": 112,
      "y": 327,
      "size": 1,
      "price": "3000000000000000000000",
      "assetIds": []
    },
    {
      "x": 113,
      "y": 327,
      "size": 1,
      "price": "3000000000000000000000",
      "assetIds": []
    },
    {
      "x": 113,
      "y": 328,
      "size": 1,
      "price": "3000000000000000000000",
      "assetIds": []
    },
    {
      "x": 113,
      "y": 329,
      "size": 1,
      "price": "3000000000000000000000",
      "assetIds": []
    },
    {
      "x": 112,
      "y": 329,
      "size": 1,
      "price": "3000000000000000000000",
      "assetIds": []
    },
    {
      "x": 112,
      "y": 328,
      "size": 1,
      "price": "3000000000000000000000",
      "assetIds": []
    },
    {
      "x": 113,
      "y": 323,
      "size": 1,
      "price": "3000000000000000000000",
      "reserved": "0x7a9fe22691c811ea339d9b73150e6911a5343dca",
      "assetIds": []
    },
    {
      "x": 113,
      "y": 322,
      "size": 1,
      "price": "3000000000000000000000",
      "assetIds": []
    },
    {
      "x": 113,
      "y": 321,
      "size": 1,
      "price": "3000000000000000000000",
      "assetIds": []
    },
    {
      "x": 113,
      "y": 320,
      "size": 1,
      "price": "3000000000000000000000",
      "assetIds": []
    },
    {
      "x": 113,
      "y": 319,
      "size": 1,
      "price": "3000000000000000000000",
      "assetIds": []
    },
    {
      "x": 113,
      "y": 318,
      "size": 1,
      "price": "3000000000000000000000",
      "assetIds": []
    },
    {
      "x": 113,
      "y": 317,
      "size": 1,
      "price": "3000000000000000000000",
      "assetIds": []
    },
    {
      "x": 113,
      "y": 316,
      "size": 1,
      "price": "3000000000000000000000",
      "assetIds": []
    },
    {
      "x": 113,
      "y": 315,
      "size": 1,
      "price": "3000000000000000000000",
      "assetIds": []
    },
    {
      "x": 113,
      "y": 311,
      "size": 1,
      "price": "3000000000000000000000",
      "assetIds": []
    },
    {
      "x": 113,
      "y": 310,
      "size": 1,
      "price": "3000000000000000000000",
      "assetIds": []
    },
    {
      "x": 113,
      "y": 309,
      "size": 1,
      "price": "3000000000000000000000",
      "reserved": "0x7a9fe22691c811ea339d9b73150e6911a5343dca",
      "assetIds": []
    },
    {
      "x": 113,
      "y": 302,
      "size": 1,
      "price": "3000000000000000000000",
      "assetIds": []
    },
    {
      "x": 113,
      "y": 301,
      "size": 1,
      "price": "3000000000000000000000",
      "assetIds": []
    },
    {
      "x": 113,
      "y": 300,
      "size": 1,
      "price": "3000000000000000000000",
      "reserved": "0x7a9fe22691c811ea339d9b73150e6911a5343dca",
      "assetIds": []
    },
    {
      "x": 113,
      "y": 299,
      "size": 1,
      "price": "3000000000000000000000",
      "assetIds": []
    },
    {
      "x": 113,
      "y": 298,
      "size": 1,
      "price": "6950000000000000000000",
      "assetIds": [
        "35541503283276933796147438414694400616078274122459190822474961601238453471232",
        "35541503283276933796147438414694400616078274122459190822474961601238453471233",
        "35541503283276933796147438414694400616078274122459190822474961601238453471234",
        "35541503283276933796147438414694400616078274122459190822474961601238453471236"
      ]
    },
    {
      "x": 113,
      "y": 297,
      "size": 1,
      "price": "3000000000000000000000",
      "assetIds": []
    },
    {
      "x": 113,
      "y": 296,
      "size": 1,
      "price": "3000000000000000000000",
      "assetIds": []
    },
    {
      "x": 113,
      "y": 295,
      "size": 1,
      "price": "6950000000000000000000",
      "assetIds": [
        "35541503283276933796147438414694400616078274122459190822474961601238453471232",
        "35541503283276933796147438414694400616078274122459190822474961601238453471233",
        "35541503283276933796147438414694400616078274122459190822474961601238453471234",
        "35541503283276933796147438414694400616078274122459190822474961601238453471237"
      ]
    },
    {
      "x": 113,
      "y": 294,
      "size": 1,
      "price": "3000000000000000000000",
      "assetIds": []
    },
    {
      "x": 113,
      "y": 293,
      "size": 1,
      "price": "3000000000000000000000",
      "assetIds": []
    },
    {
      "x": 113,
      "y": 292,
      "size": 1,
      "price": "6950000000000000000000",
      "assetIds": [
        "35541503283276933796147438414694400616078274122459190822474961601238453471232",
        "35541503283276933796147438414694400616078274122459190822474961601238453471233",
        "35541503283276933796147438414694400616078274122459190822474961601238453471234",
        "35541503283276933796147438414694400616078274122459190822474961601238453471237"
      ]
    },
    {
      "x": 113,
      "y": 291,
      "size": 1,
      "price": "3000000000000000000000",
      "assetIds": []
    },
    {
      "x": 113,
      "y": 290,
      "size": 1,
      "price": "3000000000000000000000",
      "assetIds": []
    },
    {
      "x": 113,
      "y": 289,
      "size": 1,
      "price": "6950000000000000000000",
      "assetIds": [
        "35541503283276933796147438414694400616078274122459190822474961601238453471232",
        "35541503283276933796147438414694400616078274122459190822474961601238453471233",
        "35541503283276933796147438414694400616078274122459190822474961601238453471234",
        "35541503283276933796147438414694400616078274122459190822474961601238453471237"
      ]
    },
    {
      "x": 113,
      "y": 288,
      "size": 1,
      "price": "3000000000000000000000",
      "assetIds": []
    },
    {
      "x": 113,
      "y": 287,
      "size": 1,
      "price": "6950000000000000000000",
      "assetIds": [
        "35541503283276933796147438414694400616078274122459190822474961601238453471232",
        "35541503283276933796147438414694400616078274122459190822474961601238453471233",
        "35541503283276933796147438414694400616078274122459190822474961601238453471234",
        "35541503283276933796147438414694400616078274122459190822474961601238453471238"
      ]
    },
    {
      "x": 113,
      "y": 286,
      "size": 1,
      "price": "3000000000000000000000",
      "reserved": "0x7a9fe22691c811ea339d9b73150e6911a5343dca",
      "assetIds": []
    },
    {
      "x": 113,
      "y": 285,
      "size": 1,
      "price": "3000000000000000000000",
      "assetIds": []
    },
    {
      "x": 114,
      "y": 293,
      "size": 1,
      "price": "3000000000000000000000",
      "reserved": "0x7a9fe22691c811ea339d9b73150e6911a5343dca",
      "assetIds": []
    },
    {
      "x": 114,
      "y": 292,
      "size": 1,
      "price": "3000000000000000000000",
      "assetIds": []
    },
    {
      "x": 114,
      "y": 291,
      "size": 1,
      "price": "3000000000000000000000",
      "assetIds": []
    },
    {
      "x": 114,
      "y": 290,
      "size": 1,
      "price": "3000000000000000000000",
      "assetIds": []
    },
    {
      "x": 114,
      "y": 289,
      "size": 1,
      "price": "3000000000000000000000",
      "assetIds": []
    },
    {
      "x": 114,
      "y": 288,
      "size": 1,
      "price": "3000000000000000000000",
      "assetIds": []
    },
    {
      "x": 116,
      "y": 288,
      "size": 1,
      "price": "3000000000000000000000",
      "assetIds": []
    },
    {
      "x": 116,
      "y": 289,
      "size": 1,
      "price": "3000000000000000000000",
      "assetIds": []
    },
    {
      "x": 116,
      "y": 290,
      "size": 1,
      "price": "3000000000000000000000",
      "assetIds": []
    },
    {
      "x": 115,
      "y": 290,
      "size": 1,
      "price": "3000000000000000000000",
      "assetIds": []
    },
    {
      "x": 115,
      "y": 291,
      "size": 1,
      "price": "3000000000000000000000",
      "assetIds": []
    },
    {
      "x": 115,
      "y": 292,
      "size": 1,
      "price": "3000000000000000000000",
      "assetIds": []
    },
    {
      "x": 115,
      "y": 293,
      "size": 1,
      "price": "3000000000000000000000",
      "assetIds": []
    },
    {
      "x": 116,
      "y": 293,
      "size": 1,
      "price": "3000000000000000000000",
      "assetIds": []
    },
    {
      "x": 116,
      "y": 292,
      "size": 1,
      "price": "3000000000000000000000",
      "assetIds": []
    },
    {
      "x": 116,
      "y": 291,
      "size": 1,
      "price": "3000000000000000000000",
      "reserved": "0x7a9fe22691c811ea339d9b73150e6911a5343dca",
      "assetIds": []
    },
    {
      "x": 115,
      "y": 289,
      "size": 1,
      "price": "3000000000000000000000",
      "assetIds": []
    },
    {
      "x": 115,
      "y": 288,
      "size": 1,
      "price": "3000000000000000000000",
      "reserved": "0x7a9fe22691c811ea339d9b73150e6911a5343dca",
      "assetIds": []
    },
    {
      "x": 108,
      "y": 326,
      "size": 1,
      "price": "3000000000000000000000",
      "assetIds": []
    },
    {
      "x": 108,
      "y": 325,
      "size": 1,
      "price": "3000000000000000000000",
      "assetIds": []
    },
    {
      "x": 108,
      "y": 324,
      "size": 1,
      "price": "3000000000000000000000",
      "assetIds": []
    },
    {
      "x": 100,
      "y": 316,
      "size": 1,
      "price": "3000000000000000000000",
      "assetIds": []
    },
    {
      "x": 97,
      "y": 313,
      "size": 1,
      "price": "3000000000000000000000",
      "assetIds": []
    },
    {
      "x": 97,
      "y": 312,
      "size": 1,
      "price": "3000000000000000000000",
      "assetIds": []
    },
    {
      "x": 96,
      "y": 312,
      "size": 1,
      "price": "3000000000000000000000",
      "assetIds": []
    },
    {
      "x": 96,
      "y": 308,
      "size": 1,
      "price": "3000000000000000000000",
      "assetIds": []
    },
    {
      "x": 96,
      "y": 307,
      "size": 1,
      "price": "3000000000000000000000",
      "reserved": "0x7a9fe22691c811ea339d9b73150e6911a5343dca",
      "assetIds": []
    },
    {
      "x": 96,
      "y": 313,
      "size": 1,
      "price": "3000000000000000000000",
      "assetIds": []
    },
    {
      "x": 96,
      "y": 314,
      "size": 1,
      "price": "3000000000000000000000",
      "assetIds": []
    },
    {
      "x": 96,
      "y": 321,
      "size": 1,
      "price": "3000000000000000000000",
      "assetIds": []
    },
    {
      "x": 96,
      "y": 322,
      "size": 1,
      "price": "3000000000000000000000",
      "assetIds": []
    },
    {
      "x": 96,
      "y": 323,
      "size": 1,
      "price": "3000000000000000000000",
      "assetIds": []
    },
    {
      "x": 96,
      "y": 327,
      "size": 1,
      "price": "3000000000000000000000",
      "reserved": "0x7a9fe22691c811ea339d9b73150e6911a5343dca",
      "assetIds": []
    },
    {
      "x": 96,
      "y": 328,
      "size": 1,
      "price": "3000000000000000000000",
      "assetIds": []
    },
    {
      "x": 96,
      "y": 329,
      "size": 1,
      "price": "3000000000000000000000",
      "assetIds": []
    },
    {
      "x": 97,
      "y": 329,
      "size": 1,
      "price": "3000000000000000000000",
      "reserved": "0x7a9fe22691c811ea339d9b73150e6911a5343dca",
      "assetIds": []
    },
    {
      "x": 97,
      "y": 328,
      "size": 1,
      "price": "3000000000000000000000",
      "assetIds": []
    },
    {
      "x": 97,
      "y": 327,
      "size": 1,
      "price": "3000000000000000000000",
      "assetIds": []
    },
    {
      "x": 97,
      "y": 323,
      "size": 1,
      "price": "3000000000000000000000",
      "reserved": "0x7a9fe22691c811ea339d9b73150e6911a5343dca",
      "assetIds": []
    },
    {
      "x": 97,
      "y": 322,
      "size": 1,
      "price": "3000000000000000000000",
      "assetIds": []
    },
    {
      "x": 97,
      "y": 321,
      "size": 1,
      "price": "3000000000000000000000",
      "assetIds": []
    },
    {
      "x": 97,
      "y": 314,
      "size": 1,
      "price": "3000000000000000000000",
      "reserved": "0x7a9fe22691c811ea339d9b73150e6911a5343dca",
      "assetIds": []
    },
    {
      "x": 97,
      "y": 308,
      "size": 1,
      "price": "3000000000000000000000",
      "assetIds": []
    },
    {
      "x": 97,
      "y": 307,
      "size": 1,
      "price": "3000000000000000000000",
      "assetIds": []
    },
    {
      "x": 97,
      "y": 306,
      "size": 1,
      "price": "3000000000000000000000",
      "assetIds": []
    },
    {
      "x": 97,
      "y": 305,
      "size": 1,
      "price": "3000000000000000000000",
      "assetIds": []
    },
    {
      "x": 97,
      "y": 304,
      "size": 1,
      "price": "3000000000000000000000",
      "reserved": "0x7a9fe22691c811ea339d9b73150e6911a5343dca",
      "assetIds": []
    },
    {
      "x": 97,
      "y": 303,
      "size": 1,
      "price": "6950000000000000000000",
      "assetIds": [
        "35541503283276933796147438414694400616078274122459190822474961601238453471232",
        "35541503283276933796147438414694400616078274122459190822474961601238453471233",
        "35541503283276933796147438414694400616078274122459190822474961601238453471234",
        "35541503283276933796147438414694400616078274122459190822474961601238453471235"
      ]
    },
    {
      "x": 97,
      "y": 302,
      "size": 1,
      "price": "6950000000000000000000",
      "assetIds": [
        "35541503283276933796147438414694400616078274122459190822474961601238453471232",
        "35541503283276933796147438414694400616078274122459190822474961601238453471233",
        "35541503283276933796147438414694400616078274122459190822474961601238453471234",
        "35541503283276933796147438414694400616078274122459190822474961601238453471238"
      ]
    },
    {
      "x": 97,
      "y": 301,
      "size": 1,
      "price": "6950000000000000000000",
      "assetIds": [
        "35541503283276933796147438414694400616078274122459190822474961601238453471232",
        "35541503283276933796147438414694400616078274122459190822474961601238453471233",
        "35541503283276933796147438414694400616078274122459190822474961601238453471234",
        "35541503283276933796147438414694400616078274122459190822474961601238453471239"
      ]
    },
    {
      "x": 97,
      "y": 300,
      "size": 1,
      "price": "6950000000000000000000",
      "assetIds": [
        "35541503283276933796147438414694400616078274122459190822474961601238453471232",
        "35541503283276933796147438414694400616078274122459190822474961601238453471233",
        "35541503283276933796147438414694400616078274122459190822474961601238453471234",
        "35541503283276933796147438414694400616078274122459190822474961601238453471238"
      ]
    },
    {
      "x": 99,
      "y": 300,
      "size": 1,
      "price": "6950000000000000000000",
      "assetIds": [
        "35541503283276933796147438414694400616078274122459190822474961601238453471232",
        "35541503283276933796147438414694400616078274122459190822474961601238453471233",
        "35541503283276933796147438414694400616078274122459190822474961601238453471234",
        "35541503283276933796147438414694400616078274122459190822474961601238453471237"
      ]
    },
    {
      "x": 99,
      "y": 301,
      "size": 1,
      "price": "6950000000000000000000",
      "assetIds": [
        "35541503283276933796147438414694400616078274122459190822474961601238453471232",
        "35541503283276933796147438414694400616078274122459190822474961601238453471233",
        "35541503283276933796147438414694400616078274122459190822474961601238453471234",
        "35541503283276933796147438414694400616078274122459190822474961601238453471236"
      ]
    },
    {
      "x": 115,
      "y": 321,
      "size": 1,
      "price": "3000000000000000000000",
      "assetIds": []
    },
    {
      "x": 115,
      "y": 322,
      "size": 1,
      "price": "3000000000000000000000",
      "assetIds": []
    },
    {
      "x": 115,
      "y": 323,
      "size": 1,
      "price": "3000000000000000000000",
      "assetIds": []
    },
    {
      "x": 114,
      "y": 323,
      "size": 1,
      "price": "3000000000000000000000",
      "assetIds": []
    },
    {
      "x": 114,
      "y": 322,
      "size": 1,
      "price": "3000000000000000000000",
      "assetIds": []
    },
    {
      "x": 114,
      "y": 321,
      "size": 1,
      "price": "3000000000000000000000",
      "assetIds": []
    },
    {
      "x": 116,
      "y": 321,
      "size": 1,
      "price": "3000000000000000000000",
      "assetIds": []
    },
    {
      "x": 116,
      "y": 322,
      "size": 1,
      "price": "3000000000000000000000",
      "reserved": "0x7a9fe22691c811ea339d9b73150e6911a5343dca",
      "assetIds": []
    },
    {
      "x": 116,
      "y": 323,
      "size": 1,
      "price": "3000000000000000000000",
      "assetIds": []
    },
    {
      "x": 117,
      "y": 320,
      "size": 1,
      "price": "3000000000000000000000",
      "assetIds": []
    },
    {
      "x": 117,
      "y": 319,
      "size": 1,
      "price": "3000000000000000000000",
      "assetIds": []
    },
    {
      "x": 118,
      "y": 319,
      "size": 1,
      "price": "3000000000000000000000",
      "assetIds": []
    },
    {
      "x": 119,
      "y": 319,
      "size": 1,
      "price": "3000000000000000000000",
      "assetIds": []
    },
    {
      "x": 119,
      "y": 320,
      "size": 1,
      "price": "3000000000000000000000",
      "reserved": "0x7a9fe22691c811ea339d9b73150e6911a5343dca",
      "assetIds": []
    },
    {
      "x": 118,
      "y": 320,
      "size": 1,
      "price": "3000000000000000000000",
      "assetIds": []
    },
    {
      "x": 118,
      "y": 318,
      "size": 1,
      "price": "3000000000000000000000",
      "assetIds": []
    },
    {
      "x": 119,
      "y": 318,
      "size": 1,
      "price": "3000000000000000000000",
      "assetIds": []
    },
    {
      "x": 117,
      "y": 318,
      "size": 1,
      "price": "3000000000000000000000",
      "assetIds": []
    },
    {
      "x": 117,
      "y": 317,
      "size": 1,
      "price": "3000000000000000000000",
      "reserved": "0x7a9fe22691c811ea339d9b73150e6911a5343dca",
      "assetIds": []
    },
    {
      "x": 117,
      "y": 316,
      "size": 1,
      "price": "3000000000000000000000",
      "assetIds": []
    },
    {
      "x": 118,
      "y": 315,
      "size": 1,
      "price": "3000000000000000000000",
      "assetIds": []
    },
    {
      "x": 119,
      "y": 316,
      "size": 1,
      "price": "3000000000000000000000",
      "assetIds": []
    },
    {
      "x": 118,
      "y": 317,
      "size": 1,
      "price": "3000000000000000000000",
      "assetIds": []
    },
    {
      "x": 117,
      "y": 315,
      "size": 1,
      "price": "3000000000000000000000",
      "assetIds": []
    },
    {
      "x": 119,
      "y": 315,
      "size": 1,
      "price": "3000000000000000000000",
      "reserved": "0x7a9fe22691c811ea339d9b73150e6911a5343dca",
      "assetIds": []
    },
    {
      "x": 119,
      "y": 317,
      "size": 1,
      "price": "3000000000000000000000",
      "assetIds": []
    },
    {
      "x": 118,
      "y": 316,
      "size": 1,
      "price": "3000000000000000000000",
      "assetIds": []
    },
    {
      "x": 114,
      "y": 313,
      "size": 1,
      "price": "3000000000000000000000",
      "reserved": "0x7a9fe22691c811ea339d9b73150e6911a5343dca",
      "assetIds": []
    },
    {
      "x": 114,
      "y": 312,
      "size": 1,
      "price": "3000000000000000000000",
      "assetIds": []
    },
    {
      "x": 115,
      "y": 312,
      "size": 1,
      "price": "3000000000000000000000",
      "assetIds": []
    },
    {
      "x": 115,
      "y": 313,
      "size": 1,
      "price": "3000000000000000000000",
      "assetIds": []
    },
    {
      "x": 116,
      "y": 313,
      "size": 1,
      "price": "3000000000000000000000",
      "assetIds": []
    },
    {
      "x": 115,
      "y": 314,
      "size": 1,
      "price": "3000000000000000000000",
      "assetIds": []
    },
    {
      "x": 114,
      "y": 314,
      "size": 1,
      "price": "3000000000000000000000",
      "assetIds": []
    },
    {
      "x": 116,
      "y": 312,
      "size": 1,
      "price": "3000000000000000000000",
      "assetIds": []
    },
    {
      "x": 116,
      "y": 314,
      "size": 1,
      "price": "3000000000000000000000",
      "assetIds": []
    },
    {
      "x": 108,
      "y": 292,
      "size": 1,
      "price": "6950000000000000000000",
      "assetIds": [
        "35541503283276933796147438414694400616078274122459190822474961601238453471232",
        "35541503283276933796147438414694400616078274122459190822474961601238453471233",
        "35541503283276933796147438414694400616078274122459190822474961601238453471234",
        "35541503283276933796147438414694400616078274122459190822474961601238453471238"
      ]
    },
    {
      "x": 108,
      "y": 291,
      "size": 1,
      "price": "3000000000000000000000",
      "reserved": "0x7a9fe22691c811ea339d9b73150e6911a5343dca",
      "assetIds": []
    },
    {
      "x": 109,
      "y": 291,
      "size": 1,
      "price": "6950000000000000000000",
      "assetIds": [
        "35541503283276933796147438414694400616078274122459190822474961601238453471232",
        "35541503283276933796147438414694400616078274122459190822474961601238453471233",
        "35541503283276933796147438414694400616078274122459190822474961601238453471234",
        "35541503283276933796147438414694400616078274122459190822474961601238453471239"
      ]
    },
    {
      "x": 109,
      "y": 290,
      "size": 1,
      "price": "6950000000000000000000",
      "assetIds": [
        "35541503283276933796147438414694400616078274122459190822474961601238453471232",
        "35541503283276933796147438414694400616078274122459190822474961601238453471233",
        "35541503283276933796147438414694400616078274122459190822474961601238453471234",
        "35541503283276933796147438414694400616078274122459190822474961601238453471240"
      ]
    },
    {
      "x": 110,
      "y": 289,
      "size": 1,
      "price": "6950000000000000000000",
      "assetIds": [
        "35541503283276933796147438414694400616078274122459190822474961601238453471232",
        "35541503283276933796147438414694400616078274122459190822474961601238453471233",
        "35541503283276933796147438414694400616078274122459190822474961601238453471234",
        "35541503283276933796147438414694400616078274122459190822474961601238453471235"
      ]
    },
    {
      "x": 110,
      "y": 288,
      "size": 1,
      "price": "6950000000000000000000",
      "assetIds": [
        "35541503283276933796147438414694400616078274122459190822474961601238453471232",
        "35541503283276933796147438414694400616078274122459190822474961601238453471233",
        "35541503283276933796147438414694400616078274122459190822474961601238453471234",
        "35541503283276933796147438414694400616078274122459190822474961601238453471237"
      ]
    },
    {
      "x": 109,
      "y": 288,
      "size": 1,
      "price": "6950000000000000000000",
      "assetIds": [
        "35541503283276933796147438414694400616078274122459190822474961601238453471232",
        "35541503283276933796147438414694400616078274122459190822474961601238453471233",
        "35541503283276933796147438414694400616078274122459190822474961601238453471234",
        "35541503283276933796147438414694400616078274122459190822474961601238453471238"
      ]
    },
    {
      "x": 108,
      "y": 288,
      "size": 1,
      "price": "6950000000000000000000",
      "assetIds": [
        "35541503283276933796147438414694400616078274122459190822474961601238453471232",
        "35541503283276933796147438414694400616078274122459190822474961601238453471233",
        "35541503283276933796147438414694400616078274122459190822474961601238453471234",
        "35541503283276933796147438414694400616078274122459190822474961601238453471238"
      ]
    },
    {
      "x": 95,
      "y": 288,
      "size": 1,
      "price": "6950000000000000000000",
      "assetIds": [
        "35541503283276933796147438414694400616078274122459190822474961601238453471232",
        "35541503283276933796147438414694400616078274122459190822474961601238453471233",
        "35541503283276933796147438414694400616078274122459190822474961601238453471234",
        "35541503283276933796147438414694400616078274122459190822474961601238453471237"
      ]
    },
    {
      "x": 94,
      "y": 288,
      "size": 1,
      "price": "6950000000000000000000",
      "assetIds": [
        "35541503283276933796147438414694400616078274122459190822474961601238453471232",
        "35541503283276933796147438414694400616078274122459190822474961601238453471233",
        "35541503283276933796147438414694400616078274122459190822474961601238453471234",
        "35541503283276933796147438414694400616078274122459190822474961601238453471238"
      ]
    },
    {
      "x": 93,
      "y": 288,
      "size": 1,
      "price": "6950000000000000000000",
      "assetIds": [
        "35541503283276933796147438414694400616078274122459190822474961601238453471232",
        "35541503283276933796147438414694400616078274122459190822474961601238453471233",
        "35541503283276933796147438414694400616078274122459190822474961601238453471234",
        "35541503283276933796147438414694400616078274122459190822474961601238453471239"
      ]
    },
    {
      "x": 92,
      "y": 288,
      "size": 1,
      "price": "6950000000000000000000",
      "assetIds": [
        "35541503283276933796147438414694400616078274122459190822474961601238453471232",
        "35541503283276933796147438414694400616078274122459190822474961601238453471233",
        "35541503283276933796147438414694400616078274122459190822474961601238453471234",
        "35541503283276933796147438414694400616078274122459190822474961601238453471237"
      ]
    },
    {
      "x": 91,
      "y": 288,
      "size": 1,
      "price": "6950000000000000000000",
      "assetIds": [
        "35541503283276933796147438414694400616078274122459190822474961601238453471232",
        "35541503283276933796147438414694400616078274122459190822474961601238453471233",
        "35541503283276933796147438414694400616078274122459190822474961601238453471234",
        "35541503283276933796147438414694400616078274122459190822474961601238453471237"
      ]
    },
    {
      "x": 90,
      "y": 288,
      "size": 1,
      "price": "3000000000000000000000",
      "assetIds": []
    },
    {
      "x": 84,
      "y": 287,
      "size": 1,
      "price": "3000000000000000000000",
      "reserved": "0x7a9fe22691c811ea339d9b73150e6911a5343dca",
      "assetIds": []
    },
    {
      "x": 85,
      "y": 287,
      "size": 1,
      "price": "3000000000000000000000",
      "assetIds": []
    },
    {
      "x": 86,
      "y": 287,
      "size": 1,
      "price": "3000000000000000000000",
      "assetIds": []
    },
    {
      "x": 90,
      "y": 287,
      "size": 1,
      "price": "3000000000000000000000",
      "assetIds": []
    },
    {
      "x": 91,
      "y": 287,
      "size": 1,
      "price": "3000000000000000000000",
      "reserved": "0x7a9fe22691c811ea339d9b73150e6911a5343dca",
      "assetIds": []
    },
    {
      "x": 92,
      "y": 287,
      "size": 1,
      "price": "6950000000000000000000",
      "assetIds": [
        "35541503283276933796147438414694400616078274122459190822474961601238453471232",
        "35541503283276933796147438414694400616078274122459190822474961601238453471233",
        "35541503283276933796147438414694400616078274122459190822474961601238453471234",
        "35541503283276933796147438414694400616078274122459190822474961601238453471239"
      ]
    },
    {
      "x": 93,
      "y": 287,
      "size": 1,
      "price": "6950000000000000000000",
      "assetIds": [
        "35541503283276933796147438414694400616078274122459190822474961601238453471232",
        "35541503283276933796147438414694400616078274122459190822474961601238453471233",
        "35541503283276933796147438414694400616078274122459190822474961601238453471234",
        "35541503283276933796147438414694400616078274122459190822474961601238453471238"
      ]
    },
    {
      "x": 94,
      "y": 287,
      "size": 1,
      "price": "6950000000000000000000",
      "assetIds": [
        "35541503283276933796147438414694400616078274122459190822474961601238453471232",
        "35541503283276933796147438414694400616078274122459190822474961601238453471233",
        "35541503283276933796147438414694400616078274122459190822474961601238453471234",
        "35541503283276933796147438414694400616078274122459190822474961601238453471237"
      ]
    },
    {
      "x": 95,
      "y": 287,
      "size": 1,
      "price": "6950000000000000000000",
      "assetIds": [
        "35541503283276933796147438414694400616078274122459190822474961601238453471232",
        "35541503283276933796147438414694400616078274122459190822474961601238453471233",
        "35541503283276933796147438414694400616078274122459190822474961601238453471234",
        "35541503283276933796147438414694400616078274122459190822474961601238453471240"
      ]
    },
    {
      "x": 96,
      "y": 287,
      "size": 1,
      "price": "6950000000000000000000",
      "assetIds": [
        "35541503283276933796147438414694400616078274122459190822474961601238453471232",
        "35541503283276933796147438414694400616078274122459190822474961601238453471233",
        "35541503283276933796147438414694400616078274122459190822474961601238453471234",
        "35541503283276933796147438414694400616078274122459190822474961601238453471239"
      ]
    },
    {
      "x": 97,
      "y": 287,
      "size": 1,
      "price": "6950000000000000000000",
      "assetIds": [
        "35541503283276933796147438414694400616078274122459190822474961601238453471232",
        "35541503283276933796147438414694400616078274122459190822474961601238453471233",
        "35541503283276933796147438414694400616078274122459190822474961601238453471234",
        "35541503283276933796147438414694400616078274122459190822474961601238453471235"
      ]
    },
    {
      "x": 98,
      "y": 287,
      "size": 1,
      "price": "6950000000000000000000",
      "assetIds": [
        "35541503283276933796147438414694400616078274122459190822474961601238453471232",
        "35541503283276933796147438414694400616078274122459190822474961601238453471233",
        "35541503283276933796147438414694400616078274122459190822474961601238453471234",
        "35541503283276933796147438414694400616078274122459190822474961601238453471236"
      ]
    },
    {
      "x": 99,
      "y": 287,
      "size": 1,
      "price": "6950000000000000000000",
      "assetIds": [
        "35541503283276933796147438414694400616078274122459190822474961601238453471232",
        "35541503283276933796147438414694400616078274122459190822474961601238453471233",
        "35541503283276933796147438414694400616078274122459190822474961601238453471234",
        "35541503283276933796147438414694400616078274122459190822474961601238453471240"
      ]
    },
    {
      "x": 100,
      "y": 287,
      "size": 1,
      "price": "6950000000000000000000",
      "assetIds": [
        "35541503283276933796147438414694400616078274122459190822474961601238453471232",
        "35541503283276933796147438414694400616078274122459190822474961601238453471233",
        "35541503283276933796147438414694400616078274122459190822474961601238453471234",
        "35541503283276933796147438414694400616078274122459190822474961601238453471238"
      ]
    },
    {
      "x": 101,
      "y": 287,
      "size": 1,
      "price": "6950000000000000000000",
      "assetIds": [
        "35541503283276933796147438414694400616078274122459190822474961601238453471232",
        "35541503283276933796147438414694400616078274122459190822474961601238453471233",
        "35541503283276933796147438414694400616078274122459190822474961601238453471234",
        "35541503283276933796147438414694400616078274122459190822474961601238453471238"
      ]
    },
    {
      "x": 102,
      "y": 287,
      "size": 1,
      "price": "6950000000000000000000",
      "assetIds": [
        "35541503283276933796147438414694400616078274122459190822474961601238453471232",
        "35541503283276933796147438414694400616078274122459190822474961601238453471233",
        "35541503283276933796147438414694400616078274122459190822474961601238453471234",
        "35541503283276933796147438414694400616078274122459190822474961601238453471236"
      ]
    },
    {
      "x": 103,
      "y": 287,
      "size": 1,
      "price": "6950000000000000000000",
      "assetIds": [
        "35541503283276933796147438414694400616078274122459190822474961601238453471232",
        "35541503283276933796147438414694400616078274122459190822474961601238453471233",
        "35541503283276933796147438414694400616078274122459190822474961601238453471234",
        "35541503283276933796147438414694400616078274122459190822474961601238453471238"
      ]
    },
    {
      "x": 104,
      "y": 287,
      "size": 1,
      "price": "6950000000000000000000",
      "assetIds": [
        "35541503283276933796147438414694400616078274122459190822474961601238453471232",
        "35541503283276933796147438414694400616078274122459190822474961601238453471233",
        "35541503283276933796147438414694400616078274122459190822474961601238453471234",
        "35541503283276933796147438414694400616078274122459190822474961601238453471235"
      ]
    },
    {
      "x": 105,
      "y": 287,
      "size": 1,
      "price": "6950000000000000000000",
      "assetIds": [
        "35541503283276933796147438414694400616078274122459190822474961601238453471232",
        "35541503283276933796147438414694400616078274122459190822474961601238453471233",
        "35541503283276933796147438414694400616078274122459190822474961601238453471234",
        "35541503283276933796147438414694400616078274122459190822474961601238453471238"
      ]
    },
    {
      "x": 106,
      "y": 287,
      "size": 1,
      "price": "6950000000000000000000",
      "assetIds": [
        "35541503283276933796147438414694400616078274122459190822474961601238453471232",
        "35541503283276933796147438414694400616078274122459190822474961601238453471233",
        "35541503283276933796147438414694400616078274122459190822474961601238453471234",
        "35541503283276933796147438414694400616078274122459190822474961601238453471237"
      ]
    },
    {
      "x": 107,
      "y": 287,
      "size": 1,
      "price": "6950000000000000000000",
      "assetIds": [
        "35541503283276933796147438414694400616078274122459190822474961601238453471232",
        "35541503283276933796147438414694400616078274122459190822474961601238453471233",
        "35541503283276933796147438414694400616078274122459190822474961601238453471234",
        "35541503283276933796147438414694400616078274122459190822474961601238453471240"
      ]
    },
    {
      "x": 108,
      "y": 287,
      "size": 1,
      "price": "6950000000000000000000",
      "assetIds": [
        "35541503283276933796147438414694400616078274122459190822474961601238453471232",
        "35541503283276933796147438414694400616078274122459190822474961601238453471233",
        "35541503283276933796147438414694400616078274122459190822474961601238453471234",
        "35541503283276933796147438414694400616078274122459190822474961601238453471235"
      ]
    },
    {
      "x": 109,
      "y": 287,
      "size": 1,
      "price": "6950000000000000000000",
      "assetIds": [
        "35541503283276933796147438414694400616078274122459190822474961601238453471232",
        "35541503283276933796147438414694400616078274122459190822474961601238453471233",
        "35541503283276933796147438414694400616078274122459190822474961601238453471234",
        "35541503283276933796147438414694400616078274122459190822474961601238453471240"
      ]
    },
    {
      "x": 110,
      "y": 287,
      "size": 1,
      "price": "6950000000000000000000",
      "assetIds": [
        "35541503283276933796147438414694400616078274122459190822474961601238453471232",
        "35541503283276933796147438414694400616078274122459190822474961601238453471233",
        "35541503283276933796147438414694400616078274122459190822474961601238453471234",
        "35541503283276933796147438414694400616078274122459190822474961601238453471236"
      ]
    },
    {
      "x": 112,
      "y": 286,
      "size": 1,
      "price": "6950000000000000000000",
      "assetIds": [
        "35541503283276933796147438414694400616078274122459190822474961601238453471232",
        "35541503283276933796147438414694400616078274122459190822474961601238453471233",
        "35541503283276933796147438414694400616078274122459190822474961601238453471234",
        "35541503283276933796147438414694400616078274122459190822474961601238453471240"
      ]
    },
    {
      "x": 111,
      "y": 286,
      "size": 1,
      "price": "6950000000000000000000",
      "assetIds": [
        "35541503283276933796147438414694400616078274122459190822474961601238453471232",
        "35541503283276933796147438414694400616078274122459190822474961601238453471233",
        "35541503283276933796147438414694400616078274122459190822474961601238453471234",
        "35541503283276933796147438414694400616078274122459190822474961601238453471236"
      ]
    },
    {
      "x": 110,
      "y": 286,
      "size": 1,
      "price": "6950000000000000000000",
      "assetIds": [
        "35541503283276933796147438414694400616078274122459190822474961601238453471232",
        "35541503283276933796147438414694400616078274122459190822474961601238453471233",
        "35541503283276933796147438414694400616078274122459190822474961601238453471234",
        "35541503283276933796147438414694400616078274122459190822474961601238453471239"
      ]
    },
    {
      "x": 109,
      "y": 286,
      "size": 1,
      "price": "6950000000000000000000",
      "assetIds": [
        "35541503283276933796147438414694400616078274122459190822474961601238453471232",
        "35541503283276933796147438414694400616078274122459190822474961601238453471233",
        "35541503283276933796147438414694400616078274122459190822474961601238453471234",
        "35541503283276933796147438414694400616078274122459190822474961601238453471238"
      ]
    },
    {
      "x": 108,
      "y": 286,
      "size": 1,
      "price": "6950000000000000000000",
      "assetIds": [
        "35541503283276933796147438414694400616078274122459190822474961601238453471232",
        "35541503283276933796147438414694400616078274122459190822474961601238453471233",
        "35541503283276933796147438414694400616078274122459190822474961601238453471234",
        "35541503283276933796147438414694400616078274122459190822474961601238453471240"
      ]
    },
    {
      "x": 107,
      "y": 286,
      "size": 1,
      "price": "6950000000000000000000",
      "assetIds": [
        "35541503283276933796147438414694400616078274122459190822474961601238453471232",
        "35541503283276933796147438414694400616078274122459190822474961601238453471233",
        "35541503283276933796147438414694400616078274122459190822474961601238453471234",
        "35541503283276933796147438414694400616078274122459190822474961601238453471240"
      ]
    },
    {
      "x": 106,
      "y": 286,
      "size": 1,
      "price": "6950000000000000000000",
      "assetIds": [
        "35541503283276933796147438414694400616078274122459190822474961601238453471232",
        "35541503283276933796147438414694400616078274122459190822474961601238453471233",
        "35541503283276933796147438414694400616078274122459190822474961601238453471234",
        "35541503283276933796147438414694400616078274122459190822474961601238453471240"
      ]
    },
    {
      "x": 105,
      "y": 286,
      "size": 1,
      "price": "6950000000000000000000",
      "assetIds": [
        "35541503283276933796147438414694400616078274122459190822474961601238453471232",
        "35541503283276933796147438414694400616078274122459190822474961601238453471233",
        "35541503283276933796147438414694400616078274122459190822474961601238453471234",
        "35541503283276933796147438414694400616078274122459190822474961601238453471240"
      ]
    },
    {
      "x": 104,
      "y": 286,
      "size": 1,
      "price": "6950000000000000000000",
      "assetIds": [
        "35541503283276933796147438414694400616078274122459190822474961601238453471232",
        "35541503283276933796147438414694400616078274122459190822474961601238453471233",
        "35541503283276933796147438414694400616078274122459190822474961601238453471234",
        "35541503283276933796147438414694400616078274122459190822474961601238453471238"
      ]
    },
    {
      "x": 103,
      "y": 286,
      "size": 1,
      "price": "6950000000000000000000",
      "assetIds": [
        "35541503283276933796147438414694400616078274122459190822474961601238453471232",
        "35541503283276933796147438414694400616078274122459190822474961601238453471233",
        "35541503283276933796147438414694400616078274122459190822474961601238453471234",
        "35541503283276933796147438414694400616078274122459190822474961601238453471236"
      ]
    },
    {
      "x": 102,
      "y": 286,
      "size": 1,
      "price": "6950000000000000000000",
      "assetIds": [
        "35541503283276933796147438414694400616078274122459190822474961601238453471232",
        "35541503283276933796147438414694400616078274122459190822474961601238453471233",
        "35541503283276933796147438414694400616078274122459190822474961601238453471234",
        "35541503283276933796147438414694400616078274122459190822474961601238453471235"
      ]
    },
    {
      "x": 101,
      "y": 286,
      "size": 1,
      "price": "6950000000000000000000",
      "assetIds": [
        "35541503283276933796147438414694400616078274122459190822474961601238453471232",
        "35541503283276933796147438414694400616078274122459190822474961601238453471233",
        "35541503283276933796147438414694400616078274122459190822474961601238453471234",
        "35541503283276933796147438414694400616078274122459190822474961601238453471239"
      ]
    },
    {
      "x": 100,
      "y": 286,
      "size": 1,
      "price": "6950000000000000000000",
      "assetIds": [
        "35541503283276933796147438414694400616078274122459190822474961601238453471232",
        "35541503283276933796147438414694400616078274122459190822474961601238453471233",
        "35541503283276933796147438414694400616078274122459190822474961601238453471234",
        "35541503283276933796147438414694400616078274122459190822474961601238453471237"
      ]
    },
    {
      "x": 99,
      "y": 286,
      "size": 1,
      "price": "6950000000000000000000",
      "assetIds": [
        "35541503283276933796147438414694400616078274122459190822474961601238453471232",
        "35541503283276933796147438414694400616078274122459190822474961601238453471233",
        "35541503283276933796147438414694400616078274122459190822474961601238453471234",
        "35541503283276933796147438414694400616078274122459190822474961601238453471239"
      ]
    },
    {
      "x": 98,
      "y": 286,
      "size": 1,
      "price": "3000000000000000000000",
      "reserved": "0x7a9fe22691c811ea339d9b73150e6911a5343dca",
      "assetIds": []
    },
    {
      "x": 97,
      "y": 286,
      "size": 1,
      "price": "6950000000000000000000",
      "assetIds": [
        "35541503283276933796147438414694400616078274122459190822474961601238453471232",
        "35541503283276933796147438414694400616078274122459190822474961601238453471233",
        "35541503283276933796147438414694400616078274122459190822474961601238453471234",
        "35541503283276933796147438414694400616078274122459190822474961601238453471240"
      ]
    },
    {
      "x": 96,
      "y": 286,
      "size": 1,
      "price": "6950000000000000000000",
      "assetIds": [
        "35541503283276933796147438414694400616078274122459190822474961601238453471232",
        "35541503283276933796147438414694400616078274122459190822474961601238453471233",
        "35541503283276933796147438414694400616078274122459190822474961601238453471234",
        "35541503283276933796147438414694400616078274122459190822474961601238453471239"
      ]
    },
    {
      "x": 95,
      "y": 286,
      "size": 1,
      "price": "6950000000000000000000",
      "assetIds": [
        "35541503283276933796147438414694400616078274122459190822474961601238453471232",
        "35541503283276933796147438414694400616078274122459190822474961601238453471233",
        "35541503283276933796147438414694400616078274122459190822474961601238453471234",
        "35541503283276933796147438414694400616078274122459190822474961601238453471237"
      ]
    },
    {
      "x": 94,
      "y": 286,
      "size": 1,
      "price": "6950000000000000000000",
      "assetIds": [
        "35541503283276933796147438414694400616078274122459190822474961601238453471232",
        "35541503283276933796147438414694400616078274122459190822474961601238453471233",
        "35541503283276933796147438414694400616078274122459190822474961601238453471234",
        "35541503283276933796147438414694400616078274122459190822474961601238453471237"
      ]
    },
    {
      "x": 93,
      "y": 286,
      "size": 1,
      "price": "6950000000000000000000",
      "assetIds": [
        "35541503283276933796147438414694400616078274122459190822474961601238453471232",
        "35541503283276933796147438414694400616078274122459190822474961601238453471233",
        "35541503283276933796147438414694400616078274122459190822474961601238453471234",
        "35541503283276933796147438414694400616078274122459190822474961601238453471236"
      ]
    },
    {
      "x": 92,
      "y": 286,
      "size": 1,
      "price": "6950000000000000000000",
      "assetIds": [
        "35541503283276933796147438414694400616078274122459190822474961601238453471232",
        "35541503283276933796147438414694400616078274122459190822474961601238453471233",
        "35541503283276933796147438414694400616078274122459190822474961601238453471234",
        "35541503283276933796147438414694400616078274122459190822474961601238453471235"
      ]
    },
    {
      "x": 91,
      "y": 286,
      "size": 1,
      "price": "6950000000000000000000",
      "assetIds": [
        "35541503283276933796147438414694400616078274122459190822474961601238453471232",
        "35541503283276933796147438414694400616078274122459190822474961601238453471233",
        "35541503283276933796147438414694400616078274122459190822474961601238453471234",
        "35541503283276933796147438414694400616078274122459190822474961601238453471239"
      ]
    },
    {
      "x": 90,
      "y": 286,
      "size": 1,
      "price": "3000000000000000000000",
      "assetIds": []
    },
    {
      "x": 86,
      "y": 286,
      "size": 1,
      "price": "3000000000000000000000",
      "assetIds": []
    },
    {
      "x": 85,
      "y": 286,
      "size": 1,
      "price": "3000000000000000000000",
      "assetIds": []
    },
    {
      "x": 84,
      "y": 286,
      "size": 1,
      "price": "3000000000000000000000",
      "assetIds": []
    },
    {
      "x": 93,
      "y": 284,
      "size": 1,
      "price": "6950000000000000000000",
      "assetIds": [
        "35541503283276933796147438414694400616078274122459190822474961601238453471232",
        "35541503283276933796147438414694400616078274122459190822474961601238453471233",
        "35541503283276933796147438414694400616078274122459190822474961601238453471234",
        "35541503283276933796147438414694400616078274122459190822474961601238453471238"
      ]
    },
    {
      "x": 95,
      "y": 284,
      "size": 1,
      "price": "6950000000000000000000",
      "assetIds": [
        "35541503283276933796147438414694400616078274122459190822474961601238453471232",
        "35541503283276933796147438414694400616078274122459190822474961601238453471233",
        "35541503283276933796147438414694400616078274122459190822474961601238453471234",
        "35541503283276933796147438414694400616078274122459190822474961601238453471235"
      ]
    },
    {
      "x": 96,
      "y": 284,
      "size": 1,
      "price": "6950000000000000000000",
      "assetIds": [
        "35541503283276933796147438414694400616078274122459190822474961601238453471232",
        "35541503283276933796147438414694400616078274122459190822474961601238453471233",
        "35541503283276933796147438414694400616078274122459190822474961601238453471234",
        "35541503283276933796147438414694400616078274122459190822474961601238453471236"
      ]
    },
    {
      "x": 97,
      "y": 284,
      "size": 1,
      "price": "6950000000000000000000",
      "assetIds": [
        "35541503283276933796147438414694400616078274122459190822474961601238453471232",
        "35541503283276933796147438414694400616078274122459190822474961601238453471233",
        "35541503283276933796147438414694400616078274122459190822474961601238453471234",
        "35541503283276933796147438414694400616078274122459190822474961601238453471238"
      ]
    },
    {
      "x": 98,
      "y": 284,
      "size": 1,
      "price": "6950000000000000000000",
      "assetIds": [
        "35541503283276933796147438414694400616078274122459190822474961601238453471232",
        "35541503283276933796147438414694400616078274122459190822474961601238453471233",
        "35541503283276933796147438414694400616078274122459190822474961601238453471234",
        "35541503283276933796147438414694400616078274122459190822474961601238453471237"
      ]
    },
    {
      "x": 99,
      "y": 284,
      "size": 1,
      "price": "6950000000000000000000",
      "assetIds": [
        "35541503283276933796147438414694400616078274122459190822474961601238453471232",
        "35541503283276933796147438414694400616078274122459190822474961601238453471233",
        "35541503283276933796147438414694400616078274122459190822474961601238453471234",
        "35541503283276933796147438414694400616078274122459190822474961601238453471239"
      ]
    },
    {
      "x": 100,
      "y": 284,
      "size": 1,
      "price": "6950000000000000000000",
      "assetIds": [
        "35541503283276933796147438414694400616078274122459190822474961601238453471232",
        "35541503283276933796147438414694400616078274122459190822474961601238453471233",
        "35541503283276933796147438414694400616078274122459190822474961601238453471234",
        "35541503283276933796147438414694400616078274122459190822474961601238453471236"
      ]
    },
    {
      "x": 101,
      "y": 284,
      "size": 1,
      "price": "6950000000000000000000",
      "assetIds": [
        "35541503283276933796147438414694400616078274122459190822474961601238453471232",
        "35541503283276933796147438414694400616078274122459190822474961601238453471233",
        "35541503283276933796147438414694400616078274122459190822474961601238453471234",
        "35541503283276933796147438414694400616078274122459190822474961601238453471236"
      ]
    },
    {
      "x": 102,
      "y": 284,
      "size": 1,
      "price": "6950000000000000000000",
      "assetIds": [
        "35541503283276933796147438414694400616078274122459190822474961601238453471232",
        "35541503283276933796147438414694400616078274122459190822474961601238453471233",
        "35541503283276933796147438414694400616078274122459190822474961601238453471234",
        "35541503283276933796147438414694400616078274122459190822474961601238453471238"
      ]
    },
    {
      "x": 103,
      "y": 284,
      "size": 1,
      "price": "6950000000000000000000",
      "assetIds": [
        "35541503283276933796147438414694400616078274122459190822474961601238453471232",
        "35541503283276933796147438414694400616078274122459190822474961601238453471233",
        "35541503283276933796147438414694400616078274122459190822474961601238453471234",
        "35541503283276933796147438414694400616078274122459190822474961601238453471240"
      ]
    },
    {
      "x": 104,
      "y": 284,
      "size": 1,
      "price": "6950000000000000000000",
      "assetIds": [
        "35541503283276933796147438414694400616078274122459190822474961601238453471232",
        "35541503283276933796147438414694400616078274122459190822474961601238453471233",
        "35541503283276933796147438414694400616078274122459190822474961601238453471234",
        "35541503283276933796147438414694400616078274122459190822474961601238453471238"
      ]
    },
    {
      "x": 105,
      "y": 284,
      "size": 1,
      "price": "6950000000000000000000",
      "assetIds": [
        "35541503283276933796147438414694400616078274122459190822474961601238453471232",
        "35541503283276933796147438414694400616078274122459190822474961601238453471233",
        "35541503283276933796147438414694400616078274122459190822474961601238453471234",
        "35541503283276933796147438414694400616078274122459190822474961601238453471238"
      ]
    },
    {
      "x": 106,
      "y": 284,
      "size": 1,
      "price": "3000000000000000000000",
      "reserved": "0x7a9fe22691c811ea339d9b73150e6911a5343dca",
      "assetIds": []
    },
    {
      "x": 107,
      "y": 284,
      "size": 1,
      "price": "6950000000000000000000",
      "assetIds": [
        "35541503283276933796147438414694400616078274122459190822474961601238453471232",
        "35541503283276933796147438414694400616078274122459190822474961601238453471233",
        "35541503283276933796147438414694400616078274122459190822474961601238453471234",
        "35541503283276933796147438414694400616078274122459190822474961601238453471240"
      ]
    },
    {
      "x": 108,
      "y": 284,
      "size": 1,
      "price": "6950000000000000000000",
      "assetIds": [
        "35541503283276933796147438414694400616078274122459190822474961601238453471232",
        "35541503283276933796147438414694400616078274122459190822474961601238453471233",
        "35541503283276933796147438414694400616078274122459190822474961601238453471234",
        "35541503283276933796147438414694400616078274122459190822474961601238453471240"
      ]
    },
    {
      "x": 109,
      "y": 284,
      "size": 1,
      "price": "6950000000000000000000",
      "assetIds": [
        "35541503283276933796147438414694400616078274122459190822474961601238453471232",
        "35541503283276933796147438414694400616078274122459190822474961601238453471233",
        "35541503283276933796147438414694400616078274122459190822474961601238453471234",
        "35541503283276933796147438414694400616078274122459190822474961601238453471235"
      ]
    },
    {
      "x": 110,
      "y": 284,
      "size": 1,
      "price": "6950000000000000000000",
      "assetIds": [
        "35541503283276933796147438414694400616078274122459190822474961601238453471232",
        "35541503283276933796147438414694400616078274122459190822474961601238453471233",
        "35541503283276933796147438414694400616078274122459190822474961601238453471234",
        "35541503283276933796147438414694400616078274122459190822474961601238453471238"
      ]
    },
    {
      "x": 112,
      "y": 285,
      "size": 1,
      "price": "6950000000000000000000",
      "assetIds": [
        "35541503283276933796147438414694400616078274122459190822474961601238453471232",
        "35541503283276933796147438414694400616078274122459190822474961601238453471233",
        "35541503283276933796147438414694400616078274122459190822474961601238453471234",
        "35541503283276933796147438414694400616078274122459190822474961601238453471235"
      ]
    },
    {
      "x": 111,
      "y": 285,
      "size": 1,
      "price": "6950000000000000000000",
      "assetIds": [
        "35541503283276933796147438414694400616078274122459190822474961601238453471232",
        "35541503283276933796147438414694400616078274122459190822474961601238453471233",
        "35541503283276933796147438414694400616078274122459190822474961601238453471234",
        "35541503283276933796147438414694400616078274122459190822474961601238453471239"
      ]
    },
    {
      "x": 110,
      "y": 285,
      "size": 1,
      "price": "3000000000000000000000",
      "reserved": "0x7a9fe22691c811ea339d9b73150e6911a5343dca",
      "assetIds": []
    },
    {
      "x": 109,
      "y": 285,
      "size": 1,
      "price": "6950000000000000000000",
      "assetIds": [
        "35541503283276933796147438414694400616078274122459190822474961601238453471232",
        "35541503283276933796147438414694400616078274122459190822474961601238453471233",
        "35541503283276933796147438414694400616078274122459190822474961601238453471234",
        "35541503283276933796147438414694400616078274122459190822474961601238453471235"
      ]
    },
    {
      "x": 108,
      "y": 285,
      "size": 1,
      "price": "6950000000000000000000",
      "assetIds": [
        "35541503283276933796147438414694400616078274122459190822474961601238453471232",
        "35541503283276933796147438414694400616078274122459190822474961601238453471233",
        "35541503283276933796147438414694400616078274122459190822474961601238453471234",
        "35541503283276933796147438414694400616078274122459190822474961601238453471239"
      ]
    },
    {
      "x": 107,
      "y": 285,
      "size": 1,
      "price": "6950000000000000000000",
      "assetIds": [
        "35541503283276933796147438414694400616078274122459190822474961601238453471232",
        "35541503283276933796147438414694400616078274122459190822474961601238453471233",
        "35541503283276933796147438414694400616078274122459190822474961601238453471234",
        "35541503283276933796147438414694400616078274122459190822474961601238453471240"
      ]
    },
    {
      "x": 106,
      "y": 285,
      "size": 1,
      "price": "6950000000000000000000",
      "assetIds": [
        "35541503283276933796147438414694400616078274122459190822474961601238453471232",
        "35541503283276933796147438414694400616078274122459190822474961601238453471233",
        "35541503283276933796147438414694400616078274122459190822474961601238453471234",
        "35541503283276933796147438414694400616078274122459190822474961601238453471238"
      ]
    },
    {
      "x": 105,
      "y": 285,
      "size": 1,
      "price": "6950000000000000000000",
      "assetIds": [
        "35541503283276933796147438414694400616078274122459190822474961601238453471232",
        "35541503283276933796147438414694400616078274122459190822474961601238453471233",
        "35541503283276933796147438414694400616078274122459190822474961601238453471234",
        "35541503283276933796147438414694400616078274122459190822474961601238453471240"
      ]
    },
    {
      "x": 104,
      "y": 285,
      "size": 1,
      "price": "6950000000000000000000",
      "assetIds": [
        "35541503283276933796147438414694400616078274122459190822474961601238453471232",
        "35541503283276933796147438414694400616078274122459190822474961601238453471233",
        "35541503283276933796147438414694400616078274122459190822474961601238453471234",
        "35541503283276933796147438414694400616078274122459190822474961601238453471236"
      ]
    },
    {
      "x": 103,
      "y": 285,
      "size": 1,
      "price": "3000000000000000000000",
      "reserved": "0x7a9fe22691c811ea339d9b73150e6911a5343dca",
      "assetIds": []
    },
    {
      "x": 102,
      "y": 285,
      "size": 1,
      "price": "6950000000000000000000",
      "assetIds": [
        "35541503283276933796147438414694400616078274122459190822474961601238453471232",
        "35541503283276933796147438414694400616078274122459190822474961601238453471233",
        "35541503283276933796147438414694400616078274122459190822474961601238453471234",
        "35541503283276933796147438414694400616078274122459190822474961601238453471238"
      ]
    },
    {
      "x": 101,
      "y": 285,
      "size": 1,
      "price": "6950000000000000000000",
      "assetIds": [
        "35541503283276933796147438414694400616078274122459190822474961601238453471232",
        "35541503283276933796147438414694400616078274122459190822474961601238453471233",
        "35541503283276933796147438414694400616078274122459190822474961601238453471234",
        "35541503283276933796147438414694400616078274122459190822474961601238453471236"
      ]
    },
    {
      "x": 100,
      "y": 285,
      "size": 1,
      "price": "6950000000000000000000",
      "assetIds": [
        "35541503283276933796147438414694400616078274122459190822474961601238453471232",
        "35541503283276933796147438414694400616078274122459190822474961601238453471233",
        "35541503283276933796147438414694400616078274122459190822474961601238453471234",
        "35541503283276933796147438414694400616078274122459190822474961601238453471239"
      ]
    },
    {
      "x": 99,
      "y": 285,
      "size": 1,
      "price": "6950000000000000000000",
      "assetIds": [
        "35541503283276933796147438414694400616078274122459190822474961601238453471232",
        "35541503283276933796147438414694400616078274122459190822474961601238453471233",
        "35541503283276933796147438414694400616078274122459190822474961601238453471234",
        "35541503283276933796147438414694400616078274122459190822474961601238453471236"
      ]
    },
    {
      "x": 98,
      "y": 285,
      "size": 1,
      "price": "6950000000000000000000",
      "assetIds": [
        "35541503283276933796147438414694400616078274122459190822474961601238453471232",
        "35541503283276933796147438414694400616078274122459190822474961601238453471233",
        "35541503283276933796147438414694400616078274122459190822474961601238453471234",
        "35541503283276933796147438414694400616078274122459190822474961601238453471239"
      ]
    },
    {
      "x": 97,
      "y": 285,
      "size": 1,
      "price": "6950000000000000000000",
      "assetIds": [
        "35541503283276933796147438414694400616078274122459190822474961601238453471232",
        "35541503283276933796147438414694400616078274122459190822474961601238453471233",
        "35541503283276933796147438414694400616078274122459190822474961601238453471234",
        "35541503283276933796147438414694400616078274122459190822474961601238453471235"
      ]
    },
    {
      "x": 96,
      "y": 285,
      "size": 1,
      "price": "6950000000000000000000",
      "assetIds": [
        "35541503283276933796147438414694400616078274122459190822474961601238453471232",
        "35541503283276933796147438414694400616078274122459190822474961601238453471233",
        "35541503283276933796147438414694400616078274122459190822474961601238453471234",
        "35541503283276933796147438414694400616078274122459190822474961601238453471235"
      ]
    },
    {
      "x": 95,
      "y": 285,
      "size": 1,
      "price": "6950000000000000000000",
      "assetIds": [
        "35541503283276933796147438414694400616078274122459190822474961601238453471232",
        "35541503283276933796147438414694400616078274122459190822474961601238453471233",
        "35541503283276933796147438414694400616078274122459190822474961601238453471234",
        "35541503283276933796147438414694400616078274122459190822474961601238453471238"
      ]
    },
    {
      "x": 94,
      "y": 285,
      "size": 1,
      "price": "6950000000000000000000",
      "assetIds": [
        "35541503283276933796147438414694400616078274122459190822474961601238453471232",
        "35541503283276933796147438414694400616078274122459190822474961601238453471233",
        "35541503283276933796147438414694400616078274122459190822474961601238453471234",
        "35541503283276933796147438414694400616078274122459190822474961601238453471240"
      ]
    },
    {
      "x": 93,
      "y": 285,
      "size": 1,
      "price": "6950000000000000000000",
      "assetIds": [
        "35541503283276933796147438414694400616078274122459190822474961601238453471232",
        "35541503283276933796147438414694400616078274122459190822474961601238453471233",
        "35541503283276933796147438414694400616078274122459190822474961601238453471234",
        "35541503283276933796147438414694400616078274122459190822474961601238453471235"
      ]
    },
    {
      "x": 92,
      "y": 285,
      "size": 1,
      "price": "6950000000000000000000",
      "assetIds": [
        "35541503283276933796147438414694400616078274122459190822474961601238453471232",
        "35541503283276933796147438414694400616078274122459190822474961601238453471233",
        "35541503283276933796147438414694400616078274122459190822474961601238453471234",
        "35541503283276933796147438414694400616078274122459190822474961601238453471240"
      ]
    },
    {
      "x": 91,
      "y": 285,
      "size": 1,
      "price": "3000000000000000000000",
      "assetIds": []
    },
    {
      "x": 90,
      "y": 285,
      "size": 1,
      "price": "3000000000000000000000",
      "reserved": "0x7a9fe22691c811ea339d9b73150e6911a5343dca",
      "assetIds": []
    },
    {
      "x": 86,
      "y": 285,
      "size": 1,
      "price": "3000000000000000000000",
      "reserved": "0x7a9fe22691c811ea339d9b73150e6911a5343dca",
      "assetIds": []
    },
    {
      "x": 85,
      "y": 285,
      "size": 1,
      "price": "3000000000000000000000",
      "assetIds": []
    },
    {
      "x": 84,
      "y": 285,
      "size": 1,
      "price": "3000000000000000000000",
      "assetIds": []
    },
    {
      "x": 93,
      "y": 282,
      "size": 1,
      "price": "3000000000000000000000",
      "assetIds": []
    },
    {
      "x": 94,
      "y": 282,
      "size": 1,
      "price": "3000000000000000000000",
      "assetIds": []
    },
    {
      "x": 95,
      "y": 282,
      "size": 1,
      "price": "3000000000000000000000",
      "assetIds": []
    },
    {
      "x": 96,
      "y": 282,
      "size": 1,
      "price": "6950000000000000000000",
      "assetIds": [
        "35541503283276933796147438414694400616078274122459190822474961601238453471232",
        "35541503283276933796147438414694400616078274122459190822474961601238453471233",
        "35541503283276933796147438414694400616078274122459190822474961601238453471234",
        "35541503283276933796147438414694400616078274122459190822474961601238453471237"
      ]
    },
    {
      "x": 97,
      "y": 282,
      "size": 1,
      "price": "3000000000000000000000",
      "assetIds": []
    },
    {
      "x": 98,
      "y": 282,
      "size": 1,
      "price": "6950000000000000000000",
      "assetIds": [
        "35541503283276933796147438414694400616078274122459190822474961601238453471232",
        "35541503283276933796147438414694400616078274122459190822474961601238453471233",
        "35541503283276933796147438414694400616078274122459190822474961601238453471234",
        "35541503283276933796147438414694400616078274122459190822474961601238453471238"
      ]
    },
    {
      "x": 99,
      "y": 282,
      "size": 1,
      "price": "3000000000000000000000",
      "assetIds": []
    },
    {
      "x": 100,
      "y": 282,
      "size": 1,
      "price": "3000000000000000000000",
      "assetIds": []
    },
    {
      "x": 101,
      "y": 282,
      "size": 1,
      "price": "6950000000000000000000",
      "assetIds": [
        "35541503283276933796147438414694400616078274122459190822474961601238453471232",
        "35541503283276933796147438414694400616078274122459190822474961601238453471233",
        "35541503283276933796147438414694400616078274122459190822474961601238453471234",
        "35541503283276933796147438414694400616078274122459190822474961601238453471240"
      ]
    },
    {
      "x": 102,
      "y": 282,
      "size": 1,
      "price": "3000000000000000000000",
      "reserved": "0x7a9fe22691c811ea339d9b73150e6911a5343dca",
      "assetIds": []
    },
    {
      "x": 103,
      "y": 282,
      "size": 1,
      "price": "3000000000000000000000",
      "assetIds": []
    },
    {
      "x": 104,
      "y": 282,
      "size": 1,
      "price": "6950000000000000000000",
      "assetIds": [
        "35541503283276933796147438414694400616078274122459190822474961601238453471232",
        "35541503283276933796147438414694400616078274122459190822474961601238453471233",
        "35541503283276933796147438414694400616078274122459190822474961601238453471234",
        "35541503283276933796147438414694400616078274122459190822474961601238453471239"
      ]
    },
    {
      "x": 105,
      "y": 282,
      "size": 1,
      "price": "3000000000000000000000",
      "assetIds": []
    },
    {
      "x": 106,
      "y": 282,
      "size": 1,
      "price": "6950000000000000000000",
      "assetIds": [
        "35541503283276933796147438414694400616078274122459190822474961601238453471232",
        "35541503283276933796147438414694400616078274122459190822474961601238453471233",
        "35541503283276933796147438414694400616078274122459190822474961601238453471234",
        "35541503283276933796147438414694400616078274122459190822474961601238453471235"
      ]
    },
    {
      "x": 107,
      "y": 282,
      "size": 1,
      "price": "3000000000000000000000",
      "assetIds": []
    },
    {
      "x": 108,
      "y": 282,
      "size": 1,
      "price": "3000000000000000000000",
      "assetIds": []
    },
    {
      "x": 109,
      "y": 282,
      "size": 1,
      "price": "6950000000000000000000",
      "assetIds": [
        "35541503283276933796147438414694400616078274122459190822474961601238453471232",
        "35541503283276933796147438414694400616078274122459190822474961601238453471233",
        "35541503283276933796147438414694400616078274122459190822474961601238453471234",
        "35541503283276933796147438414694400616078274122459190822474961601238453471236"
      ]
    },
    {
      "x": 110,
      "y": 282,
      "size": 1,
      "price": "3000000000000000000000",
      "reserved": "0x7a9fe22691c811ea339d9b73150e6911a5343dca",
      "assetIds": []
    },
    {
      "x": 110,
      "y": 283,
      "size": 1,
      "price": "6950000000000000000000",
      "assetIds": [
        "35541503283276933796147438414694400616078274122459190822474961601238453471232",
        "35541503283276933796147438414694400616078274122459190822474961601238453471233",
        "35541503283276933796147438414694400616078274122459190822474961601238453471234",
        "35541503283276933796147438414694400616078274122459190822474961601238453471240"
      ]
    },
    {
      "x": 109,
      "y": 283,
      "size": 1,
      "price": "6950000000000000000000",
      "assetIds": [
        "35541503283276933796147438414694400616078274122459190822474961601238453471232",
        "35541503283276933796147438414694400616078274122459190822474961601238453471233",
        "35541503283276933796147438414694400616078274122459190822474961601238453471234",
        "35541503283276933796147438414694400616078274122459190822474961601238453471235"
      ]
    },
    {
      "x": 108,
      "y": 283,
      "size": 1,
      "price": "6950000000000000000000",
      "assetIds": [
        "35541503283276933796147438414694400616078274122459190822474961601238453471232",
        "35541503283276933796147438414694400616078274122459190822474961601238453471233",
        "35541503283276933796147438414694400616078274122459190822474961601238453471234",
        "35541503283276933796147438414694400616078274122459190822474961601238453471235"
      ]
    },
    {
      "x": 107,
      "y": 283,
      "size": 1,
      "price": "6950000000000000000000",
      "assetIds": [
        "35541503283276933796147438414694400616078274122459190822474961601238453471232",
        "35541503283276933796147438414694400616078274122459190822474961601238453471233",
        "35541503283276933796147438414694400616078274122459190822474961601238453471234",
        "35541503283276933796147438414694400616078274122459190822474961601238453471236"
      ]
    },
    {
      "x": 106,
      "y": 283,
      "size": 1,
      "price": "6950000000000000000000",
      "assetIds": [
        "35541503283276933796147438414694400616078274122459190822474961601238453471232",
        "35541503283276933796147438414694400616078274122459190822474961601238453471233",
        "35541503283276933796147438414694400616078274122459190822474961601238453471234",
        "35541503283276933796147438414694400616078274122459190822474961601238453471240"
      ]
    },
    {
      "x": 105,
      "y": 283,
      "size": 1,
      "price": "6950000000000000000000",
      "assetIds": [
        "35541503283276933796147438414694400616078274122459190822474961601238453471232",
        "35541503283276933796147438414694400616078274122459190822474961601238453471233",
        "35541503283276933796147438414694400616078274122459190822474961601238453471234",
        "35541503283276933796147438414694400616078274122459190822474961601238453471238"
      ]
    },
    {
      "x": 104,
      "y": 283,
      "size": 1,
      "price": "6950000000000000000000",
      "assetIds": [
        "35541503283276933796147438414694400616078274122459190822474961601238453471232",
        "35541503283276933796147438414694400616078274122459190822474961601238453471233",
        "35541503283276933796147438414694400616078274122459190822474961601238453471234",
        "35541503283276933796147438414694400616078274122459190822474961601238453471239"
      ]
    },
    {
      "x": 103,
      "y": 283,
      "size": 1,
      "price": "6950000000000000000000",
      "assetIds": [
        "35541503283276933796147438414694400616078274122459190822474961601238453471232",
        "35541503283276933796147438414694400616078274122459190822474961601238453471233",
        "35541503283276933796147438414694400616078274122459190822474961601238453471234",
        "35541503283276933796147438414694400616078274122459190822474961601238453471238"
      ]
    },
    {
      "x": 102,
      "y": 283,
      "size": 1,
      "price": "6950000000000000000000",
      "assetIds": [
        "35541503283276933796147438414694400616078274122459190822474961601238453471232",
        "35541503283276933796147438414694400616078274122459190822474961601238453471233",
        "35541503283276933796147438414694400616078274122459190822474961601238453471234",
        "35541503283276933796147438414694400616078274122459190822474961601238453471235"
      ]
    },
    {
      "x": 101,
      "y": 283,
      "size": 1,
      "price": "6950000000000000000000",
      "assetIds": [
        "35541503283276933796147438414694400616078274122459190822474961601238453471232",
        "35541503283276933796147438414694400616078274122459190822474961601238453471233",
        "35541503283276933796147438414694400616078274122459190822474961601238453471234",
        "35541503283276933796147438414694400616078274122459190822474961601238453471235"
      ]
    },
    {
      "x": 100,
      "y": 283,
      "size": 1,
      "price": "6950000000000000000000",
      "assetIds": [
        "35541503283276933796147438414694400616078274122459190822474961601238453471232",
        "35541503283276933796147438414694400616078274122459190822474961601238453471233",
        "35541503283276933796147438414694400616078274122459190822474961601238453471234",
        "35541503283276933796147438414694400616078274122459190822474961601238453471235"
      ]
    },
    {
      "x": 99,
      "y": 283,
      "size": 1,
      "price": "3000000000000000000000",
      "reserved": "0x7a9fe22691c811ea339d9b73150e6911a5343dca",
      "assetIds": []
    },
    {
      "x": 98,
      "y": 283,
      "size": 1,
      "price": "6950000000000000000000",
      "assetIds": [
        "35541503283276933796147438414694400616078274122459190822474961601238453471232",
        "35541503283276933796147438414694400616078274122459190822474961601238453471233",
        "35541503283276933796147438414694400616078274122459190822474961601238453471234",
        "35541503283276933796147438414694400616078274122459190822474961601238453471238"
      ]
    },
    {
      "x": 97,
      "y": 283,
      "size": 1,
      "price": "6950000000000000000000",
      "assetIds": [
        "35541503283276933796147438414694400616078274122459190822474961601238453471232",
        "35541503283276933796147438414694400616078274122459190822474961601238453471233",
        "35541503283276933796147438414694400616078274122459190822474961601238453471234",
        "35541503283276933796147438414694400616078274122459190822474961601238453471240"
      ]
    },
    {
      "x": 96,
      "y": 283,
      "size": 1,
      "price": "6950000000000000000000",
      "assetIds": [
        "35541503283276933796147438414694400616078274122459190822474961601238453471232",
        "35541503283276933796147438414694400616078274122459190822474961601238453471233",
        "35541503283276933796147438414694400616078274122459190822474961601238453471234",
        "35541503283276933796147438414694400616078274122459190822474961601238453471240"
      ]
    },
    {
      "x": 95,
      "y": 283,
      "size": 1,
      "price": "6950000000000000000000",
      "assetIds": [
        "35541503283276933796147438414694400616078274122459190822474961601238453471232",
        "35541503283276933796147438414694400616078274122459190822474961601238453471233",
        "35541503283276933796147438414694400616078274122459190822474961601238453471234",
        "35541503283276933796147438414694400616078274122459190822474961601238453471237"
      ]
    },
    {
      "x": 94,
      "y": 283,
      "size": 1,
      "price": "6950000000000000000000",
      "assetIds": [
        "35541503283276933796147438414694400616078274122459190822474961601238453471232",
        "35541503283276933796147438414694400616078274122459190822474961601238453471233",
        "35541503283276933796147438414694400616078274122459190822474961601238453471234",
        "35541503283276933796147438414694400616078274122459190822474961601238453471240"
      ]
    },
    {
      "x": 93,
      "y": 283,
      "size": 1,
      "price": "6950000000000000000000",
      "assetIds": [
        "35541503283276933796147438414694400616078274122459190822474961601238453471232",
        "35541503283276933796147438414694400616078274122459190822474961601238453471233",
        "35541503283276933796147438414694400616078274122459190822474961601238453471234",
        "35541503283276933796147438414694400616078274122459190822474961601238453471240"
      ]
    },
    {
      "x": 82,
      "y": 294,
      "size": 1,
      "price": "3000000000000000000000",
      "assetIds": []
    },
    {
      "x": 82,
      "y": 295,
      "size": 1,
      "price": "3000000000000000000000",
      "assetIds": []
    },
    {
      "x": 82,
      "y": 296,
      "size": 1,
      "price": "3000000000000000000000",
      "assetIds": []
    },
    {
      "x": 84,
      "y": 302,
      "size": 1,
      "price": "3000000000000000000000",
      "assetIds": []
    },
    {
      "x": 84,
      "y": 301,
      "size": 1,
      "price": "3000000000000000000000",
      "assetIds": []
    },
    {
      "x": 84,
      "y": 300,
      "size": 1,
      "price": "3000000000000000000000",
      "assetIds": []
    },
    {
      "x": 84,
      "y": 293,
      "size": 1,
      "price": "3000000000000000000000",
      "reserved": "0x7a9fe22691c811ea339d9b73150e6911a5343dca",
      "assetIds": []
    },
    {
      "x": 84,
      "y": 292,
      "size": 1,
      "price": "3000000000000000000000",
      "assetIds": []
    },
    {
      "x": 84,
      "y": 291,
      "size": 1,
      "price": "3000000000000000000000",
      "assetIds": []
    },
    {
      "x": 85,
      "y": 291,
      "size": 1,
      "price": "3000000000000000000000",
      "assetIds": []
    },
    {
      "x": 85,
      "y": 292,
      "size": 1,
      "price": "3000000000000000000000",
      "assetIds": []
    },
    {
      "x": 85,
      "y": 293,
      "size": 1,
      "price": "3000000000000000000000",
      "assetIds": []
    },
    {
      "x": 85,
      "y": 300,
      "size": 1,
      "price": "3000000000000000000000",
      "assetIds": []
    },
    {
      "x": 85,
      "y": 301,
      "size": 1,
      "price": "3000000000000000000000",
      "assetIds": []
    },
    {
      "x": 85,
      "y": 302,
      "size": 1,
      "price": "3000000000000000000000",
      "assetIds": []
    },
    {
      "x": 86,
      "y": 302,
      "size": 1,
      "price": "3000000000000000000000",
      "assetIds": []
    },
    {
      "x": 86,
      "y": 301,
      "size": 1,
      "price": "3000000000000000000000",
      "assetIds": []
    },
    {
      "x": 86,
      "y": 300,
      "size": 1,
      "price": "3000000000000000000000",
      "reserved": "0x7a9fe22691c811ea339d9b73150e6911a5343dca",
      "assetIds": []
    },
    {
      "x": 86,
      "y": 293,
      "size": 1,
      "price": "3000000000000000000000",
      "assetIds": []
    },
    {
      "x": 86,
      "y": 292,
      "size": 1,
      "price": "3000000000000000000000",
      "assetIds": []
    },
    {
      "x": 86,
      "y": 291,
      "size": 1,
      "price": "3000000000000000000000",
      "assetIds": []
    },
    {
      "x": 87,
      "y": 294,
      "size": 1,
      "price": "3000000000000000000000",
      "assetIds": []
    },
    {
      "x": 87,
      "y": 295,
      "size": 1,
      "price": "3000000000000000000000",
      "assetIds": []
    },
    {
      "x": 87,
      "y": 296,
      "size": 1,
      "price": "3000000000000000000000",
      "assetIds": []
    },
    {
      "x": 87,
      "y": 297,
      "size": 1,
      "price": "3000000000000000000000",
      "assetIds": []
    },
    {
      "x": 87,
      "y": 298,
      "size": 1,
      "price": "3000000000000000000000",
      "assetIds": []
    },
    {
      "x": 87,
      "y": 299,
      "size": 1,
      "price": "3000000000000000000000",
      "assetIds": []
    },
    {
      "x": 87,
      "y": 303,
      "size": 1,
      "price": "3000000000000000000000",
      "assetIds": []
    },
    {
      "x": 87,
      "y": 305,
      "size": 1,
      "price": "3000000000000000000000",
      "assetIds": []
    },
    {
      "x": 87,
      "y": 304,
      "size": 1,
      "price": "3000000000000000000000",
      "assetIds": []
    },
    {
      "x": 88,
      "y": 294,
      "size": 1,
      "price": "3000000000000000000000",
      "assetIds": []
    },
    {
      "x": 88,
      "y": 295,
      "size": 1,
      "price": "3000000000000000000000",
      "assetIds": []
    },
    {
      "x": 88,
      "y": 296,
      "size": 1,
      "price": "3000000000000000000000",
      "assetIds": []
    },
    {
      "x": 88,
      "y": 297,
      "size": 1,
      "price": "3000000000000000000000",
      "assetIds": []
    },
    {
      "x": 88,
      "y": 298,
      "size": 1,
      "price": "3000000000000000000000",
      "assetIds": []
    },
    {
      "x": 88,
      "y": 299,
      "size": 1,
      "price": "3000000000000000000000",
      "assetIds": []
    },
    {
      "x": 88,
      "y": 303,
      "size": 1,
      "price": "3000000000000000000000",
      "reserved": "0x7a9fe22691c811ea339d9b73150e6911a5343dca",
      "assetIds": []
    },
    {
      "x": 88,
      "y": 304,
      "size": 1,
      "price": "3000000000000000000000",
      "assetIds": []
    },
    {
      "x": 88,
      "y": 305,
      "size": 1,
      "price": "3000000000000000000000",
      "assetIds": []
    },
    {
      "x": 89,
      "y": 299,
      "size": 1,
      "price": "3000000000000000000000",
      "assetIds": []
    },
    {
      "x": 89,
      "y": 298,
      "size": 1,
      "price": "3000000000000000000000",
      "assetIds": []
    },
    {
      "x": 89,
      "y": 297,
      "size": 1,
      "price": "3000000000000000000000",
      "assetIds": []
    },
    {
      "x": 89,
      "y": 296,
      "size": 1,
      "price": "3000000000000000000000",
      "assetIds": []
    },
    {
      "x": 89,
      "y": 295,
      "size": 1,
      "price": "3000000000000000000000",
      "assetIds": []
    },
    {
      "x": 89,
      "y": 294,
      "size": 1,
      "price": "3000000000000000000000",
      "assetIds": []
    },
    {
      "x": 89,
      "y": 303,
      "size": 1,
      "price": "3000000000000000000000",
      "assetIds": []
    },
    {
      "x": 89,
      "y": 304,
      "size": 1,
      "price": "3000000000000000000000",
      "assetIds": []
    },
    {
      "x": 89,
      "y": 305,
      "size": 1,
      "price": "3000000000000000000000",
      "assetIds": []
    },
    {
      "x": 90,
      "y": 311,
      "size": 1,
      "price": "3000000000000000000000",
      "assetIds": []
    },
    {
      "x": 90,
      "y": 310,
      "size": 1,
      "price": "3000000000000000000000",
      "assetIds": []
    },
    {
      "x": 90,
      "y": 309,
      "size": 1,
      "price": "3000000000000000000000",
      "assetIds": []
    },
    {
      "x": 90,
      "y": 305,
      "size": 1,
      "price": "3000000000000000000000",
      "assetIds": []
    },
    {
      "x": 90,
      "y": 304,
      "size": 1,
      "price": "3000000000000000000000",
      "assetIds": []
    },
    {
      "x": 90,
      "y": 303,
      "size": 1,
      "price": "3000000000000000000000",
      "assetIds": []
    },
    {
      "x": 90,
      "y": 302,
      "size": 1,
      "price": "3000000000000000000000",
      "assetIds": []
    },
    {
      "x": 90,
      "y": 301,
      "size": 1,
      "price": "6950000000000000000000",
      "assetIds": [
        "35541503283276933796147438414694400616078274122459190822474961601238453471232",
        "35541503283276933796147438414694400616078274122459190822474961601238453471233",
        "35541503283276933796147438414694400616078274122459190822474961601238453471234",
        "35541503283276933796147438414694400616078274122459190822474961601238453471235"
      ]
    },
    {
      "x": 90,
      "y": 300,
      "size": 1,
      "price": "3000000000000000000000",
      "assetIds": []
    },
    {
      "x": 90,
      "y": 299,
      "size": 1,
      "price": "6950000000000000000000",
      "assetIds": [
        "35541503283276933796147438414694400616078274122459190822474961601238453471232",
        "35541503283276933796147438414694400616078274122459190822474961601238453471233",
        "35541503283276933796147438414694400616078274122459190822474961601238453471234",
        "35541503283276933796147438414694400616078274122459190822474961601238453471240"
      ]
    },
    {
      "x": 90,
      "y": 298,
      "size": 1,
      "price": "3000000000000000000000",
      "assetIds": []
    },
    {
      "x": 90,
      "y": 297,
      "size": 1,
      "price": "6950000000000000000000",
      "assetIds": [
        "35541503283276933796147438414694400616078274122459190822474961601238453471232",
        "35541503283276933796147438414694400616078274122459190822474961601238453471233",
        "35541503283276933796147438414694400616078274122459190822474961601238453471234",
        "35541503283276933796147438414694400616078274122459190822474961601238453471237"
      ]
    },
    {
      "x": 90,
      "y": 296,
      "size": 1,
      "price": "3000000000000000000000",
      "assetIds": []
    },
    {
      "x": 90,
      "y": 295,
      "size": 1,
      "price": "6950000000000000000000",
      "assetIds": [
        "35541503283276933796147438414694400616078274122459190822474961601238453471232",
        "35541503283276933796147438414694400616078274122459190822474961601238453471233",
        "35541503283276933796147438414694400616078274122459190822474961601238453471234",
        "35541503283276933796147438414694400616078274122459190822474961601238453471239"
      ]
    },
    {
      "x": 90,
      "y": 294,
      "size": 1,
      "price": "3000000000000000000000",
      "assetIds": []
    },
    {
      "x": 90,
      "y": 293,
      "size": 1,
      "price": "6950000000000000000000",
      "assetIds": [
        "35541503283276933796147438414694400616078274122459190822474961601238453471232",
        "35541503283276933796147438414694400616078274122459190822474961601238453471233",
        "35541503283276933796147438414694400616078274122459190822474961601238453471234",
        "35541503283276933796147438414694400616078274122459190822474961601238453471236"
      ]
    },
    {
      "x": 90,
      "y": 292,
      "size": 1,
      "price": "3000000000000000000000",
      "reserved": "0x7a9fe22691c811ea339d9b73150e6911a5343dca",
      "assetIds": []
    },
    {
      "x": 90,
      "y": 291,
      "size": 1,
      "price": "6950000000000000000000",
      "assetIds": [
        "35541503283276933796147438414694400616078274122459190822474961601238453471232",
        "35541503283276933796147438414694400616078274122459190822474961601238453471233",
        "35541503283276933796147438414694400616078274122459190822474961601238453471234",
        "35541503283276933796147438414694400616078274122459190822474961601238453471240"
      ]
    },
    {
      "x": 90,
      "y": 290,
      "size": 1,
      "price": "3000000000000000000000",
      "assetIds": []
    },
    {
      "x": 90,
      "y": 289,
      "size": 1,
      "price": "6950000000000000000000",
      "assetIds": [
        "35541503283276933796147438414694400616078274122459190822474961601238453471232",
        "35541503283276933796147438414694400616078274122459190822474961601238453471233",
        "35541503283276933796147438414694400616078274122459190822474961601238453471234",
        "35541503283276933796147438414694400616078274122459190822474961601238453471239"
      ]
    },
    {
      "x": 91,
      "y": 289,
      "size": 1,
      "price": "6950000000000000000000",
      "assetIds": [
        "35541503283276933796147438414694400616078274122459190822474961601238453471232",
        "35541503283276933796147438414694400616078274122459190822474961601238453471233",
        "35541503283276933796147438414694400616078274122459190822474961601238453471234",
        "35541503283276933796147438414694400616078274122459190822474961601238453471238"
      ]
    },
    {
      "x": 91,
      "y": 290,
      "size": 1,
      "price": "6950000000000000000000",
      "assetIds": [
        "35541503283276933796147438414694400616078274122459190822474961601238453471232",
        "35541503283276933796147438414694400616078274122459190822474961601238453471233",
        "35541503283276933796147438414694400616078274122459190822474961601238453471234",
        "35541503283276933796147438414694400616078274122459190822474961601238453471236"
      ]
    },
    {
      "x": 91,
      "y": 291,
      "size": 1,
      "price": "6950000000000000000000",
      "assetIds": [
        "35541503283276933796147438414694400616078274122459190822474961601238453471232",
        "35541503283276933796147438414694400616078274122459190822474961601238453471233",
        "35541503283276933796147438414694400616078274122459190822474961601238453471234",
        "35541503283276933796147438414694400616078274122459190822474961601238453471236"
      ]
    },
    {
      "x": 91,
      "y": 292,
      "size": 1,
      "price": "6950000000000000000000",
      "assetIds": [
        "35541503283276933796147438414694400616078274122459190822474961601238453471232",
        "35541503283276933796147438414694400616078274122459190822474961601238453471233",
        "35541503283276933796147438414694400616078274122459190822474961601238453471234",
        "35541503283276933796147438414694400616078274122459190822474961601238453471237"
      ]
    },
    {
      "x": 91,
      "y": 293,
      "size": 1,
      "price": "6950000000000000000000",
      "assetIds": [
        "35541503283276933796147438414694400616078274122459190822474961601238453471232",
        "35541503283276933796147438414694400616078274122459190822474961601238453471233",
        "35541503283276933796147438414694400616078274122459190822474961601238453471234",
        "35541503283276933796147438414694400616078274122459190822474961601238453471235"
      ]
    },
    {
      "x": 91,
      "y": 294,
      "size": 1,
      "price": "6950000000000000000000",
      "assetIds": [
        "35541503283276933796147438414694400616078274122459190822474961601238453471232",
        "35541503283276933796147438414694400616078274122459190822474961601238453471233",
        "35541503283276933796147438414694400616078274122459190822474961601238453471234",
        "35541503283276933796147438414694400616078274122459190822474961601238453471239"
      ]
    },
    {
      "x": 91,
      "y": 295,
      "size": 1,
      "price": "6950000000000000000000",
      "assetIds": [
        "35541503283276933796147438414694400616078274122459190822474961601238453471232",
        "35541503283276933796147438414694400616078274122459190822474961601238453471233",
        "35541503283276933796147438414694400616078274122459190822474961601238453471234",
        "35541503283276933796147438414694400616078274122459190822474961601238453471236"
      ]
    },
    {
      "x": 91,
      "y": 296,
      "size": 1,
      "price": "6950000000000000000000",
      "assetIds": [
        "35541503283276933796147438414694400616078274122459190822474961601238453471232",
        "35541503283276933796147438414694400616078274122459190822474961601238453471233",
        "35541503283276933796147438414694400616078274122459190822474961601238453471234",
        "35541503283276933796147438414694400616078274122459190822474961601238453471237"
      ]
    },
    {
      "x": 91,
      "y": 297,
      "size": 1,
      "price": "6950000000000000000000",
      "assetIds": [
        "35541503283276933796147438414694400616078274122459190822474961601238453471232",
        "35541503283276933796147438414694400616078274122459190822474961601238453471233",
        "35541503283276933796147438414694400616078274122459190822474961601238453471234",
        "35541503283276933796147438414694400616078274122459190822474961601238453471235"
      ]
    },
    {
      "x": 91,
      "y": 298,
      "size": 1,
      "price": "3000000000000000000000",
      "reserved": "0x7a9fe22691c811ea339d9b73150e6911a5343dca",
      "assetIds": []
    },
    {
      "x": 91,
      "y": 299,
      "size": 1,
      "price": "6950000000000000000000",
      "assetIds": [
        "35541503283276933796147438414694400616078274122459190822474961601238453471232",
        "35541503283276933796147438414694400616078274122459190822474961601238453471233",
        "35541503283276933796147438414694400616078274122459190822474961601238453471234",
        "35541503283276933796147438414694400616078274122459190822474961601238453471239"
      ]
    },
    {
      "x": 91,
      "y": 300,
      "size": 1,
      "price": "6950000000000000000000",
      "assetIds": [
        "35541503283276933796147438414694400616078274122459190822474961601238453471232",
        "35541503283276933796147438414694400616078274122459190822474961601238453471233",
        "35541503283276933796147438414694400616078274122459190822474961601238453471234",
        "35541503283276933796147438414694400616078274122459190822474961601238453471239"
      ]
    },
    {
      "x": 91,
      "y": 301,
      "size": 1,
      "price": "6950000000000000000000",
      "assetIds": [
        "35541503283276933796147438414694400616078274122459190822474961601238453471232",
        "35541503283276933796147438414694400616078274122459190822474961601238453471233",
        "35541503283276933796147438414694400616078274122459190822474961601238453471234",
        "35541503283276933796147438414694400616078274122459190822474961601238453471239"
      ]
    },
    {
      "x": 92,
      "y": 302,
      "size": 1,
      "price": "6950000000000000000000",
      "assetIds": [
        "35541503283276933796147438414694400616078274122459190822474961601238453471232",
        "35541503283276933796147438414694400616078274122459190822474961601238453471233",
        "35541503283276933796147438414694400616078274122459190822474961601238453471234",
        "35541503283276933796147438414694400616078274122459190822474961601238453471235"
      ]
    },
    {
      "x": 92,
      "y": 303,
      "size": 1,
      "price": "6950000000000000000000",
      "assetIds": [
        "35541503283276933796147438414694400616078274122459190822474961601238453471232",
        "35541503283276933796147438414694400616078274122459190822474961601238453471233",
        "35541503283276933796147438414694400616078274122459190822474961601238453471234",
        "35541503283276933796147438414694400616078274122459190822474961601238453471239"
      ]
    },
    {
      "x": 92,
      "y": 304,
      "size": 1,
      "price": "3000000000000000000000",
      "assetIds": []
    },
    {
      "x": 92,
      "y": 305,
      "size": 1,
      "price": "3000000000000000000000",
      "assetIds": []
    },
    {
      "x": 92,
      "y": 309,
      "size": 1,
      "price": "3000000000000000000000",
      "assetIds": []
    },
    {
      "x": 92,
      "y": 310,
      "size": 1,
      "price": "3000000000000000000000",
      "reserved": "0x7a9fe22691c811ea339d9b73150e6911a5343dca",
      "assetIds": []
    },
    {
      "x": 92,
      "y": 311,
      "size": 1,
      "price": "3000000000000000000000",
      "assetIds": []
    },
    {
      "x": 92,
      "y": 301,
      "size": 1,
      "price": "6950000000000000000000",
      "assetIds": [
        "35541503283276933796147438414694400616078274122459190822474961601238453471232",
        "35541503283276933796147438414694400616078274122459190822474961601238453471233",
        "35541503283276933796147438414694400616078274122459190822474961601238453471234",
        "35541503283276933796147438414694400616078274122459190822474961601238453471235"
      ]
    },
    {
      "x": 92,
      "y": 300,
      "size": 1,
      "price": "6950000000000000000000",
      "assetIds": [
        "35541503283276933796147438414694400616078274122459190822474961601238453471232",
        "35541503283276933796147438414694400616078274122459190822474961601238453471233",
        "35541503283276933796147438414694400616078274122459190822474961601238453471234",
        "35541503283276933796147438414694400616078274122459190822474961601238453471238"
      ]
    },
    {
      "x": 92,
      "y": 299,
      "size": 1,
      "price": "6950000000000000000000",
      "assetIds": [
        "35541503283276933796147438414694400616078274122459190822474961601238453471232",
        "35541503283276933796147438414694400616078274122459190822474961601238453471233",
        "35541503283276933796147438414694400616078274122459190822474961601238453471234",
        "35541503283276933796147438414694400616078274122459190822474961601238453471236"
      ]
    },
    {
      "x": 92,
      "y": 298,
      "size": 1,
      "price": "6950000000000000000000",
      "assetIds": [
        "35541503283276933796147438414694400616078274122459190822474961601238453471232",
        "35541503283276933796147438414694400616078274122459190822474961601238453471233",
        "35541503283276933796147438414694400616078274122459190822474961601238453471234",
        "35541503283276933796147438414694400616078274122459190822474961601238453471235"
      ]
    },
    {
      "x": 92,
      "y": 297,
      "size": 1,
      "price": "6950000000000000000000",
      "assetIds": [
        "35541503283276933796147438414694400616078274122459190822474961601238453471232",
        "35541503283276933796147438414694400616078274122459190822474961601238453471233",
        "35541503283276933796147438414694400616078274122459190822474961601238453471234",
        "35541503283276933796147438414694400616078274122459190822474961601238453471235"
      ]
    },
    {
      "x": 92,
      "y": 296,
      "size": 1,
      "price": "6950000000000000000000",
      "assetIds": [
        "35541503283276933796147438414694400616078274122459190822474961601238453471232",
        "35541503283276933796147438414694400616078274122459190822474961601238453471233",
        "35541503283276933796147438414694400616078274122459190822474961601238453471234",
        "35541503283276933796147438414694400616078274122459190822474961601238453471236"
      ]
    },
    {
      "x": 92,
      "y": 295,
      "size": 1,
      "price": "6950000000000000000000",
      "assetIds": [
        "35541503283276933796147438414694400616078274122459190822474961601238453471232",
        "35541503283276933796147438414694400616078274122459190822474961601238453471233",
        "35541503283276933796147438414694400616078274122459190822474961601238453471234",
        "35541503283276933796147438414694400616078274122459190822474961601238453471236"
      ]
    },
    {
      "x": 92,
      "y": 294,
      "size": 1,
      "price": "6950000000000000000000",
      "assetIds": [
        "35541503283276933796147438414694400616078274122459190822474961601238453471232",
        "35541503283276933796147438414694400616078274122459190822474961601238453471233",
        "35541503283276933796147438414694400616078274122459190822474961601238453471234",
        "35541503283276933796147438414694400616078274122459190822474961601238453471238"
      ]
    },
    {
      "x": 92,
      "y": 293,
      "size": 1,
      "price": "6950000000000000000000",
      "assetIds": [
        "35541503283276933796147438414694400616078274122459190822474961601238453471232",
        "35541503283276933796147438414694400616078274122459190822474961601238453471233",
        "35541503283276933796147438414694400616078274122459190822474961601238453471234",
        "35541503283276933796147438414694400616078274122459190822474961601238453471237"
      ]
    },
    {
      "x": 92,
      "y": 292,
      "size": 1,
      "price": "6950000000000000000000",
      "assetIds": [
        "35541503283276933796147438414694400616078274122459190822474961601238453471232",
        "35541503283276933796147438414694400616078274122459190822474961601238453471233",
        "35541503283276933796147438414694400616078274122459190822474961601238453471234",
        "35541503283276933796147438414694400616078274122459190822474961601238453471236"
      ]
    },
    {
      "x": 92,
      "y": 291,
      "size": 1,
      "price": "6950000000000000000000",
      "assetIds": [
        "35541503283276933796147438414694400616078274122459190822474961601238453471232",
        "35541503283276933796147438414694400616078274122459190822474961601238453471233",
        "35541503283276933796147438414694400616078274122459190822474961601238453471234",
        "35541503283276933796147438414694400616078274122459190822474961601238453471238"
      ]
    },
    {
      "x": 92,
      "y": 290,
      "size": 1,
      "price": "6950000000000000000000",
      "assetIds": [
        "35541503283276933796147438414694400616078274122459190822474961601238453471232",
        "35541503283276933796147438414694400616078274122459190822474961601238453471233",
        "35541503283276933796147438414694400616078274122459190822474961601238453471234",
        "35541503283276933796147438414694400616078274122459190822474961601238453471238"
      ]
    },
    {
      "x": 92,
      "y": 289,
      "size": 1,
      "price": "6950000000000000000000",
      "assetIds": [
        "35541503283276933796147438414694400616078274122459190822474961601238453471232",
        "35541503283276933796147438414694400616078274122459190822474961601238453471233",
        "35541503283276933796147438414694400616078274122459190822474961601238453471234",
        "35541503283276933796147438414694400616078274122459190822474961601238453471235"
      ]
    },
    {
      "x": 94,
      "y": 289,
      "size": 1,
      "price": "6950000000000000000000",
      "assetIds": [
        "35541503283276933796147438414694400616078274122459190822474961601238453471232",
        "35541503283276933796147438414694400616078274122459190822474961601238453471233",
        "35541503283276933796147438414694400616078274122459190822474961601238453471234",
        "35541503283276933796147438414694400616078274122459190822474961601238453471235"
      ]
    },
    {
      "x": 94,
      "y": 290,
      "size": 1,
      "price": "6950000000000000000000",
      "assetIds": [
        "35541503283276933796147438414694400616078274122459190822474961601238453471232",
        "35541503283276933796147438414694400616078274122459190822474961601238453471233",
        "35541503283276933796147438414694400616078274122459190822474961601238453471234",
        "35541503283276933796147438414694400616078274122459190822474961601238453471240"
      ]
    },
    {
      "x": 94,
      "y": 291,
      "size": 1,
      "price": "6950000000000000000000",
      "assetIds": [
        "35541503283276933796147438414694400616078274122459190822474961601238453471232",
        "35541503283276933796147438414694400616078274122459190822474961601238453471233",
        "35541503283276933796147438414694400616078274122459190822474961601238453471234",
        "35541503283276933796147438414694400616078274122459190822474961601238453471237"
      ]
    },
    {
      "x": 94,
      "y": 292,
      "size": 1,
      "price": "6950000000000000000000",
      "assetIds": [
        "35541503283276933796147438414694400616078274122459190822474961601238453471232",
        "35541503283276933796147438414694400616078274122459190822474961601238453471233",
        "35541503283276933796147438414694400616078274122459190822474961601238453471234",
        "35541503283276933796147438414694400616078274122459190822474961601238453471237"
      ]
    },
    {
      "x": 94,
      "y": 293,
      "size": 1,
      "price": "6950000000000000000000",
      "assetIds": [
        "35541503283276933796147438414694400616078274122459190822474961601238453471232",
        "35541503283276933796147438414694400616078274122459190822474961601238453471233",
        "35541503283276933796147438414694400616078274122459190822474961601238453471234",
        "35541503283276933796147438414694400616078274122459190822474961601238453471240"
      ]
    },
    {
      "x": 94,
      "y": 294,
      "size": 1,
      "price": "6950000000000000000000",
      "assetIds": [
        "35541503283276933796147438414694400616078274122459190822474961601238453471232",
        "35541503283276933796147438414694400616078274122459190822474961601238453471233",
        "35541503283276933796147438414694400616078274122459190822474961601238453471234",
        "35541503283276933796147438414694400616078274122459190822474961601238453471237"
      ]
    },
    {
      "x": 94,
      "y": 295,
      "size": 1,
      "price": "6950000000000000000000",
      "assetIds": [
        "35541503283276933796147438414694400616078274122459190822474961601238453471232",
        "35541503283276933796147438414694400616078274122459190822474961601238453471233",
        "35541503283276933796147438414694400616078274122459190822474961601238453471234",
        "35541503283276933796147438414694400616078274122459190822474961601238453471236"
      ]
    },
    {
      "x": 94,
      "y": 296,
      "size": 1,
      "price": "6950000000000000000000",
      "assetIds": [
        "35541503283276933796147438414694400616078274122459190822474961601238453471232",
        "35541503283276933796147438414694400616078274122459190822474961601238453471233",
        "35541503283276933796147438414694400616078274122459190822474961601238453471234",
        "35541503283276933796147438414694400616078274122459190822474961601238453471238"
      ]
    },
    {
      "x": 94,
      "y": 297,
      "size": 1,
      "price": "6950000000000000000000",
      "assetIds": [
        "35541503283276933796147438414694400616078274122459190822474961601238453471232",
        "35541503283276933796147438414694400616078274122459190822474961601238453471233",
        "35541503283276933796147438414694400616078274122459190822474961601238453471234",
        "35541503283276933796147438414694400616078274122459190822474961601238453471237"
      ]
    },
    {
      "x": 94,
      "y": 298,
      "size": 1,
      "price": "6950000000000000000000",
      "assetIds": [
        "35541503283276933796147438414694400616078274122459190822474961601238453471232",
        "35541503283276933796147438414694400616078274122459190822474961601238453471233",
        "35541503283276933796147438414694400616078274122459190822474961601238453471234",
        "35541503283276933796147438414694400616078274122459190822474961601238453471239"
      ]
    },
    {
      "x": 94,
      "y": 299,
      "size": 1,
      "price": "6950000000000000000000",
      "assetIds": [
        "35541503283276933796147438414694400616078274122459190822474961601238453471232",
        "35541503283276933796147438414694400616078274122459190822474961601238453471233",
        "35541503283276933796147438414694400616078274122459190822474961601238453471234",
        "35541503283276933796147438414694400616078274122459190822474961601238453471235"
      ]
    },
    {
      "x": 94,
      "y": 300,
      "size": 1,
      "price": "6950000000000000000000",
      "assetIds": [
        "35541503283276933796147438414694400616078274122459190822474961601238453471232",
        "35541503283276933796147438414694400616078274122459190822474961601238453471233",
        "35541503283276933796147438414694400616078274122459190822474961601238453471234",
        "35541503283276933796147438414694400616078274122459190822474961601238453471235"
      ]
    },
    {
      "x": 94,
      "y": 301,
      "size": 1,
      "price": "6950000000000000000000",
      "assetIds": [
        "35541503283276933796147438414694400616078274122459190822474961601238453471232",
        "35541503283276933796147438414694400616078274122459190822474961601238453471233",
        "35541503283276933796147438414694400616078274122459190822474961601238453471234",
        "35541503283276933796147438414694400616078274122459190822474961601238453471239"
      ]
    },
    {
      "x": 94,
      "y": 302,
      "size": 1,
      "price": "6950000000000000000000",
      "assetIds": [
        "35541503283276933796147438414694400616078274122459190822474961601238453471232",
        "35541503283276933796147438414694400616078274122459190822474961601238453471233",
        "35541503283276933796147438414694400616078274122459190822474961601238453471234",
        "35541503283276933796147438414694400616078274122459190822474961601238453471235"
      ]
    },
    {
      "x": 93,
      "y": 289,
      "size": 1,
      "price": "6950000000000000000000",
      "assetIds": [
        "35541503283276933796147438414694400616078274122459190822474961601238453471232",
        "35541503283276933796147438414694400616078274122459190822474961601238453471233",
        "35541503283276933796147438414694400616078274122459190822474961601238453471234",
        "35541503283276933796147438414694400616078274122459190822474961601238453471235"
      ]
    },
    {
      "x": 93,
      "y": 290,
      "size": 1,
      "price": "6950000000000000000000",
      "assetIds": [
        "35541503283276933796147438414694400616078274122459190822474961601238453471232",
        "35541503283276933796147438414694400616078274122459190822474961601238453471233",
        "35541503283276933796147438414694400616078274122459190822474961601238453471234",
        "35541503283276933796147438414694400616078274122459190822474961601238453471240"
      ]
    },
    {
      "x": 93,
      "y": 291,
      "size": 1,
      "price": "6950000000000000000000",
      "assetIds": [
        "35541503283276933796147438414694400616078274122459190822474961601238453471232",
        "35541503283276933796147438414694400616078274122459190822474961601238453471233",
        "35541503283276933796147438414694400616078274122459190822474961601238453471234",
        "35541503283276933796147438414694400616078274122459190822474961601238453471237"
      ]
    },
    {
      "x": 93,
      "y": 292,
      "size": 1,
      "price": "6950000000000000000000",
      "assetIds": [
        "35541503283276933796147438414694400616078274122459190822474961601238453471232",
        "35541503283276933796147438414694400616078274122459190822474961601238453471233",
        "35541503283276933796147438414694400616078274122459190822474961601238453471234",
        "35541503283276933796147438414694400616078274122459190822474961601238453471236"
      ]
    },
    {
      "x": 93,
      "y": 293,
      "size": 1,
      "price": "6950000000000000000000",
      "assetIds": [
        "35541503283276933796147438414694400616078274122459190822474961601238453471232",
        "35541503283276933796147438414694400616078274122459190822474961601238453471233",
        "35541503283276933796147438414694400616078274122459190822474961601238453471234",
        "35541503283276933796147438414694400616078274122459190822474961601238453471240"
      ]
    },
    {
      "x": 93,
      "y": 294,
      "size": 1,
      "price": "3000000000000000000000",
      "reserved": "0x7a9fe22691c811ea339d9b73150e6911a5343dca",
      "assetIds": []
    },
    {
      "x": 93,
      "y": 295,
      "size": 1,
      "price": "6950000000000000000000",
      "assetIds": [
        "35541503283276933796147438414694400616078274122459190822474961601238453471232",
        "35541503283276933796147438414694400616078274122459190822474961601238453471233",
        "35541503283276933796147438414694400616078274122459190822474961601238453471234",
        "35541503283276933796147438414694400616078274122459190822474961601238453471239"
      ]
    },
    {
      "x": 93,
      "y": 296,
      "size": 1,
      "price": "6950000000000000000000",
      "assetIds": [
        "35541503283276933796147438414694400616078274122459190822474961601238453471232",
        "35541503283276933796147438414694400616078274122459190822474961601238453471233",
        "35541503283276933796147438414694400616078274122459190822474961601238453471234",
        "35541503283276933796147438414694400616078274122459190822474961601238453471240"
      ]
    },
    {
      "x": 93,
      "y": 297,
      "size": 1,
      "price": "6950000000000000000000",
      "assetIds": [
        "35541503283276933796147438414694400616078274122459190822474961601238453471232",
        "35541503283276933796147438414694400616078274122459190822474961601238453471233",
        "35541503283276933796147438414694400616078274122459190822474961601238453471234",
        "35541503283276933796147438414694400616078274122459190822474961601238453471240"
      ]
    },
    {
      "x": 93,
      "y": 298,
      "size": 1,
      "price": "6950000000000000000000",
      "assetIds": [
        "35541503283276933796147438414694400616078274122459190822474961601238453471232",
        "35541503283276933796147438414694400616078274122459190822474961601238453471233",
        "35541503283276933796147438414694400616078274122459190822474961601238453471234",
        "35541503283276933796147438414694400616078274122459190822474961601238453471236"
      ]
    },
    {
      "x": 93,
      "y": 299,
      "size": 1,
      "price": "6950000000000000000000",
      "assetIds": [
        "35541503283276933796147438414694400616078274122459190822474961601238453471232",
        "35541503283276933796147438414694400616078274122459190822474961601238453471233",
        "35541503283276933796147438414694400616078274122459190822474961601238453471234",
        "35541503283276933796147438414694400616078274122459190822474961601238453471238"
      ]
    },
    {
      "x": 93,
      "y": 300,
      "size": 1,
      "price": "6950000000000000000000",
      "assetIds": [
        "35541503283276933796147438414694400616078274122459190822474961601238453471232",
        "35541503283276933796147438414694400616078274122459190822474961601238453471233",
        "35541503283276933796147438414694400616078274122459190822474961601238453471234",
        "35541503283276933796147438414694400616078274122459190822474961601238453471236"
      ]
    },
    {
      "x": 93,
      "y": 301,
      "size": 1,
      "price": "6950000000000000000000",
      "assetIds": [
        "35541503283276933796147438414694400616078274122459190822474961601238453471232",
        "35541503283276933796147438414694400616078274122459190822474961601238453471233",
        "35541503283276933796147438414694400616078274122459190822474961601238453471234",
        "35541503283276933796147438414694400616078274122459190822474961601238453471236"
      ]
    },
    {
      "x": 93,
      "y": 302,
      "size": 1,
      "price": "6950000000000000000000",
      "assetIds": [
        "35541503283276933796147438414694400616078274122459190822474961601238453471232",
        "35541503283276933796147438414694400616078274122459190822474961601238453471233",
        "35541503283276933796147438414694400616078274122459190822474961601238453471234",
        "35541503283276933796147438414694400616078274122459190822474961601238453471237"
      ]
    },
    {
      "x": 91,
      "y": 311,
      "size": 1,
      "price": "3000000000000000000000",
      "assetIds": []
    },
    {
      "x": 91,
      "y": 309,
      "size": 1,
      "price": "3000000000000000000000",
      "assetIds": []
    },
    {
      "x": 91,
      "y": 305,
      "size": 1,
      "price": "3000000000000000000000",
      "reserved": "0x7a9fe22691c811ea339d9b73150e6911a5343dca",
      "assetIds": []
    },
    {
      "x": 91,
      "y": 304,
      "size": 1,
      "price": "3000000000000000000000",
      "assetIds": []
    },
    {
      "x": 91,
      "y": 303,
      "size": 1,
      "price": "3000000000000000000000",
      "assetIds": []
    },
    {
      "x": 91,
      "y": 302,
      "size": 1,
      "price": "6950000000000000000000",
      "assetIds": [
        "35541503283276933796147438414694400616078274122459190822474961601238453471232",
        "35541503283276933796147438414694400616078274122459190822474961601238453471233",
        "35541503283276933796147438414694400616078274122459190822474961601238453471234",
        "35541503283276933796147438414694400616078274122459190822474961601238453471239"
      ]
    },
    {
      "x": 91,
      "y": 310,
      "size": 1,
      "price": "3000000000000000000000",
      "assetIds": []
    },
    {
      "x": 96,
      "y": 306,
      "size": 1,
      "price": "3000000000000000000000",
      "assetIds": []
    },
    {
      "x": 96,
      "y": 305,
      "size": 1,
      "price": "3000000000000000000000",
      "assetIds": []
    },
    {
      "x": 96,
      "y": 304,
      "size": 1,
      "price": "6950000000000000000000",
      "assetIds": [
        "35541503283276933796147438414694400616078274122459190822474961601238453471232",
        "35541503283276933796147438414694400616078274122459190822474961601238453471233",
        "35541503283276933796147438414694400616078274122459190822474961601238453471234",
        "35541503283276933796147438414694400616078274122459190822474961601238453471237"
      ]
    },
    {
      "x": 96,
      "y": 303,
      "size": 1,
      "price": "6950000000000000000000",
      "assetIds": [
        "35541503283276933796147438414694400616078274122459190822474961601238453471232",
        "35541503283276933796147438414694400616078274122459190822474961601238453471233",
        "35541503283276933796147438414694400616078274122459190822474961601238453471234",
        "35541503283276933796147438414694400616078274122459190822474961601238453471236"
      ]
    },
    {
      "x": 96,
      "y": 302,
      "size": 1,
      "price": "6950000000000000000000",
      "assetIds": [
        "35541503283276933796147438414694400616078274122459190822474961601238453471232",
        "35541503283276933796147438414694400616078274122459190822474961601238453471233",
        "35541503283276933796147438414694400616078274122459190822474961601238453471234",
        "35541503283276933796147438414694400616078274122459190822474961601238453471237"
      ]
    },
    {
      "x": 96,
      "y": 301,
      "size": 1,
      "price": "6950000000000000000000",
      "assetIds": [
        "35541503283276933796147438414694400616078274122459190822474961601238453471232",
        "35541503283276933796147438414694400616078274122459190822474961601238453471233",
        "35541503283276933796147438414694400616078274122459190822474961601238453471234",
        "35541503283276933796147438414694400616078274122459190822474961601238453471238"
      ]
    },
    {
      "x": 96,
      "y": 300,
      "size": 1,
      "price": "6950000000000000000000",
      "assetIds": [
        "35541503283276933796147438414694400616078274122459190822474961601238453471232",
        "35541503283276933796147438414694400616078274122459190822474961601238453471233",
        "35541503283276933796147438414694400616078274122459190822474961601238453471234",
        "35541503283276933796147438414694400616078274122459190822474961601238453471236"
      ]
    },
    {
      "x": 96,
      "y": 281,
      "size": 1,
      "price": "3000000000000000000000",
      "reserved": "0x7a9fe22691c811ea339d9b73150e6911a5343dca",
      "assetIds": []
    },
    {
      "x": 96,
      "y": 280,
      "size": 1,
      "price": "3000000000000000000000",
      "assetIds": []
    },
    {
      "x": 95,
      "y": 289,
      "size": 1,
      "price": "3000000000000000000000",
      "reserved": "0x7a9fe22691c811ea339d9b73150e6911a5343dca",
      "assetIds": []
    },
    {
      "x": 95,
      "y": 290,
      "size": 1,
      "price": "6950000000000000000000",
      "assetIds": [
        "35541503283276933796147438414694400616078274122459190822474961601238453471232",
        "35541503283276933796147438414694400616078274122459190822474961601238453471233",
        "35541503283276933796147438414694400616078274122459190822474961601238453471234",
        "35541503283276933796147438414694400616078274122459190822474961601238453471240"
      ]
    },
    {
      "x": 95,
      "y": 291,
      "size": 1,
      "price": "6950000000000000000000",
      "assetIds": [
        "35541503283276933796147438414694400616078274122459190822474961601238453471232",
        "35541503283276933796147438414694400616078274122459190822474961601238453471233",
        "35541503283276933796147438414694400616078274122459190822474961601238453471234",
        "35541503283276933796147438414694400616078274122459190822474961601238453471239"
      ]
    },
    {
      "x": 95,
      "y": 292,
      "size": 1,
      "price": "6950000000000000000000",
      "assetIds": [
        "35541503283276933796147438414694400616078274122459190822474961601238453471232",
        "35541503283276933796147438414694400616078274122459190822474961601238453471233",
        "35541503283276933796147438414694400616078274122459190822474961601238453471234",
        "35541503283276933796147438414694400616078274122459190822474961601238453471239"
      ]
    },
    {
      "x": 95,
      "y": 293,
      "size": 1,
      "price": "6950000000000000000000",
      "assetIds": [
        "35541503283276933796147438414694400616078274122459190822474961601238453471232",
        "35541503283276933796147438414694400616078274122459190822474961601238453471233",
        "35541503283276933796147438414694400616078274122459190822474961601238453471234",
        "35541503283276933796147438414694400616078274122459190822474961601238453471236"
      ]
    },
    {
      "x": 95,
      "y": 294,
      "size": 1,
      "price": "6950000000000000000000",
      "assetIds": [
        "35541503283276933796147438414694400616078274122459190822474961601238453471232",
        "35541503283276933796147438414694400616078274122459190822474961601238453471233",
        "35541503283276933796147438414694400616078274122459190822474961601238453471234",
        "35541503283276933796147438414694400616078274122459190822474961601238453471235"
      ]
    },
    {
      "x": 95,
      "y": 295,
      "size": 1,
      "price": "6950000000000000000000",
      "assetIds": [
        "35541503283276933796147438414694400616078274122459190822474961601238453471232",
        "35541503283276933796147438414694400616078274122459190822474961601238453471233",
        "35541503283276933796147438414694400616078274122459190822474961601238453471234",
        "35541503283276933796147438414694400616078274122459190822474961601238453471239"
      ]
    },
    {
      "x": 95,
      "y": 296,
      "size": 1,
      "price": "6950000000000000000000",
      "assetIds": [
        "35541503283276933796147438414694400616078274122459190822474961601238453471232",
        "35541503283276933796147438414694400616078274122459190822474961601238453471233",
        "35541503283276933796147438414694400616078274122459190822474961601238453471234",
        "35541503283276933796147438414694400616078274122459190822474961601238453471235"
      ]
    },
    {
      "x": 95,
      "y": 297,
      "size": 1,
      "price": "3000000000000000000000",
      "reserved": "0x7a9fe22691c811ea339d9b73150e6911a5343dca",
      "assetIds": []
    },
    {
      "x": 95,
      "y": 298,
      "size": 1,
      "price": "6950000000000000000000",
      "assetIds": [
        "35541503283276933796147438414694400616078274122459190822474961601238453471232",
        "35541503283276933796147438414694400616078274122459190822474961601238453471233",
        "35541503283276933796147438414694400616078274122459190822474961601238453471234",
        "35541503283276933796147438414694400616078274122459190822474961601238453471237"
      ]
    },
    {
      "x": 95,
      "y": 299,
      "size": 1,
      "price": "6950000000000000000000",
      "assetIds": [
        "35541503283276933796147438414694400616078274122459190822474961601238453471232",
        "35541503283276933796147438414694400616078274122459190822474961601238453471233",
        "35541503283276933796147438414694400616078274122459190822474961601238453471234",
        "35541503283276933796147438414694400616078274122459190822474961601238453471236"
      ]
    },
    {
      "x": 95,
      "y": 300,
      "size": 1,
      "price": "6950000000000000000000",
      "assetIds": [
        "35541503283276933796147438414694400616078274122459190822474961601238453471232",
        "35541503283276933796147438414694400616078274122459190822474961601238453471233",
        "35541503283276933796147438414694400616078274122459190822474961601238453471234",
        "35541503283276933796147438414694400616078274122459190822474961601238453471238"
      ]
    },
    {
      "x": 95,
      "y": 301,
      "size": 1,
      "price": "3000000000000000000000",
      "reserved": "0x7a9fe22691c811ea339d9b73150e6911a5343dca",
      "assetIds": []
    },
    {
      "x": 95,
      "y": 302,
      "size": 1,
      "price": "6950000000000000000000",
      "assetIds": [
        "35541503283276933796147438414694400616078274122459190822474961601238453471232",
        "35541503283276933796147438414694400616078274122459190822474961601238453471233",
        "35541503283276933796147438414694400616078274122459190822474961601238453471234",
        "35541503283276933796147438414694400616078274122459190822474961601238453471240"
      ]
    },
    {
      "x": 104,
      "y": 302,
      "size": 1,
      "price": "6950000000000000000000",
      "assetIds": [
        "35541503283276933796147438414694400616078274122459190822474961601238453471232",
        "35541503283276933796147438414694400616078274122459190822474961601238453471233",
        "35541503283276933796147438414694400616078274122459190822474961601238453471234",
        "35541503283276933796147438414694400616078274122459190822474961601238453471240"
      ]
    },
    {
      "x": 103,
      "y": 302,
      "size": 1,
      "price": "6950000000000000000000",
      "assetIds": [
        "35541503283276933796147438414694400616078274122459190822474961601238453471232",
        "35541503283276933796147438414694400616078274122459190822474961601238453471233",
        "35541503283276933796147438414694400616078274122459190822474961601238453471234",
        "35541503283276933796147438414694400616078274122459190822474961601238453471238"
      ]
    },
    {
      "x": 104,
      "y": 303,
      "size": 1,
      "price": "6950000000000000000000",
      "assetIds": [
        "35541503283276933796147438414694400616078274122459190822474961601238453471232",
        "35541503283276933796147438414694400616078274122459190822474961601238453471233",
        "35541503283276933796147438414694400616078274122459190822474961601238453471234",
        "35541503283276933796147438414694400616078274122459190822474961601238453471237"
      ]
    },
    {
      "x": 103,
      "y": 303,
      "size": 1,
      "price": "6950000000000000000000",
      "assetIds": [
        "35541503283276933796147438414694400616078274122459190822474961601238453471232",
        "35541503283276933796147438414694400616078274122459190822474961601238453471233",
        "35541503283276933796147438414694400616078274122459190822474961601238453471234",
        "35541503283276933796147438414694400616078274122459190822474961601238453471237"
      ]
    },
    {
      "x": 103,
      "y": 301,
      "size": 1,
      "price": "6950000000000000000000",
      "assetIds": [
        "35541503283276933796147438414694400616078274122459190822474961601238453471232",
        "35541503283276933796147438414694400616078274122459190822474961601238453471233",
        "35541503283276933796147438414694400616078274122459190822474961601238453471234",
        "35541503283276933796147438414694400616078274122459190822474961601238453471235"
      ]
    },
    {
      "x": 103,
      "y": 300,
      "size": 1,
      "price": "6950000000000000000000",
      "assetIds": [
        "35541503283276933796147438414694400616078274122459190822474961601238453471232",
        "35541503283276933796147438414694400616078274122459190822474961601238453471233",
        "35541503283276933796147438414694400616078274122459190822474961601238453471234",
        "35541503283276933796147438414694400616078274122459190822474961601238453471239"
      ]
    },
    {
      "x": 104,
      "y": 300,
      "size": 1,
      "price": "6950000000000000000000",
      "assetIds": [
        "35541503283276933796147438414694400616078274122459190822474961601238453471232",
        "35541503283276933796147438414694400616078274122459190822474961601238453471233",
        "35541503283276933796147438414694400616078274122459190822474961601238453471234",
        "35541503283276933796147438414694400616078274122459190822474961601238453471237"
      ]
    },
    {
      "x": 104,
      "y": 301,
      "size": 1,
      "price": "6950000000000000000000",
      "assetIds": [
        "35541503283276933796147438414694400616078274122459190822474961601238453471232",
        "35541503283276933796147438414694400616078274122459190822474961601238453471233",
        "35541503283276933796147438414694400616078274122459190822474961601238453471234",
        "35541503283276933796147438414694400616078274122459190822474961601238453471235"
      ]
    },
    {
      "x": 98,
      "y": 302,
      "size": 1,
      "price": "6950000000000000000000",
      "assetIds": [
        "35541503283276933796147438414694400616078274122459190822474961601238453471232",
        "35541503283276933796147438414694400616078274122459190822474961601238453471233",
        "35541503283276933796147438414694400616078274122459190822474961601238453471234",
        "35541503283276933796147438414694400616078274122459190822474961601238453471240"
      ]
    },
    {
      "x": 98,
      "y": 301,
      "size": 1,
      "price": "6950000000000000000000",
      "assetIds": [
        "35541503283276933796147438414694400616078274122459190822474961601238453471232",
        "35541503283276933796147438414694400616078274122459190822474961601238453471233",
        "35541503283276933796147438414694400616078274122459190822474961601238453471234",
        "35541503283276933796147438414694400616078274122459190822474961601238453471235"
      ]
    },
    {
      "x": 98,
      "y": 300,
      "size": 1,
      "price": "6950000000000000000000",
      "assetIds": [
        "35541503283276933796147438414694400616078274122459190822474961601238453471232",
        "35541503283276933796147438414694400616078274122459190822474961601238453471233",
        "35541503283276933796147438414694400616078274122459190822474961601238453471234",
        "35541503283276933796147438414694400616078274122459190822474961601238453471240"
      ]
    },
    {
      "x": 108,
      "y": 294,
      "size": 1,
      "price": "6950000000000000000000",
      "assetIds": [
        "35541503283276933796147438414694400616078274122459190822474961601238453471232",
        "35541503283276933796147438414694400616078274122459190822474961601238453471233",
        "35541503283276933796147438414694400616078274122459190822474961601238453471234",
        "35541503283276933796147438414694400616078274122459190822474961601238453471235"
      ]
    },
    {
      "x": 109,
      "y": 293,
      "size": 1,
      "price": "6950000000000000000000",
      "assetIds": [
        "35541503283276933796147438414694400616078274122459190822474961601238453471232",
        "35541503283276933796147438414694400616078274122459190822474961601238453471233",
        "35541503283276933796147438414694400616078274122459190822474961601238453471234",
        "35541503283276933796147438414694400616078274122459190822474961601238453471238"
      ]
    },
    {
      "x": 110,
      "y": 293,
      "size": 1,
      "price": "6950000000000000000000",
      "assetIds": [
        "35541503283276933796147438414694400616078274122459190822474961601238453471232",
        "35541503283276933796147438414694400616078274122459190822474961601238453471233",
        "35541503283276933796147438414694400616078274122459190822474961601238453471234",
        "35541503283276933796147438414694400616078274122459190822474961601238453471237"
      ]
    },
    {
      "x": 110,
      "y": 292,
      "size": 1,
      "price": "6950000000000000000000",
      "assetIds": [
        "35541503283276933796147438414694400616078274122459190822474961601238453471232",
        "35541503283276933796147438414694400616078274122459190822474961601238453471233",
        "35541503283276933796147438414694400616078274122459190822474961601238453471234",
        "35541503283276933796147438414694400616078274122459190822474961601238453471237"
      ]
    },
    {
      "x": 108,
      "y": 295,
      "size": 1,
      "price": "6950000000000000000000",
      "assetIds": [
        "35541503283276933796147438414694400616078274122459190822474961601238453471232",
        "35541503283276933796147438414694400616078274122459190822474961601238453471233",
        "35541503283276933796147438414694400616078274122459190822474961601238453471234",
        "35541503283276933796147438414694400616078274122459190822474961601238453471235"
      ]
    },
    {
      "x": 108,
      "y": 293,
      "size": 1,
      "price": "6950000000000000000000",
      "assetIds": [
        "35541503283276933796147438414694400616078274122459190822474961601238453471232",
        "35541503283276933796147438414694400616078274122459190822474961601238453471233",
        "35541503283276933796147438414694400616078274122459190822474961601238453471234",
        "35541503283276933796147438414694400616078274122459190822474961601238453471236"
      ]
    },
    {
      "x": 109,
      "y": 289,
      "size": 1,
      "price": "6950000000000000000000",
      "assetIds": [
        "35541503283276933796147438414694400616078274122459190822474961601238453471232",
        "35541503283276933796147438414694400616078274122459190822474961601238453471233",
        "35541503283276933796147438414694400616078274122459190822474961601238453471234",
        "35541503283276933796147438414694400616078274122459190822474961601238453471237"
      ]
    },
    {
      "x": 108,
      "y": 289,
      "size": 1,
      "price": "6950000000000000000000",
      "assetIds": [
        "35541503283276933796147438414694400616078274122459190822474961601238453471232",
        "35541503283276933796147438414694400616078274122459190822474961601238453471233",
        "35541503283276933796147438414694400616078274122459190822474961601238453471234",
        "35541503283276933796147438414694400616078274122459190822474961601238453471235"
      ]
    },
    {
      "x": 108,
      "y": 290,
      "size": 1,
      "price": "6950000000000000000000",
      "assetIds": [
        "35541503283276933796147438414694400616078274122459190822474961601238453471232",
        "35541503283276933796147438414694400616078274122459190822474961601238453471233",
        "35541503283276933796147438414694400616078274122459190822474961601238453471234",
        "35541503283276933796147438414694400616078274122459190822474961601238453471237"
      ]
    },
    {
      "x": 109,
      "y": 292,
      "size": 1,
      "price": "6950000000000000000000",
      "assetIds": [
        "35541503283276933796147438414694400616078274122459190822474961601238453471232",
        "35541503283276933796147438414694400616078274122459190822474961601238453471233",
        "35541503283276933796147438414694400616078274122459190822474961601238453471234",
        "35541503283276933796147438414694400616078274122459190822474961601238453471237"
      ]
    },
    {
      "x": 110,
      "y": 291,
      "size": 1,
      "price": "6950000000000000000000",
      "assetIds": [
        "35541503283276933796147438414694400616078274122459190822474961601238453471232",
        "35541503283276933796147438414694400616078274122459190822474961601238453471233",
        "35541503283276933796147438414694400616078274122459190822474961601238453471234",
        "35541503283276933796147438414694400616078274122459190822474961601238453471240"
      ]
    },
    {
      "x": 110,
      "y": 290,
      "size": 1,
      "price": "6950000000000000000000",
      "assetIds": [
        "35541503283276933796147438414694400616078274122459190822474961601238453471232",
        "35541503283276933796147438414694400616078274122459190822474961601238453471233",
        "35541503283276933796147438414694400616078274122459190822474961601238453471234",
        "35541503283276933796147438414694400616078274122459190822474961601238453471239"
      ]
    },
    {
      "x": 86,
      "y": 281,
      "size": 1,
      "price": "3000000000000000000000",
      "assetIds": []
    },
    {
      "x": 85,
      "y": 280,
      "size": 1,
      "price": "3000000000000000000000",
      "assetIds": []
    },
    {
      "x": 84,
      "y": 280,
      "size": 1,
      "price": "3000000000000000000000",
      "assetIds": []
    },
    {
      "x": 84,
      "y": 281,
      "size": 1,
      "price": "3000000000000000000000",
      "assetIds": []
    },
    {
      "x": 85,
      "y": 281,
      "size": 1,
      "price": "3000000000000000000000",
      "reserved": "0x7a9fe22691c811ea339d9b73150e6911a5343dca",
      "assetIds": []
    },
    {
      "x": 90,
      "y": 281,
      "size": 1,
      "price": "3000000000000000000000",
      "assetIds": []
    },
    {
      "x": 91,
      "y": 281,
      "size": 1,
      "price": "3000000000000000000000",
      "assetIds": []
    },
    {
      "x": 92,
      "y": 281,
      "size": 1,
      "price": "3000000000000000000000",
      "assetIds": []
    },
    {
      "x": 97,
      "y": 281,
      "size": 1,
      "price": "3000000000000000000000",
      "assetIds": []
    },
    {
      "x": 98,
      "y": 281,
      "size": 1,
      "price": "3000000000000000000000",
      "assetIds": []
    },
    {
      "x": 102,
      "y": 281,
      "size": 1,
      "price": "3000000000000000000000",
      "assetIds": []
    },
    {
      "x": 103,
      "y": 281,
      "size": 1,
      "price": "3000000000000000000000",
      "assetIds": []
    },
    {
      "x": 104,
      "y": 281,
      "size": 1,
      "price": "3000000000000000000000",
      "assetIds": []
    },
    {
      "x": 104,
      "y": 280,
      "size": 1,
      "price": "3000000000000000000000",
      "assetIds": []
    },
    {
      "x": 103,
      "y": 280,
      "size": 1,
      "price": "3000000000000000000000",
      "assetIds": []
    },
    {
      "x": 102,
      "y": 280,
      "size": 1,
      "price": "3000000000000000000000",
      "assetIds": []
    },
    {
      "x": 98,
      "y": 280,
      "size": 1,
      "price": "3000000000000000000000",
      "assetIds": []
    },
    {
      "x": 97,
      "y": 280,
      "size": 1,
      "price": "3000000000000000000000",
      "assetIds": []
    },
    {
      "x": 92,
      "y": 280,
      "size": 1,
      "price": "3000000000000000000000",
      "reserved": "0x7a9fe22691c811ea339d9b73150e6911a5343dca",
      "assetIds": []
    },
    {
      "x": 91,
      "y": 280,
      "size": 1,
      "price": "3000000000000000000000",
      "assetIds": []
    },
    {
      "x": 90,
      "y": 280,
      "size": 1,
      "price": "3000000000000000000000",
      "assetIds": []
    },
    {
      "x": 86,
      "y": 280,
      "size": 1,
      "price": "3000000000000000000000",
      "assetIds": []
    },
    {
      "x": 84,
      "y": 279,
      "size": 1,
      "price": "3000000000000000000000",
      "assetIds": []
    },
    {
      "x": 85,
      "y": 279,
      "size": 1,
      "price": "3000000000000000000000",
      "assetIds": []
    },
    {
      "x": 86,
      "y": 279,
      "size": 1,
      "price": "3000000000000000000000",
      "assetIds": []
    },
    {
      "x": 90,
      "y": 279,
      "size": 1,
      "price": "3000000000000000000000",
      "assetIds": []
    },
    {
      "x": 91,
      "y": 279,
      "size": 1,
      "price": "3000000000000000000000",
      "assetIds": []
    },
    {
      "x": 92,
      "y": 279,
      "size": 1,
      "price": "3000000000000000000000",
      "assetIds": []
    },
    {
      "x": 96,
      "y": 279,
      "size": 1,
      "price": "3000000000000000000000",
      "assetIds": []
    },
    {
      "x": 97,
      "y": 279,
      "size": 1,
      "price": "3000000000000000000000",
      "assetIds": []
    },
    {
      "x": 98,
      "y": 279,
      "size": 1,
      "price": "3000000000000000000000",
      "assetIds": []
    },
    {
      "x": 102,
      "y": 279,
      "size": 1,
      "price": "3000000000000000000000",
      "assetIds": []
    },
    {
      "x": 103,
      "y": 279,
      "size": 1,
      "price": "3000000000000000000000",
      "assetIds": []
    },
    {
      "x": 104,
      "y": 279,
      "size": 1,
      "price": "3000000000000000000000",
      "reserved": "0x7a9fe22691c811ea339d9b73150e6911a5343dca",
      "assetIds": []
    },
    {
      "x": 94,
      "y": 284,
      "size": 1,
      "price": "3000000000000000000000",
      "reserved": "0x7a9fe22691c811ea339d9b73150e6911a5343dca",
      "assetIds": []
    },
    {
      "x": 83,
      "y": 296,
      "size": 1,
      "price": "3000000000000000000000",
      "reserved": "0x7a9fe22691c811ea339d9b73150e6911a5343dca",
      "assetIds": []
    },
    {
      "x": 83,
      "y": 295,
      "size": 1,
      "price": "3000000000000000000000",
      "assetIds": []
    },
    {
      "x": 83,
      "y": 294,
      "size": 1,
      "price": "3000000000000000000000",
      "assetIds": []
    },
    {
      "x": 81,
      "y": 295,
      "size": 1,
      "price": "3000000000000000000000",
      "assetIds": []
    },
    {
      "x": 81,
      "y": 296,
      "size": 1,
      "price": "3000000000000000000000",
      "assetIds": []
    },
    {
      "x": 81,
      "y": 294,
      "size": 1,
      "price": "3000000000000000000000",
      "assetIds": []
    },
    {
      "x": 80,
      "y": 299,
      "size": 1,
      "price": "3000000000000000000000",
      "assetIds": []
    },
    {
      "x": 65,
      "y": 294,
      "size": 1,
      "price": "3000000000000000000000",
      "assetIds": []
    },
    {
      "x": 65,
      "y": 295,
      "size": 1,
      "price": "6950000000000000000000",
      "assetIds": [
        "35541503283276933796147438414694400616078274122459190822474961601238453471232",
        "35541503283276933796147438414694400616078274122459190822474961601238453471233",
        "35541503283276933796147438414694400616078274122459190822474961601238453471234",
        "35541503283276933796147438414694400616078274122459190822474961601238453471238"
      ]
    },
    {
      "x": 65,
      "y": 297,
      "size": 1,
      "price": "6950000000000000000000",
      "assetIds": [
        "35541503283276933796147438414694400616078274122459190822474961601238453471232",
        "35541503283276933796147438414694400616078274122459190822474961601238453471233",
        "35541503283276933796147438414694400616078274122459190822474961601238453471234",
        "35541503283276933796147438414694400616078274122459190822474961601238453471235"
      ]
    },
    {
      "x": 65,
      "y": 298,
      "size": 1,
      "price": "6950000000000000000000",
      "assetIds": [
        "35541503283276933796147438414694400616078274122459190822474961601238453471232",
        "35541503283276933796147438414694400616078274122459190822474961601238453471233",
        "35541503283276933796147438414694400616078274122459190822474961601238453471234",
        "35541503283276933796147438414694400616078274122459190822474961601238453471238"
      ]
    },
    {
      "x": 65,
      "y": 312,
      "size": 1,
      "price": "6950000000000000000000",
      "assetIds": [
        "35541503283276933796147438414694400616078274122459190822474961601238453471232",
        "35541503283276933796147438414694400616078274122459190822474961601238453471233",
        "35541503283276933796147438414694400616078274122459190822474961601238453471234",
        "35541503283276933796147438414694400616078274122459190822474961601238453471240"
      ]
    },
    {
      "x": 65,
      "y": 313,
      "size": 1,
      "price": "6950000000000000000000",
      "assetIds": [
        "35541503283276933796147438414694400616078274122459190822474961601238453471232",
        "35541503283276933796147438414694400616078274122459190822474961601238453471233",
        "35541503283276933796147438414694400616078274122459190822474961601238453471234",
        "35541503283276933796147438414694400616078274122459190822474961601238453471235"
      ]
    },
    {
      "x": 65,
      "y": 314,
      "size": 1,
      "price": "6950000000000000000000",
      "assetIds": [
        "35541503283276933796147438414694400616078274122459190822474961601238453471232",
        "35541503283276933796147438414694400616078274122459190822474961601238453471233",
        "35541503283276933796147438414694400616078274122459190822474961601238453471234",
        "35541503283276933796147438414694400616078274122459190822474961601238453471240"
      ]
    },
    {
      "x": 65,
      "y": 315,
      "size": 1,
      "price": "6950000000000000000000",
      "assetIds": [
        "35541503283276933796147438414694400616078274122459190822474961601238453471232",
        "35541503283276933796147438414694400616078274122459190822474961601238453471233",
        "35541503283276933796147438414694400616078274122459190822474961601238453471234",
        "35541503283276933796147438414694400616078274122459190822474961601238453471240"
      ]
    },
    {
      "x": 65,
      "y": 316,
      "size": 1,
      "price": "3000000000000000000000",
      "reserved": "0x7a9fe22691c811ea339d9b73150e6911a5343dca",
      "assetIds": []
    },
    {
      "x": 65,
      "y": 317,
      "size": 1,
      "price": "3000000000000000000000",
      "assetIds": []
    },
    {
      "x": 65,
      "y": 321,
      "size": 1,
      "price": "3000000000000000000000",
      "assetIds": []
    },
    {
      "x": 65,
      "y": 322,
      "size": 1,
      "price": "3000000000000000000000",
      "assetIds": []
    },
    {
      "x": 65,
      "y": 323,
      "size": 1,
      "price": "3000000000000000000000",
      "reserved": "0x7a9fe22691c811ea339d9b73150e6911a5343dca",
      "assetIds": []
    },
    {
      "x": 65,
      "y": 324,
      "size": 1,
      "price": "3000000000000000000000",
      "assetIds": []
    },
    {
      "x": 65,
      "y": 325,
      "size": 1,
      "price": "6950000000000000000000",
      "assetIds": [
        "35541503283276933796147438414694400616078274122459190822474961601238453471232",
        "35541503283276933796147438414694400616078274122459190822474961601238453471233",
        "35541503283276933796147438414694400616078274122459190822474961601238453471234",
        "35541503283276933796147438414694400616078274122459190822474961601238453471240"
      ]
    },
    {
      "x": 65,
      "y": 326,
      "size": 1,
      "price": "3000000000000000000000",
      "assetIds": []
    },
    {
      "x": 65,
      "y": 327,
      "size": 1,
      "price": "3000000000000000000000",
      "reserved": "0x7a9fe22691c811ea339d9b73150e6911a5343dca",
      "assetIds": []
    },
    {
      "x": 65,
      "y": 328,
      "size": 1,
      "price": "6950000000000000000000",
      "assetIds": [
        "35541503283276933796147438414694400616078274122459190822474961601238453471232",
        "35541503283276933796147438414694400616078274122459190822474961601238453471233",
        "35541503283276933796147438414694400616078274122459190822474961601238453471234",
        "35541503283276933796147438414694400616078274122459190822474961601238453471239"
      ]
    },
    {
      "x": 65,
      "y": 329,
      "size": 1,
      "price": "3000000000000000000000",
      "assetIds": []
    },
    {
      "x": 65,
      "y": 330,
      "size": 1,
      "price": "3000000000000000000000",
      "assetIds": []
    },
    {
      "x": 65,
      "y": 331,
      "size": 1,
      "price": "3000000000000000000000",
      "assetIds": []
    },
    {
      "x": 65,
      "y": 332,
      "size": 1,
      "price": "6950000000000000000000",
      "assetIds": [
        "35541503283276933796147438414694400616078274122459190822474961601238453471232",
        "35541503283276933796147438414694400616078274122459190822474961601238453471233",
        "35541503283276933796147438414694400616078274122459190822474961601238453471234",
        "35541503283276933796147438414694400616078274122459190822474961601238453471238"
      ]
    },
    {
      "x": 65,
      "y": 333,
      "size": 1,
      "price": "3000000000000000000000",
      "assetIds": []
    },
    {
      "x": 65,
      "y": 334,
      "size": 1,
      "price": "6950000000000000000000",
      "assetIds": [
        "35541503283276933796147438414694400616078274122459190822474961601238453471232",
        "35541503283276933796147438414694400616078274122459190822474961601238453471233",
        "35541503283276933796147438414694400616078274122459190822474961601238453471234",
        "35541503283276933796147438414694400616078274122459190822474961601238453471239"
      ]
    },
    {
      "x": 65,
      "y": 335,
      "size": 1,
      "price": "3000000000000000000000",
      "assetIds": []
    },
    {
      "x": 65,
      "y": 336,
      "size": 1,
      "price": "3000000000000000000000",
      "assetIds": []
    },
    {
      "x": 65,
      "y": 337,
      "size": 1,
      "price": "3000000000000000000000",
      "assetIds": []
    },
    {
      "x": 65,
      "y": 338,
      "size": 1,
      "price": "3000000000000000000000",
      "assetIds": []
    },
    {
      "x": 65,
      "y": 342,
      "size": 1,
      "price": "3000000000000000000000",
      "assetIds": []
    },
    {
      "x": 65,
      "y": 343,
      "size": 1,
      "price": "3000000000000000000000",
      "assetIds": []
    },
    {
      "x": 65,
      "y": 344,
      "size": 1,
      "price": "3000000000000000000000",
      "assetIds": []
    },
    {
      "x": 66,
      "y": 341,
      "size": 1,
      "price": "3000000000000000000000",
      "assetIds": []
    },
    {
      "x": 66,
      "y": 340,
      "size": 1,
      "price": "3000000000000000000000",
      "assetIds": []
    },
    {
      "x": 66,
      "y": 339,
      "size": 1,
      "price": "3000000000000000000000",
      "assetIds": []
    },
    {
      "x": 66,
      "y": 332,
      "size": 1,
      "price": "3000000000000000000000",
      "assetIds": []
    },
    {
      "x": 66,
      "y": 331,
      "size": 1,
      "price": "3000000000000000000000",
      "assetIds": []
    },
    {
      "x": 66,
      "y": 330,
      "size": 1,
      "price": "3000000000000000000000",
      "assetIds": []
    },
    {
      "x": 66,
      "y": 317,
      "size": 1,
      "price": "3000000000000000000000",
      "assetIds": []
    },
    {
      "x": 66,
      "y": 316,
      "size": 1,
      "price": "6950000000000000000000",
      "assetIds": [
        "35541503283276933796147438414694400616078274122459190822474961601238453471232",
        "35541503283276933796147438414694400616078274122459190822474961601238453471233",
        "35541503283276933796147438414694400616078274122459190822474961601238453471234",
        "35541503283276933796147438414694400616078274122459190822474961601238453471239"
      ]
    },
    {
      "x": 66,
      "y": 315,
      "size": 1,
      "price": "6950000000000000000000",
      "assetIds": [
        "35541503283276933796147438414694400616078274122459190822474961601238453471232",
        "35541503283276933796147438414694400616078274122459190822474961601238453471233",
        "35541503283276933796147438414694400616078274122459190822474961601238453471234",
        "35541503283276933796147438414694400616078274122459190822474961601238453471235"
      ]
    },
    {
      "x": 66,
      "y": 314,
      "size": 1,
      "price": "6950000000000000000000",
      "assetIds": [
        "35541503283276933796147438414694400616078274122459190822474961601238453471232",
        "35541503283276933796147438414694400616078274122459190822474961601238453471233",
        "35541503283276933796147438414694400616078274122459190822474961601238453471234",
        "35541503283276933796147438414694400616078274122459190822474961601238453471238"
      ]
    },
    {
      "x": 66,
      "y": 313,
      "size": 1,
      "price": "6950000000000000000000",
      "assetIds": [
        "35541503283276933796147438414694400616078274122459190822474961601238453471232",
        "35541503283276933796147438414694400616078274122459190822474961601238453471233",
        "35541503283276933796147438414694400616078274122459190822474961601238453471234",
        "35541503283276933796147438414694400616078274122459190822474961601238453471237"
      ]
    },
    {
      "x": 66,
      "y": 312,
      "size": 1,
      "price": "6950000000000000000000",
      "assetIds": [
        "35541503283276933796147438414694400616078274122459190822474961601238453471232",
        "35541503283276933796147438414694400616078274122459190822474961601238453471233",
        "35541503283276933796147438414694400616078274122459190822474961601238453471234",
        "35541503283276933796147438414694400616078274122459190822474961601238453471240"
      ]
    },
    {
      "x": 66,
      "y": 299,
      "size": 1,
      "price": "6950000000000000000000",
      "assetIds": [
        "35541503283276933796147438414694400616078274122459190822474961601238453471232",
        "35541503283276933796147438414694400616078274122459190822474961601238453471233",
        "35541503283276933796147438414694400616078274122459190822474961601238453471234",
        "35541503283276933796147438414694400616078274122459190822474961601238453471237"
      ]
    },
    {
      "x": 66,
      "y": 298,
      "size": 1,
      "price": "6950000000000000000000",
      "assetIds": [
        "35541503283276933796147438414694400616078274122459190822474961601238453471232",
        "35541503283276933796147438414694400616078274122459190822474961601238453471233",
        "35541503283276933796147438414694400616078274122459190822474961601238453471234",
        "35541503283276933796147438414694400616078274122459190822474961601238453471239"
      ]
    },
    {
      "x": 66,
      "y": 297,
      "size": 1,
      "price": "6950000000000000000000",
      "assetIds": [
        "35541503283276933796147438414694400616078274122459190822474961601238453471232",
        "35541503283276933796147438414694400616078274122459190822474961601238453471233",
        "35541503283276933796147438414694400616078274122459190822474961601238453471234",
        "35541503283276933796147438414694400616078274122459190822474961601238453471240"
      ]
    },
    {
      "x": 66,
      "y": 296,
      "size": 1,
      "price": "6950000000000000000000",
      "assetIds": [
        "35541503283276933796147438414694400616078274122459190822474961601238453471232",
        "35541503283276933796147438414694400616078274122459190822474961601238453471233",
        "35541503283276933796147438414694400616078274122459190822474961601238453471234",
        "35541503283276933796147438414694400616078274122459190822474961601238453471238"
      ]
    },
    {
      "x": 66,
      "y": 295,
      "size": 1,
      "price": "6950000000000000000000",
      "assetIds": [
        "35541503283276933796147438414694400616078274122459190822474961601238453471232",
        "35541503283276933796147438414694400616078274122459190822474961601238453471233",
        "35541503283276933796147438414694400616078274122459190822474961601238453471234",
        "35541503283276933796147438414694400616078274122459190822474961601238453471239"
      ]
    },
    {
      "x": 66,
      "y": 294,
      "size": 1,
      "price": "3000000000000000000000",
      "assetIds": []
    },
    {
      "x": 67,
      "y": 294,
      "size": 1,
      "price": "3000000000000000000000",
      "assetIds": []
    },
    {
      "x": 67,
      "y": 295,
      "size": 1,
      "price": "3000000000000000000000",
      "reserved": "0x7a9fe22691c811ea339d9b73150e6911a5343dca",
      "assetIds": []
    },
    {
      "x": 67,
      "y": 296,
      "size": 1,
      "price": "6950000000000000000000",
      "assetIds": [
        "35541503283276933796147438414694400616078274122459190822474961601238453471232",
        "35541503283276933796147438414694400616078274122459190822474961601238453471233",
        "35541503283276933796147438414694400616078274122459190822474961601238453471234",
        "35541503283276933796147438414694400616078274122459190822474961601238453471239"
      ]
    },
    {
      "x": 67,
      "y": 297,
      "size": 1,
      "price": "6950000000000000000000",
      "assetIds": [
        "35541503283276933796147438414694400616078274122459190822474961601238453471232",
        "35541503283276933796147438414694400616078274122459190822474961601238453471233",
        "35541503283276933796147438414694400616078274122459190822474961601238453471234",
        "35541503283276933796147438414694400616078274122459190822474961601238453471236"
      ]
    },
    {
      "x": 67,
      "y": 298,
      "size": 1,
      "price": "6950000000000000000000",
      "assetIds": [
        "35541503283276933796147438414694400616078274122459190822474961601238453471232",
        "35541503283276933796147438414694400616078274122459190822474961601238453471233",
        "35541503283276933796147438414694400616078274122459190822474961601238453471234",
        "35541503283276933796147438414694400616078274122459190822474961601238453471237"
      ]
    },
    {
      "x": 67,
      "y": 299,
      "size": 1,
      "price": "6950000000000000000000",
      "assetIds": [
        "35541503283276933796147438414694400616078274122459190822474961601238453471232",
        "35541503283276933796147438414694400616078274122459190822474961601238453471233",
        "35541503283276933796147438414694400616078274122459190822474961601238453471234",
        "35541503283276933796147438414694400616078274122459190822474961601238453471236"
      ]
    },
    {
      "x": 67,
      "y": 312,
      "size": 1,
      "price": "6950000000000000000000",
      "assetIds": [
        "35541503283276933796147438414694400616078274122459190822474961601238453471232",
        "35541503283276933796147438414694400616078274122459190822474961601238453471233",
        "35541503283276933796147438414694400616078274122459190822474961601238453471234",
        "35541503283276933796147438414694400616078274122459190822474961601238453471238"
      ]
    },
    {
      "x": 67,
      "y": 313,
      "size": 1,
      "price": "6950000000000000000000",
      "assetIds": [
        "35541503283276933796147438414694400616078274122459190822474961601238453471232",
        "35541503283276933796147438414694400616078274122459190822474961601238453471233",
        "35541503283276933796147438414694400616078274122459190822474961601238453471234",
        "35541503283276933796147438414694400616078274122459190822474961601238453471237"
      ]
    },
    {
      "x": 67,
      "y": 314,
      "size": 1,
      "price": "6950000000000000000000",
      "assetIds": [
        "35541503283276933796147438414694400616078274122459190822474961601238453471232",
        "35541503283276933796147438414694400616078274122459190822474961601238453471233",
        "35541503283276933796147438414694400616078274122459190822474961601238453471234",
        "35541503283276933796147438414694400616078274122459190822474961601238453471235"
      ]
    },
    {
      "x": 67,
      "y": 315,
      "size": 1,
      "price": "6950000000000000000000",
      "assetIds": [
        "35541503283276933796147438414694400616078274122459190822474961601238453471232",
        "35541503283276933796147438414694400616078274122459190822474961601238453471233",
        "35541503283276933796147438414694400616078274122459190822474961601238453471234",
        "35541503283276933796147438414694400616078274122459190822474961601238453471237"
      ]
    },
    {
      "x": 67,
      "y": 316,
      "size": 1,
      "price": "6950000000000000000000",
      "assetIds": [
        "35541503283276933796147438414694400616078274122459190822474961601238453471232",
        "35541503283276933796147438414694400616078274122459190822474961601238453471233",
        "35541503283276933796147438414694400616078274122459190822474961601238453471234",
        "35541503283276933796147438414694400616078274122459190822474961601238453471238"
      ]
    },
    {
      "x": 67,
      "y": 317,
      "size": 1,
      "price": "3000000000000000000000",
      "assetIds": []
    },
    {
      "x": 67,
      "y": 330,
      "size": 1,
      "price": "3000000000000000000000",
      "assetIds": []
    },
    {
      "x": 67,
      "y": 331,
      "size": 1,
      "price": "3000000000000000000000",
      "assetIds": []
    },
    {
      "x": 67,
      "y": 332,
      "size": 1,
      "price": "3000000000000000000000",
      "assetIds": []
    },
    {
      "x": 67,
      "y": 339,
      "size": 1,
      "price": "3000000000000000000000",
      "assetIds": []
    },
    {
      "x": 67,
      "y": 340,
      "size": 1,
      "price": "3000000000000000000000",
      "assetIds": []
    },
    {
      "x": 67,
      "y": 341,
      "size": 1,
      "price": "3000000000000000000000",
      "assetIds": []
    },
    {
      "x": 68,
      "y": 341,
      "size": 1,
      "price": "3000000000000000000000",
      "assetIds": []
    },
    {
      "x": 68,
      "y": 340,
      "size": 1,
      "price": "3000000000000000000000",
      "reserved": "0x7a9fe22691c811ea339d9b73150e6911a5343dca",
      "assetIds": []
    },
    {
      "x": 68,
      "y": 339,
      "size": 1,
      "price": "3000000000000000000000",
      "assetIds": []
    },
    {
      "x": 68,
      "y": 332,
      "size": 1,
      "price": "3000000000000000000000",
      "assetIds": []
    },
    {
      "x": 68,
      "y": 331,
      "size": 1,
      "price": "3000000000000000000000",
      "assetIds": []
    },
    {
      "x": 68,
      "y": 330,
      "size": 1,
      "price": "3000000000000000000000",
      "reserved": "0x7a9fe22691c811ea339d9b73150e6911a5343dca",
      "assetIds": []
    },
    {
      "x": 68,
      "y": 317,
      "size": 1,
      "price": "6950000000000000000000",
      "assetIds": [
        "35541503283276933796147438414694400616078274122459190822474961601238453471232",
        "35541503283276933796147438414694400616078274122459190822474961601238453471233",
        "35541503283276933796147438414694400616078274122459190822474961601238453471234",
        "35541503283276933796147438414694400616078274122459190822474961601238453471236"
      ]
    },
    {
      "x": 68,
      "y": 316,
      "size": 1,
      "price": "3000000000000000000000",
      "reserved": "0x7a9fe22691c811ea339d9b73150e6911a5343dca",
      "assetIds": []
    },
    {
      "x": 68,
      "y": 315,
      "size": 1,
      "price": "6950000000000000000000",
      "assetIds": [
        "35541503283276933796147438414694400616078274122459190822474961601238453471232",
        "35541503283276933796147438414694400616078274122459190822474961601238453471233",
        "35541503283276933796147438414694400616078274122459190822474961601238453471234",
        "35541503283276933796147438414694400616078274122459190822474961601238453471235"
      ]
    },
    {
      "x": 68,
      "y": 314,
      "size": 1,
      "price": "6950000000000000000000",
      "assetIds": [
        "35541503283276933796147438414694400616078274122459190822474961601238453471232",
        "35541503283276933796147438414694400616078274122459190822474961601238453471233",
        "35541503283276933796147438414694400616078274122459190822474961601238453471234",
        "35541503283276933796147438414694400616078274122459190822474961601238453471235"
      ]
    },
    {
      "x": 68,
      "y": 313,
      "size": 1,
      "price": "6950000000000000000000",
      "assetIds": [
        "35541503283276933796147438414694400616078274122459190822474961601238453471232",
        "35541503283276933796147438414694400616078274122459190822474961601238453471233",
        "35541503283276933796147438414694400616078274122459190822474961601238453471234",
        "35541503283276933796147438414694400616078274122459190822474961601238453471238"
      ]
    },
    {
      "x": 68,
      "y": 312,
      "size": 1,
      "price": "6950000000000000000000",
      "assetIds": [
        "35541503283276933796147438414694400616078274122459190822474961601238453471232",
        "35541503283276933796147438414694400616078274122459190822474961601238453471233",
        "35541503283276933796147438414694400616078274122459190822474961601238453471234",
        "35541503283276933796147438414694400616078274122459190822474961601238453471240"
      ]
    },
    {
      "x": 68,
      "y": 299,
      "size": 1,
      "price": "6950000000000000000000",
      "assetIds": [
        "35541503283276933796147438414694400616078274122459190822474961601238453471232",
        "35541503283276933796147438414694400616078274122459190822474961601238453471233",
        "35541503283276933796147438414694400616078274122459190822474961601238453471234",
        "35541503283276933796147438414694400616078274122459190822474961601238453471237"
      ]
    },
    {
      "x": 68,
      "y": 298,
      "size": 1,
      "price": "6950000000000000000000",
      "assetIds": [
        "35541503283276933796147438414694400616078274122459190822474961601238453471232",
        "35541503283276933796147438414694400616078274122459190822474961601238453471233",
        "35541503283276933796147438414694400616078274122459190822474961601238453471234",
        "35541503283276933796147438414694400616078274122459190822474961601238453471240"
      ]
    },
    {
      "x": 68,
      "y": 297,
      "size": 1,
      "price": "6950000000000000000000",
      "assetIds": [
        "35541503283276933796147438414694400616078274122459190822474961601238453471232",
        "35541503283276933796147438414694400616078274122459190822474961601238453471233",
        "35541503283276933796147438414694400616078274122459190822474961601238453471234",
        "35541503283276933796147438414694400616078274122459190822474961601238453471238"
      ]
    },
    {
      "x": 68,
      "y": 296,
      "size": 1,
      "price": "6950000000000000000000",
      "assetIds": [
        "35541503283276933796147438414694400616078274122459190822474961601238453471232",
        "35541503283276933796147438414694400616078274122459190822474961601238453471233",
        "35541503283276933796147438414694400616078274122459190822474961601238453471234",
        "35541503283276933796147438414694400616078274122459190822474961601238453471238"
      ]
    },
    {
      "x": 68,
      "y": 295,
      "size": 1,
      "price": "6950000000000000000000",
      "assetIds": [
        "35541503283276933796147438414694400616078274122459190822474961601238453471232",
        "35541503283276933796147438414694400616078274122459190822474961601238453471233",
        "35541503283276933796147438414694400616078274122459190822474961601238453471234",
        "35541503283276933796147438414694400616078274122459190822474961601238453471236"
      ]
    },
    {
      "x": 68,
      "y": 294,
      "size": 1,
      "price": "6950000000000000000000",
      "assetIds": [
        "35541503283276933796147438414694400616078274122459190822474961601238453471232",
        "35541503283276933796147438414694400616078274122459190822474961601238453471233",
        "35541503283276933796147438414694400616078274122459190822474961601238453471234",
        "35541503283276933796147438414694400616078274122459190822474961601238453471238"
      ]
    },
    {
      "x": 69,
      "y": 291,
      "size": 1,
      "price": "3000000000000000000000",
      "assetIds": []
    },
    {
      "x": 69,
      "y": 292,
      "size": 1,
      "price": "3000000000000000000000",
      "assetIds": []
    },
    {
      "x": 69,
      "y": 293,
      "size": 1,
      "price": "3000000000000000000000",
      "assetIds": []
    },
    {
      "x": 69,
      "y": 294,
      "size": 1,
      "price": "3000000000000000000000",
      "assetIds": []
    },
    {
      "x": 69,
      "y": 295,
      "size": 1,
      "price": "6950000000000000000000",
      "assetIds": [
        "35541503283276933796147438414694400616078274122459190822474961601238453471232",
        "35541503283276933796147438414694400616078274122459190822474961601238453471233",
        "35541503283276933796147438414694400616078274122459190822474961601238453471234",
        "35541503283276933796147438414694400616078274122459190822474961601238453471236"
      ]
    },
    {
      "x": 69,
      "y": 296,
      "size": 1,
      "price": "6950000000000000000000",
      "assetIds": [
        "35541503283276933796147438414694400616078274122459190822474961601238453471232",
        "35541503283276933796147438414694400616078274122459190822474961601238453471233",
        "35541503283276933796147438414694400616078274122459190822474961601238453471234",
        "35541503283276933796147438414694400616078274122459190822474961601238453471240"
      ]
    },
    {
      "x": 69,
      "y": 297,
      "size": 1,
      "price": "6950000000000000000000",
      "assetIds": [
        "35541503283276933796147438414694400616078274122459190822474961601238453471232",
        "35541503283276933796147438414694400616078274122459190822474961601238453471233",
        "35541503283276933796147438414694400616078274122459190822474961601238453471234",
        "35541503283276933796147438414694400616078274122459190822474961601238453471240"
      ]
    },
    {
      "x": 69,
      "y": 298,
      "size": 1,
      "price": "3000000000000000000000",
      "reserved": "0x7a9fe22691c811ea339d9b73150e6911a5343dca",
      "assetIds": []
    },
    {
      "x": 69,
      "y": 299,
      "size": 1,
      "price": "6950000000000000000000",
      "assetIds": [
        "35541503283276933796147438414694400616078274122459190822474961601238453471232",
        "35541503283276933796147438414694400616078274122459190822474961601238453471233",
        "35541503283276933796147438414694400616078274122459190822474961601238453471234",
        "35541503283276933796147438414694400616078274122459190822474961601238453471239"
      ]
    },
    {
      "x": 69,
      "y": 312,
      "size": 1,
      "price": "6950000000000000000000",
      "assetIds": [
        "35541503283276933796147438414694400616078274122459190822474961601238453471232",
        "35541503283276933796147438414694400616078274122459190822474961601238453471233",
        "35541503283276933796147438414694400616078274122459190822474961601238453471234",
        "35541503283276933796147438414694400616078274122459190822474961601238453471239"
      ]
    },
    {
      "x": 69,
      "y": 313,
      "size": 1,
      "price": "3000000000000000000000",
      "reserved": "0x7a9fe22691c811ea339d9b73150e6911a5343dca",
      "assetIds": []
    },
    {
      "x": 69,
      "y": 314,
      "size": 1,
      "price": "6950000000000000000000",
      "assetIds": [
        "35541503283276933796147438414694400616078274122459190822474961601238453471232",
        "35541503283276933796147438414694400616078274122459190822474961601238453471233",
        "35541503283276933796147438414694400616078274122459190822474961601238453471234",
        "35541503283276933796147438414694400616078274122459190822474961601238453471240"
      ]
    },
    {
      "x": 69,
      "y": 315,
      "size": 1,
      "price": "6950000000000000000000",
      "assetIds": [
        "35541503283276933796147438414694400616078274122459190822474961601238453471232",
        "35541503283276933796147438414694400616078274122459190822474961601238453471233",
        "35541503283276933796147438414694400616078274122459190822474961601238453471234",
        "35541503283276933796147438414694400616078274122459190822474961601238453471235"
      ]
    },
    {
      "x": 69,
      "y": 316,
      "size": 1,
      "price": "6950000000000000000000",
      "assetIds": [
        "35541503283276933796147438414694400616078274122459190822474961601238453471232",
        "35541503283276933796147438414694400616078274122459190822474961601238453471233",
        "35541503283276933796147438414694400616078274122459190822474961601238453471234",
        "35541503283276933796147438414694400616078274122459190822474961601238453471236"
      ]
    },
    {
      "x": 69,
      "y": 317,
      "size": 1,
      "price": "3000000000000000000000",
      "assetIds": []
    },
    {
      "x": 69,
      "y": 336,
      "size": 1,
      "price": "3000000000000000000000",
      "reserved": "0x7a9fe22691c811ea339d9b73150e6911a5343dca",
      "assetIds": []
    },
    {
      "x": 69,
      "y": 337,
      "size": 1,
      "price": "3000000000000000000000",
      "assetIds": []
    },
    {
      "x": 69,
      "y": 338,
      "size": 1,
      "price": "3000000000000000000000",
      "assetIds": []
    },
    {
      "x": 69,
      "y": 339,
      "size": 1,
      "price": "3000000000000000000000",
      "assetIds": []
    },
    {
      "x": 69,
      "y": 340,
      "size": 1,
      "price": "3000000000000000000000",
      "assetIds": []
    },
    {
      "x": 69,
      "y": 341,
      "size": 1,
      "price": "3000000000000000000000",
      "assetIds": []
    },
    {
      "x": 70,
      "y": 341,
      "size": 1,
      "price": "3000000000000000000000",
      "assetIds": []
    },
    {
      "x": 70,
      "y": 340,
      "size": 1,
      "price": "3000000000000000000000",
      "assetIds": []
    },
    {
      "x": 70,
      "y": 339,
      "size": 1,
      "price": "3000000000000000000000",
      "assetIds": []
    },
    {
      "x": 70,
      "y": 338,
      "size": 1,
      "price": "3000000000000000000000",
      "assetIds": []
    },
    {
      "x": 70,
      "y": 337,
      "size": 1,
      "price": "3000000000000000000000",
      "assetIds": []
    },
    {
      "x": 70,
      "y": 336,
      "size": 1,
      "price": "3000000000000000000000",
      "assetIds": []
    },
    {
      "x": 70,
      "y": 317,
      "size": 1,
      "price": "3000000000000000000000",
      "assetIds": []
    },
    {
      "x": 70,
      "y": 316,
      "size": 1,
      "price": "6950000000000000000000",
      "assetIds": [
        "35541503283276933796147438414694400616078274122459190822474961601238453471232",
        "35541503283276933796147438414694400616078274122459190822474961601238453471233",
        "35541503283276933796147438414694400616078274122459190822474961601238453471234",
        "35541503283276933796147438414694400616078274122459190822474961601238453471236"
      ]
    },
    {
      "x": 70,
      "y": 315,
      "size": 1,
      "price": "6950000000000000000000",
      "assetIds": [
        "35541503283276933796147438414694400616078274122459190822474961601238453471232",
        "35541503283276933796147438414694400616078274122459190822474961601238453471233",
        "35541503283276933796147438414694400616078274122459190822474961601238453471234",
        "35541503283276933796147438414694400616078274122459190822474961601238453471236"
      ]
    },
    {
      "x": 70,
      "y": 314,
      "size": 1,
      "price": "6950000000000000000000",
      "assetIds": [
        "35541503283276933796147438414694400616078274122459190822474961601238453471232",
        "35541503283276933796147438414694400616078274122459190822474961601238453471233",
        "35541503283276933796147438414694400616078274122459190822474961601238453471234",
        "35541503283276933796147438414694400616078274122459190822474961601238453471237"
      ]
    },
    {
      "x": 70,
      "y": 313,
      "size": 1,
      "price": "6950000000000000000000",
      "assetIds": [
        "35541503283276933796147438414694400616078274122459190822474961601238453471232",
        "35541503283276933796147438414694400616078274122459190822474961601238453471233",
        "35541503283276933796147438414694400616078274122459190822474961601238453471234",
        "35541503283276933796147438414694400616078274122459190822474961601238453471239"
      ]
    },
    {
      "x": 70,
      "y": 312,
      "size": 1,
      "price": "6950000000000000000000",
      "assetIds": [
        "35541503283276933796147438414694400616078274122459190822474961601238453471232",
        "35541503283276933796147438414694400616078274122459190822474961601238453471233",
        "35541503283276933796147438414694400616078274122459190822474961601238453471234",
        "35541503283276933796147438414694400616078274122459190822474961601238453471239"
      ]
    },
    {
      "x": 70,
      "y": 299,
      "size": 1,
      "price": "6950000000000000000000",
      "assetIds": [
        "35541503283276933796147438414694400616078274122459190822474961601238453471232",
        "35541503283276933796147438414694400616078274122459190822474961601238453471233",
        "35541503283276933796147438414694400616078274122459190822474961601238453471234",
        "35541503283276933796147438414694400616078274122459190822474961601238453471236"
      ]
    },
    {
      "x": 70,
      "y": 298,
      "size": 1,
      "price": "6950000000000000000000",
      "assetIds": [
        "35541503283276933796147438414694400616078274122459190822474961601238453471232",
        "35541503283276933796147438414694400616078274122459190822474961601238453471233",
        "35541503283276933796147438414694400616078274122459190822474961601238453471234",
        "35541503283276933796147438414694400616078274122459190822474961601238453471238"
      ]
    },
    {
      "x": 70,
      "y": 297,
      "size": 1,
      "price": "6950000000000000000000",
      "assetIds": [
        "35541503283276933796147438414694400616078274122459190822474961601238453471232",
        "35541503283276933796147438414694400616078274122459190822474961601238453471233",
        "35541503283276933796147438414694400616078274122459190822474961601238453471234",
        "35541503283276933796147438414694400616078274122459190822474961601238453471235"
      ]
    },
    {
      "x": 70,
      "y": 296,
      "size": 1,
      "price": "6950000000000000000000",
      "assetIds": [
        "35541503283276933796147438414694400616078274122459190822474961601238453471232",
        "35541503283276933796147438414694400616078274122459190822474961601238453471233",
        "35541503283276933796147438414694400616078274122459190822474961601238453471234",
        "35541503283276933796147438414694400616078274122459190822474961601238453471237"
      ]
    },
    {
      "x": 70,
      "y": 295,
      "size": 1,
      "price": "3000000000000000000000",
      "reserved": "0x7a9fe22691c811ea339d9b73150e6911a5343dca",
      "assetIds": []
    },
    {
      "x": 70,
      "y": 294,
      "size": 1,
      "price": "3000000000000000000000",
      "assetIds": []
    },
    {
      "x": 70,
      "y": 293,
      "size": 1,
      "price": "3000000000000000000000",
      "assetIds": []
    },
    {
      "x": 70,
      "y": 292,
      "size": 1,
      "price": "3000000000000000000000",
      "assetIds": []
    },
    {
      "x": 70,
      "y": 291,
      "size": 1,
      "price": "3000000000000000000000",
      "reserved": "0x7a9fe22691c811ea339d9b73150e6911a5343dca",
      "assetIds": []
    },
    {
      "x": 71,
      "y": 291,
      "size": 1,
      "price": "3000000000000000000000",
      "assetIds": []
    },
    {
      "x": 71,
      "y": 292,
      "size": 1,
      "price": "3000000000000000000000",
      "assetIds": []
    },
    {
      "x": 71,
      "y": 293,
      "size": 1,
      "price": "3000000000000000000000",
      "assetIds": []
    },
    {
      "x": 71,
      "y": 294,
      "size": 1,
      "price": "6950000000000000000000",
      "assetIds": [
        "35541503283276933796147438414694400616078274122459190822474961601238453471232",
        "35541503283276933796147438414694400616078274122459190822474961601238453471233",
        "35541503283276933796147438414694400616078274122459190822474961601238453471234",
        "35541503283276933796147438414694400616078274122459190822474961601238453471235"
      ]
    },
    {
      "x": 71,
      "y": 295,
      "size": 1,
      "price": "6950000000000000000000",
      "assetIds": [
        "35541503283276933796147438414694400616078274122459190822474961601238453471232",
        "35541503283276933796147438414694400616078274122459190822474961601238453471233",
        "35541503283276933796147438414694400616078274122459190822474961601238453471234",
        "35541503283276933796147438414694400616078274122459190822474961601238453471239"
      ]
    },
    {
      "x": 71,
      "y": 296,
      "size": 1,
      "price": "6950000000000000000000",
      "assetIds": [
        "35541503283276933796147438414694400616078274122459190822474961601238453471232",
        "35541503283276933796147438414694400616078274122459190822474961601238453471233",
        "35541503283276933796147438414694400616078274122459190822474961601238453471234",
        "35541503283276933796147438414694400616078274122459190822474961601238453471240"
      ]
    },
    {
      "x": 71,
      "y": 297,
      "size": 1,
      "price": "6950000000000000000000",
      "assetIds": [
        "35541503283276933796147438414694400616078274122459190822474961601238453471232",
        "35541503283276933796147438414694400616078274122459190822474961601238453471233",
        "35541503283276933796147438414694400616078274122459190822474961601238453471234",
        "35541503283276933796147438414694400616078274122459190822474961601238453471237"
      ]
    },
    {
      "x": 71,
      "y": 298,
      "size": 1,
      "price": "6950000000000000000000",
      "assetIds": [
        "35541503283276933796147438414694400616078274122459190822474961601238453471232",
        "35541503283276933796147438414694400616078274122459190822474961601238453471233",
        "35541503283276933796147438414694400616078274122459190822474961601238453471234",
        "35541503283276933796147438414694400616078274122459190822474961601238453471236"
      ]
    },
    {
      "x": 71,
      "y": 299,
      "size": 1,
      "price": "6950000000000000000000",
      "assetIds": [
        "35541503283276933796147438414694400616078274122459190822474961601238453471232",
        "35541503283276933796147438414694400616078274122459190822474961601238453471233",
        "35541503283276933796147438414694400616078274122459190822474961601238453471234",
        "35541503283276933796147438414694400616078274122459190822474961601238453471235"
      ]
    },
    {
      "x": 71,
      "y": 312,
      "size": 1,
      "price": "6950000000000000000000",
      "assetIds": [
        "35541503283276933796147438414694400616078274122459190822474961601238453471232",
        "35541503283276933796147438414694400616078274122459190822474961601238453471233",
        "35541503283276933796147438414694400616078274122459190822474961601238453471234",
        "35541503283276933796147438414694400616078274122459190822474961601238453471235"
      ]
    },
    {
      "x": 71,
      "y": 313,
      "size": 1,
      "price": "6950000000000000000000",
      "assetIds": [
        "35541503283276933796147438414694400616078274122459190822474961601238453471232",
        "35541503283276933796147438414694400616078274122459190822474961601238453471233",
        "35541503283276933796147438414694400616078274122459190822474961601238453471234",
        "35541503283276933796147438414694400616078274122459190822474961601238453471239"
      ]
    },
    {
      "x": 71,
      "y": 314,
      "size": 1,
      "price": "6950000000000000000000",
      "assetIds": [
        "35541503283276933796147438414694400616078274122459190822474961601238453471232",
        "35541503283276933796147438414694400616078274122459190822474961601238453471233",
        "35541503283276933796147438414694400616078274122459190822474961601238453471234",
        "35541503283276933796147438414694400616078274122459190822474961601238453471238"
      ]
    },
    {
      "x": 71,
      "y": 315,
      "size": 1,
      "price": "6950000000000000000000",
      "assetIds": [
        "35541503283276933796147438414694400616078274122459190822474961601238453471232",
        "35541503283276933796147438414694400616078274122459190822474961601238453471233",
        "35541503283276933796147438414694400616078274122459190822474961601238453471234",
        "35541503283276933796147438414694400616078274122459190822474961601238453471236"
      ]
    },
    {
      "x": 71,
      "y": 316,
      "size": 1,
      "price": "3000000000000000000000",
      "reserved": "0x7a9fe22691c811ea339d9b73150e6911a5343dca",
      "assetIds": []
    },
    {
      "x": 71,
      "y": 317,
      "size": 1,
      "price": "3000000000000000000000",
      "assetIds": []
    },
    {
      "x": 71,
      "y": 336,
      "size": 1,
      "price": "3000000000000000000000",
      "assetIds": []
    },
    {
      "x": 71,
      "y": 337,
      "size": 1,
      "price": "3000000000000000000000",
      "assetIds": []
    },
    {
      "x": 71,
      "y": 338,
      "size": 1,
      "price": "3000000000000000000000",
      "reserved": "0x7a9fe22691c811ea339d9b73150e6911a5343dca",
      "assetIds": []
    },
    {
      "x": 71,
      "y": 339,
      "size": 1,
      "price": "3000000000000000000000",
      "assetIds": []
    },
    {
      "x": 71,
      "y": 340,
      "size": 1,
      "price": "3000000000000000000000",
      "assetIds": []
    },
    {
      "x": 71,
      "y": 341,
      "size": 1,
      "price": "3000000000000000000000",
      "reserved": "0x7a9fe22691c811ea339d9b73150e6911a5343dca",
      "assetIds": []
    },
    {
      "x": 72,
      "y": 311,
      "size": 1,
      "price": "6950000000000000000000",
      "assetIds": [
        "35541503283276933796147438414694400616078274122459190822474961601238453471232",
        "35541503283276933796147438414694400616078274122459190822474961601238453471233",
        "35541503283276933796147438414694400616078274122459190822474961601238453471234",
        "35541503283276933796147438414694400616078274122459190822474961601238453471235"
      ]
    },
    {
      "x": 72,
      "y": 310,
      "size": 1,
      "price": "6950000000000000000000",
      "assetIds": [
        "35541503283276933796147438414694400616078274122459190822474961601238453471232",
        "35541503283276933796147438414694400616078274122459190822474961601238453471233",
        "35541503283276933796147438414694400616078274122459190822474961601238453471234",
        "35541503283276933796147438414694400616078274122459190822474961601238453471238"
      ]
    },
    {
      "x": 72,
      "y": 309,
      "size": 1,
      "price": "6950000000000000000000",
      "assetIds": [
        "35541503283276933796147438414694400616078274122459190822474961601238453471232",
        "35541503283276933796147438414694400616078274122459190822474961601238453471233",
        "35541503283276933796147438414694400616078274122459190822474961601238453471234",
        "35541503283276933796147438414694400616078274122459190822474961601238453471239"
      ]
    },
    {
      "x": 72,
      "y": 308,
      "size": 1,
      "price": "6950000000000000000000",
      "assetIds": [
        "35541503283276933796147438414694400616078274122459190822474961601238453471232",
        "35541503283276933796147438414694400616078274122459190822474961601238453471233",
        "35541503283276933796147438414694400616078274122459190822474961601238453471234",
        "35541503283276933796147438414694400616078274122459190822474961601238453471235"
      ]
    },
    {
      "x": 72,
      "y": 307,
      "size": 1,
      "price": "6950000000000000000000",
      "assetIds": [
        "35541503283276933796147438414694400616078274122459190822474961601238453471232",
        "35541503283276933796147438414694400616078274122459190822474961601238453471233",
        "35541503283276933796147438414694400616078274122459190822474961601238453471234",
        "35541503283276933796147438414694400616078274122459190822474961601238453471235"
      ]
    },
    {
      "x": 72,
      "y": 306,
      "size": 1,
      "price": "6950000000000000000000",
      "assetIds": [
        "35541503283276933796147438414694400616078274122459190822474961601238453471232",
        "35541503283276933796147438414694400616078274122459190822474961601238453471233",
        "35541503283276933796147438414694400616078274122459190822474961601238453471234",
        "35541503283276933796147438414694400616078274122459190822474961601238453471236"
      ]
    },
    {
      "x": 72,
      "y": 305,
      "size": 1,
      "price": "6950000000000000000000",
      "assetIds": [
        "35541503283276933796147438414694400616078274122459190822474961601238453471232",
        "35541503283276933796147438414694400616078274122459190822474961601238453471233",
        "35541503283276933796147438414694400616078274122459190822474961601238453471234",
        "35541503283276933796147438414694400616078274122459190822474961601238453471235"
      ]
    },
    {
      "x": 72,
      "y": 304,
      "size": 1,
      "price": "6950000000000000000000",
      "assetIds": [
        "35541503283276933796147438414694400616078274122459190822474961601238453471232",
        "35541503283276933796147438414694400616078274122459190822474961601238453471233",
        "35541503283276933796147438414694400616078274122459190822474961601238453471234",
        "35541503283276933796147438414694400616078274122459190822474961601238453471238"
      ]
    },
    {
      "x": 72,
      "y": 303,
      "size": 1,
      "price": "6950000000000000000000",
      "assetIds": [
        "35541503283276933796147438414694400616078274122459190822474961601238453471232",
        "35541503283276933796147438414694400616078274122459190822474961601238453471233",
        "35541503283276933796147438414694400616078274122459190822474961601238453471234",
        "35541503283276933796147438414694400616078274122459190822474961601238453471240"
      ]
    },
    {
      "x": 72,
      "y": 302,
      "size": 1,
      "price": "6950000000000000000000",
      "assetIds": [
        "35541503283276933796147438414694400616078274122459190822474961601238453471232",
        "35541503283276933796147438414694400616078274122459190822474961601238453471233",
        "35541503283276933796147438414694400616078274122459190822474961601238453471234",
        "35541503283276933796147438414694400616078274122459190822474961601238453471235"
      ]
    },
    {
      "x": 72,
      "y": 301,
      "size": 1,
      "price": "6950000000000000000000",
      "assetIds": [
        "35541503283276933796147438414694400616078274122459190822474961601238453471232",
        "35541503283276933796147438414694400616078274122459190822474961601238453471233",
        "35541503283276933796147438414694400616078274122459190822474961601238453471234",
        "35541503283276933796147438414694400616078274122459190822474961601238453471236"
      ]
    },
    {
      "x": 72,
      "y": 300,
      "size": 1,
      "price": "3000000000000000000000",
      "reserved": "0x7a9fe22691c811ea339d9b73150e6911a5343dca",
      "assetIds": []
    },
    {
      "x": 72,
      "y": 299,
      "size": 1,
      "price": "6950000000000000000000",
      "assetIds": [
        "35541503283276933796147438414694400616078274122459190822474961601238453471232",
        "35541503283276933796147438414694400616078274122459190822474961601238453471233",
        "35541503283276933796147438414694400616078274122459190822474961601238453471234",
        "35541503283276933796147438414694400616078274122459190822474961601238453471239"
      ]
    },
    {
      "x": 72,
      "y": 298,
      "size": 1,
      "price": "6950000000000000000000",
      "assetIds": [
        "35541503283276933796147438414694400616078274122459190822474961601238453471232",
        "35541503283276933796147438414694400616078274122459190822474961601238453471233",
        "35541503283276933796147438414694400616078274122459190822474961601238453471234",
        "35541503283276933796147438414694400616078274122459190822474961601238453471235"
      ]
    },
    {
      "x": 72,
      "y": 297,
      "size": 1,
      "price": "6950000000000000000000",
      "assetIds": [
        "35541503283276933796147438414694400616078274122459190822474961601238453471232",
        "35541503283276933796147438414694400616078274122459190822474961601238453471233",
        "35541503283276933796147438414694400616078274122459190822474961601238453471234",
        "35541503283276933796147438414694400616078274122459190822474961601238453471235"
      ]
    },
    {
      "x": 72,
      "y": 296,
      "size": 1,
      "price": "6950000000000000000000",
      "assetIds": [
        "35541503283276933796147438414694400616078274122459190822474961601238453471232",
        "35541503283276933796147438414694400616078274122459190822474961601238453471233",
        "35541503283276933796147438414694400616078274122459190822474961601238453471234",
        "35541503283276933796147438414694400616078274122459190822474961601238453471239"
      ]
    },
    {
      "x": 72,
      "y": 295,
      "size": 1,
      "price": "6950000000000000000000",
      "assetIds": [
        "35541503283276933796147438414694400616078274122459190822474961601238453471232",
        "35541503283276933796147438414694400616078274122459190822474961601238453471233",
        "35541503283276933796147438414694400616078274122459190822474961601238453471234",
        "35541503283276933796147438414694400616078274122459190822474961601238453471240"
      ]
    },
    {
      "x": 72,
      "y": 294,
      "size": 1,
      "price": "3000000000000000000000",
      "assetIds": []
    },
    {
      "x": 72,
      "y": 293,
      "size": 1,
      "price": "3000000000000000000000",
      "assetIds": []
    },
    {
      "x": 72,
      "y": 292,
      "size": 1,
      "price": "3000000000000000000000",
      "assetIds": []
    },
    {
      "x": 72,
      "y": 291,
      "size": 1,
      "price": "3000000000000000000000",
      "assetIds": []
    },
    {
      "x": 73,
      "y": 291,
      "size": 1,
      "price": "3000000000000000000000",
      "assetIds": []
    },
    {
      "x": 73,
      "y": 292,
      "size": 1,
      "price": "3000000000000000000000",
      "assetIds": []
    },
    {
      "x": 73,
      "y": 293,
      "size": 1,
      "price": "3000000000000000000000",
      "assetIds": []
    },
    {
      "x": 73,
      "y": 294,
      "size": 1,
      "price": "3000000000000000000000",
      "assetIds": []
    },
    {
      "x": 73,
      "y": 295,
      "size": 1,
      "price": "3000000000000000000000",
      "assetIds": []
    },
    {
      "x": 73,
      "y": 296,
      "size": 1,
      "price": "3000000000000000000000",
      "reserved": "0x7a9fe22691c811ea339d9b73150e6911a5343dca",
      "assetIds": []
    },
    {
      "x": 73,
      "y": 297,
      "size": 1,
      "price": "6950000000000000000000",
      "assetIds": [
        "35541503283276933796147438414694400616078274122459190822474961601238453471232",
        "35541503283276933796147438414694400616078274122459190822474961601238453471233",
        "35541503283276933796147438414694400616078274122459190822474961601238453471234",
        "35541503283276933796147438414694400616078274122459190822474961601238453471239"
      ]
    },
    {
      "x": 73,
      "y": 298,
      "size": 1,
      "price": "6950000000000000000000",
      "assetIds": [
        "35541503283276933796147438414694400616078274122459190822474961601238453471232",
        "35541503283276933796147438414694400616078274122459190822474961601238453471233",
        "35541503283276933796147438414694400616078274122459190822474961601238453471234",
        "35541503283276933796147438414694400616078274122459190822474961601238453471237"
      ]
    },
    {
      "x": 73,
      "y": 299,
      "size": 1,
      "price": "6950000000000000000000",
      "assetIds": [
        "35541503283276933796147438414694400616078274122459190822474961601238453471232",
        "35541503283276933796147438414694400616078274122459190822474961601238453471233",
        "35541503283276933796147438414694400616078274122459190822474961601238453471234",
        "35541503283276933796147438414694400616078274122459190822474961601238453471240"
      ]
    },
    {
      "x": 73,
      "y": 300,
      "size": 1,
      "price": "6950000000000000000000",
      "assetIds": [
        "35541503283276933796147438414694400616078274122459190822474961601238453471232",
        "35541503283276933796147438414694400616078274122459190822474961601238453471233",
        "35541503283276933796147438414694400616078274122459190822474961601238453471234",
        "35541503283276933796147438414694400616078274122459190822474961601238453471235"
      ]
    },
    {
      "x": 73,
      "y": 301,
      "size": 1,
      "price": "6950000000000000000000",
      "assetIds": [
        "35541503283276933796147438414694400616078274122459190822474961601238453471232",
        "35541503283276933796147438414694400616078274122459190822474961601238453471233",
        "35541503283276933796147438414694400616078274122459190822474961601238453471234",
        "35541503283276933796147438414694400616078274122459190822474961601238453471238"
      ]
    },
    {
      "x": 73,
      "y": 302,
      "size": 1,
      "price": "6950000000000000000000",
      "assetIds": [
        "35541503283276933796147438414694400616078274122459190822474961601238453471232",
        "35541503283276933796147438414694400616078274122459190822474961601238453471233",
        "35541503283276933796147438414694400616078274122459190822474961601238453471234",
        "35541503283276933796147438414694400616078274122459190822474961601238453471239"
      ]
    },
    {
      "x": 73,
      "y": 303,
      "size": 1,
      "price": "6950000000000000000000",
      "assetIds": [
        "35541503283276933796147438414694400616078274122459190822474961601238453471232",
        "35541503283276933796147438414694400616078274122459190822474961601238453471233",
        "35541503283276933796147438414694400616078274122459190822474961601238453471234",
        "35541503283276933796147438414694400616078274122459190822474961601238453471236"
      ]
    },
    {
      "x": 73,
      "y": 304,
      "size": 1,
      "price": "6950000000000000000000",
      "assetIds": [
        "35541503283276933796147438414694400616078274122459190822474961601238453471232",
        "35541503283276933796147438414694400616078274122459190822474961601238453471233",
        "35541503283276933796147438414694400616078274122459190822474961601238453471234",
        "35541503283276933796147438414694400616078274122459190822474961601238453471238"
      ]
    },
    {
      "x": 73,
      "y": 305,
      "size": 1,
      "price": "6950000000000000000000",
      "assetIds": [
        "35541503283276933796147438414694400616078274122459190822474961601238453471232",
        "35541503283276933796147438414694400616078274122459190822474961601238453471233",
        "35541503283276933796147438414694400616078274122459190822474961601238453471234",
        "35541503283276933796147438414694400616078274122459190822474961601238453471240"
      ]
    },
    {
      "x": 73,
      "y": 306,
      "size": 1,
      "price": "3000000000000000000000",
      "reserved": "0x7a9fe22691c811ea339d9b73150e6911a5343dca",
      "assetIds": []
    },
    {
      "x": 73,
      "y": 307,
      "size": 1,
      "price": "6950000000000000000000",
      "assetIds": [
        "35541503283276933796147438414694400616078274122459190822474961601238453471232",
        "35541503283276933796147438414694400616078274122459190822474961601238453471233",
        "35541503283276933796147438414694400616078274122459190822474961601238453471234",
        "35541503283276933796147438414694400616078274122459190822474961601238453471238"
      ]
    },
    {
      "x": 73,
      "y": 308,
      "size": 1,
      "price": "6950000000000000000000",
      "assetIds": [
        "35541503283276933796147438414694400616078274122459190822474961601238453471232",
        "35541503283276933796147438414694400616078274122459190822474961601238453471233",
        "35541503283276933796147438414694400616078274122459190822474961601238453471234",
        "35541503283276933796147438414694400616078274122459190822474961601238453471235"
      ]
    },
    {
      "x": 73,
      "y": 309,
      "size": 1,
      "price": "6950000000000000000000",
      "assetIds": [
        "35541503283276933796147438414694400616078274122459190822474961601238453471232",
        "35541503283276933796147438414694400616078274122459190822474961601238453471233",
        "35541503283276933796147438414694400616078274122459190822474961601238453471234",
        "35541503283276933796147438414694400616078274122459190822474961601238453471240"
      ]
    },
    {
      "x": 73,
      "y": 310,
      "size": 1,
      "price": "6950000000000000000000",
      "assetIds": [
        "35541503283276933796147438414694400616078274122459190822474961601238453471232",
        "35541503283276933796147438414694400616078274122459190822474961601238453471233",
        "35541503283276933796147438414694400616078274122459190822474961601238453471234",
        "35541503283276933796147438414694400616078274122459190822474961601238453471235"
      ]
    },
    {
      "x": 73,
      "y": 311,
      "size": 1,
      "price": "6950000000000000000000",
      "assetIds": [
        "35541503283276933796147438414694400616078274122459190822474961601238453471232",
        "35541503283276933796147438414694400616078274122459190822474961601238453471233",
        "35541503283276933796147438414694400616078274122459190822474961601238453471234",
        "35541503283276933796147438414694400616078274122459190822474961601238453471239"
      ]
    },
    {
      "x": 74,
      "y": 307,
      "size": 1,
      "price": "6950000000000000000000",
      "assetIds": [
        "35541503283276933796147438414694400616078274122459190822474961601238453471232",
        "35541503283276933796147438414694400616078274122459190822474961601238453471233",
        "35541503283276933796147438414694400616078274122459190822474961601238453471234",
        "35541503283276933796147438414694400616078274122459190822474961601238453471237"
      ]
    },
    {
      "x": 74,
      "y": 306,
      "size": 1,
      "price": "6950000000000000000000",
      "assetIds": [
        "35541503283276933796147438414694400616078274122459190822474961601238453471232",
        "35541503283276933796147438414694400616078274122459190822474961601238453471233",
        "35541503283276933796147438414694400616078274122459190822474961601238453471234",
        "35541503283276933796147438414694400616078274122459190822474961601238453471235"
      ]
    },
    {
      "x": 74,
      "y": 305,
      "size": 1,
      "price": "6950000000000000000000",
      "assetIds": [
        "35541503283276933796147438414694400616078274122459190822474961601238453471232",
        "35541503283276933796147438414694400616078274122459190822474961601238453471233",
        "35541503283276933796147438414694400616078274122459190822474961601238453471234",
        "35541503283276933796147438414694400616078274122459190822474961601238453471237"
      ]
    },
    {
      "x": 74,
      "y": 304,
      "size": 1,
      "price": "6950000000000000000000",
      "assetIds": [
        "35541503283276933796147438414694400616078274122459190822474961601238453471232",
        "35541503283276933796147438414694400616078274122459190822474961601238453471233",
        "35541503283276933796147438414694400616078274122459190822474961601238453471234",
        "35541503283276933796147438414694400616078274122459190822474961601238453471238"
      ]
    },
    {
      "x": 74,
      "y": 303,
      "size": 1,
      "price": "6950000000000000000000",
      "assetIds": [
        "35541503283276933796147438414694400616078274122459190822474961601238453471232",
        "35541503283276933796147438414694400616078274122459190822474961601238453471233",
        "35541503283276933796147438414694400616078274122459190822474961601238453471234",
        "35541503283276933796147438414694400616078274122459190822474961601238453471237"
      ]
    },
    {
      "x": 74,
      "y": 302,
      "size": 1,
      "price": "6950000000000000000000",
      "assetIds": [
        "35541503283276933796147438414694400616078274122459190822474961601238453471232",
        "35541503283276933796147438414694400616078274122459190822474961601238453471233",
        "35541503283276933796147438414694400616078274122459190822474961601238453471234",
        "35541503283276933796147438414694400616078274122459190822474961601238453471239"
      ]
    },
    {
      "x": 74,
      "y": 301,
      "size": 1,
      "price": "6950000000000000000000",
      "assetIds": [
        "35541503283276933796147438414694400616078274122459190822474961601238453471232",
        "35541503283276933796147438414694400616078274122459190822474961601238453471233",
        "35541503283276933796147438414694400616078274122459190822474961601238453471234",
        "35541503283276933796147438414694400616078274122459190822474961601238453471237"
      ]
    },
    {
      "x": 74,
      "y": 300,
      "size": 1,
      "price": "6950000000000000000000",
      "assetIds": [
        "35541503283276933796147438414694400616078274122459190822474961601238453471232",
        "35541503283276933796147438414694400616078274122459190822474961601238453471233",
        "35541503283276933796147438414694400616078274122459190822474961601238453471234",
        "35541503283276933796147438414694400616078274122459190822474961601238453471237"
      ]
    },
    {
      "x": 74,
      "y": 299,
      "size": 1,
      "price": "6950000000000000000000",
      "assetIds": [
        "35541503283276933796147438414694400616078274122459190822474961601238453471232",
        "35541503283276933796147438414694400616078274122459190822474961601238453471233",
        "35541503283276933796147438414694400616078274122459190822474961601238453471234",
        "35541503283276933796147438414694400616078274122459190822474961601238453471240"
      ]
    },
    {
      "x": 74,
      "y": 298,
      "size": 1,
      "price": "3000000000000000000000",
      "reserved": "0x7a9fe22691c811ea339d9b73150e6911a5343dca",
      "assetIds": []
    },
    {
      "x": 74,
      "y": 297,
      "size": 1,
      "price": "6950000000000000000000",
      "assetIds": [
        "35541503283276933796147438414694400616078274122459190822474961601238453471232",
        "35541503283276933796147438414694400616078274122459190822474961601238453471233",
        "35541503283276933796147438414694400616078274122459190822474961601238453471234",
        "35541503283276933796147438414694400616078274122459190822474961601238453471237"
      ]
    },
    {
      "x": 74,
      "y": 296,
      "size": 1,
      "price": "6950000000000000000000",
      "assetIds": [
        "35541503283276933796147438414694400616078274122459190822474961601238453471232",
        "35541503283276933796147438414694400616078274122459190822474961601238453471233",
        "35541503283276933796147438414694400616078274122459190822474961601238453471234",
        "35541503283276933796147438414694400616078274122459190822474961601238453471239"
      ]
    },
    {
      "x": 74,
      "y": 295,
      "size": 1,
      "price": "3000000000000000000000",
      "assetIds": []
    },
    {
      "x": 74,
      "y": 294,
      "size": 1,
      "price": "3000000000000000000000",
      "assetIds": []
    },
    {
      "x": 74,
      "y": 293,
      "size": 1,
      "price": "3000000000000000000000",
      "assetIds": []
    },
    {
      "x": 74,
      "y": 292,
      "size": 1,
      "price": "3000000000000000000000",
      "assetIds": []
    },
    {
      "x": 74,
      "y": 291,
      "size": 1,
      "price": "3000000000000000000000",
      "assetIds": []
    },
    {
      "x": 75,
      "y": 288,
      "size": 1,
      "price": "3000000000000000000000",
      "assetIds": []
    },
    {
      "x": 75,
      "y": 289,
      "size": 1,
      "price": "3000000000000000000000",
      "assetIds": []
    },
    {
      "x": 75,
      "y": 290,
      "size": 1,
      "price": "3000000000000000000000",
      "assetIds": []
    },
    {
      "x": 75,
      "y": 297,
      "size": 1,
      "price": "6950000000000000000000",
      "assetIds": [
        "35541503283276933796147438414694400616078274122459190822474961601238453471232",
        "35541503283276933796147438414694400616078274122459190822474961601238453471233",
        "35541503283276933796147438414694400616078274122459190822474961601238453471234",
        "35541503283276933796147438414694400616078274122459190822474961601238453471240"
      ]
    },
    {
      "x": 75,
      "y": 298,
      "size": 1,
      "price": "6950000000000000000000",
      "assetIds": [
        "35541503283276933796147438414694400616078274122459190822474961601238453471232",
        "35541503283276933796147438414694400616078274122459190822474961601238453471233",
        "35541503283276933796147438414694400616078274122459190822474961601238453471234",
        "35541503283276933796147438414694400616078274122459190822474961601238453471240"
      ]
    },
    {
      "x": 75,
      "y": 299,
      "size": 1,
      "price": "6950000000000000000000",
      "assetIds": [
        "35541503283276933796147438414694400616078274122459190822474961601238453471232",
        "35541503283276933796147438414694400616078274122459190822474961601238453471233",
        "35541503283276933796147438414694400616078274122459190822474961601238453471234",
        "35541503283276933796147438414694400616078274122459190822474961601238453471236"
      ]
    },
    {
      "x": 75,
      "y": 300,
      "size": 1,
      "price": "6950000000000000000000",
      "assetIds": [
        "35541503283276933796147438414694400616078274122459190822474961601238453471232",
        "35541503283276933796147438414694400616078274122459190822474961601238453471233",
        "35541503283276933796147438414694400616078274122459190822474961601238453471234",
        "35541503283276933796147438414694400616078274122459190822474961601238453471236"
      ]
    },
    {
      "x": 75,
      "y": 301,
      "size": 1,
      "price": "6950000000000000000000",
      "assetIds": [
        "35541503283276933796147438414694400616078274122459190822474961601238453471232",
        "35541503283276933796147438414694400616078274122459190822474961601238453471233",
        "35541503283276933796147438414694400616078274122459190822474961601238453471234",
        "35541503283276933796147438414694400616078274122459190822474961601238453471238"
      ]
    },
    {
      "x": 75,
      "y": 302,
      "size": 1,
      "price": "3000000000000000000000",
      "reserved": "0x7a9fe22691c811ea339d9b73150e6911a5343dca",
      "assetIds": []
    },
    {
      "x": 75,
      "y": 306,
      "size": 1,
      "price": "6950000000000000000000",
      "assetIds": [
        "35541503283276933796147438414694400616078274122459190822474961601238453471232",
        "35541503283276933796147438414694400616078274122459190822474961601238453471233",
        "35541503283276933796147438414694400616078274122459190822474961601238453471234",
        "35541503283276933796147438414694400616078274122459190822474961601238453471236"
      ]
    },
    {
      "x": 75,
      "y": 307,
      "size": 1,
      "price": "6950000000000000000000",
      "assetIds": [
        "35541503283276933796147438414694400616078274122459190822474961601238453471232",
        "35541503283276933796147438414694400616078274122459190822474961601238453471233",
        "35541503283276933796147438414694400616078274122459190822474961601238453471234",
        "35541503283276933796147438414694400616078274122459190822474961601238453471239"
      ]
    },
    {
      "x": 75,
      "y": 308,
      "size": 1,
      "price": "6950000000000000000000",
      "assetIds": [
        "35541503283276933796147438414694400616078274122459190822474961601238453471232",
        "35541503283276933796147438414694400616078274122459190822474961601238453471233",
        "35541503283276933796147438414694400616078274122459190822474961601238453471234",
        "35541503283276933796147438414694400616078274122459190822474961601238453471236"
      ]
    },
    {
      "x": 75,
      "y": 309,
      "size": 1,
      "price": "6950000000000000000000",
      "assetIds": [
        "35541503283276933796147438414694400616078274122459190822474961601238453471232",
        "35541503283276933796147438414694400616078274122459190822474961601238453471233",
        "35541503283276933796147438414694400616078274122459190822474961601238453471234",
        "35541503283276933796147438414694400616078274122459190822474961601238453471239"
      ]
    },
    {
      "x": 75,
      "y": 310,
      "size": 1,
      "price": "6950000000000000000000",
      "assetIds": [
        "35541503283276933796147438414694400616078274122459190822474961601238453471232",
        "35541503283276933796147438414694400616078274122459190822474961601238453471233",
        "35541503283276933796147438414694400616078274122459190822474961601238453471234",
        "35541503283276933796147438414694400616078274122459190822474961601238453471237"
      ]
    },
    {
      "x": 75,
      "y": 311,
      "size": 1,
      "price": "3000000000000000000000",
      "reserved": "0x7a9fe22691c811ea339d9b73150e6911a5343dca",
      "assetIds": []
    },
    {
      "x": 76,
      "y": 311,
      "size": 1,
      "price": "6950000000000000000000",
      "assetIds": [
        "35541503283276933796147438414694400616078274122459190822474961601238453471232",
        "35541503283276933796147438414694400616078274122459190822474961601238453471233",
        "35541503283276933796147438414694400616078274122459190822474961601238453471234",
        "35541503283276933796147438414694400616078274122459190822474961601238453471240"
      ]
    },
    {
      "x": 76,
      "y": 310,
      "size": 1,
      "price": "6950000000000000000000",
      "assetIds": [
        "35541503283276933796147438414694400616078274122459190822474961601238453471232",
        "35541503283276933796147438414694400616078274122459190822474961601238453471233",
        "35541503283276933796147438414694400616078274122459190822474961601238453471234",
        "35541503283276933796147438414694400616078274122459190822474961601238453471240"
      ]
    },
    {
      "x": 76,
      "y": 309,
      "size": 1,
      "price": "6950000000000000000000",
      "assetIds": [
        "35541503283276933796147438414694400616078274122459190822474961601238453471232",
        "35541503283276933796147438414694400616078274122459190822474961601238453471233",
        "35541503283276933796147438414694400616078274122459190822474961601238453471234",
        "35541503283276933796147438414694400616078274122459190822474961601238453471238"
      ]
    },
    {
      "x": 76,
      "y": 308,
      "size": 1,
      "price": "6950000000000000000000",
      "assetIds": [
        "35541503283276933796147438414694400616078274122459190822474961601238453471232",
        "35541503283276933796147438414694400616078274122459190822474961601238453471233",
        "35541503283276933796147438414694400616078274122459190822474961601238453471234",
        "35541503283276933796147438414694400616078274122459190822474961601238453471238"
      ]
    },
    {
      "x": 76,
      "y": 307,
      "size": 1,
      "price": "3000000000000000000000",
      "reserved": "0x7a9fe22691c811ea339d9b73150e6911a5343dca",
      "assetIds": []
    },
    {
      "x": 76,
      "y": 306,
      "size": 1,
      "price": "6950000000000000000000",
      "assetIds": [
        "35541503283276933796147438414694400616078274122459190822474961601238453471232",
        "35541503283276933796147438414694400616078274122459190822474961601238453471233",
        "35541503283276933796147438414694400616078274122459190822474961601238453471234",
        "35541503283276933796147438414694400616078274122459190822474961601238453471235"
      ]
    },
    {
      "x": 76,
      "y": 302,
      "size": 1,
      "price": "6950000000000000000000",
      "assetIds": [
        "35541503283276933796147438414694400616078274122459190822474961601238453471232",
        "35541503283276933796147438414694400616078274122459190822474961601238453471233",
        "35541503283276933796147438414694400616078274122459190822474961601238453471234",
        "35541503283276933796147438414694400616078274122459190822474961601238453471239"
      ]
    },
    {
      "x": 76,
      "y": 301,
      "size": 1,
      "price": "6950000000000000000000",
      "assetIds": [
        "35541503283276933796147438414694400616078274122459190822474961601238453471232",
        "35541503283276933796147438414694400616078274122459190822474961601238453471233",
        "35541503283276933796147438414694400616078274122459190822474961601238453471234",
        "35541503283276933796147438414694400616078274122459190822474961601238453471238"
      ]
    },
    {
      "x": 76,
      "y": 300,
      "size": 1,
      "price": "6950000000000000000000",
      "assetIds": [
        "35541503283276933796147438414694400616078274122459190822474961601238453471232",
        "35541503283276933796147438414694400616078274122459190822474961601238453471233",
        "35541503283276933796147438414694400616078274122459190822474961601238453471234",
        "35541503283276933796147438414694400616078274122459190822474961601238453471238"
      ]
    },
    {
      "x": 76,
      "y": 299,
      "size": 1,
      "price": "6950000000000000000000",
      "assetIds": [
        "35541503283276933796147438414694400616078274122459190822474961601238453471232",
        "35541503283276933796147438414694400616078274122459190822474961601238453471233",
        "35541503283276933796147438414694400616078274122459190822474961601238453471234",
        "35541503283276933796147438414694400616078274122459190822474961601238453471235"
      ]
    },
    {
      "x": 76,
      "y": 298,
      "size": 1,
      "price": "6950000000000000000000",
      "assetIds": [
        "35541503283276933796147438414694400616078274122459190822474961601238453471232",
        "35541503283276933796147438414694400616078274122459190822474961601238453471233",
        "35541503283276933796147438414694400616078274122459190822474961601238453471234",
        "35541503283276933796147438414694400616078274122459190822474961601238453471240"
      ]
    },
    {
      "x": 76,
      "y": 297,
      "size": 1,
      "price": "3000000000000000000000",
      "assetIds": []
    },
    {
      "x": 76,
      "y": 290,
      "size": 1,
      "price": "3000000000000000000000",
      "assetIds": []
    },
    {
      "x": 76,
      "y": 289,
      "size": 1,
      "price": "3000000000000000000000",
      "reserved": "0x7a9fe22691c811ea339d9b73150e6911a5343dca",
      "assetIds": []
    },
    {
      "x": 76,
      "y": 288,
      "size": 1,
      "price": "3000000000000000000000",
      "assetIds": []
    },
    {
      "x": 77,
      "y": 306,
      "size": 1,
      "price": "3000000000000000000000",
      "assetIds": []
    },
    {
      "x": 77,
      "y": 308,
      "size": 1,
      "price": "3000000000000000000000",
      "assetIds": []
    },
    {
      "x": 77,
      "y": 309,
      "size": 1,
      "price": "6950000000000000000000",
      "assetIds": [
        "35541503283276933796147438414694400616078274122459190822474961601238453471232",
        "35541503283276933796147438414694400616078274122459190822474961601238453471233",
        "35541503283276933796147438414694400616078274122459190822474961601238453471234",
        "35541503283276933796147438414694400616078274122459190822474961601238453471235"
      ]
    },
    {
      "x": 78,
      "y": 310,
      "size": 1,
      "price": "3000000000000000000000",
      "reserved": "0x7a9fe22691c811ea339d9b73150e6911a5343dca",
      "assetIds": []
    },
    {
      "x": 78,
      "y": 311,
      "size": 1,
      "price": "3000000000000000000000",
      "assetIds": []
    },
    {
      "x": 78,
      "y": 309,
      "size": 1,
      "price": "3000000000000000000000",
      "assetIds": []
    },
    {
      "x": 78,
      "y": 308,
      "size": 1,
      "price": "3000000000000000000000",
      "assetIds": []
    },
    {
      "x": 78,
      "y": 307,
      "size": 1,
      "price": "3000000000000000000000",
      "assetIds": []
    },
    {
      "x": 78,
      "y": 306,
      "size": 1,
      "price": "3000000000000000000000",
      "assetIds": []
    },
    {
      "x": 78,
      "y": 299,
      "size": 1,
      "price": "3000000000000000000000",
      "assetIds": []
    },
    {
      "x": 78,
      "y": 298,
      "size": 1,
      "price": "3000000000000000000000",
      "assetIds": []
    },
    {
      "x": 78,
      "y": 297,
      "size": 1,
      "price": "3000000000000000000000",
      "assetIds": []
    },
    {
      "x": 77,
      "y": 288,
      "size": 1,
      "price": "3000000000000000000000",
      "assetIds": []
    },
    {
      "x": 77,
      "y": 289,
      "size": 1,
      "price": "3000000000000000000000",
      "assetIds": []
    },
    {
      "x": 77,
      "y": 290,
      "size": 1,
      "price": "3000000000000000000000",
      "assetIds": []
    },
    {
      "x": 77,
      "y": 297,
      "size": 1,
      "price": "3000000000000000000000",
      "reserved": "0x7a9fe22691c811ea339d9b73150e6911a5343dca",
      "assetIds": []
    },
    {
      "x": 77,
      "y": 298,
      "size": 1,
      "price": "3000000000000000000000",
      "assetIds": []
    },
    {
      "x": 77,
      "y": 299,
      "size": 1,
      "price": "3000000000000000000000",
      "assetIds": []
    },
    {
      "x": 77,
      "y": 300,
      "size": 1,
      "price": "6950000000000000000000",
      "assetIds": [
        "35541503283276933796147438414694400616078274122459190822474961601238453471232",
        "35541503283276933796147438414694400616078274122459190822474961601238453471233",
        "35541503283276933796147438414694400616078274122459190822474961601238453471234",
        "35541503283276933796147438414694400616078274122459190822474961601238453471238"
      ]
    },
    {
      "x": 77,
      "y": 301,
      "size": 1,
      "price": "3000000000000000000000",
      "assetIds": []
    },
    {
      "x": 77,
      "y": 302,
      "size": 1,
      "price": "3000000000000000000000",
      "assetIds": []
    },
    {
      "x": 77,
      "y": 307,
      "size": 1,
      "price": "6950000000000000000000",
      "assetIds": [
        "35541503283276933796147438414694400616078274122459190822474961601238453471232",
        "35541503283276933796147438414694400616078274122459190822474961601238453471233",
        "35541503283276933796147438414694400616078274122459190822474961601238453471234",
        "35541503283276933796147438414694400616078274122459190822474961601238453471237"
      ]
    },
    {
      "x": 77,
      "y": 310,
      "size": 1,
      "price": "3000000000000000000000",
      "assetIds": []
    },
    {
      "x": 77,
      "y": 311,
      "size": 1,
      "price": "3000000000000000000000",
      "assetIds": []
    },
    {
      "x": 79,
      "y": 311,
      "size": 1,
      "price": "3000000000000000000000",
      "assetIds": []
    },
    {
      "x": 79,
      "y": 310,
      "size": 1,
      "price": "3000000000000000000000",
      "assetIds": []
    },
    {
      "x": 79,
      "y": 309,
      "size": 1,
      "price": "3000000000000000000000",
      "assetIds": []
    },
    {
      "x": 79,
      "y": 308,
      "size": 1,
      "price": "3000000000000000000000",
      "assetIds": []
    },
    {
      "x": 79,
      "y": 307,
      "size": 1,
      "price": "3000000000000000000000",
      "assetIds": []
    },
    {
      "x": 79,
      "y": 306,
      "size": 1,
      "price": "3000000000000000000000",
      "assetIds": []
    },
    {
      "x": 79,
      "y": 299,
      "size": 1,
      "price": "3000000000000000000000",
      "reserved": "0x7a9fe22691c811ea339d9b73150e6911a5343dca",
      "assetIds": []
    },
    {
      "x": 79,
      "y": 298,
      "size": 1,
      "price": "3000000000000000000000",
      "assetIds": []
    },
    {
      "x": 79,
      "y": 297,
      "size": 1,
      "price": "3000000000000000000000",
      "assetIds": []
    },
    {
      "x": 80,
      "y": 306,
      "size": 1,
      "price": "3000000000000000000000",
      "assetIds": []
    },
    {
      "x": 80,
      "y": 307,
      "size": 1,
      "price": "3000000000000000000000",
      "reserved": "0x7a9fe22691c811ea339d9b73150e6911a5343dca",
      "assetIds": []
    },
    {
      "x": 80,
      "y": 308,
      "size": 1,
      "price": "3000000000000000000000",
      "assetIds": []
    },
    {
      "x": 80,
      "y": 309,
      "size": 1,
      "price": "3000000000000000000000",
      "assetIds": []
    },
    {
      "x": 80,
      "y": 310,
      "size": 1,
      "price": "3000000000000000000000",
      "assetIds": []
    },
    {
      "x": 80,
      "y": 311,
      "size": 1,
      "price": "3000000000000000000000",
      "assetIds": []
    },
    {
      "x": 80,
      "y": 298,
      "size": 1,
      "price": "3000000000000000000000",
      "assetIds": []
    },
    {
      "x": 80,
      "y": 297,
      "size": 1,
      "price": "3000000000000000000000",
      "assetIds": []
    },
    {
      "x": 74,
      "y": 308,
      "size": 1,
      "price": "6950000000000000000000",
      "assetIds": [
        "35541503283276933796147438414694400616078274122459190822474961601238453471232",
        "35541503283276933796147438414694400616078274122459190822474961601238453471233",
        "35541503283276933796147438414694400616078274122459190822474961601238453471234",
        "35541503283276933796147438414694400616078274122459190822474961601238453471238"
      ]
    },
    {
      "x": 74,
      "y": 309,
      "size": 1,
      "price": "6950000000000000000000",
      "assetIds": [
        "35541503283276933796147438414694400616078274122459190822474961601238453471232",
        "35541503283276933796147438414694400616078274122459190822474961601238453471233",
        "35541503283276933796147438414694400616078274122459190822474961601238453471234",
        "35541503283276933796147438414694400616078274122459190822474961601238453471235"
      ]
    },
    {
      "x": 74,
      "y": 310,
      "size": 1,
      "price": "6950000000000000000000",
      "assetIds": [
        "35541503283276933796147438414694400616078274122459190822474961601238453471232",
        "35541503283276933796147438414694400616078274122459190822474961601238453471233",
        "35541503283276933796147438414694400616078274122459190822474961601238453471234",
        "35541503283276933796147438414694400616078274122459190822474961601238453471237"
      ]
    },
    {
      "x": 74,
      "y": 311,
      "size": 1,
      "price": "6950000000000000000000",
      "assetIds": [
        "35541503283276933796147438414694400616078274122459190822474961601238453471232",
        "35541503283276933796147438414694400616078274122459190822474961601238453471233",
        "35541503283276933796147438414694400616078274122459190822474961601238453471234",
        "35541503283276933796147438414694400616078274122459190822474961601238453471237"
      ]
    },
    {
      "x": 64,
      "y": 324,
      "size": 1,
      "price": "6950000000000000000000",
      "assetIds": [
        "35541503283276933796147438414694400616078274122459190822474961601238453471232",
        "35541503283276933796147438414694400616078274122459190822474961601238453471233",
        "35541503283276933796147438414694400616078274122459190822474961601238453471234",
        "35541503283276933796147438414694400616078274122459190822474961601238453471240"
      ]
    },
    {
      "x": 63,
      "y": 325,
      "size": 1,
      "price": "6950000000000000000000",
      "assetIds": [
        "35541503283276933796147438414694400616078274122459190822474961601238453471232",
        "35541503283276933796147438414694400616078274122459190822474961601238453471233",
        "35541503283276933796147438414694400616078274122459190822474961601238453471234",
        "35541503283276933796147438414694400616078274122459190822474961601238453471237"
      ]
    },
    {
      "x": 63,
      "y": 327,
      "size": 1,
      "price": "6950000000000000000000",
      "assetIds": [
        "35541503283276933796147438414694400616078274122459190822474961601238453471232",
        "35541503283276933796147438414694400616078274122459190822474961601238453471233",
        "35541503283276933796147438414694400616078274122459190822474961601238453471234",
        "35541503283276933796147438414694400616078274122459190822474961601238453471238"
      ]
    },
    {
      "x": 64,
      "y": 328,
      "size": 1,
      "price": "6950000000000000000000",
      "assetIds": [
        "35541503283276933796147438414694400616078274122459190822474961601238453471232",
        "35541503283276933796147438414694400616078274122459190822474961601238453471233",
        "35541503283276933796147438414694400616078274122459190822474961601238453471234",
        "35541503283276933796147438414694400616078274122459190822474961601238453471236"
      ]
    },
    {
      "x": 64,
      "y": 335,
      "size": 1,
      "price": "6950000000000000000000",
      "assetIds": [
        "35541503283276933796147438414694400616078274122459190822474961601238453471232",
        "35541503283276933796147438414694400616078274122459190822474961601238453471233",
        "35541503283276933796147438414694400616078274122459190822474961601238453471234",
        "35541503283276933796147438414694400616078274122459190822474961601238453471239"
      ]
    },
    {
      "x": 63,
      "y": 335,
      "size": 1,
      "price": "6950000000000000000000",
      "assetIds": [
        "35541503283276933796147438414694400616078274122459190822474961601238453471232",
        "35541503283276933796147438414694400616078274122459190822474961601238453471233",
        "35541503283276933796147438414694400616078274122459190822474961601238453471234",
        "35541503283276933796147438414694400616078274122459190822474961601238453471236"
      ]
    },
    {
      "x": 62,
      "y": 335,
      "size": 1,
      "price": "3000000000000000000000",
      "reserved": "0x7a9fe22691c811ea339d9b73150e6911a5343dca",
      "assetIds": []
    },
    {
      "x": 61,
      "y": 335,
      "size": 1,
      "price": "6950000000000000000000",
      "assetIds": [
        "35541503283276933796147438414694400616078274122459190822474961601238453471232",
        "35541503283276933796147438414694400616078274122459190822474961601238453471233",
        "35541503283276933796147438414694400616078274122459190822474961601238453471234",
        "35541503283276933796147438414694400616078274122459190822474961601238453471239"
      ]
    },
    {
      "x": 60,
      "y": 335,
      "size": 1,
      "price": "6950000000000000000000",
      "assetIds": [
        "35541503283276933796147438414694400616078274122459190822474961601238453471232",
        "35541503283276933796147438414694400616078274122459190822474961601238453471233",
        "35541503283276933796147438414694400616078274122459190822474961601238453471234",
        "35541503283276933796147438414694400616078274122459190822474961601238453471237"
      ]
    },
    {
      "x": 58,
      "y": 336,
      "size": 1,
      "price": "6950000000000000000000",
      "assetIds": [
        "35541503283276933796147438414694400616078274122459190822474961601238453471232",
        "35541503283276933796147438414694400616078274122459190822474961601238453471233",
        "35541503283276933796147438414694400616078274122459190822474961601238453471234",
        "35541503283276933796147438414694400616078274122459190822474961601238453471238"
      ]
    },
    {
      "x": 58,
      "y": 337,
      "size": 1,
      "price": "3000000000000000000000",
      "reserved": "0x7a9fe22691c811ea339d9b73150e6911a5343dca",
      "assetIds": []
    },
    {
      "x": 59,
      "y": 337,
      "size": 1,
      "price": "6950000000000000000000",
      "assetIds": [
        "35541503283276933796147438414694400616078274122459190822474961601238453471232",
        "35541503283276933796147438414694400616078274122459190822474961601238453471233",
        "35541503283276933796147438414694400616078274122459190822474961601238453471234",
        "35541503283276933796147438414694400616078274122459190822474961601238453471239"
      ]
    },
    {
      "x": 59,
      "y": 338,
      "size": 1,
      "price": "6950000000000000000000",
      "assetIds": [
        "35541503283276933796147438414694400616078274122459190822474961601238453471232",
        "35541503283276933796147438414694400616078274122459190822474961601238453471233",
        "35541503283276933796147438414694400616078274122459190822474961601238453471234",
        "35541503283276933796147438414694400616078274122459190822474961601238453471236"
      ]
    },
    {
      "x": 60,
      "y": 338,
      "size": 1,
      "price": "6950000000000000000000",
      "assetIds": [
        "35541503283276933796147438414694400616078274122459190822474961601238453471232",
        "35541503283276933796147438414694400616078274122459190822474961601238453471233",
        "35541503283276933796147438414694400616078274122459190822474961601238453471234",
        "35541503283276933796147438414694400616078274122459190822474961601238453471240"
      ]
    },
    {
      "x": 60,
      "y": 339,
      "size": 1,
      "price": "6950000000000000000000",
      "assetIds": [
        "35541503283276933796147438414694400616078274122459190822474961601238453471232",
        "35541503283276933796147438414694400616078274122459190822474961601238453471233",
        "35541503283276933796147438414694400616078274122459190822474961601238453471234",
        "35541503283276933796147438414694400616078274122459190822474961601238453471239"
      ]
    },
    {
      "x": 61,
      "y": 339,
      "size": 1,
      "price": "6950000000000000000000",
      "assetIds": [
        "35541503283276933796147438414694400616078274122459190822474961601238453471232",
        "35541503283276933796147438414694400616078274122459190822474961601238453471233",
        "35541503283276933796147438414694400616078274122459190822474961601238453471234",
        "35541503283276933796147438414694400616078274122459190822474961601238453471235"
      ]
    },
    {
      "x": 62,
      "y": 340,
      "size": 1,
      "price": "3000000000000000000000",
      "reserved": "0x7a9fe22691c811ea339d9b73150e6911a5343dca",
      "assetIds": []
    },
    {
      "x": 64,
      "y": 344,
      "size": 1,
      "price": "3000000000000000000000",
      "reserved": "0x7a9fe22691c811ea339d9b73150e6911a5343dca",
      "assetIds": []
    },
    {
      "x": 64,
      "y": 343,
      "size": 1,
      "price": "3000000000000000000000",
      "assetIds": []
    },
    {
      "x": 64,
      "y": 342,
      "size": 1,
      "price": "3000000000000000000000",
      "assetIds": []
    },
    {
      "x": 64,
      "y": 338,
      "size": 1,
      "price": "3000000000000000000000",
      "reserved": "0x7a9fe22691c811ea339d9b73150e6911a5343dca",
      "assetIds": []
    },
    {
      "x": 64,
      "y": 337,
      "size": 1,
      "price": "6950000000000000000000",
      "assetIds": [
        "35541503283276933796147438414694400616078274122459190822474961601238453471232",
        "35541503283276933796147438414694400616078274122459190822474961601238453471233",
        "35541503283276933796147438414694400616078274122459190822474961601238453471234",
        "35541503283276933796147438414694400616078274122459190822474961601238453471236"
      ]
    },
    {
      "x": 64,
      "y": 336,
      "size": 1,
      "price": "6950000000000000000000",
      "assetIds": [
        "35541503283276933796147438414694400616078274122459190822474961601238453471232",
        "35541503283276933796147438414694400616078274122459190822474961601238453471233",
        "35541503283276933796147438414694400616078274122459190822474961601238453471234",
        "35541503283276933796147438414694400616078274122459190822474961601238453471235"
      ]
    },
    {
      "x": 64,
      "y": 334,
      "size": 1,
      "price": "6950000000000000000000",
      "assetIds": [
        "35541503283276933796147438414694400616078274122459190822474961601238453471232",
        "35541503283276933796147438414694400616078274122459190822474961601238453471233",
        "35541503283276933796147438414694400616078274122459190822474961601238453471234",
        "35541503283276933796147438414694400616078274122459190822474961601238453471236"
      ]
    },
    {
      "x": 64,
      "y": 333,
      "size": 1,
      "price": "3000000000000000000000",
      "reserved": "0x7a9fe22691c811ea339d9b73150e6911a5343dca",
      "assetIds": []
    },
    {
      "x": 64,
      "y": 332,
      "size": 1,
      "price": "6950000000000000000000",
      "assetIds": [
        "35541503283276933796147438414694400616078274122459190822474961601238453471232",
        "35541503283276933796147438414694400616078274122459190822474961601238453471233",
        "35541503283276933796147438414694400616078274122459190822474961601238453471234",
        "35541503283276933796147438414694400616078274122459190822474961601238453471237"
      ]
    },
    {
      "x": 64,
      "y": 331,
      "size": 1,
      "price": "6950000000000000000000",
      "assetIds": [
        "35541503283276933796147438414694400616078274122459190822474961601238453471232",
        "35541503283276933796147438414694400616078274122459190822474961601238453471233",
        "35541503283276933796147438414694400616078274122459190822474961601238453471234",
        "35541503283276933796147438414694400616078274122459190822474961601238453471238"
      ]
    },
    {
      "x": 64,
      "y": 330,
      "size": 1,
      "price": "6950000000000000000000",
      "assetIds": [
        "35541503283276933796147438414694400616078274122459190822474961601238453471232",
        "35541503283276933796147438414694400616078274122459190822474961601238453471233",
        "35541503283276933796147438414694400616078274122459190822474961601238453471234",
        "35541503283276933796147438414694400616078274122459190822474961601238453471237"
      ]
    },
    {
      "x": 64,
      "y": 329,
      "size": 1,
      "price": "6950000000000000000000",
      "assetIds": [
        "35541503283276933796147438414694400616078274122459190822474961601238453471232",
        "35541503283276933796147438414694400616078274122459190822474961601238453471233",
        "35541503283276933796147438414694400616078274122459190822474961601238453471234",
        "35541503283276933796147438414694400616078274122459190822474961601238453471237"
      ]
    },
    {
      "x": 64,
      "y": 327,
      "size": 1,
      "price": "6950000000000000000000",
      "assetIds": [
        "35541503283276933796147438414694400616078274122459190822474961601238453471232",
        "35541503283276933796147438414694400616078274122459190822474961601238453471233",
        "35541503283276933796147438414694400616078274122459190822474961601238453471234",
        "35541503283276933796147438414694400616078274122459190822474961601238453471238"
      ]
    },
    {
      "x": 64,
      "y": 326,
      "size": 1,
      "price": "6950000000000000000000",
      "assetIds": [
        "35541503283276933796147438414694400616078274122459190822474961601238453471232",
        "35541503283276933796147438414694400616078274122459190822474961601238453471233",
        "35541503283276933796147438414694400616078274122459190822474961601238453471234",
        "35541503283276933796147438414694400616078274122459190822474961601238453471238"
      ]
    },
    {
      "x": 64,
      "y": 325,
      "size": 1,
      "price": "6950000000000000000000",
      "assetIds": [
        "35541503283276933796147438414694400616078274122459190822474961601238453471232",
        "35541503283276933796147438414694400616078274122459190822474961601238453471233",
        "35541503283276933796147438414694400616078274122459190822474961601238453471234",
        "35541503283276933796147438414694400616078274122459190822474961601238453471235"
      ]
    },
    {
      "x": 64,
      "y": 323,
      "size": 1,
      "price": "6950000000000000000000",
      "assetIds": [
        "35541503283276933796147438414694400616078274122459190822474961601238453471232",
        "35541503283276933796147438414694400616078274122459190822474961601238453471233",
        "35541503283276933796147438414694400616078274122459190822474961601238453471234",
        "35541503283276933796147438414694400616078274122459190822474961601238453471240"
      ]
    },
    {
      "x": 64,
      "y": 322,
      "size": 1,
      "price": "6950000000000000000000",
      "assetIds": [
        "35541503283276933796147438414694400616078274122459190822474961601238453471232",
        "35541503283276933796147438414694400616078274122459190822474961601238453471233",
        "35541503283276933796147438414694400616078274122459190822474961601238453471234",
        "35541503283276933796147438414694400616078274122459190822474961601238453471235"
      ]
    },
    {
      "x": 64,
      "y": 321,
      "size": 1,
      "price": "3000000000000000000000",
      "assetIds": []
    },
    {
      "x": 64,
      "y": 317,
      "size": 1,
      "price": "3000000000000000000000",
      "assetIds": []
    },
    {
      "x": 64,
      "y": 316,
      "size": 1,
      "price": "6950000000000000000000",
      "assetIds": [
        "35541503283276933796147438414694400616078274122459190822474961601238453471232",
        "35541503283276933796147438414694400616078274122459190822474961601238453471233",
        "35541503283276933796147438414694400616078274122459190822474961601238453471234",
        "35541503283276933796147438414694400616078274122459190822474961601238453471240"
      ]
    },
    {
      "x": 64,
      "y": 315,
      "size": 1,
      "price": "6950000000000000000000",
      "assetIds": [
        "35541503283276933796147438414694400616078274122459190822474961601238453471232",
        "35541503283276933796147438414694400616078274122459190822474961601238453471233",
        "35541503283276933796147438414694400616078274122459190822474961601238453471234",
        "35541503283276933796147438414694400616078274122459190822474961601238453471236"
      ]
    },
    {
      "x": 64,
      "y": 314,
      "size": 1,
      "price": "6950000000000000000000",
      "assetIds": [
        "35541503283276933796147438414694400616078274122459190822474961601238453471232",
        "35541503283276933796147438414694400616078274122459190822474961601238453471233",
        "35541503283276933796147438414694400616078274122459190822474961601238453471234",
        "35541503283276933796147438414694400616078274122459190822474961601238453471236"
      ]
    },
    {
      "x": 64,
      "y": 313,
      "size": 1,
      "price": "6950000000000000000000",
      "assetIds": [
        "35541503283276933796147438414694400616078274122459190822474961601238453471232",
        "35541503283276933796147438414694400616078274122459190822474961601238453471233",
        "35541503283276933796147438414694400616078274122459190822474961601238453471234",
        "35541503283276933796147438414694400616078274122459190822474961601238453471237"
      ]
    },
    {
      "x": 64,
      "y": 312,
      "size": 1,
      "price": "6950000000000000000000",
      "assetIds": [
        "35541503283276933796147438414694400616078274122459190822474961601238453471232",
        "35541503283276933796147438414694400616078274122459190822474961601238453471233",
        "35541503283276933796147438414694400616078274122459190822474961601238453471234",
        "35541503283276933796147438414694400616078274122459190822474961601238453471237"
      ]
    },
    {
      "x": 63,
      "y": 299,
      "size": 1,
      "price": "6950000000000000000000",
      "assetIds": [
        "35541503283276933796147438414694400616078274122459190822474961601238453471232",
        "35541503283276933796147438414694400616078274122459190822474961601238453471233",
        "35541503283276933796147438414694400616078274122459190822474961601238453471234",
        "35541503283276933796147438414694400616078274122459190822474961601238453471236"
      ]
    },
    {
      "x": 63,
      "y": 298,
      "size": 1,
      "price": "3000000000000000000000",
      "reserved": "0x7a9fe22691c811ea339d9b73150e6911a5343dca",
      "assetIds": []
    },
    {
      "x": 63,
      "y": 297,
      "size": 1,
      "price": "6950000000000000000000",
      "assetIds": [
        "35541503283276933796147438414694400616078274122459190822474961601238453471232",
        "35541503283276933796147438414694400616078274122459190822474961601238453471233",
        "35541503283276933796147438414694400616078274122459190822474961601238453471234",
        "35541503283276933796147438414694400616078274122459190822474961601238453471237"
      ]
    },
    {
      "x": 63,
      "y": 296,
      "size": 1,
      "price": "6950000000000000000000",
      "assetIds": [
        "35541503283276933796147438414694400616078274122459190822474961601238453471232",
        "35541503283276933796147438414694400616078274122459190822474961601238453471233",
        "35541503283276933796147438414694400616078274122459190822474961601238453471234",
        "35541503283276933796147438414694400616078274122459190822474961601238453471239"
      ]
    },
    {
      "x": 63,
      "y": 295,
      "size": 1,
      "price": "6950000000000000000000",
      "assetIds": [
        "35541503283276933796147438414694400616078274122459190822474961601238453471232",
        "35541503283276933796147438414694400616078274122459190822474961601238453471233",
        "35541503283276933796147438414694400616078274122459190822474961601238453471234",
        "35541503283276933796147438414694400616078274122459190822474961601238453471235"
      ]
    },
    {
      "x": 63,
      "y": 294,
      "size": 1,
      "price": "3000000000000000000000",
      "assetIds": []
    },
    {
      "x": 63,
      "y": 293,
      "size": 1,
      "price": "3000000000000000000000",
      "assetIds": []
    },
    {
      "x": 63,
      "y": 292,
      "size": 1,
      "price": "3000000000000000000000",
      "assetIds": []
    },
    {
      "x": 63,
      "y": 291,
      "size": 1,
      "price": "3000000000000000000000",
      "assetIds": []
    },
    {
      "x": 63,
      "y": 287,
      "size": 1,
      "price": "3000000000000000000000",
      "assetIds": []
    },
    {
      "x": 64,
      "y": 287,
      "size": 1,
      "price": "3000000000000000000000",
      "assetIds": []
    },
    {
      "x": 65,
      "y": 291,
      "size": 1,
      "price": "3000000000000000000000",
      "assetIds": []
    },
    {
      "x": 65,
      "y": 292,
      "size": 1,
      "price": "3000000000000000000000",
      "assetIds": []
    },
    {
      "x": 65,
      "y": 293,
      "size": 1,
      "price": "3000000000000000000000",
      "assetIds": []
    },
    {
      "x": 65,
      "y": 296,
      "size": 1,
      "price": "6950000000000000000000",
      "assetIds": [
        "35541503283276933796147438414694400616078274122459190822474961601238453471232",
        "35541503283276933796147438414694400616078274122459190822474961601238453471233",
        "35541503283276933796147438414694400616078274122459190822474961601238453471234",
        "35541503283276933796147438414694400616078274122459190822474961601238453471235"
      ]
    },
    {
      "x": 65,
      "y": 299,
      "size": 1,
      "price": "6950000000000000000000",
      "assetIds": [
        "35541503283276933796147438414694400616078274122459190822474961601238453471232",
        "35541503283276933796147438414694400616078274122459190822474961601238453471233",
        "35541503283276933796147438414694400616078274122459190822474961601238453471234",
        "35541503283276933796147438414694400616078274122459190822474961601238453471235"
      ]
    },
    {
      "x": 63,
      "y": 343,
      "size": 1,
      "price": "3000000000000000000000",
      "assetIds": []
    },
    {
      "x": 63,
      "y": 342,
      "size": 1,
      "price": "3000000000000000000000",
      "assetIds": []
    },
    {
      "x": 63,
      "y": 338,
      "size": 1,
      "price": "6950000000000000000000",
      "assetIds": [
        "35541503283276933796147438414694400616078274122459190822474961601238453471232",
        "35541503283276933796147438414694400616078274122459190822474961601238453471233",
        "35541503283276933796147438414694400616078274122459190822474961601238453471234",
        "35541503283276933796147438414694400616078274122459190822474961601238453471239"
      ]
    },
    {
      "x": 63,
      "y": 337,
      "size": 1,
      "price": "6950000000000000000000",
      "assetIds": [
        "35541503283276933796147438414694400616078274122459190822474961601238453471232",
        "35541503283276933796147438414694400616078274122459190822474961601238453471233",
        "35541503283276933796147438414694400616078274122459190822474961601238453471234",
        "35541503283276933796147438414694400616078274122459190822474961601238453471238"
      ]
    },
    {
      "x": 63,
      "y": 336,
      "size": 1,
      "price": "6950000000000000000000",
      "assetIds": [
        "35541503283276933796147438414694400616078274122459190822474961601238453471232",
        "35541503283276933796147438414694400616078274122459190822474961601238453471233",
        "35541503283276933796147438414694400616078274122459190822474961601238453471234",
        "35541503283276933796147438414694400616078274122459190822474961601238453471237"
      ]
    },
    {
      "x": 63,
      "y": 334,
      "size": 1,
      "price": "6950000000000000000000",
      "assetIds": [
        "35541503283276933796147438414694400616078274122459190822474961601238453471232",
        "35541503283276933796147438414694400616078274122459190822474961601238453471233",
        "35541503283276933796147438414694400616078274122459190822474961601238453471234",
        "35541503283276933796147438414694400616078274122459190822474961601238453471238"
      ]
    },
    {
      "x": 63,
      "y": 333,
      "size": 1,
      "price": "6950000000000000000000",
      "assetIds": [
        "35541503283276933796147438414694400616078274122459190822474961601238453471232",
        "35541503283276933796147438414694400616078274122459190822474961601238453471233",
        "35541503283276933796147438414694400616078274122459190822474961601238453471234",
        "35541503283276933796147438414694400616078274122459190822474961601238453471239"
      ]
    },
    {
      "x": 63,
      "y": 332,
      "size": 1,
      "price": "6950000000000000000000",
      "assetIds": [
        "35541503283276933796147438414694400616078274122459190822474961601238453471232",
        "35541503283276933796147438414694400616078274122459190822474961601238453471233",
        "35541503283276933796147438414694400616078274122459190822474961601238453471234",
        "35541503283276933796147438414694400616078274122459190822474961601238453471235"
      ]
    },
    {
      "x": 63,
      "y": 331,
      "size": 1,
      "price": "6950000000000000000000",
      "assetIds": [
        "35541503283276933796147438414694400616078274122459190822474961601238453471232",
        "35541503283276933796147438414694400616078274122459190822474961601238453471233",
        "35541503283276933796147438414694400616078274122459190822474961601238453471234",
        "35541503283276933796147438414694400616078274122459190822474961601238453471236"
      ]
    },
    {
      "x": 63,
      "y": 330,
      "size": 1,
      "price": "3000000000000000000000",
      "reserved": "0x7a9fe22691c811ea339d9b73150e6911a5343dca",
      "assetIds": []
    },
    {
      "x": 63,
      "y": 329,
      "size": 1,
      "price": "6950000000000000000000",
      "assetIds": [
        "35541503283276933796147438414694400616078274122459190822474961601238453471232",
        "35541503283276933796147438414694400616078274122459190822474961601238453471233",
        "35541503283276933796147438414694400616078274122459190822474961601238453471234",
        "35541503283276933796147438414694400616078274122459190822474961601238453471237"
      ]
    },
    {
      "x": 63,
      "y": 328,
      "size": 1,
      "price": "6950000000000000000000",
      "assetIds": [
        "35541503283276933796147438414694400616078274122459190822474961601238453471232",
        "35541503283276933796147438414694400616078274122459190822474961601238453471233",
        "35541503283276933796147438414694400616078274122459190822474961601238453471234",
        "35541503283276933796147438414694400616078274122459190822474961601238453471237"
      ]
    },
    {
      "x": 63,
      "y": 326,
      "size": 1,
      "price": "6950000000000000000000",
      "assetIds": [
        "35541503283276933796147438414694400616078274122459190822474961601238453471232",
        "35541503283276933796147438414694400616078274122459190822474961601238453471233",
        "35541503283276933796147438414694400616078274122459190822474961601238453471234",
        "35541503283276933796147438414694400616078274122459190822474961601238453471240"
      ]
    },
    {
      "x": 63,
      "y": 324,
      "size": 1,
      "price": "6950000000000000000000",
      "assetIds": [
        "35541503283276933796147438414694400616078274122459190822474961601238453471232",
        "35541503283276933796147438414694400616078274122459190822474961601238453471233",
        "35541503283276933796147438414694400616078274122459190822474961601238453471234",
        "35541503283276933796147438414694400616078274122459190822474961601238453471238"
      ]
    },
    {
      "x": 63,
      "y": 323,
      "size": 1,
      "price": "6950000000000000000000",
      "assetIds": [
        "35541503283276933796147438414694400616078274122459190822474961601238453471232",
        "35541503283276933796147438414694400616078274122459190822474961601238453471233",
        "35541503283276933796147438414694400616078274122459190822474961601238453471234",
        "35541503283276933796147438414694400616078274122459190822474961601238453471239"
      ]
    },
    {
      "x": 63,
      "y": 322,
      "size": 1,
      "price": "6950000000000000000000",
      "assetIds": [
        "35541503283276933796147438414694400616078274122459190822474961601238453471232",
        "35541503283276933796147438414694400616078274122459190822474961601238453471233",
        "35541503283276933796147438414694400616078274122459190822474961601238453471234",
        "35541503283276933796147438414694400616078274122459190822474961601238453471236"
      ]
    },
    {
      "x": 63,
      "y": 321,
      "size": 1,
      "price": "6950000000000000000000",
      "assetIds": [
        "35541503283276933796147438414694400616078274122459190822474961601238453471232",
        "35541503283276933796147438414694400616078274122459190822474961601238453471233",
        "35541503283276933796147438414694400616078274122459190822474961601238453471234",
        "35541503283276933796147438414694400616078274122459190822474961601238453471240"
      ]
    },
    {
      "x": 63,
      "y": 317,
      "size": 1,
      "price": "3000000000000000000000",
      "assetIds": []
    },
    {
      "x": 63,
      "y": 316,
      "size": 1,
      "price": "3000000000000000000000",
      "assetIds": []
    },
    {
      "x": 63,
      "y": 315,
      "size": 1,
      "price": "6950000000000000000000",
      "assetIds": [
        "35541503283276933796147438414694400616078274122459190822474961601238453471232",
        "35541503283276933796147438414694400616078274122459190822474961601238453471233",
        "35541503283276933796147438414694400616078274122459190822474961601238453471234",
        "35541503283276933796147438414694400616078274122459190822474961601238453471235"
      ]
    },
    {
      "x": 63,
      "y": 314,
      "size": 1,
      "price": "6950000000000000000000",
      "assetIds": [
        "35541503283276933796147438414694400616078274122459190822474961601238453471232",
        "35541503283276933796147438414694400616078274122459190822474961601238453471233",
        "35541503283276933796147438414694400616078274122459190822474961601238453471234",
        "35541503283276933796147438414694400616078274122459190822474961601238453471236"
      ]
    },
    {
      "x": 63,
      "y": 313,
      "size": 1,
      "price": "6950000000000000000000",
      "assetIds": [
        "35541503283276933796147438414694400616078274122459190822474961601238453471232",
        "35541503283276933796147438414694400616078274122459190822474961601238453471233",
        "35541503283276933796147438414694400616078274122459190822474961601238453471234",
        "35541503283276933796147438414694400616078274122459190822474961601238453471236"
      ]
    },
    {
      "x": 63,
      "y": 312,
      "size": 1,
      "price": "6950000000000000000000",
      "assetIds": [
        "35541503283276933796147438414694400616078274122459190822474961601238453471232",
        "35541503283276933796147438414694400616078274122459190822474961601238453471233",
        "35541503283276933796147438414694400616078274122459190822474961601238453471234",
        "35541503283276933796147438414694400616078274122459190822474961601238453471240"
      ]
    },
    {
      "x": 64,
      "y": 286,
      "size": 1,
      "price": "3000000000000000000000",
      "assetIds": []
    },
    {
      "x": 64,
      "y": 285,
      "size": 1,
      "price": "3000000000000000000000",
      "reserved": "0x7a9fe22691c811ea339d9b73150e6911a5343dca",
      "assetIds": []
    },
    {
      "x": 64,
      "y": 291,
      "size": 1,
      "price": "3000000000000000000000",
      "assetIds": []
    },
    {
      "x": 64,
      "y": 292,
      "size": 1,
      "price": "3000000000000000000000",
      "assetIds": []
    },
    {
      "x": 64,
      "y": 293,
      "size": 1,
      "price": "3000000000000000000000",
      "assetIds": []
    },
    {
      "x": 64,
      "y": 294,
      "size": 1,
      "price": "3000000000000000000000",
      "assetIds": []
    },
    {
      "x": 64,
      "y": 295,
      "size": 1,
      "price": "6950000000000000000000",
      "assetIds": [
        "35541503283276933796147438414694400616078274122459190822474961601238453471232",
        "35541503283276933796147438414694400616078274122459190822474961601238453471233",
        "35541503283276933796147438414694400616078274122459190822474961601238453471234",
        "35541503283276933796147438414694400616078274122459190822474961601238453471239"
      ]
    },
    {
      "x": 64,
      "y": 296,
      "size": 1,
      "price": "6950000000000000000000",
      "assetIds": [
        "35541503283276933796147438414694400616078274122459190822474961601238453471232",
        "35541503283276933796147438414694400616078274122459190822474961601238453471233",
        "35541503283276933796147438414694400616078274122459190822474961601238453471234",
        "35541503283276933796147438414694400616078274122459190822474961601238453471238"
      ]
    },
    {
      "x": 64,
      "y": 297,
      "size": 1,
      "price": "6950000000000000000000",
      "assetIds": [
        "35541503283276933796147438414694400616078274122459190822474961601238453471232",
        "35541503283276933796147438414694400616078274122459190822474961601238453471233",
        "35541503283276933796147438414694400616078274122459190822474961601238453471234",
        "35541503283276933796147438414694400616078274122459190822474961601238453471239"
      ]
    },
    {
      "x": 64,
      "y": 298,
      "size": 1,
      "price": "6950000000000000000000",
      "assetIds": [
        "35541503283276933796147438414694400616078274122459190822474961601238453471232",
        "35541503283276933796147438414694400616078274122459190822474961601238453471233",
        "35541503283276933796147438414694400616078274122459190822474961601238453471234",
        "35541503283276933796147438414694400616078274122459190822474961601238453471235"
      ]
    },
    {
      "x": 64,
      "y": 299,
      "size": 1,
      "price": "6950000000000000000000",
      "assetIds": [
        "35541503283276933796147438414694400616078274122459190822474961601238453471232",
        "35541503283276933796147438414694400616078274122459190822474961601238453471233",
        "35541503283276933796147438414694400616078274122459190822474961601238453471234",
        "35541503283276933796147438414694400616078274122459190822474961601238453471239"
      ]
    },
    {
      "x": 65,
      "y": 287,
      "size": 1,
      "price": "3000000000000000000000",
      "assetIds": []
    },
    {
      "x": 65,
      "y": 286,
      "size": 1,
      "price": "3000000000000000000000",
      "assetIds": []
    },
    {
      "x": 65,
      "y": 285,
      "size": 1,
      "price": "3000000000000000000000",
      "assetIds": []
    },
    {
      "x": 63,
      "y": 285,
      "size": 1,
      "price": "3000000000000000000000",
      "assetIds": []
    },
    {
      "x": 63,
      "y": 286,
      "size": 1,
      "price": "3000000000000000000000",
      "assetIds": []
    },
    {
      "x": 62,
      "y": 282,
      "size": 1,
      "price": "3000000000000000000000",
      "assetIds": []
    },
    {
      "x": 61,
      "y": 282,
      "size": 1,
      "price": "3000000000000000000000",
      "assetIds": []
    },
    {
      "x": 60,
      "y": 282,
      "size": 1,
      "price": "3000000000000000000000",
      "assetIds": []
    },
    {
      "x": 60,
      "y": 283,
      "size": 1,
      "price": "3000000000000000000000",
      "reserved": "0x7a9fe22691c811ea339d9b73150e6911a5343dca",
      "assetIds": []
    },
    {
      "x": 61,
      "y": 283,
      "size": 1,
      "price": "3000000000000000000000",
      "assetIds": []
    },
    {
      "x": 62,
      "y": 283,
      "size": 1,
      "price": "3000000000000000000000",
      "assetIds": []
    },
    {
      "x": 62,
      "y": 284,
      "size": 1,
      "price": "3000000000000000000000",
      "assetIds": []
    },
    {
      "x": 61,
      "y": 284,
      "size": 1,
      "price": "3000000000000000000000",
      "assetIds": []
    },
    {
      "x": 60,
      "y": 284,
      "size": 1,
      "price": "3000000000000000000000",
      "assetIds": []
    },
    {
      "x": 62,
      "y": 288,
      "size": 1,
      "price": "3000000000000000000000",
      "assetIds": []
    },
    {
      "x": 62,
      "y": 289,
      "size": 1,
      "price": "3000000000000000000000",
      "assetIds": []
    },
    {
      "x": 62,
      "y": 290,
      "size": 1,
      "price": "3000000000000000000000",
      "reserved": "0x7a9fe22691c811ea339d9b73150e6911a5343dca",
      "assetIds": []
    },
    {
      "x": 62,
      "y": 294,
      "size": 1,
      "price": "6950000000000000000000",
      "assetIds": [
        "35541503283276933796147438414694400616078274122459190822474961601238453471232",
        "35541503283276933796147438414694400616078274122459190822474961601238453471233",
        "35541503283276933796147438414694400616078274122459190822474961601238453471234",
        "35541503283276933796147438414694400616078274122459190822474961601238453471236"
      ]
    },
    {
      "x": 62,
      "y": 295,
      "size": 1,
      "price": "6950000000000000000000",
      "assetIds": [
        "35541503283276933796147438414694400616078274122459190822474961601238453471232",
        "35541503283276933796147438414694400616078274122459190822474961601238453471233",
        "35541503283276933796147438414694400616078274122459190822474961601238453471234",
        "35541503283276933796147438414694400616078274122459190822474961601238453471237"
      ]
    },
    {
      "x": 62,
      "y": 296,
      "size": 1,
      "price": "6950000000000000000000",
      "assetIds": [
        "35541503283276933796147438414694400616078274122459190822474961601238453471232",
        "35541503283276933796147438414694400616078274122459190822474961601238453471233",
        "35541503283276933796147438414694400616078274122459190822474961601238453471234",
        "35541503283276933796147438414694400616078274122459190822474961601238453471238"
      ]
    },
    {
      "x": 62,
      "y": 297,
      "size": 1,
      "price": "6950000000000000000000",
      "assetIds": [
        "35541503283276933796147438414694400616078274122459190822474961601238453471232",
        "35541503283276933796147438414694400616078274122459190822474961601238453471233",
        "35541503283276933796147438414694400616078274122459190822474961601238453471234",
        "35541503283276933796147438414694400616078274122459190822474961601238453471237"
      ]
    },
    {
      "x": 62,
      "y": 298,
      "size": 1,
      "price": "6950000000000000000000",
      "assetIds": [
        "35541503283276933796147438414694400616078274122459190822474961601238453471232",
        "35541503283276933796147438414694400616078274122459190822474961601238453471233",
        "35541503283276933796147438414694400616078274122459190822474961601238453471234",
        "35541503283276933796147438414694400616078274122459190822474961601238453471237"
      ]
    },
    {
      "x": 62,
      "y": 299,
      "size": 1,
      "price": "6950000000000000000000",
      "assetIds": [
        "35541503283276933796147438414694400616078274122459190822474961601238453471232",
        "35541503283276933796147438414694400616078274122459190822474961601238453471233",
        "35541503283276933796147438414694400616078274122459190822474961601238453471234",
        "35541503283276933796147438414694400616078274122459190822474961601238453471237"
      ]
    },
    {
      "x": 62,
      "y": 312,
      "size": 1,
      "price": "6950000000000000000000",
      "assetIds": [
        "35541503283276933796147438414694400616078274122459190822474961601238453471232",
        "35541503283276933796147438414694400616078274122459190822474961601238453471233",
        "35541503283276933796147438414694400616078274122459190822474961601238453471234",
        "35541503283276933796147438414694400616078274122459190822474961601238453471237"
      ]
    },
    {
      "x": 62,
      "y": 313,
      "size": 1,
      "price": "6950000000000000000000",
      "assetIds": [
        "35541503283276933796147438414694400616078274122459190822474961601238453471232",
        "35541503283276933796147438414694400616078274122459190822474961601238453471233",
        "35541503283276933796147438414694400616078274122459190822474961601238453471234",
        "35541503283276933796147438414694400616078274122459190822474961601238453471240"
      ]
    },
    {
      "x": 62,
      "y": 314,
      "size": 1,
      "price": "6950000000000000000000",
      "assetIds": [
        "35541503283276933796147438414694400616078274122459190822474961601238453471232",
        "35541503283276933796147438414694400616078274122459190822474961601238453471233",
        "35541503283276933796147438414694400616078274122459190822474961601238453471234",
        "35541503283276933796147438414694400616078274122459190822474961601238453471236"
      ]
    },
    {
      "x": 62,
      "y": 315,
      "size": 1,
      "price": "6950000000000000000000",
      "assetIds": [
        "35541503283276933796147438414694400616078274122459190822474961601238453471232",
        "35541503283276933796147438414694400616078274122459190822474961601238453471233",
        "35541503283276933796147438414694400616078274122459190822474961601238453471234",
        "35541503283276933796147438414694400616078274122459190822474961601238453471235"
      ]
    },
    {
      "x": 62,
      "y": 316,
      "size": 1,
      "price": "6950000000000000000000",
      "assetIds": [
        "35541503283276933796147438414694400616078274122459190822474961601238453471232",
        "35541503283276933796147438414694400616078274122459190822474961601238453471233",
        "35541503283276933796147438414694400616078274122459190822474961601238453471234",
        "35541503283276933796147438414694400616078274122459190822474961601238453471240"
      ]
    },
    {
      "x": 62,
      "y": 317,
      "size": 1,
      "price": "3000000000000000000000",
      "assetIds": []
    },
    {
      "x": 62,
      "y": 318,
      "size": 1,
      "price": "3000000000000000000000",
      "assetIds": []
    },
    {
      "x": 62,
      "y": 319,
      "size": 1,
      "price": "3000000000000000000000",
      "reserved": "0x7a9fe22691c811ea339d9b73150e6911a5343dca",
      "assetIds": []
    },
    {
      "x": 62,
      "y": 320,
      "size": 1,
      "price": "3000000000000000000000",
      "assetIds": []
    },
    {
      "x": 62,
      "y": 321,
      "size": 1,
      "price": "6950000000000000000000",
      "assetIds": [
        "35541503283276933796147438414694400616078274122459190822474961601238453471232",
        "35541503283276933796147438414694400616078274122459190822474961601238453471233",
        "35541503283276933796147438414694400616078274122459190822474961601238453471234",
        "35541503283276933796147438414694400616078274122459190822474961601238453471235"
      ]
    },
    {
      "x": 62,
      "y": 322,
      "size": 1,
      "price": "6950000000000000000000",
      "assetIds": [
        "35541503283276933796147438414694400616078274122459190822474961601238453471232",
        "35541503283276933796147438414694400616078274122459190822474961601238453471233",
        "35541503283276933796147438414694400616078274122459190822474961601238453471234",
        "35541503283276933796147438414694400616078274122459190822474961601238453471239"
      ]
    },
    {
      "x": 62,
      "y": 323,
      "size": 1,
      "price": "6950000000000000000000",
      "assetIds": [
        "35541503283276933796147438414694400616078274122459190822474961601238453471232",
        "35541503283276933796147438414694400616078274122459190822474961601238453471233",
        "35541503283276933796147438414694400616078274122459190822474961601238453471234",
        "35541503283276933796147438414694400616078274122459190822474961601238453471237"
      ]
    },
    {
      "x": 62,
      "y": 324,
      "size": 1,
      "price": "6950000000000000000000",
      "assetIds": [
        "35541503283276933796147438414694400616078274122459190822474961601238453471232",
        "35541503283276933796147438414694400616078274122459190822474961601238453471233",
        "35541503283276933796147438414694400616078274122459190822474961601238453471234",
        "35541503283276933796147438414694400616078274122459190822474961601238453471240"
      ]
    },
    {
      "x": 62,
      "y": 325,
      "size": 1,
      "price": "6950000000000000000000",
      "assetIds": [
        "35541503283276933796147438414694400616078274122459190822474961601238453471232",
        "35541503283276933796147438414694400616078274122459190822474961601238453471233",
        "35541503283276933796147438414694400616078274122459190822474961601238453471234",
        "35541503283276933796147438414694400616078274122459190822474961601238453471240"
      ]
    },
    {
      "x": 62,
      "y": 326,
      "size": 1,
      "price": "3000000000000000000000",
      "reserved": "0x7a9fe22691c811ea339d9b73150e6911a5343dca",
      "assetIds": []
    },
    {
      "x": 62,
      "y": 327,
      "size": 1,
      "price": "6950000000000000000000",
      "assetIds": [
        "35541503283276933796147438414694400616078274122459190822474961601238453471232",
        "35541503283276933796147438414694400616078274122459190822474961601238453471233",
        "35541503283276933796147438414694400616078274122459190822474961601238453471234",
        "35541503283276933796147438414694400616078274122459190822474961601238453471237"
      ]
    },
    {
      "x": 62,
      "y": 328,
      "size": 1,
      "price": "6950000000000000000000",
      "assetIds": [
        "35541503283276933796147438414694400616078274122459190822474961601238453471232",
        "35541503283276933796147438414694400616078274122459190822474961601238453471233",
        "35541503283276933796147438414694400616078274122459190822474961601238453471234",
        "35541503283276933796147438414694400616078274122459190822474961601238453471239"
      ]
    },
    {
      "x": 62,
      "y": 329,
      "size": 1,
      "price": "6950000000000000000000",
      "assetIds": [
        "35541503283276933796147438414694400616078274122459190822474961601238453471232",
        "35541503283276933796147438414694400616078274122459190822474961601238453471233",
        "35541503283276933796147438414694400616078274122459190822474961601238453471234",
        "35541503283276933796147438414694400616078274122459190822474961601238453471239"
      ]
    },
    {
      "x": 62,
      "y": 330,
      "size": 1,
      "price": "6950000000000000000000",
      "assetIds": [
        "35541503283276933796147438414694400616078274122459190822474961601238453471232",
        "35541503283276933796147438414694400616078274122459190822474961601238453471233",
        "35541503283276933796147438414694400616078274122459190822474961601238453471234",
        "35541503283276933796147438414694400616078274122459190822474961601238453471236"
      ]
    },
    {
      "x": 62,
      "y": 331,
      "size": 1,
      "price": "6950000000000000000000",
      "assetIds": [
        "35541503283276933796147438414694400616078274122459190822474961601238453471232",
        "35541503283276933796147438414694400616078274122459190822474961601238453471233",
        "35541503283276933796147438414694400616078274122459190822474961601238453471234",
        "35541503283276933796147438414694400616078274122459190822474961601238453471239"
      ]
    },
    {
      "x": 62,
      "y": 332,
      "size": 1,
      "price": "6950000000000000000000",
      "assetIds": [
        "35541503283276933796147438414694400616078274122459190822474961601238453471232",
        "35541503283276933796147438414694400616078274122459190822474961601238453471233",
        "35541503283276933796147438414694400616078274122459190822474961601238453471234",
        "35541503283276933796147438414694400616078274122459190822474961601238453471237"
      ]
    },
    {
      "x": 62,
      "y": 333,
      "size": 1,
      "price": "6950000000000000000000",
      "assetIds": [
        "35541503283276933796147438414694400616078274122459190822474961601238453471232",
        "35541503283276933796147438414694400616078274122459190822474961601238453471233",
        "35541503283276933796147438414694400616078274122459190822474961601238453471234",
        "35541503283276933796147438414694400616078274122459190822474961601238453471240"
      ]
    },
    {
      "x": 62,
      "y": 334,
      "size": 1,
      "price": "6950000000000000000000",
      "assetIds": [
        "35541503283276933796147438414694400616078274122459190822474961601238453471232",
        "35541503283276933796147438414694400616078274122459190822474961601238453471233",
        "35541503283276933796147438414694400616078274122459190822474961601238453471234",
        "35541503283276933796147438414694400616078274122459190822474961601238453471238"
      ]
    },
    {
      "x": 62,
      "y": 336,
      "size": 1,
      "price": "6950000000000000000000",
      "assetIds": [
        "35541503283276933796147438414694400616078274122459190822474961601238453471232",
        "35541503283276933796147438414694400616078274122459190822474961601238453471233",
        "35541503283276933796147438414694400616078274122459190822474961601238453471234",
        "35541503283276933796147438414694400616078274122459190822474961601238453471237"
      ]
    },
    {
      "x": 62,
      "y": 337,
      "size": 1,
      "price": "6950000000000000000000",
      "assetIds": [
        "35541503283276933796147438414694400616078274122459190822474961601238453471232",
        "35541503283276933796147438414694400616078274122459190822474961601238453471233",
        "35541503283276933796147438414694400616078274122459190822474961601238453471234",
        "35541503283276933796147438414694400616078274122459190822474961601238453471238"
      ]
    },
    {
      "x": 62,
      "y": 338,
      "size": 1,
      "price": "6950000000000000000000",
      "assetIds": [
        "35541503283276933796147438414694400616078274122459190822474961601238453471232",
        "35541503283276933796147438414694400616078274122459190822474961601238453471233",
        "35541503283276933796147438414694400616078274122459190822474961601238453471234",
        "35541503283276933796147438414694400616078274122459190822474961601238453471236"
      ]
    },
    {
      "x": 62,
      "y": 339,
      "size": 1,
      "price": "6950000000000000000000",
      "assetIds": [
        "35541503283276933796147438414694400616078274122459190822474961601238453471232",
        "35541503283276933796147438414694400616078274122459190822474961601238453471233",
        "35541503283276933796147438414694400616078274122459190822474961601238453471234",
        "35541503283276933796147438414694400616078274122459190822474961601238453471240"
      ]
    },
    {
      "x": 61,
      "y": 340,
      "size": 1,
      "price": "6950000000000000000000",
      "assetIds": [
        "35541503283276933796147438414694400616078274122459190822474961601238453471232",
        "35541503283276933796147438414694400616078274122459190822474961601238453471233",
        "35541503283276933796147438414694400616078274122459190822474961601238453471234",
        "35541503283276933796147438414694400616078274122459190822474961601238453471235"
      ]
    },
    {
      "x": 62,
      "y": 341,
      "size": 1,
      "price": "3000000000000000000000",
      "assetIds": []
    },
    {
      "x": 63,
      "y": 344,
      "size": 1,
      "price": "3000000000000000000000",
      "assetIds": []
    },
    {
      "x": 61,
      "y": 341,
      "size": 1,
      "price": "3000000000000000000000",
      "assetIds": []
    },
    {
      "x": 61,
      "y": 338,
      "size": 1,
      "price": "3000000000000000000000",
      "reserved": "0x7a9fe22691c811ea339d9b73150e6911a5343dca",
      "assetIds": []
    },
    {
      "x": 61,
      "y": 337,
      "size": 1,
      "price": "6950000000000000000000",
      "assetIds": [
        "35541503283276933796147438414694400616078274122459190822474961601238453471232",
        "35541503283276933796147438414694400616078274122459190822474961601238453471233",
        "35541503283276933796147438414694400616078274122459190822474961601238453471234",
        "35541503283276933796147438414694400616078274122459190822474961601238453471237"
      ]
    },
    {
      "x": 61,
      "y": 336,
      "size": 1,
      "price": "6950000000000000000000",
      "assetIds": [
        "35541503283276933796147438414694400616078274122459190822474961601238453471232",
        "35541503283276933796147438414694400616078274122459190822474961601238453471233",
        "35541503283276933796147438414694400616078274122459190822474961601238453471234",
        "35541503283276933796147438414694400616078274122459190822474961601238453471237"
      ]
    },
    {
      "x": 61,
      "y": 334,
      "size": 1,
      "price": "6950000000000000000000",
      "assetIds": [
        "35541503283276933796147438414694400616078274122459190822474961601238453471232",
        "35541503283276933796147438414694400616078274122459190822474961601238453471233",
        "35541503283276933796147438414694400616078274122459190822474961601238453471234",
        "35541503283276933796147438414694400616078274122459190822474961601238453471238"
      ]
    },
    {
      "x": 61,
      "y": 333,
      "size": 1,
      "price": "6950000000000000000000",
      "assetIds": [
        "35541503283276933796147438414694400616078274122459190822474961601238453471232",
        "35541503283276933796147438414694400616078274122459190822474961601238453471233",
        "35541503283276933796147438414694400616078274122459190822474961601238453471234",
        "35541503283276933796147438414694400616078274122459190822474961601238453471238"
      ]
    },
    {
      "x": 61,
      "y": 332,
      "size": 1,
      "price": "6950000000000000000000",
      "assetIds": [
        "35541503283276933796147438414694400616078274122459190822474961601238453471232",
        "35541503283276933796147438414694400616078274122459190822474961601238453471233",
        "35541503283276933796147438414694400616078274122459190822474961601238453471234",
        "35541503283276933796147438414694400616078274122459190822474961601238453471238"
      ]
    },
    {
      "x": 61,
      "y": 331,
      "size": 1,
      "price": "6950000000000000000000",
      "assetIds": [
        "35541503283276933796147438414694400616078274122459190822474961601238453471232",
        "35541503283276933796147438414694400616078274122459190822474961601238453471233",
        "35541503283276933796147438414694400616078274122459190822474961601238453471234",
        "35541503283276933796147438414694400616078274122459190822474961601238453471239"
      ]
    },
    {
      "x": 61,
      "y": 330,
      "size": 1,
      "price": "6950000000000000000000",
      "assetIds": [
        "35541503283276933796147438414694400616078274122459190822474961601238453471232",
        "35541503283276933796147438414694400616078274122459190822474961601238453471233",
        "35541503283276933796147438414694400616078274122459190822474961601238453471234",
        "35541503283276933796147438414694400616078274122459190822474961601238453471236"
      ]
    },
    {
      "x": 61,
      "y": 329,
      "size": 1,
      "price": "6950000000000000000000",
      "assetIds": [
        "35541503283276933796147438414694400616078274122459190822474961601238453471232",
        "35541503283276933796147438414694400616078274122459190822474961601238453471233",
        "35541503283276933796147438414694400616078274122459190822474961601238453471234",
        "35541503283276933796147438414694400616078274122459190822474961601238453471238"
      ]
    },
    {
      "x": 61,
      "y": 328,
      "size": 1,
      "price": "6950000000000000000000",
      "assetIds": [
        "35541503283276933796147438414694400616078274122459190822474961601238453471232",
        "35541503283276933796147438414694400616078274122459190822474961601238453471233",
        "35541503283276933796147438414694400616078274122459190822474961601238453471234",
        "35541503283276933796147438414694400616078274122459190822474961601238453471235"
      ]
    },
    {
      "x": 61,
      "y": 327,
      "size": 1,
      "price": "6950000000000000000000",
      "assetIds": [
        "35541503283276933796147438414694400616078274122459190822474961601238453471232",
        "35541503283276933796147438414694400616078274122459190822474961601238453471233",
        "35541503283276933796147438414694400616078274122459190822474961601238453471234",
        "35541503283276933796147438414694400616078274122459190822474961601238453471236"
      ]
    },
    {
      "x": 61,
      "y": 326,
      "size": 1,
      "price": "6950000000000000000000",
      "assetIds": [
        "35541503283276933796147438414694400616078274122459190822474961601238453471232",
        "35541503283276933796147438414694400616078274122459190822474961601238453471233",
        "35541503283276933796147438414694400616078274122459190822474961601238453471234",
        "35541503283276933796147438414694400616078274122459190822474961601238453471235"
      ]
    },
    {
      "x": 61,
      "y": 325,
      "size": 1,
      "price": "6950000000000000000000",
      "assetIds": [
        "35541503283276933796147438414694400616078274122459190822474961601238453471232",
        "35541503283276933796147438414694400616078274122459190822474961601238453471233",
        "35541503283276933796147438414694400616078274122459190822474961601238453471234",
        "35541503283276933796147438414694400616078274122459190822474961601238453471240"
      ]
    },
    {
      "x": 61,
      "y": 324,
      "size": 1,
      "price": "6950000000000000000000",
      "assetIds": [
        "35541503283276933796147438414694400616078274122459190822474961601238453471232",
        "35541503283276933796147438414694400616078274122459190822474961601238453471233",
        "35541503283276933796147438414694400616078274122459190822474961601238453471234",
        "35541503283276933796147438414694400616078274122459190822474961601238453471235"
      ]
    },
    {
      "x": 61,
      "y": 323,
      "size": 1,
      "price": "6950000000000000000000",
      "assetIds": [
        "35541503283276933796147438414694400616078274122459190822474961601238453471232",
        "35541503283276933796147438414694400616078274122459190822474961601238453471233",
        "35541503283276933796147438414694400616078274122459190822474961601238453471234",
        "35541503283276933796147438414694400616078274122459190822474961601238453471235"
      ]
    },
    {
      "x": 61,
      "y": 322,
      "size": 1,
      "price": "3000000000000000000000",
      "reserved": "0x7a9fe22691c811ea339d9b73150e6911a5343dca",
      "assetIds": []
    },
    {
      "x": 61,
      "y": 321,
      "size": 1,
      "price": "6950000000000000000000",
      "assetIds": [
        "35541503283276933796147438414694400616078274122459190822474961601238453471232",
        "35541503283276933796147438414694400616078274122459190822474961601238453471233",
        "35541503283276933796147438414694400616078274122459190822474961601238453471234",
        "35541503283276933796147438414694400616078274122459190822474961601238453471237"
      ]
    },
    {
      "x": 61,
      "y": 320,
      "size": 1,
      "price": "6950000000000000000000",
      "assetIds": [
        "35541503283276933796147438414694400616078274122459190822474961601238453471232",
        "35541503283276933796147438414694400616078274122459190822474961601238453471233",
        "35541503283276933796147438414694400616078274122459190822474961601238453471234",
        "35541503283276933796147438414694400616078274122459190822474961601238453471235"
      ]
    },
    {
      "x": 61,
      "y": 319,
      "size": 1,
      "price": "3000000000000000000000",
      "assetIds": []
    },
    {
      "x": 61,
      "y": 318,
      "size": 1,
      "price": "3000000000000000000000",
      "assetIds": []
    },
    {
      "x": 61,
      "y": 317,
      "size": 1,
      "price": "3000000000000000000000",
      "assetIds": []
    },
    {
      "x": 61,
      "y": 316,
      "size": 1,
      "price": "6950000000000000000000",
      "assetIds": [
        "35541503283276933796147438414694400616078274122459190822474961601238453471232",
        "35541503283276933796147438414694400616078274122459190822474961601238453471233",
        "35541503283276933796147438414694400616078274122459190822474961601238453471234",
        "35541503283276933796147438414694400616078274122459190822474961601238453471239"
      ]
    },
    {
      "x": 61,
      "y": 315,
      "size": 1,
      "price": "3000000000000000000000",
      "reserved": "0x7a9fe22691c811ea339d9b73150e6911a5343dca",
      "assetIds": []
    },
    {
      "x": 61,
      "y": 314,
      "size": 1,
      "price": "6950000000000000000000",
      "assetIds": [
        "35541503283276933796147438414694400616078274122459190822474961601238453471232",
        "35541503283276933796147438414694400616078274122459190822474961601238453471233",
        "35541503283276933796147438414694400616078274122459190822474961601238453471234",
        "35541503283276933796147438414694400616078274122459190822474961601238453471238"
      ]
    },
    {
      "x": 61,
      "y": 313,
      "size": 1,
      "price": "6950000000000000000000",
      "assetIds": [
        "35541503283276933796147438414694400616078274122459190822474961601238453471232",
        "35541503283276933796147438414694400616078274122459190822474961601238453471233",
        "35541503283276933796147438414694400616078274122459190822474961601238453471234",
        "35541503283276933796147438414694400616078274122459190822474961601238453471238"
      ]
    },
    {
      "x": 61,
      "y": 312,
      "size": 1,
      "price": "6950000000000000000000",
      "assetIds": [
        "35541503283276933796147438414694400616078274122459190822474961601238453471232",
        "35541503283276933796147438414694400616078274122459190822474961601238453471233",
        "35541503283276933796147438414694400616078274122459190822474961601238453471234",
        "35541503283276933796147438414694400616078274122459190822474961601238453471239"
      ]
    },
    {
      "x": 61,
      "y": 299,
      "size": 1,
      "price": "6950000000000000000000",
      "assetIds": [
        "35541503283276933796147438414694400616078274122459190822474961601238453471232",
        "35541503283276933796147438414694400616078274122459190822474961601238453471233",
        "35541503283276933796147438414694400616078274122459190822474961601238453471234",
        "35541503283276933796147438414694400616078274122459190822474961601238453471235"
      ]
    },
    {
      "x": 61,
      "y": 298,
      "size": 1,
      "price": "6950000000000000000000",
      "assetIds": [
        "35541503283276933796147438414694400616078274122459190822474961601238453471232",
        "35541503283276933796147438414694400616078274122459190822474961601238453471233",
        "35541503283276933796147438414694400616078274122459190822474961601238453471234",
        "35541503283276933796147438414694400616078274122459190822474961601238453471240"
      ]
    },
    {
      "x": 61,
      "y": 297,
      "size": 1,
      "price": "6950000000000000000000",
      "assetIds": [
        "35541503283276933796147438414694400616078274122459190822474961601238453471232",
        "35541503283276933796147438414694400616078274122459190822474961601238453471233",
        "35541503283276933796147438414694400616078274122459190822474961601238453471234",
        "35541503283276933796147438414694400616078274122459190822474961601238453471240"
      ]
    },
    {
      "x": 61,
      "y": 296,
      "size": 1,
      "price": "6950000000000000000000",
      "assetIds": [
        "35541503283276933796147438414694400616078274122459190822474961601238453471232",
        "35541503283276933796147438414694400616078274122459190822474961601238453471233",
        "35541503283276933796147438414694400616078274122459190822474961601238453471234",
        "35541503283276933796147438414694400616078274122459190822474961601238453471240"
      ]
    },
    {
      "x": 61,
      "y": 295,
      "size": 1,
      "price": "6950000000000000000000",
      "assetIds": [
        "35541503283276933796147438414694400616078274122459190822474961601238453471232",
        "35541503283276933796147438414694400616078274122459190822474961601238453471233",
        "35541503283276933796147438414694400616078274122459190822474961601238453471234",
        "35541503283276933796147438414694400616078274122459190822474961601238453471240"
      ]
    },
    {
      "x": 61,
      "y": 294,
      "size": 1,
      "price": "3000000000000000000000",
      "assetIds": []
    },
    {
      "x": 61,
      "y": 290,
      "size": 1,
      "price": "3000000000000000000000",
      "assetIds": []
    },
    {
      "x": 61,
      "y": 289,
      "size": 1,
      "price": "3000000000000000000000",
      "assetIds": []
    },
    {
      "x": 61,
      "y": 288,
      "size": 1,
      "price": "3000000000000000000000",
      "assetIds": []
    },
    {
      "x": 60,
      "y": 288,
      "size": 1,
      "price": "3000000000000000000000",
      "assetIds": []
    },
    {
      "x": 60,
      "y": 289,
      "size": 1,
      "price": "3000000000000000000000",
      "assetIds": []
    },
    {
      "x": 60,
      "y": 290,
      "size": 1,
      "price": "3000000000000000000000",
      "assetIds": []
    },
    {
      "x": 60,
      "y": 294,
      "size": 1,
      "price": "3000000000000000000000",
      "assetIds": []
    },
    {
      "x": 60,
      "y": 295,
      "size": 1,
      "price": "3000000000000000000000",
      "reserved": "0x7a9fe22691c811ea339d9b73150e6911a5343dca",
      "assetIds": []
    },
    {
      "x": 60,
      "y": 296,
      "size": 1,
      "price": "6950000000000000000000",
      "assetIds": [
        "35541503283276933796147438414694400616078274122459190822474961601238453471232",
        "35541503283276933796147438414694400616078274122459190822474961601238453471233",
        "35541503283276933796147438414694400616078274122459190822474961601238453471234",
        "35541503283276933796147438414694400616078274122459190822474961601238453471235"
      ]
    },
    {
      "x": 60,
      "y": 297,
      "size": 1,
      "price": "6950000000000000000000",
      "assetIds": [
        "35541503283276933796147438414694400616078274122459190822474961601238453471232",
        "35541503283276933796147438414694400616078274122459190822474961601238453471233",
        "35541503283276933796147438414694400616078274122459190822474961601238453471234",
        "35541503283276933796147438414694400616078274122459190822474961601238453471240"
      ]
    },
    {
      "x": 60,
      "y": 298,
      "size": 1,
      "price": "6950000000000000000000",
      "assetIds": [
        "35541503283276933796147438414694400616078274122459190822474961601238453471232",
        "35541503283276933796147438414694400616078274122459190822474961601238453471233",
        "35541503283276933796147438414694400616078274122459190822474961601238453471234",
        "35541503283276933796147438414694400616078274122459190822474961601238453471239"
      ]
    },
    {
      "x": 60,
      "y": 299,
      "size": 1,
      "price": "6950000000000000000000",
      "assetIds": [
        "35541503283276933796147438414694400616078274122459190822474961601238453471232",
        "35541503283276933796147438414694400616078274122459190822474961601238453471233",
        "35541503283276933796147438414694400616078274122459190822474961601238453471234",
        "35541503283276933796147438414694400616078274122459190822474961601238453471237"
      ]
    },
    {
      "x": 60,
      "y": 312,
      "size": 1,
      "price": "6950000000000000000000",
      "assetIds": [
        "35541503283276933796147438414694400616078274122459190822474961601238453471232",
        "35541503283276933796147438414694400616078274122459190822474961601238453471233",
        "35541503283276933796147438414694400616078274122459190822474961601238453471234",
        "35541503283276933796147438414694400616078274122459190822474961601238453471239"
      ]
    },
    {
      "x": 60,
      "y": 313,
      "size": 1,
      "price": "6950000000000000000000",
      "assetIds": [
        "35541503283276933796147438414694400616078274122459190822474961601238453471232",
        "35541503283276933796147438414694400616078274122459190822474961601238453471233",
        "35541503283276933796147438414694400616078274122459190822474961601238453471234",
        "35541503283276933796147438414694400616078274122459190822474961601238453471237"
      ]
    },
    {
      "x": 60,
      "y": 314,
      "size": 1,
      "price": "6950000000000000000000",
      "assetIds": [
        "35541503283276933796147438414694400616078274122459190822474961601238453471232",
        "35541503283276933796147438414694400616078274122459190822474961601238453471233",
        "35541503283276933796147438414694400616078274122459190822474961601238453471234",
        "35541503283276933796147438414694400616078274122459190822474961601238453471240"
      ]
    },
    {
      "x": 60,
      "y": 315,
      "size": 1,
      "price": "6950000000000000000000",
      "assetIds": [
        "35541503283276933796147438414694400616078274122459190822474961601238453471232",
        "35541503283276933796147438414694400616078274122459190822474961601238453471233",
        "35541503283276933796147438414694400616078274122459190822474961601238453471234",
        "35541503283276933796147438414694400616078274122459190822474961601238453471238"
      ]
    },
    {
      "x": 60,
      "y": 316,
      "size": 1,
      "price": "6950000000000000000000",
      "assetIds": [
        "35541503283276933796147438414694400616078274122459190822474961601238453471232",
        "35541503283276933796147438414694400616078274122459190822474961601238453471233",
        "35541503283276933796147438414694400616078274122459190822474961601238453471234",
        "35541503283276933796147438414694400616078274122459190822474961601238453471238"
      ]
    },
    {
      "x": 60,
      "y": 317,
      "size": 1,
      "price": "3000000000000000000000",
      "assetIds": []
    },
    {
      "x": 60,
      "y": 318,
      "size": 1,
      "price": "3000000000000000000000",
      "assetIds": []
    },
    {
      "x": 60,
      "y": 319,
      "size": 1,
      "price": "6950000000000000000000",
      "assetIds": [
        "35541503283276933796147438414694400616078274122459190822474961601238453471232",
        "35541503283276933796147438414694400616078274122459190822474961601238453471233",
        "35541503283276933796147438414694400616078274122459190822474961601238453471234",
        "35541503283276933796147438414694400616078274122459190822474961601238453471240"
      ]
    },
    {
      "x": 60,
      "y": 320,
      "size": 1,
      "price": "6950000000000000000000",
      "assetIds": [
        "35541503283276933796147438414694400616078274122459190822474961601238453471232",
        "35541503283276933796147438414694400616078274122459190822474961601238453471233",
        "35541503283276933796147438414694400616078274122459190822474961601238453471234",
        "35541503283276933796147438414694400616078274122459190822474961601238453471238"
      ]
    },
    {
      "x": 60,
      "y": 321,
      "size": 1,
      "price": "6950000000000000000000",
      "assetIds": [
        "35541503283276933796147438414694400616078274122459190822474961601238453471232",
        "35541503283276933796147438414694400616078274122459190822474961601238453471233",
        "35541503283276933796147438414694400616078274122459190822474961601238453471234",
        "35541503283276933796147438414694400616078274122459190822474961601238453471236"
      ]
    },
    {
      "x": 60,
      "y": 322,
      "size": 1,
      "price": "6950000000000000000000",
      "assetIds": [
        "35541503283276933796147438414694400616078274122459190822474961601238453471232",
        "35541503283276933796147438414694400616078274122459190822474961601238453471233",
        "35541503283276933796147438414694400616078274122459190822474961601238453471234",
        "35541503283276933796147438414694400616078274122459190822474961601238453471237"
      ]
    },
    {
      "x": 60,
      "y": 323,
      "size": 1,
      "price": "6950000000000000000000",
      "assetIds": [
        "35541503283276933796147438414694400616078274122459190822474961601238453471232",
        "35541503283276933796147438414694400616078274122459190822474961601238453471233",
        "35541503283276933796147438414694400616078274122459190822474961601238453471234",
        "35541503283276933796147438414694400616078274122459190822474961601238453471237"
      ]
    },
    {
      "x": 60,
      "y": 324,
      "size": 1,
      "price": "6950000000000000000000",
      "assetIds": [
        "35541503283276933796147438414694400616078274122459190822474961601238453471232",
        "35541503283276933796147438414694400616078274122459190822474961601238453471233",
        "35541503283276933796147438414694400616078274122459190822474961601238453471234",
        "35541503283276933796147438414694400616078274122459190822474961601238453471239"
      ]
    },
    {
      "x": 60,
      "y": 325,
      "size": 1,
      "price": "6950000000000000000000",
      "assetIds": [
        "35541503283276933796147438414694400616078274122459190822474961601238453471232",
        "35541503283276933796147438414694400616078274122459190822474961601238453471233",
        "35541503283276933796147438414694400616078274122459190822474961601238453471234",
        "35541503283276933796147438414694400616078274122459190822474961601238453471239"
      ]
    },
    {
      "x": 60,
      "y": 326,
      "size": 1,
      "price": "6950000000000000000000",
      "assetIds": [
        "35541503283276933796147438414694400616078274122459190822474961601238453471232",
        "35541503283276933796147438414694400616078274122459190822474961601238453471233",
        "35541503283276933796147438414694400616078274122459190822474961601238453471234",
        "35541503283276933796147438414694400616078274122459190822474961601238453471240"
      ]
    },
    {
      "x": 60,
      "y": 327,
      "size": 1,
      "price": "6950000000000000000000",
      "assetIds": [
        "35541503283276933796147438414694400616078274122459190822474961601238453471232",
        "35541503283276933796147438414694400616078274122459190822474961601238453471233",
        "35541503283276933796147438414694400616078274122459190822474961601238453471234",
        "35541503283276933796147438414694400616078274122459190822474961601238453471235"
      ]
    },
    {
      "x": 60,
      "y": 328,
      "size": 1,
      "price": "6950000000000000000000",
      "assetIds": [
        "35541503283276933796147438414694400616078274122459190822474961601238453471232",
        "35541503283276933796147438414694400616078274122459190822474961601238453471233",
        "35541503283276933796147438414694400616078274122459190822474961601238453471234",
        "35541503283276933796147438414694400616078274122459190822474961601238453471238"
      ]
    },
    {
      "x": 60,
      "y": 329,
      "size": 1,
      "price": "6950000000000000000000",
      "assetIds": [
        "35541503283276933796147438414694400616078274122459190822474961601238453471232",
        "35541503283276933796147438414694400616078274122459190822474961601238453471233",
        "35541503283276933796147438414694400616078274122459190822474961601238453471234",
        "35541503283276933796147438414694400616078274122459190822474961601238453471240"
      ]
    },
    {
      "x": 60,
      "y": 330,
      "size": 1,
      "price": "6950000000000000000000",
      "assetIds": [
        "35541503283276933796147438414694400616078274122459190822474961601238453471232",
        "35541503283276933796147438414694400616078274122459190822474961601238453471233",
        "35541503283276933796147438414694400616078274122459190822474961601238453471234",
        "35541503283276933796147438414694400616078274122459190822474961601238453471237"
      ]
    },
    {
      "x": 60,
      "y": 331,
      "size": 1,
      "price": "6950000000000000000000",
      "assetIds": [
        "35541503283276933796147438414694400616078274122459190822474961601238453471232",
        "35541503283276933796147438414694400616078274122459190822474961601238453471233",
        "35541503283276933796147438414694400616078274122459190822474961601238453471234",
        "35541503283276933796147438414694400616078274122459190822474961601238453471240"
      ]
    },
    {
      "x": 60,
      "y": 332,
      "size": 1,
      "price": "6950000000000000000000",
      "assetIds": [
        "35541503283276933796147438414694400616078274122459190822474961601238453471232",
        "35541503283276933796147438414694400616078274122459190822474961601238453471233",
        "35541503283276933796147438414694400616078274122459190822474961601238453471234",
        "35541503283276933796147438414694400616078274122459190822474961601238453471239"
      ]
    },
    {
      "x": 60,
      "y": 333,
      "size": 1,
      "price": "6950000000000000000000",
      "assetIds": [
        "35541503283276933796147438414694400616078274122459190822474961601238453471232",
        "35541503283276933796147438414694400616078274122459190822474961601238453471233",
        "35541503283276933796147438414694400616078274122459190822474961601238453471234",
        "35541503283276933796147438414694400616078274122459190822474961601238453471237"
      ]
    },
    {
      "x": 60,
      "y": 334,
      "size": 1,
      "price": "6950000000000000000000",
      "assetIds": [
        "35541503283276933796147438414694400616078274122459190822474961601238453471232",
        "35541503283276933796147438414694400616078274122459190822474961601238453471233",
        "35541503283276933796147438414694400616078274122459190822474961601238453471234",
        "35541503283276933796147438414694400616078274122459190822474961601238453471239"
      ]
    },
    {
      "x": 60,
      "y": 336,
      "size": 1,
      "price": "6950000000000000000000",
      "assetIds": [
        "35541503283276933796147438414694400616078274122459190822474961601238453471232",
        "35541503283276933796147438414694400616078274122459190822474961601238453471233",
        "35541503283276933796147438414694400616078274122459190822474961601238453471234",
        "35541503283276933796147438414694400616078274122459190822474961601238453471239"
      ]
    },
    {
      "x": 60,
      "y": 337,
      "size": 1,
      "price": "6950000000000000000000",
      "assetIds": [
        "35541503283276933796147438414694400616078274122459190822474961601238453471232",
        "35541503283276933796147438414694400616078274122459190822474961601238453471233",
        "35541503283276933796147438414694400616078274122459190822474961601238453471234",
        "35541503283276933796147438414694400616078274122459190822474961601238453471238"
      ]
    },
    {
      "x": 60,
      "y": 340,
      "size": 1,
      "price": "6950000000000000000000",
      "assetIds": [
        "35541503283276933796147438414694400616078274122459190822474961601238453471232",
        "35541503283276933796147438414694400616078274122459190822474961601238453471233",
        "35541503283276933796147438414694400616078274122459190822474961601238453471234",
        "35541503283276933796147438414694400616078274122459190822474961601238453471239"
      ]
    },
    {
      "x": 60,
      "y": 341,
      "size": 1,
      "price": "6950000000000000000000",
      "assetIds": [
        "35541503283276933796147438414694400616078274122459190822474961601238453471232",
        "35541503283276933796147438414694400616078274122459190822474961601238453471233",
        "35541503283276933796147438414694400616078274122459190822474961601238453471234",
        "35541503283276933796147438414694400616078274122459190822474961601238453471238"
      ]
    },
    {
      "x": 59,
      "y": 323,
      "size": 1,
      "price": "6950000000000000000000",
      "assetIds": [
        "35541503283276933796147438414694400616078274122459190822474961601238453471232",
        "35541503283276933796147438414694400616078274122459190822474961601238453471233",
        "35541503283276933796147438414694400616078274122459190822474961601238453471234",
        "35541503283276933796147438414694400616078274122459190822474961601238453471238"
      ]
    },
    {
      "x": 59,
      "y": 322,
      "size": 1,
      "price": "6950000000000000000000",
      "assetIds": [
        "35541503283276933796147438414694400616078274122459190822474961601238453471232",
        "35541503283276933796147438414694400616078274122459190822474961601238453471233",
        "35541503283276933796147438414694400616078274122459190822474961601238453471234",
        "35541503283276933796147438414694400616078274122459190822474961601238453471239"
      ]
    },
    {
      "x": 58,
      "y": 321,
      "size": 1,
      "price": "6950000000000000000000",
      "assetIds": [
        "35541503283276933796147438414694400616078274122459190822474961601238453471232",
        "35541503283276933796147438414694400616078274122459190822474961601238453471233",
        "35541503283276933796147438414694400616078274122459190822474961601238453471234",
        "35541503283276933796147438414694400616078274122459190822474961601238453471239"
      ]
    },
    {
      "x": 58,
      "y": 320,
      "size": 1,
      "price": "6950000000000000000000",
      "assetIds": [
        "35541503283276933796147438414694400616078274122459190822474961601238453471232",
        "35541503283276933796147438414694400616078274122459190822474961601238453471233",
        "35541503283276933796147438414694400616078274122459190822474961601238453471234",
        "35541503283276933796147438414694400616078274122459190822474961601238453471238"
      ]
    },
    {
      "x": 58,
      "y": 319,
      "size": 1,
      "price": "6950000000000000000000",
      "assetIds": [
        "35541503283276933796147438414694400616078274122459190822474961601238453471232",
        "35541503283276933796147438414694400616078274122459190822474961601238453471233",
        "35541503283276933796147438414694400616078274122459190822474961601238453471234",
        "35541503283276933796147438414694400616078274122459190822474961601238453471237"
      ]
    },
    {
      "x": 58,
      "y": 318,
      "size": 1,
      "price": "3000000000000000000000",
      "assetIds": []
    },
    {
      "x": 58,
      "y": 317,
      "size": 1,
      "price": "3000000000000000000000",
      "assetIds": []
    },
    {
      "x": 58,
      "y": 316,
      "size": 1,
      "price": "6950000000000000000000",
      "assetIds": [
        "35541503283276933796147438414694400616078274122459190822474961601238453471232",
        "35541503283276933796147438414694400616078274122459190822474961601238453471233",
        "35541503283276933796147438414694400616078274122459190822474961601238453471234",
        "35541503283276933796147438414694400616078274122459190822474961601238453471239"
      ]
    },
    {
      "x": 58,
      "y": 315,
      "size": 1,
      "price": "6950000000000000000000",
      "assetIds": [
        "35541503283276933796147438414694400616078274122459190822474961601238453471232",
        "35541503283276933796147438414694400616078274122459190822474961601238453471233",
        "35541503283276933796147438414694400616078274122459190822474961601238453471234",
        "35541503283276933796147438414694400616078274122459190822474961601238453471240"
      ]
    },
    {
      "x": 58,
      "y": 314,
      "size": 1,
      "price": "6950000000000000000000",
      "assetIds": [
        "35541503283276933796147438414694400616078274122459190822474961601238453471232",
        "35541503283276933796147438414694400616078274122459190822474961601238453471233",
        "35541503283276933796147438414694400616078274122459190822474961601238453471234",
        "35541503283276933796147438414694400616078274122459190822474961601238453471235"
      ]
    },
    {
      "x": 58,
      "y": 313,
      "size": 1,
      "price": "6950000000000000000000",
      "assetIds": [
        "35541503283276933796147438414694400616078274122459190822474961601238453471232",
        "35541503283276933796147438414694400616078274122459190822474961601238453471233",
        "35541503283276933796147438414694400616078274122459190822474961601238453471234",
        "35541503283276933796147438414694400616078274122459190822474961601238453471237"
      ]
    },
    {
      "x": 58,
      "y": 312,
      "size": 1,
      "price": "6950000000000000000000",
      "assetIds": [
        "35541503283276933796147438414694400616078274122459190822474961601238453471232",
        "35541503283276933796147438414694400616078274122459190822474961601238453471233",
        "35541503283276933796147438414694400616078274122459190822474961601238453471234",
        "35541503283276933796147438414694400616078274122459190822474961601238453471239"
      ]
    },
    {
      "x": 58,
      "y": 311,
      "size": 1,
      "price": "3000000000000000000000",
      "reserved": "0x7a9fe22691c811ea339d9b73150e6911a5343dca",
      "assetIds": []
    },
    {
      "x": 57,
      "y": 310,
      "size": 1,
      "price": "6950000000000000000000",
      "assetIds": [
        "35541503283276933796147438414694400616078274122459190822474961601238453471232",
        "35541503283276933796147438414694400616078274122459190822474961601238453471233",
        "35541503283276933796147438414694400616078274122459190822474961601238453471234",
        "35541503283276933796147438414694400616078274122459190822474961601238453471239"
      ]
    },
    {
      "x": 57,
      "y": 309,
      "size": 1,
      "price": "6950000000000000000000",
      "assetIds": [
        "35541503283276933796147438414694400616078274122459190822474961601238453471232",
        "35541503283276933796147438414694400616078274122459190822474961601238453471233",
        "35541503283276933796147438414694400616078274122459190822474961601238453471234",
        "35541503283276933796147438414694400616078274122459190822474961601238453471240"
      ]
    },
    {
      "x": 57,
      "y": 308,
      "size": 1,
      "price": "6950000000000000000000",
      "assetIds": [
        "35541503283276933796147438414694400616078274122459190822474961601238453471232",
        "35541503283276933796147438414694400616078274122459190822474961601238453471233",
        "35541503283276933796147438414694400616078274122459190822474961601238453471234",
        "35541503283276933796147438414694400616078274122459190822474961601238453471239"
      ]
    },
    {
      "x": 57,
      "y": 307,
      "size": 1,
      "price": "6950000000000000000000",
      "assetIds": [
        "35541503283276933796147438414694400616078274122459190822474961601238453471232",
        "35541503283276933796147438414694400616078274122459190822474961601238453471233",
        "35541503283276933796147438414694400616078274122459190822474961601238453471234",
        "35541503283276933796147438414694400616078274122459190822474961601238453471239"
      ]
    },
    {
      "x": 57,
      "y": 306,
      "size": 1,
      "price": "6950000000000000000000",
      "assetIds": [
        "35541503283276933796147438414694400616078274122459190822474961601238453471232",
        "35541503283276933796147438414694400616078274122459190822474961601238453471233",
        "35541503283276933796147438414694400616078274122459190822474961601238453471234",
        "35541503283276933796147438414694400616078274122459190822474961601238453471237"
      ]
    },
    {
      "x": 57,
      "y": 305,
      "size": 1,
      "price": "6950000000000000000000",
      "assetIds": [
        "35541503283276933796147438414694400616078274122459190822474961601238453471232",
        "35541503283276933796147438414694400616078274122459190822474961601238453471233",
        "35541503283276933796147438414694400616078274122459190822474961601238453471234",
        "35541503283276933796147438414694400616078274122459190822474961601238453471237"
      ]
    },
    {
      "x": 57,
      "y": 304,
      "size": 1,
      "price": "6950000000000000000000",
      "assetIds": [
        "35541503283276933796147438414694400616078274122459190822474961601238453471232",
        "35541503283276933796147438414694400616078274122459190822474961601238453471233",
        "35541503283276933796147438414694400616078274122459190822474961601238453471234",
        "35541503283276933796147438414694400616078274122459190822474961601238453471238"
      ]
    },
    {
      "x": 57,
      "y": 303,
      "size": 1,
      "price": "6950000000000000000000",
      "assetIds": [
        "35541503283276933796147438414694400616078274122459190822474961601238453471232",
        "35541503283276933796147438414694400616078274122459190822474961601238453471233",
        "35541503283276933796147438414694400616078274122459190822474961601238453471234",
        "35541503283276933796147438414694400616078274122459190822474961601238453471236"
      ]
    },
    {
      "x": 57,
      "y": 302,
      "size": 1,
      "price": "6950000000000000000000",
      "assetIds": [
        "35541503283276933796147438414694400616078274122459190822474961601238453471232",
        "35541503283276933796147438414694400616078274122459190822474961601238453471233",
        "35541503283276933796147438414694400616078274122459190822474961601238453471234",
        "35541503283276933796147438414694400616078274122459190822474961601238453471236"
      ]
    },
    {
      "x": 57,
      "y": 301,
      "size": 1,
      "price": "6950000000000000000000",
      "assetIds": [
        "35541503283276933796147438414694400616078274122459190822474961601238453471232",
        "35541503283276933796147438414694400616078274122459190822474961601238453471233",
        "35541503283276933796147438414694400616078274122459190822474961601238453471234",
        "35541503283276933796147438414694400616078274122459190822474961601238453471236"
      ]
    },
    {
      "x": 57,
      "y": 300,
      "size": 1,
      "price": "6950000000000000000000",
      "assetIds": [
        "35541503283276933796147438414694400616078274122459190822474961601238453471232",
        "35541503283276933796147438414694400616078274122459190822474961601238453471233",
        "35541503283276933796147438414694400616078274122459190822474961601238453471234",
        "35541503283276933796147438414694400616078274122459190822474961601238453471236"
      ]
    },
    {
      "x": 57,
      "y": 299,
      "size": 1,
      "price": "3000000000000000000000",
      "reserved": "0x7a9fe22691c811ea339d9b73150e6911a5343dca",
      "assetIds": []
    },
    {
      "x": 57,
      "y": 298,
      "size": 1,
      "price": "6950000000000000000000",
      "assetIds": [
        "35541503283276933796147438414694400616078274122459190822474961601238453471232",
        "35541503283276933796147438414694400616078274122459190822474961601238453471233",
        "35541503283276933796147438414694400616078274122459190822474961601238453471234",
        "35541503283276933796147438414694400616078274122459190822474961601238453471238"
      ]
    },
    {
      "x": 57,
      "y": 297,
      "size": 1,
      "price": "6950000000000000000000",
      "assetIds": [
        "35541503283276933796147438414694400616078274122459190822474961601238453471232",
        "35541503283276933796147438414694400616078274122459190822474961601238453471233",
        "35541503283276933796147438414694400616078274122459190822474961601238453471234",
        "35541503283276933796147438414694400616078274122459190822474961601238453471238"
      ]
    },
    {
      "x": 57,
      "y": 296,
      "size": 1,
      "price": "3000000000000000000000",
      "reserved": "0x7a9fe22691c811ea339d9b73150e6911a5343dca",
      "assetIds": []
    },
    {
      "x": 57,
      "y": 295,
      "size": 1,
      "price": "3000000000000000000000",
      "assetIds": []
    },
    {
      "x": 57,
      "y": 294,
      "size": 1,
      "price": "3000000000000000000000",
      "assetIds": []
    },
    {
      "x": 57,
      "y": 293,
      "size": 1,
      "price": "3000000000000000000000",
      "assetIds": []
    },
    {
      "x": 57,
      "y": 292,
      "size": 1,
      "price": "3000000000000000000000",
      "assetIds": []
    },
    {
      "x": 57,
      "y": 291,
      "size": 1,
      "price": "3000000000000000000000",
      "assetIds": []
    },
    {
      "x": 58,
      "y": 308,
      "size": 1,
      "price": "6950000000000000000000",
      "assetIds": [
        "35541503283276933796147438414694400616078274122459190822474961601238453471232",
        "35541503283276933796147438414694400616078274122459190822474961601238453471233",
        "35541503283276933796147438414694400616078274122459190822474961601238453471234",
        "35541503283276933796147438414694400616078274122459190822474961601238453471236"
      ]
    },
    {
      "x": 58,
      "y": 309,
      "size": 1,
      "price": "6950000000000000000000",
      "assetIds": [
        "35541503283276933796147438414694400616078274122459190822474961601238453471232",
        "35541503283276933796147438414694400616078274122459190822474961601238453471233",
        "35541503283276933796147438414694400616078274122459190822474961601238453471234",
        "35541503283276933796147438414694400616078274122459190822474961601238453471236"
      ]
    },
    {
      "x": 58,
      "y": 310,
      "size": 1,
      "price": "6950000000000000000000",
      "assetIds": [
        "35541503283276933796147438414694400616078274122459190822474961601238453471232",
        "35541503283276933796147438414694400616078274122459190822474961601238453471233",
        "35541503283276933796147438414694400616078274122459190822474961601238453471234",
        "35541503283276933796147438414694400616078274122459190822474961601238453471240"
      ]
    },
    {
      "x": 58,
      "y": 322,
      "size": 1,
      "price": "6950000000000000000000",
      "assetIds": [
        "35541503283276933796147438414694400616078274122459190822474961601238453471232",
        "35541503283276933796147438414694400616078274122459190822474961601238453471233",
        "35541503283276933796147438414694400616078274122459190822474961601238453471234",
        "35541503283276933796147438414694400616078274122459190822474961601238453471239"
      ]
    },
    {
      "x": 58,
      "y": 323,
      "size": 1,
      "price": "6950000000000000000000",
      "assetIds": [
        "35541503283276933796147438414694400616078274122459190822474961601238453471232",
        "35541503283276933796147438414694400616078274122459190822474961601238453471233",
        "35541503283276933796147438414694400616078274122459190822474961601238453471234",
        "35541503283276933796147438414694400616078274122459190822474961601238453471239"
      ]
    },
    {
      "x": 59,
      "y": 321,
      "size": 1,
      "price": "6950000000000000000000",
      "assetIds": [
        "35541503283276933796147438414694400616078274122459190822474961601238453471232",
        "35541503283276933796147438414694400616078274122459190822474961601238453471233",
        "35541503283276933796147438414694400616078274122459190822474961601238453471234",
        "35541503283276933796147438414694400616078274122459190822474961601238453471236"
      ]
    },
    {
      "x": 59,
      "y": 320,
      "size": 1,
      "price": "6950000000000000000000",
      "assetIds": [
        "35541503283276933796147438414694400616078274122459190822474961601238453471232",
        "35541503283276933796147438414694400616078274122459190822474961601238453471233",
        "35541503283276933796147438414694400616078274122459190822474961601238453471234",
        "35541503283276933796147438414694400616078274122459190822474961601238453471240"
      ]
    },
    {
      "x": 59,
      "y": 319,
      "size": 1,
      "price": "3000000000000000000000",
      "reserved": "0x7a9fe22691c811ea339d9b73150e6911a5343dca",
      "assetIds": []
    },
    {
      "x": 59,
      "y": 318,
      "size": 1,
      "price": "3000000000000000000000",
      "assetIds": []
    },
    {
      "x": 59,
      "y": 317,
      "size": 1,
      "price": "3000000000000000000000",
      "reserved": "0x7a9fe22691c811ea339d9b73150e6911a5343dca",
      "assetIds": []
    },
    {
      "x": 59,
      "y": 316,
      "size": 1,
      "price": "3000000000000000000000",
      "assetIds": []
    },
    {
      "x": 59,
      "y": 315,
      "size": 1,
      "price": "6950000000000000000000",
      "assetIds": [
        "35541503283276933796147438414694400616078274122459190822474961601238453471232",
        "35541503283276933796147438414694400616078274122459190822474961601238453471233",
        "35541503283276933796147438414694400616078274122459190822474961601238453471234",
        "35541503283276933796147438414694400616078274122459190822474961601238453471236"
      ]
    },
    {
      "x": 59,
      "y": 314,
      "size": 1,
      "price": "6950000000000000000000",
      "assetIds": [
        "35541503283276933796147438414694400616078274122459190822474961601238453471232",
        "35541503283276933796147438414694400616078274122459190822474961601238453471233",
        "35541503283276933796147438414694400616078274122459190822474961601238453471234",
        "35541503283276933796147438414694400616078274122459190822474961601238453471238"
      ]
    },
    {
      "x": 59,
      "y": 313,
      "size": 1,
      "price": "6950000000000000000000",
      "assetIds": [
        "35541503283276933796147438414694400616078274122459190822474961601238453471232",
        "35541503283276933796147438414694400616078274122459190822474961601238453471233",
        "35541503283276933796147438414694400616078274122459190822474961601238453471234",
        "35541503283276933796147438414694400616078274122459190822474961601238453471239"
      ]
    },
    {
      "x": 59,
      "y": 312,
      "size": 1,
      "price": "6950000000000000000000",
      "assetIds": [
        "35541503283276933796147438414694400616078274122459190822474961601238453471232",
        "35541503283276933796147438414694400616078274122459190822474961601238453471233",
        "35541503283276933796147438414694400616078274122459190822474961601238453471234",
        "35541503283276933796147438414694400616078274122459190822474961601238453471236"
      ]
    },
    {
      "x": 59,
      "y": 311,
      "size": 1,
      "price": "6950000000000000000000",
      "assetIds": [
        "35541503283276933796147438414694400616078274122459190822474961601238453471232",
        "35541503283276933796147438414694400616078274122459190822474961601238453471233",
        "35541503283276933796147438414694400616078274122459190822474961601238453471234",
        "35541503283276933796147438414694400616078274122459190822474961601238453471238"
      ]
    },
    {
      "x": 59,
      "y": 310,
      "size": 1,
      "price": "6950000000000000000000",
      "assetIds": [
        "35541503283276933796147438414694400616078274122459190822474961601238453471232",
        "35541503283276933796147438414694400616078274122459190822474961601238453471233",
        "35541503283276933796147438414694400616078274122459190822474961601238453471234",
        "35541503283276933796147438414694400616078274122459190822474961601238453471237"
      ]
    },
    {
      "x": 59,
      "y": 309,
      "size": 1,
      "price": "6950000000000000000000",
      "assetIds": [
        "35541503283276933796147438414694400616078274122459190822474961601238453471232",
        "35541503283276933796147438414694400616078274122459190822474961601238453471233",
        "35541503283276933796147438414694400616078274122459190822474961601238453471234",
        "35541503283276933796147438414694400616078274122459190822474961601238453471235"
      ]
    },
    {
      "x": 59,
      "y": 308,
      "size": 1,
      "price": "6950000000000000000000",
      "assetIds": [
        "35541503283276933796147438414694400616078274122459190822474961601238453471232",
        "35541503283276933796147438414694400616078274122459190822474961601238453471233",
        "35541503283276933796147438414694400616078274122459190822474961601238453471234",
        "35541503283276933796147438414694400616078274122459190822474961601238453471235"
      ]
    },
    {
      "x": 59,
      "y": 307,
      "size": 1,
      "price": "6950000000000000000000",
      "assetIds": [
        "35541503283276933796147438414694400616078274122459190822474961601238453471232",
        "35541503283276933796147438414694400616078274122459190822474961601238453471233",
        "35541503283276933796147438414694400616078274122459190822474961601238453471234",
        "35541503283276933796147438414694400616078274122459190822474961601238453471236"
      ]
    },
    {
      "x": 59,
      "y": 306,
      "size": 1,
      "price": "6950000000000000000000",
      "assetIds": [
        "35541503283276933796147438414694400616078274122459190822474961601238453471232",
        "35541503283276933796147438414694400616078274122459190822474961601238453471233",
        "35541503283276933796147438414694400616078274122459190822474961601238453471234",
        "35541503283276933796147438414694400616078274122459190822474961601238453471240"
      ]
    },
    {
      "x": 59,
      "y": 305,
      "size": 1,
      "price": "6950000000000000000000",
      "assetIds": [
        "35541503283276933796147438414694400616078274122459190822474961601238453471232",
        "35541503283276933796147438414694400616078274122459190822474961601238453471233",
        "35541503283276933796147438414694400616078274122459190822474961601238453471234",
        "35541503283276933796147438414694400616078274122459190822474961601238453471236"
      ]
    },
    {
      "x": 59,
      "y": 304,
      "size": 1,
      "price": "6950000000000000000000",
      "assetIds": [
        "35541503283276933796147438414694400616078274122459190822474961601238453471232",
        "35541503283276933796147438414694400616078274122459190822474961601238453471233",
        "35541503283276933796147438414694400616078274122459190822474961601238453471234",
        "35541503283276933796147438414694400616078274122459190822474961601238453471235"
      ]
    },
    {
      "x": 59,
      "y": 303,
      "size": 1,
      "price": "6950000000000000000000",
      "assetIds": [
        "35541503283276933796147438414694400616078274122459190822474961601238453471232",
        "35541503283276933796147438414694400616078274122459190822474961601238453471233",
        "35541503283276933796147438414694400616078274122459190822474961601238453471234",
        "35541503283276933796147438414694400616078274122459190822474961601238453471239"
      ]
    },
    {
      "x": 59,
      "y": 302,
      "size": 1,
      "price": "3000000000000000000000",
      "reserved": "0x7a9fe22691c811ea339d9b73150e6911a5343dca",
      "assetIds": []
    },
    {
      "x": 59,
      "y": 301,
      "size": 1,
      "price": "6950000000000000000000",
      "assetIds": [
        "35541503283276933796147438414694400616078274122459190822474961601238453471232",
        "35541503283276933796147438414694400616078274122459190822474961601238453471233",
        "35541503283276933796147438414694400616078274122459190822474961601238453471234",
        "35541503283276933796147438414694400616078274122459190822474961601238453471240"
      ]
    },
    {
      "x": 59,
      "y": 300,
      "size": 1,
      "price": "6950000000000000000000",
      "assetIds": [
        "35541503283276933796147438414694400616078274122459190822474961601238453471232",
        "35541503283276933796147438414694400616078274122459190822474961601238453471233",
        "35541503283276933796147438414694400616078274122459190822474961601238453471234",
        "35541503283276933796147438414694400616078274122459190822474961601238453471240"
      ]
    },
    {
      "x": 59,
      "y": 299,
      "size": 1,
      "price": "6950000000000000000000",
      "assetIds": [
        "35541503283276933796147438414694400616078274122459190822474961601238453471232",
        "35541503283276933796147438414694400616078274122459190822474961601238453471233",
        "35541503283276933796147438414694400616078274122459190822474961601238453471234",
        "35541503283276933796147438414694400616078274122459190822474961601238453471237"
      ]
    },
    {
      "x": 59,
      "y": 298,
      "size": 1,
      "price": "6950000000000000000000",
      "assetIds": [
        "35541503283276933796147438414694400616078274122459190822474961601238453471232",
        "35541503283276933796147438414694400616078274122459190822474961601238453471233",
        "35541503283276933796147438414694400616078274122459190822474961601238453471234",
        "35541503283276933796147438414694400616078274122459190822474961601238453471237"
      ]
    },
    {
      "x": 59,
      "y": 297,
      "size": 1,
      "price": "6950000000000000000000",
      "assetIds": [
        "35541503283276933796147438414694400616078274122459190822474961601238453471232",
        "35541503283276933796147438414694400616078274122459190822474961601238453471233",
        "35541503283276933796147438414694400616078274122459190822474961601238453471234",
        "35541503283276933796147438414694400616078274122459190822474961601238453471237"
      ]
    },
    {
      "x": 59,
      "y": 296,
      "size": 1,
      "price": "6950000000000000000000",
      "assetIds": [
        "35541503283276933796147438414694400616078274122459190822474961601238453471232",
        "35541503283276933796147438414694400616078274122459190822474961601238453471233",
        "35541503283276933796147438414694400616078274122459190822474961601238453471234",
        "35541503283276933796147438414694400616078274122459190822474961601238453471235"
      ]
    },
    {
      "x": 59,
      "y": 295,
      "size": 1,
      "price": "6950000000000000000000",
      "assetIds": [
        "35541503283276933796147438414694400616078274122459190822474961601238453471232",
        "35541503283276933796147438414694400616078274122459190822474961601238453471233",
        "35541503283276933796147438414694400616078274122459190822474961601238453471234",
        "35541503283276933796147438414694400616078274122459190822474961601238453471239"
      ]
    },
    {
      "x": 59,
      "y": 294,
      "size": 1,
      "price": "3000000000000000000000",
      "assetIds": []
    },
    {
      "x": 59,
      "y": 293,
      "size": 1,
      "price": "3000000000000000000000",
      "assetIds": []
    },
    {
      "x": 59,
      "y": 292,
      "size": 1,
      "price": "3000000000000000000000",
      "reserved": "0x7a9fe22691c811ea339d9b73150e6911a5343dca",
      "assetIds": []
    },
    {
      "x": 59,
      "y": 291,
      "size": 1,
      "price": "3000000000000000000000",
      "assetIds": []
    },
    {
      "x": 59,
      "y": 287,
      "size": 1,
      "price": "3000000000000000000000",
      "assetIds": []
    },
    {
      "x": 59,
      "y": 286,
      "size": 1,
      "price": "3000000000000000000000",
      "assetIds": []
    },
    {
      "x": 59,
      "y": 285,
      "size": 1,
      "price": "3000000000000000000000",
      "assetIds": []
    },
    {
      "x": 58,
      "y": 285,
      "size": 1,
      "price": "3000000000000000000000",
      "assetIds": []
    },
    {
      "x": 58,
      "y": 286,
      "size": 1,
      "price": "3000000000000000000000",
      "reserved": "0x7a9fe22691c811ea339d9b73150e6911a5343dca",
      "assetIds": []
    },
    {
      "x": 58,
      "y": 287,
      "size": 1,
      "price": "3000000000000000000000",
      "assetIds": []
    },
    {
      "x": 58,
      "y": 291,
      "size": 1,
      "price": "3000000000000000000000",
      "assetIds": []
    },
    {
      "x": 58,
      "y": 292,
      "size": 1,
      "price": "3000000000000000000000",
      "assetIds": []
    },
    {
      "x": 58,
      "y": 293,
      "size": 1,
      "price": "3000000000000000000000",
      "assetIds": []
    },
    {
      "x": 58,
      "y": 294,
      "size": 1,
      "price": "3000000000000000000000",
      "assetIds": []
    },
    {
      "x": 58,
      "y": 295,
      "size": 1,
      "price": "6950000000000000000000",
      "assetIds": [
        "35541503283276933796147438414694400616078274122459190822474961601238453471232",
        "35541503283276933796147438414694400616078274122459190822474961601238453471233",
        "35541503283276933796147438414694400616078274122459190822474961601238453471234",
        "35541503283276933796147438414694400616078274122459190822474961601238453471236"
      ]
    },
    {
      "x": 58,
      "y": 296,
      "size": 1,
      "price": "6950000000000000000000",
      "assetIds": [
        "35541503283276933796147438414694400616078274122459190822474961601238453471232",
        "35541503283276933796147438414694400616078274122459190822474961601238453471233",
        "35541503283276933796147438414694400616078274122459190822474961601238453471234",
        "35541503283276933796147438414694400616078274122459190822474961601238453471235"
      ]
    },
    {
      "x": 58,
      "y": 297,
      "size": 1,
      "price": "6950000000000000000000",
      "assetIds": [
        "35541503283276933796147438414694400616078274122459190822474961601238453471232",
        "35541503283276933796147438414694400616078274122459190822474961601238453471233",
        "35541503283276933796147438414694400616078274122459190822474961601238453471234",
        "35541503283276933796147438414694400616078274122459190822474961601238453471239"
      ]
    },
    {
      "x": 58,
      "y": 298,
      "size": 1,
      "price": "6950000000000000000000",
      "assetIds": [
        "35541503283276933796147438414694400616078274122459190822474961601238453471232",
        "35541503283276933796147438414694400616078274122459190822474961601238453471233",
        "35541503283276933796147438414694400616078274122459190822474961601238453471234",
        "35541503283276933796147438414694400616078274122459190822474961601238453471235"
      ]
    },
    {
      "x": 58,
      "y": 299,
      "size": 1,
      "price": "6950000000000000000000",
      "assetIds": [
        "35541503283276933796147438414694400616078274122459190822474961601238453471232",
        "35541503283276933796147438414694400616078274122459190822474961601238453471233",
        "35541503283276933796147438414694400616078274122459190822474961601238453471234",
        "35541503283276933796147438414694400616078274122459190822474961601238453471240"
      ]
    },
    {
      "x": 58,
      "y": 300,
      "size": 1,
      "price": "6950000000000000000000",
      "assetIds": [
        "35541503283276933796147438414694400616078274122459190822474961601238453471232",
        "35541503283276933796147438414694400616078274122459190822474961601238453471233",
        "35541503283276933796147438414694400616078274122459190822474961601238453471234",
        "35541503283276933796147438414694400616078274122459190822474961601238453471236"
      ]
    },
    {
      "x": 58,
      "y": 301,
      "size": 1,
      "price": "6950000000000000000000",
      "assetIds": [
        "35541503283276933796147438414694400616078274122459190822474961601238453471232",
        "35541503283276933796147438414694400616078274122459190822474961601238453471233",
        "35541503283276933796147438414694400616078274122459190822474961601238453471234",
        "35541503283276933796147438414694400616078274122459190822474961601238453471236"
      ]
    },
    {
      "x": 58,
      "y": 302,
      "size": 1,
      "price": "6950000000000000000000",
      "assetIds": [
        "35541503283276933796147438414694400616078274122459190822474961601238453471232",
        "35541503283276933796147438414694400616078274122459190822474961601238453471233",
        "35541503283276933796147438414694400616078274122459190822474961601238453471234",
        "35541503283276933796147438414694400616078274122459190822474961601238453471238"
      ]
    },
    {
      "x": 58,
      "y": 303,
      "size": 1,
      "price": "6950000000000000000000",
      "assetIds": [
        "35541503283276933796147438414694400616078274122459190822474961601238453471232",
        "35541503283276933796147438414694400616078274122459190822474961601238453471233",
        "35541503283276933796147438414694400616078274122459190822474961601238453471234",
        "35541503283276933796147438414694400616078274122459190822474961601238453471240"
      ]
    },
    {
      "x": 58,
      "y": 304,
      "size": 1,
      "price": "6950000000000000000000",
      "assetIds": [
        "35541503283276933796147438414694400616078274122459190822474961601238453471232",
        "35541503283276933796147438414694400616078274122459190822474961601238453471233",
        "35541503283276933796147438414694400616078274122459190822474961601238453471234",
        "35541503283276933796147438414694400616078274122459190822474961601238453471235"
      ]
    },
    {
      "x": 58,
      "y": 305,
      "size": 1,
      "price": "6950000000000000000000",
      "assetIds": [
        "35541503283276933796147438414694400616078274122459190822474961601238453471232",
        "35541503283276933796147438414694400616078274122459190822474961601238453471233",
        "35541503283276933796147438414694400616078274122459190822474961601238453471234",
        "35541503283276933796147438414694400616078274122459190822474961601238453471237"
      ]
    },
    {
      "x": 58,
      "y": 306,
      "size": 1,
      "price": "3000000000000000000000",
      "reserved": "0x7a9fe22691c811ea339d9b73150e6911a5343dca",
      "assetIds": []
    },
    {
      "x": 58,
      "y": 307,
      "size": 1,
      "price": "6950000000000000000000",
      "assetIds": [
        "35541503283276933796147438414694400616078274122459190822474961601238453471232",
        "35541503283276933796147438414694400616078274122459190822474961601238453471233",
        "35541503283276933796147438414694400616078274122459190822474961601238453471234",
        "35541503283276933796147438414694400616078274122459190822474961601238453471240"
      ]
    },
    {
      "x": 57,
      "y": 323,
      "size": 1,
      "price": "6950000000000000000000",
      "assetIds": [
        "35541503283276933796147438414694400616078274122459190822474961601238453471232",
        "35541503283276933796147438414694400616078274122459190822474961601238453471233",
        "35541503283276933796147438414694400616078274122459190822474961601238453471234",
        "35541503283276933796147438414694400616078274122459190822474961601238453471238"
      ]
    },
    {
      "x": 57,
      "y": 322,
      "size": 1,
      "price": "6950000000000000000000",
      "assetIds": [
        "35541503283276933796147438414694400616078274122459190822474961601238453471232",
        "35541503283276933796147438414694400616078274122459190822474961601238453471233",
        "35541503283276933796147438414694400616078274122459190822474961601238453471234",
        "35541503283276933796147438414694400616078274122459190822474961601238453471240"
      ]
    },
    {
      "x": 57,
      "y": 321,
      "size": 1,
      "price": "6950000000000000000000",
      "assetIds": [
        "35541503283276933796147438414694400616078274122459190822474961601238453471232",
        "35541503283276933796147438414694400616078274122459190822474961601238453471233",
        "35541503283276933796147438414694400616078274122459190822474961601238453471234",
        "35541503283276933796147438414694400616078274122459190822474961601238453471240"
      ]
    },
    {
      "x": 57,
      "y": 320,
      "size": 1,
      "price": "6950000000000000000000",
      "assetIds": [
        "35541503283276933796147438414694400616078274122459190822474961601238453471232",
        "35541503283276933796147438414694400616078274122459190822474961601238453471233",
        "35541503283276933796147438414694400616078274122459190822474961601238453471234",
        "35541503283276933796147438414694400616078274122459190822474961601238453471236"
      ]
    },
    {
      "x": 57,
      "y": 319,
      "size": 1,
      "price": "6950000000000000000000",
      "assetIds": [
        "35541503283276933796147438414694400616078274122459190822474961601238453471232",
        "35541503283276933796147438414694400616078274122459190822474961601238453471233",
        "35541503283276933796147438414694400616078274122459190822474961601238453471234",
        "35541503283276933796147438414694400616078274122459190822474961601238453471238"
      ]
    },
    {
      "x": 57,
      "y": 318,
      "size": 1,
      "price": "6950000000000000000000",
      "assetIds": [
        "35541503283276933796147438414694400616078274122459190822474961601238453471232",
        "35541503283276933796147438414694400616078274122459190822474961601238453471233",
        "35541503283276933796147438414694400616078274122459190822474961601238453471234",
        "35541503283276933796147438414694400616078274122459190822474961601238453471238"
      ]
    },
    {
      "x": 57,
      "y": 317,
      "size": 1,
      "price": "3000000000000000000000",
      "assetIds": []
    },
    {
      "x": 57,
      "y": 316,
      "size": 1,
      "price": "3000000000000000000000",
      "assetIds": []
    },
    {
      "x": 57,
      "y": 315,
      "size": 1,
      "price": "6950000000000000000000",
      "assetIds": [
        "35541503283276933796147438414694400616078274122459190822474961601238453471232",
        "35541503283276933796147438414694400616078274122459190822474961601238453471233",
        "35541503283276933796147438414694400616078274122459190822474961601238453471234",
        "35541503283276933796147438414694400616078274122459190822474961601238453471236"
      ]
    },
    {
      "x": 57,
      "y": 314,
      "size": 1,
      "price": "3000000000000000000000",
      "reserved": "0x7a9fe22691c811ea339d9b73150e6911a5343dca",
      "assetIds": []
    },
    {
      "x": 57,
      "y": 313,
      "size": 1,
      "price": "6950000000000000000000",
      "assetIds": [
        "35541503283276933796147438414694400616078274122459190822474961601238453471232",
        "35541503283276933796147438414694400616078274122459190822474961601238453471233",
        "35541503283276933796147438414694400616078274122459190822474961601238453471234",
        "35541503283276933796147438414694400616078274122459190822474961601238453471237"
      ]
    },
    {
      "x": 57,
      "y": 312,
      "size": 1,
      "price": "6950000000000000000000",
      "assetIds": [
        "35541503283276933796147438414694400616078274122459190822474961601238453471232",
        "35541503283276933796147438414694400616078274122459190822474961601238453471233",
        "35541503283276933796147438414694400616078274122459190822474961601238453471234",
        "35541503283276933796147438414694400616078274122459190822474961601238453471235"
      ]
    },
    {
      "x": 57,
      "y": 311,
      "size": 1,
      "price": "6950000000000000000000",
      "assetIds": [
        "35541503283276933796147438414694400616078274122459190822474961601238453471232",
        "35541503283276933796147438414694400616078274122459190822474961601238453471233",
        "35541503283276933796147438414694400616078274122459190822474961601238453471234",
        "35541503283276933796147438414694400616078274122459190822474961601238453471236"
      ]
    },
    {
      "x": 56,
      "y": 320,
      "size": 1,
      "price": "6950000000000000000000",
      "assetIds": [
        "35541503283276933796147438414694400616078274122459190822474961601238453471232",
        "35541503283276933796147438414694400616078274122459190822474961601238453471233",
        "35541503283276933796147438414694400616078274122459190822474961601238453471234",
        "35541503283276933796147438414694400616078274122459190822474961601238453471239"
      ]
    },
    {
      "x": 56,
      "y": 321,
      "size": 1,
      "price": "3000000000000000000000",
      "reserved": "0x7a9fe22691c811ea339d9b73150e6911a5343dca",
      "assetIds": []
    },
    {
      "x": 56,
      "y": 322,
      "size": 1,
      "price": "6950000000000000000000",
      "assetIds": [
        "35541503283276933796147438414694400616078274122459190822474961601238453471232",
        "35541503283276933796147438414694400616078274122459190822474961601238453471233",
        "35541503283276933796147438414694400616078274122459190822474961601238453471234",
        "35541503283276933796147438414694400616078274122459190822474961601238453471238"
      ]
    },
    {
      "x": 56,
      "y": 323,
      "size": 1,
      "price": "6950000000000000000000",
      "assetIds": [
        "35541503283276933796147438414694400616078274122459190822474961601238453471232",
        "35541503283276933796147438414694400616078274122459190822474961601238453471233",
        "35541503283276933796147438414694400616078274122459190822474961601238453471234",
        "35541503283276933796147438414694400616078274122459190822474961601238453471236"
      ]
    },
    {
      "x": 56,
      "y": 319,
      "size": 1,
      "price": "6950000000000000000000",
      "assetIds": [
        "35541503283276933796147438414694400616078274122459190822474961601238453471232",
        "35541503283276933796147438414694400616078274122459190822474961601238453471233",
        "35541503283276933796147438414694400616078274122459190822474961601238453471234",
        "35541503283276933796147438414694400616078274122459190822474961601238453471235"
      ]
    },
    {
      "x": 56,
      "y": 318,
      "size": 1,
      "price": "3000000000000000000000",
      "reserved": "0x7a9fe22691c811ea339d9b73150e6911a5343dca",
      "assetIds": []
    },
    {
      "x": 56,
      "y": 314,
      "size": 1,
      "price": "6950000000000000000000",
      "assetIds": [
        "35541503283276933796147438414694400616078274122459190822474961601238453471232",
        "35541503283276933796147438414694400616078274122459190822474961601238453471233",
        "35541503283276933796147438414694400616078274122459190822474961601238453471234",
        "35541503283276933796147438414694400616078274122459190822474961601238453471235"
      ]
    },
    {
      "x": 56,
      "y": 313,
      "size": 1,
      "price": "6950000000000000000000",
      "assetIds": [
        "35541503283276933796147438414694400616078274122459190822474961601238453471232",
        "35541503283276933796147438414694400616078274122459190822474961601238453471233",
        "35541503283276933796147438414694400616078274122459190822474961601238453471234",
        "35541503283276933796147438414694400616078274122459190822474961601238453471240"
      ]
    },
    {
      "x": 56,
      "y": 312,
      "size": 1,
      "price": "6950000000000000000000",
      "assetIds": [
        "35541503283276933796147438414694400616078274122459190822474961601238453471232",
        "35541503283276933796147438414694400616078274122459190822474961601238453471233",
        "35541503283276933796147438414694400616078274122459190822474961601238453471234",
        "35541503283276933796147438414694400616078274122459190822474961601238453471235"
      ]
    },
    {
      "x": 56,
      "y": 311,
      "size": 1,
      "price": "6950000000000000000000",
      "assetIds": [
        "35541503283276933796147438414694400616078274122459190822474961601238453471232",
        "35541503283276933796147438414694400616078274122459190822474961601238453471233",
        "35541503283276933796147438414694400616078274122459190822474961601238453471234",
        "35541503283276933796147438414694400616078274122459190822474961601238453471236"
      ]
    },
    {
      "x": 56,
      "y": 310,
      "size": 1,
      "price": "6950000000000000000000",
      "assetIds": [
        "35541503283276933796147438414694400616078274122459190822474961601238453471232",
        "35541503283276933796147438414694400616078274122459190822474961601238453471233",
        "35541503283276933796147438414694400616078274122459190822474961601238453471234",
        "35541503283276933796147438414694400616078274122459190822474961601238453471235"
      ]
    },
    {
      "x": 56,
      "y": 309,
      "size": 1,
      "price": "6950000000000000000000",
      "assetIds": [
        "35541503283276933796147438414694400616078274122459190822474961601238453471232",
        "35541503283276933796147438414694400616078274122459190822474961601238453471233",
        "35541503283276933796147438414694400616078274122459190822474961601238453471234",
        "35541503283276933796147438414694400616078274122459190822474961601238453471240"
      ]
    },
    {
      "x": 56,
      "y": 308,
      "size": 1,
      "price": "6950000000000000000000",
      "assetIds": [
        "35541503283276933796147438414694400616078274122459190822474961601238453471232",
        "35541503283276933796147438414694400616078274122459190822474961601238453471233",
        "35541503283276933796147438414694400616078274122459190822474961601238453471234",
        "35541503283276933796147438414694400616078274122459190822474961601238453471236"
      ]
    },
    {
      "x": 56,
      "y": 307,
      "size": 1,
      "price": "6950000000000000000000",
      "assetIds": [
        "35541503283276933796147438414694400616078274122459190822474961601238453471232",
        "35541503283276933796147438414694400616078274122459190822474961601238453471233",
        "35541503283276933796147438414694400616078274122459190822474961601238453471234",
        "35541503283276933796147438414694400616078274122459190822474961601238453471239"
      ]
    },
    {
      "x": 56,
      "y": 306,
      "size": 1,
      "price": "6950000000000000000000",
      "assetIds": [
        "35541503283276933796147438414694400616078274122459190822474961601238453471232",
        "35541503283276933796147438414694400616078274122459190822474961601238453471233",
        "35541503283276933796147438414694400616078274122459190822474961601238453471234",
        "35541503283276933796147438414694400616078274122459190822474961601238453471240"
      ]
    },
    {
      "x": 56,
      "y": 305,
      "size": 1,
      "price": "6950000000000000000000",
      "assetIds": [
        "35541503283276933796147438414694400616078274122459190822474961601238453471232",
        "35541503283276933796147438414694400616078274122459190822474961601238453471233",
        "35541503283276933796147438414694400616078274122459190822474961601238453471234",
        "35541503283276933796147438414694400616078274122459190822474961601238453471237"
      ]
    },
    {
      "x": 56,
      "y": 304,
      "size": 1,
      "price": "6950000000000000000000",
      "assetIds": [
        "35541503283276933796147438414694400616078274122459190822474961601238453471232",
        "35541503283276933796147438414694400616078274122459190822474961601238453471233",
        "35541503283276933796147438414694400616078274122459190822474961601238453471234",
        "35541503283276933796147438414694400616078274122459190822474961601238453471236"
      ]
    },
    {
      "x": 56,
      "y": 303,
      "size": 1,
      "price": "6950000000000000000000",
      "assetIds": [
        "35541503283276933796147438414694400616078274122459190822474961601238453471232",
        "35541503283276933796147438414694400616078274122459190822474961601238453471233",
        "35541503283276933796147438414694400616078274122459190822474961601238453471234",
        "35541503283276933796147438414694400616078274122459190822474961601238453471239"
      ]
    },
    {
      "x": 56,
      "y": 302,
      "size": 1,
      "price": "6950000000000000000000",
      "assetIds": [
        "35541503283276933796147438414694400616078274122459190822474961601238453471232",
        "35541503283276933796147438414694400616078274122459190822474961601238453471233",
        "35541503283276933796147438414694400616078274122459190822474961601238453471234",
        "35541503283276933796147438414694400616078274122459190822474961601238453471237"
      ]
    },
    {
      "x": 56,
      "y": 301,
      "size": 1,
      "price": "6950000000000000000000",
      "assetIds": [
        "35541503283276933796147438414694400616078274122459190822474961601238453471232",
        "35541503283276933796147438414694400616078274122459190822474961601238453471233",
        "35541503283276933796147438414694400616078274122459190822474961601238453471234",
        "35541503283276933796147438414694400616078274122459190822474961601238453471240"
      ]
    },
    {
      "x": 56,
      "y": 300,
      "size": 1,
      "price": "6950000000000000000000",
      "assetIds": [
        "35541503283276933796147438414694400616078274122459190822474961601238453471232",
        "35541503283276933796147438414694400616078274122459190822474961601238453471233",
        "35541503283276933796147438414694400616078274122459190822474961601238453471234",
        "35541503283276933796147438414694400616078274122459190822474961601238453471237"
      ]
    },
    {
      "x": 56,
      "y": 299,
      "size": 1,
      "price": "6950000000000000000000",
      "assetIds": [
        "35541503283276933796147438414694400616078274122459190822474961601238453471232",
        "35541503283276933796147438414694400616078274122459190822474961601238453471233",
        "35541503283276933796147438414694400616078274122459190822474961601238453471234",
        "35541503283276933796147438414694400616078274122459190822474961601238453471236"
      ]
    },
    {
      "x": 56,
      "y": 298,
      "size": 1,
      "price": "6950000000000000000000",
      "assetIds": [
        "35541503283276933796147438414694400616078274122459190822474961601238453471232",
        "35541503283276933796147438414694400616078274122459190822474961601238453471233",
        "35541503283276933796147438414694400616078274122459190822474961601238453471234",
        "35541503283276933796147438414694400616078274122459190822474961601238453471238"
      ]
    },
    {
      "x": 56,
      "y": 297,
      "size": 1,
      "price": "6950000000000000000000",
      "assetIds": [
        "35541503283276933796147438414694400616078274122459190822474961601238453471232",
        "35541503283276933796147438414694400616078274122459190822474961601238453471233",
        "35541503283276933796147438414694400616078274122459190822474961601238453471234",
        "35541503283276933796147438414694400616078274122459190822474961601238453471239"
      ]
    },
    {
      "x": 55,
      "y": 287,
      "size": 1,
      "price": "3000000000000000000000",
      "reserved": "0x7a9fe22691c811ea339d9b73150e6911a5343dca",
      "assetIds": []
    },
    {
      "x": 55,
      "y": 286,
      "size": 1,
      "price": "3000000000000000000000",
      "assetIds": []
    },
    {
      "x": 55,
      "y": 297,
      "size": 1,
      "price": "3000000000000000000000",
      "assetIds": []
    },
    {
      "x": 55,
      "y": 298,
      "size": 1,
      "price": "3000000000000000000000",
      "assetIds": []
    },
    {
      "x": 55,
      "y": 299,
      "size": 1,
      "price": "6950000000000000000000",
      "assetIds": [
        "35541503283276933796147438414694400616078274122459190822474961601238453471232",
        "35541503283276933796147438414694400616078274122459190822474961601238453471233",
        "35541503283276933796147438414694400616078274122459190822474961601238453471234",
        "35541503283276933796147438414694400616078274122459190822474961601238453471235"
      ]
    },
    {
      "x": 55,
      "y": 300,
      "size": 1,
      "price": "6950000000000000000000",
      "assetIds": [
        "35541503283276933796147438414694400616078274122459190822474961601238453471232",
        "35541503283276933796147438414694400616078274122459190822474961601238453471233",
        "35541503283276933796147438414694400616078274122459190822474961601238453471234",
        "35541503283276933796147438414694400616078274122459190822474961601238453471236"
      ]
    },
    {
      "x": 55,
      "y": 301,
      "size": 1,
      "price": "3000000000000000000000",
      "reserved": "0x7a9fe22691c811ea339d9b73150e6911a5343dca",
      "assetIds": []
    },
    {
      "x": 55,
      "y": 302,
      "size": 1,
      "price": "6950000000000000000000",
      "assetIds": [
        "35541503283276933796147438414694400616078274122459190822474961601238453471232",
        "35541503283276933796147438414694400616078274122459190822474961601238453471233",
        "35541503283276933796147438414694400616078274122459190822474961601238453471234",
        "35541503283276933796147438414694400616078274122459190822474961601238453471236"
      ]
    },
    {
      "x": 55,
      "y": 303,
      "size": 1,
      "price": "6950000000000000000000",
      "assetIds": [
        "35541503283276933796147438414694400616078274122459190822474961601238453471232",
        "35541503283276933796147438414694400616078274122459190822474961601238453471233",
        "35541503283276933796147438414694400616078274122459190822474961601238453471234",
        "35541503283276933796147438414694400616078274122459190822474961601238453471235"
      ]
    },
    {
      "x": 55,
      "y": 304,
      "size": 1,
      "price": "6950000000000000000000",
      "assetIds": [
        "35541503283276933796147438414694400616078274122459190822474961601238453471232",
        "35541503283276933796147438414694400616078274122459190822474961601238453471233",
        "35541503283276933796147438414694400616078274122459190822474961601238453471234",
        "35541503283276933796147438414694400616078274122459190822474961601238453471239"
      ]
    },
    {
      "x": 55,
      "y": 305,
      "size": 1,
      "price": "6950000000000000000000",
      "assetIds": [
        "35541503283276933796147438414694400616078274122459190822474961601238453471232",
        "35541503283276933796147438414694400616078274122459190822474961601238453471233",
        "35541503283276933796147438414694400616078274122459190822474961601238453471234",
        "35541503283276933796147438414694400616078274122459190822474961601238453471236"
      ]
    },
    {
      "x": 55,
      "y": 306,
      "size": 1,
      "price": "6950000000000000000000",
      "assetIds": [
        "35541503283276933796147438414694400616078274122459190822474961601238453471232",
        "35541503283276933796147438414694400616078274122459190822474961601238453471233",
        "35541503283276933796147438414694400616078274122459190822474961601238453471234",
        "35541503283276933796147438414694400616078274122459190822474961601238453471239"
      ]
    },
    {
      "x": 55,
      "y": 307,
      "size": 1,
      "price": "6950000000000000000000",
      "assetIds": [
        "35541503283276933796147438414694400616078274122459190822474961601238453471232",
        "35541503283276933796147438414694400616078274122459190822474961601238453471233",
        "35541503283276933796147438414694400616078274122459190822474961601238453471234",
        "35541503283276933796147438414694400616078274122459190822474961601238453471240"
      ]
    },
    {
      "x": 55,
      "y": 308,
      "size": 1,
      "price": "3000000000000000000000",
      "reserved": "0x7a9fe22691c811ea339d9b73150e6911a5343dca",
      "assetIds": []
    },
    {
      "x": 55,
      "y": 309,
      "size": 1,
      "price": "6950000000000000000000",
      "assetIds": [
        "35541503283276933796147438414694400616078274122459190822474961601238453471232",
        "35541503283276933796147438414694400616078274122459190822474961601238453471233",
        "35541503283276933796147438414694400616078274122459190822474961601238453471234",
        "35541503283276933796147438414694400616078274122459190822474961601238453471239"
      ]
    },
    {
      "x": 55,
      "y": 310,
      "size": 1,
      "price": "6950000000000000000000",
      "assetIds": [
        "35541503283276933796147438414694400616078274122459190822474961601238453471232",
        "35541503283276933796147438414694400616078274122459190822474961601238453471233",
        "35541503283276933796147438414694400616078274122459190822474961601238453471234",
        "35541503283276933796147438414694400616078274122459190822474961601238453471235"
      ]
    },
    {
      "x": 55,
      "y": 311,
      "size": 1,
      "price": "6950000000000000000000",
      "assetIds": [
        "35541503283276933796147438414694400616078274122459190822474961601238453471232",
        "35541503283276933796147438414694400616078274122459190822474961601238453471233",
        "35541503283276933796147438414694400616078274122459190822474961601238453471234",
        "35541503283276933796147438414694400616078274122459190822474961601238453471237"
      ]
    },
    {
      "x": 55,
      "y": 312,
      "size": 1,
      "price": "6950000000000000000000",
      "assetIds": [
        "35541503283276933796147438414694400616078274122459190822474961601238453471232",
        "35541503283276933796147438414694400616078274122459190822474961601238453471233",
        "35541503283276933796147438414694400616078274122459190822474961601238453471234",
        "35541503283276933796147438414694400616078274122459190822474961601238453471237"
      ]
    },
    {
      "x": 55,
      "y": 313,
      "size": 1,
      "price": "3000000000000000000000",
      "assetIds": []
    },
    {
      "x": 55,
      "y": 314,
      "size": 1,
      "price": "3000000000000000000000",
      "assetIds": []
    },
    {
      "x": 55,
      "y": 318,
      "size": 1,
      "price": "6950000000000000000000",
      "assetIds": [
        "35541503283276933796147438414694400616078274122459190822474961601238453471232",
        "35541503283276933796147438414694400616078274122459190822474961601238453471233",
        "35541503283276933796147438414694400616078274122459190822474961601238453471234",
        "35541503283276933796147438414694400616078274122459190822474961601238453471235"
      ]
    },
    {
      "x": 55,
      "y": 319,
      "size": 1,
      "price": "6950000000000000000000",
      "assetIds": [
        "35541503283276933796147438414694400616078274122459190822474961601238453471232",
        "35541503283276933796147438414694400616078274122459190822474961601238453471233",
        "35541503283276933796147438414694400616078274122459190822474961601238453471234",
        "35541503283276933796147438414694400616078274122459190822474961601238453471235"
      ]
    },
    {
      "x": 55,
      "y": 320,
      "size": 1,
      "price": "6950000000000000000000",
      "assetIds": [
        "35541503283276933796147438414694400616078274122459190822474961601238453471232",
        "35541503283276933796147438414694400616078274122459190822474961601238453471233",
        "35541503283276933796147438414694400616078274122459190822474961601238453471234",
        "35541503283276933796147438414694400616078274122459190822474961601238453471238"
      ]
    },
    {
      "x": 55,
      "y": 321,
      "size": 1,
      "price": "6950000000000000000000",
      "assetIds": [
        "35541503283276933796147438414694400616078274122459190822474961601238453471232",
        "35541503283276933796147438414694400616078274122459190822474961601238453471233",
        "35541503283276933796147438414694400616078274122459190822474961601238453471234",
        "35541503283276933796147438414694400616078274122459190822474961601238453471239"
      ]
    },
    {
      "x": 55,
      "y": 322,
      "size": 1,
      "price": "6950000000000000000000",
      "assetIds": [
        "35541503283276933796147438414694400616078274122459190822474961601238453471232",
        "35541503283276933796147438414694400616078274122459190822474961601238453471233",
        "35541503283276933796147438414694400616078274122459190822474961601238453471234",
        "35541503283276933796147438414694400616078274122459190822474961601238453471238"
      ]
    },
    {
      "x": 55,
      "y": 323,
      "size": 1,
      "price": "6950000000000000000000",
      "assetIds": [
        "35541503283276933796147438414694400616078274122459190822474961601238453471232",
        "35541503283276933796147438414694400616078274122459190822474961601238453471233",
        "35541503283276933796147438414694400616078274122459190822474961601238453471234",
        "35541503283276933796147438414694400616078274122459190822474961601238453471237"
      ]
    },
    {
      "x": 54,
      "y": 322,
      "size": 1,
      "price": "6950000000000000000000",
      "assetIds": [
        "35541503283276933796147438414694400616078274122459190822474961601238453471232",
        "35541503283276933796147438414694400616078274122459190822474961601238453471233",
        "35541503283276933796147438414694400616078274122459190822474961601238453471234",
        "35541503283276933796147438414694400616078274122459190822474961601238453471237"
      ]
    },
    {
      "x": 54,
      "y": 321,
      "size": 1,
      "price": "6950000000000000000000",
      "assetIds": [
        "35541503283276933796147438414694400616078274122459190822474961601238453471232",
        "35541503283276933796147438414694400616078274122459190822474961601238453471233",
        "35541503283276933796147438414694400616078274122459190822474961601238453471234",
        "35541503283276933796147438414694400616078274122459190822474961601238453471239"
      ]
    },
    {
      "x": 54,
      "y": 320,
      "size": 1,
      "price": "6950000000000000000000",
      "assetIds": [
        "35541503283276933796147438414694400616078274122459190822474961601238453471232",
        "35541503283276933796147438414694400616078274122459190822474961601238453471233",
        "35541503283276933796147438414694400616078274122459190822474961601238453471234",
        "35541503283276933796147438414694400616078274122459190822474961601238453471235"
      ]
    },
    {
      "x": 54,
      "y": 319,
      "size": 1,
      "price": "6950000000000000000000",
      "assetIds": [
        "35541503283276933796147438414694400616078274122459190822474961601238453471232",
        "35541503283276933796147438414694400616078274122459190822474961601238453471233",
        "35541503283276933796147438414694400616078274122459190822474961601238453471234",
        "35541503283276933796147438414694400616078274122459190822474961601238453471240"
      ]
    },
    {
      "x": 54,
      "y": 318,
      "size": 1,
      "price": "3000000000000000000000",
      "assetIds": []
    },
    {
      "x": 54,
      "y": 314,
      "size": 1,
      "price": "3000000000000000000000",
      "assetIds": []
    },
    {
      "x": 54,
      "y": 313,
      "size": 1,
      "price": "3000000000000000000000",
      "reserved": "0x7a9fe22691c811ea339d9b73150e6911a5343dca",
      "assetIds": []
    },
    {
      "x": 54,
      "y": 312,
      "size": 1,
      "price": "3000000000000000000000",
      "assetIds": []
    },
    {
      "x": 54,
      "y": 311,
      "size": 1,
      "price": "6950000000000000000000",
      "assetIds": [
        "35541503283276933796147438414694400616078274122459190822474961601238453471232",
        "35541503283276933796147438414694400616078274122459190822474961601238453471233",
        "35541503283276933796147438414694400616078274122459190822474961601238453471234",
        "35541503283276933796147438414694400616078274122459190822474961601238453471240"
      ]
    },
    {
      "x": 54,
      "y": 310,
      "size": 1,
      "price": "3000000000000000000000",
      "assetIds": []
    },
    {
      "x": 54,
      "y": 309,
      "size": 1,
      "price": "6950000000000000000000",
      "assetIds": [
        "35541503283276933796147438414694400616078274122459190822474961601238453471232",
        "35541503283276933796147438414694400616078274122459190822474961601238453471233",
        "35541503283276933796147438414694400616078274122459190822474961601238453471234",
        "35541503283276933796147438414694400616078274122459190822474961601238453471240"
      ]
    },
    {
      "x": 54,
      "y": 308,
      "size": 1,
      "price": "3000000000000000000000",
      "assetIds": []
    },
    {
      "x": 54,
      "y": 307,
      "size": 1,
      "price": "3000000000000000000000",
      "assetIds": []
    },
    {
      "x": 54,
      "y": 306,
      "size": 1,
      "price": "3000000000000000000000",
      "assetIds": []
    },
    {
      "x": 54,
      "y": 305,
      "size": 1,
      "price": "6950000000000000000000",
      "assetIds": [
        "35541503283276933796147438414694400616078274122459190822474961601238453471232",
        "35541503283276933796147438414694400616078274122459190822474961601238453471233",
        "35541503283276933796147438414694400616078274122459190822474961601238453471234",
        "35541503283276933796147438414694400616078274122459190822474961601238453471237"
      ]
    },
    {
      "x": 54,
      "y": 304,
      "size": 1,
      "price": "3000000000000000000000",
      "assetIds": []
    },
    {
      "x": 54,
      "y": 303,
      "size": 1,
      "price": "3000000000000000000000",
      "reserved": "0x7a9fe22691c811ea339d9b73150e6911a5343dca",
      "assetIds": []
    },
    {
      "x": 54,
      "y": 302,
      "size": 1,
      "price": "6950000000000000000000",
      "assetIds": [
        "35541503283276933796147438414694400616078274122459190822474961601238453471232",
        "35541503283276933796147438414694400616078274122459190822474961601238453471233",
        "35541503283276933796147438414694400616078274122459190822474961601238453471234",
        "35541503283276933796147438414694400616078274122459190822474961601238453471239"
      ]
    },
    {
      "x": 54,
      "y": 301,
      "size": 1,
      "price": "3000000000000000000000",
      "assetIds": []
    },
    {
      "x": 54,
      "y": 300,
      "size": 1,
      "price": "3000000000000000000000",
      "assetIds": []
    },
    {
      "x": 54,
      "y": 299,
      "size": 1,
      "price": "3000000000000000000000",
      "reserved": "0x7a9fe22691c811ea339d9b73150e6911a5343dca",
      "assetIds": []
    },
    {
      "x": 54,
      "y": 298,
      "size": 1,
      "price": "3000000000000000000000",
      "assetIds": []
    },
    {
      "x": 54,
      "y": 297,
      "size": 1,
      "price": "3000000000000000000000",
      "assetIds": []
    },
    {
      "x": 53,
      "y": 318,
      "size": 1,
      "price": "3000000000000000000000",
      "assetIds": []
    },
    {
      "x": 53,
      "y": 319,
      "size": 1,
      "price": "3000000000000000000000",
      "assetIds": []
    },
    {
      "x": 53,
      "y": 320,
      "size": 1,
      "price": "6950000000000000000000",
      "assetIds": [
        "35541503283276933796147438414694400616078274122459190822474961601238453471232",
        "35541503283276933796147438414694400616078274122459190822474961601238453471233",
        "35541503283276933796147438414694400616078274122459190822474961601238453471234",
        "35541503283276933796147438414694400616078274122459190822474961601238453471236"
      ]
    },
    {
      "x": 53,
      "y": 321,
      "size": 1,
      "price": "6950000000000000000000",
      "assetIds": [
        "35541503283276933796147438414694400616078274122459190822474961601238453471232",
        "35541503283276933796147438414694400616078274122459190822474961601238453471233",
        "35541503283276933796147438414694400616078274122459190822474961601238453471234",
        "35541503283276933796147438414694400616078274122459190822474961601238453471238"
      ]
    },
    {
      "x": 53,
      "y": 322,
      "size": 1,
      "price": "6950000000000000000000",
      "assetIds": [
        "35541503283276933796147438414694400616078274122459190822474961601238453471232",
        "35541503283276933796147438414694400616078274122459190822474961601238453471233",
        "35541503283276933796147438414694400616078274122459190822474961601238453471234",
        "35541503283276933796147438414694400616078274122459190822474961601238453471240"
      ]
    },
    {
      "x": 53,
      "y": 323,
      "size": 1,
      "price": "6950000000000000000000",
      "assetIds": [
        "35541503283276933796147438414694400616078274122459190822474961601238453471232",
        "35541503283276933796147438414694400616078274122459190822474961601238453471233",
        "35541503283276933796147438414694400616078274122459190822474961601238453471234",
        "35541503283276933796147438414694400616078274122459190822474961601238453471235"
      ]
    },
    {
      "x": 53,
      "y": 305,
      "size": 1,
      "price": "3000000000000000000000",
      "assetIds": []
    },
    {
      "x": 53,
      "y": 304,
      "size": 1,
      "price": "3000000000000000000000",
      "assetIds": []
    },
    {
      "x": 53,
      "y": 303,
      "size": 1,
      "price": "3000000000000000000000",
      "assetIds": []
    },
    {
      "x": 53,
      "y": 299,
      "size": 1,
      "price": "3000000000000000000000",
      "assetIds": []
    },
    {
      "x": 53,
      "y": 298,
      "size": 1,
      "price": "3000000000000000000000",
      "assetIds": []
    },
    {
      "x": 53,
      "y": 297,
      "size": 1,
      "price": "3000000000000000000000",
      "assetIds": []
    },
    {
      "x": 53,
      "y": 296,
      "size": 1,
      "price": "3000000000000000000000",
      "assetIds": []
    },
    {
      "x": 53,
      "y": 295,
      "size": 1,
      "price": "3000000000000000000000",
      "assetIds": []
    },
    {
      "x": 53,
      "y": 294,
      "size": 1,
      "price": "3000000000000000000000",
      "reserved": "0x7a9fe22691c811ea339d9b73150e6911a5343dca",
      "assetIds": []
    },
    {
      "x": 57,
      "y": 287,
      "size": 1,
      "price": "3000000000000000000000",
      "assetIds": []
    },
    {
      "x": 56,
      "y": 287,
      "size": 1,
      "price": "3000000000000000000000",
      "assetIds": []
    },
    {
      "x": 54,
      "y": 287,
      "size": 1,
      "price": "3000000000000000000000",
      "assetIds": []
    },
    {
      "x": 54,
      "y": 286,
      "size": 1,
      "price": "3000000000000000000000",
      "assetIds": []
    },
    {
      "x": 56,
      "y": 286,
      "size": 1,
      "price": "3000000000000000000000",
      "assetIds": []
    },
    {
      "x": 56,
      "y": 285,
      "size": 1,
      "price": "3000000000000000000000",
      "assetIds": []
    },
    {
      "x": 57,
      "y": 285,
      "size": 1,
      "price": "3000000000000000000000",
      "assetIds": []
    },
    {
      "x": 54,
      "y": 285,
      "size": 1,
      "price": "3000000000000000000000",
      "assetIds": []
    },
    {
      "x": 55,
      "y": 285,
      "size": 1,
      "price": "3000000000000000000000",
      "assetIds": []
    },
    {
      "x": 57,
      "y": 286,
      "size": 1,
      "price": "3000000000000000000000",
      "assetIds": []
    },
    {
      "x": 54,
      "y": 323,
      "size": 1,
      "price": "6950000000000000000000",
      "assetIds": [
        "35541503283276933796147438414694400616078274122459190822474961601238453471232",
        "35541503283276933796147438414694400616078274122459190822474961601238453471233",
        "35541503283276933796147438414694400616078274122459190822474961601238453471234",
        "35541503283276933796147438414694400616078274122459190822474961601238453471235"
      ]
    },
    {
      "x": 59,
      "y": 341,
      "size": 1,
      "price": "3000000000000000000000",
      "assetIds": []
    },
    {
      "x": 58,
      "y": 341,
      "size": 1,
      "price": "3000000000000000000000",
      "assetIds": []
    },
    {
      "x": 57,
      "y": 341,
      "size": 1,
      "price": "3000000000000000000000",
      "reserved": "0x7a9fe22691c811ea339d9b73150e6911a5343dca",
      "assetIds": []
    },
    {
      "x": 56,
      "y": 341,
      "size": 1,
      "price": "3000000000000000000000",
      "assetIds": []
    },
    {
      "x": 55,
      "y": 341,
      "size": 1,
      "price": "6950000000000000000000",
      "assetIds": [
        "35541503283276933796147438414694400616078274122459190822474961601238453471232",
        "35541503283276933796147438414694400616078274122459190822474961601238453471233",
        "35541503283276933796147438414694400616078274122459190822474961601238453471234",
        "35541503283276933796147438414694400616078274122459190822474961601238453471238"
      ]
    },
    {
      "x": 54,
      "y": 341,
      "size": 1,
      "price": "3000000000000000000000",
      "reserved": "0x7a9fe22691c811ea339d9b73150e6911a5343dca",
      "assetIds": []
    },
    {
      "x": 53,
      "y": 341,
      "size": 1,
      "price": "6950000000000000000000",
      "assetIds": [
        "35541503283276933796147438414694400616078274122459190822474961601238453471232",
        "35541503283276933796147438414694400616078274122459190822474961601238453471233",
        "35541503283276933796147438414694400616078274122459190822474961601238453471234",
        "35541503283276933796147438414694400616078274122459190822474961601238453471239"
      ]
    },
    {
      "x": 52,
      "y": 341,
      "size": 1,
      "price": "3000000000000000000000",
      "assetIds": []
    },
    {
      "x": 51,
      "y": 341,
      "size": 1,
      "price": "3000000000000000000000",
      "reserved": "0x7a9fe22691c811ea339d9b73150e6911a5343dca",
      "assetIds": []
    },
    {
      "x": 50,
      "y": 341,
      "size": 1,
      "price": "6950000000000000000000",
      "assetIds": [
        "35541503283276933796147438414694400616078274122459190822474961601238453471232",
        "35541503283276933796147438414694400616078274122459190822474961601238453471233",
        "35541503283276933796147438414694400616078274122459190822474961601238453471234",
        "35541503283276933796147438414694400616078274122459190822474961601238453471240"
      ]
    },
    {
      "x": 49,
      "y": 341,
      "size": 1,
      "price": "3000000000000000000000",
      "assetIds": []
    },
    {
      "x": 48,
      "y": 341,
      "size": 1,
      "price": "3000000000000000000000",
      "reserved": "0x7a9fe22691c811ea339d9b73150e6911a5343dca",
      "assetIds": []
    },
    {
      "x": 47,
      "y": 340,
      "size": 1,
      "price": "3000000000000000000000",
      "assetIds": []
    },
    {
      "x": 47,
      "y": 338,
      "size": 1,
      "price": "6950000000000000000000",
      "assetIds": [
        "35541503283276933796147438414694400616078274122459190822474961601238453471232",
        "35541503283276933796147438414694400616078274122459190822474961601238453471233",
        "35541503283276933796147438414694400616078274122459190822474961601238453471234",
        "35541503283276933796147438414694400616078274122459190822474961601238453471237"
      ]
    },
    {
      "x": 47,
      "y": 337,
      "size": 1,
      "price": "6950000000000000000000",
      "assetIds": [
        "35541503283276933796147438414694400616078274122459190822474961601238453471232",
        "35541503283276933796147438414694400616078274122459190822474961601238453471233",
        "35541503283276933796147438414694400616078274122459190822474961601238453471234",
        "35541503283276933796147438414694400616078274122459190822474961601238453471236"
      ]
    },
    {
      "x": 47,
      "y": 336,
      "size": 1,
      "price": "6950000000000000000000",
      "assetIds": [
        "35541503283276933796147438414694400616078274122459190822474961601238453471232",
        "35541503283276933796147438414694400616078274122459190822474961601238453471233",
        "35541503283276933796147438414694400616078274122459190822474961601238453471234",
        "35541503283276933796147438414694400616078274122459190822474961601238453471235"
      ]
    },
    {
      "x": 47,
      "y": 335,
      "size": 1,
      "price": "6950000000000000000000",
      "assetIds": [
        "35541503283276933796147438414694400616078274122459190822474961601238453471232",
        "35541503283276933796147438414694400616078274122459190822474961601238453471233",
        "35541503283276933796147438414694400616078274122459190822474961601238453471234",
        "35541503283276933796147438414694400616078274122459190822474961601238453471235"
      ]
    },
    {
      "x": 58,
      "y": 338,
      "size": 1,
      "price": "6950000000000000000000",
      "assetIds": [
        "35541503283276933796147438414694400616078274122459190822474961601238453471232",
        "35541503283276933796147438414694400616078274122459190822474961601238453471233",
        "35541503283276933796147438414694400616078274122459190822474961601238453471234",
        "35541503283276933796147438414694400616078274122459190822474961601238453471235"
      ]
    },
    {
      "x": 57,
      "y": 338,
      "size": 1,
      "price": "6950000000000000000000",
      "assetIds": [
        "35541503283276933796147438414694400616078274122459190822474961601238453471232",
        "35541503283276933796147438414694400616078274122459190822474961601238453471233",
        "35541503283276933796147438414694400616078274122459190822474961601238453471234",
        "35541503283276933796147438414694400616078274122459190822474961601238453471235"
      ]
    },
    {
      "x": 56,
      "y": 338,
      "size": 1,
      "price": "6950000000000000000000",
      "assetIds": [
        "35541503283276933796147438414694400616078274122459190822474961601238453471232",
        "35541503283276933796147438414694400616078274122459190822474961601238453471233",
        "35541503283276933796147438414694400616078274122459190822474961601238453471234",
        "35541503283276933796147438414694400616078274122459190822474961601238453471239"
      ]
    },
    {
      "x": 56,
      "y": 339,
      "size": 1,
      "price": "3000000000000000000000",
      "reserved": "0x7a9fe22691c811ea339d9b73150e6911a5343dca",
      "assetIds": []
    },
    {
      "x": 55,
      "y": 339,
      "size": 1,
      "price": "6950000000000000000000",
      "assetIds": [
        "35541503283276933796147438414694400616078274122459190822474961601238453471232",
        "35541503283276933796147438414694400616078274122459190822474961601238453471233",
        "35541503283276933796147438414694400616078274122459190822474961601238453471234",
        "35541503283276933796147438414694400616078274122459190822474961601238453471236"
      ]
    },
    {
      "x": 54,
      "y": 338,
      "size": 1,
      "price": "6950000000000000000000",
      "assetIds": [
        "35541503283276933796147438414694400616078274122459190822474961601238453471232",
        "35541503283276933796147438414694400616078274122459190822474961601238453471233",
        "35541503283276933796147438414694400616078274122459190822474961601238453471234",
        "35541503283276933796147438414694400616078274122459190822474961601238453471240"
      ]
    },
    {
      "x": 53,
      "y": 338,
      "size": 1,
      "price": "3000000000000000000000",
      "reserved": "0x7a9fe22691c811ea339d9b73150e6911a5343dca",
      "assetIds": []
    },
    {
      "x": 52,
      "y": 338,
      "size": 1,
      "price": "6950000000000000000000",
      "assetIds": [
        "35541503283276933796147438414694400616078274122459190822474961601238453471232",
        "35541503283276933796147438414694400616078274122459190822474961601238453471233",
        "35541503283276933796147438414694400616078274122459190822474961601238453471234",
        "35541503283276933796147438414694400616078274122459190822474961601238453471238"
      ]
    },
    {
      "x": 51,
      "y": 337,
      "size": 1,
      "price": "6950000000000000000000",
      "assetIds": [
        "35541503283276933796147438414694400616078274122459190822474961601238453471232",
        "35541503283276933796147438414694400616078274122459190822474961601238453471233",
        "35541503283276933796147438414694400616078274122459190822474961601238453471234",
        "35541503283276933796147438414694400616078274122459190822474961601238453471240"
      ]
    },
    {
      "x": 51,
      "y": 336,
      "size": 1,
      "price": "3000000000000000000000",
      "reserved": "0x7a9fe22691c811ea339d9b73150e6911a5343dca",
      "assetIds": []
    },
    {
      "x": 57,
      "y": 336,
      "size": 1,
      "price": "6950000000000000000000",
      "assetIds": [
        "35541503283276933796147438414694400616078274122459190822474961601238453471232",
        "35541503283276933796147438414694400616078274122459190822474961601238453471233",
        "35541503283276933796147438414694400616078274122459190822474961601238453471234",
        "35541503283276933796147438414694400616078274122459190822474961601238453471236"
      ]
    },
    {
      "x": 57,
      "y": 337,
      "size": 1,
      "price": "6950000000000000000000",
      "assetIds": [
        "35541503283276933796147438414694400616078274122459190822474961601238453471232",
        "35541503283276933796147438414694400616078274122459190822474961601238453471233",
        "35541503283276933796147438414694400616078274122459190822474961601238453471234",
        "35541503283276933796147438414694400616078274122459190822474961601238453471235"
      ]
    },
    {
      "x": 54,
      "y": 339,
      "size": 1,
      "price": "6950000000000000000000",
      "assetIds": [
        "35541503283276933796147438414694400616078274122459190822474961601238453471232",
        "35541503283276933796147438414694400616078274122459190822474961601238453471233",
        "35541503283276933796147438414694400616078274122459190822474961601238453471234",
        "35541503283276933796147438414694400616078274122459190822474961601238453471239"
      ]
    },
    {
      "x": 53,
      "y": 339,
      "size": 1,
      "price": "6950000000000000000000",
      "assetIds": [
        "35541503283276933796147438414694400616078274122459190822474961601238453471232",
        "35541503283276933796147438414694400616078274122459190822474961601238453471233",
        "35541503283276933796147438414694400616078274122459190822474961601238453471234",
        "35541503283276933796147438414694400616078274122459190822474961601238453471237"
      ]
    },
    {
      "x": 52,
      "y": 339,
      "size": 1,
      "price": "6950000000000000000000",
      "assetIds": [
        "35541503283276933796147438414694400616078274122459190822474961601238453471232",
        "35541503283276933796147438414694400616078274122459190822474961601238453471233",
        "35541503283276933796147438414694400616078274122459190822474961601238453471234",
        "35541503283276933796147438414694400616078274122459190822474961601238453471235"
      ]
    },
    {
      "x": 51,
      "y": 339,
      "size": 1,
      "price": "6950000000000000000000",
      "assetIds": [
        "35541503283276933796147438414694400616078274122459190822474961601238453471232",
        "35541503283276933796147438414694400616078274122459190822474961601238453471233",
        "35541503283276933796147438414694400616078274122459190822474961601238453471234",
        "35541503283276933796147438414694400616078274122459190822474961601238453471238"
      ]
    },
    {
      "x": 50,
      "y": 338,
      "size": 1,
      "price": "6950000000000000000000",
      "assetIds": [
        "35541503283276933796147438414694400616078274122459190822474961601238453471232",
        "35541503283276933796147438414694400616078274122459190822474961601238453471233",
        "35541503283276933796147438414694400616078274122459190822474961601238453471234",
        "35541503283276933796147438414694400616078274122459190822474961601238453471239"
      ]
    },
    {
      "x": 49,
      "y": 338,
      "size": 1,
      "price": "3000000000000000000000",
      "reserved": "0x7a9fe22691c811ea339d9b73150e6911a5343dca",
      "assetIds": []
    },
    {
      "x": 48,
      "y": 338,
      "size": 1,
      "price": "6950000000000000000000",
      "assetIds": [
        "35541503283276933796147438414694400616078274122459190822474961601238453471232",
        "35541503283276933796147438414694400616078274122459190822474961601238453471233",
        "35541503283276933796147438414694400616078274122459190822474961601238453471234",
        "35541503283276933796147438414694400616078274122459190822474961601238453471236"
      ]
    },
    {
      "x": 46,
      "y": 338,
      "size": 1,
      "price": "6950000000000000000000",
      "assetIds": [
        "35541503283276933796147438414694400616078274122459190822474961601238453471232",
        "35541503283276933796147438414694400616078274122459190822474961601238453471233",
        "35541503283276933796147438414694400616078274122459190822474961601238453471234",
        "35541503283276933796147438414694400616078274122459190822474961601238453471236"
      ]
    },
    {
      "x": 49,
      "y": 339,
      "size": 1,
      "price": "6950000000000000000000",
      "assetIds": [
        "35541503283276933796147438414694400616078274122459190822474961601238453471232",
        "35541503283276933796147438414694400616078274122459190822474961601238453471233",
        "35541503283276933796147438414694400616078274122459190822474961601238453471234",
        "35541503283276933796147438414694400616078274122459190822474961601238453471235"
      ]
    },
    {
      "x": 52,
      "y": 340,
      "size": 1,
      "price": "6950000000000000000000",
      "assetIds": [
        "35541503283276933796147438414694400616078274122459190822474961601238453471232",
        "35541503283276933796147438414694400616078274122459190822474961601238453471233",
        "35541503283276933796147438414694400616078274122459190822474961601238453471234",
        "35541503283276933796147438414694400616078274122459190822474961601238453471240"
      ]
    },
    {
      "x": 53,
      "y": 340,
      "size": 1,
      "price": "6950000000000000000000",
      "assetIds": [
        "35541503283276933796147438414694400616078274122459190822474961601238453471232",
        "35541503283276933796147438414694400616078274122459190822474961601238453471233",
        "35541503283276933796147438414694400616078274122459190822474961601238453471234",
        "35541503283276933796147438414694400616078274122459190822474961601238453471239"
      ]
    },
    {
      "x": 54,
      "y": 340,
      "size": 1,
      "price": "6950000000000000000000",
      "assetIds": [
        "35541503283276933796147438414694400616078274122459190822474961601238453471232",
        "35541503283276933796147438414694400616078274122459190822474961601238453471233",
        "35541503283276933796147438414694400616078274122459190822474961601238453471234",
        "35541503283276933796147438414694400616078274122459190822474961601238453471239"
      ]
    },
    {
      "x": 55,
      "y": 340,
      "size": 1,
      "price": "6950000000000000000000",
      "assetIds": [
        "35541503283276933796147438414694400616078274122459190822474961601238453471232",
        "35541503283276933796147438414694400616078274122459190822474961601238453471233",
        "35541503283276933796147438414694400616078274122459190822474961601238453471234",
        "35541503283276933796147438414694400616078274122459190822474961601238453471240"
      ]
    },
    {
      "x": 56,
      "y": 340,
      "size": 1,
      "price": "6950000000000000000000",
      "assetIds": [
        "35541503283276933796147438414694400616078274122459190822474961601238453471232",
        "35541503283276933796147438414694400616078274122459190822474961601238453471233",
        "35541503283276933796147438414694400616078274122459190822474961601238453471234",
        "35541503283276933796147438414694400616078274122459190822474961601238453471238"
      ]
    },
    {
      "x": 57,
      "y": 340,
      "size": 1,
      "price": "6950000000000000000000",
      "assetIds": [
        "35541503283276933796147438414694400616078274122459190822474961601238453471232",
        "35541503283276933796147438414694400616078274122459190822474961601238453471233",
        "35541503283276933796147438414694400616078274122459190822474961601238453471234",
        "35541503283276933796147438414694400616078274122459190822474961601238453471235"
      ]
    },
    {
      "x": 59,
      "y": 340,
      "size": 1,
      "price": "6950000000000000000000",
      "assetIds": [
        "35541503283276933796147438414694400616078274122459190822474961601238453471232",
        "35541503283276933796147438414694400616078274122459190822474961601238453471233",
        "35541503283276933796147438414694400616078274122459190822474961601238453471234",
        "35541503283276933796147438414694400616078274122459190822474961601238453471236"
      ]
    },
    {
      "x": 58,
      "y": 340,
      "size": 1,
      "price": "6950000000000000000000",
      "assetIds": [
        "35541503283276933796147438414694400616078274122459190822474961601238453471232",
        "35541503283276933796147438414694400616078274122459190822474961601238453471233",
        "35541503283276933796147438414694400616078274122459190822474961601238453471234",
        "35541503283276933796147438414694400616078274122459190822474961601238453471239"
      ]
    },
    {
      "x": 51,
      "y": 340,
      "size": 1,
      "price": "6950000000000000000000",
      "assetIds": [
        "35541503283276933796147438414694400616078274122459190822474961601238453471232",
        "35541503283276933796147438414694400616078274122459190822474961601238453471233",
        "35541503283276933796147438414694400616078274122459190822474961601238453471234",
        "35541503283276933796147438414694400616078274122459190822474961601238453471236"
      ]
    },
    {
      "x": 50,
      "y": 340,
      "size": 1,
      "price": "6950000000000000000000",
      "assetIds": [
        "35541503283276933796147438414694400616078274122459190822474961601238453471232",
        "35541503283276933796147438414694400616078274122459190822474961601238453471233",
        "35541503283276933796147438414694400616078274122459190822474961601238453471234",
        "35541503283276933796147438414694400616078274122459190822474961601238453471235"
      ]
    },
    {
      "x": 48,
      "y": 340,
      "size": 1,
      "price": "6950000000000000000000",
      "assetIds": [
        "35541503283276933796147438414694400616078274122459190822474961601238453471232",
        "35541503283276933796147438414694400616078274122459190822474961601238453471233",
        "35541503283276933796147438414694400616078274122459190822474961601238453471234",
        "35541503283276933796147438414694400616078274122459190822474961601238453471239"
      ]
    },
    {
      "x": 46,
      "y": 340,
      "size": 1,
      "price": "3000000000000000000000",
      "assetIds": []
    },
    {
      "x": 49,
      "y": 340,
      "size": 1,
      "price": "6950000000000000000000",
      "assetIds": [
        "35541503283276933796147438414694400616078274122459190822474961601238453471232",
        "35541503283276933796147438414694400616078274122459190822474961601238453471233",
        "35541503283276933796147438414694400616078274122459190822474961601238453471234",
        "35541503283276933796147438414694400616078274122459190822474961601238453471235"
      ]
    },
    {
      "x": 57,
      "y": 339,
      "size": 1,
      "price": "6950000000000000000000",
      "assetIds": [
        "35541503283276933796147438414694400616078274122459190822474961601238453471232",
        "35541503283276933796147438414694400616078274122459190822474961601238453471233",
        "35541503283276933796147438414694400616078274122459190822474961601238453471234",
        "35541503283276933796147438414694400616078274122459190822474961601238453471236"
      ]
    },
    {
      "x": 58,
      "y": 339,
      "size": 1,
      "price": "6950000000000000000000",
      "assetIds": [
        "35541503283276933796147438414694400616078274122459190822474961601238453471232",
        "35541503283276933796147438414694400616078274122459190822474961601238453471233",
        "35541503283276933796147438414694400616078274122459190822474961601238453471234",
        "35541503283276933796147438414694400616078274122459190822474961601238453471237"
      ]
    },
    {
      "x": 59,
      "y": 339,
      "size": 1,
      "price": "6950000000000000000000",
      "assetIds": [
        "35541503283276933796147438414694400616078274122459190822474961601238453471232",
        "35541503283276933796147438414694400616078274122459190822474961601238453471233",
        "35541503283276933796147438414694400616078274122459190822474961601238453471234",
        "35541503283276933796147438414694400616078274122459190822474961601238453471240"
      ]
    },
    {
      "x": 50,
      "y": 339,
      "size": 1,
      "price": "6950000000000000000000",
      "assetIds": [
        "35541503283276933796147438414694400616078274122459190822474961601238453471232",
        "35541503283276933796147438414694400616078274122459190822474961601238453471233",
        "35541503283276933796147438414694400616078274122459190822474961601238453471234",
        "35541503283276933796147438414694400616078274122459190822474961601238453471235"
      ]
    },
    {
      "x": 48,
      "y": 339,
      "size": 1,
      "price": "6950000000000000000000",
      "assetIds": [
        "35541503283276933796147438414694400616078274122459190822474961601238453471232",
        "35541503283276933796147438414694400616078274122459190822474961601238453471233",
        "35541503283276933796147438414694400616078274122459190822474961601238453471234",
        "35541503283276933796147438414694400616078274122459190822474961601238453471240"
      ]
    },
    {
      "x": 46,
      "y": 339,
      "size": 1,
      "price": "6950000000000000000000",
      "assetIds": [
        "35541503283276933796147438414694400616078274122459190822474961601238453471232",
        "35541503283276933796147438414694400616078274122459190822474961601238453471233",
        "35541503283276933796147438414694400616078274122459190822474961601238453471234",
        "35541503283276933796147438414694400616078274122459190822474961601238453471240"
      ]
    },
    {
      "x": 51,
      "y": 338,
      "size": 1,
      "price": "6950000000000000000000",
      "assetIds": [
        "35541503283276933796147438414694400616078274122459190822474961601238453471232",
        "35541503283276933796147438414694400616078274122459190822474961601238453471233",
        "35541503283276933796147438414694400616078274122459190822474961601238453471234",
        "35541503283276933796147438414694400616078274122459190822474961601238453471235"
      ]
    },
    {
      "x": 55,
      "y": 338,
      "size": 1,
      "price": "6950000000000000000000",
      "assetIds": [
        "35541503283276933796147438414694400616078274122459190822474961601238453471232",
        "35541503283276933796147438414694400616078274122459190822474961601238453471233",
        "35541503283276933796147438414694400616078274122459190822474961601238453471234",
        "35541503283276933796147438414694400616078274122459190822474961601238453471237"
      ]
    },
    {
      "x": 56,
      "y": 337,
      "size": 1,
      "price": "6950000000000000000000",
      "assetIds": [
        "35541503283276933796147438414694400616078274122459190822474961601238453471232",
        "35541503283276933796147438414694400616078274122459190822474961601238453471233",
        "35541503283276933796147438414694400616078274122459190822474961601238453471234",
        "35541503283276933796147438414694400616078274122459190822474961601238453471236"
      ]
    },
    {
      "x": 55,
      "y": 337,
      "size": 1,
      "price": "6950000000000000000000",
      "assetIds": [
        "35541503283276933796147438414694400616078274122459190822474961601238453471232",
        "35541503283276933796147438414694400616078274122459190822474961601238453471233",
        "35541503283276933796147438414694400616078274122459190822474961601238453471234",
        "35541503283276933796147438414694400616078274122459190822474961601238453471237"
      ]
    },
    {
      "x": 53,
      "y": 337,
      "size": 1,
      "price": "6950000000000000000000",
      "assetIds": [
        "35541503283276933796147438414694400616078274122459190822474961601238453471232",
        "35541503283276933796147438414694400616078274122459190822474961601238453471233",
        "35541503283276933796147438414694400616078274122459190822474961601238453471234",
        "35541503283276933796147438414694400616078274122459190822474961601238453471237"
      ]
    },
    {
      "x": 49,
      "y": 337,
      "size": 1,
      "price": "6950000000000000000000",
      "assetIds": [
        "35541503283276933796147438414694400616078274122459190822474961601238453471232",
        "35541503283276933796147438414694400616078274122459190822474961601238453471233",
        "35541503283276933796147438414694400616078274122459190822474961601238453471234",
        "35541503283276933796147438414694400616078274122459190822474961601238453471236"
      ]
    },
    {
      "x": 48,
      "y": 337,
      "size": 1,
      "price": "6950000000000000000000",
      "assetIds": [
        "35541503283276933796147438414694400616078274122459190822474961601238453471232",
        "35541503283276933796147438414694400616078274122459190822474961601238453471233",
        "35541503283276933796147438414694400616078274122459190822474961601238453471234",
        "35541503283276933796147438414694400616078274122459190822474961601238453471238"
      ]
    },
    {
      "x": 47,
      "y": 339,
      "size": 1,
      "price": "3000000000000000000000",
      "reserved": "0x7a9fe22691c811ea339d9b73150e6911a5343dca",
      "assetIds": []
    },
    {
      "x": 46,
      "y": 337,
      "size": 1,
      "price": "6950000000000000000000",
      "assetIds": [
        "35541503283276933796147438414694400616078274122459190822474961601238453471232",
        "35541503283276933796147438414694400616078274122459190822474961601238453471233",
        "35541503283276933796147438414694400616078274122459190822474961601238453471234",
        "35541503283276933796147438414694400616078274122459190822474961601238453471236"
      ]
    },
    {
      "x": 45,
      "y": 337,
      "size": 1,
      "price": "6950000000000000000000",
      "assetIds": [
        "35541503283276933796147438414694400616078274122459190822474961601238453471232",
        "35541503283276933796147438414694400616078274122459190822474961601238453471233",
        "35541503283276933796147438414694400616078274122459190822474961601238453471234",
        "35541503283276933796147438414694400616078274122459190822474961601238453471238"
      ]
    },
    {
      "x": 45,
      "y": 336,
      "size": 1,
      "price": "3000000000000000000000",
      "reserved": "0x7a9fe22691c811ea339d9b73150e6911a5343dca",
      "assetIds": []
    },
    {
      "x": 44,
      "y": 336,
      "size": 1,
      "price": "6950000000000000000000",
      "assetIds": [
        "35541503283276933796147438414694400616078274122459190822474961601238453471232",
        "35541503283276933796147438414694400616078274122459190822474961601238453471233",
        "35541503283276933796147438414694400616078274122459190822474961601238453471234",
        "35541503283276933796147438414694400616078274122459190822474961601238453471236"
      ]
    },
    {
      "x": 46,
      "y": 336,
      "size": 1,
      "price": "6950000000000000000000",
      "assetIds": [
        "35541503283276933796147438414694400616078274122459190822474961601238453471232",
        "35541503283276933796147438414694400616078274122459190822474961601238453471233",
        "35541503283276933796147438414694400616078274122459190822474961601238453471234",
        "35541503283276933796147438414694400616078274122459190822474961601238453471237"
      ]
    },
    {
      "x": 48,
      "y": 336,
      "size": 1,
      "price": "6950000000000000000000",
      "assetIds": [
        "35541503283276933796147438414694400616078274122459190822474961601238453471232",
        "35541503283276933796147438414694400616078274122459190822474961601238453471233",
        "35541503283276933796147438414694400616078274122459190822474961601238453471234",
        "35541503283276933796147438414694400616078274122459190822474961601238453471238"
      ]
    },
    {
      "x": 49,
      "y": 336,
      "size": 1,
      "price": "6950000000000000000000",
      "assetIds": [
        "35541503283276933796147438414694400616078274122459190822474961601238453471232",
        "35541503283276933796147438414694400616078274122459190822474961601238453471233",
        "35541503283276933796147438414694400616078274122459190822474961601238453471234",
        "35541503283276933796147438414694400616078274122459190822474961601238453471237"
      ]
    },
    {
      "x": 50,
      "y": 336,
      "size": 1,
      "price": "6950000000000000000000",
      "assetIds": [
        "35541503283276933796147438414694400616078274122459190822474961601238453471232",
        "35541503283276933796147438414694400616078274122459190822474961601238453471233",
        "35541503283276933796147438414694400616078274122459190822474961601238453471234",
        "35541503283276933796147438414694400616078274122459190822474961601238453471237"
      ]
    },
    {
      "x": 53,
      "y": 336,
      "size": 1,
      "price": "6950000000000000000000",
      "assetIds": [
        "35541503283276933796147438414694400616078274122459190822474961601238453471232",
        "35541503283276933796147438414694400616078274122459190822474961601238453471233",
        "35541503283276933796147438414694400616078274122459190822474961601238453471234",
        "35541503283276933796147438414694400616078274122459190822474961601238453471236"
      ]
    },
    {
      "x": 54,
      "y": 336,
      "size": 1,
      "price": "6950000000000000000000",
      "assetIds": [
        "35541503283276933796147438414694400616078274122459190822474961601238453471232",
        "35541503283276933796147438414694400616078274122459190822474961601238453471233",
        "35541503283276933796147438414694400616078274122459190822474961601238453471234",
        "35541503283276933796147438414694400616078274122459190822474961601238453471240"
      ]
    },
    {
      "x": 55,
      "y": 336,
      "size": 1,
      "price": "6950000000000000000000",
      "assetIds": [
        "35541503283276933796147438414694400616078274122459190822474961601238453471232",
        "35541503283276933796147438414694400616078274122459190822474961601238453471233",
        "35541503283276933796147438414694400616078274122459190822474961601238453471234",
        "35541503283276933796147438414694400616078274122459190822474961601238453471239"
      ]
    },
    {
      "x": 56,
      "y": 336,
      "size": 1,
      "price": "6950000000000000000000",
      "assetIds": [
        "35541503283276933796147438414694400616078274122459190822474961601238453471232",
        "35541503283276933796147438414694400616078274122459190822474961601238453471233",
        "35541503283276933796147438414694400616078274122459190822474961601238453471234",
        "35541503283276933796147438414694400616078274122459190822474961601238453471236"
      ]
    },
    {
      "x": 59,
      "y": 336,
      "size": 1,
      "price": "6950000000000000000000",
      "assetIds": [
        "35541503283276933796147438414694400616078274122459190822474961601238453471232",
        "35541503283276933796147438414694400616078274122459190822474961601238453471233",
        "35541503283276933796147438414694400616078274122459190822474961601238453471234",
        "35541503283276933796147438414694400616078274122459190822474961601238453471240"
      ]
    },
    {
      "x": 52,
      "y": 336,
      "size": 1,
      "price": "6950000000000000000000",
      "assetIds": [
        "35541503283276933796147438414694400616078274122459190822474961601238453471232",
        "35541503283276933796147438414694400616078274122459190822474961601238453471233",
        "35541503283276933796147438414694400616078274122459190822474961601238453471234",
        "35541503283276933796147438414694400616078274122459190822474961601238453471237"
      ]
    },
    {
      "x": 50,
      "y": 337,
      "size": 1,
      "price": "6950000000000000000000",
      "assetIds": [
        "35541503283276933796147438414694400616078274122459190822474961601238453471232",
        "35541503283276933796147438414694400616078274122459190822474961601238453471233",
        "35541503283276933796147438414694400616078274122459190822474961601238453471234",
        "35541503283276933796147438414694400616078274122459190822474961601238453471239"
      ]
    },
    {
      "x": 52,
      "y": 337,
      "size": 1,
      "price": "6950000000000000000000",
      "assetIds": [
        "35541503283276933796147438414694400616078274122459190822474961601238453471232",
        "35541503283276933796147438414694400616078274122459190822474961601238453471233",
        "35541503283276933796147438414694400616078274122459190822474961601238453471234",
        "35541503283276933796147438414694400616078274122459190822474961601238453471239"
      ]
    },
    {
      "x": 54,
      "y": 337,
      "size": 1,
      "price": "6950000000000000000000",
      "assetIds": [
        "35541503283276933796147438414694400616078274122459190822474961601238453471232",
        "35541503283276933796147438414694400616078274122459190822474961601238453471233",
        "35541503283276933796147438414694400616078274122459190822474961601238453471234",
        "35541503283276933796147438414694400616078274122459190822474961601238453471240"
      ]
    },
    {
      "x": 44,
      "y": 337,
      "size": 1,
      "price": "6950000000000000000000",
      "assetIds": [
        "35541503283276933796147438414694400616078274122459190822474961601238453471232",
        "35541503283276933796147438414694400616078274122459190822474961601238453471233",
        "35541503283276933796147438414694400616078274122459190822474961601238453471234",
        "35541503283276933796147438414694400616078274122459190822474961601238453471237"
      ]
    },
    {
      "x": 52,
      "y": 294,
      "size": 1,
      "price": "3000000000000000000000",
      "assetIds": []
    },
    {
      "x": 52,
      "y": 295,
      "size": 1,
      "price": "3000000000000000000000",
      "assetIds": []
    },
    {
      "x": 52,
      "y": 296,
      "size": 1,
      "price": "3000000000000000000000",
      "assetIds": []
    },
    {
      "x": 52,
      "y": 297,
      "size": 1,
      "price": "3000000000000000000000",
      "reserved": "0x7a9fe22691c811ea339d9b73150e6911a5343dca",
      "assetIds": []
    },
    {
      "x": 52,
      "y": 298,
      "size": 1,
      "price": "3000000000000000000000",
      "assetIds": []
    },
    {
      "x": 52,
      "y": 299,
      "size": 1,
      "price": "3000000000000000000000",
      "assetIds": []
    },
    {
      "x": 52,
      "y": 303,
      "size": 1,
      "price": "3000000000000000000000",
      "assetIds": []
    },
    {
      "x": 52,
      "y": 304,
      "size": 1,
      "price": "3000000000000000000000",
      "assetIds": []
    },
    {
      "x": 52,
      "y": 305,
      "size": 1,
      "price": "3000000000000000000000",
      "assetIds": []
    },
    {
      "x": 52,
      "y": 318,
      "size": 1,
      "price": "3000000000000000000000",
      "reserved": "0x7a9fe22691c811ea339d9b73150e6911a5343dca",
      "assetIds": []
    },
    {
      "x": 52,
      "y": 319,
      "size": 1,
      "price": "6950000000000000000000",
      "assetIds": [
        "35541503283276933796147438414694400616078274122459190822474961601238453471232",
        "35541503283276933796147438414694400616078274122459190822474961601238453471233",
        "35541503283276933796147438414694400616078274122459190822474961601238453471234",
        "35541503283276933796147438414694400616078274122459190822474961601238453471240"
      ]
    },
    {
      "x": 52,
      "y": 320,
      "size": 1,
      "price": "6950000000000000000000",
      "assetIds": [
        "35541503283276933796147438414694400616078274122459190822474961601238453471232",
        "35541503283276933796147438414694400616078274122459190822474961601238453471233",
        "35541503283276933796147438414694400616078274122459190822474961601238453471234",
        "35541503283276933796147438414694400616078274122459190822474961601238453471240"
      ]
    },
    {
      "x": 52,
      "y": 321,
      "size": 1,
      "price": "6950000000000000000000",
      "assetIds": [
        "35541503283276933796147438414694400616078274122459190822474961601238453471232",
        "35541503283276933796147438414694400616078274122459190822474961601238453471233",
        "35541503283276933796147438414694400616078274122459190822474961601238453471234",
        "35541503283276933796147438414694400616078274122459190822474961601238453471236"
      ]
    },
    {
      "x": 52,
      "y": 322,
      "size": 1,
      "price": "3000000000000000000000",
      "reserved": "0x7a9fe22691c811ea339d9b73150e6911a5343dca",
      "assetIds": []
    },
    {
      "x": 52,
      "y": 323,
      "size": 1,
      "price": "6950000000000000000000",
      "assetIds": [
        "35541503283276933796147438414694400616078274122459190822474961601238453471232",
        "35541503283276933796147438414694400616078274122459190822474961601238453471233",
        "35541503283276933796147438414694400616078274122459190822474961601238453471234",
        "35541503283276933796147438414694400616078274122459190822474961601238453471238"
      ]
    },
    {
      "x": 51,
      "y": 323,
      "size": 1,
      "price": "6950000000000000000000",
      "assetIds": [
        "35541503283276933796147438414694400616078274122459190822474961601238453471232",
        "35541503283276933796147438414694400616078274122459190822474961601238453471233",
        "35541503283276933796147438414694400616078274122459190822474961601238453471234",
        "35541503283276933796147438414694400616078274122459190822474961601238453471238"
      ]
    },
    {
      "x": 51,
      "y": 322,
      "size": 1,
      "price": "6950000000000000000000",
      "assetIds": [
        "35541503283276933796147438414694400616078274122459190822474961601238453471232",
        "35541503283276933796147438414694400616078274122459190822474961601238453471233",
        "35541503283276933796147438414694400616078274122459190822474961601238453471234",
        "35541503283276933796147438414694400616078274122459190822474961601238453471237"
      ]
    },
    {
      "x": 51,
      "y": 321,
      "size": 1,
      "price": "6950000000000000000000",
      "assetIds": [
        "35541503283276933796147438414694400616078274122459190822474961601238453471232",
        "35541503283276933796147438414694400616078274122459190822474961601238453471233",
        "35541503283276933796147438414694400616078274122459190822474961601238453471234",
        "35541503283276933796147438414694400616078274122459190822474961601238453471240"
      ]
    },
    {
      "x": 51,
      "y": 320,
      "size": 1,
      "price": "6950000000000000000000",
      "assetIds": [
        "35541503283276933796147438414694400616078274122459190822474961601238453471232",
        "35541503283276933796147438414694400616078274122459190822474961601238453471233",
        "35541503283276933796147438414694400616078274122459190822474961601238453471234",
        "35541503283276933796147438414694400616078274122459190822474961601238453471240"
      ]
    },
    {
      "x": 51,
      "y": 319,
      "size": 1,
      "price": "6950000000000000000000",
      "assetIds": [
        "35541503283276933796147438414694400616078274122459190822474961601238453471232",
        "35541503283276933796147438414694400616078274122459190822474961601238453471233",
        "35541503283276933796147438414694400616078274122459190822474961601238453471234",
        "35541503283276933796147438414694400616078274122459190822474961601238453471237"
      ]
    },
    {
      "x": 51,
      "y": 318,
      "size": 1,
      "price": "3000000000000000000000",
      "assetIds": []
    },
    {
      "x": 51,
      "y": 305,
      "size": 1,
      "price": "3000000000000000000000",
      "reserved": "0x7a9fe22691c811ea339d9b73150e6911a5343dca",
      "assetIds": []
    },
    {
      "x": 51,
      "y": 304,
      "size": 1,
      "price": "3000000000000000000000",
      "assetIds": []
    },
    {
      "x": 51,
      "y": 303,
      "size": 1,
      "price": "3000000000000000000000",
      "assetIds": []
    },
    {
      "x": 51,
      "y": 299,
      "size": 1,
      "price": "3000000000000000000000",
      "assetIds": []
    },
    {
      "x": 51,
      "y": 298,
      "size": 1,
      "price": "3000000000000000000000",
      "assetIds": []
    },
    {
      "x": 51,
      "y": 297,
      "size": 1,
      "price": "3000000000000000000000",
      "assetIds": []
    },
    {
      "x": 51,
      "y": 296,
      "size": 1,
      "price": "3000000000000000000000",
      "assetIds": []
    },
    {
      "x": 51,
      "y": 295,
      "size": 1,
      "price": "3000000000000000000000",
      "assetIds": []
    },
    {
      "x": 51,
      "y": 294,
      "size": 1,
      "price": "3000000000000000000000",
      "assetIds": []
    },
    {
      "x": 50,
      "y": 297,
      "size": 1,
      "price": "3000000000000000000000",
      "assetIds": []
    },
    {
      "x": 50,
      "y": 298,
      "size": 1,
      "price": "3000000000000000000000",
      "assetIds": []
    },
    {
      "x": 50,
      "y": 299,
      "size": 1,
      "price": "3000000000000000000000",
      "assetIds": []
    },
    {
      "x": 50,
      "y": 300,
      "size": 1,
      "price": "3000000000000000000000",
      "assetIds": []
    },
    {
      "x": 50,
      "y": 301,
      "size": 1,
      "price": "3000000000000000000000",
      "assetIds": []
    },
    {
      "x": 50,
      "y": 302,
      "size": 1,
      "price": "3000000000000000000000",
      "assetIds": []
    },
    {
      "x": 50,
      "y": 306,
      "size": 1,
      "price": "3000000000000000000000",
      "assetIds": []
    },
    {
      "x": 50,
      "y": 307,
      "size": 1,
      "price": "3000000000000000000000",
      "assetIds": []
    },
    {
      "x": 50,
      "y": 308,
      "size": 1,
      "price": "3000000000000000000000",
      "assetIds": []
    },
    {
      "x": 50,
      "y": 318,
      "size": 1,
      "price": "6950000000000000000000",
      "assetIds": [
        "35541503283276933796147438414694400616078274122459190822474961601238453471232",
        "35541503283276933796147438414694400616078274122459190822474961601238453471233",
        "35541503283276933796147438414694400616078274122459190822474961601238453471234",
        "35541503283276933796147438414694400616078274122459190822474961601238453471238"
      ]
    },
    {
      "x": 50,
      "y": 319,
      "size": 1,
      "price": "6950000000000000000000",
      "assetIds": [
        "35541503283276933796147438414694400616078274122459190822474961601238453471232",
        "35541503283276933796147438414694400616078274122459190822474961601238453471233",
        "35541503283276933796147438414694400616078274122459190822474961601238453471234",
        "35541503283276933796147438414694400616078274122459190822474961601238453471236"
      ]
    },
    {
      "x": 50,
      "y": 320,
      "size": 1,
      "price": "6950000000000000000000",
      "assetIds": [
        "35541503283276933796147438414694400616078274122459190822474961601238453471232",
        "35541503283276933796147438414694400616078274122459190822474961601238453471233",
        "35541503283276933796147438414694400616078274122459190822474961601238453471234",
        "35541503283276933796147438414694400616078274122459190822474961601238453471240"
      ]
    },
    {
      "x": 50,
      "y": 321,
      "size": 1,
      "price": "6950000000000000000000",
      "assetIds": [
        "35541503283276933796147438414694400616078274122459190822474961601238453471232",
        "35541503283276933796147438414694400616078274122459190822474961601238453471233",
        "35541503283276933796147438414694400616078274122459190822474961601238453471234",
        "35541503283276933796147438414694400616078274122459190822474961601238453471237"
      ]
    },
    {
      "x": 50,
      "y": 322,
      "size": 1,
      "price": "6950000000000000000000",
      "assetIds": [
        "35541503283276933796147438414694400616078274122459190822474961601238453471232",
        "35541503283276933796147438414694400616078274122459190822474961601238453471233",
        "35541503283276933796147438414694400616078274122459190822474961601238453471234",
        "35541503283276933796147438414694400616078274122459190822474961601238453471239"
      ]
    },
    {
      "x": 50,
      "y": 323,
      "size": 1,
      "price": "6950000000000000000000",
      "assetIds": [
        "35541503283276933796147438414694400616078274122459190822474961601238453471232",
        "35541503283276933796147438414694400616078274122459190822474961601238453471233",
        "35541503283276933796147438414694400616078274122459190822474961601238453471234",
        "35541503283276933796147438414694400616078274122459190822474961601238453471235"
      ]
    },
    {
      "x": 49,
      "y": 323,
      "size": 1,
      "price": "6950000000000000000000",
      "assetIds": [
        "35541503283276933796147438414694400616078274122459190822474961601238453471232",
        "35541503283276933796147438414694400616078274122459190822474961601238453471233",
        "35541503283276933796147438414694400616078274122459190822474961601238453471234",
        "35541503283276933796147438414694400616078274122459190822474961601238453471240"
      ]
    },
    {
      "x": 49,
      "y": 322,
      "size": 1,
      "price": "6950000000000000000000",
      "assetIds": [
        "35541503283276933796147438414694400616078274122459190822474961601238453471232",
        "35541503283276933796147438414694400616078274122459190822474961601238453471233",
        "35541503283276933796147438414694400616078274122459190822474961601238453471234",
        "35541503283276933796147438414694400616078274122459190822474961601238453471235"
      ]
    },
    {
      "x": 49,
      "y": 321,
      "size": 1,
      "price": "6950000000000000000000",
      "assetIds": [
        "35541503283276933796147438414694400616078274122459190822474961601238453471232",
        "35541503283276933796147438414694400616078274122459190822474961601238453471233",
        "35541503283276933796147438414694400616078274122459190822474961601238453471234",
        "35541503283276933796147438414694400616078274122459190822474961601238453471236"
      ]
    },
    {
      "x": 49,
      "y": 320,
      "size": 1,
      "price": "6950000000000000000000",
      "assetIds": [
        "35541503283276933796147438414694400616078274122459190822474961601238453471232",
        "35541503283276933796147438414694400616078274122459190822474961601238453471233",
        "35541503283276933796147438414694400616078274122459190822474961601238453471234",
        "35541503283276933796147438414694400616078274122459190822474961601238453471236"
      ]
    },
    {
      "x": 49,
      "y": 319,
      "size": 1,
      "price": "3000000000000000000000",
      "reserved": "0x7a9fe22691c811ea339d9b73150e6911a5343dca",
      "assetIds": []
    },
    {
      "x": 49,
      "y": 318,
      "size": 1,
      "price": "3000000000000000000000",
      "assetIds": []
    },
    {
      "x": 49,
      "y": 308,
      "size": 1,
      "price": "3000000000000000000000",
      "reserved": "0x7a9fe22691c811ea339d9b73150e6911a5343dca",
      "assetIds": []
    },
    {
      "x": 49,
      "y": 307,
      "size": 1,
      "price": "3000000000000000000000",
      "assetIds": []
    },
    {
      "x": 49,
      "y": 306,
      "size": 1,
      "price": "3000000000000000000000",
      "assetIds": []
    },
    {
      "x": 49,
      "y": 302,
      "size": 1,
      "price": "3000000000000000000000",
      "assetIds": []
    },
    {
      "x": 49,
      "y": 301,
      "size": 1,
      "price": "3000000000000000000000",
      "assetIds": []
    },
    {
      "x": 49,
      "y": 300,
      "size": 1,
      "price": "3000000000000000000000",
      "reserved": "0x7a9fe22691c811ea339d9b73150e6911a5343dca",
      "assetIds": []
    },
    {
      "x": 49,
      "y": 299,
      "size": 1,
      "price": "3000000000000000000000",
      "assetIds": []
    },
    {
      "x": 49,
      "y": 298,
      "size": 1,
      "price": "3000000000000000000000",
      "assetIds": []
    },
    {
      "x": 49,
      "y": 297,
      "size": 1,
      "price": "3000000000000000000000",
      "assetIds": []
    },
    {
      "x": 47,
      "y": 293,
      "size": 1,
      "price": "3000000000000000000000",
      "assetIds": []
    },
    {
      "x": 47,
      "y": 309,
      "size": 1,
      "price": "3000000000000000000000",
      "reserved": "0x7a9fe22691c811ea339d9b73150e6911a5343dca",
      "assetIds": []
    },
    {
      "x": 47,
      "y": 310,
      "size": 1,
      "price": "3000000000000000000000",
      "assetIds": []
    },
    {
      "x": 47,
      "y": 311,
      "size": 1,
      "price": "3000000000000000000000",
      "assetIds": []
    },
    {
      "x": 47,
      "y": 324,
      "size": 1,
      "price": "3000000000000000000000",
      "reserved": "0x7a9fe22691c811ea339d9b73150e6911a5343dca",
      "assetIds": []
    },
    {
      "x": 47,
      "y": 325,
      "size": 1,
      "price": "6950000000000000000000",
      "assetIds": [
        "35541503283276933796147438414694400616078274122459190822474961601238453471232",
        "35541503283276933796147438414694400616078274122459190822474961601238453471233",
        "35541503283276933796147438414694400616078274122459190822474961601238453471234",
        "35541503283276933796147438414694400616078274122459190822474961601238453471236"
      ]
    },
    {
      "x": 47,
      "y": 326,
      "size": 1,
      "price": "6950000000000000000000",
      "assetIds": [
        "35541503283276933796147438414694400616078274122459190822474961601238453471232",
        "35541503283276933796147438414694400616078274122459190822474961601238453471233",
        "35541503283276933796147438414694400616078274122459190822474961601238453471234",
        "35541503283276933796147438414694400616078274122459190822474961601238453471238"
      ]
    },
    {
      "x": 47,
      "y": 327,
      "size": 1,
      "price": "6950000000000000000000",
      "assetIds": [
        "35541503283276933796147438414694400616078274122459190822474961601238453471232",
        "35541503283276933796147438414694400616078274122459190822474961601238453471233",
        "35541503283276933796147438414694400616078274122459190822474961601238453471234",
        "35541503283276933796147438414694400616078274122459190822474961601238453471236"
      ]
    },
    {
      "x": 47,
      "y": 328,
      "size": 1,
      "price": "6950000000000000000000",
      "assetIds": [
        "35541503283276933796147438414694400616078274122459190822474961601238453471232",
        "35541503283276933796147438414694400616078274122459190822474961601238453471233",
        "35541503283276933796147438414694400616078274122459190822474961601238453471234",
        "35541503283276933796147438414694400616078274122459190822474961601238453471236"
      ]
    },
    {
      "x": 48,
      "y": 323,
      "size": 1,
      "price": "6950000000000000000000",
      "assetIds": [
        "35541503283276933796147438414694400616078274122459190822474961601238453471232",
        "35541503283276933796147438414694400616078274122459190822474961601238453471233",
        "35541503283276933796147438414694400616078274122459190822474961601238453471234",
        "35541503283276933796147438414694400616078274122459190822474961601238453471237"
      ]
    },
    {
      "x": 48,
      "y": 322,
      "size": 1,
      "price": "6950000000000000000000",
      "assetIds": [
        "35541503283276933796147438414694400616078274122459190822474961601238453471232",
        "35541503283276933796147438414694400616078274122459190822474961601238453471233",
        "35541503283276933796147438414694400616078274122459190822474961601238453471234",
        "35541503283276933796147438414694400616078274122459190822474961601238453471237"
      ]
    },
    {
      "x": 48,
      "y": 321,
      "size": 1,
      "price": "6950000000000000000000",
      "assetIds": [
        "35541503283276933796147438414694400616078274122459190822474961601238453471232",
        "35541503283276933796147438414694400616078274122459190822474961601238453471233",
        "35541503283276933796147438414694400616078274122459190822474961601238453471234",
        "35541503283276933796147438414694400616078274122459190822474961601238453471240"
      ]
    },
    {
      "x": 48,
      "y": 320,
      "size": 1,
      "price": "6950000000000000000000",
      "assetIds": [
        "35541503283276933796147438414694400616078274122459190822474961601238453471232",
        "35541503283276933796147438414694400616078274122459190822474961601238453471233",
        "35541503283276933796147438414694400616078274122459190822474961601238453471234",
        "35541503283276933796147438414694400616078274122459190822474961601238453471239"
      ]
    },
    {
      "x": 48,
      "y": 319,
      "size": 1,
      "price": "6950000000000000000000",
      "assetIds": [
        "35541503283276933796147438414694400616078274122459190822474961601238453471232",
        "35541503283276933796147438414694400616078274122459190822474961601238453471233",
        "35541503283276933796147438414694400616078274122459190822474961601238453471234",
        "35541503283276933796147438414694400616078274122459190822474961601238453471238"
      ]
    },
    {
      "x": 48,
      "y": 318,
      "size": 1,
      "price": "3000000000000000000000",
      "assetIds": []
    },
    {
      "x": 48,
      "y": 308,
      "size": 1,
      "price": "3000000000000000000000",
      "assetIds": []
    },
    {
      "x": 48,
      "y": 307,
      "size": 1,
      "price": "3000000000000000000000",
      "assetIds": []
    },
    {
      "x": 48,
      "y": 306,
      "size": 1,
      "price": "3000000000000000000000",
      "assetIds": []
    },
    {
      "x": 48,
      "y": 302,
      "size": 1,
      "price": "3000000000000000000000",
      "assetIds": []
    },
    {
      "x": 48,
      "y": 301,
      "size": 1,
      "price": "3000000000000000000000",
      "assetIds": []
    },
    {
      "x": 48,
      "y": 300,
      "size": 1,
      "price": "3000000000000000000000",
      "assetIds": []
    },
    {
      "x": 48,
      "y": 299,
      "size": 1,
      "price": "3000000000000000000000",
      "assetIds": []
    },
    {
      "x": 48,
      "y": 298,
      "size": 1,
      "price": "3000000000000000000000",
      "assetIds": []
    },
    {
      "x": 48,
      "y": 297,
      "size": 1,
      "price": "3000000000000000000000",
      "reserved": "0x7a9fe22691c811ea339d9b73150e6911a5343dca",
      "assetIds": []
    },
    {
      "x": 47,
      "y": 292,
      "size": 1,
      "price": "3000000000000000000000",
      "assetIds": []
    },
    {
      "x": 47,
      "y": 291,
      "size": 1,
      "price": "3000000000000000000000",
      "assetIds": []
    },
    {
      "x": 46,
      "y": 291,
      "size": 1,
      "price": "3000000000000000000000",
      "assetIds": []
    },
    {
      "x": 46,
      "y": 292,
      "size": 1,
      "price": "3000000000000000000000",
      "assetIds": []
    },
    {
      "x": 45,
      "y": 292,
      "size": 1,
      "price": "3000000000000000000000",
      "assetIds": []
    },
    {
      "x": 45,
      "y": 293,
      "size": 1,
      "price": "3000000000000000000000",
      "assetIds": []
    },
    {
      "x": 46,
      "y": 293,
      "size": 1,
      "price": "3000000000000000000000",
      "assetIds": []
    },
    {
      "x": 45,
      "y": 291,
      "size": 1,
      "price": "3000000000000000000000",
      "reserved": "0x7a9fe22691c811ea339d9b73150e6911a5343dca",
      "assetIds": []
    },
    {
      "x": 44,
      "y": 300,
      "size": 1,
      "price": "3000000000000000000000",
      "reserved": "0x7a9fe22691c811ea339d9b73150e6911a5343dca",
      "assetIds": []
    },
    {
      "x": 44,
      "y": 301,
      "size": 1,
      "price": "3000000000000000000000",
      "assetIds": []
    },
    {
      "x": 44,
      "y": 302,
      "size": 1,
      "price": "3000000000000000000000",
      "assetIds": []
    },
    {
      "x": 44,
      "y": 303,
      "size": 1,
      "price": "3000000000000000000000",
      "assetIds": []
    },
    {
      "x": 44,
      "y": 304,
      "size": 1,
      "price": "3000000000000000000000",
      "assetIds": []
    },
    {
      "x": 44,
      "y": 305,
      "size": 1,
      "price": "3000000000000000000000",
      "assetIds": []
    },
    {
      "x": 44,
      "y": 324,
      "size": 1,
      "price": "6950000000000000000000",
      "assetIds": [
        "35541503283276933796147438414694400616078274122459190822474961601238453471232",
        "35541503283276933796147438414694400616078274122459190822474961601238453471233",
        "35541503283276933796147438414694400616078274122459190822474961601238453471234",
        "35541503283276933796147438414694400616078274122459190822474961601238453471237"
      ]
    },
    {
      "x": 44,
      "y": 325,
      "size": 1,
      "price": "3000000000000000000000",
      "reserved": "0x7a9fe22691c811ea339d9b73150e6911a5343dca",
      "assetIds": []
    },
    {
      "x": 44,
      "y": 326,
      "size": 1,
      "price": "6950000000000000000000",
      "assetIds": [
        "35541503283276933796147438414694400616078274122459190822474961601238453471232",
        "35541503283276933796147438414694400616078274122459190822474961601238453471233",
        "35541503283276933796147438414694400616078274122459190822474961601238453471234",
        "35541503283276933796147438414694400616078274122459190822474961601238453471238"
      ]
    },
    {
      "x": 44,
      "y": 327,
      "size": 1,
      "price": "6950000000000000000000",
      "assetIds": [
        "35541503283276933796147438414694400616078274122459190822474961601238453471232",
        "35541503283276933796147438414694400616078274122459190822474961601238453471233",
        "35541503283276933796147438414694400616078274122459190822474961601238453471234",
        "35541503283276933796147438414694400616078274122459190822474961601238453471238"
      ]
    },
    {
      "x": 44,
      "y": 328,
      "size": 1,
      "price": "6950000000000000000000",
      "assetIds": [
        "35541503283276933796147438414694400616078274122459190822474961601238453471232",
        "35541503283276933796147438414694400616078274122459190822474961601238453471233",
        "35541503283276933796147438414694400616078274122459190822474961601238453471234",
        "35541503283276933796147438414694400616078274122459190822474961601238453471236"
      ]
    },
    {
      "x": 44,
      "y": 329,
      "size": 1,
      "price": "6950000000000000000000",
      "assetIds": [
        "35541503283276933796147438414694400616078274122459190822474961601238453471232",
        "35541503283276933796147438414694400616078274122459190822474961601238453471233",
        "35541503283276933796147438414694400616078274122459190822474961601238453471234",
        "35541503283276933796147438414694400616078274122459190822474961601238453471239"
      ]
    },
    {
      "x": 44,
      "y": 333,
      "size": 1,
      "price": "6950000000000000000000",
      "assetIds": [
        "35541503283276933796147438414694400616078274122459190822474961601238453471232",
        "35541503283276933796147438414694400616078274122459190822474961601238453471233",
        "35541503283276933796147438414694400616078274122459190822474961601238453471234",
        "35541503283276933796147438414694400616078274122459190822474961601238453471239"
      ]
    },
    {
      "x": 44,
      "y": 334,
      "size": 1,
      "price": "6950000000000000000000",
      "assetIds": [
        "35541503283276933796147438414694400616078274122459190822474961601238453471232",
        "35541503283276933796147438414694400616078274122459190822474961601238453471233",
        "35541503283276933796147438414694400616078274122459190822474961601238453471234",
        "35541503283276933796147438414694400616078274122459190822474961601238453471240"
      ]
    },
    {
      "x": 44,
      "y": 335,
      "size": 1,
      "price": "3000000000000000000000",
      "reserved": "0x7a9fe22691c811ea339d9b73150e6911a5343dca",
      "assetIds": []
    },
    {
      "x": 44,
      "y": 338,
      "size": 1,
      "price": "3000000000000000000000",
      "reserved": "0x7a9fe22691c811ea339d9b73150e6911a5343dca",
      "assetIds": []
    },
    {
      "x": 45,
      "y": 342,
      "size": 1,
      "price": "3000000000000000000000",
      "assetIds": []
    },
    {
      "x": 46,
      "y": 342,
      "size": 1,
      "price": "3000000000000000000000",
      "assetIds": []
    },
    {
      "x": 46,
      "y": 343,
      "size": 1,
      "price": "3000000000000000000000",
      "assetIds": []
    },
    {
      "x": 46,
      "y": 344,
      "size": 1,
      "price": "3000000000000000000000",
      "assetIds": []
    },
    {
      "x": 45,
      "y": 344,
      "size": 1,
      "price": "3000000000000000000000",
      "assetIds": []
    },
    {
      "x": 45,
      "y": 343,
      "size": 1,
      "price": "3000000000000000000000",
      "assetIds": []
    },
    {
      "x": 45,
      "y": 341,
      "size": 1,
      "price": "3000000000000000000000",
      "reserved": "0x7a9fe22691c811ea339d9b73150e6911a5343dca",
      "assetIds": []
    },
    {
      "x": 45,
      "y": 340,
      "size": 1,
      "price": "3000000000000000000000",
      "assetIds": []
    },
    {
      "x": 45,
      "y": 339,
      "size": 1,
      "price": "3000000000000000000000",
      "assetIds": []
    },
    {
      "x": 45,
      "y": 338,
      "size": 1,
      "price": "6950000000000000000000",
      "assetIds": [
        "35541503283276933796147438414694400616078274122459190822474961601238453471232",
        "35541503283276933796147438414694400616078274122459190822474961601238453471233",
        "35541503283276933796147438414694400616078274122459190822474961601238453471234",
        "35541503283276933796147438414694400616078274122459190822474961601238453471239"
      ]
    },
    {
      "x": 45,
      "y": 335,
      "size": 1,
      "price": "6950000000000000000000",
      "assetIds": [
        "35541503283276933796147438414694400616078274122459190822474961601238453471232",
        "35541503283276933796147438414694400616078274122459190822474961601238453471233",
        "35541503283276933796147438414694400616078274122459190822474961601238453471234",
        "35541503283276933796147438414694400616078274122459190822474961601238453471238"
      ]
    },
    {
      "x": 45,
      "y": 334,
      "size": 1,
      "price": "6950000000000000000000",
      "assetIds": [
        "35541503283276933796147438414694400616078274122459190822474961601238453471232",
        "35541503283276933796147438414694400616078274122459190822474961601238453471233",
        "35541503283276933796147438414694400616078274122459190822474961601238453471234",
        "35541503283276933796147438414694400616078274122459190822474961601238453471235"
      ]
    },
    {
      "x": 45,
      "y": 333,
      "size": 1,
      "price": "6950000000000000000000",
      "assetIds": [
        "35541503283276933796147438414694400616078274122459190822474961601238453471232",
        "35541503283276933796147438414694400616078274122459190822474961601238453471233",
        "35541503283276933796147438414694400616078274122459190822474961601238453471234",
        "35541503283276933796147438414694400616078274122459190822474961601238453471235"
      ]
    },
    {
      "x": 45,
      "y": 332,
      "size": 1,
      "price": "6950000000000000000000",
      "assetIds": [
        "35541503283276933796147438414694400616078274122459190822474961601238453471232",
        "35541503283276933796147438414694400616078274122459190822474961601238453471233",
        "35541503283276933796147438414694400616078274122459190822474961601238453471234",
        "35541503283276933796147438414694400616078274122459190822474961601238453471239"
      ]
    },
    {
      "x": 45,
      "y": 331,
      "size": 1,
      "price": "3000000000000000000000",
      "reserved": "0x7a9fe22691c811ea339d9b73150e6911a5343dca",
      "assetIds": []
    },
    {
      "x": 45,
      "y": 330,
      "size": 1,
      "price": "6950000000000000000000",
      "assetIds": [
        "35541503283276933796147438414694400616078274122459190822474961601238453471232",
        "35541503283276933796147438414694400616078274122459190822474961601238453471233",
        "35541503283276933796147438414694400616078274122459190822474961601238453471234",
        "35541503283276933796147438414694400616078274122459190822474961601238453471240"
      ]
    },
    {
      "x": 45,
      "y": 329,
      "size": 1,
      "price": "6950000000000000000000",
      "assetIds": [
        "35541503283276933796147438414694400616078274122459190822474961601238453471232",
        "35541503283276933796147438414694400616078274122459190822474961601238453471233",
        "35541503283276933796147438414694400616078274122459190822474961601238453471234",
        "35541503283276933796147438414694400616078274122459190822474961601238453471236"
      ]
    },
    {
      "x": 45,
      "y": 328,
      "size": 1,
      "price": "6950000000000000000000",
      "assetIds": [
        "35541503283276933796147438414694400616078274122459190822474961601238453471232",
        "35541503283276933796147438414694400616078274122459190822474961601238453471233",
        "35541503283276933796147438414694400616078274122459190822474961601238453471234",
        "35541503283276933796147438414694400616078274122459190822474961601238453471239"
      ]
    },
    {
      "x": 45,
      "y": 327,
      "size": 1,
      "price": "3000000000000000000000",
      "reserved": "0x7a9fe22691c811ea339d9b73150e6911a5343dca",
      "assetIds": []
    },
    {
      "x": 45,
      "y": 326,
      "size": 1,
      "price": "6950000000000000000000",
      "assetIds": [
        "35541503283276933796147438414694400616078274122459190822474961601238453471232",
        "35541503283276933796147438414694400616078274122459190822474961601238453471233",
        "35541503283276933796147438414694400616078274122459190822474961601238453471234",
        "35541503283276933796147438414694400616078274122459190822474961601238453471238"
      ]
    },
    {
      "x": 45,
      "y": 325,
      "size": 1,
      "price": "6950000000000000000000",
      "assetIds": [
        "35541503283276933796147438414694400616078274122459190822474961601238453471232",
        "35541503283276933796147438414694400616078274122459190822474961601238453471233",
        "35541503283276933796147438414694400616078274122459190822474961601238453471234",
        "35541503283276933796147438414694400616078274122459190822474961601238453471240"
      ]
    },
    {
      "x": 45,
      "y": 324,
      "size": 1,
      "price": "6950000000000000000000",
      "assetIds": [
        "35541503283276933796147438414694400616078274122459190822474961601238453471232",
        "35541503283276933796147438414694400616078274122459190822474961601238453471233",
        "35541503283276933796147438414694400616078274122459190822474961601238453471234",
        "35541503283276933796147438414694400616078274122459190822474961601238453471237"
      ]
    },
    {
      "x": 45,
      "y": 311,
      "size": 1,
      "price": "3000000000000000000000",
      "assetIds": []
    },
    {
      "x": 45,
      "y": 310,
      "size": 1,
      "price": "3000000000000000000000",
      "assetIds": []
    },
    {
      "x": 45,
      "y": 309,
      "size": 1,
      "price": "3000000000000000000000",
      "assetIds": []
    },
    {
      "x": 46,
      "y": 309,
      "size": 1,
      "price": "3000000000000000000000",
      "assetIds": []
    },
    {
      "x": 46,
      "y": 310,
      "size": 1,
      "price": "3000000000000000000000",
      "assetIds": []
    },
    {
      "x": 46,
      "y": 311,
      "size": 1,
      "price": "3000000000000000000000",
      "assetIds": []
    },
    {
      "x": 46,
      "y": 324,
      "size": 1,
      "price": "6950000000000000000000",
      "assetIds": [
        "35541503283276933796147438414694400616078274122459190822474961601238453471232",
        "35541503283276933796147438414694400616078274122459190822474961601238453471233",
        "35541503283276933796147438414694400616078274122459190822474961601238453471234",
        "35541503283276933796147438414694400616078274122459190822474961601238453471235"
      ]
    },
    {
      "x": 46,
      "y": 325,
      "size": 1,
      "price": "6950000000000000000000",
      "assetIds": [
        "35541503283276933796147438414694400616078274122459190822474961601238453471232",
        "35541503283276933796147438414694400616078274122459190822474961601238453471233",
        "35541503283276933796147438414694400616078274122459190822474961601238453471234",
        "35541503283276933796147438414694400616078274122459190822474961601238453471239"
      ]
    },
    {
      "x": 46,
      "y": 326,
      "size": 1,
      "price": "6950000000000000000000",
      "assetIds": [
        "35541503283276933796147438414694400616078274122459190822474961601238453471232",
        "35541503283276933796147438414694400616078274122459190822474961601238453471233",
        "35541503283276933796147438414694400616078274122459190822474961601238453471234",
        "35541503283276933796147438414694400616078274122459190822474961601238453471239"
      ]
    },
    {
      "x": 46,
      "y": 327,
      "size": 1,
      "price": "6950000000000000000000",
      "assetIds": [
        "35541503283276933796147438414694400616078274122459190822474961601238453471232",
        "35541503283276933796147438414694400616078274122459190822474961601238453471233",
        "35541503283276933796147438414694400616078274122459190822474961601238453471234",
        "35541503283276933796147438414694400616078274122459190822474961601238453471237"
      ]
    },
    {
      "x": 46,
      "y": 328,
      "size": 1,
      "price": "6950000000000000000000",
      "assetIds": [
        "35541503283276933796147438414694400616078274122459190822474961601238453471232",
        "35541503283276933796147438414694400616078274122459190822474961601238453471233",
        "35541503283276933796147438414694400616078274122459190822474961601238453471234",
        "35541503283276933796147438414694400616078274122459190822474961601238453471240"
      ]
    },
    {
      "x": 46,
      "y": 329,
      "size": 1,
      "price": "6950000000000000000000",
      "assetIds": [
        "35541503283276933796147438414694400616078274122459190822474961601238453471232",
        "35541503283276933796147438414694400616078274122459190822474961601238453471233",
        "35541503283276933796147438414694400616078274122459190822474961601238453471234",
        "35541503283276933796147438414694400616078274122459190822474961601238453471235"
      ]
    },
    {
      "x": 46,
      "y": 330,
      "size": 1,
      "price": "6950000000000000000000",
      "assetIds": [
        "35541503283276933796147438414694400616078274122459190822474961601238453471232",
        "35541503283276933796147438414694400616078274122459190822474961601238453471233",
        "35541503283276933796147438414694400616078274122459190822474961601238453471234",
        "35541503283276933796147438414694400616078274122459190822474961601238453471236"
      ]
    },
    {
      "x": 46,
      "y": 331,
      "size": 1,
      "price": "6950000000000000000000",
      "assetIds": [
        "35541503283276933796147438414694400616078274122459190822474961601238453471232",
        "35541503283276933796147438414694400616078274122459190822474961601238453471233",
        "35541503283276933796147438414694400616078274122459190822474961601238453471234",
        "35541503283276933796147438414694400616078274122459190822474961601238453471236"
      ]
    },
    {
      "x": 46,
      "y": 332,
      "size": 1,
      "price": "6950000000000000000000",
      "assetIds": [
        "35541503283276933796147438414694400616078274122459190822474961601238453471232",
        "35541503283276933796147438414694400616078274122459190822474961601238453471233",
        "35541503283276933796147438414694400616078274122459190822474961601238453471234",
        "35541503283276933796147438414694400616078274122459190822474961601238453471238"
      ]
    },
    {
      "x": 46,
      "y": 333,
      "size": 1,
      "price": "6950000000000000000000",
      "assetIds": [
        "35541503283276933796147438414694400616078274122459190822474961601238453471232",
        "35541503283276933796147438414694400616078274122459190822474961601238453471233",
        "35541503283276933796147438414694400616078274122459190822474961601238453471234",
        "35541503283276933796147438414694400616078274122459190822474961601238453471237"
      ]
    },
    {
      "x": 46,
      "y": 334,
      "size": 1,
      "price": "3000000000000000000000",
      "reserved": "0x7a9fe22691c811ea339d9b73150e6911a5343dca",
      "assetIds": []
    },
    {
      "x": 46,
      "y": 335,
      "size": 1,
      "price": "6950000000000000000000",
      "assetIds": [
        "35541503283276933796147438414694400616078274122459190822474961601238453471232",
        "35541503283276933796147438414694400616078274122459190822474961601238453471233",
        "35541503283276933796147438414694400616078274122459190822474961601238453471234",
        "35541503283276933796147438414694400616078274122459190822474961601238453471235"
      ]
    },
    {
      "x": 46,
      "y": 341,
      "size": 1,
      "price": "3000000000000000000000",
      "assetIds": []
    },
    {
      "x": 47,
      "y": 344,
      "size": 1,
      "price": "3000000000000000000000",
      "reserved": "0x7a9fe22691c811ea339d9b73150e6911a5343dca",
      "assetIds": []
    },
    {
      "x": 47,
      "y": 343,
      "size": 1,
      "price": "3000000000000000000000",
      "assetIds": []
    },
    {
      "x": 47,
      "y": 342,
      "size": 1,
      "price": "3000000000000000000000",
      "reserved": "0x7a9fe22691c811ea339d9b73150e6911a5343dca",
      "assetIds": []
    },
    {
      "x": 47,
      "y": 341,
      "size": 1,
      "price": "3000000000000000000000",
      "assetIds": []
    },
    {
      "x": 47,
      "y": 334,
      "size": 1,
      "price": "6950000000000000000000",
      "assetIds": [
        "35541503283276933796147438414694400616078274122459190822474961601238453471232",
        "35541503283276933796147438414694400616078274122459190822474961601238453471233",
        "35541503283276933796147438414694400616078274122459190822474961601238453471234",
        "35541503283276933796147438414694400616078274122459190822474961601238453471239"
      ]
    },
    {
      "x": 47,
      "y": 333,
      "size": 1,
      "price": "6950000000000000000000",
      "assetIds": [
        "35541503283276933796147438414694400616078274122459190822474961601238453471232",
        "35541503283276933796147438414694400616078274122459190822474961601238453471233",
        "35541503283276933796147438414694400616078274122459190822474961601238453471234",
        "35541503283276933796147438414694400616078274122459190822474961601238453471238"
      ]
    },
    {
      "x": 47,
      "y": 332,
      "size": 1,
      "price": "6950000000000000000000",
      "assetIds": [
        "35541503283276933796147438414694400616078274122459190822474961601238453471232",
        "35541503283276933796147438414694400616078274122459190822474961601238453471233",
        "35541503283276933796147438414694400616078274122459190822474961601238453471234",
        "35541503283276933796147438414694400616078274122459190822474961601238453471239"
      ]
    },
    {
      "x": 47,
      "y": 331,
      "size": 1,
      "price": "6950000000000000000000",
      "assetIds": [
        "35541503283276933796147438414694400616078274122459190822474961601238453471232",
        "35541503283276933796147438414694400616078274122459190822474961601238453471233",
        "35541503283276933796147438414694400616078274122459190822474961601238453471234",
        "35541503283276933796147438414694400616078274122459190822474961601238453471236"
      ]
    },
    {
      "x": 47,
      "y": 330,
      "size": 1,
      "price": "6950000000000000000000",
      "assetIds": [
        "35541503283276933796147438414694400616078274122459190822474961601238453471232",
        "35541503283276933796147438414694400616078274122459190822474961601238453471233",
        "35541503283276933796147438414694400616078274122459190822474961601238453471234",
        "35541503283276933796147438414694400616078274122459190822474961601238453471235"
      ]
    },
    {
      "x": 47,
      "y": 329,
      "size": 1,
      "price": "3000000000000000000000",
      "reserved": "0x7a9fe22691c811ea339d9b73150e6911a5343dca",
      "assetIds": []
    },
    {
      "x": 43,
      "y": 305,
      "size": 1,
      "price": "3000000000000000000000",
      "reserved": "0x7a9fe22691c811ea339d9b73150e6911a5343dca",
      "assetIds": []
    },
    {
      "x": 43,
      "y": 304,
      "size": 1,
      "price": "3000000000000000000000",
      "assetIds": []
    },
    {
      "x": 43,
      "y": 303,
      "size": 1,
      "price": "3000000000000000000000",
      "assetIds": []
    },
    {
      "x": 43,
      "y": 302,
      "size": 1,
      "price": "3000000000000000000000",
      "assetIds": []
    },
    {
      "x": 43,
      "y": 301,
      "size": 1,
      "price": "3000000000000000000000",
      "assetIds": []
    },
    {
      "x": 43,
      "y": 300,
      "size": 1,
      "price": "3000000000000000000000",
      "assetIds": []
    },
    {
      "x": 42,
      "y": 300,
      "size": 1,
      "price": "3000000000000000000000",
      "assetIds": []
    },
    {
      "x": 42,
      "y": 301,
      "size": 1,
      "price": "3000000000000000000000",
      "assetIds": []
    },
    {
      "x": 42,
      "y": 302,
      "size": 1,
      "price": "3000000000000000000000",
      "reserved": "0x7a9fe22691c811ea339d9b73150e6911a5343dca",
      "assetIds": []
    },
    {
      "x": 42,
      "y": 303,
      "size": 1,
      "price": "3000000000000000000000",
      "assetIds": []
    },
    {
      "x": 42,
      "y": 304,
      "size": 1,
      "price": "3000000000000000000000",
      "assetIds": []
    },
    {
      "x": 42,
      "y": 305,
      "size": 1,
      "price": "3000000000000000000000",
      "assetIds": []
    },
    {
      "x": 42,
      "y": 324,
      "size": 1,
      "price": "3000000000000000000000",
      "assetIds": []
    },
    {
      "x": 42,
      "y": 325,
      "size": 1,
      "price": "3000000000000000000000",
      "assetIds": []
    },
    {
      "x": 42,
      "y": 326,
      "size": 1,
      "price": "6950000000000000000000",
      "assetIds": [
        "35541503283276933796147438414694400616078274122459190822474961601238453471232",
        "35541503283276933796147438414694400616078274122459190822474961601238453471233",
        "35541503283276933796147438414694400616078274122459190822474961601238453471234",
        "35541503283276933796147438414694400616078274122459190822474961601238453471235"
      ]
    },
    {
      "x": 42,
      "y": 327,
      "size": 1,
      "price": "3000000000000000000000",
      "assetIds": []
    },
    {
      "x": 42,
      "y": 328,
      "size": 1,
      "price": "6950000000000000000000",
      "assetIds": [
        "35541503283276933796147438414694400616078274122459190822474961601238453471232",
        "35541503283276933796147438414694400616078274122459190822474961601238453471233",
        "35541503283276933796147438414694400616078274122459190822474961601238453471234",
        "35541503283276933796147438414694400616078274122459190822474961601238453471236"
      ]
    },
    {
      "x": 42,
      "y": 329,
      "size": 1,
      "price": "3000000000000000000000",
      "assetIds": []
    },
    {
      "x": 42,
      "y": 333,
      "size": 1,
      "price": "3000000000000000000000",
      "reserved": "0x7a9fe22691c811ea339d9b73150e6911a5343dca",
      "assetIds": []
    },
    {
      "x": 42,
      "y": 334,
      "size": 1,
      "price": "6950000000000000000000",
      "assetIds": [
        "35541503283276933796147438414694400616078274122459190822474961601238453471232",
        "35541503283276933796147438414694400616078274122459190822474961601238453471233",
        "35541503283276933796147438414694400616078274122459190822474961601238453471234",
        "35541503283276933796147438414694400616078274122459190822474961601238453471237"
      ]
    },
    {
      "x": 42,
      "y": 335,
      "size": 1,
      "price": "3000000000000000000000",
      "assetIds": []
    },
    {
      "x": 42,
      "y": 336,
      "size": 1,
      "price": "3000000000000000000000",
      "assetIds": []
    },
    {
      "x": 42,
      "y": 337,
      "size": 1,
      "price": "3000000000000000000000",
      "assetIds": []
    },
    {
      "x": 42,
      "y": 338,
      "size": 1,
      "price": "3000000000000000000000",
      "assetIds": []
    },
    {
      "x": 43,
      "y": 345,
      "size": 1,
      "price": "3000000000000000000000",
      "assetIds": []
    },
    {
      "x": 44,
      "y": 346,
      "size": 1,
      "price": "3000000000000000000000",
      "assetIds": []
    },
    {
      "x": 44,
      "y": 347,
      "size": 1,
      "price": "3000000000000000000000",
      "assetIds": []
    },
    {
      "x": 42,
      "y": 346,
      "size": 1,
      "price": "3000000000000000000000",
      "assetIds": []
    },
    {
      "x": 43,
      "y": 346,
      "size": 1,
      "price": "3000000000000000000000",
      "reserved": "0x7a9fe22691c811ea339d9b73150e6911a5343dca",
      "assetIds": []
    },
    {
      "x": 42,
      "y": 345,
      "size": 1,
      "price": "3000000000000000000000",
      "assetIds": []
    },
    {
      "x": 43,
      "y": 347,
      "size": 1,
      "price": "3000000000000000000000",
      "assetIds": []
    },
    {
      "x": 42,
      "y": 347,
      "size": 1,
      "price": "3000000000000000000000",
      "assetIds": []
    },
    {
      "x": 44,
      "y": 345,
      "size": 1,
      "price": "3000000000000000000000",
      "assetIds": []
    },
    {
      "x": 43,
      "y": 324,
      "size": 1,
      "price": "3000000000000000000000",
      "assetIds": []
    },
    {
      "x": 43,
      "y": 325,
      "size": 1,
      "price": "6950000000000000000000",
      "assetIds": [
        "35541503283276933796147438414694400616078274122459190822474961601238453471232",
        "35541503283276933796147438414694400616078274122459190822474961601238453471233",
        "35541503283276933796147438414694400616078274122459190822474961601238453471234",
        "35541503283276933796147438414694400616078274122459190822474961601238453471239"
      ]
    },
    {
      "x": 43,
      "y": 326,
      "size": 1,
      "price": "6950000000000000000000",
      "assetIds": [
        "35541503283276933796147438414694400616078274122459190822474961601238453471232",
        "35541503283276933796147438414694400616078274122459190822474961601238453471233",
        "35541503283276933796147438414694400616078274122459190822474961601238453471234",
        "35541503283276933796147438414694400616078274122459190822474961601238453471237"
      ]
    },
    {
      "x": 43,
      "y": 327,
      "size": 1,
      "price": "6950000000000000000000",
      "assetIds": [
        "35541503283276933796147438414694400616078274122459190822474961601238453471232",
        "35541503283276933796147438414694400616078274122459190822474961601238453471233",
        "35541503283276933796147438414694400616078274122459190822474961601238453471234",
        "35541503283276933796147438414694400616078274122459190822474961601238453471238"
      ]
    },
    {
      "x": 43,
      "y": 328,
      "size": 1,
      "price": "6950000000000000000000",
      "assetIds": [
        "35541503283276933796147438414694400616078274122459190822474961601238453471232",
        "35541503283276933796147438414694400616078274122459190822474961601238453471233",
        "35541503283276933796147438414694400616078274122459190822474961601238453471234",
        "35541503283276933796147438414694400616078274122459190822474961601238453471239"
      ]
    },
    {
      "x": 43,
      "y": 329,
      "size": 1,
      "price": "6950000000000000000000",
      "assetIds": [
        "35541503283276933796147438414694400616078274122459190822474961601238453471232",
        "35541503283276933796147438414694400616078274122459190822474961601238453471233",
        "35541503283276933796147438414694400616078274122459190822474961601238453471234",
        "35541503283276933796147438414694400616078274122459190822474961601238453471239"
      ]
    },
    {
      "x": 43,
      "y": 333,
      "size": 1,
      "price": "6950000000000000000000",
      "assetIds": [
        "35541503283276933796147438414694400616078274122459190822474961601238453471232",
        "35541503283276933796147438414694400616078274122459190822474961601238453471233",
        "35541503283276933796147438414694400616078274122459190822474961601238453471234",
        "35541503283276933796147438414694400616078274122459190822474961601238453471239"
      ]
    },
    {
      "x": 43,
      "y": 334,
      "size": 1,
      "price": "6950000000000000000000",
      "assetIds": [
        "35541503283276933796147438414694400616078274122459190822474961601238453471232",
        "35541503283276933796147438414694400616078274122459190822474961601238453471233",
        "35541503283276933796147438414694400616078274122459190822474961601238453471234",
        "35541503283276933796147438414694400616078274122459190822474961601238453471239"
      ]
    },
    {
      "x": 43,
      "y": 335,
      "size": 1,
      "price": "3000000000000000000000",
      "assetIds": []
    },
    {
      "x": 43,
      "y": 336,
      "size": 1,
      "price": "3000000000000000000000",
      "assetIds": []
    },
    {
      "x": 43,
      "y": 337,
      "size": 1,
      "price": "3000000000000000000000",
      "assetIds": []
    },
    {
      "x": 43,
      "y": 338,
      "size": 1,
      "price": "3000000000000000000000",
      "assetIds": []
    },
    {
      "x": 39,
      "y": 311,
      "size": 1,
      "price": "3000000000000000000000",
      "assetIds": []
    },
    {
      "x": 39,
      "y": 310,
      "size": 1,
      "price": "3000000000000000000000",
      "reserved": "0x7a9fe22691c811ea339d9b73150e6911a5343dca",
      "assetIds": []
    },
    {
      "x": 39,
      "y": 309,
      "size": 1,
      "price": "3000000000000000000000",
      "assetIds": []
    },
    {
      "x": 40,
      "y": 309,
      "size": 1,
      "price": "3000000000000000000000",
      "assetIds": []
    },
    {
      "x": 41,
      "y": 309,
      "size": 1,
      "price": "3000000000000000000000",
      "assetIds": []
    },
    {
      "x": 41,
      "y": 310,
      "size": 1,
      "price": "3000000000000000000000",
      "assetIds": []
    },
    {
      "x": 41,
      "y": 311,
      "size": 1,
      "price": "3000000000000000000000",
      "assetIds": []
    },
    {
      "x": 40,
      "y": 311,
      "size": 1,
      "price": "3000000000000000000000",
      "assetIds": []
    },
    {
      "x": 40,
      "y": 310,
      "size": 1,
      "price": "3000000000000000000000",
      "assetIds": []
    },
    {
      "x": 39,
      "y": 344,
      "size": 1,
      "price": "3000000000000000000000",
      "assetIds": []
    },
    {
      "x": 39,
      "y": 343,
      "size": 1,
      "price": "3000000000000000000000",
      "assetIds": []
    },
    {
      "x": 39,
      "y": 342,
      "size": 1,
      "price": "3000000000000000000000",
      "assetIds": []
    },
    {
      "x": 40,
      "y": 342,
      "size": 1,
      "price": "3000000000000000000000",
      "assetIds": []
    },
    {
      "x": 41,
      "y": 342,
      "size": 1,
      "price": "3000000000000000000000",
      "reserved": "0x7a9fe22691c811ea339d9b73150e6911a5343dca",
      "assetIds": []
    },
    {
      "x": 41,
      "y": 343,
      "size": 1,
      "price": "3000000000000000000000",
      "assetIds": []
    },
    {
      "x": 41,
      "y": 344,
      "size": 1,
      "price": "3000000000000000000000",
      "assetIds": []
    },
    {
      "x": 40,
      "y": 344,
      "size": 1,
      "price": "3000000000000000000000",
      "reserved": "0x7a9fe22691c811ea339d9b73150e6911a5343dca",
      "assetIds": []
    },
    {
      "x": 40,
      "y": 343,
      "size": 1,
      "price": "3000000000000000000000",
      "assetIds": []
    },
    {
      "x": 72,
      "y": 312,
      "size": 24,
      "price": "1382400000000000000000000",
      "reserved": "0x7a9fe22691c811ea339d9b73150e6911a5343dca",
      "assetIds": []
    },
    {
      "x": 108,
      "y": 336,
      "size": 12,
      "price": "367200000000000000000000",
      "assetIds": []
    },
    {
      "x": 48,
      "y": 324,
      "size": 12,
      "price": "367200000000000000000000",
      "assetIds": []
    },
    {
      "x": 60,
      "y": 300,
      "size": 12,
      "price": "367200000000000000000000",
      "assetIds": []
    },
    {
      "x": 96,
      "y": 288,
      "size": 12,
      "price": "367200000000000000000000",
      "assetIds": []
    },
    {
      "x": 72,
      "y": 276,
      "size": 12,
      "price": "367200000000000000000000",
      "reserved": "0x7a9fe22691c811ea339d9b73150e6911a5343dca",
      "assetIds": []
    },
    {
      "x": 108,
      "y": 372,
      "size": 12,
      "price": "367200000000000000000000",
      "reserved": "0x7a9fe22691c811ea339d9b73150e6911a5343dca",
      "assetIds": []
    },
    {
      "x": 96,
      "y": 360,
      "size": 12,
      "price": "367200000000000000000000",
      "assetIds": []
    },
    {
      "x": 72,
      "y": 336,
      "size": 12,
      "price": "367200000000000000000000",
      "assetIds": []
    },
    {
      "x": 36,
      "y": 312,
      "size": 12,
      "price": "367200000000000000000000",
      "assetIds": []
    },
    {
      "x": 96,
      "y": 372,
      "size": 6,
      "price": "97200000000000000000000",
      "assetIds": []
    },
    {
      "x": 108,
      "y": 366,
      "size": 6,
      "price": "97200000000000000000000",
      "assetIds": []
    },
    {
      "x": 96,
      "y": 354,
      "size": 6,
      "price": "97200000000000000000000",
      "assetIds": []
    },
    {
      "x": 78,
      "y": 354,
      "size": 6,
      "price": "97200000000000000000000",
      "assetIds": []
    },
    {
      "x": 90,
      "y": 342,
      "size": 6,
      "price": "97200000000000000000000",
      "reserved": "0x7a9fe22691c811ea339d9b73150e6911a5343dca",
      "assetIds": []
    },
    {
      "x": 84,
      "y": 336,
      "size": 6,
      "price": "97200000000000000000000",
      "assetIds": []
    },
    {
      "x": 126,
      "y": 336,
      "size": 6,
      "price": "97200000000000000000000",
      "assetIds": []
    },
    {
      "x": 66,
      "y": 342,
      "size": 6,
      "price": "97200000000000000000000",
      "assetIds": []
    },
    {
      "x": 48,
      "y": 342,
      "size": 6,
      "price": "97200000000000000000000",
      "assetIds": []
    },
    {
      "x": 66,
      "y": 324,
      "size": 6,
      "price": "97200000000000000000000",
      "assetIds": []
    },
    {
      "x": 114,
      "y": 324,
      "size": 6,
      "price": "97200000000000000000000",
      "reserved": "0x7a9fe22691c811ea339d9b73150e6911a5343dca",
      "assetIds": []
    },
    {
      "x": 102,
      "y": 312,
      "size": 6,
      "price": "97200000000000000000000",
      "assetIds": []
    },
    {
      "x": 84,
      "y": 306,
      "size": 6,
      "price": "97200000000000000000000",
      "assetIds": []
    },
    {
      "x": 78,
      "y": 300,
      "size": 6,
      "price": "97200000000000000000000",
      "reserved": "0x7a9fe22691c811ea339d9b73150e6911a5343dca",
      "assetIds": []
    },
    {
      "x": 78,
      "y": 288,
      "size": 6,
      "price": "97200000000000000000000",
      "assetIds": []
    },
    {
      "x": 66,
      "y": 282,
      "size": 6,
      "price": "97200000000000000000000",
      "assetIds": []
    },
    {
      "x": 48,
      "y": 288,
      "size": 6,
      "price": "97200000000000000000000",
      "assetIds": []
    },
    {
      "x": 42,
      "y": 294,
      "size": 6,
      "price": "97200000000000000000000",
      "reserved": "0x7a9fe22691c811ea339d9b73150e6911a5343dca",
      "assetIds": []
    },
    {
      "x": 114,
      "y": 282,
      "size": 6,
      "price": "97200000000000000000000",
      "assetIds": []
    },
    {
      "x": 105,
      "y": 381,
      "size": 3,
      "price": "25650000000000000000000",
      "assetIds": []
    },
    {
      "x": 102,
      "y": 378,
      "size": 3,
      "price": "25650000000000000000000",
      "assetIds": []
    },
    {
      "x": 96,
      "y": 378,
      "size": 3,
      "price": "25650000000000000000000",
      "assetIds": []
    },
    {
      "x": 102,
      "y": 375,
      "size": 3,
      "price": "25650000000000000000000",
      "assetIds": []
    },
    {
      "x": 105,
      "y": 375,
      "size": 3,
      "price": "25650000000000000000000",
      "assetIds": []
    },
    {
      "x": 102,
      "y": 372,
      "size": 3,
      "price": "25650000000000000000000",
      "assetIds": []
    },
    {
      "x": 99,
      "y": 381,
      "size": 3,
      "price": "25650000000000000000000",
      "reserved": "0x7a9fe22691c811ea339d9b73150e6911a5343dca",
      "assetIds": []
    },
    {
      "x": 117,
      "y": 369,
      "size": 3,
      "price": "25650000000000000000000",
      "assetIds": []
    },
    {
      "x": 117,
      "y": 366,
      "size": 3,
      "price": "25650000000000000000000",
      "assetIds": []
    },
    {
      "x": 117,
      "y": 363,
      "size": 3,
      "price": "25650000000000000000000",
      "assetIds": []
    },
    {
      "x": 114,
      "y": 366,
      "size": 3,
      "price": "25650000000000000000000",
      "assetIds": []
    },
    {
      "x": 108,
      "y": 363,
      "size": 3,
      "price": "25650000000000000000000",
      "assetIds": []
    },
    {
      "x": 111,
      "y": 363,
      "size": 3,
      "price": "25650000000000000000000",
      "assetIds": []
    },
    {
      "x": 111,
      "y": 360,
      "size": 3,
      "price": "25650000000000000000000",
      "assetIds": []
    },
    {
      "x": 111,
      "y": 357,
      "size": 3,
      "price": "25650000000000000000000",
      "assetIds": []
    },
    {
      "x": 108,
      "y": 357,
      "size": 3,
      "price": "25650000000000000000000",
      "assetIds": []
    },
    {
      "x": 102,
      "y": 357,
      "size": 3,
      "price": "25650000000000000000000",
      "assetIds": []
    },
    {
      "x": 90,
      "y": 357,
      "size": 3,
      "price": "25650000000000000000000",
      "assetIds": []
    },
    {
      "x": 117,
      "y": 357,
      "size": 3,
      "price": "25650000000000000000000",
      "reserved": "0x7a9fe22691c811ea339d9b73150e6911a5343dca",
      "assetIds": []
    },
    {
      "x": 117,
      "y": 354,
      "size": 3,
      "price": "25650000000000000000000",
      "assetIds": []
    },
    {
      "x": 114,
      "y": 354,
      "size": 3,
      "price": "25650000000000000000000",
      "assetIds": []
    },
    {
      "x": 108,
      "y": 354,
      "size": 3,
      "price": "25650000000000000000000",
      "assetIds": []
    },
    {
      "x": 102,
      "y": 354,
      "size": 3,
      "price": "25650000000000000000000",
      "assetIds": []
    },
    {
      "x": 93,
      "y": 354,
      "size": 3,
      "price": "25650000000000000000000",
      "assetIds": []
    },
    {
      "x": 96,
      "y": 351,
      "size": 3,
      "price": "25650000000000000000000",
      "assetIds": []
    },
    {
      "x": 93,
      "y": 351,
      "size": 3,
      "price": "25650000000000000000000",
      "reserved": "0x7a9fe22691c811ea339d9b73150e6911a5343dca",
      "assetIds": []
    },
    {
      "x": 72,
      "y": 357,
      "size": 3,
      "price": "25650000000000000000000",
      "assetIds": []
    },
    {
      "x": 75,
      "y": 354,
      "size": 3,
      "price": "25650000000000000000000",
      "reserved": "0x7a9fe22691c811ea339d9b73150e6911a5343dca",
      "assetIds": []
    },
    {
      "x": 72,
      "y": 351,
      "size": 3,
      "price": "25650000000000000000000",
      "assetIds": []
    },
    {
      "x": 78,
      "y": 351,
      "size": 3,
      "price": "25650000000000000000000",
      "assetIds": []
    },
    {
      "x": 84,
      "y": 351,
      "size": 3,
      "price": "25650000000000000000000",
      "assetIds": []
    },
    {
      "x": 87,
      "y": 351,
      "size": 3,
      "price": "25650000000000000000000",
      "assetIds": []
    },
    {
      "x": 75,
      "y": 348,
      "size": 3,
      "price": "25650000000000000000000",
      "assetIds": []
    },
    {
      "x": 81,
      "y": 348,
      "size": 3,
      "price": "25650000000000000000000",
      "assetIds": []
    },
    {
      "x": 87,
      "y": 348,
      "size": 3,
      "price": "25650000000000000000000",
      "assetIds": []
    },
    {
      "x": 90,
      "y": 348,
      "size": 3,
      "price": "25650000000000000000000",
      "assetIds": []
    },
    {
      "x": 96,
      "y": 348,
      "size": 3,
      "price": "25650000000000000000000",
      "assetIds": []
    },
    {
      "x": 99,
      "y": 348,
      "size": 3,
      "price": "25650000000000000000000",
      "assetIds": []
    },
    {
      "x": 84,
      "y": 342,
      "size": 3,
      "price": "25650000000000000000000",
      "assetIds": []
    },
    {
      "x": 87,
      "y": 342,
      "size": 3,
      "price": "25650000000000000000000",
      "assetIds": []
    },
    {
      "x": 96,
      "y": 345,
      "size": 3,
      "price": "25650000000000000000000",
      "assetIds": []
    },
    {
      "x": 96,
      "y": 342,
      "size": 3,
      "price": "25650000000000000000000",
      "assetIds": []
    },
    {
      "x": 99,
      "y": 342,
      "size": 3,
      "price": "25650000000000000000000",
      "assetIds": []
    },
    {
      "x": 129,
      "y": 342,
      "size": 3,
      "price": "25650000000000000000000",
      "assetIds": []
    },
    {
      "x": 99,
      "y": 339,
      "size": 3,
      "price": "25650000000000000000000",
      "assetIds": []
    },
    {
      "x": 90,
      "y": 339,
      "size": 3,
      "price": "25650000000000000000000",
      "assetIds": []
    },
    {
      "x": 93,
      "y": 336,
      "size": 3,
      "price": "25650000000000000000000",
      "assetIds": []
    },
    {
      "x": 96,
      "y": 336,
      "size": 3,
      "price": "25650000000000000000000",
      "assetIds": []
    },
    {
      "x": 96,
      "y": 330,
      "size": 3,
      "price": "25650000000000000000000",
      "assetIds": []
    },
    {
      "x": 99,
      "y": 330,
      "size": 3,
      "price": "25650000000000000000000",
      "assetIds": []
    },
    {
      "x": 123,
      "y": 330,
      "size": 3,
      "price": "25650000000000000000000",
      "assetIds": []
    },
    {
      "x": 111,
      "y": 324,
      "size": 3,
      "price": "25650000000000000000000",
      "assetIds": []
    },
    {
      "x": 117,
      "y": 321,
      "size": 3,
      "price": "25650000000000000000000",
      "assetIds": []
    },
    {
      "x": 108,
      "y": 321,
      "size": 3,
      "price": "25650000000000000000000",
      "reserved": "0x7a9fe22691c811ea339d9b73150e6911a5343dca",
      "assetIds": []
    },
    {
      "x": 105,
      "y": 324,
      "size": 3,
      "price": "25650000000000000000000",
      "assetIds": []
    },
    {
      "x": 105,
      "y": 327,
      "size": 3,
      "price": "25650000000000000000000",
      "assetIds": []
    },
    {
      "x": 108,
      "y": 327,
      "size": 3,
      "price": "25650000000000000000000",
      "assetIds": []
    },
    {
      "x": 99,
      "y": 327,
      "size": 3,
      "price": "25650000000000000000000",
      "reserved": "0x7a9fe22691c811ea339d9b73150e6911a5343dca",
      "assetIds": []
    },
    {
      "x": 96,
      "y": 324,
      "size": 3,
      "price": "25650000000000000000000",
      "assetIds": []
    },
    {
      "x": 99,
      "y": 324,
      "size": 3,
      "price": "25650000000000000000000",
      "assetIds": []
    },
    {
      "x": 96,
      "y": 318,
      "size": 3,
      "price": "25650000000000000000000",
      "assetIds": []
    },
    {
      "x": 96,
      "y": 315,
      "size": 3,
      "price": "25650000000000000000000",
      "assetIds": []
    },
    {
      "x": 105,
      "y": 318,
      "size": 3,
      "price": "25650000000000000000000",
      "assetIds": []
    },
    {
      "x": 108,
      "y": 318,
      "size": 3,
      "price": "25650000000000000000000",
      "assetIds": []
    },
    {
      "x": 108,
      "y": 315,
      "size": 3,
      "price": "25650000000000000000000",
      "assetIds": []
    },
    {
      "x": 114,
      "y": 318,
      "size": 3,
      "price": "25650000000000000000000",
      "assetIds": []
    },
    {
      "x": 114,
      "y": 315,
      "size": 3,
      "price": "25650000000000000000000",
      "assetIds": []
    },
    {
      "x": 117,
      "y": 312,
      "size": 3,
      "price": "25650000000000000000000",
      "assetIds": []
    },
    {
      "x": 111,
      "y": 312,
      "size": 3,
      "price": "25650000000000000000000",
      "assetIds": []
    },
    {
      "x": 99,
      "y": 312,
      "size": 3,
      "price": "25650000000000000000000",
      "assetIds": []
    },
    {
      "x": 108,
      "y": 309,
      "size": 3,
      "price": "25650000000000000000000",
      "assetIds": []
    },
    {
      "x": 111,
      "y": 306,
      "size": 3,
      "price": "25650000000000000000000",
      "reserved": "0x7a9fe22691c811ea339d9b73150e6911a5343dca",
      "assetIds": []
    },
    {
      "x": 111,
      "y": 303,
      "size": 3,
      "price": "25650000000000000000000",
      "assetIds": []
    },
    {
      "x": 105,
      "y": 306,
      "size": 3,
      "price": "25650000000000000000000",
      "assetIds": []
    },
    {
      "x": 102,
      "y": 306,
      "size": 3,
      "price": "25650000000000000000000",
      "assetIds": []
    },
    {
      "x": 93,
      "y": 309,
      "size": 3,
      "price": "25650000000000000000000",
      "assetIds": []
    },
    {
      "x": 96,
      "y": 309,
      "size": 3,
      "price": "25650000000000000000000",
      "assetIds": []
    },
    {
      "x": 90,
      "y": 306,
      "size": 3,
      "price": "25650000000000000000000",
      "assetIds": []
    },
    {
      "x": 93,
      "y": 306,
      "size": 3,
      "price": "25650000000000000000000",
      "assetIds": []
    },
    {
      "x": 93,
      "y": 303,
      "size": 3,
      "price": "25650000000000000000000",
      "reserved": "0x7a9fe22691c811ea339d9b73150e6911a5343dca",
      "assetIds": []
    },
    {
      "x": 81,
      "y": 309,
      "size": 3,
      "price": "25650000000000000000000",
      "assetIds": []
    },
    {
      "x": 81,
      "y": 306,
      "size": 3,
      "price": "25650000000000000000000",
      "assetIds": []
    },
    {
      "x": 84,
      "y": 303,
      "size": 3,
      "price": "25650000000000000000000",
      "assetIds": []
    },
    {
      "x": 87,
      "y": 300,
      "size": 3,
      "price": "25650000000000000000000",
      "assetIds": []
    },
    {
      "x": 75,
      "y": 303,
      "size": 3,
      "price": "25650000000000000000000",
      "assetIds": []
    },
    {
      "x": 117,
      "y": 288,
      "size": 3,
      "price": "25650000000000000000000",
      "assetIds": []
    },
    {
      "x": 120,
      "y": 285,
      "size": 3,
      "price": "25650000000000000000000",
      "reserved": "0x7a9fe22691c811ea339d9b73150e6911a5343dca",
      "assetIds": []
    },
    {
      "x": 120,
      "y": 282,
      "size": 3,
      "price": "25650000000000000000000",
      "assetIds": []
    },
    {
      "x": 111,
      "y": 282,
      "size": 3,
      "price": "25650000000000000000000",
      "assetIds": []
    },
    {
      "x": 105,
      "y": 279,
      "size": 3,
      "price": "25650000000000000000000",
      "assetIds": []
    },
    {
      "x": 99,
      "y": 279,
      "size": 3,
      "price": "25650000000000000000000",
      "assetIds": []
    },
    {
      "x": 93,
      "y": 279,
      "size": 3,
      "price": "25650000000000000000000",
      "assetIds": []
    },
    {
      "x": 87,
      "y": 279,
      "size": 3,
      "price": "25650000000000000000000",
      "assetIds": []
    },
    {
      "x": 84,
      "y": 282,
      "size": 3,
      "price": "25650000000000000000000",
      "assetIds": []
    },
    {
      "x": 87,
      "y": 282,
      "size": 3,
      "price": "25650000000000000000000",
      "assetIds": []
    },
    {
      "x": 90,
      "y": 282,
      "size": 3,
      "price": "25650000000000000000000",
      "assetIds": []
    },
    {
      "x": 87,
      "y": 285,
      "size": 3,
      "price": "25650000000000000000000",
      "assetIds": []
    },
    {
      "x": 87,
      "y": 288,
      "size": 3,
      "price": "25650000000000000000000",
      "reserved": "0x7a9fe22691c811ea339d9b73150e6911a5343dca",
      "assetIds": []
    },
    {
      "x": 87,
      "y": 291,
      "size": 3,
      "price": "25650000000000000000000",
      "assetIds": []
    },
    {
      "x": 84,
      "y": 288,
      "size": 3,
      "price": "25650000000000000000000",
      "assetIds": []
    },
    {
      "x": 84,
      "y": 297,
      "size": 3,
      "price": "25650000000000000000000",
      "assetIds": []
    },
    {
      "x": 84,
      "y": 294,
      "size": 3,
      "price": "25650000000000000000000",
      "assetIds": []
    },
    {
      "x": 81,
      "y": 297,
      "size": 3,
      "price": "25650000000000000000000",
      "assetIds": []
    },
    {
      "x": 78,
      "y": 294,
      "size": 3,
      "price": "25650000000000000000000",
      "assetIds": []
    },
    {
      "x": 75,
      "y": 294,
      "size": 3,
      "price": "25650000000000000000000",
      "assetIds": []
    },
    {
      "x": 75,
      "y": 291,
      "size": 3,
      "price": "25650000000000000000000",
      "assetIds": []
    },
    {
      "x": 72,
      "y": 288,
      "size": 3,
      "price": "25650000000000000000000",
      "assetIds": []
    },
    {
      "x": 69,
      "y": 288,
      "size": 3,
      "price": "25650000000000000000000",
      "assetIds": []
    },
    {
      "x": 66,
      "y": 288,
      "size": 3,
      "price": "25650000000000000000000",
      "assetIds": []
    },
    {
      "x": 63,
      "y": 288,
      "size": 3,
      "price": "25650000000000000000000",
      "assetIds": []
    },
    {
      "x": 66,
      "y": 291,
      "size": 3,
      "price": "25650000000000000000000",
      "assetIds": []
    },
    {
      "x": 60,
      "y": 291,
      "size": 3,
      "price": "25650000000000000000000",
      "assetIds": []
    },
    {
      "x": 57,
      "y": 288,
      "size": 3,
      "price": "25650000000000000000000",
      "assetIds": []
    },
    {
      "x": 54,
      "y": 288,
      "size": 3,
      "price": "25650000000000000000000",
      "assetIds": []
    },
    {
      "x": 45,
      "y": 288,
      "size": 3,
      "price": "25650000000000000000000",
      "assetIds": []
    },
    {
      "x": 48,
      "y": 285,
      "size": 3,
      "price": "25650000000000000000000",
      "assetIds": []
    },
    {
      "x": 51,
      "y": 285,
      "size": 3,
      "price": "25650000000000000000000",
      "assetIds": []
    },
    {
      "x": 60,
      "y": 285,
      "size": 3,
      "price": "25650000000000000000000",
      "assetIds": []
    },
    {
      "x": 63,
      "y": 282,
      "size": 3,
      "price": "25650000000000000000000",
      "assetIds": []
    },
    {
      "x": 69,
      "y": 279,
      "size": 3,
      "price": "25650000000000000000000",
      "assetIds": []
    },
    {
      "x": 57,
      "y": 282,
      "size": 3,
      "price": "25650000000000000000000",
      "assetIds": []
    },
    {
      "x": 54,
      "y": 294,
      "size": 3,
      "price": "25650000000000000000000",
      "assetIds": []
    },
    {
      "x": 54,
      "y": 291,
      "size": 3,
      "price": "25650000000000000000000",
      "reserved": "0x7a9fe22691c811ea339d9b73150e6911a5343dca",
      "assetIds": []
    },
    {
      "x": 48,
      "y": 294,
      "size": 3,
      "price": "25650000000000000000000",
      "assetIds": []
    },
    {
      "x": 45,
      "y": 300,
      "size": 3,
      "price": "25650000000000000000000",
      "assetIds": []
    },
    {
      "x": 45,
      "y": 303,
      "size": 3,
      "price": "25650000000000000000000",
      "assetIds": []
    },
    {
      "x": 45,
      "y": 306,
      "size": 3,
      "price": "25650000000000000000000",
      "assetIds": []
    },
    {
      "x": 42,
      "y": 306,
      "size": 3,
      "price": "25650000000000000000000",
      "assetIds": []
    },
    {
      "x": 39,
      "y": 306,
      "size": 3,
      "price": "25650000000000000000000",
      "reserved": "0x7a9fe22691c811ea339d9b73150e6911a5343dca",
      "assetIds": []
    },
    {
      "x": 39,
      "y": 303,
      "size": 3,
      "price": "25650000000000000000000",
      "assetIds": []
    },
    {
      "x": 42,
      "y": 309,
      "size": 3,
      "price": "25650000000000000000000",
      "assetIds": []
    },
    {
      "x": 48,
      "y": 309,
      "size": 3,
      "price": "25650000000000000000000",
      "assetIds": []
    },
    {
      "x": 51,
      "y": 309,
      "size": 3,
      "price": "25650000000000000000000",
      "assetIds": []
    },
    {
      "x": 51,
      "y": 306,
      "size": 3,
      "price": "25650000000000000000000",
      "assetIds": []
    },
    {
      "x": 48,
      "y": 303,
      "size": 3,
      "price": "25650000000000000000000",
      "assetIds": []
    },
    {
      "x": 51,
      "y": 300,
      "size": 3,
      "price": "25650000000000000000000",
      "assetIds": []
    },
    {
      "x": 48,
      "y": 312,
      "size": 3,
      "price": "25650000000000000000000",
      "assetIds": []
    },
    {
      "x": 51,
      "y": 312,
      "size": 3,
      "price": "25650000000000000000000",
      "assetIds": []
    },
    {
      "x": 48,
      "y": 315,
      "size": 3,
      "price": "25650000000000000000000",
      "reserved": "0x7a9fe22691c811ea339d9b73150e6911a5343dca",
      "assetIds": []
    },
    {
      "x": 51,
      "y": 315,
      "size": 3,
      "price": "25650000000000000000000",
      "assetIds": []
    },
    {
      "x": 54,
      "y": 315,
      "size": 3,
      "price": "25650000000000000000000",
      "assetIds": []
    },
    {
      "x": 63,
      "y": 318,
      "size": 3,
      "price": "25650000000000000000000",
      "assetIds": []
    },
    {
      "x": 66,
      "y": 318,
      "size": 3,
      "price": "25650000000000000000000",
      "assetIds": []
    },
    {
      "x": 69,
      "y": 318,
      "size": 3,
      "price": "25650000000000000000000",
      "assetIds": []
    },
    {
      "x": 69,
      "y": 321,
      "size": 3,
      "price": "25650000000000000000000",
      "reserved": "0x7a9fe22691c811ea339d9b73150e6911a5343dca",
      "assetIds": []
    },
    {
      "x": 66,
      "y": 321,
      "size": 3,
      "price": "25650000000000000000000",
      "assetIds": []
    },
    {
      "x": 69,
      "y": 330,
      "size": 3,
      "price": "25650000000000000000000",
      "assetIds": []
    },
    {
      "x": 69,
      "y": 333,
      "size": 3,
      "price": "25650000000000000000000",
      "assetIds": []
    },
    {
      "x": 66,
      "y": 333,
      "size": 3,
      "price": "25650000000000000000000",
      "reserved": "0x7a9fe22691c811ea339d9b73150e6911a5343dca",
      "assetIds": []
    },
    {
      "x": 66,
      "y": 336,
      "size": 3,
      "price": "25650000000000000000000",
      "assetIds": []
    },
    {
      "x": 63,
      "y": 339,
      "size": 3,
      "price": "25650000000000000000000",
      "assetIds": []
    },
    {
      "x": 60,
      "y": 342,
      "size": 3,
      "price": "25650000000000000000000",
      "assetIds": []
    },
    {
      "x": 60,
      "y": 345,
      "size": 3,
      "price": "25650000000000000000000",
      "assetIds": []
    },
    {
      "x": 63,
      "y": 345,
      "size": 3,
      "price": "25650000000000000000000",
      "assetIds": []
    },
    {
      "x": 45,
      "y": 345,
      "size": 3,
      "price": "25650000000000000000000",
      "assetIds": []
    },
    {
      "x": 45,
      "y": 348,
      "size": 3,
      "price": "25650000000000000000000",
      "assetIds": []
    },
    {
      "x": 42,
      "y": 348,
      "size": 3,
      "price": "25650000000000000000000",
      "assetIds": []
    },
    {
      "x": 39,
      "y": 345,
      "size": 3,
      "price": "25650000000000000000000",
      "assetIds": []
    },
    {
      "x": 42,
      "y": 342,
      "size": 3,
      "price": "25650000000000000000000",
      "assetIds": []
    },
    {
      "x": 42,
      "y": 339,
      "size": 3,
      "price": "25650000000000000000000",
      "assetIds": []
    },
    {
      "x": 42,
      "y": 330,
      "size": 3,
      "price": "25650000000000000000000",
      "assetIds": []
    },
    {
      "x": 123,
      "y": 345,
      "size": 3,
      "price": "25650000000000000000000",
      "assetIds": []
    },
    {
      "x": 126,
      "y": 345,
      "size": 3,
      "price": "25650000000000000000000",
      "reserved": "0x7a9fe22691c811ea339d9b73150e6911a5343dca",
      "assetIds": []
    },
    {
      "x": 129,
      "y": 345,
      "size": 3,
      "price": "25650000000000000000000",
      "assetIds": []
    },
    {
      "x": 102,
      "y": 330,
      "size": 3,
      "price": "25650000000000000000000",
      "assetIds": []
    },
    {
      "x": 102,
      "y": 321,
      "size": 3,
      "price": "25650000000000000000000",
      "assetIds": []
    }
  ],
  "solcInputHash": "0xee94757323a1f722333a777a0a3112f5b7d2f7c4a875ffff26f74ef888adf9a6",
  "bytecode": "0x610180604052620d2f006005556006805460ff60b01b1961ffff60a01b19909116600160a81b171690553480156200003657600080fd5b50604051620030693803806200306983398181016040526101a08110156200005d57600080fd5b50805160208201516040830151606080850151608086015160a08088015160c0808a015160e08b01516101008c01516101208d01516101408e01516101608f0151610180909f0151600280546001600160a01b0319166001600160a01b03851617905560038290558e8c1b6001600160601b03199081169099529a8d901b9097169094529a9b999a9899969895979396919590949093909190620001038b600162000179565b600680546001600160a01b039a8b166001600160a01b03199182161790915561016098909852610140969096526001600160601b0319606095861b811660e05293851b8416610100526000805499909816989096169790971790955592811b8316610120521b1660805250620001dd9350505050565b6001600160a01b038216600081815260016020908152604091829020805460ff191685151590811790915582519384529083015280517fb21eb88b4e33b3f1281830a7178d74d8aa73220416215726b68ae23d539515cb9281900390910190a15050565b60805160601c60a05160601c60c05160601c60e05160601c6101005160601c6101205160601c6101405161016051612df462000275600039806113c65280612c575250806113a252806118d75280611e0e525080612129528061224b52508061134a528061137b52508061293852508061113552806111665250806121b8528061221c52508061194b528061245f5250612df46000f3fe6080604052600436106101a15760003560e01c80637c53ec4c116100e1578063bc197c811161008a578063dc5074af11610064578063dc5074af14610c90578063e56f8a9e14610cc3578063e97eb0a214610ced578063f23a6e6114610d19576101a1565b8063bc197c8114610a3c578063c10a420814610bab578063caed350014610c7b576101a1565b8063984d6252116100bb578063984d625214610915578063a7e30684146109f4578063b522ecff14610a09576101a1565b80637c53ec4c1461087b5780638a04af6a146108a75780638f283970146108e2576101a1565b8063427b8d341161014e5780635d8e3021116101285780635d8e3021146106a057806365194ce7146106ca5780636e9960c31461083557806377f1c3ac14610866576101a1565b8063427b8d341461062f5780634a2537781461065857806358bc29441461066d576101a1565b806325cb5bc01161017f57806325cb5bc0146105c75780632eb4a7ab146105ee5780633b7c4c1514610603576101a1565b8063096bb3c6146101a65780630a474add146102ff57806318dff51014610463575b600080fd5b6102fd60048036036101608110156101bd57600080fd5b6001600160a01b038235811692602081013582169260408201359092169160608201359160808101359160a08201359160c08101359160e08201359190810190610120810161010082013564010000000081111561021a57600080fd5b82018360208201111561022c57600080fd5b8035906020019184602083028401116401000000008311171561024e57600080fd5b91939092909160208101903564010000000081111561026c57600080fd5b82018360208201111561027e57600080fd5b803590602001918460208302840111640100000000831117156102a057600080fd5b9193909290916020810190356401000000008111156102be57600080fd5b8201836020820111156102d057600080fd5b803590602001918460018302840111640100000000831117156102f257600080fd5b509092509050610dbb565b005b34801561030b57600080fd5b506102fd600480360361016081101561032357600080fd5b6001600160a01b038235811692602081013582169260408201359092169160608201359160808101359160a08201359160c08101359160e08201359190810190610120810161010082013564010000000081111561038057600080fd5b82018360208201111561039257600080fd5b803590602001918460208302840111640100000000831117156103b457600080fd5b9193909290916020810190356401000000008111156103d257600080fd5b8201836020820111156103e457600080fd5b8035906020019184602083028401116401000000008311171561040657600080fd5b91939092909160208101903564010000000081111561042457600080fd5b82018360208201111561043657600080fd5b8035906020019184600183028401116401000000008311171561045857600080fd5b509092509050610ff8565b34801561046f57600080fd5b506102fd600480360361016081101561048757600080fd5b6001600160a01b038235811692602081013582169260408201359092169160608201359160808101359160a08201359160c08101359160e0820135919081019061012081016101008201356401000000008111156104e457600080fd5b8201836020820111156104f657600080fd5b8035906020019184602083028401116401000000008311171561051857600080fd5b91939092909160208101903564010000000081111561053657600080fd5b82018360208201111561054857600080fd5b8035906020019184602083028401116401000000008311171561056a57600080fd5b91939092909160208101903564010000000081111561058857600080fd5b82018360208201111561059a57600080fd5b803590602001918460018302840111640100000000831117156105bc57600080fd5b5090925090506111d8565b3480156105d357600080fd5b506105dc6113a0565b60408051918252519081900360200190f35b3480156105fa57600080fd5b506105dc6113c4565b34801561060f57600080fd5b506102fd6004803603602081101561062657600080fd5b503515156113e8565b34801561063b57600080fd5b5061064461147d565b604080519115158252519081900360200190f35b34801561066457600080fd5b506106446114a0565b34801561067957600080fd5b506102fd6004803603602081101561069057600080fd5b50356001600160a01b03166114c2565b3480156106ac57600080fd5b506105dc600480360360208110156106c357600080fd5b503561156d565b3480156106d657600080fd5b5061077d600480360360208110156106ed57600080fd5b81019060208101813564010000000081111561070857600080fd5b82018360208201111561071a57600080fd5b8035906020019184600183028401116401000000008311171561073c57600080fd5b91908080601f01602080910402602001604051908101604052809392919081815260200183838082843760009201919091525092955061159c945050505050565b6040518080602001866001600160a01b03166001600160a01b03168152602001856001600160a01b03166001600160a01b03168152602001848152602001838152602001828103825287818151815260200191508051906020019080838360005b838110156107f65781810151838201526020016107de565b50505050905090810190601f1680156108235780820380516001836020036101000a031916815260200191505b50965050505050505060405180910390f35b34801561084157600080fd5b5061084a6116a1565b604080516001600160a01b039092168252519081900360200190f35b34801561087257600080fd5b506105dc6116b0565b34801561088757600080fd5b506102fd6004803603602081101561089e57600080fd5b503515156116b6565b3480156108b357600080fd5b506102fd600480360360408110156108ca57600080fd5b506001600160a01b0381351690602001351515611749565b3480156108ee57600080fd5b506102fd6004803603602081101561090557600080fd5b50356001600160a01b03166117a0565b34801561092157600080fd5b506102fd6004803603606081101561093857600080fd5b6001600160a01b03823516919081019060408101602082013564010000000081111561096357600080fd5b82018360208201111561097557600080fd5b8035906020019184602083028401116401000000008311171561099757600080fd5b9193909290916020810190356401000000008111156109b557600080fd5b8201836020820111156109c757600080fd5b803590602001918460208302840111640100000000831117156109e957600080fd5b509092509050611876565b348015610a0057600080fd5b50610644611a75565b348015610a1557600080fd5b506102fd60048036036020811015610a2c57600080fd5b50356001600160a01b0316611a96565b348015610a4857600080fd5b50610b76600480360360a0811015610a5f57600080fd5b6001600160a01b038235811692602081013590911691810190606081016040820135640100000000811115610a9357600080fd5b820183602082011115610aa557600080fd5b80359060200191846020830284011164010000000083111715610ac757600080fd5b919390929091602081019035640100000000811115610ae557600080fd5b820183602082011115610af757600080fd5b80359060200191846020830284011164010000000083111715610b1957600080fd5b919390929091602081019035640100000000811115610b3757600080fd5b820183602082011115610b4957600080fd5b80359060200191846001830284011164010000000083111715610b6b57600080fd5b509092509050611b53565b604080517fffffffff000000000000000000000000000000000000000000000000000000009092168252519081900360200190f35b348015610bb757600080fd5b50610644600480360360a0811015610bce57600080fd5b810190602081018135640100000000811115610be957600080fd5b820183602082011115610bfb57600080fd5b80359060200191846001830284011164010000000083111715610c1d57600080fd5b91908080601f016020809104026020016040519081016040528093929190818152602001838380828437600092019190915250929550506001600160a01b038335811694506020840135169260408101359250606001359050611b80565b348015610c8757600080fd5b5061084a611cbc565b348015610c9c57600080fd5b5061064460048036036020811015610cb357600080fd5b50356001600160a01b0316611ccb565b348015610ccf57600080fd5b506102fd60048036036020811015610ce657600080fd5b5035611ce9565b348015610cf957600080fd5b506102fd60048036036020811015610d1057600080fd5b50351515611d4d565b348015610d2557600080fd5b50610b76600480360360a0811015610d3c57600080fd5b6001600160a01b03823581169260208101359091169160408201359160608101359181019060a081016080820135640100000000811115610d7c57600080fd5b820183602082011115610d8e57600080fd5b80359060200191846001830284011164010000000083111715610db057600080fd5b509092509050611de1565b6006547501000000000000000000000000000000000000000000900460ff16610e2b576040805162461bcd60e51b815260206004820152601a60248201527f6574686572207061796d656e7473206e6f7420656e61626c6564000000000000604482015290519081900360640190fd5b610eb08e8d8d8d8d8d8d8d8d80806020026020016040519081016040528093929190818152602001838360200280828437600081840152601f19601f820116905080830192505050505050508c8c80806020026020016040519081016040528093929190818152602001838360200280828437600092019190915250611e0c92505050565b6000610ebb8961156d565b905080341015610f12576040805162461bcd60e51b815260206004820152601560248201527f6e6f7420656e6f7567682065746865722073656e740000000000000000000000604482015290519081900360640190fd5b3481900315610f4c5760405133903483900380156108fc02916000818181858888f19350505050158015610f4a573d6000803e3d6000fd5b505b610f998184848080601f016020809104026020016040519081016040528093929190818152602001838380828437600092019190915250506006546001600160a01b03169150611fe99050565b610faa8f8f8e8e8e8e60008861211d565b610fe78e8888808060200260200160405190810160405280939291908181526020018383602002808284376000920191909152506123e892505050565b505050505050505050505050505050565b60065474010000000000000000000000000000000000000000900460ff16611067576040805162461bcd60e51b815260206004820152601960248201527f73616e64207061796d656e7473206e6f7420656e61626c656400000000000000604482015290519081900360640190fd5b6110ec8e8d8d8d8d8d8d8d8d80806020026020016040519081016040528093929190818152602001838360200280828437600081840152601f19601f820116905080830192505050505050508c8c80806020026020016040519081016040528093929190818152602001838360200280828437600092019190915250611e0c92505050565b61115b8e8984848080601f016020809104026020016040519081016040528093929190818152602001838380828437600092019190915250506006546001600160a01b031691507f000000000000000000000000000000000000000000000000000000000000000090506125ac565b61118b8e8e8d8d8d8d7f00000000000000000000000000000000000000000000000000000000000000008f61211d565b6111c88d8787808060200260200160405190810160405280939291908181526020018383602002808284376000920191909152506123e892505050565b5050505050505050505050505050565b600654760100000000000000000000000000000000000000000000900460ff16611249576040805162461bcd60e51b815260206004820152601860248201527f646169207061796d656e7473206e6f7420656e61626c65640000000000000000604482015290519081900360640190fd5b6112ce8e8d8d8d8d8d8d8d8d80806020026020016040519081016040528093929190818152602001838360200280828437600081840152601f19601f820116905080830192505050505050508c8c80806020026020016040519081016040528093929190818152602001838360200280828437600092019190915250611e0c92505050565b60006112ff670de0b6b3a76400006112f38b663328b944c4000063ffffffff61285816565b9063ffffffff6128ce16565b90506113708f8285858080601f016020809104026020016040519081016040528093929190818152602001838380828437600092019190915250506006546001600160a01b031691507f000000000000000000000000000000000000000000000000000000000000000090506125ac565b610faa8f8f8e8e8e8e7f00000000000000000000000000000000000000000000000000000000000000008861211d565b7f000000000000000000000000000000000000000000000000000000000000000090565b7f000000000000000000000000000000000000000000000000000000000000000090565b6000546001600160a01b031633146114315760405162461bcd60e51b8152600401808060200182810382526021815260200180612d9e6021913960400191505060405180910390fd5b60068054911515760100000000000000000000000000000000000000000000027fffffffffffffffffff00ffffffffffffffffffffffffffffffffffffffffffff909216919091179055565b600654760100000000000000000000000000000000000000000000900460ff1690565b6006547501000000000000000000000000000000000000000000900460ff1690565b6000546001600160a01b03163314611521576040805162461bcd60e51b815260206004820152601060248201527f53656e646572206e6f742061646d696e00000000000000000000000000000000604482015290519081900360640190fd5b600554600280546001600160a01b03908116600090815260046020526040902042909301909255805473ffffffffffffffffffffffffffffffffffffffff191692909116919091179055565b600080611578612933565b9050611595816112f385663328b944c4000063ffffffff61285816565b9392505050565b606060008060008060606000806000808a80602001905160a08110156115c157600080fd5b81019080805160405193929190846401000000008211156115e157600080fd5b9083019060208201858111156115f657600080fd5b825164010000000081118282018810171561161057600080fd5b82525081516020918201929091019080838360005b8381101561163d578181015183820152602001611625565b50505050905090810190601f16801561166a5780820380516001836020036101000a031916815260200191505b5060409081526020820151908201516060830151608090930151959f50909d509b5099509197505050505050505091939590929450565b6000546001600160a01b031690565b60035490565b6000546001600160a01b031633146116ff5760405162461bcd60e51b8152600401808060200182810382526022815260200180612d4e6022913960400191505060405180910390fd5b6006805491151574010000000000000000000000000000000000000000027fffffffffffffffffffffff00ffffffffffffffffffffffffffffffffffffffff909216919091179055565b6000546001600160a01b031633146117925760405162461bcd60e51b815260040180806020018281038252602e815260200180612d70602e913960400191505060405180910390fd5b61179c82826129c1565b5050565b6000546001600160a01b031633146117ff576040805162461bcd60e51b815260206004820152601b60248201527f6f6e6c792061646d696e2063616e206368616e67652061646d696e0000000000604482015290519081900360640190fd5b600054604080516001600160a01b039283168152918316602083015280517f7e644d79422f17c01e4894b5f4f588d331ebfa28653d42ae832dc59e38c9798f9281900390910190a16000805473ffffffffffffffffffffffffffffffffffffffff19166001600160a01b0392909216919091179055565b6000546001600160a01b031633146118d5576040805162461bcd60e51b815260206004820152600e60248201527f4e4f545f415554484f52495a4544000000000000000000000000000000000000604482015290519081900360640190fd5b7f00000000000000000000000000000000000000000000000000000000000000004211611949576040805162461bcd60e51b815260206004820152600d60248201527f53414c455f4e4f545f4f56455200000000000000000000000000000000000000604482015290519081900360640190fd5b7f00000000000000000000000000000000000000000000000000000000000000006001600160a01b0316632eb2c2d63087878787876040518763ffffffff1660e01b815260040180876001600160a01b03166001600160a01b03168152602001866001600160a01b03166001600160a01b031681526020018060200180602001806020018481038452888882818152602001925060200280828437600083820152601f01601f19169091018581038452868152602090810191508790870280828437600081840152601f19601f8201169050808301925050508481038252600081526020016020019950505050505050505050600060405180830381600087803b158015611a5657600080fd5b505af1158015611a6a573d6000803e3d6000fd5b505050505050505050565b60065474010000000000000000000000000000000000000000900460ff1690565b6001600160a01b038116611adb5760405162461bcd60e51b8152600401808060200182810382526027815260200180612cfd6027913960400191505060405180910390fd5b6000546001600160a01b03163314611b245760405162461bcd60e51b815260040180806020018281038252602a815260200180612d24602a913960400191505060405180910390fd5b6006805473ffffffffffffffffffffffffffffffffffffffff19166001600160a01b0392909216919091179055565b7fbc197c810000000000000000000000000000000000000000000000000000000098975050505050505050565b6000600354821180611ba35750836001600160a01b0316856001600160a01b0316145b80611bad57508242115b15611bba57506000611cb3565b60408051606087811b7fffffffffffffffffffffffffffffffffffffffff0000000000000000000000009081166020808501919091529188901b166034830152604882018690526068808301869052835180840390910181526088830184528051908201207f19457468657265756d205369676e6564204d6573736167653a0a33320000000060a884015260c48084018290528451808503909101815260e49093019093528151910120600090611c719089612a43565b6001600160a01b0381166000908152600460205260409020549091504211611c9e57600192505050611cb3565b6002546001600160a01b039081169116149150505b95945050505050565b6002546001600160a01b031690565b6001600160a01b031660009081526001602052604090205460ff1690565b6000546001600160a01b03163314611d48576040805162461bcd60e51b815260206004820152601060248201527f53656e646572206e6f742061646d696e00000000000000000000000000000000604482015290519081900360640190fd5b600355565b6000546001600160a01b03163314611d965760405162461bcd60e51b8152600401808060200182810382526021815260200180612cdc6021913960400191505060405180910390fd5b600680549115157501000000000000000000000000000000000000000000027fffffffffffffffffffff00ffffffffffffffffffffffffffffffffffffffffff909216919091179055565b7ff23a6e61000000000000000000000000000000000000000000000000000000009695505050505050565b7f00000000000000000000000000000000000000000000000000000000000000004210611e80576040805162461bcd60e51b815260206004820152600c60248201527f73616c65206973206f7665720000000000000000000000000000000000000000604482015290519081900360640190fd5b6001600160a01b038916331480611ea657503360009081526001602052604090205460ff165b611ef7576040805162461bcd60e51b815260206004820152600e60248201527f6e6f7420617574686f72697a6564000000000000000000000000000000000000604482015290519081900360640190fd5b6001600160a01b0388161580611f1e5750886001600160a01b0316886001600160a01b0316145b611f6f576040805162461bcd60e51b815260206004820152601860248201527f63616e6e6f7420627579207265736572766564204c616e640000000000000000604482015290519081900360640190fd5b6000611f80888888888d8989612b10565b9050611f8c8282612bb5565b611fdd576040805162461bcd60e51b815260206004820152601560248201527f496e76616c6964206c616e642070726f76696465640000000000000000000000604482015290519081900360640190fd5b50505050505050505050565b81518390156120e05760606000806000806120038861159c565b939850919650945092509050600061201e8686868686611b80565b1561209b576120386120308b84612858565b6127106128ce565b604080518c81526020810183905280820185905290519192506000916001600160a01b0387811692908916917fac7a699eb95c3c6d390ec4626de17ef9a67b35891efdb197beba7c7fdd45fac49181900360600190a46120988782612c7e565b96505b80156120d9576040516001600160a01b0386169082156108fc029083906000818181858888f193505050501580156120d7573d6000803e3d6000fd5b505b5050505050505b6040516001600160a01b0383169082156108fc029083906000818181858888f19350505050158015612116573d6000803e3d6000fd5b5050505050565b836001148061215357507f00000000000000000000000000000000000000000000000000000000000000006001600160a01b0316155b1561221a57604080517f6e1e3bbf0000000000000000000000000000000000000000000000000000000081526001600160a01b03898116600483015260248201879052604482018990526064820188905260a06084830152600060a4830181905292517f000000000000000000000000000000000000000000000000000000000000000090911692636e1e3bbf9260e4808201939182900301818387803b1580156121fd57600080fd5b505af1158015612211573d6000803e3d6000fd5b5050505061237e565b7f00000000000000000000000000000000000000000000000000000000000000006001600160a01b0316636e1e3bbf7f00000000000000000000000000000000000000000000000000000000000000008689898c60405160200180826001600160a01b03166001600160a01b031681526020019150506040516020818303038152906040526040518663ffffffff1660e01b815260040180866001600160a01b03166001600160a01b0316815260200185815260200184815260200183815260200180602001828103825283818151815260200191508051906020019080838360005b838110156123155781810151838201526020016122fd565b50505050905090810190601f1680156123425780820380516001836020036101000a031916815260200191505b509650505050505050600060405180830381600087803b15801561236557600080fd5b505af1158015612379573d6000803e3d6000fd5b505050505b60408051858152602081018590526001600160a01b03848116828401526060820184905291516101988802890192808b1692908c16917fe4dfa6ac11314892f3029b34a25b1a887da3b1cab2bbf8506d87128ba6e3ac029181900360800190a45050505050505050565b6060815167ffffffffffffffff8111801561240257600080fd5b5060405190808252806020026020018201604052801561242c578160200160208202803683370190505b50905060005b825181101561245c57600182828151811061244957fe5b6020908102919091010152600101612432565b507f00000000000000000000000000000000000000000000000000000000000000006001600160a01b0316632eb2c2d6308585856040518563ffffffff1660e01b815260040180856001600160a01b03166001600160a01b03168152602001846001600160a01b03166001600160a01b03168152602001806020018060200180602001848103845286818151815260200191508051906020019060200280838360005b838110156125175781810151838201526020016124ff565b50505050905001848103835285818151815260200191508051906020019060200280838360005b8381101561255657818101518382015260200161253e565b50505050905001848103825260008152602001602001975050505050505050600060405180830381600087803b15801561258f57600080fd5b505af11580156125a3573d6000803e3d6000fd5b50505050505050565b825181908590156127675760606000806000806125c88a61159c565b93985091965094509250905060006125e38686868686611b80565b15612669576125f56120308d84612858565b9050886001600160a01b0316846001600160a01b0316866001600160a01b03167fac7a699eb95c3c6d390ec4626de17ef9a67b35891efdb197beba7c7fdd45fac48f858760405180848152602001838152602001828152602001935050505060405180910390a46126668782612c7e565b96505b801561276057604080517f23b872dd0000000000000000000000000000000000000000000000000000000081526001600160a01b038f811660048301528781166024830152604482018490529151918a16916323b872dd916064808201926020929091908290030181600087803b1580156126e357600080fd5b505af11580156126f7573d6000803e3d6000fd5b505050506040513d602081101561270d57600080fd5b5051612760576040805162461bcd60e51b815260206004820152601960248201527f636f6d6d6973696f6e207472616e73666572206661696c656400000000000000604482015290519081900360640190fd5b5050505050505b604080517f23b872dd0000000000000000000000000000000000000000000000000000000081526001600160a01b0389811660048301528681166024830152604482018490529151918416916323b872dd916064808201926020929091908290030181600087803b1580156127db57600080fd5b505af11580156127ef573d6000803e3d6000fd5b505050506040513d602081101561280557600080fd5b50516125a3576040805162461bcd60e51b815260206004820152601760248201527f7061796d656e74207472616e73666572206661696c6564000000000000000000604482015290519081900360640190fd5b600082612867575060006128c8565b508181028183828161287557fe5b04146128c8576040805162461bcd60e51b815260206004820152600860248201527f6f766572666c6f77000000000000000000000000000000000000000000000000604482015290519081900360640190fd5b92915050565b600081612922576040805162461bcd60e51b815260206004820152600960248201527f64697662797a65726f0000000000000000000000000000000000000000000000604482015290519081900360640190fd5b81838161292b57fe5b049392505050565b6000807f00000000000000000000000000000000000000000000000000000000000000006001600160a01b03166357de26a46040518163ffffffff1660e01b815260040160206040518083038186803b15801561298f57600080fd5b505afa1580156129a3573d6000803e3d6000fd5b505050506040513d60208110156129b957600080fd5b505191505090565b6001600160a01b03821660008181526001602090815260409182902080547fffffffffffffffffffffffffffffffffffffffffffffffffffffffffffffff001685151590811790915582519384529083015280517fb21eb88b4e33b3f1281830a7178d74d8aa73220416215726b68ae23d539515cb9281900390910190a15050565b60008151604114612a5357600080fd5b60208201516040830151606084015160001a601b811015612a7257601b015b8060ff16601b1480612a8757508060ff16601c145b612a9057600080fd5b6040805160008152602080820180845289905260ff8416828401526060820186905260808201859052915160019260a0808401939192601f1981019281900390910190855afa158015612ae7573d6000803e3d6000fd5b5050604051601f1901519450506001600160a01b038416612b0757600080fd5b50505092915050565b60008787878787878760405160200180888152602001878152602001868152602001858152602001846001600160a01b03166001600160a01b031660601b8152601401838152602001828051906020019060200280838360005b83811015612b82578181015183820152602001612b6a565b50505050905001975050505050505050604051602081830303815290604052805190602001209050979650505050505050565b600081815b8451811015612c54576000858281518110612bd157fe5b6020026020010151905080831015612c195782816040516020018083815260200182815260200192505050604051602081830303815290604052805190602001209250612c4b565b808360405160200180838152602001828152602001925050506040516020818303038152906040528051906020012092505b50600101612bba565b507f0000000000000000000000000000000000000000000000000000000000000000149392505050565b600082821115612cd5576040805162461bcd60e51b815260206004820152600860248201527f756e6465666c6f77000000000000000000000000000000000000000000000000604482015290519081900360640190fd5b5090039056fe6f6e6c792061646d696e2063616e20656e61626c652f64697361626c6520455448726563656976696e672077616c6c65742063616e6e6f74206265207a65726f20616464726573736f6e6c792061646d696e2063616e206368616e67652074686520726563656976696e672077616c6c65746f6e6c792061646d696e2063616e20656e61626c652f64697361626c652053414e446f6e6c792061646d696e2063616e207365747570206d6574615472616e73616374696f6e50726f636573736f72736f6e6c792061646d696e2063616e20656e61626c652f64697361626c6520444149a2646970667358221220017c86843cd55aab5f48daa4112028f7c7f4b8849a084b581d3f67acfd58b6f864736f6c63430006050033",
  "devdoc": {
    "methods": {
      "buyLandWithDAI(address,address,address,uint256,uint256,uint256,uint256,bytes32,uint256[],bytes32[],bytes)": {
        "params": {
          "buyer": "address that perform the payment",
          "priceInSand": "price in SAND to purchase that Land",
          "proof": "merkleProof for that particular Land",
          "reserved": "the reserved address (if any)",
          "size": "size of the pack of Land to purchase",
          "to": "address that will own the purchased Land",
          "x": "x coordinate of the Land",
          "y": "y coordinate of the Land"
        }
      },
      "buyLandWithETH(address,address,address,uint256,uint256,uint256,uint256,bytes32,uint256[],bytes32[],bytes)": {
        "params": {
          "buyer": "address that perform the payment",
          "priceInSand": "price in SAND to purchase that Land",
          "proof": "merkleProof for that particular Land",
          "referral": "the referral used by the buyer",
          "reserved": "the reserved address (if any)",
          "size": "size of the pack of Land to purchase",
          "to": "address that will own the purchased Land",
          "x": "x coordinate of the Land",
          "y": "y coordinate of the Land"
        }
      },
      "buyLandWithSand(address,address,address,uint256,uint256,uint256,uint256,bytes32,uint256[],bytes32[],bytes)": {
        "params": {
          "buyer": "address that perform the payment",
          "priceInSand": "price in SAND to purchase that Land",
          "proof": "merkleProof for that particular Land",
          "reserved": "the reserved address (if any)",
          "size": "size of the pack of Land to purchase",
          "to": "address that will own the purchased Land",
          "x": "x coordinate of the Land",
          "y": "y coordinate of the Land"
        }
      },
      "changeAdmin(address)": {
        "details": "change the administrator to be `newAdmin`.",
        "params": {
          "newAdmin": "address of the new administrator."
        }
      },
      "getAdmin()": {
        "details": "gives the current administrator of this contract.",
        "returns": {
          "_0": "the current administrator of this contract."
        }
      },
      "getEtherAmountWithSAND(uint256)": {
        "params": {
          "sandAmount": "An amount of SAND"
        },
        "returns": {
          "_0": "The amount of ETH"
        }
      },
      "getSigningWallet()": {
        "details": "signing wallet authorized for referral",
        "returns": {
          "_0": "the address of the signing wallet"
        }
      },
      "isMetaTransactionProcessor(address)": {
        "details": "check whether address `who` is given meta-transaction execution rights.",
        "params": {
          "who": "The address to query."
        },
        "returns": {
          "_0": "whether the address has meta-transaction execution rights."
        }
      },
      "isReferralValid(bytes,address,address,uint256,uint256)": {
        "params": {
          "commissionRate": "The commissionRate of the referral",
          "expiryTime": "The expiry time of the referral",
          "referee": "The address of the referee",
          "referrer": "The address of the referrer",
          "signature": "The signature to check (signed referral)"
        },
        "returns": {
          "_0": "True if the referral is valid"
        }
      },
      "setDAIEnabled(bool)": {
        "details": "enable/disable DAI payment for Lands",
        "params": {
          "enabled": "whether to enable or disable"
        }
      },
      "setETHEnabled(bool)": {
        "params": {
          "enabled": "whether to enable or disable"
        }
      },
      "setMetaTransactionProcessor(address,bool)": {
        "details": "Enable or disable the ability of `metaTransactionProcessor` to perform meta-tx (metaTransactionProcessor rights).",
        "params": {
          "enabled": "set whether the metaTransactionProcessor is enabled or disabled.",
          "metaTransactionProcessor": "address that will be given/removed metaTransactionProcessor rights."
        }
      },
      "setReceivingWallet(address)": {
        "details": "set the wallet receiving the proceeds",
        "params": {
          "newWallet": "address of the new receiving wallet"
        }
      },
      "setSANDEnabled(bool)": {
        "details": "enable/disable the specific SAND payment for Lands",
        "params": {
          "enabled": "whether to enable or disable"
        }
      },
      "updateMaxCommissionRate(uint256)": {
        "details": "Update the maximum commission rate",
        "params": {
          "newMaxCommissionRate": "The new maximum commission rate"
        }
      },
      "updateSigningWallet(address)": {
        "details": "Update the signing wallet",
        "params": {
          "newSigningWallet": "The new address of the signing wallet"
        }
      }
    },
    "title": "Estate Sale contract with referral that supports also DAI and ETH as payment"
  },
  "userdoc": {
    "methods": {
      "buyLandWithDAI(address,address,address,uint256,uint256,uint256,uint256,bytes32,uint256[],bytes32[],bytes)": {
        "notice": "buy Land with DAI using the merkle proof associated with it"
      },
      "buyLandWithETH(address,address,address,uint256,uint256,uint256,uint256,bytes32,uint256[],bytes32[],bytes)": {
        "notice": "buy Land with ETH using the merkle proof associated with it"
      },
      "buyLandWithSand(address,address,address,uint256,uint256,uint256,uint256,bytes32,uint256[],bytes32[],bytes)": {
        "notice": "buy Land with SAND using the merkle proof associated with it"
      },
      "getEtherAmountWithSAND(uint256)": {
        "notice": "Returns the amount of ETH for a specific amount of SAND"
      },
      "getExpiryTime()": {
        "notice": "Gets the expiry time for the current sale"
      },
      "getMaxCommisionRate()": {
        "notice": "the max commision rate"
      },
      "isDAIEnabled()": {
        "notice": "return whether DAI payments are enabled"
      },
      "isETHEnabled()": {
        "notice": "return whether ETH payments are enabled"
      },
      "isReferralValid(bytes,address,address,uint256,uint256)": {
        "notice": "Check if a referral is valid"
      },
      "isSANDEnabled()": {
        "notice": "return whether the specific SAND payments are enabled"
      },
      "merkleRoot()": {
        "notice": "Gets the Merkle root associated with the current sale"
      },
      "setETHEnabled(bool)": {
        "notice": "enable/disable ETH payment for Lands"
      }
    },
    "notice": "This contract mananges the sale of our lands as Estates"
  },
  "storageLayout": {
    "storage": [
      {
        "astId": 14649,
        "contract": "src/EstateSale/EstateSale.sol:EstateSale",
        "label": "_admin",
        "offset": 0,
        "slot": "0",
        "type": "t_address"
      },
      {
        "astId": 14711,
        "contract": "src/EstateSale/EstateSale.sol:EstateSale",
        "label": "_metaTransactionContracts",
        "offset": 0,
        "slot": "1",
        "type": "t_mapping(t_address,t_bool)"
      },
      {
        "astId": 12769,
        "contract": "src/EstateSale/EstateSale.sol:EstateSale",
        "label": "_signingWallet",
        "offset": 0,
        "slot": "2",
        "type": "t_address"
      },
      {
        "astId": 12771,
        "contract": "src/EstateSale/EstateSale.sol:EstateSale",
        "label": "_maxCommissionRate",
        "offset": 0,
        "slot": "3",
        "type": "t_uint256"
      },
      {
        "astId": 12775,
        "contract": "src/EstateSale/EstateSale.sol:EstateSale",
        "label": "_previousSigningWallets",
        "offset": 0,
        "slot": "4",
        "type": "t_mapping(t_address,t_uint256)"
      },
      {
        "astId": 12784,
        "contract": "src/EstateSale/EstateSale.sol:EstateSale",
        "label": "_previousSigningDelay",
        "offset": 0,
        "slot": "5",
        "type": "t_uint256"
      },
      {
        "astId": 11019,
        "contract": "src/EstateSale/EstateSale.sol:EstateSale",
        "label": "_wallet",
        "offset": 0,
        "slot": "6",
        "type": "t_address_payable"
      },
      {
        "astId": 11026,
        "contract": "src/EstateSale/EstateSale.sol:EstateSale",
        "label": "_sandEnabled",
        "offset": 20,
        "slot": "6",
        "type": "t_bool"
      },
      {
        "astId": 11029,
        "contract": "src/EstateSale/EstateSale.sol:EstateSale",
        "label": "_etherEnabled",
        "offset": 21,
        "slot": "6",
        "type": "t_bool"
      },
      {
        "astId": 11032,
        "contract": "src/EstateSale/EstateSale.sol:EstateSale",
        "label": "_daiEnabled",
        "offset": 22,
        "slot": "6",
        "type": "t_bool"
      }
    ],
    "types": {
      "t_address": {
        "encoding": "inplace",
        "label": "address",
        "numberOfBytes": "20"
      },
      "t_address_payable": {
        "encoding": "inplace",
        "label": "address payable",
        "numberOfBytes": "20"
      },
      "t_bool": {
        "encoding": "inplace",
        "label": "bool",
        "numberOfBytes": "1"
      },
      "t_mapping(t_address,t_bool)": {
        "encoding": "mapping",
        "key": "t_address",
        "label": "mapping(address => bool)",
        "numberOfBytes": "32",
        "value": "t_bool"
      },
      "t_mapping(t_address,t_uint256)": {
        "encoding": "mapping",
        "key": "t_address",
        "label": "mapping(address => uint256)",
        "numberOfBytes": "32",
        "value": "t_uint256"
      },
      "t_uint256": {
        "encoding": "inplace",
        "label": "uint256",
        "numberOfBytes": "32"
      }
    }
  },
  "contractFilepath": "src/EstateSale/EstateSale.sol",
  "contractName": "EstateSale",
  "gasEstimates": {
    "creation": {
      "codeDepositCost": "2352800",
      "executionCost": "infinite",
      "totalCost": "infinite"
    },
    "external": {
      "buyLandWithDAI(address,address,address,uint256,uint256,uint256,uint256,bytes32,uint256[],bytes32[],bytes)": "infinite",
      "buyLandWithETH(address,address,address,uint256,uint256,uint256,uint256,bytes32,uint256[],bytes32[],bytes)": "infinite",
      "buyLandWithSand(address,address,address,uint256,uint256,uint256,uint256,bytes32,uint256[],bytes32[],bytes)": "infinite",
      "changeAdmin(address)": "24158",
      "decodeReferral(bytes)": "infinite",
      "getAdmin()": "1126",
      "getEtherAmountWithSAND(uint256)": "infinite",
      "getExpiryTime()": "infinite",
      "getMaxCommisionRate()": "1109",
      "getSigningWallet()": "1126",
      "isDAIEnabled()": "1067",
      "isETHEnabled()": "1089",
      "isMetaTransactionProcessor(address)": "1198",
      "isReferralValid(bytes,address,address,uint256,uint256)": "infinite",
      "isSANDEnabled()": "1088",
      "merkleRoot()": "infinite",
      "onERC1155BatchReceived(address,address,uint256[],uint256[],bytes)": "875",
      "onERC1155Received(address,address,uint256,uint256,bytes)": "632",
      "setDAIEnabled(bool)": "infinite",
      "setETHEnabled(bool)": "infinite",
      "setMetaTransactionProcessor(address,bool)": "infinite",
      "setReceivingWallet(address)": "infinite",
      "setSANDEnabled(bool)": "infinite",
      "updateMaxCommissionRate(uint256)": "21095",
      "updateSigningWallet(address)": "43692",
      "withdrawAssets(address,uint256[],uint256[])": "infinite"
    },
    "internal": {
      "_checkValidity(address,address,uint256,uint256,uint256,uint256,bytes32,uint256[] memory,bytes32[] memory)": "infinite",
      "_generateLandHash(uint256,uint256,uint256,uint256,address,bytes32,uint256[] memory)": "infinite",
      "_mint(address,address,uint256,uint256,uint256,uint256,address,uint256)": "infinite",
      "_sendAssets(address,uint256[] memory)": "infinite",
      "_verify(bytes32[] memory,bytes32)": "infinite",
      "getEthUsdPair()": "infinite"
    }
  }
}