{
  "address": "0xc5bcD221D812c38DddE8D7C196Cc016949255f2e",
  "abi": [
    {
      "inputs": [
        {
          "internalType": "address",
          "name": "landAddress",
          "type": "address"
        },
        {
          "internalType": "address",
          "name": "sandContractAddress",
          "type": "address"
        },
        {
          "internalType": "address",
          "name": "initialMetaTx",
          "type": "address"
        },
        {
          "internalType": "address",
          "name": "admin",
          "type": "address"
        },
        {
          "internalType": "address payable",
          "name": "initialWalletAddress",
          "type": "address"
        },
        {
          "internalType": "bytes32",
          "name": "merkleRoot",
          "type": "bytes32"
        },
        {
          "internalType": "uint256",
          "name": "expiryTime",
          "type": "uint256"
        },
        {
          "internalType": "address",
          "name": "initialSigningWallet",
          "type": "address"
        },
        {
          "internalType": "uint256",
          "name": "initialMaxCommissionRate",
          "type": "uint256"
        },
        {
          "internalType": "address",
          "name": "estate",
          "type": "address"
        },
        {
          "internalType": "address",
          "name": "asset",
          "type": "address"
        },
        {
          "internalType": "address",
          "name": "feeDistributor",
          "type": "address"
        }
      ],
      "stateMutability": "nonpayable",
      "type": "constructor"
    },
    {
      "anonymous": false,
      "inputs": [
        {
          "indexed": false,
          "internalType": "address",
          "name": "oldAdmin",
          "type": "address"
        },
        {
          "indexed": false,
          "internalType": "address",
          "name": "newAdmin",
          "type": "address"
        }
      ],
      "name": "AdminChanged",
      "type": "event"
    },
    {
      "anonymous": false,
      "inputs": [
        {
          "indexed": true,
          "internalType": "address",
          "name": "buyer",
          "type": "address"
        },
        {
          "indexed": true,
          "internalType": "address",
          "name": "to",
          "type": "address"
        },
        {
          "indexed": true,
          "internalType": "uint256",
          "name": "topCornerId",
          "type": "uint256"
        },
        {
          "indexed": false,
          "internalType": "uint256",
          "name": "size",
          "type": "uint256"
        },
        {
          "indexed": false,
          "internalType": "uint256",
          "name": "price",
          "type": "uint256"
        },
        {
          "indexed": false,
          "internalType": "address",
          "name": "token",
          "type": "address"
        },
        {
          "indexed": false,
          "internalType": "uint256",
          "name": "amountPaid",
          "type": "uint256"
        }
      ],
      "name": "LandQuadPurchased",
      "type": "event"
    },
    {
      "anonymous": false,
      "inputs": [
        {
          "indexed": false,
          "internalType": "address",
          "name": "metaTransactionProcessor",
          "type": "address"
        },
        {
          "indexed": false,
          "internalType": "bool",
          "name": "enabled",
          "type": "bool"
        }
      ],
      "name": "MetaTransactionProcessor",
      "type": "event"
    },
    {
      "anonymous": false,
      "inputs": [
        {
          "indexed": true,
          "internalType": "address",
          "name": "referrer",
          "type": "address"
        },
        {
          "indexed": true,
          "internalType": "address",
          "name": "referee",
          "type": "address"
        },
        {
          "indexed": true,
          "internalType": "address",
          "name": "token",
          "type": "address"
        },
        {
          "indexed": false,
          "internalType": "uint256",
          "name": "amount",
          "type": "uint256"
        },
        {
          "indexed": false,
          "internalType": "uint256",
          "name": "commission",
          "type": "uint256"
        },
        {
          "indexed": false,
          "internalType": "uint256",
          "name": "commissionRate",
          "type": "uint256"
        }
      ],
      "name": "ReferralUsed",
      "type": "event"
    },
    {
      "inputs": [
        {
          "internalType": "address",
          "name": "buyer",
          "type": "address"
        },
        {
          "internalType": "address",
          "name": "to",
          "type": "address"
        },
        {
          "internalType": "address",
          "name": "reserved",
          "type": "address"
        },
        {
          "internalType": "uint256",
          "name": "x",
          "type": "uint256"
        },
        {
          "internalType": "uint256",
          "name": "y",
          "type": "uint256"
        },
        {
          "internalType": "uint256",
          "name": "size",
          "type": "uint256"
        },
        {
          "internalType": "uint256",
          "name": "priceInSand",
          "type": "uint256"
        },
        {
          "internalType": "uint256",
          "name": "adjustedPriceInSand",
          "type": "uint256"
        },
        {
          "internalType": "bytes32",
          "name": "salt",
          "type": "bytes32"
        },
        {
          "internalType": "uint256[]",
          "name": "assetIds",
          "type": "uint256[]"
        },
        {
          "internalType": "bytes32[]",
          "name": "proof",
          "type": "bytes32[]"
        },
        {
          "internalType": "bytes",
          "name": "referral",
          "type": "bytes"
        }
      ],
      "name": "buyLandWithSand",
      "outputs": [],
      "stateMutability": "nonpayable",
      "type": "function"
    },
    {
      "inputs": [
        {
          "internalType": "address",
          "name": "newAdmin",
          "type": "address"
        }
      ],
      "name": "changeAdmin",
      "outputs": [],
      "stateMutability": "nonpayable",
      "type": "function"
    },
    {
      "inputs": [
        {
          "internalType": "bytes",
          "name": "referral",
          "type": "bytes"
        }
      ],
      "name": "decodeReferral",
      "outputs": [
        {
          "internalType": "bytes",
          "name": "",
          "type": "bytes"
        },
        {
          "internalType": "address",
          "name": "",
          "type": "address"
        },
        {
          "internalType": "address",
          "name": "",
          "type": "address"
        },
        {
          "internalType": "uint256",
          "name": "",
          "type": "uint256"
        },
        {
          "internalType": "uint256",
          "name": "",
          "type": "uint256"
        }
      ],
      "stateMutability": "pure",
      "type": "function"
    },
    {
      "inputs": [],
      "name": "getAdmin",
      "outputs": [
        {
          "internalType": "address",
          "name": "",
          "type": "address"
        }
      ],
      "stateMutability": "view",
      "type": "function"
    },
    {
      "inputs": [],
      "name": "getExpiryTime",
      "outputs": [
        {
          "internalType": "uint256",
          "name": "",
          "type": "uint256"
        }
      ],
      "stateMutability": "view",
      "type": "function"
    },
    {
      "inputs": [],
      "name": "getMaxCommisionRate",
      "outputs": [
        {
          "internalType": "uint256",
          "name": "",
          "type": "uint256"
        }
      ],
      "stateMutability": "view",
      "type": "function"
    },
    {
      "inputs": [],
      "name": "getMerkleRoot",
      "outputs": [
        {
          "internalType": "bytes32",
          "name": "",
          "type": "bytes32"
        }
      ],
      "stateMutability": "view",
      "type": "function"
    },
    {
      "inputs": [],
      "name": "getSandMultiplier",
      "outputs": [
        {
          "internalType": "uint256",
          "name": "",
          "type": "uint256"
        }
      ],
      "stateMutability": "view",
      "type": "function"
    },
    {
      "inputs": [],
      "name": "getSigningWallet",
      "outputs": [
        {
          "internalType": "address",
          "name": "",
          "type": "address"
        }
      ],
      "stateMutability": "view",
      "type": "function"
    },
    {
      "inputs": [
        {
          "internalType": "address",
          "name": "who",
          "type": "address"
        }
      ],
      "name": "isMetaTransactionProcessor",
      "outputs": [
        {
          "internalType": "bool",
          "name": "",
          "type": "bool"
        }
      ],
      "stateMutability": "view",
      "type": "function"
    },
    {
      "inputs": [
        {
          "internalType": "bytes",
          "name": "signature",
          "type": "bytes"
        },
        {
          "internalType": "address",
          "name": "referrer",
          "type": "address"
        },
        {
          "internalType": "address",
          "name": "referee",
          "type": "address"
        },
        {
          "internalType": "uint256",
          "name": "expiryTime",
          "type": "uint256"
        },
        {
          "internalType": "uint256",
          "name": "commissionRate",
          "type": "uint256"
        }
      ],
      "name": "isReferralValid",
      "outputs": [
        {
          "internalType": "bool",
          "name": "",
          "type": "bool"
        }
      ],
      "stateMutability": "view",
      "type": "function"
    },
    {
      "inputs": [
        {
          "internalType": "address",
          "name": "",
          "type": "address"
        },
        {
          "internalType": "address",
          "name": "",
          "type": "address"
        },
        {
          "internalType": "uint256[]",
          "name": "",
          "type": "uint256[]"
        },
        {
          "internalType": "uint256[]",
          "name": "",
          "type": "uint256[]"
        },
        {
          "internalType": "bytes",
          "name": "",
          "type": "bytes"
        }
      ],
      "name": "onERC1155BatchReceived",
      "outputs": [
        {
          "internalType": "bytes4",
          "name": "",
          "type": "bytes4"
        }
      ],
      "stateMutability": "pure",
      "type": "function"
    },
    {
      "inputs": [
        {
          "internalType": "address",
          "name": "",
          "type": "address"
        },
        {
          "internalType": "address",
          "name": "",
          "type": "address"
        },
        {
          "internalType": "uint256",
          "name": "",
          "type": "uint256"
        },
        {
          "internalType": "uint256",
          "name": "",
          "type": "uint256"
        },
        {
          "internalType": "bytes",
          "name": "",
          "type": "bytes"
        }
      ],
      "name": "onERC1155Received",
      "outputs": [
        {
          "internalType": "bytes4",
          "name": "",
          "type": "bytes4"
        }
      ],
      "stateMutability": "pure",
      "type": "function"
    },
    {
      "inputs": [
        {
          "internalType": "uint256",
          "name": "newMultiplier",
          "type": "uint256"
        }
      ],
      "name": "rebalanceSand",
      "outputs": [],
      "stateMutability": "nonpayable",
      "type": "function"
    },
    {
      "inputs": [
        {
          "internalType": "address",
          "name": "metaTransactionProcessor",
          "type": "address"
        },
        {
          "internalType": "bool",
          "name": "enabled",
          "type": "bool"
        }
      ],
      "name": "setMetaTransactionProcessor",
      "outputs": [],
      "stateMutability": "nonpayable",
      "type": "function"
    },
    {
      "inputs": [
        {
          "internalType": "address payable",
          "name": "newWallet",
          "type": "address"
        }
      ],
      "name": "setReceivingWallet",
      "outputs": [],
      "stateMutability": "nonpayable",
      "type": "function"
    },
    {
      "inputs": [
        {
          "internalType": "uint256",
          "name": "newMaxCommissionRate",
          "type": "uint256"
        }
      ],
      "name": "updateMaxCommissionRate",
      "outputs": [],
      "stateMutability": "nonpayable",
      "type": "function"
    },
    {
      "inputs": [
        {
          "internalType": "address",
          "name": "newSigningWallet",
          "type": "address"
        }
      ],
      "name": "updateSigningWallet",
      "outputs": [],
      "stateMutability": "nonpayable",
      "type": "function"
    },
    {
      "inputs": [
        {
          "internalType": "address",
          "name": "to",
          "type": "address"
        },
        {
          "internalType": "uint256[]",
          "name": "assetIds",
          "type": "uint256[]"
        },
        {
          "internalType": "uint256[]",
          "name": "values",
          "type": "uint256[]"
        }
      ],
      "name": "withdrawAssets",
      "outputs": [],
      "stateMutability": "nonpayable",
      "type": "function"
    }
  ],
  "transactionHash": "0xa71a21e6cf116de27bad3e4118c7ef4e5577332d1682c30c5135487765c0e9e5",
  "args": [
    "0xaF40A483bF77AAb7b7D13dB18187E6D62C1EA41b",
    "0xCc933a862fc15379E441F2A16Cb943D385a4695f",
    "0xCc933a862fc15379E441F2A16Cb943D385a4695f",
    "0xa4519D601F43D0b8f167842a367465681F652252",
    "0x60927eB036621b801491B6c5e9A60A8d2dEeD75A",
    "0x066d83212c285dac0aae2c13b9f64082099ca52950f830a7d1d07d708492f2c7",
    1660914000,
    "0xB7060D3FeCAC3AE1F0A0AA416E3e8E472257950e",
    2000,
    "0x0000000000000000000000000000000000000000",
    "0x8055a2c0f7EB177BeaB357B70E6504402d2b5fF6",
    "0x5983532A5b9009E05428595b87F19e42068a232B"
  ],
  "linkedData": [
    {
      "x": 0,
      "y": 357,
      "size": 1,
      "price": "1011000000000000000000",
      "reserved": "",
      "salt": "0x87b8db76433cc5643441e472b6701a58d872d27a2ebffe296685b2cd255941d6",
      "assetIds": []
    },
    {
      "x": 0,
      "y": 358,
      "size": 1,
      "price": "1011000000000000000000",
      "reserved": "",
      "salt": "0x6355ed37eebbdb5ceae9806833fed1585aad4623614d295bfbd102a04b902df4",
      "assetIds": []
    },
    {
      "x": 0,
      "y": 359,
      "size": 1,
      "price": "1011000000000000000000",
      "reserved": "",
      "salt": "0x405993d4345e8d29f6b85a042400d54da04cf5085d86d7673dcf964793cb889f",
      "assetIds": []
    },
    {
      "x": 0,
      "y": 372,
      "size": 1,
      "price": "1011000000000000000000",
      "reserved": "",
      "salt": "0x23cc04c489c2dbf27552934b49284b79a6a15271e1622074dc13413a34e262fd",
      "assetIds": []
    },
    {
      "x": 0,
      "y": 373,
      "size": 1,
      "price": "1011000000000000000000",
      "reserved": "",
      "salt": "0x431c6108562256c51631b067f5f90dd7fae0d2f9bb8a23fd9a9b77bfdadaeb92",
      "assetIds": []
    },
    {
      "x": 0,
      "y": 374,
      "size": 1,
      "price": "1011000000000000000000",
      "reserved": "",
      "salt": "0xec607ea84a2f0aeac295d412361f6b8b5018e6fa645868f211e561737e98eb78",
      "assetIds": []
    },
    {
      "x": 0,
      "y": 375,
      "size": 1,
      "price": "1011000000000000000000",
      "reserved": "",
      "salt": "0xd7aa4dd1e4ede73dd811204ea1aa017c40a695319fddc6c69ca22fb3ce2bce03",
      "assetIds": []
    },
    {
      "x": 0,
      "y": 376,
      "size": 1,
      "price": "1011000000000000000000",
      "reserved": "",
      "salt": "0x21f61f2640136d10cf8562d2674ea89101d01a2dfcb2a36f1a357f1fa3cdf529",
      "assetIds": []
    },
    {
      "x": 0,
      "y": 377,
      "size": 1,
      "price": "1011000000000000000000",
      "reserved": "",
      "salt": "0x4051e3b3752aae6242e963b6809e180b478a4450499e56fa1e59204f473c2177",
      "assetIds": []
    },
    {
      "x": 0,
      "y": 378,
      "size": 1,
      "price": "1011000000000000000000",
      "reserved": "",
      "salt": "0xbce2b69633d9dbe3bc5104584849c71582d7831029f7014ad38f70031cac07b6",
      "assetIds": []
    },
    {
      "x": 0,
      "y": 379,
      "size": 1,
      "price": "1011000000000000000000",
      "reserved": "",
      "salt": "0x70d960f79112e7347710aa9d43104f4fa595c76fcf65b6ce7c8c3a10df698eb7",
      "assetIds": []
    },
    {
      "x": 0,
      "y": 380,
      "size": 1,
      "price": "1011000000000000000000",
      "reserved": "",
      "salt": "0x05747882a09e42b68402e2041a6da1ea23c554963e2df8bf714d025143780fd8",
      "assetIds": []
    },
    {
      "x": 0,
      "y": 381,
      "size": 1,
      "price": "4683000000000000000000",
      "reserved": "",
      "salt": "0x650806f86c15664f3d5765fe48420d9ea96e0f97db62312674d8ba16bf2d3491",
      "assetIds": [
        "41506478881403507969696680653240014914910929820314476107906210059990541021186"
      ]
    },
    {
      "x": 0,
      "y": 382,
      "size": 1,
      "price": "4683000000000000000000",
      "reserved": "",
      "salt": "0x090b339fa6d65cfa9d02aab52ec9654bb8b537d9601cc761911b0c2d1590b188",
      "assetIds": [
        "41506478881403507969696680653240014914910929820314476107906210059990541021186"
      ]
    },
    {
      "x": 0,
      "y": 383,
      "size": 1,
      "price": "4683000000000000000000",
      "reserved": "",
      "salt": "0xdad947b9765b9ac845b5df01ff027781e925bd7d5b34e030a9188dfecdef72fb",
      "assetIds": [
        "41506478881403507969696680653240014914910929820314476107906210059990541021186"
      ]
    },
    {
      "x": 0,
      "y": 390,
      "size": 1,
      "price": "4683000000000000000000",
      "reserved": "",
      "salt": "0x38b2ae03045f09783719e38445ecf2ae70e2ae3bcea8cf9410c9b0d757d52ebb",
      "assetIds": [
        "41506478881403507969696680653240014914910929820314476107906210059990541021186"
      ]
    },
    {
      "x": 0,
      "y": 391,
      "size": 1,
      "price": "1011000000000000000000",
      "reserved": "0x7a9fe22691c811ea339d9b73150e6911a5343dca",
      "salt": "0x46eebd6e55e685dad432788f6d36657560d7707c73a9c97eee470dc6f5d65979",
      "assetIds": []
    },
    {
      "x": 0,
      "y": 392,
      "size": 1,
      "price": "4683000000000000000000",
      "reserved": "",
      "salt": "0xb9e4f8618ddba50dde881abe26a9256408bb623b7b98c90bfee30527a05943d3",
      "assetIds": [
        "41506478881403507969696680653240014914910929820314476107906210059990541021186"
      ]
    },
    {
      "x": 0,
      "y": 393,
      "size": 1,
      "price": "1011000000000000000000",
      "reserved": "",
      "salt": "0x1ee38a5a83c0c896e528d8d1f5921ab79b8edc1e8f07a34c3147376705998249",
      "assetIds": []
    },
    {
      "x": 0,
      "y": 394,
      "size": 1,
      "price": "1011000000000000000000",
      "reserved": "",
      "salt": "0x6f8c2d5afbcb3d6d2e98ecd952507fcea8a4a8ba5bd0c76c89b2140bb1fe770f",
      "assetIds": []
    },
    {
      "x": 0,
      "y": 395,
      "size": 1,
      "price": "1011000000000000000000",
      "reserved": "",
      "salt": "0x0a7dd8a7eb53982e6a95e4f4977d688c8c050fc9e34fa27f911aa8520c626246",
      "assetIds": []
    },
    {
      "x": 1,
      "y": 357,
      "size": 1,
      "price": "1011000000000000000000",
      "reserved": "",
      "salt": "0x8b85440056e01be0ca92031470b8267b3921860d60a613f7af3f91e127a29f47",
      "assetIds": []
    },
    {
      "x": 1,
      "y": 358,
      "size": 1,
      "price": "1011000000000000000000",
      "reserved": "",
      "salt": "0xfa0026353503fd2248b7f07021d29a1c2ce9a38e1febd36a715aa3493a3b7b18",
      "assetIds": []
    },
    {
      "x": 1,
      "y": 359,
      "size": 1,
      "price": "1011000000000000000000",
      "reserved": "",
      "salt": "0xacb6c5ba5e22e8653093c2a9d45b713ca2a5ddbe0b0a6d404f65e4a79ac63521",
      "assetIds": []
    },
    {
      "x": 1,
      "y": 372,
      "size": 1,
      "price": "1011000000000000000000",
      "reserved": "",
      "salt": "0x8326f26720739e0c6e3426473a9d484b298bdff532f3af0f3d82ced4b752357e",
      "assetIds": []
    },
    {
      "x": 1,
      "y": 373,
      "size": 1,
      "price": "1011000000000000000000",
      "reserved": "0x7a9fe22691c811ea339d9b73150e6911a5343dca",
      "salt": "0x0451aeddc03de573596963ac6504000db27f8bacddf44db54b239d043bdb1a5c",
      "assetIds": []
    },
    {
      "x": 1,
      "y": 374,
      "size": 1,
      "price": "1011000000000000000000",
      "reserved": "",
      "salt": "0xe89ed597032dbbb19d82cbf66acca6c09d65d82be007a532b35aed886d0d88b5",
      "assetIds": []
    },
    {
      "x": 1,
      "y": 375,
      "size": 1,
      "price": "1011000000000000000000",
      "reserved": "",
      "salt": "0x0d0c9a117d49c8ecf73e88194675f229817d34a8794f92f9527fdaed48c2503d",
      "assetIds": []
    },
    {
      "x": 1,
      "y": 376,
      "size": 1,
      "price": "1011000000000000000000",
      "reserved": "",
      "salt": "0x2f67e995879f5ef7a499026a39d818fa918f01fb4fd63b5ca589233c30227d04",
      "assetIds": []
    },
    {
      "x": 1,
      "y": 377,
      "size": 1,
      "price": "1011000000000000000000",
      "reserved": "",
      "salt": "0x1c0b27b0154d4b1c8f050b409a8b8d6f2cf9e623b359ef87c6dc0cfd6aa22b4a",
      "assetIds": []
    },
    {
      "x": 1,
      "y": 378,
      "size": 1,
      "price": "1011000000000000000000",
      "reserved": "0x7a9fe22691c811ea339d9b73150e6911a5343dca",
      "salt": "0x8a3addd0a0bf27d94eaa10bf61ab6d81be403589791e9cd9aa73cd7454519182",
      "assetIds": []
    },
    {
      "x": 1,
      "y": 379,
      "size": 1,
      "price": "1011000000000000000000",
      "reserved": "",
      "salt": "0xd3f74305ab3c2a91e6be8fcd7401582c02ad4b86c591bf2e33ef27207a7cd740",
      "assetIds": []
    },
    {
      "x": 1,
      "y": 380,
      "size": 1,
      "price": "1011000000000000000000",
      "reserved": "",
      "salt": "0xf9727faa79c1b4d2644e03a97efcceb29a479cf97e1c5e98eadf3cd10323db66",
      "assetIds": []
    },
    {
      "x": 1,
      "y": 381,
      "size": 1,
      "price": "4683000000000000000000",
      "reserved": "",
      "salt": "0xfbc50e295859fde908e06c643873b2a240eb946fb89b02a0b7b5edc5debec738",
      "assetIds": [
        "41506478881403507969696680653240014914910929820314476107906210059990541021186"
      ]
    },
    {
      "x": 1,
      "y": 382,
      "size": 1,
      "price": "4683000000000000000000",
      "reserved": "",
      "salt": "0x6e57c1dfb61103a20169d5a3c73ac3fe0f5d4ed716922fc95c971633a3ffbd8f",
      "assetIds": [
        "41506478881403507969696680653240014914910929820314476107906210059990541021186"
      ]
    },
    {
      "x": 1,
      "y": 383,
      "size": 1,
      "price": "4683000000000000000000",
      "reserved": "",
      "salt": "0x5a22e4882000ad42031baa372f29f422e36d13b0c2730d2302e0ea602546836c",
      "assetIds": [
        "41506478881403507969696680653240014914910929820314476107906210059990541021186"
      ]
    },
    {
      "x": 1,
      "y": 390,
      "size": 1,
      "price": "4683000000000000000000",
      "reserved": "",
      "salt": "0xf017b174e080f23b1b57a3eb4bd2918cdad3f07a518f19a5feea3b7c49e9cb31",
      "assetIds": [
        "41506478881403507969696680653240014914910929820314476107906210059990541021186"
      ]
    },
    {
      "x": 1,
      "y": 391,
      "size": 1,
      "price": "1011000000000000000000",
      "reserved": "0x7a9fe22691c811ea339d9b73150e6911a5343dca",
      "salt": "0xd33005587d02083ae4ea2a3fd820ffde9c238a93c85cf6a63cc5d56f176df80f",
      "assetIds": []
    },
    {
      "x": 1,
      "y": 392,
      "size": 1,
      "price": "4683000000000000000000",
      "reserved": "",
      "salt": "0x3c44ac55f9b3417530618da8f6c2ba4728f14f2b07c9c93fe12e3de964970209",
      "assetIds": [
        "41506478881403507969696680653240014914910929820314476107906210059990541021186"
      ]
    },
    {
      "x": 1,
      "y": 393,
      "size": 1,
      "price": "1011000000000000000000",
      "reserved": "",
      "salt": "0x2895db36c30483fee8db3ec9021a49245e52f1234b0102ad27ba61826fb36103",
      "assetIds": []
    },
    {
      "x": 1,
      "y": 394,
      "size": 1,
      "price": "1011000000000000000000",
      "reserved": "0x7a9fe22691c811ea339d9b73150e6911a5343dca",
      "salt": "0x5de881016855f7b498e009c40f7a447b17293f732c5a0a308d415d215ea5fc57",
      "assetIds": []
    },
    {
      "x": 1,
      "y": 395,
      "size": 1,
      "price": "1011000000000000000000",
      "reserved": "",
      "salt": "0x3032d222ad2a4f9147986756a93482a8e3e4ba9f75436abdd53e4d34269017cb",
      "assetIds": []
    },
    {
      "x": 2,
      "y": 357,
      "size": 1,
      "price": "1011000000000000000000",
      "reserved": "0x7a9fe22691c811ea339d9b73150e6911a5343dca",
      "salt": "0x27def1cbb4b8a59a691ccab9bf236455afb1ebdd385c60565539afd048a1dc73",
      "assetIds": []
    },
    {
      "x": 2,
      "y": 358,
      "size": 1,
      "price": "1011000000000000000000",
      "reserved": "",
      "salt": "0x86740d4de9b6a980137c656577b507eaa12172640d99aaa7a05289ba5c8a5a65",
      "assetIds": []
    },
    {
      "x": 2,
      "y": 359,
      "size": 1,
      "price": "1011000000000000000000",
      "reserved": "",
      "salt": "0xf2ef8934749e704edbad27b356b7a5809758ca1dc51b5177bd6aaa46f0d2d69c",
      "assetIds": []
    },
    {
      "x": 2,
      "y": 372,
      "size": 1,
      "price": "1011000000000000000000",
      "reserved": "",
      "salt": "0x3850befb6ddb8864f5eca26ecc0bff324e59fb86a65d05ab72e2291db8c6795a",
      "assetIds": []
    },
    {
      "x": 2,
      "y": 373,
      "size": 1,
      "price": "1011000000000000000000",
      "reserved": "",
      "salt": "0x8b6eda5d31cb3fd243552bf4c0317f80b7252cc9ea7b84eb87a90586dbfc4a09",
      "assetIds": []
    },
    {
      "x": 2,
      "y": 374,
      "size": 1,
      "price": "1011000000000000000000",
      "reserved": "",
      "salt": "0x01a58530ae3a9a4ab3bc64c86c3e2dee7d6202eb84d7fdd59ebc1a6f16952582",
      "assetIds": []
    },
    {
      "x": 2,
      "y": 375,
      "size": 1,
      "price": "1011000000000000000000",
      "reserved": "",
      "salt": "0x07145101f8520be05f5cbb4c2be3a377ccf444ef407d181ccda6ceca020da2f9",
      "assetIds": []
    },
    {
      "x": 2,
      "y": 376,
      "size": 1,
      "price": "1011000000000000000000",
      "reserved": "",
      "salt": "0xa830afcf9e04c6ba03cece29a8c034655d7e7189a5df3f1cd87c4bdd40145685",
      "assetIds": []
    },
    {
      "x": 2,
      "y": 377,
      "size": 1,
      "price": "1011000000000000000000",
      "reserved": "",
      "salt": "0x8765f59d9c86097c8cae64b14d9291149a0d3411cec45a1a9b8619ef895c28e1",
      "assetIds": []
    },
    {
      "x": 2,
      "y": 378,
      "size": 1,
      "price": "1011000000000000000000",
      "reserved": "",
      "salt": "0x724b5389763e411ef2f4c93d6062cc29144489e4b87f36010ab3349495e4c4a4",
      "assetIds": []
    },
    {
      "x": 2,
      "y": 379,
      "size": 1,
      "price": "1011000000000000000000",
      "reserved": "",
      "salt": "0x3cdcdd713c7bae1e85cfb5ae2b9593c38e4e7b195d0e95899b06d0ef9ae1da9e",
      "assetIds": []
    },
    {
      "x": 2,
      "y": 380,
      "size": 1,
      "price": "1011000000000000000000",
      "reserved": "",
      "salt": "0x36b1571dc936fe5874731006fd42e83dd1b9faeb241bf057b2940377bc6fa2c0",
      "assetIds": []
    },
    {
      "x": 2,
      "y": 381,
      "size": 1,
      "price": "1011000000000000000000",
      "reserved": "0x7a9fe22691c811ea339d9b73150e6911a5343dca",
      "salt": "0x79788c817b14a648aec2a8d524f53cb1155164a53d2cfeace96144e1c6b6dd9b",
      "assetIds": []
    },
    {
      "x": 2,
      "y": 382,
      "size": 1,
      "price": "4683000000000000000000",
      "reserved": "",
      "salt": "0x183b9eef712033691244da49d9741e079ee7de39b3c5753a2d2cdc3071e8ccaa",
      "assetIds": [
        "41506478881403507969696680653240014914910929820314476107906210059990541021186"
      ]
    },
    {
      "x": 2,
      "y": 383,
      "size": 1,
      "price": "4683000000000000000000",
      "reserved": "",
      "salt": "0xe14373601e6579362e3a9363a04ba8bdc9ed916c930f7844f604f9b8cbc4b41f",
      "assetIds": [
        "41506478881403507969696680653240014914910929820314476107906210059990541021186"
      ]
    },
    {
      "x": 2,
      "y": 390,
      "size": 1,
      "price": "4683000000000000000000",
      "reserved": "",
      "salt": "0x24153e50d63bd0a3196eb47c4c86fe42dbdd7a4e15fa3951a9ee837dbef98109",
      "assetIds": [
        "41506478881403507969696680653240014914910929820314476107906210059990541021186"
      ]
    },
    {
      "x": 2,
      "y": 391,
      "size": 1,
      "price": "4683000000000000000000",
      "reserved": "",
      "salt": "0x422c1048a3536b38f5edd77a9a4729300a35f0270fa6d378121dda7ea369dbb5",
      "assetIds": [
        "41506478881403507969696680653240014914910929820314476107906210059990541021186"
      ]
    },
    {
      "x": 2,
      "y": 392,
      "size": 1,
      "price": "4683000000000000000000",
      "reserved": "",
      "salt": "0x8ac1b45b3a9dc4924a08cc766f1bd72ea558c0ea839cfd7e1d27ab07a723e026",
      "assetIds": [
        "41506478881403507969696680653240014914910929820314476107906210059990541021186"
      ]
    },
    {
      "x": 2,
      "y": 393,
      "size": 1,
      "price": "1011000000000000000000",
      "reserved": "",
      "salt": "0x944e877c9cba982cab86e54f03693262affc7e572dec104d9b76d3a655d37282",
      "assetIds": []
    },
    {
      "x": 2,
      "y": 394,
      "size": 1,
      "price": "1011000000000000000000",
      "reserved": "",
      "salt": "0x3b24c863a979119f49120d5d0d807515602d0385a739bf0f492f94b249f96f54",
      "assetIds": []
    },
    {
      "x": 2,
      "y": 395,
      "size": 1,
      "price": "1011000000000000000000",
      "reserved": "",
      "salt": "0xf825f23d382ec9f11f2b51b315d81e8490c735bd4d95e9b15f36c4974a499c60",
      "assetIds": []
    },
    {
      "x": 3,
      "y": 357,
      "size": 1,
      "price": "1011000000000000000000",
      "reserved": "",
      "salt": "0x53ce2b0bd29a893f0182ae566ac2fe428c2a546ecc439e8e664a16dcec5315f8",
      "assetIds": []
    },
    {
      "x": 3,
      "y": 358,
      "size": 1,
      "price": "1011000000000000000000",
      "reserved": "",
      "salt": "0x81aab245b04bcfa8a0e3ce1284db691cf4aef6bce3de85c84b5bb88703d0395d",
      "assetIds": []
    },
    {
      "x": 3,
      "y": 359,
      "size": 1,
      "price": "1011000000000000000000",
      "reserved": "",
      "salt": "0x24db389c71e4cf7a6462e6240401ac232ff230b66aaf68b2e5c6a6ba448aab6f",
      "assetIds": []
    },
    {
      "x": 3,
      "y": 375,
      "size": 1,
      "price": "1011000000000000000000",
      "reserved": "",
      "salt": "0x4851dd39eca6e303c59a9864f5e85646f4d30bce762071881fc04758dd49fe35",
      "assetIds": []
    },
    {
      "x": 3,
      "y": 376,
      "size": 1,
      "price": "1011000000000000000000",
      "reserved": "",
      "salt": "0xb115dceaeb8a99e5f2aa84e2ec3cfba98ffb2eaea22477583cbf3fe642e1ed5a",
      "assetIds": []
    },
    {
      "x": 3,
      "y": 377,
      "size": 1,
      "price": "1011000000000000000000",
      "reserved": "",
      "salt": "0x5a26f37411c6e77896fc11b6a195b28ecb1a5f68265df415f09ca211a2e50d59",
      "assetIds": []
    },
    {
      "x": 3,
      "y": 378,
      "size": 1,
      "price": "1011000000000000000000",
      "reserved": "",
      "salt": "0xf383bf74050673754cb2b77039905882b6123ef7c816171e7ed4d15776638e9a",
      "assetIds": []
    },
    {
      "x": 3,
      "y": 379,
      "size": 1,
      "price": "1011000000000000000000",
      "reserved": "",
      "salt": "0x6a7fd1feb40542e168847600c93ae26f79ba5b388b0234c776e91e8475cd4198",
      "assetIds": []
    },
    {
      "x": 3,
      "y": 380,
      "size": 1,
      "price": "1011000000000000000000",
      "reserved": "",
      "salt": "0xa818e36c759b863a7b4febaef45cb0a35258fb517f24c80f40a0a1058e26304b",
      "assetIds": []
    },
    {
      "x": 3,
      "y": 381,
      "size": 1,
      "price": "4683000000000000000000",
      "reserved": "",
      "salt": "0xb7823a18516774d55e660efa984a4ef354a54c1e5f60c55b6fc42511ee36c649",
      "assetIds": [
        "41506478881403507969696680653240014914910929820314476107906210059990541021186"
      ]
    },
    {
      "x": 3,
      "y": 382,
      "size": 1,
      "price": "4683000000000000000000",
      "reserved": "",
      "salt": "0xa8a42bca13bee7b16b835c39a5819d92f673e7cea7ca4be9b4f3b96e80d40317",
      "assetIds": [
        "41506478881403507969696680653240014914910929820314476107906210059990541021186"
      ]
    },
    {
      "x": 3,
      "y": 383,
      "size": 1,
      "price": "4683000000000000000000",
      "reserved": "",
      "salt": "0x912700e1a85900888061de3f2830a6cd61ae5e92d958a49810fcccf8c47deb42",
      "assetIds": [
        "41506478881403507969696680653240014914910929820314476107906210059990541021186"
      ]
    },
    {
      "x": 3,
      "y": 390,
      "size": 1,
      "price": "4683000000000000000000",
      "reserved": "",
      "salt": "0x340359215e8ff83b6e160d605925b8baf24e5586a778c7b4ecc72e148da228d9",
      "assetIds": [
        "41506478881403507969696680653240014914910929820314476107906210059990541021186"
      ]
    },
    {
      "x": 3,
      "y": 391,
      "size": 1,
      "price": "4683000000000000000000",
      "reserved": "",
      "salt": "0xe1189541fdbbd1b8e96d588d156db0d159756dd4b331faf63e8e1cf2104ca6e1",
      "assetIds": [
        "41506478881403507969696680653240014914910929820314476107906210059990541021186"
      ]
    },
    {
      "x": 3,
      "y": 392,
      "size": 1,
      "price": "4683000000000000000000",
      "reserved": "",
      "salt": "0x0d69d7f04327135b15bc5cb76665f69d5eee1e7e3c4fc73bac810950313e453a",
      "assetIds": [
        "41506478881403507969696680653240014914910929820314476107906210059990541021186"
      ]
    },
    {
      "x": 4,
      "y": 357,
      "size": 1,
      "price": "1011000000000000000000",
      "reserved": "",
      "salt": "0x4b0844dbb3056e94eac738ae041460d473fb33c6df42cbc97f88f02a1b10c1fc",
      "assetIds": []
    },
    {
      "x": 4,
      "y": 358,
      "size": 1,
      "price": "1011000000000000000000",
      "reserved": "",
      "salt": "0x214f614cc45a25c224aa448060f11a38dfec56ecefbfbeb4fab11c8e3de96cb3",
      "assetIds": []
    },
    {
      "x": 4,
      "y": 359,
      "size": 1,
      "price": "1011000000000000000000",
      "reserved": "",
      "salt": "0x92b9ff3608630c6e829369e5be52fe6adfaeae0363456134f50adb1f6b31de5e",
      "assetIds": []
    },
    {
      "x": 4,
      "y": 375,
      "size": 1,
      "price": "4683000000000000000000",
      "reserved": "",
      "salt": "0x578713591100705e5566307fc9c1d0684cde8d009c52742b3eff2269532b06b9",
      "assetIds": [
        "41506478881403507969696680653240014914910929820314476107906210059990541021186"
      ]
    },
    {
      "x": 4,
      "y": 376,
      "size": 1,
      "price": "1011000000000000000000",
      "reserved": "",
      "salt": "0x3b721911bc26419882d36133cadb6abea11b1e3ef1cf0fe4136dcbe09daf260b",
      "assetIds": []
    },
    {
      "x": 4,
      "y": 377,
      "size": 1,
      "price": "1011000000000000000000",
      "reserved": "0x7a9fe22691c811ea339d9b73150e6911a5343dca",
      "salt": "0x03238800fcc4d5bb498b461f9fe8f7701a65aa3aa19e7ccacd94c8d036b841d5",
      "assetIds": []
    },
    {
      "x": 4,
      "y": 378,
      "size": 1,
      "price": "1011000000000000000000",
      "reserved": "",
      "salt": "0xd4cfc6733d1f293f62acd39ee3786c6d3e59743dd1b1da1f087f1e33be6cbaab",
      "assetIds": []
    },
    {
      "x": 4,
      "y": 379,
      "size": 1,
      "price": "1011000000000000000000",
      "reserved": "",
      "salt": "0x62ee1553369fdc41e1970ff1de9cc3642093a5e3a79111df731ed5695e58703b",
      "assetIds": []
    },
    {
      "x": 4,
      "y": 380,
      "size": 1,
      "price": "1011000000000000000000",
      "reserved": "0x7a9fe22691c811ea339d9b73150e6911a5343dca",
      "salt": "0x4c9901be3d5f78380299dc1762539cc174e8ff77b8d08a8deb926b977ef746c1",
      "assetIds": []
    },
    {
      "x": 4,
      "y": 381,
      "size": 1,
      "price": "1011000000000000000000",
      "reserved": "",
      "salt": "0xdfa5964f8554b663f029b89c51c332a0613001915b8081fdb1f1604091db306a",
      "assetIds": []
    },
    {
      "x": 4,
      "y": 382,
      "size": 1,
      "price": "4683000000000000000000",
      "reserved": "",
      "salt": "0x02aa014b0d5a49eb399e652ff0eddf23b4d5de1687551a6484e808c6f6daee02",
      "assetIds": [
        "41506478881403507969696680653240014914910929820314476107906210059990541021186"
      ]
    },
    {
      "x": 4,
      "y": 383,
      "size": 1,
      "price": "4683000000000000000000",
      "reserved": "",
      "salt": "0xd3e9a3b6fd3dd4970327042cb094620917396a372401a2805014590c0cb88b24",
      "assetIds": [
        "41506478881403507969696680653240014914910929820314476107906210059990541021186"
      ]
    },
    {
      "x": 4,
      "y": 390,
      "size": 1,
      "price": "4683000000000000000000",
      "reserved": "",
      "salt": "0x14305dcce6a785595ce3b97282ed76144a6a439bd20a7400f98e2e125b286226",
      "assetIds": [
        "41506478881403507969696680653240014914910929820314476107906210059990541021186"
      ]
    },
    {
      "x": 4,
      "y": 391,
      "size": 1,
      "price": "4683000000000000000000",
      "reserved": "",
      "salt": "0x94f6017917d06c167ea5ad1d759d4446eebf254df11addf1cbdb37ec76846360",
      "assetIds": [
        "41506478881403507969696680653240014914910929820314476107906210059990541021186"
      ]
    },
    {
      "x": 4,
      "y": 392,
      "size": 1,
      "price": "4683000000000000000000",
      "reserved": "",
      "salt": "0xeb685baad94b1bfe65f3c9733c0f9980e9aeda34415ec7cd77615444282d27df",
      "assetIds": [
        "41506478881403507969696680653240014914910929820314476107906210059990541021186"
      ]
    },
    {
      "x": 5,
      "y": 357,
      "size": 1,
      "price": "1011000000000000000000",
      "reserved": "",
      "salt": "0x882287d062cfbb2f1c4767ad046d48e1ca00534c0c5773e67486859966adf7d6",
      "assetIds": []
    },
    {
      "x": 5,
      "y": 358,
      "size": 1,
      "price": "1011000000000000000000",
      "reserved": "",
      "salt": "0xff76a7c9de58cdee6c3d76d00f0e0c0f93c469e59521087a0979167d7aab4ad9",
      "assetIds": []
    },
    {
      "x": 5,
      "y": 359,
      "size": 1,
      "price": "1011000000000000000000",
      "reserved": "",
      "salt": "0x8dcb1cfdb324a2ab377cf313d5796a00984cbeb00eaa5b2c5a4142b59fbefb6b",
      "assetIds": []
    },
    {
      "x": 5,
      "y": 375,
      "size": 1,
      "price": "4683000000000000000000",
      "reserved": "",
      "salt": "0xd1172f96c513c21d62b134f2f7911d49287ed922e48b359cc4b2d4df190cd619",
      "assetIds": [
        "41506478881403507969696680653240014914910929820314476107906210059990541021186"
      ]
    },
    {
      "x": 5,
      "y": 376,
      "size": 1,
      "price": "4683000000000000000000",
      "reserved": "",
      "salt": "0x552184af4ee33110222e086de9de4c1f7e04172cb930aed23f1cc75dcf2e6b83",
      "assetIds": [
        "41506478881403507969696680653240014914910929820314476107906210059990541021186"
      ]
    },
    {
      "x": 5,
      "y": 377,
      "size": 1,
      "price": "4683000000000000000000",
      "reserved": "",
      "salt": "0x5c815f454adc3054abc37ce4fdce981bec8a8a9555e63c442b32962bc103d04d",
      "assetIds": [
        "41506478881403507969696680653240014914910929820314476107906210059990541021186"
      ]
    },
    {
      "x": 5,
      "y": 378,
      "size": 1,
      "price": "4683000000000000000000",
      "reserved": "",
      "salt": "0x0a5f5f68281a2b49d7159fe262cd4133f79d96e86507b0f7611789c6a7250414",
      "assetIds": [
        "41506478881403507969696680653240014914910929820314476107906210059990541021186"
      ]
    },
    {
      "x": 5,
      "y": 379,
      "size": 1,
      "price": "1011000000000000000000",
      "reserved": "",
      "salt": "0xba99916fc76d1727778297bbbbc1dbb61be0513b6a0f0ed248dff65f1cfde1e1",
      "assetIds": []
    },
    {
      "x": 5,
      "y": 380,
      "size": 1,
      "price": "1011000000000000000000",
      "reserved": "",
      "salt": "0x8885268fa62ffc5c6d0d72cb48bcf2d451e921e5d5081b0000094ba18fd7c54a",
      "assetIds": []
    },
    {
      "x": 5,
      "y": 381,
      "size": 1,
      "price": "1011000000000000000000",
      "reserved": "",
      "salt": "0x6788e29e197586351de63b341b5a144de94df6ea77d2919188354296661bf35b",
      "assetIds": []
    },
    {
      "x": 5,
      "y": 382,
      "size": 1,
      "price": "1011000000000000000000",
      "reserved": "0x7a9fe22691c811ea339d9b73150e6911a5343dca",
      "salt": "0x661ce88c2645c95ba39ab5df9bc8ac2f2e059648df24d6b5b167e9ee0b70b38e",
      "assetIds": []
    },
    {
      "x": 5,
      "y": 383,
      "size": 1,
      "price": "4683000000000000000000",
      "reserved": "",
      "salt": "0x094555e0e1981a8c07a14772177794e543d16f6dd00d015ea3df36708cdd4d64",
      "assetIds": [
        "41506478881403507969696680653240014914910929820314476107906210059990541021186"
      ]
    },
    {
      "x": 5,
      "y": 390,
      "size": 1,
      "price": "4683000000000000000000",
      "reserved": "",
      "salt": "0x1e6f7c032de85ca1d4829defbb39f869e0de26af6a6a04f274b4f95717c7f923",
      "assetIds": [
        "41506478881403507969696680653240014914910929820314476107906210059990541021186"
      ]
    },
    {
      "x": 5,
      "y": 391,
      "size": 1,
      "price": "1011000000000000000000",
      "reserved": "0x7a9fe22691c811ea339d9b73150e6911a5343dca",
      "salt": "0x009c08ea0233e79e560ec97bde0a9f56755d2b62c84c3e4fb7455237acdcfe5f",
      "assetIds": []
    },
    {
      "x": 5,
      "y": 392,
      "size": 1,
      "price": "4683000000000000000000",
      "reserved": "",
      "salt": "0x85170c6fa22e1bafd9890151c24ad0f9297c42fce20297eff5b5b035e4a5966b",
      "assetIds": [
        "41506478881403507969696680653240014914910929820314476107906210059990541021186"
      ]
    },
    {
      "x": 6,
      "y": 357,
      "size": 1,
      "price": "1011000000000000000000",
      "reserved": "0x7a9fe22691c811ea339d9b73150e6911a5343dca",
      "salt": "0x239a1c0cc485e96cc75b9908af538a15219686967516ad2660b405a98dbbe1eb",
      "assetIds": []
    },
    {
      "x": 6,
      "y": 358,
      "size": 1,
      "price": "1011000000000000000000",
      "reserved": "",
      "salt": "0x5dd238942d152ffb952f11119b455008bb52416c783c85f726aace5ae2b7f2ee",
      "assetIds": []
    },
    {
      "x": 6,
      "y": 359,
      "size": 1,
      "price": "1011000000000000000000",
      "reserved": "",
      "salt": "0x19b984677852dc397a0de6fe72ba8c5192ca069ad62343af58d6c66589872ce9",
      "assetIds": []
    },
    {
      "x": 6,
      "y": 378,
      "size": 1,
      "price": "4683000000000000000000",
      "reserved": "",
      "salt": "0xea1545959165b0b762e377160eb281899ad5b942ad2a6dbef3b8bdd1395939fb",
      "assetIds": [
        "41506478881403507969696680653240014914910929820314476107906210059990541021186"
      ]
    },
    {
      "x": 6,
      "y": 379,
      "size": 1,
      "price": "4683000000000000000000",
      "reserved": "",
      "salt": "0x269403a614f5043acf58c0dd97e74a35d2776744f1c70653cb5dc622fea96a3d",
      "assetIds": [
        "41506478881403507969696680653240014914910929820314476107906210059990541021186"
      ]
    },
    {
      "x": 6,
      "y": 380,
      "size": 1,
      "price": "4683000000000000000000",
      "reserved": "",
      "salt": "0xb2e4200e3db9b8716f57f4bab1a1bbf4f4ab5a69a62b30c9c9272c188b20ee35",
      "assetIds": [
        "41506478881403507969696680653240014914910929820314476107906210059990541021186"
      ]
    },
    {
      "x": 6,
      "y": 381,
      "size": 1,
      "price": "1011000000000000000000",
      "reserved": "",
      "salt": "0x0be75aabecff213e49cf8bda0e01f75ed4a387ac5c14bd802d9134b8fbde81fc",
      "assetIds": []
    },
    {
      "x": 6,
      "y": 382,
      "size": 1,
      "price": "4683000000000000000000",
      "reserved": "",
      "salt": "0x30f1cfc63278ea80ac1c911b6dc011117f3a13c699272faf9376d17976da674a",
      "assetIds": [
        "41506478881403507969696680653240014914910929820314476107906210059990541021186"
      ]
    },
    {
      "x": 6,
      "y": 383,
      "size": 1,
      "price": "1011000000000000000000",
      "reserved": "0x7a9fe22691c811ea339d9b73150e6911a5343dca",
      "salt": "0xfb53c9f011883e7a35d21cf53b1ad173e9ca30cb2d4ace23ce657fc2cb221fbc",
      "assetIds": []
    },
    {
      "x": 6,
      "y": 384,
      "size": 1,
      "price": "4683000000000000000000",
      "reserved": "",
      "salt": "0x003c820026f68bd940578eb773410363a7049af43d88c4d7db7537c6cfee1864",
      "assetIds": [
        "41506478881403507969696680653240014914910929820314476107906210059990541021186"
      ]
    },
    {
      "x": 6,
      "y": 385,
      "size": 1,
      "price": "4683000000000000000000",
      "reserved": "",
      "salt": "0x34d18722fc3a931ae41a9f61c4d38611a01fcb95e05de60a29880b28d0c4b0bd",
      "assetIds": [
        "41506478881403507969696680653240014914910929820314476107906210059990541021186"
      ]
    },
    {
      "x": 6,
      "y": 386,
      "size": 1,
      "price": "4683000000000000000000",
      "reserved": "",
      "salt": "0x4da3d4a57375f257d6479f8894745012bac57d0aa1bb3313737c8db8ef0e5554",
      "assetIds": [
        "41506478881403507969696680653240014914910929820314476107906210059990541021186"
      ]
    },
    {
      "x": 6,
      "y": 387,
      "size": 1,
      "price": "4683000000000000000000",
      "reserved": "",
      "salt": "0x558d1454dd9411768d0cdaeaf05df74a65dc5bb264d03b6bd67ec485127e7553",
      "assetIds": [
        "41506478881403507969696680653240014914910929820314476107906210059990541021186"
      ]
    },
    {
      "x": 6,
      "y": 388,
      "size": 1,
      "price": "4683000000000000000000",
      "reserved": "",
      "salt": "0x15a39d827a940b600f434725825f0fc5b3da7e9cca3861d5877dc58720e2842e",
      "assetIds": [
        "41506478881403507969696680653240014914910929820314476107906210059990541021186"
      ]
    },
    {
      "x": 6,
      "y": 389,
      "size": 1,
      "price": "4683000000000000000000",
      "reserved": "",
      "salt": "0xeedfffd394dcb4319b79b283e9ba068cb9af7b1377f216a99d91f8472f24fbe0",
      "assetIds": [
        "41506478881403507969696680653240014914910929820314476107906210059990541021186"
      ]
    },
    {
      "x": 6,
      "y": 390,
      "size": 1,
      "price": "4683000000000000000000",
      "reserved": "",
      "salt": "0x6c1803f15fb667ca807ce8a169a8dfcd6c5f9f5ca9873339f17098046507ffe9",
      "assetIds": [
        "41506478881403507969696680653240014914910929820314476107906210059990541021186"
      ]
    },
    {
      "x": 6,
      "y": 391,
      "size": 1,
      "price": "4683000000000000000000",
      "reserved": "",
      "salt": "0x3fe233c8c4fd5e192af86f51c704388bb1cfc7eb49ef56106d83c8f94bdd05ea",
      "assetIds": [
        "41506478881403507969696680653240014914910929820314476107906210059990541021186"
      ]
    },
    {
      "x": 6,
      "y": 392,
      "size": 1,
      "price": "4683000000000000000000",
      "reserved": "",
      "salt": "0xeabe78ceeb6d242d830ff8081d0341e7105787cdd5bbf320a1a7d376bae975cf",
      "assetIds": [
        "41506478881403507969696680653240014914910929820314476107906210059990541021186"
      ]
    },
    {
      "x": 6,
      "y": 393,
      "size": 1,
      "price": "1011000000000000000000",
      "reserved": "",
      "salt": "0xb3789f0927b9b5d0e20c79c2afb97940740a3df93abb363cb0087176c544700e",
      "assetIds": []
    },
    {
      "x": 6,
      "y": 394,
      "size": 1,
      "price": "1011000000000000000000",
      "reserved": "",
      "salt": "0x05b9bb1db18316fd629d67fc83782fb621b50b838dc42bd71bd257cbd051fab7",
      "assetIds": []
    },
    {
      "x": 6,
      "y": 395,
      "size": 1,
      "price": "1011000000000000000000",
      "reserved": "",
      "salt": "0xef4c0b6b0296bb1d86268fc8e1c805acbfaf3281e63aa7cbb1b53bae75429309",
      "assetIds": []
    },
    {
      "x": 7,
      "y": 357,
      "size": 1,
      "price": "1011000000000000000000",
      "reserved": "",
      "salt": "0xd98b82ec80e6bae4ae64a2658393b841e8a3356e503066cea4a34d875addb035",
      "assetIds": []
    },
    {
      "x": 7,
      "y": 358,
      "size": 1,
      "price": "1011000000000000000000",
      "reserved": "",
      "salt": "0xd849264080acbbdcad742f1f77559c1d86edb7c28d0deec64d99617ffc4b3030",
      "assetIds": []
    },
    {
      "x": 7,
      "y": 359,
      "size": 1,
      "price": "1011000000000000000000",
      "reserved": "",
      "salt": "0xb3c4d6f1436b7f5592fec902121f6906113a41c8a0ecd6b3488245de42ff65b0",
      "assetIds": []
    },
    {
      "x": 7,
      "y": 378,
      "size": 1,
      "price": "4683000000000000000000",
      "reserved": "",
      "salt": "0x8742496b7057fa5660faaca47c2b0e22023f85276335fe41f7e59fa269e1c312",
      "assetIds": [
        "41506478881403507969696680653240014914910929820314476107906210059990541021186"
      ]
    },
    {
      "x": 7,
      "y": 379,
      "size": 1,
      "price": "4683000000000000000000",
      "reserved": "",
      "salt": "0xc98ac2f87c609c6e26038142bee7399aeb86e9e28178af4f1ae0324e587a6a30",
      "assetIds": [
        "41506478881403507969696680653240014914910929820314476107906210059990541021186"
      ]
    },
    {
      "x": 7,
      "y": 380,
      "size": 1,
      "price": "1011000000000000000000",
      "reserved": "",
      "salt": "0xd7df154ed3f30f2520d08d3cf5feb01167b087177c289809b62ac0d5261eaf90",
      "assetIds": []
    },
    {
      "x": 7,
      "y": 381,
      "size": 1,
      "price": "1011000000000000000000",
      "reserved": "",
      "salt": "0x04361d75ad2e62ed208a990067b7dc527e642fd3908460cc98ac582ed003c897",
      "assetIds": []
    },
    {
      "x": 7,
      "y": 382,
      "size": 1,
      "price": "1011000000000000000000",
      "reserved": "",
      "salt": "0x6a3bd34e658bdefbc01c9c942413c3df5f8552ff44e24fccc3bd1cba353220d2",
      "assetIds": []
    },
    {
      "x": 7,
      "y": 383,
      "size": 1,
      "price": "4683000000000000000000",
      "reserved": "",
      "salt": "0x686ec2ca25192e36bbe411054164f15bbfbe55094d66094c5f9b0f86bb50fad6",
      "assetIds": [
        "41506478881403507969696680653240014914910929820314476107906210059990541021186"
      ]
    },
    {
      "x": 7,
      "y": 384,
      "size": 1,
      "price": "4683000000000000000000",
      "reserved": "",
      "salt": "0x560c70d6f8259132f209286634eb666b2b346147a495d20e2d03fdc8823ca155",
      "assetIds": [
        "41506478881403507969696680653240014914910929820314476107906210059990541021186"
      ]
    },
    {
      "x": 7,
      "y": 385,
      "size": 1,
      "price": "4683000000000000000000",
      "reserved": "",
      "salt": "0xcbc6eab15efed4f0a8654f7cea989d63d383bfa00aea1c4e212b55744dba0f3a",
      "assetIds": [
        "41506478881403507969696680653240014914910929820314476107906210059990541021186"
      ]
    },
    {
      "x": 7,
      "y": 386,
      "size": 1,
      "price": "4683000000000000000000",
      "reserved": "",
      "salt": "0xdaa69c5902421cf3424b2f4ed3cddfe658d4a0c7188c6fe3bc9dd757c1f386ff",
      "assetIds": [
        "41506478881403507969696680653240014914910929820314476107906210059990541021186"
      ]
    },
    {
      "x": 7,
      "y": 387,
      "size": 1,
      "price": "4683000000000000000000",
      "reserved": "",
      "salt": "0x447190532f01b5c0c4d1f8c5847d5811876527509350ab5003c531cff49acf74",
      "assetIds": [
        "41506478881403507969696680653240014914910929820314476107906210059990541021186"
      ]
    },
    {
      "x": 7,
      "y": 388,
      "size": 1,
      "price": "4683000000000000000000",
      "reserved": "",
      "salt": "0xccd3d95780bc36235bf8402d4169d430fd46f5473776dbaa8e460f45c57b7a8a",
      "assetIds": [
        "41506478881403507969696680653240014914910929820314476107906210059990541021186"
      ]
    },
    {
      "x": 7,
      "y": 389,
      "size": 1,
      "price": "4683000000000000000000",
      "reserved": "",
      "salt": "0xcc6c92a9e17ed692dafe263551e50323dd4e2f964a8e64a4c1b5170f063e496a",
      "assetIds": [
        "41506478881403507969696680653240014914910929820314476107906210059990541021186"
      ]
    },
    {
      "x": 7,
      "y": 390,
      "size": 1,
      "price": "4683000000000000000000",
      "reserved": "",
      "salt": "0x314fd088d73a7de4b610dd9f353d014ff7967334662e1e6462667a9f04fc59df",
      "assetIds": [
        "41506478881403507969696680653240014914910929820314476107906210059990541021186"
      ]
    },
    {
      "x": 7,
      "y": 391,
      "size": 1,
      "price": "4683000000000000000000",
      "reserved": "",
      "salt": "0x20453b7bb5c1347ec95c1ea278a5c94815b21d33bad6d9fadafd58a1075dff4f",
      "assetIds": [
        "41506478881403507969696680653240014914910929820314476107906210059990541021186"
      ]
    },
    {
      "x": 7,
      "y": 392,
      "size": 1,
      "price": "1011000000000000000000",
      "reserved": "",
      "salt": "0x487b476d57690f4e61fe2a68569b9d6e8edbaceaf236d6a685757d9c47d390ef",
      "assetIds": []
    },
    {
      "x": 7,
      "y": 393,
      "size": 1,
      "price": "1011000000000000000000",
      "reserved": "",
      "salt": "0xeca16ab4421452313b20091038cfb3734ac1b208562dd8ae2c9c0ebc3bff034c",
      "assetIds": []
    },
    {
      "x": 7,
      "y": 394,
      "size": 1,
      "price": "1011000000000000000000",
      "reserved": "0x7a9fe22691c811ea339d9b73150e6911a5343dca",
      "salt": "0x25507dc05740966dd355c5323f50dcf8bc644a848bbb9e1ccf9c6fa8009cc3fd",
      "assetIds": []
    },
    {
      "x": 7,
      "y": 395,
      "size": 1,
      "price": "1011000000000000000000",
      "reserved": "",
      "salt": "0xe92c16edc78fad9c84c58e814c2a399f17189e493b889d208afdd41064d4ee69",
      "assetIds": []
    },
    {
      "x": 8,
      "y": 357,
      "size": 1,
      "price": "1011000000000000000000",
      "reserved": "",
      "salt": "0xeefb798c084eb6db081e791914ea842995bed013f1e87b686e2aca06da4e85c8",
      "assetIds": []
    },
    {
      "x": 8,
      "y": 358,
      "size": 1,
      "price": "1011000000000000000000",
      "reserved": "",
      "salt": "0x80cd92d09139d8724e184f7deac28bc00bbcca40184ef30e3322052b340d4b4c",
      "assetIds": []
    },
    {
      "x": 8,
      "y": 359,
      "size": 1,
      "price": "1011000000000000000000",
      "reserved": "",
      "salt": "0x4a3ca576b82220a187e0a4802182af69c2356e83c948dbe35c59ce337e075b98",
      "assetIds": []
    },
    {
      "x": 8,
      "y": 378,
      "size": 1,
      "price": "4683000000000000000000",
      "reserved": "",
      "salt": "0x7748c0f80214a919bd97ed46f9e60707993f72fad4b8d4dcc3ebbd1653b14482",
      "assetIds": [
        "41506478881403507969696680653240014914910929820314476107906210059990541021186"
      ]
    },
    {
      "x": 8,
      "y": 379,
      "size": 1,
      "price": "4683000000000000000000",
      "reserved": "",
      "salt": "0xc844c418d5e6d6aa0ae19ccdd6f0f68a02fa4be4b15bc9a679c8dd92a818da3a",
      "assetIds": [
        "41506478881403507969696680653240014914910929820314476107906210059990541021186"
      ]
    },
    {
      "x": 8,
      "y": 380,
      "size": 1,
      "price": "1011000000000000000000",
      "reserved": "",
      "salt": "0xf639a33cb592f84ad2cb1a96d2b3d744409b09daf9fdb4a0eae016e1940ebd6f",
      "assetIds": []
    },
    {
      "x": 8,
      "y": 381,
      "size": 1,
      "price": "1011000000000000000000",
      "reserved": "",
      "salt": "0x003a8394bb191b4e19ccf41b8c7b0fcbca125b4782cb3781246b23d96173dc09",
      "assetIds": []
    },
    {
      "x": 8,
      "y": 382,
      "size": 1,
      "price": "1011000000000000000000",
      "reserved": "",
      "salt": "0x1a4a2307498a69010ef0c768e1b8abba01febf5d326441f2c5983490a1765ac7",
      "assetIds": []
    },
    {
      "x": 8,
      "y": 383,
      "size": 1,
      "price": "1011000000000000000000",
      "reserved": "",
      "salt": "0x9a1862be8271d843ac9ec74eabd27dcc8ed2db660ab42a0ce52f4d44b757bbe5",
      "assetIds": []
    },
    {
      "x": 8,
      "y": 384,
      "size": 1,
      "price": "4683000000000000000000",
      "reserved": "",
      "salt": "0x0f7e8a1bdedae7c8136c57126d35b6cb0a0b34c65c96e4615a9d6142df04330e",
      "assetIds": [
        "41506478881403507969696680653240014914910929820314476107906210059990541021186"
      ]
    },
    {
      "x": 8,
      "y": 385,
      "size": 1,
      "price": "4683000000000000000000",
      "reserved": "",
      "salt": "0x85748ebbc36e0fd4d6d7c0107ab139f18e21e9bb56f3702fef0549936d35f2ae",
      "assetIds": [
        "41506478881403507969696680653240014914910929820314476107906210059990541021186"
      ]
    },
    {
      "x": 8,
      "y": 386,
      "size": 1,
      "price": "4683000000000000000000",
      "reserved": "",
      "salt": "0xa1f82d6c1491ebc1ebd4841b78b3fad010a2ed210c98ddde1b795c58123df2af",
      "assetIds": [
        "41506478881403507969696680653240014914910929820314476107906210059990541021186"
      ]
    },
    {
      "x": 8,
      "y": 387,
      "size": 1,
      "price": "4683000000000000000000",
      "reserved": "",
      "salt": "0xd06717fdef8fb98a0ffcb9d562d207c53d9ed5f17efa0bb4dff4386adef34f94",
      "assetIds": [
        "41506478881403507969696680653240014914910929820314476107906210059990541021186"
      ]
    },
    {
      "x": 8,
      "y": 388,
      "size": 1,
      "price": "1011000000000000000000",
      "reserved": "",
      "salt": "0x6f4b660968a39b6947826b51425e389b9f50ec0cb6bee07e731d4710cea0627e",
      "assetIds": []
    },
    {
      "x": 8,
      "y": 389,
      "size": 1,
      "price": "4683000000000000000000",
      "reserved": "",
      "salt": "0x727a1c8f0d8e8491dc716f971ae7e3aa8a8df48f469732f97dcaa48342c0057d",
      "assetIds": [
        "41506478881403507969696680653240014914910929820314476107906210059990541021186"
      ]
    },
    {
      "x": 8,
      "y": 390,
      "size": 1,
      "price": "1011000000000000000000",
      "reserved": "",
      "salt": "0x17841d3153f7b92a29da457b8b4fda1cc2ae18d7de7b007576e8a72c21685c14",
      "assetIds": []
    },
    {
      "x": 8,
      "y": 391,
      "size": 1,
      "price": "1011000000000000000000",
      "reserved": "",
      "salt": "0x40d3949308b651c3b65c00dfcf0b5bfd51c73eed03d6eb8192d6f3a963d3d92c",
      "assetIds": []
    },
    {
      "x": 8,
      "y": 392,
      "size": 1,
      "price": "1011000000000000000000",
      "reserved": "",
      "salt": "0xfea8cf98d7868584a2422d80e089ca5a8517edba3933f7a5fb665c872f7327c2",
      "assetIds": []
    },
    {
      "x": 8,
      "y": 393,
      "size": 1,
      "price": "1011000000000000000000",
      "reserved": "",
      "salt": "0x7f1f9f49ebaf2eefeece0dc9f75f9a5d84b84e469d560d179062c7d3779d6013",
      "assetIds": []
    },
    {
      "x": 8,
      "y": 394,
      "size": 1,
      "price": "1011000000000000000000",
      "reserved": "",
      "salt": "0xc2d7c49959395ec4329fefbf42b4aa4d71c3f3a4a4bfc5dfb4abc9de9ffd18a3",
      "assetIds": []
    },
    {
      "x": 8,
      "y": 395,
      "size": 1,
      "price": "1011000000000000000000",
      "reserved": "",
      "salt": "0xef081291a5f862be6e17ba4f72e89a26e6eec412e21b38b0942ed158ed48688f",
      "assetIds": []
    },
    {
      "x": 9,
      "y": 357,
      "size": 1,
      "price": "1011000000000000000000",
      "reserved": "",
      "salt": "0x2f98682a21202a650b8ef33e262404a3e3ea137ba682bfe64349051d1d34de75",
      "assetIds": []
    },
    {
      "x": 9,
      "y": 358,
      "size": 1,
      "price": "1011000000000000000000",
      "reserved": "",
      "salt": "0x5f69a89e6ff94adb0540995dd6c69b2f32e93eb1d2c4d317509ed7ecf4089ae3",
      "assetIds": []
    },
    {
      "x": 9,
      "y": 359,
      "size": 1,
      "price": "1011000000000000000000",
      "reserved": "",
      "salt": "0x4032d2801790a95d97fefed15109bd01d14ca5dc847aa407e23ab5b2edd7ba2e",
      "assetIds": []
    },
    {
      "x": 9,
      "y": 378,
      "size": 1,
      "price": "4683000000000000000000",
      "reserved": "",
      "salt": "0x3727d8ba9711a01465617b62ff57ddc896374b6788ca912a38080e5ef37ad6d5",
      "assetIds": [
        "41506478881403507969696680653240014914910929820314476107906210059990541021186"
      ]
    },
    {
      "x": 9,
      "y": 379,
      "size": 1,
      "price": "1011000000000000000000",
      "reserved": "0x7a9fe22691c811ea339d9b73150e6911a5343dca",
      "salt": "0x274c289a71c2c5a3b7b3eb88042d8a3df0ad8d2372f6cc9fd4620e4e881491bd",
      "assetIds": []
    },
    {
      "x": 9,
      "y": 380,
      "size": 1,
      "price": "1011000000000000000000",
      "reserved": "",
      "salt": "0x126493e0992f29c6c771f9424fa8f5a7ee7136898769cb437187369889dca789",
      "assetIds": []
    },
    {
      "x": 9,
      "y": 381,
      "size": 1,
      "price": "1011000000000000000000",
      "reserved": "",
      "salt": "0x5b246ece3f04355cc35e50bbdad4bdbf0996eb6b9f22384c0026ef1e70388d49",
      "assetIds": []
    },
    {
      "x": 9,
      "y": 382,
      "size": 1,
      "price": "1011000000000000000000",
      "reserved": "",
      "salt": "0x9a87f9de264419cba5c301cf69bd7074e23dfa58b1933bb05f5686724b2dbeb0",
      "assetIds": []
    },
    {
      "x": 9,
      "y": 383,
      "size": 1,
      "price": "1011000000000000000000",
      "reserved": "",
      "salt": "0xcdd54cac3ea19ad1c0e0159191c2952580f61b530f676552beb96f847b6e29ff",
      "assetIds": []
    },
    {
      "x": 9,
      "y": 384,
      "size": 1,
      "price": "1011000000000000000000",
      "reserved": "",
      "salt": "0xb44566f4c888e8e52c8798264fe60431c797734841e18e29c51a7fae7585b443",
      "assetIds": []
    },
    {
      "x": 9,
      "y": 385,
      "size": 1,
      "price": "1011000000000000000000",
      "reserved": "",
      "salt": "0x5e05ec00f9c80f52c91707f6b9bb2742823f35a6a54e42f27d30a7ab97a4c14f",
      "assetIds": []
    },
    {
      "x": 9,
      "y": 386,
      "size": 1,
      "price": "1011000000000000000000",
      "reserved": "",
      "salt": "0x2988b2a9467bbe0afb08e11b4d590a678ea90fe317e5d3a3862edf40831d4cfd",
      "assetIds": []
    },
    {
      "x": 9,
      "y": 387,
      "size": 1,
      "price": "1011000000000000000000",
      "reserved": "",
      "salt": "0x3982e7b13dba139baf26017415a59d63966ca92b65649389235fb7804c20df2f",
      "assetIds": []
    },
    {
      "x": 9,
      "y": 388,
      "size": 1,
      "price": "4683000000000000000000",
      "reserved": "",
      "salt": "0x814ff7deb78e2cdaeea1a3db5bc4f3a4737da9e7875e16279788d4e46e1aa168",
      "assetIds": [
        "41506478881403507969696680653240014914910929820314476107906210059990541021186"
      ]
    },
    {
      "x": 9,
      "y": 389,
      "size": 1,
      "price": "1011000000000000000000",
      "reserved": "",
      "salt": "0x05d769d5a9ae67240de5499835e09e47de72caebaa1c6d26fb01393d4d0a2dc2",
      "assetIds": []
    },
    {
      "x": 9,
      "y": 390,
      "size": 1,
      "price": "1011000000000000000000",
      "reserved": "",
      "salt": "0x3512d7f6c5b462891e779ff61c53b8d274d4d7af922f9ffd80b35ccb1bb75ef6",
      "assetIds": []
    },
    {
      "x": 9,
      "y": 391,
      "size": 1,
      "price": "1011000000000000000000",
      "reserved": "",
      "salt": "0x6917ae7223dc49b3a18291a4a9d2d639ae0d5bddc67325a5723b783a332cc064",
      "assetIds": []
    },
    {
      "x": 9,
      "y": 392,
      "size": 1,
      "price": "1011000000000000000000",
      "reserved": "",
      "salt": "0xc1ab96c24c3dea4ac948c9a38783fb24446cf7d7c62b7120fbbe5b193bc01831",
      "assetIds": []
    },
    {
      "x": 9,
      "y": 393,
      "size": 1,
      "price": "4683000000000000000000",
      "reserved": "",
      "salt": "0xcd5f61781d087b644011c9a0e43b0320849c48c60e7738281b478d08f285ef16",
      "assetIds": [
        "41506478881403507969696680653240014914910929820314476107906210059990541021186"
      ]
    },
    {
      "x": 9,
      "y": 394,
      "size": 1,
      "price": "4683000000000000000000",
      "reserved": "",
      "salt": "0x23c41e9914313543d54f4f3cdcf0f8f973450d938cdea422c5f72738cd9039cf",
      "assetIds": [
        "41506478881403507969696680653240014914910929820314476107906210059990541021186"
      ]
    },
    {
      "x": 9,
      "y": 395,
      "size": 1,
      "price": "4683000000000000000000",
      "reserved": "",
      "salt": "0xda381bcfab12ebebead2a388cfa6e0f6c74544f0fddffc5e35d487b5ca104ef7",
      "assetIds": [
        "41506478881403507969696680653240014914910929820314476107906210059990541021186"
      ]
    },
    {
      "x": 10,
      "y": 357,
      "size": 1,
      "price": "1011000000000000000000",
      "reserved": "",
      "salt": "0x546897a3c9b6fd335f69c52ccca93b7d903e14a7c755604f7c7e3a25b37970e4",
      "assetIds": []
    },
    {
      "x": 10,
      "y": 358,
      "size": 1,
      "price": "1011000000000000000000",
      "reserved": "",
      "salt": "0x5e95954f8e2df5e88cd379c01f8f734f789fafc1ccea4023cbf64e19705ebd99",
      "assetIds": []
    },
    {
      "x": 10,
      "y": 359,
      "size": 1,
      "price": "1011000000000000000000",
      "reserved": "",
      "salt": "0xae4b5d5ca22aa91ce93162e022e758eb0214d1660d6242dfec00ec3287825031",
      "assetIds": []
    },
    {
      "x": 10,
      "y": 378,
      "size": 1,
      "price": "4683000000000000000000",
      "reserved": "",
      "salt": "0xa3659464b6fed732e41ebff1b5f36f5b5e935911b8b3df575d748fce31aec866",
      "assetIds": [
        "41506478881403507969696680653240014914910929820314476107906210059990541021186"
      ]
    },
    {
      "x": 10,
      "y": 379,
      "size": 1,
      "price": "4683000000000000000000",
      "reserved": "",
      "salt": "0xd57fc787ea8bfbae4498871b925311df87d8d5968474b695c04a658b56cd0a04",
      "assetIds": [
        "41506478881403507969696680653240014914910929820314476107906210059990541021186"
      ]
    },
    {
      "x": 10,
      "y": 380,
      "size": 1,
      "price": "1011000000000000000000",
      "reserved": "",
      "salt": "0x960ffd49fea1ce9e0b6b38d07e2d31ae55f8bc90fe57176c64352a25e5ab283c",
      "assetIds": []
    },
    {
      "x": 10,
      "y": 381,
      "size": 1,
      "price": "1011000000000000000000",
      "reserved": "",
      "salt": "0xe8993715f2c2f5a4c95755543e83b52d2b5b122c3d4e8d5e9aba06c9211fa995",
      "assetIds": []
    },
    {
      "x": 10,
      "y": 382,
      "size": 1,
      "price": "1011000000000000000000",
      "reserved": "0x7a9fe22691c811ea339d9b73150e6911a5343dca",
      "salt": "0xa0126c2e5833237decdf3a49d938efcd2cfbc1b2105248bf23d7836d5d3aa3ef",
      "assetIds": []
    },
    {
      "x": 10,
      "y": 383,
      "size": 1,
      "price": "1011000000000000000000",
      "reserved": "0x7a9fe22691c811ea339d9b73150e6911a5343dca",
      "salt": "0x31cbb5288fef8122b322387f2f95d415f614b16f04f625a9c829984b3cadaaff",
      "assetIds": []
    },
    {
      "x": 10,
      "y": 384,
      "size": 1,
      "price": "4683000000000000000000",
      "reserved": "",
      "salt": "0xfde51d65079a656a160ca73d6ac744fbd226bda783ff73a387dd71e34541142d",
      "assetIds": [
        "41506478881403507969696680653240014914910929820314476107906210059990541021186"
      ]
    },
    {
      "x": 10,
      "y": 385,
      "size": 1,
      "price": "4683000000000000000000",
      "reserved": "",
      "salt": "0x5d593886a1235a426c9b939c79bddbbca5dde59d14c481043f5516c5548e1cd3",
      "assetIds": [
        "41506478881403507969696680653240014914910929820314476107906210059990541021186"
      ]
    },
    {
      "x": 10,
      "y": 386,
      "size": 1,
      "price": "1011000000000000000000",
      "reserved": "0x7a9fe22691c811ea339d9b73150e6911a5343dca",
      "salt": "0x1bc8c5fdeed326232947babb9dcd0fcc2348e312412d8f952f927cafd26797e6",
      "assetIds": []
    },
    {
      "x": 10,
      "y": 387,
      "size": 1,
      "price": "4683000000000000000000",
      "reserved": "",
      "salt": "0x6a1c582729dbcf6921da6805c83dd4168c457484c5df9bffb9bb2e6acf18523d",
      "assetIds": [
        "41506478881403507969696680653240014914910929820314476107906210059990541021186"
      ]
    },
    {
      "x": 10,
      "y": 388,
      "size": 1,
      "price": "4683000000000000000000",
      "reserved": "",
      "salt": "0xadb9b4484efda59a6d91361694f98c1ef0347249a54fd2f0db17209bd879ca31",
      "assetIds": [
        "41506478881403507969696680653240014914910929820314476107906210059990541021186"
      ]
    },
    {
      "x": 10,
      "y": 389,
      "size": 1,
      "price": "4683000000000000000000",
      "reserved": "",
      "salt": "0x406a0e112627a3ee3eee3728b2538cec05d655840c117ecde55fc67f9d0c15c5",
      "assetIds": [
        "41506478881403507969696680653240014914910929820314476107906210059990541021186"
      ]
    },
    {
      "x": 10,
      "y": 390,
      "size": 1,
      "price": "1011000000000000000000",
      "reserved": "0x7a9fe22691c811ea339d9b73150e6911a5343dca",
      "salt": "0xaa4bbdd9b9ec22bbe8c5a2678ff186f8049a781feb7a72b58b4f1d2a59ad1814",
      "assetIds": []
    },
    {
      "x": 10,
      "y": 391,
      "size": 1,
      "price": "4683000000000000000000",
      "reserved": "",
      "salt": "0xb8174b407fd5a97813fe70289fd300d453447d33b7e64ce303b73257bb292135",
      "assetIds": [
        "41506478881403507969696680653240014914910929820314476107906210059990541021186"
      ]
    },
    {
      "x": 10,
      "y": 392,
      "size": 1,
      "price": "1011000000000000000000",
      "reserved": "0x7a9fe22691c811ea339d9b73150e6911a5343dca",
      "salt": "0x0b69bbb09bbe1e36275e31dd102053b12663ab5b280b284ddef747e47f636c5c",
      "assetIds": []
    },
    {
      "x": 10,
      "y": 393,
      "size": 1,
      "price": "4683000000000000000000",
      "reserved": "",
      "salt": "0x8a1f55f90a21a058ce32a957366305a695eaf88865caff1812c46d78449ed803",
      "assetIds": [
        "41506478881403507969696680653240014914910929820314476107906210059990541021186"
      ]
    },
    {
      "x": 10,
      "y": 394,
      "size": 1,
      "price": "4683000000000000000000",
      "reserved": "",
      "salt": "0x50757f4680bcdf4da083abc89c97a4d80267085f909631dc97956f54ebcb582e",
      "assetIds": [
        "41506478881403507969696680653240014914910929820314476107906210059990541021186"
      ]
    },
    {
      "x": 10,
      "y": 395,
      "size": 1,
      "price": "4683000000000000000000",
      "reserved": "",
      "salt": "0x0b115df06a3d8a138e9257f8e12b7e4353ca8539a2c9b78a04e863023b2477e5",
      "assetIds": [
        "41506478881403507969696680653240014914910929820314476107906210059990541021186"
      ]
    },
    {
      "x": 11,
      "y": 357,
      "size": 1,
      "price": "1011000000000000000000",
      "reserved": "",
      "salt": "0x32cdb7f99f0bc4e37213f11c7b427054cd350da5f92ccde055ed76e6886f73e7",
      "assetIds": []
    },
    {
      "x": 11,
      "y": 358,
      "size": 1,
      "price": "1011000000000000000000",
      "reserved": "",
      "salt": "0x609c8dcb942114a41c1d846a9d16ae29454166c716609e5c242e32a6e8cb17ff",
      "assetIds": []
    },
    {
      "x": 11,
      "y": 359,
      "size": 1,
      "price": "1011000000000000000000",
      "reserved": "0x7a9fe22691c811ea339d9b73150e6911a5343dca",
      "salt": "0xe91395718f7ac0068434400fe9593cdcee852e00ab4ce991a8bf138959b74964",
      "assetIds": []
    },
    {
      "x": 11,
      "y": 378,
      "size": 1,
      "price": "4683000000000000000000",
      "reserved": "",
      "salt": "0x04478541c1db9e8a12b826766fc8df87b0da2f5866ac54a112231319ccd46eb3",
      "assetIds": [
        "41506478881403507969696680653240014914910929820314476107906210059990541021186"
      ]
    },
    {
      "x": 11,
      "y": 379,
      "size": 1,
      "price": "4683000000000000000000",
      "reserved": "",
      "salt": "0xa85c54788dbea4dc84d97459df4050e96fff81c04604a276f082fd4e770f8318",
      "assetIds": [
        "41506478881403507969696680653240014914910929820314476107906210059990541021186"
      ]
    },
    {
      "x": 11,
      "y": 380,
      "size": 1,
      "price": "1011000000000000000000",
      "reserved": "0x7a9fe22691c811ea339d9b73150e6911a5343dca",
      "salt": "0x1ca46226accd21fbd02993901dd1d8c640ae82e144e0fb3be636bc19c30b2e40",
      "assetIds": []
    },
    {
      "x": 11,
      "y": 381,
      "size": 1,
      "price": "1011000000000000000000",
      "reserved": "",
      "salt": "0x902dc4c7a278261713c24325dcf6df9dcf3380c7c3f784425d76f0c22f0eb6a8",
      "assetIds": []
    },
    {
      "x": 11,
      "y": 382,
      "size": 1,
      "price": "4683000000000000000000",
      "reserved": "",
      "salt": "0x3035f31d552d9aee590988a5a9bfe0b379182df25dab30df04ff981bdcde808e",
      "assetIds": [
        "41506478881403507969696680653240014914910929820314476107906210059990541021186"
      ]
    },
    {
      "x": 11,
      "y": 383,
      "size": 1,
      "price": "4683000000000000000000",
      "reserved": "",
      "salt": "0xd816af387ce7de7eca0aa302cb46414230983845246dc876e4b71bba73d6cc5d",
      "assetIds": [
        "41506478881403507969696680653240014914910929820314476107906210059990541021186"
      ]
    },
    {
      "x": 11,
      "y": 384,
      "size": 1,
      "price": "4683000000000000000000",
      "reserved": "",
      "salt": "0x15b3868b7402475137a4ffc713e0095709c69c59ac5ba5f1aea091e39e82f6e6",
      "assetIds": [
        "41506478881403507969696680653240014914910929820314476107906210059990541021186"
      ]
    },
    {
      "x": 11,
      "y": 385,
      "size": 1,
      "price": "4683000000000000000000",
      "reserved": "",
      "salt": "0xcd0c421cd6a22e4806d3df602613f10daf5f0cfbcdadbc8a966d605faae7bb63",
      "assetIds": [
        "41506478881403507969696680653240014914910929820314476107906210059990541021186"
      ]
    },
    {
      "x": 11,
      "y": 386,
      "size": 1,
      "price": "4683000000000000000000",
      "reserved": "",
      "salt": "0xe152283217f39be1f18fee832e3d6b695e18d960eb018cce8bde2c027b4776e8",
      "assetIds": [
        "41506478881403507969696680653240014914910929820314476107906210059990541021186"
      ]
    },
    {
      "x": 11,
      "y": 387,
      "size": 1,
      "price": "4683000000000000000000",
      "reserved": "",
      "salt": "0x84880037b6625c9c2ab91f8dd4eb2c27ac54e6e7be1b445b18041f24d5ab1c1f",
      "assetIds": [
        "41506478881403507969696680653240014914910929820314476107906210059990541021186"
      ]
    },
    {
      "x": 11,
      "y": 388,
      "size": 1,
      "price": "4683000000000000000000",
      "reserved": "",
      "salt": "0xdd877fa05a232eb4e210f9d7a7dea6a66b52a72d48ffd990b115da5765afd805",
      "assetIds": [
        "41506478881403507969696680653240014914910929820314476107906210059990541021186"
      ]
    },
    {
      "x": 11,
      "y": 389,
      "size": 1,
      "price": "4683000000000000000000",
      "reserved": "",
      "salt": "0x2e5bad706434d96fef97685288abe62b1040a7022cefaf15dfb3113d6709ab54",
      "assetIds": [
        "41506478881403507969696680653240014914910929820314476107906210059990541021186"
      ]
    },
    {
      "x": 11,
      "y": 390,
      "size": 1,
      "price": "4683000000000000000000",
      "reserved": "",
      "salt": "0xf25cf5d3fc9d101e9f7c8eb7e9be6bc96252833728474b802fb9699c3d616df4",
      "assetIds": [
        "41506478881403507969696680653240014914910929820314476107906210059990541021186"
      ]
    },
    {
      "x": 11,
      "y": 391,
      "size": 1,
      "price": "4683000000000000000000",
      "reserved": "",
      "salt": "0x15561c164268f9965f87b8b16dfda46f242f9171be75d714dcd2e46be9fe1a01",
      "assetIds": [
        "41506478881403507969696680653240014914910929820314476107906210059990541021186"
      ]
    },
    {
      "x": 11,
      "y": 392,
      "size": 1,
      "price": "4683000000000000000000",
      "reserved": "",
      "salt": "0x9a4b0a0c0a53ccf53dedf70983cccf8464c465e75ceb9f9036f4b078e0a9c64a",
      "assetIds": [
        "41506478881403507969696680653240014914910929820314476107906210059990541021186"
      ]
    },
    {
      "x": 11,
      "y": 393,
      "size": 1,
      "price": "4683000000000000000000",
      "reserved": "",
      "salt": "0x5b2700ca7d222065ec484e64f3fb6a094886f127c1780614c68eefb208fd180c",
      "assetIds": [
        "41506478881403507969696680653240014914910929820314476107906210059990541021186"
      ]
    },
    {
      "x": 11,
      "y": 394,
      "size": 1,
      "price": "4683000000000000000000",
      "reserved": "",
      "salt": "0xb0eaf35d4eeaf6950e4e977c98bfa504f37e66bce957dfd2fadfebb92588b0db",
      "assetIds": [
        "41506478881403507969696680653240014914910929820314476107906210059990541021186"
      ]
    },
    {
      "x": 11,
      "y": 395,
      "size": 1,
      "price": "4683000000000000000000",
      "reserved": "",
      "salt": "0x4763bd32086ee61e711cbdd9524b4a41cfdccf1f43e7ef1229e890784ae8528f",
      "assetIds": [
        "41506478881403507969696680653240014914910929820314476107906210059990541021186"
      ]
    },
    {
      "x": 12,
      "y": 366,
      "size": 1,
      "price": "1011000000000000000000",
      "reserved": "",
      "salt": "0x1ad3ff315852207f3130c2c9daad1e80a7236876f150873e4c41d9f889c0bbda",
      "assetIds": []
    },
    {
      "x": 12,
      "y": 367,
      "size": 1,
      "price": "1011000000000000000000",
      "reserved": "",
      "salt": "0x462ad9d07862c3061730b2133dff0c2c4ac72ad5aba893c55d8578b9950e3c95",
      "assetIds": []
    },
    {
      "x": 12,
      "y": 368,
      "size": 1,
      "price": "1011000000000000000000",
      "reserved": "",
      "salt": "0x8bc639adccfad0102812c614f1473f580a0d49b702366b0a51f204c223341532",
      "assetIds": []
    },
    {
      "x": 12,
      "y": 369,
      "size": 1,
      "price": "1011000000000000000000",
      "reserved": "",
      "salt": "0x33c9985f48956f0bf90e684ecc3f3c96a7e8df8068b0152ccca6a7ea68701e68",
      "assetIds": []
    },
    {
      "x": 12,
      "y": 370,
      "size": 1,
      "price": "1011000000000000000000",
      "reserved": "",
      "salt": "0x44815f43eff23051f0ac9f9a89c3bd9eaeee9261ce8e3a473d01516db9958448",
      "assetIds": []
    },
    {
      "x": 12,
      "y": 371,
      "size": 1,
      "price": "1011000000000000000000",
      "reserved": "",
      "salt": "0xf954becde7a0fc063ce65ea73593acae2a36b86175720164175adb47fbe7cd28",
      "assetIds": []
    },
    {
      "x": 12,
      "y": 372,
      "size": 1,
      "price": "4683000000000000000000",
      "reserved": "",
      "salt": "0x8077c58c8ff3615d4ebf42f8ec0407e326be9236be41fe61b0bf6c42c1090f55",
      "assetIds": [
        "41506478881403507969696680653240014914910929820314476107906210059990541021186"
      ]
    },
    {
      "x": 12,
      "y": 373,
      "size": 1,
      "price": "4683000000000000000000",
      "reserved": "",
      "salt": "0x64f14e988a3aa6b2accae6080c92948f26f57c000ce33de0561fad6737700d4b",
      "assetIds": [
        "41506478881403507969696680653240014914910929820314476107906210059990541021186"
      ]
    },
    {
      "x": 12,
      "y": 374,
      "size": 1,
      "price": "4683000000000000000000",
      "reserved": "",
      "salt": "0xe2d4e33127d3f512b4ce510b3e20ea6561f6f5506fbf2fe790ddf40311088fc0",
      "assetIds": [
        "41506478881403507969696680653240014914910929820314476107906210059990541021186"
      ]
    },
    {
      "x": 12,
      "y": 375,
      "size": 1,
      "price": "4683000000000000000000",
      "reserved": "",
      "salt": "0xeb7ef7a3d0688e9b24ddb4597f88f78787e97f39ca2b1ace2cbb011a4f5cbb3b",
      "assetIds": [
        "41506478881403507969696680653240014914910929820314476107906210059990541021186"
      ]
    },
    {
      "x": 12,
      "y": 376,
      "size": 1,
      "price": "4683000000000000000000",
      "reserved": "",
      "salt": "0x9aa9835a219f19e833b9ba54e5c68adcc72adfba7487f90a54acbc7048c02fab",
      "assetIds": [
        "41506478881403507969696680653240014914910929820314476107906210059990541021186"
      ]
    },
    {
      "x": 12,
      "y": 377,
      "size": 1,
      "price": "4683000000000000000000",
      "reserved": "",
      "salt": "0xfb435f95755e26303d3d37a6c85d139ab20248623a05dc55b4e2364dbf8cb017",
      "assetIds": [
        "41506478881403507969696680653240014914910929820314476107906210059990541021186"
      ]
    },
    {
      "x": 12,
      "y": 378,
      "size": 1,
      "price": "4683000000000000000000",
      "reserved": "",
      "salt": "0x831442472bd8872506b4ea4a3c727c549b501a18ceb69f99ea931134982ab33c",
      "assetIds": [
        "41506478881403507969696680653240014914910929820314476107906210059990541021186"
      ]
    },
    {
      "x": 12,
      "y": 379,
      "size": 1,
      "price": "4683000000000000000000",
      "reserved": "",
      "salt": "0xee409873bd877506fe7e9083260adad6349a8ed3b4c32c4df6a6d6a17b88474d",
      "assetIds": [
        "41506478881403507969696680653240014914910929820314476107906210059990541021186"
      ]
    },
    {
      "x": 12,
      "y": 380,
      "size": 1,
      "price": "1011000000000000000000",
      "reserved": "",
      "salt": "0xc1ff83894186f52bb5e28954549a2dc61ac336a342989492bc9603e04ac8e4d8",
      "assetIds": []
    },
    {
      "x": 12,
      "y": 381,
      "size": 1,
      "price": "1011000000000000000000",
      "reserved": "",
      "salt": "0x5af119e864be7c8bd70a752c3d8d84a67575e7bce532e15f9a8c3c5a40f4cc6b",
      "assetIds": []
    },
    {
      "x": 12,
      "y": 382,
      "size": 1,
      "price": "1011000000000000000000",
      "reserved": "",
      "salt": "0x7b624b5966b37e49776fc3ec9bd20dd52f1c3645fc7ccbc7e97953da857bf80f",
      "assetIds": []
    },
    {
      "x": 12,
      "y": 383,
      "size": 1,
      "price": "4683000000000000000000",
      "reserved": "",
      "salt": "0x5fc96bb52419bd11cc89ab12675c36aaa6737ec4039b4c2212f44433b15406a7",
      "assetIds": [
        "41506478881403507969696680653240014914910929820314476107906210059990541021186"
      ]
    },
    {
      "x": 12,
      "y": 396,
      "size": 1,
      "price": "4683000000000000000000",
      "reserved": "",
      "salt": "0xca2c83ec3487b96e2ff1da8b06cc339604e0bffc80ce5a7308a97d253522ca82",
      "assetIds": [
        "41506478881403507969696680653240014914910929820314476107906210059990541021186"
      ]
    },
    {
      "x": 12,
      "y": 397,
      "size": 1,
      "price": "1011000000000000000000",
      "reserved": "0x7a9fe22691c811ea339d9b73150e6911a5343dca",
      "salt": "0x12cb0b1dbcab2b107594ff3121ebc4c701fe75c0bc25a28c98901147e65d75a1",
      "assetIds": []
    },
    {
      "x": 12,
      "y": 398,
      "size": 1,
      "price": "4683000000000000000000",
      "reserved": "",
      "salt": "0x5612459248a0f50d1ecfcd98ce9e65d3dfd9a051fd22e5507b905c4b611e6794",
      "assetIds": [
        "41506478881403507969696680653240014914910929820314476107906210059990541021186"
      ]
    },
    {
      "x": 12,
      "y": 399,
      "size": 1,
      "price": "1011000000000000000000",
      "reserved": "",
      "salt": "0x704fb1e1ca092d4c252b2d30f8281b8b950c81fa79d6b6f858fac8112a2ef8f7",
      "assetIds": []
    },
    {
      "x": 12,
      "y": 400,
      "size": 1,
      "price": "1011000000000000000000",
      "reserved": "",
      "salt": "0x934f1a4ff77a7f44467f76c33d5d9b0e5321b27e7efc3ec03738f1a010a9d352",
      "assetIds": []
    },
    {
      "x": 12,
      "y": 401,
      "size": 1,
      "price": "1011000000000000000000",
      "reserved": "",
      "salt": "0x6d6562065d420260bd7ca2aa604b00dc6c35eec18b6fda068b85dbb2caffb2ee",
      "assetIds": []
    },
    {
      "x": 13,
      "y": 366,
      "size": 1,
      "price": "1011000000000000000000",
      "reserved": "",
      "salt": "0x49d45b63b07e126c423cc3d9bbc32fd520d755f3d06ff3feecd87eb46525c841",
      "assetIds": []
    },
    {
      "x": 13,
      "y": 367,
      "size": 1,
      "price": "1011000000000000000000",
      "reserved": "",
      "salt": "0xbb810bebcd55d12c12e9ea53d1d6b8479a2a2ea40ec82dce4894958f32bc110a",
      "assetIds": []
    },
    {
      "x": 13,
      "y": 368,
      "size": 1,
      "price": "1011000000000000000000",
      "reserved": "",
      "salt": "0xce0f0c5cf268772b7a3b2c84fc3dfe5dfcfc8d982680dbd87c732ca9915020a3",
      "assetIds": []
    },
    {
      "x": 13,
      "y": 369,
      "size": 1,
      "price": "1011000000000000000000",
      "reserved": "",
      "salt": "0x4831185ca0b5b66e089dee899b4b2ea4c6e5202f2912312e938d0c0827fd47a9",
      "assetIds": []
    },
    {
      "x": 13,
      "y": 370,
      "size": 1,
      "price": "1011000000000000000000",
      "reserved": "",
      "salt": "0x1360cf05f470f68c07332ed977a05600d5ad4a10cf76f9b6a753c8b61eaf3e72",
      "assetIds": []
    },
    {
      "x": 13,
      "y": 371,
      "size": 1,
      "price": "1011000000000000000000",
      "reserved": "",
      "salt": "0x9ae3e437aaf9a730316882ad72fdaef6915e3b02358c620c3d4dc890d8211faa",
      "assetIds": []
    },
    {
      "x": 13,
      "y": 372,
      "size": 1,
      "price": "4683000000000000000000",
      "reserved": "",
      "salt": "0x408293b3a7c04d78151982f438d29171f69a9078d3f9974d3f1a4ee339f52fea",
      "assetIds": [
        "41506478881403507969696680653240014914910929820314476107906210059990541021186"
      ]
    },
    {
      "x": 13,
      "y": 373,
      "size": 1,
      "price": "4683000000000000000000",
      "reserved": "",
      "salt": "0xd459da09ed5022c53bba054c6c5b0a3bc27ed805f39d77b2b9f3e5b51804219f",
      "assetIds": [
        "41506478881403507969696680653240014914910929820314476107906210059990541021186"
      ]
    },
    {
      "x": 13,
      "y": 374,
      "size": 1,
      "price": "1011000000000000000000",
      "reserved": "0x7a9fe22691c811ea339d9b73150e6911a5343dca",
      "salt": "0xecfa5f7729c32daa113980a8b13f3287c5be827b3ddb8891e1dfe7b949a97e92",
      "assetIds": []
    },
    {
      "x": 13,
      "y": 375,
      "size": 1,
      "price": "4683000000000000000000",
      "reserved": "",
      "salt": "0x55793345595330fc78d33ecc55aee76f410d42b731ec753f6e1b65bbce35747d",
      "assetIds": [
        "41506478881403507969696680653240014914910929820314476107906210059990541021186"
      ]
    },
    {
      "x": 13,
      "y": 376,
      "size": 1,
      "price": "1011000000000000000000",
      "reserved": "0x7a9fe22691c811ea339d9b73150e6911a5343dca",
      "salt": "0x8469ab5772d73ea12d6a9d5b1b336011cf8cc027813ed9e66a97ac666da2bd03",
      "assetIds": []
    },
    {
      "x": 13,
      "y": 377,
      "size": 1,
      "price": "4683000000000000000000",
      "reserved": "",
      "salt": "0x55d870cf5273a5dc79b3c955a240ab014c032acec284afd121dcdbee87cfaee9",
      "assetIds": [
        "41506478881403507969696680653240014914910929820314476107906210059990541021186"
      ]
    },
    {
      "x": 13,
      "y": 378,
      "size": 1,
      "price": "4683000000000000000000",
      "reserved": "",
      "salt": "0xfd78845bc88fe4704a0c5a0219526d5b5ca2c4d13e6e968676a1b829cbee5ccc",
      "assetIds": [
        "41506478881403507969696680653240014914910929820314476107906210059990541021186"
      ]
    },
    {
      "x": 13,
      "y": 379,
      "size": 1,
      "price": "4683000000000000000000",
      "reserved": "",
      "salt": "0xe4216673210fd6a8b41d42d7c79dbe8c32617e6da89323e6820c4b11e25d069a",
      "assetIds": [
        "41506478881403507969696680653240014914910929820314476107906210059990541021186"
      ]
    },
    {
      "x": 13,
      "y": 380,
      "size": 1,
      "price": "1011000000000000000000",
      "reserved": "",
      "salt": "0x92bb883cc92f1ea3184ce1d03245f184fb0f12a6acd4647b7a3aef518bc4f22f",
      "assetIds": []
    },
    {
      "x": 13,
      "y": 381,
      "size": 1,
      "price": "1011000000000000000000",
      "reserved": "",
      "salt": "0xde6caa3e3db47e1472f40d0d09ed5463b3959c9f9775417b7515797e66149983",
      "assetIds": []
    },
    {
      "x": 13,
      "y": 382,
      "size": 1,
      "price": "4683000000000000000000",
      "reserved": "",
      "salt": "0x2693619501a743c807d365d36925b0731dc5060762129e3dea57c97f6d2cd43c",
      "assetIds": [
        "41506478881403507969696680653240014914910929820314476107906210059990541021186"
      ]
    },
    {
      "x": 13,
      "y": 383,
      "size": 1,
      "price": "4683000000000000000000",
      "reserved": "",
      "salt": "0x79eae6927d2186f1ff7e749d2d187d3b9578e3c4216368dde47bb4cb1c879e6c",
      "assetIds": [
        "41506478881403507969696680653240014914910929820314476107906210059990541021186"
      ]
    },
    {
      "x": 13,
      "y": 396,
      "size": 1,
      "price": "4683000000000000000000",
      "reserved": "",
      "salt": "0xba065478353e1fed1dec2ddaf89398a265c6a8b4d9091f57a753f483eeedca76",
      "assetIds": [
        "41506478881403507969696680653240014914910929820314476107906210059990541021186"
      ]
    },
    {
      "x": 13,
      "y": 397,
      "size": 1,
      "price": "4683000000000000000000",
      "reserved": "",
      "salt": "0x54050027064695c58d796b8d0780d428b4e8b734c3bfc188bbf61f7843b8321a",
      "assetIds": [
        "41506478881403507969696680653240014914910929820314476107906210059990541021186"
      ]
    },
    {
      "x": 13,
      "y": 398,
      "size": 1,
      "price": "4683000000000000000000",
      "reserved": "",
      "salt": "0xf25906031061413ec32beaf0eaa56cdfbe6d2aa8a4ccd41d852ed24e9699b168",
      "assetIds": [
        "41506478881403507969696680653240014914910929820314476107906210059990541021186"
      ]
    },
    {
      "x": 13,
      "y": 399,
      "size": 1,
      "price": "1011000000000000000000",
      "reserved": "",
      "salt": "0xd7fedfa71d785ad8f35922e003a92f615464ec53da21e5eb3c809c02a8ece4be",
      "assetIds": []
    },
    {
      "x": 13,
      "y": 400,
      "size": 1,
      "price": "1011000000000000000000",
      "reserved": "",
      "salt": "0x611e23da90cef65277456ebb892f9f5288eae6f40be941d3656169bb582b0157",
      "assetIds": []
    },
    {
      "x": 13,
      "y": 401,
      "size": 1,
      "price": "1011000000000000000000",
      "reserved": "",
      "salt": "0xfc9879e232bbf0db3dd312e09212b6f84938cae0823a61419d5cb2d41d98022b",
      "assetIds": []
    },
    {
      "x": 14,
      "y": 366,
      "size": 1,
      "price": "1011000000000000000000",
      "reserved": "",
      "salt": "0x3373b06cfff5e3072427b9deb5420e7249c8c7831a3f398f10e1d5164112ca36",
      "assetIds": []
    },
    {
      "x": 14,
      "y": 367,
      "size": 1,
      "price": "1011000000000000000000",
      "reserved": "",
      "salt": "0xc6d82b96f48072076899cc340b66d868289c4a573e4e10cca932950d0ecf8a5a",
      "assetIds": []
    },
    {
      "x": 14,
      "y": 368,
      "size": 1,
      "price": "1011000000000000000000",
      "reserved": "0x7a9fe22691c811ea339d9b73150e6911a5343dca",
      "salt": "0x4cd43e7d70d800cecaa8b0d8a0a7ddbc37b8b3eb091ce6d1190fcab90d61510f",
      "assetIds": []
    },
    {
      "x": 14,
      "y": 369,
      "size": 1,
      "price": "1011000000000000000000",
      "reserved": "",
      "salt": "0x729b2693febfd43b97e8de7f64429d5808d641602fca742a100fc73eef726b03",
      "assetIds": []
    },
    {
      "x": 14,
      "y": 370,
      "size": 1,
      "price": "1011000000000000000000",
      "reserved": "",
      "salt": "0x19088b125c270cd50352169160ac7edb0bdc723fffad257c6790a19a4270909e",
      "assetIds": []
    },
    {
      "x": 14,
      "y": 371,
      "size": 1,
      "price": "1011000000000000000000",
      "reserved": "",
      "salt": "0x9728751781ea113d4cd3dc3e04770f6ed83fc1b2a3ebbe20686eb70ba821f626",
      "assetIds": []
    },
    {
      "x": 14,
      "y": 372,
      "size": 1,
      "price": "1011000000000000000000",
      "reserved": "0x7a9fe22691c811ea339d9b73150e6911a5343dca",
      "salt": "0x88755c31c2dc67c02f8fab215b930a84778370209a4719f4089b2ce1c3fd7448",
      "assetIds": []
    },
    {
      "x": 14,
      "y": 373,
      "size": 1,
      "price": "4683000000000000000000",
      "reserved": "",
      "salt": "0xba6aae8766b5727614cc72ff9437abb77931e4405ad5b0c5cfa7304537f6f118",
      "assetIds": [
        "41506478881403507969696680653240014914910929820314476107906210059990541021186"
      ]
    },
    {
      "x": 14,
      "y": 374,
      "size": 1,
      "price": "1011000000000000000000",
      "reserved": "",
      "salt": "0xc4a69757c699a19da51c7c4e72c436e9ef6d79ee57b2ca06eeb743b005fcb441",
      "assetIds": []
    },
    {
      "x": 14,
      "y": 375,
      "size": 1,
      "price": "1011000000000000000000",
      "reserved": "",
      "salt": "0x57ec3a69dd04102ab9432ca8b69c6aa1dd10f442f847f073f4f6fdc04477bca5",
      "assetIds": []
    },
    {
      "x": 14,
      "y": 376,
      "size": 1,
      "price": "1011000000000000000000",
      "reserved": "",
      "salt": "0xe07837940c6757201cd4e32aac3965721b0d81d2298c89236569416390ebaed9",
      "assetIds": []
    },
    {
      "x": 14,
      "y": 377,
      "size": 1,
      "price": "1011000000000000000000",
      "reserved": "",
      "salt": "0xdb5d32518670e1a5fa3edca3908760f8ede2dcb5c2dd9e7c79208984a7f9a1ad",
      "assetIds": []
    },
    {
      "x": 14,
      "y": 378,
      "size": 1,
      "price": "1011000000000000000000",
      "reserved": "",
      "salt": "0xe8ee7366c7ed76e16dc9dd545ce753b2bc0740a95614cc9af7d5b7071f0fc2f9",
      "assetIds": []
    },
    {
      "x": 14,
      "y": 379,
      "size": 1,
      "price": "1011000000000000000000",
      "reserved": "",
      "salt": "0xeb298be1916333ee39940b3eb69c310853320173b2905ed6fa859bf3d4579dbc",
      "assetIds": []
    },
    {
      "x": 14,
      "y": 380,
      "size": 1,
      "price": "1011000000000000000000",
      "reserved": "",
      "salt": "0x1d3581077fbe4c3649fff73cb14fb4c094eabf1a73e65c98c9e5436ca85600b6",
      "assetIds": []
    },
    {
      "x": 14,
      "y": 381,
      "size": 1,
      "price": "1011000000000000000000",
      "reserved": "",
      "salt": "0x00b5905da06b1417927fcd43a68cf89e857ec233b6f2a4246b2f109e4cf7dba9",
      "assetIds": []
    },
    {
      "x": 14,
      "y": 382,
      "size": 1,
      "price": "4683000000000000000000",
      "reserved": "",
      "salt": "0x6bebf77986ee26f395e42e9775bc5befcdd4648fc6ca21ef60754d2aef03485a",
      "assetIds": [
        "41506478881403507969696680653240014914910929820314476107906210059990541021186"
      ]
    },
    {
      "x": 14,
      "y": 383,
      "size": 1,
      "price": "4683000000000000000000",
      "reserved": "",
      "salt": "0x7ce877104f23588f449491f52b3dc536baae56b75f7570dc42984d53ff3fdaf4",
      "assetIds": [
        "41506478881403507969696680653240014914910929820314476107906210059990541021186"
      ]
    },
    {
      "x": 14,
      "y": 396,
      "size": 1,
      "price": "4683000000000000000000",
      "reserved": "",
      "salt": "0xf3b5c70d267706f5dc4e37927fc0d47727e4d15c075837b4935bbc3983bf4318",
      "assetIds": [
        "41506478881403507969696680653240014914910929820314476107906210059990541021186"
      ]
    },
    {
      "x": 14,
      "y": 397,
      "size": 1,
      "price": "1011000000000000000000",
      "reserved": "0x7a9fe22691c811ea339d9b73150e6911a5343dca",
      "salt": "0xd0229de1b871c9f1dff765fa46d63f84d852f587824b40afbf7786fa9eaa0dcf",
      "assetIds": []
    },
    {
      "x": 14,
      "y": 398,
      "size": 1,
      "price": "4683000000000000000000",
      "reserved": "",
      "salt": "0x20f1ab45260cf8b825e3e690e2893a07a58b1af5514acaa38b4d6b409fb274d5",
      "assetIds": [
        "41506478881403507969696680653240014914910929820314476107906210059990541021186"
      ]
    },
    {
      "x": 14,
      "y": 399,
      "size": 1,
      "price": "1011000000000000000000",
      "reserved": "",
      "salt": "0x70286cc879fcf2f2d08975db54c597b18a6706976c6ad94a2a923b48b7414849",
      "assetIds": []
    },
    {
      "x": 14,
      "y": 400,
      "size": 1,
      "price": "1011000000000000000000",
      "reserved": "0x7a9fe22691c811ea339d9b73150e6911a5343dca",
      "salt": "0x3209c3d379db01ff2ac91cdfa4a0889886f997cd9aff6ece8bb6c3e9645394d1",
      "assetIds": []
    },
    {
      "x": 14,
      "y": 401,
      "size": 1,
      "price": "1011000000000000000000",
      "reserved": "",
      "salt": "0xb168b6c6ee98f7ccbcd53461c478370ed4aca370b22e1c9e1ae03f3b5516afcc",
      "assetIds": []
    },
    {
      "x": 15,
      "y": 366,
      "size": 1,
      "price": "1011000000000000000000",
      "reserved": "",
      "salt": "0xa953ae008bd4f68211589c37010d5b8d13b192b5b1fb9c3f31ffb0cc238ceb35",
      "assetIds": []
    },
    {
      "x": 15,
      "y": 367,
      "size": 1,
      "price": "1011000000000000000000",
      "reserved": "",
      "salt": "0xbf66337c6eb6409137ff382328a5d550d525495f9d915d0f0e48b6d925e6e92a",
      "assetIds": []
    },
    {
      "x": 15,
      "y": 368,
      "size": 1,
      "price": "1011000000000000000000",
      "reserved": "",
      "salt": "0x463d709927340e150c99ab116314a3cd0412b7cece04f127c23178617229563a",
      "assetIds": []
    },
    {
      "x": 15,
      "y": 369,
      "size": 1,
      "price": "1011000000000000000000",
      "reserved": "",
      "salt": "0xa556a41c7fde4100c1f062c0f379cc107b7a0c06603d8b4dee7b99fe508e8024",
      "assetIds": []
    },
    {
      "x": 15,
      "y": 370,
      "size": 1,
      "price": "1011000000000000000000",
      "reserved": "",
      "salt": "0x815a419559cbe213712b4c6c6b46c64c31fc9fea948a23629fb5157751cdbd5d",
      "assetIds": []
    },
    {
      "x": 15,
      "y": 371,
      "size": 1,
      "price": "1011000000000000000000",
      "reserved": "",
      "salt": "0x76705c8e507a08da529edc6b974bcf103fc69b54ca4950402237fbe5d3cb8562",
      "assetIds": []
    },
    {
      "x": 15,
      "y": 372,
      "size": 1,
      "price": "1011000000000000000000",
      "reserved": "",
      "salt": "0x39340ba61967e3227ea881b0d97c6a4c3abe357fe94526da97fadfbe08738a87",
      "assetIds": []
    },
    {
      "x": 15,
      "y": 373,
      "size": 1,
      "price": "1011000000000000000000",
      "reserved": "",
      "salt": "0x0c8d03aeeff3083600453c0b16ee72c8bd273bb77039fb3d4c254f974296cab5",
      "assetIds": []
    },
    {
      "x": 15,
      "y": 374,
      "size": 1,
      "price": "1011000000000000000000",
      "reserved": "",
      "salt": "0xd678cd86d0989b0d32988be4bb33e345c5518398926ee43fefad8c9a9beda3ab",
      "assetIds": []
    },
    {
      "x": 15,
      "y": 375,
      "size": 1,
      "price": "1011000000000000000000",
      "reserved": "",
      "salt": "0x811af652cd9694b9eb119c6aafa722a551df1dbe1c4d5e3787d11d31c89fa1c3",
      "assetIds": []
    },
    {
      "x": 15,
      "y": 376,
      "size": 1,
      "price": "1011000000000000000000",
      "reserved": "0x7a9fe22691c811ea339d9b73150e6911a5343dca",
      "salt": "0x3027eded8846357051cbbf33d7024ad9742bbb2c2049f6e2e9edf9f51df39b37",
      "assetIds": []
    },
    {
      "x": 15,
      "y": 377,
      "size": 1,
      "price": "1011000000000000000000",
      "reserved": "",
      "salt": "0x1c6c7c79ae4b70dd63615b772335aedff124e7c94be84c9d28d4564f6249dc35",
      "assetIds": []
    },
    {
      "x": 15,
      "y": 378,
      "size": 1,
      "price": "1011000000000000000000",
      "reserved": "",
      "salt": "0xbbabcf085de622f4306be8206fc4b47b62cd3692d4bff1375cc418a0062ce056",
      "assetIds": []
    },
    {
      "x": 15,
      "y": 379,
      "size": 1,
      "price": "1011000000000000000000",
      "reserved": "",
      "salt": "0x91d43d6c7d00605dd1f2d92d1b8f7e4f4cab5315ddaf7ef13d5972a8ce51ebe8",
      "assetIds": []
    },
    {
      "x": 15,
      "y": 380,
      "size": 1,
      "price": "1011000000000000000000",
      "reserved": "",
      "salt": "0x6b73ed1532ce8b04262c01581ecb486d5a489814a8056a49da23d2911a991307",
      "assetIds": []
    },
    {
      "x": 15,
      "y": 381,
      "size": 1,
      "price": "1011000000000000000000",
      "reserved": "",
      "salt": "0x3269a28d5b2578ec0d8824249e6f8ac5abbcec4df105bcf6bfd12451f8d3934a",
      "assetIds": []
    },
    {
      "x": 15,
      "y": 382,
      "size": 1,
      "price": "4683000000000000000000",
      "reserved": "",
      "salt": "0x117fcb89549647e05591bd55a0ad7424511a987b1567b7e147b75f58d271a717",
      "assetIds": [
        "41506478881403507969696680653240014914910929820314476107906210059990541021186"
      ]
    },
    {
      "x": 15,
      "y": 383,
      "size": 1,
      "price": "4683000000000000000000",
      "reserved": "",
      "salt": "0xbccedbd37b7fcd85b20fff79ddda34e52af4ffe4ff48bc909927a132885607fc",
      "assetIds": [
        "41506478881403507969696680653240014914910929820314476107906210059990541021186"
      ]
    },
    {
      "x": 15,
      "y": 396,
      "size": 1,
      "price": "4683000000000000000000",
      "reserved": "",
      "salt": "0xa7d31df9553a015229ae1c8067f65d14acb6dbeb3f7ecb6d460350bb0168bf49",
      "assetIds": [
        "41506478881403507969696680653240014914910929820314476107906210059990541021186"
      ]
    },
    {
      "x": 15,
      "y": 397,
      "size": 1,
      "price": "4683000000000000000000",
      "reserved": "",
      "salt": "0x309f71428dbb2daaacceb824fa03301fd8094e772e8cf142c07065e33b5daebe",
      "assetIds": [
        "41506478881403507969696680653240014914910929820314476107906210059990541021186"
      ]
    },
    {
      "x": 15,
      "y": 398,
      "size": 1,
      "price": "4683000000000000000000",
      "reserved": "",
      "salt": "0x3b814816ae8c72a61e9733295206bc736e95272dced7dbd827ee936cf2685454",
      "assetIds": [
        "41506478881403507969696680653240014914910929820314476107906210059990541021186"
      ]
    },
    {
      "x": 15,
      "y": 399,
      "size": 1,
      "price": "1011000000000000000000",
      "reserved": "",
      "salt": "0x5a72072d8beb5e9f8fc766ae109cf88f5da6ca803b0bca18ef772fca9b6c7733",
      "assetIds": []
    },
    {
      "x": 15,
      "y": 400,
      "size": 1,
      "price": "1011000000000000000000",
      "reserved": "",
      "salt": "0x2cfa9ce31a3f6a8831bc36baa00b584732ecc5819251ee2b6a1d2b7668ddd764",
      "assetIds": []
    },
    {
      "x": 15,
      "y": 401,
      "size": 1,
      "price": "1011000000000000000000",
      "reserved": "",
      "salt": "0x1cbb9a6b9edf09c1fad69f7e0422c30fc05b6dad2dca5418657705597c6218bf",
      "assetIds": []
    },
    {
      "x": 15,
      "y": 402,
      "size": 1,
      "price": "1011000000000000000000",
      "reserved": "",
      "salt": "0xa0bd3a7f9438aeef59892ffe52df35a639008a4ae3cd08ef8e5db911ae8c63fd",
      "assetIds": []
    },
    {
      "x": 15,
      "y": 403,
      "size": 1,
      "price": "1011000000000000000000",
      "reserved": "",
      "salt": "0xf75b7ded35e029a9e7cb9aebe112cfe920802e88b9587446e64495ffe87a503d",
      "assetIds": []
    },
    {
      "x": 15,
      "y": 404,
      "size": 1,
      "price": "1011000000000000000000",
      "reserved": "",
      "salt": "0xe01bfe239887da590aaf9ed3aa028f85cba6421e439cc6778f16aef140a2c66a",
      "assetIds": []
    },
    {
      "x": 15,
      "y": 405,
      "size": 1,
      "price": "1011000000000000000000",
      "reserved": "",
      "salt": "0xc78620f1a37f404a625136285f73cc31e86a69d799266ab963c0dc4b236ba609",
      "assetIds": []
    },
    {
      "x": 15,
      "y": 406,
      "size": 1,
      "price": "1011000000000000000000",
      "reserved": "",
      "salt": "0xe98c28657f28dff33256dce541ea625d13010e8f5cdc7175c76c862ae0abc915",
      "assetIds": []
    },
    {
      "x": 15,
      "y": 407,
      "size": 1,
      "price": "1011000000000000000000",
      "reserved": "",
      "salt": "0x3c13f209e388443705312f0afbfa40723adef2322090f68ab4e7c0074b2e47a2",
      "assetIds": []
    },
    {
      "x": 16,
      "y": 366,
      "size": 1,
      "price": "1011000000000000000000",
      "reserved": "",
      "salt": "0xe3b9155dba1c3570af9266d6806a5408e8c6d78d4fdee012b23f17e91be67b97",
      "assetIds": []
    },
    {
      "x": 16,
      "y": 367,
      "size": 1,
      "price": "1011000000000000000000",
      "reserved": "0x7a9fe22691c811ea339d9b73150e6911a5343dca",
      "salt": "0x5e576446210b75b1a1e38c5b7e944534f79e4bf1602d011a876c1a73c3821cb2",
      "assetIds": []
    },
    {
      "x": 16,
      "y": 368,
      "size": 1,
      "price": "1011000000000000000000",
      "reserved": "",
      "salt": "0x3c02aa7e2a5857f3b1c8b4e79a6b639c879cf58fa4abf236cd18387dd0a67177",
      "assetIds": []
    },
    {
      "x": 16,
      "y": 369,
      "size": 1,
      "price": "1011000000000000000000",
      "reserved": "",
      "salt": "0x78bd6bf10e3b4f8f0cdc89281659ed065084c825e9ea4eb97612f2c7f874fecf",
      "assetIds": []
    },
    {
      "x": 16,
      "y": 370,
      "size": 1,
      "price": "1011000000000000000000",
      "reserved": "",
      "salt": "0x8a64ff022e3059d1720d34000a5fd87fc1a547503bb5661de87da46ac05b1457",
      "assetIds": []
    },
    {
      "x": 16,
      "y": 371,
      "size": 1,
      "price": "1011000000000000000000",
      "reserved": "",
      "salt": "0xadad99157d6fac49dbf5fc85cc876cb395bb4057227390e1ac198be7c3d311a2",
      "assetIds": []
    },
    {
      "x": 16,
      "y": 372,
      "size": 1,
      "price": "1011000000000000000000",
      "reserved": "",
      "salt": "0x110a86c868b14013348d512cd28ea3296f306398f94f36bae22c8402771a5309",
      "assetIds": []
    },
    {
      "x": 16,
      "y": 373,
      "size": 1,
      "price": "1011000000000000000000",
      "reserved": "0x7a9fe22691c811ea339d9b73150e6911a5343dca",
      "salt": "0x30135c9f322d2c08d116610630b8bf51b37b883baa760d871e058abb65ab3709",
      "assetIds": []
    },
    {
      "x": 16,
      "y": 374,
      "size": 1,
      "price": "1011000000000000000000",
      "reserved": "",
      "salt": "0x43ba765bbe2888e20a9d7c0194cfe2d17ff35f7235079619b27393a7c5a119f3",
      "assetIds": []
    },
    {
      "x": 16,
      "y": 375,
      "size": 1,
      "price": "1011000000000000000000",
      "reserved": "",
      "salt": "0x1ade6d31c08fb485c29b86a0f33d596d1417350cffa1f470acb8a510411dbd55",
      "assetIds": []
    },
    {
      "x": 16,
      "y": 376,
      "size": 1,
      "price": "1011000000000000000000",
      "reserved": "",
      "salt": "0x305e70c2fce5acd23a3e6a6efef312b5bf468e4f821a7b82db277d182039587d",
      "assetIds": []
    },
    {
      "x": 16,
      "y": 377,
      "size": 1,
      "price": "1011000000000000000000",
      "reserved": "",
      "salt": "0x9f8fa5dc2eaaf6234ad540d2ded1920dbe2c5284e7e96674b3408a51017b8dbc",
      "assetIds": []
    },
    {
      "x": 16,
      "y": 378,
      "size": 1,
      "price": "1011000000000000000000",
      "reserved": "",
      "salt": "0xcd4f3cb016d7123c9e41713685392e37c951c777879df7879b523bf11501ebf6",
      "assetIds": []
    },
    {
      "x": 16,
      "y": 379,
      "size": 1,
      "price": "1011000000000000000000",
      "reserved": "",
      "salt": "0xc5804a93effdfe697e1b72a5578e6ea4de234bd2cb3f87a1b474d06d74609208",
      "assetIds": []
    },
    {
      "x": 16,
      "y": 380,
      "size": 1,
      "price": "1011000000000000000000",
      "reserved": "",
      "salt": "0x56e08ead1f1e94131fdc2188374da24c653bff18b7f281470aa298e890c8ba4a",
      "assetIds": []
    },
    {
      "x": 16,
      "y": 381,
      "size": 1,
      "price": "1011000000000000000000",
      "reserved": "",
      "salt": "0xd48926383438752448e31754c40aa1d66aee7d8c63c8f8552388bc8e57dbd4d9",
      "assetIds": []
    },
    {
      "x": 16,
      "y": 382,
      "size": 1,
      "price": "4683000000000000000000",
      "reserved": "",
      "salt": "0x02b0790a0a68b8286bac9b8a801ab6301763d55a7a3eedec8bc5ebaa9e98df00",
      "assetIds": [
        "41506478881403507969696680653240014914910929820314476107906210059990541021186"
      ]
    },
    {
      "x": 16,
      "y": 383,
      "size": 1,
      "price": "4683000000000000000000",
      "reserved": "",
      "salt": "0x4cf30596c72dc966ed2a261a81724f191825c6494d99980941eabdf0e625b57f",
      "assetIds": [
        "41506478881403507969696680653240014914910929820314476107906210059990541021186"
      ]
    },
    {
      "x": 16,
      "y": 396,
      "size": 1,
      "price": "4683000000000000000000",
      "reserved": "",
      "salt": "0x6da36696bbdeca5b4ef34451b075c1a9a6e2d47eff2f4b6219f144a03eadc347",
      "assetIds": [
        "41506478881403507969696680653240014914910929820314476107906210059990541021186"
      ]
    },
    {
      "x": 16,
      "y": 397,
      "size": 1,
      "price": "4683000000000000000000",
      "reserved": "",
      "salt": "0x4c169865218651b795ef0f14c59f4d86043fd25459a42b8dea1395f816677c1f",
      "assetIds": [
        "41506478881403507969696680653240014914910929820314476107906210059990541021186"
      ]
    },
    {
      "x": 16,
      "y": 398,
      "size": 1,
      "price": "1011000000000000000000",
      "reserved": "0x7a9fe22691c811ea339d9b73150e6911a5343dca",
      "salt": "0xacc404ebf639eccfa816f8141c069f33941574dc29d88193514a62445bb765d1",
      "assetIds": []
    },
    {
      "x": 16,
      "y": 399,
      "size": 1,
      "price": "1011000000000000000000",
      "reserved": "",
      "salt": "0x5a8d99401da9eeb16322f3d0dbc9c73cfe75293cd089e47793e74bf21f2cced8",
      "assetIds": []
    },
    {
      "x": 16,
      "y": 400,
      "size": 1,
      "price": "1011000000000000000000",
      "reserved": "",
      "salt": "0xd6747a960190c883925dbfb2f2ddf545a7f5ba1d63dc797cd38f06f5256081f8",
      "assetIds": []
    },
    {
      "x": 16,
      "y": 401,
      "size": 1,
      "price": "1011000000000000000000",
      "reserved": "",
      "salt": "0xeb80c7f191f14a1764cc7d5c5ed6e74652f92c64e986bf7e5124dae71fe28a23",
      "assetIds": []
    },
    {
      "x": 16,
      "y": 402,
      "size": 1,
      "price": "1011000000000000000000",
      "reserved": "0x7a9fe22691c811ea339d9b73150e6911a5343dca",
      "salt": "0x1afa917193f4435de5f57d836b33c06543f6779fd14941f065d973d256f9b953",
      "assetIds": []
    },
    {
      "x": 16,
      "y": 403,
      "size": 1,
      "price": "4683000000000000000000",
      "reserved": "",
      "salt": "0x953da115a44cc2394c169552a055ba4ccfcc09f3d8760358f69600af96f99037",
      "assetIds": [
        "41506478881403507969696680653240014914910929820314476107906210059990541021186"
      ]
    },
    {
      "x": 16,
      "y": 404,
      "size": 1,
      "price": "4683000000000000000000",
      "reserved": "",
      "salt": "0x4c434d64f710a9d2e7d56e908e113e7108d42350220bfedc36e33c0ef57d3655",
      "assetIds": [
        "41506478881403507969696680653240014914910929820314476107906210059990541021186"
      ]
    },
    {
      "x": 16,
      "y": 405,
      "size": 1,
      "price": "4683000000000000000000",
      "reserved": "",
      "salt": "0x56e13ef8abcbef1e5fb18f90b0a1b8b1b2ccf9990ac4b354759639c6db0325c7",
      "assetIds": [
        "41506478881403507969696680653240014914910929820314476107906210059990541021186"
      ]
    },
    {
      "x": 16,
      "y": 406,
      "size": 1,
      "price": "1011000000000000000000",
      "reserved": "",
      "salt": "0x99fe605aee30d7299b5317b00042cbb6d5b04b7e047375a1ef0211783531e198",
      "assetIds": []
    },
    {
      "x": 16,
      "y": 407,
      "size": 1,
      "price": "1011000000000000000000",
      "reserved": "0x7a9fe22691c811ea339d9b73150e6911a5343dca",
      "salt": "0x8eb009d3979e62a72e4abf320efb50377f32635e7773088d54088b596ca15e74",
      "assetIds": []
    },
    {
      "x": 17,
      "y": 366,
      "size": 1,
      "price": "1011000000000000000000",
      "reserved": "",
      "salt": "0x8f00e91c7071edfcf04f31467fbbd0d7c04371cfd4c1b19a07f3b99a73ed817e",
      "assetIds": []
    },
    {
      "x": 17,
      "y": 367,
      "size": 1,
      "price": "1011000000000000000000",
      "reserved": "",
      "salt": "0xd4cd0a303c9468938408b134c665c3b40ef5df9d95cdafd37615583f211bceea",
      "assetIds": []
    },
    {
      "x": 17,
      "y": 368,
      "size": 1,
      "price": "1011000000000000000000",
      "reserved": "",
      "salt": "0x442e039d4d890359937cdac7dd604c0e387f51db5830ff5a5e094d23c66386bf",
      "assetIds": []
    },
    {
      "x": 17,
      "y": 369,
      "size": 1,
      "price": "1011000000000000000000",
      "reserved": "",
      "salt": "0xe91c822d121ce7378d29ab548e0252bb14f0a4706ca2dde85fce69b8943c7df2",
      "assetIds": []
    },
    {
      "x": 17,
      "y": 370,
      "size": 1,
      "price": "1011000000000000000000",
      "reserved": "",
      "salt": "0x60cdfdb9a76addb755fe362e02f3ea538fb5bb3f3186670361ca32bd09640ecb",
      "assetIds": []
    },
    {
      "x": 17,
      "y": 371,
      "size": 1,
      "price": "1011000000000000000000",
      "reserved": "",
      "salt": "0xd4b5525a300a61de1cbfee92853d630ddee7935ff7e29c0bdc6af78a0c5c72e8",
      "assetIds": []
    },
    {
      "x": 17,
      "y": 372,
      "size": 1,
      "price": "1011000000000000000000",
      "reserved": "",
      "salt": "0x090d0263e9a4319791af07459598340bc59b94f9f683a35cc00e27a298189010",
      "assetIds": []
    },
    {
      "x": 17,
      "y": 373,
      "size": 1,
      "price": "1011000000000000000000",
      "reserved": "",
      "salt": "0x2a762b370b166474ef19c8b09f77b7f61a79ce705ddcd0be3b7a83e5fe1f630f",
      "assetIds": []
    },
    {
      "x": 17,
      "y": 374,
      "size": 1,
      "price": "1011000000000000000000",
      "reserved": "",
      "salt": "0x81dd31120944585278f96fe773a37345374e2c1f1c3798e181b2728975a339b1",
      "assetIds": []
    },
    {
      "x": 17,
      "y": 375,
      "size": 1,
      "price": "1011000000000000000000",
      "reserved": "",
      "salt": "0xa4d407c8b6f49045381445ceaf9b5aaf4bf8534e3a070407ba3c979f2dd57804",
      "assetIds": []
    },
    {
      "x": 17,
      "y": 376,
      "size": 1,
      "price": "1011000000000000000000",
      "reserved": "",
      "salt": "0xfb7f240482274f5cc4671bd78f4b7b65fd1e289f1ae82d17b99f8e1323ef0c12",
      "assetIds": []
    },
    {
      "x": 17,
      "y": 377,
      "size": 1,
      "price": "1011000000000000000000",
      "reserved": "",
      "salt": "0x3fb78e5639dcb5f48fc38300d01ee21989d02bdfd1be7ff3167b3b7dd4384c16",
      "assetIds": []
    },
    {
      "x": 17,
      "y": 378,
      "size": 1,
      "price": "1011000000000000000000",
      "reserved": "",
      "salt": "0xb1eca9758b47df70b575f54fa9f2a954a472fef35eb5c016ac494193b89a6db9",
      "assetIds": []
    },
    {
      "x": 17,
      "y": 379,
      "size": 1,
      "price": "1011000000000000000000",
      "reserved": "0x7a9fe22691c811ea339d9b73150e6911a5343dca",
      "salt": "0xd4a31f2b9bc985f12694481ab3d848578acf0b9a145e5a6329db0d77f7d200e2",
      "assetIds": []
    },
    {
      "x": 17,
      "y": 380,
      "size": 1,
      "price": "1011000000000000000000",
      "reserved": "",
      "salt": "0xd892da745a13f6f724503483701b2d11da3d49775fa98f2875d5a02280746343",
      "assetIds": []
    },
    {
      "x": 17,
      "y": 381,
      "size": 1,
      "price": "1011000000000000000000",
      "reserved": "",
      "salt": "0x72652c0c8cec868500a740e636c10417437c0399d282cbbd4ba97bb7c8df8273",
      "assetIds": []
    },
    {
      "x": 17,
      "y": 382,
      "size": 1,
      "price": "1011000000000000000000",
      "reserved": "0x7a9fe22691c811ea339d9b73150e6911a5343dca",
      "salt": "0xedcd9a998f6d2ab5ce4189e77df26d846e880005a96bb5fe371bb8e8e3607b66",
      "assetIds": []
    },
    {
      "x": 17,
      "y": 383,
      "size": 1,
      "price": "4683000000000000000000",
      "reserved": "",
      "salt": "0xc57fb3ddd14fe1fe6e9b6ecf4a1561011828b26d8116eac29297bc8aa856c6f1",
      "assetIds": [
        "41506478881403507969696680653240014914910929820314476107906210059990541021186"
      ]
    },
    {
      "x": 17,
      "y": 396,
      "size": 1,
      "price": "4683000000000000000000",
      "reserved": "",
      "salt": "0x840a850f590762bd001636876964c892f928da4ab7f4ec7af1387f892ed1da20",
      "assetIds": [
        "41506478881403507969696680653240014914910929820314476107906210059990541021186"
      ]
    },
    {
      "x": 17,
      "y": 397,
      "size": 1,
      "price": "1011000000000000000000",
      "reserved": "0x7a9fe22691c811ea339d9b73150e6911a5343dca",
      "salt": "0xd4e8a98b4ff0acf5f9e2c4b713aa34bbff6b69df0346e0a3afa8da62a852e6c4",
      "assetIds": []
    },
    {
      "x": 17,
      "y": 398,
      "size": 1,
      "price": "4683000000000000000000",
      "reserved": "",
      "salt": "0xf3199f2becc2b574364e2313898d8f186bdcbbb837c360c711d0b9e66f77fe23",
      "assetIds": [
        "41506478881403507969696680653240014914910929820314476107906210059990541021186"
      ]
    },
    {
      "x": 17,
      "y": 399,
      "size": 1,
      "price": "1011000000000000000000",
      "reserved": "",
      "salt": "0xe7787179e445a0a6e85bef638a66316df121283830e9b276dac21a8e0f7f7632",
      "assetIds": []
    },
    {
      "x": 17,
      "y": 400,
      "size": 1,
      "price": "4683000000000000000000",
      "reserved": "",
      "salt": "0x48ab991ede7275334f6e0cadd706b7bc7b8846cf8b12c921aff55128b4fd2998",
      "assetIds": [
        "41506478881403507969696680653240014914910929820314476107906210059990541021186"
      ]
    },
    {
      "x": 17,
      "y": 401,
      "size": 1,
      "price": "1011000000000000000000",
      "reserved": "0x7a9fe22691c811ea339d9b73150e6911a5343dca",
      "salt": "0xd92ff6d4e4b7cd35640fdc7d6f9e6cbcb01955e26a3ebc54294d043d21f34028",
      "assetIds": []
    },
    {
      "x": 17,
      "y": 402,
      "size": 1,
      "price": "4683000000000000000000",
      "reserved": "",
      "salt": "0xf9f5f9391fac7e0e57d602b08f50b69292ad5c8969f0bcd5f8490b9cc3230faf",
      "assetIds": [
        "41506478881403507969696680653240014914910929820314476107906210059990541021186"
      ]
    },
    {
      "x": 17,
      "y": 403,
      "size": 1,
      "price": "4683000000000000000000",
      "reserved": "",
      "salt": "0xc12d723b13a9a86a87d6166eed6beefd987616ce719c2d8e46c50c60913db3d4",
      "assetIds": [
        "41506478881403507969696680653240014914910929820314476107906210059990541021186"
      ]
    },
    {
      "x": 17,
      "y": 404,
      "size": 1,
      "price": "4683000000000000000000",
      "reserved": "",
      "salt": "0x9f899535dc356de7f06ab1828f438656cbd03324d767e061bab9a5f85a01bba2",
      "assetIds": [
        "41506478881403507969696680653240014914910929820314476107906210059990541021186"
      ]
    },
    {
      "x": 17,
      "y": 405,
      "size": 1,
      "price": "1011000000000000000000",
      "reserved": "0x7a9fe22691c811ea339d9b73150e6911a5343dca",
      "salt": "0x4566fd01b2860ed56f68686b904c4cccad9fd944bb89fb01e376d3215c937777",
      "assetIds": []
    },
    {
      "x": 17,
      "y": 406,
      "size": 1,
      "price": "4683000000000000000000",
      "reserved": "",
      "salt": "0xca7763fa4aca51bbc5eaee840a7fea5234726bcb5dba6c96730d1428e211bc41",
      "assetIds": [
        "41506478881403507969696680653240014914910929820314476107906210059990541021186"
      ]
    },
    {
      "x": 17,
      "y": 407,
      "size": 1,
      "price": "1011000000000000000000",
      "reserved": "",
      "salt": "0xbce06f9acf25b77d590be7039a7ea950ab2ca040ff02b3665d7447d2b4bcc80e",
      "assetIds": []
    },
    {
      "x": 18,
      "y": 354,
      "size": 1,
      "price": "1011000000000000000000",
      "reserved": "",
      "salt": "0xb91af07fe2fc2aa292c3ea340840ce12bc3265cd5bb186692c096f6f315a96d6",
      "assetIds": []
    },
    {
      "x": 18,
      "y": 355,
      "size": 1,
      "price": "1011000000000000000000",
      "reserved": "",
      "salt": "0xfd2cead7cfecf324568b1dc2258af86ed81a4ee169bc6a44f030be0eb00ea8b1",
      "assetIds": []
    },
    {
      "x": 18,
      "y": 356,
      "size": 1,
      "price": "1011000000000000000000",
      "reserved": "",
      "salt": "0xfa191f8a073430884e7330b16be17e0342fc4867f4f3270027ace79225f684e1",
      "assetIds": []
    },
    {
      "x": 18,
      "y": 357,
      "size": 1,
      "price": "1011000000000000000000",
      "reserved": "",
      "salt": "0x4ad902000004963889f4a4a2ef0297373dd1e7afe3024317fd44233ee058fc5b",
      "assetIds": []
    },
    {
      "x": 18,
      "y": 358,
      "size": 1,
      "price": "1011000000000000000000",
      "reserved": "",
      "salt": "0x57bef21ea6890343cf65106b7ff46f4a447a16ffddc2582ad9e9bfc18eda4325",
      "assetIds": []
    },
    {
      "x": 18,
      "y": 359,
      "size": 1,
      "price": "1011000000000000000000",
      "reserved": "",
      "salt": "0x2cc896ef56e1729a2dea8f737e0fcdd9c043c1047f7900ee33233fa85a0d5d82",
      "assetIds": []
    },
    {
      "x": 18,
      "y": 360,
      "size": 1,
      "price": "1011000000000000000000",
      "reserved": "",
      "salt": "0x753effe4bbd7c3141e1fd288ae1a415bf8aefaa105fa2ec03accaf0089b49795",
      "assetIds": []
    },
    {
      "x": 18,
      "y": 361,
      "size": 1,
      "price": "1011000000000000000000",
      "reserved": "",
      "salt": "0xa094859c32fa846ab8fe9f8b2bb459fa1c1e7d024d838f4c594e473d87d42829",
      "assetIds": []
    },
    {
      "x": 18,
      "y": 362,
      "size": 1,
      "price": "1011000000000000000000",
      "reserved": "",
      "salt": "0x62a9081b2de6da80a243967802b040238f78f73e1adc78745f1e568cb8d11037",
      "assetIds": []
    },
    {
      "x": 18,
      "y": 363,
      "size": 1,
      "price": "1011000000000000000000",
      "reserved": "",
      "salt": "0x9eda32919864e49b0ceb9609fd4fd0845de0acd612463181b1e6d137ff44bec5",
      "assetIds": []
    },
    {
      "x": 18,
      "y": 364,
      "size": 1,
      "price": "1011000000000000000000",
      "reserved": "",
      "salt": "0x621af1b324adfb99bd44596214a74da85cf1f46e27acebc7076f14515bebac1a",
      "assetIds": []
    },
    {
      "x": 18,
      "y": 365,
      "size": 1,
      "price": "1011000000000000000000",
      "reserved": "",
      "salt": "0xfcef2fe5ed984f9f2e1e733e360eea7235fda589b3e4e5b438c25c2968db3286",
      "assetIds": []
    },
    {
      "x": 18,
      "y": 369,
      "size": 1,
      "price": "1011000000000000000000",
      "reserved": "",
      "salt": "0x7d608d0447c9b19fd868dbc1c5cf2293cb113203e2a062dd1a6d8baafc84950f",
      "assetIds": []
    },
    {
      "x": 18,
      "y": 370,
      "size": 1,
      "price": "1011000000000000000000",
      "reserved": "",
      "salt": "0x127b4187bfdba626d3ee669e12859d9477411946a4393a1f45e405bdc20241a7",
      "assetIds": []
    },
    {
      "x": 18,
      "y": 371,
      "size": 1,
      "price": "1011000000000000000000",
      "reserved": "",
      "salt": "0xae92138eaa34151ff64eb9b32230a8dce7daaba388865f623e296efd62bb2f28",
      "assetIds": []
    },
    {
      "x": 18,
      "y": 396,
      "size": 1,
      "price": "4683000000000000000000",
      "reserved": "",
      "salt": "0x3bd8b4172d1a197561ec5560e5325528f573a6d1e99810c1e8bbd66bfa39fbcc",
      "assetIds": [
        "41506478881403507969696680653240014914910929820314476107906210059990541021186"
      ]
    },
    {
      "x": 18,
      "y": 397,
      "size": 1,
      "price": "4683000000000000000000",
      "reserved": "",
      "salt": "0xe85177f30b588b2e29fe661191b610bda4e204660fec5f6ac65f833e088776b6",
      "assetIds": [
        "41506478881403507969696680653240014914910929820314476107906210059990541021186"
      ]
    },
    {
      "x": 18,
      "y": 398,
      "size": 1,
      "price": "4683000000000000000000",
      "reserved": "",
      "salt": "0xdabfb0a4aea4cdc4afa2a409bc77f35601bd11afd685fb9dac05e920ab54e999",
      "assetIds": [
        "41506478881403507969696680653240014914910929820314476107906210059990541021186"
      ]
    },
    {
      "x": 18,
      "y": 399,
      "size": 1,
      "price": "1011000000000000000000",
      "reserved": "",
      "salt": "0x2d1461b6b6fdc2f8dfebbb710f3c9a9fe37ef8f166f149af8b57aaa04c4f28e9",
      "assetIds": []
    },
    {
      "x": 18,
      "y": 400,
      "size": 1,
      "price": "4683000000000000000000",
      "reserved": "",
      "salt": "0x63dbcf1861f94013f836e9cb93ef8e39dce87ac414baa58dc08018976d081cc0",
      "assetIds": [
        "41506478881403507969696680653240014914910929820314476107906210059990541021186"
      ]
    },
    {
      "x": 18,
      "y": 401,
      "size": 1,
      "price": "4683000000000000000000",
      "reserved": "",
      "salt": "0xec272394ea09e0f2a4d120d75b001856eebfd8cdd354948959160448277aba33",
      "assetIds": [
        "41506478881403507969696680653240014914910929820314476107906210059990541021186"
      ]
    },
    {
      "x": 18,
      "y": 405,
      "size": 1,
      "price": "4683000000000000000000",
      "reserved": "",
      "salt": "0xc69dbc5ad6c1973d498ab0ef61bbfd61a75da4a8b51f7338da273727fe9793e3",
      "assetIds": [
        "41506478881403507969696680653240014914910929820314476107906210059990541021186"
      ]
    },
    {
      "x": 18,
      "y": 406,
      "size": 1,
      "price": "4683000000000000000000",
      "reserved": "",
      "salt": "0xb2e6cc152534b1af5941ab65d8cf0930c46fe8e00ca173338cc85fd72d08d78b",
      "assetIds": [
        "41506478881403507969696680653240014914910929820314476107906210059990541021186"
      ]
    },
    {
      "x": 18,
      "y": 407,
      "size": 1,
      "price": "1011000000000000000000",
      "reserved": "",
      "salt": "0x3c2b72dee97c044a46a85497db759599bbfd19171c3e94b9233cdc63a423bec1",
      "assetIds": []
    },
    {
      "x": 19,
      "y": 354,
      "size": 1,
      "price": "1011000000000000000000",
      "reserved": "",
      "salt": "0x8775daf1412b97c6d0ef8004e753aeb947b0d1c66a4531f408d9ab2c3b76f4a4",
      "assetIds": []
    },
    {
      "x": 19,
      "y": 355,
      "size": 1,
      "price": "1011000000000000000000",
      "reserved": "",
      "salt": "0x74bd9203c70b3653a0d1f86ecca9fd79bb88235ed79b43ff47570361cb14aa9e",
      "assetIds": []
    },
    {
      "x": 19,
      "y": 356,
      "size": 1,
      "price": "1011000000000000000000",
      "reserved": "",
      "salt": "0xeb2a36b117fc51cb4786125a450b28f2b651ebbd736f6dced402114e0b4a51f3",
      "assetIds": []
    },
    {
      "x": 19,
      "y": 357,
      "size": 1,
      "price": "1011000000000000000000",
      "reserved": "",
      "salt": "0x7ca39d1553cde044aa4c8e6eb2c9ee822bf151b2d06362f6ce199b54f4f2c2bb",
      "assetIds": []
    },
    {
      "x": 19,
      "y": 358,
      "size": 1,
      "price": "1011000000000000000000",
      "reserved": "",
      "salt": "0xcb03448bb12b25ad04c0bba2502b0f6f817a2af2674ef335841070a86d4b7c90",
      "assetIds": []
    },
    {
      "x": 19,
      "y": 359,
      "size": 1,
      "price": "1011000000000000000000",
      "reserved": "",
      "salt": "0x518903e29356f6e9db438f9e6ee24af7932f68943e97b78b8c0ba2f725f8a7f9",
      "assetIds": []
    },
    {
      "x": 19,
      "y": 360,
      "size": 1,
      "price": "1011000000000000000000",
      "reserved": "",
      "salt": "0xc4db0b72ecf0e61c0414b3d77d4f78d1d33a1b16be98f8db1aafb89826797e43",
      "assetIds": []
    },
    {
      "x": 19,
      "y": 361,
      "size": 1,
      "price": "4683000000000000000000",
      "reserved": "",
      "salt": "0x4829f24217f9f9de4f2da67498073da14f3fce97e381d42d6beaede315638be4",
      "assetIds": [
        "41506478881403507969696680653240014914910929820314476107906210059990541021186"
      ]
    },
    {
      "x": 19,
      "y": 362,
      "size": 1,
      "price": "1011000000000000000000",
      "reserved": "0x7a9fe22691c811ea339d9b73150e6911a5343dca",
      "salt": "0x5b4a530305c1e9d36b1044734515e3ee99bd70c347c23e07156a6050e9ae69f2",
      "assetIds": []
    },
    {
      "x": 19,
      "y": 363,
      "size": 1,
      "price": "1011000000000000000000",
      "reserved": "0x7a9fe22691c811ea339d9b73150e6911a5343dca",
      "salt": "0xa49273463e706b3f546cd9c25bf33847e2abcfa122f6c873d4d33e4032ff38ef",
      "assetIds": []
    },
    {
      "x": 19,
      "y": 364,
      "size": 1,
      "price": "4683000000000000000000",
      "reserved": "",
      "salt": "0x3a202e950b2699c06443eb07debd2a8a0aef5782b0e50c2ddcb5078db6109c70",
      "assetIds": [
        "41506478881403507969696680653240014914910929820314476107906210059990541021186"
      ]
    },
    {
      "x": 19,
      "y": 365,
      "size": 1,
      "price": "1011000000000000000000",
      "reserved": "0x7a9fe22691c811ea339d9b73150e6911a5343dca",
      "salt": "0xcc55fec89793008de6d686141d2d5b071f7bf50447ab3d53b9421afc4e2b48fa",
      "assetIds": []
    },
    {
      "x": 19,
      "y": 369,
      "size": 1,
      "price": "1011000000000000000000",
      "reserved": "",
      "salt": "0x68c69207a6a3eba4054a58fd80f89a04f18e9757a36d318bbee85f48c6161ea5",
      "assetIds": []
    },
    {
      "x": 19,
      "y": 370,
      "size": 1,
      "price": "1011000000000000000000",
      "reserved": "0x7a9fe22691c811ea339d9b73150e6911a5343dca",
      "salt": "0x8ec3064806a44ebb427601752d75462492056102e81de008c43bf60f5700ca70",
      "assetIds": []
    },
    {
      "x": 19,
      "y": 371,
      "size": 1,
      "price": "1011000000000000000000",
      "reserved": "",
      "salt": "0xfce6cec0cc3c7d0e7297db43003a4b5aa6dbbea2b9e3f499e8fdc083ffd9991c",
      "assetIds": []
    },
    {
      "x": 19,
      "y": 396,
      "size": 1,
      "price": "4683000000000000000000",
      "reserved": "",
      "salt": "0x5f56977eb1231472f3ad5bd78a564a742191bfdd3db96f54e2932a722c31d833",
      "assetIds": [
        "41506478881403507969696680653240014914910929820314476107906210059990541021186"
      ]
    },
    {
      "x": 19,
      "y": 397,
      "size": 1,
      "price": "4683000000000000000000",
      "reserved": "",
      "salt": "0xad834c8cb3e74ad7fc9ce98dd96935912421154f0afcdd29d98a5f9ed7b93d35",
      "assetIds": [
        "41506478881403507969696680653240014914910929820314476107906210059990541021186"
      ]
    },
    {
      "x": 19,
      "y": 398,
      "size": 1,
      "price": "1011000000000000000000",
      "reserved": "",
      "salt": "0xe4d717519da4c9b90722f43ff8458532cf626a4796485fd6c5ce35647c2fc853",
      "assetIds": []
    },
    {
      "x": 19,
      "y": 399,
      "size": 1,
      "price": "1011000000000000000000",
      "reserved": "",
      "salt": "0x4cbe171d10d0956f0bd5ff87f9292a7434d2ccd470e5a5ce7480f296e533dff7",
      "assetIds": []
    },
    {
      "x": 19,
      "y": 400,
      "size": 1,
      "price": "1011000000000000000000",
      "reserved": "0x7a9fe22691c811ea339d9b73150e6911a5343dca",
      "salt": "0x0a7fee1b5595e93defac155d74487588b6654eef5079f803fbc3c79814fc948c",
      "assetIds": []
    },
    {
      "x": 19,
      "y": 401,
      "size": 1,
      "price": "4683000000000000000000",
      "reserved": "",
      "salt": "0xcf69d7f674b23bae1c8353e72b9a271f8d7f4d291d234d6e2364665587cbf947",
      "assetIds": [
        "41506478881403507969696680653240014914910929820314476107906210059990541021186"
      ]
    },
    {
      "x": 19,
      "y": 405,
      "size": 1,
      "price": "4683000000000000000000",
      "reserved": "",
      "salt": "0x9e0ac0497520549d81c72c9507785fce43716cb58f7b1d225c20a225434e18aa",
      "assetIds": [
        "41506478881403507969696680653240014914910929820314476107906210059990541021186"
      ]
    },
    {
      "x": 19,
      "y": 406,
      "size": 1,
      "price": "4683000000000000000000",
      "reserved": "",
      "salt": "0x18dea2fdf0e3e4dd9e7bbeb993a471f2b12c495ff8699cbe744a41cf5621ae62",
      "assetIds": [
        "41506478881403507969696680653240014914910929820314476107906210059990541021186"
      ]
    },
    {
      "x": 19,
      "y": 407,
      "size": 1,
      "price": "1011000000000000000000",
      "reserved": "",
      "salt": "0x1741ac815320e33f3809e75026025827df306babed9693367b006bb1f600adae",
      "assetIds": []
    },
    {
      "x": 20,
      "y": 354,
      "size": 1,
      "price": "1011000000000000000000",
      "reserved": "0x7a9fe22691c811ea339d9b73150e6911a5343dca",
      "salt": "0xb9462128751b01a762b7b8e851376a8847ce4c97885bb1317eaab00c1bab4127",
      "assetIds": []
    },
    {
      "x": 20,
      "y": 355,
      "size": 1,
      "price": "1011000000000000000000",
      "reserved": "",
      "salt": "0x82eb574a1739f2599771f460e30064af1eb3bce029ec8eaa079520dd5aaa15df",
      "assetIds": []
    },
    {
      "x": 20,
      "y": 356,
      "size": 1,
      "price": "1011000000000000000000",
      "reserved": "",
      "salt": "0x593ce574df49bea412042009fc15811c64e90e56ffc60e69f65ba7812429229a",
      "assetIds": []
    },
    {
      "x": 20,
      "y": 357,
      "size": 1,
      "price": "1011000000000000000000",
      "reserved": "",
      "salt": "0xb4e077966f214641bfbd6421b8d87e0b1273ef69ca0452bb55420a1d69553d63",
      "assetIds": []
    },
    {
      "x": 20,
      "y": 358,
      "size": 1,
      "price": "1011000000000000000000",
      "reserved": "0x7a9fe22691c811ea339d9b73150e6911a5343dca",
      "salt": "0x096ab389c0e0d7a2574fc22df6af6ab70f53ac213a2c545e488e8661b0770b07",
      "assetIds": []
    },
    {
      "x": 20,
      "y": 359,
      "size": 1,
      "price": "1011000000000000000000",
      "reserved": "",
      "salt": "0xc67906b1e205ed425032b0cefd97a4c6ce82ad69302e2c42bbcc4a59ade3a975",
      "assetIds": []
    },
    {
      "x": 20,
      "y": 360,
      "size": 1,
      "price": "4683000000000000000000",
      "reserved": "",
      "salt": "0x28dab7dba96d687baa4cdc7ce146ab2f366b5a36b2e44e68af5ba215a39c5aa1",
      "assetIds": [
        "41506478881403507969696680653240014914910929820314476107906210059990541021186"
      ]
    },
    {
      "x": 20,
      "y": 361,
      "size": 1,
      "price": "1011000000000000000000",
      "reserved": "0x7a9fe22691c811ea339d9b73150e6911a5343dca",
      "salt": "0xe542baefb97f6f91eb2434ec06c950ec91a8f42e9e36d3cb99c2d5b14f17dad4",
      "assetIds": []
    },
    {
      "x": 20,
      "y": 362,
      "size": 1,
      "price": "4683000000000000000000",
      "reserved": "",
      "salt": "0x718dcf7cd0c480a36da83b51ffe4270ff0815fac81cede142ab6ac2ecfffed4a",
      "assetIds": [
        "41506478881403507969696680653240014914910929820314476107906210059990541021186"
      ]
    },
    {
      "x": 20,
      "y": 363,
      "size": 1,
      "price": "4683000000000000000000",
      "reserved": "",
      "salt": "0x794763e15736b1ff9c1d320ecc27cef525049aa9f770b1296de736e050dd1c1c",
      "assetIds": [
        "41506478881403507969696680653240014914910929820314476107906210059990541021186"
      ]
    },
    {
      "x": 20,
      "y": 364,
      "size": 1,
      "price": "4683000000000000000000",
      "reserved": "",
      "salt": "0x7de190b4456b65335f392582905957fb73414cd711faf6b48678cbcd33e42185",
      "assetIds": [
        "41506478881403507969696680653240014914910929820314476107906210059990541021186"
      ]
    },
    {
      "x": 20,
      "y": 365,
      "size": 1,
      "price": "4683000000000000000000",
      "reserved": "",
      "salt": "0x627a71c8c9c2bdb8575bc9e02c103dbcb4b176dbb8404a62e707588da6a7afd5",
      "assetIds": [
        "41506478881403507969696680653240014914910929820314476107906210059990541021186"
      ]
    },
    {
      "x": 20,
      "y": 369,
      "size": 1,
      "price": "1011000000000000000000",
      "reserved": "",
      "salt": "0xd1fa194a43f33a79e923f3ef43f4382e7f2790e8d37a1f3499e19d1d82be3164",
      "assetIds": []
    },
    {
      "x": 20,
      "y": 370,
      "size": 1,
      "price": "1011000000000000000000",
      "reserved": "",
      "salt": "0x0de9de00c3bb554a0abf81cb2b79d491fbf5db6b1c2d866cee1c4112743e0325",
      "assetIds": []
    },
    {
      "x": 20,
      "y": 371,
      "size": 1,
      "price": "1011000000000000000000",
      "reserved": "",
      "salt": "0xb350a80d9e9268967259ca8a40a45fa76ee4e7fb64469986860ca41797b088e2",
      "assetIds": []
    },
    {
      "x": 20,
      "y": 396,
      "size": 1,
      "price": "4683000000000000000000",
      "reserved": "",
      "salt": "0xff88b1fd5cbd1e738b0264836ebf92b5f302e73ff27f9012f0642cb7be01d902",
      "assetIds": [
        "41506478881403507969696680653240014914910929820314476107906210059990541021186"
      ]
    },
    {
      "x": 20,
      "y": 397,
      "size": 1,
      "price": "4683000000000000000000",
      "reserved": "",
      "salt": "0x9c9fcd02bb09c02213452487bfcab53c3103f17dfd017fa79f336d44c9ad5c4f",
      "assetIds": [
        "41506478881403507969696680653240014914910929820314476107906210059990541021186"
      ]
    },
    {
      "x": 20,
      "y": 398,
      "size": 1,
      "price": "1011000000000000000000",
      "reserved": "",
      "salt": "0xa7955e726a1ac0160cf47fe666862d462122172f8f39b3490f5526316fd4854e",
      "assetIds": []
    },
    {
      "x": 20,
      "y": 399,
      "size": 1,
      "price": "4683000000000000000000",
      "reserved": "",
      "salt": "0x4741eeccdc53dff0633f0a9abfa3a348b4824712a31837b4a4de79dae85c08c1",
      "assetIds": [
        "41506478881403507969696680653240014914910929820314476107906210059990541021186"
      ]
    },
    {
      "x": 20,
      "y": 400,
      "size": 1,
      "price": "4683000000000000000000",
      "reserved": "",
      "salt": "0xddbac86851e504df4a79319ddab7b79732f302a87310a6e313f1956c58afb7ab",
      "assetIds": [
        "41506478881403507969696680653240014914910929820314476107906210059990541021186"
      ]
    },
    {
      "x": 20,
      "y": 401,
      "size": 1,
      "price": "4683000000000000000000",
      "reserved": "",
      "salt": "0x19507141e1ddfafe81dcf330333ee48fe3a0d11e3d8f36d25f3abf8d432db34d",
      "assetIds": [
        "41506478881403507969696680653240014914910929820314476107906210059990541021186"
      ]
    },
    {
      "x": 20,
      "y": 405,
      "size": 1,
      "price": "4683000000000000000000",
      "reserved": "",
      "salt": "0xa5a590271b375c837938866d7d1814ea527a3f96ae8dc753e84f1f521d8983d7",
      "assetIds": [
        "41506478881403507969696680653240014914910929820314476107906210059990541021186"
      ]
    },
    {
      "x": 20,
      "y": 406,
      "size": 1,
      "price": "4683000000000000000000",
      "reserved": "",
      "salt": "0x023d1347de729abe901e053408d5b053ff061e017343eb1f149b3d8a39445ecc",
      "assetIds": [
        "41506478881403507969696680653240014914910929820314476107906210059990541021186"
      ]
    },
    {
      "x": 20,
      "y": 407,
      "size": 1,
      "price": "1011000000000000000000",
      "reserved": "",
      "salt": "0x95fdee7bb1454113e33582c0eb3b9c823812509d812b60258d327a9d8be527b0",
      "assetIds": []
    },
    {
      "x": 21,
      "y": 355,
      "size": 1,
      "price": "1011000000000000000000",
      "reserved": "",
      "salt": "0x2dcbd91a7361a6e083fdacb785e380dd8b17f994f5f221c8d8a98f73a3eb5065",
      "assetIds": []
    },
    {
      "x": 21,
      "y": 356,
      "size": 1,
      "price": "1011000000000000000000",
      "reserved": "",
      "salt": "0xd9594afb5ec2d9bbdc8f70ede8c448254c3afbe2dd9edd954f8a4501f430c46e",
      "assetIds": []
    },
    {
      "x": 21,
      "y": 357,
      "size": 1,
      "price": "1011000000000000000000",
      "reserved": "",
      "salt": "0xb4c433d03b06fc5080a42e514241d2a379b772821514ab6f48ab54c8b16349c1",
      "assetIds": []
    },
    {
      "x": 21,
      "y": 358,
      "size": 1,
      "price": "1011000000000000000000",
      "reserved": "",
      "salt": "0x97caf17755ebdaa9d94b865b9596fcb901b2114935fe2496989a457155283bc8",
      "assetIds": []
    },
    {
      "x": 21,
      "y": 359,
      "size": 1,
      "price": "1011000000000000000000",
      "reserved": "",
      "salt": "0x994902f483bc7d1fee56b1c51088620cec20df1d06f4415a7bb20dbeb15def98",
      "assetIds": []
    },
    {
      "x": 21,
      "y": 360,
      "size": 1,
      "price": "4683000000000000000000",
      "reserved": "",
      "salt": "0x7f6d4373602bd140822b647d41ec934a7b5b29559efafc0d96c933d98774407e",
      "assetIds": [
        "41506478881403507969696680653240014914910929820314476107906210059990541021186"
      ]
    },
    {
      "x": 21,
      "y": 361,
      "size": 1,
      "price": "4683000000000000000000",
      "reserved": "",
      "salt": "0x8af67e8e1c26c98cf60b7a34059b665b8407deff630c9184210597c2819d7e6b",
      "assetIds": [
        "41506478881403507969696680653240014914910929820314476107906210059990541021186"
      ]
    },
    {
      "x": 21,
      "y": 362,
      "size": 1,
      "price": "4683000000000000000000",
      "reserved": "",
      "salt": "0x8492e49f8d78cef4da709b6a801fe48ecd60dea9566eda29f8e6700ca1fa06bd",
      "assetIds": [
        "41506478881403507969696680653240014914910929820314476107906210059990541021186"
      ]
    },
    {
      "x": 21,
      "y": 366,
      "size": 1,
      "price": "4683000000000000000000",
      "reserved": "",
      "salt": "0x7515ef8774ee7f050f1cddf4aa8f0d360440f63bd314eb917618a3644a2844be",
      "assetIds": [
        "41506478881403507969696680653240014914910929820314476107906210059990541021186"
      ]
    },
    {
      "x": 21,
      "y": 367,
      "size": 1,
      "price": "4683000000000000000000",
      "reserved": "",
      "salt": "0xdba1adc026bd59cb562fe11be43d1475acc02c2350f2d58bc28959522175d7f2",
      "assetIds": [
        "41506478881403507969696680653240014914910929820314476107906210059990541021186"
      ]
    },
    {
      "x": 21,
      "y": 368,
      "size": 1,
      "price": "4683000000000000000000",
      "reserved": "",
      "salt": "0x6e5c1b7afa0b0c57f583cc366e4aa25392cf6ea0cffc3369b4cd5869d3f394a9",
      "assetIds": [
        "41506478881403507969696680653240014914910929820314476107906210059990541021186"
      ]
    },
    {
      "x": 21,
      "y": 369,
      "size": 1,
      "price": "1011000000000000000000",
      "reserved": "",
      "salt": "0xd80c1abacb46752e3ec0a37e396e029ffbe18560a68c29ab763fe5cded1693a8",
      "assetIds": []
    },
    {
      "x": 21,
      "y": 370,
      "size": 1,
      "price": "1011000000000000000000",
      "reserved": "",
      "salt": "0xfa186cb444bd22e6914ec372fbcb1add3f277d3d7281e4fe8a90d9b684751810",
      "assetIds": []
    },
    {
      "x": 21,
      "y": 371,
      "size": 1,
      "price": "1011000000000000000000",
      "reserved": "",
      "salt": "0xce2a0b6b313f28c15c9b8b6ad7bb2c4236e4a90829d54f7178936781da8695fa",
      "assetIds": []
    },
    {
      "x": 21,
      "y": 396,
      "size": 1,
      "price": "4683000000000000000000",
      "reserved": "",
      "salt": "0xc9a4eb4c1ba15469a74fa95bf0e12769034ca50e84de35bfd42a214587e954ac",
      "assetIds": [
        "41506478881403507969696680653240014914910929820314476107906210059990541021186"
      ]
    },
    {
      "x": 21,
      "y": 397,
      "size": 1,
      "price": "1011000000000000000000",
      "reserved": "0x7a9fe22691c811ea339d9b73150e6911a5343dca",
      "salt": "0x911ff3c410170d87588352e118333b2d448d99082b23873b42d9780277ddfcd3",
      "assetIds": []
    },
    {
      "x": 21,
      "y": 398,
      "size": 1,
      "price": "1011000000000000000000",
      "reserved": "",
      "salt": "0xbb84e26401f9f934c19d2db696f7bee8d9b9100f214a5f66e31cd6a8fd4a239f",
      "assetIds": []
    },
    {
      "x": 21,
      "y": 399,
      "size": 1,
      "price": "4683000000000000000000",
      "reserved": "",
      "salt": "0xfc4abb58687430df65c18cddecda296f92caac765998bd4f1bf558c2f2b8e8f0",
      "assetIds": [
        "41506478881403507969696680653240014914910929820314476107906210059990541021186"
      ]
    },
    {
      "x": 21,
      "y": 400,
      "size": 1,
      "price": "4683000000000000000000",
      "reserved": "",
      "salt": "0x9a67c2009be8f6c5ab20f4583b2b06f76df77e6daafca8bf517cf1b78369ef3b",
      "assetIds": [
        "41506478881403507969696680653240014914910929820314476107906210059990541021186"
      ]
    },
    {
      "x": 21,
      "y": 401,
      "size": 1,
      "price": "1011000000000000000000",
      "reserved": "0x7a9fe22691c811ea339d9b73150e6911a5343dca",
      "salt": "0x452491d80b538b483f1cb41395dc880e5e341ffcb5fb169265d0e19b31c7cf92",
      "assetIds": []
    },
    {
      "x": 21,
      "y": 402,
      "size": 1,
      "price": "4683000000000000000000",
      "reserved": "",
      "salt": "0x735cdcb18911e1264335037de4c3542de80f0c39483e80e83594371208bc8a7b",
      "assetIds": [
        "41506478881403507969696680653240014914910929820314476107906210059990541021186"
      ]
    },
    {
      "x": 21,
      "y": 403,
      "size": 1,
      "price": "4683000000000000000000",
      "reserved": "",
      "salt": "0xc4c05d6881bd06bc01778c8b3d679afad76d21e5eaab3f7c4cb157191e7be21d",
      "assetIds": [
        "41506478881403507969696680653240014914910929820314476107906210059990541021186"
      ]
    },
    {
      "x": 21,
      "y": 404,
      "size": 1,
      "price": "4683000000000000000000",
      "reserved": "",
      "salt": "0x5e40ef9363d6feae7134cb33c8d6ecf9d524581a09125eb2e191f49b535088db",
      "assetIds": [
        "41506478881403507969696680653240014914910929820314476107906210059990541021186"
      ]
    },
    {
      "x": 21,
      "y": 405,
      "size": 1,
      "price": "4683000000000000000000",
      "reserved": "",
      "salt": "0x8c9cc2b9658e4c16d084b015de8fff261c0b98ced812f809126887635c9c1e5c",
      "assetIds": [
        "41506478881403507969696680653240014914910929820314476107906210059990541021186"
      ]
    },
    {
      "x": 21,
      "y": 406,
      "size": 1,
      "price": "1011000000000000000000",
      "reserved": "0x7a9fe22691c811ea339d9b73150e6911a5343dca",
      "salt": "0x14688f0b5834a8f093e1d8b5ef321f9ca4c9f66bc492021db9c41c3f5687aecb",
      "assetIds": []
    },
    {
      "x": 21,
      "y": 407,
      "size": 1,
      "price": "1011000000000000000000",
      "reserved": "",
      "salt": "0x1e1ebfc149a5ec427613f805c9e7f784e443bcfd115ec8aee9567570d951e84f",
      "assetIds": []
    },
    {
      "x": 22,
      "y": 355,
      "size": 1,
      "price": "1011000000000000000000",
      "reserved": "",
      "salt": "0x41c26b1d77df6a09bb63375fb93a0222b485b8765c1899025e2a1fd42327db22",
      "assetIds": []
    },
    {
      "x": 22,
      "y": 356,
      "size": 1,
      "price": "1011000000000000000000",
      "reserved": "",
      "salt": "0x6c815ab908ec1a0349be434e62b4935f06c457ccb3583be5997e19e785a42f60",
      "assetIds": []
    },
    {
      "x": 22,
      "y": 357,
      "size": 1,
      "price": "1011000000000000000000",
      "reserved": "",
      "salt": "0x92096fac54a49569aa73f6f274cb29ce892f0608ca148dace0a387fdcbe60465",
      "assetIds": []
    },
    {
      "x": 22,
      "y": 358,
      "size": 1,
      "price": "1011000000000000000000",
      "reserved": "",
      "salt": "0x369e8aae17d905d14f661d2f38770bedea9250a3baa0fc750941ee76aadedc37",
      "assetIds": []
    },
    {
      "x": 22,
      "y": 359,
      "size": 1,
      "price": "1011000000000000000000",
      "reserved": "",
      "salt": "0x4bfdec0e67cc259e313e31bf81300462b7b1224c8a191f9aad08e6754614cd0e",
      "assetIds": []
    },
    {
      "x": 22,
      "y": 360,
      "size": 1,
      "price": "4683000000000000000000",
      "reserved": "",
      "salt": "0x1ea32d7f8acbb9cb5ad2c3560a9930d5e46b37fea40245c8fae4ef7bbd93bbf6",
      "assetIds": [
        "41506478881403507969696680653240014914910929820314476107906210059990541021186"
      ]
    },
    {
      "x": 22,
      "y": 361,
      "size": 1,
      "price": "1011000000000000000000",
      "reserved": "0x7a9fe22691c811ea339d9b73150e6911a5343dca",
      "salt": "0x636ad7ef73ed1f5849053f13efc55879e8425517b41c2f29bf25b32e356dc6ca",
      "assetIds": []
    },
    {
      "x": 22,
      "y": 362,
      "size": 1,
      "price": "4683000000000000000000",
      "reserved": "",
      "salt": "0x38f6fdb71ca6854e4377ada9c0043419323512b2a55686baccddebadc511b0f3",
      "assetIds": [
        "41506478881403507969696680653240014914910929820314476107906210059990541021186"
      ]
    },
    {
      "x": 22,
      "y": 366,
      "size": 1,
      "price": "4683000000000000000000",
      "reserved": "",
      "salt": "0x1ac5003d716915c84a03e7adf891ec11932ae888b24b7483016005fb6e835e55",
      "assetIds": [
        "41506478881403507969696680653240014914910929820314476107906210059990541021186"
      ]
    },
    {
      "x": 22,
      "y": 367,
      "size": 1,
      "price": "4683000000000000000000",
      "reserved": "",
      "salt": "0xd84da4a6862f8f554e1e2ed839dff8856637e1e8a0fd8d2c857bfe5d595b29c9",
      "assetIds": [
        "41506478881403507969696680653240014914910929820314476107906210059990541021186"
      ]
    },
    {
      "x": 22,
      "y": 368,
      "size": 1,
      "price": "1011000000000000000000",
      "reserved": "0x7a9fe22691c811ea339d9b73150e6911a5343dca",
      "salt": "0x8f39023af67db7d168cbe25a0869a67a118b4be5f8cb53713d841fd73708ccd0",
      "assetIds": []
    },
    {
      "x": 22,
      "y": 369,
      "size": 1,
      "price": "1011000000000000000000",
      "reserved": "",
      "salt": "0xaa26e5954a7f491045842093e4fccd2efdd87b745b5d7f8e5511efbfe376a0c5",
      "assetIds": []
    },
    {
      "x": 22,
      "y": 370,
      "size": 1,
      "price": "1011000000000000000000",
      "reserved": "",
      "salt": "0x9ae2243fe5b33f3a916f6b3ae3f2c8b2f24bac8247ed2323c1bd98522d028190",
      "assetIds": []
    },
    {
      "x": 22,
      "y": 371,
      "size": 1,
      "price": "1011000000000000000000",
      "reserved": "",
      "salt": "0x3fa35f5d934c0425cbf393b4d7efd884460d3c3f0595989dbd44c20a92820e3c",
      "assetIds": []
    },
    {
      "x": 22,
      "y": 396,
      "size": 1,
      "price": "4683000000000000000000",
      "reserved": "",
      "salt": "0x721da39bc93b50ecf4ada1a5e737ba8345486b6850fef87da49f9c537df9a940",
      "assetIds": [
        "41506478881403507969696680653240014914910929820314476107906210059990541021186"
      ]
    },
    {
      "x": 22,
      "y": 397,
      "size": 1,
      "price": "4683000000000000000000",
      "reserved": "",
      "salt": "0xb8d3b9004e9ccbfa4c95235dc3a9d4b081601fb8b48b4dedea0bf8cefbd8a6fd",
      "assetIds": [
        "41506478881403507969696680653240014914910929820314476107906210059990541021186"
      ]
    },
    {
      "x": 22,
      "y": 398,
      "size": 1,
      "price": "4683000000000000000000",
      "reserved": "",
      "salt": "0x5e6abb754f1c281cb3a765171dad529f0d8d4c68b8348e6feba5d1499a079c0e",
      "assetIds": [
        "41506478881403507969696680653240014914910929820314476107906210059990541021186"
      ]
    },
    {
      "x": 22,
      "y": 399,
      "size": 1,
      "price": "4683000000000000000000",
      "reserved": "",
      "salt": "0x1ce44516f7919cc03f27327e50c1f1b0bb5d6f522784a02ac95018346f39f0a3",
      "assetIds": [
        "41506478881403507969696680653240014914910929820314476107906210059990541021186"
      ]
    },
    {
      "x": 22,
      "y": 400,
      "size": 1,
      "price": "4683000000000000000000",
      "reserved": "",
      "salt": "0x4710b800af8dc1b98abfc0997f544ca50a60d52cc8dd376330c83d15ce92ec04",
      "assetIds": [
        "41506478881403507969696680653240014914910929820314476107906210059990541021186"
      ]
    },
    {
      "x": 22,
      "y": 401,
      "size": 1,
      "price": "1011000000000000000000",
      "reserved": "",
      "salt": "0x61e2f1be855cfbbf2f80c26897b24760cfe912c22ddb4732479a8ecf2b376b16",
      "assetIds": []
    },
    {
      "x": 22,
      "y": 402,
      "size": 1,
      "price": "1011000000000000000000",
      "reserved": "0x7a9fe22691c811ea339d9b73150e6911a5343dca",
      "salt": "0xdebb03a130b5df36d89fdd77ccd0a6a3b6215d2a29caafb9e6b0360cb0d4d60c",
      "assetIds": []
    },
    {
      "x": 22,
      "y": 403,
      "size": 1,
      "price": "4683000000000000000000",
      "reserved": "",
      "salt": "0x72370f0a3965a05776f3e2a7fa6b0b7a898c63eea6e2eefecad4d58b1eafa287",
      "assetIds": [
        "41506478881403507969696680653240014914910929820314476107906210059990541021186"
      ]
    },
    {
      "x": 22,
      "y": 404,
      "size": 1,
      "price": "1011000000000000000000",
      "reserved": "0x7a9fe22691c811ea339d9b73150e6911a5343dca",
      "salt": "0x8e00927e4b838728714e3cad1835f62fe1428c755c5818a678b758d6a92841ec",
      "assetIds": []
    },
    {
      "x": 22,
      "y": 405,
      "size": 1,
      "price": "1011000000000000000000",
      "reserved": "",
      "salt": "0x669eff037a7ba050c20eb907138c80447d0aeb871ec8ea6cc9658787d22f4ec4",
      "assetIds": []
    },
    {
      "x": 22,
      "y": 406,
      "size": 1,
      "price": "1011000000000000000000",
      "reserved": "",
      "salt": "0xad2e1da04f09270471b44ca9e63486c355fc8a5ae8c961fcdf1f1dc83d5a555c",
      "assetIds": []
    },
    {
      "x": 22,
      "y": 407,
      "size": 1,
      "price": "1011000000000000000000",
      "reserved": "",
      "salt": "0xe5366e7065880232b698fb723f2558ae8b8f270a91d2b02edb4509c98940730a",
      "assetIds": []
    },
    {
      "x": 23,
      "y": 355,
      "size": 1,
      "price": "1011000000000000000000",
      "reserved": "",
      "salt": "0x33a791f86d87c7ca1c251899c7b441d1298387bc81bd15629aba87583a70e173",
      "assetIds": []
    },
    {
      "x": 23,
      "y": 356,
      "size": 1,
      "price": "1011000000000000000000",
      "reserved": "",
      "salt": "0xd8e2786c22261cb847518a31985d291c0640d43b51f416bff63c0df9da13c5b1",
      "assetIds": []
    },
    {
      "x": 23,
      "y": 357,
      "size": 1,
      "price": "1011000000000000000000",
      "reserved": "",
      "salt": "0xcbc27bf8989f14ee6f7b95f6a90b9e9cbe0fa2c8596b2383280eedd309274a9e",
      "assetIds": []
    },
    {
      "x": 23,
      "y": 358,
      "size": 1,
      "price": "1011000000000000000000",
      "reserved": "",
      "salt": "0xede3235f14398f1f87382fa81bf3b2670c93600a6f9751e6f6690e78d2018025",
      "assetIds": []
    },
    {
      "x": 23,
      "y": 359,
      "size": 1,
      "price": "1011000000000000000000",
      "reserved": "",
      "salt": "0x43f924902aa1422692208ecc054f52b6c1d12646580a8587281c2a758afd3acb",
      "assetIds": []
    },
    {
      "x": 23,
      "y": 360,
      "size": 1,
      "price": "4683000000000000000000",
      "reserved": "",
      "salt": "0x3529117854b5b852b0baef78d2b3a24f7b2fda4b227ca8a09b48e286b0633427",
      "assetIds": [
        "41506478881403507969696680653240014914910929820314476107906210059990541021186"
      ]
    },
    {
      "x": 23,
      "y": 361,
      "size": 1,
      "price": "4683000000000000000000",
      "reserved": "",
      "salt": "0x5fcb66dd583eafe2844c86ac56de1e7422c569e03fe6b51a063d9c6bdc74938e",
      "assetIds": [
        "41506478881403507969696680653240014914910929820314476107906210059990541021186"
      ]
    },
    {
      "x": 23,
      "y": 362,
      "size": 1,
      "price": "4683000000000000000000",
      "reserved": "",
      "salt": "0x489ddadb192f015f036907153faafcaa463ef5ae0a5be6ec17526f70567fc5c2",
      "assetIds": [
        "41506478881403507969696680653240014914910929820314476107906210059990541021186"
      ]
    },
    {
      "x": 23,
      "y": 366,
      "size": 1,
      "price": "4683000000000000000000",
      "reserved": "",
      "salt": "0x0e9df91580bb8f8aefe09d6d17c51ee732be87ef67455fa88aff819caa3db8d3",
      "assetIds": [
        "41506478881403507969696680653240014914910929820314476107906210059990541021186"
      ]
    },
    {
      "x": 23,
      "y": 367,
      "size": 1,
      "price": "4683000000000000000000",
      "reserved": "",
      "salt": "0x595437ceeb60085e28760f407bedc78bddba4ecc3f172b5d33f0aaf5fdedc892",
      "assetIds": [
        "41506478881403507969696680653240014914910929820314476107906210059990541021186"
      ]
    },
    {
      "x": 23,
      "y": 368,
      "size": 1,
      "price": "1011000000000000000000",
      "reserved": "",
      "salt": "0x0c336d71136574cb11efa916de4b64a40805be41baa75f88a8080ba59cb4be2c",
      "assetIds": []
    },
    {
      "x": 23,
      "y": 369,
      "size": 1,
      "price": "1011000000000000000000",
      "reserved": "",
      "salt": "0xa50ed13a6129a7012920d49957f3c2eb70a7f6af2d257304df575339784a9864",
      "assetIds": []
    },
    {
      "x": 23,
      "y": 370,
      "size": 1,
      "price": "1011000000000000000000",
      "reserved": "",
      "salt": "0x401da3bea4dbccc6c08a4f3c2f0588bf00a3470ae3ba8d4e3528e4cc0d8f7c75",
      "assetIds": []
    },
    {
      "x": 23,
      "y": 371,
      "size": 1,
      "price": "1011000000000000000000",
      "reserved": "",
      "salt": "0x72986791fa99c24da987eea953bceece2c37c2254a5966fd2881665eac6b104a",
      "assetIds": []
    },
    {
      "x": 23,
      "y": 396,
      "size": 1,
      "price": "4683000000000000000000",
      "reserved": "",
      "salt": "0x7c1a9af5a1021937fdb1556a58e4d4ebbf910c6f634d153afbdc47a10c34db1d",
      "assetIds": [
        "41506478881403507969696680653240014914910929820314476107906210059990541021186"
      ]
    },
    {
      "x": 23,
      "y": 397,
      "size": 1,
      "price": "1011000000000000000000",
      "reserved": "0x7a9fe22691c811ea339d9b73150e6911a5343dca",
      "salt": "0x94b625d17c219b19ff41a47a096a8b410d924db74849040e81031c38f6534d52",
      "assetIds": []
    },
    {
      "x": 23,
      "y": 398,
      "size": 1,
      "price": "1011000000000000000000",
      "reserved": "",
      "salt": "0xf539d5b583235cff2bdeb643652aff2b3d484969fe749a9bbf9da0bf61896ce4",
      "assetIds": []
    },
    {
      "x": 23,
      "y": 399,
      "size": 1,
      "price": "1011000000000000000000",
      "reserved": "",
      "salt": "0xd4964717a3ace7a2ac10de57c9aef2c722d16cf3d7d745a14c927639c635f639",
      "assetIds": []
    },
    {
      "x": 23,
      "y": 400,
      "size": 1,
      "price": "1011000000000000000000",
      "reserved": "",
      "salt": "0xa7a5be5cf52d8d7fa48fcc96c5c35dc31c66de4549775e434079e108000babe8",
      "assetIds": []
    },
    {
      "x": 23,
      "y": 401,
      "size": 1,
      "price": "1011000000000000000000",
      "reserved": "",
      "salt": "0xa125cf3e9981fe893397a460d0a048e2178bc3edc086bbc0e0cab1a1fbfbd346",
      "assetIds": []
    },
    {
      "x": 23,
      "y": 402,
      "size": 1,
      "price": "1011000000000000000000",
      "reserved": "",
      "salt": "0x5a02c530c06def42c8dda055b7403980bf9e12c533c87524144ae1cd744dcc3f",
      "assetIds": []
    },
    {
      "x": 23,
      "y": 403,
      "size": 1,
      "price": "1011000000000000000000",
      "reserved": "",
      "salt": "0xf75dbf6ff50761de76d0f8b1c9af91827cc5e010eaac202d8221b88917896cd7",
      "assetIds": []
    },
    {
      "x": 23,
      "y": 404,
      "size": 1,
      "price": "1011000000000000000000",
      "reserved": "",
      "salt": "0x5ad99d75a31370b7ee993dff3b86c0591b6d9daee09d694c0f32b2ba008891c7",
      "assetIds": []
    },
    {
      "x": 23,
      "y": 405,
      "size": 1,
      "price": "1011000000000000000000",
      "reserved": "",
      "salt": "0x8cebb5579ecadd7b254be6e28f5f45a4f477ef5b9987395107601a36afaf352b",
      "assetIds": []
    },
    {
      "x": 23,
      "y": 406,
      "size": 1,
      "price": "1011000000000000000000",
      "reserved": "",
      "salt": "0xbd5c94e38041c3f81bd6b0144e450296d06b2f5b0968fb44ba7fddb1e0fbda08",
      "assetIds": []
    },
    {
      "x": 23,
      "y": 407,
      "size": 1,
      "price": "1011000000000000000000",
      "reserved": "",
      "salt": "0x6b7d2d9c4a917c36bd94c26b38b40a2d4270a7e08a3975c902b8840402c2e62f",
      "assetIds": []
    },
    {
      "x": 24,
      "y": 355,
      "size": 1,
      "price": "1011000000000000000000",
      "reserved": "",
      "salt": "0x8ba1c8788be1508605b61e2bfac304ca6bea9e7c145be576c1dabe1581c90d1d",
      "assetIds": []
    },
    {
      "x": 24,
      "y": 356,
      "size": 1,
      "price": "1011000000000000000000",
      "reserved": "",
      "salt": "0x6ae84f087d8afa3899bb98ff0ed7be7a5848735c44273c9bd957f2114d81bb8c",
      "assetIds": []
    },
    {
      "x": 24,
      "y": 357,
      "size": 1,
      "price": "1011000000000000000000",
      "reserved": "",
      "salt": "0x6b04a77ff2ef632f76ca8bc5a7cdd820af9610b1f6b3d64c6458fe6ed99d643f",
      "assetIds": []
    },
    {
      "x": 24,
      "y": 358,
      "size": 1,
      "price": "1011000000000000000000",
      "reserved": "",
      "salt": "0x432a489dcf36ddb51756bc5a9d3e95b4e73335fdf4bb039614d56e9d28122471",
      "assetIds": []
    },
    {
      "x": 24,
      "y": 359,
      "size": 1,
      "price": "1011000000000000000000",
      "reserved": "",
      "salt": "0x546340fd501dc9e8143ac6d0d1201eb78a8a6036cfab0216cae977cc1888093d",
      "assetIds": []
    },
    {
      "x": 24,
      "y": 384,
      "size": 1,
      "price": "4683000000000000000000",
      "reserved": "",
      "salt": "0xe11dfb1e47290d7f4717b2a621fba4757d84b83656d1b12f703985d32b1c554c",
      "assetIds": [
        "41506478881403507969696680653240014914910929820314476107906210059990541021186"
      ]
    },
    {
      "x": 24,
      "y": 385,
      "size": 1,
      "price": "4683000000000000000000",
      "reserved": "",
      "salt": "0x772d3f9a2d822c26f3d4d69ad097dc35ae06b43ebd892c66af56ddd42ad0001d",
      "assetIds": [
        "41506478881403507969696680653240014914910929820314476107906210059990541021186"
      ]
    },
    {
      "x": 24,
      "y": 386,
      "size": 1,
      "price": "4683000000000000000000",
      "reserved": "",
      "salt": "0xb6516fb6a45e48d5b95d0be751b3878b5c5e3dd758e81f1708b633afdaeb2030",
      "assetIds": [
        "41506478881403507969696680653240014914910929820314476107906210059990541021186"
      ]
    },
    {
      "x": 24,
      "y": 387,
      "size": 1,
      "price": "4683000000000000000000",
      "reserved": "",
      "salt": "0xa9c532ee7b3fab2c374c89710e22d7795f6d10ffe204324106e856e5caa1a9b0",
      "assetIds": [
        "41506478881403507969696680653240014914910929820314476107906210059990541021186"
      ]
    },
    {
      "x": 24,
      "y": 388,
      "size": 1,
      "price": "4683000000000000000000",
      "reserved": "",
      "salt": "0x046248ecb280bf3344e042a40f1b3d7131994c661220d57f02fbdfabf906f97a",
      "assetIds": [
        "41506478881403507969696680653240014914910929820314476107906210059990541021186"
      ]
    },
    {
      "x": 24,
      "y": 389,
      "size": 1,
      "price": "4683000000000000000000",
      "reserved": "",
      "salt": "0x45f172da535d48853e6bcabc04dba3a6834e3bad2345ca10372c06214d4f754b",
      "assetIds": [
        "41506478881403507969696680653240014914910929820314476107906210059990541021186"
      ]
    },
    {
      "x": 24,
      "y": 390,
      "size": 1,
      "price": "4683000000000000000000",
      "reserved": "",
      "salt": "0xc42e32ab656253d4703be14f5b405d3d30c6494aaeae83e1776dbc06a4c77c08",
      "assetIds": [
        "41506478881403507969696680653240014914910929820314476107906210059990541021186"
      ]
    },
    {
      "x": 24,
      "y": 391,
      "size": 1,
      "price": "4683000000000000000000",
      "reserved": "",
      "salt": "0xb7f8494d9fded678880fed2de73fafc14379af9a04ee40bcbc41c46bc5cba40b",
      "assetIds": [
        "41506478881403507969696680653240014914910929820314476107906210059990541021186"
      ]
    },
    {
      "x": 24,
      "y": 392,
      "size": 1,
      "price": "4683000000000000000000",
      "reserved": "",
      "salt": "0x2b0056f7e3697a2708324f66f7f1c8ca29cd160bdef152c85fda850b1097955a",
      "assetIds": [
        "41506478881403507969696680653240014914910929820314476107906210059990541021186"
      ]
    },
    {
      "x": 24,
      "y": 393,
      "size": 1,
      "price": "4683000000000000000000",
      "reserved": "",
      "salt": "0xd14e5838e42ab9b5a36a32fcdf888ba03a0eb949abad573f1dcc6028681b3efd",
      "assetIds": [
        "41506478881403507969696680653240014914910929820314476107906210059990541021186"
      ]
    },
    {
      "x": 24,
      "y": 394,
      "size": 1,
      "price": "4683000000000000000000",
      "reserved": "",
      "salt": "0xa0944e19bca6b9ec4ab2bf19f79d91f69b7f86824b32da39c988044ceb722f65",
      "assetIds": [
        "41506478881403507969696680653240014914910929820314476107906210059990541021186"
      ]
    },
    {
      "x": 24,
      "y": 395,
      "size": 1,
      "price": "4683000000000000000000",
      "reserved": "",
      "salt": "0x46df2a57002e824655458f53ac13655e4c734ce37238801144f51ad36cb5ca75",
      "assetIds": [
        "41506478881403507969696680653240014914910929820314476107906210059990541021186"
      ]
    },
    {
      "x": 24,
      "y": 396,
      "size": 1,
      "price": "1011000000000000000000",
      "reserved": "",
      "salt": "0x9ccdd9b683889c25aa3de11be91c9b6e0eddff551f543dd3cc39747af0ac02a6",
      "assetIds": []
    },
    {
      "x": 24,
      "y": 397,
      "size": 1,
      "price": "1011000000000000000000",
      "reserved": "",
      "salt": "0xd156e35f7a15aa69ba795e0821cb77398a104d89606f696ed8939e29015c167b",
      "assetIds": []
    },
    {
      "x": 24,
      "y": 398,
      "size": 1,
      "price": "1011000000000000000000",
      "reserved": "",
      "salt": "0xb0cf23e7ecb4f8b2a55c2509d27659095a69370783b27a5813d8267080af092f",
      "assetIds": []
    },
    {
      "x": 24,
      "y": 399,
      "size": 1,
      "price": "1011000000000000000000",
      "reserved": "",
      "salt": "0x329b281ae8a810c47e5ede49c4a4824d256a83266d3eb627f488b8d425389448",
      "assetIds": []
    },
    {
      "x": 24,
      "y": 400,
      "size": 1,
      "price": "1011000000000000000000",
      "reserved": "",
      "salt": "0xea7e0fb13d81c365a05d7d734f7a45829cdbf9f3b49688a12b3d1cde889eab42",
      "assetIds": []
    },
    {
      "x": 24,
      "y": 401,
      "size": 1,
      "price": "1011000000000000000000",
      "reserved": "",
      "salt": "0x05c91ae11939ea6e258118068b52082725d44b9deb4d939484d828826a37c3da",
      "assetIds": []
    },
    {
      "x": 24,
      "y": 402,
      "size": 1,
      "price": "1011000000000000000000",
      "reserved": "",
      "salt": "0xd15424f59b943cf12663be8e0b6868218b8bc1c1bd2b189afd770dc7dd92c218",
      "assetIds": []
    },
    {
      "x": 24,
      "y": 403,
      "size": 1,
      "price": "1011000000000000000000",
      "reserved": "",
      "salt": "0xf924ed189154b450ed7e7f9e2bf3c0bb9ec6febc941b7ea64186fe1a9a8c1061",
      "assetIds": []
    },
    {
      "x": 24,
      "y": 404,
      "size": 1,
      "price": "1011000000000000000000",
      "reserved": "",
      "salt": "0x17330a300a5eaa6810dfb0885db23b49f88877954c9066fdcfafab12d580e866",
      "assetIds": []
    },
    {
      "x": 24,
      "y": 405,
      "size": 1,
      "price": "1011000000000000000000",
      "reserved": "",
      "salt": "0xb6fddae655e81da67044e86951e8e41cb492d6df2b086dd2e805aa4bdea89436",
      "assetIds": []
    },
    {
      "x": 24,
      "y": 406,
      "size": 1,
      "price": "1011000000000000000000",
      "reserved": "",
      "salt": "0x1c51dba6506f408579056ca9f2a796d1e2c8aba9b1b1bae7ea00814fbacec039",
      "assetIds": []
    },
    {
      "x": 24,
      "y": 407,
      "size": 1,
      "price": "1011000000000000000000",
      "reserved": "",
      "salt": "0xfc51889db0c925e73a5abdbcfced79afcca95f0698a60e4fccca455675cc69c2",
      "assetIds": []
    },
    {
      "x": 25,
      "y": 346,
      "size": 1,
      "price": "1011000000000000000000",
      "reserved": "",
      "salt": "0xd2ba139ae66699e100b4c081109baddbfb91321e3a3126eb290fd7e1706e2708",
      "assetIds": []
    },
    {
      "x": 25,
      "y": 347,
      "size": 1,
      "price": "1011000000000000000000",
      "reserved": "0x7a9fe22691c811ea339d9b73150e6911a5343dca",
      "salt": "0x78e033bc22a46366358da5410ab8ffd2dedfd2c328bc06ee75cd84fca8bc80c6",
      "assetIds": []
    },
    {
      "x": 25,
      "y": 355,
      "size": 1,
      "price": "1011000000000000000000",
      "reserved": "",
      "salt": "0xf063dff3dca6c08f79c1b3697f492de6be9c7a25a4a7771e27875df541149858",
      "assetIds": []
    },
    {
      "x": 25,
      "y": 356,
      "size": 1,
      "price": "1011000000000000000000",
      "reserved": "",
      "salt": "0x3194fbc3dbf958e2ff5591bf5a41797aedc59810a6bf6ee398963f3ab1ac9c16",
      "assetIds": []
    },
    {
      "x": 25,
      "y": 357,
      "size": 1,
      "price": "1011000000000000000000",
      "reserved": "",
      "salt": "0xeb65e6e44895cd89dbd8c87b368d9fc8c6f8b5031c631f9f9d72ff9726b2aedc",
      "assetIds": []
    },
    {
      "x": 25,
      "y": 358,
      "size": 1,
      "price": "1011000000000000000000",
      "reserved": "",
      "salt": "0x6785d185e9b1f7b3657e63289e39ba5856a68c762b218cd4165fba32e09df4c5",
      "assetIds": []
    },
    {
      "x": 25,
      "y": 359,
      "size": 1,
      "price": "1011000000000000000000",
      "reserved": "",
      "salt": "0x7bf55b738853f392ae3eeabeed96da11a13ac4b5271336a96a32bc81568ae9eb",
      "assetIds": []
    },
    {
      "x": 25,
      "y": 384,
      "size": 1,
      "price": "4683000000000000000000",
      "reserved": "",
      "salt": "0x2de47ef3796a5c077be9825705ca4e178967b5f110e78c87106180f7fdc6bd19",
      "assetIds": [
        "41506478881403507969696680653240014914910929820314476107906210059990541021186"
      ]
    },
    {
      "x": 25,
      "y": 385,
      "size": 1,
      "price": "4683000000000000000000",
      "reserved": "",
      "salt": "0x5ac966f9d8bd16e35e67c3b8ad168e26467014f615440ef6e1854c1ebe833a67",
      "assetIds": [
        "41506478881403507969696680653240014914910929820314476107906210059990541021186"
      ]
    },
    {
      "x": 25,
      "y": 386,
      "size": 1,
      "price": "4683000000000000000000",
      "reserved": "",
      "salt": "0xe417160e83dd928daa92540656adcea29d7049f28b313bd84df297f839fd5d41",
      "assetIds": [
        "41506478881403507969696680653240014914910929820314476107906210059990541021186"
      ]
    },
    {
      "x": 25,
      "y": 387,
      "size": 1,
      "price": "4683000000000000000000",
      "reserved": "",
      "salt": "0xe16a4d15ce327b5babe35f21940633b796a966de84f7e01c99e3fed347ba006d",
      "assetIds": [
        "41506478881403507969696680653240014914910929820314476107906210059990541021186"
      ]
    },
    {
      "x": 25,
      "y": 388,
      "size": 1,
      "price": "1011000000000000000000",
      "reserved": "0x7a9fe22691c811ea339d9b73150e6911a5343dca",
      "salt": "0xbf79f9acb8516582b82423614ba8c4b4e872d119f471ba497d8b35ac60b70e63",
      "assetIds": []
    },
    {
      "x": 25,
      "y": 389,
      "size": 1,
      "price": "4683000000000000000000",
      "reserved": "",
      "salt": "0xe70b0651ce0fe4e3c35ba69e8050c7ba592884eccb72772b19154d8d4d45faa0",
      "assetIds": [
        "41506478881403507969696680653240014914910929820314476107906210059990541021186"
      ]
    },
    {
      "x": 25,
      "y": 390,
      "size": 1,
      "price": "4683000000000000000000",
      "reserved": "",
      "salt": "0x1bc0a1c7e0107c0d442541d1ff912fb6a420fe50619caedf35681dafefc185e9",
      "assetIds": [
        "41506478881403507969696680653240014914910929820314476107906210059990541021186"
      ]
    },
    {
      "x": 25,
      "y": 391,
      "size": 1,
      "price": "1011000000000000000000",
      "reserved": "0x7a9fe22691c811ea339d9b73150e6911a5343dca",
      "salt": "0x516383f728610ee7654ea0713291df9800ad2653dc05b9f7e2ef03c08bb3e063",
      "assetIds": []
    },
    {
      "x": 25,
      "y": 392,
      "size": 1,
      "price": "1011000000000000000000",
      "reserved": "0x7a9fe22691c811ea339d9b73150e6911a5343dca",
      "salt": "0x7f02f2336e9da4d87d4ea89bf9f738bf91433da356bf70cddf7d703500001437",
      "assetIds": []
    },
    {
      "x": 25,
      "y": 393,
      "size": 1,
      "price": "4683000000000000000000",
      "reserved": "",
      "salt": "0x184ef28572aec059324b9a5dcb42114ff4e1abb081607202c9c3708bebab9f86",
      "assetIds": [
        "41506478881403507969696680653240014914910929820314476107906210059990541021186"
      ]
    },
    {
      "x": 25,
      "y": 394,
      "size": 1,
      "price": "4683000000000000000000",
      "reserved": "",
      "salt": "0xeb83b1552e6f147b5a7d0bc43abd503cbf0f4ed06e7f675f8f75f5bda7bcc9c3",
      "assetIds": [
        "41506478881403507969696680653240014914910929820314476107906210059990541021186"
      ]
    },
    {
      "x": 25,
      "y": 395,
      "size": 1,
      "price": "4683000000000000000000",
      "reserved": "",
      "salt": "0xec9c439e4bd60c2ca98e9f7f586dc16ea4ab5c9b4e93174bf58f41f23372f03b",
      "assetIds": [
        "41506478881403507969696680653240014914910929820314476107906210059990541021186"
      ]
    },
    {
      "x": 25,
      "y": 396,
      "size": 1,
      "price": "1011000000000000000000",
      "reserved": "0x7a9fe22691c811ea339d9b73150e6911a5343dca",
      "salt": "0xbe59abe5efc2627f9de4cf2efa12ae589c1ba2f48df3361057bcc338b1b9adb7",
      "assetIds": []
    },
    {
      "x": 25,
      "y": 397,
      "size": 1,
      "price": "1011000000000000000000",
      "reserved": "",
      "salt": "0xc3f1a40706dead3df19a7918ea8d9b86f5d5633d92e2d5f1a0295bdd27c11907",
      "assetIds": []
    },
    {
      "x": 25,
      "y": 398,
      "size": 1,
      "price": "1011000000000000000000",
      "reserved": "",
      "salt": "0x42c915e534e8363dc786542a9eb3a196ad3ae8a2c28ec43d54e7667cfce40559",
      "assetIds": []
    },
    {
      "x": 25,
      "y": 399,
      "size": 1,
      "price": "1011000000000000000000",
      "reserved": "",
      "salt": "0x54d9ecb6e6c9ac1c0414e7b493dd38aa9037576723967b723ea19394a34bb6d8",
      "assetIds": []
    },
    {
      "x": 25,
      "y": 400,
      "size": 1,
      "price": "1011000000000000000000",
      "reserved": "",
      "salt": "0xf60c1ad548eee86e7c9b3194a73450d744423ad95bfdc16cd55b2f8bc3e9f356",
      "assetIds": []
    },
    {
      "x": 25,
      "y": 401,
      "size": 1,
      "price": "1011000000000000000000",
      "reserved": "",
      "salt": "0xb7cd562870a1d10d7721daa1daa3445ebd4d257f374e5957f781b25efd93f1f0",
      "assetIds": []
    },
    {
      "x": 25,
      "y": 402,
      "size": 1,
      "price": "1011000000000000000000",
      "reserved": "",
      "salt": "0x931bc630dfa4e0dfa1d2269a14fd671fd69e2ac58cfe45a0e01099d8e2e9162e",
      "assetIds": []
    },
    {
      "x": 25,
      "y": 403,
      "size": 1,
      "price": "1011000000000000000000",
      "reserved": "",
      "salt": "0xf09a884110202fca5f02d56035ae4faf01c6d43a7472b916997d349281710d33",
      "assetIds": []
    },
    {
      "x": 25,
      "y": 404,
      "size": 1,
      "price": "1011000000000000000000",
      "reserved": "",
      "salt": "0x59d68cd63b290b69115d65bdb02fc522b74c6fe722f06e83960c53778cfbe2c3",
      "assetIds": []
    },
    {
      "x": 25,
      "y": 405,
      "size": 1,
      "price": "1011000000000000000000",
      "reserved": "0x7a9fe22691c811ea339d9b73150e6911a5343dca",
      "salt": "0x238bcba04b4f0a909d158faffabb879746b88975081643c145ae2a8c5e14615e",
      "assetIds": []
    },
    {
      "x": 25,
      "y": 406,
      "size": 1,
      "price": "1011000000000000000000",
      "reserved": "",
      "salt": "0x0525a973fb0fa2f8e793fbc4e2663e7eb32e1297fb65a29f59db5625cfa4e1aa",
      "assetIds": []
    },
    {
      "x": 25,
      "y": 407,
      "size": 1,
      "price": "1011000000000000000000",
      "reserved": "",
      "salt": "0x64b000245232ca1c7c58f5d42d3c073c122bff82f129e59a8a7305fcee353c7a",
      "assetIds": []
    },
    {
      "x": 26,
      "y": 346,
      "size": 1,
      "price": "1011000000000000000000",
      "reserved": "",
      "salt": "0x629b2a01408682baf70d3a7199bf7d49f5a9158e4ba95aac51d527cdcaceb69f",
      "assetIds": []
    },
    {
      "x": 26,
      "y": 347,
      "size": 1,
      "price": "1011000000000000000000",
      "reserved": "",
      "salt": "0xaa18bbb51d9432e24cd1de72ed60d6359574b981ca91bc67c886b6ecc7822aa3",
      "assetIds": []
    },
    {
      "x": 26,
      "y": 348,
      "size": 1,
      "price": "1011000000000000000000",
      "reserved": "",
      "salt": "0xa636464443dc8318d730c98706bd22e5723ae8119f55da287f55e7067f2efada",
      "assetIds": []
    },
    {
      "x": 26,
      "y": 349,
      "size": 1,
      "price": "1011000000000000000000",
      "reserved": "",
      "salt": "0x1c5d20724126b6d8773e27f614dbf2753251ed64f0fa1f2de48d810fa30d260b",
      "assetIds": []
    },
    {
      "x": 26,
      "y": 350,
      "size": 1,
      "price": "1011000000000000000000",
      "reserved": "",
      "salt": "0xc4ce5da2fd79ce882353cb3edba8b3c9dc2a8b840763e4475f274eee6dc6131a",
      "assetIds": []
    },
    {
      "x": 26,
      "y": 351,
      "size": 1,
      "price": "1011000000000000000000",
      "reserved": "0x7a9fe22691c811ea339d9b73150e6911a5343dca",
      "salt": "0xf13c3cb7606c613651c08c5f6106c045ed4611277b7f2229ed7bc6f3d6d83bb8",
      "assetIds": []
    },
    {
      "x": 26,
      "y": 352,
      "size": 1,
      "price": "1011000000000000000000",
      "reserved": "",
      "salt": "0x9b057ba77da718babadacffd1d9426e5cde37330dac4cd7a47ea60726c4db98e",
      "assetIds": []
    },
    {
      "x": 26,
      "y": 353,
      "size": 1,
      "price": "1011000000000000000000",
      "reserved": "0x7a9fe22691c811ea339d9b73150e6911a5343dca",
      "salt": "0xfd18e2ba62b1396375a9e83a1932ede9117a709c0460c3216e9021903d49b05a",
      "assetIds": []
    },
    {
      "x": 26,
      "y": 354,
      "size": 1,
      "price": "1011000000000000000000",
      "reserved": "",
      "salt": "0xf9ed3056d31637131a9e0829e3173a009ebf7458a6557f0a7cda9cd3293a5a80",
      "assetIds": []
    },
    {
      "x": 26,
      "y": 355,
      "size": 1,
      "price": "1011000000000000000000",
      "reserved": "",
      "salt": "0xe5bfc098199c65b96ff64d177efba159e147dc986fe565c9099bb26564514c60",
      "assetIds": []
    },
    {
      "x": 26,
      "y": 356,
      "size": 1,
      "price": "1011000000000000000000",
      "reserved": "",
      "salt": "0x0343d1412d2f1cc47db79e9e1151b6c61efe54a0f26738798f3e7efe5c02c8d3",
      "assetIds": []
    },
    {
      "x": 26,
      "y": 357,
      "size": 1,
      "price": "1011000000000000000000",
      "reserved": "",
      "salt": "0x108d550ca9bd39272f611a7368d87704d8fe4c1de1a02b70f69848372d062094",
      "assetIds": []
    },
    {
      "x": 26,
      "y": 358,
      "size": 1,
      "price": "1011000000000000000000",
      "reserved": "0x7a9fe22691c811ea339d9b73150e6911a5343dca",
      "salt": "0x9263597fbffa409e68a6549fa53fb92cbb3b62b95900167243aacb50c1f5e8e8",
      "assetIds": []
    },
    {
      "x": 26,
      "y": 359,
      "size": 1,
      "price": "1011000000000000000000",
      "reserved": "",
      "salt": "0xf46959d73f8446797bf34699a0ab2190855e5fe356df83ffcf9705ef438ca1ed",
      "assetIds": []
    },
    {
      "x": 26,
      "y": 384,
      "size": 1,
      "price": "1011000000000000000000",
      "reserved": "",
      "salt": "0x7d585a6448791c7c6e4fb4cd4392528267977a3e4ad34d4238c1fad8e01cd23a",
      "assetIds": []
    },
    {
      "x": 26,
      "y": 385,
      "size": 1,
      "price": "1011000000000000000000",
      "reserved": "",
      "salt": "0x64b675fd59de264ea233aac6705dab14440b3b697aacdd8edccfde830ef0a6ea",
      "assetIds": []
    },
    {
      "x": 26,
      "y": 386,
      "size": 1,
      "price": "1011000000000000000000",
      "reserved": "",
      "salt": "0x94bc9c097c47ca80b85fcc18b5892b0624e5932982a2169a7e2bd43d689a7d79",
      "assetIds": []
    },
    {
      "x": 26,
      "y": 387,
      "size": 1,
      "price": "1011000000000000000000",
      "reserved": "",
      "salt": "0x92bfead8cb070c7b4a632ce974e0a3a4c45c5db4a9848b3fe53715af21a74c68",
      "assetIds": []
    },
    {
      "x": 26,
      "y": 388,
      "size": 1,
      "price": "1011000000000000000000",
      "reserved": "",
      "salt": "0x8fb387102df2d4c50d61286950908e9903ff36f0c9d7f1048740b81722594423",
      "assetIds": []
    },
    {
      "x": 26,
      "y": 389,
      "size": 1,
      "price": "1011000000000000000000",
      "reserved": "",
      "salt": "0xc8a400fe2352969514448c6bfb79cfb6970b50eeb5dd68c3ba5820d216cee57c",
      "assetIds": []
    },
    {
      "x": 26,
      "y": 390,
      "size": 1,
      "price": "4683000000000000000000",
      "reserved": "",
      "salt": "0x0a8252289893ec108140388a28250f935af3b39d34b9886411a5fb06e41f538c",
      "assetIds": [
        "41506478881403507969696680653240014914910929820314476107906210059990541021186"
      ]
    },
    {
      "x": 26,
      "y": 391,
      "size": 1,
      "price": "4683000000000000000000",
      "reserved": "",
      "salt": "0x3315dbf261208e0ee252f62db4643b4ea113fe819432575a53f7b4a58b0cbd6d",
      "assetIds": [
        "41506478881403507969696680653240014914910929820314476107906210059990541021186"
      ]
    },
    {
      "x": 26,
      "y": 392,
      "size": 1,
      "price": "4683000000000000000000",
      "reserved": "",
      "salt": "0x6a320754993c37a1d3bf5156b5a8dda4f78cc15fb86201e816e7d14c9d02c6a0",
      "assetIds": [
        "41506478881403507969696680653240014914910929820314476107906210059990541021186"
      ]
    },
    {
      "x": 26,
      "y": 393,
      "size": 1,
      "price": "4683000000000000000000",
      "reserved": "",
      "salt": "0xcb9437be26886e5adf4f9570b96f9de1205c975898596cb9953c308ced036d45",
      "assetIds": [
        "41506478881403507969696680653240014914910929820314476107906210059990541021186"
      ]
    },
    {
      "x": 26,
      "y": 394,
      "size": 1,
      "price": "4683000000000000000000",
      "reserved": "",
      "salt": "0x10783666850db80935e01f1ef2762237c9305d1304d5d5a9e547efde09ec7550",
      "assetIds": [
        "41506478881403507969696680653240014914910929820314476107906210059990541021186"
      ]
    },
    {
      "x": 26,
      "y": 395,
      "size": 1,
      "price": "4683000000000000000000",
      "reserved": "",
      "salt": "0x7d438c9a39be602e0739e687768c51524f4bda9bde7ad86caeec731638ba7159",
      "assetIds": [
        "41506478881403507969696680653240014914910929820314476107906210059990541021186"
      ]
    },
    {
      "x": 26,
      "y": 396,
      "size": 1,
      "price": "1011000000000000000000",
      "reserved": "",
      "salt": "0x849e31775906c3b0a9ad91867124f9157d58017aaa5861b7173935db931931f7",
      "assetIds": []
    },
    {
      "x": 26,
      "y": 397,
      "size": 1,
      "price": "1011000000000000000000",
      "reserved": "",
      "salt": "0xcb3ec901af1b7b0f1a03a82aaf2b71c48b561e9caef436eaaa5bbc74d65c7ba2",
      "assetIds": []
    },
    {
      "x": 26,
      "y": 398,
      "size": 1,
      "price": "1011000000000000000000",
      "reserved": "",
      "salt": "0x4f2a7da0c479f388a3ddf58603c886cc73f537c772946be8e9d3f53773ffa179",
      "assetIds": []
    },
    {
      "x": 26,
      "y": 399,
      "size": 1,
      "price": "1011000000000000000000",
      "reserved": "",
      "salt": "0x2c304455e171cea88c360d569addc75ffefc6d26a64c9cf7576638b7c9c310ae",
      "assetIds": []
    },
    {
      "x": 26,
      "y": 400,
      "size": 1,
      "price": "1011000000000000000000",
      "reserved": "",
      "salt": "0x9ccc2af8de221f59f4f2fcdf21c28075ab50ade2fee12e581410c2cd33e98693",
      "assetIds": []
    },
    {
      "x": 26,
      "y": 401,
      "size": 1,
      "price": "1011000000000000000000",
      "reserved": "",
      "salt": "0x94577fbfe843b777afa6f0f110dea5ea0a43533b935ee1e99200fa46e0fbaea5",
      "assetIds": []
    },
    {
      "x": 26,
      "y": 402,
      "size": 1,
      "price": "1011000000000000000000",
      "reserved": "",
      "salt": "0x489c7ad8984cb6d506bdc55722d43d1e649f362242d4dcea5a94a7941d218ad0",
      "assetIds": []
    },
    {
      "x": 26,
      "y": 403,
      "size": 1,
      "price": "1011000000000000000000",
      "reserved": "",
      "salt": "0x85a79df997274e8bc78b64619b93c2410f16cee8e08ba0a8b315067813b95f11",
      "assetIds": []
    },
    {
      "x": 26,
      "y": 404,
      "size": 1,
      "price": "1011000000000000000000",
      "reserved": "",
      "salt": "0xa844c1f629de264cb301b47b3744bcaef59b880b543a0fbc23ab9d6c295f8712",
      "assetIds": []
    },
    {
      "x": 26,
      "y": 405,
      "size": 1,
      "price": "1011000000000000000000",
      "reserved": "",
      "salt": "0x17459a0c5576c72f0f45e8bdbc4e39b6f8500f50bbc32006be1af68d5867976f",
      "assetIds": []
    },
    {
      "x": 26,
      "y": 406,
      "size": 1,
      "price": "1011000000000000000000",
      "reserved": "",
      "salt": "0xd0edb4c9b1a3904bfc0bc01dfe37201668d778be01fd1e9b94e76ed754ef1a9e",
      "assetIds": []
    },
    {
      "x": 26,
      "y": 407,
      "size": 1,
      "price": "1011000000000000000000",
      "reserved": "",
      "salt": "0x3ab287d0327bf0aa870925234b954b28e7644bd1b16e00fe52c67c7cbf4c3f4c",
      "assetIds": []
    },
    {
      "x": 27,
      "y": 346,
      "size": 1,
      "price": "1011000000000000000000",
      "reserved": "0x7a9fe22691c811ea339d9b73150e6911a5343dca",
      "salt": "0x99a59221983f6c9a10f147e42f3477c04b6e2a90880dc4a02010fee8dd3ea1f0",
      "assetIds": []
    },
    {
      "x": 27,
      "y": 347,
      "size": 1,
      "price": "1011000000000000000000",
      "reserved": "",
      "salt": "0x392ea467adcf97a0fc6db76f71c28a651df247d69e432b1daed3a338278f0f94",
      "assetIds": []
    },
    {
      "x": 27,
      "y": 348,
      "size": 1,
      "price": "1011000000000000000000",
      "reserved": "",
      "salt": "0x03e8c78612f061028881825552859a9ece47072da47e365037b8c8faea9d76a9",
      "assetIds": []
    },
    {
      "x": 27,
      "y": 349,
      "size": 1,
      "price": "1011000000000000000000",
      "reserved": "",
      "salt": "0xdc83188f691508332699a8ad9c4b46dbfc8b586142ca4fe2fcb2b7d0a205df8f",
      "assetIds": []
    },
    {
      "x": 27,
      "y": 350,
      "size": 1,
      "price": "1011000000000000000000",
      "reserved": "",
      "salt": "0x2a459c77b790aa6d7ccc886a212d956577355e50e55f6555430d04ab10081919",
      "assetIds": []
    },
    {
      "x": 27,
      "y": 351,
      "size": 1,
      "price": "1011000000000000000000",
      "reserved": "",
      "salt": "0x2e9c105a1f071de1f5cbbdbdffb777772f50c609785bf206404e5ce9ce98649d",
      "assetIds": []
    },
    {
      "x": 27,
      "y": 352,
      "size": 1,
      "price": "1011000000000000000000",
      "reserved": "",
      "salt": "0xc96321ad807b2f94f14e80bbc70d54e4c777156139b524f888be7f2e0de1611f",
      "assetIds": []
    },
    {
      "x": 27,
      "y": 353,
      "size": 1,
      "price": "1011000000000000000000",
      "reserved": "",
      "salt": "0x546f3eabc899d01f32da1acd28eb0e39cb81953ecd9171bb8cc843483d57b31c",
      "assetIds": []
    },
    {
      "x": 27,
      "y": 354,
      "size": 1,
      "price": "1011000000000000000000",
      "reserved": "",
      "salt": "0x0853481342637795fa8ca85a0c0f837ab26cd86ab2d115a1a6d5953aaf5adf06",
      "assetIds": []
    },
    {
      "x": 27,
      "y": 355,
      "size": 1,
      "price": "1011000000000000000000",
      "reserved": "",
      "salt": "0x65efe0226707bedc5ffe1cef9e01a7182ab126073e27822d9a6cdfd3ee625d4c",
      "assetIds": []
    },
    {
      "x": 27,
      "y": 356,
      "size": 1,
      "price": "1011000000000000000000",
      "reserved": "",
      "salt": "0x1aaacbc73ad341ec874ec46fe2554a51785354ab02a674f2ab9f04e3061a34ba",
      "assetIds": []
    },
    {
      "x": 27,
      "y": 357,
      "size": 1,
      "price": "1011000000000000000000",
      "reserved": "",
      "salt": "0x6918a41d7df12ecf0872f2e381b0f0422ab6b29d62e26325eb7c796a7360a114",
      "assetIds": []
    },
    {
      "x": 27,
      "y": 358,
      "size": 1,
      "price": "1011000000000000000000",
      "reserved": "",
      "salt": "0xfa15f33ef059f138d9c2f0bf7af3f96ad39f2f611c94b24b5622df01d3cffa50",
      "assetIds": []
    },
    {
      "x": 27,
      "y": 359,
      "size": 1,
      "price": "1011000000000000000000",
      "reserved": "",
      "salt": "0xcc978467c555e957dc7c74c92f70f18f1876a3c4b5ba65cd870f8f4c7adf0a75",
      "assetIds": []
    },
    {
      "x": 27,
      "y": 384,
      "size": 1,
      "price": "1011000000000000000000",
      "reserved": "",
      "salt": "0x6419968ab28465172a179ecb63c1289dc8f43dd9ceaa0a066dfbf934d61dc1e0",
      "assetIds": []
    },
    {
      "x": 27,
      "y": 385,
      "size": 1,
      "price": "1011000000000000000000",
      "reserved": "",
      "salt": "0x847ed89bbf91cf8e82a65d943534a86624edd3160cb999948a8a2912e70fac77",
      "assetIds": []
    },
    {
      "x": 27,
      "y": 386,
      "size": 1,
      "price": "1011000000000000000000",
      "reserved": "",
      "salt": "0xdb64268c1ae9b9aff5f5acce088874f9214cadabf1328a2cd2c661d9f2456ed7",
      "assetIds": []
    },
    {
      "x": 27,
      "y": 387,
      "size": 1,
      "price": "1011000000000000000000",
      "reserved": "",
      "salt": "0x63ee7410b9014cd56e962e56058f724ee4ffaa5b4a0d752a2531d2bcd1028f14",
      "assetIds": []
    },
    {
      "x": 27,
      "y": 388,
      "size": 1,
      "price": "1011000000000000000000",
      "reserved": "",
      "salt": "0x23a229a5c16d08d4d5501f28f86bca013ff75230428592bd07c1a73d73c7cd78",
      "assetIds": []
    },
    {
      "x": 27,
      "y": 389,
      "size": 1,
      "price": "1011000000000000000000",
      "reserved": "",
      "salt": "0x67a88cfb613946ff41fa08d04cc3369acb818437ad6e9ca1ba1e48f6a81e3f3c",
      "assetIds": []
    },
    {
      "x": 27,
      "y": 390,
      "size": 1,
      "price": "1011000000000000000000",
      "reserved": "",
      "salt": "0xe38e73365ee41acd2831739e26fc300c87899c4f0dabce58eecaee73f8393194",
      "assetIds": []
    },
    {
      "x": 27,
      "y": 391,
      "size": 1,
      "price": "1011000000000000000000",
      "reserved": "",
      "salt": "0xf89492aea105e5b72e4f6454b29bb95853bdafd47ce6dd5fbef74d5570d094b0",
      "assetIds": []
    },
    {
      "x": 27,
      "y": 392,
      "size": 1,
      "price": "1011000000000000000000",
      "reserved": "",
      "salt": "0x666fb418ff7ef3a1c6edefd190a59bdcf8226c8d81be8cad27d74a86845aef81",
      "assetIds": []
    },
    {
      "x": 27,
      "y": 393,
      "size": 1,
      "price": "1011000000000000000000",
      "reserved": "",
      "salt": "0x61b5714de65dde230a2dc30bb2d8dbcd9c14bc0033d657ff20f0b9b1a340c2ba",
      "assetIds": []
    },
    {
      "x": 27,
      "y": 394,
      "size": 1,
      "price": "1011000000000000000000",
      "reserved": "",
      "salt": "0x72d629230e718cae70a168ff70e78a7201d23693d9019f13f56b27de16adea85",
      "assetIds": []
    },
    {
      "x": 27,
      "y": 395,
      "size": 1,
      "price": "1011000000000000000000",
      "reserved": "",
      "salt": "0x20f889d419dc4bd67d966268fb442a6d193556b1f326ca8e2d13634d02fa1368",
      "assetIds": []
    },
    {
      "x": 27,
      "y": 396,
      "size": 1,
      "price": "1011000000000000000000",
      "reserved": "",
      "salt": "0x52df085307868a95da8dfc2a4b9feaad2aa96c5c78af9a584ab4af67a1f85b4d",
      "assetIds": []
    },
    {
      "x": 27,
      "y": 397,
      "size": 1,
      "price": "1011000000000000000000",
      "reserved": "",
      "salt": "0x3ac27d18bd287777e267a325242c4d54835ac28d27aaae64e64b0e980efe80a0",
      "assetIds": []
    },
    {
      "x": 27,
      "y": 398,
      "size": 1,
      "price": "1011000000000000000000",
      "reserved": "",
      "salt": "0xe77ce08b82942cb1a2cfec18e8db6f7758fd9c579208e6abf688fd045ba70a95",
      "assetIds": []
    },
    {
      "x": 27,
      "y": 399,
      "size": 1,
      "price": "1011000000000000000000",
      "reserved": "",
      "salt": "0xd4c6d0d5a81a555e9b09e45d4316c8cede4d06f0fea0c5c57ef992c027543ca3",
      "assetIds": []
    },
    {
      "x": 27,
      "y": 400,
      "size": 1,
      "price": "1011000000000000000000",
      "reserved": "",
      "salt": "0x39bb48746362d0063048179a253d20901bf8a50df1ece70a2863ca45f25c60bd",
      "assetIds": []
    },
    {
      "x": 27,
      "y": 401,
      "size": 1,
      "price": "1011000000000000000000",
      "reserved": "",
      "salt": "0x6860e19332701a710dfd0229f14fc50d8f477d7c0b269aca1a4310e31940feb9",
      "assetIds": []
    },
    {
      "x": 27,
      "y": 402,
      "size": 1,
      "price": "1011000000000000000000",
      "reserved": "",
      "salt": "0xba43650cf94dd558c2d447bc2b72c74c6d3d3d96ac9fa19a116bc973b5c97b76",
      "assetIds": []
    },
    {
      "x": 27,
      "y": 403,
      "size": 1,
      "price": "1011000000000000000000",
      "reserved": "",
      "salt": "0x2b3689e49141db35adc78afdef97e7e98ce68a0a0461d3fcfa862a639036e932",
      "assetIds": []
    },
    {
      "x": 27,
      "y": 404,
      "size": 1,
      "price": "1011000000000000000000",
      "reserved": "",
      "salt": "0x50cadfda08f55ba75e2fe83ee95dd264daaff467393aa52d35c684c0de05e6cf",
      "assetIds": []
    },
    {
      "x": 27,
      "y": 405,
      "size": 1,
      "price": "1011000000000000000000",
      "reserved": "",
      "salt": "0xb5ffdcc02134d27f15a04ad811cf413cd90931ae5d2329cd5dc227105a289fbd",
      "assetIds": []
    },
    {
      "x": 27,
      "y": 406,
      "size": 1,
      "price": "1011000000000000000000",
      "reserved": "",
      "salt": "0xd9560256e747f5b49df74653851817388bfefd3acc439ec5a3f5820faac5ccfa",
      "assetIds": []
    },
    {
      "x": 27,
      "y": 407,
      "size": 1,
      "price": "1011000000000000000000",
      "reserved": "",
      "salt": "0x2a97b847e07c3410787c82b12f69fcd38b52121ab26d442b2fe05341d08365e9",
      "assetIds": []
    },
    {
      "x": 28,
      "y": 346,
      "size": 1,
      "price": "1011000000000000000000",
      "reserved": "0x7a9fe22691c811ea339d9b73150e6911a5343dca",
      "salt": "0xf3ab7393cfb5f11cd70f81a1d7c3cb625b67010568bdacb4340120bd3c997282",
      "assetIds": []
    },
    {
      "x": 28,
      "y": 347,
      "size": 1,
      "price": "1011000000000000000000",
      "reserved": "",
      "salt": "0xcebdc4bee011bc593527b0c34c44186a2f9ba3a193fd996a2b05a2a1a28d3ef7",
      "assetIds": []
    },
    {
      "x": 28,
      "y": 348,
      "size": 1,
      "price": "1011000000000000000000",
      "reserved": "",
      "salt": "0xbd6852388819496828dbe495ffd7404ce0d64dad5671320a90f9a1fe5801335b",
      "assetIds": []
    },
    {
      "x": 28,
      "y": 349,
      "size": 1,
      "price": "1011000000000000000000",
      "reserved": "0x7a9fe22691c811ea339d9b73150e6911a5343dca",
      "salt": "0xb68fbaa45ba26075271d5a056f4028abffc80f7ddfd4cf270ae3a1fe867aec86",
      "assetIds": []
    },
    {
      "x": 28,
      "y": 350,
      "size": 1,
      "price": "1011000000000000000000",
      "reserved": "",
      "salt": "0x53ff4d49c4f9330a75a14958c794b63d1361733e850f3bfda0f41e89efc24e9f",
      "assetIds": []
    },
    {
      "x": 28,
      "y": 351,
      "size": 1,
      "price": "1011000000000000000000",
      "reserved": "",
      "salt": "0x145155061c897a0b4acaf6399d0ef12781c0f06976a12429830c245b844e164c",
      "assetIds": []
    },
    {
      "x": 28,
      "y": 352,
      "size": 1,
      "price": "1011000000000000000000",
      "reserved": "0x7a9fe22691c811ea339d9b73150e6911a5343dca",
      "salt": "0x6a9203c4ccfc7c671f4d571163a0bd97ea03640fa73a274e7262f65a4ab0b873",
      "assetIds": []
    },
    {
      "x": 28,
      "y": 353,
      "size": 1,
      "price": "1011000000000000000000",
      "reserved": "",
      "salt": "0x87d29d0d9684f085a5b7815808228ad3bfabf9ee02fd3ffb3a679814aeb8ac6d",
      "assetIds": []
    },
    {
      "x": 28,
      "y": 354,
      "size": 1,
      "price": "1011000000000000000000",
      "reserved": "",
      "salt": "0xac25488b7eafaf45bff3b520e1e4440810dc7496fa0b27444e43cac438ce7f3d",
      "assetIds": []
    },
    {
      "x": 28,
      "y": 355,
      "size": 1,
      "price": "1011000000000000000000",
      "reserved": "",
      "salt": "0xf65de630fd5bb69b063966a60dd7a05842c3a7de475ea4422f60c72c54e92d2b",
      "assetIds": []
    },
    {
      "x": 28,
      "y": 356,
      "size": 1,
      "price": "1011000000000000000000",
      "reserved": "0x7a9fe22691c811ea339d9b73150e6911a5343dca",
      "salt": "0x0c09bd0b5c0f7a056031a1531a1efef0cb8c15599b0a6b0afd57db6ad70dd2be",
      "assetIds": []
    },
    {
      "x": 28,
      "y": 357,
      "size": 1,
      "price": "1011000000000000000000",
      "reserved": "",
      "salt": "0x4b0cd1ddb5d9513109949ea42564f08c0d5d8dafb8852137bbb14544433b7ca7",
      "assetIds": []
    },
    {
      "x": 28,
      "y": 358,
      "size": 1,
      "price": "1011000000000000000000",
      "reserved": "",
      "salt": "0x711313ae2aef9e0aba2f53c5e125008ec443aeef298d4d97903d719214815862",
      "assetIds": []
    },
    {
      "x": 28,
      "y": 359,
      "size": 1,
      "price": "1011000000000000000000",
      "reserved": "",
      "salt": "0xafd80cfce097a1d653f4415a52084f779bf08e3d33e31f6c5e697d63f382973f",
      "assetIds": []
    },
    {
      "x": 28,
      "y": 384,
      "size": 1,
      "price": "1011000000000000000000",
      "reserved": "",
      "salt": "0x6c4f7a35c5150593a25cefa11365609d721465b5f23ed2265f74805fef45323c",
      "assetIds": []
    },
    {
      "x": 28,
      "y": 385,
      "size": 1,
      "price": "1011000000000000000000",
      "reserved": "",
      "salt": "0x4f7528a9cd9a3d02d7c25e6705d8ae1b42ca38cf992f17ffbc7dc8253871b529",
      "assetIds": []
    },
    {
      "x": 28,
      "y": 386,
      "size": 1,
      "price": "1011000000000000000000",
      "reserved": "",
      "salt": "0x9df8fa75114290bf2f7d81f2c8ffb60dcea0a7044729b7165155ba83c141427a",
      "assetIds": []
    },
    {
      "x": 28,
      "y": 387,
      "size": 1,
      "price": "1011000000000000000000",
      "reserved": "",
      "salt": "0xbc3287606aa66b7639d55494c43eceda86ffdfd5ba329f1f276cc29ff27b6647",
      "assetIds": []
    },
    {
      "x": 28,
      "y": 388,
      "size": 1,
      "price": "4683000000000000000000",
      "reserved": "",
      "salt": "0x25fa21ce86aec8a59384a48a2d715c75e2b26772bedebc4f8b976a0807f254b4",
      "assetIds": [
        "41506478881403507969696680653240014914910929820314476107906210059990541021186"
      ]
    },
    {
      "x": 28,
      "y": 389,
      "size": 1,
      "price": "4683000000000000000000",
      "reserved": "",
      "salt": "0x36294807e8824d4fccae5ec7985bdd566f6f2bf679eedece5be0d44fbce8043c",
      "assetIds": [
        "41506478881403507969696680653240014914910929820314476107906210059990541021186"
      ]
    },
    {
      "x": 28,
      "y": 390,
      "size": 1,
      "price": "4683000000000000000000",
      "reserved": "",
      "salt": "0x6284ad2d4a8201ac098eb2bc68b4e037e7c9978bd7893a5ad3f0cfc6f8331ae6",
      "assetIds": [
        "41506478881403507969696680653240014914910929820314476107906210059990541021186"
      ]
    },
    {
      "x": 28,
      "y": 391,
      "size": 1,
      "price": "4683000000000000000000",
      "reserved": "",
      "salt": "0x8ae7805261a9353e6996cbcb378ff66a14c75714b33295f99208d23d13c2cc77",
      "assetIds": [
        "41506478881403507969696680653240014914910929820314476107906210059990541021186"
      ]
    },
    {
      "x": 28,
      "y": 392,
      "size": 1,
      "price": "4683000000000000000000",
      "reserved": "",
      "salt": "0xa600b167ba0be305f9cce9aa8bb8aa54158837f1ca32373dfac63b4eaa49b350",
      "assetIds": [
        "41506478881403507969696680653240014914910929820314476107906210059990541021186"
      ]
    },
    {
      "x": 28,
      "y": 393,
      "size": 1,
      "price": "1011000000000000000000",
      "reserved": "",
      "salt": "0x2abaca0362cfe1dedbb9693af95af2f16bfb3b19ce97b0d4a1b6938c494609b8",
      "assetIds": []
    },
    {
      "x": 28,
      "y": 394,
      "size": 1,
      "price": "1011000000000000000000",
      "reserved": "",
      "salt": "0xb0abe9e7f5bd425b1fb888ea41f94b2ecb23a734434450d739ad7ffcd5225f38",
      "assetIds": []
    },
    {
      "x": 28,
      "y": 395,
      "size": 1,
      "price": "1011000000000000000000",
      "reserved": "",
      "salt": "0x012b5bee88948b9237e79a66776e8dfbfef7390039ccf1b478f8511529b6c4cf",
      "assetIds": []
    },
    {
      "x": 28,
      "y": 396,
      "size": 1,
      "price": "1011000000000000000000",
      "reserved": "",
      "salt": "0xd8ebf6300c516dbaeea5e2e460f2300584d540a16502de4bb70c05025a426baa",
      "assetIds": []
    },
    {
      "x": 28,
      "y": 397,
      "size": 1,
      "price": "1011000000000000000000",
      "reserved": "",
      "salt": "0xac5b572b786d3a6831817540ef9d4bffe73d871e7a0e983837d8dbe0143a3e28",
      "assetIds": []
    },
    {
      "x": 28,
      "y": 398,
      "size": 1,
      "price": "1011000000000000000000",
      "reserved": "",
      "salt": "0x379a8cd40e31747179f28885681c7d303dfd66f3c5d07fd8deb8079be430f176",
      "assetIds": []
    },
    {
      "x": 28,
      "y": 399,
      "size": 1,
      "price": "1011000000000000000000",
      "reserved": "0x7a9fe22691c811ea339d9b73150e6911a5343dca",
      "salt": "0xe283ac70eda21b75441535b2f07511a9ede6a1eea4b9f4130d1e75a49513456d",
      "assetIds": []
    },
    {
      "x": 28,
      "y": 400,
      "size": 1,
      "price": "1011000000000000000000",
      "reserved": "",
      "salt": "0x1a9fad3a7449e66ee310e9c2e741c75ae6c20628a76a46615326421709bf0b5a",
      "assetIds": []
    },
    {
      "x": 28,
      "y": 401,
      "size": 1,
      "price": "1011000000000000000000",
      "reserved": "",
      "salt": "0x1b29013bd6c582f2fb0eef17a98d42c1ce164e3a58b5a47758bd47529d2864d7",
      "assetIds": []
    },
    {
      "x": 28,
      "y": 402,
      "size": 1,
      "price": "1011000000000000000000",
      "reserved": "",
      "salt": "0xf35b78c93fb5c3bf818afe6559de418ff04fde4e4c94dc3683ce43b377d69107",
      "assetIds": []
    },
    {
      "x": 28,
      "y": 403,
      "size": 1,
      "price": "1011000000000000000000",
      "reserved": "",
      "salt": "0xb0ebb1f916903ec33e9ef71c2c2445067bc52287fba95e48fee08d5aa7451828",
      "assetIds": []
    },
    {
      "x": 28,
      "y": 404,
      "size": 1,
      "price": "1011000000000000000000",
      "reserved": "",
      "salt": "0x4d6f33746f2c1f4cc58172bfaa52e614b02d4ffa372ab52799b60d72fdd97376",
      "assetIds": []
    },
    {
      "x": 28,
      "y": 405,
      "size": 1,
      "price": "1011000000000000000000",
      "reserved": "",
      "salt": "0xf568344d369389e1f47e4f4b15bceec372fd67a9495620913a570413c0a5482a",
      "assetIds": []
    },
    {
      "x": 28,
      "y": 406,
      "size": 1,
      "price": "1011000000000000000000",
      "reserved": "",
      "salt": "0x5d36cee4795d50a6d74886158883bb3d7a91db0798d295fb097057c28d463d84",
      "assetIds": []
    },
    {
      "x": 28,
      "y": 407,
      "size": 1,
      "price": "1011000000000000000000",
      "reserved": "",
      "salt": "0x14e3c11ad1aa118fac4f28978445d0d426bc00554a558daa71907d483d2e76db",
      "assetIds": []
    },
    {
      "x": 29,
      "y": 346,
      "size": 1,
      "price": "1011000000000000000000",
      "reserved": "",
      "salt": "0xb7840d8a7f6fa7377ec72a82488c7264137478aac0af7662f20acf1f7559d2f8",
      "assetIds": []
    },
    {
      "x": 29,
      "y": 347,
      "size": 1,
      "price": "1011000000000000000000",
      "reserved": "",
      "salt": "0x2c2f259b7d7494fa1baacad0a69bb800cd7ace0b313b82763ce220df39c6e5b6",
      "assetIds": []
    },
    {
      "x": 29,
      "y": 348,
      "size": 1,
      "price": "1011000000000000000000",
      "reserved": "",
      "salt": "0x4e3435a161ed5748d9db8efee0cdb78c72a2b0ddb8f972267bd744212279b81c",
      "assetIds": []
    },
    {
      "x": 29,
      "y": 349,
      "size": 1,
      "price": "1011000000000000000000",
      "reserved": "",
      "salt": "0x94de8e61a4e8f4fc6048c48d0f2709ffb1d6acbcd10bc0989ab485680e068792",
      "assetIds": []
    },
    {
      "x": 29,
      "y": 350,
      "size": 1,
      "price": "1011000000000000000000",
      "reserved": "",
      "salt": "0xd0c315574cf0a7de85a966708a7f50f3e9e22018f287d7f8f9faa8d0abc56275",
      "assetIds": []
    },
    {
      "x": 29,
      "y": 351,
      "size": 1,
      "price": "1011000000000000000000",
      "reserved": "",
      "salt": "0x3a32a401dd34926c459e96a9bbfc49f55e7db8b68807f25bbc7a0ad9d56e0dcf",
      "assetIds": []
    },
    {
      "x": 29,
      "y": 352,
      "size": 1,
      "price": "1011000000000000000000",
      "reserved": "",
      "salt": "0x80861a24d2cc45d467b862f937a790cc241368f86e331919b4a09d891634aaa8",
      "assetIds": []
    },
    {
      "x": 29,
      "y": 353,
      "size": 1,
      "price": "1011000000000000000000",
      "reserved": "",
      "salt": "0xec7ae925ac7e0c62a63196b47fc80cf6a78ad477626e4fbab246ac83ff8662e3",
      "assetIds": []
    },
    {
      "x": 29,
      "y": 354,
      "size": 1,
      "price": "1011000000000000000000",
      "reserved": "",
      "salt": "0x41e76d0cd8e5c75fe83a819e8e5be46bdd8acd10e9a98340ba8a1005b51eef98",
      "assetIds": []
    },
    {
      "x": 29,
      "y": 355,
      "size": 1,
      "price": "1011000000000000000000",
      "reserved": "",
      "salt": "0xf0c29fbeffedb6b5777ea773f72a5538ea6702250c2272ae550df3220c990d35",
      "assetIds": []
    },
    {
      "x": 29,
      "y": 356,
      "size": 1,
      "price": "1011000000000000000000",
      "reserved": "",
      "salt": "0xa72870ab6fa39b6c23ee66ce9dca205bf80aab2dcaedff9e0de2c30cf39e8dd8",
      "assetIds": []
    },
    {
      "x": 29,
      "y": 357,
      "size": 1,
      "price": "1011000000000000000000",
      "reserved": "",
      "salt": "0x6fa4638c03a8010f0e4b6fdc9c71046f240f26158971542f3e3ee1889d3aa7d9",
      "assetIds": []
    },
    {
      "x": 29,
      "y": 358,
      "size": 1,
      "price": "1011000000000000000000",
      "reserved": "",
      "salt": "0xdb8bd4abc28e2ef745fd411550ef3bb610fea09813756fcf47f9a900884d1618",
      "assetIds": []
    },
    {
      "x": 29,
      "y": 359,
      "size": 1,
      "price": "1011000000000000000000",
      "reserved": "",
      "salt": "0x285cfa90914e48f10c9b7ed9c06e850ebd752d95047f4b67bed1dbae106cc1f9",
      "assetIds": []
    },
    {
      "x": 29,
      "y": 384,
      "size": 1,
      "price": "1011000000000000000000",
      "reserved": "",
      "salt": "0x6af212609f0c94cb391fbca3ff58e1032842ac71b2fd939fbe6e3899f81a11b9",
      "assetIds": []
    },
    {
      "x": 29,
      "y": 385,
      "size": 1,
      "price": "1011000000000000000000",
      "reserved": "",
      "salt": "0xeb60b0709422802207696a49a6406b1f4eae3e6b75d556bc79562f70c804ed68",
      "assetIds": []
    },
    {
      "x": 29,
      "y": 386,
      "size": 1,
      "price": "1011000000000000000000",
      "reserved": "",
      "salt": "0x0b7ba4ed45029432045ddd98bb37551aa80b5c915ad9484a84426770741af51b",
      "assetIds": []
    },
    {
      "x": 29,
      "y": 387,
      "size": 1,
      "price": "1011000000000000000000",
      "reserved": "",
      "salt": "0x449e5cfa9510d68ffe270138ab3e1663a86c2f0fedc4f9ccc4f7d6783eacf571",
      "assetIds": []
    },
    {
      "x": 29,
      "y": 388,
      "size": 1,
      "price": "1011000000000000000000",
      "reserved": "0x7a9fe22691c811ea339d9b73150e6911a5343dca",
      "salt": "0xac922747ed1fc10a9740a21e91ae0b3071c63d40271fd374198945f0bafdd4c0",
      "assetIds": []
    },
    {
      "x": 29,
      "y": 389,
      "size": 1,
      "price": "4683000000000000000000",
      "reserved": "",
      "salt": "0xb9f5ca3c13a837bf6324f215720bcd818bcaacbb0733651056abeebcd124a19b",
      "assetIds": [
        "41506478881403507969696680653240014914910929820314476107906210059990541021186"
      ]
    },
    {
      "x": 29,
      "y": 390,
      "size": 1,
      "price": "4683000000000000000000",
      "reserved": "",
      "salt": "0xea20b268b8e8c2dbf8fb91a90f94cef7dc124b330548340df34c75fda0222c6c",
      "assetIds": [
        "41506478881403507969696680653240014914910929820314476107906210059990541021186"
      ]
    },
    {
      "x": 29,
      "y": 391,
      "size": 1,
      "price": "4683000000000000000000",
      "reserved": "",
      "salt": "0xa64860c6a53693f1d8c5de91e02973add2ee629423a88af743430f5bab7e54d3",
      "assetIds": [
        "41506478881403507969696680653240014914910929820314476107906210059990541021186"
      ]
    },
    {
      "x": 29,
      "y": 392,
      "size": 1,
      "price": "4683000000000000000000",
      "reserved": "",
      "salt": "0x443b0fad2aade4c9cce334d6ec7c93720b19fdf92cc96d9bec3e9e0528c52616",
      "assetIds": [
        "41506478881403507969696680653240014914910929820314476107906210059990541021186"
      ]
    },
    {
      "x": 29,
      "y": 393,
      "size": 1,
      "price": "4683000000000000000000",
      "reserved": "",
      "salt": "0x9259196ed4da77f4d3bf3250a9c4b0186f45503db5ec60a4c02278953f0112d9",
      "assetIds": [
        "41506478881403507969696680653240014914910929820314476107906210059990541021186"
      ]
    },
    {
      "x": 29,
      "y": 394,
      "size": 1,
      "price": "4683000000000000000000",
      "reserved": "",
      "salt": "0x35e14d3fa48f5987660c9f5f9f4cab14330b3d9888e0106636e1dfafd1ae78c2",
      "assetIds": [
        "41506478881403507969696680653240014914910929820314476107906210059990541021186"
      ]
    },
    {
      "x": 29,
      "y": 395,
      "size": 1,
      "price": "1011000000000000000000",
      "reserved": "",
      "salt": "0x93b1ac9c62b79a78a89f32b8fa70d1d5c6e8da728dd6ecb2d18ca073e55a2ea5",
      "assetIds": []
    },
    {
      "x": 29,
      "y": 396,
      "size": 1,
      "price": "1011000000000000000000",
      "reserved": "0x7a9fe22691c811ea339d9b73150e6911a5343dca",
      "salt": "0xa1a2500052cb8b7db92f471daff36cb34b21a42445ba3f6e6798d5fdbb67848a",
      "assetIds": []
    },
    {
      "x": 29,
      "y": 397,
      "size": 1,
      "price": "1011000000000000000000",
      "reserved": "",
      "salt": "0x0b2e5cbf1e8ba2b901ab31a6c95e963d5d8c1731d98c9fc302da4bd06a3e5683",
      "assetIds": []
    },
    {
      "x": 29,
      "y": 398,
      "size": 1,
      "price": "1011000000000000000000",
      "reserved": "",
      "salt": "0xdfc78a4e59d68f97244c22c9f85c35691a15ef2fdc357ee3356bb0fbfdc13dc4",
      "assetIds": []
    },
    {
      "x": 29,
      "y": 399,
      "size": 1,
      "price": "1011000000000000000000",
      "reserved": "",
      "salt": "0xcaee56296be3948940ea49f853d633ab6fb4070f7e018cbc617cc9212130e6f9",
      "assetIds": []
    },
    {
      "x": 29,
      "y": 400,
      "size": 1,
      "price": "1011000000000000000000",
      "reserved": "",
      "salt": "0x70daad018e828573de8f3ae7cacb835f9d55df2b7d36006286156ea781af608a",
      "assetIds": []
    },
    {
      "x": 29,
      "y": 401,
      "size": 1,
      "price": "1011000000000000000000",
      "reserved": "",
      "salt": "0xcfc952ef28eca352495c04bc8a8c5bc8e605d53cc09e1a54b41f081aea4e0022",
      "assetIds": []
    },
    {
      "x": 29,
      "y": 402,
      "size": 1,
      "price": "1011000000000000000000",
      "reserved": "",
      "salt": "0x05c264317cd65cd0e29488e0f09026405571b07e5c5c3e3188fbed85e2d22e08",
      "assetIds": []
    },
    {
      "x": 29,
      "y": 403,
      "size": 1,
      "price": "1011000000000000000000",
      "reserved": "",
      "salt": "0xe6a90d7c57551231950467106c8f36503330638f0d79a38237184ef43c2bdbd4",
      "assetIds": []
    },
    {
      "x": 29,
      "y": 404,
      "size": 1,
      "price": "1011000000000000000000",
      "reserved": "",
      "salt": "0x09bdc97ea44c045adc75d4a80e726256b124ecd06adb3520abb55fb3f9693e47",
      "assetIds": []
    },
    {
      "x": 29,
      "y": 405,
      "size": 1,
      "price": "1011000000000000000000",
      "reserved": "",
      "salt": "0x9544b777bbc6df5fd17edb9155373a273f7e89a815bc9d75a81a416161ffa386",
      "assetIds": []
    },
    {
      "x": 29,
      "y": 406,
      "size": 1,
      "price": "1011000000000000000000",
      "reserved": "",
      "salt": "0x9cd1bc1f7a917c2fbcc4659313600b377a2ae5a8e3ce7319ae2645963037bca2",
      "assetIds": []
    },
    {
      "x": 29,
      "y": 407,
      "size": 1,
      "price": "1011000000000000000000",
      "reserved": "",
      "salt": "0x51917d04e9d88c96c8cbcedcfdce3f4dd84a31849f876f45c1db8e4c852b6708",
      "assetIds": []
    },
    {
      "x": 30,
      "y": 346,
      "size": 1,
      "price": "1011000000000000000000",
      "reserved": "",
      "salt": "0x96f70585b0eb6080b5ed6676390eae3e91a1ea7aa892ee4167a4cb142e0c5b4f",
      "assetIds": []
    },
    {
      "x": 30,
      "y": 347,
      "size": 1,
      "price": "1011000000000000000000",
      "reserved": "",
      "salt": "0xb7976b9dca69f86b63d8a7c141dfeda1d896396bf79cf6c38d7bd7b9345e697d",
      "assetIds": []
    },
    {
      "x": 30,
      "y": 348,
      "size": 1,
      "price": "1011000000000000000000",
      "reserved": "",
      "salt": "0xcfeb399947e1852efaee8a699a9f7c28af428f58708fe07f441f407b31e2196f",
      "assetIds": []
    },
    {
      "x": 30,
      "y": 349,
      "size": 1,
      "price": "1011000000000000000000",
      "reserved": "",
      "salt": "0x863a1b552fd68005204914c195f3a1746afe47a70438d6ce204c7b750599be52",
      "assetIds": []
    },
    {
      "x": 30,
      "y": 350,
      "size": 1,
      "price": "1011000000000000000000",
      "reserved": "0x7a9fe22691c811ea339d9b73150e6911a5343dca",
      "salt": "0x98d26c3efa4c44a7cd6378254a0b013e0dfbcf09a25b1473791f8f83db7ed491",
      "assetIds": []
    },
    {
      "x": 30,
      "y": 351,
      "size": 1,
      "price": "1011000000000000000000",
      "reserved": "",
      "salt": "0x1bd7bdbb6ad2debf065fef4a68492ef775fae00f3f37df6dcb920011d1bc4a62",
      "assetIds": []
    },
    {
      "x": 30,
      "y": 352,
      "size": 1,
      "price": "1011000000000000000000",
      "reserved": "",
      "salt": "0x5bb7624cd617defb5f579b01bcf74ac4af4e13f017a6e394891cb199610c87d0",
      "assetIds": []
    },
    {
      "x": 30,
      "y": 353,
      "size": 1,
      "price": "1011000000000000000000",
      "reserved": "",
      "salt": "0xbf9d786e673fbd267d753e0cc81b3167f2fbf0e28627d74842d374729a67dbfb",
      "assetIds": []
    },
    {
      "x": 30,
      "y": 354,
      "size": 1,
      "price": "1011000000000000000000",
      "reserved": "",
      "salt": "0xda100b892c2d451d835d607b8d3fbda990c6dd9d754425985f10417fb37046d7",
      "assetIds": []
    },
    {
      "x": 30,
      "y": 355,
      "size": 1,
      "price": "1011000000000000000000",
      "reserved": "",
      "salt": "0x0c2f378d2e8bae4399d8ce12771831159b81e3cbd334396bbcda73ab5316155b",
      "assetIds": []
    },
    {
      "x": 30,
      "y": 356,
      "size": 1,
      "price": "1011000000000000000000",
      "reserved": "",
      "salt": "0x087dae0dbfbb0193a1772fbdcda8e338c9040cac4d75578d9c8c4a24ef67ef93",
      "assetIds": []
    },
    {
      "x": 30,
      "y": 357,
      "size": 1,
      "price": "1011000000000000000000",
      "reserved": "",
      "salt": "0xea71fb68daf2fbc327b2d126e478a1b8dc631aa1113816ffdf787211992fdbdf",
      "assetIds": []
    },
    {
      "x": 30,
      "y": 358,
      "size": 1,
      "price": "1011000000000000000000",
      "reserved": "",
      "salt": "0xf6079f5297c22a405a5cbf6c5ef2f738e7a385af76c4b71590e4c3db204f4416",
      "assetIds": []
    },
    {
      "x": 30,
      "y": 359,
      "size": 1,
      "price": "1011000000000000000000",
      "reserved": "",
      "salt": "0x4f57dd48965c0e4d087969b6cb362b2ecbeb9d4d490796894ada3f58b0427874",
      "assetIds": []
    },
    {
      "x": 30,
      "y": 387,
      "size": 1,
      "price": "4683000000000000000000",
      "reserved": "",
      "salt": "0x440a2f012da69a71471947baf27c6992d7e3c089535e8b9767bdef844d71063d",
      "assetIds": [
        "41506478881403507969696680653240014914910929820314476107906210059990541021186"
      ]
    },
    {
      "x": 30,
      "y": 388,
      "size": 1,
      "price": "4683000000000000000000",
      "reserved": "",
      "salt": "0x877f82ee54228dfe97eddc5aaff2b9754ed1d036048481236ba8e455d3a3e9ac",
      "assetIds": [
        "41506478881403507969696680653240014914910929820314476107906210059990541021186"
      ]
    },
    {
      "x": 30,
      "y": 389,
      "size": 1,
      "price": "4683000000000000000000",
      "reserved": "",
      "salt": "0xcf30f4f774da226a74506ec2c89342e25ccbeed68a1d682128bc8c97dd5714c2",
      "assetIds": [
        "41506478881403507969696680653240014914910929820314476107906210059990541021186"
      ]
    },
    {
      "x": 30,
      "y": 393,
      "size": 1,
      "price": "4683000000000000000000",
      "reserved": "",
      "salt": "0x3ba88f0b37e368fa7e4e4145497801b7daa13a0113e52f3c7128ea300e52ef4e",
      "assetIds": [
        "41506478881403507969696680653240014914910929820314476107906210059990541021186"
      ]
    },
    {
      "x": 30,
      "y": 394,
      "size": 1,
      "price": "1011000000000000000000",
      "reserved": "",
      "salt": "0xe2537eaa4f751230e642986c28b346c10d5553d9f041b97a334da5f6da75bf3b",
      "assetIds": []
    },
    {
      "x": 30,
      "y": 395,
      "size": 1,
      "price": "1011000000000000000000",
      "reserved": "",
      "salt": "0x0e0e1ae480146c95c0e6f3e5f57e40f375009e55081a066ad05d4afcaf34dbc5",
      "assetIds": []
    },
    {
      "x": 30,
      "y": 402,
      "size": 1,
      "price": "1011000000000000000000",
      "reserved": "",
      "salt": "0x17bd4858accd2067bcba91f7fb7d0015fd830debe2f84b6a33c1169a259f6537",
      "assetIds": []
    },
    {
      "x": 30,
      "y": 403,
      "size": 1,
      "price": "1011000000000000000000",
      "reserved": "",
      "salt": "0x70cb69b08e9ae5a8ade9a34a4a171187d8f6be16a85baa5778b693537447ea36",
      "assetIds": []
    },
    {
      "x": 30,
      "y": 404,
      "size": 1,
      "price": "1011000000000000000000",
      "reserved": "",
      "salt": "0x7e49e10008d5b436800ebc01a54f60ee4f9fa9ffb8dc82f325643dc7bd770cb3",
      "assetIds": []
    },
    {
      "x": 30,
      "y": 405,
      "size": 1,
      "price": "1011000000000000000000",
      "reserved": "",
      "salt": "0x6d228b995e0fcb60177ca3bfb219403700ffda71608e600868e8d327c249e4f1",
      "assetIds": []
    },
    {
      "x": 30,
      "y": 406,
      "size": 1,
      "price": "1011000000000000000000",
      "reserved": "",
      "salt": "0xb1216fd01e8e0201e16a8b6ee419bbb8952ec29525d0608045cf7eb97fec10a4",
      "assetIds": []
    },
    {
      "x": 30,
      "y": 407,
      "size": 1,
      "price": "1011000000000000000000",
      "reserved": "",
      "salt": "0x20b58c6f1171e3fd5727d43afe6add2265a42370b0c31b905afe19a4dc328676",
      "assetIds": []
    },
    {
      "x": 31,
      "y": 346,
      "size": 1,
      "price": "1011000000000000000000",
      "reserved": "",
      "salt": "0xdb68f3fba72fe3c8f3d1ce889d8571e66246b9133046de07db2f0dbdbfc26d7d",
      "assetIds": []
    },
    {
      "x": 31,
      "y": 347,
      "size": 1,
      "price": "1011000000000000000000",
      "reserved": "",
      "salt": "0x2a49b2904a0dc8af953a74406b1e284473972cea70c74246cc28eb3a20d87b0c",
      "assetIds": []
    },
    {
      "x": 31,
      "y": 348,
      "size": 1,
      "price": "1011000000000000000000",
      "reserved": "",
      "salt": "0xdf04ae44e001d04c4f7d48d549f93b222577895588b79f2552b33f4cfaf0f7f1",
      "assetIds": []
    },
    {
      "x": 31,
      "y": 349,
      "size": 1,
      "price": "1011000000000000000000",
      "reserved": "",
      "salt": "0x74c8354d143011804524268efb9bc2e66dbc17b6e0f8e9f7943a2113f25ff4f7",
      "assetIds": []
    },
    {
      "x": 31,
      "y": 350,
      "size": 1,
      "price": "1011000000000000000000",
      "reserved": "",
      "salt": "0x12b23e6a3914f201784610dc4a35ee76b2f1c2fbd63fbebc75194cb948e3c67e",
      "assetIds": []
    },
    {
      "x": 31,
      "y": 351,
      "size": 1,
      "price": "1011000000000000000000",
      "reserved": "",
      "salt": "0xf5301236e5a1455df56131ff1833fd5f8da6f73b2b7fcbb2d20c89fa322ab48d",
      "assetIds": []
    },
    {
      "x": 31,
      "y": 352,
      "size": 1,
      "price": "1011000000000000000000",
      "reserved": "",
      "salt": "0xadeecc310741efc10494a03646bdf3bb11465019a78d8e02398744bb8c3cb498",
      "assetIds": []
    },
    {
      "x": 31,
      "y": 353,
      "size": 1,
      "price": "1011000000000000000000",
      "reserved": "",
      "salt": "0xb6a8da96dceb4baabb0802ee61c7c74fe528e75cf7844f88d0e52d1a5daa6c4a",
      "assetIds": []
    },
    {
      "x": 31,
      "y": 354,
      "size": 1,
      "price": "1011000000000000000000",
      "reserved": "",
      "salt": "0x9a43a1a5cd720bf4d9b8e300320d812bd6f31074b581fabe50396a6627813fed",
      "assetIds": []
    },
    {
      "x": 31,
      "y": 355,
      "size": 1,
      "price": "1011000000000000000000",
      "reserved": "",
      "salt": "0x5c20fc60f0fdce57447e5a07542f28f79716a91b7f375f715651201e7b163c6f",
      "assetIds": []
    },
    {
      "x": 31,
      "y": 356,
      "size": 1,
      "price": "1011000000000000000000",
      "reserved": "",
      "salt": "0x93da93b9c94eec650689ec75bb72a63927aeb3c0b931db33c9eb622b733e9d4d",
      "assetIds": []
    },
    {
      "x": 31,
      "y": 357,
      "size": 1,
      "price": "1011000000000000000000",
      "reserved": "",
      "salt": "0xc3b17acb0fa8d480516e423e95766a5b4bccdf8d94e8e284f875e6b05f38bd2e",
      "assetIds": []
    },
    {
      "x": 31,
      "y": 358,
      "size": 1,
      "price": "1011000000000000000000",
      "reserved": "",
      "salt": "0xb68e7920443543b13571d4fc189076ed011754812f5925b6e90e96fcf1d20fea",
      "assetIds": []
    },
    {
      "x": 31,
      "y": 359,
      "size": 1,
      "price": "1011000000000000000000",
      "reserved": "",
      "salt": "0xdf0e96365407e5755b6f8fc22de8b334bcdefc97eb45bfb9f34d7449a13e8aa9",
      "assetIds": []
    },
    {
      "x": 31,
      "y": 387,
      "size": 1,
      "price": "1011000000000000000000",
      "reserved": "",
      "salt": "0x22f3c30eabd1f2fa9f711d8a100ab388ca28cf2287f2ae5ba94f676d86b0dfe9",
      "assetIds": []
    },
    {
      "x": 31,
      "y": 388,
      "size": 1,
      "price": "4683000000000000000000",
      "reserved": "",
      "salt": "0xf85ddbfb657cfc4307d5cb123621044d576a958fc335bbd88771dd3dcd548950",
      "assetIds": [
        "41506478881403507969696680653240014914910929820314476107906210059990541021186"
      ]
    },
    {
      "x": 31,
      "y": 389,
      "size": 1,
      "price": "4683000000000000000000",
      "reserved": "",
      "salt": "0xe8a8634ae17171d7c28cf802221f6f1de0b978d53d8b5d852ff8d70bb38754a6",
      "assetIds": [
        "41506478881403507969696680653240014914910929820314476107906210059990541021186"
      ]
    },
    {
      "x": 31,
      "y": 393,
      "size": 1,
      "price": "4683000000000000000000",
      "reserved": "",
      "salt": "0xefa42463d44057d29abbd976fdd85c189623f93254b27ea91c22c442b70577eb",
      "assetIds": [
        "41506478881403507969696680653240014914910929820314476107906210059990541021186"
      ]
    },
    {
      "x": 31,
      "y": 394,
      "size": 1,
      "price": "4683000000000000000000",
      "reserved": "",
      "salt": "0x002a2ef6aba6629abefcaf71fe2b7020d23910937036210084c6ed4961101ef9",
      "assetIds": [
        "41506478881403507969696680653240014914910929820314476107906210059990541021186"
      ]
    },
    {
      "x": 31,
      "y": 395,
      "size": 1,
      "price": "1011000000000000000000",
      "reserved": "",
      "salt": "0xc200fe41b7548f101e5789043a4669175df64f212b65d661a36a9d0cbc3835b4",
      "assetIds": []
    },
    {
      "x": 31,
      "y": 402,
      "size": 1,
      "price": "1011000000000000000000",
      "reserved": "",
      "salt": "0xa50c09b20401d704ccbd9012c1207cda8acd0461ec55064c61f3d16bd6bee017",
      "assetIds": []
    },
    {
      "x": 31,
      "y": 403,
      "size": 1,
      "price": "1011000000000000000000",
      "reserved": "",
      "salt": "0x7bc58ceb1285ceeb19de63bedcea8e6c5a6808089eca0ce672d4cb825f530868",
      "assetIds": []
    },
    {
      "x": 31,
      "y": 404,
      "size": 1,
      "price": "1011000000000000000000",
      "reserved": "",
      "salt": "0x1a334eaaef9aac0998d4d4732fbd94996287fa3f8725f031697c303672c78879",
      "assetIds": []
    },
    {
      "x": 31,
      "y": 405,
      "size": 1,
      "price": "1011000000000000000000",
      "reserved": "",
      "salt": "0xa99edb7edd08ccc17d4bf8f3da92070f892b94b79c73b88f699e00884c02d08e",
      "assetIds": []
    },
    {
      "x": 31,
      "y": 406,
      "size": 1,
      "price": "1011000000000000000000",
      "reserved": "",
      "salt": "0x078931f2858a4873a4ef30c0095e7c7b7c90a9051038205a5f52a644e773266e",
      "assetIds": []
    },
    {
      "x": 31,
      "y": 407,
      "size": 1,
      "price": "1011000000000000000000",
      "reserved": "",
      "salt": "0x2226aa47e3cb09ee613da87fd0c599e451ec70314c4f40ce80cfb153a086e1d6",
      "assetIds": []
    },
    {
      "x": 32,
      "y": 346,
      "size": 1,
      "price": "1011000000000000000000",
      "reserved": "",
      "salt": "0xb4ef0419fb2516b4ace4ad0a0a12484e42962ee75c0c9f6b13241d5213d66b8e",
      "assetIds": []
    },
    {
      "x": 32,
      "y": 347,
      "size": 1,
      "price": "1011000000000000000000",
      "reserved": "",
      "salt": "0x625286f9e249537ccfc9b08d2427c2d869780dacfd4acde4edbd17a7730c55bc",
      "assetIds": []
    },
    {
      "x": 32,
      "y": 348,
      "size": 1,
      "price": "1011000000000000000000",
      "reserved": "",
      "salt": "0x45a68250c6bb9cea90b79accab23efcb8bf4af7ac5f20500ba6223ba239fc31d",
      "assetIds": []
    },
    {
      "x": 32,
      "y": 349,
      "size": 1,
      "price": "1011000000000000000000",
      "reserved": "",
      "salt": "0x62dd8cff1d20cdd2b7932e0b2b5936dcff3a0925a4e12e2dce7b062fd91e041d",
      "assetIds": []
    },
    {
      "x": 32,
      "y": 350,
      "size": 1,
      "price": "1011000000000000000000",
      "reserved": "",
      "salt": "0xc29cb4ecc1e2423d17a7b538f7b885b5cb50940880781ed7e6ef680ce26b48ed",
      "assetIds": []
    },
    {
      "x": 32,
      "y": 351,
      "size": 1,
      "price": "1011000000000000000000",
      "reserved": "",
      "salt": "0xf2e320f52861906c8ad5d1babf448e781fc626b4b56223311ae2b578a60cf78c",
      "assetIds": []
    },
    {
      "x": 32,
      "y": 352,
      "size": 1,
      "price": "1011000000000000000000",
      "reserved": "",
      "salt": "0x8096aa54d602149949967a09edc3c47a7932a74f80728d8ab2f99b2aa2b01a3e",
      "assetIds": []
    },
    {
      "x": 32,
      "y": 353,
      "size": 1,
      "price": "1011000000000000000000",
      "reserved": "",
      "salt": "0x17eda789f571c1af68f812b79b697b9e839821aadf392eb9f6281b2eae7e8977",
      "assetIds": []
    },
    {
      "x": 32,
      "y": 354,
      "size": 1,
      "price": "1011000000000000000000",
      "reserved": "",
      "salt": "0x2bdda789e8b5f0b70b94a0d751b87dbe373ee12b0ccf782cd8106bc05556ec3d",
      "assetIds": []
    },
    {
      "x": 32,
      "y": 355,
      "size": 1,
      "price": "1011000000000000000000",
      "reserved": "0x7a9fe22691c811ea339d9b73150e6911a5343dca",
      "salt": "0x0c4d3c02ecee6f82174026c8659dd380fefee4d672baf396ab7d3a75caa43375",
      "assetIds": []
    },
    {
      "x": 32,
      "y": 356,
      "size": 1,
      "price": "1011000000000000000000",
      "reserved": "",
      "salt": "0xa7bd6760ef7ac669ac264b01405ae4d654d2211b74b6e0c18e421860e48b95bf",
      "assetIds": []
    },
    {
      "x": 32,
      "y": 357,
      "size": 1,
      "price": "1011000000000000000000",
      "reserved": "",
      "salt": "0xdab3b48ce70b0ee1729b645cb327379456a00b2bfbda7fe7ec639a25aedc0f79",
      "assetIds": []
    },
    {
      "x": 32,
      "y": 358,
      "size": 1,
      "price": "1011000000000000000000",
      "reserved": "",
      "salt": "0xe3ff306acb3d04fd493b32196444a8fa3e1044b07e7e7c717071eac9154a2750",
      "assetIds": []
    },
    {
      "x": 32,
      "y": 359,
      "size": 1,
      "price": "1011000000000000000000",
      "reserved": "",
      "salt": "0x327b99ca5ac5d76965d14a933d9de1b9742c2f60a66a23a9659dd3e63e8958d6",
      "assetIds": []
    },
    {
      "x": 32,
      "y": 387,
      "size": 1,
      "price": "4683000000000000000000",
      "reserved": "",
      "salt": "0x227d2a68499d8c44eaf41255332164b2e8f574c065d6cbe7f60cb6cec42ec755",
      "assetIds": [
        "41506478881403507969696680653240014914910929820314476107906210059990541021186"
      ]
    },
    {
      "x": 32,
      "y": 388,
      "size": 1,
      "price": "1011000000000000000000",
      "reserved": "0x7a9fe22691c811ea339d9b73150e6911a5343dca",
      "salt": "0x15f08f6aac4b347b845d048665fcd2ce9acb19ded1d312d0f787848f7a0dbd4f",
      "assetIds": []
    },
    {
      "x": 32,
      "y": 389,
      "size": 1,
      "price": "4683000000000000000000",
      "reserved": "",
      "salt": "0x9a01f7f340694e41b410a9bc9987ea3a9c7ffb70671661bc322b0e63517d6826",
      "assetIds": [
        "41506478881403507969696680653240014914910929820314476107906210059990541021186"
      ]
    },
    {
      "x": 32,
      "y": 393,
      "size": 1,
      "price": "4683000000000000000000",
      "reserved": "",
      "salt": "0x3250d0097800f678b397deeb1d19057aafbc277e334096bd562e569a6a9fad8a",
      "assetIds": [
        "41506478881403507969696680653240014914910929820314476107906210059990541021186"
      ]
    },
    {
      "x": 32,
      "y": 394,
      "size": 1,
      "price": "4683000000000000000000",
      "reserved": "",
      "salt": "0x33edb8a8abd9e7886a22f11f68a785109edd5bfe00b670be7e605f78b380ba9b",
      "assetIds": [
        "41506478881403507969696680653240014914910929820314476107906210059990541021186"
      ]
    },
    {
      "x": 32,
      "y": 395,
      "size": 1,
      "price": "1011000000000000000000",
      "reserved": "",
      "salt": "0x7ab6a86264e7b2fb1297b163baac393932bc1dcf405318bb42b9c985c29f9724",
      "assetIds": []
    },
    {
      "x": 32,
      "y": 402,
      "size": 1,
      "price": "1011000000000000000000",
      "reserved": "",
      "salt": "0x730e01a5655442e65f5a97ad0c9133148b0f9e9263d39866ba30a8f0564cd575",
      "assetIds": []
    },
    {
      "x": 32,
      "y": 403,
      "size": 1,
      "price": "1011000000000000000000",
      "reserved": "",
      "salt": "0x96fed997e105ebf408063231f855bd2c2f5be48fa8e1b3b18d8103b7c13d8741",
      "assetIds": []
    },
    {
      "x": 32,
      "y": 404,
      "size": 1,
      "price": "1011000000000000000000",
      "reserved": "",
      "salt": "0xa52b66ae83a34c9fb366f5a533ae264bd0c6931380dd984d41eea40a15e8d307",
      "assetIds": []
    },
    {
      "x": 32,
      "y": 405,
      "size": 1,
      "price": "1011000000000000000000",
      "reserved": "",
      "salt": "0x458beb06403ec66bd163559ddb10c93b4d2a819050be5f491375cdc4ecaae3f2",
      "assetIds": []
    },
    {
      "x": 32,
      "y": 406,
      "size": 1,
      "price": "1011000000000000000000",
      "reserved": "",
      "salt": "0xde4ff4f7591315f7e8c12d1be38841eef459960a367d2af610f324fc7399dbda",
      "assetIds": []
    },
    {
      "x": 32,
      "y": 407,
      "size": 1,
      "price": "1011000000000000000000",
      "reserved": "",
      "salt": "0x7f1194584e4a3061f2a6d003d6da8fb47ce0b2c5805c73780b8d8a71201f3c50",
      "assetIds": []
    },
    {
      "x": 33,
      "y": 346,
      "size": 1,
      "price": "1011000000000000000000",
      "reserved": "",
      "salt": "0xeefe7bdcc2090e4f319cfa99e6d61fabb31f1c3bb5fed63846b1a0856a8550b4",
      "assetIds": []
    },
    {
      "x": 33,
      "y": 347,
      "size": 1,
      "price": "1011000000000000000000",
      "reserved": "",
      "salt": "0x43902ee4328970467bfabf8d582b058e4c68cb3622a6cfa0efcb5d3f791706ad",
      "assetIds": []
    },
    {
      "x": 33,
      "y": 348,
      "size": 1,
      "price": "1011000000000000000000",
      "reserved": "",
      "salt": "0xdf345d24b0171a7c9dbcc5c06ace486c6652aff648962b866872b3aa416d4fab",
      "assetIds": []
    },
    {
      "x": 33,
      "y": 349,
      "size": 1,
      "price": "1011000000000000000000",
      "reserved": "0x7a9fe22691c811ea339d9b73150e6911a5343dca",
      "salt": "0xfb42f8c8807461d47f0f60e586c38ba60b8ba11ac215315f8f5f10b933d60109",
      "assetIds": []
    },
    {
      "x": 33,
      "y": 350,
      "size": 1,
      "price": "1011000000000000000000",
      "reserved": "",
      "salt": "0x8a5e0b1940eeb7c07d7e80b3d1753f972e3a2e453b900e19afd0b98b442c7ddf",
      "assetIds": []
    },
    {
      "x": 33,
      "y": 351,
      "size": 1,
      "price": "1011000000000000000000",
      "reserved": "",
      "salt": "0xb6e6b7e766bd1d63b794fd0f039a8c6e9ab934188d78557f0cf308cd8f85f81a",
      "assetIds": []
    },
    {
      "x": 33,
      "y": 352,
      "size": 1,
      "price": "1011000000000000000000",
      "reserved": "",
      "salt": "0xeca46bf1f0d2017c1ba0597db4599cfa8ac1816084f0c1271677c1130536db23",
      "assetIds": []
    },
    {
      "x": 33,
      "y": 353,
      "size": 1,
      "price": "1011000000000000000000",
      "reserved": "",
      "salt": "0x5a5eeec27d35d1d7546c1d9377006a8fcf4a192102d86a9003fe826a8b05df56",
      "assetIds": []
    },
    {
      "x": 33,
      "y": 354,
      "size": 1,
      "price": "1011000000000000000000",
      "reserved": "",
      "salt": "0x7bb71c19de76d9c9ca83881b69c11423d88fff2c5608c6164fefcdcec847f3ab",
      "assetIds": []
    },
    {
      "x": 33,
      "y": 355,
      "size": 1,
      "price": "1011000000000000000000",
      "reserved": "",
      "salt": "0xb957b7b6e0bfd2636db55e1344dcd2f2ba853365816326be59cfd4fb4f9c167b",
      "assetIds": []
    },
    {
      "x": 33,
      "y": 356,
      "size": 1,
      "price": "1011000000000000000000",
      "reserved": "",
      "salt": "0xfcf6a6089bd87978fde958f1837d0b3e0d7c65c0fde873044963596135ea47f3",
      "assetIds": []
    },
    {
      "x": 33,
      "y": 357,
      "size": 1,
      "price": "1011000000000000000000",
      "reserved": "0x7a9fe22691c811ea339d9b73150e6911a5343dca",
      "salt": "0x72716eb39758487178352432bdb6b6aacdd14e2cb8f7cd58fea686e3c0fd9f11",
      "assetIds": []
    },
    {
      "x": 33,
      "y": 358,
      "size": 1,
      "price": "1011000000000000000000",
      "reserved": "",
      "salt": "0xdafe658aa7733e676538da139671738c376c79af70ad43fd4024ff0884164a42",
      "assetIds": []
    },
    {
      "x": 33,
      "y": 359,
      "size": 1,
      "price": "1011000000000000000000",
      "reserved": "",
      "salt": "0xd6feae28e96b51673a5d3fac17f06572354c4f75e11abaff28d1ca6f9474535c",
      "assetIds": []
    },
    {
      "x": 33,
      "y": 384,
      "size": 1,
      "price": "1011000000000000000000",
      "reserved": "",
      "salt": "0x71b07b32cc1688554fee6268c3ca234d5c165b0243bbc10f442582d33746bf08",
      "assetIds": []
    },
    {
      "x": 33,
      "y": 385,
      "size": 1,
      "price": "1011000000000000000000",
      "reserved": "",
      "salt": "0x70170f6b185b0ec6dacaba7248312dc325e3c3a1314d0a02accc8a894d21ccbb",
      "assetIds": []
    },
    {
      "x": 33,
      "y": 386,
      "size": 1,
      "price": "1011000000000000000000",
      "reserved": "",
      "salt": "0xb83b5a34a75967873195d273eeb50a76db7bbbe2824f0a6af79e41f985764600",
      "assetIds": []
    },
    {
      "x": 33,
      "y": 387,
      "size": 1,
      "price": "1011000000000000000000",
      "reserved": "",
      "salt": "0x5034a14e3b6854dd273780e8be7d23c21df17950af075e4171b2dea4c1350d66",
      "assetIds": []
    },
    {
      "x": 33,
      "y": 388,
      "size": 1,
      "price": "4683000000000000000000",
      "reserved": "",
      "salt": "0x4c4336f550ff3b58e590d392174271c82a28a90a7e8ed74a339f2e26437ced3c",
      "assetIds": [
        "41506478881403507969696680653240014914910929820314476107906210059990541021186"
      ]
    },
    {
      "x": 33,
      "y": 389,
      "size": 1,
      "price": "4683000000000000000000",
      "reserved": "",
      "salt": "0x2c71b100fdd97a389fdc0f83a7d00b9e7c0b75b20bad36f72edb916193d1997c",
      "assetIds": [
        "41506478881403507969696680653240014914910929820314476107906210059990541021186"
      ]
    },
    {
      "x": 33,
      "y": 390,
      "size": 1,
      "price": "4683000000000000000000",
      "reserved": "",
      "salt": "0xd3ca4434d3087cc4bc44ad573af69f68fc9b10d70edbd236543634b54aa60c09",
      "assetIds": [
        "41506478881403507969696680653240014914910929820314476107906210059990541021186"
      ]
    },
    {
      "x": 33,
      "y": 391,
      "size": 1,
      "price": "4683000000000000000000",
      "reserved": "",
      "salt": "0xb491c0b5bbe4cf27dbff37045329bd91e6ebf2ec0d3ff4e5305a2b24377f12fa",
      "assetIds": [
        "41506478881403507969696680653240014914910929820314476107906210059990541021186"
      ]
    },
    {
      "x": 33,
      "y": 392,
      "size": 1,
      "price": "4683000000000000000000",
      "reserved": "",
      "salt": "0x86064fc8d9f877f51d358e8cd647ba4643a2256aaa1c09ccc85b3276a340906d",
      "assetIds": [
        "41506478881403507969696680653240014914910929820314476107906210059990541021186"
      ]
    },
    {
      "x": 33,
      "y": 393,
      "size": 1,
      "price": "4683000000000000000000",
      "reserved": "",
      "salt": "0x012ec8af89535b5937a3fb81d3e12f0a3c00b6a2cf0a071886d0cde97459bc14",
      "assetIds": [
        "41506478881403507969696680653240014914910929820314476107906210059990541021186"
      ]
    },
    {
      "x": 33,
      "y": 394,
      "size": 1,
      "price": "1011000000000000000000",
      "reserved": "0x7a9fe22691c811ea339d9b73150e6911a5343dca",
      "salt": "0xb7a75a30b1124dc63468467308795ef9b7985878f1fb1b278c731b303c09bbdb",
      "assetIds": []
    },
    {
      "x": 33,
      "y": 395,
      "size": 1,
      "price": "1011000000000000000000",
      "reserved": "",
      "salt": "0x5584a02b630c98ce5956e555a5b8cfd179acf5cf8ca69eb43463c043cc727dcd",
      "assetIds": []
    },
    {
      "x": 33,
      "y": 402,
      "size": 1,
      "price": "1011000000000000000000",
      "reserved": "0x7a9fe22691c811ea339d9b73150e6911a5343dca",
      "salt": "0xd674ff88106023dede419d9e0322e58e2837af37c1892fb209b69f279781de91",
      "assetIds": []
    },
    {
      "x": 33,
      "y": 403,
      "size": 1,
      "price": "1011000000000000000000",
      "reserved": "",
      "salt": "0x34a370632891e445330f226e731449261638ed1935c955a2ab932d8869dc2c7d",
      "assetIds": []
    },
    {
      "x": 33,
      "y": 404,
      "size": 1,
      "price": "1011000000000000000000",
      "reserved": "",
      "salt": "0x5996754b35f09a6cd044795ea89c2eb2d5b3f4d0b1040443651ff3ee0dfdbd0a",
      "assetIds": []
    },
    {
      "x": 33,
      "y": 405,
      "size": 1,
      "price": "1011000000000000000000",
      "reserved": "",
      "salt": "0xc4a4c2738416ba67da2afd21f45d4015c6940519c9194b0b503772433eacd421",
      "assetIds": []
    },
    {
      "x": 33,
      "y": 406,
      "size": 1,
      "price": "1011000000000000000000",
      "reserved": "",
      "salt": "0x704bcc911716d4a58a2595a94b58dfd5bdd9a0f6494f3723dc0487c2dc3c6836",
      "assetIds": []
    },
    {
      "x": 33,
      "y": 407,
      "size": 1,
      "price": "1011000000000000000000",
      "reserved": "",
      "salt": "0x0a4ccd2bda22c5570b002b6689bd2e731582b4bbf7a444085c386a023677bc5e",
      "assetIds": []
    },
    {
      "x": 34,
      "y": 346,
      "size": 1,
      "price": "1011000000000000000000",
      "reserved": "",
      "salt": "0xf2fee1f7008d09c535fbfd1588db6e1a1b012ab11973b9b831742bead05e5ec6",
      "assetIds": []
    },
    {
      "x": 34,
      "y": 347,
      "size": 1,
      "price": "1011000000000000000000",
      "reserved": "",
      "salt": "0x87e4d47517863ea91e9c89c135fc60a76c954d810983ac0a2349309574410a05",
      "assetIds": []
    },
    {
      "x": 34,
      "y": 348,
      "size": 1,
      "price": "1011000000000000000000",
      "reserved": "",
      "salt": "0x260eba231ebb0f2c81eda565610e6f6cdeda53d871bb1c24ae301be6c28e8cc0",
      "assetIds": []
    },
    {
      "x": 34,
      "y": 349,
      "size": 1,
      "price": "1011000000000000000000",
      "reserved": "",
      "salt": "0xb1d63955ba724a10d3126dfb00a52e59fd510e9e858ecd54dbd092a05724228b",
      "assetIds": []
    },
    {
      "x": 34,
      "y": 350,
      "size": 1,
      "price": "1011000000000000000000",
      "reserved": "",
      "salt": "0x22eaea1fb0ea857e7debcc9972d05afebb0ba2335124775efefc0fc44381bc16",
      "assetIds": []
    },
    {
      "x": 34,
      "y": 351,
      "size": 1,
      "price": "1011000000000000000000",
      "reserved": "",
      "salt": "0xe42d51e0ba196540257c461358c1ae1cb1f53b5df47ba88c82bf7a8025e8e293",
      "assetIds": []
    },
    {
      "x": 34,
      "y": 352,
      "size": 1,
      "price": "1011000000000000000000",
      "reserved": "",
      "salt": "0xbe6d31160ebd720b140f5b5fb0a2cdc781c4be9e74db7acbfc1da6cf3541122d",
      "assetIds": []
    },
    {
      "x": 34,
      "y": 353,
      "size": 1,
      "price": "1011000000000000000000",
      "reserved": "",
      "salt": "0xcf7396556cd45a28f00f78672e9ef07229bc7d8d328b8700848320ac91d3b216",
      "assetIds": []
    },
    {
      "x": 34,
      "y": 354,
      "size": 1,
      "price": "1011000000000000000000",
      "reserved": "",
      "salt": "0xf127408b44073516678fb6667f86c017f69741a947dde065346e6bf040be5450",
      "assetIds": []
    },
    {
      "x": 34,
      "y": 355,
      "size": 1,
      "price": "1011000000000000000000",
      "reserved": "",
      "salt": "0xdb3094677fdeaeec37019fa878667d9ed80499f529fd7a14f83d71c83955acf8",
      "assetIds": []
    },
    {
      "x": 34,
      "y": 356,
      "size": 1,
      "price": "1011000000000000000000",
      "reserved": "",
      "salt": "0x2d0b33486c7b6f47883e1bed29cf1aec773a5eb58dd61d945a9c307aa0c4e1de",
      "assetIds": []
    },
    {
      "x": 34,
      "y": 357,
      "size": 1,
      "price": "1011000000000000000000",
      "reserved": "",
      "salt": "0xb74ec3c40bdbecdb53cc19f94857f1bd0d163650a989c1e759b33c45e44625d4",
      "assetIds": []
    },
    {
      "x": 34,
      "y": 358,
      "size": 1,
      "price": "1011000000000000000000",
      "reserved": "",
      "salt": "0x02f2763fb22f671db94a583ed13472c70ca0283cb8e1f0ddf101e17053c7a90c",
      "assetIds": []
    },
    {
      "x": 34,
      "y": 359,
      "size": 1,
      "price": "1011000000000000000000",
      "reserved": "",
      "salt": "0x934e76af7c5fa652c46c6db4b784a3bdf4e6487c428466bbd8929a3eff4f0ba0",
      "assetIds": []
    },
    {
      "x": 34,
      "y": 384,
      "size": 1,
      "price": "1011000000000000000000",
      "reserved": "",
      "salt": "0x6f86f2cc28521df0509c856a04062cfed0223ca103ab344cc3a6c0141a7f513c",
      "assetIds": []
    },
    {
      "x": 34,
      "y": 385,
      "size": 1,
      "price": "1011000000000000000000",
      "reserved": "",
      "salt": "0x965e6b037521fa62217fc64015300d8a9aaf3358c57e3a2ceee704c0ce43ed19",
      "assetIds": []
    },
    {
      "x": 34,
      "y": 386,
      "size": 1,
      "price": "1011000000000000000000",
      "reserved": "",
      "salt": "0xafb08769f66b9efb2f3dd787638dfa9c3a8312cb335f6b4e1fe37d93b1866c06",
      "assetIds": []
    },
    {
      "x": 34,
      "y": 387,
      "size": 1,
      "price": "1011000000000000000000",
      "reserved": "0x7a9fe22691c811ea339d9b73150e6911a5343dca",
      "salt": "0xe2c2df4b339d30f471a586499498b3671eb1c7cb8729ad19cd1a682f79d57193",
      "assetIds": []
    },
    {
      "x": 34,
      "y": 388,
      "size": 1,
      "price": "4683000000000000000000",
      "reserved": "",
      "salt": "0x7da2e86be65be70132ac0ec81c5cb0713c41d15a8a46dc7efb16f9f84de2b529",
      "assetIds": [
        "41506478881403507969696680653240014914910929820314476107906210059990541021186"
      ]
    },
    {
      "x": 34,
      "y": 389,
      "size": 1,
      "price": "1011000000000000000000",
      "reserved": "",
      "salt": "0xe9cea55e31828768c31368862d3982a66767851db4f3fdf3ccd17ae888cc4e13",
      "assetIds": []
    },
    {
      "x": 34,
      "y": 390,
      "size": 1,
      "price": "4683000000000000000000",
      "reserved": "",
      "salt": "0x6c3825b9bbffec012963eabced6f79d9e2a624a7d4d5c1d17b6c89e9b26c4770",
      "assetIds": [
        "41506478881403507969696680653240014914910929820314476107906210059990541021186"
      ]
    },
    {
      "x": 34,
      "y": 391,
      "size": 1,
      "price": "4683000000000000000000",
      "reserved": "",
      "salt": "0x84e7accfc7f4755bd85ab2849d33b22982c1144979d071a2e18f53f2eaf7e8b3",
      "assetIds": [
        "41506478881403507969696680653240014914910929820314476107906210059990541021186"
      ]
    },
    {
      "x": 34,
      "y": 392,
      "size": 1,
      "price": "1011000000000000000000",
      "reserved": "0x7a9fe22691c811ea339d9b73150e6911a5343dca",
      "salt": "0x71aff4ba349f6898b02d42027de5d16f03dbfb6f2fe53bb8b396175c3b032ece",
      "assetIds": []
    },
    {
      "x": 34,
      "y": 393,
      "size": 1,
      "price": "4683000000000000000000",
      "reserved": "",
      "salt": "0x17db441dfb02358967c67099b40b5a15d3ff2698ebe8beedc7eacd7c00776f3f",
      "assetIds": [
        "41506478881403507969696680653240014914910929820314476107906210059990541021186"
      ]
    },
    {
      "x": 34,
      "y": 394,
      "size": 1,
      "price": "1011000000000000000000",
      "reserved": "",
      "salt": "0xd26ac801b0328bc6fcf42ecf79af7a9d451417876031b70a7df92b49a2d11c1a",
      "assetIds": []
    },
    {
      "x": 34,
      "y": 395,
      "size": 1,
      "price": "1011000000000000000000",
      "reserved": "",
      "salt": "0xe2e92e985839e8cefc35d10e68e71e83d6bf5fbec5a6256fdcbf1fdd967d7749",
      "assetIds": []
    },
    {
      "x": 34,
      "y": 402,
      "size": 1,
      "price": "1011000000000000000000",
      "reserved": "",
      "salt": "0xa57536b96699ff09be380cd11b0c8577c48a28fb442c89d4e7d5612a412921fa",
      "assetIds": []
    },
    {
      "x": 34,
      "y": 403,
      "size": 1,
      "price": "1011000000000000000000",
      "reserved": "",
      "salt": "0xcb066a40c5c45717df86cdcf3433917b00bd3287693de35255adafd95abd9c2c",
      "assetIds": []
    },
    {
      "x": 34,
      "y": 404,
      "size": 1,
      "price": "1011000000000000000000",
      "reserved": "",
      "salt": "0x906a129f8ac83d79583852545e64b9f4dab97e423572f64250d8b8ddcefb27b9",
      "assetIds": []
    },
    {
      "x": 34,
      "y": 405,
      "size": 1,
      "price": "1011000000000000000000",
      "reserved": "",
      "salt": "0x906061e431751a87f21b864da58452bdd517d097f5b4df285a56b3fc45d92d3a",
      "assetIds": []
    },
    {
      "x": 34,
      "y": 406,
      "size": 1,
      "price": "1011000000000000000000",
      "reserved": "0x7a9fe22691c811ea339d9b73150e6911a5343dca",
      "salt": "0x50f7933813eb5306b3085624b3b30af62ae4cb1bfa43f542590b2db846d4fd82",
      "assetIds": []
    },
    {
      "x": 34,
      "y": 407,
      "size": 1,
      "price": "1011000000000000000000",
      "reserved": "",
      "salt": "0x99039ec73ecc90bb05ee994c07320ea2518547d4faba456066df5d2d3c0188b0",
      "assetIds": []
    },
    {
      "x": 35,
      "y": 346,
      "size": 1,
      "price": "1011000000000000000000",
      "reserved": "",
      "salt": "0xef8e8e8f6c74ff5618343a894a74734c6b3bd86f89245e43020818c2eb35d403",
      "assetIds": []
    },
    {
      "x": 35,
      "y": 347,
      "size": 1,
      "price": "1011000000000000000000",
      "reserved": "",
      "salt": "0xfab523262a04a63bb5fdbd7bb10acd5f6f4eae312e5895605ecde43fb94c9e85",
      "assetIds": []
    },
    {
      "x": 35,
      "y": 348,
      "size": 1,
      "price": "1011000000000000000000",
      "reserved": "",
      "salt": "0x2d2ef6538237b9d195b93041620ba92b9427de031e8c24046efd018357587ee9",
      "assetIds": []
    },
    {
      "x": 35,
      "y": 349,
      "size": 1,
      "price": "1011000000000000000000",
      "reserved": "",
      "salt": "0x0507bbbd538ec73db82accb5a23bef7024810667e9d6edf45d356d51da87a640",
      "assetIds": []
    },
    {
      "x": 35,
      "y": 350,
      "size": 1,
      "price": "1011000000000000000000",
      "reserved": "",
      "salt": "0xf91ce111b86bf2c5d07d11ee030caf9d34539f5ed7f94f6a2debe331d2e630b4",
      "assetIds": []
    },
    {
      "x": 35,
      "y": 351,
      "size": 1,
      "price": "1011000000000000000000",
      "reserved": "",
      "salt": "0x527da24d3ba66a9c93d962358bc91033c64d9681dd776e7553e92a3f084a1ae9",
      "assetIds": []
    },
    {
      "x": 35,
      "y": 352,
      "size": 1,
      "price": "1011000000000000000000",
      "reserved": "",
      "salt": "0x5bbbff03e81093ea8116da4aab99b3ed544aebc0ac32156474e48b0109f4b882",
      "assetIds": []
    },
    {
      "x": 35,
      "y": 353,
      "size": 1,
      "price": "1011000000000000000000",
      "reserved": "",
      "salt": "0x3ea5c8a5386fd99297eeb38707c44c4b09322d398dc33f2b22a83a557ab241a4",
      "assetIds": []
    },
    {
      "x": 35,
      "y": 354,
      "size": 1,
      "price": "1011000000000000000000",
      "reserved": "",
      "salt": "0x90c8e0536126b774bf91382431411f3e960006a424f7a9fdc3a8f6e1ea55f02e",
      "assetIds": []
    },
    {
      "x": 35,
      "y": 355,
      "size": 1,
      "price": "1011000000000000000000",
      "reserved": "",
      "salt": "0xb63ab5d69fa53218d19d66d4ad75c19820861cb29b90fd92e1efa2e141f7cf4b",
      "assetIds": []
    },
    {
      "x": 35,
      "y": 356,
      "size": 1,
      "price": "1011000000000000000000",
      "reserved": "",
      "salt": "0x3136d722d273b6e114eef152021412df9e6af276902e25f793b42639f6230053",
      "assetIds": []
    },
    {
      "x": 35,
      "y": 357,
      "size": 1,
      "price": "1011000000000000000000",
      "reserved": "",
      "salt": "0xad1f5858d018b36112785ae94cedd8d4cee1dd7dcc3e65892b34b62ea726837a",
      "assetIds": []
    },
    {
      "x": 35,
      "y": 358,
      "size": 1,
      "price": "1011000000000000000000",
      "reserved": "",
      "salt": "0x7d28d0c7961ff1bf1d59c02d20ec036cbc71496f1cf6e3e78601965f41590e9f",
      "assetIds": []
    },
    {
      "x": 35,
      "y": 359,
      "size": 1,
      "price": "1011000000000000000000",
      "reserved": "",
      "salt": "0x8b3f3eb80e44564474a9ca6b9a2c6331ff9a003b6275ca487601b1c19c46296b",
      "assetIds": []
    },
    {
      "x": 35,
      "y": 384,
      "size": 1,
      "price": "1011000000000000000000",
      "reserved": "",
      "salt": "0xa2515a072673883b0dd67197bcac3a28bab2f671256fd48b2766f51a335f2b3b",
      "assetIds": []
    },
    {
      "x": 35,
      "y": 385,
      "size": 1,
      "price": "1011000000000000000000",
      "reserved": "",
      "salt": "0xdc778e2e30e48aeb6dcec8c23006131b612a450be212e37802b75a32d5b79168",
      "assetIds": []
    },
    {
      "x": 35,
      "y": 386,
      "size": 1,
      "price": "1011000000000000000000",
      "reserved": "",
      "salt": "0xb0e5e216f9afd65b49d7647055fa04964ef815cdf212546a0363316617ca9362",
      "assetIds": []
    },
    {
      "x": 35,
      "y": 387,
      "size": 1,
      "price": "1011000000000000000000",
      "reserved": "",
      "salt": "0xc7665219e9ea39dafc02f9e6dc90c9042fa9aa6dd7df1330f46ac2dcb79740d7",
      "assetIds": []
    },
    {
      "x": 35,
      "y": 388,
      "size": 1,
      "price": "1011000000000000000000",
      "reserved": "",
      "salt": "0x92d621bf6c16f0f5160e22ba1949f52bc199968c1a74ddbabf99dbab9afbc426",
      "assetIds": []
    },
    {
      "x": 35,
      "y": 389,
      "size": 1,
      "price": "1011000000000000000000",
      "reserved": "",
      "salt": "0x433f48e52f9d6314dc9120a2185996a7569a3f2d134898d0e0b38279408df6e6",
      "assetIds": []
    },
    {
      "x": 35,
      "y": 390,
      "size": 1,
      "price": "1011000000000000000000",
      "reserved": "0x7a9fe22691c811ea339d9b73150e6911a5343dca",
      "salt": "0x767735142140092dcb3b0c5ecfde365d1e8203073a262711a514a548063f68c2",
      "assetIds": []
    },
    {
      "x": 35,
      "y": 391,
      "size": 1,
      "price": "1011000000000000000000",
      "reserved": "",
      "salt": "0x27956f3d1a4d5867745a23280e539db169e54ded4b65564834c32b5b9a962376",
      "assetIds": []
    },
    {
      "x": 35,
      "y": 392,
      "size": 1,
      "price": "4683000000000000000000",
      "reserved": "",
      "salt": "0x40615c8a427c16709057c63bf7de3bed9c11ed7de70d7d1df6e2aaf45630a1f1",
      "assetIds": [
        "41506478881403507969696680653240014914910929820314476107906210059990541021186"
      ]
    },
    {
      "x": 35,
      "y": 393,
      "size": 1,
      "price": "1011000000000000000000",
      "reserved": "",
      "salt": "0x8c2c759f20de935ac8def38060f093d38fd343599d23faf464b108aa50fbccbc",
      "assetIds": []
    },
    {
      "x": 35,
      "y": 394,
      "size": 1,
      "price": "1011000000000000000000",
      "reserved": "",
      "salt": "0x623464cf0a5de5ab2590d05dd84ae87a63e2a2bc40428c8b60a634dcad50903c",
      "assetIds": []
    },
    {
      "x": 35,
      "y": 395,
      "size": 1,
      "price": "1011000000000000000000",
      "reserved": "",
      "salt": "0x5d5610240a9d67aa332e7f2edaa9d8f20138cc0269cb7a16952dae0c4c7798f7",
      "assetIds": []
    },
    {
      "x": 35,
      "y": 402,
      "size": 1,
      "price": "1011000000000000000000",
      "reserved": "",
      "salt": "0x5521ca29513ad51c26ea00c0951bef3af2eea6ee6aae79f03dde107545c2f850",
      "assetIds": []
    },
    {
      "x": 35,
      "y": 403,
      "size": 1,
      "price": "1011000000000000000000",
      "reserved": "",
      "salt": "0x4008365197c8ba56e8510044a5a724ff7c0d8ba1a0c691b52167ac3629240eea",
      "assetIds": []
    },
    {
      "x": 35,
      "y": 404,
      "size": 1,
      "price": "1011000000000000000000",
      "reserved": "",
      "salt": "0x3bea484136c8c3299a71b605c1d2fd50dd8e0b81f2185f543fc3d0b3e780144d",
      "assetIds": []
    },
    {
      "x": 35,
      "y": 405,
      "size": 1,
      "price": "1011000000000000000000",
      "reserved": "",
      "salt": "0x74d4fde48d1693b9805a018e3289abb5002325fd51a9188c9574f0bc53092f79",
      "assetIds": []
    },
    {
      "x": 35,
      "y": 406,
      "size": 1,
      "price": "1011000000000000000000",
      "reserved": "",
      "salt": "0xcf3d587b86af19c9834c95fe95a71572d50fb4f2919f1a4f77879b6c0c7662cd",
      "assetIds": []
    },
    {
      "x": 35,
      "y": 407,
      "size": 1,
      "price": "1011000000000000000000",
      "reserved": "",
      "salt": "0xf98cf6cdf50da4dbb950c40718104bf47554252bf40de5150cde4cd0ac2cd31b",
      "assetIds": []
    },
    {
      "x": 36,
      "y": 346,
      "size": 1,
      "price": "1011000000000000000000",
      "reserved": "",
      "salt": "0x0d474c22ca2b03fdd0d4d4a2dfe6c6da2986387ec933fbaf16d83404ca2e1129",
      "assetIds": []
    },
    {
      "x": 36,
      "y": 347,
      "size": 1,
      "price": "1011000000000000000000",
      "reserved": "",
      "salt": "0x0b40426e51cd3901ae25dd3d9c2f2bcf32f508772778a2b7438e74e2f1f73541",
      "assetIds": []
    },
    {
      "x": 36,
      "y": 348,
      "size": 1,
      "price": "1011000000000000000000",
      "reserved": "",
      "salt": "0xb7782bcd61f4285d81a3431b42142aade8b62ab84631ec26c2fd19384e8b6cc0",
      "assetIds": []
    },
    {
      "x": 36,
      "y": 349,
      "size": 1,
      "price": "1011000000000000000000",
      "reserved": "",
      "salt": "0xaf1918be8a3cbe2b28d8996e7ac64dbb8da07272ad3e445afb50c8457329d103",
      "assetIds": []
    },
    {
      "x": 36,
      "y": 350,
      "size": 1,
      "price": "1011000000000000000000",
      "reserved": "",
      "salt": "0x0fb3d84501f0e855ae091d57af86e8da7875dfd83229ba5a3753aaccb7d9de3c",
      "assetIds": []
    },
    {
      "x": 36,
      "y": 351,
      "size": 1,
      "price": "1011000000000000000000",
      "reserved": "",
      "salt": "0x9364f0f5d18b789b762d309295dd4d0ada40f6cf59cb78a658f913b9d526bd93",
      "assetIds": []
    },
    {
      "x": 36,
      "y": 352,
      "size": 1,
      "price": "1011000000000000000000",
      "reserved": "",
      "salt": "0xdac5ab91f0b16559d3ab773f8a9c37468855d84e069ded19b0442b6246067e33",
      "assetIds": []
    },
    {
      "x": 36,
      "y": 353,
      "size": 1,
      "price": "1011000000000000000000",
      "reserved": "",
      "salt": "0x7c9395a76a8d71b02f2abec230e0e719627c57d89cf03fdeb2f5dce828b0d1e5",
      "assetIds": []
    },
    {
      "x": 37,
      "y": 346,
      "size": 1,
      "price": "1011000000000000000000",
      "reserved": "",
      "salt": "0xe27a85eb999854682ca9085c94dcacce69f08993db3bc7c332ff8d82c15fdbd9",
      "assetIds": []
    },
    {
      "x": 37,
      "y": 347,
      "size": 1,
      "price": "1011000000000000000000",
      "reserved": "",
      "salt": "0x805dfc1d0ab56443ac3420a252037de4d488874bf0193ef6833cfb88036d3073",
      "assetIds": []
    },
    {
      "x": 37,
      "y": 348,
      "size": 1,
      "price": "1011000000000000000000",
      "reserved": "",
      "salt": "0x61617730cfb075bdf969db752a42874494017027078494e40d6d20286f5df72c",
      "assetIds": []
    },
    {
      "x": 37,
      "y": 349,
      "size": 1,
      "price": "1011000000000000000000",
      "reserved": "",
      "salt": "0xda291f6a664b7cc872e8da27713c454f93fd3bd2c464e2f3f5739cab178a68d5",
      "assetIds": []
    },
    {
      "x": 37,
      "y": 350,
      "size": 1,
      "price": "1011000000000000000000",
      "reserved": "",
      "salt": "0xf95aef760c8610570a23bd86b3e4d1de8c02bdbb4c424104f5c2f1c82af40a22",
      "assetIds": []
    },
    {
      "x": 37,
      "y": 351,
      "size": 1,
      "price": "1011000000000000000000",
      "reserved": "0x7a9fe22691c811ea339d9b73150e6911a5343dca",
      "salt": "0xa05810895f84335c891ec983df1b260ec89625a4a27908951d5c987fdedbeee6",
      "assetIds": []
    },
    {
      "x": 37,
      "y": 352,
      "size": 1,
      "price": "1011000000000000000000",
      "reserved": "",
      "salt": "0xf1c1f0198e2c6dd6a5663a4c1cccc61e4824117ff12dd2306b70f39bfa69c3b2",
      "assetIds": []
    },
    {
      "x": 37,
      "y": 353,
      "size": 1,
      "price": "1011000000000000000000",
      "reserved": "",
      "salt": "0xc15ba3219f30d729ffcf357377b6d3a02e14b3f27794d47526b75022b9c93c7c",
      "assetIds": []
    },
    {
      "x": 38,
      "y": 346,
      "size": 1,
      "price": "1011000000000000000000",
      "reserved": "",
      "salt": "0x11712dfcd020911f7544dbdf36533c37b2a8021ea9b7a65794a27f72cbe917d1",
      "assetIds": []
    },
    {
      "x": 38,
      "y": 347,
      "size": 1,
      "price": "1011000000000000000000",
      "reserved": "0x7a9fe22691c811ea339d9b73150e6911a5343dca",
      "salt": "0x070b3ca293ac0a209493ec817419463106e42bd349d33785382b7ed8eeb466a1",
      "assetIds": []
    },
    {
      "x": 38,
      "y": 348,
      "size": 1,
      "price": "1011000000000000000000",
      "reserved": "",
      "salt": "0xabb52e1c6de636d19419329ec4e784c061e2225c90c26ab66da785cddf97518b",
      "assetIds": []
    },
    {
      "x": 38,
      "y": 349,
      "size": 1,
      "price": "1011000000000000000000",
      "reserved": "",
      "salt": "0x5a27281f1447ad31fd46dbd5346d0e0e7e41c670126ea2f0dc1e21f10e2029be",
      "assetIds": []
    },
    {
      "x": 38,
      "y": 350,
      "size": 1,
      "price": "1011000000000000000000",
      "reserved": "",
      "salt": "0xac6f7187c749408831b57cbe007f2ddfdee0df703ba3ba10aac519b8d9f26ec6",
      "assetIds": []
    },
    {
      "x": 38,
      "y": 351,
      "size": 1,
      "price": "1011000000000000000000",
      "reserved": "",
      "salt": "0x740186527200c25cf144b68625cb941d72c6ee5843429a9259ff68cfb77135f5",
      "assetIds": []
    },
    {
      "x": 38,
      "y": 352,
      "size": 1,
      "price": "1011000000000000000000",
      "reserved": "",
      "salt": "0x7dd49b3565af628a1ead79682ac4cc3bde1fa32a6a0e110e4c921ce6e24094c6",
      "assetIds": []
    },
    {
      "x": 38,
      "y": 353,
      "size": 1,
      "price": "1011000000000000000000",
      "reserved": "0x7a9fe22691c811ea339d9b73150e6911a5343dca",
      "salt": "0x5393749d592d4c4d87306e9981ae74647e1a30bf69150e098538c04a03bf8da2",
      "assetIds": []
    },
    {
      "x": 39,
      "y": 348,
      "size": 1,
      "price": "1011000000000000000000",
      "reserved": "",
      "salt": "0x781f482b585652a77f2657f37fc8cc8f2fbd356ce5b7b5cf36a7014dacb4849d",
      "assetIds": []
    },
    {
      "x": 39,
      "y": 349,
      "size": 1,
      "price": "1011000000000000000000",
      "reserved": "",
      "salt": "0x823a444bb71a637124df5ec8f5a53635ba4284fe41283b72931b4566f2fccc7b",
      "assetIds": []
    },
    {
      "x": 39,
      "y": 350,
      "size": 1,
      "price": "1011000000000000000000",
      "reserved": "",
      "salt": "0xafa3e67d8d97548609bfd3e608bc7337cf1fcd9ca7d6984ff90cdf5b2487aecd",
      "assetIds": []
    },
    {
      "x": 39,
      "y": 351,
      "size": 1,
      "price": "1011000000000000000000",
      "reserved": "",
      "salt": "0x0449d03c0969b5e5001544bb71bdb0f30f3ae52691063e5be2b286ce64ace5d1",
      "assetIds": []
    },
    {
      "x": 39,
      "y": 352,
      "size": 1,
      "price": "1011000000000000000000",
      "reserved": "",
      "salt": "0x88cd4851be53bec2570e37adaefb07b14ce1a1aab2d2ecb7a891e29c4112f6b4",
      "assetIds": []
    },
    {
      "x": 39,
      "y": 353,
      "size": 1,
      "price": "1011000000000000000000",
      "reserved": "",
      "salt": "0xe205eec64e355eb9f84e0a7f7d5fa7049bbce1311ac74d8635a63c6d911d1613",
      "assetIds": []
    },
    {
      "x": 40,
      "y": 348,
      "size": 1,
      "price": "1011000000000000000000",
      "reserved": "",
      "salt": "0x943a218afd98d776c40def1ea0123621e73fc6710af984b6d3a53db413fccc8d",
      "assetIds": []
    },
    {
      "x": 40,
      "y": 349,
      "size": 1,
      "price": "1011000000000000000000",
      "reserved": "",
      "salt": "0x8ccb0930be52516a3ceb5d236336bd28cccc025d8a0a73367456b447a8adad9f",
      "assetIds": []
    },
    {
      "x": 40,
      "y": 350,
      "size": 1,
      "price": "1011000000000000000000",
      "reserved": "",
      "salt": "0xbb44e2ba8a12b17af0444b8ef5b8a34cf83e6e87272c4ff37e18290c6084d46d",
      "assetIds": []
    },
    {
      "x": 40,
      "y": 351,
      "size": 1,
      "price": "1011000000000000000000",
      "reserved": "",
      "salt": "0xec5bf2a90af1daac2476cee817ffe2c56b4911a3056b2064b7edb80555d3fdf8",
      "assetIds": []
    },
    {
      "x": 40,
      "y": 352,
      "size": 1,
      "price": "1011000000000000000000",
      "reserved": "",
      "salt": "0x302795840b3f4fca1cd3b9a18e285cbf43fced739671dabac52d8f198f83b533",
      "assetIds": []
    },
    {
      "x": 40,
      "y": 353,
      "size": 1,
      "price": "1011000000000000000000",
      "reserved": "",
      "salt": "0x4b414850dfb265ba90642bb47de17b6a9a64fb3df1d0b36277d18e4fe29bbdb5",
      "assetIds": []
    },
    {
      "x": 41,
      "y": 348,
      "size": 1,
      "price": "1011000000000000000000",
      "reserved": "",
      "salt": "0x5d527bf3a4141ce766ac4b37a34b7f4b70e297288480da3b4d6cefa749e440c7",
      "assetIds": []
    },
    {
      "x": 41,
      "y": 349,
      "size": 1,
      "price": "1011000000000000000000",
      "reserved": "0x7a9fe22691c811ea339d9b73150e6911a5343dca",
      "salt": "0x4eff3941f17cc65d93419a01265d45dc4e42cf41cbe254f69e0da44b06720b04",
      "assetIds": []
    },
    {
      "x": 41,
      "y": 350,
      "size": 1,
      "price": "1011000000000000000000",
      "reserved": "",
      "salt": "0x95097d594bb683cba677217f80d2e5db54e8a21050599be366bceb788245db54",
      "assetIds": []
    },
    {
      "x": 41,
      "y": 351,
      "size": 1,
      "price": "1011000000000000000000",
      "reserved": "",
      "salt": "0x44bbb043e390d5e7ac66c126c92d7bd6066867d246dfe8f91a1c995a4366e8e0",
      "assetIds": []
    },
    {
      "x": 41,
      "y": 352,
      "size": 1,
      "price": "1011000000000000000000",
      "reserved": "",
      "salt": "0x9aa6839582d51fd45990281b2142ed66ae8dc53cec24be0dbd7bab89c89445b1",
      "assetIds": []
    },
    {
      "x": 41,
      "y": 353,
      "size": 1,
      "price": "1011000000000000000000",
      "reserved": "",
      "salt": "0x3b38f4f7e71d7782b0b5c6b56ac7111e02aa4949df2ac9c87e39b9b7fe951573",
      "assetIds": []
    },
    {
      "x": 42,
      "y": 351,
      "size": 1,
      "price": "1011000000000000000000",
      "reserved": "",
      "salt": "0x63e2f698fa848715f37876d131e9e6c09bd81075bdafa7dbe9915a3b12f33173",
      "assetIds": []
    },
    {
      "x": 42,
      "y": 352,
      "size": 1,
      "price": "1011000000000000000000",
      "reserved": "",
      "salt": "0xf2c39a904e3d673a0fa51b4d9ea03cba1a3d877927ad215db7bdc8e35f391f5a",
      "assetIds": []
    },
    {
      "x": 42,
      "y": 353,
      "size": 1,
      "price": "1011000000000000000000",
      "reserved": "",
      "salt": "0x74463b723250661f7d35b3cd866f9ac9a227bd23ba8ac3ea4ec8c1a2138bc356",
      "assetIds": []
    },
    {
      "x": 42,
      "y": 354,
      "size": 1,
      "price": "1011000000000000000000",
      "reserved": "",
      "salt": "0x2908556d81c67b8604252473f36fb0bbd0e005aefa28a15d4a149867f968c7e5",
      "assetIds": []
    },
    {
      "x": 42,
      "y": 355,
      "size": 1,
      "price": "1011000000000000000000",
      "reserved": "",
      "salt": "0x2588316f08706a2e354bcea573c87623b4cc7e32a356829bfd01c2862fe96301",
      "assetIds": []
    },
    {
      "x": 42,
      "y": 356,
      "size": 1,
      "price": "1011000000000000000000",
      "reserved": "",
      "salt": "0x541d7abce8cdbc4313c0764043477335306931791ed8793d65cfc78ae6d66de8",
      "assetIds": []
    },
    {
      "x": 42,
      "y": 357,
      "size": 1,
      "price": "1011000000000000000000",
      "reserved": "",
      "salt": "0x365c3d1fa9362743e82b6485e165f0b43084939f0747b13467e2fdcab948eab7",
      "assetIds": []
    },
    {
      "x": 42,
      "y": 358,
      "size": 1,
      "price": "1011000000000000000000",
      "reserved": "",
      "salt": "0x14cea2b06ece1250896134fb7ae9a8512dac29d1eb495fa456be51d75b4dfcbf",
      "assetIds": []
    },
    {
      "x": 42,
      "y": 359,
      "size": 1,
      "price": "1011000000000000000000",
      "reserved": "",
      "salt": "0x52314ce1f118f1a7a2b72b6f298aa94555cd2aa76eed81a22f4a0746a66a32ea",
      "assetIds": []
    },
    {
      "x": 43,
      "y": 351,
      "size": 1,
      "price": "1011000000000000000000",
      "reserved": "",
      "salt": "0x7ff2f855ad61413a203fa5781f191f69b40eca24ae857fa981796f49b42a1309",
      "assetIds": []
    },
    {
      "x": 43,
      "y": 352,
      "size": 1,
      "price": "1011000000000000000000",
      "reserved": "",
      "salt": "0x89194afbd58b68b550367d2a051dda165c1ea6de422a9e6342594bd8b4d4258c",
      "assetIds": []
    },
    {
      "x": 43,
      "y": 353,
      "size": 1,
      "price": "1011000000000000000000",
      "reserved": "",
      "salt": "0x84ba8bbbd25349a22e4233346da28483cee4249a2995b663a9e687d8d28d833c",
      "assetIds": []
    },
    {
      "x": 43,
      "y": 354,
      "size": 1,
      "price": "1011000000000000000000",
      "reserved": "",
      "salt": "0x8f3fe58bb9f60aa92fdfed0441a8c187e92fe828fae7460fc6650f35d4136da7",
      "assetIds": []
    },
    {
      "x": 43,
      "y": 355,
      "size": 1,
      "price": "1011000000000000000000",
      "reserved": "",
      "salt": "0x4299bca49eb5f08494e2e6a98e966f16ce5ca064b4b7a6bb1af2cc57aa2c4e9a",
      "assetIds": []
    },
    {
      "x": 43,
      "y": 356,
      "size": 1,
      "price": "1011000000000000000000",
      "reserved": "",
      "salt": "0x71e09a4ca4f2f689d8c832025cea588fdf5a4e20e3302d5a1ff57659aa7657b3",
      "assetIds": []
    },
    {
      "x": 43,
      "y": 357,
      "size": 1,
      "price": "1011000000000000000000",
      "reserved": "",
      "salt": "0xa256509a2dc9e05175d608d915739ebbb9ad5c5025588d2cc5767331149c9a17",
      "assetIds": []
    },
    {
      "x": 43,
      "y": 358,
      "size": 1,
      "price": "1011000000000000000000",
      "reserved": "",
      "salt": "0x8d26a451a3d2622ab4e421679a128ade824868596f73b1f0fcffe66f9da5f998",
      "assetIds": []
    },
    {
      "x": 43,
      "y": 359,
      "size": 1,
      "price": "1011000000000000000000",
      "reserved": "",
      "salt": "0x5dab79a8314d7e95dcd2a2a8f5c4e032ba3266f47db06243e32c00ee9fe53cbc",
      "assetIds": []
    },
    {
      "x": 44,
      "y": 351,
      "size": 1,
      "price": "4683000000000000000000",
      "reserved": "",
      "salt": "0x3e69aedb246d3ae40d1a005f5e1edd0c9df7187c04a6da189a5a3a0eca438525",
      "assetIds": [
        "41506478881403507969696680653240014914910929820314476107906210059990541021186"
      ]
    },
    {
      "x": 44,
      "y": 352,
      "size": 1,
      "price": "4683000000000000000000",
      "reserved": "",
      "salt": "0xead99c958ee648089cfe95120b51f12acc0bc401c2814675ad91be9c3be521ea",
      "assetIds": [
        "41506478881403507969696680653240014914910929820314476107906210059990541021186"
      ]
    },
    {
      "x": 44,
      "y": 353,
      "size": 1,
      "price": "1011000000000000000000",
      "reserved": "0x7a9fe22691c811ea339d9b73150e6911a5343dca",
      "salt": "0xb05c58c5102ae562d6a9513a8813da71e0c697eaaf3c3f11e46e8f930243f14d",
      "assetIds": []
    },
    {
      "x": 44,
      "y": 354,
      "size": 1,
      "price": "4683000000000000000000",
      "reserved": "",
      "salt": "0x6b1c3a61509b2af09e390a35f527df2159f79fb273fe0df31d8a78b0923bd417",
      "assetIds": [
        "41506478881403507969696680653240014914910929820314476107906210059990541021186"
      ]
    },
    {
      "x": 44,
      "y": 355,
      "size": 1,
      "price": "1011000000000000000000",
      "reserved": "0x7a9fe22691c811ea339d9b73150e6911a5343dca",
      "salt": "0x159e4a16ffd0b488fee234ec6329202da0de948704b58953a2a76523479d8556",
      "assetIds": []
    },
    {
      "x": 44,
      "y": 356,
      "size": 1,
      "price": "1011000000000000000000",
      "reserved": "",
      "salt": "0x5ddfd4eb4b7c6ca5993764d8dba9abc3e4bbad6aa07a319f0632a58172530fc6",
      "assetIds": []
    },
    {
      "x": 44,
      "y": 357,
      "size": 1,
      "price": "1011000000000000000000",
      "reserved": "",
      "salt": "0xb97cd22efebc81de2d79a8d52690832727906e4b0becb705ecbbb807523d385d",
      "assetIds": []
    },
    {
      "x": 44,
      "y": 358,
      "size": 1,
      "price": "1011000000000000000000",
      "reserved": "",
      "salt": "0x2331af30bd527daae4fb8d6dfed350801b332231576673790706b33762ebfc28",
      "assetIds": []
    },
    {
      "x": 44,
      "y": 359,
      "size": 1,
      "price": "1011000000000000000000",
      "reserved": "",
      "salt": "0x25679dbc3be717ffe46bc9c1a98163b68d0d0262cd7731bfffa2d002577512f1",
      "assetIds": []
    },
    {
      "x": 45,
      "y": 351,
      "size": 1,
      "price": "4683000000000000000000",
      "reserved": "",
      "salt": "0x89476d40f83f160915882c0eb713a6fc1b349490f5f36f28d6202c1746535008",
      "assetIds": [
        "41506478881403507969696680653240014914910929820314476107906210059990541021186"
      ]
    },
    {
      "x": 45,
      "y": 352,
      "size": 1,
      "price": "4683000000000000000000",
      "reserved": "",
      "salt": "0xa0e3579b27131ac1d71448de74f6fb940620ef79b820dea5c1f8e057c8784cd2",
      "assetIds": [
        "41506478881403507969696680653240014914910929820314476107906210059990541021186"
      ]
    },
    {
      "x": 45,
      "y": 353,
      "size": 1,
      "price": "4683000000000000000000",
      "reserved": "",
      "salt": "0x5f1203e48b4f1d76ba722526174e82ab630d45d79c0be4566636af5c09b5820c",
      "assetIds": [
        "41506478881403507969696680653240014914910929820314476107906210059990541021186"
      ]
    },
    {
      "x": 45,
      "y": 354,
      "size": 1,
      "price": "4683000000000000000000",
      "reserved": "",
      "salt": "0xb979ebb16b3d38838614d9115f5ab3abc7ecf49bc6f5ab44eb33329f6d73e55c",
      "assetIds": [
        "41506478881403507969696680653240014914910929820314476107906210059990541021186"
      ]
    },
    {
      "x": 45,
      "y": 355,
      "size": 1,
      "price": "4683000000000000000000",
      "reserved": "",
      "salt": "0x8f77462c5af1e063e6f639b9cd1f10200b8470b072bf0a6206275e89e41c4e3a",
      "assetIds": [
        "41506478881403507969696680653240014914910929820314476107906210059990541021186"
      ]
    },
    {
      "x": 45,
      "y": 356,
      "size": 1,
      "price": "1011000000000000000000",
      "reserved": "",
      "salt": "0x1a644674eb476e3e49fc7169ebf0886fdc1a73838bd544178d9888c38af7a34a",
      "assetIds": []
    },
    {
      "x": 45,
      "y": 357,
      "size": 1,
      "price": "1011000000000000000000",
      "reserved": "",
      "salt": "0x28ff4a9661fc4643ff79a7d7f9b4f0594590e3929bd5fffaa6b2c3895e036193",
      "assetIds": []
    },
    {
      "x": 45,
      "y": 358,
      "size": 1,
      "price": "1011000000000000000000",
      "reserved": "",
      "salt": "0xa64274f3a0672cd6681b305fae85e62859f8494f5f124c0ed1eb302676531888",
      "assetIds": []
    },
    {
      "x": 45,
      "y": 359,
      "size": 1,
      "price": "1011000000000000000000",
      "reserved": "",
      "salt": "0x07a02efe9f7c1e95a2af7c9572cb96398b00c855e5c686804fa5f7d499367ce4",
      "assetIds": []
    },
    {
      "x": 46,
      "y": 351,
      "size": 1,
      "price": "4683000000000000000000",
      "reserved": "",
      "salt": "0x2290d56ebc8f5fddaf040a9cfdd6b2d6328088b9bd66ceac85ecd30dd1ace1b6",
      "assetIds": [
        "41506478881403507969696680653240014914910929820314476107906210059990541021186"
      ]
    },
    {
      "x": 46,
      "y": 352,
      "size": 1,
      "price": "4683000000000000000000",
      "reserved": "",
      "salt": "0xf955c8b96bc93eca352cb0843981054cf731e3158b9ba85f0dbbb0a58ce83fad",
      "assetIds": [
        "41506478881403507969696680653240014914910929820314476107906210059990541021186"
      ]
    },
    {
      "x": 46,
      "y": 353,
      "size": 1,
      "price": "4683000000000000000000",
      "reserved": "",
      "salt": "0xc0725e7f8615e5e9327a7c8d417fe5b56220b100ff0277a491153cb9e95fa4f7",
      "assetIds": [
        "41506478881403507969696680653240014914910929820314476107906210059990541021186"
      ]
    },
    {
      "x": 46,
      "y": 354,
      "size": 1,
      "price": "4683000000000000000000",
      "reserved": "",
      "salt": "0x1b4f74e8d16120fe6b6876cc68bb1c2f73103126f2a77ce064c16f1624df7c1d",
      "assetIds": [
        "41506478881403507969696680653240014914910929820314476107906210059990541021186"
      ]
    },
    {
      "x": 46,
      "y": 355,
      "size": 1,
      "price": "4683000000000000000000",
      "reserved": "",
      "salt": "0x5e3497e333d52f9a6d87765bcaa8166b4d078561813f89460f7c216b1187a93d",
      "assetIds": [
        "41506478881403507969696680653240014914910929820314476107906210059990541021186"
      ]
    },
    {
      "x": 46,
      "y": 356,
      "size": 1,
      "price": "1011000000000000000000",
      "reserved": "",
      "salt": "0x77687674750af8f47677d24db3e3baffdf0b39f1d6a8cc9c2d95f622020bd1ae",
      "assetIds": []
    },
    {
      "x": 46,
      "y": 357,
      "size": 1,
      "price": "1011000000000000000000",
      "reserved": "",
      "salt": "0xeb327015f4c45cdfac8a1f6f060d9addd6905d59644f3d6ce806c366bfa3a8e9",
      "assetIds": []
    },
    {
      "x": 46,
      "y": 358,
      "size": 1,
      "price": "1011000000000000000000",
      "reserved": "",
      "salt": "0xcc5f891e6a451f8da886300aaca87224055cb6d294a144e403c3d976ecb2a335",
      "assetIds": []
    },
    {
      "x": 46,
      "y": 359,
      "size": 1,
      "price": "1011000000000000000000",
      "reserved": "",
      "salt": "0x862f52ee33da401fe2bc86f0cd8419d57e0c1fac666358b3af25da88314fb75e",
      "assetIds": []
    },
    {
      "x": 47,
      "y": 351,
      "size": 1,
      "price": "4683000000000000000000",
      "reserved": "",
      "salt": "0xc6bba38e224b3c98c5a8e67e40f73c7ef79f58ef475492f4d3eeee5b9b658146",
      "assetIds": [
        "41506478881403507969696680653240014914910929820314476107906210059990541021186"
      ]
    },
    {
      "x": 47,
      "y": 352,
      "size": 1,
      "price": "4683000000000000000000",
      "reserved": "",
      "salt": "0x8411f631db6914bfc1d787f6d7f5938c37405a8d71d11177da6c1c4646ebd83b",
      "assetIds": [
        "41506478881403507969696680653240014914910929820314476107906210059990541021186"
      ]
    },
    {
      "x": 47,
      "y": 353,
      "size": 1,
      "price": "4683000000000000000000",
      "reserved": "",
      "salt": "0xb10b6051532dd1a1a695b71ced39d53f1b5526ff0d4809106431723a13c51fe6",
      "assetIds": [
        "41506478881403507969696680653240014914910929820314476107906210059990541021186"
      ]
    },
    {
      "x": 47,
      "y": 354,
      "size": 1,
      "price": "4683000000000000000000",
      "reserved": "",
      "salt": "0x65f531d8e361bc017b797c62459aca6a503c1512e4a154d886bb426ca86815b4",
      "assetIds": [
        "41506478881403507969696680653240014914910929820314476107906210059990541021186"
      ]
    },
    {
      "x": 47,
      "y": 355,
      "size": 1,
      "price": "4683000000000000000000",
      "reserved": "",
      "salt": "0x0c7154b6a72e8288b211c09091d0c12a02f370bd8826ad45b99b23330652da89",
      "assetIds": [
        "41506478881403507969696680653240014914910929820314476107906210059990541021186"
      ]
    },
    {
      "x": 47,
      "y": 356,
      "size": 1,
      "price": "1011000000000000000000",
      "reserved": "",
      "salt": "0xfdbff1f4e2549df4fe40da34570603eaa266eb4d08651de7c1dcfe2e1751180e",
      "assetIds": []
    },
    {
      "x": 47,
      "y": 357,
      "size": 1,
      "price": "1011000000000000000000",
      "reserved": "",
      "salt": "0x376b0d55b7aae3c771cbb1820317db4e47bf71e006ee9af5b77502acd0a207ac",
      "assetIds": []
    },
    {
      "x": 47,
      "y": 358,
      "size": 1,
      "price": "1011000000000000000000",
      "reserved": "",
      "salt": "0xb80234246eaf22e3b6eeb6e3cab0c5c720320647f6961ac85ed96de5a576285f",
      "assetIds": []
    },
    {
      "x": 47,
      "y": 359,
      "size": 1,
      "price": "1011000000000000000000",
      "reserved": "",
      "salt": "0x901104300a73baeb6efcda64b8e83005cce06172efd91505c52635a8d28e5ab8",
      "assetIds": []
    },
    {
      "x": 54,
      "y": 348,
      "size": 1,
      "price": "4683000000000000000000",
      "reserved": "",
      "salt": "0x2e0b2db69e1b2a360ef1c3b03e88f03d671d8cfd2ab5a0e6e93255e72bc43588",
      "assetIds": [
        "41506478881403507969696680653240014914910929820314476107906210059990541021186"
      ]
    },
    {
      "x": 54,
      "y": 349,
      "size": 1,
      "price": "4683000000000000000000",
      "reserved": "",
      "salt": "0xb798fd879d709cac78df3c0ee337996d64d67f2ee565ceec45a25cb20f024849",
      "assetIds": [
        "41506478881403507969696680653240014914910929820314476107906210059990541021186"
      ]
    },
    {
      "x": 54,
      "y": 350,
      "size": 1,
      "price": "4683000000000000000000",
      "reserved": "",
      "salt": "0x25a35a9ce800ebd3e8b20f556f0ebb6c815e111047e13b8b011139bb57d3ea20",
      "assetIds": [
        "41506478881403507969696680653240014914910929820314476107906210059990541021186"
      ]
    },
    {
      "x": 54,
      "y": 351,
      "size": 1,
      "price": "4683000000000000000000",
      "reserved": "",
      "salt": "0x7ea158b6e5673c2da6ca858bd4ad9000d8c6ea8566ce9b61377459254b4a5746",
      "assetIds": [
        "41506478881403507969696680653240014914910929820314476107906210059990541021186"
      ]
    },
    {
      "x": 54,
      "y": 352,
      "size": 1,
      "price": "4683000000000000000000",
      "reserved": "",
      "salt": "0x36d2508618a18a283ccf9a7f933387c7a17635b8257d910b841ff4a57c79f1f5",
      "assetIds": [
        "41506478881403507969696680653240014914910929820314476107906210059990541021186"
      ]
    },
    {
      "x": 54,
      "y": 353,
      "size": 1,
      "price": "4683000000000000000000",
      "reserved": "",
      "salt": "0xfdb0d3b6256d8e40fddedc98bfc66893af09fa685bbe6a78033515f4889e22ee",
      "assetIds": [
        "41506478881403507969696680653240014914910929820314476107906210059990541021186"
      ]
    },
    {
      "x": 55,
      "y": 348,
      "size": 1,
      "price": "4683000000000000000000",
      "reserved": "",
      "salt": "0xd3ee68ee2764c103198b604d59cc0069dc781fe7ff32288ae7ff0b233a1761b6",
      "assetIds": [
        "41506478881403507969696680653240014914910929820314476107906210059990541021186"
      ]
    },
    {
      "x": 55,
      "y": 349,
      "size": 1,
      "price": "4683000000000000000000",
      "reserved": "",
      "salt": "0x8c9398e0750bec73e5e66e891877f3b23d6c12115300a22152285727ea9a554a",
      "assetIds": [
        "41506478881403507969696680653240014914910929820314476107906210059990541021186"
      ]
    },
    {
      "x": 55,
      "y": 350,
      "size": 1,
      "price": "4683000000000000000000",
      "reserved": "",
      "salt": "0xe71195a040277d033621d43ad15618c90c08f87d428cea64ead89be7364f61d1",
      "assetIds": [
        "41506478881403507969696680653240014914910929820314476107906210059990541021186"
      ]
    },
    {
      "x": 55,
      "y": 351,
      "size": 1,
      "price": "4683000000000000000000",
      "reserved": "",
      "salt": "0xd749f2fc4fe65b682ff78cd3de5424f8d93cec99fb97617cdf1d1cc725854abb",
      "assetIds": [
        "41506478881403507969696680653240014914910929820314476107906210059990541021186"
      ]
    },
    {
      "x": 55,
      "y": 352,
      "size": 1,
      "price": "4683000000000000000000",
      "reserved": "",
      "salt": "0x31380e8a85f8231a1b88a1430021e416dcad21a8da0e5ce88035ad63981a5406",
      "assetIds": [
        "41506478881403507969696680653240014914910929820314476107906210059990541021186"
      ]
    },
    {
      "x": 55,
      "y": 353,
      "size": 1,
      "price": "4683000000000000000000",
      "reserved": "",
      "salt": "0x1c3666e882f8cb297540eca514bc79a298dcbdd95650fdff2c05a4b2455a4c5f",
      "assetIds": [
        "41506478881403507969696680653240014914910929820314476107906210059990541021186"
      ]
    },
    {
      "x": 56,
      "y": 348,
      "size": 1,
      "price": "4683000000000000000000",
      "reserved": "",
      "salt": "0x9712bcbdc23d28d96c8bb31f4436ef50f9ae4a51e133a5db649a3c0546f5002b",
      "assetIds": [
        "41506478881403507969696680653240014914910929820314476107906210059990541021186"
      ]
    },
    {
      "x": 56,
      "y": 349,
      "size": 1,
      "price": "4683000000000000000000",
      "reserved": "",
      "salt": "0xf79e157e1e500ace8fdff4e6f6644b96ebecb2832a464d9cf114b262762aabb4",
      "assetIds": [
        "41506478881403507969696680653240014914910929820314476107906210059990541021186"
      ]
    },
    {
      "x": 56,
      "y": 350,
      "size": 1,
      "price": "4683000000000000000000",
      "reserved": "",
      "salt": "0x02514840ef40b03a69561c9ec93c26eac286a67f209bfec67b5642d0422737d6",
      "assetIds": [
        "41506478881403507969696680653240014914910929820314476107906210059990541021186"
      ]
    },
    {
      "x": 56,
      "y": 351,
      "size": 1,
      "price": "4683000000000000000000",
      "reserved": "",
      "salt": "0x3fa560ec98546d4bc29c27b6ef1cab79b781f00c1c39ebd0cefc78cf2a37fc36",
      "assetIds": [
        "41506478881403507969696680653240014914910929820314476107906210059990541021186"
      ]
    },
    {
      "x": 56,
      "y": 352,
      "size": 1,
      "price": "4683000000000000000000",
      "reserved": "",
      "salt": "0x46a39bcbaee4327f53949f35920e7f6461bfc6e6f7604e045f1f326a35857548",
      "assetIds": [
        "41506478881403507969696680653240014914910929820314476107906210059990541021186"
      ]
    },
    {
      "x": 56,
      "y": 353,
      "size": 1,
      "price": "4683000000000000000000",
      "reserved": "",
      "salt": "0x56889b49bc31220410059dbab8365b76bbeb8995c65edcfea8cd032ec317041f",
      "assetIds": [
        "41506478881403507969696680653240014914910929820314476107906210059990541021186"
      ]
    },
    {
      "x": 57,
      "y": 348,
      "size": 1,
      "price": "4683000000000000000000",
      "reserved": "",
      "salt": "0xd6405d01d40c885f93c39c2324c050fdeefb8c5c8690b995d9ed8c0f808ac785",
      "assetIds": [
        "41506478881403507969696680653240014914910929820314476107906210059990541021186"
      ]
    },
    {
      "x": 57,
      "y": 349,
      "size": 1,
      "price": "1011000000000000000000",
      "reserved": "0x7a9fe22691c811ea339d9b73150e6911a5343dca",
      "salt": "0x0b06f3bc3dd4cd449d9e64ab4da028fe688c0e1658a65328d26305b913f04bce",
      "assetIds": []
    },
    {
      "x": 57,
      "y": 350,
      "size": 1,
      "price": "4683000000000000000000",
      "reserved": "",
      "salt": "0xa9c9536e88e8bb624a84e379356ed77d2a2137c40723063929156dc4b2bec8bb",
      "assetIds": [
        "41506478881403507969696680653240014914910929820314476107906210059990541021186"
      ]
    },
    {
      "x": 57,
      "y": 351,
      "size": 1,
      "price": "4683000000000000000000",
      "reserved": "",
      "salt": "0x92c670f1c4d8953fc1538de86dc2b6f0e63e409bf55c290f494ea1bec8ecabdc",
      "assetIds": [
        "41506478881403507969696680653240014914910929820314476107906210059990541021186"
      ]
    },
    {
      "x": 57,
      "y": 352,
      "size": 1,
      "price": "4683000000000000000000",
      "reserved": "",
      "salt": "0xaa8da77c36eee4226a16982cb62127e10b75825edffed1ffaba5ccf1ccb4c012",
      "assetIds": [
        "41506478881403507969696680653240014914910929820314476107906210059990541021186"
      ]
    },
    {
      "x": 57,
      "y": 353,
      "size": 1,
      "price": "4683000000000000000000",
      "reserved": "",
      "salt": "0x90b8e5ddd0570027c2ad6813e96d40f4288042208d09a20baefb52d636207873",
      "assetIds": [
        "41506478881403507969696680653240014914910929820314476107906210059990541021186"
      ]
    },
    {
      "x": 58,
      "y": 348,
      "size": 1,
      "price": "1011000000000000000000",
      "reserved": "",
      "salt": "0xac8a1e5e23d639af950af18a72d8f14bd1b7d7799b4ea4363aad9979f7668ddc",
      "assetIds": []
    },
    {
      "x": 58,
      "y": 349,
      "size": 1,
      "price": "4683000000000000000000",
      "reserved": "",
      "salt": "0xbaaf0baa0fc686501dee6957d83d9e5a91f5925882070f490ac332ada15a7148",
      "assetIds": [
        "41506478881403507969696680653240014914910929820314476107906210059990541021186"
      ]
    },
    {
      "x": 58,
      "y": 350,
      "size": 1,
      "price": "1011000000000000000000",
      "reserved": "",
      "salt": "0x2c2a87f506e97d6979e3a9f092733bfd120136597e2b55daf07cd5f129263cd4",
      "assetIds": []
    },
    {
      "x": 58,
      "y": 351,
      "size": 1,
      "price": "1011000000000000000000",
      "reserved": "",
      "salt": "0x2905eff327e838167b3877663f8dc02a8110abfac5889a84b9420d7cecd766ee",
      "assetIds": []
    },
    {
      "x": 58,
      "y": 352,
      "size": 1,
      "price": "1011000000000000000000",
      "reserved": "",
      "salt": "0xd06db13292dbefe91ecf707097236563d555853cc225ced9b03d1482536f264d",
      "assetIds": []
    },
    {
      "x": 58,
      "y": 353,
      "size": 1,
      "price": "1011000000000000000000",
      "reserved": "0x7a9fe22691c811ea339d9b73150e6911a5343dca",
      "salt": "0x1cffa61af7c2a1f04519423f9ab2afdad35c3553f1a387fd0301f5b3b1ab31a3",
      "assetIds": []
    },
    {
      "x": 59,
      "y": 348,
      "size": 1,
      "price": "1011000000000000000000",
      "reserved": "",
      "salt": "0x52939c626712dbc9d4e9822ba8e1ce721d1f6f56763f2165c6fe905d9ca030e5",
      "assetIds": []
    },
    {
      "x": 59,
      "y": 349,
      "size": 1,
      "price": "1011000000000000000000",
      "reserved": "",
      "salt": "0xfa2864886373b65d67e64c1e7d98a0ec5c12caa8b2f1b295eb2bbf898d03bf4c",
      "assetIds": []
    },
    {
      "x": 59,
      "y": 350,
      "size": 1,
      "price": "1011000000000000000000",
      "reserved": "",
      "salt": "0x9fa9609f5d8db29f55d246bf3fdeadd1c70a9765372c7b9422548156f19234af",
      "assetIds": []
    },
    {
      "x": 59,
      "y": 351,
      "size": 1,
      "price": "1011000000000000000000",
      "reserved": "",
      "salt": "0x93a7dd31caf2cd9495790e221fef555bfac15d006b8cdc1035aef16e842d356d",
      "assetIds": []
    },
    {
      "x": 59,
      "y": 352,
      "size": 1,
      "price": "1011000000000000000000",
      "reserved": "",
      "salt": "0xaebec2828fadff9747b3321588500bcb1803fe487038aab06ce68d337f14b616",
      "assetIds": []
    },
    {
      "x": 59,
      "y": 353,
      "size": 1,
      "price": "1011000000000000000000",
      "reserved": "",
      "salt": "0x07f3cc4640a22b21411a598711ddd0045b0d735b90cf4284c180e1025b1bfdae",
      "assetIds": []
    },
    {
      "x": 60,
      "y": 348,
      "size": 1,
      "price": "1011000000000000000000",
      "reserved": "",
      "salt": "0x4ff88b6fcaebc86f7b2098bc9daa3e78b9ceac261f64fe9693e266fa9aaca225",
      "assetIds": []
    },
    {
      "x": 60,
      "y": 349,
      "size": 1,
      "price": "1011000000000000000000",
      "reserved": "",
      "salt": "0xa4c386c9e68edf9d6c71165bb4484b5d4f3b83d600a311f4c05d8a702182601a",
      "assetIds": []
    },
    {
      "x": 60,
      "y": 350,
      "size": 1,
      "price": "1011000000000000000000",
      "reserved": "",
      "salt": "0xe084ef9b21eb2d05cbd158220afb8bd2b8f90f8c65fcc7d3bfc34801fac530b6",
      "assetIds": []
    },
    {
      "x": 60,
      "y": 351,
      "size": 1,
      "price": "1011000000000000000000",
      "reserved": "",
      "salt": "0x8c614ce5fb6395b01aaf267743c36611085e8694cbe6dfa088a84dc2b387fda4",
      "assetIds": []
    },
    {
      "x": 60,
      "y": 352,
      "size": 1,
      "price": "1011000000000000000000",
      "reserved": "",
      "salt": "0x86f76f837d4893cc93c23c5b8398498df61c108cb753307ba4ba4233a8096215",
      "assetIds": []
    },
    {
      "x": 60,
      "y": 353,
      "size": 1,
      "price": "1011000000000000000000",
      "reserved": "",
      "salt": "0x9ff7315f501a76af6530be8065a58c43cc0df0fef7d0eb2d8c739055612a4258",
      "assetIds": []
    },
    {
      "x": 60,
      "y": 354,
      "size": 1,
      "price": "1011000000000000000000",
      "reserved": "",
      "salt": "0x67c61ce0cf76ff3ab6420920f552d901ab24f7478a0a7f6b8bc17a7578b2ca53",
      "assetIds": []
    },
    {
      "x": 61,
      "y": 348,
      "size": 1,
      "price": "1011000000000000000000",
      "reserved": "",
      "salt": "0xc37ed5bd8fe87e3bf224a31efff30a57943a0baa7390e798b98391a6bc5a92e2",
      "assetIds": []
    },
    {
      "x": 61,
      "y": 349,
      "size": 1,
      "price": "1011000000000000000000",
      "reserved": "",
      "salt": "0xa53aeb9dc56d8c5c22059d1c76467c132621880d9a10eb33a7c797e369fcb7fe",
      "assetIds": []
    },
    {
      "x": 61,
      "y": 350,
      "size": 1,
      "price": "1011000000000000000000",
      "reserved": "",
      "salt": "0x6d192ea4d78decefe8403def7dbd44aa1509c7ec0eb03633c004ebeac7a28f0c",
      "assetIds": []
    },
    {
      "x": 61,
      "y": 351,
      "size": 1,
      "price": "1011000000000000000000",
      "reserved": "",
      "salt": "0xd18d34d2ed9b0a1f1ea5b7eba1192da56c3917572b26a4ed889e3cc6fe2fdd49",
      "assetIds": []
    },
    {
      "x": 61,
      "y": 352,
      "size": 1,
      "price": "1011000000000000000000",
      "reserved": "",
      "salt": "0xa92fc05ad88c8feeaa5ad809f8e91b188d1b4f6c091fefb42b9cc81290325e2f",
      "assetIds": []
    },
    {
      "x": 61,
      "y": 353,
      "size": 1,
      "price": "1011000000000000000000",
      "reserved": "",
      "salt": "0xdc8f7a7290a2a0999a6ee927f6a43c71ef09cc2507045357d599f10a8e2d250a",
      "assetIds": []
    },
    {
      "x": 61,
      "y": 354,
      "size": 1,
      "price": "1011000000000000000000",
      "reserved": "",
      "salt": "0xe32b153bbcb12948a16ec241904b49575cd9052aea977c698c1e86d5263b4b87",
      "assetIds": []
    },
    {
      "x": 62,
      "y": 348,
      "size": 1,
      "price": "1011000000000000000000",
      "reserved": "",
      "salt": "0xc80da6989c248811a023c4e7266464f8453789a5e44b9a73bf773596675e0682",
      "assetIds": []
    },
    {
      "x": 62,
      "y": 349,
      "size": 1,
      "price": "1011000000000000000000",
      "reserved": "",
      "salt": "0xd8c900c9cd1273647650d08d55630163deaa40d5ee9cd1a53f155dd1fe52ad59",
      "assetIds": []
    },
    {
      "x": 62,
      "y": 350,
      "size": 1,
      "price": "1011000000000000000000",
      "reserved": "",
      "salt": "0xe054aba39f03891916c2b5e8e4c87a21ef7923b95c260011f6ad601bb6fed192",
      "assetIds": []
    },
    {
      "x": 62,
      "y": 351,
      "size": 1,
      "price": "1011000000000000000000",
      "reserved": "0x7a9fe22691c811ea339d9b73150e6911a5343dca",
      "salt": "0xd2b4c03562af2fb1e63ec0ec22fce11a2168fe186b05e90e8f3108d422b1f898",
      "assetIds": []
    },
    {
      "x": 62,
      "y": 352,
      "size": 1,
      "price": "1011000000000000000000",
      "reserved": "",
      "salt": "0x16dd5a84ad7f8b36a37cff2e24c30f4fbafbde6f78def9b61bbe3f499cb364d2",
      "assetIds": []
    },
    {
      "x": 62,
      "y": 353,
      "size": 1,
      "price": "1011000000000000000000",
      "reserved": "",
      "salt": "0xdd02a7ce4036e8407e1cf371faae0e4769e0204a7b4e8c52168542c65d86dbeb",
      "assetIds": []
    },
    {
      "x": 62,
      "y": 354,
      "size": 1,
      "price": "1011000000000000000000",
      "reserved": "0x7a9fe22691c811ea339d9b73150e6911a5343dca",
      "salt": "0x3d5db15174aa9b5fc0182edc8db7c993857ea2145caeba7ac1a3dd8885974f93",
      "assetIds": []
    },
    {
      "x": 63,
      "y": 348,
      "size": 1,
      "price": "1011000000000000000000",
      "reserved": "0x7a9fe22691c811ea339d9b73150e6911a5343dca",
      "salt": "0x43fec901460e3a8d7065766688fdda2dbcc6ef2636c09e0ced4e7340f3dd3f35",
      "assetIds": []
    },
    {
      "x": 63,
      "y": 349,
      "size": 1,
      "price": "1011000000000000000000",
      "reserved": "",
      "salt": "0xacc37a7bf4bf0fbf3f57046c428490954c26ae24fda4a4e927c2b9b89d3b7862",
      "assetIds": []
    },
    {
      "x": 63,
      "y": 350,
      "size": 1,
      "price": "1011000000000000000000",
      "reserved": "",
      "salt": "0xb066dda21a1ca86ca1e3a790af086ee0ae3faf400e1465a926e878ff9e63f96b",
      "assetIds": []
    },
    {
      "x": 63,
      "y": 351,
      "size": 1,
      "price": "1011000000000000000000",
      "reserved": "",
      "salt": "0x8545bd7aea364338d96df8df2395102b1e1ab4ba214f0cdb06d4252a15686f67",
      "assetIds": []
    },
    {
      "x": 63,
      "y": 352,
      "size": 1,
      "price": "1011000000000000000000",
      "reserved": "",
      "salt": "0x79a62dab62ed74d2efc3f73fc7175bafdfc7b74bb1d656cd3feb0b92ad9cf810",
      "assetIds": []
    },
    {
      "x": 63,
      "y": 353,
      "size": 1,
      "price": "1011000000000000000000",
      "reserved": "",
      "salt": "0xbbbe2ad20131bf03713550f5c7e8cd8a9b61e3f64dfa4589c4d46a8f8a458e66",
      "assetIds": []
    },
    {
      "x": 63,
      "y": 354,
      "size": 1,
      "price": "1011000000000000000000",
      "reserved": "",
      "salt": "0xb0c5ff71d5d2b96c6190eb3d9596072e5e83cc8038fe295da1955834b5f27cce",
      "assetIds": []
    },
    {
      "x": 64,
      "y": 348,
      "size": 1,
      "price": "1011000000000000000000",
      "reserved": "",
      "salt": "0x12df3f817dfaa4fba51bc121c8a599c537069183f50855d75900c04251c8bd47",
      "assetIds": []
    },
    {
      "x": 64,
      "y": 349,
      "size": 1,
      "price": "1011000000000000000000",
      "reserved": "",
      "salt": "0x2473d0e0b0c59ccca9db308b19ba82a1afe95e3acaabe74d181c7272c642ae8e",
      "assetIds": []
    },
    {
      "x": 64,
      "y": 350,
      "size": 1,
      "price": "1011000000000000000000",
      "reserved": "",
      "salt": "0x6ab7c28a32d38193b1fa183753a684e4c65d31598b3df9281b80b851c0074569",
      "assetIds": []
    },
    {
      "x": 64,
      "y": 351,
      "size": 1,
      "price": "1011000000000000000000",
      "reserved": "0x7a9fe22691c811ea339d9b73150e6911a5343dca",
      "salt": "0x52c5d00963304a3032c794125832b81721d626e6dbef4179bcb44c9ff2c3fc03",
      "assetIds": []
    },
    {
      "x": 64,
      "y": 352,
      "size": 1,
      "price": "1011000000000000000000",
      "reserved": "",
      "salt": "0x5f7a387e1ea2a2ed70b13b5a9bc654bb81a2e93e226ef74f4f2b8c95ee3a72a0",
      "assetIds": []
    },
    {
      "x": 64,
      "y": 353,
      "size": 1,
      "price": "1011000000000000000000",
      "reserved": "",
      "salt": "0xd59a923601352b34e1d4fc7bc5a247bf89f0b46640cd8ffdcd1956da0e4f20eb",
      "assetIds": []
    },
    {
      "x": 64,
      "y": 354,
      "size": 1,
      "price": "1011000000000000000000",
      "reserved": "",
      "salt": "0x0ee7f3f86a7c0c71b967e8ae5d38190103a712200be448792f9625d2cc495a3c",
      "assetIds": []
    },
    {
      "x": 64,
      "y": 355,
      "size": 1,
      "price": "1011000000000000000000",
      "reserved": "",
      "salt": "0x1bc1f44a40bd20d456971c4294c2cbe5f36da552af572878a211d0e946c7a5a7",
      "assetIds": []
    },
    {
      "x": 65,
      "y": 348,
      "size": 1,
      "price": "1011000000000000000000",
      "reserved": "",
      "salt": "0x95f0015c95c9853c67d7659bd9ed8d82c223de931ad3eab3c2e2a36501cc805d",
      "assetIds": []
    },
    {
      "x": 65,
      "y": 349,
      "size": 1,
      "price": "1011000000000000000000",
      "reserved": "",
      "salt": "0x3af1ff6b7dc3ff54a61d38cda0d8bfbd20542b6485dae591bbb0f9e39ea60c4f",
      "assetIds": []
    },
    {
      "x": 65,
      "y": 350,
      "size": 1,
      "price": "1011000000000000000000",
      "reserved": "",
      "salt": "0x911542df173335dc61137160a792ea24ef320471311aff067f4f7213fbfc4f75",
      "assetIds": []
    },
    {
      "x": 65,
      "y": 351,
      "size": 1,
      "price": "1011000000000000000000",
      "reserved": "",
      "salt": "0x1cd0f1fdba30b5d31be48f2e22be49e425b4d0bc8031738e38917480ece1f082",
      "assetIds": []
    },
    {
      "x": 65,
      "y": 352,
      "size": 1,
      "price": "1011000000000000000000",
      "reserved": "",
      "salt": "0x741411f6d7cb7b49fb7127cd30f1ed04a9dae2a0b7ff0ba61bd354b183d0c542",
      "assetIds": []
    },
    {
      "x": 65,
      "y": 353,
      "size": 1,
      "price": "1011000000000000000000",
      "reserved": "0x7a9fe22691c811ea339d9b73150e6911a5343dca",
      "salt": "0x5a8a145f6142c9672432183c7c676ff53174ccb690c5154b0ed2eac9202897e8",
      "assetIds": []
    },
    {
      "x": 65,
      "y": 354,
      "size": 1,
      "price": "1011000000000000000000",
      "reserved": "",
      "salt": "0xfeb1ef56c9121d5a8facf4f4ed9a74ccaafdd7e7807d43d1e7a472a63de90c18",
      "assetIds": []
    },
    {
      "x": 65,
      "y": 355,
      "size": 1,
      "price": "1011000000000000000000",
      "reserved": "",
      "salt": "0xdb3de25562990ad0758f789cbe20b48ed70d0999a2c9fd78c6b644e732d13e6e",
      "assetIds": []
    },
    {
      "x": 66,
      "y": 348,
      "size": 1,
      "price": "1011000000000000000000",
      "reserved": "0x7a9fe22691c811ea339d9b73150e6911a5343dca",
      "salt": "0x9e149cc155507319c1524993e93864ba729be12e6216e28a4724f853b1bcab2e",
      "assetIds": []
    },
    {
      "x": 66,
      "y": 349,
      "size": 1,
      "price": "1011000000000000000000",
      "reserved": "",
      "salt": "0xf6ceeef85a2e95b05f72235bd780dcddf2ea6868c35754c4aaed41ec67647fe0",
      "assetIds": []
    },
    {
      "x": 66,
      "y": 350,
      "size": 1,
      "price": "1011000000000000000000",
      "reserved": "",
      "salt": "0x1c160d3018d914f5b1e9e95c6f64b3a75f081fcc8ae2ab5b163f33492bf14d05",
      "assetIds": []
    },
    {
      "x": 66,
      "y": 351,
      "size": 1,
      "price": "1011000000000000000000",
      "reserved": "",
      "salt": "0x6f4141389450b1db7e03689c9606ebcb2a9f083d77feee072694679b6f660654",
      "assetIds": []
    },
    {
      "x": 66,
      "y": 352,
      "size": 1,
      "price": "1011000000000000000000",
      "reserved": "",
      "salt": "0x4dc9a869d9a7f8ef386da19c77bf4b8e740de98c0120abb96618cbf8422c0153",
      "assetIds": []
    },
    {
      "x": 66,
      "y": 353,
      "size": 1,
      "price": "1011000000000000000000",
      "reserved": "",
      "salt": "0x7f8cdbaf86dce02da0c5e9b909596c65e44de40557051983e0c8c13eb5fd8eb9",
      "assetIds": []
    },
    {
      "x": 66,
      "y": 354,
      "size": 1,
      "price": "1011000000000000000000",
      "reserved": "",
      "salt": "0x8e15e1d17e2c7b6171c2fe0d780459e2123557f498da7d44bc7c8386f7c94fe2",
      "assetIds": []
    },
    {
      "x": 66,
      "y": 355,
      "size": 1,
      "price": "1011000000000000000000",
      "reserved": "",
      "salt": "0xcfc937affffe0aaca939e2137d476c39ea9df7517739953fbf8f0d465699e04e",
      "assetIds": []
    },
    {
      "x": 67,
      "y": 348,
      "size": 1,
      "price": "1011000000000000000000",
      "reserved": "",
      "salt": "0xd88709488562d361a53d8462f461f425e4e0b8684505304650a3d2174b94bc96",
      "assetIds": []
    },
    {
      "x": 67,
      "y": 349,
      "size": 1,
      "price": "1011000000000000000000",
      "reserved": "",
      "salt": "0x6ac3656b04f20e886b46f85abbed44e191eb2d16b586fb73547512e8fc038b92",
      "assetIds": []
    },
    {
      "x": 67,
      "y": 350,
      "size": 1,
      "price": "1011000000000000000000",
      "reserved": "",
      "salt": "0x8f4c296bcc0fe9971b386062fb83a263b73b6ab1295c10e8781f2838aef5de57",
      "assetIds": []
    },
    {
      "x": 67,
      "y": 351,
      "size": 1,
      "price": "1011000000000000000000",
      "reserved": "",
      "salt": "0x8908987cf4b91d15888108850f4d5365362cec10739545067cbe844e5b98b452",
      "assetIds": []
    },
    {
      "x": 67,
      "y": 352,
      "size": 1,
      "price": "1011000000000000000000",
      "reserved": "",
      "salt": "0x0bdc3297531b5bcd0e4464041354d288844b21ddab8a56f17317de52b7cbeb8e",
      "assetIds": []
    },
    {
      "x": 67,
      "y": 353,
      "size": 1,
      "price": "1011000000000000000000",
      "reserved": "",
      "salt": "0x6dfab27cde6a7a8c359be5d884b56928cb55760f3d2f85e44444a610322ae9a9",
      "assetIds": []
    },
    {
      "x": 67,
      "y": 354,
      "size": 1,
      "price": "1011000000000000000000",
      "reserved": "",
      "salt": "0x080db7c579e873d3442bb798a9f3cb660af318d8f96cc31c9ee319a345d20cca",
      "assetIds": []
    },
    {
      "x": 67,
      "y": 355,
      "size": 1,
      "price": "1011000000000000000000",
      "reserved": "",
      "salt": "0x93f7e12676c318843f66a068919ca53174876e7b1c9b2756935ed8a66e203884",
      "assetIds": []
    },
    {
      "x": 68,
      "y": 348,
      "size": 1,
      "price": "1011000000000000000000",
      "reserved": "",
      "salt": "0x8a09849fb8f991c8e8b0635ad0a7e09a5af7778759fd6e4f84ad16d5773b1486",
      "assetIds": []
    },
    {
      "x": 68,
      "y": 349,
      "size": 1,
      "price": "1011000000000000000000",
      "reserved": "",
      "salt": "0xc4092b2d2adf8c56df53814601850f4f040140c7d422df2a9d22d6ae94df1f3d",
      "assetIds": []
    },
    {
      "x": 68,
      "y": 350,
      "size": 1,
      "price": "1011000000000000000000",
      "reserved": "",
      "salt": "0x27312c9171c4e6b1dcab5952cca06db8cee1c7085034b3a0084964b6905855bf",
      "assetIds": []
    },
    {
      "x": 68,
      "y": 351,
      "size": 1,
      "price": "1011000000000000000000",
      "reserved": "",
      "salt": "0xafb59d48f5a576cef3faab66525de572b2c8bc51f58b723facff434d7a3a7eea",
      "assetIds": []
    },
    {
      "x": 68,
      "y": 352,
      "size": 1,
      "price": "1011000000000000000000",
      "reserved": "",
      "salt": "0xdcf4f448332aaf0ace8c6602012741f9fd3ffc312e1af43a4c2b611df84a0e22",
      "assetIds": []
    },
    {
      "x": 68,
      "y": 353,
      "size": 1,
      "price": "1011000000000000000000",
      "reserved": "",
      "salt": "0x7ebda78c990bc5199a0e8f649c6f07fcb65257763055dbf176b1d39431497d0b",
      "assetIds": []
    },
    {
      "x": 68,
      "y": 354,
      "size": 1,
      "price": "1011000000000000000000",
      "reserved": "",
      "salt": "0x8ebe4afee8fc009e5baa2a63779222a34cac64402c017f9d9a1f0f295bddcb86",
      "assetIds": []
    },
    {
      "x": 68,
      "y": 355,
      "size": 1,
      "price": "1011000000000000000000",
      "reserved": "",
      "salt": "0xbc7f0a6df422e5ea2f53392e389d80a100a8a5331bce8efc1bb2c616c3148b1d",
      "assetIds": []
    },
    {
      "x": 69,
      "y": 348,
      "size": 1,
      "price": "1011000000000000000000",
      "reserved": "",
      "salt": "0x3c43aeb9de0a600ea3a6a436ee02ff76a9d624b5ab3422aaed494b6ab2962e11",
      "assetIds": []
    },
    {
      "x": 69,
      "y": 349,
      "size": 1,
      "price": "1011000000000000000000",
      "reserved": "",
      "salt": "0xf9b9a65922a9f1302cc1ed62c108d6124ea60eb8ecbee64bf293625be4a5eb29",
      "assetIds": []
    },
    {
      "x": 69,
      "y": 350,
      "size": 1,
      "price": "1011000000000000000000",
      "reserved": "",
      "salt": "0x40ba9510d0818e4990d33a729e26d2977d8c003006817ce124faa101dd90f56f",
      "assetIds": []
    },
    {
      "x": 69,
      "y": 351,
      "size": 1,
      "price": "1011000000000000000000",
      "reserved": "",
      "salt": "0x0701e15e0efff9c672377d7e143ea4e514e474dc6ae64ca6679538ad842d2c04",
      "assetIds": []
    },
    {
      "x": 69,
      "y": 352,
      "size": 1,
      "price": "1011000000000000000000",
      "reserved": "",
      "salt": "0x8e6129aa2505dc8f435b8e3b8f23f971cc1838b17b8514530860bd55abea671b",
      "assetIds": []
    },
    {
      "x": 69,
      "y": 353,
      "size": 1,
      "price": "1011000000000000000000",
      "reserved": "",
      "salt": "0xb8ab105202ec6c401fc3945a64649683c1051e3215baeb73baad8f00e37d0dd9",
      "assetIds": []
    },
    {
      "x": 69,
      "y": 354,
      "size": 1,
      "price": "1011000000000000000000",
      "reserved": "",
      "salt": "0x2116f7c774f688b9b0d79bf79fa2bc67b07b89d93bd50e151b4256e992c56296",
      "assetIds": []
    },
    {
      "x": 69,
      "y": 355,
      "size": 1,
      "price": "1011000000000000000000",
      "reserved": "",
      "salt": "0xcd4eab41d960700785197f9f07c9d37aefd1eb04fc4de1a659fa36063fc9833c",
      "assetIds": []
    },
    {
      "x": 70,
      "y": 348,
      "size": 1,
      "price": "1011000000000000000000",
      "reserved": "",
      "salt": "0x167fd93eeada4b8251056bfadc2c847bf01cba61a34c99cbcca78617011450c6",
      "assetIds": []
    },
    {
      "x": 70,
      "y": 349,
      "size": 1,
      "price": "1011000000000000000000",
      "reserved": "",
      "salt": "0xa1ba9737ac3236480a371712e7dceebd3e39f10a9e346e95d0d0b0eae53fd88e",
      "assetIds": []
    },
    {
      "x": 70,
      "y": 350,
      "size": 1,
      "price": "1011000000000000000000",
      "reserved": "",
      "salt": "0x77e47a48be8efcb814304bc599ab76a8f0a2bb98f59d4120d92a622c99a3c112",
      "assetIds": []
    },
    {
      "x": 70,
      "y": 351,
      "size": 1,
      "price": "1011000000000000000000",
      "reserved": "",
      "salt": "0x390ec8aa6808bfbef779d35cb41b8701ffce545b68468801cdde66b0563c03d5",
      "assetIds": []
    },
    {
      "x": 70,
      "y": 352,
      "size": 1,
      "price": "1011000000000000000000",
      "reserved": "",
      "salt": "0xa34bb69466346918eeffbc544de819aac96e55bce32221cce970dbc969ab07e6",
      "assetIds": []
    },
    {
      "x": 70,
      "y": 353,
      "size": 1,
      "price": "1011000000000000000000",
      "reserved": "",
      "salt": "0xa00272ab58ffeb54a6a3d9db1e088aa528b57ffb286d01f6d5a161dd7a5544b8",
      "assetIds": []
    },
    {
      "x": 70,
      "y": 354,
      "size": 1,
      "price": "1011000000000000000000",
      "reserved": "",
      "salt": "0xed26f9fcee97f1dd0ac7769f32f9f27b2f85eb1e08ccd7ce82983dd1f00ec611",
      "assetIds": []
    },
    {
      "x": 70,
      "y": 355,
      "size": 1,
      "price": "1011000000000000000000",
      "reserved": "",
      "salt": "0x0cf084bc805b981a8e366dc7347110da04058066b741547f2c4720a23df373d1",
      "assetIds": []
    },
    {
      "x": 71,
      "y": 348,
      "size": 1,
      "price": "1011000000000000000000",
      "reserved": "",
      "salt": "0xa94b3277baf09dc26dc012108527bffa746eb0a79e0ebc2cdd2b4b997ca23eac",
      "assetIds": []
    },
    {
      "x": 71,
      "y": 349,
      "size": 1,
      "price": "1011000000000000000000",
      "reserved": "",
      "salt": "0x4aa6ae9e2abad15843628fe5c72e217ac14c61b341bd26e9be47115aa4b67eef",
      "assetIds": []
    },
    {
      "x": 71,
      "y": 350,
      "size": 1,
      "price": "1011000000000000000000",
      "reserved": "",
      "salt": "0xda31f72bf18bf73857b14b80bac0f44a19aa2b9d2b02fbf11274eec16eea795b",
      "assetIds": []
    },
    {
      "x": 71,
      "y": 351,
      "size": 1,
      "price": "1011000000000000000000",
      "reserved": "",
      "salt": "0x11304e6fb4f0126e3ec133af1db1a45d9057cff3155e4e44f42ed513ecfe6630",
      "assetIds": []
    },
    {
      "x": 71,
      "y": 352,
      "size": 1,
      "price": "1011000000000000000000",
      "reserved": "",
      "salt": "0x149838966280b160159b591a363901917d30cad1c728a16c0150377f5234f0c8",
      "assetIds": []
    },
    {
      "x": 71,
      "y": 353,
      "size": 1,
      "price": "1011000000000000000000",
      "reserved": "",
      "salt": "0x9b83ee092bb4413a5e5bdd686c0d3ac3bd21ec32705b5a9c2c43647aa715b217",
      "assetIds": []
    },
    {
      "x": 71,
      "y": 354,
      "size": 1,
      "price": "1011000000000000000000",
      "reserved": "",
      "salt": "0x7779d60dfedd212a827a54e3ca2b52a75373fba5ef1f02e9c188156ab41b6a7b",
      "assetIds": []
    },
    {
      "x": 71,
      "y": 355,
      "size": 1,
      "price": "1011000000000000000000",
      "reserved": "",
      "salt": "0xd396275cb55c38d0a4b9d004c75f9af0de5bcca030bbb7e3ea0fffe2f4243c7e",
      "assetIds": []
    },
    {
      "x": 3,
      "y": 372,
      "size": 3,
      "price": "8648000000000000000000",
      "reserved": "",
      "salt": "0x40d8c7e16cc77d5932c5f150a49bbf684b8c5b147feff0615c4a5511e92ac96d",
      "assetIds": []
    },
    {
      "x": 3,
      "y": 393,
      "size": 3,
      "price": "8648000000000000000000",
      "reserved": "0x7a9fe22691c811ea339d9b73150e6911a5343dca",
      "salt": "0xef6bf717bc70f4a98db734533a7db77bd0e207fadfaafa72295177ed454c83bc",
      "assetIds": []
    },
    {
      "x": 12,
      "y": 402,
      "size": 3,
      "price": "8648000000000000000000",
      "reserved": "",
      "salt": "0xc911c5ff7556c4ee76c591eb288e0dbfe48475f8893bfae9c94f677c03e16a8e",
      "assetIds": []
    },
    {
      "x": 12,
      "y": 405,
      "size": 3,
      "price": "8648000000000000000000",
      "reserved": "0x7a9fe22691c811ea339d9b73150e6911a5343dca",
      "salt": "0xfdf346f3e15b86710a453547936595abafbe1391f08f15d2ec17c7ebc20316f4",
      "assetIds": []
    },
    {
      "x": 18,
      "y": 366,
      "size": 3,
      "price": "8648000000000000000000",
      "reserved": "0x7a9fe22691c811ea339d9b73150e6911a5343dca",
      "salt": "0x939ab813e5d208b05fad9a69264f55b84337fdf2033d35137c865519777020da",
      "assetIds": []
    },
    {
      "x": 18,
      "y": 402,
      "size": 3,
      "price": "8648000000000000000000",
      "reserved": "0xdeaddeaddeaddeaddeaddeaddeaddeaddeaddead",
      "salt": "0x8332841595e3d173c7e747d41982befd9690adfb7947856465d69071c8714707",
      "assetIds": []
    },
    {
      "x": 21,
      "y": 363,
      "size": 3,
      "price": "8648000000000000000000",
      "reserved": "0xdeaddeaddeaddeaddeaddeaddeaddeaddeaddead",
      "salt": "0x600704854b3b369197cfc44e25c51afb95aa3fa655fd44f9cecd3705298b2a30",
      "assetIds": []
    },
    {
      "x": 30,
      "y": 384,
      "size": 3,
      "price": "8648000000000000000000",
      "reserved": "",
      "salt": "0xc494e1db04a7c32f91632cfacf2bc0eb9283b6f2c53981d1f729c428cc8b52a9",
      "assetIds": []
    },
    {
      "x": 30,
      "y": 390,
      "size": 3,
      "price": "8648000000000000000000",
      "reserved": "0xdeaddeaddeaddeaddeaddeaddeaddeaddeaddead",
      "salt": "0x4f8a5e1da6feac34b0d77ac4798f01167bfa2b9e75eeb3f95fc7c71bca0e135f",
      "assetIds": []
    },
    {
      "x": 0,
      "y": 384,
      "size": 6,
      "price": "32772000000000000000000",
      "reserved": "0xdeaddeaddeaddeaddeaddeaddeaddeaddeaddead",
      "salt": "0xf161cf1d961662bc867ac2adf8376b6631e2c8f165c17c6f6201d45b6ad88789",
      "assetIds": []
    },
    {
      "x": 6,
      "y": 372,
      "size": 6,
      "price": "32772000000000000000000",
      "reserved": "0xdeaddeaddeaddeaddeaddeaddeaddeaddeaddead",
      "salt": "0x3125c97ce60de2dcd45d09e70b1965b5d1dc222662292386c5d20fa949571bb4",
      "assetIds": []
    },
    {
      "x": 12,
      "y": 360,
      "size": 6,
      "price": "32772000000000000000000",
      "reserved": "",
      "salt": "0x36af2698333b06b72dea0ba6ffd3f6f9c0efd40f96e5760bc5f579b46757b598",
      "assetIds": []
    },
    {
      "x": 18,
      "y": 378,
      "size": 6,
      "price": "32772000000000000000000",
      "reserved": "",
      "salt": "0x5db60fecfd7dbfe7fac6c36515a91b643cd27223f3ed78a925e6ee2d9b9f2a00",
      "assetIds": []
    },
    {
      "x": 30,
      "y": 396,
      "size": 6,
      "price": "32772000000000000000000",
      "reserved": "",
      "salt": "0xdffe8b28cf87fe139231b9af525075a890c6b201d534167fc8fe0580e99561a8",
      "assetIds": []
    },
    {
      "x": 36,
      "y": 354,
      "size": 6,
      "price": "32772000000000000000000",
      "reserved": "0x7a9fe22691c811ea339d9b73150e6911a5343dca",
      "salt": "0xdaa89b02d16388c2903504ffd49fca402660f18971ee779cb2fd810202e2ab38",
      "assetIds": []
    },
    {
      "x": 48,
      "y": 348,
      "size": 6,
      "price": "32772000000000000000000",
      "reserved": "0xdeaddeaddeaddeaddeaddeaddeaddeaddeaddead",
      "salt": "0x5f7217c5e7f93eb2240300b3dab8b79c023a7e036f18d6acdf127b54926bfdf3",
      "assetIds": []
    },
    {
      "x": 48,
      "y": 354,
      "size": 6,
      "price": "32772000000000000000000",
      "reserved": "",
      "salt": "0xa4cf0bc7be9081fc83ca3ed51b63a83842c9897dfafd9688a7840719cba32324",
      "assetIds": []
    },
    {
      "x": 54,
      "y": 342,
      "size": 6,
      "price": "32772000000000000000000",
      "reserved": "0x7a9fe22691c811ea339d9b73150e6911a5343dca",
      "salt": "0x516af1c28da024c1ea206cf72db8a134fade6b5cdf8893e24afbba820caa5ab8",
      "assetIds": []
    },
    {
      "x": 0,
      "y": 360,
      "size": 12,
      "price": "123806000000000000000000",
      "reserved": "0x7a9fe22691c811ea339d9b73150e6911a5343dca",
      "salt": "0xe7c5a263fab7fb78884693344b2036dc428f14110c92c8af8f38aaf0e7fce71b",
      "assetIds": []
    },
    {
      "x": 0,
      "y": 396,
      "size": 12,
      "price": "123806000000000000000000",
      "reserved": "",
      "salt": "0x12c77a2dc92e33063b8a2feb07cc5c4f1f762922eacbacad710b35bf5abcb59f",
      "assetIds": []
    },
    {
      "x": 12,
      "y": 384,
      "size": 12,
      "price": "123806000000000000000000",
      "reserved": "0xdeaddeaddeaddeaddeaddeaddeaddeaddeaddead",
      "salt": "0xd2b8cc0823da1383a2faa1d52bd78280be3cada586679379efd8cc2027fcc6f2",
      "assetIds": []
    },
    {
      "x": 36,
      "y": 384,
      "size": 12,
      "price": "123806000000000000000000",
      "reserved": "",
      "salt": "0xd38c7b07a50f24498708053310add9a1e81b944071b715426e78c2ab10eb791d",
      "assetIds": []
    },
    {
      "x": 36,
      "y": 396,
      "size": 12,
      "price": "123806000000000000000000",
      "reserved": "0x7a9fe22691c811ea339d9b73150e6911a5343dca",
      "salt": "0x6e9ee5c4b7cfa0b797563ca4c227d0edce52185193d73f8e42791645e96351ab",
      "assetIds": []
    }
  ],
  "solcInputHash": "313f455adab9ae93096e43acc50d7d38",
  "bytecode": "0x610160604052620d2f006005556103e860075534801561001e57600080fd5b5060405161242e38038061242e833981810160405261018081101561004257600080fd5b50805160208201516040830151606080850151608086015160a08088015160c0808a015160e08b01516101008c01516101208d01516101408e0151610160909e0151600280546001600160a01b0319166001600160a01b03861617905560038390558d8b1b6001600160601b0319908116909852998c901b909616909352999a9899979895979496929590949391926100dc8a600161014a565b600680546001600160a01b03199081166001600160a01b039a8b1617909155610140979097526101209590955260008054909616979096169690961790935550606093841b6001600160601b031990811660e05292841b831660805290921b1661010052506101ae92505050565b6001600160a01b038216600081815260016020908152604091829020805460ff191685151590811790915582519384529083015280517fb21eb88b4e33b3f1281830a7178d74d8aa73220416215726b68ae23d539515cb9281900390910190a15050565b60805160601c60a05160601c60c05160601c60e05160601c6101005160601c61012051610140516121fb610233600039806109375280611d44525080610913528061139a525080611da45250806115d252806116f4525080610c50528061159c5280611dd852508061166152806116c5525080610dfa528061190852506121fb6000f3fe608060405234801561001057600080fd5b50600436106101515760003560e01c8063984d6252116100cd578063dc5074af11610081578063ecb255b511610066578063ecb255b514610857578063f23a6e6114610874578063f2e7b3811461090957610151565b8063dc5074af14610814578063e56f8a9e1461083a57610151565b8063bc197c81116100b2578063bc197c81146105d3578063c10a420814610735578063caed35001461080c57610151565b8063984d6252146104db578063b522ecff146105ad57610151565b80636e9960c3116101245780638a04af6a116101095780638a04af6a1461032a5780638a12b82f146103585780638f283970146104b557610151565b80636e9960c3146102fe57806377f1c3ac1461032257610151565b806325cb5bc014610156578063495906571461017057806358bc29441461017857806365194ce7146101a0575b600080fd5b61015e610911565b60408051918252519081900360200190f35b61015e610935565b61019e6004803603602081101561018e57600080fd5b50356001600160a01b0316610959565b005b610246600480360360208110156101b657600080fd5b8101906020810181356401000000008111156101d157600080fd5b8201836020820111156101e357600080fd5b8035906020019184600183028401116401000000008311171561020557600080fd5b91908080601f016020809104026020016040519081016040528093929190818152602001838380828437600092019190915250929550610a04945050505050565b6040518080602001866001600160a01b03166001600160a01b03168152602001856001600160a01b03166001600160a01b03168152602001848152602001838152602001828103825287818151815260200191508051906020019080838360005b838110156102bf5781810151838201526020016102a7565b50505050905090810190601f1680156102ec5780820380516001836020036101000a031916815260200191505b50965050505050505060405180910390f35b610306610b09565b604080516001600160a01b039092168252519081900360200190f35b61015e610b18565b61019e6004803603604081101561034057600080fd5b506001600160a01b0381351690602001351515610b1e565b61019e600480360361018081101561036f57600080fd5b6001600160a01b038235811692602081013582169260408201359092169160608201359160808101359160a08201359160c08101359160e0820135916101008101359181019061014081016101208201356401000000008111156103d257600080fd5b8201836020820111156103e457600080fd5b8035906020019184602083028401116401000000008311171561040657600080fd5b91939092909160208101903564010000000081111561042457600080fd5b82018360208201111561043657600080fd5b8035906020019184602083028401116401000000008311171561045857600080fd5b91939092909160208101903564010000000081111561047657600080fd5b82018360208201111561048857600080fd5b803590602001918460018302840111640100000000831117156104aa57600080fd5b509092509050610b75565b61019e600480360360208110156104cb57600080fd5b50356001600160a01b0316610cc3565b61019e600480360360608110156104f157600080fd5b6001600160a01b03823516919081019060408101602082013564010000000081111561051c57600080fd5b82018360208201111561052e57600080fd5b8035906020019184602083028401116401000000008311171561055057600080fd5b91939092909160208101903564010000000081111561056e57600080fd5b82018360208201111561058057600080fd5b803590602001918460208302840111640100000000831117156105a257600080fd5b509092509050610d99565b61019e600480360360208110156105c357600080fd5b50356001600160a01b0316610f24565b610700600480360360a08110156105e957600080fd5b6001600160a01b03823581169260208101359091169181019060608101604082013564010000000081111561061d57600080fd5b82018360208201111561062f57600080fd5b8035906020019184602083028401116401000000008311171561065157600080fd5b91939092909160208101903564010000000081111561066f57600080fd5b82018360208201111561068157600080fd5b803590602001918460208302840111640100000000831117156106a357600080fd5b9193909290916020810190356401000000008111156106c157600080fd5b8201836020820111156106d357600080fd5b803590602001918460018302840111640100000000831117156106f557600080fd5b50909250905061100d565b604080517fffffffff000000000000000000000000000000000000000000000000000000009092168252519081900360200190f35b6107f8600480360360a081101561074b57600080fd5b81019060208101813564010000000081111561076657600080fd5b82018360208201111561077857600080fd5b8035906020019184600183028401116401000000008311171561079a57600080fd5b91908080601f016020809104026020016040519081016040528093929190818152602001838380828437600092019190915250929550506001600160a01b03833581169450602084013516926040810135925060600135905061103a565b604080519115158252519081900360200190f35b610306611176565b6107f86004803603602081101561082a57600080fd5b50356001600160a01b0316611185565b61019e6004803603602081101561085057600080fd5b50356111a3565b61019e6004803603602081101561086d57600080fd5b5035611207565b610700600480360360a081101561088a57600080fd5b6001600160a01b03823581169260208101359091169160408201359160608101359181019060a0810160808201356401000000008111156108ca57600080fd5b8201836020820111156108dc57600080fd5b803590602001918460018302840111640100000000831117156108fe57600080fd5b50909250905061126b565b61015e611296565b7f000000000000000000000000000000000000000000000000000000000000000090565b7f000000000000000000000000000000000000000000000000000000000000000090565b6000546001600160a01b031633146109b8576040805162461bcd60e51b815260206004820152601060248201527f53656e646572206e6f742061646d696e00000000000000000000000000000000604482015290519081900360640190fd5b600554600280546001600160a01b03908116600090815260046020526040902042909301909255805473ffffffffffffffffffffffffffffffffffffffff191692909116919091179055565b606060008060008060606000806000808a80602001905160a0811015610a2957600080fd5b8101908080516040519392919084640100000000821115610a4957600080fd5b908301906020820185811115610a5e57600080fd5b8251640100000000811182820188101715610a7857600080fd5b82525081516020918201929091019080838360005b83811015610aa5578181015183820152602001610a8d565b50505050905090810190601f168015610ad25780820380516001836020036101000a031916815260200191505b5060409081526020820151908201516060830151608090930151959f50909d509b5099509197505050505050505091939590929450565b6000546001600160a01b031690565b60035490565b6000546001600160a01b03163314610b675760405162461bcd60e51b815260040180806020018281038252602e815260200180612198602e913960400191505060405180910390fd5b610b71828261129c565b5050565b610b7f898961131e565b610c048f8e8e8e8e8e8d8d8d80806020026020016040519081016040528093929190818152602001838360200280828437600081840152601f19601f820116905080830192505050505050508c8c8080602002602001604051908101604052809392919081815260200183836020028082843760009201919091525061139892505050565b610c458f8984848080601f01602080910402602001604051908101604052809392919081815260200183838082843760009201919091525061157592505050565b610c758f8f8e8e8e8d7f00000000000000000000000000000000000000000000000000000000000000008f6115c6565b610cb28e87878080602002602001604051908101604052809392919081815260200183836020028082843760009201919091525061189192505050565b505050505050505050505050505050565b6000546001600160a01b03163314610d22576040805162461bcd60e51b815260206004820152601b60248201527f6f6e6c792061646d696e2063616e206368616e67652061646d696e0000000000604482015290519081900360640190fd5b600054604080516001600160a01b039283168152918316602083015280517f7e644d79422f17c01e4894b5f4f588d331ebfa28653d42ae832dc59e38c9798f9281900390910190a16000805473ffffffffffffffffffffffffffffffffffffffff19166001600160a01b0392909216919091179055565b6000546001600160a01b03163314610df8576040805162461bcd60e51b815260206004820152600e60248201527f4e4f545f415554484f52495a4544000000000000000000000000000000000000604482015290519081900360640190fd5b7f00000000000000000000000000000000000000000000000000000000000000006001600160a01b0316632eb2c2d63087878787876040518763ffffffff1660e01b815260040180876001600160a01b03166001600160a01b03168152602001866001600160a01b03166001600160a01b031681526020018060200180602001806020018481038452888882818152602001925060200280828437600083820152601f01601f19169091018581038452868152602090810191508790870280828437600081840152601f19601f8201169050808301925050508481038252600081526020016020019950505050505050505050600060405180830381600087803b158015610f0557600080fd5b505af1158015610f19573d6000803e3d6000fd5b505050505050505050565b6001600160a01b038116610f7f576040805162461bcd60e51b815260206004820152600c60248201527f5a45524f5f414444524553530000000000000000000000000000000000000000604482015290519081900360640190fd5b6000546001600160a01b03163314610fde576040805162461bcd60e51b815260206004820152600e60248201527f4e4f545f415554484f52495a4544000000000000000000000000000000000000604482015290519081900360640190fd5b6006805473ffffffffffffffffffffffffffffffffffffffff19166001600160a01b0392909216919091179055565b7fbc197c810000000000000000000000000000000000000000000000000000000098975050505050505050565b600060035482118061105d5750836001600160a01b0316856001600160a01b0316145b8061106757508242115b156110745750600061116d565b60408051606087811b7fffffffffffffffffffffffffffffffffffffffff0000000000000000000000009081166020808501919091529188901b166034830152604882018690526068808301869052835180840390910181526088830184528051908201207f19457468657265756d205369676e6564204d6573736167653a0a33320000000060a884015260c48084018290528451808503909101815260e4909301909352815191012060009061112b9089611a55565b6001600160a01b03811660009081526004602052604090205490915042116111585760019250505061116d565b6002546001600160a01b039081169116149150505b95945050505050565b6002546001600160a01b031690565b6001600160a01b031660009081526001602052604090205460ff1690565b6000546001600160a01b03163314611202576040805162461bcd60e51b815260206004820152601060248201527f53656e646572206e6f742061646d696e00000000000000000000000000000000604482015290519081900360640190fd5b600355565b6000546001600160a01b03163314611266576040805162461bcd60e51b815260206004820152600e60248201527f4e4f545f415554484f52495a4544000000000000000000000000000000000000604482015290519081900360640190fd5b600755565b7ff23a6e61000000000000000000000000000000000000000000000000000000009695505050505050565b60075490565b6001600160a01b03821660008181526001602090815260409182902080547fffffffffffffffffffffffffffffffffffffffffffffffffffffffffffffff001685151590811790915582519384529083015280517fb21eb88b4e33b3f1281830a7178d74d8aa73220416215726b68ae23d539515cb9281900390910190a15050565b6113456103e861133960075485611b2290919063ffffffff16565b9063ffffffff611b9816565b8114610b71576040805162461bcd60e51b815260206004820152600d60248201527f494e56414c49445f505249434500000000000000000000000000000000000000604482015290519081900360640190fd5b7f0000000000000000000000000000000000000000000000000000000000000000421061140c576040805162461bcd60e51b815260206004820152600c60248201527f53414c455f49535f4f5645520000000000000000000000000000000000000000604482015290519081900360640190fd5b6001600160a01b03891633148061143257503360009081526001602052604090205460ff165b611483576040805162461bcd60e51b815260206004820152600e60248201527f4e4f545f415554484f52495a4544000000000000000000000000000000000000604482015290519081900360640190fd5b6001600160a01b03881615806114aa5750886001600160a01b0316886001600160a01b0316145b6114fb576040805162461bcd60e51b815260206004820152600d60248201527f52455345525645445f4c414e4400000000000000000000000000000000000000604482015290519081900360640190fd5b600061150c888888888d8989611bfd565b90506115188282611ca2565b611569576040805162461bcd60e51b815260206004820152600c60248201527f494e56414c49445f4c414e440000000000000000000000000000000000000000604482015290519081900360640190fd5b50505050505050505050565b60006115818484611d6b565b6006549091506115c0908590839085906001600160a01b03167f0000000000000000000000000000000000000000000000000000000000000000611eb8565b50505050565b83600114806115fc57507f00000000000000000000000000000000000000000000000000000000000000006001600160a01b0316155b156116c357604080517f6e1e3bbf0000000000000000000000000000000000000000000000000000000081526001600160a01b03898116600483015260248201879052604482018990526064820188905260a06084830152600060a4830181905292517f000000000000000000000000000000000000000000000000000000000000000090911692636e1e3bbf9260e4808201939182900301818387803b1580156116a657600080fd5b505af11580156116ba573d6000803e3d6000fd5b50505050611827565b7f00000000000000000000000000000000000000000000000000000000000000006001600160a01b0316636e1e3bbf7f00000000000000000000000000000000000000000000000000000000000000008689898c60405160200180826001600160a01b03166001600160a01b031681526020019150506040516020818303038152906040526040518663ffffffff1660e01b815260040180866001600160a01b03166001600160a01b0316815260200185815260200184815260200183815260200180602001828103825283818151815260200191508051906020019080838360005b838110156117be5781810151838201526020016117a6565b50505050905090810190601f1680156117eb5780820380516001836020036101000a031916815260200191505b509650505050505050600060405180830381600087803b15801561180e57600080fd5b505af1158015611822573d6000803e3d6000fd5b505050505b60408051858152602081018590526001600160a01b03848116828401526060820184905291516101988802890192808b1692908c16917fe4dfa6ac11314892f3029b34a25b1a887da3b1cab2bbf8506d87128ba6e3ac029181900360800190a45050505050505050565b6060815167ffffffffffffffff811180156118ab57600080fd5b506040519080825280602002602001820160405280156118d5578160200160208202803683370190505b50905060005b82518110156119055760018282815181106118f257fe5b60209081029190910101526001016118db565b507f00000000000000000000000000000000000000000000000000000000000000006001600160a01b0316632eb2c2d6308585856040518563ffffffff1660e01b815260040180856001600160a01b03166001600160a01b03168152602001846001600160a01b03166001600160a01b03168152602001806020018060200180602001848103845286818151815260200191508051906020019060200280838360005b838110156119c05781810151838201526020016119a8565b50505050905001848103835285818151815260200191508051906020019060200280838360005b838110156119ff5781810151838201526020016119e7565b50505050905001848103825260008152602001602001975050505050505050600060405180830381600087803b158015611a3857600080fd5b505af1158015611a4c573d6000803e3d6000fd5b50505050505050565b60008151604114611a6557600080fd5b60208201516040830151606084015160001a601b811015611a8457601b015b8060ff16601b1480611a9957508060ff16601c145b611aa257600080fd5b6040805160008152602080820180845289905260ff8416828401526060820186905260808201859052915160019260a0808401939192601f1981019281900390910190855afa158015611af9573d6000803e3d6000fd5b5050604051601f1901519450506001600160a01b038416611b1957600080fd5b50505092915050565b600082611b3157506000611b92565b5081810281838281611b3f57fe5b0414611b92576040805162461bcd60e51b815260206004820152600860248201527f6f766572666c6f77000000000000000000000000000000000000000000000000604482015290519081900360640190fd5b92915050565b600081611bec576040805162461bcd60e51b815260206004820152600960248201527f64697662797a65726f0000000000000000000000000000000000000000000000604482015290519081900360640190fd5b818381611bf557fe5b049392505050565b60008787878787878760405160200180888152602001878152602001868152602001858152602001846001600160a01b03166001600160a01b031660601b8152601401838152602001828051906020019060200280838360005b83811015611c6f578181015183820152602001611c57565b50505050905001975050505050505050604051602081830303815290604052805190602001209050979650505050505050565b600081815b8451811015611d41576000858281518110611cbe57fe5b6020026020010151905080831015611d065782816040516020018083815260200182815260200192505050604051602081830303815290604052805190602001209250611d38565b808360405160200180838152602001828152602001925050506040516020818303038152906040528051906020012092505b50600101611ca7565b507f0000000000000000000000000000000000000000000000000000000000000000149392505050565b600080611d84606461133985600563ffffffff611b2216565b604080516323b872dd60e01b81526001600160a01b0387811660048301527f0000000000000000000000000000000000000000000000000000000000000000811660248301526044820184905291519293507f0000000000000000000000000000000000000000000000000000000000000000909116916323b872dd916064808201926020929091908290030181600087803b158015611e2357600080fd5b505af1158015611e37573d6000803e3d6000fd5b505050506040513d6020811015611e4d57600080fd5b5051611ea0576040805162461bcd60e51b815260206004820152601360248201527f4645455f5452414e534645525f4641494c454400000000000000000000000000604482015290519081900360640190fd5b611eb0838263ffffffff61213a16565b949350505050565b82518190859015612062576060600080600080611ed48a610a04565b9398509196509450925090506000611eef868686868661103a565b15611f7d57611f09611f018d84611b22565b612710611b98565b9050886001600160a01b0316846001600160a01b0316866001600160a01b03167fac7a699eb95c3c6d390ec4626de17ef9a67b35891efdb197beba7c7fdd45fac48f858760405180848152602001838152602001828152602001935050505060405180910390a4611f7a878261213a565b96505b801561205b57604080516323b872dd60e01b81526001600160a01b038f811660048301528781166024830152604482018490529151918a16916323b872dd916064808201926020929091908290030181600087803b158015611fde57600080fd5b505af1158015611ff2573d6000803e3d6000fd5b505050506040513d602081101561200857600080fd5b505161205b576040805162461bcd60e51b815260206004820152601960248201527f636f6d6d6973696f6e207472616e73666572206661696c656400000000000000604482015290519081900360640190fd5b5050505050505b604080516323b872dd60e01b81526001600160a01b0389811660048301528681166024830152604482018490529151918416916323b872dd916064808201926020929091908290030181600087803b1580156120bd57600080fd5b505af11580156120d1573d6000803e3d6000fd5b505050506040513d60208110156120e757600080fd5b5051611a4c576040805162461bcd60e51b815260206004820152601760248201527f7061796d656e74207472616e73666572206661696c6564000000000000000000604482015290519081900360640190fd5b600082821115612191576040805162461bcd60e51b815260206004820152600860248201527f756e6465666c6f77000000000000000000000000000000000000000000000000604482015290519081900360640190fd5b5090039056fe6f6e6c792061646d696e2063616e207365747570206d6574615472616e73616374696f6e50726f636573736f7273a26469706673582212200ff38c5741c66b2a22a9a9ee2abe0f55626323082b6b4443921fd3b25484584a64736f6c63430006050033",
  "devdoc": {
    "methods": {
      "buyLandWithSand(address,address,address,uint256,uint256,uint256,uint256,uint256,bytes32,uint256[],bytes32[],bytes)": {
        "params": {
          "buyer": "address that perform the payment",
          "priceInSand": "price in SAND to purchase that Land",
          "proof": "merkleProof for that particular Land",
          "reserved": "the reserved address (if any)",
          "size": "size of the pack of Land to purchase",
          "to": "address that will own the purchased Land",
          "x": "x coordinate of the Land",
          "y": "y coordinate of the Land"
        }
      },
      "changeAdmin(address)": {
        "details": "change the administrator to be `newAdmin`.",
        "params": {
          "newAdmin": "address of the new administrator."
        }
      },
      "getAdmin()": {
        "details": "gives the current administrator of this contract.",
        "returns": {
          "_0": "the current administrator of this contract."
        }
      },
      "getSigningWallet()": {
        "details": "signing wallet authorized for referral",
        "returns": {
          "_0": "the address of the signing wallet"
        }
      },
      "isMetaTransactionProcessor(address)": {
        "details": "check whether address `who` is given meta-transaction execution rights.",
        "params": {
          "who": "The address to query."
        },
        "returns": {
          "_0": "whether the address has meta-transaction execution rights."
        }
      },
      "isReferralValid(bytes,address,address,uint256,uint256)": {
        "params": {
          "commissionRate": "The commissionRate of the referral",
          "expiryTime": "The expiry time of the referral",
          "referee": "The address of the referee",
          "referrer": "The address of the referrer",
          "signature": "The signature to check (signed referral)"
        },
        "returns": {
          "_0": "True if the referral is valid"
        }
      },
      "setMetaTransactionProcessor(address,bool)": {
        "details": "Enable or disable the ability of `metaTransactionProcessor` to perform meta-tx (metaTransactionProcessor rights).",
        "params": {
          "enabled": "set whether the metaTransactionProcessor is enabled or disabled.",
          "metaTransactionProcessor": "address that will be given/removed metaTransactionProcessor rights."
        }
      },
      "setReceivingWallet(address)": {
        "params": {
          "newWallet": "address of the new receiving wallet"
        }
      },
      "updateMaxCommissionRate(uint256)": {
        "details": "Update the maximum commission rate",
        "params": {
          "newMaxCommissionRate": "The new maximum commission rate"
        }
      },
      "updateSigningWallet(address)": {
        "details": "Update the signing wallet",
        "params": {
          "newSigningWallet": "The new address of the signing wallet"
        }
      },
      "withdrawAssets(address,uint256[],uint256[])": {
        "params": {
          "assetIds": "the assetIds to be transferred",
          "to": "intended recipient of the asset tokens",
          "values": "the quantities of the assetIds to be transferred"
        }
      }
    },
    "title": "Estate Sale contract with referral"
  },
  "userdoc": {
    "methods": {
      "buyLandWithSand(address,address,address,uint256,uint256,uint256,uint256,uint256,bytes32,uint256[],bytes32[],bytes)": {
        "notice": "buy Land with SAND using the merkle proof associated with it"
      },
      "getExpiryTime()": {
        "notice": "Gets the expiry time for the current sale"
      },
      "getMaxCommisionRate()": {
        "notice": "the max commision rate"
      },
      "getMerkleRoot()": {
        "notice": "Gets the Merkle root associated with the current sale"
      },
      "isReferralValid(bytes,address,address,uint256,uint256)": {
        "notice": "Check if a referral is valid"
      },
      "setReceivingWallet(address)": {
        "notice": "set the wallet receiving the proceeds"
      },
      "withdrawAssets(address,uint256[],uint256[])": {
        "notice": "enable Admin to withdraw remaining assets from EstateSaleWithFee contract"
      }
    },
    "notice": "This contract manages the sale of our lands as Estates"
  },
  "storageLayout": {
    "storage": [
      {
        "astId": 12779,
        "contract": "src/solc_0.6/EstateSale/EstateSaleWithFee.sol:EstateSaleWithFee",
        "label": "_admin",
        "offset": 0,
        "slot": "0",
        "type": "t_address"
      },
      {
        "astId": 12841,
        "contract": "src/solc_0.6/EstateSale/EstateSaleWithFee.sol:EstateSaleWithFee",
        "label": "_metaTransactionContracts",
        "offset": 0,
        "slot": "1",
        "type": "t_mapping(t_address,t_bool)"
      },
      {
        "astId": 10957,
        "contract": "src/solc_0.6/EstateSale/EstateSaleWithFee.sol:EstateSaleWithFee",
        "label": "_signingWallet",
        "offset": 0,
        "slot": "2",
        "type": "t_address"
      },
      {
        "astId": 10959,
        "contract": "src/solc_0.6/EstateSale/EstateSaleWithFee.sol:EstateSaleWithFee",
        "label": "_maxCommissionRate",
        "offset": 0,
        "slot": "3",
        "type": "t_uint256"
      },
      {
        "astId": 10963,
        "contract": "src/solc_0.6/EstateSale/EstateSaleWithFee.sol:EstateSaleWithFee",
        "label": "_previousSigningWallets",
        "offset": 0,
        "slot": "4",
        "type": "t_mapping(t_address,t_uint256)"
      },
      {
        "astId": 10972,
        "contract": "src/solc_0.6/EstateSale/EstateSaleWithFee.sol:EstateSaleWithFee",
        "label": "_previousSigningDelay",
        "offset": 0,
        "slot": "5",
        "type": "t_uint256"
      },
      {
        "astId": 7344,
        "contract": "src/solc_0.6/EstateSale/EstateSaleWithFee.sol:EstateSaleWithFee",
        "label": "_wallet",
        "offset": 0,
        "slot": "6",
        "type": "t_address_payable"
      },
      {
        "astId": 7354,
        "contract": "src/solc_0.6/EstateSale/EstateSaleWithFee.sol:EstateSaleWithFee",
        "label": "_multiplier",
        "offset": 0,
        "slot": "7",
        "type": "t_uint256"
      }
    ],
    "types": {
      "t_address": {
        "encoding": "inplace",
        "label": "address",
        "numberOfBytes": "20"
      },
      "t_address_payable": {
        "encoding": "inplace",
        "label": "address payable",
        "numberOfBytes": "20"
      },
      "t_bool": {
        "encoding": "inplace",
        "label": "bool",
        "numberOfBytes": "1"
      },
      "t_mapping(t_address,t_bool)": {
        "encoding": "mapping",
        "key": "t_address",
        "label": "mapping(address => bool)",
        "numberOfBytes": "32",
        "value": "t_bool"
      },
      "t_mapping(t_address,t_uint256)": {
        "encoding": "mapping",
        "key": "t_address",
        "label": "mapping(address => uint256)",
        "numberOfBytes": "32",
        "value": "t_uint256"
      },
      "t_uint256": {
        "encoding": "inplace",
        "label": "uint256",
        "numberOfBytes": "32"
      }
    }
  }
}