{
  "address": "0x4631Bbc91559AB7D1E413E9D662c5FA071378960",
  "abi": [
    {
      "inputs": [
        {
          "internalType": "address",
          "name": "landAddress",
          "type": "address"
        },
        {
          "internalType": "address",
          "name": "sandContractAddress",
          "type": "address"
        },
        {
          "internalType": "address",
          "name": "initialMetaTx",
          "type": "address"
        },
        {
          "internalType": "address",
          "name": "admin",
          "type": "address"
        },
        {
          "internalType": "address payable",
          "name": "initialWalletAddress",
          "type": "address"
        },
        {
          "internalType": "bytes32",
          "name": "merkleRoot",
          "type": "bytes32"
        },
        {
          "internalType": "uint256",
          "name": "expiryTime",
          "type": "uint256"
        },
        {
          "internalType": "address",
          "name": "initialSigningWallet",
          "type": "address"
        },
        {
          "internalType": "uint256",
          "name": "initialMaxCommissionRate",
          "type": "uint256"
        },
        {
          "internalType": "address",
          "name": "estate",
          "type": "address"
        },
        {
          "internalType": "address",
          "name": "asset",
          "type": "address"
        },
        {
          "internalType": "address",
          "name": "feeDistributor",
          "type": "address"
        },
        {
          "internalType": "address",
          "name": "authValidator",
          "type": "address"
        }
      ],
      "stateMutability": "nonpayable",
      "type": "constructor"
    },
    {
      "anonymous": false,
      "inputs": [
        {
          "indexed": false,
          "internalType": "address",
          "name": "oldAdmin",
          "type": "address"
        },
        {
          "indexed": false,
          "internalType": "address",
          "name": "newAdmin",
          "type": "address"
        }
      ],
      "name": "AdminChanged",
      "type": "event"
    },
    {
      "anonymous": false,
      "inputs": [
        {
          "indexed": true,
          "internalType": "address",
          "name": "buyer",
          "type": "address"
        },
        {
          "indexed": true,
          "internalType": "address",
          "name": "to",
          "type": "address"
        },
        {
          "indexed": true,
          "internalType": "uint256",
          "name": "topCornerId",
          "type": "uint256"
        },
        {
          "indexed": false,
          "internalType": "uint256",
          "name": "size",
          "type": "uint256"
        },
        {
          "indexed": false,
          "internalType": "uint256",
          "name": "price",
          "type": "uint256"
        },
        {
          "indexed": false,
          "internalType": "address",
          "name": "token",
          "type": "address"
        },
        {
          "indexed": false,
          "internalType": "uint256",
          "name": "amountPaid",
          "type": "uint256"
        }
      ],
      "name": "LandQuadPurchased",
      "type": "event"
    },
    {
      "anonymous": false,
      "inputs": [
        {
          "indexed": false,
          "internalType": "address",
          "name": "metaTransactionProcessor",
          "type": "address"
        },
        {
          "indexed": false,
          "internalType": "bool",
          "name": "enabled",
          "type": "bool"
        }
      ],
      "name": "MetaTransactionProcessor",
      "type": "event"
    },
    {
      "anonymous": false,
      "inputs": [
        {
          "indexed": true,
          "internalType": "address",
          "name": "referrer",
          "type": "address"
        },
        {
          "indexed": true,
          "internalType": "address",
          "name": "referee",
          "type": "address"
        },
        {
          "indexed": true,
          "internalType": "address",
          "name": "token",
          "type": "address"
        },
        {
          "indexed": false,
          "internalType": "uint256",
          "name": "amount",
          "type": "uint256"
        },
        {
          "indexed": false,
          "internalType": "uint256",
          "name": "commission",
          "type": "uint256"
        },
        {
          "indexed": false,
          "internalType": "uint256",
          "name": "commissionRate",
          "type": "uint256"
        }
      ],
      "name": "ReferralUsed",
      "type": "event"
    },
    {
      "inputs": [
        {
          "internalType": "address",
          "name": "buyer",
          "type": "address"
        },
        {
          "internalType": "address",
          "name": "to",
          "type": "address"
        },
        {
          "internalType": "address",
          "name": "reserved",
          "type": "address"
        },
        {
          "internalType": "uint256[]",
          "name": "info",
          "type": "uint256[]"
        },
        {
          "internalType": "bytes32",
          "name": "salt",
          "type": "bytes32"
        },
        {
          "internalType": "uint256[]",
          "name": "assetIds",
          "type": "uint256[]"
        },
        {
          "internalType": "bytes32[]",
          "name": "proof",
          "type": "bytes32[]"
        },
        {
          "internalType": "bytes",
          "name": "referral",
          "type": "bytes"
        },
        {
          "internalType": "bytes",
          "name": "signature",
          "type": "bytes"
        }
      ],
      "name": "buyLandWithSand",
      "outputs": [],
      "stateMutability": "nonpayable",
      "type": "function"
    },
    {
      "inputs": [
        {
          "internalType": "address",
          "name": "newAdmin",
          "type": "address"
        }
      ],
      "name": "changeAdmin",
      "outputs": [],
      "stateMutability": "nonpayable",
      "type": "function"
    },
    {
      "inputs": [
        {
          "internalType": "bytes",
          "name": "referral",
          "type": "bytes"
        }
      ],
      "name": "decodeReferral",
      "outputs": [
        {
          "internalType": "bytes",
          "name": "",
          "type": "bytes"
        },
        {
          "internalType": "address",
          "name": "",
          "type": "address"
        },
        {
          "internalType": "address",
          "name": "",
          "type": "address"
        },
        {
          "internalType": "uint256",
          "name": "",
          "type": "uint256"
        },
        {
          "internalType": "uint256",
          "name": "",
          "type": "uint256"
        }
      ],
      "stateMutability": "pure",
      "type": "function"
    },
    {
      "inputs": [],
      "name": "getAdmin",
      "outputs": [
        {
          "internalType": "address",
          "name": "",
          "type": "address"
        }
      ],
      "stateMutability": "view",
      "type": "function"
    },
    {
      "inputs": [],
      "name": "getExpiryTime",
      "outputs": [
        {
          "internalType": "uint256",
          "name": "",
          "type": "uint256"
        }
      ],
      "stateMutability": "view",
      "type": "function"
    },
    {
      "inputs": [],
      "name": "getMaxCommisionRate",
      "outputs": [
        {
          "internalType": "uint256",
          "name": "",
          "type": "uint256"
        }
      ],
      "stateMutability": "view",
      "type": "function"
    },
    {
      "inputs": [],
      "name": "getMerkleRoot",
      "outputs": [
        {
          "internalType": "bytes32",
          "name": "",
          "type": "bytes32"
        }
      ],
      "stateMutability": "view",
      "type": "function"
    },
    {
      "inputs": [],
      "name": "getSigningWallet",
      "outputs": [
        {
          "internalType": "address",
          "name": "",
          "type": "address"
        }
      ],
      "stateMutability": "view",
      "type": "function"
    },
    {
      "inputs": [
        {
          "internalType": "address",
          "name": "who",
          "type": "address"
        }
      ],
      "name": "isMetaTransactionProcessor",
      "outputs": [
        {
          "internalType": "bool",
          "name": "",
          "type": "bool"
        }
      ],
      "stateMutability": "view",
      "type": "function"
    },
    {
      "inputs": [
        {
          "internalType": "bytes",
          "name": "signature",
          "type": "bytes"
        },
        {
          "internalType": "address",
          "name": "referrer",
          "type": "address"
        },
        {
          "internalType": "address",
          "name": "referee",
          "type": "address"
        },
        {
          "internalType": "uint256",
          "name": "expiryTime",
          "type": "uint256"
        },
        {
          "internalType": "uint256",
          "name": "commissionRate",
          "type": "uint256"
        }
      ],
      "name": "isReferralValid",
      "outputs": [
        {
          "internalType": "bool",
          "name": "",
          "type": "bool"
        }
      ],
      "stateMutability": "view",
      "type": "function"
    },
    {
      "inputs": [
        {
          "internalType": "address",
          "name": "",
          "type": "address"
        },
        {
          "internalType": "address",
          "name": "",
          "type": "address"
        },
        {
          "internalType": "uint256[]",
          "name": "",
          "type": "uint256[]"
        },
        {
          "internalType": "uint256[]",
          "name": "",
          "type": "uint256[]"
        },
        {
          "internalType": "bytes",
          "name": "",
          "type": "bytes"
        }
      ],
      "name": "onERC1155BatchReceived",
      "outputs": [
        {
          "internalType": "bytes4",
          "name": "",
          "type": "bytes4"
        }
      ],
      "stateMutability": "pure",
      "type": "function"
    },
    {
      "inputs": [
        {
          "internalType": "address",
          "name": "",
          "type": "address"
        },
        {
          "internalType": "address",
          "name": "",
          "type": "address"
        },
        {
          "internalType": "uint256",
          "name": "",
          "type": "uint256"
        },
        {
          "internalType": "uint256",
          "name": "",
          "type": "uint256"
        },
        {
          "internalType": "bytes",
          "name": "",
          "type": "bytes"
        }
      ],
      "name": "onERC1155Received",
      "outputs": [
        {
          "internalType": "bytes4",
          "name": "",
          "type": "bytes4"
        }
      ],
      "stateMutability": "pure",
      "type": "function"
    },
    {
      "inputs": [
        {
          "internalType": "address",
          "name": "metaTransactionProcessor",
          "type": "address"
        },
        {
          "internalType": "bool",
          "name": "enabled",
          "type": "bool"
        }
      ],
      "name": "setMetaTransactionProcessor",
      "outputs": [],
      "stateMutability": "nonpayable",
      "type": "function"
    },
    {
      "inputs": [
        {
          "internalType": "address payable",
          "name": "newWallet",
          "type": "address"
        }
      ],
      "name": "setReceivingWallet",
      "outputs": [],
      "stateMutability": "nonpayable",
      "type": "function"
    },
    {
      "inputs": [
        {
          "internalType": "uint256",
          "name": "newMaxCommissionRate",
          "type": "uint256"
        }
      ],
      "name": "updateMaxCommissionRate",
      "outputs": [],
      "stateMutability": "nonpayable",
      "type": "function"
    },
    {
      "inputs": [
        {
          "internalType": "address",
          "name": "newSigningWallet",
          "type": "address"
        }
      ],
      "name": "updateSigningWallet",
      "outputs": [],
      "stateMutability": "nonpayable",
      "type": "function"
    },
    {
      "inputs": [
        {
          "internalType": "address",
          "name": "to",
          "type": "address"
        },
        {
          "internalType": "uint256[]",
          "name": "assetIds",
          "type": "uint256[]"
        },
        {
          "internalType": "uint256[]",
          "name": "values",
          "type": "uint256[]"
        }
      ],
      "name": "withdrawAssets",
      "outputs": [],
      "stateMutability": "nonpayable",
      "type": "function"
    }
  ],
  "transactionHash": "0x87cfd7aea7a9ce79984f4db4fa4d635434820e7e9e0e7d573b990433bddaefe8",
  "args": [
    "0xaF40A483bF77AAb7b7D13dB18187E6D62C1EA41b",
    "0xCc933a862fc15379E441F2A16Cb943D385a4695f",
    "0xCc933a862fc15379E441F2A16Cb943D385a4695f",
    "0xa4519D601F43D0b8f167842a367465681F652252",
    "0x60927eB036621b801491B6c5e9A60A8d2dEeD75A",
    "0x70afddbf8dd8256c2e2093518d9615e657e741f28cdca3ea5ac7fe985248928a",
    1668171600,
    "0xB7060D3FeCAC3AE1F0A0AA416E3e8E472257950e",
    2000,
    "0x0000000000000000000000000000000000000000",
    "0x8055a2c0f7EB177BeaB357B70E6504402d2b5fF6",
    "0x5983532A5b9009E05428595b87F19e42068a232B",
    "0x94cA164E3d7B13700eC356a1540f7Ae7c239A2b3"
  ],
  "linkedData": [
    {
      "x": 232,
      "y": 14,
      "size": 1,
      "price": "1011000000000000000000",
      "reserved": "",
      "salt": "0x3d98bd4051df674293df716fd32674f909e57d90f93c9e67ae18136148672b11",
      "assetIds": []
    },
    {
      "x": 232,
      "y": 15,
      "size": 1,
      "price": "1011000000000000000000",
      "reserved": "",
      "salt": "0x720a1c541dd01f9ac972210146ecad9f92ab86aca5f564df05950fdda5f19bb2",
      "assetIds": []
    },
    {
      "x": 232,
      "y": 16,
      "size": 1,
      "price": "1011000000000000000000",
      "reserved": "",
      "salt": "0x7b3703284c125999803872a4b3ab79b522a3bb1ac020fecfc8479370cae026a1",
      "assetIds": []
    },
    {
      "x": 232,
      "y": 17,
      "size": 1,
      "price": "1011000000000000000000",
      "reserved": "",
      "salt": "0xe07e497dbc1e53a21809e75c78ef83e2d2559c0d21ecff8508bfeb9481119b23",
      "assetIds": []
    },
    {
      "x": 232,
      "y": 18,
      "size": 1,
      "price": "1011000000000000000000",
      "reserved": "",
      "salt": "0x38e5e57bd248fc61b3b98cd70f7985c5fce4e7c77a02d047e045eb928039cabd",
      "assetIds": []
    },
    {
      "x": 232,
      "y": 19,
      "size": 1,
      "price": "1011000000000000000000",
      "reserved": "0x7a9fe22691c811ea339d9b73150e6911a5343dca",
      "salt": "0xfe7fbcac75cfdd2638afd13d889219d0bbc9b46b5562111a3f3b79e8895af6b2",
      "assetIds": []
    },
    {
      "x": 232,
      "y": 20,
      "size": 1,
      "price": "1011000000000000000000",
      "reserved": "",
      "salt": "0xed1f3b3c643d9a68907b7ace6cf77d39308beb03d65a02c1a1046f9590d7af64",
      "assetIds": []
    },
    {
      "x": 233,
      "y": 9,
      "size": 1,
      "price": "1011000000000000000000",
      "reserved": "",
      "salt": "0x1cec1f7827b15c712d2cdf1a09a5d8ca3e4a1edb03e96ceb639a58dd0af0dfbc",
      "assetIds": []
    },
    {
      "x": 233,
      "y": 10,
      "size": 1,
      "price": "1011000000000000000000",
      "reserved": "",
      "salt": "0xea29fcdc2c6af2f7372cf8ec465e2f697f6ed58679af3a8110ffe187e0553a3e",
      "assetIds": []
    },
    {
      "x": 233,
      "y": 11,
      "size": 1,
      "price": "1011000000000000000000",
      "reserved": "",
      "salt": "0x50a81d46073d18ba0c98b9c8ca16430da2344831b00fc892d128e94d80041607",
      "assetIds": []
    },
    {
      "x": 233,
      "y": 12,
      "size": 1,
      "price": "1011000000000000000000",
      "reserved": "",
      "salt": "0x0e5955632ae13e88cd0c3c23dc202ffca411a906de21be97a637357ccfb9d028",
      "assetIds": []
    },
    {
      "x": 233,
      "y": 13,
      "size": 1,
      "price": "1011000000000000000000",
      "reserved": "",
      "salt": "0xb94472bc0834ec069daa35278af13a2b7c2fea3bdb4cf9f83a636825eaf1d1cc",
      "assetIds": []
    },
    {
      "x": 233,
      "y": 14,
      "size": 1,
      "price": "1011000000000000000000",
      "reserved": "",
      "salt": "0x446718b414914f186d1331a2d92fced7bcc66a80cc2904b34a39c7b75a042b56",
      "assetIds": []
    },
    {
      "x": 233,
      "y": 15,
      "size": 1,
      "price": "1011000000000000000000",
      "reserved": "",
      "salt": "0xc496150b879ba647ba46d370cdc667f7d86c8c1f8e282984304f962215cd87aa",
      "assetIds": []
    },
    {
      "x": 233,
      "y": 16,
      "size": 1,
      "price": "1011000000000000000000",
      "reserved": "",
      "salt": "0x3821100c85c3c9d818a9fa397f3069c8bc2f770445b3f63bb075923280e0fecb",
      "assetIds": []
    },
    {
      "x": 233,
      "y": 17,
      "size": 1,
      "price": "1011000000000000000000",
      "reserved": "",
      "salt": "0x6a257ce3a0c2c34ce132fe5cc0ee06bb5a39e51de41142fbacae3c642b46019d",
      "assetIds": []
    },
    {
      "x": 233,
      "y": 18,
      "size": 1,
      "price": "1011000000000000000000",
      "reserved": "",
      "salt": "0xfaa22afe6bc0110a9f7fe3c340953934263c569b8d08b19a55bc27da41aaa4fa",
      "assetIds": []
    },
    {
      "x": 233,
      "y": 19,
      "size": 1,
      "price": "1011000000000000000000",
      "reserved": "",
      "salt": "0xbc218c69032895eb96651d474b0eef5088ac4e2cfa8124f44a464772c6fcb907",
      "assetIds": []
    },
    {
      "x": 233,
      "y": 20,
      "size": 1,
      "price": "1011000000000000000000",
      "reserved": "",
      "salt": "0x7e49904d57ff873a1d6780985bcd7b85e11d4cb98a153d9e065d9fc64d84aa16",
      "assetIds": []
    },
    {
      "x": 234,
      "y": 6,
      "size": 1,
      "price": "1011000000000000000000",
      "reserved": "",
      "salt": "0xdb263f832a72a8b0266976ede5e55939c2af0cd6e63c87e33db17c5643b6c420",
      "assetIds": []
    },
    {
      "x": 234,
      "y": 7,
      "size": 1,
      "price": "1011000000000000000000",
      "reserved": "0x7a9fe22691c811ea339d9b73150e6911a5343dca",
      "salt": "0x30d95b74b7ed95f5484c195ce22d6eb1a26fdfd325439af4a416b99a8cec6788",
      "assetIds": []
    },
    {
      "x": 234,
      "y": 8,
      "size": 1,
      "price": "1011000000000000000000",
      "reserved": "",
      "salt": "0x9543a2fee87351b51788e581e56caaa468b24dfea1c1f6249c7957c94ead405f",
      "assetIds": []
    },
    {
      "x": 234,
      "y": 9,
      "size": 1,
      "price": "1011000000000000000000",
      "reserved": "",
      "salt": "0xb109249f4fd79c052493d511fe7e3287c121b01240ac990e5b2bf90d6f5a952d",
      "assetIds": []
    },
    {
      "x": 234,
      "y": 10,
      "size": 1,
      "price": "1011000000000000000000",
      "reserved": "0x7a9fe22691c811ea339d9b73150e6911a5343dca",
      "salt": "0xbc62c9ddb042fbdf5679219b23ff544d4a9f0d45a575a856fa635afac84aa201",
      "assetIds": []
    },
    {
      "x": 234,
      "y": 11,
      "size": 1,
      "price": "1011000000000000000000",
      "reserved": "",
      "salt": "0x3012df14390d89da34673f44750c45b366922a3eef1398352a32c77654275420",
      "assetIds": []
    },
    {
      "x": 234,
      "y": 12,
      "size": 1,
      "price": "1011000000000000000000",
      "reserved": "",
      "salt": "0x7362adcafb992b3f9da81f938e2aea7e0c90fa0345c00daf868af10ddcb6417a",
      "assetIds": []
    },
    {
      "x": 234,
      "y": 13,
      "size": 1,
      "price": "1011000000000000000000",
      "reserved": "0x7a9fe22691c811ea339d9b73150e6911a5343dca",
      "salt": "0x67f5a1c4932311c3c4b9d56bacc0ec22b86bdd0ea8dcacbea923e73cabdef53c",
      "assetIds": []
    },
    {
      "x": 234,
      "y": 14,
      "size": 1,
      "price": "1011000000000000000000",
      "reserved": "",
      "salt": "0xafd4d5b7232da6e5731feed95ccfe9268e083c634628b5dd881794b72dbde302",
      "assetIds": []
    },
    {
      "x": 234,
      "y": 15,
      "size": 1,
      "price": "1011000000000000000000",
      "reserved": "",
      "salt": "0x2be733c6472fc6fa0b619c2b3af789790b618018a6b475332f9f442ea27f66d5",
      "assetIds": []
    },
    {
      "x": 234,
      "y": 16,
      "size": 1,
      "price": "1011000000000000000000",
      "reserved": "",
      "salt": "0xcf6633bd34c82bd92120c7aa7531dadf189cfb4fab0a0b7f1ed7cfb255edea7c",
      "assetIds": []
    },
    {
      "x": 234,
      "y": 17,
      "size": 1,
      "price": "1011000000000000000000",
      "reserved": "",
      "salt": "0xe83cfb831c48f8b3388782aefc073cc2fd49e3aa74d5db1432a2fdb1bb90bdef",
      "assetIds": []
    },
    {
      "x": 235,
      "y": 6,
      "size": 1,
      "price": "1011000000000000000000",
      "reserved": "",
      "salt": "0xab6a8a654928d8cee3f5ae705b6a56f1225b8ccb8fbc13a44059da82e7a0e1db",
      "assetIds": []
    },
    {
      "x": 235,
      "y": 7,
      "size": 1,
      "price": "1011000000000000000000",
      "reserved": "",
      "salt": "0xd5da825b62ac4a71c80b537bbec1933e10f493f49a2375c15fd35b16523daea1",
      "assetIds": []
    },
    {
      "x": 235,
      "y": 8,
      "size": 1,
      "price": "1011000000000000000000",
      "reserved": "",
      "salt": "0xbee561ce3d150156e6b47e7ef400c8fef0d640c2d7ae8753360aac216d85c317",
      "assetIds": []
    },
    {
      "x": 235,
      "y": 9,
      "size": 1,
      "price": "1011000000000000000000",
      "reserved": "",
      "salt": "0x05b58a3eccf20d8bb089315f204a7482e4d0a42e152ee69ff478c2ddc6bb7b40",
      "assetIds": []
    },
    {
      "x": 235,
      "y": 10,
      "size": 1,
      "price": "1011000000000000000000",
      "reserved": "",
      "salt": "0x96c7546228292bff74fdabb420e04aba52793a389d2d45c598f1f8fe9a4d4b2d",
      "assetIds": []
    },
    {
      "x": 235,
      "y": 11,
      "size": 1,
      "price": "1011000000000000000000",
      "reserved": "",
      "salt": "0xdb0d8c78212f3e05d5af350686b35a7c4c13dbdfbd2360a1b719d52a9ff38f06",
      "assetIds": []
    },
    {
      "x": 235,
      "y": 12,
      "size": 1,
      "price": "1011000000000000000000",
      "reserved": "",
      "salt": "0x3672d751bf1f8283d276b34c1158603aa12347a9642a866e638ceb4d4ac1de2d",
      "assetIds": []
    },
    {
      "x": 235,
      "y": 13,
      "size": 1,
      "price": "1011000000000000000000",
      "reserved": "",
      "salt": "0x7efde8bd6201dbbb3d214aba051c7b86e691e52f19f344d63d9ab70036e1a5a9",
      "assetIds": []
    },
    {
      "x": 235,
      "y": 14,
      "size": 1,
      "price": "1011000000000000000000",
      "reserved": "",
      "salt": "0x4231b61e1d92cf8dabd250f110d7c0fe9abe84e569b9ca89bce4bde1b2209c33",
      "assetIds": []
    },
    {
      "x": 235,
      "y": 15,
      "size": 1,
      "price": "1011000000000000000000",
      "reserved": "",
      "salt": "0xd5890a4f5596b32c0fdf815f996626b2b65edf647d2c3df55add9ea883cf5c4a",
      "assetIds": []
    },
    {
      "x": 235,
      "y": 16,
      "size": 1,
      "price": "1011000000000000000000",
      "reserved": "0x7a9fe22691c811ea339d9b73150e6911a5343dca",
      "salt": "0x31b2c325a82a5bc7ea80bdd034235d30b598e0eeb5f414944894014fc78b05e9",
      "assetIds": []
    },
    {
      "x": 235,
      "y": 17,
      "size": 1,
      "price": "1011000000000000000000",
      "reserved": "",
      "salt": "0x55792717373c8da7724c637f1341b4f607f2691b44ef0a73d98c934f975a2b7d",
      "assetIds": []
    },
    {
      "x": 236,
      "y": 6,
      "size": 1,
      "price": "1011000000000000000000",
      "reserved": "0x7a9fe22691c811ea339d9b73150e6911a5343dca",
      "salt": "0x9f63fcbe90cab4d45cc255caf1110d8febfe94be6fa0ede926da74b91f42a285",
      "assetIds": []
    },
    {
      "x": 236,
      "y": 7,
      "size": 1,
      "price": "1011000000000000000000",
      "reserved": "",
      "salt": "0xf3e4adacd9ba13df290efa6452de99cf863a94506e16cee8c2a4e14e70e695c0",
      "assetIds": []
    },
    {
      "x": 236,
      "y": 8,
      "size": 1,
      "price": "1011000000000000000000",
      "reserved": "",
      "salt": "0x089ca192b1bb3dea53a0848abf41e6ee84ba12ae65928b2fa482a725c9c7d6dc",
      "assetIds": []
    },
    {
      "x": 236,
      "y": 9,
      "size": 1,
      "price": "1011000000000000000000",
      "reserved": "0x7a9fe22691c811ea339d9b73150e6911a5343dca",
      "salt": "0xeb4342085230e25bc61a3fb782bd3d5da2d3bfa94a21b6f9335daa611ea140c3",
      "assetIds": []
    },
    {
      "x": 236,
      "y": 10,
      "size": 1,
      "price": "1011000000000000000000",
      "reserved": "",
      "salt": "0xf609c2570e73f181a615801fc02b57888468214f651c35a0746e649f99889a32",
      "assetIds": []
    },
    {
      "x": 236,
      "y": 11,
      "size": 1,
      "price": "1011000000000000000000",
      "reserved": "",
      "salt": "0x378665bd04b5a7542f00d3e06f5ce04ee6953068871bc8cdb05f850fb4ba25e9",
      "assetIds": []
    },
    {
      "x": 236,
      "y": 12,
      "size": 1,
      "price": "1011000000000000000000",
      "reserved": "0x7a9fe22691c811ea339d9b73150e6911a5343dca",
      "salt": "0x718a1f21d39eae31b83df6cd2b566ab10c03db60d49220fd1e4b3b3365d2d294",
      "assetIds": []
    },
    {
      "x": 236,
      "y": 13,
      "size": 1,
      "price": "1011000000000000000000",
      "reserved": "",
      "salt": "0xb55c1053fc0f4db85a57726934a321a7a1c339343b766f8d7f3fef2b8e57f886",
      "assetIds": []
    },
    {
      "x": 236,
      "y": 14,
      "size": 1,
      "price": "1011000000000000000000",
      "reserved": "",
      "salt": "0x18430915f6164a28dc17c6cc8c16a34d9fa54b33a47b8821fd56cfec2bc4d0e6",
      "assetIds": []
    },
    {
      "x": 236,
      "y": 15,
      "size": 1,
      "price": "1011000000000000000000",
      "reserved": "",
      "salt": "0x52d7ec636f408a5e56e6cb306b68228b867aa68a4bdc2835637ff4d37d95ac74",
      "assetIds": []
    },
    {
      "x": 236,
      "y": 16,
      "size": 1,
      "price": "1011000000000000000000",
      "reserved": "",
      "salt": "0x235c6ef6f442273105f27aa3466874f9e7986eea8bd0dc79f526b4ec21327146",
      "assetIds": []
    },
    {
      "x": 236,
      "y": 17,
      "size": 1,
      "price": "1011000000000000000000",
      "reserved": "",
      "salt": "0x1f2a284a51f1acc3e77674e53e6871e2003d93da5235502ed0c8d48da012b85f",
      "assetIds": []
    },
    {
      "x": 237,
      "y": 6,
      "size": 1,
      "price": "1011000000000000000000",
      "reserved": "",
      "salt": "0x60166e65f0d5c055a1fdb62b651521c55317d79da2abeb757491c020e725266b",
      "assetIds": []
    },
    {
      "x": 237,
      "y": 7,
      "size": 1,
      "price": "1011000000000000000000",
      "reserved": "",
      "salt": "0x84da685a05410191bf28073a54909d09f7a87465111757f3983bb0464273502e",
      "assetIds": []
    },
    {
      "x": 237,
      "y": 8,
      "size": 1,
      "price": "1011000000000000000000",
      "reserved": "",
      "salt": "0x8fea48502977507d337338a7b14049b2e0f9cf25e0a4ff5f900d0fa4080f9b2d",
      "assetIds": []
    },
    {
      "x": 237,
      "y": 9,
      "size": 1,
      "price": "1011000000000000000000",
      "reserved": "",
      "salt": "0x29bb9752c7739dfb4603ea752fe9cf46b94e6b5ee69e41167cbe3e14652744f6",
      "assetIds": []
    },
    {
      "x": 237,
      "y": 10,
      "size": 1,
      "price": "1011000000000000000000",
      "reserved": "",
      "salt": "0x3c63e95cd2f04ab9aed59e85660744460b9de5deaf35f0035d59ead8a74f3593",
      "assetIds": []
    },
    {
      "x": 237,
      "y": 11,
      "size": 1,
      "price": "1011000000000000000000",
      "reserved": "",
      "salt": "0xc5d541de9352901cbe6866c8e967417ac58627133512effac18d3c292af34c4b",
      "assetIds": []
    },
    {
      "x": 237,
      "y": 12,
      "size": 1,
      "price": "1011000000000000000000",
      "reserved": "",
      "salt": "0x2d98f102ff8dd49823a015d0c845706bf497ba3c4214f77326e25e0998a5a66b",
      "assetIds": []
    },
    {
      "x": 237,
      "y": 13,
      "size": 1,
      "price": "1011000000000000000000",
      "reserved": "",
      "salt": "0x1cd00f298feb2e2095b6a784ae352167a858937f755a0e7480b38b3681ddfbe7",
      "assetIds": []
    },
    {
      "x": 237,
      "y": 14,
      "size": 1,
      "price": "1011000000000000000000",
      "reserved": "",
      "salt": "0xfee30840e9da89002b6b05ea3cfef1bdb34d52aa00abb77447b94aa16578ed1b",
      "assetIds": []
    },
    {
      "x": 238,
      "y": 6,
      "size": 1,
      "price": "1011000000000000000000",
      "reserved": "",
      "salt": "0x114c058c1835cbbf37ed58287b70be5f49777d8e407f3e74135de56aae99aaef",
      "assetIds": []
    },
    {
      "x": 238,
      "y": 7,
      "size": 1,
      "price": "1011000000000000000000",
      "reserved": "0x7a9fe22691c811ea339d9b73150e6911a5343dca",
      "salt": "0x08110c28955560dce3e0fe5634a935ae3bd4bc413eb2e5715be86f16580a8ff8",
      "assetIds": []
    },
    {
      "x": 238,
      "y": 8,
      "size": 1,
      "price": "1011000000000000000000",
      "reserved": "",
      "salt": "0x3a97ae2873072ca043b5d03f4b4ad0dc0627827f2a3aef141cf6ad904c5e2281",
      "assetIds": []
    },
    {
      "x": 238,
      "y": 9,
      "size": 1,
      "price": "1011000000000000000000",
      "reserved": "",
      "salt": "0x842998feab7d08d7272e7368654ae3d658e1c15210497099e92114272d9b6cd4",
      "assetIds": []
    },
    {
      "x": 238,
      "y": 10,
      "size": 1,
      "price": "1011000000000000000000",
      "reserved": "0x7a9fe22691c811ea339d9b73150e6911a5343dca",
      "salt": "0x675a9c9a2de06f50a21a1e86065308885b112afec8b39e140b473cedcd0f6b25",
      "assetIds": []
    },
    {
      "x": 238,
      "y": 11,
      "size": 1,
      "price": "1011000000000000000000",
      "reserved": "",
      "salt": "0x2e8ba4baf85dd0db02f73d96f06fbcd8ff88c612654a2aa48598f42c2e7cc330",
      "assetIds": []
    },
    {
      "x": 238,
      "y": 12,
      "size": 1,
      "price": "1011000000000000000000",
      "reserved": "",
      "salt": "0x027bfc116ee0ed42803154df17852d4b1f4a31dd391194eb424098bae96f94d8",
      "assetIds": []
    },
    {
      "x": 238,
      "y": 13,
      "size": 1,
      "price": "1011000000000000000000",
      "reserved": "0x7a9fe22691c811ea339d9b73150e6911a5343dca",
      "salt": "0xec44f92e7122d4938bd404561c9b6c3e03ed677c294b4ab25a113d1ab702666a",
      "assetIds": []
    },
    {
      "x": 238,
      "y": 14,
      "size": 1,
      "price": "1011000000000000000000",
      "reserved": "",
      "salt": "0xc2d7d1f1f69ff61b001994adc8fa889d8f200fb6ceffb3bca2a5c3d6ed7b09a7",
      "assetIds": []
    },
    {
      "x": 239,
      "y": 6,
      "size": 1,
      "price": "1011000000000000000000",
      "reserved": "",
      "salt": "0xc04cba94297dd5562c87fa39d95af89a7e9d0a917fecd003e2ea9e325a6aeaf1",
      "assetIds": []
    },
    {
      "x": 239,
      "y": 7,
      "size": 1,
      "price": "1011000000000000000000",
      "reserved": "",
      "salt": "0xb681c61fc95b3e9b83f05e7ac49e6052ae6fe5fb313d43bf516486fc41885ccb",
      "assetIds": []
    },
    {
      "x": 239,
      "y": 8,
      "size": 1,
      "price": "1011000000000000000000",
      "reserved": "",
      "salt": "0x36bcb98386f6124cca0dd45366d05c731b9e7b883a26365c39985e6ac61bec60",
      "assetIds": []
    },
    {
      "x": 239,
      "y": 9,
      "size": 1,
      "price": "1011000000000000000000",
      "reserved": "",
      "salt": "0x522efc4cf6046452e1a1ef695f71d2cdcded3a890b5e832e59798187ac72e497",
      "assetIds": []
    },
    {
      "x": 239,
      "y": 10,
      "size": 1,
      "price": "1011000000000000000000",
      "reserved": "",
      "salt": "0x22d609139b3fa580fba259939dff18a90197eab62687171f68a06d51ac4af2ab",
      "assetIds": []
    },
    {
      "x": 239,
      "y": 11,
      "size": 1,
      "price": "1011000000000000000000",
      "reserved": "0x7a9fe22691c811ea339d9b73150e6911a5343dca",
      "salt": "0x6e2597a6ed12cebc29bbfcb388f1b6e28ffa5715f6f712fb15520a593160463c",
      "assetIds": []
    },
    {
      "x": 239,
      "y": 12,
      "size": 1,
      "price": "1011000000000000000000",
      "reserved": "",
      "salt": "0xb62b28d8e746d26b941e56d855eaf9a5bc24040e355b25bd50a6ac88d48d2333",
      "assetIds": []
    },
    {
      "x": 239,
      "y": 13,
      "size": 1,
      "price": "1011000000000000000000",
      "reserved": "",
      "salt": "0x7fe28d8306b502d10e0c1db03d46b5b66dd19f9c42f3e6410da229f9310ed79c",
      "assetIds": []
    },
    {
      "x": 239,
      "y": 14,
      "size": 1,
      "price": "1011000000000000000000",
      "reserved": "",
      "salt": "0x23be900199b0bce804af4dce0518ed12471115b00e5427163b0648f890ff8803",
      "assetIds": []
    },
    {
      "x": 240,
      "y": 6,
      "size": 1,
      "price": "4683000000000000000000",
      "reserved": "",
      "salt": "0x4f5d7d5339f2374fe01b7be446e4d267d19fa27285b072345d09f3541def0bab",
      "assetIds": [
        "41506478881403507969696680653240014914910929820314476107906210059990541021186"
      ]
    },
    {
      "x": 240,
      "y": 7,
      "size": 1,
      "price": "1011000000000000000000",
      "reserved": "",
      "salt": "0x7c8af8c9d0312dcc38a74be886a4727bd433b5c7e9ed0927f53f990e76f983eb",
      "assetIds": []
    },
    {
      "x": 240,
      "y": 8,
      "size": 1,
      "price": "1011000000000000000000",
      "reserved": "",
      "salt": "0xa11f857f51ef45625200be06c2e090353a3808639686bf68c04c6f0166af6723",
      "assetIds": []
    },
    {
      "x": 240,
      "y": 9,
      "size": 1,
      "price": "1011000000000000000000",
      "reserved": "0x7a9fe22691c811ea339d9b73150e6911a5343dca",
      "salt": "0xedcbf63f6d5fb2795637cba029c8320d886f7d199964cde553eacef6ca8c959c",
      "assetIds": []
    },
    {
      "x": 240,
      "y": 10,
      "size": 1,
      "price": "1011000000000000000000",
      "reserved": "",
      "salt": "0xac4a73665e866797f6404242a9c116ddb0f7d9d0842a36222fa74740d953a0a6",
      "assetIds": []
    },
    {
      "x": 240,
      "y": 11,
      "size": 1,
      "price": "1011000000000000000000",
      "reserved": "",
      "salt": "0x57c91eda9e1764ea76fdc8046f675bd8fbd76a00f02fa0280cab63880db2973c",
      "assetIds": []
    },
    {
      "x": 241,
      "y": 6,
      "size": 1,
      "price": "4683000000000000000000",
      "reserved": "",
      "salt": "0x64c843ade0e21f93c9751659c5f2a082883af7982031f25bcdcdaf6f11c55254",
      "assetIds": [
        "41506478881403507969696680653240014914910929820314476107906210059990541021186"
      ]
    },
    {
      "x": 241,
      "y": 7,
      "size": 1,
      "price": "1011000000000000000000",
      "reserved": "0x7a9fe22691c811ea339d9b73150e6911a5343dca",
      "salt": "0x4f2e688bf54aa6edc5940fb7142dcf7804eb6d711779ce8bd919d3cb88455498",
      "assetIds": []
    },
    {
      "x": 241,
      "y": 8,
      "size": 1,
      "price": "1011000000000000000000",
      "reserved": "",
      "salt": "0x291e68d1934048d028fb2079c1de032ec502c4105ac24f616abdba21071d7b59",
      "assetIds": []
    },
    {
      "x": 241,
      "y": 9,
      "size": 1,
      "price": "1011000000000000000000",
      "reserved": "",
      "salt": "0x0dfbd229f7cbc57dd2b176147202592a4e64f8213824a97846508501157ac3f9",
      "assetIds": []
    },
    {
      "x": 241,
      "y": 10,
      "size": 1,
      "price": "1011000000000000000000",
      "reserved": "",
      "salt": "0xf66ef2f0b300a578e75036d96d104e5e0ca85dad1315de366a9f07490509d18a",
      "assetIds": []
    },
    {
      "x": 241,
      "y": 11,
      "size": 1,
      "price": "1011000000000000000000",
      "reserved": "",
      "salt": "0x44fef60e192db775070707ea2caf5dbec33904432915a73334965920ff471915",
      "assetIds": []
    },
    {
      "x": 242,
      "y": 6,
      "size": 1,
      "price": "4683000000000000000000",
      "reserved": "",
      "salt": "0x3fdba74c55d4d46918b1dd88972d2f7a7b1a18e1242f539af49a13f44e5c2faf",
      "assetIds": [
        "41506478881403507969696680653240014914910929820314476107906210059990541021186"
      ]
    },
    {
      "x": 242,
      "y": 7,
      "size": 1,
      "price": "4683000000000000000000",
      "reserved": "",
      "salt": "0xde0e3424de7904170779b080500b892aa04c7b94790bf2184527c130323222c6",
      "assetIds": [
        "41506478881403507969696680653240014914910929820314476107906210059990541021186"
      ]
    },
    {
      "x": 242,
      "y": 8,
      "size": 1,
      "price": "4683000000000000000000",
      "reserved": "",
      "salt": "0x1c17e97e0787288da12d5359b62a88f261cf3401c412080b5d0296ce850c862b",
      "assetIds": [
        "41506478881403507969696680653240014914910929820314476107906210059990541021186"
      ]
    },
    {
      "x": 242,
      "y": 9,
      "size": 1,
      "price": "4683000000000000000000",
      "reserved": "",
      "salt": "0x1cfc19c9077548575faca6a307b77c65c5f20f865955ad6f47c7ddca2bcf1375",
      "assetIds": [
        "41506478881403507969696680653240014914910929820314476107906210059990541021186"
      ]
    },
    {
      "x": 242,
      "y": 10,
      "size": 1,
      "price": "4683000000000000000000",
      "reserved": "",
      "salt": "0x50ec06336c0fd426d8bb102d1ef8fe467934c915b36881fdd1fc1ba8bd56234f",
      "assetIds": [
        "41506478881403507969696680653240014914910929820314476107906210059990541021186"
      ]
    },
    {
      "x": 242,
      "y": 11,
      "size": 1,
      "price": "4683000000000000000000",
      "reserved": "",
      "salt": "0x3c60d363dc4126fb330254a70d92dbf0e570c60d2632c7eca48cd1091f0b24d6",
      "assetIds": [
        "41506478881403507969696680653240014914910929820314476107906210059990541021186"
      ]
    },
    {
      "x": 243,
      "y": 6,
      "size": 1,
      "price": "4683000000000000000000",
      "reserved": "",
      "salt": "0xeabdc1eade4d37511a92d524b0050f25a1358c64c09437f0f9f48981a706a04c",
      "assetIds": [
        "41506478881403507969696680653240014914910929820314476107906210059990541021186"
      ]
    },
    {
      "x": 243,
      "y": 7,
      "size": 1,
      "price": "4683000000000000000000",
      "reserved": "",
      "salt": "0xb2b284d5fcbbb6906008319458e358884bfbe03ff94c9b2f873b83629474deaa",
      "assetIds": [
        "41506478881403507969696680653240014914910929820314476107906210059990541021186"
      ]
    },
    {
      "x": 243,
      "y": 8,
      "size": 1,
      "price": "4683000000000000000000",
      "reserved": "",
      "salt": "0xfb88ef2f1cadc7e5f7eda78f388ec118826ac1c493f0d151178d29cdf0d5251b",
      "assetIds": [
        "41506478881403507969696680653240014914910929820314476107906210059990541021186"
      ]
    },
    {
      "x": 244,
      "y": 6,
      "size": 1,
      "price": "4683000000000000000000",
      "reserved": "",
      "salt": "0xb78addb76cdfb2a375428b9dfdf522384c9b6f9aa774ffee31db550d1cc60b70",
      "assetIds": [
        "41506478881403507969696680653240014914910929820314476107906210059990541021186"
      ]
    },
    {
      "x": 244,
      "y": 7,
      "size": 1,
      "price": "4683000000000000000000",
      "reserved": "",
      "salt": "0xf05930a60125de7ba5382d94e3ac0ea9b129edcd1be0aae80f090a0e25317190",
      "assetIds": [
        "41506478881403507969696680653240014914910929820314476107906210059990541021186"
      ]
    },
    {
      "x": 244,
      "y": 8,
      "size": 1,
      "price": "4683000000000000000000",
      "reserved": "",
      "salt": "0x37c3514f2809f17a8f4dc6184a417df9d5d897b588875c76c2d9e975450ef455",
      "assetIds": [
        "41506478881403507969696680653240014914910929820314476107906210059990541021186"
      ]
    },
    {
      "x": 245,
      "y": 6,
      "size": 1,
      "price": "4683000000000000000000",
      "reserved": "",
      "salt": "0x3d8fa4067e769728a182913d130f3616b79c55be7c394de7e3d598209e376e19",
      "assetIds": [
        "41506478881403507969696680653240014914910929820314476107906210059990541021186"
      ]
    },
    {
      "x": 245,
      "y": 7,
      "size": 1,
      "price": "4683000000000000000000",
      "reserved": "",
      "salt": "0x12017a5aeb8e7ae682bbaac5da30e30c25d94bf8c0ebc1f3bb9e46efe88661f6",
      "assetIds": [
        "41506478881403507969696680653240014914910929820314476107906210059990541021186"
      ]
    },
    {
      "x": 245,
      "y": 8,
      "size": 1,
      "price": "4683000000000000000000",
      "reserved": "",
      "salt": "0xb185961f0186b8178e078df5b3a0df007fa7ba9a1231edf881c044a1657b140f",
      "assetIds": [
        "41506478881403507969696680653240014914910929820314476107906210059990541021186"
      ]
    },
    {
      "x": 246,
      "y": 3,
      "size": 1,
      "price": "1011000000000000000000",
      "reserved": "",
      "salt": "0x25f9802e1435c0c0db9b69cfafbe33e48054c4ca374467f3ec515bbfa17c2691",
      "assetIds": []
    },
    {
      "x": 246,
      "y": 4,
      "size": 1,
      "price": "4683000000000000000000",
      "reserved": "",
      "salt": "0x726a0cf9a8a9d8fd2af94dc01c91f12ae0dc40ecd692d8d5f2e4de5be19d8d4e",
      "assetIds": [
        "41506478881403507969696680653240014914910929820314476107906210059990541021186"
      ]
    },
    {
      "x": 246,
      "y": 5,
      "size": 1,
      "price": "4683000000000000000000",
      "reserved": "",
      "salt": "0x619ae8717b4e200b18cbeda7a41a874b95f80004862352d4e7cef496a47aea05",
      "assetIds": [
        "41506478881403507969696680653240014914910929820314476107906210059990541021186"
      ]
    },
    {
      "x": 246,
      "y": 6,
      "size": 1,
      "price": "4683000000000000000000",
      "reserved": "",
      "salt": "0x4d70bc1a4f17318514d29d46ef2534db61093fe4c475538d8cabde829fcabfa7",
      "assetIds": [
        "41506478881403507969696680653240014914910929820314476107906210059990541021186"
      ]
    },
    {
      "x": 246,
      "y": 7,
      "size": 1,
      "price": "4683000000000000000000",
      "reserved": "",
      "salt": "0xc9c6f819aefad5d933fcf027fa93bddd9c30b6e6ba491d316d23d20d5961497c",
      "assetIds": [
        "41506478881403507969696680653240014914910929820314476107906210059990541021186"
      ]
    },
    {
      "x": 246,
      "y": 8,
      "size": 1,
      "price": "4683000000000000000000",
      "reserved": "",
      "salt": "0xc3b7583d109488e2a5661e380bbabfba7f000a772f9dec1f2bd1410a98f3e387",
      "assetIds": [
        "41506478881403507969696680653240014914910929820314476107906210059990541021186"
      ]
    },
    {
      "x": 246,
      "y": 9,
      "size": 1,
      "price": "4683000000000000000000",
      "reserved": "",
      "salt": "0x039ac9340bcd9d1aa8edc1db48ece48f9dde637e5495bb25567a43aa8cc2faf8",
      "assetIds": [
        "41506478881403507969696680653240014914910929820314476107906210059990541021186"
      ]
    },
    {
      "x": 246,
      "y": 10,
      "size": 1,
      "price": "4683000000000000000000",
      "reserved": "",
      "salt": "0x13a5f66dde714b3986985b50349674dfbbca048993126415c5d9f84c725da640",
      "assetIds": [
        "41506478881403507969696680653240014914910929820314476107906210059990541021186"
      ]
    },
    {
      "x": 246,
      "y": 11,
      "size": 1,
      "price": "4683000000000000000000",
      "reserved": "",
      "salt": "0x22b518e2c53cb08105abc1c3a55a64dd610f70fb311032fb55f924f3823722a5",
      "assetIds": [
        "41506478881403507969696680653240014914910929820314476107906210059990541021186"
      ]
    },
    {
      "x": 247,
      "y": 3,
      "size": 1,
      "price": "1011000000000000000000",
      "reserved": "",
      "salt": "0x12316cf1ffa638212f221280bda9f77f9de0fcc36ca9fd5c0d77ffa780a932f2",
      "assetIds": []
    },
    {
      "x": 247,
      "y": 4,
      "size": 1,
      "price": "4683000000000000000000",
      "reserved": "",
      "salt": "0xc4a65d891834171cb49e1af45e9bee99ef05e44695c356b89ed38004ff45fd98",
      "assetIds": [
        "41506478881403507969696680653240014914910929820314476107906210059990541021186"
      ]
    },
    {
      "x": 247,
      "y": 5,
      "size": 1,
      "price": "4683000000000000000000",
      "reserved": "",
      "salt": "0xbe648b2abb6c18214b945808f60194a7513bc44f225e9b89de44345bfc89d884",
      "assetIds": [
        "41506478881403507969696680653240014914910929820314476107906210059990541021186"
      ]
    },
    {
      "x": 247,
      "y": 6,
      "size": 1,
      "price": "4683000000000000000000",
      "reserved": "",
      "salt": "0xebb461de7b3ec58edbacfa90ce279fe33bef5a6b0aba4447e651877f85b2b616",
      "assetIds": [
        "41506478881403507969696680653240014914910929820314476107906210059990541021186"
      ]
    },
    {
      "x": 247,
      "y": 7,
      "size": 1,
      "price": "4683000000000000000000",
      "reserved": "",
      "salt": "0x0eb991039118bea5c92bc46a9306645b0a72bdb69a6b4218d1b32e93ba83ed4e",
      "assetIds": [
        "41506478881403507969696680653240014914910929820314476107906210059990541021186"
      ]
    },
    {
      "x": 247,
      "y": 8,
      "size": 1,
      "price": "4683000000000000000000",
      "reserved": "",
      "salt": "0xa6d48351c3698b2eb3ab8c1cf78cea390980eabdb22c55d7c880404a97155432",
      "assetIds": [
        "41506478881403507969696680653240014914910929820314476107906210059990541021186"
      ]
    },
    {
      "x": 247,
      "y": 9,
      "size": 1,
      "price": "4683000000000000000000",
      "reserved": "",
      "salt": "0xe6171caa02b715a252ec30761cdf954e5355ca5417768402ceb0ae5176b0435c",
      "assetIds": [
        "41506478881403507969696680653240014914910929820314476107906210059990541021186"
      ]
    },
    {
      "x": 247,
      "y": 10,
      "size": 1,
      "price": "4683000000000000000000",
      "reserved": "",
      "salt": "0x5b6c1da8861f325e68f7ca24b06d0baba3d68a560187309fcd780b30d67f5471",
      "assetIds": [
        "41506478881403507969696680653240014914910929820314476107906210059990541021186"
      ]
    },
    {
      "x": 247,
      "y": 11,
      "size": 1,
      "price": "1011000000000000000000",
      "reserved": "0x7a9fe22691c811ea339d9b73150e6911a5343dca",
      "salt": "0x2b2e9a2af2d8851cfb83a7086888c26a2df497eff12fadf5f1afedaaa0561de3",
      "assetIds": []
    },
    {
      "x": 248,
      "y": 3,
      "size": 1,
      "price": "1011000000000000000000",
      "reserved": "",
      "salt": "0xd9d03c19d54704d7cbbaa233742d7c923bad4ece8b05c256aa9d0df68ec59e3b",
      "assetIds": []
    },
    {
      "x": 248,
      "y": 4,
      "size": 1,
      "price": "4683000000000000000000",
      "reserved": "",
      "salt": "0x4f898cefa9ea80436a5185475148e17cd1decb2ac8b1576ec801fc148f66ef8a",
      "assetIds": [
        "41506478881403507969696680653240014914910929820314476107906210059990541021186"
      ]
    },
    {
      "x": 248,
      "y": 5,
      "size": 1,
      "price": "4683000000000000000000",
      "reserved": "",
      "salt": "0x594b51c3fd400119c11a83db8072c7eda7b0c9ed4e5668f96059746f64905157",
      "assetIds": [
        "41506478881403507969696680653240014914910929820314476107906210059990541021186"
      ]
    },
    {
      "x": 248,
      "y": 6,
      "size": 1,
      "price": "4683000000000000000000",
      "reserved": "",
      "salt": "0xbeecf10adb4dbba184a919023b7a28509421350f837ef77fa1be8370e60e9179",
      "assetIds": [
        "41506478881403507969696680653240014914910929820314476107906210059990541021186"
      ]
    },
    {
      "x": 248,
      "y": 7,
      "size": 1,
      "price": "4683000000000000000000",
      "reserved": "",
      "salt": "0x9862c355532e95df0b403fa53a7910f3237c395fe8175f99015b22439fbb3cf8",
      "assetIds": [
        "41506478881403507969696680653240014914910929820314476107906210059990541021186"
      ]
    },
    {
      "x": 248,
      "y": 8,
      "size": 1,
      "price": "4683000000000000000000",
      "reserved": "",
      "salt": "0xea3942c970b81aa6792dca2a978f81d8dcb0386b45ae657a53b023e012353b90",
      "assetIds": [
        "41506478881403507969696680653240014914910929820314476107906210059990541021186"
      ]
    },
    {
      "x": 248,
      "y": 9,
      "size": 1,
      "price": "4683000000000000000000",
      "reserved": "",
      "salt": "0xd230a5730debdd8c1d91cd7e094008b13e6549e9e1b43a4d299269781b33fd73",
      "assetIds": [
        "41506478881403507969696680653240014914910929820314476107906210059990541021186"
      ]
    },
    {
      "x": 248,
      "y": 10,
      "size": 1,
      "price": "4683000000000000000000",
      "reserved": "",
      "salt": "0xbce037c3825ad5639d75c6b93826bf63a202caa227938233f3f07209415344f4",
      "assetIds": [
        "41506478881403507969696680653240014914910929820314476107906210059990541021186"
      ]
    },
    {
      "x": 248,
      "y": 11,
      "size": 1,
      "price": "4683000000000000000000",
      "reserved": "",
      "salt": "0x5c141446f5fd4879857883585147ee063665eefb545e444f26d86c1d4696f272",
      "assetIds": [
        "41506478881403507969696680653240014914910929820314476107906210059990541021186"
      ]
    },
    {
      "x": 249,
      "y": 6,
      "size": 1,
      "price": "4683000000000000000000",
      "reserved": "",
      "salt": "0x72aedb79f184e88dd2ee0e12b9a9aad042441cf4e7e912e01d1d51a36434c9e7",
      "assetIds": [
        "41506478881403507969696680653240014914910929820314476107906210059990541021186"
      ]
    },
    {
      "x": 249,
      "y": 7,
      "size": 1,
      "price": "4683000000000000000000",
      "reserved": "",
      "salt": "0x3646beae3f3414a75420d0b4d3e18788e2dcb1642dcb766ac69f13648205ba75",
      "assetIds": [
        "41506478881403507969696680653240014914910929820314476107906210059990541021186"
      ]
    },
    {
      "x": 249,
      "y": 8,
      "size": 1,
      "price": "4683000000000000000000",
      "reserved": "",
      "salt": "0x86804b461ea0fd76d56d4aa7447f1ff0f4138bd673b97a6f85daf66a4b244f3b",
      "assetIds": [
        "41506478881403507969696680653240014914910929820314476107906210059990541021186"
      ]
    },
    {
      "x": 249,
      "y": 9,
      "size": 1,
      "price": "4683000000000000000000",
      "reserved": "",
      "salt": "0xce5eaf57014685250cb55b3348746e46470f9081628dd3cbb2a8ff9494a08a0f",
      "assetIds": [
        "41506478881403507969696680653240014914910929820314476107906210059990541021186"
      ]
    },
    {
      "x": 249,
      "y": 10,
      "size": 1,
      "price": "4683000000000000000000",
      "reserved": "",
      "salt": "0xfae14471f3ccfa84d27d809fd09737cc09bfe80e03668440728b14ccc9e0a96e",
      "assetIds": [
        "41506478881403507969696680653240014914910929820314476107906210059990541021186"
      ]
    },
    {
      "x": 249,
      "y": 11,
      "size": 1,
      "price": "4683000000000000000000",
      "reserved": "",
      "salt": "0x178aaa4fcc3ae26dc9ff944b3ebb8e8d7ed94c8e2df97df04ec7b06724dfd19b",
      "assetIds": [
        "41506478881403507969696680653240014914910929820314476107906210059990541021186"
      ]
    },
    {
      "x": 250,
      "y": 6,
      "size": 1,
      "price": "4683000000000000000000",
      "reserved": "",
      "salt": "0x7d495e722d4c01e86caa3eaf31d6e3deceae16cefc12f590446598815a56acb5",
      "assetIds": [
        "41506478881403507969696680653240014914910929820314476107906210059990541021186"
      ]
    },
    {
      "x": 250,
      "y": 7,
      "size": 1,
      "price": "4683000000000000000000",
      "reserved": "",
      "salt": "0xc7e0e68c215a6343d464154a335323546751a70ef52714df5a3c49da9139cbda",
      "assetIds": [
        "41506478881403507969696680653240014914910929820314476107906210059990541021186"
      ]
    },
    {
      "x": 250,
      "y": 8,
      "size": 1,
      "price": "4683000000000000000000",
      "reserved": "",
      "salt": "0xa191d9479208fde559ea3b1aa3dd0f358f4df183033eaaf452c83a04ac8d37da",
      "assetIds": [
        "41506478881403507969696680653240014914910929820314476107906210059990541021186"
      ]
    },
    {
      "x": 250,
      "y": 9,
      "size": 1,
      "price": "4683000000000000000000",
      "reserved": "",
      "salt": "0x9dd6e154a66ce942980c6f2327e69bde182ba534eaae45a95097e3fad176f3a8",
      "assetIds": [
        "41506478881403507969696680653240014914910929820314476107906210059990541021186"
      ]
    },
    {
      "x": 250,
      "y": 10,
      "size": 1,
      "price": "4683000000000000000000",
      "reserved": "",
      "salt": "0xe05b0a3e324f39aea4e714fd6e38d9d2d6a2e1f882adea9f0a5bdf1b0d6a4552",
      "assetIds": [
        "41506478881403507969696680653240014914910929820314476107906210059990541021186"
      ]
    },
    {
      "x": 250,
      "y": 11,
      "size": 1,
      "price": "4683000000000000000000",
      "reserved": "",
      "salt": "0xdc1bed8e5a6bf593e7c2565651a03a34435eb2e380dcce4b6db570b60c99d48c",
      "assetIds": [
        "41506478881403507969696680653240014914910929820314476107906210059990541021186"
      ]
    },
    {
      "x": 251,
      "y": 6,
      "size": 1,
      "price": "4683000000000000000000",
      "reserved": "",
      "salt": "0x2d5d7690f38bdceb3158054d39c2db3c97a3283a13216129e2858a2b8e581c24",
      "assetIds": [
        "41506478881403507969696680653240014914910929820314476107906210059990541021186"
      ]
    },
    {
      "x": 251,
      "y": 7,
      "size": 1,
      "price": "4683000000000000000000",
      "reserved": "",
      "salt": "0x263c51411c0cc91129bf8ad14bf08a81a5772da9bef25fed1b2ff3978c9cbd71",
      "assetIds": [
        "41506478881403507969696680653240014914910929820314476107906210059990541021186"
      ]
    },
    {
      "x": 251,
      "y": 8,
      "size": 1,
      "price": "4683000000000000000000",
      "reserved": "",
      "salt": "0x148b22f26322fd8a514ee1a95f74fca63a1a4cd631b08216a0ff7c18d9127d4c",
      "assetIds": [
        "41506478881403507969696680653240014914910929820314476107906210059990541021186"
      ]
    },
    {
      "x": 251,
      "y": 9,
      "size": 1,
      "price": "4683000000000000000000",
      "reserved": "",
      "salt": "0x1903404626d16d7e66adaaa97cef8b5429623d8e124228c5f108e77f3480188e",
      "assetIds": [
        "41506478881403507969696680653240014914910929820314476107906210059990541021186"
      ]
    },
    {
      "x": 251,
      "y": 10,
      "size": 1,
      "price": "4683000000000000000000",
      "reserved": "",
      "salt": "0x8726f3b934c03f99c24d3786f7330eeffa22f4ea4fb1fc5c117babf8265c9f9c",
      "assetIds": [
        "41506478881403507969696680653240014914910929820314476107906210059990541021186"
      ]
    },
    {
      "x": 251,
      "y": 11,
      "size": 1,
      "price": "4683000000000000000000",
      "reserved": "",
      "salt": "0x5b2f1d10f9389767bd039aabc9129f8fe7897e5e2a8445b7c9b5e3b76a98d427",
      "assetIds": [
        "41506478881403507969696680653240014914910929820314476107906210059990541021186"
      ]
    },
    {
      "x": 252,
      "y": 0,
      "size": 1,
      "price": "1011000000000000000000",
      "reserved": "",
      "salt": "0x694a5a9a0d58a2b2340072887e68888b473bdcae2e9616e7f88c617afe7c8ba0",
      "assetIds": []
    },
    {
      "x": 252,
      "y": 1,
      "size": 1,
      "price": "1011000000000000000000",
      "reserved": "",
      "salt": "0x40b30f73d2f4950172e85fa3e2b3a713d8c418d2e486cb5701c8686930ea2680",
      "assetIds": []
    },
    {
      "x": 252,
      "y": 2,
      "size": 1,
      "price": "1011000000000000000000",
      "reserved": "",
      "salt": "0xa5f06b22a05fedfaa931b93b1fd69393081569f10397b7c05fc2a3e747ac8ba7",
      "assetIds": []
    },
    {
      "x": 252,
      "y": 3,
      "size": 1,
      "price": "4683000000000000000000",
      "reserved": "",
      "salt": "0x0b1ce056949f797bf2f9e7dd27591372404e7b93ea141c6ce094433ea89f9855",
      "assetIds": [
        "41506478881403507969696680653240014914910929820314476107906210059990541021186"
      ]
    },
    {
      "x": 252,
      "y": 4,
      "size": 1,
      "price": "4683000000000000000000",
      "reserved": "",
      "salt": "0x3788de66d4f97d2d218d78e7ef208b011c04c4790383478dd202b595c72219bb",
      "assetIds": [
        "41506478881403507969696680653240014914910929820314476107906210059990541021186"
      ]
    },
    {
      "x": 252,
      "y": 5,
      "size": 1,
      "price": "4683000000000000000000",
      "reserved": "",
      "salt": "0x37a48cfccc191426761018ae4615b2ad283950451bac4cdb208ba1037764253a",
      "assetIds": [
        "41506478881403507969696680653240014914910929820314476107906210059990541021186"
      ]
    },
    {
      "x": 253,
      "y": 0,
      "size": 1,
      "price": "1011000000000000000000",
      "reserved": "",
      "salt": "0x22d986020795c9c9a59a0a29a0d46d86922b0f107c63d2da4d47cda4758a2b81",
      "assetIds": []
    },
    {
      "x": 253,
      "y": 1,
      "size": 1,
      "price": "1011000000000000000000",
      "reserved": "0x7a9fe22691c811ea339d9b73150e6911a5343dca",
      "salt": "0x26512cf7f4a781a5eeb76eccd7c0fcb9272823972d87cf3d5c9549d2d51e6140",
      "assetIds": []
    },
    {
      "x": 253,
      "y": 2,
      "size": 1,
      "price": "1011000000000000000000",
      "reserved": "",
      "salt": "0x4f3b1efd36fb261ed420189859f23a52004cb8c23addd679e3f7052a1216c196",
      "assetIds": []
    },
    {
      "x": 253,
      "y": 3,
      "size": 1,
      "price": "4683000000000000000000",
      "reserved": "",
      "salt": "0xd5c0699c75fdd53f63d782d2f4ef1500b9057b35f56e5ad5717e4444ac7ea572",
      "assetIds": [
        "41506478881403507969696680653240014914910929820314476107906210059990541021186"
      ]
    },
    {
      "x": 253,
      "y": 4,
      "size": 1,
      "price": "4683000000000000000000",
      "reserved": "",
      "salt": "0x9de3b6b64ace3a1be676f9f830d928520502898abf9446a764c2819d891dc809",
      "assetIds": [
        "41506478881403507969696680653240014914910929820314476107906210059990541021186"
      ]
    },
    {
      "x": 253,
      "y": 5,
      "size": 1,
      "price": "4683000000000000000000",
      "reserved": "",
      "salt": "0x0e2653b26e6e726011be6755bde500984a96b3319ed58417160f4bc163b28862",
      "assetIds": [
        "41506478881403507969696680653240014914910929820314476107906210059990541021186"
      ]
    },
    {
      "x": 254,
      "y": 0,
      "size": 1,
      "price": "1011000000000000000000",
      "reserved": "",
      "salt": "0xe5f08d5a5268a0e4b4b1da911c4bebc6007c1a2eaf852420b628c6742c6fbdde",
      "assetIds": []
    },
    {
      "x": 254,
      "y": 1,
      "size": 1,
      "price": "1011000000000000000000",
      "reserved": "",
      "salt": "0x6806b166553dbebec9b709faa8d714717ef625ef726f6f28d57ca5f8a61fec23",
      "assetIds": []
    },
    {
      "x": 254,
      "y": 2,
      "size": 1,
      "price": "1011000000000000000000",
      "reserved": "",
      "salt": "0x00759f144a03a3a08d33be5888187bd40cde5d71d48cbb4c2368799845cda999",
      "assetIds": []
    },
    {
      "x": 254,
      "y": 3,
      "size": 1,
      "price": "4683000000000000000000",
      "reserved": "",
      "salt": "0x7c66f4fc050f1f8c40e92588d59a69e60367169c9ab9d406d0fd707938cd2ac5",
      "assetIds": [
        "41506478881403507969696680653240014914910929820314476107906210059990541021186"
      ]
    },
    {
      "x": 254,
      "y": 4,
      "size": 1,
      "price": "4683000000000000000000",
      "reserved": "",
      "salt": "0x481c8116d27a01b5938b02b542ce718f24ccdedfa5b693aece154479e22ac6e5",
      "assetIds": [
        "41506478881403507969696680653240014914910929820314476107906210059990541021186"
      ]
    },
    {
      "x": 254,
      "y": 5,
      "size": 1,
      "price": "4683000000000000000000",
      "reserved": "",
      "salt": "0xc9be020ce6e2a2bafd1d234b988509574f6984815f9d06fd2efbd7e6798c18de",
      "assetIds": [
        "41506478881403507969696680653240014914910929820314476107906210059990541021186"
      ]
    },
    {
      "x": 255,
      "y": 0,
      "size": 1,
      "price": "1011000000000000000000",
      "reserved": "0x7a9fe22691c811ea339d9b73150e6911a5343dca",
      "salt": "0xc5727ea451fb32604bb997a14b26de6bf3fbb4d42b70ab5579fe82c2367ae129",
      "assetIds": []
    },
    {
      "x": 255,
      "y": 1,
      "size": 1,
      "price": "1011000000000000000000",
      "reserved": "",
      "salt": "0x874bb37fa30a218caa91355e06c4f4ab919f7508fe9b26a0c748fecf093508a8",
      "assetIds": []
    },
    {
      "x": 255,
      "y": 2,
      "size": 1,
      "price": "1011000000000000000000",
      "reserved": "0x7a9fe22691c811ea339d9b73150e6911a5343dca",
      "salt": "0xbc911b7e424b5d1da866386b8f83c0b82982d48947bf91ef0adb2d7cf0113688",
      "assetIds": []
    },
    {
      "x": 255,
      "y": 3,
      "size": 1,
      "price": "4683000000000000000000",
      "reserved": "",
      "salt": "0x4a64512dfb90429a3de2232629e69581ed97fca4767b44bba33a31c126904f47",
      "assetIds": [
        "41506478881403507969696680653240014914910929820314476107906210059990541021186"
      ]
    },
    {
      "x": 255,
      "y": 4,
      "size": 1,
      "price": "4683000000000000000000",
      "reserved": "",
      "salt": "0xdc808da486b2bdc05f000b953960817562e711affe43c200bb49f270865a9447",
      "assetIds": [
        "41506478881403507969696680653240014914910929820314476107906210059990541021186"
      ]
    },
    {
      "x": 255,
      "y": 5,
      "size": 1,
      "price": "4683000000000000000000",
      "reserved": "",
      "salt": "0x8f3095c0f5bde910c80da29140d562004fe894e81061ce29aea3321a2a3dcf81",
      "assetIds": [
        "41506478881403507969696680653240014914910929820314476107906210059990541021186"
      ]
    },
    {
      "x": 255,
      "y": 9,
      "size": 1,
      "price": "4683000000000000000000",
      "reserved": "",
      "salt": "0x1b4283f4a2847f9168e7b282ccc2474447b2f72d8e556185d5d29c05ed9c4cea",
      "assetIds": [
        "41506478881403507969696680653240014914910929820314476107906210059990541021186"
      ]
    },
    {
      "x": 255,
      "y": 10,
      "size": 1,
      "price": "4683000000000000000000",
      "reserved": "",
      "salt": "0xb54c0d0f413865040657e17ace2a3cc14fc2a5de26e6c32536eb58fa1d6ebebf",
      "assetIds": [
        "41506478881403507969696680653240014914910929820314476107906210059990541021186"
      ]
    },
    {
      "x": 255,
      "y": 11,
      "size": 1,
      "price": "4683000000000000000000",
      "reserved": "",
      "salt": "0xc63c4135c05a18a78c0c3007d3353a3df8a7ac756fa75fe892d3c4cfa7240965",
      "assetIds": [
        "41506478881403507969696680653240014914910929820314476107906210059990541021186"
      ]
    },
    {
      "x": 256,
      "y": 0,
      "size": 1,
      "price": "1011000000000000000000",
      "reserved": "",
      "salt": "0xf321f4f26f8ed9300101fc48695b0c759836810f76727e026eb0ad99d314ad47",
      "assetIds": []
    },
    {
      "x": 256,
      "y": 1,
      "size": 1,
      "price": "4683000000000000000000",
      "reserved": "",
      "salt": "0x4400e3fba308a0ecfed1a5344b2c39a15015fcd793f8b642e31b6c673a2e2932",
      "assetIds": [
        "41506478881403507969696680653240014914910929820314476107906210059990541021186"
      ]
    },
    {
      "x": 256,
      "y": 2,
      "size": 1,
      "price": "4683000000000000000000",
      "reserved": "",
      "salt": "0x47cad03ff2a9e7528d22f4f059cd03b1f948f27af374aa2447c7c652eece1608",
      "assetIds": [
        "41506478881403507969696680653240014914910929820314476107906210059990541021186"
      ]
    },
    {
      "x": 256,
      "y": 3,
      "size": 1,
      "price": "4683000000000000000000",
      "reserved": "",
      "salt": "0x6eef3341bd8dbe0cb798d5d7526d2417d5bae8ac6fcc116aed470952b8713d7b",
      "assetIds": [
        "41506478881403507969696680653240014914910929820314476107906210059990541021186"
      ]
    },
    {
      "x": 256,
      "y": 4,
      "size": 1,
      "price": "4683000000000000000000",
      "reserved": "",
      "salt": "0xca3941a0cb18cbf61c7868e13b5090c0a1974c071ab904d84c3d74c2a145e6c8",
      "assetIds": [
        "41506478881403507969696680653240014914910929820314476107906210059990541021186"
      ]
    },
    {
      "x": 256,
      "y": 5,
      "size": 1,
      "price": "4683000000000000000000",
      "reserved": "",
      "salt": "0xb6e0b0271db35f7dfdeb360f59c618b6a72d01b25261c1f694550f4c1346f201",
      "assetIds": [
        "41506478881403507969696680653240014914910929820314476107906210059990541021186"
      ]
    },
    {
      "x": 256,
      "y": 9,
      "size": 1,
      "price": "4683000000000000000000",
      "reserved": "",
      "salt": "0xa65a47ef5425ed1858a39776d143e0bb343ddba3ba4e4cfd0c01cad893f7fae4",
      "assetIds": [
        "41506478881403507969696680653240014914910929820314476107906210059990541021186"
      ]
    },
    {
      "x": 256,
      "y": 10,
      "size": 1,
      "price": "4683000000000000000000",
      "reserved": "",
      "salt": "0xfdd4ef9c119fbec75348312a0993406933d5245f8f5f877ab7e790c2d6d668d3",
      "assetIds": [
        "41506478881403507969696680653240014914910929820314476107906210059990541021186"
      ]
    },
    {
      "x": 256,
      "y": 11,
      "size": 1,
      "price": "4683000000000000000000",
      "reserved": "",
      "salt": "0xa2be9c1fb4e2b39dd990aab86ba35c7d60bb0debcaedcf6f55238bf388182373",
      "assetIds": [
        "41506478881403507969696680653240014914910929820314476107906210059990541021186"
      ]
    },
    {
      "x": 257,
      "y": 0,
      "size": 1,
      "price": "4683000000000000000000",
      "reserved": "",
      "salt": "0x79716845b9d0fbcf420373c3eb53b263e040df8c4d3e5aa74399a9237653daf4",
      "assetIds": [
        "41506478881403507969696680653240014914910929820314476107906210059990541021186"
      ]
    },
    {
      "x": 257,
      "y": 1,
      "size": 1,
      "price": "4683000000000000000000",
      "reserved": "",
      "salt": "0x32e5e9f1d695e7dced4f75ab9ee1f5855172e75eeb024b063c53a0f3f39aecd0",
      "assetIds": [
        "41506478881403507969696680653240014914910929820314476107906210059990541021186"
      ]
    },
    {
      "x": 257,
      "y": 2,
      "size": 1,
      "price": "4683000000000000000000",
      "reserved": "",
      "salt": "0x8125a296e08db05664b0e2026f4f3717eccc20b0196f1e90ab9084a1af915d9a",
      "assetIds": [
        "41506478881403507969696680653240014914910929820314476107906210059990541021186"
      ]
    },
    {
      "x": 257,
      "y": 3,
      "size": 1,
      "price": "4683000000000000000000",
      "reserved": "",
      "salt": "0xef91b220c06c9ad0ef416ed7318c12149895ac37a2ed63f48a094e45acaab156",
      "assetIds": [
        "41506478881403507969696680653240014914910929820314476107906210059990541021186"
      ]
    },
    {
      "x": 257,
      "y": 4,
      "size": 1,
      "price": "4683000000000000000000",
      "reserved": "",
      "salt": "0xf018a4ef170f7ba092f2671c4a1d327c77c517261ed4e14dd61d2068af3655f5",
      "assetIds": [
        "41506478881403507969696680653240014914910929820314476107906210059990541021186"
      ]
    },
    {
      "x": 257,
      "y": 5,
      "size": 1,
      "price": "4683000000000000000000",
      "reserved": "",
      "salt": "0x479392097d6f3465d8fbe6dfa19bf39743850e15a5da6917821ea3a6a17fda58",
      "assetIds": [
        "41506478881403507969696680653240014914910929820314476107906210059990541021186"
      ]
    },
    {
      "x": 257,
      "y": 9,
      "size": 1,
      "price": "4683000000000000000000",
      "reserved": "",
      "salt": "0x60d0f7784cf90dc1829f8b8ee1bfe12c6f4e6269b852c8859b2855a39595afa1",
      "assetIds": [
        "41506478881403507969696680653240014914910929820314476107906210059990541021186"
      ]
    },
    {
      "x": 257,
      "y": 10,
      "size": 1,
      "price": "4683000000000000000000",
      "reserved": "",
      "salt": "0x1f0731de8ea52825035af02c2b33c23e9aad140fce6ad91a238848b61dcf12e8",
      "assetIds": [
        "41506478881403507969696680653240014914910929820314476107906210059990541021186"
      ]
    },
    {
      "x": 257,
      "y": 11,
      "size": 1,
      "price": "1011000000000000000000",
      "reserved": "",
      "salt": "0x5a89ba054bbfae4f757cc2e7c73e96ea6e809a3466443b3123c63f40695cdb61",
      "assetIds": []
    },
    {
      "x": 258,
      "y": 6,
      "size": 1,
      "price": "4683000000000000000000",
      "reserved": "",
      "salt": "0x95ef86680485dd9ea47e9b71a2a0f13263e5e02a947f9405f4f8fa9e1de7699b",
      "assetIds": [
        "41506478881403507969696680653240014914910929820314476107906210059990541021186"
      ]
    },
    {
      "x": 258,
      "y": 7,
      "size": 1,
      "price": "1011000000000000000000",
      "reserved": "",
      "salt": "0xeb3147c4ac803c8a7a022a639baa5f1b0d5ecb465dc5f047d3afc7c580d4c430",
      "assetIds": []
    },
    {
      "x": 258,
      "y": 8,
      "size": 1,
      "price": "1011000000000000000000",
      "reserved": "0x7a9fe22691c811ea339d9b73150e6911a5343dca",
      "salt": "0xc2f9975512534a21ec01c44e01b86b54e934dfbc8e3ef044003b5ccbd054421b",
      "assetIds": []
    },
    {
      "x": 259,
      "y": 6,
      "size": 1,
      "price": "4683000000000000000000",
      "reserved": "",
      "salt": "0x9aa0e82c696ae295d961eed73e40b133b36a8fcc7cec7118e8c1e36438573323",
      "assetIds": [
        "41506478881403507969696680653240014914910929820314476107906210059990541021186"
      ]
    },
    {
      "x": 259,
      "y": 7,
      "size": 1,
      "price": "1011000000000000000000",
      "reserved": "",
      "salt": "0xf63a151991f25ecb5dd346d00b681babb8aeb21169c4af1a42d33cacf73e55cf",
      "assetIds": []
    },
    {
      "x": 259,
      "y": 8,
      "size": 1,
      "price": "1011000000000000000000",
      "reserved": "",
      "salt": "0x9e2721670c68f4817373fd444ea605a6f25cd4bb1f7ae54c7abf53514f8829e6",
      "assetIds": []
    },
    {
      "x": 260,
      "y": 6,
      "size": 1,
      "price": "4683000000000000000000",
      "reserved": "",
      "salt": "0x764230d8ae015255c5580686127a6d5dd62e2069367fde07d8e0a3809f816f4d",
      "assetIds": [
        "41506478881403507969696680653240014914910929820314476107906210059990541021186"
      ]
    },
    {
      "x": 260,
      "y": 7,
      "size": 1,
      "price": "1011000000000000000000",
      "reserved": "",
      "salt": "0x12541fe93a766f33fd82aaeeeaccb61d4f1cba6779dc7fbf7dc3720146edc7db",
      "assetIds": []
    },
    {
      "x": 260,
      "y": 8,
      "size": 1,
      "price": "1011000000000000000000",
      "reserved": "",
      "salt": "0xab28333b602ebe8b4939920dfffdcba45de9951621aec11b56cf03c60d7fc119",
      "assetIds": []
    },
    {
      "x": 261,
      "y": 6,
      "size": 1,
      "price": "4683000000000000000000",
      "reserved": "",
      "salt": "0x6ffacfc1382d1ea374cd06d26a88ac7be7af450fd9c4455f402f2bb3229dedc4",
      "assetIds": [
        "41506478881403507969696680653240014914910929820314476107906210059990541021186"
      ]
    },
    {
      "x": 261,
      "y": 7,
      "size": 1,
      "price": "1011000000000000000000",
      "reserved": "",
      "salt": "0x532d108aee5be093989d0e1d409c1a20cdb32bf8460f90c691bfcd6c2f3a50ce",
      "assetIds": []
    },
    {
      "x": 261,
      "y": 8,
      "size": 1,
      "price": "1011000000000000000000",
      "reserved": "",
      "salt": "0xd6bfc2bd4b88fde5e0f6d357a86a345b25ec43b9f57b2f82f5d23cee846181a0",
      "assetIds": []
    },
    {
      "x": 262,
      "y": 6,
      "size": 1,
      "price": "4683000000000000000000",
      "reserved": "",
      "salt": "0x03287681faed5bbe7b19e27183af75a6db52e212c656d7b49b7aeeac7c737ece",
      "assetIds": [
        "41506478881403507969696680653240014914910929820314476107906210059990541021186"
      ]
    },
    {
      "x": 262,
      "y": 7,
      "size": 1,
      "price": "1011000000000000000000",
      "reserved": "0x7a9fe22691c811ea339d9b73150e6911a5343dca",
      "salt": "0xd843c1db8c2e957fb2bf8929fd180ee498a8d4efc99ebd54ea0cef0ef244bf10",
      "assetIds": []
    },
    {
      "x": 262,
      "y": 8,
      "size": 1,
      "price": "1011000000000000000000",
      "reserved": "",
      "salt": "0xd787c28a186d6a6f8e1a029ac19d249e77d1eca8ef99fb24c29dd9f04a88ab1c",
      "assetIds": []
    },
    {
      "x": 263,
      "y": 6,
      "size": 1,
      "price": "4683000000000000000000",
      "reserved": "",
      "salt": "0x1b7f29fdd2f1b0a7c48aefd15064b9f527fc14d044dc7c8e5fe0392a0f451346",
      "assetIds": [
        "41506478881403507969696680653240014914910929820314476107906210059990541021186"
      ]
    },
    {
      "x": 263,
      "y": 7,
      "size": 1,
      "price": "1011000000000000000000",
      "reserved": "",
      "salt": "0x38fed1559116c06fcf64f2088b04b90fee551ece077834f40c5d713bdc0b0600",
      "assetIds": []
    },
    {
      "x": 263,
      "y": 8,
      "size": 1,
      "price": "1011000000000000000000",
      "reserved": "",
      "salt": "0x357f252a47df2ee6bd04011a1c75916cd6c856420b5a453e337f4f5620613694",
      "assetIds": []
    },
    {
      "x": 264,
      "y": 0,
      "size": 1,
      "price": "4683000000000000000000",
      "reserved": "",
      "salt": "0x683fb88a4cbee96cdde994099d6ba8cb329646a6bc09213ed82919c2860712cb",
      "assetIds": [
        "41506478881403507969696680653240014914910929820314476107906210059990541021186"
      ]
    },
    {
      "x": 264,
      "y": 1,
      "size": 1,
      "price": "1011000000000000000000",
      "reserved": "0x7a9fe22691c811ea339d9b73150e6911a5343dca",
      "salt": "0xff71e95c7ee9f88f2b4fb035b501d1987d3e57661f88d40fa4e5fcc1f8f7c433",
      "assetIds": []
    },
    {
      "x": 264,
      "y": 2,
      "size": 1,
      "price": "4683000000000000000000",
      "reserved": "",
      "salt": "0x1bbed9bdb9f83f95f6bc2f9ee11a1942aa4110bfb9f42d7b400555cb9cd9c37f",
      "assetIds": [
        "41506478881403507969696680653240014914910929820314476107906210059990541021186"
      ]
    },
    {
      "x": 264,
      "y": 3,
      "size": 1,
      "price": "4683000000000000000000",
      "reserved": "",
      "salt": "0xce9063210a863e0aa7a97a1a44f5e111030bc2eb25a326286774e6701af1c928",
      "assetIds": [
        "41506478881403507969696680653240014914910929820314476107906210059990541021186"
      ]
    },
    {
      "x": 264,
      "y": 4,
      "size": 1,
      "price": "4683000000000000000000",
      "reserved": "",
      "salt": "0x445aa9fdc04710c12c8d5602fe6651ed6242cfb557ee8d7be2002c40d457e5b0",
      "assetIds": [
        "41506478881403507969696680653240014914910929820314476107906210059990541021186"
      ]
    },
    {
      "x": 264,
      "y": 5,
      "size": 1,
      "price": "4683000000000000000000",
      "reserved": "",
      "salt": "0xe7c299f15b84123534c232c64024e233989fad747036934c9d6976ebb7e64e42",
      "assetIds": [
        "41506478881403507969696680653240014914910929820314476107906210059990541021186"
      ]
    },
    {
      "x": 264,
      "y": 6,
      "size": 1,
      "price": "1011000000000000000000",
      "reserved": "0x7a9fe22691c811ea339d9b73150e6911a5343dca",
      "salt": "0x79e72e4ccbabf2a1098325a79cdc51c0424932474e5b769ab6642c6f9fb7c0ae",
      "assetIds": []
    },
    {
      "x": 264,
      "y": 7,
      "size": 1,
      "price": "1011000000000000000000",
      "reserved": "",
      "salt": "0xfb43f9eadc9d34f0b1c23e23c947e98e4694be59e2f66586d59c1eec5065fd88",
      "assetIds": []
    },
    {
      "x": 264,
      "y": 8,
      "size": 1,
      "price": "1011000000000000000000",
      "reserved": "",
      "salt": "0xbad1b4a4648b952c30be9810a8dba95a86e200b5d91f6a45c49594d854dde8ed",
      "assetIds": []
    },
    {
      "x": 264,
      "y": 9,
      "size": 1,
      "price": "1011000000000000000000",
      "reserved": "",
      "salt": "0xc542845927ba48f02d154ef6b32f6ef5dd643a485d03e32769e14460596157df",
      "assetIds": []
    },
    {
      "x": 264,
      "y": 10,
      "size": 1,
      "price": "1011000000000000000000",
      "reserved": "",
      "salt": "0x2eed50c352514ec46b8cc6f1807867d284c401d1f4c89aeeeb6b4448b669a39c",
      "assetIds": []
    },
    {
      "x": 264,
      "y": 11,
      "size": 1,
      "price": "1011000000000000000000",
      "reserved": "0x7a9fe22691c811ea339d9b73150e6911a5343dca",
      "salt": "0x9d94de1521c9199d6b28a3794d4b4a7fc1136a7f6dc01b66e6f676baf98edab9",
      "assetIds": []
    },
    {
      "x": 265,
      "y": 0,
      "size": 1,
      "price": "1011000000000000000000",
      "reserved": "",
      "salt": "0x9e6d46700fdc6fb3a1f7950e389265f308f7ed0f41d0e8e91af3197ad7bdcd49",
      "assetIds": []
    },
    {
      "x": 265,
      "y": 1,
      "size": 1,
      "price": "1011000000000000000000",
      "reserved": "",
      "salt": "0xeb11b56e8d24c7109fd78cb5acb5c0cb68e35d19f134a79fb9bd810d9daee262",
      "assetIds": []
    },
    {
      "x": 265,
      "y": 2,
      "size": 1,
      "price": "1011000000000000000000",
      "reserved": "",
      "salt": "0x6293c1fca1820a96b71c293a5b97dbae7395a3f41aff3f7475eb296070ddc186",
      "assetIds": []
    },
    {
      "x": 265,
      "y": 3,
      "size": 1,
      "price": "1011000000000000000000",
      "reserved": "",
      "salt": "0x8daf0d8d7ae375db9803541d932509031444aa470f1eb533e2b1ea64ccc53170",
      "assetIds": []
    },
    {
      "x": 265,
      "y": 4,
      "size": 1,
      "price": "1011000000000000000000",
      "reserved": "",
      "salt": "0xf1628052fc18ba784b5c7a4bc7411a215e2fcb20b45a7e3deecf15f91dee3fe2",
      "assetIds": []
    },
    {
      "x": 265,
      "y": 5,
      "size": 1,
      "price": "1011000000000000000000",
      "reserved": "",
      "salt": "0x68465195f44ebe675a0969bf66c3b1df99dd5c71326bf79ebd4b14867e10fd4c",
      "assetIds": []
    },
    {
      "x": 265,
      "y": 6,
      "size": 1,
      "price": "1011000000000000000000",
      "reserved": "",
      "salt": "0x16458347dca3db2cb4eb8922e60d8551b2c0fadb06e7c07bc6b10d93000a0bbc",
      "assetIds": []
    },
    {
      "x": 265,
      "y": 7,
      "size": 1,
      "price": "1011000000000000000000",
      "reserved": "",
      "salt": "0xf956f1e1b43cbabd3780d7593ba41683c1f28fa5b93e4b1d2a688522edbe2d03",
      "assetIds": []
    },
    {
      "x": 265,
      "y": 8,
      "size": 1,
      "price": "1011000000000000000000",
      "reserved": "0x7a9fe22691c811ea339d9b73150e6911a5343dca",
      "salt": "0xc8b080e6944035158dcacd19956fcdcb7589e753f97a4fbea90c071c7da473e2",
      "assetIds": []
    },
    {
      "x": 265,
      "y": 9,
      "size": 1,
      "price": "1011000000000000000000",
      "reserved": "",
      "salt": "0x7efb52343a22838c7e4cd7a74f12d38bc8aca74aa4be18c50220a2ce165437c6",
      "assetIds": []
    },
    {
      "x": 265,
      "y": 10,
      "size": 1,
      "price": "1011000000000000000000",
      "reserved": "",
      "salt": "0xdd7f0d78736c9084ca0160e92092f8c4226d17c118527ab24d9fafa3875d7a61",
      "assetIds": []
    },
    {
      "x": 265,
      "y": 11,
      "size": 1,
      "price": "1011000000000000000000",
      "reserved": "",
      "salt": "0x5955a5d7a4f583a8f825168eaac54a68bc91748fd32d870b7155f0d0b9b6f7f0",
      "assetIds": []
    },
    {
      "x": 266,
      "y": 0,
      "size": 1,
      "price": "1011000000000000000000",
      "reserved": "",
      "salt": "0xc73085ef0505694ef5392dedd5cf012bcee238cc4d2dccefaa5e5b735b42bc2d",
      "assetIds": []
    },
    {
      "x": 266,
      "y": 1,
      "size": 1,
      "price": "1011000000000000000000",
      "reserved": "",
      "salt": "0x084a3eb6808bb8ebe990666be1ef9c9c166a2667b7190aab97fb081728dabcdd",
      "assetIds": []
    },
    {
      "x": 266,
      "y": 2,
      "size": 1,
      "price": "1011000000000000000000",
      "reserved": "",
      "salt": "0xf84562cdc4c88e1c3a546b0a29ab6fc247284eeba2ea208692e932663195cf20",
      "assetIds": []
    },
    {
      "x": 266,
      "y": 3,
      "size": 1,
      "price": "1011000000000000000000",
      "reserved": "",
      "salt": "0x216d3c02b12fe06a01733c62b10216a8d99b2e18330a0de56dfe1e1e1c0a037f",
      "assetIds": []
    },
    {
      "x": 266,
      "y": 4,
      "size": 1,
      "price": "1011000000000000000000",
      "reserved": "0x7a9fe22691c811ea339d9b73150e6911a5343dca",
      "salt": "0x886765e2aa315191a5ee50223e07daf657890187015f9661806fb62ae2bc56df",
      "assetIds": []
    },
    {
      "x": 266,
      "y": 5,
      "size": 1,
      "price": "1011000000000000000000",
      "reserved": "",
      "salt": "0xdaa27a8bdecd320579fe88d6637eaac47ebd30e99a09e3ac1ffff6f6256985bd",
      "assetIds": []
    },
    {
      "x": 266,
      "y": 6,
      "size": 1,
      "price": "1011000000000000000000",
      "reserved": "",
      "salt": "0x330e7d0a539a9ea73f2e2dcef97147a0be3235c1b8f22284774bebb4e63d2a82",
      "assetIds": []
    },
    {
      "x": 266,
      "y": 7,
      "size": 1,
      "price": "1011000000000000000000",
      "reserved": "",
      "salt": "0x1bf75fabafade49c9e7eaf7bc456ead0d13e80f2d3501d2c4783b186f456cc56",
      "assetIds": []
    },
    {
      "x": 266,
      "y": 8,
      "size": 1,
      "price": "1011000000000000000000",
      "reserved": "",
      "salt": "0xfa1d99e65027aa15fec6900ba2f9fbbde2cae3f95b07fe8b24c57fd194af60d9",
      "assetIds": []
    },
    {
      "x": 266,
      "y": 9,
      "size": 1,
      "price": "1011000000000000000000",
      "reserved": "",
      "salt": "0x634fd4f0644f660834a8745d39a5b43293269fdf8db57d61f7da9fce6a560ffa",
      "assetIds": []
    },
    {
      "x": 266,
      "y": 10,
      "size": 1,
      "price": "1011000000000000000000",
      "reserved": "",
      "salt": "0x6567a7c17c7320a82edb6aa62c261cc0d22e71c68b294341f982ae8d7c1917c5",
      "assetIds": []
    },
    {
      "x": 266,
      "y": 11,
      "size": 1,
      "price": "1011000000000000000000",
      "reserved": "",
      "salt": "0x36fc2de14595a4054ca9cde32948492136a2e027c863eeab549ff967467dc0d3",
      "assetIds": []
    },
    {
      "x": 267,
      "y": 3,
      "size": 1,
      "price": "1011000000000000000000",
      "reserved": "",
      "salt": "0x1118294dd4fbfe4a32d8a93ee0cc04b1748895136a1fb8ef8f08ed5ae53534a2",
      "assetIds": []
    },
    {
      "x": 267,
      "y": 4,
      "size": 1,
      "price": "1011000000000000000000",
      "reserved": "",
      "salt": "0xe249a880cf53a6b1ff385af146ec635e9060da9e65ada893a9d20d3d94a2fc06",
      "assetIds": []
    },
    {
      "x": 267,
      "y": 5,
      "size": 1,
      "price": "1011000000000000000000",
      "reserved": "",
      "salt": "0xf840ca4eb83ad60d9e13c8898bc3599ec188f2f8a13401db59c222e760b9c8d5",
      "assetIds": []
    },
    {
      "x": 267,
      "y": 6,
      "size": 1,
      "price": "1011000000000000000000",
      "reserved": "",
      "salt": "0xe529d4f26761f4a7bda6b961b07ae260a6867a837eab31cabbaa3ec504e92a40",
      "assetIds": []
    },
    {
      "x": 267,
      "y": 7,
      "size": 1,
      "price": "1011000000000000000000",
      "reserved": "",
      "salt": "0x6492145cc537fa39e58192beb77b72b1d4a0260627ad3bda72bddfd73076aa92",
      "assetIds": []
    },
    {
      "x": 267,
      "y": 8,
      "size": 1,
      "price": "1011000000000000000000",
      "reserved": "",
      "salt": "0x6fb14940763f581bc591a266be86b9aed7178d217538b5bee50b0e34fd330614",
      "assetIds": []
    },
    {
      "x": 267,
      "y": 9,
      "size": 1,
      "price": "1011000000000000000000",
      "reserved": "0x7a9fe22691c811ea339d9b73150e6911a5343dca",
      "salt": "0x37e95ce4ec2c40d7948171f20c0fe132e3909470fdbf6959282b2f213aac3704",
      "assetIds": []
    },
    {
      "x": 267,
      "y": 10,
      "size": 1,
      "price": "1011000000000000000000",
      "reserved": "",
      "salt": "0xcc3c2adcb0ffdfbada9fbab996b487238ce5325ce7e334f138552cb31e582a86",
      "assetIds": []
    },
    {
      "x": 267,
      "y": 11,
      "size": 1,
      "price": "1011000000000000000000",
      "reserved": "",
      "salt": "0x7389d8e72d47ae12330a03566a776914d152feea42c51ec1112a16307b241f6e",
      "assetIds": []
    },
    {
      "x": 268,
      "y": 3,
      "size": 1,
      "price": "1011000000000000000000",
      "reserved": "",
      "salt": "0x383f5148fbfbfce1016219e6a92f82ea090f1d8e0bca2be06ff0d7a265de99d5",
      "assetIds": []
    },
    {
      "x": 268,
      "y": 4,
      "size": 1,
      "price": "1011000000000000000000",
      "reserved": "",
      "salt": "0xd37e251ab879c7e25fc402739331cdb3b57dd03036b715d3fe64c032adc2d42f",
      "assetIds": []
    },
    {
      "x": 268,
      "y": 5,
      "size": 1,
      "price": "1011000000000000000000",
      "reserved": "0x7a9fe22691c811ea339d9b73150e6911a5343dca",
      "salt": "0xd1452219dcb7d361d08afe0b6bdd0aa3789029212febcd8af10577417fbead1d",
      "assetIds": []
    },
    {
      "x": 268,
      "y": 6,
      "size": 1,
      "price": "1011000000000000000000",
      "reserved": "",
      "salt": "0x212f3d0ccfaf7a022f381938efade605b35988bede2654ca494c1324c3777d5d",
      "assetIds": []
    },
    {
      "x": 268,
      "y": 7,
      "size": 1,
      "price": "1011000000000000000000",
      "reserved": "0x7a9fe22691c811ea339d9b73150e6911a5343dca",
      "salt": "0x804b3bca37f81e472e1041d39536d725cae8301928de148de48963fc55a8dd5f",
      "assetIds": []
    },
    {
      "x": 268,
      "y": 8,
      "size": 1,
      "price": "1011000000000000000000",
      "reserved": "",
      "salt": "0xa53eea57e86630f9490c8a026e1d4b8000777ef8d6eb16f4a844668115a66ad9",
      "assetIds": []
    },
    {
      "x": 268,
      "y": 9,
      "size": 1,
      "price": "1011000000000000000000",
      "reserved": "",
      "salt": "0xe72021abac2cc642929c6a3ab4eed855af7e19cc6dedbe082448bb759e7a097d",
      "assetIds": []
    },
    {
      "x": 268,
      "y": 10,
      "size": 1,
      "price": "1011000000000000000000",
      "reserved": "",
      "salt": "0x06cf236a659413c52917d51c0b9e1f3337b5fc6a74e6251a313d712d333002d5",
      "assetIds": []
    },
    {
      "x": 268,
      "y": 11,
      "size": 1,
      "price": "1011000000000000000000",
      "reserved": "0x7a9fe22691c811ea339d9b73150e6911a5343dca",
      "salt": "0xa1f1cd509e024e83cfb57672aa807f84cec3ae4939ade5d46538956f21b7c018",
      "assetIds": []
    },
    {
      "x": 269,
      "y": 3,
      "size": 1,
      "price": "1011000000000000000000",
      "reserved": "",
      "salt": "0x1854766ecb430d02fc8eabaf8317b4346d42eb0c59688a73f00661642ab6119e",
      "assetIds": []
    },
    {
      "x": 269,
      "y": 4,
      "size": 1,
      "price": "1011000000000000000000",
      "reserved": "0x7a9fe22691c811ea339d9b73150e6911a5343dca",
      "salt": "0x4877739490650bf4c6d3df0e83f3ca17924f92dd586c4a48ae37fcb9cad152a6",
      "assetIds": []
    },
    {
      "x": 269,
      "y": 5,
      "size": 1,
      "price": "1011000000000000000000",
      "reserved": "",
      "salt": "0x24a3919057571cb4e14d5ab69282b1564161585af212fea2112242da997aec16",
      "assetIds": []
    },
    {
      "x": 269,
      "y": 6,
      "size": 1,
      "price": "1011000000000000000000",
      "reserved": "",
      "salt": "0x2fbfdb7d2cf916ff9977f13b8bc0826d8cafb6e1b22c5f772c48b9101524e6d3",
      "assetIds": []
    },
    {
      "x": 269,
      "y": 7,
      "size": 1,
      "price": "1011000000000000000000",
      "reserved": "",
      "salt": "0x6151ccea269508fbf91f3611256ec83233a83d12fe6754692a37dd4ae5dcf212",
      "assetIds": []
    },
    {
      "x": 269,
      "y": 8,
      "size": 1,
      "price": "1011000000000000000000",
      "reserved": "",
      "salt": "0xb12fa708871d5dd48edcb0ba9ccf34286ed8625946e8df8bffb08f04e9d0e507",
      "assetIds": []
    },
    {
      "x": 269,
      "y": 9,
      "size": 1,
      "price": "1011000000000000000000",
      "reserved": "",
      "salt": "0x097a9907853af914c638447ef721c5cd93587a55f2f5a20b1591c59a69ef8b36",
      "assetIds": []
    },
    {
      "x": 269,
      "y": 10,
      "size": 1,
      "price": "1011000000000000000000",
      "reserved": "",
      "salt": "0xa3238013ba48de0c83aa335ea6a95eb58669f89be578d1313f02ebedccf44f78",
      "assetIds": []
    },
    {
      "x": 269,
      "y": 11,
      "size": 1,
      "price": "1011000000000000000000",
      "reserved": "",
      "salt": "0x3fd23e059a1957e569d69483d92e87f68fa6bab487134a18a5e6beb052ada13e",
      "assetIds": []
    },
    {
      "x": 240,
      "y": 12,
      "size": 3,
      "price": "8648000000000000000000",
      "reserved": "0x7a9fe22691c811ea339d9b73150e6911a5343dca",
      "salt": "0x6a27dbf2934b4f69cb9f19ccab5baef6e768ef90d46506afee6670801acfc204",
      "assetIds": []
    },
    {
      "x": 243,
      "y": 9,
      "size": 3,
      "price": "8648000000000000000000",
      "reserved": "0x7a9fe22691c811ea339d9b73150e6911a5343dca",
      "salt": "0x1a20dbf205d6b352b32b41d37f499a75ce39effeeca0137106dd31188f03f220",
      "assetIds": []
    },
    {
      "x": 243,
      "y": 12,
      "size": 3,
      "price": "8648000000000000000000",
      "reserved": "0x7a9fe22691c811ea339d9b73150e6911a5343dca",
      "salt": "0x7272c201c9aeb3ab41b69ab1ad15ac6ed12b12cebe819f34510eba81b4ac550f",
      "assetIds": []
    },
    {
      "x": 246,
      "y": 0,
      "size": 3,
      "price": "8648000000000000000000",
      "reserved": "0x7a9fe22691c811ea339d9b73150e6911a5343dca",
      "salt": "0x6680f8cc858c9b5cfc6f8b60fd5e46c4749d5cb894fce3f19e6d1ceddea0396a",
      "assetIds": []
    },
    {
      "x": 249,
      "y": 0,
      "size": 3,
      "price": "8648000000000000000000",
      "reserved": "0x7a9fe22691c811ea339d9b73150e6911a5343dca",
      "salt": "0x82f243683e45fdf83b2bcc27247f4154bae679317aaf0e52210f2345951356e4",
      "assetIds": []
    },
    {
      "x": 249,
      "y": 3,
      "size": 3,
      "price": "8648000000000000000000",
      "reserved": "0x7a9fe22691c811ea339d9b73150e6911a5343dca",
      "salt": "0xd97d3804a77e78d62bbfe0aeb2c3db918d1c99619faa60113a7b4c34b13287b4",
      "assetIds": []
    },
    {
      "x": 252,
      "y": 6,
      "size": 3,
      "price": "8648000000000000000000",
      "reserved": "0x7a9fe22691c811ea339d9b73150e6911a5343dca",
      "salt": "0xce0f5ed8bf62347736da8ca2ad4f445ca6908ca0f851f8e3753528cfa7555be5",
      "assetIds": []
    },
    {
      "x": 252,
      "y": 9,
      "size": 3,
      "price": "8648000000000000000000",
      "reserved": "0x7a9fe22691c811ea339d9b73150e6911a5343dca",
      "salt": "0x1b1a1ee18538157740cc6f840e7e5501f096688739ffb14cef2cfcf76bcf4db8",
      "assetIds": []
    },
    {
      "x": 252,
      "y": 12,
      "size": 3,
      "price": "8648000000000000000000",
      "reserved": "0x7a9fe22691c811ea339d9b73150e6911a5343dca",
      "salt": "0x2a2b1382bdd75bdb9b2c8a574cd8558fcb42255f093a697efd6c9bcf2716c56f",
      "assetIds": []
    },
    {
      "x": 255,
      "y": 6,
      "size": 3,
      "price": "8648000000000000000000",
      "reserved": "0x7a9fe22691c811ea339d9b73150e6911a5343dca",
      "salt": "0x4bc19ff1be7ae761dfc1d2584e1db3064c01cbeb8d93e7cc77a63ce09f2d7fac",
      "assetIds": []
    },
    {
      "x": 267,
      "y": 0,
      "size": 3,
      "price": "8648000000000000000000",
      "reserved": "0x7a9fe22691c811ea339d9b73150e6911a5343dca",
      "salt": "0x5d66cd4fcc90be1ba6087e3e4f791afe8da45efc6bfa42e099b3cba6a1994013",
      "assetIds": []
    },
    {
      "x": 234,
      "y": 0,
      "size": 6,
      "price": "32772000000000000000000",
      "reserved": "0x7a9fe22691c811ea339d9b73150e6911a5343dca",
      "salt": "0x9955511e4ecb009e586a65e61a71950596bcedd5aa213c62ddbc940fdc1fb325",
      "assetIds": []
    },
    {
      "x": 240,
      "y": 0,
      "size": 6,
      "price": "32772000000000000000000",
      "reserved": "0x7a9fe22691c811ea339d9b73150e6911a5343dca",
      "salt": "0xb199343370fc0dfa9f1c73e18aa89132f1f86009ca23182cae85b62a119bb9dd",
      "assetIds": []
    },
    {
      "x": 258,
      "y": 0,
      "size": 6,
      "price": "32772000000000000000000",
      "reserved": "0x7a9fe22691c811ea339d9b73150e6911a5343dca",
      "salt": "0xcc77becf19c1e004cd5ef070742d36a7a5b74db41539862422eb27fe372cf00d",
      "assetIds": []
    },
    {
      "x": 270,
      "y": 0,
      "size": 6,
      "price": "32772000000000000000000",
      "reserved": "0x7a9fe22691c811ea339d9b73150e6911a5343dca",
      "salt": "0xb333ff25848f96e7ebf508781c5294578f0f2b76af21a7528d9931b42d2b492e",
      "assetIds": []
    },
    {
      "x": 270,
      "y": 6,
      "size": 6,
      "price": "32772000000000000000000",
      "reserved": "0x7a9fe22691c811ea339d9b73150e6911a5343dca",
      "salt": "0x794000c20d20eab749d869b53ac8ceb6b00cedcf758519e6ff8e7a82cb481c6e",
      "assetIds": []
    }
  ],
  "solcInputHash": "e17a5bb930c92aaeeb80a52119ce77b7",
  "bytecode": "0x610160604052620d2f0060055534801561001857600080fd5b506040516200284d3803806200284d83398181016040526101a081101561003e57600080fd5b50805160208201516040830151606080850151608086015160a08088015160c0808a015160e08b01516101008c01516101208d01516101408e01516101608f0151610180909f0151600280546001600160a01b0319166001600160a01b03871617905560038490558e8c1b6001600160601b03199081169099529a8d901b9097169094529a9b999a98999698959793969195909490939091906100e28b600161015d565b600680546001600160a01b039a8b166001600160a01b031991821617909155610140989098526101209690965260008054998916998816999099179098556001600160601b0319606092831b811660e05290821b811660805296901b909516610100525060078054919093169116179055506101c192505050565b6001600160a01b038216600081815260016020908152604091829020805460ff191685151590811790915582519384529083015280517fb21eb88b4e33b3f1281830a7178d74d8aa73220416215726b68ae23d539515cb9281900390910190a15050565b60805160601c60a05160601c60c05160601c60e05160601c6101005160601c61012051610140516126066200024760003980610b3d528061206c525080610b1952806112ec5250806120da525080611841528061199e5250806117f75280611b9d528061210e525080611872528061196f525080610eb25280611c8952506126066000f3fe608060405234801561001057600080fd5b506004361061011b5760003560e01c80638f283970116100b2578063c10a420811610081578063dc5074af11610066578063dc5074af1461085f578063e56f8a9e14610885578063f23a6e61146108a25761011b565b8063c10a420814610780578063caed3500146108575761011b565b80638f28397014610500578063984d625214610526578063b522ecff146105f8578063bc197c811461061e5761011b565b806365194ce7116100ee57806365194ce7146103485780636e9960c3146104a657806377f1c3ac146104ca5780638a04af6a146104d25761011b565b80631187fd3c1461012057806325cb5bc014610300578063495906571461031a57806358bc294414610322575b600080fd5b6102fe600480360361012081101561013757600080fd5b6001600160a01b038235811692602081013582169260408201359092169181019060808101606082013564010000000081111561017357600080fd5b82018360208201111561018557600080fd5b803590602001918460208302840111640100000000831117156101a757600080fd5b919390928235926040810190602001356401000000008111156101c957600080fd5b8201836020820111156101db57600080fd5b803590602001918460208302840111640100000000831117156101fd57600080fd5b91939092909160208101903564010000000081111561021b57600080fd5b82018360208201111561022d57600080fd5b8035906020019184602083028401116401000000008311171561024f57600080fd5b91939092909160208101903564010000000081111561026d57600080fd5b82018360208201111561027f57600080fd5b803590602001918460018302840111640100000000831117156102a157600080fd5b9193909290916020810190356401000000008111156102bf57600080fd5b8201836020820111156102d157600080fd5b803590602001918460018302840111640100000000831117156102f357600080fd5b509092509050610937565b005b610308610b17565b60408051918252519081900360200190f35b610308610b3b565b6102fe6004803603602081101561033857600080fd5b50356001600160a01b0316610b5f565b6103ee6004803603602081101561035e57600080fd5b81019060208101813564010000000081111561037957600080fd5b82018360208201111561038b57600080fd5b803590602001918460018302840111640100000000831117156103ad57600080fd5b91908080601f016020809104026020016040519081016040528093929190818152602001838380828437600092019190915250929550610c0a945050505050565b6040518080602001866001600160a01b03166001600160a01b03168152602001856001600160a01b03166001600160a01b03168152602001848152602001838152602001828103825287818151815260200191508051906020019080838360005b8381101561046757818101518382015260200161044f565b50505050905090810190601f1680156104945780820380516001836020036101000a031916815260200191505b50965050505050505060405180910390f35b6104ae610d0f565b604080516001600160a01b039092168252519081900360200190f35b610308610d1e565b6102fe600480360360408110156104e857600080fd5b506001600160a01b0381351690602001351515610d24565b6102fe6004803603602081101561051657600080fd5b50356001600160a01b0316610d7b565b6102fe6004803603606081101561053c57600080fd5b6001600160a01b03823516919081019060408101602082013564010000000081111561056757600080fd5b82018360208201111561057957600080fd5b8035906020019184602083028401116401000000008311171561059b57600080fd5b9193909290916020810190356401000000008111156105b957600080fd5b8201836020820111156105cb57600080fd5b803590602001918460208302840111640100000000831117156105ed57600080fd5b509092509050610e51565b6102fe6004803603602081101561060e57600080fd5b50356001600160a01b0316610fdc565b61074b600480360360a081101561063457600080fd5b6001600160a01b03823581169260208101359091169181019060608101604082013564010000000081111561066857600080fd5b82018360208201111561067a57600080fd5b8035906020019184602083028401116401000000008311171561069c57600080fd5b9193909290916020810190356401000000008111156106ba57600080fd5b8201836020820111156106cc57600080fd5b803590602001918460208302840111640100000000831117156106ee57600080fd5b91939092909160208101903564010000000081111561070c57600080fd5b82018360208201111561071e57600080fd5b8035906020019184600183028401116401000000008311171561074057600080fd5b5090925090506110c5565b604080517fffffffff000000000000000000000000000000000000000000000000000000009092168252519081900360200190f35b610843600480360360a081101561079657600080fd5b8101906020810181356401000000008111156107b157600080fd5b8201836020820111156107c357600080fd5b803590602001918460018302840111640100000000831117156107e557600080fd5b91908080601f016020809104026020016040519081016040528093929190818152602001838380828437600092019190915250929550506001600160a01b0383358116945060208401351692604081013592506060013590506110f2565b604080519115158252519081900360200190f35b6104ae61122e565b6108436004803603602081101561087557600080fd5b50356001600160a01b031661123d565b6102fe6004803603602081101561089b57600080fd5b503561125b565b61074b600480360360a08110156108b857600080fd5b6001600160a01b03823581169260208101359091169160408201359160608101359181019060a0810160808201356401000000008111156108f857600080fd5b82018360208201111561090a57600080fd5b8035906020019184600183028401116401000000008311171561092c57600080fd5b5090925090506112bf565b6109418e8d6112ea565b610a388d8d8d8d80806020026020016040519081016040528093929190818152602001838360200280828437600081840152601f19601f820116905080830192505050505050508c8c8c80806020026020016040519081016040528093929190818152602001838360200280828437600081840152601f19601f820116905080830192505050505050508b8b8080602002602001604051908101604052809392919081815260200183836020028082843760009201919091525050604080516020601f8d018190048102820181019092528b815292508b91508a908190840183828082843760009201919091525061144d92505050565b610a8c8e8c8c6003818110610a4957fe5b9050602002013586868080601f0160208091040260200160405190810160405280939291908181526020018383808284376000920191909152506117d092505050565b610aca8e8e8d8d8080602002602001604051908101604052809392919081815260200183836020028082843760009201919091525061182192505050565b610b078d898980806020026020016040519081016040528093929190818152602001838360200280828437600092019190915250611c1292505050565b5050505050505050505050505050565b7f000000000000000000000000000000000000000000000000000000000000000090565b7f000000000000000000000000000000000000000000000000000000000000000090565b6000546001600160a01b03163314610bbe576040805162461bcd60e51b815260206004820152601060248201527f53656e646572206e6f742061646d696e00000000000000000000000000000000604482015290519081900360640190fd5b600554600280546001600160a01b03908116600090815260046020526040902042909301909255805473ffffffffffffffffffffffffffffffffffffffff191692909116919091179055565b606060008060008060606000806000808a80602001905160a0811015610c2f57600080fd5b8101908080516040519392919084640100000000821115610c4f57600080fd5b908301906020820185811115610c6457600080fd5b8251640100000000811182820188101715610c7e57600080fd5b82525081516020918201929091019080838360005b83811015610cab578181015183820152602001610c93565b50505050905090810190601f168015610cd85780820380516001836020036101000a031916815260200191505b5060409081526020820151908201516060830151608090930151959f50909d509b5099509197505050505050505091939590929450565b6000546001600160a01b031690565b60035490565b6000546001600160a01b03163314610d6d5760405162461bcd60e51b815260040180806020018281038252602e8152602001806125a3602e913960400191505060405180910390fd5b610d778282611dd6565b5050565b6000546001600160a01b03163314610dda576040805162461bcd60e51b815260206004820152601b60248201527f6f6e6c792061646d696e2063616e206368616e67652061646d696e0000000000604482015290519081900360640190fd5b600054604080516001600160a01b039283168152918316602083015280517f7e644d79422f17c01e4894b5f4f588d331ebfa28653d42ae832dc59e38c9798f9281900390910190a16000805473ffffffffffffffffffffffffffffffffffffffff19166001600160a01b0392909216919091179055565b6000546001600160a01b03163314610eb0576040805162461bcd60e51b815260206004820152600e60248201527f4e4f545f415554484f52495a4544000000000000000000000000000000000000604482015290519081900360640190fd5b7f00000000000000000000000000000000000000000000000000000000000000006001600160a01b0316632eb2c2d63087878787876040518763ffffffff1660e01b815260040180876001600160a01b03166001600160a01b03168152602001866001600160a01b03166001600160a01b031681526020018060200180602001806020018481038452888882818152602001925060200280828437600083820152601f01601f19169091018581038452868152602090810191508790870280828437600081840152601f19601f8201169050808301925050508481038252600081526020016020019950505050505050505050600060405180830381600087803b158015610fbd57600080fd5b505af1158015610fd1573d6000803e3d6000fd5b505050505050505050565b6001600160a01b038116611037576040805162461bcd60e51b815260206004820152600c60248201527f5a45524f5f414444524553530000000000000000000000000000000000000000604482015290519081900360640190fd5b6000546001600160a01b03163314611096576040805162461bcd60e51b815260206004820152600e60248201527f4e4f545f415554484f52495a4544000000000000000000000000000000000000604482015290519081900360640190fd5b6006805473ffffffffffffffffffffffffffffffffffffffff19166001600160a01b0392909216919091179055565b7fbc197c810000000000000000000000000000000000000000000000000000000098975050505050505050565b60006003548211806111155750836001600160a01b0316856001600160a01b0316145b8061111f57508242115b1561112c57506000611225565b60408051606087811b7fffffffffffffffffffffffffffffffffffffffff0000000000000000000000009081166020808501919091529188901b166034830152604882018690526068808301869052835180840390910181526088830184528051908201207f19457468657265756d205369676e6564204d6573736167653a0a33320000000060a884015260c48084018290528451808503909101815260e490930190935281519101206000906111e39089611e58565b6001600160a01b038116600090815260046020526040902054909150421161121057600192505050611225565b6002546001600160a01b039081169116149150505b95945050505050565b6002546001600160a01b031690565b6001600160a01b031660009081526001602052604090205460ff1690565b6000546001600160a01b031633146112ba576040805162461bcd60e51b815260206004820152601060248201527f53656e646572206e6f742061646d696e00000000000000000000000000000000604482015290519081900360640190fd5b600355565b7ff23a6e61000000000000000000000000000000000000000000000000000000009695505050505050565b7f0000000000000000000000000000000000000000000000000000000000000000421061135e576040805162461bcd60e51b815260206004820152600c60248201527f53414c455f49535f4f5645520000000000000000000000000000000000000000604482015290519081900360640190fd5b6001600160a01b03821633148061138457503360009081526001602052604090205460ff165b6113d5576040805162461bcd60e51b815260206004820152600e60248201527f4e4f545f415554484f52495a4544000000000000000000000000000000000000604482015290519081900360640190fd5b6001600160a01b03811615806113fc5750816001600160a01b0316816001600160a01b0316145b610d77576040805162461bcd60e51b815260206004820152600d60248201527f52455345525645445f4c414e4400000000000000000000000000000000000000604482015290519081900360640190fd5b600087878760008151811061145e57fe5b60200260200101518860018151811061147357fe5b60200260200101518960028151811061148857fe5b60200260200101518a60038151811061149d57fe5b60200260200101518a8a60405160200180828051906020019060200280838360005b838110156114d75781810151838201526020016114bf565b50505050905001915050604051602081830303815290604052805190602001208a60405160200180828051906020019060200280838360005b83811015611528578181015183820152602001611510565b5050505090500191505060405160208183030381529060405280519060200120604051602001808a6001600160a01b03166001600160a01b031660601b8152601401896001600160a01b03166001600160a01b031660601b81526014018881526020018781526020018681526020018581526020018481526020018381526020018281526020019950505050505050505050604051602081830303815290604052805190602001209050600760009054906101000a90046001600160a01b03166001600160a01b031663012847ed83836040518363ffffffff1660e01b81526004018080602001838152602001828103825284818151815260200191508051906020019080838360005b8381101561164a578181015183820152602001611632565b50505050905090810190601f1680156116775780820380516001836020036101000a031916815260200191505b50935050505060206040518083038186803b15801561169557600080fd5b505afa1580156116a9573d6000803e3d6000fd5b505050506040513d60208110156116bf57600080fd5b5051611712576040805162461bcd60e51b815260206004820152600c60248201527f494e56414c49445f415554480000000000000000000000000000000000000000604482015290519081900360640190fd5b60006117738760008151811061172457fe5b60200260200101518860018151811061173957fe5b60200260200101518960028151811061174e57fe5b60200260200101518a60038151811061176357fe5b60200260200101518c8b8b611f25565b905061177f8482611fca565b610fd1576040805162461bcd60e51b815260206004820152600c60248201527f494e56414c49445f4c414e440000000000000000000000000000000000000000604482015290519081900360640190fd5b60006117dc8484612095565b60065490915061181b908590839085906001600160a01b03167f00000000000000000000000000000000000000000000000000000000000000006121ee565b50505050565b8060028151811061182e57fe5b60200260200101516001148061186b57507f00000000000000000000000000000000000000000000000000000000000000006001600160a01b0316155b1561196d577f00000000000000000000000000000000000000000000000000000000000000006001600160a01b0316636e1e3bbf83836002815181106118ad57fe5b6020026020010151846000815181106118c257fe5b6020026020010151856001815181106118d757fe5b60200260200101516040518563ffffffff1660e01b815260040180856001600160a01b03166001600160a01b031681526020018481526020018381526020018281526020018060200182810382526000815260200160200195505050505050600060405180830381600087803b15801561195057600080fd5b505af1158015611964573d6000803e3d6000fd5b50505050611b0d565b7f00000000000000000000000000000000000000000000000000000000000000006001600160a01b0316636e1e3bbf7f0000000000000000000000000000000000000000000000000000000000000000836002815181106119ca57fe5b6020026020010151846000815181106119df57fe5b6020026020010151856001815181106119f457fe5b60200260200101518760405160200180826001600160a01b03166001600160a01b031681526020019150506040516020818303038152906040526040518663ffffffff1660e01b815260040180866001600160a01b03166001600160a01b0316815260200185815260200184815260200183815260200180602001828103825283818151815260200191508051906020019080838360005b83811015611aa4578181015183820152602001611a8c565b50505050905090810190601f168015611ad15780820380516001836020036101000a031916815260200191505b509650505050505050600060405180830381600087803b158015611af457600080fd5b505af1158015611b08573d6000803e3d6000fd5b505050505b61019881600181518110611b1d57fe5b60200260200101510281600081518110611b3357fe5b602002602001015101826001600160a01b0316846001600160a01b03167fe4dfa6ac11314892f3029b34a25b1a887da3b1cab2bbf8506d87128ba6e3ac0284600281518110611b7e57fe5b602002602001015185600381518110611b9357fe5b60200260200101517f000000000000000000000000000000000000000000000000000000000000000087600381518110611bc957fe5b602002602001015160405180858152602001848152602001836001600160a01b03166001600160a01b0316815260200182815260200194505050505060405180910390a4505050565b6060815167ffffffffffffffff81118015611c2c57600080fd5b50604051908082528060200260200182016040528015611c56578160200160208202803683370190505b50905060005b8251811015611c86576001828281518110611c7357fe5b6020908102919091010152600101611c5c565b507f00000000000000000000000000000000000000000000000000000000000000006001600160a01b0316632eb2c2d6308585856040518563ffffffff1660e01b815260040180856001600160a01b03166001600160a01b03168152602001846001600160a01b03166001600160a01b03168152602001806020018060200180602001848103845286818151815260200191508051906020019060200280838360005b83811015611d41578181015183820152602001611d29565b50505050905001848103835285818151815260200191508051906020019060200280838360005b83811015611d80578181015183820152602001611d68565b50505050905001848103825260008152602001602001975050505050505050600060405180830381600087803b158015611db957600080fd5b505af1158015611dcd573d6000803e3d6000fd5b50505050505050565b6001600160a01b03821660008181526001602090815260409182902080547fffffffffffffffffffffffffffffffffffffffffffffffffffffffffffffff001685151590811790915582519384529083015280517fb21eb88b4e33b3f1281830a7178d74d8aa73220416215726b68ae23d539515cb9281900390910190a15050565b60008151604114611e6857600080fd5b60208201516040830151606084015160001a601b811015611e8757601b015b8060ff16601b1480611e9c57508060ff16601c145b611ea557600080fd5b6040805160008152602080820180845289905260ff8416828401526060820186905260808201859052915160019260a0808401939192601f1981019281900390910190855afa158015611efc573d6000803e3d6000fd5b5050604051601f1901519450506001600160a01b038416611f1c57600080fd5b50505092915050565b60008787878787878760405160200180888152602001878152602001868152602001858152602001846001600160a01b03166001600160a01b031660601b8152601401838152602001828051906020019060200280838360005b83811015611f97578181015183820152602001611f7f565b50505050905001975050505050505050604051602081830303815290604052805190602001209050979650505050505050565b600081815b8451811015612069576000858281518110611fe657fe5b602002602001015190508083101561202e5782816040516020018083815260200182815260200192505050604051602081830303815290604052805190602001209250612060565b808360405160200180838152602001828152602001925050506040516020818303038152906040528051906020012092505b50600101611fcf565b507f00000000000000000000000000000000000000000000000000000000000000001490505b92915050565b6000806120ba60646120ae85600563ffffffff61247016565b9063ffffffff6124e016565b604080516323b872dd60e01b81526001600160a01b0387811660048301527f0000000000000000000000000000000000000000000000000000000000000000811660248301526044820184905291519293507f0000000000000000000000000000000000000000000000000000000000000000909116916323b872dd916064808201926020929091908290030181600087803b15801561215957600080fd5b505af115801561216d573d6000803e3d6000fd5b505050506040513d602081101561218357600080fd5b50516121d6576040805162461bcd60e51b815260206004820152601360248201527f4645455f5452414e534645525f4641494c454400000000000000000000000000604482015290519081900360640190fd5b6121e6838263ffffffff61254516565b949350505050565b8251819085901561239857606060008060008061220a8a610c0a565b939850919650945092509050600061222586868686866110f2565b156122b35761223f6122378d84612470565b6127106124e0565b9050886001600160a01b0316846001600160a01b0316866001600160a01b03167fac7a699eb95c3c6d390ec4626de17ef9a67b35891efdb197beba7c7fdd45fac48f858760405180848152602001838152602001828152602001935050505060405180910390a46122b08782612545565b96505b801561239157604080516323b872dd60e01b81526001600160a01b038f811660048301528781166024830152604482018490529151918a16916323b872dd916064808201926020929091908290030181600087803b15801561231457600080fd5b505af1158015612328573d6000803e3d6000fd5b505050506040513d602081101561233e57600080fd5b5051612391576040805162461bcd60e51b815260206004820152601960248201527f636f6d6d6973696f6e207472616e73666572206661696c656400000000000000604482015290519081900360640190fd5b5050505050505b604080516323b872dd60e01b81526001600160a01b0389811660048301528681166024830152604482018490529151918416916323b872dd916064808201926020929091908290030181600087803b1580156123f357600080fd5b505af1158015612407573d6000803e3d6000fd5b505050506040513d602081101561241d57600080fd5b5051611dcd576040805162461bcd60e51b815260206004820152601760248201527f7061796d656e74207472616e73666572206661696c6564000000000000000000604482015290519081900360640190fd5b60008261247f5750600061208f565b508181028183828161248d57fe5b041461208f576040805162461bcd60e51b815260206004820152600860248201527f6f766572666c6f77000000000000000000000000000000000000000000000000604482015290519081900360640190fd5b600081612534576040805162461bcd60e51b815260206004820152600960248201527f64697662797a65726f0000000000000000000000000000000000000000000000604482015290519081900360640190fd5b81838161253d57fe5b049392505050565b60008282111561259c576040805162461bcd60e51b815260206004820152600860248201527f756e6465666c6f77000000000000000000000000000000000000000000000000604482015290519081900360640190fd5b5090039056fe6f6e6c792061646d696e2063616e207365747570206d6574615472616e73616374696f6e50726f636573736f7273a2646970667358221220fc9205bafc138c1de206481f144dc3e7818922fbe1a20d2a71392e5e2e413c1a64736f6c63430006050033",
  "devdoc": {
    "methods": {
      "buyLandWithSand(address,address,address,uint256[],bytes32,uint256[],bytes32[],bytes,bytes)": {
        "params": {
          "buyer": "address that perform the payment",
          "info": "[X_INDEX=0] x coordinate of the Land [Y_INDEX=1] y coordinate of the Land [SIZE_INDEX=2] size of the pack of Land to purchase [PRICE_INDEX=3] price in SAND to purchase that Land",
          "proof": "merkleProof for that particular Land",
          "reserved": "the reserved address (if any)",
          "to": "address that will own the purchased Land"
        }
      },
      "changeAdmin(address)": {
        "details": "change the administrator to be `newAdmin`.",
        "params": {
          "newAdmin": "address of the new administrator."
        }
      },
      "getAdmin()": {
        "details": "gives the current administrator of this contract.",
        "returns": {
          "_0": "the current administrator of this contract."
        }
      },
      "getSigningWallet()": {
        "details": "signing wallet authorized for referral",
        "returns": {
          "_0": "the address of the signing wallet"
        }
      },
      "isMetaTransactionProcessor(address)": {
        "details": "check whether address `who` is given meta-transaction execution rights.",
        "params": {
          "who": "The address to query."
        },
        "returns": {
          "_0": "whether the address has meta-transaction execution rights."
        }
      },
      "isReferralValid(bytes,address,address,uint256,uint256)": {
        "params": {
          "commissionRate": "The commissionRate of the referral",
          "expiryTime": "The expiry time of the referral",
          "referee": "The address of the referee",
          "referrer": "The address of the referrer",
          "signature": "The signature to check (signed referral)"
        },
        "returns": {
          "_0": "True if the referral is valid"
        }
      },
      "setMetaTransactionProcessor(address,bool)": {
        "details": "Enable or disable the ability of `metaTransactionProcessor` to perform meta-tx (metaTransactionProcessor rights).",
        "params": {
          "enabled": "set whether the metaTransactionProcessor is enabled or disabled.",
          "metaTransactionProcessor": "address that will be given/removed metaTransactionProcessor rights."
        }
      },
      "setReceivingWallet(address)": {
        "params": {
          "newWallet": "address of the new receiving wallet"
        }
      },
      "updateMaxCommissionRate(uint256)": {
        "details": "Update the maximum commission rate",
        "params": {
          "newMaxCommissionRate": "The new maximum commission rate"
        }
      },
      "updateSigningWallet(address)": {
        "details": "Update the signing wallet",
        "params": {
          "newSigningWallet": "The new address of the signing wallet"
        }
      },
      "withdrawAssets(address,uint256[],uint256[])": {
        "params": {
          "assetIds": "the assetIds to be transferred",
          "to": "intended recipient of the asset tokens",
          "values": "the quantities of the assetIds to be transferred"
        }
      }
    },
    "title": "Estate Sale contract with referral"
  },
  "userdoc": {
    "methods": {
      "buyLandWithSand(address,address,address,uint256[],bytes32,uint256[],bytes32[],bytes,bytes)": {
        "notice": "buy Land with SAND using the merkle proof associated with it"
      },
      "getExpiryTime()": {
        "notice": "Gets the expiry time for the current sale"
      },
      "getMaxCommisionRate()": {
        "notice": "the max commision rate"
      },
      "getMerkleRoot()": {
        "notice": "Gets the Merkle root associated with the current sale"
      },
      "isReferralValid(bytes,address,address,uint256,uint256)": {
        "notice": "Check if a referral is valid"
      },
      "setReceivingWallet(address)": {
        "notice": "set the wallet receiving the proceeds"
      },
      "withdrawAssets(address,uint256[],uint256[])": {
        "notice": "enable Admin to withdraw remaining assets from EstateSaleWithFee contract"
      }
    },
    "notice": "This contract manages the sale of our lands as Estates"
  },
  "storageLayout": {
    "storage": [
      {
        "astId": 13650,
        "contract": "src/solc_0.6/EstateSale/EstateSaleWithAuth.sol:EstateSaleWithAuth",
        "label": "_admin",
        "offset": 0,
        "slot": "0",
        "type": "t_address"
      },
      {
        "astId": 13712,
        "contract": "src/solc_0.6/EstateSale/EstateSaleWithAuth.sol:EstateSaleWithAuth",
        "label": "_metaTransactionContracts",
        "offset": 0,
        "slot": "1",
        "type": "t_mapping(t_address,t_bool)"
      },
      {
        "astId": 11828,
        "contract": "src/solc_0.6/EstateSale/EstateSaleWithAuth.sol:EstateSaleWithAuth",
        "label": "_signingWallet",
        "offset": 0,
        "slot": "2",
        "type": "t_address"
      },
      {
        "astId": 11830,
        "contract": "src/solc_0.6/EstateSale/EstateSaleWithAuth.sol:EstateSaleWithAuth",
        "label": "_maxCommissionRate",
        "offset": 0,
        "slot": "3",
        "type": "t_uint256"
      },
      {
        "astId": 11834,
        "contract": "src/solc_0.6/EstateSale/EstateSaleWithAuth.sol:EstateSaleWithAuth",
        "label": "_previousSigningWallets",
        "offset": 0,
        "slot": "4",
        "type": "t_mapping(t_address,t_uint256)"
      },
      {
        "astId": 11843,
        "contract": "src/solc_0.6/EstateSale/EstateSaleWithAuth.sol:EstateSaleWithAuth",
        "label": "_previousSigningDelay",
        "offset": 0,
        "slot": "5",
        "type": "t_uint256"
      },
      {
        "astId": 7453,
        "contract": "src/solc_0.6/EstateSale/EstateSaleWithAuth.sol:EstateSaleWithAuth",
        "label": "_wallet",
        "offset": 0,
        "slot": "6",
        "type": "t_address_payable"
      },
      {
        "astId": 7455,
        "contract": "src/solc_0.6/EstateSale/EstateSaleWithAuth.sol:EstateSaleWithAuth",
        "label": "_authValidator",
        "offset": 0,
        "slot": "7",
        "type": "t_contract(AuthValidator)6784"
      }
    ],
    "types": {
      "t_address": {
        "encoding": "inplace",
        "label": "address",
        "numberOfBytes": "20"
      },
      "t_address_payable": {
        "encoding": "inplace",
        "label": "address payable",
        "numberOfBytes": "20"
      },
      "t_bool": {
        "encoding": "inplace",
        "label": "bool",
        "numberOfBytes": "1"
      },
      "t_contract(AuthValidator)6784": {
        "encoding": "inplace",
        "label": "contract AuthValidator",
        "numberOfBytes": "20"
      },
      "t_mapping(t_address,t_bool)": {
        "encoding": "mapping",
        "key": "t_address",
        "label": "mapping(address => bool)",
        "numberOfBytes": "32",
        "value": "t_bool"
      },
      "t_mapping(t_address,t_uint256)": {
        "encoding": "mapping",
        "key": "t_address",
        "label": "mapping(address => uint256)",
        "numberOfBytes": "32",
        "value": "t_uint256"
      },
      "t_uint256": {
        "encoding": "inplace",
        "label": "uint256",
        "numberOfBytes": "32"
      }
    }
  }
}