{
  "address": "0x88766019BE77A3DffFB9931f1F68eEAa1DeE651E",
  "abi": [
    {
      "inputs": [
        {
          "internalType": "address",
          "name": "landAddress",
          "type": "address"
        },
        {
          "internalType": "address",
          "name": "sandContractAddress",
          "type": "address"
        },
        {
          "internalType": "address",
          "name": "initialMetaTx",
          "type": "address"
        },
        {
          "internalType": "address",
          "name": "admin",
          "type": "address"
        },
        {
          "internalType": "address payable",
          "name": "initialWalletAddress",
          "type": "address"
        },
        {
          "internalType": "bytes32",
          "name": "merkleRoot",
          "type": "bytes32"
        },
        {
          "internalType": "uint256",
          "name": "expiryTime",
          "type": "uint256"
        },
        {
          "internalType": "address",
          "name": "initialSigningWallet",
          "type": "address"
        },
        {
          "internalType": "uint256",
          "name": "initialMaxCommissionRate",
          "type": "uint256"
        },
        {
          "internalType": "address",
          "name": "estate",
          "type": "address"
        },
        {
          "internalType": "address",
          "name": "asset",
          "type": "address"
        },
        {
          "internalType": "address",
          "name": "feeDistributor",
          "type": "address"
        }
      ],
      "stateMutability": "nonpayable",
      "type": "constructor"
    },
    {
      "anonymous": false,
      "inputs": [
        {
          "indexed": false,
          "internalType": "address",
          "name": "oldAdmin",
          "type": "address"
        },
        {
          "indexed": false,
          "internalType": "address",
          "name": "newAdmin",
          "type": "address"
        }
      ],
      "name": "AdminChanged",
      "type": "event"
    },
    {
      "anonymous": false,
      "inputs": [
        {
          "indexed": true,
          "internalType": "address",
          "name": "buyer",
          "type": "address"
        },
        {
          "indexed": true,
          "internalType": "address",
          "name": "to",
          "type": "address"
        },
        {
          "indexed": true,
          "internalType": "uint256",
          "name": "topCornerId",
          "type": "uint256"
        },
        {
          "indexed": false,
          "internalType": "uint256",
          "name": "size",
          "type": "uint256"
        },
        {
          "indexed": false,
          "internalType": "uint256",
          "name": "price",
          "type": "uint256"
        },
        {
          "indexed": false,
          "internalType": "address",
          "name": "token",
          "type": "address"
        },
        {
          "indexed": false,
          "internalType": "uint256",
          "name": "amountPaid",
          "type": "uint256"
        }
      ],
      "name": "LandQuadPurchased",
      "type": "event"
    },
    {
      "anonymous": false,
      "inputs": [
        {
          "indexed": false,
          "internalType": "address",
          "name": "metaTransactionProcessor",
          "type": "address"
        },
        {
          "indexed": false,
          "internalType": "bool",
          "name": "enabled",
          "type": "bool"
        }
      ],
      "name": "MetaTransactionProcessor",
      "type": "event"
    },
    {
      "anonymous": false,
      "inputs": [
        {
          "indexed": true,
          "internalType": "address",
          "name": "referrer",
          "type": "address"
        },
        {
          "indexed": true,
          "internalType": "address",
          "name": "referee",
          "type": "address"
        },
        {
          "indexed": true,
          "internalType": "address",
          "name": "token",
          "type": "address"
        },
        {
          "indexed": false,
          "internalType": "uint256",
          "name": "amount",
          "type": "uint256"
        },
        {
          "indexed": false,
          "internalType": "uint256",
          "name": "commission",
          "type": "uint256"
        },
        {
          "indexed": false,
          "internalType": "uint256",
          "name": "commissionRate",
          "type": "uint256"
        }
      ],
      "name": "ReferralUsed",
      "type": "event"
    },
    {
      "inputs": [
        {
          "internalType": "address",
          "name": "buyer",
          "type": "address"
        },
        {
          "internalType": "address",
          "name": "to",
          "type": "address"
        },
        {
          "internalType": "address",
          "name": "reserved",
          "type": "address"
        },
        {
          "internalType": "uint256",
          "name": "x",
          "type": "uint256"
        },
        {
          "internalType": "uint256",
          "name": "y",
          "type": "uint256"
        },
        {
          "internalType": "uint256",
          "name": "size",
          "type": "uint256"
        },
        {
          "internalType": "uint256",
          "name": "priceInSand",
          "type": "uint256"
        },
        {
          "internalType": "uint256",
          "name": "adjustedPriceInSand",
          "type": "uint256"
        },
        {
          "internalType": "bytes32",
          "name": "salt",
          "type": "bytes32"
        },
        {
          "internalType": "uint256[]",
          "name": "assetIds",
          "type": "uint256[]"
        },
        {
          "internalType": "bytes32[]",
          "name": "proof",
          "type": "bytes32[]"
        },
        {
          "internalType": "bytes",
          "name": "referral",
          "type": "bytes"
        }
      ],
      "name": "buyLandWithSand",
      "outputs": [],
      "stateMutability": "nonpayable",
      "type": "function"
    },
    {
      "inputs": [
        {
          "internalType": "address",
          "name": "newAdmin",
          "type": "address"
        }
      ],
      "name": "changeAdmin",
      "outputs": [],
      "stateMutability": "nonpayable",
      "type": "function"
    },
    {
      "inputs": [
        {
          "internalType": "bytes",
          "name": "referral",
          "type": "bytes"
        }
      ],
      "name": "decodeReferral",
      "outputs": [
        {
          "internalType": "bytes",
          "name": "",
          "type": "bytes"
        },
        {
          "internalType": "address",
          "name": "",
          "type": "address"
        },
        {
          "internalType": "address",
          "name": "",
          "type": "address"
        },
        {
          "internalType": "uint256",
          "name": "",
          "type": "uint256"
        },
        {
          "internalType": "uint256",
          "name": "",
          "type": "uint256"
        }
      ],
      "stateMutability": "pure",
      "type": "function"
    },
    {
      "inputs": [],
      "name": "getAdmin",
      "outputs": [
        {
          "internalType": "address",
          "name": "",
          "type": "address"
        }
      ],
      "stateMutability": "view",
      "type": "function"
    },
    {
      "inputs": [],
      "name": "getExpiryTime",
      "outputs": [
        {
          "internalType": "uint256",
          "name": "",
          "type": "uint256"
        }
      ],
      "stateMutability": "view",
      "type": "function"
    },
    {
      "inputs": [],
      "name": "getMaxCommisionRate",
      "outputs": [
        {
          "internalType": "uint256",
          "name": "",
          "type": "uint256"
        }
      ],
      "stateMutability": "view",
      "type": "function"
    },
    {
      "inputs": [],
      "name": "getMerkleRoot",
      "outputs": [
        {
          "internalType": "bytes32",
          "name": "",
          "type": "bytes32"
        }
      ],
      "stateMutability": "view",
      "type": "function"
    },
    {
      "inputs": [],
      "name": "getSandMultiplier",
      "outputs": [
        {
          "internalType": "uint256",
          "name": "",
          "type": "uint256"
        }
      ],
      "stateMutability": "view",
      "type": "function"
    },
    {
      "inputs": [],
      "name": "getSigningWallet",
      "outputs": [
        {
          "internalType": "address",
          "name": "",
          "type": "address"
        }
      ],
      "stateMutability": "view",
      "type": "function"
    },
    {
      "inputs": [
        {
          "internalType": "address",
          "name": "who",
          "type": "address"
        }
      ],
      "name": "isMetaTransactionProcessor",
      "outputs": [
        {
          "internalType": "bool",
          "name": "",
          "type": "bool"
        }
      ],
      "stateMutability": "view",
      "type": "function"
    },
    {
      "inputs": [
        {
          "internalType": "bytes",
          "name": "signature",
          "type": "bytes"
        },
        {
          "internalType": "address",
          "name": "referrer",
          "type": "address"
        },
        {
          "internalType": "address",
          "name": "referee",
          "type": "address"
        },
        {
          "internalType": "uint256",
          "name": "expiryTime",
          "type": "uint256"
        },
        {
          "internalType": "uint256",
          "name": "commissionRate",
          "type": "uint256"
        }
      ],
      "name": "isReferralValid",
      "outputs": [
        {
          "internalType": "bool",
          "name": "",
          "type": "bool"
        }
      ],
      "stateMutability": "view",
      "type": "function"
    },
    {
      "inputs": [
        {
          "internalType": "address",
          "name": "",
          "type": "address"
        },
        {
          "internalType": "address",
          "name": "",
          "type": "address"
        },
        {
          "internalType": "uint256[]",
          "name": "",
          "type": "uint256[]"
        },
        {
          "internalType": "uint256[]",
          "name": "",
          "type": "uint256[]"
        },
        {
          "internalType": "bytes",
          "name": "",
          "type": "bytes"
        }
      ],
      "name": "onERC1155BatchReceived",
      "outputs": [
        {
          "internalType": "bytes4",
          "name": "",
          "type": "bytes4"
        }
      ],
      "stateMutability": "pure",
      "type": "function"
    },
    {
      "inputs": [
        {
          "internalType": "address",
          "name": "",
          "type": "address"
        },
        {
          "internalType": "address",
          "name": "",
          "type": "address"
        },
        {
          "internalType": "uint256",
          "name": "",
          "type": "uint256"
        },
        {
          "internalType": "uint256",
          "name": "",
          "type": "uint256"
        },
        {
          "internalType": "bytes",
          "name": "",
          "type": "bytes"
        }
      ],
      "name": "onERC1155Received",
      "outputs": [
        {
          "internalType": "bytes4",
          "name": "",
          "type": "bytes4"
        }
      ],
      "stateMutability": "pure",
      "type": "function"
    },
    {
      "inputs": [
        {
          "internalType": "uint256",
          "name": "newMultiplier",
          "type": "uint256"
        }
      ],
      "name": "rebalanceSand",
      "outputs": [],
      "stateMutability": "nonpayable",
      "type": "function"
    },
    {
      "inputs": [
        {
          "internalType": "address",
          "name": "metaTransactionProcessor",
          "type": "address"
        },
        {
          "internalType": "bool",
          "name": "enabled",
          "type": "bool"
        }
      ],
      "name": "setMetaTransactionProcessor",
      "outputs": [],
      "stateMutability": "nonpayable",
      "type": "function"
    },
    {
      "inputs": [
        {
          "internalType": "address payable",
          "name": "newWallet",
          "type": "address"
        }
      ],
      "name": "setReceivingWallet",
      "outputs": [],
      "stateMutability": "nonpayable",
      "type": "function"
    },
    {
      "inputs": [
        {
          "internalType": "uint256",
          "name": "newMaxCommissionRate",
          "type": "uint256"
        }
      ],
      "name": "updateMaxCommissionRate",
      "outputs": [],
      "stateMutability": "nonpayable",
      "type": "function"
    },
    {
      "inputs": [
        {
          "internalType": "address",
          "name": "newSigningWallet",
          "type": "address"
        }
      ],
      "name": "updateSigningWallet",
      "outputs": [],
      "stateMutability": "nonpayable",
      "type": "function"
    },
    {
      "inputs": [
        {
          "internalType": "address",
          "name": "to",
          "type": "address"
        },
        {
          "internalType": "uint256[]",
          "name": "assetIds",
          "type": "uint256[]"
        },
        {
          "internalType": "uint256[]",
          "name": "values",
          "type": "uint256[]"
        }
      ],
      "name": "withdrawAssets",
      "outputs": [],
      "stateMutability": "nonpayable",
      "type": "function"
    }
  ],
  "transactionHash": "0xc3836026a448859d35acbbfe30c897d596107c9aab12fefbf717da631761d2e1",
  "args": [
    "0xaF40A483bF77AAb7b7D13dB18187E6D62C1EA41b",
    "0xCc933a862fc15379E441F2A16Cb943D385a4695f",
    "0xCc933a862fc15379E441F2A16Cb943D385a4695f",
    "0xa4519D601F43D0b8f167842a367465681F652252",
    "0x60927eB036621b801491B6c5e9A60A8d2dEeD75A",
    "0x57d7ad5d3379e65884abc7eb97d4bef161d4107aad16ffb205333e8a1db7daf9",
    1656680400,
    "0xB7060D3FeCAC3AE1F0A0AA416E3e8E472257950e",
    2000,
    "0x0000000000000000000000000000000000000000",
    "0x8055a2c0f7EB177BeaB357B70E6504402d2b5fF6",
    "0x5983532A5b9009E05428595b87F19e42068a232B"
  ],
  "linkedData": [
    {
      "x": 126,
      "y": 330,
      "size": 1,
      "price": "1011000000000000000000",
      "reserved": "",
      "salt": "0x60d4645c79d9289c4113840c871a6d7a4be3563864699c8dd5d36eab06ae443d",
      "assetIds": []
    },
    {
      "x": 126,
      "y": 331,
      "size": 1,
      "price": "1011000000000000000000",
      "reserved": "0x7a9fe22691c811ea339d9b73150e6911a5343dca",
      "salt": "0x427b136dc03bf12630bbc62d460526d6f4bec702d4c13883ab1cb9579eca9e09",
      "assetIds": []
    },
    {
      "x": 126,
      "y": 332,
      "size": 1,
      "price": "1011000000000000000000",
      "reserved": "",
      "salt": "0xa4b1057e8df52709f8a3200278a98eeafa243d3ec21da9757a31fb26b7310f2f",
      "assetIds": []
    },
    {
      "x": 126,
      "y": 333,
      "size": 1,
      "price": "1011000000000000000000",
      "reserved": "",
      "salt": "0xa19641211eca241f40c6e6581e9bdee8c5c240d7db96cffe8abc8cb7936e8c2a",
      "assetIds": []
    },
    {
      "x": 126,
      "y": 334,
      "size": 1,
      "price": "1011000000000000000000",
      "reserved": "",
      "salt": "0xd8e96920ecc067194843c31b386349ea542735c47e6a2ba626f5107fc5a6ba2b",
      "assetIds": []
    },
    {
      "x": 126,
      "y": 335,
      "size": 1,
      "price": "1011000000000000000000",
      "reserved": "",
      "salt": "0xefa818ecdeb3b50d3aa209c42534100c04f332123d166773a43a93d3e320220c",
      "assetIds": []
    },
    {
      "x": 127,
      "y": 330,
      "size": 1,
      "price": "1011000000000000000000",
      "reserved": "",
      "salt": "0x5a0410442f50b3360668bf8b3df151fb50114e08c16eda9de352f4d71ff77f86",
      "assetIds": []
    },
    {
      "x": 127,
      "y": 331,
      "size": 1,
      "price": "1011000000000000000000",
      "reserved": "",
      "salt": "0x5eefe069b32ede65d046376e1c5153669c02d7e2aa1d8630cca2108c11e2226b",
      "assetIds": []
    },
    {
      "x": 127,
      "y": 332,
      "size": 1,
      "price": "1011000000000000000000",
      "reserved": "",
      "salt": "0xe45c756fc85b683d1bdb9a632a110b25db5d66eafcb111516c1070c4a0b1482d",
      "assetIds": []
    },
    {
      "x": 127,
      "y": 333,
      "size": 1,
      "price": "1011000000000000000000",
      "reserved": "",
      "salt": "0x4529146d0daceccbd16683e8b7d873431d57b001bcea62b0cfdd9d5aaa7791fd",
      "assetIds": []
    },
    {
      "x": 127,
      "y": 334,
      "size": 1,
      "price": "1011000000000000000000",
      "reserved": "0x7a9fe22691c811ea339d9b73150e6911a5343dca",
      "salt": "0x6777c3601ab7000944b5104f574bb94d12e73f916d90ba9a27a3acad5fb0e493",
      "assetIds": []
    },
    {
      "x": 127,
      "y": 335,
      "size": 1,
      "price": "1011000000000000000000",
      "reserved": "",
      "salt": "0x93d387301e7d30ba9dee3214f6e8bc5c6f83be179567fb9bc33e5d692661fed7",
      "assetIds": []
    },
    {
      "x": 128,
      "y": 330,
      "size": 1,
      "price": "1011000000000000000000",
      "reserved": "",
      "salt": "0x7faf37060a361aeb6dc62fcbdddc6acd26c96752eb80f4f0f469bb2a6413215e",
      "assetIds": []
    },
    {
      "x": 128,
      "y": 331,
      "size": 1,
      "price": "1011000000000000000000",
      "reserved": "",
      "salt": "0xd6d834384468b99eab3fc8da74ab223410de243de4e41715d889834a5b65d1da",
      "assetIds": []
    },
    {
      "x": 128,
      "y": 332,
      "size": 1,
      "price": "1011000000000000000000",
      "reserved": "0x7a9fe22691c811ea339d9b73150e6911a5343dca",
      "salt": "0xc32b2bf1bbc0b8da1094b631c7654147c4c5078d8306c84770015b25662f4051",
      "assetIds": []
    },
    {
      "x": 128,
      "y": 333,
      "size": 1,
      "price": "1011000000000000000000",
      "reserved": "",
      "salt": "0x94e029a1d5f2be1799c9ebf83aaf3120bc0ba559e484bb3804030e4dce2ab4a5",
      "assetIds": []
    },
    {
      "x": 128,
      "y": 334,
      "size": 1,
      "price": "1011000000000000000000",
      "reserved": "",
      "salt": "0xae27bf8d705620696a9cdf9787f920655e6384d8486b4b13f6f253940811c2d0",
      "assetIds": []
    },
    {
      "x": 128,
      "y": 335,
      "size": 1,
      "price": "1011000000000000000000",
      "reserved": "",
      "salt": "0x207e49af6c64c10792e3c8452e27f4f6dde30072646cc1eaa77c1b05c1553d84",
      "assetIds": []
    },
    {
      "x": 129,
      "y": 330,
      "size": 1,
      "price": "1011000000000000000000",
      "reserved": "",
      "salt": "0x210ee7705d12e2c285a39d32717d722dfdafa5fb1ee43513435e9c2369734415",
      "assetIds": []
    },
    {
      "x": 129,
      "y": 331,
      "size": 1,
      "price": "1011000000000000000000",
      "reserved": "",
      "salt": "0x9a3d497c433991e3c29274c3bc1824db5bc71aa9a7cfa7235e93afa69e135558",
      "assetIds": []
    },
    {
      "x": 129,
      "y": 332,
      "size": 1,
      "price": "1011000000000000000000",
      "reserved": "",
      "salt": "0x376eefcadb3e716d66e032fe3122ad01227891972058d0372b0557b3c997e940",
      "assetIds": []
    },
    {
      "x": 129,
      "y": 333,
      "size": 1,
      "price": "1011000000000000000000",
      "reserved": "",
      "salt": "0x676b0a8835be27b61294ddcdd046c8489b4b55c23694b0516a0fbb39d4c1197e",
      "assetIds": []
    },
    {
      "x": 129,
      "y": 334,
      "size": 1,
      "price": "1011000000000000000000",
      "reserved": "",
      "salt": "0x919c76a723604d0fff8f0b9c24575e920eefe354e55a3635401383af4c3913ed",
      "assetIds": []
    },
    {
      "x": 129,
      "y": 335,
      "size": 1,
      "price": "1011000000000000000000",
      "reserved": "",
      "salt": "0xf73cb0ccac4ea50e567cb0862d9ca391efbb8e48130ce6313a2bb4b4be37e275",
      "assetIds": []
    },
    {
      "x": 130,
      "y": 330,
      "size": 1,
      "price": "1011000000000000000000",
      "reserved": "",
      "salt": "0x9674122d5417ff53c3363786d03b50fd8127a4d6b7666cdfe78cf99cbe4de288",
      "assetIds": []
    },
    {
      "x": 130,
      "y": 331,
      "size": 1,
      "price": "1011000000000000000000",
      "reserved": "0x7a9fe22691c811ea339d9b73150e6911a5343dca",
      "salt": "0x3cf9a8d2fdfce438819b3b5aa47dde8c90441f551142557dafc468fce9cbb036",
      "assetIds": []
    },
    {
      "x": 130,
      "y": 332,
      "size": 1,
      "price": "1011000000000000000000",
      "reserved": "",
      "salt": "0x4633b3e417632b3db90d893e4244bb811e752f34a166b2009c8ee0dcac02bcbe",
      "assetIds": []
    },
    {
      "x": 130,
      "y": 333,
      "size": 1,
      "price": "1011000000000000000000",
      "reserved": "",
      "salt": "0x7883852125814c5fb8b95e31191bcc0646307f22d4b76c771f6ababa4cd8d58e",
      "assetIds": []
    },
    {
      "x": 130,
      "y": 334,
      "size": 1,
      "price": "1011000000000000000000",
      "reserved": "",
      "salt": "0x99933dd3ef5b66f26b63bbf546793446778b62edeabd31a99e2eb8644fedcb14",
      "assetIds": []
    },
    {
      "x": 130,
      "y": 335,
      "size": 1,
      "price": "1011000000000000000000",
      "reserved": "0x7a9fe22691c811ea339d9b73150e6911a5343dca",
      "salt": "0x670fb1ed7767920aef15ff1dbe85711c866ffe1c06ece17c7deb7471bc4407b8",
      "assetIds": []
    },
    {
      "x": 131,
      "y": 330,
      "size": 1,
      "price": "1011000000000000000000",
      "reserved": "",
      "salt": "0x59d97079c0fbd9631c3d8eb7913966644ad6ec252353f60784cbe234aec81102",
      "assetIds": []
    },
    {
      "x": 131,
      "y": 331,
      "size": 1,
      "price": "1011000000000000000000",
      "reserved": "",
      "salt": "0x4522c2ffba7da288c454ea55ca1b5ec80d5b8d3a29a3b3333ab6cc7acb17573f",
      "assetIds": []
    },
    {
      "x": 131,
      "y": 332,
      "size": 1,
      "price": "1011000000000000000000",
      "reserved": "",
      "salt": "0x91665984d380f981ad170220205c0c329e0922c9e56399ec6028e9d7ec726337",
      "assetIds": []
    },
    {
      "x": 131,
      "y": 333,
      "size": 1,
      "price": "1011000000000000000000",
      "reserved": "0x7a9fe22691c811ea339d9b73150e6911a5343dca",
      "salt": "0xe76f4dfc72301a7219af5fb292e07d3983e32fc9c757eb04953abfdeffeef822",
      "assetIds": []
    },
    {
      "x": 131,
      "y": 334,
      "size": 1,
      "price": "1011000000000000000000",
      "reserved": "",
      "salt": "0x90e52516bfc114881e75cc378b0fa7cc872277339a646a51ee794641050395f6",
      "assetIds": []
    },
    {
      "x": 131,
      "y": 335,
      "size": 1,
      "price": "1011000000000000000000",
      "reserved": "",
      "salt": "0x1e905d7b3b432ae4b7d2efdf679dbe78154f8df7038bbc26d38e7f392f98a47f",
      "assetIds": []
    },
    {
      "x": 132,
      "y": 321,
      "size": 1,
      "price": "1011000000000000000000",
      "reserved": "",
      "salt": "0x580da0888d80d7838a34d9b084fe35e0b69efe9359df1b8dc6f54a9ee31f48f2",
      "assetIds": []
    },
    {
      "x": 132,
      "y": 322,
      "size": 1,
      "price": "1011000000000000000000",
      "reserved": "",
      "salt": "0x3a489b7615ae77d3f5567eed7dd559f66480ec921c8152a5a21a42d07ac758aa",
      "assetIds": []
    },
    {
      "x": 132,
      "y": 323,
      "size": 1,
      "price": "1011000000000000000000",
      "reserved": "",
      "salt": "0x1550d3774bfe2f86e92132d031268a46517d8abf7c1e5a008284ebfd7943bcb9",
      "assetIds": []
    },
    {
      "x": 132,
      "y": 336,
      "size": 1,
      "price": "4683000000000000000000",
      "reserved": "",
      "salt": "0x6b66b5ffa03c2db6880742725530fdb3c5e971a3c5585d0bcb523fd0c5b66b00",
      "assetIds": [
        "41506478881403507969696680653240014914910929820314476107906210059990541021186"
      ]
    },
    {
      "x": 132,
      "y": 337,
      "size": 1,
      "price": "1011000000000000000000",
      "reserved": "",
      "salt": "0xa32473b0353f66f37bec8504eb1da90127c513477427ee9e92c0b54307f8bf8d",
      "assetIds": []
    },
    {
      "x": 132,
      "y": 338,
      "size": 1,
      "price": "1011000000000000000000",
      "reserved": "0x7a9fe22691c811ea339d9b73150e6911a5343dca",
      "salt": "0x5f47ae3646e84fdcbccf33c172af1e2fe41d29e1a5108cf98a383574f2e86284",
      "assetIds": []
    },
    {
      "x": 132,
      "y": 339,
      "size": 1,
      "price": "1011000000000000000000",
      "reserved": "",
      "salt": "0xdc9dacf16ec86d27e027e151f660d350550a24a1c6cf9db6fc72ae6e2b02be7c",
      "assetIds": []
    },
    {
      "x": 132,
      "y": 340,
      "size": 1,
      "price": "1011000000000000000000",
      "reserved": "",
      "salt": "0xa7ebe212ef5cbb766c1c3943533d6f0e53efb94492d1ebce1a361758568d9975",
      "assetIds": []
    },
    {
      "x": 132,
      "y": 341,
      "size": 1,
      "price": "1011000000000000000000",
      "reserved": "",
      "salt": "0xd29ef26ad832733e69a092722b1acc620463bb535a78d3037d8ef2526d3f1751",
      "assetIds": []
    },
    {
      "x": 132,
      "y": 342,
      "size": 1,
      "price": "1011000000000000000000",
      "reserved": "0x7a9fe22691c811ea339d9b73150e6911a5343dca",
      "salt": "0xd15c8cd25d9bbb361ad864c334064b6d1859a70bfd2900b2b2a20561c6d6bda3",
      "assetIds": []
    },
    {
      "x": 132,
      "y": 343,
      "size": 1,
      "price": "1011000000000000000000",
      "reserved": "",
      "salt": "0x227f402701301975fcef648d30c2a6d27b391d2d609b4f03a62e57b84076f6df",
      "assetIds": []
    },
    {
      "x": 132,
      "y": 344,
      "size": 1,
      "price": "1011000000000000000000",
      "reserved": "",
      "salt": "0x1cc89fd16f65390680adf8d4123569b914c62abdda64f68e9289a81ee505f751",
      "assetIds": []
    },
    {
      "x": 132,
      "y": 345,
      "size": 1,
      "price": "1011000000000000000000",
      "reserved": "",
      "salt": "0x15669f40d7123b183c42c8f537cb9db800bfc6f2eef4d69db9cac962185d7964",
      "assetIds": []
    },
    {
      "x": 133,
      "y": 321,
      "size": 1,
      "price": "1011000000000000000000",
      "reserved": "",
      "salt": "0x0dfcc073d21a592d3e6ddd9ed49511e3d39895a9478294a5a60722d3d94f0e5a",
      "assetIds": []
    },
    {
      "x": 133,
      "y": 322,
      "size": 1,
      "price": "1011000000000000000000",
      "reserved": "0x7a9fe22691c811ea339d9b73150e6911a5343dca",
      "salt": "0xeb3f4401a18527c3481d4569f519d0f4fc5b436103a5f5fdddf505c4f6dc4e23",
      "assetIds": []
    },
    {
      "x": 133,
      "y": 323,
      "size": 1,
      "price": "1011000000000000000000",
      "reserved": "",
      "salt": "0x7f46c8da042905de0daf7e478f87841113c1c0a99db8edcdd8da255e24e46746",
      "assetIds": []
    },
    {
      "x": 133,
      "y": 336,
      "size": 1,
      "price": "4683000000000000000000",
      "reserved": "",
      "salt": "0x62ba8141f5f19ac8b6d48371639ed91e709bfac72f92cee7340aef0f8e38571d",
      "assetIds": [
        "41506478881403507969696680653240014914910929820314476107906210059990541021186"
      ]
    },
    {
      "x": 133,
      "y": 337,
      "size": 1,
      "price": "1011000000000000000000",
      "reserved": "0x7a9fe22691c811ea339d9b73150e6911a5343dca",
      "salt": "0xd6d4abf5b76df255400f5a8102ee0a3b5ca8c351760b47ee26bdf870bdeb1802",
      "assetIds": []
    },
    {
      "x": 133,
      "y": 338,
      "size": 1,
      "price": "1011000000000000000000",
      "reserved": "",
      "salt": "0xc40baedf38174a4808dee1eb65bdd95e074c1210aa4750311c6b6f8cce6b9f23",
      "assetIds": []
    },
    {
      "x": 133,
      "y": 339,
      "size": 1,
      "price": "1011000000000000000000",
      "reserved": "",
      "salt": "0x7ea67f8f3bcf152cd630597bf9e671a03416bcae7c63e666880dfade2288b3b8",
      "assetIds": []
    },
    {
      "x": 133,
      "y": 340,
      "size": 1,
      "price": "1011000000000000000000",
      "reserved": "",
      "salt": "0xf9e06fd738a5f0fe50510ec14f025320fbd9f7e8da1a1169b00dfd05803e2070",
      "assetIds": []
    },
    {
      "x": 133,
      "y": 341,
      "size": 1,
      "price": "1011000000000000000000",
      "reserved": "",
      "salt": "0x32bc53f735b88495f2c237289e2470db72cb85f013ae35edac7ef3ddfd46ac5b",
      "assetIds": []
    },
    {
      "x": 133,
      "y": 342,
      "size": 1,
      "price": "1011000000000000000000",
      "reserved": "",
      "salt": "0x5826b82830975d73231cc6577a20c88e24b9db7503ca8431a8e2c7c183d1e2c1",
      "assetIds": []
    },
    {
      "x": 133,
      "y": 343,
      "size": 1,
      "price": "1011000000000000000000",
      "reserved": "",
      "salt": "0xf79706ad579d78959ace465c95dcb687fe279ea1e94ef50ff799d87433589daa",
      "assetIds": []
    },
    {
      "x": 133,
      "y": 344,
      "size": 1,
      "price": "1011000000000000000000",
      "reserved": "",
      "salt": "0x1f91b25d5329f96cf864e8acca4cbb6174f4875437d22c3289d1b4f71a0b4859",
      "assetIds": []
    },
    {
      "x": 133,
      "y": 345,
      "size": 1,
      "price": "1011000000000000000000",
      "reserved": "0x7a9fe22691c811ea339d9b73150e6911a5343dca",
      "salt": "0x63b4eecbdd5dcf40f2b9d73c659c90613849097923bac0bdd026af31430acd29",
      "assetIds": []
    },
    {
      "x": 134,
      "y": 321,
      "size": 1,
      "price": "1011000000000000000000",
      "reserved": "",
      "salt": "0xba461e4498507e0209936c5da6267d3290b9e242edac67dfe88e19e2abffa2c2",
      "assetIds": []
    },
    {
      "x": 134,
      "y": 322,
      "size": 1,
      "price": "1011000000000000000000",
      "reserved": "",
      "salt": "0x62d774e3b60bc7cbb1dc13851b810f64df47937413f65a7e008fe26ac8e74867",
      "assetIds": []
    },
    {
      "x": 134,
      "y": 323,
      "size": 1,
      "price": "1011000000000000000000",
      "reserved": "",
      "salt": "0xbcecc8cf255d7d7668d388c4f9af2054423d0f67c9134ebccdd4ba1031fdf94d",
      "assetIds": []
    },
    {
      "x": 134,
      "y": 336,
      "size": 1,
      "price": "4683000000000000000000",
      "reserved": "",
      "salt": "0xf0e35a2978d2746af28c76cf803454cc8d8c808573c73087b03a3f32911cc7a7",
      "assetIds": [
        "41506478881403507969696680653240014914910929820314476107906210059990541021186"
      ]
    },
    {
      "x": 134,
      "y": 337,
      "size": 1,
      "price": "1011000000000000000000",
      "reserved": "",
      "salt": "0xf98bb55e200d4a7f8b2ded68149fdaa049099a34566c71c62f50aca296d88993",
      "assetIds": []
    },
    {
      "x": 134,
      "y": 338,
      "size": 1,
      "price": "1011000000000000000000",
      "reserved": "",
      "salt": "0xad9b68ae7a726cf66f4bd06238b5c218121099e792b4ac39b67f7ab3e38d00b9",
      "assetIds": []
    },
    {
      "x": 134,
      "y": 339,
      "size": 1,
      "price": "1011000000000000000000",
      "reserved": "",
      "salt": "0x9db3692b56ac4ba55b6bfdbda2f6d7da7ea0020f4cf23295fb5e84748b43dbb3",
      "assetIds": []
    },
    {
      "x": 134,
      "y": 340,
      "size": 1,
      "price": "1011000000000000000000",
      "reserved": "0x7a9fe22691c811ea339d9b73150e6911a5343dca",
      "salt": "0x2d15ea121da116801941f6bb62dda83f837ae9340d549bc83606733df1b3b589",
      "assetIds": []
    },
    {
      "x": 134,
      "y": 341,
      "size": 1,
      "price": "1011000000000000000000",
      "reserved": "",
      "salt": "0x986c626f1ec899e2ebce1d49c3e6dcdaad8ad636d7356fbd22eba0bd2b52f30b",
      "assetIds": []
    },
    {
      "x": 134,
      "y": 342,
      "size": 1,
      "price": "1011000000000000000000",
      "reserved": "0x7a9fe22691c811ea339d9b73150e6911a5343dca",
      "salt": "0x5f991225606ed25f62e30aaaecc422dde191dec3f8bc1943bb95046788e73d40",
      "assetIds": []
    },
    {
      "x": 134,
      "y": 343,
      "size": 1,
      "price": "1011000000000000000000",
      "reserved": "",
      "salt": "0x52875b03d0ff2e3952114afcdd5d137289584d94c4ed60f00a37e3fe9e2d6a20",
      "assetIds": []
    },
    {
      "x": 134,
      "y": 344,
      "size": 1,
      "price": "1011000000000000000000",
      "reserved": "",
      "salt": "0x337f4cb792f9bb58fe29a6b5a71f930b909008d7165db77c514dee40f832fbae",
      "assetIds": []
    },
    {
      "x": 134,
      "y": 345,
      "size": 1,
      "price": "1011000000000000000000",
      "reserved": "",
      "salt": "0x4160a1033cb91b800650b5713a3882eeb574fdf0e1f139323827c55254037950",
      "assetIds": []
    },
    {
      "x": 135,
      "y": 321,
      "size": 1,
      "price": "1011000000000000000000",
      "reserved": "",
      "salt": "0xe8e4d0adcaba2029ba686265a5dfac19ae38539ebdc091377918e85304fc95c9",
      "assetIds": []
    },
    {
      "x": 135,
      "y": 322,
      "size": 1,
      "price": "1011000000000000000000",
      "reserved": "",
      "salt": "0xfdbd10172a600b4d7b34bdd985cc64be3e7b200a6c93068f4445802bf294e143",
      "assetIds": []
    },
    {
      "x": 135,
      "y": 323,
      "size": 1,
      "price": "1011000000000000000000",
      "reserved": "0x7a9fe22691c811ea339d9b73150e6911a5343dca",
      "salt": "0x435cade45e1c79aa679df805bf3cead8cb54d29c1c87274e12aa366665e2985e",
      "assetIds": []
    },
    {
      "x": 135,
      "y": 336,
      "size": 1,
      "price": "4683000000000000000000",
      "reserved": "",
      "salt": "0x063c4f671ad735ba4108f9fe25246a97e125daf4bc27532f3cec42576ab0a0ba",
      "assetIds": [
        "41506478881403507969696680653240014914910929820314476107906210059990541021186"
      ]
    },
    {
      "x": 135,
      "y": 337,
      "size": 1,
      "price": "4683000000000000000000",
      "reserved": "",
      "salt": "0x3af4e95cd4926f16633404b2499d7eba8c49fcf2f324cfa8b0870775fdef1362",
      "assetIds": [
        "41506478881403507969696680653240014914910929820314476107906210059990541021186"
      ]
    },
    {
      "x": 135,
      "y": 338,
      "size": 1,
      "price": "1011000000000000000000",
      "reserved": "",
      "salt": "0x15b12f3dcaddab81346a7014569b0d37b5fed2dc054cfc9a6ee2ac79896b044d",
      "assetIds": []
    },
    {
      "x": 135,
      "y": 339,
      "size": 1,
      "price": "1011000000000000000000",
      "reserved": "",
      "salt": "0xa205e49f42a4ef3c973ff44376394e253283cff4649a9cbb4a9863d8f8a1099f",
      "assetIds": []
    },
    {
      "x": 135,
      "y": 340,
      "size": 1,
      "price": "1011000000000000000000",
      "reserved": "",
      "salt": "0xc75ab71f2990c070af9c0db7d94d831266146ff40958d95243be5d5793c2088f",
      "assetIds": []
    },
    {
      "x": 135,
      "y": 341,
      "size": 1,
      "price": "1011000000000000000000",
      "reserved": "",
      "salt": "0xef88413527fa12c6cee4f645a8912ce25227c01e8fcc5d71b7f95c9177c244c7",
      "assetIds": []
    },
    {
      "x": 135,
      "y": 342,
      "size": 1,
      "price": "1011000000000000000000",
      "reserved": "",
      "salt": "0xe73f049e2ad6b3776658fd79961649e87e1dcb1b5f71902f231382527deacdd2",
      "assetIds": []
    },
    {
      "x": 135,
      "y": 343,
      "size": 1,
      "price": "1011000000000000000000",
      "reserved": "",
      "salt": "0xe1f22a952e062fe4c24c9fe3e0997126b26fe1ddf7049b050a6672f21c23a856",
      "assetIds": []
    },
    {
      "x": 135,
      "y": 344,
      "size": 1,
      "price": "1011000000000000000000",
      "reserved": "",
      "salt": "0xe943a6114f2133649cd8159adbe92c330e9d833477402d51ce8ebdc02d668b19",
      "assetIds": []
    },
    {
      "x": 135,
      "y": 345,
      "size": 1,
      "price": "1011000000000000000000",
      "reserved": "",
      "salt": "0xce05f9c9aa0106e8e79e3ae9e784331dfcf82e8f78184561042a20317cfc9796",
      "assetIds": []
    },
    {
      "x": 136,
      "y": 321,
      "size": 1,
      "price": "1011000000000000000000",
      "reserved": "",
      "salt": "0xc50f098db4a845b52af6537a7828644f0d390b3f96877673be7f6ff6fe8ed023",
      "assetIds": []
    },
    {
      "x": 136,
      "y": 322,
      "size": 1,
      "price": "1011000000000000000000",
      "reserved": "",
      "salt": "0xbce8cff9b6e8a39320e339bda10d618ace76a46104cf73307410b59c07486f14",
      "assetIds": []
    },
    {
      "x": 136,
      "y": 323,
      "size": 1,
      "price": "1011000000000000000000",
      "reserved": "",
      "salt": "0xce0b555b89e58cc00bbaf609264f026b8c972debbb4dd5ee930c4e37e179198e",
      "assetIds": []
    },
    {
      "x": 136,
      "y": 336,
      "size": 1,
      "price": "4683000000000000000000",
      "reserved": "",
      "salt": "0xe4af71660e947d7d63878583d92136b5a9ec41d5de898dbdd73650b509129d30",
      "assetIds": [
        "41506478881403507969696680653240014914910929820314476107906210059990541021186"
      ]
    },
    {
      "x": 136,
      "y": 337,
      "size": 1,
      "price": "1011000000000000000000",
      "reserved": "",
      "salt": "0x0c0daadbaf00ecef320f0135159c03bc9ed75ea5c63198a0135e9615b6b24dcf",
      "assetIds": []
    },
    {
      "x": 136,
      "y": 338,
      "size": 1,
      "price": "1011000000000000000000",
      "reserved": "0x7a9fe22691c811ea339d9b73150e6911a5343dca",
      "salt": "0x4a2a4fbffe279ab1cc21046102f8be31fb2efacc666e0988d08d5575d8887ea5",
      "assetIds": []
    },
    {
      "x": 136,
      "y": 339,
      "size": 1,
      "price": "1011000000000000000000",
      "reserved": "",
      "salt": "0x3d73626c1724825cff264dd6f009954e7b1a2a8c2b03f3634b107cc5cca737f2",
      "assetIds": []
    },
    {
      "x": 136,
      "y": 340,
      "size": 1,
      "price": "1011000000000000000000",
      "reserved": "",
      "salt": "0xf5427b6af187e84f997faec820c43badb8afd3275cfc9b9a8cfa60dbe28fad9e",
      "assetIds": []
    },
    {
      "x": 136,
      "y": 341,
      "size": 1,
      "price": "1011000000000000000000",
      "reserved": "0x7a9fe22691c811ea339d9b73150e6911a5343dca",
      "salt": "0x5a4d92d9c89bdb21617dc5e89dbef371fe0f0a510038a724375cefc3e14c4f90",
      "assetIds": []
    },
    {
      "x": 136,
      "y": 342,
      "size": 1,
      "price": "1011000000000000000000",
      "reserved": "",
      "salt": "0xfbc7a862e1369455491f1a0fa457e88ab494b24946e065c994d76078173a36c0",
      "assetIds": []
    },
    {
      "x": 136,
      "y": 343,
      "size": 1,
      "price": "1011000000000000000000",
      "reserved": "",
      "salt": "0x1af69023185d5f736649351ba171771f326b9b26ec5009326be65c3a74f8551f",
      "assetIds": []
    },
    {
      "x": 136,
      "y": 344,
      "size": 1,
      "price": "1011000000000000000000",
      "reserved": "",
      "salt": "0x90330a0691ccc51aafd1a4e09c08ea0678e0d8e2e54ea2751e05efd891f6936c",
      "assetIds": []
    },
    {
      "x": 136,
      "y": 345,
      "size": 1,
      "price": "1011000000000000000000",
      "reserved": "",
      "salt": "0x18d49da53d9f7bd42e15ef97cbb4aff14857efdb9e96ea2cb7bd549fb85fe973",
      "assetIds": []
    },
    {
      "x": 137,
      "y": 321,
      "size": 1,
      "price": "1011000000000000000000",
      "reserved": "0x7a9fe22691c811ea339d9b73150e6911a5343dca",
      "salt": "0x45242c5efa41960ddd51ba8849cd782b6c51669c99bf1f85778357ed36809720",
      "assetIds": []
    },
    {
      "x": 137,
      "y": 322,
      "size": 1,
      "price": "1011000000000000000000",
      "reserved": "",
      "salt": "0x2fd431913a6ab3f74e850f0d0a3cbd468015b55fc64e142c2f49c89b8f657b7a",
      "assetIds": []
    },
    {
      "x": 137,
      "y": 323,
      "size": 1,
      "price": "1011000000000000000000",
      "reserved": "",
      "salt": "0x709567175778d7d0efe743c03f1f7bd56a9396ecadbf8dc8c9ef931151782a3c",
      "assetIds": []
    },
    {
      "x": 137,
      "y": 336,
      "size": 1,
      "price": "4683000000000000000000",
      "reserved": "",
      "salt": "0x10e7e726ceacc664e81344a79d379208c0efbb6e81e4966d6fe4b9e6811b9feb",
      "assetIds": [
        "41506478881403507969696680653240014914910929820314476107906210059990541021186"
      ]
    },
    {
      "x": 137,
      "y": 337,
      "size": 1,
      "price": "1011000000000000000000",
      "reserved": "",
      "salt": "0xe5e39369fb5622c374bd943a0aadea216e8eb23b08b7f69afcae1df949d906de",
      "assetIds": []
    },
    {
      "x": 137,
      "y": 338,
      "size": 1,
      "price": "1011000000000000000000",
      "reserved": "",
      "salt": "0xc3a09af1977e811098ee40a3511dfbd725cf2b84389cb5789e316eafe6529991",
      "assetIds": []
    },
    {
      "x": 137,
      "y": 339,
      "size": 1,
      "price": "1011000000000000000000",
      "reserved": "",
      "salt": "0x609ad6a53a2a924b5e03c59c08aaf792567e95ea41e84b955e93f07cacff79f9",
      "assetIds": []
    },
    {
      "x": 137,
      "y": 340,
      "size": 1,
      "price": "1011000000000000000000",
      "reserved": "",
      "salt": "0x82335d6b6ce36513c5ea6e6116b42ad65c174dda5f7539063d4a8bf7433b48d8",
      "assetIds": []
    },
    {
      "x": 137,
      "y": 341,
      "size": 1,
      "price": "1011000000000000000000",
      "reserved": "",
      "salt": "0xb8d8fab008590b9e545e97bdeae6fa5f06dc62e3b9a730a733abf9e55c783732",
      "assetIds": []
    },
    {
      "x": 137,
      "y": 342,
      "size": 1,
      "price": "1011000000000000000000",
      "reserved": "",
      "salt": "0xa0e1fa619f5d7c8aae6fbf8634fbfc2730ab6cad4c6401701fa7438d10eb75e6",
      "assetIds": []
    },
    {
      "x": 137,
      "y": 343,
      "size": 1,
      "price": "1011000000000000000000",
      "reserved": "0x7a9fe22691c811ea339d9b73150e6911a5343dca",
      "salt": "0x556b9082b136cce2564367e52f3292b25cdf4c75ca8353e667c37da5163a86cd",
      "assetIds": []
    },
    {
      "x": 137,
      "y": 344,
      "size": 1,
      "price": "1011000000000000000000",
      "reserved": "",
      "salt": "0x35630f27e252aadedfb0cb75eb97f53b734bd38202ed49c361486cb6bfe2db1f",
      "assetIds": []
    },
    {
      "x": 137,
      "y": 345,
      "size": 1,
      "price": "1011000000000000000000",
      "reserved": "0x7a9fe22691c811ea339d9b73150e6911a5343dca",
      "salt": "0xa9edbe1345cde391dd603dcc205316fac3be2e1e56e3968a59a0cd201afbd218",
      "assetIds": []
    },
    {
      "x": 138,
      "y": 322,
      "size": 1,
      "price": "1011000000000000000000",
      "reserved": "",
      "salt": "0x9c4751cdc33e5f095922d3a927329b1ab85b9739f1ae9891faac2b02ae4af64d",
      "assetIds": []
    },
    {
      "x": 138,
      "y": 323,
      "size": 1,
      "price": "1011000000000000000000",
      "reserved": "",
      "salt": "0x7b2afaf9cf9125aa82c2506aee34a80350060781a0c74a361d2e90c86f1efce8",
      "assetIds": []
    },
    {
      "x": 138,
      "y": 336,
      "size": 1,
      "price": "4683000000000000000000",
      "reserved": "",
      "salt": "0x9b2116ae75048432e5dceeb42a2ad491298abb818c4c7d95a7a3911a2ecf288b",
      "assetIds": [
        "41506478881403507969696680653240014914910929820314476107906210059990541021186"
      ]
    },
    {
      "x": 138,
      "y": 337,
      "size": 1,
      "price": "1011000000000000000000",
      "reserved": "",
      "salt": "0x86071c72e2fbdda134e1715d12a9aa7252839015f129bd75d7da2b73f128fba8",
      "assetIds": []
    },
    {
      "x": 138,
      "y": 338,
      "size": 1,
      "price": "1011000000000000000000",
      "reserved": "",
      "salt": "0xbedd82ba2202b11b52623875211a2dab318726b4fe1c00df1baa729e3ffc5111",
      "assetIds": []
    },
    {
      "x": 138,
      "y": 339,
      "size": 1,
      "price": "1011000000000000000000",
      "reserved": "",
      "salt": "0x00ebcec9e9c030aef798f01f21ac517fb0dd5f75579bb5b4cdae2601dfee970d",
      "assetIds": []
    },
    {
      "x": 138,
      "y": 340,
      "size": 1,
      "price": "1011000000000000000000",
      "reserved": "0x7a9fe22691c811ea339d9b73150e6911a5343dca",
      "salt": "0x2ec9a4c69526faabeba99c45e26c8fd15ba8c87e8f09d36558760c5a72e5eddf",
      "assetIds": []
    },
    {
      "x": 138,
      "y": 341,
      "size": 1,
      "price": "1011000000000000000000",
      "reserved": "",
      "salt": "0x87070634e285476caa3be36896b5638327a76ca889b7cf468e3a5041360a0c73",
      "assetIds": []
    },
    {
      "x": 138,
      "y": 342,
      "size": 1,
      "price": "1011000000000000000000",
      "reserved": "",
      "salt": "0x8c5772d7d319140406f3af163492fbbf97859149bd436594f771e1c203f2d23b",
      "assetIds": []
    },
    {
      "x": 138,
      "y": 343,
      "size": 1,
      "price": "1011000000000000000000",
      "reserved": "",
      "salt": "0x1283a644296829aa07fd44db9529d6bab6f94311d34f8face72a798799eb23e3",
      "assetIds": []
    },
    {
      "x": 138,
      "y": 344,
      "size": 1,
      "price": "1011000000000000000000",
      "reserved": "",
      "salt": "0xcfa8237f58949cb007c61b688d7274d18eb41d0e2893cd5784ed934574458188",
      "assetIds": []
    },
    {
      "x": 138,
      "y": 345,
      "size": 1,
      "price": "1011000000000000000000",
      "reserved": "",
      "salt": "0x3d55f397ce87fead94982a617da9a6a59550e3c2f6952e8ea8db2f28969329bd",
      "assetIds": []
    },
    {
      "x": 139,
      "y": 322,
      "size": 1,
      "price": "1011000000000000000000",
      "reserved": "",
      "salt": "0xabf5085aa598939dace6b8ec7c87777205fe3d2fbaf65d31313e7b0c94ee3c4e",
      "assetIds": []
    },
    {
      "x": 139,
      "y": 323,
      "size": 1,
      "price": "1011000000000000000000",
      "reserved": "",
      "salt": "0x108c418a8ae8f91b982857d740c8cf7c4b56707c49118ab8feaa7a660f4eb09a",
      "assetIds": []
    },
    {
      "x": 139,
      "y": 336,
      "size": 1,
      "price": "4683000000000000000000",
      "reserved": "",
      "salt": "0xebe3726c4aab683aa563cb69d7fae940a7bb302e5d9f5fa13e642e88fe004875",
      "assetIds": [
        "41506478881403507969696680653240014914910929820314476107906210059990541021186"
      ]
    },
    {
      "x": 139,
      "y": 337,
      "size": 1,
      "price": "1011000000000000000000",
      "reserved": "",
      "salt": "0x56d0897cebced2ff672763c94a887b99f3ccb10dca5400aa4c0a08c26c1c6900",
      "assetIds": []
    },
    {
      "x": 139,
      "y": 338,
      "size": 1,
      "price": "1011000000000000000000",
      "reserved": "0x7a9fe22691c811ea339d9b73150e6911a5343dca",
      "salt": "0xa6d10ea70e4a56e75d94c133042d874ef3fe0082d17d0720deece507aae84dc5",
      "assetIds": []
    },
    {
      "x": 139,
      "y": 339,
      "size": 1,
      "price": "1011000000000000000000",
      "reserved": "",
      "salt": "0x8add1f8d25ca06b7cd8b94ee9eb89397608a10976cca26ad29782eae3f560963",
      "assetIds": []
    },
    {
      "x": 139,
      "y": 340,
      "size": 1,
      "price": "1011000000000000000000",
      "reserved": "",
      "salt": "0x03e30757bc1102459267fab0d64433c219c9ebc70a5893d63955c1fd80b88113",
      "assetIds": []
    },
    {
      "x": 139,
      "y": 341,
      "size": 1,
      "price": "1011000000000000000000",
      "reserved": "0x7a9fe22691c811ea339d9b73150e6911a5343dca",
      "salt": "0x27d281d6fdf726c61b3e3e4896897c2b223115317b37bd4dc5b57e6aaabd1fad",
      "assetIds": []
    },
    {
      "x": 139,
      "y": 342,
      "size": 1,
      "price": "1011000000000000000000",
      "reserved": "",
      "salt": "0x05bd7930be0a75bc2007ebf1496c17c778154be7d0bdd10ee76ee4971161ac89",
      "assetIds": []
    },
    {
      "x": 139,
      "y": 343,
      "size": 1,
      "price": "1011000000000000000000",
      "reserved": "0x7a9fe22691c811ea339d9b73150e6911a5343dca",
      "salt": "0xc99224bb0594b008a2c9e966848028e58d2df33e26d2be61e76e0d51dab82127",
      "assetIds": []
    },
    {
      "x": 139,
      "y": 344,
      "size": 1,
      "price": "1011000000000000000000",
      "reserved": "",
      "salt": "0x64b8f7d5cc39b195cafd9a4e6613b933e21e24a56bbf63391d795007d96d8d87",
      "assetIds": []
    },
    {
      "x": 139,
      "y": 345,
      "size": 1,
      "price": "1011000000000000000000",
      "reserved": "",
      "salt": "0x748b0a819bbf6446ff68564f006c354dffa09af0c4e422cdc6387ba7d0c4f681",
      "assetIds": []
    },
    {
      "x": 140,
      "y": 322,
      "size": 1,
      "price": "1011000000000000000000",
      "reserved": "",
      "salt": "0x752d3299285a1ee6620a38a052578df6d9015d913855a8491c958db844b63423",
      "assetIds": []
    },
    {
      "x": 140,
      "y": 323,
      "size": 1,
      "price": "1011000000000000000000",
      "reserved": "",
      "salt": "0xa76cff00516b30bfd730911a64808f669a179f9df22db5117d2024e37d30037f",
      "assetIds": []
    },
    {
      "x": 140,
      "y": 336,
      "size": 1,
      "price": "4683000000000000000000",
      "reserved": "",
      "salt": "0x51895a9dcbdb368d167cc105ece94fce0e73a09bf2d804df7a4cdbe2febe2f71",
      "assetIds": [
        "41506478881403507969696680653240014914910929820314476107906210059990541021186"
      ]
    },
    {
      "x": 140,
      "y": 337,
      "size": 1,
      "price": "1011000000000000000000",
      "reserved": "",
      "salt": "0xa3936e2c779f84355cee8b2108b11a3cade40dac20acf6022a273364b9b93299",
      "assetIds": []
    },
    {
      "x": 140,
      "y": 338,
      "size": 1,
      "price": "1011000000000000000000",
      "reserved": "",
      "salt": "0x4690a1ed05ea7328668c85c92086c44c0a02d8eccfc8d08abf0a562886c242cf",
      "assetIds": []
    },
    {
      "x": 140,
      "y": 339,
      "size": 1,
      "price": "1011000000000000000000",
      "reserved": "",
      "salt": "0x93ab00f09dc9ed8c4ceb10edb85c4c23db8d348413de199fa2f73a5995afca62",
      "assetIds": []
    },
    {
      "x": 140,
      "y": 340,
      "size": 1,
      "price": "1011000000000000000000",
      "reserved": "0x7a9fe22691c811ea339d9b73150e6911a5343dca",
      "salt": "0x11af32b19ec86cecf701e7ea67e7c9af2ada4033cead5d9bbd7aff2b6a55290a",
      "assetIds": []
    },
    {
      "x": 140,
      "y": 341,
      "size": 1,
      "price": "4683000000000000000000",
      "reserved": "",
      "salt": "0xb9185118288e88e76a534e764b5d9d5db00b96c1fcaca611ad164e94db831837",
      "assetIds": [
        "41506478881403507969696680653240014914910929820314476107906210059990541021186"
      ]
    },
    {
      "x": 140,
      "y": 342,
      "size": 1,
      "price": "1011000000000000000000",
      "reserved": "",
      "salt": "0x9c26b845306721105093e4de5d7455559b9b2f9a3e550e971726c6e769e7fb48",
      "assetIds": []
    },
    {
      "x": 140,
      "y": 343,
      "size": 1,
      "price": "1011000000000000000000",
      "reserved": "",
      "salt": "0x9003e9d93cc3527b0fe3c82e82d883002b0af8832e9916105b3b323d6a69517d",
      "assetIds": []
    },
    {
      "x": 140,
      "y": 344,
      "size": 1,
      "price": "1011000000000000000000",
      "reserved": "",
      "salt": "0x68bf17bd1c438ba1bf6f54eddb84db4e7ff85876b44a0097834ed658776995ad",
      "assetIds": []
    },
    {
      "x": 140,
      "y": 345,
      "size": 1,
      "price": "1011000000000000000000",
      "reserved": "0x7a9fe22691c811ea339d9b73150e6911a5343dca",
      "salt": "0xeb1e6ddcf8ebf24b7e6e89404a1fc39704241c364d43be87623717956248899f",
      "assetIds": []
    },
    {
      "x": 141,
      "y": 322,
      "size": 1,
      "price": "1011000000000000000000",
      "reserved": "",
      "salt": "0x6876305c3ef7518b739ab6f4e178d17a95461e83b42ecc3b00750467ca05bfc9",
      "assetIds": []
    },
    {
      "x": 141,
      "y": 323,
      "size": 1,
      "price": "1011000000000000000000",
      "reserved": "",
      "salt": "0xb03d38328f2d4d1a856563530e29d87060fccbed01e5d8a6559bc726a0728833",
      "assetIds": []
    },
    {
      "x": 141,
      "y": 336,
      "size": 1,
      "price": "4683000000000000000000",
      "reserved": "",
      "salt": "0xf000f278b9ad1b4da4eb546233f8989ce1299fef74f57ad20da9b01c2c89798f",
      "assetIds": [
        "41506478881403507969696680653240014914910929820314476107906210059990541021186"
      ]
    },
    {
      "x": 141,
      "y": 337,
      "size": 1,
      "price": "4683000000000000000000",
      "reserved": "",
      "salt": "0x4880944698eeb45e47c591734711aae2c5deb7ae9120a1414c647b74b25f2933",
      "assetIds": [
        "41506478881403507969696680653240014914910929820314476107906210059990541021186"
      ]
    },
    {
      "x": 141,
      "y": 338,
      "size": 1,
      "price": "1011000000000000000000",
      "reserved": "",
      "salt": "0x09dd75eb78ec5c92c428a71b8a062b63f14c623763f70b0a8d8114ed7b56feb0",
      "assetIds": []
    },
    {
      "x": 141,
      "y": 339,
      "size": 1,
      "price": "1011000000000000000000",
      "reserved": "",
      "salt": "0x3705dfa4bf3e6cdfbd8d52175e0e99098869eb5ad979439a60872822456f81ef",
      "assetIds": []
    },
    {
      "x": 141,
      "y": 340,
      "size": 1,
      "price": "1011000000000000000000",
      "reserved": "",
      "salt": "0xcdcb99d1dd8fc87bc604c419d9d4e7e43290a8781e524386c410433e63fff2ad",
      "assetIds": []
    },
    {
      "x": 141,
      "y": 341,
      "size": 1,
      "price": "4683000000000000000000",
      "reserved": "",
      "salt": "0x0d58ad389dafb4c33948cb2205aeaccd8e586797799dba48f3e15f71eaff808d",
      "assetIds": [
        "41506478881403507969696680653240014914910929820314476107906210059990541021186"
      ]
    },
    {
      "x": 141,
      "y": 345,
      "size": 1,
      "price": "1011000000000000000000",
      "reserved": "",
      "salt": "0xa8646c2b015cff25ad7d71081ff04e2d9b5328280613a9c9db3bb55510815764",
      "assetIds": []
    },
    {
      "x": 142,
      "y": 322,
      "size": 1,
      "price": "1011000000000000000000",
      "reserved": "0x7a9fe22691c811ea339d9b73150e6911a5343dca",
      "salt": "0x4238dabf1a1db8a9c8df1278f13c52c87d97b881ea9fec26aee2dd6b56843540",
      "assetIds": []
    },
    {
      "x": 142,
      "y": 323,
      "size": 1,
      "price": "1011000000000000000000",
      "reserved": "",
      "salt": "0xbfaa78152bb7b7a141e27b6c0c0ee26939fcdb9987fc20d57835910314184356",
      "assetIds": []
    },
    {
      "x": 142,
      "y": 336,
      "size": 1,
      "price": "4683000000000000000000",
      "reserved": "",
      "salt": "0x7cdc3beb965f1a907f3728e460934800cf90b66a9e39c9f5ef2a9809a8d393f2",
      "assetIds": [
        "41506478881403507969696680653240014914910929820314476107906210059990541021186"
      ]
    },
    {
      "x": 142,
      "y": 337,
      "size": 1,
      "price": "1011000000000000000000",
      "reserved": "0x7a9fe22691c811ea339d9b73150e6911a5343dca",
      "salt": "0x3f22d5b83ec3c8300cadab4689ffcbfc6ca7f2ff88115132a421b2acd4c7aba1",
      "assetIds": []
    },
    {
      "x": 142,
      "y": 338,
      "size": 1,
      "price": "1011000000000000000000",
      "reserved": "",
      "salt": "0xe916ec5a91308cf8ad9b9deb421ea283bff0682b05b263e4ab2598f0317a535c",
      "assetIds": []
    },
    {
      "x": 142,
      "y": 339,
      "size": 1,
      "price": "1011000000000000000000",
      "reserved": "0x7a9fe22691c811ea339d9b73150e6911a5343dca",
      "salt": "0x7f3425e53acfa475bc0023a1beaaafbee81f776eb9a873fe13865f73ab486a0b",
      "assetIds": []
    },
    {
      "x": 142,
      "y": 340,
      "size": 1,
      "price": "1011000000000000000000",
      "reserved": "",
      "salt": "0xd605b8ab06497019ecf0c3b464e1020471cbf8cf8fbe1b5c8ff875251289ce95",
      "assetIds": []
    },
    {
      "x": 142,
      "y": 341,
      "size": 1,
      "price": "4683000000000000000000",
      "reserved": "",
      "salt": "0x14dfe70a141243f4562585e16a90eabe2ded1253c9fb31e0c776da438b5ada64",
      "assetIds": [
        "41506478881403507969696680653240014914910929820314476107906210059990541021186"
      ]
    },
    {
      "x": 142,
      "y": 345,
      "size": 1,
      "price": "1011000000000000000000",
      "reserved": "",
      "salt": "0x451e24fbe69a2be9fc3565b51d0053b6d4f7d20bbbee83f2bce5d8c6cde01211",
      "assetIds": []
    },
    {
      "x": 143,
      "y": 322,
      "size": 1,
      "price": "1011000000000000000000",
      "reserved": "",
      "salt": "0x5c22378bd5a61e3c6b6d134eaddd5105527005ee05f3bb22d729f07b01b7e4d0",
      "assetIds": []
    },
    {
      "x": 143,
      "y": 323,
      "size": 1,
      "price": "1011000000000000000000",
      "reserved": "",
      "salt": "0xa92ae910ddda79e11dbfb19163988deb8026330a6e8b9da8897db2572c86404a",
      "assetIds": []
    },
    {
      "x": 143,
      "y": 336,
      "size": 1,
      "price": "4683000000000000000000",
      "reserved": "",
      "salt": "0xfa57e60b68112f1af5cbb91067be08cb1e53c885e765ed4bd2cc96788e7b8a96",
      "assetIds": [
        "41506478881403507969696680653240014914910929820314476107906210059990541021186"
      ]
    },
    {
      "x": 143,
      "y": 337,
      "size": 1,
      "price": "4683000000000000000000",
      "reserved": "",
      "salt": "0x398e1bdb7b528af901d39c27522aa58c2e4b9b00d31134399e08a63e6dcf87be",
      "assetIds": [
        "41506478881403507969696680653240014914910929820314476107906210059990541021186"
      ]
    },
    {
      "x": 143,
      "y": 338,
      "size": 1,
      "price": "1011000000000000000000",
      "reserved": "",
      "salt": "0x96737388b3af914797ba8436c79085432ec8dd99ffe28c0b0d75d5d3ad797897",
      "assetIds": []
    },
    {
      "x": 143,
      "y": 339,
      "size": 1,
      "price": "1011000000000000000000",
      "reserved": "",
      "salt": "0xacdf875f4b5789296b47f75d933a759d4b39fc8a029b5a15a12394ccde0e204c",
      "assetIds": []
    },
    {
      "x": 143,
      "y": 340,
      "size": 1,
      "price": "1011000000000000000000",
      "reserved": "",
      "salt": "0x26066ba03a41c97eae1a5fb99c5746713abda7f2f89285398129af94d96eb2ae",
      "assetIds": []
    },
    {
      "x": 143,
      "y": 341,
      "size": 1,
      "price": "4683000000000000000000",
      "reserved": "",
      "salt": "0x000fb7111713641291abc1166d9b24ca98c746b9ee792544800c7914bf3ee95c",
      "assetIds": [
        "41506478881403507969696680653240014914910929820314476107906210059990541021186"
      ]
    },
    {
      "x": 143,
      "y": 345,
      "size": 1,
      "price": "1011000000000000000000",
      "reserved": "0x7a9fe22691c811ea339d9b73150e6911a5343dca",
      "salt": "0xe9aede06181b2640baa8d7bc60677c31e375fa71e6eab61d0661ce13e8e350f1",
      "assetIds": []
    },
    {
      "x": 144,
      "y": 322,
      "size": 1,
      "price": "1011000000000000000000",
      "reserved": "",
      "salt": "0x6b84955e0fbafb0e4c310f1a7b846c52dc3b83f1842d5cf17480dd0c3dce9384",
      "assetIds": []
    },
    {
      "x": 144,
      "y": 323,
      "size": 1,
      "price": "1011000000000000000000",
      "reserved": "",
      "salt": "0xd9a660243132ddf57ddc39d85bdd5ca436530205572d9fdc2e216599434dbd7a",
      "assetIds": []
    },
    {
      "x": 144,
      "y": 330,
      "size": 1,
      "price": "4683000000000000000000",
      "reserved": "",
      "salt": "0x2a8e7a3f947ddc71de55ffc4ce4d522121755f8228b1bd4b7f484216d9f57933",
      "assetIds": [
        "41506478881403507969696680653240014914910929820314476107906210059990541021186"
      ]
    },
    {
      "x": 144,
      "y": 331,
      "size": 1,
      "price": "4683000000000000000000",
      "reserved": "",
      "salt": "0x3228977a7205c89828cd48f30c9ea0c2c2b5b2e8f956eabcb5000e296845b4b9",
      "assetIds": [
        "41506478881403507969696680653240014914910929820314476107906210059990541021186"
      ]
    },
    {
      "x": 144,
      "y": 332,
      "size": 1,
      "price": "4683000000000000000000",
      "reserved": "",
      "salt": "0xc1c0f9ad36a2f12e2cb1b00d37fcb93bb8d4219146cba5c2471d3271a48926b9",
      "assetIds": [
        "41506478881403507969696680653240014914910929820314476107906210059990541021186"
      ]
    },
    {
      "x": 144,
      "y": 333,
      "size": 1,
      "price": "4683000000000000000000",
      "reserved": "",
      "salt": "0x614ea1dcf5dad14d51d7b50d2e35bdf9f430c5c441b12b67e473d15494efc5ef",
      "assetIds": [
        "41506478881403507969696680653240014914910929820314476107906210059990541021186"
      ]
    },
    {
      "x": 144,
      "y": 334,
      "size": 1,
      "price": "4683000000000000000000",
      "reserved": "",
      "salt": "0x1c83c7489acd52daa1ad18808019a02ff0e900f8c78668f155aaf7d17a86cb4c",
      "assetIds": [
        "41506478881403507969696680653240014914910929820314476107906210059990541021186"
      ]
    },
    {
      "x": 144,
      "y": 335,
      "size": 1,
      "price": "4683000000000000000000",
      "reserved": "",
      "salt": "0x4b34d285b6663c54ca21d0d2a4e9686203613b2ecb715755fd1f0d303a863489",
      "assetIds": [
        "41506478881403507969696680653240014914910929820314476107906210059990541021186"
      ]
    },
    {
      "x": 144,
      "y": 336,
      "size": 1,
      "price": "1011000000000000000000",
      "reserved": "",
      "salt": "0xca02f5efbbe8d7478e4063ed602722d202de9ec722ceb56b3fc9ee52c9abe7bc",
      "assetIds": []
    },
    {
      "x": 144,
      "y": 337,
      "size": 1,
      "price": "1011000000000000000000",
      "reserved": "",
      "salt": "0x627e334fdc8093647953fe9bf3aa5668c849003f36b816ce77071d539eb800b4",
      "assetIds": []
    },
    {
      "x": 144,
      "y": 338,
      "size": 1,
      "price": "1011000000000000000000",
      "reserved": "",
      "salt": "0x607fdd552a585199499cd955ce0743ab492435124b1aafbc41b45c859f7340bf",
      "assetIds": []
    },
    {
      "x": 144,
      "y": 339,
      "size": 1,
      "price": "1011000000000000000000",
      "reserved": "",
      "salt": "0x500daca5f13a1a48e8124df8408417d5261e5068c6b55a7e70bf1161863585b1",
      "assetIds": []
    },
    {
      "x": 144,
      "y": 340,
      "size": 1,
      "price": "1011000000000000000000",
      "reserved": "0x7a9fe22691c811ea339d9b73150e6911a5343dca",
      "salt": "0xa3cd220ecf5d077dc9d60fa46e86388a9085303e4340fbd8e1ff38431583cb07",
      "assetIds": []
    },
    {
      "x": 144,
      "y": 341,
      "size": 1,
      "price": "4683000000000000000000",
      "reserved": "",
      "salt": "0x1a074659dc00cd7e42a3e59b726f7625ce01dca2199d3db4a382d1f13d0aabc8",
      "assetIds": [
        "41506478881403507969696680653240014914910929820314476107906210059990541021186"
      ]
    },
    {
      "x": 144,
      "y": 342,
      "size": 1,
      "price": "4683000000000000000000",
      "reserved": "",
      "salt": "0x1388558facdc321eeaae72e79e8326a1b2e29aaec0e7a3a00cff3e64b2f95a0d",
      "assetIds": [
        "41506478881403507969696680653240014914910929820314476107906210059990541021186"
      ]
    },
    {
      "x": 144,
      "y": 343,
      "size": 1,
      "price": "4683000000000000000000",
      "reserved": "",
      "salt": "0x6524330d34cc99dd6f81c3ea71de9822da502a4145d58fef21207ab5f6e6f2b4",
      "assetIds": [
        "41506478881403507969696680653240014914910929820314476107906210059990541021186"
      ]
    },
    {
      "x": 144,
      "y": 344,
      "size": 1,
      "price": "4683000000000000000000",
      "reserved": "",
      "salt": "0x68b1ba147456777a85f9ddff5b6280f849809ede4ce33e28e19405e46acc48eb",
      "assetIds": [
        "41506478881403507969696680653240014914910929820314476107906210059990541021186"
      ]
    },
    {
      "x": 144,
      "y": 345,
      "size": 1,
      "price": "1011000000000000000000",
      "reserved": "",
      "salt": "0x63568a35b57fd63095fcd968865e7e09511f25ecbf42fffdd3ff00abe83bff4f",
      "assetIds": []
    },
    {
      "x": 145,
      "y": 322,
      "size": 1,
      "price": "1011000000000000000000",
      "reserved": "0x7a9fe22691c811ea339d9b73150e6911a5343dca",
      "salt": "0x479b9eb00ae0981a311dec926f69fdf3e26c85bee1f46e8ab9734c58182a1cb1",
      "assetIds": []
    },
    {
      "x": 145,
      "y": 323,
      "size": 1,
      "price": "1011000000000000000000",
      "reserved": "",
      "salt": "0xace1bc502d95507a1a320a24a9df3f506359444f1750a68f5e3718df53e82df1",
      "assetIds": []
    },
    {
      "x": 145,
      "y": 330,
      "size": 1,
      "price": "4683000000000000000000",
      "reserved": "",
      "salt": "0x015abd7a7901bd100b43674eb142a6654d719dc768740ecf5ddbe84af47ba759",
      "assetIds": [
        "41506478881403507969696680653240014914910929820314476107906210059990541021186"
      ]
    },
    {
      "x": 145,
      "y": 331,
      "size": 1,
      "price": "1011000000000000000000",
      "reserved": "0x7a9fe22691c811ea339d9b73150e6911a5343dca",
      "salt": "0x355f1eaa4906cd9c415ce130475e2f3d2e949bc82335ab7a8175f6831cff14e1",
      "assetIds": []
    },
    {
      "x": 145,
      "y": 332,
      "size": 1,
      "price": "1011000000000000000000",
      "reserved": "",
      "salt": "0xf4eac443e609abfe42452ffa9c0d9d2e691776fe44c1052409af498a6627fb3f",
      "assetIds": []
    },
    {
      "x": 145,
      "y": 333,
      "size": 1,
      "price": "1011000000000000000000",
      "reserved": "0x7a9fe22691c811ea339d9b73150e6911a5343dca",
      "salt": "0xcc4b68141ab501e921d4d6eb084a6ad860af7004eed5866abc0251177c6d7edd",
      "assetIds": []
    },
    {
      "x": 145,
      "y": 334,
      "size": 1,
      "price": "1011000000000000000000",
      "reserved": "",
      "salt": "0x9dc4f1e48421c73c7373a70d1e869cadbe7474997bd475ab95cfb0cb8d1ef9fe",
      "assetIds": []
    },
    {
      "x": 145,
      "y": 335,
      "size": 1,
      "price": "1011000000000000000000",
      "reserved": "0x7a9fe22691c811ea339d9b73150e6911a5343dca",
      "salt": "0xa06a48f80dad40cdf93070506338278fca9b4405d418423eb707a2dcfee88923",
      "assetIds": []
    },
    {
      "x": 145,
      "y": 336,
      "size": 1,
      "price": "1011000000000000000000",
      "reserved": "",
      "salt": "0x05c572f652f639bfcfabacc034b32b48556581aa131fd17731ca8e0ac3f648d3",
      "assetIds": []
    },
    {
      "x": 145,
      "y": 337,
      "size": 1,
      "price": "1011000000000000000000",
      "reserved": "0x7a9fe22691c811ea339d9b73150e6911a5343dca",
      "salt": "0xacf73bbe6b36733e6533adaba184ad597ef93438cb9fd2f5faf14be3c638d483",
      "assetIds": []
    },
    {
      "x": 145,
      "y": 338,
      "size": 1,
      "price": "1011000000000000000000",
      "reserved": "",
      "salt": "0x5fb348d35a4e75da25528a5d7154330ee63b8d0aae521920b2cf2b1e791881b5",
      "assetIds": []
    },
    {
      "x": 145,
      "y": 339,
      "size": 1,
      "price": "1011000000000000000000",
      "reserved": "0x7a9fe22691c811ea339d9b73150e6911a5343dca",
      "salt": "0xe4979cdf78fca0e478be62eb8cca5434109e1f454c9218f540b6bbf135c86c08",
      "assetIds": []
    },
    {
      "x": 145,
      "y": 340,
      "size": 1,
      "price": "1011000000000000000000",
      "reserved": "",
      "salt": "0x812c18d0768ff7610891dc138051ce5a9190524d392bd23a61ae10054801f292",
      "assetIds": []
    },
    {
      "x": 145,
      "y": 341,
      "size": 1,
      "price": "1011000000000000000000",
      "reserved": "0x7a9fe22691c811ea339d9b73150e6911a5343dca",
      "salt": "0xe6ee1b630ebd6ea557edb5444b222286bc7c87d1723fb20d1cf75923ab8a2e80",
      "assetIds": []
    },
    {
      "x": 145,
      "y": 342,
      "size": 1,
      "price": "1011000000000000000000",
      "reserved": "",
      "salt": "0x48c39a0470f47e941bfa6597f4ba7140747fb889b05a8dccebe9abe7b591d208",
      "assetIds": []
    },
    {
      "x": 145,
      "y": 343,
      "size": 1,
      "price": "1011000000000000000000",
      "reserved": "0x7a9fe22691c811ea339d9b73150e6911a5343dca",
      "salt": "0xd73ab3da8a06b8369961e006fc5899fc7874682041c80f961a66c6517a7c32d9",
      "assetIds": []
    },
    {
      "x": 145,
      "y": 344,
      "size": 1,
      "price": "1011000000000000000000",
      "reserved": "",
      "salt": "0xeb85cd91ac2922beb7bc1b3d852a8a50526e2a11395ead90871ec283b6686a24",
      "assetIds": []
    },
    {
      "x": 145,
      "y": 345,
      "size": 1,
      "price": "1011000000000000000000",
      "reserved": "0x7a9fe22691c811ea339d9b73150e6911a5343dca",
      "salt": "0x2bb4c91ce6c38718833877d499354358e2bf8ef7d80243ae27bebb6229b22e1d",
      "assetIds": []
    },
    {
      "x": 146,
      "y": 322,
      "size": 1,
      "price": "1011000000000000000000",
      "reserved": "",
      "salt": "0xaecd2f21cc7afdeeda63e9b76cded2c45d25f805ac73e5075c801d0d4933483c",
      "assetIds": []
    },
    {
      "x": 146,
      "y": 323,
      "size": 1,
      "price": "1011000000000000000000",
      "reserved": "",
      "salt": "0xcf79a1d15f2f901b967ad3f261c7746bb55bf1019f992bcd02ef90d13cb31bd2",
      "assetIds": []
    },
    {
      "x": 146,
      "y": 330,
      "size": 1,
      "price": "4683000000000000000000",
      "reserved": "",
      "salt": "0x1995074788d9ddd06d7a023bab6c99d74805b42afc747e101620f2a65b3a5672",
      "assetIds": [
        "41506478881403507969696680653240014914910929820314476107906210059990541021186"
      ]
    },
    {
      "x": 146,
      "y": 331,
      "size": 1,
      "price": "4683000000000000000000",
      "reserved": "",
      "salt": "0xbd71513b7befb13d58f544011bedd686715d2e079fb30f3bb11f6b03fd184ed6",
      "assetIds": [
        "41506478881403507969696680653240014914910929820314476107906210059990541021186"
      ]
    },
    {
      "x": 146,
      "y": 332,
      "size": 1,
      "price": "1011000000000000000000",
      "reserved": "",
      "salt": "0xaa7ec4dc563dba83b220f14745c54ef248f17b997b5f80b56189b7899be663bd",
      "assetIds": []
    },
    {
      "x": 146,
      "y": 333,
      "size": 1,
      "price": "1011000000000000000000",
      "reserved": "",
      "salt": "0x8c8d39d2883fefd440bcf80c72034b92ca1dbe72eb6e7dcef0c8d872670319f3",
      "assetIds": []
    },
    {
      "x": 146,
      "y": 334,
      "size": 1,
      "price": "1011000000000000000000",
      "reserved": "0x7a9fe22691c811ea339d9b73150e6911a5343dca",
      "salt": "0xa88618bf51d6d71d831251faf4346624a8fb801d6a230c3370f093f3a70a76da",
      "assetIds": []
    },
    {
      "x": 146,
      "y": 335,
      "size": 1,
      "price": "1011000000000000000000",
      "reserved": "",
      "salt": "0x889b26911bd7b1f230ee48eb67fdc437c22d20bd3f292cf088056189ed6d9501",
      "assetIds": []
    },
    {
      "x": 146,
      "y": 336,
      "size": 1,
      "price": "1011000000000000000000",
      "reserved": "",
      "salt": "0xd548685bc3b3d154b9bde91c40d0b14a5749cc98771f0a6aa43fa0d8205c3446",
      "assetIds": []
    },
    {
      "x": 146,
      "y": 337,
      "size": 1,
      "price": "1011000000000000000000",
      "reserved": "",
      "salt": "0xcfe99888dd59dd6a75d63809e0dcbb41f37d7f3799dcc815cb3d0a2f6c36ac3e",
      "assetIds": []
    },
    {
      "x": 146,
      "y": 338,
      "size": 1,
      "price": "1011000000000000000000",
      "reserved": "",
      "salt": "0x292705219d6b83f0274a904e9990cca544b4daf2f0565bd9973f84c252557943",
      "assetIds": []
    },
    {
      "x": 146,
      "y": 339,
      "size": 1,
      "price": "1011000000000000000000",
      "reserved": "",
      "salt": "0x37b2d16b604aac7d10f0c3e43651264fdf6773a28ab05d19b9f55336ceffd1bb",
      "assetIds": []
    },
    {
      "x": 146,
      "y": 340,
      "size": 1,
      "price": "1011000000000000000000",
      "reserved": "",
      "salt": "0x41b4b5138498530449070ddb938ccb3760a23367f15233dd5adc7c6484675956",
      "assetIds": []
    },
    {
      "x": 146,
      "y": 341,
      "size": 1,
      "price": "1011000000000000000000",
      "reserved": "",
      "salt": "0xedf06eaffef6dd996287d0722457cbb020d46a048c78a873c3c6165ecf07cf51",
      "assetIds": []
    },
    {
      "x": 146,
      "y": 342,
      "size": 1,
      "price": "1011000000000000000000",
      "reserved": "",
      "salt": "0x8c204750270b1bf31c41fd884d0ed39a9d8342f7ec664e5ec7123b44c56d281b",
      "assetIds": []
    },
    {
      "x": 146,
      "y": 343,
      "size": 1,
      "price": "1011000000000000000000",
      "reserved": "",
      "salt": "0xd88de0359a5ba1f5aac19b0196ee357afae5fac6f2a3ce47314ad65d80fa4e62",
      "assetIds": []
    },
    {
      "x": 146,
      "y": 344,
      "size": 1,
      "price": "1011000000000000000000",
      "reserved": "",
      "salt": "0x6fb38ddeb08934ffd93181ba0fa7281485e3412e069237af91a860696af94dc0",
      "assetIds": []
    },
    {
      "x": 146,
      "y": 345,
      "size": 1,
      "price": "1011000000000000000000",
      "reserved": "",
      "salt": "0x15468fc44079d8de4d06322f62d56fc9471924530e72b7ca3b56f003b565a706",
      "assetIds": []
    },
    {
      "x": 147,
      "y": 322,
      "size": 1,
      "price": "1011000000000000000000",
      "reserved": "",
      "salt": "0x8692876f933f17d9ab86bfe2019b50da4856500d6eff64b50c6ce0885ac2e045",
      "assetIds": []
    },
    {
      "x": 147,
      "y": 323,
      "size": 1,
      "price": "1011000000000000000000",
      "reserved": "",
      "salt": "0x4d9dc777f036163247c18da470e902c7a97b85e9c6ba096ccabbb498db963ac2",
      "assetIds": []
    },
    {
      "x": 147,
      "y": 330,
      "size": 1,
      "price": "4683000000000000000000",
      "reserved": "",
      "salt": "0x992bf0c9f2baabeb2ecf9936324cb3f96d997151b7bd7137aca884a318b2a0ee",
      "assetIds": [
        "41506478881403507969696680653240014914910929820314476107906210059990541021186"
      ]
    },
    {
      "x": 147,
      "y": 331,
      "size": 1,
      "price": "1011000000000000000000",
      "reserved": "0x7a9fe22691c811ea339d9b73150e6911a5343dca",
      "salt": "0x263a346f0a1ee83e361e2afdc79a0a38cee05553235a9c326f003376e531bb9e",
      "assetIds": []
    },
    {
      "x": 147,
      "y": 332,
      "size": 1,
      "price": "1011000000000000000000",
      "reserved": "",
      "salt": "0x4d5b54c8c17f67434be46b16bb6f3cc614dde52d2ace24f4bd7dac0ec0261508",
      "assetIds": []
    },
    {
      "x": 147,
      "y": 333,
      "size": 1,
      "price": "1011000000000000000000",
      "reserved": "",
      "salt": "0x4d83d18d934ebaa14820fa9dcbd156bfe7f088d1b5e5425562c077554ce5a858",
      "assetIds": []
    },
    {
      "x": 147,
      "y": 334,
      "size": 1,
      "price": "1011000000000000000000",
      "reserved": "",
      "salt": "0xfe137ebc618d1aec56a3e2ff9f395d8e5334573a6d8b51684cc5ee62487e3a9d",
      "assetIds": []
    },
    {
      "x": 147,
      "y": 335,
      "size": 1,
      "price": "1011000000000000000000",
      "reserved": "",
      "salt": "0xecd5de9a119de270771d5c4381ee37d5e8f65ff95f7cf67ee9001d6d5a117c36",
      "assetIds": []
    },
    {
      "x": 147,
      "y": 336,
      "size": 1,
      "price": "1011000000000000000000",
      "reserved": "0x7a9fe22691c811ea339d9b73150e6911a5343dca",
      "salt": "0x15b50cf476ad77416eda0bb50edcfcf0c9b95efa9ada8ffa34ce126a44a4034e",
      "assetIds": []
    },
    {
      "x": 147,
      "y": 337,
      "size": 1,
      "price": "1011000000000000000000",
      "reserved": "",
      "salt": "0x7b0f5b9ffebede51c8846583b7cd24ee5c66692c9763821ea1fcd016c66fc8f5",
      "assetIds": []
    },
    {
      "x": 147,
      "y": 338,
      "size": 1,
      "price": "1011000000000000000000",
      "reserved": "0x7a9fe22691c811ea339d9b73150e6911a5343dca",
      "salt": "0x18d6da027688c9ed819cf5cf221145c8c043a512f9a29e554ae39534f86eb72f",
      "assetIds": []
    },
    {
      "x": 147,
      "y": 339,
      "size": 1,
      "price": "1011000000000000000000",
      "reserved": "",
      "salt": "0x93464ed7547e8ea05f81ba45ab78d4d522cb3f458c87fb0ca2d623b135f62f0a",
      "assetIds": []
    },
    {
      "x": 147,
      "y": 340,
      "size": 1,
      "price": "1011000000000000000000",
      "reserved": "0x7a9fe22691c811ea339d9b73150e6911a5343dca",
      "salt": "0x8f6ea9777569f3359a88cf8440af46e9eee702262a01c9e29cc44be82cd1ee7e",
      "assetIds": []
    },
    {
      "x": 147,
      "y": 341,
      "size": 1,
      "price": "1011000000000000000000",
      "reserved": "",
      "salt": "0x7e882a33ecb7b5f0ec4f9c874d6c9da6af24e64fdd0c8c8d6acdcf888ae17ead",
      "assetIds": []
    },
    {
      "x": 147,
      "y": 342,
      "size": 1,
      "price": "1011000000000000000000",
      "reserved": "",
      "salt": "0x7c69f53f619f9be7aa0d914e15f04bb416ca028d9fdd9e2fdafde4c1556ca099",
      "assetIds": []
    },
    {
      "x": 147,
      "y": 343,
      "size": 1,
      "price": "1011000000000000000000",
      "reserved": "0x7a9fe22691c811ea339d9b73150e6911a5343dca",
      "salt": "0x4a8afb45f3be553ede59b0fa9856ae7c117892bcb781318bd9d9d11e5dd20eac",
      "assetIds": []
    },
    {
      "x": 147,
      "y": 344,
      "size": 1,
      "price": "1011000000000000000000",
      "reserved": "",
      "salt": "0xafea7703b6de9d667d23594f7e07e09cd6d0e9c3a6b8bc69f3bcc8a7044c31fa",
      "assetIds": []
    },
    {
      "x": 147,
      "y": 345,
      "size": 1,
      "price": "1011000000000000000000",
      "reserved": "",
      "salt": "0x6fce9afe3e47973f266aff4c1d058d55af3f6fee3b93a26bfa77efb671094866",
      "assetIds": []
    },
    {
      "x": 147,
      "y": 346,
      "size": 1,
      "price": "1011000000000000000000",
      "reserved": "",
      "salt": "0xbdb65219e5d678239cebac1e408f638d9c7778b729a9fd398447ab333178769c",
      "assetIds": []
    },
    {
      "x": 147,
      "y": 347,
      "size": 1,
      "price": "1011000000000000000000",
      "reserved": "",
      "salt": "0xdcd99dd4026955f112e67a1f9d8c0193616a2dcc957273feb34ac407ac0e46f8",
      "assetIds": []
    },
    {
      "x": 147,
      "y": 348,
      "size": 1,
      "price": "1011000000000000000000",
      "reserved": "",
      "salt": "0x0f9457849b8ed11db69f1963fb19d58da975640eea37707f76b4d02c87e62552",
      "assetIds": []
    },
    {
      "x": 147,
      "y": 349,
      "size": 1,
      "price": "1011000000000000000000",
      "reserved": "0x7a9fe22691c811ea339d9b73150e6911a5343dca",
      "salt": "0xe12849da86c45983a3dcea7f2d251e66727cf80287c6f4eb2efc6151de157ac8",
      "assetIds": []
    },
    {
      "x": 147,
      "y": 350,
      "size": 1,
      "price": "1011000000000000000000",
      "reserved": "",
      "salt": "0x7c1f9d08cdc3220b444f51e8029ee4345aabe5ad620865880923023b36e03552",
      "assetIds": []
    },
    {
      "x": 148,
      "y": 322,
      "size": 1,
      "price": "1011000000000000000000",
      "reserved": "",
      "salt": "0xdc573b53e03e52fb81c45b68d47bb4e744ed0b3de32ddd2074fe353a879e8b37",
      "assetIds": []
    },
    {
      "x": 148,
      "y": 323,
      "size": 1,
      "price": "1011000000000000000000",
      "reserved": "",
      "salt": "0x6ea84287a922f64b84eb1578ba58259571a1dc7e0cd86ba83db3718517241614",
      "assetIds": []
    },
    {
      "x": 148,
      "y": 330,
      "size": 1,
      "price": "4683000000000000000000",
      "reserved": "",
      "salt": "0xa3b7f8115f9e89b7030be4be42afbfe0090def1560aaeeb992b20bd2500b0058",
      "assetIds": [
        "41506478881403507969696680653240014914910929820314476107906210059990541021186"
      ]
    },
    {
      "x": 148,
      "y": 331,
      "size": 1,
      "price": "1011000000000000000000",
      "reserved": "",
      "salt": "0xce5049fcca6113be1a03ef3ed219cd7b0da7336eabcf70ba43c0683b508657ad",
      "assetIds": []
    },
    {
      "x": 148,
      "y": 332,
      "size": 1,
      "price": "1011000000000000000000",
      "reserved": "",
      "salt": "0x6e2204ced2f780f508f7638a34a7b19efd4129b3dc2998cc5986c2ea47cb275f",
      "assetIds": []
    },
    {
      "x": 148,
      "y": 333,
      "size": 1,
      "price": "1011000000000000000000",
      "reserved": "",
      "salt": "0x9684e046ea418ece9c19bc77f3e97a9c3370f192a00335c77163e4719be24024",
      "assetIds": []
    },
    {
      "x": 148,
      "y": 334,
      "size": 1,
      "price": "1011000000000000000000",
      "reserved": "0x7a9fe22691c811ea339d9b73150e6911a5343dca",
      "salt": "0x2b0b568784ce90857a4a815eda6205b1be54cb775ecc13e57112fc9fbc37ca5d",
      "assetIds": []
    },
    {
      "x": 148,
      "y": 335,
      "size": 1,
      "price": "1011000000000000000000",
      "reserved": "",
      "salt": "0xda156bbaaf784e218dce455218ea06fa6e83877852a5c3002d364354e8516b68",
      "assetIds": []
    },
    {
      "x": 148,
      "y": 336,
      "size": 1,
      "price": "4683000000000000000000",
      "reserved": "",
      "salt": "0x77b51c80b9c7fe94444a24e333b349999d2177fba62ad1aa2c60120059fe28b9",
      "assetIds": [
        "41506478881403507969696680653240014914910929820314476107906210059990541021186"
      ]
    },
    {
      "x": 148,
      "y": 337,
      "size": 1,
      "price": "4683000000000000000000",
      "reserved": "",
      "salt": "0x81310b64757c5fc9baf16e433dd718c557b103cd34346ae0c5252050bb695f56",
      "assetIds": [
        "41506478881403507969696680653240014914910929820314476107906210059990541021186"
      ]
    },
    {
      "x": 148,
      "y": 338,
      "size": 1,
      "price": "4683000000000000000000",
      "reserved": "",
      "salt": "0xc3b598001cebfdf49a2e0bac6f29009114fbc012131a593c8c0ccebf68a8e6ea",
      "assetIds": [
        "41506478881403507969696680653240014914910929820314476107906210059990541021186"
      ]
    },
    {
      "x": 148,
      "y": 339,
      "size": 1,
      "price": "1011000000000000000000",
      "reserved": "",
      "salt": "0xfa785697f48ee4ee27239e99c5cf462cc6b6400757bb2e6c6590187cf7afbfa6",
      "assetIds": []
    },
    {
      "x": 148,
      "y": 340,
      "size": 1,
      "price": "1011000000000000000000",
      "reserved": "",
      "salt": "0x4f8c296c1485519acb759beb096c1efb4c3e0a6ae5553a89ef98bf1024b0b96a",
      "assetIds": []
    },
    {
      "x": 148,
      "y": 341,
      "size": 1,
      "price": "1011000000000000000000",
      "reserved": "",
      "salt": "0xd91f00eb6862a5f6d768d5e3f3fd96f3c83806ae694b5e224d2bccc3f4266fa4",
      "assetIds": []
    },
    {
      "x": 148,
      "y": 342,
      "size": 1,
      "price": "1011000000000000000000",
      "reserved": "",
      "salt": "0x4e6bef26d7aea3a1621c48e59540b42352a0d4f48d93a3802ce252fc4472fbff",
      "assetIds": []
    },
    {
      "x": 148,
      "y": 343,
      "size": 1,
      "price": "1011000000000000000000",
      "reserved": "",
      "salt": "0x3dd77b2f54b4d921526c555b888ba1255ded21b7930ddece518c27f13990b586",
      "assetIds": []
    },
    {
      "x": 148,
      "y": 344,
      "size": 1,
      "price": "1011000000000000000000",
      "reserved": "",
      "salt": "0xc9049a63b663338dcd4d4cf688ee63af6d028e796d2761255397a08e70cda40f",
      "assetIds": []
    },
    {
      "x": 148,
      "y": 345,
      "size": 1,
      "price": "1011000000000000000000",
      "reserved": "",
      "salt": "0xc6163f851dfd6c06c7dcc9c619cd7ec9d37f83fb3cf270cf094bffe22364d568",
      "assetIds": []
    },
    {
      "x": 148,
      "y": 346,
      "size": 1,
      "price": "1011000000000000000000",
      "reserved": "",
      "salt": "0x0157e0a5250fa409db4fc87c0f7d8e1439db50f11a78e4034d6a5a5fd6dd2e4a",
      "assetIds": []
    },
    {
      "x": 148,
      "y": 347,
      "size": 1,
      "price": "1011000000000000000000",
      "reserved": "",
      "salt": "0xd925610fcbd1023ddf470c247b767cd8d0f1335236a42b4abcb69b167bce0b66",
      "assetIds": []
    },
    {
      "x": 148,
      "y": 348,
      "size": 1,
      "price": "1011000000000000000000",
      "reserved": "",
      "salt": "0x7eda08efe9af30f954dd60cec4f044e713af878ff26071cd4384bd93e5bc7d9a",
      "assetIds": []
    },
    {
      "x": 148,
      "y": 349,
      "size": 1,
      "price": "1011000000000000000000",
      "reserved": "",
      "salt": "0xc2d3cd3073f3fd43da1f2e4cff378c72383ae8e2a5e14142742196f0afaeef44",
      "assetIds": []
    },
    {
      "x": 148,
      "y": 350,
      "size": 1,
      "price": "1011000000000000000000",
      "reserved": "",
      "salt": "0x2f536ae29265dc61fb662dc183a8d3d507b0bf6dbde641e435a840f1a422c4f2",
      "assetIds": []
    },
    {
      "x": 148,
      "y": 351,
      "size": 1,
      "price": "1011000000000000000000",
      "reserved": "0x7a9fe22691c811ea339d9b73150e6911a5343dca",
      "salt": "0x85abf6b99c0620cef372250b504b3a115f76e680dadd291172eec61946567ed9",
      "assetIds": []
    },
    {
      "x": 149,
      "y": 322,
      "size": 1,
      "price": "1011000000000000000000",
      "reserved": "",
      "salt": "0xeab4ebd70a94ff868093fb1b8b8a65ff421b328a1391cab620e333ca77cf0cf5",
      "assetIds": []
    },
    {
      "x": 149,
      "y": 323,
      "size": 1,
      "price": "1011000000000000000000",
      "reserved": "",
      "salt": "0xebd3661491427220d1b5f1f032c38cbaf4757bea769e2d9c832b80995d93b72f",
      "assetIds": []
    },
    {
      "x": 149,
      "y": 330,
      "size": 1,
      "price": "4683000000000000000000",
      "reserved": "",
      "salt": "0xfdcc5e4ae89d6f1f6115a6a1aca544768ca0a197fd9bdd3ec5c1b0f240bd7b72",
      "assetIds": [
        "41506478881403507969696680653240014914910929820314476107906210059990541021186"
      ]
    },
    {
      "x": 149,
      "y": 331,
      "size": 1,
      "price": "1011000000000000000000",
      "reserved": "",
      "salt": "0xfb903ce56aa3504f0cf44c294e92eed58905f78b4362b8b15ccf8ff3c5ac06ad",
      "assetIds": []
    },
    {
      "x": 149,
      "y": 332,
      "size": 1,
      "price": "1011000000000000000000",
      "reserved": "0x7a9fe22691c811ea339d9b73150e6911a5343dca",
      "salt": "0x99cf49e3175c05cd20c960000ad828a7289ebc517cdadae6231a5152ec61ed40",
      "assetIds": []
    },
    {
      "x": 149,
      "y": 333,
      "size": 1,
      "price": "1011000000000000000000",
      "reserved": "",
      "salt": "0xfc3966ef891b27f201d031e76a49ced03feb20fc0668fce405699a7f12d8df2d",
      "assetIds": []
    },
    {
      "x": 149,
      "y": 334,
      "size": 1,
      "price": "1011000000000000000000",
      "reserved": "",
      "salt": "0x3292b6440f65013e1032f928bd48eaa70641bd7863d4da6580cf2bcb6201c3cb",
      "assetIds": []
    },
    {
      "x": 149,
      "y": 335,
      "size": 1,
      "price": "1011000000000000000000",
      "reserved": "",
      "salt": "0x752529409caf923d53e8b594d650c8c04addd57d35de604a8ca35a3fdd355a74",
      "assetIds": []
    },
    {
      "x": 149,
      "y": 336,
      "size": 1,
      "price": "4683000000000000000000",
      "reserved": "",
      "salt": "0x81ddb7aaaa197d55a1ee5a983bc044370eb11a3f6980c4c6fb2b7a671163384c",
      "assetIds": [
        "41506478881403507969696680653240014914910929820314476107906210059990541021186"
      ]
    },
    {
      "x": 149,
      "y": 337,
      "size": 1,
      "price": "4683000000000000000000",
      "reserved": "",
      "salt": "0x82332aa5a9d51560b92ea584933378d7b91a1cc507f6cbbcb6799d4b019c015a",
      "assetIds": [
        "41506478881403507969696680653240014914910929820314476107906210059990541021186"
      ]
    },
    {
      "x": 149,
      "y": 338,
      "size": 1,
      "price": "4683000000000000000000",
      "reserved": "",
      "salt": "0x42f7166e28702f26f519ebf465f55b751cdc274fce7da350bbe2131c692b357c",
      "assetIds": [
        "41506478881403507969696680653240014914910929820314476107906210059990541021186"
      ]
    },
    {
      "x": 149,
      "y": 339,
      "size": 1,
      "price": "4683000000000000000000",
      "reserved": "",
      "salt": "0xd6751b080e876aa7cbfc0d6dd00628be8336e729ab7687d8a85f8879c6ef8f5e",
      "assetIds": [
        "41506478881403507969696680653240014914910929820314476107906210059990541021186"
      ]
    },
    {
      "x": 149,
      "y": 340,
      "size": 1,
      "price": "4683000000000000000000",
      "reserved": "",
      "salt": "0xf8f2d0d5e93075c444447be9a4b349483166d40e04063987ef4a1e0ef1deaaf1",
      "assetIds": [
        "41506478881403507969696680653240014914910929820314476107906210059990541021186"
      ]
    },
    {
      "x": 149,
      "y": 341,
      "size": 1,
      "price": "4683000000000000000000",
      "reserved": "",
      "salt": "0xeefda6579b710dc59f49a220ce9763028761128b19edffa6ac40722371e14ba5",
      "assetIds": [
        "41506478881403507969696680653240014914910929820314476107906210059990541021186"
      ]
    },
    {
      "x": 149,
      "y": 342,
      "size": 1,
      "price": "4683000000000000000000",
      "reserved": "",
      "salt": "0x5ef0efebc9f82179f44e8fc35e969bffa64ba5692001d108ab26fa63340e1636",
      "assetIds": [
        "41506478881403507969696680653240014914910929820314476107906210059990541021186"
      ]
    },
    {
      "x": 149,
      "y": 343,
      "size": 1,
      "price": "4683000000000000000000",
      "reserved": "",
      "salt": "0x7e9707b5880dd0c08b3e7d1affa2c4be2d38faa722edb10b88b1eee4638b6f83",
      "assetIds": [
        "41506478881403507969696680653240014914910929820314476107906210059990541021186"
      ]
    },
    {
      "x": 149,
      "y": 344,
      "size": 1,
      "price": "1011000000000000000000",
      "reserved": "0x7a9fe22691c811ea339d9b73150e6911a5343dca",
      "salt": "0x2471f367ce601cd2c5b3edbb6da6bb552859c6da76a6bd6809864da92bdf7f0b",
      "assetIds": []
    },
    {
      "x": 149,
      "y": 345,
      "size": 1,
      "price": "1011000000000000000000",
      "reserved": "",
      "salt": "0xc7ed4567e77a9ccf13d8ff37b100c11b939dfe192e4eb129d7fb7893b9f93b9c",
      "assetIds": []
    },
    {
      "x": 149,
      "y": 346,
      "size": 1,
      "price": "1011000000000000000000",
      "reserved": "0x7a9fe22691c811ea339d9b73150e6911a5343dca",
      "salt": "0x9761d4e91e80d5ad94a666480f150e8ceed5420b5a084a90e255627c9641da16",
      "assetIds": []
    },
    {
      "x": 149,
      "y": 347,
      "size": 1,
      "price": "1011000000000000000000",
      "reserved": "",
      "salt": "0x9afa0443743275daca30a31ac498a258fd348e795534fb4a1d6ace3e57c8f81a",
      "assetIds": []
    },
    {
      "x": 149,
      "y": 348,
      "size": 1,
      "price": "1011000000000000000000",
      "reserved": "0x7a9fe22691c811ea339d9b73150e6911a5343dca",
      "salt": "0x12d22ebe6814a79f5fbaa535436ed6744fde00042eeee0c9fcb7d7aec0973649",
      "assetIds": []
    },
    {
      "x": 149,
      "y": 349,
      "size": 1,
      "price": "1011000000000000000000",
      "reserved": "",
      "salt": "0x022c08882fa3e2e1521831d0ba436deaf3605844737a7420935b3326ed7e4e14",
      "assetIds": []
    },
    {
      "x": 149,
      "y": 350,
      "size": 1,
      "price": "1011000000000000000000",
      "reserved": "",
      "salt": "0xbf9594daace157f152f8cf9766d6a949f7e137f2b4ea609577f5e59ec1fe7b8d",
      "assetIds": []
    },
    {
      "x": 149,
      "y": 351,
      "size": 1,
      "price": "1011000000000000000000",
      "reserved": "",
      "salt": "0x9bf44413dd8cef5beaf760caea8fd656ba60a2589a15f5a6f69d6271491d1243",
      "assetIds": []
    },
    {
      "x": 150,
      "y": 322,
      "size": 1,
      "price": "1011000000000000000000",
      "reserved": "",
      "salt": "0xdc1a2d1aa09c8034fd6d399630e7d273967c4657eb4ffdca13e0632492c5425e",
      "assetIds": []
    },
    {
      "x": 150,
      "y": 323,
      "size": 1,
      "price": "1011000000000000000000",
      "reserved": "",
      "salt": "0xc83b2d954a98ee2dbb0674c07fcd0458df8efd1f59c0868ce368853ae218d125",
      "assetIds": []
    },
    {
      "x": 150,
      "y": 324,
      "size": 1,
      "price": "1011000000000000000000",
      "reserved": "",
      "salt": "0x906e2c422f9641992fcc0c52f1c301dea7d43db295ec368aefd8b34c4d5dfd7e",
      "assetIds": []
    },
    {
      "x": 150,
      "y": 325,
      "size": 1,
      "price": "1011000000000000000000",
      "reserved": "",
      "salt": "0xd4d1b636c1590f148d2ecb2f1699905091fc81e492dc6e053a2b1982d1c5b4a5",
      "assetIds": []
    },
    {
      "x": 150,
      "y": 326,
      "size": 1,
      "price": "1011000000000000000000",
      "reserved": "",
      "salt": "0x26f08590141dab5cb086dc01a675bdec73c2ddf7e7eef6b14ce3e7b77b9cb335",
      "assetIds": []
    },
    {
      "x": 150,
      "y": 327,
      "size": 1,
      "price": "1011000000000000000000",
      "reserved": "",
      "salt": "0xca17547b19a66a9d35f06691fa4b583b184ab551105d2d641bdfe1d58e83506c",
      "assetIds": []
    },
    {
      "x": 150,
      "y": 328,
      "size": 1,
      "price": "1011000000000000000000",
      "reserved": "",
      "salt": "0x401fcfe51c071c45dda2c334f62cc7ce0db91601dea545d68f6d43883bb164da",
      "assetIds": []
    },
    {
      "x": 150,
      "y": 329,
      "size": 1,
      "price": "1011000000000000000000",
      "reserved": "",
      "salt": "0xc6bfd58fd1eb63248afe9ade44d342fe97cf5cabb13a29e05e0b5a77d137f006",
      "assetIds": []
    },
    {
      "x": 150,
      "y": 330,
      "size": 1,
      "price": "1011000000000000000000",
      "reserved": "",
      "salt": "0x64f9d861010550e1eba0795a9b37bc5d08e8895e97b7267ba721646e9f527c60",
      "assetIds": []
    },
    {
      "x": 150,
      "y": 331,
      "size": 1,
      "price": "1011000000000000000000",
      "reserved": "",
      "salt": "0x52a1d3d6167624763f06214e4039cdde64ef8bcbd58bd7f8625e9d664b9f659c",
      "assetIds": []
    },
    {
      "x": 150,
      "y": 332,
      "size": 1,
      "price": "1011000000000000000000",
      "reserved": "",
      "salt": "0x7a506d8784ac6a756d806a84db5cb0ff2b8d24ae8a2859c6e96f6b970afe2361",
      "assetIds": []
    },
    {
      "x": 150,
      "y": 333,
      "size": 1,
      "price": "1011000000000000000000",
      "reserved": "0x7a9fe22691c811ea339d9b73150e6911a5343dca",
      "salt": "0x6faa9941740edc996b7d2684d7a3a5b1dc135bc2688d925a522a24708ca562fd",
      "assetIds": []
    },
    {
      "x": 150,
      "y": 334,
      "size": 1,
      "price": "4683000000000000000000",
      "reserved": "",
      "salt": "0xa30922673dd84ef4a2c0dfd98fa60f0d26576554072a61c7cc62c3e4671be69e",
      "assetIds": [
        "41506478881403507969696680653240014914910929820314476107906210059990541021186"
      ]
    },
    {
      "x": 150,
      "y": 335,
      "size": 1,
      "price": "4683000000000000000000",
      "reserved": "",
      "salt": "0x67cae06726c5d261923c84d0b9b059024c8475b4165ad74edcbe7dd3d9c553dc",
      "assetIds": [
        "41506478881403507969696680653240014914910929820314476107906210059990541021186"
      ]
    },
    {
      "x": 150,
      "y": 342,
      "size": 1,
      "price": "4683000000000000000000",
      "reserved": "",
      "salt": "0x8c3a3a8202084f5271b43de0dee069bf48945b53b42f47fa5424f99ba00018b7",
      "assetIds": [
        "41506478881403507969696680653240014914910929820314476107906210059990541021186"
      ]
    },
    {
      "x": 150,
      "y": 343,
      "size": 1,
      "price": "4683000000000000000000",
      "reserved": "",
      "salt": "0x14531867dc32c064617e9592fa0d8d69f1209eb8fde4cbc4273034eadbe026e2",
      "assetIds": [
        "41506478881403507969696680653240014914910929820314476107906210059990541021186"
      ]
    },
    {
      "x": 150,
      "y": 344,
      "size": 1,
      "price": "1011000000000000000000",
      "reserved": "",
      "salt": "0x5243ca97779f11da6bb88a9ff485ffd69e6b83576d2f577897d6d564bf080be2",
      "assetIds": []
    },
    {
      "x": 150,
      "y": 345,
      "size": 1,
      "price": "1011000000000000000000",
      "reserved": "",
      "salt": "0xf46cad43a47da8011e9086cc0935a5b3ab58b4ef5225baef162b0b500327e6ce",
      "assetIds": []
    },
    {
      "x": 150,
      "y": 346,
      "size": 1,
      "price": "1011000000000000000000",
      "reserved": "",
      "salt": "0x75320b6e334a36c69f0681de4965fc06dc617bb5855dce812fc7c1de8ed5f531",
      "assetIds": []
    },
    {
      "x": 150,
      "y": 347,
      "size": 1,
      "price": "1011000000000000000000",
      "reserved": "",
      "salt": "0x735c8fba77c72d32b61e925a31ef9add9bcf391923f5bda6df788b94862d95e4",
      "assetIds": []
    },
    {
      "x": 150,
      "y": 348,
      "size": 1,
      "price": "1011000000000000000000",
      "reserved": "",
      "salt": "0x700116a5474fd2b69b456f0763493793733cb957d5ee178450b413f6b1128aa3",
      "assetIds": []
    },
    {
      "x": 150,
      "y": 349,
      "size": 1,
      "price": "1011000000000000000000",
      "reserved": "",
      "salt": "0x7e68b834f40848fea44e20b9d8aacd0fa250308e3c91f8b39a2777560cd59a14",
      "assetIds": []
    },
    {
      "x": 150,
      "y": 350,
      "size": 1,
      "price": "1011000000000000000000",
      "reserved": "",
      "salt": "0x0cfc0d08266c8a43bf10c3d1bf0725de43e2dbed9fb92f9c95b9f0e7c7dc3f26",
      "assetIds": []
    },
    {
      "x": 150,
      "y": 351,
      "size": 1,
      "price": "1011000000000000000000",
      "reserved": "",
      "salt": "0x8cea148672e8b3de49f4df9b629c5d5a1450fb587574d8098ae7b1c148c71c87",
      "assetIds": []
    },
    {
      "x": 151,
      "y": 322,
      "size": 1,
      "price": "1011000000000000000000",
      "reserved": "0x7a9fe22691c811ea339d9b73150e6911a5343dca",
      "salt": "0xc86c56a90898ae68ad5775445c8ae6876219af28778d5f4f25bc64ed6f06cfed",
      "assetIds": []
    },
    {
      "x": 151,
      "y": 323,
      "size": 1,
      "price": "1011000000000000000000",
      "reserved": "",
      "salt": "0x90b4445a13fb663f1b7d75e36d4b9d942c563c833e59063afe75bfc833684e7b",
      "assetIds": []
    },
    {
      "x": 151,
      "y": 324,
      "size": 1,
      "price": "1011000000000000000000",
      "reserved": "",
      "salt": "0x708b73a969a2a764657aa387b4ca0af66cc49998e2c8d0c21ab2520e3889ab38",
      "assetIds": []
    },
    {
      "x": 151,
      "y": 325,
      "size": 1,
      "price": "1011000000000000000000",
      "reserved": "",
      "salt": "0x106816e9fd662a64c63e5c473a0c135d71f53e51b8b69dd236a4a68d96a65d0a",
      "assetIds": []
    },
    {
      "x": 151,
      "y": 326,
      "size": 1,
      "price": "1011000000000000000000",
      "reserved": "0x7a9fe22691c811ea339d9b73150e6911a5343dca",
      "salt": "0x3c30dca5780f6c9bf067d36aa80cbb0c3c98d03604de8d6500ed491423b56913",
      "assetIds": []
    },
    {
      "x": 151,
      "y": 327,
      "size": 1,
      "price": "1011000000000000000000",
      "reserved": "",
      "salt": "0x421483fb68a048a832f6233a7e95cba347428be12d18206b7ee011aaeed48b4f",
      "assetIds": []
    },
    {
      "x": 151,
      "y": 328,
      "size": 1,
      "price": "1011000000000000000000",
      "reserved": "",
      "salt": "0xa0390f6e26948f74b6422cb0b816ecb6c0168b064aa54f94d1a727ca84935ead",
      "assetIds": []
    },
    {
      "x": 151,
      "y": 329,
      "size": 1,
      "price": "1011000000000000000000",
      "reserved": "0x7a9fe22691c811ea339d9b73150e6911a5343dca",
      "salt": "0x9511258077a95b79469bb46f80363e00fc45a00ff60ec19e7431e3dffc5d3e77",
      "assetIds": []
    },
    {
      "x": 151,
      "y": 330,
      "size": 1,
      "price": "1011000000000000000000",
      "reserved": "",
      "salt": "0x8f7720ff81f10ce273a5d98d17cf2ab67b2ae6c85c6390b77b8f27c0d7cada7f",
      "assetIds": []
    },
    {
      "x": 151,
      "y": 331,
      "size": 1,
      "price": "1011000000000000000000",
      "reserved": "0x7a9fe22691c811ea339d9b73150e6911a5343dca",
      "salt": "0xdff5a38cf98c6a356628c7bfdbfafa59b401c294b078b1383456981fc7386ffc",
      "assetIds": []
    },
    {
      "x": 151,
      "y": 332,
      "size": 1,
      "price": "1011000000000000000000",
      "reserved": "",
      "salt": "0x2dd596cfd57ed7dcda80adec6ccf33a181dbeb69ec58abe5e961854107fc189d",
      "assetIds": []
    },
    {
      "x": 151,
      "y": 333,
      "size": 1,
      "price": "1011000000000000000000",
      "reserved": "",
      "salt": "0x1ba1443753afe50dbbf9d96e014bda520db7f805db0ddc24c53b6e97734baf7c",
      "assetIds": []
    },
    {
      "x": 151,
      "y": 334,
      "size": 1,
      "price": "4683000000000000000000",
      "reserved": "",
      "salt": "0xabfa87731a0567228e8e2cd89de4f1e1f944b3f52aad939552282a540b4ff6ad",
      "assetIds": [
        "41506478881403507969696680653240014914910929820314476107906210059990541021186"
      ]
    },
    {
      "x": 151,
      "y": 335,
      "size": 1,
      "price": "4683000000000000000000",
      "reserved": "",
      "salt": "0x1d7138a86b90257c126e316f30c888f61a0e5ae504c840714ed015c24b3e83c4",
      "assetIds": [
        "41506478881403507969696680653240014914910929820314476107906210059990541021186"
      ]
    },
    {
      "x": 151,
      "y": 342,
      "size": 1,
      "price": "4683000000000000000000",
      "reserved": "",
      "salt": "0xcf2c9cf8ccde9000f6cabcc273d71bda4ce70c288270865c7b07003f18336df5",
      "assetIds": [
        "41506478881403507969696680653240014914910929820314476107906210059990541021186"
      ]
    },
    {
      "x": 151,
      "y": 343,
      "size": 1,
      "price": "4683000000000000000000",
      "reserved": "",
      "salt": "0x73adc3b1be6478105ebedc46b61968c4c02062887974d315bf19ec3d72fa897c",
      "assetIds": [
        "41506478881403507969696680653240014914910929820314476107906210059990541021186"
      ]
    },
    {
      "x": 151,
      "y": 344,
      "size": 1,
      "price": "1011000000000000000000",
      "reserved": "",
      "salt": "0xb04a6d9cae204cb8d171da42a7fbef716a928f39a17676390a8b091bf1f878f3",
      "assetIds": []
    },
    {
      "x": 151,
      "y": 345,
      "size": 1,
      "price": "1011000000000000000000",
      "reserved": "",
      "salt": "0x723e59548a65212549c8be0f2b75c19188b9c61aa19f8bdd7005595543185a26",
      "assetIds": []
    },
    {
      "x": 151,
      "y": 346,
      "size": 1,
      "price": "1011000000000000000000",
      "reserved": "0x7a9fe22691c811ea339d9b73150e6911a5343dca",
      "salt": "0x368a227750fe9a4180a2385cb957bbcb9a734a7cfc407235824c1a27237c7512",
      "assetIds": []
    },
    {
      "x": 151,
      "y": 347,
      "size": 1,
      "price": "1011000000000000000000",
      "reserved": "",
      "salt": "0x8eeab892e4d9c509663334519d297c8be729c7af500482d90e41702b040fe5f3",
      "assetIds": []
    },
    {
      "x": 151,
      "y": 348,
      "size": 1,
      "price": "1011000000000000000000",
      "reserved": "",
      "salt": "0xf301254b7bad4ff4408a1fdb84abfa548f78e54e68961be06b2dd409994cb6a8",
      "assetIds": []
    },
    {
      "x": 151,
      "y": 349,
      "size": 1,
      "price": "1011000000000000000000",
      "reserved": "0x7a9fe22691c811ea339d9b73150e6911a5343dca",
      "salt": "0x415b039222fe77710ecd5a8219505865158bc266c37c9344aa575b61f6f282db",
      "assetIds": []
    },
    {
      "x": 151,
      "y": 350,
      "size": 1,
      "price": "1011000000000000000000",
      "reserved": "",
      "salt": "0x072995df8c8bcceec76c3ac500b724d751c6f4c6aa0acaab449ed79f34a3a7b5",
      "assetIds": []
    },
    {
      "x": 151,
      "y": 351,
      "size": 1,
      "price": "1011000000000000000000",
      "reserved": "0x7a9fe22691c811ea339d9b73150e6911a5343dca",
      "salt": "0x2e26ac86f0def65c05c03e3e396a8dc0155a602721cb9c84d5008382061e75d9",
      "assetIds": []
    },
    {
      "x": 151,
      "y": 352,
      "size": 1,
      "price": "1011000000000000000000",
      "reserved": "",
      "salt": "0xab27487bf87b8cd543e49e6c2f8bb2d6488ca9d980120eaa3510cab25d8d5434",
      "assetIds": []
    },
    {
      "x": 152,
      "y": 322,
      "size": 1,
      "price": "1011000000000000000000",
      "reserved": "",
      "salt": "0x6543d0416b00b0e60fe4a44ca3cc09fba916329d50d0ef868ae27ac540ecc8e1",
      "assetIds": []
    },
    {
      "x": 152,
      "y": 323,
      "size": 1,
      "price": "1011000000000000000000",
      "reserved": "",
      "salt": "0x8445857f57e436cebb7906c49b32da6ec0de55029421b2acea38d1fdfcc7b442",
      "assetIds": []
    },
    {
      "x": 152,
      "y": 324,
      "size": 1,
      "price": "1011000000000000000000",
      "reserved": "",
      "salt": "0xaf274f937d5e13077637098a39f7ff211a59585fd35ddb88c9497c005166a92a",
      "assetIds": []
    },
    {
      "x": 152,
      "y": 325,
      "size": 1,
      "price": "1011000000000000000000",
      "reserved": "",
      "salt": "0xb528cb2c42fb5418cc2b4d519f40b61eda06a4ed091e59dd4c5826ecf4eefa81",
      "assetIds": []
    },
    {
      "x": 152,
      "y": 326,
      "size": 1,
      "price": "1011000000000000000000",
      "reserved": "",
      "salt": "0x0e6c222fdabf620c4f96020db4f09e4056a038c6e2e9159b78680fdc8a541899",
      "assetIds": []
    },
    {
      "x": 152,
      "y": 327,
      "size": 1,
      "price": "1011000000000000000000",
      "reserved": "",
      "salt": "0x2471f2a5c056b1f1ad10f6b761f264c5684fdc3278b74b0d513039e5e5caf6b7",
      "assetIds": []
    },
    {
      "x": 152,
      "y": 328,
      "size": 1,
      "price": "1011000000000000000000",
      "reserved": "",
      "salt": "0xa0aab398a868897e138f80798a25aee7e92f7c403fa06f659d6b4714a1065417",
      "assetIds": []
    },
    {
      "x": 152,
      "y": 329,
      "size": 1,
      "price": "1011000000000000000000",
      "reserved": "",
      "salt": "0x9a7c2121fbe37f3c09d88a29c5d2bed415598373b6cc0199d19623844f34fc24",
      "assetIds": []
    },
    {
      "x": 152,
      "y": 330,
      "size": 1,
      "price": "1011000000000000000000",
      "reserved": "",
      "salt": "0x6ea48d606388540b42dd141c16187f8b3fd3072d4925e0d818f545a15e60a5c2",
      "assetIds": []
    },
    {
      "x": 152,
      "y": 331,
      "size": 1,
      "price": "1011000000000000000000",
      "reserved": "",
      "salt": "0xb7121fafaaa32ee898f583d561aadd3fb1722fc6b838aa80aaddf4174393faff",
      "assetIds": []
    },
    {
      "x": 152,
      "y": 332,
      "size": 1,
      "price": "1011000000000000000000",
      "reserved": "",
      "salt": "0xdd2add2c5156c6bc40b48171fe1eef0b8db5672a1dc997c419a8f61cf1970ae8",
      "assetIds": []
    },
    {
      "x": 152,
      "y": 333,
      "size": 1,
      "price": "1011000000000000000000",
      "reserved": "0x7a9fe22691c811ea339d9b73150e6911a5343dca",
      "salt": "0x97942d7cf4bb6f5ae247b13857a9859dc8f1c3b7096a7a9cb00b80192cf52834",
      "assetIds": []
    },
    {
      "x": 152,
      "y": 334,
      "size": 1,
      "price": "4683000000000000000000",
      "reserved": "",
      "salt": "0x03ec5965b3f125a568475d053edf96895eba98ae7784f0eb62ed51896e632e8c",
      "assetIds": [
        "41506478881403507969696680653240014914910929820314476107906210059990541021186"
      ]
    },
    {
      "x": 152,
      "y": 335,
      "size": 1,
      "price": "4683000000000000000000",
      "reserved": "",
      "salt": "0xc04c9b457176fa911fb89eac5768d440c1c7e9ad6af89d120c52c7b75091220e",
      "assetIds": [
        "41506478881403507969696680653240014914910929820314476107906210059990541021186"
      ]
    },
    {
      "x": 152,
      "y": 342,
      "size": 1,
      "price": "4683000000000000000000",
      "reserved": "",
      "salt": "0xb76e382262095027f003571a1559f2ec223db16bbe87c3cf5576fca8d1d7b3ae",
      "assetIds": [
        "41506478881403507969696680653240014914910929820314476107906210059990541021186"
      ]
    },
    {
      "x": 152,
      "y": 343,
      "size": 1,
      "price": "4683000000000000000000",
      "reserved": "",
      "salt": "0x7f3ee46085eb1d5e435d4b81baa673a738d23418117937511b4a49c0c828e1ca",
      "assetIds": [
        "41506478881403507969696680653240014914910929820314476107906210059990541021186"
      ]
    },
    {
      "x": 152,
      "y": 344,
      "size": 1,
      "price": "1011000000000000000000",
      "reserved": "",
      "salt": "0xdb914c9c203b9a413afb068d07f3420d92485e4d8af57f7666e5631e940e16ef",
      "assetIds": []
    },
    {
      "x": 152,
      "y": 345,
      "size": 1,
      "price": "1011000000000000000000",
      "reserved": "",
      "salt": "0xc90a0d87b8d8c2d51b23e22011937955191a8662f706c347b30c9b415df6f61e",
      "assetIds": []
    },
    {
      "x": 152,
      "y": 346,
      "size": 1,
      "price": "1011000000000000000000",
      "reserved": "",
      "salt": "0xa28209cb8ff6523367e6840297136fd76869db4a83e9c6e46720dff346b0e991",
      "assetIds": []
    },
    {
      "x": 152,
      "y": 347,
      "size": 1,
      "price": "1011000000000000000000",
      "reserved": "",
      "salt": "0xa38debe1bb2a7ba5fceb7fed9a925a221f1be27368b2c5bd7a0330aeec5a6b35",
      "assetIds": []
    },
    {
      "x": 152,
      "y": 348,
      "size": 1,
      "price": "1011000000000000000000",
      "reserved": "",
      "salt": "0x52b229f0f10d8dc5871b2d3781a8c6b206533d03f4336990a56a4634e25dca0e",
      "assetIds": []
    },
    {
      "x": 152,
      "y": 349,
      "size": 1,
      "price": "1011000000000000000000",
      "reserved": "",
      "salt": "0x033bcbdeee1220c2ca8991cbffb048215cf5961407b1e158ebc276500f34ddf0",
      "assetIds": []
    },
    {
      "x": 152,
      "y": 350,
      "size": 1,
      "price": "1011000000000000000000",
      "reserved": "",
      "salt": "0x8489e38ad9b16c42007084586a1201fd7f41de1051508892edd3b649b67d92e5",
      "assetIds": []
    },
    {
      "x": 152,
      "y": 351,
      "size": 1,
      "price": "1011000000000000000000",
      "reserved": "",
      "salt": "0x94fddf9d4bbd9a0fac73e3692461c780f697e2efd1ec51f2e801aa5a4432e361",
      "assetIds": []
    },
    {
      "x": 152,
      "y": 352,
      "size": 1,
      "price": "1011000000000000000000",
      "reserved": "",
      "salt": "0x8b293835640032a1d948bfd9bd85c63983ef99746458c0bbc8ad67d9e9ada979",
      "assetIds": []
    },
    {
      "x": 153,
      "y": 312,
      "size": 1,
      "price": "1011000000000000000000",
      "reserved": "0x7a9fe22691c811ea339d9b73150e6911a5343dca",
      "salt": "0x7ed9d70e80aaef0c08955765240d3d6a876dbf071e0ced362f0483098b101456",
      "assetIds": []
    },
    {
      "x": 153,
      "y": 313,
      "size": 1,
      "price": "1011000000000000000000",
      "reserved": "",
      "salt": "0xd8fcf95ecd615bbcdb338237ec83620db20b92bf139a223384b975ad4b588d7f",
      "assetIds": []
    },
    {
      "x": 153,
      "y": 314,
      "size": 1,
      "price": "1011000000000000000000",
      "reserved": "",
      "salt": "0x7f77dae70a3daa465cfa4eccc04b5c8d691dbecae0d18715f403c50820a43f4c",
      "assetIds": []
    },
    {
      "x": 153,
      "y": 315,
      "size": 1,
      "price": "1011000000000000000000",
      "reserved": "",
      "salt": "0xd0338560dd344e157a60e8a94db1d7cc46c89337b312518dd04f2b241dfc569a",
      "assetIds": []
    },
    {
      "x": 153,
      "y": 316,
      "size": 1,
      "price": "1011000000000000000000",
      "reserved": "",
      "salt": "0x6f17ebbf8ec7f5f294b6d411c2a190af371e0a3cfb0a4df02f4851160722e171",
      "assetIds": []
    },
    {
      "x": 153,
      "y": 317,
      "size": 1,
      "price": "1011000000000000000000",
      "reserved": "",
      "salt": "0x4e09c18138ef28b4cdfb52e3c89441fcabbfb466d2f0314251c5ea31848f5d3a",
      "assetIds": []
    },
    {
      "x": 153,
      "y": 318,
      "size": 1,
      "price": "1011000000000000000000",
      "reserved": "",
      "salt": "0xeecc0bc58a38dfbe83a9cd2cfd9b7701414acedaa5b838687e4467f84b3b8698",
      "assetIds": []
    },
    {
      "x": 153,
      "y": 319,
      "size": 1,
      "price": "1011000000000000000000",
      "reserved": "",
      "salt": "0x0a1be697c69d1808b93381d8448e1f3ffdd0720396e6d2a7105d74f1e9c50c4b",
      "assetIds": []
    },
    {
      "x": 153,
      "y": 320,
      "size": 1,
      "price": "1011000000000000000000",
      "reserved": "",
      "salt": "0x27c97119d8da95cb727b7cc9830b3e5528a59fb521cd12c0ec94a087e2e8d28e",
      "assetIds": []
    },
    {
      "x": 153,
      "y": 321,
      "size": 1,
      "price": "1011000000000000000000",
      "reserved": "",
      "salt": "0xc83b7933712198d636e7080ee59b031fbf7e5f148517ba028c963fd004361390",
      "assetIds": []
    },
    {
      "x": 153,
      "y": 322,
      "size": 1,
      "price": "1011000000000000000000",
      "reserved": "0x7a9fe22691c811ea339d9b73150e6911a5343dca",
      "salt": "0x9375a0b6179510cf672e630ec131da935c28ee86026e49d157d6f2605126ac06",
      "assetIds": []
    },
    {
      "x": 153,
      "y": 323,
      "size": 1,
      "price": "1011000000000000000000",
      "reserved": "",
      "salt": "0x366380e2fe5259175ade37d2ad5b448173aaac44ed671f8d5c37f9eeeff8fbdc",
      "assetIds": []
    },
    {
      "x": 153,
      "y": 324,
      "size": 1,
      "price": "1011000000000000000000",
      "reserved": "0x7a9fe22691c811ea339d9b73150e6911a5343dca",
      "salt": "0xad66d67e0f9a45ac82ae89d66eb8ca63ae9d97b7775df65d920b4cdd00db79ea",
      "assetIds": []
    },
    {
      "x": 153,
      "y": 325,
      "size": 1,
      "price": "1011000000000000000000",
      "reserved": "",
      "salt": "0x5b74a15a93a8ebfd559ffd4604c4f098c6a740051a83a1b7810b784e6d891782",
      "assetIds": []
    },
    {
      "x": 153,
      "y": 326,
      "size": 1,
      "price": "1011000000000000000000",
      "reserved": "",
      "salt": "0x8b28c54c9c56fe39556d57b6db770f3eaadbdc1541c34b6ceed1e42a87134397",
      "assetIds": []
    },
    {
      "x": 153,
      "y": 327,
      "size": 1,
      "price": "1011000000000000000000",
      "reserved": "0x7a9fe22691c811ea339d9b73150e6911a5343dca",
      "salt": "0xadfa8c11975c8b928b7a2690100a59b6d1e46c66c967c09b0ce32cfe68a84b6f",
      "assetIds": []
    },
    {
      "x": 153,
      "y": 328,
      "size": 1,
      "price": "1011000000000000000000",
      "reserved": "",
      "salt": "0x9ef9712980ef562b130a07bf040597068798dc3a9837e021efc23e366d70f834",
      "assetIds": []
    },
    {
      "x": 153,
      "y": 329,
      "size": 1,
      "price": "1011000000000000000000",
      "reserved": "0x7a9fe22691c811ea339d9b73150e6911a5343dca",
      "salt": "0x964ce875dd38ef94d20710fec00dd7a7502a6332b0aad9bc069ff403708cac80",
      "assetIds": []
    },
    {
      "x": 153,
      "y": 330,
      "size": 1,
      "price": "1011000000000000000000",
      "reserved": "",
      "salt": "0xb1890d088f96e063344c99b2685ff030ea071b0633c8d985076a5b310cf15b37",
      "assetIds": []
    },
    {
      "x": 153,
      "y": 331,
      "size": 1,
      "price": "1011000000000000000000",
      "reserved": "",
      "salt": "0x312c1854878ed9373790f8279325c965d00a68d8108ad997eb39c703ffaf8e76",
      "assetIds": []
    },
    {
      "x": 153,
      "y": 332,
      "size": 1,
      "price": "1011000000000000000000",
      "reserved": "",
      "salt": "0xa8eb7ce2b99db631bef3d7ce528986c8d35c1ac528683a89300eb136d5ea8387",
      "assetIds": []
    },
    {
      "x": 153,
      "y": 333,
      "size": 1,
      "price": "4683000000000000000000",
      "reserved": "",
      "salt": "0x52dc0d8750e48f529398f4465ad0439c5df12185b806ed4e0ad24f45e9496a9c",
      "assetIds": [
        "41506478881403507969696680653240014914910929820314476107906210059990541021186"
      ]
    },
    {
      "x": 153,
      "y": 334,
      "size": 1,
      "price": "4683000000000000000000",
      "reserved": "",
      "salt": "0xe4a41b31c8163ef3145940d7a4cf07f2825122d8764c43c5242ef5b983ed7622",
      "assetIds": [
        "41506478881403507969696680653240014914910929820314476107906210059990541021186"
      ]
    },
    {
      "x": 153,
      "y": 335,
      "size": 1,
      "price": "4683000000000000000000",
      "reserved": "",
      "salt": "0xb7cb17518e4038c965da50f1bd06e18cc4e38d05d8cabf7215351688126e4f41",
      "assetIds": [
        "41506478881403507969696680653240014914910929820314476107906210059990541021186"
      ]
    },
    {
      "x": 153,
      "y": 342,
      "size": 1,
      "price": "4683000000000000000000",
      "reserved": "",
      "salt": "0x356f485716513943d258aca47015b505de443d5e218681c14d655cc073a00e17",
      "assetIds": [
        "41506478881403507969696680653240014914910929820314476107906210059990541021186"
      ]
    },
    {
      "x": 153,
      "y": 343,
      "size": 1,
      "price": "1011000000000000000000",
      "reserved": "0x7a9fe22691c811ea339d9b73150e6911a5343dca",
      "salt": "0x3ed414deafd6496f875c17ef76f808d8073b9aa8ebdbea0daa90c4a3ee078a6b",
      "assetIds": []
    },
    {
      "x": 153,
      "y": 344,
      "size": 1,
      "price": "1011000000000000000000",
      "reserved": "",
      "salt": "0x7744fede3b2071eacbd5f176951e7d17038f411599153d943735304cba736c5f",
      "assetIds": []
    },
    {
      "x": 153,
      "y": 345,
      "size": 1,
      "price": "1011000000000000000000",
      "reserved": "0x7a9fe22691c811ea339d9b73150e6911a5343dca",
      "salt": "0xf77dde2cda74a8d4a8458aa65d483eac8ed28c95109ad69b29b218f40c559771",
      "assetIds": []
    },
    {
      "x": 153,
      "y": 346,
      "size": 1,
      "price": "1011000000000000000000",
      "reserved": "",
      "salt": "0xf5d34ef60f093c73a48e34b5cf12726262863dc1ae829cada6f2827f1e275f54",
      "assetIds": []
    },
    {
      "x": 153,
      "y": 347,
      "size": 1,
      "price": "1011000000000000000000",
      "reserved": "",
      "salt": "0x2758899d0c6a37d3c4209394139b3fcd836edbe279a404520f2960eaf90f49c2",
      "assetIds": []
    },
    {
      "x": 153,
      "y": 348,
      "size": 1,
      "price": "1011000000000000000000",
      "reserved": "",
      "salt": "0x279bf1b4a609b11e2f2b53d5ee0dd87462fe900881e197aa5f7057811f922ac6",
      "assetIds": []
    },
    {
      "x": 153,
      "y": 349,
      "size": 1,
      "price": "1011000000000000000000",
      "reserved": "",
      "salt": "0xd9ed85cbe5984bb0e934cf8c7aea8baff0922fab2f17a28f36e05de36e242596",
      "assetIds": []
    },
    {
      "x": 153,
      "y": 350,
      "size": 1,
      "price": "1011000000000000000000",
      "reserved": "",
      "salt": "0xf093dca21e5576d751b9343efd8ce3c51b0b6fd91247c1c29205d5b23ae9001b",
      "assetIds": []
    },
    {
      "x": 153,
      "y": 351,
      "size": 1,
      "price": "1011000000000000000000",
      "reserved": "",
      "salt": "0x70e908d7c9da1f343107c4379b0caf5f133c56f66162967727f5c980f3e2f726",
      "assetIds": []
    },
    {
      "x": 153,
      "y": 352,
      "size": 1,
      "price": "1011000000000000000000",
      "reserved": "0x7a9fe22691c811ea339d9b73150e6911a5343dca",
      "salt": "0x4ccbb7d1c86819c4ad241c3fe83f1772f8195a24908b88bc418bffd4d3379494",
      "assetIds": []
    },
    {
      "x": 154,
      "y": 312,
      "size": 1,
      "price": "1011000000000000000000",
      "reserved": "",
      "salt": "0xf12536f0ef3f49f207b51c3adae6e2460eae979958976442c4dd3d16bb1c3882",
      "assetIds": []
    },
    {
      "x": 154,
      "y": 313,
      "size": 1,
      "price": "1011000000000000000000",
      "reserved": "",
      "salt": "0xc63a729fd0e5cec55bfed2d65fac1bb4d7c9e0456c494774e6dd36af0c6faed1",
      "assetIds": []
    },
    {
      "x": 154,
      "y": 314,
      "size": 1,
      "price": "1011000000000000000000",
      "reserved": "",
      "salt": "0xf7a9bbd4af9c03693a58235d39164fffb7a593ca9174fe81e45a825006e47c89",
      "assetIds": []
    },
    {
      "x": 154,
      "y": 315,
      "size": 1,
      "price": "1011000000000000000000",
      "reserved": "",
      "salt": "0xc45355b0915e054e66f83deadb397091f2f4ae5b4bb3b4bc62c7e5e9ebd1098b",
      "assetIds": []
    },
    {
      "x": 154,
      "y": 316,
      "size": 1,
      "price": "1011000000000000000000",
      "reserved": "",
      "salt": "0x8cf460cbb48a58954980016164313b760994e274361c9cc1fdf3f1f824ff19c9",
      "assetIds": []
    },
    {
      "x": 154,
      "y": 317,
      "size": 1,
      "price": "1011000000000000000000",
      "reserved": "0x7a9fe22691c811ea339d9b73150e6911a5343dca",
      "salt": "0xa9b703933d84191f08f38ca0bcedbba8aeeee540a35bcfc61ee83dd171e0d3f0",
      "assetIds": []
    },
    {
      "x": 154,
      "y": 318,
      "size": 1,
      "price": "1011000000000000000000",
      "reserved": "",
      "salt": "0xc225577149b52e3db10824078dfd22a0b4b6f22f909633116de849fbccdd057e",
      "assetIds": []
    },
    {
      "x": 154,
      "y": 319,
      "size": 1,
      "price": "1011000000000000000000",
      "reserved": "0x7a9fe22691c811ea339d9b73150e6911a5343dca",
      "salt": "0x7aa0feda8259b6e256b18b5a252c2fbda4c48ac4e2cb1e029e94c4c47b3bdd83",
      "assetIds": []
    },
    {
      "x": 154,
      "y": 320,
      "size": 1,
      "price": "1011000000000000000000",
      "reserved": "",
      "salt": "0x395ff3f6e6826ad2448f557f00a76888eb69035d411a936f3522c815b3574089",
      "assetIds": []
    },
    {
      "x": 154,
      "y": 321,
      "size": 1,
      "price": "1011000000000000000000",
      "reserved": "",
      "salt": "0x31092bd381af8424f1bb0faada36718e5e88f5999036f31e55cbbfec52aabbb2",
      "assetIds": []
    },
    {
      "x": 154,
      "y": 322,
      "size": 1,
      "price": "1011000000000000000000",
      "reserved": "",
      "salt": "0x34cc32e97b0b8cf2a2fa733aeca521f53b17b9eebe7d703811019aa01f4bb6e4",
      "assetIds": []
    },
    {
      "x": 154,
      "y": 323,
      "size": 1,
      "price": "1011000000000000000000",
      "reserved": "",
      "salt": "0x945f3a55dd6e17c245d6898a5637c36b02e3492286304c0c249d5b8f6fb9da31",
      "assetIds": []
    },
    {
      "x": 154,
      "y": 324,
      "size": 1,
      "price": "1011000000000000000000",
      "reserved": "",
      "salt": "0x92314de5b5bcbeaa3b599dc2715d2c9defa780592a1f7759a6b6091ee9eb4029",
      "assetIds": []
    },
    {
      "x": 154,
      "y": 325,
      "size": 1,
      "price": "1011000000000000000000",
      "reserved": "",
      "salt": "0xfa905fc1699f94d68577fa17426a2f195fa83c72e44b9d9c13031e9ef61020de",
      "assetIds": []
    },
    {
      "x": 154,
      "y": 326,
      "size": 1,
      "price": "1011000000000000000000",
      "reserved": "",
      "salt": "0xe6babd51b53cc995ffb4e5e689f2067ab59d7fef99264c879c40773945c9c6a8",
      "assetIds": []
    },
    {
      "x": 154,
      "y": 327,
      "size": 1,
      "price": "1011000000000000000000",
      "reserved": "",
      "salt": "0x68ab07603654d99f8158099a537f8d51ba59162fbc05f22de5dc14b8e1a0f46e",
      "assetIds": []
    },
    {
      "x": 154,
      "y": 328,
      "size": 1,
      "price": "1011000000000000000000",
      "reserved": "",
      "salt": "0x15438c14e2e3d09ebbb85afcdfe7ad82c8cdf4e493c095b021317bc226a5e811",
      "assetIds": []
    },
    {
      "x": 154,
      "y": 329,
      "size": 1,
      "price": "1011000000000000000000",
      "reserved": "",
      "salt": "0x50d5ad46a7434bfc5e6395e2f1e927d64cbd649fd7f805f0466076a2c4ab13f8",
      "assetIds": []
    },
    {
      "x": 154,
      "y": 330,
      "size": 1,
      "price": "1011000000000000000000",
      "reserved": "",
      "salt": "0x5d8a5ab33959dda7ac4858db3a815174df32367be1c8c28f309ee692ecf5e215",
      "assetIds": []
    },
    {
      "x": 154,
      "y": 331,
      "size": 1,
      "price": "1011000000000000000000",
      "reserved": "0x7a9fe22691c811ea339d9b73150e6911a5343dca",
      "salt": "0x541b24bf28975845ccad97a89f9c006403b7eaa3a44ec58f474dd1b055cd2beb",
      "assetIds": []
    },
    {
      "x": 154,
      "y": 332,
      "size": 1,
      "price": "1011000000000000000000",
      "reserved": "",
      "salt": "0x2fd7bd68885bb914980f9d38c8b17f23bf11516898762d74d04045fc8c3ff7b5",
      "assetIds": []
    },
    {
      "x": 154,
      "y": 333,
      "size": 1,
      "price": "1011000000000000000000",
      "reserved": "0x7a9fe22691c811ea339d9b73150e6911a5343dca",
      "salt": "0x71de3dd0c0dc956c510e8342d967084cfb6aab9e96ca45e75efefe9ff4347322",
      "assetIds": []
    },
    {
      "x": 154,
      "y": 334,
      "size": 1,
      "price": "4683000000000000000000",
      "reserved": "",
      "salt": "0x80a875ec515364d6884457643a52f44ca65f487edb8ed1c0dba03df1c043d1f2",
      "assetIds": [
        "41506478881403507969696680653240014914910929820314476107906210059990541021186"
      ]
    },
    {
      "x": 154,
      "y": 335,
      "size": 1,
      "price": "4683000000000000000000",
      "reserved": "",
      "salt": "0x7b17ec31192293b76870ede836b0f19e46c52d0b33d7e8ca93e5e04574d967c8",
      "assetIds": [
        "41506478881403507969696680653240014914910929820314476107906210059990541021186"
      ]
    },
    {
      "x": 154,
      "y": 342,
      "size": 1,
      "price": "4683000000000000000000",
      "reserved": "",
      "salt": "0xa147294594878cc9912535246e9f1ba67946da0d175420d27a0ed9f22241d6ab",
      "assetIds": [
        "41506478881403507969696680653240014914910929820314476107906210059990541021186"
      ]
    },
    {
      "x": 154,
      "y": 343,
      "size": 1,
      "price": "4683000000000000000000",
      "reserved": "",
      "salt": "0xccab1ee78f32b379bd1c2cbbeee25ea3a211d4f256ae51e7e14ef78ca8d868f1",
      "assetIds": [
        "41506478881403507969696680653240014914910929820314476107906210059990541021186"
      ]
    },
    {
      "x": 154,
      "y": 344,
      "size": 1,
      "price": "4683000000000000000000",
      "reserved": "",
      "salt": "0xbbd61832eebdde5bc4449074df25baf590d8a6085cf89b0fa234537fef97710a",
      "assetIds": [
        "41506478881403507969696680653240014914910929820314476107906210059990541021186"
      ]
    },
    {
      "x": 154,
      "y": 345,
      "size": 1,
      "price": "1011000000000000000000",
      "reserved": "0x7a9fe22691c811ea339d9b73150e6911a5343dca",
      "salt": "0xfe30b38a3edd01a370ffe8e0fa2e2b60f1db55f6a1d77674eefd02720b95767b",
      "assetIds": []
    },
    {
      "x": 154,
      "y": 346,
      "size": 1,
      "price": "1011000000000000000000",
      "reserved": "0x7a9fe22691c811ea339d9b73150e6911a5343dca",
      "salt": "0x096c540220df64680a750c3c01494624a56302759c5dbcd2bb123682f8733e11",
      "assetIds": []
    },
    {
      "x": 154,
      "y": 347,
      "size": 1,
      "price": "1011000000000000000000",
      "reserved": "0x7a9fe22691c811ea339d9b73150e6911a5343dca",
      "salt": "0xfd430a92d11545a2da3e9d393157a231e79900acc5e4722b9c4aae8cb8fcf66d",
      "assetIds": []
    },
    {
      "x": 154,
      "y": 348,
      "size": 1,
      "price": "1011000000000000000000",
      "reserved": "",
      "salt": "0xf980c8a1260c0baf87f7c4edcc3c2c8b3f2db6b0d8f9ac22431300b2c7e6a267",
      "assetIds": []
    },
    {
      "x": 154,
      "y": 349,
      "size": 1,
      "price": "1011000000000000000000",
      "reserved": "0x7a9fe22691c811ea339d9b73150e6911a5343dca",
      "salt": "0xfb5c6f332a747478c3c6d88c866aa0b88f063ff932c27de64546d164f9aea28e",
      "assetIds": []
    },
    {
      "x": 154,
      "y": 350,
      "size": 1,
      "price": "1011000000000000000000",
      "reserved": "",
      "salt": "0x61a220032aacaca9c1638fa4bd082b78b583de33b1e6118a04bae45b8ee5a026",
      "assetIds": []
    },
    {
      "x": 154,
      "y": 351,
      "size": 1,
      "price": "1011000000000000000000",
      "reserved": "0x7a9fe22691c811ea339d9b73150e6911a5343dca",
      "salt": "0xcb499423cac62b31fc9cb6b82e39e90a0526d511fc55870cc834223ee97bb93b",
      "assetIds": []
    },
    {
      "x": 154,
      "y": 352,
      "size": 1,
      "price": "1011000000000000000000",
      "reserved": "",
      "salt": "0x1529785010d96ae02d9c19131faceece3fc82d79ec2e4ef249f4c4fa64995d5f",
      "assetIds": []
    },
    {
      "x": 155,
      "y": 312,
      "size": 1,
      "price": "1011000000000000000000",
      "reserved": "",
      "salt": "0xa7613ef09080892162018185730823428f997ad9526338bd1aa2507e8f6bd8da",
      "assetIds": []
    },
    {
      "x": 155,
      "y": 313,
      "size": 1,
      "price": "1011000000000000000000",
      "reserved": "",
      "salt": "0x1878b384bd3a5c16b72a7ec325b08d5c3fb3d21010283cccf560b7b0d67f7e80",
      "assetIds": []
    },
    {
      "x": 155,
      "y": 314,
      "size": 1,
      "price": "1011000000000000000000",
      "reserved": "",
      "salt": "0xb555cf970f6f579e590b690e1ebc6e302c0c345e73726d5589b3d4713bd0c6e0",
      "assetIds": []
    },
    {
      "x": 155,
      "y": 315,
      "size": 1,
      "price": "1011000000000000000000",
      "reserved": "",
      "salt": "0x1c0139369980f690ce7efe6157f9561a0a82531fd839832d596611bb79de468d",
      "assetIds": []
    },
    {
      "x": 155,
      "y": 316,
      "size": 1,
      "price": "1011000000000000000000",
      "reserved": "",
      "salt": "0x34b24103c2524030358049a35d97b58e07eeefea8afb83f6d9e8ea2a4153d1f3",
      "assetIds": []
    },
    {
      "x": 155,
      "y": 317,
      "size": 1,
      "price": "1011000000000000000000",
      "reserved": "",
      "salt": "0x5146592cc28b67761f3e81a6600e0716d06e78e099ab988db0cf64ffb401d22b",
      "assetIds": []
    },
    {
      "x": 155,
      "y": 318,
      "size": 1,
      "price": "1011000000000000000000",
      "reserved": "",
      "salt": "0x8b89149685d672a7ee42dbd8cedc536f99629e66b2c43dfe42bd5fd567b666f2",
      "assetIds": []
    },
    {
      "x": 155,
      "y": 319,
      "size": 1,
      "price": "1011000000000000000000",
      "reserved": "",
      "salt": "0xfc09205d00dde7e045a33ca2fe717f89edc47d522d020298e050d4508c488bc7",
      "assetIds": []
    },
    {
      "x": 155,
      "y": 320,
      "size": 1,
      "price": "1011000000000000000000",
      "reserved": "",
      "salt": "0x1a3f5e6510f786b2214d8f6653cb3a4a6bad9211f523750793c90b821b59fafc",
      "assetIds": []
    },
    {
      "x": 155,
      "y": 321,
      "size": 1,
      "price": "1011000000000000000000",
      "reserved": "",
      "salt": "0x8a4b9bfc9df57ffc3ec17bd6da74823fa9f0cf19822bd0b1e8c5235c194962d6",
      "assetIds": []
    },
    {
      "x": 155,
      "y": 322,
      "size": 1,
      "price": "1011000000000000000000",
      "reserved": "",
      "salt": "0xd3d27a3501c6295b045b99333e7fab893754793271ea59b63324f3bf4973f199",
      "assetIds": []
    },
    {
      "x": 155,
      "y": 323,
      "size": 1,
      "price": "1011000000000000000000",
      "reserved": "0x7a9fe22691c811ea339d9b73150e6911a5343dca",
      "salt": "0x792c0a482c91c895ea4540304cd94e2c191b701affc55133a2d679c99b597078",
      "assetIds": []
    },
    {
      "x": 155,
      "y": 324,
      "size": 1,
      "price": "1011000000000000000000",
      "reserved": "",
      "salt": "0xe5f88aae8b52f98a9cc83dac7436b4a8172fc1553260cfcc3b70381f0e321c2e",
      "assetIds": []
    },
    {
      "x": 155,
      "y": 325,
      "size": 1,
      "price": "1011000000000000000000",
      "reserved": "",
      "salt": "0x0a76d734f8ed692952b9fd8e52e751cd6d8eda0397fd0097ca1d8543d2d4b927",
      "assetIds": []
    },
    {
      "x": 155,
      "y": 326,
      "size": 1,
      "price": "1011000000000000000000",
      "reserved": "",
      "salt": "0xc85d2b41a473a7eb3e6eb9ea6f98cb53b3f729ccfad315ebf4bb2940d1777ef3",
      "assetIds": []
    },
    {
      "x": 155,
      "y": 327,
      "size": 1,
      "price": "1011000000000000000000",
      "reserved": "",
      "salt": "0x4fb82d6970281ad3183d213611b9e560539b586f6190349d8fa9eb50848d54ff",
      "assetIds": []
    },
    {
      "x": 155,
      "y": 328,
      "size": 1,
      "price": "1011000000000000000000",
      "reserved": "",
      "salt": "0x6a36d150c5dda7a889d99ab7ed6d76fb3db1784f1e802fc844d3517f93018ea9",
      "assetIds": []
    },
    {
      "x": 155,
      "y": 329,
      "size": 1,
      "price": "1011000000000000000000",
      "reserved": "",
      "salt": "0xecde00cd11a34bd3a4466ae66bb1e7600f65175773137b827d747bb12c8a572e",
      "assetIds": []
    },
    {
      "x": 155,
      "y": 330,
      "size": 1,
      "price": "1011000000000000000000",
      "reserved": "",
      "salt": "0x90e4c19c5f6d1cfdf7398f21d2f93acebc99b8d897d18772421ce38929904f3b",
      "assetIds": []
    },
    {
      "x": 155,
      "y": 331,
      "size": 1,
      "price": "1011000000000000000000",
      "reserved": "",
      "salt": "0x5ba3ff3df94745f20935197c87e90d9cf177a89615c969a7745541caa2c74ef9",
      "assetIds": []
    },
    {
      "x": 155,
      "y": 332,
      "size": 1,
      "price": "1011000000000000000000",
      "reserved": "",
      "salt": "0x9f515af64131ae53aaed887a0d17aa3367574e30a3c366d10dc596378bccbd18",
      "assetIds": []
    },
    {
      "x": 155,
      "y": 333,
      "size": 1,
      "price": "1011000000000000000000",
      "reserved": "",
      "salt": "0x3a3d82d335dfd8d7fa240dc3d4fa07d93fe024fac6a01c13557892ffbfcc3937",
      "assetIds": []
    },
    {
      "x": 155,
      "y": 334,
      "size": 1,
      "price": "4683000000000000000000",
      "reserved": "",
      "salt": "0xefcb55e5a2f6eccb3122fb3469717db273340fc8b2d4c098f7d776109013a215",
      "assetIds": [
        "41506478881403507969696680653240014914910929820314476107906210059990541021186"
      ]
    },
    {
      "x": 155,
      "y": 335,
      "size": 1,
      "price": "4683000000000000000000",
      "reserved": "",
      "salt": "0xa758d2b5a96122331b2210513096fec583c9d6469bd1be3947c6ac3056161c65",
      "assetIds": [
        "41506478881403507969696680653240014914910929820314476107906210059990541021186"
      ]
    },
    {
      "x": 155,
      "y": 342,
      "size": 1,
      "price": "4683000000000000000000",
      "reserved": "",
      "salt": "0x77c2d666b8ae79767fd12c1aff20978cd3e98c74dc839ea6c778653f20bc6502",
      "assetIds": [
        "41506478881403507969696680653240014914910929820314476107906210059990541021186"
      ]
    },
    {
      "x": 155,
      "y": 343,
      "size": 1,
      "price": "4683000000000000000000",
      "reserved": "",
      "salt": "0xb45c0f86941aa4a9920501770c9c2cf59f7ac29bc452b9d99d6d64737b00ca4a",
      "assetIds": [
        "41506478881403507969696680653240014914910929820314476107906210059990541021186"
      ]
    },
    {
      "x": 155,
      "y": 344,
      "size": 1,
      "price": "4683000000000000000000",
      "reserved": "",
      "salt": "0x3abed80b9a88a8f384424db192607c8333d5e7b14274a70a5520a76822c49723",
      "assetIds": [
        "41506478881403507969696680653240014914910929820314476107906210059990541021186"
      ]
    },
    {
      "x": 155,
      "y": 345,
      "size": 1,
      "price": "4683000000000000000000",
      "reserved": "",
      "salt": "0xcde01624e5e54a3ea764b44ed39b5c61ee54f709d1a257e2e613ddc55a4a0759",
      "assetIds": [
        "41506478881403507969696680653240014914910929820314476107906210059990541021186"
      ]
    },
    {
      "x": 155,
      "y": 346,
      "size": 1,
      "price": "4683000000000000000000",
      "reserved": "",
      "salt": "0x13be0e44513e0b797b42f6ba8bdab523699194e021c8d0534fd4496101cac2c1",
      "assetIds": [
        "41506478881403507969696680653240014914910929820314476107906210059990541021186"
      ]
    },
    {
      "x": 155,
      "y": 347,
      "size": 1,
      "price": "4683000000000000000000",
      "reserved": "",
      "salt": "0xcfa3015614e73abf03338220b3d87a009ccd7273de060145c69e3efce14adb94",
      "assetIds": [
        "41506478881403507969696680653240014914910929820314476107906210059990541021186"
      ]
    },
    {
      "x": 155,
      "y": 348,
      "size": 1,
      "price": "1011000000000000000000",
      "reserved": "",
      "salt": "0x8906ba5a2d31c5456851f1389a37c7a5849fe9fba6ab12514adf7c7829b1c6b6",
      "assetIds": []
    },
    {
      "x": 155,
      "y": 349,
      "size": 1,
      "price": "1011000000000000000000",
      "reserved": "",
      "salt": "0x15a83380b4ef7f0b89ae405a1ac29488253200ea43100f44156ab2c0c76aab99",
      "assetIds": []
    },
    {
      "x": 155,
      "y": 350,
      "size": 1,
      "price": "1011000000000000000000",
      "reserved": "",
      "salt": "0xc12e365bdad9ee238dbaaedd3fc799f2590ca7c68ad8dcbaa05f85c7b887f451",
      "assetIds": []
    },
    {
      "x": 155,
      "y": 351,
      "size": 1,
      "price": "1011000000000000000000",
      "reserved": "",
      "salt": "0xd76aea5a41020cdf6c9e9f58905265b0ba5115f9af76d8f037e812266ba2eaa7",
      "assetIds": []
    },
    {
      "x": 155,
      "y": 352,
      "size": 1,
      "price": "1011000000000000000000",
      "reserved": "0x7a9fe22691c811ea339d9b73150e6911a5343dca",
      "salt": "0x56b0cff48c8d933edbc0ec4ec0f5528160f6728d673c735cb3ebd2e9b8de9402",
      "assetIds": []
    },
    {
      "x": 156,
      "y": 324,
      "size": 1,
      "price": "1011000000000000000000",
      "reserved": "",
      "salt": "0x1038b6a4112567bfee51c82117d6c85fce88c629cb4e111cebb2099db03bff89",
      "assetIds": []
    },
    {
      "x": 156,
      "y": 325,
      "size": 1,
      "price": "1011000000000000000000",
      "reserved": "",
      "salt": "0xa86c46b5cc49bb3575198923dd0e704f78a339a289eacbdb9daacda8b61848ab",
      "assetIds": []
    },
    {
      "x": 156,
      "y": 326,
      "size": 1,
      "price": "1011000000000000000000",
      "reserved": "0x7a9fe22691c811ea339d9b73150e6911a5343dca",
      "salt": "0x606fb4b8f9624a55bc7ce9f252e6bae1ce34e9354edcb51dc16d7e686800a83d",
      "assetIds": []
    },
    {
      "x": 156,
      "y": 327,
      "size": 1,
      "price": "1011000000000000000000",
      "reserved": "",
      "salt": "0xdd11f11ac3c8682c0d02a2c607acc10bdd73b91433486af8f4d309da2e18a5f3",
      "assetIds": []
    },
    {
      "x": 156,
      "y": 328,
      "size": 1,
      "price": "1011000000000000000000",
      "reserved": "",
      "salt": "0xfc9bd86f2dd308be77f2d2b0e569be0beabb2671aa8a007f6044cfe12a4ef5cf",
      "assetIds": []
    },
    {
      "x": 156,
      "y": 329,
      "size": 1,
      "price": "1011000000000000000000",
      "reserved": "",
      "salt": "0x28c4fa074c69ad85d8430be01393b4433797aa1a0a64c8b549e03d86bc32b47c",
      "assetIds": []
    },
    {
      "x": 156,
      "y": 330,
      "size": 1,
      "price": "1011000000000000000000",
      "reserved": "",
      "salt": "0x53eadc0e6956fdcd36d4d4d98c3a66839534c3a601714519a3fcce0349e531e9",
      "assetIds": []
    },
    {
      "x": 156,
      "y": 331,
      "size": 1,
      "price": "1011000000000000000000",
      "reserved": "0x7a9fe22691c811ea339d9b73150e6911a5343dca",
      "salt": "0x4dc4994043e6586c2a4ddfa6426b7a1f7acee14c195e968bd2d3d3931d54c078",
      "assetIds": []
    },
    {
      "x": 156,
      "y": 332,
      "size": 1,
      "price": "1011000000000000000000",
      "reserved": "",
      "salt": "0x455c802f7028895c9a029926e33725182da35ea5d7082d0dd34defe8dafa85f6",
      "assetIds": []
    },
    {
      "x": 156,
      "y": 333,
      "size": 1,
      "price": "1011000000000000000000",
      "reserved": "0x7a9fe22691c811ea339d9b73150e6911a5343dca",
      "salt": "0xb35db22a5ec0089d2646b722e6cced6e1777b5e6ba587722642a47704e02952e",
      "assetIds": []
    },
    {
      "x": 156,
      "y": 334,
      "size": 1,
      "price": "1011000000000000000000",
      "reserved": "",
      "salt": "0x03578c613dd1338bd9d6e04f73bd62573886e4920840d61d59cb84602f1f9937",
      "assetIds": []
    },
    {
      "x": 156,
      "y": 335,
      "size": 1,
      "price": "4683000000000000000000",
      "reserved": "",
      "salt": "0xe0c3eeb588e8991590759ad3284e39bf18cde10da204dfba030f239d6ac7e778",
      "assetIds": [
        "41506478881403507969696680653240014914910929820314476107906210059990541021186"
      ]
    },
    {
      "x": 156,
      "y": 348,
      "size": 1,
      "price": "4683000000000000000000",
      "reserved": "",
      "salt": "0x0ac3170bc0b6ae458a877bb7b90f0ad684677a4edcfb3e49a3e1f019036be844",
      "assetIds": [
        "41506478881403507969696680653240014914910929820314476107906210059990541021186"
      ]
    },
    {
      "x": 156,
      "y": 349,
      "size": 1,
      "price": "4683000000000000000000",
      "reserved": "",
      "salt": "0xe46142b9ddd4a751770ff03c1a4f38c79c6512a9e3b677df933674a565d91f87",
      "assetIds": [
        "41506478881403507969696680653240014914910929820314476107906210059990541021186"
      ]
    },
    {
      "x": 156,
      "y": 350,
      "size": 1,
      "price": "1011000000000000000000",
      "reserved": "",
      "salt": "0x6d93759c93df51219fdbd14d5148999e93f54550ceda2d2873dc5440543ad7c5",
      "assetIds": []
    },
    {
      "x": 156,
      "y": 351,
      "size": 1,
      "price": "1011000000000000000000",
      "reserved": "",
      "salt": "0xbf617494a1ed25a6b2e08d7e4b84d7bcc1f1e309a4199876f34cef5f90b700e3",
      "assetIds": []
    },
    {
      "x": 156,
      "y": 352,
      "size": 1,
      "price": "1011000000000000000000",
      "reserved": "",
      "salt": "0xdbc59a109ccb856499225161c6856cb4d6840c91f45dfe7770dd71949150e0b1",
      "assetIds": []
    },
    {
      "x": 157,
      "y": 324,
      "size": 1,
      "price": "4683000000000000000000",
      "reserved": "",
      "salt": "0xc33fae2dca6a878f34e216143707aab4c7d5b184eb6fa370a1f90d4e1324bd4b",
      "assetIds": [
        "41506478881403507969696680653240014914910929820314476107906210059990541021186"
      ]
    },
    {
      "x": 157,
      "y": 325,
      "size": 1,
      "price": "1011000000000000000000",
      "reserved": "0x7a9fe22691c811ea339d9b73150e6911a5343dca",
      "salt": "0x1402053733f2b4bc2ad05b44e96b91bf6f0af659d054f4580ff1b5524fccca56",
      "assetIds": []
    },
    {
      "x": 157,
      "y": 326,
      "size": 1,
      "price": "1011000000000000000000",
      "reserved": "",
      "salt": "0x85f429f68cd35a101f61b90741d4059a9a706ca959f01a8bcd9ec7fd29d68f88",
      "assetIds": []
    },
    {
      "x": 157,
      "y": 327,
      "size": 1,
      "price": "1011000000000000000000",
      "reserved": "",
      "salt": "0x5fcba5520991dd82f1a20ad5073b924b05299cfedf76d6a24df0fba57e04faaa",
      "assetIds": []
    },
    {
      "x": 157,
      "y": 328,
      "size": 1,
      "price": "1011000000000000000000",
      "reserved": "0x7a9fe22691c811ea339d9b73150e6911a5343dca",
      "salt": "0x7e9d223721dd70c51262a323eb4894e654f886f1ca35fcdf61edbe84716571d1",
      "assetIds": []
    },
    {
      "x": 157,
      "y": 329,
      "size": 1,
      "price": "1011000000000000000000",
      "reserved": "",
      "salt": "0xce51949605781ec6b421c2c82c474c8f2b1538f7fcafa8b12adf08d11a50e875",
      "assetIds": []
    },
    {
      "x": 157,
      "y": 330,
      "size": 1,
      "price": "1011000000000000000000",
      "reserved": "",
      "salt": "0xbb10e8c237b09c5f20317df1557ea3600dad02f05b4fc3db4aff3a8c149287a5",
      "assetIds": []
    },
    {
      "x": 157,
      "y": 331,
      "size": 1,
      "price": "1011000000000000000000",
      "reserved": "",
      "salt": "0x990e236edfec46ed0feddfa132bbc5fdcec33dfcd71d1a009c45b413b382c1bc",
      "assetIds": []
    },
    {
      "x": 157,
      "y": 332,
      "size": 1,
      "price": "1011000000000000000000",
      "reserved": "",
      "salt": "0x2987b6251fb9c381877ae9ffe17974dc0412d5694f797445776e8474e4397114",
      "assetIds": []
    },
    {
      "x": 157,
      "y": 333,
      "size": 1,
      "price": "1011000000000000000000",
      "reserved": "",
      "salt": "0xdefc14467ef2fad199db5d1a7e5a90d0af48a671a90da9c52d1e242c0f8dce94",
      "assetIds": []
    },
    {
      "x": 157,
      "y": 334,
      "size": 1,
      "price": "1011000000000000000000",
      "reserved": "",
      "salt": "0x295f874214e317300d1de36c0ee9c36683b4ac8ae0c3fefd369de8cb17541175",
      "assetIds": []
    },
    {
      "x": 157,
      "y": 335,
      "size": 1,
      "price": "4683000000000000000000",
      "reserved": "",
      "salt": "0xcf89087ef6af2d74791021cf977cfda38ca993cfb1621f81cffacbbdbb422059",
      "assetIds": [
        "41506478881403507969696680653240014914910929820314476107906210059990541021186"
      ]
    },
    {
      "x": 157,
      "y": 348,
      "size": 1,
      "price": "4683000000000000000000",
      "reserved": "",
      "salt": "0x8f7684ba5b8a89d6d92d18e13e7addf2c258ad9237590284f28157a485bd8326",
      "assetIds": [
        "41506478881403507969696680653240014914910929820314476107906210059990541021186"
      ]
    },
    {
      "x": 157,
      "y": 349,
      "size": 1,
      "price": "1011000000000000000000",
      "reserved": "0x7a9fe22691c811ea339d9b73150e6911a5343dca",
      "salt": "0x41f227945ec326e437d9bbe5d0abf90d66eabc62f68fcede524036b3cbbc12e3",
      "assetIds": []
    },
    {
      "x": 157,
      "y": 350,
      "size": 1,
      "price": "1011000000000000000000",
      "reserved": "",
      "salt": "0x9bfa278490a91d64a904d631138ad078be4514e75b588a0e899cc436b26aa21e",
      "assetIds": []
    },
    {
      "x": 157,
      "y": 351,
      "size": 1,
      "price": "1011000000000000000000",
      "reserved": "0x7a9fe22691c811ea339d9b73150e6911a5343dca",
      "salt": "0x9c5f633074fd32c24fee041bf6234291a34db0bca418f3b2ab38b49239a871f3",
      "assetIds": []
    },
    {
      "x": 157,
      "y": 352,
      "size": 1,
      "price": "1011000000000000000000",
      "reserved": "",
      "salt": "0xd2f684f29043cb4c6421b3eaf13b28bec7ddccaae01d74ad08d789679db1e738",
      "assetIds": []
    },
    {
      "x": 158,
      "y": 324,
      "size": 1,
      "price": "4683000000000000000000",
      "reserved": "",
      "salt": "0x0a515f0ef3ae9bd9555dd4cd31e05ee11d68702c6fba888d8865f21ea67a8938",
      "assetIds": [
        "41506478881403507969696680653240014914910929820314476107906210059990541021186"
      ]
    },
    {
      "x": 158,
      "y": 325,
      "size": 1,
      "price": "1011000000000000000000",
      "reserved": "",
      "salt": "0x83876d6f47d508a00e75d8831655113c65c435c19cccacfd45db6444bd2da9c6",
      "assetIds": []
    },
    {
      "x": 158,
      "y": 326,
      "size": 1,
      "price": "1011000000000000000000",
      "reserved": "",
      "salt": "0x666620104499b67a5c93ebb53000dfaa4f6f603947bd8ab20098c3a9cb5c1dfa",
      "assetIds": []
    },
    {
      "x": 158,
      "y": 327,
      "size": 1,
      "price": "1011000000000000000000",
      "reserved": "",
      "salt": "0x1c4e812133e926ca9abb7b1d748bcef1e89b5c652447b95490dec660070dc60e",
      "assetIds": []
    },
    {
      "x": 158,
      "y": 328,
      "size": 1,
      "price": "1011000000000000000000",
      "reserved": "",
      "salt": "0xd39a09788ba35afde00b96bc3e583a3504cf21363faedf23771ad5d5f9b40115",
      "assetIds": []
    },
    {
      "x": 158,
      "y": 329,
      "size": 1,
      "price": "1011000000000000000000",
      "reserved": "",
      "salt": "0xecddf664930f560ff0a661db74a222b84d932d87e995ec62a27de7a2069455c9",
      "assetIds": []
    },
    {
      "x": 158,
      "y": 330,
      "size": 1,
      "price": "1011000000000000000000",
      "reserved": "",
      "salt": "0x71ff2115c3e9020ed2e536cdf92501db6d84c85f17ce7a3877c4ed932c7c1151",
      "assetIds": []
    },
    {
      "x": 158,
      "y": 331,
      "size": 1,
      "price": "1011000000000000000000",
      "reserved": "",
      "salt": "0x10144b04303783f3bed87a085fa0d537357b914bfebdb889ea2171ccf8713075",
      "assetIds": []
    },
    {
      "x": 158,
      "y": 332,
      "size": 1,
      "price": "1011000000000000000000",
      "reserved": "",
      "salt": "0xdce7c0aa6358303c0f642b50133badd6eb26f04ae7597d79f74e87de73894acb",
      "assetIds": []
    },
    {
      "x": 158,
      "y": 333,
      "size": 1,
      "price": "1011000000000000000000",
      "reserved": "0x7a9fe22691c811ea339d9b73150e6911a5343dca",
      "salt": "0x9ecf47a11deb0c3ea4a790e198f74267709bfe7efc69c45290dc8bf979437aca",
      "assetIds": []
    },
    {
      "x": 158,
      "y": 334,
      "size": 1,
      "price": "1011000000000000000000",
      "reserved": "0x7a9fe22691c811ea339d9b73150e6911a5343dca",
      "salt": "0x7f04c86caddc8270aeda6686bd51b505f11a9cb11034f608631817df0606ec08",
      "assetIds": []
    },
    {
      "x": 158,
      "y": 335,
      "size": 1,
      "price": "4683000000000000000000",
      "reserved": "",
      "salt": "0xfe5924262116bf3ace8056a945b84550eae4e3795d167f881bbe015513c44663",
      "assetIds": [
        "41506478881403507969696680653240014914910929820314476107906210059990541021186"
      ]
    },
    {
      "x": 158,
      "y": 348,
      "size": 1,
      "price": "4683000000000000000000",
      "reserved": "",
      "salt": "0xceb87646c208f9535320d7bdb994b427d88096f1e71e89d52cf5de9a834403a3",
      "assetIds": [
        "41506478881403507969696680653240014914910929820314476107906210059990541021186"
      ]
    },
    {
      "x": 158,
      "y": 349,
      "size": 1,
      "price": "4683000000000000000000",
      "reserved": "",
      "salt": "0xc249fffce82b424e798d3e1802ab2a82135be0b15b0bc0db84b8558e90f0f8e7",
      "assetIds": [
        "41506478881403507969696680653240014914910929820314476107906210059990541021186"
      ]
    },
    {
      "x": 158,
      "y": 350,
      "size": 1,
      "price": "1011000000000000000000",
      "reserved": "",
      "salt": "0x39db996663d73ddc7c43a9d7b5da54a99056dfbdca008f215190b6333c8aabb6",
      "assetIds": []
    },
    {
      "x": 158,
      "y": 351,
      "size": 1,
      "price": "1011000000000000000000",
      "reserved": "",
      "salt": "0xe29ec234b1fc996f3a04d2d190ca20cbe5c1b3fd4056ded9815ce37469b3864e",
      "assetIds": []
    },
    {
      "x": 158,
      "y": 352,
      "size": 1,
      "price": "1011000000000000000000",
      "reserved": "",
      "salt": "0x93cb061ece2a69dab4734bd6d01b1a52dcda4631886986599aebfe3a19516350",
      "assetIds": []
    },
    {
      "x": 159,
      "y": 324,
      "size": 1,
      "price": "4683000000000000000000",
      "reserved": "",
      "salt": "0xeadeac006e607846b525e87d7d336d60be11c8a85558d7db271f9f62203e00eb",
      "assetIds": [
        "41506478881403507969696680653240014914910929820314476107906210059990541021186"
      ]
    },
    {
      "x": 159,
      "y": 325,
      "size": 1,
      "price": "1011000000000000000000",
      "reserved": "",
      "salt": "0xddd9e17cca8f09e5d16aad3ddf1d851f6292b203ba86fbc70c270426e59223a7",
      "assetIds": []
    },
    {
      "x": 159,
      "y": 326,
      "size": 1,
      "price": "1011000000000000000000",
      "reserved": "",
      "salt": "0x0ebb7a7d3c5029dfac607818cfbb74d1548468e30297ce4a6f68a5a5c3fba3bf",
      "assetIds": []
    },
    {
      "x": 159,
      "y": 327,
      "size": 1,
      "price": "1011000000000000000000",
      "reserved": "",
      "salt": "0xeca8dfdf6aae75694864ba10b3faa2755bc9f2b24df0f1124838e4947117aa30",
      "assetIds": []
    },
    {
      "x": 159,
      "y": 328,
      "size": 1,
      "price": "1011000000000000000000",
      "reserved": "0x7a9fe22691c811ea339d9b73150e6911a5343dca",
      "salt": "0x3d8e269361af1326319ca1726d34fc170ba725be8170a83c6dcf1872a197c19b",
      "assetIds": []
    },
    {
      "x": 159,
      "y": 329,
      "size": 1,
      "price": "1011000000000000000000",
      "reserved": "",
      "salt": "0x11de834ff93db45cbf76d12e2b8fb3701e865eb201d1b4a2b1b7916afbcf7b12",
      "assetIds": []
    },
    {
      "x": 159,
      "y": 330,
      "size": 1,
      "price": "1011000000000000000000",
      "reserved": "",
      "salt": "0xfe3f650136477c938da691837bf0ed571ad1580a9e09fecdc34ff6084775f337",
      "assetIds": []
    },
    {
      "x": 159,
      "y": 331,
      "size": 1,
      "price": "1011000000000000000000",
      "reserved": "",
      "salt": "0xdf7a95d5f6930dea4cb4ba9e6eadce1573cabb9ac83e8ffe1b58190a83f86553",
      "assetIds": []
    },
    {
      "x": 159,
      "y": 332,
      "size": 1,
      "price": "1011000000000000000000",
      "reserved": "",
      "salt": "0xed8aedff6aa32ab6484f8d15ed5871202711e5b39da30480f48ed7b5f114964b",
      "assetIds": []
    },
    {
      "x": 159,
      "y": 333,
      "size": 1,
      "price": "1011000000000000000000",
      "reserved": "",
      "salt": "0xee0849e074b1b8f797d01dd85cddea63f141c9d9902bc1d3b6d300a24d218cb1",
      "assetIds": []
    },
    {
      "x": 159,
      "y": 334,
      "size": 1,
      "price": "1011000000000000000000",
      "reserved": "",
      "salt": "0x8dcc5826d5d2297f2e0a2d54515cc90b54250054621a3dfc28e611b06ae4b4eb",
      "assetIds": []
    },
    {
      "x": 159,
      "y": 335,
      "size": 1,
      "price": "4683000000000000000000",
      "reserved": "",
      "salt": "0xdc1a61b3c56a4687d1d6c8049e8f6fb6a8ac99504a96a283b4357b9a627d236b",
      "assetIds": [
        "41506478881403507969696680653240014914910929820314476107906210059990541021186"
      ]
    },
    {
      "x": 159,
      "y": 348,
      "size": 1,
      "price": "4683000000000000000000",
      "reserved": "",
      "salt": "0x0d79367933a9973beb2eb8c4e17f730a258400b2b06a8cb391b9f08a271b0cf7",
      "assetIds": [
        "41506478881403507969696680653240014914910929820314476107906210059990541021186"
      ]
    },
    {
      "x": 159,
      "y": 349,
      "size": 1,
      "price": "1011000000000000000000",
      "reserved": "",
      "salt": "0x8778acca081296c317e834376d401bb7ccbad0ad24dedde9a41f388d6468cf62",
      "assetIds": []
    },
    {
      "x": 159,
      "y": 350,
      "size": 1,
      "price": "1011000000000000000000",
      "reserved": "",
      "salt": "0x61c2be1d5155fefa03cbe3a76fae0e226d9efd6b6a156c27e4e5b2b7ae59d1bc",
      "assetIds": []
    },
    {
      "x": 159,
      "y": 351,
      "size": 1,
      "price": "1011000000000000000000",
      "reserved": "",
      "salt": "0x79848c17e4e0b8f09a4d3338c2c7ab8264e7d441fefff86aef783c186b908966",
      "assetIds": []
    },
    {
      "x": 159,
      "y": 352,
      "size": 1,
      "price": "1011000000000000000000",
      "reserved": "0x7a9fe22691c811ea339d9b73150e6911a5343dca",
      "salt": "0x32f3df64ec14d1a700b614ebf2c8938e7e616b0001db0609b27b6910a4cbd568",
      "assetIds": []
    },
    {
      "x": 160,
      "y": 324,
      "size": 1,
      "price": "4683000000000000000000",
      "reserved": "",
      "salt": "0x2dbad1e4b01c6c6d8910d882137a1cf58579e846495c97dfe06fde8fccbc9861",
      "assetIds": [
        "41506478881403507969696680653240014914910929820314476107906210059990541021186"
      ]
    },
    {
      "x": 160,
      "y": 325,
      "size": 1,
      "price": "4683000000000000000000",
      "reserved": "",
      "salt": "0xc8c0aff400dd131add8ce8473e0ba6f65e316727bd5a7eece387e53fcb0e19af",
      "assetIds": [
        "41506478881403507969696680653240014914910929820314476107906210059990541021186"
      ]
    },
    {
      "x": 160,
      "y": 326,
      "size": 1,
      "price": "1011000000000000000000",
      "reserved": "",
      "salt": "0xfaf0a5ca9eaf33c53ffdb911963e22b806c529499aad2105dad3b7a7a561b054",
      "assetIds": []
    },
    {
      "x": 160,
      "y": 327,
      "size": 1,
      "price": "1011000000000000000000",
      "reserved": "0x7a9fe22691c811ea339d9b73150e6911a5343dca",
      "salt": "0x9017edcd00d926ec7b1f042d9f31f0eff31c9761672ed57fab03b336fb826af8",
      "assetIds": []
    },
    {
      "x": 160,
      "y": 328,
      "size": 1,
      "price": "1011000000000000000000",
      "reserved": "",
      "salt": "0x3388d07d969d6a04a50ee3940aa1ebef8e473a0fd25adaa70aad53b0ff2af94f",
      "assetIds": []
    },
    {
      "x": 160,
      "y": 329,
      "size": 1,
      "price": "1011000000000000000000",
      "reserved": "",
      "salt": "0x6617f2e790206474b76c6c7a5e0ab5ce1d6c1c98b2f1f782bb17e0332269e1ba",
      "assetIds": []
    },
    {
      "x": 160,
      "y": 330,
      "size": 1,
      "price": "1011000000000000000000",
      "reserved": "",
      "salt": "0x3b52dd240cf1f032029701040f40b60f36230fb03a0fc4913ad976938acd5ec5",
      "assetIds": []
    },
    {
      "x": 160,
      "y": 331,
      "size": 1,
      "price": "1011000000000000000000",
      "reserved": "0x7a9fe22691c811ea339d9b73150e6911a5343dca",
      "salt": "0xf5e125c1c419e897188bae3c39c5f53d5e597662706f9c8b350786089240a88d",
      "assetIds": []
    },
    {
      "x": 160,
      "y": 332,
      "size": 1,
      "price": "1011000000000000000000",
      "reserved": "",
      "salt": "0x034db3f11a2da9a48e4a64e021e0477cb592be59ac35f3290cce7a1b369be72c",
      "assetIds": []
    },
    {
      "x": 160,
      "y": 333,
      "size": 1,
      "price": "1011000000000000000000",
      "reserved": "",
      "salt": "0xe2cf21b62e5ccf674ef96d7f33ce44cab8e2a500f6e7ef6bc2d083210ecbfe45",
      "assetIds": []
    },
    {
      "x": 160,
      "y": 334,
      "size": 1,
      "price": "1011000000000000000000",
      "reserved": "",
      "salt": "0x3edc430695f64b15f10fb682e6fbc173f3dce4125c230722d1ce8564ec1aec10",
      "assetIds": []
    },
    {
      "x": 160,
      "y": 335,
      "size": 1,
      "price": "4683000000000000000000",
      "reserved": "",
      "salt": "0xed682d339e79c9b0e28def112e5df44e523e551c40fd65cb637d2b0f4eae2a80",
      "assetIds": [
        "41506478881403507969696680653240014914910929820314476107906210059990541021186"
      ]
    },
    {
      "x": 160,
      "y": 348,
      "size": 1,
      "price": "4683000000000000000000",
      "reserved": "",
      "salt": "0xcfbe8e9aacd62c45d305d29e7d5321918a5885b8783d1abec11a5f47b83fc3b8",
      "assetIds": [
        "41506478881403507969696680653240014914910929820314476107906210059990541021186"
      ]
    },
    {
      "x": 160,
      "y": 349,
      "size": 1,
      "price": "1011000000000000000000",
      "reserved": "",
      "salt": "0xed56d43ab5d91f78c22bc767f209564025e3de63223e7b51997764775c8c3e2d",
      "assetIds": []
    },
    {
      "x": 160,
      "y": 350,
      "size": 1,
      "price": "1011000000000000000000",
      "reserved": "0x7a9fe22691c811ea339d9b73150e6911a5343dca",
      "salt": "0x7f86970ffdb189327a68cb7bfefcde5d8e67447a0f94de2f6f888b234acb4b93",
      "assetIds": []
    },
    {
      "x": 160,
      "y": 351,
      "size": 1,
      "price": "1011000000000000000000",
      "reserved": "",
      "salt": "0x1f66fb82ccaf8e693010264f14c90e7c294ff0a8f89905fad9050b99cad9a849",
      "assetIds": []
    },
    {
      "x": 160,
      "y": 352,
      "size": 1,
      "price": "1011000000000000000000",
      "reserved": "0x7a9fe22691c811ea339d9b73150e6911a5343dca",
      "salt": "0xbfef6e6ac8aa17edceccecc03be2ef4f06465d5d984975eab0b9b88f0565255e",
      "assetIds": []
    },
    {
      "x": 161,
      "y": 324,
      "size": 1,
      "price": "4683000000000000000000",
      "reserved": "",
      "salt": "0xd762931354f2f64066d9717979292a3ed64ccd9551aba70bed052b61320a4aa4",
      "assetIds": [
        "41506478881403507969696680653240014914910929820314476107906210059990541021186"
      ]
    },
    {
      "x": 161,
      "y": 325,
      "size": 1,
      "price": "4683000000000000000000",
      "reserved": "",
      "salt": "0xec0c4124cb1b827f93d662ed6b3b9ce60ca8379e674aec48a02ec749eb977340",
      "assetIds": [
        "41506478881403507969696680653240014914910929820314476107906210059990541021186"
      ]
    },
    {
      "x": 161,
      "y": 326,
      "size": 1,
      "price": "1011000000000000000000",
      "reserved": "",
      "salt": "0x8214bd40db6dd6d85c5688e6bf4f535f4f0c3d9b8029be33564680e4b90490db",
      "assetIds": []
    },
    {
      "x": 161,
      "y": 327,
      "size": 1,
      "price": "1011000000000000000000",
      "reserved": "",
      "salt": "0x4203b1218e4b67309e5338dbeb3be88aa742fd2f987009245c5a32b36afba097",
      "assetIds": []
    },
    {
      "x": 161,
      "y": 328,
      "size": 1,
      "price": "1011000000000000000000",
      "reserved": "0x7a9fe22691c811ea339d9b73150e6911a5343dca",
      "salt": "0x3180e99d4f73071e342167cab431f6bd97f74268ea4e7ccbc0fff1ae5555360b",
      "assetIds": []
    },
    {
      "x": 161,
      "y": 329,
      "size": 1,
      "price": "1011000000000000000000",
      "reserved": "",
      "salt": "0xcd8f46b01e909ff09eee19c6582d99ffa5ab533549c9cd8e0fefa89c7c7ed757",
      "assetIds": []
    },
    {
      "x": 161,
      "y": 330,
      "size": 1,
      "price": "1011000000000000000000",
      "reserved": "",
      "salt": "0xf2bbf2eb9cbf9a7270cab384498c73bedcd628c36ec63514124f8ee7f0f723c1",
      "assetIds": []
    },
    {
      "x": 161,
      "y": 331,
      "size": 1,
      "price": "1011000000000000000000",
      "reserved": "",
      "salt": "0xbfca4b7589a5a9d1bd8f85e9afcc897e549980754a6a0f48057cbda6e3cad419",
      "assetIds": []
    },
    {
      "x": 161,
      "y": 332,
      "size": 1,
      "price": "1011000000000000000000",
      "reserved": "",
      "salt": "0x3f6ad50a62a2bc4eddd9fb60cd4eb9e5a919dcd0af4b6a6a7436e4d2cfd5b6d7",
      "assetIds": []
    },
    {
      "x": 161,
      "y": 333,
      "size": 1,
      "price": "1011000000000000000000",
      "reserved": "",
      "salt": "0x4c62769634d97bb46e2852d6e2553e3b6a74cf15a5c093f4cfecb96aa480a9ef",
      "assetIds": []
    },
    {
      "x": 161,
      "y": 334,
      "size": 1,
      "price": "1011000000000000000000",
      "reserved": "",
      "salt": "0xdc266ead1e11c51438ac7ff50a16b6b4d704b85f059b76981b3f3e3aff695633",
      "assetIds": []
    },
    {
      "x": 161,
      "y": 335,
      "size": 1,
      "price": "4683000000000000000000",
      "reserved": "",
      "salt": "0xa962efc1ce792ffa7e442411de9f417f0f46a8a4f00da1c1870e9128c4d1b3cd",
      "assetIds": [
        "41506478881403507969696680653240014914910929820314476107906210059990541021186"
      ]
    },
    {
      "x": 161,
      "y": 348,
      "size": 1,
      "price": "4683000000000000000000",
      "reserved": "",
      "salt": "0x4a2b67512ba14f3631eb6bd06eaf7559fa77fb8d8ba49c76def8dca8949bccac",
      "assetIds": [
        "41506478881403507969696680653240014914910929820314476107906210059990541021186"
      ]
    },
    {
      "x": 161,
      "y": 349,
      "size": 1,
      "price": "1011000000000000000000",
      "reserved": "",
      "salt": "0xee7843d8e20ebf04f8dbf9dd2259c6c9e5dafde708ff059d5c066f713f4dba8c",
      "assetIds": []
    },
    {
      "x": 161,
      "y": 350,
      "size": 1,
      "price": "1011000000000000000000",
      "reserved": "",
      "salt": "0x8e158d502998ca00c5f86acb935ab590ae2130ef58c713d63be18e72336c2f3f",
      "assetIds": []
    },
    {
      "x": 161,
      "y": 351,
      "size": 1,
      "price": "1011000000000000000000",
      "reserved": "",
      "salt": "0x7d7b9ef613dc76642cf9ab88cf2b8792fd2fbc3cc70d8c814228f2924d92806a",
      "assetIds": []
    },
    {
      "x": 161,
      "y": 352,
      "size": 1,
      "price": "1011000000000000000000",
      "reserved": "0x7a9fe22691c811ea339d9b73150e6911a5343dca",
      "salt": "0x767b6f93146f52e3e506abfe650ad6d20d8d5f32e3ee47597f0461b087b9f4ef",
      "assetIds": []
    },
    {
      "x": 162,
      "y": 330,
      "size": 1,
      "price": "1011000000000000000000",
      "reserved": "",
      "salt": "0xa2fb7e4a39482ef7457f291009eced3c15d1f62fa92faa24d9a2896e8a979eb5",
      "assetIds": []
    },
    {
      "x": 162,
      "y": 331,
      "size": 1,
      "price": "1011000000000000000000",
      "reserved": "",
      "salt": "0x1378c3b31aa6f6e0f06c22e3b5f60169c488cd183d66914368b4a3d937901ef1",
      "assetIds": []
    },
    {
      "x": 162,
      "y": 332,
      "size": 1,
      "price": "1011000000000000000000",
      "reserved": "",
      "salt": "0x91399fbf2fc7340e4bf19d51eadf94bbd1c1848839d0624a1bf7f9715990d4ac",
      "assetIds": []
    },
    {
      "x": 162,
      "y": 333,
      "size": 1,
      "price": "1011000000000000000000",
      "reserved": "",
      "salt": "0x1b141824f6a0ebfa748a0940190763831820ab3c764f36630d3b940575530fd2",
      "assetIds": []
    },
    {
      "x": 162,
      "y": 334,
      "size": 1,
      "price": "4683000000000000000000",
      "reserved": "",
      "salt": "0xcd7572e468062d4371da74be85dcf5dd34cb338ae0d3f73c54755da7f289e210",
      "assetIds": [
        "41506478881403507969696680653240014914910929820314476107906210059990541021186"
      ]
    },
    {
      "x": 162,
      "y": 335,
      "size": 1,
      "price": "4683000000000000000000",
      "reserved": "",
      "salt": "0xed2d781a335e81675d84845afb24068a26a92d515101a1b8b863a3570a648c00",
      "assetIds": [
        "41506478881403507969696680653240014914910929820314476107906210059990541021186"
      ]
    },
    {
      "x": 162,
      "y": 348,
      "size": 1,
      "price": "4683000000000000000000",
      "reserved": "",
      "salt": "0x6ad2f4c78703c3bee90a4e5faad1a26036dfabe6fcab21d14f673f9abc6e9251",
      "assetIds": [
        "41506478881403507969696680653240014914910929820314476107906210059990541021186"
      ]
    },
    {
      "x": 162,
      "y": 349,
      "size": 1,
      "price": "1011000000000000000000",
      "reserved": "",
      "salt": "0x19f5486b4fc7b598f3d13191e0492a6a3817e9007f4cbe8d6991866ee16a5749",
      "assetIds": []
    },
    {
      "x": 162,
      "y": 350,
      "size": 1,
      "price": "1011000000000000000000",
      "reserved": "",
      "salt": "0xc14bcb7e1a3e3038037fb8c8ae31e0fe1a2a8025f213cc510a86ce37595aa873",
      "assetIds": []
    },
    {
      "x": 162,
      "y": 351,
      "size": 1,
      "price": "1011000000000000000000",
      "reserved": "",
      "salt": "0xe6a3d8c34d3bb524c5943d7997975c440ab222a6dc9fb366e7379de55c47e59a",
      "assetIds": []
    },
    {
      "x": 162,
      "y": 352,
      "size": 1,
      "price": "1011000000000000000000",
      "reserved": "",
      "salt": "0x4febd772d35eff7bee623e09f6a9de9524e4f78a4e4ae15eaa275cc235cf7e84",
      "assetIds": []
    },
    {
      "x": 163,
      "y": 330,
      "size": 1,
      "price": "1011000000000000000000",
      "reserved": "",
      "salt": "0x686cb21ae2f0a27cc185edb688081c94788dc1053f0c3f673f52ca5ce623f197",
      "assetIds": []
    },
    {
      "x": 163,
      "y": 331,
      "size": 1,
      "price": "1011000000000000000000",
      "reserved": "",
      "salt": "0x17cc9b19e8a6882a1a90b2a3c178b04850d9580b740f95855441f3e1aa7e0016",
      "assetIds": []
    },
    {
      "x": 163,
      "y": 332,
      "size": 1,
      "price": "1011000000000000000000",
      "reserved": "0x7a9fe22691c811ea339d9b73150e6911a5343dca",
      "salt": "0x0df6a534648aef863af9bb549ff3bd887314c027bb95853b9b7525036191f183",
      "assetIds": []
    },
    {
      "x": 163,
      "y": 333,
      "size": 1,
      "price": "1011000000000000000000",
      "reserved": "",
      "salt": "0xe3d65435b42550b9595d9c8ce40f515d4778454833781609856c9fd9b3bbf5b4",
      "assetIds": []
    },
    {
      "x": 163,
      "y": 334,
      "size": 1,
      "price": "4683000000000000000000",
      "reserved": "",
      "salt": "0xcb8a9381d9ceccf536134aa6e813cd9dde2abcf230ab100367beb5c3c9fac2e6",
      "assetIds": [
        "41506478881403507969696680653240014914910929820314476107906210059990541021186"
      ]
    },
    {
      "x": 163,
      "y": 335,
      "size": 1,
      "price": "4683000000000000000000",
      "reserved": "",
      "salt": "0x1fc0694758ee924169976bba9a73804c998220168c325b07acfba09647030e3a",
      "assetIds": [
        "41506478881403507969696680653240014914910929820314476107906210059990541021186"
      ]
    },
    {
      "x": 163,
      "y": 348,
      "size": 1,
      "price": "1011000000000000000000",
      "reserved": "",
      "salt": "0x2faf265e11f867f569ac4529bd9cd0795b64c6441d65f9f8a355e157eeaf8cad",
      "assetIds": []
    },
    {
      "x": 163,
      "y": 349,
      "size": 1,
      "price": "1011000000000000000000",
      "reserved": "",
      "salt": "0x6f829f77f6ef755444d57195418288e792b098d7cee09f2e5a35426257de34c0",
      "assetIds": []
    },
    {
      "x": 163,
      "y": 350,
      "size": 1,
      "price": "1011000000000000000000",
      "reserved": "0x7a9fe22691c811ea339d9b73150e6911a5343dca",
      "salt": "0x0ef55c7e00c63b88361a70a117a54444862132daf22d8c48c8d57fe888260a21",
      "assetIds": []
    },
    {
      "x": 163,
      "y": 351,
      "size": 1,
      "price": "1011000000000000000000",
      "reserved": "",
      "salt": "0x727f4bbdb94038f70c012f454b3495497cf358668ed7e043838a1d22881ef03e",
      "assetIds": []
    },
    {
      "x": 163,
      "y": 352,
      "size": 1,
      "price": "1011000000000000000000",
      "reserved": "0x7a9fe22691c811ea339d9b73150e6911a5343dca",
      "salt": "0x979297262d252682acaede5a153acc8419488947b0e4135a76e8fc54f0744ec0",
      "assetIds": []
    },
    {
      "x": 164,
      "y": 330,
      "size": 1,
      "price": "1011000000000000000000",
      "reserved": "",
      "salt": "0xe6581101af9b3afdaec2c4e812743e083333ce46c0096034d463b7dcbff0c334",
      "assetIds": []
    },
    {
      "x": 164,
      "y": 331,
      "size": 1,
      "price": "1011000000000000000000",
      "reserved": "",
      "salt": "0x3c210eca9366853ab3f8b485dae45d774c45aa3c49b5f63b572adeffa961ed06",
      "assetIds": []
    },
    {
      "x": 164,
      "y": 332,
      "size": 1,
      "price": "1011000000000000000000",
      "reserved": "",
      "salt": "0x28522c412fcd7e328bab2fe1d9d7d27283efec0450950f948e64857e5ea6da8e",
      "assetIds": []
    },
    {
      "x": 164,
      "y": 333,
      "size": 1,
      "price": "1011000000000000000000",
      "reserved": "0x7a9fe22691c811ea339d9b73150e6911a5343dca",
      "salt": "0x88266d5696fa9175d3adaf52554fd39f7e96e5022de24865a2cb43c4a7b30f8f",
      "assetIds": []
    },
    {
      "x": 164,
      "y": 334,
      "size": 1,
      "price": "1011000000000000000000",
      "reserved": "0x7a9fe22691c811ea339d9b73150e6911a5343dca",
      "salt": "0x302c1660f62de5984522e39242f4307c4cbb6ab1865937447d5e693230c3dec8",
      "assetIds": []
    },
    {
      "x": 164,
      "y": 335,
      "size": 1,
      "price": "4683000000000000000000",
      "reserved": "",
      "salt": "0x60fd1f177d6bf78d2f1ca9d839979578ce6c94eb0ce76a6133f5a036ea5f59e5",
      "assetIds": [
        "41506478881403507969696680653240014914910929820314476107906210059990541021186"
      ]
    },
    {
      "x": 164,
      "y": 348,
      "size": 1,
      "price": "1011000000000000000000",
      "reserved": "0x7a9fe22691c811ea339d9b73150e6911a5343dca",
      "salt": "0x53514c46872858baaee6d0b2c7048b05e9fe0459207aac1397e3470200a9b925",
      "assetIds": []
    },
    {
      "x": 164,
      "y": 349,
      "size": 1,
      "price": "1011000000000000000000",
      "reserved": "",
      "salt": "0x9895bcb16f82275edcea0087d6ed5deabe6f97ecd199b7918f4fa705667b713d",
      "assetIds": []
    },
    {
      "x": 164,
      "y": 350,
      "size": 1,
      "price": "1011000000000000000000",
      "reserved": "",
      "salt": "0x5dda07d9938f24348231ebfa5c24c0797936d11fb5c2cb552a2824deb5fa9119",
      "assetIds": []
    },
    {
      "x": 164,
      "y": 351,
      "size": 1,
      "price": "1011000000000000000000",
      "reserved": "",
      "salt": "0x910519804fb13f4e9f3756b12c26e49c707200522a25662bdf3bfcc6cc40b450",
      "assetIds": []
    },
    {
      "x": 164,
      "y": 352,
      "size": 1,
      "price": "1011000000000000000000",
      "reserved": "",
      "salt": "0xbf363cf46e5d358719cf5381352c0a2c94d403222d9509669b3fe0457445d629",
      "assetIds": []
    },
    {
      "x": 165,
      "y": 330,
      "size": 1,
      "price": "1011000000000000000000",
      "reserved": "",
      "salt": "0xa4a9644ee7e205c8013a81770672cc9d9d2d8ad62393b9f6368f39cefc07b0a0",
      "assetIds": []
    },
    {
      "x": 165,
      "y": 331,
      "size": 1,
      "price": "1011000000000000000000",
      "reserved": "",
      "salt": "0xde8f2ea4ed06723b2e3c9265745c27dfc0735011e350b576ec80bee9f9c8c61b",
      "assetIds": []
    },
    {
      "x": 165,
      "y": 332,
      "size": 1,
      "price": "1011000000000000000000",
      "reserved": "0x7a9fe22691c811ea339d9b73150e6911a5343dca",
      "salt": "0x1bfe9ea77a02d2b1b50ef1bb1b64187504ea95a25d859245c09ebdcf8a80b36b",
      "assetIds": []
    },
    {
      "x": 165,
      "y": 333,
      "size": 1,
      "price": "1011000000000000000000",
      "reserved": "",
      "salt": "0xda861a3d9b2f30ec6e9a664afe30810b525783802ae8703a8c7731e37eda81ef",
      "assetIds": []
    },
    {
      "x": 165,
      "y": 334,
      "size": 1,
      "price": "1011000000000000000000",
      "reserved": "",
      "salt": "0x77bfc50f0fe70cda769946f472b80f82e01b2831628889a4864f3cc79e5e315c",
      "assetIds": []
    },
    {
      "x": 165,
      "y": 335,
      "size": 1,
      "price": "1011000000000000000000",
      "reserved": "",
      "salt": "0x57aacf3ef51de5de21fa1d5ecf0d0d8b0f24d242c7f58e9073fe45c462ffc290",
      "assetIds": []
    },
    {
      "x": 165,
      "y": 348,
      "size": 1,
      "price": "1011000000000000000000",
      "reserved": "",
      "salt": "0x4efe73cfe9b8f81050d678c5be1a5d3761087d0bdcd4fe7712be8dc63bac5b05",
      "assetIds": []
    },
    {
      "x": 165,
      "y": 349,
      "size": 1,
      "price": "1011000000000000000000",
      "reserved": "",
      "salt": "0xcb66f7f8cb99b8c0fbdde996ce3ea6d83f53d93ebc3ad76219342b5752ecff2d",
      "assetIds": []
    },
    {
      "x": 165,
      "y": 350,
      "size": 1,
      "price": "1011000000000000000000",
      "reserved": "",
      "salt": "0x5b7ed0ff6b7029b498da1ea2b974c2fa9b01d12f5381756eca53d15f4e09cf2c",
      "assetIds": []
    },
    {
      "x": 165,
      "y": 351,
      "size": 1,
      "price": "1011000000000000000000",
      "reserved": "0x7a9fe22691c811ea339d9b73150e6911a5343dca",
      "salt": "0xe9f188f1b51533df6156837ffe9aa71f9674cb2df42f694cd6ba0c6a8c68015e",
      "assetIds": []
    },
    {
      "x": 165,
      "y": 352,
      "size": 1,
      "price": "1011000000000000000000",
      "reserved": "",
      "salt": "0xc21e75880d5c85f3c9460835cd7cf350207be13755a3549f01220a547b2d5466",
      "assetIds": []
    },
    {
      "x": 166,
      "y": 330,
      "size": 1,
      "price": "1011000000000000000000",
      "reserved": "",
      "salt": "0x592786814291355c524e03e4d418e0d15ffdaf42588d1a1a8837b1f15cef9972",
      "assetIds": []
    },
    {
      "x": 166,
      "y": 331,
      "size": 1,
      "price": "1011000000000000000000",
      "reserved": "",
      "salt": "0xe9cfcae9fbb5add4a6ab303cdaf7584796a26310eb1ff156fef819158c450233",
      "assetIds": []
    },
    {
      "x": 166,
      "y": 332,
      "size": 1,
      "price": "1011000000000000000000",
      "reserved": "",
      "salt": "0x9bddca5f05861594408f3a560ee1f3c0a7182a8b8541872f9fc80b2ad8ea03e9",
      "assetIds": []
    },
    {
      "x": 166,
      "y": 333,
      "size": 1,
      "price": "1011000000000000000000",
      "reserved": "",
      "salt": "0x391e8def8f83b6f1c1c3f7db52d62b1674e033b6f00022620097a6d0ee4ae238",
      "assetIds": []
    },
    {
      "x": 166,
      "y": 334,
      "size": 1,
      "price": "1011000000000000000000",
      "reserved": "",
      "salt": "0xd08070e3eb16638da6338731f8aa756c6a96f9b3d90107f376abff953632685d",
      "assetIds": []
    },
    {
      "x": 166,
      "y": 335,
      "size": 1,
      "price": "1011000000000000000000",
      "reserved": "",
      "salt": "0xa17336a84051c79aa04c0e5ea6cf943ba228eea998388c6d11527dcb9476a18e",
      "assetIds": []
    },
    {
      "x": 166,
      "y": 348,
      "size": 1,
      "price": "1011000000000000000000",
      "reserved": "",
      "salt": "0xdd0058f6085ad2274c7baba2a66cee7de44c969dc4d3ee80d4be50fca19a113b",
      "assetIds": []
    },
    {
      "x": 166,
      "y": 349,
      "size": 1,
      "price": "1011000000000000000000",
      "reserved": "",
      "salt": "0x236c715f228ce80c8ac48e1b22edbf854345efd3924febb6119d15da27cc0d24",
      "assetIds": []
    },
    {
      "x": 166,
      "y": 350,
      "size": 1,
      "price": "1011000000000000000000",
      "reserved": "",
      "salt": "0x76155fc2543a6b8d3c01824937a2ab3968c332dec38bdc865191662b10f10d76",
      "assetIds": []
    },
    {
      "x": 166,
      "y": 351,
      "size": 1,
      "price": "1011000000000000000000",
      "reserved": "",
      "salt": "0x8f15b90205cd521433b3f24a76b786541c135b7ecf7a7bad5c90c8070cbc9b80",
      "assetIds": []
    },
    {
      "x": 166,
      "y": 352,
      "size": 1,
      "price": "1011000000000000000000",
      "reserved": "0x7a9fe22691c811ea339d9b73150e6911a5343dca",
      "salt": "0xcb6d05de957d111fefccfa3864b9374f238379c5a662453c8269a04876dd0187",
      "assetIds": []
    },
    {
      "x": 167,
      "y": 330,
      "size": 1,
      "price": "4683000000000000000000",
      "reserved": "",
      "salt": "0x1d945a6edb797fe3e642d4639cdfb9fd6ea64e059809f2002ea28e2ffe3b287b",
      "assetIds": [
        "41506478881403507969696680653240014914910929820314476107906210059990541021186"
      ]
    },
    {
      "x": 167,
      "y": 331,
      "size": 1,
      "price": "1011000000000000000000",
      "reserved": "0x7a9fe22691c811ea339d9b73150e6911a5343dca",
      "salt": "0x69f0654c78157b11f4ba17a3e33a319ed1bd3733e614625c9ab7914229c43b74",
      "assetIds": []
    },
    {
      "x": 167,
      "y": 332,
      "size": 1,
      "price": "1011000000000000000000",
      "reserved": "",
      "salt": "0x7024dda930e3aee8554f36948dc24c1cfaf9a8e38cf755655cf538d70ef34caa",
      "assetIds": []
    },
    {
      "x": 167,
      "y": 333,
      "size": 1,
      "price": "1011000000000000000000",
      "reserved": "",
      "salt": "0x597cf350417fe66cd921df4ef7ace0c54394fb1a87d98ddb96a8d1d7e340eb77",
      "assetIds": []
    },
    {
      "x": 167,
      "y": 334,
      "size": 1,
      "price": "1011000000000000000000",
      "reserved": "",
      "salt": "0x40d3bd42e65ac04edeb4585c112017b9f695ad834d482509d3375b5051bec3f5",
      "assetIds": []
    },
    {
      "x": 167,
      "y": 335,
      "size": 1,
      "price": "1011000000000000000000",
      "reserved": "",
      "salt": "0x16e9b2a4225cc3087f3711707441c2bb829351c8b7bf69fd432b17aa2e6a0a1a",
      "assetIds": []
    },
    {
      "x": 167,
      "y": 348,
      "size": 1,
      "price": "1011000000000000000000",
      "reserved": "",
      "salt": "0x9c768040bab14454dbf547ba86926cb087753495134aaf662c639589a2e374f1",
      "assetIds": []
    },
    {
      "x": 167,
      "y": 349,
      "size": 1,
      "price": "1011000000000000000000",
      "reserved": "0x7a9fe22691c811ea339d9b73150e6911a5343dca",
      "salt": "0x366b5cd89480641a95db6e111fd8bfefcbc5900f7b9c7794c058f9ad559aa7db",
      "assetIds": []
    },
    {
      "x": 167,
      "y": 350,
      "size": 1,
      "price": "1011000000000000000000",
      "reserved": "",
      "salt": "0xf9d5fa09d4a1a52d6615fa986c59f67dd4ca4cbde3b574b1eac5be6172be4f3a",
      "assetIds": []
    },
    {
      "x": 167,
      "y": 351,
      "size": 1,
      "price": "1011000000000000000000",
      "reserved": "",
      "salt": "0xdee41a7209e8839e9b75acc92975bfac4f7b269630074cf42c5fa0f685544a42",
      "assetIds": []
    },
    {
      "x": 167,
      "y": 352,
      "size": 1,
      "price": "1011000000000000000000",
      "reserved": "0x7a9fe22691c811ea339d9b73150e6911a5343dca",
      "salt": "0x6c3313e159967413b826cd73f1f14349cb2dcd924872e7d5cea2a03c3e047b67",
      "assetIds": []
    },
    {
      "x": 168,
      "y": 312,
      "size": 1,
      "price": "1011000000000000000000",
      "reserved": "",
      "salt": "0x1224f799f8a2c651ed02941e9f4db963dce074870d6c865be8e3121061a26868",
      "assetIds": []
    },
    {
      "x": 168,
      "y": 313,
      "size": 1,
      "price": "1011000000000000000000",
      "reserved": "",
      "salt": "0x058c03fc0ceb62dc983a1d017b8a4c2232d2e72b9a24b1698c49380460751c64",
      "assetIds": []
    },
    {
      "x": 168,
      "y": 314,
      "size": 1,
      "price": "1011000000000000000000",
      "reserved": "",
      "salt": "0x4ae6dfbb37890ff1edadd1f6e754edab6d7d5ea48468fb02bdc75636cb836305",
      "assetIds": []
    },
    {
      "x": 168,
      "y": 315,
      "size": 1,
      "price": "1011000000000000000000",
      "reserved": "",
      "salt": "0x02cf6c43d37759967382cc4056d62ca6d40adc7ab13efa24129aeab2e5727a92",
      "assetIds": []
    },
    {
      "x": 168,
      "y": 316,
      "size": 1,
      "price": "1011000000000000000000",
      "reserved": "",
      "salt": "0xe3881f609f4923cea2dd96c5f4026ea883b4eaded97f1d5b7a6eb660c6e3441d",
      "assetIds": []
    },
    {
      "x": 168,
      "y": 317,
      "size": 1,
      "price": "1011000000000000000000",
      "reserved": "",
      "salt": "0xb75de1f7a6616fa6f9a7c94fd76f0805bbb4c542f0b58008732428158d8eb11e",
      "assetIds": []
    },
    {
      "x": 168,
      "y": 318,
      "size": 1,
      "price": "1011000000000000000000",
      "reserved": "",
      "salt": "0x95e75e70d3c1e0090e66ec848aeea172a1d0f9dd6937324a728aab0927695be9",
      "assetIds": []
    },
    {
      "x": 168,
      "y": 319,
      "size": 1,
      "price": "1011000000000000000000",
      "reserved": "",
      "salt": "0x4cf9d3a544deb2adc64a664d490aacdce349ea732c1a22de594867906bb8cb59",
      "assetIds": []
    },
    {
      "x": 168,
      "y": 320,
      "size": 1,
      "price": "1011000000000000000000",
      "reserved": "",
      "salt": "0xacfb779c1e4b7cc14566a53790cef13b1753e5e65a1fe0017ebce69775830b88",
      "assetIds": []
    },
    {
      "x": 168,
      "y": 321,
      "size": 1,
      "price": "4683000000000000000000",
      "reserved": "",
      "salt": "0xded8dfecb7c24000c33daf2b30fb41ee62cb735fa1dd449264932453b2177607",
      "assetIds": [
        "41506478881403507969696680653240014914910929820314476107906210059990541021186"
      ]
    },
    {
      "x": 168,
      "y": 322,
      "size": 1,
      "price": "4683000000000000000000",
      "reserved": "",
      "salt": "0x7e37639506f94f1028d38cbf0c033d6dc537d6b3bee161c18dad34e79be7c9ec",
      "assetIds": [
        "41506478881403507969696680653240014914910929820314476107906210059990541021186"
      ]
    },
    {
      "x": 168,
      "y": 323,
      "size": 1,
      "price": "4683000000000000000000",
      "reserved": "",
      "salt": "0xcfe5df2580fea0f339e1ea0c05184eccbf0b30ff2acfb9b1a22c59ebddeedc8c",
      "assetIds": [
        "41506478881403507969696680653240014914910929820314476107906210059990541021186"
      ]
    },
    {
      "x": 168,
      "y": 330,
      "size": 1,
      "price": "4683000000000000000000",
      "reserved": "",
      "salt": "0xf9b20b32de4841041ded0f025b0d0afb35e4e85f38022dcf423ce8abceef35ec",
      "assetIds": [
        "41506478881403507969696680653240014914910929820314476107906210059990541021186"
      ]
    },
    {
      "x": 168,
      "y": 331,
      "size": 1,
      "price": "4683000000000000000000",
      "reserved": "",
      "salt": "0xa8d0fb61de8bdaf68cc9905be41d6c11127be7c48c12ce7714c30946ecec0b72",
      "assetIds": [
        "41506478881403507969696680653240014914910929820314476107906210059990541021186"
      ]
    },
    {
      "x": 168,
      "y": 332,
      "size": 1,
      "price": "1011000000000000000000",
      "reserved": "",
      "salt": "0x16a29bdd18f20099f49a8e60424c6cfd434b047e8e4fb905c57daf8094c43037",
      "assetIds": []
    },
    {
      "x": 168,
      "y": 333,
      "size": 1,
      "price": "1011000000000000000000",
      "reserved": "0x7a9fe22691c811ea339d9b73150e6911a5343dca",
      "salt": "0xf952ac25d691212f769fe138038e248333b2ce3a39f93bd1f3e3f2db80e0443c",
      "assetIds": []
    },
    {
      "x": 168,
      "y": 334,
      "size": 1,
      "price": "4683000000000000000000",
      "reserved": "",
      "salt": "0xefdb7623a5b6c92719fc6b687ff31e32d20158802750c97581acf53dcf86b503",
      "assetIds": [
        "41506478881403507969696680653240014914910929820314476107906210059990541021186"
      ]
    },
    {
      "x": 168,
      "y": 335,
      "size": 1,
      "price": "4683000000000000000000",
      "reserved": "",
      "salt": "0xde953e9149965e1fb142d38a25f110891f7f4de1052399ca353540cbc8f3f020",
      "assetIds": [
        "41506478881403507969696680653240014914910929820314476107906210059990541021186"
      ]
    },
    {
      "x": 168,
      "y": 342,
      "size": 1,
      "price": "4683000000000000000000",
      "reserved": "",
      "salt": "0xc30709388724781c31bdbbdf04346c1568cc1891f188aaf9698df43c86cb561e",
      "assetIds": [
        "41506478881403507969696680653240014914910929820314476107906210059990541021186"
      ]
    },
    {
      "x": 168,
      "y": 343,
      "size": 1,
      "price": "1011000000000000000000",
      "reserved": "",
      "salt": "0x3f54ff0d6bd8caca75403234a0deb00595004b5e96f7ad82ea9926227d50de7f",
      "assetIds": []
    },
    {
      "x": 168,
      "y": 344,
      "size": 1,
      "price": "1011000000000000000000",
      "reserved": "",
      "salt": "0xcce0a58062cb9d1ca5c5adc099c5fb05c4f157a6bd565d23a6f77e862ec2e0a7",
      "assetIds": []
    },
    {
      "x": 168,
      "y": 345,
      "size": 1,
      "price": "1011000000000000000000",
      "reserved": "",
      "salt": "0xf941700dfef2224f1c51e0a9eded9bfe84c0a75b13a92ad0a5d1d24c76c31437",
      "assetIds": []
    },
    {
      "x": 168,
      "y": 346,
      "size": 1,
      "price": "1011000000000000000000",
      "reserved": "",
      "salt": "0xe51d02ddaba89b52329262a12ec0cdc6a76472cfbcb5918bb1184b699b4e1437",
      "assetIds": []
    },
    {
      "x": 168,
      "y": 347,
      "size": 1,
      "price": "1011000000000000000000",
      "reserved": "",
      "salt": "0x62a45b4094af0edeef2b5dae1aafb6224003c102f8ff696220e2a1884cc4f591",
      "assetIds": []
    },
    {
      "x": 169,
      "y": 312,
      "size": 1,
      "price": "1011000000000000000000",
      "reserved": "",
      "salt": "0x73cb234ff2607c705c1ef6b298cfd78ca87133973680b2e384d226f86dc4a157",
      "assetIds": []
    },
    {
      "x": 169,
      "y": 313,
      "size": 1,
      "price": "1011000000000000000000",
      "reserved": "0x7a9fe22691c811ea339d9b73150e6911a5343dca",
      "salt": "0xa376e843fe2150a634f7ca755c9e2c2b3188e831c8cb7679ce84b9f8f7f5db87",
      "assetIds": []
    },
    {
      "x": 169,
      "y": 314,
      "size": 1,
      "price": "1011000000000000000000",
      "reserved": "",
      "salt": "0x916f9a37701ef17d5e10b6aa6a80e4c388c0ee88e1f27da5747b666d030459d2",
      "assetIds": []
    },
    {
      "x": 169,
      "y": 315,
      "size": 1,
      "price": "1011000000000000000000",
      "reserved": "",
      "salt": "0x07f478c811db23ab26750a32ee3934ad2a283660a831c1471c2b14dde6c08f5e",
      "assetIds": []
    },
    {
      "x": 169,
      "y": 316,
      "size": 1,
      "price": "1011000000000000000000",
      "reserved": "",
      "salt": "0x8a042fa7268c52946ebd4223af137167239fc4eda3c792c03bc05d0294f7cf39",
      "assetIds": []
    },
    {
      "x": 169,
      "y": 317,
      "size": 1,
      "price": "1011000000000000000000",
      "reserved": "",
      "salt": "0xc3dcce74b65577d2254380088ce3df9095f1946ab25b19b5ed460b5b6a6d8bc1",
      "assetIds": []
    },
    {
      "x": 169,
      "y": 318,
      "size": 1,
      "price": "1011000000000000000000",
      "reserved": "",
      "salt": "0x33186249fdb83abf9b109bab2c2fa1d44ba56d114acc5aa50569368d38465084",
      "assetIds": []
    },
    {
      "x": 169,
      "y": 319,
      "size": 1,
      "price": "1011000000000000000000",
      "reserved": "",
      "salt": "0x60bed6be542e0f15a9e40665af8365987581334378d4ab7d5762b939ac2dde4a",
      "assetIds": []
    },
    {
      "x": 169,
      "y": 320,
      "size": 1,
      "price": "1011000000000000000000",
      "reserved": "0x7a9fe22691c811ea339d9b73150e6911a5343dca",
      "salt": "0x32de507d61ef0e35180b3bb893f210e7659edc131c1e8a503b573ed157d3e7cc",
      "assetIds": []
    },
    {
      "x": 169,
      "y": 321,
      "size": 1,
      "price": "1011000000000000000000",
      "reserved": "",
      "salt": "0xd291fa1beb9da065c79cb4c8cdfce62a517a6fae181b4616d9872742619a0ae1",
      "assetIds": []
    },
    {
      "x": 169,
      "y": 322,
      "size": 1,
      "price": "4683000000000000000000",
      "reserved": "",
      "salt": "0xd0d2e4d435381353f0007db7245c30f88ddfd3afbed9c4f99dc4b4e1d7bf6d23",
      "assetIds": [
        "41506478881403507969696680653240014914910929820314476107906210059990541021186"
      ]
    },
    {
      "x": 169,
      "y": 323,
      "size": 1,
      "price": "4683000000000000000000",
      "reserved": "",
      "salt": "0xab66789a35e1393322cef57bbef33b97926a38666cc2f45c5e82996f9386d480",
      "assetIds": [
        "41506478881403507969696680653240014914910929820314476107906210059990541021186"
      ]
    },
    {
      "x": 169,
      "y": 330,
      "size": 1,
      "price": "4683000000000000000000",
      "reserved": "",
      "salt": "0xa40e11c3a77bced6a1f612efc4ab1234d38b069a44a0be24b890bf1f89a711db",
      "assetIds": [
        "41506478881403507969696680653240014914910929820314476107906210059990541021186"
      ]
    },
    {
      "x": 169,
      "y": 331,
      "size": 1,
      "price": "4683000000000000000000",
      "reserved": "",
      "salt": "0xc47b225cb62205b96553d938932b68729272d41bd7c278d7eeefec4bcd0f5790",
      "assetIds": [
        "41506478881403507969696680653240014914910929820314476107906210059990541021186"
      ]
    },
    {
      "x": 169,
      "y": 332,
      "size": 1,
      "price": "1011000000000000000000",
      "reserved": "0x7a9fe22691c811ea339d9b73150e6911a5343dca",
      "salt": "0x7fc886c69a1eaaa6565e4833f6992bf28752dedc692f6d72e314858810b47865",
      "assetIds": []
    },
    {
      "x": 169,
      "y": 333,
      "size": 1,
      "price": "1011000000000000000000",
      "reserved": "",
      "salt": "0xee9a5140dbe39e1968914812f58d83204bada491f57b3d197c7626073299f9f7",
      "assetIds": []
    },
    {
      "x": 169,
      "y": 334,
      "size": 1,
      "price": "4683000000000000000000",
      "reserved": "",
      "salt": "0x817817815b64320198cdb90422314998f5ce23722f650fcd6939b00a4e162f7a",
      "assetIds": [
        "41506478881403507969696680653240014914910929820314476107906210059990541021186"
      ]
    },
    {
      "x": 169,
      "y": 335,
      "size": 1,
      "price": "4683000000000000000000",
      "reserved": "",
      "salt": "0xb12356142dbff704fec0d944fce32f9f1af0007d962a7ef3cbbfca1e55aa731a",
      "assetIds": [
        "41506478881403507969696680653240014914910929820314476107906210059990541021186"
      ]
    },
    {
      "x": 169,
      "y": 342,
      "size": 1,
      "price": "4683000000000000000000",
      "reserved": "",
      "salt": "0xf139b4c3187d5e144e3db891081e1f769da07fc45a245d2ecd2589257ec6e44d",
      "assetIds": [
        "41506478881403507969696680653240014914910929820314476107906210059990541021186"
      ]
    },
    {
      "x": 169,
      "y": 343,
      "size": 1,
      "price": "1011000000000000000000",
      "reserved": "",
      "salt": "0xbd9cd00d40388ccd2dff8e16af0d490d1fc6979c87a5a40cbcbf6375f2074dc8",
      "assetIds": []
    },
    {
      "x": 169,
      "y": 344,
      "size": 1,
      "price": "1011000000000000000000",
      "reserved": "0x7a9fe22691c811ea339d9b73150e6911a5343dca",
      "salt": "0xd5a02e82a51e4f4c70e93e181c886c9976c2ae758aa0ac6266471b53bd390d5a",
      "assetIds": []
    },
    {
      "x": 169,
      "y": 345,
      "size": 1,
      "price": "1011000000000000000000",
      "reserved": "",
      "salt": "0xf7042046a863872a8ea5dffb374e37c1a035eeca89893bfb9333445d89f725ae",
      "assetIds": []
    },
    {
      "x": 169,
      "y": 346,
      "size": 1,
      "price": "1011000000000000000000",
      "reserved": "",
      "salt": "0xe8722c31cbefaa3cdb21b1a71f39a4488ff2b7951567d163e2a5d19c7d7cc3fb",
      "assetIds": []
    },
    {
      "x": 169,
      "y": 347,
      "size": 1,
      "price": "1011000000000000000000",
      "reserved": "0x7a9fe22691c811ea339d9b73150e6911a5343dca",
      "salt": "0x979855126f3c375b85de464ac9b9ad0ff46d4b314f2ae6bc64fdf048da89e787",
      "assetIds": []
    },
    {
      "x": 170,
      "y": 312,
      "size": 1,
      "price": "1011000000000000000000",
      "reserved": "",
      "salt": "0xe057a73581c349dea954fea991bcb969f455c3eacd70b8c5c5a1d377e7b21653",
      "assetIds": []
    },
    {
      "x": 170,
      "y": 313,
      "size": 1,
      "price": "1011000000000000000000",
      "reserved": "",
      "salt": "0x9573e38101ab60d12e72a421bea5e37de1843afe236013d03653f9ca589cbcd9",
      "assetIds": []
    },
    {
      "x": 170,
      "y": 314,
      "size": 1,
      "price": "1011000000000000000000",
      "reserved": "",
      "salt": "0x50882f3da808cd18ddf25db83134ffc4d32fd9a7adf555ef1efd25c49dbbefb4",
      "assetIds": []
    },
    {
      "x": 170,
      "y": 315,
      "size": 1,
      "price": "1011000000000000000000",
      "reserved": "",
      "salt": "0x64ddd88bc4586e72b856cef77f36ee4f60a1d2b83267d8f1203f2e41e10c431f",
      "assetIds": []
    },
    {
      "x": 170,
      "y": 316,
      "size": 1,
      "price": "1011000000000000000000",
      "reserved": "0x7a9fe22691c811ea339d9b73150e6911a5343dca",
      "salt": "0xef6995e82c511a01cbeca85f0fb4bc5f5b49a15a4dedb8d5db6894f3e8b75b8f",
      "assetIds": []
    },
    {
      "x": 170,
      "y": 317,
      "size": 1,
      "price": "1011000000000000000000",
      "reserved": "",
      "salt": "0x2bb1c5dc3eabd98ec6044b3831eb7abee092818830849f36bac8cfe3c09de4d4",
      "assetIds": []
    },
    {
      "x": 170,
      "y": 318,
      "size": 1,
      "price": "1011000000000000000000",
      "reserved": "",
      "salt": "0x4ba373dde412ce35d26cd94a951323e913b1ab4adee7b3ab936cfa53870f2fec",
      "assetIds": []
    },
    {
      "x": 170,
      "y": 319,
      "size": 1,
      "price": "1011000000000000000000",
      "reserved": "",
      "salt": "0xe6584417810c8b89e39be95fa0d64005168fddc0384f05472d070f7eff7143a4",
      "assetIds": []
    },
    {
      "x": 170,
      "y": 320,
      "size": 1,
      "price": "1011000000000000000000",
      "reserved": "",
      "salt": "0xcb802e791ca16413dcbc059a08e947a3d707e4d3ace184d2233fa7b0863b596b",
      "assetIds": []
    },
    {
      "x": 170,
      "y": 321,
      "size": 1,
      "price": "1011000000000000000000",
      "reserved": "",
      "salt": "0xc7242d9cdbb816ec8b4c11150838e3e5d2c487b1b9f037d098e482afaf5f5233",
      "assetIds": []
    },
    {
      "x": 170,
      "y": 322,
      "size": 1,
      "price": "4683000000000000000000",
      "reserved": "",
      "salt": "0xad97f72d13daee1d686a4f2fe48f97c24091e6909a87551f6ef0ad613ef6acc1",
      "assetIds": [
        "41506478881403507969696680653240014914910929820314476107906210059990541021186"
      ]
    },
    {
      "x": 170,
      "y": 323,
      "size": 1,
      "price": "4683000000000000000000",
      "reserved": "",
      "salt": "0xbdbc45c211717ddff05287b4d806cb81bbf288174ba78c507ef0e3c0d343bec5",
      "assetIds": [
        "41506478881403507969696680653240014914910929820314476107906210059990541021186"
      ]
    },
    {
      "x": 170,
      "y": 330,
      "size": 1,
      "price": "4683000000000000000000",
      "reserved": "",
      "salt": "0x404f992fbec8dd19e511e18a414f6313c024706911b8cfd070d7a2541dc7382e",
      "assetIds": [
        "41506478881403507969696680653240014914910929820314476107906210059990541021186"
      ]
    },
    {
      "x": 170,
      "y": 331,
      "size": 1,
      "price": "4683000000000000000000",
      "reserved": "",
      "salt": "0xeadb5d0e63fb474b3df71d2b0b92661d896718e21664e7954098226f52d79c2f",
      "assetIds": [
        "41506478881403507969696680653240014914910929820314476107906210059990541021186"
      ]
    },
    {
      "x": 170,
      "y": 332,
      "size": 1,
      "price": "1011000000000000000000",
      "reserved": "",
      "salt": "0x5e7f3b600fbcbd413466ef831965283d1198748fa9f2db4cc4e1b70a39b3a264",
      "assetIds": []
    },
    {
      "x": 170,
      "y": 333,
      "size": 1,
      "price": "1011000000000000000000",
      "reserved": "",
      "salt": "0x4c45f1854fcd3e41bcbde51b03b9774338a3d9b467e31dc1f9025555d01fbf67",
      "assetIds": []
    },
    {
      "x": 170,
      "y": 334,
      "size": 1,
      "price": "1011000000000000000000",
      "reserved": "",
      "salt": "0x2b9b5b05b157da65e4dfa0e43e2de1974362fee966b5b9af50986b2cce829382",
      "assetIds": []
    },
    {
      "x": 170,
      "y": 335,
      "size": 1,
      "price": "4683000000000000000000",
      "reserved": "",
      "salt": "0x8ba40efb19d97faea7f0798dd61fe6cfc613249f33ac73c0f8b93071df9a4872",
      "assetIds": [
        "41506478881403507969696680653240014914910929820314476107906210059990541021186"
      ]
    },
    {
      "x": 170,
      "y": 342,
      "size": 1,
      "price": "4683000000000000000000",
      "reserved": "",
      "salt": "0x09797c566829855ceb2c854e6fe93e3482571e2428a6987bc3111849d22e326b",
      "assetIds": [
        "41506478881403507969696680653240014914910929820314476107906210059990541021186"
      ]
    },
    {
      "x": 170,
      "y": 343,
      "size": 1,
      "price": "1011000000000000000000",
      "reserved": "",
      "salt": "0x9a998567ab707d4b69f08079425a2c93d426991b18ce5166c328b3826e69864b",
      "assetIds": []
    },
    {
      "x": 170,
      "y": 344,
      "size": 1,
      "price": "1011000000000000000000",
      "reserved": "",
      "salt": "0xcc738ac46699a9deb5846a3fd02d87bad2d729527d5a5f52cb4cc29e806ee723",
      "assetIds": []
    },
    {
      "x": 170,
      "y": 345,
      "size": 1,
      "price": "1011000000000000000000",
      "reserved": "",
      "salt": "0x530c875d5cf9a1ae4eb3a44339d7bf8826ff09dacad4cc5957a898bfaaef8843",
      "assetIds": []
    },
    {
      "x": 170,
      "y": 346,
      "size": 1,
      "price": "1011000000000000000000",
      "reserved": "",
      "salt": "0x64d90fc709a0f66aef42c7f6f6365c46a2f67943a15194cada8cf004146ecd12",
      "assetIds": []
    },
    {
      "x": 170,
      "y": 347,
      "size": 1,
      "price": "1011000000000000000000",
      "reserved": "",
      "salt": "0x72df9cc349307639ecb661d8fb1a87c3ad48d73ff552d9c61b40f397cef726a7",
      "assetIds": []
    },
    {
      "x": 171,
      "y": 312,
      "size": 1,
      "price": "1011000000000000000000",
      "reserved": "",
      "salt": "0xd856cfc2b2bf7291fad0fe93f11f6de634514011e74b17b5e4c17534368cf7cf",
      "assetIds": []
    },
    {
      "x": 171,
      "y": 313,
      "size": 1,
      "price": "1011000000000000000000",
      "reserved": "",
      "salt": "0xe792af9f2138cf770efa1e526cb385a18758bdb0106bb2a527d15950cc214c03",
      "assetIds": []
    },
    {
      "x": 171,
      "y": 314,
      "size": 1,
      "price": "1011000000000000000000",
      "reserved": "",
      "salt": "0xb5a46e2fa4d48004a1286fb2aa794495fee5627bfaae4ec117d4944654f87c90",
      "assetIds": []
    },
    {
      "x": 171,
      "y": 315,
      "size": 1,
      "price": "1011000000000000000000",
      "reserved": "",
      "salt": "0x5283d0379a39dd947d0ba84ef39529e752ec67c4c7c1b7154fa35710a7ddd5e2",
      "assetIds": []
    },
    {
      "x": 171,
      "y": 316,
      "size": 1,
      "price": "1011000000000000000000",
      "reserved": "",
      "salt": "0x020ac1b5630caf6fc378f1e3d8b9568480c3e4d8500bf368407b405e40b5459b",
      "assetIds": []
    },
    {
      "x": 171,
      "y": 317,
      "size": 1,
      "price": "1011000000000000000000",
      "reserved": "",
      "salt": "0x7682fbf8af7f9bf6bc2815e6294d71aeb85bfeedd2ec709d97506b725514cca3",
      "assetIds": []
    },
    {
      "x": 171,
      "y": 318,
      "size": 1,
      "price": "1011000000000000000000",
      "reserved": "",
      "salt": "0x9ec701d4d598e2ecb50a0e53de738986444346d5f0315c2146699172d56eb0ec",
      "assetIds": []
    },
    {
      "x": 171,
      "y": 319,
      "size": 1,
      "price": "1011000000000000000000",
      "reserved": "",
      "salt": "0x0bd4be03557c73856b844ede2acb49fdbe51c40208522a61674049bd71702cbc",
      "assetIds": []
    },
    {
      "x": 171,
      "y": 320,
      "size": 1,
      "price": "1011000000000000000000",
      "reserved": "",
      "salt": "0x8ddf03ffa435012efeee09c97f49981b5732f75c1bd5b20a55d0a2f6880d4beb",
      "assetIds": []
    },
    {
      "x": 171,
      "y": 321,
      "size": 1,
      "price": "1011000000000000000000",
      "reserved": "",
      "salt": "0x2a8d02bca69a8b45668a859e9f7b7b0f627676f8cedcccae1ba66aa4a633c6b0",
      "assetIds": []
    },
    {
      "x": 171,
      "y": 322,
      "size": 1,
      "price": "4683000000000000000000",
      "reserved": "",
      "salt": "0x09597e2521c10df987a87bddc086615cc2dd5e8f691a3c472aca3d0ccbe24558",
      "assetIds": [
        "41506478881403507969696680653240014914910929820314476107906210059990541021186"
      ]
    },
    {
      "x": 171,
      "y": 323,
      "size": 1,
      "price": "4683000000000000000000",
      "reserved": "",
      "salt": "0x508d4bd7ae237e331aba47c2ae1ed76a215729145d1af3f4b3196e94b2911254",
      "assetIds": [
        "41506478881403507969696680653240014914910929820314476107906210059990541021186"
      ]
    },
    {
      "x": 171,
      "y": 330,
      "size": 1,
      "price": "4683000000000000000000",
      "reserved": "",
      "salt": "0x83ae3387ea3793d6fae0890e8ffb63a15cede40b74e705f9f17d4fd941406485",
      "assetIds": [
        "41506478881403507969696680653240014914910929820314476107906210059990541021186"
      ]
    },
    {
      "x": 171,
      "y": 331,
      "size": 1,
      "price": "4683000000000000000000",
      "reserved": "",
      "salt": "0x414e62c333c435d1796b9a252b01acce9092ec87c37b68c19734f3a50caf16e2",
      "assetIds": [
        "41506478881403507969696680653240014914910929820314476107906210059990541021186"
      ]
    },
    {
      "x": 171,
      "y": 332,
      "size": 1,
      "price": "1011000000000000000000",
      "reserved": "",
      "salt": "0x42d1a98d9182ca580e0a7d7ee7ba1e8a230efee6cf4cb1d581448b7480fbc019",
      "assetIds": []
    },
    {
      "x": 171,
      "y": 333,
      "size": 1,
      "price": "1011000000000000000000",
      "reserved": "",
      "salt": "0x3e5166bb5353e851538d287a2891c9f3173b3171c2c259dd8f91b8e38a672e8a",
      "assetIds": []
    },
    {
      "x": 171,
      "y": 334,
      "size": 1,
      "price": "1011000000000000000000",
      "reserved": "",
      "salt": "0xb390da500f40c040fb32ba933890c4cc7eb255523b6942995a8403ee6cc4fdcf",
      "assetIds": []
    },
    {
      "x": 171,
      "y": 335,
      "size": 1,
      "price": "4683000000000000000000",
      "reserved": "",
      "salt": "0x7d4baca10cc89abf7e80c5b036e08a7806a0e9021379b1f2449cf6e9cfae3905",
      "assetIds": [
        "41506478881403507969696680653240014914910929820314476107906210059990541021186"
      ]
    },
    {
      "x": 171,
      "y": 342,
      "size": 1,
      "price": "4683000000000000000000",
      "reserved": "",
      "salt": "0x2d7e2baf8821b44513582c9ee9ac1e9fb6b33c0def5b3f2edfe987ddfac4aef6",
      "assetIds": [
        "41506478881403507969696680653240014914910929820314476107906210059990541021186"
      ]
    },
    {
      "x": 171,
      "y": 343,
      "size": 1,
      "price": "1011000000000000000000",
      "reserved": "0x7a9fe22691c811ea339d9b73150e6911a5343dca",
      "salt": "0xfb28452b24c0b49253745b8cd6378451861530b917d9ffbd86401e6a2eb78041",
      "assetIds": []
    },
    {
      "x": 171,
      "y": 344,
      "size": 1,
      "price": "1011000000000000000000",
      "reserved": "",
      "salt": "0x067c5875112379ffd1ea71d3d2a01c34bc7e59c23c0f79dface358b7d015c26c",
      "assetIds": []
    },
    {
      "x": 171,
      "y": 345,
      "size": 1,
      "price": "1011000000000000000000",
      "reserved": "",
      "salt": "0x6e2b9ce2ecc84afac747d6e7d5dd4308766404bc238928577938dede73f66565",
      "assetIds": []
    },
    {
      "x": 171,
      "y": 346,
      "size": 1,
      "price": "1011000000000000000000",
      "reserved": "",
      "salt": "0x7c7dc45b6392b8e041b6b5917a742e4eb99d1202e8d29534dbfa8449b532ac35",
      "assetIds": []
    },
    {
      "x": 171,
      "y": 347,
      "size": 1,
      "price": "1011000000000000000000",
      "reserved": "",
      "salt": "0xa4bf3640e51b85cda9a1515242435229b0617a792e6cdad3aae6f814179083d3",
      "assetIds": []
    },
    {
      "x": 172,
      "y": 312,
      "size": 1,
      "price": "1011000000000000000000",
      "reserved": "",
      "salt": "0x186b96e5f32c2ae7ef1e505081307cab7048c3b4744d64dec7297bfcdb914619",
      "assetIds": []
    },
    {
      "x": 172,
      "y": 313,
      "size": 1,
      "price": "1011000000000000000000",
      "reserved": "",
      "salt": "0x0fec5bb1bb75f7a63084ba3c072ac04612ced59b2fa7b7f704bcf6804ae161a0",
      "assetIds": []
    },
    {
      "x": 172,
      "y": 314,
      "size": 1,
      "price": "1011000000000000000000",
      "reserved": "",
      "salt": "0xddf65e2fcbb04ef8739aea6f87f13e979734530fd027dcd6a03534372a3c908d",
      "assetIds": []
    },
    {
      "x": 172,
      "y": 315,
      "size": 1,
      "price": "1011000000000000000000",
      "reserved": "",
      "salt": "0x334578806d18119c16b094f732797d4b73f272f28399b035bdd5ab07b4b8fa1b",
      "assetIds": []
    },
    {
      "x": 172,
      "y": 316,
      "size": 1,
      "price": "1011000000000000000000",
      "reserved": "",
      "salt": "0x6ca694f946634476a209dffe559632628e07107fb749425cc5fd046121bcf8f5",
      "assetIds": []
    },
    {
      "x": 172,
      "y": 317,
      "size": 1,
      "price": "1011000000000000000000",
      "reserved": "",
      "salt": "0x8c94d9d6a801fd8098704a42bef73c12ee8e82ac082526f6c386b58526ce78b9",
      "assetIds": []
    },
    {
      "x": 172,
      "y": 318,
      "size": 1,
      "price": "1011000000000000000000",
      "reserved": "",
      "salt": "0xcbd0fcc9a79490e6753946a107f334ca6048d5b99659776fb1be483e65d7d9b8",
      "assetIds": []
    },
    {
      "x": 172,
      "y": 319,
      "size": 1,
      "price": "1011000000000000000000",
      "reserved": "",
      "salt": "0xadd06cea1cb19d944b210ff19e98cf6b4d11123f884ca71f81d4caddd6c5a130",
      "assetIds": []
    },
    {
      "x": 172,
      "y": 320,
      "size": 1,
      "price": "1011000000000000000000",
      "reserved": "",
      "salt": "0x9156c102d3285d92670563febc7d0c70fa8e0864eda0cbcda39d5fc0aec31b21",
      "assetIds": []
    },
    {
      "x": 172,
      "y": 321,
      "size": 1,
      "price": "1011000000000000000000",
      "reserved": "",
      "salt": "0xa88abb13ab99f7178310e3e850c9ba6710b62cd33b79917276dbbb54cda012e3",
      "assetIds": []
    },
    {
      "x": 172,
      "y": 322,
      "size": 1,
      "price": "4683000000000000000000",
      "reserved": "",
      "salt": "0x0588c04eea051a5900957d912a44a934533c1d7cf9ee5852cc148f12390c980f",
      "assetIds": [
        "41506478881403507969696680653240014914910929820314476107906210059990541021186"
      ]
    },
    {
      "x": 172,
      "y": 323,
      "size": 1,
      "price": "4683000000000000000000",
      "reserved": "",
      "salt": "0x537f3297698806ea10cbe2e107d8f3b8b95bfb74cf2e1d4b26682a43971785df",
      "assetIds": [
        "41506478881403507969696680653240014914910929820314476107906210059990541021186"
      ]
    },
    {
      "x": 172,
      "y": 330,
      "size": 1,
      "price": "4683000000000000000000",
      "reserved": "",
      "salt": "0xe2a3cde73af0a2f8b28a7d06af5272277b8893b732730df99c9f6f0a486436cf",
      "assetIds": [
        "41506478881403507969696680653240014914910929820314476107906210059990541021186"
      ]
    },
    {
      "x": 172,
      "y": 331,
      "size": 1,
      "price": "1011000000000000000000",
      "reserved": "0x7a9fe22691c811ea339d9b73150e6911a5343dca",
      "salt": "0x4b484e8f836c6ee01aea8c76e21534d9dac5abffb0373c3c9394773e2779868a",
      "assetIds": []
    },
    {
      "x": 172,
      "y": 332,
      "size": 1,
      "price": "1011000000000000000000",
      "reserved": "",
      "salt": "0xc973d3536042eef5e280e9c091fcd5020ce7242889b6507f146ebfb9dc63f9b8",
      "assetIds": []
    },
    {
      "x": 172,
      "y": 333,
      "size": 1,
      "price": "1011000000000000000000",
      "reserved": "",
      "salt": "0xbd79dc6c7c8c8adce4003199b8c226fb01cf3db3f185a11a738ee027a7718b56",
      "assetIds": []
    },
    {
      "x": 172,
      "y": 334,
      "size": 1,
      "price": "1011000000000000000000",
      "reserved": "",
      "salt": "0x3ab048a087097d23e4a54349789c0545c0f6b18a8b19b038b4af21f476363968",
      "assetIds": []
    },
    {
      "x": 172,
      "y": 335,
      "size": 1,
      "price": "4683000000000000000000",
      "reserved": "",
      "salt": "0x6d4cd5ddb6c4bbb89d57acdd63593060c8438486dc3b3062ff079fae5a06fbcf",
      "assetIds": [
        "41506478881403507969696680653240014914910929820314476107906210059990541021186"
      ]
    },
    {
      "x": 172,
      "y": 342,
      "size": 1,
      "price": "4683000000000000000000",
      "reserved": "",
      "salt": "0xcc8faff6efa161fbcf0e10ce1d559d17bbd2a0a4a816857b6f84de4ee63d764c",
      "assetIds": [
        "41506478881403507969696680653240014914910929820314476107906210059990541021186"
      ]
    },
    {
      "x": 172,
      "y": 343,
      "size": 1,
      "price": "1011000000000000000000",
      "reserved": "",
      "salt": "0x5fa4566e0cf9ead5eaba505df01b8657c0ae09b3e4c06e301169fcdad9de399c",
      "assetIds": []
    },
    {
      "x": 172,
      "y": 344,
      "size": 1,
      "price": "1011000000000000000000",
      "reserved": "",
      "salt": "0x26a7aabd5362873a14c19612dd462f84a152829bcd420a60241af3254fe96b54",
      "assetIds": []
    },
    {
      "x": 172,
      "y": 345,
      "size": 1,
      "price": "1011000000000000000000",
      "reserved": "",
      "salt": "0x09cc7860a147d5c5eb571e4f47dab4cbd824243af43b0ec5c001b51762a98ede",
      "assetIds": []
    },
    {
      "x": 172,
      "y": 346,
      "size": 1,
      "price": "1011000000000000000000",
      "reserved": "0x7a9fe22691c811ea339d9b73150e6911a5343dca",
      "salt": "0x0edc808409d6b92aa6377837fcb11d548424bd56952d96d8eef2bf7244845086",
      "assetIds": []
    },
    {
      "x": 172,
      "y": 347,
      "size": 1,
      "price": "1011000000000000000000",
      "reserved": "",
      "salt": "0x5c045ac3f09ae06be0eb04bc409a4749638cbd4aadc7bde09a07bc09088a25f4",
      "assetIds": []
    },
    {
      "x": 173,
      "y": 312,
      "size": 1,
      "price": "1011000000000000000000",
      "reserved": "0x7a9fe22691c811ea339d9b73150e6911a5343dca",
      "salt": "0x382b1330d723be158c74acc6f88eca7c5071c122d2c03416fdccce299a03ad9a",
      "assetIds": []
    },
    {
      "x": 173,
      "y": 313,
      "size": 1,
      "price": "1011000000000000000000",
      "reserved": "0x7a9fe22691c811ea339d9b73150e6911a5343dca",
      "salt": "0x2e2bd5ec0302ae5814a49e9e0bf1488bbfcb2d74fd03d8d8af5071314ff1934b",
      "assetIds": []
    },
    {
      "x": 173,
      "y": 314,
      "size": 1,
      "price": "1011000000000000000000",
      "reserved": "",
      "salt": "0xde40419ba3653d32e30fc32369b5e8bb230c92c1548f22900632d37d2846062e",
      "assetIds": []
    },
    {
      "x": 173,
      "y": 315,
      "size": 1,
      "price": "1011000000000000000000",
      "reserved": "",
      "salt": "0x1aa564b180b539b73e3d1925ef4237ec5d194c7bda06b5da7e772322f1ef5715",
      "assetIds": []
    },
    {
      "x": 173,
      "y": 316,
      "size": 1,
      "price": "1011000000000000000000",
      "reserved": "",
      "salt": "0x4bbbf0232985aabbe8d8789df80065feeac089d4ab196246875d498eda6fd127",
      "assetIds": []
    },
    {
      "x": 173,
      "y": 317,
      "size": 1,
      "price": "1011000000000000000000",
      "reserved": "",
      "salt": "0x0aa4779e5eee7c7f332a442bcf98299b00cc59c628eec004b1d971d9f92a1c67",
      "assetIds": []
    },
    {
      "x": 173,
      "y": 318,
      "size": 1,
      "price": "1011000000000000000000",
      "reserved": "",
      "salt": "0x90588189c4569c53802bc5c9e2f3ed32e5714febd9e900d8f597fbeeabe23b07",
      "assetIds": []
    },
    {
      "x": 173,
      "y": 319,
      "size": 1,
      "price": "1011000000000000000000",
      "reserved": "",
      "salt": "0x087cfb36e8d3435d9aff71e2f10f601324668dee059eeb96dfe8067c7b04cb1e",
      "assetIds": []
    },
    {
      "x": 173,
      "y": 320,
      "size": 1,
      "price": "1011000000000000000000",
      "reserved": "",
      "salt": "0x51aafb46d7f029875766b95c907caded726f131c33924e14a0055b453618cbd8",
      "assetIds": []
    },
    {
      "x": 173,
      "y": 321,
      "size": 1,
      "price": "1011000000000000000000",
      "reserved": "",
      "salt": "0x54f0df5f99a19b83120dd231813a4eb740db9fcfb0c2faf7bdfff08e282b1b8f",
      "assetIds": []
    },
    {
      "x": 173,
      "y": 322,
      "size": 1,
      "price": "1011000000000000000000",
      "reserved": "",
      "salt": "0x42166aa51aab6346ba238b90aef9e3272acf7173216fb539fea0183144508d2a",
      "assetIds": []
    },
    {
      "x": 173,
      "y": 323,
      "size": 1,
      "price": "4683000000000000000000",
      "reserved": "",
      "salt": "0x18b5c0713a22a06572a587512d531aaf63176a98ce8874aba23233d86d99e072",
      "assetIds": [
        "41506478881403507969696680653240014914910929820314476107906210059990541021186"
      ]
    },
    {
      "x": 173,
      "y": 330,
      "size": 1,
      "price": "4683000000000000000000",
      "reserved": "",
      "salt": "0x960e77b5227a12cf0037efe1dd959763bbd2fde788d5fd863b8c387ebd5c5f8a",
      "assetIds": [
        "41506478881403507969696680653240014914910929820314476107906210059990541021186"
      ]
    },
    {
      "x": 173,
      "y": 331,
      "size": 1,
      "price": "4683000000000000000000",
      "reserved": "",
      "salt": "0xed11d578b715a3ca2f731286c89ca153cc3fa45a880c70c7350e39106a553ae4",
      "assetIds": [
        "41506478881403507969696680653240014914910929820314476107906210059990541021186"
      ]
    },
    {
      "x": 173,
      "y": 332,
      "size": 1,
      "price": "1011000000000000000000",
      "reserved": "",
      "salt": "0x620c4c5f119786f8fdcebacbb4bff86f38a6ad71b60f874db6194f26a75e8583",
      "assetIds": []
    },
    {
      "x": 173,
      "y": 333,
      "size": 1,
      "price": "1011000000000000000000",
      "reserved": "0x7a9fe22691c811ea339d9b73150e6911a5343dca",
      "salt": "0x97893e21b8f6ff975fa998a06ed6801ab6783497a486c9cec98e66e4aaaafef9",
      "assetIds": []
    },
    {
      "x": 173,
      "y": 334,
      "size": 1,
      "price": "1011000000000000000000",
      "reserved": "",
      "salt": "0xcc5e2739895bef4280b4b68957ff0667a1640c2691ab5a0c8b3d1420b4a8083a",
      "assetIds": []
    },
    {
      "x": 173,
      "y": 335,
      "size": 1,
      "price": "4683000000000000000000",
      "reserved": "",
      "salt": "0xa6cfc8c1bc1e6c8e6319640c77d893fb06ec25d79423fdf9afe0d09560067fe1",
      "assetIds": [
        "41506478881403507969696680653240014914910929820314476107906210059990541021186"
      ]
    },
    {
      "x": 173,
      "y": 342,
      "size": 1,
      "price": "4683000000000000000000",
      "reserved": "",
      "salt": "0x4099e504f5bb9c03b637d9e972acc3f9577303cbc6215cb8a79af116b9d355c8",
      "assetIds": [
        "41506478881403507969696680653240014914910929820314476107906210059990541021186"
      ]
    },
    {
      "x": 173,
      "y": 343,
      "size": 1,
      "price": "1011000000000000000000",
      "reserved": "0x7a9fe22691c811ea339d9b73150e6911a5343dca",
      "salt": "0x79039347f626ad42bd9da81539bb8bd202263540e3f8846f33d918b9ad21d603",
      "assetIds": []
    },
    {
      "x": 173,
      "y": 344,
      "size": 1,
      "price": "1011000000000000000000",
      "reserved": "",
      "salt": "0x8b0ddcf9b2a3dbcadb39e757c620a070e3b32feda00b38103da96f63e3d02b41",
      "assetIds": []
    },
    {
      "x": 173,
      "y": 345,
      "size": 1,
      "price": "1011000000000000000000",
      "reserved": "",
      "salt": "0x4998a541d3535284a319b43e1b89eb57e5c725e1f155a809929d7a3d77b2f85e",
      "assetIds": []
    },
    {
      "x": 173,
      "y": 346,
      "size": 1,
      "price": "1011000000000000000000",
      "reserved": "",
      "salt": "0x28a0da9ea7ed2966fa30186e75bee976ce9610df538cc7a75b49367ff54c0a00",
      "assetIds": []
    },
    {
      "x": 173,
      "y": 347,
      "size": 1,
      "price": "1011000000000000000000",
      "reserved": "",
      "salt": "0x9c14315d12946f7706a46654cd6e38ef2cd9e3805e9bc8ef43c364da522b0748",
      "assetIds": []
    },
    {
      "x": 174,
      "y": 313,
      "size": 1,
      "price": "1011000000000000000000",
      "reserved": "",
      "salt": "0x4766f5bd54c6183991ffb4e48a2be2af1befb78b470d420ed75521bc620a4b61",
      "assetIds": []
    },
    {
      "x": 174,
      "y": 314,
      "size": 1,
      "price": "1011000000000000000000",
      "reserved": "",
      "salt": "0xe01e9d92e9b553b703210030cd27a83d2a531925638e30e293023b0006d55e6a",
      "assetIds": []
    },
    {
      "x": 174,
      "y": 315,
      "size": 1,
      "price": "1011000000000000000000",
      "reserved": "",
      "salt": "0x803475b586586df37e22ea1ef1ed011b3f707c7830e4008ffdca857dfbcb8838",
      "assetIds": []
    },
    {
      "x": 174,
      "y": 316,
      "size": 1,
      "price": "1011000000000000000000",
      "reserved": "",
      "salt": "0x74435bda56ab60d5d8c48c72ac40b9cf5dd36a2ee2bc6f3f2d40236da7367724",
      "assetIds": []
    },
    {
      "x": 174,
      "y": 317,
      "size": 1,
      "price": "1011000000000000000000",
      "reserved": "",
      "salt": "0x74fbd9f488e6d603c1d6e409b6338b40c9829baa113c3b6e5a111f39aa5a2bd9",
      "assetIds": []
    },
    {
      "x": 174,
      "y": 318,
      "size": 1,
      "price": "1011000000000000000000",
      "reserved": "",
      "salt": "0xf4cbe2a82c1d2bf8843826eddb5201a5c79b744360f8f3f0e4682d50fa541216",
      "assetIds": []
    },
    {
      "x": 174,
      "y": 319,
      "size": 1,
      "price": "1011000000000000000000",
      "reserved": "",
      "salt": "0xcc64b3023d1dd7b40647482da85761a5388aa578a30b0f4c0d5cdbfc9c618197",
      "assetIds": []
    },
    {
      "x": 174,
      "y": 320,
      "size": 1,
      "price": "1011000000000000000000",
      "reserved": "",
      "salt": "0x1a77fd37b19714a69e9860ff67f8340482a89529283ad1c070d017fadcd700a8",
      "assetIds": []
    },
    {
      "x": 174,
      "y": 321,
      "size": 1,
      "price": "1011000000000000000000",
      "reserved": "0x7a9fe22691c811ea339d9b73150e6911a5343dca",
      "salt": "0x9fdb31034ab2eb9e41c71fed4cb0569e8872d54a62c6aa07fa733fd0f87b9802",
      "assetIds": []
    },
    {
      "x": 174,
      "y": 322,
      "size": 1,
      "price": "1011000000000000000000",
      "reserved": "",
      "salt": "0x5fafa33151cda3d0e88d6da7675743814b9ab752bb35c11b3866bed13bc55301",
      "assetIds": []
    },
    {
      "x": 174,
      "y": 323,
      "size": 1,
      "price": "4683000000000000000000",
      "reserved": "",
      "salt": "0x436c5489708a0a063057396de1fc41b622b4ff620bc3b12327b60c5d4111da83",
      "assetIds": [
        "41506478881403507969696680653240014914910929820314476107906210059990541021186"
      ]
    },
    {
      "x": 174,
      "y": 324,
      "size": 1,
      "price": "4683000000000000000000",
      "reserved": "",
      "salt": "0x1814573d5a8c86125675001e0ec9cf690f0bd191c423af91294453008ffcc229",
      "assetIds": [
        "41506478881403507969696680653240014914910929820314476107906210059990541021186"
      ]
    },
    {
      "x": 174,
      "y": 325,
      "size": 1,
      "price": "4683000000000000000000",
      "reserved": "",
      "salt": "0x16ab1d6300d5e8a0c95942648e4044aa26438fbc4a86423d0628a08056b40bd4",
      "assetIds": [
        "41506478881403507969696680653240014914910929820314476107906210059990541021186"
      ]
    },
    {
      "x": 174,
      "y": 326,
      "size": 1,
      "price": "4683000000000000000000",
      "reserved": "",
      "salt": "0xf2dccb8dd78f6caf04c7e0cfbf035d1cee20708d7eb95ba59929fff3ee511917",
      "assetIds": [
        "41506478881403507969696680653240014914910929820314476107906210059990541021186"
      ]
    },
    {
      "x": 174,
      "y": 327,
      "size": 1,
      "price": "4683000000000000000000",
      "reserved": "",
      "salt": "0xfe26f137b2794cc7d31c7af42a95701ac89a23612946d462f5bd5fa2ee43a25f",
      "assetIds": [
        "41506478881403507969696680653240014914910929820314476107906210059990541021186"
      ]
    },
    {
      "x": 174,
      "y": 328,
      "size": 1,
      "price": "4683000000000000000000",
      "reserved": "",
      "salt": "0xb47216523fb38db35436a776bdf2f42de83875c72664ff0738c2cc00eafddb1c",
      "assetIds": [
        "41506478881403507969696680653240014914910929820314476107906210059990541021186"
      ]
    },
    {
      "x": 174,
      "y": 329,
      "size": 1,
      "price": "4683000000000000000000",
      "reserved": "",
      "salt": "0xf16ddc352852467161173bedf6c32f7730abecab6838d29344f3b79e869f6fac",
      "assetIds": [
        "41506478881403507969696680653240014914910929820314476107906210059990541021186"
      ]
    },
    {
      "x": 174,
      "y": 330,
      "size": 1,
      "price": "4683000000000000000000",
      "reserved": "",
      "salt": "0x606cf416a785f8faa057908f6508046b8ccc8048e2c2d10287248ab24b1282a3",
      "assetIds": [
        "41506478881403507969696680653240014914910929820314476107906210059990541021186"
      ]
    },
    {
      "x": 174,
      "y": 331,
      "size": 1,
      "price": "1011000000000000000000",
      "reserved": "",
      "salt": "0x8e16107c1e0950b274828387aab79c35629e4b09effdac6ccb5002e48d371afa",
      "assetIds": []
    },
    {
      "x": 174,
      "y": 332,
      "size": 1,
      "price": "1011000000000000000000",
      "reserved": "",
      "salt": "0xd3f6bf4f7710b0c198224bd3a8cb30a39b642ec393e2cb3d510396ad635dc3fa",
      "assetIds": []
    },
    {
      "x": 174,
      "y": 333,
      "size": 1,
      "price": "1011000000000000000000",
      "reserved": "",
      "salt": "0x0678b2ce1512b4d5e26c1b2d6aafac516ec931373557c3613bbc901b6df2c9d0",
      "assetIds": []
    },
    {
      "x": 174,
      "y": 334,
      "size": 1,
      "price": "1011000000000000000000",
      "reserved": "",
      "salt": "0x20c7135f27ce74c3c2f1c2361d46b85c69250a3ec63209e2f0756b38992c45b9",
      "assetIds": []
    },
    {
      "x": 174,
      "y": 335,
      "size": 1,
      "price": "4683000000000000000000",
      "reserved": "",
      "salt": "0xd38bb1d2da99a53828867855dc2b9f6e74c9bfafb09996bb43dea98398797b58",
      "assetIds": [
        "41506478881403507969696680653240014914910929820314476107906210059990541021186"
      ]
    },
    {
      "x": 174,
      "y": 336,
      "size": 1,
      "price": "4683000000000000000000",
      "reserved": "",
      "salt": "0x1cf4655b7ce44127d7824ceea3fc8d20ce3b2be8ad83784839cf4e8f8bb850e2",
      "assetIds": [
        "41506478881403507969696680653240014914910929820314476107906210059990541021186"
      ]
    },
    {
      "x": 174,
      "y": 337,
      "size": 1,
      "price": "4683000000000000000000",
      "reserved": "",
      "salt": "0x76d64ec068bbe7788ce5c28f4b8ac6622f4b7472d6e90700c542b36ce909e0c7",
      "assetIds": [
        "41506478881403507969696680653240014914910929820314476107906210059990541021186"
      ]
    },
    {
      "x": 174,
      "y": 338,
      "size": 1,
      "price": "4683000000000000000000",
      "reserved": "",
      "salt": "0x55d3c7bc27ae277e512a3e306779a83542fa25820cfaa791abdf173ea9227b6c",
      "assetIds": [
        "41506478881403507969696680653240014914910929820314476107906210059990541021186"
      ]
    },
    {
      "x": 174,
      "y": 339,
      "size": 1,
      "price": "4683000000000000000000",
      "reserved": "",
      "salt": "0x449b4f36bb11c4e56f2932f0a7867c17c251d3480699679c9c8c99a0298f53a2",
      "assetIds": [
        "41506478881403507969696680653240014914910929820314476107906210059990541021186"
      ]
    },
    {
      "x": 174,
      "y": 340,
      "size": 1,
      "price": "4683000000000000000000",
      "reserved": "",
      "salt": "0x6541dfeec7035e39046e5bc96554c53ce3d784385eace87fa8a37667e463947f",
      "assetIds": [
        "41506478881403507969696680653240014914910929820314476107906210059990541021186"
      ]
    },
    {
      "x": 174,
      "y": 341,
      "size": 1,
      "price": "4683000000000000000000",
      "reserved": "",
      "salt": "0x30da54868e58bd9de7d8e1a8eab3da5d7aa2d61c71054460508280daac299842",
      "assetIds": [
        "41506478881403507969696680653240014914910929820314476107906210059990541021186"
      ]
    },
    {
      "x": 174,
      "y": 345,
      "size": 1,
      "price": "1011000000000000000000",
      "reserved": "",
      "salt": "0x9c3d675a241779b69d990d3335ec12c8694cfb4559bf49ef18b86fe39bbd5330",
      "assetIds": []
    },
    {
      "x": 174,
      "y": 346,
      "size": 1,
      "price": "1011000000000000000000",
      "reserved": "",
      "salt": "0xa94a392ce5c832cb39c9055fd05d195367b81b7cd7d90081934d1c38178793c7",
      "assetIds": []
    },
    {
      "x": 174,
      "y": 347,
      "size": 1,
      "price": "1011000000000000000000",
      "reserved": "0x7a9fe22691c811ea339d9b73150e6911a5343dca",
      "salt": "0x80a56f8e30e730f797d1bd2798e3d26d6f0f409e83eeb4c01c7ea927a8e96561",
      "assetIds": []
    },
    {
      "x": 175,
      "y": 313,
      "size": 1,
      "price": "1011000000000000000000",
      "reserved": "",
      "salt": "0x043e9c458a18da59a8e085b91d776b09618683d3ae6db102087bdb7074f35469",
      "assetIds": []
    },
    {
      "x": 175,
      "y": 314,
      "size": 1,
      "price": "1011000000000000000000",
      "reserved": "",
      "salt": "0x2b8a46a1342264b3225c815b193d06891b39b614704f5ba9ececa9ef220f9bb2",
      "assetIds": []
    },
    {
      "x": 175,
      "y": 315,
      "size": 1,
      "price": "1011000000000000000000",
      "reserved": "",
      "salt": "0x9bc18d6814a17bc1118e1af4fb467ada7e1332de8608e930d55600c217e8f100",
      "assetIds": []
    },
    {
      "x": 175,
      "y": 316,
      "size": 1,
      "price": "1011000000000000000000",
      "reserved": "",
      "salt": "0xe4a7ce8435aa51caeb87f3297408e8a6077313b12a93aee71fb2de5b35f58d6d",
      "assetIds": []
    },
    {
      "x": 175,
      "y": 317,
      "size": 1,
      "price": "1011000000000000000000",
      "reserved": "",
      "salt": "0xc695c25fb732523f16504e85b8905337be6c305ed11073c2ad85fc7b9f887bfa",
      "assetIds": []
    },
    {
      "x": 175,
      "y": 318,
      "size": 1,
      "price": "1011000000000000000000",
      "reserved": "",
      "salt": "0x804b7719914663d052b4166caf2d871e5f9fc9b8d76869242a129eb42fcb9e9e",
      "assetIds": []
    },
    {
      "x": 175,
      "y": 319,
      "size": 1,
      "price": "1011000000000000000000",
      "reserved": "",
      "salt": "0xe072b465e9dcbab2c529a1e3ff46928787021befd0da7e41554348cd19f4e50e",
      "assetIds": []
    },
    {
      "x": 175,
      "y": 320,
      "size": 1,
      "price": "1011000000000000000000",
      "reserved": "",
      "salt": "0xde7df25d4e825470fa4e16227e46a64efa9e45d79e2e0b6b6352cde2457bd88d",
      "assetIds": []
    },
    {
      "x": 175,
      "y": 321,
      "size": 1,
      "price": "1011000000000000000000",
      "reserved": "",
      "salt": "0xa6ffb4706c26c6699f7f5e8c5897c83d65398a093b302ac678e3b522abaa78fd",
      "assetIds": []
    },
    {
      "x": 175,
      "y": 322,
      "size": 1,
      "price": "1011000000000000000000",
      "reserved": "",
      "salt": "0x1af1e298bdf5c4f3bff47d60f44b9aab5658970de85be610df7676d3c2bd7fcf",
      "assetIds": []
    },
    {
      "x": 175,
      "y": 323,
      "size": 1,
      "price": "1011000000000000000000",
      "reserved": "",
      "salt": "0x258012fdd8e5105050edacbc7d56abe6ee4039ca7b30a8c18dea9249edd56757",
      "assetIds": []
    },
    {
      "x": 175,
      "y": 324,
      "size": 1,
      "price": "1011000000000000000000",
      "reserved": "",
      "salt": "0x39d75649b06d7aa88cd9af990cf0a09afac50462d61d6ab1ba02659a17fbf38f",
      "assetIds": []
    },
    {
      "x": 175,
      "y": 325,
      "size": 1,
      "price": "1011000000000000000000",
      "reserved": "",
      "salt": "0xf7ff4489ed5edb7151138a5a668ab64f47567380d678f1a4dbc520d74feb6c77",
      "assetIds": []
    },
    {
      "x": 175,
      "y": 326,
      "size": 1,
      "price": "1011000000000000000000",
      "reserved": "",
      "salt": "0xcd320330eefcf6c2d009a6f031ea9fb5f72d05dfda545ca40567689506dedcd5",
      "assetIds": []
    },
    {
      "x": 175,
      "y": 327,
      "size": 1,
      "price": "4683000000000000000000",
      "reserved": "",
      "salt": "0x56206eb536ed0af6fbaa26525ab577af824e7455ac9a6c8b9c5e7f8fac36176c",
      "assetIds": [
        "41506478881403507969696680653240014914910929820314476107906210059990541021186"
      ]
    },
    {
      "x": 175,
      "y": 328,
      "size": 1,
      "price": "4683000000000000000000",
      "reserved": "",
      "salt": "0x141cea8daf5c41faeb9d538d2ededc29eadc5c9453b9e246bd7e4c7892db3fe4",
      "assetIds": [
        "41506478881403507969696680653240014914910929820314476107906210059990541021186"
      ]
    },
    {
      "x": 175,
      "y": 329,
      "size": 1,
      "price": "1011000000000000000000",
      "reserved": "",
      "salt": "0xe2b7b6d96bdcd0d536d94b3fced38de9458fcd6f5e82c7bce98e462aac46baeb",
      "assetIds": []
    },
    {
      "x": 175,
      "y": 330,
      "size": 1,
      "price": "1011000000000000000000",
      "reserved": "0x7a9fe22691c811ea339d9b73150e6911a5343dca",
      "salt": "0x91caef08e4b7e328fb857de3b6c6a212b33c2e9294c6f20b6fe909da2f0ebab1",
      "assetIds": []
    },
    {
      "x": 175,
      "y": 331,
      "size": 1,
      "price": "1011000000000000000000",
      "reserved": "",
      "salt": "0x570e637c537c504fb418ba78146b07d3d0a9b4eed2a74c2affa839724416b58b",
      "assetIds": []
    },
    {
      "x": 175,
      "y": 332,
      "size": 1,
      "price": "1011000000000000000000",
      "reserved": "",
      "salt": "0x1120233d19ca9b011636ba4de75a13cd930b89183dad7734f072adb07f388c9f",
      "assetIds": []
    },
    {
      "x": 175,
      "y": 333,
      "size": 1,
      "price": "1011000000000000000000",
      "reserved": "",
      "salt": "0xdcade965adfd9bcb9f4e1930b7eb2da8a43cfa72456384f718df265a64476eb8",
      "assetIds": []
    },
    {
      "x": 175,
      "y": 334,
      "size": 1,
      "price": "1011000000000000000000",
      "reserved": "",
      "salt": "0x47281598a94a62df4d870f543fee3280e9123e8dcdd88788ecb3ca0e630df6d2",
      "assetIds": []
    },
    {
      "x": 175,
      "y": 335,
      "size": 1,
      "price": "1011000000000000000000",
      "reserved": "0x7a9fe22691c811ea339d9b73150e6911a5343dca",
      "salt": "0xdf8f5300509d332463ce49c886ac8b48bff3e4c5474af9224bf7ce422ea59f1b",
      "assetIds": []
    },
    {
      "x": 175,
      "y": 336,
      "size": 1,
      "price": "4683000000000000000000",
      "reserved": "",
      "salt": "0x564aa7b7237fc24c9627e1484602f46b66ddcc4d343a9b0d80d1d1e49f8bd756",
      "assetIds": [
        "41506478881403507969696680653240014914910929820314476107906210059990541021186"
      ]
    },
    {
      "x": 175,
      "y": 337,
      "size": 1,
      "price": "1011000000000000000000",
      "reserved": "",
      "salt": "0x9c17c219c18eb3a273e37663b58e313805f545c1dcda1aad671f7a9643dcb9f0",
      "assetIds": []
    },
    {
      "x": 175,
      "y": 338,
      "size": 1,
      "price": "1011000000000000000000",
      "reserved": "",
      "salt": "0x4e005ba8bc34a4d988685c1308fd6449dea7aec2df95df6d1c40483323b1f0aa",
      "assetIds": []
    },
    {
      "x": 175,
      "y": 339,
      "size": 1,
      "price": "1011000000000000000000",
      "reserved": "0x7a9fe22691c811ea339d9b73150e6911a5343dca",
      "salt": "0x1886948e180087aed9e6768ae1c32865acf37646f061da5ad58841da6f1a4ea8",
      "assetIds": []
    },
    {
      "x": 175,
      "y": 340,
      "size": 1,
      "price": "1011000000000000000000",
      "reserved": "",
      "salt": "0x0ccdf4abbaa600ca6e358e0de3371ad9e6fa93dbb08b37d6f4472ddf96f1f31c",
      "assetIds": []
    },
    {
      "x": 175,
      "y": 341,
      "size": 1,
      "price": "1011000000000000000000",
      "reserved": "0x7a9fe22691c811ea339d9b73150e6911a5343dca",
      "salt": "0x716aafe769ca781315f33f0a666c16687695a96870ca899cf2dd5ff3219e434e",
      "assetIds": []
    },
    {
      "x": 175,
      "y": 345,
      "size": 1,
      "price": "1011000000000000000000",
      "reserved": "",
      "salt": "0xdca8a09cd90a144a28965e308939a5af993cd45c70b6b961adabcd8ffb12d0e9",
      "assetIds": []
    },
    {
      "x": 175,
      "y": 346,
      "size": 1,
      "price": "1011000000000000000000",
      "reserved": "",
      "salt": "0x05e543e1dec94dda093dca6e5cbdbe9ed18854ae9dccd46d37138362d09f3240",
      "assetIds": []
    },
    {
      "x": 175,
      "y": 347,
      "size": 1,
      "price": "1011000000000000000000",
      "reserved": "",
      "salt": "0xca24b13c726812f6bcf27aad0fc77961dd92893e2e8f133f05b0f6b0ea1eb9be",
      "assetIds": []
    },
    {
      "x": 176,
      "y": 314,
      "size": 1,
      "price": "1011000000000000000000",
      "reserved": "",
      "salt": "0xb628537b495324a0beda869997a4205fc31fb53cc5f56459c4365ce21a5ea338",
      "assetIds": []
    },
    {
      "x": 176,
      "y": 315,
      "size": 1,
      "price": "1011000000000000000000",
      "reserved": "",
      "salt": "0x1b5cb30a07056c51051efd0b786437a654fe38770f4f2eb9b382cc3987e6b7d0",
      "assetIds": []
    },
    {
      "x": 176,
      "y": 316,
      "size": 1,
      "price": "1011000000000000000000",
      "reserved": "",
      "salt": "0x447a02d573466f3154a299ed3b6828e18a38c9dff2ea660cc880b3afadf87bcc",
      "assetIds": []
    },
    {
      "x": 176,
      "y": 317,
      "size": 1,
      "price": "1011000000000000000000",
      "reserved": "",
      "salt": "0xbe055cd34db4217de106d449dc9eb7e4bc360db48e1be46174f69aa4892f68af",
      "assetIds": []
    },
    {
      "x": 176,
      "y": 318,
      "size": 1,
      "price": "1011000000000000000000",
      "reserved": "",
      "salt": "0x10837e9d17c0b36b7599f19c1a2f0a8ee2372346974f7e0e0c6da226237c0378",
      "assetIds": []
    },
    {
      "x": 176,
      "y": 319,
      "size": 1,
      "price": "1011000000000000000000",
      "reserved": "",
      "salt": "0x0a4250ba895bcab04a12486a260b092db86d81c455f20d0a5d873dd46a16a146",
      "assetIds": []
    },
    {
      "x": 176,
      "y": 320,
      "size": 1,
      "price": "1011000000000000000000",
      "reserved": "",
      "salt": "0xe74a972b45493c9aaa6fbe6d13a30f03f769128930341dc9eb3087f5c320b9fe",
      "assetIds": []
    },
    {
      "x": 176,
      "y": 321,
      "size": 1,
      "price": "1011000000000000000000",
      "reserved": "",
      "salt": "0xbfc072fa0bed80098e402aacef722a737fa60ec2b6ec4a669f5418d2e63de777",
      "assetIds": []
    },
    {
      "x": 176,
      "y": 322,
      "size": 1,
      "price": "1011000000000000000000",
      "reserved": "",
      "salt": "0xe3eecaf11b853accdfb01ace7e77027c0a6a9d0c23d4e0e713754c3acc6c89b0",
      "assetIds": []
    },
    {
      "x": 176,
      "y": 323,
      "size": 1,
      "price": "1011000000000000000000",
      "reserved": "",
      "salt": "0x8ce5e289b4472cd123c639d74524d9a4bb73cc7a7b4ca5b859aa79cb21524434",
      "assetIds": []
    },
    {
      "x": 176,
      "y": 324,
      "size": 1,
      "price": "1011000000000000000000",
      "reserved": "",
      "salt": "0xd236a8c5da7ccb210b47b5aa979e0452f832a9ba1d597c08e6a6eb5c37a0062f",
      "assetIds": []
    },
    {
      "x": 176,
      "y": 325,
      "size": 1,
      "price": "1011000000000000000000",
      "reserved": "",
      "salt": "0xc77846fb783be6be1491e8675e2a436a87c6b69b7a7c640481d1fd05542c6bad",
      "assetIds": []
    },
    {
      "x": 176,
      "y": 326,
      "size": 1,
      "price": "1011000000000000000000",
      "reserved": "",
      "salt": "0xf5242c34494e2ecd264aa1f403e28f0c651767a5f8a8d93b5d17e6e89a5e3c58",
      "assetIds": []
    },
    {
      "x": 176,
      "y": 327,
      "size": 1,
      "price": "1011000000000000000000",
      "reserved": "0x7a9fe22691c811ea339d9b73150e6911a5343dca",
      "salt": "0xc32fe393dc7e300f2a9c6ea76175df4a622ea2f8fcd1c345cdd74935cc00d0ec",
      "assetIds": []
    },
    {
      "x": 176,
      "y": 328,
      "size": 1,
      "price": "1011000000000000000000",
      "reserved": "",
      "salt": "0xc4cd830a2e712b895c58741e08d7c265672a6c1925b564710e59d4d0d04021c0",
      "assetIds": []
    },
    {
      "x": 176,
      "y": 329,
      "size": 1,
      "price": "1011000000000000000000",
      "reserved": "",
      "salt": "0xddbd76a168ffb4eed5dfd60beeaca873aa7fe859c15b3feb4e86d1564c5dc54e",
      "assetIds": []
    },
    {
      "x": 176,
      "y": 330,
      "size": 1,
      "price": "1011000000000000000000",
      "reserved": "",
      "salt": "0x10750a2a861d6b394b6d5a2ca0279ade9af82dcb9211fb3c3406339177679599",
      "assetIds": []
    },
    {
      "x": 176,
      "y": 331,
      "size": 1,
      "price": "1011000000000000000000",
      "reserved": "",
      "salt": "0x1f939c381284716a10298131dd5c35642634f031e987e06eda8e2cf2e12e395e",
      "assetIds": []
    },
    {
      "x": 176,
      "y": 332,
      "size": 1,
      "price": "4683000000000000000000",
      "reserved": "",
      "salt": "0x37d1e0c4b78599edaf53575d1c57bbfb477f6f79d43187672d7b1ad8a0adf6c5",
      "assetIds": [
        "41506478881403507969696680653240014914910929820314476107906210059990541021186"
      ]
    },
    {
      "x": 176,
      "y": 333,
      "size": 1,
      "price": "4683000000000000000000",
      "reserved": "",
      "salt": "0xc7e5a296d88caa8a1c9c0d7d95e3e6bc6709af62e8a7c5525dfc259271b082a0",
      "assetIds": [
        "41506478881403507969696680653240014914910929820314476107906210059990541021186"
      ]
    },
    {
      "x": 176,
      "y": 334,
      "size": 1,
      "price": "4683000000000000000000",
      "reserved": "",
      "salt": "0x4fca3d37e4561f4162390bb2d4f10d517bc610809f413f0591b2bac200eeb069",
      "assetIds": [
        "41506478881403507969696680653240014914910929820314476107906210059990541021186"
      ]
    },
    {
      "x": 176,
      "y": 335,
      "size": 1,
      "price": "4683000000000000000000",
      "reserved": "",
      "salt": "0xa8db5f495017617ee9987bdec42d6a0448bf4efae4de4bff922384d839074334",
      "assetIds": [
        "41506478881403507969696680653240014914910929820314476107906210059990541021186"
      ]
    },
    {
      "x": 176,
      "y": 336,
      "size": 1,
      "price": "4683000000000000000000",
      "reserved": "",
      "salt": "0x71b70d2ad4822da3e3c125b471a62e8c96f468e394ebc08c54e8b7115e4d83c5",
      "assetIds": [
        "41506478881403507969696680653240014914910929820314476107906210059990541021186"
      ]
    },
    {
      "x": 176,
      "y": 337,
      "size": 1,
      "price": "1011000000000000000000",
      "reserved": "0x7a9fe22691c811ea339d9b73150e6911a5343dca",
      "salt": "0x87d099144ba4c9be81b989f02c8bf71b4a74f3c7e9635960b5ea226331808d85",
      "assetIds": []
    },
    {
      "x": 176,
      "y": 338,
      "size": 1,
      "price": "1011000000000000000000",
      "reserved": "",
      "salt": "0xb30ce66d6a0ae14ee3645b820d4bed179eb8bec97c8fa7dc8eb2b62efa07a93e",
      "assetIds": []
    },
    {
      "x": 176,
      "y": 339,
      "size": 1,
      "price": "1011000000000000000000",
      "reserved": "",
      "salt": "0x55d84103aefcde22b37d9f0c325537398008cb15fbcc078441226ec12f76a3a7",
      "assetIds": []
    },
    {
      "x": 176,
      "y": 340,
      "size": 1,
      "price": "1011000000000000000000",
      "reserved": "",
      "salt": "0x00ea60458dcd06c2f98c6420434fb131c6a2d100731d53c93e663f95826a6cff",
      "assetIds": []
    },
    {
      "x": 176,
      "y": 341,
      "size": 1,
      "price": "1011000000000000000000",
      "reserved": "",
      "salt": "0x75efa5c89c1d1106bc94106f8fcc7082d00cc58ed9a330c58f6144f6d211c4cf",
      "assetIds": []
    },
    {
      "x": 176,
      "y": 345,
      "size": 1,
      "price": "1011000000000000000000",
      "reserved": "",
      "salt": "0x3659b13a76f5d51a572c900d7e2d2cfade8bd9c305e40ef590e2e6ae4b0e7cdf",
      "assetIds": []
    },
    {
      "x": 176,
      "y": 346,
      "size": 1,
      "price": "1011000000000000000000",
      "reserved": "",
      "salt": "0x99d74b19a26889f8fde3f14bc754abc4b7f5ccf61427909fe1ac675847ef7c51",
      "assetIds": []
    },
    {
      "x": 176,
      "y": 347,
      "size": 1,
      "price": "1011000000000000000000",
      "reserved": "",
      "salt": "0x9d74d9ce571d099037bfc97ec592915081abed0a1cfea9371c2057a1c3372b58",
      "assetIds": []
    },
    {
      "x": 177,
      "y": 324,
      "size": 1,
      "price": "1011000000000000000000",
      "reserved": "",
      "salt": "0x84915998083fe33ad3769825a2fc741c9e48313765390dd1ca0318f15293b741",
      "assetIds": []
    },
    {
      "x": 177,
      "y": 325,
      "size": 1,
      "price": "1011000000000000000000",
      "reserved": "0x7a9fe22691c811ea339d9b73150e6911a5343dca",
      "salt": "0x65219466c40b5af6227d785cb5fd1bdc63aaf6254c8dafa26dadb9296b7682c5",
      "assetIds": []
    },
    {
      "x": 177,
      "y": 326,
      "size": 1,
      "price": "1011000000000000000000",
      "reserved": "",
      "salt": "0xca463690c895cfd2fbab8c453997d7343f9739a68dd76fae91f6f6b224dc7c25",
      "assetIds": []
    },
    {
      "x": 177,
      "y": 327,
      "size": 1,
      "price": "1011000000000000000000",
      "reserved": "",
      "salt": "0x86ceec95f0fcd8e64aae547e221fd2f12fd6cc9fad9b79fd422c6bb84407f48a",
      "assetIds": []
    },
    {
      "x": 177,
      "y": 328,
      "size": 1,
      "price": "1011000000000000000000",
      "reserved": "",
      "salt": "0xa992c6104f7d8a50ee6104202d3d3307ae3138314385d1988da4b1e63af5b467",
      "assetIds": []
    },
    {
      "x": 177,
      "y": 329,
      "size": 1,
      "price": "1011000000000000000000",
      "reserved": "",
      "salt": "0x0140575d4fedc23675f076c77fd6f87699d41a740c25b405b388cac503224890",
      "assetIds": []
    },
    {
      "x": 177,
      "y": 330,
      "size": 1,
      "price": "1011000000000000000000",
      "reserved": "",
      "salt": "0x383f07ca8c1b9072896ab41433710bba1567e73f04e0728ad1f0f778023a831b",
      "assetIds": []
    },
    {
      "x": 177,
      "y": 331,
      "size": 1,
      "price": "1011000000000000000000",
      "reserved": "",
      "salt": "0x921cfb0c9a136cdd87afc561169a91e31f25d461ee0f76877602e25092084cf8",
      "assetIds": []
    },
    {
      "x": 177,
      "y": 332,
      "size": 1,
      "price": "4683000000000000000000",
      "reserved": "",
      "salt": "0x3b464c35cfee8ebdd9bcf2d1fbe58683358a1b26dc266756861a690750310aed",
      "assetIds": [
        "41506478881403507969696680653240014914910929820314476107906210059990541021186"
      ]
    },
    {
      "x": 177,
      "y": 336,
      "size": 1,
      "price": "4683000000000000000000",
      "reserved": "",
      "salt": "0x62bc515faf45ab27abf9ec3c14fa471f11d6c14131e293b00f90be16bbd05f7b",
      "assetIds": [
        "41506478881403507969696680653240014914910929820314476107906210059990541021186"
      ]
    },
    {
      "x": 177,
      "y": 337,
      "size": 1,
      "price": "1011000000000000000000",
      "reserved": "",
      "salt": "0xfd79b9c61176caa8f0a4ffa7f0b434c5a26b78677869468a452bac82a44cc8fc",
      "assetIds": []
    },
    {
      "x": 177,
      "y": 338,
      "size": 1,
      "price": "1011000000000000000000",
      "reserved": "",
      "salt": "0x3846bbd346aa0a290205d7a078445bfed8e67b2ab7a969796a578689cd3b39b9",
      "assetIds": []
    },
    {
      "x": 177,
      "y": 339,
      "size": 1,
      "price": "4683000000000000000000",
      "reserved": "",
      "salt": "0x2ada0d4da1d7d37595fc06d646894302f324cf36e67635b74441033ad3f55e37",
      "assetIds": [
        "41506478881403507969696680653240014914910929820314476107906210059990541021186"
      ]
    },
    {
      "x": 177,
      "y": 340,
      "size": 1,
      "price": "4683000000000000000000",
      "reserved": "",
      "salt": "0x6b7e2ac80d3d1a870e6d0bcb02e4fb85deece599986acf076f55aa3283b53a2d",
      "assetIds": [
        "41506478881403507969696680653240014914910929820314476107906210059990541021186"
      ]
    },
    {
      "x": 177,
      "y": 341,
      "size": 1,
      "price": "4683000000000000000000",
      "reserved": "",
      "salt": "0x21f8264fa4597f5504a511c37c71157634163f77b4e88e6976af973bf2888c62",
      "assetIds": [
        "41506478881403507969696680653240014914910929820314476107906210059990541021186"
      ]
    },
    {
      "x": 177,
      "y": 342,
      "size": 1,
      "price": "4683000000000000000000",
      "reserved": "",
      "salt": "0x725c9fd070208c0f534564f85796b08db50cadc88f0b251289d04cd89b21fb9f",
      "assetIds": [
        "41506478881403507969696680653240014914910929820314476107906210059990541021186"
      ]
    },
    {
      "x": 177,
      "y": 343,
      "size": 1,
      "price": "4683000000000000000000",
      "reserved": "",
      "salt": "0x5e7566fd88834b3c9a7152f8cdf31b0ba25a45ea796c607170c8984c66ef2de6",
      "assetIds": [
        "41506478881403507969696680653240014914910929820314476107906210059990541021186"
      ]
    },
    {
      "x": 177,
      "y": 344,
      "size": 1,
      "price": "4683000000000000000000",
      "reserved": "",
      "salt": "0xb581f6a029d7317bba9bbaa078f11d91d5ab574d106832c8dad3f7379e3f444a",
      "assetIds": [
        "41506478881403507969696680653240014914910929820314476107906210059990541021186"
      ]
    },
    {
      "x": 177,
      "y": 345,
      "size": 1,
      "price": "4683000000000000000000",
      "reserved": "",
      "salt": "0x7850921da20ebe9f6db57cffe2bc83c04745df0179fea125576b0a62030e9e33",
      "assetIds": [
        "41506478881403507969696680653240014914910929820314476107906210059990541021186"
      ]
    },
    {
      "x": 177,
      "y": 346,
      "size": 1,
      "price": "1011000000000000000000",
      "reserved": "0x7a9fe22691c811ea339d9b73150e6911a5343dca",
      "salt": "0x6d00e7285585eea63959cc5b2e5ae423d6558af599f94ca690644b37e0d00395",
      "assetIds": []
    },
    {
      "x": 177,
      "y": 347,
      "size": 1,
      "price": "1011000000000000000000",
      "reserved": "",
      "salt": "0xf2afdec336e48471062aa8ca33bfeb2dc549eec20e8bdb862da79c4e981aa0a3",
      "assetIds": []
    },
    {
      "x": 178,
      "y": 324,
      "size": 1,
      "price": "1011000000000000000000",
      "reserved": "",
      "salt": "0x77f68b313ec56438a10da655f0d6e50fa78917976135f937289b9958015f00be",
      "assetIds": []
    },
    {
      "x": 178,
      "y": 325,
      "size": 1,
      "price": "1011000000000000000000",
      "reserved": "",
      "salt": "0xbd4a5203bb8f7b986a1c2986a227cefa4e2ce5ad4f40fe6cb384ae76eae69e13",
      "assetIds": []
    },
    {
      "x": 178,
      "y": 326,
      "size": 1,
      "price": "1011000000000000000000",
      "reserved": "",
      "salt": "0x998b736a19a2a7a55d9c24fe856aff6ded514961548e8e1e25b0301042018a6e",
      "assetIds": []
    },
    {
      "x": 178,
      "y": 327,
      "size": 1,
      "price": "1011000000000000000000",
      "reserved": "",
      "salt": "0x831839ab0de4b57403a4426202e0c29b1064d2f2018fa34346372e56856c8154",
      "assetIds": []
    },
    {
      "x": 178,
      "y": 328,
      "size": 1,
      "price": "1011000000000000000000",
      "reserved": "",
      "salt": "0xc7c0ef63653b05ebd365f812f988f35169d386388bf488be4d577c52f2be5e48",
      "assetIds": []
    },
    {
      "x": 178,
      "y": 329,
      "size": 1,
      "price": "1011000000000000000000",
      "reserved": "",
      "salt": "0x874bb7a00218091f7e79401162a5ff64efd970977ac158e50facb32055bc125c",
      "assetIds": []
    },
    {
      "x": 178,
      "y": 330,
      "size": 1,
      "price": "1011000000000000000000",
      "reserved": "",
      "salt": "0xbf62de462119e08b77d474258353df2b24dc36626543f7e35c71e8a951382a2f",
      "assetIds": []
    },
    {
      "x": 178,
      "y": 331,
      "size": 1,
      "price": "1011000000000000000000",
      "reserved": "",
      "salt": "0xc329916dae7b5ffdf12b1c1966ea6a0da330d7ed8db12840a591069b90d9b60d",
      "assetIds": []
    },
    {
      "x": 178,
      "y": 332,
      "size": 1,
      "price": "4683000000000000000000",
      "reserved": "",
      "salt": "0x7b5ae0dad43c8822517b947ded20e3be19e567391cb61560f0ee33ab68f5e278",
      "assetIds": [
        "41506478881403507969696680653240014914910929820314476107906210059990541021186"
      ]
    },
    {
      "x": 178,
      "y": 336,
      "size": 1,
      "price": "4683000000000000000000",
      "reserved": "",
      "salt": "0x9d5cbd6e4b60cca66f62922dfbecff82b77a372bf0fa72b01f1720a9be0b4d43",
      "assetIds": [
        "41506478881403507969696680653240014914910929820314476107906210059990541021186"
      ]
    },
    {
      "x": 178,
      "y": 337,
      "size": 1,
      "price": "4683000000000000000000",
      "reserved": "",
      "salt": "0xd3b4cc904ab2d0ad2c3645206130c14fa685c58695ab5287a2b31e10b1d0d911",
      "assetIds": [
        "41506478881403507969696680653240014914910929820314476107906210059990541021186"
      ]
    },
    {
      "x": 178,
      "y": 338,
      "size": 1,
      "price": "4683000000000000000000",
      "reserved": "",
      "salt": "0xa4d2d7895c6b46b70c8659666d25f5ba5caeeddc3aaf1acda92ae4692d1cdeef",
      "assetIds": [
        "41506478881403507969696680653240014914910929820314476107906210059990541021186"
      ]
    },
    {
      "x": 178,
      "y": 339,
      "size": 1,
      "price": "4683000000000000000000",
      "reserved": "",
      "salt": "0x351fc8cb40cd765487abd9a6d6619a5026d2ae88ec568d2e4380c74d6ae98d69",
      "assetIds": [
        "41506478881403507969696680653240014914910929820314476107906210059990541021186"
      ]
    },
    {
      "x": 178,
      "y": 340,
      "size": 1,
      "price": "4683000000000000000000",
      "reserved": "",
      "salt": "0x128f3b258c52346ea5b8b0380f14d42f64204a01e12ebe4178630d2cf65088f4",
      "assetIds": [
        "41506478881403507969696680653240014914910929820314476107906210059990541021186"
      ]
    },
    {
      "x": 178,
      "y": 341,
      "size": 1,
      "price": "4683000000000000000000",
      "reserved": "",
      "salt": "0x7486a729699a39f2ecbf2c52ce9422bdc6bea20abb85c212b9607e465f9b5f15",
      "assetIds": [
        "41506478881403507969696680653240014914910929820314476107906210059990541021186"
      ]
    },
    {
      "x": 178,
      "y": 342,
      "size": 1,
      "price": "4683000000000000000000",
      "reserved": "",
      "salt": "0xe363b9e37dd2d59d4b4dfd4ff4ac4993c28f4838a7d9b0816c3eef2778515a22",
      "assetIds": [
        "41506478881403507969696680653240014914910929820314476107906210059990541021186"
      ]
    },
    {
      "x": 178,
      "y": 343,
      "size": 1,
      "price": "4683000000000000000000",
      "reserved": "",
      "salt": "0x96decfdef5422089ea2a689bafde4e9ef1131f3b9eae81aede788f38624bcf28",
      "assetIds": [
        "41506478881403507969696680653240014914910929820314476107906210059990541021186"
      ]
    },
    {
      "x": 178,
      "y": 344,
      "size": 1,
      "price": "4683000000000000000000",
      "reserved": "",
      "salt": "0x354274a4ee790486b992af5444335f02f863a9f816bfed2283655e7993e85144",
      "assetIds": [
        "41506478881403507969696680653240014914910929820314476107906210059990541021186"
      ]
    },
    {
      "x": 178,
      "y": 345,
      "size": 1,
      "price": "4683000000000000000000",
      "reserved": "",
      "salt": "0x11c385635b29c9332c7e7c19aeeec3b96cf1aebe7e5e4983cec454571241a43e",
      "assetIds": [
        "41506478881403507969696680653240014914910929820314476107906210059990541021186"
      ]
    },
    {
      "x": 178,
      "y": 346,
      "size": 1,
      "price": "4683000000000000000000",
      "reserved": "",
      "salt": "0xc832631a688593b1dc640ea248aa6596aa94254a6b48bea2293174a97b94b431",
      "assetIds": [
        "41506478881403507969696680653240014914910929820314476107906210059990541021186"
      ]
    },
    {
      "x": 178,
      "y": 347,
      "size": 1,
      "price": "4683000000000000000000",
      "reserved": "",
      "salt": "0xe0e135459c65be360bfd3cd74e2a4ac514aa100798a4d0676560abaf9569c246",
      "assetIds": [
        "41506478881403507969696680653240014914910929820314476107906210059990541021186"
      ]
    },
    {
      "x": 179,
      "y": 326,
      "size": 1,
      "price": "1011000000000000000000",
      "reserved": "",
      "salt": "0x9e1157fbe51916d8beca84f0117bc634f1f59f3778f511c14c828add3c82e43e",
      "assetIds": []
    },
    {
      "x": 179,
      "y": 327,
      "size": 1,
      "price": "1011000000000000000000",
      "reserved": "",
      "salt": "0x9804905b422877828f3cfd54de236342fb3ac27a389c78e85ba4af7c892f84dd",
      "assetIds": []
    },
    {
      "x": 179,
      "y": 328,
      "size": 1,
      "price": "1011000000000000000000",
      "reserved": "",
      "salt": "0x671e757f2afe0fe32e750fa372ba31f1ff6cefc2eae7023c683c0fe59e019170",
      "assetIds": []
    },
    {
      "x": 179,
      "y": 329,
      "size": 1,
      "price": "1011000000000000000000",
      "reserved": "",
      "salt": "0x828738f99480242e67b9c78891eb56b33208f65bce87ada77d44f21dc69ab97d",
      "assetIds": []
    },
    {
      "x": 179,
      "y": 330,
      "size": 1,
      "price": "1011000000000000000000",
      "reserved": "0x7a9fe22691c811ea339d9b73150e6911a5343dca",
      "salt": "0xea1171aaf838278d20331bf51ff9129146be8c9564960b11d07a115482987406",
      "assetIds": []
    },
    {
      "x": 179,
      "y": 331,
      "size": 1,
      "price": "1011000000000000000000",
      "reserved": "",
      "salt": "0x8070b7d5911868a46a7ac818f2f1f3be1f59262243a750137cd976a321be6c8b",
      "assetIds": []
    },
    {
      "x": 179,
      "y": 332,
      "size": 1,
      "price": "4683000000000000000000",
      "reserved": "",
      "salt": "0x835ab8ad4a7e7151cc1888a943ba8e4e644a27e2865a49a4c4eebe07438bd484",
      "assetIds": [
        "41506478881403507969696680653240014914910929820314476107906210059990541021186"
      ]
    },
    {
      "x": 179,
      "y": 336,
      "size": 1,
      "price": "4683000000000000000000",
      "reserved": "",
      "salt": "0x6501689b238ab3ee3e95ecc684d0dc526539aee8a5279959a5013c5f7d50df78",
      "assetIds": [
        "41506478881403507969696680653240014914910929820314476107906210059990541021186"
      ]
    },
    {
      "x": 179,
      "y": 337,
      "size": 1,
      "price": "4683000000000000000000",
      "reserved": "",
      "salt": "0x2ca46458305a287a096ef4ebe602127ba72b723f0a7c3854f4ba8ab7d231ff74",
      "assetIds": [
        "41506478881403507969696680653240014914910929820314476107906210059990541021186"
      ]
    },
    {
      "x": 179,
      "y": 338,
      "size": 1,
      "price": "4683000000000000000000",
      "reserved": "",
      "salt": "0x3b2434a8eb34a7a869a02d9865a1ebc9fc386bb3397028ed73c7c2c448d77da7",
      "assetIds": [
        "41506478881403507969696680653240014914910929820314476107906210059990541021186"
      ]
    },
    {
      "x": 179,
      "y": 339,
      "size": 1,
      "price": "4683000000000000000000",
      "reserved": "",
      "salt": "0x6d38ee5b0b5f974bbeb8c4b671cdbe8fa10427565c1a1cd302db42a10f4154f1",
      "assetIds": [
        "41506478881403507969696680653240014914910929820314476107906210059990541021186"
      ]
    },
    {
      "x": 179,
      "y": 340,
      "size": 1,
      "price": "4683000000000000000000",
      "reserved": "",
      "salt": "0x8a381d9b260af03faa9ee37c935dd029e00b616c30d2b52cf4e6ee247805ee16",
      "assetIds": [
        "41506478881403507969696680653240014914910929820314476107906210059990541021186"
      ]
    },
    {
      "x": 179,
      "y": 341,
      "size": 1,
      "price": "4683000000000000000000",
      "reserved": "",
      "salt": "0x024cc5839c8584fc4cc6620453c95e270956494705a5e63a9fbce09bfe09928a",
      "assetIds": [
        "41506478881403507969696680653240014914910929820314476107906210059990541021186"
      ]
    },
    {
      "x": 179,
      "y": 342,
      "size": 1,
      "price": "4683000000000000000000",
      "reserved": "",
      "salt": "0x7bcce8a71c6a923fc34311b18ea2e3a197e7cbf5bb58158a9915dcdd0c5e9a96",
      "assetIds": [
        "41506478881403507969696680653240014914910929820314476107906210059990541021186"
      ]
    },
    {
      "x": 179,
      "y": 343,
      "size": 1,
      "price": "4683000000000000000000",
      "reserved": "",
      "salt": "0x538f8cafac97c0f1a8924c4b1b1be8cb9f021a0d210dcc1951246aa513867c21",
      "assetIds": [
        "41506478881403507969696680653240014914910929820314476107906210059990541021186"
      ]
    },
    {
      "x": 179,
      "y": 344,
      "size": 1,
      "price": "4683000000000000000000",
      "reserved": "",
      "salt": "0x3067799ed2beab6d54bdd5c8464d42a8a9217056c2f59ae903b6afa58ab66d61",
      "assetIds": [
        "41506478881403507969696680653240014914910929820314476107906210059990541021186"
      ]
    },
    {
      "x": 179,
      "y": 345,
      "size": 1,
      "price": "4683000000000000000000",
      "reserved": "",
      "salt": "0xac71c955aba7d7eb08c171ab6bd75c9c16ae63b0c13affe7f6c0ef2a93b8a4f4",
      "assetIds": [
        "41506478881403507969696680653240014914910929820314476107906210059990541021186"
      ]
    },
    {
      "x": 179,
      "y": 346,
      "size": 1,
      "price": "4683000000000000000000",
      "reserved": "",
      "salt": "0xa0068330372c6bdcbfe11884aca4b0ba1b888f2a2ed576f5cc5bd77a1fce9edc",
      "assetIds": [
        "41506478881403507969696680653240014914910929820314476107906210059990541021186"
      ]
    },
    {
      "x": 179,
      "y": 347,
      "size": 1,
      "price": "4683000000000000000000",
      "reserved": "",
      "salt": "0xb94534e0d117101596b3e3f27c81da1a0372929dcec43a60bbab1fdd9400748c",
      "assetIds": [
        "41506478881403507969696680653240014914910929820314476107906210059990541021186"
      ]
    },
    {
      "x": 180,
      "y": 326,
      "size": 1,
      "price": "1011000000000000000000",
      "reserved": "",
      "salt": "0xe9c05250f939b71c4f5a634f6eb01ae40cf049f6521ada9de425a8c2549b6ea4",
      "assetIds": []
    },
    {
      "x": 180,
      "y": 327,
      "size": 1,
      "price": "1011000000000000000000",
      "reserved": "",
      "salt": "0x037f39c14f62e31ebab6cf2a56fa9a856e7c9145f4008591ff1b861f36a2eb33",
      "assetIds": []
    },
    {
      "x": 180,
      "y": 328,
      "size": 1,
      "price": "1011000000000000000000",
      "reserved": "",
      "salt": "0xef53a8f7fd2e4cc95d4dd3265fdc89adb174718b4a5a45a4eece7c2192b169cc",
      "assetIds": []
    },
    {
      "x": 180,
      "y": 329,
      "size": 1,
      "price": "1011000000000000000000",
      "reserved": "",
      "salt": "0x10a7394390e644c0c917ee99b734161572a3f93391f6faf173b96c6e7d20fbba",
      "assetIds": []
    },
    {
      "x": 180,
      "y": 330,
      "size": 1,
      "price": "1011000000000000000000",
      "reserved": "",
      "salt": "0x9e9bff02d4d34e44584199851385628ada1c02c3a182fceaa482a00fe783d18c",
      "assetIds": []
    },
    {
      "x": 180,
      "y": 331,
      "size": 1,
      "price": "1011000000000000000000",
      "reserved": "",
      "salt": "0x314d7c2f48668ee442e83ae9e8e80e63f0640824f00959ae23d0326d62445991",
      "assetIds": []
    },
    {
      "x": 180,
      "y": 332,
      "size": 1,
      "price": "4683000000000000000000",
      "reserved": "",
      "salt": "0x63188722c9b9adfdc733175ab2e2519177fae2cb1528c6bf3e31b0b834c76b7b",
      "assetIds": [
        "41506478881403507969696680653240014914910929820314476107906210059990541021186"
      ]
    },
    {
      "x": 180,
      "y": 333,
      "size": 1,
      "price": "4683000000000000000000",
      "reserved": "",
      "salt": "0x4cd12233c79aee45d939eb023b07d7c449c67da1361f1e91786b60ac234be4e5",
      "assetIds": [
        "41506478881403507969696680653240014914910929820314476107906210059990541021186"
      ]
    },
    {
      "x": 180,
      "y": 334,
      "size": 1,
      "price": "4683000000000000000000",
      "reserved": "",
      "salt": "0x215c51701427f76dda0cbb9417ed0b89b3a9e230db3dc8d8304044d50d63296d",
      "assetIds": [
        "41506478881403507969696680653240014914910929820314476107906210059990541021186"
      ]
    },
    {
      "x": 180,
      "y": 335,
      "size": 1,
      "price": "4683000000000000000000",
      "reserved": "",
      "salt": "0x9bb6f42f866108a858115ccd108d5865a6de10856b832365ad8205999c03089c",
      "assetIds": [
        "41506478881403507969696680653240014914910929820314476107906210059990541021186"
      ]
    },
    {
      "x": 180,
      "y": 354,
      "size": 1,
      "price": "1011000000000000000000",
      "reserved": "",
      "salt": "0x4cefacd919713440d43514a1e616e0097a787f2dd0362f9f11e54c25643d25cd",
      "assetIds": []
    },
    {
      "x": 180,
      "y": 355,
      "size": 1,
      "price": "1011000000000000000000",
      "reserved": "",
      "salt": "0x6bc966db17142da49576e7bae15decf179bea126386458e0fb350c71b658a37b",
      "assetIds": []
    },
    {
      "x": 180,
      "y": 356,
      "size": 1,
      "price": "1011000000000000000000",
      "reserved": "",
      "salt": "0x48fb7132ca1feda60c02c617b263fb5f4238be635922f964aee9458dc44154bf",
      "assetIds": []
    },
    {
      "x": 180,
      "y": 357,
      "size": 1,
      "price": "1011000000000000000000",
      "reserved": "",
      "salt": "0xeb8c9a2013bf3ee27340acd85cdfa6d51cc6d82f118b3138e516fd6a5bf31b60",
      "assetIds": []
    },
    {
      "x": 180,
      "y": 358,
      "size": 1,
      "price": "1011000000000000000000",
      "reserved": "",
      "salt": "0xec95b4b3f254df163e4c378e58a1d1c3dff5f06f695d2b5cddfcc5cbcdb1c7a7",
      "assetIds": []
    },
    {
      "x": 180,
      "y": 359,
      "size": 1,
      "price": "1011000000000000000000",
      "reserved": "",
      "salt": "0x32d5cf57b4fc2303f9c48a3579f2560142e6c59cf05044ac0b144e7014dc3840",
      "assetIds": []
    },
    {
      "x": 181,
      "y": 327,
      "size": 1,
      "price": "1011000000000000000000",
      "reserved": "0x7a9fe22691c811ea339d9b73150e6911a5343dca",
      "salt": "0x37af3dc640eae071f165eb4d0c7c6ac9cd0ca2201b43c22ee1ad893d916387d1",
      "assetIds": []
    },
    {
      "x": 181,
      "y": 328,
      "size": 1,
      "price": "1011000000000000000000",
      "reserved": "",
      "salt": "0xcebe290d0880c31d5bd2e4d80428cdbffb39339fa35667175e5dcd9d49939b4d",
      "assetIds": []
    },
    {
      "x": 181,
      "y": 329,
      "size": 1,
      "price": "1011000000000000000000",
      "reserved": "",
      "salt": "0xab24dc234b4faf28c898fa282cd2aee6009f784fe21e47931032b74046b5a405",
      "assetIds": []
    },
    {
      "x": 181,
      "y": 330,
      "size": 1,
      "price": "1011000000000000000000",
      "reserved": "",
      "salt": "0x390f19c507291ad86996c09b1f201f32cdd74e2892d0747d6393cc35bb447c8b",
      "assetIds": []
    },
    {
      "x": 181,
      "y": 331,
      "size": 1,
      "price": "1011000000000000000000",
      "reserved": "",
      "salt": "0x80a503ccb4887542895c2e396d7e1e104609534a5aa7a43d1d87bd99e032a0be",
      "assetIds": []
    },
    {
      "x": 181,
      "y": 332,
      "size": 1,
      "price": "1011000000000000000000",
      "reserved": "",
      "salt": "0xfb46ad1070c9891e639384c6757670bd13e3fe3f877d82bc7d96bd9854d3de25",
      "assetIds": []
    },
    {
      "x": 181,
      "y": 333,
      "size": 1,
      "price": "1011000000000000000000",
      "reserved": "",
      "salt": "0xb9f24f89c716dd6508459cf95999505617db7ea72500174cab329b0dce3a505f",
      "assetIds": []
    },
    {
      "x": 181,
      "y": 334,
      "size": 1,
      "price": "1011000000000000000000",
      "reserved": "",
      "salt": "0x09dc46c3eba7849ffcbbe6ef1a257fb4a20f28ba0e88d3489c6d050b10cbed1e",
      "assetIds": []
    },
    {
      "x": 181,
      "y": 335,
      "size": 1,
      "price": "4683000000000000000000",
      "reserved": "",
      "salt": "0x63aa3bb7577d3454cba9c698d69e336e27069f0053e737dcf5d2a9a07ac4d4cc",
      "assetIds": [
        "41506478881403507969696680653240014914910929820314476107906210059990541021186"
      ]
    },
    {
      "x": 181,
      "y": 354,
      "size": 1,
      "price": "1011000000000000000000",
      "reserved": "",
      "salt": "0x612fdaebc57f8c6700e652488b495349aecaece4f3cd5c731e7ffd78bcbd04ef",
      "assetIds": []
    },
    {
      "x": 181,
      "y": 355,
      "size": 1,
      "price": "1011000000000000000000",
      "reserved": "",
      "salt": "0xa6aa33d293f65cebaa49cc6227542a4581194a74e56732e917fe0351501fcb4f",
      "assetIds": []
    },
    {
      "x": 181,
      "y": 356,
      "size": 1,
      "price": "1011000000000000000000",
      "reserved": "",
      "salt": "0x38dfa499f4648df46581ec03b9c6982244fd827f4d8148cdbef256cee6831fc5",
      "assetIds": []
    },
    {
      "x": 181,
      "y": 357,
      "size": 1,
      "price": "1011000000000000000000",
      "reserved": "",
      "salt": "0x7c7cdb50be4f59ffd97c8bf89c1c96fc88a6758a9e4a97050c6cf8fb28ae0856",
      "assetIds": []
    },
    {
      "x": 181,
      "y": 358,
      "size": 1,
      "price": "1011000000000000000000",
      "reserved": "0x7a9fe22691c811ea339d9b73150e6911a5343dca",
      "salt": "0x8d4694f59eccef2af52e1755dcf8ac5f01d6896b365080b78706a9ced29d27d7",
      "assetIds": []
    },
    {
      "x": 181,
      "y": 359,
      "size": 1,
      "price": "1011000000000000000000",
      "reserved": "",
      "salt": "0xd7786e9f0a769902242604e10f2e04091456476f025daf6e4911fb21193b7006",
      "assetIds": []
    },
    {
      "x": 182,
      "y": 327,
      "size": 1,
      "price": "1011000000000000000000",
      "reserved": "",
      "salt": "0x523db91984235430d341fa1916e767f6bb3ea1e64575c9db59aaceca475e2d95",
      "assetIds": []
    },
    {
      "x": 182,
      "y": 328,
      "size": 1,
      "price": "1011000000000000000000",
      "reserved": "",
      "salt": "0x5b550f83b35c67d845ba1c8f5ca1f19cd8b1e740368e09dcb0ed1554146b6c6a",
      "assetIds": []
    },
    {
      "x": 182,
      "y": 329,
      "size": 1,
      "price": "1011000000000000000000",
      "reserved": "",
      "salt": "0x8334bcd6b653fda544710e702118b26d12237e5df2df8637c565a0db8bb90e3c",
      "assetIds": []
    },
    {
      "x": 182,
      "y": 330,
      "size": 1,
      "price": "1011000000000000000000",
      "reserved": "0x7a9fe22691c811ea339d9b73150e6911a5343dca",
      "salt": "0xd592349740b04863430870d3c712c7dc309f0d0bcbe04f7e8d99641a512441cc",
      "assetIds": []
    },
    {
      "x": 182,
      "y": 331,
      "size": 1,
      "price": "1011000000000000000000",
      "reserved": "",
      "salt": "0x85bd7226016938791b9d4353bed710b95f8e6c135ed8c2ce2eef49fa62cbe0ef",
      "assetIds": []
    },
    {
      "x": 182,
      "y": 332,
      "size": 1,
      "price": "1011000000000000000000",
      "reserved": "",
      "salt": "0xa43bdf5a065fef189e8e8940031c83de4238f11b3f0687bf96a0ceab421f39cd",
      "assetIds": []
    },
    {
      "x": 182,
      "y": 333,
      "size": 1,
      "price": "1011000000000000000000",
      "reserved": "0x7a9fe22691c811ea339d9b73150e6911a5343dca",
      "salt": "0xc1a552764f9f4d628718f5c477ffcdd50ed528b8f43f18a55fc50251692c8e95",
      "assetIds": []
    },
    {
      "x": 182,
      "y": 334,
      "size": 1,
      "price": "1011000000000000000000",
      "reserved": "",
      "salt": "0xa3d8fcc3f4d07d3473434598c7ac9e9dba3f90c8915d74bf31291bd72c3c4819",
      "assetIds": []
    },
    {
      "x": 182,
      "y": 335,
      "size": 1,
      "price": "4683000000000000000000",
      "reserved": "",
      "salt": "0x6b98183767afd5815792751fb04cd573ef31ad3a5b5232b3b46194bd4f2d2464",
      "assetIds": [
        "41506478881403507969696680653240014914910929820314476107906210059990541021186"
      ]
    },
    {
      "x": 182,
      "y": 354,
      "size": 1,
      "price": "1011000000000000000000",
      "reserved": "",
      "salt": "0x4e942832ce2c855809580485fa990c6ca21e06957ddb9e1427de105745019b89",
      "assetIds": []
    },
    {
      "x": 182,
      "y": 355,
      "size": 1,
      "price": "1011000000000000000000",
      "reserved": "",
      "salt": "0x9f2a0156cc8393f4401c1aef10f011a5cdfa08372c2b4f9225503d2a366e2742",
      "assetIds": []
    },
    {
      "x": 182,
      "y": 356,
      "size": 1,
      "price": "1011000000000000000000",
      "reserved": "0x7a9fe22691c811ea339d9b73150e6911a5343dca",
      "salt": "0x5adad05e01f9c35a1165c4b407f4641e2c8e12d9bbc99c413a91e2630f022acb",
      "assetIds": []
    },
    {
      "x": 182,
      "y": 357,
      "size": 1,
      "price": "1011000000000000000000",
      "reserved": "",
      "salt": "0x779c58092d9bdf42fcb833468c03857092fca0839b203653293dd27f48ff9da5",
      "assetIds": []
    },
    {
      "x": 182,
      "y": 358,
      "size": 1,
      "price": "1011000000000000000000",
      "reserved": "",
      "salt": "0xd43848b0327c600508060a4d80090a0dd7d62f288fab7e5e4b5799c8096ddb00",
      "assetIds": []
    },
    {
      "x": 182,
      "y": 359,
      "size": 1,
      "price": "1011000000000000000000",
      "reserved": "",
      "salt": "0x3bdeb9865c72906e8a63d2a2f87c48461c10b596ceec607433535e66f577e0fb",
      "assetIds": []
    },
    {
      "x": 183,
      "y": 329,
      "size": 1,
      "price": "1011000000000000000000",
      "reserved": "",
      "salt": "0x8d2bf26def99e0e74698c066735ebe76bc36f2970c5be90232c82dd0c12de808",
      "assetIds": []
    },
    {
      "x": 183,
      "y": 330,
      "size": 1,
      "price": "1011000000000000000000",
      "reserved": "",
      "salt": "0x7f07e4d54e1718a49af60d128b81e8b253f05c2a69bdbe70c4ddc8146103cd75",
      "assetIds": []
    },
    {
      "x": 183,
      "y": 331,
      "size": 1,
      "price": "1011000000000000000000",
      "reserved": "",
      "salt": "0x299b25dbe195beca915e5ca48c835084bbe7bcb15b8dc95f8eb2d2515afec0be",
      "assetIds": []
    },
    {
      "x": 183,
      "y": 332,
      "size": 1,
      "price": "1011000000000000000000",
      "reserved": "",
      "salt": "0x4273330a7fd7a6f0b4416233bf67db67c0bfd77f03d443897262fca8d7c428e3",
      "assetIds": []
    },
    {
      "x": 183,
      "y": 333,
      "size": 1,
      "price": "1011000000000000000000",
      "reserved": "",
      "salt": "0xaddc4faedf7c98c3c5fdf20f020c41ea4be18ec8029d65d4d3b3e32e71b99643",
      "assetIds": []
    },
    {
      "x": 183,
      "y": 334,
      "size": 1,
      "price": "1011000000000000000000",
      "reserved": "",
      "salt": "0x4f2613a92d09225805f3b388407d788dc259d941f09ca1fe2db6e8da0c8772ae",
      "assetIds": []
    },
    {
      "x": 183,
      "y": 335,
      "size": 1,
      "price": "4683000000000000000000",
      "reserved": "",
      "salt": "0xae1a7db815b88e75427112b6b616625a694869d2da618d38e7a0625fde0126e1",
      "assetIds": [
        "41506478881403507969696680653240014914910929820314476107906210059990541021186"
      ]
    },
    {
      "x": 183,
      "y": 354,
      "size": 1,
      "price": "1011000000000000000000",
      "reserved": "0x7a9fe22691c811ea339d9b73150e6911a5343dca",
      "salt": "0x90ce6797e77ef67b8ffe60897e67ece3d7a80c2fc764fd7f812598091604bc0f",
      "assetIds": []
    },
    {
      "x": 183,
      "y": 355,
      "size": 1,
      "price": "1011000000000000000000",
      "reserved": "",
      "salt": "0x98d0d8a03295b6aafaeacd23fce3cd15ab82692ec9b8603d466b6bdb9727c99f",
      "assetIds": []
    },
    {
      "x": 183,
      "y": 356,
      "size": 1,
      "price": "1011000000000000000000",
      "reserved": "",
      "salt": "0x1b16e483f0375f22b77873a9a1d910470ef4c748193e7ebae60d40befa45ebd1",
      "assetIds": []
    },
    {
      "x": 183,
      "y": 357,
      "size": 1,
      "price": "1011000000000000000000",
      "reserved": "",
      "salt": "0x2cd147c02261e394412693c773c52013b97a94863fc06d65bafcd96afc0306d0",
      "assetIds": []
    },
    {
      "x": 183,
      "y": 358,
      "size": 1,
      "price": "1011000000000000000000",
      "reserved": "",
      "salt": "0x98617e320ef50cd62c291bb10bc62ef2e5b7e51e573114a3c1dfc48ab731009d",
      "assetIds": []
    },
    {
      "x": 183,
      "y": 359,
      "size": 1,
      "price": "1011000000000000000000",
      "reserved": "",
      "salt": "0xceb898137a6d84cfb42c0d087f34a16e7c7f6af39d6f417b8efe25e8efd148dd",
      "assetIds": []
    },
    {
      "x": 184,
      "y": 329,
      "size": 1,
      "price": "1011000000000000000000",
      "reserved": "",
      "salt": "0xee30075080b4fa999afb67e96ca2d09158890b4e1a61eecc5e2c0234e2ff019c",
      "assetIds": []
    },
    {
      "x": 184,
      "y": 330,
      "size": 1,
      "price": "1011000000000000000000",
      "reserved": "",
      "salt": "0x427f6889db3f29ab780c3dd6f8d9ed072f95d8010bb18fbc00c74e142f81d368",
      "assetIds": []
    },
    {
      "x": 184,
      "y": 331,
      "size": 1,
      "price": "1011000000000000000000",
      "reserved": "",
      "salt": "0xe6d63606d114bc33b659a2b21b308e7b17cb635b54e97299ab769003770cc617",
      "assetIds": []
    },
    {
      "x": 184,
      "y": 332,
      "size": 1,
      "price": "1011000000000000000000",
      "reserved": "",
      "salt": "0xe3e2de0eb326133f62ffd7bf0132ddd0200182e7362a864309bbf8ad58381c94",
      "assetIds": []
    },
    {
      "x": 184,
      "y": 333,
      "size": 1,
      "price": "4683000000000000000000",
      "reserved": "",
      "salt": "0x5d4fd0358eb25452b41173480bbd9556aa0b7ea23cc03fbb0949b210b16c7135",
      "assetIds": [
        "41506478881403507969696680653240014914910929820314476107906210059990541021186"
      ]
    },
    {
      "x": 184,
      "y": 334,
      "size": 1,
      "price": "4683000000000000000000",
      "reserved": "",
      "salt": "0xfc9c728b2de02424ac0c98ae270f2a41ff6fc2d9dfef70b832004ced0f5e12e1",
      "assetIds": [
        "41506478881403507969696680653240014914910929820314476107906210059990541021186"
      ]
    },
    {
      "x": 184,
      "y": 335,
      "size": 1,
      "price": "4683000000000000000000",
      "reserved": "",
      "salt": "0xbf8e2abc1923fcae7558ba82a9b7a8f21930786241c2fb0ec3bd2e8cf1d601c6",
      "assetIds": [
        "41506478881403507969696680653240014914910929820314476107906210059990541021186"
      ]
    },
    {
      "x": 184,
      "y": 354,
      "size": 1,
      "price": "1011000000000000000000",
      "reserved": "",
      "salt": "0xe26880f095f36fced6614cb5e096a86e73260cd04416a90764d54f13cadb64fc",
      "assetIds": []
    },
    {
      "x": 184,
      "y": 355,
      "size": 1,
      "price": "1011000000000000000000",
      "reserved": "",
      "salt": "0x398c26487364ebe5cd1e690bd5ceded2c3b992abe5010257abf69301e0c4ba40",
      "assetIds": []
    },
    {
      "x": 184,
      "y": 356,
      "size": 1,
      "price": "1011000000000000000000",
      "reserved": "",
      "salt": "0x412b862fab5014ec938faf3ea4f47153f0bff51e99469f880929e07e3f584896",
      "assetIds": []
    },
    {
      "x": 184,
      "y": 357,
      "size": 1,
      "price": "1011000000000000000000",
      "reserved": "",
      "salt": "0xb1669dbdfca647c8ab19d717561c77d6b77cc4227d081055004f53ce508358fd",
      "assetIds": []
    },
    {
      "x": 184,
      "y": 358,
      "size": 1,
      "price": "1011000000000000000000",
      "reserved": "",
      "salt": "0xd5efa2cc011b7cbc7166380682e4e867b0ebc5c97b8cc53289ce0eebc83dade2",
      "assetIds": []
    },
    {
      "x": 184,
      "y": 359,
      "size": 1,
      "price": "1011000000000000000000",
      "reserved": "",
      "salt": "0x10d4ad5c659a64d2436133944e4f680a1d99e8a1d6fb518e7bf366bec2071ee8",
      "assetIds": []
    },
    {
      "x": 185,
      "y": 329,
      "size": 1,
      "price": "1011000000000000000000",
      "reserved": "",
      "salt": "0x2a7a098992786088613312eaa006068796797074161545df76354c4bac984911",
      "assetIds": []
    },
    {
      "x": 185,
      "y": 330,
      "size": 1,
      "price": "1011000000000000000000",
      "reserved": "",
      "salt": "0xaa7c9a49f58546174f2975c7ea77b2b03da9965c4104646c3dea36dd92da0acc",
      "assetIds": []
    },
    {
      "x": 185,
      "y": 331,
      "size": 1,
      "price": "1011000000000000000000",
      "reserved": "",
      "salt": "0xbef0c44f7c7b6bdfd880b2d06f060f72ae4309ee53885dbac602aabb79cf56a6",
      "assetIds": []
    },
    {
      "x": 185,
      "y": 332,
      "size": 1,
      "price": "1011000000000000000000",
      "reserved": "",
      "salt": "0x2cd7387d3f54f05b0a41b79dc9d251307c1d5f6df1786d3a6e70e3a3fcde1701",
      "assetIds": []
    },
    {
      "x": 185,
      "y": 333,
      "size": 1,
      "price": "4683000000000000000000",
      "reserved": "",
      "salt": "0xabf7e993ebb03e6df453515ad1f92d75369e094b8361478f491dba2c34982c8d",
      "assetIds": [
        "41506478881403507969696680653240014914910929820314476107906210059990541021186"
      ]
    },
    {
      "x": 185,
      "y": 334,
      "size": 1,
      "price": "4683000000000000000000",
      "reserved": "",
      "salt": "0xc6a9457ec2d938f294654ab35cf389ffde02756bf950f7c6497fc415530f967d",
      "assetIds": [
        "41506478881403507969696680653240014914910929820314476107906210059990541021186"
      ]
    },
    {
      "x": 185,
      "y": 335,
      "size": 1,
      "price": "4683000000000000000000",
      "reserved": "",
      "salt": "0xc9554a847d97f91e4f8ecdc2f9b42028618077c02da1042b4dcca16eabd5203d",
      "assetIds": [
        "41506478881403507969696680653240014914910929820314476107906210059990541021186"
      ]
    },
    {
      "x": 185,
      "y": 354,
      "size": 1,
      "price": "1011000000000000000000",
      "reserved": "",
      "salt": "0x6a8e037e5c2eb608255cbb3238fb0c875a857a83503093ceb2e4b0685470edf0",
      "assetIds": []
    },
    {
      "x": 185,
      "y": 355,
      "size": 1,
      "price": "1011000000000000000000",
      "reserved": "",
      "salt": "0xf346ac417b2e4dacfb33b2ae744a491134759144f31dc46a271a74906a00921c",
      "assetIds": []
    },
    {
      "x": 185,
      "y": 356,
      "size": 1,
      "price": "1011000000000000000000",
      "reserved": "",
      "salt": "0x41bf2cc7a87c0284b2cb48a17722cdd08cf6d3d4107e4dc08c80a8a4f30cf119",
      "assetIds": []
    },
    {
      "x": 185,
      "y": 357,
      "size": 1,
      "price": "1011000000000000000000",
      "reserved": "",
      "salt": "0x60204d57075f6a49f854b5fdc8bca53b57b5b21dcc4c4923b221e30d5952be88",
      "assetIds": []
    },
    {
      "x": 185,
      "y": 358,
      "size": 1,
      "price": "1011000000000000000000",
      "reserved": "",
      "salt": "0x73db9f49cf527382a1b48966f7dee97b37abf2508fef82ad3354c0b4ef1e7ec4",
      "assetIds": []
    },
    {
      "x": 185,
      "y": 359,
      "size": 1,
      "price": "1011000000000000000000",
      "reserved": "0x7a9fe22691c811ea339d9b73150e6911a5343dca",
      "salt": "0xda644e5a9d220dff110be4f7736d6d2ead737569c3cf2c6beb5c52964235214d",
      "assetIds": []
    },
    {
      "x": 186,
      "y": 329,
      "size": 1,
      "price": "1011000000000000000000",
      "reserved": "",
      "salt": "0xcb18fc7ec56d6aec24aad9e007fad13d6821e78931e0761e06eebf05ca18dbe0",
      "assetIds": []
    },
    {
      "x": 186,
      "y": 330,
      "size": 1,
      "price": "1011000000000000000000",
      "reserved": "",
      "salt": "0xb813dbbaef3513d0c43eccb5293fc07b1817bd88fdcdc88bb98883c499c11707",
      "assetIds": []
    },
    {
      "x": 186,
      "y": 331,
      "size": 1,
      "price": "1011000000000000000000",
      "reserved": "",
      "salt": "0x42f12921661729bb80b20d319fdbdf4a5e0f35792c85fab244a89ef872c490f4",
      "assetIds": []
    },
    {
      "x": 186,
      "y": 332,
      "size": 1,
      "price": "1011000000000000000000",
      "reserved": "",
      "salt": "0x58708c35fc50033908cdb388e123d96625dba01b1eb885591c21733d52444f9b",
      "assetIds": []
    },
    {
      "x": 186,
      "y": 333,
      "size": 1,
      "price": "1011000000000000000000",
      "reserved": "",
      "salt": "0xc9a7a2bf524eeb54b37f331b758775c362dcb0b1547cffa327b0f7c428f3f98d",
      "assetIds": []
    },
    {
      "x": 186,
      "y": 334,
      "size": 1,
      "price": "4683000000000000000000",
      "reserved": "",
      "salt": "0xf389f6a46638dd4b4f73fd5f31773dedf7a449018a578cdf9e27753e1bf16537",
      "assetIds": [
        "41506478881403507969696680653240014914910929820314476107906210059990541021186"
      ]
    },
    {
      "x": 186,
      "y": 335,
      "size": 1,
      "price": "4683000000000000000000",
      "reserved": "",
      "salt": "0x71403bd074f0b7a5dfa412e81f3cae3371f7dffcb9357a5fdf424b5c8640c397",
      "assetIds": [
        "41506478881403507969696680653240014914910929820314476107906210059990541021186"
      ]
    },
    {
      "x": 186,
      "y": 348,
      "size": 1,
      "price": "4683000000000000000000",
      "reserved": "",
      "salt": "0xeb0719336be453832c197243299056a1ae120ade107a2c28d62af6e53ce1ac95",
      "assetIds": [
        "41506478881403507969696680653240014914910929820314476107906210059990541021186"
      ]
    },
    {
      "x": 186,
      "y": 349,
      "size": 1,
      "price": "4683000000000000000000",
      "reserved": "",
      "salt": "0x407186f48cc0dbebf1e0e04883c184811ce2e9ad2f3f984b48535b6b0f16fb6c",
      "assetIds": [
        "41506478881403507969696680653240014914910929820314476107906210059990541021186"
      ]
    },
    {
      "x": 186,
      "y": 350,
      "size": 1,
      "price": "4683000000000000000000",
      "reserved": "",
      "salt": "0xa1fe5ff0ad15d6a946421b9b0f7e4c900f1f2d056cb29dc047a126274e6d8ffb",
      "assetIds": [
        "41506478881403507969696680653240014914910929820314476107906210059990541021186"
      ]
    },
    {
      "x": 186,
      "y": 351,
      "size": 1,
      "price": "4683000000000000000000",
      "reserved": "",
      "salt": "0xf75af8cb1ace68ddbcced41d9aadd65a313df03d4ae2dc8002bdc5c9ad8eb197",
      "assetIds": [
        "41506478881403507969696680653240014914910929820314476107906210059990541021186"
      ]
    },
    {
      "x": 186,
      "y": 352,
      "size": 1,
      "price": "4683000000000000000000",
      "reserved": "",
      "salt": "0xc0f1a46cf4e436c19ddfafdd4f225823110467cc88c50b994cefdc81c5b6d9da",
      "assetIds": [
        "41506478881403507969696680653240014914910929820314476107906210059990541021186"
      ]
    },
    {
      "x": 186,
      "y": 353,
      "size": 1,
      "price": "1011000000000000000000",
      "reserved": "",
      "salt": "0x9ecdff5410cbfc90017f2f9eefb7d85c3ab8cb83fa771f77d5de117b63ed8212",
      "assetIds": []
    },
    {
      "x": 186,
      "y": 354,
      "size": 1,
      "price": "1011000000000000000000",
      "reserved": "",
      "salt": "0xf019ffd49fb593dca64b3ebf8ad1a6251e42df1cae189ac17c5e785becb0bc6a",
      "assetIds": []
    },
    {
      "x": 186,
      "y": 355,
      "size": 1,
      "price": "1011000000000000000000",
      "reserved": "",
      "salt": "0x81239e7bf60e3a5e16d51fc495341dd358b790a335a0ddf5620a95cb5dce5a10",
      "assetIds": []
    },
    {
      "x": 186,
      "y": 356,
      "size": 1,
      "price": "1011000000000000000000",
      "reserved": "0x7a9fe22691c811ea339d9b73150e6911a5343dca",
      "salt": "0xfaa23ed97e80601f87f3096b24f21a98bdcc4586907ef67577d5c111662153fc",
      "assetIds": []
    },
    {
      "x": 186,
      "y": 357,
      "size": 1,
      "price": "1011000000000000000000",
      "reserved": "",
      "salt": "0x8eacdfbf65b880cfbef41f3e680338597ecb61e53b0a1d9a23c45acc23927c53",
      "assetIds": []
    },
    {
      "x": 186,
      "y": 358,
      "size": 1,
      "price": "1011000000000000000000",
      "reserved": "",
      "salt": "0x1d4d9a868123efa59e5a70c68e729e4fe1e804d2124a9b88839e6f0e217b499a",
      "assetIds": []
    },
    {
      "x": 186,
      "y": 359,
      "size": 1,
      "price": "1011000000000000000000",
      "reserved": "",
      "salt": "0x4ca89d7a6fede7d761b42e86e6273b36d48ee85ce53f092b60384a4ca6cc1b8e",
      "assetIds": []
    },
    {
      "x": 187,
      "y": 331,
      "size": 1,
      "price": "1011000000000000000000",
      "reserved": "0x7a9fe22691c811ea339d9b73150e6911a5343dca",
      "salt": "0xd1cac08c2fbc59773994edf0c1852f70d39400dc43cafc35bc0f62386f4e6a3b",
      "assetIds": []
    },
    {
      "x": 187,
      "y": 332,
      "size": 1,
      "price": "1011000000000000000000",
      "reserved": "0x7a9fe22691c811ea339d9b73150e6911a5343dca",
      "salt": "0x44fe94fe13043c693404a692e22864360592628a9407f71fb12f37c86707e7bd",
      "assetIds": []
    },
    {
      "x": 187,
      "y": 333,
      "size": 1,
      "price": "1011000000000000000000",
      "reserved": "",
      "salt": "0x98ac3ff5e3c444d1b9ff15548f0f212a54dd882699ab16fa7c0d7aa5d04018b5",
      "assetIds": []
    },
    {
      "x": 187,
      "y": 334,
      "size": 1,
      "price": "4683000000000000000000",
      "reserved": "",
      "salt": "0x429ae57bf236f7686cb73dee2930d75365b720a94dd8f9b1987ccb6585110400",
      "assetIds": [
        "41506478881403507969696680653240014914910929820314476107906210059990541021186"
      ]
    },
    {
      "x": 187,
      "y": 335,
      "size": 1,
      "price": "4683000000000000000000",
      "reserved": "",
      "salt": "0x0973b1a9503302c0a29930c402487783efe4ebd3177a1fec4be602b9f521fbca",
      "assetIds": [
        "41506478881403507969696680653240014914910929820314476107906210059990541021186"
      ]
    },
    {
      "x": 187,
      "y": 348,
      "size": 1,
      "price": "4683000000000000000000",
      "reserved": "",
      "salt": "0x2ce7f3778e94bf9fc854bb7ff2461d4c1088e9caa63ae3d5f26b718a41cb29d1",
      "assetIds": [
        "41506478881403507969696680653240014914910929820314476107906210059990541021186"
      ]
    },
    {
      "x": 187,
      "y": 349,
      "size": 1,
      "price": "4683000000000000000000",
      "reserved": "",
      "salt": "0x6694f8de227c32bcafd54b92638cbef40584268af2e8f84dc36479a81ebc6744",
      "assetIds": [
        "41506478881403507969696680653240014914910929820314476107906210059990541021186"
      ]
    },
    {
      "x": 187,
      "y": 350,
      "size": 1,
      "price": "4683000000000000000000",
      "reserved": "",
      "salt": "0x011309c13ba4fdb5c72cc0ee9ad7e3ae03a63a066a2cd461be31fb3cf7ba3448",
      "assetIds": [
        "41506478881403507969696680653240014914910929820314476107906210059990541021186"
      ]
    },
    {
      "x": 187,
      "y": 351,
      "size": 1,
      "price": "1011000000000000000000",
      "reserved": "0x7a9fe22691c811ea339d9b73150e6911a5343dca",
      "salt": "0x0161ced881ba3d1b609dcb9521705972064ab0641826e86dbe66462a60b330f2",
      "assetIds": []
    },
    {
      "x": 187,
      "y": 352,
      "size": 1,
      "price": "1011000000000000000000",
      "reserved": "",
      "salt": "0x444e82cd4599ea1a9a0bee1253a8b6180385f8987bb793e8b1e1c03c01197f61",
      "assetIds": []
    },
    {
      "x": 187,
      "y": 353,
      "size": 1,
      "price": "1011000000000000000000",
      "reserved": "",
      "salt": "0xf42c0d0f8606e58dfcc811316ff240f6c35b7a233fe542a2e521a3e551987947",
      "assetIds": []
    },
    {
      "x": 187,
      "y": 354,
      "size": 1,
      "price": "1011000000000000000000",
      "reserved": "",
      "salt": "0xfde0c2d3ef87c854a469d6cbb33badc76cb40f83dc346734b835beee4544b742",
      "assetIds": []
    },
    {
      "x": 187,
      "y": 355,
      "size": 1,
      "price": "1011000000000000000000",
      "reserved": "",
      "salt": "0x5e4d4863f4cde858dbaf8ce4213a6d792f4620f0dbadbb5e9a3de47a66e4dcc1",
      "assetIds": []
    },
    {
      "x": 187,
      "y": 356,
      "size": 1,
      "price": "1011000000000000000000",
      "reserved": "",
      "salt": "0x843abaf6d7c9b10cd67cee7078265859944b1c2932807efa52f0fa915fbfbbda",
      "assetIds": []
    },
    {
      "x": 187,
      "y": 357,
      "size": 1,
      "price": "1011000000000000000000",
      "reserved": "",
      "salt": "0x541b4810840cf645a66a626a8728c3a81d4e56cd350fc8836382dac43e2e1cbf",
      "assetIds": []
    },
    {
      "x": 187,
      "y": 358,
      "size": 1,
      "price": "1011000000000000000000",
      "reserved": "",
      "salt": "0xc446e2373b0df5dfc0b505a2cfa235273606a5fd6d4f2485a6997364b60bfa20",
      "assetIds": []
    },
    {
      "x": 187,
      "y": 359,
      "size": 1,
      "price": "1011000000000000000000",
      "reserved": "",
      "salt": "0xf723e1fee82d7d4a1caf836cd4c9a01191dd8cbdc5c00e7240a25507a143672e",
      "assetIds": []
    },
    {
      "x": 188,
      "y": 331,
      "size": 1,
      "price": "1011000000000000000000",
      "reserved": "",
      "salt": "0x9e7974b871c347cb63066afcb989383c8d7a4306316d0c25a087719c498c2f37",
      "assetIds": []
    },
    {
      "x": 188,
      "y": 332,
      "size": 1,
      "price": "1011000000000000000000",
      "reserved": "",
      "salt": "0x70aa7190bd10e96fc3a2a3c8582a63f5fbb4aeb7537eca2bf901b25096fc1967",
      "assetIds": []
    },
    {
      "x": 188,
      "y": 333,
      "size": 1,
      "price": "1011000000000000000000",
      "reserved": "",
      "salt": "0x081e2f71d5aa16ccc21d7e369b23d45d09637c10e4e9f50abfa11d57ddea1469",
      "assetIds": []
    },
    {
      "x": 188,
      "y": 334,
      "size": 1,
      "price": "4683000000000000000000",
      "reserved": "",
      "salt": "0x4217c10e69e14d3f15eda1db434ed26f69d9f48f79f13cda37bb5f2207f38119",
      "assetIds": [
        "41506478881403507969696680653240014914910929820314476107906210059990541021186"
      ]
    },
    {
      "x": 188,
      "y": 335,
      "size": 1,
      "price": "4683000000000000000000",
      "reserved": "",
      "salt": "0x4cecb89f10fb4764d0833060cd6e002996617b16c00ad3ccefe7b0f47acc691b",
      "assetIds": [
        "41506478881403507969696680653240014914910929820314476107906210059990541021186"
      ]
    },
    {
      "x": 188,
      "y": 348,
      "size": 1,
      "price": "4683000000000000000000",
      "reserved": "",
      "salt": "0x89e1fe6d598c930d43afdb7afb8a705ee541587d352863912bf6aacf1b240538",
      "assetIds": [
        "41506478881403507969696680653240014914910929820314476107906210059990541021186"
      ]
    },
    {
      "x": 188,
      "y": 349,
      "size": 1,
      "price": "1011000000000000000000",
      "reserved": "0x7a9fe22691c811ea339d9b73150e6911a5343dca",
      "salt": "0x707821f133cffeb2796ae39b9916280aa85b836f7eafc701327fdffa4a6a9aed",
      "assetIds": []
    },
    {
      "x": 188,
      "y": 350,
      "size": 1,
      "price": "1011000000000000000000",
      "reserved": "",
      "salt": "0xb5361c684b9771149fdcdbe3a09c061fc1f841605c1daffb5f482744242dbce8",
      "assetIds": []
    },
    {
      "x": 188,
      "y": 351,
      "size": 1,
      "price": "1011000000000000000000",
      "reserved": "",
      "salt": "0xb9f5e75820b8255f6495e48ce9a68ca73b79acb27f54f4febad2fd74b9dd26a3",
      "assetIds": []
    },
    {
      "x": 188,
      "y": 352,
      "size": 1,
      "price": "1011000000000000000000",
      "reserved": "0x7a9fe22691c811ea339d9b73150e6911a5343dca",
      "salt": "0x64ca8c677b534c13297928e0575acf2380182ff8cab1a30ff6482e259268d4b3",
      "assetIds": []
    },
    {
      "x": 188,
      "y": 353,
      "size": 1,
      "price": "1011000000000000000000",
      "reserved": "",
      "salt": "0xe65126cdc7a5f20c8f8a986809f003b209d902944a28f2d3a5954b595b15ecc5",
      "assetIds": []
    },
    {
      "x": 188,
      "y": 354,
      "size": 1,
      "price": "1011000000000000000000",
      "reserved": "",
      "salt": "0xf4a84092986a2d62bf672cd0e5be9bf6845067102b1a80f88c7076190911c4b3",
      "assetIds": []
    },
    {
      "x": 188,
      "y": 355,
      "size": 1,
      "price": "1011000000000000000000",
      "reserved": "",
      "salt": "0x9a341490bb1080d428b606b32e65ab58a1ecbe80f834e54cffd274d38565d50d",
      "assetIds": []
    },
    {
      "x": 188,
      "y": 356,
      "size": 1,
      "price": "1011000000000000000000",
      "reserved": "0x7a9fe22691c811ea339d9b73150e6911a5343dca",
      "salt": "0x7eca569928edf7085d9034d8da319de3cd739d76bff949471b51c5e7a941cb2d",
      "assetIds": []
    },
    {
      "x": 188,
      "y": 357,
      "size": 1,
      "price": "1011000000000000000000",
      "reserved": "",
      "salt": "0x26ca68fe075253ada11460e17803fd936a9c198d0aefca322b0cc1083684fae4",
      "assetIds": []
    },
    {
      "x": 188,
      "y": 358,
      "size": 1,
      "price": "1011000000000000000000",
      "reserved": "",
      "salt": "0xcb0a5560e2efabb67a62b7d3dcf7cdf54a82867f5f702c3cced1abd8448c85c6",
      "assetIds": []
    },
    {
      "x": 188,
      "y": 359,
      "size": 1,
      "price": "1011000000000000000000",
      "reserved": "",
      "salt": "0x75e79aea3c9e8b5046a20ae161f4a240314d16530fade291c1fea879af6ff8cc",
      "assetIds": []
    },
    {
      "x": 189,
      "y": 331,
      "size": 1,
      "price": "1011000000000000000000",
      "reserved": "",
      "salt": "0x607e80949a863ab7178d7bb885bf6b831f16eb6e63204ef21795a8abeae149ed",
      "assetIds": []
    },
    {
      "x": 189,
      "y": 332,
      "size": 1,
      "price": "1011000000000000000000",
      "reserved": "",
      "salt": "0x27d6829b28338a56302c3337d32b5fb9f287103e59b4c5a54b89c2e1bf7d2b6c",
      "assetIds": []
    },
    {
      "x": 189,
      "y": 333,
      "size": 1,
      "price": "1011000000000000000000",
      "reserved": "",
      "salt": "0x97e39c0ba9a2f1c687b1b3e21e2224f9eeaf070961add7b6aef4513ca180d689",
      "assetIds": []
    },
    {
      "x": 189,
      "y": 334,
      "size": 1,
      "price": "4683000000000000000000",
      "reserved": "",
      "salt": "0xbb2d0ec4a1edf956797808c8af2ec1bcac7dd1c0319d7c554d888ab4d0517f2e",
      "assetIds": [
        "41506478881403507969696680653240014914910929820314476107906210059990541021186"
      ]
    },
    {
      "x": 189,
      "y": 335,
      "size": 1,
      "price": "4683000000000000000000",
      "reserved": "",
      "salt": "0x97d0ff5a44965e9e899882aaa3d7e8019cde97064d3a31c3556e145b5c018c15",
      "assetIds": [
        "41506478881403507969696680653240014914910929820314476107906210059990541021186"
      ]
    },
    {
      "x": 189,
      "y": 348,
      "size": 1,
      "price": "4683000000000000000000",
      "reserved": "",
      "salt": "0xf8b10da02acabe24718b9e7463836756b02cb8ece3a6e484f46972b8672295b2",
      "assetIds": [
        "41506478881403507969696680653240014914910929820314476107906210059990541021186"
      ]
    },
    {
      "x": 189,
      "y": 349,
      "size": 1,
      "price": "4683000000000000000000",
      "reserved": "",
      "salt": "0xde0e11d62d6d97d7ee1ed1b4b106aa99c746cf8244bcccd8c0d363d3e2080d1d",
      "assetIds": [
        "41506478881403507969696680653240014914910929820314476107906210059990541021186"
      ]
    },
    {
      "x": 189,
      "y": 350,
      "size": 1,
      "price": "1011000000000000000000",
      "reserved": "",
      "salt": "0x2b190b2dc1166f0c9330b315ab0d434c7dd9a9adf343712c00a1ba2b4bf041ac",
      "assetIds": []
    },
    {
      "x": 189,
      "y": 351,
      "size": 1,
      "price": "1011000000000000000000",
      "reserved": "",
      "salt": "0xddd6f109897d78d9e039d8b0e75be31a654fd98ea236f8579a6904585683833e",
      "assetIds": []
    },
    {
      "x": 189,
      "y": 352,
      "size": 1,
      "price": "1011000000000000000000",
      "reserved": "",
      "salt": "0x1b52ffd602a528970f5799cf58794d45874f208a42598bfbe05f894caf769fb5",
      "assetIds": []
    },
    {
      "x": 189,
      "y": 353,
      "size": 1,
      "price": "1011000000000000000000",
      "reserved": "",
      "salt": "0x3abbbc9e26c1109bc3855390988fb8664704f67c3bbe45090898ac5a82716dc9",
      "assetIds": []
    },
    {
      "x": 189,
      "y": 354,
      "size": 1,
      "price": "1011000000000000000000",
      "reserved": "",
      "salt": "0x323d8b0b9e9551b3111f72e5bfd563d4248e90c649b15087f11e9c3fa0396ac8",
      "assetIds": []
    },
    {
      "x": 189,
      "y": 355,
      "size": 1,
      "price": "1011000000000000000000",
      "reserved": "",
      "salt": "0xda477fade59ea68e3abf5f176acff1d8a5afb8d212d08f7b32cbc57cd3276aec",
      "assetIds": []
    },
    {
      "x": 189,
      "y": 356,
      "size": 1,
      "price": "1011000000000000000000",
      "reserved": "",
      "salt": "0x33ddfc6b34d57d78983120ef9af31aea955db65c7d6cc5a825959b9f24d834f8",
      "assetIds": []
    },
    {
      "x": 189,
      "y": 357,
      "size": 1,
      "price": "1011000000000000000000",
      "reserved": "",
      "salt": "0x7ba43e38acf46477c221ef3a3f5c8f6864dc5407e6c42d523e4c85dfc813fa52",
      "assetIds": []
    },
    {
      "x": 189,
      "y": 358,
      "size": 1,
      "price": "1011000000000000000000",
      "reserved": "",
      "salt": "0x1f31b5627172a15a211666387e403ee05026ae632e81c828ae47d4381e820284",
      "assetIds": []
    },
    {
      "x": 189,
      "y": 359,
      "size": 1,
      "price": "1011000000000000000000",
      "reserved": "",
      "salt": "0x371e01ec30f7a90f213b4cd4cf6b9aa926af0c9d8986ac80ef9640546a06372d",
      "assetIds": []
    },
    {
      "x": 190,
      "y": 331,
      "size": 1,
      "price": "1011000000000000000000",
      "reserved": "",
      "salt": "0xa69cc7597d2ad3814884cf9a9d9d3bb2bb30ad4935093e5ccae401c2f5f55f2d",
      "assetIds": []
    },
    {
      "x": 190,
      "y": 332,
      "size": 1,
      "price": "1011000000000000000000",
      "reserved": "",
      "salt": "0xbaac16868c1a590252d80edf6f5206570451eb795a68493da08ca1f25f1b2cad",
      "assetIds": []
    },
    {
      "x": 190,
      "y": 333,
      "size": 1,
      "price": "1011000000000000000000",
      "reserved": "",
      "salt": "0xfb2a80686bc94ad48a0aee32d6c7cd7b8271072fbda7d77452a91442806360d8",
      "assetIds": []
    },
    {
      "x": 190,
      "y": 334,
      "size": 1,
      "price": "4683000000000000000000",
      "reserved": "",
      "salt": "0x15360b2bc115e14000846ec0069a856496f5a5c3700f5e4a67e6c6ff578e01d4",
      "assetIds": [
        "41506478881403507969696680653240014914910929820314476107906210059990541021186"
      ]
    },
    {
      "x": 190,
      "y": 335,
      "size": 1,
      "price": "4683000000000000000000",
      "reserved": "",
      "salt": "0xb19da9023f9e9d8b0d110c972370b06b385f9724a5101f0d38599cbaed14ddbf",
      "assetIds": [
        "41506478881403507969696680653240014914910929820314476107906210059990541021186"
      ]
    },
    {
      "x": 190,
      "y": 348,
      "size": 1,
      "price": "4683000000000000000000",
      "reserved": "",
      "salt": "0x9b8cf86f16f2ba56ec72c54b213557ff40019867f207fa7f0e8a23ccf94dc933",
      "assetIds": [
        "41506478881403507969696680653240014914910929820314476107906210059990541021186"
      ]
    },
    {
      "x": 190,
      "y": 349,
      "size": 1,
      "price": "4683000000000000000000",
      "reserved": "",
      "salt": "0xafeb7cf6dfd94facd0ec2592badfbbf1d947baed0c966341cbdaf558aaf33a45",
      "assetIds": [
        "41506478881403507969696680653240014914910929820314476107906210059990541021186"
      ]
    },
    {
      "x": 190,
      "y": 350,
      "size": 1,
      "price": "1011000000000000000000",
      "reserved": "",
      "salt": "0x1a6f3bbfb6fc80d4d0faf3ff5a69d0e8c69295e9a24fbe90b00bb53ece5fe5f6",
      "assetIds": []
    },
    {
      "x": 190,
      "y": 351,
      "size": 1,
      "price": "1011000000000000000000",
      "reserved": "",
      "salt": "0xd49593cb1a26333a79b4c877bb6eed1a794e90149cadd07b6fba2e83bac4e5de",
      "assetIds": []
    },
    {
      "x": 190,
      "y": 352,
      "size": 1,
      "price": "1011000000000000000000",
      "reserved": "",
      "salt": "0x699f241990cab2e9a9bae6f98652ade3c9a3c46739a95f18ccfb265c6162e222",
      "assetIds": []
    },
    {
      "x": 190,
      "y": 353,
      "size": 1,
      "price": "1011000000000000000000",
      "reserved": "",
      "salt": "0x613263f4ed8b7dad3d2aff6129fc9cd7ed3f400a01dde1cddcb1ed3cd807ea54",
      "assetIds": []
    },
    {
      "x": 190,
      "y": 354,
      "size": 1,
      "price": "1011000000000000000000",
      "reserved": "0x7a9fe22691c811ea339d9b73150e6911a5343dca",
      "salt": "0xddbe9de39559e55d419effd11add215b6dbdcfb78f9a1a40d82f223d0ebba3e2",
      "assetIds": []
    },
    {
      "x": 190,
      "y": 355,
      "size": 1,
      "price": "1011000000000000000000",
      "reserved": "",
      "salt": "0xe82da8b6f271df0f84b4ee5e0a466e60903285dd63725fb0dfea918c0052df64",
      "assetIds": []
    },
    {
      "x": 190,
      "y": 356,
      "size": 1,
      "price": "1011000000000000000000",
      "reserved": "0x7a9fe22691c811ea339d9b73150e6911a5343dca",
      "salt": "0x8ed8efa4ec9f533ca3a420540f9f5ee340632a11e75ca57589c5461c9612450c",
      "assetIds": []
    },
    {
      "x": 190,
      "y": 357,
      "size": 1,
      "price": "1011000000000000000000",
      "reserved": "",
      "salt": "0xd0ff7e6c71bb7b27de1aeea93cfa0a561fb0434dbb7d32e0ea6785f47f0c12dd",
      "assetIds": []
    },
    {
      "x": 190,
      "y": 358,
      "size": 1,
      "price": "1011000000000000000000",
      "reserved": "",
      "salt": "0x8d8138cb612dee665accaf8344237e9c8776aa72b63b5a7ee1f906807a80e7b9",
      "assetIds": []
    },
    {
      "x": 190,
      "y": 359,
      "size": 1,
      "price": "1011000000000000000000",
      "reserved": "",
      "salt": "0xf8624b98a56a3602f2341c5560bf090716f6a37fce0e6f419fcdc6aef5cf9b55",
      "assetIds": []
    },
    {
      "x": 191,
      "y": 331,
      "size": 1,
      "price": "1011000000000000000000",
      "reserved": "",
      "salt": "0x738120d14e30a541954708ac266292d0f00045d6d6b1d00d9c2dae808b4ede05",
      "assetIds": []
    },
    {
      "x": 191,
      "y": 332,
      "size": 1,
      "price": "1011000000000000000000",
      "reserved": "0x7a9fe22691c811ea339d9b73150e6911a5343dca",
      "salt": "0xf60de27f88bd6bd1aab27595b1ac87ebafe9d32470979f5d26bb6bd604cf88d4",
      "assetIds": []
    },
    {
      "x": 191,
      "y": 333,
      "size": 1,
      "price": "1011000000000000000000",
      "reserved": "",
      "salt": "0xeed2ec4015d854827b6cadb35ebc2ccaf642a5bd9b748a1ad979614685943b3f",
      "assetIds": []
    },
    {
      "x": 191,
      "y": 334,
      "size": 1,
      "price": "4683000000000000000000",
      "reserved": "",
      "salt": "0xe7e97c71c8ae416faa98b15568b583ceb2f587e944bdf59933415789e331aacc",
      "assetIds": [
        "41506478881403507969696680653240014914910929820314476107906210059990541021186"
      ]
    },
    {
      "x": 191,
      "y": 335,
      "size": 1,
      "price": "4683000000000000000000",
      "reserved": "",
      "salt": "0x0b3c9461cf4140c7c00dcb20f51f610b66ca68f2c0c5450aaa68719dbd777a90",
      "assetIds": [
        "41506478881403507969696680653240014914910929820314476107906210059990541021186"
      ]
    },
    {
      "x": 191,
      "y": 348,
      "size": 1,
      "price": "4683000000000000000000",
      "reserved": "",
      "salt": "0x87d7e5a2e9b69b863f61bd6331029a74a2cadc3bd4f10c1d3e228b4f4600943a",
      "assetIds": [
        "41506478881403507969696680653240014914910929820314476107906210059990541021186"
      ]
    },
    {
      "x": 191,
      "y": 349,
      "size": 1,
      "price": "4683000000000000000000",
      "reserved": "",
      "salt": "0xc0c85fe0edb552104bd8f91a8b3f36f7754a2a277e3df0eaf360168078b01099",
      "assetIds": [
        "41506478881403507969696680653240014914910929820314476107906210059990541021186"
      ]
    },
    {
      "x": 191,
      "y": 350,
      "size": 1,
      "price": "1011000000000000000000",
      "reserved": "",
      "salt": "0xa718018c2bd0eb15220189cc763531a62214136d3e1485e34c490e90bca332d2",
      "assetIds": []
    },
    {
      "x": 191,
      "y": 351,
      "size": 1,
      "price": "1011000000000000000000",
      "reserved": "",
      "salt": "0xd1c1caa30f4b00a22a0776557059481b74460e9743ca61736d8003be3a4b83c2",
      "assetIds": []
    },
    {
      "x": 191,
      "y": 352,
      "size": 1,
      "price": "1011000000000000000000",
      "reserved": "",
      "salt": "0x8fd99c8d9dcae0e28951e5ec06b6de39ced7322662efc5ae1ee91170d233b17f",
      "assetIds": []
    },
    {
      "x": 191,
      "y": 353,
      "size": 1,
      "price": "1011000000000000000000",
      "reserved": "",
      "salt": "0x8fcdeb51d018eca8df81f5ce7fbe10586ddf46f6552c4352750f712f302751f3",
      "assetIds": []
    },
    {
      "x": 191,
      "y": 354,
      "size": 1,
      "price": "1011000000000000000000",
      "reserved": "",
      "salt": "0x2e810d42eedd6ccf2a6defecae6ea5a5f4f02c18a6835f47e18179f261c1505c",
      "assetIds": []
    },
    {
      "x": 191,
      "y": 355,
      "size": 1,
      "price": "1011000000000000000000",
      "reserved": "",
      "salt": "0xb98bd482016df504272e401764d833f29bb25399b9e84bc2e5e985fb28257029",
      "assetIds": []
    },
    {
      "x": 191,
      "y": 356,
      "size": 1,
      "price": "1011000000000000000000",
      "reserved": "",
      "salt": "0x71546d9e0b921f4904b1e7bee498979fe428637a8471c783843c92898283a5e4",
      "assetIds": []
    },
    {
      "x": 191,
      "y": 357,
      "size": 1,
      "price": "1011000000000000000000",
      "reserved": "",
      "salt": "0x6542a63d254df9035f902ed7a2ca49b967567f2ac71bb078e7e6a2df3b0d1f81",
      "assetIds": []
    },
    {
      "x": 191,
      "y": 358,
      "size": 1,
      "price": "1011000000000000000000",
      "reserved": "",
      "salt": "0xfd8139836caf26bd94f30d5e119660b3676c1390400ac4ea8ee009bae2b10819",
      "assetIds": []
    },
    {
      "x": 191,
      "y": 359,
      "size": 1,
      "price": "1011000000000000000000",
      "reserved": "",
      "salt": "0xd3e0a2e673702b0534e1ec661f941d17fe9d7afa61751253b7e00f650d9d25fb",
      "assetIds": []
    },
    {
      "x": 192,
      "y": 336,
      "size": 1,
      "price": "4683000000000000000000",
      "reserved": "",
      "salt": "0xb963c0ce7e9f6e5c4a7acddbeaf0cde1d429d68be912b2a76919eda398b56988",
      "assetIds": [
        "41506478881403507969696680653240014914910929820314476107906210059990541021186"
      ]
    },
    {
      "x": 192,
      "y": 337,
      "size": 1,
      "price": "4683000000000000000000",
      "reserved": "",
      "salt": "0x0ac3199cbd7db35c8242e1f3e34ea605ae8ce05a9d66c5a9c5ebe5a6c514eb1c",
      "assetIds": [
        "41506478881403507969696680653240014914910929820314476107906210059990541021186"
      ]
    },
    {
      "x": 192,
      "y": 338,
      "size": 1,
      "price": "4683000000000000000000",
      "reserved": "",
      "salt": "0x8c14ac2faa7d86ca34db80b843dad0b36770ddbd3baca102acb37f4f1d4d0795",
      "assetIds": [
        "41506478881403507969696680653240014914910929820314476107906210059990541021186"
      ]
    },
    {
      "x": 192,
      "y": 339,
      "size": 1,
      "price": "4683000000000000000000",
      "reserved": "",
      "salt": "0x805d710c4d2566564ac7b187d0145f248e5760b103d42b929e96645719f79635",
      "assetIds": [
        "41506478881403507969696680653240014914910929820314476107906210059990541021186"
      ]
    },
    {
      "x": 192,
      "y": 340,
      "size": 1,
      "price": "4683000000000000000000",
      "reserved": "",
      "salt": "0xf9e2918d7cda0765f92c1d46a80c12aa628aa66efe2c592733a7b7a67fc0b32e",
      "assetIds": [
        "41506478881403507969696680653240014914910929820314476107906210059990541021186"
      ]
    },
    {
      "x": 192,
      "y": 341,
      "size": 1,
      "price": "4683000000000000000000",
      "reserved": "",
      "salt": "0x869711abee956743ae5514610c0d86493961d61ad41ba8e8310d80cc3f804cb5",
      "assetIds": [
        "41506478881403507969696680653240014914910929820314476107906210059990541021186"
      ]
    },
    {
      "x": 192,
      "y": 342,
      "size": 1,
      "price": "4683000000000000000000",
      "reserved": "",
      "salt": "0x1df91c102c0311f48428099f7715fb1ce092df2ab85dc8aae7bd2806f233a0ef",
      "assetIds": [
        "41506478881403507969696680653240014914910929820314476107906210059990541021186"
      ]
    },
    {
      "x": 192,
      "y": 343,
      "size": 1,
      "price": "4683000000000000000000",
      "reserved": "",
      "salt": "0xe1805dc5dfbeec00b78d1fa2a7b7d2981c982392d317568a18a6055be7572471",
      "assetIds": [
        "41506478881403507969696680653240014914910929820314476107906210059990541021186"
      ]
    },
    {
      "x": 192,
      "y": 344,
      "size": 1,
      "price": "4683000000000000000000",
      "reserved": "",
      "salt": "0x2186d043371aafbc1642693ef3a04ef0416a11587fa5bd08f04b0d6fd677f983",
      "assetIds": [
        "41506478881403507969696680653240014914910929820314476107906210059990541021186"
      ]
    },
    {
      "x": 192,
      "y": 345,
      "size": 1,
      "price": "4683000000000000000000",
      "reserved": "",
      "salt": "0x133d8e373b69d21bf91d3b964aeb806eb3ff1bb3ade972d8c9ff69beea57d6d0",
      "assetIds": [
        "41506478881403507969696680653240014914910929820314476107906210059990541021186"
      ]
    },
    {
      "x": 192,
      "y": 346,
      "size": 1,
      "price": "4683000000000000000000",
      "reserved": "",
      "salt": "0x9d8afe0f58983d557f134c8b78dc1ce493658b5fd18aa867a1c177a0b4c1e130",
      "assetIds": [
        "41506478881403507969696680653240014914910929820314476107906210059990541021186"
      ]
    },
    {
      "x": 192,
      "y": 347,
      "size": 1,
      "price": "4683000000000000000000",
      "reserved": "",
      "salt": "0x18066e7dc4abf7812a8abe240e947ca9b354b9e1b2aad4da9c85dcac7aefe26d",
      "assetIds": [
        "41506478881403507969696680653240014914910929820314476107906210059990541021186"
      ]
    },
    {
      "x": 192,
      "y": 348,
      "size": 1,
      "price": "4683000000000000000000",
      "reserved": "",
      "salt": "0x272e0970bba51ae292f911477a903f8ba30e1f75a544d5864d316b692acac001",
      "assetIds": [
        "41506478881403507969696680653240014914910929820314476107906210059990541021186"
      ]
    },
    {
      "x": 192,
      "y": 349,
      "size": 1,
      "price": "1011000000000000000000",
      "reserved": "",
      "salt": "0x62471d63a193788c31a67d1706b1b780bc63f0e0ec7309e2e28e4952317dba79",
      "assetIds": []
    },
    {
      "x": 192,
      "y": 350,
      "size": 1,
      "price": "1011000000000000000000",
      "reserved": "",
      "salt": "0x750e88df471f88c374c06a951c08f527c29dd7d0f2eefea9bcb14e1742b79045",
      "assetIds": []
    },
    {
      "x": 192,
      "y": 351,
      "size": 1,
      "price": "1011000000000000000000",
      "reserved": "0x7a9fe22691c811ea339d9b73150e6911a5343dca",
      "salt": "0x3e28ccadb544f24ee98667f0913902b847da37e9f7a373c91549205087dc1783",
      "assetIds": []
    },
    {
      "x": 192,
      "y": 352,
      "size": 1,
      "price": "1011000000000000000000",
      "reserved": "",
      "salt": "0x49808e421a70e54b15dbb522ae4b20832089a697ad695664c94de65e5d7c37d7",
      "assetIds": []
    },
    {
      "x": 192,
      "y": 353,
      "size": 1,
      "price": "1011000000000000000000",
      "reserved": "",
      "salt": "0x8da510f92c5cd21d84c6b8f527ca0a2e6acb9cd513b16dcea412e2cadb6bc77f",
      "assetIds": []
    },
    {
      "x": 192,
      "y": 354,
      "size": 1,
      "price": "1011000000000000000000",
      "reserved": "",
      "salt": "0xea411dcaaaa92256b553e58e0eb50f14b07d7b9449a48e5ddfad11d6c890504b",
      "assetIds": []
    },
    {
      "x": 192,
      "y": 355,
      "size": 1,
      "price": "1011000000000000000000",
      "reserved": "",
      "salt": "0x242b402f3e8f7cda558ba53dafe16c2497daa4f08cf4835b1e551f4b77cab8ca",
      "assetIds": []
    },
    {
      "x": 192,
      "y": 356,
      "size": 1,
      "price": "1011000000000000000000",
      "reserved": "",
      "salt": "0x2bc7ec727633a6d8d44f2e9b9db3e5c2ede5ff79a10ba5754549d0d32f5ecd5a",
      "assetIds": []
    },
    {
      "x": 192,
      "y": 357,
      "size": 1,
      "price": "1011000000000000000000",
      "reserved": "",
      "salt": "0x32e3a7b2e4fc2e86b72d2886a8d4a47dbdc699784ff602255901995aa9a224b2",
      "assetIds": []
    },
    {
      "x": 193,
      "y": 336,
      "size": 1,
      "price": "4683000000000000000000",
      "reserved": "",
      "salt": "0xa92dd5c15fdf46bf8f736743fc63a829d6812da9199741e7386f372a2f22d6da",
      "assetIds": [
        "41506478881403507969696680653240014914910929820314476107906210059990541021186"
      ]
    },
    {
      "x": 193,
      "y": 337,
      "size": 1,
      "price": "4683000000000000000000",
      "reserved": "",
      "salt": "0x165900170cb570262161d96bd2cf354b2112f7a61db4a710f2522006948305dc",
      "assetIds": [
        "41506478881403507969696680653240014914910929820314476107906210059990541021186"
      ]
    },
    {
      "x": 193,
      "y": 338,
      "size": 1,
      "price": "4683000000000000000000",
      "reserved": "",
      "salt": "0x87e1e5c2a134a83f3e80d9fb081cc82e9b1583f6d2378e1f519f7c84e479b0e5",
      "assetIds": [
        "41506478881403507969696680653240014914910929820314476107906210059990541021186"
      ]
    },
    {
      "x": 193,
      "y": 339,
      "size": 1,
      "price": "4683000000000000000000",
      "reserved": "",
      "salt": "0x83928fd82dc5501fa7139fd65dc75ee29083c495b0f3b965ff61f7fc9d6b3fd9",
      "assetIds": [
        "41506478881403507969696680653240014914910929820314476107906210059990541021186"
      ]
    },
    {
      "x": 193,
      "y": 340,
      "size": 1,
      "price": "1011000000000000000000",
      "reserved": "0x7a9fe22691c811ea339d9b73150e6911a5343dca",
      "salt": "0x0a8cb7902b1a78ca39553cd535f36fbfb88c40451e0af487b3ff3325ab2cd3c4",
      "assetIds": []
    },
    {
      "x": 193,
      "y": 341,
      "size": 1,
      "price": "1011000000000000000000",
      "reserved": "",
      "salt": "0x25ee22fc6516b4a3de3f84301bc6e3e423dd7546e835d41b674fb8fb7fe21400",
      "assetIds": []
    },
    {
      "x": 193,
      "y": 342,
      "size": 1,
      "price": "4683000000000000000000",
      "reserved": "",
      "salt": "0x8a27fff40eb944580106bb815a702b74b70046fd5ad017438204cb332629bf81",
      "assetIds": [
        "41506478881403507969696680653240014914910929820314476107906210059990541021186"
      ]
    },
    {
      "x": 193,
      "y": 343,
      "size": 1,
      "price": "4683000000000000000000",
      "reserved": "",
      "salt": "0x964fd08e733af10ca6a8436ae984774fe2e7cd08f717ea870359c72411fce867",
      "assetIds": [
        "41506478881403507969696680653240014914910929820314476107906210059990541021186"
      ]
    },
    {
      "x": 193,
      "y": 344,
      "size": 1,
      "price": "4683000000000000000000",
      "reserved": "",
      "salt": "0x22f76e2c23addc5d36953fa903a50df3fc5f85b2e5d385033600a72700b4975a",
      "assetIds": [
        "41506478881403507969696680653240014914910929820314476107906210059990541021186"
      ]
    },
    {
      "x": 193,
      "y": 345,
      "size": 1,
      "price": "4683000000000000000000",
      "reserved": "",
      "salt": "0x6879b7d6427e3bcbc5730b68660b83d81661381d6f155786192a89ee9f5a3480",
      "assetIds": [
        "41506478881403507969696680653240014914910929820314476107906210059990541021186"
      ]
    },
    {
      "x": 193,
      "y": 346,
      "size": 1,
      "price": "4683000000000000000000",
      "reserved": "",
      "salt": "0x1d3a49d4ee287457f1683ec6592bed041e298f5320eac2318067b157ea59a308",
      "assetIds": [
        "41506478881403507969696680653240014914910929820314476107906210059990541021186"
      ]
    },
    {
      "x": 193,
      "y": 347,
      "size": 1,
      "price": "4683000000000000000000",
      "reserved": "",
      "salt": "0xeb1ad30f0c7559d6759a032ecdeb9f8dad81b651b3cd659211fa40d8521a2db5",
      "assetIds": [
        "41506478881403507969696680653240014914910929820314476107906210059990541021186"
      ]
    },
    {
      "x": 193,
      "y": 348,
      "size": 1,
      "price": "4683000000000000000000",
      "reserved": "",
      "salt": "0xa3ddd741bf820b259cefa08c840ce4394b6e60039d70297fdf7a7828419f57c5",
      "assetIds": [
        "41506478881403507969696680653240014914910929820314476107906210059990541021186"
      ]
    },
    {
      "x": 193,
      "y": 349,
      "size": 1,
      "price": "1011000000000000000000",
      "reserved": "",
      "salt": "0x0dfe78f01e086fde28c06fb246efeb58c09d55f4c84c7d9c2dcd9c0f0eff4da2",
      "assetIds": []
    },
    {
      "x": 193,
      "y": 350,
      "size": 1,
      "price": "1011000000000000000000",
      "reserved": "",
      "salt": "0xd7d1f81b998f8fa5b0cb137481fe0787a94d77da2d3d243dd5e6eb521cd19186",
      "assetIds": []
    },
    {
      "x": 193,
      "y": 351,
      "size": 1,
      "price": "1011000000000000000000",
      "reserved": "",
      "salt": "0x1856f73406e5139b69667e85da697aaa107f7e58c0a18e00fc72a1a8cad4bad5",
      "assetIds": []
    },
    {
      "x": 193,
      "y": 352,
      "size": 1,
      "price": "1011000000000000000000",
      "reserved": "",
      "salt": "0x07ed871e31190a22a6a65acd2e9b455fe712dae1facd85a13fb74f82ccddd0a1",
      "assetIds": []
    },
    {
      "x": 193,
      "y": 353,
      "size": 1,
      "price": "1011000000000000000000",
      "reserved": "",
      "salt": "0x232f7b03d8cc74ee47539d746b59abcd2b15b7e5df0feac65ce810c55657da0f",
      "assetIds": []
    },
    {
      "x": 193,
      "y": 354,
      "size": 1,
      "price": "1011000000000000000000",
      "reserved": "0x7a9fe22691c811ea339d9b73150e6911a5343dca",
      "salt": "0xd61c4bfb1f09424ae3af0ac0b2f11c45f66d020826a93d2fdd0228be8eb1b6dd",
      "assetIds": []
    },
    {
      "x": 193,
      "y": 355,
      "size": 1,
      "price": "1011000000000000000000",
      "reserved": "",
      "salt": "0x69bce8ba2d6e9c69507b518f55578ff959b73554d529b03ed967d6bc9222ecb1",
      "assetIds": []
    },
    {
      "x": 193,
      "y": 356,
      "size": 1,
      "price": "1011000000000000000000",
      "reserved": "",
      "salt": "0x97748a69b3490c9e9bac5156cdb813a848f6da3bbd2f68d7e1179b2f20609860",
      "assetIds": []
    },
    {
      "x": 193,
      "y": 357,
      "size": 1,
      "price": "1011000000000000000000",
      "reserved": "",
      "salt": "0xc347745120feb2e866e70ed245219bc1b4bb640c4a83873553a92dd5137e8089",
      "assetIds": []
    },
    {
      "x": 194,
      "y": 336,
      "size": 1,
      "price": "4683000000000000000000",
      "reserved": "",
      "salt": "0x9805a457333f9013f0687c608a924952596e8ba8663a32e68b7351b9b6af43e4",
      "assetIds": [
        "41506478881403507969696680653240014914910929820314476107906210059990541021186"
      ]
    },
    {
      "x": 194,
      "y": 337,
      "size": 1,
      "price": "4683000000000000000000",
      "reserved": "",
      "salt": "0x4e73c9a28ac7fb5e4eeb3bf3840e60ab778d46cbb6432d2b615b45d2757b8713",
      "assetIds": [
        "41506478881403507969696680653240014914910929820314476107906210059990541021186"
      ]
    },
    {
      "x": 194,
      "y": 338,
      "size": 1,
      "price": "4683000000000000000000",
      "reserved": "",
      "salt": "0x91f36cae5c35b20ae1fed74c64e8ce9cd7ba02ff262f3b0ceda8c5a501a592eb",
      "assetIds": [
        "41506478881403507969696680653240014914910929820314476107906210059990541021186"
      ]
    },
    {
      "x": 194,
      "y": 339,
      "size": 1,
      "price": "4683000000000000000000",
      "reserved": "",
      "salt": "0xaadf4091ce7476db6112b474257886260a71074fb9369945a51bd8214a91be19",
      "assetIds": [
        "41506478881403507969696680653240014914910929820314476107906210059990541021186"
      ]
    },
    {
      "x": 194,
      "y": 340,
      "size": 1,
      "price": "1011000000000000000000",
      "reserved": "",
      "salt": "0xb20d8b7f55b3845a93ac91469e4ffb957989e3be3b3d0353db4739a2d8438b2a",
      "assetIds": []
    },
    {
      "x": 194,
      "y": 341,
      "size": 1,
      "price": "1011000000000000000000",
      "reserved": "0x7a9fe22691c811ea339d9b73150e6911a5343dca",
      "salt": "0x62a07e731a4c592cbbcf7d37af14f5ca3a540d3e3ae41524479ce7176311dcfa",
      "assetIds": []
    },
    {
      "x": 194,
      "y": 342,
      "size": 1,
      "price": "4683000000000000000000",
      "reserved": "",
      "salt": "0xa04dd89760cd73e6bc1609b9c76ccc3d46b4a4fb3e3aa8c77ef5d4bff2a90379",
      "assetIds": [
        "41506478881403507969696680653240014914910929820314476107906210059990541021186"
      ]
    },
    {
      "x": 194,
      "y": 343,
      "size": 1,
      "price": "4683000000000000000000",
      "reserved": "",
      "salt": "0x2d21abb78c75aacc38b2e897578ed259689291d5d6c2d52be72c30f83b42b7cf",
      "assetIds": [
        "41506478881403507969696680653240014914910929820314476107906210059990541021186"
      ]
    },
    {
      "x": 194,
      "y": 344,
      "size": 1,
      "price": "4683000000000000000000",
      "reserved": "",
      "salt": "0x171418dad4f9ab79a8446af68e60f0faff2944d1414c2de892c0fde17081873d",
      "assetIds": [
        "41506478881403507969696680653240014914910929820314476107906210059990541021186"
      ]
    },
    {
      "x": 194,
      "y": 345,
      "size": 1,
      "price": "1011000000000000000000",
      "reserved": "0x7a9fe22691c811ea339d9b73150e6911a5343dca",
      "salt": "0x39f37b12a476811bb38b9b3129acfa561097627633be49d97104637fe364c30e",
      "assetIds": []
    },
    {
      "x": 194,
      "y": 346,
      "size": 1,
      "price": "1011000000000000000000",
      "reserved": "",
      "salt": "0x1c37d4ccc2bcf1544893241b3558817c8658c2968d0196be3128cac594d97f22",
      "assetIds": []
    },
    {
      "x": 194,
      "y": 347,
      "size": 1,
      "price": "1011000000000000000000",
      "reserved": "0x7a9fe22691c811ea339d9b73150e6911a5343dca",
      "salt": "0xa42fa0739464de9912b5875dfa8da6600cb203c884ff55787eb5cb29974defd0",
      "assetIds": []
    },
    {
      "x": 194,
      "y": 348,
      "size": 1,
      "price": "4683000000000000000000",
      "reserved": "",
      "salt": "0x004164874cf108abd2e53425d19fcb822c9199998a1f8758e1e7f5fa01e54c00",
      "assetIds": [
        "41506478881403507969696680653240014914910929820314476107906210059990541021186"
      ]
    },
    {
      "x": 194,
      "y": 349,
      "size": 1,
      "price": "1011000000000000000000",
      "reserved": "",
      "salt": "0xed5946ff993cbc21938373df847b690312ecbf23ecf63ae46c24a863830c3791",
      "assetIds": []
    },
    {
      "x": 194,
      "y": 350,
      "size": 1,
      "price": "1011000000000000000000",
      "reserved": "",
      "salt": "0xa2a9ea1c4b35ebfa56ff3804aeee30624b34dd07c8be7537a196e0e60fb28a86",
      "assetIds": []
    },
    {
      "x": 194,
      "y": 356,
      "size": 1,
      "price": "1011000000000000000000",
      "reserved": "",
      "salt": "0x78f96b86eb69a349dd4faab90eed5f468b0b9d7e0b22fd91768b0ecc2432dced",
      "assetIds": []
    },
    {
      "x": 194,
      "y": 357,
      "size": 1,
      "price": "1011000000000000000000",
      "reserved": "",
      "salt": "0x74194a778760114e24df55ca0dbf7b746f2c76b34a5d0b0381dd846a90369434",
      "assetIds": []
    },
    {
      "x": 195,
      "y": 336,
      "size": 1,
      "price": "1011000000000000000000",
      "reserved": "0x7a9fe22691c811ea339d9b73150e6911a5343dca",
      "salt": "0xf8578ae269083b1d75c34485758def25d80cbf04623ea43073080f201a7d166a",
      "assetIds": []
    },
    {
      "x": 195,
      "y": 337,
      "size": 1,
      "price": "1011000000000000000000",
      "reserved": "",
      "salt": "0x976074e892d18a1e9b3b86dcc515bcc4e0662ea8b0ee9afc6cb0969a742dea7c",
      "assetIds": []
    },
    {
      "x": 195,
      "y": 338,
      "size": 1,
      "price": "1011000000000000000000",
      "reserved": "",
      "salt": "0x779480efc75178aeffdbdc2ac536d45208c53b0d77dced5f4abc803e4af58e29",
      "assetIds": []
    },
    {
      "x": 195,
      "y": 339,
      "size": 1,
      "price": "1011000000000000000000",
      "reserved": "",
      "salt": "0x398ecf899f8acbbbd0a13fddaac7437247c4d2aadf6515fbcfe18e9c06ecc4f4",
      "assetIds": []
    },
    {
      "x": 195,
      "y": 340,
      "size": 1,
      "price": "1011000000000000000000",
      "reserved": "",
      "salt": "0x6e82c995d39bfd10f0eaccdb82db37c91d3bec0795d5196b338ef637963b0cf1",
      "assetIds": []
    },
    {
      "x": 195,
      "y": 341,
      "size": 1,
      "price": "1011000000000000000000",
      "reserved": "",
      "salt": "0xab480d0e8547b204fdf4dd446e02aee87d2d58900cdc7d25cf025e2d4add72c3",
      "assetIds": []
    },
    {
      "x": 195,
      "y": 342,
      "size": 1,
      "price": "1011000000000000000000",
      "reserved": "",
      "salt": "0x1d6a6cd80598805f15a561b4b052d3c88a9116e2c3a0e2b50764217f52ac99ea",
      "assetIds": []
    },
    {
      "x": 195,
      "y": 343,
      "size": 1,
      "price": "1011000000000000000000",
      "reserved": "",
      "salt": "0x82b13ac56822286c62500c7530a8619559673c0311ab223a96dd831f27abd1c0",
      "assetIds": []
    },
    {
      "x": 195,
      "y": 344,
      "size": 1,
      "price": "1011000000000000000000",
      "reserved": "",
      "salt": "0xff98ba37ea78fb9b0fa35c2591a6a65a0ba12dfd455589e9b2b7826dd2e9ba3c",
      "assetIds": []
    },
    {
      "x": 195,
      "y": 345,
      "size": 1,
      "price": "1011000000000000000000",
      "reserved": "",
      "salt": "0x6010b855034ce21a32ea41baab857aa631829800bef4f525df8db06fd470a699",
      "assetIds": []
    },
    {
      "x": 195,
      "y": 346,
      "size": 1,
      "price": "1011000000000000000000",
      "reserved": "",
      "salt": "0x7f2bc7d23ee3b34c75056a600f4fab8da7b015556c6d9c7da1da1711f8c34fed",
      "assetIds": []
    },
    {
      "x": 195,
      "y": 347,
      "size": 1,
      "price": "1011000000000000000000",
      "reserved": "",
      "salt": "0x594f0c1f91c8caa41ab5fb4d90e130080c17a42b62093368ed57fcd9e8877d91",
      "assetIds": []
    },
    {
      "x": 195,
      "y": 348,
      "size": 1,
      "price": "1011000000000000000000",
      "reserved": "",
      "salt": "0x1a5381e3198debab126fc3f3912910f8b97d5e2f31fbb79d0353e1fc9f030425",
      "assetIds": []
    },
    {
      "x": 195,
      "y": 349,
      "size": 1,
      "price": "1011000000000000000000",
      "reserved": "",
      "salt": "0x6e48d7a4103853118e30447073ed94f2a68e63740a7291abc47688b0e7eb7033",
      "assetIds": []
    },
    {
      "x": 195,
      "y": 350,
      "size": 1,
      "price": "1011000000000000000000",
      "reserved": "",
      "salt": "0x784a701fb11dbfb15a16954fc862b22d7d1fdd694869c3536ceae6fd98db37d7",
      "assetIds": []
    },
    {
      "x": 196,
      "y": 336,
      "size": 1,
      "price": "1011000000000000000000",
      "reserved": "",
      "salt": "0xf0e03b312b2092586d44d6127abfcf669c3871dfd251ecaace2a83fc5161bc84",
      "assetIds": []
    },
    {
      "x": 196,
      "y": 337,
      "size": 1,
      "price": "1011000000000000000000",
      "reserved": "",
      "salt": "0x3919a667de589a1c7a9cb2f8d0c5ffbcd72e05e4e6a4a3496cf6b07cb48e507f",
      "assetIds": []
    },
    {
      "x": 196,
      "y": 338,
      "size": 1,
      "price": "1011000000000000000000",
      "reserved": "",
      "salt": "0x5a984af90d44f973ae32000f1ba5f4c06c273b21f3f6d7ea3b6455537e7da0be",
      "assetIds": []
    },
    {
      "x": 196,
      "y": 339,
      "size": 1,
      "price": "1011000000000000000000",
      "reserved": "0x7a9fe22691c811ea339d9b73150e6911a5343dca",
      "salt": "0xfe145f9d009b84694c26413984b9dc7e3550f4d9b6c3a1bdc9fdadc354e8312c",
      "assetIds": []
    },
    {
      "x": 196,
      "y": 340,
      "size": 1,
      "price": "1011000000000000000000",
      "reserved": "",
      "salt": "0x3b3903eae272d1cd34c6e6edea63264e62c6ef9c2854c2c2706b57e6aba10d2b",
      "assetIds": []
    },
    {
      "x": 196,
      "y": 341,
      "size": 1,
      "price": "1011000000000000000000",
      "reserved": "",
      "salt": "0xdf59ab5df168c892984b7482e379557ecf57593840ea4ea6100324d7305a9be5",
      "assetIds": []
    },
    {
      "x": 196,
      "y": 342,
      "size": 1,
      "price": "1011000000000000000000",
      "reserved": "",
      "salt": "0xcef81638116eedb14a7d6f575a88952976d9ed4dc8a4b20b4b010a0baf93f177",
      "assetIds": []
    },
    {
      "x": 196,
      "y": 343,
      "size": 1,
      "price": "1011000000000000000000",
      "reserved": "0x7a9fe22691c811ea339d9b73150e6911a5343dca",
      "salt": "0x9fc18f7fb8075f4ddad30967ec0dedc5e2e83ba045aeb8793f39856c507cba41",
      "assetIds": []
    },
    {
      "x": 196,
      "y": 344,
      "size": 1,
      "price": "1011000000000000000000",
      "reserved": "",
      "salt": "0xc46dd09a293608b38bf115c7967abd40c789ffc331248396b62f5b9faf4b1c5a",
      "assetIds": []
    },
    {
      "x": 196,
      "y": 345,
      "size": 1,
      "price": "1011000000000000000000",
      "reserved": "",
      "salt": "0x9b6387396d1c3b77756e9158ede9f4447623b2cb66cd07c9c1cdda48f407eebc",
      "assetIds": []
    },
    {
      "x": 196,
      "y": 346,
      "size": 1,
      "price": "1011000000000000000000",
      "reserved": "",
      "salt": "0x16ee0cbbe18d9a60ecbeafad6a8b498049b12a5ec8d41b4f6aed3e8651f39116",
      "assetIds": []
    },
    {
      "x": 196,
      "y": 347,
      "size": 1,
      "price": "1011000000000000000000",
      "reserved": "",
      "salt": "0x8407c834465c6d6cf565f504564d0f274197af5b525d04c5c2bd740126034d5c",
      "assetIds": []
    },
    {
      "x": 196,
      "y": 348,
      "size": 1,
      "price": "1011000000000000000000",
      "reserved": "",
      "salt": "0x0d7cfa93508eec1554a60fa5d2cde056c568cff8510160f9e5de07e1412c21c1",
      "assetIds": []
    },
    {
      "x": 196,
      "y": 349,
      "size": 1,
      "price": "1011000000000000000000",
      "reserved": "0x7a9fe22691c811ea339d9b73150e6911a5343dca",
      "salt": "0xa32b7b149fed0ccb09a1763d939fdd84e7ecbcf491a26da7993e98294c99999e",
      "assetIds": []
    },
    {
      "x": 196,
      "y": 350,
      "size": 1,
      "price": "1011000000000000000000",
      "reserved": "",
      "salt": "0x9a87676434d53087d79f8d1af0ab5e64f0ba468f0d78f805c30a59556427cb61",
      "assetIds": []
    },
    {
      "x": 197,
      "y": 338,
      "size": 1,
      "price": "1011000000000000000000",
      "reserved": "",
      "salt": "0x9884906e4619e85a7ac9643dca5099ef84ad8fb27ccef3c26213af7b474e039e",
      "assetIds": []
    },
    {
      "x": 197,
      "y": 339,
      "size": 1,
      "price": "1011000000000000000000",
      "reserved": "",
      "salt": "0x710c93996c04a83e9e765bdf7b568d3bccbb9fe49ab903f27f7b1d1d4788e42d",
      "assetIds": []
    },
    {
      "x": 197,
      "y": 340,
      "size": 1,
      "price": "1011000000000000000000",
      "reserved": "",
      "salt": "0x6e75afa342fcf48034bae365cf237b41e1c02b130c18040563cc7a9409be9d79",
      "assetIds": []
    },
    {
      "x": 197,
      "y": 341,
      "size": 1,
      "price": "1011000000000000000000",
      "reserved": "",
      "salt": "0xef9e146d9d0c24adcda277115aa3e7508c1082697884e26e595ecbf7a399c8de",
      "assetIds": []
    },
    {
      "x": 197,
      "y": 342,
      "size": 1,
      "price": "1011000000000000000000",
      "reserved": "",
      "salt": "0x44a9960c46a6f6e9f5f7513d10870bdf662085821c4901f8b9669a1bb732259e",
      "assetIds": []
    },
    {
      "x": 197,
      "y": 343,
      "size": 1,
      "price": "1011000000000000000000",
      "reserved": "",
      "salt": "0xc859e4001df50df88d64d6b9892167e525f155aea0ceabac7489a39dddc85570",
      "assetIds": []
    },
    {
      "x": 197,
      "y": 344,
      "size": 1,
      "price": "1011000000000000000000",
      "reserved": "",
      "salt": "0x612b1770eac68c7157a58543d6464f9fe9207333d26561eded836bb9b1628d5e",
      "assetIds": []
    },
    {
      "x": 197,
      "y": 345,
      "size": 1,
      "price": "1011000000000000000000",
      "reserved": "",
      "salt": "0x44d5ca66555ea478127d56052eb0172b834a64d2b6481da8adb492442ad59530",
      "assetIds": []
    },
    {
      "x": 197,
      "y": 346,
      "size": 1,
      "price": "1011000000000000000000",
      "reserved": "0x7a9fe22691c811ea339d9b73150e6911a5343dca",
      "salt": "0x757d72f01a92d8afbc3b498c5d08022b61fbadfe83400e47c035c5a235ae9326",
      "assetIds": []
    },
    {
      "x": 197,
      "y": 347,
      "size": 1,
      "price": "1011000000000000000000",
      "reserved": "",
      "salt": "0xaa448060009d39e05d1cd4bce33ee9053a60175e9c85b49a1054b0e345513065",
      "assetIds": []
    },
    {
      "x": 197,
      "y": 348,
      "size": 1,
      "price": "1011000000000000000000",
      "reserved": "",
      "salt": "0x77aa96d6b4e601ac083dbb3478ef823fc377ffc9dfbf860bce2a7e9cbed6ce2b",
      "assetIds": []
    },
    {
      "x": 197,
      "y": 349,
      "size": 1,
      "price": "1011000000000000000000",
      "reserved": "",
      "salt": "0x6cf361b2921e3a17f157f554b5e74837a4fa9c607244228b5e003d2792c5af1e",
      "assetIds": []
    },
    {
      "x": 197,
      "y": 350,
      "size": 1,
      "price": "1011000000000000000000",
      "reserved": "",
      "salt": "0x9de86b4225ba9aff51ac7c7b98833070dcd28abfe98244ddb94d0aeeb84417dc",
      "assetIds": []
    },
    {
      "x": 141,
      "y": 342,
      "size": 3,
      "price": "8648000000000000000000",
      "reserved": "0x7a9fe22691c811ea339d9b73150e6911a5343dca",
      "salt": "0x1b82c5c611da7a198a45d3bb9be02510660b6f865849e86f008ce858bd3fac04",
      "assetIds": []
    },
    {
      "x": 174,
      "y": 342,
      "size": 3,
      "price": "8648000000000000000000",
      "reserved": "0x7a9fe22691c811ea339d9b73150e6911a5343dca",
      "salt": "0x65a74250047f0027d5a84001932b3bf733eaa15d266a459b8a5598ee5f8df80a",
      "assetIds": []
    },
    {
      "x": 177,
      "y": 333,
      "size": 3,
      "price": "8648000000000000000000",
      "reserved": "0x7a9fe22691c811ea339d9b73150e6911a5343dca",
      "salt": "0xa0ca69b5fe4bf9dd0d3039b5262224ca6066f32d64dd06755bb1e350dde78ec3",
      "assetIds": []
    },
    {
      "x": 144,
      "y": 324,
      "size": 6,
      "price": "32772000000000000000000",
      "reserved": "0x7a9fe22691c811ea339d9b73150e6911a5343dca",
      "salt": "0x296203e23c39ec13f0861baf3c113b4ce45104bff94ed747d329f90f8ab455a8",
      "assetIds": []
    },
    {
      "x": 150,
      "y": 336,
      "size": 6,
      "price": "32772000000000000000000",
      "reserved": "0x7a9fe22691c811ea339d9b73150e6911a5343dca",
      "salt": "0x4af7904891cf767b4b6a809a66785dc51a1acb8d90b41a99b2567d12ba14a8f8",
      "assetIds": []
    },
    {
      "x": 162,
      "y": 324,
      "size": 6,
      "price": "32772000000000000000000",
      "reserved": "0x7a9fe22691c811ea339d9b73150e6911a5343dca",
      "salt": "0x11cf1d661067434f528f9b0a7088f1fc49fa56a8df67a37e345ada8d1b1cc5fc",
      "assetIds": []
    },
    {
      "x": 168,
      "y": 324,
      "size": 6,
      "price": "32772000000000000000000",
      "reserved": "0x7a9fe22691c811ea339d9b73150e6911a5343dca",
      "salt": "0xb3456df30905217386f03ff0a3076872636936d1e2bb5acbf352f75c76250805",
      "assetIds": []
    },
    {
      "x": 168,
      "y": 336,
      "size": 6,
      "price": "32772000000000000000000",
      "reserved": "0x7a9fe22691c811ea339d9b73150e6911a5343dca",
      "salt": "0x2309e92b7b95e390bb9992c430c673c853fd33a2297e1dd2b0e9d5795cabee8d",
      "assetIds": []
    },
    {
      "x": 180,
      "y": 348,
      "size": 6,
      "price": "32772000000000000000000",
      "reserved": "0x7a9fe22691c811ea339d9b73150e6911a5343dca",
      "salt": "0x7555a153e4f75b21ca2c52bd0585ba2001ae5e0a36c7a3c8689a62d68a6cb900",
      "assetIds": []
    },
    {
      "x": 132,
      "y": 324,
      "size": 12,
      "price": "123806000000000000000000",
      "reserved": "0x7a9fe22691c811ea339d9b73150e6911a5343dca",
      "salt": "0xf75ee4104e7844a69008685ec8a9b1f530b76481ceb86e8385a09fef7ef2e8f2",
      "assetIds": []
    },
    {
      "x": 156,
      "y": 312,
      "size": 12,
      "price": "123806000000000000000000",
      "reserved": "0x7a9fe22691c811ea339d9b73150e6911a5343dca",
      "salt": "0x037de3311f7a58389b02cd153cb8a5d67446a4f10f41ff03438f92ac6503fa4d",
      "assetIds": []
    },
    {
      "x": 156,
      "y": 336,
      "size": 12,
      "price": "123806000000000000000000",
      "reserved": "0x7a9fe22691c811ea339d9b73150e6911a5343dca",
      "salt": "0x7ef385efa6c0ff27b3ef1e5ff69f6eb815a4dfb3d8933c8f893c741b19fcc863",
      "assetIds": []
    },
    {
      "x": 180,
      "y": 336,
      "size": 12,
      "price": "123806000000000000000000",
      "reserved": "0x7a9fe22691c811ea339d9b73150e6911a5343dca",
      "salt": "0x41206ad990ae427bf73c024539aef45506878ea97069ed3b89c3c497058b0b83",
      "assetIds": []
    }
  ],
  "solcInputHash": "313f455adab9ae93096e43acc50d7d38",
  "bytecode": "0x610160604052620d2f006005556103e860075534801561001e57600080fd5b5060405161242e38038061242e833981810160405261018081101561004257600080fd5b50805160208201516040830151606080850151608086015160a08088015160c0808a015160e08b01516101008c01516101208d01516101408e0151610160909e0151600280546001600160a01b0319166001600160a01b03861617905560038390558d8b1b6001600160601b0319908116909852998c901b909616909352999a9899979895979496929590949391926100dc8a600161014a565b600680546001600160a01b03199081166001600160a01b039a8b1617909155610140979097526101209590955260008054909616979096169690961790935550606093841b6001600160601b031990811660e05292841b831660805290921b1661010052506101ae92505050565b6001600160a01b038216600081815260016020908152604091829020805460ff191685151590811790915582519384529083015280517fb21eb88b4e33b3f1281830a7178d74d8aa73220416215726b68ae23d539515cb9281900390910190a15050565b60805160601c60a05160601c60c05160601c60e05160601c6101005160601c61012051610140516121fb610233600039806109375280611d44525080610913528061139a525080611da45250806115d252806116f4525080610c50528061159c5280611dd852508061166152806116c5525080610dfa528061190852506121fb6000f3fe608060405234801561001057600080fd5b50600436106101515760003560e01c8063984d6252116100cd578063dc5074af11610081578063ecb255b511610066578063ecb255b514610857578063f23a6e6114610874578063f2e7b3811461090957610151565b8063dc5074af14610814578063e56f8a9e1461083a57610151565b8063bc197c81116100b2578063bc197c81146105d3578063c10a420814610735578063caed35001461080c57610151565b8063984d6252146104db578063b522ecff146105ad57610151565b80636e9960c3116101245780638a04af6a116101095780638a04af6a1461032a5780638a12b82f146103585780638f283970146104b557610151565b80636e9960c3146102fe57806377f1c3ac1461032257610151565b806325cb5bc014610156578063495906571461017057806358bc29441461017857806365194ce7146101a0575b600080fd5b61015e610911565b60408051918252519081900360200190f35b61015e610935565b61019e6004803603602081101561018e57600080fd5b50356001600160a01b0316610959565b005b610246600480360360208110156101b657600080fd5b8101906020810181356401000000008111156101d157600080fd5b8201836020820111156101e357600080fd5b8035906020019184600183028401116401000000008311171561020557600080fd5b91908080601f016020809104026020016040519081016040528093929190818152602001838380828437600092019190915250929550610a04945050505050565b6040518080602001866001600160a01b03166001600160a01b03168152602001856001600160a01b03166001600160a01b03168152602001848152602001838152602001828103825287818151815260200191508051906020019080838360005b838110156102bf5781810151838201526020016102a7565b50505050905090810190601f1680156102ec5780820380516001836020036101000a031916815260200191505b50965050505050505060405180910390f35b610306610b09565b604080516001600160a01b039092168252519081900360200190f35b61015e610b18565b61019e6004803603604081101561034057600080fd5b506001600160a01b0381351690602001351515610b1e565b61019e600480360361018081101561036f57600080fd5b6001600160a01b038235811692602081013582169260408201359092169160608201359160808101359160a08201359160c08101359160e0820135916101008101359181019061014081016101208201356401000000008111156103d257600080fd5b8201836020820111156103e457600080fd5b8035906020019184602083028401116401000000008311171561040657600080fd5b91939092909160208101903564010000000081111561042457600080fd5b82018360208201111561043657600080fd5b8035906020019184602083028401116401000000008311171561045857600080fd5b91939092909160208101903564010000000081111561047657600080fd5b82018360208201111561048857600080fd5b803590602001918460018302840111640100000000831117156104aa57600080fd5b509092509050610b75565b61019e600480360360208110156104cb57600080fd5b50356001600160a01b0316610cc3565b61019e600480360360608110156104f157600080fd5b6001600160a01b03823516919081019060408101602082013564010000000081111561051c57600080fd5b82018360208201111561052e57600080fd5b8035906020019184602083028401116401000000008311171561055057600080fd5b91939092909160208101903564010000000081111561056e57600080fd5b82018360208201111561058057600080fd5b803590602001918460208302840111640100000000831117156105a257600080fd5b509092509050610d99565b61019e600480360360208110156105c357600080fd5b50356001600160a01b0316610f24565b610700600480360360a08110156105e957600080fd5b6001600160a01b03823581169260208101359091169181019060608101604082013564010000000081111561061d57600080fd5b82018360208201111561062f57600080fd5b8035906020019184602083028401116401000000008311171561065157600080fd5b91939092909160208101903564010000000081111561066f57600080fd5b82018360208201111561068157600080fd5b803590602001918460208302840111640100000000831117156106a357600080fd5b9193909290916020810190356401000000008111156106c157600080fd5b8201836020820111156106d357600080fd5b803590602001918460018302840111640100000000831117156106f557600080fd5b50909250905061100d565b604080517fffffffff000000000000000000000000000000000000000000000000000000009092168252519081900360200190f35b6107f8600480360360a081101561074b57600080fd5b81019060208101813564010000000081111561076657600080fd5b82018360208201111561077857600080fd5b8035906020019184600183028401116401000000008311171561079a57600080fd5b91908080601f016020809104026020016040519081016040528093929190818152602001838380828437600092019190915250929550506001600160a01b03833581169450602084013516926040810135925060600135905061103a565b604080519115158252519081900360200190f35b610306611176565b6107f86004803603602081101561082a57600080fd5b50356001600160a01b0316611185565b61019e6004803603602081101561085057600080fd5b50356111a3565b61019e6004803603602081101561086d57600080fd5b5035611207565b610700600480360360a081101561088a57600080fd5b6001600160a01b03823581169260208101359091169160408201359160608101359181019060a0810160808201356401000000008111156108ca57600080fd5b8201836020820111156108dc57600080fd5b803590602001918460018302840111640100000000831117156108fe57600080fd5b50909250905061126b565b61015e611296565b7f000000000000000000000000000000000000000000000000000000000000000090565b7f000000000000000000000000000000000000000000000000000000000000000090565b6000546001600160a01b031633146109b8576040805162461bcd60e51b815260206004820152601060248201527f53656e646572206e6f742061646d696e00000000000000000000000000000000604482015290519081900360640190fd5b600554600280546001600160a01b03908116600090815260046020526040902042909301909255805473ffffffffffffffffffffffffffffffffffffffff191692909116919091179055565b606060008060008060606000806000808a80602001905160a0811015610a2957600080fd5b8101908080516040519392919084640100000000821115610a4957600080fd5b908301906020820185811115610a5e57600080fd5b8251640100000000811182820188101715610a7857600080fd5b82525081516020918201929091019080838360005b83811015610aa5578181015183820152602001610a8d565b50505050905090810190601f168015610ad25780820380516001836020036101000a031916815260200191505b5060409081526020820151908201516060830151608090930151959f50909d509b5099509197505050505050505091939590929450565b6000546001600160a01b031690565b60035490565b6000546001600160a01b03163314610b675760405162461bcd60e51b815260040180806020018281038252602e815260200180612198602e913960400191505060405180910390fd5b610b71828261129c565b5050565b610b7f898961131e565b610c048f8e8e8e8e8e8d8d8d80806020026020016040519081016040528093929190818152602001838360200280828437600081840152601f19601f820116905080830192505050505050508c8c8080602002602001604051908101604052809392919081815260200183836020028082843760009201919091525061139892505050565b610c458f8984848080601f01602080910402602001604051908101604052809392919081815260200183838082843760009201919091525061157592505050565b610c758f8f8e8e8e8d7f00000000000000000000000000000000000000000000000000000000000000008f6115c6565b610cb28e87878080602002602001604051908101604052809392919081815260200183836020028082843760009201919091525061189192505050565b505050505050505050505050505050565b6000546001600160a01b03163314610d22576040805162461bcd60e51b815260206004820152601b60248201527f6f6e6c792061646d696e2063616e206368616e67652061646d696e0000000000604482015290519081900360640190fd5b600054604080516001600160a01b039283168152918316602083015280517f7e644d79422f17c01e4894b5f4f588d331ebfa28653d42ae832dc59e38c9798f9281900390910190a16000805473ffffffffffffffffffffffffffffffffffffffff19166001600160a01b0392909216919091179055565b6000546001600160a01b03163314610df8576040805162461bcd60e51b815260206004820152600e60248201527f4e4f545f415554484f52495a4544000000000000000000000000000000000000604482015290519081900360640190fd5b7f00000000000000000000000000000000000000000000000000000000000000006001600160a01b0316632eb2c2d63087878787876040518763ffffffff1660e01b815260040180876001600160a01b03166001600160a01b03168152602001866001600160a01b03166001600160a01b031681526020018060200180602001806020018481038452888882818152602001925060200280828437600083820152601f01601f19169091018581038452868152602090810191508790870280828437600081840152601f19601f8201169050808301925050508481038252600081526020016020019950505050505050505050600060405180830381600087803b158015610f0557600080fd5b505af1158015610f19573d6000803e3d6000fd5b505050505050505050565b6001600160a01b038116610f7f576040805162461bcd60e51b815260206004820152600c60248201527f5a45524f5f414444524553530000000000000000000000000000000000000000604482015290519081900360640190fd5b6000546001600160a01b03163314610fde576040805162461bcd60e51b815260206004820152600e60248201527f4e4f545f415554484f52495a4544000000000000000000000000000000000000604482015290519081900360640190fd5b6006805473ffffffffffffffffffffffffffffffffffffffff19166001600160a01b0392909216919091179055565b7fbc197c810000000000000000000000000000000000000000000000000000000098975050505050505050565b600060035482118061105d5750836001600160a01b0316856001600160a01b0316145b8061106757508242115b156110745750600061116d565b60408051606087811b7fffffffffffffffffffffffffffffffffffffffff0000000000000000000000009081166020808501919091529188901b166034830152604882018690526068808301869052835180840390910181526088830184528051908201207f19457468657265756d205369676e6564204d6573736167653a0a33320000000060a884015260c48084018290528451808503909101815260e4909301909352815191012060009061112b9089611a55565b6001600160a01b03811660009081526004602052604090205490915042116111585760019250505061116d565b6002546001600160a01b039081169116149150505b95945050505050565b6002546001600160a01b031690565b6001600160a01b031660009081526001602052604090205460ff1690565b6000546001600160a01b03163314611202576040805162461bcd60e51b815260206004820152601060248201527f53656e646572206e6f742061646d696e00000000000000000000000000000000604482015290519081900360640190fd5b600355565b6000546001600160a01b03163314611266576040805162461bcd60e51b815260206004820152600e60248201527f4e4f545f415554484f52495a4544000000000000000000000000000000000000604482015290519081900360640190fd5b600755565b7ff23a6e61000000000000000000000000000000000000000000000000000000009695505050505050565b60075490565b6001600160a01b03821660008181526001602090815260409182902080547fffffffffffffffffffffffffffffffffffffffffffffffffffffffffffffff001685151590811790915582519384529083015280517fb21eb88b4e33b3f1281830a7178d74d8aa73220416215726b68ae23d539515cb9281900390910190a15050565b6113456103e861133960075485611b2290919063ffffffff16565b9063ffffffff611b9816565b8114610b71576040805162461bcd60e51b815260206004820152600d60248201527f494e56414c49445f505249434500000000000000000000000000000000000000604482015290519081900360640190fd5b7f0000000000000000000000000000000000000000000000000000000000000000421061140c576040805162461bcd60e51b815260206004820152600c60248201527f53414c455f49535f4f5645520000000000000000000000000000000000000000604482015290519081900360640190fd5b6001600160a01b03891633148061143257503360009081526001602052604090205460ff165b611483576040805162461bcd60e51b815260206004820152600e60248201527f4e4f545f415554484f52495a4544000000000000000000000000000000000000604482015290519081900360640190fd5b6001600160a01b03881615806114aa5750886001600160a01b0316886001600160a01b0316145b6114fb576040805162461bcd60e51b815260206004820152600d60248201527f52455345525645445f4c414e4400000000000000000000000000000000000000604482015290519081900360640190fd5b600061150c888888888d8989611bfd565b90506115188282611ca2565b611569576040805162461bcd60e51b815260206004820152600c60248201527f494e56414c49445f4c414e440000000000000000000000000000000000000000604482015290519081900360640190fd5b50505050505050505050565b60006115818484611d6b565b6006549091506115c0908590839085906001600160a01b03167f0000000000000000000000000000000000000000000000000000000000000000611eb8565b50505050565b83600114806115fc57507f00000000000000000000000000000000000000000000000000000000000000006001600160a01b0316155b156116c357604080517f6e1e3bbf0000000000000000000000000000000000000000000000000000000081526001600160a01b03898116600483015260248201879052604482018990526064820188905260a06084830152600060a4830181905292517f000000000000000000000000000000000000000000000000000000000000000090911692636e1e3bbf9260e4808201939182900301818387803b1580156116a657600080fd5b505af11580156116ba573d6000803e3d6000fd5b50505050611827565b7f00000000000000000000000000000000000000000000000000000000000000006001600160a01b0316636e1e3bbf7f00000000000000000000000000000000000000000000000000000000000000008689898c60405160200180826001600160a01b03166001600160a01b031681526020019150506040516020818303038152906040526040518663ffffffff1660e01b815260040180866001600160a01b03166001600160a01b0316815260200185815260200184815260200183815260200180602001828103825283818151815260200191508051906020019080838360005b838110156117be5781810151838201526020016117a6565b50505050905090810190601f1680156117eb5780820380516001836020036101000a031916815260200191505b509650505050505050600060405180830381600087803b15801561180e57600080fd5b505af1158015611822573d6000803e3d6000fd5b505050505b60408051858152602081018590526001600160a01b03848116828401526060820184905291516101988802890192808b1692908c16917fe4dfa6ac11314892f3029b34a25b1a887da3b1cab2bbf8506d87128ba6e3ac029181900360800190a45050505050505050565b6060815167ffffffffffffffff811180156118ab57600080fd5b506040519080825280602002602001820160405280156118d5578160200160208202803683370190505b50905060005b82518110156119055760018282815181106118f257fe5b60209081029190910101526001016118db565b507f00000000000000000000000000000000000000000000000000000000000000006001600160a01b0316632eb2c2d6308585856040518563ffffffff1660e01b815260040180856001600160a01b03166001600160a01b03168152602001846001600160a01b03166001600160a01b03168152602001806020018060200180602001848103845286818151815260200191508051906020019060200280838360005b838110156119c05781810151838201526020016119a8565b50505050905001848103835285818151815260200191508051906020019060200280838360005b838110156119ff5781810151838201526020016119e7565b50505050905001848103825260008152602001602001975050505050505050600060405180830381600087803b158015611a3857600080fd5b505af1158015611a4c573d6000803e3d6000fd5b50505050505050565b60008151604114611a6557600080fd5b60208201516040830151606084015160001a601b811015611a8457601b015b8060ff16601b1480611a9957508060ff16601c145b611aa257600080fd5b6040805160008152602080820180845289905260ff8416828401526060820186905260808201859052915160019260a0808401939192601f1981019281900390910190855afa158015611af9573d6000803e3d6000fd5b5050604051601f1901519450506001600160a01b038416611b1957600080fd5b50505092915050565b600082611b3157506000611b92565b5081810281838281611b3f57fe5b0414611b92576040805162461bcd60e51b815260206004820152600860248201527f6f766572666c6f77000000000000000000000000000000000000000000000000604482015290519081900360640190fd5b92915050565b600081611bec576040805162461bcd60e51b815260206004820152600960248201527f64697662797a65726f0000000000000000000000000000000000000000000000604482015290519081900360640190fd5b818381611bf557fe5b049392505050565b60008787878787878760405160200180888152602001878152602001868152602001858152602001846001600160a01b03166001600160a01b031660601b8152601401838152602001828051906020019060200280838360005b83811015611c6f578181015183820152602001611c57565b50505050905001975050505050505050604051602081830303815290604052805190602001209050979650505050505050565b600081815b8451811015611d41576000858281518110611cbe57fe5b6020026020010151905080831015611d065782816040516020018083815260200182815260200192505050604051602081830303815290604052805190602001209250611d38565b808360405160200180838152602001828152602001925050506040516020818303038152906040528051906020012092505b50600101611ca7565b507f0000000000000000000000000000000000000000000000000000000000000000149392505050565b600080611d84606461133985600563ffffffff611b2216565b604080516323b872dd60e01b81526001600160a01b0387811660048301527f0000000000000000000000000000000000000000000000000000000000000000811660248301526044820184905291519293507f0000000000000000000000000000000000000000000000000000000000000000909116916323b872dd916064808201926020929091908290030181600087803b158015611e2357600080fd5b505af1158015611e37573d6000803e3d6000fd5b505050506040513d6020811015611e4d57600080fd5b5051611ea0576040805162461bcd60e51b815260206004820152601360248201527f4645455f5452414e534645525f4641494c454400000000000000000000000000604482015290519081900360640190fd5b611eb0838263ffffffff61213a16565b949350505050565b82518190859015612062576060600080600080611ed48a610a04565b9398509196509450925090506000611eef868686868661103a565b15611f7d57611f09611f018d84611b22565b612710611b98565b9050886001600160a01b0316846001600160a01b0316866001600160a01b03167fac7a699eb95c3c6d390ec4626de17ef9a67b35891efdb197beba7c7fdd45fac48f858760405180848152602001838152602001828152602001935050505060405180910390a4611f7a878261213a565b96505b801561205b57604080516323b872dd60e01b81526001600160a01b038f811660048301528781166024830152604482018490529151918a16916323b872dd916064808201926020929091908290030181600087803b158015611fde57600080fd5b505af1158015611ff2573d6000803e3d6000fd5b505050506040513d602081101561200857600080fd5b505161205b576040805162461bcd60e51b815260206004820152601960248201527f636f6d6d6973696f6e207472616e73666572206661696c656400000000000000604482015290519081900360640190fd5b5050505050505b604080516323b872dd60e01b81526001600160a01b0389811660048301528681166024830152604482018490529151918416916323b872dd916064808201926020929091908290030181600087803b1580156120bd57600080fd5b505af11580156120d1573d6000803e3d6000fd5b505050506040513d60208110156120e757600080fd5b5051611a4c576040805162461bcd60e51b815260206004820152601760248201527f7061796d656e74207472616e73666572206661696c6564000000000000000000604482015290519081900360640190fd5b600082821115612191576040805162461bcd60e51b815260206004820152600860248201527f756e6465666c6f77000000000000000000000000000000000000000000000000604482015290519081900360640190fd5b5090039056fe6f6e6c792061646d696e2063616e207365747570206d6574615472616e73616374696f6e50726f636573736f7273a26469706673582212200ff38c5741c66b2a22a9a9ee2abe0f55626323082b6b4443921fd3b25484584a64736f6c63430006050033",
  "devdoc": {
    "methods": {
      "buyLandWithSand(address,address,address,uint256,uint256,uint256,uint256,uint256,bytes32,uint256[],bytes32[],bytes)": {
        "params": {
          "buyer": "address that perform the payment",
          "priceInSand": "price in SAND to purchase that Land",
          "proof": "merkleProof for that particular Land",
          "reserved": "the reserved address (if any)",
          "size": "size of the pack of Land to purchase",
          "to": "address that will own the purchased Land",
          "x": "x coordinate of the Land",
          "y": "y coordinate of the Land"
        }
      },
      "changeAdmin(address)": {
        "details": "change the administrator to be `newAdmin`.",
        "params": {
          "newAdmin": "address of the new administrator."
        }
      },
      "getAdmin()": {
        "details": "gives the current administrator of this contract.",
        "returns": {
          "_0": "the current administrator of this contract."
        }
      },
      "getSigningWallet()": {
        "details": "signing wallet authorized for referral",
        "returns": {
          "_0": "the address of the signing wallet"
        }
      },
      "isMetaTransactionProcessor(address)": {
        "details": "check whether address `who` is given meta-transaction execution rights.",
        "params": {
          "who": "The address to query."
        },
        "returns": {
          "_0": "whether the address has meta-transaction execution rights."
        }
      },
      "isReferralValid(bytes,address,address,uint256,uint256)": {
        "params": {
          "commissionRate": "The commissionRate of the referral",
          "expiryTime": "The expiry time of the referral",
          "referee": "The address of the referee",
          "referrer": "The address of the referrer",
          "signature": "The signature to check (signed referral)"
        },
        "returns": {
          "_0": "True if the referral is valid"
        }
      },
      "setMetaTransactionProcessor(address,bool)": {
        "details": "Enable or disable the ability of `metaTransactionProcessor` to perform meta-tx (metaTransactionProcessor rights).",
        "params": {
          "enabled": "set whether the metaTransactionProcessor is enabled or disabled.",
          "metaTransactionProcessor": "address that will be given/removed metaTransactionProcessor rights."
        }
      },
      "setReceivingWallet(address)": {
        "params": {
          "newWallet": "address of the new receiving wallet"
        }
      },
      "updateMaxCommissionRate(uint256)": {
        "details": "Update the maximum commission rate",
        "params": {
          "newMaxCommissionRate": "The new maximum commission rate"
        }
      },
      "updateSigningWallet(address)": {
        "details": "Update the signing wallet",
        "params": {
          "newSigningWallet": "The new address of the signing wallet"
        }
      },
      "withdrawAssets(address,uint256[],uint256[])": {
        "params": {
          "assetIds": "the assetIds to be transferred",
          "to": "intended recipient of the asset tokens",
          "values": "the quantities of the assetIds to be transferred"
        }
      }
    },
    "title": "Estate Sale contract with referral"
  },
  "userdoc": {
    "methods": {
      "buyLandWithSand(address,address,address,uint256,uint256,uint256,uint256,uint256,bytes32,uint256[],bytes32[],bytes)": {
        "notice": "buy Land with SAND using the merkle proof associated with it"
      },
      "getExpiryTime()": {
        "notice": "Gets the expiry time for the current sale"
      },
      "getMaxCommisionRate()": {
        "notice": "the max commision rate"
      },
      "getMerkleRoot()": {
        "notice": "Gets the Merkle root associated with the current sale"
      },
      "isReferralValid(bytes,address,address,uint256,uint256)": {
        "notice": "Check if a referral is valid"
      },
      "setReceivingWallet(address)": {
        "notice": "set the wallet receiving the proceeds"
      },
      "withdrawAssets(address,uint256[],uint256[])": {
        "notice": "enable Admin to withdraw remaining assets from EstateSaleWithFee contract"
      }
    },
    "notice": "This contract manages the sale of our lands as Estates"
  },
  "storageLayout": {
    "storage": [
      {
        "astId": 12779,
        "contract": "src/solc_0.6/EstateSale/EstateSaleWithFee.sol:EstateSaleWithFee",
        "label": "_admin",
        "offset": 0,
        "slot": "0",
        "type": "t_address"
      },
      {
        "astId": 12841,
        "contract": "src/solc_0.6/EstateSale/EstateSaleWithFee.sol:EstateSaleWithFee",
        "label": "_metaTransactionContracts",
        "offset": 0,
        "slot": "1",
        "type": "t_mapping(t_address,t_bool)"
      },
      {
        "astId": 10957,
        "contract": "src/solc_0.6/EstateSale/EstateSaleWithFee.sol:EstateSaleWithFee",
        "label": "_signingWallet",
        "offset": 0,
        "slot": "2",
        "type": "t_address"
      },
      {
        "astId": 10959,
        "contract": "src/solc_0.6/EstateSale/EstateSaleWithFee.sol:EstateSaleWithFee",
        "label": "_maxCommissionRate",
        "offset": 0,
        "slot": "3",
        "type": "t_uint256"
      },
      {
        "astId": 10963,
        "contract": "src/solc_0.6/EstateSale/EstateSaleWithFee.sol:EstateSaleWithFee",
        "label": "_previousSigningWallets",
        "offset": 0,
        "slot": "4",
        "type": "t_mapping(t_address,t_uint256)"
      },
      {
        "astId": 10972,
        "contract": "src/solc_0.6/EstateSale/EstateSaleWithFee.sol:EstateSaleWithFee",
        "label": "_previousSigningDelay",
        "offset": 0,
        "slot": "5",
        "type": "t_uint256"
      },
      {
        "astId": 7344,
        "contract": "src/solc_0.6/EstateSale/EstateSaleWithFee.sol:EstateSaleWithFee",
        "label": "_wallet",
        "offset": 0,
        "slot": "6",
        "type": "t_address_payable"
      },
      {
        "astId": 7354,
        "contract": "src/solc_0.6/EstateSale/EstateSaleWithFee.sol:EstateSaleWithFee",
        "label": "_multiplier",
        "offset": 0,
        "slot": "7",
        "type": "t_uint256"
      }
    ],
    "types": {
      "t_address": {
        "encoding": "inplace",
        "label": "address",
        "numberOfBytes": "20"
      },
      "t_address_payable": {
        "encoding": "inplace",
        "label": "address payable",
        "numberOfBytes": "20"
      },
      "t_bool": {
        "encoding": "inplace",
        "label": "bool",
        "numberOfBytes": "1"
      },
      "t_mapping(t_address,t_bool)": {
        "encoding": "mapping",
        "key": "t_address",
        "label": "mapping(address => bool)",
        "numberOfBytes": "32",
        "value": "t_bool"
      },
      "t_mapping(t_address,t_uint256)": {
        "encoding": "mapping",
        "key": "t_address",
        "label": "mapping(address => uint256)",
        "numberOfBytes": "32",
        "value": "t_uint256"
      },
      "t_uint256": {
        "encoding": "inplace",
        "label": "uint256",
        "numberOfBytes": "32"
      }
    }
  }
}