{
  "address": "0xaE45b49B066e160199D8D3559c42Acf8f8a185c1",
  "abi": [
    {
      "inputs": [
        {
          "internalType": "address",
          "name": "landAddress",
          "type": "address"
        },
        {
          "internalType": "address",
          "name": "sandContractAddress",
          "type": "address"
        },
        {
          "internalType": "address",
          "name": "initialMetaTx",
          "type": "address"
        },
        {
          "internalType": "address",
          "name": "admin",
          "type": "address"
        },
        {
          "internalType": "address payable",
          "name": "initialWalletAddress",
          "type": "address"
        },
        {
          "internalType": "bytes32",
          "name": "merkleRoot",
          "type": "bytes32"
        },
        {
          "internalType": "uint256",
          "name": "expiryTime",
          "type": "uint256"
        },
        {
          "internalType": "address",
          "name": "initialSigningWallet",
          "type": "address"
        },
        {
          "internalType": "uint256",
          "name": "initialMaxCommissionRate",
          "type": "uint256"
        },
        {
          "internalType": "address",
          "name": "estate",
          "type": "address"
        },
        {
          "internalType": "address",
          "name": "asset",
          "type": "address"
        },
        {
          "internalType": "address",
          "name": "feeDistributor",
          "type": "address"
        },
        {
          "internalType": "address",
          "name": "authValidator",
          "type": "address"
        }
      ],
      "stateMutability": "nonpayable",
      "type": "constructor"
    },
    {
      "anonymous": false,
      "inputs": [
        {
          "indexed": false,
          "internalType": "address",
          "name": "oldAdmin",
          "type": "address"
        },
        {
          "indexed": false,
          "internalType": "address",
          "name": "newAdmin",
          "type": "address"
        }
      ],
      "name": "AdminChanged",
      "type": "event"
    },
    {
      "anonymous": false,
      "inputs": [
        {
          "indexed": true,
          "internalType": "address",
          "name": "buyer",
          "type": "address"
        },
        {
          "indexed": true,
          "internalType": "address",
          "name": "to",
          "type": "address"
        },
        {
          "indexed": true,
          "internalType": "uint256",
          "name": "topCornerId",
          "type": "uint256"
        },
        {
          "indexed": false,
          "internalType": "uint256",
          "name": "size",
          "type": "uint256"
        },
        {
          "indexed": false,
          "internalType": "uint256",
          "name": "price",
          "type": "uint256"
        },
        {
          "indexed": false,
          "internalType": "address",
          "name": "token",
          "type": "address"
        },
        {
          "indexed": false,
          "internalType": "uint256",
          "name": "amountPaid",
          "type": "uint256"
        }
      ],
      "name": "LandQuadPurchased",
      "type": "event"
    },
    {
      "anonymous": false,
      "inputs": [
        {
          "indexed": false,
          "internalType": "address",
          "name": "metaTransactionProcessor",
          "type": "address"
        },
        {
          "indexed": false,
          "internalType": "bool",
          "name": "enabled",
          "type": "bool"
        }
      ],
      "name": "MetaTransactionProcessor",
      "type": "event"
    },
    {
      "anonymous": false,
      "inputs": [
        {
          "indexed": true,
          "internalType": "address",
          "name": "referrer",
          "type": "address"
        },
        {
          "indexed": true,
          "internalType": "address",
          "name": "referee",
          "type": "address"
        },
        {
          "indexed": true,
          "internalType": "address",
          "name": "token",
          "type": "address"
        },
        {
          "indexed": false,
          "internalType": "uint256",
          "name": "amount",
          "type": "uint256"
        },
        {
          "indexed": false,
          "internalType": "uint256",
          "name": "commission",
          "type": "uint256"
        },
        {
          "indexed": false,
          "internalType": "uint256",
          "name": "commissionRate",
          "type": "uint256"
        }
      ],
      "name": "ReferralUsed",
      "type": "event"
    },
    {
      "inputs": [
        {
          "internalType": "address",
          "name": "buyer",
          "type": "address"
        },
        {
          "internalType": "address",
          "name": "to",
          "type": "address"
        },
        {
          "internalType": "address",
          "name": "reserved",
          "type": "address"
        },
        {
          "internalType": "uint256[]",
          "name": "info",
          "type": "uint256[]"
        },
        {
          "internalType": "bytes32",
          "name": "salt",
          "type": "bytes32"
        },
        {
          "internalType": "uint256[]",
          "name": "assetIds",
          "type": "uint256[]"
        },
        {
          "internalType": "bytes32[]",
          "name": "proof",
          "type": "bytes32[]"
        },
        {
          "internalType": "bytes",
          "name": "referral",
          "type": "bytes"
        },
        {
          "internalType": "bytes",
          "name": "signature",
          "type": "bytes"
        }
      ],
      "name": "buyLandWithSand",
      "outputs": [],
      "stateMutability": "nonpayable",
      "type": "function"
    },
    {
      "inputs": [
        {
          "internalType": "address",
          "name": "newAdmin",
          "type": "address"
        }
      ],
      "name": "changeAdmin",
      "outputs": [],
      "stateMutability": "nonpayable",
      "type": "function"
    },
    {
      "inputs": [
        {
          "internalType": "bytes",
          "name": "referral",
          "type": "bytes"
        }
      ],
      "name": "decodeReferral",
      "outputs": [
        {
          "internalType": "bytes",
          "name": "",
          "type": "bytes"
        },
        {
          "internalType": "address",
          "name": "",
          "type": "address"
        },
        {
          "internalType": "address",
          "name": "",
          "type": "address"
        },
        {
          "internalType": "uint256",
          "name": "",
          "type": "uint256"
        },
        {
          "internalType": "uint256",
          "name": "",
          "type": "uint256"
        }
      ],
      "stateMutability": "pure",
      "type": "function"
    },
    {
      "inputs": [],
      "name": "getAdmin",
      "outputs": [
        {
          "internalType": "address",
          "name": "",
          "type": "address"
        }
      ],
      "stateMutability": "view",
      "type": "function"
    },
    {
      "inputs": [],
      "name": "getExpiryTime",
      "outputs": [
        {
          "internalType": "uint256",
          "name": "",
          "type": "uint256"
        }
      ],
      "stateMutability": "view",
      "type": "function"
    },
    {
      "inputs": [],
      "name": "getMaxCommisionRate",
      "outputs": [
        {
          "internalType": "uint256",
          "name": "",
          "type": "uint256"
        }
      ],
      "stateMutability": "view",
      "type": "function"
    },
    {
      "inputs": [],
      "name": "getMerkleRoot",
      "outputs": [
        {
          "internalType": "bytes32",
          "name": "",
          "type": "bytes32"
        }
      ],
      "stateMutability": "view",
      "type": "function"
    },
    {
      "inputs": [],
      "name": "getSigningWallet",
      "outputs": [
        {
          "internalType": "address",
          "name": "",
          "type": "address"
        }
      ],
      "stateMutability": "view",
      "type": "function"
    },
    {
      "inputs": [
        {
          "internalType": "address",
          "name": "who",
          "type": "address"
        }
      ],
      "name": "isMetaTransactionProcessor",
      "outputs": [
        {
          "internalType": "bool",
          "name": "",
          "type": "bool"
        }
      ],
      "stateMutability": "view",
      "type": "function"
    },
    {
      "inputs": [
        {
          "internalType": "bytes",
          "name": "signature",
          "type": "bytes"
        },
        {
          "internalType": "address",
          "name": "referrer",
          "type": "address"
        },
        {
          "internalType": "address",
          "name": "referee",
          "type": "address"
        },
        {
          "internalType": "uint256",
          "name": "expiryTime",
          "type": "uint256"
        },
        {
          "internalType": "uint256",
          "name": "commissionRate",
          "type": "uint256"
        }
      ],
      "name": "isReferralValid",
      "outputs": [
        {
          "internalType": "bool",
          "name": "",
          "type": "bool"
        }
      ],
      "stateMutability": "view",
      "type": "function"
    },
    {
      "inputs": [
        {
          "internalType": "address",
          "name": "",
          "type": "address"
        },
        {
          "internalType": "address",
          "name": "",
          "type": "address"
        },
        {
          "internalType": "uint256[]",
          "name": "",
          "type": "uint256[]"
        },
        {
          "internalType": "uint256[]",
          "name": "",
          "type": "uint256[]"
        },
        {
          "internalType": "bytes",
          "name": "",
          "type": "bytes"
        }
      ],
      "name": "onERC1155BatchReceived",
      "outputs": [
        {
          "internalType": "bytes4",
          "name": "",
          "type": "bytes4"
        }
      ],
      "stateMutability": "pure",
      "type": "function"
    },
    {
      "inputs": [
        {
          "internalType": "address",
          "name": "",
          "type": "address"
        },
        {
          "internalType": "address",
          "name": "",
          "type": "address"
        },
        {
          "internalType": "uint256",
          "name": "",
          "type": "uint256"
        },
        {
          "internalType": "uint256",
          "name": "",
          "type": "uint256"
        },
        {
          "internalType": "bytes",
          "name": "",
          "type": "bytes"
        }
      ],
      "name": "onERC1155Received",
      "outputs": [
        {
          "internalType": "bytes4",
          "name": "",
          "type": "bytes4"
        }
      ],
      "stateMutability": "pure",
      "type": "function"
    },
    {
      "inputs": [
        {
          "internalType": "address",
          "name": "metaTransactionProcessor",
          "type": "address"
        },
        {
          "internalType": "bool",
          "name": "enabled",
          "type": "bool"
        }
      ],
      "name": "setMetaTransactionProcessor",
      "outputs": [],
      "stateMutability": "nonpayable",
      "type": "function"
    },
    {
      "inputs": [
        {
          "internalType": "address payable",
          "name": "newWallet",
          "type": "address"
        }
      ],
      "name": "setReceivingWallet",
      "outputs": [],
      "stateMutability": "nonpayable",
      "type": "function"
    },
    {
      "inputs": [
        {
          "internalType": "uint256",
          "name": "newMaxCommissionRate",
          "type": "uint256"
        }
      ],
      "name": "updateMaxCommissionRate",
      "outputs": [],
      "stateMutability": "nonpayable",
      "type": "function"
    },
    {
      "inputs": [
        {
          "internalType": "address",
          "name": "newSigningWallet",
          "type": "address"
        }
      ],
      "name": "updateSigningWallet",
      "outputs": [],
      "stateMutability": "nonpayable",
      "type": "function"
    },
    {
      "inputs": [
        {
          "internalType": "address",
          "name": "to",
          "type": "address"
        },
        {
          "internalType": "uint256[]",
          "name": "assetIds",
          "type": "uint256[]"
        },
        {
          "internalType": "uint256[]",
          "name": "values",
          "type": "uint256[]"
        }
      ],
      "name": "withdrawAssets",
      "outputs": [],
      "stateMutability": "nonpayable",
      "type": "function"
    }
  ],
  "transactionHash": "0x8f1d4b894db7b548baec02a861d39cd01f0e53af4a72157ec6f6904935df755f",
  "args": [
    "0x2FA5E1c6a9a95d6d59045209a3588FF26adBad87",
    "0xCc933a862fc15379E441F2A16Cb943D385a4695f",
    "0xCc933a862fc15379E441F2A16Cb943D385a4695f",
    "0xa4519D601F43D0b8f167842a367465681F652252",
    "0x60927eB036621b801491B6c5e9A60A8d2dEeD75A",
    "0x0dd5cbd8cfd65121083924ac62affe0b72a74833c829481733c3a2db7ba312ab",
    1683291600,
    "0xB7060D3FeCAC3AE1F0A0AA416E3e8E472257950e",
    2000,
    "0x0000000000000000000000000000000000000000",
    "0x8055a2c0f7EB177BeaB357B70E6504402d2b5fF6",
    "0x5983532A5b9009E05428595b87F19e42068a232B",
    "0x94cA164E3d7B13700eC356a1540f7Ae7c239A2b3"
  ],
  "numDeployments": 1,
  "linkedData": [
    {
      "x": 312,
      "y": 393,
      "size": 1,
      "price": "4683000000000000000000",
      "reserved": "",
      "salt": "0x1baba84ed6b4bc5e27021bbfac291eb91f693eed528de281655c8e945603b560",
      "assetIds": [
        "41506478881403507969696680653240014914910929820314476107906210059990541021185"
      ]
    },
    {
      "x": 312,
      "y": 394,
      "size": 1,
      "price": "4683000000000000000000",
      "reserved": "",
      "salt": "0xa496adfc20eef745055cf0b407fc53d30f19c6280762d48a8055f1db414c57ac",
      "assetIds": [
        "41506478881403507969696680653240014914910929820314476107906210059990541021185"
      ]
    },
    {
      "x": 312,
      "y": 395,
      "size": 1,
      "price": "4683000000000000000000",
      "reserved": "",
      "salt": "0x1d4425f418736c5d901cf02aee533724d6c268f9d23074c2499e71d5039d21f8",
      "assetIds": [
        "41506478881403507969696680653240014914910929820314476107906210059990541021185"
      ]
    },
    {
      "x": 312,
      "y": 396,
      "size": 1,
      "price": "4683000000000000000000",
      "reserved": "",
      "salt": "0x7eff67ebb553d240a99e0108f808a9d0cd05a019dda364627701c751aaaec091",
      "assetIds": [
        "41506478881403507969696680653240014914910929820314476107906210059990541021185"
      ]
    },
    {
      "x": 312,
      "y": 397,
      "size": 1,
      "price": "4683000000000000000000",
      "reserved": "",
      "salt": "0x548262c5a305b66f600837be832f15efb857828a368f99ab8d711250523c82eb",
      "assetIds": [
        "41506478881403507969696680653240014914910929820314476107906210059990541021185"
      ]
    },
    {
      "x": 312,
      "y": 398,
      "size": 1,
      "price": "4683000000000000000000",
      "reserved": "",
      "salt": "0x865d8800445411b70ec60430682facd110a176eac1127c434c001904dae68c78",
      "assetIds": [
        "41506478881403507969696680653240014914910929820314476107906210059990541021185"
      ]
    },
    {
      "x": 312,
      "y": 399,
      "size": 1,
      "price": "4683000000000000000000",
      "reserved": "",
      "salt": "0x95033f132645459760dfa8b07556fbdaa0ab6da84162958a249a85bebc9fc296",
      "assetIds": [
        "41506478881403507969696680653240014914910929820314476107906210059990541021185"
      ]
    },
    {
      "x": 312,
      "y": 400,
      "size": 1,
      "price": "4683000000000000000000",
      "reserved": "",
      "salt": "0xe05f3a1aaa166bcb7500807101b217fd20bf4ff7d552cfb510a355bfdfa78179",
      "assetIds": [
        "41506478881403507969696680653240014914910929820314476107906210059990541021185"
      ]
    },
    {
      "x": 312,
      "y": 401,
      "size": 1,
      "price": "4683000000000000000000",
      "reserved": "",
      "salt": "0x2d92d98e0329bcc85c867d44a1517e0f006f542bd7c9bc84fb072cd7694f6e49",
      "assetIds": [
        "41506478881403507969696680653240014914910929820314476107906210059990541021185"
      ]
    },
    {
      "x": 312,
      "y": 405,
      "size": 1,
      "price": "4683000000000000000000",
      "reserved": "",
      "salt": "0xa7cbbaa725470defb1707f1ec09e2667d16289028e9b4370082379f98a201c26",
      "assetIds": [
        "41506478881403507969696680653240014914910929820314476107906210059990541021185"
      ]
    },
    {
      "x": 312,
      "y": 406,
      "size": 1,
      "price": "4683000000000000000000",
      "reserved": "",
      "salt": "0xd445c9ccff53e0fb9629af782a62d9f8503e008fe37ef7e35de05e16489c8b00",
      "assetIds": [
        "41506478881403507969696680653240014914910929820314476107906210059990541021185"
      ]
    },
    {
      "x": 312,
      "y": 407,
      "size": 1,
      "price": "4683000000000000000000",
      "reserved": "",
      "salt": "0xbb96d8874d467cb803e4f1e1a96174f8791f3439113f53d209c402ec4e6fe081",
      "assetIds": [
        "41506478881403507969696680653240014914910929820314476107906210059990541021185"
      ]
    },
    {
      "x": 313,
      "y": 393,
      "size": 1,
      "price": "4683000000000000000000",
      "reserved": "",
      "salt": "0x1d1a8fd0ecc1b859b058c4518a1d666fed297cb0826b4400d061dc0577d29ebd",
      "assetIds": [
        "41506478881403507969696680653240014914910929820314476107906210059990541021185"
      ]
    },
    {
      "x": 313,
      "y": 394,
      "size": 1,
      "price": "4683000000000000000000",
      "reserved": "",
      "salt": "0xa038d9dbda33830b8b22b53da2688568c8bf2e4cb214b26c17d66203c2c4a907",
      "assetIds": [
        "41506478881403507969696680653240014914910929820314476107906210059990541021185"
      ]
    },
    {
      "x": 313,
      "y": 395,
      "size": 1,
      "price": "4683000000000000000000",
      "reserved": "",
      "salt": "0x66e8eaa72e472ce2b9c66c2f5e4039b6136e77c55e7de9537419599378f2e057",
      "assetIds": [
        "41506478881403507969696680653240014914910929820314476107906210059990541021185"
      ]
    },
    {
      "x": 313,
      "y": 396,
      "size": 1,
      "price": "4683000000000000000000",
      "reserved": "",
      "salt": "0x75c0c37b51a91c83c8225ebeed9443a25200e2053b8ca47affa1c108d31a4d11",
      "assetIds": [
        "41506478881403507969696680653240014914910929820314476107906210059990541021185"
      ]
    },
    {
      "x": 313,
      "y": 397,
      "size": 1,
      "price": "4683000000000000000000",
      "reserved": "",
      "salt": "0x15eca894df3d8d9c3e50b4c11f33de203efb42a9c93adafb00b83f30e60f0e6c",
      "assetIds": [
        "41506478881403507969696680653240014914910929820314476107906210059990541021185"
      ]
    },
    {
      "x": 313,
      "y": 398,
      "size": 1,
      "price": "4683000000000000000000",
      "reserved": "",
      "salt": "0xd62df720facab6751d45d716975eb5e536ace1a89d887a991e1ac3e34f6d531d",
      "assetIds": [
        "41506478881403507969696680653240014914910929820314476107906210059990541021185"
      ]
    },
    {
      "x": 313,
      "y": 399,
      "size": 1,
      "price": "4683000000000000000000",
      "reserved": "",
      "salt": "0xe30df53fa0e8a0f825fbe2c8f9ab5a289184bed58c3c30f17a10795b9cdb9a0b",
      "assetIds": [
        "41506478881403507969696680653240014914910929820314476107906210059990541021185"
      ]
    },
    {
      "x": 313,
      "y": 400,
      "size": 1,
      "price": "4683000000000000000000",
      "reserved": "",
      "salt": "0x04fb5942ee4d67f78a487cd6638ddf6c6d38b8d5bd6328b9acc89a027bb55a15",
      "assetIds": [
        "41506478881403507969696680653240014914910929820314476107906210059990541021185"
      ]
    },
    {
      "x": 313,
      "y": 401,
      "size": 1,
      "price": "4683000000000000000000",
      "reserved": "",
      "salt": "0xa43f4295a146eec9c66aad95e447c858da75cb3f4a1aabf2bd967d1b57ad20a4",
      "assetIds": [
        "41506478881403507969696680653240014914910929820314476107906210059990541021185"
      ]
    },
    {
      "x": 313,
      "y": 405,
      "size": 1,
      "price": "4683000000000000000000",
      "reserved": "",
      "salt": "0xeb8802eb7e76cd88690938aebb956605c0601ee5c305217de52964c8977d7a3f",
      "assetIds": [
        "41506478881403507969696680653240014914910929820314476107906210059990541021185"
      ]
    },
    {
      "x": 313,
      "y": 406,
      "size": 1,
      "price": "4683000000000000000000",
      "reserved": "",
      "salt": "0xb7b397412e10673d9e46e32b3dd0db06dc7844286e28bb54e3d6a864578ac309",
      "assetIds": [
        "41506478881403507969696680653240014914910929820314476107906210059990541021185"
      ]
    },
    {
      "x": 313,
      "y": 407,
      "size": 1,
      "price": "4683000000000000000000",
      "reserved": "",
      "salt": "0x2a7b115d7430303c9dc73786cd2bd907e151d329d029dfaddc26701bb3716d2a",
      "assetIds": [
        "41506478881403507969696680653240014914910929820314476107906210059990541021185"
      ]
    },
    {
      "x": 314,
      "y": 393,
      "size": 1,
      "price": "1011000000000000000000",
      "reserved": "",
      "salt": "0x24405b09557432b74b891ed3fdfe0b93e2dbcc04fd44210ca2d6da14fff8b0bf",
      "assetIds": []
    },
    {
      "x": 314,
      "y": 394,
      "size": 1,
      "price": "1011000000000000000000",
      "reserved": "",
      "salt": "0x3f1ec8d255bd9a74557ed24297e82fc5c6cce188a4b7c37398aea1d6357c7453",
      "assetIds": []
    },
    {
      "x": 314,
      "y": 395,
      "size": 1,
      "price": "1011000000000000000000",
      "reserved": "",
      "salt": "0xdabb6dd723ed8fd702f1455a30401f696ba3701959cf15538a41bc5230034c0b",
      "assetIds": []
    },
    {
      "x": 314,
      "y": 396,
      "size": 1,
      "price": "1011000000000000000000",
      "reserved": "",
      "salt": "0x42eed620c34588d6fd113574e3b108e450b61759c13b33fd4ae75ce6052b848f",
      "assetIds": []
    },
    {
      "x": 314,
      "y": 397,
      "size": 1,
      "price": "4683000000000000000000",
      "reserved": "",
      "salt": "0xbeb34df9878d547a2ded7bed867d7e83f1d4c28df1e821ac23a9775bb03e573e",
      "assetIds": [
        "41506478881403507969696680653240014914910929820314476107906210059990541021185"
      ]
    },
    {
      "x": 314,
      "y": 398,
      "size": 1,
      "price": "4683000000000000000000",
      "reserved": "",
      "salt": "0xae34ca93f8cf0524980ad350bcf727b4d3e0e4ab4784bdf496af07d14b650e94",
      "assetIds": [
        "41506478881403507969696680653240014914910929820314476107906210059990541021185"
      ]
    },
    {
      "x": 314,
      "y": 399,
      "size": 1,
      "price": "1011000000000000000000",
      "reserved": "0x7a9fe22691c811ea339d9b73150e6911a5343dca",
      "salt": "0xa09db9cde6262debb4dcb3b793cc2ef95f347324b9df15319f40f80187581393",
      "assetIds": []
    },
    {
      "x": 314,
      "y": 400,
      "size": 1,
      "price": "4683000000000000000000",
      "reserved": "",
      "salt": "0x57ebeea7cd380e928c1780bff766cdb64eb4d29753c12eaa250a59b8e3420ce9",
      "assetIds": [
        "41506478881403507969696680653240014914910929820314476107906210059990541021185"
      ]
    },
    {
      "x": 314,
      "y": 401,
      "size": 1,
      "price": "1011000000000000000000",
      "reserved": "0x7a9fe22691c811ea339d9b73150e6911a5343dca",
      "salt": "0xfc27aeeb94e42e28692e4427ebe2dea3e9b8a89285a66281b16845a50d9c52bb",
      "assetIds": []
    },
    {
      "x": 314,
      "y": 405,
      "size": 1,
      "price": "1011000000000000000000",
      "reserved": "0x7a9fe22691c811ea339d9b73150e6911a5343dca",
      "salt": "0x68cd6502baf51588625c2a37edcf0cf62da85b23f000436710fd1d19e129019b",
      "assetIds": []
    },
    {
      "x": 314,
      "y": 406,
      "size": 1,
      "price": "4683000000000000000000",
      "reserved": "",
      "salt": "0xfd026381fb33f8f92150373d4dff7e5aaa8235adf6c3882463eefecd260907c4",
      "assetIds": [
        "41506478881403507969696680653240014914910929820314476107906210059990541021185"
      ]
    },
    {
      "x": 314,
      "y": 407,
      "size": 1,
      "price": "1011000000000000000000",
      "reserved": "0x7a9fe22691c811ea339d9b73150e6911a5343dca",
      "salt": "0xeadb007661f3cf6cf59200110d180045b688f7e99bbbe5bdbf98c969590c91b3",
      "assetIds": []
    },
    {
      "x": 315,
      "y": 390,
      "size": 1,
      "price": "1011000000000000000000",
      "reserved": "",
      "salt": "0x4a25d5260f83d0544aff3653df50b8fecf5313b43ba97b8a61533006a07377be",
      "assetIds": []
    },
    {
      "x": 315,
      "y": 391,
      "size": 1,
      "price": "1011000000000000000000",
      "reserved": "",
      "salt": "0x56ba3f01d4c8cf0250e560638aaf1117fa0d689cd877a968a061373c6c6f6366",
      "assetIds": []
    },
    {
      "x": 315,
      "y": 392,
      "size": 1,
      "price": "1011000000000000000000",
      "reserved": "",
      "salt": "0x7d6fe4c9c7f8959d3b03a4e8c37eb3a93a43ac4820ab02711ae095411b4796f6",
      "assetIds": []
    },
    {
      "x": 315,
      "y": 396,
      "size": 1,
      "price": "1011000000000000000000",
      "reserved": "",
      "salt": "0x966735900c0036ddd8b20cc383baf7cd0e584a9dbcdf5eb7f610ee8778cf47ce",
      "assetIds": []
    },
    {
      "x": 315,
      "y": 397,
      "size": 1,
      "price": "4683000000000000000000",
      "reserved": "",
      "salt": "0x7f2ef1068df44382298003f595316b961818832f83ec887ae34759f981c93e51",
      "assetIds": [
        "41506478881403507969696680653240014914910929820314476107906210059990541021185"
      ]
    },
    {
      "x": 315,
      "y": 398,
      "size": 1,
      "price": "1011000000000000000000",
      "reserved": "0x7a9fe22691c811ea339d9b73150e6911a5343dca",
      "salt": "0x84900194a96aca7222c5eb64eae0ac1cc2a2ac4e0c04faae6ce90fd6b7bfc489",
      "assetIds": []
    },
    {
      "x": 316,
      "y": 390,
      "size": 1,
      "price": "1011000000000000000000",
      "reserved": "",
      "salt": "0x26585ac871effe89489cc9127ae3f597dbbedea28c1abdeb939fb13ee826932d",
      "assetIds": []
    },
    {
      "x": 316,
      "y": 391,
      "size": 1,
      "price": "1011000000000000000000",
      "reserved": "",
      "salt": "0x4396c7d3307d1a207b2473f8ebba978fe40aeb70e2c32632284dfe55ed4cbee6",
      "assetIds": []
    },
    {
      "x": 316,
      "y": 392,
      "size": 1,
      "price": "4683000000000000000000",
      "reserved": "",
      "salt": "0x67ae2ca000878fe921cfd7c185bc78fc7aada43119c8e72e4539c4fe66a979c2",
      "assetIds": [
        "41506478881403507969696680653240014914910929820314476107906210059990541021185"
      ]
    },
    {
      "x": 316,
      "y": 396,
      "size": 1,
      "price": "4683000000000000000000",
      "reserved": "",
      "salt": "0xb517fcc2061ef7b0ad4ac7a6036e0179589191c443767ed9395d3e89bb64ab21",
      "assetIds": [
        "41506478881403507969696680653240014914910929820314476107906210059990541021185"
      ]
    },
    {
      "x": 316,
      "y": 397,
      "size": 1,
      "price": "4683000000000000000000",
      "reserved": "",
      "salt": "0x99a396fb2c70bfcbf958d136d38589acd66df89d06aeaae49a993e3b016d93ef",
      "assetIds": [
        "41506478881403507969696680653240014914910929820314476107906210059990541021185"
      ]
    },
    {
      "x": 316,
      "y": 398,
      "size": 1,
      "price": "4683000000000000000000",
      "reserved": "",
      "salt": "0x24dec9e0dffa74eb3be0f30e16d59796bfd9b0b327a2d5313b0e4272fda37093",
      "assetIds": [
        "41506478881403507969696680653240014914910929820314476107906210059990541021185"
      ]
    },
    {
      "x": 317,
      "y": 390,
      "size": 1,
      "price": "1011000000000000000000",
      "reserved": "0x7a9fe22691c811ea339d9b73150e6911a5343dca",
      "salt": "0x1f621715c63e4dbf1c4cde1cce1c163082269e08770c735816b00c93a1540dc8",
      "assetIds": []
    },
    {
      "x": 317,
      "y": 391,
      "size": 1,
      "price": "4683000000000000000000",
      "reserved": "",
      "salt": "0x369d04580fe23be912d40a7052c1cfba7c6b6dfa7f58ea644364aaf19f1e9bfc",
      "assetIds": [
        "41506478881403507969696680653240014914910929820314476107906210059990541021185"
      ]
    },
    {
      "x": 317,
      "y": 392,
      "size": 1,
      "price": "1011000000000000000000",
      "reserved": "0x7a9fe22691c811ea339d9b73150e6911a5343dca",
      "salt": "0xcd1c57410cb64e82749483cca734b78925974420335277fcf648c096df49d9c7",
      "assetIds": []
    },
    {
      "x": 317,
      "y": 396,
      "size": 1,
      "price": "1011000000000000000000",
      "reserved": "0x7a9fe22691c811ea339d9b73150e6911a5343dca",
      "salt": "0xccfcf5cbb1bf351d23c91a6f1faf27023ed3ac719a7000bb851f939ffe3f167c",
      "assetIds": []
    },
    {
      "x": 317,
      "y": 397,
      "size": 1,
      "price": "4683000000000000000000",
      "reserved": "",
      "salt": "0xca918dd00de8e702610bb7af9f975f3f7e23f123c9880ffb3949a272a9fc8f27",
      "assetIds": [
        "41506478881403507969696680653240014914910929820314476107906210059990541021185"
      ]
    },
    {
      "x": 317,
      "y": 398,
      "size": 1,
      "price": "1011000000000000000000",
      "reserved": "0x7a9fe22691c811ea339d9b73150e6911a5343dca",
      "salt": "0x4b733703844b90135555e9b93a26fc9b4e134167c907de11f0ab1dc1bd266d7e",
      "assetIds": []
    },
    {
      "x": 318,
      "y": 384,
      "size": 1,
      "price": "1011000000000000000000",
      "reserved": "",
      "salt": "0x9024845b39063e7cd4ab3f0535dc9cbcf40ceaf1c5243ce6652cc8de4982a6c6",
      "assetIds": []
    },
    {
      "x": 318,
      "y": 385,
      "size": 1,
      "price": "1011000000000000000000",
      "reserved": "",
      "salt": "0xfb1918233e313e4f39055d2c36d3af8ffbf6c36df09ef9be0bea6d5e3ee6dd26",
      "assetIds": []
    },
    {
      "x": 318,
      "y": 386,
      "size": 1,
      "price": "1011000000000000000000",
      "reserved": "",
      "salt": "0x73ff27a11f05350d79b944615538271db80da7953f01c1b7e2a9de9847f5c8a7",
      "assetIds": []
    },
    {
      "x": 318,
      "y": 387,
      "size": 1,
      "price": "1011000000000000000000",
      "reserved": "",
      "salt": "0xf9cf3b57f217519c62ea4f8996b0163030ea9cc7cc6ccdffc54a1886b2506af7",
      "assetIds": []
    },
    {
      "x": 318,
      "y": 388,
      "size": 1,
      "price": "1011000000000000000000",
      "reserved": "",
      "salt": "0x9cdb0f91dee255fac116a9ae5b2d46d233ad0141a1c3d762dfcf5c6cc2ed6c6a",
      "assetIds": []
    },
    {
      "x": 318,
      "y": 389,
      "size": 1,
      "price": "4683000000000000000000",
      "reserved": "",
      "salt": "0xe5fb77ec2219a359a9031a8215a7017c7dd41575f088db7048b234bfb81f9dfc",
      "assetIds": [
        "41506478881403507969696680653240014914910929820314476107906210059990541021185"
      ]
    },
    {
      "x": 318,
      "y": 399,
      "size": 1,
      "price": "1011000000000000000000",
      "reserved": "0x7a9fe22691c811ea339d9b73150e6911a5343dca",
      "salt": "0x756ec02a0baf6537867c474345b0aa968bea7e61d8740683a9eff47061524078",
      "assetIds": []
    },
    {
      "x": 318,
      "y": 400,
      "size": 1,
      "price": "4683000000000000000000",
      "reserved": "",
      "salt": "0xbd7d1705efdd5da0da5bfe52109ea54fccfb737dcc8a01c601cf1d4e73531e3d",
      "assetIds": [
        "41506478881403507969696680653240014914910929820314476107906210059990541021185"
      ]
    },
    {
      "x": 318,
      "y": 401,
      "size": 1,
      "price": "1011000000000000000000",
      "reserved": "0x7a9fe22691c811ea339d9b73150e6911a5343dca",
      "salt": "0x860c53f6fd5e840655f4dc633cee7a671499cc8b4e4196019219696417a9d586",
      "assetIds": []
    },
    {
      "x": 318,
      "y": 402,
      "size": 1,
      "price": "1011000000000000000000",
      "reserved": "",
      "salt": "0xdf91d5c18693c0fcf5d8b9df5e1392745e4e72f6f7f87da5ece82b4223c98087",
      "assetIds": []
    },
    {
      "x": 318,
      "y": 403,
      "size": 1,
      "price": "1011000000000000000000",
      "reserved": "",
      "salt": "0xfca75a9468d22dab03d67fbef747db5c61c6b72bfbc152927ff09271eefc16b9",
      "assetIds": []
    },
    {
      "x": 318,
      "y": 404,
      "size": 1,
      "price": "1011000000000000000000",
      "reserved": "",
      "salt": "0x4e6b9d85db09ea0f9f3b0e2d4839870c698218d7a7e89e659dd9c0848825d639",
      "assetIds": []
    },
    {
      "x": 318,
      "y": 405,
      "size": 1,
      "price": "1011000000000000000000",
      "reserved": "0x7a9fe22691c811ea339d9b73150e6911a5343dca",
      "salt": "0xfa18e4da1a237053f52fdd03f7c41cc5b6367d0e2b737f79263517817fad4f36",
      "assetIds": []
    },
    {
      "x": 318,
      "y": 406,
      "size": 1,
      "price": "4683000000000000000000",
      "reserved": "",
      "salt": "0x9ef10729615a26def90628990f6369a81311632fcf622d09371fd8c03b8237b3",
      "assetIds": [
        "41506478881403507969696680653240014914910929820314476107906210059990541021185"
      ]
    },
    {
      "x": 318,
      "y": 407,
      "size": 1,
      "price": "1011000000000000000000",
      "reserved": "0x7a9fe22691c811ea339d9b73150e6911a5343dca",
      "salt": "0xb6febd9dd02094716fad7ad19e349a6cc609baf5c3a7b4eb1bbf0344c37dcbfe",
      "assetIds": []
    },
    {
      "x": 319,
      "y": 384,
      "size": 1,
      "price": "4683000000000000000000",
      "reserved": "",
      "salt": "0x202a56ec0e76b78936c7977e90f46be14d1a4010abeb36bd2b25d445d90bc7c7",
      "assetIds": [
        "41506478881403507969696680653240014914910929820314476107906210059990541021185"
      ]
    },
    {
      "x": 319,
      "y": 385,
      "size": 1,
      "price": "4683000000000000000000",
      "reserved": "",
      "salt": "0xb2be701d0476ce3878e1ee78c541736048a519787dc3d5bfbe2f5a72f05ed584",
      "assetIds": [
        "41506478881403507969696680653240014914910929820314476107906210059990541021185"
      ]
    },
    {
      "x": 319,
      "y": 386,
      "size": 1,
      "price": "4683000000000000000000",
      "reserved": "",
      "salt": "0x92808cd836816804140cec1ec7d02e742cab0ffd4ee434763e802f4fd2f3082b",
      "assetIds": [
        "41506478881403507969696680653240014914910929820314476107906210059990541021185"
      ]
    },
    {
      "x": 319,
      "y": 387,
      "size": 1,
      "price": "1011000000000000000000",
      "reserved": "",
      "salt": "0xc2d10afcdfe321e03c641ae4dbf128d4caa42c37caf82498835b00c222eadb6f",
      "assetIds": []
    },
    {
      "x": 319,
      "y": 388,
      "size": 1,
      "price": "1011000000000000000000",
      "reserved": "",
      "salt": "0xcbd2ef54f1aff2cfb339d99b64a052baf09580d20078107c036ebfa7e2e8f48e",
      "assetIds": []
    },
    {
      "x": 319,
      "y": 389,
      "size": 1,
      "price": "1011000000000000000000",
      "reserved": "0x7a9fe22691c811ea339d9b73150e6911a5343dca",
      "salt": "0xef1b5a52018ff55b10031e292f7d3d1e616983a974eb3172042dfcb76c458954",
      "assetIds": []
    },
    {
      "x": 319,
      "y": 399,
      "size": 1,
      "price": "4683000000000000000000",
      "reserved": "",
      "salt": "0x1ec8444fb1b99c07cbe48257a5dffe70c98424ebaee6a86247815ac62e93ccf5",
      "assetIds": [
        "41506478881403507969696680653240014914910929820314476107906210059990541021185"
      ]
    },
    {
      "x": 319,
      "y": 400,
      "size": 1,
      "price": "4683000000000000000000",
      "reserved": "",
      "salt": "0xa13cf99c0eb2bedcafa8d46ef2b1afe555dc4a975c2a913cf5a27ef8387017fc",
      "assetIds": [
        "41506478881403507969696680653240014914910929820314476107906210059990541021185"
      ]
    },
    {
      "x": 319,
      "y": 401,
      "size": 1,
      "price": "4683000000000000000000",
      "reserved": "",
      "salt": "0x7f1b52b5eb5f8ce02b77ad107b6e470d6f710a549bc96bb8e81a26d8a4d2b518",
      "assetIds": [
        "41506478881403507969696680653240014914910929820314476107906210059990541021185"
      ]
    },
    {
      "x": 319,
      "y": 402,
      "size": 1,
      "price": "1011000000000000000000",
      "reserved": "",
      "salt": "0x80fcfd112add508d75445b6fe3e48a90c84d28000e510f22598bf8bd6731777e",
      "assetIds": []
    },
    {
      "x": 319,
      "y": 403,
      "size": 1,
      "price": "1011000000000000000000",
      "reserved": "",
      "salt": "0x417d9ddf90e630fdc7fd2addca791a632ed5d6768eeb4331786831747fe8447e",
      "assetIds": []
    },
    {
      "x": 319,
      "y": 404,
      "size": 1,
      "price": "1011000000000000000000",
      "reserved": "",
      "salt": "0x098345f6d5fb3c75620b0dfe9a15f14b9edacfd2aed20635e98cabccba81fc96",
      "assetIds": []
    },
    {
      "x": 319,
      "y": 405,
      "size": 1,
      "price": "4683000000000000000000",
      "reserved": "",
      "salt": "0x806b3196eca4ff06a86de4f9d99ab9c109262e2233720d34b079702d63e43ce6",
      "assetIds": [
        "41506478881403507969696680653240014914910929820314476107906210059990541021185"
      ]
    },
    {
      "x": 319,
      "y": 406,
      "size": 1,
      "price": "4683000000000000000000",
      "reserved": "",
      "salt": "0x9b0c770dff04a7b018031f1f5215e5c708bc2437560378762d9096df572c4e7e",
      "assetIds": [
        "41506478881403507969696680653240014914910929820314476107906210059990541021185"
      ]
    },
    {
      "x": 319,
      "y": 407,
      "size": 1,
      "price": "4683000000000000000000",
      "reserved": "",
      "salt": "0x789ae7ae5eadb38f0208e4046775bd07efb7d124efab27e73b5ee8cca1816a42",
      "assetIds": [
        "41506478881403507969696680653240014914910929820314476107906210059990541021185"
      ]
    },
    {
      "x": 320,
      "y": 384,
      "size": 1,
      "price": "1011000000000000000000",
      "reserved": "0x7a9fe22691c811ea339d9b73150e6911a5343dca",
      "salt": "0x358ef506b6f3fdb550a35fde8ec33eaaaafed7cb36c64153cb9dd2fbf5543421",
      "assetIds": []
    },
    {
      "x": 320,
      "y": 385,
      "size": 1,
      "price": "4683000000000000000000",
      "reserved": "",
      "salt": "0x593168b575d0dcb434b547d46c4d7fb81d9907d62f53806750b2a515f2333606",
      "assetIds": [
        "41506478881403507969696680653240014914910929820314476107906210059990541021185"
      ]
    },
    {
      "x": 320,
      "y": 386,
      "size": 1,
      "price": "1011000000000000000000",
      "reserved": "0x7a9fe22691c811ea339d9b73150e6911a5343dca",
      "salt": "0x2bfe3d479016078982916a83e89955ce25861eece91e5695f1f26d62a7b72360",
      "assetIds": []
    },
    {
      "x": 320,
      "y": 387,
      "size": 1,
      "price": "1011000000000000000000",
      "reserved": "",
      "salt": "0xc93e7bac1e4d29496c626a5f6f4ea0414d00d8c8a6a23c0a27d2c2a0e27477e2",
      "assetIds": []
    },
    {
      "x": 320,
      "y": 388,
      "size": 1,
      "price": "1011000000000000000000",
      "reserved": "",
      "salt": "0xe9ef03cb0380edcdef8851225cd211a4f57141be1ac836f167ff436f13b63fe0",
      "assetIds": []
    },
    {
      "x": 320,
      "y": 389,
      "size": 1,
      "price": "4683000000000000000000",
      "reserved": "",
      "salt": "0x5465e1048ac5325ed16b0a2e7c82d2d8de39a182f9452e0f183791803554c36e",
      "assetIds": [
        "41506478881403507969696680653240014914910929820314476107906210059990541021185"
      ]
    },
    {
      "x": 320,
      "y": 399,
      "size": 1,
      "price": "1011000000000000000000",
      "reserved": "0x7a9fe22691c811ea339d9b73150e6911a5343dca",
      "salt": "0x3df61bb478cfc834fa41e326b0a3a56c7e366d17495c8704f7886b8b1d80c67c",
      "assetIds": []
    },
    {
      "x": 320,
      "y": 400,
      "size": 1,
      "price": "1011000000000000000000",
      "reserved": "",
      "salt": "0x7e18a7468f87b994fbccc22505286402c178d437997139a8aa9f945d84be4f64",
      "assetIds": []
    },
    {
      "x": 320,
      "y": 401,
      "size": 1,
      "price": "1011000000000000000000",
      "reserved": "",
      "salt": "0x9e62cfd7c82a423d58e26511e3386e90553f51b130e5f23df245ee457a412049",
      "assetIds": []
    },
    {
      "x": 320,
      "y": 402,
      "size": 1,
      "price": "1011000000000000000000",
      "reserved": "",
      "salt": "0x95d70147c930c251c824bd0cd1867a822ed069fe79dae4ef1177f5457a567df0",
      "assetIds": []
    },
    {
      "x": 320,
      "y": 403,
      "size": 1,
      "price": "1011000000000000000000",
      "reserved": "",
      "salt": "0x63e6a393cbc9482e37336895ae68086b2a23babe90ae4c076b5f5e626a0705ba",
      "assetIds": []
    },
    {
      "x": 320,
      "y": 404,
      "size": 1,
      "price": "1011000000000000000000",
      "reserved": "",
      "salt": "0xe86b1ead1a4019c0053a280e315bfe401dc116a6a4e00735b882ee4d73ffa03c",
      "assetIds": []
    },
    {
      "x": 320,
      "y": 405,
      "size": 1,
      "price": "1011000000000000000000",
      "reserved": "0x7a9fe22691c811ea339d9b73150e6911a5343dca",
      "salt": "0x5e98aeb428e23567bee8288854e61aed6356dbf06627fefaf6061d8010d48018",
      "assetIds": []
    },
    {
      "x": 320,
      "y": 406,
      "size": 1,
      "price": "4683000000000000000000",
      "reserved": "",
      "salt": "0x843f51f6e723e62dea6d2c650e863eeaa7132401f5a794f21b9dd682776d77cc",
      "assetIds": [
        "41506478881403507969696680653240014914910929820314476107906210059990541021185"
      ]
    },
    {
      "x": 320,
      "y": 407,
      "size": 1,
      "price": "1011000000000000000000",
      "reserved": "0x7a9fe22691c811ea339d9b73150e6911a5343dca",
      "salt": "0xb3d45b684241fba93a52ecce43d5a6c89b3b3a1d32fe3407dfc053cbfc1983cd",
      "assetIds": []
    },
    {
      "x": 321,
      "y": 387,
      "size": 1,
      "price": "1011000000000000000000",
      "reserved": "0x7a9fe22691c811ea339d9b73150e6911a5343dca",
      "salt": "0x60c988a8e697f04f64bec9fac3b2dd0b7d0e5788e85e64c55981a2926ce5a81b",
      "assetIds": []
    },
    {
      "x": 321,
      "y": 388,
      "size": 1,
      "price": "4683000000000000000000",
      "reserved": "",
      "salt": "0x566161b6039b787a3534a46e544b54327beac989270c652c133221fd22e144f5",
      "assetIds": [
        "41506478881403507969696680653240014914910929820314476107906210059990541021185"
      ]
    },
    {
      "x": 321,
      "y": 389,
      "size": 1,
      "price": "1011000000000000000000",
      "reserved": "0x7a9fe22691c811ea339d9b73150e6911a5343dca",
      "salt": "0xe058db31b20feb349decd568dde25a76af2fc24a541f47d314098a53b54954c1",
      "assetIds": []
    },
    {
      "x": 321,
      "y": 396,
      "size": 1,
      "price": "1011000000000000000000",
      "reserved": "0x7a9fe22691c811ea339d9b73150e6911a5343dca",
      "salt": "0xb16a2999c3ab168baaf9ff994cbc2e518eb12421da9c1cd184679bfb4a12be19",
      "assetIds": []
    },
    {
      "x": 321,
      "y": 397,
      "size": 1,
      "price": "4683000000000000000000",
      "reserved": "",
      "salt": "0x922c77a0d1a654bb80b488d377c4417541cc314a55e555f99ea2665471c08757",
      "assetIds": [
        "41506478881403507969696680653240014914910929820314476107906210059990541021185"
      ]
    },
    {
      "x": 321,
      "y": 398,
      "size": 1,
      "price": "1011000000000000000000",
      "reserved": "0x7a9fe22691c811ea339d9b73150e6911a5343dca",
      "salt": "0x1b33cba957b7dbb819fbedd878c4750de27eeb0f283574bf238b9d1baf4e474d",
      "assetIds": []
    },
    {
      "x": 321,
      "y": 399,
      "size": 1,
      "price": "4683000000000000000000",
      "reserved": "",
      "salt": "0x19fc8212c22fb667459dadb27b737f5a8d52838626a8d7095f34aa7e98fc5615",
      "assetIds": [
        "41506478881403507969696680653240014914910929820314476107906210059990541021185"
      ]
    },
    {
      "x": 321,
      "y": 400,
      "size": 1,
      "price": "1011000000000000000000",
      "reserved": "",
      "salt": "0xbaaed08ff54bca4411cb3224a5ad1040460a06cdc09fcae6982db9daaaf1fd3c",
      "assetIds": []
    },
    {
      "x": 321,
      "y": 401,
      "size": 1,
      "price": "1011000000000000000000",
      "reserved": "",
      "salt": "0x8edfe5332c8c55d6cbff48286842c09b108f214dba429309a739fe1b8d15e0fd",
      "assetIds": []
    },
    {
      "x": 322,
      "y": 387,
      "size": 1,
      "price": "4683000000000000000000",
      "reserved": "",
      "salt": "0xe9e7eae55452a538c1aeed8a8d0dfd55eb1b576dd69b2d7a38111c41bc947f41",
      "assetIds": [
        "41506478881403507969696680653240014914910929820314476107906210059990541021185"
      ]
    },
    {
      "x": 322,
      "y": 388,
      "size": 1,
      "price": "4683000000000000000000",
      "reserved": "",
      "salt": "0x36c55079912e7e5ebbda87f8cdca28740b01ead7b165fc9b57deb59633773646",
      "assetIds": [
        "41506478881403507969696680653240014914910929820314476107906210059990541021185"
      ]
    },
    {
      "x": 322,
      "y": 389,
      "size": 1,
      "price": "4683000000000000000000",
      "reserved": "",
      "salt": "0xb8c15c90f728a299b46211821422f886acd977b6d804e4d6d35ef8169a57e0ef",
      "assetIds": [
        "41506478881403507969696680653240014914910929820314476107906210059990541021185"
      ]
    },
    {
      "x": 322,
      "y": 396,
      "size": 1,
      "price": "4683000000000000000000",
      "reserved": "",
      "salt": "0xf69371e2408c6f3d769faf245c7bf0e7742df31699e4903ffb915f545285a099",
      "assetIds": [
        "41506478881403507969696680653240014914910929820314476107906210059990541021185"
      ]
    },
    {
      "x": 322,
      "y": 397,
      "size": 1,
      "price": "1011000000000000000000",
      "reserved": "",
      "salt": "0x4b32bbe8f6a629ac63de5c4108c4fb7888b82a453e3cb020df27bf1a7817dede",
      "assetIds": []
    },
    {
      "x": 322,
      "y": 398,
      "size": 1,
      "price": "1011000000000000000000",
      "reserved": "",
      "salt": "0x33ccf07fb3862ff7b5fe45c3fc832a1dc5010e1e3b51e0d7048584b4b2ceb96a",
      "assetIds": []
    },
    {
      "x": 322,
      "y": 399,
      "size": 1,
      "price": "1011000000000000000000",
      "reserved": "",
      "salt": "0xfef011b08f1422c1296845439ac3a6bc3b36b6edd6594cea2af5ab38a04e3e50",
      "assetIds": []
    },
    {
      "x": 322,
      "y": 400,
      "size": 1,
      "price": "1011000000000000000000",
      "reserved": "",
      "salt": "0x0263866fd05ac8293f7de5486772a30d31acaf7cc996103d1969e3de1f7a8a4a",
      "assetIds": []
    },
    {
      "x": 322,
      "y": 401,
      "size": 1,
      "price": "1011000000000000000000",
      "reserved": "",
      "salt": "0xf44d69d53c72a393a56872c46a3c2ecf09829dc5ae239db21b83ad0b36a08850",
      "assetIds": []
    },
    {
      "x": 323,
      "y": 387,
      "size": 1,
      "price": "1011000000000000000000",
      "reserved": "0x7a9fe22691c811ea339d9b73150e6911a5343dca",
      "salt": "0xe76a8def6f78d84ca976d3e0c8042d6391c15b845f54363dd07eaf3536c66b7c",
      "assetIds": []
    },
    {
      "x": 323,
      "y": 388,
      "size": 1,
      "price": "4683000000000000000000",
      "reserved": "",
      "salt": "0x5619d21edd73d3e7b84f6f0416f455ec44614de8de8c469ac78ec63d9a4e606e",
      "assetIds": [
        "41506478881403507969696680653240014914910929820314476107906210059990541021185"
      ]
    },
    {
      "x": 323,
      "y": 389,
      "size": 1,
      "price": "1011000000000000000000",
      "reserved": "0x7a9fe22691c811ea339d9b73150e6911a5343dca",
      "salt": "0x0b26783372f9abfbe3b3f78fc807be7ec0a12bfe2fbdb374d41d09c3b03f3ef1",
      "assetIds": []
    },
    {
      "x": 323,
      "y": 396,
      "size": 1,
      "price": "1011000000000000000000",
      "reserved": "0x7a9fe22691c811ea339d9b73150e6911a5343dca",
      "salt": "0xc939b5f567820c77c55227d223f44242164fa88f9829e264eb45247ec3dbde8c",
      "assetIds": []
    },
    {
      "x": 323,
      "y": 397,
      "size": 1,
      "price": "1011000000000000000000",
      "reserved": "",
      "salt": "0x066a3688f6b86f7dcc80e7d749d745ac96e5c695c596c4a2a56236446b81c9df",
      "assetIds": []
    },
    {
      "x": 323,
      "y": 398,
      "size": 1,
      "price": "1011000000000000000000",
      "reserved": "",
      "salt": "0xd32d44ae1af903dc687ff9b0cff3c395ee39bed9bd507ec53904f6a5e2d7bf62",
      "assetIds": []
    },
    {
      "x": 323,
      "y": 399,
      "size": 1,
      "price": "1011000000000000000000",
      "reserved": "",
      "salt": "0x6276eccef8fbf954e50e8cc203328e7c38d7535dbb83fa6ae529f72ad373312a",
      "assetIds": []
    },
    {
      "x": 323,
      "y": 400,
      "size": 1,
      "price": "1011000000000000000000",
      "reserved": "",
      "salt": "0x3ab83d98bb013dc3db1e8c0ff778d6825a5c88b1b26aab6633b4264e262601be",
      "assetIds": []
    },
    {
      "x": 323,
      "y": 401,
      "size": 1,
      "price": "1011000000000000000000",
      "reserved": "",
      "salt": "0x7249019e1152941d78153b1bdb289f8893bb0be6cf4eb47521d49cd7c7567bf7",
      "assetIds": []
    },
    {
      "x": 324,
      "y": 390,
      "size": 1,
      "price": "1011000000000000000000",
      "reserved": "0x7a9fe22691c811ea339d9b73150e6911a5343dca",
      "salt": "0xa054cf8388a679d88efc892eea4ae51271f9f691e121c84884c55491581c5a5b",
      "assetIds": []
    },
    {
      "x": 324,
      "y": 391,
      "size": 1,
      "price": "4683000000000000000000",
      "reserved": "",
      "salt": "0xa7868c075fdcc757602a69f3574f63737542eaf0400dae948b940ae03a10c82c",
      "assetIds": [
        "41506478881403507969696680653240014914910929820314476107906210059990541021185"
      ]
    },
    {
      "x": 324,
      "y": 392,
      "size": 1,
      "price": "1011000000000000000000",
      "reserved": "0x7a9fe22691c811ea339d9b73150e6911a5343dca",
      "salt": "0x7b03e633186d8e62b2c511602ae968afa2214e80c12c5be251e83a00e54d44ea",
      "assetIds": []
    },
    {
      "x": 325,
      "y": 390,
      "size": 1,
      "price": "4683000000000000000000",
      "reserved": "",
      "salt": "0xf61e58b27cbfc80ed07d329fb93f6e2fdad009058b3b43c82617cfdac9594d65",
      "assetIds": [
        "41506478881403507969696680653240014914910929820314476107906210059990541021185"
      ]
    },
    {
      "x": 325,
      "y": 391,
      "size": 1,
      "price": "4683000000000000000000",
      "reserved": "",
      "salt": "0x71f8428c83948d77e6cdb7036ad1d78057e8f694f72765e2b51a10b8d5e2b676",
      "assetIds": [
        "41506478881403507969696680653240014914910929820314476107906210059990541021185"
      ]
    },
    {
      "x": 325,
      "y": 392,
      "size": 1,
      "price": "4683000000000000000000",
      "reserved": "",
      "salt": "0x5a469e6e5cd750652ea63a3974f3a789fe609101ff3e3443c68c6685620b85fc",
      "assetIds": [
        "41506478881403507969696680653240014914910929820314476107906210059990541021185"
      ]
    },
    {
      "x": 326,
      "y": 390,
      "size": 1,
      "price": "1011000000000000000000",
      "reserved": "0x7a9fe22691c811ea339d9b73150e6911a5343dca",
      "salt": "0x8f37a204c71397075f70af78e2a3f1d4ee741abc1c6732ff7fa17262c81eaefc",
      "assetIds": []
    },
    {
      "x": 326,
      "y": 391,
      "size": 1,
      "price": "4683000000000000000000",
      "reserved": "",
      "salt": "0x94b125a382c1e9d634c544a76d35f903d5c39fbfc38bcf7f768005a18fd331de",
      "assetIds": [
        "41506478881403507969696680653240014914910929820314476107906210059990541021185"
      ]
    },
    {
      "x": 326,
      "y": 392,
      "size": 1,
      "price": "1011000000000000000000",
      "reserved": "0x7a9fe22691c811ea339d9b73150e6911a5343dca",
      "salt": "0xc9f2cc9c9d64c6ef8dbb7134a929287677a6a468187ffb9c26b7aec1a001b108",
      "assetIds": []
    },
    {
      "x": 327,
      "y": 384,
      "size": 1,
      "price": "1011000000000000000000",
      "reserved": "",
      "salt": "0x36aa075d85fde1962f089c114c7980dd01a103f1c0f2cbb706d731056b387951",
      "assetIds": []
    },
    {
      "x": 327,
      "y": 385,
      "size": 1,
      "price": "1011000000000000000000",
      "reserved": "",
      "salt": "0xe69b978b2063f788c5c06e929e633bea765fd47097b95dcef292dbf220b3e8df",
      "assetIds": []
    },
    {
      "x": 327,
      "y": 386,
      "size": 1,
      "price": "1011000000000000000000",
      "reserved": "",
      "salt": "0x412bdd23d7fde60a886990721e6c7137af67914287521ede2a479b8144580bac",
      "assetIds": []
    },
    {
      "x": 327,
      "y": 387,
      "size": 1,
      "price": "1011000000000000000000",
      "reserved": "0x7a9fe22691c811ea339d9b73150e6911a5343dca",
      "salt": "0x9504bd763d255639e67fce506ad38fd91c30952c5c367e09400f3c75b93859ec",
      "assetIds": []
    },
    {
      "x": 327,
      "y": 388,
      "size": 1,
      "price": "4683000000000000000000",
      "reserved": "",
      "salt": "0x8272e4498c999f7a27d500cf76c7236bf47137bff8affc8181196b50f33d12e4",
      "assetIds": [
        "41506478881403507969696680653240014914910929820314476107906210059990541021185"
      ]
    },
    {
      "x": 327,
      "y": 389,
      "size": 1,
      "price": "1011000000000000000000",
      "reserved": "0x7a9fe22691c811ea339d9b73150e6911a5343dca",
      "salt": "0x06074ccd40cabc51fb79204189d8a46ffcebbbccc829518f200921e368d8ee09",
      "assetIds": []
    },
    {
      "x": 327,
      "y": 393,
      "size": 1,
      "price": "1011000000000000000000",
      "reserved": "0x7a9fe22691c811ea339d9b73150e6911a5343dca",
      "salt": "0x2def1c70dc1e017f72506b97af2a937a7db98b65ea5515fd85ce9eb17af21284",
      "assetIds": []
    },
    {
      "x": 327,
      "y": 394,
      "size": 1,
      "price": "4683000000000000000000",
      "reserved": "",
      "salt": "0x3d764ab9c20a1f36575d30e4632786782a95af64e735e49c1f50d7e55e5b669b",
      "assetIds": [
        "41506478881403507969696680653240014914910929820314476107906210059990541021185"
      ]
    },
    {
      "x": 327,
      "y": 395,
      "size": 1,
      "price": "4683000000000000000000",
      "reserved": "",
      "salt": "0x4a1b3bc03c058c21d6e09cdc55239c9f64aa8e985853df069fb640f583e80702",
      "assetIds": [
        "41506478881403507969696680653240014914910929820314476107906210059990541021185"
      ]
    },
    {
      "x": 328,
      "y": 384,
      "size": 1,
      "price": "1011000000000000000000",
      "reserved": "",
      "salt": "0x44a6b72ed5b6126ad2a318d3ae90d25feeaa4f9393f244d1fa356f4e12d12bb0",
      "assetIds": []
    },
    {
      "x": 328,
      "y": 385,
      "size": 1,
      "price": "1011000000000000000000",
      "reserved": "",
      "salt": "0x471089638edd65f6299c0bc5545de8730a084ef2e3dbe52f8030f3b3010d20bf",
      "assetIds": []
    },
    {
      "x": 328,
      "y": 386,
      "size": 1,
      "price": "1011000000000000000000",
      "reserved": "",
      "salt": "0x659dcb84cfea52f38f15958cfdf2963abb3450538fe90cbdebb860319317f3a5",
      "assetIds": []
    },
    {
      "x": 328,
      "y": 387,
      "size": 1,
      "price": "4683000000000000000000",
      "reserved": "",
      "salt": "0xb1a648479f30e9f636303e36e2776e1c764560332ef4a2a77fa60640ed4cfd8b",
      "assetIds": [
        "41506478881403507969696680653240014914910929820314476107906210059990541021185"
      ]
    },
    {
      "x": 328,
      "y": 388,
      "size": 1,
      "price": "4683000000000000000000",
      "reserved": "",
      "salt": "0x019fd8d7c5370da0ba86cc031ac88e548107eaa8e26599a39368f78dc71a4ceb",
      "assetIds": [
        "41506478881403507969696680653240014914910929820314476107906210059990541021185"
      ]
    },
    {
      "x": 328,
      "y": 389,
      "size": 1,
      "price": "4683000000000000000000",
      "reserved": "",
      "salt": "0x3602b086c2caae5cda57d4f545284e88f0f8e8bc23b0ad80d1980dc475cd57d5",
      "assetIds": [
        "41506478881403507969696680653240014914910929820314476107906210059990541021185"
      ]
    },
    {
      "x": 328,
      "y": 393,
      "size": 1,
      "price": "4683000000000000000000",
      "reserved": "",
      "salt": "0xac01efcba119877f6ce89c3fc8e1be1a291d3c4944045ae18903a587fae165bd",
      "assetIds": [
        "41506478881403507969696680653240014914910929820314476107906210059990541021185"
      ]
    },
    {
      "x": 328,
      "y": 394,
      "size": 1,
      "price": "4683000000000000000000",
      "reserved": "",
      "salt": "0x3c9ab5fd99385d529586034dbeaedff382956cbced8786db9610e263c0fe5f9f",
      "assetIds": [
        "41506478881403507969696680653240014914910929820314476107906210059990541021185"
      ]
    },
    {
      "x": 328,
      "y": 395,
      "size": 1,
      "price": "4683000000000000000000",
      "reserved": "",
      "salt": "0x651e32f30614fd4e29a24c4219e45e79424d788149f6d1c6cf762ec139c19de9",
      "assetIds": [
        "41506478881403507969696680653240014914910929820314476107906210059990541021185"
      ]
    },
    {
      "x": 329,
      "y": 384,
      "size": 1,
      "price": "4683000000000000000000",
      "reserved": "",
      "salt": "0x54f0ddb114302cda63fcf49b902c511523af70aabe9564e8a028b822cd123f06",
      "assetIds": [
        "41506478881403507969696680653240014914910929820314476107906210059990541021185"
      ]
    },
    {
      "x": 329,
      "y": 385,
      "size": 1,
      "price": "4683000000000000000000",
      "reserved": "",
      "salt": "0x3f7075b59d3afbbe712f0aa98df9b9e513b6a53319798d93d12f225478efaff3",
      "assetIds": [
        "41506478881403507969696680653240014914910929820314476107906210059990541021185"
      ]
    },
    {
      "x": 329,
      "y": 386,
      "size": 1,
      "price": "4683000000000000000000",
      "reserved": "",
      "salt": "0x29ae4228daebedf4b196665bdc35c905ba6d12792467471c6f209a56f83756cf",
      "assetIds": [
        "41506478881403507969696680653240014914910929820314476107906210059990541021185"
      ]
    },
    {
      "x": 329,
      "y": 387,
      "size": 1,
      "price": "1011000000000000000000",
      "reserved": "0x7a9fe22691c811ea339d9b73150e6911a5343dca",
      "salt": "0xd15c533480419fb11b12dc10c4acfab1603242836b44f4ec5ab9609e8cadb745",
      "assetIds": []
    },
    {
      "x": 329,
      "y": 388,
      "size": 1,
      "price": "4683000000000000000000",
      "reserved": "",
      "salt": "0xa2eaae058a73bc5bbfd5969ad4576b5f111529526de83a80bea7a362dad50500",
      "assetIds": [
        "41506478881403507969696680653240014914910929820314476107906210059990541021185"
      ]
    },
    {
      "x": 329,
      "y": 389,
      "size": 1,
      "price": "1011000000000000000000",
      "reserved": "0x7a9fe22691c811ea339d9b73150e6911a5343dca",
      "salt": "0xd9e7c5cadd8510dee96a20857fbbad3d2440f862da7ad3e7fbf8979725cbd280",
      "assetIds": []
    },
    {
      "x": 329,
      "y": 393,
      "size": 1,
      "price": "1011000000000000000000",
      "reserved": "0x7a9fe22691c811ea339d9b73150e6911a5343dca",
      "salt": "0xc6d610b4aec5914b7a2754aea0756852a3be3d261636a9ce9dafbdfec43c3004",
      "assetIds": []
    },
    {
      "x": 329,
      "y": 394,
      "size": 1,
      "price": "4683000000000000000000",
      "reserved": "",
      "salt": "0x60956415bf32833b19407316fef4af8acccc412bb19ad51e16f1ca06be4eb90b",
      "assetIds": [
        "41506478881403507969696680653240014914910929820314476107906210059990541021185"
      ]
    },
    {
      "x": 329,
      "y": 395,
      "size": 1,
      "price": "4683000000000000000000",
      "reserved": "",
      "salt": "0xd3d9cf2a3a9faf2a0d6990ea12157d523317a7dfda8233dd79b8a03c60a52cd1",
      "assetIds": [
        "41506478881403507969696680653240014914910929820314476107906210059990541021185"
      ]
    },
    {
      "x": 330,
      "y": 384,
      "size": 1,
      "price": "1011000000000000000000",
      "reserved": "0x7a9fe22691c811ea339d9b73150e6911a5343dca",
      "salt": "0x09ca9c5b293dfe4200e360a196af01a03845634d55e1add7c66f442b43e91581",
      "assetIds": []
    },
    {
      "x": 330,
      "y": 385,
      "size": 1,
      "price": "1011000000000000000000",
      "reserved": "0x7a9fe22691c811ea339d9b73150e6911a5343dca",
      "salt": "0xac9fe426cc2650f95c2d02e66bb84571ccdad49ff38b4e3197eada65fada0a1a",
      "assetIds": []
    },
    {
      "x": 330,
      "y": 386,
      "size": 1,
      "price": "1011000000000000000000",
      "reserved": "0x7a9fe22691c811ea339d9b73150e6911a5343dca",
      "salt": "0xf956e97b1fd181bca46081fd8c665692369fff3d90e391b5b8a4cc05396ba178",
      "assetIds": []
    },
    {
      "x": 331,
      "y": 384,
      "size": 1,
      "price": "4683000000000000000000",
      "reserved": "",
      "salt": "0x8aae0a8f998a3f722ef5b6dab9ec3a6d6c488a0825322fcbbd4fe3089341ce28",
      "assetIds": [
        "41506478881403507969696680653240014914910929820314476107906210059990541021185"
      ]
    },
    {
      "x": 331,
      "y": 385,
      "size": 1,
      "price": "4683000000000000000000",
      "reserved": "",
      "salt": "0xa3d473bf7091af7f6305d18c02320e27bd91d039ddc84ba1b8e00a6a2126f3f3",
      "assetIds": [
        "41506478881403507969696680653240014914910929820314476107906210059990541021185"
      ]
    },
    {
      "x": 331,
      "y": 386,
      "size": 1,
      "price": "4683000000000000000000",
      "reserved": "",
      "salt": "0x2eccec2ad2dfc92dc110d10612ee14eea93df0102dc217458b243c8fe95ff9fb",
      "assetIds": [
        "41506478881403507969696680653240014914910929820314476107906210059990541021185"
      ]
    },
    {
      "x": 332,
      "y": 384,
      "size": 1,
      "price": "1011000000000000000000",
      "reserved": "0x7a9fe22691c811ea339d9b73150e6911a5343dca",
      "salt": "0xaa65b586623f48cca96ab3a721e0bbf2c1d98a35a8dc51fdf2a31cd121338a42",
      "assetIds": []
    },
    {
      "x": 332,
      "y": 385,
      "size": 1,
      "price": "4683000000000000000000",
      "reserved": "",
      "salt": "0x8bafc6a34f486004cb86db279e2e412c0228c53fd1869d401239cf3e77d60349",
      "assetIds": [
        "41506478881403507969696680653240014914910929820314476107906210059990541021185"
      ]
    },
    {
      "x": 332,
      "y": 386,
      "size": 1,
      "price": "1011000000000000000000",
      "reserved": "0x7a9fe22691c811ea339d9b73150e6911a5343dca",
      "salt": "0xf23c952975051265c045c5181e09c1c3381b31003e2abe8ba08f8ebc8f93968f",
      "assetIds": []
    },
    {
      "x": 312,
      "y": 390,
      "size": 3,
      "price": "8648000000000000000000",
      "reserved": "0x7a9fe22691c811ea339d9b73150e6911a5343dca",
      "salt": "0x7b3023a54d3aed7f80a9c998bc5f3314b39fa0e6c2df2fc87d9b9261e14bbfb1",
      "assetIds": []
    },
    {
      "x": 312,
      "y": 402,
      "size": 3,
      "price": "8648000000000000000000",
      "reserved": "0x7a9fe22691c811ea339d9b73150e6911a5343dca",
      "salt": "0x3c9b5176d71d5afd2c47f3dbaa6a5db95d9745b6d589f23a989ee9da478d66d1",
      "assetIds": []
    },
    {
      "x": 315,
      "y": 393,
      "size": 3,
      "price": "8648000000000000000000",
      "reserved": "0x7a9fe22691c811ea339d9b73150e6911a5343dca",
      "salt": "0x2fa1bee2f5234ad3571ae1f682046aa38655c42cd4dc66ead8c5059a64dbe453",
      "assetIds": []
    },
    {
      "x": 315,
      "y": 399,
      "size": 3,
      "price": "8648000000000000000000",
      "reserved": "0x7a9fe22691c811ea339d9b73150e6911a5343dca",
      "salt": "0xc7bc18830a416f6a7d0158e414fcd21519076d60764b8e51ab263978ba8978c5",
      "assetIds": []
    },
    {
      "x": 315,
      "y": 402,
      "size": 3,
      "price": "8648000000000000000000",
      "reserved": "0x7a9fe22691c811ea339d9b73150e6911a5343dca",
      "salt": "0xb8911dd953a3c24d47333a129b9b8b408a74f2f92adfa403dffc9bee14189154",
      "assetIds": []
    },
    {
      "x": 315,
      "y": 405,
      "size": 3,
      "price": "8648000000000000000000",
      "reserved": "0x7a9fe22691c811ea339d9b73150e6911a5343dca",
      "salt": "0x6fc6b8d2e7ebc877bc415f4acb280ac84fb34029379ee618d3071712ee831c72",
      "assetIds": []
    },
    {
      "x": 318,
      "y": 396,
      "size": 3,
      "price": "8648000000000000000000",
      "reserved": "0x7a9fe22691c811ea339d9b73150e6911a5343dca",
      "salt": "0xbfffe11a5c7dfabe82ec0123518ccde94b388d22cdcb51a2cf231c9bea4a8e89",
      "assetIds": []
    },
    {
      "x": 321,
      "y": 384,
      "size": 3,
      "price": "8648000000000000000000",
      "reserved": "0x7a9fe22691c811ea339d9b73150e6911a5343dca",
      "salt": "0x6173f3cce7749a3513b39ca17b45f0e643199aaf4bf7eee72cff493492afdfe1",
      "assetIds": []
    },
    {
      "x": 321,
      "y": 402,
      "size": 3,
      "price": "8648000000000000000000",
      "reserved": "0x7a9fe22691c811ea339d9b73150e6911a5343dca",
      "salt": "0xddfbd17dbbf0914671fc4c3fb4c6390b553824cff24e71a7bfa09487f906fa45",
      "assetIds": []
    },
    {
      "x": 321,
      "y": 405,
      "size": 3,
      "price": "8648000000000000000000",
      "reserved": "0x7a9fe22691c811ea339d9b73150e6911a5343dca",
      "salt": "0x27decf2fd6b8acc7b94a8aee865165ab58561ef9e6c38c44245f494a99dd1ce8",
      "assetIds": []
    },
    {
      "x": 324,
      "y": 384,
      "size": 3,
      "price": "8648000000000000000000",
      "reserved": "0x7a9fe22691c811ea339d9b73150e6911a5343dca",
      "salt": "0x64ad01c581b22062c445cdca86379ecd5d64c9a5621124717d5ecfdfe8f44c97",
      "assetIds": []
    },
    {
      "x": 324,
      "y": 387,
      "size": 3,
      "price": "8648000000000000000000",
      "reserved": "0x7a9fe22691c811ea339d9b73150e6911a5343dca",
      "salt": "0x998749dd8a1df24efbf34986cfaf61ae03612c7bb1771f63ae4f15d4f0cae9fc",
      "assetIds": []
    },
    {
      "x": 324,
      "y": 393,
      "size": 3,
      "price": "8648000000000000000000",
      "reserved": "0x7a9fe22691c811ea339d9b73150e6911a5343dca",
      "salt": "0xd657ecd3cf9e61001c364258f2c6ca0df43525a70781fd9429c5d66787452e47",
      "assetIds": []
    },
    {
      "x": 327,
      "y": 390,
      "size": 3,
      "price": "8648000000000000000000",
      "reserved": "0x7a9fe22691c811ea339d9b73150e6911a5343dca",
      "salt": "0xa38d97e02e0453e18b6299b307034c96d4828ce322a8f21ea55582948a096b90",
      "assetIds": []
    },
    {
      "x": 330,
      "y": 387,
      "size": 3,
      "price": "8648000000000000000000",
      "reserved": "0x7a9fe22691c811ea339d9b73150e6911a5343dca",
      "salt": "0x1449a609ae2af5cf5f8fd8dc19cf43e2f205156cb634ee9d6c33fa6622cd01ae",
      "assetIds": []
    },
    {
      "x": 333,
      "y": 384,
      "size": 3,
      "price": "8648000000000000000000",
      "reserved": "0x7a9fe22691c811ea339d9b73150e6911a5343dca",
      "salt": "0xc9ece00580f6589d885a96473c369fc0b762300a3c86c6614e659dbe77955209",
      "assetIds": []
    },
    {
      "x": 333,
      "y": 387,
      "size": 3,
      "price": "8648000000000000000000",
      "reserved": "0x7a9fe22691c811ea339d9b73150e6911a5343dca",
      "salt": "0xe3deafca94e9cd22ab5a0f0e8d182a011b7848f21bbcd197d68e70333955569a",
      "assetIds": []
    },
    {
      "x": 312,
      "y": 384,
      "size": 6,
      "price": "32772000000000000000000",
      "reserved": "0x7a9fe22691c811ea339d9b73150e6911a5343dca",
      "salt": "0xbf2556f2678cf74d1cab2a2946d1a7ce38088c11f3c05fd6c2f6bb7d77bc8a5e",
      "assetIds": []
    },
    {
      "x": 318,
      "y": 390,
      "size": 6,
      "price": "32772000000000000000000",
      "reserved": "0x7a9fe22691c811ea339d9b73150e6911a5343dca",
      "salt": "0xb138b54d3eefd497c601cab7e1ec3a1e6b757a86343b6577ccb486b472d83e18",
      "assetIds": []
    },
    {
      "x": 330,
      "y": 390,
      "size": 6,
      "price": "32772000000000000000000",
      "reserved": "0x7a9fe22691c811ea339d9b73150e6911a5343dca",
      "salt": "0x07a46169e78b1a58a19fbae45aa129966fd7c6292304cfb683d79150ed67b0f0",
      "assetIds": []
    },
    {
      "x": 324,
      "y": 396,
      "size": 12,
      "price": "123806000000000000000000",
      "reserved": "0x7a9fe22691c811ea339d9b73150e6911a5343dca",
      "salt": "0xe4ed9d78e5a864acaef38bfc41dc97a2a70dbbd8235559d5e8b61c9036f1b6ab",
      "assetIds": []
    }
  ],
  "solcInputHash": "e17a5bb930c92aaeeb80a52119ce77b7",
  "bytecode": "0x610160604052620d2f0060055534801561001857600080fd5b506040516200284d3803806200284d83398181016040526101a081101561003e57600080fd5b50805160208201516040830151606080850151608086015160a08088015160c0808a015160e08b01516101008c01516101208d01516101408e01516101608f0151610180909f0151600280546001600160a01b0319166001600160a01b03871617905560038490558e8c1b6001600160601b03199081169099529a8d901b9097169094529a9b999a98999698959793969195909490939091906100e28b600161015d565b600680546001600160a01b039a8b166001600160a01b031991821617909155610140989098526101209690965260008054998916998816999099179098556001600160601b0319606092831b811660e05290821b811660805296901b909516610100525060078054919093169116179055506101c192505050565b6001600160a01b038216600081815260016020908152604091829020805460ff191685151590811790915582519384529083015280517fb21eb88b4e33b3f1281830a7178d74d8aa73220416215726b68ae23d539515cb9281900390910190a15050565b60805160601c60a05160601c60c05160601c60e05160601c6101005160601c61012051610140516126066200024760003980610b3d528061206c525080610b1952806112ec5250806120da525080611841528061199e5250806117f75280611b9d528061210e525080611872528061196f525080610eb25280611c8952506126066000f3fe608060405234801561001057600080fd5b506004361061011b5760003560e01c80638f283970116100b2578063c10a420811610081578063dc5074af11610066578063dc5074af1461085f578063e56f8a9e14610885578063f23a6e61146108a25761011b565b8063c10a420814610780578063caed3500146108575761011b565b80638f28397014610500578063984d625214610526578063b522ecff146105f8578063bc197c811461061e5761011b565b806365194ce7116100ee57806365194ce7146103485780636e9960c3146104a657806377f1c3ac146104ca5780638a04af6a146104d25761011b565b80631187fd3c1461012057806325cb5bc014610300578063495906571461031a57806358bc294414610322575b600080fd5b6102fe600480360361012081101561013757600080fd5b6001600160a01b038235811692602081013582169260408201359092169181019060808101606082013564010000000081111561017357600080fd5b82018360208201111561018557600080fd5b803590602001918460208302840111640100000000831117156101a757600080fd5b919390928235926040810190602001356401000000008111156101c957600080fd5b8201836020820111156101db57600080fd5b803590602001918460208302840111640100000000831117156101fd57600080fd5b91939092909160208101903564010000000081111561021b57600080fd5b82018360208201111561022d57600080fd5b8035906020019184602083028401116401000000008311171561024f57600080fd5b91939092909160208101903564010000000081111561026d57600080fd5b82018360208201111561027f57600080fd5b803590602001918460018302840111640100000000831117156102a157600080fd5b9193909290916020810190356401000000008111156102bf57600080fd5b8201836020820111156102d157600080fd5b803590602001918460018302840111640100000000831117156102f357600080fd5b509092509050610937565b005b610308610b17565b60408051918252519081900360200190f35b610308610b3b565b6102fe6004803603602081101561033857600080fd5b50356001600160a01b0316610b5f565b6103ee6004803603602081101561035e57600080fd5b81019060208101813564010000000081111561037957600080fd5b82018360208201111561038b57600080fd5b803590602001918460018302840111640100000000831117156103ad57600080fd5b91908080601f016020809104026020016040519081016040528093929190818152602001838380828437600092019190915250929550610c0a945050505050565b6040518080602001866001600160a01b03166001600160a01b03168152602001856001600160a01b03166001600160a01b03168152602001848152602001838152602001828103825287818151815260200191508051906020019080838360005b8381101561046757818101518382015260200161044f565b50505050905090810190601f1680156104945780820380516001836020036101000a031916815260200191505b50965050505050505060405180910390f35b6104ae610d0f565b604080516001600160a01b039092168252519081900360200190f35b610308610d1e565b6102fe600480360360408110156104e857600080fd5b506001600160a01b0381351690602001351515610d24565b6102fe6004803603602081101561051657600080fd5b50356001600160a01b0316610d7b565b6102fe6004803603606081101561053c57600080fd5b6001600160a01b03823516919081019060408101602082013564010000000081111561056757600080fd5b82018360208201111561057957600080fd5b8035906020019184602083028401116401000000008311171561059b57600080fd5b9193909290916020810190356401000000008111156105b957600080fd5b8201836020820111156105cb57600080fd5b803590602001918460208302840111640100000000831117156105ed57600080fd5b509092509050610e51565b6102fe6004803603602081101561060e57600080fd5b50356001600160a01b0316610fdc565b61074b600480360360a081101561063457600080fd5b6001600160a01b03823581169260208101359091169181019060608101604082013564010000000081111561066857600080fd5b82018360208201111561067a57600080fd5b8035906020019184602083028401116401000000008311171561069c57600080fd5b9193909290916020810190356401000000008111156106ba57600080fd5b8201836020820111156106cc57600080fd5b803590602001918460208302840111640100000000831117156106ee57600080fd5b91939092909160208101903564010000000081111561070c57600080fd5b82018360208201111561071e57600080fd5b8035906020019184600183028401116401000000008311171561074057600080fd5b5090925090506110c5565b604080517fffffffff000000000000000000000000000000000000000000000000000000009092168252519081900360200190f35b610843600480360360a081101561079657600080fd5b8101906020810181356401000000008111156107b157600080fd5b8201836020820111156107c357600080fd5b803590602001918460018302840111640100000000831117156107e557600080fd5b91908080601f016020809104026020016040519081016040528093929190818152602001838380828437600092019190915250929550506001600160a01b0383358116945060208401351692604081013592506060013590506110f2565b604080519115158252519081900360200190f35b6104ae61122e565b6108436004803603602081101561087557600080fd5b50356001600160a01b031661123d565b6102fe6004803603602081101561089b57600080fd5b503561125b565b61074b600480360360a08110156108b857600080fd5b6001600160a01b03823581169260208101359091169160408201359160608101359181019060a0810160808201356401000000008111156108f857600080fd5b82018360208201111561090a57600080fd5b8035906020019184600183028401116401000000008311171561092c57600080fd5b5090925090506112bf565b6109418e8d6112ea565b610a388d8d8d8d80806020026020016040519081016040528093929190818152602001838360200280828437600081840152601f19601f820116905080830192505050505050508c8c8c80806020026020016040519081016040528093929190818152602001838360200280828437600081840152601f19601f820116905080830192505050505050508b8b8080602002602001604051908101604052809392919081815260200183836020028082843760009201919091525050604080516020601f8d018190048102820181019092528b815292508b91508a908190840183828082843760009201919091525061144d92505050565b610a8c8e8c8c6003818110610a4957fe5b9050602002013586868080601f0160208091040260200160405190810160405280939291908181526020018383808284376000920191909152506117d092505050565b610aca8e8e8d8d8080602002602001604051908101604052809392919081815260200183836020028082843760009201919091525061182192505050565b610b078d898980806020026020016040519081016040528093929190818152602001838360200280828437600092019190915250611c1292505050565b5050505050505050505050505050565b7f000000000000000000000000000000000000000000000000000000000000000090565b7f000000000000000000000000000000000000000000000000000000000000000090565b6000546001600160a01b03163314610bbe576040805162461bcd60e51b815260206004820152601060248201527f53656e646572206e6f742061646d696e00000000000000000000000000000000604482015290519081900360640190fd5b600554600280546001600160a01b03908116600090815260046020526040902042909301909255805473ffffffffffffffffffffffffffffffffffffffff191692909116919091179055565b606060008060008060606000806000808a80602001905160a0811015610c2f57600080fd5b8101908080516040519392919084640100000000821115610c4f57600080fd5b908301906020820185811115610c6457600080fd5b8251640100000000811182820188101715610c7e57600080fd5b82525081516020918201929091019080838360005b83811015610cab578181015183820152602001610c93565b50505050905090810190601f168015610cd85780820380516001836020036101000a031916815260200191505b5060409081526020820151908201516060830151608090930151959f50909d509b5099509197505050505050505091939590929450565b6000546001600160a01b031690565b60035490565b6000546001600160a01b03163314610d6d5760405162461bcd60e51b815260040180806020018281038252602e8152602001806125a3602e913960400191505060405180910390fd5b610d778282611dd6565b5050565b6000546001600160a01b03163314610dda576040805162461bcd60e51b815260206004820152601b60248201527f6f6e6c792061646d696e2063616e206368616e67652061646d696e0000000000604482015290519081900360640190fd5b600054604080516001600160a01b039283168152918316602083015280517f7e644d79422f17c01e4894b5f4f588d331ebfa28653d42ae832dc59e38c9798f9281900390910190a16000805473ffffffffffffffffffffffffffffffffffffffff19166001600160a01b0392909216919091179055565b6000546001600160a01b03163314610eb0576040805162461bcd60e51b815260206004820152600e60248201527f4e4f545f415554484f52495a4544000000000000000000000000000000000000604482015290519081900360640190fd5b7f00000000000000000000000000000000000000000000000000000000000000006001600160a01b0316632eb2c2d63087878787876040518763ffffffff1660e01b815260040180876001600160a01b03166001600160a01b03168152602001866001600160a01b03166001600160a01b031681526020018060200180602001806020018481038452888882818152602001925060200280828437600083820152601f01601f19169091018581038452868152602090810191508790870280828437600081840152601f19601f8201169050808301925050508481038252600081526020016020019950505050505050505050600060405180830381600087803b158015610fbd57600080fd5b505af1158015610fd1573d6000803e3d6000fd5b505050505050505050565b6001600160a01b038116611037576040805162461bcd60e51b815260206004820152600c60248201527f5a45524f5f414444524553530000000000000000000000000000000000000000604482015290519081900360640190fd5b6000546001600160a01b03163314611096576040805162461bcd60e51b815260206004820152600e60248201527f4e4f545f415554484f52495a4544000000000000000000000000000000000000604482015290519081900360640190fd5b6006805473ffffffffffffffffffffffffffffffffffffffff19166001600160a01b0392909216919091179055565b7fbc197c810000000000000000000000000000000000000000000000000000000098975050505050505050565b60006003548211806111155750836001600160a01b0316856001600160a01b0316145b8061111f57508242115b1561112c57506000611225565b60408051606087811b7fffffffffffffffffffffffffffffffffffffffff0000000000000000000000009081166020808501919091529188901b166034830152604882018690526068808301869052835180840390910181526088830184528051908201207f19457468657265756d205369676e6564204d6573736167653a0a33320000000060a884015260c48084018290528451808503909101815260e490930190935281519101206000906111e39089611e58565b6001600160a01b038116600090815260046020526040902054909150421161121057600192505050611225565b6002546001600160a01b039081169116149150505b95945050505050565b6002546001600160a01b031690565b6001600160a01b031660009081526001602052604090205460ff1690565b6000546001600160a01b031633146112ba576040805162461bcd60e51b815260206004820152601060248201527f53656e646572206e6f742061646d696e00000000000000000000000000000000604482015290519081900360640190fd5b600355565b7ff23a6e61000000000000000000000000000000000000000000000000000000009695505050505050565b7f0000000000000000000000000000000000000000000000000000000000000000421061135e576040805162461bcd60e51b815260206004820152600c60248201527f53414c455f49535f4f5645520000000000000000000000000000000000000000604482015290519081900360640190fd5b6001600160a01b03821633148061138457503360009081526001602052604090205460ff165b6113d5576040805162461bcd60e51b815260206004820152600e60248201527f4e4f545f415554484f52495a4544000000000000000000000000000000000000604482015290519081900360640190fd5b6001600160a01b03811615806113fc5750816001600160a01b0316816001600160a01b0316145b610d77576040805162461bcd60e51b815260206004820152600d60248201527f52455345525645445f4c414e4400000000000000000000000000000000000000604482015290519081900360640190fd5b600087878760008151811061145e57fe5b60200260200101518860018151811061147357fe5b60200260200101518960028151811061148857fe5b60200260200101518a60038151811061149d57fe5b60200260200101518a8a60405160200180828051906020019060200280838360005b838110156114d75781810151838201526020016114bf565b50505050905001915050604051602081830303815290604052805190602001208a60405160200180828051906020019060200280838360005b83811015611528578181015183820152602001611510565b5050505090500191505060405160208183030381529060405280519060200120604051602001808a6001600160a01b03166001600160a01b031660601b8152601401896001600160a01b03166001600160a01b031660601b81526014018881526020018781526020018681526020018581526020018481526020018381526020018281526020019950505050505050505050604051602081830303815290604052805190602001209050600760009054906101000a90046001600160a01b03166001600160a01b031663012847ed83836040518363ffffffff1660e01b81526004018080602001838152602001828103825284818151815260200191508051906020019080838360005b8381101561164a578181015183820152602001611632565b50505050905090810190601f1680156116775780820380516001836020036101000a031916815260200191505b50935050505060206040518083038186803b15801561169557600080fd5b505afa1580156116a9573d6000803e3d6000fd5b505050506040513d60208110156116bf57600080fd5b5051611712576040805162461bcd60e51b815260206004820152600c60248201527f494e56414c49445f415554480000000000000000000000000000000000000000604482015290519081900360640190fd5b60006117738760008151811061172457fe5b60200260200101518860018151811061173957fe5b60200260200101518960028151811061174e57fe5b60200260200101518a60038151811061176357fe5b60200260200101518c8b8b611f25565b905061177f8482611fca565b610fd1576040805162461bcd60e51b815260206004820152600c60248201527f494e56414c49445f4c414e440000000000000000000000000000000000000000604482015290519081900360640190fd5b60006117dc8484612095565b60065490915061181b908590839085906001600160a01b03167f00000000000000000000000000000000000000000000000000000000000000006121ee565b50505050565b8060028151811061182e57fe5b60200260200101516001148061186b57507f00000000000000000000000000000000000000000000000000000000000000006001600160a01b0316155b1561196d577f00000000000000000000000000000000000000000000000000000000000000006001600160a01b0316636e1e3bbf83836002815181106118ad57fe5b6020026020010151846000815181106118c257fe5b6020026020010151856001815181106118d757fe5b60200260200101516040518563ffffffff1660e01b815260040180856001600160a01b03166001600160a01b031681526020018481526020018381526020018281526020018060200182810382526000815260200160200195505050505050600060405180830381600087803b15801561195057600080fd5b505af1158015611964573d6000803e3d6000fd5b50505050611b0d565b7f00000000000000000000000000000000000000000000000000000000000000006001600160a01b0316636e1e3bbf7f0000000000000000000000000000000000000000000000000000000000000000836002815181106119ca57fe5b6020026020010151846000815181106119df57fe5b6020026020010151856001815181106119f457fe5b60200260200101518760405160200180826001600160a01b03166001600160a01b031681526020019150506040516020818303038152906040526040518663ffffffff1660e01b815260040180866001600160a01b03166001600160a01b0316815260200185815260200184815260200183815260200180602001828103825283818151815260200191508051906020019080838360005b83811015611aa4578181015183820152602001611a8c565b50505050905090810190601f168015611ad15780820380516001836020036101000a031916815260200191505b509650505050505050600060405180830381600087803b158015611af457600080fd5b505af1158015611b08573d6000803e3d6000fd5b505050505b61019881600181518110611b1d57fe5b60200260200101510281600081518110611b3357fe5b602002602001015101826001600160a01b0316846001600160a01b03167fe4dfa6ac11314892f3029b34a25b1a887da3b1cab2bbf8506d87128ba6e3ac0284600281518110611b7e57fe5b602002602001015185600381518110611b9357fe5b60200260200101517f000000000000000000000000000000000000000000000000000000000000000087600381518110611bc957fe5b602002602001015160405180858152602001848152602001836001600160a01b03166001600160a01b0316815260200182815260200194505050505060405180910390a4505050565b6060815167ffffffffffffffff81118015611c2c57600080fd5b50604051908082528060200260200182016040528015611c56578160200160208202803683370190505b50905060005b8251811015611c86576001828281518110611c7357fe5b6020908102919091010152600101611c5c565b507f00000000000000000000000000000000000000000000000000000000000000006001600160a01b0316632eb2c2d6308585856040518563ffffffff1660e01b815260040180856001600160a01b03166001600160a01b03168152602001846001600160a01b03166001600160a01b03168152602001806020018060200180602001848103845286818151815260200191508051906020019060200280838360005b83811015611d41578181015183820152602001611d29565b50505050905001848103835285818151815260200191508051906020019060200280838360005b83811015611d80578181015183820152602001611d68565b50505050905001848103825260008152602001602001975050505050505050600060405180830381600087803b158015611db957600080fd5b505af1158015611dcd573d6000803e3d6000fd5b50505050505050565b6001600160a01b03821660008181526001602090815260409182902080547fffffffffffffffffffffffffffffffffffffffffffffffffffffffffffffff001685151590811790915582519384529083015280517fb21eb88b4e33b3f1281830a7178d74d8aa73220416215726b68ae23d539515cb9281900390910190a15050565b60008151604114611e6857600080fd5b60208201516040830151606084015160001a601b811015611e8757601b015b8060ff16601b1480611e9c57508060ff16601c145b611ea557600080fd5b6040805160008152602080820180845289905260ff8416828401526060820186905260808201859052915160019260a0808401939192601f1981019281900390910190855afa158015611efc573d6000803e3d6000fd5b5050604051601f1901519450506001600160a01b038416611f1c57600080fd5b50505092915050565b60008787878787878760405160200180888152602001878152602001868152602001858152602001846001600160a01b03166001600160a01b031660601b8152601401838152602001828051906020019060200280838360005b83811015611f97578181015183820152602001611f7f565b50505050905001975050505050505050604051602081830303815290604052805190602001209050979650505050505050565b600081815b8451811015612069576000858281518110611fe657fe5b602002602001015190508083101561202e5782816040516020018083815260200182815260200192505050604051602081830303815290604052805190602001209250612060565b808360405160200180838152602001828152602001925050506040516020818303038152906040528051906020012092505b50600101611fcf565b507f00000000000000000000000000000000000000000000000000000000000000001490505b92915050565b6000806120ba60646120ae85600563ffffffff61247016565b9063ffffffff6124e016565b604080516323b872dd60e01b81526001600160a01b0387811660048301527f0000000000000000000000000000000000000000000000000000000000000000811660248301526044820184905291519293507f0000000000000000000000000000000000000000000000000000000000000000909116916323b872dd916064808201926020929091908290030181600087803b15801561215957600080fd5b505af115801561216d573d6000803e3d6000fd5b505050506040513d602081101561218357600080fd5b50516121d6576040805162461bcd60e51b815260206004820152601360248201527f4645455f5452414e534645525f4641494c454400000000000000000000000000604482015290519081900360640190fd5b6121e6838263ffffffff61254516565b949350505050565b8251819085901561239857606060008060008061220a8a610c0a565b939850919650945092509050600061222586868686866110f2565b156122b35761223f6122378d84612470565b6127106124e0565b9050886001600160a01b0316846001600160a01b0316866001600160a01b03167fac7a699eb95c3c6d390ec4626de17ef9a67b35891efdb197beba7c7fdd45fac48f858760405180848152602001838152602001828152602001935050505060405180910390a46122b08782612545565b96505b801561239157604080516323b872dd60e01b81526001600160a01b038f811660048301528781166024830152604482018490529151918a16916323b872dd916064808201926020929091908290030181600087803b15801561231457600080fd5b505af1158015612328573d6000803e3d6000fd5b505050506040513d602081101561233e57600080fd5b5051612391576040805162461bcd60e51b815260206004820152601960248201527f636f6d6d6973696f6e207472616e73666572206661696c656400000000000000604482015290519081900360640190fd5b5050505050505b604080516323b872dd60e01b81526001600160a01b0389811660048301528681166024830152604482018490529151918416916323b872dd916064808201926020929091908290030181600087803b1580156123f357600080fd5b505af1158015612407573d6000803e3d6000fd5b505050506040513d602081101561241d57600080fd5b5051611dcd576040805162461bcd60e51b815260206004820152601760248201527f7061796d656e74207472616e73666572206661696c6564000000000000000000604482015290519081900360640190fd5b60008261247f5750600061208f565b508181028183828161248d57fe5b041461208f576040805162461bcd60e51b815260206004820152600860248201527f6f766572666c6f77000000000000000000000000000000000000000000000000604482015290519081900360640190fd5b600081612534576040805162461bcd60e51b815260206004820152600960248201527f64697662797a65726f0000000000000000000000000000000000000000000000604482015290519081900360640190fd5b81838161253d57fe5b049392505050565b60008282111561259c576040805162461bcd60e51b815260206004820152600860248201527f756e6465666c6f77000000000000000000000000000000000000000000000000604482015290519081900360640190fd5b5090039056fe6f6e6c792061646d696e2063616e207365747570206d6574615472616e73616374696f6e50726f636573736f7273a2646970667358221220fc9205bafc138c1de206481f144dc3e7818922fbe1a20d2a71392e5e2e413c1a64736f6c63430006050033",
  "devdoc": {
    "methods": {
      "buyLandWithSand(address,address,address,uint256[],bytes32,uint256[],bytes32[],bytes,bytes)": {
        "params": {
          "buyer": "address that perform the payment",
          "info": "[X_INDEX=0] x coordinate of the Land [Y_INDEX=1] y coordinate of the Land [SIZE_INDEX=2] size of the pack of Land to purchase [PRICE_INDEX=3] price in SAND to purchase that Land",
          "proof": "merkleProof for that particular Land",
          "reserved": "the reserved address (if any)",
          "to": "address that will own the purchased Land"
        }
      },
      "changeAdmin(address)": {
        "details": "change the administrator to be `newAdmin`.",
        "params": {
          "newAdmin": "address of the new administrator."
        }
      },
      "getAdmin()": {
        "details": "gives the current administrator of this contract.",
        "returns": {
          "_0": "the current administrator of this contract."
        }
      },
      "getSigningWallet()": {
        "details": "signing wallet authorized for referral",
        "returns": {
          "_0": "the address of the signing wallet"
        }
      },
      "isMetaTransactionProcessor(address)": {
        "details": "check whether address `who` is given meta-transaction execution rights.",
        "params": {
          "who": "The address to query."
        },
        "returns": {
          "_0": "whether the address has meta-transaction execution rights."
        }
      },
      "isReferralValid(bytes,address,address,uint256,uint256)": {
        "params": {
          "commissionRate": "The commissionRate of the referral",
          "expiryTime": "The expiry time of the referral",
          "referee": "The address of the referee",
          "referrer": "The address of the referrer",
          "signature": "The signature to check (signed referral)"
        },
        "returns": {
          "_0": "True if the referral is valid"
        }
      },
      "setMetaTransactionProcessor(address,bool)": {
        "details": "Enable or disable the ability of `metaTransactionProcessor` to perform meta-tx (metaTransactionProcessor rights).",
        "params": {
          "enabled": "set whether the metaTransactionProcessor is enabled or disabled.",
          "metaTransactionProcessor": "address that will be given/removed metaTransactionProcessor rights."
        }
      },
      "setReceivingWallet(address)": {
        "params": {
          "newWallet": "address of the new receiving wallet"
        }
      },
      "updateMaxCommissionRate(uint256)": {
        "details": "Update the maximum commission rate",
        "params": {
          "newMaxCommissionRate": "The new maximum commission rate"
        }
      },
      "updateSigningWallet(address)": {
        "details": "Update the signing wallet",
        "params": {
          "newSigningWallet": "The new address of the signing wallet"
        }
      },
      "withdrawAssets(address,uint256[],uint256[])": {
        "params": {
          "assetIds": "the assetIds to be transferred",
          "to": "intended recipient of the asset tokens",
          "values": "the quantities of the assetIds to be transferred"
        }
      }
    },
    "title": "Estate Sale contract with referral"
  },
  "userdoc": {
    "methods": {
      "buyLandWithSand(address,address,address,uint256[],bytes32,uint256[],bytes32[],bytes,bytes)": {
        "notice": "buy Land with SAND using the merkle proof associated with it"
      },
      "getExpiryTime()": {
        "notice": "Gets the expiry time for the current sale"
      },
      "getMaxCommisionRate()": {
        "notice": "the max commision rate"
      },
      "getMerkleRoot()": {
        "notice": "Gets the Merkle root associated with the current sale"
      },
      "isReferralValid(bytes,address,address,uint256,uint256)": {
        "notice": "Check if a referral is valid"
      },
      "setReceivingWallet(address)": {
        "notice": "set the wallet receiving the proceeds"
      },
      "withdrawAssets(address,uint256[],uint256[])": {
        "notice": "enable Admin to withdraw remaining assets from EstateSaleWithFee contract"
      }
    },
    "notice": "This contract manages the sale of our lands as Estates"
  },
  "storageLayout": {
    "storage": [
      {
        "astId": 13650,
        "contract": "src/solc_0.6/EstateSale/EstateSaleWithAuth.sol:EstateSaleWithAuth",
        "label": "_admin",
        "offset": 0,
        "slot": "0",
        "type": "t_address"
      },
      {
        "astId": 13712,
        "contract": "src/solc_0.6/EstateSale/EstateSaleWithAuth.sol:EstateSaleWithAuth",
        "label": "_metaTransactionContracts",
        "offset": 0,
        "slot": "1",
        "type": "t_mapping(t_address,t_bool)"
      },
      {
        "astId": 11828,
        "contract": "src/solc_0.6/EstateSale/EstateSaleWithAuth.sol:EstateSaleWithAuth",
        "label": "_signingWallet",
        "offset": 0,
        "slot": "2",
        "type": "t_address"
      },
      {
        "astId": 11830,
        "contract": "src/solc_0.6/EstateSale/EstateSaleWithAuth.sol:EstateSaleWithAuth",
        "label": "_maxCommissionRate",
        "offset": 0,
        "slot": "3",
        "type": "t_uint256"
      },
      {
        "astId": 11834,
        "contract": "src/solc_0.6/EstateSale/EstateSaleWithAuth.sol:EstateSaleWithAuth",
        "label": "_previousSigningWallets",
        "offset": 0,
        "slot": "4",
        "type": "t_mapping(t_address,t_uint256)"
      },
      {
        "astId": 11843,
        "contract": "src/solc_0.6/EstateSale/EstateSaleWithAuth.sol:EstateSaleWithAuth",
        "label": "_previousSigningDelay",
        "offset": 0,
        "slot": "5",
        "type": "t_uint256"
      },
      {
        "astId": 7453,
        "contract": "src/solc_0.6/EstateSale/EstateSaleWithAuth.sol:EstateSaleWithAuth",
        "label": "_wallet",
        "offset": 0,
        "slot": "6",
        "type": "t_address_payable"
      },
      {
        "astId": 7455,
        "contract": "src/solc_0.6/EstateSale/EstateSaleWithAuth.sol:EstateSaleWithAuth",
        "label": "_authValidator",
        "offset": 0,
        "slot": "7",
        "type": "t_contract(AuthValidator)6784"
      }
    ],
    "types": {
      "t_address": {
        "encoding": "inplace",
        "label": "address",
        "numberOfBytes": "20"
      },
      "t_address_payable": {
        "encoding": "inplace",
        "label": "address payable",
        "numberOfBytes": "20"
      },
      "t_bool": {
        "encoding": "inplace",
        "label": "bool",
        "numberOfBytes": "1"
      },
      "t_contract(AuthValidator)6784": {
        "encoding": "inplace",
        "label": "contract AuthValidator",
        "numberOfBytes": "20"
      },
      "t_mapping(t_address,t_bool)": {
        "encoding": "mapping",
        "key": "t_address",
        "label": "mapping(address => bool)",
        "numberOfBytes": "32",
        "value": "t_bool"
      },
      "t_mapping(t_address,t_uint256)": {
        "encoding": "mapping",
        "key": "t_address",
        "label": "mapping(address => uint256)",
        "numberOfBytes": "32",
        "value": "t_uint256"
      },
      "t_uint256": {
        "encoding": "inplace",
        "label": "uint256",
        "numberOfBytes": "32"
      }
    }
  }
}