{
  "address": "0xf635e1abF7e27307Af12116d601c920cE6e34EeB",
  "abi": [
    {
      "inputs": [
        {
          "internalType": "address",
          "name": "landAddress",
          "type": "address"
        },
        {
          "internalType": "address",
          "name": "sandContractAddress",
          "type": "address"
        },
        {
          "internalType": "address",
          "name": "initialMetaTx",
          "type": "address"
        },
        {
          "internalType": "address",
          "name": "admin",
          "type": "address"
        },
        {
          "internalType": "address payable",
          "name": "initialWalletAddress",
          "type": "address"
        },
        {
          "internalType": "bytes32",
          "name": "merkleRoot",
          "type": "bytes32"
        },
        {
          "internalType": "uint256",
          "name": "expiryTime",
          "type": "uint256"
        },
        {
          "internalType": "address",
          "name": "initialSigningWallet",
          "type": "address"
        },
        {
          "internalType": "uint256",
          "name": "initialMaxCommissionRate",
          "type": "uint256"
        },
        {
          "internalType": "address",
          "name": "estate",
          "type": "address"
        },
        {
          "internalType": "address",
          "name": "asset",
          "type": "address"
        },
        {
          "internalType": "address",
          "name": "feeDistributor",
          "type": "address"
        },
        {
          "internalType": "address",
          "name": "authValidator",
          "type": "address"
        }
      ],
      "stateMutability": "nonpayable",
      "type": "constructor"
    },
    {
      "anonymous": false,
      "inputs": [
        {
          "indexed": false,
          "internalType": "address",
          "name": "oldAdmin",
          "type": "address"
        },
        {
          "indexed": false,
          "internalType": "address",
          "name": "newAdmin",
          "type": "address"
        }
      ],
      "name": "AdminChanged",
      "type": "event"
    },
    {
      "anonymous": false,
      "inputs": [
        {
          "indexed": true,
          "internalType": "address",
          "name": "buyer",
          "type": "address"
        },
        {
          "indexed": true,
          "internalType": "address",
          "name": "to",
          "type": "address"
        },
        {
          "indexed": true,
          "internalType": "uint256",
          "name": "topCornerId",
          "type": "uint256"
        },
        {
          "indexed": false,
          "internalType": "uint256",
          "name": "size",
          "type": "uint256"
        },
        {
          "indexed": false,
          "internalType": "uint256",
          "name": "price",
          "type": "uint256"
        },
        {
          "indexed": false,
          "internalType": "address",
          "name": "token",
          "type": "address"
        },
        {
          "indexed": false,
          "internalType": "uint256",
          "name": "amountPaid",
          "type": "uint256"
        }
      ],
      "name": "LandQuadPurchased",
      "type": "event"
    },
    {
      "anonymous": false,
      "inputs": [
        {
          "indexed": false,
          "internalType": "address",
          "name": "metaTransactionProcessor",
          "type": "address"
        },
        {
          "indexed": false,
          "internalType": "bool",
          "name": "enabled",
          "type": "bool"
        }
      ],
      "name": "MetaTransactionProcessor",
      "type": "event"
    },
    {
      "anonymous": false,
      "inputs": [
        {
          "indexed": true,
          "internalType": "address",
          "name": "referrer",
          "type": "address"
        },
        {
          "indexed": true,
          "internalType": "address",
          "name": "referee",
          "type": "address"
        },
        {
          "indexed": true,
          "internalType": "address",
          "name": "token",
          "type": "address"
        },
        {
          "indexed": false,
          "internalType": "uint256",
          "name": "amount",
          "type": "uint256"
        },
        {
          "indexed": false,
          "internalType": "uint256",
          "name": "commission",
          "type": "uint256"
        },
        {
          "indexed": false,
          "internalType": "uint256",
          "name": "commissionRate",
          "type": "uint256"
        }
      ],
      "name": "ReferralUsed",
      "type": "event"
    },
    {
      "inputs": [
        {
          "internalType": "address",
          "name": "buyer",
          "type": "address"
        },
        {
          "internalType": "address",
          "name": "to",
          "type": "address"
        },
        {
          "internalType": "address",
          "name": "reserved",
          "type": "address"
        },
        {
          "internalType": "uint256[]",
          "name": "info",
          "type": "uint256[]"
        },
        {
          "internalType": "bytes32",
          "name": "salt",
          "type": "bytes32"
        },
        {
          "internalType": "uint256[]",
          "name": "assetIds",
          "type": "uint256[]"
        },
        {
          "internalType": "bytes32[]",
          "name": "proof",
          "type": "bytes32[]"
        },
        {
          "internalType": "bytes",
          "name": "referral",
          "type": "bytes"
        },
        {
          "internalType": "bytes",
          "name": "signature",
          "type": "bytes"
        }
      ],
      "name": "buyLandWithSand",
      "outputs": [],
      "stateMutability": "nonpayable",
      "type": "function"
    },
    {
      "inputs": [
        {
          "internalType": "address",
          "name": "newAdmin",
          "type": "address"
        }
      ],
      "name": "changeAdmin",
      "outputs": [],
      "stateMutability": "nonpayable",
      "type": "function"
    },
    {
      "inputs": [
        {
          "internalType": "bytes",
          "name": "referral",
          "type": "bytes"
        }
      ],
      "name": "decodeReferral",
      "outputs": [
        {
          "internalType": "bytes",
          "name": "",
          "type": "bytes"
        },
        {
          "internalType": "address",
          "name": "",
          "type": "address"
        },
        {
          "internalType": "address",
          "name": "",
          "type": "address"
        },
        {
          "internalType": "uint256",
          "name": "",
          "type": "uint256"
        },
        {
          "internalType": "uint256",
          "name": "",
          "type": "uint256"
        }
      ],
      "stateMutability": "pure",
      "type": "function"
    },
    {
      "inputs": [],
      "name": "getAdmin",
      "outputs": [
        {
          "internalType": "address",
          "name": "",
          "type": "address"
        }
      ],
      "stateMutability": "view",
      "type": "function"
    },
    {
      "inputs": [],
      "name": "getExpiryTime",
      "outputs": [
        {
          "internalType": "uint256",
          "name": "",
          "type": "uint256"
        }
      ],
      "stateMutability": "view",
      "type": "function"
    },
    {
      "inputs": [],
      "name": "getMaxCommisionRate",
      "outputs": [
        {
          "internalType": "uint256",
          "name": "",
          "type": "uint256"
        }
      ],
      "stateMutability": "view",
      "type": "function"
    },
    {
      "inputs": [],
      "name": "getMerkleRoot",
      "outputs": [
        {
          "internalType": "bytes32",
          "name": "",
          "type": "bytes32"
        }
      ],
      "stateMutability": "view",
      "type": "function"
    },
    {
      "inputs": [],
      "name": "getSigningWallet",
      "outputs": [
        {
          "internalType": "address",
          "name": "",
          "type": "address"
        }
      ],
      "stateMutability": "view",
      "type": "function"
    },
    {
      "inputs": [
        {
          "internalType": "address",
          "name": "who",
          "type": "address"
        }
      ],
      "name": "isMetaTransactionProcessor",
      "outputs": [
        {
          "internalType": "bool",
          "name": "",
          "type": "bool"
        }
      ],
      "stateMutability": "view",
      "type": "function"
    },
    {
      "inputs": [
        {
          "internalType": "bytes",
          "name": "signature",
          "type": "bytes"
        },
        {
          "internalType": "address",
          "name": "referrer",
          "type": "address"
        },
        {
          "internalType": "address",
          "name": "referee",
          "type": "address"
        },
        {
          "internalType": "uint256",
          "name": "expiryTime",
          "type": "uint256"
        },
        {
          "internalType": "uint256",
          "name": "commissionRate",
          "type": "uint256"
        }
      ],
      "name": "isReferralValid",
      "outputs": [
        {
          "internalType": "bool",
          "name": "",
          "type": "bool"
        }
      ],
      "stateMutability": "view",
      "type": "function"
    },
    {
      "inputs": [
        {
          "internalType": "address",
          "name": "",
          "type": "address"
        },
        {
          "internalType": "address",
          "name": "",
          "type": "address"
        },
        {
          "internalType": "uint256[]",
          "name": "",
          "type": "uint256[]"
        },
        {
          "internalType": "uint256[]",
          "name": "",
          "type": "uint256[]"
        },
        {
          "internalType": "bytes",
          "name": "",
          "type": "bytes"
        }
      ],
      "name": "onERC1155BatchReceived",
      "outputs": [
        {
          "internalType": "bytes4",
          "name": "",
          "type": "bytes4"
        }
      ],
      "stateMutability": "pure",
      "type": "function"
    },
    {
      "inputs": [
        {
          "internalType": "address",
          "name": "",
          "type": "address"
        },
        {
          "internalType": "address",
          "name": "",
          "type": "address"
        },
        {
          "internalType": "uint256",
          "name": "",
          "type": "uint256"
        },
        {
          "internalType": "uint256",
          "name": "",
          "type": "uint256"
        },
        {
          "internalType": "bytes",
          "name": "",
          "type": "bytes"
        }
      ],
      "name": "onERC1155Received",
      "outputs": [
        {
          "internalType": "bytes4",
          "name": "",
          "type": "bytes4"
        }
      ],
      "stateMutability": "pure",
      "type": "function"
    },
    {
      "inputs": [
        {
          "internalType": "address",
          "name": "metaTransactionProcessor",
          "type": "address"
        },
        {
          "internalType": "bool",
          "name": "enabled",
          "type": "bool"
        }
      ],
      "name": "setMetaTransactionProcessor",
      "outputs": [],
      "stateMutability": "nonpayable",
      "type": "function"
    },
    {
      "inputs": [
        {
          "internalType": "address payable",
          "name": "newWallet",
          "type": "address"
        }
      ],
      "name": "setReceivingWallet",
      "outputs": [],
      "stateMutability": "nonpayable",
      "type": "function"
    },
    {
      "inputs": [
        {
          "internalType": "uint256",
          "name": "newMaxCommissionRate",
          "type": "uint256"
        }
      ],
      "name": "updateMaxCommissionRate",
      "outputs": [],
      "stateMutability": "nonpayable",
      "type": "function"
    },
    {
      "inputs": [
        {
          "internalType": "address",
          "name": "newSigningWallet",
          "type": "address"
        }
      ],
      "name": "updateSigningWallet",
      "outputs": [],
      "stateMutability": "nonpayable",
      "type": "function"
    },
    {
      "inputs": [
        {
          "internalType": "address",
          "name": "to",
          "type": "address"
        },
        {
          "internalType": "uint256[]",
          "name": "assetIds",
          "type": "uint256[]"
        },
        {
          "internalType": "uint256[]",
          "name": "values",
          "type": "uint256[]"
        }
      ],
      "name": "withdrawAssets",
      "outputs": [],
      "stateMutability": "nonpayable",
      "type": "function"
    }
  ],
  "transactionHash": "0x23edb14e88e5de089a25b3c22064c03b3dd57903bbab86403a9685b263370c88",
  "args": [
    "0xaF40A483bF77AAb7b7D13dB18187E6D62C1EA41b",
    "0xCc933a862fc15379E441F2A16Cb943D385a4695f",
    "0xCc933a862fc15379E441F2A16Cb943D385a4695f",
    "0xa4519D601F43D0b8f167842a367465681F652252",
    "0x60927eB036621b801491B6c5e9A60A8d2dEeD75A",
    "0x02a3cdd3fde3016ab888e4f58a946c26f166a37eb72dc0a4ade558c90d8f9f0f",
    1671800400,
    "0xB7060D3FeCAC3AE1F0A0AA416E3e8E472257950e",
    2000,
    "0x0000000000000000000000000000000000000000",
    "0x8055a2c0f7EB177BeaB357B70E6504402d2b5fF6",
    "0x5983532A5b9009E05428595b87F19e42068a232B",
    "0x94cA164E3d7B13700eC356a1540f7Ae7c239A2b3"
  ],
  "linkedData": [
    {
      "x": 186,
      "y": 135,
      "size": 1,
      "price": "1011000000000000000000",
      "reserved": "",
      "salt": "0x5b37b5da5a75bae789a5d8360e67e43e4d66293cb44bdca9a8032f59dfdda795",
      "assetIds": []
    },
    {
      "x": 186,
      "y": 136,
      "size": 1,
      "price": "4683000000000000000000",
      "reserved": "",
      "salt": "0x29579c43cda888bf7e795c607e8cdd357a4fe2d97355a1098f8c688e9851c201",
      "assetIds": [
        "41506478881403507969696680653240014914910929820314476107906210059990541021186"
      ]
    },
    {
      "x": 186,
      "y": 137,
      "size": 1,
      "price": "4683000000000000000000",
      "reserved": "",
      "salt": "0x88a5bdece4ae02b280ece584a7051ed060bf3906fb4f41b9dd3ad61e803595f8",
      "assetIds": [
        "41506478881403507969696680653240014914910929820314476107906210059990541021186"
      ]
    },
    {
      "x": 186,
      "y": 144,
      "size": 1,
      "price": "4683000000000000000000",
      "reserved": "",
      "salt": "0xa10c6cb54bc24ea7dc9104748f220a1ecae60a83c42960300a47cea768bc0fdc",
      "assetIds": [
        "41506478881403507969696680653240014914910929820314476107906210059990541021186"
      ]
    },
    {
      "x": 186,
      "y": 145,
      "size": 1,
      "price": "4683000000000000000000",
      "reserved": "",
      "salt": "0x437179cd621d9dba6be22333a37e011f669f2d732de888d740938400fa6c45bc",
      "assetIds": [
        "41506478881403507969696680653240014914910929820314476107906210059990541021186"
      ]
    },
    {
      "x": 186,
      "y": 146,
      "size": 1,
      "price": "1011000000000000000000",
      "reserved": "",
      "salt": "0x0780eee92d600780c7fb88eecaba6e131d7006c9bd7038af772acd6494a04012",
      "assetIds": []
    },
    {
      "x": 187,
      "y": 135,
      "size": 1,
      "price": "1011000000000000000000",
      "reserved": "",
      "salt": "0x83148e2b95779a2923cae11d16f5d54babe836cd7631da6c92f5359aad1220b2",
      "assetIds": []
    },
    {
      "x": 187,
      "y": 136,
      "size": 1,
      "price": "4683000000000000000000",
      "reserved": "",
      "salt": "0x043c14a8f55272cfa14fe5973e666ae5936f1b8798a0e10b335aadc05fa0df68",
      "assetIds": [
        "41506478881403507969696680653240014914910929820314476107906210059990541021186"
      ]
    },
    {
      "x": 187,
      "y": 137,
      "size": 1,
      "price": "4683000000000000000000",
      "reserved": "",
      "salt": "0xbcca97bb922e598866012de35b73d232099251204527718ff6ba88cfd0a03395",
      "assetIds": [
        "41506478881403507969696680653240014914910929820314476107906210059990541021186"
      ]
    },
    {
      "x": 187,
      "y": 144,
      "size": 1,
      "price": "4683000000000000000000",
      "reserved": "",
      "salt": "0x6fe6aa0d198ddf3fcbfa949b41ff2f61b5aa78ef5d647e7156a9f3dc6624bb2d",
      "assetIds": [
        "41506478881403507969696680653240014914910929820314476107906210059990541021186"
      ]
    },
    {
      "x": 187,
      "y": 145,
      "size": 1,
      "price": "4683000000000000000000",
      "reserved": "",
      "salt": "0x43baff11a1bbe5811db3e358bbbdb145989baeb576a1e457a954324c6f580bad",
      "assetIds": [
        "41506478881403507969696680653240014914910929820314476107906210059990541021186"
      ]
    },
    {
      "x": 187,
      "y": 146,
      "size": 1,
      "price": "1011000000000000000000",
      "reserved": "",
      "salt": "0x6bf3712bbc8b44b307cd63ad2c77f21fbdd07384736ce2e2cf26b6937432e1e2",
      "assetIds": []
    },
    {
      "x": 188,
      "y": 135,
      "size": 1,
      "price": "1011000000000000000000",
      "reserved": "",
      "salt": "0x56a14e98137164ea6865cdaa573817c4d2576582a960a2bff7867cf662b2bedc",
      "assetIds": []
    },
    {
      "x": 188,
      "y": 136,
      "size": 1,
      "price": "4683000000000000000000",
      "reserved": "",
      "salt": "0x5fee210ac61f21d6490fab5e1fb56578985c4cc8cf6af8eab9e8ac3d5452bfac",
      "assetIds": [
        "41506478881403507969696680653240014914910929820314476107906210059990541021186"
      ]
    },
    {
      "x": 188,
      "y": 137,
      "size": 1,
      "price": "4683000000000000000000",
      "reserved": "",
      "salt": "0x49e540a35c60d013f483409a3a934eb911ad85a489ad53243091ee5d899c56c3",
      "assetIds": [
        "41506478881403507969696680653240014914910929820314476107906210059990541021186"
      ]
    },
    {
      "x": 188,
      "y": 144,
      "size": 1,
      "price": "4683000000000000000000",
      "reserved": "",
      "salt": "0x4e2130a2d4367cf137920a703fd187a7488f6784df9287ba25fb2b94cf5577a3",
      "assetIds": [
        "41506478881403507969696680653240014914910929820314476107906210059990541021186"
      ]
    },
    {
      "x": 188,
      "y": 145,
      "size": 1,
      "price": "4683000000000000000000",
      "reserved": "",
      "salt": "0xc37dc1d2ec3a16d2f347b56527f4f44d1d8fe7b84edc094a22fb9d74e0093737",
      "assetIds": [
        "41506478881403507969696680653240014914910929820314476107906210059990541021186"
      ]
    },
    {
      "x": 188,
      "y": 146,
      "size": 1,
      "price": "1011000000000000000000",
      "reserved": "",
      "salt": "0x9572877c816c609d8525fc6f2cfa1e4073e519e28ff2f47c755a0d88dfd9e1d8",
      "assetIds": []
    },
    {
      "x": 189,
      "y": 132,
      "size": 1,
      "price": "1011000000000000000000",
      "reserved": "",
      "salt": "0x04dd4f460c8d44042c803fec41a0b7e7fd608d4f4866cb80295881cca8cb162b",
      "assetIds": []
    },
    {
      "x": 189,
      "y": 133,
      "size": 1,
      "price": "1011000000000000000000",
      "reserved": "",
      "salt": "0x1bb55850040b39a9c9f4ad279c261ea4c8a567c6f789f8fb0dd083749a63e29a",
      "assetIds": []
    },
    {
      "x": 189,
      "y": 134,
      "size": 1,
      "price": "1011000000000000000000",
      "reserved": "",
      "salt": "0x8007b055ef48d1dd52bab22c35e4edbfae5e2e9d25a17df80eec1c579612423b",
      "assetIds": []
    },
    {
      "x": 189,
      "y": 135,
      "size": 1,
      "price": "1011000000000000000000",
      "reserved": "",
      "salt": "0xb4852e170474e78c88b4f030211c2f94cb907dc754951576f073f8082bdb1e19",
      "assetIds": []
    },
    {
      "x": 189,
      "y": 136,
      "size": 1,
      "price": "4683000000000000000000",
      "reserved": "",
      "salt": "0xe6cc47e19286e82fb37d047be50ce0199af1eb0dc29b0ba67ec9dfd7425f64a7",
      "assetIds": [
        "41506478881403507969696680653240014914910929820314476107906210059990541021186"
      ]
    },
    {
      "x": 189,
      "y": 137,
      "size": 1,
      "price": "4683000000000000000000",
      "reserved": "",
      "salt": "0x9498de4b1997fb0143539a04f4801297ba909eacb20d7111b7e40b4a1b191218",
      "assetIds": [
        "41506478881403507969696680653240014914910929820314476107906210059990541021186"
      ]
    },
    {
      "x": 189,
      "y": 144,
      "size": 1,
      "price": "4683000000000000000000",
      "reserved": "",
      "salt": "0x15f529cb3f83e93cf02b710b73ddc1146404dfc294ba5ac5f472f0bf6c092bb1",
      "assetIds": [
        "41506478881403507969696680653240014914910929820314476107906210059990541021186"
      ]
    },
    {
      "x": 189,
      "y": 145,
      "size": 1,
      "price": "4683000000000000000000",
      "reserved": "",
      "salt": "0x51be391bd2ba292382ffca0639fd2a99cea911ab2d0cf9f58d3e50319156eb45",
      "assetIds": [
        "41506478881403507969696680653240014914910929820314476107906210059990541021186"
      ]
    },
    {
      "x": 189,
      "y": 146,
      "size": 1,
      "price": "4683000000000000000000",
      "reserved": "",
      "salt": "0x3429beca0ddd36786becd72582fd09fd665456076d78b48313e39d5f4d608db1",
      "assetIds": [
        "41506478881403507969696680653240014914910929820314476107906210059990541021186"
      ]
    },
    {
      "x": 190,
      "y": 132,
      "size": 1,
      "price": "1011000000000000000000",
      "reserved": "",
      "salt": "0x91e6b5d276d868bfbd617813bed80c56c2e341b14b8ef40142074d28198e0e6d",
      "assetIds": []
    },
    {
      "x": 190,
      "y": 133,
      "size": 1,
      "price": "1011000000000000000000",
      "reserved": "",
      "salt": "0x0f62a1912120a23b643f0a2adc15c2d7f1a62afd5dd2b6239901ba39f8bf859d",
      "assetIds": []
    },
    {
      "x": 190,
      "y": 134,
      "size": 1,
      "price": "1011000000000000000000",
      "reserved": "",
      "salt": "0x03b9f7d974003a40b6a55b879d04bd83e6fa53ced9dd984d8b718aecc4a05540",
      "assetIds": []
    },
    {
      "x": 190,
      "y": 135,
      "size": 1,
      "price": "1011000000000000000000",
      "reserved": "",
      "salt": "0x2c70a20bf6fdffa64e43c499439bc09f623cc3077b2c06b1db4569ffe2990b6b",
      "assetIds": []
    },
    {
      "x": 190,
      "y": 136,
      "size": 1,
      "price": "4683000000000000000000",
      "reserved": "",
      "salt": "0xb4a9596a13a85658ca976dd9da328962177b1a343a0b9399475892f5d190cde3",
      "assetIds": [
        "41506478881403507969696680653240014914910929820314476107906210059990541021186"
      ]
    },
    {
      "x": 190,
      "y": 137,
      "size": 1,
      "price": "4683000000000000000000",
      "reserved": "",
      "salt": "0xbefc3b2cd783b9c8f4f17264d90e41de35ccc3ce63cf0d48fff0c8bc22177986",
      "assetIds": [
        "41506478881403507969696680653240014914910929820314476107906210059990541021186"
      ]
    },
    {
      "x": 190,
      "y": 144,
      "size": 1,
      "price": "4683000000000000000000",
      "reserved": "",
      "salt": "0x2e1731a04dfde727fa9376b47f9c98e5ff94760db1431de65df3a580f99410bd",
      "assetIds": [
        "41506478881403507969696680653240014914910929820314476107906210059990541021186"
      ]
    },
    {
      "x": 190,
      "y": 145,
      "size": 1,
      "price": "4683000000000000000000",
      "reserved": "",
      "salt": "0xc04761c78c9847991ce29cb891adc3cfba4a816d9305cc40f39a3a3d1f05069d",
      "assetIds": [
        "41506478881403507969696680653240014914910929820314476107906210059990541021186"
      ]
    },
    {
      "x": 190,
      "y": 146,
      "size": 1,
      "price": "4683000000000000000000",
      "reserved": "",
      "salt": "0x90a6780abc1b9f488b1ce63d1efdbc568626de1440dae1b310289c7c2c7b169c",
      "assetIds": [
        "41506478881403507969696680653240014914910929820314476107906210059990541021186"
      ]
    },
    {
      "x": 191,
      "y": 132,
      "size": 1,
      "price": "1011000000000000000000",
      "reserved": "",
      "salt": "0x361920d1f20342ca315f93541debb2a9302d7fd911462a66a5ef10bbff28abb0",
      "assetIds": []
    },
    {
      "x": 191,
      "y": 133,
      "size": 1,
      "price": "1011000000000000000000",
      "reserved": "",
      "salt": "0xfb99443a227d4e50607270fb2af8e4d056b3b2196992dd5370d898eb0f5f604e",
      "assetIds": []
    },
    {
      "x": 191,
      "y": 134,
      "size": 1,
      "price": "1011000000000000000000",
      "reserved": "",
      "salt": "0x4e6cca537b79bb41dd9341fd1d6676914dcd5ddf0626502702e57f40a85719d5",
      "assetIds": []
    },
    {
      "x": 191,
      "y": 135,
      "size": 1,
      "price": "1011000000000000000000",
      "reserved": "",
      "salt": "0xb65cf232ef810dcc254cf33900f04161a26ad2f6762085c424ead1c82470e45d",
      "assetIds": []
    },
    {
      "x": 191,
      "y": 136,
      "size": 1,
      "price": "4683000000000000000000",
      "reserved": "",
      "salt": "0xd41a0a6d27f287a4344481aa2e47beff5d56a4dc11ff8fe156666c844467db02",
      "assetIds": [
        "41506478881403507969696680653240014914910929820314476107906210059990541021186"
      ]
    },
    {
      "x": 191,
      "y": 137,
      "size": 1,
      "price": "4683000000000000000000",
      "reserved": "",
      "salt": "0x1e3c96ba5d2445019ad35f396ee6e6e0fbdaef9282f31ae42b05a2bd899d89aa",
      "assetIds": [
        "41506478881403507969696680653240014914910929820314476107906210059990541021186"
      ]
    },
    {
      "x": 191,
      "y": 144,
      "size": 1,
      "price": "4683000000000000000000",
      "reserved": "",
      "salt": "0x552fe656fcbac39d9ba22a24516beaacb70d263bbf33298ac0b251001deb4035",
      "assetIds": [
        "41506478881403507969696680653240014914910929820314476107906210059990541021186"
      ]
    },
    {
      "x": 191,
      "y": 145,
      "size": 1,
      "price": "4683000000000000000000",
      "reserved": "",
      "salt": "0x0bed69b4828a7e0645b0dd4f3cb78eda48b7722cf0622561b3d59da7a18201eb",
      "assetIds": [
        "41506478881403507969696680653240014914910929820314476107906210059990541021186"
      ]
    },
    {
      "x": 191,
      "y": 146,
      "size": 1,
      "price": "4683000000000000000000",
      "reserved": "",
      "salt": "0x40fb6f1cd724ac591c81ba4b21ae2d28b8d81ef9aa76132dc64a87d633ecec57",
      "assetIds": [
        "41506478881403507969696680653240014914910929820314476107906210059990541021186"
      ]
    },
    {
      "x": 192,
      "y": 132,
      "size": 1,
      "price": "1011000000000000000000",
      "reserved": "",
      "salt": "0xadf9a4476b3a5f777f6c352cbce20e3ff18f14c76a5f15e43b613b98d08c7ddb",
      "assetIds": []
    },
    {
      "x": 192,
      "y": 133,
      "size": 1,
      "price": "1011000000000000000000",
      "reserved": "",
      "salt": "0x5c8ea7e4e1f76432e29b8db6a4a5053c5c1443c61445ee37c1b163348caa7925",
      "assetIds": []
    },
    {
      "x": 192,
      "y": 134,
      "size": 1,
      "price": "1011000000000000000000",
      "reserved": "",
      "salt": "0x36d4558da0b8c2d3468dfb74ce9943d74513c6d5402489cd8fc9c001184676f4",
      "assetIds": []
    },
    {
      "x": 192,
      "y": 135,
      "size": 1,
      "price": "1011000000000000000000",
      "reserved": "",
      "salt": "0xd0eb08d1e1422d50160bee0020c13d2539accb39bf3e3ceca42d8bbc820496b8",
      "assetIds": []
    },
    {
      "x": 192,
      "y": 136,
      "size": 1,
      "price": "1011000000000000000000",
      "reserved": "",
      "salt": "0x7266bea3d8cf1f4bb72f4ffd5392609e8633bbd436771bd455316630422467d5",
      "assetIds": []
    },
    {
      "x": 192,
      "y": 137,
      "size": 1,
      "price": "4683000000000000000000",
      "reserved": "",
      "salt": "0xd25e9c14091f9664d7329f86180ca13f77d63159c95a047f2d13dbe2f674e770",
      "assetIds": [
        "41506478881403507969696680653240014914910929820314476107906210059990541021186"
      ]
    },
    {
      "x": 192,
      "y": 138,
      "size": 1,
      "price": "4683000000000000000000",
      "reserved": "",
      "salt": "0xf6125ecc02164e562fe221e0368bb099370196f95624f33ab6e7fd981c0cd35d",
      "assetIds": [
        "41506478881403507969696680653240014914910929820314476107906210059990541021186"
      ]
    },
    {
      "x": 192,
      "y": 139,
      "size": 1,
      "price": "4683000000000000000000",
      "reserved": "",
      "salt": "0x4485ceaa68e08564eb0daa9baeea5d694d97d3135e93b6ffec66f0d9bf73a466",
      "assetIds": [
        "41506478881403507969696680653240014914910929820314476107906210059990541021186"
      ]
    },
    {
      "x": 192,
      "y": 140,
      "size": 1,
      "price": "4683000000000000000000",
      "reserved": "",
      "salt": "0x8dc5556001442f9dedec4480cb9615570da0e3c0830c700485860fd049b59f21",
      "assetIds": [
        "41506478881403507969696680653240014914910929820314476107906210059990541021186"
      ]
    },
    {
      "x": 192,
      "y": 144,
      "size": 1,
      "price": "4683000000000000000000",
      "reserved": "",
      "salt": "0xe8c156a056de7c5547b531c63cde0a2ee55a42fb9097c09db6595f8ea54be3f1",
      "assetIds": [
        "41506478881403507969696680653240014914910929820314476107906210059990541021186"
      ]
    },
    {
      "x": 192,
      "y": 145,
      "size": 1,
      "price": "1011000000000000000000",
      "reserved": "",
      "salt": "0x9dc9dc2c1d8ea883b4aa5d6ce6cf6ec8fc9ed19fb92d7af5e924215a2c2e576c",
      "assetIds": []
    },
    {
      "x": 192,
      "y": 146,
      "size": 1,
      "price": "1011000000000000000000",
      "reserved": "",
      "salt": "0xd8090d4c41765602e3c4cc68663d05cecc1616f5da46c81625e763e26372222a",
      "assetIds": []
    },
    {
      "x": 192,
      "y": 147,
      "size": 1,
      "price": "4683000000000000000000",
      "reserved": "",
      "salt": "0x18a274896a86f8e91e24be3caa3177cac36f39739ff7eb4a97e233720065496d",
      "assetIds": [
        "41506478881403507969696680653240014914910929820314476107906210059990541021186"
      ]
    },
    {
      "x": 192,
      "y": 148,
      "size": 1,
      "price": "4683000000000000000000",
      "reserved": "",
      "salt": "0x71a80260abfee81f107285c37d184acec16105a57df720ecfc0ca77288da1d58",
      "assetIds": [
        "41506478881403507969696680653240014914910929820314476107906210059990541021186"
      ]
    },
    {
      "x": 192,
      "y": 149,
      "size": 1,
      "price": "4683000000000000000000",
      "reserved": "",
      "salt": "0x61625e5dad781481252ed1ae0f2aaf3e63c93c5c59f0735a1fdf2cc93b8ef5d1",
      "assetIds": [
        "41506478881403507969696680653240014914910929820314476107906210059990541021186"
      ]
    },
    {
      "x": 193,
      "y": 132,
      "size": 1,
      "price": "1011000000000000000000",
      "reserved": "",
      "salt": "0x32658b95813b1878fb97f2da32bd007aed0abbd63621519b255bae51cdc7cb37",
      "assetIds": []
    },
    {
      "x": 193,
      "y": 133,
      "size": 1,
      "price": "1011000000000000000000",
      "reserved": "",
      "salt": "0x267f37f3f4812e40a47e7cc0feadcb406da254a0cfd0833b5f70fa916a791c07",
      "assetIds": []
    },
    {
      "x": 193,
      "y": 134,
      "size": 1,
      "price": "1011000000000000000000",
      "reserved": "",
      "salt": "0xe750adc21352399fabeeb8fb483a400f919bc70d950fd99c6a4c14fd42bda8fe",
      "assetIds": []
    },
    {
      "x": 193,
      "y": 135,
      "size": 1,
      "price": "1011000000000000000000",
      "reserved": "",
      "salt": "0xb656aae681ba091d8a38bb6a36f6d79ab14acf2daefdadf89d117dceb8f8dcfc",
      "assetIds": []
    },
    {
      "x": 193,
      "y": 136,
      "size": 1,
      "price": "1011000000000000000000",
      "reserved": "",
      "salt": "0xcb3f3610e2f34d390d7ed30c1d9e6c4933e28b66d0873b3a6f60962633fc501d",
      "assetIds": []
    },
    {
      "x": 193,
      "y": 137,
      "size": 1,
      "price": "1011000000000000000000",
      "reserved": "",
      "salt": "0x470308361b5689308c3ac041fd3afa672b757e630725f64a0c41df127b50733c",
      "assetIds": []
    },
    {
      "x": 193,
      "y": 138,
      "size": 1,
      "price": "4683000000000000000000",
      "reserved": "",
      "salt": "0x2f9ad8656f9e2b5e3793e633c7ae3e0e5a809914ec22cccfa8bcdf1444f0e20e",
      "assetIds": [
        "41506478881403507969696680653240014914910929820314476107906210059990541021186"
      ]
    },
    {
      "x": 193,
      "y": 139,
      "size": 1,
      "price": "4683000000000000000000",
      "reserved": "",
      "salt": "0x01bb17f69ccafe1338e6f3ba15c6e941741f46cfc58b384787140248f6cee789",
      "assetIds": [
        "41506478881403507969696680653240014914910929820314476107906210059990541021186"
      ]
    },
    {
      "x": 193,
      "y": 140,
      "size": 1,
      "price": "4683000000000000000000",
      "reserved": "",
      "salt": "0x4ef024024ce8093dad7d3ffb2bfedff90822205d5ed0abf51d9ae5af873286c5",
      "assetIds": [
        "41506478881403507969696680653240014914910929820314476107906210059990541021186"
      ]
    },
    {
      "x": 193,
      "y": 144,
      "size": 1,
      "price": "1011000000000000000000",
      "reserved": "",
      "salt": "0x86705372d64228c26d2209fee9e84d7cc8965366acaa9953f607e63ab932a0db",
      "assetIds": []
    },
    {
      "x": 193,
      "y": 145,
      "size": 1,
      "price": "1011000000000000000000",
      "reserved": "",
      "salt": "0x572a2bec3fb7f1ef64e3e5f9d6e6b736ce7324a23ae4b075e4d53b68cdef4aaa",
      "assetIds": []
    },
    {
      "x": 193,
      "y": 146,
      "size": 1,
      "price": "1011000000000000000000",
      "reserved": "",
      "salt": "0xce69c78ee67d720751f19b36e6dcc8c997978a75ba2b3b2d20f6e306d0e64bac",
      "assetIds": []
    },
    {
      "x": 193,
      "y": 147,
      "size": 1,
      "price": "1011000000000000000000",
      "reserved": "",
      "salt": "0xe551c26d03306d65b8919a2a77da7c14786ebd5f99f11baa1942612c5093e21c",
      "assetIds": []
    },
    {
      "x": 193,
      "y": 148,
      "size": 1,
      "price": "1011000000000000000000",
      "reserved": "",
      "salt": "0x4e03dd99b51d70c081c74d870282f2fb3a6b94110f38a4e2c1c093193d35f118",
      "assetIds": []
    },
    {
      "x": 193,
      "y": 149,
      "size": 1,
      "price": "1011000000000000000000",
      "reserved": "",
      "salt": "0x42aa2ad865446bb25a352331bc1eb02175ddcb836674a2519b895dbc64a5d1dc",
      "assetIds": []
    },
    {
      "x": 194,
      "y": 132,
      "size": 1,
      "price": "1011000000000000000000",
      "reserved": "",
      "salt": "0xfc6caf9f15320a97375dae4d502e56183699c743b822b432d7ea3af52e3fee38",
      "assetIds": []
    },
    {
      "x": 194,
      "y": 133,
      "size": 1,
      "price": "1011000000000000000000",
      "reserved": "",
      "salt": "0xdf9eb80f1c04a876ba8ed3f220aa2097446794377962d0e67e36e47c826c9bb2",
      "assetIds": []
    },
    {
      "x": 194,
      "y": 134,
      "size": 1,
      "price": "1011000000000000000000",
      "reserved": "",
      "salt": "0xc393099799136063723fa5f5d3c9beba2ee956cb62e974cf2e8d5b9a32ab50c5",
      "assetIds": []
    },
    {
      "x": 194,
      "y": 135,
      "size": 1,
      "price": "1011000000000000000000",
      "reserved": "",
      "salt": "0x47d3d25d44972e901436ca47629e567df371e4942252685cc9422cf69184e2ba",
      "assetIds": []
    },
    {
      "x": 194,
      "y": 136,
      "size": 1,
      "price": "1011000000000000000000",
      "reserved": "",
      "salt": "0x768f860a88a7c84cc791a6d93ddb64e115622ea2655e857f9b28b7590fc468e8",
      "assetIds": []
    },
    {
      "x": 194,
      "y": 137,
      "size": 1,
      "price": "1011000000000000000000",
      "reserved": "",
      "salt": "0xb1e87508587a4eb6604af42194ecfe1e4c6218fd1a9240ac0abf98dbaff79e96",
      "assetIds": []
    },
    {
      "x": 194,
      "y": 138,
      "size": 1,
      "price": "1011000000000000000000",
      "reserved": "",
      "salt": "0xf0ed89f39f4068788a4ad60ac39efa0e23ea435fb52729ba99b90d08ed3e82f1",
      "assetIds": []
    },
    {
      "x": 194,
      "y": 139,
      "size": 1,
      "price": "1011000000000000000000",
      "reserved": "",
      "salt": "0xa4e10bc1daf67317245c067c9fd319dd175909a082454e21abac47f7c4d2721c",
      "assetIds": []
    },
    {
      "x": 194,
      "y": 140,
      "size": 1,
      "price": "1011000000000000000000",
      "reserved": "",
      "salt": "0x65d100ca02d041fa90f1c60b35a773769eb07a9dcb7bc603d89d0ac555757e2c",
      "assetIds": []
    },
    {
      "x": 194,
      "y": 144,
      "size": 1,
      "price": "1011000000000000000000",
      "reserved": "",
      "salt": "0x3fa4ebc879e55b871982cb16f316057bc11e8849e21bc80f8d23a120e3cbf0d6",
      "assetIds": []
    },
    {
      "x": 194,
      "y": 145,
      "size": 1,
      "price": "1011000000000000000000",
      "reserved": "",
      "salt": "0x2d19838bc30e531869de9c1fc7f29cf57fe95909e6d6ed22e0c39a1403c6d169",
      "assetIds": []
    },
    {
      "x": 194,
      "y": 146,
      "size": 1,
      "price": "1011000000000000000000",
      "reserved": "",
      "salt": "0x604c8ec4c14252e09a46a0094cb2ea25adb1b57060ad7e676440d7ce4746126a",
      "assetIds": []
    },
    {
      "x": 194,
      "y": 147,
      "size": 1,
      "price": "1011000000000000000000",
      "reserved": "",
      "salt": "0xb85c31cf477fb89bd9cf02fedfa8f01b56b8316f4b449be54e6d024536ea983c",
      "assetIds": []
    },
    {
      "x": 194,
      "y": 148,
      "size": 1,
      "price": "1011000000000000000000",
      "reserved": "",
      "salt": "0xfb63ce8c549723443305f54dbe7d8b062de0dee7ae57266a6b323463b824ff15",
      "assetIds": []
    },
    {
      "x": 194,
      "y": 149,
      "size": 1,
      "price": "1011000000000000000000",
      "reserved": "",
      "salt": "0x7c4d85f8099313ad010eb61e9e51e53d007da40e64d4b848dfbd7d7f43e18a79",
      "assetIds": []
    },
    {
      "x": 195,
      "y": 132,
      "size": 1,
      "price": "4683000000000000000000",
      "reserved": "",
      "salt": "0x9e04a1b74e7be58031871a263a20134e3992aed7618b7b8f845b7d230227dca2",
      "assetIds": [
        "41506478881403507969696680653240014914910929820314476107906210059990541021186"
      ]
    },
    {
      "x": 195,
      "y": 133,
      "size": 1,
      "price": "1011000000000000000000",
      "reserved": "",
      "salt": "0xca43adbba6685c9302625b4ef5fa72b8eb6fde8d711a08ba231849b0c41989d0",
      "assetIds": []
    },
    {
      "x": 195,
      "y": 134,
      "size": 1,
      "price": "1011000000000000000000",
      "reserved": "",
      "salt": "0xc96b8cd54e70afb698dc369897011a6b6a50fcfe084be2ef003a2f030bc0cfe8",
      "assetIds": []
    },
    {
      "x": 195,
      "y": 135,
      "size": 1,
      "price": "1011000000000000000000",
      "reserved": "",
      "salt": "0xd55fe01e692572a438e8af95876948ca876f4ce950459857c9b85560fe4eef35",
      "assetIds": []
    },
    {
      "x": 195,
      "y": 136,
      "size": 1,
      "price": "1011000000000000000000",
      "reserved": "",
      "salt": "0xb398cd652a32bd056a8c6afe32ef315c939c93e4ba0d5dcf1ce415359918a8fc",
      "assetIds": []
    },
    {
      "x": 195,
      "y": 137,
      "size": 1,
      "price": "1011000000000000000000",
      "reserved": "",
      "salt": "0xcbf9de8966c86d131c7b176541d101346c92d877b0f8bf3fe8c6b923ee79d0eb",
      "assetIds": []
    },
    {
      "x": 195,
      "y": 138,
      "size": 1,
      "price": "1011000000000000000000",
      "reserved": "",
      "salt": "0x361836a100d90bcdc3e487a51216eb9918f55831a9254d4898141da70b7c2ddc",
      "assetIds": []
    },
    {
      "x": 195,
      "y": 139,
      "size": 1,
      "price": "1011000000000000000000",
      "reserved": "",
      "salt": "0x7c1f2e936b557a7f7c11a93908b219656a2bf3ae648e995a4c202a83d6ec656f",
      "assetIds": []
    },
    {
      "x": 195,
      "y": 140,
      "size": 1,
      "price": "1011000000000000000000",
      "reserved": "",
      "salt": "0xe982763922cfb1c5e914de3a949914b06ece1f4c053b71bd7e4d27cc01aa774d",
      "assetIds": []
    },
    {
      "x": 195,
      "y": 141,
      "size": 1,
      "price": "1011000000000000000000",
      "reserved": "",
      "salt": "0xf34c4038b0c73ebfe3554561809dfe30e7515c44c5394898c8408b0f8c5622c2",
      "assetIds": []
    },
    {
      "x": 195,
      "y": 142,
      "size": 1,
      "price": "1011000000000000000000",
      "reserved": "",
      "salt": "0xfe7095af8f007ccc970c0d2b1a24275e99c966c540046f9daa3a1b885e30ca20",
      "assetIds": []
    },
    {
      "x": 195,
      "y": 143,
      "size": 1,
      "price": "1011000000000000000000",
      "reserved": "",
      "salt": "0x4d8bf07b21d446212f60ba7840ed3c086b10befc3a69827f60dafc9a0e3fbf4b",
      "assetIds": []
    },
    {
      "x": 195,
      "y": 144,
      "size": 1,
      "price": "1011000000000000000000",
      "reserved": "",
      "salt": "0x0c0cb2646c83f686e119f9dfa2940365dc2d4eb303df68d836da61e368ad5c2c",
      "assetIds": []
    },
    {
      "x": 195,
      "y": 145,
      "size": 1,
      "price": "1011000000000000000000",
      "reserved": "",
      "salt": "0x7ae00583e7a8720fae7e843235ce4c98c5042e8b0dd62a05fb4d89984191c6a4",
      "assetIds": []
    },
    {
      "x": 195,
      "y": 146,
      "size": 1,
      "price": "1011000000000000000000",
      "reserved": "",
      "salt": "0x6d4c5aa07a5b862e902d225225f5a3a0155683098371891c074ec7275e7b758c",
      "assetIds": []
    },
    {
      "x": 195,
      "y": 147,
      "size": 1,
      "price": "1011000000000000000000",
      "reserved": "",
      "salt": "0x1ee72b3cd52b4fe5f6b95038b7ca7a9d98e883d35d009d71fd81bafd107102d4",
      "assetIds": []
    },
    {
      "x": 195,
      "y": 148,
      "size": 1,
      "price": "1011000000000000000000",
      "reserved": "",
      "salt": "0xc5c58c4bccda335cc974afcddde07e616ba5172e12198f6156f378e41a7f1ee2",
      "assetIds": []
    },
    {
      "x": 195,
      "y": 149,
      "size": 1,
      "price": "1011000000000000000000",
      "reserved": "",
      "salt": "0x3ab60e458a8ecbf3a78fa3b52f8d188e112a5830c9c63dea055c358bb83cf1e9",
      "assetIds": []
    },
    {
      "x": 196,
      "y": 132,
      "size": 1,
      "price": "4683000000000000000000",
      "reserved": "",
      "salt": "0xc9954cdb853ac899c4bdd71fb656086e74e2e76ab4b1a45b88074aa27e6d4ac2",
      "assetIds": [
        "41506478881403507969696680653240014914910929820314476107906210059990541021186"
      ]
    },
    {
      "x": 196,
      "y": 133,
      "size": 1,
      "price": "1011000000000000000000",
      "reserved": "",
      "salt": "0xe5111ddff47686468fe04fc72529de76f47d15cd3944174ae4eefa98b4b0f70d",
      "assetIds": []
    },
    {
      "x": 196,
      "y": 134,
      "size": 1,
      "price": "1011000000000000000000",
      "reserved": "",
      "salt": "0x87651d08d8d0cfe0ba0f903ee4c9a03d768dc6fe15183bc9b4ac3f1715d3d800",
      "assetIds": []
    },
    {
      "x": 196,
      "y": 135,
      "size": 1,
      "price": "1011000000000000000000",
      "reserved": "",
      "salt": "0x7d0b79d44875cf5b4e96f242b5837c3a6c9d04b679ca3d610c974b6542e5c529",
      "assetIds": []
    },
    {
      "x": 196,
      "y": 136,
      "size": 1,
      "price": "1011000000000000000000",
      "reserved": "",
      "salt": "0xb8321b9022a85161fc0cd7fa01a3fc280ac8f9f42384cefd654e7811017fd35f",
      "assetIds": []
    },
    {
      "x": 196,
      "y": 137,
      "size": 1,
      "price": "1011000000000000000000",
      "reserved": "",
      "salt": "0xf3dc7e9baac423e368c55219285bb66c0bb48e3d22a1abfb42ba973a641cbee3",
      "assetIds": []
    },
    {
      "x": 196,
      "y": 138,
      "size": 1,
      "price": "1011000000000000000000",
      "reserved": "",
      "salt": "0xc1cf4b5ee1f7f7305314ae8609b9fadc5f0ff83ba714855cbffa852b7431d869",
      "assetIds": []
    },
    {
      "x": 196,
      "y": 139,
      "size": 1,
      "price": "1011000000000000000000",
      "reserved": "",
      "salt": "0x86baebc1dc2c3989d36b62dcaab6f54c0017d0196a67cd19d5792cfdee1a6274",
      "assetIds": []
    },
    {
      "x": 196,
      "y": 140,
      "size": 1,
      "price": "1011000000000000000000",
      "reserved": "",
      "salt": "0xbb05c8ecb56c7d4949cf6749fb8ee85304e4b170c24db6b7cca90c0b99761e74",
      "assetIds": []
    },
    {
      "x": 196,
      "y": 141,
      "size": 1,
      "price": "1011000000000000000000",
      "reserved": "",
      "salt": "0xa498f8d40cbfdef9aa1473f4ea6637b2e01264368140edc1014bc0d8038583bd",
      "assetIds": []
    },
    {
      "x": 196,
      "y": 142,
      "size": 1,
      "price": "1011000000000000000000",
      "reserved": "",
      "salt": "0xdcabf7dc091e580416d0a5200e0104ad2a0ab7522fcd8b23a3a2dea44dc41674",
      "assetIds": []
    },
    {
      "x": 196,
      "y": 143,
      "size": 1,
      "price": "1011000000000000000000",
      "reserved": "",
      "salt": "0xaca8c40a64ff77f2ba762744ef39fa844fc34db9f9562d1296776639a4da76f0",
      "assetIds": []
    },
    {
      "x": 196,
      "y": 144,
      "size": 1,
      "price": "1011000000000000000000",
      "reserved": "",
      "salt": "0x841fffc59a8dc5cd7ad89cbd40a6be5c6f1774540c2766d63fa5bff1a28697cd",
      "assetIds": []
    },
    {
      "x": 196,
      "y": 145,
      "size": 1,
      "price": "1011000000000000000000",
      "reserved": "",
      "salt": "0x7035da2b8e6a2cf09c1922f3554e6dfa5f894dfa259dd475f571e9c087e470e8",
      "assetIds": []
    },
    {
      "x": 196,
      "y": 146,
      "size": 1,
      "price": "1011000000000000000000",
      "reserved": "",
      "salt": "0xa0a29c37fdedb68029e262745108300efe0a9d5d0e01f95cdaeb7c0ab4ae28af",
      "assetIds": []
    },
    {
      "x": 196,
      "y": 147,
      "size": 1,
      "price": "1011000000000000000000",
      "reserved": "",
      "salt": "0x06975986b8adc8dc61f98dc2b1d6aa92370bf93c735304f46b47a4aa4b5ddd14",
      "assetIds": []
    },
    {
      "x": 196,
      "y": 148,
      "size": 1,
      "price": "1011000000000000000000",
      "reserved": "",
      "salt": "0xc3b268bf10f8aa5cff5448119a4b564a8e577dc61413e32595e132b3a9562207",
      "assetIds": []
    },
    {
      "x": 196,
      "y": 149,
      "size": 1,
      "price": "1011000000000000000000",
      "reserved": "",
      "salt": "0x63b38c7706afec0bc69c558b163e6ad1c0ac4c0ca649cf9c5a4c13b90783e10c",
      "assetIds": []
    },
    {
      "x": 197,
      "y": 132,
      "size": 1,
      "price": "4683000000000000000000",
      "reserved": "",
      "salt": "0xcff2156514e4752e03ea304fc53c6310bfd787770a26d3f5a811eb5c9f6bbaec",
      "assetIds": [
        "41506478881403507969696680653240014914910929820314476107906210059990541021186"
      ]
    },
    {
      "x": 197,
      "y": 133,
      "size": 1,
      "price": "1011000000000000000000",
      "reserved": "",
      "salt": "0xc1b06494b6ed2a4a5cfbcbb4e7575f76e1c965b9e458716af4bf3eff7772ba1f",
      "assetIds": []
    },
    {
      "x": 197,
      "y": 134,
      "size": 1,
      "price": "1011000000000000000000",
      "reserved": "",
      "salt": "0xe3b3f4af9ca24370e858fcbc4f10fc780bdedb13bea38ab59655a440d60135b3",
      "assetIds": []
    },
    {
      "x": 197,
      "y": 135,
      "size": 1,
      "price": "1011000000000000000000",
      "reserved": "",
      "salt": "0x2a8bca121a3f5f90bb025a03ecea68bd98229a7322d45c97071268bad35c763c",
      "assetIds": []
    },
    {
      "x": 197,
      "y": 136,
      "size": 1,
      "price": "1011000000000000000000",
      "reserved": "",
      "salt": "0x62dd5c04e6cb58dfe446fd1b197469d618776589845a815df3283480ac1e5ccc",
      "assetIds": []
    },
    {
      "x": 197,
      "y": 137,
      "size": 1,
      "price": "1011000000000000000000",
      "reserved": "",
      "salt": "0x48f96c24d4e55e2bbb6e57dbf5e82c9e6c225d90cc763b15a1857c238b2f024a",
      "assetIds": []
    },
    {
      "x": 197,
      "y": 138,
      "size": 1,
      "price": "4683000000000000000000",
      "reserved": "",
      "salt": "0xf8cb4cee3265b8691605418dbe67779feea96b5e99650ed3913d77da3fc266da",
      "assetIds": [
        "41506478881403507969696680653240014914910929820314476107906210059990541021186"
      ]
    },
    {
      "x": 197,
      "y": 139,
      "size": 1,
      "price": "4683000000000000000000",
      "reserved": "",
      "salt": "0x8ba7e881cf80db587658a7afd46437867ac82f410056477fd43c12b92dd069e6",
      "assetIds": [
        "41506478881403507969696680653240014914910929820314476107906210059990541021186"
      ]
    },
    {
      "x": 197,
      "y": 140,
      "size": 1,
      "price": "4683000000000000000000",
      "reserved": "",
      "salt": "0xe24eea5d1c6ca09386fc547f1f8fc998b08a360192f74ddc02906a539ba4dd9b",
      "assetIds": [
        "41506478881403507969696680653240014914910929820314476107906210059990541021186"
      ]
    },
    {
      "x": 197,
      "y": 141,
      "size": 1,
      "price": "1011000000000000000000",
      "reserved": "",
      "salt": "0xa69633bc92fd08ac40670bdb7b13e33f7a15cf10bc77de46321e9b9ad20b85da",
      "assetIds": []
    },
    {
      "x": 197,
      "y": 142,
      "size": 1,
      "price": "1011000000000000000000",
      "reserved": "",
      "salt": "0xafee4dd47112ff5a0490e2c9dd40f8862ccdeb4211ce63801213f945be6f6d0a",
      "assetIds": []
    },
    {
      "x": 197,
      "y": 143,
      "size": 1,
      "price": "1011000000000000000000",
      "reserved": "",
      "salt": "0x7a4ba647516a836e3d1ec2c4743d7db5a91781a3ce7969fbd7947680860f4e32",
      "assetIds": []
    },
    {
      "x": 197,
      "y": 144,
      "size": 1,
      "price": "1011000000000000000000",
      "reserved": "",
      "salt": "0x0d4fd753cd12db0e7697b9cbeed62fd027e90a484ce3c48e224e85b53a341286",
      "assetIds": []
    },
    {
      "x": 197,
      "y": 145,
      "size": 1,
      "price": "1011000000000000000000",
      "reserved": "",
      "salt": "0x59973cefa6ba12d0f5d3f423592f70497f2c14f86788cd27663e789f9406c876",
      "assetIds": []
    },
    {
      "x": 197,
      "y": 146,
      "size": 1,
      "price": "1011000000000000000000",
      "reserved": "",
      "salt": "0x865004d8d8e7d6e0f511c4e780bf41d0191cbbc42f777314ed0354ebf40cf7db",
      "assetIds": []
    },
    {
      "x": 197,
      "y": 147,
      "size": 1,
      "price": "1011000000000000000000",
      "reserved": "",
      "salt": "0xc480edb03b56784a5a04619482f88b2ad16e94faa773d6e2b57eada6abe0b326",
      "assetIds": []
    },
    {
      "x": 197,
      "y": 148,
      "size": 1,
      "price": "1011000000000000000000",
      "reserved": "",
      "salt": "0xe43a7e74325199e02cfc9d60bf398521713a91a5bd3611601ab71a84720546eb",
      "assetIds": []
    },
    {
      "x": 197,
      "y": 149,
      "size": 1,
      "price": "1011000000000000000000",
      "reserved": "",
      "salt": "0x6695cff2af9fd727c3524572e5bb9071d3cecf5f7a7409cd150325aedfc72394",
      "assetIds": []
    },
    {
      "x": 198,
      "y": 132,
      "size": 1,
      "price": "1011000000000000000000",
      "reserved": "",
      "salt": "0x6383f0f2b8e8676d3f7d72beb5b674f9081232d8a67dcfc8cc5e4a68201ac9d2",
      "assetIds": []
    },
    {
      "x": 198,
      "y": 133,
      "size": 1,
      "price": "1011000000000000000000",
      "reserved": "",
      "salt": "0x56d6a1633ea49dc158a74516e6f910fa01fea209a113702951d7e5e96345091a",
      "assetIds": []
    },
    {
      "x": 198,
      "y": 134,
      "size": 1,
      "price": "1011000000000000000000",
      "reserved": "",
      "salt": "0x98d2e74860fa4a7f48859bd5db1d0f4c89459e95dbc44405830dc368a7280d92",
      "assetIds": []
    },
    {
      "x": 198,
      "y": 135,
      "size": 1,
      "price": "1011000000000000000000",
      "reserved": "",
      "salt": "0x10cefcb259681ce1f95c2ee6cf64fc33aab62a8a0d8987183cdc072d314315ef",
      "assetIds": []
    },
    {
      "x": 198,
      "y": 136,
      "size": 1,
      "price": "1011000000000000000000",
      "reserved": "",
      "salt": "0xafd575c060bc03bd8113d4157c3272c62842d2f968738b7e70d7ad9654fbae70",
      "assetIds": []
    },
    {
      "x": 198,
      "y": 137,
      "size": 1,
      "price": "4683000000000000000000",
      "reserved": "",
      "salt": "0x15d3ae424dd7a0f71bab1e4b51c8de590b934cd9993e09a2cadf1546a9f149e9",
      "assetIds": [
        "41506478881403507969696680653240014914910929820314476107906210059990541021186"
      ]
    },
    {
      "x": 198,
      "y": 144,
      "size": 1,
      "price": "1011000000000000000000",
      "reserved": "",
      "salt": "0xcea96004eaef3a295832b867a4e5436bef29411432dcdcdcffa7ff55be79851e",
      "assetIds": []
    },
    {
      "x": 198,
      "y": 145,
      "size": 1,
      "price": "1011000000000000000000",
      "reserved": "",
      "salt": "0xc8d3604a35a8aa79c926015878a5227c84e68e72839955a9181af64d23ee7891",
      "assetIds": []
    },
    {
      "x": 198,
      "y": 146,
      "size": 1,
      "price": "1011000000000000000000",
      "reserved": "",
      "salt": "0x58e8ee2824e0c1957c5875072098a4b9ab1d11b1a9e712a9039a0c57d9f83ed3",
      "assetIds": []
    },
    {
      "x": 198,
      "y": 147,
      "size": 1,
      "price": "1011000000000000000000",
      "reserved": "",
      "salt": "0x299ecca315edc0c5513f6a03a39d9e14722791a5f610335f1502078a1326e0f4",
      "assetIds": []
    },
    {
      "x": 198,
      "y": 148,
      "size": 1,
      "price": "1011000000000000000000",
      "reserved": "",
      "salt": "0xa4a312eaed708ab5ae5de9d9673ef36d881a3e4314f2ff9fe198dab457a12e1f",
      "assetIds": []
    },
    {
      "x": 198,
      "y": 149,
      "size": 1,
      "price": "1011000000000000000000",
      "reserved": "",
      "salt": "0x85e316272a57de941e15503190549ef96ca63fbd3e132d087573c56cd5f7585a",
      "assetIds": []
    },
    {
      "x": 199,
      "y": 132,
      "size": 1,
      "price": "1011000000000000000000",
      "reserved": "",
      "salt": "0x913a64ed94df25a205df4c0cdc753e483f136b6c816670db6acc7be68b12b571",
      "assetIds": []
    },
    {
      "x": 199,
      "y": 133,
      "size": 1,
      "price": "1011000000000000000000",
      "reserved": "",
      "salt": "0x45985064ea7472750357b8eb41fb9b819d359767dd394d21909a72f587e9bcd8",
      "assetIds": []
    },
    {
      "x": 199,
      "y": 134,
      "size": 1,
      "price": "1011000000000000000000",
      "reserved": "",
      "salt": "0x1b2c576372c8a9341ddb921a24176f17e402caeff9fb2c8ac0a476ae45a2b14f",
      "assetIds": []
    },
    {
      "x": 199,
      "y": 135,
      "size": 1,
      "price": "1011000000000000000000",
      "reserved": "",
      "salt": "0x19dd554edb2f860ae7f612b07a7db36c51132ec67402bc0d2169935ff7f8a9d2",
      "assetIds": []
    },
    {
      "x": 199,
      "y": 136,
      "size": 1,
      "price": "1011000000000000000000",
      "reserved": "",
      "salt": "0xb96838b26df097c84e4185a180675f8f084bba489f65f62b25ef05a1597d1c08",
      "assetIds": []
    },
    {
      "x": 199,
      "y": 137,
      "size": 1,
      "price": "4683000000000000000000",
      "reserved": "",
      "salt": "0x5efba6988521d82b5aff56e061a3ee415f35448db144beb9347c105d1fbbbdcc",
      "assetIds": [
        "41506478881403507969696680653240014914910929820314476107906210059990541021186"
      ]
    },
    {
      "x": 199,
      "y": 144,
      "size": 1,
      "price": "1011000000000000000000",
      "reserved": "",
      "salt": "0xaab09d61a34b8387adbe051d6ce25ea205fbd95e15688ac73f25f9fe89aae261",
      "assetIds": []
    },
    {
      "x": 199,
      "y": 145,
      "size": 1,
      "price": "1011000000000000000000",
      "reserved": "",
      "salt": "0xc8362a1370d9c8338cd69bb8cea444b817ec4b4a95828e4f64d11b388fbfd167",
      "assetIds": []
    },
    {
      "x": 199,
      "y": 146,
      "size": 1,
      "price": "1011000000000000000000",
      "reserved": "",
      "salt": "0x990b2f2e64f066ec8a890aaf828242b948c04e9a968fd1b3079770411a093c12",
      "assetIds": []
    },
    {
      "x": 199,
      "y": 147,
      "size": 1,
      "price": "1011000000000000000000",
      "reserved": "",
      "salt": "0x6ad872edbf5a5e26c49bfb8ebb654ce2396312c83b4a268f81095da4bbd7d444",
      "assetIds": []
    },
    {
      "x": 199,
      "y": 148,
      "size": 1,
      "price": "1011000000000000000000",
      "reserved": "",
      "salt": "0xaba8ed9114c194dc7bbfbfe7cc9d13df51aea1749b11c6657fb0581cecb3b432",
      "assetIds": []
    },
    {
      "x": 199,
      "y": 149,
      "size": 1,
      "price": "1011000000000000000000",
      "reserved": "",
      "salt": "0x5379cdbe51dbf374d4a61c3129a248cd84c148f000ed565c88d6139dc46b4b1e",
      "assetIds": []
    },
    {
      "x": 200,
      "y": 132,
      "size": 1,
      "price": "1011000000000000000000",
      "reserved": "",
      "salt": "0x5287920aaefbb20917811d512e0c8bf8fe927882e1cad1cef751dd51f21ee470",
      "assetIds": []
    },
    {
      "x": 200,
      "y": 133,
      "size": 1,
      "price": "1011000000000000000000",
      "reserved": "",
      "salt": "0x63958b809718586cd1f5e2ef2194089755906159c9ac1c044774d095fb802556",
      "assetIds": []
    },
    {
      "x": 200,
      "y": 134,
      "size": 1,
      "price": "1011000000000000000000",
      "reserved": "",
      "salt": "0x220b3940a3e37e5bd18f080c8040385f5c9906646f22c80c11651dc4e48bc33a",
      "assetIds": []
    },
    {
      "x": 200,
      "y": 135,
      "size": 1,
      "price": "1011000000000000000000",
      "reserved": "",
      "salt": "0x3570c803a98cd6fa7a0e33c020148f55b61b7aa175bbf481c3f20c6e5e336d57",
      "assetIds": []
    },
    {
      "x": 200,
      "y": 136,
      "size": 1,
      "price": "1011000000000000000000",
      "reserved": "",
      "salt": "0x0bcf217531b50235bea41bef572e2f8c38c0df85ffe66773533243a0a6d3b5a7",
      "assetIds": []
    },
    {
      "x": 200,
      "y": 137,
      "size": 1,
      "price": "4683000000000000000000",
      "reserved": "",
      "salt": "0xd9e0112cb316266fc032522de59ed468795b604ad3ad26c8a736d67ddbdbfed1",
      "assetIds": [
        "41506478881403507969696680653240014914910929820314476107906210059990541021186"
      ]
    },
    {
      "x": 200,
      "y": 144,
      "size": 1,
      "price": "1011000000000000000000",
      "reserved": "",
      "salt": "0x8a300dd5619c099592bef1d1544c0833678ff1a13c4e82d5af6a3dd42427b879",
      "assetIds": []
    },
    {
      "x": 200,
      "y": 145,
      "size": 1,
      "price": "1011000000000000000000",
      "reserved": "",
      "salt": "0x19fd52fb023408df458063683606b107ef616a8399f4cef88aac691855481942",
      "assetIds": []
    },
    {
      "x": 200,
      "y": 146,
      "size": 1,
      "price": "1011000000000000000000",
      "reserved": "",
      "salt": "0x22d7b220cc79514f2b923217ac8f79bd5df8939d4b826bbe2cf5e9f5ab9930a0",
      "assetIds": []
    },
    {
      "x": 200,
      "y": 147,
      "size": 1,
      "price": "1011000000000000000000",
      "reserved": "",
      "salt": "0x35d79916b92937ff6ff2c1f88d3e7a9cbd9f21a31c55083a65db414c1cbc03d0",
      "assetIds": []
    },
    {
      "x": 200,
      "y": 148,
      "size": 1,
      "price": "1011000000000000000000",
      "reserved": "",
      "salt": "0x5e6295fd81af73a3d34ceff0fe38e8250fb831d99bc70047290f2139fcfecec3",
      "assetIds": []
    },
    {
      "x": 200,
      "y": 149,
      "size": 1,
      "price": "1011000000000000000000",
      "reserved": "",
      "salt": "0xae6feb08f8ba5d507c9ef9aeab883e11d152b259263ac90d4eb30241113d1f65",
      "assetIds": []
    },
    {
      "x": 201,
      "y": 132,
      "size": 1,
      "price": "1011000000000000000000",
      "reserved": "",
      "salt": "0x071afcaad23f700f6a89c7958c5b0412aa19a651d51b03274f5208699ed94808",
      "assetIds": []
    },
    {
      "x": 201,
      "y": 133,
      "size": 1,
      "price": "1011000000000000000000",
      "reserved": "",
      "salt": "0x323b2fb2182f40ff5d4d55e83c2543ae08c87c99ed93aaf3604a627f6241f6f5",
      "assetIds": []
    },
    {
      "x": 201,
      "y": 134,
      "size": 1,
      "price": "1011000000000000000000",
      "reserved": "",
      "salt": "0xf9b1d9cc011a316772ffc8faefb1725e07e275d927bcf9e60cdd2e23c6184016",
      "assetIds": []
    },
    {
      "x": 201,
      "y": 135,
      "size": 1,
      "price": "1011000000000000000000",
      "reserved": "",
      "salt": "0x304f19f31ba50d686b5ab8c7f7f88dc0a5ec3a490046d717f136b2b9aadc1e3c",
      "assetIds": []
    },
    {
      "x": 201,
      "y": 136,
      "size": 1,
      "price": "1011000000000000000000",
      "reserved": "",
      "salt": "0xb56ef729a4f68b3bf04cc7121d01261290fa10186460e5a64f8d5f233029196f",
      "assetIds": []
    },
    {
      "x": 201,
      "y": 137,
      "size": 1,
      "price": "1011000000000000000000",
      "reserved": "",
      "salt": "0x71ffd02e6454be20a8766106f40aae3d5cf8bb1759a2e11871919e3996ac048f",
      "assetIds": []
    },
    {
      "x": 201,
      "y": 138,
      "size": 1,
      "price": "4683000000000000000000",
      "reserved": "",
      "salt": "0x72e45486ffcbe5564c2119bcff404cb4f20a0f44d7f6774658dc0f60984eecc0",
      "assetIds": [
        "41506478881403507969696680653240014914910929820314476107906210059990541021186"
      ]
    },
    {
      "x": 201,
      "y": 139,
      "size": 1,
      "price": "4683000000000000000000",
      "reserved": "",
      "salt": "0x1082b36e0ff96d8b043fbe54c6ee734f42699824ceac7e10915eb7bd4bfe7e1e",
      "assetIds": [
        "41506478881403507969696680653240014914910929820314476107906210059990541021186"
      ]
    },
    {
      "x": 201,
      "y": 140,
      "size": 1,
      "price": "4683000000000000000000",
      "reserved": "",
      "salt": "0x355c7889324378f4cf6cdfc85bdc109fcdcaf8dd9c270e6494ff7615cfe295c1",
      "assetIds": [
        "41506478881403507969696680653240014914910929820314476107906210059990541021186"
      ]
    },
    {
      "x": 201,
      "y": 141,
      "size": 1,
      "price": "1011000000000000000000",
      "reserved": "",
      "salt": "0x874c14256ac1c8d75e9679ffddfe29036af5bc911a3ef98950c585469454261d",
      "assetIds": []
    },
    {
      "x": 201,
      "y": 142,
      "size": 1,
      "price": "1011000000000000000000",
      "reserved": "",
      "salt": "0x0e2e9d1e083251fa6cb73d532457ab2a4a179397f052c47485f703781a0e58a6",
      "assetIds": []
    },
    {
      "x": 201,
      "y": 143,
      "size": 1,
      "price": "1011000000000000000000",
      "reserved": "",
      "salt": "0x701992cf08cc7b758bc49051ab366f26c950a4f30d7a9613388046ba5b5c1421",
      "assetIds": []
    },
    {
      "x": 202,
      "y": 132,
      "size": 1,
      "price": "1011000000000000000000",
      "reserved": "",
      "salt": "0x521a34ec0dbe24c67e3f7a9c0822363c7331d2eb9eae76b7562b3772f677f2e9",
      "assetIds": []
    },
    {
      "x": 202,
      "y": 133,
      "size": 1,
      "price": "1011000000000000000000",
      "reserved": "",
      "salt": "0x3e31013b5b2ba152f082f3d8a7f355249609365329ac82362bcd17265cb907f8",
      "assetIds": []
    },
    {
      "x": 202,
      "y": 134,
      "size": 1,
      "price": "1011000000000000000000",
      "reserved": "",
      "salt": "0xaf28ca6f970645f9fc646cbb446c95f676568fff82453d865f36d0753ef0dd72",
      "assetIds": []
    },
    {
      "x": 202,
      "y": 135,
      "size": 1,
      "price": "1011000000000000000000",
      "reserved": "",
      "salt": "0xa064426d9c46110e0d5840381bd341f4fee626ecbe0a773a43980781bfe05a19",
      "assetIds": []
    },
    {
      "x": 202,
      "y": 136,
      "size": 1,
      "price": "1011000000000000000000",
      "reserved": "",
      "salt": "0x2251145ed913e68b16d563c439dcf2d36e3c10c707fa192f8bf79da2ab620aa0",
      "assetIds": []
    },
    {
      "x": 202,
      "y": 137,
      "size": 1,
      "price": "1011000000000000000000",
      "reserved": "",
      "salt": "0xf50af8bc045aca14808a72d4486793775fde5584636da089af22354909cc4bd3",
      "assetIds": []
    },
    {
      "x": 202,
      "y": 138,
      "size": 1,
      "price": "1011000000000000000000",
      "reserved": "",
      "salt": "0x3d6f7a367c6d7e11d8a3cbfa9fb8c502edded55e12a4238d589dd61878017069",
      "assetIds": []
    },
    {
      "x": 202,
      "y": 139,
      "size": 1,
      "price": "1011000000000000000000",
      "reserved": "",
      "salt": "0x6c16ecc03b19fd540c5289e11952afe52173837597314a79733a880b17b57fda",
      "assetIds": []
    },
    {
      "x": 202,
      "y": 140,
      "size": 1,
      "price": "1011000000000000000000",
      "reserved": "",
      "salt": "0x4bb9147a7512f9e172653c488ab12cc5c9b345a0ccfc330bd99b79bf6b397401",
      "assetIds": []
    },
    {
      "x": 202,
      "y": 141,
      "size": 1,
      "price": "1011000000000000000000",
      "reserved": "",
      "salt": "0xb706ab20468db1c3ffc040c78fc8b832aeb85991233120726e20d1dd70da6dd0",
      "assetIds": []
    },
    {
      "x": 202,
      "y": 142,
      "size": 1,
      "price": "1011000000000000000000",
      "reserved": "",
      "salt": "0x1075bdbc649d865b289a34ff2f91f8117a4cad138bbeac56e5513505b3316b42",
      "assetIds": []
    },
    {
      "x": 202,
      "y": 143,
      "size": 1,
      "price": "1011000000000000000000",
      "reserved": "",
      "salt": "0xf660b3088e3d153f0e3c91b64f465d2fdec7f9d9c65710f1002a8428db23c83f",
      "assetIds": []
    },
    {
      "x": 203,
      "y": 132,
      "size": 1,
      "price": "4683000000000000000000",
      "reserved": "",
      "salt": "0x5bf8519c87e2d709affe9efe5d1a38e0972302a5acb6982a2203d5f884a5b531",
      "assetIds": [
        "41506478881403507969696680653240014914910929820314476107906210059990541021186"
      ]
    },
    {
      "x": 203,
      "y": 133,
      "size": 1,
      "price": "1011000000000000000000",
      "reserved": "",
      "salt": "0x7ffb98823829c1360d7cf42fc7991c91d1e70266dd30516a47ac1c9e364c33a3",
      "assetIds": []
    },
    {
      "x": 203,
      "y": 134,
      "size": 1,
      "price": "1011000000000000000000",
      "reserved": "",
      "salt": "0xdbe5f5cc9301afa85c4e51f9fd2b6e0951f63a4718161738a8869eb22b63d482",
      "assetIds": []
    },
    {
      "x": 203,
      "y": 135,
      "size": 1,
      "price": "1011000000000000000000",
      "reserved": "",
      "salt": "0xb2f2446eff89603a76903ef776364bf54f328de1afd4773a93147480d936346f",
      "assetIds": []
    },
    {
      "x": 203,
      "y": 136,
      "size": 1,
      "price": "1011000000000000000000",
      "reserved": "",
      "salt": "0x8d599c98a2773ed67a8c5fdac794bb85af6d5f4e752066abb3c71c721ffe4f5c",
      "assetIds": []
    },
    {
      "x": 203,
      "y": 137,
      "size": 1,
      "price": "1011000000000000000000",
      "reserved": "",
      "salt": "0x51e1978ea7fc749f359b52b340638eba1e5eed361bacad3c33ec3dfdfd81b9f9",
      "assetIds": []
    },
    {
      "x": 203,
      "y": 138,
      "size": 1,
      "price": "1011000000000000000000",
      "reserved": "",
      "salt": "0x3f83a6fa7f6f915f0716d9b3ee64f85d77b12c5d7469c2d5514abe2d2c90e3eb",
      "assetIds": []
    },
    {
      "x": 203,
      "y": 139,
      "size": 1,
      "price": "1011000000000000000000",
      "reserved": "",
      "salt": "0xb9ed43f0447febfa739798b81786ce088028dd4c0eebd608ada3c497146ecdc4",
      "assetIds": []
    },
    {
      "x": 203,
      "y": 140,
      "size": 1,
      "price": "1011000000000000000000",
      "reserved": "",
      "salt": "0x3b5535c38088393266987b20b7b2b07c2f5453ff6a4c045c3fb88cc85d4a227a",
      "assetIds": []
    },
    {
      "x": 203,
      "y": 141,
      "size": 1,
      "price": "1011000000000000000000",
      "reserved": "",
      "salt": "0x9c46f33de774b0ab81f351b1161c540dd0812be4bfc1dea6cf766fcad6288c08",
      "assetIds": []
    },
    {
      "x": 203,
      "y": 142,
      "size": 1,
      "price": "1011000000000000000000",
      "reserved": "",
      "salt": "0xe618fff1088d19be3ebd7cef874c2437d4e2ee4a0534bce37520973f06206053",
      "assetIds": []
    },
    {
      "x": 203,
      "y": 143,
      "size": 1,
      "price": "1011000000000000000000",
      "reserved": "",
      "salt": "0xc677866b047a5f42ace9d2278a2f031d3d48177f03b7be1a509da8653be8b1cb",
      "assetIds": []
    },
    {
      "x": 204,
      "y": 132,
      "size": 1,
      "price": "4683000000000000000000",
      "reserved": "",
      "salt": "0x0c51a5ab6be5f91e495fe1d614d54dc09be2d58524c927af92fe9751a4e0dbaf",
      "assetIds": [
        "41506478881403507969696680653240014914910929820314476107906210059990541021186"
      ]
    },
    {
      "x": 204,
      "y": 133,
      "size": 1,
      "price": "4683000000000000000000",
      "reserved": "",
      "salt": "0xb19f8dcf65a1b077a9b1e1e96f3a5306ded4f50ce194aaf24294074d7c424316",
      "assetIds": [
        "41506478881403507969696680653240014914910929820314476107906210059990541021186"
      ]
    },
    {
      "x": 204,
      "y": 134,
      "size": 1,
      "price": "1011000000000000000000",
      "reserved": "",
      "salt": "0x8511c0e2d50b9d67637c436002ab5a0e2aeb0e2a0505f6620bc7f09cfcb2f5a6",
      "assetIds": []
    },
    {
      "x": 204,
      "y": 135,
      "size": 1,
      "price": "1011000000000000000000",
      "reserved": "",
      "salt": "0x59f0cc1f97a3cdd5e28cb1e19e8c37f8bbe8bb9538af8b0e6ac8fe130f46a05b",
      "assetIds": []
    },
    {
      "x": 204,
      "y": 136,
      "size": 1,
      "price": "1011000000000000000000",
      "reserved": "",
      "salt": "0xcfd5dc689d6217f51482a3d2eb02a5a33477fe2581cf58d7aaa0fe345651cecf",
      "assetIds": []
    },
    {
      "x": 204,
      "y": 137,
      "size": 1,
      "price": "1011000000000000000000",
      "reserved": "",
      "salt": "0xe604311ca4db3fce4c34525304e21525226ecadea36d380a2124c1c5fd80ccf0",
      "assetIds": []
    },
    {
      "x": 204,
      "y": 141,
      "size": 1,
      "price": "1011000000000000000000",
      "reserved": "",
      "salt": "0xbe14defe7bb2d205c182147cf38da93ad1f10653a830bc58bd44fa8e48ddb910",
      "assetIds": []
    },
    {
      "x": 204,
      "y": 142,
      "size": 1,
      "price": "1011000000000000000000",
      "reserved": "",
      "salt": "0xbdacefff0f62127374932c42f9cc1aea091455b2ede864d56e0b4a1297b95322",
      "assetIds": []
    },
    {
      "x": 204,
      "y": 143,
      "size": 1,
      "price": "1011000000000000000000",
      "reserved": "",
      "salt": "0x4511a6d1167558dc4218bb06371100120360a89515b8b399c3dc586ce108d35d",
      "assetIds": []
    },
    {
      "x": 205,
      "y": 132,
      "size": 1,
      "price": "4683000000000000000000",
      "reserved": "",
      "salt": "0x0355146faa39126435617d24efbcf8587570d4c541fa491dfe6313c9f35e4354",
      "assetIds": [
        "41506478881403507969696680653240014914910929820314476107906210059990541021186"
      ]
    },
    {
      "x": 205,
      "y": 133,
      "size": 1,
      "price": "4683000000000000000000",
      "reserved": "",
      "salt": "0x27f0d4fc81b7e7c2b60c59f23532ee98f9fbe9e645ee39ba7c5a175031a7b1f3",
      "assetIds": [
        "41506478881403507969696680653240014914910929820314476107906210059990541021186"
      ]
    },
    {
      "x": 205,
      "y": 134,
      "size": 1,
      "price": "1011000000000000000000",
      "reserved": "",
      "salt": "0xf821a8951301e870603bcbd8231c2d7d00fddf522f4aecc393f6ff0cf973f2d6",
      "assetIds": []
    },
    {
      "x": 205,
      "y": 135,
      "size": 1,
      "price": "1011000000000000000000",
      "reserved": "",
      "salt": "0x45adea08098d9f8c7d4e9f2e660e58fb14ca88dc6b15deceb443d0378467cffc",
      "assetIds": []
    },
    {
      "x": 205,
      "y": 136,
      "size": 1,
      "price": "1011000000000000000000",
      "reserved": "",
      "salt": "0xa454aadcda0cb7c28d1d73cf59ef79156777c12b50bef510010b63b761a1e187",
      "assetIds": []
    },
    {
      "x": 205,
      "y": 137,
      "size": 1,
      "price": "1011000000000000000000",
      "reserved": "",
      "salt": "0x9882f978e4a9e6e2a2b21755381393d210161a109ceea26d79d8321c1afbd2b3",
      "assetIds": []
    },
    {
      "x": 205,
      "y": 141,
      "size": 1,
      "price": "1011000000000000000000",
      "reserved": "",
      "salt": "0x41dc34120959ac789b35fb7b023464946726c8c5441952c1045a6455c4a9b04b",
      "assetIds": []
    },
    {
      "x": 205,
      "y": 142,
      "size": 1,
      "price": "1011000000000000000000",
      "reserved": "",
      "salt": "0x8b2532fed09e1fb53458ffa8452dd941cb9d72c91c986ed7ddabe7357482965a",
      "assetIds": []
    },
    {
      "x": 205,
      "y": 143,
      "size": 1,
      "price": "1011000000000000000000",
      "reserved": "",
      "salt": "0x20ad149a6a37e0962034f6425e4fcd14844e8a2a4bc134525e33bb373056f141",
      "assetIds": []
    },
    {
      "x": 206,
      "y": 132,
      "size": 1,
      "price": "4683000000000000000000",
      "reserved": "",
      "salt": "0x6ef7c5d8866df44052cae38289103fd6b5f9426b53d7d32ea33a48c1a0193c4a",
      "assetIds": [
        "41506478881403507969696680653240014914910929820314476107906210059990541021186"
      ]
    },
    {
      "x": 206,
      "y": 133,
      "size": 1,
      "price": "4683000000000000000000",
      "reserved": "",
      "salt": "0x7e5e3d8976e1d941147043c5bccb57f15c4272da79c31fa1562abdd23b9b0eb9",
      "assetIds": [
        "41506478881403507969696680653240014914910929820314476107906210059990541021186"
      ]
    },
    {
      "x": 206,
      "y": 134,
      "size": 1,
      "price": "1011000000000000000000",
      "reserved": "",
      "salt": "0x71e7a1565a99361bac9f930db4b66b01a8ea0fa9d0bd024fcca01e9d12799bc3",
      "assetIds": []
    },
    {
      "x": 206,
      "y": 135,
      "size": 1,
      "price": "1011000000000000000000",
      "reserved": "",
      "salt": "0x307bad69d120123769fd85c3ded9dbbacf9fb534ca712c50d9609561f987f186",
      "assetIds": []
    },
    {
      "x": 206,
      "y": 136,
      "size": 1,
      "price": "1011000000000000000000",
      "reserved": "",
      "salt": "0xb4a8f66955a9842058945473b58d6b588136c32a9223f00d6bc670c3ad2e5321",
      "assetIds": []
    },
    {
      "x": 206,
      "y": 137,
      "size": 1,
      "price": "1011000000000000000000",
      "reserved": "",
      "salt": "0xf9e79ab60d00d3882e41f0ccaafa66c7a489ab628a845046879b62f70c73f2d7",
      "assetIds": []
    },
    {
      "x": 206,
      "y": 141,
      "size": 1,
      "price": "1011000000000000000000",
      "reserved": "",
      "salt": "0xa0ecdd3ba462b47b3e41751b61a627cc793a8d01bee52b12bcc6821268e837ef",
      "assetIds": []
    },
    {
      "x": 206,
      "y": 142,
      "size": 1,
      "price": "1011000000000000000000",
      "reserved": "",
      "salt": "0xc634029e04529b06a177c2107412521f6faa5c23857452682d3ff3652e5bd4f1",
      "assetIds": []
    },
    {
      "x": 206,
      "y": 143,
      "size": 1,
      "price": "1011000000000000000000",
      "reserved": "",
      "salt": "0xa956dc50824ec80ea227c31ce9a07a026dda4fb8fa850d5fbcdc7b86144a3497",
      "assetIds": []
    },
    {
      "x": 207,
      "y": 138,
      "size": 1,
      "price": "1011000000000000000000",
      "reserved": "",
      "salt": "0xf267dd74d6f2cd78a3b86cac04a73d4e2eaa71b87a8a00f1489179ff4bccb963",
      "assetIds": []
    },
    {
      "x": 207,
      "y": 139,
      "size": 1,
      "price": "1011000000000000000000",
      "reserved": "",
      "salt": "0xd5e566aec25e49089e027b0c8a44b55b53718a13ed3197558d2d69577072f62a",
      "assetIds": []
    },
    {
      "x": 207,
      "y": 140,
      "size": 1,
      "price": "1011000000000000000000",
      "reserved": "",
      "salt": "0x306a80e2497281c72bde82483bb1bb3781d432eb95fcc5cfd419f807c2ffaa66",
      "assetIds": []
    },
    {
      "x": 208,
      "y": 138,
      "size": 1,
      "price": "1011000000000000000000",
      "reserved": "",
      "salt": "0x3b24157989092dfe001db146d160d41df5e9cec18148c2b53bb82e9fc7ac3fcb",
      "assetIds": []
    },
    {
      "x": 208,
      "y": 139,
      "size": 1,
      "price": "1011000000000000000000",
      "reserved": "",
      "salt": "0x5eb245c73564c3172b9ea1954c686e0918e69b4ae79fa38d61bd6cfc84cdaedd",
      "assetIds": []
    },
    {
      "x": 208,
      "y": 140,
      "size": 1,
      "price": "1011000000000000000000",
      "reserved": "",
      "salt": "0xde2d946f7898cd420f646f1ff870760dffebf1a51723444fb5544d2bd90c5935",
      "assetIds": []
    },
    {
      "x": 209,
      "y": 138,
      "size": 1,
      "price": "1011000000000000000000",
      "reserved": "",
      "salt": "0x236d0b60ea1fb185a34393050e54d59e41ea463d49b10bcddf463e3f8c6bf28a",
      "assetIds": []
    },
    {
      "x": 209,
      "y": 139,
      "size": 1,
      "price": "1011000000000000000000",
      "reserved": "",
      "salt": "0x60def19a11164b68cfe2af697bc67de69c4c231c83193ea88d8a6316e91cebdf",
      "assetIds": []
    },
    {
      "x": 209,
      "y": 140,
      "size": 1,
      "price": "1011000000000000000000",
      "reserved": "",
      "salt": "0x6286c2edcfd781157dd52e2c6bc0104b40dc8f9f092082a077d3ff2810285d84",
      "assetIds": []
    },
    {
      "x": 186,
      "y": 132,
      "size": 3,
      "price": "8648000000000000000000",
      "reserved": "0x7a9fe22691c811ea339d9b73150e6911a5343dca",
      "salt": "0x568cb5ced17d34114c070e20246201cc4479c97b837333d7b22d0642c7c2b2db",
      "assetIds": []
    },
    {
      "x": 186,
      "y": 147,
      "size": 3,
      "price": "8648000000000000000000",
      "reserved": "0x7a9fe22691c811ea339d9b73150e6911a5343dca",
      "salt": "0x1025eab75399c1ebc790abb76bde61cb941ff475ced94bcd3e18f597b8c3be09",
      "assetIds": []
    },
    {
      "x": 189,
      "y": 147,
      "size": 3,
      "price": "8648000000000000000000",
      "reserved": "0x7a9fe22691c811ea339d9b73150e6911a5343dca",
      "salt": "0x6bf178ee896e17baa86b501346e70c86f38ce1c4c2771425c1bcef945cb561ae",
      "assetIds": []
    },
    {
      "x": 192,
      "y": 141,
      "size": 3,
      "price": "8648000000000000000000",
      "reserved": "0x7a9fe22691c811ea339d9b73150e6911a5343dca",
      "salt": "0x344f084be25001b08693d6d7f801a47ad47bce12def8bf3b8fa0a184cd04be99",
      "assetIds": []
    },
    {
      "x": 198,
      "y": 138,
      "size": 3,
      "price": "8648000000000000000000",
      "reserved": "0x7a9fe22691c811ea339d9b73150e6911a5343dca",
      "salt": "0x574c2b2b5ff7a0bc396a5918ff85ebfcf48a00e3127ee630f0e8ca1b33df8db6",
      "assetIds": []
    },
    {
      "x": 198,
      "y": 141,
      "size": 3,
      "price": "8648000000000000000000",
      "reserved": "0x7a9fe22691c811ea339d9b73150e6911a5343dca",
      "salt": "0xce506c6252a6529832a290cd3c1ba48464b2620f3e9c7a15fbb3116dc2448a55",
      "assetIds": []
    },
    {
      "x": 204,
      "y": 138,
      "size": 3,
      "price": "8648000000000000000000",
      "reserved": "0x7a9fe22691c811ea339d9b73150e6911a5343dca",
      "salt": "0x85eb59443d8f773c9efcf1d26812ca542b9c9abc1095bcea2adb636f98c810b6",
      "assetIds": []
    },
    {
      "x": 207,
      "y": 132,
      "size": 3,
      "price": "8648000000000000000000",
      "reserved": "0x7a9fe22691c811ea339d9b73150e6911a5343dca",
      "salt": "0xd3fd1b7957211820dd5e1ea3e89924d30c1693ee09212c0ce82cdc605f191ea1",
      "assetIds": []
    },
    {
      "x": 207,
      "y": 135,
      "size": 3,
      "price": "8648000000000000000000",
      "reserved": "0x7a9fe22691c811ea339d9b73150e6911a5343dca",
      "salt": "0x6982664a2370049f3ef53e182637254a6d1033a9ecf7043eba5f3423901b4160",
      "assetIds": []
    },
    {
      "x": 186,
      "y": 138,
      "size": 6,
      "price": "32772000000000000000000",
      "reserved": "0x7a9fe22691c811ea339d9b73150e6911a5343dca",
      "salt": "0xac2fded65de219c0c77b05c179ac57b234bdae8ae2bcc61beeac31718399a9aa",
      "assetIds": []
    }
  ],
  "solcInputHash": "e17a5bb930c92aaeeb80a52119ce77b7",
  "bytecode": "0x610160604052620d2f0060055534801561001857600080fd5b506040516200284d3803806200284d83398181016040526101a081101561003e57600080fd5b50805160208201516040830151606080850151608086015160a08088015160c0808a015160e08b01516101008c01516101208d01516101408e01516101608f0151610180909f0151600280546001600160a01b0319166001600160a01b03871617905560038490558e8c1b6001600160601b03199081169099529a8d901b9097169094529a9b999a98999698959793969195909490939091906100e28b600161015d565b600680546001600160a01b039a8b166001600160a01b031991821617909155610140989098526101209690965260008054998916998816999099179098556001600160601b0319606092831b811660e05290821b811660805296901b909516610100525060078054919093169116179055506101c192505050565b6001600160a01b038216600081815260016020908152604091829020805460ff191685151590811790915582519384529083015280517fb21eb88b4e33b3f1281830a7178d74d8aa73220416215726b68ae23d539515cb9281900390910190a15050565b60805160601c60a05160601c60c05160601c60e05160601c6101005160601c61012051610140516126066200024760003980610b3d528061206c525080610b1952806112ec5250806120da525080611841528061199e5250806117f75280611b9d528061210e525080611872528061196f525080610eb25280611c8952506126066000f3fe608060405234801561001057600080fd5b506004361061011b5760003560e01c80638f283970116100b2578063c10a420811610081578063dc5074af11610066578063dc5074af1461085f578063e56f8a9e14610885578063f23a6e61146108a25761011b565b8063c10a420814610780578063caed3500146108575761011b565b80638f28397014610500578063984d625214610526578063b522ecff146105f8578063bc197c811461061e5761011b565b806365194ce7116100ee57806365194ce7146103485780636e9960c3146104a657806377f1c3ac146104ca5780638a04af6a146104d25761011b565b80631187fd3c1461012057806325cb5bc014610300578063495906571461031a57806358bc294414610322575b600080fd5b6102fe600480360361012081101561013757600080fd5b6001600160a01b038235811692602081013582169260408201359092169181019060808101606082013564010000000081111561017357600080fd5b82018360208201111561018557600080fd5b803590602001918460208302840111640100000000831117156101a757600080fd5b919390928235926040810190602001356401000000008111156101c957600080fd5b8201836020820111156101db57600080fd5b803590602001918460208302840111640100000000831117156101fd57600080fd5b91939092909160208101903564010000000081111561021b57600080fd5b82018360208201111561022d57600080fd5b8035906020019184602083028401116401000000008311171561024f57600080fd5b91939092909160208101903564010000000081111561026d57600080fd5b82018360208201111561027f57600080fd5b803590602001918460018302840111640100000000831117156102a157600080fd5b9193909290916020810190356401000000008111156102bf57600080fd5b8201836020820111156102d157600080fd5b803590602001918460018302840111640100000000831117156102f357600080fd5b509092509050610937565b005b610308610b17565b60408051918252519081900360200190f35b610308610b3b565b6102fe6004803603602081101561033857600080fd5b50356001600160a01b0316610b5f565b6103ee6004803603602081101561035e57600080fd5b81019060208101813564010000000081111561037957600080fd5b82018360208201111561038b57600080fd5b803590602001918460018302840111640100000000831117156103ad57600080fd5b91908080601f016020809104026020016040519081016040528093929190818152602001838380828437600092019190915250929550610c0a945050505050565b6040518080602001866001600160a01b03166001600160a01b03168152602001856001600160a01b03166001600160a01b03168152602001848152602001838152602001828103825287818151815260200191508051906020019080838360005b8381101561046757818101518382015260200161044f565b50505050905090810190601f1680156104945780820380516001836020036101000a031916815260200191505b50965050505050505060405180910390f35b6104ae610d0f565b604080516001600160a01b039092168252519081900360200190f35b610308610d1e565b6102fe600480360360408110156104e857600080fd5b506001600160a01b0381351690602001351515610d24565b6102fe6004803603602081101561051657600080fd5b50356001600160a01b0316610d7b565b6102fe6004803603606081101561053c57600080fd5b6001600160a01b03823516919081019060408101602082013564010000000081111561056757600080fd5b82018360208201111561057957600080fd5b8035906020019184602083028401116401000000008311171561059b57600080fd5b9193909290916020810190356401000000008111156105b957600080fd5b8201836020820111156105cb57600080fd5b803590602001918460208302840111640100000000831117156105ed57600080fd5b509092509050610e51565b6102fe6004803603602081101561060e57600080fd5b50356001600160a01b0316610fdc565b61074b600480360360a081101561063457600080fd5b6001600160a01b03823581169260208101359091169181019060608101604082013564010000000081111561066857600080fd5b82018360208201111561067a57600080fd5b8035906020019184602083028401116401000000008311171561069c57600080fd5b9193909290916020810190356401000000008111156106ba57600080fd5b8201836020820111156106cc57600080fd5b803590602001918460208302840111640100000000831117156106ee57600080fd5b91939092909160208101903564010000000081111561070c57600080fd5b82018360208201111561071e57600080fd5b8035906020019184600183028401116401000000008311171561074057600080fd5b5090925090506110c5565b604080517fffffffff000000000000000000000000000000000000000000000000000000009092168252519081900360200190f35b610843600480360360a081101561079657600080fd5b8101906020810181356401000000008111156107b157600080fd5b8201836020820111156107c357600080fd5b803590602001918460018302840111640100000000831117156107e557600080fd5b91908080601f016020809104026020016040519081016040528093929190818152602001838380828437600092019190915250929550506001600160a01b0383358116945060208401351692604081013592506060013590506110f2565b604080519115158252519081900360200190f35b6104ae61122e565b6108436004803603602081101561087557600080fd5b50356001600160a01b031661123d565b6102fe6004803603602081101561089b57600080fd5b503561125b565b61074b600480360360a08110156108b857600080fd5b6001600160a01b03823581169260208101359091169160408201359160608101359181019060a0810160808201356401000000008111156108f857600080fd5b82018360208201111561090a57600080fd5b8035906020019184600183028401116401000000008311171561092c57600080fd5b5090925090506112bf565b6109418e8d6112ea565b610a388d8d8d8d80806020026020016040519081016040528093929190818152602001838360200280828437600081840152601f19601f820116905080830192505050505050508c8c8c80806020026020016040519081016040528093929190818152602001838360200280828437600081840152601f19601f820116905080830192505050505050508b8b8080602002602001604051908101604052809392919081815260200183836020028082843760009201919091525050604080516020601f8d018190048102820181019092528b815292508b91508a908190840183828082843760009201919091525061144d92505050565b610a8c8e8c8c6003818110610a4957fe5b9050602002013586868080601f0160208091040260200160405190810160405280939291908181526020018383808284376000920191909152506117d092505050565b610aca8e8e8d8d8080602002602001604051908101604052809392919081815260200183836020028082843760009201919091525061182192505050565b610b078d898980806020026020016040519081016040528093929190818152602001838360200280828437600092019190915250611c1292505050565b5050505050505050505050505050565b7f000000000000000000000000000000000000000000000000000000000000000090565b7f000000000000000000000000000000000000000000000000000000000000000090565b6000546001600160a01b03163314610bbe576040805162461bcd60e51b815260206004820152601060248201527f53656e646572206e6f742061646d696e00000000000000000000000000000000604482015290519081900360640190fd5b600554600280546001600160a01b03908116600090815260046020526040902042909301909255805473ffffffffffffffffffffffffffffffffffffffff191692909116919091179055565b606060008060008060606000806000808a80602001905160a0811015610c2f57600080fd5b8101908080516040519392919084640100000000821115610c4f57600080fd5b908301906020820185811115610c6457600080fd5b8251640100000000811182820188101715610c7e57600080fd5b82525081516020918201929091019080838360005b83811015610cab578181015183820152602001610c93565b50505050905090810190601f168015610cd85780820380516001836020036101000a031916815260200191505b5060409081526020820151908201516060830151608090930151959f50909d509b5099509197505050505050505091939590929450565b6000546001600160a01b031690565b60035490565b6000546001600160a01b03163314610d6d5760405162461bcd60e51b815260040180806020018281038252602e8152602001806125a3602e913960400191505060405180910390fd5b610d778282611dd6565b5050565b6000546001600160a01b03163314610dda576040805162461bcd60e51b815260206004820152601b60248201527f6f6e6c792061646d696e2063616e206368616e67652061646d696e0000000000604482015290519081900360640190fd5b600054604080516001600160a01b039283168152918316602083015280517f7e644d79422f17c01e4894b5f4f588d331ebfa28653d42ae832dc59e38c9798f9281900390910190a16000805473ffffffffffffffffffffffffffffffffffffffff19166001600160a01b0392909216919091179055565b6000546001600160a01b03163314610eb0576040805162461bcd60e51b815260206004820152600e60248201527f4e4f545f415554484f52495a4544000000000000000000000000000000000000604482015290519081900360640190fd5b7f00000000000000000000000000000000000000000000000000000000000000006001600160a01b0316632eb2c2d63087878787876040518763ffffffff1660e01b815260040180876001600160a01b03166001600160a01b03168152602001866001600160a01b03166001600160a01b031681526020018060200180602001806020018481038452888882818152602001925060200280828437600083820152601f01601f19169091018581038452868152602090810191508790870280828437600081840152601f19601f8201169050808301925050508481038252600081526020016020019950505050505050505050600060405180830381600087803b158015610fbd57600080fd5b505af1158015610fd1573d6000803e3d6000fd5b505050505050505050565b6001600160a01b038116611037576040805162461bcd60e51b815260206004820152600c60248201527f5a45524f5f414444524553530000000000000000000000000000000000000000604482015290519081900360640190fd5b6000546001600160a01b03163314611096576040805162461bcd60e51b815260206004820152600e60248201527f4e4f545f415554484f52495a4544000000000000000000000000000000000000604482015290519081900360640190fd5b6006805473ffffffffffffffffffffffffffffffffffffffff19166001600160a01b0392909216919091179055565b7fbc197c810000000000000000000000000000000000000000000000000000000098975050505050505050565b60006003548211806111155750836001600160a01b0316856001600160a01b0316145b8061111f57508242115b1561112c57506000611225565b60408051606087811b7fffffffffffffffffffffffffffffffffffffffff0000000000000000000000009081166020808501919091529188901b166034830152604882018690526068808301869052835180840390910181526088830184528051908201207f19457468657265756d205369676e6564204d6573736167653a0a33320000000060a884015260c48084018290528451808503909101815260e490930190935281519101206000906111e39089611e58565b6001600160a01b038116600090815260046020526040902054909150421161121057600192505050611225565b6002546001600160a01b039081169116149150505b95945050505050565b6002546001600160a01b031690565b6001600160a01b031660009081526001602052604090205460ff1690565b6000546001600160a01b031633146112ba576040805162461bcd60e51b815260206004820152601060248201527f53656e646572206e6f742061646d696e00000000000000000000000000000000604482015290519081900360640190fd5b600355565b7ff23a6e61000000000000000000000000000000000000000000000000000000009695505050505050565b7f0000000000000000000000000000000000000000000000000000000000000000421061135e576040805162461bcd60e51b815260206004820152600c60248201527f53414c455f49535f4f5645520000000000000000000000000000000000000000604482015290519081900360640190fd5b6001600160a01b03821633148061138457503360009081526001602052604090205460ff165b6113d5576040805162461bcd60e51b815260206004820152600e60248201527f4e4f545f415554484f52495a4544000000000000000000000000000000000000604482015290519081900360640190fd5b6001600160a01b03811615806113fc5750816001600160a01b0316816001600160a01b0316145b610d77576040805162461bcd60e51b815260206004820152600d60248201527f52455345525645445f4c414e4400000000000000000000000000000000000000604482015290519081900360640190fd5b600087878760008151811061145e57fe5b60200260200101518860018151811061147357fe5b60200260200101518960028151811061148857fe5b60200260200101518a60038151811061149d57fe5b60200260200101518a8a60405160200180828051906020019060200280838360005b838110156114d75781810151838201526020016114bf565b50505050905001915050604051602081830303815290604052805190602001208a60405160200180828051906020019060200280838360005b83811015611528578181015183820152602001611510565b5050505090500191505060405160208183030381529060405280519060200120604051602001808a6001600160a01b03166001600160a01b031660601b8152601401896001600160a01b03166001600160a01b031660601b81526014018881526020018781526020018681526020018581526020018481526020018381526020018281526020019950505050505050505050604051602081830303815290604052805190602001209050600760009054906101000a90046001600160a01b03166001600160a01b031663012847ed83836040518363ffffffff1660e01b81526004018080602001838152602001828103825284818151815260200191508051906020019080838360005b8381101561164a578181015183820152602001611632565b50505050905090810190601f1680156116775780820380516001836020036101000a031916815260200191505b50935050505060206040518083038186803b15801561169557600080fd5b505afa1580156116a9573d6000803e3d6000fd5b505050506040513d60208110156116bf57600080fd5b5051611712576040805162461bcd60e51b815260206004820152600c60248201527f494e56414c49445f415554480000000000000000000000000000000000000000604482015290519081900360640190fd5b60006117738760008151811061172457fe5b60200260200101518860018151811061173957fe5b60200260200101518960028151811061174e57fe5b60200260200101518a60038151811061176357fe5b60200260200101518c8b8b611f25565b905061177f8482611fca565b610fd1576040805162461bcd60e51b815260206004820152600c60248201527f494e56414c49445f4c414e440000000000000000000000000000000000000000604482015290519081900360640190fd5b60006117dc8484612095565b60065490915061181b908590839085906001600160a01b03167f00000000000000000000000000000000000000000000000000000000000000006121ee565b50505050565b8060028151811061182e57fe5b60200260200101516001148061186b57507f00000000000000000000000000000000000000000000000000000000000000006001600160a01b0316155b1561196d577f00000000000000000000000000000000000000000000000000000000000000006001600160a01b0316636e1e3bbf83836002815181106118ad57fe5b6020026020010151846000815181106118c257fe5b6020026020010151856001815181106118d757fe5b60200260200101516040518563ffffffff1660e01b815260040180856001600160a01b03166001600160a01b031681526020018481526020018381526020018281526020018060200182810382526000815260200160200195505050505050600060405180830381600087803b15801561195057600080fd5b505af1158015611964573d6000803e3d6000fd5b50505050611b0d565b7f00000000000000000000000000000000000000000000000000000000000000006001600160a01b0316636e1e3bbf7f0000000000000000000000000000000000000000000000000000000000000000836002815181106119ca57fe5b6020026020010151846000815181106119df57fe5b6020026020010151856001815181106119f457fe5b60200260200101518760405160200180826001600160a01b03166001600160a01b031681526020019150506040516020818303038152906040526040518663ffffffff1660e01b815260040180866001600160a01b03166001600160a01b0316815260200185815260200184815260200183815260200180602001828103825283818151815260200191508051906020019080838360005b83811015611aa4578181015183820152602001611a8c565b50505050905090810190601f168015611ad15780820380516001836020036101000a031916815260200191505b509650505050505050600060405180830381600087803b158015611af457600080fd5b505af1158015611b08573d6000803e3d6000fd5b505050505b61019881600181518110611b1d57fe5b60200260200101510281600081518110611b3357fe5b602002602001015101826001600160a01b0316846001600160a01b03167fe4dfa6ac11314892f3029b34a25b1a887da3b1cab2bbf8506d87128ba6e3ac0284600281518110611b7e57fe5b602002602001015185600381518110611b9357fe5b60200260200101517f000000000000000000000000000000000000000000000000000000000000000087600381518110611bc957fe5b602002602001015160405180858152602001848152602001836001600160a01b03166001600160a01b0316815260200182815260200194505050505060405180910390a4505050565b6060815167ffffffffffffffff81118015611c2c57600080fd5b50604051908082528060200260200182016040528015611c56578160200160208202803683370190505b50905060005b8251811015611c86576001828281518110611c7357fe5b6020908102919091010152600101611c5c565b507f00000000000000000000000000000000000000000000000000000000000000006001600160a01b0316632eb2c2d6308585856040518563ffffffff1660e01b815260040180856001600160a01b03166001600160a01b03168152602001846001600160a01b03166001600160a01b03168152602001806020018060200180602001848103845286818151815260200191508051906020019060200280838360005b83811015611d41578181015183820152602001611d29565b50505050905001848103835285818151815260200191508051906020019060200280838360005b83811015611d80578181015183820152602001611d68565b50505050905001848103825260008152602001602001975050505050505050600060405180830381600087803b158015611db957600080fd5b505af1158015611dcd573d6000803e3d6000fd5b50505050505050565b6001600160a01b03821660008181526001602090815260409182902080547fffffffffffffffffffffffffffffffffffffffffffffffffffffffffffffff001685151590811790915582519384529083015280517fb21eb88b4e33b3f1281830a7178d74d8aa73220416215726b68ae23d539515cb9281900390910190a15050565b60008151604114611e6857600080fd5b60208201516040830151606084015160001a601b811015611e8757601b015b8060ff16601b1480611e9c57508060ff16601c145b611ea557600080fd5b6040805160008152602080820180845289905260ff8416828401526060820186905260808201859052915160019260a0808401939192601f1981019281900390910190855afa158015611efc573d6000803e3d6000fd5b5050604051601f1901519450506001600160a01b038416611f1c57600080fd5b50505092915050565b60008787878787878760405160200180888152602001878152602001868152602001858152602001846001600160a01b03166001600160a01b031660601b8152601401838152602001828051906020019060200280838360005b83811015611f97578181015183820152602001611f7f565b50505050905001975050505050505050604051602081830303815290604052805190602001209050979650505050505050565b600081815b8451811015612069576000858281518110611fe657fe5b602002602001015190508083101561202e5782816040516020018083815260200182815260200192505050604051602081830303815290604052805190602001209250612060565b808360405160200180838152602001828152602001925050506040516020818303038152906040528051906020012092505b50600101611fcf565b507f00000000000000000000000000000000000000000000000000000000000000001490505b92915050565b6000806120ba60646120ae85600563ffffffff61247016565b9063ffffffff6124e016565b604080516323b872dd60e01b81526001600160a01b0387811660048301527f0000000000000000000000000000000000000000000000000000000000000000811660248301526044820184905291519293507f0000000000000000000000000000000000000000000000000000000000000000909116916323b872dd916064808201926020929091908290030181600087803b15801561215957600080fd5b505af115801561216d573d6000803e3d6000fd5b505050506040513d602081101561218357600080fd5b50516121d6576040805162461bcd60e51b815260206004820152601360248201527f4645455f5452414e534645525f4641494c454400000000000000000000000000604482015290519081900360640190fd5b6121e6838263ffffffff61254516565b949350505050565b8251819085901561239857606060008060008061220a8a610c0a565b939850919650945092509050600061222586868686866110f2565b156122b35761223f6122378d84612470565b6127106124e0565b9050886001600160a01b0316846001600160a01b0316866001600160a01b03167fac7a699eb95c3c6d390ec4626de17ef9a67b35891efdb197beba7c7fdd45fac48f858760405180848152602001838152602001828152602001935050505060405180910390a46122b08782612545565b96505b801561239157604080516323b872dd60e01b81526001600160a01b038f811660048301528781166024830152604482018490529151918a16916323b872dd916064808201926020929091908290030181600087803b15801561231457600080fd5b505af1158015612328573d6000803e3d6000fd5b505050506040513d602081101561233e57600080fd5b5051612391576040805162461bcd60e51b815260206004820152601960248201527f636f6d6d6973696f6e207472616e73666572206661696c656400000000000000604482015290519081900360640190fd5b5050505050505b604080516323b872dd60e01b81526001600160a01b0389811660048301528681166024830152604482018490529151918416916323b872dd916064808201926020929091908290030181600087803b1580156123f357600080fd5b505af1158015612407573d6000803e3d6000fd5b505050506040513d602081101561241d57600080fd5b5051611dcd576040805162461bcd60e51b815260206004820152601760248201527f7061796d656e74207472616e73666572206661696c6564000000000000000000604482015290519081900360640190fd5b60008261247f5750600061208f565b508181028183828161248d57fe5b041461208f576040805162461bcd60e51b815260206004820152600860248201527f6f766572666c6f77000000000000000000000000000000000000000000000000604482015290519081900360640190fd5b600081612534576040805162461bcd60e51b815260206004820152600960248201527f64697662797a65726f0000000000000000000000000000000000000000000000604482015290519081900360640190fd5b81838161253d57fe5b049392505050565b60008282111561259c576040805162461bcd60e51b815260206004820152600860248201527f756e6465666c6f77000000000000000000000000000000000000000000000000604482015290519081900360640190fd5b5090039056fe6f6e6c792061646d696e2063616e207365747570206d6574615472616e73616374696f6e50726f636573736f7273a2646970667358221220fc9205bafc138c1de206481f144dc3e7818922fbe1a20d2a71392e5e2e413c1a64736f6c63430006050033",
  "devdoc": {
    "methods": {
      "buyLandWithSand(address,address,address,uint256[],bytes32,uint256[],bytes32[],bytes,bytes)": {
        "params": {
          "buyer": "address that perform the payment",
          "info": "[X_INDEX=0] x coordinate of the Land [Y_INDEX=1] y coordinate of the Land [SIZE_INDEX=2] size of the pack of Land to purchase [PRICE_INDEX=3] price in SAND to purchase that Land",
          "proof": "merkleProof for that particular Land",
          "reserved": "the reserved address (if any)",
          "to": "address that will own the purchased Land"
        }
      },
      "changeAdmin(address)": {
        "details": "change the administrator to be `newAdmin`.",
        "params": {
          "newAdmin": "address of the new administrator."
        }
      },
      "getAdmin()": {
        "details": "gives the current administrator of this contract.",
        "returns": {
          "_0": "the current administrator of this contract."
        }
      },
      "getSigningWallet()": {
        "details": "signing wallet authorized for referral",
        "returns": {
          "_0": "the address of the signing wallet"
        }
      },
      "isMetaTransactionProcessor(address)": {
        "details": "check whether address `who` is given meta-transaction execution rights.",
        "params": {
          "who": "The address to query."
        },
        "returns": {
          "_0": "whether the address has meta-transaction execution rights."
        }
      },
      "isReferralValid(bytes,address,address,uint256,uint256)": {
        "params": {
          "commissionRate": "The commissionRate of the referral",
          "expiryTime": "The expiry time of the referral",
          "referee": "The address of the referee",
          "referrer": "The address of the referrer",
          "signature": "The signature to check (signed referral)"
        },
        "returns": {
          "_0": "True if the referral is valid"
        }
      },
      "setMetaTransactionProcessor(address,bool)": {
        "details": "Enable or disable the ability of `metaTransactionProcessor` to perform meta-tx (metaTransactionProcessor rights).",
        "params": {
          "enabled": "set whether the metaTransactionProcessor is enabled or disabled.",
          "metaTransactionProcessor": "address that will be given/removed metaTransactionProcessor rights."
        }
      },
      "setReceivingWallet(address)": {
        "params": {
          "newWallet": "address of the new receiving wallet"
        }
      },
      "updateMaxCommissionRate(uint256)": {
        "details": "Update the maximum commission rate",
        "params": {
          "newMaxCommissionRate": "The new maximum commission rate"
        }
      },
      "updateSigningWallet(address)": {
        "details": "Update the signing wallet",
        "params": {
          "newSigningWallet": "The new address of the signing wallet"
        }
      },
      "withdrawAssets(address,uint256[],uint256[])": {
        "params": {
          "assetIds": "the assetIds to be transferred",
          "to": "intended recipient of the asset tokens",
          "values": "the quantities of the assetIds to be transferred"
        }
      }
    },
    "title": "Estate Sale contract with referral"
  },
  "userdoc": {
    "methods": {
      "buyLandWithSand(address,address,address,uint256[],bytes32,uint256[],bytes32[],bytes,bytes)": {
        "notice": "buy Land with SAND using the merkle proof associated with it"
      },
      "getExpiryTime()": {
        "notice": "Gets the expiry time for the current sale"
      },
      "getMaxCommisionRate()": {
        "notice": "the max commision rate"
      },
      "getMerkleRoot()": {
        "notice": "Gets the Merkle root associated with the current sale"
      },
      "isReferralValid(bytes,address,address,uint256,uint256)": {
        "notice": "Check if a referral is valid"
      },
      "setReceivingWallet(address)": {
        "notice": "set the wallet receiving the proceeds"
      },
      "withdrawAssets(address,uint256[],uint256[])": {
        "notice": "enable Admin to withdraw remaining assets from EstateSaleWithFee contract"
      }
    },
    "notice": "This contract manages the sale of our lands as Estates"
  },
  "storageLayout": {
    "storage": [
      {
        "astId": 13650,
        "contract": "src/solc_0.6/EstateSale/EstateSaleWithAuth.sol:EstateSaleWithAuth",
        "label": "_admin",
        "offset": 0,
        "slot": "0",
        "type": "t_address"
      },
      {
        "astId": 13712,
        "contract": "src/solc_0.6/EstateSale/EstateSaleWithAuth.sol:EstateSaleWithAuth",
        "label": "_metaTransactionContracts",
        "offset": 0,
        "slot": "1",
        "type": "t_mapping(t_address,t_bool)"
      },
      {
        "astId": 11828,
        "contract": "src/solc_0.6/EstateSale/EstateSaleWithAuth.sol:EstateSaleWithAuth",
        "label": "_signingWallet",
        "offset": 0,
        "slot": "2",
        "type": "t_address"
      },
      {
        "astId": 11830,
        "contract": "src/solc_0.6/EstateSale/EstateSaleWithAuth.sol:EstateSaleWithAuth",
        "label": "_maxCommissionRate",
        "offset": 0,
        "slot": "3",
        "type": "t_uint256"
      },
      {
        "astId": 11834,
        "contract": "src/solc_0.6/EstateSale/EstateSaleWithAuth.sol:EstateSaleWithAuth",
        "label": "_previousSigningWallets",
        "offset": 0,
        "slot": "4",
        "type": "t_mapping(t_address,t_uint256)"
      },
      {
        "astId": 11843,
        "contract": "src/solc_0.6/EstateSale/EstateSaleWithAuth.sol:EstateSaleWithAuth",
        "label": "_previousSigningDelay",
        "offset": 0,
        "slot": "5",
        "type": "t_uint256"
      },
      {
        "astId": 7453,
        "contract": "src/solc_0.6/EstateSale/EstateSaleWithAuth.sol:EstateSaleWithAuth",
        "label": "_wallet",
        "offset": 0,
        "slot": "6",
        "type": "t_address_payable"
      },
      {
        "astId": 7455,
        "contract": "src/solc_0.6/EstateSale/EstateSaleWithAuth.sol:EstateSaleWithAuth",
        "label": "_authValidator",
        "offset": 0,
        "slot": "7",
        "type": "t_contract(AuthValidator)6784"
      }
    ],
    "types": {
      "t_address": {
        "encoding": "inplace",
        "label": "address",
        "numberOfBytes": "20"
      },
      "t_address_payable": {
        "encoding": "inplace",
        "label": "address payable",
        "numberOfBytes": "20"
      },
      "t_bool": {
        "encoding": "inplace",
        "label": "bool",
        "numberOfBytes": "1"
      },
      "t_contract(AuthValidator)6784": {
        "encoding": "inplace",
        "label": "contract AuthValidator",
        "numberOfBytes": "20"
      },
      "t_mapping(t_address,t_bool)": {
        "encoding": "mapping",
        "key": "t_address",
        "label": "mapping(address => bool)",
        "numberOfBytes": "32",
        "value": "t_bool"
      },
      "t_mapping(t_address,t_uint256)": {
        "encoding": "mapping",
        "key": "t_address",
        "label": "mapping(address => uint256)",
        "numberOfBytes": "32",
        "value": "t_uint256"
      },
      "t_uint256": {
        "encoding": "inplace",
        "label": "uint256",
        "numberOfBytes": "32"
      }
    }
  }
}