{
  "address": "0xA63F46B3dee6D9fFC7fd31d0D5BBb5f4b9f92cA4",
  "abi": [
    {
      "inputs": [
        {
          "internalType": "address",
          "name": "landAddress",
          "type": "address"
        },
        {
          "internalType": "address",
          "name": "sandContractAddress",
          "type": "address"
        },
        {
          "internalType": "address",
          "name": "initialMetaTx",
          "type": "address"
        },
        {
          "internalType": "address",
          "name": "admin",
          "type": "address"
        },
        {
          "internalType": "address payable",
          "name": "initialWalletAddress",
          "type": "address"
        },
        {
          "internalType": "bytes32",
          "name": "merkleRoot",
          "type": "bytes32"
        },
        {
          "internalType": "uint256",
          "name": "expiryTime",
          "type": "uint256"
        },
        {
          "internalType": "address",
          "name": "initialSigningWallet",
          "type": "address"
        },
        {
          "internalType": "uint256",
          "name": "initialMaxCommissionRate",
          "type": "uint256"
        },
        {
          "internalType": "address",
          "name": "estate",
          "type": "address"
        },
        {
          "internalType": "address",
          "name": "asset",
          "type": "address"
        },
        {
          "internalType": "address",
          "name": "feeDistributor",
          "type": "address"
        }
      ],
      "stateMutability": "nonpayable",
      "type": "constructor"
    },
    {
      "anonymous": false,
      "inputs": [
        {
          "indexed": false,
          "internalType": "address",
          "name": "oldAdmin",
          "type": "address"
        },
        {
          "indexed": false,
          "internalType": "address",
          "name": "newAdmin",
          "type": "address"
        }
      ],
      "name": "AdminChanged",
      "type": "event"
    },
    {
      "anonymous": false,
      "inputs": [
        {
          "indexed": true,
          "internalType": "address",
          "name": "buyer",
          "type": "address"
        },
        {
          "indexed": true,
          "internalType": "address",
          "name": "to",
          "type": "address"
        },
        {
          "indexed": true,
          "internalType": "uint256",
          "name": "topCornerId",
          "type": "uint256"
        },
        {
          "indexed": false,
          "internalType": "uint256",
          "name": "size",
          "type": "uint256"
        },
        {
          "indexed": false,
          "internalType": "uint256",
          "name": "price",
          "type": "uint256"
        },
        {
          "indexed": false,
          "internalType": "address",
          "name": "token",
          "type": "address"
        },
        {
          "indexed": false,
          "internalType": "uint256",
          "name": "amountPaid",
          "type": "uint256"
        }
      ],
      "name": "LandQuadPurchased",
      "type": "event"
    },
    {
      "anonymous": false,
      "inputs": [
        {
          "indexed": false,
          "internalType": "address",
          "name": "metaTransactionProcessor",
          "type": "address"
        },
        {
          "indexed": false,
          "internalType": "bool",
          "name": "enabled",
          "type": "bool"
        }
      ],
      "name": "MetaTransactionProcessor",
      "type": "event"
    },
    {
      "anonymous": false,
      "inputs": [
        {
          "indexed": true,
          "internalType": "address",
          "name": "referrer",
          "type": "address"
        },
        {
          "indexed": true,
          "internalType": "address",
          "name": "referee",
          "type": "address"
        },
        {
          "indexed": true,
          "internalType": "address",
          "name": "token",
          "type": "address"
        },
        {
          "indexed": false,
          "internalType": "uint256",
          "name": "amount",
          "type": "uint256"
        },
        {
          "indexed": false,
          "internalType": "uint256",
          "name": "commission",
          "type": "uint256"
        },
        {
          "indexed": false,
          "internalType": "uint256",
          "name": "commissionRate",
          "type": "uint256"
        }
      ],
      "name": "ReferralUsed",
      "type": "event"
    },
    {
      "inputs": [
        {
          "internalType": "address",
          "name": "buyer",
          "type": "address"
        },
        {
          "internalType": "address",
          "name": "to",
          "type": "address"
        },
        {
          "internalType": "address",
          "name": "reserved",
          "type": "address"
        },
        {
          "internalType": "uint256",
          "name": "x",
          "type": "uint256"
        },
        {
          "internalType": "uint256",
          "name": "y",
          "type": "uint256"
        },
        {
          "internalType": "uint256",
          "name": "size",
          "type": "uint256"
        },
        {
          "internalType": "uint256",
          "name": "priceInSand",
          "type": "uint256"
        },
        {
          "internalType": "uint256",
          "name": "adjustedPriceInSand",
          "type": "uint256"
        },
        {
          "internalType": "bytes32",
          "name": "salt",
          "type": "bytes32"
        },
        {
          "internalType": "uint256[]",
          "name": "assetIds",
          "type": "uint256[]"
        },
        {
          "internalType": "bytes32[]",
          "name": "proof",
          "type": "bytes32[]"
        },
        {
          "internalType": "bytes",
          "name": "referral",
          "type": "bytes"
        }
      ],
      "name": "buyLandWithSand",
      "outputs": [],
      "stateMutability": "nonpayable",
      "type": "function"
    },
    {
      "inputs": [
        {
          "internalType": "address",
          "name": "newAdmin",
          "type": "address"
        }
      ],
      "name": "changeAdmin",
      "outputs": [],
      "stateMutability": "nonpayable",
      "type": "function"
    },
    {
      "inputs": [
        {
          "internalType": "bytes",
          "name": "referral",
          "type": "bytes"
        }
      ],
      "name": "decodeReferral",
      "outputs": [
        {
          "internalType": "bytes",
          "name": "",
          "type": "bytes"
        },
        {
          "internalType": "address",
          "name": "",
          "type": "address"
        },
        {
          "internalType": "address",
          "name": "",
          "type": "address"
        },
        {
          "internalType": "uint256",
          "name": "",
          "type": "uint256"
        },
        {
          "internalType": "uint256",
          "name": "",
          "type": "uint256"
        }
      ],
      "stateMutability": "pure",
      "type": "function"
    },
    {
      "inputs": [],
      "name": "getAdmin",
      "outputs": [
        {
          "internalType": "address",
          "name": "",
          "type": "address"
        }
      ],
      "stateMutability": "view",
      "type": "function"
    },
    {
      "inputs": [],
      "name": "getExpiryTime",
      "outputs": [
        {
          "internalType": "uint256",
          "name": "",
          "type": "uint256"
        }
      ],
      "stateMutability": "view",
      "type": "function"
    },
    {
      "inputs": [],
      "name": "getMaxCommisionRate",
      "outputs": [
        {
          "internalType": "uint256",
          "name": "",
          "type": "uint256"
        }
      ],
      "stateMutability": "view",
      "type": "function"
    },
    {
      "inputs": [],
      "name": "getMerkleRoot",
      "outputs": [
        {
          "internalType": "bytes32",
          "name": "",
          "type": "bytes32"
        }
      ],
      "stateMutability": "view",
      "type": "function"
    },
    {
      "inputs": [],
      "name": "getSandMultiplier",
      "outputs": [
        {
          "internalType": "uint256",
          "name": "",
          "type": "uint256"
        }
      ],
      "stateMutability": "view",
      "type": "function"
    },
    {
      "inputs": [],
      "name": "getSigningWallet",
      "outputs": [
        {
          "internalType": "address",
          "name": "",
          "type": "address"
        }
      ],
      "stateMutability": "view",
      "type": "function"
    },
    {
      "inputs": [
        {
          "internalType": "address",
          "name": "who",
          "type": "address"
        }
      ],
      "name": "isMetaTransactionProcessor",
      "outputs": [
        {
          "internalType": "bool",
          "name": "",
          "type": "bool"
        }
      ],
      "stateMutability": "view",
      "type": "function"
    },
    {
      "inputs": [
        {
          "internalType": "bytes",
          "name": "signature",
          "type": "bytes"
        },
        {
          "internalType": "address",
          "name": "referrer",
          "type": "address"
        },
        {
          "internalType": "address",
          "name": "referee",
          "type": "address"
        },
        {
          "internalType": "uint256",
          "name": "expiryTime",
          "type": "uint256"
        },
        {
          "internalType": "uint256",
          "name": "commissionRate",
          "type": "uint256"
        }
      ],
      "name": "isReferralValid",
      "outputs": [
        {
          "internalType": "bool",
          "name": "",
          "type": "bool"
        }
      ],
      "stateMutability": "view",
      "type": "function"
    },
    {
      "inputs": [
        {
          "internalType": "address",
          "name": "",
          "type": "address"
        },
        {
          "internalType": "address",
          "name": "",
          "type": "address"
        },
        {
          "internalType": "uint256[]",
          "name": "",
          "type": "uint256[]"
        },
        {
          "internalType": "uint256[]",
          "name": "",
          "type": "uint256[]"
        },
        {
          "internalType": "bytes",
          "name": "",
          "type": "bytes"
        }
      ],
      "name": "onERC1155BatchReceived",
      "outputs": [
        {
          "internalType": "bytes4",
          "name": "",
          "type": "bytes4"
        }
      ],
      "stateMutability": "pure",
      "type": "function"
    },
    {
      "inputs": [
        {
          "internalType": "address",
          "name": "",
          "type": "address"
        },
        {
          "internalType": "address",
          "name": "",
          "type": "address"
        },
        {
          "internalType": "uint256",
          "name": "",
          "type": "uint256"
        },
        {
          "internalType": "uint256",
          "name": "",
          "type": "uint256"
        },
        {
          "internalType": "bytes",
          "name": "",
          "type": "bytes"
        }
      ],
      "name": "onERC1155Received",
      "outputs": [
        {
          "internalType": "bytes4",
          "name": "",
          "type": "bytes4"
        }
      ],
      "stateMutability": "pure",
      "type": "function"
    },
    {
      "inputs": [
        {
          "internalType": "uint256",
          "name": "newMultiplier",
          "type": "uint256"
        }
      ],
      "name": "rebalanceSand",
      "outputs": [],
      "stateMutability": "nonpayable",
      "type": "function"
    },
    {
      "inputs": [
        {
          "internalType": "address",
          "name": "metaTransactionProcessor",
          "type": "address"
        },
        {
          "internalType": "bool",
          "name": "enabled",
          "type": "bool"
        }
      ],
      "name": "setMetaTransactionProcessor",
      "outputs": [],
      "stateMutability": "nonpayable",
      "type": "function"
    },
    {
      "inputs": [
        {
          "internalType": "address payable",
          "name": "newWallet",
          "type": "address"
        }
      ],
      "name": "setReceivingWallet",
      "outputs": [],
      "stateMutability": "nonpayable",
      "type": "function"
    },
    {
      "inputs": [
        {
          "internalType": "uint256",
          "name": "newMaxCommissionRate",
          "type": "uint256"
        }
      ],
      "name": "updateMaxCommissionRate",
      "outputs": [],
      "stateMutability": "nonpayable",
      "type": "function"
    },
    {
      "inputs": [
        {
          "internalType": "address",
          "name": "newSigningWallet",
          "type": "address"
        }
      ],
      "name": "updateSigningWallet",
      "outputs": [],
      "stateMutability": "nonpayable",
      "type": "function"
    },
    {
      "inputs": [
        {
          "internalType": "address",
          "name": "to",
          "type": "address"
        },
        {
          "internalType": "uint256[]",
          "name": "assetIds",
          "type": "uint256[]"
        },
        {
          "internalType": "uint256[]",
          "name": "values",
          "type": "uint256[]"
        }
      ],
      "name": "withdrawAssets",
      "outputs": [],
      "stateMutability": "nonpayable",
      "type": "function"
    }
  ],
  "transactionHash": "0x5fbaba2f6b5605374241fd311e5dd799c76e70530ad57cb17aa0b5969ae36ec2",
  "args": [
    "0xaF40A483bF77AAb7b7D13dB18187E6D62C1EA41b",
    "0xCc933a862fc15379E441F2A16Cb943D385a4695f",
    "0xCc933a862fc15379E441F2A16Cb943D385a4695f",
    "0xa4519D601F43D0b8f167842a367465681F652252",
    "0x60927eB036621b801491B6c5e9A60A8d2dEeD75A",
    "0x4d46815f1157e19278d2a9f13df22b0805db55a6f38df69a2436a7eb1a012595",
    1660309200,
    "0xB7060D3FeCAC3AE1F0A0AA416E3e8E472257950e",
    2000,
    "0x0000000000000000000000000000000000000000",
    "0x8055a2c0f7EB177BeaB357B70E6504402d2b5fF6",
    "0x5983532A5b9009E05428595b87F19e42068a232B"
  ],
  "linkedData": [
    {
      "x": 48,
      "y": 372,
      "size": 1,
      "price": "1011000000000000000000",
      "reserved": "",
      "salt": "0x375792d87e83851e6b1e26139ac995c55e1ac1a91c145c4d26d7ae56bd279dfd",
      "assetIds": []
    },
    {
      "x": 48,
      "y": 373,
      "size": 1,
      "price": "1011000000000000000000",
      "reserved": "",
      "salt": "0x4909474bb8a0c00631dcab9b67a92a015b8d2732db3c3e6203a97acb423b18ae",
      "assetIds": []
    },
    {
      "x": 48,
      "y": 374,
      "size": 1,
      "price": "1011000000000000000000",
      "reserved": "",
      "salt": "0x7f76a3b06f5b818c0cf18a0cf65d7fc74b742889cf974f219d51734e13d37c81",
      "assetIds": []
    },
    {
      "x": 48,
      "y": 375,
      "size": 1,
      "price": "1011000000000000000000",
      "reserved": "",
      "salt": "0x39c38d12b3219d67bb2278bc406d181fd0800fa70c462a2909b2d8fed59e6326",
      "assetIds": []
    },
    {
      "x": 48,
      "y": 376,
      "size": 1,
      "price": "1011000000000000000000",
      "reserved": "",
      "salt": "0x75b105070fefb17198f6d00532c08d869cd864777ab0371cc6ef620fdbac0358",
      "assetIds": []
    },
    {
      "x": 48,
      "y": 377,
      "size": 1,
      "price": "1011000000000000000000",
      "reserved": "",
      "salt": "0x2fc17ffb81ff75efa5e31fb5d9938142b728f936fab2c60cfdbb227f4f021983",
      "assetIds": []
    },
    {
      "x": 48,
      "y": 378,
      "size": 1,
      "price": "1011000000000000000000",
      "reserved": "",
      "salt": "0x9abcf2703db67f17d0373399544b1df285250a3f9c9881bd2e9063d18f2e8a4d",
      "assetIds": []
    },
    {
      "x": 48,
      "y": 379,
      "size": 1,
      "price": "1011000000000000000000",
      "reserved": "",
      "salt": "0x03bc9e4dfcd2f8c50e53db4ade4847784fce7b0d62be35ade2c6021081bccc5c",
      "assetIds": []
    },
    {
      "x": 48,
      "y": 380,
      "size": 1,
      "price": "1011000000000000000000",
      "reserved": "",
      "salt": "0x0389ef5de15329cfb5e3d718c2794092046c5f9e53d20418c02480d2f7123b1b",
      "assetIds": []
    },
    {
      "x": 49,
      "y": 372,
      "size": 1,
      "price": "1011000000000000000000",
      "reserved": "",
      "salt": "0xb265550eefb0917b4a2561047ab235443c6c64d48953fa14d0206625aff1f6cb",
      "assetIds": []
    },
    {
      "x": 49,
      "y": 373,
      "size": 1,
      "price": "1011000000000000000000",
      "reserved": "",
      "salt": "0x726f28f549ffb8330fb5f37321be202a11ac01feb6a4abf6687908410fb2e385",
      "assetIds": []
    },
    {
      "x": 49,
      "y": 374,
      "size": 1,
      "price": "1011000000000000000000",
      "reserved": "",
      "salt": "0xbbe0420f2853de13f4435b2570901186c813c784416b007688ab2c1560e2e250",
      "assetIds": []
    },
    {
      "x": 49,
      "y": 375,
      "size": 1,
      "price": "1011000000000000000000",
      "reserved": "",
      "salt": "0xf9a6d75328ebc2bfe9b8117a4f8f4116669a07284c485c8856723fec5a192a58",
      "assetIds": []
    },
    {
      "x": 49,
      "y": 376,
      "size": 1,
      "price": "1011000000000000000000",
      "reserved": "",
      "salt": "0xfd559efb90ddb2efd4095bc51258bdb0b31fdf9d9cdeea00951c58512edc56a1",
      "assetIds": []
    },
    {
      "x": 49,
      "y": 377,
      "size": 1,
      "price": "1011000000000000000000",
      "reserved": "",
      "salt": "0x4eb41ed2cf3dee86542c97c78ba2ac8b5696e2823fb191fb28f6eccc31a265d3",
      "assetIds": []
    },
    {
      "x": 49,
      "y": 378,
      "size": 1,
      "price": "1011000000000000000000",
      "reserved": "",
      "salt": "0xc4e7739fee0bc0d00c14519e42c1acd89860165d98cad038563cccccbc2626ab",
      "assetIds": []
    },
    {
      "x": 49,
      "y": 379,
      "size": 1,
      "price": "1011000000000000000000",
      "reserved": "",
      "salt": "0x392961633426ac9a493e6b4c781b648e9414416511a586cceab0a9f602116c84",
      "assetIds": []
    },
    {
      "x": 49,
      "y": 380,
      "size": 1,
      "price": "1011000000000000000000",
      "reserved": "",
      "salt": "0x53c8f7a29a43536a17960d0be165d309e49778eb3a20287f25a636d5686572c1",
      "assetIds": []
    },
    {
      "x": 50,
      "y": 372,
      "size": 1,
      "price": "1011000000000000000000",
      "reserved": "",
      "salt": "0x37ca91bb2f97ab15e2571eabcc8aff6290882f500cfd56785d6d6d20621bb969",
      "assetIds": []
    },
    {
      "x": 50,
      "y": 373,
      "size": 1,
      "price": "1011000000000000000000",
      "reserved": "",
      "salt": "0xf40674cc3830f4d5c91fa6e9732bd18a66b94434399e01958c924309069bd150",
      "assetIds": []
    },
    {
      "x": 50,
      "y": 374,
      "size": 1,
      "price": "1011000000000000000000",
      "reserved": "",
      "salt": "0xb1e7940a00bdb499c41d9f6adbb7588560046f2a9eaa6768fbe9bf75ffbbe39d",
      "assetIds": []
    },
    {
      "x": 50,
      "y": 375,
      "size": 1,
      "price": "1011000000000000000000",
      "reserved": "",
      "salt": "0x71f8a4eff6a9f2aeb9632eb30c93c75e6c776cb3954cd930bb3fc67d6eca8d36",
      "assetIds": []
    },
    {
      "x": 50,
      "y": 376,
      "size": 1,
      "price": "1011000000000000000000",
      "reserved": "",
      "salt": "0xfb44d2e59af97b69dd0c0ac2982413dcf129f9c3030c2d0258dfcff32635c0a6",
      "assetIds": []
    },
    {
      "x": 50,
      "y": 377,
      "size": 1,
      "price": "1011000000000000000000",
      "reserved": "",
      "salt": "0x0ba0235b8497d3269a6ba2e593cea191ec30562a554bc8bb291909cbfa0b7f3e",
      "assetIds": []
    },
    {
      "x": 50,
      "y": 378,
      "size": 1,
      "price": "1011000000000000000000",
      "reserved": "",
      "salt": "0x34964ca21cb4ad26d43eae44ca9dc7ab348f52f8fba0aecbe7b272ef2a96144b",
      "assetIds": []
    },
    {
      "x": 50,
      "y": 379,
      "size": 1,
      "price": "1011000000000000000000",
      "reserved": "",
      "salt": "0x220ca8bd11d92a92c379a72372969fcafebd3be150096a1085df7fe98b79a34f",
      "assetIds": []
    },
    {
      "x": 50,
      "y": 380,
      "size": 1,
      "price": "1011000000000000000000",
      "reserved": "",
      "salt": "0x9a484c5b268eb28afdcf3ecad0f29faf53e9d2c3ae34525fcce74acb9e308dfd",
      "assetIds": []
    },
    {
      "x": 51,
      "y": 372,
      "size": 1,
      "price": "1011000000000000000000",
      "reserved": "",
      "salt": "0xdacbaf166f8bf577bef79cc5b59b59c87bc0b1918fd1662c27688123612a0a3e",
      "assetIds": []
    },
    {
      "x": 51,
      "y": 373,
      "size": 1,
      "price": "1011000000000000000000",
      "reserved": "",
      "salt": "0xea6e3d66cb87b33037fd26c18c89d12b3370fdf617e8c5e82a993adc5ce01233",
      "assetIds": []
    },
    {
      "x": 51,
      "y": 374,
      "size": 1,
      "price": "1011000000000000000000",
      "reserved": "",
      "salt": "0x2ea1fbde5bf7ffcc42771ba48d767f0d8de024d42626cfc41dc07f8a78a50ea6",
      "assetIds": []
    },
    {
      "x": 51,
      "y": 378,
      "size": 1,
      "price": "1011000000000000000000",
      "reserved": "",
      "salt": "0x7fcc56b3f2ba35327ccd11d0a3c1d40686ece2a02172835f811867295c725036",
      "assetIds": []
    },
    {
      "x": 51,
      "y": 379,
      "size": 1,
      "price": "1011000000000000000000",
      "reserved": "",
      "salt": "0xde0bc2cb70988298ce8127729fa20cc465158f4383209ce587e7d1ccef214dc3",
      "assetIds": []
    },
    {
      "x": 51,
      "y": 380,
      "size": 1,
      "price": "1011000000000000000000",
      "reserved": "",
      "salt": "0x7586cc6a3809f58412e9b15d537a5c8dba572b1ac8409885565829dbe263052b",
      "assetIds": []
    },
    {
      "x": 51,
      "y": 381,
      "size": 1,
      "price": "1011000000000000000000",
      "reserved": "",
      "salt": "0x5719b9e2052ebdcf83b898c66ba3476676705e47c994413504121efd9efda662",
      "assetIds": []
    },
    {
      "x": 51,
      "y": 382,
      "size": 1,
      "price": "1011000000000000000000",
      "reserved": "",
      "salt": "0xde6f6f3901865a94db1893d0aac1783696e0ef1c711d306322f8e9028ad4b2a3",
      "assetIds": []
    },
    {
      "x": 51,
      "y": 383,
      "size": 1,
      "price": "1011000000000000000000",
      "reserved": "",
      "salt": "0x54283b36157b030027b4b98a000c0f696fc0c3e709150c21bfe207aea17bf190",
      "assetIds": []
    },
    {
      "x": 52,
      "y": 372,
      "size": 1,
      "price": "1011000000000000000000",
      "reserved": "",
      "salt": "0x04bbc1833cf187fe1902d31e35a0680823003b46eed20a23d65caebcdd957b92",
      "assetIds": []
    },
    {
      "x": 52,
      "y": 373,
      "size": 1,
      "price": "1011000000000000000000",
      "reserved": "",
      "salt": "0xf03547f25311af4a504a7b6bfacf6a4b8a323e1cc0e0c1a3f58bf6b1005d8674",
      "assetIds": []
    },
    {
      "x": 52,
      "y": 374,
      "size": 1,
      "price": "1011000000000000000000",
      "reserved": "",
      "salt": "0xc3fb6bd823348b557d85c2b142c5b6e64a069f9b39ddebf4354c91b0d62aed78",
      "assetIds": []
    },
    {
      "x": 52,
      "y": 378,
      "size": 1,
      "price": "1011000000000000000000",
      "reserved": "",
      "salt": "0x2d36d1e4470dd1d99a7c034691e5c33913683561fa4f4741be92a29ec5ff9efd",
      "assetIds": []
    },
    {
      "x": 52,
      "y": 379,
      "size": 1,
      "price": "1011000000000000000000",
      "reserved": "",
      "salt": "0x5e39bc4012f54cb3ee003bf69f1e06a0d74dbf28ea24c1a76d14903f4e631144",
      "assetIds": []
    },
    {
      "x": 52,
      "y": 380,
      "size": 1,
      "price": "1011000000000000000000",
      "reserved": "",
      "salt": "0x9f296a3a8f98ad345e0f4d0df79637bd20309ee1d033e005e96cebd52e75a4a4",
      "assetIds": []
    },
    {
      "x": 52,
      "y": 381,
      "size": 1,
      "price": "1011000000000000000000",
      "reserved": "",
      "salt": "0x2b9aac0d878dec52b28732ef943347044d62412306c16bea7d1e8147cce1bc20",
      "assetIds": []
    },
    {
      "x": 52,
      "y": 382,
      "size": 1,
      "price": "1011000000000000000000",
      "reserved": "",
      "salt": "0xda3362c514013f805627787fc1f35a09c5e6bd2c4b1aa9070887f34467519ceb",
      "assetIds": []
    },
    {
      "x": 52,
      "y": 383,
      "size": 1,
      "price": "1011000000000000000000",
      "reserved": "",
      "salt": "0x64ae8fe06ba60a8af79a6c6b554a50809d78e989550ddb68c84c7a7c53073461",
      "assetIds": []
    },
    {
      "x": 53,
      "y": 372,
      "size": 1,
      "price": "1011000000000000000000",
      "reserved": "",
      "salt": "0x636eda7742d69838775c6a1c9650f6bb760cc954c11bfd344cf8ebe63b3d093f",
      "assetIds": []
    },
    {
      "x": 53,
      "y": 373,
      "size": 1,
      "price": "1011000000000000000000",
      "reserved": "",
      "salt": "0x653587eba617d567578e961fe1bb79ad897fcfbaa963f9468826d71a61b551f6",
      "assetIds": []
    },
    {
      "x": 53,
      "y": 374,
      "size": 1,
      "price": "1011000000000000000000",
      "reserved": "",
      "salt": "0x60a8b6edb97f925168d7c1bf8fac4c20dd493d837b54fc285db2956969551c0a",
      "assetIds": []
    },
    {
      "x": 53,
      "y": 378,
      "size": 1,
      "price": "1011000000000000000000",
      "reserved": "",
      "salt": "0xad2cb306c72310d1ce54bf35b904891889ed74a0a92cead935dc48ac89dee4c2",
      "assetIds": []
    },
    {
      "x": 53,
      "y": 379,
      "size": 1,
      "price": "1011000000000000000000",
      "reserved": "",
      "salt": "0x3093015ffcbc8ecd6c190ef97a3f155c5cd30ef35c7e7010bd1395c40f957391",
      "assetIds": []
    },
    {
      "x": 53,
      "y": 380,
      "size": 1,
      "price": "1011000000000000000000",
      "reserved": "",
      "salt": "0x3e8bb5f794ed05effa92734070fa8c476f012cff3c06e31fd56bfa579ad5df2a",
      "assetIds": []
    },
    {
      "x": 53,
      "y": 381,
      "size": 1,
      "price": "1011000000000000000000",
      "reserved": "",
      "salt": "0x69c4a0cd37f6d2e8a9150b90a5e2051425e1d2cf76a3a8b22891f982ffa1528b",
      "assetIds": []
    },
    {
      "x": 53,
      "y": 382,
      "size": 1,
      "price": "1011000000000000000000",
      "reserved": "",
      "salt": "0xb2407d8baa5106337bdfe427834605ac6a6db6916d701b9c5d93cb85f5399472",
      "assetIds": []
    },
    {
      "x": 53,
      "y": 383,
      "size": 1,
      "price": "1011000000000000000000",
      "reserved": "",
      "salt": "0x702c2425399fe5790260db7df3668dda5614c2b79c073b330c38cd5a2eea2e30",
      "assetIds": []
    },
    {
      "x": 54,
      "y": 372,
      "size": 1,
      "price": "1011000000000000000000",
      "reserved": "",
      "salt": "0xfa62feb5d5ace08b7248a4eb216d547d998dca6c09f2c5d8eef1832edeeeaa75",
      "assetIds": []
    },
    {
      "x": 54,
      "y": 373,
      "size": 1,
      "price": "1011000000000000000000",
      "reserved": "",
      "salt": "0x2a1beb2c0ef5b9a71454c18f9b3653f636dde4d5d3193e2c8cdd3ee14eb9dc49",
      "assetIds": []
    },
    {
      "x": 54,
      "y": 374,
      "size": 1,
      "price": "1011000000000000000000",
      "reserved": "",
      "salt": "0x28faa7e39f01716c002e83e5bd5411a1464c8fe58533e875ea56302a11648993",
      "assetIds": []
    },
    {
      "x": 54,
      "y": 375,
      "size": 1,
      "price": "1011000000000000000000",
      "reserved": "",
      "salt": "0xcfd6425ae1a1fa112583ee394ff6b06974dd04ef36929ab733098f7d71e624c6",
      "assetIds": []
    },
    {
      "x": 54,
      "y": 376,
      "size": 1,
      "price": "1011000000000000000000",
      "reserved": "",
      "salt": "0x756b4b16ef8741084a3f6000000988a7d065e062abe644081dbec640ddda6f01",
      "assetIds": []
    },
    {
      "x": 54,
      "y": 377,
      "size": 1,
      "price": "1011000000000000000000",
      "reserved": "",
      "salt": "0x9ab5a8a2913699c47af560ffb48a7eb0df24e9ba2908d84233e7f2ac2671cdda",
      "assetIds": []
    },
    {
      "x": 54,
      "y": 378,
      "size": 1,
      "price": "1011000000000000000000",
      "reserved": "",
      "salt": "0x98530218fbbeffc52b08c6998759f1349b59819a85ed7da290eb66da021016d8",
      "assetIds": []
    },
    {
      "x": 54,
      "y": 379,
      "size": 1,
      "price": "1011000000000000000000",
      "reserved": "",
      "salt": "0xe42c024f62501984b297de805cd2206ca24e93123e05f76916889158ed55c476",
      "assetIds": []
    },
    {
      "x": 54,
      "y": 380,
      "size": 1,
      "price": "1011000000000000000000",
      "reserved": "",
      "salt": "0xa8f5f9ad7cd6b4f625774d9863e15849e0855a971f3ab40042d851001230757a",
      "assetIds": []
    },
    {
      "x": 54,
      "y": 381,
      "size": 1,
      "price": "1011000000000000000000",
      "reserved": "",
      "salt": "0xee83fc500b88e6f761adecad487a5e2622459b38a9f29ad90d9b687b00c7f095",
      "assetIds": []
    },
    {
      "x": 54,
      "y": 382,
      "size": 1,
      "price": "1011000000000000000000",
      "reserved": "",
      "salt": "0x72872514821c04cfc8c258cde0f4abdc0fe42f3a1e8c15639d2fbc56263b85a5",
      "assetIds": []
    },
    {
      "x": 54,
      "y": 383,
      "size": 1,
      "price": "1011000000000000000000",
      "reserved": "",
      "salt": "0x5a8530508d5ba25698cca2f171093197dcbf1776abb61fc3d84bae03e2b7f962",
      "assetIds": []
    },
    {
      "x": 55,
      "y": 372,
      "size": 1,
      "price": "1011000000000000000000",
      "reserved": "",
      "salt": "0x8dfb9eb0ab52845a0a1994b94a47fd45fec620b2981788393058cdccd6951dca",
      "assetIds": []
    },
    {
      "x": 55,
      "y": 373,
      "size": 1,
      "price": "1011000000000000000000",
      "reserved": "",
      "salt": "0x33d2c0b40880178f3826401e59bac50ab1317d8ea175e614b9f6ba419bda6e20",
      "assetIds": []
    },
    {
      "x": 55,
      "y": 374,
      "size": 1,
      "price": "1011000000000000000000",
      "reserved": "",
      "salt": "0x8257bbef37ec6a4ac90b2b2efafa86b871c66e8dc64455725c82084e51436d80",
      "assetIds": []
    },
    {
      "x": 55,
      "y": 375,
      "size": 1,
      "price": "1011000000000000000000",
      "reserved": "",
      "salt": "0x80a6f08c9cea88aad144c2aab28c66fe4a1181abde577657938f2f6fa18e88e1",
      "assetIds": []
    },
    {
      "x": 55,
      "y": 376,
      "size": 1,
      "price": "1011000000000000000000",
      "reserved": "",
      "salt": "0xf66998c545be5215e77aa3463f9dd568aded2b6f58a3b154aab02a8c129d98db",
      "assetIds": []
    },
    {
      "x": 55,
      "y": 377,
      "size": 1,
      "price": "1011000000000000000000",
      "reserved": "",
      "salt": "0x37870ef808f945a9d4b0eb9fa8aef554d85a128665c3847befdc5bf941d2c032",
      "assetIds": []
    },
    {
      "x": 55,
      "y": 378,
      "size": 1,
      "price": "1011000000000000000000",
      "reserved": "",
      "salt": "0x1837ad64c72261d24ddbfd525a06fe265e2780bceb7651f64d5c5468b018cb4c",
      "assetIds": []
    },
    {
      "x": 55,
      "y": 379,
      "size": 1,
      "price": "1011000000000000000000",
      "reserved": "",
      "salt": "0x52bd25e3670a745bb9b0b35851d7576360df24aab8819c13a2defffb72cfc4f3",
      "assetIds": []
    },
    {
      "x": 55,
      "y": 380,
      "size": 1,
      "price": "1011000000000000000000",
      "reserved": "",
      "salt": "0x787a2276b216d71e23124847122a2255ced9f8fe0e7a647a69dd172daf9ee771",
      "assetIds": []
    },
    {
      "x": 55,
      "y": 381,
      "size": 1,
      "price": "1011000000000000000000",
      "reserved": "",
      "salt": "0x92c0fdf05a83ead6a6b246b4b807400660e14ea9f7deb57914a31c065bdfc528",
      "assetIds": []
    },
    {
      "x": 55,
      "y": 382,
      "size": 1,
      "price": "1011000000000000000000",
      "reserved": "",
      "salt": "0x73089036cac79e18f5117aee4d544b6ad3cd37b82bc95bf860e7064b0359d52e",
      "assetIds": []
    },
    {
      "x": 55,
      "y": 383,
      "size": 1,
      "price": "1011000000000000000000",
      "reserved": "",
      "salt": "0xbb104d244c63411e577dcf13492535b7a01241346a7ea08e09ece26a4c4e0e8d",
      "assetIds": []
    },
    {
      "x": 56,
      "y": 372,
      "size": 1,
      "price": "1011000000000000000000",
      "reserved": "",
      "salt": "0x0f27b2ff874fc879da61d694242020d757ddc9101a7f3c246449a1816a0f0b91",
      "assetIds": []
    },
    {
      "x": 56,
      "y": 373,
      "size": 1,
      "price": "1011000000000000000000",
      "reserved": "",
      "salt": "0x78aba5a620eadb93f805520f4bf29331ce70f1c8b92acb4a1e2cea7a41e0c964",
      "assetIds": []
    },
    {
      "x": 56,
      "y": 374,
      "size": 1,
      "price": "1011000000000000000000",
      "reserved": "",
      "salt": "0x9f067f2e0959a1a46cd1d416eb800e95d0391d49d3c4f5d3a5663fbf1bbce3a7",
      "assetIds": []
    },
    {
      "x": 56,
      "y": 375,
      "size": 1,
      "price": "1011000000000000000000",
      "reserved": "",
      "salt": "0x748902727e21bd82f66bcabd64ed86f03f17bc1b6a205cac2d0f718102fd8d9c",
      "assetIds": []
    },
    {
      "x": 56,
      "y": 376,
      "size": 1,
      "price": "1011000000000000000000",
      "reserved": "0x7a9fe22691c811ea339d9b73150e6911a5343dca",
      "salt": "0x23976b84e15d0b5c612dca29b3769a1336b7a43c92a789bb6c9cda370dd1aeab",
      "assetIds": []
    },
    {
      "x": 56,
      "y": 377,
      "size": 1,
      "price": "1011000000000000000000",
      "reserved": "",
      "salt": "0x13508709d8b020740aac7eb6b59ec1f5584e0ca254878ebe27464998c891c40b",
      "assetIds": []
    },
    {
      "x": 56,
      "y": 378,
      "size": 1,
      "price": "1011000000000000000000",
      "reserved": "",
      "salt": "0x4c939fbccb0fc0ff5de8d8a0af4bffd0b30deb8e16fe74ed41b46be47ea9b014",
      "assetIds": []
    },
    {
      "x": 56,
      "y": 379,
      "size": 1,
      "price": "1011000000000000000000",
      "reserved": "",
      "salt": "0x63cc5c32bc6367d1e9fd1da2f2822bc8b53053fcb1f27f804f6797e9e8a5fbee",
      "assetIds": []
    },
    {
      "x": 56,
      "y": 380,
      "size": 1,
      "price": "1011000000000000000000",
      "reserved": "",
      "salt": "0xde1340027887c9dcc97b73b7f40dd71ceaab951ebd2806ce3e257577973f78f7",
      "assetIds": []
    },
    {
      "x": 56,
      "y": 381,
      "size": 1,
      "price": "1011000000000000000000",
      "reserved": "",
      "salt": "0xa56bc156521a586ef8e869fddd7856bcf924650c29dd158a00af34cd61105bf3",
      "assetIds": []
    },
    {
      "x": 56,
      "y": 382,
      "size": 1,
      "price": "1011000000000000000000",
      "reserved": "",
      "salt": "0xec17745e78c2fef4abec6f4a440fcbb384e245690319a6d484b1dcc150276021",
      "assetIds": []
    },
    {
      "x": 56,
      "y": 383,
      "size": 1,
      "price": "1011000000000000000000",
      "reserved": "",
      "salt": "0x1e66a178afa3262e259c434c23c968016f2beaa53cf5beb05ca0d829a3ffd74c",
      "assetIds": []
    },
    {
      "x": 57,
      "y": 372,
      "size": 1,
      "price": "1011000000000000000000",
      "reserved": "",
      "salt": "0xf9f8382d4e3d421d53e4c46cdf9f930c904f49e0aad7ed06413152c83fc2c770",
      "assetIds": []
    },
    {
      "x": 57,
      "y": 373,
      "size": 1,
      "price": "1011000000000000000000",
      "reserved": "",
      "salt": "0x04ce39c9fef850524cc3f4bb9580535afdb48920952abc31ab4f1803cc6d5b63",
      "assetIds": []
    },
    {
      "x": 57,
      "y": 374,
      "size": 1,
      "price": "1011000000000000000000",
      "reserved": "",
      "salt": "0xeb6f36231b4668e7d958bf9f54a0defd341b9919e4365fa3fd1395dcb490aa6e",
      "assetIds": []
    },
    {
      "x": 57,
      "y": 375,
      "size": 1,
      "price": "1011000000000000000000",
      "reserved": "",
      "salt": "0x1498236328d14d7503956dea43590579fa9f8282dbf513bf271ff0d194a9fac7",
      "assetIds": []
    },
    {
      "x": 57,
      "y": 376,
      "size": 1,
      "price": "1011000000000000000000",
      "reserved": "",
      "salt": "0x17a01f4ab6b79c7b6dfe59b9c71d695c40161b9f0af2666f176b848210f60d9f",
      "assetIds": []
    },
    {
      "x": 57,
      "y": 377,
      "size": 1,
      "price": "1011000000000000000000",
      "reserved": "",
      "salt": "0xa0db2fa7818b34a8cc1adab1207f946f32f82f79faba8309fae6ed7dd08b61f8",
      "assetIds": []
    },
    {
      "x": 57,
      "y": 381,
      "size": 1,
      "price": "1011000000000000000000",
      "reserved": "",
      "salt": "0x4a0cd209047decea1a4e589cc5980fff2935056de6018fd1f57824e875ca0d74",
      "assetIds": []
    },
    {
      "x": 57,
      "y": 382,
      "size": 1,
      "price": "1011000000000000000000",
      "reserved": "",
      "salt": "0xd54fbecd48a048f3f1f5adc85fa12a6c11fbeafdb9dea4701e36f69ac5fe0335",
      "assetIds": []
    },
    {
      "x": 57,
      "y": 383,
      "size": 1,
      "price": "1011000000000000000000",
      "reserved": "",
      "salt": "0xef0adaba53d918863be5a0c7830b22653e1517c33c591d9eff47f60e23298a9e",
      "assetIds": []
    },
    {
      "x": 58,
      "y": 372,
      "size": 1,
      "price": "1011000000000000000000",
      "reserved": "",
      "salt": "0x24e0e0a42a326aa16ba6f7f12cd88f6b84ed37515596504e5c2c46c53aa68572",
      "assetIds": []
    },
    {
      "x": 58,
      "y": 373,
      "size": 1,
      "price": "1011000000000000000000",
      "reserved": "",
      "salt": "0x260a346213d535167311c8030a95d892c3b0953ebffe072e37520e55bebf28f6",
      "assetIds": []
    },
    {
      "x": 58,
      "y": 374,
      "size": 1,
      "price": "1011000000000000000000",
      "reserved": "",
      "salt": "0x8b78fb0cd0529c4ffd6d579242e0a7e9a5cd4d9cd969a6d88eddf562cb5fc0b6",
      "assetIds": []
    },
    {
      "x": 58,
      "y": 375,
      "size": 1,
      "price": "1011000000000000000000",
      "reserved": "",
      "salt": "0xa6bd148f3f02d4df540ec06267664f7747c540b5e486d9e766c72cacb508fd4e",
      "assetIds": []
    },
    {
      "x": 58,
      "y": 376,
      "size": 1,
      "price": "1011000000000000000000",
      "reserved": "",
      "salt": "0x0ab82111690ba9b96f8a1de4af48ca994424015cfad804f463b3fa26117490f1",
      "assetIds": []
    },
    {
      "x": 58,
      "y": 377,
      "size": 1,
      "price": "4683000000000000000000",
      "reserved": "",
      "salt": "0xc68b6a3ae95d1105921d1e77ef213931681b72b1050c540ba21dfeef20b29431",
      "assetIds": [
        "41506478881403507969696680653240014914910929820314476107906210059990541021186"
      ]
    },
    {
      "x": 58,
      "y": 381,
      "size": 1,
      "price": "1011000000000000000000",
      "reserved": "",
      "salt": "0x6cae456a98fc3f47f9e31540182b7cb2b6f33462c9ec03ee51138d89e0009837",
      "assetIds": []
    },
    {
      "x": 58,
      "y": 382,
      "size": 1,
      "price": "1011000000000000000000",
      "reserved": "",
      "salt": "0xa831b86f0ad951e3a4302ab597267343b9333014b0e81314c968f1bba4977973",
      "assetIds": []
    },
    {
      "x": 58,
      "y": 383,
      "size": 1,
      "price": "1011000000000000000000",
      "reserved": "",
      "salt": "0x9ed97082168ad774e1e8937f7a35df7fb68e22039c15124a8038ff5f4b2d4ea6",
      "assetIds": []
    },
    {
      "x": 59,
      "y": 372,
      "size": 1,
      "price": "1011000000000000000000",
      "reserved": "",
      "salt": "0xc355902c076303389f536229b7682dcfbe64a8bb13354c2ff0efb8efbedceac6",
      "assetIds": []
    },
    {
      "x": 59,
      "y": 373,
      "size": 1,
      "price": "1011000000000000000000",
      "reserved": "",
      "salt": "0xdc0d0e4b0eb11f07c891ecbf77f64a8e47302450708e88cc2e126c9f1f23e380",
      "assetIds": []
    },
    {
      "x": 59,
      "y": 374,
      "size": 1,
      "price": "1011000000000000000000",
      "reserved": "",
      "salt": "0xa0a49c71a75713273d612b69e4b3e59cb1c2b329e873c3c3bd583da70420ff63",
      "assetIds": []
    },
    {
      "x": 59,
      "y": 375,
      "size": 1,
      "price": "1011000000000000000000",
      "reserved": "0x7a9fe22691c811ea339d9b73150e6911a5343dca",
      "salt": "0x49d60e5e8e88de6564793baba48f166e85155bbae4e422dad6e048d4f799a0c9",
      "assetIds": []
    },
    {
      "x": 59,
      "y": 376,
      "size": 1,
      "price": "4683000000000000000000",
      "reserved": "",
      "salt": "0xb93d25d492e82217bfebebda37eff7b580f16c9cdca8be410776d7ed8b98ac3b",
      "assetIds": [
        "41506478881403507969696680653240014914910929820314476107906210059990541021186"
      ]
    },
    {
      "x": 59,
      "y": 377,
      "size": 1,
      "price": "4683000000000000000000",
      "reserved": "",
      "salt": "0x189b5877a8ae01e796f7d3097842bc05748846ecf439e6fa6d376b3ff9f461d9",
      "assetIds": [
        "41506478881403507969696680653240014914910929820314476107906210059990541021186"
      ]
    },
    {
      "x": 59,
      "y": 381,
      "size": 1,
      "price": "4683000000000000000000",
      "reserved": "",
      "salt": "0x0e6ba630cc6bc9a7ee1b4c2423d20bb76dcc12fccbb59e4186858a78a2da2506",
      "assetIds": [
        "41506478881403507969696680653240014914910929820314476107906210059990541021186"
      ]
    },
    {
      "x": 59,
      "y": 382,
      "size": 1,
      "price": "4683000000000000000000",
      "reserved": "",
      "salt": "0xce5e7d0acb23e5da9b7059bb9e8a25d6daf057a10232befe3a4c3fadf7307db5",
      "assetIds": [
        "41506478881403507969696680653240014914910929820314476107906210059990541021186"
      ]
    },
    {
      "x": 59,
      "y": 383,
      "size": 1,
      "price": "4683000000000000000000",
      "reserved": "",
      "salt": "0x2caa4238a7a2f46f047138f07904f2b47eb0215a999a312ab2eac00a56d7d7ab",
      "assetIds": [
        "41506478881403507969696680653240014914910929820314476107906210059990541021186"
      ]
    },
    {
      "x": 60,
      "y": 355,
      "size": 1,
      "price": "1011000000000000000000",
      "reserved": "",
      "salt": "0x32296c709fcb43ec032357f12eff43fb2d3305b1c3d1bb681719e55bba491db1",
      "assetIds": []
    },
    {
      "x": 60,
      "y": 356,
      "size": 1,
      "price": "1011000000000000000000",
      "reserved": "",
      "salt": "0x559b8df0932d1144c98b597caca59bba4aaffb1e497dd54ac5f950cfffbc3c58",
      "assetIds": []
    },
    {
      "x": 60,
      "y": 357,
      "size": 1,
      "price": "1011000000000000000000",
      "reserved": "",
      "salt": "0xf9ef6d29f9948dd2bee3f3d413fa5ce8ad28574cdc40be5cd27c15ba58440794",
      "assetIds": []
    },
    {
      "x": 60,
      "y": 358,
      "size": 1,
      "price": "1011000000000000000000",
      "reserved": "",
      "salt": "0x61b5c2a61c55047ca9a96a3ce8309c593b6031902222bfd514d45d9fd3765371",
      "assetIds": []
    },
    {
      "x": 60,
      "y": 359,
      "size": 1,
      "price": "1011000000000000000000",
      "reserved": "",
      "salt": "0x8ff7ecdbf0b375fd9c3ab89f8f051e81563ee7bab51e5b1af496c14d4aaed40f",
      "assetIds": []
    },
    {
      "x": 60,
      "y": 360,
      "size": 1,
      "price": "1011000000000000000000",
      "reserved": "",
      "salt": "0x91ce8ab119ec4f3f7bd9f6aa41cbf0a2ed8002f4f1efd04b8e10bc787af8199e",
      "assetIds": []
    },
    {
      "x": 60,
      "y": 361,
      "size": 1,
      "price": "1011000000000000000000",
      "reserved": "",
      "salt": "0xc44f2552d998ed3d1100d32afecaf9eee9ebea7f936ffb48118ab0c4b230ad89",
      "assetIds": []
    },
    {
      "x": 60,
      "y": 362,
      "size": 1,
      "price": "1011000000000000000000",
      "reserved": "",
      "salt": "0x07b06a71329fb01dce5ad7bbd7e426ee0f46a6405ee2bf3a3402d16d2af13848",
      "assetIds": []
    },
    {
      "x": 60,
      "y": 366,
      "size": 1,
      "price": "1011000000000000000000",
      "reserved": "",
      "salt": "0x93dd7fdc301b9beea8133dd2b426c5530f6d68d139684a0371d3bacac56e1d86",
      "assetIds": []
    },
    {
      "x": 60,
      "y": 367,
      "size": 1,
      "price": "1011000000000000000000",
      "reserved": "",
      "salt": "0x05070a86db17d2f979e0b583b12be18bd59c115536997a1f8bda7521efdd4a25",
      "assetIds": []
    },
    {
      "x": 60,
      "y": 368,
      "size": 1,
      "price": "1011000000000000000000",
      "reserved": "",
      "salt": "0x87cb148712185072b041d61c06c3560fff02f77c9f74a2aec4d46d5d1d789f31",
      "assetIds": []
    },
    {
      "x": 60,
      "y": 369,
      "size": 1,
      "price": "1011000000000000000000",
      "reserved": "",
      "salt": "0x6c798b23cddbc2956ea1a49f0ded35e116bbf50677224f9ff246235d645515fd",
      "assetIds": []
    },
    {
      "x": 60,
      "y": 372,
      "size": 1,
      "price": "1011000000000000000000",
      "reserved": "",
      "salt": "0xa5cd7e748569c83dd373047f4cfffc53e22029ab41a1098bcb9e0bbdec40648e",
      "assetIds": []
    },
    {
      "x": 60,
      "y": 373,
      "size": 1,
      "price": "1011000000000000000000",
      "reserved": "",
      "salt": "0xc92e3af843d0c9e4a7fafef1761119c41149669ded7984d5a7c7146bf869e0b4",
      "assetIds": []
    },
    {
      "x": 60,
      "y": 374,
      "size": 1,
      "price": "1011000000000000000000",
      "reserved": "",
      "salt": "0x1ed515173d0146a0fb665caba2d7f83eff2a2dc3d625a87adf1de842627f9cb4",
      "assetIds": []
    },
    {
      "x": 60,
      "y": 375,
      "size": 1,
      "price": "1011000000000000000000",
      "reserved": "",
      "salt": "0xeff2847dd9e6c7c339ffc41338e21693415bff109e4eb583c4d79cd231f7e80a",
      "assetIds": []
    },
    {
      "x": 60,
      "y": 376,
      "size": 1,
      "price": "4683000000000000000000",
      "reserved": "",
      "salt": "0xe1cc27ae2941d4be0c1d6069975ed2c5c1bd9da599403e810957ea62777cb683",
      "assetIds": [
        "41506478881403507969696680653240014914910929820314476107906210059990541021186"
      ]
    },
    {
      "x": 60,
      "y": 377,
      "size": 1,
      "price": "4683000000000000000000",
      "reserved": "",
      "salt": "0xd3b159d66640d354c3ddbeaca7519b31858c873684eba975a41fdaa28f07052e",
      "assetIds": [
        "41506478881403507969696680653240014914910929820314476107906210059990541021186"
      ]
    },
    {
      "x": 60,
      "y": 384,
      "size": 1,
      "price": "4683000000000000000000",
      "reserved": "",
      "salt": "0x443e315fdcc6d0f1fff6d6c3c916f27f755859231a2c948aaa627991786bb712",
      "assetIds": [
        "41506478881403507969696680653240014914910929820314476107906210059990541021186"
      ]
    },
    {
      "x": 60,
      "y": 385,
      "size": 1,
      "price": "4683000000000000000000",
      "reserved": "",
      "salt": "0xbc580bb2af2422a2b295bf08de051e8fa8959066e376f9281fa3552e0fecb209",
      "assetIds": [
        "41506478881403507969696680653240014914910929820314476107906210059990541021186"
      ]
    },
    {
      "x": 60,
      "y": 386,
      "size": 1,
      "price": "1011000000000000000000",
      "reserved": "",
      "salt": "0x02ccb22fbac016802cbf239f6ddd2bb78e2117b2521eee77ad39e2801cd386e2",
      "assetIds": []
    },
    {
      "x": 60,
      "y": 387,
      "size": 1,
      "price": "1011000000000000000000",
      "reserved": "",
      "salt": "0x9ebb1037c9a2e378e4c4e8e7bd4d86d472b30429346d9fbab63ab4e3b629fca0",
      "assetIds": []
    },
    {
      "x": 60,
      "y": 388,
      "size": 1,
      "price": "1011000000000000000000",
      "reserved": "",
      "salt": "0xa5bbf2f28cdc46cc6f8be5c534d45d933967b7b79c1701a82c573e125c7da7f3",
      "assetIds": []
    },
    {
      "x": 60,
      "y": 389,
      "size": 1,
      "price": "1011000000000000000000",
      "reserved": "",
      "salt": "0xd11d5428f842eae64123248b9d592996498d8d474bd809bd98750c390b9ff58e",
      "assetIds": []
    },
    {
      "x": 60,
      "y": 396,
      "size": 1,
      "price": "1011000000000000000000",
      "reserved": "",
      "salt": "0x3a5582bc9f3679d146a51ad1be0580d9a54f50d6bc19a8997e5dd2d42192beac",
      "assetIds": []
    },
    {
      "x": 60,
      "y": 397,
      "size": 1,
      "price": "1011000000000000000000",
      "reserved": "",
      "salt": "0xd098615966bb7c24b3121eb7d772c24b4b9ff3e4d3d645943a50d2414db4e55b",
      "assetIds": []
    },
    {
      "x": 60,
      "y": 398,
      "size": 1,
      "price": "1011000000000000000000",
      "reserved": "",
      "salt": "0x2f1a30821bd48df8892b9f7763333271a6252ca421159ac5246f11badbf62968",
      "assetIds": []
    },
    {
      "x": 60,
      "y": 399,
      "size": 1,
      "price": "1011000000000000000000",
      "reserved": "",
      "salt": "0x416234d5eaa4efbe64f9c1c39337e974c1410819055eecc1ae76d602f2580f22",
      "assetIds": []
    },
    {
      "x": 60,
      "y": 400,
      "size": 1,
      "price": "1011000000000000000000",
      "reserved": "",
      "salt": "0xb8a5a66060dd001536b878d5b777ff659e596087c6276afb1297119cd10f6ed1",
      "assetIds": []
    },
    {
      "x": 60,
      "y": 401,
      "size": 1,
      "price": "1011000000000000000000",
      "reserved": "",
      "salt": "0x207cd3b8853df8b4b8c39ddf0363846484d4fa6722ad264319404f451a94e25a",
      "assetIds": []
    },
    {
      "x": 60,
      "y": 402,
      "size": 1,
      "price": "1011000000000000000000",
      "reserved": "",
      "salt": "0xc10dcf3a95d0cef682091b71f69295449fe28a5097152bd82e65d60e6f1b304c",
      "assetIds": []
    },
    {
      "x": 60,
      "y": 403,
      "size": 1,
      "price": "1011000000000000000000",
      "reserved": "",
      "salt": "0x29bf3836a2796deaf2f03bb5a8ea51c72b7da29bcf73b42f58500b312d5f64c9",
      "assetIds": []
    },
    {
      "x": 60,
      "y": 404,
      "size": 1,
      "price": "1011000000000000000000",
      "reserved": "",
      "salt": "0xbbbc5ee72bb2e99aca975b66c32d1bfbba58e0f215abfbb293259b1c716ff487",
      "assetIds": []
    },
    {
      "x": 60,
      "y": 405,
      "size": 1,
      "price": "1011000000000000000000",
      "reserved": "",
      "salt": "0x9cd5effbda60fc304a73da53c3e8e9e8cb81b947ec5c482f48db91cdd622aab5",
      "assetIds": []
    },
    {
      "x": 60,
      "y": 406,
      "size": 1,
      "price": "1011000000000000000000",
      "reserved": "",
      "salt": "0x6d445eea432c20c36320a4d4d2d0c6fed297853ce63a491ed1ddde705759cccb",
      "assetIds": []
    },
    {
      "x": 60,
      "y": 407,
      "size": 1,
      "price": "1011000000000000000000",
      "reserved": "",
      "salt": "0x88aa14e895b6e9a3d39c91b49a2384ce69aabb243dd4c248eed0016ff158a1fc",
      "assetIds": []
    },
    {
      "x": 61,
      "y": 355,
      "size": 1,
      "price": "1011000000000000000000",
      "reserved": "",
      "salt": "0xd32d4d7df97790d17ad3a7f3fc1e6f0697fd68e23e17db395bb8f78af6c7aa8c",
      "assetIds": []
    },
    {
      "x": 61,
      "y": 356,
      "size": 1,
      "price": "1011000000000000000000",
      "reserved": "",
      "salt": "0x867d338ec8cccf0ea7c894f2288166ce95229121517d627c6c2ef4d1b49c1511",
      "assetIds": []
    },
    {
      "x": 61,
      "y": 357,
      "size": 1,
      "price": "1011000000000000000000",
      "reserved": "",
      "salt": "0x230c439ddca2008082be4dadc81a3eb64dc7fce8f2c00b2363286c2fa96f9f95",
      "assetIds": []
    },
    {
      "x": 61,
      "y": 358,
      "size": 1,
      "price": "1011000000000000000000",
      "reserved": "",
      "salt": "0x78e50dcaa929cf8aa8fda8fbf5bdd49ec6bdcfdc0d9b5713bda99eb93e70a30b",
      "assetIds": []
    },
    {
      "x": 61,
      "y": 359,
      "size": 1,
      "price": "1011000000000000000000",
      "reserved": "",
      "salt": "0xfd80dec751863fda3198dd040467f9270c2e13cfaeff87df12760b1afeea4878",
      "assetIds": []
    },
    {
      "x": 61,
      "y": 360,
      "size": 1,
      "price": "1011000000000000000000",
      "reserved": "",
      "salt": "0x50e281f02598c371687a39d1f75331c73c1cc3e101d9a57198096006010d3310",
      "assetIds": []
    },
    {
      "x": 61,
      "y": 361,
      "size": 1,
      "price": "1011000000000000000000",
      "reserved": "",
      "salt": "0xd7a82a57b59e90027d88bd24865ebf28030a365b3429e22c3af8fe41f3a24883",
      "assetIds": []
    },
    {
      "x": 61,
      "y": 362,
      "size": 1,
      "price": "1011000000000000000000",
      "reserved": "",
      "salt": "0x8304f47e3dfa1f2c209e1981993f46b8edde922755581b33e40d2fcf3c02e812",
      "assetIds": []
    },
    {
      "x": 61,
      "y": 366,
      "size": 1,
      "price": "4683000000000000000000",
      "reserved": "",
      "salt": "0xd0de83bdddb0b66a08fa2bcd46f2110d0d151e5d642555cf7cbdaa17723cd25b",
      "assetIds": [
        "41506478881403507969696680653240014914910929820314476107906210059990541021186"
      ]
    },
    {
      "x": 61,
      "y": 367,
      "size": 1,
      "price": "4683000000000000000000",
      "reserved": "",
      "salt": "0xdb298adf7b6e6c0f2b835aae8e563378d2352dbfdf16783b66100f57183e61a7",
      "assetIds": [
        "41506478881403507969696680653240014914910929820314476107906210059990541021186"
      ]
    },
    {
      "x": 61,
      "y": 368,
      "size": 1,
      "price": "4683000000000000000000",
      "reserved": "",
      "salt": "0x17ac2f11b5d4dab23e796e1445cbe39a42197bf5c6a284d785c86e7fdc1e10c8",
      "assetIds": [
        "41506478881403507969696680653240014914910929820314476107906210059990541021186"
      ]
    },
    {
      "x": 61,
      "y": 369,
      "size": 1,
      "price": "1011000000000000000000",
      "reserved": "",
      "salt": "0x2891bdc0139b50c18d2782fb6a22e1190bd46b243bfa03f80a40d018054a1386",
      "assetIds": []
    },
    {
      "x": 61,
      "y": 372,
      "size": 1,
      "price": "1011000000000000000000",
      "reserved": "",
      "salt": "0xa381a9fa315eb3b85092ae4d28857e293e33446b2c16df4524a261ac32da0f66",
      "assetIds": []
    },
    {
      "x": 61,
      "y": 373,
      "size": 1,
      "price": "1011000000000000000000",
      "reserved": "",
      "salt": "0x433eb29d9d20189489ae2553ebe1d06c485c1544aabfe9293bfe9421bcbef1c5",
      "assetIds": []
    },
    {
      "x": 61,
      "y": 374,
      "size": 1,
      "price": "1011000000000000000000",
      "reserved": "",
      "salt": "0xefcb16d77af0228e970fb79bd2ee406cb9a6f7c7aada318995251e65916da4cb",
      "assetIds": []
    },
    {
      "x": 61,
      "y": 375,
      "size": 1,
      "price": "1011000000000000000000",
      "reserved": "",
      "salt": "0x84103bb6d39fa3875f60898b9b8a70f66c4f127539a32022ea6f674462ba5d03",
      "assetIds": []
    },
    {
      "x": 61,
      "y": 376,
      "size": 1,
      "price": "4683000000000000000000",
      "reserved": "",
      "salt": "0x8c20384fa14d610ded87d6c4f0da1355b5ca8a31f05fb47dc91c60cef7bf98a8",
      "assetIds": [
        "41506478881403507969696680653240014914910929820314476107906210059990541021186"
      ]
    },
    {
      "x": 61,
      "y": 377,
      "size": 1,
      "price": "4683000000000000000000",
      "reserved": "",
      "salt": "0xa52149d4be0cc04607e57622197344cb5ad099fa1add0639c3ccf0f89fdf5c39",
      "assetIds": [
        "41506478881403507969696680653240014914910929820314476107906210059990541021186"
      ]
    },
    {
      "x": 61,
      "y": 384,
      "size": 1,
      "price": "4683000000000000000000",
      "reserved": "",
      "salt": "0xdecf6c600a30c17ccccf370dd425e27e09717bb6490dfed24444c2dd71235a4f",
      "assetIds": [
        "41506478881403507969696680653240014914910929820314476107906210059990541021186"
      ]
    },
    {
      "x": 61,
      "y": 385,
      "size": 1,
      "price": "4683000000000000000000",
      "reserved": "",
      "salt": "0x1f3465aaef395bd239f135139417f6d36e9467427089b62ea1cd34b984896501",
      "assetIds": [
        "41506478881403507969696680653240014914910929820314476107906210059990541021186"
      ]
    },
    {
      "x": 61,
      "y": 386,
      "size": 1,
      "price": "1011000000000000000000",
      "reserved": "",
      "salt": "0xaa00e7125c59f6f2d30f7829b92cce16818ae3fde74dfbe5d9e0c743972c74e6",
      "assetIds": []
    },
    {
      "x": 61,
      "y": 387,
      "size": 1,
      "price": "1011000000000000000000",
      "reserved": "",
      "salt": "0xa81f3f8211855219750c194eae9eb5c5e68b471e662cb827518e6942dfee0171",
      "assetIds": []
    },
    {
      "x": 61,
      "y": 388,
      "size": 1,
      "price": "1011000000000000000000",
      "reserved": "",
      "salt": "0x436181642e40c5da1e0b4ebb7fa5753fc5516384ccc4a3eedc479504de2e0c6f",
      "assetIds": []
    },
    {
      "x": 61,
      "y": 389,
      "size": 1,
      "price": "1011000000000000000000",
      "reserved": "",
      "salt": "0xa1ab74d2edf73be64ca36ea557c400854f177b0cb17338f219b6a42edff5d38a",
      "assetIds": []
    },
    {
      "x": 61,
      "y": 396,
      "size": 1,
      "price": "1011000000000000000000",
      "reserved": "",
      "salt": "0xfc19895640c9e4ef83f2791e93319047d3ea2f662ea519ff3ba607ab08908db6",
      "assetIds": []
    },
    {
      "x": 61,
      "y": 397,
      "size": 1,
      "price": "1011000000000000000000",
      "reserved": "",
      "salt": "0x78a5f3f4ee2f066f7b2df4703f15d99f277c37e90e0454b7228ac2e18c213234",
      "assetIds": []
    },
    {
      "x": 61,
      "y": 398,
      "size": 1,
      "price": "1011000000000000000000",
      "reserved": "",
      "salt": "0x08f46c42593ba1b61c52eed8a01203221c4e4e6590389cb82517077594896742",
      "assetIds": []
    },
    {
      "x": 61,
      "y": 399,
      "size": 1,
      "price": "1011000000000000000000",
      "reserved": "",
      "salt": "0x657cdc83cfba078e5fb0c73824fc88ca7815656f3c862347fd4ff5e4ed7e1317",
      "assetIds": []
    },
    {
      "x": 61,
      "y": 400,
      "size": 1,
      "price": "1011000000000000000000",
      "reserved": "",
      "salt": "0x7800c19154f356508f29b61c9a7234eaa92818a08a6bfc9d4db25a5ef7942f6f",
      "assetIds": []
    },
    {
      "x": 61,
      "y": 401,
      "size": 1,
      "price": "1011000000000000000000",
      "reserved": "",
      "salt": "0x885cbf7836b2a9a5f28132421372c874460f97d289bad7214a2b652ca39fd3f1",
      "assetIds": []
    },
    {
      "x": 61,
      "y": 402,
      "size": 1,
      "price": "1011000000000000000000",
      "reserved": "",
      "salt": "0xd90a283aaa720fdde9ee8f3d5339843fab25fbd447917fdb3f952199cca1fab4",
      "assetIds": []
    },
    {
      "x": 61,
      "y": 403,
      "size": 1,
      "price": "1011000000000000000000",
      "reserved": "",
      "salt": "0xfbc75f7ac1efd9a2f1f343bf2dcdf6b0f7234f4d05cf8183b239d4b1f98ea13c",
      "assetIds": []
    },
    {
      "x": 61,
      "y": 404,
      "size": 1,
      "price": "1011000000000000000000",
      "reserved": "",
      "salt": "0x0ec24542055f8b77a7c41ee627d5db1d128c78a2bbcbbbb36ac8dd8792ece2ca",
      "assetIds": []
    },
    {
      "x": 61,
      "y": 405,
      "size": 1,
      "price": "1011000000000000000000",
      "reserved": "",
      "salt": "0xdd51e5741cab16c6914f41276b2e73f70a3deccad0fca1274bb835710833fcd9",
      "assetIds": []
    },
    {
      "x": 61,
      "y": 406,
      "size": 1,
      "price": "1011000000000000000000",
      "reserved": "",
      "salt": "0x45cea5bbe10c542f3dc12b3e3db213859a85d42ea5b5e3a5f164da415f851546",
      "assetIds": []
    },
    {
      "x": 61,
      "y": 407,
      "size": 1,
      "price": "1011000000000000000000",
      "reserved": "",
      "salt": "0x58aa502c76fd385d093fa8d9b7a41104d12ffdb80634e59990ba3832fbff0f51",
      "assetIds": []
    },
    {
      "x": 62,
      "y": 355,
      "size": 1,
      "price": "1011000000000000000000",
      "reserved": "",
      "salt": "0x9897398c25ec44e79b4dfce9aeb54879e236297626c71fe93ae99f73d9b35a58",
      "assetIds": []
    },
    {
      "x": 62,
      "y": 356,
      "size": 1,
      "price": "1011000000000000000000",
      "reserved": "0x7a9fe22691c811ea339d9b73150e6911a5343dca",
      "salt": "0xce0a8504ed35df7e236ae06caa7e42b19f015aa843780df6bb44b9e5da9b9584",
      "assetIds": []
    },
    {
      "x": 62,
      "y": 357,
      "size": 1,
      "price": "1011000000000000000000",
      "reserved": "",
      "salt": "0xc8e1522fd1ccadf5986d1dfbbc2bfd7997bd865d0a71603f05c83d279c89ae3a",
      "assetIds": []
    },
    {
      "x": 62,
      "y": 358,
      "size": 1,
      "price": "1011000000000000000000",
      "reserved": "",
      "salt": "0x7254e4b5e74bf697b3196a4efc3da37c8af47064bf889cbcccf18261b98fc1da",
      "assetIds": []
    },
    {
      "x": 62,
      "y": 359,
      "size": 1,
      "price": "1011000000000000000000",
      "reserved": "",
      "salt": "0x9e16a23d84ee1be02afe7f5ade8ab73152b848bbff2c02db1018c6387c80a3fc",
      "assetIds": []
    },
    {
      "x": 62,
      "y": 360,
      "size": 1,
      "price": "1011000000000000000000",
      "reserved": "",
      "salt": "0xd51116094b7a1b9e00b061e1e78cb71daa2b5417a067d606fce873a3d35c0ca8",
      "assetIds": []
    },
    {
      "x": 62,
      "y": 361,
      "size": 1,
      "price": "1011000000000000000000",
      "reserved": "",
      "salt": "0xa205cd9f00d4375bacc8d041fc5df7b2218504f104c410cb03b55cec693f1e1a",
      "assetIds": []
    },
    {
      "x": 62,
      "y": 362,
      "size": 1,
      "price": "1011000000000000000000",
      "reserved": "",
      "salt": "0xa18c990ab254811f07f431d85c85aeafceacdbe8a20811131e76a74424dc1b69",
      "assetIds": []
    },
    {
      "x": 62,
      "y": 366,
      "size": 1,
      "price": "4683000000000000000000",
      "reserved": "",
      "salt": "0xb0b7355a7bbcd87b9623549d7f0de882e6f1c6e3a99da7d8fb10a7b64447bc49",
      "assetIds": [
        "41506478881403507969696680653240014914910929820314476107906210059990541021186"
      ]
    },
    {
      "x": 62,
      "y": 367,
      "size": 1,
      "price": "4683000000000000000000",
      "reserved": "",
      "salt": "0x4985ba7d3a61cc796b768a9b4ff2929e3b7face91e4d6b9f70d900ea776bb295",
      "assetIds": [
        "41506478881403507969696680653240014914910929820314476107906210059990541021186"
      ]
    },
    {
      "x": 62,
      "y": 368,
      "size": 1,
      "price": "4683000000000000000000",
      "reserved": "",
      "salt": "0x423bbc61523ec6bd2db52459cba8577b659802b045ab9d660a6e92681b5c61f0",
      "assetIds": [
        "41506478881403507969696680653240014914910929820314476107906210059990541021186"
      ]
    },
    {
      "x": 62,
      "y": 369,
      "size": 1,
      "price": "4683000000000000000000",
      "reserved": "",
      "salt": "0xe11616599b6d8f46040788356676948cc54ffa1c1a3d865ba6cdbb072c647a60",
      "assetIds": [
        "41506478881403507969696680653240014914910929820314476107906210059990541021186"
      ]
    },
    {
      "x": 62,
      "y": 370,
      "size": 1,
      "price": "1011000000000000000000",
      "reserved": "",
      "salt": "0x0dc6c2211fdf1548b4a7e12fafc1e1740494029e67d33af766f5f9fd6d4dca15",
      "assetIds": []
    },
    {
      "x": 62,
      "y": 371,
      "size": 1,
      "price": "1011000000000000000000",
      "reserved": "",
      "salt": "0xab3dc1b8ae0cba5c25a93d6adc337ba0ae71fe3d0295058852cc10964c4723a2",
      "assetIds": []
    },
    {
      "x": 62,
      "y": 372,
      "size": 1,
      "price": "1011000000000000000000",
      "reserved": "",
      "salt": "0xd4e04429942ad38c522e58d7ce2a350863452e73cffb44d936ae9ce3c280be18",
      "assetIds": []
    },
    {
      "x": 62,
      "y": 373,
      "size": 1,
      "price": "1011000000000000000000",
      "reserved": "",
      "salt": "0xe11cc7de06886914d4087b2d690d34e6d40521288bf04b6fb2d1303788c1ca82",
      "assetIds": []
    },
    {
      "x": 62,
      "y": 374,
      "size": 1,
      "price": "1011000000000000000000",
      "reserved": "",
      "salt": "0x6486ab0bef5db6c49ccd160c1878868747af0a63517ca47c74bf45bed057e597",
      "assetIds": []
    },
    {
      "x": 62,
      "y": 375,
      "size": 1,
      "price": "1011000000000000000000",
      "reserved": "0x7a9fe22691c811ea339d9b73150e6911a5343dca",
      "salt": "0x6d80326ddfbca9a244369b3752336bc77fc10dec915b9880ea464079b5cfe08e",
      "assetIds": []
    },
    {
      "x": 62,
      "y": 376,
      "size": 1,
      "price": "4683000000000000000000",
      "reserved": "",
      "salt": "0xfb606caf48e2b31c4152af33a4be5d05517ee1e6621eb749cb4b267fc50e28ca",
      "assetIds": [
        "41506478881403507969696680653240014914910929820314476107906210059990541021186"
      ]
    },
    {
      "x": 62,
      "y": 377,
      "size": 1,
      "price": "4683000000000000000000",
      "reserved": "",
      "salt": "0x12f5c7843eb6ec5b3d7a2fb4ba5647699a40881166419660729d4fe0f532a00f",
      "assetIds": [
        "41506478881403507969696680653240014914910929820314476107906210059990541021186"
      ]
    },
    {
      "x": 62,
      "y": 384,
      "size": 1,
      "price": "4683000000000000000000",
      "reserved": "",
      "salt": "0x48b89df12cc64d1b82e107592a10280046ac2dad072a4066108a9e8ace0a801b",
      "assetIds": [
        "41506478881403507969696680653240014914910929820314476107906210059990541021186"
      ]
    },
    {
      "x": 62,
      "y": 385,
      "size": 1,
      "price": "1011000000000000000000",
      "reserved": "0x7a9fe22691c811ea339d9b73150e6911a5343dca",
      "salt": "0x4e36608469f006069f781aa9be770fbf01306f4497eb04a1f59f2421b5de3727",
      "assetIds": []
    },
    {
      "x": 62,
      "y": 386,
      "size": 1,
      "price": "1011000000000000000000",
      "reserved": "",
      "salt": "0xd32dcefc7af9d4db5d66710e5f161e209e29627b143d411ac3a902c7b8f7994f",
      "assetIds": []
    },
    {
      "x": 62,
      "y": 387,
      "size": 1,
      "price": "1011000000000000000000",
      "reserved": "",
      "salt": "0xa1aede1ea1796941f9ffcbe051933ebd550182cb349d15f0a4f6677db01ad9ff",
      "assetIds": []
    },
    {
      "x": 62,
      "y": 388,
      "size": 1,
      "price": "1011000000000000000000",
      "reserved": "",
      "salt": "0xf61f0121fdf7766ab0e2e825cb91ea665f0904f279835b1668a3b256e2b80bb1",
      "assetIds": []
    },
    {
      "x": 62,
      "y": 389,
      "size": 1,
      "price": "1011000000000000000000",
      "reserved": "",
      "salt": "0xae95323ace6a44811fa49f40875d75bdb74fd239e8bb973a3d85d5823fbfa03c",
      "assetIds": []
    },
    {
      "x": 62,
      "y": 396,
      "size": 1,
      "price": "1011000000000000000000",
      "reserved": "",
      "salt": "0x9ff1b5e4c5072cef4879491cd321d2acd16ca459df273540329fa49e43cb2aa0",
      "assetIds": []
    },
    {
      "x": 62,
      "y": 397,
      "size": 1,
      "price": "1011000000000000000000",
      "reserved": "",
      "salt": "0x5e3b3ca8a76643f419a32b352173477da76bd60853118df22c509a781a1ed60a",
      "assetIds": []
    },
    {
      "x": 62,
      "y": 398,
      "size": 1,
      "price": "1011000000000000000000",
      "reserved": "",
      "salt": "0x42f59749f95ca00c25ab92d6253d120adf1b1c71d2c8e2f026904762fe8ffde8",
      "assetIds": []
    },
    {
      "x": 62,
      "y": 399,
      "size": 1,
      "price": "1011000000000000000000",
      "reserved": "",
      "salt": "0xf15053887013e4594b207e6f1ce69194356e2362b4d0536c7484770acfe5a161",
      "assetIds": []
    },
    {
      "x": 62,
      "y": 400,
      "size": 1,
      "price": "1011000000000000000000",
      "reserved": "",
      "salt": "0x226b337dcdda9e928bc9c01dad26513a8199b20f837c47643c3c1d14af2b3e39",
      "assetIds": []
    },
    {
      "x": 62,
      "y": 401,
      "size": 1,
      "price": "1011000000000000000000",
      "reserved": "",
      "salt": "0x5bcb5cb708348152f2b24f000e7c8cf0b89060a2282967ad08af21dac04fb028",
      "assetIds": []
    },
    {
      "x": 62,
      "y": 402,
      "size": 1,
      "price": "1011000000000000000000",
      "reserved": "",
      "salt": "0x5c84dc10f670c64c2c4998f4fc06f126eb37c34585faab02bfb8b75202fe9646",
      "assetIds": []
    },
    {
      "x": 62,
      "y": 403,
      "size": 1,
      "price": "1011000000000000000000",
      "reserved": "",
      "salt": "0xdef3c8b2e4172af7dba4bc9495c83bef39cc84ca7f2b6da5824e8cf539f9d8e3",
      "assetIds": []
    },
    {
      "x": 62,
      "y": 404,
      "size": 1,
      "price": "1011000000000000000000",
      "reserved": "",
      "salt": "0x2c6c24e9d45c5e004a1c0f35c4d8b929437619471766aab511eb3a753e7825f6",
      "assetIds": []
    },
    {
      "x": 62,
      "y": 405,
      "size": 1,
      "price": "1011000000000000000000",
      "reserved": "",
      "salt": "0xac2e21e5b27ebd64c86c9c802455416f22d08100382cdd36a47df2e344bc89a7",
      "assetIds": []
    },
    {
      "x": 62,
      "y": 406,
      "size": 1,
      "price": "1011000000000000000000",
      "reserved": "",
      "salt": "0xfc01889918f14df1f6c50e3442a4c0efcf20939a765b1cccf7ddd0c8cb11d3eb",
      "assetIds": []
    },
    {
      "x": 62,
      "y": 407,
      "size": 1,
      "price": "1011000000000000000000",
      "reserved": "",
      "salt": "0x5f73379541bfd0365303e5b79307d3b06aae6d56a12e9703bb1df22ca504cfaa",
      "assetIds": []
    },
    {
      "x": 63,
      "y": 355,
      "size": 1,
      "price": "1011000000000000000000",
      "reserved": "",
      "salt": "0x07ab5e4a5a6405b9b05a28af57129c4087e0cf36ae2dd5f06376fddb4a8323ca",
      "assetIds": []
    },
    {
      "x": 63,
      "y": 356,
      "size": 1,
      "price": "1011000000000000000000",
      "reserved": "",
      "salt": "0xbe5e0653caa6649979622624d64bcabce1f824dedf966b69e6d50be99f4b6a79",
      "assetIds": []
    },
    {
      "x": 63,
      "y": 357,
      "size": 1,
      "price": "1011000000000000000000",
      "reserved": "",
      "salt": "0xc4d54d1d5a9c942f0c7ec246b172f3d44cada65e7de61daa892f10500c420ea4",
      "assetIds": []
    },
    {
      "x": 63,
      "y": 358,
      "size": 1,
      "price": "1011000000000000000000",
      "reserved": "",
      "salt": "0x22ea334e76a8cb550880cf06f912a152d1831ff708a22f1bd360b8dc56fc84fe",
      "assetIds": []
    },
    {
      "x": 63,
      "y": 359,
      "size": 1,
      "price": "1011000000000000000000",
      "reserved": "",
      "salt": "0xed28066a9ede1acd7ebcd3a4316b47e79e81374ea4a140715e5ef8f78c606ad1",
      "assetIds": []
    },
    {
      "x": 63,
      "y": 363,
      "size": 1,
      "price": "1011000000000000000000",
      "reserved": "",
      "salt": "0xd5a4b8fcf023090fccb264498b5e15b8d787c0b1cf3ed2f1e55185b8c4375bdb",
      "assetIds": []
    },
    {
      "x": 63,
      "y": 364,
      "size": 1,
      "price": "1011000000000000000000",
      "reserved": "",
      "salt": "0x2001c7f05c93519cd1e97e2da12f1cc25216c0b11213ccb92663af4d1885ed85",
      "assetIds": []
    },
    {
      "x": 63,
      "y": 365,
      "size": 1,
      "price": "4683000000000000000000",
      "reserved": "",
      "salt": "0xf3834d696fee1423a7a091d07d40f8493c0b6e2a02028a3d14bc80bd78988daa",
      "assetIds": [
        "41506478881403507969696680653240014914910929820314476107906210059990541021186"
      ]
    },
    {
      "x": 63,
      "y": 369,
      "size": 1,
      "price": "4683000000000000000000",
      "reserved": "",
      "salt": "0xa67528a4e2aee76b0f23b829c3c981fdc38996206801306f50838018e925cae4",
      "assetIds": [
        "41506478881403507969696680653240014914910929820314476107906210059990541021186"
      ]
    },
    {
      "x": 63,
      "y": 370,
      "size": 1,
      "price": "4683000000000000000000",
      "reserved": "",
      "salt": "0xb6f32018a0ff988aa68f0edfc818ed0a30948f68951a505b17ccb6bd94effc33",
      "assetIds": [
        "41506478881403507969696680653240014914910929820314476107906210059990541021186"
      ]
    },
    {
      "x": 63,
      "y": 371,
      "size": 1,
      "price": "1011000000000000000000",
      "reserved": "",
      "salt": "0xba534275da6729bf6c4070c6be1b8529edfa1c7c801bd2a0d0c299c47e64f5f7",
      "assetIds": []
    },
    {
      "x": 63,
      "y": 372,
      "size": 1,
      "price": "1011000000000000000000",
      "reserved": "",
      "salt": "0x43b66ac814cdd293521d985d1ec1ae35bb047b67d65c9f6fdfc7c2d1db1f3b31",
      "assetIds": []
    },
    {
      "x": 63,
      "y": 373,
      "size": 1,
      "price": "1011000000000000000000",
      "reserved": "",
      "salt": "0x33766160a97fee48bf17e3f11612a2ec480a65c6f151ac8d68b3fa6b5c36fc24",
      "assetIds": []
    },
    {
      "x": 63,
      "y": 374,
      "size": 1,
      "price": "1011000000000000000000",
      "reserved": "",
      "salt": "0x395ca0724c4e95b71684acbcdb77bd44831715d3e18a9da7fbe438c893e55b61",
      "assetIds": []
    },
    {
      "x": 63,
      "y": 375,
      "size": 1,
      "price": "1011000000000000000000",
      "reserved": "",
      "salt": "0xe3f5f1b0fe5f03a6c3cd80f9685a7822b5d9b93700f0f3a4e659071ebedc0e67",
      "assetIds": []
    },
    {
      "x": 63,
      "y": 376,
      "size": 1,
      "price": "1011000000000000000000",
      "reserved": "0x7a9fe22691c811ea339d9b73150e6911a5343dca",
      "salt": "0xc256e719afb9bb483db81d782aa493c386d5434e4e4444a509174a7ae326677e",
      "assetIds": []
    },
    {
      "x": 63,
      "y": 377,
      "size": 1,
      "price": "4683000000000000000000",
      "reserved": "",
      "salt": "0x0a9dbc73c53f28a41b6f15cfb5397afd8591707890e48a9ead35d24d49809ba0",
      "assetIds": [
        "41506478881403507969696680653240014914910929820314476107906210059990541021186"
      ]
    },
    {
      "x": 63,
      "y": 384,
      "size": 1,
      "price": "4683000000000000000000",
      "reserved": "",
      "salt": "0x15b7390e94b3449a3ae9a516be3e099c1bf84b625c5909b293a15cef86eb5fa1",
      "assetIds": [
        "41506478881403507969696680653240014914910929820314476107906210059990541021186"
      ]
    },
    {
      "x": 63,
      "y": 385,
      "size": 1,
      "price": "4683000000000000000000",
      "reserved": "",
      "salt": "0xdce827a44c5121692d7207df9faec72c283b2e2d45e00484eaa47520d0eb9e36",
      "assetIds": [
        "41506478881403507969696680653240014914910929820314476107906210059990541021186"
      ]
    },
    {
      "x": 63,
      "y": 386,
      "size": 1,
      "price": "1011000000000000000000",
      "reserved": "",
      "salt": "0xeee5346e50a08b562c891f6b00d0d210f51d7cad8a1ada98bb634ff7d1fc86d4",
      "assetIds": []
    },
    {
      "x": 63,
      "y": 387,
      "size": 1,
      "price": "1011000000000000000000",
      "reserved": "",
      "salt": "0x8e0230562c5f82e83f7f338a35208a99057e741af4bf1f215aaf5431f213889a",
      "assetIds": []
    },
    {
      "x": 63,
      "y": 388,
      "size": 1,
      "price": "1011000000000000000000",
      "reserved": "",
      "salt": "0xff031c1e4cf660a17b9682e50a829cbb08b11d470f9ea0d499ed2412269a1092",
      "assetIds": []
    },
    {
      "x": 63,
      "y": 389,
      "size": 1,
      "price": "1011000000000000000000",
      "reserved": "",
      "salt": "0xd3a8ede3780848bf0a0def6709501b55fff08f24bbdb7430c588b4bc6ea5a9b7",
      "assetIds": []
    },
    {
      "x": 63,
      "y": 396,
      "size": 1,
      "price": "1011000000000000000000",
      "reserved": "",
      "salt": "0xcc14feebbc663e925c7081ec05612e654cfed932c250789e74c6f0ea7128756c",
      "assetIds": []
    },
    {
      "x": 63,
      "y": 397,
      "size": 1,
      "price": "1011000000000000000000",
      "reserved": "",
      "salt": "0xd74001092288415ad547af74cfba933a32a6a1be8d27d8bd9d6d58d87b36c010",
      "assetIds": []
    },
    {
      "x": 63,
      "y": 398,
      "size": 1,
      "price": "1011000000000000000000",
      "reserved": "",
      "salt": "0xb711eba8ddb034a032e10016d287965a29ca7477edcf7f9892151aa5510af71a",
      "assetIds": []
    },
    {
      "x": 63,
      "y": 399,
      "size": 1,
      "price": "1011000000000000000000",
      "reserved": "",
      "salt": "0xff1573cc9b7b0d078c86938b0c3b40bfb04fdc999a2ca7ad1a35d0d0bfe9b11e",
      "assetIds": []
    },
    {
      "x": 63,
      "y": 400,
      "size": 1,
      "price": "1011000000000000000000",
      "reserved": "",
      "salt": "0xa00824aca4d98f54f5d7a7e23fd63fb37a59ceebef8ac5a13cc6207fe33d3263",
      "assetIds": []
    },
    {
      "x": 63,
      "y": 401,
      "size": 1,
      "price": "1011000000000000000000",
      "reserved": "",
      "salt": "0x7b7f140689e4bed56e5f86ff175b92c2a66033ac7c2506171a1fd8734ae82428",
      "assetIds": []
    },
    {
      "x": 63,
      "y": 402,
      "size": 1,
      "price": "1011000000000000000000",
      "reserved": "",
      "salt": "0x072dd129ad87813f65ef46f5524556804d5389fa80bd0fdff24651d9a9e616b6",
      "assetIds": []
    },
    {
      "x": 63,
      "y": 403,
      "size": 1,
      "price": "1011000000000000000000",
      "reserved": "",
      "salt": "0x7de8b3f1bd6cb055fcbb1968b945f2ddd76ee315d6cdccf35a43deb8c674ddfe",
      "assetIds": []
    },
    {
      "x": 63,
      "y": 404,
      "size": 1,
      "price": "1011000000000000000000",
      "reserved": "",
      "salt": "0xb3d462f410cfa41276585dc4376cd348a059556fc274d9b3ca4bae27bb139eac",
      "assetIds": []
    },
    {
      "x": 63,
      "y": 405,
      "size": 1,
      "price": "1011000000000000000000",
      "reserved": "",
      "salt": "0x4cd2b712b563d387c977ae80a11560638fe641b6ca97a7874b0b79e3e19f96c7",
      "assetIds": []
    },
    {
      "x": 63,
      "y": 406,
      "size": 1,
      "price": "1011000000000000000000",
      "reserved": "",
      "salt": "0xb378a24c27e23baedefd0c16244e82ea5f6569e1bd7ea93f2aedc5095a468725",
      "assetIds": []
    },
    {
      "x": 63,
      "y": 407,
      "size": 1,
      "price": "1011000000000000000000",
      "reserved": "",
      "salt": "0xe3796273eff6e889c8dc88356619e93bc9c6f25000045ee6cc6f41422211864f",
      "assetIds": []
    },
    {
      "x": 64,
      "y": 356,
      "size": 1,
      "price": "1011000000000000000000",
      "reserved": "",
      "salt": "0x68567a8ec8b16d5a7a42e722714762cfc6aa6b7aaae96a5777d7ff7ad9215ec9",
      "assetIds": []
    },
    {
      "x": 64,
      "y": 357,
      "size": 1,
      "price": "1011000000000000000000",
      "reserved": "",
      "salt": "0x5761332d67b7a5db1a9fdc222674055fd8ca1f62a00365edd830d869baa1386e",
      "assetIds": []
    },
    {
      "x": 64,
      "y": 358,
      "size": 1,
      "price": "1011000000000000000000",
      "reserved": "",
      "salt": "0x5a323d449d5ff3a8abf27fdc42fe1f6dbed5cf1cf8dd6694e30418669752581d",
      "assetIds": []
    },
    {
      "x": 64,
      "y": 359,
      "size": 1,
      "price": "1011000000000000000000",
      "reserved": "",
      "salt": "0x4839f0e48125d2ee0857a13904a84fad3936c465aabc79599c79e0f4f1796b62",
      "assetIds": []
    },
    {
      "x": 64,
      "y": 363,
      "size": 1,
      "price": "1011000000000000000000",
      "reserved": "",
      "salt": "0x10e058cfd86bbc49be724153ecc70ba97836eaf9e9aab9747eb98f1fbeb0b7e3",
      "assetIds": []
    },
    {
      "x": 64,
      "y": 364,
      "size": 1,
      "price": "4683000000000000000000",
      "reserved": "",
      "salt": "0x14799ca1c81bb00ef079c5e8c8d420ff2a3e400011f2d377d7129b51fbf1e5f9",
      "assetIds": [
        "41506478881403507969696680653240014914910929820314476107906210059990541021186"
      ]
    },
    {
      "x": 64,
      "y": 365,
      "size": 1,
      "price": "4683000000000000000000",
      "reserved": "",
      "salt": "0x9c3b1e261ab3ae7047301d5a91a693e482d68d098a057ecea94bdd4d99feecaf",
      "assetIds": [
        "41506478881403507969696680653240014914910929820314476107906210059990541021186"
      ]
    },
    {
      "x": 64,
      "y": 369,
      "size": 1,
      "price": "4683000000000000000000",
      "reserved": "",
      "salt": "0x7e2c2274dd3f640d798a3137c2b3ec64bffe48d26620694ac583b0accfe8e139",
      "assetIds": [
        "41506478881403507969696680653240014914910929820314476107906210059990541021186"
      ]
    },
    {
      "x": 64,
      "y": 370,
      "size": 1,
      "price": "1011000000000000000000",
      "reserved": "0x7a9fe22691c811ea339d9b73150e6911a5343dca",
      "salt": "0x717fd50db933d8e6b4f87b5ec0f3a7e42ef4137a146fe649644b1ebcf2e2c230",
      "assetIds": []
    },
    {
      "x": 64,
      "y": 371,
      "size": 1,
      "price": "1011000000000000000000",
      "reserved": "",
      "salt": "0xa1b329f2f4eafd9149487c6547ff5b2b7cd7a7ebe8dafe68ca306562939ea825",
      "assetIds": []
    },
    {
      "x": 64,
      "y": 372,
      "size": 1,
      "price": "1011000000000000000000",
      "reserved": "",
      "salt": "0x8ed37c85a18ec70adb97c8f3a055d6e71ccf3ea5b7dc6f85a9038c52c1b83480",
      "assetIds": []
    },
    {
      "x": 64,
      "y": 373,
      "size": 1,
      "price": "1011000000000000000000",
      "reserved": "",
      "salt": "0xf962f492336cc97c1a6b3f678d8f1fc8cccf535179ebb9573a1627087fe63573",
      "assetIds": []
    },
    {
      "x": 64,
      "y": 374,
      "size": 1,
      "price": "1011000000000000000000",
      "reserved": "",
      "salt": "0xab5903f633ab88eb7b685e7f4ca37aaa20664c1d2f61fa0dd4e60b4a818a6e51",
      "assetIds": []
    },
    {
      "x": 64,
      "y": 375,
      "size": 1,
      "price": "1011000000000000000000",
      "reserved": "",
      "salt": "0xe0a14a80de536b6d8a269348f69fa7a2a6d3fbd61e17afc52476cbc746a79aec",
      "assetIds": []
    },
    {
      "x": 64,
      "y": 376,
      "size": 1,
      "price": "1011000000000000000000",
      "reserved": "0x7a9fe22691c811ea339d9b73150e6911a5343dca",
      "salt": "0x37d618e84effd6c513bbaa3561d17a683dd263b39ff9dfa6d65648345a01b2b7",
      "assetIds": []
    },
    {
      "x": 64,
      "y": 377,
      "size": 1,
      "price": "4683000000000000000000",
      "reserved": "",
      "salt": "0x8684a246893d6475a959d35d0b47b49a80147b394ee52e9e5b0fecdf2a687784",
      "assetIds": [
        "41506478881403507969696680653240014914910929820314476107906210059990541021186"
      ]
    },
    {
      "x": 64,
      "y": 384,
      "size": 1,
      "price": "4683000000000000000000",
      "reserved": "",
      "salt": "0xc5428d6294456f3a807d7b39de31bf4cfb432e51867f3dad6d1b9b6ece2c7b9d",
      "assetIds": [
        "41506478881403507969696680653240014914910929820314476107906210059990541021186"
      ]
    },
    {
      "x": 64,
      "y": 385,
      "size": 1,
      "price": "4683000000000000000000",
      "reserved": "",
      "salt": "0xc836e3f873b64f985b8b8cece72d605ada9f591760bfe3c1f38d7942aecebbe7",
      "assetIds": [
        "41506478881403507969696680653240014914910929820314476107906210059990541021186"
      ]
    },
    {
      "x": 64,
      "y": 386,
      "size": 1,
      "price": "1011000000000000000000",
      "reserved": "",
      "salt": "0x853dc6e157f383ae406e0323d434967d8a4d9f5ebd9ecbaaaf2da70b61770d83",
      "assetIds": []
    },
    {
      "x": 64,
      "y": 387,
      "size": 1,
      "price": "1011000000000000000000",
      "reserved": "",
      "salt": "0x6b65edfc14de7bba0b5f312a8d0a846703423d3a3d038a393e09af0bcb9e76d0",
      "assetIds": []
    },
    {
      "x": 64,
      "y": 388,
      "size": 1,
      "price": "1011000000000000000000",
      "reserved": "",
      "salt": "0xf8b14a9404cf7f086a7cf090749f0114d026672cecf067959d705ae2a9692fb1",
      "assetIds": []
    },
    {
      "x": 64,
      "y": 389,
      "size": 1,
      "price": "1011000000000000000000",
      "reserved": "",
      "salt": "0xe90806f960f6ac2f5b7dcb3f469dda53c81020657bb0b3085b020bf35415f324",
      "assetIds": []
    },
    {
      "x": 64,
      "y": 396,
      "size": 1,
      "price": "4683000000000000000000",
      "reserved": "",
      "salt": "0x3072766e884d52563a8e4ee15c4964462eba79b644544e282defb307f3353735",
      "assetIds": [
        "41506478881403507969696680653240014914910929820314476107906210059990541021186"
      ]
    },
    {
      "x": 64,
      "y": 397,
      "size": 1,
      "price": "4683000000000000000000",
      "reserved": "",
      "salt": "0x6f3ade6fd888e065baee7b471af62a48593f118af6bf8a6d407141787021a1ac",
      "assetIds": [
        "41506478881403507969696680653240014914910929820314476107906210059990541021186"
      ]
    },
    {
      "x": 64,
      "y": 398,
      "size": 1,
      "price": "4683000000000000000000",
      "reserved": "",
      "salt": "0x2dc4758c9b313cee9b320bcba7b7ba9e94c9fa0a38ab57bce2693ce437cdb1fe",
      "assetIds": [
        "41506478881403507969696680653240014914910929820314476107906210059990541021186"
      ]
    },
    {
      "x": 64,
      "y": 399,
      "size": 1,
      "price": "4683000000000000000000",
      "reserved": "",
      "salt": "0xc074da9df7d2957fc2ce16e9465772d3ae17789d7a581610ab0c3679bd5e867c",
      "assetIds": [
        "41506478881403507969696680653240014914910929820314476107906210059990541021186"
      ]
    },
    {
      "x": 64,
      "y": 400,
      "size": 1,
      "price": "4683000000000000000000",
      "reserved": "",
      "salt": "0xd5b82f3eab978f6ff0564b703e90902fe34da3226894d34d4f4494a363081264",
      "assetIds": [
        "41506478881403507969696680653240014914910929820314476107906210059990541021186"
      ]
    },
    {
      "x": 64,
      "y": 401,
      "size": 1,
      "price": "4683000000000000000000",
      "reserved": "",
      "salt": "0x4b2391d4364bc2d955b0a2539e161e86810026241a98e78d0e3be0fc58bbc8ad",
      "assetIds": [
        "41506478881403507969696680653240014914910929820314476107906210059990541021186"
      ]
    },
    {
      "x": 64,
      "y": 402,
      "size": 1,
      "price": "1011000000000000000000",
      "reserved": "",
      "salt": "0x902d32abfc4a334fc942c05f0112900cde9a6e770ea5ae7245ab36cf82855837",
      "assetIds": []
    },
    {
      "x": 64,
      "y": 403,
      "size": 1,
      "price": "1011000000000000000000",
      "reserved": "",
      "salt": "0x1eb9286a07a867accb6f3920d7e035149e67d313972a5c648dd4e8b308c5d7e9",
      "assetIds": []
    },
    {
      "x": 64,
      "y": 404,
      "size": 1,
      "price": "1011000000000000000000",
      "reserved": "",
      "salt": "0x9379f25fb88ec15b91090e0361a8239df2761afbf47ee58d8ba9b090a20f9165",
      "assetIds": []
    },
    {
      "x": 64,
      "y": 405,
      "size": 1,
      "price": "1011000000000000000000",
      "reserved": "",
      "salt": "0x2ea5d6ff225ae709610e02d65bc44b6ba8ec441b7921a9cea52d702bb078d76f",
      "assetIds": []
    },
    {
      "x": 64,
      "y": 406,
      "size": 1,
      "price": "1011000000000000000000",
      "reserved": "",
      "salt": "0x3090080d338a6f847b490cae707d1b147f18409640a0e4a2476e814ce8998a49",
      "assetIds": []
    },
    {
      "x": 64,
      "y": 407,
      "size": 1,
      "price": "1011000000000000000000",
      "reserved": "",
      "salt": "0x38d3cfb814922452e84939af4a7a8bb09a959eeb9e11b3ef47790f7ca87ccd03",
      "assetIds": []
    },
    {
      "x": 65,
      "y": 356,
      "size": 1,
      "price": "1011000000000000000000",
      "reserved": "",
      "salt": "0x38d8c2c01a96dfda79877746b3f551e1ea994ca3850f47cd636abd07a9696e8b",
      "assetIds": []
    },
    {
      "x": 65,
      "y": 357,
      "size": 1,
      "price": "1011000000000000000000",
      "reserved": "",
      "salt": "0x20c4ed154de8582e869629baeb4b43c7b09e8d54b8836cb3c9f6909efa39ecea",
      "assetIds": []
    },
    {
      "x": 65,
      "y": 358,
      "size": 1,
      "price": "1011000000000000000000",
      "reserved": "",
      "salt": "0x163c988e6b5e8a5ab7ac9addedd57c7afd68ad3614611d25edac5d4f1b81e853",
      "assetIds": []
    },
    {
      "x": 65,
      "y": 359,
      "size": 1,
      "price": "1011000000000000000000",
      "reserved": "",
      "salt": "0x48fbf19c299a6e3a3985609ef1a7eaf97c6d98f1e10a9b4be5d24b993ed178bc",
      "assetIds": []
    },
    {
      "x": 65,
      "y": 363,
      "size": 1,
      "price": "1011000000000000000000",
      "reserved": "",
      "salt": "0x2842fb45d21fe5680e1bfcc7e4a722a4b2734a6713597bcafa1d282a8cfe6af1",
      "assetIds": []
    },
    {
      "x": 65,
      "y": 364,
      "size": 1,
      "price": "4683000000000000000000",
      "reserved": "",
      "salt": "0x76a49c277aadcf34e385daa1a8a9364172def16eb542ed7f47ce7ba095b92448",
      "assetIds": [
        "41506478881403507969696680653240014914910929820314476107906210059990541021186"
      ]
    },
    {
      "x": 65,
      "y": 365,
      "size": 1,
      "price": "4683000000000000000000",
      "reserved": "",
      "salt": "0xb01b2ffeef0e3bc5c77b0e556f5ebfbc7b219424c6a22a6bd5b692871e1cd1ac",
      "assetIds": [
        "41506478881403507969696680653240014914910929820314476107906210059990541021186"
      ]
    },
    {
      "x": 65,
      "y": 369,
      "size": 1,
      "price": "4683000000000000000000",
      "reserved": "",
      "salt": "0x24d7d1b0184b0f752b1cefd088a11b969ea0702ed13a9678c4d1c3da8942f64f",
      "assetIds": [
        "41506478881403507969696680653240014914910929820314476107906210059990541021186"
      ]
    },
    {
      "x": 65,
      "y": 370,
      "size": 1,
      "price": "4683000000000000000000",
      "reserved": "",
      "salt": "0xb06254a1681dc9860e0d07a18f1395b3126578d3d1f50a610e03b208ccc40c0e",
      "assetIds": [
        "41506478881403507969696680653240014914910929820314476107906210059990541021186"
      ]
    },
    {
      "x": 65,
      "y": 371,
      "size": 1,
      "price": "1011000000000000000000",
      "reserved": "",
      "salt": "0x6088381f1d186ed3a93cf221d38d34bfeb36f762a7960e6a3c667c1c5ebb3559",
      "assetIds": []
    },
    {
      "x": 65,
      "y": 372,
      "size": 1,
      "price": "1011000000000000000000",
      "reserved": "",
      "salt": "0xe87e5998bcfa306147bcc2b8214660e49e32953bc723d9d6433da76d7e874dff",
      "assetIds": []
    },
    {
      "x": 65,
      "y": 373,
      "size": 1,
      "price": "1011000000000000000000",
      "reserved": "",
      "salt": "0x1fc7f0a22b14ab8ea8808a3f501496ace2d9e91df8432033444c56705d0e5173",
      "assetIds": []
    },
    {
      "x": 65,
      "y": 374,
      "size": 1,
      "price": "1011000000000000000000",
      "reserved": "",
      "salt": "0x486e2b8c8c239c4cf28e002f32670d5d195c6306450c2595b870378cd71945f9",
      "assetIds": []
    },
    {
      "x": 65,
      "y": 375,
      "size": 1,
      "price": "1011000000000000000000",
      "reserved": "",
      "salt": "0x776fe661a6ac852fad17392ad3642392ba1bdc1d60bbaf5a85c48f494fafaeaf",
      "assetIds": []
    },
    {
      "x": 65,
      "y": 376,
      "size": 1,
      "price": "4683000000000000000000",
      "reserved": "",
      "salt": "0x4e5e4fc4a40be720a71fa6a73e356b597dbec9271246cfc95f437cc965f04efc",
      "assetIds": [
        "41506478881403507969696680653240014914910929820314476107906210059990541021186"
      ]
    },
    {
      "x": 65,
      "y": 377,
      "size": 1,
      "price": "4683000000000000000000",
      "reserved": "",
      "salt": "0x8a664b713895c36925c65ed4dc9766ffe2196343e33ac5ed481784ca9412834c",
      "assetIds": [
        "41506478881403507969696680653240014914910929820314476107906210059990541021186"
      ]
    },
    {
      "x": 65,
      "y": 384,
      "size": 1,
      "price": "4683000000000000000000",
      "reserved": "",
      "salt": "0x887ce37d3c93a50cf78e10d2a07b920525e5dfc234ff05a6768a12ced325ef61",
      "assetIds": [
        "41506478881403507969696680653240014914910929820314476107906210059990541021186"
      ]
    },
    {
      "x": 65,
      "y": 385,
      "size": 1,
      "price": "4683000000000000000000",
      "reserved": "",
      "salt": "0xcc6e24a9e61b663750136be43b66f9ab9381a6d55bf3a90de677dcf6e39374b9",
      "assetIds": [
        "41506478881403507969696680653240014914910929820314476107906210059990541021186"
      ]
    },
    {
      "x": 65,
      "y": 386,
      "size": 1,
      "price": "1011000000000000000000",
      "reserved": "",
      "salt": "0x7e7685657b17325fe2100522dff5b5533b7f966cf8b49ce16fe2a98039c5b45f",
      "assetIds": []
    },
    {
      "x": 65,
      "y": 387,
      "size": 1,
      "price": "1011000000000000000000",
      "reserved": "",
      "salt": "0x92da49a4f47d4d1e292183813506ff099a95d729c01b83456d995a133cc91adb",
      "assetIds": []
    },
    {
      "x": 65,
      "y": 388,
      "size": 1,
      "price": "1011000000000000000000",
      "reserved": "",
      "salt": "0xc4b9bd9caa70c351f02c1ed371268b4baeb093f96c3326948a91ba9705b8706e",
      "assetIds": []
    },
    {
      "x": 65,
      "y": 389,
      "size": 1,
      "price": "1011000000000000000000",
      "reserved": "",
      "salt": "0x6e38e0cde91f299a977779870b9a4cfaec5a50545e78dbc169358d18d4e832d0",
      "assetIds": []
    },
    {
      "x": 65,
      "y": 396,
      "size": 1,
      "price": "4683000000000000000000",
      "reserved": "",
      "salt": "0x38234d1048b73242b889b7c91b4c060af99f336a3334f5eeafc3fdea3477c067",
      "assetIds": [
        "41506478881403507969696680653240014914910929820314476107906210059990541021186"
      ]
    },
    {
      "x": 65,
      "y": 397,
      "size": 1,
      "price": "4683000000000000000000",
      "reserved": "",
      "salt": "0xe8d2694a5c7d6ba121daf0f61610973411ee5cf1671327aa7aad5a3f78e04c42",
      "assetIds": [
        "41506478881403507969696680653240014914910929820314476107906210059990541021186"
      ]
    },
    {
      "x": 65,
      "y": 398,
      "size": 1,
      "price": "4683000000000000000000",
      "reserved": "",
      "salt": "0xf4205a788022098447e27fea7f36f96cb62887c499629518069e690f7ae0072d",
      "assetIds": [
        "41506478881403507969696680653240014914910929820314476107906210059990541021186"
      ]
    },
    {
      "x": 65,
      "y": 399,
      "size": 1,
      "price": "4683000000000000000000",
      "reserved": "",
      "salt": "0x73795166a51278a1698e16c823b0b58415a4404c7574892b8b074c99ea440ff4",
      "assetIds": [
        "41506478881403507969696680653240014914910929820314476107906210059990541021186"
      ]
    },
    {
      "x": 65,
      "y": 400,
      "size": 1,
      "price": "4683000000000000000000",
      "reserved": "",
      "salt": "0xbd402ba1d18ae3835058fe8824de84cd8238be0532b1afcac15199bb0791250b",
      "assetIds": [
        "41506478881403507969696680653240014914910929820314476107906210059990541021186"
      ]
    },
    {
      "x": 65,
      "y": 401,
      "size": 1,
      "price": "4683000000000000000000",
      "reserved": "",
      "salt": "0x770df3e5959756bc2a669d51e4f2ca560f033fa6aca050465880dbca047c1181",
      "assetIds": [
        "41506478881403507969696680653240014914910929820314476107906210059990541021186"
      ]
    },
    {
      "x": 65,
      "y": 402,
      "size": 1,
      "price": "1011000000000000000000",
      "reserved": "0x7a9fe22691c811ea339d9b73150e6911a5343dca",
      "salt": "0xf98dd2a122accd991be1df10b70205050193bef111d9fb134c1aa2868e37976f",
      "assetIds": []
    },
    {
      "x": 65,
      "y": 403,
      "size": 1,
      "price": "1011000000000000000000",
      "reserved": "",
      "salt": "0x624a3e1b90e628f8c6796269deae97648c0ab06dcda6edd7e9bd0963be5235e7",
      "assetIds": []
    },
    {
      "x": 65,
      "y": 404,
      "size": 1,
      "price": "1011000000000000000000",
      "reserved": "",
      "salt": "0x705b8a55588d3cc15fa46d92094285a2c6f71cb427a140c5671ea12ee829b456",
      "assetIds": []
    },
    {
      "x": 65,
      "y": 405,
      "size": 1,
      "price": "1011000000000000000000",
      "reserved": "",
      "salt": "0x7011f7d4da62ea46740a93c727f1a87807cbcc502588d37e77947c207fee3692",
      "assetIds": []
    },
    {
      "x": 65,
      "y": 406,
      "size": 1,
      "price": "1011000000000000000000",
      "reserved": "",
      "salt": "0x02ca14f7cd859cd405a9a906700fe58cf00b8a277001a7788b37b9217791efc5",
      "assetIds": []
    },
    {
      "x": 65,
      "y": 407,
      "size": 1,
      "price": "1011000000000000000000",
      "reserved": "",
      "salt": "0x50a75b299063678b44614eef127bfec22d567050d84a6435f20506ec5071fd6d",
      "assetIds": []
    },
    {
      "x": 66,
      "y": 356,
      "size": 1,
      "price": "1011000000000000000000",
      "reserved": "",
      "salt": "0xf3b6c4c94bdfa985d8309b06697bae6217443a2908fa9adb707dfe45e059c52c",
      "assetIds": []
    },
    {
      "x": 66,
      "y": 357,
      "size": 1,
      "price": "1011000000000000000000",
      "reserved": "",
      "salt": "0x13aacd22e2a24e879d6551de176c24af9b6dd84b5ed02a2996483c7725909ad2",
      "assetIds": []
    },
    {
      "x": 66,
      "y": 358,
      "size": 1,
      "price": "1011000000000000000000",
      "reserved": "",
      "salt": "0xa1b3b7ddec71cac2c5bd27a8e1de97223298357e2c873505daeb30b0d494154a",
      "assetIds": []
    },
    {
      "x": 66,
      "y": 359,
      "size": 1,
      "price": "1011000000000000000000",
      "reserved": "",
      "salt": "0x34d2f3f9fa6986a45ce5928e02e87502285a834cadecab09f2a4b58168246d97",
      "assetIds": []
    },
    {
      "x": 66,
      "y": 360,
      "size": 1,
      "price": "1011000000000000000000",
      "reserved": "",
      "salt": "0x5438df1c7f1b0cec68d738ade80e2874b40786030351bfa22e65637eb66458d2",
      "assetIds": []
    },
    {
      "x": 66,
      "y": 361,
      "size": 1,
      "price": "1011000000000000000000",
      "reserved": "",
      "salt": "0xda888aa99d2363c06d20c2626223abe60dfe539dfb8fd6864bce83d626b82289",
      "assetIds": []
    },
    {
      "x": 66,
      "y": 362,
      "size": 1,
      "price": "1011000000000000000000",
      "reserved": "",
      "salt": "0xdba50742053239f2d3650c546b328e7f7a8d85a6e3e2627a4887a4bd0e1638bd",
      "assetIds": []
    },
    {
      "x": 66,
      "y": 363,
      "size": 1,
      "price": "1011000000000000000000",
      "reserved": "",
      "salt": "0xf12db186dd1e2202659f83ad5d2146f5b3bec4808110768b67c5ec04f1aff04f",
      "assetIds": []
    },
    {
      "x": 66,
      "y": 364,
      "size": 1,
      "price": "1011000000000000000000",
      "reserved": "",
      "salt": "0xfd9ed043812d0cceae8d2aaab8de97c2f72aca1c0a894e38f48bd837e3fe9e84",
      "assetIds": []
    },
    {
      "x": 66,
      "y": 365,
      "size": 1,
      "price": "4683000000000000000000",
      "reserved": "",
      "salt": "0x85a4efec88bbf40432772e6b8707db852c51c504e888c5f50099278b0e8a47cf",
      "assetIds": [
        "41506478881403507969696680653240014914910929820314476107906210059990541021186"
      ]
    },
    {
      "x": 66,
      "y": 366,
      "size": 1,
      "price": "4683000000000000000000",
      "reserved": "",
      "salt": "0xc554433a23f119f77a8e1c47ef0604417b1e71264da5a607ed3ba533d8377ac7",
      "assetIds": [
        "41506478881403507969696680653240014914910929820314476107906210059990541021186"
      ]
    },
    {
      "x": 66,
      "y": 367,
      "size": 1,
      "price": "4683000000000000000000",
      "reserved": "",
      "salt": "0xd84112c3e7a706319ffb7d14993130f77137a877c4fee05606a1f172a2f770f5",
      "assetIds": [
        "41506478881403507969696680653240014914910929820314476107906210059990541021186"
      ]
    },
    {
      "x": 66,
      "y": 368,
      "size": 1,
      "price": "4683000000000000000000",
      "reserved": "",
      "salt": "0x9e8d7c2398f1135e4442a5af8ec283610801b8c1da9f73ef82de2c3621990e2c",
      "assetIds": [
        "41506478881403507969696680653240014914910929820314476107906210059990541021186"
      ]
    },
    {
      "x": 66,
      "y": 369,
      "size": 1,
      "price": "4683000000000000000000",
      "reserved": "",
      "salt": "0xac5935bedb3866105e4b8b51da5f7bb7b69100fddd6674973dfdc3b599117bf3",
      "assetIds": [
        "41506478881403507969696680653240014914910929820314476107906210059990541021186"
      ]
    },
    {
      "x": 66,
      "y": 370,
      "size": 1,
      "price": "4683000000000000000000",
      "reserved": "",
      "salt": "0x603355a4ace67eb3f211a51fe0b0dacc56733eb861ea4df74cd9b299a2d942fe",
      "assetIds": [
        "41506478881403507969696680653240014914910929820314476107906210059990541021186"
      ]
    },
    {
      "x": 66,
      "y": 371,
      "size": 1,
      "price": "1011000000000000000000",
      "reserved": "",
      "salt": "0x3ceb5c683f69912eb3136ce9eba301cb3a918dccb4dc8e55c65a2ef4dc569fb1",
      "assetIds": []
    },
    {
      "x": 66,
      "y": 372,
      "size": 1,
      "price": "1011000000000000000000",
      "reserved": "",
      "salt": "0xf8903a11ba19d5a5641c51ba34d2774557794428db089d85966cf05c83ceb511",
      "assetIds": []
    },
    {
      "x": 66,
      "y": 373,
      "size": 1,
      "price": "1011000000000000000000",
      "reserved": "",
      "salt": "0xc48f3666c3c3ba4f52a4826d9bd7caf932485ea5b318a151faa12ee9bdcd467b",
      "assetIds": []
    },
    {
      "x": 66,
      "y": 374,
      "size": 1,
      "price": "1011000000000000000000",
      "reserved": "",
      "salt": "0xf120c1bf89a2f6b004512aa98e5e9e90de9d8c7530397446cbd11cfa3d8ebd19",
      "assetIds": []
    },
    {
      "x": 66,
      "y": 375,
      "size": 1,
      "price": "1011000000000000000000",
      "reserved": "",
      "salt": "0x9d0b77895a63ff4a1b5cbf8680a6595b95604815ae1da94ff329451db3955e44",
      "assetIds": []
    },
    {
      "x": 66,
      "y": 376,
      "size": 1,
      "price": "4683000000000000000000",
      "reserved": "",
      "salt": "0x270bc6099b85aa944ab747830b687c07b64ad87b519032acac84d94351cc8701",
      "assetIds": [
        "41506478881403507969696680653240014914910929820314476107906210059990541021186"
      ]
    },
    {
      "x": 66,
      "y": 377,
      "size": 1,
      "price": "4683000000000000000000",
      "reserved": "",
      "salt": "0x8a0d46d1a00eb269ba20fbcb46b0acee1a3a4a92fac673aa27da0a406e6a74ad",
      "assetIds": [
        "41506478881403507969696680653240014914910929820314476107906210059990541021186"
      ]
    },
    {
      "x": 66,
      "y": 378,
      "size": 1,
      "price": "4683000000000000000000",
      "reserved": "",
      "salt": "0x951e8d7bb20c63c6e1dfd60e1195c817163b1d9f0bfbdaa88a65d9419868e4ef",
      "assetIds": [
        "41506478881403507969696680653240014914910929820314476107906210059990541021186"
      ]
    },
    {
      "x": 66,
      "y": 379,
      "size": 1,
      "price": "4683000000000000000000",
      "reserved": "",
      "salt": "0x2062240874420b61e8a19d2a3554d560ac0b6a3235e043b2e960ece9b90dded0",
      "assetIds": [
        "41506478881403507969696680653240014914910929820314476107906210059990541021186"
      ]
    },
    {
      "x": 66,
      "y": 380,
      "size": 1,
      "price": "1011000000000000000000",
      "reserved": "0x7a9fe22691c811ea339d9b73150e6911a5343dca",
      "salt": "0x0dc37e91fd2dd1e6811f8310ec199cb9992ad4411e0f486bf81ace62a957af6c",
      "assetIds": []
    },
    {
      "x": 66,
      "y": 381,
      "size": 1,
      "price": "4683000000000000000000",
      "reserved": "",
      "salt": "0xa6f16818cfe027f45a28edc4003692b69080cd9d39a41107f009484b03835a60",
      "assetIds": [
        "41506478881403507969696680653240014914910929820314476107906210059990541021186"
      ]
    },
    {
      "x": 66,
      "y": 382,
      "size": 1,
      "price": "4683000000000000000000",
      "reserved": "",
      "salt": "0x1b6e5cd45362ebfed794f284cc42607009463a0a0508f8a574e46e525215527b",
      "assetIds": [
        "41506478881403507969696680653240014914910929820314476107906210059990541021186"
      ]
    },
    {
      "x": 66,
      "y": 383,
      "size": 1,
      "price": "4683000000000000000000",
      "reserved": "",
      "salt": "0x63a68f1701652be51161501ed3425c0151f883b66ec5245c1c8c46fd21ec3275",
      "assetIds": [
        "41506478881403507969696680653240014914910929820314476107906210059990541021186"
      ]
    },
    {
      "x": 66,
      "y": 384,
      "size": 1,
      "price": "4683000000000000000000",
      "reserved": "",
      "salt": "0xa28fe2529fb2c797a85227e6eee79d5823bec733d2393902219f6a98034a81e5",
      "assetIds": [
        "41506478881403507969696680653240014914910929820314476107906210059990541021186"
      ]
    },
    {
      "x": 66,
      "y": 385,
      "size": 1,
      "price": "1011000000000000000000",
      "reserved": "0x7a9fe22691c811ea339d9b73150e6911a5343dca",
      "salt": "0xc304a6aed19720a68011d8963632d194af64384df2fa4de958611edb5b2f2b51",
      "assetIds": []
    },
    {
      "x": 66,
      "y": 386,
      "size": 1,
      "price": "1011000000000000000000",
      "reserved": "",
      "salt": "0xbd4f5e1720f594ab37817f0d614a7b792c6d14daf9264962d26efe2a9efd74dd",
      "assetIds": []
    },
    {
      "x": 66,
      "y": 387,
      "size": 1,
      "price": "1011000000000000000000",
      "reserved": "",
      "salt": "0xc01a02a1358dad422a7921fb4a61497a4f4189e2c6ca2da0028c0b36ac136f5c",
      "assetIds": []
    },
    {
      "x": 66,
      "y": 388,
      "size": 1,
      "price": "1011000000000000000000",
      "reserved": "",
      "salt": "0x962414e75e7f626404bf409f2eaeabf47e6917335b0b6249487bb56257ec30a7",
      "assetIds": []
    },
    {
      "x": 66,
      "y": 389,
      "size": 1,
      "price": "1011000000000000000000",
      "reserved": "",
      "salt": "0x3399fd21333422170641d94dc8893342f28e49dd491a6ede493b310b74bfa8b3",
      "assetIds": []
    },
    {
      "x": 66,
      "y": 390,
      "size": 1,
      "price": "1011000000000000000000",
      "reserved": "",
      "salt": "0xd7477d5618c4c7919a03dc71b002cb492a75687b48fd03ec9daba2eee9fc10b2",
      "assetIds": []
    },
    {
      "x": 66,
      "y": 391,
      "size": 1,
      "price": "1011000000000000000000",
      "reserved": "",
      "salt": "0x716286b4001630dbe4e44d8eb71ee5c4f04e8e5a349586860c0de7a413450e15",
      "assetIds": []
    },
    {
      "x": 66,
      "y": 392,
      "size": 1,
      "price": "1011000000000000000000",
      "reserved": "",
      "salt": "0xe415adc6f68c0d657fca9783a4e6076f32f5f2f4f2849b1672d638af003a5963",
      "assetIds": []
    },
    {
      "x": 66,
      "y": 393,
      "size": 1,
      "price": "1011000000000000000000",
      "reserved": "",
      "salt": "0x76fe876729b49b9716fa06e96f5d452f627f80f9764b798afba65155e1bff8c0",
      "assetIds": []
    },
    {
      "x": 66,
      "y": 394,
      "size": 1,
      "price": "4683000000000000000000",
      "reserved": "",
      "salt": "0x1d573202c42ba9a82ff2307d8b0d2078229da5b55740b64ae7d36e98565e8b25",
      "assetIds": [
        "41506478881403507969696680653240014914910929820314476107906210059990541021186"
      ]
    },
    {
      "x": 66,
      "y": 395,
      "size": 1,
      "price": "4683000000000000000000",
      "reserved": "",
      "salt": "0x770f0783047b7613d721505aed6d994480cbb34e9a4aaa8b0977b823c27e5177",
      "assetIds": [
        "41506478881403507969696680653240014914910929820314476107906210059990541021186"
      ]
    },
    {
      "x": 66,
      "y": 402,
      "size": 1,
      "price": "4683000000000000000000",
      "reserved": "",
      "salt": "0xea6f0e6b42d883f9fb74b25b374d0b94a90dd9e9b52058686f468b4e3d1f8e05",
      "assetIds": [
        "41506478881403507969696680653240014914910929820314476107906210059990541021186"
      ]
    },
    {
      "x": 66,
      "y": 403,
      "size": 1,
      "price": "1011000000000000000000",
      "reserved": "",
      "salt": "0xb720eb2678bf9975bbcf9414b3aa538bb06706a223f0ea07e4326ab37797ec76",
      "assetIds": []
    },
    {
      "x": 66,
      "y": 404,
      "size": 1,
      "price": "1011000000000000000000",
      "reserved": "",
      "salt": "0x8e1e39eab48befa34b03de796427076ee1ccdfc345d6ca04cce54c4b466eb956",
      "assetIds": []
    },
    {
      "x": 67,
      "y": 356,
      "size": 1,
      "price": "1011000000000000000000",
      "reserved": "",
      "salt": "0x9d0abef91021d7e2ffec02653e6838b947afb2601c905a0e5661ec965c9603ca",
      "assetIds": []
    },
    {
      "x": 67,
      "y": 357,
      "size": 1,
      "price": "1011000000000000000000",
      "reserved": "",
      "salt": "0x761e71025db2f84c7ba9866751de579031124b9f278ae4330c4d55fc3a7cf586",
      "assetIds": []
    },
    {
      "x": 67,
      "y": 358,
      "size": 1,
      "price": "1011000000000000000000",
      "reserved": "",
      "salt": "0xd7df014ff34f505f5f655c3b9cf4e3824dd3c7637277c4e262127d6f0e26b7ce",
      "assetIds": []
    },
    {
      "x": 67,
      "y": 359,
      "size": 1,
      "price": "1011000000000000000000",
      "reserved": "",
      "salt": "0x1c4f65583524e1310b18bbb274decb61ba9bc0abe74daeeeb82d0011251e6766",
      "assetIds": []
    },
    {
      "x": 67,
      "y": 360,
      "size": 1,
      "price": "1011000000000000000000",
      "reserved": "",
      "salt": "0x35af99cd814cd88d07b79d6794d1fb8d578ff8253e53c8493c11ebc8c217e8b2",
      "assetIds": []
    },
    {
      "x": 67,
      "y": 361,
      "size": 1,
      "price": "1011000000000000000000",
      "reserved": "",
      "salt": "0xfc1c35beb34c9a38a7729a9b5bda978460c644983ddac6afb69d081d53ea700b",
      "assetIds": []
    },
    {
      "x": 67,
      "y": 362,
      "size": 1,
      "price": "1011000000000000000000",
      "reserved": "",
      "salt": "0xf2ceb496e5e425884bef5df30cfd4e01ab48fab219cf4aafa74c1123a0dee1ce",
      "assetIds": []
    },
    {
      "x": 67,
      "y": 363,
      "size": 1,
      "price": "1011000000000000000000",
      "reserved": "",
      "salt": "0x99a726de145e044879a40fe0b514fa5d89c4f47c5a68573228737cde1dec1378",
      "assetIds": []
    },
    {
      "x": 67,
      "y": 364,
      "size": 1,
      "price": "1011000000000000000000",
      "reserved": "",
      "salt": "0xff81609fbdaf1fc9d7fe1f5e6efaabf628c429687c9a9d57c28513cbdea52b87",
      "assetIds": []
    },
    {
      "x": 67,
      "y": 365,
      "size": 1,
      "price": "1011000000000000000000",
      "reserved": "0x7a9fe22691c811ea339d9b73150e6911a5343dca",
      "salt": "0x5528b483b421f04aa55aee2c7c683f7e8873d4bd17ad4275030d7a6fa9ea3b16",
      "assetIds": []
    },
    {
      "x": 67,
      "y": 366,
      "size": 1,
      "price": "4683000000000000000000",
      "reserved": "",
      "salt": "0xc6074614d7f3d5620492ba3af5c008d20a05d0af54155cdfbf8c8f77540fe86a",
      "assetIds": [
        "41506478881403507969696680653240014914910929820314476107906210059990541021186"
      ]
    },
    {
      "x": 67,
      "y": 367,
      "size": 1,
      "price": "4683000000000000000000",
      "reserved": "",
      "salt": "0x78b1bc02d72098cad0c673fc6760a11368fe20a85861d655e8a363c17d6da892",
      "assetIds": [
        "41506478881403507969696680653240014914910929820314476107906210059990541021186"
      ]
    },
    {
      "x": 67,
      "y": 368,
      "size": 1,
      "price": "4683000000000000000000",
      "reserved": "",
      "salt": "0x862de08c2710bb21b050be87c875f34f2bab17c3d628690420f9fdbf048691eb",
      "assetIds": [
        "41506478881403507969696680653240014914910929820314476107906210059990541021186"
      ]
    },
    {
      "x": 67,
      "y": 369,
      "size": 1,
      "price": "4683000000000000000000",
      "reserved": "",
      "salt": "0x92e1b2261cd35f7fff81618f959d0e3a515640362a49d923096b6c373d1cb740",
      "assetIds": [
        "41506478881403507969696680653240014914910929820314476107906210059990541021186"
      ]
    },
    {
      "x": 67,
      "y": 370,
      "size": 1,
      "price": "1011000000000000000000",
      "reserved": "0x7a9fe22691c811ea339d9b73150e6911a5343dca",
      "salt": "0xd4d923fefaf6a44622837a52c25948ea01584b48fe00bc1d5bf269cfce097f44",
      "assetIds": []
    },
    {
      "x": 67,
      "y": 371,
      "size": 1,
      "price": "1011000000000000000000",
      "reserved": "",
      "salt": "0x5eadeaa26f0825bee2420a98017f47c6edb007a5a5c6f52bc1b126710012cd4f",
      "assetIds": []
    },
    {
      "x": 67,
      "y": 372,
      "size": 1,
      "price": "1011000000000000000000",
      "reserved": "",
      "salt": "0x83d913e752da0347e44504412d15feed8f77fa953c80b0d6db2c6015c3e606d8",
      "assetIds": []
    },
    {
      "x": 67,
      "y": 373,
      "size": 1,
      "price": "1011000000000000000000",
      "reserved": "",
      "salt": "0x3cbc6c6738e705638c12456bab85b452b25d14b2a48d97054605faef9bbb7c9d",
      "assetIds": []
    },
    {
      "x": 67,
      "y": 374,
      "size": 1,
      "price": "1011000000000000000000",
      "reserved": "",
      "salt": "0xc1027386a446b9d468d48985aa4d0d75d5241702fc13ffacd9a006cf411c042c",
      "assetIds": []
    },
    {
      "x": 67,
      "y": 375,
      "size": 1,
      "price": "1011000000000000000000",
      "reserved": "",
      "salt": "0x197dd8a5a39eb3d4626da3fced0e3c5949ec444ed91eab737612c0ce91aa73d5",
      "assetIds": []
    },
    {
      "x": 67,
      "y": 376,
      "size": 1,
      "price": "1011000000000000000000",
      "reserved": "",
      "salt": "0x2451fbe813fdbcede21e6443fbd84ed1a1e58a77129d185c20e40a40acbb7461",
      "assetIds": []
    },
    {
      "x": 67,
      "y": 377,
      "size": 1,
      "price": "4683000000000000000000",
      "reserved": "",
      "salt": "0x8a318b41263456a3da6af9646a1943d2844c90e9f9d168effd2da7f2a89402cc",
      "assetIds": [
        "41506478881403507969696680653240014914910929820314476107906210059990541021186"
      ]
    },
    {
      "x": 67,
      "y": 378,
      "size": 1,
      "price": "1011000000000000000000",
      "reserved": "",
      "salt": "0x8ff0dad99bb7f5656053def6015e179e804a0b0020f8b2291fc7c76055fb5642",
      "assetIds": []
    },
    {
      "x": 67,
      "y": 379,
      "size": 1,
      "price": "1011000000000000000000",
      "reserved": "0x7a9fe22691c811ea339d9b73150e6911a5343dca",
      "salt": "0x3c80745e579f1c93f612577711499b97c9056edcd8ea4fcb6da668573974e19c",
      "assetIds": []
    },
    {
      "x": 67,
      "y": 380,
      "size": 1,
      "price": "4683000000000000000000",
      "reserved": "",
      "salt": "0x397029f19b19d07f6a39ba32aca7d50ad2a78320495419e51104de99bc24af56",
      "assetIds": [
        "41506478881403507969696680653240014914910929820314476107906210059990541021186"
      ]
    },
    {
      "x": 67,
      "y": 381,
      "size": 1,
      "price": "4683000000000000000000",
      "reserved": "",
      "salt": "0xaaf73cd33b72e28effc448567c402a9fd1c82b396fb8822e2d6ea9f739475c9c",
      "assetIds": [
        "41506478881403507969696680653240014914910929820314476107906210059990541021186"
      ]
    },
    {
      "x": 67,
      "y": 382,
      "size": 1,
      "price": "1011000000000000000000",
      "reserved": "0x7a9fe22691c811ea339d9b73150e6911a5343dca",
      "salt": "0xe0ee74962d1489ee930649f63f4ceac95846a2f223bd3b88a5a0abebcbca9c3f",
      "assetIds": []
    },
    {
      "x": 67,
      "y": 383,
      "size": 1,
      "price": "4683000000000000000000",
      "reserved": "",
      "salt": "0x058dcf81fbea88085ffb41b68fd3a4f4d489b3ecda43e46a5498cb3fd844301d",
      "assetIds": [
        "41506478881403507969696680653240014914910929820314476107906210059990541021186"
      ]
    },
    {
      "x": 67,
      "y": 384,
      "size": 1,
      "price": "4683000000000000000000",
      "reserved": "",
      "salt": "0x4af3fdebf5bd44d8887cd8d6ee30357c0b0ed7b1877a68192d5010f91cfc6eae",
      "assetIds": [
        "41506478881403507969696680653240014914910929820314476107906210059990541021186"
      ]
    },
    {
      "x": 67,
      "y": 385,
      "size": 1,
      "price": "4683000000000000000000",
      "reserved": "",
      "salt": "0xd3d07cf2de6b597ede1a628099810ce653fde9fa2a781c065fe14dbc18c053ff",
      "assetIds": [
        "41506478881403507969696680653240014914910929820314476107906210059990541021186"
      ]
    },
    {
      "x": 67,
      "y": 386,
      "size": 1,
      "price": "1011000000000000000000",
      "reserved": "",
      "salt": "0xbb85fd47d9f5dd7b6a390de9bdc9fa119a2ae2a8af514b940fdbe3f9387f6a3f",
      "assetIds": []
    },
    {
      "x": 67,
      "y": 387,
      "size": 1,
      "price": "1011000000000000000000",
      "reserved": "",
      "salt": "0x58b1426a193eccfa1e4995fc6cbb28843f19794d007f9a155ca2f883b745dc77",
      "assetIds": []
    },
    {
      "x": 67,
      "y": 388,
      "size": 1,
      "price": "1011000000000000000000",
      "reserved": "",
      "salt": "0x4af58b65c22e7f697b0135255894e4e2d99f1058d7d3444976dd7c9c93227b98",
      "assetIds": []
    },
    {
      "x": 67,
      "y": 389,
      "size": 1,
      "price": "1011000000000000000000",
      "reserved": "",
      "salt": "0xdc021b6acba100efcbbb04eff610ad2483406ba9bfbeb39ac9ef45f1a55ce997",
      "assetIds": []
    },
    {
      "x": 67,
      "y": 390,
      "size": 1,
      "price": "1011000000000000000000",
      "reserved": "",
      "salt": "0xf5afa93c35ef4ad451e8a0037f392fdfec87524e7374e84153d0fdcc6fd76d1d",
      "assetIds": []
    },
    {
      "x": 67,
      "y": 391,
      "size": 1,
      "price": "1011000000000000000000",
      "reserved": "",
      "salt": "0xe9737b6d6281bdb05547a9b580e9bfb4164ac25857ab3f248aefa82d9928e794",
      "assetIds": []
    },
    {
      "x": 67,
      "y": 392,
      "size": 1,
      "price": "1011000000000000000000",
      "reserved": "",
      "salt": "0xdd493553e701f7e09fec70e6fa4685f790cca1c40a64f649488e8d39d32bc389",
      "assetIds": []
    },
    {
      "x": 67,
      "y": 393,
      "size": 1,
      "price": "1011000000000000000000",
      "reserved": "",
      "salt": "0x1ec3a43800b4239af449697cd77e6e80b92c848a315c8065b5834f1c47dfdab5",
      "assetIds": []
    },
    {
      "x": 67,
      "y": 394,
      "size": 1,
      "price": "4683000000000000000000",
      "reserved": "",
      "salt": "0x01a9e5d77d40a527243ea97ec4011b45834d6eeffd399f742e47afd2137e602a",
      "assetIds": [
        "41506478881403507969696680653240014914910929820314476107906210059990541021186"
      ]
    },
    {
      "x": 67,
      "y": 395,
      "size": 1,
      "price": "4683000000000000000000",
      "reserved": "",
      "salt": "0x55a71efe48c1dfc0f51978af1042297f4506852b9fcde21f77f694caf1e90bf7",
      "assetIds": [
        "41506478881403507969696680653240014914910929820314476107906210059990541021186"
      ]
    },
    {
      "x": 67,
      "y": 402,
      "size": 1,
      "price": "4683000000000000000000",
      "reserved": "",
      "salt": "0x09e23af56b28426faf3a8a81b4dde6c87fff7cc2c50efab450d102e5057cdc2b",
      "assetIds": [
        "41506478881403507969696680653240014914910929820314476107906210059990541021186"
      ]
    },
    {
      "x": 67,
      "y": 403,
      "size": 1,
      "price": "4683000000000000000000",
      "reserved": "",
      "salt": "0x547431cf8a956fde97ff52f2efa6e49e778c591d7f64235cc6bfec65cac4a3cb",
      "assetIds": [
        "41506478881403507969696680653240014914910929820314476107906210059990541021186"
      ]
    },
    {
      "x": 67,
      "y": 404,
      "size": 1,
      "price": "1011000000000000000000",
      "reserved": "",
      "salt": "0xe9ffd5e6a9ca2b8bb43615ca604dfd4d3061a86e851238f1024fa8ebaa37d56f",
      "assetIds": []
    },
    {
      "x": 68,
      "y": 356,
      "size": 1,
      "price": "1011000000000000000000",
      "reserved": "",
      "salt": "0xed46d09e920c5e63f5f740e18a217a7dc3cb2855cea8e850360d3888b142883e",
      "assetIds": []
    },
    {
      "x": 68,
      "y": 357,
      "size": 1,
      "price": "1011000000000000000000",
      "reserved": "",
      "salt": "0x26ce286442e1910bec4076ed3baee13f0a1dd523fcd3df290e47799175f6ce9a",
      "assetIds": []
    },
    {
      "x": 68,
      "y": 358,
      "size": 1,
      "price": "1011000000000000000000",
      "reserved": "",
      "salt": "0x0209ca00c31edfeb363f9b1fff0f9145ada67d5ad20930f4f2943379ec41e4f4",
      "assetIds": []
    },
    {
      "x": 68,
      "y": 359,
      "size": 1,
      "price": "1011000000000000000000",
      "reserved": "",
      "salt": "0x5e519bf26cb4aced47b3ee95f15c93ec51c89df728e1d07cda305b6dbc06832a",
      "assetIds": []
    },
    {
      "x": 68,
      "y": 360,
      "size": 1,
      "price": "1011000000000000000000",
      "reserved": "",
      "salt": "0x2f5a753ce8cdda51e1f9baa7a9db0ddaca3b1970bb5d319306f493573bdd6741",
      "assetIds": []
    },
    {
      "x": 68,
      "y": 361,
      "size": 1,
      "price": "1011000000000000000000",
      "reserved": "",
      "salt": "0x5ca6299c4964e0b8be322f61a9a548ca3e222a974ad2e8fb22171b6634814779",
      "assetIds": []
    },
    {
      "x": 68,
      "y": 362,
      "size": 1,
      "price": "1011000000000000000000",
      "reserved": "",
      "salt": "0x7b17c3bf4ab35590a1be589819a25ed326858b4417f975213e32d232a0446085",
      "assetIds": []
    },
    {
      "x": 68,
      "y": 363,
      "size": 1,
      "price": "1011000000000000000000",
      "reserved": "",
      "salt": "0xd2d0ddc3f246ce8165d7c5eca76820ae2a718f99493fa6587b9d277217765ac8",
      "assetIds": []
    },
    {
      "x": 68,
      "y": 364,
      "size": 1,
      "price": "1011000000000000000000",
      "reserved": "",
      "salt": "0x409686f1322b7f90efacde94195379c43ef39b7534e92a22587d5286f39cf48e",
      "assetIds": []
    },
    {
      "x": 68,
      "y": 365,
      "size": 1,
      "price": "1011000000000000000000",
      "reserved": "",
      "salt": "0x74de717112fbc7584e4f1a8680564222ab1c18fd6f95e43586568f486f3ac489",
      "assetIds": []
    },
    {
      "x": 68,
      "y": 366,
      "size": 1,
      "price": "4683000000000000000000",
      "reserved": "",
      "salt": "0x40ffa853104b6f59aed2fc597d3b39dde314b5fd13dec1b8b20306229a71d812",
      "assetIds": [
        "41506478881403507969696680653240014914910929820314476107906210059990541021186"
      ]
    },
    {
      "x": 68,
      "y": 367,
      "size": 1,
      "price": "1011000000000000000000",
      "reserved": "",
      "salt": "0xa88b1e5200c5f6dbace4212d63d74aa8e28a1179018ea4a0f909eeedec22f1dc",
      "assetIds": []
    },
    {
      "x": 68,
      "y": 368,
      "size": 1,
      "price": "1011000000000000000000",
      "reserved": "",
      "salt": "0x8bddfc8b5bf7250e4c95cecb0ef55c4fe3987e2ba97c7816ba51f1a7f06a387f",
      "assetIds": []
    },
    {
      "x": 68,
      "y": 369,
      "size": 1,
      "price": "1011000000000000000000",
      "reserved": "",
      "salt": "0xcb75ab248953a237652ac5a12c870fa7d35ae988ef182e46bb3199e98e38a6da",
      "assetIds": []
    },
    {
      "x": 68,
      "y": 370,
      "size": 1,
      "price": "1011000000000000000000",
      "reserved": "",
      "salt": "0x089bf77babab6051f4ab9df04596be893783b915c9069ffb25552e7bcca189ff",
      "assetIds": []
    },
    {
      "x": 68,
      "y": 371,
      "size": 1,
      "price": "1011000000000000000000",
      "reserved": "",
      "salt": "0x2e498547729405a9cc274c9ccbdb337a21687fc7f972fc1332a5354c8be0fedd",
      "assetIds": []
    },
    {
      "x": 68,
      "y": 372,
      "size": 1,
      "price": "1011000000000000000000",
      "reserved": "",
      "salt": "0x118876ac15ad34c82a45d30e5ca0bc351df3832380f0ae3f33f6944c633b02c0",
      "assetIds": []
    },
    {
      "x": 68,
      "y": 373,
      "size": 1,
      "price": "1011000000000000000000",
      "reserved": "",
      "salt": "0x7aa4a2a78fe99170bcd9ee8c3cd55702d7cf14b8e775693dca1300797e6769f1",
      "assetIds": []
    },
    {
      "x": 68,
      "y": 374,
      "size": 1,
      "price": "1011000000000000000000",
      "reserved": "",
      "salt": "0x53edca8305b515cf681537bc616a18d1ba5d0d45c85b5e6553fc52c80ce399ce",
      "assetIds": []
    },
    {
      "x": 68,
      "y": 375,
      "size": 1,
      "price": "1011000000000000000000",
      "reserved": "",
      "salt": "0xc6d2d007c4497faf763f5d0baa0e537f193642179a06e0cd5c43a3562920d83b",
      "assetIds": []
    },
    {
      "x": 68,
      "y": 376,
      "size": 1,
      "price": "1011000000000000000000",
      "reserved": "",
      "salt": "0xc74f2e2bce50c8c5f7bbaae9c4918fa67c3f6674c74fc9dcd73162bc6c66cc4d",
      "assetIds": []
    },
    {
      "x": 68,
      "y": 377,
      "size": 1,
      "price": "1011000000000000000000",
      "reserved": "",
      "salt": "0x4ff7cb5fd5fe6f906e29e5ab41c3f04ec649966f339d0e39e55dbf6b5f623ef2",
      "assetIds": []
    },
    {
      "x": 68,
      "y": 378,
      "size": 1,
      "price": "1011000000000000000000",
      "reserved": "",
      "salt": "0xa368bd0aeb7096f3b117569ff900cdd90696b9590ec0dbfc90c85102a706ed51",
      "assetIds": []
    },
    {
      "x": 68,
      "y": 379,
      "size": 1,
      "price": "1011000000000000000000",
      "reserved": "",
      "salt": "0x447f652cde37477ae31b395ff8170e8642fb040aeb36b26193db705b9192ad16",
      "assetIds": []
    },
    {
      "x": 68,
      "y": 380,
      "size": 1,
      "price": "1011000000000000000000",
      "reserved": "",
      "salt": "0x1d6b86709afee2f17d86bc3182bd42c688dd270eef21febcb8f1b06267b9fe0e",
      "assetIds": []
    },
    {
      "x": 68,
      "y": 381,
      "size": 1,
      "price": "1011000000000000000000",
      "reserved": "",
      "salt": "0x5f2726bf6dcdf15e7676c38b20923b2085811efe841ca5f62b821c8f61e3ceaa",
      "assetIds": []
    },
    {
      "x": 68,
      "y": 382,
      "size": 1,
      "price": "1011000000000000000000",
      "reserved": "",
      "salt": "0xdd484b7fa64f18246bff9d97d853c669115c585e80f8ea4a0d51f31ead29c224",
      "assetIds": []
    },
    {
      "x": 68,
      "y": 383,
      "size": 1,
      "price": "1011000000000000000000",
      "reserved": "",
      "salt": "0x337c45b487ae289f39afaaf88aa669e5d5c63f3d8af23e0062c2198aabcab155",
      "assetIds": []
    },
    {
      "x": 68,
      "y": 384,
      "size": 1,
      "price": "1011000000000000000000",
      "reserved": "",
      "salt": "0x6659bf523546e66079ffeb1d800d7cf7897e4d0e2f4fa019b130f28a717a2af0",
      "assetIds": []
    },
    {
      "x": 68,
      "y": 385,
      "size": 1,
      "price": "1011000000000000000000",
      "reserved": "",
      "salt": "0x41d955836cc0739797d8455968f5dd2264ecf09ae9a9f5fb5fa22b87c40517ef",
      "assetIds": []
    },
    {
      "x": 68,
      "y": 386,
      "size": 1,
      "price": "1011000000000000000000",
      "reserved": "",
      "salt": "0x50f915c3a7fbccf03751caa191a0e11e8b7fb88aee24e0594ce2f6f5c324c644",
      "assetIds": []
    },
    {
      "x": 68,
      "y": 387,
      "size": 1,
      "price": "1011000000000000000000",
      "reserved": "",
      "salt": "0xd75ccf01ef203f9654d5d86ba5cfcf52e387ae87dbe82ce9f3156e3d3d85a713",
      "assetIds": []
    },
    {
      "x": 68,
      "y": 388,
      "size": 1,
      "price": "1011000000000000000000",
      "reserved": "",
      "salt": "0x036559929d6b598fa73c7f6a2c4104a95e8bd4a487fe21df365fc08638c08a0a",
      "assetIds": []
    },
    {
      "x": 68,
      "y": 389,
      "size": 1,
      "price": "1011000000000000000000",
      "reserved": "",
      "salt": "0x9374ee7295d06fe408096f42559a20539cb37c74664affcaf99a5563b4515b15",
      "assetIds": []
    },
    {
      "x": 68,
      "y": 390,
      "size": 1,
      "price": "1011000000000000000000",
      "reserved": "",
      "salt": "0x4865040f4ef1a9957928c945a903a8b9b4e35542f7deca54b90d7efd2d4be9a1",
      "assetIds": []
    },
    {
      "x": 68,
      "y": 391,
      "size": 1,
      "price": "1011000000000000000000",
      "reserved": "",
      "salt": "0x2141fdf33fd50441db1102a7a56de795575c092d1918df6f3f45a5fbcf51e5e9",
      "assetIds": []
    },
    {
      "x": 68,
      "y": 392,
      "size": 1,
      "price": "1011000000000000000000",
      "reserved": "",
      "salt": "0x90e28b7194ec68efb4a5b76fd3b124941833cadb2e28fe67142c5870f031099b",
      "assetIds": []
    },
    {
      "x": 68,
      "y": 393,
      "size": 1,
      "price": "1011000000000000000000",
      "reserved": "",
      "salt": "0x7daf4e51204d3f2e8eff28ce1053bb9835d62fd9413aa81d9eb52fb9fc8063f0",
      "assetIds": []
    },
    {
      "x": 68,
      "y": 394,
      "size": 1,
      "price": "4683000000000000000000",
      "reserved": "",
      "salt": "0x41e92b7aded5bf0ddb1dc3ab7eaa5be5acf6537edd25516a0a6851849be42148",
      "assetIds": [
        "41506478881403507969696680653240014914910929820314476107906210059990541021186"
      ]
    },
    {
      "x": 68,
      "y": 395,
      "size": 1,
      "price": "4683000000000000000000",
      "reserved": "",
      "salt": "0x135175972eb165146d6d682c7455c0ea3293d65f1919cb3c2c2b57749f3d18d8",
      "assetIds": [
        "41506478881403507969696680653240014914910929820314476107906210059990541021186"
      ]
    },
    {
      "x": 68,
      "y": 402,
      "size": 1,
      "price": "4683000000000000000000",
      "reserved": "",
      "salt": "0x1de93f40e2bcd82ac51a93ee7914ec9d30f50663d369bca0dd49687871150365",
      "assetIds": [
        "41506478881403507969696680653240014914910929820314476107906210059990541021186"
      ]
    },
    {
      "x": 68,
      "y": 403,
      "size": 1,
      "price": "1011000000000000000000",
      "reserved": "0x7a9fe22691c811ea339d9b73150e6911a5343dca",
      "salt": "0x1f66f16df7feaccaa67409ed37861a456a2ff58a2edac4075d016a514ed47554",
      "assetIds": []
    },
    {
      "x": 68,
      "y": 404,
      "size": 1,
      "price": "1011000000000000000000",
      "reserved": "",
      "salt": "0x3046337be7fb6ecc244e2b0ee83ab33debfc963187ad6464cdd84d34f35f3e4a",
      "assetIds": []
    },
    {
      "x": 69,
      "y": 356,
      "size": 1,
      "price": "1011000000000000000000",
      "reserved": "",
      "salt": "0xdf2d9a8dfd9d3dba7e1885ae1eec2f651e9c50b179e7f8178ff7174547a65a22",
      "assetIds": []
    },
    {
      "x": 69,
      "y": 357,
      "size": 1,
      "price": "1011000000000000000000",
      "reserved": "",
      "salt": "0x4e40b78919072a906a25f49a4333a0fac8e35474706e1b29923a475229e7c022",
      "assetIds": []
    },
    {
      "x": 69,
      "y": 358,
      "size": 1,
      "price": "1011000000000000000000",
      "reserved": "",
      "salt": "0xaeef1c0c8f8d3cc016cfd8d6d7572b976ca9858369c0fffa3ec4d46bb991a07f",
      "assetIds": []
    },
    {
      "x": 69,
      "y": 359,
      "size": 1,
      "price": "1011000000000000000000",
      "reserved": "",
      "salt": "0x95b5194d4575f1ea1457ca1a7db515a142b3f525cce7b56359fe3c3f3d883a01",
      "assetIds": []
    },
    {
      "x": 69,
      "y": 360,
      "size": 1,
      "price": "1011000000000000000000",
      "reserved": "",
      "salt": "0x5565c45570bc273612e61c03c86a09f8756bfb08595eb803ad3cba90041ad459",
      "assetIds": []
    },
    {
      "x": 69,
      "y": 361,
      "size": 1,
      "price": "1011000000000000000000",
      "reserved": "0x7a9fe22691c811ea339d9b73150e6911a5343dca",
      "salt": "0x8e0af21c292d334e171c6c08cee64bae5ee59525f2b84a9f1066adf4903fa829",
      "assetIds": []
    },
    {
      "x": 69,
      "y": 362,
      "size": 1,
      "price": "1011000000000000000000",
      "reserved": "",
      "salt": "0x9b7e6107a482c4e0c979b0a0e69c3dfb94b3fbf7028c54dacb97681710464b85",
      "assetIds": []
    },
    {
      "x": 69,
      "y": 363,
      "size": 1,
      "price": "1011000000000000000000",
      "reserved": "",
      "salt": "0x71ea6c0c61b9ed6ac37bd26a17ac2c80997c67a26112a586e56186e30c58c09a",
      "assetIds": []
    },
    {
      "x": 69,
      "y": 364,
      "size": 1,
      "price": "1011000000000000000000",
      "reserved": "",
      "salt": "0x1bf09de298af2283e23d889e8a8331ec774245032da12da06a8219e65be6cfae",
      "assetIds": []
    },
    {
      "x": 69,
      "y": 365,
      "size": 1,
      "price": "1011000000000000000000",
      "reserved": "",
      "salt": "0x531574dcde46abf3164e4ec696ad7d78e6f3ecdcc93d4ef87c72fe1ef9dd144c",
      "assetIds": []
    },
    {
      "x": 69,
      "y": 366,
      "size": 1,
      "price": "1011000000000000000000",
      "reserved": "",
      "salt": "0x8722f51a836691bc7014e4059df72c1396e6b3391eb634d0593f4c98694f7a7a",
      "assetIds": []
    },
    {
      "x": 69,
      "y": 367,
      "size": 1,
      "price": "1011000000000000000000",
      "reserved": "",
      "salt": "0xb17eaf8b3f6c1c7ecffe966795943223f4fec58e87996b3e9fcdadd6e8bc3521",
      "assetIds": []
    },
    {
      "x": 69,
      "y": 368,
      "size": 1,
      "price": "1011000000000000000000",
      "reserved": "",
      "salt": "0x2bed8138c2d0fcba1d4dfdaa3c082598ecca635d5b42d823d609e4a28d345f85",
      "assetIds": []
    },
    {
      "x": 69,
      "y": 369,
      "size": 1,
      "price": "1011000000000000000000",
      "reserved": "",
      "salt": "0xa65daebd46f5c3ae7214a1bbd47cd4fd72a10cff6a37833254338f44e013bbd2",
      "assetIds": []
    },
    {
      "x": 69,
      "y": 370,
      "size": 1,
      "price": "1011000000000000000000",
      "reserved": "",
      "salt": "0x5a59813f086b05ad2f11b458dda3077221c4c7c3c6097bfd180d7aa5226fca31",
      "assetIds": []
    },
    {
      "x": 69,
      "y": 371,
      "size": 1,
      "price": "1011000000000000000000",
      "reserved": "",
      "salt": "0xb0d1d4257c6829e6691f9aae309f3c5d5d80505a0d659e4782d3d8c2b3e6fef0",
      "assetIds": []
    },
    {
      "x": 69,
      "y": 372,
      "size": 1,
      "price": "1011000000000000000000",
      "reserved": "",
      "salt": "0xec775b4a6bc086be2779be7eea7aca82f03b8906eba36e97dea0ae821c2369b0",
      "assetIds": []
    },
    {
      "x": 69,
      "y": 373,
      "size": 1,
      "price": "4683000000000000000000",
      "reserved": "",
      "salt": "0x68fefcc2e98821da45682dee27f5640841593b099dc8533381de5281253b8fa6",
      "assetIds": [
        "41506478881403507969696680653240014914910929820314476107906210059990541021186"
      ]
    },
    {
      "x": 69,
      "y": 374,
      "size": 1,
      "price": "4683000000000000000000",
      "reserved": "",
      "salt": "0x04ec8e9122fbf71ef8ab40e8e0cac90a568c3c07960fa8a17b3a17d7f47cc954",
      "assetIds": [
        "41506478881403507969696680653240014914910929820314476107906210059990541021186"
      ]
    },
    {
      "x": 69,
      "y": 375,
      "size": 1,
      "price": "1011000000000000000000",
      "reserved": "",
      "salt": "0xffe9da0b657b49f535e6173fd02da6250787c9e601cc4f24b2b0812f42d78256",
      "assetIds": []
    },
    {
      "x": 69,
      "y": 376,
      "size": 1,
      "price": "1011000000000000000000",
      "reserved": "",
      "salt": "0x5970441f98f2fb1d04961a961014f2141b09377ee51b5baf63b5bead4a3e0106",
      "assetIds": []
    },
    {
      "x": 69,
      "y": 377,
      "size": 1,
      "price": "1011000000000000000000",
      "reserved": "",
      "salt": "0xeda7490d621b396d580f85b519ed70b5444f47d8875c8606d9dbfdbc322c7837",
      "assetIds": []
    },
    {
      "x": 69,
      "y": 378,
      "size": 1,
      "price": "1011000000000000000000",
      "reserved": "",
      "salt": "0x265d53d3fbe621402845e73ec62bdd5f1917ed11d3757dda546d3aa145dea232",
      "assetIds": []
    },
    {
      "x": 69,
      "y": 379,
      "size": 1,
      "price": "1011000000000000000000",
      "reserved": "",
      "salt": "0xf3567c9c1bfd02e07fcf7aac0afee399300b795b36568a21225a772d72495e0b",
      "assetIds": []
    },
    {
      "x": 69,
      "y": 380,
      "size": 1,
      "price": "1011000000000000000000",
      "reserved": "",
      "salt": "0x3affb99782ce9e9caac71c4234280cba49caf55ab5c0e5ac7db435565613347d",
      "assetIds": []
    },
    {
      "x": 69,
      "y": 381,
      "size": 1,
      "price": "1011000000000000000000",
      "reserved": "",
      "salt": "0xc655b62adaa84b6a28436e60097e61bd0de58891eeccaf35190045415815d0a8",
      "assetIds": []
    },
    {
      "x": 69,
      "y": 382,
      "size": 1,
      "price": "1011000000000000000000",
      "reserved": "",
      "salt": "0xc2fd9b80cc61e14ef89582c7b5fe698b461b00440c307e5c9eb5dd5993986ae5",
      "assetIds": []
    },
    {
      "x": 69,
      "y": 383,
      "size": 1,
      "price": "1011000000000000000000",
      "reserved": "",
      "salt": "0x60efcb463e7806802258b6f96fc5fbb6f3f8788fb19f38af8b0c4e7bd39ef78d",
      "assetIds": []
    },
    {
      "x": 69,
      "y": 384,
      "size": 1,
      "price": "1011000000000000000000",
      "reserved": "",
      "salt": "0x03255292c6a693f89e7bb7ea2ce293faaa3af6c0b063968b3868d56968f5b289",
      "assetIds": []
    },
    {
      "x": 69,
      "y": 385,
      "size": 1,
      "price": "1011000000000000000000",
      "reserved": "",
      "salt": "0x6b904fecaf3cd6e83608e0e172661a24e0d5d1907d0e36e2da5777599b65d18f",
      "assetIds": []
    },
    {
      "x": 69,
      "y": 386,
      "size": 1,
      "price": "1011000000000000000000",
      "reserved": "",
      "salt": "0xad233c7207f0a382a64775dab6426cb9a8f71dee804c11718ea508ce18b417b8",
      "assetIds": []
    },
    {
      "x": 69,
      "y": 387,
      "size": 1,
      "price": "1011000000000000000000",
      "reserved": "",
      "salt": "0x0220f4c662093e85f45a046394b82ce1a70b7cd6f6ea3665e040b45613ac2986",
      "assetIds": []
    },
    {
      "x": 69,
      "y": 388,
      "size": 1,
      "price": "1011000000000000000000",
      "reserved": "",
      "salt": "0x689ead0beaca52b2bbbcfdbad2bf95d9bc8a24938d0e5406dd22fbfcec5c220e",
      "assetIds": []
    },
    {
      "x": 69,
      "y": 389,
      "size": 1,
      "price": "1011000000000000000000",
      "reserved": "",
      "salt": "0xcbeba852240468ec4b3d68fe246010cd897e352a91fd55047c3c40b94949d8d3",
      "assetIds": []
    },
    {
      "x": 69,
      "y": 390,
      "size": 1,
      "price": "1011000000000000000000",
      "reserved": "",
      "salt": "0x84c42029234a72f655140140fb1a003fe3f2e68b9bf91f342232b48dce2f0a1f",
      "assetIds": []
    },
    {
      "x": 69,
      "y": 391,
      "size": 1,
      "price": "1011000000000000000000",
      "reserved": "",
      "salt": "0x95b76084bac97cd82affad9c8d478e0a6eaf7027935c0f1843f66e74a85b8087",
      "assetIds": []
    },
    {
      "x": 69,
      "y": 392,
      "size": 1,
      "price": "1011000000000000000000",
      "reserved": "",
      "salt": "0x868462aa43b2ce2063f6e429cb7608528736f8bc1b97aac20b8abc4dce7ce0f0",
      "assetIds": []
    },
    {
      "x": 69,
      "y": 393,
      "size": 1,
      "price": "1011000000000000000000",
      "reserved": "",
      "salt": "0xb672e53d39eca85cfc671268bf830a4a035e6a8762a9c23d047e8a4744885c3b",
      "assetIds": []
    },
    {
      "x": 69,
      "y": 394,
      "size": 1,
      "price": "4683000000000000000000",
      "reserved": "",
      "salt": "0x2821cd9707916f7e312546295083badf4fef91708d713ea6a5d9396e24c0b179",
      "assetIds": [
        "41506478881403507969696680653240014914910929820314476107906210059990541021186"
      ]
    },
    {
      "x": 69,
      "y": 395,
      "size": 1,
      "price": "4683000000000000000000",
      "reserved": "",
      "salt": "0x5d7d80920be5e1d66cdb45ad397421f22c06149ee66aa8a8c2e172f0f7bb9299",
      "assetIds": [
        "41506478881403507969696680653240014914910929820314476107906210059990541021186"
      ]
    },
    {
      "x": 69,
      "y": 402,
      "size": 1,
      "price": "4683000000000000000000",
      "reserved": "",
      "salt": "0xeb2fc0349418ad8485036dc6e96fc492f2f0b751fa37492e83e4a0c5822a11f7",
      "assetIds": [
        "41506478881403507969696680653240014914910929820314476107906210059990541021186"
      ]
    },
    {
      "x": 69,
      "y": 403,
      "size": 1,
      "price": "4683000000000000000000",
      "reserved": "",
      "salt": "0xd6c290b1d2be7720afe6e214cfb178fcdf2208215238dc9908736c5ebbc9970c",
      "assetIds": [
        "41506478881403507969696680653240014914910929820314476107906210059990541021186"
      ]
    },
    {
      "x": 69,
      "y": 404,
      "size": 1,
      "price": "1011000000000000000000",
      "reserved": "",
      "salt": "0xd5aadeea008c2a9ffc17bd955480e46cfa0288d33c3fc730ee81c5ff450e5807",
      "assetIds": []
    },
    {
      "x": 69,
      "y": 405,
      "size": 1,
      "price": "1011000000000000000000",
      "reserved": "",
      "salt": "0x9122e5bacf81023ddba71c72a2f3cbea2eb3868053f3805d4abfa66c9fdc2269",
      "assetIds": []
    },
    {
      "x": 69,
      "y": 406,
      "size": 1,
      "price": "1011000000000000000000",
      "reserved": "",
      "salt": "0x22bed460d4fa21a1aabbfe5d922ae1b1aed636883428d2c8e7e6bdcb3c5e6258",
      "assetIds": []
    },
    {
      "x": 69,
      "y": 407,
      "size": 1,
      "price": "1011000000000000000000",
      "reserved": "",
      "salt": "0x0f6d31b6a3bfde8e644ac37d8bab4f25730ab6440b62e85dba314fd502f7d7b6",
      "assetIds": []
    },
    {
      "x": 70,
      "y": 356,
      "size": 1,
      "price": "1011000000000000000000",
      "reserved": "",
      "salt": "0x2b1f721f7f07cd5d7ad6a49213e7cefb9b4394ddd0f97d4be728beea84e9139f",
      "assetIds": []
    },
    {
      "x": 70,
      "y": 357,
      "size": 1,
      "price": "1011000000000000000000",
      "reserved": "",
      "salt": "0x42a5d60076029a3b60b32fa2e39b7141f4e9836396a6cddb95df968249e74fa6",
      "assetIds": []
    },
    {
      "x": 70,
      "y": 358,
      "size": 1,
      "price": "1011000000000000000000",
      "reserved": "",
      "salt": "0x030f9f0ee3682bfeb2393fd65575165ae5e96bf5e6273ebf56a430ee8ceb5f12",
      "assetIds": []
    },
    {
      "x": 70,
      "y": 359,
      "size": 1,
      "price": "1011000000000000000000",
      "reserved": "",
      "salt": "0x3b89296e1b4e4ad391431a9f22752bdcf5c1d327177e2473e629830c8df628a2",
      "assetIds": []
    },
    {
      "x": 70,
      "y": 360,
      "size": 1,
      "price": "4683000000000000000000",
      "reserved": "",
      "salt": "0xce329f1ad1335dc8371bcd529f589c0f1aa415d047d760772bc53a10519e0ad9",
      "assetIds": [
        "41506478881403507969696680653240014914910929820314476107906210059990541021186"
      ]
    },
    {
      "x": 70,
      "y": 361,
      "size": 1,
      "price": "4683000000000000000000",
      "reserved": "",
      "salt": "0xc0a16f23c5078d980218c86b9830bdfd051fe35bf9bb93b4e3e2c4c81664f5d8",
      "assetIds": [
        "41506478881403507969696680653240014914910929820314476107906210059990541021186"
      ]
    },
    {
      "x": 70,
      "y": 362,
      "size": 1,
      "price": "4683000000000000000000",
      "reserved": "",
      "salt": "0x4bdd8d7e02a1f350c2484491d64286e55988b1f8010c115507657b754a1372ec",
      "assetIds": [
        "41506478881403507969696680653240014914910929820314476107906210059990541021186"
      ]
    },
    {
      "x": 70,
      "y": 363,
      "size": 1,
      "price": "4683000000000000000000",
      "reserved": "",
      "salt": "0x330426484ede6bed3efc7910be7f9ed7d89a5950f0a9e5058d8813979197ec21",
      "assetIds": [
        "41506478881403507969696680653240014914910929820314476107906210059990541021186"
      ]
    },
    {
      "x": 70,
      "y": 364,
      "size": 1,
      "price": "1011000000000000000000",
      "reserved": "0x7a9fe22691c811ea339d9b73150e6911a5343dca",
      "salt": "0xf5b6e3a348e5a8caa55351c0bfb1d8f35d6c234d464735e981cd45c1a91609d0",
      "assetIds": []
    },
    {
      "x": 70,
      "y": 365,
      "size": 1,
      "price": "4683000000000000000000",
      "reserved": "",
      "salt": "0xaea675bd445eef1c19809e6cd6cd258e0e8f0fecff0ab6d9d2852542c4a4af67",
      "assetIds": [
        "41506478881403507969696680653240014914910929820314476107906210059990541021186"
      ]
    },
    {
      "x": 70,
      "y": 366,
      "size": 1,
      "price": "4683000000000000000000",
      "reserved": "",
      "salt": "0x4ead841b27b0ad5e0a8bc0a94df068c6abfd75a3ca8710b7ce7fe9d93af8c0b6",
      "assetIds": [
        "41506478881403507969696680653240014914910929820314476107906210059990541021186"
      ]
    },
    {
      "x": 70,
      "y": 367,
      "size": 1,
      "price": "4683000000000000000000",
      "reserved": "",
      "salt": "0x6d415abc6ba9f6b8c0347c81589d0840ae160a57a10477552ad8880623a66173",
      "assetIds": [
        "41506478881403507969696680653240014914910929820314476107906210059990541021186"
      ]
    },
    {
      "x": 70,
      "y": 368,
      "size": 1,
      "price": "4683000000000000000000",
      "reserved": "",
      "salt": "0xfcbe3cb02d8bff188d973e53080d7a9c8f5b2d7932db4746a08dcecdf84de056",
      "assetIds": [
        "41506478881403507969696680653240014914910929820314476107906210059990541021186"
      ]
    },
    {
      "x": 70,
      "y": 369,
      "size": 1,
      "price": "4683000000000000000000",
      "reserved": "",
      "salt": "0xcd66d370db7697dff0ec19c05cb9528cb923cbab389781edbfca4444c21f2c99",
      "assetIds": [
        "41506478881403507969696680653240014914910929820314476107906210059990541021186"
      ]
    },
    {
      "x": 70,
      "y": 370,
      "size": 1,
      "price": "1011000000000000000000",
      "reserved": "0x7a9fe22691c811ea339d9b73150e6911a5343dca",
      "salt": "0xbdaefcb43fa4b012d7500760b94631b35d87d6db60a9bf2d9c0e853f6cea88c6",
      "assetIds": []
    },
    {
      "x": 70,
      "y": 371,
      "size": 1,
      "price": "4683000000000000000000",
      "reserved": "",
      "salt": "0x0489e629c40241cfcbc0128f0bd11fdabbfdd1afaeb57d8b3f9ee0e33d667ada",
      "assetIds": [
        "41506478881403507969696680653240014914910929820314476107906210059990541021186"
      ]
    },
    {
      "x": 70,
      "y": 372,
      "size": 1,
      "price": "4683000000000000000000",
      "reserved": "",
      "salt": "0x8f0e4b464344c7e4237d79a3fc3ed9dce9146acb2a899c9f2b2a5e3cf304427c",
      "assetIds": [
        "41506478881403507969696680653240014914910929820314476107906210059990541021186"
      ]
    },
    {
      "x": 70,
      "y": 373,
      "size": 1,
      "price": "4683000000000000000000",
      "reserved": "",
      "salt": "0x0f4cd7a641c1f4ca9790a6c5b67eda4b799715c98a7da95ffba490b305dee009",
      "assetIds": [
        "41506478881403507969696680653240014914910929820314476107906210059990541021186"
      ]
    },
    {
      "x": 70,
      "y": 374,
      "size": 1,
      "price": "4683000000000000000000",
      "reserved": "",
      "salt": "0x54ff157faf8961205e4f1af6d8867b5b194ef7ff90049474f9eb48ef75282ebf",
      "assetIds": [
        "41506478881403507969696680653240014914910929820314476107906210059990541021186"
      ]
    },
    {
      "x": 70,
      "y": 375,
      "size": 1,
      "price": "4683000000000000000000",
      "reserved": "",
      "salt": "0x92c875d58b99ee57bd2389ebbf91036dc082140af5751e1f8f8762ce7bd8ca86",
      "assetIds": [
        "41506478881403507969696680653240014914910929820314476107906210059990541021186"
      ]
    },
    {
      "x": 70,
      "y": 376,
      "size": 1,
      "price": "4683000000000000000000",
      "reserved": "",
      "salt": "0xc89d0ce5c55f1ea548155df97a6870fcac1dde0e427de3ff22a34e7a1816644d",
      "assetIds": [
        "41506478881403507969696680653240014914910929820314476107906210059990541021186"
      ]
    },
    {
      "x": 70,
      "y": 377,
      "size": 1,
      "price": "4683000000000000000000",
      "reserved": "",
      "salt": "0x401aa07c95859b334e342bdb1755770e0d1ad679c85c946a1ec7540a91896124",
      "assetIds": [
        "41506478881403507969696680653240014914910929820314476107906210059990541021186"
      ]
    },
    {
      "x": 70,
      "y": 378,
      "size": 1,
      "price": "4683000000000000000000",
      "reserved": "",
      "salt": "0x828bad86bbea7870e21819858fff8ec97d51a1ecdb67d2be688141bc261767c0",
      "assetIds": [
        "41506478881403507969696680653240014914910929820314476107906210059990541021186"
      ]
    },
    {
      "x": 70,
      "y": 379,
      "size": 1,
      "price": "4683000000000000000000",
      "reserved": "",
      "salt": "0x99a386d07f5291f21d8b9a0e826e34449ff31aea935e0e820af480ee229edc30",
      "assetIds": [
        "41506478881403507969696680653240014914910929820314476107906210059990541021186"
      ]
    },
    {
      "x": 70,
      "y": 380,
      "size": 1,
      "price": "1011000000000000000000",
      "reserved": "0x7a9fe22691c811ea339d9b73150e6911a5343dca",
      "salt": "0xcd92ad33fcc32049dca575d22545bc45089d1be3343efac683c750eba449de18",
      "assetIds": []
    },
    {
      "x": 70,
      "y": 381,
      "size": 1,
      "price": "1011000000000000000000",
      "reserved": "",
      "salt": "0x4b95f72b15a426541393abcec2729f2fbc3ab874e687e09dd030ed6bf24c839a",
      "assetIds": []
    },
    {
      "x": 70,
      "y": 382,
      "size": 1,
      "price": "1011000000000000000000",
      "reserved": "",
      "salt": "0xaf09b08cff34677cb44e50ed66df0e4c742446cde442e280b5acb3e1988b5947",
      "assetIds": []
    },
    {
      "x": 70,
      "y": 383,
      "size": 1,
      "price": "1011000000000000000000",
      "reserved": "",
      "salt": "0x3d2ca7f2d9cb8caeeef24df73ec03573732d4ac0284950e37059e19cfdf38f82",
      "assetIds": []
    },
    {
      "x": 70,
      "y": 384,
      "size": 1,
      "price": "1011000000000000000000",
      "reserved": "",
      "salt": "0xcbcf9b879343d6eb63de4b13eb2203da792564ffb6b65a02e2348521b1bb56fb",
      "assetIds": []
    },
    {
      "x": 70,
      "y": 385,
      "size": 1,
      "price": "1011000000000000000000",
      "reserved": "",
      "salt": "0xfdab486f84bcd8afcb58eb8ea45bc9bb8399b517ddc244bca03d5aab2f20dabf",
      "assetIds": []
    },
    {
      "x": 70,
      "y": 386,
      "size": 1,
      "price": "1011000000000000000000",
      "reserved": "",
      "salt": "0x1fba1949bc99169f9d26d02a9046f16837cf32e5585018a134c8bc4b68c41410",
      "assetIds": []
    },
    {
      "x": 70,
      "y": 387,
      "size": 1,
      "price": "1011000000000000000000",
      "reserved": "",
      "salt": "0xd0dca8bced587e01954cee64961af51c887d657f29a94d239e5e731d3782572f",
      "assetIds": []
    },
    {
      "x": 70,
      "y": 388,
      "size": 1,
      "price": "1011000000000000000000",
      "reserved": "",
      "salt": "0x7848d0f84f99454af5208f2d75a3bc2106b7c7593c5de58c8a2cad8fccc6adc3",
      "assetIds": []
    },
    {
      "x": 70,
      "y": 389,
      "size": 1,
      "price": "1011000000000000000000",
      "reserved": "",
      "salt": "0xe6c5d340b139ac8e889b8bcaac73ae0877e48a5bd308cdb17a84bfb84e1b7946",
      "assetIds": []
    },
    {
      "x": 70,
      "y": 390,
      "size": 1,
      "price": "1011000000000000000000",
      "reserved": "",
      "salt": "0x7d77902e04d9d3df92691155aad2ff77d0392f10ecc042509f73bd8017b9dd77",
      "assetIds": []
    },
    {
      "x": 70,
      "y": 391,
      "size": 1,
      "price": "1011000000000000000000",
      "reserved": "",
      "salt": "0x8cd3462512255951cecfec0720f099979d27c8c9d70bcc24be76bdb7ae88d5b4",
      "assetIds": []
    },
    {
      "x": 70,
      "y": 392,
      "size": 1,
      "price": "1011000000000000000000",
      "reserved": "",
      "salt": "0x266a4991fcf71a6baa4452c5a02587d3509c88d5e5d54a550fb5849ffd8fca92",
      "assetIds": []
    },
    {
      "x": 70,
      "y": 393,
      "size": 1,
      "price": "1011000000000000000000",
      "reserved": "",
      "salt": "0x5011604fa3eeb095be1b6d79b68f862b232cf36edcd70411ee7cb421d33f9400",
      "assetIds": []
    },
    {
      "x": 70,
      "y": 394,
      "size": 1,
      "price": "1011000000000000000000",
      "reserved": "0x7a9fe22691c811ea339d9b73150e6911a5343dca",
      "salt": "0x254564d630025493f5631d0a971ca44ea504b6dc780bbdd7e3c9b2511ed057f0",
      "assetIds": []
    },
    {
      "x": 70,
      "y": 395,
      "size": 1,
      "price": "4683000000000000000000",
      "reserved": "",
      "salt": "0xac1908eea342f317dd810ad0da48b83cc7deb8b47d2163c201b4e2360a3a9786",
      "assetIds": [
        "41506478881403507969696680653240014914910929820314476107906210059990541021186"
      ]
    },
    {
      "x": 70,
      "y": 402,
      "size": 1,
      "price": "4683000000000000000000",
      "reserved": "",
      "salt": "0x2ffd4426f565aac875a1ca3cf7923621b7ef635f9aa7d259d855e5c33c176d48",
      "assetIds": [
        "41506478881403507969696680653240014914910929820314476107906210059990541021186"
      ]
    },
    {
      "x": 70,
      "y": 403,
      "size": 1,
      "price": "4683000000000000000000",
      "reserved": "",
      "salt": "0x7efae5efed01ca7e74a6e7b08b4c5021c40ca709939d2ce6824fb1f6ad7f0f27",
      "assetIds": [
        "41506478881403507969696680653240014914910929820314476107906210059990541021186"
      ]
    },
    {
      "x": 70,
      "y": 404,
      "size": 1,
      "price": "1011000000000000000000",
      "reserved": "",
      "salt": "0xcad112eac9d1d7a9db17f91914158d28ad5f2f3ac34cdfa7f557fd330b113c03",
      "assetIds": []
    },
    {
      "x": 70,
      "y": 405,
      "size": 1,
      "price": "1011000000000000000000",
      "reserved": "",
      "salt": "0x87016adf5abe58f8d6b82ff10dc0e14be55c901a3b86803ccb04bb588ec50f85",
      "assetIds": []
    },
    {
      "x": 70,
      "y": 406,
      "size": 1,
      "price": "1011000000000000000000",
      "reserved": "",
      "salt": "0xb262a81c8cbdb0a3dd6b28fb5bc0f84137d84058f9bb23bab9ff63b8efe9ba5e",
      "assetIds": []
    },
    {
      "x": 70,
      "y": 407,
      "size": 1,
      "price": "1011000000000000000000",
      "reserved": "",
      "salt": "0x4ff3c34d570844588ecb6b889a696edfabdef88ba5357beb49ac96e7842bfbb8",
      "assetIds": []
    },
    {
      "x": 71,
      "y": 356,
      "size": 1,
      "price": "1011000000000000000000",
      "reserved": "",
      "salt": "0x34d6590bb2f34f59c281adff02b602f7f0d6a0a92fdfdf87a842d5d32bba511f",
      "assetIds": []
    },
    {
      "x": 71,
      "y": 357,
      "size": 1,
      "price": "1011000000000000000000",
      "reserved": "",
      "salt": "0x36c768a8d2d84f892bdd3bbe9c2319932aaa4b8fad43ff0f7952b8b294ee1eb2",
      "assetIds": []
    },
    {
      "x": 71,
      "y": 358,
      "size": 1,
      "price": "1011000000000000000000",
      "reserved": "",
      "salt": "0xe50d9b663211301ccfe4c0a879c413d71caec29c19e82e03352407f3b193498f",
      "assetIds": []
    },
    {
      "x": 71,
      "y": 359,
      "size": 1,
      "price": "1011000000000000000000",
      "reserved": "",
      "salt": "0x87f33dcfc9125c73ed4613ec74c9a1d0031e67b6feb3dd301e09fa83d83661ef",
      "assetIds": []
    },
    {
      "x": 71,
      "y": 360,
      "size": 1,
      "price": "4683000000000000000000",
      "reserved": "",
      "salt": "0x5cb7792307bd083049839a73f1c1b580e378f1e49dbf32fea5828375ad127e05",
      "assetIds": [
        "41506478881403507969696680653240014914910929820314476107906210059990541021186"
      ]
    },
    {
      "x": 71,
      "y": 361,
      "size": 1,
      "price": "4683000000000000000000",
      "reserved": "",
      "salt": "0xc6e93eb45454cb5509676f71ef84a4abe8be63e70c571d56460c62268b96cdaa",
      "assetIds": [
        "41506478881403507969696680653240014914910929820314476107906210059990541021186"
      ]
    },
    {
      "x": 71,
      "y": 362,
      "size": 1,
      "price": "4683000000000000000000",
      "reserved": "",
      "salt": "0xe8b5074123eebcbfe07358dee4ae79ae43788843ae0445e378ae315684912660",
      "assetIds": [
        "41506478881403507969696680653240014914910929820314476107906210059990541021186"
      ]
    },
    {
      "x": 71,
      "y": 363,
      "size": 1,
      "price": "4683000000000000000000",
      "reserved": "",
      "salt": "0x00666455708d61dac7d85d0fe4644bb36737c36abbaad4d8ebcd6e413e133bbb",
      "assetIds": [
        "41506478881403507969696680653240014914910929820314476107906210059990541021186"
      ]
    },
    {
      "x": 71,
      "y": 364,
      "size": 1,
      "price": "4683000000000000000000",
      "reserved": "",
      "salt": "0x9e4309554cb8b4a90459b8a003008f7e101a6c2795479d436461938af17cc472",
      "assetIds": [
        "41506478881403507969696680653240014914910929820314476107906210059990541021186"
      ]
    },
    {
      "x": 71,
      "y": 365,
      "size": 1,
      "price": "4683000000000000000000",
      "reserved": "",
      "salt": "0xddbb6ba4330028e6f5172fad7b10356535ba0c600bbd561eb6746735371802fb",
      "assetIds": [
        "41506478881403507969696680653240014914910929820314476107906210059990541021186"
      ]
    },
    {
      "x": 71,
      "y": 366,
      "size": 1,
      "price": "4683000000000000000000",
      "reserved": "",
      "salt": "0xb5cb3d123309c2878ee7cc87ed12d39a69d76d04741a363a5ee29ea0cbc7b229",
      "assetIds": [
        "41506478881403507969696680653240014914910929820314476107906210059990541021186"
      ]
    },
    {
      "x": 71,
      "y": 367,
      "size": 1,
      "price": "4683000000000000000000",
      "reserved": "",
      "salt": "0xe3207efedbe01a8771f920108a00f0cb2520a5ff9b272267b555b3a8e94fb121",
      "assetIds": [
        "41506478881403507969696680653240014914910929820314476107906210059990541021186"
      ]
    },
    {
      "x": 71,
      "y": 368,
      "size": 1,
      "price": "4683000000000000000000",
      "reserved": "",
      "salt": "0x406079d3222bba4cddbb9833aa6ff3661943bcd677e8e6c9aab7dc5bfd20a6b0",
      "assetIds": [
        "41506478881403507969696680653240014914910929820314476107906210059990541021186"
      ]
    },
    {
      "x": 71,
      "y": 369,
      "size": 1,
      "price": "4683000000000000000000",
      "reserved": "",
      "salt": "0x5d81c42a1571bf50c0bee36d34aadd53d81d87c3097aa9d6a6077fe17259fce4",
      "assetIds": [
        "41506478881403507969696680653240014914910929820314476107906210059990541021186"
      ]
    },
    {
      "x": 71,
      "y": 370,
      "size": 1,
      "price": "4683000000000000000000",
      "reserved": "",
      "salt": "0x5b92e3eef0a103632a2aa5596d729ef2bd3cdc2e047374e836c7eb14ac45d92a",
      "assetIds": [
        "41506478881403507969696680653240014914910929820314476107906210059990541021186"
      ]
    },
    {
      "x": 71,
      "y": 371,
      "size": 1,
      "price": "4683000000000000000000",
      "reserved": "",
      "salt": "0x784c29fd0733406e7cb00848a128e4112751c29eb6043fc8fc7b6c730d06c3c0",
      "assetIds": [
        "41506478881403507969696680653240014914910929820314476107906210059990541021186"
      ]
    },
    {
      "x": 71,
      "y": 372,
      "size": 1,
      "price": "4683000000000000000000",
      "reserved": "",
      "salt": "0xd16babe0f1ff3c710165da8288fd477d3b96bb8fa6c82e96f695669a680a6b39",
      "assetIds": [
        "41506478881403507969696680653240014914910929820314476107906210059990541021186"
      ]
    },
    {
      "x": 71,
      "y": 373,
      "size": 1,
      "price": "4683000000000000000000",
      "reserved": "",
      "salt": "0x57e1f2e91b132c775823d281d19b94a147d49d8a7bac52cf04d58335069b4608",
      "assetIds": [
        "41506478881403507969696680653240014914910929820314476107906210059990541021186"
      ]
    },
    {
      "x": 71,
      "y": 374,
      "size": 1,
      "price": "4683000000000000000000",
      "reserved": "",
      "salt": "0x08f9ca6e2a0a453d7a8afaebab6e9f1ea8585ff6830ef6db7a38258f66a355ad",
      "assetIds": [
        "41506478881403507969696680653240014914910929820314476107906210059990541021186"
      ]
    },
    {
      "x": 71,
      "y": 375,
      "size": 1,
      "price": "4683000000000000000000",
      "reserved": "",
      "salt": "0xc56951d1da50c4819e17bf2dd15a57d762879718f4a7cf8e6395af02ffc942c4",
      "assetIds": [
        "41506478881403507969696680653240014914910929820314476107906210059990541021186"
      ]
    },
    {
      "x": 71,
      "y": 376,
      "size": 1,
      "price": "4683000000000000000000",
      "reserved": "",
      "salt": "0x3cdb603f860ac078953ddfd69c3eef6a61e65fad7c2b18face09cafe04a36d61",
      "assetIds": [
        "41506478881403507969696680653240014914910929820314476107906210059990541021186"
      ]
    },
    {
      "x": 71,
      "y": 377,
      "size": 1,
      "price": "4683000000000000000000",
      "reserved": "",
      "salt": "0x208823df0574762870493e26cb602d0b950f9617c7e6a5607f873499a9c4b55c",
      "assetIds": [
        "41506478881403507969696680653240014914910929820314476107906210059990541021186"
      ]
    },
    {
      "x": 71,
      "y": 378,
      "size": 1,
      "price": "4683000000000000000000",
      "reserved": "",
      "salt": "0x0091ad7b4c52ff2e85babd9c1d7f330eb625241b442f02f8dfbbff1e6a1d80e1",
      "assetIds": [
        "41506478881403507969696680653240014914910929820314476107906210059990541021186"
      ]
    },
    {
      "x": 71,
      "y": 379,
      "size": 1,
      "price": "4683000000000000000000",
      "reserved": "",
      "salt": "0x9a6e0301f4019a278144bbd577b422a76dac09913eb230b78749e4d65d12310f",
      "assetIds": [
        "41506478881403507969696680653240014914910929820314476107906210059990541021186"
      ]
    },
    {
      "x": 71,
      "y": 380,
      "size": 1,
      "price": "4683000000000000000000",
      "reserved": "",
      "salt": "0x2977f169641dfd9f1692bd8e4a2ed7f008363394cc0a33fde9f6b37e351debf7",
      "assetIds": [
        "41506478881403507969696680653240014914910929820314476107906210059990541021186"
      ]
    },
    {
      "x": 71,
      "y": 381,
      "size": 1,
      "price": "4683000000000000000000",
      "reserved": "",
      "salt": "0x22311b2dc30804bb817f7a0feb8a97c88868ed50edaf27029408f0044e06c60b",
      "assetIds": [
        "41506478881403507969696680653240014914910929820314476107906210059990541021186"
      ]
    },
    {
      "x": 71,
      "y": 382,
      "size": 1,
      "price": "4683000000000000000000",
      "reserved": "",
      "salt": "0xcb203a3d6aa1cf0b156a76d113af8c9bbe4d928cf9ac642c508d837089c01ad8",
      "assetIds": [
        "41506478881403507969696680653240014914910929820314476107906210059990541021186"
      ]
    },
    {
      "x": 71,
      "y": 383,
      "size": 1,
      "price": "4683000000000000000000",
      "reserved": "",
      "salt": "0xf1d8a6d5c377dc60178989b067ae0c3d0f53a3981587e6795117e5ff506da35a",
      "assetIds": [
        "41506478881403507969696680653240014914910929820314476107906210059990541021186"
      ]
    },
    {
      "x": 71,
      "y": 384,
      "size": 1,
      "price": "4683000000000000000000",
      "reserved": "",
      "salt": "0xa20f704679e6461824795de1ae05ebf3d55b3e5a340fb695592c93a6515a8a81",
      "assetIds": [
        "41506478881403507969696680653240014914910929820314476107906210059990541021186"
      ]
    },
    {
      "x": 71,
      "y": 385,
      "size": 1,
      "price": "1011000000000000000000",
      "reserved": "",
      "salt": "0x453ea00972f57bbf059c14632158d801304d43a8850026f8b221cf89ca6a27da",
      "assetIds": []
    },
    {
      "x": 71,
      "y": 386,
      "size": 1,
      "price": "1011000000000000000000",
      "reserved": "",
      "salt": "0x5e0956a2cde35dbb892dfd0ef999473470fa8e02413807842766036ffa649cca",
      "assetIds": []
    },
    {
      "x": 71,
      "y": 387,
      "size": 1,
      "price": "1011000000000000000000",
      "reserved": "",
      "salt": "0x9414c5d8b849970a40e4e1eaea013edda1f16d0839964eeaf33262ad50ce3422",
      "assetIds": []
    },
    {
      "x": 71,
      "y": 388,
      "size": 1,
      "price": "1011000000000000000000",
      "reserved": "",
      "salt": "0x5908d375161bca3d4b0073b9ecf94b55ad65ce72466830a2e16b22e7de54101d",
      "assetIds": []
    },
    {
      "x": 71,
      "y": 389,
      "size": 1,
      "price": "1011000000000000000000",
      "reserved": "",
      "salt": "0x2e762ef7fae9d6b29b49357fb58219a65513a62b2c80a596c87d0bc0e218c87d",
      "assetIds": []
    },
    {
      "x": 71,
      "y": 390,
      "size": 1,
      "price": "1011000000000000000000",
      "reserved": "",
      "salt": "0x98e1e8843b2bba1a66ca9b64225119bb813dd2586a9512ff5d7136e216cbdba3",
      "assetIds": []
    },
    {
      "x": 71,
      "y": 391,
      "size": 1,
      "price": "1011000000000000000000",
      "reserved": "",
      "salt": "0xf2e359f5553bcfe253f922298a31794d7b6d7b0bcc5c689189c98a4f09d11ca7",
      "assetIds": []
    },
    {
      "x": 71,
      "y": 392,
      "size": 1,
      "price": "1011000000000000000000",
      "reserved": "",
      "salt": "0xa5df876a569dfe69594dcd6f71f8efe10e08d5e2dbe834a35b295332cd36691d",
      "assetIds": []
    },
    {
      "x": 71,
      "y": 393,
      "size": 1,
      "price": "1011000000000000000000",
      "reserved": "",
      "salt": "0x003d97e195a9d021684c80e64664d3e0d0d7329a97d4bbc8a7181a4d5ad67c81",
      "assetIds": []
    },
    {
      "x": 71,
      "y": 394,
      "size": 1,
      "price": "4683000000000000000000",
      "reserved": "",
      "salt": "0xa397936ab40241a3c888fec075f38ae39c97de4cba8139f23faff7f54b6b5e52",
      "assetIds": [
        "41506478881403507969696680653240014914910929820314476107906210059990541021186"
      ]
    },
    {
      "x": 71,
      "y": 395,
      "size": 1,
      "price": "4683000000000000000000",
      "reserved": "",
      "salt": "0xeaa2ac6da6569f7309dae1674d7f6c5009815707bb10d22ea1f31c303813bf1b",
      "assetIds": [
        "41506478881403507969696680653240014914910929820314476107906210059990541021186"
      ]
    },
    {
      "x": 71,
      "y": 402,
      "size": 1,
      "price": "4683000000000000000000",
      "reserved": "",
      "salt": "0x8561f72165766f611b2c37626ee9b1e55ef1820345c08b8118bbfd80a521e6d4",
      "assetIds": [
        "41506478881403507969696680653240014914910929820314476107906210059990541021186"
      ]
    },
    {
      "x": 71,
      "y": 403,
      "size": 1,
      "price": "4683000000000000000000",
      "reserved": "",
      "salt": "0x8c99f1403a0d4a998062bfe6ac5f72be326ce55ea410d71dc48eeaade6102f10",
      "assetIds": [
        "41506478881403507969696680653240014914910929820314476107906210059990541021186"
      ]
    },
    {
      "x": 71,
      "y": 404,
      "size": 1,
      "price": "1011000000000000000000",
      "reserved": "",
      "salt": "0xc539e01dc00086673f580271118d2026ba8dfe5a51453e03b58c3fdddebd0e72",
      "assetIds": []
    },
    {
      "x": 71,
      "y": 405,
      "size": 1,
      "price": "1011000000000000000000",
      "reserved": "",
      "salt": "0xced3b3a8f94ef2d8dab911c57cd2531c967b19d9260eaf8e6a46b3b7e41db5fe",
      "assetIds": []
    },
    {
      "x": 71,
      "y": 406,
      "size": 1,
      "price": "1011000000000000000000",
      "reserved": "",
      "salt": "0x6d27a3791d722a0ed9b485a18021461b79c2e0f58948f659f90e09d80f2a80e4",
      "assetIds": []
    },
    {
      "x": 71,
      "y": 407,
      "size": 1,
      "price": "1011000000000000000000",
      "reserved": "",
      "salt": "0x265f07b799bd41dfc53e8be56e6c426a84a74e90f8b2a6157327cfe34d1ed5df",
      "assetIds": []
    },
    {
      "x": 72,
      "y": 384,
      "size": 1,
      "price": "4683000000000000000000",
      "reserved": "",
      "salt": "0x8d454719cd778cfcea1654dde43f574c1917b9d4919d59828c808e3da2e43c3d",
      "assetIds": [
        "41506478881403507969696680653240014914910929820314476107906210059990541021186"
      ]
    },
    {
      "x": 72,
      "y": 385,
      "size": 1,
      "price": "1011000000000000000000",
      "reserved": "0x7a9fe22691c811ea339d9b73150e6911a5343dca",
      "salt": "0x282774b8e288ba087dcd83883bbc73a4bf68fd2718243c3d1e9425ca29cd9582",
      "assetIds": []
    },
    {
      "x": 72,
      "y": 386,
      "size": 1,
      "price": "1011000000000000000000",
      "reserved": "",
      "salt": "0x5d1ac4c359580efacebff55730de3010ddea8b62b8a0476eaf9dffd847e52bad",
      "assetIds": []
    },
    {
      "x": 72,
      "y": 387,
      "size": 1,
      "price": "1011000000000000000000",
      "reserved": "",
      "salt": "0x4f385955ba74bc82373b628a37eafb28a535643308b44086d306a03e031559fa",
      "assetIds": []
    },
    {
      "x": 72,
      "y": 388,
      "size": 1,
      "price": "1011000000000000000000",
      "reserved": "",
      "salt": "0xccc395d65389a97db618f929ac13e855e8311767f52af62d53d9de3df0aa0ee4",
      "assetIds": []
    },
    {
      "x": 72,
      "y": 389,
      "size": 1,
      "price": "1011000000000000000000",
      "reserved": "",
      "salt": "0x05a9254911e312f54202c21d01fb34b8119638e9cdcf2302a6220d0eb4e20301",
      "assetIds": []
    },
    {
      "x": 72,
      "y": 390,
      "size": 1,
      "price": "1011000000000000000000",
      "reserved": "",
      "salt": "0x023e23de743fcd23c3e3d9644b3b49ed643fe0fcadbb51609c6d781f839a5d32",
      "assetIds": []
    },
    {
      "x": 72,
      "y": 391,
      "size": 1,
      "price": "1011000000000000000000",
      "reserved": "",
      "salt": "0xfcdf2c56efa61c010f21caf8979e0713a7318b7a2f434ad67e4e958b02855cae",
      "assetIds": []
    },
    {
      "x": 72,
      "y": 392,
      "size": 1,
      "price": "1011000000000000000000",
      "reserved": "",
      "salt": "0x6c7107f240fe6f4b9fdeb90016d54fdd68d80f925a48ef4d3754f7daae115c1f",
      "assetIds": []
    },
    {
      "x": 72,
      "y": 393,
      "size": 1,
      "price": "1011000000000000000000",
      "reserved": "",
      "salt": "0x869741299ff1e77fdd5ce7271b76796e07038609f6ef574807a21eaeef186af5",
      "assetIds": []
    },
    {
      "x": 72,
      "y": 394,
      "size": 1,
      "price": "4683000000000000000000",
      "reserved": "",
      "salt": "0x8c5dfdd92c6f5eca296afb6640162161a7c17c405c2a662a7ae099477861c669",
      "assetIds": [
        "41506478881403507969696680653240014914910929820314476107906210059990541021186"
      ]
    },
    {
      "x": 72,
      "y": 395,
      "size": 1,
      "price": "1011000000000000000000",
      "reserved": "0x7a9fe22691c811ea339d9b73150e6911a5343dca",
      "salt": "0x40632f183baef05837ea893324634dfe2ec53b5a6d05d6fec8d9af482e00a0ad",
      "assetIds": []
    },
    {
      "x": 72,
      "y": 402,
      "size": 1,
      "price": "1011000000000000000000",
      "reserved": "0x7a9fe22691c811ea339d9b73150e6911a5343dca",
      "salt": "0x5f6593a3244cb7d27da386b7d36c3157cef30f9308bc09d7ca70ddba46c440c7",
      "assetIds": []
    },
    {
      "x": 72,
      "y": 403,
      "size": 1,
      "price": "4683000000000000000000",
      "reserved": "",
      "salt": "0xddc36950dc48a962b1cfb4600376b69f10445230cecff9be8e9f68e548b7a620",
      "assetIds": [
        "41506478881403507969696680653240014914910929820314476107906210059990541021186"
      ]
    },
    {
      "x": 72,
      "y": 404,
      "size": 1,
      "price": "1011000000000000000000",
      "reserved": "",
      "salt": "0x620814575a234dcef9edcd7f44543d7d073a5e9b0646421cc47ce2edec5db6bc",
      "assetIds": []
    },
    {
      "x": 72,
      "y": 405,
      "size": 1,
      "price": "1011000000000000000000",
      "reserved": "",
      "salt": "0x09afa99c3418e91ba0514450e4ffb581acaa7a6d496c2073296aea4608746ab4",
      "assetIds": []
    },
    {
      "x": 72,
      "y": 406,
      "size": 1,
      "price": "1011000000000000000000",
      "reserved": "",
      "salt": "0x312e2502c6ae82ba7b4f0b2c6a82a4921ce33be72dcfd1f7eac5cc7af967c8ba",
      "assetIds": []
    },
    {
      "x": 72,
      "y": 407,
      "size": 1,
      "price": "1011000000000000000000",
      "reserved": "",
      "salt": "0x782cd49939be8a7384cda740a521097b55cd08d612d49fa393645ea433d8810f",
      "assetIds": []
    },
    {
      "x": 73,
      "y": 384,
      "size": 1,
      "price": "4683000000000000000000",
      "reserved": "",
      "salt": "0x963e0e7313f00a57f19b736682a90d40b573bc271035325273cc52ca151a11db",
      "assetIds": [
        "41506478881403507969696680653240014914910929820314476107906210059990541021186"
      ]
    },
    {
      "x": 73,
      "y": 385,
      "size": 1,
      "price": "4683000000000000000000",
      "reserved": "",
      "salt": "0x0be5c7d23347830b2324efc41f51abcbb0a2ec9c580c7b1d0b81af9bde6aace9",
      "assetIds": [
        "41506478881403507969696680653240014914910929820314476107906210059990541021186"
      ]
    },
    {
      "x": 73,
      "y": 386,
      "size": 1,
      "price": "4683000000000000000000",
      "reserved": "",
      "salt": "0x514e737cdd626ee0f07f61b6d781d6281ed702dc27a064b14583d4060534c814",
      "assetIds": [
        "41506478881403507969696680653240014914910929820314476107906210059990541021186"
      ]
    },
    {
      "x": 73,
      "y": 387,
      "size": 1,
      "price": "1011000000000000000000",
      "reserved": "",
      "salt": "0x17eef8f8fdddf43968a6ee0676ee7ab91ff972f65096b5c2ed90f35ee4939b87",
      "assetIds": []
    },
    {
      "x": 73,
      "y": 388,
      "size": 1,
      "price": "1011000000000000000000",
      "reserved": "",
      "salt": "0xcd60ed37800b9aed308dd8b08404a6de88fe33d09d10781a98f26f65f4b4f0f5",
      "assetIds": []
    },
    {
      "x": 73,
      "y": 389,
      "size": 1,
      "price": "1011000000000000000000",
      "reserved": "",
      "salt": "0x9cbe418897c1c973592b9c1b8061a80c34add2564c4bce846b4768c44c2e4eb6",
      "assetIds": []
    },
    {
      "x": 73,
      "y": 390,
      "size": 1,
      "price": "1011000000000000000000",
      "reserved": "",
      "salt": "0x3b70e6ace59b4d732284774327a4d9022d351f5e2fdbd1387b30fe7a2c15c730",
      "assetIds": []
    },
    {
      "x": 73,
      "y": 391,
      "size": 1,
      "price": "1011000000000000000000",
      "reserved": "",
      "salt": "0xef3ee8f42405ec3b19bbf850d6a62121927902602409fb4236b899d47b79f67e",
      "assetIds": []
    },
    {
      "x": 73,
      "y": 392,
      "size": 1,
      "price": "1011000000000000000000",
      "reserved": "",
      "salt": "0x5f0f828167086b6b4b0cf5867898be7107edbe560d2b0a1cfa4869a77b735c18",
      "assetIds": []
    },
    {
      "x": 73,
      "y": 393,
      "size": 1,
      "price": "1011000000000000000000",
      "reserved": "",
      "salt": "0x789e5131d89f4b0530e0b6d7bfa3a9be17bce541c2a6a1af4b26ecc120ad49de",
      "assetIds": []
    },
    {
      "x": 73,
      "y": 394,
      "size": 1,
      "price": "1011000000000000000000",
      "reserved": "",
      "salt": "0x3e73b815ee51cd376fef1a34f656ebb41f5102496ce89b89808936e493bea932",
      "assetIds": []
    },
    {
      "x": 73,
      "y": 395,
      "size": 1,
      "price": "1011000000000000000000",
      "reserved": "0x7a9fe22691c811ea339d9b73150e6911a5343dca",
      "salt": "0x283715cf157b73b1467ea836d44b5e368388b106d935e20df4f20e09aa1a9303",
      "assetIds": []
    },
    {
      "x": 73,
      "y": 402,
      "size": 1,
      "price": "1011000000000000000000",
      "reserved": "",
      "salt": "0x7b933e085350e66d506d18d5524d51733b3c557c98731c78d046523960c661a2",
      "assetIds": []
    },
    {
      "x": 73,
      "y": 403,
      "size": 1,
      "price": "4683000000000000000000",
      "reserved": "",
      "salt": "0x286e835e1106039fc3b6664de1a308a2bc106573e6df3e245b311be07d86fb58",
      "assetIds": [
        "41506478881403507969696680653240014914910929820314476107906210059990541021186"
      ]
    },
    {
      "x": 73,
      "y": 404,
      "size": 1,
      "price": "1011000000000000000000",
      "reserved": "",
      "salt": "0x5bee6c91f39925c4b9e3aa1b1b969469850078d6c66e2ea2e5e102a07a6b597f",
      "assetIds": []
    },
    {
      "x": 73,
      "y": 405,
      "size": 1,
      "price": "1011000000000000000000",
      "reserved": "",
      "salt": "0xfda8d9c99147e8f5d4484ce30ad41eaef44ad2a74e011678436424f46067afab",
      "assetIds": []
    },
    {
      "x": 73,
      "y": 406,
      "size": 1,
      "price": "1011000000000000000000",
      "reserved": "",
      "salt": "0xac448d83782f38f2dd5e6fca7e27ae519029bbfa9c94b22c89ac56d8b164eda3",
      "assetIds": []
    },
    {
      "x": 73,
      "y": 407,
      "size": 1,
      "price": "1011000000000000000000",
      "reserved": "",
      "salt": "0xa5c84104cc08a6be7c9d566170cd47a64a9330b2aab0974929912346b830e71f",
      "assetIds": []
    },
    {
      "x": 74,
      "y": 384,
      "size": 1,
      "price": "4683000000000000000000",
      "reserved": "",
      "salt": "0x9f1f9b47b7dd47197d1068efa9ed02ac66f3a1a519da8367122d021e8e5ad3d4",
      "assetIds": [
        "41506478881403507969696680653240014914910929820314476107906210059990541021186"
      ]
    },
    {
      "x": 74,
      "y": 385,
      "size": 1,
      "price": "4683000000000000000000",
      "reserved": "",
      "salt": "0xfbf16dbf8bd5fa56e3f92b81a2b01fe2ed2a679c85449cce2c2fa510ad4038d0",
      "assetIds": [
        "41506478881403507969696680653240014914910929820314476107906210059990541021186"
      ]
    },
    {
      "x": 74,
      "y": 386,
      "size": 1,
      "price": "4683000000000000000000",
      "reserved": "",
      "salt": "0x6b457719d99748072c38595638c3e003d3b9ad3094930dc4fc1156057cbbf9b5",
      "assetIds": [
        "41506478881403507969696680653240014914910929820314476107906210059990541021186"
      ]
    },
    {
      "x": 74,
      "y": 387,
      "size": 1,
      "price": "1011000000000000000000",
      "reserved": "",
      "salt": "0x9c9fab6a03b43245a270adabb1d785e3940446917cff52b24999b66e3e6aa4e0",
      "assetIds": []
    },
    {
      "x": 74,
      "y": 388,
      "size": 1,
      "price": "1011000000000000000000",
      "reserved": "",
      "salt": "0x0ec1e0ead6e85d1126940e036d7128bbf551b2cb79960c05cd88670b282be1d2",
      "assetIds": []
    },
    {
      "x": 74,
      "y": 389,
      "size": 1,
      "price": "1011000000000000000000",
      "reserved": "",
      "salt": "0xe7f7d0deae5f53fc4568b9dd761f4b7a9adf85cf9260de7e9c563ba87615e92f",
      "assetIds": []
    },
    {
      "x": 74,
      "y": 390,
      "size": 1,
      "price": "1011000000000000000000",
      "reserved": "",
      "salt": "0x502fc426bbc102c2e10502830e9fb609239cf8ea4342029ca919b5c478a2e0e1",
      "assetIds": []
    },
    {
      "x": 74,
      "y": 391,
      "size": 1,
      "price": "1011000000000000000000",
      "reserved": "",
      "salt": "0x5b16bc2cf6385427871bd0165d222a80de3d13bf7bd13f2c3798549c4d404b90",
      "assetIds": []
    },
    {
      "x": 74,
      "y": 392,
      "size": 1,
      "price": "1011000000000000000000",
      "reserved": "",
      "salt": "0xf1881ab6a08efbe922f66f3e8d380009f1c3e33ce04da0e8781076843da1b583",
      "assetIds": []
    },
    {
      "x": 74,
      "y": 393,
      "size": 1,
      "price": "1011000000000000000000",
      "reserved": "",
      "salt": "0x4e0370120a11575a8a8041ed69c8831b1d794c3eb32d2a1e7642bc8bedf3be0e",
      "assetIds": []
    },
    {
      "x": 74,
      "y": 394,
      "size": 1,
      "price": "1011000000000000000000",
      "reserved": "",
      "salt": "0xeb6c3c5d1e7d48f28fb295acdb375e4e4c9db2505bb76645c3ae066a8f4fb695",
      "assetIds": []
    },
    {
      "x": 74,
      "y": 395,
      "size": 1,
      "price": "1011000000000000000000",
      "reserved": "",
      "salt": "0x3bab9e5113239eca423932b91b539a27890802eb3b3ec9135edc4324a6c8de52",
      "assetIds": []
    },
    {
      "x": 74,
      "y": 402,
      "size": 1,
      "price": "1011000000000000000000",
      "reserved": "",
      "salt": "0x49405c3532cd0fd678d5038f103e43a03ae446ac7ff193415bfd49348a140eaf",
      "assetIds": []
    },
    {
      "x": 74,
      "y": 403,
      "size": 1,
      "price": "1011000000000000000000",
      "reserved": "",
      "salt": "0x12c5f4d184e4ad30a0a77ab8f6ad8438a07303c4a9ec822201c4f12b96f23449",
      "assetIds": []
    },
    {
      "x": 74,
      "y": 404,
      "size": 1,
      "price": "1011000000000000000000",
      "reserved": "",
      "salt": "0x7ef9c22117d06ce533216306a7a858c837e74a401c9d70da4826a57f9b2bbbde",
      "assetIds": []
    },
    {
      "x": 74,
      "y": 405,
      "size": 1,
      "price": "1011000000000000000000",
      "reserved": "",
      "salt": "0xe47bf55f090dd4c7a3077153bd58ef99f62ce456b20d7af378ba97bd46436ade",
      "assetIds": []
    },
    {
      "x": 74,
      "y": 406,
      "size": 1,
      "price": "1011000000000000000000",
      "reserved": "",
      "salt": "0xd8fecbf7b9a793a01af5710d634fa6a8f94d2529d264ac809e17c212e005b644",
      "assetIds": []
    },
    {
      "x": 74,
      "y": 407,
      "size": 1,
      "price": "1011000000000000000000",
      "reserved": "",
      "salt": "0xb6824652135af5349737cfd3976d74100edcf40a0e0ea5b3e3feae3258ed14b7",
      "assetIds": []
    },
    {
      "x": 75,
      "y": 384,
      "size": 1,
      "price": "4683000000000000000000",
      "reserved": "",
      "salt": "0x2a8691984c4c361f1cef1395472771eb13d90333f9b28ddebf1b687496ac32a6",
      "assetIds": [
        "41506478881403507969696680653240014914910929820314476107906210059990541021186"
      ]
    },
    {
      "x": 75,
      "y": 385,
      "size": 1,
      "price": "4683000000000000000000",
      "reserved": "",
      "salt": "0x293692e5dc141065a309d2b3af3b8cf1b6fc9eef3fcfac50e2ac8a2b2b0a8ec3",
      "assetIds": [
        "41506478881403507969696680653240014914910929820314476107906210059990541021186"
      ]
    },
    {
      "x": 75,
      "y": 386,
      "size": 1,
      "price": "1011000000000000000000",
      "reserved": "",
      "salt": "0x05eca18ccd9388afc9660fc55047c169e3f65c8ca2ebe4d103a25946b28bb1c6",
      "assetIds": []
    },
    {
      "x": 75,
      "y": 387,
      "size": 1,
      "price": "1011000000000000000000",
      "reserved": "",
      "salt": "0x934b21a83f8d52a705362f26fbcef62a2e9a2f0b0172a1cadf776e99a577250f",
      "assetIds": []
    },
    {
      "x": 75,
      "y": 388,
      "size": 1,
      "price": "1011000000000000000000",
      "reserved": "",
      "salt": "0x60abfd9a653094fcaf9660a62fdf03daafccc081dfc1a441e52da9387468d0c1",
      "assetIds": []
    },
    {
      "x": 75,
      "y": 389,
      "size": 1,
      "price": "1011000000000000000000",
      "reserved": "",
      "salt": "0xc25d4cf97778d52403b172c0093182170e165ce8eed896f991800d6445312401",
      "assetIds": []
    },
    {
      "x": 75,
      "y": 390,
      "size": 1,
      "price": "1011000000000000000000",
      "reserved": "",
      "salt": "0xe51ab719ed34f95ae5aea0921a5db480d65ea4ec286092b0d6fb2836c7ebd9de",
      "assetIds": []
    },
    {
      "x": 75,
      "y": 391,
      "size": 1,
      "price": "1011000000000000000000",
      "reserved": "",
      "salt": "0x2f6d404582a1f4af071ba4c47e821696297268106cc6481757572b184cd7def3",
      "assetIds": []
    },
    {
      "x": 75,
      "y": 392,
      "size": 1,
      "price": "1011000000000000000000",
      "reserved": "",
      "salt": "0x9bbe44260ff6c02b2a742e3a46964bb9d90dfd889f364b5546a36b44f8071b9b",
      "assetIds": []
    },
    {
      "x": 75,
      "y": 402,
      "size": 1,
      "price": "1011000000000000000000",
      "reserved": "",
      "salt": "0x617371e0770e36ccd24bec660bd0b8fa84c58e3894397c25c50ba5d247826496",
      "assetIds": []
    },
    {
      "x": 75,
      "y": 403,
      "size": 1,
      "price": "1011000000000000000000",
      "reserved": "",
      "salt": "0xa948760227563179f57745ca61ca5afc552855492a9ee8f14b589e06166c8290",
      "assetIds": []
    },
    {
      "x": 75,
      "y": 404,
      "size": 1,
      "price": "1011000000000000000000",
      "reserved": "",
      "salt": "0x1e2290bf3c4b2b61b116447cf59ed220e8f853ac3447bd3fc2562ca5bdf4f1cf",
      "assetIds": []
    },
    {
      "x": 75,
      "y": 405,
      "size": 1,
      "price": "1011000000000000000000",
      "reserved": "",
      "salt": "0x6d668e6dd6ff372385405173f0f3f6b95b92b4cb33a4d7ba2b43e8dedff3a465",
      "assetIds": []
    },
    {
      "x": 75,
      "y": 406,
      "size": 1,
      "price": "1011000000000000000000",
      "reserved": "",
      "salt": "0x3b8f07333f0f5b1a8ea7e4bfbd888e119a1fba941067cc24920f6edee2b77ee6",
      "assetIds": []
    },
    {
      "x": 75,
      "y": 407,
      "size": 1,
      "price": "1011000000000000000000",
      "reserved": "",
      "salt": "0x8b66688b166beeec0033ffdc431422f660567c407861a7c96eb0d4d6c46f98a7",
      "assetIds": []
    },
    {
      "x": 76,
      "y": 384,
      "size": 1,
      "price": "4683000000000000000000",
      "reserved": "",
      "salt": "0x038b4180b6c5887780a1b98502437df7b0f2c04a3f0c2f26d8a73b31a22a3d09",
      "assetIds": [
        "41506478881403507969696680653240014914910929820314476107906210059990541021186"
      ]
    },
    {
      "x": 76,
      "y": 385,
      "size": 1,
      "price": "1011000000000000000000",
      "reserved": "0x7a9fe22691c811ea339d9b73150e6911a5343dca",
      "salt": "0x417226c5fdd4a79aa65be326cbd49a6a8424a39827a47d097f2f7d75816a9a19",
      "assetIds": []
    },
    {
      "x": 76,
      "y": 386,
      "size": 1,
      "price": "1011000000000000000000",
      "reserved": "",
      "salt": "0x6a07a340ea738b352d3ce1ddc0bb78601018c5f256e2516bb75eacf794cf7768",
      "assetIds": []
    },
    {
      "x": 76,
      "y": 387,
      "size": 1,
      "price": "1011000000000000000000",
      "reserved": "",
      "salt": "0x3ceb83dc9e323225bb5a969fa346178b7eb00f619aa6c0a27042ad91411633e7",
      "assetIds": []
    },
    {
      "x": 76,
      "y": 388,
      "size": 1,
      "price": "1011000000000000000000",
      "reserved": "",
      "salt": "0xaa8a4e5ff8abd76ef82919271fe28074033497bb59a86a75956e02b4cdb1804e",
      "assetIds": []
    },
    {
      "x": 76,
      "y": 389,
      "size": 1,
      "price": "1011000000000000000000",
      "reserved": "",
      "salt": "0x038c789de491276e36eca39fb9142ab282bf00814ca44b2a587beba8b7141907",
      "assetIds": []
    },
    {
      "x": 76,
      "y": 390,
      "size": 1,
      "price": "1011000000000000000000",
      "reserved": "",
      "salt": "0x2911dacfc9bd4a04d698850b03b0e6ff7f135bd5b4255c7186e424a5a672cd55",
      "assetIds": []
    },
    {
      "x": 76,
      "y": 391,
      "size": 1,
      "price": "1011000000000000000000",
      "reserved": "",
      "salt": "0xd448a1dea956025d2b831b1157a27cba6391f552a14f9ac5826ce48e8732c409",
      "assetIds": []
    },
    {
      "x": 76,
      "y": 392,
      "size": 1,
      "price": "1011000000000000000000",
      "reserved": "",
      "salt": "0x710fd026eafb4c3aeccd669f94ed39d435fcb6bacbeddebfa4f7bab3046fea4e",
      "assetIds": []
    },
    {
      "x": 76,
      "y": 402,
      "size": 1,
      "price": "1011000000000000000000",
      "reserved": "",
      "salt": "0x6e1920ee9e4f1db63fbd2e772647d3299e1a8f1365c28f06002de0de44475eda",
      "assetIds": []
    },
    {
      "x": 76,
      "y": 403,
      "size": 1,
      "price": "1011000000000000000000",
      "reserved": "",
      "salt": "0x7616b22de4b19a4d708687ef6a8217dbe2bcbf99f7391a0e9d82f6a0dddc898f",
      "assetIds": []
    },
    {
      "x": 76,
      "y": 404,
      "size": 1,
      "price": "1011000000000000000000",
      "reserved": "",
      "salt": "0x4014e309620f37dbd2dd5f27d0031a1f25620153fc85ed0ecfbf5b5ced7af5e8",
      "assetIds": []
    },
    {
      "x": 76,
      "y": 405,
      "size": 1,
      "price": "1011000000000000000000",
      "reserved": "",
      "salt": "0x4acbf96693b7088eb2b72f3b7de59f1c8788f08026289191c7e76980b37aa099",
      "assetIds": []
    },
    {
      "x": 76,
      "y": 406,
      "size": 1,
      "price": "1011000000000000000000",
      "reserved": "",
      "salt": "0xc506780051d1ef6d45e7406a6ed1d5c1e8f52acc03f6ac8fc7677228ec88a385",
      "assetIds": []
    },
    {
      "x": 76,
      "y": 407,
      "size": 1,
      "price": "1011000000000000000000",
      "reserved": "",
      "salt": "0x2c0c20131b28932e44fe3c25c57bba16d4de3c3095f0c4970a41580fb8f22ebe",
      "assetIds": []
    },
    {
      "x": 77,
      "y": 384,
      "size": 1,
      "price": "4683000000000000000000",
      "reserved": "",
      "salt": "0x0765b3c163ef9f8529e1452fe5b8c60e53fb64d41227e54350931ee6ee3456da",
      "assetIds": [
        "41506478881403507969696680653240014914910929820314476107906210059990541021186"
      ]
    },
    {
      "x": 77,
      "y": 385,
      "size": 1,
      "price": "4683000000000000000000",
      "reserved": "",
      "salt": "0xee3b2d30f4cc635601fa5d6714a791392e258088dc241ab8b79d4174758c348a",
      "assetIds": [
        "41506478881403507969696680653240014914910929820314476107906210059990541021186"
      ]
    },
    {
      "x": 77,
      "y": 386,
      "size": 1,
      "price": "1011000000000000000000",
      "reserved": "",
      "salt": "0x8f5ea163740ce9edcadbe708337cc0884ae1e223b3901266150f7302b33978cb",
      "assetIds": []
    },
    {
      "x": 77,
      "y": 387,
      "size": 1,
      "price": "1011000000000000000000",
      "reserved": "",
      "salt": "0x9681db4c3cf2d1200d084a8ec059a534f8d75d8c662f3f4e26c3e4e4c5260bf3",
      "assetIds": []
    },
    {
      "x": 77,
      "y": 388,
      "size": 1,
      "price": "1011000000000000000000",
      "reserved": "",
      "salt": "0x6e339e8092eefcfee45fdeb6c153b857b1775aad0ea72d95d72ff50971250e67",
      "assetIds": []
    },
    {
      "x": 77,
      "y": 389,
      "size": 1,
      "price": "1011000000000000000000",
      "reserved": "",
      "salt": "0x566dd76e3f488ebd540c5d6f87afe862ad2cb455e1958cedcf9d1990a454d1bc",
      "assetIds": []
    },
    {
      "x": 77,
      "y": 390,
      "size": 1,
      "price": "1011000000000000000000",
      "reserved": "",
      "salt": "0x0a16a071ff3e66427d0860991c2b059c21ac95c86a0b031ad3dc8291d8c22e11",
      "assetIds": []
    },
    {
      "x": 77,
      "y": 391,
      "size": 1,
      "price": "1011000000000000000000",
      "reserved": "",
      "salt": "0x6fff055c6c5ef3e3791c6c5e4b9e6bf1840eb2029e69835a0d864ef299b9abc4",
      "assetIds": []
    },
    {
      "x": 77,
      "y": 392,
      "size": 1,
      "price": "1011000000000000000000",
      "reserved": "",
      "salt": "0x3cd7b09132b074e30c47b6d33d51ff19e701f53f9fb5d2fac52173dc64ce5ab3",
      "assetIds": []
    },
    {
      "x": 77,
      "y": 402,
      "size": 1,
      "price": "1011000000000000000000",
      "reserved": "",
      "salt": "0x080b7764abf15b2f67638743c549610bcdb5846df042af754f4fdf10305fb31b",
      "assetIds": []
    },
    {
      "x": 77,
      "y": 403,
      "size": 1,
      "price": "1011000000000000000000",
      "reserved": "",
      "salt": "0xbbc5b6fa7e31d0637f8918d6634d75d201686d22adb0e07302a2ef4c2b298447",
      "assetIds": []
    },
    {
      "x": 77,
      "y": 404,
      "size": 1,
      "price": "1011000000000000000000",
      "reserved": "",
      "salt": "0x396b6f39a939bb737935e92bd21507d2fe9fac1ce1ebfcd46d0095b35174f663",
      "assetIds": []
    },
    {
      "x": 77,
      "y": 405,
      "size": 1,
      "price": "1011000000000000000000",
      "reserved": "",
      "salt": "0xfc8c5d1a1cf230cdbc4a58d0cd282f51badc1d2f0b7346b5e8e72e476ce87e40",
      "assetIds": []
    },
    {
      "x": 77,
      "y": 406,
      "size": 1,
      "price": "1011000000000000000000",
      "reserved": "",
      "salt": "0x09ff8c17cd86edf2d8a8d4aacd99764559cb4b4a8f89ccb36b596f267f0748f4",
      "assetIds": []
    },
    {
      "x": 77,
      "y": 407,
      "size": 1,
      "price": "1011000000000000000000",
      "reserved": "",
      "salt": "0xc22bb2ccb518e51aecdf484a75b2e00047d874c7c923732ca38c0a71396cd93d",
      "assetIds": []
    },
    {
      "x": 78,
      "y": 384,
      "size": 1,
      "price": "4683000000000000000000",
      "reserved": "",
      "salt": "0xc19c1efe4845725d979d6c800d0b7a5802572dd8bb922c512a6a92ff6025a4e7",
      "assetIds": [
        "41506478881403507969696680653240014914910929820314476107906210059990541021186"
      ]
    },
    {
      "x": 78,
      "y": 385,
      "size": 1,
      "price": "4683000000000000000000",
      "reserved": "",
      "salt": "0x99da9c40a4f57ab61a8fb202c6cc8ef8a34c63ab06306798e022802a14dbad99",
      "assetIds": [
        "41506478881403507969696680653240014914910929820314476107906210059990541021186"
      ]
    },
    {
      "x": 78,
      "y": 386,
      "size": 1,
      "price": "1011000000000000000000",
      "reserved": "",
      "salt": "0xf62b7e19a4ff54b752570a61b3a06121bbaaec38be978ee7ba08c22b066b987e",
      "assetIds": []
    },
    {
      "x": 78,
      "y": 387,
      "size": 1,
      "price": "1011000000000000000000",
      "reserved": "",
      "salt": "0x44f87358aea669284b8152e98f4b3f4a03094ed7a33405a135acdf89a17e26ad",
      "assetIds": []
    },
    {
      "x": 78,
      "y": 388,
      "size": 1,
      "price": "1011000000000000000000",
      "reserved": "",
      "salt": "0xf2218a2e70ec9f9daf7417b4adc6e3bfbf57737182a68948a81f16fd83ac7445",
      "assetIds": []
    },
    {
      "x": 78,
      "y": 389,
      "size": 1,
      "price": "1011000000000000000000",
      "reserved": "",
      "salt": "0x2095f43ffac619afd0e4ea1d6a05e603d6029f3d712a72f8089903952146a4cc",
      "assetIds": []
    },
    {
      "x": 78,
      "y": 390,
      "size": 1,
      "price": "1011000000000000000000",
      "reserved": "0x7a9fe22691c811ea339d9b73150e6911a5343dca",
      "salt": "0x7bc43c2331197a02f679cac135477cbc2d34c74d10442d00589267d8b5628e96",
      "assetIds": []
    },
    {
      "x": 78,
      "y": 391,
      "size": 1,
      "price": "1011000000000000000000",
      "reserved": "",
      "salt": "0x25037bba4cd3302aa72a7f5bcbde373d0c3c22b2f83199b66673f6429b76dbd6",
      "assetIds": []
    },
    {
      "x": 78,
      "y": 392,
      "size": 1,
      "price": "1011000000000000000000",
      "reserved": "",
      "salt": "0xb04d3349ac14f036b1918551e1107119fd3530e903fa92665b190244a8ba2afd",
      "assetIds": []
    },
    {
      "x": 78,
      "y": 393,
      "size": 1,
      "price": "1011000000000000000000",
      "reserved": "",
      "salt": "0x70b29b1b39e1ded0274e8465b9a08aaeddf10e2c2a373edb9441488e875f8f71",
      "assetIds": []
    },
    {
      "x": 78,
      "y": 394,
      "size": 1,
      "price": "1011000000000000000000",
      "reserved": "",
      "salt": "0x66ec4e492111b06219d2c17fb1c484df2450a40456ac450041f7cba8feb5debf",
      "assetIds": []
    },
    {
      "x": 78,
      "y": 395,
      "size": 1,
      "price": "1011000000000000000000",
      "reserved": "",
      "salt": "0xfd165cbb9c0c956136bd5744bf24d8447c6aeeb2f7124f684e04dda89df05792",
      "assetIds": []
    },
    {
      "x": 78,
      "y": 396,
      "size": 1,
      "price": "4683000000000000000000",
      "reserved": "",
      "salt": "0x236ece5fa5a5deba8c16554dd1899de2ba8740e771d76c9fea2bcd10690ba8f1",
      "assetIds": [
        "41506478881403507969696680653240014914910929820314476107906210059990541021186"
      ]
    },
    {
      "x": 78,
      "y": 397,
      "size": 1,
      "price": "1011000000000000000000",
      "reserved": "0x7a9fe22691c811ea339d9b73150e6911a5343dca",
      "salt": "0x01ca5c976151cfaf561aa2ead6e46b87f66205b28d1637e5055045e206167ca0",
      "assetIds": []
    },
    {
      "x": 78,
      "y": 398,
      "size": 1,
      "price": "4683000000000000000000",
      "reserved": "",
      "salt": "0x91c0d769b61c8d0773fb6588afc5c61011cbabfee29051f5469ae398e794f8fd",
      "assetIds": [
        "41506478881403507969696680653240014914910929820314476107906210059990541021186"
      ]
    },
    {
      "x": 78,
      "y": 399,
      "size": 1,
      "price": "4683000000000000000000",
      "reserved": "",
      "salt": "0x3236bff329e80f4784ecfdb7651df82807c902c5d4515f83e064c4072cb20f75",
      "assetIds": [
        "41506478881403507969696680653240014914910929820314476107906210059990541021186"
      ]
    },
    {
      "x": 78,
      "y": 400,
      "size": 1,
      "price": "1011000000000000000000",
      "reserved": "",
      "salt": "0x422c7442d86e95db59295b48b9014f6bcd9c92c2bfe2661dd73cbff594a4174d",
      "assetIds": []
    },
    {
      "x": 78,
      "y": 401,
      "size": 1,
      "price": "1011000000000000000000",
      "reserved": "",
      "salt": "0xb144409237cc34a26e4b642670393d50c32edd49510374fb6b97d44b2321a990",
      "assetIds": []
    },
    {
      "x": 78,
      "y": 402,
      "size": 1,
      "price": "1011000000000000000000",
      "reserved": "",
      "salt": "0xf7f09e5c01e4aa067a1f3af904cbf9f0061c01e39b645b3dae9f3c1e8c4a8f4e",
      "assetIds": []
    },
    {
      "x": 78,
      "y": 403,
      "size": 1,
      "price": "1011000000000000000000",
      "reserved": "",
      "salt": "0x2f71b49c8cb843c6a26c28375f91e19c9c38026f007e68a6a61138461e313872",
      "assetIds": []
    },
    {
      "x": 78,
      "y": 404,
      "size": 1,
      "price": "1011000000000000000000",
      "reserved": "",
      "salt": "0x74502b1661933121cc5b3a058fa0763346831bb0cb89d611749493812104cd31",
      "assetIds": []
    },
    {
      "x": 78,
      "y": 405,
      "size": 1,
      "price": "1011000000000000000000",
      "reserved": "",
      "salt": "0xaff260faa9b06001a946d207bba3a9fb08bb0e3a3b93695cae16e9cea2e5e4cf",
      "assetIds": []
    },
    {
      "x": 78,
      "y": 406,
      "size": 1,
      "price": "1011000000000000000000",
      "reserved": "",
      "salt": "0x60ec7ac3f63f139a5d633b1bbcc5250a3d1407b05b4b388d847398f0e3af897d",
      "assetIds": []
    },
    {
      "x": 78,
      "y": 407,
      "size": 1,
      "price": "1011000000000000000000",
      "reserved": "",
      "salt": "0xff8c97c2ecd935203f260a0bafa0659e6d7676fb2ad54e517838536b5012af38",
      "assetIds": []
    },
    {
      "x": 79,
      "y": 384,
      "size": 1,
      "price": "4683000000000000000000",
      "reserved": "",
      "salt": "0x6231e7e06b29ca76cc410e0afdcc1304c9c41f8291bbe1e556401d505ac68aeb",
      "assetIds": [
        "41506478881403507969696680653240014914910929820314476107906210059990541021186"
      ]
    },
    {
      "x": 79,
      "y": 385,
      "size": 1,
      "price": "4683000000000000000000",
      "reserved": "",
      "salt": "0x80d8d6652ce88aa6b9df85d4bf4d2600f2a5aa6829fc33eba36d08334baf6135",
      "assetIds": [
        "41506478881403507969696680653240014914910929820314476107906210059990541021186"
      ]
    },
    {
      "x": 79,
      "y": 386,
      "size": 1,
      "price": "1011000000000000000000",
      "reserved": "",
      "salt": "0xb8665f960d27429eb3fa39e565a5a734111ce250242b4cc19d37a1f289abaecf",
      "assetIds": []
    },
    {
      "x": 79,
      "y": 387,
      "size": 1,
      "price": "1011000000000000000000",
      "reserved": "",
      "salt": "0xf3d27073972312a85970a9384a10ed46dc8338ffeb80572582bc46b145c06430",
      "assetIds": []
    },
    {
      "x": 79,
      "y": 388,
      "size": 1,
      "price": "1011000000000000000000",
      "reserved": "",
      "salt": "0x5acfe162eb5a31bb53bf61456c1a4da359a8c9d641cfe2b084a4ce74a7c4d6f7",
      "assetIds": []
    },
    {
      "x": 79,
      "y": 389,
      "size": 1,
      "price": "1011000000000000000000",
      "reserved": "",
      "salt": "0x0280420767d8e5a3d1051f621938923aff35d390bd9a948aab62b794f648bb98",
      "assetIds": []
    },
    {
      "x": 79,
      "y": 390,
      "size": 1,
      "price": "1011000000000000000000",
      "reserved": "",
      "salt": "0x05f6f9211c9f800caf2edce54e79422cb42b42d19172e3f72fd1aead04ca9d9d",
      "assetIds": []
    },
    {
      "x": 79,
      "y": 391,
      "size": 1,
      "price": "1011000000000000000000",
      "reserved": "",
      "salt": "0x1fb123b8e98374999714981a011988da2d1b1998501e2a9787c68c2bcce40913",
      "assetIds": []
    },
    {
      "x": 79,
      "y": 392,
      "size": 1,
      "price": "1011000000000000000000",
      "reserved": "",
      "salt": "0x1fc4ee343842fb7b78b93413b6cc5045a977388c2541a2294d73820323b9ca5b",
      "assetIds": []
    },
    {
      "x": 79,
      "y": 393,
      "size": 1,
      "price": "1011000000000000000000",
      "reserved": "",
      "salt": "0x3bae48354276f3a20d10f31a3ebe5ccabac3403954cf16d1de63257a942571a8",
      "assetIds": []
    },
    {
      "x": 79,
      "y": 394,
      "size": 1,
      "price": "1011000000000000000000",
      "reserved": "",
      "salt": "0x921e8ff66d020d5af4981bf8e0e86b3e46317b5c0948f2419e19c91f28f7a60b",
      "assetIds": []
    },
    {
      "x": 79,
      "y": 395,
      "size": 1,
      "price": "1011000000000000000000",
      "reserved": "0x7a9fe22691c811ea339d9b73150e6911a5343dca",
      "salt": "0x9226bf68b4c8b591e08928ecb3e9388a3c77ffee1bf59a188638448b0561b6c2",
      "assetIds": []
    },
    {
      "x": 79,
      "y": 396,
      "size": 1,
      "price": "4683000000000000000000",
      "reserved": "",
      "salt": "0x652a7aa449217afe4d8b940f33dd9423461f60da8db32de0687299f47ee92b88",
      "assetIds": [
        "41506478881403507969696680653240014914910929820314476107906210059990541021186"
      ]
    },
    {
      "x": 79,
      "y": 397,
      "size": 1,
      "price": "4683000000000000000000",
      "reserved": "",
      "salt": "0xb32cc8a4658932927bd17dbbc0a2095b4d851b6ced9a62fb8965f0f9b6618570",
      "assetIds": [
        "41506478881403507969696680653240014914910929820314476107906210059990541021186"
      ]
    },
    {
      "x": 79,
      "y": 398,
      "size": 1,
      "price": "4683000000000000000000",
      "reserved": "",
      "salt": "0x7bde0515793c8fa59c790b3268a7ad10cd3b6c513a3e53cbcf031db092d0b39d",
      "assetIds": [
        "41506478881403507969696680653240014914910929820314476107906210059990541021186"
      ]
    },
    {
      "x": 79,
      "y": 399,
      "size": 1,
      "price": "4683000000000000000000",
      "reserved": "",
      "salt": "0xc9cfa71d17738d4c36c5e7de208029c0f08b1e0de5212fa202d4b7a6461c97d2",
      "assetIds": [
        "41506478881403507969696680653240014914910929820314476107906210059990541021186"
      ]
    },
    {
      "x": 79,
      "y": 400,
      "size": 1,
      "price": "1011000000000000000000",
      "reserved": "0x7a9fe22691c811ea339d9b73150e6911a5343dca",
      "salt": "0x505a78781e89e6b54e2cbe304bf3de8b6c844fc5d76d3e38bf275218b715b5ba",
      "assetIds": []
    },
    {
      "x": 79,
      "y": 401,
      "size": 1,
      "price": "1011000000000000000000",
      "reserved": "",
      "salt": "0x2a0b093cc32429c07e020456bf4beca0e270083c0dbe1224ef2faa7ff568e3ff",
      "assetIds": []
    },
    {
      "x": 79,
      "y": 402,
      "size": 1,
      "price": "1011000000000000000000",
      "reserved": "",
      "salt": "0x939027c908727aaf6bcd28fe156f0be2a930315cb9a09c21fc377ab30c26c638",
      "assetIds": []
    },
    {
      "x": 79,
      "y": 403,
      "size": 1,
      "price": "1011000000000000000000",
      "reserved": "",
      "salt": "0xdd057a02f9626c41cffd9ffb8802ee2055df1923f93121949d757d0c52a46588",
      "assetIds": []
    },
    {
      "x": 79,
      "y": 404,
      "size": 1,
      "price": "1011000000000000000000",
      "reserved": "",
      "salt": "0xdf025fa2cfc7afb80475c0d3ffba74b5a796837df4be5d2ec6f0dd3da85b3c99",
      "assetIds": []
    },
    {
      "x": 79,
      "y": 405,
      "size": 1,
      "price": "1011000000000000000000",
      "reserved": "",
      "salt": "0x54bd9bcbfd06e95fde5ea4a8faa28633880c5f2d750687a1680d22b0f089f5f9",
      "assetIds": []
    },
    {
      "x": 79,
      "y": 406,
      "size": 1,
      "price": "1011000000000000000000",
      "reserved": "",
      "salt": "0xfb12c5b2733013ac2e17a2ada4e16190626fbfff8c77c036449ba4d4bcc24bee",
      "assetIds": []
    },
    {
      "x": 79,
      "y": 407,
      "size": 1,
      "price": "1011000000000000000000",
      "reserved": "",
      "salt": "0x43e1573eb5f5009675f0680bfc510d7ad0488061761a9bc852cfd54e8197273d",
      "assetIds": []
    },
    {
      "x": 80,
      "y": 384,
      "size": 1,
      "price": "4683000000000000000000",
      "reserved": "",
      "salt": "0xa11721d72d9383893525c1c8e984f72075b914102103a27234072b711dfefc8f",
      "assetIds": [
        "41506478881403507969696680653240014914910929820314476107906210059990541021186"
      ]
    },
    {
      "x": 80,
      "y": 385,
      "size": 1,
      "price": "4683000000000000000000",
      "reserved": "",
      "salt": "0x5473992cd5c36a442dc3ee536163e57d6c6ab3f7f58958e16e215c174539c8ef",
      "assetIds": [
        "41506478881403507969696680653240014914910929820314476107906210059990541021186"
      ]
    },
    {
      "x": 80,
      "y": 386,
      "size": 1,
      "price": "1011000000000000000000",
      "reserved": "",
      "salt": "0x9c7a939ad836d99c0bbd01196a06e80836b6da09ec447f53cdeaf97e95fcaaf4",
      "assetIds": []
    },
    {
      "x": 80,
      "y": 387,
      "size": 1,
      "price": "1011000000000000000000",
      "reserved": "",
      "salt": "0x58ea9ed67153c6d161e3c75b332becba00b6f5413833fefbf9a493ea6222be8f",
      "assetIds": []
    },
    {
      "x": 80,
      "y": 388,
      "size": 1,
      "price": "1011000000000000000000",
      "reserved": "",
      "salt": "0xb9ed3e61df061d5d9d38094eeda60b8abe0f08ed23d99195fde92d56843cd528",
      "assetIds": []
    },
    {
      "x": 80,
      "y": 389,
      "size": 1,
      "price": "1011000000000000000000",
      "reserved": "",
      "salt": "0x15a5b2ef248dea784df3cffac8e32fb1298739be4209101025c8985ba6475eec",
      "assetIds": []
    },
    {
      "x": 80,
      "y": 390,
      "size": 1,
      "price": "1011000000000000000000",
      "reserved": "",
      "salt": "0xdb0569b7b6bab83e9752c9eec6413de565ece06c62b84d74801d03135a3b3726",
      "assetIds": []
    },
    {
      "x": 80,
      "y": 391,
      "size": 1,
      "price": "1011000000000000000000",
      "reserved": "",
      "salt": "0x70b867307f6d107f1fcb90ae6f320c9775cb550ddf6c31299d76a161633cd20f",
      "assetIds": []
    },
    {
      "x": 80,
      "y": 392,
      "size": 1,
      "price": "1011000000000000000000",
      "reserved": "",
      "salt": "0x1afecea7b2dadbc9873ce1450ac8d160a336a1abb3d65e69a0034efed2bfb494",
      "assetIds": []
    },
    {
      "x": 80,
      "y": 393,
      "size": 1,
      "price": "1011000000000000000000",
      "reserved": "",
      "salt": "0x7e44c819f79a8da80d0374624eb305e24e6da3d1fb2a9c9c04fa87b1ebfb8d24",
      "assetIds": []
    },
    {
      "x": 80,
      "y": 394,
      "size": 1,
      "price": "1011000000000000000000",
      "reserved": "",
      "salt": "0xce81d0e086b15036151240f750003b9799e7ee375638ea4198b50a2aab869523",
      "assetIds": []
    },
    {
      "x": 80,
      "y": 395,
      "size": 1,
      "price": "4683000000000000000000",
      "reserved": "",
      "salt": "0xf5d25743f5c3c56c57b43f758bc6f0e0bce87e75bdcc3091ddc9e7654d039af9",
      "assetIds": [
        "41506478881403507969696680653240014914910929820314476107906210059990541021186"
      ]
    },
    {
      "x": 80,
      "y": 396,
      "size": 1,
      "price": "4683000000000000000000",
      "reserved": "",
      "salt": "0x11a7b1095c7a1deba37e50d8dea8639969b74d9c7d469a3fb3711a36da8181c8",
      "assetIds": [
        "41506478881403507969696680653240014914910929820314476107906210059990541021186"
      ]
    },
    {
      "x": 80,
      "y": 397,
      "size": 1,
      "price": "4683000000000000000000",
      "reserved": "",
      "salt": "0xf340094bcbaef9f1675f923decce8c344cfbfeb5fca2b59b6099dfcc1eeeed95",
      "assetIds": [
        "41506478881403507969696680653240014914910929820314476107906210059990541021186"
      ]
    },
    {
      "x": 80,
      "y": 398,
      "size": 1,
      "price": "4683000000000000000000",
      "reserved": "",
      "salt": "0xdbcb262e60f103c7f99484e65ea9234206969843c7ed6b401c962cf07bd29c2d",
      "assetIds": [
        "41506478881403507969696680653240014914910929820314476107906210059990541021186"
      ]
    },
    {
      "x": 80,
      "y": 399,
      "size": 1,
      "price": "4683000000000000000000",
      "reserved": "",
      "salt": "0x791b0274a8e079e64f46e156147af9ff76769603b8b180db9326b5caf94dfc5d",
      "assetIds": [
        "41506478881403507969696680653240014914910929820314476107906210059990541021186"
      ]
    },
    {
      "x": 80,
      "y": 400,
      "size": 1,
      "price": "4683000000000000000000",
      "reserved": "",
      "salt": "0xacbe3978ab914e21c3d00366e43aa6ad42b6e987e785629f2aae196ed6b3da97",
      "assetIds": [
        "41506478881403507969696680653240014914910929820314476107906210059990541021186"
      ]
    },
    {
      "x": 80,
      "y": 401,
      "size": 1,
      "price": "1011000000000000000000",
      "reserved": "",
      "salt": "0xe13248f51d69d72526580ccbb2b9a1e4d167a38c2dde362bc5d117ea64240f58",
      "assetIds": []
    },
    {
      "x": 80,
      "y": 402,
      "size": 1,
      "price": "1011000000000000000000",
      "reserved": "",
      "salt": "0x72cc9d5e19ebdc511cabb6d269183dfb782040c0fb2172e550f8a2e117ac2665",
      "assetIds": []
    },
    {
      "x": 80,
      "y": 403,
      "size": 1,
      "price": "1011000000000000000000",
      "reserved": "",
      "salt": "0xb06dce71b4c1ec39b8a1e9e0f86ff5883cca43861c1360b1d9e5d3144fbd799b",
      "assetIds": []
    },
    {
      "x": 80,
      "y": 404,
      "size": 1,
      "price": "1011000000000000000000",
      "reserved": "",
      "salt": "0xcf4d730efdb66a5eb73421c08be1f90bcf3cc65e8d5c92861739cf3e7b61682f",
      "assetIds": []
    },
    {
      "x": 80,
      "y": 405,
      "size": 1,
      "price": "1011000000000000000000",
      "reserved": "0x7a9fe22691c811ea339d9b73150e6911a5343dca",
      "salt": "0x9ab8237d6d5740a4de2023c6a82573575efbb03f694828610b4b7e6cdf07f31b",
      "assetIds": []
    },
    {
      "x": 80,
      "y": 406,
      "size": 1,
      "price": "1011000000000000000000",
      "reserved": "",
      "salt": "0xb557d03320f6042ca8a664bedbca8e7ba3ca367c8d37fe4bb939d168d9b447e3",
      "assetIds": []
    },
    {
      "x": 80,
      "y": 407,
      "size": 1,
      "price": "1011000000000000000000",
      "reserved": "",
      "salt": "0x10af2cec09e86aeae77361201816822aaf876ab0de56a6132986db58ff5ce285",
      "assetIds": []
    },
    {
      "x": 81,
      "y": 384,
      "size": 1,
      "price": "4683000000000000000000",
      "reserved": "",
      "salt": "0x9342d91e2f3c0a4ead90d8ffc5301cf952f617b37d2b55aa9dd19e14ab20a5f4",
      "assetIds": [
        "41506478881403507969696680653240014914910929820314476107906210059990541021186"
      ]
    },
    {
      "x": 81,
      "y": 385,
      "size": 1,
      "price": "4683000000000000000000",
      "reserved": "",
      "salt": "0x86c70c9b04c18a91f2e7af485c0da08dc99d187c089f24593b8b827a42d1c1ea",
      "assetIds": [
        "41506478881403507969696680653240014914910929820314476107906210059990541021186"
      ]
    },
    {
      "x": 81,
      "y": 386,
      "size": 1,
      "price": "1011000000000000000000",
      "reserved": "",
      "salt": "0x739d8822f74efff940f21fe094a8c61a20ecebd2e87cb235192ffad8d103c3df",
      "assetIds": []
    },
    {
      "x": 81,
      "y": 387,
      "size": 1,
      "price": "1011000000000000000000",
      "reserved": "",
      "salt": "0xe564d1bf47f07e2e61e989db15fd48043d1771e68c1304d9527e9bf70d83860c",
      "assetIds": []
    },
    {
      "x": 81,
      "y": 388,
      "size": 1,
      "price": "1011000000000000000000",
      "reserved": "",
      "salt": "0x9d647e1c685fe564458fcb93a23253dbb90783bc38244e17a43fbe8df29f1908",
      "assetIds": []
    },
    {
      "x": 81,
      "y": 389,
      "size": 1,
      "price": "1011000000000000000000",
      "reserved": "",
      "salt": "0x462a1e455588687ee716bfa830657c2e748c97dca2278f93f4e955d3f108489c",
      "assetIds": []
    },
    {
      "x": 81,
      "y": 390,
      "size": 1,
      "price": "1011000000000000000000",
      "reserved": "",
      "salt": "0xd58fe7a9dd441292f6882185ff7629697b4c2b1357d4d024807894c8b1745f86",
      "assetIds": []
    },
    {
      "x": 81,
      "y": 391,
      "size": 1,
      "price": "1011000000000000000000",
      "reserved": "",
      "salt": "0x0825d395debe42382123c18ee41151e3b4cbf66c8eb2ea42d6e421e080f1b930",
      "assetIds": []
    },
    {
      "x": 81,
      "y": 392,
      "size": 1,
      "price": "1011000000000000000000",
      "reserved": "",
      "salt": "0xd1d51ddab41737aa9b50eca761c6bee9005f2ba9ed44fd647a80144eb3a47b2b",
      "assetIds": []
    },
    {
      "x": 81,
      "y": 393,
      "size": 1,
      "price": "1011000000000000000000",
      "reserved": "",
      "salt": "0xfaf1afeef71ab39e7bb743e010b0d3dc55a1cff027c905e6557f4920151a609c",
      "assetIds": []
    },
    {
      "x": 81,
      "y": 394,
      "size": 1,
      "price": "4683000000000000000000",
      "reserved": "",
      "salt": "0x9dcb569aea4287e78ca6a4a1a846031e064d62fd25edb53ca32ab80450491b30",
      "assetIds": [
        "41506478881403507969696680653240014914910929820314476107906210059990541021186"
      ]
    },
    {
      "x": 81,
      "y": 395,
      "size": 1,
      "price": "4683000000000000000000",
      "reserved": "",
      "salt": "0x9ba9198c384edfeff4533bfc432f6955fa82a1213c526b73b213600fbc61669f",
      "assetIds": [
        "41506478881403507969696680653240014914910929820314476107906210059990541021186"
      ]
    },
    {
      "x": 81,
      "y": 399,
      "size": 1,
      "price": "4683000000000000000000",
      "reserved": "",
      "salt": "0x061a7c8d3a82679d45bfd08c1f15ca89862b842d2e5e98f7d57968d026446dd1",
      "assetIds": [
        "41506478881403507969696680653240014914910929820314476107906210059990541021186"
      ]
    },
    {
      "x": 81,
      "y": 400,
      "size": 1,
      "price": "4683000000000000000000",
      "reserved": "",
      "salt": "0xc143b2ca717bfbee7112c177138d934175ad531273faa77e46c46c2e9373784c",
      "assetIds": [
        "41506478881403507969696680653240014914910929820314476107906210059990541021186"
      ]
    },
    {
      "x": 81,
      "y": 401,
      "size": 1,
      "price": "4683000000000000000000",
      "reserved": "",
      "salt": "0x1804d6e819e8aa2586d1a585368430d4433d474616b4c885950c245910951748",
      "assetIds": [
        "41506478881403507969696680653240014914910929820314476107906210059990541021186"
      ]
    },
    {
      "x": 81,
      "y": 402,
      "size": 1,
      "price": "1011000000000000000000",
      "reserved": "",
      "salt": "0x5759ec488e509b03a74cef12713568a6d0ca8edb0f872954f798aedd2c9abc8e",
      "assetIds": []
    },
    {
      "x": 81,
      "y": 403,
      "size": 1,
      "price": "1011000000000000000000",
      "reserved": "",
      "salt": "0xbf75a63f1c005fbfea37de16a7298d3227ed92fc02155a047b363b4ceef98dbb",
      "assetIds": []
    },
    {
      "x": 81,
      "y": 404,
      "size": 1,
      "price": "1011000000000000000000",
      "reserved": "",
      "salt": "0x669b06ad59181cfb5ef06c733fd97dc5ecb27886bb441f617782fab766f029e3",
      "assetIds": []
    },
    {
      "x": 81,
      "y": 405,
      "size": 1,
      "price": "1011000000000000000000",
      "reserved": "",
      "salt": "0x7610614b4ab5a9d192d3f299f1d53569b0926d1c250a70253cdff4f6f24790aa",
      "assetIds": []
    },
    {
      "x": 81,
      "y": 406,
      "size": 1,
      "price": "1011000000000000000000",
      "reserved": "",
      "salt": "0x157d8d0d347652604a7012a7aec5e862c94713122356736c14c9435e11727ae5",
      "assetIds": []
    },
    {
      "x": 81,
      "y": 407,
      "size": 1,
      "price": "1011000000000000000000",
      "reserved": "",
      "salt": "0x89f9b019779cabfedad2fe789eb0c548978359685698d85b01d53ae9b31293f3",
      "assetIds": []
    },
    {
      "x": 82,
      "y": 384,
      "size": 1,
      "price": "4683000000000000000000",
      "reserved": "",
      "salt": "0x0f9d412c92c3f2f60333c02ca042c13c901edaa7c0f7a36a48c4803e926ec164",
      "assetIds": [
        "41506478881403507969696680653240014914910929820314476107906210059990541021186"
      ]
    },
    {
      "x": 82,
      "y": 385,
      "size": 1,
      "price": "4683000000000000000000",
      "reserved": "",
      "salt": "0xee30a1d2c1f7ddcceb9dcbe77fdbc54f2506c9b987e3941bd33ba31acb55165e",
      "assetIds": [
        "41506478881403507969696680653240014914910929820314476107906210059990541021186"
      ]
    },
    {
      "x": 82,
      "y": 386,
      "size": 1,
      "price": "1011000000000000000000",
      "reserved": "",
      "salt": "0x910b0bdba92b82370c56823be1d93b0e3a777660cc6fff409174999bb1c029cb",
      "assetIds": []
    },
    {
      "x": 82,
      "y": 387,
      "size": 1,
      "price": "1011000000000000000000",
      "reserved": "",
      "salt": "0xa841b91e8f2aa2ec05b963eb4cc1ccfe94a1eb73d5e33179bad51fe203c48b55",
      "assetIds": []
    },
    {
      "x": 82,
      "y": 388,
      "size": 1,
      "price": "1011000000000000000000",
      "reserved": "",
      "salt": "0x3e7c480a34337ed8a7ac4d086e4bb16a80291df063ca84ec870abe3d5f71daeb",
      "assetIds": []
    },
    {
      "x": 82,
      "y": 389,
      "size": 1,
      "price": "1011000000000000000000",
      "reserved": "",
      "salt": "0x8f9b19962f66052744b2f02654f903e96726f0ffa923b304d4d7aa3abcbfedc0",
      "assetIds": []
    },
    {
      "x": 82,
      "y": 390,
      "size": 1,
      "price": "1011000000000000000000",
      "reserved": "",
      "salt": "0x508f6af437ea5f3353a28cef0e7cdc4b3dba7f3caf0d320a6790ca91b6dc08bd",
      "assetIds": []
    },
    {
      "x": 82,
      "y": 391,
      "size": 1,
      "price": "1011000000000000000000",
      "reserved": "",
      "salt": "0x19a07e7641e33b563b921dd58eec6b14a6a4dc380ab1b7f9652d807510e7c155",
      "assetIds": []
    },
    {
      "x": 82,
      "y": 392,
      "size": 1,
      "price": "1011000000000000000000",
      "reserved": "",
      "salt": "0x8ef034d2d70db672b75ad5846bf5b7166c33f492ec3c49909ceb72d6d53bd606",
      "assetIds": []
    },
    {
      "x": 82,
      "y": 393,
      "size": 1,
      "price": "1011000000000000000000",
      "reserved": "",
      "salt": "0xefccdd45eda82fee54f947e872eff0fa08f215e5442022838511f7426f8c7d73",
      "assetIds": []
    },
    {
      "x": 82,
      "y": 394,
      "size": 1,
      "price": "1011000000000000000000",
      "reserved": "0x7a9fe22691c811ea339d9b73150e6911a5343dca",
      "salt": "0x9d6b520e648688d0628188cf3c4490849996d8cfaf8cffc4b3052ffc0ee8d0c7",
      "assetIds": []
    },
    {
      "x": 82,
      "y": 395,
      "size": 1,
      "price": "4683000000000000000000",
      "reserved": "",
      "salt": "0x6e08daa64ce4472ca074abb43162403f205aacb1166de5007ef7db3254802e3e",
      "assetIds": [
        "41506478881403507969696680653240014914910929820314476107906210059990541021186"
      ]
    },
    {
      "x": 82,
      "y": 399,
      "size": 1,
      "price": "4683000000000000000000",
      "reserved": "",
      "salt": "0xdb9e149914f3a21e284d3762642742e8e995202426b32768f2d37af8a2f7c045",
      "assetIds": [
        "41506478881403507969696680653240014914910929820314476107906210059990541021186"
      ]
    },
    {
      "x": 82,
      "y": 400,
      "size": 1,
      "price": "1011000000000000000000",
      "reserved": "0x7a9fe22691c811ea339d9b73150e6911a5343dca",
      "salt": "0x8173397e9144af3b0d05745a5d7fa5363fc1d55434d2af335f03bd41d40dd89b",
      "assetIds": []
    },
    {
      "x": 82,
      "y": 401,
      "size": 1,
      "price": "4683000000000000000000",
      "reserved": "",
      "salt": "0x9e0bffdc78e9bd5c601e3e0c01a8fe4091ab2bfc4963e40bc8a324e034b256e3",
      "assetIds": [
        "41506478881403507969696680653240014914910929820314476107906210059990541021186"
      ]
    },
    {
      "x": 82,
      "y": 402,
      "size": 1,
      "price": "1011000000000000000000",
      "reserved": "",
      "salt": "0x6d657d84611790bb50a9c9b7d56e5a90a98bc621eab31496354423a2058d93c9",
      "assetIds": []
    },
    {
      "x": 82,
      "y": 403,
      "size": 1,
      "price": "1011000000000000000000",
      "reserved": "",
      "salt": "0x899eaffd471fb8e276fa46b33f7e96044304352391ee0e7da55a56efca8b6b71",
      "assetIds": []
    },
    {
      "x": 82,
      "y": 404,
      "size": 1,
      "price": "1011000000000000000000",
      "reserved": "",
      "salt": "0x8f7e8d5890334fbba375c2bc31ef9993b69a72617fe124f7fec29b3573e5e1a4",
      "assetIds": []
    },
    {
      "x": 82,
      "y": 405,
      "size": 1,
      "price": "1011000000000000000000",
      "reserved": "",
      "salt": "0x2196dd0199f0a343bc5ecab8037389b2480797b3acb6e48e4f9a545205af0160",
      "assetIds": []
    },
    {
      "x": 82,
      "y": 406,
      "size": 1,
      "price": "1011000000000000000000",
      "reserved": "",
      "salt": "0x162d7b68c306aa2ddf3bd1493726ed572934913ddbae2cb7edd7e9a76b373d82",
      "assetIds": []
    },
    {
      "x": 82,
      "y": 407,
      "size": 1,
      "price": "1011000000000000000000",
      "reserved": "",
      "salt": "0xd1d26db83052de1d93ca0223158b323dd59c53d996ed879d56ec8085ce00785a",
      "assetIds": []
    },
    {
      "x": 83,
      "y": 384,
      "size": 1,
      "price": "4683000000000000000000",
      "reserved": "",
      "salt": "0xcbd1cda298f60b98fa548e3317fdb8739114241c675e82a7631e5b3e6c3138dc",
      "assetIds": [
        "41506478881403507969696680653240014914910929820314476107906210059990541021186"
      ]
    },
    {
      "x": 83,
      "y": 385,
      "size": 1,
      "price": "4683000000000000000000",
      "reserved": "",
      "salt": "0x591183dd7d9c7790194eb5dc46eaddb77d1d2298b310927e6f7a19baf3e5c23d",
      "assetIds": [
        "41506478881403507969696680653240014914910929820314476107906210059990541021186"
      ]
    },
    {
      "x": 83,
      "y": 386,
      "size": 1,
      "price": "1011000000000000000000",
      "reserved": "",
      "salt": "0x720c85c2bbf586ce48e3cc0f31b4f4c073739d913304b78723069b02c3ff76ff",
      "assetIds": []
    },
    {
      "x": 83,
      "y": 387,
      "size": 1,
      "price": "1011000000000000000000",
      "reserved": "",
      "salt": "0x46e88390b6c2b3211bb7d7858b04b40fd4fd794d216b8c72a4606f38fc469ab0",
      "assetIds": []
    },
    {
      "x": 83,
      "y": 388,
      "size": 1,
      "price": "1011000000000000000000",
      "reserved": "",
      "salt": "0x1414069e5198ea0a46151446a15b6202f63c5a6c29859718ff510f445020847e",
      "assetIds": []
    },
    {
      "x": 83,
      "y": 389,
      "size": 1,
      "price": "1011000000000000000000",
      "reserved": "",
      "salt": "0xc8a0d1345a21cc4621ed914fe6dd6ad6d926e2735c166d6e01c84ac651bdbd6f",
      "assetIds": []
    },
    {
      "x": 83,
      "y": 390,
      "size": 1,
      "price": "1011000000000000000000",
      "reserved": "",
      "salt": "0x3e9672cf1950d6c652acfdd41c57bae0922a7beff23becb1b16f433dbcb708b8",
      "assetIds": []
    },
    {
      "x": 83,
      "y": 391,
      "size": 1,
      "price": "1011000000000000000000",
      "reserved": "",
      "salt": "0x723a7413a0fc3a4fba86b62bf0bc6a43429c78c13411ec0a6d32add61581d983",
      "assetIds": []
    },
    {
      "x": 83,
      "y": 392,
      "size": 1,
      "price": "1011000000000000000000",
      "reserved": "0x7a9fe22691c811ea339d9b73150e6911a5343dca",
      "salt": "0xcd1ba064f7118e33eb638b89fce124d23643a7940c2ac4a2adde4cc3d76017b7",
      "assetIds": []
    },
    {
      "x": 83,
      "y": 393,
      "size": 1,
      "price": "1011000000000000000000",
      "reserved": "",
      "salt": "0x7ba7f0d8e084b77556ed9b7b6ec8ff5b957ea916650be886bdc75c9356429bc3",
      "assetIds": []
    },
    {
      "x": 83,
      "y": 394,
      "size": 1,
      "price": "4683000000000000000000",
      "reserved": "",
      "salt": "0x6d4fbb9f5e9c4e523dff4e0459219c547dfa49ce7cdb832e0da3ba5c66de6b36",
      "assetIds": [
        "41506478881403507969696680653240014914910929820314476107906210059990541021186"
      ]
    },
    {
      "x": 83,
      "y": 395,
      "size": 1,
      "price": "4683000000000000000000",
      "reserved": "",
      "salt": "0x188ba4bad0b799db54b7ef877962f98de64606802b68eaee6b624a4bdb77db34",
      "assetIds": [
        "41506478881403507969696680653240014914910929820314476107906210059990541021186"
      ]
    },
    {
      "x": 83,
      "y": 399,
      "size": 1,
      "price": "4683000000000000000000",
      "reserved": "",
      "salt": "0xc5aabaa343b19699c9852c04959b3b38aab4418ab0f72ccf8ab412773af1cb78",
      "assetIds": [
        "41506478881403507969696680653240014914910929820314476107906210059990541021186"
      ]
    },
    {
      "x": 83,
      "y": 400,
      "size": 1,
      "price": "4683000000000000000000",
      "reserved": "",
      "salt": "0x3177c40a3b5ac631ae62f574545df9a312d934468bcef6148b328a1bb0d44b38",
      "assetIds": [
        "41506478881403507969696680653240014914910929820314476107906210059990541021186"
      ]
    },
    {
      "x": 83,
      "y": 401,
      "size": 1,
      "price": "4683000000000000000000",
      "reserved": "",
      "salt": "0x06dfa022c32eb6b7d39efa8d16df5174583e9ff689644b8c637d9967309e2ff1",
      "assetIds": [
        "41506478881403507969696680653240014914910929820314476107906210059990541021186"
      ]
    },
    {
      "x": 83,
      "y": 402,
      "size": 1,
      "price": "1011000000000000000000",
      "reserved": "",
      "salt": "0x9c5c35e0e624adb70287cdf40e1923bcbee96eb899ff022361a9e62ff6f4ef10",
      "assetIds": []
    },
    {
      "x": 83,
      "y": 403,
      "size": 1,
      "price": "1011000000000000000000",
      "reserved": "0x7a9fe22691c811ea339d9b73150e6911a5343dca",
      "salt": "0x475d0b6405d54efb24613da67de59d85d15d0fe44902bc7b5f7560b7a0eb5175",
      "assetIds": []
    },
    {
      "x": 83,
      "y": 404,
      "size": 1,
      "price": "1011000000000000000000",
      "reserved": "",
      "salt": "0x67d2e393b3116943051ebf243eebd9f33e88bbf1549efb17535507a8e0edb924",
      "assetIds": []
    },
    {
      "x": 83,
      "y": 405,
      "size": 1,
      "price": "1011000000000000000000",
      "reserved": "",
      "salt": "0x0a65bb770faba742e12eacfedd8b76ac36fc1ec17916a1f90276f7e3aa4d422f",
      "assetIds": []
    },
    {
      "x": 83,
      "y": 406,
      "size": 1,
      "price": "1011000000000000000000",
      "reserved": "",
      "salt": "0x9d2d22ff7070eeb421d138ea0b5488d81f0e9fdb1d5d90a54ef0c5d37ab3ac84",
      "assetIds": []
    },
    {
      "x": 83,
      "y": 407,
      "size": 1,
      "price": "1011000000000000000000",
      "reserved": "",
      "salt": "0x5943d65a5ab28caf00f1660e2419a41f6652b67eadee00dabae2d9bf517398db",
      "assetIds": []
    },
    {
      "x": 84,
      "y": 354,
      "size": 1,
      "price": "1011000000000000000000",
      "reserved": "",
      "salt": "0x8968044c5f7f2219fc977845804ae60f88d77863ef9eb6be15686ec98e6050b4",
      "assetIds": []
    },
    {
      "x": 84,
      "y": 355,
      "size": 1,
      "price": "1011000000000000000000",
      "reserved": "",
      "salt": "0x3419815ceb2ac7a7ee43c7a9a8f9d5e187d15fea54ab4f314ed0d94e1a375c3a",
      "assetIds": []
    },
    {
      "x": 84,
      "y": 356,
      "size": 1,
      "price": "1011000000000000000000",
      "reserved": "",
      "salt": "0x72d21c0fe516ec989ce63acee8b7e7d46f7907b3772a297b03cd8732e1d98931",
      "assetIds": []
    },
    {
      "x": 84,
      "y": 357,
      "size": 1,
      "price": "1011000000000000000000",
      "reserved": "",
      "salt": "0xfd1b554bf2d23ececd148266edd92317b0d732a927f1678c5470fbb1b78a06b8",
      "assetIds": []
    },
    {
      "x": 84,
      "y": 358,
      "size": 1,
      "price": "1011000000000000000000",
      "reserved": "",
      "salt": "0x67bd8d8c1e895feda361353286e9c7638b0acfaccc0444e89e2e6822b443a69c",
      "assetIds": []
    },
    {
      "x": 84,
      "y": 359,
      "size": 1,
      "price": "4683000000000000000000",
      "reserved": "",
      "salt": "0xe164746bdb9e1d6b53f88e92b4e6902100df1bb857afc854660789bbf646f3aa",
      "assetIds": [
        "41506478881403507969696680653240014914910929820314476107906210059990541021186"
      ]
    },
    {
      "x": 84,
      "y": 384,
      "size": 1,
      "price": "4683000000000000000000",
      "reserved": "",
      "salt": "0x60b3d07400f1c45781dab508d888bbadf8a7e181a990d03d5107729ef579fa66",
      "assetIds": [
        "41506478881403507969696680653240014914910929820314476107906210059990541021186"
      ]
    },
    {
      "x": 84,
      "y": 385,
      "size": 1,
      "price": "4683000000000000000000",
      "reserved": "",
      "salt": "0x2496e15d22a333d7934c06be53c3dd337934c321733eac670ae6aa04e6455a5d",
      "assetIds": [
        "41506478881403507969696680653240014914910929820314476107906210059990541021186"
      ]
    },
    {
      "x": 84,
      "y": 386,
      "size": 1,
      "price": "1011000000000000000000",
      "reserved": "",
      "salt": "0xdaec67245f0cf1b2ec002bbb4cdff9b3689a82cb63caa7c03a5ab3ed983bedec",
      "assetIds": []
    },
    {
      "x": 84,
      "y": 387,
      "size": 1,
      "price": "1011000000000000000000",
      "reserved": "",
      "salt": "0xfbc285f14adb7d5c4d14ea0bf55956caedb9c34c0fab3a4ae71b17c755401f68",
      "assetIds": []
    },
    {
      "x": 84,
      "y": 388,
      "size": 1,
      "price": "1011000000000000000000",
      "reserved": "",
      "salt": "0x4517023271242286c4cd5a4a0af9c2747dc3dc289d2449b0b5b138978ce135bc",
      "assetIds": []
    },
    {
      "x": 84,
      "y": 389,
      "size": 1,
      "price": "1011000000000000000000",
      "reserved": "",
      "salt": "0x2d99bd3af6f496fba5267904b2d72ee89d88c20c16c8ccb2374ae27cf583172a",
      "assetIds": []
    },
    {
      "x": 84,
      "y": 390,
      "size": 1,
      "price": "1011000000000000000000",
      "reserved": "",
      "salt": "0x7479c66d74f310ad27b118c60fc7fbb3c594518a3d80a441b0467430724ec8a5",
      "assetIds": []
    },
    {
      "x": 84,
      "y": 391,
      "size": 1,
      "price": "1011000000000000000000",
      "reserved": "",
      "salt": "0x78fddbb7731d169a0707cf45cad1ec26d8d2ede97774f1faa49f574f8ce16714",
      "assetIds": []
    },
    {
      "x": 84,
      "y": 392,
      "size": 1,
      "price": "1011000000000000000000",
      "reserved": "",
      "salt": "0x651b1a34d38c4969843c5bca67857201753de54fc57827ea2b797c1dbcfeda9c",
      "assetIds": []
    },
    {
      "x": 84,
      "y": 393,
      "size": 1,
      "price": "1011000000000000000000",
      "reserved": "",
      "salt": "0x8d2ce058e951bb88c9c2df957955e7d66215d65caa66c4d1d55966a0e8131750",
      "assetIds": []
    },
    {
      "x": 84,
      "y": 394,
      "size": 1,
      "price": "1011000000000000000000",
      "reserved": "",
      "salt": "0xaca589c5b246d148b832e08e2aaaf86add39692db0ea9c35c5892dd4a1d2e9d3",
      "assetIds": []
    },
    {
      "x": 84,
      "y": 395,
      "size": 1,
      "price": "4683000000000000000000",
      "reserved": "",
      "salt": "0xe1f8dd363461b203a57670455fad61d89e418851d25afe6234d346b9f997f2a1",
      "assetIds": [
        "41506478881403507969696680653240014914910929820314476107906210059990541021186"
      ]
    },
    {
      "x": 84,
      "y": 396,
      "size": 1,
      "price": "4683000000000000000000",
      "reserved": "",
      "salt": "0x5c1835ffd042736c70d85d8fadb51a78aa6c1837c1fa11c9609e89882e9940d5",
      "assetIds": [
        "41506478881403507969696680653240014914910929820314476107906210059990541021186"
      ]
    },
    {
      "x": 84,
      "y": 397,
      "size": 1,
      "price": "4683000000000000000000",
      "reserved": "",
      "salt": "0xb658cd894ee0f728d34f87b02156e2a2d341fae652e4ca851fa9bd133d813dbb",
      "assetIds": [
        "41506478881403507969696680653240014914910929820314476107906210059990541021186"
      ]
    },
    {
      "x": 84,
      "y": 398,
      "size": 1,
      "price": "4683000000000000000000",
      "reserved": "",
      "salt": "0x4b5a78de163f566b277d75f78fde3a2e1b095d1a428e0d3051b8b4d969aabc9e",
      "assetIds": [
        "41506478881403507969696680653240014914910929820314476107906210059990541021186"
      ]
    },
    {
      "x": 84,
      "y": 399,
      "size": 1,
      "price": "4683000000000000000000",
      "reserved": "",
      "salt": "0x3b9ab0088ab23c179c6317d8bcc3bec5d48fcb416ef13306d80b5b0e91389989",
      "assetIds": [
        "41506478881403507969696680653240014914910929820314476107906210059990541021186"
      ]
    },
    {
      "x": 84,
      "y": 400,
      "size": 1,
      "price": "1011000000000000000000",
      "reserved": "0x7a9fe22691c811ea339d9b73150e6911a5343dca",
      "salt": "0xd18d97c56426a4e6b431e1db69b9b8159c70123de5c4927d7d7c7e012029b186",
      "assetIds": []
    },
    {
      "x": 84,
      "y": 401,
      "size": 1,
      "price": "1011000000000000000000",
      "reserved": "",
      "salt": "0xf603d6bb7f5b2f84292b93f97a790bc43b7e11500b18bf194a9e3134a0d509ab",
      "assetIds": []
    },
    {
      "x": 84,
      "y": 402,
      "size": 1,
      "price": "1011000000000000000000",
      "reserved": "",
      "salt": "0x2814804f250823ffecc8f1804432733a3e191234a658fc1b69fb0e28eb85ef41",
      "assetIds": []
    },
    {
      "x": 84,
      "y": 403,
      "size": 1,
      "price": "1011000000000000000000",
      "reserved": "",
      "salt": "0x9a759815157ac2510bdfca44bdde1175a77fa27b6e8d3200b66e3107912e6cab",
      "assetIds": []
    },
    {
      "x": 84,
      "y": 404,
      "size": 1,
      "price": "1011000000000000000000",
      "reserved": "",
      "salt": "0xfd9ce01ca840cf696b326ad95cf2a66790ae0db42bc92aafc34ecbde62a24e6d",
      "assetIds": []
    },
    {
      "x": 84,
      "y": 405,
      "size": 1,
      "price": "1011000000000000000000",
      "reserved": "",
      "salt": "0xd5f42d4c1c3b0d6eacce0c0b6823a3fd32a9ab2b6f494e14f2de11b8d6dc6766",
      "assetIds": []
    },
    {
      "x": 84,
      "y": 406,
      "size": 1,
      "price": "1011000000000000000000",
      "reserved": "",
      "salt": "0x20c199b802a1cb021c9f62a831e5238e76e2d537962f3f2c3bcfec8784363df7",
      "assetIds": []
    },
    {
      "x": 84,
      "y": 407,
      "size": 1,
      "price": "1011000000000000000000",
      "reserved": "",
      "salt": "0x4bbff6e4cc9b0ae5ea8a12e185fc86aa773fcceed50640e5178137374241be36",
      "assetIds": []
    },
    {
      "x": 85,
      "y": 354,
      "size": 1,
      "price": "1011000000000000000000",
      "reserved": "",
      "salt": "0x7d823ddcbede065b15bd79815c4c59d757248b274c9aa8970d56d18e4b70de30",
      "assetIds": []
    },
    {
      "x": 85,
      "y": 355,
      "size": 1,
      "price": "1011000000000000000000",
      "reserved": "",
      "salt": "0x9afe30ac0e3a909a4c24f1ea608a3a97ecca001305d3589ee6d98bc7b2f8e670",
      "assetIds": []
    },
    {
      "x": 85,
      "y": 356,
      "size": 1,
      "price": "1011000000000000000000",
      "reserved": "",
      "salt": "0x3d623eb11586fb6a0633d071c027ae5752adb26de120703a7c2cd2db2ab728e0",
      "assetIds": []
    },
    {
      "x": 85,
      "y": 357,
      "size": 1,
      "price": "1011000000000000000000",
      "reserved": "",
      "salt": "0xfbcba6933ac104df6e461c5f82abd5abedd82b885ca9296eef992011815b52ec",
      "assetIds": []
    },
    {
      "x": 85,
      "y": 358,
      "size": 1,
      "price": "1011000000000000000000",
      "reserved": "",
      "salt": "0x6d7b8e053e03e707b858c7016ba19831afb603ed4b4e75bf0636aaf2eb240ffb",
      "assetIds": []
    },
    {
      "x": 85,
      "y": 359,
      "size": 1,
      "price": "4683000000000000000000",
      "reserved": "",
      "salt": "0x65b31ee67da0cf6a73927d1c3c9ecb2434e76e36708d40269113ade49e39df18",
      "assetIds": [
        "41506478881403507969696680653240014914910929820314476107906210059990541021186"
      ]
    },
    {
      "x": 85,
      "y": 384,
      "size": 1,
      "price": "4683000000000000000000",
      "reserved": "",
      "salt": "0xe5c6c7685a5c2ce6c4e5c9319d3ed56d372b769044e84d7de0eebcab5982e0ee",
      "assetIds": [
        "41506478881403507969696680653240014914910929820314476107906210059990541021186"
      ]
    },
    {
      "x": 85,
      "y": 385,
      "size": 1,
      "price": "4683000000000000000000",
      "reserved": "",
      "salt": "0xfa35e4b84401c30de04d0c2ea9d6e2fdc0c6f4c4601b51bb246523ea2a89df71",
      "assetIds": [
        "41506478881403507969696680653240014914910929820314476107906210059990541021186"
      ]
    },
    {
      "x": 85,
      "y": 386,
      "size": 1,
      "price": "1011000000000000000000",
      "reserved": "",
      "salt": "0xf6c1710b122fce03422aee6c7e7c4bf9d17d4deac584a5f6ef72825a34271d81",
      "assetIds": []
    },
    {
      "x": 85,
      "y": 387,
      "size": 1,
      "price": "1011000000000000000000",
      "reserved": "",
      "salt": "0x0a269a6f04e2be66930ec4a76f949be61084cfe76d7d47b0b31cd6658b6f8ba2",
      "assetIds": []
    },
    {
      "x": 85,
      "y": 388,
      "size": 1,
      "price": "1011000000000000000000",
      "reserved": "",
      "salt": "0xf2114d5970980102ce0f09679b6836964b84af96128ac6ddafdcddcf50570ae6",
      "assetIds": []
    },
    {
      "x": 85,
      "y": 389,
      "size": 1,
      "price": "1011000000000000000000",
      "reserved": "",
      "salt": "0x9fbc26dd6b3b19d0d3263ac49335f25b0dffe715466a9cd879f265c1b5cd504c",
      "assetIds": []
    },
    {
      "x": 85,
      "y": 390,
      "size": 1,
      "price": "1011000000000000000000",
      "reserved": "",
      "salt": "0x0f04228de140cae4d0eaa841679f3119dd472b3a218b7b210b25d35b87c35b29",
      "assetIds": []
    },
    {
      "x": 85,
      "y": 391,
      "size": 1,
      "price": "1011000000000000000000",
      "reserved": "",
      "salt": "0xdc91a6eb15721100a560b1e713b7223d47e9f4fe9e2e5e6b191849900a16f2e8",
      "assetIds": []
    },
    {
      "x": 85,
      "y": 392,
      "size": 1,
      "price": "1011000000000000000000",
      "reserved": "",
      "salt": "0xd4389f419571280936660460d7c6738ffb7620c4faaa78b6a8e9b52d21ace127",
      "assetIds": []
    },
    {
      "x": 85,
      "y": 393,
      "size": 1,
      "price": "1011000000000000000000",
      "reserved": "",
      "salt": "0x4dc6c44647cc489303e8455934c2ff499524872f787f82ee37450fbf30d23e6a",
      "assetIds": []
    },
    {
      "x": 85,
      "y": 394,
      "size": 1,
      "price": "1011000000000000000000",
      "reserved": "",
      "salt": "0xd71beb338cc2e2cf8944b2b662c75d17b57a9658e20d3a10e5fca61546540955",
      "assetIds": []
    },
    {
      "x": 85,
      "y": 395,
      "size": 1,
      "price": "4683000000000000000000",
      "reserved": "",
      "salt": "0x97f2a2bbcfaaedc42f1474ac4e5fbcb29eb27252d05bf0fe8ad7a0cb2e1dcafa",
      "assetIds": [
        "41506478881403507969696680653240014914910929820314476107906210059990541021186"
      ]
    },
    {
      "x": 85,
      "y": 396,
      "size": 1,
      "price": "4683000000000000000000",
      "reserved": "",
      "salt": "0x91fd9906d35583fc1784586de550f924b354b045840e70eb787bfac0d5e46203",
      "assetIds": [
        "41506478881403507969696680653240014914910929820314476107906210059990541021186"
      ]
    },
    {
      "x": 85,
      "y": 397,
      "size": 1,
      "price": "4683000000000000000000",
      "reserved": "",
      "salt": "0x7e67d1570f9e2a0a1564fe469701408a7f8599136506eeaef4a12b659c3e931b",
      "assetIds": [
        "41506478881403507969696680653240014914910929820314476107906210059990541021186"
      ]
    },
    {
      "x": 85,
      "y": 398,
      "size": 1,
      "price": "1011000000000000000000",
      "reserved": "0x7a9fe22691c811ea339d9b73150e6911a5343dca",
      "salt": "0x8da82626c80f1061b11a9fc34591c16499f34641606b3ca9fd03b79346789411",
      "assetIds": []
    },
    {
      "x": 85,
      "y": 399,
      "size": 1,
      "price": "4683000000000000000000",
      "reserved": "",
      "salt": "0xb98cff258d9dd616a8ef1cf27aa5d463e9406aea0cd618bf1ebd443b9392b600",
      "assetIds": [
        "41506478881403507969696680653240014914910929820314476107906210059990541021186"
      ]
    },
    {
      "x": 85,
      "y": 400,
      "size": 1,
      "price": "1011000000000000000000",
      "reserved": "",
      "salt": "0x57f7a3e9066b2d6834cddc9f7ff2e522968acefb3356e0afe6cb801b528b8609",
      "assetIds": []
    },
    {
      "x": 85,
      "y": 401,
      "size": 1,
      "price": "1011000000000000000000",
      "reserved": "",
      "salt": "0xe81ad0b529a9d1eb4b44fdd18b881cd9f8c0ec691971312d6998889eacac31e1",
      "assetIds": []
    },
    {
      "x": 85,
      "y": 402,
      "size": 1,
      "price": "1011000000000000000000",
      "reserved": "",
      "salt": "0x1b80dc5f9813f5b873be1cd3e7470a91b051d9357d8b5c8120c246ba47aab64d",
      "assetIds": []
    },
    {
      "x": 85,
      "y": 403,
      "size": 1,
      "price": "1011000000000000000000",
      "reserved": "",
      "salt": "0x8ed8ef5dc81a736c813b382acb745a1885e4d8f159b999269e5b0415f940f399",
      "assetIds": []
    },
    {
      "x": 85,
      "y": 404,
      "size": 1,
      "price": "1011000000000000000000",
      "reserved": "",
      "salt": "0xde693efacfab4b17b296db242525b0e95c1d268dbb3d6d01b125c3a78eee9236",
      "assetIds": []
    },
    {
      "x": 85,
      "y": 405,
      "size": 1,
      "price": "1011000000000000000000",
      "reserved": "",
      "salt": "0x19fb195c11ba112693497319287b54af96a3758cdc2b9b240d916e89984bd7a5",
      "assetIds": []
    },
    {
      "x": 85,
      "y": 406,
      "size": 1,
      "price": "1011000000000000000000",
      "reserved": "",
      "salt": "0x55b92d81ef4d584351a390ae05c089b702ee6861c0f114d8f3ebb615287fb36e",
      "assetIds": []
    },
    {
      "x": 85,
      "y": 407,
      "size": 1,
      "price": "1011000000000000000000",
      "reserved": "",
      "salt": "0x27966de88ff8a23b28bf514aa9918e92251acaf7ffa067237507c357f526409f",
      "assetIds": []
    },
    {
      "x": 86,
      "y": 354,
      "size": 1,
      "price": "1011000000000000000000",
      "reserved": "",
      "salt": "0xdd55e881b7da9ad9783957cb9b9001e2a181cf47eea55fd217272330d6a4f37b",
      "assetIds": []
    },
    {
      "x": 86,
      "y": 355,
      "size": 1,
      "price": "1011000000000000000000",
      "reserved": "",
      "salt": "0x002a12847cdd4640e844e05e04712f618f1d9ccc19aadb76faa6951ba09fc03e",
      "assetIds": []
    },
    {
      "x": 86,
      "y": 356,
      "size": 1,
      "price": "1011000000000000000000",
      "reserved": "",
      "salt": "0x68743d21a0fed0d416b4cd441a896fb62f69b292d56e4f8e8cfef3bcdf0d6481",
      "assetIds": []
    },
    {
      "x": 86,
      "y": 357,
      "size": 1,
      "price": "1011000000000000000000",
      "reserved": "",
      "salt": "0x5347e93ea4f6853d14681bb20817ea490960b6a78c225d231659711450c7b4a1",
      "assetIds": []
    },
    {
      "x": 86,
      "y": 358,
      "size": 1,
      "price": "1011000000000000000000",
      "reserved": "",
      "salt": "0x49536e49cdafe29773868ceb448a12a3ef7fade30a97dd2eb301227d3a286db6",
      "assetIds": []
    },
    {
      "x": 86,
      "y": 359,
      "size": 1,
      "price": "4683000000000000000000",
      "reserved": "",
      "salt": "0x27913f2d3b702bbc58522276014e44beaa4bf0053801bffdcd1a94cccb054a70",
      "assetIds": [
        "41506478881403507969696680653240014914910929820314476107906210059990541021186"
      ]
    },
    {
      "x": 86,
      "y": 384,
      "size": 1,
      "price": "4683000000000000000000",
      "reserved": "",
      "salt": "0x6e6fb19481bbfe1ccd88a04c1afa5e01f9b726b427b8351ec38c8b33a90bf8d4",
      "assetIds": [
        "41506478881403507969696680653240014914910929820314476107906210059990541021186"
      ]
    },
    {
      "x": 86,
      "y": 385,
      "size": 1,
      "price": "1011000000000000000000",
      "reserved": "0x7a9fe22691c811ea339d9b73150e6911a5343dca",
      "salt": "0xe85e865e8eaeb9f1f8717fb52aec15f1ba784ef5b9e54288a72e3324a0a4592f",
      "assetIds": []
    },
    {
      "x": 86,
      "y": 386,
      "size": 1,
      "price": "1011000000000000000000",
      "reserved": "",
      "salt": "0x9038bf77a4829f4b7f1d82a6ad2503b23d6e8b81ee61475f16219d62e0147ae9",
      "assetIds": []
    },
    {
      "x": 86,
      "y": 387,
      "size": 1,
      "price": "1011000000000000000000",
      "reserved": "",
      "salt": "0x665728b65a9cb95659d083657739adde947c801d2fb8cd1f0e694730d9f048a5",
      "assetIds": []
    },
    {
      "x": 86,
      "y": 388,
      "size": 1,
      "price": "1011000000000000000000",
      "reserved": "",
      "salt": "0x1814672600842bd45fdfd045a89293dc630cee75e0806b0a6eb014f209009f87",
      "assetIds": []
    },
    {
      "x": 86,
      "y": 389,
      "size": 1,
      "price": "1011000000000000000000",
      "reserved": "",
      "salt": "0xe3aff1cb5ce8a2f582f6d2bc11565f783fbf81f7dd56c5ee2c865d52dfafb211",
      "assetIds": []
    },
    {
      "x": 86,
      "y": 390,
      "size": 1,
      "price": "1011000000000000000000",
      "reserved": "",
      "salt": "0x3768a8f376d27840cc27160cd9eac8d9e881cb8d1dbe3b172088f5e0c7a5915c",
      "assetIds": []
    },
    {
      "x": 86,
      "y": 391,
      "size": 1,
      "price": "1011000000000000000000",
      "reserved": "",
      "salt": "0x4e3200053dc40cd6db1b2acca84f149197754b08ae83dc06b530483c4d573d38",
      "assetIds": []
    },
    {
      "x": 86,
      "y": 392,
      "size": 1,
      "price": "1011000000000000000000",
      "reserved": "",
      "salt": "0x64d3403a5dc3c0ce1e3ad496db1ecc51e00860a6e3f51c8b020bc9da2c4a3cb9",
      "assetIds": []
    },
    {
      "x": 86,
      "y": 393,
      "size": 1,
      "price": "1011000000000000000000",
      "reserved": "",
      "salt": "0x96c4b75c06e4490e70979ffb50815ed5451021b5b664e8a1773380b0527d86fa",
      "assetIds": []
    },
    {
      "x": 86,
      "y": 394,
      "size": 1,
      "price": "1011000000000000000000",
      "reserved": "",
      "salt": "0x6afea1efdce58688a62a14a0f3e53de641cf0b9025e24f57b527cad3a57b7854",
      "assetIds": []
    },
    {
      "x": 86,
      "y": 395,
      "size": 1,
      "price": "4683000000000000000000",
      "reserved": "",
      "salt": "0x1db1ac3532cddfa61969272854f06f7e01ad976b21b40f41bc75fd62fd8bb421",
      "assetIds": [
        "41506478881403507969696680653240014914910929820314476107906210059990541021186"
      ]
    },
    {
      "x": 86,
      "y": 396,
      "size": 1,
      "price": "4683000000000000000000",
      "reserved": "",
      "salt": "0x1317c6726f37f7943f7da0b10b2935e6152bf3638c1b0fb7bcadc9e249219433",
      "assetIds": [
        "41506478881403507969696680653240014914910929820314476107906210059990541021186"
      ]
    },
    {
      "x": 86,
      "y": 397,
      "size": 1,
      "price": "4683000000000000000000",
      "reserved": "",
      "salt": "0xfc6df9f615a9915d899f765345190d8a8593d5efa5ba5ba878eab35234856eb2",
      "assetIds": [
        "41506478881403507969696680653240014914910929820314476107906210059990541021186"
      ]
    },
    {
      "x": 86,
      "y": 398,
      "size": 1,
      "price": "1011000000000000000000",
      "reserved": "",
      "salt": "0x1c34f40f0a21b26e2fd10aad3bf5277a646686fc31489424c64ef396d90a7a1c",
      "assetIds": []
    },
    {
      "x": 86,
      "y": 399,
      "size": 1,
      "price": "1011000000000000000000",
      "reserved": "",
      "salt": "0x566b8debe0ebc23999228bb3610b224f566f9a62c81a07563b7fa90cac3df986",
      "assetIds": []
    },
    {
      "x": 86,
      "y": 400,
      "size": 1,
      "price": "1011000000000000000000",
      "reserved": "",
      "salt": "0xb683a6925fc5db95170463e9b3d3abe901e18c31efcc18116c5b9d5ac6761ed4",
      "assetIds": []
    },
    {
      "x": 86,
      "y": 401,
      "size": 1,
      "price": "1011000000000000000000",
      "reserved": "",
      "salt": "0x0df67dc5bf38968138221c244582f90c96af493e4566dd0f9a759fc5394afe74",
      "assetIds": []
    },
    {
      "x": 86,
      "y": 402,
      "size": 1,
      "price": "1011000000000000000000",
      "reserved": "",
      "salt": "0x91f68a66a9ca91d4698baf01bd7d8750b0bfe0c40288183c4bf2328c6d5a321e",
      "assetIds": []
    },
    {
      "x": 86,
      "y": 403,
      "size": 1,
      "price": "1011000000000000000000",
      "reserved": "",
      "salt": "0x8166fe6235308670f8b90be091c4b38d624d17733500cf71cde3b956a390991e",
      "assetIds": []
    },
    {
      "x": 86,
      "y": 404,
      "size": 1,
      "price": "1011000000000000000000",
      "reserved": "",
      "salt": "0xbdff1cdd86f07336df21b594bd4a4eebaf9493ed3d5ccf1ad7e654724de5a21f",
      "assetIds": []
    },
    {
      "x": 86,
      "y": 405,
      "size": 1,
      "price": "1011000000000000000000",
      "reserved": "",
      "salt": "0xeea48d82e7bcb69daf89129162d97c26e67ac8eb413713707dd1aec46a199277",
      "assetIds": []
    },
    {
      "x": 86,
      "y": 406,
      "size": 1,
      "price": "1011000000000000000000",
      "reserved": "",
      "salt": "0x5b9e1d8abad47aa2c70e3305d96fb4b2519d0f676f10992cc0eaa51b3f468900",
      "assetIds": []
    },
    {
      "x": 86,
      "y": 407,
      "size": 1,
      "price": "1011000000000000000000",
      "reserved": "",
      "salt": "0x252ff6333249dd4f84aa80e361314b7010d1a7a44aef17427b2cf13b38415cde",
      "assetIds": []
    },
    {
      "x": 87,
      "y": 354,
      "size": 1,
      "price": "1011000000000000000000",
      "reserved": "",
      "salt": "0x75180effc3f169eb1c45f4aedcc786f7f26a97fe3e2b19d2bdd239843241395c",
      "assetIds": []
    },
    {
      "x": 87,
      "y": 355,
      "size": 1,
      "price": "1011000000000000000000",
      "reserved": "0x7a9fe22691c811ea339d9b73150e6911a5343dca",
      "salt": "0x6597f71cb11bc39bf350852be3455d87dae0595202e0e0dc2954eba87ccf0370",
      "assetIds": []
    },
    {
      "x": 87,
      "y": 356,
      "size": 1,
      "price": "1011000000000000000000",
      "reserved": "",
      "salt": "0xb968cd0a4913f1a0ed01d9999f4d9524aa348b2f8fcdee9278b48aea65eb686d",
      "assetIds": []
    },
    {
      "x": 87,
      "y": 357,
      "size": 1,
      "price": "1011000000000000000000",
      "reserved": "",
      "salt": "0x4d8676554e87f81ca1b4fbb428d5332cbbd9aa5ba60d641c6a0217c196ea9d9f",
      "assetIds": []
    },
    {
      "x": 87,
      "y": 358,
      "size": 1,
      "price": "1011000000000000000000",
      "reserved": "",
      "salt": "0xaa33451f34d4d8bad3f6d1892fad229c0e1151fe9252d0f196f90abd7e336b25",
      "assetIds": []
    },
    {
      "x": 87,
      "y": 359,
      "size": 1,
      "price": "4683000000000000000000",
      "reserved": "",
      "salt": "0x4f24f322e2ec5195c17c238a7db25dc0d60553dcc21179687fa5519711e50707",
      "assetIds": [
        "41506478881403507969696680653240014914910929820314476107906210059990541021186"
      ]
    },
    {
      "x": 87,
      "y": 384,
      "size": 1,
      "price": "4683000000000000000000",
      "reserved": "",
      "salt": "0x311b64e06e05fa31feb034c523cbf52025b0f769e81deffa61000c915d438f3b",
      "assetIds": [
        "41506478881403507969696680653240014914910929820314476107906210059990541021186"
      ]
    },
    {
      "x": 87,
      "y": 385,
      "size": 1,
      "price": "1011000000000000000000",
      "reserved": "0x7a9fe22691c811ea339d9b73150e6911a5343dca",
      "salt": "0x6d0ad8395298c1820bcb4d434b64fd47bf194009a4f228b946efaa01c77f44ac",
      "assetIds": []
    },
    {
      "x": 87,
      "y": 386,
      "size": 1,
      "price": "1011000000000000000000",
      "reserved": "",
      "salt": "0x9910995993ae24a6e48485f80a0e05c25b08b62dc16e1a723ced37c86f05a58c",
      "assetIds": []
    },
    {
      "x": 87,
      "y": 387,
      "size": 1,
      "price": "1011000000000000000000",
      "reserved": "",
      "salt": "0x1e50ef2fa50a9cd67209317c493a1b061e19c7d79c65d4eee2f094daef5ab120",
      "assetIds": []
    },
    {
      "x": 87,
      "y": 388,
      "size": 1,
      "price": "1011000000000000000000",
      "reserved": "",
      "salt": "0xc48e79fe4eac6a195f6e33ce5c9add7d99b4adbcf0d4d88da72db38522381cdd",
      "assetIds": []
    },
    {
      "x": 87,
      "y": 389,
      "size": 1,
      "price": "1011000000000000000000",
      "reserved": "",
      "salt": "0x619d21ebd4bf394c2f98e6da4a4db4f7f999b8677293b34ca6d920705de2396c",
      "assetIds": []
    },
    {
      "x": 87,
      "y": 390,
      "size": 1,
      "price": "1011000000000000000000",
      "reserved": "",
      "salt": "0x956d18dc2821d3768098e7f20af9ee100173d81fe0930426c3246ec6f34d383e",
      "assetIds": []
    },
    {
      "x": 87,
      "y": 391,
      "size": 1,
      "price": "1011000000000000000000",
      "reserved": "",
      "salt": "0x080219740ba1405544d741aa9235ae6e5e3ba3b02b247188cc680ba9fa541b91",
      "assetIds": []
    },
    {
      "x": 87,
      "y": 392,
      "size": 1,
      "price": "1011000000000000000000",
      "reserved": "",
      "salt": "0x1b943147c3b41ecd7e9258d86e048b5d9b281cef9d5dae7a1dd695a9a7f26124",
      "assetIds": []
    },
    {
      "x": 87,
      "y": 396,
      "size": 1,
      "price": "1011000000000000000000",
      "reserved": "",
      "salt": "0xeeeae3af6c602510cd669942c9dc4e015302a93acdba90cd80732d2d2bc9f929",
      "assetIds": []
    },
    {
      "x": 87,
      "y": 397,
      "size": 1,
      "price": "1011000000000000000000",
      "reserved": "",
      "salt": "0xb1b7fa1d971c64032c8ccf7c7b0e353d564d05fa9ae069a9d07cbf79ef103f31",
      "assetIds": []
    },
    {
      "x": 87,
      "y": 398,
      "size": 1,
      "price": "1011000000000000000000",
      "reserved": "",
      "salt": "0x0838f63b6c738841737e6a734fda8ac374a4374317839adf18c5ef63ee1e91c7",
      "assetIds": []
    },
    {
      "x": 87,
      "y": 399,
      "size": 1,
      "price": "1011000000000000000000",
      "reserved": "",
      "salt": "0x0816d9869c64482e73c2d875c1c8cf7cf17b232c7f4ecdb0b5029d6ecfbc6398",
      "assetIds": []
    },
    {
      "x": 87,
      "y": 400,
      "size": 1,
      "price": "1011000000000000000000",
      "reserved": "",
      "salt": "0x14089cdeee33aa59b69d71df4299e63034d59f7291059744ab5cb1e03dc98a04",
      "assetIds": []
    },
    {
      "x": 87,
      "y": 401,
      "size": 1,
      "price": "1011000000000000000000",
      "reserved": "",
      "salt": "0x46c9331cc7eeadd3d7a7efe4370ffeaa7164451af2ea710f4550702d61777ba9",
      "assetIds": []
    },
    {
      "x": 87,
      "y": 402,
      "size": 1,
      "price": "1011000000000000000000",
      "reserved": "0x7a9fe22691c811ea339d9b73150e6911a5343dca",
      "salt": "0x41597a8c606c5e55883356fd836470b11dd9392c6cd9e895b7611e928ec1bdd8",
      "assetIds": []
    },
    {
      "x": 87,
      "y": 403,
      "size": 1,
      "price": "1011000000000000000000",
      "reserved": "",
      "salt": "0xc611cb421c3775af034a3ccba3a2d9fe95b0dce3b154ae3ae8aa0a4f138335ce",
      "assetIds": []
    },
    {
      "x": 87,
      "y": 404,
      "size": 1,
      "price": "4683000000000000000000",
      "reserved": "",
      "salt": "0x901653449fdec8fdba86a584f835e0e1bb0700d15690189c8cbe4c2c553d306d",
      "assetIds": [
        "41506478881403507969696680653240014914910929820314476107906210059990541021186"
      ]
    },
    {
      "x": 87,
      "y": 405,
      "size": 1,
      "price": "1011000000000000000000",
      "reserved": "0x7a9fe22691c811ea339d9b73150e6911a5343dca",
      "salt": "0x04ba299bdd955a49def8d75e3aaf483757db07e10eae981eec440eea7cc2f47c",
      "assetIds": []
    },
    {
      "x": 87,
      "y": 406,
      "size": 1,
      "price": "1011000000000000000000",
      "reserved": "",
      "salt": "0xba85ed1c95a315fe8af390c03b4d0276dc2489a137d49329cbd521ae5bafe9e5",
      "assetIds": []
    },
    {
      "x": 87,
      "y": 407,
      "size": 1,
      "price": "1011000000000000000000",
      "reserved": "",
      "salt": "0x243dc1cda2049ca45607a3b17d74637e5194d8aa6224657da0d562289a09057c",
      "assetIds": []
    },
    {
      "x": 88,
      "y": 354,
      "size": 1,
      "price": "1011000000000000000000",
      "reserved": "",
      "salt": "0x362e285f3771adfb44e258dcef38ff1ce88dcb1de0e2f2e7eb807f4dddb7ec63",
      "assetIds": []
    },
    {
      "x": 88,
      "y": 355,
      "size": 1,
      "price": "1011000000000000000000",
      "reserved": "",
      "salt": "0xe8406bd0f6c530ea404bc59e5c1752370c90c37204a8f7f460c73c8c2e4aad19",
      "assetIds": []
    },
    {
      "x": 88,
      "y": 356,
      "size": 1,
      "price": "1011000000000000000000",
      "reserved": "",
      "salt": "0x92d75fd364e4f3dcafcd8305e97205fbf09708ff824c5ca7815a3f29c113774c",
      "assetIds": []
    },
    {
      "x": 88,
      "y": 357,
      "size": 1,
      "price": "1011000000000000000000",
      "reserved": "",
      "salt": "0x16d82b9d4e9ba4e42b59ede6adb9246de3a00381d87365ddd9dc5f6653695428",
      "assetIds": []
    },
    {
      "x": 88,
      "y": 358,
      "size": 1,
      "price": "4683000000000000000000",
      "reserved": "",
      "salt": "0x16d9024f7b788dc9e4e5ac78d1e2e75a4c64552fd3bbc387f8c1d9b3953a25a7",
      "assetIds": [
        "41506478881403507969696680653240014914910929820314476107906210059990541021186"
      ]
    },
    {
      "x": 88,
      "y": 359,
      "size": 1,
      "price": "4683000000000000000000",
      "reserved": "",
      "salt": "0x6fb90250c293d0ecf580268e90b69a9ce8a61efa42dddff3371afcffcbfe75c5",
      "assetIds": [
        "41506478881403507969696680653240014914910929820314476107906210059990541021186"
      ]
    },
    {
      "x": 88,
      "y": 384,
      "size": 1,
      "price": "4683000000000000000000",
      "reserved": "",
      "salt": "0xcbec4e21a2a0c099a0f1beb003d7a986b196a68882f098d37626b8572a199367",
      "assetIds": [
        "41506478881403507969696680653240014914910929820314476107906210059990541021186"
      ]
    },
    {
      "x": 88,
      "y": 385,
      "size": 1,
      "price": "4683000000000000000000",
      "reserved": "",
      "salt": "0x94726ecb13a9ee79c2a9b21c5590265042ffa2243b21901c911e9972087c1032",
      "assetIds": [
        "41506478881403507969696680653240014914910929820314476107906210059990541021186"
      ]
    },
    {
      "x": 88,
      "y": 386,
      "size": 1,
      "price": "4683000000000000000000",
      "reserved": "",
      "salt": "0x0dc3c849be3761fbf959a7d70e29b6ce3742236419edf659f8792143e50d3bec",
      "assetIds": [
        "41506478881403507969696680653240014914910929820314476107906210059990541021186"
      ]
    },
    {
      "x": 88,
      "y": 387,
      "size": 1,
      "price": "1011000000000000000000",
      "reserved": "",
      "salt": "0xe26e25cbc7cfbff9f73810bb21c6434fa53c120b622496ae2a2ca78923e87fbc",
      "assetIds": []
    },
    {
      "x": 88,
      "y": 388,
      "size": 1,
      "price": "1011000000000000000000",
      "reserved": "",
      "salt": "0x85ba3df01a5ade3aef66fa87b71a3d46663d0cfb50d84cd164ab0450b076c736",
      "assetIds": []
    },
    {
      "x": 88,
      "y": 389,
      "size": 1,
      "price": "1011000000000000000000",
      "reserved": "",
      "salt": "0x00c34ba8dfef00d843dbadb4e226ea7834a788a400003fbf12a3dbd82c11edd3",
      "assetIds": []
    },
    {
      "x": 88,
      "y": 390,
      "size": 1,
      "price": "1011000000000000000000",
      "reserved": "",
      "salt": "0xa5d24994a4f49a3d09d20d838d5c68f96474396bdfeca72ce901e1465ecb3518",
      "assetIds": []
    },
    {
      "x": 88,
      "y": 391,
      "size": 1,
      "price": "1011000000000000000000",
      "reserved": "",
      "salt": "0x1b6aa05aa1f6f7ba47f1e23e0e9db1d88d76d7ffc3ec0033d4384a1cafd5172f",
      "assetIds": []
    },
    {
      "x": 88,
      "y": 392,
      "size": 1,
      "price": "1011000000000000000000",
      "reserved": "",
      "salt": "0xaab401c07c691e733ff1ae5b37b763b336a11bcda057b88799c384083179615a",
      "assetIds": []
    },
    {
      "x": 88,
      "y": 396,
      "size": 1,
      "price": "1011000000000000000000",
      "reserved": "",
      "salt": "0x86e4df7a5f1514832fadaf2609f99df18de4d61a9dd541ddce1095147baa0c6e",
      "assetIds": []
    },
    {
      "x": 88,
      "y": 397,
      "size": 1,
      "price": "1011000000000000000000",
      "reserved": "",
      "salt": "0x95223741bf6b793ec8222c60fb72df0aef1d56d3ec62baed9dd62e69d279c62b",
      "assetIds": []
    },
    {
      "x": 88,
      "y": 398,
      "size": 1,
      "price": "1011000000000000000000",
      "reserved": "",
      "salt": "0x199bdfa13d1443e97ae64a2347bfd4a71b3849a92117006a540240bb775fd3f7",
      "assetIds": []
    },
    {
      "x": 88,
      "y": 399,
      "size": 1,
      "price": "1011000000000000000000",
      "reserved": "",
      "salt": "0x78bb65c182962db5d916a16320232f95e932d45cc897ba40832c4d0b22cca3ed",
      "assetIds": []
    },
    {
      "x": 88,
      "y": 400,
      "size": 1,
      "price": "1011000000000000000000",
      "reserved": "",
      "salt": "0xa7296876bced37525db9dd69ba00931da20f5e26abad539b1f453f2a8c34dea7",
      "assetIds": []
    },
    {
      "x": 88,
      "y": 401,
      "size": 1,
      "price": "1011000000000000000000",
      "reserved": "",
      "salt": "0xb378b7f9f370d1979be4b8b0a2e32262021bf7f76b9416a775e197b5d726573d",
      "assetIds": []
    },
    {
      "x": 88,
      "y": 402,
      "size": 1,
      "price": "4683000000000000000000",
      "reserved": "",
      "salt": "0xabe627d2bffcc067c3a3aa81a753b6a1de1156d057bdf18669fb2fd17232893e",
      "assetIds": [
        "41506478881403507969696680653240014914910929820314476107906210059990541021186"
      ]
    },
    {
      "x": 88,
      "y": 403,
      "size": 1,
      "price": "4683000000000000000000",
      "reserved": "",
      "salt": "0xa3be297b85fab360a810c196b50b8cd47337a6dd986b3b52f67d492913f17e0e",
      "assetIds": [
        "41506478881403507969696680653240014914910929820314476107906210059990541021186"
      ]
    },
    {
      "x": 88,
      "y": 404,
      "size": 1,
      "price": "4683000000000000000000",
      "reserved": "",
      "salt": "0xd4bbe6951df701aeeb05038cbdabeb53693009f4c4333c7447aca722dcaec6d4",
      "assetIds": [
        "41506478881403507969696680653240014914910929820314476107906210059990541021186"
      ]
    },
    {
      "x": 88,
      "y": 405,
      "size": 1,
      "price": "4683000000000000000000",
      "reserved": "",
      "salt": "0x8504be381382c902be5f9952961cece8ed1b11f750f619ab632ae5db97e09cfd",
      "assetIds": [
        "41506478881403507969696680653240014914910929820314476107906210059990541021186"
      ]
    },
    {
      "x": 88,
      "y": 406,
      "size": 1,
      "price": "1011000000000000000000",
      "reserved": "",
      "salt": "0x4a49964144c7cf55d1f5034a2e7bb66a92acaa5aa88816c7652eff213a064bfb",
      "assetIds": []
    },
    {
      "x": 88,
      "y": 407,
      "size": 1,
      "price": "1011000000000000000000",
      "reserved": "",
      "salt": "0xa5d114a097b1e43927dfa51035a031b66606a96091f7d001122439fa81e34b21",
      "assetIds": []
    },
    {
      "x": 89,
      "y": 354,
      "size": 1,
      "price": "1011000000000000000000",
      "reserved": "",
      "salt": "0xca5b88245b86fc8dd3c548765696eee25b3129ffbfa6040c82a0294b71ed2f5a",
      "assetIds": []
    },
    {
      "x": 89,
      "y": 355,
      "size": 1,
      "price": "1011000000000000000000",
      "reserved": "",
      "salt": "0xe8b3ae542a7d1a25b87a702f8815dcf75e9815ade6028c20a243f0d684328c12",
      "assetIds": []
    },
    {
      "x": 89,
      "y": 356,
      "size": 1,
      "price": "1011000000000000000000",
      "reserved": "",
      "salt": "0x5bcbe72644e024d216f73857a0a5e9b017bddc31ef66f3655bcb2ebd297efd1c",
      "assetIds": []
    },
    {
      "x": 89,
      "y": 357,
      "size": 1,
      "price": "1011000000000000000000",
      "reserved": "0x7a9fe22691c811ea339d9b73150e6911a5343dca",
      "salt": "0x822bd76d2eb5c409f354462543d0daf0ad3fe5a87466833da4735448aed36d87",
      "assetIds": []
    },
    {
      "x": 89,
      "y": 358,
      "size": 1,
      "price": "4683000000000000000000",
      "reserved": "",
      "salt": "0x0545fff9ee07a3b092118448b89575bc5588b6430ec4db563322268bf73dccb3",
      "assetIds": [
        "41506478881403507969696680653240014914910929820314476107906210059990541021186"
      ]
    },
    {
      "x": 89,
      "y": 359,
      "size": 1,
      "price": "4683000000000000000000",
      "reserved": "",
      "salt": "0xe61126bdfd2d4a824b38e5ecf84fef58282cba5cee3e13d9f4669601d00827a8",
      "assetIds": [
        "41506478881403507969696680653240014914910929820314476107906210059990541021186"
      ]
    },
    {
      "x": 89,
      "y": 384,
      "size": 1,
      "price": "4683000000000000000000",
      "reserved": "",
      "salt": "0x94e0e376d294ce9d4227b65f28f7445fead74f50056cc6210401e779220b7087",
      "assetIds": [
        "41506478881403507969696680653240014914910929820314476107906210059990541021186"
      ]
    },
    {
      "x": 89,
      "y": 385,
      "size": 1,
      "price": "4683000000000000000000",
      "reserved": "",
      "salt": "0x5cb49143e500d4942bce99beea8175a3997f067eb254c1a7ccd9bdf0cd5fe3f1",
      "assetIds": [
        "41506478881403507969696680653240014914910929820314476107906210059990541021186"
      ]
    },
    {
      "x": 89,
      "y": 386,
      "size": 1,
      "price": "4683000000000000000000",
      "reserved": "",
      "salt": "0xcc91d2af533f06e8d0511fab42b0c074e7af9415bd7055b3e66631eabd5ee2dc",
      "assetIds": [
        "41506478881403507969696680653240014914910929820314476107906210059990541021186"
      ]
    },
    {
      "x": 89,
      "y": 387,
      "size": 1,
      "price": "1011000000000000000000",
      "reserved": "",
      "salt": "0x862f1b773753c9c863ce490c6321320903b0e30c66f45f38127d48a452a48d56",
      "assetIds": []
    },
    {
      "x": 89,
      "y": 388,
      "size": 1,
      "price": "1011000000000000000000",
      "reserved": "",
      "salt": "0xbbf0d1e498435c09254b30f4e4e59e7bcfbe224f397fd409f73c224f5da553a9",
      "assetIds": []
    },
    {
      "x": 89,
      "y": 389,
      "size": 1,
      "price": "1011000000000000000000",
      "reserved": "",
      "salt": "0x58a002e4f774a36bd42d58b028515b6bd84f9f253dc054f757bdd9dd56fdc847",
      "assetIds": []
    },
    {
      "x": 89,
      "y": 390,
      "size": 1,
      "price": "1011000000000000000000",
      "reserved": "",
      "salt": "0xa7922f60b5f48fdeea34eb4087ccc9f6a2c8d00bc3c92608fb9d54dce73cab7d",
      "assetIds": []
    },
    {
      "x": 89,
      "y": 391,
      "size": 1,
      "price": "1011000000000000000000",
      "reserved": "",
      "salt": "0xe18eb9ab19fef69097ad6b42231bd79929b1951ca5183769da6787a7f4fee593",
      "assetIds": []
    },
    {
      "x": 89,
      "y": 392,
      "size": 1,
      "price": "1011000000000000000000",
      "reserved": "",
      "salt": "0x666d01701f45d87ef7bc032b09972c2871df82af79bcd242e2f193975585771c",
      "assetIds": []
    },
    {
      "x": 89,
      "y": 396,
      "size": 1,
      "price": "1011000000000000000000",
      "reserved": "",
      "salt": "0xc26bb4e37c22e5c6455c6f9bd32951e39bc8915a8e7b00934b1911b614561d8b",
      "assetIds": []
    },
    {
      "x": 89,
      "y": 397,
      "size": 1,
      "price": "1011000000000000000000",
      "reserved": "",
      "salt": "0x30f9bb53cbf559dfd6e417db496a34966a4c82272ebb1a1eaeea35b440e07ffe",
      "assetIds": []
    },
    {
      "x": 89,
      "y": 398,
      "size": 1,
      "price": "1011000000000000000000",
      "reserved": "",
      "salt": "0x9748ad6333bc7f5f1ed774d34f3dea324c1596f1a9e8bc5e39024e51ac266b30",
      "assetIds": []
    },
    {
      "x": 89,
      "y": 399,
      "size": 1,
      "price": "1011000000000000000000",
      "reserved": "",
      "salt": "0x7100b8687ecc4acd7f59d2f9aeb498458db3317ed2e7c77ba3d87308ef81b753",
      "assetIds": []
    },
    {
      "x": 89,
      "y": 400,
      "size": 1,
      "price": "1011000000000000000000",
      "reserved": "0x7a9fe22691c811ea339d9b73150e6911a5343dca",
      "salt": "0xc30a0cd8191d9baf14ecf7d146cff1fc43ca421e3d1b0c4f85f49b8961059692",
      "assetIds": []
    },
    {
      "x": 89,
      "y": 401,
      "size": 1,
      "price": "4683000000000000000000",
      "reserved": "",
      "salt": "0xc242adc483f9b11ab94367d6a4d406524bc37d1421aab7a1737066213c47cf7b",
      "assetIds": [
        "41506478881403507969696680653240014914910929820314476107906210059990541021186"
      ]
    },
    {
      "x": 89,
      "y": 402,
      "size": 1,
      "price": "4683000000000000000000",
      "reserved": "",
      "salt": "0x1de41237f577e216ab9ceae552769fe5de94c0fe5dbd07420a98f8b1d6a021af",
      "assetIds": [
        "41506478881403507969696680653240014914910929820314476107906210059990541021186"
      ]
    },
    {
      "x": 89,
      "y": 403,
      "size": 1,
      "price": "4683000000000000000000",
      "reserved": "",
      "salt": "0x1461f406e088e397100a9f6b28779eb0368d8aca70f6dec20d23493c172a9ac5",
      "assetIds": [
        "41506478881403507969696680653240014914910929820314476107906210059990541021186"
      ]
    },
    {
      "x": 89,
      "y": 404,
      "size": 1,
      "price": "4683000000000000000000",
      "reserved": "",
      "salt": "0x3ae684825b1a61526c5e2d470a2bd28c952528c73ec1c60cf1aeaf66922e30c2",
      "assetIds": [
        "41506478881403507969696680653240014914910929820314476107906210059990541021186"
      ]
    },
    {
      "x": 89,
      "y": 405,
      "size": 1,
      "price": "4683000000000000000000",
      "reserved": "",
      "salt": "0x24e17aa70dd31a0bd09b6e52f5d98988c548480d7acdfe147f84f04a6ae7bb6b",
      "assetIds": [
        "41506478881403507969696680653240014914910929820314476107906210059990541021186"
      ]
    },
    {
      "x": 89,
      "y": 406,
      "size": 1,
      "price": "1011000000000000000000",
      "reserved": "",
      "salt": "0x5c002c5aba8cf13c92ebd43cb3a6bb07d6583d527caeb020e515d26bf63e0901",
      "assetIds": []
    },
    {
      "x": 89,
      "y": 407,
      "size": 1,
      "price": "1011000000000000000000",
      "reserved": "",
      "salt": "0x004a2dab1df29d2812cc1f978c4719d14ea6f94d50aebb8be292348e8323a20e",
      "assetIds": []
    },
    {
      "x": 90,
      "y": 396,
      "size": 1,
      "price": "1011000000000000000000",
      "reserved": "",
      "salt": "0x9f9f3edf6f021d71dd47fcea337590ee763c90a0f8be830acfd8bc1654e55576",
      "assetIds": []
    },
    {
      "x": 90,
      "y": 397,
      "size": 1,
      "price": "1011000000000000000000",
      "reserved": "",
      "salt": "0xb2bd9b40b7f5fe02d78edaf941a710dee708b4f0b5d992eca20e0e39c632bee0",
      "assetIds": []
    },
    {
      "x": 90,
      "y": 398,
      "size": 1,
      "price": "1011000000000000000000",
      "reserved": "",
      "salt": "0x176fb3c6e99c1e5fab04d23bd9b044fe3bd6c4a34715c31b34f3bd0990b41baf",
      "assetIds": []
    },
    {
      "x": 90,
      "y": 399,
      "size": 1,
      "price": "4683000000000000000000",
      "reserved": "",
      "salt": "0xf7e7f83adf93666c2c19eb4ebb6cde82faeb9f2f00ad9a6ac2d9b8b2ae412dc3",
      "assetIds": [
        "41506478881403507969696680653240014914910929820314476107906210059990541021186"
      ]
    },
    {
      "x": 90,
      "y": 400,
      "size": 1,
      "price": "4683000000000000000000",
      "reserved": "",
      "salt": "0x1b33c25fa0e4582def504ef798ce7a4d7191b5e5f248d5efcd4364f63b48cab8",
      "assetIds": [
        "41506478881403507969696680653240014914910929820314476107906210059990541021186"
      ]
    },
    {
      "x": 90,
      "y": 401,
      "size": 1,
      "price": "4683000000000000000000",
      "reserved": "",
      "salt": "0x5083293ee89ac8767bd8a4b6547e78034566c4fb74d03767bde1e0d028978cf9",
      "assetIds": [
        "41506478881403507969696680653240014914910929820314476107906210059990541021186"
      ]
    },
    {
      "x": 90,
      "y": 405,
      "size": 1,
      "price": "4683000000000000000000",
      "reserved": "",
      "salt": "0x59111d2c38314fc1c4cb1af213f9c0dedb8e07872ebd6b34d549f7230d75a903",
      "assetIds": [
        "41506478881403507969696680653240014914910929820314476107906210059990541021186"
      ]
    },
    {
      "x": 90,
      "y": 406,
      "size": 1,
      "price": "4683000000000000000000",
      "reserved": "",
      "salt": "0x19c44f2646a1a1e576a237901331f734f7bf5f80286edb110cd8e04a0a3cabc6",
      "assetIds": [
        "41506478881403507969696680653240014914910929820314476107906210059990541021186"
      ]
    },
    {
      "x": 90,
      "y": 407,
      "size": 1,
      "price": "1011000000000000000000",
      "reserved": "",
      "salt": "0xc660e3dd988a1d069bbc47f21c68cd22a857810e0f256f49239d12f48ee4f0ab",
      "assetIds": []
    },
    {
      "x": 91,
      "y": 396,
      "size": 1,
      "price": "1011000000000000000000",
      "reserved": "",
      "salt": "0x9c614c9b76d625682ee088b33cc15badf44e50c0f6592f79686f4f76323cd319",
      "assetIds": []
    },
    {
      "x": 91,
      "y": 397,
      "size": 1,
      "price": "1011000000000000000000",
      "reserved": "",
      "salt": "0xd7a1c35041361febd18f7cb9f8bccad8abf418119e473ca66139eda100a43510",
      "assetIds": []
    },
    {
      "x": 91,
      "y": 398,
      "size": 1,
      "price": "1011000000000000000000",
      "reserved": "",
      "salt": "0x8b6c364e2d32554837cc3ba927eb703d2d6a694a98c180f63d4a83205d671dd2",
      "assetIds": []
    },
    {
      "x": 91,
      "y": 399,
      "size": 1,
      "price": "4683000000000000000000",
      "reserved": "",
      "salt": "0x9c5c210301a3bd616b38d4959d9d55fb27f14e2a0077c4d589bc32fc2e453698",
      "assetIds": [
        "41506478881403507969696680653240014914910929820314476107906210059990541021186"
      ]
    },
    {
      "x": 91,
      "y": 400,
      "size": 1,
      "price": "4683000000000000000000",
      "reserved": "",
      "salt": "0x867db7b415d9b65f95511c30ed1e1576c9dcaa0b69bcb8afcfe8b1f23439a49a",
      "assetIds": [
        "41506478881403507969696680653240014914910929820314476107906210059990541021186"
      ]
    },
    {
      "x": 91,
      "y": 401,
      "size": 1,
      "price": "4683000000000000000000",
      "reserved": "",
      "salt": "0x112473240694c0ad194651e8f65b66bf150245aa6b340aea9c08f690f906b4b6",
      "assetIds": [
        "41506478881403507969696680653240014914910929820314476107906210059990541021186"
      ]
    },
    {
      "x": 91,
      "y": 405,
      "size": 1,
      "price": "4683000000000000000000",
      "reserved": "",
      "salt": "0x01484fe023ca27c8d17f4bf9105a7871b299d3d542be4573ad69dcd606658e0d",
      "assetIds": [
        "41506478881403507969696680653240014914910929820314476107906210059990541021186"
      ]
    },
    {
      "x": 91,
      "y": 406,
      "size": 1,
      "price": "4683000000000000000000",
      "reserved": "",
      "salt": "0xa126e92c39fa66a17f97a5d09a144224feb3f24e6eee9b006922f2c043a4424d",
      "assetIds": [
        "41506478881403507969696680653240014914910929820314476107906210059990541021186"
      ]
    },
    {
      "x": 91,
      "y": 407,
      "size": 1,
      "price": "1011000000000000000000",
      "reserved": "",
      "salt": "0x156cf1a918c137fe9bf3562f98c59cea5e31206cc655637e96051bcd55f9f826",
      "assetIds": []
    },
    {
      "x": 92,
      "y": 396,
      "size": 1,
      "price": "1011000000000000000000",
      "reserved": "",
      "salt": "0x5361d811740d696553720c461d866463887fe0dcb198cc66319a080b8cfe2d1f",
      "assetIds": []
    },
    {
      "x": 92,
      "y": 397,
      "size": 1,
      "price": "1011000000000000000000",
      "reserved": "",
      "salt": "0x23c016f9938447f9dc11a02bb09f06c5dcd5dcb1663063632b37db7c5754a8f4",
      "assetIds": []
    },
    {
      "x": 92,
      "y": 398,
      "size": 1,
      "price": "1011000000000000000000",
      "reserved": "",
      "salt": "0xd1f3a9117b5094d0096bcc0d447f89866b545f33fc9b9b22c073f627fa9e7b3f",
      "assetIds": []
    },
    {
      "x": 92,
      "y": 399,
      "size": 1,
      "price": "1011000000000000000000",
      "reserved": "",
      "salt": "0x578278c9b76e4fd58911364d8ca0d5064b24d43bd94164b7b873719cc6ac4fca",
      "assetIds": []
    },
    {
      "x": 92,
      "y": 400,
      "size": 1,
      "price": "4683000000000000000000",
      "reserved": "",
      "salt": "0x7d21971b68180b8054726c761d8bda94c00ae17ea1fbe46a2ebca18aa6522262",
      "assetIds": [
        "41506478881403507969696680653240014914910929820314476107906210059990541021186"
      ]
    },
    {
      "x": 92,
      "y": 401,
      "size": 1,
      "price": "4683000000000000000000",
      "reserved": "",
      "salt": "0x293b54daa0bd042af13871f9b07fef2d0ad05c1de928de836331065d45bec64c",
      "assetIds": [
        "41506478881403507969696680653240014914910929820314476107906210059990541021186"
      ]
    },
    {
      "x": 92,
      "y": 405,
      "size": 1,
      "price": "4683000000000000000000",
      "reserved": "",
      "salt": "0x0cc7760d12916904f57b29a5ef3076dd18fb1ff9a366ad01f0b46206a0cb4ca9",
      "assetIds": [
        "41506478881403507969696680653240014914910929820314476107906210059990541021186"
      ]
    },
    {
      "x": 92,
      "y": 406,
      "size": 1,
      "price": "4683000000000000000000",
      "reserved": "",
      "salt": "0xb41aaa83c38c0e1361a69d5186219d7dc751beffc7c234c1b3add60f654485c6",
      "assetIds": [
        "41506478881403507969696680653240014914910929820314476107906210059990541021186"
      ]
    },
    {
      "x": 92,
      "y": 407,
      "size": 1,
      "price": "1011000000000000000000",
      "reserved": "",
      "salt": "0x25363dd51d89b7023c18930c84e4b6948aefed9087edd16677514d3eb23fad10",
      "assetIds": []
    },
    {
      "x": 93,
      "y": 396,
      "size": 1,
      "price": "1011000000000000000000",
      "reserved": "",
      "salt": "0xa01543206f39f4de3283a623f74baefd2f70bcfa5f1b98fe39e5464d5af8a60e",
      "assetIds": []
    },
    {
      "x": 93,
      "y": 397,
      "size": 1,
      "price": "1011000000000000000000",
      "reserved": "",
      "salt": "0xf887540923567a7edfba6436c777a6141b193a3dc024899b668fe86550a5eef1",
      "assetIds": []
    },
    {
      "x": 93,
      "y": 398,
      "size": 1,
      "price": "1011000000000000000000",
      "reserved": "",
      "salt": "0x9836b3088070be66c0d82903fb27ddfd1f0c660a9953c22cbf833279a415cd92",
      "assetIds": []
    },
    {
      "x": 93,
      "y": 399,
      "size": 1,
      "price": "1011000000000000000000",
      "reserved": "",
      "salt": "0x318015b196436894710057edc17ffda6f79cb253f983554a15e02a5bf4acfe3d",
      "assetIds": []
    },
    {
      "x": 93,
      "y": 400,
      "size": 1,
      "price": "1011000000000000000000",
      "reserved": "0x7a9fe22691c811ea339d9b73150e6911a5343dca",
      "salt": "0xf920f2ecda6d26c1914f03a80a53661eaed201e26646ca82937462114bde6442",
      "assetIds": []
    },
    {
      "x": 93,
      "y": 401,
      "size": 1,
      "price": "4683000000000000000000",
      "reserved": "",
      "salt": "0x78bf3138023fb86c1a3affbdd6db934eb43ab4a2d74ea8e44f81392ce29f9e66",
      "assetIds": [
        "41506478881403507969696680653240014914910929820314476107906210059990541021186"
      ]
    },
    {
      "x": 93,
      "y": 402,
      "size": 1,
      "price": "4683000000000000000000",
      "reserved": "",
      "salt": "0x5a5b6e2643e4506de11e30e0cb50b41c3d724d59bf33e572dca24412568248bd",
      "assetIds": [
        "41506478881403507969696680653240014914910929820314476107906210059990541021186"
      ]
    },
    {
      "x": 93,
      "y": 403,
      "size": 1,
      "price": "4683000000000000000000",
      "reserved": "",
      "salt": "0xf8b3820f677d94604556fc444ca623d42da29092dd06b6657354200b9ff0eea7",
      "assetIds": [
        "41506478881403507969696680653240014914910929820314476107906210059990541021186"
      ]
    },
    {
      "x": 93,
      "y": 404,
      "size": 1,
      "price": "4683000000000000000000",
      "reserved": "",
      "salt": "0x146b151ceec028c2a5f71e89c0b9e776851768e76ec3f3b357a577e1ac3d7e0f",
      "assetIds": [
        "41506478881403507969696680653240014914910929820314476107906210059990541021186"
      ]
    },
    {
      "x": 93,
      "y": 405,
      "size": 1,
      "price": "4683000000000000000000",
      "reserved": "",
      "salt": "0x046eb4f859a87ee0ab13f0896b82289d6e5a792edd7d22bbcdb771f54c1d623f",
      "assetIds": [
        "41506478881403507969696680653240014914910929820314476107906210059990541021186"
      ]
    },
    {
      "x": 93,
      "y": 406,
      "size": 1,
      "price": "1011000000000000000000",
      "reserved": "0x7a9fe22691c811ea339d9b73150e6911a5343dca",
      "salt": "0xea6bb2f441c4e4777433cdcbbccf151ba6ee519386beef74b27be3c251149a59",
      "assetIds": []
    },
    {
      "x": 93,
      "y": 407,
      "size": 1,
      "price": "1011000000000000000000",
      "reserved": "",
      "salt": "0x4c560c407c2abcf1001e982f41c7958bcc418f265db2a7e07b42eb0c4321d359",
      "assetIds": []
    },
    {
      "x": 94,
      "y": 396,
      "size": 1,
      "price": "1011000000000000000000",
      "reserved": "",
      "salt": "0x45edaf2efa98e9b24e3c947135975df32adcf147316ae77cd697cc38597a5526",
      "assetIds": []
    },
    {
      "x": 94,
      "y": 397,
      "size": 1,
      "price": "1011000000000000000000",
      "reserved": "",
      "salt": "0x5b5ac667dfc2afd6b9c4387b0625fd0cda7eb81242f66accf64fd9d39e1e9397",
      "assetIds": []
    },
    {
      "x": 94,
      "y": 398,
      "size": 1,
      "price": "1011000000000000000000",
      "reserved": "",
      "salt": "0xa7fd561686be21f53f7ecaf9c3feefa31bdbcfebedc897220ac8cfa313d56569",
      "assetIds": []
    },
    {
      "x": 94,
      "y": 399,
      "size": 1,
      "price": "1011000000000000000000",
      "reserved": "",
      "salt": "0xd26cdc8c02adff32a857de528d6b47e4ef0fe71e045eeea0109114b36fec19cd",
      "assetIds": []
    },
    {
      "x": 94,
      "y": 400,
      "size": 1,
      "price": "1011000000000000000000",
      "reserved": "",
      "salt": "0x3c55bfed86f4849a6deba11eb5de5beff894535c2290b5931fa3231818201f6f",
      "assetIds": []
    },
    {
      "x": 94,
      "y": 401,
      "size": 1,
      "price": "4683000000000000000000",
      "reserved": "",
      "salt": "0x175f135c5c1c93dccd942cb2812f8b97d58badabc4936228c65f02032fe9b0c1",
      "assetIds": [
        "41506478881403507969696680653240014914910929820314476107906210059990541021186"
      ]
    },
    {
      "x": 94,
      "y": 402,
      "size": 1,
      "price": "4683000000000000000000",
      "reserved": "",
      "salt": "0xcc9e415de8cd24490fa60f9621ed6fdcfc9d7e3211174e0076ed61f8c2194cab",
      "assetIds": [
        "41506478881403507969696680653240014914910929820314476107906210059990541021186"
      ]
    },
    {
      "x": 94,
      "y": 403,
      "size": 1,
      "price": "4683000000000000000000",
      "reserved": "",
      "salt": "0x7a187439ee2608d5a26c8cb3b1ff15e64e563b41ba655836803fb2e58a30f9e7",
      "assetIds": [
        "41506478881403507969696680653240014914910929820314476107906210059990541021186"
      ]
    },
    {
      "x": 94,
      "y": 404,
      "size": 1,
      "price": "4683000000000000000000",
      "reserved": "",
      "salt": "0x82c53cab5ca9b1d4b45b83be4faf382b7329dceb1710f7495d8048e7bb915152",
      "assetIds": [
        "41506478881403507969696680653240014914910929820314476107906210059990541021186"
      ]
    },
    {
      "x": 94,
      "y": 405,
      "size": 1,
      "price": "1011000000000000000000",
      "reserved": "",
      "salt": "0xe9ab850c84f4f4fd3b606466b6e087ebe9e1cafd3b2b6099bdd3effec0ffebb5",
      "assetIds": []
    },
    {
      "x": 94,
      "y": 406,
      "size": 1,
      "price": "1011000000000000000000",
      "reserved": "",
      "salt": "0x6d492c8a66121f30d4c469a27cb0b7d6724506d4307821d4792f275d953bc460",
      "assetIds": []
    },
    {
      "x": 94,
      "y": 407,
      "size": 1,
      "price": "1011000000000000000000",
      "reserved": "",
      "salt": "0x28c1964a7caacedfa94df5642d132a93806ad6170e487e5f4d219c9e39aa5b1c",
      "assetIds": []
    },
    {
      "x": 95,
      "y": 396,
      "size": 1,
      "price": "1011000000000000000000",
      "reserved": "",
      "salt": "0xc800b013038d0e19e21e840879d54e1aa5c00789bebcd91cf96b66b25a5baf85",
      "assetIds": []
    },
    {
      "x": 95,
      "y": 397,
      "size": 1,
      "price": "1011000000000000000000",
      "reserved": "",
      "salt": "0x44172c527c5930fc32d7f7066d3fc2fb60fd7408aef290f683564d7b5266150b",
      "assetIds": []
    },
    {
      "x": 95,
      "y": 398,
      "size": 1,
      "price": "1011000000000000000000",
      "reserved": "",
      "salt": "0x454b19e1eee7d525e6b56ccc31b4dc5f86301d0e74a3f198d43fba0ac6baeb4f",
      "assetIds": []
    },
    {
      "x": 95,
      "y": 399,
      "size": 1,
      "price": "1011000000000000000000",
      "reserved": "",
      "salt": "0x51a6f6f42cb1000dab50c3842fce4be34f8785000ed57d1c966f677952166b71",
      "assetIds": []
    },
    {
      "x": 95,
      "y": 400,
      "size": 1,
      "price": "1011000000000000000000",
      "reserved": "",
      "salt": "0x524843cd540d8c75e4695b2622308d951f352cf735f542dc9fcbad504ca82c80",
      "assetIds": []
    },
    {
      "x": 95,
      "y": 401,
      "size": 1,
      "price": "1011000000000000000000",
      "reserved": "",
      "salt": "0xba03d1539dca4c1956d089279a01fa9e691eae8f7988681ac4c9d7f4c725e0e3",
      "assetIds": []
    },
    {
      "x": 95,
      "y": 402,
      "size": 1,
      "price": "4683000000000000000000",
      "reserved": "",
      "salt": "0x71f68f2d7f8c62e38d200ff52f841a5f915263819d070163dd87577f7c249fde",
      "assetIds": [
        "41506478881403507969696680653240014914910929820314476107906210059990541021186"
      ]
    },
    {
      "x": 95,
      "y": 403,
      "size": 1,
      "price": "4683000000000000000000",
      "reserved": "",
      "salt": "0x5e3d28421f66b37ad95805458212ef5195a58382cee7298d4904902498cc170e",
      "assetIds": [
        "41506478881403507969696680653240014914910929820314476107906210059990541021186"
      ]
    },
    {
      "x": 95,
      "y": 404,
      "size": 1,
      "price": "1011000000000000000000",
      "reserved": "",
      "salt": "0xb135957536ca0bacc00f0e7ca1e3c0f31dfa2a0f89fd4137fdfe926ad7a8934d",
      "assetIds": []
    },
    {
      "x": 95,
      "y": 405,
      "size": 1,
      "price": "1011000000000000000000",
      "reserved": "",
      "salt": "0xcd88759201dfed9a828fa4aebe23af22eb898b4f935795df420560fb351e6576",
      "assetIds": []
    },
    {
      "x": 95,
      "y": 406,
      "size": 1,
      "price": "1011000000000000000000",
      "reserved": "",
      "salt": "0x73e2cd6c41ec9f3d9b2b19c3d0c1c7f5c0845c93050e6125491b71fae6975d60",
      "assetIds": []
    },
    {
      "x": 95,
      "y": 407,
      "size": 1,
      "price": "1011000000000000000000",
      "reserved": "",
      "salt": "0xf628b4f155de784ad9fc57fdffabe264df1e489ff1a80072267bf7882c53ff03",
      "assetIds": []
    },
    {
      "x": 48,
      "y": 381,
      "size": 3,
      "price": "8648000000000000000000",
      "reserved": "0x7a9fe22691c811ea339d9b73150e6911a5343dca",
      "salt": "0x6775b3169e87da3b6377194d7d1e265ee6cc722301bf0fb5afd63fe1e84e6315",
      "assetIds": []
    },
    {
      "x": 51,
      "y": 375,
      "size": 3,
      "price": "8648000000000000000000",
      "reserved": "0x7a9fe22691c811ea339d9b73150e6911a5343dca",
      "salt": "0xb8662aa0f6166001602a943cdfad7f3bdf92b3f3470e03c4780d2ea59baa5fcc",
      "assetIds": []
    },
    {
      "x": 57,
      "y": 378,
      "size": 3,
      "price": "8648000000000000000000",
      "reserved": "",
      "salt": "0xc7d932cfbf8db9405e9a1a2bd6668de0ab28fe45925a0af1ed24b794db1bb655",
      "assetIds": []
    },
    {
      "x": 60,
      "y": 363,
      "size": 3,
      "price": "8648000000000000000000",
      "reserved": "",
      "salt": "0x9e007f6c912b46001551756c0b094ed580c69182a88eaa6c29ccdde9e08922f3",
      "assetIds": []
    },
    {
      "x": 63,
      "y": 360,
      "size": 3,
      "price": "8648000000000000000000",
      "reserved": "0x7a9fe22691c811ea339d9b73150e6911a5343dca",
      "salt": "0x1284afa200e7b490c75f6b1b12b53db7773f8ed34c9f52911dd04d94bd77296e",
      "assetIds": []
    },
    {
      "x": 63,
      "y": 366,
      "size": 3,
      "price": "8648000000000000000000",
      "reserved": "0xdeaddeaddeaddeaddeaddeaddeaddeaddeaddead",
      "salt": "0xb507c9049449dfa0e3c9e5547fe313f5ad620f46ab5ca5deac0287dbbe3fd247",
      "assetIds": []
    },
    {
      "x": 66,
      "y": 405,
      "size": 3,
      "price": "8648000000000000000000",
      "reserved": "",
      "salt": "0x34963656978ae312e328f4aa19397109f5373eea8ab613d0610d7c71d534f757",
      "assetIds": []
    },
    {
      "x": 75,
      "y": 393,
      "size": 3,
      "price": "8648000000000000000000",
      "reserved": "",
      "salt": "0x54836c81540c11f5aa0b358cd2a9417865af6a0d068f4aec0bbdc79f61faafa9",
      "assetIds": []
    },
    {
      "x": 81,
      "y": 396,
      "size": 3,
      "price": "8648000000000000000000",
      "reserved": "0xdeaddeaddeaddeaddeaddeaddeaddeaddeaddead",
      "salt": "0x7a3bef22d7f0903d46459662ed4b0edf645ec36280fd9c881b2d56b3f54ff6bd",
      "assetIds": []
    },
    {
      "x": 87,
      "y": 393,
      "size": 3,
      "price": "8648000000000000000000",
      "reserved": "",
      "salt": "0xc307e0aa3b18f0fd4d55f9c48bee9cfc7d876fe9058c7a167d6267f2a34d0ed3",
      "assetIds": []
    },
    {
      "x": 90,
      "y": 402,
      "size": 3,
      "price": "8648000000000000000000",
      "reserved": "0xdeaddeaddeaddeaddeaddeaddeaddeaddeaddead",
      "salt": "0x58830a66c7f44865b36a1cd697251fb7bac5a122c35a3e85606a4f3062f80b91",
      "assetIds": []
    },
    {
      "x": 60,
      "y": 378,
      "size": 6,
      "price": "32772000000000000000000",
      "reserved": "0xdeaddeaddeaddeaddeaddeaddeaddeaddeaddead",
      "salt": "0x963b22dfad10da8a516eaeb45153bbb3945c53da25e528800a970d3b3735c28b",
      "assetIds": []
    },
    {
      "x": 60,
      "y": 390,
      "size": 6,
      "price": "32772000000000000000000",
      "reserved": "",
      "salt": "0x2d1470f27d21120cf0c95faf667c2945035b60cc46a2631c46fed817f7a8421f",
      "assetIds": []
    },
    {
      "x": 66,
      "y": 396,
      "size": 6,
      "price": "32772000000000000000000",
      "reserved": "0xdeaddeaddeaddeaddeaddeaddeaddeaddeaddead",
      "salt": "0x4c68e120e53e8b859625d27aebe5a2eccf6790aba07d4a49870a341f38ce5089",
      "assetIds": []
    },
    {
      "x": 72,
      "y": 396,
      "size": 6,
      "price": "32772000000000000000000",
      "reserved": "",
      "salt": "0xf86ebb2e5e260bdd9428e311e68bdd4fc5cc4d2423a52ab70f8f2ff115d652f8",
      "assetIds": []
    },
    {
      "x": 90,
      "y": 384,
      "size": 6,
      "price": "32772000000000000000000",
      "reserved": "",
      "salt": "0x83dfc988d81c7bad299134ef7a67c6594e5bf36313ae998a07445e0af2883bf0",
      "assetIds": []
    },
    {
      "x": 90,
      "y": 390,
      "size": 6,
      "price": "32772000000000000000000",
      "reserved": "0x7a9fe22691c811ea339d9b73150e6911a5343dca",
      "salt": "0xfebb48193fc1f875b33f3656b3704c9e63f9feafc1a42e19c6f55df56f6d2d2f",
      "assetIds": []
    },
    {
      "x": 48,
      "y": 384,
      "size": 12,
      "price": "123806000000000000000000",
      "reserved": "0x7a9fe22691c811ea339d9b73150e6911a5343dca",
      "salt": "0x7e9e2757270efd2c3b3d565b0550a6cf8cd50828513797a465800a10e50e82c7",
      "assetIds": []
    },
    {
      "x": 48,
      "y": 396,
      "size": 12,
      "price": "123806000000000000000000",
      "reserved": "",
      "salt": "0x758d5b0940e80bb2e04e64aef150cd3698b43920cc5d7209d65f33dc407a2c79",
      "assetIds": []
    },
    {
      "x": 72,
      "y": 360,
      "size": 24,
      "price": "466102000000000000000000",
      "reserved": "0xdeaddeaddeaddeaddeaddeaddeaddeaddeaddead",
      "salt": "0x6e069721febb4596201d88ee78791ace315a38adfd284d2b5e84832b1283ef93",
      "assetIds": []
    }
  ],
  "solcInputHash": "313f455adab9ae93096e43acc50d7d38",
  "bytecode": "0x610160604052620d2f006005556103e860075534801561001e57600080fd5b5060405161242e38038061242e833981810160405261018081101561004257600080fd5b50805160208201516040830151606080850151608086015160a08088015160c0808a015160e08b01516101008c01516101208d01516101408e0151610160909e0151600280546001600160a01b0319166001600160a01b03861617905560038390558d8b1b6001600160601b0319908116909852998c901b909616909352999a9899979895979496929590949391926100dc8a600161014a565b600680546001600160a01b03199081166001600160a01b039a8b1617909155610140979097526101209590955260008054909616979096169690961790935550606093841b6001600160601b031990811660e05292841b831660805290921b1661010052506101ae92505050565b6001600160a01b038216600081815260016020908152604091829020805460ff191685151590811790915582519384529083015280517fb21eb88b4e33b3f1281830a7178d74d8aa73220416215726b68ae23d539515cb9281900390910190a15050565b60805160601c60a05160601c60c05160601c60e05160601c6101005160601c61012051610140516121fb610233600039806109375280611d44525080610913528061139a525080611da45250806115d252806116f4525080610c50528061159c5280611dd852508061166152806116c5525080610dfa528061190852506121fb6000f3fe608060405234801561001057600080fd5b50600436106101515760003560e01c8063984d6252116100cd578063dc5074af11610081578063ecb255b511610066578063ecb255b514610857578063f23a6e6114610874578063f2e7b3811461090957610151565b8063dc5074af14610814578063e56f8a9e1461083a57610151565b8063bc197c81116100b2578063bc197c81146105d3578063c10a420814610735578063caed35001461080c57610151565b8063984d6252146104db578063b522ecff146105ad57610151565b80636e9960c3116101245780638a04af6a116101095780638a04af6a1461032a5780638a12b82f146103585780638f283970146104b557610151565b80636e9960c3146102fe57806377f1c3ac1461032257610151565b806325cb5bc014610156578063495906571461017057806358bc29441461017857806365194ce7146101a0575b600080fd5b61015e610911565b60408051918252519081900360200190f35b61015e610935565b61019e6004803603602081101561018e57600080fd5b50356001600160a01b0316610959565b005b610246600480360360208110156101b657600080fd5b8101906020810181356401000000008111156101d157600080fd5b8201836020820111156101e357600080fd5b8035906020019184600183028401116401000000008311171561020557600080fd5b91908080601f016020809104026020016040519081016040528093929190818152602001838380828437600092019190915250929550610a04945050505050565b6040518080602001866001600160a01b03166001600160a01b03168152602001856001600160a01b03166001600160a01b03168152602001848152602001838152602001828103825287818151815260200191508051906020019080838360005b838110156102bf5781810151838201526020016102a7565b50505050905090810190601f1680156102ec5780820380516001836020036101000a031916815260200191505b50965050505050505060405180910390f35b610306610b09565b604080516001600160a01b039092168252519081900360200190f35b61015e610b18565b61019e6004803603604081101561034057600080fd5b506001600160a01b0381351690602001351515610b1e565b61019e600480360361018081101561036f57600080fd5b6001600160a01b038235811692602081013582169260408201359092169160608201359160808101359160a08201359160c08101359160e0820135916101008101359181019061014081016101208201356401000000008111156103d257600080fd5b8201836020820111156103e457600080fd5b8035906020019184602083028401116401000000008311171561040657600080fd5b91939092909160208101903564010000000081111561042457600080fd5b82018360208201111561043657600080fd5b8035906020019184602083028401116401000000008311171561045857600080fd5b91939092909160208101903564010000000081111561047657600080fd5b82018360208201111561048857600080fd5b803590602001918460018302840111640100000000831117156104aa57600080fd5b509092509050610b75565b61019e600480360360208110156104cb57600080fd5b50356001600160a01b0316610cc3565b61019e600480360360608110156104f157600080fd5b6001600160a01b03823516919081019060408101602082013564010000000081111561051c57600080fd5b82018360208201111561052e57600080fd5b8035906020019184602083028401116401000000008311171561055057600080fd5b91939092909160208101903564010000000081111561056e57600080fd5b82018360208201111561058057600080fd5b803590602001918460208302840111640100000000831117156105a257600080fd5b509092509050610d99565b61019e600480360360208110156105c357600080fd5b50356001600160a01b0316610f24565b610700600480360360a08110156105e957600080fd5b6001600160a01b03823581169260208101359091169181019060608101604082013564010000000081111561061d57600080fd5b82018360208201111561062f57600080fd5b8035906020019184602083028401116401000000008311171561065157600080fd5b91939092909160208101903564010000000081111561066f57600080fd5b82018360208201111561068157600080fd5b803590602001918460208302840111640100000000831117156106a357600080fd5b9193909290916020810190356401000000008111156106c157600080fd5b8201836020820111156106d357600080fd5b803590602001918460018302840111640100000000831117156106f557600080fd5b50909250905061100d565b604080517fffffffff000000000000000000000000000000000000000000000000000000009092168252519081900360200190f35b6107f8600480360360a081101561074b57600080fd5b81019060208101813564010000000081111561076657600080fd5b82018360208201111561077857600080fd5b8035906020019184600183028401116401000000008311171561079a57600080fd5b91908080601f016020809104026020016040519081016040528093929190818152602001838380828437600092019190915250929550506001600160a01b03833581169450602084013516926040810135925060600135905061103a565b604080519115158252519081900360200190f35b610306611176565b6107f86004803603602081101561082a57600080fd5b50356001600160a01b0316611185565b61019e6004803603602081101561085057600080fd5b50356111a3565b61019e6004803603602081101561086d57600080fd5b5035611207565b610700600480360360a081101561088a57600080fd5b6001600160a01b03823581169260208101359091169160408201359160608101359181019060a0810160808201356401000000008111156108ca57600080fd5b8201836020820111156108dc57600080fd5b803590602001918460018302840111640100000000831117156108fe57600080fd5b50909250905061126b565b61015e611296565b7f000000000000000000000000000000000000000000000000000000000000000090565b7f000000000000000000000000000000000000000000000000000000000000000090565b6000546001600160a01b031633146109b8576040805162461bcd60e51b815260206004820152601060248201527f53656e646572206e6f742061646d696e00000000000000000000000000000000604482015290519081900360640190fd5b600554600280546001600160a01b03908116600090815260046020526040902042909301909255805473ffffffffffffffffffffffffffffffffffffffff191692909116919091179055565b606060008060008060606000806000808a80602001905160a0811015610a2957600080fd5b8101908080516040519392919084640100000000821115610a4957600080fd5b908301906020820185811115610a5e57600080fd5b8251640100000000811182820188101715610a7857600080fd5b82525081516020918201929091019080838360005b83811015610aa5578181015183820152602001610a8d565b50505050905090810190601f168015610ad25780820380516001836020036101000a031916815260200191505b5060409081526020820151908201516060830151608090930151959f50909d509b5099509197505050505050505091939590929450565b6000546001600160a01b031690565b60035490565b6000546001600160a01b03163314610b675760405162461bcd60e51b815260040180806020018281038252602e815260200180612198602e913960400191505060405180910390fd5b610b71828261129c565b5050565b610b7f898961131e565b610c048f8e8e8e8e8e8d8d8d80806020026020016040519081016040528093929190818152602001838360200280828437600081840152601f19601f820116905080830192505050505050508c8c8080602002602001604051908101604052809392919081815260200183836020028082843760009201919091525061139892505050565b610c458f8984848080601f01602080910402602001604051908101604052809392919081815260200183838082843760009201919091525061157592505050565b610c758f8f8e8e8e8d7f00000000000000000000000000000000000000000000000000000000000000008f6115c6565b610cb28e87878080602002602001604051908101604052809392919081815260200183836020028082843760009201919091525061189192505050565b505050505050505050505050505050565b6000546001600160a01b03163314610d22576040805162461bcd60e51b815260206004820152601b60248201527f6f6e6c792061646d696e2063616e206368616e67652061646d696e0000000000604482015290519081900360640190fd5b600054604080516001600160a01b039283168152918316602083015280517f7e644d79422f17c01e4894b5f4f588d331ebfa28653d42ae832dc59e38c9798f9281900390910190a16000805473ffffffffffffffffffffffffffffffffffffffff19166001600160a01b0392909216919091179055565b6000546001600160a01b03163314610df8576040805162461bcd60e51b815260206004820152600e60248201527f4e4f545f415554484f52495a4544000000000000000000000000000000000000604482015290519081900360640190fd5b7f00000000000000000000000000000000000000000000000000000000000000006001600160a01b0316632eb2c2d63087878787876040518763ffffffff1660e01b815260040180876001600160a01b03166001600160a01b03168152602001866001600160a01b03166001600160a01b031681526020018060200180602001806020018481038452888882818152602001925060200280828437600083820152601f01601f19169091018581038452868152602090810191508790870280828437600081840152601f19601f8201169050808301925050508481038252600081526020016020019950505050505050505050600060405180830381600087803b158015610f0557600080fd5b505af1158015610f19573d6000803e3d6000fd5b505050505050505050565b6001600160a01b038116610f7f576040805162461bcd60e51b815260206004820152600c60248201527f5a45524f5f414444524553530000000000000000000000000000000000000000604482015290519081900360640190fd5b6000546001600160a01b03163314610fde576040805162461bcd60e51b815260206004820152600e60248201527f4e4f545f415554484f52495a4544000000000000000000000000000000000000604482015290519081900360640190fd5b6006805473ffffffffffffffffffffffffffffffffffffffff19166001600160a01b0392909216919091179055565b7fbc197c810000000000000000000000000000000000000000000000000000000098975050505050505050565b600060035482118061105d5750836001600160a01b0316856001600160a01b0316145b8061106757508242115b156110745750600061116d565b60408051606087811b7fffffffffffffffffffffffffffffffffffffffff0000000000000000000000009081166020808501919091529188901b166034830152604882018690526068808301869052835180840390910181526088830184528051908201207f19457468657265756d205369676e6564204d6573736167653a0a33320000000060a884015260c48084018290528451808503909101815260e4909301909352815191012060009061112b9089611a55565b6001600160a01b03811660009081526004602052604090205490915042116111585760019250505061116d565b6002546001600160a01b039081169116149150505b95945050505050565b6002546001600160a01b031690565b6001600160a01b031660009081526001602052604090205460ff1690565b6000546001600160a01b03163314611202576040805162461bcd60e51b815260206004820152601060248201527f53656e646572206e6f742061646d696e00000000000000000000000000000000604482015290519081900360640190fd5b600355565b6000546001600160a01b03163314611266576040805162461bcd60e51b815260206004820152600e60248201527f4e4f545f415554484f52495a4544000000000000000000000000000000000000604482015290519081900360640190fd5b600755565b7ff23a6e61000000000000000000000000000000000000000000000000000000009695505050505050565b60075490565b6001600160a01b03821660008181526001602090815260409182902080547fffffffffffffffffffffffffffffffffffffffffffffffffffffffffffffff001685151590811790915582519384529083015280517fb21eb88b4e33b3f1281830a7178d74d8aa73220416215726b68ae23d539515cb9281900390910190a15050565b6113456103e861133960075485611b2290919063ffffffff16565b9063ffffffff611b9816565b8114610b71576040805162461bcd60e51b815260206004820152600d60248201527f494e56414c49445f505249434500000000000000000000000000000000000000604482015290519081900360640190fd5b7f0000000000000000000000000000000000000000000000000000000000000000421061140c576040805162461bcd60e51b815260206004820152600c60248201527f53414c455f49535f4f5645520000000000000000000000000000000000000000604482015290519081900360640190fd5b6001600160a01b03891633148061143257503360009081526001602052604090205460ff165b611483576040805162461bcd60e51b815260206004820152600e60248201527f4e4f545f415554484f52495a4544000000000000000000000000000000000000604482015290519081900360640190fd5b6001600160a01b03881615806114aa5750886001600160a01b0316886001600160a01b0316145b6114fb576040805162461bcd60e51b815260206004820152600d60248201527f52455345525645445f4c414e4400000000000000000000000000000000000000604482015290519081900360640190fd5b600061150c888888888d8989611bfd565b90506115188282611ca2565b611569576040805162461bcd60e51b815260206004820152600c60248201527f494e56414c49445f4c414e440000000000000000000000000000000000000000604482015290519081900360640190fd5b50505050505050505050565b60006115818484611d6b565b6006549091506115c0908590839085906001600160a01b03167f0000000000000000000000000000000000000000000000000000000000000000611eb8565b50505050565b83600114806115fc57507f00000000000000000000000000000000000000000000000000000000000000006001600160a01b0316155b156116c357604080517f6e1e3bbf0000000000000000000000000000000000000000000000000000000081526001600160a01b03898116600483015260248201879052604482018990526064820188905260a06084830152600060a4830181905292517f000000000000000000000000000000000000000000000000000000000000000090911692636e1e3bbf9260e4808201939182900301818387803b1580156116a657600080fd5b505af11580156116ba573d6000803e3d6000fd5b50505050611827565b7f00000000000000000000000000000000000000000000000000000000000000006001600160a01b0316636e1e3bbf7f00000000000000000000000000000000000000000000000000000000000000008689898c60405160200180826001600160a01b03166001600160a01b031681526020019150506040516020818303038152906040526040518663ffffffff1660e01b815260040180866001600160a01b03166001600160a01b0316815260200185815260200184815260200183815260200180602001828103825283818151815260200191508051906020019080838360005b838110156117be5781810151838201526020016117a6565b50505050905090810190601f1680156117eb5780820380516001836020036101000a031916815260200191505b509650505050505050600060405180830381600087803b15801561180e57600080fd5b505af1158015611822573d6000803e3d6000fd5b505050505b60408051858152602081018590526001600160a01b03848116828401526060820184905291516101988802890192808b1692908c16917fe4dfa6ac11314892f3029b34a25b1a887da3b1cab2bbf8506d87128ba6e3ac029181900360800190a45050505050505050565b6060815167ffffffffffffffff811180156118ab57600080fd5b506040519080825280602002602001820160405280156118d5578160200160208202803683370190505b50905060005b82518110156119055760018282815181106118f257fe5b60209081029190910101526001016118db565b507f00000000000000000000000000000000000000000000000000000000000000006001600160a01b0316632eb2c2d6308585856040518563ffffffff1660e01b815260040180856001600160a01b03166001600160a01b03168152602001846001600160a01b03166001600160a01b03168152602001806020018060200180602001848103845286818151815260200191508051906020019060200280838360005b838110156119c05781810151838201526020016119a8565b50505050905001848103835285818151815260200191508051906020019060200280838360005b838110156119ff5781810151838201526020016119e7565b50505050905001848103825260008152602001602001975050505050505050600060405180830381600087803b158015611a3857600080fd5b505af1158015611a4c573d6000803e3d6000fd5b50505050505050565b60008151604114611a6557600080fd5b60208201516040830151606084015160001a601b811015611a8457601b015b8060ff16601b1480611a9957508060ff16601c145b611aa257600080fd5b6040805160008152602080820180845289905260ff8416828401526060820186905260808201859052915160019260a0808401939192601f1981019281900390910190855afa158015611af9573d6000803e3d6000fd5b5050604051601f1901519450506001600160a01b038416611b1957600080fd5b50505092915050565b600082611b3157506000611b92565b5081810281838281611b3f57fe5b0414611b92576040805162461bcd60e51b815260206004820152600860248201527f6f766572666c6f77000000000000000000000000000000000000000000000000604482015290519081900360640190fd5b92915050565b600081611bec576040805162461bcd60e51b815260206004820152600960248201527f64697662797a65726f0000000000000000000000000000000000000000000000604482015290519081900360640190fd5b818381611bf557fe5b049392505050565b60008787878787878760405160200180888152602001878152602001868152602001858152602001846001600160a01b03166001600160a01b031660601b8152601401838152602001828051906020019060200280838360005b83811015611c6f578181015183820152602001611c57565b50505050905001975050505050505050604051602081830303815290604052805190602001209050979650505050505050565b600081815b8451811015611d41576000858281518110611cbe57fe5b6020026020010151905080831015611d065782816040516020018083815260200182815260200192505050604051602081830303815290604052805190602001209250611d38565b808360405160200180838152602001828152602001925050506040516020818303038152906040528051906020012092505b50600101611ca7565b507f0000000000000000000000000000000000000000000000000000000000000000149392505050565b600080611d84606461133985600563ffffffff611b2216565b604080516323b872dd60e01b81526001600160a01b0387811660048301527f0000000000000000000000000000000000000000000000000000000000000000811660248301526044820184905291519293507f0000000000000000000000000000000000000000000000000000000000000000909116916323b872dd916064808201926020929091908290030181600087803b158015611e2357600080fd5b505af1158015611e37573d6000803e3d6000fd5b505050506040513d6020811015611e4d57600080fd5b5051611ea0576040805162461bcd60e51b815260206004820152601360248201527f4645455f5452414e534645525f4641494c454400000000000000000000000000604482015290519081900360640190fd5b611eb0838263ffffffff61213a16565b949350505050565b82518190859015612062576060600080600080611ed48a610a04565b9398509196509450925090506000611eef868686868661103a565b15611f7d57611f09611f018d84611b22565b612710611b98565b9050886001600160a01b0316846001600160a01b0316866001600160a01b03167fac7a699eb95c3c6d390ec4626de17ef9a67b35891efdb197beba7c7fdd45fac48f858760405180848152602001838152602001828152602001935050505060405180910390a4611f7a878261213a565b96505b801561205b57604080516323b872dd60e01b81526001600160a01b038f811660048301528781166024830152604482018490529151918a16916323b872dd916064808201926020929091908290030181600087803b158015611fde57600080fd5b505af1158015611ff2573d6000803e3d6000fd5b505050506040513d602081101561200857600080fd5b505161205b576040805162461bcd60e51b815260206004820152601960248201527f636f6d6d6973696f6e207472616e73666572206661696c656400000000000000604482015290519081900360640190fd5b5050505050505b604080516323b872dd60e01b81526001600160a01b0389811660048301528681166024830152604482018490529151918416916323b872dd916064808201926020929091908290030181600087803b1580156120bd57600080fd5b505af11580156120d1573d6000803e3d6000fd5b505050506040513d60208110156120e757600080fd5b5051611a4c576040805162461bcd60e51b815260206004820152601760248201527f7061796d656e74207472616e73666572206661696c6564000000000000000000604482015290519081900360640190fd5b600082821115612191576040805162461bcd60e51b815260206004820152600860248201527f756e6465666c6f77000000000000000000000000000000000000000000000000604482015290519081900360640190fd5b5090039056fe6f6e6c792061646d696e2063616e207365747570206d6574615472616e73616374696f6e50726f636573736f7273a26469706673582212200ff38c5741c66b2a22a9a9ee2abe0f55626323082b6b4443921fd3b25484584a64736f6c63430006050033",
  "devdoc": {
    "methods": {
      "buyLandWithSand(address,address,address,uint256,uint256,uint256,uint256,uint256,bytes32,uint256[],bytes32[],bytes)": {
        "params": {
          "buyer": "address that perform the payment",
          "priceInSand": "price in SAND to purchase that Land",
          "proof": "merkleProof for that particular Land",
          "reserved": "the reserved address (if any)",
          "size": "size of the pack of Land to purchase",
          "to": "address that will own the purchased Land",
          "x": "x coordinate of the Land",
          "y": "y coordinate of the Land"
        }
      },
      "changeAdmin(address)": {
        "details": "change the administrator to be `newAdmin`.",
        "params": {
          "newAdmin": "address of the new administrator."
        }
      },
      "getAdmin()": {
        "details": "gives the current administrator of this contract.",
        "returns": {
          "_0": "the current administrator of this contract."
        }
      },
      "getSigningWallet()": {
        "details": "signing wallet authorized for referral",
        "returns": {
          "_0": "the address of the signing wallet"
        }
      },
      "isMetaTransactionProcessor(address)": {
        "details": "check whether address `who` is given meta-transaction execution rights.",
        "params": {
          "who": "The address to query."
        },
        "returns": {
          "_0": "whether the address has meta-transaction execution rights."
        }
      },
      "isReferralValid(bytes,address,address,uint256,uint256)": {
        "params": {
          "commissionRate": "The commissionRate of the referral",
          "expiryTime": "The expiry time of the referral",
          "referee": "The address of the referee",
          "referrer": "The address of the referrer",
          "signature": "The signature to check (signed referral)"
        },
        "returns": {
          "_0": "True if the referral is valid"
        }
      },
      "setMetaTransactionProcessor(address,bool)": {
        "details": "Enable or disable the ability of `metaTransactionProcessor` to perform meta-tx (metaTransactionProcessor rights).",
        "params": {
          "enabled": "set whether the metaTransactionProcessor is enabled or disabled.",
          "metaTransactionProcessor": "address that will be given/removed metaTransactionProcessor rights."
        }
      },
      "setReceivingWallet(address)": {
        "params": {
          "newWallet": "address of the new receiving wallet"
        }
      },
      "updateMaxCommissionRate(uint256)": {
        "details": "Update the maximum commission rate",
        "params": {
          "newMaxCommissionRate": "The new maximum commission rate"
        }
      },
      "updateSigningWallet(address)": {
        "details": "Update the signing wallet",
        "params": {
          "newSigningWallet": "The new address of the signing wallet"
        }
      },
      "withdrawAssets(address,uint256[],uint256[])": {
        "params": {
          "assetIds": "the assetIds to be transferred",
          "to": "intended recipient of the asset tokens",
          "values": "the quantities of the assetIds to be transferred"
        }
      }
    },
    "title": "Estate Sale contract with referral"
  },
  "userdoc": {
    "methods": {
      "buyLandWithSand(address,address,address,uint256,uint256,uint256,uint256,uint256,bytes32,uint256[],bytes32[],bytes)": {
        "notice": "buy Land with SAND using the merkle proof associated with it"
      },
      "getExpiryTime()": {
        "notice": "Gets the expiry time for the current sale"
      },
      "getMaxCommisionRate()": {
        "notice": "the max commision rate"
      },
      "getMerkleRoot()": {
        "notice": "Gets the Merkle root associated with the current sale"
      },
      "isReferralValid(bytes,address,address,uint256,uint256)": {
        "notice": "Check if a referral is valid"
      },
      "setReceivingWallet(address)": {
        "notice": "set the wallet receiving the proceeds"
      },
      "withdrawAssets(address,uint256[],uint256[])": {
        "notice": "enable Admin to withdraw remaining assets from EstateSaleWithFee contract"
      }
    },
    "notice": "This contract manages the sale of our lands as Estates"
  },
  "storageLayout": {
    "storage": [
      {
        "astId": 12779,
        "contract": "src/solc_0.6/EstateSale/EstateSaleWithFee.sol:EstateSaleWithFee",
        "label": "_admin",
        "offset": 0,
        "slot": "0",
        "type": "t_address"
      },
      {
        "astId": 12841,
        "contract": "src/solc_0.6/EstateSale/EstateSaleWithFee.sol:EstateSaleWithFee",
        "label": "_metaTransactionContracts",
        "offset": 0,
        "slot": "1",
        "type": "t_mapping(t_address,t_bool)"
      },
      {
        "astId": 10957,
        "contract": "src/solc_0.6/EstateSale/EstateSaleWithFee.sol:EstateSaleWithFee",
        "label": "_signingWallet",
        "offset": 0,
        "slot": "2",
        "type": "t_address"
      },
      {
        "astId": 10959,
        "contract": "src/solc_0.6/EstateSale/EstateSaleWithFee.sol:EstateSaleWithFee",
        "label": "_maxCommissionRate",
        "offset": 0,
        "slot": "3",
        "type": "t_uint256"
      },
      {
        "astId": 10963,
        "contract": "src/solc_0.6/EstateSale/EstateSaleWithFee.sol:EstateSaleWithFee",
        "label": "_previousSigningWallets",
        "offset": 0,
        "slot": "4",
        "type": "t_mapping(t_address,t_uint256)"
      },
      {
        "astId": 10972,
        "contract": "src/solc_0.6/EstateSale/EstateSaleWithFee.sol:EstateSaleWithFee",
        "label": "_previousSigningDelay",
        "offset": 0,
        "slot": "5",
        "type": "t_uint256"
      },
      {
        "astId": 7344,
        "contract": "src/solc_0.6/EstateSale/EstateSaleWithFee.sol:EstateSaleWithFee",
        "label": "_wallet",
        "offset": 0,
        "slot": "6",
        "type": "t_address_payable"
      },
      {
        "astId": 7354,
        "contract": "src/solc_0.6/EstateSale/EstateSaleWithFee.sol:EstateSaleWithFee",
        "label": "_multiplier",
        "offset": 0,
        "slot": "7",
        "type": "t_uint256"
      }
    ],
    "types": {
      "t_address": {
        "encoding": "inplace",
        "label": "address",
        "numberOfBytes": "20"
      },
      "t_address_payable": {
        "encoding": "inplace",
        "label": "address payable",
        "numberOfBytes": "20"
      },
      "t_bool": {
        "encoding": "inplace",
        "label": "bool",
        "numberOfBytes": "1"
      },
      "t_mapping(t_address,t_bool)": {
        "encoding": "mapping",
        "key": "t_address",
        "label": "mapping(address => bool)",
        "numberOfBytes": "32",
        "value": "t_bool"
      },
      "t_mapping(t_address,t_uint256)": {
        "encoding": "mapping",
        "key": "t_address",
        "label": "mapping(address => uint256)",
        "numberOfBytes": "32",
        "value": "t_uint256"
      },
      "t_uint256": {
        "encoding": "inplace",
        "label": "uint256",
        "numberOfBytes": "32"
      }
    }
  }
}