{
  "address": "0xfbbcE72aD23836005BbBC210dF3EA15C4Ba83c7F",
  "abi": [
    {
      "inputs": [
        {
          "internalType": "address",
          "name": "landAddress",
          "type": "address"
        },
        {
          "internalType": "address",
          "name": "sandContractAddress",
          "type": "address"
        },
        {
          "internalType": "address",
          "name": "initialMetaTx",
          "type": "address"
        },
        {
          "internalType": "address",
          "name": "admin",
          "type": "address"
        },
        {
          "internalType": "address payable",
          "name": "initialWalletAddress",
          "type": "address"
        },
        {
          "internalType": "bytes32",
          "name": "merkleRoot",
          "type": "bytes32"
        },
        {
          "internalType": "uint256",
          "name": "expiryTime",
          "type": "uint256"
        },
        {
          "internalType": "address",
          "name": "initialSigningWallet",
          "type": "address"
        },
        {
          "internalType": "uint256",
          "name": "initialMaxCommissionRate",
          "type": "uint256"
        },
        {
          "internalType": "address",
          "name": "estate",
          "type": "address"
        },
        {
          "internalType": "address",
          "name": "asset",
          "type": "address"
        },
        {
          "internalType": "address",
          "name": "feeDistributor",
          "type": "address"
        },
        {
          "internalType": "address",
          "name": "authValidator",
          "type": "address"
        }
      ],
      "stateMutability": "nonpayable",
      "type": "constructor"
    },
    {
      "anonymous": false,
      "inputs": [
        {
          "indexed": false,
          "internalType": "address",
          "name": "oldAdmin",
          "type": "address"
        },
        {
          "indexed": false,
          "internalType": "address",
          "name": "newAdmin",
          "type": "address"
        }
      ],
      "name": "AdminChanged",
      "type": "event"
    },
    {
      "anonymous": false,
      "inputs": [
        {
          "indexed": true,
          "internalType": "address",
          "name": "buyer",
          "type": "address"
        },
        {
          "indexed": true,
          "internalType": "address",
          "name": "to",
          "type": "address"
        },
        {
          "indexed": true,
          "internalType": "uint256",
          "name": "topCornerId",
          "type": "uint256"
        },
        {
          "indexed": false,
          "internalType": "uint256",
          "name": "size",
          "type": "uint256"
        },
        {
          "indexed": false,
          "internalType": "uint256",
          "name": "price",
          "type": "uint256"
        },
        {
          "indexed": false,
          "internalType": "address",
          "name": "token",
          "type": "address"
        },
        {
          "indexed": false,
          "internalType": "uint256",
          "name": "amountPaid",
          "type": "uint256"
        }
      ],
      "name": "LandQuadPurchased",
      "type": "event"
    },
    {
      "anonymous": false,
      "inputs": [
        {
          "indexed": false,
          "internalType": "address",
          "name": "metaTransactionProcessor",
          "type": "address"
        },
        {
          "indexed": false,
          "internalType": "bool",
          "name": "enabled",
          "type": "bool"
        }
      ],
      "name": "MetaTransactionProcessor",
      "type": "event"
    },
    {
      "anonymous": false,
      "inputs": [
        {
          "indexed": true,
          "internalType": "address",
          "name": "referrer",
          "type": "address"
        },
        {
          "indexed": true,
          "internalType": "address",
          "name": "referee",
          "type": "address"
        },
        {
          "indexed": true,
          "internalType": "address",
          "name": "token",
          "type": "address"
        },
        {
          "indexed": false,
          "internalType": "uint256",
          "name": "amount",
          "type": "uint256"
        },
        {
          "indexed": false,
          "internalType": "uint256",
          "name": "commission",
          "type": "uint256"
        },
        {
          "indexed": false,
          "internalType": "uint256",
          "name": "commissionRate",
          "type": "uint256"
        }
      ],
      "name": "ReferralUsed",
      "type": "event"
    },
    {
      "inputs": [
        {
          "internalType": "address",
          "name": "buyer",
          "type": "address"
        },
        {
          "internalType": "address",
          "name": "to",
          "type": "address"
        },
        {
          "internalType": "address",
          "name": "reserved",
          "type": "address"
        },
        {
          "internalType": "uint256[]",
          "name": "info",
          "type": "uint256[]"
        },
        {
          "internalType": "bytes32",
          "name": "salt",
          "type": "bytes32"
        },
        {
          "internalType": "uint256[]",
          "name": "assetIds",
          "type": "uint256[]"
        },
        {
          "internalType": "bytes32[]",
          "name": "proof",
          "type": "bytes32[]"
        },
        {
          "internalType": "bytes",
          "name": "referral",
          "type": "bytes"
        },
        {
          "internalType": "bytes",
          "name": "signature",
          "type": "bytes"
        }
      ],
      "name": "buyLandWithSand",
      "outputs": [],
      "stateMutability": "nonpayable",
      "type": "function"
    },
    {
      "inputs": [
        {
          "internalType": "address",
          "name": "newAdmin",
          "type": "address"
        }
      ],
      "name": "changeAdmin",
      "outputs": [],
      "stateMutability": "nonpayable",
      "type": "function"
    },
    {
      "inputs": [
        {
          "internalType": "bytes",
          "name": "referral",
          "type": "bytes"
        }
      ],
      "name": "decodeReferral",
      "outputs": [
        {
          "internalType": "bytes",
          "name": "",
          "type": "bytes"
        },
        {
          "internalType": "address",
          "name": "",
          "type": "address"
        },
        {
          "internalType": "address",
          "name": "",
          "type": "address"
        },
        {
          "internalType": "uint256",
          "name": "",
          "type": "uint256"
        },
        {
          "internalType": "uint256",
          "name": "",
          "type": "uint256"
        }
      ],
      "stateMutability": "pure",
      "type": "function"
    },
    {
      "inputs": [],
      "name": "getAdmin",
      "outputs": [
        {
          "internalType": "address",
          "name": "",
          "type": "address"
        }
      ],
      "stateMutability": "view",
      "type": "function"
    },
    {
      "inputs": [],
      "name": "getExpiryTime",
      "outputs": [
        {
          "internalType": "uint256",
          "name": "",
          "type": "uint256"
        }
      ],
      "stateMutability": "view",
      "type": "function"
    },
    {
      "inputs": [],
      "name": "getMaxCommisionRate",
      "outputs": [
        {
          "internalType": "uint256",
          "name": "",
          "type": "uint256"
        }
      ],
      "stateMutability": "view",
      "type": "function"
    },
    {
      "inputs": [],
      "name": "getMerkleRoot",
      "outputs": [
        {
          "internalType": "bytes32",
          "name": "",
          "type": "bytes32"
        }
      ],
      "stateMutability": "view",
      "type": "function"
    },
    {
      "inputs": [],
      "name": "getSigningWallet",
      "outputs": [
        {
          "internalType": "address",
          "name": "",
          "type": "address"
        }
      ],
      "stateMutability": "view",
      "type": "function"
    },
    {
      "inputs": [
        {
          "internalType": "address",
          "name": "who",
          "type": "address"
        }
      ],
      "name": "isMetaTransactionProcessor",
      "outputs": [
        {
          "internalType": "bool",
          "name": "",
          "type": "bool"
        }
      ],
      "stateMutability": "view",
      "type": "function"
    },
    {
      "inputs": [
        {
          "internalType": "bytes",
          "name": "signature",
          "type": "bytes"
        },
        {
          "internalType": "address",
          "name": "referrer",
          "type": "address"
        },
        {
          "internalType": "address",
          "name": "referee",
          "type": "address"
        },
        {
          "internalType": "uint256",
          "name": "expiryTime",
          "type": "uint256"
        },
        {
          "internalType": "uint256",
          "name": "commissionRate",
          "type": "uint256"
        }
      ],
      "name": "isReferralValid",
      "outputs": [
        {
          "internalType": "bool",
          "name": "",
          "type": "bool"
        }
      ],
      "stateMutability": "view",
      "type": "function"
    },
    {
      "inputs": [
        {
          "internalType": "address",
          "name": "",
          "type": "address"
        },
        {
          "internalType": "address",
          "name": "",
          "type": "address"
        },
        {
          "internalType": "uint256[]",
          "name": "",
          "type": "uint256[]"
        },
        {
          "internalType": "uint256[]",
          "name": "",
          "type": "uint256[]"
        },
        {
          "internalType": "bytes",
          "name": "",
          "type": "bytes"
        }
      ],
      "name": "onERC1155BatchReceived",
      "outputs": [
        {
          "internalType": "bytes4",
          "name": "",
          "type": "bytes4"
        }
      ],
      "stateMutability": "pure",
      "type": "function"
    },
    {
      "inputs": [
        {
          "internalType": "address",
          "name": "",
          "type": "address"
        },
        {
          "internalType": "address",
          "name": "",
          "type": "address"
        },
        {
          "internalType": "uint256",
          "name": "",
          "type": "uint256"
        },
        {
          "internalType": "uint256",
          "name": "",
          "type": "uint256"
        },
        {
          "internalType": "bytes",
          "name": "",
          "type": "bytes"
        }
      ],
      "name": "onERC1155Received",
      "outputs": [
        {
          "internalType": "bytes4",
          "name": "",
          "type": "bytes4"
        }
      ],
      "stateMutability": "pure",
      "type": "function"
    },
    {
      "inputs": [
        {
          "internalType": "address",
          "name": "metaTransactionProcessor",
          "type": "address"
        },
        {
          "internalType": "bool",
          "name": "enabled",
          "type": "bool"
        }
      ],
      "name": "setMetaTransactionProcessor",
      "outputs": [],
      "stateMutability": "nonpayable",
      "type": "function"
    },
    {
      "inputs": [
        {
          "internalType": "address payable",
          "name": "newWallet",
          "type": "address"
        }
      ],
      "name": "setReceivingWallet",
      "outputs": [],
      "stateMutability": "nonpayable",
      "type": "function"
    },
    {
      "inputs": [
        {
          "internalType": "uint256",
          "name": "newMaxCommissionRate",
          "type": "uint256"
        }
      ],
      "name": "updateMaxCommissionRate",
      "outputs": [],
      "stateMutability": "nonpayable",
      "type": "function"
    },
    {
      "inputs": [
        {
          "internalType": "address",
          "name": "newSigningWallet",
          "type": "address"
        }
      ],
      "name": "updateSigningWallet",
      "outputs": [],
      "stateMutability": "nonpayable",
      "type": "function"
    },
    {
      "inputs": [
        {
          "internalType": "address",
          "name": "to",
          "type": "address"
        },
        {
          "internalType": "uint256[]",
          "name": "assetIds",
          "type": "uint256[]"
        },
        {
          "internalType": "uint256[]",
          "name": "values",
          "type": "uint256[]"
        }
      ],
      "name": "withdrawAssets",
      "outputs": [],
      "stateMutability": "nonpayable",
      "type": "function"
    }
  ],
  "transactionHash": "0xf01769b5cddadca3a46d1cded74cb88b1a9954531b1f23ef0ffefa11a7dabb06",
  "args": [
    "0x2FA5E1c6a9a95d6d59045209a3588FF26adBad87",
    "0xCc933a862fc15379E441F2A16Cb943D385a4695f",
    "0xCc933a862fc15379E441F2A16Cb943D385a4695f",
    "0xa4519D601F43D0b8f167842a367465681F652252",
    "0x60927eB036621b801491B6c5e9A60A8d2dEeD75A",
    "0x9611c7d01e0db0b9451b46cee9372c7276ab48d0c7d5a0fcef7ca2de977b5bc7",
    1683291600,
    "0xB7060D3FeCAC3AE1F0A0AA416E3e8E472257950e",
    2000,
    "0x0000000000000000000000000000000000000000",
    "0x8055a2c0f7EB177BeaB357B70E6504402d2b5fF6",
    "0x5983532A5b9009E05428595b87F19e42068a232B",
    "0x94cA164E3d7B13700eC356a1540f7Ae7c239A2b3"
  ],
  "numDeployments": 1,
  "linkedData": [
    {
      "x": 312,
      "y": 393,
      "size": 1,
      "price": "4683000000000000000000",
      "reserved": "",
      "salt": "0xa3337f84a2cd8550774f641d12108c4c93583442a3bc123c8417b30a4e8ecdd5",
      "assetIds": [
        "41506478881403507969696680653240014914910929820314476107906210059990541021185"
      ]
    },
    {
      "x": 312,
      "y": 394,
      "size": 1,
      "price": "4683000000000000000000",
      "reserved": "",
      "salt": "0xe28aa7e99d8a45fc0e02e3dc427a3e5ff9e4e153b28d6d3d9901d704631ec208",
      "assetIds": [
        "41506478881403507969696680653240014914910929820314476107906210059990541021185"
      ]
    },
    {
      "x": 312,
      "y": 395,
      "size": 1,
      "price": "4683000000000000000000",
      "reserved": "",
      "salt": "0xa388fbe6a358d9b4a7052a27259a274c3bfd7f5b9adef2737c82f0d0ba565861",
      "assetIds": [
        "41506478881403507969696680653240014914910929820314476107906210059990541021185"
      ]
    },
    {
      "x": 312,
      "y": 396,
      "size": 1,
      "price": "4683000000000000000000",
      "reserved": "",
      "salt": "0x41ef781350987111496fe0dc5be05c145dc7415aa881e1f10ff5395ec821ea2b",
      "assetIds": [
        "41506478881403507969696680653240014914910929820314476107906210059990541021185"
      ]
    },
    {
      "x": 312,
      "y": 397,
      "size": 1,
      "price": "4683000000000000000000",
      "reserved": "",
      "salt": "0xc4d6376196e66a6bfa4775f28c2887a80e46990d6b683ca4ccba74e16273c9c4",
      "assetIds": [
        "41506478881403507969696680653240014914910929820314476107906210059990541021185"
      ]
    },
    {
      "x": 312,
      "y": 398,
      "size": 1,
      "price": "4683000000000000000000",
      "reserved": "",
      "salt": "0xda82389e96a80c09654b0b29b4cc62a36887f16b340d3f33aed59a3898a2d943",
      "assetIds": [
        "41506478881403507969696680653240014914910929820314476107906210059990541021185"
      ]
    },
    {
      "x": 312,
      "y": 399,
      "size": 1,
      "price": "4683000000000000000000",
      "reserved": "",
      "salt": "0xa4b1802928772679449d002834d9af8aef851f5828c1ab709539f1969d6067be",
      "assetIds": [
        "41506478881403507969696680653240014914910929820314476107906210059990541021185"
      ]
    },
    {
      "x": 312,
      "y": 400,
      "size": 1,
      "price": "4683000000000000000000",
      "reserved": "",
      "salt": "0x8cc7ce899b21c4698f9dec3fd693f6d4a03063c25c1399b15badfe75e5dee897",
      "assetIds": [
        "41506478881403507969696680653240014914910929820314476107906210059990541021185"
      ]
    },
    {
      "x": 312,
      "y": 401,
      "size": 1,
      "price": "4683000000000000000000",
      "reserved": "",
      "salt": "0x156e5f74b9aecafe4d0b5f428fb7e86d1daf2b35330d8a008019b48cb0709545",
      "assetIds": [
        "41506478881403507969696680653240014914910929820314476107906210059990541021185"
      ]
    },
    {
      "x": 312,
      "y": 405,
      "size": 1,
      "price": "4683000000000000000000",
      "reserved": "",
      "salt": "0x4bd17012a8d5fa9b652b78ad413933910042c5213d978914040f579b2acb17e2",
      "assetIds": [
        "41506478881403507969696680653240014914910929820314476107906210059990541021185"
      ]
    },
    {
      "x": 312,
      "y": 406,
      "size": 1,
      "price": "4683000000000000000000",
      "reserved": "",
      "salt": "0xea591d604edc5984b18a7874b3a7ab564653e4b7d6a2fe23073eeca3a2b440f0",
      "assetIds": [
        "41506478881403507969696680653240014914910929820314476107906210059990541021185"
      ]
    },
    {
      "x": 312,
      "y": 407,
      "size": 1,
      "price": "4683000000000000000000",
      "reserved": "",
      "salt": "0x23526912f5031c919ede7091ed00c9da4b94b66276d26294cf3222efa0ae2152",
      "assetIds": [
        "41506478881403507969696680653240014914910929820314476107906210059990541021185"
      ]
    },
    {
      "x": 313,
      "y": 393,
      "size": 1,
      "price": "4683000000000000000000",
      "reserved": "",
      "salt": "0x18cbf9325991b5551e181c9362d073b442a79a6bc3d8841b0409aff6e79b3434",
      "assetIds": [
        "41506478881403507969696680653240014914910929820314476107906210059990541021185"
      ]
    },
    {
      "x": 313,
      "y": 394,
      "size": 1,
      "price": "4683000000000000000000",
      "reserved": "",
      "salt": "0xedbaca8dc538103cd3566a064d863fb283e3a8c7b98d4bb70785b57045330abb",
      "assetIds": [
        "41506478881403507969696680653240014914910929820314476107906210059990541021185"
      ]
    },
    {
      "x": 313,
      "y": 395,
      "size": 1,
      "price": "4683000000000000000000",
      "reserved": "",
      "salt": "0x3ac004e449f3b4e493c6c42704267fabc2020b20ab9863c163b3b6ec61de8b80",
      "assetIds": [
        "41506478881403507969696680653240014914910929820314476107906210059990541021185"
      ]
    },
    {
      "x": 313,
      "y": 396,
      "size": 1,
      "price": "4683000000000000000000",
      "reserved": "",
      "salt": "0x1d82036f085bad45b3aea3bf3a68cf25422a6b52a9b5020fef8879cb5b2a4fcb",
      "assetIds": [
        "41506478881403507969696680653240014914910929820314476107906210059990541021185"
      ]
    },
    {
      "x": 313,
      "y": 397,
      "size": 1,
      "price": "4683000000000000000000",
      "reserved": "",
      "salt": "0x038212f1e82e75ca56034c3978ba081177d035c4b860e8cea0e9d1ab7b7af2d3",
      "assetIds": [
        "41506478881403507969696680653240014914910929820314476107906210059990541021185"
      ]
    },
    {
      "x": 313,
      "y": 398,
      "size": 1,
      "price": "4683000000000000000000",
      "reserved": "",
      "salt": "0xc4a07ea2c4a70c9785886ad9a2559d520a1ae9d7ea66bfb6958286148f0f2b26",
      "assetIds": [
        "41506478881403507969696680653240014914910929820314476107906210059990541021185"
      ]
    },
    {
      "x": 313,
      "y": 399,
      "size": 1,
      "price": "4683000000000000000000",
      "reserved": "",
      "salt": "0x411955d3d14561fe11b950e4f2fb264a08dc72d0b0bd1422e9a7f741fc08e2e2",
      "assetIds": [
        "41506478881403507969696680653240014914910929820314476107906210059990541021185"
      ]
    },
    {
      "x": 313,
      "y": 400,
      "size": 1,
      "price": "4683000000000000000000",
      "reserved": "",
      "salt": "0xf134cae9ff6a9fd88df6e8f0a926ac8e6f46d2e6ecde8cf5f2f7ecf8b989e898",
      "assetIds": [
        "41506478881403507969696680653240014914910929820314476107906210059990541021185"
      ]
    },
    {
      "x": 313,
      "y": 401,
      "size": 1,
      "price": "4683000000000000000000",
      "reserved": "",
      "salt": "0xc1861d87361737cafa971df06062353cb9b500186274480deb31cb2dfdfbd24b",
      "assetIds": [
        "41506478881403507969696680653240014914910929820314476107906210059990541021185"
      ]
    },
    {
      "x": 313,
      "y": 405,
      "size": 1,
      "price": "4683000000000000000000",
      "reserved": "",
      "salt": "0x238250b6b7c24aa9d9862994cb8cf8f3437e719d4aeaaebb673c14d0c4d344c1",
      "assetIds": [
        "41506478881403507969696680653240014914910929820314476107906210059990541021185"
      ]
    },
    {
      "x": 313,
      "y": 406,
      "size": 1,
      "price": "4683000000000000000000",
      "reserved": "",
      "salt": "0x5b188517c2fd7399f389b1ea7871c943a31c2913ed54ed90d0fc5e7046dcfd72",
      "assetIds": [
        "41506478881403507969696680653240014914910929820314476107906210059990541021185"
      ]
    },
    {
      "x": 313,
      "y": 407,
      "size": 1,
      "price": "4683000000000000000000",
      "reserved": "",
      "salt": "0x87c4602961a931726d8ae79778480472d5bfff3d7518fe441190892c6c1c892a",
      "assetIds": [
        "41506478881403507969696680653240014914910929820314476107906210059990541021185"
      ]
    },
    {
      "x": 314,
      "y": 393,
      "size": 1,
      "price": "1011000000000000000000",
      "reserved": "",
      "salt": "0x2fb71aa243ad7dc1d1bc34a4ec12fb6ed78b991779d3988fb9fe0119d2e1f744",
      "assetIds": []
    },
    {
      "x": 314,
      "y": 394,
      "size": 1,
      "price": "1011000000000000000000",
      "reserved": "",
      "salt": "0xfb858db7615dc64311322e4b6accf0bf99460fbe989dd02c3bda949d463d937d",
      "assetIds": []
    },
    {
      "x": 314,
      "y": 395,
      "size": 1,
      "price": "1011000000000000000000",
      "reserved": "",
      "salt": "0xbe58b27e87dfccde0e866013b6566b91723ac8e7475a914d0bee46df6fdb4415",
      "assetIds": []
    },
    {
      "x": 314,
      "y": 396,
      "size": 1,
      "price": "1011000000000000000000",
      "reserved": "",
      "salt": "0xb2258b2fa6270407c8e4a3d7572028923b8ecccadd2bd35ecf7f7ab734dab534",
      "assetIds": []
    },
    {
      "x": 314,
      "y": 397,
      "size": 1,
      "price": "4683000000000000000000",
      "reserved": "",
      "salt": "0xb6eb136c0624bc1f8a23752c9e48e772efce029caf1c56405f97b88b12595eaa",
      "assetIds": [
        "41506478881403507969696680653240014914910929820314476107906210059990541021185"
      ]
    },
    {
      "x": 314,
      "y": 398,
      "size": 1,
      "price": "4683000000000000000000",
      "reserved": "",
      "salt": "0x968daa4957b112d96f65cd359047bf24af6892114cbc9d4caafd4ffa65e13db0",
      "assetIds": [
        "41506478881403507969696680653240014914910929820314476107906210059990541021185"
      ]
    },
    {
      "x": 314,
      "y": 399,
      "size": 1,
      "price": "1011000000000000000000",
      "reserved": "0x7a9fe22691c811ea339d9b73150e6911a5343dca",
      "salt": "0xc6f65f1e5eaa8ead7ea4b36eb1eb1a8dc1f29262316c4ec0115f6c9f32628e33",
      "assetIds": []
    },
    {
      "x": 314,
      "y": 400,
      "size": 1,
      "price": "4683000000000000000000",
      "reserved": "",
      "salt": "0x7e1b8d1cb6ad92b8d954a12329dff1b62b6657e690ec249dc96309a0fdc4bd26",
      "assetIds": [
        "41506478881403507969696680653240014914910929820314476107906210059990541021185"
      ]
    },
    {
      "x": 314,
      "y": 401,
      "size": 1,
      "price": "1011000000000000000000",
      "reserved": "0x7a9fe22691c811ea339d9b73150e6911a5343dca",
      "salt": "0x010a93b002ad3c4d8fc33b022e9a66ec43d18116738b7ea788b53dd6e5b1e25b",
      "assetIds": []
    },
    {
      "x": 314,
      "y": 405,
      "size": 1,
      "price": "1011000000000000000000",
      "reserved": "0x7a9fe22691c811ea339d9b73150e6911a5343dca",
      "salt": "0x41780afab1f67bf2e1aeec99447143ebcbeec01c7d3387e1ab381b3fa88cc562",
      "assetIds": []
    },
    {
      "x": 314,
      "y": 406,
      "size": 1,
      "price": "4683000000000000000000",
      "reserved": "",
      "salt": "0x0cc6c0cc901d7b453ccf2e908a031389debcbdaf43de5988bf68dab8d92a2cb4",
      "assetIds": [
        "41506478881403507969696680653240014914910929820314476107906210059990541021185"
      ]
    },
    {
      "x": 314,
      "y": 407,
      "size": 1,
      "price": "1011000000000000000000",
      "reserved": "0x7a9fe22691c811ea339d9b73150e6911a5343dca",
      "salt": "0x9849ac04d58c1a769995a8e3bb02ea3df6f459214b096b1a95e6a4530626fb26",
      "assetIds": []
    },
    {
      "x": 315,
      "y": 390,
      "size": 1,
      "price": "1011000000000000000000",
      "reserved": "",
      "salt": "0x21df944f4f3afbcba4ec44d888731372e3860d3875b2d6efca7abb0b3d31a91a",
      "assetIds": []
    },
    {
      "x": 315,
      "y": 391,
      "size": 1,
      "price": "1011000000000000000000",
      "reserved": "",
      "salt": "0x970b4ee0f0217f0b599128614ae53fcab72e15e944e963040086ea23143df9ce",
      "assetIds": []
    },
    {
      "x": 315,
      "y": 392,
      "size": 1,
      "price": "1011000000000000000000",
      "reserved": "",
      "salt": "0xa79f5720a9315ec70af01fc61bac8f7c54ea9f98c718985cc0381b51bd5d7b1f",
      "assetIds": []
    },
    {
      "x": 315,
      "y": 396,
      "size": 1,
      "price": "1011000000000000000000",
      "reserved": "",
      "salt": "0x8321f321e4ad079e6b00ee0c19efde7cfae538191be980dacd7a56cf87c46840",
      "assetIds": []
    },
    {
      "x": 315,
      "y": 397,
      "size": 1,
      "price": "4683000000000000000000",
      "reserved": "",
      "salt": "0x095b50259f72deeccf5cdb36f7d2e9f5897e9586db3754e33f39913e6e1612ee",
      "assetIds": [
        "41506478881403507969696680653240014914910929820314476107906210059990541021185"
      ]
    },
    {
      "x": 315,
      "y": 398,
      "size": 1,
      "price": "1011000000000000000000",
      "reserved": "0x7a9fe22691c811ea339d9b73150e6911a5343dca",
      "salt": "0x6b89295a49b24675cfd710195b4910c5ea8f08f61dafcbbcfddf492462377bbe",
      "assetIds": []
    },
    {
      "x": 316,
      "y": 390,
      "size": 1,
      "price": "1011000000000000000000",
      "reserved": "",
      "salt": "0xb02ab9983f5b5f4663cf8d9b1a8a6f3716f6b57fd4055f1e1b57a3a7f73ff9ec",
      "assetIds": []
    },
    {
      "x": 316,
      "y": 391,
      "size": 1,
      "price": "1011000000000000000000",
      "reserved": "",
      "salt": "0x3758ea656f330429b6172adfd32fce7e40e259f94215baabd1a65114c3a81588",
      "assetIds": []
    },
    {
      "x": 316,
      "y": 392,
      "size": 1,
      "price": "4683000000000000000000",
      "reserved": "",
      "salt": "0x634a7e71f87980ef56b00b1bd96427063a2f7110924cff11da117a59e6675c0a",
      "assetIds": [
        "41506478881403507969696680653240014914910929820314476107906210059990541021185"
      ]
    },
    {
      "x": 316,
      "y": 396,
      "size": 1,
      "price": "4683000000000000000000",
      "reserved": "",
      "salt": "0xd86889149e7e6dcfedfd3d049f4901eea827121cbb1f27ad3b523992978456e0",
      "assetIds": [
        "41506478881403507969696680653240014914910929820314476107906210059990541021185"
      ]
    },
    {
      "x": 316,
      "y": 397,
      "size": 1,
      "price": "4683000000000000000000",
      "reserved": "",
      "salt": "0x8bed09c787a280c3af43214e8d4d1a5513aeba40671de5cc5fff2903fb01dc35",
      "assetIds": [
        "41506478881403507969696680653240014914910929820314476107906210059990541021185"
      ]
    },
    {
      "x": 316,
      "y": 398,
      "size": 1,
      "price": "4683000000000000000000",
      "reserved": "",
      "salt": "0x7ecaf421daf48a500d58714d044a87a15b5dd8eddf0d3d1de5dcbcb10803878c",
      "assetIds": [
        "41506478881403507969696680653240014914910929820314476107906210059990541021185"
      ]
    },
    {
      "x": 317,
      "y": 390,
      "size": 1,
      "price": "1011000000000000000000",
      "reserved": "0x7a9fe22691c811ea339d9b73150e6911a5343dca",
      "salt": "0xd60afbb3f7513168fd1291b3c111c1a43435056a5ef29585e58eaf5f45c760bc",
      "assetIds": []
    },
    {
      "x": 317,
      "y": 391,
      "size": 1,
      "price": "4683000000000000000000",
      "reserved": "",
      "salt": "0xb264f3c6c88aef797a18e1aa4f90a7fbeb7a6d293ad271baaeee6473d8c66f65",
      "assetIds": [
        "41506478881403507969696680653240014914910929820314476107906210059990541021185"
      ]
    },
    {
      "x": 317,
      "y": 392,
      "size": 1,
      "price": "1011000000000000000000",
      "reserved": "0x7a9fe22691c811ea339d9b73150e6911a5343dca",
      "salt": "0x0295e63c3965b3d0e2b529d9311bb014328523c38a205709026e0304b26b298e",
      "assetIds": []
    },
    {
      "x": 317,
      "y": 396,
      "size": 1,
      "price": "1011000000000000000000",
      "reserved": "0x7a9fe22691c811ea339d9b73150e6911a5343dca",
      "salt": "0xc1bfcd3f270326acdcb78f28dc9ac925329687115ccb85ca875878c0b04fb8c4",
      "assetIds": []
    },
    {
      "x": 317,
      "y": 397,
      "size": 1,
      "price": "4683000000000000000000",
      "reserved": "",
      "salt": "0xb7185852314ced4cdc9052483a68a1ace142be98f7b61e27f1e44de4ff2a6107",
      "assetIds": [
        "41506478881403507969696680653240014914910929820314476107906210059990541021185"
      ]
    },
    {
      "x": 317,
      "y": 398,
      "size": 1,
      "price": "1011000000000000000000",
      "reserved": "0x7a9fe22691c811ea339d9b73150e6911a5343dca",
      "salt": "0x30ee396c1ee4701da8bd1c981e945041805839126ef03adae0df194de7b3d668",
      "assetIds": []
    },
    {
      "x": 318,
      "y": 384,
      "size": 1,
      "price": "1011000000000000000000",
      "reserved": "",
      "salt": "0x8715c53e5ac02b920ff4fc52328ae0472ec387dac0009a966425913e5d917932",
      "assetIds": []
    },
    {
      "x": 318,
      "y": 385,
      "size": 1,
      "price": "1011000000000000000000",
      "reserved": "",
      "salt": "0xf32bef4f0632c5683a3824ee92779ee808633a111235f359da5f65fb9bc0feab",
      "assetIds": []
    },
    {
      "x": 318,
      "y": 386,
      "size": 1,
      "price": "1011000000000000000000",
      "reserved": "",
      "salt": "0xb3597413e04d8c43203061f7349001ed3f3d3de6c3c24773ef72c354ed693b4e",
      "assetIds": []
    },
    {
      "x": 318,
      "y": 387,
      "size": 1,
      "price": "1011000000000000000000",
      "reserved": "",
      "salt": "0x9d7e66697c2a52b51d6862a6aae0751149ca69baae5d71358d254e96d85089ce",
      "assetIds": []
    },
    {
      "x": 318,
      "y": 388,
      "size": 1,
      "price": "1011000000000000000000",
      "reserved": "",
      "salt": "0x2cfd14ebb668d0a02951ff5a206cbd32d8d0ac835c5adaf6ac105bd6e879b26f",
      "assetIds": []
    },
    {
      "x": 318,
      "y": 389,
      "size": 1,
      "price": "4683000000000000000000",
      "reserved": "",
      "salt": "0xc7c30fe72f06bb389e83607fead976900618fba98c4b4c449bbefd647bfe8329",
      "assetIds": [
        "41506478881403507969696680653240014914910929820314476107906210059990541021185"
      ]
    },
    {
      "x": 318,
      "y": 399,
      "size": 1,
      "price": "1011000000000000000000",
      "reserved": "0x7a9fe22691c811ea339d9b73150e6911a5343dca",
      "salt": "0xfe8a31a9d9686ace387ebae1cbfdb7674157af99ea866337ff80a1f680ca55f0",
      "assetIds": []
    },
    {
      "x": 318,
      "y": 400,
      "size": 1,
      "price": "4683000000000000000000",
      "reserved": "",
      "salt": "0xa0f7e6259b01cb83f6c5c0989871a23704adde698aab55e308fa0e8298351e8f",
      "assetIds": [
        "41506478881403507969696680653240014914910929820314476107906210059990541021185"
      ]
    },
    {
      "x": 318,
      "y": 401,
      "size": 1,
      "price": "1011000000000000000000",
      "reserved": "0x7a9fe22691c811ea339d9b73150e6911a5343dca",
      "salt": "0x916c596c11e636400dba69c04711dcd201e89f1a21f4f90421e27861fb24fff5",
      "assetIds": []
    },
    {
      "x": 318,
      "y": 402,
      "size": 1,
      "price": "1011000000000000000000",
      "reserved": "",
      "salt": "0xb61703b3b272b48c20f08fdd54c1b704eacb8bd37e6dcf09a18f5c7a2a3cb699",
      "assetIds": []
    },
    {
      "x": 318,
      "y": 403,
      "size": 1,
      "price": "1011000000000000000000",
      "reserved": "",
      "salt": "0x43a32cd84d000e6633d530fda043482c539ca4f2e2f8aeadf675f094642c077c",
      "assetIds": []
    },
    {
      "x": 318,
      "y": 404,
      "size": 1,
      "price": "1011000000000000000000",
      "reserved": "",
      "salt": "0xad0a015460b7e71c82cd3ed99c278ed9294e3d2a5e2c8d1c5fa93fef2416ffd2",
      "assetIds": []
    },
    {
      "x": 318,
      "y": 405,
      "size": 1,
      "price": "1011000000000000000000",
      "reserved": "0x7a9fe22691c811ea339d9b73150e6911a5343dca",
      "salt": "0xef303d0e5ed022abf21c72789acaae116b46851d4f2198dcb8a0ae5c53cdd422",
      "assetIds": []
    },
    {
      "x": 318,
      "y": 406,
      "size": 1,
      "price": "4683000000000000000000",
      "reserved": "",
      "salt": "0x3b5c5f9576b6a1354762005fb4b5a2edea50b12d3cf7d39d088cbe6f8291b397",
      "assetIds": [
        "41506478881403507969696680653240014914910929820314476107906210059990541021185"
      ]
    },
    {
      "x": 318,
      "y": 407,
      "size": 1,
      "price": "1011000000000000000000",
      "reserved": "0x7a9fe22691c811ea339d9b73150e6911a5343dca",
      "salt": "0x3bf7800af46c7e7a9b8aeebd296afa9c14ae9995cd105ef299472890395170b7",
      "assetIds": []
    },
    {
      "x": 319,
      "y": 384,
      "size": 1,
      "price": "4683000000000000000000",
      "reserved": "",
      "salt": "0x132c5dee401d54b75398a53d74b81065b6f32c7e0705b02a462e0fc6ac155df8",
      "assetIds": [
        "41506478881403507969696680653240014914910929820314476107906210059990541021185"
      ]
    },
    {
      "x": 319,
      "y": 385,
      "size": 1,
      "price": "4683000000000000000000",
      "reserved": "",
      "salt": "0x691e1c19726b713b236a299e2b980fb86de05b40d30ada3f24e617f2891c9e56",
      "assetIds": [
        "41506478881403507969696680653240014914910929820314476107906210059990541021185"
      ]
    },
    {
      "x": 319,
      "y": 386,
      "size": 1,
      "price": "4683000000000000000000",
      "reserved": "",
      "salt": "0x414f583b7ad67c69505405e23ccdc891087b5b2e7e5fa83127b7df5d293fddad",
      "assetIds": [
        "41506478881403507969696680653240014914910929820314476107906210059990541021185"
      ]
    },
    {
      "x": 319,
      "y": 387,
      "size": 1,
      "price": "1011000000000000000000",
      "reserved": "",
      "salt": "0x2a6666e3c7f905aa78c6681bbedcfd57cf9f28bad095d8c5e425a375a4c0198e",
      "assetIds": []
    },
    {
      "x": 319,
      "y": 388,
      "size": 1,
      "price": "1011000000000000000000",
      "reserved": "",
      "salt": "0x23d558a163b949b340f153a2c6f6a676cd188a6b5976b9e3c77b1f9df6143c4d",
      "assetIds": []
    },
    {
      "x": 319,
      "y": 389,
      "size": 1,
      "price": "1011000000000000000000",
      "reserved": "0x7a9fe22691c811ea339d9b73150e6911a5343dca",
      "salt": "0x43eb91cdcb8bbdff22639a25ec18154f0284e4cb647c7a25571d8ce5d78a172d",
      "assetIds": []
    },
    {
      "x": 319,
      "y": 399,
      "size": 1,
      "price": "4683000000000000000000",
      "reserved": "",
      "salt": "0x451012440ea232faeac83d8bf2874a6990a89ad126396020abbb3c76d7c58866",
      "assetIds": [
        "41506478881403507969696680653240014914910929820314476107906210059990541021185"
      ]
    },
    {
      "x": 319,
      "y": 400,
      "size": 1,
      "price": "4683000000000000000000",
      "reserved": "",
      "salt": "0x557252f3e2d6bad0afa342393833aa1acd3b746365139703cdad4de4c9e79fb3",
      "assetIds": [
        "41506478881403507969696680653240014914910929820314476107906210059990541021185"
      ]
    },
    {
      "x": 319,
      "y": 401,
      "size": 1,
      "price": "4683000000000000000000",
      "reserved": "",
      "salt": "0xf9da9fd23eb2b7d0470a6db2cbe8ae2526bd2d8b03386c42fb1dc3c0e5558ed3",
      "assetIds": [
        "41506478881403507969696680653240014914910929820314476107906210059990541021185"
      ]
    },
    {
      "x": 319,
      "y": 402,
      "size": 1,
      "price": "1011000000000000000000",
      "reserved": "",
      "salt": "0xa28df3824f73364b84939464c93f0d6077ef2d0c980350a316e09c000b6b41ad",
      "assetIds": []
    },
    {
      "x": 319,
      "y": 403,
      "size": 1,
      "price": "1011000000000000000000",
      "reserved": "",
      "salt": "0x04ae06f1defc57d1078960c76d7b455846bd2812684442084568f21790fa3fec",
      "assetIds": []
    },
    {
      "x": 319,
      "y": 404,
      "size": 1,
      "price": "1011000000000000000000",
      "reserved": "",
      "salt": "0xdadd34db50782f858702734cb54f70b7ae75e474cf3688e71afcebd285cf21ae",
      "assetIds": []
    },
    {
      "x": 319,
      "y": 405,
      "size": 1,
      "price": "4683000000000000000000",
      "reserved": "",
      "salt": "0x051fdc24ac0df3c7f3dae42b34922216cdd5eedd03113cb85100e49a9dfdfd2c",
      "assetIds": [
        "41506478881403507969696680653240014914910929820314476107906210059990541021185"
      ]
    },
    {
      "x": 319,
      "y": 406,
      "size": 1,
      "price": "4683000000000000000000",
      "reserved": "",
      "salt": "0xc9fba228f22341ad2efa7348f0417782ed9f042eec2da95cc0386592a973633f",
      "assetIds": [
        "41506478881403507969696680653240014914910929820314476107906210059990541021185"
      ]
    },
    {
      "x": 319,
      "y": 407,
      "size": 1,
      "price": "4683000000000000000000",
      "reserved": "",
      "salt": "0xd33c86dbd463b3f354b86cae94e1b69a0e90ce3656ee73a528ee41ede8e5eaa6",
      "assetIds": [
        "41506478881403507969696680653240014914910929820314476107906210059990541021185"
      ]
    },
    {
      "x": 320,
      "y": 384,
      "size": 1,
      "price": "1011000000000000000000",
      "reserved": "0x7a9fe22691c811ea339d9b73150e6911a5343dca",
      "salt": "0xe821aef05082dfafbdcd27057e7231281f8c3a4ce50ac082b97d07428d4c4f7b",
      "assetIds": []
    },
    {
      "x": 320,
      "y": 385,
      "size": 1,
      "price": "4683000000000000000000",
      "reserved": "",
      "salt": "0x51168b5b352c6616b3b933fddb157238c3fbaa866b2a13e98898d9c6b172497e",
      "assetIds": [
        "41506478881403507969696680653240014914910929820314476107906210059990541021185"
      ]
    },
    {
      "x": 320,
      "y": 386,
      "size": 1,
      "price": "1011000000000000000000",
      "reserved": "0x7a9fe22691c811ea339d9b73150e6911a5343dca",
      "salt": "0x53b708c6dc53f6ce4bfa2f06371fac49aee498652fb14e5ac0ff7d556af0b5df",
      "assetIds": []
    },
    {
      "x": 320,
      "y": 387,
      "size": 1,
      "price": "1011000000000000000000",
      "reserved": "",
      "salt": "0x8dec8e910382b009d72c1c9b2e2721f4b911496e2e9f60612c930f686eabea9a",
      "assetIds": []
    },
    {
      "x": 320,
      "y": 388,
      "size": 1,
      "price": "1011000000000000000000",
      "reserved": "",
      "salt": "0xa33960b6c7c9ac353daacb8549283d2dfd2fd95363c6144d953177d59fb3c37d",
      "assetIds": []
    },
    {
      "x": 320,
      "y": 389,
      "size": 1,
      "price": "4683000000000000000000",
      "reserved": "",
      "salt": "0x8bc05dc835624ea050d729835eb23580bf7654c00d18f06bd8b626f3676e521f",
      "assetIds": [
        "41506478881403507969696680653240014914910929820314476107906210059990541021185"
      ]
    },
    {
      "x": 320,
      "y": 399,
      "size": 1,
      "price": "1011000000000000000000",
      "reserved": "0x7a9fe22691c811ea339d9b73150e6911a5343dca",
      "salt": "0xb8cdabb222db5c008a2cd8523c443de48484dc3db9d52ce05dc5960011b8f28a",
      "assetIds": []
    },
    {
      "x": 320,
      "y": 400,
      "size": 1,
      "price": "1011000000000000000000",
      "reserved": "",
      "salt": "0x172b2a5f98943f3ec009b9c78fa4d6432ca14390f6c151551354ec9eab74eefe",
      "assetIds": []
    },
    {
      "x": 320,
      "y": 401,
      "size": 1,
      "price": "1011000000000000000000",
      "reserved": "",
      "salt": "0x755d7e974e7103805156819ca1c73931148981e918db09ff5121fad792914051",
      "assetIds": []
    },
    {
      "x": 320,
      "y": 402,
      "size": 1,
      "price": "1011000000000000000000",
      "reserved": "",
      "salt": "0xe7861a494a93f140a6093581a2993bd7cedac597f24e94539a8a748059e52875",
      "assetIds": []
    },
    {
      "x": 320,
      "y": 403,
      "size": 1,
      "price": "1011000000000000000000",
      "reserved": "",
      "salt": "0x474883f3cb26c5b338d4ac422843ac11abb44be523170b19d3247ec169d7c9d0",
      "assetIds": []
    },
    {
      "x": 320,
      "y": 404,
      "size": 1,
      "price": "1011000000000000000000",
      "reserved": "",
      "salt": "0xaac71c9e50678ed873f04d364112ab75884a78629b8899d5c1094044e41c5336",
      "assetIds": []
    },
    {
      "x": 320,
      "y": 405,
      "size": 1,
      "price": "1011000000000000000000",
      "reserved": "0x7a9fe22691c811ea339d9b73150e6911a5343dca",
      "salt": "0x9814bde4f3ad0f588effdd0824e5562067a51ad30f74386695f8b412cc3cc0bb",
      "assetIds": []
    },
    {
      "x": 320,
      "y": 406,
      "size": 1,
      "price": "4683000000000000000000",
      "reserved": "",
      "salt": "0xc78ca0dfa13094871417b30c48a4f8a1806b9304f004ceff5214878941efb0ab",
      "assetIds": [
        "41506478881403507969696680653240014914910929820314476107906210059990541021185"
      ]
    },
    {
      "x": 320,
      "y": 407,
      "size": 1,
      "price": "1011000000000000000000",
      "reserved": "0x7a9fe22691c811ea339d9b73150e6911a5343dca",
      "salt": "0x75bfe030bc27a834162ccafc4b64acdddf717f47143625037f348811485268b3",
      "assetIds": []
    },
    {
      "x": 321,
      "y": 387,
      "size": 1,
      "price": "1011000000000000000000",
      "reserved": "0x7a9fe22691c811ea339d9b73150e6911a5343dca",
      "salt": "0x29a86b84e04faba849e82a62f5c150412cb57f267ee3a8dcfb5ee73511611820",
      "assetIds": []
    },
    {
      "x": 321,
      "y": 388,
      "size": 1,
      "price": "4683000000000000000000",
      "reserved": "",
      "salt": "0xf0a070cb36cb3209b704af98c0df7b0845ae433c4338a18d08e5405c3f5137d5",
      "assetIds": [
        "41506478881403507969696680653240014914910929820314476107906210059990541021185"
      ]
    },
    {
      "x": 321,
      "y": 389,
      "size": 1,
      "price": "1011000000000000000000",
      "reserved": "0x7a9fe22691c811ea339d9b73150e6911a5343dca",
      "salt": "0x3055d1d516dcf96e49beee81d11e62e7991f5903158adeea5651e0350074cc83",
      "assetIds": []
    },
    {
      "x": 321,
      "y": 396,
      "size": 1,
      "price": "1011000000000000000000",
      "reserved": "0x7a9fe22691c811ea339d9b73150e6911a5343dca",
      "salt": "0x881d6474abf817657e2cb6f5f33cb7a503c5e445202cdab6108e05ca2f0d3549",
      "assetIds": []
    },
    {
      "x": 321,
      "y": 397,
      "size": 1,
      "price": "4683000000000000000000",
      "reserved": "",
      "salt": "0x9ca138c3c1e85c917b114de4007c824a00fb0fea367097ad26db75629d352dd9",
      "assetIds": [
        "41506478881403507969696680653240014914910929820314476107906210059990541021185"
      ]
    },
    {
      "x": 321,
      "y": 398,
      "size": 1,
      "price": "1011000000000000000000",
      "reserved": "0x7a9fe22691c811ea339d9b73150e6911a5343dca",
      "salt": "0x4fc56881a87925d76742fb88c75e8745b262fb5b4146d6574d5c86a4da12519f",
      "assetIds": []
    },
    {
      "x": 321,
      "y": 399,
      "size": 1,
      "price": "4683000000000000000000",
      "reserved": "",
      "salt": "0xfdf384789a0002b7ecaa245b66b32d37fa1016a42d611888bf824f40134be4bf",
      "assetIds": [
        "41506478881403507969696680653240014914910929820314476107906210059990541021185"
      ]
    },
    {
      "x": 321,
      "y": 400,
      "size": 1,
      "price": "1011000000000000000000",
      "reserved": "",
      "salt": "0x1e8cd504d77eea5db8a1a2144e51af20d758c7d82c7e3d569c7be766ef01bbcd",
      "assetIds": []
    },
    {
      "x": 321,
      "y": 401,
      "size": 1,
      "price": "1011000000000000000000",
      "reserved": "",
      "salt": "0x9f945acd426d6f9d757bc8ed9164e7f2dee006f702e2dc41c3ddcae92687efae",
      "assetIds": []
    },
    {
      "x": 322,
      "y": 387,
      "size": 1,
      "price": "4683000000000000000000",
      "reserved": "",
      "salt": "0xea47428025be5f70f20de8a9a60e769b38b314c255deea3fd32ab550b3b81318",
      "assetIds": [
        "41506478881403507969696680653240014914910929820314476107906210059990541021185"
      ]
    },
    {
      "x": 322,
      "y": 388,
      "size": 1,
      "price": "4683000000000000000000",
      "reserved": "",
      "salt": "0xb20805201251f306a228d85a74a76b88ddacc5bfeb9131f413b6fc6a8323d15d",
      "assetIds": [
        "41506478881403507969696680653240014914910929820314476107906210059990541021185"
      ]
    },
    {
      "x": 322,
      "y": 389,
      "size": 1,
      "price": "4683000000000000000000",
      "reserved": "",
      "salt": "0x44615aadbb9abfcc305597f7437cf4977ddefab31c2f0d70029f6aaebf874f7e",
      "assetIds": [
        "41506478881403507969696680653240014914910929820314476107906210059990541021185"
      ]
    },
    {
      "x": 322,
      "y": 396,
      "size": 1,
      "price": "4683000000000000000000",
      "reserved": "",
      "salt": "0x4f983d1140aa380d22aa11f5467f3fa64d0c4274628e8dc38588227d1e855eb2",
      "assetIds": [
        "41506478881403507969696680653240014914910929820314476107906210059990541021185"
      ]
    },
    {
      "x": 322,
      "y": 397,
      "size": 1,
      "price": "1011000000000000000000",
      "reserved": "",
      "salt": "0xcb0887f4aa529b5d59bf494849afb3993abb9ec85f65b241dac916c184aeb33a",
      "assetIds": []
    },
    {
      "x": 322,
      "y": 398,
      "size": 1,
      "price": "1011000000000000000000",
      "reserved": "",
      "salt": "0xd21eb83bd9de2de72442fb2e90cb03f3eea330af9b0f49a82086860f59ec50e9",
      "assetIds": []
    },
    {
      "x": 322,
      "y": 399,
      "size": 1,
      "price": "1011000000000000000000",
      "reserved": "",
      "salt": "0x31133f9178214de482d2765e94d4d8cfab2eda1d82ed4c268a58cf9b5cf41251",
      "assetIds": []
    },
    {
      "x": 322,
      "y": 400,
      "size": 1,
      "price": "1011000000000000000000",
      "reserved": "",
      "salt": "0x72bfcc1548c987d203bf198153adc77949291efe865a950b37260252568c5359",
      "assetIds": []
    },
    {
      "x": 322,
      "y": 401,
      "size": 1,
      "price": "1011000000000000000000",
      "reserved": "",
      "salt": "0x587b3032ac8508bea855e4979b93b76283a00d27a0f9fb0e489194252f0ad129",
      "assetIds": []
    },
    {
      "x": 323,
      "y": 387,
      "size": 1,
      "price": "1011000000000000000000",
      "reserved": "0x7a9fe22691c811ea339d9b73150e6911a5343dca",
      "salt": "0xd4b253a8e3fdd5399b731ef61663711d7e6130ff7bdb79cff399b5a7a4089a50",
      "assetIds": []
    },
    {
      "x": 323,
      "y": 388,
      "size": 1,
      "price": "4683000000000000000000",
      "reserved": "",
      "salt": "0x75b28b4ce845fd58f6aab3ee383bcd5bfc64386bb3056713e210acc764fc23fd",
      "assetIds": [
        "41506478881403507969696680653240014914910929820314476107906210059990541021185"
      ]
    },
    {
      "x": 323,
      "y": 389,
      "size": 1,
      "price": "1011000000000000000000",
      "reserved": "0x7a9fe22691c811ea339d9b73150e6911a5343dca",
      "salt": "0x63c2b1669258ec3644d20cd19fd98dab7884e75eae119087b3498acc2a5746b0",
      "assetIds": []
    },
    {
      "x": 323,
      "y": 396,
      "size": 1,
      "price": "1011000000000000000000",
      "reserved": "0x7a9fe22691c811ea339d9b73150e6911a5343dca",
      "salt": "0x819696fc6c940a5c641641ffc8485317ce215f3c532b2189e252bb051ebaf6eb",
      "assetIds": []
    },
    {
      "x": 323,
      "y": 397,
      "size": 1,
      "price": "1011000000000000000000",
      "reserved": "",
      "salt": "0x79f2059ff1d88d6915632deb952dff538572aecf274f7d1f0e617510ca82c56d",
      "assetIds": []
    },
    {
      "x": 323,
      "y": 398,
      "size": 1,
      "price": "1011000000000000000000",
      "reserved": "",
      "salt": "0xa543d1dca98c17a4e46c052bcbeb756f236a16bfd25392f47b79035b5a0d0985",
      "assetIds": []
    },
    {
      "x": 323,
      "y": 399,
      "size": 1,
      "price": "1011000000000000000000",
      "reserved": "",
      "salt": "0xbf5a3c61bbcd4884e5c639335b739db7dbc07b4b5f5ed4bcfa2bb58f034709b1",
      "assetIds": []
    },
    {
      "x": 323,
      "y": 400,
      "size": 1,
      "price": "1011000000000000000000",
      "reserved": "",
      "salt": "0x060ce53999a51c09379b095712a62fa6242a53bf3f9b02200bfb6bfc41d7c753",
      "assetIds": []
    },
    {
      "x": 323,
      "y": 401,
      "size": 1,
      "price": "1011000000000000000000",
      "reserved": "",
      "salt": "0xc0979d5d214c79778c8f4a4a4f9cf318e9445607faee3cd7525d8bdc54dae4af",
      "assetIds": []
    },
    {
      "x": 324,
      "y": 390,
      "size": 1,
      "price": "1011000000000000000000",
      "reserved": "0x7a9fe22691c811ea339d9b73150e6911a5343dca",
      "salt": "0x0017ac2f87a9d8621af7501c6223863ca234913b009480fe6b1ed04db4bb92c1",
      "assetIds": []
    },
    {
      "x": 324,
      "y": 391,
      "size": 1,
      "price": "4683000000000000000000",
      "reserved": "",
      "salt": "0x36d66dadb92a96eea6ccce0918959b35e4d72b03a217e642e5de407bfa1aea97",
      "assetIds": [
        "41506478881403507969696680653240014914910929820314476107906210059990541021185"
      ]
    },
    {
      "x": 324,
      "y": 392,
      "size": 1,
      "price": "1011000000000000000000",
      "reserved": "0x7a9fe22691c811ea339d9b73150e6911a5343dca",
      "salt": "0x4743f77f148c230763886f9a6d78292ad44d15165a4cff6e0962bdf811311017",
      "assetIds": []
    },
    {
      "x": 325,
      "y": 390,
      "size": 1,
      "price": "4683000000000000000000",
      "reserved": "",
      "salt": "0xf1e79d7703d7015bd7ba3761d4d57668060fcc0826ff23c20d1cadd317b2dfc5",
      "assetIds": [
        "41506478881403507969696680653240014914910929820314476107906210059990541021185"
      ]
    },
    {
      "x": 325,
      "y": 391,
      "size": 1,
      "price": "4683000000000000000000",
      "reserved": "",
      "salt": "0xfbf8926b900318f5bb96525cdc12ba161342224c479e3d8924d972d5f584fb6f",
      "assetIds": [
        "41506478881403507969696680653240014914910929820314476107906210059990541021185"
      ]
    },
    {
      "x": 325,
      "y": 392,
      "size": 1,
      "price": "4683000000000000000000",
      "reserved": "",
      "salt": "0x06d571b40799b5c863f3cf98467d3e393431d63c2bdcd565db51b614a2702089",
      "assetIds": [
        "41506478881403507969696680653240014914910929820314476107906210059990541021185"
      ]
    },
    {
      "x": 326,
      "y": 390,
      "size": 1,
      "price": "1011000000000000000000",
      "reserved": "0x7a9fe22691c811ea339d9b73150e6911a5343dca",
      "salt": "0xd4b65a71655f9e489c88dc3151ba9c7b94feab3f310566d79a316c70958bc8d2",
      "assetIds": []
    },
    {
      "x": 326,
      "y": 391,
      "size": 1,
      "price": "4683000000000000000000",
      "reserved": "",
      "salt": "0x304f63cb72437ddee7814a7ce796d4c21212e1c0020641206c882ec46a8a8ae9",
      "assetIds": [
        "41506478881403507969696680653240014914910929820314476107906210059990541021185"
      ]
    },
    {
      "x": 326,
      "y": 392,
      "size": 1,
      "price": "1011000000000000000000",
      "reserved": "0x7a9fe22691c811ea339d9b73150e6911a5343dca",
      "salt": "0x79b172cae9f5f3cec4f765616146bbb38d794b795938469fbf1f81044463d7ab",
      "assetIds": []
    },
    {
      "x": 327,
      "y": 384,
      "size": 1,
      "price": "1011000000000000000000",
      "reserved": "",
      "salt": "0x6052816a972f8621ee5a707976451afaa43efaaee771460d8679e04069ab40ac",
      "assetIds": []
    },
    {
      "x": 327,
      "y": 385,
      "size": 1,
      "price": "1011000000000000000000",
      "reserved": "",
      "salt": "0x6f8c722564eda21b536773d4e119ee3e053d6d14ea54e35fa4a887e0c58c96d2",
      "assetIds": []
    },
    {
      "x": 327,
      "y": 386,
      "size": 1,
      "price": "1011000000000000000000",
      "reserved": "",
      "salt": "0x160b804c7b83cfc4e9dbbc35f4f44d3a1030428f9faadb272bb22444ef6d453a",
      "assetIds": []
    },
    {
      "x": 327,
      "y": 387,
      "size": 1,
      "price": "1011000000000000000000",
      "reserved": "0x7a9fe22691c811ea339d9b73150e6911a5343dca",
      "salt": "0x83b452da04a67ca351a28db3c713e9d55794f41d0e397f7a1f4f7c3a5fbe522b",
      "assetIds": []
    },
    {
      "x": 327,
      "y": 388,
      "size": 1,
      "price": "4683000000000000000000",
      "reserved": "",
      "salt": "0x2cb4800f9a31ebeec1d1d0ea0c357e301edc179a3393d039746f80c56271b15c",
      "assetIds": [
        "41506478881403507969696680653240014914910929820314476107906210059990541021185"
      ]
    },
    {
      "x": 327,
      "y": 389,
      "size": 1,
      "price": "1011000000000000000000",
      "reserved": "0x7a9fe22691c811ea339d9b73150e6911a5343dca",
      "salt": "0x946d0fef1aeb2603a481834e88454fb395f91435eeff20b27ed1f5eeb6309013",
      "assetIds": []
    },
    {
      "x": 327,
      "y": 393,
      "size": 1,
      "price": "1011000000000000000000",
      "reserved": "0x7a9fe22691c811ea339d9b73150e6911a5343dca",
      "salt": "0x32051f462ae8b940f87a2b5a35702e02ba1abd81fc85768be1e046c64413f1e1",
      "assetIds": []
    },
    {
      "x": 327,
      "y": 394,
      "size": 1,
      "price": "4683000000000000000000",
      "reserved": "",
      "salt": "0xfc5c869782081e66cb8bf907750986ed6e33b425ba91f2fe9ea961a80912dc32",
      "assetIds": [
        "41506478881403507969696680653240014914910929820314476107906210059990541021185"
      ]
    },
    {
      "x": 327,
      "y": 395,
      "size": 1,
      "price": "4683000000000000000000",
      "reserved": "",
      "salt": "0x464006b1704478970d1cc6c2b640ab558e499dce6d4ad4f1a5810b96e6bbbad6",
      "assetIds": [
        "41506478881403507969696680653240014914910929820314476107906210059990541021185"
      ]
    },
    {
      "x": 328,
      "y": 384,
      "size": 1,
      "price": "1011000000000000000000",
      "reserved": "",
      "salt": "0x2b46baf558062a8f7fa76b4a8c636eae8d37d3692b4231c69ab8af6bbf876e69",
      "assetIds": []
    },
    {
      "x": 328,
      "y": 385,
      "size": 1,
      "price": "1011000000000000000000",
      "reserved": "",
      "salt": "0x36372e06dc893065aedd66a1d1449871e1198dee6e28e072a20bc6d7ced4c79a",
      "assetIds": []
    },
    {
      "x": 328,
      "y": 386,
      "size": 1,
      "price": "1011000000000000000000",
      "reserved": "",
      "salt": "0x864a35d09389f0b29d90292253446aa581c4f22223c784b754b44417b3a6880c",
      "assetIds": []
    },
    {
      "x": 328,
      "y": 387,
      "size": 1,
      "price": "4683000000000000000000",
      "reserved": "",
      "salt": "0xc5ff880200c8f0b7b5bf1f0918abeb3ecab52053bab11db81eb040bf57c27e27",
      "assetIds": [
        "41506478881403507969696680653240014914910929820314476107906210059990541021185"
      ]
    },
    {
      "x": 328,
      "y": 388,
      "size": 1,
      "price": "4683000000000000000000",
      "reserved": "",
      "salt": "0x6a937cce882861d7da63ca068fb299f48f81029c686479207934239d4deea496",
      "assetIds": [
        "41506478881403507969696680653240014914910929820314476107906210059990541021185"
      ]
    },
    {
      "x": 328,
      "y": 389,
      "size": 1,
      "price": "4683000000000000000000",
      "reserved": "",
      "salt": "0xd35c5d200df98bc3c4d4415282d5e2ba39278301534aca9dc87448c22102d41d",
      "assetIds": [
        "41506478881403507969696680653240014914910929820314476107906210059990541021185"
      ]
    },
    {
      "x": 328,
      "y": 393,
      "size": 1,
      "price": "4683000000000000000000",
      "reserved": "",
      "salt": "0x2cc6650dd50dc3e1ac334bcf624dbbf2abd6bd6fd73105a98c4be8c30db4c4a4",
      "assetIds": [
        "41506478881403507969696680653240014914910929820314476107906210059990541021185"
      ]
    },
    {
      "x": 328,
      "y": 394,
      "size": 1,
      "price": "4683000000000000000000",
      "reserved": "",
      "salt": "0x10258612418cc18c3397d206e84ab1e49402d72931b335cc8fcf164917b77010",
      "assetIds": [
        "41506478881403507969696680653240014914910929820314476107906210059990541021185"
      ]
    },
    {
      "x": 328,
      "y": 395,
      "size": 1,
      "price": "4683000000000000000000",
      "reserved": "",
      "salt": "0x4a783e0c32b1261129140777a3acd3276b996d4f209e2db2945a6f386f7abc7e",
      "assetIds": [
        "41506478881403507969696680653240014914910929820314476107906210059990541021185"
      ]
    },
    {
      "x": 329,
      "y": 384,
      "size": 1,
      "price": "4683000000000000000000",
      "reserved": "",
      "salt": "0x354b7943ea0e72849350fe28c66bc95c924331251f36067f2b6ec74ffd143bca",
      "assetIds": [
        "41506478881403507969696680653240014914910929820314476107906210059990541021185"
      ]
    },
    {
      "x": 329,
      "y": 385,
      "size": 1,
      "price": "4683000000000000000000",
      "reserved": "",
      "salt": "0x3dd7ad304e5d95ad859a122ccae4e665aafa2c4d00beb9b0819f2f849d4547f7",
      "assetIds": [
        "41506478881403507969696680653240014914910929820314476107906210059990541021185"
      ]
    },
    {
      "x": 329,
      "y": 386,
      "size": 1,
      "price": "4683000000000000000000",
      "reserved": "",
      "salt": "0x2dc3c3b0a624ba7398c8fa02430e7467b67d0c89d17e7e4f9c1dba1b4aba88b6",
      "assetIds": [
        "41506478881403507969696680653240014914910929820314476107906210059990541021185"
      ]
    },
    {
      "x": 329,
      "y": 387,
      "size": 1,
      "price": "1011000000000000000000",
      "reserved": "0x7a9fe22691c811ea339d9b73150e6911a5343dca",
      "salt": "0x1e117315874ac4660959ce0405ff9ec25aa1265b21c3b8a67536f138d3b623b4",
      "assetIds": []
    },
    {
      "x": 329,
      "y": 388,
      "size": 1,
      "price": "4683000000000000000000",
      "reserved": "",
      "salt": "0xff5cc71f0d16ec2128a787818f6fa37f56058e4eb88f646363defb10f59222c7",
      "assetIds": [
        "41506478881403507969696680653240014914910929820314476107906210059990541021185"
      ]
    },
    {
      "x": 329,
      "y": 389,
      "size": 1,
      "price": "1011000000000000000000",
      "reserved": "0x7a9fe22691c811ea339d9b73150e6911a5343dca",
      "salt": "0x078ad9e6f0d56a9357200fe96364dd4776d87e276b3d8f1738fd105c2e525ab2",
      "assetIds": []
    },
    {
      "x": 329,
      "y": 393,
      "size": 1,
      "price": "1011000000000000000000",
      "reserved": "0x7a9fe22691c811ea339d9b73150e6911a5343dca",
      "salt": "0xc2b646f2fdfde5566b4ec55c516e257af93d0d7f80edae018afe00ad0ebbe8bb",
      "assetIds": []
    },
    {
      "x": 329,
      "y": 394,
      "size": 1,
      "price": "4683000000000000000000",
      "reserved": "",
      "salt": "0x2ecca80bffcec6e7f714ec9966feb11db2bfdd3ce48cf8225970d9d7adef8e8c",
      "assetIds": [
        "41506478881403507969696680653240014914910929820314476107906210059990541021185"
      ]
    },
    {
      "x": 329,
      "y": 395,
      "size": 1,
      "price": "4683000000000000000000",
      "reserved": "",
      "salt": "0x471d1a67b99c1e86a4cefddbf7db141be9eec58ac84b7cb7734018181de7596d",
      "assetIds": [
        "41506478881403507969696680653240014914910929820314476107906210059990541021185"
      ]
    },
    {
      "x": 330,
      "y": 384,
      "size": 1,
      "price": "1011000000000000000000",
      "reserved": "0x7a9fe22691c811ea339d9b73150e6911a5343dca",
      "salt": "0xb8f423210d49e3e0346a85d5bf50c1f92a666aa2b41ec885deef3939164282d1",
      "assetIds": []
    },
    {
      "x": 330,
      "y": 385,
      "size": 1,
      "price": "1011000000000000000000",
      "reserved": "0x7a9fe22691c811ea339d9b73150e6911a5343dca",
      "salt": "0x8c2202f613ca2e198d56c14351c5c3401587d92a828bc3f0e5890e14e34efc74",
      "assetIds": []
    },
    {
      "x": 330,
      "y": 386,
      "size": 1,
      "price": "1011000000000000000000",
      "reserved": "0x7a9fe22691c811ea339d9b73150e6911a5343dca",
      "salt": "0x41e2d3af08af2ee2afa1a475ea254dbc62c3f076d171ea1e22f7c3bf6f9537b9",
      "assetIds": []
    },
    {
      "x": 331,
      "y": 384,
      "size": 1,
      "price": "4683000000000000000000",
      "reserved": "",
      "salt": "0xa077ca8cf3e6c3a1a5d49f9bd73b38cb93626d5e73488805a8602485e317dd64",
      "assetIds": [
        "41506478881403507969696680653240014914910929820314476107906210059990541021185"
      ]
    },
    {
      "x": 331,
      "y": 385,
      "size": 1,
      "price": "4683000000000000000000",
      "reserved": "",
      "salt": "0x7f5a6bcb8bd3fa62cca5892be09fbba9044763d60f9cf7a5d51b8ff741e40643",
      "assetIds": [
        "41506478881403507969696680653240014914910929820314476107906210059990541021185"
      ]
    },
    {
      "x": 331,
      "y": 386,
      "size": 1,
      "price": "4683000000000000000000",
      "reserved": "",
      "salt": "0xe38459252125b19e7e3ea09e22d2969c3fd642a7cc6ee0afc02dd22dc480ba06",
      "assetIds": [
        "41506478881403507969696680653240014914910929820314476107906210059990541021185"
      ]
    },
    {
      "x": 332,
      "y": 384,
      "size": 1,
      "price": "1011000000000000000000",
      "reserved": "0x7a9fe22691c811ea339d9b73150e6911a5343dca",
      "salt": "0x37ade1006de1bd6be5273f370947eb4959a0d39ea90397a34faa78c3cfdc6199",
      "assetIds": []
    },
    {
      "x": 332,
      "y": 385,
      "size": 1,
      "price": "4683000000000000000000",
      "reserved": "",
      "salt": "0xb679cfa9be0278ec0565f80894611ab61dd80f5d6c68ba78a972e973b29a5ab4",
      "assetIds": [
        "41506478881403507969696680653240014914910929820314476107906210059990541021185"
      ]
    },
    {
      "x": 332,
      "y": 386,
      "size": 1,
      "price": "1011000000000000000000",
      "reserved": "0x7a9fe22691c811ea339d9b73150e6911a5343dca",
      "salt": "0x7b06a33c11a5827e86cbcc8558a03f323de9eb25129ca125bd52425401a6a4ee",
      "assetIds": []
    },
    {
      "x": 312,
      "y": 390,
      "size": 3,
      "price": "8648000000000000000000",
      "reserved": "0x7a9fe22691c811ea339d9b73150e6911a5343dca",
      "salt": "0x9987b798edf6666269d21abeccd91e5e4dc5d5baeadec2698dabe9392d9e52f8",
      "assetIds": []
    },
    {
      "x": 312,
      "y": 402,
      "size": 3,
      "price": "8648000000000000000000",
      "reserved": "0x7a9fe22691c811ea339d9b73150e6911a5343dca",
      "salt": "0x194287f4950572e5c7074ebc5a7d0e4772e77fac0be4055be353c0a353ae3852",
      "assetIds": []
    },
    {
      "x": 315,
      "y": 393,
      "size": 3,
      "price": "8648000000000000000000",
      "reserved": "0x7a9fe22691c811ea339d9b73150e6911a5343dca",
      "salt": "0x8a252827097c1580f54fb70402d66d0859a7f0c7743ebe901898df4906d20a4f",
      "assetIds": []
    },
    {
      "x": 315,
      "y": 399,
      "size": 3,
      "price": "8648000000000000000000",
      "reserved": "0x7a9fe22691c811ea339d9b73150e6911a5343dca",
      "salt": "0xf95fe731f073910e3f7b4d9e15202ac1c975771b5e03147d4d64e0fc39de5d07",
      "assetIds": []
    },
    {
      "x": 315,
      "y": 402,
      "size": 3,
      "price": "8648000000000000000000",
      "reserved": "0x7a9fe22691c811ea339d9b73150e6911a5343dca",
      "salt": "0xf230778acac3ee30193aaab7cf324d7c5b21fb1391d65b3dfd4adfb473047b1a",
      "assetIds": []
    },
    {
      "x": 315,
      "y": 405,
      "size": 3,
      "price": "8648000000000000000000",
      "reserved": "0x7a9fe22691c811ea339d9b73150e6911a5343dca",
      "salt": "0x75ab8d32734b0f91693289077c71dab3b485e55cf5a636541cd84e7625dfac66",
      "assetIds": []
    },
    {
      "x": 318,
      "y": 396,
      "size": 3,
      "price": "8648000000000000000000",
      "reserved": "0x7a9fe22691c811ea339d9b73150e6911a5343dca",
      "salt": "0x7a4d569a8e49b8f26953f649bbc15389b6a403feacfda7cbb35cf6ade24d6574",
      "assetIds": []
    },
    {
      "x": 321,
      "y": 384,
      "size": 3,
      "price": "8648000000000000000000",
      "reserved": "0x7a9fe22691c811ea339d9b73150e6911a5343dca",
      "salt": "0xa612c532bb3fafabc7f1cd0a0bbcf3d814081ec8c92c1ca80c425c20871b5e03",
      "assetIds": []
    },
    {
      "x": 321,
      "y": 402,
      "size": 3,
      "price": "8648000000000000000000",
      "reserved": "0x7a9fe22691c811ea339d9b73150e6911a5343dca",
      "salt": "0x3c33d0a95f685679f45431cd2a7224ed19ce4d3f54d36de5517dcd87abee3d9e",
      "assetIds": []
    },
    {
      "x": 321,
      "y": 405,
      "size": 3,
      "price": "8648000000000000000000",
      "reserved": "0x7a9fe22691c811ea339d9b73150e6911a5343dca",
      "salt": "0x00c5304c9d87228a13943e1ef4572d542b854affb57a4a640795fb4fcd43d18e",
      "assetIds": []
    },
    {
      "x": 324,
      "y": 384,
      "size": 3,
      "price": "8648000000000000000000",
      "reserved": "0x7a9fe22691c811ea339d9b73150e6911a5343dca",
      "salt": "0xd0783d0b940cc5c4120c84bd2071a996a3095429162ea7d873cf7b1962780d76",
      "assetIds": []
    },
    {
      "x": 324,
      "y": 387,
      "size": 3,
      "price": "8648000000000000000000",
      "reserved": "0x7a9fe22691c811ea339d9b73150e6911a5343dca",
      "salt": "0x9b48988308ab930f548c38ec588b67d75a9da69d94d41d3defa07c2d302dfe73",
      "assetIds": []
    },
    {
      "x": 324,
      "y": 393,
      "size": 3,
      "price": "8648000000000000000000",
      "reserved": "0x7a9fe22691c811ea339d9b73150e6911a5343dca",
      "salt": "0xaae7b579945ca535ae7f8044c74fc4696cf18508554ee549154384827ffc27e4",
      "assetIds": []
    },
    {
      "x": 327,
      "y": 390,
      "size": 3,
      "price": "8648000000000000000000",
      "reserved": "0x7a9fe22691c811ea339d9b73150e6911a5343dca",
      "salt": "0xd744c0fab653d37725984ad8d87f214559ba5513e9a457a47c9cf6a5a48cd5ec",
      "assetIds": []
    },
    {
      "x": 330,
      "y": 387,
      "size": 3,
      "price": "8648000000000000000000",
      "reserved": "0x7a9fe22691c811ea339d9b73150e6911a5343dca",
      "salt": "0xb2a771ede7b26e02c53867d7a93e24aaabb811448cb8bce745efcd0c6ce4be36",
      "assetIds": []
    },
    {
      "x": 333,
      "y": 384,
      "size": 3,
      "price": "8648000000000000000000",
      "reserved": "0x7a9fe22691c811ea339d9b73150e6911a5343dca",
      "salt": "0x9b2249fbf7e68beefa86161f0c131e31717f8023e8aed4c197a3eca238233eef",
      "assetIds": []
    },
    {
      "x": 333,
      "y": 387,
      "size": 3,
      "price": "8648000000000000000000",
      "reserved": "0x7a9fe22691c811ea339d9b73150e6911a5343dca",
      "salt": "0x8e67081c69dd9924e7cb330dc194d260195262f1d2b0a8be0a422855125789ea",
      "assetIds": []
    },
    {
      "x": 312,
      "y": 384,
      "size": 6,
      "price": "32772000000000000000000",
      "reserved": "0x7a9fe22691c811ea339d9b73150e6911a5343dca",
      "salt": "0x02c08c50412b6ab976e4bec93c8fff4ae94430bc8e1a5ff711bd5870bb1b0c8f",
      "assetIds": []
    },
    {
      "x": 318,
      "y": 390,
      "size": 6,
      "price": "32772000000000000000000",
      "reserved": "0x7a9fe22691c811ea339d9b73150e6911a5343dca",
      "salt": "0xf975018efbaf865c379f7f2106bed05ea1bc26704bf3e43f444784bdc6edfe3c",
      "assetIds": []
    },
    {
      "x": 330,
      "y": 390,
      "size": 6,
      "price": "32772000000000000000000",
      "reserved": "0x7a9fe22691c811ea339d9b73150e6911a5343dca",
      "salt": "0x8248499af5800e84df32241a70ca9e1336aba148305f51e77c818eae3b518a8f",
      "assetIds": []
    },
    {
      "x": 324,
      "y": 396,
      "size": 12,
      "price": "123806000000000000000000",
      "reserved": "0x7a9fe22691c811ea339d9b73150e6911a5343dca",
      "salt": "0x0490e3eafdc734d549be2279db40208d2e2dfaf481235a7a961172d53a5834f3",
      "assetIds": []
    }
  ],
  "solcInputHash": "e17a5bb930c92aaeeb80a52119ce77b7",
  "bytecode": "0x610160604052620d2f0060055534801561001857600080fd5b506040516200284d3803806200284d83398181016040526101a081101561003e57600080fd5b50805160208201516040830151606080850151608086015160a08088015160c0808a015160e08b01516101008c01516101208d01516101408e01516101608f0151610180909f0151600280546001600160a01b0319166001600160a01b03871617905560038490558e8c1b6001600160601b03199081169099529a8d901b9097169094529a9b999a98999698959793969195909490939091906100e28b600161015d565b600680546001600160a01b039a8b166001600160a01b031991821617909155610140989098526101209690965260008054998916998816999099179098556001600160601b0319606092831b811660e05290821b811660805296901b909516610100525060078054919093169116179055506101c192505050565b6001600160a01b038216600081815260016020908152604091829020805460ff191685151590811790915582519384529083015280517fb21eb88b4e33b3f1281830a7178d74d8aa73220416215726b68ae23d539515cb9281900390910190a15050565b60805160601c60a05160601c60c05160601c60e05160601c6101005160601c61012051610140516126066200024760003980610b3d528061206c525080610b1952806112ec5250806120da525080611841528061199e5250806117f75280611b9d528061210e525080611872528061196f525080610eb25280611c8952506126066000f3fe608060405234801561001057600080fd5b506004361061011b5760003560e01c80638f283970116100b2578063c10a420811610081578063dc5074af11610066578063dc5074af1461085f578063e56f8a9e14610885578063f23a6e61146108a25761011b565b8063c10a420814610780578063caed3500146108575761011b565b80638f28397014610500578063984d625214610526578063b522ecff146105f8578063bc197c811461061e5761011b565b806365194ce7116100ee57806365194ce7146103485780636e9960c3146104a657806377f1c3ac146104ca5780638a04af6a146104d25761011b565b80631187fd3c1461012057806325cb5bc014610300578063495906571461031a57806358bc294414610322575b600080fd5b6102fe600480360361012081101561013757600080fd5b6001600160a01b038235811692602081013582169260408201359092169181019060808101606082013564010000000081111561017357600080fd5b82018360208201111561018557600080fd5b803590602001918460208302840111640100000000831117156101a757600080fd5b919390928235926040810190602001356401000000008111156101c957600080fd5b8201836020820111156101db57600080fd5b803590602001918460208302840111640100000000831117156101fd57600080fd5b91939092909160208101903564010000000081111561021b57600080fd5b82018360208201111561022d57600080fd5b8035906020019184602083028401116401000000008311171561024f57600080fd5b91939092909160208101903564010000000081111561026d57600080fd5b82018360208201111561027f57600080fd5b803590602001918460018302840111640100000000831117156102a157600080fd5b9193909290916020810190356401000000008111156102bf57600080fd5b8201836020820111156102d157600080fd5b803590602001918460018302840111640100000000831117156102f357600080fd5b509092509050610937565b005b610308610b17565b60408051918252519081900360200190f35b610308610b3b565b6102fe6004803603602081101561033857600080fd5b50356001600160a01b0316610b5f565b6103ee6004803603602081101561035e57600080fd5b81019060208101813564010000000081111561037957600080fd5b82018360208201111561038b57600080fd5b803590602001918460018302840111640100000000831117156103ad57600080fd5b91908080601f016020809104026020016040519081016040528093929190818152602001838380828437600092019190915250929550610c0a945050505050565b6040518080602001866001600160a01b03166001600160a01b03168152602001856001600160a01b03166001600160a01b03168152602001848152602001838152602001828103825287818151815260200191508051906020019080838360005b8381101561046757818101518382015260200161044f565b50505050905090810190601f1680156104945780820380516001836020036101000a031916815260200191505b50965050505050505060405180910390f35b6104ae610d0f565b604080516001600160a01b039092168252519081900360200190f35b610308610d1e565b6102fe600480360360408110156104e857600080fd5b506001600160a01b0381351690602001351515610d24565b6102fe6004803603602081101561051657600080fd5b50356001600160a01b0316610d7b565b6102fe6004803603606081101561053c57600080fd5b6001600160a01b03823516919081019060408101602082013564010000000081111561056757600080fd5b82018360208201111561057957600080fd5b8035906020019184602083028401116401000000008311171561059b57600080fd5b9193909290916020810190356401000000008111156105b957600080fd5b8201836020820111156105cb57600080fd5b803590602001918460208302840111640100000000831117156105ed57600080fd5b509092509050610e51565b6102fe6004803603602081101561060e57600080fd5b50356001600160a01b0316610fdc565b61074b600480360360a081101561063457600080fd5b6001600160a01b03823581169260208101359091169181019060608101604082013564010000000081111561066857600080fd5b82018360208201111561067a57600080fd5b8035906020019184602083028401116401000000008311171561069c57600080fd5b9193909290916020810190356401000000008111156106ba57600080fd5b8201836020820111156106cc57600080fd5b803590602001918460208302840111640100000000831117156106ee57600080fd5b91939092909160208101903564010000000081111561070c57600080fd5b82018360208201111561071e57600080fd5b8035906020019184600183028401116401000000008311171561074057600080fd5b5090925090506110c5565b604080517fffffffff000000000000000000000000000000000000000000000000000000009092168252519081900360200190f35b610843600480360360a081101561079657600080fd5b8101906020810181356401000000008111156107b157600080fd5b8201836020820111156107c357600080fd5b803590602001918460018302840111640100000000831117156107e557600080fd5b91908080601f016020809104026020016040519081016040528093929190818152602001838380828437600092019190915250929550506001600160a01b0383358116945060208401351692604081013592506060013590506110f2565b604080519115158252519081900360200190f35b6104ae61122e565b6108436004803603602081101561087557600080fd5b50356001600160a01b031661123d565b6102fe6004803603602081101561089b57600080fd5b503561125b565b61074b600480360360a08110156108b857600080fd5b6001600160a01b03823581169260208101359091169160408201359160608101359181019060a0810160808201356401000000008111156108f857600080fd5b82018360208201111561090a57600080fd5b8035906020019184600183028401116401000000008311171561092c57600080fd5b5090925090506112bf565b6109418e8d6112ea565b610a388d8d8d8d80806020026020016040519081016040528093929190818152602001838360200280828437600081840152601f19601f820116905080830192505050505050508c8c8c80806020026020016040519081016040528093929190818152602001838360200280828437600081840152601f19601f820116905080830192505050505050508b8b8080602002602001604051908101604052809392919081815260200183836020028082843760009201919091525050604080516020601f8d018190048102820181019092528b815292508b91508a908190840183828082843760009201919091525061144d92505050565b610a8c8e8c8c6003818110610a4957fe5b9050602002013586868080601f0160208091040260200160405190810160405280939291908181526020018383808284376000920191909152506117d092505050565b610aca8e8e8d8d8080602002602001604051908101604052809392919081815260200183836020028082843760009201919091525061182192505050565b610b078d898980806020026020016040519081016040528093929190818152602001838360200280828437600092019190915250611c1292505050565b5050505050505050505050505050565b7f000000000000000000000000000000000000000000000000000000000000000090565b7f000000000000000000000000000000000000000000000000000000000000000090565b6000546001600160a01b03163314610bbe576040805162461bcd60e51b815260206004820152601060248201527f53656e646572206e6f742061646d696e00000000000000000000000000000000604482015290519081900360640190fd5b600554600280546001600160a01b03908116600090815260046020526040902042909301909255805473ffffffffffffffffffffffffffffffffffffffff191692909116919091179055565b606060008060008060606000806000808a80602001905160a0811015610c2f57600080fd5b8101908080516040519392919084640100000000821115610c4f57600080fd5b908301906020820185811115610c6457600080fd5b8251640100000000811182820188101715610c7e57600080fd5b82525081516020918201929091019080838360005b83811015610cab578181015183820152602001610c93565b50505050905090810190601f168015610cd85780820380516001836020036101000a031916815260200191505b5060409081526020820151908201516060830151608090930151959f50909d509b5099509197505050505050505091939590929450565b6000546001600160a01b031690565b60035490565b6000546001600160a01b03163314610d6d5760405162461bcd60e51b815260040180806020018281038252602e8152602001806125a3602e913960400191505060405180910390fd5b610d778282611dd6565b5050565b6000546001600160a01b03163314610dda576040805162461bcd60e51b815260206004820152601b60248201527f6f6e6c792061646d696e2063616e206368616e67652061646d696e0000000000604482015290519081900360640190fd5b600054604080516001600160a01b039283168152918316602083015280517f7e644d79422f17c01e4894b5f4f588d331ebfa28653d42ae832dc59e38c9798f9281900390910190a16000805473ffffffffffffffffffffffffffffffffffffffff19166001600160a01b0392909216919091179055565b6000546001600160a01b03163314610eb0576040805162461bcd60e51b815260206004820152600e60248201527f4e4f545f415554484f52495a4544000000000000000000000000000000000000604482015290519081900360640190fd5b7f00000000000000000000000000000000000000000000000000000000000000006001600160a01b0316632eb2c2d63087878787876040518763ffffffff1660e01b815260040180876001600160a01b03166001600160a01b03168152602001866001600160a01b03166001600160a01b031681526020018060200180602001806020018481038452888882818152602001925060200280828437600083820152601f01601f19169091018581038452868152602090810191508790870280828437600081840152601f19601f8201169050808301925050508481038252600081526020016020019950505050505050505050600060405180830381600087803b158015610fbd57600080fd5b505af1158015610fd1573d6000803e3d6000fd5b505050505050505050565b6001600160a01b038116611037576040805162461bcd60e51b815260206004820152600c60248201527f5a45524f5f414444524553530000000000000000000000000000000000000000604482015290519081900360640190fd5b6000546001600160a01b03163314611096576040805162461bcd60e51b815260206004820152600e60248201527f4e4f545f415554484f52495a4544000000000000000000000000000000000000604482015290519081900360640190fd5b6006805473ffffffffffffffffffffffffffffffffffffffff19166001600160a01b0392909216919091179055565b7fbc197c810000000000000000000000000000000000000000000000000000000098975050505050505050565b60006003548211806111155750836001600160a01b0316856001600160a01b0316145b8061111f57508242115b1561112c57506000611225565b60408051606087811b7fffffffffffffffffffffffffffffffffffffffff0000000000000000000000009081166020808501919091529188901b166034830152604882018690526068808301869052835180840390910181526088830184528051908201207f19457468657265756d205369676e6564204d6573736167653a0a33320000000060a884015260c48084018290528451808503909101815260e490930190935281519101206000906111e39089611e58565b6001600160a01b038116600090815260046020526040902054909150421161121057600192505050611225565b6002546001600160a01b039081169116149150505b95945050505050565b6002546001600160a01b031690565b6001600160a01b031660009081526001602052604090205460ff1690565b6000546001600160a01b031633146112ba576040805162461bcd60e51b815260206004820152601060248201527f53656e646572206e6f742061646d696e00000000000000000000000000000000604482015290519081900360640190fd5b600355565b7ff23a6e61000000000000000000000000000000000000000000000000000000009695505050505050565b7f0000000000000000000000000000000000000000000000000000000000000000421061135e576040805162461bcd60e51b815260206004820152600c60248201527f53414c455f49535f4f5645520000000000000000000000000000000000000000604482015290519081900360640190fd5b6001600160a01b03821633148061138457503360009081526001602052604090205460ff165b6113d5576040805162461bcd60e51b815260206004820152600e60248201527f4e4f545f415554484f52495a4544000000000000000000000000000000000000604482015290519081900360640190fd5b6001600160a01b03811615806113fc5750816001600160a01b0316816001600160a01b0316145b610d77576040805162461bcd60e51b815260206004820152600d60248201527f52455345525645445f4c414e4400000000000000000000000000000000000000604482015290519081900360640190fd5b600087878760008151811061145e57fe5b60200260200101518860018151811061147357fe5b60200260200101518960028151811061148857fe5b60200260200101518a60038151811061149d57fe5b60200260200101518a8a60405160200180828051906020019060200280838360005b838110156114d75781810151838201526020016114bf565b50505050905001915050604051602081830303815290604052805190602001208a60405160200180828051906020019060200280838360005b83811015611528578181015183820152602001611510565b5050505090500191505060405160208183030381529060405280519060200120604051602001808a6001600160a01b03166001600160a01b031660601b8152601401896001600160a01b03166001600160a01b031660601b81526014018881526020018781526020018681526020018581526020018481526020018381526020018281526020019950505050505050505050604051602081830303815290604052805190602001209050600760009054906101000a90046001600160a01b03166001600160a01b031663012847ed83836040518363ffffffff1660e01b81526004018080602001838152602001828103825284818151815260200191508051906020019080838360005b8381101561164a578181015183820152602001611632565b50505050905090810190601f1680156116775780820380516001836020036101000a031916815260200191505b50935050505060206040518083038186803b15801561169557600080fd5b505afa1580156116a9573d6000803e3d6000fd5b505050506040513d60208110156116bf57600080fd5b5051611712576040805162461bcd60e51b815260206004820152600c60248201527f494e56414c49445f415554480000000000000000000000000000000000000000604482015290519081900360640190fd5b60006117738760008151811061172457fe5b60200260200101518860018151811061173957fe5b60200260200101518960028151811061174e57fe5b60200260200101518a60038151811061176357fe5b60200260200101518c8b8b611f25565b905061177f8482611fca565b610fd1576040805162461bcd60e51b815260206004820152600c60248201527f494e56414c49445f4c414e440000000000000000000000000000000000000000604482015290519081900360640190fd5b60006117dc8484612095565b60065490915061181b908590839085906001600160a01b03167f00000000000000000000000000000000000000000000000000000000000000006121ee565b50505050565b8060028151811061182e57fe5b60200260200101516001148061186b57507f00000000000000000000000000000000000000000000000000000000000000006001600160a01b0316155b1561196d577f00000000000000000000000000000000000000000000000000000000000000006001600160a01b0316636e1e3bbf83836002815181106118ad57fe5b6020026020010151846000815181106118c257fe5b6020026020010151856001815181106118d757fe5b60200260200101516040518563ffffffff1660e01b815260040180856001600160a01b03166001600160a01b031681526020018481526020018381526020018281526020018060200182810382526000815260200160200195505050505050600060405180830381600087803b15801561195057600080fd5b505af1158015611964573d6000803e3d6000fd5b50505050611b0d565b7f00000000000000000000000000000000000000000000000000000000000000006001600160a01b0316636e1e3bbf7f0000000000000000000000000000000000000000000000000000000000000000836002815181106119ca57fe5b6020026020010151846000815181106119df57fe5b6020026020010151856001815181106119f457fe5b60200260200101518760405160200180826001600160a01b03166001600160a01b031681526020019150506040516020818303038152906040526040518663ffffffff1660e01b815260040180866001600160a01b03166001600160a01b0316815260200185815260200184815260200183815260200180602001828103825283818151815260200191508051906020019080838360005b83811015611aa4578181015183820152602001611a8c565b50505050905090810190601f168015611ad15780820380516001836020036101000a031916815260200191505b509650505050505050600060405180830381600087803b158015611af457600080fd5b505af1158015611b08573d6000803e3d6000fd5b505050505b61019881600181518110611b1d57fe5b60200260200101510281600081518110611b3357fe5b602002602001015101826001600160a01b0316846001600160a01b03167fe4dfa6ac11314892f3029b34a25b1a887da3b1cab2bbf8506d87128ba6e3ac0284600281518110611b7e57fe5b602002602001015185600381518110611b9357fe5b60200260200101517f000000000000000000000000000000000000000000000000000000000000000087600381518110611bc957fe5b602002602001015160405180858152602001848152602001836001600160a01b03166001600160a01b0316815260200182815260200194505050505060405180910390a4505050565b6060815167ffffffffffffffff81118015611c2c57600080fd5b50604051908082528060200260200182016040528015611c56578160200160208202803683370190505b50905060005b8251811015611c86576001828281518110611c7357fe5b6020908102919091010152600101611c5c565b507f00000000000000000000000000000000000000000000000000000000000000006001600160a01b0316632eb2c2d6308585856040518563ffffffff1660e01b815260040180856001600160a01b03166001600160a01b03168152602001846001600160a01b03166001600160a01b03168152602001806020018060200180602001848103845286818151815260200191508051906020019060200280838360005b83811015611d41578181015183820152602001611d29565b50505050905001848103835285818151815260200191508051906020019060200280838360005b83811015611d80578181015183820152602001611d68565b50505050905001848103825260008152602001602001975050505050505050600060405180830381600087803b158015611db957600080fd5b505af1158015611dcd573d6000803e3d6000fd5b50505050505050565b6001600160a01b03821660008181526001602090815260409182902080547fffffffffffffffffffffffffffffffffffffffffffffffffffffffffffffff001685151590811790915582519384529083015280517fb21eb88b4e33b3f1281830a7178d74d8aa73220416215726b68ae23d539515cb9281900390910190a15050565b60008151604114611e6857600080fd5b60208201516040830151606084015160001a601b811015611e8757601b015b8060ff16601b1480611e9c57508060ff16601c145b611ea557600080fd5b6040805160008152602080820180845289905260ff8416828401526060820186905260808201859052915160019260a0808401939192601f1981019281900390910190855afa158015611efc573d6000803e3d6000fd5b5050604051601f1901519450506001600160a01b038416611f1c57600080fd5b50505092915050565b60008787878787878760405160200180888152602001878152602001868152602001858152602001846001600160a01b03166001600160a01b031660601b8152601401838152602001828051906020019060200280838360005b83811015611f97578181015183820152602001611f7f565b50505050905001975050505050505050604051602081830303815290604052805190602001209050979650505050505050565b600081815b8451811015612069576000858281518110611fe657fe5b602002602001015190508083101561202e5782816040516020018083815260200182815260200192505050604051602081830303815290604052805190602001209250612060565b808360405160200180838152602001828152602001925050506040516020818303038152906040528051906020012092505b50600101611fcf565b507f00000000000000000000000000000000000000000000000000000000000000001490505b92915050565b6000806120ba60646120ae85600563ffffffff61247016565b9063ffffffff6124e016565b604080516323b872dd60e01b81526001600160a01b0387811660048301527f0000000000000000000000000000000000000000000000000000000000000000811660248301526044820184905291519293507f0000000000000000000000000000000000000000000000000000000000000000909116916323b872dd916064808201926020929091908290030181600087803b15801561215957600080fd5b505af115801561216d573d6000803e3d6000fd5b505050506040513d602081101561218357600080fd5b50516121d6576040805162461bcd60e51b815260206004820152601360248201527f4645455f5452414e534645525f4641494c454400000000000000000000000000604482015290519081900360640190fd5b6121e6838263ffffffff61254516565b949350505050565b8251819085901561239857606060008060008061220a8a610c0a565b939850919650945092509050600061222586868686866110f2565b156122b35761223f6122378d84612470565b6127106124e0565b9050886001600160a01b0316846001600160a01b0316866001600160a01b03167fac7a699eb95c3c6d390ec4626de17ef9a67b35891efdb197beba7c7fdd45fac48f858760405180848152602001838152602001828152602001935050505060405180910390a46122b08782612545565b96505b801561239157604080516323b872dd60e01b81526001600160a01b038f811660048301528781166024830152604482018490529151918a16916323b872dd916064808201926020929091908290030181600087803b15801561231457600080fd5b505af1158015612328573d6000803e3d6000fd5b505050506040513d602081101561233e57600080fd5b5051612391576040805162461bcd60e51b815260206004820152601960248201527f636f6d6d6973696f6e207472616e73666572206661696c656400000000000000604482015290519081900360640190fd5b5050505050505b604080516323b872dd60e01b81526001600160a01b0389811660048301528681166024830152604482018490529151918416916323b872dd916064808201926020929091908290030181600087803b1580156123f357600080fd5b505af1158015612407573d6000803e3d6000fd5b505050506040513d602081101561241d57600080fd5b5051611dcd576040805162461bcd60e51b815260206004820152601760248201527f7061796d656e74207472616e73666572206661696c6564000000000000000000604482015290519081900360640190fd5b60008261247f5750600061208f565b508181028183828161248d57fe5b041461208f576040805162461bcd60e51b815260206004820152600860248201527f6f766572666c6f77000000000000000000000000000000000000000000000000604482015290519081900360640190fd5b600081612534576040805162461bcd60e51b815260206004820152600960248201527f64697662797a65726f0000000000000000000000000000000000000000000000604482015290519081900360640190fd5b81838161253d57fe5b049392505050565b60008282111561259c576040805162461bcd60e51b815260206004820152600860248201527f756e6465666c6f77000000000000000000000000000000000000000000000000604482015290519081900360640190fd5b5090039056fe6f6e6c792061646d696e2063616e207365747570206d6574615472616e73616374696f6e50726f636573736f7273a2646970667358221220fc9205bafc138c1de206481f144dc3e7818922fbe1a20d2a71392e5e2e413c1a64736f6c63430006050033",
  "devdoc": {
    "methods": {
      "buyLandWithSand(address,address,address,uint256[],bytes32,uint256[],bytes32[],bytes,bytes)": {
        "params": {
          "buyer": "address that perform the payment",
          "info": "[X_INDEX=0] x coordinate of the Land [Y_INDEX=1] y coordinate of the Land [SIZE_INDEX=2] size of the pack of Land to purchase [PRICE_INDEX=3] price in SAND to purchase that Land",
          "proof": "merkleProof for that particular Land",
          "reserved": "the reserved address (if any)",
          "to": "address that will own the purchased Land"
        }
      },
      "changeAdmin(address)": {
        "details": "change the administrator to be `newAdmin`.",
        "params": {
          "newAdmin": "address of the new administrator."
        }
      },
      "getAdmin()": {
        "details": "gives the current administrator of this contract.",
        "returns": {
          "_0": "the current administrator of this contract."
        }
      },
      "getSigningWallet()": {
        "details": "signing wallet authorized for referral",
        "returns": {
          "_0": "the address of the signing wallet"
        }
      },
      "isMetaTransactionProcessor(address)": {
        "details": "check whether address `who` is given meta-transaction execution rights.",
        "params": {
          "who": "The address to query."
        },
        "returns": {
          "_0": "whether the address has meta-transaction execution rights."
        }
      },
      "isReferralValid(bytes,address,address,uint256,uint256)": {
        "params": {
          "commissionRate": "The commissionRate of the referral",
          "expiryTime": "The expiry time of the referral",
          "referee": "The address of the referee",
          "referrer": "The address of the referrer",
          "signature": "The signature to check (signed referral)"
        },
        "returns": {
          "_0": "True if the referral is valid"
        }
      },
      "setMetaTransactionProcessor(address,bool)": {
        "details": "Enable or disable the ability of `metaTransactionProcessor` to perform meta-tx (metaTransactionProcessor rights).",
        "params": {
          "enabled": "set whether the metaTransactionProcessor is enabled or disabled.",
          "metaTransactionProcessor": "address that will be given/removed metaTransactionProcessor rights."
        }
      },
      "setReceivingWallet(address)": {
        "params": {
          "newWallet": "address of the new receiving wallet"
        }
      },
      "updateMaxCommissionRate(uint256)": {
        "details": "Update the maximum commission rate",
        "params": {
          "newMaxCommissionRate": "The new maximum commission rate"
        }
      },
      "updateSigningWallet(address)": {
        "details": "Update the signing wallet",
        "params": {
          "newSigningWallet": "The new address of the signing wallet"
        }
      },
      "withdrawAssets(address,uint256[],uint256[])": {
        "params": {
          "assetIds": "the assetIds to be transferred",
          "to": "intended recipient of the asset tokens",
          "values": "the quantities of the assetIds to be transferred"
        }
      }
    },
    "title": "Estate Sale contract with referral"
  },
  "userdoc": {
    "methods": {
      "buyLandWithSand(address,address,address,uint256[],bytes32,uint256[],bytes32[],bytes,bytes)": {
        "notice": "buy Land with SAND using the merkle proof associated with it"
      },
      "getExpiryTime()": {
        "notice": "Gets the expiry time for the current sale"
      },
      "getMaxCommisionRate()": {
        "notice": "the max commision rate"
      },
      "getMerkleRoot()": {
        "notice": "Gets the Merkle root associated with the current sale"
      },
      "isReferralValid(bytes,address,address,uint256,uint256)": {
        "notice": "Check if a referral is valid"
      },
      "setReceivingWallet(address)": {
        "notice": "set the wallet receiving the proceeds"
      },
      "withdrawAssets(address,uint256[],uint256[])": {
        "notice": "enable Admin to withdraw remaining assets from EstateSaleWithFee contract"
      }
    },
    "notice": "This contract manages the sale of our lands as Estates"
  },
  "storageLayout": {
    "storage": [
      {
        "astId": 13650,
        "contract": "src/solc_0.6/EstateSale/EstateSaleWithAuth.sol:EstateSaleWithAuth",
        "label": "_admin",
        "offset": 0,
        "slot": "0",
        "type": "t_address"
      },
      {
        "astId": 13712,
        "contract": "src/solc_0.6/EstateSale/EstateSaleWithAuth.sol:EstateSaleWithAuth",
        "label": "_metaTransactionContracts",
        "offset": 0,
        "slot": "1",
        "type": "t_mapping(t_address,t_bool)"
      },
      {
        "astId": 11828,
        "contract": "src/solc_0.6/EstateSale/EstateSaleWithAuth.sol:EstateSaleWithAuth",
        "label": "_signingWallet",
        "offset": 0,
        "slot": "2",
        "type": "t_address"
      },
      {
        "astId": 11830,
        "contract": "src/solc_0.6/EstateSale/EstateSaleWithAuth.sol:EstateSaleWithAuth",
        "label": "_maxCommissionRate",
        "offset": 0,
        "slot": "3",
        "type": "t_uint256"
      },
      {
        "astId": 11834,
        "contract": "src/solc_0.6/EstateSale/EstateSaleWithAuth.sol:EstateSaleWithAuth",
        "label": "_previousSigningWallets",
        "offset": 0,
        "slot": "4",
        "type": "t_mapping(t_address,t_uint256)"
      },
      {
        "astId": 11843,
        "contract": "src/solc_0.6/EstateSale/EstateSaleWithAuth.sol:EstateSaleWithAuth",
        "label": "_previousSigningDelay",
        "offset": 0,
        "slot": "5",
        "type": "t_uint256"
      },
      {
        "astId": 7453,
        "contract": "src/solc_0.6/EstateSale/EstateSaleWithAuth.sol:EstateSaleWithAuth",
        "label": "_wallet",
        "offset": 0,
        "slot": "6",
        "type": "t_address_payable"
      },
      {
        "astId": 7455,
        "contract": "src/solc_0.6/EstateSale/EstateSaleWithAuth.sol:EstateSaleWithAuth",
        "label": "_authValidator",
        "offset": 0,
        "slot": "7",
        "type": "t_contract(AuthValidator)6784"
      }
    ],
    "types": {
      "t_address": {
        "encoding": "inplace",
        "label": "address",
        "numberOfBytes": "20"
      },
      "t_address_payable": {
        "encoding": "inplace",
        "label": "address payable",
        "numberOfBytes": "20"
      },
      "t_bool": {
        "encoding": "inplace",
        "label": "bool",
        "numberOfBytes": "1"
      },
      "t_contract(AuthValidator)6784": {
        "encoding": "inplace",
        "label": "contract AuthValidator",
        "numberOfBytes": "20"
      },
      "t_mapping(t_address,t_bool)": {
        "encoding": "mapping",
        "key": "t_address",
        "label": "mapping(address => bool)",
        "numberOfBytes": "32",
        "value": "t_bool"
      },
      "t_mapping(t_address,t_uint256)": {
        "encoding": "mapping",
        "key": "t_address",
        "label": "mapping(address => uint256)",
        "numberOfBytes": "32",
        "value": "t_uint256"
      },
      "t_uint256": {
        "encoding": "inplace",
        "label": "uint256",
        "numberOfBytes": "32"
      }
    }
  }
}