{
  "address": "0xC4cb57EBE5e084e9Bd9eBAf63C953309FB7c28a9",
  "abi": [
    {
      "inputs": [
        {
          "internalType": "address",
          "name": "landAddress",
          "type": "address"
        },
        {
          "internalType": "address",
          "name": "sandContractAddress",
          "type": "address"
        },
        {
          "internalType": "address",
          "name": "initialMetaTx",
          "type": "address"
        },
        {
          "internalType": "address",
          "name": "admin",
          "type": "address"
        },
        {
          "internalType": "address payable",
          "name": "initialWalletAddress",
          "type": "address"
        },
        {
          "internalType": "bytes32",
          "name": "merkleRoot",
          "type": "bytes32"
        },
        {
          "internalType": "uint256",
          "name": "expiryTime",
          "type": "uint256"
        },
        {
          "internalType": "address",
          "name": "initialSigningWallet",
          "type": "address"
        },
        {
          "internalType": "uint256",
          "name": "initialMaxCommissionRate",
          "type": "uint256"
        },
        {
          "internalType": "address",
          "name": "estate",
          "type": "address"
        },
        {
          "internalType": "address",
          "name": "asset",
          "type": "address"
        },
        {
          "internalType": "address",
          "name": "feeDistributor",
          "type": "address"
        }
      ],
      "stateMutability": "nonpayable",
      "type": "constructor"
    },
    {
      "anonymous": false,
      "inputs": [
        {
          "indexed": false,
          "internalType": "address",
          "name": "oldAdmin",
          "type": "address"
        },
        {
          "indexed": false,
          "internalType": "address",
          "name": "newAdmin",
          "type": "address"
        }
      ],
      "name": "AdminChanged",
      "type": "event"
    },
    {
      "anonymous": false,
      "inputs": [
        {
          "indexed": true,
          "internalType": "address",
          "name": "buyer",
          "type": "address"
        },
        {
          "indexed": true,
          "internalType": "address",
          "name": "to",
          "type": "address"
        },
        {
          "indexed": true,
          "internalType": "uint256",
          "name": "topCornerId",
          "type": "uint256"
        },
        {
          "indexed": false,
          "internalType": "uint256",
          "name": "size",
          "type": "uint256"
        },
        {
          "indexed": false,
          "internalType": "uint256",
          "name": "price",
          "type": "uint256"
        },
        {
          "indexed": false,
          "internalType": "address",
          "name": "token",
          "type": "address"
        },
        {
          "indexed": false,
          "internalType": "uint256",
          "name": "amountPaid",
          "type": "uint256"
        }
      ],
      "name": "LandQuadPurchased",
      "type": "event"
    },
    {
      "anonymous": false,
      "inputs": [
        {
          "indexed": false,
          "internalType": "address",
          "name": "metaTransactionProcessor",
          "type": "address"
        },
        {
          "indexed": false,
          "internalType": "bool",
          "name": "enabled",
          "type": "bool"
        }
      ],
      "name": "MetaTransactionProcessor",
      "type": "event"
    },
    {
      "anonymous": false,
      "inputs": [
        {
          "indexed": true,
          "internalType": "address",
          "name": "referrer",
          "type": "address"
        },
        {
          "indexed": true,
          "internalType": "address",
          "name": "referee",
          "type": "address"
        },
        {
          "indexed": true,
          "internalType": "address",
          "name": "token",
          "type": "address"
        },
        {
          "indexed": false,
          "internalType": "uint256",
          "name": "amount",
          "type": "uint256"
        },
        {
          "indexed": false,
          "internalType": "uint256",
          "name": "commission",
          "type": "uint256"
        },
        {
          "indexed": false,
          "internalType": "uint256",
          "name": "commissionRate",
          "type": "uint256"
        }
      ],
      "name": "ReferralUsed",
      "type": "event"
    },
    {
      "inputs": [
        {
          "internalType": "address",
          "name": "buyer",
          "type": "address"
        },
        {
          "internalType": "address",
          "name": "to",
          "type": "address"
        },
        {
          "internalType": "address",
          "name": "reserved",
          "type": "address"
        },
        {
          "internalType": "uint256",
          "name": "x",
          "type": "uint256"
        },
        {
          "internalType": "uint256",
          "name": "y",
          "type": "uint256"
        },
        {
          "internalType": "uint256",
          "name": "size",
          "type": "uint256"
        },
        {
          "internalType": "uint256",
          "name": "priceInSand",
          "type": "uint256"
        },
        {
          "internalType": "uint256",
          "name": "adjustedPriceInSand",
          "type": "uint256"
        },
        {
          "internalType": "bytes32",
          "name": "salt",
          "type": "bytes32"
        },
        {
          "internalType": "uint256[]",
          "name": "assetIds",
          "type": "uint256[]"
        },
        {
          "internalType": "bytes32[]",
          "name": "proof",
          "type": "bytes32[]"
        },
        {
          "internalType": "bytes",
          "name": "referral",
          "type": "bytes"
        }
      ],
      "name": "buyLandWithSand",
      "outputs": [],
      "stateMutability": "nonpayable",
      "type": "function"
    },
    {
      "inputs": [
        {
          "internalType": "address",
          "name": "newAdmin",
          "type": "address"
        }
      ],
      "name": "changeAdmin",
      "outputs": [],
      "stateMutability": "nonpayable",
      "type": "function"
    },
    {
      "inputs": [
        {
          "internalType": "bytes",
          "name": "referral",
          "type": "bytes"
        }
      ],
      "name": "decodeReferral",
      "outputs": [
        {
          "internalType": "bytes",
          "name": "",
          "type": "bytes"
        },
        {
          "internalType": "address",
          "name": "",
          "type": "address"
        },
        {
          "internalType": "address",
          "name": "",
          "type": "address"
        },
        {
          "internalType": "uint256",
          "name": "",
          "type": "uint256"
        },
        {
          "internalType": "uint256",
          "name": "",
          "type": "uint256"
        }
      ],
      "stateMutability": "pure",
      "type": "function"
    },
    {
      "inputs": [],
      "name": "getAdmin",
      "outputs": [
        {
          "internalType": "address",
          "name": "",
          "type": "address"
        }
      ],
      "stateMutability": "view",
      "type": "function"
    },
    {
      "inputs": [],
      "name": "getExpiryTime",
      "outputs": [
        {
          "internalType": "uint256",
          "name": "",
          "type": "uint256"
        }
      ],
      "stateMutability": "view",
      "type": "function"
    },
    {
      "inputs": [],
      "name": "getMaxCommisionRate",
      "outputs": [
        {
          "internalType": "uint256",
          "name": "",
          "type": "uint256"
        }
      ],
      "stateMutability": "view",
      "type": "function"
    },
    {
      "inputs": [],
      "name": "getMerkleRoot",
      "outputs": [
        {
          "internalType": "bytes32",
          "name": "",
          "type": "bytes32"
        }
      ],
      "stateMutability": "view",
      "type": "function"
    },
    {
      "inputs": [],
      "name": "getSandMultiplier",
      "outputs": [
        {
          "internalType": "uint256",
          "name": "",
          "type": "uint256"
        }
      ],
      "stateMutability": "view",
      "type": "function"
    },
    {
      "inputs": [],
      "name": "getSigningWallet",
      "outputs": [
        {
          "internalType": "address",
          "name": "",
          "type": "address"
        }
      ],
      "stateMutability": "view",
      "type": "function"
    },
    {
      "inputs": [
        {
          "internalType": "address",
          "name": "who",
          "type": "address"
        }
      ],
      "name": "isMetaTransactionProcessor",
      "outputs": [
        {
          "internalType": "bool",
          "name": "",
          "type": "bool"
        }
      ],
      "stateMutability": "view",
      "type": "function"
    },
    {
      "inputs": [
        {
          "internalType": "bytes",
          "name": "signature",
          "type": "bytes"
        },
        {
          "internalType": "address",
          "name": "referrer",
          "type": "address"
        },
        {
          "internalType": "address",
          "name": "referee",
          "type": "address"
        },
        {
          "internalType": "uint256",
          "name": "expiryTime",
          "type": "uint256"
        },
        {
          "internalType": "uint256",
          "name": "commissionRate",
          "type": "uint256"
        }
      ],
      "name": "isReferralValid",
      "outputs": [
        {
          "internalType": "bool",
          "name": "",
          "type": "bool"
        }
      ],
      "stateMutability": "view",
      "type": "function"
    },
    {
      "inputs": [
        {
          "internalType": "address",
          "name": "",
          "type": "address"
        },
        {
          "internalType": "address",
          "name": "",
          "type": "address"
        },
        {
          "internalType": "uint256[]",
          "name": "",
          "type": "uint256[]"
        },
        {
          "internalType": "uint256[]",
          "name": "",
          "type": "uint256[]"
        },
        {
          "internalType": "bytes",
          "name": "",
          "type": "bytes"
        }
      ],
      "name": "onERC1155BatchReceived",
      "outputs": [
        {
          "internalType": "bytes4",
          "name": "",
          "type": "bytes4"
        }
      ],
      "stateMutability": "pure",
      "type": "function"
    },
    {
      "inputs": [
        {
          "internalType": "address",
          "name": "",
          "type": "address"
        },
        {
          "internalType": "address",
          "name": "",
          "type": "address"
        },
        {
          "internalType": "uint256",
          "name": "",
          "type": "uint256"
        },
        {
          "internalType": "uint256",
          "name": "",
          "type": "uint256"
        },
        {
          "internalType": "bytes",
          "name": "",
          "type": "bytes"
        }
      ],
      "name": "onERC1155Received",
      "outputs": [
        {
          "internalType": "bytes4",
          "name": "",
          "type": "bytes4"
        }
      ],
      "stateMutability": "pure",
      "type": "function"
    },
    {
      "inputs": [
        {
          "internalType": "uint256",
          "name": "newMultiplier",
          "type": "uint256"
        }
      ],
      "name": "rebalanceSand",
      "outputs": [],
      "stateMutability": "nonpayable",
      "type": "function"
    },
    {
      "inputs": [
        {
          "internalType": "address",
          "name": "metaTransactionProcessor",
          "type": "address"
        },
        {
          "internalType": "bool",
          "name": "enabled",
          "type": "bool"
        }
      ],
      "name": "setMetaTransactionProcessor",
      "outputs": [],
      "stateMutability": "nonpayable",
      "type": "function"
    },
    {
      "inputs": [
        {
          "internalType": "address payable",
          "name": "newWallet",
          "type": "address"
        }
      ],
      "name": "setReceivingWallet",
      "outputs": [],
      "stateMutability": "nonpayable",
      "type": "function"
    },
    {
      "inputs": [
        {
          "internalType": "uint256",
          "name": "newMaxCommissionRate",
          "type": "uint256"
        }
      ],
      "name": "updateMaxCommissionRate",
      "outputs": [],
      "stateMutability": "nonpayable",
      "type": "function"
    },
    {
      "inputs": [
        {
          "internalType": "address",
          "name": "newSigningWallet",
          "type": "address"
        }
      ],
      "name": "updateSigningWallet",
      "outputs": [],
      "stateMutability": "nonpayable",
      "type": "function"
    },
    {
      "inputs": [
        {
          "internalType": "address",
          "name": "to",
          "type": "address"
        },
        {
          "internalType": "uint256[]",
          "name": "assetIds",
          "type": "uint256[]"
        },
        {
          "internalType": "uint256[]",
          "name": "values",
          "type": "uint256[]"
        }
      ],
      "name": "withdrawAssets",
      "outputs": [],
      "stateMutability": "nonpayable",
      "type": "function"
    }
  ],
  "transactionHash": "0x032bc6a271342f9487577df7534fcb52f571fa7615c3020dd0756fb1b83a0f5d",
  "args": [
    "0xaF40A483bF77AAb7b7D13dB18187E6D62C1EA41b",
    "0xCc933a862fc15379E441F2A16Cb943D385a4695f",
    "0xCc933a862fc15379E441F2A16Cb943D385a4695f",
    "0x8A0e83DE499d7543CF486974a6196a35B5F573E7",
    "0x60927eB036621b801491B6c5e9A60A8d2dEeD75A",
    "0xd7fda2d7d5caa2dfb97493c0aa85b96d2fb26a18ec497944506992fd84a202aa",
    1650502800,
    "0xB7060D3FeCAC3AE1F0A0AA416E3e8E472257950e",
    2000,
    "0x0000000000000000000000000000000000000000",
    "0x8055a2c0f7EB177BeaB357B70E6504402d2b5fF6",
    "0x5983532A5b9009E05428595b87F19e42068a232B"
  ],
  "linkedData": [
    {
      "x": 324,
      "y": 288,
      "size": 1,
      "price": "4683000000000000000000",
      "reserved": "",
      "salt": "0x8a35e284b0daaf95d83a9131f2946b823704967b220b955acaff898596bcc11c",
      "assetIds": [
        "41506478881403507969696680653240014914910929820314476107906210059990541021189"
      ]
    },
    {
      "x": 324,
      "y": 289,
      "size": 1,
      "price": "4683000000000000000000",
      "reserved": "",
      "salt": "0x1c99724a07dbcc8cfcc9e39511e1448a1895ac80e4ce709cb4d8d7335eeb4834",
      "assetIds": [
        "41506478881403507969696680653240014914910929820314476107906210059990541021185"
      ]
    },
    {
      "x": 324,
      "y": 290,
      "size": 1,
      "price": "1011000000000000000000",
      "reserved": "0x7a9fe22691c811ea339d9b73150e6911a5343dca",
      "salt": "0x5c2856020d58c0dc7d465c0629811202efdac4dd9803ee424c82a890bb8c3c9c",
      "assetIds": []
    },
    {
      "x": 324,
      "y": 291,
      "size": 1,
      "price": "4683000000000000000000",
      "reserved": "",
      "salt": "0xfad092a961f411a3258bae2860d68fb869579601953a7bc832c7df431aa72941",
      "assetIds": [
        "41506478881403507969696680653240014914910929820314476107906210059990541021186"
      ]
    },
    {
      "x": 324,
      "y": 292,
      "size": 1,
      "price": "4683000000000000000000",
      "reserved": "",
      "salt": "0xe278b6c4b14a777d9c27c9919a606d9ca10ae8e008742e3275445f3c1b9536fb",
      "assetIds": [
        "41506478881403507969696680653240014914910929820314476107906210059990541021186"
      ]
    },
    {
      "x": 324,
      "y": 293,
      "size": 1,
      "price": "4683000000000000000000",
      "reserved": "",
      "salt": "0x6c56aed408b212ffa65f20ed094e0b5e0fa7587c98e21665ccdda4799ce66b27",
      "assetIds": [
        "41506478881403507969696680653240014914910929820314476107906210059990541021185"
      ]
    },
    {
      "x": 324,
      "y": 294,
      "size": 1,
      "price": "4683000000000000000000",
      "reserved": "",
      "salt": "0xadbc455ef6b5cb2659e3c1b16606627611604736c43752e09c4b98ae87cb8212",
      "assetIds": [
        "41506478881403507969696680653240014914910929820314476107906210059990541021188"
      ]
    },
    {
      "x": 324,
      "y": 295,
      "size": 1,
      "price": "4683000000000000000000",
      "reserved": "",
      "salt": "0xc11e23ef64b7e08a79957c850a6ecbbbf640dbc1b7351d080eca1d26a5ef2827",
      "assetIds": [
        "41506478881403507969696680653240014914910929820314476107906210059990541021189"
      ]
    },
    {
      "x": 324,
      "y": 296,
      "size": 1,
      "price": "4683000000000000000000",
      "reserved": "",
      "salt": "0x6c38945b2570c91bc7fb86992fb651622c7c16d3efacff2200f09b9056a769f9",
      "assetIds": [
        "41506478881403507969696680653240014914910929820314476107906210059990541021188"
      ]
    },
    {
      "x": 324,
      "y": 297,
      "size": 1,
      "price": "4683000000000000000000",
      "reserved": "",
      "salt": "0xc39d131c213d1d1c3ad8432a4e8fe0d8db00119e8d183afad5126dd3a7e8bb53",
      "assetIds": [
        "41506478881403507969696680653240014914910929820314476107906210059990541021188"
      ]
    },
    {
      "x": 325,
      "y": 288,
      "size": 1,
      "price": "4683000000000000000000",
      "reserved": "",
      "salt": "0x0dc10c399d4b01ced6c4d83ae4e37c1dd2355d06adefb898cd9a6851670d4505",
      "assetIds": [
        "41506478881403507969696680653240014914910929820314476107906210059990541021187"
      ]
    },
    {
      "x": 325,
      "y": 289,
      "size": 1,
      "price": "4683000000000000000000",
      "reserved": "",
      "salt": "0x2fb3e20e1551c00aef5b57cddb972a49d3c668d76529019f04904afd8b1a7b48",
      "assetIds": [
        "41506478881403507969696680653240014914910929820314476107906210059990532622336"
      ]
    },
    {
      "x": 325,
      "y": 290,
      "size": 1,
      "price": "4683000000000000000000",
      "reserved": "",
      "salt": "0x03852efa7cb1e532f561e80529d6fd1fa3da9b670bdf6f82c634b243d6179d17",
      "assetIds": [
        "41506478881403507969696680653240014914910929820314476107906210059990541021186"
      ]
    },
    {
      "x": 325,
      "y": 291,
      "size": 1,
      "price": "4683000000000000000000",
      "reserved": "",
      "salt": "0xe3ca5c4ece68d5ebe5f75175b497eabf1c9d046638843eebde43cfe6998fbef4",
      "assetIds": [
        "41506478881403507969696680653240014914910929820314476107906210059990541021185"
      ]
    },
    {
      "x": 325,
      "y": 292,
      "size": 1,
      "price": "4683000000000000000000",
      "reserved": "",
      "salt": "0xe7e161d46aa8c0de757dcc9ebb2b7c00afb962252ffcd885563426e85dce5ff3",
      "assetIds": [
        "41506478881403507969696680653240014914910929820314476107906210059990541021189"
      ]
    },
    {
      "x": 325,
      "y": 293,
      "size": 1,
      "price": "4683000000000000000000",
      "reserved": "",
      "salt": "0x401a6e860318fc19087e456e9d686de7ca9b4d910110d8a668baa92692e650fa",
      "assetIds": [
        "41506478881403507969696680653240014914910929820314476107906210059990541021187"
      ]
    },
    {
      "x": 325,
      "y": 294,
      "size": 1,
      "price": "4683000000000000000000",
      "reserved": "",
      "salt": "0x328e406e3d30eedc0b24a8753031598bb3a031d8c4afb2f71665f0961d06f871",
      "assetIds": [
        "41506478881403507969696680653240014914910929820314476107906210059990541021188"
      ]
    },
    {
      "x": 325,
      "y": 295,
      "size": 1,
      "price": "4683000000000000000000",
      "reserved": "",
      "salt": "0xffb8fc52414140219d8afa0e6d3cdf9e24d34b3cee04e421a89458e0e387c8fb",
      "assetIds": [
        "41506478881403507969696680653240014914910929820314476107906210059990541021188"
      ]
    },
    {
      "x": 325,
      "y": 296,
      "size": 1,
      "price": "4683000000000000000000",
      "reserved": "",
      "salt": "0x7e2ebc5da16eaf267ef5e899f2c74a6d9a27332decd8d9226cbb63b747832a02",
      "assetIds": [
        "41506478881403507969696680653240014914910929820314476107906210059990541021187"
      ]
    },
    {
      "x": 325,
      "y": 297,
      "size": 1,
      "price": "4683000000000000000000",
      "reserved": "",
      "salt": "0x61444a4fb6c9019eca0c846421c17f95aabaa0af7939a90506da532a18eda72f",
      "assetIds": [
        "41506478881403507969696680653240014914910929820314476107906210059990541021188"
      ]
    },
    {
      "x": 326,
      "y": 288,
      "size": 1,
      "price": "4683000000000000000000",
      "reserved": "",
      "salt": "0xddd27d9f5adb8b0ea13a3daf21dabe45d866970fe455831acbf76c36206c601d",
      "assetIds": [
        "41506478881403507969696680653240014914910929820314476107906210059990541021188"
      ]
    },
    {
      "x": 326,
      "y": 289,
      "size": 1,
      "price": "4683000000000000000000",
      "reserved": "",
      "salt": "0x544d107177b8fbe9c1a4d91615309a50f189325d3ae9ddc54e866f6437f5df44",
      "assetIds": [
        "41506478881403507969696680653240014914910929820314476107906210059990541021187"
      ]
    },
    {
      "x": 326,
      "y": 290,
      "size": 1,
      "price": "4683000000000000000000",
      "reserved": "",
      "salt": "0x5bc8ba9fa27f3c47c2a58dd55fb60d599a6f61e43972dd8e3c344b36b3ec3406",
      "assetIds": [
        "41506478881403507969696680653240014914910929820314476107906210059990541021185"
      ]
    },
    {
      "x": 326,
      "y": 291,
      "size": 1,
      "price": "4683000000000000000000",
      "reserved": "",
      "salt": "0xcb317ed5f668fda02d4f19d11916732bb11c8019126fc7f6b6c039c0dffa668d",
      "assetIds": [
        "41506478881403507969696680653240014914910929820314476107906210059990541021188"
      ]
    },
    {
      "x": 326,
      "y": 292,
      "size": 1,
      "price": "4683000000000000000000",
      "reserved": "",
      "salt": "0x156013796faff133580cde1866aca69bedc87e7d2b4b8b1e620ff9bdfdb6911c",
      "assetIds": [
        "41506478881403507969696680653240014914910929820314476107906210059990541021184"
      ]
    },
    {
      "x": 326,
      "y": 293,
      "size": 1,
      "price": "4683000000000000000000",
      "reserved": "",
      "salt": "0x78c039eb7332755416f0721bd62e9bec984066a0b6122c9f1e668fc766e10470",
      "assetIds": [
        "41506478881403507969696680653240014914910929820314476107906210059990541021184"
      ]
    },
    {
      "x": 326,
      "y": 294,
      "size": 1,
      "price": "4683000000000000000000",
      "reserved": "",
      "salt": "0x0dd0ce458b688d887f8b8018aebb25f7ec4bf588df4263d93a21d5a891d5ae0e",
      "assetIds": [
        "41506478881403507969696680653240014914910929820314476107906210059990541021188"
      ]
    },
    {
      "x": 326,
      "y": 295,
      "size": 1,
      "price": "4683000000000000000000",
      "reserved": "",
      "salt": "0x4cf771b6c3ab584efa8abe0033af79ca3c2d3ee6a762d716c73dd2671d4da15b",
      "assetIds": [
        "41506478881403507969696680653240014914910929820314476107906210059990532622336"
      ]
    },
    {
      "x": 326,
      "y": 296,
      "size": 1,
      "price": "4683000000000000000000",
      "reserved": "",
      "salt": "0xfbafb36c7150d2315cad1dc4ba3ac8952f468c9cfa37577496f3a7f2fa4e712f",
      "assetIds": [
        "41506478881403507969696680653240014914910929820314476107906210059990532622336"
      ]
    },
    {
      "x": 326,
      "y": 297,
      "size": 1,
      "price": "4683000000000000000000",
      "reserved": "",
      "salt": "0x4f6bd59ee7d3d4c85e66b284f74c84f23b90df2fcde47f5e0f92dade8675bfdd",
      "assetIds": [
        "41506478881403507969696680653240014914910929820314476107906210059990541021189"
      ]
    },
    {
      "x": 326,
      "y": 298,
      "size": 1,
      "price": "4683000000000000000000",
      "reserved": "",
      "salt": "0xf5ef0096b54fd05a5ebf50fbf614dfc140046e9f7eed287ba2c5321054058e63",
      "assetIds": [
        "41506478881403507969696680653240014914910929820314476107906210059990541021188"
      ]
    },
    {
      "x": 326,
      "y": 299,
      "size": 1,
      "price": "4683000000000000000000",
      "reserved": "",
      "salt": "0x2a06f50cf647400d7453beaa44385a539a32c97cfa473b8a606f3b888a337c76",
      "assetIds": [
        "41506478881403507969696680653240014914910929820314476107906210059990541021188"
      ]
    },
    {
      "x": 327,
      "y": 288,
      "size": 1,
      "price": "1011000000000000000000",
      "reserved": "0x7a9fe22691c811ea339d9b73150e6911a5343dca",
      "salt": "0x2b5c3212bb145670afb26f032c853d485b153cda0a44c53e8d4d14f210c891e5",
      "assetIds": []
    },
    {
      "x": 327,
      "y": 289,
      "size": 1,
      "price": "4683000000000000000000",
      "reserved": "",
      "salt": "0x8d70b62446d5152c0aada06ad0d188be4d7a00eea5436abffbcfb88db08a0608",
      "assetIds": [
        "41506478881403507969696680653240014914910929820314476107906210059990541021187"
      ]
    },
    {
      "x": 327,
      "y": 290,
      "size": 1,
      "price": "4683000000000000000000",
      "reserved": "",
      "salt": "0xdc014b17e61b758975c36c40bed918dee74902e2eca85a08b80898de5842181c",
      "assetIds": [
        "41506478881403507969696680653240014914910929820314476107906210059990541021187"
      ]
    },
    {
      "x": 327,
      "y": 291,
      "size": 1,
      "price": "4683000000000000000000",
      "reserved": "",
      "salt": "0xb4eae0f7080a456fc7e2f1e6e7b429aac6ad5af7f418f6115f6ed716680d65da",
      "assetIds": [
        "41506478881403507969696680653240014914910929820314476107906210059990541021189"
      ]
    },
    {
      "x": 327,
      "y": 292,
      "size": 1,
      "price": "4683000000000000000000",
      "reserved": "",
      "salt": "0x5af4c3994ec2906990fa6a5a187bba7a2decbbbc8ab53f4121ef240323149d24",
      "assetIds": [
        "41506478881403507969696680653240014914910929820314476107906210059990532622336"
      ]
    },
    {
      "x": 327,
      "y": 293,
      "size": 1,
      "price": "4683000000000000000000",
      "reserved": "",
      "salt": "0xc7471f077f018ed9f5610c99f5da54120c86f0f5087032322006123d9aea6025",
      "assetIds": [
        "41506478881403507969696680653240014914910929820314476107906210059990541021184"
      ]
    },
    {
      "x": 327,
      "y": 294,
      "size": 1,
      "price": "4683000000000000000000",
      "reserved": "",
      "salt": "0x74beb36d3dee4750faeb37d97bafc837b9b38084f498ed6bf0f79bf03768a3b0",
      "assetIds": [
        "41506478881403507969696680653240014914910929820314476107906210059990541021189"
      ]
    },
    {
      "x": 327,
      "y": 295,
      "size": 1,
      "price": "4683000000000000000000",
      "reserved": "",
      "salt": "0x1822d0b1329e8d4200e6f699fc56cb04d3d67656fc302886c98ec8e4f4dc9c5c",
      "assetIds": [
        "41506478881403507969696680653240014914910929820314476107906210059990541021189"
      ]
    },
    {
      "x": 327,
      "y": 296,
      "size": 1,
      "price": "1011000000000000000000",
      "reserved": "0x7a9fe22691c811ea339d9b73150e6911a5343dca",
      "salt": "0xf83810b8ecc417f37fda52af1ac019e1ec3b7f2a4b28a99ccb9f33a939d2eae0",
      "assetIds": []
    },
    {
      "x": 327,
      "y": 297,
      "size": 1,
      "price": "4683000000000000000000",
      "reserved": "",
      "salt": "0x1ee685457459b71084ada9e10b5bc3d4f62b5ece54fc2a5bae84f389e78619c8",
      "assetIds": [
        "41506478881403507969696680653240014914910929820314476107906210059990541021189"
      ]
    },
    {
      "x": 327,
      "y": 298,
      "size": 1,
      "price": "4683000000000000000000",
      "reserved": "",
      "salt": "0xafb9d4b87cca135650b2a9d0157eee0031880023c097983923000f660d62af26",
      "assetIds": [
        "41506478881403507969696680653240014914910929820314476107906210059990541021189"
      ]
    },
    {
      "x": 327,
      "y": 299,
      "size": 1,
      "price": "4683000000000000000000",
      "reserved": "",
      "salt": "0x8c398f833692d154c856f39a44def26beb2891e98e2d5b8a3ffd89640d32e225",
      "assetIds": [
        "41506478881403507969696680653240014914910929820314476107906210059990541021188"
      ]
    },
    {
      "x": 328,
      "y": 288,
      "size": 1,
      "price": "4683000000000000000000",
      "reserved": "",
      "salt": "0x5b242a6752b5c65dd51fd4afe7e18aa993657a249649fe637919b824c73bfc7f",
      "assetIds": [
        "41506478881403507969696680653240014914910929820314476107906210059990541021185"
      ]
    },
    {
      "x": 328,
      "y": 289,
      "size": 1,
      "price": "4683000000000000000000",
      "reserved": "",
      "salt": "0xdc6d036ab7cf0136826664937889ed8afa3f6c36900c9270fa52da1e36a89104",
      "assetIds": [
        "41506478881403507969696680653240014914910929820314476107906210059990541021186"
      ]
    },
    {
      "x": 328,
      "y": 290,
      "size": 1,
      "price": "4683000000000000000000",
      "reserved": "",
      "salt": "0x1a1244b7993bfe49537285ce4aaff59ca3a91b6e4d9d3e35ed1a81662cef8fb0",
      "assetIds": [
        "41506478881403507969696680653240014914910929820314476107906210059990541021188"
      ]
    },
    {
      "x": 328,
      "y": 291,
      "size": 1,
      "price": "4683000000000000000000",
      "reserved": "",
      "salt": "0x4f3926d72f508d6e7bf43ea30aa5b8615006f88f6f87f7b49d0cd39a0dc5c321",
      "assetIds": [
        "41506478881403507969696680653240014914910929820314476107906210059990541021188"
      ]
    },
    {
      "x": 328,
      "y": 292,
      "size": 1,
      "price": "4683000000000000000000",
      "reserved": "",
      "salt": "0x008edf0af368309d870296a3b71a354f9248f290ddda38c0dd82a657fd008802",
      "assetIds": [
        "41506478881403507969696680653240014914910929820314476107906210059990541021187"
      ]
    },
    {
      "x": 328,
      "y": 293,
      "size": 1,
      "price": "4683000000000000000000",
      "reserved": "",
      "salt": "0xded18cc94d9d64c82a3edb7ec77c4d7c550dfd6aa070c3c27109586fbd26cd91",
      "assetIds": [
        "41506478881403507969696680653240014914910929820314476107906210059990541021184"
      ]
    },
    {
      "x": 328,
      "y": 294,
      "size": 1,
      "price": "4683000000000000000000",
      "reserved": "",
      "salt": "0xb3b7fef9132e44d2cb81db25b6f5bd88a912909ba677065ca614184a631d4ac2",
      "assetIds": [
        "41506478881403507969696680653240014914910929820314476107906210059990541021188"
      ]
    },
    {
      "x": 328,
      "y": 295,
      "size": 1,
      "price": "4683000000000000000000",
      "reserved": "",
      "salt": "0x3298bfc308e94bee8048191ff68a311cd73ea72757168f3bc4db27ce6bd9b5c9",
      "assetIds": [
        "41506478881403507969696680653240014914910929820314476107906210059990541021188"
      ]
    },
    {
      "x": 328,
      "y": 296,
      "size": 1,
      "price": "4683000000000000000000",
      "reserved": "",
      "salt": "0x229b34d8ee1305364e1c20ce8f9be55f9e582ba2c893d3a7ed637741c22d0057",
      "assetIds": [
        "41506478881403507969696680653240014914910929820314476107906210059990541021187"
      ]
    },
    {
      "x": 328,
      "y": 297,
      "size": 1,
      "price": "4683000000000000000000",
      "reserved": "",
      "salt": "0x1d47699b813f3d7bdadf92cfc093b5cdc983077c628ffa549148c8ee4825ac1e",
      "assetIds": [
        "41506478881403507969696680653240014914910929820314476107906210059990541021184"
      ]
    },
    {
      "x": 328,
      "y": 298,
      "size": 1,
      "price": "4683000000000000000000",
      "reserved": "",
      "salt": "0x0f5f1e302376ff421e768e8017928ffe7d0df133ff1e68d1823737415b6b2794",
      "assetIds": [
        "41506478881403507969696680653240014914910929820314476107906210059990541021186"
      ]
    },
    {
      "x": 328,
      "y": 299,
      "size": 1,
      "price": "4683000000000000000000",
      "reserved": "",
      "salt": "0x75a2107dcb8f6a9eda3cc5449db8d9767d9cfc5df2f1337d63f472a82eea9bba",
      "assetIds": [
        "41506478881403507969696680653240014914910929820314476107906210059990541021187"
      ]
    },
    {
      "x": 329,
      "y": 288,
      "size": 1,
      "price": "4683000000000000000000",
      "reserved": "",
      "salt": "0xad6def2136a3e58d84d6cd6aca973fc61039045be237e8ca19fb2fefa1e04ba4",
      "assetIds": [
        "41506478881403507969696680653240014914910929820314476107906210059990541021187"
      ]
    },
    {
      "x": 329,
      "y": 289,
      "size": 1,
      "price": "4683000000000000000000",
      "reserved": "",
      "salt": "0x4a4e2270409eb88a58b0b2633262f038446d1232afacd20e0b91e35c6021c21b",
      "assetIds": [
        "41506478881403507969696680653240014914910929820314476107906210059990541021187"
      ]
    },
    {
      "x": 329,
      "y": 290,
      "size": 1,
      "price": "4683000000000000000000",
      "reserved": "",
      "salt": "0xdfeb65120349b6d8ba7166a01309ef614b3136222883d1bc0ff0e7755f529eb3",
      "assetIds": [
        "41506478881403507969696680653240014914910929820314476107906210059990532622336"
      ]
    },
    {
      "x": 329,
      "y": 291,
      "size": 1,
      "price": "4683000000000000000000",
      "reserved": "",
      "salt": "0xa60f51d5db1360321a2aac2a878890d5b5e096aca95b556e5148e4e0d75b4a12",
      "assetIds": [
        "41506478881403507969696680653240014914910929820314476107906210059990532622336"
      ]
    },
    {
      "x": 329,
      "y": 292,
      "size": 1,
      "price": "4683000000000000000000",
      "reserved": "",
      "salt": "0x56805d02fce91c1a5ef37c08901c4c7874eca13259a01e6f9d6def6683dca197",
      "assetIds": [
        "41506478881403507969696680653240014914910929820314476107906210059990541021185"
      ]
    },
    {
      "x": 329,
      "y": 293,
      "size": 1,
      "price": "4683000000000000000000",
      "reserved": "",
      "salt": "0xef821b6a68fea049ace963961968d722af363dd7134da53c5c2462c93df11c5d",
      "assetIds": [
        "41506478881403507969696680653240014914910929820314476107906210059990541021188"
      ]
    },
    {
      "x": 329,
      "y": 294,
      "size": 1,
      "price": "4683000000000000000000",
      "reserved": "",
      "salt": "0xbd6f2464a929f97b65db4b598f81b772b5279ddeece834827beb73611e5d5d93",
      "assetIds": [
        "41506478881403507969696680653240014914910929820314476107906210059990541021185"
      ]
    },
    {
      "x": 329,
      "y": 295,
      "size": 1,
      "price": "4683000000000000000000",
      "reserved": "",
      "salt": "0x76e1acbb25f2301a16b35951b4c4e71413ba2e2eed89a8c524f92976ce869f5c",
      "assetIds": [
        "41506478881403507969696680653240014914910929820314476107906210059990541021188"
      ]
    },
    {
      "x": 329,
      "y": 296,
      "size": 1,
      "price": "4683000000000000000000",
      "reserved": "",
      "salt": "0xb82a0e0f3e66e3784cf0f11b70459878ce5a1c3557090ba59388309dee5b5aaf",
      "assetIds": [
        "41506478881403507969696680653240014914910929820314476107906210059990541021188"
      ]
    },
    {
      "x": 329,
      "y": 297,
      "size": 1,
      "price": "4683000000000000000000",
      "reserved": "",
      "salt": "0x284cedfe03b642a0af561726e0f56f03526dde1db8bcd17f35c1ce04828639a0",
      "assetIds": [
        "41506478881403507969696680653240014914910929820314476107906210059990541021188"
      ]
    },
    {
      "x": 329,
      "y": 298,
      "size": 1,
      "price": "4683000000000000000000",
      "reserved": "",
      "salt": "0x75554d4bb65144c8358a4a960d3f76f5343794a5c945d807707fb60779648539",
      "assetIds": [
        "41506478881403507969696680653240014914910929820314476107906210059990541021185"
      ]
    },
    {
      "x": 329,
      "y": 299,
      "size": 1,
      "price": "4683000000000000000000",
      "reserved": "",
      "salt": "0x89735daeb8738953c15099bb33f87755485ab8ad484d82ef96cfb062c9ad3c7d",
      "assetIds": [
        "41506478881403507969696680653240014914910929820314476107906210059990541021188"
      ]
    },
    {
      "x": 330,
      "y": 288,
      "size": 1,
      "price": "4683000000000000000000",
      "reserved": "",
      "salt": "0xbde1627f805c4ce668b8e77642a013163bc2b9fa9553a391f6b05c845c268f5c",
      "assetIds": [
        "41506478881403507969696680653240014914910929820314476107906210059990541021186"
      ]
    },
    {
      "x": 330,
      "y": 289,
      "size": 1,
      "price": "4683000000000000000000",
      "reserved": "",
      "salt": "0x0046b3e8324dce85e90f7f0d51907b55f8ab174b5b86e6bac02c6df6721d3b23",
      "assetIds": [
        "41506478881403507969696680653240014914910929820314476107906210059990541021187"
      ]
    },
    {
      "x": 330,
      "y": 290,
      "size": 1,
      "price": "4683000000000000000000",
      "reserved": "",
      "salt": "0xc252f0c88c84370ea30f74b4dff4041fb97719463cdd793cde27932496318b54",
      "assetIds": [
        "41506478881403507969696680653240014914910929820314476107906210059990532622336"
      ]
    },
    {
      "x": 330,
      "y": 291,
      "size": 1,
      "price": "4683000000000000000000",
      "reserved": "",
      "salt": "0x273f77b78e0e7d76c51e38db07799c2ff94ab7bb294caf1480001153560ab55b",
      "assetIds": [
        "41506478881403507969696680653240014914910929820314476107906210059990541021188"
      ]
    },
    {
      "x": 330,
      "y": 292,
      "size": 1,
      "price": "4683000000000000000000",
      "reserved": "",
      "salt": "0x7ebfc1c6cf3af7c26fcb3040b341a40453d2a24eea1466f1ec23a28416dcabd0",
      "assetIds": [
        "41506478881403507969696680653240014914910929820314476107906210059990541021184"
      ]
    },
    {
      "x": 330,
      "y": 293,
      "size": 1,
      "price": "4683000000000000000000",
      "reserved": "",
      "salt": "0x2ed62095f9290ed28956a61dc91261ce5d62998bb8df624de1b292b54dc95859",
      "assetIds": [
        "41506478881403507969696680653240014914910929820314476107906210059990541021188"
      ]
    },
    {
      "x": 331,
      "y": 288,
      "size": 1,
      "price": "4683000000000000000000",
      "reserved": "",
      "salt": "0xeab2c3d10cdda4fc950c11fe2afdcdcb0e7f05720811c8505602216e3d3a9e0f",
      "assetIds": [
        "41506478881403507969696680653240014914910929820314476107906210059990541021186"
      ]
    },
    {
      "x": 331,
      "y": 289,
      "size": 1,
      "price": "4683000000000000000000",
      "reserved": "",
      "salt": "0x94a6aa89901697f0fa4852df9ed87a75d669ce0b401e6d5952b1002661059d61",
      "assetIds": [
        "41506478881403507969696680653240014914910929820314476107906210059990541021187"
      ]
    },
    {
      "x": 331,
      "y": 290,
      "size": 1,
      "price": "4683000000000000000000",
      "reserved": "",
      "salt": "0xda4f354d2735b479e6253585fa19dfe340aab641f41430eb4f8bd89a2b5052da",
      "assetIds": [
        "41506478881403507969696680653240014914910929820314476107906210059990541021185"
      ]
    },
    {
      "x": 331,
      "y": 291,
      "size": 1,
      "price": "4683000000000000000000",
      "reserved": "",
      "salt": "0x7e694198c47a42b304c6b9317528448a529dfcb3e8e649ad24bf9f31e0afac94",
      "assetIds": [
        "41506478881403507969696680653240014914910929820314476107906210059990541021188"
      ]
    },
    {
      "x": 331,
      "y": 292,
      "size": 1,
      "price": "4683000000000000000000",
      "reserved": "",
      "salt": "0x0c44feb9afe1cb9b33b0c63c22b07fb0f8955287fd339193e5f91464656b3512",
      "assetIds": [
        "41506478881403507969696680653240014914910929820314476107906210059990541021184"
      ]
    },
    {
      "x": 331,
      "y": 293,
      "size": 1,
      "price": "4683000000000000000000",
      "reserved": "",
      "salt": "0xced58138afd447409e0ed4e402e58037eef2c4d83b642d8fcc24ede42647363b",
      "assetIds": [
        "41506478881403507969696680653240014914910929820314476107906210059990541021187"
      ]
    },
    {
      "x": 332,
      "y": 288,
      "size": 1,
      "price": "4683000000000000000000",
      "reserved": "",
      "salt": "0xb63a3b841a80fb33f094f447ef82a9c9b6ef061ab00082552676473145353c63",
      "assetIds": [
        "41506478881403507969696680653240014914910929820314476107906210059990541021189"
      ]
    },
    {
      "x": 332,
      "y": 289,
      "size": 1,
      "price": "4683000000000000000000",
      "reserved": "",
      "salt": "0xf5313221afc89dee25534f63e75b25fea0376ceae451695b4063d71afb698690",
      "assetIds": [
        "41506478881403507969696680653240014914910929820314476107906210059990541021189"
      ]
    },
    {
      "x": 332,
      "y": 290,
      "size": 1,
      "price": "4683000000000000000000",
      "reserved": "",
      "salt": "0x5e5df860f82a99945fc83d76c9446280cc90e086e9516d387cb8bd329d583453",
      "assetIds": [
        "41506478881403507969696680653240014914910929820314476107906210059990541021187"
      ]
    },
    {
      "x": 332,
      "y": 291,
      "size": 1,
      "price": "4683000000000000000000",
      "reserved": "",
      "salt": "0xdc413cf4441ad9761945b594f30467d177139ee2ce6131c66c5b48e3272513b6",
      "assetIds": [
        "41506478881403507969696680653240014914910929820314476107906210059990541021184"
      ]
    },
    {
      "x": 332,
      "y": 292,
      "size": 1,
      "price": "4683000000000000000000",
      "reserved": "",
      "salt": "0xd8bd44063e54c5bf8c51309f52a34198575ad082cdce58949a23c981f1b91990",
      "assetIds": [
        "41506478881403507969696680653240014914910929820314476107906210059990541021188"
      ]
    },
    {
      "x": 332,
      "y": 293,
      "size": 1,
      "price": "4683000000000000000000",
      "reserved": "",
      "salt": "0x49eac95a3487b28c61226007ce1169b1d7948212b5c8ccb0c5b2ce5bcd06aef6",
      "assetIds": [
        "41506478881403507969696680653240014914910929820314476107906210059990541021186"
      ]
    },
    {
      "x": 333,
      "y": 261,
      "size": 1,
      "price": "4683000000000000000000",
      "reserved": "",
      "salt": "0xc61623cb1e3ec1f8e94d4d9b5ee86ce1de55de8259dfd0b752d3cf606cde4d8a",
      "assetIds": [
        "41506478881403507969696680653240014914910929820314476107906210059990541021188"
      ]
    },
    {
      "x": 333,
      "y": 262,
      "size": 1,
      "price": "4683000000000000000000",
      "reserved": "",
      "salt": "0x2e764688c4c08e87114f5bcc5cb0194bc0b33b2c9fd786736b28cc251ad28e03",
      "assetIds": [
        "41506478881403507969696680653240014914910929820314476107906210059990541021184"
      ]
    },
    {
      "x": 333,
      "y": 263,
      "size": 1,
      "price": "4683000000000000000000",
      "reserved": "",
      "salt": "0x61fc1c5f83c391747ef16832c1892609067d2b6bebabde0e53a3a5c1659f8b8e",
      "assetIds": [
        "41506478881403507969696680653240014914910929820314476107906210059990541021187"
      ]
    },
    {
      "x": 333,
      "y": 288,
      "size": 1,
      "price": "4683000000000000000000",
      "reserved": "",
      "salt": "0x9aa397fda384fa4e1eaa37b17f821a1a4fc6512670e6f5feab210bb0fa5822b8",
      "assetIds": [
        "41506478881403507969696680653240014914910929820314476107906210059990541021185"
      ]
    },
    {
      "x": 333,
      "y": 289,
      "size": 1,
      "price": "4683000000000000000000",
      "reserved": "",
      "salt": "0xe03a910d70c8ce703f636ee329314da23aa3dc06026ff247901b9c6b15d8eb43",
      "assetIds": [
        "41506478881403507969696680653240014914910929820314476107906210059990541021187"
      ]
    },
    {
      "x": 333,
      "y": 290,
      "size": 1,
      "price": "4683000000000000000000",
      "reserved": "",
      "salt": "0x955a6bb74cf30fa890c6a6d65dfd7c774ba7e8dca9fa74a6823dafc1c3af7aaf",
      "assetIds": [
        "41506478881403507969696680653240014914910929820314476107906210059990541021188"
      ]
    },
    {
      "x": 334,
      "y": 261,
      "size": 1,
      "price": "4683000000000000000000",
      "reserved": "",
      "salt": "0x5c0cd878498a91e033e9280d867e6892afe4b2dcb4504d0f4307cefb34b7c022",
      "assetIds": [
        "41506478881403507969696680653240014914910929820314476107906210059990532622336"
      ]
    },
    {
      "x": 334,
      "y": 262,
      "size": 1,
      "price": "4683000000000000000000",
      "reserved": "",
      "salt": "0xda11865c42912204a3afd67b99b3a182da7860fa1c8e55f7b4075d2151dde528",
      "assetIds": [
        "41506478881403507969696680653240014914910929820314476107906210059990541021186"
      ]
    },
    {
      "x": 334,
      "y": 263,
      "size": 1,
      "price": "4683000000000000000000",
      "reserved": "",
      "salt": "0x2c4608dc962ed57a77abff8ca392558a459a4e677f6b81e3161d0c1b9fdd1b62",
      "assetIds": [
        "41506478881403507969696680653240014914910929820314476107906210059990541021187"
      ]
    },
    {
      "x": 334,
      "y": 288,
      "size": 1,
      "price": "4683000000000000000000",
      "reserved": "",
      "salt": "0xb036a4008a0721656b4e2ffa98ef994af0ccaf4a86c8c3c593ce19569338d109",
      "assetIds": [
        "41506478881403507969696680653240014914910929820314476107906210059990541021189"
      ]
    },
    {
      "x": 334,
      "y": 289,
      "size": 1,
      "price": "4683000000000000000000",
      "reserved": "",
      "salt": "0x2866b308e6ad861a8be5ae0623910f7a40f2615cc63f10ec4f98a3cc70afa2fa",
      "assetIds": [
        "41506478881403507969696680653240014914910929820314476107906210059990541021189"
      ]
    },
    {
      "x": 334,
      "y": 290,
      "size": 1,
      "price": "4683000000000000000000",
      "reserved": "",
      "salt": "0xb3eff18c7b394084973ed8846ebc8a859430edc916eb4f0dfaf844def0ba365a",
      "assetIds": [
        "41506478881403507969696680653240014914910929820314476107906210059990541021184"
      ]
    },
    {
      "x": 335,
      "y": 261,
      "size": 1,
      "price": "4683000000000000000000",
      "reserved": "",
      "salt": "0x35514a3ee58dd3e0513a81a335c407a4964e2406c1996682705c5e0489660a19",
      "assetIds": [
        "41506478881403507969696680653240014914910929820314476107906210059990541021188"
      ]
    },
    {
      "x": 335,
      "y": 262,
      "size": 1,
      "price": "4683000000000000000000",
      "reserved": "",
      "salt": "0x62818052a167f07bdafb3d196c03f5408c1467f0fbc29fa2f7d5eb3f78ddce27",
      "assetIds": [
        "41506478881403507969696680653240014914910929820314476107906210059990541021184"
      ]
    },
    {
      "x": 335,
      "y": 263,
      "size": 1,
      "price": "4683000000000000000000",
      "reserved": "",
      "salt": "0x0a5b7deb6ae47062299db4147a66b4e5880e2f989a3af077d5af99e462c14e6f",
      "assetIds": [
        "41506478881403507969696680653240014914910929820314476107906210059990541021189"
      ]
    },
    {
      "x": 335,
      "y": 288,
      "size": 1,
      "price": "1011000000000000000000",
      "reserved": "0x7a9fe22691c811ea339d9b73150e6911a5343dca",
      "salt": "0x0c789dfd18274e9600a0ca0377c36fd11dfaf7730eea82cede97f3b4f994c2bd",
      "assetIds": []
    },
    {
      "x": 335,
      "y": 289,
      "size": 1,
      "price": "4683000000000000000000",
      "reserved": "",
      "salt": "0xea8ba65c17101d84290b4506cf7232305a7d7385a7b2c3336c5563af47255d2c",
      "assetIds": [
        "41506478881403507969696680653240014914910929820314476107906210059990541021184"
      ]
    },
    {
      "x": 335,
      "y": 290,
      "size": 1,
      "price": "4683000000000000000000",
      "reserved": "",
      "salt": "0x95b04dc3cca4d4b61449567d6143f74887be9f2610a22c3367207f826709c497",
      "assetIds": [
        "41506478881403507969696680653240014914910929820314476107906210059990541021189"
      ]
    },
    {
      "x": 336,
      "y": 252,
      "size": 1,
      "price": "4683000000000000000000",
      "reserved": "",
      "salt": "0x1189bd7fedb4900446439f995d7e3d9e4792b35fd38781a4ca56d7254c1deea3",
      "assetIds": [
        "41506478881403507969696680653240014914910929820314476107906210059990541021188"
      ]
    },
    {
      "x": 336,
      "y": 253,
      "size": 1,
      "price": "4683000000000000000000",
      "reserved": "",
      "salt": "0x5a604525c2300081a1795a92a62a4798a2c60f49ae4d18b6fe80fa0321eb4ce2",
      "assetIds": [
        "41506478881403507969696680653240014914910929820314476107906210059990541021186"
      ]
    },
    {
      "x": 336,
      "y": 254,
      "size": 1,
      "price": "4683000000000000000000",
      "reserved": "",
      "salt": "0x3e7ecf2fda4eaa1bfde30eb54ef1558f14049eff6dc3e39ab408ce8fdc2d95a9",
      "assetIds": [
        "41506478881403507969696680653240014914910929820314476107906210059990541021189"
      ]
    },
    {
      "x": 336,
      "y": 258,
      "size": 1,
      "price": "4683000000000000000000",
      "reserved": "",
      "salt": "0x594ea1a5f1293c2f723b147532375bc012e2d6b60d943f00a9868dc32d0dd685",
      "assetIds": [
        "41506478881403507969696680653240014914910929820314476107906210059990541021188"
      ]
    },
    {
      "x": 336,
      "y": 259,
      "size": 1,
      "price": "4683000000000000000000",
      "reserved": "",
      "salt": "0x98905b4ca51d0f6c216efc6ae082314164dd7dc6a8ab234a7f9688214b8cf371",
      "assetIds": [
        "41506478881403507969696680653240014914910929820314476107906210059990541021187"
      ]
    },
    {
      "x": 336,
      "y": 260,
      "size": 1,
      "price": "4683000000000000000000",
      "reserved": "",
      "salt": "0xb614bbad150c7aac81dc49161d72abdec4202972d13be6f6a0732a7e75a16df1",
      "assetIds": [
        "41506478881403507969696680653240014914910929820314476107906210059990541021187"
      ]
    },
    {
      "x": 336,
      "y": 261,
      "size": 1,
      "price": "4683000000000000000000",
      "reserved": "",
      "salt": "0x941473aec6eeeb1f2640a685bca12b9f9e9a35e414edbea7698d246c335b0d50",
      "assetIds": [
        "41506478881403507969696680653240014914910929820314476107906210059990541021188"
      ]
    },
    {
      "x": 336,
      "y": 262,
      "size": 1,
      "price": "4683000000000000000000",
      "reserved": "",
      "salt": "0x03f7b59051d91878358d6182478557499bf7cb251188ee83bb07b3f48d1e1aa9",
      "assetIds": [
        "41506478881403507969696680653240014914910929820314476107906210059990541021187"
      ]
    },
    {
      "x": 336,
      "y": 263,
      "size": 1,
      "price": "4683000000000000000000",
      "reserved": "",
      "salt": "0xc0e0878a8f09b3b35d3fc2737ce1c25fa08bfd4f311b0f08754181dc8e8c85f2",
      "assetIds": [
        "41506478881403507969696680653240014914910929820314476107906210059990541021186"
      ]
    },
    {
      "x": 336,
      "y": 288,
      "size": 1,
      "price": "4683000000000000000000",
      "reserved": "",
      "salt": "0x24fe19ed6d088ffadc3ed3c2c1349f567053e19234917e3bbd8a5ca9439938e4",
      "assetIds": [
        "41506478881403507969696680653240014914910929820314476107906210059990541021187"
      ]
    },
    {
      "x": 336,
      "y": 289,
      "size": 1,
      "price": "4683000000000000000000",
      "reserved": "",
      "salt": "0xf89d7a11ac76d202e1429cd1cd797f3b0b0c93178d1a2e25ddbdcd69f2713513",
      "assetIds": [
        "41506478881403507969696680653240014914910929820314476107906210059990541021188"
      ]
    },
    {
      "x": 336,
      "y": 290,
      "size": 1,
      "price": "4683000000000000000000",
      "reserved": "",
      "salt": "0x20239e9512369c547770f1dec6419c4e2958b186816a8bdc45cc1507641c73cd",
      "assetIds": [
        "41506478881403507969696680653240014914910929820314476107906210059990541021189"
      ]
    },
    {
      "x": 336,
      "y": 291,
      "size": 1,
      "price": "4683000000000000000000",
      "reserved": "",
      "salt": "0x400ec18ab4a2cba9a837ccd902e1c37e29c7939bcc73c57e1d795d7923da05d9",
      "assetIds": [
        "41506478881403507969696680653240014914910929820314476107906210059990541021187"
      ]
    },
    {
      "x": 336,
      "y": 292,
      "size": 1,
      "price": "4683000000000000000000",
      "reserved": "",
      "salt": "0xfa545eeff98cb54f3d67d49e89bfcef34cde6971bcdbee8a9e0284e44830fc20",
      "assetIds": [
        "41506478881403507969696680653240014914910929820314476107906210059990541021188"
      ]
    },
    {
      "x": 336,
      "y": 293,
      "size": 1,
      "price": "4683000000000000000000",
      "reserved": "",
      "salt": "0xf562913e0fa04defcedf99c77dbc040c1d947d186c3e10378440ca9d9decc43a",
      "assetIds": [
        "41506478881403507969696680653240014914910929820314476107906210059990541021187"
      ]
    },
    {
      "x": 336,
      "y": 294,
      "size": 1,
      "price": "4683000000000000000000",
      "reserved": "",
      "salt": "0xd107aa932038bc8e6d9450152e316c794873ade686e31eb8befa0e226a3c79cc",
      "assetIds": [
        "41506478881403507969696680653240014914910929820314476107906210059990541021184"
      ]
    },
    {
      "x": 336,
      "y": 295,
      "size": 1,
      "price": "4683000000000000000000",
      "reserved": "",
      "salt": "0x29a4330b97cd64353acd60240a7e2f114f959e9d810af4a7019b412c0af6eb1f",
      "assetIds": [
        "41506478881403507969696680653240014914910929820314476107906210059990541021187"
      ]
    },
    {
      "x": 336,
      "y": 296,
      "size": 1,
      "price": "4683000000000000000000",
      "reserved": "",
      "salt": "0x2d96a21c527d151c1622c6da3617268cc755cd4e674e056705254292855e0160",
      "assetIds": [
        "41506478881403507969696680653240014914910929820314476107906210059990541021189"
      ]
    },
    {
      "x": 336,
      "y": 297,
      "size": 1,
      "price": "4683000000000000000000",
      "reserved": "",
      "salt": "0xc5e8eb5be9f3fc308ff93915cfdd079855caed193c755624349ae882f03c7e3d",
      "assetIds": [
        "41506478881403507969696680653240014914910929820314476107906210059990532622336"
      ]
    },
    {
      "x": 336,
      "y": 298,
      "size": 1,
      "price": "4683000000000000000000",
      "reserved": "",
      "salt": "0x7e77f3ca3ee46d337a17617cc718c3903bcb06b7dfd91c4e7bd42286d456e2d8",
      "assetIds": [
        "41506478881403507969696680653240014914910929820314476107906210059990541021187"
      ]
    },
    {
      "x": 336,
      "y": 299,
      "size": 1,
      "price": "4683000000000000000000",
      "reserved": "",
      "salt": "0x82ea25a72f0966eb1a2fecf5260dc44de1b90a06e8b6dfd882cac6cf5bed03d0",
      "assetIds": [
        "41506478881403507969696680653240014914910929820314476107906210059990541021189"
      ]
    },
    {
      "x": 337,
      "y": 252,
      "size": 1,
      "price": "4683000000000000000000",
      "reserved": "",
      "salt": "0x3faa138ded4f33259142c9a46dc9a167151622433579bab195219e2f2a8ee8f7",
      "assetIds": [
        "41506478881403507969696680653240014914910929820314476107906210059990541021188"
      ]
    },
    {
      "x": 337,
      "y": 253,
      "size": 1,
      "price": "1011000000000000000000",
      "reserved": "0x7a9fe22691c811ea339d9b73150e6911a5343dca",
      "salt": "0x5617eb70ea2c8627bf6756b9f981c1ae76c68f0dc488cba216d7f6b58038b352",
      "assetIds": []
    },
    {
      "x": 337,
      "y": 254,
      "size": 1,
      "price": "4683000000000000000000",
      "reserved": "",
      "salt": "0xe6bdedd98511d0f5be3f941738110f36015c525992ef55d2564e4c015eb56428",
      "assetIds": [
        "41506478881403507969696680653240014914910929820314476107906210059990541021187"
      ]
    },
    {
      "x": 337,
      "y": 258,
      "size": 1,
      "price": "4683000000000000000000",
      "reserved": "",
      "salt": "0xd26b3e46de3161d50d2369893fb5d2f571f5fb55fd5b64cbb42ae473b3777b0c",
      "assetIds": [
        "41506478881403507969696680653240014914910929820314476107906210059990541021189"
      ]
    },
    {
      "x": 337,
      "y": 259,
      "size": 1,
      "price": "4683000000000000000000",
      "reserved": "",
      "salt": "0x0bcf302d20c161478dd94765356f744416e90f95ce7ea905cb5a08f1cf098f71",
      "assetIds": [
        "41506478881403507969696680653240014914910929820314476107906210059990541021186"
      ]
    },
    {
      "x": 337,
      "y": 260,
      "size": 1,
      "price": "4683000000000000000000",
      "reserved": "",
      "salt": "0x7221d2bc9bd94209549741637ca1b6e77a3569d691b5ca60891b7e8bca696f0a",
      "assetIds": [
        "41506478881403507969696680653240014914910929820314476107906210059990541021188"
      ]
    },
    {
      "x": 337,
      "y": 261,
      "size": 1,
      "price": "4683000000000000000000",
      "reserved": "",
      "salt": "0xa15c719147d9e74d7f8fadc4dd9a3810edad0868001cdfa85aa168cd0158920c",
      "assetIds": [
        "41506478881403507969696680653240014914910929820314476107906210059990541021189"
      ]
    },
    {
      "x": 337,
      "y": 262,
      "size": 1,
      "price": "4683000000000000000000",
      "reserved": "",
      "salt": "0xa820f2c004194004c33daff5bc3d1586c8a6bc3411531c0428a21847c1ffc321",
      "assetIds": [
        "41506478881403507969696680653240014914910929820314476107906210059990541021184"
      ]
    },
    {
      "x": 337,
      "y": 263,
      "size": 1,
      "price": "4683000000000000000000",
      "reserved": "",
      "salt": "0x61ad9f5ff799eb215afe56ca8a833bea85d7ee635da4c2e2f0a9946b40534350",
      "assetIds": [
        "41506478881403507969696680653240014914910929820314476107906210059990541021188"
      ]
    },
    {
      "x": 337,
      "y": 288,
      "size": 1,
      "price": "4683000000000000000000",
      "reserved": "",
      "salt": "0xafedfb494664994e5b6dbd5bc6bdd8b0aaaa15ee4e8897153805458342d87ba3",
      "assetIds": [
        "41506478881403507969696680653240014914910929820314476107906210059990541021187"
      ]
    },
    {
      "x": 337,
      "y": 289,
      "size": 1,
      "price": "4683000000000000000000",
      "reserved": "",
      "salt": "0x28e47c21df71cb99db725f47c9ee1c61a195800b013e4f41ffa4da57808c9b23",
      "assetIds": [
        "41506478881403507969696680653240014914910929820314476107906210059990541021188"
      ]
    },
    {
      "x": 337,
      "y": 290,
      "size": 1,
      "price": "4683000000000000000000",
      "reserved": "",
      "salt": "0x99733d88d1feec6c8fa746bbc826a7241af59f8703d492397209bf28bb45d300",
      "assetIds": [
        "41506478881403507969696680653240014914910929820314476107906210059990541021189"
      ]
    },
    {
      "x": 337,
      "y": 291,
      "size": 1,
      "price": "4683000000000000000000",
      "reserved": "",
      "salt": "0x56e2290c44287540c666e5a7ec4a945cf6b302ccbd43e6dfc0f76e60dc3acbdc",
      "assetIds": [
        "41506478881403507969696680653240014914910929820314476107906210059990541021184"
      ]
    },
    {
      "x": 337,
      "y": 292,
      "size": 1,
      "price": "4683000000000000000000",
      "reserved": "",
      "salt": "0xcfa730a9851bd89ff21a601ab6c3d87ae1f3b3bb8c8368f615a2c6c229a3213d",
      "assetIds": [
        "41506478881403507969696680653240014914910929820314476107906210059990541021185"
      ]
    },
    {
      "x": 337,
      "y": 293,
      "size": 1,
      "price": "4683000000000000000000",
      "reserved": "",
      "salt": "0x2d1e8e4c966f8e34320e499ed26e4c4f6e129fcc2dbf43f42f45b3d090d612e5",
      "assetIds": [
        "41506478881403507969696680653240014914910929820314476107906210059990541021187"
      ]
    },
    {
      "x": 337,
      "y": 294,
      "size": 1,
      "price": "4683000000000000000000",
      "reserved": "",
      "salt": "0x91a13ba89cce4a07282f4adb59561aed90c4ab801784e4cf83facfc6da82e5eb",
      "assetIds": [
        "41506478881403507969696680653240014914910929820314476107906210059990541021189"
      ]
    },
    {
      "x": 337,
      "y": 295,
      "size": 1,
      "price": "4683000000000000000000",
      "reserved": "",
      "salt": "0xbb38f75a8903051a255223b13cfe492d384645ff69be1e2902546d45274837db",
      "assetIds": [
        "41506478881403507969696680653240014914910929820314476107906210059990541021188"
      ]
    },
    {
      "x": 337,
      "y": 296,
      "size": 1,
      "price": "4683000000000000000000",
      "reserved": "",
      "salt": "0x353a2982bcb1fafba31338f66659940286408363bd170264bd384577b5cd6a58",
      "assetIds": [
        "41506478881403507969696680653240014914910929820314476107906210059990541021187"
      ]
    },
    {
      "x": 337,
      "y": 297,
      "size": 1,
      "price": "4683000000000000000000",
      "reserved": "",
      "salt": "0x82d3d5f089af49de7923313d8788312bc7311aa3d6ceea4f3c71e51bedfc91a3",
      "assetIds": [
        "41506478881403507969696680653240014914910929820314476107906210059990541021188"
      ]
    },
    {
      "x": 337,
      "y": 298,
      "size": 1,
      "price": "4683000000000000000000",
      "reserved": "",
      "salt": "0x5e8cee1c869442b6d4ca050b4c80b94132770b71bef89fc90f692829cab5c50c",
      "assetIds": [
        "41506478881403507969696680653240014914910929820314476107906210059990541021187"
      ]
    },
    {
      "x": 337,
      "y": 299,
      "size": 1,
      "price": "4683000000000000000000",
      "reserved": "",
      "salt": "0x78409e51b398f817c26fb2d474bb466abd3f758a4f72e7c105617d7d302d3ee8",
      "assetIds": [
        "41506478881403507969696680653240014914910929820314476107906210059990532622336"
      ]
    },
    {
      "x": 338,
      "y": 252,
      "size": 1,
      "price": "4683000000000000000000",
      "reserved": "",
      "salt": "0xa352fd0d16c022700b42936125da31471ef7352a7c20cfc300cd9fd6ef42d921",
      "assetIds": [
        "41506478881403507969696680653240014914910929820314476107906210059990541021184"
      ]
    },
    {
      "x": 338,
      "y": 253,
      "size": 1,
      "price": "4683000000000000000000",
      "reserved": "",
      "salt": "0xde3f139cac57579a4a01a0faa13917b58070eb8b3dcb6e19cd873b4cd26de685",
      "assetIds": [
        "41506478881403507969696680653240014914910929820314476107906210059990541021185"
      ]
    },
    {
      "x": 338,
      "y": 254,
      "size": 1,
      "price": "4683000000000000000000",
      "reserved": "",
      "salt": "0x3f4f6c279c265ab4cb012fc1fa9f22c6632e7f803123915bc93134a54673f2da",
      "assetIds": [
        "41506478881403507969696680653240014914910929820314476107906210059990541021185"
      ]
    },
    {
      "x": 338,
      "y": 258,
      "size": 1,
      "price": "4683000000000000000000",
      "reserved": "",
      "salt": "0x6bbdf9ac68b27c7e5d3390fb375962ebd32be4dd052db4952c0ac193614e2dfc",
      "assetIds": [
        "41506478881403507969696680653240014914910929820314476107906210059990541021188"
      ]
    },
    {
      "x": 338,
      "y": 259,
      "size": 1,
      "price": "4683000000000000000000",
      "reserved": "",
      "salt": "0xea55f34b790efbb636cd3d47076734852a7439e177b0975c82a0746964446a62",
      "assetIds": [
        "41506478881403507969696680653240014914910929820314476107906210059990541021187"
      ]
    },
    {
      "x": 338,
      "y": 260,
      "size": 1,
      "price": "4683000000000000000000",
      "reserved": "",
      "salt": "0xc1b6514ae3245de07af0204bc9e20d07d1e8d96e9e1e098456e50cf1b244d952",
      "assetIds": [
        "41506478881403507969696680653240014914910929820314476107906210059990541021186"
      ]
    },
    {
      "x": 338,
      "y": 261,
      "size": 1,
      "price": "4683000000000000000000",
      "reserved": "",
      "salt": "0xa38d663d558ad96d10ac32ed62b0242bb70570c3258340e95d61c502b2240fbe",
      "assetIds": [
        "41506478881403507969696680653240014914910929820314476107906210059990541021189"
      ]
    },
    {
      "x": 338,
      "y": 262,
      "size": 1,
      "price": "4683000000000000000000",
      "reserved": "",
      "salt": "0x52051db283ae25b0955906985b87c00dab6a3a4c1640499200a1bd3379daae6f",
      "assetIds": [
        "41506478881403507969696680653240014914910929820314476107906210059990541021188"
      ]
    },
    {
      "x": 338,
      "y": 263,
      "size": 1,
      "price": "4683000000000000000000",
      "reserved": "",
      "salt": "0x6216cc4c47fc4b1828dfbe0a16c3ad32d52d9450f0256db0ef289168cd5283c6",
      "assetIds": [
        "41506478881403507969696680653240014914910929820314476107906210059990541021188"
      ]
    },
    {
      "x": 338,
      "y": 288,
      "size": 1,
      "price": "4683000000000000000000",
      "reserved": "",
      "salt": "0x0a811aa3f34bc357b651d7cbe9a4537f44f4ff9fa5b53ac4e4faf8a7f99959c3",
      "assetIds": [
        "41506478881403507969696680653240014914910929820314476107906210059990541021187"
      ]
    },
    {
      "x": 338,
      "y": 289,
      "size": 1,
      "price": "1011000000000000000000",
      "reserved": "0x7a9fe22691c811ea339d9b73150e6911a5343dca",
      "salt": "0x33287d5fa8527e570df8b055f517a688b474f865e26713f113a9987043e8176c",
      "assetIds": []
    },
    {
      "x": 338,
      "y": 290,
      "size": 1,
      "price": "4683000000000000000000",
      "reserved": "",
      "salt": "0xe2c70628f0c2249732846c8ce0601fb77b8b367929df5061975cdd412b19005f",
      "assetIds": [
        "41506478881403507969696680653240014914910929820314476107906210059990541021189"
      ]
    },
    {
      "x": 338,
      "y": 291,
      "size": 1,
      "price": "4683000000000000000000",
      "reserved": "",
      "salt": "0xc2e1ba4359aee3490aec4e30850451708843131bb05d9900b50221071dbcab07",
      "assetIds": [
        "41506478881403507969696680653240014914910929820314476107906210059990541021187"
      ]
    },
    {
      "x": 338,
      "y": 292,
      "size": 1,
      "price": "4683000000000000000000",
      "reserved": "",
      "salt": "0x8063c2e3e61d17da84fc2e5f80ef8641ab96bde92a4b537dd61a51f4ab6a77c8",
      "assetIds": [
        "41506478881403507969696680653240014914910929820314476107906210059990541021187"
      ]
    },
    {
      "x": 338,
      "y": 293,
      "size": 1,
      "price": "4683000000000000000000",
      "reserved": "",
      "salt": "0x9c031aa309b83df64fb5f2c952a4fee56df119aa9579c62840b6cd53f75e17b4",
      "assetIds": [
        "41506478881403507969696680653240014914910929820314476107906210059990541021187"
      ]
    },
    {
      "x": 338,
      "y": 294,
      "size": 1,
      "price": "4683000000000000000000",
      "reserved": "",
      "salt": "0x11ce25e630723c724956c6f23ca4213b5e6fe70eb843e006bd7a8076b39c6a92",
      "assetIds": [
        "41506478881403507969696680653240014914910929820314476107906210059990541021189"
      ]
    },
    {
      "x": 338,
      "y": 295,
      "size": 1,
      "price": "4683000000000000000000",
      "reserved": "",
      "salt": "0xe1fee00f940318a2bf75ce63502c3b92d774007fb5e41963f1184434110af371",
      "assetIds": [
        "41506478881403507969696680653240014914910929820314476107906210059990541021185"
      ]
    },
    {
      "x": 338,
      "y": 296,
      "size": 1,
      "price": "4683000000000000000000",
      "reserved": "",
      "salt": "0x228bc2759846d49417594e53ebd1aa08ef96c1e77ac0cfd8c20931b60172c87d",
      "assetIds": [
        "41506478881403507969696680653240014914910929820314476107906210059990541021187"
      ]
    },
    {
      "x": 338,
      "y": 297,
      "size": 1,
      "price": "4683000000000000000000",
      "reserved": "",
      "salt": "0x5798b6994a2c5e4a85af9701bef012f6780fc62837e168ede3a9f2b26a0f216c",
      "assetIds": [
        "41506478881403507969696680653240014914910929820314476107906210059990541021188"
      ]
    },
    {
      "x": 338,
      "y": 298,
      "size": 1,
      "price": "4683000000000000000000",
      "reserved": "",
      "salt": "0x95ff5ff6136334940bcd3c48409cb25c4d92b147a2d45e642947186087d43f0f",
      "assetIds": [
        "41506478881403507969696680653240014914910929820314476107906210059990541021186"
      ]
    },
    {
      "x": 338,
      "y": 299,
      "size": 1,
      "price": "4683000000000000000000",
      "reserved": "",
      "salt": "0x08d60afc16e8e08dd9931c8dc907730c5340db3ea21ed41d9db7ad8cbbf3991e",
      "assetIds": [
        "41506478881403507969696680653240014914910929820314476107906210059990541021188"
      ]
    },
    {
      "x": 339,
      "y": 246,
      "size": 1,
      "price": "4683000000000000000000",
      "reserved": "",
      "salt": "0x36531498838ea8d13963994b0074c1915cc7aaf3e4ee89f47bb3a1681524a6e9",
      "assetIds": [
        "41506478881403507969696680653240014914910929820314476107906210059990541021184"
      ]
    },
    {
      "x": 339,
      "y": 247,
      "size": 1,
      "price": "4683000000000000000000",
      "reserved": "",
      "salt": "0xa42cd7c0eec30653e560448041c1a9bb09525e45f8ce74c80b31721a8c164385",
      "assetIds": [
        "41506478881403507969696680653240014914910929820314476107906210059990541021185"
      ]
    },
    {
      "x": 339,
      "y": 248,
      "size": 1,
      "price": "4683000000000000000000",
      "reserved": "",
      "salt": "0x508aef937571f212497ae787ce76dcfffea2635933efb01e888163dc125b1793",
      "assetIds": [
        "41506478881403507969696680653240014914910929820314476107906210059990541021187"
      ]
    },
    {
      "x": 339,
      "y": 249,
      "size": 1,
      "price": "4683000000000000000000",
      "reserved": "",
      "salt": "0x34d050409c50702f0839f7b6779f87ca50558a88e393c7bacf0f04b17943d520",
      "assetIds": [
        "41506478881403507969696680653240014914910929820314476107906210059990541021185"
      ]
    },
    {
      "x": 339,
      "y": 250,
      "size": 1,
      "price": "4683000000000000000000",
      "reserved": "",
      "salt": "0x1cd7ed7318c4fb8bcc90f49bca1706dd739df27cf6686d90132d0aa2874dd2b2",
      "assetIds": [
        "41506478881403507969696680653240014914910929820314476107906210059990541021188"
      ]
    },
    {
      "x": 339,
      "y": 251,
      "size": 1,
      "price": "4683000000000000000000",
      "reserved": "",
      "salt": "0x2bc24b417e3578ea2d6195bf841e82424ef36b7ba877a3bdd48dcbedb854c9b5",
      "assetIds": [
        "41506478881403507969696680653240014914910929820314476107906210059990541021185"
      ]
    },
    {
      "x": 339,
      "y": 255,
      "size": 1,
      "price": "4683000000000000000000",
      "reserved": "",
      "salt": "0xe52587484f6d518f5540a36c8ccf2b76d7426740ab0e37f3f49e02933e8faa5c",
      "assetIds": [
        "41506478881403507969696680653240014914910929820314476107906210059990541021187"
      ]
    },
    {
      "x": 339,
      "y": 256,
      "size": 1,
      "price": "4683000000000000000000",
      "reserved": "",
      "salt": "0xbf68250fa1f90fb53fc3e94e16f90d59203ebe8cc75cff8e18d92879badf6614",
      "assetIds": [
        "41506478881403507969696680653240014914910929820314476107906210059990541021189"
      ]
    },
    {
      "x": 339,
      "y": 257,
      "size": 1,
      "price": "4683000000000000000000",
      "reserved": "",
      "salt": "0xd87d6d2296e92ada6d9d49eade6f82762d7df34f63e2266884bef9260c45bcee",
      "assetIds": [
        "41506478881403507969696680653240014914910929820314476107906210059990532622336"
      ]
    },
    {
      "x": 339,
      "y": 258,
      "size": 1,
      "price": "4683000000000000000000",
      "reserved": "",
      "salt": "0x46c22733551cb9cce95efc4d2a6f856b340d48ed97d121189d22598bb0c30de5",
      "assetIds": [
        "41506478881403507969696680653240014914910929820314476107906210059990541021188"
      ]
    },
    {
      "x": 339,
      "y": 259,
      "size": 1,
      "price": "4683000000000000000000",
      "reserved": "",
      "salt": "0x785f85d6a19417b0da2c716df0650900765a882c2cd209c3305672e023adcd0e",
      "assetIds": [
        "41506478881403507969696680653240014914910929820314476107906210059990541021189"
      ]
    },
    {
      "x": 339,
      "y": 260,
      "size": 1,
      "price": "4683000000000000000000",
      "reserved": "",
      "salt": "0x6cd48d899e4ed356ec7b5a6b7ba85858401f7853ca562065fb57b9f180b9ddb7",
      "assetIds": [
        "41506478881403507969696680653240014914910929820314476107906210059990541021187"
      ]
    },
    {
      "x": 339,
      "y": 261,
      "size": 1,
      "price": "4683000000000000000000",
      "reserved": "",
      "salt": "0x34644018d6ce59a50a29eb04fbf34f91049c076807423935ae5db6ff6e297df4",
      "assetIds": [
        "41506478881403507969696680653240014914910929820314476107906210059990541021185"
      ]
    },
    {
      "x": 339,
      "y": 262,
      "size": 1,
      "price": "1011000000000000000000",
      "reserved": "0x7a9fe22691c811ea339d9b73150e6911a5343dca",
      "salt": "0x56f428a6121b0f6de83b364abc9662f912fb1d2c761f60c38d4fb23db6b7abf8",
      "assetIds": []
    },
    {
      "x": 339,
      "y": 263,
      "size": 1,
      "price": "4683000000000000000000",
      "reserved": "",
      "salt": "0x36bdaf5ea2f5b43e4dace9594a3219f10adc38c1bbd709c68ebeef573f85640f",
      "assetIds": [
        "41506478881403507969696680653240014914910929820314476107906210059990541021184"
      ]
    },
    {
      "x": 339,
      "y": 288,
      "size": 1,
      "price": "4683000000000000000000",
      "reserved": "",
      "salt": "0x835a55d9ac8c741351c82e5ad3f511455f4995b0d9faa3ba4eb10abe2262dd73",
      "assetIds": [
        "41506478881403507969696680653240014914910929820314476107906210059990541021184"
      ]
    },
    {
      "x": 339,
      "y": 289,
      "size": 1,
      "price": "4683000000000000000000",
      "reserved": "",
      "salt": "0xcd5b2e2fbb8b498d8945f26e34c0450e75bad6d365dfbdd6fe22004506858843",
      "assetIds": [
        "41506478881403507969696680653240014914910929820314476107906210059990541021188"
      ]
    },
    {
      "x": 339,
      "y": 290,
      "size": 1,
      "price": "4683000000000000000000",
      "reserved": "",
      "salt": "0x039011f6d63558aa49bb98d5bce66c85c1dbef364272d26320c206b400df5d85",
      "assetIds": [
        "41506478881403507969696680653240014914910929820314476107906210059990541021188"
      ]
    },
    {
      "x": 339,
      "y": 291,
      "size": 1,
      "price": "4683000000000000000000",
      "reserved": "",
      "salt": "0xeb2271b0bcca3f66b62728f9f583455bafdd616f2872d814dc6c286214d1bd7f",
      "assetIds": [
        "41506478881403507969696680653240014914910929820314476107906210059990541021189"
      ]
    },
    {
      "x": 339,
      "y": 292,
      "size": 1,
      "price": "4683000000000000000000",
      "reserved": "",
      "salt": "0x928d019782185436056705c27ede044530ded813663db3388cd442cfc9d0a556",
      "assetIds": [
        "41506478881403507969696680653240014914910929820314476107906210059990541021188"
      ]
    },
    {
      "x": 339,
      "y": 293,
      "size": 1,
      "price": "4683000000000000000000",
      "reserved": "",
      "salt": "0x70991db52f186bbe0b21e34357cec9112a6e689f4f6b6a77d952e5bce9300f3f",
      "assetIds": [
        "41506478881403507969696680653240014914910929820314476107906210059990532622336"
      ]
    },
    {
      "x": 339,
      "y": 294,
      "size": 1,
      "price": "4683000000000000000000",
      "reserved": "",
      "salt": "0x488c265755aa4875657d6291d5c21534e36567351afb3ef26180aaca136c134d",
      "assetIds": [
        "41506478881403507969696680653240014914910929820314476107906210059990541021184"
      ]
    },
    {
      "x": 339,
      "y": 295,
      "size": 1,
      "price": "4683000000000000000000",
      "reserved": "",
      "salt": "0xe3c1b74dc9b04876dbba2f9ba0c04e5c498008a19593f60d9db4e188ecb60c57",
      "assetIds": [
        "41506478881403507969696680653240014914910929820314476107906210059990541021184"
      ]
    },
    {
      "x": 339,
      "y": 296,
      "size": 1,
      "price": "4683000000000000000000",
      "reserved": "",
      "salt": "0x537d331c499fe81b29b6789a2d37d9e0c41a9da3c5cef2de9f357554fce63951",
      "assetIds": [
        "41506478881403507969696680653240014914910929820314476107906210059990541021187"
      ]
    },
    {
      "x": 339,
      "y": 297,
      "size": 1,
      "price": "4683000000000000000000",
      "reserved": "",
      "salt": "0x7eaab1504c6b43eba09dfbdfd3634ca270b34d51269ea3d85d8134b59e0d7ef7",
      "assetIds": [
        "41506478881403507969696680653240014914910929820314476107906210059990541021185"
      ]
    },
    {
      "x": 339,
      "y": 298,
      "size": 1,
      "price": "4683000000000000000000",
      "reserved": "",
      "salt": "0x754b9b21986fd6a78a4d835e3a20b29c86f62ff7a7c65ea8a381b9d0a322f2e2",
      "assetIds": [
        "41506478881403507969696680653240014914910929820314476107906210059990541021189"
      ]
    },
    {
      "x": 339,
      "y": 299,
      "size": 1,
      "price": "4683000000000000000000",
      "reserved": "",
      "salt": "0x095a20fd44deff8a43bd218486d5bd775cc450031623dc39e8f293f32b9de60b",
      "assetIds": [
        "41506478881403507969696680653240014914910929820314476107906210059990532622336"
      ]
    },
    {
      "x": 340,
      "y": 246,
      "size": 1,
      "price": "4683000000000000000000",
      "reserved": "",
      "salt": "0x976b359fcd34fbc487ace8b64e9fd8dc88e9a28c5fc9502f0ff80b99d92dd962",
      "assetIds": [
        "41506478881403507969696680653240014914910929820314476107906210059990541021188"
      ]
    },
    {
      "x": 340,
      "y": 247,
      "size": 1,
      "price": "4683000000000000000000",
      "reserved": "",
      "salt": "0x14f3d286cf36f5629508fa22f7ce2f0b9ac355a729e5c1770ae045dea23ee03b",
      "assetIds": [
        "41506478881403507969696680653240014914910929820314476107906210059990541021187"
      ]
    },
    {
      "x": 340,
      "y": 248,
      "size": 1,
      "price": "4683000000000000000000",
      "reserved": "",
      "salt": "0x34f3e9d3858739fb9f0acd11f7d64cc88d635ac35eea54cd62b337bfee191c46",
      "assetIds": [
        "41506478881403507969696680653240014914910929820314476107906210059990541021184"
      ]
    },
    {
      "x": 340,
      "y": 249,
      "size": 1,
      "price": "4683000000000000000000",
      "reserved": "",
      "salt": "0x78100d72979e5f70e08b5d161e49da69584dda7d042909dffcac20db7f02a73b",
      "assetIds": [
        "41506478881403507969696680653240014914910929820314476107906210059990541021185"
      ]
    },
    {
      "x": 340,
      "y": 250,
      "size": 1,
      "price": "4683000000000000000000",
      "reserved": "",
      "salt": "0xd7b869e81ca35aa0ac61342b64e6ac15fdcce43747d018afa14583d6600a9085",
      "assetIds": [
        "41506478881403507969696680653240014914910929820314476107906210059990541021186"
      ]
    },
    {
      "x": 340,
      "y": 251,
      "size": 1,
      "price": "4683000000000000000000",
      "reserved": "",
      "salt": "0x0ab3ccf75ad6bfc6b4934182b0203c48907298c364a9a853f64adf3a35e108c3",
      "assetIds": [
        "41506478881403507969696680653240014914910929820314476107906210059990541021188"
      ]
    },
    {
      "x": 340,
      "y": 255,
      "size": 1,
      "price": "4683000000000000000000",
      "reserved": "",
      "salt": "0xa7c0b9a8edd1386803daea123bbb0a3d3171803a1a3a81a79126240a666131da",
      "assetIds": [
        "41506478881403507969696680653240014914910929820314476107906210059990541021184"
      ]
    },
    {
      "x": 340,
      "y": 256,
      "size": 1,
      "price": "4683000000000000000000",
      "reserved": "",
      "salt": "0x325b5f2ca58372e380d094f0bee1d4efed474c7fae1651b24e2db91cd36a2711",
      "assetIds": [
        "41506478881403507969696680653240014914910929820314476107906210059990541021185"
      ]
    },
    {
      "x": 340,
      "y": 257,
      "size": 1,
      "price": "4683000000000000000000",
      "reserved": "",
      "salt": "0x8941562ae607e55a6faf73f1c8f587dc265e064441d394fed17f5d3d5ccbe510",
      "assetIds": [
        "41506478881403507969696680653240014914910929820314476107906210059990541021187"
      ]
    },
    {
      "x": 340,
      "y": 258,
      "size": 1,
      "price": "4683000000000000000000",
      "reserved": "",
      "salt": "0x622520d46cb3aca4dfc8eaf2ffcd95fde446ee4c2aa7ef5281b229dbf95f842e",
      "assetIds": [
        "41506478881403507969696680653240014914910929820314476107906210059990541021187"
      ]
    },
    {
      "x": 340,
      "y": 259,
      "size": 1,
      "price": "4683000000000000000000",
      "reserved": "",
      "salt": "0xce6e1f02fd2dec8076c26787567ad22d2b5345ff915855c9436a4ad114dde990",
      "assetIds": [
        "41506478881403507969696680653240014914910929820314476107906210059990541021187"
      ]
    },
    {
      "x": 340,
      "y": 260,
      "size": 1,
      "price": "4683000000000000000000",
      "reserved": "",
      "salt": "0x618d3674374f5cfe8da4df73edefb2a0297dadc61d5bdcab3b3a1f942889d3e5",
      "assetIds": [
        "41506478881403507969696680653240014914910929820314476107906210059990541021189"
      ]
    },
    {
      "x": 340,
      "y": 261,
      "size": 1,
      "price": "4683000000000000000000",
      "reserved": "",
      "salt": "0xcdc70037d4faebbcaa029f43eb62aa278b424a8999c792076eacdb9a2fcff4e7",
      "assetIds": [
        "41506478881403507969696680653240014914910929820314476107906210059990541021187"
      ]
    },
    {
      "x": 340,
      "y": 262,
      "size": 1,
      "price": "4683000000000000000000",
      "reserved": "",
      "salt": "0xb40ace5a796725c944dce6c940d31adbfc2809aaecc5d076a9d161d04925ac50",
      "assetIds": [
        "41506478881403507969696680653240014914910929820314476107906210059990541021186"
      ]
    },
    {
      "x": 340,
      "y": 263,
      "size": 1,
      "price": "4683000000000000000000",
      "reserved": "",
      "salt": "0x89079b7cf001897c9346c0f20284a6e177d4ad2ff288b20e493a13fa4323c6dd",
      "assetIds": [
        "41506478881403507969696680653240014914910929820314476107906210059990541021185"
      ]
    },
    {
      "x": 340,
      "y": 288,
      "size": 1,
      "price": "4683000000000000000000",
      "reserved": "",
      "salt": "0x8fe1f488ac28648a6e6ce01836cfc65edb29c315a210030ec31775f799cc983a",
      "assetIds": [
        "41506478881403507969696680653240014914910929820314476107906210059990541021189"
      ]
    },
    {
      "x": 340,
      "y": 289,
      "size": 1,
      "price": "4683000000000000000000",
      "reserved": "",
      "salt": "0x9bde2539232691e2716e853af99d4d7791ecfc9eb90a70d3a18d54f0abc45576",
      "assetIds": [
        "41506478881403507969696680653240014914910929820314476107906210059990541021187"
      ]
    },
    {
      "x": 340,
      "y": 290,
      "size": 1,
      "price": "4683000000000000000000",
      "reserved": "",
      "salt": "0x1af61197a5a400b64094cf952f7650a718fc70d3729f487d5b47943dc3a6b950",
      "assetIds": [
        "41506478881403507969696680653240014914910929820314476107906210059990541021189"
      ]
    },
    {
      "x": 340,
      "y": 291,
      "size": 1,
      "price": "4683000000000000000000",
      "reserved": "",
      "salt": "0xe8d3d056a6695fb7e960d925ead59472cd9981d32f6c8a44d9dfb8fbdd0a9dfd",
      "assetIds": [
        "41506478881403507969696680653240014914910929820314476107906210059990541021185"
      ]
    },
    {
      "x": 340,
      "y": 292,
      "size": 1,
      "price": "4683000000000000000000",
      "reserved": "",
      "salt": "0xfd9609bfcd2b3971fbe85279c79115d474eb3a4b6a5205b7e774e74401324878",
      "assetIds": [
        "41506478881403507969696680653240014914910929820314476107906210059990541021184"
      ]
    },
    {
      "x": 340,
      "y": 293,
      "size": 1,
      "price": "4683000000000000000000",
      "reserved": "",
      "salt": "0x39bed5eb237a77ebeedb71a0e1331fac464bc2390c5391ead125decba9942e86",
      "assetIds": [
        "41506478881403507969696680653240014914910929820314476107906210059990541021184"
      ]
    },
    {
      "x": 340,
      "y": 294,
      "size": 1,
      "price": "4683000000000000000000",
      "reserved": "",
      "salt": "0xc82a2cfec5112d4992c788cbf30d439ac6c479f6a77697e7f4a3e53584a11127",
      "assetIds": [
        "41506478881403507969696680653240014914910929820314476107906210059990532622336"
      ]
    },
    {
      "x": 340,
      "y": 295,
      "size": 1,
      "price": "4683000000000000000000",
      "reserved": "",
      "salt": "0xf0cc129e715a71029f69ae35ed5c0df45b92df0c08ab2f0eef87f069802b5dc2",
      "assetIds": [
        "41506478881403507969696680653240014914910929820314476107906210059990541021188"
      ]
    },
    {
      "x": 340,
      "y": 296,
      "size": 1,
      "price": "4683000000000000000000",
      "reserved": "",
      "salt": "0xac62acb1b174443b5a8059dfffafc94654df5ce4e3713cd8980fc39bfac6559c",
      "assetIds": [
        "41506478881403507969696680653240014914910929820314476107906210059990532622336"
      ]
    },
    {
      "x": 340,
      "y": 297,
      "size": 1,
      "price": "4683000000000000000000",
      "reserved": "",
      "salt": "0xa5530fd0c6135ea96ff6f95e13c9ac2fc3d66a0d39195bf5378edfb8de6ab8f8",
      "assetIds": [
        "41506478881403507969696680653240014914910929820314476107906210059990541021185"
      ]
    },
    {
      "x": 340,
      "y": 298,
      "size": 1,
      "price": "4683000000000000000000",
      "reserved": "",
      "salt": "0x280df4deb02d476ff2fa09927c941e534988a7049d4553d8b9a5230fc87b1a49",
      "assetIds": [
        "41506478881403507969696680653240014914910929820314476107906210059990541021189"
      ]
    },
    {
      "x": 340,
      "y": 299,
      "size": 1,
      "price": "4683000000000000000000",
      "reserved": "",
      "salt": "0xda1edfb21522aab669598cd2a7bb7aa3f363d51aea5c5ad822406dc54de2e7a3",
      "assetIds": [
        "41506478881403507969696680653240014914910929820314476107906210059990541021187"
      ]
    },
    {
      "x": 341,
      "y": 246,
      "size": 1,
      "price": "4683000000000000000000",
      "reserved": "",
      "salt": "0xe4726b13e0c822861c6269d61684a81800a18455776921f871fdda89846c0829",
      "assetIds": [
        "41506478881403507969696680653240014914910929820314476107906210059990541021187"
      ]
    },
    {
      "x": 341,
      "y": 247,
      "size": 1,
      "price": "4683000000000000000000",
      "reserved": "",
      "salt": "0x4fd7fbf7caf2bfcf5fb8d68752c9b5920708d1d5cdaf9de49a7c567eee2fe8b0",
      "assetIds": [
        "41506478881403507969696680653240014914910929820314476107906210059990541021184"
      ]
    },
    {
      "x": 341,
      "y": 248,
      "size": 1,
      "price": "4683000000000000000000",
      "reserved": "",
      "salt": "0xf62b72f7386258366b4cd65881ec2e93baed308938318370a9173c3218205f40",
      "assetIds": [
        "41506478881403507969696680653240014914910929820314476107906210059990541021189"
      ]
    },
    {
      "x": 341,
      "y": 249,
      "size": 1,
      "price": "4683000000000000000000",
      "reserved": "",
      "salt": "0xdcffcb1374cea66faae755e05725e9e8ce1f96b1481553e9f1991a69322d41cd",
      "assetIds": [
        "41506478881403507969696680653240014914910929820314476107906210059990541021186"
      ]
    },
    {
      "x": 341,
      "y": 250,
      "size": 1,
      "price": "4683000000000000000000",
      "reserved": "",
      "salt": "0x36c99059f576093fdd5a277ef5d4e3f81a1380ab5b4ab10ccb59c82ab9186a62",
      "assetIds": [
        "41506478881403507969696680653240014914910929820314476107906210059990541021187"
      ]
    },
    {
      "x": 341,
      "y": 251,
      "size": 1,
      "price": "4683000000000000000000",
      "reserved": "",
      "salt": "0x770d591bf9139e2abe48af28a175845e24414852742b8ddd241b7b933b23d4ab",
      "assetIds": [
        "41506478881403507969696680653240014914910929820314476107906210059990541021185"
      ]
    },
    {
      "x": 341,
      "y": 255,
      "size": 1,
      "price": "4683000000000000000000",
      "reserved": "",
      "salt": "0x213b409a7039a6573509aa9e1f22f0a8c45354dd1fd511832b5bf3eeb9927d25",
      "assetIds": [
        "41506478881403507969696680653240014914910929820314476107906210059990532622336"
      ]
    },
    {
      "x": 341,
      "y": 256,
      "size": 1,
      "price": "4683000000000000000000",
      "reserved": "",
      "salt": "0xd8fd39c71896d0a5f3158452869825ae60da7163dbf81c09197a1fcabe5015d4",
      "assetIds": [
        "41506478881403507969696680653240014914910929820314476107906210059990532622336"
      ]
    },
    {
      "x": 341,
      "y": 257,
      "size": 1,
      "price": "4683000000000000000000",
      "reserved": "",
      "salt": "0xa68ab8ba4d582574183f8ca998cc3c9060b7fef9b48394f63c3e6f53ac79c91b",
      "assetIds": [
        "41506478881403507969696680653240014914910929820314476107906210059990541021189"
      ]
    },
    {
      "x": 341,
      "y": 258,
      "size": 1,
      "price": "4683000000000000000000",
      "reserved": "",
      "salt": "0xe7cd95b9a858837f2b280934779c7cb4961c8481837dbcfb2cc3ec85954fba46",
      "assetIds": [
        "41506478881403507969696680653240014914910929820314476107906210059990541021187"
      ]
    },
    {
      "x": 341,
      "y": 259,
      "size": 1,
      "price": "4683000000000000000000",
      "reserved": "",
      "salt": "0xd36f9f5acdddf23fbda890d56bbd6ed99a8042c1c114a4d562efe5f629499f04",
      "assetIds": [
        "41506478881403507969696680653240014914910929820314476107906210059990541021188"
      ]
    },
    {
      "x": 341,
      "y": 260,
      "size": 1,
      "price": "4683000000000000000000",
      "reserved": "",
      "salt": "0x4a09079a0692ae71dea8efd2309dc5dd62089802d2d440bbcf03cd3eb24d9fae",
      "assetIds": [
        "41506478881403507969696680653240014914910929820314476107906210059990541021189"
      ]
    },
    {
      "x": 341,
      "y": 261,
      "size": 1,
      "price": "4683000000000000000000",
      "reserved": "",
      "salt": "0x8bdc22efe329a3f245ff78c574422a6df87ae7af57550e4cf78a96bfe074a103",
      "assetIds": [
        "41506478881403507969696680653240014914910929820314476107906210059990541021184"
      ]
    },
    {
      "x": 341,
      "y": 262,
      "size": 1,
      "price": "4683000000000000000000",
      "reserved": "",
      "salt": "0xb08294a4bc4a4c68bcea50bca491921e795d2e66b45abeb52007b09ba82d286a",
      "assetIds": [
        "41506478881403507969696680653240014914910929820314476107906210059990532622336"
      ]
    },
    {
      "x": 341,
      "y": 263,
      "size": 1,
      "price": "4683000000000000000000",
      "reserved": "",
      "salt": "0x117c1c38955723350721f932559cd86a43de4889d61ccb361ba44999bcd82b8d",
      "assetIds": [
        "41506478881403507969696680653240014914910929820314476107906210059990541021185"
      ]
    },
    {
      "x": 341,
      "y": 288,
      "size": 1,
      "price": "4683000000000000000000",
      "reserved": "",
      "salt": "0xe12e9725265b07c662484caa43f96a3855327acfe0d3c8fdf78a3a81885f68e9",
      "assetIds": [
        "41506478881403507969696680653240014914910929820314476107906210059990541021189"
      ]
    },
    {
      "x": 341,
      "y": 289,
      "size": 1,
      "price": "4683000000000000000000",
      "reserved": "",
      "salt": "0x391af0e1408c405a70285f140f41c7633161209d7110185b3a6d994c6340ca93",
      "assetIds": [
        "41506478881403507969696680653240014914910929820314476107906210059990541021187"
      ]
    },
    {
      "x": 341,
      "y": 290,
      "size": 1,
      "price": "4683000000000000000000",
      "reserved": "",
      "salt": "0x8430c7dac16c2b823835a052f35f83e5c1e289f28fec26561aa7b35bfed5378b",
      "assetIds": [
        "41506478881403507969696680653240014914910929820314476107906210059990541021187"
      ]
    },
    {
      "x": 341,
      "y": 291,
      "size": 1,
      "price": "4683000000000000000000",
      "reserved": "",
      "salt": "0x3ad11a9a5092cd29a88a69f4579a2b480a37f25deed41ab0de469c46685ac374",
      "assetIds": [
        "41506478881403507969696680653240014914910929820314476107906210059990541021187"
      ]
    },
    {
      "x": 341,
      "y": 292,
      "size": 1,
      "price": "4683000000000000000000",
      "reserved": "",
      "salt": "0xe180c64dcd0a2dfa279e1b77c99be5480ec919484d4c1002d01ce811cb631dd5",
      "assetIds": [
        "41506478881403507969696680653240014914910929820314476107906210059990541021187"
      ]
    },
    {
      "x": 341,
      "y": 293,
      "size": 1,
      "price": "4683000000000000000000",
      "reserved": "",
      "salt": "0xd94cbc7c1f4e80cb6b0f565a570a69ef331e0a79cd5fe65d29d6e57c5b280d9b",
      "assetIds": [
        "41506478881403507969696680653240014914910929820314476107906210059990541021189"
      ]
    },
    {
      "x": 341,
      "y": 294,
      "size": 1,
      "price": "4683000000000000000000",
      "reserved": "",
      "salt": "0x99193f6f4ae523321f7465635f915618d7e24f9ea6772b84abd8d96a90a16b04",
      "assetIds": [
        "41506478881403507969696680653240014914910929820314476107906210059990541021184"
      ]
    },
    {
      "x": 341,
      "y": 295,
      "size": 1,
      "price": "4683000000000000000000",
      "reserved": "",
      "salt": "0x956692be9a154f80069a1a84130a4cfc2ef07a336e7f3e552d27e9d74b43f452",
      "assetIds": [
        "41506478881403507969696680653240014914910929820314476107906210059990541021187"
      ]
    },
    {
      "x": 341,
      "y": 296,
      "size": 1,
      "price": "4683000000000000000000",
      "reserved": "",
      "salt": "0xc3821b3afb45d6dfcef1496228a151c829971b10a21052dd89e8d7e26bd4808c",
      "assetIds": [
        "41506478881403507969696680653240014914910929820314476107906210059990541021188"
      ]
    },
    {
      "x": 341,
      "y": 297,
      "size": 1,
      "price": "4683000000000000000000",
      "reserved": "",
      "salt": "0x2637ef31f31ead2f4995772beeeff5931dca4f3ae39e2db7e8c90a04421a7da0",
      "assetIds": [
        "41506478881403507969696680653240014914910929820314476107906210059990541021188"
      ]
    },
    {
      "x": 341,
      "y": 298,
      "size": 1,
      "price": "4683000000000000000000",
      "reserved": "",
      "salt": "0xeef75399421374e0a5020df627512e72da28063b78d6a391968a0811f1d4ad99",
      "assetIds": [
        "41506478881403507969696680653240014914910929820314476107906210059990541021188"
      ]
    },
    {
      "x": 341,
      "y": 299,
      "size": 1,
      "price": "4683000000000000000000",
      "reserved": "",
      "salt": "0x6802a6ba6c9348d29388c407f35477bb8ba1c78c89539d64765e7fbc7f921fb9",
      "assetIds": [
        "41506478881403507969696680653240014914910929820314476107906210059990541021189"
      ]
    },
    {
      "x": 342,
      "y": 240,
      "size": 1,
      "price": "4683000000000000000000",
      "reserved": "",
      "salt": "0xb64e52d8a5c21f6dde334087b7e13fa14394492221e109bc061e4ce60d541780",
      "assetIds": [
        "41506478881403507969696680653240014914910929820314476107906210059990541021189"
      ]
    },
    {
      "x": 342,
      "y": 241,
      "size": 1,
      "price": "4683000000000000000000",
      "reserved": "",
      "salt": "0x3ca653ec6b9804d6b61706609b33b23f566fef6ca9b88c2199bc2cac1239e4ab",
      "assetIds": [
        "41506478881403507969696680653240014914910929820314476107906210059990541021189"
      ]
    },
    {
      "x": 342,
      "y": 242,
      "size": 1,
      "price": "4683000000000000000000",
      "reserved": "",
      "salt": "0x61bf9975875b4b518809832817c0b6cd0c60893a1014ac2796f47b0851270edf",
      "assetIds": [
        "41506478881403507969696680653240014914910929820314476107906210059990541021189"
      ]
    },
    {
      "x": 342,
      "y": 243,
      "size": 1,
      "price": "4683000000000000000000",
      "reserved": "",
      "salt": "0x6fc2e869da171fd7121c8bc8af3100b4f552fbecdda464b4f6a739e99907252b",
      "assetIds": [
        "41506478881403507969696680653240014914910929820314476107906210059990541021188"
      ]
    },
    {
      "x": 342,
      "y": 244,
      "size": 1,
      "price": "4683000000000000000000",
      "reserved": "",
      "salt": "0x15a7adf977073b9dccec1b388681e554820aaea347dad55d7a9b4535597079f7",
      "assetIds": [
        "41506478881403507969696680653240014914910929820314476107906210059990541021187"
      ]
    },
    {
      "x": 342,
      "y": 245,
      "size": 1,
      "price": "4683000000000000000000",
      "reserved": "",
      "salt": "0xcc824fd126e8f57e2a95813d2420bb55b7155c172d0d84dd39b42f9a9cc7c653",
      "assetIds": [
        "41506478881403507969696680653240014914910929820314476107906210059990541021187"
      ]
    },
    {
      "x": 342,
      "y": 246,
      "size": 1,
      "price": "4683000000000000000000",
      "reserved": "",
      "salt": "0x57ba17bb503e7620e810803d3c90ce538ece7732672aff29af57791cb1954d14",
      "assetIds": [
        "41506478881403507969696680653240014914910929820314476107906210059990541021187"
      ]
    },
    {
      "x": 342,
      "y": 247,
      "size": 1,
      "price": "4683000000000000000000",
      "reserved": "",
      "salt": "0x6367197bb1f4c9518be9e40e5a1b6ba43843f00c6ea2cc408aac5a916df95b07",
      "assetIds": [
        "41506478881403507969696680653240014914910929820314476107906210059990541021188"
      ]
    },
    {
      "x": 342,
      "y": 248,
      "size": 1,
      "price": "4683000000000000000000",
      "reserved": "",
      "salt": "0x7b8ce6157e8cc827dc1b1c8f7c975220eb603ebe6485416536d5aa2662b4e88e",
      "assetIds": [
        "41506478881403507969696680653240014914910929820314476107906210059990541021189"
      ]
    },
    {
      "x": 342,
      "y": 249,
      "size": 1,
      "price": "4683000000000000000000",
      "reserved": "",
      "salt": "0x93b3607b941b392dab9b749c07494e50b2aed70d65675b14ff24b3dc33b3fcf6",
      "assetIds": [
        "41506478881403507969696680653240014914910929820314476107906210059990541021189"
      ]
    },
    {
      "x": 342,
      "y": 250,
      "size": 1,
      "price": "4683000000000000000000",
      "reserved": "",
      "salt": "0x816dc9d237e251b1bde7dc205e0f13159b2a446acaecd90ca0d1914237bf1b42",
      "assetIds": [
        "41506478881403507969696680653240014914910929820314476107906210059990541021187"
      ]
    },
    {
      "x": 342,
      "y": 251,
      "size": 1,
      "price": "4683000000000000000000",
      "reserved": "",
      "salt": "0xdc6d2dcb6262d249167bfd4f5bf1790e456d22f96bdf6e50fa84ec67f936d6b2",
      "assetIds": [
        "41506478881403507969696680653240014914910929820314476107906210059990541021189"
      ]
    },
    {
      "x": 342,
      "y": 252,
      "size": 1,
      "price": "4683000000000000000000",
      "reserved": "",
      "salt": "0x80681ba1f6d95c4a944917df0085dd75a14040ccc97ec67778464e2e10439120",
      "assetIds": [
        "41506478881403507969696680653240014914910929820314476107906210059990541021185"
      ]
    },
    {
      "x": 342,
      "y": 253,
      "size": 1,
      "price": "4683000000000000000000",
      "reserved": "",
      "salt": "0xd220afcb2abb08af65cc578ad39d68746c61d9ae49b50f9a8ed868dca5b55c56",
      "assetIds": [
        "41506478881403507969696680653240014914910929820314476107906210059990541021187"
      ]
    },
    {
      "x": 342,
      "y": 254,
      "size": 1,
      "price": "4683000000000000000000",
      "reserved": "",
      "salt": "0xc1d7be8d5c6601b90916750ec0c27846b5844cab63331d5cf6c638487301ffe8",
      "assetIds": [
        "41506478881403507969696680653240014914910929820314476107906210059990541021188"
      ]
    },
    {
      "x": 342,
      "y": 255,
      "size": 1,
      "price": "4683000000000000000000",
      "reserved": "",
      "salt": "0x8ad7886dfb5c250585ca7734bd3afbf17d4bbd6db7b4ef193facf8cc177df9ba",
      "assetIds": [
        "41506478881403507969696680653240014914910929820314476107906210059990541021187"
      ]
    },
    {
      "x": 342,
      "y": 256,
      "size": 1,
      "price": "4683000000000000000000",
      "reserved": "",
      "salt": "0x25ccc4c20748d19498733dbcc948c36f33038156bb626a597b62befdc23c478e",
      "assetIds": [
        "41506478881403507969696680653240014914910929820314476107906210059990541021187"
      ]
    },
    {
      "x": 342,
      "y": 257,
      "size": 1,
      "price": "4683000000000000000000",
      "reserved": "",
      "salt": "0x0b9fd65b2aec5072f872fdd26696d1d633173079feb2ce0b911084f413e71b35",
      "assetIds": [
        "41506478881403507969696680653240014914910929820314476107906210059990541021187"
      ]
    },
    {
      "x": 342,
      "y": 294,
      "size": 1,
      "price": "4683000000000000000000",
      "reserved": "",
      "salt": "0xd03dff93f244034946c093172e7736e2588d6c2bb8533c2c873413295a268c6f",
      "assetIds": [
        "41506478881403507969696680653240014914910929820314476107906210059990541021186"
      ]
    },
    {
      "x": 342,
      "y": 295,
      "size": 1,
      "price": "4683000000000000000000",
      "reserved": "",
      "salt": "0x7b2dd8d93ab142037cd47914d1d7a59d1e2b289e5089397f8227652412ea945e",
      "assetIds": [
        "41506478881403507969696680653240014914910929820314476107906210059990541021187"
      ]
    },
    {
      "x": 342,
      "y": 296,
      "size": 1,
      "price": "4683000000000000000000",
      "reserved": "",
      "salt": "0x302218aa64bd1bd9983ac671778fc95d72c82d1838f9535e9b31ffeb5a0ac081",
      "assetIds": [
        "41506478881403507969696680653240014914910929820314476107906210059990541021187"
      ]
    },
    {
      "x": 342,
      "y": 297,
      "size": 1,
      "price": "4683000000000000000000",
      "reserved": "",
      "salt": "0xd0962b31445763bd2cb4431507a183422252ada6060d4fbb4f14e1883dad86d1",
      "assetIds": [
        "41506478881403507969696680653240014914910929820314476107906210059990541021189"
      ]
    },
    {
      "x": 342,
      "y": 298,
      "size": 1,
      "price": "4683000000000000000000",
      "reserved": "",
      "salt": "0xd931d8c450ae9e4f6c845d10e5aefc4437053ed675afaa300ebceeb9ef2495b9",
      "assetIds": [
        "41506478881403507969696680653240014914910929820314476107906210059990541021186"
      ]
    },
    {
      "x": 342,
      "y": 299,
      "size": 1,
      "price": "4683000000000000000000",
      "reserved": "",
      "salt": "0x74f5a216db89838368c9ce5d4c6d29e80cca15594f1d210da9ea63a7bb1444f3",
      "assetIds": [
        "41506478881403507969696680653240014914910929820314476107906210059990532622336"
      ]
    },
    {
      "x": 343,
      "y": 240,
      "size": 1,
      "price": "4683000000000000000000",
      "reserved": "",
      "salt": "0xd04629428d186a454548225d60f696397764f0f45e86b84d8cf32769d610b99e",
      "assetIds": [
        "41506478881403507969696680653240014914910929820314476107906210059990541021187"
      ]
    },
    {
      "x": 343,
      "y": 241,
      "size": 1,
      "price": "4683000000000000000000",
      "reserved": "",
      "salt": "0x149438938562d2f18075b4acc485b103e1f1df9f6d01747d93a2a1e1e9f052cb",
      "assetIds": [
        "41506478881403507969696680653240014914910929820314476107906210059990541021189"
      ]
    },
    {
      "x": 343,
      "y": 242,
      "size": 1,
      "price": "4683000000000000000000",
      "reserved": "",
      "salt": "0x4d9ac45f4ef33fab644d644f99f0dc0a96f3f7924b713018a4ae2f7ffdfec678",
      "assetIds": [
        "41506478881403507969696680653240014914910929820314476107906210059990541021186"
      ]
    },
    {
      "x": 343,
      "y": 243,
      "size": 1,
      "price": "4683000000000000000000",
      "reserved": "",
      "salt": "0xd4ca2bc0a008c66e0791fce0c4de3e52e045a2d6873896752c066749dd46fd6f",
      "assetIds": [
        "41506478881403507969696680653240014914910929820314476107906210059990541021184"
      ]
    },
    {
      "x": 343,
      "y": 244,
      "size": 1,
      "price": "4683000000000000000000",
      "reserved": "",
      "salt": "0x50c27dfbeddeccec9a25cd701ca44301c4d0b79fc3b450f01f265b2e612d4533",
      "assetIds": [
        "41506478881403507969696680653240014914910929820314476107906210059990541021187"
      ]
    },
    {
      "x": 343,
      "y": 245,
      "size": 1,
      "price": "4683000000000000000000",
      "reserved": "",
      "salt": "0x57e8ca1d9cf9c8b0d61bbdbda76da8f761121cf8ed3985d7debbfa16ea2482be",
      "assetIds": [
        "41506478881403507969696680653240014914910929820314476107906210059990541021186"
      ]
    },
    {
      "x": 343,
      "y": 246,
      "size": 1,
      "price": "4683000000000000000000",
      "reserved": "",
      "salt": "0x3c98c478c195e0cd2035e94797ceb10e93c0a0d16511aff701dbe6cecc248d03",
      "assetIds": [
        "41506478881403507969696680653240014914910929820314476107906210059990541021189"
      ]
    },
    {
      "x": 343,
      "y": 247,
      "size": 1,
      "price": "4683000000000000000000",
      "reserved": "",
      "salt": "0x45f1f317a9ef66a191de8fef30ddfbf300e0ef8fbb66ce2b0ec034ba902af06e",
      "assetIds": [
        "41506478881403507969696680653240014914910929820314476107906210059990532622336"
      ]
    },
    {
      "x": 343,
      "y": 248,
      "size": 1,
      "price": "4683000000000000000000",
      "reserved": "",
      "salt": "0xda165bac2f84045814bd78b5c6fc1c2f888e04886f7a5b8b1a04b956937dca6b",
      "assetIds": [
        "41506478881403507969696680653240014914910929820314476107906210059990541021188"
      ]
    },
    {
      "x": 343,
      "y": 249,
      "size": 1,
      "price": "4683000000000000000000",
      "reserved": "",
      "salt": "0x1e51b859530407bfa6c9e33c1556033318721559f32b2a801fd9e1be1c0cc46a",
      "assetIds": [
        "41506478881403507969696680653240014914910929820314476107906210059990532622336"
      ]
    },
    {
      "x": 343,
      "y": 250,
      "size": 1,
      "price": "4683000000000000000000",
      "reserved": "",
      "salt": "0xdcbc1550caadf170951fa4c9102c73f168b4e2dfd39061c70cb8a4e68812fc99",
      "assetIds": [
        "41506478881403507969696680653240014914910929820314476107906210059990541021184"
      ]
    },
    {
      "x": 343,
      "y": 251,
      "size": 1,
      "price": "4683000000000000000000",
      "reserved": "",
      "salt": "0xfabe52bb35cae03f2ef52076cab2014b91aaa2287f896ab2c6b34bf8f69327e7",
      "assetIds": [
        "41506478881403507969696680653240014914910929820314476107906210059990541021187"
      ]
    },
    {
      "x": 343,
      "y": 252,
      "size": 1,
      "price": "4683000000000000000000",
      "reserved": "",
      "salt": "0xce0cb82c062c7b224fcb0101031f39ba048b3fff182e7c3839e901db2dc6c9f9",
      "assetIds": [
        "41506478881403507969696680653240014914910929820314476107906210059990541021188"
      ]
    },
    {
      "x": 343,
      "y": 253,
      "size": 1,
      "price": "4683000000000000000000",
      "reserved": "",
      "salt": "0x2cd50716ac2a16d1f60b7c0dc7755f5908c6d8fcca14a36eb70901df107ac3d4",
      "assetIds": [
        "41506478881403507969696680653240014914910929820314476107906210059990541021189"
      ]
    },
    {
      "x": 343,
      "y": 254,
      "size": 1,
      "price": "4683000000000000000000",
      "reserved": "",
      "salt": "0x30d198128a18d5d5e9b1eccd0c2d31a8eb9bf704de80e557dc62218f92a3c6df",
      "assetIds": [
        "41506478881403507969696680653240014914910929820314476107906210059990541021188"
      ]
    },
    {
      "x": 343,
      "y": 255,
      "size": 1,
      "price": "4683000000000000000000",
      "reserved": "",
      "salt": "0x3ac18d771871eced10c28eff68d5bd67ac108db419d2e284d6b4aaf876557937",
      "assetIds": [
        "41506478881403507969696680653240014914910929820314476107906210059990541021188"
      ]
    },
    {
      "x": 343,
      "y": 256,
      "size": 1,
      "price": "1011000000000000000000",
      "reserved": "0x7a9fe22691c811ea339d9b73150e6911a5343dca",
      "salt": "0x5c38687d95ebbf81e26bcae0fb76b43d4593a9c5b26c2a22f701233065b13742",
      "assetIds": []
    },
    {
      "x": 343,
      "y": 257,
      "size": 1,
      "price": "4683000000000000000000",
      "reserved": "",
      "salt": "0xaf30ed1969018455ca631b379b19bc9ec0ba12e395996ff2bb8b214d9a475a24",
      "assetIds": [
        "41506478881403507969696680653240014914910929820314476107906210059990541021187"
      ]
    },
    {
      "x": 343,
      "y": 294,
      "size": 1,
      "price": "4683000000000000000000",
      "reserved": "",
      "salt": "0xc2b4719fc3a35da2d8d7e47a90cca2d88e5a064d5c0fc8915e41dedab8a2735c",
      "assetIds": [
        "41506478881403507969696680653240014914910929820314476107906210059990532622336"
      ]
    },
    {
      "x": 343,
      "y": 295,
      "size": 1,
      "price": "1011000000000000000000",
      "reserved": "0x7a9fe22691c811ea339d9b73150e6911a5343dca",
      "salt": "0xa44d4204a6d4c7b41728bdcd58cc00cf2555637cb717f2b5a1905ee7466169e9",
      "assetIds": []
    },
    {
      "x": 343,
      "y": 296,
      "size": 1,
      "price": "4683000000000000000000",
      "reserved": "",
      "salt": "0xd6bd99154ee070962d985c3cd068a43f3eace1f00165d9fe6df38015261ae8ee",
      "assetIds": [
        "41506478881403507969696680653240014914910929820314476107906210059990541021189"
      ]
    },
    {
      "x": 343,
      "y": 297,
      "size": 1,
      "price": "4683000000000000000000",
      "reserved": "",
      "salt": "0x2d83c25b89958ccd04278265b295262200d50957c10cb2e08016478502affc57",
      "assetIds": [
        "41506478881403507969696680653240014914910929820314476107906210059990541021187"
      ]
    },
    {
      "x": 343,
      "y": 298,
      "size": 1,
      "price": "4683000000000000000000",
      "reserved": "",
      "salt": "0x65874ed9ea06d5104506173ff182ca2957effd7b66f721ad2aa6facffc896277",
      "assetIds": [
        "41506478881403507969696680653240014914910929820314476107906210059990541021188"
      ]
    },
    {
      "x": 343,
      "y": 299,
      "size": 1,
      "price": "4683000000000000000000",
      "reserved": "",
      "salt": "0x843a56898413ffd02a6e8679ef0462ef908d7f019474acaf46a42a98356f4c67",
      "assetIds": [
        "41506478881403507969696680653240014914910929820314476107906210059990532622336"
      ]
    },
    {
      "x": 344,
      "y": 240,
      "size": 1,
      "price": "4683000000000000000000",
      "reserved": "",
      "salt": "0xa7ca7be7c20db87d34c1a8d34de5a88397e6b62f2547b4ef4f47ec1bb4b6254e",
      "assetIds": [
        "41506478881403507969696680653240014914910929820314476107906210059990541021187"
      ]
    },
    {
      "x": 344,
      "y": 241,
      "size": 1,
      "price": "4683000000000000000000",
      "reserved": "",
      "salt": "0x260e5fb9f84de4091ca2ab3509587cc9c50890e69aea9807776462299e549cfe",
      "assetIds": [
        "41506478881403507969696680653240014914910929820314476107906210059990541021188"
      ]
    },
    {
      "x": 344,
      "y": 242,
      "size": 1,
      "price": "4683000000000000000000",
      "reserved": "",
      "salt": "0xaecb53e21cec137ad81734fc464e6b4578412fbe66ed4b055beeda8bb39c3d6f",
      "assetIds": [
        "41506478881403507969696680653240014914910929820314476107906210059990541021187"
      ]
    },
    {
      "x": 344,
      "y": 243,
      "size": 1,
      "price": "4683000000000000000000",
      "reserved": "",
      "salt": "0xf1a55fab2b6291b1c9804c4b478d67183e813beb59205c87e82aa76e29be2397",
      "assetIds": [
        "41506478881403507969696680653240014914910929820314476107906210059990541021187"
      ]
    },
    {
      "x": 344,
      "y": 244,
      "size": 1,
      "price": "4683000000000000000000",
      "reserved": "",
      "salt": "0x7ed67d4b9a40c277325015b6da852c935c1dc8f503fef63e4a9d6dd36e8c3561",
      "assetIds": [
        "41506478881403507969696680653240014914910929820314476107906210059990541021188"
      ]
    },
    {
      "x": 344,
      "y": 245,
      "size": 1,
      "price": "4683000000000000000000",
      "reserved": "",
      "salt": "0x8fe12958a06f9a280d7ca1c7dd22f619d386e5f5919e93784a4e325aaeac085b",
      "assetIds": [
        "41506478881403507969696680653240014914910929820314476107906210059990532622336"
      ]
    },
    {
      "x": 344,
      "y": 246,
      "size": 1,
      "price": "4683000000000000000000",
      "reserved": "",
      "salt": "0x932c626234be40f5ab9a2c29f8789e704d45f70d01052e6993d5ffe5903abecb",
      "assetIds": [
        "41506478881403507969696680653240014914910929820314476107906210059990541021188"
      ]
    },
    {
      "x": 344,
      "y": 247,
      "size": 1,
      "price": "4683000000000000000000",
      "reserved": "",
      "salt": "0x05c82272b19c80a1a0f46b41fb85ce1970de0c10f9f0a4d2c30874d8b66e1262",
      "assetIds": [
        "41506478881403507969696680653240014914910929820314476107906210059990541021185"
      ]
    },
    {
      "x": 344,
      "y": 248,
      "size": 1,
      "price": "4683000000000000000000",
      "reserved": "",
      "salt": "0x9ae7976151d559695600562e1bd6386c9ab4267bd06ac68b80a3fc9aa851b562",
      "assetIds": [
        "41506478881403507969696680653240014914910929820314476107906210059990541021188"
      ]
    },
    {
      "x": 344,
      "y": 249,
      "size": 1,
      "price": "4683000000000000000000",
      "reserved": "",
      "salt": "0xd91e8ad5d233d7c1c8e61d3d088b40528e735fdeda638d8b07e487b4b2ab16ae",
      "assetIds": [
        "41506478881403507969696680653240014914910929820314476107906210059990541021188"
      ]
    },
    {
      "x": 344,
      "y": 250,
      "size": 1,
      "price": "4683000000000000000000",
      "reserved": "",
      "salt": "0xef9e8d592f81901770bc60313623d4dd626f1dc62e945363e21eb77841654e9e",
      "assetIds": [
        "41506478881403507969696680653240014914910929820314476107906210059990541021187"
      ]
    },
    {
      "x": 344,
      "y": 251,
      "size": 1,
      "price": "4683000000000000000000",
      "reserved": "",
      "salt": "0x5a79433bbbde18107b58ec88c3bb8a04d86022d0bb37a6b5e302cc18777fefbb",
      "assetIds": [
        "41506478881403507969696680653240014914910929820314476107906210059990541021189"
      ]
    },
    {
      "x": 344,
      "y": 252,
      "size": 1,
      "price": "4683000000000000000000",
      "reserved": "",
      "salt": "0x39bf18b4e6416bc3ec7f0e9853c6ef2856eb5378483a8d9d4c00cb2447f7b55e",
      "assetIds": [
        "41506478881403507969696680653240014914910929820314476107906210059990541021189"
      ]
    },
    {
      "x": 344,
      "y": 253,
      "size": 1,
      "price": "4683000000000000000000",
      "reserved": "",
      "salt": "0x8b63eb569f55af49fc244e975c33a64dc57b09e0d4f6ff717dc66cb10b3287ed",
      "assetIds": [
        "41506478881403507969696680653240014914910929820314476107906210059990541021188"
      ]
    },
    {
      "x": 344,
      "y": 254,
      "size": 1,
      "price": "4683000000000000000000",
      "reserved": "",
      "salt": "0x5eb2d86a077a3ba8a83f5281c191f6d323d3963f31ab20e7ca942b1bc012ac29",
      "assetIds": [
        "41506478881403507969696680653240014914910929820314476107906210059990541021185"
      ]
    },
    {
      "x": 344,
      "y": 255,
      "size": 1,
      "price": "4683000000000000000000",
      "reserved": "",
      "salt": "0x9ea67f389094d73fb9958d210457cd6aa78cc5f48166ea548121d303cab67371",
      "assetIds": [
        "41506478881403507969696680653240014914910929820314476107906210059990532622336"
      ]
    },
    {
      "x": 344,
      "y": 256,
      "size": 1,
      "price": "4683000000000000000000",
      "reserved": "",
      "salt": "0x04ad6ea522bbd777c79964c2d31dc4cb7ee8ce8c4b498ba19afe7d5d8f34d7f5",
      "assetIds": [
        "41506478881403507969696680653240014914910929820314476107906210059990541021187"
      ]
    },
    {
      "x": 344,
      "y": 257,
      "size": 1,
      "price": "4683000000000000000000",
      "reserved": "",
      "salt": "0xea4cbb4541a812b7797230005717d9fc940fa0eb1f2394e3a0516763e8a3c466",
      "assetIds": [
        "41506478881403507969696680653240014914910929820314476107906210059990541021188"
      ]
    },
    {
      "x": 344,
      "y": 294,
      "size": 1,
      "price": "4683000000000000000000",
      "reserved": "",
      "salt": "0x0b0b064a6b7cb65463979bc94e345f1a943dac006698bc96c209bd9db2ea3dcc",
      "assetIds": [
        "41506478881403507969696680653240014914910929820314476107906210059990541021187"
      ]
    },
    {
      "x": 344,
      "y": 295,
      "size": 1,
      "price": "4683000000000000000000",
      "reserved": "",
      "salt": "0x9e0378e2e7194b7294cabb3a463c074d09c3d66a422b1f538c1fca61941db969",
      "assetIds": [
        "41506478881403507969696680653240014914910929820314476107906210059990541021187"
      ]
    },
    {
      "x": 344,
      "y": 296,
      "size": 1,
      "price": "4683000000000000000000",
      "reserved": "",
      "salt": "0x54fbd3fd9acb3755b41df503c4d2ce5ba1d2fae0e2a8c89ffa5e932dc846b5ca",
      "assetIds": [
        "41506478881403507969696680653240014914910929820314476107906210059990541021188"
      ]
    },
    {
      "x": 344,
      "y": 297,
      "size": 1,
      "price": "4683000000000000000000",
      "reserved": "",
      "salt": "0x38eefff9d694de6c84d51b49f7d8e2c6899736524755a3ba2997d1f6f8b6ce34",
      "assetIds": [
        "41506478881403507969696680653240014914910929820314476107906210059990541021185"
      ]
    },
    {
      "x": 344,
      "y": 298,
      "size": 1,
      "price": "4683000000000000000000",
      "reserved": "",
      "salt": "0xbf7082b7c4ae5198038a52bd4b5af5de81a067a43280b4ef218e83a54d53effa",
      "assetIds": [
        "41506478881403507969696680653240014914910929820314476107906210059990541021187"
      ]
    },
    {
      "x": 344,
      "y": 299,
      "size": 1,
      "price": "4683000000000000000000",
      "reserved": "",
      "salt": "0x13aef848bab890a570314a8f7dad2ea8415d53571bcdde53fa5370d904177fe8",
      "assetIds": [
        "41506478881403507969696680653240014914910929820314476107906210059990532622336"
      ]
    },
    {
      "x": 345,
      "y": 240,
      "size": 1,
      "price": "4683000000000000000000",
      "reserved": "",
      "salt": "0x1d17c7d58f13f19d9704edce97dd6e8e6378b80468a2b911a4322c26723e08ca",
      "assetIds": [
        "41506478881403507969696680653240014914910929820314476107906210059990541021188"
      ]
    },
    {
      "x": 345,
      "y": 241,
      "size": 1,
      "price": "4683000000000000000000",
      "reserved": "",
      "salt": "0x0e5bdba405b1ad2ce239ce95f6781f11805181aebe8c85968ef48442892961b5",
      "assetIds": [
        "41506478881403507969696680653240014914910929820314476107906210059990541021188"
      ]
    },
    {
      "x": 345,
      "y": 242,
      "size": 1,
      "price": "4683000000000000000000",
      "reserved": "",
      "salt": "0xdac6d2704c8898f1fc49992f0aa874b2b68510f63c3f2e194a16872be9923f6e",
      "assetIds": [
        "41506478881403507969696680653240014914910929820314476107906210059990541021187"
      ]
    },
    {
      "x": 345,
      "y": 243,
      "size": 1,
      "price": "4683000000000000000000",
      "reserved": "",
      "salt": "0xb94e26d33a97a441808d87066b3227432687dd9b624b531b1e5827fe600ac26a",
      "assetIds": [
        "41506478881403507969696680653240014914910929820314476107906210059990532622336"
      ]
    },
    {
      "x": 345,
      "y": 244,
      "size": 1,
      "price": "1011000000000000000000",
      "reserved": "0x7a9fe22691c811ea339d9b73150e6911a5343dca",
      "salt": "0x33e78dc002ca7b421bb24e32e5dee8d575be4d03903d1c77664392e146690b86",
      "assetIds": []
    },
    {
      "x": 345,
      "y": 245,
      "size": 1,
      "price": "4683000000000000000000",
      "reserved": "",
      "salt": "0xf004f48023df235a5376d5866f779c47d9667b99c074ed578ae047252f5ce374",
      "assetIds": [
        "41506478881403507969696680653240014914910929820314476107906210059990541021188"
      ]
    },
    {
      "x": 345,
      "y": 246,
      "size": 1,
      "price": "4683000000000000000000",
      "reserved": "",
      "salt": "0xc93d051c9d4916d8fb0bfa8d02ad7af5f9a34c7fa9ac572685462a1585aaa1c9",
      "assetIds": [
        "41506478881403507969696680653240014914910929820314476107906210059990541021189"
      ]
    },
    {
      "x": 345,
      "y": 247,
      "size": 1,
      "price": "4683000000000000000000",
      "reserved": "",
      "salt": "0x88227b5b863504f2558277c14199c96d64259c5a1f57896afd889f4966d9dcd3",
      "assetIds": [
        "41506478881403507969696680653240014914910929820314476107906210059990541021188"
      ]
    },
    {
      "x": 345,
      "y": 248,
      "size": 1,
      "price": "4683000000000000000000",
      "reserved": "",
      "salt": "0x01806bd7433cb9d15ad899ea7fcf53a5591da47697f90e508944932596f35e8a",
      "assetIds": [
        "41506478881403507969696680653240014914910929820314476107906210059990541021185"
      ]
    },
    {
      "x": 345,
      "y": 249,
      "size": 1,
      "price": "4683000000000000000000",
      "reserved": "",
      "salt": "0x3eb51a673e9cd011504e81348e2f5acd5677909e19ff36cfe772d3e1b83f8737",
      "assetIds": [
        "41506478881403507969696680653240014914910929820314476107906210059990541021185"
      ]
    },
    {
      "x": 345,
      "y": 250,
      "size": 1,
      "price": "4683000000000000000000",
      "reserved": "",
      "salt": "0xd81b073c4a3eb8e92b93370410dc704b1d791cdabd42af7d7cc963788ce887f2",
      "assetIds": [
        "41506478881403507969696680653240014914910929820314476107906210059990541021187"
      ]
    },
    {
      "x": 345,
      "y": 251,
      "size": 1,
      "price": "1011000000000000000000",
      "reserved": "0x7a9fe22691c811ea339d9b73150e6911a5343dca",
      "salt": "0x324e26d8e5f28ab2a225bfbe884587746ab2166e3e98dee9583369885058689f",
      "assetIds": []
    },
    {
      "x": 345,
      "y": 252,
      "size": 1,
      "price": "4683000000000000000000",
      "reserved": "",
      "salt": "0x6580c4672553008eacc7cc7f7fa5868c3725158def588e204373549458218066",
      "assetIds": [
        "41506478881403507969696680653240014914910929820314476107906210059990541021188"
      ]
    },
    {
      "x": 345,
      "y": 253,
      "size": 1,
      "price": "4683000000000000000000",
      "reserved": "",
      "salt": "0x32e6b51cf26fbf5701787f757d19823efb6aac85142fdab003587dcbd3ff5815",
      "assetIds": [
        "41506478881403507969696680653240014914910929820314476107906210059990541021186"
      ]
    },
    {
      "x": 345,
      "y": 254,
      "size": 1,
      "price": "4683000000000000000000",
      "reserved": "",
      "salt": "0x0fae99476ab2a09e9ef1c9b8e75cb7af3ff795061c1f102ca76a3becd4d31d7b",
      "assetIds": [
        "41506478881403507969696680653240014914910929820314476107906210059990541021188"
      ]
    },
    {
      "x": 345,
      "y": 255,
      "size": 1,
      "price": "4683000000000000000000",
      "reserved": "",
      "salt": "0xcaf7e3255e94e0e6b829cedcdf1c61f5f18081f20db65e68ba51ae00653a9402",
      "assetIds": [
        "41506478881403507969696680653240014914910929820314476107906210059990532622336"
      ]
    },
    {
      "x": 345,
      "y": 256,
      "size": 1,
      "price": "4683000000000000000000",
      "reserved": "",
      "salt": "0x13302d2994f6dcdcbca8a8fdbd899f12c7cb428eb9b60729ad3199d07ad104ad",
      "assetIds": [
        "41506478881403507969696680653240014914910929820314476107906210059990541021189"
      ]
    },
    {
      "x": 345,
      "y": 257,
      "size": 1,
      "price": "4683000000000000000000",
      "reserved": "",
      "salt": "0xdabf3393204e47782d014770d3251476ac2c924a68fdbc5e1305558febd3c78c",
      "assetIds": [
        "41506478881403507969696680653240014914910929820314476107906210059990541021184"
      ]
    },
    {
      "x": 345,
      "y": 297,
      "size": 1,
      "price": "4683000000000000000000",
      "reserved": "",
      "salt": "0xaae31ee9f6fd6f25361586cc6046459e049b63ba0dacd280b2c3dc106f49144e",
      "assetIds": [
        "41506478881403507969696680653240014914910929820314476107906210059990541021187"
      ]
    },
    {
      "x": 345,
      "y": 298,
      "size": 1,
      "price": "4683000000000000000000",
      "reserved": "",
      "salt": "0x7aef67cb3e63e087967c4f6ee5e499bdf272a05b2403e717943f8a0bd08181bc",
      "assetIds": [
        "41506478881403507969696680653240014914910929820314476107906210059990541021187"
      ]
    },
    {
      "x": 345,
      "y": 299,
      "size": 1,
      "price": "4683000000000000000000",
      "reserved": "",
      "salt": "0xf10dc5734a2af0db7ae5d83142c5699399430428ef0091831366d57c705ce692",
      "assetIds": [
        "41506478881403507969696680653240014914910929820314476107906210059990541021188"
      ]
    },
    {
      "x": 345,
      "y": 303,
      "size": 1,
      "price": "4683000000000000000000",
      "reserved": "",
      "salt": "0x17052eecfe10201199dae004a448a62802c5073f82330e183c4b2724667e9978",
      "assetIds": [
        "41506478881403507969696680653240014914910929820314476107906210059990541021187"
      ]
    },
    {
      "x": 345,
      "y": 304,
      "size": 1,
      "price": "4683000000000000000000",
      "reserved": "",
      "salt": "0xc480011e5d10ec88514c3686f40e327627a9ef2d5fe058550e97db43864644a6",
      "assetIds": [
        "41506478881403507969696680653240014914910929820314476107906210059990541021188"
      ]
    },
    {
      "x": 345,
      "y": 305,
      "size": 1,
      "price": "4683000000000000000000",
      "reserved": "",
      "salt": "0xac39628d33117fa8a04d46a5a0685f5590728467a23874dc39427029815374ce",
      "assetIds": [
        "41506478881403507969696680653240014914910929820314476107906210059990541021189"
      ]
    },
    {
      "x": 346,
      "y": 240,
      "size": 1,
      "price": "4683000000000000000000",
      "reserved": "",
      "salt": "0x0e54cfecf4f744917eddeb0ea34483959ecca6fd31d31396a92373c0a727cf45",
      "assetIds": [
        "41506478881403507969696680653240014914910929820314476107906210059990541021187"
      ]
    },
    {
      "x": 346,
      "y": 241,
      "size": 1,
      "price": "4683000000000000000000",
      "reserved": "",
      "salt": "0xe91f3623afae015d1305160eb6011b43f2ff65bd9dacbb46d2e98b583b3da2fc",
      "assetIds": [
        "41506478881403507969696680653240014914910929820314476107906210059990541021185"
      ]
    },
    {
      "x": 346,
      "y": 242,
      "size": 1,
      "price": "4683000000000000000000",
      "reserved": "",
      "salt": "0x1c98c44f813ff078965c3767043a8dda59fb65bfcd421c16aa9c597bf1ab6b2a",
      "assetIds": [
        "41506478881403507969696680653240014914910929820314476107906210059990541021187"
      ]
    },
    {
      "x": 346,
      "y": 243,
      "size": 1,
      "price": "4683000000000000000000",
      "reserved": "",
      "salt": "0x0e71f992c8ba43a9bdee7b8f8e7968807d7e56b42be26530e79f7cc6f233be27",
      "assetIds": [
        "41506478881403507969696680653240014914910929820314476107906210059990541021186"
      ]
    },
    {
      "x": 346,
      "y": 244,
      "size": 1,
      "price": "4683000000000000000000",
      "reserved": "",
      "salt": "0x0d352ca4e818aa70a62c6c97505a145b07511d6211cfeb6dbb3d4290f61d01d3",
      "assetIds": [
        "41506478881403507969696680653240014914910929820314476107906210059990541021189"
      ]
    },
    {
      "x": 346,
      "y": 245,
      "size": 1,
      "price": "4683000000000000000000",
      "reserved": "",
      "salt": "0xd2dd574ead0703f9cf2abb5a210deef5d3154e827de9ddc3be84344c2c336614",
      "assetIds": [
        "41506478881403507969696680653240014914910929820314476107906210059990541021187"
      ]
    },
    {
      "x": 346,
      "y": 246,
      "size": 1,
      "price": "4683000000000000000000",
      "reserved": "",
      "salt": "0x50eb9a9e1a25dbf8b3bf829dc2f498629b969adf062795b97e2af8d2fc67e9a1",
      "assetIds": [
        "41506478881403507969696680653240014914910929820314476107906210059990541021187"
      ]
    },
    {
      "x": 346,
      "y": 247,
      "size": 1,
      "price": "4683000000000000000000",
      "reserved": "",
      "salt": "0x0db23ba502cdf677ff4fbdc36af26de3fbec2faf9bef1fbe65ed1d84e4acd7b9",
      "assetIds": [
        "41506478881403507969696680653240014914910929820314476107906210059990541021188"
      ]
    },
    {
      "x": 346,
      "y": 248,
      "size": 1,
      "price": "4683000000000000000000",
      "reserved": "",
      "salt": "0x3879c9232e257372b397db9ffd54e064747ba7cd32dd392ecfca2843a8251f1e",
      "assetIds": [
        "41506478881403507969696680653240014914910929820314476107906210059990541021184"
      ]
    },
    {
      "x": 346,
      "y": 249,
      "size": 1,
      "price": "4683000000000000000000",
      "reserved": "",
      "salt": "0x40194c3e783f159e05753ca4cc90b28afad7dce0394caaa18d53513e68c33f04",
      "assetIds": [
        "41506478881403507969696680653240014914910929820314476107906210059990541021189"
      ]
    },
    {
      "x": 346,
      "y": 250,
      "size": 1,
      "price": "4683000000000000000000",
      "reserved": "",
      "salt": "0x5b84cba3ba0496ffa78c4bb513ad0823dba0bac304003e4c0ef8800f2f9b8217",
      "assetIds": [
        "41506478881403507969696680653240014914910929820314476107906210059990541021188"
      ]
    },
    {
      "x": 346,
      "y": 251,
      "size": 1,
      "price": "4683000000000000000000",
      "reserved": "",
      "salt": "0x5816ed9d2b65a0eec5e972f465b68dfe56880f262a3ecf813bc37793dba72f53",
      "assetIds": [
        "41506478881403507969696680653240014914910929820314476107906210059990541021184"
      ]
    },
    {
      "x": 346,
      "y": 252,
      "size": 1,
      "price": "4683000000000000000000",
      "reserved": "",
      "salt": "0xfc5eccd29f6eb44ad8a076fe66f70f49804f450f66774fab7fb402fc91ef6a67",
      "assetIds": [
        "41506478881403507969696680653240014914910929820314476107906210059990541021189"
      ]
    },
    {
      "x": 346,
      "y": 253,
      "size": 1,
      "price": "4683000000000000000000",
      "reserved": "",
      "salt": "0x7086446312908505da12da6a343a0ccc27a21cf2e7cb9893da7387d39bba69e9",
      "assetIds": [
        "41506478881403507969696680653240014914910929820314476107906210059990541021187"
      ]
    },
    {
      "x": 346,
      "y": 254,
      "size": 1,
      "price": "4683000000000000000000",
      "reserved": "",
      "salt": "0x3ba412b3cf2f4d221484ae66d89d946121dd9c5fca5d5302ad2a3b22d0cd18a3",
      "assetIds": [
        "41506478881403507969696680653240014914910929820314476107906210059990541021188"
      ]
    },
    {
      "x": 346,
      "y": 255,
      "size": 1,
      "price": "4683000000000000000000",
      "reserved": "",
      "salt": "0xee96ea5afec47434013fb7253f2f399f8db5a07bfd3d25baab5a02eb7cafaf1e",
      "assetIds": [
        "41506478881403507969696680653240014914910929820314476107906210059990532622336"
      ]
    },
    {
      "x": 346,
      "y": 256,
      "size": 1,
      "price": "4683000000000000000000",
      "reserved": "",
      "salt": "0x1df85841ebb01ddc0e74fcefb5f060d448d71febac65958c6040b176b3c466f0",
      "assetIds": [
        "41506478881403507969696680653240014914910929820314476107906210059990541021187"
      ]
    },
    {
      "x": 346,
      "y": 257,
      "size": 1,
      "price": "4683000000000000000000",
      "reserved": "",
      "salt": "0x11e835b94a2492ae9c808daac9cde5cf3954216d354978a3d618362f0bed9654",
      "assetIds": [
        "41506478881403507969696680653240014914910929820314476107906210059990541021188"
      ]
    },
    {
      "x": 346,
      "y": 297,
      "size": 1,
      "price": "4683000000000000000000",
      "reserved": "",
      "salt": "0xa29e290bd1eb6dc7a222b5b0dffe36db9f5b2f9a953f009e350cb2d0dc04db33",
      "assetIds": [
        "41506478881403507969696680653240014914910929820314476107906210059990541021188"
      ]
    },
    {
      "x": 346,
      "y": 298,
      "size": 1,
      "price": "4683000000000000000000",
      "reserved": "",
      "salt": "0xa184ea18ae987c10533bea371cc8319383bf87505a90c7a0dea3a0fe11fe1f6f",
      "assetIds": [
        "41506478881403507969696680653240014914910929820314476107906210059990541021187"
      ]
    },
    {
      "x": 346,
      "y": 299,
      "size": 1,
      "price": "4683000000000000000000",
      "reserved": "",
      "salt": "0x84257bfe3e97e74d48eafd04ed46ea6726ef65f5505e246405a9f2a30a418fb9",
      "assetIds": [
        "41506478881403507969696680653240014914910929820314476107906210059990541021188"
      ]
    },
    {
      "x": 346,
      "y": 303,
      "size": 1,
      "price": "4683000000000000000000",
      "reserved": "",
      "salt": "0x91a33d3f80bf7f67e580967531da01f27af2bc8a7e576d22e53edbb1d4d28a6e",
      "assetIds": [
        "41506478881403507969696680653240014914910929820314476107906210059990532622336"
      ]
    },
    {
      "x": 346,
      "y": 304,
      "size": 1,
      "price": "4683000000000000000000",
      "reserved": "",
      "salt": "0x2e47c3c6a8a5cd82d67d93906b907c9eb78413031bffcdc98cc5eb8bf62614f3",
      "assetIds": [
        "41506478881403507969696680653240014914910929820314476107906210059990541021188"
      ]
    },
    {
      "x": 346,
      "y": 305,
      "size": 1,
      "price": "4683000000000000000000",
      "reserved": "",
      "salt": "0x0c3f2a9a2db43cf218737beb17c3ca4843842192ad047f7d52e2ec1ccfeeb8c1",
      "assetIds": [
        "41506478881403507969696680653240014914910929820314476107906210059990532622336"
      ]
    },
    {
      "x": 347,
      "y": 240,
      "size": 1,
      "price": "4683000000000000000000",
      "reserved": "",
      "salt": "0x4e5992ff8d1cce19e4ea489166616cba9eb94b0898bd17af57ae8df0eeb39d34",
      "assetIds": [
        "41506478881403507969696680653240014914910929820314476107906210059990541021187"
      ]
    },
    {
      "x": 347,
      "y": 241,
      "size": 1,
      "price": "4683000000000000000000",
      "reserved": "",
      "salt": "0xdbdd6717d0895b9e49e6eb36b8e221c610e699a29c9eb0b27ec9fa221c800170",
      "assetIds": [
        "41506478881403507969696680653240014914910929820314476107906210059990541021187"
      ]
    },
    {
      "x": 347,
      "y": 242,
      "size": 1,
      "price": "4683000000000000000000",
      "reserved": "",
      "salt": "0x6bd4db8988b54a39c7577480f22e4abe96c4f5e12b1b2ad27086f83a71ecc3bd",
      "assetIds": [
        "41506478881403507969696680653240014914910929820314476107906210059990541021187"
      ]
    },
    {
      "x": 347,
      "y": 243,
      "size": 1,
      "price": "4683000000000000000000",
      "reserved": "",
      "salt": "0x7e0175cc1b2ed3f38073292de173402d72be98524e159bda3642879ab284e3e9",
      "assetIds": [
        "41506478881403507969696680653240014914910929820314476107906210059990541021189"
      ]
    },
    {
      "x": 347,
      "y": 244,
      "size": 1,
      "price": "4683000000000000000000",
      "reserved": "",
      "salt": "0x2babac5aefa8e1d5fb048dad2171a25bbc050c5c356401f6d98263d4bf75135a",
      "assetIds": [
        "41506478881403507969696680653240014914910929820314476107906210059990541021186"
      ]
    },
    {
      "x": 347,
      "y": 245,
      "size": 1,
      "price": "4683000000000000000000",
      "reserved": "",
      "salt": "0x6eb0ec0464bba42afee09fc9ae080b01f00fe281fe77ca689fd555a505f1aa46",
      "assetIds": [
        "41506478881403507969696680653240014914910929820314476107906210059990541021185"
      ]
    },
    {
      "x": 347,
      "y": 246,
      "size": 1,
      "price": "4683000000000000000000",
      "reserved": "",
      "salt": "0x07e7fecb40770bc2efd6de2554f946644f11a14d16cd5fe3b08f3384a9e41e51",
      "assetIds": [
        "41506478881403507969696680653240014914910929820314476107906210059990541021188"
      ]
    },
    {
      "x": 347,
      "y": 247,
      "size": 1,
      "price": "4683000000000000000000",
      "reserved": "",
      "salt": "0xce0e6c0a77b74c14efd57d6803e3e18b1df431aa0b61455751ed301b4fc92158",
      "assetIds": [
        "41506478881403507969696680653240014914910929820314476107906210059990541021188"
      ]
    },
    {
      "x": 347,
      "y": 248,
      "size": 1,
      "price": "4683000000000000000000",
      "reserved": "",
      "salt": "0xb9d6e692fd50669026e57ef7be23b53d7665eb7057503fd3c15272ae3c39b6cc",
      "assetIds": [
        "41506478881403507969696680653240014914910929820314476107906210059990541021187"
      ]
    },
    {
      "x": 347,
      "y": 249,
      "size": 1,
      "price": "4683000000000000000000",
      "reserved": "",
      "salt": "0xaf5d2d27b08dd63fcd75cb395b705f2a87d588819e4a71fff0d62120f1ffb747",
      "assetIds": [
        "41506478881403507969696680653240014914910929820314476107906210059990532622336"
      ]
    },
    {
      "x": 347,
      "y": 250,
      "size": 1,
      "price": "4683000000000000000000",
      "reserved": "",
      "salt": "0x955b1d69df081c649e89b5bbc2a009c97053fbe4427a5071b9c1aaeebe3bd422",
      "assetIds": [
        "41506478881403507969696680653240014914910929820314476107906210059990541021188"
      ]
    },
    {
      "x": 347,
      "y": 251,
      "size": 1,
      "price": "4683000000000000000000",
      "reserved": "",
      "salt": "0x6a7132c312a7a63c164c9d85a0f3e31bdb2050fd5b8b284eefe82ba68e23adf0",
      "assetIds": [
        "41506478881403507969696680653240014914910929820314476107906210059990541021185"
      ]
    },
    {
      "x": 347,
      "y": 252,
      "size": 1,
      "price": "4683000000000000000000",
      "reserved": "",
      "salt": "0xe2a6a34fd15b9e8dc3c2ad438c855728bab743ec12cafb8e1128912a0329e796",
      "assetIds": [
        "41506478881403507969696680653240014914910929820314476107906210059990541021188"
      ]
    },
    {
      "x": 347,
      "y": 253,
      "size": 1,
      "price": "4683000000000000000000",
      "reserved": "",
      "salt": "0x8febdf417e17e0242acfcc25f17e3a3c5b0d6ee15b43ec128b1c66bbfa41dfc9",
      "assetIds": [
        "41506478881403507969696680653240014914910929820314476107906210059990541021186"
      ]
    },
    {
      "x": 347,
      "y": 254,
      "size": 1,
      "price": "4683000000000000000000",
      "reserved": "",
      "salt": "0x742c2bbc5140e46491251616a712c4d3ebc29cc4e0cc155a4b2ccd8161131c37",
      "assetIds": [
        "41506478881403507969696680653240014914910929820314476107906210059990541021185"
      ]
    },
    {
      "x": 347,
      "y": 255,
      "size": 1,
      "price": "4683000000000000000000",
      "reserved": "",
      "salt": "0x06400df07cae49935a8a710d41017cfc052a2e6755ea1868674df7895cf7310b",
      "assetIds": [
        "41506478881403507969696680653240014914910929820314476107906210059990541021188"
      ]
    },
    {
      "x": 347,
      "y": 256,
      "size": 1,
      "price": "4683000000000000000000",
      "reserved": "",
      "salt": "0xeb17cc15a73f76883b62167fed14e0e5512b675336da0529cfa646d60a8ff425",
      "assetIds": [
        "41506478881403507969696680653240014914910929820314476107906210059990541021189"
      ]
    },
    {
      "x": 347,
      "y": 257,
      "size": 1,
      "price": "4683000000000000000000",
      "reserved": "",
      "salt": "0xd0a4871c608a376a135f31d853cf963e0d6ea513861422e1e4bb6afb0a324d14",
      "assetIds": [
        "41506478881403507969696680653240014914910929820314476107906210059990541021188"
      ]
    },
    {
      "x": 347,
      "y": 297,
      "size": 1,
      "price": "4683000000000000000000",
      "reserved": "",
      "salt": "0x20930bd68e9f55db1101ad5a32e325947e888b1c02b10ccaac1c53134f2017a4",
      "assetIds": [
        "41506478881403507969696680653240014914910929820314476107906210059990541021185"
      ]
    },
    {
      "x": 347,
      "y": 298,
      "size": 1,
      "price": "4683000000000000000000",
      "reserved": "",
      "salt": "0xa5af496fbc6571c91de163eb12388e98ef2ae99abdf9095dba1ed54d0b75b7e6",
      "assetIds": [
        "41506478881403507969696680653240014914910929820314476107906210059990541021188"
      ]
    },
    {
      "x": 347,
      "y": 299,
      "size": 1,
      "price": "4683000000000000000000",
      "reserved": "",
      "salt": "0x164e90615c7eefde9a01154b9abe660517745dc957734f09d906d8846c262fd0",
      "assetIds": [
        "41506478881403507969696680653240014914910929820314476107906210059990541021189"
      ]
    },
    {
      "x": 347,
      "y": 303,
      "size": 1,
      "price": "4683000000000000000000",
      "reserved": "",
      "salt": "0x9c2b693aa81554df9ba303d07ccd48f0754cfef1105706d4efae1034d41e7acc",
      "assetIds": [
        "41506478881403507969696680653240014914910929820314476107906210059990541021185"
      ]
    },
    {
      "x": 347,
      "y": 304,
      "size": 1,
      "price": "4683000000000000000000",
      "reserved": "",
      "salt": "0x4ceceb88befe785294488b5cacb7cf6edf66bdf5b084fc9948d8bf08ef7eb264",
      "assetIds": [
        "41506478881403507969696680653240014914910929820314476107906210059990541021186"
      ]
    },
    {
      "x": 347,
      "y": 305,
      "size": 1,
      "price": "4683000000000000000000",
      "reserved": "",
      "salt": "0xcda2bb5f86c49203e4a4fa86fc8ddc321562d4558018066f6a7d08478c551211",
      "assetIds": [
        "41506478881403507969696680653240014914910929820314476107906210059990541021185"
      ]
    },
    {
      "x": 348,
      "y": 255,
      "size": 1,
      "price": "4683000000000000000000",
      "reserved": "",
      "salt": "0x87b0f489f661daafbb3223d0400e688c41d6af1a27611bdc7fcc801aa214d306",
      "assetIds": [
        "41506478881403507969696680653240014914910929820314476107906210059990541021188"
      ]
    },
    {
      "x": 348,
      "y": 256,
      "size": 1,
      "price": "4683000000000000000000",
      "reserved": "",
      "salt": "0x81bf2d79bd1e411f0b534ee5849e5d02db2b2f092ae17057bd56b2f585e1974d",
      "assetIds": [
        "41506478881403507969696680653240014914910929820314476107906210059990541021188"
      ]
    },
    {
      "x": 348,
      "y": 257,
      "size": 1,
      "price": "4683000000000000000000",
      "reserved": "",
      "salt": "0x692f0ef4af800e2b9e57351e500a81170319f35be28454e939837e45393c1874",
      "assetIds": [
        "41506478881403507969696680653240014914910929820314476107906210059990541021186"
      ]
    },
    {
      "x": 348,
      "y": 258,
      "size": 1,
      "price": "4683000000000000000000",
      "reserved": "",
      "salt": "0x978e8d0bc53a9e7ca46998c776902843f9d9539ee87ab8f0eb97f3e00f53d0e7",
      "assetIds": [
        "41506478881403507969696680653240014914910929820314476107906210059990541021187"
      ]
    },
    {
      "x": 348,
      "y": 259,
      "size": 1,
      "price": "4683000000000000000000",
      "reserved": "",
      "salt": "0x05c8c6b7962dde80c9ccb1224c6f3ead51173d77cf4aaf265aa02123c9829bc2",
      "assetIds": [
        "41506478881403507969696680653240014914910929820314476107906210059990541021187"
      ]
    },
    {
      "x": 348,
      "y": 260,
      "size": 1,
      "price": "4683000000000000000000",
      "reserved": "",
      "salt": "0x731f1d0bac45ee0426a57141bcc19bb8e996075db0b1d8c912044b5b046019eb",
      "assetIds": [
        "41506478881403507969696680653240014914910929820314476107906210059990541021189"
      ]
    },
    {
      "x": 348,
      "y": 261,
      "size": 1,
      "price": "4683000000000000000000",
      "reserved": "",
      "salt": "0x11b5781825d50077cc059b5954724f17fe293cae74751aa164db5cc1222552f5",
      "assetIds": [
        "41506478881403507969696680653240014914910929820314476107906210059990541021188"
      ]
    },
    {
      "x": 348,
      "y": 262,
      "size": 1,
      "price": "4683000000000000000000",
      "reserved": "",
      "salt": "0x0a1d2353a8f73ff4c9c3a4a0876f78192b2f22fb90e9d7236859f395ba63be15",
      "assetIds": [
        "41506478881403507969696680653240014914910929820314476107906210059990541021189"
      ]
    },
    {
      "x": 348,
      "y": 263,
      "size": 1,
      "price": "4683000000000000000000",
      "reserved": "",
      "salt": "0x9914eb45d58f370fb562ae8a0a1488eb66411a098789daf12d4f2cf85aba36c5",
      "assetIds": [
        "41506478881403507969696680653240014914910929820314476107906210059990541021188"
      ]
    },
    {
      "x": 348,
      "y": 300,
      "size": 1,
      "price": "4683000000000000000000",
      "reserved": "",
      "salt": "0x9563d28715b4b5b6548a403a140d1f1960c8ca5c32d65358be528a9ec83e9784",
      "assetIds": [
        "41506478881403507969696680653240014914910929820314476107906210059990541021185"
      ]
    },
    {
      "x": 348,
      "y": 301,
      "size": 1,
      "price": "4683000000000000000000",
      "reserved": "",
      "salt": "0xa7682e2ce1ea437443f7d614f2a3b787575efe737126c9367e21ecaa58fecab4",
      "assetIds": [
        "41506478881403507969696680653240014914910929820314476107906210059990541021188"
      ]
    },
    {
      "x": 348,
      "y": 302,
      "size": 1,
      "price": "4683000000000000000000",
      "reserved": "",
      "salt": "0x61184bfdf811ab9a2802fb7dcb717fe8b6a7c525b3ce7233ad0ac49905ccbd3f",
      "assetIds": [
        "41506478881403507969696680653240014914910929820314476107906210059990541021189"
      ]
    },
    {
      "x": 348,
      "y": 303,
      "size": 1,
      "price": "4683000000000000000000",
      "reserved": "",
      "salt": "0xd277c39ada01765a7b87707de891d0c43644576ea69b008f4f32b3f7e466b24d",
      "assetIds": [
        "41506478881403507969696680653240014914910929820314476107906210059990541021187"
      ]
    },
    {
      "x": 348,
      "y": 304,
      "size": 1,
      "price": "4683000000000000000000",
      "reserved": "",
      "salt": "0x96becc73ccec7dd02c60847a69e00e7a7b2b242b8abe675d3eb35bfebaace263",
      "assetIds": [
        "41506478881403507969696680653240014914910929820314476107906210059990541021188"
      ]
    },
    {
      "x": 348,
      "y": 305,
      "size": 1,
      "price": "4683000000000000000000",
      "reserved": "",
      "salt": "0xf25186063ee66452084edff3a3b27732a2a5d4e935fa424c72363e71d30b1648",
      "assetIds": [
        "41506478881403507969696680653240014914910929820314476107906210059990541021187"
      ]
    },
    {
      "x": 349,
      "y": 255,
      "size": 1,
      "price": "4683000000000000000000",
      "reserved": "",
      "salt": "0x3419748b956fe89acd0a7a977792a252c579f0d9c6c2e49d126ab589f2dfd7e5",
      "assetIds": [
        "41506478881403507969696680653240014914910929820314476107906210059990541021185"
      ]
    },
    {
      "x": 349,
      "y": 256,
      "size": 1,
      "price": "4683000000000000000000",
      "reserved": "",
      "salt": "0xc948088030dd0a592e0c443bad0491d494db11be2d9e41022f4a845c38a489ab",
      "assetIds": [
        "41506478881403507969696680653240014914910929820314476107906210059990541021188"
      ]
    },
    {
      "x": 349,
      "y": 257,
      "size": 1,
      "price": "4683000000000000000000",
      "reserved": "",
      "salt": "0x9086ea8e338138fbf24b5030756a48c68fe358cdb036b0a26e32763160cf6d07",
      "assetIds": [
        "41506478881403507969696680653240014914910929820314476107906210059990541021186"
      ]
    },
    {
      "x": 349,
      "y": 258,
      "size": 1,
      "price": "4683000000000000000000",
      "reserved": "",
      "salt": "0xfafb87ba965a85135a96487839879f54eb8a25e362258370f721c55d6f77d4f4",
      "assetIds": [
        "41506478881403507969696680653240014914910929820314476107906210059990541021188"
      ]
    },
    {
      "x": 349,
      "y": 259,
      "size": 1,
      "price": "4683000000000000000000",
      "reserved": "",
      "salt": "0x2d58da5b4d15259eccef93568313855f8cf076e309df4e5e46b1ce490e8858a6",
      "assetIds": [
        "41506478881403507969696680653240014914910929820314476107906210059990541021185"
      ]
    },
    {
      "x": 349,
      "y": 260,
      "size": 1,
      "price": "4683000000000000000000",
      "reserved": "",
      "salt": "0x789a354e38ac93427f450db09ed9cc93c3f82c9f82b99d07beefc003bbf0db4d",
      "assetIds": [
        "41506478881403507969696680653240014914910929820314476107906210059990541021189"
      ]
    },
    {
      "x": 349,
      "y": 261,
      "size": 1,
      "price": "4683000000000000000000",
      "reserved": "",
      "salt": "0x386137470e2f897902f18216fa65a401ca6a35e61e52dee9cfe96788a3386f7d",
      "assetIds": [
        "41506478881403507969696680653240014914910929820314476107906210059990541021188"
      ]
    },
    {
      "x": 349,
      "y": 262,
      "size": 1,
      "price": "4683000000000000000000",
      "reserved": "",
      "salt": "0xe474e39495fe66ae6930abbebbfed9b1565113b5017a704d2684f5e7ef202f3d",
      "assetIds": [
        "41506478881403507969696680653240014914910929820314476107906210059990541021188"
      ]
    },
    {
      "x": 349,
      "y": 263,
      "size": 1,
      "price": "4683000000000000000000",
      "reserved": "",
      "salt": "0xce29f5eaaa32024636911e26dc2b5d58c377f13a35ef4a181a7b13acff045855",
      "assetIds": [
        "41506478881403507969696680653240014914910929820314476107906210059990541021189"
      ]
    },
    {
      "x": 349,
      "y": 300,
      "size": 1,
      "price": "4683000000000000000000",
      "reserved": "",
      "salt": "0xae8bb4e3f4a39f7724555668b3ca0674ffcf48bfed83f39ee896befa8c3dbfde",
      "assetIds": [
        "41506478881403507969696680653240014914910929820314476107906210059990541021188"
      ]
    },
    {
      "x": 349,
      "y": 301,
      "size": 1,
      "price": "4683000000000000000000",
      "reserved": "",
      "salt": "0x5997562068207ea26bd311c74fb55e1a8a9ddc7926c87006858b0c4ca7803ea6",
      "assetIds": [
        "41506478881403507969696680653240014914910929820314476107906210059990541021189"
      ]
    },
    {
      "x": 349,
      "y": 302,
      "size": 1,
      "price": "4683000000000000000000",
      "reserved": "",
      "salt": "0x6571c7f5c6257d20e436c11b94f4e813ed821c6fa7278cbf152844fee9cb6359",
      "assetIds": [
        "41506478881403507969696680653240014914910929820314476107906210059990541021186"
      ]
    },
    {
      "x": 349,
      "y": 303,
      "size": 1,
      "price": "1011000000000000000000",
      "reserved": "0x7a9fe22691c811ea339d9b73150e6911a5343dca",
      "salt": "0x393ac2e3a5de1436da614bbd4836b4f37f22547a26b059440a13be773634ffb4",
      "assetIds": []
    },
    {
      "x": 349,
      "y": 304,
      "size": 1,
      "price": "4683000000000000000000",
      "reserved": "",
      "salt": "0x8b617cbbffc69ae3b46401025d4d0797381588e485854f64a4d7c93d7bb61750",
      "assetIds": [
        "41506478881403507969696680653240014914910929820314476107906210059990541021187"
      ]
    },
    {
      "x": 349,
      "y": 305,
      "size": 1,
      "price": "4683000000000000000000",
      "reserved": "",
      "salt": "0xf5c449ed04c848d671b3de46d80f1e8fc8d8b0a1832d67a42d67222acc3b1121",
      "assetIds": [
        "41506478881403507969696680653240014914910929820314476107906210059990541021187"
      ]
    },
    {
      "x": 350,
      "y": 255,
      "size": 1,
      "price": "4683000000000000000000",
      "reserved": "",
      "salt": "0xc3dbca8d68f7bdc24845c9ef916399686e3f548d9539718d2435cb1397823c58",
      "assetIds": [
        "41506478881403507969696680653240014914910929820314476107906210059990541021185"
      ]
    },
    {
      "x": 350,
      "y": 256,
      "size": 1,
      "price": "4683000000000000000000",
      "reserved": "",
      "salt": "0xeb00cb388a42ef7d28be7ef74d638333bcfb44d3de155cdfa3190be011650f77",
      "assetIds": [
        "41506478881403507969696680653240014914910929820314476107906210059990541021186"
      ]
    },
    {
      "x": 350,
      "y": 257,
      "size": 1,
      "price": "4683000000000000000000",
      "reserved": "",
      "salt": "0x16b6530a3d70a8173b8edbfcc950efae4218406b29b6692121b111832239325d",
      "assetIds": [
        "41506478881403507969696680653240014914910929820314476107906210059990541021185"
      ]
    },
    {
      "x": 350,
      "y": 258,
      "size": 1,
      "price": "4683000000000000000000",
      "reserved": "",
      "salt": "0x7ba2bb1fb8302165312deb3281551893bb6d501039efb242de58d9f9a342ea2c",
      "assetIds": [
        "41506478881403507969696680653240014914910929820314476107906210059990541021187"
      ]
    },
    {
      "x": 350,
      "y": 259,
      "size": 1,
      "price": "4683000000000000000000",
      "reserved": "",
      "salt": "0x2e5f7548e8c1572079073fab411cf51e2dbc2a653f0fa0677c35d573a7a79871",
      "assetIds": [
        "41506478881403507969696680653240014914910929820314476107906210059990541021184"
      ]
    },
    {
      "x": 350,
      "y": 260,
      "size": 1,
      "price": "4683000000000000000000",
      "reserved": "",
      "salt": "0x3111734a4a00be84946ba509f6f04a50c82b49f4f5bf78f35145176b0d1a0fe0",
      "assetIds": [
        "41506478881403507969696680653240014914910929820314476107906210059990541021184"
      ]
    },
    {
      "x": 350,
      "y": 261,
      "size": 1,
      "price": "4683000000000000000000",
      "reserved": "",
      "salt": "0x674b3705549304b46479a055e0108e55f7bc39f926501f833f1823e92e7f809b",
      "assetIds": [
        "41506478881403507969696680653240014914910929820314476107906210059990532622336"
      ]
    },
    {
      "x": 350,
      "y": 262,
      "size": 1,
      "price": "4683000000000000000000",
      "reserved": "",
      "salt": "0xdfce52ba3964a74bb573116eee792af3776aeece1d1e1fea8d474622501f9acc",
      "assetIds": [
        "41506478881403507969696680653240014914910929820314476107906210059990541021185"
      ]
    },
    {
      "x": 350,
      "y": 263,
      "size": 1,
      "price": "4683000000000000000000",
      "reserved": "",
      "salt": "0x2253129996def947ca77adff04fe1527f7bb73c0397a2cf676d1fc2949186216",
      "assetIds": [
        "41506478881403507969696680653240014914910929820314476107906210059990541021189"
      ]
    },
    {
      "x": 350,
      "y": 300,
      "size": 1,
      "price": "4683000000000000000000",
      "reserved": "",
      "salt": "0x9ec55b28057fbb557f28989bab84eb768dfd977db26fc48f0789cef0c602453e",
      "assetIds": [
        "41506478881403507969696680653240014914910929820314476107906210059990541021186"
      ]
    },
    {
      "x": 350,
      "y": 301,
      "size": 1,
      "price": "4683000000000000000000",
      "reserved": "",
      "salt": "0x51e290da4d5b8ea78c3bcaf443753d37b247bfb0d2d466c3d66593fe5ce4eed6",
      "assetIds": [
        "41506478881403507969696680653240014914910929820314476107906210059990541021189"
      ]
    },
    {
      "x": 350,
      "y": 302,
      "size": 1,
      "price": "4683000000000000000000",
      "reserved": "",
      "salt": "0x70aa3c0096fe62cbdc30f5326bb2a49717e3a287738820982e1a6f1ed4a33e12",
      "assetIds": [
        "41506478881403507969696680653240014914910929820314476107906210059990541021184"
      ]
    },
    {
      "x": 350,
      "y": 303,
      "size": 1,
      "price": "4683000000000000000000",
      "reserved": "",
      "salt": "0x818c617f3361f7f80ccc9308461940dd543100386d42f1352c0b79f97d38d0f7",
      "assetIds": [
        "41506478881403507969696680653240014914910929820314476107906210059990541021189"
      ]
    },
    {
      "x": 350,
      "y": 304,
      "size": 1,
      "price": "4683000000000000000000",
      "reserved": "",
      "salt": "0x1389d2e89fd0760ae0f4e25741b22f5e37c414ef9b74bd2fb9c8138642e97fdf",
      "assetIds": [
        "41506478881403507969696680653240014914910929820314476107906210059990541021185"
      ]
    },
    {
      "x": 350,
      "y": 305,
      "size": 1,
      "price": "4683000000000000000000",
      "reserved": "",
      "salt": "0xb806d3b214c221e5b8f998c37dec5de5189d205bb3bfef962e7fa1e64b37e307",
      "assetIds": [
        "41506478881403507969696680653240014914910929820314476107906210059990541021188"
      ]
    },
    {
      "x": 351,
      "y": 252,
      "size": 1,
      "price": "4683000000000000000000",
      "reserved": "",
      "salt": "0x7f9df0e26426beeed007b01c6abc986ce80186fb5ba57d81f98999be1c0edbed",
      "assetIds": [
        "41506478881403507969696680653240014914910929820314476107906210059990541021189"
      ]
    },
    {
      "x": 351,
      "y": 253,
      "size": 1,
      "price": "4683000000000000000000",
      "reserved": "",
      "salt": "0xe01fd58eb209a22e55a778526b8d69813ffb5acd42346b21c2a61e4ef26946d6",
      "assetIds": [
        "41506478881403507969696680653240014914910929820314476107906210059990541021185"
      ]
    },
    {
      "x": 351,
      "y": 254,
      "size": 1,
      "price": "4683000000000000000000",
      "reserved": "",
      "salt": "0xad12738b2e1330a16533cfbbb4800229300e44bb04b8af4b0868f92eedab612d",
      "assetIds": [
        "41506478881403507969696680653240014914910929820314476107906210059990541021186"
      ]
    },
    {
      "x": 351,
      "y": 255,
      "size": 1,
      "price": "4683000000000000000000",
      "reserved": "",
      "salt": "0xe9c90e553ab4e3532e712c5008dc9a3ee37f4b34e9ca41da0a192b5c963ec781",
      "assetIds": [
        "41506478881403507969696680653240014914910929820314476107906210059990532622336"
      ]
    },
    {
      "x": 351,
      "y": 256,
      "size": 1,
      "price": "4683000000000000000000",
      "reserved": "",
      "salt": "0xa03604579aa4fa80545ec09594a3ef2a7a99231e99706278207c1676360a98c6",
      "assetIds": [
        "41506478881403507969696680653240014914910929820314476107906210059990541021186"
      ]
    },
    {
      "x": 351,
      "y": 257,
      "size": 1,
      "price": "4683000000000000000000",
      "reserved": "",
      "salt": "0xcf3dc3c8e9c503eb98c606bb80f2b509f3f9870449e33043b7f7f309af304250",
      "assetIds": [
        "41506478881403507969696680653240014914910929820314476107906210059990541021185"
      ]
    },
    {
      "x": 351,
      "y": 258,
      "size": 1,
      "price": "4683000000000000000000",
      "reserved": "",
      "salt": "0x0358ef85c368e03e334cfcc50bfa9398e8610c6822073a3952227deceecf9a19",
      "assetIds": [
        "41506478881403507969696680653240014914910929820314476107906210059990541021185"
      ]
    },
    {
      "x": 351,
      "y": 259,
      "size": 1,
      "price": "4683000000000000000000",
      "reserved": "",
      "salt": "0x7a117012a67cc6d123375977da931fa5f558ed916a28bbbe887df72516317c56",
      "assetIds": [
        "41506478881403507969696680653240014914910929820314476107906210059990541021188"
      ]
    },
    {
      "x": 351,
      "y": 260,
      "size": 1,
      "price": "4683000000000000000000",
      "reserved": "",
      "salt": "0x0d8b62324d28639c4a114b8b1311b057542da0b69f19f9219a5151ac8a9bcdd8",
      "assetIds": [
        "41506478881403507969696680653240014914910929820314476107906210059990541021188"
      ]
    },
    {
      "x": 351,
      "y": 261,
      "size": 1,
      "price": "4683000000000000000000",
      "reserved": "",
      "salt": "0x8be34f234d137ccfd6ec999ea521ea44d6e49d254ee5d3776ca25937be76f28e",
      "assetIds": [
        "41506478881403507969696680653240014914910929820314476107906210059990541021189"
      ]
    },
    {
      "x": 351,
      "y": 262,
      "size": 1,
      "price": "4683000000000000000000",
      "reserved": "",
      "salt": "0xa14874410b46d5bf50abecbe9f5f8b6b45cd926bfe6fd013142ec2c52d64a345",
      "assetIds": [
        "41506478881403507969696680653240014914910929820314476107906210059990541021189"
      ]
    },
    {
      "x": 351,
      "y": 263,
      "size": 1,
      "price": "4683000000000000000000",
      "reserved": "",
      "salt": "0x935688d2748dfe8ea1081bc74ca35badd31039301afefcc00b253ce399694b62",
      "assetIds": [
        "41506478881403507969696680653240014914910929820314476107906210059990541021184"
      ]
    },
    {
      "x": 351,
      "y": 300,
      "size": 1,
      "price": "4683000000000000000000",
      "reserved": "",
      "salt": "0x69f0f5e83d77ff52cc2fc6f71ea4bed7be4ada45514afcfe61a1dad7c1931ec7",
      "assetIds": [
        "41506478881403507969696680653240014914910929820314476107906210059990541021189"
      ]
    },
    {
      "x": 351,
      "y": 301,
      "size": 1,
      "price": "4683000000000000000000",
      "reserved": "",
      "salt": "0xee40b9a5fdecd306a94841e3a8316146c6902a209d693fc9fd47696e3217a736",
      "assetIds": [
        "41506478881403507969696680653240014914910929820314476107906210059990541021187"
      ]
    },
    {
      "x": 351,
      "y": 302,
      "size": 1,
      "price": "4683000000000000000000",
      "reserved": "",
      "salt": "0xef63344d0d452311fdb52a3fa729892c87fe83c21be41ebaad7b80eee372acbb",
      "assetIds": [
        "41506478881403507969696680653240014914910929820314476107906210059990541021185"
      ]
    },
    {
      "x": 351,
      "y": 303,
      "size": 1,
      "price": "4683000000000000000000",
      "reserved": "",
      "salt": "0x65aaa109f6fad0d9fa3e9d5aa430c937fb664036a63883f8c42823c92af1db94",
      "assetIds": [
        "41506478881403507969696680653240014914910929820314476107906210059990541021189"
      ]
    },
    {
      "x": 351,
      "y": 304,
      "size": 1,
      "price": "4683000000000000000000",
      "reserved": "",
      "salt": "0x0bdcd5219dd86abce5585db9173cfa6c04758ee6b7564fed956b8a5e0efdcb1f",
      "assetIds": [
        "41506478881403507969696680653240014914910929820314476107906210059990541021187"
      ]
    },
    {
      "x": 351,
      "y": 305,
      "size": 1,
      "price": "4683000000000000000000",
      "reserved": "",
      "salt": "0x15df5c55d341e39293367b9da34ece0428fc9857b3bd2249f22a65b0fad882d2",
      "assetIds": [
        "41506478881403507969696680653240014914910929820314476107906210059990541021188"
      ]
    },
    {
      "x": 352,
      "y": 252,
      "size": 1,
      "price": "4683000000000000000000",
      "reserved": "",
      "salt": "0xb07e1bd8f4c1fbd0bc1bb8630a825bd589fb3f9980e3b146ed33892928e87539",
      "assetIds": [
        "41506478881403507969696680653240014914910929820314476107906210059990541021189"
      ]
    },
    {
      "x": 352,
      "y": 253,
      "size": 1,
      "price": "4683000000000000000000",
      "reserved": "",
      "salt": "0x523a6e02d953e92f4d6850071253e5ecfc1eb5d2f906ec31ddb7642dbdf377ef",
      "assetIds": [
        "41506478881403507969696680653240014914910929820314476107906210059990541021188"
      ]
    },
    {
      "x": 352,
      "y": 254,
      "size": 1,
      "price": "4683000000000000000000",
      "reserved": "",
      "salt": "0xba5513a6a8f4cc7ea6f656b54eb9e0de7dde36881b83070bdbbae5f5c209728b",
      "assetIds": [
        "41506478881403507969696680653240014914910929820314476107906210059990541021188"
      ]
    },
    {
      "x": 352,
      "y": 255,
      "size": 1,
      "price": "4683000000000000000000",
      "reserved": "",
      "salt": "0x9838ca95ce50f6cafe4b5c8534ab439d65b166fdcd6f9d051a6fdb3135efe892",
      "assetIds": [
        "41506478881403507969696680653240014914910929820314476107906210059990541021184"
      ]
    },
    {
      "x": 352,
      "y": 256,
      "size": 1,
      "price": "4683000000000000000000",
      "reserved": "",
      "salt": "0xd0df32084af9852ce241430e245e5b06a297617036c38f772b21b87b06ddd79d",
      "assetIds": [
        "41506478881403507969696680653240014914910929820314476107906210059990541021186"
      ]
    },
    {
      "x": 352,
      "y": 257,
      "size": 1,
      "price": "4683000000000000000000",
      "reserved": "",
      "salt": "0xa3c0f814e868e75bd2fbc2ff8a09fced5153ec290bd018db3b6d53960beb66ac",
      "assetIds": [
        "41506478881403507969696680653240014914910929820314476107906210059990532622336"
      ]
    },
    {
      "x": 352,
      "y": 258,
      "size": 1,
      "price": "4683000000000000000000",
      "reserved": "",
      "salt": "0x9afade87c6b91611802fce3e5f7afb00a86ff3dd0ab7a1fa527574599278dd81",
      "assetIds": [
        "41506478881403507969696680653240014914910929820314476107906210059990541021188"
      ]
    },
    {
      "x": 352,
      "y": 259,
      "size": 1,
      "price": "4683000000000000000000",
      "reserved": "",
      "salt": "0x15ddac2920d33e7acde0cc52be7d7b77e859e3c1262e439bec9c48fccda2e1c4",
      "assetIds": [
        "41506478881403507969696680653240014914910929820314476107906210059990541021187"
      ]
    },
    {
      "x": 352,
      "y": 260,
      "size": 1,
      "price": "4683000000000000000000",
      "reserved": "",
      "salt": "0x6414242626c2863731327d211132cf09c78360fc42a42a46c5ef79e36dd13547",
      "assetIds": [
        "41506478881403507969696680653240014914910929820314476107906210059990541021187"
      ]
    },
    {
      "x": 352,
      "y": 261,
      "size": 1,
      "price": "4683000000000000000000",
      "reserved": "",
      "salt": "0x0103a2b37085d1f03d96c35343ceab9490960ab2cc56be217a18137a59bad396",
      "assetIds": [
        "41506478881403507969696680653240014914910929820314476107906210059990541021189"
      ]
    },
    {
      "x": 352,
      "y": 262,
      "size": 1,
      "price": "1011000000000000000000",
      "reserved": "0x7a9fe22691c811ea339d9b73150e6911a5343dca",
      "salt": "0x88cca0bf9d10ede951cd5f10c369f1ac9aa0f9f2e2c6d21fcbf1606b0e7adc30",
      "assetIds": []
    },
    {
      "x": 352,
      "y": 263,
      "size": 1,
      "price": "4683000000000000000000",
      "reserved": "",
      "salt": "0x0fb34c30456c302964e93083c4ec21a1f98c90eba7f21abb39f6396a23513c67",
      "assetIds": [
        "41506478881403507969696680653240014914910929820314476107906210059990541021189"
      ]
    },
    {
      "x": 352,
      "y": 300,
      "size": 1,
      "price": "4683000000000000000000",
      "reserved": "",
      "salt": "0xcdffe24e14c538c11dc553e154a9387e5c876e6dd2d0423cf64f526786597758",
      "assetIds": [
        "41506478881403507969696680653240014914910929820314476107906210059990541021188"
      ]
    },
    {
      "x": 352,
      "y": 301,
      "size": 1,
      "price": "4683000000000000000000",
      "reserved": "",
      "salt": "0x733e6803033db13922357ae8547153be71d621c834d3caabaa9b60e62d30fae8",
      "assetIds": [
        "41506478881403507969696680653240014914910929820314476107906210059990541021189"
      ]
    },
    {
      "x": 352,
      "y": 302,
      "size": 1,
      "price": "4683000000000000000000",
      "reserved": "",
      "salt": "0x3e079d3f0535318a21bb0818b99d05047aec35c4f7b26a2a74120c9c3da4be85",
      "assetIds": [
        "41506478881403507969696680653240014914910929820314476107906210059990541021186"
      ]
    },
    {
      "x": 352,
      "y": 303,
      "size": 1,
      "price": "4683000000000000000000",
      "reserved": "",
      "salt": "0x56cb43c0ce16749dd19ba430278ec30ea6419532b43ee8ae453d5bd3ab2c9472",
      "assetIds": [
        "41506478881403507969696680653240014914910929820314476107906210059990541021188"
      ]
    },
    {
      "x": 352,
      "y": 304,
      "size": 1,
      "price": "4683000000000000000000",
      "reserved": "",
      "salt": "0x2652ba1e2a5040258154f29b0f3b08c62647b2ac17d199d90d05c5c36290cc83",
      "assetIds": [
        "41506478881403507969696680653240014914910929820314476107906210059990541021187"
      ]
    },
    {
      "x": 352,
      "y": 305,
      "size": 1,
      "price": "4683000000000000000000",
      "reserved": "",
      "salt": "0xacbc961a521215cec7a25735bd543ef5ecd5469b394afbd9425fb635fe5b1770",
      "assetIds": [
        "41506478881403507969696680653240014914910929820314476107906210059990541021184"
      ]
    },
    {
      "x": 353,
      "y": 252,
      "size": 1,
      "price": "1011000000000000000000",
      "reserved": "0x7a9fe22691c811ea339d9b73150e6911a5343dca",
      "salt": "0x1aa8095778de99bf2313a3f18705b6a01861864a4f84a21953fbf21fad41c80f",
      "assetIds": []
    },
    {
      "x": 353,
      "y": 253,
      "size": 1,
      "price": "4683000000000000000000",
      "reserved": "",
      "salt": "0x73916ec502bb22908cbb94d95e5854aa659697d82869364b035a5ab48f351c9d",
      "assetIds": [
        "41506478881403507969696680653240014914910929820314476107906210059990541021186"
      ]
    },
    {
      "x": 353,
      "y": 254,
      "size": 1,
      "price": "4683000000000000000000",
      "reserved": "",
      "salt": "0xec4b520a61d891bede0cf1b88ca5b1420dc0db590014caa3c121bee7891078c9",
      "assetIds": [
        "41506478881403507969696680653240014914910929820314476107906210059990541021188"
      ]
    },
    {
      "x": 353,
      "y": 255,
      "size": 1,
      "price": "4683000000000000000000",
      "reserved": "",
      "salt": "0xe755b2e1cd0f8241df1ebbe8e1f640c33f84359d2c9620ae89bc8a4f603fb7ce",
      "assetIds": [
        "41506478881403507969696680653240014914910929820314476107906210059990541021185"
      ]
    },
    {
      "x": 353,
      "y": 256,
      "size": 1,
      "price": "4683000000000000000000",
      "reserved": "",
      "salt": "0x9ef2705ffb77824b4b411e10e8d6945fe046f1ddd8fb6681b88817c5cfe21a52",
      "assetIds": [
        "41506478881403507969696680653240014914910929820314476107906210059990532622336"
      ]
    },
    {
      "x": 353,
      "y": 257,
      "size": 1,
      "price": "4683000000000000000000",
      "reserved": "",
      "salt": "0x892a1559c222f8e3eccfca404b63a49759e1cf0995158e117abb5b87f9704473",
      "assetIds": [
        "41506478881403507969696680653240014914910929820314476107906210059990541021189"
      ]
    },
    {
      "x": 353,
      "y": 258,
      "size": 1,
      "price": "4683000000000000000000",
      "reserved": "",
      "salt": "0xced4057a99fee3a1561f56eea6dd8f3f939c39c3dbf0ead42c44ca89d420364b",
      "assetIds": [
        "41506478881403507969696680653240014914910929820314476107906210059990541021188"
      ]
    },
    {
      "x": 353,
      "y": 259,
      "size": 1,
      "price": "4683000000000000000000",
      "reserved": "",
      "salt": "0x24bff700bfd9d23553061b943ff116f01b49a3afaaeacdd4db7e12d4b4a1b2f0",
      "assetIds": [
        "41506478881403507969696680653240014914910929820314476107906210059990541021189"
      ]
    },
    {
      "x": 353,
      "y": 260,
      "size": 1,
      "price": "4683000000000000000000",
      "reserved": "",
      "salt": "0x2edaf7f2e55577459e4629a466e5a00b94b4ad64c6be111b8a43d5fee429e9ec",
      "assetIds": [
        "41506478881403507969696680653240014914910929820314476107906210059990541021188"
      ]
    },
    {
      "x": 353,
      "y": 261,
      "size": 1,
      "price": "4683000000000000000000",
      "reserved": "",
      "salt": "0x7043bf0699b543b2e21e5b11869ed7742a453fd9886bc915322baa8dca4ea1e8",
      "assetIds": [
        "41506478881403507969696680653240014914910929820314476107906210059990541021187"
      ]
    },
    {
      "x": 353,
      "y": 262,
      "size": 1,
      "price": "4683000000000000000000",
      "reserved": "",
      "salt": "0xb659d03752ecc06263cf104e59a96c0c0aeb29e0131f8d302eb0808c641c4936",
      "assetIds": [
        "41506478881403507969696680653240014914910929820314476107906210059990541021188"
      ]
    },
    {
      "x": 353,
      "y": 263,
      "size": 1,
      "price": "4683000000000000000000",
      "reserved": "",
      "salt": "0x28357033bd6f65706cff03617737529c2a81036521fc48f7ed831303765a53bc",
      "assetIds": [
        "41506478881403507969696680653240014914910929820314476107906210059990541021185"
      ]
    },
    {
      "x": 353,
      "y": 300,
      "size": 1,
      "price": "4683000000000000000000",
      "reserved": "",
      "salt": "0x6b362bccdae520676563a107b3a0d993a56137a7760348af591e2d8e33ec81d9",
      "assetIds": [
        "41506478881403507969696680653240014914910929820314476107906210059990541021184"
      ]
    },
    {
      "x": 353,
      "y": 301,
      "size": 1,
      "price": "4683000000000000000000",
      "reserved": "",
      "salt": "0xa91aca44ec0d48720ab89f830c13a47b4bc81e94eb9bd753bc557352cf488072",
      "assetIds": [
        "41506478881403507969696680653240014914910929820314476107906210059990541021188"
      ]
    },
    {
      "x": 353,
      "y": 302,
      "size": 1,
      "price": "4683000000000000000000",
      "reserved": "",
      "salt": "0xb81f65327ad4be44b1d99620d99ef7ecf25d7a0233c97b7df5c1f6aafde5d836",
      "assetIds": [
        "41506478881403507969696680653240014914910929820314476107906210059990532622336"
      ]
    },
    {
      "x": 353,
      "y": 303,
      "size": 1,
      "price": "4683000000000000000000",
      "reserved": "",
      "salt": "0xa5011faf5f7bd4ec5867b87786e41086ec69ead74f887c1cd0fd47942ff78cb4",
      "assetIds": [
        "41506478881403507969696680653240014914910929820314476107906210059990541021185"
      ]
    },
    {
      "x": 353,
      "y": 304,
      "size": 1,
      "price": "4683000000000000000000",
      "reserved": "",
      "salt": "0x12f74b5ebe442f3c45a6487da49437cf37a737f68b2da1018fe85c0fad9399cc",
      "assetIds": [
        "41506478881403507969696680653240014914910929820314476107906210059990541021187"
      ]
    },
    {
      "x": 353,
      "y": 305,
      "size": 1,
      "price": "4683000000000000000000",
      "reserved": "",
      "salt": "0x0f48a94a77957337770b62ea71096f13708a1eaa8c72b76dd2e95c7be60517ba",
      "assetIds": [
        "41506478881403507969696680653240014914910929820314476107906210059990541021187"
      ]
    },
    {
      "x": 354,
      "y": 252,
      "size": 1,
      "price": "4683000000000000000000",
      "reserved": "",
      "salt": "0x3d6752a71fc559105be90aa9d3373ddf870d7ac7e3fb7ab8adc78c61b16179c3",
      "assetIds": [
        "41506478881403507969696680653240014914910929820314476107906210059990541021189"
      ]
    },
    {
      "x": 354,
      "y": 253,
      "size": 1,
      "price": "4683000000000000000000",
      "reserved": "",
      "salt": "0x9fa995a12932851b9749134b16f91434cdade38429d73d410a4428485e0779bd",
      "assetIds": [
        "41506478881403507969696680653240014914910929820314476107906210059990541021186"
      ]
    },
    {
      "x": 354,
      "y": 254,
      "size": 1,
      "price": "4683000000000000000000",
      "reserved": "",
      "salt": "0xf170cbb58258520927ad9dde5e0ffe6eb61b62ae5d8f9f5dd52b0b41380726e4",
      "assetIds": [
        "41506478881403507969696680653240014914910929820314476107906210059990541021185"
      ]
    },
    {
      "x": 354,
      "y": 255,
      "size": 1,
      "price": "4683000000000000000000",
      "reserved": "",
      "salt": "0x767f8f2e8df89a28b8b704798ab28507c5941aee17092ca657d1cfb6361e5fcb",
      "assetIds": [
        "41506478881403507969696680653240014914910929820314476107906210059990541021189"
      ]
    },
    {
      "x": 354,
      "y": 256,
      "size": 1,
      "price": "4683000000000000000000",
      "reserved": "",
      "salt": "0x07dfff244003cc1c81891ac72759731892a19438a3493077bdc7c26ae3e9ed91",
      "assetIds": [
        "41506478881403507969696680653240014914910929820314476107906210059990541021187"
      ]
    },
    {
      "x": 354,
      "y": 257,
      "size": 1,
      "price": "4683000000000000000000",
      "reserved": "",
      "salt": "0x01a4503d096b01fb50a0746cb9ae9733d37e4060555f8085b637ba5b7141262c",
      "assetIds": [
        "41506478881403507969696680653240014914910929820314476107906210059990541021186"
      ]
    },
    {
      "x": 354,
      "y": 300,
      "size": 1,
      "price": "4683000000000000000000",
      "reserved": "",
      "salt": "0xcd3037f47c49f67370ea78de6642aeb9f8a29f17bfc7becd3f78cac9544e94ab",
      "assetIds": [
        "41506478881403507969696680653240014914910929820314476107906210059990541021187"
      ]
    },
    {
      "x": 354,
      "y": 301,
      "size": 1,
      "price": "4683000000000000000000",
      "reserved": "",
      "salt": "0x21c5dfb12642270787b986f50efabf20e6a8137c5d20adc03679c91950153d82",
      "assetIds": [
        "41506478881403507969696680653240014914910929820314476107906210059990541021188"
      ]
    },
    {
      "x": 354,
      "y": 302,
      "size": 1,
      "price": "4683000000000000000000",
      "reserved": "",
      "salt": "0xf92f7786bc0ffc2d4b6be523e4e3cc69735d483a617ee10d955e7e6f89f0d90e",
      "assetIds": [
        "41506478881403507969696680653240014914910929820314476107906210059990541021186"
      ]
    },
    {
      "x": 354,
      "y": 303,
      "size": 1,
      "price": "4683000000000000000000",
      "reserved": "",
      "salt": "0xc1137d7c7cde1e03971a836d73bf1a08794df72faa6c2096dd5e3ae38bb9163e",
      "assetIds": [
        "41506478881403507969696680653240014914910929820314476107906210059990541021186"
      ]
    },
    {
      "x": 354,
      "y": 304,
      "size": 1,
      "price": "4683000000000000000000",
      "reserved": "",
      "salt": "0x06af302b5a84fd2c8b124de2893e7f69528dfb2166242393e17feaae1015c019",
      "assetIds": [
        "41506478881403507969696680653240014914910929820314476107906210059990541021189"
      ]
    },
    {
      "x": 354,
      "y": 305,
      "size": 1,
      "price": "4683000000000000000000",
      "reserved": "",
      "salt": "0xc01e8a1be9beaafe01176c38a1eda8c61e42975247e1c0719eb806bee894af0d",
      "assetIds": [
        "41506478881403507969696680653240014914910929820314476107906210059990541021187"
      ]
    },
    {
      "x": 354,
      "y": 306,
      "size": 1,
      "price": "4683000000000000000000",
      "reserved": "",
      "salt": "0x199dd238ccae21cedd8579af3e521ad5c384a285f730a62ef396949ea062f906",
      "assetIds": [
        "41506478881403507969696680653240014914910929820314476107906210059990541021187"
      ]
    },
    {
      "x": 354,
      "y": 307,
      "size": 1,
      "price": "4683000000000000000000",
      "reserved": "",
      "salt": "0xdb9c1087e768e02fa7d287bebe6ce6dac6bff447129f1116a3e3a0bc5bf4868f",
      "assetIds": [
        "41506478881403507969696680653240014914910929820314476107906210059990541021186"
      ]
    },
    {
      "x": 354,
      "y": 308,
      "size": 1,
      "price": "4683000000000000000000",
      "reserved": "",
      "salt": "0x7d2243c7c671c49e8f80fd003f59c8843559215e15b65c62932d05f6791a12ac",
      "assetIds": [
        "41506478881403507969696680653240014914910929820314476107906210059990541021187"
      ]
    },
    {
      "x": 354,
      "y": 309,
      "size": 1,
      "price": "4683000000000000000000",
      "reserved": "",
      "salt": "0xfc62303c68f354f727675356d6ff105c5895be23656ec96d1324f92ebd226349",
      "assetIds": [
        "41506478881403507969696680653240014914910929820314476107906210059990541021188"
      ]
    },
    {
      "x": 354,
      "y": 310,
      "size": 1,
      "price": "4683000000000000000000",
      "reserved": "",
      "salt": "0xfb95792dd2686513bc82a8960a1e73137b4beaebc30cd05d93601b2fb304c91c",
      "assetIds": [
        "41506478881403507969696680653240014914910929820314476107906210059990541021187"
      ]
    },
    {
      "x": 354,
      "y": 311,
      "size": 1,
      "price": "4683000000000000000000",
      "reserved": "",
      "salt": "0xfcec3946b80650c557deeb92dc3d683aea43bb03f2d536226b04d3a9a14e4b3d",
      "assetIds": [
        "41506478881403507969696680653240014914910929820314476107906210059990541021188"
      ]
    },
    {
      "x": 355,
      "y": 252,
      "size": 1,
      "price": "4683000000000000000000",
      "reserved": "",
      "salt": "0xb43b3873dcbd45f15d940f2dd430d95d7b8a2eb372abb705dc1b3b435d6fbd82",
      "assetIds": [
        "41506478881403507969696680653240014914910929820314476107906210059990541021185"
      ]
    },
    {
      "x": 355,
      "y": 253,
      "size": 1,
      "price": "4683000000000000000000",
      "reserved": "",
      "salt": "0x2799c0ebeb81d697237ce7457a8bacb2ba36fbfaa4fb8497dd15dd74f8721c31",
      "assetIds": [
        "41506478881403507969696680653240014914910929820314476107906210059990541021187"
      ]
    },
    {
      "x": 355,
      "y": 254,
      "size": 1,
      "price": "4683000000000000000000",
      "reserved": "",
      "salt": "0x5fcb1a6fa27fa98d1cc960caab9a313a82d6fb241516c28ceaadef0127b45246",
      "assetIds": [
        "41506478881403507969696680653240014914910929820314476107906210059990541021188"
      ]
    },
    {
      "x": 355,
      "y": 255,
      "size": 1,
      "price": "4683000000000000000000",
      "reserved": "",
      "salt": "0x0016b8b816d758a3a35b3cdc5a31d84cc6cb79582db847fd0da489cb9e4b406b",
      "assetIds": [
        "41506478881403507969696680653240014914910929820314476107906210059990541021187"
      ]
    },
    {
      "x": 355,
      "y": 256,
      "size": 1,
      "price": "4683000000000000000000",
      "reserved": "",
      "salt": "0x710e57d960166823c001ac94f8939800757ac8c2ec2567a1477cefb1cd928537",
      "assetIds": [
        "41506478881403507969696680653240014914910929820314476107906210059990541021187"
      ]
    },
    {
      "x": 355,
      "y": 257,
      "size": 1,
      "price": "4683000000000000000000",
      "reserved": "",
      "salt": "0xa2ef0630b2fb02b253bfa3daf9d8edfab883e85d386835b2f7e4c746c53c8c64",
      "assetIds": [
        "41506478881403507969696680653240014914910929820314476107906210059990541021188"
      ]
    },
    {
      "x": 355,
      "y": 300,
      "size": 1,
      "price": "4683000000000000000000",
      "reserved": "",
      "salt": "0x6139a61b697ee52a07fde58b516a0b4773664eca9e0568e16499e4b13a014a15",
      "assetIds": [
        "41506478881403507969696680653240014914910929820314476107906210059990541021187"
      ]
    },
    {
      "x": 355,
      "y": 301,
      "size": 1,
      "price": "4683000000000000000000",
      "reserved": "",
      "salt": "0x198f684332c649ab43efe86f132644d67b9ab0ef9f916fa09dcedad65065a8d2",
      "assetIds": [
        "41506478881403507969696680653240014914910929820314476107906210059990541021189"
      ]
    },
    {
      "x": 355,
      "y": 302,
      "size": 1,
      "price": "4683000000000000000000",
      "reserved": "",
      "salt": "0x4bb3d777a5fbbdf38e8442ddfe1d398b89782c5cefdd0076fd44b9092a3b278b",
      "assetIds": [
        "41506478881403507969696680653240014914910929820314476107906210059990541021188"
      ]
    },
    {
      "x": 355,
      "y": 303,
      "size": 1,
      "price": "4683000000000000000000",
      "reserved": "",
      "salt": "0xa4d05de4a955c0b20ddfd2f7da5b5cb8d4e95a3d622a8e335ef71411f3f27e9b",
      "assetIds": [
        "41506478881403507969696680653240014914910929820314476107906210059990541021189"
      ]
    },
    {
      "x": 355,
      "y": 304,
      "size": 1,
      "price": "4683000000000000000000",
      "reserved": "",
      "salt": "0x59a9aba84b11cf66c8842d55224f2f28461ba260c7153b13bab7c00c64e6e224",
      "assetIds": [
        "41506478881403507969696680653240014914910929820314476107906210059990541021188"
      ]
    },
    {
      "x": 355,
      "y": 305,
      "size": 1,
      "price": "1011000000000000000000",
      "reserved": "0x7a9fe22691c811ea339d9b73150e6911a5343dca",
      "salt": "0x697e4d0c6810ea38213f70444816492024b894c527b41cbe6f2fcb848ced0374",
      "assetIds": []
    },
    {
      "x": 355,
      "y": 306,
      "size": 1,
      "price": "4683000000000000000000",
      "reserved": "",
      "salt": "0xd58f628f9b2b088b8067b07e624f5dfde2ecb68f569cbad480eff0484ace3407",
      "assetIds": [
        "41506478881403507969696680653240014914910929820314476107906210059990541021188"
      ]
    },
    {
      "x": 355,
      "y": 307,
      "size": 1,
      "price": "4683000000000000000000",
      "reserved": "",
      "salt": "0xcd0fd565f6ecc976ba631d8e5de6f819d717e49fdee662bf58c294272ac3e955",
      "assetIds": [
        "41506478881403507969696680653240014914910929820314476107906210059990541021186"
      ]
    },
    {
      "x": 355,
      "y": 308,
      "size": 1,
      "price": "4683000000000000000000",
      "reserved": "",
      "salt": "0x533f8b6d351eec8bca342295697960170ca12a74dca10b0329f587cbc2615136",
      "assetIds": [
        "41506478881403507969696680653240014914910929820314476107906210059990541021189"
      ]
    },
    {
      "x": 355,
      "y": 309,
      "size": 1,
      "price": "4683000000000000000000",
      "reserved": "",
      "salt": "0x86a11fc00bae00e225ce696634efbbc9e1ed734bb4e12d47f17242c5024326b1",
      "assetIds": [
        "41506478881403507969696680653240014914910929820314476107906210059990541021186"
      ]
    },
    {
      "x": 355,
      "y": 310,
      "size": 1,
      "price": "4683000000000000000000",
      "reserved": "",
      "salt": "0x26f24e260507ef2580401280cd003dc72123b8850add8992e92dddc98b817e2f",
      "assetIds": [
        "41506478881403507969696680653240014914910929820314476107906210059990541021187"
      ]
    },
    {
      "x": 355,
      "y": 311,
      "size": 1,
      "price": "4683000000000000000000",
      "reserved": "",
      "salt": "0xddbe3af7ecfc3d9781ffc20707e598dc03602bc845bc7a8af62c79fb41530f45",
      "assetIds": [
        "41506478881403507969696680653240014914910929820314476107906210059990541021188"
      ]
    },
    {
      "x": 356,
      "y": 252,
      "size": 1,
      "price": "4683000000000000000000",
      "reserved": "",
      "salt": "0x23c5ad4fbdbdc912da0395b14f5127d2c454f73627fd99bc4e9586b7be33310f",
      "assetIds": [
        "41506478881403507969696680653240014914910929820314476107906210059990541021186"
      ]
    },
    {
      "x": 356,
      "y": 253,
      "size": 1,
      "price": "4683000000000000000000",
      "reserved": "",
      "salt": "0x7232426cf04b31f5d0ea984e6c8398ffcbf96f73ae4dc49b0fb456c9f3d46d57",
      "assetIds": [
        "41506478881403507969696680653240014914910929820314476107906210059990541021187"
      ]
    },
    {
      "x": 356,
      "y": 254,
      "size": 1,
      "price": "4683000000000000000000",
      "reserved": "",
      "salt": "0x943a72406155d9c3dca6f7f33dec0858ab369bb9c2f5c92e1fec339e5fcec78b",
      "assetIds": [
        "41506478881403507969696680653240014914910929820314476107906210059990541021187"
      ]
    },
    {
      "x": 356,
      "y": 255,
      "size": 1,
      "price": "4683000000000000000000",
      "reserved": "",
      "salt": "0xe2dddda06d7357cdced813f867dda29daa9be46de9b76bb239400af57b8491cd",
      "assetIds": [
        "41506478881403507969696680653240014914910929820314476107906210059990541021186"
      ]
    },
    {
      "x": 356,
      "y": 256,
      "size": 1,
      "price": "4683000000000000000000",
      "reserved": "",
      "salt": "0xaa55f0c658a65db2b6ddbd82140c946ec42bfce4e1fefb07cc1e4d87a901b9de",
      "assetIds": [
        "41506478881403507969696680653240014914910929820314476107906210059990541021187"
      ]
    },
    {
      "x": 356,
      "y": 257,
      "size": 1,
      "price": "4683000000000000000000",
      "reserved": "",
      "salt": "0x28ed265eb8d3aaa553efe779e2e9d6f8c27ca10bafc1730a25869117c2c1c4b7",
      "assetIds": [
        "41506478881403507969696680653240014914910929820314476107906210059990541021186"
      ]
    },
    {
      "x": 356,
      "y": 300,
      "size": 1,
      "price": "4683000000000000000000",
      "reserved": "",
      "salt": "0x2cd60a186c9f79ff939bb6c360534e1d702704b620292b3a5879f13e5dee54e4",
      "assetIds": [
        "41506478881403507969696680653240014914910929820314476107906210059990541021188"
      ]
    },
    {
      "x": 356,
      "y": 301,
      "size": 1,
      "price": "4683000000000000000000",
      "reserved": "",
      "salt": "0xe5c400560e8b5b3c33666d0453f3cc7f5d06503b9ad1d7d8e4b2998a294fbb1c",
      "assetIds": [
        "41506478881403507969696680653240014914910929820314476107906210059990541021184"
      ]
    },
    {
      "x": 356,
      "y": 302,
      "size": 1,
      "price": "4683000000000000000000",
      "reserved": "",
      "salt": "0x6cfa8fb3f991f3af84e07d63d73f2c473b6163443e2b8f6c2f7ffedfe896f962",
      "assetIds": [
        "41506478881403507969696680653240014914910929820314476107906210059990541021189"
      ]
    },
    {
      "x": 356,
      "y": 303,
      "size": 1,
      "price": "4683000000000000000000",
      "reserved": "",
      "salt": "0x831ca8e3e63d40d99047e9e8ec00def683a03125ea153167357d3eb1a6d1b447",
      "assetIds": [
        "41506478881403507969696680653240014914910929820314476107906210059990541021188"
      ]
    },
    {
      "x": 356,
      "y": 304,
      "size": 1,
      "price": "4683000000000000000000",
      "reserved": "",
      "salt": "0x2a663ea216a90f7a9b1f6097822e27b6d6200f0a5c35e7ee981913fced42b1f3",
      "assetIds": [
        "41506478881403507969696680653240014914910929820314476107906210059990541021187"
      ]
    },
    {
      "x": 356,
      "y": 305,
      "size": 1,
      "price": "4683000000000000000000",
      "reserved": "",
      "salt": "0xb622bbc3838b1fce6c6c0c5f5c9c6e1e8f9e9cc421100f8807889d214fcf31b4",
      "assetIds": [
        "41506478881403507969696680653240014914910929820314476107906210059990541021186"
      ]
    },
    {
      "x": 356,
      "y": 306,
      "size": 1,
      "price": "4683000000000000000000",
      "reserved": "",
      "salt": "0x3f2aa4fa229a3e1ec9589c2d411520273f8631e199bb1b015d1076c5d2134f03",
      "assetIds": [
        "41506478881403507969696680653240014914910929820314476107906210059990541021187"
      ]
    },
    {
      "x": 356,
      "y": 307,
      "size": 1,
      "price": "4683000000000000000000",
      "reserved": "",
      "salt": "0xb150ca34c145e8fd1db240d5474acf0e856873fa96cf8cfd28aa751f0a697b5a",
      "assetIds": [
        "41506478881403507969696680653240014914910929820314476107906210059990541021185"
      ]
    },
    {
      "x": 356,
      "y": 308,
      "size": 1,
      "price": "4683000000000000000000",
      "reserved": "",
      "salt": "0x0de348202479628edacf2016e12aa3697418c6c670e813116830987af178eaaa",
      "assetIds": [
        "41506478881403507969696680653240014914910929820314476107906210059990532622336"
      ]
    },
    {
      "x": 356,
      "y": 309,
      "size": 1,
      "price": "4683000000000000000000",
      "reserved": "",
      "salt": "0x918e0eabf3855d7c5ba1b3441a75da921212c592c49cca2cb3d74b6b672360b0",
      "assetIds": [
        "41506478881403507969696680653240014914910929820314476107906210059990541021187"
      ]
    },
    {
      "x": 356,
      "y": 310,
      "size": 1,
      "price": "4683000000000000000000",
      "reserved": "",
      "salt": "0x6706f9896184dff5e2bbd4c81deb92db4c0551430f9392f89c32f8c3fd366e1a",
      "assetIds": [
        "41506478881403507969696680653240014914910929820314476107906210059990541021189"
      ]
    },
    {
      "x": 356,
      "y": 311,
      "size": 1,
      "price": "4683000000000000000000",
      "reserved": "",
      "salt": "0xa6982f474684f211028e0949f885692cb140d8160415a590f5c604fb025d4ed1",
      "assetIds": [
        "41506478881403507969696680653240014914910929820314476107906210059990541021189"
      ]
    },
    {
      "x": 357,
      "y": 252,
      "size": 1,
      "price": "4683000000000000000000",
      "reserved": "",
      "salt": "0x62c38522234335579e60fd0a53e0eab42f35e83827274f90db738a9aca10ea9e",
      "assetIds": [
        "41506478881403507969696680653240014914910929820314476107906210059990541021187"
      ]
    },
    {
      "x": 357,
      "y": 253,
      "size": 1,
      "price": "4683000000000000000000",
      "reserved": "",
      "salt": "0xcc2fdb79ccf1e45d032d037b8a1de7b3d06c3ab897c131f8153c6f3b95da5318",
      "assetIds": [
        "41506478881403507969696680653240014914910929820314476107906210059990541021187"
      ]
    },
    {
      "x": 357,
      "y": 254,
      "size": 1,
      "price": "4683000000000000000000",
      "reserved": "",
      "salt": "0x36428b1d8a525d701711f028d1e14720f9c9bc5e4706408191c476caa2ae1bb5",
      "assetIds": [
        "41506478881403507969696680653240014914910929820314476107906210059990541021187"
      ]
    },
    {
      "x": 357,
      "y": 255,
      "size": 1,
      "price": "4683000000000000000000",
      "reserved": "",
      "salt": "0xacf3151d78d63854732fe8f9175b12fd7b01ac013f203f08ea5e27049f7f6122",
      "assetIds": [
        "41506478881403507969696680653240014914910929820314476107906210059990541021186"
      ]
    },
    {
      "x": 357,
      "y": 256,
      "size": 1,
      "price": "4683000000000000000000",
      "reserved": "",
      "salt": "0x838e56b3901e9ec1283e8c6fe6baa8c12b6cc070c80a913076f584a4b130b481",
      "assetIds": [
        "41506478881403507969696680653240014914910929820314476107906210059990541021189"
      ]
    },
    {
      "x": 357,
      "y": 257,
      "size": 1,
      "price": "4683000000000000000000",
      "reserved": "",
      "salt": "0x72ff449e13217c9aad015a5b2ddd58eb5c79254cc85e605c5fa8c9524ad55319",
      "assetIds": [
        "41506478881403507969696680653240014914910929820314476107906210059990541021189"
      ]
    },
    {
      "x": 357,
      "y": 300,
      "size": 1,
      "price": "4683000000000000000000",
      "reserved": "",
      "salt": "0x41f51bd062dc7d38e1d8a206abc2311292efa84b467bd496eba27820ded8d8d5",
      "assetIds": [
        "41506478881403507969696680653240014914910929820314476107906210059990541021187"
      ]
    },
    {
      "x": 357,
      "y": 301,
      "size": 1,
      "price": "4683000000000000000000",
      "reserved": "",
      "salt": "0x1778bcc53d0508b37d8a30dcda33e1be18bd89de8c00b302e901949e9cb4e441",
      "assetIds": [
        "41506478881403507969696680653240014914910929820314476107906210059990541021185"
      ]
    },
    {
      "x": 357,
      "y": 302,
      "size": 1,
      "price": "4683000000000000000000",
      "reserved": "",
      "salt": "0x4e39d06a79cd44ccd7548ba2cbc1a6a0cb9d15fa81277b952ac79eb00e563868",
      "assetIds": [
        "41506478881403507969696680653240014914910929820314476107906210059990541021187"
      ]
    },
    {
      "x": 357,
      "y": 306,
      "size": 1,
      "price": "4683000000000000000000",
      "reserved": "",
      "salt": "0xd1894e9c6eb744335dd62acbf77c612a1f2c598757727b26cbef3145014f564b",
      "assetIds": [
        "41506478881403507969696680653240014914910929820314476107906210059990541021189"
      ]
    },
    {
      "x": 357,
      "y": 307,
      "size": 1,
      "price": "4683000000000000000000",
      "reserved": "",
      "salt": "0x9dd2e302459b219506d6bc0df93baa48b61b28855d7f2bbe45aaa4133e8b5c3c",
      "assetIds": [
        "41506478881403507969696680653240014914910929820314476107906210059990541021184"
      ]
    },
    {
      "x": 357,
      "y": 308,
      "size": 1,
      "price": "4683000000000000000000",
      "reserved": "",
      "salt": "0x5f7b9f54f6a8ab2d6bcf9e3a8d21fe6c9e05911415100670a5f7abf69e9ddd78",
      "assetIds": [
        "41506478881403507969696680653240014914910929820314476107906210059990541021188"
      ]
    },
    {
      "x": 358,
      "y": 252,
      "size": 1,
      "price": "4683000000000000000000",
      "reserved": "",
      "salt": "0xe5fde24f4fa2016dcc43eb23e137cb0277cf1f4771a898c0e6cc76f5492ebeff",
      "assetIds": [
        "41506478881403507969696680653240014914910929820314476107906210059990541021189"
      ]
    },
    {
      "x": 358,
      "y": 253,
      "size": 1,
      "price": "4683000000000000000000",
      "reserved": "",
      "salt": "0x3fd1573c0f1826942106c24f31ccc468c28173e81ef29e35c2e3a455809ed256",
      "assetIds": [
        "41506478881403507969696680653240014914910929820314476107906210059990541021186"
      ]
    },
    {
      "x": 358,
      "y": 254,
      "size": 1,
      "price": "1011000000000000000000",
      "reserved": "0x7a9fe22691c811ea339d9b73150e6911a5343dca",
      "salt": "0x5c8633a73c71ead692b70c1539d4fdd0bf93edb338f5d334d708114661e6824d",
      "assetIds": []
    },
    {
      "x": 358,
      "y": 255,
      "size": 1,
      "price": "4683000000000000000000",
      "reserved": "",
      "salt": "0x0fa0fc4b6bfe4d04eefbc0fb786d54c682b9841ec6dc4c6aa8b1b8495fd97123",
      "assetIds": [
        "41506478881403507969696680653240014914910929820314476107906210059990541021187"
      ]
    },
    {
      "x": 358,
      "y": 256,
      "size": 1,
      "price": "4683000000000000000000",
      "reserved": "",
      "salt": "0xbc2b07f7ca11d861b06301b1c7d9ee1657bc99d212d12e8bebc9269840ad9d08",
      "assetIds": [
        "41506478881403507969696680653240014914910929820314476107906210059990541021187"
      ]
    },
    {
      "x": 358,
      "y": 257,
      "size": 1,
      "price": "4683000000000000000000",
      "reserved": "",
      "salt": "0x8c039e0e771456dd7f40cd06df781deb5c4beb28e2a0758f7917f0d4f3915a9d",
      "assetIds": [
        "41506478881403507969696680653240014914910929820314476107906210059990541021187"
      ]
    },
    {
      "x": 358,
      "y": 300,
      "size": 1,
      "price": "4683000000000000000000",
      "reserved": "",
      "salt": "0x8f84be4131abbee98033f28e0c7733cd4fce709930687713bcb04aa0fc6a02b7",
      "assetIds": [
        "41506478881403507969696680653240014914910929820314476107906210059990541021187"
      ]
    },
    {
      "x": 358,
      "y": 301,
      "size": 1,
      "price": "4683000000000000000000",
      "reserved": "",
      "salt": "0x60644fbfb5fc5039c0b7237a193523e7c16c19cda25e7f0dd6d14e05a498b9ef",
      "assetIds": [
        "41506478881403507969696680653240014914910929820314476107906210059990541021186"
      ]
    },
    {
      "x": 358,
      "y": 302,
      "size": 1,
      "price": "4683000000000000000000",
      "reserved": "",
      "salt": "0x783c3f00a7340cc916542d778c29978c18cf1cf75d03a932ae3f3582412c6a5d",
      "assetIds": [
        "41506478881403507969696680653240014914910929820314476107906210059990541021184"
      ]
    },
    {
      "x": 358,
      "y": 306,
      "size": 1,
      "price": "4683000000000000000000",
      "reserved": "",
      "salt": "0x78ae217e6f26bc85b23d62e9c0b1f840c584e3c650b7b0ad17be1a36fac63691",
      "assetIds": [
        "41506478881403507969696680653240014914910929820314476107906210059990541021184"
      ]
    },
    {
      "x": 358,
      "y": 307,
      "size": 1,
      "price": "4683000000000000000000",
      "reserved": "",
      "salt": "0x1a9112f5c63f51a3184441d1970aca195a3aa3150b2d18785524afcdb6d704af",
      "assetIds": [
        "41506478881403507969696680653240014914910929820314476107906210059990541021187"
      ]
    },
    {
      "x": 358,
      "y": 308,
      "size": 1,
      "price": "4683000000000000000000",
      "reserved": "",
      "salt": "0xb114257482cc84488cec074fb5f8e7ce83076f3c3b16f8dea02c08cff5bb55b4",
      "assetIds": [
        "41506478881403507969696680653240014914910929820314476107906210059990541021187"
      ]
    },
    {
      "x": 359,
      "y": 252,
      "size": 1,
      "price": "4683000000000000000000",
      "reserved": "",
      "salt": "0x251744d31ae50b87317c284c2521b6cb88dd53e02683b1cebc1710e1cf013874",
      "assetIds": [
        "41506478881403507969696680653240014914910929820314476107906210059990532622336"
      ]
    },
    {
      "x": 359,
      "y": 253,
      "size": 1,
      "price": "4683000000000000000000",
      "reserved": "",
      "salt": "0xc644db0d8e48a074025e860e2ed45cefe79d3a273fefd3de606c3f415d0d17ca",
      "assetIds": [
        "41506478881403507969696680653240014914910929820314476107906210059990541021186"
      ]
    },
    {
      "x": 359,
      "y": 254,
      "size": 1,
      "price": "4683000000000000000000",
      "reserved": "",
      "salt": "0xb8f89da7e96f9d342bc479f5e28004dbd99ef9b618307c8f238770bef7f9df7e",
      "assetIds": [
        "41506478881403507969696680653240014914910929820314476107906210059990541021187"
      ]
    },
    {
      "x": 359,
      "y": 255,
      "size": 1,
      "price": "4683000000000000000000",
      "reserved": "",
      "salt": "0xac558be450ae6997df46c50eb2b21d7b2eea2dccdb13285bd4a062662b64ad98",
      "assetIds": [
        "41506478881403507969696680653240014914910929820314476107906210059990541021188"
      ]
    },
    {
      "x": 359,
      "y": 256,
      "size": 1,
      "price": "4683000000000000000000",
      "reserved": "",
      "salt": "0x3b22a420c6245437b714d2bd8eab41c49e8eef0fd91b60d2b7938160e842d7a6",
      "assetIds": [
        "41506478881403507969696680653240014914910929820314476107906210059990541021185"
      ]
    },
    {
      "x": 359,
      "y": 257,
      "size": 1,
      "price": "4683000000000000000000",
      "reserved": "",
      "salt": "0x0382dd92e996f1078f52b7d4b775e5ab3743b10e8ac4c571caf6a613e91a2404",
      "assetIds": [
        "41506478881403507969696680653240014914910929820314476107906210059990541021187"
      ]
    },
    {
      "x": 359,
      "y": 300,
      "size": 1,
      "price": "4683000000000000000000",
      "reserved": "",
      "salt": "0x3c7a2d2c9cd0f0b8f720a0e7d89a671ac8b5298fc7f6ea6138606adfbb635fc0",
      "assetIds": [
        "41506478881403507969696680653240014914910929820314476107906210059990541021189"
      ]
    },
    {
      "x": 359,
      "y": 301,
      "size": 1,
      "price": "4683000000000000000000",
      "reserved": "",
      "salt": "0x93cf3f2c1a070bd2c8faa6f3971a8062db8a334a9272b078db52cded5ff3755d",
      "assetIds": [
        "41506478881403507969696680653240014914910929820314476107906210059990541021184"
      ]
    },
    {
      "x": 359,
      "y": 302,
      "size": 1,
      "price": "4683000000000000000000",
      "reserved": "",
      "salt": "0xb0d275ca36602e60f07cd08b0fe8d1d5ea2d2b02ff91767ac166a3fd6246004f",
      "assetIds": [
        "41506478881403507969696680653240014914910929820314476107906210059990532622336"
      ]
    },
    {
      "x": 359,
      "y": 306,
      "size": 1,
      "price": "4683000000000000000000",
      "reserved": "",
      "salt": "0x90576bd4c9765577b91e45d771774b8a0f65fb1a5eee36686d4f04e22ca46977",
      "assetIds": [
        "41506478881403507969696680653240014914910929820314476107906210059990541021189"
      ]
    },
    {
      "x": 359,
      "y": 307,
      "size": 1,
      "price": "4683000000000000000000",
      "reserved": "",
      "salt": "0xb2c120e64038ec9b689e080901c4b3359a2c50011e8597e1ac17bddb67763c3f",
      "assetIds": [
        "41506478881403507969696680653240014914910929820314476107906210059990541021187"
      ]
    },
    {
      "x": 359,
      "y": 308,
      "size": 1,
      "price": "4683000000000000000000",
      "reserved": "",
      "salt": "0xd9bd9fc765a4d66c0b34692bd723b67ae0b061af43ba9eef6200618b2254e18a",
      "assetIds": [
        "41506478881403507969696680653240014914910929820314476107906210059990541021188"
      ]
    },
    {
      "x": 360,
      "y": 270,
      "size": 1,
      "price": "4683000000000000000000",
      "reserved": "",
      "salt": "0x6185519d375f18d2089ab6f317720d9508e517608700910c93ab485806fc5502",
      "assetIds": [
        "41506478881403507969696680653240014914910929820314476107906210059990541021187"
      ]
    },
    {
      "x": 360,
      "y": 271,
      "size": 1,
      "price": "4683000000000000000000",
      "reserved": "",
      "salt": "0x9671919ea7741c61310bb2b9ff8035564b2acad3260a44319b0462145e13703c",
      "assetIds": [
        "41506478881403507969696680653240014914910929820314476107906210059990541021186"
      ]
    },
    {
      "x": 360,
      "y": 272,
      "size": 1,
      "price": "4683000000000000000000",
      "reserved": "",
      "salt": "0xd572687151a9020ed6702bd7f6ad30a2eb591a0e9876d528fdf416e7fdfa9918",
      "assetIds": [
        "41506478881403507969696680653240014914910929820314476107906210059990541021185"
      ]
    },
    {
      "x": 360,
      "y": 288,
      "size": 1,
      "price": "4683000000000000000000",
      "reserved": "",
      "salt": "0x9358dee4aaec3ab9b299fedd082b12fafaf54b9f3c472f3eb5dc89139be9462d",
      "assetIds": [
        "41506478881403507969696680653240014914910929820314476107906210059990541021186"
      ]
    },
    {
      "x": 360,
      "y": 289,
      "size": 1,
      "price": "4683000000000000000000",
      "reserved": "",
      "salt": "0x7ba00618819daf8b7ca015cec3eb6984537a4827b8966d8b3f582b844dbcfc89",
      "assetIds": [
        "41506478881403507969696680653240014914910929820314476107906210059990541021187"
      ]
    },
    {
      "x": 360,
      "y": 290,
      "size": 1,
      "price": "4683000000000000000000",
      "reserved": "",
      "salt": "0x9aca0e27a3a3f03bdde86132c769a5208efa0a2749bdd148f86be249d0af5837",
      "assetIds": [
        "41506478881403507969696680653240014914910929820314476107906210059990541021185"
      ]
    },
    {
      "x": 360,
      "y": 291,
      "size": 1,
      "price": "4683000000000000000000",
      "reserved": "",
      "salt": "0xdf0a7da2a07f6ad1cebe46354e45271b8d821e3b7117aa38d03f3c483099088c",
      "assetIds": [
        "41506478881403507969696680653240014914910929820314476107906210059990541021188"
      ]
    },
    {
      "x": 360,
      "y": 292,
      "size": 1,
      "price": "4683000000000000000000",
      "reserved": "",
      "salt": "0xadb0b56c0999f9f805d91bb2bfee2455806dbb28806cad0483d52f87b4690950",
      "assetIds": [
        "41506478881403507969696680653240014914910929820314476107906210059990541021187"
      ]
    },
    {
      "x": 360,
      "y": 293,
      "size": 1,
      "price": "4683000000000000000000",
      "reserved": "",
      "salt": "0xc3cff851946b9dabbddaeac285bacba74dd42b2aea9b9129dac0ba97ff6012bc",
      "assetIds": [
        "41506478881403507969696680653240014914910929820314476107906210059990541021186"
      ]
    },
    {
      "x": 360,
      "y": 297,
      "size": 1,
      "price": "4683000000000000000000",
      "reserved": "",
      "salt": "0xb20097564db1a41dde4164a20f80cb3a9051f707dccd36ed8b0b6c4cc688d43d",
      "assetIds": [
        "41506478881403507969696680653240014914910929820314476107906210059990541021188"
      ]
    },
    {
      "x": 360,
      "y": 298,
      "size": 1,
      "price": "4683000000000000000000",
      "reserved": "",
      "salt": "0x5bc5332e429eff1097485e6ad1f49da50482a30bb5caaa08a6666836a4b33423",
      "assetIds": [
        "41506478881403507969696680653240014914910929820314476107906210059990541021188"
      ]
    },
    {
      "x": 360,
      "y": 299,
      "size": 1,
      "price": "4683000000000000000000",
      "reserved": "",
      "salt": "0x4733054860cfd0ea73387b06b6c48d2c20c0f1036bdda866b3ecc9bec9391e61",
      "assetIds": [
        "41506478881403507969696680653240014914910929820314476107906210059990532622336"
      ]
    },
    {
      "x": 360,
      "y": 300,
      "size": 1,
      "price": "4683000000000000000000",
      "reserved": "",
      "salt": "0x2b7533b4ebf7c7dc80b58342b635685ee4d63b0f962c466779663a949f02cf8b",
      "assetIds": [
        "41506478881403507969696680653240014914910929820314476107906210059990541021187"
      ]
    },
    {
      "x": 360,
      "y": 301,
      "size": 1,
      "price": "4683000000000000000000",
      "reserved": "",
      "salt": "0x5a845b790e82cec1a44bb4baa75bbf2a7a8887d5149dda320c8d1947ce754d98",
      "assetIds": [
        "41506478881403507969696680653240014914910929820314476107906210059990541021188"
      ]
    },
    {
      "x": 360,
      "y": 302,
      "size": 1,
      "price": "4683000000000000000000",
      "reserved": "",
      "salt": "0x9814c96f35affd450aa15becd8a84471ad6023246d2e819501a77be8c7edfe74",
      "assetIds": [
        "41506478881403507969696680653240014914910929820314476107906210059990541021185"
      ]
    },
    {
      "x": 360,
      "y": 303,
      "size": 1,
      "price": "4683000000000000000000",
      "reserved": "",
      "salt": "0x4dd871662831d0aab1d6675a251cf938e9158fa970f51daa8247c88ae9e1d3e5",
      "assetIds": [
        "41506478881403507969696680653240014914910929820314476107906210059990541021188"
      ]
    },
    {
      "x": 360,
      "y": 304,
      "size": 1,
      "price": "4683000000000000000000",
      "reserved": "",
      "salt": "0x3a8bfdc9fe37c39b0c4155d897af525bfa07e8e438f4630d9d8ec1dec8566fc4",
      "assetIds": [
        "41506478881403507969696680653240014914910929820314476107906210059990541021185"
      ]
    },
    {
      "x": 360,
      "y": 305,
      "size": 1,
      "price": "4683000000000000000000",
      "reserved": "",
      "salt": "0xa628835b0946488d50f2cbcf2d76007ac7a3e920bbe344329b1c7da5d9827e72",
      "assetIds": [
        "41506478881403507969696680653240014914910929820314476107906210059990541021189"
      ]
    },
    {
      "x": 360,
      "y": 306,
      "size": 1,
      "price": "4683000000000000000000",
      "reserved": "",
      "salt": "0xf134f8924d5d78d4d426bf8a791ab4469b2c2c1da2c84a27f670259c72bebec1",
      "assetIds": [
        "41506478881403507969696680653240014914910929820314476107906210059990541021188"
      ]
    },
    {
      "x": 360,
      "y": 307,
      "size": 1,
      "price": "4683000000000000000000",
      "reserved": "",
      "salt": "0xb03c48d39c26d3f8de0e5cce123c14aec183983fcdaefdd59bd8e0fe96fb50bb",
      "assetIds": [
        "41506478881403507969696680653240014914910929820314476107906210059990541021187"
      ]
    },
    {
      "x": 360,
      "y": 308,
      "size": 1,
      "price": "4683000000000000000000",
      "reserved": "",
      "salt": "0xe69fd4e71fb9b8099f92db50b3f2ef06534ed7a245bed5eed9540804a788cd85",
      "assetIds": [
        "41506478881403507969696680653240014914910929820314476107906210059990532622336"
      ]
    },
    {
      "x": 361,
      "y": 270,
      "size": 1,
      "price": "4683000000000000000000",
      "reserved": "",
      "salt": "0x7deb841c1e96c4673266a84d24ae261654226bd103922a925eb96dfeb062c01c",
      "assetIds": [
        "41506478881403507969696680653240014914910929820314476107906210059990541021187"
      ]
    },
    {
      "x": 361,
      "y": 271,
      "size": 1,
      "price": "4683000000000000000000",
      "reserved": "",
      "salt": "0x3db436989a023a25d27f2d600327310109dffa630523a7c26aa6b22748b06a46",
      "assetIds": [
        "41506478881403507969696680653240014914910929820314476107906210059990541021185"
      ]
    },
    {
      "x": 361,
      "y": 272,
      "size": 1,
      "price": "4683000000000000000000",
      "reserved": "",
      "salt": "0x9e233cca8968912ada025abb54854d246ffd2d92e54abe854fae2d4a5ed09f2f",
      "assetIds": [
        "41506478881403507969696680653240014914910929820314476107906210059990541021184"
      ]
    },
    {
      "x": 361,
      "y": 288,
      "size": 1,
      "price": "4683000000000000000000",
      "reserved": "",
      "salt": "0x018721a5ae3bc5491cd9790b24d537a6c288d2e4fb0ddbb2f244bae48bb912a9",
      "assetIds": [
        "41506478881403507969696680653240014914910929820314476107906210059990541021187"
      ]
    },
    {
      "x": 361,
      "y": 289,
      "size": 1,
      "price": "4683000000000000000000",
      "reserved": "",
      "salt": "0x9c0aa3f741377cf301955d3d83e126f49785337177b90f1d1a485cd5efc9a32f",
      "assetIds": [
        "41506478881403507969696680653240014914910929820314476107906210059990541021188"
      ]
    },
    {
      "x": 361,
      "y": 290,
      "size": 1,
      "price": "4683000000000000000000",
      "reserved": "",
      "salt": "0xf7f49f7b3dbb2b6ebfb868731874f8ff7385d3f50fc141896e3d5163f8dfe886",
      "assetIds": [
        "41506478881403507969696680653240014914910929820314476107906210059990541021187"
      ]
    },
    {
      "x": 361,
      "y": 291,
      "size": 1,
      "price": "4683000000000000000000",
      "reserved": "",
      "salt": "0xcead8d0bdb1ffb2c0faa96bd68c105a7329d14278816f60c3f3d9a9d94424f00",
      "assetIds": [
        "41506478881403507969696680653240014914910929820314476107906210059990541021189"
      ]
    },
    {
      "x": 361,
      "y": 292,
      "size": 1,
      "price": "4683000000000000000000",
      "reserved": "",
      "salt": "0x9869f6c6fe2e54f9fe7baee757fcae633c56f6ac48255b38399654645198baa2",
      "assetIds": [
        "41506478881403507969696680653240014914910929820314476107906210059990541021184"
      ]
    },
    {
      "x": 361,
      "y": 293,
      "size": 1,
      "price": "4683000000000000000000",
      "reserved": "",
      "salt": "0xd462fc600a0394e220ea39da1477bac5fca94190ef5af6a8f4eeafda323eac61",
      "assetIds": [
        "41506478881403507969696680653240014914910929820314476107906210059990541021189"
      ]
    },
    {
      "x": 361,
      "y": 297,
      "size": 1,
      "price": "4683000000000000000000",
      "reserved": "",
      "salt": "0x9270355b49d6295b6dff7f46202d194b6263a41626af3b9215dfc1f6cb66e46e",
      "assetIds": [
        "41506478881403507969696680653240014914910929820314476107906210059990541021185"
      ]
    },
    {
      "x": 361,
      "y": 298,
      "size": 1,
      "price": "4683000000000000000000",
      "reserved": "",
      "salt": "0x2a64e36d0b92fe3ff7d31907dc6a260bd7af8c2725035c28b69302341573b573",
      "assetIds": [
        "41506478881403507969696680653240014914910929820314476107906210059990541021188"
      ]
    },
    {
      "x": 361,
      "y": 299,
      "size": 1,
      "price": "4683000000000000000000",
      "reserved": "",
      "salt": "0x585325da3e2eff2a80899a3a40b2743fefb8403de629cb7b6552041f038257f0",
      "assetIds": [
        "41506478881403507969696680653240014914910929820314476107906210059990541021187"
      ]
    },
    {
      "x": 361,
      "y": 300,
      "size": 1,
      "price": "4683000000000000000000",
      "reserved": "",
      "salt": "0xae3b2e8d6100ccdab73b8ad277502d542af5d1f063c90651e96cc712d88e5074",
      "assetIds": [
        "41506478881403507969696680653240014914910929820314476107906210059990541021188"
      ]
    },
    {
      "x": 361,
      "y": 301,
      "size": 1,
      "price": "4683000000000000000000",
      "reserved": "",
      "salt": "0x331591fa65a176319e67b429f2a0e3536cf7f65268025903c5fc15ac49b75894",
      "assetIds": [
        "41506478881403507969696680653240014914910929820314476107906210059990532622336"
      ]
    },
    {
      "x": 361,
      "y": 302,
      "size": 1,
      "price": "4683000000000000000000",
      "reserved": "",
      "salt": "0x7a8e22af4d73a2b4e7e547b3cd318fd374f6417fbc34b891ae34f1ec41fe0c94",
      "assetIds": [
        "41506478881403507969696680653240014914910929820314476107906210059990541021187"
      ]
    },
    {
      "x": 361,
      "y": 303,
      "size": 1,
      "price": "4683000000000000000000",
      "reserved": "",
      "salt": "0xd02d1d549eb42a3a3c2e584f7427d75b028e56aeaf56257afab6b1178a76f0a2",
      "assetIds": [
        "41506478881403507969696680653240014914910929820314476107906210059990541021187"
      ]
    },
    {
      "x": 361,
      "y": 304,
      "size": 1,
      "price": "4683000000000000000000",
      "reserved": "",
      "salt": "0xd74e5ee866490501a6ec6371312714755fd79d3726cf9dff322c15c395aa742c",
      "assetIds": [
        "41506478881403507969696680653240014914910929820314476107906210059990541021189"
      ]
    },
    {
      "x": 361,
      "y": 305,
      "size": 1,
      "price": "4683000000000000000000",
      "reserved": "",
      "salt": "0x8d8d5265765f047ca20598228c6de59714f04fcca74cdb12f398c62c81799337",
      "assetIds": [
        "41506478881403507969696680653240014914910929820314476107906210059990532622336"
      ]
    },
    {
      "x": 361,
      "y": 306,
      "size": 1,
      "price": "4683000000000000000000",
      "reserved": "",
      "salt": "0x1ec3c596562ecb04e1e730e13aa394f913f7f66c682bacbd47d4ea0c983263d5",
      "assetIds": [
        "41506478881403507969696680653240014914910929820314476107906210059990541021187"
      ]
    },
    {
      "x": 361,
      "y": 307,
      "size": 1,
      "price": "4683000000000000000000",
      "reserved": "",
      "salt": "0xa38ffa63232f5855d7ad5a40a8e29c80a341e84a5e44dacf61905f76b4df9ac3",
      "assetIds": [
        "41506478881403507969696680653240014914910929820314476107906210059990532622336"
      ]
    },
    {
      "x": 361,
      "y": 308,
      "size": 1,
      "price": "4683000000000000000000",
      "reserved": "",
      "salt": "0xd63620dae66ec3dfe0102d4b4b43c16cb59389c0f0d31d92dc92c51e4a89e5bc",
      "assetIds": [
        "41506478881403507969696680653240014914910929820314476107906210059990541021188"
      ]
    },
    {
      "x": 362,
      "y": 270,
      "size": 1,
      "price": "4683000000000000000000",
      "reserved": "",
      "salt": "0xee976b68749969233478deaaa2f3ee7bd27d8c633a1f946e685e3997ae5b7f7b",
      "assetIds": [
        "41506478881403507969696680653240014914910929820314476107906210059990541021187"
      ]
    },
    {
      "x": 362,
      "y": 271,
      "size": 1,
      "price": "4683000000000000000000",
      "reserved": "",
      "salt": "0xdf60af294e0d671b374d5d967db58100df5ad06ecabdd752e5d41ebbbe055c58",
      "assetIds": [
        "41506478881403507969696680653240014914910929820314476107906210059990541021187"
      ]
    },
    {
      "x": 362,
      "y": 272,
      "size": 1,
      "price": "4683000000000000000000",
      "reserved": "",
      "salt": "0x2e1fdc3dbccdb256162db2fe742765a0bc267cd1e06741cf106ad83015131054",
      "assetIds": [
        "41506478881403507969696680653240014914910929820314476107906210059990541021187"
      ]
    },
    {
      "x": 362,
      "y": 288,
      "size": 1,
      "price": "4683000000000000000000",
      "reserved": "",
      "salt": "0x011428815e02a1f89bceb6c81858b28884d16705c30413a8cb9a4d8a3b5c793a",
      "assetIds": [
        "41506478881403507969696680653240014914910929820314476107906210059990541021187"
      ]
    },
    {
      "x": 362,
      "y": 289,
      "size": 1,
      "price": "4683000000000000000000",
      "reserved": "",
      "salt": "0xcfdf90449da7e04e4c858208b696923795c09631c637de74481a21b4a3635f62",
      "assetIds": [
        "41506478881403507969696680653240014914910929820314476107906210059990541021187"
      ]
    },
    {
      "x": 362,
      "y": 290,
      "size": 1,
      "price": "4683000000000000000000",
      "reserved": "",
      "salt": "0x2b8a37198d94f5b61e4094990f67e3cd44b75d4cc11c534cfe46b59ab63d7e78",
      "assetIds": [
        "41506478881403507969696680653240014914910929820314476107906210059990541021188"
      ]
    },
    {
      "x": 362,
      "y": 291,
      "size": 1,
      "price": "4683000000000000000000",
      "reserved": "",
      "salt": "0x94914c56da3ca313aa7640d82641f68eca5210fb216ed2a5af42eeb3a7fd2f87",
      "assetIds": [
        "41506478881403507969696680653240014914910929820314476107906210059990541021189"
      ]
    },
    {
      "x": 362,
      "y": 292,
      "size": 1,
      "price": "4683000000000000000000",
      "reserved": "",
      "salt": "0x3ff47f09d4de5a3d3b6b956f8ee98f7c7c0cb2d7016ca7226196e8e385becef6",
      "assetIds": [
        "41506478881403507969696680653240014914910929820314476107906210059990541021189"
      ]
    },
    {
      "x": 362,
      "y": 293,
      "size": 1,
      "price": "4683000000000000000000",
      "reserved": "",
      "salt": "0xa65016b5bc7d4aa54d18624eeaa5d363478357aa1622a041076900ee60ee16d0",
      "assetIds": [
        "41506478881403507969696680653240014914910929820314476107906210059990541021188"
      ]
    },
    {
      "x": 362,
      "y": 297,
      "size": 1,
      "price": "4683000000000000000000",
      "reserved": "",
      "salt": "0x185c9c60ba2065feac0695306b4d731a675b92be5e657502eeb16a9c7c8710a5",
      "assetIds": [
        "41506478881403507969696680653240014914910929820314476107906210059990541021188"
      ]
    },
    {
      "x": 362,
      "y": 298,
      "size": 1,
      "price": "4683000000000000000000",
      "reserved": "",
      "salt": "0xc79728d95113d24f26fdc47c8b06dd3b84758ac3ea2f3c15080e1e921c4a1358",
      "assetIds": [
        "41506478881403507969696680653240014914910929820314476107906210059990541021187"
      ]
    },
    {
      "x": 362,
      "y": 299,
      "size": 1,
      "price": "4683000000000000000000",
      "reserved": "",
      "salt": "0x2111657b515b02c20c77583c2fffba47b26e8005f2b6c573f84e9bc505f44deb",
      "assetIds": [
        "41506478881403507969696680653240014914910929820314476107906210059990541021186"
      ]
    },
    {
      "x": 362,
      "y": 300,
      "size": 1,
      "price": "4683000000000000000000",
      "reserved": "",
      "salt": "0xde9251f603ab79d502b3a9d7d714cc3554708405a862da7c1e30a7af68039b06",
      "assetIds": [
        "41506478881403507969696680653240014914910929820314476107906210059990541021189"
      ]
    },
    {
      "x": 362,
      "y": 301,
      "size": 1,
      "price": "4683000000000000000000",
      "reserved": "",
      "salt": "0x83848e02c676989d3a0a462674ac4acea6709397f448a0a7297babd8b7517453",
      "assetIds": [
        "41506478881403507969696680653240014914910929820314476107906210059990532622336"
      ]
    },
    {
      "x": 362,
      "y": 302,
      "size": 1,
      "price": "4683000000000000000000",
      "reserved": "",
      "salt": "0xd549cf029a3b8acf64c2257a464a849d6919c9c60f30ee7f8221c78d696dbad7",
      "assetIds": [
        "41506478881403507969696680653240014914910929820314476107906210059990541021187"
      ]
    },
    {
      "x": 362,
      "y": 303,
      "size": 1,
      "price": "4683000000000000000000",
      "reserved": "",
      "salt": "0x78ac82d44d9ed5290118cb604be640cab04b8dff87da51df4dbc41c699e2d348",
      "assetIds": [
        "41506478881403507969696680653240014914910929820314476107906210059990541021184"
      ]
    },
    {
      "x": 362,
      "y": 304,
      "size": 1,
      "price": "4683000000000000000000",
      "reserved": "",
      "salt": "0x13dd1d771400643234d087567d404498e714dad88dad0173508f897a7c7a461d",
      "assetIds": [
        "41506478881403507969696680653240014914910929820314476107906210059990541021185"
      ]
    },
    {
      "x": 362,
      "y": 305,
      "size": 1,
      "price": "4683000000000000000000",
      "reserved": "",
      "salt": "0xc4aa8a60caf7aceea2b13bd743ff337088683828d97446449952ae1b4c5b40f4",
      "assetIds": [
        "41506478881403507969696680653240014914910929820314476107906210059990541021187"
      ]
    },
    {
      "x": 362,
      "y": 306,
      "size": 1,
      "price": "4683000000000000000000",
      "reserved": "",
      "salt": "0x796a7a3f98c96c9a74ad7cf8fc7cc1a2bb1c438273cbe13e64132835315d6655",
      "assetIds": [
        "41506478881403507969696680653240014914910929820314476107906210059990541021188"
      ]
    },
    {
      "x": 362,
      "y": 307,
      "size": 1,
      "price": "4683000000000000000000",
      "reserved": "",
      "salt": "0x009b4bfa9d0adafd8efb2b28395bb3b86bdb32299c4151be0d715a4d509d8d37",
      "assetIds": [
        "41506478881403507969696680653240014914910929820314476107906210059990541021185"
      ]
    },
    {
      "x": 362,
      "y": 308,
      "size": 1,
      "price": "4683000000000000000000",
      "reserved": "",
      "salt": "0xf7dc70cb29be3285851d6e197e0f54818493955f7d78e36b08ef27872a51f5ce",
      "assetIds": [
        "41506478881403507969696680653240014914910929820314476107906210059990541021189"
      ]
    },
    {
      "x": 363,
      "y": 270,
      "size": 1,
      "price": "4683000000000000000000",
      "reserved": "",
      "salt": "0x78c1a516d892a5923350fa538bc357a4397e71170a158bf721c29be0df871ac3",
      "assetIds": [
        "41506478881403507969696680653240014914910929820314476107906210059990532622336"
      ]
    },
    {
      "x": 363,
      "y": 271,
      "size": 1,
      "price": "4683000000000000000000",
      "reserved": "",
      "salt": "0x97225be5434ac05ce34c677d9d640ce3aac13c827f3837ab3c66c913a239d325",
      "assetIds": [
        "41506478881403507969696680653240014914910929820314476107906210059990532622336"
      ]
    },
    {
      "x": 363,
      "y": 272,
      "size": 1,
      "price": "4683000000000000000000",
      "reserved": "",
      "salt": "0xcbe4f319ef4c1eb7a121d226b57659166f4e8414412d0ea729d749fef46f29b5",
      "assetIds": [
        "41506478881403507969696680653240014914910929820314476107906210059990541021185"
      ]
    },
    {
      "x": 363,
      "y": 273,
      "size": 1,
      "price": "4683000000000000000000",
      "reserved": "",
      "salt": "0xd144940956534bab8bf14614b5ca65063203dd71d4bd0685176af0032a4d825a",
      "assetIds": [
        "41506478881403507969696680653240014914910929820314476107906210059990541021187"
      ]
    },
    {
      "x": 363,
      "y": 274,
      "size": 1,
      "price": "4683000000000000000000",
      "reserved": "",
      "salt": "0xaf46a945d162e6ece76ff95c9faee8e3514d718fb34f1bf047b55318b8c7ec45",
      "assetIds": [
        "41506478881403507969696680653240014914910929820314476107906210059990541021187"
      ]
    },
    {
      "x": 363,
      "y": 275,
      "size": 1,
      "price": "4683000000000000000000",
      "reserved": "",
      "salt": "0x148fdd77ccb630a84751ef7915c64635848d1ba7a932aba8f1ee7dca3644a098",
      "assetIds": [
        "41506478881403507969696680653240014914910929820314476107906210059990541021187"
      ]
    },
    {
      "x": 363,
      "y": 288,
      "size": 1,
      "price": "4683000000000000000000",
      "reserved": "",
      "salt": "0x82d80dfa4acbadb69cab0d23b5be35206adede3a8d7ed2f2fc30f01b9fb11a4c",
      "assetIds": [
        "41506478881403507969696680653240014914910929820314476107906210059990541021185"
      ]
    },
    {
      "x": 363,
      "y": 289,
      "size": 1,
      "price": "1011000000000000000000",
      "reserved": "0x7a9fe22691c811ea339d9b73150e6911a5343dca",
      "salt": "0x2ea243598bb5bb1ed9dbb5c20a72de5ebb97e72f8492de36a5a005f0ab143c1b",
      "assetIds": []
    },
    {
      "x": 363,
      "y": 290,
      "size": 1,
      "price": "4683000000000000000000",
      "reserved": "",
      "salt": "0x6d38657b2f3ce98621c25fa07da9365a41017d3a7470dc3436ec08d0168d9b6d",
      "assetIds": [
        "41506478881403507969696680653240014914910929820314476107906210059990541021189"
      ]
    },
    {
      "x": 363,
      "y": 291,
      "size": 1,
      "price": "4683000000000000000000",
      "reserved": "",
      "salt": "0xcd92d723ecc04e7d34163003a2b720df0349dc5a20562946257f81541cfe4521",
      "assetIds": [
        "41506478881403507969696680653240014914910929820314476107906210059990541021188"
      ]
    },
    {
      "x": 363,
      "y": 292,
      "size": 1,
      "price": "4683000000000000000000",
      "reserved": "",
      "salt": "0x47a0a7a36170448302752c694e7a54cf324a484cf48a3e2d4987c176d00deabf",
      "assetIds": [
        "41506478881403507969696680653240014914910929820314476107906210059990541021184"
      ]
    },
    {
      "x": 363,
      "y": 293,
      "size": 1,
      "price": "4683000000000000000000",
      "reserved": "",
      "salt": "0x37f7278778967dddb5bd9b5a87c5e390783d30b796abd3cdfede1acfa564834f",
      "assetIds": [
        "41506478881403507969696680653240014914910929820314476107906210059990532622336"
      ]
    },
    {
      "x": 363,
      "y": 294,
      "size": 1,
      "price": "4683000000000000000000",
      "reserved": "",
      "salt": "0x491d8301b4e45c248fbef662c26f6a9cfa3730bbc5c06a57e9ee9e1c0bdbb8b8",
      "assetIds": [
        "41506478881403507969696680653240014914910929820314476107906210059990541021189"
      ]
    },
    {
      "x": 363,
      "y": 295,
      "size": 1,
      "price": "4683000000000000000000",
      "reserved": "",
      "salt": "0x4b6e287c4b1bead1810351be088ae932771c643dfa8896d1b39b83e9e09e8879",
      "assetIds": [
        "41506478881403507969696680653240014914910929820314476107906210059990541021189"
      ]
    },
    {
      "x": 363,
      "y": 296,
      "size": 1,
      "price": "4683000000000000000000",
      "reserved": "",
      "salt": "0xa7aec3431aaeaf485d1ce480eb09227362f5f3f7f6e2062d99d4f3cbdec23638",
      "assetIds": [
        "41506478881403507969696680653240014914910929820314476107906210059990541021188"
      ]
    },
    {
      "x": 363,
      "y": 297,
      "size": 1,
      "price": "4683000000000000000000",
      "reserved": "",
      "salt": "0x7e01e20a88fd6bcef533f7965d4bcfa09d39c4d8b6f2815e448e77e8a6d70f46",
      "assetIds": [
        "41506478881403507969696680653240014914910929820314476107906210059990532622336"
      ]
    },
    {
      "x": 363,
      "y": 298,
      "size": 1,
      "price": "4683000000000000000000",
      "reserved": "",
      "salt": "0x5e97b1e5204beb87e256e42f32982e3fd4be7e284dc5b68feba22d628aa4bed3",
      "assetIds": [
        "41506478881403507969696680653240014914910929820314476107906210059990541021187"
      ]
    },
    {
      "x": 363,
      "y": 299,
      "size": 1,
      "price": "1011000000000000000000",
      "reserved": "0x7a9fe22691c811ea339d9b73150e6911a5343dca",
      "salt": "0x454b6a435e8c2546f5a9c79ac322b88912d3cb5420f17f9f4159a2779cd691f8",
      "assetIds": []
    },
    {
      "x": 363,
      "y": 300,
      "size": 1,
      "price": "4683000000000000000000",
      "reserved": "",
      "salt": "0xa510fb048268e82697a31e91330936fbbbb0b6a6370bf3144f571c168f7512e4",
      "assetIds": [
        "41506478881403507969696680653240014914910929820314476107906210059990541021186"
      ]
    },
    {
      "x": 363,
      "y": 301,
      "size": 1,
      "price": "4683000000000000000000",
      "reserved": "",
      "salt": "0x9bae59213c8ec61d5d35d66c6d82c3af973972790ee097e6c988e987545b6d6a",
      "assetIds": [
        "41506478881403507969696680653240014914910929820314476107906210059990541021187"
      ]
    },
    {
      "x": 363,
      "y": 302,
      "size": 1,
      "price": "4683000000000000000000",
      "reserved": "",
      "salt": "0x1977408b21b38630c4154cd57e23a083856977cb9644bf4b762fa961766426af",
      "assetIds": [
        "41506478881403507969696680653240014914910929820314476107906210059990541021188"
      ]
    },
    {
      "x": 363,
      "y": 303,
      "size": 1,
      "price": "4683000000000000000000",
      "reserved": "",
      "salt": "0xe06e8676f106486aa4922e9afb7c8ef5a1b99618ba04642856cb74635f1e5b61",
      "assetIds": [
        "41506478881403507969696680653240014914910929820314476107906210059990532622336"
      ]
    },
    {
      "x": 363,
      "y": 304,
      "size": 1,
      "price": "1011000000000000000000",
      "reserved": "0x7a9fe22691c811ea339d9b73150e6911a5343dca",
      "salt": "0xa0af8a9104f524aba58d8f79a2e9cea6a56366605b731ba64d4c38370c8d8fad",
      "assetIds": []
    },
    {
      "x": 363,
      "y": 305,
      "size": 1,
      "price": "4683000000000000000000",
      "reserved": "",
      "salt": "0x203712357f31a9d1d39ba82884ebfc3df8166f8dca1de2d3e21ec621d02e9ae0",
      "assetIds": [
        "41506478881403507969696680653240014914910929820314476107906210059990541021186"
      ]
    },
    {
      "x": 363,
      "y": 306,
      "size": 1,
      "price": "4683000000000000000000",
      "reserved": "",
      "salt": "0x318919859836602ef65362cce3d5ebeb68bc3c78d0b8fca8611d59611001a9c5",
      "assetIds": [
        "41506478881403507969696680653240014914910929820314476107906210059990541021186"
      ]
    },
    {
      "x": 363,
      "y": 307,
      "size": 1,
      "price": "4683000000000000000000",
      "reserved": "",
      "salt": "0x612447bafdc9276e507504970f3567e39b491f8335db3b7dce1254728bdd95d7",
      "assetIds": [
        "41506478881403507969696680653240014914910929820314476107906210059990541021186"
      ]
    },
    {
      "x": 363,
      "y": 308,
      "size": 1,
      "price": "4683000000000000000000",
      "reserved": "",
      "salt": "0x0bd564680fa8a3adf4cc31f85611aeb19e81aa649dd372bbd2c4ca6186c7d892",
      "assetIds": [
        "41506478881403507969696680653240014914910929820314476107906210059990541021185"
      ]
    },
    {
      "x": 364,
      "y": 270,
      "size": 1,
      "price": "4683000000000000000000",
      "reserved": "",
      "salt": "0x364eb22d8cc05a94d2bc7348e757bb4799674cd236c24f6f2ed2915a6ec277c5",
      "assetIds": [
        "41506478881403507969696680653240014914910929820314476107906210059990541021184"
      ]
    },
    {
      "x": 364,
      "y": 271,
      "size": 1,
      "price": "4683000000000000000000",
      "reserved": "",
      "salt": "0x8f8fa15efe0bc6edb04d5e7e78774fe033a20c9e1afaf22d8246e410f1ae4de3",
      "assetIds": [
        "41506478881403507969696680653240014914910929820314476107906210059990541021189"
      ]
    },
    {
      "x": 364,
      "y": 272,
      "size": 1,
      "price": "4683000000000000000000",
      "reserved": "",
      "salt": "0x4d46cf5217cf96b5f8634ac08e8990e8dcf812657e4658c297ac6bac1c3a4f6a",
      "assetIds": [
        "41506478881403507969696680653240014914910929820314476107906210059990541021187"
      ]
    },
    {
      "x": 364,
      "y": 273,
      "size": 1,
      "price": "4683000000000000000000",
      "reserved": "",
      "salt": "0x1f26d102f07389f2c8473a7b52f357ba07af9e375e83002abb90d8420bb7420e",
      "assetIds": [
        "41506478881403507969696680653240014914910929820314476107906210059990541021187"
      ]
    },
    {
      "x": 364,
      "y": 274,
      "size": 1,
      "price": "4683000000000000000000",
      "reserved": "",
      "salt": "0xd4300187943e103c693f533d8d31cb8dafb66ddc02ca53ef06e5b436887f4634",
      "assetIds": [
        "41506478881403507969696680653240014914910929820314476107906210059990541021189"
      ]
    },
    {
      "x": 364,
      "y": 275,
      "size": 1,
      "price": "4683000000000000000000",
      "reserved": "",
      "salt": "0x26aff151c5ab2f775123238bc63032ae62a76afa0b3ce29c9d67b14b5da7606d",
      "assetIds": [
        "41506478881403507969696680653240014914910929820314476107906210059990541021185"
      ]
    },
    {
      "x": 364,
      "y": 288,
      "size": 1,
      "price": "4683000000000000000000",
      "reserved": "",
      "salt": "0xd48ee0633fb0a0099f34da049f320552dfb95bbb1f9d5ed6fa35f7d2c6933ed1",
      "assetIds": [
        "41506478881403507969696680653240014914910929820314476107906210059990541021185"
      ]
    },
    {
      "x": 364,
      "y": 289,
      "size": 1,
      "price": "4683000000000000000000",
      "reserved": "",
      "salt": "0x62074a7541aaf4f746b99ad2b78e49653a7d4fac8197f08c966d767d605701da",
      "assetIds": [
        "41506478881403507969696680653240014914910929820314476107906210059990541021187"
      ]
    },
    {
      "x": 364,
      "y": 290,
      "size": 1,
      "price": "4683000000000000000000",
      "reserved": "",
      "salt": "0x9785a24ba38870cfaccbe6eea9ace38abc97f236936f18d45d5afe410426658d",
      "assetIds": [
        "41506478881403507969696680653240014914910929820314476107906210059990541021187"
      ]
    },
    {
      "x": 364,
      "y": 291,
      "size": 1,
      "price": "4683000000000000000000",
      "reserved": "",
      "salt": "0x6065bcdd67ff835334f907af215edb7e92f6888a555930aee18b8ba5f76d951d",
      "assetIds": [
        "41506478881403507969696680653240014914910929820314476107906210059990541021187"
      ]
    },
    {
      "x": 364,
      "y": 292,
      "size": 1,
      "price": "4683000000000000000000",
      "reserved": "",
      "salt": "0xa53639bb7541a117e1a899b11be076ddbbe117ff3ce1384aded1a3a3ed733f08",
      "assetIds": [
        "41506478881403507969696680653240014914910929820314476107906210059990541021184"
      ]
    },
    {
      "x": 364,
      "y": 293,
      "size": 1,
      "price": "4683000000000000000000",
      "reserved": "",
      "salt": "0xafb1a6ee5dddd9f5cb7904120ff852a549577a89aa64307c0e5e252e3b7d7cd6",
      "assetIds": [
        "41506478881403507969696680653240014914910929820314476107906210059990541021186"
      ]
    },
    {
      "x": 364,
      "y": 294,
      "size": 1,
      "price": "4683000000000000000000",
      "reserved": "",
      "salt": "0xd10085551e0b81f7fe2fcf5e99ac6ab8dae1864a414fd5f5163df998dcd7ff22",
      "assetIds": [
        "41506478881403507969696680653240014914910929820314476107906210059990541021186"
      ]
    },
    {
      "x": 364,
      "y": 295,
      "size": 1,
      "price": "4683000000000000000000",
      "reserved": "",
      "salt": "0x592b16b1ae80b442922119d09e4cd4003e0f412619703536152ed530da4d108b",
      "assetIds": [
        "41506478881403507969696680653240014914910929820314476107906210059990541021186"
      ]
    },
    {
      "x": 364,
      "y": 296,
      "size": 1,
      "price": "4683000000000000000000",
      "reserved": "",
      "salt": "0x3b82edd6f3c83c3bbee46f257d338e12ad3df1d93f69ef4f2af117c7c8c9dabb",
      "assetIds": [
        "41506478881403507969696680653240014914910929820314476107906210059990541021188"
      ]
    },
    {
      "x": 364,
      "y": 297,
      "size": 1,
      "price": "4683000000000000000000",
      "reserved": "",
      "salt": "0xeb8aa8a6c08f5ee95c35046b7c2ea8f8367a7bcac56f53429845141a7eba88b8",
      "assetIds": [
        "41506478881403507969696680653240014914910929820314476107906210059990541021189"
      ]
    },
    {
      "x": 364,
      "y": 298,
      "size": 1,
      "price": "4683000000000000000000",
      "reserved": "",
      "salt": "0x35e658a8b8b92e7d8c7a49971da60254c46cbede1919c90d07143276df062166",
      "assetIds": [
        "41506478881403507969696680653240014914910929820314476107906210059990541021188"
      ]
    },
    {
      "x": 364,
      "y": 299,
      "size": 1,
      "price": "4683000000000000000000",
      "reserved": "",
      "salt": "0x8819957d11e20bb5c02b30fadb074d020d33aeb6517eea1b9f8b7c9cc008af01",
      "assetIds": [
        "41506478881403507969696680653240014914910929820314476107906210059990541021187"
      ]
    },
    {
      "x": 364,
      "y": 300,
      "size": 1,
      "price": "4683000000000000000000",
      "reserved": "",
      "salt": "0x7baa79a8ed293f1639269c72a92f55718c9d2fec9ab7a920c0efcc6e9302aa95",
      "assetIds": [
        "41506478881403507969696680653240014914910929820314476107906210059990541021185"
      ]
    },
    {
      "x": 364,
      "y": 301,
      "size": 1,
      "price": "4683000000000000000000",
      "reserved": "",
      "salt": "0x03be7cf89cf4a56483bb50e00b39e7f6c6bf3ae121c93fba57d6425bcef015a3",
      "assetIds": [
        "41506478881403507969696680653240014914910929820314476107906210059990541021187"
      ]
    },
    {
      "x": 364,
      "y": 302,
      "size": 1,
      "price": "4683000000000000000000",
      "reserved": "",
      "salt": "0xa71cf466bd8985889f1dd6930d9ac1fbd9486a4193eaec3bc983fe3d19b9b15c",
      "assetIds": [
        "41506478881403507969696680653240014914910929820314476107906210059990532622336"
      ]
    },
    {
      "x": 364,
      "y": 303,
      "size": 1,
      "price": "4683000000000000000000",
      "reserved": "",
      "salt": "0xaa41e825ddd28ba03d1453b6532068ccb8fb8d3b5a4845472737a3918f352c3a",
      "assetIds": [
        "41506478881403507969696680653240014914910929820314476107906210059990541021189"
      ]
    },
    {
      "x": 364,
      "y": 304,
      "size": 1,
      "price": "4683000000000000000000",
      "reserved": "",
      "salt": "0x25b8f2f6d4c03982ee5188a3b96f0b9b43fa2f2ba29f4ae2d18ce2a19148d1df",
      "assetIds": [
        "41506478881403507969696680653240014914910929820314476107906210059990541021188"
      ]
    },
    {
      "x": 364,
      "y": 305,
      "size": 1,
      "price": "4683000000000000000000",
      "reserved": "",
      "salt": "0x3ebaa39d81649811473ad7346a0f88815f04d09b37e9497b02e8cef12ae17859",
      "assetIds": [
        "41506478881403507969696680653240014914910929820314476107906210059990541021187"
      ]
    },
    {
      "x": 364,
      "y": 306,
      "size": 1,
      "price": "4683000000000000000000",
      "reserved": "",
      "salt": "0x4f28960e8c3b5c9e3cbfe33a33e7de8f4c82e8a3624f3ae82ba6f56935b3fabc",
      "assetIds": [
        "41506478881403507969696680653240014914910929820314476107906210059990541021187"
      ]
    },
    {
      "x": 364,
      "y": 307,
      "size": 1,
      "price": "1011000000000000000000",
      "reserved": "0x7a9fe22691c811ea339d9b73150e6911a5343dca",
      "salt": "0x5a62e9d04673acff4f02f3574df73c1b8fd35c1baec44f01a879a0b0c7278b71",
      "assetIds": []
    },
    {
      "x": 364,
      "y": 308,
      "size": 1,
      "price": "4683000000000000000000",
      "reserved": "",
      "salt": "0xe211801914b027bdd49b442b033ba7c081217a7cac24ce280d5ea0abaef44bd0",
      "assetIds": [
        "41506478881403507969696680653240014914910929820314476107906210059990541021188"
      ]
    },
    {
      "x": 365,
      "y": 270,
      "size": 1,
      "price": "4683000000000000000000",
      "reserved": "",
      "salt": "0x8c77a9bfdf738941f4fd97799744fda66ecc6479318ce753d2c688abfde4c9a5",
      "assetIds": [
        "41506478881403507969696680653240014914910929820314476107906210059990541021189"
      ]
    },
    {
      "x": 365,
      "y": 271,
      "size": 1,
      "price": "4683000000000000000000",
      "reserved": "",
      "salt": "0x20395abb03ed7e600681dc6628dacdc724e1f353d163db5ca5507468462bff17",
      "assetIds": [
        "41506478881403507969696680653240014914910929820314476107906210059990541021188"
      ]
    },
    {
      "x": 365,
      "y": 272,
      "size": 1,
      "price": "4683000000000000000000",
      "reserved": "",
      "salt": "0x1295a62d9cb78670656465980feeb68d659e05729f2d8adb93c3f07eb44c3ad4",
      "assetIds": [
        "41506478881403507969696680653240014914910929820314476107906210059990541021188"
      ]
    },
    {
      "x": 365,
      "y": 273,
      "size": 1,
      "price": "4683000000000000000000",
      "reserved": "",
      "salt": "0x7fed2239d3268a3aeefb97114fa0ecf0a4d7581c17d01c7a571741d6abc3799f",
      "assetIds": [
        "41506478881403507969696680653240014914910929820314476107906210059990541021189"
      ]
    },
    {
      "x": 365,
      "y": 274,
      "size": 1,
      "price": "4683000000000000000000",
      "reserved": "",
      "salt": "0xa9769fc6fb5104b011babdd6962e45afeaa45aeacfe8f3b1b8a06d96644665ea",
      "assetIds": [
        "41506478881403507969696680653240014914910929820314476107906210059990541021187"
      ]
    },
    {
      "x": 365,
      "y": 275,
      "size": 1,
      "price": "4683000000000000000000",
      "reserved": "",
      "salt": "0xb8e6b286e589e2f4c50e8cd21d16ed9ef2a075d072393b9a2dc13b9260eb1a99",
      "assetIds": [
        "41506478881403507969696680653240014914910929820314476107906210059990541021189"
      ]
    },
    {
      "x": 365,
      "y": 288,
      "size": 1,
      "price": "4683000000000000000000",
      "reserved": "",
      "salt": "0x572e722f19c7d4c0bb5e5210946154fadcd9c3dccde251a907b686786cc83290",
      "assetIds": [
        "41506478881403507969696680653240014914910929820314476107906210059990541021188"
      ]
    },
    {
      "x": 365,
      "y": 289,
      "size": 1,
      "price": "4683000000000000000000",
      "reserved": "",
      "salt": "0x0f9397dd9333ea05450d1906ab558e9de0cfe51fe5f2a8f1e889b0b616d523f2",
      "assetIds": [
        "41506478881403507969696680653240014914910929820314476107906210059990541021189"
      ]
    },
    {
      "x": 365,
      "y": 290,
      "size": 1,
      "price": "4683000000000000000000",
      "reserved": "",
      "salt": "0x465862302a9d425de13d4798d45742fab728dac66d96ddab2b98b35a00ae19d6",
      "assetIds": [
        "41506478881403507969696680653240014914910929820314476107906210059990541021189"
      ]
    },
    {
      "x": 365,
      "y": 291,
      "size": 1,
      "price": "4683000000000000000000",
      "reserved": "",
      "salt": "0xd62c58d94622b2359148b23c9ca7ff409185a0b1fa9fa916064f176512610d56",
      "assetIds": [
        "41506478881403507969696680653240014914910929820314476107906210059990541021187"
      ]
    },
    {
      "x": 365,
      "y": 292,
      "size": 1,
      "price": "4683000000000000000000",
      "reserved": "",
      "salt": "0x1a59a85995280574eece1b440b656a08c1d7e9acf05cfe5bed488ec1fad6784b",
      "assetIds": [
        "41506478881403507969696680653240014914910929820314476107906210059990541021188"
      ]
    },
    {
      "x": 365,
      "y": 293,
      "size": 1,
      "price": "4683000000000000000000",
      "reserved": "",
      "salt": "0x79904670973992e1f459f3249d7eaa9b1119cac4375199b59e5833fd06abbe13",
      "assetIds": [
        "41506478881403507969696680653240014914910929820314476107906210059990541021188"
      ]
    },
    {
      "x": 365,
      "y": 294,
      "size": 1,
      "price": "4683000000000000000000",
      "reserved": "",
      "salt": "0x2b7d6b9349b4775641fae5e0ed0b25fc0c86f67264bcfc18bf0e8ff588f79f9e",
      "assetIds": [
        "41506478881403507969696680653240014914910929820314476107906210059990541021184"
      ]
    },
    {
      "x": 365,
      "y": 295,
      "size": 1,
      "price": "4683000000000000000000",
      "reserved": "",
      "salt": "0x161fc31f9931ef21be340ef38c2bb40c56b0af25093260031296cd173b036133",
      "assetIds": [
        "41506478881403507969696680653240014914910929820314476107906210059990541021189"
      ]
    },
    {
      "x": 365,
      "y": 296,
      "size": 1,
      "price": "4683000000000000000000",
      "reserved": "",
      "salt": "0x9ebe67a9817bb1cec9e69ea7edcfd13bb2b14cf02272889c453b205093949205",
      "assetIds": [
        "41506478881403507969696680653240014914910929820314476107906210059990532622336"
      ]
    },
    {
      "x": 365,
      "y": 297,
      "size": 1,
      "price": "4683000000000000000000",
      "reserved": "",
      "salt": "0x4c919f86f8146036f1ca5437cca8a09a9b9b1f3efeead187f08d3930c81474b5",
      "assetIds": [
        "41506478881403507969696680653240014914910929820314476107906210059990541021187"
      ]
    },
    {
      "x": 365,
      "y": 298,
      "size": 1,
      "price": "4683000000000000000000",
      "reserved": "",
      "salt": "0x9325e6504c17591801247477a006025e760610104eb81c41a35745e20b89fd51",
      "assetIds": [
        "41506478881403507969696680653240014914910929820314476107906210059990541021184"
      ]
    },
    {
      "x": 365,
      "y": 299,
      "size": 1,
      "price": "4683000000000000000000",
      "reserved": "",
      "salt": "0xd6b123edf6c033cdb52b8a97e2250bcc353cff8b941890d39f4f925f0acf24a9",
      "assetIds": [
        "41506478881403507969696680653240014914910929820314476107906210059990541021186"
      ]
    },
    {
      "x": 365,
      "y": 300,
      "size": 1,
      "price": "4683000000000000000000",
      "reserved": "",
      "salt": "0x418048312f231d3046e08439634ad326fe798edcaac18a4c7382d66e3d653440",
      "assetIds": [
        "41506478881403507969696680653240014914910929820314476107906210059990541021187"
      ]
    },
    {
      "x": 365,
      "y": 301,
      "size": 1,
      "price": "4683000000000000000000",
      "reserved": "",
      "salt": "0xa44daf944143157dc8ac0cff9d3537acbc52cac1b25739f1ab8730469ccad23f",
      "assetIds": [
        "41506478881403507969696680653240014914910929820314476107906210059990541021188"
      ]
    },
    {
      "x": 365,
      "y": 302,
      "size": 1,
      "price": "4683000000000000000000",
      "reserved": "",
      "salt": "0x61ea90c4b8dfdd548da662ae26b37d5756c1312d276e4ac95667128d589d8ce1",
      "assetIds": [
        "41506478881403507969696680653240014914910929820314476107906210059990541021188"
      ]
    },
    {
      "x": 365,
      "y": 303,
      "size": 1,
      "price": "4683000000000000000000",
      "reserved": "",
      "salt": "0x44535803eef1b2c1b527fa584de0df4c103d3f99ac339e504a2ab93c0929672d",
      "assetIds": [
        "41506478881403507969696680653240014914910929820314476107906210059990541021187"
      ]
    },
    {
      "x": 365,
      "y": 304,
      "size": 1,
      "price": "4683000000000000000000",
      "reserved": "",
      "salt": "0xdfe57d27a4bf87738c61c169d553fb6c4eab63eae70e6b0b355adbade78b4dfa",
      "assetIds": [
        "41506478881403507969696680653240014914910929820314476107906210059990541021189"
      ]
    },
    {
      "x": 365,
      "y": 305,
      "size": 1,
      "price": "4683000000000000000000",
      "reserved": "",
      "salt": "0x48e4b62672ab7bc8cdbccbabaf2f4836175bac17ef31f520697052418177bed8",
      "assetIds": [
        "41506478881403507969696680653240014914910929820314476107906210059990541021187"
      ]
    },
    {
      "x": 365,
      "y": 306,
      "size": 1,
      "price": "4683000000000000000000",
      "reserved": "",
      "salt": "0x10935659195ad720c56efcc8fbea21fb825fff1f58c6a5f118e89e89ded9d056",
      "assetIds": [
        "41506478881403507969696680653240014914910929820314476107906210059990541021189"
      ]
    },
    {
      "x": 365,
      "y": 307,
      "size": 1,
      "price": "4683000000000000000000",
      "reserved": "",
      "salt": "0xc7ee07c50157a2ad19423c8155aba21aaf08cd0f844b8cdce61da6e77051a33f",
      "assetIds": [
        "41506478881403507969696680653240014914910929820314476107906210059990541021187"
      ]
    },
    {
      "x": 365,
      "y": 308,
      "size": 1,
      "price": "4683000000000000000000",
      "reserved": "",
      "salt": "0x5fb096838f535ad5bd4f7e5a3fc82401bdad3d34f0af871a4a5a887b1634bdbf",
      "assetIds": [
        "41506478881403507969696680653240014914910929820314476107906210059990541021187"
      ]
    },
    {
      "x": 366,
      "y": 231,
      "size": 1,
      "price": "4683000000000000000000",
      "reserved": "",
      "salt": "0x914af4b9905781c9de3df2afa80a73b980fc66f3270423b80ef8c4405beeb7dc",
      "assetIds": [
        "41506478881403507969696680653240014914910929820314476107906210059990541021189"
      ]
    },
    {
      "x": 366,
      "y": 232,
      "size": 1,
      "price": "4683000000000000000000",
      "reserved": "",
      "salt": "0x00960457c3de1ddf740b752d340dbfd27b7de6c6a78efc9494a5c51468064d55",
      "assetIds": [
        "41506478881403507969696680653240014914910929820314476107906210059990541021188"
      ]
    },
    {
      "x": 366,
      "y": 233,
      "size": 1,
      "price": "4683000000000000000000",
      "reserved": "",
      "salt": "0xce8f74770f4a831fb535f89690f977b3db03bcabdf61a5b1deb0c85fc1b6a4d2",
      "assetIds": [
        "41506478881403507969696680653240014914910929820314476107906210059990541021189"
      ]
    },
    {
      "x": 366,
      "y": 234,
      "size": 1,
      "price": "4683000000000000000000",
      "reserved": "",
      "salt": "0x251038a09b89c94b124b6b07b15a1ecfc01bc8c7425732c3ad5a19f8d29fb79c",
      "assetIds": [
        "41506478881403507969696680653240014914910929820314476107906210059990541021188"
      ]
    },
    {
      "x": 366,
      "y": 235,
      "size": 1,
      "price": "4683000000000000000000",
      "reserved": "",
      "salt": "0x490fdb1726b1b59ffd49758de57ca97242b0188e4cbaef064c984993ce9c5766",
      "assetIds": [
        "41506478881403507969696680653240014914910929820314476107906210059990541021187"
      ]
    },
    {
      "x": 366,
      "y": 236,
      "size": 1,
      "price": "4683000000000000000000",
      "reserved": "",
      "salt": "0xd2ee5ff8f00c7e889324fdc88ad0993a3343c376dd49a6c1e4ee25ee66d0d0f1",
      "assetIds": [
        "41506478881403507969696680653240014914910929820314476107906210059990541021187"
      ]
    },
    {
      "x": 366,
      "y": 237,
      "size": 1,
      "price": "4683000000000000000000",
      "reserved": "",
      "salt": "0xaf57c1aa1aa48aef6d8ddd44f5f0b68c40458571781b07550e7124a54f9b2154",
      "assetIds": [
        "41506478881403507969696680653240014914910929820314476107906210059990541021188"
      ]
    },
    {
      "x": 366,
      "y": 238,
      "size": 1,
      "price": "4683000000000000000000",
      "reserved": "",
      "salt": "0x5ff30c96135378ec782988a5dab9a9721929a40a2f9bfcd4a6e33b2f8c734bd0",
      "assetIds": [
        "41506478881403507969696680653240014914910929820314476107906210059990541021186"
      ]
    },
    {
      "x": 366,
      "y": 239,
      "size": 1,
      "price": "4683000000000000000000",
      "reserved": "",
      "salt": "0x8da1532e2cdfcc9f434683a2d10eab584784b3c97bbb83b0808023994a79a717",
      "assetIds": [
        "41506478881403507969696680653240014914910929820314476107906210059990532622336"
      ]
    },
    {
      "x": 366,
      "y": 264,
      "size": 1,
      "price": "4683000000000000000000",
      "reserved": "",
      "salt": "0x3f70f1539cb7f415bfedd87191beef9d0131c35ded322b86551d6713da1dde33",
      "assetIds": [
        "41506478881403507969696680653240014914910929820314476107906210059990541021188"
      ]
    },
    {
      "x": 366,
      "y": 265,
      "size": 1,
      "price": "4683000000000000000000",
      "reserved": "",
      "salt": "0x3a38aa8a8fcaa8c42e549601507bff2f74b4ea470eb0edb0abb102b478ba98c0",
      "assetIds": [
        "41506478881403507969696680653240014914910929820314476107906210059990541021188"
      ]
    },
    {
      "x": 366,
      "y": 266,
      "size": 1,
      "price": "4683000000000000000000",
      "reserved": "",
      "salt": "0x5a18dee85bd13bfcb816eb4d93b0def188b68330b7cde7a5daf0e6f85ea47503",
      "assetIds": [
        "41506478881403507969696680653240014914910929820314476107906210059990541021187"
      ]
    },
    {
      "x": 366,
      "y": 288,
      "size": 1,
      "price": "4683000000000000000000",
      "reserved": "",
      "salt": "0xd98b519b9d42ec0e9bf887303c1b26aaaf5115387f9ced8516709af204c3c8ac",
      "assetIds": [
        "41506478881403507969696680653240014914910929820314476107906210059990541021187"
      ]
    },
    {
      "x": 366,
      "y": 289,
      "size": 1,
      "price": "4683000000000000000000",
      "reserved": "",
      "salt": "0x8c6e81dc034f27a743fa1182a493257e264b2915183076fea2c5197aaad43967",
      "assetIds": [
        "41506478881403507969696680653240014914910929820314476107906210059990532622336"
      ]
    },
    {
      "x": 366,
      "y": 290,
      "size": 1,
      "price": "4683000000000000000000",
      "reserved": "",
      "salt": "0x036439557e801ac50e7d6526649c3a22b64cb1e696cf00040008b3ed4f4564ce",
      "assetIds": [
        "41506478881403507969696680653240014914910929820314476107906210059990541021185"
      ]
    },
    {
      "x": 366,
      "y": 294,
      "size": 1,
      "price": "4683000000000000000000",
      "reserved": "",
      "salt": "0xfb4dc5b8f61303dfbff8ffd7eeda6a7b1d6f9e96d15aef0e956f53c14fa9f293",
      "assetIds": [
        "41506478881403507969696680653240014914910929820314476107906210059990541021185"
      ]
    },
    {
      "x": 366,
      "y": 295,
      "size": 1,
      "price": "4683000000000000000000",
      "reserved": "",
      "salt": "0xacbfd530d57f8917cfb23ad43ab99ea585019ac867bbb0e566c828aa1d859553",
      "assetIds": [
        "41506478881403507969696680653240014914910929820314476107906210059990541021188"
      ]
    },
    {
      "x": 366,
      "y": 296,
      "size": 1,
      "price": "4683000000000000000000",
      "reserved": "",
      "salt": "0xa3182672d15183494054276501f39d3d7401c448673dd7effff3757a606504ec",
      "assetIds": [
        "41506478881403507969696680653240014914910929820314476107906210059990541021189"
      ]
    },
    {
      "x": 366,
      "y": 297,
      "size": 1,
      "price": "4683000000000000000000",
      "reserved": "",
      "salt": "0x318d45f45e62523236a001549294fffcc134a3dda8f728f5a9df9a300bee568b",
      "assetIds": [
        "41506478881403507969696680653240014914910929820314476107906210059990541021188"
      ]
    },
    {
      "x": 366,
      "y": 298,
      "size": 1,
      "price": "4683000000000000000000",
      "reserved": "",
      "salt": "0xb44fb1d98dff9607b6b2fa7ab3076af76e65f4451ef903dc8d7a97f374555524",
      "assetIds": [
        "41506478881403507969696680653240014914910929820314476107906210059990541021188"
      ]
    },
    {
      "x": 366,
      "y": 299,
      "size": 1,
      "price": "4683000000000000000000",
      "reserved": "",
      "salt": "0x4c8501839d84e7bc40cba8cae6d2036a513625802328b3965063b8b09264c1a7",
      "assetIds": [
        "41506478881403507969696680653240014914910929820314476107906210059990541021184"
      ]
    },
    {
      "x": 366,
      "y": 300,
      "size": 1,
      "price": "4683000000000000000000",
      "reserved": "",
      "salt": "0x0eda0e78453ec750c9cca0834950eb1fd0090edb1c3bc9c101a2fb9f9621b342",
      "assetIds": [
        "41506478881403507969696680653240014914910929820314476107906210059990541021187"
      ]
    },
    {
      "x": 366,
      "y": 301,
      "size": 1,
      "price": "4683000000000000000000",
      "reserved": "",
      "salt": "0x5a29ecd5598794c5d3deaf2c8ea6a4c0b5e9ce1ee82efd00e747dff179ef5d82",
      "assetIds": [
        "41506478881403507969696680653240014914910929820314476107906210059990532622336"
      ]
    },
    {
      "x": 366,
      "y": 302,
      "size": 1,
      "price": "4683000000000000000000",
      "reserved": "",
      "salt": "0x1ef0a32d7e48a85058ea37f162383fd68c0d21d6eaaad850fea67abf6b9b84fd",
      "assetIds": [
        "41506478881403507969696680653240014914910929820314476107906210059990541021188"
      ]
    },
    {
      "x": 366,
      "y": 303,
      "size": 1,
      "price": "4683000000000000000000",
      "reserved": "",
      "salt": "0xa90fa0c628602925413b59f25104701cb84021476cfab620a270140e47ce7386",
      "assetIds": [
        "41506478881403507969696680653240014914910929820314476107906210059990541021187"
      ]
    },
    {
      "x": 366,
      "y": 304,
      "size": 1,
      "price": "4683000000000000000000",
      "reserved": "",
      "salt": "0x1c8904bd5995e2da24fbeebe09acf5975567184d7248f1a500f4f5d82f964c95",
      "assetIds": [
        "41506478881403507969696680653240014914910929820314476107906210059990541021188"
      ]
    },
    {
      "x": 366,
      "y": 305,
      "size": 1,
      "price": "4683000000000000000000",
      "reserved": "",
      "salt": "0xa33b739cb4b3753b4fd45c812c9c949b42977221dcf10f0eb733bda89d0208b9",
      "assetIds": [
        "41506478881403507969696680653240014914910929820314476107906210059990541021189"
      ]
    },
    {
      "x": 366,
      "y": 306,
      "size": 1,
      "price": "4683000000000000000000",
      "reserved": "",
      "salt": "0x72e0712d6c0365ed03f803461544afedd987936e4b3cb1cf9b15d21279248f2a",
      "assetIds": [
        "41506478881403507969696680653240014914910929820314476107906210059990541021189"
      ]
    },
    {
      "x": 367,
      "y": 231,
      "size": 1,
      "price": "4683000000000000000000",
      "reserved": "",
      "salt": "0x64ad577ea981227b9208f16c5ad93f9f0f9ead6c262df7929fd160183ea6bab0",
      "assetIds": [
        "41506478881403507969696680653240014914910929820314476107906210059990541021189"
      ]
    },
    {
      "x": 367,
      "y": 232,
      "size": 1,
      "price": "4683000000000000000000",
      "reserved": "",
      "salt": "0x0a7597829c84dd4292dfaa750dafe686fefd09c416b5261b1a581d983271e155",
      "assetIds": [
        "41506478881403507969696680653240014914910929820314476107906210059990541021188"
      ]
    },
    {
      "x": 367,
      "y": 233,
      "size": 1,
      "price": "4683000000000000000000",
      "reserved": "",
      "salt": "0x1d73e6f0e41fd56cce103a4158fc25c9a499867dc84c3a5e6391011e3609715f",
      "assetIds": [
        "41506478881403507969696680653240014914910929820314476107906210059990541021189"
      ]
    },
    {
      "x": 367,
      "y": 234,
      "size": 1,
      "price": "4683000000000000000000",
      "reserved": "",
      "salt": "0x0265c12de2e50ffab84e1ebca14ce3f0e2e18569b909b62bb1793e54143823da",
      "assetIds": [
        "41506478881403507969696680653240014914910929820314476107906210059990541021187"
      ]
    },
    {
      "x": 367,
      "y": 235,
      "size": 1,
      "price": "4683000000000000000000",
      "reserved": "",
      "salt": "0x506a5b5a5087de6c0c6acc9bd445f25d031bc6255c5fd89c17466e0bc2271e23",
      "assetIds": [
        "41506478881403507969696680653240014914910929820314476107906210059990541021188"
      ]
    },
    {
      "x": 367,
      "y": 236,
      "size": 1,
      "price": "4683000000000000000000",
      "reserved": "",
      "salt": "0x5e80be566967a260f976c846f6852dad19c4dc1009d92fe0ddddf0e82e78e24b",
      "assetIds": [
        "41506478881403507969696680653240014914910929820314476107906210059990541021186"
      ]
    },
    {
      "x": 367,
      "y": 237,
      "size": 1,
      "price": "1011000000000000000000",
      "reserved": "0x7a9fe22691c811ea339d9b73150e6911a5343dca",
      "salt": "0xfe73016980f0c3c6ecfb13f8907576f679704ede465df8c0aa049ff94fd509b6",
      "assetIds": []
    },
    {
      "x": 367,
      "y": 238,
      "size": 1,
      "price": "4683000000000000000000",
      "reserved": "",
      "salt": "0x3c2c96e51c4c102e3eab6146669163c499b57c92171c4118ae02f99c6084c2e5",
      "assetIds": [
        "41506478881403507969696680653240014914910929820314476107906210059990541021186"
      ]
    },
    {
      "x": 367,
      "y": 239,
      "size": 1,
      "price": "4683000000000000000000",
      "reserved": "",
      "salt": "0x121b0c8c1a805ecc6b2c9f41e3b0c49778d14ce678102d69a73cd3ad9fabc38d",
      "assetIds": [
        "41506478881403507969696680653240014914910929820314476107906210059990541021189"
      ]
    },
    {
      "x": 367,
      "y": 264,
      "size": 1,
      "price": "4683000000000000000000",
      "reserved": "",
      "salt": "0xbcf5822d5d2d10e043df6c325e8f51b6d8e8bf782b9736631539e4308a57b3f4",
      "assetIds": [
        "41506478881403507969696680653240014914910929820314476107906210059990541021189"
      ]
    },
    {
      "x": 367,
      "y": 265,
      "size": 1,
      "price": "4683000000000000000000",
      "reserved": "",
      "salt": "0x3c868704d5f366e8570b24ec6fa5dfbf150bc7159f9a0e3823bd28b44a5cbb5a",
      "assetIds": [
        "41506478881403507969696680653240014914910929820314476107906210059990541021186"
      ]
    },
    {
      "x": 367,
      "y": 266,
      "size": 1,
      "price": "4683000000000000000000",
      "reserved": "",
      "salt": "0xdc977d6ec0ddd253a0cd5d8ecd9b011f8b19656ae0e74bb93a1828bfc7c85842",
      "assetIds": [
        "41506478881403507969696680653240014914910929820314476107906210059990541021187"
      ]
    },
    {
      "x": 367,
      "y": 288,
      "size": 1,
      "price": "4683000000000000000000",
      "reserved": "",
      "salt": "0x432fc7f380ad496891056c30d6cea91217042a5554eab03c58e488613b196384",
      "assetIds": [
        "41506478881403507969696680653240014914910929820314476107906210059990541021189"
      ]
    },
    {
      "x": 367,
      "y": 289,
      "size": 1,
      "price": "1011000000000000000000",
      "reserved": "0x7a9fe22691c811ea339d9b73150e6911a5343dca",
      "salt": "0x01d2276f77cc79137cc750c40ab363ffd2a4b1eb293bb648eb6f559f831184dd",
      "assetIds": []
    },
    {
      "x": 367,
      "y": 290,
      "size": 1,
      "price": "4683000000000000000000",
      "reserved": "",
      "salt": "0xce65dac48a2732de4d4b7973ad68c05915285185b818edb82c4fc37622e49a7d",
      "assetIds": [
        "41506478881403507969696680653240014914910929820314476107906210059990541021185"
      ]
    },
    {
      "x": 367,
      "y": 294,
      "size": 1,
      "price": "4683000000000000000000",
      "reserved": "",
      "salt": "0xf79571737ca8752aa27671d8ef97f96f89f38f1ae40243fcf565af0403604c0d",
      "assetIds": [
        "41506478881403507969696680653240014914910929820314476107906210059990541021188"
      ]
    },
    {
      "x": 367,
      "y": 295,
      "size": 1,
      "price": "4683000000000000000000",
      "reserved": "",
      "salt": "0x75533478f233843649dfc8ba10c746dd955294786f86026ef01f56e2f0c3221a",
      "assetIds": [
        "41506478881403507969696680653240014914910929820314476107906210059990541021187"
      ]
    },
    {
      "x": 367,
      "y": 296,
      "size": 1,
      "price": "4683000000000000000000",
      "reserved": "",
      "salt": "0xde4cd67e20fe4d4eae7995206c0b0456b35a5156a62f959f9da55176aec5f490",
      "assetIds": [
        "41506478881403507969696680653240014914910929820314476107906210059990541021184"
      ]
    },
    {
      "x": 367,
      "y": 297,
      "size": 1,
      "price": "4683000000000000000000",
      "reserved": "",
      "salt": "0x039107d37cb32711dd978c18022103a58896e36fb1d99ad5abc8efbe61bc53a6",
      "assetIds": [
        "41506478881403507969696680653240014914910929820314476107906210059990541021187"
      ]
    },
    {
      "x": 367,
      "y": 298,
      "size": 1,
      "price": "4683000000000000000000",
      "reserved": "",
      "salt": "0x3d1e586970e1e512f60aeff9596ce2b793e8313c1623db99cfe0b24f8f8c1765",
      "assetIds": [
        "41506478881403507969696680653240014914910929820314476107906210059990541021189"
      ]
    },
    {
      "x": 367,
      "y": 299,
      "size": 1,
      "price": "4683000000000000000000",
      "reserved": "",
      "salt": "0x6343fe33c2b299541ab5369d35c53ac8fa2127f3d9465ccad729af4e1d5c2df0",
      "assetIds": [
        "41506478881403507969696680653240014914910929820314476107906210059990541021187"
      ]
    },
    {
      "x": 367,
      "y": 300,
      "size": 1,
      "price": "4683000000000000000000",
      "reserved": "",
      "salt": "0x35e8b8618167fab4301209c22c4eaca3402e6a7c939bcd1e853f1d9bfd96b077",
      "assetIds": [
        "41506478881403507969696680653240014914910929820314476107906210059990541021188"
      ]
    },
    {
      "x": 367,
      "y": 301,
      "size": 1,
      "price": "4683000000000000000000",
      "reserved": "",
      "salt": "0x2921c775e6a916f1010f28ebd48d540d21beeed68fa0a59156c9e2b3c84e97fb",
      "assetIds": [
        "41506478881403507969696680653240014914910929820314476107906210059990541021187"
      ]
    },
    {
      "x": 367,
      "y": 302,
      "size": 1,
      "price": "4683000000000000000000",
      "reserved": "",
      "salt": "0xf197d04e39f5c243da7d3da22eb9719ae0dce19c20b2ecfab9c58e232ee833ff",
      "assetIds": [
        "41506478881403507969696680653240014914910929820314476107906210059990541021188"
      ]
    },
    {
      "x": 367,
      "y": 303,
      "size": 1,
      "price": "1011000000000000000000",
      "reserved": "0x7a9fe22691c811ea339d9b73150e6911a5343dca",
      "salt": "0x5d24e8eac1923c506d72f12168991f660d9b53d08fefa580aa12bb8eec2f3697",
      "assetIds": []
    },
    {
      "x": 367,
      "y": 304,
      "size": 1,
      "price": "4683000000000000000000",
      "reserved": "",
      "salt": "0x685da65f280c308e23a1cffce1cfd600e9ab3270ad3a4635d3b5eed86ee95229",
      "assetIds": [
        "41506478881403507969696680653240014914910929820314476107906210059990541021188"
      ]
    },
    {
      "x": 367,
      "y": 305,
      "size": 1,
      "price": "4683000000000000000000",
      "reserved": "",
      "salt": "0x0800df4146394bfb7b6606792bb2b332c22e55effa08eb92bda10afc4ec29b43",
      "assetIds": [
        "41506478881403507969696680653240014914910929820314476107906210059990541021188"
      ]
    },
    {
      "x": 367,
      "y": 306,
      "size": 1,
      "price": "4683000000000000000000",
      "reserved": "",
      "salt": "0xcbe8292f045b8ce033533a656e858b0ac54e0143ae193c11c6798cb2f27ec292",
      "assetIds": [
        "41506478881403507969696680653240014914910929820314476107906210059990541021184"
      ]
    },
    {
      "x": 368,
      "y": 231,
      "size": 1,
      "price": "4683000000000000000000",
      "reserved": "",
      "salt": "0x897a009fabddf034176d3fa2ffea9df936b49f18f9b6e3b15530245cb3393c5d",
      "assetIds": [
        "41506478881403507969696680653240014914910929820314476107906210059990541021187"
      ]
    },
    {
      "x": 368,
      "y": 232,
      "size": 1,
      "price": "4683000000000000000000",
      "reserved": "",
      "salt": "0x1f2ba6fff6ab661bef5696d642dd23204444c9d9a2d1e8c1b16ec1610b7c6d52",
      "assetIds": [
        "41506478881403507969696680653240014914910929820314476107906210059990541021186"
      ]
    },
    {
      "x": 368,
      "y": 233,
      "size": 1,
      "price": "4683000000000000000000",
      "reserved": "",
      "salt": "0x88f083a50ae200fb90b385604609b1eaae9deb8b74f3c878947596be654a7afd",
      "assetIds": [
        "41506478881403507969696680653240014914910929820314476107906210059990541021186"
      ]
    },
    {
      "x": 368,
      "y": 234,
      "size": 1,
      "price": "4683000000000000000000",
      "reserved": "",
      "salt": "0xb7ec3c5b72e873b2c2f6bab6214cc5b4dc6c55a57c42ff76a8e01240c1b7238d",
      "assetIds": [
        "41506478881403507969696680653240014914910929820314476107906210059990541021187"
      ]
    },
    {
      "x": 368,
      "y": 235,
      "size": 1,
      "price": "4683000000000000000000",
      "reserved": "",
      "salt": "0x3b02d562541b8f528c66a7fee4cae3f40be636bb23f27c0219da553dbe5855d0",
      "assetIds": [
        "41506478881403507969696680653240014914910929820314476107906210059990541021185"
      ]
    },
    {
      "x": 368,
      "y": 236,
      "size": 1,
      "price": "4683000000000000000000",
      "reserved": "",
      "salt": "0x6a6c73282d68773c34dea1fbc0615495c687d935d5c59d4749ae0d75b47e8400",
      "assetIds": [
        "41506478881403507969696680653240014914910929820314476107906210059990541021184"
      ]
    },
    {
      "x": 368,
      "y": 237,
      "size": 1,
      "price": "4683000000000000000000",
      "reserved": "",
      "salt": "0x96929a37ca5a7b70a66e0e0c14c22b96dabdb0a862a5cfd3b4bcfec06465579e",
      "assetIds": [
        "41506478881403507969696680653240014914910929820314476107906210059990541021188"
      ]
    },
    {
      "x": 368,
      "y": 238,
      "size": 1,
      "price": "4683000000000000000000",
      "reserved": "",
      "salt": "0x3313c129790b89934e8c1f546dd6cb6410edd87002f0d791e6e8db62b6dfb281",
      "assetIds": [
        "41506478881403507969696680653240014914910929820314476107906210059990541021184"
      ]
    },
    {
      "x": 368,
      "y": 239,
      "size": 1,
      "price": "4683000000000000000000",
      "reserved": "",
      "salt": "0x43619ca5ea60cebf9bb3ad08f5bd8312000ef1646539131e49b6ec044516bc75",
      "assetIds": [
        "41506478881403507969696680653240014914910929820314476107906210059990541021184"
      ]
    },
    {
      "x": 368,
      "y": 264,
      "size": 1,
      "price": "4683000000000000000000",
      "reserved": "",
      "salt": "0xa7c8b29e01c01ac55fbb98da69b872534522ca303db27423030529ead2ac0a85",
      "assetIds": [
        "41506478881403507969696680653240014914910929820314476107906210059990541021188"
      ]
    },
    {
      "x": 368,
      "y": 265,
      "size": 1,
      "price": "4683000000000000000000",
      "reserved": "",
      "salt": "0x0716a4c4bf8aa699218b8c018c40dd3d16082c77f5c946b9ac7d8f4dd02985f0",
      "assetIds": [
        "41506478881403507969696680653240014914910929820314476107906210059990541021188"
      ]
    },
    {
      "x": 368,
      "y": 266,
      "size": 1,
      "price": "4683000000000000000000",
      "reserved": "",
      "salt": "0x589dae2fe5b544762a3a02e53cab3f2bcbcbbcd3065ab9c5b1670a17ce519062",
      "assetIds": [
        "41506478881403507969696680653240014914910929820314476107906210059990541021187"
      ]
    },
    {
      "x": 368,
      "y": 288,
      "size": 1,
      "price": "4683000000000000000000",
      "reserved": "",
      "salt": "0xd52d3388849808e368d6a2fb51e5bc0d16211db1c7fb119cf35732ac4c7b08d7",
      "assetIds": [
        "41506478881403507969696680653240014914910929820314476107906210059990541021187"
      ]
    },
    {
      "x": 368,
      "y": 289,
      "size": 1,
      "price": "4683000000000000000000",
      "reserved": "",
      "salt": "0x64380ae62aff05a636d5fe8416f35946976b8c9551d4635d82976ecd3bf34d38",
      "assetIds": [
        "41506478881403507969696680653240014914910929820314476107906210059990541021184"
      ]
    },
    {
      "x": 368,
      "y": 290,
      "size": 1,
      "price": "4683000000000000000000",
      "reserved": "",
      "salt": "0x10531f5ee293b67f2e1ab1b222860196c964688886f990dfb684fdd23faa3152",
      "assetIds": [
        "41506478881403507969696680653240014914910929820314476107906210059990541021189"
      ]
    },
    {
      "x": 368,
      "y": 294,
      "size": 1,
      "price": "4683000000000000000000",
      "reserved": "",
      "salt": "0x55fa96ce4ad23c2350110f542e7094ca3d92d7eb7c48b9938798ffd58fe8caab",
      "assetIds": [
        "41506478881403507969696680653240014914910929820314476107906210059990541021185"
      ]
    },
    {
      "x": 368,
      "y": 295,
      "size": 1,
      "price": "4683000000000000000000",
      "reserved": "",
      "salt": "0x306749e6d621a95c3cf373fb9ac2457e53ceecb3add2a7a28ca30314909f2003",
      "assetIds": [
        "41506478881403507969696680653240014914910929820314476107906210059990541021187"
      ]
    },
    {
      "x": 368,
      "y": 296,
      "size": 1,
      "price": "4683000000000000000000",
      "reserved": "",
      "salt": "0xe79fe0ed7ceb5954e0506880417537ea7ed020d64737b6d298fdb400a7a8b962",
      "assetIds": [
        "41506478881403507969696680653240014914910929820314476107906210059990541021189"
      ]
    },
    {
      "x": 368,
      "y": 297,
      "size": 1,
      "price": "4683000000000000000000",
      "reserved": "",
      "salt": "0xb5e997634f2e41d729fa1510d095c1bc153bf357c5e56143f9bccd6052e469b4",
      "assetIds": [
        "41506478881403507969696680653240014914910929820314476107906210059990541021189"
      ]
    },
    {
      "x": 368,
      "y": 298,
      "size": 1,
      "price": "4683000000000000000000",
      "reserved": "",
      "salt": "0x266b3f6539b55ff422f5089bbfba8273f8f7bc9c49bbfd5b8c6eedb08bd0aecf",
      "assetIds": [
        "41506478881403507969696680653240014914910929820314476107906210059990541021188"
      ]
    },
    {
      "x": 368,
      "y": 299,
      "size": 1,
      "price": "4683000000000000000000",
      "reserved": "",
      "salt": "0x402a7ff48f62ac8650fcaa1fd8ba58722a07a9b5340ce7dfa75cd09aede15bdb",
      "assetIds": [
        "41506478881403507969696680653240014914910929820314476107906210059990541021187"
      ]
    },
    {
      "x": 368,
      "y": 300,
      "size": 1,
      "price": "4683000000000000000000",
      "reserved": "",
      "salt": "0x102e0fecadd721689a6ffb5ea8d2ed28d57e4d65a6a6818636c107df56e5277b",
      "assetIds": [
        "41506478881403507969696680653240014914910929820314476107906210059990541021184"
      ]
    },
    {
      "x": 368,
      "y": 301,
      "size": 1,
      "price": "4683000000000000000000",
      "reserved": "",
      "salt": "0x77f4fe1954ca3b652b08475b8b1ae5e42e52648ee5ad3113fcdfc748d48d3ce7",
      "assetIds": [
        "41506478881403507969696680653240014914910929820314476107906210059990541021188"
      ]
    },
    {
      "x": 368,
      "y": 302,
      "size": 1,
      "price": "4683000000000000000000",
      "reserved": "",
      "salt": "0xeb51b2239298d66c56f4b701f513a0a83c1cd818a16078d8fac294f2fc10bba4",
      "assetIds": [
        "41506478881403507969696680653240014914910929820314476107906210059990541021187"
      ]
    },
    {
      "x": 368,
      "y": 303,
      "size": 1,
      "price": "4683000000000000000000",
      "reserved": "",
      "salt": "0x5b1b8e9d3acb7cc21f47db9e73d209f90b570341cccf3ec24fb49cb02c10d782",
      "assetIds": [
        "41506478881403507969696680653240014914910929820314476107906210059990541021184"
      ]
    },
    {
      "x": 368,
      "y": 304,
      "size": 1,
      "price": "4683000000000000000000",
      "reserved": "",
      "salt": "0x3f504ae1064f7ea3d457d323db4f053a0f6bd76a18a2bb7f6b96e52bca96bb4a",
      "assetIds": [
        "41506478881403507969696680653240014914910929820314476107906210059990541021188"
      ]
    },
    {
      "x": 368,
      "y": 305,
      "size": 1,
      "price": "4683000000000000000000",
      "reserved": "",
      "salt": "0x4eca2d3a1aeda7ec235c34a93b9c6a74b4f70917ce7bd7e779e9ab10ee994ff5",
      "assetIds": [
        "41506478881403507969696680653240014914910929820314476107906210059990541021187"
      ]
    },
    {
      "x": 369,
      "y": 231,
      "size": 1,
      "price": "4683000000000000000000",
      "reserved": "",
      "salt": "0x63103a6999bab6bda599d9ab75c50909928c785ed921701948011f474ce76ef5",
      "assetIds": [
        "41506478881403507969696680653240014914910929820314476107906210059990532622336"
      ]
    },
    {
      "x": 369,
      "y": 232,
      "size": 1,
      "price": "4683000000000000000000",
      "reserved": "",
      "salt": "0xb2bcc362c3848b79773b7e676bebad2b064d19ae6f23443cac1e6e6920a32329",
      "assetIds": [
        "41506478881403507969696680653240014914910929820314476107906210059990541021188"
      ]
    },
    {
      "x": 369,
      "y": 233,
      "size": 1,
      "price": "4683000000000000000000",
      "reserved": "",
      "salt": "0xdbdf2d5d5fb2656ac85f86c31ab3c085e05a0aeafa9c9c3f25aaee697cd12e76",
      "assetIds": [
        "41506478881403507969696680653240014914910929820314476107906210059990541021188"
      ]
    },
    {
      "x": 369,
      "y": 234,
      "size": 1,
      "price": "4683000000000000000000",
      "reserved": "",
      "salt": "0xe867fa8fe785ed9b127e21f82884113a3b778f7a98fff76a821033f923c3293a",
      "assetIds": [
        "41506478881403507969696680653240014914910929820314476107906210059990541021186"
      ]
    },
    {
      "x": 369,
      "y": 235,
      "size": 1,
      "price": "4683000000000000000000",
      "reserved": "",
      "salt": "0x8ec98e5c879442a3767aa0c4837c72b7be3871b303fdb5641017efa759e4642a",
      "assetIds": [
        "41506478881403507969696680653240014914910929820314476107906210059990541021189"
      ]
    },
    {
      "x": 369,
      "y": 236,
      "size": 1,
      "price": "4683000000000000000000",
      "reserved": "",
      "salt": "0xdc863c2142eb460dabd45e34e4b0f7003ba3ba0092610bf1259505b51fd6666e",
      "assetIds": [
        "41506478881403507969696680653240014914910929820314476107906210059990541021185"
      ]
    },
    {
      "x": 369,
      "y": 237,
      "size": 1,
      "price": "4683000000000000000000",
      "reserved": "",
      "salt": "0x5ff155c3ad5e1d16a11fbbf9c93f0288e0770c18b4b7a3e9f0e8284d85a94ad3",
      "assetIds": [
        "41506478881403507969696680653240014914910929820314476107906210059990541021187"
      ]
    },
    {
      "x": 369,
      "y": 238,
      "size": 1,
      "price": "4683000000000000000000",
      "reserved": "",
      "salt": "0xe81ca46b57a64da0b70092bac359cd34a31e02730a79c970eae0fa24bfab8e95",
      "assetIds": [
        "41506478881403507969696680653240014914910929820314476107906210059990541021186"
      ]
    },
    {
      "x": 369,
      "y": 239,
      "size": 1,
      "price": "4683000000000000000000",
      "reserved": "",
      "salt": "0xb9418b2ba945786497960f224e7f3cf1017dfba3cffce9ac48f56908e1de8f0a",
      "assetIds": [
        "41506478881403507969696680653240014914910929820314476107906210059990541021187"
      ]
    },
    {
      "x": 369,
      "y": 264,
      "size": 1,
      "price": "4683000000000000000000",
      "reserved": "",
      "salt": "0x265c56ee02ca0d8bc53d39acf3cbcd6f6e82649bd304857ede10f1a3207d13bc",
      "assetIds": [
        "41506478881403507969696680653240014914910929820314476107906210059990541021187"
      ]
    },
    {
      "x": 369,
      "y": 265,
      "size": 1,
      "price": "4683000000000000000000",
      "reserved": "",
      "salt": "0x54c5d70d236a676fe95996b5c37dcd080f55afb570d47472c63ef5d1e257851c",
      "assetIds": [
        "41506478881403507969696680653240014914910929820314476107906210059990532622336"
      ]
    },
    {
      "x": 369,
      "y": 266,
      "size": 1,
      "price": "4683000000000000000000",
      "reserved": "",
      "salt": "0x21f8fc1d189be0d6138f0ec1243ce5f526d7762209c8b73d3ed5b9edbca6252f",
      "assetIds": [
        "41506478881403507969696680653240014914910929820314476107906210059990541021187"
      ]
    },
    {
      "x": 369,
      "y": 267,
      "size": 1,
      "price": "4683000000000000000000",
      "reserved": "",
      "salt": "0x78c877b66c256661ce9868bad917bc8d6ca16088fe278927fe0b31ec38f2c79f",
      "assetIds": [
        "41506478881403507969696680653240014914910929820314476107906210059990541021188"
      ]
    },
    {
      "x": 369,
      "y": 268,
      "size": 1,
      "price": "4683000000000000000000",
      "reserved": "",
      "salt": "0x012a04d38cf01c44dc4ebb665eef0ca9d771417a9e18c3e78c3937609fc431b5",
      "assetIds": [
        "41506478881403507969696680653240014914910929820314476107906210059990541021187"
      ]
    },
    {
      "x": 369,
      "y": 269,
      "size": 1,
      "price": "4683000000000000000000",
      "reserved": "",
      "salt": "0x329aed5e35546011a2054576a0647b39688b045c5a7abd64e048bd4d43f52d7a",
      "assetIds": [
        "41506478881403507969696680653240014914910929820314476107906210059990532622336"
      ]
    },
    {
      "x": 369,
      "y": 288,
      "size": 1,
      "price": "4683000000000000000000",
      "reserved": "",
      "salt": "0x785b2a654670c11fdbc110c595ffe0f674474dc416ccd99466457bc32d2ab3a5",
      "assetIds": [
        "41506478881403507969696680653240014914910929820314476107906210059990541021188"
      ]
    },
    {
      "x": 369,
      "y": 289,
      "size": 1,
      "price": "4683000000000000000000",
      "reserved": "",
      "salt": "0xeb05fe9b0a265730ceb21cea5ebb1b08eea892e0f7813f0a92346a1764245a44",
      "assetIds": [
        "41506478881403507969696680653240014914910929820314476107906210059990541021185"
      ]
    },
    {
      "x": 369,
      "y": 290,
      "size": 1,
      "price": "4683000000000000000000",
      "reserved": "",
      "salt": "0x2123dcb5ca849792ab4677ae29cede308edf7d14878fc17a10ccb62f4744098b",
      "assetIds": [
        "41506478881403507969696680653240014914910929820314476107906210059990541021189"
      ]
    },
    {
      "x": 369,
      "y": 291,
      "size": 1,
      "price": "4683000000000000000000",
      "reserved": "",
      "salt": "0xaa7aa69564bcd0dd672a29fc054318eb000181f16c7f7ce23fdaa4d82be0dc81",
      "assetIds": [
        "41506478881403507969696680653240014914910929820314476107906210059990541021188"
      ]
    },
    {
      "x": 369,
      "y": 292,
      "size": 1,
      "price": "4683000000000000000000",
      "reserved": "",
      "salt": "0xe1e7f1391be4c2cd277ac7df503945e94e3a5f18bddf2621f68eb7796c3d6e38",
      "assetIds": [
        "41506478881403507969696680653240014914910929820314476107906210059990541021188"
      ]
    },
    {
      "x": 369,
      "y": 293,
      "size": 1,
      "price": "4683000000000000000000",
      "reserved": "",
      "salt": "0x587cdcd8cbe1e6814ae913e37f099aa37f8d347b85660073ac3807648d3801f9",
      "assetIds": [
        "41506478881403507969696680653240014914910929820314476107906210059990541021187"
      ]
    },
    {
      "x": 369,
      "y": 294,
      "size": 1,
      "price": "4683000000000000000000",
      "reserved": "",
      "salt": "0x0f8606cc16c8705ccec58f62af0efc71b344d4d413c468b4d6343cdf12503772",
      "assetIds": [
        "41506478881403507969696680653240014914910929820314476107906210059990541021187"
      ]
    },
    {
      "x": 369,
      "y": 295,
      "size": 1,
      "price": "4683000000000000000000",
      "reserved": "",
      "salt": "0x2f7d9b181db3a2c1bf789a75e1964745a51e319b512d8b636d9c3dd392d75f1a",
      "assetIds": [
        "41506478881403507969696680653240014914910929820314476107906210059990541021184"
      ]
    },
    {
      "x": 369,
      "y": 296,
      "size": 1,
      "price": "4683000000000000000000",
      "reserved": "",
      "salt": "0xe7593d06296e5e0f963372141f2654e94ed37b226ca417c73cb8f0f585cf9f5e",
      "assetIds": [
        "41506478881403507969696680653240014914910929820314476107906210059990541021189"
      ]
    },
    {
      "x": 369,
      "y": 297,
      "size": 1,
      "price": "4683000000000000000000",
      "reserved": "",
      "salt": "0x4621603d15c19650c07591b161d3d950d6207d91b17d683020a944786d7e06f5",
      "assetIds": [
        "41506478881403507969696680653240014914910929820314476107906210059990541021185"
      ]
    },
    {
      "x": 369,
      "y": 298,
      "size": 1,
      "price": "4683000000000000000000",
      "reserved": "",
      "salt": "0xe8103549d873769ac929e2bcd2cb2bb006ac160e2eac309a4b499879c8aef1a9",
      "assetIds": [
        "41506478881403507969696680653240014914910929820314476107906210059990541021189"
      ]
    },
    {
      "x": 369,
      "y": 299,
      "size": 1,
      "price": "4683000000000000000000",
      "reserved": "",
      "salt": "0x785e486131c1a023d344fde1b9b5b4ec92b298c8eae21ecbc16c6d39cad9df7b",
      "assetIds": [
        "41506478881403507969696680653240014914910929820314476107906210059990541021186"
      ]
    },
    {
      "x": 369,
      "y": 300,
      "size": 1,
      "price": "4683000000000000000000",
      "reserved": "",
      "salt": "0x3cf08e68518b24a058112e74fa1b8e81ba16bb467575c98b05e5536843a5a13b",
      "assetIds": [
        "41506478881403507969696680653240014914910929820314476107906210059990541021187"
      ]
    },
    {
      "x": 369,
      "y": 301,
      "size": 1,
      "price": "4683000000000000000000",
      "reserved": "",
      "salt": "0xce3590d7982c296a8c04c62cb7d4a301e0c32e9d3f5e484db2a8aa87fd751bee",
      "assetIds": [
        "41506478881403507969696680653240014914910929820314476107906210059990541021189"
      ]
    },
    {
      "x": 369,
      "y": 302,
      "size": 1,
      "price": "4683000000000000000000",
      "reserved": "",
      "salt": "0x514933efc6bf2e7d4f384f44df53e216c539ac0d3369fad83c1ae592d3de2139",
      "assetIds": [
        "41506478881403507969696680653240014914910929820314476107906210059990541021187"
      ]
    },
    {
      "x": 369,
      "y": 303,
      "size": 1,
      "price": "4683000000000000000000",
      "reserved": "",
      "salt": "0x2501c9d3335dfce0a4794f915528488df2364e782e24da2c6fdafd58d9e3f020",
      "assetIds": [
        "41506478881403507969696680653240014914910929820314476107906210059990541021188"
      ]
    },
    {
      "x": 369,
      "y": 304,
      "size": 1,
      "price": "4683000000000000000000",
      "reserved": "",
      "salt": "0x171ecebdcb2abfa2f8e051ad0173a6c6b7afeb200548a97b039708301d6e340c",
      "assetIds": [
        "41506478881403507969696680653240014914910929820314476107906210059990532622336"
      ]
    },
    {
      "x": 369,
      "y": 305,
      "size": 1,
      "price": "4683000000000000000000",
      "reserved": "",
      "salt": "0x3695676fd98c93750859e520a79572f2203396fd8c80c2aeb9bac8d734b30daa",
      "assetIds": [
        "41506478881403507969696680653240014914910929820314476107906210059990541021188"
      ]
    },
    {
      "x": 370,
      "y": 231,
      "size": 1,
      "price": "4683000000000000000000",
      "reserved": "",
      "salt": "0x64b293156c54098eb6f7cf0909b3e295107cd7b7a4a797b653b2fe53381eb506",
      "assetIds": [
        "41506478881403507969696680653240014914910929820314476107906210059990541021187"
      ]
    },
    {
      "x": 370,
      "y": 232,
      "size": 1,
      "price": "1011000000000000000000",
      "reserved": "0x7a9fe22691c811ea339d9b73150e6911a5343dca",
      "salt": "0x3757d152e4059a84a327429c9abdc5d5f940d5d21c6abb021e820348adab46b0",
      "assetIds": []
    },
    {
      "x": 370,
      "y": 233,
      "size": 1,
      "price": "4683000000000000000000",
      "reserved": "",
      "salt": "0x1e772ec1769949fb86419b57d52fce994c677909e009da7e87c5480ef67f2991",
      "assetIds": [
        "41506478881403507969696680653240014914910929820314476107906210059990541021186"
      ]
    },
    {
      "x": 370,
      "y": 234,
      "size": 1,
      "price": "4683000000000000000000",
      "reserved": "",
      "salt": "0x02e2009a545d36b2c41a38be96733fad795cc567cce9b31cd1140c9d6b66823a",
      "assetIds": [
        "41506478881403507969696680653240014914910929820314476107906210059990541021187"
      ]
    },
    {
      "x": 370,
      "y": 235,
      "size": 1,
      "price": "4683000000000000000000",
      "reserved": "",
      "salt": "0xc472988b25f55a685cf57897193198456c8221c8c034cfaa5c92847cb065a368",
      "assetIds": [
        "41506478881403507969696680653240014914910929820314476107906210059990541021187"
      ]
    },
    {
      "x": 370,
      "y": 236,
      "size": 1,
      "price": "4683000000000000000000",
      "reserved": "",
      "salt": "0x14d71569ba0f6e68a0a6ee37f1e672c20a8ab092c3ab74fbbabe61acdbe203b2",
      "assetIds": [
        "41506478881403507969696680653240014914910929820314476107906210059990541021188"
      ]
    },
    {
      "x": 370,
      "y": 237,
      "size": 1,
      "price": "4683000000000000000000",
      "reserved": "",
      "salt": "0xf8627c7120ade9eb0ea9aad48df1ef9cbab5c6821c14b3f652a7a0f896ec1959",
      "assetIds": [
        "41506478881403507969696680653240014914910929820314476107906210059990541021188"
      ]
    },
    {
      "x": 370,
      "y": 238,
      "size": 1,
      "price": "4683000000000000000000",
      "reserved": "",
      "salt": "0xb4427ca737bba0828253378bf27435137719eddcbbb3ec56671ce493548b4127",
      "assetIds": [
        "41506478881403507969696680653240014914910929820314476107906210059990541021189"
      ]
    },
    {
      "x": 370,
      "y": 239,
      "size": 1,
      "price": "4683000000000000000000",
      "reserved": "",
      "salt": "0xa673077b650370482b22fc8f6568aa1682f261fbead73f0116a3111abd1dfb55",
      "assetIds": [
        "41506478881403507969696680653240014914910929820314476107906210059990541021187"
      ]
    },
    {
      "x": 370,
      "y": 264,
      "size": 1,
      "price": "1011000000000000000000",
      "reserved": "0x7a9fe22691c811ea339d9b73150e6911a5343dca",
      "salt": "0x8072a39bf6b345fc61ceb87b6fb1871a214c307818ba85714320d68f157b4662",
      "assetIds": []
    },
    {
      "x": 370,
      "y": 265,
      "size": 1,
      "price": "4683000000000000000000",
      "reserved": "",
      "salt": "0x0515c694335e4a8fe3dae056298bb0d6611f51b2cf44141a9f08a35f79ad53ee",
      "assetIds": [
        "41506478881403507969696680653240014914910929820314476107906210059990541021187"
      ]
    },
    {
      "x": 370,
      "y": 266,
      "size": 1,
      "price": "4683000000000000000000",
      "reserved": "",
      "salt": "0x02e2aad1609e286a3aac46ee94be393d4b145fd3ec64f8cadc1d51e6cadf317f",
      "assetIds": [
        "41506478881403507969696680653240014914910929820314476107906210059990541021184"
      ]
    },
    {
      "x": 370,
      "y": 267,
      "size": 1,
      "price": "4683000000000000000000",
      "reserved": "",
      "salt": "0xa14d3a0d9c6283fda544796f1e04b33552fc80acb95263f382c4f4f52170b1c0",
      "assetIds": [
        "41506478881403507969696680653240014914910929820314476107906210059990541021184"
      ]
    },
    {
      "x": 370,
      "y": 268,
      "size": 1,
      "price": "4683000000000000000000",
      "reserved": "",
      "salt": "0x54dba505d6204b9a836bc66e7c12051f4f7cb3082e8e1687dd00e306d853021b",
      "assetIds": [
        "41506478881403507969696680653240014914910929820314476107906210059990541021185"
      ]
    },
    {
      "x": 370,
      "y": 269,
      "size": 1,
      "price": "4683000000000000000000",
      "reserved": "",
      "salt": "0x8715c503bd9cf8e789aee6f0b2dd680523177f93b02f2e6ac48e529fc56618ed",
      "assetIds": [
        "41506478881403507969696680653240014914910929820314476107906210059990541021187"
      ]
    },
    {
      "x": 370,
      "y": 288,
      "size": 1,
      "price": "4683000000000000000000",
      "reserved": "",
      "salt": "0x413e64162b1d4529ef9c9c311794044ee6d8fe176596258d49bf6bd68cb39c47",
      "assetIds": [
        "41506478881403507969696680653240014914910929820314476107906210059990532622336"
      ]
    },
    {
      "x": 370,
      "y": 289,
      "size": 1,
      "price": "4683000000000000000000",
      "reserved": "",
      "salt": "0x00f491b5ca05f135fc2a1484ecf35431eaf931f413dc447aad0a8d292b0fc2ba",
      "assetIds": [
        "41506478881403507969696680653240014914910929820314476107906210059990541021185"
      ]
    },
    {
      "x": 370,
      "y": 290,
      "size": 1,
      "price": "4683000000000000000000",
      "reserved": "",
      "salt": "0x2bbeb01e95071c7f28211325023ea46fe06ff6d4b0e725b84071f9aba7a6f274",
      "assetIds": [
        "41506478881403507969696680653240014914910929820314476107906210059990541021188"
      ]
    },
    {
      "x": 370,
      "y": 291,
      "size": 1,
      "price": "4683000000000000000000",
      "reserved": "",
      "salt": "0xb7c5c933125ea123bd2bf7c919003cc9e1201f950a59b60cb136f678801d3a96",
      "assetIds": [
        "41506478881403507969696680653240014914910929820314476107906210059990541021188"
      ]
    },
    {
      "x": 370,
      "y": 292,
      "size": 1,
      "price": "4683000000000000000000",
      "reserved": "",
      "salt": "0xce226bceff7f3fd089048125731300312711055e73b8e9c37ab69e85d3ff1e92",
      "assetIds": [
        "41506478881403507969696680653240014914910929820314476107906210059990541021184"
      ]
    },
    {
      "x": 370,
      "y": 293,
      "size": 1,
      "price": "4683000000000000000000",
      "reserved": "",
      "salt": "0x22b652d32a05b72957630584b6381f71016c178a8ece641dd4122a8ee314a27d",
      "assetIds": [
        "41506478881403507969696680653240014914910929820314476107906210059990541021185"
      ]
    },
    {
      "x": 370,
      "y": 294,
      "size": 1,
      "price": "4683000000000000000000",
      "reserved": "",
      "salt": "0x39c0577175bd6bf5ff36e90a96c1183ce5f4878d8ee1df252aecee90a9755a2a",
      "assetIds": [
        "41506478881403507969696680653240014914910929820314476107906210059990541021188"
      ]
    },
    {
      "x": 370,
      "y": 295,
      "size": 1,
      "price": "4683000000000000000000",
      "reserved": "",
      "salt": "0xa14c015cdd13d673f2728d9b3dfa4bcfb8f721f550134cd4d7d73d78d46e9aaa",
      "assetIds": [
        "41506478881403507969696680653240014914910929820314476107906210059990541021186"
      ]
    },
    {
      "x": 370,
      "y": 296,
      "size": 1,
      "price": "4683000000000000000000",
      "reserved": "",
      "salt": "0xfd0b7b13a5fa75a023b28aa4f778530129f10928c462e1cd73005167cf0cf754",
      "assetIds": [
        "41506478881403507969696680653240014914910929820314476107906210059990541021187"
      ]
    },
    {
      "x": 370,
      "y": 297,
      "size": 1,
      "price": "4683000000000000000000",
      "reserved": "",
      "salt": "0x623d573867d4d7e43ac648a6fc24b0206beeeb79b899d2c9afafc03162abe21a",
      "assetIds": [
        "41506478881403507969696680653240014914910929820314476107906210059990541021185"
      ]
    },
    {
      "x": 370,
      "y": 298,
      "size": 1,
      "price": "4683000000000000000000",
      "reserved": "",
      "salt": "0x379b7424925d20f62f9fd142b93d122938f182512a93c6b69b01d05770d8d2da",
      "assetIds": [
        "41506478881403507969696680653240014914910929820314476107906210059990541021189"
      ]
    },
    {
      "x": 370,
      "y": 299,
      "size": 1,
      "price": "4683000000000000000000",
      "reserved": "",
      "salt": "0x130142aacf68c498cd57b4d4369ccf2c3a590aa8775784b3dec7780fba41f69a",
      "assetIds": [
        "41506478881403507969696680653240014914910929820314476107906210059990541021186"
      ]
    },
    {
      "x": 370,
      "y": 300,
      "size": 1,
      "price": "4683000000000000000000",
      "reserved": "",
      "salt": "0xaffaccc92f17083995325cd9c110121e2bf0584b9070da46b3f8bf5caa72378a",
      "assetIds": [
        "41506478881403507969696680653240014914910929820314476107906210059990541021186"
      ]
    },
    {
      "x": 370,
      "y": 301,
      "size": 1,
      "price": "4683000000000000000000",
      "reserved": "",
      "salt": "0x455b9b2d3055290f0e52ef7256a3a585c2adca7ebab96c58600999dfe2a00269",
      "assetIds": [
        "41506478881403507969696680653240014914910929820314476107906210059990541021189"
      ]
    },
    {
      "x": 370,
      "y": 302,
      "size": 1,
      "price": "4683000000000000000000",
      "reserved": "",
      "salt": "0x861fe2261da7b9b049ceaae03d70eb691e5c78795ef6a2d49ebca0748e8f9cd0",
      "assetIds": [
        "41506478881403507969696680653240014914910929820314476107906210059990541021189"
      ]
    },
    {
      "x": 370,
      "y": 303,
      "size": 1,
      "price": "4683000000000000000000",
      "reserved": "",
      "salt": "0xc3ff7fcac0912bb7030a65b92df3c6b5bef46a2a59e761f84213ca1a101df83f",
      "assetIds": [
        "41506478881403507969696680653240014914910929820314476107906210059990541021184"
      ]
    },
    {
      "x": 370,
      "y": 304,
      "size": 1,
      "price": "4683000000000000000000",
      "reserved": "",
      "salt": "0xf8d5e80daa4f9fc506d162191b1c89781df8f3f9aabf9af55e34bd96eeb902b9",
      "assetIds": [
        "41506478881403507969696680653240014914910929820314476107906210059990541021187"
      ]
    },
    {
      "x": 370,
      "y": 305,
      "size": 1,
      "price": "4683000000000000000000",
      "reserved": "",
      "salt": "0x7e9fa5f7c07d10f75df9be6615607d2fbeaaf541fbdd16610a7df6c4e71ee512",
      "assetIds": [
        "41506478881403507969696680653240014914910929820314476107906210059990541021184"
      ]
    },
    {
      "x": 371,
      "y": 231,
      "size": 1,
      "price": "4683000000000000000000",
      "reserved": "",
      "salt": "0xcaf165f8118dfc06296a1076737484071dbd586ec8cbec124b3724ac4b5ff18a",
      "assetIds": [
        "41506478881403507969696680653240014914910929820314476107906210059990541021189"
      ]
    },
    {
      "x": 371,
      "y": 232,
      "size": 1,
      "price": "4683000000000000000000",
      "reserved": "",
      "salt": "0xab2d864fc80e58ae3c5d4bc633dc0922c20b52e2145a52a206886666403e4891",
      "assetIds": [
        "41506478881403507969696680653240014914910929820314476107906210059990541021187"
      ]
    },
    {
      "x": 371,
      "y": 233,
      "size": 1,
      "price": "4683000000000000000000",
      "reserved": "",
      "salt": "0x6e7d20a6830d160eea8b42f28fa771d2f67d692230e50d90df863656edbf27af",
      "assetIds": [
        "41506478881403507969696680653240014914910929820314476107906210059990541021188"
      ]
    },
    {
      "x": 371,
      "y": 234,
      "size": 1,
      "price": "4683000000000000000000",
      "reserved": "",
      "salt": "0x8633d2fa3ba85e66ed60ff7c9af34ea4afc93907304ec1b0fefb94ea1dc97fbb",
      "assetIds": [
        "41506478881403507969696680653240014914910929820314476107906210059990541021185"
      ]
    },
    {
      "x": 371,
      "y": 235,
      "size": 1,
      "price": "4683000000000000000000",
      "reserved": "",
      "salt": "0xd4f143fde9d28752c3e087323d87be4d5c4e1bccfc5e1693751ab63e044339e3",
      "assetIds": [
        "41506478881403507969696680653240014914910929820314476107906210059990541021189"
      ]
    },
    {
      "x": 371,
      "y": 236,
      "size": 1,
      "price": "4683000000000000000000",
      "reserved": "",
      "salt": "0x04ae288490ea9e0d017e53e16419204f1f9ac43f5ddacd3c1cb70a0547b2e0fd",
      "assetIds": [
        "41506478881403507969696680653240014914910929820314476107906210059990541021187"
      ]
    },
    {
      "x": 371,
      "y": 237,
      "size": 1,
      "price": "4683000000000000000000",
      "reserved": "",
      "salt": "0xe7ecd8b27018c160b771594aef35f666d2afb92fb14116bcc78e257f5de0a3f0",
      "assetIds": [
        "41506478881403507969696680653240014914910929820314476107906210059990541021187"
      ]
    },
    {
      "x": 371,
      "y": 238,
      "size": 1,
      "price": "4683000000000000000000",
      "reserved": "",
      "salt": "0x6e5efc4498e38733e25a4f41f888debc3745921912a16ec36c73c714859ce3db",
      "assetIds": [
        "41506478881403507969696680653240014914910929820314476107906210059990541021188"
      ]
    },
    {
      "x": 371,
      "y": 239,
      "size": 1,
      "price": "4683000000000000000000",
      "reserved": "",
      "salt": "0x62d884a617a3c785970bb2d12457b0db3f5514c6dd53dfc9784684096f2a5b72",
      "assetIds": [
        "41506478881403507969696680653240014914910929820314476107906210059990541021189"
      ]
    },
    {
      "x": 371,
      "y": 264,
      "size": 1,
      "price": "4683000000000000000000",
      "reserved": "",
      "salt": "0xd57e735869e4ebb312d123d6a440e5fe5974e2122371f710bfccf8f734fe91ff",
      "assetIds": [
        "41506478881403507969696680653240014914910929820314476107906210059990541021188"
      ]
    },
    {
      "x": 371,
      "y": 265,
      "size": 1,
      "price": "4683000000000000000000",
      "reserved": "",
      "salt": "0xedce88c645571a64b5f5aeb37562ae658b91254e3bd232d5ac4e0d3925492eb8",
      "assetIds": [
        "41506478881403507969696680653240014914910929820314476107906210059990541021187"
      ]
    },
    {
      "x": 371,
      "y": 266,
      "size": 1,
      "price": "4683000000000000000000",
      "reserved": "",
      "salt": "0x65ee172544303519f0daf8130336976204d935d5d3eb923debbfcd93535109d7",
      "assetIds": [
        "41506478881403507969696680653240014914910929820314476107906210059990541021185"
      ]
    },
    {
      "x": 371,
      "y": 267,
      "size": 1,
      "price": "4683000000000000000000",
      "reserved": "",
      "salt": "0xa7a44500aca369057de58de581717b77355b3cfc761e7b4747c9b037f62faf19",
      "assetIds": [
        "41506478881403507969696680653240014914910929820314476107906210059990541021189"
      ]
    },
    {
      "x": 371,
      "y": 268,
      "size": 1,
      "price": "4683000000000000000000",
      "reserved": "",
      "salt": "0x5bbae1d348c330b42eec831ced96e3ba5860c4008b64039b857b1d1fd8254fb0",
      "assetIds": [
        "41506478881403507969696680653240014914910929820314476107906210059990541021188"
      ]
    },
    {
      "x": 371,
      "y": 269,
      "size": 1,
      "price": "4683000000000000000000",
      "reserved": "",
      "salt": "0xcfec33f9ea191bd249111544bc3dd8b00e8e6c6e767fd4fb91fcec142f904e6d",
      "assetIds": [
        "41506478881403507969696680653240014914910929820314476107906210059990541021187"
      ]
    },
    {
      "x": 371,
      "y": 288,
      "size": 1,
      "price": "4683000000000000000000",
      "reserved": "",
      "salt": "0x307ae623658ad62e6005ed7cbfb7525206475ea197ab7351ed61362d9d326119",
      "assetIds": [
        "41506478881403507969696680653240014914910929820314476107906210059990532622336"
      ]
    },
    {
      "x": 371,
      "y": 289,
      "size": 1,
      "price": "4683000000000000000000",
      "reserved": "",
      "salt": "0xeaed40d261eb3c682bb2ea4966124b13cd9e13c74ac4f63c7726379f674b6a32",
      "assetIds": [
        "41506478881403507969696680653240014914910929820314476107906210059990541021187"
      ]
    },
    {
      "x": 371,
      "y": 290,
      "size": 1,
      "price": "4683000000000000000000",
      "reserved": "",
      "salt": "0xc9f7b5a0f4b3b72b590d6696774aa6f6366cbff9aa07e851666c58b14a25459b",
      "assetIds": [
        "41506478881403507969696680653240014914910929820314476107906210059990541021188"
      ]
    },
    {
      "x": 371,
      "y": 291,
      "size": 1,
      "price": "4683000000000000000000",
      "reserved": "",
      "salt": "0xca03aa97dc023841cb83a056ab4093e517bdf399d95c1c2c0ce71a0d7d9b0247",
      "assetIds": [
        "41506478881403507969696680653240014914910929820314476107906210059990541021185"
      ]
    },
    {
      "x": 371,
      "y": 292,
      "size": 1,
      "price": "4683000000000000000000",
      "reserved": "",
      "salt": "0xde88091893be385e209f0044b9deac51ab98caf728f42c75c4f0fbf4d77d9806",
      "assetIds": [
        "41506478881403507969696680653240014914910929820314476107906210059990541021187"
      ]
    },
    {
      "x": 371,
      "y": 293,
      "size": 1,
      "price": "4683000000000000000000",
      "reserved": "",
      "salt": "0x3bafc063ef7741722abc896c50a25ab77dea608a98376c0896eab48ee74874e4",
      "assetIds": [
        "41506478881403507969696680653240014914910929820314476107906210059990541021189"
      ]
    },
    {
      "x": 371,
      "y": 294,
      "size": 1,
      "price": "1011000000000000000000",
      "reserved": "0x7a9fe22691c811ea339d9b73150e6911a5343dca",
      "salt": "0xd3c9ab5d5edf6e1d706326dc44a0f879bfcf343061796884f97eb4ea96c65774",
      "assetIds": []
    },
    {
      "x": 371,
      "y": 295,
      "size": 1,
      "price": "4683000000000000000000",
      "reserved": "",
      "salt": "0xac0510563a86981977543d45fe856f2ed7100f0859ccf4e09447295e183728c5",
      "assetIds": [
        "41506478881403507969696680653240014914910929820314476107906210059990541021189"
      ]
    },
    {
      "x": 371,
      "y": 296,
      "size": 1,
      "price": "4683000000000000000000",
      "reserved": "",
      "salt": "0x74ddecf221335487689536c03b079d46aca07bd7f6b007423b13ecd1c6354e64",
      "assetIds": [
        "41506478881403507969696680653240014914910929820314476107906210059990541021188"
      ]
    },
    {
      "x": 371,
      "y": 297,
      "size": 1,
      "price": "4683000000000000000000",
      "reserved": "",
      "salt": "0x9796b92a7e9841f4e71832062730e7a56db18755c3fd9d5ba58ce853576665b5",
      "assetIds": [
        "41506478881403507969696680653240014914910929820314476107906210059990541021187"
      ]
    },
    {
      "x": 371,
      "y": 298,
      "size": 1,
      "price": "4683000000000000000000",
      "reserved": "",
      "salt": "0x29005f044aff5f70f7f83af5171474da86a303e237e058217963367c79b58299",
      "assetIds": [
        "41506478881403507969696680653240014914910929820314476107906210059990541021184"
      ]
    },
    {
      "x": 371,
      "y": 299,
      "size": 1,
      "price": "4683000000000000000000",
      "reserved": "",
      "salt": "0x63086ed0e477068ae5c8cb86ed62aebf3a21cb6c48efb9796b20dcb5fd67079d",
      "assetIds": [
        "41506478881403507969696680653240014914910929820314476107906210059990541021189"
      ]
    },
    {
      "x": 371,
      "y": 300,
      "size": 1,
      "price": "4683000000000000000000",
      "reserved": "",
      "salt": "0x8df717a1a089b1faa50a6753b0d309773106beba347775f1b8ec3383da000668",
      "assetIds": [
        "41506478881403507969696680653240014914910929820314476107906210059990541021187"
      ]
    },
    {
      "x": 371,
      "y": 301,
      "size": 1,
      "price": "4683000000000000000000",
      "reserved": "",
      "salt": "0x94824271d20bbad3fe32003dc79c60259c1c2b3223d182587f91227b73fb8a48",
      "assetIds": [
        "41506478881403507969696680653240014914910929820314476107906210059990541021188"
      ]
    },
    {
      "x": 371,
      "y": 302,
      "size": 1,
      "price": "4683000000000000000000",
      "reserved": "",
      "salt": "0xdb9625649fde67ff5544d4389e4287ebb2593b9e9d841cd1e499b7a028efc845",
      "assetIds": [
        "41506478881403507969696680653240014914910929820314476107906210059990541021189"
      ]
    },
    {
      "x": 371,
      "y": 303,
      "size": 1,
      "price": "4683000000000000000000",
      "reserved": "",
      "salt": "0xe03e33a10775d9ffb96f3a9b599727867a417cf3df40af65c5262a32f31d1f5b",
      "assetIds": [
        "41506478881403507969696680653240014914910929820314476107906210059990541021188"
      ]
    },
    {
      "x": 371,
      "y": 304,
      "size": 1,
      "price": "4683000000000000000000",
      "reserved": "",
      "salt": "0xf1e35ca2ae4ef3776c8d33ea72f965612703e35b85756c7b6feb92efa5fda82d",
      "assetIds": [
        "41506478881403507969696680653240014914910929820314476107906210059990541021188"
      ]
    },
    {
      "x": 371,
      "y": 305,
      "size": 1,
      "price": "4683000000000000000000",
      "reserved": "",
      "salt": "0x56dc6632440a7ae1b5e73a21a90c6cad2963bf7b7542435bdc2189a134de8a46",
      "assetIds": [
        "41506478881403507969696680653240014914910929820314476107906210059990541021187"
      ]
    },
    {
      "x": 372,
      "y": 231,
      "size": 1,
      "price": "4683000000000000000000",
      "reserved": "",
      "salt": "0xbbfd157ec0ffce7e1996d852d49fec348276319620f671f50da313a0d56d28d5",
      "assetIds": [
        "41506478881403507969696680653240014914910929820314476107906210059990541021189"
      ]
    },
    {
      "x": 372,
      "y": 232,
      "size": 1,
      "price": "4683000000000000000000",
      "reserved": "",
      "salt": "0x68294433304469105a1cd08e15f2ff51b0118af34992347e13a113c6d12a5d65",
      "assetIds": [
        "41506478881403507969696680653240014914910929820314476107906210059990541021188"
      ]
    },
    {
      "x": 372,
      "y": 233,
      "size": 1,
      "price": "4683000000000000000000",
      "reserved": "",
      "salt": "0xa378f0951fc1537de8aefbe4fb89467955277d4646977fc17325a5ed5e108aca",
      "assetIds": [
        "41506478881403507969696680653240014914910929820314476107906210059990532622336"
      ]
    },
    {
      "x": 372,
      "y": 276,
      "size": 1,
      "price": "4683000000000000000000",
      "reserved": "",
      "salt": "0xf42d4a32402527b37ca4dcc83c649a16f946fd6eecc2bb2b897ab27b33f43a45",
      "assetIds": [
        "41506478881403507969696680653240014914910929820314476107906210059990541021188"
      ]
    },
    {
      "x": 372,
      "y": 277,
      "size": 1,
      "price": "4683000000000000000000",
      "reserved": "",
      "salt": "0x518b6e77dce15efc4d27119fefeed6bc28c2b76c5243265d87905adc74fa5a1d",
      "assetIds": [
        "41506478881403507969696680653240014914910929820314476107906210059990541021188"
      ]
    },
    {
      "x": 372,
      "y": 278,
      "size": 1,
      "price": "4683000000000000000000",
      "reserved": "",
      "salt": "0x1348e4a62ac4def25d39a36455cabcc96628a264933dd3d9eebda71aad03f5a0",
      "assetIds": [
        "41506478881403507969696680653240014914910929820314476107906210059990541021187"
      ]
    },
    {
      "x": 372,
      "y": 279,
      "size": 1,
      "price": "4683000000000000000000",
      "reserved": "",
      "salt": "0xcfead02d959489cb03c9299d1274f235a0c325417c034ff7ed36fa633c47cd84",
      "assetIds": [
        "41506478881403507969696680653240014914910929820314476107906210059990541021188"
      ]
    },
    {
      "x": 372,
      "y": 280,
      "size": 1,
      "price": "4683000000000000000000",
      "reserved": "",
      "salt": "0x048249fdde83db4adeb3e7863def75bf9bd044df2920e2a34f1af935921eed5e",
      "assetIds": [
        "41506478881403507969696680653240014914910929820314476107906210059990541021189"
      ]
    },
    {
      "x": 372,
      "y": 281,
      "size": 1,
      "price": "4683000000000000000000",
      "reserved": "",
      "salt": "0xf69fb804e7dac87766114f608cc83693604369557defa7ac8aa1ab4e52691068",
      "assetIds": [
        "41506478881403507969696680653240014914910929820314476107906210059990541021188"
      ]
    },
    {
      "x": 372,
      "y": 288,
      "size": 1,
      "price": "4683000000000000000000",
      "reserved": "",
      "salt": "0xe9276fbacdaac8c3fa757de58e66e9eb1f62b6c18035b709c7912ca3a60b6388",
      "assetIds": [
        "41506478881403507969696680653240014914910929820314476107906210059990541021184"
      ]
    },
    {
      "x": 372,
      "y": 289,
      "size": 1,
      "price": "4683000000000000000000",
      "reserved": "",
      "salt": "0x1c85df3523866b911907e563f4863128b5b5d4b6de2ffb09411fb7453f311390",
      "assetIds": [
        "41506478881403507969696680653240014914910929820314476107906210059990541021186"
      ]
    },
    {
      "x": 372,
      "y": 290,
      "size": 1,
      "price": "4683000000000000000000",
      "reserved": "",
      "salt": "0xb76f6a3d3c64f17b8ad8638baa30b8c1e12aa38645482b53a3761e49ff3536bd",
      "assetIds": [
        "41506478881403507969696680653240014914910929820314476107906210059990541021188"
      ]
    },
    {
      "x": 372,
      "y": 291,
      "size": 1,
      "price": "4683000000000000000000",
      "reserved": "",
      "salt": "0x9fa677652e8f539202f0929acf27a31cc8bc3774ee62ce4a8296ec440ff41eb4",
      "assetIds": [
        "41506478881403507969696680653240014914910929820314476107906210059990541021184"
      ]
    },
    {
      "x": 372,
      "y": 292,
      "size": 1,
      "price": "4683000000000000000000",
      "reserved": "",
      "salt": "0x07bb7cadc738075f77f7bc809ef8fa24b6283b4c94f650b63ed8832bf6e6b156",
      "assetIds": [
        "41506478881403507969696680653240014914910929820314476107906210059990532622336"
      ]
    },
    {
      "x": 372,
      "y": 293,
      "size": 1,
      "price": "4683000000000000000000",
      "reserved": "",
      "salt": "0xba049d5c8c46bf99e1594f1e0b48dba61cb7bef627dd4105827bf5fd1175850c",
      "assetIds": [
        "41506478881403507969696680653240014914910929820314476107906210059990541021187"
      ]
    },
    {
      "x": 372,
      "y": 294,
      "size": 1,
      "price": "4683000000000000000000",
      "reserved": "",
      "salt": "0x5f437bd66437f5d4cb4fbb36f23fe8db04bb2615cad8a361f1288477cfbcd676",
      "assetIds": [
        "41506478881403507969696680653240014914910929820314476107906210059990541021189"
      ]
    },
    {
      "x": 372,
      "y": 295,
      "size": 1,
      "price": "4683000000000000000000",
      "reserved": "",
      "salt": "0xdd344162ea9c5f9c26ad56e0ace3391d4046e6c3cd32ac8ac3aa62bb94c0a6f8",
      "assetIds": [
        "41506478881403507969696680653240014914910929820314476107906210059990541021188"
      ]
    },
    {
      "x": 372,
      "y": 296,
      "size": 1,
      "price": "4683000000000000000000",
      "reserved": "",
      "salt": "0x299dc2862c5f665b20b103cddc1450fecc7beef72da0df8ebd53f168d6d8bebe",
      "assetIds": [
        "41506478881403507969696680653240014914910929820314476107906210059990541021187"
      ]
    },
    {
      "x": 372,
      "y": 297,
      "size": 1,
      "price": "4683000000000000000000",
      "reserved": "",
      "salt": "0xaaba01c2ed5a9821e4823feaf9cebda9f76e08acf7d2e40970ab56e524d69cec",
      "assetIds": [
        "41506478881403507969696680653240014914910929820314476107906210059990541021185"
      ]
    },
    {
      "x": 372,
      "y": 298,
      "size": 1,
      "price": "4683000000000000000000",
      "reserved": "",
      "salt": "0xe679f2e8391ab03b3149f9da59c978ac57ab685b14ec6695a7faafb20b474c90",
      "assetIds": [
        "41506478881403507969696680653240014914910929820314476107906210059990541021184"
      ]
    },
    {
      "x": 372,
      "y": 299,
      "size": 1,
      "price": "4683000000000000000000",
      "reserved": "",
      "salt": "0x51d6fa869248fff2e5382ad4bcea37747e8267cc0c36323306eb4dd11a130898",
      "assetIds": [
        "41506478881403507969696680653240014914910929820314476107906210059990541021187"
      ]
    },
    {
      "x": 372,
      "y": 300,
      "size": 1,
      "price": "4683000000000000000000",
      "reserved": "",
      "salt": "0xee7af63e79c9f9f6ad2e1dc5be0e6281bc4c598daade6331ef53b42a9dccb84c",
      "assetIds": [
        "41506478881403507969696680653240014914910929820314476107906210059990541021188"
      ]
    },
    {
      "x": 372,
      "y": 301,
      "size": 1,
      "price": "4683000000000000000000",
      "reserved": "",
      "salt": "0xfb1f748f0c42a5dccc2308c2b767d5b1da393661ce733409081f45f95f8ac327",
      "assetIds": [
        "41506478881403507969696680653240014914910929820314476107906210059990532622336"
      ]
    },
    {
      "x": 372,
      "y": 302,
      "size": 1,
      "price": "4683000000000000000000",
      "reserved": "",
      "salt": "0xcd32343350bf1c0db8a40a470b82a1b8edfb682650271c313179c301339e2002",
      "assetIds": [
        "41506478881403507969696680653240014914910929820314476107906210059990541021184"
      ]
    },
    {
      "x": 372,
      "y": 303,
      "size": 1,
      "price": "4683000000000000000000",
      "reserved": "",
      "salt": "0x29785c27245b3eae28455e13b3dce54f9a05255f7e0599e2c6ee5d5f8cb8d2d8",
      "assetIds": [
        "41506478881403507969696680653240014914910929820314476107906210059990541021188"
      ]
    },
    {
      "x": 372,
      "y": 304,
      "size": 1,
      "price": "4683000000000000000000",
      "reserved": "",
      "salt": "0xaf718810ebb0d9f6bdc6082b9422d7a7a17f843d2186041c1180f5cfcace519b",
      "assetIds": [
        "41506478881403507969696680653240014914910929820314476107906210059990541021186"
      ]
    },
    {
      "x": 372,
      "y": 305,
      "size": 1,
      "price": "4683000000000000000000",
      "reserved": "",
      "salt": "0x1fef7755eb2f5dca320f27d3f73371c4b0fc6dd8a0ab7c2709ea64ecba8a7aa0",
      "assetIds": [
        "41506478881403507969696680653240014914910929820314476107906210059990541021187"
      ]
    },
    {
      "x": 373,
      "y": 231,
      "size": 1,
      "price": "4683000000000000000000",
      "reserved": "",
      "salt": "0xf23fb10f62d94c4967746a8ce4d08f4da0139719fb6a2494c0385643d6d65f49",
      "assetIds": [
        "41506478881403507969696680653240014914910929820314476107906210059990541021189"
      ]
    },
    {
      "x": 373,
      "y": 232,
      "size": 1,
      "price": "4683000000000000000000",
      "reserved": "",
      "salt": "0xcc0cc42b27c90732925e3e68a2e90ef3de6a5933a761612a798b24c15e0ad5ea",
      "assetIds": [
        "41506478881403507969696680653240014914910929820314476107906210059990541021187"
      ]
    },
    {
      "x": 373,
      "y": 233,
      "size": 1,
      "price": "4683000000000000000000",
      "reserved": "",
      "salt": "0x3acfcab1515d7a603f8843dd46e9161a64ee0a7fb76a2d30706541f4d48f9944",
      "assetIds": [
        "41506478881403507969696680653240014914910929820314476107906210059990541021188"
      ]
    },
    {
      "x": 373,
      "y": 276,
      "size": 1,
      "price": "4683000000000000000000",
      "reserved": "",
      "salt": "0x0e50653cbe785a1f86098c7dc34b795494bb47ea810fc9a3bc17f34698c4b27c",
      "assetIds": [
        "41506478881403507969696680653240014914910929820314476107906210059990541021185"
      ]
    },
    {
      "x": 373,
      "y": 277,
      "size": 1,
      "price": "1011000000000000000000",
      "reserved": "0x7a9fe22691c811ea339d9b73150e6911a5343dca",
      "salt": "0xa34069a1854f3899acaa67dae3f1c84f40efc1189955ae987363cc858a2413b2",
      "assetIds": []
    },
    {
      "x": 373,
      "y": 278,
      "size": 1,
      "price": "4683000000000000000000",
      "reserved": "",
      "salt": "0xebe775cf84543bdbfef36bf7861ebd4ed8d479ff0dc67eefa1bd69788f1a6d41",
      "assetIds": [
        "41506478881403507969696680653240014914910929820314476107906210059990541021188"
      ]
    },
    {
      "x": 373,
      "y": 279,
      "size": 1,
      "price": "4683000000000000000000",
      "reserved": "",
      "salt": "0xed56173412e93841097e8482f20a760fb33453c21188d58d4d8fdaf386e860ed",
      "assetIds": [
        "41506478881403507969696680653240014914910929820314476107906210059990541021189"
      ]
    },
    {
      "x": 373,
      "y": 280,
      "size": 1,
      "price": "4683000000000000000000",
      "reserved": "",
      "salt": "0xfb381407fc41beb60922d91c8d6acbbce1ad3f6406b267939b9ec81fda055945",
      "assetIds": [
        "41506478881403507969696680653240014914910929820314476107906210059990541021189"
      ]
    },
    {
      "x": 373,
      "y": 281,
      "size": 1,
      "price": "4683000000000000000000",
      "reserved": "",
      "salt": "0xd6722a0880b37a5c1b57ec0594f67f36a82d7740ac9dfd6f7b823368282f5051",
      "assetIds": [
        "41506478881403507969696680653240014914910929820314476107906210059990541021186"
      ]
    },
    {
      "x": 373,
      "y": 288,
      "size": 1,
      "price": "4683000000000000000000",
      "reserved": "",
      "salt": "0x51a472225fb5c019e6c59c38a80f4c66501dd870ee7cbb6763f9ba6b081ae3f7",
      "assetIds": [
        "41506478881403507969696680653240014914910929820314476107906210059990541021188"
      ]
    },
    {
      "x": 373,
      "y": 289,
      "size": 1,
      "price": "4683000000000000000000",
      "reserved": "",
      "salt": "0xa612a0757836da5a8620af2451fb09dcd2552ea8eb3d3071dfdac164ff4b22e0",
      "assetIds": [
        "41506478881403507969696680653240014914910929820314476107906210059990541021189"
      ]
    },
    {
      "x": 373,
      "y": 290,
      "size": 1,
      "price": "4683000000000000000000",
      "reserved": "",
      "salt": "0xd152d40d88916d47ed7f10679843820f9ba2ef6d6acf9137288c8262058c3ae2",
      "assetIds": [
        "41506478881403507969696680653240014914910929820314476107906210059990541021189"
      ]
    },
    {
      "x": 373,
      "y": 291,
      "size": 1,
      "price": "4683000000000000000000",
      "reserved": "",
      "salt": "0x8541cd4c25ae25001c6d6dc8380fde34026fe219544be1d9cb0787d42c612677",
      "assetIds": [
        "41506478881403507969696680653240014914910929820314476107906210059990541021185"
      ]
    },
    {
      "x": 373,
      "y": 292,
      "size": 1,
      "price": "4683000000000000000000",
      "reserved": "",
      "salt": "0x21f33d1aba9b108abefa2e6bc70440afb9630d0a2e9803419e57652b55335c4f",
      "assetIds": [
        "41506478881403507969696680653240014914910929820314476107906210059990541021187"
      ]
    },
    {
      "x": 373,
      "y": 293,
      "size": 1,
      "price": "4683000000000000000000",
      "reserved": "",
      "salt": "0x468925fd34c43a728b31e7cd7114cf7709691594a7b7bc92cf28439b61f7b7a0",
      "assetIds": [
        "41506478881403507969696680653240014914910929820314476107906210059990532622336"
      ]
    },
    {
      "x": 373,
      "y": 294,
      "size": 1,
      "price": "4683000000000000000000",
      "reserved": "",
      "salt": "0x5b219c10946842215d2088700de6b3ffc8b926987c77c0fc4f6ab041d6189867",
      "assetIds": [
        "41506478881403507969696680653240014914910929820314476107906210059990541021189"
      ]
    },
    {
      "x": 373,
      "y": 295,
      "size": 1,
      "price": "4683000000000000000000",
      "reserved": "",
      "salt": "0xe8e3fe2b65ea159d0c88e66780c09bfd9de562da6989fdbe86d1f615be08690d",
      "assetIds": [
        "41506478881403507969696680653240014914910929820314476107906210059990541021185"
      ]
    },
    {
      "x": 373,
      "y": 296,
      "size": 1,
      "price": "4683000000000000000000",
      "reserved": "",
      "salt": "0x0cfce376e50e1285d7d8efeaa90d816381a2c2776888b213652a26452215e681",
      "assetIds": [
        "41506478881403507969696680653240014914910929820314476107906210059990541021188"
      ]
    },
    {
      "x": 373,
      "y": 297,
      "size": 1,
      "price": "4683000000000000000000",
      "reserved": "",
      "salt": "0x6c100b48f1f23b4547e067af667295e7f8abbbfb3a833827fff1dca2ed8c4181",
      "assetIds": [
        "41506478881403507969696680653240014914910929820314476107906210059990541021188"
      ]
    },
    {
      "x": 373,
      "y": 298,
      "size": 1,
      "price": "4683000000000000000000",
      "reserved": "",
      "salt": "0xc78199cd25944c9ff120b331268b6c550b7a6595b92f6405326b2122feaca13b",
      "assetIds": [
        "41506478881403507969696680653240014914910929820314476107906210059990541021187"
      ]
    },
    {
      "x": 373,
      "y": 299,
      "size": 1,
      "price": "4683000000000000000000",
      "reserved": "",
      "salt": "0x2a832f4fd52eef2a140ddeb15c1867be76683f91fb53ba3fa38a217748c13414",
      "assetIds": [
        "41506478881403507969696680653240014914910929820314476107906210059990541021188"
      ]
    },
    {
      "x": 373,
      "y": 300,
      "size": 1,
      "price": "4683000000000000000000",
      "reserved": "",
      "salt": "0xfba479604ede770466afa2640204a46201c11c3fd8d1fcd313aa65d90bc30470",
      "assetIds": [
        "41506478881403507969696680653240014914910929820314476107906210059990541021186"
      ]
    },
    {
      "x": 373,
      "y": 301,
      "size": 1,
      "price": "4683000000000000000000",
      "reserved": "",
      "salt": "0x5097f7a4f6929176315558988730699e6c29d23f8600a50bbd96c8df305164ee",
      "assetIds": [
        "41506478881403507969696680653240014914910929820314476107906210059990541021189"
      ]
    },
    {
      "x": 373,
      "y": 302,
      "size": 1,
      "price": "4683000000000000000000",
      "reserved": "",
      "salt": "0xb130f3b3c14de82a171ff74517ec04c20a6fe132a76c184dd843bf8021e4a2ca",
      "assetIds": [
        "41506478881403507969696680653240014914910929820314476107906210059990532622336"
      ]
    },
    {
      "x": 373,
      "y": 303,
      "size": 1,
      "price": "4683000000000000000000",
      "reserved": "",
      "salt": "0xd61fd300f9631fa69cec346d677af151ebe374165e6a3104bfc21dc9685d48a8",
      "assetIds": [
        "41506478881403507969696680653240014914910929820314476107906210059990532622336"
      ]
    },
    {
      "x": 373,
      "y": 304,
      "size": 1,
      "price": "4683000000000000000000",
      "reserved": "",
      "salt": "0x152d09093674f7346805ef25807d0c627c1056513d1ea8d659df42b948a3d43e",
      "assetIds": [
        "41506478881403507969696680653240014914910929820314476107906210059990541021187"
      ]
    },
    {
      "x": 373,
      "y": 305,
      "size": 1,
      "price": "4683000000000000000000",
      "reserved": "",
      "salt": "0x5d62fa1a56791885fa9402af9dc522cb578d8b055eb2b41be1af5ff9d988d0a0",
      "assetIds": [
        "41506478881403507969696680653240014914910929820314476107906210059990541021187"
      ]
    },
    {
      "x": 374,
      "y": 231,
      "size": 1,
      "price": "4683000000000000000000",
      "reserved": "",
      "salt": "0x266ddca1b377f6c0325706b3df379f7845c106c85c32c91c77148e356765eee6",
      "assetIds": [
        "41506478881403507969696680653240014914910929820314476107906210059990541021187"
      ]
    },
    {
      "x": 374,
      "y": 232,
      "size": 1,
      "price": "4683000000000000000000",
      "reserved": "",
      "salt": "0x35f3c3772a9346d1e37c2d479a9b13e39b456006746928a31ad12a273b08e2a4",
      "assetIds": [
        "41506478881403507969696680653240014914910929820314476107906210059990541021187"
      ]
    },
    {
      "x": 374,
      "y": 233,
      "size": 1,
      "price": "4683000000000000000000",
      "reserved": "",
      "salt": "0x356dce30e04f8d82d14aebf74e99a34d1f64814e37658d90bca89d388d25c54d",
      "assetIds": [
        "41506478881403507969696680653240014914910929820314476107906210059990541021187"
      ]
    },
    {
      "x": 374,
      "y": 276,
      "size": 1,
      "price": "4683000000000000000000",
      "reserved": "",
      "salt": "0x44da982293165019ab3a15925276d619b81082df09cb49af267ef6b6465c8090",
      "assetIds": [
        "41506478881403507969696680653240014914910929820314476107906210059990541021188"
      ]
    },
    {
      "x": 374,
      "y": 277,
      "size": 1,
      "price": "4683000000000000000000",
      "reserved": "",
      "salt": "0xc4d6eebdc9bdd3b00c2de45fc94b854d45e6a0560c277651f9aec6868542e530",
      "assetIds": [
        "41506478881403507969696680653240014914910929820314476107906210059990541021189"
      ]
    },
    {
      "x": 374,
      "y": 278,
      "size": 1,
      "price": "4683000000000000000000",
      "reserved": "",
      "salt": "0x275f75333c08b780911fb96bcb83c02eb5de10d2d0878403fcc08000333e8947",
      "assetIds": [
        "41506478881403507969696680653240014914910929820314476107906210059990541021187"
      ]
    },
    {
      "x": 374,
      "y": 279,
      "size": 1,
      "price": "4683000000000000000000",
      "reserved": "",
      "salt": "0x495528793836234c9bef8482959c15d408e503362f007fbd7adf3ea6e433c632",
      "assetIds": [
        "41506478881403507969696680653240014914910929820314476107906210059990532622336"
      ]
    },
    {
      "x": 374,
      "y": 280,
      "size": 1,
      "price": "4683000000000000000000",
      "reserved": "",
      "salt": "0x70eac03d0c5ab3d3f134fd2dc50a885581e4a2f8763943d98d7ce2a5ee933644",
      "assetIds": [
        "41506478881403507969696680653240014914910929820314476107906210059990541021187"
      ]
    },
    {
      "x": 374,
      "y": 281,
      "size": 1,
      "price": "4683000000000000000000",
      "reserved": "",
      "salt": "0x3339ca6b7d5de6472a91c717e9da88973e6a525ee917a6180c9fe3c7a74a1ccf",
      "assetIds": [
        "41506478881403507969696680653240014914910929820314476107906210059990541021187"
      ]
    },
    {
      "x": 374,
      "y": 288,
      "size": 1,
      "price": "4683000000000000000000",
      "reserved": "",
      "salt": "0x196c31a88101cddc8b48f261c8f105e4e44fa17d2d0b24b7d1a7657e82da1faa",
      "assetIds": [
        "41506478881403507969696680653240014914910929820314476107906210059990541021188"
      ]
    },
    {
      "x": 374,
      "y": 289,
      "size": 1,
      "price": "4683000000000000000000",
      "reserved": "",
      "salt": "0xaea51761e6727b53b9eeff904d761988ff767a6bebae9106e0f654e0d80f0fa6",
      "assetIds": [
        "41506478881403507969696680653240014914910929820314476107906210059990541021189"
      ]
    },
    {
      "x": 374,
      "y": 290,
      "size": 1,
      "price": "4683000000000000000000",
      "reserved": "",
      "salt": "0xd404a1fe025de373e49837c76a853b3e7e85f6010891e67873ee7d7ccd9366f1",
      "assetIds": [
        "41506478881403507969696680653240014914910929820314476107906210059990541021186"
      ]
    },
    {
      "x": 374,
      "y": 291,
      "size": 1,
      "price": "4683000000000000000000",
      "reserved": "",
      "salt": "0x1fbf25f40692dc316ab19a5c7b8e659739f81287869a9e6115bd14aebcf97300",
      "assetIds": [
        "41506478881403507969696680653240014914910929820314476107906210059990532622336"
      ]
    },
    {
      "x": 374,
      "y": 292,
      "size": 1,
      "price": "4683000000000000000000",
      "reserved": "",
      "salt": "0x5d9ef5532aa903f6bef2da7775af17bed14d7fba7a13f669d919af08e4874627",
      "assetIds": [
        "41506478881403507969696680653240014914910929820314476107906210059990541021189"
      ]
    },
    {
      "x": 374,
      "y": 293,
      "size": 1,
      "price": "4683000000000000000000",
      "reserved": "",
      "salt": "0xac51322282c3a3e3e2fb23677ea0ef27401b6cb38d06e7635532a3b4ac81c675",
      "assetIds": [
        "41506478881403507969696680653240014914910929820314476107906210059990541021186"
      ]
    },
    {
      "x": 374,
      "y": 294,
      "size": 1,
      "price": "4683000000000000000000",
      "reserved": "",
      "salt": "0x31c8b8b4151f2720b51f72ddae2ef5ec4ef7b0e461426c4d427ec101d20d6311",
      "assetIds": [
        "41506478881403507969696680653240014914910929820314476107906210059990541021189"
      ]
    },
    {
      "x": 374,
      "y": 295,
      "size": 1,
      "price": "4683000000000000000000",
      "reserved": "",
      "salt": "0x2d5f61cdb78d5909ee86351f9963708b9021693767df56479aa7327d8b4253ce",
      "assetIds": [
        "41506478881403507969696680653240014914910929820314476107906210059990541021188"
      ]
    },
    {
      "x": 374,
      "y": 296,
      "size": 1,
      "price": "4683000000000000000000",
      "reserved": "",
      "salt": "0xec85c05dad6b5bb3586fe4e7513e7959ee7c88a0a09a8c1df5c6d9457097561d",
      "assetIds": [
        "41506478881403507969696680653240014914910929820314476107906210059990541021186"
      ]
    },
    {
      "x": 374,
      "y": 297,
      "size": 1,
      "price": "4683000000000000000000",
      "reserved": "",
      "salt": "0xd5a4bd1ec9c524b792083511ed23f42a9987acfd08994366b9017181512eb636",
      "assetIds": [
        "41506478881403507969696680653240014914910929820314476107906210059990541021189"
      ]
    },
    {
      "x": 374,
      "y": 298,
      "size": 1,
      "price": "1011000000000000000000",
      "reserved": "0x7a9fe22691c811ea339d9b73150e6911a5343dca",
      "salt": "0xbf693ae2db5c05b340d86f84a35bcbcc3e708fd0a2a50aa848781a6b254c9b07",
      "assetIds": []
    },
    {
      "x": 374,
      "y": 299,
      "size": 1,
      "price": "4683000000000000000000",
      "reserved": "",
      "salt": "0x665d1c3c37339ff731f1946aad5ff5f23140ad2323eb25910019dea1a092d373",
      "assetIds": [
        "41506478881403507969696680653240014914910929820314476107906210059990541021187"
      ]
    },
    {
      "x": 374,
      "y": 300,
      "size": 1,
      "price": "4683000000000000000000",
      "reserved": "",
      "salt": "0xcd6b6ac129c04c1ebb5f537f47812c870f8749c61a7f37451378ed5cbe5c3286",
      "assetIds": [
        "41506478881403507969696680653240014914910929820314476107906210059990541021188"
      ]
    },
    {
      "x": 374,
      "y": 301,
      "size": 1,
      "price": "4683000000000000000000",
      "reserved": "",
      "salt": "0xd868d6e198c0eb66f54d72e6f9c40e0c10f07d3733b2d5bc84eb6939aea590e9",
      "assetIds": [
        "41506478881403507969696680653240014914910929820314476107906210059990541021187"
      ]
    },
    {
      "x": 374,
      "y": 302,
      "size": 1,
      "price": "4683000000000000000000",
      "reserved": "",
      "salt": "0x45a9668f726c9d21f016f6a089093992c1b6597e5e2e575d00f3c1d5eefe72ec",
      "assetIds": [
        "41506478881403507969696680653240014914910929820314476107906210059990541021186"
      ]
    },
    {
      "x": 374,
      "y": 303,
      "size": 1,
      "price": "4683000000000000000000",
      "reserved": "",
      "salt": "0x489cbfea52265b63a97fc17e3e7fdb77d1b636d13d66b9ca31e224961e52d6c6",
      "assetIds": [
        "41506478881403507969696680653240014914910929820314476107906210059990541021187"
      ]
    },
    {
      "x": 374,
      "y": 304,
      "size": 1,
      "price": "1011000000000000000000",
      "reserved": "0x7a9fe22691c811ea339d9b73150e6911a5343dca",
      "salt": "0x8ec17475e027d0aae62fedbea9a3bfee338d6e715e2be1474b10a850945b1187",
      "assetIds": []
    },
    {
      "x": 374,
      "y": 305,
      "size": 1,
      "price": "4683000000000000000000",
      "reserved": "",
      "salt": "0x1819a15b9411f9a9517153e3024c7fdfbb1a211a6c056b664e6f3a84fd9b8852",
      "assetIds": [
        "41506478881403507969696680653240014914910929820314476107906210059990541021188"
      ]
    },
    {
      "x": 375,
      "y": 231,
      "size": 1,
      "price": "4683000000000000000000",
      "reserved": "",
      "salt": "0x7dc3e0ae6eb94472c80a6674f1d00670c2c177bd65662317cc87bcf1f149daf6",
      "assetIds": [
        "41506478881403507969696680653240014914910929820314476107906210059990541021188"
      ]
    },
    {
      "x": 375,
      "y": 232,
      "size": 1,
      "price": "4683000000000000000000",
      "reserved": "",
      "salt": "0x3017d6f6f36104c00bd6b97137227bd09d37c8582aa67748738dc0b18e892e8d",
      "assetIds": [
        "41506478881403507969696680653240014914910929820314476107906210059990541021188"
      ]
    },
    {
      "x": 375,
      "y": 233,
      "size": 1,
      "price": "4683000000000000000000",
      "reserved": "",
      "salt": "0x94125594b070b14286ae2612fec2ff6d24d79fcbc1de2b8f7a38e6afd8cc8578",
      "assetIds": [
        "41506478881403507969696680653240014914910929820314476107906210059990541021187"
      ]
    },
    {
      "x": 375,
      "y": 276,
      "size": 1,
      "price": "4683000000000000000000",
      "reserved": "",
      "salt": "0xb91de1dd380af26b4fac1dfc6f4be41f04b71a10d869c8e26a3a740f7b0cecad",
      "assetIds": [
        "41506478881403507969696680653240014914910929820314476107906210059990541021188"
      ]
    },
    {
      "x": 375,
      "y": 277,
      "size": 1,
      "price": "4683000000000000000000",
      "reserved": "",
      "salt": "0x8228a54fc61f91a557a2df8f0652a0e108cd72a2f883b720a28bb9b7567720cb",
      "assetIds": [
        "41506478881403507969696680653240014914910929820314476107906210059990541021189"
      ]
    },
    {
      "x": 375,
      "y": 278,
      "size": 1,
      "price": "4683000000000000000000",
      "reserved": "",
      "salt": "0xaab108d8de316080d101cb3de4453a584ea6427d4ad533cac74a7abc0d4376f6",
      "assetIds": [
        "41506478881403507969696680653240014914910929820314476107906210059990541021188"
      ]
    },
    {
      "x": 375,
      "y": 279,
      "size": 1,
      "price": "4683000000000000000000",
      "reserved": "",
      "salt": "0xe92636b6bbd83128dcb41888edf41c13dc70151906dc8d9d87a04fadb062030f",
      "assetIds": [
        "41506478881403507969696680653240014914910929820314476107906210059990532622336"
      ]
    },
    {
      "x": 375,
      "y": 280,
      "size": 1,
      "price": "4683000000000000000000",
      "reserved": "",
      "salt": "0xd05ec2c8441f6616e28a117e84259862e680ea2f0ea0a472efa8c00a0547daa5",
      "assetIds": [
        "41506478881403507969696680653240014914910929820314476107906210059990532622336"
      ]
    },
    {
      "x": 375,
      "y": 281,
      "size": 1,
      "price": "4683000000000000000000",
      "reserved": "",
      "salt": "0x0bd0e6176e8a157ca3d97f254ea245b79f7bb44c0e3d3bda91d361cd3a328a27",
      "assetIds": [
        "41506478881403507969696680653240014914910929820314476107906210059990541021188"
      ]
    },
    {
      "x": 375,
      "y": 288,
      "size": 1,
      "price": "4683000000000000000000",
      "reserved": "",
      "salt": "0x159f70c5bc3e5ff0968beee940c7960138e8c471ca404e7161d17677d6349029",
      "assetIds": [
        "41506478881403507969696680653240014914910929820314476107906210059990541021187"
      ]
    },
    {
      "x": 375,
      "y": 289,
      "size": 1,
      "price": "4683000000000000000000",
      "reserved": "",
      "salt": "0xe1b013643da80d9435240c4196a1b0960d09963f5e9904097975acc7f8d1075e",
      "assetIds": [
        "41506478881403507969696680653240014914910929820314476107906210059990541021189"
      ]
    },
    {
      "x": 375,
      "y": 290,
      "size": 1,
      "price": "4683000000000000000000",
      "reserved": "",
      "salt": "0xe233f06ebb90f24b8e6d2df6007406f6e1ca80581a2f8349a4c9ccd1eabdc5c2",
      "assetIds": [
        "41506478881403507969696680653240014914910929820314476107906210059990541021184"
      ]
    },
    {
      "x": 375,
      "y": 291,
      "size": 1,
      "price": "4683000000000000000000",
      "reserved": "",
      "salt": "0x337115079a5f556dc5e18f56869c34229a1768ad492274c8517fd988ca6b21de",
      "assetIds": [
        "41506478881403507969696680653240014914910929820314476107906210059990541021187"
      ]
    },
    {
      "x": 375,
      "y": 292,
      "size": 1,
      "price": "4683000000000000000000",
      "reserved": "",
      "salt": "0x082de9afae8e1c9351b4c2c4700329aa1516649c3ae1506820dd22618296b7c5",
      "assetIds": [
        "41506478881403507969696680653240014914910929820314476107906210059990541021187"
      ]
    },
    {
      "x": 375,
      "y": 293,
      "size": 1,
      "price": "4683000000000000000000",
      "reserved": "",
      "salt": "0x82eb462978843ae6ede4b89620b0296156cbc25f9a4b155eafe80a674fb6cc60",
      "assetIds": [
        "41506478881403507969696680653240014914910929820314476107906210059990532622336"
      ]
    },
    {
      "x": 375,
      "y": 294,
      "size": 1,
      "price": "4683000000000000000000",
      "reserved": "",
      "salt": "0x673744ac29315ec7545c907beb20628cd8c0db1963a57243dba3e07497f08d5c",
      "assetIds": [
        "41506478881403507969696680653240014914910929820314476107906210059990541021187"
      ]
    },
    {
      "x": 375,
      "y": 295,
      "size": 1,
      "price": "4683000000000000000000",
      "reserved": "",
      "salt": "0x6e097b7bc2f5fe7c22813b90dcb48a9a10015a07f46d2f3c90a937d1b10e66a0",
      "assetIds": [
        "41506478881403507969696680653240014914910929820314476107906210059990541021187"
      ]
    },
    {
      "x": 375,
      "y": 296,
      "size": 1,
      "price": "4683000000000000000000",
      "reserved": "",
      "salt": "0x5bacc700ce12d9b8f01bddf88fd0290659d0a3982db9886601f8e2ca01155214",
      "assetIds": [
        "41506478881403507969696680653240014914910929820314476107906210059990541021189"
      ]
    },
    {
      "x": 375,
      "y": 297,
      "size": 1,
      "price": "4683000000000000000000",
      "reserved": "",
      "salt": "0x6ffba6b0cb2df566ff51a1d7723cad68b0d4edac041f858ec943419fdc83587f",
      "assetIds": [
        "41506478881403507969696680653240014914910929820314476107906210059990541021188"
      ]
    },
    {
      "x": 375,
      "y": 298,
      "size": 1,
      "price": "4683000000000000000000",
      "reserved": "",
      "salt": "0x62b22649e29ac224903d8d31446a5f07f71e0c4afd8cccd0fcd6c13d578440bf",
      "assetIds": [
        "41506478881403507969696680653240014914910929820314476107906210059990541021188"
      ]
    },
    {
      "x": 375,
      "y": 299,
      "size": 1,
      "price": "4683000000000000000000",
      "reserved": "",
      "salt": "0x05238b39a36eb67caf04b231bfa3ed52e82b2149f64e250c1c2b8961df1214f2",
      "assetIds": [
        "41506478881403507969696680653240014914910929820314476107906210059990541021184"
      ]
    },
    {
      "x": 375,
      "y": 300,
      "size": 1,
      "price": "4683000000000000000000",
      "reserved": "",
      "salt": "0x920a9eeaeed877f407c8e6996473c76288f34bac71e203230f6b9b5ef39b3173",
      "assetIds": [
        "41506478881403507969696680653240014914910929820314476107906210059990532622336"
      ]
    },
    {
      "x": 375,
      "y": 301,
      "size": 1,
      "price": "4683000000000000000000",
      "reserved": "",
      "salt": "0xbd9cc579a93a9a08820358f241cddf74b0e2f68db6d4c458fe8896a0c15bf92b",
      "assetIds": [
        "41506478881403507969696680653240014914910929820314476107906210059990541021186"
      ]
    },
    {
      "x": 375,
      "y": 302,
      "size": 1,
      "price": "4683000000000000000000",
      "reserved": "",
      "salt": "0x0f2f39ee593bf82842de313a98cfa15b8d85876b1041d42e724abbaad780e678",
      "assetIds": [
        "41506478881403507969696680653240014914910929820314476107906210059990541021185"
      ]
    },
    {
      "x": 375,
      "y": 303,
      "size": 1,
      "price": "4683000000000000000000",
      "reserved": "",
      "salt": "0xfe055443682526ef6f2bb64ccc2ffad762cb54a05bbc211850c6cba7e3f655b5",
      "assetIds": [
        "41506478881403507969696680653240014914910929820314476107906210059990541021187"
      ]
    },
    {
      "x": 375,
      "y": 304,
      "size": 1,
      "price": "4683000000000000000000",
      "reserved": "",
      "salt": "0x765f591d2ce95cacbe422cbd4f9da22d56f169aee944daa72b516d915133132d",
      "assetIds": [
        "41506478881403507969696680653240014914910929820314476107906210059990541021189"
      ]
    },
    {
      "x": 375,
      "y": 305,
      "size": 1,
      "price": "4683000000000000000000",
      "reserved": "",
      "salt": "0x0668174011f6959ff39cb0dea2d1305e80d7ded44556d456f785a158f9704d2d",
      "assetIds": [
        "41506478881403507969696680653240014914910929820314476107906210059990541021187"
      ]
    },
    {
      "x": 376,
      "y": 231,
      "size": 1,
      "price": "4683000000000000000000",
      "reserved": "",
      "salt": "0xbfd7aba583b5fcc031b4778ec6275a0789b7f763b3116ade14541243af305429",
      "assetIds": [
        "41506478881403507969696680653240014914910929820314476107906210059990541021186"
      ]
    },
    {
      "x": 376,
      "y": 232,
      "size": 1,
      "price": "4683000000000000000000",
      "reserved": "",
      "salt": "0x1b102bb63da6d096d6fa2e887e358ed97f90ea5dfa8641c222898bcb04599a62",
      "assetIds": [
        "41506478881403507969696680653240014914910929820314476107906210059990541021186"
      ]
    },
    {
      "x": 376,
      "y": 233,
      "size": 1,
      "price": "4683000000000000000000",
      "reserved": "",
      "salt": "0x948f371feb06253ae7e40d1757de21dec2ccbc4623b3aa7324b433c0ffd4f3cd",
      "assetIds": [
        "41506478881403507969696680653240014914910929820314476107906210059990532622336"
      ]
    },
    {
      "x": 376,
      "y": 276,
      "size": 1,
      "price": "4683000000000000000000",
      "reserved": "",
      "salt": "0xf273ffb170f93076b75e2a2a9a1e85d2ccf05bf61ce0048d0f361347ebff0bb9",
      "assetIds": [
        "41506478881403507969696680653240014914910929820314476107906210059990532622336"
      ]
    },
    {
      "x": 376,
      "y": 277,
      "size": 1,
      "price": "4683000000000000000000",
      "reserved": "",
      "salt": "0x76c2071f676b756eedf84b9aa0dbfe1a33250de12c7ae3b82c1fb0d447a6f69e",
      "assetIds": [
        "41506478881403507969696680653240014914910929820314476107906210059990541021188"
      ]
    },
    {
      "x": 376,
      "y": 278,
      "size": 1,
      "price": "4683000000000000000000",
      "reserved": "",
      "salt": "0xa0bc05eca627ecaef54b0d763dedf13645ed918c28413d0f29c22092217ba230",
      "assetIds": [
        "41506478881403507969696680653240014914910929820314476107906210059990541021186"
      ]
    },
    {
      "x": 376,
      "y": 279,
      "size": 1,
      "price": "4683000000000000000000",
      "reserved": "",
      "salt": "0xb06e8a3820f64258694bd353860377e7ca92c9d967ce8fc5527937b040de2314",
      "assetIds": [
        "41506478881403507969696680653240014914910929820314476107906210059990541021188"
      ]
    },
    {
      "x": 376,
      "y": 280,
      "size": 1,
      "price": "4683000000000000000000",
      "reserved": "",
      "salt": "0xbe373f7e995e5fe4f639dfbb15cb09b67fb0e1727f532f6e8987c4fafd2cca6d",
      "assetIds": [
        "41506478881403507969696680653240014914910929820314476107906210059990541021188"
      ]
    },
    {
      "x": 376,
      "y": 281,
      "size": 1,
      "price": "4683000000000000000000",
      "reserved": "",
      "salt": "0xdb9552c2061ef45d96f06165ea44421d32902e970b749c70e198ec090b96bf04",
      "assetIds": [
        "41506478881403507969696680653240014914910929820314476107906210059990541021185"
      ]
    },
    {
      "x": 376,
      "y": 288,
      "size": 1,
      "price": "4683000000000000000000",
      "reserved": "",
      "salt": "0x816db61d19bac3740eea8973f1aa6a9456f4d4c221e4d4dcb3829b2b28f8ebb6",
      "assetIds": [
        "41506478881403507969696680653240014914910929820314476107906210059990541021187"
      ]
    },
    {
      "x": 376,
      "y": 289,
      "size": 1,
      "price": "4683000000000000000000",
      "reserved": "",
      "salt": "0x37052cb0a1329c5fcbab23495f17e9d2cbe54cdc19407431e1b590dd68b598c1",
      "assetIds": [
        "41506478881403507969696680653240014914910929820314476107906210059990541021184"
      ]
    },
    {
      "x": 376,
      "y": 290,
      "size": 1,
      "price": "4683000000000000000000",
      "reserved": "",
      "salt": "0x262c41b90e6b1d87095e74b6c29ad2454556602a59b8e8cd47198afc08df309f",
      "assetIds": [
        "41506478881403507969696680653240014914910929820314476107906210059990541021188"
      ]
    },
    {
      "x": 376,
      "y": 291,
      "size": 1,
      "price": "4683000000000000000000",
      "reserved": "",
      "salt": "0xf2a6c134cfc5aa589c5e67da8f47242c9d3f87b2b5512b261d388371fbe378ab",
      "assetIds": [
        "41506478881403507969696680653240014914910929820314476107906210059990541021186"
      ]
    },
    {
      "x": 376,
      "y": 292,
      "size": 1,
      "price": "4683000000000000000000",
      "reserved": "",
      "salt": "0x44ecb69c821558bd5fb0ed733e75446b226460e0d935bbd8c1fbde781baa80dc",
      "assetIds": [
        "41506478881403507969696680653240014914910929820314476107906210059990532622336"
      ]
    },
    {
      "x": 376,
      "y": 293,
      "size": 1,
      "price": "4683000000000000000000",
      "reserved": "",
      "salt": "0x1a07b286402cd9cf8c13134057f1924d8f99a5d8f609e918cebb002fefade65e",
      "assetIds": [
        "41506478881403507969696680653240014914910929820314476107906210059990541021187"
      ]
    },
    {
      "x": 376,
      "y": 294,
      "size": 1,
      "price": "4683000000000000000000",
      "reserved": "",
      "salt": "0x950e0e576fac02904cbd764ae0d4e19fdf822885160d181bccb296211ecea27d",
      "assetIds": [
        "41506478881403507969696680653240014914910929820314476107906210059990541021187"
      ]
    },
    {
      "x": 376,
      "y": 295,
      "size": 1,
      "price": "4683000000000000000000",
      "reserved": "",
      "salt": "0x5a911f5521e508d648c92c506fd62179b3a9e22f12cb49d573b3d86a028ed188",
      "assetIds": [
        "41506478881403507969696680653240014914910929820314476107906210059990541021187"
      ]
    },
    {
      "x": 376,
      "y": 296,
      "size": 1,
      "price": "4683000000000000000000",
      "reserved": "",
      "salt": "0xd40afde86147894a17ff713df905080cf948e4212c5fc43c3b41078d8bc5b8d9",
      "assetIds": [
        "41506478881403507969696680653240014914910929820314476107906210059990541021188"
      ]
    },
    {
      "x": 376,
      "y": 297,
      "size": 1,
      "price": "4683000000000000000000",
      "reserved": "",
      "salt": "0xab965a6ad45738595328db463446c403ab266d4865cfc06afcb9ff4b6c46b5be",
      "assetIds": [
        "41506478881403507969696680653240014914910929820314476107906210059990541021187"
      ]
    },
    {
      "x": 376,
      "y": 298,
      "size": 1,
      "price": "4683000000000000000000",
      "reserved": "",
      "salt": "0xfe16793e272ed5f75ddfb923b7c41b054f7d2617805e020d42dcb3aef133fdbc",
      "assetIds": [
        "41506478881403507969696680653240014914910929820314476107906210059990541021189"
      ]
    },
    {
      "x": 376,
      "y": 299,
      "size": 1,
      "price": "4683000000000000000000",
      "reserved": "",
      "salt": "0x7d34f8fc3e97dea780b300a9883e7681cb46788d2a4c6528c48a996b3d2289a3",
      "assetIds": [
        "41506478881403507969696680653240014914910929820314476107906210059990541021184"
      ]
    },
    {
      "x": 376,
      "y": 300,
      "size": 1,
      "price": "4683000000000000000000",
      "reserved": "",
      "salt": "0x1974b6e8ca5c3ff3c3a7f871880648c72efac2ad7467ce446d5af27958d6272e",
      "assetIds": [
        "41506478881403507969696680653240014914910929820314476107906210059990541021187"
      ]
    },
    {
      "x": 376,
      "y": 301,
      "size": 1,
      "price": "4683000000000000000000",
      "reserved": "",
      "salt": "0x2051caab8210a35345fac7eebaa6dd9b218caa7521787d94e9a33e1436879e6e",
      "assetIds": [
        "41506478881403507969696680653240014914910929820314476107906210059990541021189"
      ]
    },
    {
      "x": 376,
      "y": 302,
      "size": 1,
      "price": "4683000000000000000000",
      "reserved": "",
      "salt": "0x4936842fa02856f89f19e562137102163df263f8dd60b0332f74af9671d7cb4b",
      "assetIds": [
        "41506478881403507969696680653240014914910929820314476107906210059990541021189"
      ]
    },
    {
      "x": 376,
      "y": 303,
      "size": 1,
      "price": "4683000000000000000000",
      "reserved": "",
      "salt": "0x7673ba70e9a360302f21ea18576f210a9af554ed342c6e55f0f2f372cd36905e",
      "assetIds": [
        "41506478881403507969696680653240014914910929820314476107906210059990541021184"
      ]
    },
    {
      "x": 376,
      "y": 304,
      "size": 1,
      "price": "4683000000000000000000",
      "reserved": "",
      "salt": "0xf9a0b0a07ad77ca75d00234a3c859e6ae60d8248f727a87d790b7a9548ad0b41",
      "assetIds": [
        "41506478881403507969696680653240014914910929820314476107906210059990532622336"
      ]
    },
    {
      "x": 376,
      "y": 305,
      "size": 1,
      "price": "4683000000000000000000",
      "reserved": "",
      "salt": "0x62f16f160ed50ec4e68c74a3970085f89384eff800be107d4ab5bba601de3e13",
      "assetIds": [
        "41506478881403507969696680653240014914910929820314476107906210059990541021187"
      ]
    },
    {
      "x": 377,
      "y": 231,
      "size": 1,
      "price": "4683000000000000000000",
      "reserved": "",
      "salt": "0xfd7577c84a291344a8f6c901338b5d8509933e98be831af1fa04994edbedf92e",
      "assetIds": [
        "41506478881403507969696680653240014914910929820314476107906210059990541021186"
      ]
    },
    {
      "x": 377,
      "y": 232,
      "size": 1,
      "price": "4683000000000000000000",
      "reserved": "",
      "salt": "0xa524cc04cfb5305cad3acb8613f49270c1036413ee0e4d88bd7b8ff9070fa4d0",
      "assetIds": [
        "41506478881403507969696680653240014914910929820314476107906210059990541021186"
      ]
    },
    {
      "x": 377,
      "y": 233,
      "size": 1,
      "price": "4683000000000000000000",
      "reserved": "",
      "salt": "0x18f8c70c8b8c305996f90526fe401bd38573537017777a3815c153b7550f2938",
      "assetIds": [
        "41506478881403507969696680653240014914910929820314476107906210059990541021187"
      ]
    },
    {
      "x": 377,
      "y": 276,
      "size": 1,
      "price": "4683000000000000000000",
      "reserved": "",
      "salt": "0xace53afe585fbe02f18a57ed8be8f6fe278ef6a357ef209b4053854a72ad986a",
      "assetIds": [
        "41506478881403507969696680653240014914910929820314476107906210059990541021188"
      ]
    },
    {
      "x": 377,
      "y": 277,
      "size": 1,
      "price": "4683000000000000000000",
      "reserved": "",
      "salt": "0xb8baff484b495973928dbd5b123184bb59d269e91cef645d582e0c029ff2df87",
      "assetIds": [
        "41506478881403507969696680653240014914910929820314476107906210059990541021185"
      ]
    },
    {
      "x": 377,
      "y": 278,
      "size": 1,
      "price": "4683000000000000000000",
      "reserved": "",
      "salt": "0x78a924f337a375366a5f349d285661ed0079809dee82908d3763cb8e5384cbeb",
      "assetIds": [
        "41506478881403507969696680653240014914910929820314476107906210059990541021189"
      ]
    },
    {
      "x": 377,
      "y": 279,
      "size": 1,
      "price": "4683000000000000000000",
      "reserved": "",
      "salt": "0x907ce70aa6b38eb1543065f41cb7e367a9d7f5db4fd68da32fe9ba4807ec1c58",
      "assetIds": [
        "41506478881403507969696680653240014914910929820314476107906210059990541021185"
      ]
    },
    {
      "x": 377,
      "y": 280,
      "size": 1,
      "price": "4683000000000000000000",
      "reserved": "",
      "salt": "0xb214106abd50f04c8612133f5b8d5b212acf1c1f58e28684c6728eab1ebcab5d",
      "assetIds": [
        "41506478881403507969696680653240014914910929820314476107906210059990541021184"
      ]
    },
    {
      "x": 377,
      "y": 281,
      "size": 1,
      "price": "4683000000000000000000",
      "reserved": "",
      "salt": "0x43046420a9ff0321890e3ed6a20816780ffee4541083a7765a4e8eb6a8ca46ca",
      "assetIds": [
        "41506478881403507969696680653240014914910929820314476107906210059990541021188"
      ]
    },
    {
      "x": 377,
      "y": 288,
      "size": 1,
      "price": "4683000000000000000000",
      "reserved": "",
      "salt": "0x3cc9c593e9355c8fac403ea3c03323b4e5754aa6c61a617c70daa96641a34c59",
      "assetIds": [
        "41506478881403507969696680653240014914910929820314476107906210059990541021188"
      ]
    },
    {
      "x": 377,
      "y": 289,
      "size": 1,
      "price": "4683000000000000000000",
      "reserved": "",
      "salt": "0x80da255ecfb008b3ec7cd66873782db2a6b87b4fcf6d1aefb006efcc9ad14161",
      "assetIds": [
        "41506478881403507969696680653240014914910929820314476107906210059990541021189"
      ]
    },
    {
      "x": 377,
      "y": 290,
      "size": 1,
      "price": "4683000000000000000000",
      "reserved": "",
      "salt": "0x768121b4f07a31327445254aefc8046104de2fb6be37266a5a1dc55fa8ad7161",
      "assetIds": [
        "41506478881403507969696680653240014914910929820314476107906210059990541021187"
      ]
    },
    {
      "x": 377,
      "y": 291,
      "size": 1,
      "price": "4683000000000000000000",
      "reserved": "",
      "salt": "0x3d9ec23d9dd507f8fd336c1c286aa5404a0baa3843eaf5f5c273b1f4338e9aaa",
      "assetIds": [
        "41506478881403507969696680653240014914910929820314476107906210059990541021185"
      ]
    },
    {
      "x": 377,
      "y": 292,
      "size": 1,
      "price": "4683000000000000000000",
      "reserved": "",
      "salt": "0x6905708df24a6e6e000482f39bdb0c6b9cdbefcc8685eaaa3ec8517dd34260a9",
      "assetIds": [
        "41506478881403507969696680653240014914910929820314476107906210059990541021187"
      ]
    },
    {
      "x": 377,
      "y": 293,
      "size": 1,
      "price": "4683000000000000000000",
      "reserved": "",
      "salt": "0x93465e136ca8df617f6073425839d8299c61e8cdcf560d80d94018567393e9f9",
      "assetIds": [
        "41506478881403507969696680653240014914910929820314476107906210059990541021189"
      ]
    },
    {
      "x": 377,
      "y": 294,
      "size": 1,
      "price": "4683000000000000000000",
      "reserved": "",
      "salt": "0xcb98afa10ba55e97ff941e737e3f785043fc346fe84612102878207247d7fe74",
      "assetIds": [
        "41506478881403507969696680653240014914910929820314476107906210059990541021189"
      ]
    },
    {
      "x": 377,
      "y": 295,
      "size": 1,
      "price": "4683000000000000000000",
      "reserved": "",
      "salt": "0x2c27e7e9e10226d976f661823bcc30ad7be3dd6d24c0e209e148334437dc2683",
      "assetIds": [
        "41506478881403507969696680653240014914910929820314476107906210059990541021187"
      ]
    },
    {
      "x": 377,
      "y": 296,
      "size": 1,
      "price": "4683000000000000000000",
      "reserved": "",
      "salt": "0xe498cf0de05a942586d9645e09c425faa16bed63a8b1412a3772ea3b1757e675",
      "assetIds": [
        "41506478881403507969696680653240014914910929820314476107906210059990541021185"
      ]
    },
    {
      "x": 377,
      "y": 297,
      "size": 1,
      "price": "4683000000000000000000",
      "reserved": "",
      "salt": "0x8fcb3e650aa434749b3a0546ba9b497ce97de006fbe6d1847f0783249b6f897f",
      "assetIds": [
        "41506478881403507969696680653240014914910929820314476107906210059990541021187"
      ]
    },
    {
      "x": 377,
      "y": 298,
      "size": 1,
      "price": "4683000000000000000000",
      "reserved": "",
      "salt": "0x02b4a7d42338056b764d5227d01306ac2952d508088679408550362c2622cadd",
      "assetIds": [
        "41506478881403507969696680653240014914910929820314476107906210059990541021187"
      ]
    },
    {
      "x": 377,
      "y": 299,
      "size": 1,
      "price": "4683000000000000000000",
      "reserved": "",
      "salt": "0x8b6bd063e3de71154b34665be7d4ba0ea00ea2c1f477787db707f13e54cc5caf",
      "assetIds": [
        "41506478881403507969696680653240014914910929820314476107906210059990541021188"
      ]
    },
    {
      "x": 377,
      "y": 300,
      "size": 1,
      "price": "4683000000000000000000",
      "reserved": "",
      "salt": "0x3db78b928284843b6642836f0f749ab79d2e5c5f3789b9cc8306de39645b533c",
      "assetIds": [
        "41506478881403507969696680653240014914910929820314476107906210059990532622336"
      ]
    },
    {
      "x": 377,
      "y": 301,
      "size": 1,
      "price": "4683000000000000000000",
      "reserved": "",
      "salt": "0xf82556b76ee4b300ce1c5e5ea2477d079918fb19139bfae0efb7ed4e4a6e1083",
      "assetIds": [
        "41506478881403507969696680653240014914910929820314476107906210059990541021184"
      ]
    },
    {
      "x": 377,
      "y": 302,
      "size": 1,
      "price": "4683000000000000000000",
      "reserved": "",
      "salt": "0x9b58c5793d90d7b6ee253e503084c8e7e0f1b9425a3d8b8e9047e41180c2c2af",
      "assetIds": [
        "41506478881403507969696680653240014914910929820314476107906210059990541021188"
      ]
    },
    {
      "x": 377,
      "y": 303,
      "size": 1,
      "price": "4683000000000000000000",
      "reserved": "",
      "salt": "0x53a43520274664a43ebe5c9ff7465697d4b1fa3a923c558a4aee4e9342dad206",
      "assetIds": [
        "41506478881403507969696680653240014914910929820314476107906210059990541021189"
      ]
    },
    {
      "x": 377,
      "y": 304,
      "size": 1,
      "price": "4683000000000000000000",
      "reserved": "",
      "salt": "0xd125d5665ee1f17058d469ee47b3c9789c023aa4865e5f61faf39a4c946f4ec1",
      "assetIds": [
        "41506478881403507969696680653240014914910929820314476107906210059990541021188"
      ]
    },
    {
      "x": 377,
      "y": 305,
      "size": 1,
      "price": "4683000000000000000000",
      "reserved": "",
      "salt": "0xa88191ea7535df601d4c913403533f63151e56b89af74a4e199a8c992e93d815",
      "assetIds": [
        "41506478881403507969696680653240014914910929820314476107906210059990541021186"
      ]
    },
    {
      "x": 378,
      "y": 228,
      "size": 1,
      "price": "4683000000000000000000",
      "reserved": "",
      "salt": "0xd2f328fd47cdadcddf53c05e8b03da84ff2e94b66ddb080adfaf4cf91740b2fc",
      "assetIds": [
        "41506478881403507969696680653240014914910929820314476107906210059990541021187"
      ]
    },
    {
      "x": 378,
      "y": 229,
      "size": 1,
      "price": "4683000000000000000000",
      "reserved": "",
      "salt": "0xbed43d2e039a4a5dd683371e8a0410cabb534984e83d6cdf1ab2ccfb78a94972",
      "assetIds": [
        "41506478881403507969696680653240014914910929820314476107906210059990541021184"
      ]
    },
    {
      "x": 378,
      "y": 230,
      "size": 1,
      "price": "4683000000000000000000",
      "reserved": "",
      "salt": "0x9d449a0e03442e01e77f1d2a99413ca738399218c748d38d2a7280be4846f998",
      "assetIds": [
        "41506478881403507969696680653240014914910929820314476107906210059990541021187"
      ]
    },
    {
      "x": 378,
      "y": 234,
      "size": 1,
      "price": "4683000000000000000000",
      "reserved": "",
      "salt": "0x6dac3a1ee0973bf3659cf68f9890f3df9bd045de853b555f966b91e241834458",
      "assetIds": [
        "41506478881403507969696680653240014914910929820314476107906210059990532622336"
      ]
    },
    {
      "x": 378,
      "y": 235,
      "size": 1,
      "price": "4683000000000000000000",
      "reserved": "",
      "salt": "0x67f4584fd4f0c368c787293079f4ee0e90626712d8f7cfc299ba0c12b3d5ea70",
      "assetIds": [
        "41506478881403507969696680653240014914910929820314476107906210059990541021189"
      ]
    },
    {
      "x": 378,
      "y": 236,
      "size": 1,
      "price": "4683000000000000000000",
      "reserved": "",
      "salt": "0xdebd072f3cc0b036358bbddb8369085b712826c19ac61fcb3015050b810b6e97",
      "assetIds": [
        "41506478881403507969696680653240014914910929820314476107906210059990541021187"
      ]
    },
    {
      "x": 378,
      "y": 237,
      "size": 1,
      "price": "4683000000000000000000",
      "reserved": "",
      "salt": "0x68a231fe2bf886f1bfafa148584f62e2f8146b1ac40dfa15d3ea2314d058305e",
      "assetIds": [
        "41506478881403507969696680653240014914910929820314476107906210059990541021188"
      ]
    },
    {
      "x": 378,
      "y": 238,
      "size": 1,
      "price": "4683000000000000000000",
      "reserved": "",
      "salt": "0x9753f098fad740bbec8f7be0b4beb99f7dbe0f2c84a8a97e3c6923507b99d081",
      "assetIds": [
        "41506478881403507969696680653240014914910929820314476107906210059990541021188"
      ]
    },
    {
      "x": 378,
      "y": 239,
      "size": 1,
      "price": "4683000000000000000000",
      "reserved": "",
      "salt": "0x9ab04afe957baae74f826405d4c5e26238146edbab8d831c4d6f0dcdeaae6b15",
      "assetIds": [
        "41506478881403507969696680653240014914910929820314476107906210059990541021189"
      ]
    },
    {
      "x": 378,
      "y": 282,
      "size": 1,
      "price": "4683000000000000000000",
      "reserved": "",
      "salt": "0x926be96a18493e5e72a5005f8678f21145b6b3254ac1835d74ef20c3819e9826",
      "assetIds": [
        "41506478881403507969696680653240014914910929820314476107906210059990541021188"
      ]
    },
    {
      "x": 378,
      "y": 283,
      "size": 1,
      "price": "4683000000000000000000",
      "reserved": "",
      "salt": "0x807b81b6ab635fc060747318b3c522995624b9fbdc038c01e91cbacd280f3904",
      "assetIds": [
        "41506478881403507969696680653240014914910929820314476107906210059990541021189"
      ]
    },
    {
      "x": 378,
      "y": 284,
      "size": 1,
      "price": "4683000000000000000000",
      "reserved": "",
      "salt": "0x07a6eed472988a9f28fc4d01baf20bc9ffcd0ac9a9f4fd06cc024830bbf38d98",
      "assetIds": [
        "41506478881403507969696680653240014914910929820314476107906210059990541021188"
      ]
    },
    {
      "x": 378,
      "y": 288,
      "size": 1,
      "price": "4683000000000000000000",
      "reserved": "",
      "salt": "0x80d5c781548be22a48f574791cfdf7c16468fdac0d62b15d6febaa48de5ac15b",
      "assetIds": [
        "41506478881403507969696680653240014914910929820314476107906210059990532622336"
      ]
    },
    {
      "x": 378,
      "y": 289,
      "size": 1,
      "price": "4683000000000000000000",
      "reserved": "",
      "salt": "0x808f1dbf32a84026f6aa6536530fdb313943dc66fb6e1ba047d075275dd3f81a",
      "assetIds": [
        "41506478881403507969696680653240014914910929820314476107906210059990541021187"
      ]
    },
    {
      "x": 378,
      "y": 290,
      "size": 1,
      "price": "4683000000000000000000",
      "reserved": "",
      "salt": "0x90b08e5cf8646ffc0e79a2db86d104c14b41cc319b7a73c639c2d2baca45e062",
      "assetIds": [
        "41506478881403507969696680653240014914910929820314476107906210059990541021187"
      ]
    },
    {
      "x": 378,
      "y": 300,
      "size": 1,
      "price": "4683000000000000000000",
      "reserved": "",
      "salt": "0xabf6b1833584c95b264a6ef7f40034d73ae7e04f98dc5a7e2db5e8d31fb10477",
      "assetIds": [
        "41506478881403507969696680653240014914910929820314476107906210059990541021189"
      ]
    },
    {
      "x": 378,
      "y": 301,
      "size": 1,
      "price": "4683000000000000000000",
      "reserved": "",
      "salt": "0x30feb4851ff37fa9c576e2287b61e00a2ed676e97bbe00312bc3690299b434ba",
      "assetIds": [
        "41506478881403507969696680653240014914910929820314476107906210059990541021187"
      ]
    },
    {
      "x": 378,
      "y": 302,
      "size": 1,
      "price": "4683000000000000000000",
      "reserved": "",
      "salt": "0x7c49039f7ed292dac27ab1609159a7d11bef0fce6d8b7ea8ff4ccf43a4315e98",
      "assetIds": [
        "41506478881403507969696680653240014914910929820314476107906210059990541021188"
      ]
    },
    {
      "x": 378,
      "y": 303,
      "size": 1,
      "price": "4683000000000000000000",
      "reserved": "",
      "salt": "0x028233ba6d56c7b67c12bbb5374c1fd6d97f0815c0a26b0adc198b00eda2215b",
      "assetIds": [
        "41506478881403507969696680653240014914910929820314476107906210059990541021185"
      ]
    },
    {
      "x": 378,
      "y": 304,
      "size": 1,
      "price": "4683000000000000000000",
      "reserved": "",
      "salt": "0x81c4dc501e1383c1d49415f61e58c70cfdec3ff754de482676fe78a91bcfdea2",
      "assetIds": [
        "41506478881403507969696680653240014914910929820314476107906210059990541021185"
      ]
    },
    {
      "x": 378,
      "y": 305,
      "size": 1,
      "price": "4683000000000000000000",
      "reserved": "",
      "salt": "0x4c2a3043a64adfbc501ea5e66f80892fbf7ff44b466d40dcf7adb8154bbcc7e6",
      "assetIds": [
        "41506478881403507969696680653240014914910929820314476107906210059990541021188"
      ]
    },
    {
      "x": 379,
      "y": 228,
      "size": 1,
      "price": "4683000000000000000000",
      "reserved": "",
      "salt": "0xf0b151d51c3d375758ae84bd6891524a0d0a27d35033d146e4bc00e0b566d303",
      "assetIds": [
        "41506478881403507969696680653240014914910929820314476107906210059990541021184"
      ]
    },
    {
      "x": 379,
      "y": 229,
      "size": 1,
      "price": "4683000000000000000000",
      "reserved": "",
      "salt": "0x70361099a0467076cc85a8893ade9c325df947eac03dcaa277b0a33f79cc2b45",
      "assetIds": [
        "41506478881403507969696680653240014914910929820314476107906210059990532622336"
      ]
    },
    {
      "x": 379,
      "y": 230,
      "size": 1,
      "price": "4683000000000000000000",
      "reserved": "",
      "salt": "0x81816935fdeb16c91815cbea6d8eef0c7cd7be92028698648a2f711aac1c44c1",
      "assetIds": [
        "41506478881403507969696680653240014914910929820314476107906210059990541021188"
      ]
    },
    {
      "x": 379,
      "y": 234,
      "size": 1,
      "price": "4683000000000000000000",
      "reserved": "",
      "salt": "0xe84b051813a1daae5c87a8b1c83f7dd312cc690483ee229297abfc5527e461b8",
      "assetIds": [
        "41506478881403507969696680653240014914910929820314476107906210059990541021189"
      ]
    },
    {
      "x": 379,
      "y": 235,
      "size": 1,
      "price": "4683000000000000000000",
      "reserved": "",
      "salt": "0x881ec9b2358155a12ea8180935cb2e60962ba6a1cea9b02eeb2cbe1db5f9c99e",
      "assetIds": [
        "41506478881403507969696680653240014914910929820314476107906210059990541021189"
      ]
    },
    {
      "x": 379,
      "y": 236,
      "size": 1,
      "price": "4683000000000000000000",
      "reserved": "",
      "salt": "0x72af2b4d8a2dd1a4afc3e512726273dd4ac599817610653fcdff277124322905",
      "assetIds": [
        "41506478881403507969696680653240014914910929820314476107906210059990541021184"
      ]
    },
    {
      "x": 379,
      "y": 237,
      "size": 1,
      "price": "4683000000000000000000",
      "reserved": "",
      "salt": "0xd522236beac2b40f97bcb77f2f2dcb794763805d5bdce2219508d87801e7d7a7",
      "assetIds": [
        "41506478881403507969696680653240014914910929820314476107906210059990541021188"
      ]
    },
    {
      "x": 379,
      "y": 238,
      "size": 1,
      "price": "4683000000000000000000",
      "reserved": "",
      "salt": "0xfc195d81f183e494a8c7d2ad2ebbf142f05b1555ea6573a4ba0bf2bebcb7b547",
      "assetIds": [
        "41506478881403507969696680653240014914910929820314476107906210059990541021188"
      ]
    },
    {
      "x": 379,
      "y": 239,
      "size": 1,
      "price": "4683000000000000000000",
      "reserved": "",
      "salt": "0xb46ac19532ed3b50a89d132a80b0ef289176968c9d5475fd5312d5bab4965619",
      "assetIds": [
        "41506478881403507969696680653240014914910929820314476107906210059990541021188"
      ]
    },
    {
      "x": 379,
      "y": 282,
      "size": 1,
      "price": "4683000000000000000000",
      "reserved": "",
      "salt": "0x58d174c67b819787b63177ccf94eaf2c5a78233d4d9efbded76aebe535709f8c",
      "assetIds": [
        "41506478881403507969696680653240014914910929820314476107906210059990541021185"
      ]
    },
    {
      "x": 379,
      "y": 283,
      "size": 1,
      "price": "4683000000000000000000",
      "reserved": "",
      "salt": "0x7d8158fdc926bc1624235a221634c2122477879e678b85b36521d21a928f9643",
      "assetIds": [
        "41506478881403507969696680653240014914910929820314476107906210059990541021188"
      ]
    },
    {
      "x": 379,
      "y": 284,
      "size": 1,
      "price": "4683000000000000000000",
      "reserved": "",
      "salt": "0x359c970e2a50cc33c57047dcf1963815c7dc767620d637d8b961e3cbd2d4c36c",
      "assetIds": [
        "41506478881403507969696680653240014914910929820314476107906210059990541021187"
      ]
    },
    {
      "x": 379,
      "y": 288,
      "size": 1,
      "price": "4683000000000000000000",
      "reserved": "",
      "salt": "0x75d1e32ef8110340a1fdb4c534e63f31f14964ee1ec468292532baae74faa6a7",
      "assetIds": [
        "41506478881403507969696680653240014914910929820314476107906210059990532622336"
      ]
    },
    {
      "x": 379,
      "y": 289,
      "size": 1,
      "price": "4683000000000000000000",
      "reserved": "",
      "salt": "0xe8e056c9874060238f04905b9f13e5c1b97d6333258118371f1b1bf3e185c701",
      "assetIds": [
        "41506478881403507969696680653240014914910929820314476107906210059990541021189"
      ]
    },
    {
      "x": 379,
      "y": 290,
      "size": 1,
      "price": "4683000000000000000000",
      "reserved": "",
      "salt": "0xb998827fc71d28dd6b878573247a836d23024e0e1104ca6174df0a7108726211",
      "assetIds": [
        "41506478881403507969696680653240014914910929820314476107906210059990541021188"
      ]
    },
    {
      "x": 379,
      "y": 300,
      "size": 1,
      "price": "4683000000000000000000",
      "reserved": "",
      "salt": "0xc3cb4cdd146fdf78cbdc861450d5c9b098e1e1af54d74d30d71718177023e192",
      "assetIds": [
        "41506478881403507969696680653240014914910929820314476107906210059990541021188"
      ]
    },
    {
      "x": 379,
      "y": 301,
      "size": 1,
      "price": "4683000000000000000000",
      "reserved": "",
      "salt": "0xce9053203cf2220dc59da05df891541905f240210f0d3ee6055da45c6d15508c",
      "assetIds": [
        "41506478881403507969696680653240014914910929820314476107906210059990541021184"
      ]
    },
    {
      "x": 379,
      "y": 302,
      "size": 1,
      "price": "4683000000000000000000",
      "reserved": "",
      "salt": "0x530e90ae352b8b229e98d57247024568a3038df94569d11f3b239fd44763a5f5",
      "assetIds": [
        "41506478881403507969696680653240014914910929820314476107906210059990541021187"
      ]
    },
    {
      "x": 379,
      "y": 303,
      "size": 1,
      "price": "4683000000000000000000",
      "reserved": "",
      "salt": "0x24065eb86e652d52f051592e5b6103f17d09c552fef81fe7b7efe57a6fd1fade",
      "assetIds": [
        "41506478881403507969696680653240014914910929820314476107906210059990541021189"
      ]
    },
    {
      "x": 379,
      "y": 304,
      "size": 1,
      "price": "4683000000000000000000",
      "reserved": "",
      "salt": "0x61674e038ce4374fd08dcf582fac2d80fc09163f72978b9cafd2bab3685ebeae",
      "assetIds": [
        "41506478881403507969696680653240014914910929820314476107906210059990541021186"
      ]
    },
    {
      "x": 379,
      "y": 305,
      "size": 1,
      "price": "4683000000000000000000",
      "reserved": "",
      "salt": "0xc29ac86f4f2060f3a0ea6b6a516d719dd91e315850dcda387d26ee231c0f04fa",
      "assetIds": [
        "41506478881403507969696680653240014914910929820314476107906210059990541021187"
      ]
    },
    {
      "x": 380,
      "y": 228,
      "size": 1,
      "price": "4683000000000000000000",
      "reserved": "",
      "salt": "0xfd4d7b81640696a100174f09a1c626fb30d3e699e3dde369c2fabfc254c84372",
      "assetIds": [
        "41506478881403507969696680653240014914910929820314476107906210059990541021187"
      ]
    },
    {
      "x": 380,
      "y": 229,
      "size": 1,
      "price": "4683000000000000000000",
      "reserved": "",
      "salt": "0x3d74ab39ca46a0927780ea276c43af13f8fcfb5be92d95801a92623cb789ca9e",
      "assetIds": [
        "41506478881403507969696680653240014914910929820314476107906210059990541021185"
      ]
    },
    {
      "x": 380,
      "y": 230,
      "size": 1,
      "price": "4683000000000000000000",
      "reserved": "",
      "salt": "0xae190279211d7ae895323963da4f8468690bfb6ab5b6ae70aebc44c7628f1df7",
      "assetIds": [
        "41506478881403507969696680653240014914910929820314476107906210059990541021188"
      ]
    },
    {
      "x": 380,
      "y": 234,
      "size": 1,
      "price": "4683000000000000000000",
      "reserved": "",
      "salt": "0xe16ce4d87c85985ac2940982b0e36089f908d347ddc395191e483a4a53c4dae8",
      "assetIds": [
        "41506478881403507969696680653240014914910929820314476107906210059990541021185"
      ]
    },
    {
      "x": 380,
      "y": 235,
      "size": 1,
      "price": "4683000000000000000000",
      "reserved": "",
      "salt": "0xf19ad43c822a9618bd2385ea2aca021c5c7aecf312ff7bd919a272c7435a3270",
      "assetIds": [
        "41506478881403507969696680653240014914910929820314476107906210059990541021189"
      ]
    },
    {
      "x": 380,
      "y": 236,
      "size": 1,
      "price": "4683000000000000000000",
      "reserved": "",
      "salt": "0xd8b322f2d5884924be6e31f084939530f4225ff6cd55ba44b9b6f14ae1626819",
      "assetIds": [
        "41506478881403507969696680653240014914910929820314476107906210059990541021188"
      ]
    },
    {
      "x": 380,
      "y": 237,
      "size": 1,
      "price": "4683000000000000000000",
      "reserved": "",
      "salt": "0xdd28b65210ece9fa7b46817058eda2eee7d43df08afca90c9fcdc82837626338",
      "assetIds": [
        "41506478881403507969696680653240014914910929820314476107906210059990541021186"
      ]
    },
    {
      "x": 380,
      "y": 238,
      "size": 1,
      "price": "4683000000000000000000",
      "reserved": "",
      "salt": "0xaf86011946d3089827832a59e180e9b9d40709c8bac1058827773dc6424bd318",
      "assetIds": [
        "41506478881403507969696680653240014914910929820314476107906210059990541021187"
      ]
    },
    {
      "x": 380,
      "y": 239,
      "size": 1,
      "price": "4683000000000000000000",
      "reserved": "",
      "salt": "0x6198d53f01a3bb1d4afadf9cc8b2a5b3950e331a71912ce19573e8b05b61372f",
      "assetIds": [
        "41506478881403507969696680653240014914910929820314476107906210059990541021188"
      ]
    },
    {
      "x": 380,
      "y": 282,
      "size": 1,
      "price": "4683000000000000000000",
      "reserved": "",
      "salt": "0xd3443e2f5fcdd36595eec5b63e2f96322d090945cdc86e7fbf331a085dfe84e4",
      "assetIds": [
        "41506478881403507969696680653240014914910929820314476107906210059990541021189"
      ]
    },
    {
      "x": 380,
      "y": 283,
      "size": 1,
      "price": "4683000000000000000000",
      "reserved": "",
      "salt": "0x8e4ebc32d0718151c8ffab69efa19d9d14559e6a014505552e39c903cd637345",
      "assetIds": [
        "41506478881403507969696680653240014914910929820314476107906210059990541021188"
      ]
    },
    {
      "x": 380,
      "y": 284,
      "size": 1,
      "price": "4683000000000000000000",
      "reserved": "",
      "salt": "0x582e99b2d3fc8dce6b5654c8b865a3f4619100c4a0045a1dae0744acac0863ef",
      "assetIds": [
        "41506478881403507969696680653240014914910929820314476107906210059990541021186"
      ]
    },
    {
      "x": 380,
      "y": 288,
      "size": 1,
      "price": "4683000000000000000000",
      "reserved": "",
      "salt": "0x04d8d9db6f26bc8ee71c0e75e66e3db7d79af8872ae731392fe83860fd4bc17c",
      "assetIds": [
        "41506478881403507969696680653240014914910929820314476107906210059990541021187"
      ]
    },
    {
      "x": 380,
      "y": 289,
      "size": 1,
      "price": "4683000000000000000000",
      "reserved": "",
      "salt": "0xfba9f764f3ee263f08699816d00f2ef699264c309c8ea09e4775941f3248c140",
      "assetIds": [
        "41506478881403507969696680653240014914910929820314476107906210059990541021187"
      ]
    },
    {
      "x": 380,
      "y": 290,
      "size": 1,
      "price": "4683000000000000000000",
      "reserved": "",
      "salt": "0x78460210f1a420a0c36790ed6ccb705e078a3d4c3d1bcf8f58176ab9141a385a",
      "assetIds": [
        "41506478881403507969696680653240014914910929820314476107906210059990541021189"
      ]
    },
    {
      "x": 380,
      "y": 300,
      "size": 1,
      "price": "4683000000000000000000",
      "reserved": "",
      "salt": "0x284fdac1ec595540eb6eef0e29a509367b4e73402fa1f63e5f1721e7483af6a5",
      "assetIds": [
        "41506478881403507969696680653240014914910929820314476107906210059990532622336"
      ]
    },
    {
      "x": 380,
      "y": 301,
      "size": 1,
      "price": "4683000000000000000000",
      "reserved": "",
      "salt": "0x10cdf62642a57cdc91d01c3a6e18487947c02d4339449c735c832d08ac5ef309",
      "assetIds": [
        "41506478881403507969696680653240014914910929820314476107906210059990541021186"
      ]
    },
    {
      "x": 380,
      "y": 302,
      "size": 1,
      "price": "1011000000000000000000",
      "reserved": "0x7a9fe22691c811ea339d9b73150e6911a5343dca",
      "salt": "0xf99807ca958ce18c02ff6e93c5574033e0a3488827e6de07708ac0db893b6e2f",
      "assetIds": []
    },
    {
      "x": 380,
      "y": 303,
      "size": 1,
      "price": "4683000000000000000000",
      "reserved": "",
      "salt": "0x4559cdd962eca8d7d0c59ad197f886f9407537e29115088bba14be16204fe5b1",
      "assetIds": [
        "41506478881403507969696680653240014914910929820314476107906210059990541021189"
      ]
    },
    {
      "x": 380,
      "y": 304,
      "size": 1,
      "price": "4683000000000000000000",
      "reserved": "",
      "salt": "0xa191f1c6b1295f471b3dc11ec668682e9d3e026e0e29df10515aff5a33b179d4",
      "assetIds": [
        "41506478881403507969696680653240014914910929820314476107906210059990541021188"
      ]
    },
    {
      "x": 380,
      "y": 305,
      "size": 1,
      "price": "4683000000000000000000",
      "reserved": "",
      "salt": "0xb146256a8201f4550ad78169bd8f458b84d64500c28a0fbd7a83ef2560e22be8",
      "assetIds": [
        "41506478881403507969696680653240014914910929820314476107906210059990541021185"
      ]
    },
    {
      "x": 381,
      "y": 228,
      "size": 1,
      "price": "4683000000000000000000",
      "reserved": "",
      "salt": "0x3e24ccb9a6c8da079542b10bc79db8874ca93b1fdd254a069719a61cdd6dec70",
      "assetIds": [
        "41506478881403507969696680653240014914910929820314476107906210059990541021188"
      ]
    },
    {
      "x": 381,
      "y": 229,
      "size": 1,
      "price": "4683000000000000000000",
      "reserved": "",
      "salt": "0xb57e43d5ab7cc5ed4f4e0be1d74e57a7cde4a09520595c934d2a442023cbea12",
      "assetIds": [
        "41506478881403507969696680653240014914910929820314476107906210059990541021187"
      ]
    },
    {
      "x": 381,
      "y": 230,
      "size": 1,
      "price": "4683000000000000000000",
      "reserved": "",
      "salt": "0xe840fe747fde18b929c92091f35080e1e03a3509099b437cabb887506167129c",
      "assetIds": [
        "41506478881403507969696680653240014914910929820314476107906210059990541021188"
      ]
    },
    {
      "x": 381,
      "y": 231,
      "size": 1,
      "price": "4683000000000000000000",
      "reserved": "",
      "salt": "0x1acb2c4ce21cb030ae4fa7fc396a0ec2e1e878f5b081554c6af469882e0cca29",
      "assetIds": [
        "41506478881403507969696680653240014914910929820314476107906210059990541021189"
      ]
    },
    {
      "x": 381,
      "y": 232,
      "size": 1,
      "price": "4683000000000000000000",
      "reserved": "",
      "salt": "0x372f9fad107e1a676a1f147a74171bbf979b9dcf24dec6d64ec815c4896a24a1",
      "assetIds": [
        "41506478881403507969696680653240014914910929820314476107906210059990541021188"
      ]
    },
    {
      "x": 381,
      "y": 233,
      "size": 1,
      "price": "4683000000000000000000",
      "reserved": "",
      "salt": "0xa12a6a2866fb5c76f1002b59f700e6ade2fbfe68f0726655409789889b566f19",
      "assetIds": [
        "41506478881403507969696680653240014914910929820314476107906210059990541021188"
      ]
    },
    {
      "x": 381,
      "y": 234,
      "size": 1,
      "price": "4683000000000000000000",
      "reserved": "",
      "salt": "0x79815a9491b4886cd2a224f40fe6e2a56a4dc10d8c5978a39090d409bcaa7e27",
      "assetIds": [
        "41506478881403507969696680653240014914910929820314476107906210059990541021188"
      ]
    },
    {
      "x": 381,
      "y": 235,
      "size": 1,
      "price": "4683000000000000000000",
      "reserved": "",
      "salt": "0x64f879e3eefff3b60b8adb14ae290d23d724cfb394692f077fe3c45b521c30b2",
      "assetIds": [
        "41506478881403507969696680653240014914910929820314476107906210059990541021188"
      ]
    },
    {
      "x": 381,
      "y": 236,
      "size": 1,
      "price": "1011000000000000000000",
      "reserved": "0x7a9fe22691c811ea339d9b73150e6911a5343dca",
      "salt": "0x1463d6ccc9a7057a48c9dc4694b81ab1338dc8122403d2648638bfe621e70de2",
      "assetIds": []
    },
    {
      "x": 381,
      "y": 237,
      "size": 1,
      "price": "4683000000000000000000",
      "reserved": "",
      "salt": "0x3a2e3f7702d957a0c3bffed10c6450054c882c821a389fa9d22764820ae62269",
      "assetIds": [
        "41506478881403507969696680653240014914910929820314476107906210059990541021187"
      ]
    },
    {
      "x": 381,
      "y": 238,
      "size": 1,
      "price": "4683000000000000000000",
      "reserved": "",
      "salt": "0x9d85ad4d145c1daeb0a900dcf2cd2ed7fcc0c1011851be00067c15e9a20d7ac3",
      "assetIds": [
        "41506478881403507969696680653240014914910929820314476107906210059990541021185"
      ]
    },
    {
      "x": 381,
      "y": 239,
      "size": 1,
      "price": "4683000000000000000000",
      "reserved": "",
      "salt": "0x3ba10dacc6ead1d657d8cd346538d675d6468818bd4ca34eab7f9f502696c5d9",
      "assetIds": [
        "41506478881403507969696680653240014914910929820314476107906210059990541021189"
      ]
    },
    {
      "x": 381,
      "y": 282,
      "size": 1,
      "price": "4683000000000000000000",
      "reserved": "",
      "salt": "0xd90b532cc75a63d337577af0d9b858d2615a6d62ee04d665650955ed8e69c7d5",
      "assetIds": [
        "41506478881403507969696680653240014914910929820314476107906210059990541021189"
      ]
    },
    {
      "x": 381,
      "y": 283,
      "size": 1,
      "price": "4683000000000000000000",
      "reserved": "",
      "salt": "0xd7782beb1f0709e50d9370fbb65fbebac4dea466494f2a970e35384677c37a69",
      "assetIds": [
        "41506478881403507969696680653240014914910929820314476107906210059990541021184"
      ]
    },
    {
      "x": 381,
      "y": 284,
      "size": 1,
      "price": "4683000000000000000000",
      "reserved": "",
      "salt": "0x2421c77ef024b090639a9342be1489684b6e72e4df88fa509365f537e8d66e2f",
      "assetIds": [
        "41506478881403507969696680653240014914910929820314476107906210059990541021189"
      ]
    },
    {
      "x": 381,
      "y": 288,
      "size": 1,
      "price": "4683000000000000000000",
      "reserved": "",
      "salt": "0xa973105324ae98d8d8403046b15251d6f66696743437114f2bcf2dbbafd6c972",
      "assetIds": [
        "41506478881403507969696680653240014914910929820314476107906210059990541021188"
      ]
    },
    {
      "x": 381,
      "y": 289,
      "size": 1,
      "price": "4683000000000000000000",
      "reserved": "",
      "salt": "0x630306f0416d147835e1fe4788e86b2dd43f81a522a8e48c4940bd0439230c26",
      "assetIds": [
        "41506478881403507969696680653240014914910929820314476107906210059990541021189"
      ]
    },
    {
      "x": 381,
      "y": 290,
      "size": 1,
      "price": "4683000000000000000000",
      "reserved": "",
      "salt": "0x6fc0a8e95bcb670f966d23e1184a33e536b9705b41989f0e6ff639bd785d499f",
      "assetIds": [
        "41506478881403507969696680653240014914910929820314476107906210059990541021188"
      ]
    },
    {
      "x": 381,
      "y": 291,
      "size": 1,
      "price": "4683000000000000000000",
      "reserved": "",
      "salt": "0x4f1b4125b8355530480c7f6e156600894856b80dcfca78be505a6db87a9eedc7",
      "assetIds": [
        "41506478881403507969696680653240014914910929820314476107906210059990541021189"
      ]
    },
    {
      "x": 381,
      "y": 292,
      "size": 1,
      "price": "4683000000000000000000",
      "reserved": "",
      "salt": "0xd0a081420a5ca7742c8d0e75f80545a3cd4102be5d43361fa7e2db94b509dfd4",
      "assetIds": [
        "41506478881403507969696680653240014914910929820314476107906210059990532622336"
      ]
    },
    {
      "x": 381,
      "y": 293,
      "size": 1,
      "price": "4683000000000000000000",
      "reserved": "",
      "salt": "0xfccff77dfb0713f2d832f7f2744e5acbef381bc71bd1e1209631330d1ebf2e79",
      "assetIds": [
        "41506478881403507969696680653240014914910929820314476107906210059990541021187"
      ]
    },
    {
      "x": 381,
      "y": 300,
      "size": 1,
      "price": "4683000000000000000000",
      "reserved": "",
      "salt": "0xd903862ce13478890fbe4f4e15874c064b2f5afd8c54ca0fd2990ab962912785",
      "assetIds": [
        "41506478881403507969696680653240014914910929820314476107906210059990541021185"
      ]
    },
    {
      "x": 381,
      "y": 301,
      "size": 1,
      "price": "4683000000000000000000",
      "reserved": "",
      "salt": "0xd519a7beee299912a3fbe94a13dd698949f7b195c8bb6d8fe7451e2b71a623f8",
      "assetIds": [
        "41506478881403507969696680653240014914910929820314476107906210059990541021189"
      ]
    },
    {
      "x": 381,
      "y": 302,
      "size": 1,
      "price": "4683000000000000000000",
      "reserved": "",
      "salt": "0x0376e0bebf0072196852106985371de169a384d142b4f4dd1b37a3aced7aba34",
      "assetIds": [
        "41506478881403507969696680653240014914910929820314476107906210059990541021188"
      ]
    },
    {
      "x": 381,
      "y": 303,
      "size": 1,
      "price": "4683000000000000000000",
      "reserved": "",
      "salt": "0xb9da36dbd86f169e6902be6215a6b897bf4a7e1e27893850e4410867ea85781d",
      "assetIds": [
        "41506478881403507969696680653240014914910929820314476107906210059990541021188"
      ]
    },
    {
      "x": 381,
      "y": 304,
      "size": 1,
      "price": "4683000000000000000000",
      "reserved": "",
      "salt": "0xf1dcdc2db193793e77dbb58abea620fca4a96a85fa3546fafa9386e284e3a71b",
      "assetIds": [
        "41506478881403507969696680653240014914910929820314476107906210059990541021188"
      ]
    },
    {
      "x": 381,
      "y": 305,
      "size": 1,
      "price": "4683000000000000000000",
      "reserved": "",
      "salt": "0xa544adab3cc4538b8a35cf5ee41f95ff2c16de64c924dca7e0e3a6817f1081d2",
      "assetIds": [
        "41506478881403507969696680653240014914910929820314476107906210059990541021189"
      ]
    },
    {
      "x": 382,
      "y": 228,
      "size": 1,
      "price": "4683000000000000000000",
      "reserved": "",
      "salt": "0x5e9a054d407c342adc6cf8122db16573fb45dc4f2f9153a6d46ac4005edbcad2",
      "assetIds": [
        "41506478881403507969696680653240014914910929820314476107906210059990541021188"
      ]
    },
    {
      "x": 382,
      "y": 229,
      "size": 1,
      "price": "4683000000000000000000",
      "reserved": "",
      "salt": "0x188a362c1962ab81c1b9f490462abb10a65e8ab85eb4e2086de2c034396231d7",
      "assetIds": [
        "41506478881403507969696680653240014914910929820314476107906210059990541021187"
      ]
    },
    {
      "x": 382,
      "y": 230,
      "size": 1,
      "price": "4683000000000000000000",
      "reserved": "",
      "salt": "0xa32c0d35524ee4ba550251c9c082215491e32e17ca654436ae24098cabe87555",
      "assetIds": [
        "41506478881403507969696680653240014914910929820314476107906210059990541021188"
      ]
    },
    {
      "x": 382,
      "y": 231,
      "size": 1,
      "price": "4683000000000000000000",
      "reserved": "",
      "salt": "0xd7621a82ff259658ea092ce1c040abc764f45dc62601e5759841b1656b59e52f",
      "assetIds": [
        "41506478881403507969696680653240014914910929820314476107906210059990541021189"
      ]
    },
    {
      "x": 382,
      "y": 232,
      "size": 1,
      "price": "4683000000000000000000",
      "reserved": "",
      "salt": "0x2779300fd64bdbcb72cda014288265e10eaf15d74c89cecaebe1202dc9c9c84d",
      "assetIds": [
        "41506478881403507969696680653240014914910929820314476107906210059990541021189"
      ]
    },
    {
      "x": 382,
      "y": 233,
      "size": 1,
      "price": "4683000000000000000000",
      "reserved": "",
      "salt": "0xce9d7e4010c2d851ba51f535774aa9e53c9a58ec8e61ef3a402e61221fd15e77",
      "assetIds": [
        "41506478881403507969696680653240014914910929820314476107906210059990541021187"
      ]
    },
    {
      "x": 382,
      "y": 234,
      "size": 1,
      "price": "4683000000000000000000",
      "reserved": "",
      "salt": "0x6519c7029f89d9f76bd26a7dedc0fae571a6b1a6e4be9997872e4850552efcaf",
      "assetIds": [
        "41506478881403507969696680653240014914910929820314476107906210059990541021184"
      ]
    },
    {
      "x": 382,
      "y": 235,
      "size": 1,
      "price": "4683000000000000000000",
      "reserved": "",
      "salt": "0xc535be9f3bd31754c4ad20883506d2535c7d7b076089875cf7d1201141af8681",
      "assetIds": [
        "41506478881403507969696680653240014914910929820314476107906210059990532622336"
      ]
    },
    {
      "x": 382,
      "y": 236,
      "size": 1,
      "price": "4683000000000000000000",
      "reserved": "",
      "salt": "0x0f2242f29988f376e3e42d1f779a1ae7b365bebc0f797db9d2f81fd5fec83452",
      "assetIds": [
        "41506478881403507969696680653240014914910929820314476107906210059990532622336"
      ]
    },
    {
      "x": 382,
      "y": 237,
      "size": 1,
      "price": "4683000000000000000000",
      "reserved": "",
      "salt": "0x89da89fdedf5d9f21c990139c546e6b075d38b22106d26481785eb98c8dcbaf7",
      "assetIds": [
        "41506478881403507969696680653240014914910929820314476107906210059990541021188"
      ]
    },
    {
      "x": 382,
      "y": 238,
      "size": 1,
      "price": "4683000000000000000000",
      "reserved": "",
      "salt": "0x1a49689b16176e2a9c33367185818bbec8bd44345033fe3eb268ac10ac6f21ca",
      "assetIds": [
        "41506478881403507969696680653240014914910929820314476107906210059990541021186"
      ]
    },
    {
      "x": 382,
      "y": 239,
      "size": 1,
      "price": "4683000000000000000000",
      "reserved": "",
      "salt": "0x7664955ed931208a555ef6b8a4b2ab80cf6b8eb7f8d04db997b59c990334db08",
      "assetIds": [
        "41506478881403507969696680653240014914910929820314476107906210059990541021188"
      ]
    },
    {
      "x": 382,
      "y": 282,
      "size": 1,
      "price": "4683000000000000000000",
      "reserved": "",
      "salt": "0x4c92d8eaf8d78338c8b081832f2789bbe63072f648f191faef2da74144535038",
      "assetIds": [
        "41506478881403507969696680653240014914910929820314476107906210059990541021187"
      ]
    },
    {
      "x": 382,
      "y": 283,
      "size": 1,
      "price": "1011000000000000000000",
      "reserved": "0x7a9fe22691c811ea339d9b73150e6911a5343dca",
      "salt": "0x9e7d2334f84763a312d42322fe3a7a2e9a04733c4c4a28a087fec9a56bd8452d",
      "assetIds": []
    },
    {
      "x": 382,
      "y": 284,
      "size": 1,
      "price": "4683000000000000000000",
      "reserved": "",
      "salt": "0x9c4e9dc6e51466cde008c0712ef2ff793d4e7a724ffe679a9ec2c29dd8ad7f95",
      "assetIds": [
        "41506478881403507969696680653240014914910929820314476107906210059990541021189"
      ]
    },
    {
      "x": 382,
      "y": 288,
      "size": 1,
      "price": "4683000000000000000000",
      "reserved": "",
      "salt": "0x0b87ad9f40bbbc50fcd942911c2ade49d93d0e01883e8e5eb17f5e8a99f5be6a",
      "assetIds": [
        "41506478881403507969696680653240014914910929820314476107906210059990541021189"
      ]
    },
    {
      "x": 382,
      "y": 289,
      "size": 1,
      "price": "4683000000000000000000",
      "reserved": "",
      "salt": "0xcfcbec970b3d787dd3088368394610107f253a221dd157e844a3262828f84407",
      "assetIds": [
        "41506478881403507969696680653240014914910929820314476107906210059990532622336"
      ]
    },
    {
      "x": 382,
      "y": 290,
      "size": 1,
      "price": "4683000000000000000000",
      "reserved": "",
      "salt": "0xc18edd68c2f206bfbe204b0695d6b29b1a6c0a1cdbcd1863b7c947e218b515a0",
      "assetIds": [
        "41506478881403507969696680653240014914910929820314476107906210059990541021184"
      ]
    },
    {
      "x": 382,
      "y": 291,
      "size": 1,
      "price": "4683000000000000000000",
      "reserved": "",
      "salt": "0xd087b5f7baedd7bdab98d550ad4478595926b3fb0109fd4186fe75fc0ebb42ba",
      "assetIds": [
        "41506478881403507969696680653240014914910929820314476107906210059990541021184"
      ]
    },
    {
      "x": 382,
      "y": 292,
      "size": 1,
      "price": "4683000000000000000000",
      "reserved": "",
      "salt": "0xb41ce574724b721c1bd2e1bb5204647785a7a7ca348015aa0387634fbdbc8cb9",
      "assetIds": [
        "41506478881403507969696680653240014914910929820314476107906210059990541021188"
      ]
    },
    {
      "x": 382,
      "y": 293,
      "size": 1,
      "price": "4683000000000000000000",
      "reserved": "",
      "salt": "0x3150b666e50daee4bbcff19fb0b4c793572a89bd6a69197b7e28b80daa066208",
      "assetIds": [
        "41506478881403507969696680653240014914910929820314476107906210059990532622336"
      ]
    },
    {
      "x": 382,
      "y": 300,
      "size": 1,
      "price": "4683000000000000000000",
      "reserved": "",
      "salt": "0xa01774bdf7fa15997cc875e089cc9be584bc7462ce43b43206dd6eb810b3b6e4",
      "assetIds": [
        "41506478881403507969696680653240014914910929820314476107906210059990541021189"
      ]
    },
    {
      "x": 382,
      "y": 301,
      "size": 1,
      "price": "4683000000000000000000",
      "reserved": "",
      "salt": "0x352715bfab77f3b3248a792867abbdd30f7e91fd1097a7788f7a01a56c7ee25b",
      "assetIds": [
        "41506478881403507969696680653240014914910929820314476107906210059990541021187"
      ]
    },
    {
      "x": 382,
      "y": 302,
      "size": 1,
      "price": "4683000000000000000000",
      "reserved": "",
      "salt": "0x2fcf0b2a086b40a356696f6a0332a3f9e8b0eee6ff84d29d69ad8c5fef95e438",
      "assetIds": [
        "41506478881403507969696680653240014914910929820314476107906210059990541021186"
      ]
    },
    {
      "x": 382,
      "y": 303,
      "size": 1,
      "price": "4683000000000000000000",
      "reserved": "",
      "salt": "0x5402f35e1cadad125094a34f780c288a51d76736002b4039a727d0096761bb86",
      "assetIds": [
        "41506478881403507969696680653240014914910929820314476107906210059990541021184"
      ]
    },
    {
      "x": 382,
      "y": 304,
      "size": 1,
      "price": "4683000000000000000000",
      "reserved": "",
      "salt": "0xecd62426c1790789810bffa2d2acf16893b8a2b6635e08a3ada0354502e63505",
      "assetIds": [
        "41506478881403507969696680653240014914910929820314476107906210059990541021188"
      ]
    },
    {
      "x": 382,
      "y": 305,
      "size": 1,
      "price": "4683000000000000000000",
      "reserved": "",
      "salt": "0x12d7971cd28d13862eb63ba223b64f289c25bda5730971e1f529a3b5f7034756",
      "assetIds": [
        "41506478881403507969696680653240014914910929820314476107906210059990541021189"
      ]
    },
    {
      "x": 383,
      "y": 228,
      "size": 1,
      "price": "4683000000000000000000",
      "reserved": "",
      "salt": "0x32ec0b9668a65bd310f5f2b40f12c99d3bdd4ee978b98bc2f256e487e353ee90",
      "assetIds": [
        "41506478881403507969696680653240014914910929820314476107906210059990532622336"
      ]
    },
    {
      "x": 383,
      "y": 229,
      "size": 1,
      "price": "4683000000000000000000",
      "reserved": "",
      "salt": "0xaacc388d84bf40ec03f6d9f7854e0b154820ce3ecce8a413fd13a811a93269e3",
      "assetIds": [
        "41506478881403507969696680653240014914910929820314476107906210059990541021188"
      ]
    },
    {
      "x": 383,
      "y": 230,
      "size": 1,
      "price": "4683000000000000000000",
      "reserved": "",
      "salt": "0x6a486bde12af9a94f61f67a644cb43b2256a17c9cb2af39a0665a5b600c51cb4",
      "assetIds": [
        "41506478881403507969696680653240014914910929820314476107906210059990541021184"
      ]
    },
    {
      "x": 383,
      "y": 231,
      "size": 1,
      "price": "4683000000000000000000",
      "reserved": "",
      "salt": "0xc1e6b2a905461d356eb359119a27f56484e2788cf508eb885c2c90871398fd70",
      "assetIds": [
        "41506478881403507969696680653240014914910929820314476107906210059990541021187"
      ]
    },
    {
      "x": 383,
      "y": 232,
      "size": 1,
      "price": "4683000000000000000000",
      "reserved": "",
      "salt": "0x14f8c5e3b850675352d64d1896e198fc2ae1b8db11bc29364dfc118dfe241d42",
      "assetIds": [
        "41506478881403507969696680653240014914910929820314476107906210059990541021189"
      ]
    },
    {
      "x": 383,
      "y": 233,
      "size": 1,
      "price": "4683000000000000000000",
      "reserved": "",
      "salt": "0xc9133ec8b08876458a140c7073dda5b18b6be64a229f7707bae646052adea39a",
      "assetIds": [
        "41506478881403507969696680653240014914910929820314476107906210059990541021189"
      ]
    },
    {
      "x": 383,
      "y": 234,
      "size": 1,
      "price": "4683000000000000000000",
      "reserved": "",
      "salt": "0x2d185d68fd858a1c424530ddcda920a8bea31345723c32738235d643cab4cb94",
      "assetIds": [
        "41506478881403507969696680653240014914910929820314476107906210059990532622336"
      ]
    },
    {
      "x": 383,
      "y": 235,
      "size": 1,
      "price": "4683000000000000000000",
      "reserved": "",
      "salt": "0xcc4022efa6fdfdf2810f0fa80ac756b9ee5d552e31a9773a45e48c319e78973e",
      "assetIds": [
        "41506478881403507969696680653240014914910929820314476107906210059990541021187"
      ]
    },
    {
      "x": 383,
      "y": 236,
      "size": 1,
      "price": "4683000000000000000000",
      "reserved": "",
      "salt": "0x6d1ab49665a3ed054fe402aa46ad7e8f686ca0c8224af5bbe973f96819e8736a",
      "assetIds": [
        "41506478881403507969696680653240014914910929820314476107906210059990541021188"
      ]
    },
    {
      "x": 383,
      "y": 237,
      "size": 1,
      "price": "4683000000000000000000",
      "reserved": "",
      "salt": "0xb8c9e2bc5207d24783ceec2d1941f44aebc8db059edd38f6985b7cbf3c9bb269",
      "assetIds": [
        "41506478881403507969696680653240014914910929820314476107906210059990541021187"
      ]
    },
    {
      "x": 383,
      "y": 238,
      "size": 1,
      "price": "4683000000000000000000",
      "reserved": "",
      "salt": "0xfa7965cee15a47326988efb310ae811565bcfe220155d50f920f52156ed9fef6",
      "assetIds": [
        "41506478881403507969696680653240014914910929820314476107906210059990541021188"
      ]
    },
    {
      "x": 383,
      "y": 239,
      "size": 1,
      "price": "4683000000000000000000",
      "reserved": "",
      "salt": "0x5df564321d3e537b0fd7c1176e7217a143087ffe656da4fa634b420883711c44",
      "assetIds": [
        "41506478881403507969696680653240014914910929820314476107906210059990541021184"
      ]
    },
    {
      "x": 383,
      "y": 282,
      "size": 1,
      "price": "4683000000000000000000",
      "reserved": "",
      "salt": "0xf72c88ba2972cb599abbef2c767efa7e36f427b09f8b40bf437f6779bad20be4",
      "assetIds": [
        "41506478881403507969696680653240014914910929820314476107906210059990541021188"
      ]
    },
    {
      "x": 383,
      "y": 283,
      "size": 1,
      "price": "4683000000000000000000",
      "reserved": "",
      "salt": "0xe24256427830650e20da03ecaf46b32e9e4af2b7656dacc475ca1e782be4da01",
      "assetIds": [
        "41506478881403507969696680653240014914910929820314476107906210059990541021184"
      ]
    },
    {
      "x": 383,
      "y": 284,
      "size": 1,
      "price": "4683000000000000000000",
      "reserved": "",
      "salt": "0xcd7b8ff2cc04943a024d6adddf815800f652e5b19a406591d9a24700f2476b5d",
      "assetIds": [
        "41506478881403507969696680653240014914910929820314476107906210059990541021189"
      ]
    },
    {
      "x": 383,
      "y": 288,
      "size": 1,
      "price": "4683000000000000000000",
      "reserved": "",
      "salt": "0x0d75fcf69bebf0828ec2848fb728c5022110ee051ab7b43fd37567f255379136",
      "assetIds": [
        "41506478881403507969696680653240014914910929820314476107906210059990541021184"
      ]
    },
    {
      "x": 383,
      "y": 289,
      "size": 1,
      "price": "4683000000000000000000",
      "reserved": "",
      "salt": "0x73351debd7cd9923d617efbd91b3e43853cf89151ab149a86e56c8d3bac6c0b5",
      "assetIds": [
        "41506478881403507969696680653240014914910929820314476107906210059990541021189"
      ]
    },
    {
      "x": 383,
      "y": 290,
      "size": 1,
      "price": "4683000000000000000000",
      "reserved": "",
      "salt": "0x616bfca840af2cdfa36b673a15d353075b90dabd4ecb039614b40feaaa5df2d2",
      "assetIds": [
        "41506478881403507969696680653240014914910929820314476107906210059990541021187"
      ]
    },
    {
      "x": 383,
      "y": 291,
      "size": 1,
      "price": "4683000000000000000000",
      "reserved": "",
      "salt": "0x33b47f1ef24464eebf32e52ff377066fc721bfd7b7b670b93ad5e33bec9a5fc4",
      "assetIds": [
        "41506478881403507969696680653240014914910929820314476107906210059990541021187"
      ]
    },
    {
      "x": 383,
      "y": 292,
      "size": 1,
      "price": "4683000000000000000000",
      "reserved": "",
      "salt": "0x0c64eb059631e809a6d5aa01e163591fb10d03550eb356433925c099730b864a",
      "assetIds": [
        "41506478881403507969696680653240014914910929820314476107906210059990541021186"
      ]
    },
    {
      "x": 383,
      "y": 293,
      "size": 1,
      "price": "4683000000000000000000",
      "reserved": "",
      "salt": "0xcf8b2e8af1bc76b6f39282bef712b6068d1dbe2cccab282988e20ec3a36db5cb",
      "assetIds": [
        "41506478881403507969696680653240014914910929820314476107906210059990541021188"
      ]
    },
    {
      "x": 383,
      "y": 300,
      "size": 1,
      "price": "4683000000000000000000",
      "reserved": "",
      "salt": "0x4e9428291eb4c6e3513f49c56625d1737da153edc3300b1f1ac7f2d6e79adfd7",
      "assetIds": [
        "41506478881403507969696680653240014914910929820314476107906210059990541021184"
      ]
    },
    {
      "x": 383,
      "y": 301,
      "size": 1,
      "price": "4683000000000000000000",
      "reserved": "",
      "salt": "0x3a41eb41aa96a15476afb4cf6b8e982ab70341c1570f5a50d9a1156ae606f49d",
      "assetIds": [
        "41506478881403507969696680653240014914910929820314476107906210059990541021189"
      ]
    },
    {
      "x": 383,
      "y": 302,
      "size": 1,
      "price": "4683000000000000000000",
      "reserved": "",
      "salt": "0x968c430104df6e852f4e92fc81bc78805ea56f12095b6b5908553055a2da66ce",
      "assetIds": [
        "41506478881403507969696680653240014914910929820314476107906210059990541021188"
      ]
    },
    {
      "x": 383,
      "y": 303,
      "size": 1,
      "price": "4683000000000000000000",
      "reserved": "",
      "salt": "0x76eb4c20e1bb7095dce7dc5756cdf0249f1fa17d3411cde1ebdd6a5f723cff67",
      "assetIds": [
        "41506478881403507969696680653240014914910929820314476107906210059990541021189"
      ]
    },
    {
      "x": 383,
      "y": 304,
      "size": 1,
      "price": "4683000000000000000000",
      "reserved": "",
      "salt": "0x14d2bd287c20514a54b2f23c5cf76fc22f73d56d75c870b9611d82a1f0f0c1e5",
      "assetIds": [
        "41506478881403507969696680653240014914910929820314476107906210059990541021189"
      ]
    },
    {
      "x": 383,
      "y": 305,
      "size": 1,
      "price": "4683000000000000000000",
      "reserved": "",
      "salt": "0xf851990f97e4e16db46d3a746ae1ef4badfdacabc48910cc8669252b4f879f45",
      "assetIds": [
        "41506478881403507969696680653240014914910929820314476107906210059990541021185"
      ]
    },
    {
      "x": 384,
      "y": 225,
      "size": 1,
      "price": "4683000000000000000000",
      "reserved": "",
      "salt": "0x36c4d662e17ebf6370e99be45ce4deb317e2c97a69a8dd385c169623efbbd76e",
      "assetIds": [
        "41506478881403507969696680653240014914910929820314476107906210059990541021187"
      ]
    },
    {
      "x": 384,
      "y": 226,
      "size": 1,
      "price": "4683000000000000000000",
      "reserved": "",
      "salt": "0x46357e83dab6adfcad2f532935531510b7b433bae57ce2b672a26c05106d4c19",
      "assetIds": [
        "41506478881403507969696680653240014914910929820314476107906210059990541021188"
      ]
    },
    {
      "x": 384,
      "y": 227,
      "size": 1,
      "price": "4683000000000000000000",
      "reserved": "",
      "salt": "0x068f817ffd047d432c0a564be1d400f5a36c556b771c6cbdedac2e7b46c2f2d3",
      "assetIds": [
        "41506478881403507969696680653240014914910929820314476107906210059990541021187"
      ]
    },
    {
      "x": 384,
      "y": 228,
      "size": 1,
      "price": "4683000000000000000000",
      "reserved": "",
      "salt": "0x8480f3f5e8d2a0160a777f04283c1187016b5e161b709318c62387106d983248",
      "assetIds": [
        "41506478881403507969696680653240014914910929820314476107906210059990541021187"
      ]
    },
    {
      "x": 384,
      "y": 229,
      "size": 1,
      "price": "4683000000000000000000",
      "reserved": "",
      "salt": "0x41dabd4c7204b998258e69e27d140c270acc5c2374ec7aad0cfb07f25968c081",
      "assetIds": [
        "41506478881403507969696680653240014914910929820314476107906210059990541021187"
      ]
    },
    {
      "x": 384,
      "y": 230,
      "size": 1,
      "price": "4683000000000000000000",
      "reserved": "",
      "salt": "0xd62eacabb3433ce794ae254cdf20fd034e16167ccec2b6f1d66d909980549a8b",
      "assetIds": [
        "41506478881403507969696680653240014914910929820314476107906210059990541021186"
      ]
    },
    {
      "x": 384,
      "y": 231,
      "size": 1,
      "price": "4683000000000000000000",
      "reserved": "",
      "salt": "0x8502886a2aa3e66922d83db368708f2af58afcda2f7ab91c77d343813aaccfd0",
      "assetIds": [
        "41506478881403507969696680653240014914910929820314476107906210059990532622336"
      ]
    },
    {
      "x": 384,
      "y": 232,
      "size": 1,
      "price": "4683000000000000000000",
      "reserved": "",
      "salt": "0x9996565396df1e3b8802f783859da60e0707a85ee0ea708122e740cc53129df8",
      "assetIds": [
        "41506478881403507969696680653240014914910929820314476107906210059990541021188"
      ]
    },
    {
      "x": 384,
      "y": 233,
      "size": 1,
      "price": "4683000000000000000000",
      "reserved": "",
      "salt": "0x6d271b6f7f015a5a90ce178b77b2b7e532b4bd88e280675c9ec99f6964c20e50",
      "assetIds": [
        "41506478881403507969696680653240014914910929820314476107906210059990541021189"
      ]
    },
    {
      "x": 384,
      "y": 234,
      "size": 1,
      "price": "4683000000000000000000",
      "reserved": "",
      "salt": "0x7c2dbd90fe316c7a255838adacf3fbea3f66b1cc4353baf9486d48a02f1234fe",
      "assetIds": [
        "41506478881403507969696680653240014914910929820314476107906210059990541021187"
      ]
    },
    {
      "x": 384,
      "y": 235,
      "size": 1,
      "price": "4683000000000000000000",
      "reserved": "",
      "salt": "0x786998038c73da1188e02b24427ab4b8e2ceb4daa2cc19dc426e4641f786ce01",
      "assetIds": [
        "41506478881403507969696680653240014914910929820314476107906210059990541021187"
      ]
    },
    {
      "x": 384,
      "y": 236,
      "size": 1,
      "price": "4683000000000000000000",
      "reserved": "",
      "salt": "0x87db079d14bad78e7398b499f9a14344a79684c86f02ffe102e96c078e6126c2",
      "assetIds": [
        "41506478881403507969696680653240014914910929820314476107906210059990541021188"
      ]
    },
    {
      "x": 384,
      "y": 237,
      "size": 1,
      "price": "4683000000000000000000",
      "reserved": "",
      "salt": "0x22fc97ba3bb25a4fde3037c0879d9dc63a3f4021cfd26094388f03f60c6d1ac4",
      "assetIds": [
        "41506478881403507969696680653240014914910929820314476107906210059990541021184"
      ]
    },
    {
      "x": 384,
      "y": 238,
      "size": 1,
      "price": "4683000000000000000000",
      "reserved": "",
      "salt": "0x43908e6b8005aa9660cbb6b5473250e96d7fe3a0c5e9b0739e4e93f65b6c3c7f",
      "assetIds": [
        "41506478881403507969696680653240014914910929820314476107906210059990532622336"
      ]
    },
    {
      "x": 384,
      "y": 239,
      "size": 1,
      "price": "4683000000000000000000",
      "reserved": "",
      "salt": "0x6446dbbf0b2e8595ffd07262cc5dd028b4628c49d5b6d1480dca2974474b0411",
      "assetIds": [
        "41506478881403507969696680653240014914910929820314476107906210059990541021187"
      ]
    },
    {
      "x": 384,
      "y": 255,
      "size": 1,
      "price": "4683000000000000000000",
      "reserved": "",
      "salt": "0x3f28a38c93448a2d187ad7360e60373123058da7b2b259cdc006278830eef6e8",
      "assetIds": [
        "41506478881403507969696680653240014914910929820314476107906210059990532622336"
      ]
    },
    {
      "x": 384,
      "y": 256,
      "size": 1,
      "price": "4683000000000000000000",
      "reserved": "",
      "salt": "0xfd6a4b7a20f1080f67f6054e566d24e78414baa469ff384a2b402eb28ec8398f",
      "assetIds": [
        "41506478881403507969696680653240014914910929820314476107906210059990541021188"
      ]
    },
    {
      "x": 384,
      "y": 257,
      "size": 1,
      "price": "4683000000000000000000",
      "reserved": "",
      "salt": "0xfbce48c2cdcadc6492bbd55bf3d833a171bbca110c69c13a4894de05c1c73416",
      "assetIds": [
        "41506478881403507969696680653240014914910929820314476107906210059990541021188"
      ]
    },
    {
      "x": 384,
      "y": 294,
      "size": 1,
      "price": "4683000000000000000000",
      "reserved": "",
      "salt": "0x7ed6af48f2453a4e5579457f0ca4c6b45609cd3cecbdc766a20b890339428deb",
      "assetIds": [
        "41506478881403507969696680653240014914910929820314476107906210059990541021189"
      ]
    },
    {
      "x": 384,
      "y": 295,
      "size": 1,
      "price": "4683000000000000000000",
      "reserved": "",
      "salt": "0x8cbeb10c68551ababbaac7480d6fa3f6ce6e8e55d66ab86b84414ba8d545ebba",
      "assetIds": [
        "41506478881403507969696680653240014914910929820314476107906210059990541021189"
      ]
    },
    {
      "x": 384,
      "y": 296,
      "size": 1,
      "price": "4683000000000000000000",
      "reserved": "",
      "salt": "0x61482970eeb665657db2cbddb5de197876e12322f0bd3fbcbee362d8f94a24cc",
      "assetIds": [
        "41506478881403507969696680653240014914910929820314476107906210059990541021187"
      ]
    },
    {
      "x": 384,
      "y": 297,
      "size": 1,
      "price": "4683000000000000000000",
      "reserved": "",
      "salt": "0x10dff1c5dcbd338686b5e219116add2e252bf1f05d7039e36493bd8764783f98",
      "assetIds": [
        "41506478881403507969696680653240014914910929820314476107906210059990541021185"
      ]
    },
    {
      "x": 384,
      "y": 298,
      "size": 1,
      "price": "4683000000000000000000",
      "reserved": "",
      "salt": "0x3ac248d03ea675dcf8c4e349e5df159b32c666dd230b9dbed7878fae929b7187",
      "assetIds": [
        "41506478881403507969696680653240014914910929820314476107906210059990541021189"
      ]
    },
    {
      "x": 384,
      "y": 299,
      "size": 1,
      "price": "4683000000000000000000",
      "reserved": "",
      "salt": "0x7a77698669b6a04d715744585eab666362ca19624f0193e7ccb28c48edff7f6f",
      "assetIds": [
        "41506478881403507969696680653240014914910929820314476107906210059990541021187"
      ]
    },
    {
      "x": 385,
      "y": 225,
      "size": 1,
      "price": "4683000000000000000000",
      "reserved": "",
      "salt": "0x24cfea674a7a4739d7673383e0e7458f1668094e3ee3b17dedf2c41510e3404d",
      "assetIds": [
        "41506478881403507969696680653240014914910929820314476107906210059990541021184"
      ]
    },
    {
      "x": 385,
      "y": 226,
      "size": 1,
      "price": "4683000000000000000000",
      "reserved": "",
      "salt": "0x498e25095e465c61c80780db6d6466544e6c3f8ab772bbf913def6ce232e1a39",
      "assetIds": [
        "41506478881403507969696680653240014914910929820314476107906210059990541021187"
      ]
    },
    {
      "x": 385,
      "y": 227,
      "size": 1,
      "price": "4683000000000000000000",
      "reserved": "",
      "salt": "0x82b13706c143525a1e44b8e786aa5c70f718c2847d2ea8a7563495f6556a18eb",
      "assetIds": [
        "41506478881403507969696680653240014914910929820314476107906210059990541021184"
      ]
    },
    {
      "x": 385,
      "y": 228,
      "size": 1,
      "price": "4683000000000000000000",
      "reserved": "",
      "salt": "0xa06fca253b0bd55f97435c5ead13becb2f947224ee823333646290fb99d1cd5c",
      "assetIds": [
        "41506478881403507969696680653240014914910929820314476107906210059990541021187"
      ]
    },
    {
      "x": 385,
      "y": 229,
      "size": 1,
      "price": "1011000000000000000000",
      "reserved": "0x7a9fe22691c811ea339d9b73150e6911a5343dca",
      "salt": "0x8b6ac3f22bad015f7a3b7dc283a40f4040fcde7acc06524a6d0011ac9c06aaac",
      "assetIds": []
    },
    {
      "x": 385,
      "y": 230,
      "size": 1,
      "price": "4683000000000000000000",
      "reserved": "",
      "salt": "0x7f7896985224934e5147bf72746b2473a89c81137bced58af12d72b26ac6c7ad",
      "assetIds": [
        "41506478881403507969696680653240014914910929820314476107906210059990541021188"
      ]
    },
    {
      "x": 385,
      "y": 231,
      "size": 1,
      "price": "4683000000000000000000",
      "reserved": "",
      "salt": "0x2dc8739134f6baef0c9e54ef5159f9d9b5e6e1bd60294e89d34a4434ebd5f57c",
      "assetIds": [
        "41506478881403507969696680653240014914910929820314476107906210059990532622336"
      ]
    },
    {
      "x": 385,
      "y": 232,
      "size": 1,
      "price": "4683000000000000000000",
      "reserved": "",
      "salt": "0x51da91df0a18d7b02817b61795ca7f1230572689c9af1fa679892a83d5376d8c",
      "assetIds": [
        "41506478881403507969696680653240014914910929820314476107906210059990541021188"
      ]
    },
    {
      "x": 385,
      "y": 233,
      "size": 1,
      "price": "4683000000000000000000",
      "reserved": "",
      "salt": "0xe08ab441b88266421d529edb4957e0f1ff09d723bd553a92d79e73addd471154",
      "assetIds": [
        "41506478881403507969696680653240014914910929820314476107906210059990541021186"
      ]
    },
    {
      "x": 385,
      "y": 234,
      "size": 1,
      "price": "4683000000000000000000",
      "reserved": "",
      "salt": "0x60e096b2f5f30e54b080557002d39e908f7a86d3ca9e08e0350640b95db6f383",
      "assetIds": [
        "41506478881403507969696680653240014914910929820314476107906210059990541021185"
      ]
    },
    {
      "x": 385,
      "y": 235,
      "size": 1,
      "price": "4683000000000000000000",
      "reserved": "",
      "salt": "0x8be770a1e1e90a711edbe232fe67be9076d68566caf92094167f6f80597c26f1",
      "assetIds": [
        "41506478881403507969696680653240014914910929820314476107906210059990541021186"
      ]
    },
    {
      "x": 385,
      "y": 236,
      "size": 1,
      "price": "4683000000000000000000",
      "reserved": "",
      "salt": "0xe47bfea3e0c1f0c6c1ad08c3d2dc5109de1fb72149ea4d02051125966dc46604",
      "assetIds": [
        "41506478881403507969696680653240014914910929820314476107906210059990532622336"
      ]
    },
    {
      "x": 385,
      "y": 237,
      "size": 1,
      "price": "1011000000000000000000",
      "reserved": "0x7a9fe22691c811ea339d9b73150e6911a5343dca",
      "salt": "0xdd8e8a4586f0cd2eacf18341cbdad0a553d76889028fab661e9206d1d9404bb4",
      "assetIds": []
    },
    {
      "x": 385,
      "y": 238,
      "size": 1,
      "price": "4683000000000000000000",
      "reserved": "",
      "salt": "0xa9dfdf3de24a8294aa9e2805bce260838fc58cd9ba200971a8d928787cfa936f",
      "assetIds": [
        "41506478881403507969696680653240014914910929820314476107906210059990541021187"
      ]
    },
    {
      "x": 385,
      "y": 239,
      "size": 1,
      "price": "4683000000000000000000",
      "reserved": "",
      "salt": "0xfa20146347fa0646010192114b0a6c29d4aca504a12eb121d6247c27510a963f",
      "assetIds": [
        "41506478881403507969696680653240014914910929820314476107906210059990541021188"
      ]
    },
    {
      "x": 385,
      "y": 255,
      "size": 1,
      "price": "4683000000000000000000",
      "reserved": "",
      "salt": "0x3f86363d8178242c41c188dc4f1ade2e770047ec3cf844aef01bed9fec822090",
      "assetIds": [
        "41506478881403507969696680653240014914910929820314476107906210059990541021187"
      ]
    },
    {
      "x": 385,
      "y": 256,
      "size": 1,
      "price": "1011000000000000000000",
      "reserved": "0x7a9fe22691c811ea339d9b73150e6911a5343dca",
      "salt": "0x472d31df2a48403b527010f5b85448d39a2395eaaf5386eae1defcda6ec8b026",
      "assetIds": []
    },
    {
      "x": 385,
      "y": 257,
      "size": 1,
      "price": "4683000000000000000000",
      "reserved": "",
      "salt": "0x9bbe5fb9020ab7b82a834056780edf5df1cc9fa0f880192d5809a51fdc0cddf5",
      "assetIds": [
        "41506478881403507969696680653240014914910929820314476107906210059990541021187"
      ]
    },
    {
      "x": 385,
      "y": 294,
      "size": 1,
      "price": "4683000000000000000000",
      "reserved": "",
      "salt": "0x74be61019c942489b1e69897b3b199e219430217468eab43a449f12dacec25a3",
      "assetIds": [
        "41506478881403507969696680653240014914910929820314476107906210059990541021189"
      ]
    },
    {
      "x": 385,
      "y": 295,
      "size": 1,
      "price": "4683000000000000000000",
      "reserved": "",
      "salt": "0xe5d8c7d648e9375190e47c7b627cb02096a1e7753a159b8fd316fd08932d20bb",
      "assetIds": [
        "41506478881403507969696680653240014914910929820314476107906210059990541021187"
      ]
    },
    {
      "x": 385,
      "y": 296,
      "size": 1,
      "price": "4683000000000000000000",
      "reserved": "",
      "salt": "0xb0222a51c22f132c3ae22e9f322c9049a1ab73318fce968f7dc5b76a76bce980",
      "assetIds": [
        "41506478881403507969696680653240014914910929820314476107906210059990541021188"
      ]
    },
    {
      "x": 385,
      "y": 297,
      "size": 1,
      "price": "4683000000000000000000",
      "reserved": "",
      "salt": "0xffd28cd2eaca8fbce4de3e5a69fee42503df710e080dcecfdc9835d23cca8a3a",
      "assetIds": [
        "41506478881403507969696680653240014914910929820314476107906210059990541021184"
      ]
    },
    {
      "x": 385,
      "y": 298,
      "size": 1,
      "price": "4683000000000000000000",
      "reserved": "",
      "salt": "0xfd993ffd8269e92784dc6a397c2ea7b42af3360653b461445dee595788acfe6b",
      "assetIds": [
        "41506478881403507969696680653240014914910929820314476107906210059990541021185"
      ]
    },
    {
      "x": 385,
      "y": 299,
      "size": 1,
      "price": "4683000000000000000000",
      "reserved": "",
      "salt": "0x40b50545758b056aaa7b0e411308ccc86cf67b4cf6c82c06c2e42ae84a492f26",
      "assetIds": [
        "41506478881403507969696680653240014914910929820314476107906210059990532622336"
      ]
    },
    {
      "x": 386,
      "y": 225,
      "size": 1,
      "price": "4683000000000000000000",
      "reserved": "",
      "salt": "0xbc43429c504c9206d21778bbff13285a093139ce02bc0f289011b7f3b4d74fb6",
      "assetIds": [
        "41506478881403507969696680653240014914910929820314476107906210059990541021187"
      ]
    },
    {
      "x": 386,
      "y": 226,
      "size": 1,
      "price": "4683000000000000000000",
      "reserved": "",
      "salt": "0x1613103eeecb3d1be049796558d85469878d897c2cfbda9b8f8b35ef20cd47f0",
      "assetIds": [
        "41506478881403507969696680653240014914910929820314476107906210059990541021184"
      ]
    },
    {
      "x": 386,
      "y": 227,
      "size": 1,
      "price": "4683000000000000000000",
      "reserved": "",
      "salt": "0xd14f19bc641e0d6fabd2816bda69bf11e788ca8fd08c08c4610de8668782f379",
      "assetIds": [
        "41506478881403507969696680653240014914910929820314476107906210059990541021188"
      ]
    },
    {
      "x": 386,
      "y": 228,
      "size": 1,
      "price": "4683000000000000000000",
      "reserved": "",
      "salt": "0x4fc22a5e71bacafa121bcfb6053a4ca6a2565fcc6316c7ec8488c1aa805c72bc",
      "assetIds": [
        "41506478881403507969696680653240014914910929820314476107906210059990541021189"
      ]
    },
    {
      "x": 386,
      "y": 229,
      "size": 1,
      "price": "4683000000000000000000",
      "reserved": "",
      "salt": "0x324e51a312d1ce523899e81f650f4fda109094163329f5f0ea9ca3a14f806146",
      "assetIds": [
        "41506478881403507969696680653240014914910929820314476107906210059990541021187"
      ]
    },
    {
      "x": 386,
      "y": 230,
      "size": 1,
      "price": "4683000000000000000000",
      "reserved": "",
      "salt": "0x106d4eaa3749457cfa4d431695dad48ffce2d8de396d85280c6d9bf9a8c5484b",
      "assetIds": [
        "41506478881403507969696680653240014914910929820314476107906210059990541021189"
      ]
    },
    {
      "x": 386,
      "y": 231,
      "size": 1,
      "price": "4683000000000000000000",
      "reserved": "",
      "salt": "0x83f4f163a06388e91ed3c10d8ea2a116c497eff76e775b882d44f7ce231f5d0c",
      "assetIds": [
        "41506478881403507969696680653240014914910929820314476107906210059990541021188"
      ]
    },
    {
      "x": 386,
      "y": 232,
      "size": 1,
      "price": "4683000000000000000000",
      "reserved": "",
      "salt": "0xe7f272477147fe48bf3c0a1e2a434e8b73ede13b346a040c040f6910d0816e51",
      "assetIds": [
        "41506478881403507969696680653240014914910929820314476107906210059990541021189"
      ]
    },
    {
      "x": 386,
      "y": 233,
      "size": 1,
      "price": "4683000000000000000000",
      "reserved": "",
      "salt": "0xf86a30a01b7d0d30dde1abc17559342f8688e089498a9547102c37f5efaf9a03",
      "assetIds": [
        "41506478881403507969696680653240014914910929820314476107906210059990541021187"
      ]
    },
    {
      "x": 386,
      "y": 234,
      "size": 1,
      "price": "4683000000000000000000",
      "reserved": "",
      "salt": "0xb483c43dbfda17d2c093eccf3594d29eac5c727c17638fbd47a6bbe4971531cf",
      "assetIds": [
        "41506478881403507969696680653240014914910929820314476107906210059990541021184"
      ]
    },
    {
      "x": 386,
      "y": 235,
      "size": 1,
      "price": "4683000000000000000000",
      "reserved": "",
      "salt": "0xb8d4eb2527617d14af8f8e9f10df0fc3068a1e9f89c432cf43d7f9d0875d3c6c",
      "assetIds": [
        "41506478881403507969696680653240014914910929820314476107906210059990541021188"
      ]
    },
    {
      "x": 386,
      "y": 236,
      "size": 1,
      "price": "4683000000000000000000",
      "reserved": "",
      "salt": "0x491f99ac476e9fadeadcc006b68da9d24bb1d251b39f2bd71ca80bc0fc04a18c",
      "assetIds": [
        "41506478881403507969696680653240014914910929820314476107906210059990541021188"
      ]
    },
    {
      "x": 386,
      "y": 237,
      "size": 1,
      "price": "4683000000000000000000",
      "reserved": "",
      "salt": "0x687179fde729c8605bff9bebc1f60ab476053007ed65600b5845ae14c8d9aa92",
      "assetIds": [
        "41506478881403507969696680653240014914910929820314476107906210059990541021189"
      ]
    },
    {
      "x": 386,
      "y": 238,
      "size": 1,
      "price": "4683000000000000000000",
      "reserved": "",
      "salt": "0x0e1fc0857e125c49b8cc3d9c507417863c44fded5b125ee4108ac425ec6ac650",
      "assetIds": [
        "41506478881403507969696680653240014914910929820314476107906210059990541021186"
      ]
    },
    {
      "x": 386,
      "y": 239,
      "size": 1,
      "price": "4683000000000000000000",
      "reserved": "",
      "salt": "0xdaaeab474b0ffbfed99426dded95320790839e319f972609791241ba1ca641dc",
      "assetIds": [
        "41506478881403507969696680653240014914910929820314476107906210059990541021187"
      ]
    },
    {
      "x": 386,
      "y": 255,
      "size": 1,
      "price": "4683000000000000000000",
      "reserved": "",
      "salt": "0xad639a2d7eca884552ded69840208c87ad82d9c414545dab82d9afcd73dca992",
      "assetIds": [
        "41506478881403507969696680653240014914910929820314476107906210059990541021185"
      ]
    },
    {
      "x": 386,
      "y": 256,
      "size": 1,
      "price": "4683000000000000000000",
      "reserved": "",
      "salt": "0xc940ea53e666e45c684ae7d53c91850a8fe3cb22292684ec87c9037f33e3b784",
      "assetIds": [
        "41506478881403507969696680653240014914910929820314476107906210059990541021184"
      ]
    },
    {
      "x": 386,
      "y": 257,
      "size": 1,
      "price": "4683000000000000000000",
      "reserved": "",
      "salt": "0xd18c867b73329abbbfce3de8b21c86fa392c1652dc41d9b940ec30d16f6d0af3",
      "assetIds": [
        "41506478881403507969696680653240014914910929820314476107906210059990541021186"
      ]
    },
    {
      "x": 386,
      "y": 294,
      "size": 1,
      "price": "4683000000000000000000",
      "reserved": "",
      "salt": "0x1214eee90af87c7d08cb26edc98980ad7735e23a959bd8652e8ff056de502d6a",
      "assetIds": [
        "41506478881403507969696680653240014914910929820314476107906210059990541021187"
      ]
    },
    {
      "x": 386,
      "y": 295,
      "size": 1,
      "price": "4683000000000000000000",
      "reserved": "",
      "salt": "0xc6b10e17e60bcc38f358e3300b102e36aeeb192c70049d19cd974ae291fa2fa7",
      "assetIds": [
        "41506478881403507969696680653240014914910929820314476107906210059990541021184"
      ]
    },
    {
      "x": 386,
      "y": 296,
      "size": 1,
      "price": "4683000000000000000000",
      "reserved": "",
      "salt": "0xea7616de0d06975789bb5df2c61c6de87cc145e4470981f5f922b1212a14a9f9",
      "assetIds": [
        "41506478881403507969696680653240014914910929820314476107906210059990541021186"
      ]
    },
    {
      "x": 386,
      "y": 297,
      "size": 1,
      "price": "4683000000000000000000",
      "reserved": "",
      "salt": "0xc149a6b9043d0ee416afe4ade214589c0278fad2bb4b257a402bc4c18a0c343e",
      "assetIds": [
        "41506478881403507969696680653240014914910929820314476107906210059990541021189"
      ]
    },
    {
      "x": 386,
      "y": 298,
      "size": 1,
      "price": "4683000000000000000000",
      "reserved": "",
      "salt": "0x67e38b268c384f250d77a2258cba81d00abcd6d4540d1bcf0a5c0ac69756c108",
      "assetIds": [
        "41506478881403507969696680653240014914910929820314476107906210059990541021188"
      ]
    },
    {
      "x": 386,
      "y": 299,
      "size": 1,
      "price": "4683000000000000000000",
      "reserved": "",
      "salt": "0xad0950bbcf1993afd82ddea6fcab15506637ad66b4f083272f0ffdfc115fc3a6",
      "assetIds": [
        "41506478881403507969696680653240014914910929820314476107906210059990541021189"
      ]
    },
    {
      "x": 387,
      "y": 225,
      "size": 1,
      "price": "4683000000000000000000",
      "reserved": "",
      "salt": "0x11022ef0a9524da35834a56f9def7a371771b12993df5f0c31bf0ebf703bb0f7",
      "assetIds": [
        "41506478881403507969696680653240014914910929820314476107906210059990541021184"
      ]
    },
    {
      "x": 387,
      "y": 226,
      "size": 1,
      "price": "4683000000000000000000",
      "reserved": "",
      "salt": "0x2d13cecf2a3f06cf4fc0e1feefa3d7ee3a878ec95daddf4a24640be76ccece72",
      "assetIds": [
        "41506478881403507969696680653240014914910929820314476107906210059990532622336"
      ]
    },
    {
      "x": 387,
      "y": 227,
      "size": 1,
      "price": "4683000000000000000000",
      "reserved": "",
      "salt": "0x3d69b552f3ac3659767c83585f27c8530054e52f3d3807d3fa77af52242e3fd9",
      "assetIds": [
        "41506478881403507969696680653240014914910929820314476107906210059990541021187"
      ]
    },
    {
      "x": 387,
      "y": 228,
      "size": 1,
      "price": "4683000000000000000000",
      "reserved": "",
      "salt": "0xa8fe01ae9606582ff1aa98d5e654a4ad252ac847bc7479a00d8860aaa1ad6a87",
      "assetIds": [
        "41506478881403507969696680653240014914910929820314476107906210059990541021185"
      ]
    },
    {
      "x": 387,
      "y": 229,
      "size": 1,
      "price": "4683000000000000000000",
      "reserved": "",
      "salt": "0x28cbf30d7dbd8ba9d17055aa8be5f479cec259b657f4ae6717d02faebbd6826a",
      "assetIds": [
        "41506478881403507969696680653240014914910929820314476107906210059990541021188"
      ]
    },
    {
      "x": 387,
      "y": 230,
      "size": 1,
      "price": "4683000000000000000000",
      "reserved": "",
      "salt": "0xb632374a686d7cd9f7bef492ede9cabbb9032f087e34462b439b6f4c00e18112",
      "assetIds": [
        "41506478881403507969696680653240014914910929820314476107906210059990541021186"
      ]
    },
    {
      "x": 387,
      "y": 231,
      "size": 1,
      "price": "4683000000000000000000",
      "reserved": "",
      "salt": "0xd30f8cc8e07d76260b6d5aec4543d6946409dc09e318358c9e2bb79e18201808",
      "assetIds": [
        "41506478881403507969696680653240014914910929820314476107906210059990541021186"
      ]
    },
    {
      "x": 387,
      "y": 232,
      "size": 1,
      "price": "4683000000000000000000",
      "reserved": "",
      "salt": "0xdd7a61811a88c0bb345066aa418a5276096720c63eb97844fcbdf9b2bf309d36",
      "assetIds": [
        "41506478881403507969696680653240014914910929820314476107906210059990541021187"
      ]
    },
    {
      "x": 387,
      "y": 233,
      "size": 1,
      "price": "4683000000000000000000",
      "reserved": "",
      "salt": "0x9ba72d9436f62c9e35c7bd279ec4b2860fe0d2525891fc1fbc890d56a76afc19",
      "assetIds": [
        "41506478881403507969696680653240014914910929820314476107906210059990541021185"
      ]
    },
    {
      "x": 387,
      "y": 234,
      "size": 1,
      "price": "4683000000000000000000",
      "reserved": "",
      "salt": "0x55abdcb69640898e62565ecea9aa878e2f0f56f36b925fd6dd4d17176e998fae",
      "assetIds": [
        "41506478881403507969696680653240014914910929820314476107906210059990541021188"
      ]
    },
    {
      "x": 387,
      "y": 235,
      "size": 1,
      "price": "4683000000000000000000",
      "reserved": "",
      "salt": "0x8d4a375e3d05b272da608e158cadda51e4462bf717809ec2f5f10c6252da2c6e",
      "assetIds": [
        "41506478881403507969696680653240014914910929820314476107906210059990541021188"
      ]
    },
    {
      "x": 387,
      "y": 236,
      "size": 1,
      "price": "4683000000000000000000",
      "reserved": "",
      "salt": "0xf9d1dd31a15186c6faeeaabb793f0280a19f78b47d84e72be75475b728b3cd74",
      "assetIds": [
        "41506478881403507969696680653240014914910929820314476107906210059990532622336"
      ]
    },
    {
      "x": 387,
      "y": 237,
      "size": 1,
      "price": "4683000000000000000000",
      "reserved": "",
      "salt": "0xbe27019850118acb229641d36e134ec3327ca655c49a683f3effbbe39372afe6",
      "assetIds": [
        "41506478881403507969696680653240014914910929820314476107906210059990541021187"
      ]
    },
    {
      "x": 387,
      "y": 238,
      "size": 1,
      "price": "4683000000000000000000",
      "reserved": "",
      "salt": "0xa72e82dc083ca9ba858de6d7fbcb2e6bd62d9ec486d4f410bfc56fa358929c6b",
      "assetIds": [
        "41506478881403507969696680653240014914910929820314476107906210059990532622336"
      ]
    },
    {
      "x": 387,
      "y": 239,
      "size": 1,
      "price": "4683000000000000000000",
      "reserved": "",
      "salt": "0x149d72c000d74d3077633be1852213d9ca14be445ab8018215d2cb259d473eb6",
      "assetIds": [
        "41506478881403507969696680653240014914910929820314476107906210059990541021186"
      ]
    },
    {
      "x": 387,
      "y": 252,
      "size": 1,
      "price": "4683000000000000000000",
      "reserved": "",
      "salt": "0x545d85e7acd3af7af5fb1604106906864e637c2f4f96ae9815154221b2e61117",
      "assetIds": [
        "41506478881403507969696680653240014914910929820314476107906210059990541021187"
      ]
    },
    {
      "x": 387,
      "y": 253,
      "size": 1,
      "price": "4683000000000000000000",
      "reserved": "",
      "salt": "0x639cd285eaa89d08eaede0c5eca99c10fd002ea1182160ca234345929ca2bec4",
      "assetIds": [
        "41506478881403507969696680653240014914910929820314476107906210059990541021187"
      ]
    },
    {
      "x": 387,
      "y": 254,
      "size": 1,
      "price": "4683000000000000000000",
      "reserved": "",
      "salt": "0x2af63edd7d8f69769cafb259c5927c751ea897b59937a5885d03129626890103",
      "assetIds": [
        "41506478881403507969696680653240014914910929820314476107906210059990541021187"
      ]
    },
    {
      "x": 387,
      "y": 255,
      "size": 1,
      "price": "4683000000000000000000",
      "reserved": "",
      "salt": "0xacdbd4af55574a41c1dd9f3349bfd731fbbcc265040cbd48986856e22e2289ff",
      "assetIds": [
        "41506478881403507969696680653240014914910929820314476107906210059990541021188"
      ]
    },
    {
      "x": 387,
      "y": 256,
      "size": 1,
      "price": "4683000000000000000000",
      "reserved": "",
      "salt": "0xd776cfa750444f5163abfa107b4f23fa0699e910078c8ef40d3d8312bb2f5e45",
      "assetIds": [
        "41506478881403507969696680653240014914910929820314476107906210059990541021185"
      ]
    },
    {
      "x": 387,
      "y": 257,
      "size": 1,
      "price": "4683000000000000000000",
      "reserved": "",
      "salt": "0x1f526ee43c63560c56dabfd30c5ba31fb23d44a8a9a0d406b26b4ae2fd3a4551",
      "assetIds": [
        "41506478881403507969696680653240014914910929820314476107906210059990541021187"
      ]
    },
    {
      "x": 387,
      "y": 294,
      "size": 1,
      "price": "4683000000000000000000",
      "reserved": "",
      "salt": "0x066965aad73e07a4eb52928aaee2dcd6b8c28fc0260bbaf650337696b4e306d5",
      "assetIds": [
        "41506478881403507969696680653240014914910929820314476107906210059990541021189"
      ]
    },
    {
      "x": 387,
      "y": 295,
      "size": 1,
      "price": "4683000000000000000000",
      "reserved": "",
      "salt": "0x6fae6075b8451a1d933def22c32b7f9c3595f6d57d42197a2d2d3bd7d9753245",
      "assetIds": [
        "41506478881403507969696680653240014914910929820314476107906210059990541021188"
      ]
    },
    {
      "x": 387,
      "y": 296,
      "size": 1,
      "price": "4683000000000000000000",
      "reserved": "",
      "salt": "0x4687888b69dab08e0be49f6661739b42a165d14f0199c5bf52a1bd9f5a2500aa",
      "assetIds": [
        "41506478881403507969696680653240014914910929820314476107906210059990541021188"
      ]
    },
    {
      "x": 387,
      "y": 297,
      "size": 1,
      "price": "4683000000000000000000",
      "reserved": "",
      "salt": "0xac0e48cffbbf63490f2e8ac1c146e2e4145fbb69934f0d020f959262e3be2c44",
      "assetIds": [
        "41506478881403507969696680653240014914910929820314476107906210059990541021188"
      ]
    },
    {
      "x": 387,
      "y": 298,
      "size": 1,
      "price": "4683000000000000000000",
      "reserved": "",
      "salt": "0x191eea654a06fe1810e092000bd73e86e8d8909d25d07002e0411717e635590f",
      "assetIds": [
        "41506478881403507969696680653240014914910929820314476107906210059990541021187"
      ]
    },
    {
      "x": 387,
      "y": 299,
      "size": 1,
      "price": "4683000000000000000000",
      "reserved": "",
      "salt": "0x1d881322b8f69285dd3b7a4f4a66009905fa2ad93c35576e1a47cd8c70a8f102",
      "assetIds": [
        "41506478881403507969696680653240014914910929820314476107906210059990541021189"
      ]
    },
    {
      "x": 387,
      "y": 306,
      "size": 1,
      "price": "4683000000000000000000",
      "reserved": "",
      "salt": "0x55984ca129b2e339950a05b6ca6d2e3405b60b950b713275004334d05e76b7f3",
      "assetIds": [
        "41506478881403507969696680653240014914910929820314476107906210059990532622336"
      ]
    },
    {
      "x": 387,
      "y": 307,
      "size": 1,
      "price": "4683000000000000000000",
      "reserved": "",
      "salt": "0x15a836c06ad2f37150ad1e1b6793e22249f9f0763130e9a8065acb2a6271dcfe",
      "assetIds": [
        "41506478881403507969696680653240014914910929820314476107906210059990541021187"
      ]
    },
    {
      "x": 387,
      "y": 308,
      "size": 1,
      "price": "4683000000000000000000",
      "reserved": "",
      "salt": "0x99791f67bf92a61268fb15410100fdaede4d0fd3716bd0fbded11bacf52ec3a5",
      "assetIds": [
        "41506478881403507969696680653240014914910929820314476107906210059990541021188"
      ]
    },
    {
      "x": 387,
      "y": 309,
      "size": 1,
      "price": "4683000000000000000000",
      "reserved": "",
      "salt": "0xb8e1d6969ce9f86d353280d0a37018d3892b37ebb0102110339b5120ff9ead53",
      "assetIds": [
        "41506478881403507969696680653240014914910929820314476107906210059990541021186"
      ]
    },
    {
      "x": 387,
      "y": 310,
      "size": 1,
      "price": "4683000000000000000000",
      "reserved": "",
      "salt": "0xd374f6e593bee0006bc9f7bd7ab52b0f3708988ce5f7ff5ffbadeaa44f13f3a2",
      "assetIds": [
        "41506478881403507969696680653240014914910929820314476107906210059990541021188"
      ]
    },
    {
      "x": 387,
      "y": 311,
      "size": 1,
      "price": "4683000000000000000000",
      "reserved": "",
      "salt": "0x5f5699b4511a01e6958457ec63fbe5dfc9429b1b4c543e655a5aefc42954440d",
      "assetIds": [
        "41506478881403507969696680653240014914910929820314476107906210059990541021186"
      ]
    },
    {
      "x": 388,
      "y": 225,
      "size": 1,
      "price": "4683000000000000000000",
      "reserved": "",
      "salt": "0x2c3819f1957a5f23c455c1b7aefb74ae1823ccbdf4dd387597b02473da4a182c",
      "assetIds": [
        "41506478881403507969696680653240014914910929820314476107906210059990541021186"
      ]
    },
    {
      "x": 388,
      "y": 226,
      "size": 1,
      "price": "4683000000000000000000",
      "reserved": "",
      "salt": "0x37edbe1f0efc707dcbb2839ab4a00a6194e301272a44fefbb28df8c5697031d2",
      "assetIds": [
        "41506478881403507969696680653240014914910929820314476107906210059990541021187"
      ]
    },
    {
      "x": 388,
      "y": 227,
      "size": 1,
      "price": "4683000000000000000000",
      "reserved": "",
      "salt": "0x678b0662404a0a899f2c52378230508c1ac3a807906f0acd82b2e4a6a426a95b",
      "assetIds": [
        "41506478881403507969696680653240014914910929820314476107906210059990541021185"
      ]
    },
    {
      "x": 388,
      "y": 228,
      "size": 1,
      "price": "4683000000000000000000",
      "reserved": "",
      "salt": "0xce7ec7fa30da1df5f57ba43fde74a5adce14c69f9cb00882ce002ebf0391042a",
      "assetIds": [
        "41506478881403507969696680653240014914910929820314476107906210059990541021184"
      ]
    },
    {
      "x": 388,
      "y": 229,
      "size": 1,
      "price": "4683000000000000000000",
      "reserved": "",
      "salt": "0x5c1c61bfc7f24c15bbcf00814e183adc6d5124a85a0d543d69eb7e955c76bd19",
      "assetIds": [
        "41506478881403507969696680653240014914910929820314476107906210059990541021188"
      ]
    },
    {
      "x": 388,
      "y": 230,
      "size": 1,
      "price": "4683000000000000000000",
      "reserved": "",
      "salt": "0x25b6d7241ce9b1538340e8dd8280aeb7313a8c5a990c108fa8a3c8d0f31265c1",
      "assetIds": [
        "41506478881403507969696680653240014914910929820314476107906210059990541021188"
      ]
    },
    {
      "x": 388,
      "y": 231,
      "size": 1,
      "price": "4683000000000000000000",
      "reserved": "",
      "salt": "0x54c8319aec06df7f85e215f2a701cc6eff4d3d8c3f040ce7fe2c48c993247030",
      "assetIds": [
        "41506478881403507969696680653240014914910929820314476107906210059990541021187"
      ]
    },
    {
      "x": 388,
      "y": 232,
      "size": 1,
      "price": "4683000000000000000000",
      "reserved": "",
      "salt": "0xbf27f6e05cf244297a52ccc3d97aacc21a563c9d988897ffbb8e3ec3b6cd7298",
      "assetIds": [
        "41506478881403507969696680653240014914910929820314476107906210059990541021184"
      ]
    },
    {
      "x": 388,
      "y": 233,
      "size": 1,
      "price": "4683000000000000000000",
      "reserved": "",
      "salt": "0x7a547c1aba6de8e4a604dcb197a8553eaa95a17944290f569614f1e2e70faa18",
      "assetIds": [
        "41506478881403507969696680653240014914910929820314476107906210059990541021187"
      ]
    },
    {
      "x": 388,
      "y": 234,
      "size": 1,
      "price": "4683000000000000000000",
      "reserved": "",
      "salt": "0x4baf7fefd68597841ec055a52830b4722659ebdab96ceb157a461b8146c49ef3",
      "assetIds": [
        "41506478881403507969696680653240014914910929820314476107906210059990541021188"
      ]
    },
    {
      "x": 388,
      "y": 235,
      "size": 1,
      "price": "4683000000000000000000",
      "reserved": "",
      "salt": "0xda01b26bcd692fe41b4bd7ec69fd4015a1e71ee4934713d14f1b63bd48839f33",
      "assetIds": [
        "41506478881403507969696680653240014914910929820314476107906210059990541021188"
      ]
    },
    {
      "x": 388,
      "y": 236,
      "size": 1,
      "price": "4683000000000000000000",
      "reserved": "",
      "salt": "0x18e6316f4cb3daf36f747ed916c58b36a72cd353f15b9521dfe0d403390aa4af",
      "assetIds": [
        "41506478881403507969696680653240014914910929820314476107906210059990541021187"
      ]
    },
    {
      "x": 388,
      "y": 237,
      "size": 1,
      "price": "4683000000000000000000",
      "reserved": "",
      "salt": "0xae7c0e2ca1f65448b4f8accc7338a45ac14d1742c5a34b566304369aef3dc7d2",
      "assetIds": [
        "41506478881403507969696680653240014914910929820314476107906210059990541021187"
      ]
    },
    {
      "x": 388,
      "y": 238,
      "size": 1,
      "price": "4683000000000000000000",
      "reserved": "",
      "salt": "0x340f99fcc85c413204e3b471664268b8cceaeca1dc6d577691a11ceee5a01bdf",
      "assetIds": [
        "41506478881403507969696680653240014914910929820314476107906210059990541021188"
      ]
    },
    {
      "x": 388,
      "y": 239,
      "size": 1,
      "price": "4683000000000000000000",
      "reserved": "",
      "salt": "0xec9c9acffab934d3514d3ef88da0595f8e6d2ff8725f8562944b621b86258760",
      "assetIds": [
        "41506478881403507969696680653240014914910929820314476107906210059990541021186"
      ]
    },
    {
      "x": 388,
      "y": 252,
      "size": 1,
      "price": "4683000000000000000000",
      "reserved": "",
      "salt": "0x53609b15e41a37e040470311d71f18051f6210add93989abcff968349e5ed0a0",
      "assetIds": [
        "41506478881403507969696680653240014914910929820314476107906210059990541021188"
      ]
    },
    {
      "x": 388,
      "y": 253,
      "size": 1,
      "price": "4683000000000000000000",
      "reserved": "",
      "salt": "0x088c22c9754a4810b00ce2a11869f7440648ee79365dd93096e3ae7f1ab4d680",
      "assetIds": [
        "41506478881403507969696680653240014914910929820314476107906210059990541021188"
      ]
    },
    {
      "x": 388,
      "y": 254,
      "size": 1,
      "price": "4683000000000000000000",
      "reserved": "",
      "salt": "0x2550cc889da3a23933b580a5ab5326419113e4723911611cd21bed67c46347f0",
      "assetIds": [
        "41506478881403507969696680653240014914910929820314476107906210059990541021187"
      ]
    },
    {
      "x": 388,
      "y": 255,
      "size": 1,
      "price": "4683000000000000000000",
      "reserved": "",
      "salt": "0x02eaf2d192bed0c48958ca71ade2e93ba95cb9522ba991446e3d884bffb58669",
      "assetIds": [
        "41506478881403507969696680653240014914910929820314476107906210059990541021189"
      ]
    },
    {
      "x": 388,
      "y": 256,
      "size": 1,
      "price": "4683000000000000000000",
      "reserved": "",
      "salt": "0x343d9b09e798316a44ddb55fef09fa97bf734a6d6216fa6eb64ef5a3f0b4ab0e",
      "assetIds": [
        "41506478881403507969696680653240014914910929820314476107906210059990541021184"
      ]
    },
    {
      "x": 388,
      "y": 257,
      "size": 1,
      "price": "4683000000000000000000",
      "reserved": "",
      "salt": "0x46ef1feb43059f85c4d4942349bf85ff514788ed4b104a4f639198ac16b8e877",
      "assetIds": [
        "41506478881403507969696680653240014914910929820314476107906210059990541021184"
      ]
    },
    {
      "x": 388,
      "y": 294,
      "size": 1,
      "price": "4683000000000000000000",
      "reserved": "",
      "salt": "0x30726aaeb49fd2df43de07ba3a7ef321d6fee36b4a50f40650d8e1fa9a71d487",
      "assetIds": [
        "41506478881403507969696680653240014914910929820314476107906210059990541021189"
      ]
    },
    {
      "x": 388,
      "y": 295,
      "size": 1,
      "price": "4683000000000000000000",
      "reserved": "",
      "salt": "0x1b3a695692b08160ab93a218a5164a5f3bd5bd35e533bacad2f8649743822e08",
      "assetIds": [
        "41506478881403507969696680653240014914910929820314476107906210059990541021184"
      ]
    },
    {
      "x": 388,
      "y": 296,
      "size": 1,
      "price": "4683000000000000000000",
      "reserved": "",
      "salt": "0x54a6b9d4ed0a6ba19df980268df39a4dc6f9cf3887c4515076496a0a6cb172fb",
      "assetIds": [
        "41506478881403507969696680653240014914910929820314476107906210059990541021188"
      ]
    },
    {
      "x": 388,
      "y": 297,
      "size": 1,
      "price": "4683000000000000000000",
      "reserved": "",
      "salt": "0x76183295328285e4cfff6841d0c7d90a55b1367d356180ee3c96e7c97e53dcc2",
      "assetIds": [
        "41506478881403507969696680653240014914910929820314476107906210059990532622336"
      ]
    },
    {
      "x": 388,
      "y": 298,
      "size": 1,
      "price": "4683000000000000000000",
      "reserved": "",
      "salt": "0x7b4f4747b0629cf54dd0d627c5fa48436c329904ad0274b4539ed190ec1361f8",
      "assetIds": [
        "41506478881403507969696680653240014914910929820314476107906210059990541021189"
      ]
    },
    {
      "x": 388,
      "y": 299,
      "size": 1,
      "price": "1011000000000000000000",
      "reserved": "0x7a9fe22691c811ea339d9b73150e6911a5343dca",
      "salt": "0x1263e40fa08f094ab338aede6e16cae0bc7d30ebe7f076df166a91035dc652dc",
      "assetIds": []
    },
    {
      "x": 388,
      "y": 306,
      "size": 1,
      "price": "4683000000000000000000",
      "reserved": "",
      "salt": "0x1059d6d5cb6a2a17e7d5f92d46d30e837f96ff3f9f6854cbb06c3361d94485fb",
      "assetIds": [
        "41506478881403507969696680653240014914910929820314476107906210059990541021188"
      ]
    },
    {
      "x": 388,
      "y": 307,
      "size": 1,
      "price": "4683000000000000000000",
      "reserved": "",
      "salt": "0x2b2a3ce7362b9eda2c4286fb87a21b34a1e7d37cd4d9318917336a34c47fb1f7",
      "assetIds": [
        "41506478881403507969696680653240014914910929820314476107906210059990541021186"
      ]
    },
    {
      "x": 388,
      "y": 308,
      "size": 1,
      "price": "4683000000000000000000",
      "reserved": "",
      "salt": "0xe3fdcee81eb5db3208e811dddc515ebeee1c07a88f0f782df83cb5ae36906252",
      "assetIds": [
        "41506478881403507969696680653240014914910929820314476107906210059990541021188"
      ]
    },
    {
      "x": 388,
      "y": 309,
      "size": 1,
      "price": "4683000000000000000000",
      "reserved": "",
      "salt": "0xa68101970985b205cb8ce585d7c8eb92340e3e386d13e01288c9a28e17d16930",
      "assetIds": [
        "41506478881403507969696680653240014914910929820314476107906210059990541021187"
      ]
    },
    {
      "x": 388,
      "y": 310,
      "size": 1,
      "price": "4683000000000000000000",
      "reserved": "",
      "salt": "0x2bd9501c69412d0497fee3d133149802f9654547b4d78685cbb12d79ab1d2267",
      "assetIds": [
        "41506478881403507969696680653240014914910929820314476107906210059990541021189"
      ]
    },
    {
      "x": 388,
      "y": 311,
      "size": 1,
      "price": "4683000000000000000000",
      "reserved": "",
      "salt": "0xc21369886de1340711523280cc920ae634d93fa987da3c2f331b478e6d780862",
      "assetIds": [
        "41506478881403507969696680653240014914910929820314476107906210059990541021188"
      ]
    },
    {
      "x": 389,
      "y": 225,
      "size": 1,
      "price": "4683000000000000000000",
      "reserved": "",
      "salt": "0x3784e698b366058ceb0a4420b769a4c5290195d2341ab3ff7f09d973df2f0520",
      "assetIds": [
        "41506478881403507969696680653240014914910929820314476107906210059990541021188"
      ]
    },
    {
      "x": 389,
      "y": 226,
      "size": 1,
      "price": "4683000000000000000000",
      "reserved": "",
      "salt": "0xddd14c5d1ce4bee7c500e047654888292fd60a161b16c2f1886c8b8416580c41",
      "assetIds": [
        "41506478881403507969696680653240014914910929820314476107906210059990541021187"
      ]
    },
    {
      "x": 389,
      "y": 227,
      "size": 1,
      "price": "4683000000000000000000",
      "reserved": "",
      "salt": "0xcd50f32ed72d7f710cf1089588987abc5cf837179b3dbc3ec54b9b2c2911f305",
      "assetIds": [
        "41506478881403507969696680653240014914910929820314476107906210059990541021189"
      ]
    },
    {
      "x": 389,
      "y": 228,
      "size": 1,
      "price": "4683000000000000000000",
      "reserved": "",
      "salt": "0x949b38d0651ae54aa90e7b238e32724e2b1ad2b02ecbcf6f66306fefe58d3867",
      "assetIds": [
        "41506478881403507969696680653240014914910929820314476107906210059990532622336"
      ]
    },
    {
      "x": 389,
      "y": 229,
      "size": 1,
      "price": "4683000000000000000000",
      "reserved": "",
      "salt": "0x6a683eb0b2d7fe19e29469844451be5a71d63281dd143a5ca238dc1089570af6",
      "assetIds": [
        "41506478881403507969696680653240014914910929820314476107906210059990532622336"
      ]
    },
    {
      "x": 389,
      "y": 230,
      "size": 1,
      "price": "4683000000000000000000",
      "reserved": "",
      "salt": "0xec3435fafbe1061911c3bc304ecf9304eebcbf1983e98b3f6b2d598f4f02211d",
      "assetIds": [
        "41506478881403507969696680653240014914910929820314476107906210059990532622336"
      ]
    },
    {
      "x": 389,
      "y": 231,
      "size": 1,
      "price": "4683000000000000000000",
      "reserved": "",
      "salt": "0x936963cbbdc419b5b1c9be437cade9126108924da555446d13f127b5b5c89e53",
      "assetIds": [
        "41506478881403507969696680653240014914910929820314476107906210059990541021189"
      ]
    },
    {
      "x": 389,
      "y": 232,
      "size": 1,
      "price": "4683000000000000000000",
      "reserved": "",
      "salt": "0x04cefa0448fc452c31ef442c340e455f1fa72c47cc5bed1dc1a7790c58ee3fe2",
      "assetIds": [
        "41506478881403507969696680653240014914910929820314476107906210059990541021184"
      ]
    },
    {
      "x": 389,
      "y": 233,
      "size": 1,
      "price": "4683000000000000000000",
      "reserved": "",
      "salt": "0x0d477a46df5c94dbcb68bf5322441ae6f223d42ac22ced146a8cb33ef42ce2f2",
      "assetIds": [
        "41506478881403507969696680653240014914910929820314476107906210059990541021187"
      ]
    },
    {
      "x": 389,
      "y": 234,
      "size": 1,
      "price": "4683000000000000000000",
      "reserved": "",
      "salt": "0x2b2a03941e0b75ae4a2fd3b117f0080019f0539c0bf209065d9d10ce19d7c6cb",
      "assetIds": [
        "41506478881403507969696680653240014914910929820314476107906210059990541021187"
      ]
    },
    {
      "x": 389,
      "y": 235,
      "size": 1,
      "price": "4683000000000000000000",
      "reserved": "",
      "salt": "0x05f1c14939e83d869d6731c316911b29c26c91375550427ad9a6ff690c80dd4d",
      "assetIds": [
        "41506478881403507969696680653240014914910929820314476107906210059990541021186"
      ]
    },
    {
      "x": 389,
      "y": 236,
      "size": 1,
      "price": "4683000000000000000000",
      "reserved": "",
      "salt": "0xe6cfbd10fc6222cdc46a192fb8d63a7d02c99f0c72d2711022f837c325b27da1",
      "assetIds": [
        "41506478881403507969696680653240014914910929820314476107906210059990541021188"
      ]
    },
    {
      "x": 389,
      "y": 237,
      "size": 1,
      "price": "4683000000000000000000",
      "reserved": "",
      "salt": "0xaed4c5c2e15c383c5ec21adcccee2bd80969f7ee287ac7d3bdcf8894014c8133",
      "assetIds": [
        "41506478881403507969696680653240014914910929820314476107906210059990541021186"
      ]
    },
    {
      "x": 389,
      "y": 238,
      "size": 1,
      "price": "4683000000000000000000",
      "reserved": "",
      "salt": "0x15ded1bc56f93cf6d6e96de3efd1b37f271d3626a1b0152f02b581fd852a0de8",
      "assetIds": [
        "41506478881403507969696680653240014914910929820314476107906210059990541021184"
      ]
    },
    {
      "x": 389,
      "y": 239,
      "size": 1,
      "price": "4683000000000000000000",
      "reserved": "",
      "salt": "0xdfb292ad4e3aca59a9a6ab3ae4de972dc0c6ef08e79d40cf145e27bba6295355",
      "assetIds": [
        "41506478881403507969696680653240014914910929820314476107906210059990541021185"
      ]
    },
    {
      "x": 389,
      "y": 252,
      "size": 1,
      "price": "4683000000000000000000",
      "reserved": "",
      "salt": "0x3ac4ba89d6c4b3342da70f7be5095dbb614acc57883e5b254025e56477b4c92b",
      "assetIds": [
        "41506478881403507969696680653240014914910929820314476107906210059990541021188"
      ]
    },
    {
      "x": 389,
      "y": 253,
      "size": 1,
      "price": "4683000000000000000000",
      "reserved": "",
      "salt": "0xeee4dea954992dcbdc641eb7f1de21c27786fdea5c3fc59cf0d12ddb6071c71c",
      "assetIds": [
        "41506478881403507969696680653240014914910929820314476107906210059990541021187"
      ]
    },
    {
      "x": 389,
      "y": 254,
      "size": 1,
      "price": "4683000000000000000000",
      "reserved": "",
      "salt": "0x49dcf5f3d6eee9597b3fc5a93ab7f895b43621cd56fffab3f3e5f3102aa13b49",
      "assetIds": [
        "41506478881403507969696680653240014914910929820314476107906210059990532622336"
      ]
    },
    {
      "x": 389,
      "y": 255,
      "size": 1,
      "price": "4683000000000000000000",
      "reserved": "",
      "salt": "0x1ca01efff0cdeade08a384be50a40c3dc17d4a3e80fb570771a578d79c0f2be1",
      "assetIds": [
        "41506478881403507969696680653240014914910929820314476107906210059990541021188"
      ]
    },
    {
      "x": 389,
      "y": 256,
      "size": 1,
      "price": "4683000000000000000000",
      "reserved": "",
      "salt": "0x502443b3e897dfa36ef722c387b286107bae1966e9cc034195364d04dda36102",
      "assetIds": [
        "41506478881403507969696680653240014914910929820314476107906210059990541021187"
      ]
    },
    {
      "x": 389,
      "y": 257,
      "size": 1,
      "price": "4683000000000000000000",
      "reserved": "",
      "salt": "0x25476e828ed8e091909b8e3b29e047120682c95a02124401274d63a113de6a93",
      "assetIds": [
        "41506478881403507969696680653240014914910929820314476107906210059990541021189"
      ]
    },
    {
      "x": 389,
      "y": 294,
      "size": 1,
      "price": "4683000000000000000000",
      "reserved": "",
      "salt": "0x439ccf5ffda2d004e89d8e9b6c0a712a61ddde085bd75fca9094774146ade122",
      "assetIds": [
        "41506478881403507969696680653240014914910929820314476107906210059990532622336"
      ]
    },
    {
      "x": 389,
      "y": 295,
      "size": 1,
      "price": "4683000000000000000000",
      "reserved": "",
      "salt": "0x00f1fb03b6765248f3e3e7f2c2c8566ba7aa13725651aa15c383572a88e9269f",
      "assetIds": [
        "41506478881403507969696680653240014914910929820314476107906210059990541021184"
      ]
    },
    {
      "x": 389,
      "y": 296,
      "size": 1,
      "price": "4683000000000000000000",
      "reserved": "",
      "salt": "0x8485a7e3c8082cf99e7e6b5257bbe7b48ff46e03353abee9a6ea79fe50c0c145",
      "assetIds": [
        "41506478881403507969696680653240014914910929820314476107906210059990541021187"
      ]
    },
    {
      "x": 389,
      "y": 297,
      "size": 1,
      "price": "4683000000000000000000",
      "reserved": "",
      "salt": "0x88df17d32c95c06522172928bb14eebb5f9a2ea8b6ff8fa5baaea29ac556a818",
      "assetIds": [
        "41506478881403507969696680653240014914910929820314476107906210059990532622336"
      ]
    },
    {
      "x": 389,
      "y": 298,
      "size": 1,
      "price": "4683000000000000000000",
      "reserved": "",
      "salt": "0xaef06084383ceec58b6cc7c329c2ed3fce8560d10c6dbf1e4af92ebac825416f",
      "assetIds": [
        "41506478881403507969696680653240014914910929820314476107906210059990541021184"
      ]
    },
    {
      "x": 389,
      "y": 299,
      "size": 1,
      "price": "4683000000000000000000",
      "reserved": "",
      "salt": "0xb534ff2feec6c2b2dd9a1c9700a7d66b6b7ffa0d917e230c542c115d430d64dc",
      "assetIds": [
        "41506478881403507969696680653240014914910929820314476107906210059990541021187"
      ]
    },
    {
      "x": 389,
      "y": 306,
      "size": 1,
      "price": "4683000000000000000000",
      "reserved": "",
      "salt": "0x9fde14839d30260ff1c143c043896cde72a340f6b75dd1716564adc31c260838",
      "assetIds": [
        "41506478881403507969696680653240014914910929820314476107906210059990541021188"
      ]
    },
    {
      "x": 389,
      "y": 307,
      "size": 1,
      "price": "4683000000000000000000",
      "reserved": "",
      "salt": "0x81b363f6ddc0cc2480d23023cd15075e7b398558783df9ce156c6c5bcf7888f9",
      "assetIds": [
        "41506478881403507969696680653240014914910929820314476107906210059990541021187"
      ]
    },
    {
      "x": 389,
      "y": 308,
      "size": 1,
      "price": "4683000000000000000000",
      "reserved": "",
      "salt": "0xe6ef669584345df47976c2f3998fef355cbb45d9bc21a3cb882b3a676e4c9faf",
      "assetIds": [
        "41506478881403507969696680653240014914910929820314476107906210059990541021189"
      ]
    },
    {
      "x": 389,
      "y": 309,
      "size": 1,
      "price": "4683000000000000000000",
      "reserved": "",
      "salt": "0x710b1a3ba90f333e23b76eed0e192763db5e97b7891d77428df5cc143bb199ee",
      "assetIds": [
        "41506478881403507969696680653240014914910929820314476107906210059990541021184"
      ]
    },
    {
      "x": 389,
      "y": 310,
      "size": 1,
      "price": "4683000000000000000000",
      "reserved": "",
      "salt": "0xcdab1fcef19d7755b430cb0523b2c4f10dd749b26172aa63cb72cd3eca964c50",
      "assetIds": [
        "41506478881403507969696680653240014914910929820314476107906210059990541021188"
      ]
    },
    {
      "x": 389,
      "y": 311,
      "size": 1,
      "price": "4683000000000000000000",
      "reserved": "",
      "salt": "0x5a71ccdd405eba19a0b0d858e00b2fdedd6fdce1e0ca0a7acd839da5c6d2510d",
      "assetIds": [
        "41506478881403507969696680653240014914910929820314476107906210059990541021187"
      ]
    },
    {
      "x": 390,
      "y": 222,
      "size": 1,
      "price": "4683000000000000000000",
      "reserved": "",
      "salt": "0x12af4482957719d13a3f4bd1f429c01a84598ae3b3e398183dae921341c256a2",
      "assetIds": [
        "41506478881403507969696680653240014914910929820314476107906210059990532622336"
      ]
    },
    {
      "x": 390,
      "y": 223,
      "size": 1,
      "price": "4683000000000000000000",
      "reserved": "",
      "salt": "0x94a4400b686275447b42c17c472abf04379641e92bc6ea9189183f931f75df57",
      "assetIds": [
        "41506478881403507969696680653240014914910929820314476107906210059990541021189"
      ]
    },
    {
      "x": 390,
      "y": 224,
      "size": 1,
      "price": "4683000000000000000000",
      "reserved": "",
      "salt": "0x5e86b4061b3607712a74e4754293b418401da549bde15c538d80ec459592c8a7",
      "assetIds": [
        "41506478881403507969696680653240014914910929820314476107906210059990541021188"
      ]
    },
    {
      "x": 390,
      "y": 225,
      "size": 1,
      "price": "4683000000000000000000",
      "reserved": "",
      "salt": "0xb818a7112d48fc3ce4602a1ea472f9247048caec2f1685128aacf03ed9632e1f",
      "assetIds": [
        "41506478881403507969696680653240014914910929820314476107906210059990541021188"
      ]
    },
    {
      "x": 390,
      "y": 226,
      "size": 1,
      "price": "4683000000000000000000",
      "reserved": "",
      "salt": "0x7d59c8d7e775ef8c610b944afd756f289d676cd0c554f62ec10ac8a62928464b",
      "assetIds": [
        "41506478881403507969696680653240014914910929820314476107906210059990541021187"
      ]
    },
    {
      "x": 390,
      "y": 227,
      "size": 1,
      "price": "4683000000000000000000",
      "reserved": "",
      "salt": "0xd4925b0ba2164cd6750462875e251259a447c63732babdb99b138c880cb67b80",
      "assetIds": [
        "41506478881403507969696680653240014914910929820314476107906210059990541021188"
      ]
    },
    {
      "x": 390,
      "y": 234,
      "size": 1,
      "price": "4683000000000000000000",
      "reserved": "",
      "salt": "0xede55b8c0ad26e241dd623a3e88124ecc8a3f591b446f8fdab03e18b5de1cfb0",
      "assetIds": [
        "41506478881403507969696680653240014914910929820314476107906210059990541021188"
      ]
    },
    {
      "x": 390,
      "y": 235,
      "size": 1,
      "price": "4683000000000000000000",
      "reserved": "",
      "salt": "0xc26f2a410cdee77a9cedcf2a3b98d3db083c50ad371fcf2875276e7a0f22fb98",
      "assetIds": [
        "41506478881403507969696680653240014914910929820314476107906210059990541021187"
      ]
    },
    {
      "x": 390,
      "y": 236,
      "size": 1,
      "price": "4683000000000000000000",
      "reserved": "",
      "salt": "0xcca8db030b5678e0fb3d96a1e59e44d36790674b03f7c62727360b5f2be284c9",
      "assetIds": [
        "41506478881403507969696680653240014914910929820314476107906210059990541021187"
      ]
    },
    {
      "x": 390,
      "y": 237,
      "size": 1,
      "price": "4683000000000000000000",
      "reserved": "",
      "salt": "0x1d811c0fca1d92dbb3024e9164c44b5c75ba2af91bb4a970234db365c7a13689",
      "assetIds": [
        "41506478881403507969696680653240014914910929820314476107906210059990541021188"
      ]
    },
    {
      "x": 390,
      "y": 238,
      "size": 1,
      "price": "4683000000000000000000",
      "reserved": "",
      "salt": "0xc1e0f7e48462012cac3c1fc9bacbca03ef510b94c2dc9c980bf4fc6b358243b0",
      "assetIds": [
        "41506478881403507969696680653240014914910929820314476107906210059990541021187"
      ]
    },
    {
      "x": 390,
      "y": 239,
      "size": 1,
      "price": "4683000000000000000000",
      "reserved": "",
      "salt": "0x3fbcc5fc059b0fc108f22560bab7bf32e33eab0d808ddcd3ffcc33f5bfd84cf4",
      "assetIds": [
        "41506478881403507969696680653240014914910929820314476107906210059990541021187"
      ]
    },
    {
      "x": 390,
      "y": 252,
      "size": 1,
      "price": "4683000000000000000000",
      "reserved": "",
      "salt": "0x2db3e0e02c5c1d75f52c27546ac09b1c804adc23d1cff72f2a889bbb5133d77a",
      "assetIds": [
        "41506478881403507969696680653240014914910929820314476107906210059990541021184"
      ]
    },
    {
      "x": 390,
      "y": 253,
      "size": 1,
      "price": "4683000000000000000000",
      "reserved": "",
      "salt": "0x0603db1efdc1f9a92e8c724291cd58367eefca282a3526c81af1d85b923c3d1e",
      "assetIds": [
        "41506478881403507969696680653240014914910929820314476107906210059990541021187"
      ]
    },
    {
      "x": 390,
      "y": 254,
      "size": 1,
      "price": "4683000000000000000000",
      "reserved": "",
      "salt": "0x2134f80f40107f7a43024db2f1e8ede5ed08fdf5b1f473cb05ea3ba0fac987dd",
      "assetIds": [
        "41506478881403507969696680653240014914910929820314476107906210059990541021186"
      ]
    },
    {
      "x": 390,
      "y": 255,
      "size": 1,
      "price": "4683000000000000000000",
      "reserved": "",
      "salt": "0xfb67ecd2a0f6cd8bd87f0583f2c76cb89e3dbf3b16553f35c6bab14d0c52e641",
      "assetIds": [
        "41506478881403507969696680653240014914910929820314476107906210059990541021188"
      ]
    },
    {
      "x": 390,
      "y": 256,
      "size": 1,
      "price": "4683000000000000000000",
      "reserved": "",
      "salt": "0xf34ebd34a99e663c0deede8fdee7f97151d6fa67c416df1088828202d56b3fd5",
      "assetIds": [
        "41506478881403507969696680653240014914910929820314476107906210059990532622336"
      ]
    },
    {
      "x": 390,
      "y": 257,
      "size": 1,
      "price": "4683000000000000000000",
      "reserved": "",
      "salt": "0xcb756d48910f43c0ceb624158a0d0c571ee5457db464682606eaad96d6360cb6",
      "assetIds": [
        "41506478881403507969696680653240014914910929820314476107906210059990541021187"
      ]
    },
    {
      "x": 390,
      "y": 261,
      "size": 1,
      "price": "4683000000000000000000",
      "reserved": "",
      "salt": "0x3bfc3697af866aa1d57ed86925c556c0fd63927fc146045e12ae67cc096348fa",
      "assetIds": [
        "41506478881403507969696680653240014914910929820314476107906210059990541021187"
      ]
    },
    {
      "x": 390,
      "y": 262,
      "size": 1,
      "price": "4683000000000000000000",
      "reserved": "",
      "salt": "0x9d3f4677b621e684eaf5ad6e5f7362137d65c80fc17058336470502eba96081e",
      "assetIds": [
        "41506478881403507969696680653240014914910929820314476107906210059990541021187"
      ]
    },
    {
      "x": 390,
      "y": 263,
      "size": 1,
      "price": "4683000000000000000000",
      "reserved": "",
      "salt": "0xc39621afbfa486cb17adfeff35fe7b1eca3c69187b390fa17a5031ff85e9b387",
      "assetIds": [
        "41506478881403507969696680653240014914910929820314476107906210059990541021189"
      ]
    },
    {
      "x": 390,
      "y": 291,
      "size": 1,
      "price": "4683000000000000000000",
      "reserved": "",
      "salt": "0x729e9084b2388d01daa0f74558629462d3d40148709389fb92eaec0816052d0b",
      "assetIds": [
        "41506478881403507969696680653240014914910929820314476107906210059990541021187"
      ]
    },
    {
      "x": 390,
      "y": 292,
      "size": 1,
      "price": "4683000000000000000000",
      "reserved": "",
      "salt": "0x0772d22030457b8150bb83db9db959bd4345580152b8fe2a37148e904ce5f6cc",
      "assetIds": [
        "41506478881403507969696680653240014914910929820314476107906210059990541021187"
      ]
    },
    {
      "x": 390,
      "y": 293,
      "size": 1,
      "price": "4683000000000000000000",
      "reserved": "",
      "salt": "0x92149fa2a74c6f270bf963b7128fe7c336fd9b5fbeb9c342e6713ed20acbe088",
      "assetIds": [
        "41506478881403507969696680653240014914910929820314476107906210059990541021188"
      ]
    },
    {
      "x": 390,
      "y": 294,
      "size": 1,
      "price": "4683000000000000000000",
      "reserved": "",
      "salt": "0xc21cff68a3fbe273db5a6cbe5abf7d2fc1cea49f5d00b11ea5ac8922fa5ec774",
      "assetIds": [
        "41506478881403507969696680653240014914910929820314476107906210059990541021189"
      ]
    },
    {
      "x": 390,
      "y": 295,
      "size": 1,
      "price": "4683000000000000000000",
      "reserved": "",
      "salt": "0xad550a0d3af813d4b59d3120b11565b01e9fa23aaf7a0f2dda4e61fc23ff9edf",
      "assetIds": [
        "41506478881403507969696680653240014914910929820314476107906210059990532622336"
      ]
    },
    {
      "x": 390,
      "y": 296,
      "size": 1,
      "price": "4683000000000000000000",
      "reserved": "",
      "salt": "0xa48d748d465f7fc2c6e30f59eac2c0885e2527814fe1847f84299c9f9a334068",
      "assetIds": [
        "41506478881403507969696680653240014914910929820314476107906210059990541021187"
      ]
    },
    {
      "x": 390,
      "y": 297,
      "size": 1,
      "price": "4683000000000000000000",
      "reserved": "",
      "salt": "0x09f3d230c11beb8dcc5d98d2c805870425f2f84163ba0790c5ae690d88b758a9",
      "assetIds": [
        "41506478881403507969696680653240014914910929820314476107906210059990541021187"
      ]
    },
    {
      "x": 390,
      "y": 298,
      "size": 1,
      "price": "4683000000000000000000",
      "reserved": "",
      "salt": "0x83256a735002947e450ea375121d089f9d2427e4e45c3da2da6a3318184701bb",
      "assetIds": [
        "41506478881403507969696680653240014914910929820314476107906210059990541021188"
      ]
    },
    {
      "x": 390,
      "y": 299,
      "size": 1,
      "price": "4683000000000000000000",
      "reserved": "",
      "salt": "0xd6527f8174b7bbac71c540f0c028c3b0375eb3daa4b7cab859ee79d9587af1ae",
      "assetIds": [
        "41506478881403507969696680653240014914910929820314476107906210059990541021189"
      ]
    },
    {
      "x": 390,
      "y": 300,
      "size": 1,
      "price": "4683000000000000000000",
      "reserved": "",
      "salt": "0x071039ddb8a407c894a2c8431f155d29768d2be4d77e3c7fb906e20a4804b9d2",
      "assetIds": [
        "41506478881403507969696680653240014914910929820314476107906210059990541021189"
      ]
    },
    {
      "x": 390,
      "y": 301,
      "size": 1,
      "price": "4683000000000000000000",
      "reserved": "",
      "salt": "0x7f1105635792452b623aec32dd7afb1da3a4ae289cb7d05d0e01c14a0515bb78",
      "assetIds": [
        "41506478881403507969696680653240014914910929820314476107906210059990532622336"
      ]
    },
    {
      "x": 390,
      "y": 302,
      "size": 1,
      "price": "4683000000000000000000",
      "reserved": "",
      "salt": "0x8f1dc0c1a033696f2c28b79fb486e4bd5a838b26b20c8fdcbd5bd5cbf6637c39",
      "assetIds": [
        "41506478881403507969696680653240014914910929820314476107906210059990541021189"
      ]
    },
    {
      "x": 390,
      "y": 306,
      "size": 1,
      "price": "4683000000000000000000",
      "reserved": "",
      "salt": "0xaf3e606346257af815468c461dba4b21c1cd7d98f2bc8f55423cafbb7575bc3f",
      "assetIds": [
        "41506478881403507969696680653240014914910929820314476107906210059990541021187"
      ]
    },
    {
      "x": 390,
      "y": 307,
      "size": 1,
      "price": "4683000000000000000000",
      "reserved": "",
      "salt": "0x41e0b712fe618b37b05a72fed0cf5919a37c855801a540878b2a547ab89a082b",
      "assetIds": [
        "41506478881403507969696680653240014914910929820314476107906210059990532622336"
      ]
    },
    {
      "x": 390,
      "y": 308,
      "size": 1,
      "price": "4683000000000000000000",
      "reserved": "",
      "salt": "0xbc2c9c7765c185c5612cf14526d69002385e6e87806735ca58d9802bc99d024a",
      "assetIds": [
        "41506478881403507969696680653240014914910929820314476107906210059990541021189"
      ]
    },
    {
      "x": 391,
      "y": 222,
      "size": 1,
      "price": "4683000000000000000000",
      "reserved": "",
      "salt": "0x6459234f9e48814bf822faabb65a5158c3fc551c53e3e161c82f0b7562f1ac68",
      "assetIds": [
        "41506478881403507969696680653240014914910929820314476107906210059990541021188"
      ]
    },
    {
      "x": 391,
      "y": 223,
      "size": 1,
      "price": "4683000000000000000000",
      "reserved": "",
      "salt": "0x548af1834df69854f012cddf9c9ab85c12bb145500391b2edd3c3a6dd471f549",
      "assetIds": [
        "41506478881403507969696680653240014914910929820314476107906210059990541021187"
      ]
    },
    {
      "x": 391,
      "y": 224,
      "size": 1,
      "price": "4683000000000000000000",
      "reserved": "",
      "salt": "0x7fbe265d9270deed2ab78265c67834fb6e7dba01514cf3555c597dabdd76f267",
      "assetIds": [
        "41506478881403507969696680653240014914910929820314476107906210059990541021185"
      ]
    },
    {
      "x": 391,
      "y": 225,
      "size": 1,
      "price": "4683000000000000000000",
      "reserved": "",
      "salt": "0x40f5d90a913a86a31754464cc45b06c658b6c705ab3877d55df11bc9f5923a07",
      "assetIds": [
        "41506478881403507969696680653240014914910929820314476107906210059990541021189"
      ]
    },
    {
      "x": 391,
      "y": 226,
      "size": 1,
      "price": "4683000000000000000000",
      "reserved": "",
      "salt": "0x5048476f696fca335b3cb2141c8d45794b243ddc595441962639afeea3c9b9f5",
      "assetIds": [
        "41506478881403507969696680653240014914910929820314476107906210059990541021188"
      ]
    },
    {
      "x": 391,
      "y": 227,
      "size": 1,
      "price": "4683000000000000000000",
      "reserved": "",
      "salt": "0x6087c8c6ff62ef366f68becd519f33aeece60b8223b38782cfb63250229ddbe8",
      "assetIds": [
        "41506478881403507969696680653240014914910929820314476107906210059990541021187"
      ]
    },
    {
      "x": 391,
      "y": 234,
      "size": 1,
      "price": "4683000000000000000000",
      "reserved": "",
      "salt": "0x1d3e48590b2cc267ef4d7377907041bae25c841ab110265892e0ba9f7ba5a623",
      "assetIds": [
        "41506478881403507969696680653240014914910929820314476107906210059990541021187"
      ]
    },
    {
      "x": 391,
      "y": 235,
      "size": 1,
      "price": "4683000000000000000000",
      "reserved": "",
      "salt": "0xdb894c0d18908c323a91dd6a75cb0b515a8a72ec8a4e8591c619bab750b72dd0",
      "assetIds": [
        "41506478881403507969696680653240014914910929820314476107906210059990541021189"
      ]
    },
    {
      "x": 391,
      "y": 236,
      "size": 1,
      "price": "4683000000000000000000",
      "reserved": "",
      "salt": "0x77dee94e432628f45c74da73b17c560b3f57bf8aa479768f027c2b4f0a5efc69",
      "assetIds": [
        "41506478881403507969696680653240014914910929820314476107906210059990541021189"
      ]
    },
    {
      "x": 391,
      "y": 237,
      "size": 1,
      "price": "4683000000000000000000",
      "reserved": "",
      "salt": "0x7c290824607adff83987818f9eff44ba647c2c72e814f2d513eccba8b1bfbd30",
      "assetIds": [
        "41506478881403507969696680653240014914910929820314476107906210059990541021188"
      ]
    },
    {
      "x": 391,
      "y": 238,
      "size": 1,
      "price": "1011000000000000000000",
      "reserved": "0x7a9fe22691c811ea339d9b73150e6911a5343dca",
      "salt": "0xc90148b1354e82d6572c04637aaeb22fbda5837dafc9864b28fdbd21ed4af8c2",
      "assetIds": []
    },
    {
      "x": 391,
      "y": 239,
      "size": 1,
      "price": "4683000000000000000000",
      "reserved": "",
      "salt": "0xd1255d30299c705e90f483663a8e25adbad8c6f7475d335bdc02ad3fc21c59da",
      "assetIds": [
        "41506478881403507969696680653240014914910929820314476107906210059990541021189"
      ]
    },
    {
      "x": 391,
      "y": 252,
      "size": 1,
      "price": "4683000000000000000000",
      "reserved": "",
      "salt": "0xee8f47c71e9d2802072be31c7457815d1ef50625b2292767d2fb97e23a303569",
      "assetIds": [
        "41506478881403507969696680653240014914910929820314476107906210059990541021185"
      ]
    },
    {
      "x": 391,
      "y": 253,
      "size": 1,
      "price": "4683000000000000000000",
      "reserved": "",
      "salt": "0x6f15aa0d0bf3507cc17567bc9f7240a05b527200993dc66129a214f66541c275",
      "assetIds": [
        "41506478881403507969696680653240014914910929820314476107906210059990532622336"
      ]
    },
    {
      "x": 391,
      "y": 254,
      "size": 1,
      "price": "4683000000000000000000",
      "reserved": "",
      "salt": "0xd67b23d868cae9928f5f99a0823eec10c16762dbe6617f92c2df55efde0a79e2",
      "assetIds": [
        "41506478881403507969696680653240014914910929820314476107906210059990541021185"
      ]
    },
    {
      "x": 391,
      "y": 255,
      "size": 1,
      "price": "1011000000000000000000",
      "reserved": "0x7a9fe22691c811ea339d9b73150e6911a5343dca",
      "salt": "0xa1ee2b2d2dc7661a3f440a180de29f3f8da5b2635206428cc3b50c16d0204e95",
      "assetIds": []
    },
    {
      "x": 391,
      "y": 256,
      "size": 1,
      "price": "4683000000000000000000",
      "reserved": "",
      "salt": "0x656bf13f36b12fb025dbb8a5963e20cbc34d24d7bf17063366c7c6106ef8f06d",
      "assetIds": [
        "41506478881403507969696680653240014914910929820314476107906210059990541021189"
      ]
    },
    {
      "x": 391,
      "y": 257,
      "size": 1,
      "price": "4683000000000000000000",
      "reserved": "",
      "salt": "0x974f88330e2213b5455e77c85a1d25f8a016194cd13f8a6ed80604f025ee978d",
      "assetIds": [
        "41506478881403507969696680653240014914910929820314476107906210059990541021184"
      ]
    },
    {
      "x": 391,
      "y": 261,
      "size": 1,
      "price": "4683000000000000000000",
      "reserved": "",
      "salt": "0x4374854a052d1a5ea90b6dd65efd44800e9ada9da445dcb2b3936d2ecb9a108c",
      "assetIds": [
        "41506478881403507969696680653240014914910929820314476107906210059990541021188"
      ]
    },
    {
      "x": 391,
      "y": 262,
      "size": 1,
      "price": "4683000000000000000000",
      "reserved": "",
      "salt": "0x428da854239f96f7f7f556bff8c880077282456232c8a358c08458b69f06de3c",
      "assetIds": [
        "41506478881403507969696680653240014914910929820314476107906210059990541021189"
      ]
    },
    {
      "x": 391,
      "y": 263,
      "size": 1,
      "price": "4683000000000000000000",
      "reserved": "",
      "salt": "0xb56f76c620086973fe3188643b44d9f56351e508f51022f0f0334df1f843b71a",
      "assetIds": [
        "41506478881403507969696680653240014914910929820314476107906210059990541021188"
      ]
    },
    {
      "x": 391,
      "y": 291,
      "size": 1,
      "price": "4683000000000000000000",
      "reserved": "",
      "salt": "0x68e015b020b3818c0b3f328145a5a8ffe1e772193a29988e39d3641067873cb1",
      "assetIds": [
        "41506478881403507969696680653240014914910929820314476107906210059990541021188"
      ]
    },
    {
      "x": 391,
      "y": 292,
      "size": 1,
      "price": "4683000000000000000000",
      "reserved": "",
      "salt": "0xfcf498bbac3f2551e37335d16daa50323636762b0ddbfc257fbe27c3048eed2b",
      "assetIds": [
        "41506478881403507969696680653240014914910929820314476107906210059990541021189"
      ]
    },
    {
      "x": 391,
      "y": 293,
      "size": 1,
      "price": "4683000000000000000000",
      "reserved": "",
      "salt": "0xb783a2ba6ce768fbae9ef037da83c9f2035f5c622d7e1004ba1d6b26d1256369",
      "assetIds": [
        "41506478881403507969696680653240014914910929820314476107906210059990541021188"
      ]
    },
    {
      "x": 391,
      "y": 294,
      "size": 1,
      "price": "4683000000000000000000",
      "reserved": "",
      "salt": "0x55f36eef77721d3d80a59c7fffbaa95e586f5fe6dcc5803348b97746877c19ec",
      "assetIds": [
        "41506478881403507969696680653240014914910929820314476107906210059990541021185"
      ]
    },
    {
      "x": 391,
      "y": 295,
      "size": 1,
      "price": "4683000000000000000000",
      "reserved": "",
      "salt": "0xaa0c4907810613f65f453dc932bd20ffb02c168dd04ecc45bc46ba0ae1e27ef2",
      "assetIds": [
        "41506478881403507969696680653240014914910929820314476107906210059990541021186"
      ]
    },
    {
      "x": 391,
      "y": 296,
      "size": 1,
      "price": "4683000000000000000000",
      "reserved": "",
      "salt": "0x3e74bc17afa138f17a0f8658b8e624d766f0cc4f1979da08f9b197e4ad5a4cfa",
      "assetIds": [
        "41506478881403507969696680653240014914910929820314476107906210059990532622336"
      ]
    },
    {
      "x": 391,
      "y": 297,
      "size": 1,
      "price": "4683000000000000000000",
      "reserved": "",
      "salt": "0xd20f0a2889ed8f78fc31a0b9493909b531107441d1bf66d21d6f5cc0982af246",
      "assetIds": [
        "41506478881403507969696680653240014914910929820314476107906210059990541021189"
      ]
    },
    {
      "x": 391,
      "y": 298,
      "size": 1,
      "price": "4683000000000000000000",
      "reserved": "",
      "salt": "0x0b31eb3aa832c67b5e98fd1336b7869878d6c14da145f3c9f8436d8bc6d526be",
      "assetIds": [
        "41506478881403507969696680653240014914910929820314476107906210059990541021185"
      ]
    },
    {
      "x": 391,
      "y": 299,
      "size": 1,
      "price": "4683000000000000000000",
      "reserved": "",
      "salt": "0x4aed3b1051c2eb1d58bdaa6c2149e628eb9f013c8fb850b0926b84cf31a3bd16",
      "assetIds": [
        "41506478881403507969696680653240014914910929820314476107906210059990541021184"
      ]
    },
    {
      "x": 391,
      "y": 300,
      "size": 1,
      "price": "4683000000000000000000",
      "reserved": "",
      "salt": "0x3f15a65a572196859a5c54707949a87a39aab9fd9e4388de63d104b29c474b93",
      "assetIds": [
        "41506478881403507969696680653240014914910929820314476107906210059990541021188"
      ]
    },
    {
      "x": 391,
      "y": 301,
      "size": 1,
      "price": "4683000000000000000000",
      "reserved": "",
      "salt": "0xbb15e74f3e2ba1e4fe4ac0b668fe5a20acc05c33d6f2161f97f89b9004e0c93d",
      "assetIds": [
        "41506478881403507969696680653240014914910929820314476107906210059990541021189"
      ]
    },
    {
      "x": 391,
      "y": 302,
      "size": 1,
      "price": "4683000000000000000000",
      "reserved": "",
      "salt": "0x534d3f63e8657471ba08838faf4239a8146a5267e87d9c5b6821c2147c9786ad",
      "assetIds": [
        "41506478881403507969696680653240014914910929820314476107906210059990541021185"
      ]
    },
    {
      "x": 391,
      "y": 306,
      "size": 1,
      "price": "4683000000000000000000",
      "reserved": "",
      "salt": "0x04a6e7f408daf241c5355c95e636ea3ad1880a429b77543d6a389810b4ec0f91",
      "assetIds": [
        "41506478881403507969696680653240014914910929820314476107906210059990541021185"
      ]
    },
    {
      "x": 391,
      "y": 307,
      "size": 1,
      "price": "4683000000000000000000",
      "reserved": "",
      "salt": "0x0e08dc15b2e5ed0335cd87a792cf36520e2155a5d617ffef724fcf9ffbecd139",
      "assetIds": [
        "41506478881403507969696680653240014914910929820314476107906210059990541021186"
      ]
    },
    {
      "x": 391,
      "y": 308,
      "size": 1,
      "price": "4683000000000000000000",
      "reserved": "",
      "salt": "0xf49d9931188a854bc90f95a235d7b5ccf0bcbe97db9db813ebd1e2398e6a5159",
      "assetIds": [
        "41506478881403507969696680653240014914910929820314476107906210059990541021186"
      ]
    },
    {
      "x": 392,
      "y": 222,
      "size": 1,
      "price": "4683000000000000000000",
      "reserved": "",
      "salt": "0x7c46d5184967872cc826ed907473e4d466e84683f8233f2e0b2d5f8a8799b2af",
      "assetIds": [
        "41506478881403507969696680653240014914910929820314476107906210059990541021187"
      ]
    },
    {
      "x": 392,
      "y": 223,
      "size": 1,
      "price": "4683000000000000000000",
      "reserved": "",
      "salt": "0x5587919d37b589788d7973598db631c365db1ccd111e687d0e2c7184bd88088e",
      "assetIds": [
        "41506478881403507969696680653240014914910929820314476107906210059990541021184"
      ]
    },
    {
      "x": 392,
      "y": 224,
      "size": 1,
      "price": "4683000000000000000000",
      "reserved": "",
      "salt": "0x98df8ad9ca653bb7097daca436a9e6ae342f47834adbda3cb78292fce18fdb10",
      "assetIds": [
        "41506478881403507969696680653240014914910929820314476107906210059990541021184"
      ]
    },
    {
      "x": 392,
      "y": 225,
      "size": 1,
      "price": "4683000000000000000000",
      "reserved": "",
      "salt": "0x033859b08416b8459504beaa1c4000232340f714478543520108366409b91f4e",
      "assetIds": [
        "41506478881403507969696680653240014914910929820314476107906210059990541021187"
      ]
    },
    {
      "x": 392,
      "y": 226,
      "size": 1,
      "price": "4683000000000000000000",
      "reserved": "",
      "salt": "0xecae358d94b19a3f9f7f6878896e1b5374ff8755357ec42d8b0c47826005954d",
      "assetIds": [
        "41506478881403507969696680653240014914910929820314476107906210059990541021185"
      ]
    },
    {
      "x": 392,
      "y": 227,
      "size": 1,
      "price": "4683000000000000000000",
      "reserved": "",
      "salt": "0x9fc696b140589034fe8e4820f608092ebba28c87760a6f0a906b64d37bbfc5b6",
      "assetIds": [
        "41506478881403507969696680653240014914910929820314476107906210059990541021189"
      ]
    },
    {
      "x": 392,
      "y": 234,
      "size": 1,
      "price": "4683000000000000000000",
      "reserved": "",
      "salt": "0x5771bee276bdaf40d2f199b55821bec76b1f11fd0ece887fd414df3b983cb9ab",
      "assetIds": [
        "41506478881403507969696680653240014914910929820314476107906210059990541021189"
      ]
    },
    {
      "x": 392,
      "y": 235,
      "size": 1,
      "price": "4683000000000000000000",
      "reserved": "",
      "salt": "0x4a8bcbd5c082a66c2d7f37ca1b2d8b2bd1b4437b5f12a20af5dd85469b111d9c",
      "assetIds": [
        "41506478881403507969696680653240014914910929820314476107906210059990541021186"
      ]
    },
    {
      "x": 392,
      "y": 236,
      "size": 1,
      "price": "4683000000000000000000",
      "reserved": "",
      "salt": "0x8b0559ecdaa22248468f2395a0f223867f6e633b1d2fe6cb889a45daea5871a1",
      "assetIds": [
        "41506478881403507969696680653240014914910929820314476107906210059990541021188"
      ]
    },
    {
      "x": 392,
      "y": 237,
      "size": 1,
      "price": "4683000000000000000000",
      "reserved": "",
      "salt": "0x5ec6ed4c957d92a9fa4c2b52995986096738d50a99a102c8573c065cdefac252",
      "assetIds": [
        "41506478881403507969696680653240014914910929820314476107906210059990541021189"
      ]
    },
    {
      "x": 392,
      "y": 238,
      "size": 1,
      "price": "4683000000000000000000",
      "reserved": "",
      "salt": "0x4e70ead0c3051ce65844614c01c350f1249143d86874ee7ef662a18176582346",
      "assetIds": [
        "41506478881403507969696680653240014914910929820314476107906210059990541021189"
      ]
    },
    {
      "x": 392,
      "y": 239,
      "size": 1,
      "price": "4683000000000000000000",
      "reserved": "",
      "salt": "0x236e938f582a8f65f924ac96d0682dc1c9b2933f09b40559683760a4968ae29c",
      "assetIds": [
        "41506478881403507969696680653240014914910929820314476107906210059990541021189"
      ]
    },
    {
      "x": 392,
      "y": 252,
      "size": 1,
      "price": "4683000000000000000000",
      "reserved": "",
      "salt": "0x09ba640cdf809e7e46714e07d8827bbd076eef1e7eafc2ceed3d6e329f76564a",
      "assetIds": [
        "41506478881403507969696680653240014914910929820314476107906210059990532622336"
      ]
    },
    {
      "x": 392,
      "y": 253,
      "size": 1,
      "price": "4683000000000000000000",
      "reserved": "",
      "salt": "0x7ff9bd1a7a898e1fc251096564c1f764efae3d0efa5847555fff630dd46ce49c",
      "assetIds": [
        "41506478881403507969696680653240014914910929820314476107906210059990541021188"
      ]
    },
    {
      "x": 392,
      "y": 254,
      "size": 1,
      "price": "4683000000000000000000",
      "reserved": "",
      "salt": "0x35c136ab5763845d8c9d71d65aa4a802f13c652e9cc7f6992e94365ee598f19f",
      "assetIds": [
        "41506478881403507969696680653240014914910929820314476107906210059990532622336"
      ]
    },
    {
      "x": 392,
      "y": 255,
      "size": 1,
      "price": "4683000000000000000000",
      "reserved": "",
      "salt": "0xb998c1ee0f75acb3fe6d7a6ade9ce912d4f24bad5b38798a78cb7836ccdb9e07",
      "assetIds": [
        "41506478881403507969696680653240014914910929820314476107906210059990541021188"
      ]
    },
    {
      "x": 392,
      "y": 256,
      "size": 1,
      "price": "4683000000000000000000",
      "reserved": "",
      "salt": "0xff27256e2cb7deb958cbe5f3d04a1c540ba9454de0267467397a24a295096f66",
      "assetIds": [
        "41506478881403507969696680653240014914910929820314476107906210059990541021188"
      ]
    },
    {
      "x": 392,
      "y": 257,
      "size": 1,
      "price": "4683000000000000000000",
      "reserved": "",
      "salt": "0x34e0606cfa4d995d45bdfcb6fa4621b006ff13e327ba83579b674420e629680a",
      "assetIds": [
        "41506478881403507969696680653240014914910929820314476107906210059990541021188"
      ]
    },
    {
      "x": 392,
      "y": 261,
      "size": 1,
      "price": "4683000000000000000000",
      "reserved": "",
      "salt": "0xd1dddb790c8fc5e8c610a9eb19cf99b8cef56493466fa4053a5f9580dd04311a",
      "assetIds": [
        "41506478881403507969696680653240014914910929820314476107906210059990541021188"
      ]
    },
    {
      "x": 392,
      "y": 262,
      "size": 1,
      "price": "4683000000000000000000",
      "reserved": "",
      "salt": "0x95bf7e6d3a8d1599e0bdf2e84d20477d99f16fe7016bec47cf1dcfeaf8d3ee89",
      "assetIds": [
        "41506478881403507969696680653240014914910929820314476107906210059990541021189"
      ]
    },
    {
      "x": 392,
      "y": 263,
      "size": 1,
      "price": "4683000000000000000000",
      "reserved": "",
      "salt": "0xc4b96e826dc0089b739ee6c4055752f4644c2c690f2dee0a975c8d534988ec95",
      "assetIds": [
        "41506478881403507969696680653240014914910929820314476107906210059990541021187"
      ]
    },
    {
      "x": 392,
      "y": 291,
      "size": 1,
      "price": "4683000000000000000000",
      "reserved": "",
      "salt": "0x0f795d9109768ac7556fd8da38951e3d8237b0a48541710b747404a99237992d",
      "assetIds": [
        "41506478881403507969696680653240014914910929820314476107906210059990541021185"
      ]
    },
    {
      "x": 392,
      "y": 292,
      "size": 1,
      "price": "4683000000000000000000",
      "reserved": "",
      "salt": "0xff07b504b6f3a925a3d157b084d93d3e53f150606d7b6dc408aa73521d124267",
      "assetIds": [
        "41506478881403507969696680653240014914910929820314476107906210059990541021184"
      ]
    },
    {
      "x": 392,
      "y": 293,
      "size": 1,
      "price": "4683000000000000000000",
      "reserved": "",
      "salt": "0x1b412415b02373a957a156c5231f8e23171c689fe0cd4b02c3d0a6a2867efbce",
      "assetIds": [
        "41506478881403507969696680653240014914910929820314476107906210059990541021188"
      ]
    },
    {
      "x": 392,
      "y": 294,
      "size": 1,
      "price": "4683000000000000000000",
      "reserved": "",
      "salt": "0x9203fb9b889ccf159311ddc5225e4aead35df11a7c82fe16817c29b76f3b61ca",
      "assetIds": [
        "41506478881403507969696680653240014914910929820314476107906210059990541021185"
      ]
    },
    {
      "x": 392,
      "y": 295,
      "size": 1,
      "price": "4683000000000000000000",
      "reserved": "",
      "salt": "0xbba9ac0a4ec0cbfb0a93f9abc7d1dc005c01a0fc3a4b621fc8cc2726228d37b6",
      "assetIds": [
        "41506478881403507969696680653240014914910929820314476107906210059990541021187"
      ]
    },
    {
      "x": 392,
      "y": 296,
      "size": 1,
      "price": "4683000000000000000000",
      "reserved": "",
      "salt": "0x506d492fda09810bf4dec3cbc49910fa104b88d2596b7412becdb326d3888cd5",
      "assetIds": [
        "41506478881403507969696680653240014914910929820314476107906210059990541021187"
      ]
    },
    {
      "x": 392,
      "y": 297,
      "size": 1,
      "price": "4683000000000000000000",
      "reserved": "",
      "salt": "0xe3f3c065f894ab13ab4fa8be95270530b4921ae2c03c9e53baecd99f97e6df35",
      "assetIds": [
        "41506478881403507969696680653240014914910929820314476107906210059990541021188"
      ]
    },
    {
      "x": 392,
      "y": 298,
      "size": 1,
      "price": "4683000000000000000000",
      "reserved": "",
      "salt": "0x27f3d79a2945daf994b21db272c3d58dd0125f0b73134c664e4555fe793cb18c",
      "assetIds": [
        "41506478881403507969696680653240014914910929820314476107906210059990532622336"
      ]
    },
    {
      "x": 392,
      "y": 299,
      "size": 1,
      "price": "4683000000000000000000",
      "reserved": "",
      "salt": "0x064fe1d42b04d88e085933eb892c128f0c47877fa2caef93ee5a84ba2ee1c5d2",
      "assetIds": [
        "41506478881403507969696680653240014914910929820314476107906210059990541021189"
      ]
    },
    {
      "x": 392,
      "y": 300,
      "size": 1,
      "price": "4683000000000000000000",
      "reserved": "",
      "salt": "0xca125822686fdff5accb652fa8bd5481ddaedb335c3205bb2342e6bf30551f37",
      "assetIds": [
        "41506478881403507969696680653240014914910929820314476107906210059990541021187"
      ]
    },
    {
      "x": 392,
      "y": 301,
      "size": 1,
      "price": "4683000000000000000000",
      "reserved": "",
      "salt": "0x3d1604604177669426aa02d7b92ed2a53a6091c1768f7869e244f83016268a41",
      "assetIds": [
        "41506478881403507969696680653240014914910929820314476107906210059990541021187"
      ]
    },
    {
      "x": 392,
      "y": 302,
      "size": 1,
      "price": "4683000000000000000000",
      "reserved": "",
      "salt": "0x329bdb906f2706f9e10d90c75e50d1a0dbbc4c4a1cae9169c4f3475026cde06c",
      "assetIds": [
        "41506478881403507969696680653240014914910929820314476107906210059990541021185"
      ]
    },
    {
      "x": 392,
      "y": 306,
      "size": 1,
      "price": "4683000000000000000000",
      "reserved": "",
      "salt": "0xb494ac4f9606bc49c226d6440cdb34965aca5d254d957972bcf49c6a7857dfbd",
      "assetIds": [
        "41506478881403507969696680653240014914910929820314476107906210059990541021188"
      ]
    },
    {
      "x": 392,
      "y": 307,
      "size": 1,
      "price": "4683000000000000000000",
      "reserved": "",
      "salt": "0x9d306abb481edf069029f33e706584bcceb352d7b3846b91fc17d4855a0d3aea",
      "assetIds": [
        "41506478881403507969696680653240014914910929820314476107906210059990541021188"
      ]
    },
    {
      "x": 392,
      "y": 308,
      "size": 1,
      "price": "4683000000000000000000",
      "reserved": "",
      "salt": "0x4f147d4259fc325824b22b367145daa4abfc5a7fbbfe7adda98fc780e7a07a2e",
      "assetIds": [
        "41506478881403507969696680653240014914910929820314476107906210059990541021184"
      ]
    },
    {
      "x": 393,
      "y": 222,
      "size": 1,
      "price": "4683000000000000000000",
      "reserved": "",
      "salt": "0x690fe957db76c89ed7aa880ae0bdbb91254b8803dec2481c0d5cdf844e7ec04b",
      "assetIds": [
        "41506478881403507969696680653240014914910929820314476107906210059990541021186"
      ]
    },
    {
      "x": 393,
      "y": 223,
      "size": 1,
      "price": "4683000000000000000000",
      "reserved": "",
      "salt": "0xf13c08a6a0658524825fa967e737dbbf64b678c08d70e705bf322339fb02c605",
      "assetIds": [
        "41506478881403507969696680653240014914910929820314476107906210059990541021187"
      ]
    },
    {
      "x": 393,
      "y": 224,
      "size": 1,
      "price": "4683000000000000000000",
      "reserved": "",
      "salt": "0x31ffa9ae9bb97262f9f85ae13ca4ef9eca9bfae945232170c683ce483ab4de41",
      "assetIds": [
        "41506478881403507969696680653240014914910929820314476107906210059990541021188"
      ]
    },
    {
      "x": 393,
      "y": 225,
      "size": 1,
      "price": "4683000000000000000000",
      "reserved": "",
      "salt": "0x5b55881e9c5dcec04675e71ababd81fd843b11cfd562e0bb902b1214075e11e3",
      "assetIds": [
        "41506478881403507969696680653240014914910929820314476107906210059990541021187"
      ]
    },
    {
      "x": 393,
      "y": 226,
      "size": 1,
      "price": "4683000000000000000000",
      "reserved": "",
      "salt": "0xd6bec638af15c1097b95b6cf95273ef72acff5e67dfb572abae898afb96ee820",
      "assetIds": [
        "41506478881403507969696680653240014914910929820314476107906210059990541021187"
      ]
    },
    {
      "x": 393,
      "y": 227,
      "size": 1,
      "price": "4683000000000000000000",
      "reserved": "",
      "salt": "0x236f1bcd68aa52eb864d0823035fb2e668f7de6135dea275f65ea4ce01b7c1f1",
      "assetIds": [
        "41506478881403507969696680653240014914910929820314476107906210059990541021186"
      ]
    },
    {
      "x": 393,
      "y": 234,
      "size": 1,
      "price": "4683000000000000000000",
      "reserved": "",
      "salt": "0xd5ac2816cb1e6bc8420a70a88e0ab15322f1aa59fba3a205fdb2f0a3a9561cba",
      "assetIds": [
        "41506478881403507969696680653240014914910929820314476107906210059990541021189"
      ]
    },
    {
      "x": 393,
      "y": 235,
      "size": 1,
      "price": "4683000000000000000000",
      "reserved": "",
      "salt": "0xb118350829e4bb2ac0e792af498271979e314b673264e7b0ec36f4face84ff69",
      "assetIds": [
        "41506478881403507969696680653240014914910929820314476107906210059990541021188"
      ]
    },
    {
      "x": 393,
      "y": 236,
      "size": 1,
      "price": "4683000000000000000000",
      "reserved": "",
      "salt": "0x4ef47cd31d8dd347887322f26c15f9d0bd962ad26acd988c881dcac2a321f88c",
      "assetIds": [
        "41506478881403507969696680653240014914910929820314476107906210059990532622336"
      ]
    },
    {
      "x": 393,
      "y": 237,
      "size": 1,
      "price": "4683000000000000000000",
      "reserved": "",
      "salt": "0xa0ec7b99176e8cd67b3c88fadc57f685252d21e83b1f67bf99d2c520b8cf837e",
      "assetIds": [
        "41506478881403507969696680653240014914910929820314476107906210059990541021186"
      ]
    },
    {
      "x": 393,
      "y": 238,
      "size": 1,
      "price": "4683000000000000000000",
      "reserved": "",
      "salt": "0xbdaf3fe5dd73e21ae263cd9d5f5e47455b39f101c3d66746f4b7adab2af023ae",
      "assetIds": [
        "41506478881403507969696680653240014914910929820314476107906210059990541021188"
      ]
    },
    {
      "x": 393,
      "y": 239,
      "size": 1,
      "price": "4683000000000000000000",
      "reserved": "",
      "salt": "0xe5caefe63fa569a96d02ca721e478695d58e3523ce400c76e42ca3270bd4d289",
      "assetIds": [
        "41506478881403507969696680653240014914910929820314476107906210059990541021187"
      ]
    },
    {
      "x": 393,
      "y": 252,
      "size": 1,
      "price": "4683000000000000000000",
      "reserved": "",
      "salt": "0x4fab9143315fa9907f981157f593387c42fdea3fe7c3f926fcd0f70a6117d1be",
      "assetIds": [
        "41506478881403507969696680653240014914910929820314476107906210059990541021187"
      ]
    },
    {
      "x": 393,
      "y": 253,
      "size": 1,
      "price": "4683000000000000000000",
      "reserved": "",
      "salt": "0x2822e980196f62b36cdbd073f6bd825cbaafde94b9a75403343eb967e15c6933",
      "assetIds": [
        "41506478881403507969696680653240014914910929820314476107906210059990541021187"
      ]
    },
    {
      "x": 393,
      "y": 254,
      "size": 1,
      "price": "4683000000000000000000",
      "reserved": "",
      "salt": "0x4de403a020b8d55bc20b3dd6f94d102c826ea1e15de37e714ef6ff0df7c2e02a",
      "assetIds": [
        "41506478881403507969696680653240014914910929820314476107906210059990541021187"
      ]
    },
    {
      "x": 393,
      "y": 255,
      "size": 1,
      "price": "4683000000000000000000",
      "reserved": "",
      "salt": "0x3b1d83631cdd49747badd902d9429fd4c6f8473fb6e9aa330ad5c98fcba7484e",
      "assetIds": [
        "41506478881403507969696680653240014914910929820314476107906210059990541021188"
      ]
    },
    {
      "x": 393,
      "y": 256,
      "size": 1,
      "price": "4683000000000000000000",
      "reserved": "",
      "salt": "0xb569ef6e4c93ae44ca66e9a203f4ae774e209505d47abbc65180dbf1d4323876",
      "assetIds": [
        "41506478881403507969696680653240014914910929820314476107906210059990541021187"
      ]
    },
    {
      "x": 393,
      "y": 257,
      "size": 1,
      "price": "4683000000000000000000",
      "reserved": "",
      "salt": "0x99de62d9a433932853d5ba8d46619402a41d46d7b8614f04ff66d54361f55164",
      "assetIds": [
        "41506478881403507969696680653240014914910929820314476107906210059990541021188"
      ]
    },
    {
      "x": 393,
      "y": 258,
      "size": 1,
      "price": "4683000000000000000000",
      "reserved": "",
      "salt": "0xa80efbf61cd1a9385470bbd1a7c2c62ae165d0c3b14f7a080419e8d93eef3f54",
      "assetIds": [
        "41506478881403507969696680653240014914910929820314476107906210059990541021187"
      ]
    },
    {
      "x": 393,
      "y": 259,
      "size": 1,
      "price": "4683000000000000000000",
      "reserved": "",
      "salt": "0x1aa685f3483a29b15f1a6f4fef526016296097c6f7b2ac150fa29a9f66349732",
      "assetIds": [
        "41506478881403507969696680653240014914910929820314476107906210059990541021188"
      ]
    },
    {
      "x": 393,
      "y": 260,
      "size": 1,
      "price": "4683000000000000000000",
      "reserved": "",
      "salt": "0x2b90b06f497e779661edc148fc7f5ee66c5fc90b8844e4279c680284345ef061",
      "assetIds": [
        "41506478881403507969696680653240014914910929820314476107906210059990541021188"
      ]
    },
    {
      "x": 393,
      "y": 288,
      "size": 1,
      "price": "4683000000000000000000",
      "reserved": "",
      "salt": "0xf10ae6bbc6f575c31770ce8fc6b40090ca6770034492d716e2ed716814a7f20e",
      "assetIds": [
        "41506478881403507969696680653240014914910929820314476107906210059990532622336"
      ]
    },
    {
      "x": 393,
      "y": 289,
      "size": 1,
      "price": "4683000000000000000000",
      "reserved": "",
      "salt": "0x4e2074a54343767e4214372a3a00e74bff4e3ea0f1d9e89b127cb215430c0686",
      "assetIds": [
        "41506478881403507969696680653240014914910929820314476107906210059990541021187"
      ]
    },
    {
      "x": 393,
      "y": 290,
      "size": 1,
      "price": "4683000000000000000000",
      "reserved": "",
      "salt": "0xbf03d717d8b9e3534905233aedc50477a9889fb4b9a95540186a773b76a21dfa",
      "assetIds": [
        "41506478881403507969696680653240014914910929820314476107906210059990541021189"
      ]
    },
    {
      "x": 393,
      "y": 291,
      "size": 1,
      "price": "4683000000000000000000",
      "reserved": "",
      "salt": "0x729f116dc9d046f11851d821d8c6b9f35acbc63ad8c7ee42457e67b6b97a6830",
      "assetIds": [
        "41506478881403507969696680653240014914910929820314476107906210059990541021184"
      ]
    },
    {
      "x": 393,
      "y": 292,
      "size": 1,
      "price": "4683000000000000000000",
      "reserved": "",
      "salt": "0xdd7e896cb932942ee437dd9ed0bf38794738ff5536bfb52b5a4f938994680308",
      "assetIds": [
        "41506478881403507969696680653240014914910929820314476107906210059990541021189"
      ]
    },
    {
      "x": 393,
      "y": 293,
      "size": 1,
      "price": "4683000000000000000000",
      "reserved": "",
      "salt": "0xc1f4fa4a50ea84f03611874af3a6fe5ce0c0f33b3bfc72f15742b7c26a03e8f9",
      "assetIds": [
        "41506478881403507969696680653240014914910929820314476107906210059990541021187"
      ]
    },
    {
      "x": 393,
      "y": 294,
      "size": 1,
      "price": "4683000000000000000000",
      "reserved": "",
      "salt": "0x85c7fd40e2e6b82ea04d4d81a6712bb95dcc60960004308d899b05fcf1b70496",
      "assetIds": [
        "41506478881403507969696680653240014914910929820314476107906210059990541021187"
      ]
    },
    {
      "x": 393,
      "y": 295,
      "size": 1,
      "price": "4683000000000000000000",
      "reserved": "",
      "salt": "0x25cc779863efc278537ba3ce66837da2f38e9c1ca41ae2616d6260e35c30142b",
      "assetIds": [
        "41506478881403507969696680653240014914910929820314476107906210059990532622336"
      ]
    },
    {
      "x": 393,
      "y": 296,
      "size": 1,
      "price": "4683000000000000000000",
      "reserved": "",
      "salt": "0x617d0f6ec93e083cad916dae2f5d21f95f1bead4250deae42a6a2d3d6e958ef5",
      "assetIds": [
        "41506478881403507969696680653240014914910929820314476107906210059990541021188"
      ]
    },
    {
      "x": 393,
      "y": 300,
      "size": 1,
      "price": "4683000000000000000000",
      "reserved": "",
      "salt": "0xc23de6a422f33b1bf12d42955819294dc7e52677807e3f0864842b7bd97cb59c",
      "assetIds": [
        "41506478881403507969696680653240014914910929820314476107906210059990541021187"
      ]
    },
    {
      "x": 393,
      "y": 301,
      "size": 1,
      "price": "4683000000000000000000",
      "reserved": "",
      "salt": "0x27b8dc0e433ccd17f2e348a1aa1d835805f3bf7627eff791503adcf623726357",
      "assetIds": [
        "41506478881403507969696680653240014914910929820314476107906210059990541021185"
      ]
    },
    {
      "x": 393,
      "y": 302,
      "size": 1,
      "price": "4683000000000000000000",
      "reserved": "",
      "salt": "0xb4e27a8754ab004952cc0285b6db1a311e39842775081a91ef9756f79c7416ea",
      "assetIds": [
        "41506478881403507969696680653240014914910929820314476107906210059990541021188"
      ]
    },
    {
      "x": 393,
      "y": 303,
      "size": 1,
      "price": "4683000000000000000000",
      "reserved": "",
      "salt": "0xfdf3665ea9ec2698cf10c683676b717a948e676cce74980a145828906890370c",
      "assetIds": [
        "41506478881403507969696680653240014914910929820314476107906210059990541021187"
      ]
    },
    {
      "x": 393,
      "y": 304,
      "size": 1,
      "price": "4683000000000000000000",
      "reserved": "",
      "salt": "0x98ab5e7a64d7e29502ffb0fd60960e3705c014ba48797a093c4f206edda52d68",
      "assetIds": [
        "41506478881403507969696680653240014914910929820314476107906210059990532622336"
      ]
    },
    {
      "x": 393,
      "y": 305,
      "size": 1,
      "price": "4683000000000000000000",
      "reserved": "",
      "salt": "0x943d0bf90ff08e50db3467ff19a4ae481897cf0c755d66624a3b96ef914eea55",
      "assetIds": [
        "41506478881403507969696680653240014914910929820314476107906210059990541021187"
      ]
    },
    {
      "x": 393,
      "y": 306,
      "size": 1,
      "price": "4683000000000000000000",
      "reserved": "",
      "salt": "0x2d0ad5e298e416b40f6219695c8fb90f0dcfa13703c50fcc3fab83040a58eee7",
      "assetIds": [
        "41506478881403507969696680653240014914910929820314476107906210059990541021189"
      ]
    },
    {
      "x": 393,
      "y": 307,
      "size": 1,
      "price": "4683000000000000000000",
      "reserved": "",
      "salt": "0x4ffa5142523545df0d354de02aed756516365fb48dd4f29fd72c32cd4e20c102",
      "assetIds": [
        "41506478881403507969696680653240014914910929820314476107906210059990541021185"
      ]
    },
    {
      "x": 393,
      "y": 308,
      "size": 1,
      "price": "4683000000000000000000",
      "reserved": "",
      "salt": "0xfac3936686eafd871bb5e90fb7c4e0eda5ac6e420f994e2daf191f7a0d43a4f9",
      "assetIds": [
        "41506478881403507969696680653240014914910929820314476107906210059990541021187"
      ]
    },
    {
      "x": 393,
      "y": 309,
      "size": 1,
      "price": "4683000000000000000000",
      "reserved": "",
      "salt": "0xb2ffeae8478d7303473ccc7f70f875ee50bce841ae8af73e352f1d5ce8ff5390",
      "assetIds": [
        "41506478881403507969696680653240014914910929820314476107906210059990541021189"
      ]
    },
    {
      "x": 393,
      "y": 310,
      "size": 1,
      "price": "4683000000000000000000",
      "reserved": "",
      "salt": "0x29c618aecbb39c3516e3fbfa33d99878be9851c7c3cba756d584a949ee9e180b",
      "assetIds": [
        "41506478881403507969696680653240014914910929820314476107906210059990541021186"
      ]
    },
    {
      "x": 393,
      "y": 311,
      "size": 1,
      "price": "4683000000000000000000",
      "reserved": "",
      "salt": "0xa4dd0513b9a135b4e6c277dea658710fc2308074da1d29b6c13f9935e50f8a9a",
      "assetIds": [
        "41506478881403507969696680653240014914910929820314476107906210059990532622336"
      ]
    },
    {
      "x": 394,
      "y": 222,
      "size": 1,
      "price": "4683000000000000000000",
      "reserved": "",
      "salt": "0xd034173f3e1c0f3e25deb9e5528da6d75371b1876ebdadf7945cca0656d69f42",
      "assetIds": [
        "41506478881403507969696680653240014914910929820314476107906210059990532622336"
      ]
    },
    {
      "x": 394,
      "y": 223,
      "size": 1,
      "price": "4683000000000000000000",
      "reserved": "",
      "salt": "0x1f31850bff6ec2db6ee1bbd9bd50986846c1ff2a72539823233fe49377401db7",
      "assetIds": [
        "41506478881403507969696680653240014914910929820314476107906210059990541021186"
      ]
    },
    {
      "x": 394,
      "y": 224,
      "size": 1,
      "price": "4683000000000000000000",
      "reserved": "",
      "salt": "0x9083058d758941ca2b59c937210d788f665d4161e2fe669b0ac00ae07ff14caf",
      "assetIds": [
        "41506478881403507969696680653240014914910929820314476107906210059990541021185"
      ]
    },
    {
      "x": 394,
      "y": 225,
      "size": 1,
      "price": "4683000000000000000000",
      "reserved": "",
      "salt": "0xf7b7399040d2bf72d982e61f805dfa6769ef91fdcadcdc3d6921287068fa59d1",
      "assetIds": [
        "41506478881403507969696680653240014914910929820314476107906210059990541021184"
      ]
    },
    {
      "x": 394,
      "y": 226,
      "size": 1,
      "price": "4683000000000000000000",
      "reserved": "",
      "salt": "0x82a79d9229b6f48d3901d0e6faff3a708b6603d8da2420cbece03364688679e1",
      "assetIds": [
        "41506478881403507969696680653240014914910929820314476107906210059990541021187"
      ]
    },
    {
      "x": 394,
      "y": 227,
      "size": 1,
      "price": "4683000000000000000000",
      "reserved": "",
      "salt": "0x16f640b76e7b322cc67fa2694484966cb349b55a160d2fd5eed85af64f3b9e3d",
      "assetIds": [
        "41506478881403507969696680653240014914910929820314476107906210059990541021184"
      ]
    },
    {
      "x": 394,
      "y": 234,
      "size": 1,
      "price": "4683000000000000000000",
      "reserved": "",
      "salt": "0x2d2d13a04cc8b61c06286a11c6f377d24e0bbe798d7b960db16c94c60b45407e",
      "assetIds": [
        "41506478881403507969696680653240014914910929820314476107906210059990541021189"
      ]
    },
    {
      "x": 394,
      "y": 235,
      "size": 1,
      "price": "4683000000000000000000",
      "reserved": "",
      "salt": "0x76faf1e799945964cdb2e85ba59624477ad706e018d3b540466f0a9435cd8a57",
      "assetIds": [
        "41506478881403507969696680653240014914910929820314476107906210059990541021188"
      ]
    },
    {
      "x": 394,
      "y": 236,
      "size": 1,
      "price": "4683000000000000000000",
      "reserved": "",
      "salt": "0xa978f44693ee181a8ad774e3d83009c26e863e2d653776a772cccacdb41a2642",
      "assetIds": [
        "41506478881403507969696680653240014914910929820314476107906210059990541021189"
      ]
    },
    {
      "x": 394,
      "y": 237,
      "size": 1,
      "price": "4683000000000000000000",
      "reserved": "",
      "salt": "0x2a3f4296e367ac044409c9ce370c89ed5a79d77ba6daa8e734d3bdd01313f6e9",
      "assetIds": [
        "41506478881403507969696680653240014914910929820314476107906210059990541021187"
      ]
    },
    {
      "x": 394,
      "y": 238,
      "size": 1,
      "price": "4683000000000000000000",
      "reserved": "",
      "salt": "0x3c441ca1d7c9d5faf1a1033211fe7a39f79dff7fe182fb2d1ae6e7a9d08cf90d",
      "assetIds": [
        "41506478881403507969696680653240014914910929820314476107906210059990541021189"
      ]
    },
    {
      "x": 394,
      "y": 239,
      "size": 1,
      "price": "4683000000000000000000",
      "reserved": "",
      "salt": "0x7a152a4e0a89dce00f1b73094bbe6bb52193781b75dec441a9dc961ba247072b",
      "assetIds": [
        "41506478881403507969696680653240014914910929820314476107906210059990541021187"
      ]
    },
    {
      "x": 394,
      "y": 252,
      "size": 1,
      "price": "4683000000000000000000",
      "reserved": "",
      "salt": "0xc3e7eae25e57a6d9dfbc0996e438a54f02c8cfa86462f15325c4dfdf8e5b118c",
      "assetIds": [
        "41506478881403507969696680653240014914910929820314476107906210059990541021187"
      ]
    },
    {
      "x": 394,
      "y": 253,
      "size": 1,
      "price": "4683000000000000000000",
      "reserved": "",
      "salt": "0x7479f4e801fc8bbc206a62596046d0b18d84c0e25fe5e8269e1119e95d9c2a5b",
      "assetIds": [
        "41506478881403507969696680653240014914910929820314476107906210059990541021186"
      ]
    },
    {
      "x": 394,
      "y": 254,
      "size": 1,
      "price": "4683000000000000000000",
      "reserved": "",
      "salt": "0x26e08fe67f2114df6a85dd7a292ee956350f408f74342e6a221dfd6b4cdfbe73",
      "assetIds": [
        "41506478881403507969696680653240014914910929820314476107906210059990532622336"
      ]
    },
    {
      "x": 394,
      "y": 255,
      "size": 1,
      "price": "4683000000000000000000",
      "reserved": "",
      "salt": "0x88a7d441f2ecc870c8968fd5a8887ef9142c699454f0d15f7aef2430cbda632c",
      "assetIds": [
        "41506478881403507969696680653240014914910929820314476107906210059990541021187"
      ]
    },
    {
      "x": 394,
      "y": 256,
      "size": 1,
      "price": "4683000000000000000000",
      "reserved": "",
      "salt": "0xeb705c4a4f2dfb52f9374d071b9f235f2a5728f283508183cf2f795fbe823d34",
      "assetIds": [
        "41506478881403507969696680653240014914910929820314476107906210059990541021189"
      ]
    },
    {
      "x": 394,
      "y": 257,
      "size": 1,
      "price": "4683000000000000000000",
      "reserved": "",
      "salt": "0x91d0796092a89e0308b4a163d948a0cefcd4b67286fc79cdce3d00c7df56ffa8",
      "assetIds": [
        "41506478881403507969696680653240014914910929820314476107906210059990541021189"
      ]
    },
    {
      "x": 394,
      "y": 258,
      "size": 1,
      "price": "4683000000000000000000",
      "reserved": "",
      "salt": "0x5e1fe78a58c88fc65da1208ddc33512d6c33c185f3a97c4fc0b21880487901f3",
      "assetIds": [
        "41506478881403507969696680653240014914910929820314476107906210059990541021185"
      ]
    },
    {
      "x": 394,
      "y": 259,
      "size": 1,
      "price": "4683000000000000000000",
      "reserved": "",
      "salt": "0x673033c87227a58783b475773c5205fd42a687da1301c788b68f54e0e01096e8",
      "assetIds": [
        "41506478881403507969696680653240014914910929820314476107906210059990541021188"
      ]
    },
    {
      "x": 394,
      "y": 260,
      "size": 1,
      "price": "4683000000000000000000",
      "reserved": "",
      "salt": "0x6b5482f9cc32e8ec38b589004b896d2583274d85290434ec224f5dc8885c369b",
      "assetIds": [
        "41506478881403507969696680653240014914910929820314476107906210059990541021185"
      ]
    },
    {
      "x": 394,
      "y": 288,
      "size": 1,
      "price": "4683000000000000000000",
      "reserved": "",
      "salt": "0x51cbac7caf1cd6975a8ef20f283ec1ac1f3f064345c42018515217a22a92b965",
      "assetIds": [
        "41506478881403507969696680653240014914910929820314476107906210059990541021189"
      ]
    },
    {
      "x": 394,
      "y": 289,
      "size": 1,
      "price": "1011000000000000000000",
      "reserved": "0x7a9fe22691c811ea339d9b73150e6911a5343dca",
      "salt": "0x28c06cc6fbc74cfa04769288e132cf79f94abe5d24d6792a1f04ca9f1fc4475b",
      "assetIds": []
    },
    {
      "x": 394,
      "y": 290,
      "size": 1,
      "price": "4683000000000000000000",
      "reserved": "",
      "salt": "0x9eae62df171b5a040ad47390ae3b70f4a178905f3b7ecd0ed936062b5c56e902",
      "assetIds": [
        "41506478881403507969696680653240014914910929820314476107906210059990541021188"
      ]
    },
    {
      "x": 394,
      "y": 291,
      "size": 1,
      "price": "4683000000000000000000",
      "reserved": "",
      "salt": "0x3a5e4fde0cfa7015cb03070998937c9a75cf4dc262ef799b2867397d636b5659",
      "assetIds": [
        "41506478881403507969696680653240014914910929820314476107906210059990541021188"
      ]
    },
    {
      "x": 394,
      "y": 292,
      "size": 1,
      "price": "4683000000000000000000",
      "reserved": "",
      "salt": "0x96688047e52acf530c9f5592881274319ed8d8fa035b0e26b379e55b9af8b079",
      "assetIds": [
        "41506478881403507969696680653240014914910929820314476107906210059990541021187"
      ]
    },
    {
      "x": 394,
      "y": 293,
      "size": 1,
      "price": "4683000000000000000000",
      "reserved": "",
      "salt": "0x4ca6362941e772b867c21acce5749109795a0a871c7ba4d20c46205ba0fabf6f",
      "assetIds": [
        "41506478881403507969696680653240014914910929820314476107906210059990541021187"
      ]
    },
    {
      "x": 394,
      "y": 294,
      "size": 1,
      "price": "4683000000000000000000",
      "reserved": "",
      "salt": "0x153ffdaa3becacf193d91777a047b611cc8874ac7b5f857732438113396a875f",
      "assetIds": [
        "41506478881403507969696680653240014914910929820314476107906210059990541021185"
      ]
    },
    {
      "x": 394,
      "y": 295,
      "size": 1,
      "price": "4683000000000000000000",
      "reserved": "",
      "salt": "0xc8803a8339a4de0f59c582789cba6e88da3f4673d3b42edc1b7ccb2ba012e430",
      "assetIds": [
        "41506478881403507969696680653240014914910929820314476107906210059990541021188"
      ]
    },
    {
      "x": 394,
      "y": 296,
      "size": 1,
      "price": "4683000000000000000000",
      "reserved": "",
      "salt": "0x15355d85a14767ce6ea61b401491ee316eaece3f0139aa09dbf891a4f5dd66e5",
      "assetIds": [
        "41506478881403507969696680653240014914910929820314476107906210059990541021189"
      ]
    },
    {
      "x": 394,
      "y": 300,
      "size": 1,
      "price": "4683000000000000000000",
      "reserved": "",
      "salt": "0xf6f484b5cb9602e8ec36b19b5dde567839d94ad05dc59c81eb4181543889b0ee",
      "assetIds": [
        "41506478881403507969696680653240014914910929820314476107906210059990541021188"
      ]
    },
    {
      "x": 394,
      "y": 301,
      "size": 1,
      "price": "4683000000000000000000",
      "reserved": "",
      "salt": "0x38987a370a0e6929148b84a7da4bbb73d3f67c92a2250a62c00290fb0c8a4314",
      "assetIds": [
        "41506478881403507969696680653240014914910929820314476107906210059990541021184"
      ]
    },
    {
      "x": 394,
      "y": 302,
      "size": 1,
      "price": "4683000000000000000000",
      "reserved": "",
      "salt": "0x04399dc5b3da325fa3a2db5bcca1acfdb9df4c15f12cfd1b48d27ff419b70daf",
      "assetIds": [
        "41506478881403507969696680653240014914910929820314476107906210059990541021189"
      ]
    },
    {
      "x": 394,
      "y": 303,
      "size": 1,
      "price": "4683000000000000000000",
      "reserved": "",
      "salt": "0xbecfa788507b70366abdb1100d8fc2d1771206f913792b72495d43fd5b0fd277",
      "assetIds": [
        "41506478881403507969696680653240014914910929820314476107906210059990541021188"
      ]
    },
    {
      "x": 394,
      "y": 304,
      "size": 1,
      "price": "4683000000000000000000",
      "reserved": "",
      "salt": "0x2bf822ecd0525ca5d17de9bea9cb241ac874009921e664e763adf0e3c180c929",
      "assetIds": [
        "41506478881403507969696680653240014914910929820314476107906210059990541021187"
      ]
    },
    {
      "x": 394,
      "y": 305,
      "size": 1,
      "price": "4683000000000000000000",
      "reserved": "",
      "salt": "0x247bab0cdd83a28c85471893b82ca3d481e80cf1bb04d5206b23573f32da13f5",
      "assetIds": [
        "41506478881403507969696680653240014914910929820314476107906210059990541021186"
      ]
    },
    {
      "x": 394,
      "y": 306,
      "size": 1,
      "price": "4683000000000000000000",
      "reserved": "",
      "salt": "0x32e431b4e28525a496e41c1a93b0ccbec450a956e0c39543f6ee526dc31819c8",
      "assetIds": [
        "41506478881403507969696680653240014914910929820314476107906210059990541021188"
      ]
    },
    {
      "x": 394,
      "y": 307,
      "size": 1,
      "price": "1011000000000000000000",
      "reserved": "0x7a9fe22691c811ea339d9b73150e6911a5343dca",
      "salt": "0x5e549dd3d2fca318c0d4b8d4db130e07153b0f0e4511aa7d243ca0dc2d3aa651",
      "assetIds": []
    },
    {
      "x": 394,
      "y": 308,
      "size": 1,
      "price": "4683000000000000000000",
      "reserved": "",
      "salt": "0x1a901aadc5d1271616543ae15424e605ae41717329a136bd3a2ab562038897fc",
      "assetIds": [
        "41506478881403507969696680653240014914910929820314476107906210059990532622336"
      ]
    },
    {
      "x": 394,
      "y": 309,
      "size": 1,
      "price": "4683000000000000000000",
      "reserved": "",
      "salt": "0x9d84da134ccb5ff6f9875095f70d7d7ad5c3d17a4aabb7079ee60aae8bcc4b93",
      "assetIds": [
        "41506478881403507969696680653240014914910929820314476107906210059990541021187"
      ]
    },
    {
      "x": 394,
      "y": 310,
      "size": 1,
      "price": "4683000000000000000000",
      "reserved": "",
      "salt": "0xe66e492c690e3714eb962ebfd41b897bb8e9ab54ea49e877b40145d46cd0eac9",
      "assetIds": [
        "41506478881403507969696680653240014914910929820314476107906210059990541021188"
      ]
    },
    {
      "x": 394,
      "y": 311,
      "size": 1,
      "price": "4683000000000000000000",
      "reserved": "",
      "salt": "0x527b18964df496c9282302f10a33e4b20d2589a4c704d24342c0a99716e614aa",
      "assetIds": [
        "41506478881403507969696680653240014914910929820314476107906210059990541021186"
      ]
    },
    {
      "x": 395,
      "y": 222,
      "size": 1,
      "price": "4683000000000000000000",
      "reserved": "",
      "salt": "0x046e7628acdce7bbbd258416e1adebe7018f0fbf00b3465403cac40f3c74dab2",
      "assetIds": [
        "41506478881403507969696680653240014914910929820314476107906210059990532622336"
      ]
    },
    {
      "x": 395,
      "y": 223,
      "size": 1,
      "price": "1011000000000000000000",
      "reserved": "0x7a9fe22691c811ea339d9b73150e6911a5343dca",
      "salt": "0x3544b213f5685f9ac1fe2e77438d4179d54a1421031b443e9abb68951ffbd830",
      "assetIds": []
    },
    {
      "x": 395,
      "y": 224,
      "size": 1,
      "price": "4683000000000000000000",
      "reserved": "",
      "salt": "0xf93d680ab821288bad00b29f4261f9c8b771029483062ffc185c5955da4be0be",
      "assetIds": [
        "41506478881403507969696680653240014914910929820314476107906210059990541021187"
      ]
    },
    {
      "x": 395,
      "y": 225,
      "size": 1,
      "price": "4683000000000000000000",
      "reserved": "",
      "salt": "0x5319e79f3942f0a5d25c425cd4ec121782a49dfa186acf527223d30b8d122621",
      "assetIds": [
        "41506478881403507969696680653240014914910929820314476107906210059990541021188"
      ]
    },
    {
      "x": 395,
      "y": 226,
      "size": 1,
      "price": "4683000000000000000000",
      "reserved": "",
      "salt": "0x8585954f9c10587e8b5262d93bc1b4f2f5abbe9b142c7a8bfc3b3e4818d3ee3c",
      "assetIds": [
        "41506478881403507969696680653240014914910929820314476107906210059990541021187"
      ]
    },
    {
      "x": 395,
      "y": 227,
      "size": 1,
      "price": "4683000000000000000000",
      "reserved": "",
      "salt": "0xc01d8fdbb0d514907b965cf6113cdae414edd7195252e6c1f4a3c991fb054c60",
      "assetIds": [
        "41506478881403507969696680653240014914910929820314476107906210059990541021187"
      ]
    },
    {
      "x": 395,
      "y": 234,
      "size": 1,
      "price": "4683000000000000000000",
      "reserved": "",
      "salt": "0xef8d35446ff53f8b1755de26f51cc7dacf4815f06843874ad84b873115354f86",
      "assetIds": [
        "41506478881403507969696680653240014914910929820314476107906210059990541021188"
      ]
    },
    {
      "x": 395,
      "y": 235,
      "size": 1,
      "price": "4683000000000000000000",
      "reserved": "",
      "salt": "0x25550df86c6337e38553e1e282c00febc4f10be24d3a83085db241b4384d8876",
      "assetIds": [
        "41506478881403507969696680653240014914910929820314476107906210059990541021187"
      ]
    },
    {
      "x": 395,
      "y": 236,
      "size": 1,
      "price": "4683000000000000000000",
      "reserved": "",
      "salt": "0x3a54f64239c0a9a5d9f53d35b83557a74db39cf7424ae3a61a90cb82367b0d8a",
      "assetIds": [
        "41506478881403507969696680653240014914910929820314476107906210059990541021188"
      ]
    },
    {
      "x": 395,
      "y": 237,
      "size": 1,
      "price": "4683000000000000000000",
      "reserved": "",
      "salt": "0x8a07ad1f3cde5c1aefde27896576557d74bcf3233575bab8365d31a2921344b6",
      "assetIds": [
        "41506478881403507969696680653240014914910929820314476107906210059990541021188"
      ]
    },
    {
      "x": 395,
      "y": 238,
      "size": 1,
      "price": "4683000000000000000000",
      "reserved": "",
      "salt": "0xc4a962052742bc77b8ba62127c35a6bb1fe333654f6f18316fcd224225503e12",
      "assetIds": [
        "41506478881403507969696680653240014914910929820314476107906210059990541021188"
      ]
    },
    {
      "x": 395,
      "y": 239,
      "size": 1,
      "price": "4683000000000000000000",
      "reserved": "",
      "salt": "0x3434b9e5fa0a5411fb85c102ed1ce3030a6f9be90b5f6ed81342e08a5b1806f2",
      "assetIds": [
        "41506478881403507969696680653240014914910929820314476107906210059990541021184"
      ]
    },
    {
      "x": 395,
      "y": 252,
      "size": 1,
      "price": "4683000000000000000000",
      "reserved": "",
      "salt": "0xddb2a96c1e9bd9cf2c8f925f46819308aa7224a80fcc7f2d718c51b1b40c0389",
      "assetIds": [
        "41506478881403507969696680653240014914910929820314476107906210059990541021187"
      ]
    },
    {
      "x": 395,
      "y": 253,
      "size": 1,
      "price": "4683000000000000000000",
      "reserved": "",
      "salt": "0x8b145603773431740bfc73cd083dc03086c5e3822be7acc3ed1d8a0ab0619754",
      "assetIds": [
        "41506478881403507969696680653240014914910929820314476107906210059990541021187"
      ]
    },
    {
      "x": 395,
      "y": 254,
      "size": 1,
      "price": "4683000000000000000000",
      "reserved": "",
      "salt": "0x7f8b6e4867fcff238d230831410c1e6e8115af7340bf5901536180f45d34f6a9",
      "assetIds": [
        "41506478881403507969696680653240014914910929820314476107906210059990541021188"
      ]
    },
    {
      "x": 395,
      "y": 255,
      "size": 1,
      "price": "4683000000000000000000",
      "reserved": "",
      "salt": "0x59579c932a236a7050e853f56f0d88f7e80eb01f4e1f3b0501bacf2f55776b8c",
      "assetIds": [
        "41506478881403507969696680653240014914910929820314476107906210059990541021189"
      ]
    },
    {
      "x": 395,
      "y": 256,
      "size": 1,
      "price": "4683000000000000000000",
      "reserved": "",
      "salt": "0xd45ac39434d6de49b856d8ade6f834b3ed539491fcef61aac7168987c044f0cb",
      "assetIds": [
        "41506478881403507969696680653240014914910929820314476107906210059990541021188"
      ]
    },
    {
      "x": 395,
      "y": 257,
      "size": 1,
      "price": "4683000000000000000000",
      "reserved": "",
      "salt": "0xa8c0e60b7c6e9d7e16e582cac26b6d5a857a89ae1858fdea02c38263e70fb61e",
      "assetIds": [
        "41506478881403507969696680653240014914910929820314476107906210059990541021188"
      ]
    },
    {
      "x": 395,
      "y": 258,
      "size": 1,
      "price": "4683000000000000000000",
      "reserved": "",
      "salt": "0x09979fb3a2bd70a7d3b348864d5c354aa1aea09e2d869de0fa67a064fc9a41d6",
      "assetIds": [
        "41506478881403507969696680653240014914910929820314476107906210059990541021185"
      ]
    },
    {
      "x": 395,
      "y": 259,
      "size": 1,
      "price": "4683000000000000000000",
      "reserved": "",
      "salt": "0x83310d294e00b8781ac551b6b70cb0594e72448f30405262a82745a90036e0ed",
      "assetIds": [
        "41506478881403507969696680653240014914910929820314476107906210059990541021188"
      ]
    },
    {
      "x": 395,
      "y": 260,
      "size": 1,
      "price": "4683000000000000000000",
      "reserved": "",
      "salt": "0x87e9265dfcf8cb3b3aeb6ec990fd46e377a98adb4f1af8d2b71dba482e4c99cd",
      "assetIds": [
        "41506478881403507969696680653240014914910929820314476107906210059990541021187"
      ]
    },
    {
      "x": 395,
      "y": 288,
      "size": 1,
      "price": "4683000000000000000000",
      "reserved": "",
      "salt": "0x068719c31378a7f75d2e79c193370e1ccdeacb64e95873502d0fcaa3a39b5bc9",
      "assetIds": [
        "41506478881403507969696680653240014914910929820314476107906210059990541021188"
      ]
    },
    {
      "x": 395,
      "y": 289,
      "size": 1,
      "price": "4683000000000000000000",
      "reserved": "",
      "salt": "0x30a3c3183364a721a991a28e2314220754a868e3f8e23488c769a8f0bf42f884",
      "assetIds": [
        "41506478881403507969696680653240014914910929820314476107906210059990541021187"
      ]
    },
    {
      "x": 395,
      "y": 290,
      "size": 1,
      "price": "4683000000000000000000",
      "reserved": "",
      "salt": "0x58dbec3a0a5a05b6ca5c37430a0af924a22a3a1c3a606a29f231b77140cb558d",
      "assetIds": [
        "41506478881403507969696680653240014914910929820314476107906210059990541021188"
      ]
    },
    {
      "x": 395,
      "y": 291,
      "size": 1,
      "price": "4683000000000000000000",
      "reserved": "",
      "salt": "0xb72619db801d4bb5e08442138cb053bb8ec9b56402ed58e3f8e2c28614dd8cc6",
      "assetIds": [
        "41506478881403507969696680653240014914910929820314476107906210059990541021188"
      ]
    },
    {
      "x": 395,
      "y": 292,
      "size": 1,
      "price": "4683000000000000000000",
      "reserved": "",
      "salt": "0x0504148a490894202d40e87e8afcee1b38722e9f30b01f615daa575829ffeada",
      "assetIds": [
        "41506478881403507969696680653240014914910929820314476107906210059990541021189"
      ]
    },
    {
      "x": 395,
      "y": 293,
      "size": 1,
      "price": "4683000000000000000000",
      "reserved": "",
      "salt": "0x0f2bd8efe1f8922758cb47bce3075cb453a44058438350c14dc8eb93be90e316",
      "assetIds": [
        "41506478881403507969696680653240014914910929820314476107906210059990541021187"
      ]
    },
    {
      "x": 395,
      "y": 294,
      "size": 1,
      "price": "4683000000000000000000",
      "reserved": "",
      "salt": "0x8a2921fd44151058a646e4eaeace5b3fc11b02dfba18448dbc7211a1747d5ef5",
      "assetIds": [
        "41506478881403507969696680653240014914910929820314476107906210059990541021187"
      ]
    },
    {
      "x": 395,
      "y": 295,
      "size": 1,
      "price": "4683000000000000000000",
      "reserved": "",
      "salt": "0x7c3070897a30727a262ce22b716774409f4756967921ed9a9126e04db4464cfc",
      "assetIds": [
        "41506478881403507969696680653240014914910929820314476107906210059990541021184"
      ]
    },
    {
      "x": 395,
      "y": 296,
      "size": 1,
      "price": "4683000000000000000000",
      "reserved": "",
      "salt": "0x873547bdfda8611e1ca89b830cfde66188e9070103b0f8c6854b2b2ba6453bec",
      "assetIds": [
        "41506478881403507969696680653240014914910929820314476107906210059990541021188"
      ]
    },
    {
      "x": 395,
      "y": 300,
      "size": 1,
      "price": "4683000000000000000000",
      "reserved": "",
      "salt": "0xc446061f89d6c75e18836670932583d4daf761abd7314e610f9c91b22259cbbd",
      "assetIds": [
        "41506478881403507969696680653240014914910929820314476107906210059990541021188"
      ]
    },
    {
      "x": 395,
      "y": 301,
      "size": 1,
      "price": "4683000000000000000000",
      "reserved": "",
      "salt": "0x16c126234b0779827d1baf69c058c919fc38acd6ebbb9181178e5d89337f4d41",
      "assetIds": [
        "41506478881403507969696680653240014914910929820314476107906210059990541021188"
      ]
    },
    {
      "x": 395,
      "y": 302,
      "size": 1,
      "price": "4683000000000000000000",
      "reserved": "",
      "salt": "0x95ebdf3aeb8b6dee3424a42aa58bfcbe39cd400827553709f93534242e0ebe2a",
      "assetIds": [
        "41506478881403507969696680653240014914910929820314476107906210059990541021184"
      ]
    },
    {
      "x": 395,
      "y": 303,
      "size": 1,
      "price": "4683000000000000000000",
      "reserved": "",
      "salt": "0xbac3cd87a4ba0309735a15d1f826ef3e48eee19d3be7088d8f44f43a95bc4aef",
      "assetIds": [
        "41506478881403507969696680653240014914910929820314476107906210059990541021185"
      ]
    },
    {
      "x": 395,
      "y": 304,
      "size": 1,
      "price": "4683000000000000000000",
      "reserved": "",
      "salt": "0x33ab75d88e489046c8005337a3a2d3ba3df73519829268d6eefc39e6c3767fc7",
      "assetIds": [
        "41506478881403507969696680653240014914910929820314476107906210059990541021186"
      ]
    },
    {
      "x": 395,
      "y": 305,
      "size": 1,
      "price": "4683000000000000000000",
      "reserved": "",
      "salt": "0x14eea96a52f60dda7cf7e85eed5cc9029ec5a96df9c87c6195b21283c57b0803",
      "assetIds": [
        "41506478881403507969696680653240014914910929820314476107906210059990532622336"
      ]
    },
    {
      "x": 395,
      "y": 306,
      "size": 1,
      "price": "4683000000000000000000",
      "reserved": "",
      "salt": "0x3fd1ce3b67aa3030e90c755a72c03a713d0c56aaa995231adfaf9fb551ccb77c",
      "assetIds": [
        "41506478881403507969696680653240014914910929820314476107906210059990541021189"
      ]
    },
    {
      "x": 395,
      "y": 307,
      "size": 1,
      "price": "4683000000000000000000",
      "reserved": "",
      "salt": "0xd812d092d881dde59e3054813093ab6656af7ed492ce6682c462b26f3aad1f6a",
      "assetIds": [
        "41506478881403507969696680653240014914910929820314476107906210059990541021187"
      ]
    },
    {
      "x": 395,
      "y": 308,
      "size": 1,
      "price": "4683000000000000000000",
      "reserved": "",
      "salt": "0xfbe20000ce133b81c9723189cfe48b09cee7027cf442becf687d9f8b9d00e7b2",
      "assetIds": [
        "41506478881403507969696680653240014914910929820314476107906210059990541021185"
      ]
    },
    {
      "x": 395,
      "y": 309,
      "size": 1,
      "price": "4683000000000000000000",
      "reserved": "",
      "salt": "0x1143a47961f0b5ad8473b5145d846131b97dbab9b4f6d1c10c5a5d8a847535eb",
      "assetIds": [
        "41506478881403507969696680653240014914910929820314476107906210059990541021188"
      ]
    },
    {
      "x": 395,
      "y": 310,
      "size": 1,
      "price": "4683000000000000000000",
      "reserved": "",
      "salt": "0xcb3b8c5a4ab247f9f207208e49260f32c18c1bac3bdb50d05090c82c479627c7",
      "assetIds": [
        "41506478881403507969696680653240014914910929820314476107906210059990541021188"
      ]
    },
    {
      "x": 395,
      "y": 311,
      "size": 1,
      "price": "4683000000000000000000",
      "reserved": "",
      "salt": "0x078dcc8f68fb8bfa485c9db0e4ada871e55a4dd991febf7a3dcc3da4dc613309",
      "assetIds": [
        "41506478881403507969696680653240014914910929820314476107906210059990541021188"
      ]
    },
    {
      "x": 396,
      "y": 228,
      "size": 1,
      "price": "4683000000000000000000",
      "reserved": "",
      "salt": "0xce716e95e120431399c5054937c3ecf21fec625c0225104107c0338c1493a147",
      "assetIds": [
        "41506478881403507969696680653240014914910929820314476107906210059990541021187"
      ]
    },
    {
      "x": 396,
      "y": 229,
      "size": 1,
      "price": "4683000000000000000000",
      "reserved": "",
      "salt": "0xe6d6dbd9f9c7883f4cd262414e339af5e6746e16ab1399b83875c9e699f2a851",
      "assetIds": [
        "41506478881403507969696680653240014914910929820314476107906210059990541021186"
      ]
    },
    {
      "x": 396,
      "y": 230,
      "size": 1,
      "price": "4683000000000000000000",
      "reserved": "",
      "salt": "0x3ba7aad435b32d6981f997e0228dc2c22da2a3888d4f3c8603c8daa49b47e8cc",
      "assetIds": [
        "41506478881403507969696680653240014914910929820314476107906210059990541021188"
      ]
    },
    {
      "x": 396,
      "y": 231,
      "size": 1,
      "price": "4683000000000000000000",
      "reserved": "",
      "salt": "0xdd2ae5b46e1b4e69e9d8018129d647123de18855d4185514302c955a22cd72c7",
      "assetIds": [
        "41506478881403507969696680653240014914910929820314476107906210059990541021188"
      ]
    },
    {
      "x": 396,
      "y": 232,
      "size": 1,
      "price": "4683000000000000000000",
      "reserved": "",
      "salt": "0x18f56f6fc52d8bb857932c3ddc0994a4c730b05085d82766525351d603575e1c",
      "assetIds": [
        "41506478881403507969696680653240014914910929820314476107906210059990541021184"
      ]
    },
    {
      "x": 396,
      "y": 233,
      "size": 1,
      "price": "4683000000000000000000",
      "reserved": "",
      "salt": "0xdf19946586b30c0ec1a66c8275d0f4b9cb47f6c84f21ae2984d72b1b47f7e2ed",
      "assetIds": [
        "41506478881403507969696680653240014914910929820314476107906210059990541021189"
      ]
    },
    {
      "x": 396,
      "y": 234,
      "size": 1,
      "price": "4683000000000000000000",
      "reserved": "",
      "salt": "0x96124e0e169ce08febae10684da7c1d0410e472f37d93557a57dd39a2fbde567",
      "assetIds": [
        "41506478881403507969696680653240014914910929820314476107906210059990541021187"
      ]
    },
    {
      "x": 396,
      "y": 235,
      "size": 1,
      "price": "4683000000000000000000",
      "reserved": "",
      "salt": "0x23a3bf9391989ea3174bae8dc4253b7679dc5be551b72d811ecfc78b19b8249e",
      "assetIds": [
        "41506478881403507969696680653240014914910929820314476107906210059990541021185"
      ]
    },
    {
      "x": 396,
      "y": 236,
      "size": 1,
      "price": "4683000000000000000000",
      "reserved": "",
      "salt": "0x222160c4eb792b39adf1aef6860e866b2605802df6fa4c483b63653a22fe7908",
      "assetIds": [
        "41506478881403507969696680653240014914910929820314476107906210059990541021189"
      ]
    },
    {
      "x": 396,
      "y": 237,
      "size": 1,
      "price": "4683000000000000000000",
      "reserved": "",
      "salt": "0x8d5573549f144cfa2a6e987429517cf552295f564b96a7a2dfb7a6abd32c5272",
      "assetIds": [
        "41506478881403507969696680653240014914910929820314476107906210059990541021188"
      ]
    },
    {
      "x": 396,
      "y": 238,
      "size": 1,
      "price": "4683000000000000000000",
      "reserved": "",
      "salt": "0xde6165c3b5544f5c8196a41a1c1cb26cf23703d9023771c62bfaeb01efc871e3",
      "assetIds": [
        "41506478881403507969696680653240014914910929820314476107906210059990541021186"
      ]
    },
    {
      "x": 396,
      "y": 239,
      "size": 1,
      "price": "4683000000000000000000",
      "reserved": "",
      "salt": "0x939cb42508aedceda952d2623a8b7061ad44d306cdbab175c937e49ce966b43c",
      "assetIds": [
        "41506478881403507969696680653240014914910929820314476107906210059990541021188"
      ]
    },
    {
      "x": 396,
      "y": 240,
      "size": 1,
      "price": "4683000000000000000000",
      "reserved": "",
      "salt": "0x706a2d8e8dd321cbb1d7acef6b74f153c6ecbe94a661a9c9bd86fcb4e4b37176",
      "assetIds": [
        "41506478881403507969696680653240014914910929820314476107906210059990541021187"
      ]
    },
    {
      "x": 396,
      "y": 241,
      "size": 1,
      "price": "4683000000000000000000",
      "reserved": "",
      "salt": "0xca3899b66c0579ee4abcf65b98489bb7a36252c43be77d1a91940ebb633c3bbd",
      "assetIds": [
        "41506478881403507969696680653240014914910929820314476107906210059990541021187"
      ]
    },
    {
      "x": 396,
      "y": 242,
      "size": 1,
      "price": "4683000000000000000000",
      "reserved": "",
      "salt": "0x82dfbe7d19adf2d53faa8dd329e770b5bb1dfbc42cf2101ec8c52d51efe3a2b8",
      "assetIds": [
        "41506478881403507969696680653240014914910929820314476107906210059990541021188"
      ]
    },
    {
      "x": 396,
      "y": 243,
      "size": 1,
      "price": "4683000000000000000000",
      "reserved": "",
      "salt": "0x3025798623ccf57dba2c9a76ef8115105c351ba8f86f2e46414df952244fc3b6",
      "assetIds": [
        "41506478881403507969696680653240014914910929820314476107906210059990541021188"
      ]
    },
    {
      "x": 396,
      "y": 244,
      "size": 1,
      "price": "4683000000000000000000",
      "reserved": "",
      "salt": "0x93660465f6a0f2d5c0c9cd3f4b7bbbb93806f5b94c0eda7d2c393043949da95b",
      "assetIds": [
        "41506478881403507969696680653240014914910929820314476107906210059990541021185"
      ]
    },
    {
      "x": 396,
      "y": 245,
      "size": 1,
      "price": "4683000000000000000000",
      "reserved": "",
      "salt": "0x628c8d53e06c54480821f1780cebbc2f101d4ad069870b79659925ab7459bb09",
      "assetIds": [
        "41506478881403507969696680653240014914910929820314476107906210059990541021184"
      ]
    },
    {
      "x": 396,
      "y": 246,
      "size": 1,
      "price": "4683000000000000000000",
      "reserved": "",
      "salt": "0x4a956d91d1fbd3c7fcb739e41ed929131e79f0a266355513b9225d0e0a0ab654",
      "assetIds": [
        "41506478881403507969696680653240014914910929820314476107906210059990541021184"
      ]
    },
    {
      "x": 396,
      "y": 247,
      "size": 1,
      "price": "4683000000000000000000",
      "reserved": "",
      "salt": "0x092b533e406dd1d8d62e597f8738a73dccfabd79dfc2a73b01aefdc87f9d9c6b",
      "assetIds": [
        "41506478881403507969696680653240014914910929820314476107906210059990532622336"
      ]
    },
    {
      "x": 396,
      "y": 248,
      "size": 1,
      "price": "4683000000000000000000",
      "reserved": "",
      "salt": "0x661d4cba84c96e767698a4d57891cb2cfbb4fd9cfece5a0b8215b8733002a4b6",
      "assetIds": [
        "41506478881403507969696680653240014914910929820314476107906210059990541021187"
      ]
    },
    {
      "x": 396,
      "y": 249,
      "size": 1,
      "price": "4683000000000000000000",
      "reserved": "",
      "salt": "0x9ad7e20788f494d93cc6097965278922334e7cc86b2f4f102de29043f12c4e36",
      "assetIds": [
        "41506478881403507969696680653240014914910929820314476107906210059990541021187"
      ]
    },
    {
      "x": 396,
      "y": 250,
      "size": 1,
      "price": "4683000000000000000000",
      "reserved": "",
      "salt": "0x39680742b860e2ced3ae7f2280f33dce0d4968f80968d335db3c86bf4f542d29",
      "assetIds": [
        "41506478881403507969696680653240014914910929820314476107906210059990532622336"
      ]
    },
    {
      "x": 396,
      "y": 251,
      "size": 1,
      "price": "4683000000000000000000",
      "reserved": "",
      "salt": "0x68ca0ab4950ff2486b763e9bd4d246707199f01aaad86301154c44262c2133f2",
      "assetIds": [
        "41506478881403507969696680653240014914910929820314476107906210059990541021188"
      ]
    },
    {
      "x": 396,
      "y": 294,
      "size": 1,
      "price": "4683000000000000000000",
      "reserved": "",
      "salt": "0x1e59879a7170a5959d9c438e40ad71d5c7e07cbf0d330f96b591e6f6ff545b30",
      "assetIds": [
        "41506478881403507969696680653240014914910929820314476107906210059990541021188"
      ]
    },
    {
      "x": 396,
      "y": 295,
      "size": 1,
      "price": "4683000000000000000000",
      "reserved": "",
      "salt": "0xd23d4f69de60aff6f9ea1decdd7c7f4a7e9b3c4a703c8855820f3d9e6dcdbda1",
      "assetIds": [
        "41506478881403507969696680653240014914910929820314476107906210059990541021187"
      ]
    },
    {
      "x": 396,
      "y": 296,
      "size": 1,
      "price": "4683000000000000000000",
      "reserved": "",
      "salt": "0x85a298d7e072641078892507482a34e86296b5f8c5b9a415c598448231b125f7",
      "assetIds": [
        "41506478881403507969696680653240014914910929820314476107906210059990532622336"
      ]
    },
    {
      "x": 396,
      "y": 297,
      "size": 1,
      "price": "4683000000000000000000",
      "reserved": "",
      "salt": "0x10a2da32517651f877700826184103b5b8b07500ad5e7ff6e4e3caa32d4e5e9c",
      "assetIds": [
        "41506478881403507969696680653240014914910929820314476107906210059990541021187"
      ]
    },
    {
      "x": 396,
      "y": 298,
      "size": 1,
      "price": "4683000000000000000000",
      "reserved": "",
      "salt": "0xd2831a0426264be85536f17ac008d3092dd7ff72ab1234807fd614a63f891a06",
      "assetIds": [
        "41506478881403507969696680653240014914910929820314476107906210059990541021184"
      ]
    },
    {
      "x": 396,
      "y": 299,
      "size": 1,
      "price": "4683000000000000000000",
      "reserved": "",
      "salt": "0x73606e3349fc2665a95beeed52180dd6c316ede806d24e57f7ab7ddcb8747846",
      "assetIds": [
        "41506478881403507969696680653240014914910929820314476107906210059990541021188"
      ]
    },
    {
      "x": 397,
      "y": 228,
      "size": 1,
      "price": "4683000000000000000000",
      "reserved": "",
      "salt": "0xa62cde425f8cd91fa9f128e284df0fd3a28ced5286bb6e1b77f73d8d5f3b707f",
      "assetIds": [
        "41506478881403507969696680653240014914910929820314476107906210059990541021188"
      ]
    },
    {
      "x": 397,
      "y": 229,
      "size": 1,
      "price": "4683000000000000000000",
      "reserved": "",
      "salt": "0x0aceb1c7419648a7cd056209eaac790061652404d5ccec82264241458b2ca73b",
      "assetIds": [
        "41506478881403507969696680653240014914910929820314476107906210059990541021189"
      ]
    },
    {
      "x": 397,
      "y": 230,
      "size": 1,
      "price": "4683000000000000000000",
      "reserved": "",
      "salt": "0x2b729a94a1a7f3ad0a0a24999377b6e18dfde896352b3acbb2662c12ea13f762",
      "assetIds": [
        "41506478881403507969696680653240014914910929820314476107906210059990541021188"
      ]
    },
    {
      "x": 397,
      "y": 231,
      "size": 1,
      "price": "4683000000000000000000",
      "reserved": "",
      "salt": "0x52c01476da9bf43bd8898d68119505c6e85e3682a1aaca6843a4df8abefa8c8d",
      "assetIds": [
        "41506478881403507969696680653240014914910929820314476107906210059990532622336"
      ]
    },
    {
      "x": 397,
      "y": 232,
      "size": 1,
      "price": "4683000000000000000000",
      "reserved": "",
      "salt": "0xd9744931b9d1c62c0812f745c9739f570cda00d4c6ca90dd2ae0c0644437e252",
      "assetIds": [
        "41506478881403507969696680653240014914910929820314476107906210059990532622336"
      ]
    },
    {
      "x": 397,
      "y": 233,
      "size": 1,
      "price": "4683000000000000000000",
      "reserved": "",
      "salt": "0x1f7660e82d9db87b85f01d25778d07ab6d294e6e852e0acd931ca256869385bd",
      "assetIds": [
        "41506478881403507969696680653240014914910929820314476107906210059990541021189"
      ]
    },
    {
      "x": 397,
      "y": 234,
      "size": 1,
      "price": "4683000000000000000000",
      "reserved": "",
      "salt": "0x005b88bd991d6d1e5ef10b1f9d0c00568999b5dd0d74281bc47d749fa45dc652",
      "assetIds": [
        "41506478881403507969696680653240014914910929820314476107906210059990541021186"
      ]
    },
    {
      "x": 397,
      "y": 235,
      "size": 1,
      "price": "4683000000000000000000",
      "reserved": "",
      "salt": "0xb04be06e37a3d422b2c9c468f24e746fc0b5575e8c7ac0b4c3a27993db254d46",
      "assetIds": [
        "41506478881403507969696680653240014914910929820314476107906210059990541021184"
      ]
    },
    {
      "x": 397,
      "y": 236,
      "size": 1,
      "price": "4683000000000000000000",
      "reserved": "",
      "salt": "0xc3d2c59cec7cb7650442d428899dc71db9918ed65fe95727ae06d4d864c9411d",
      "assetIds": [
        "41506478881403507969696680653240014914910929820314476107906210059990541021184"
      ]
    },
    {
      "x": 397,
      "y": 237,
      "size": 1,
      "price": "4683000000000000000000",
      "reserved": "",
      "salt": "0x4bd7587299f17d3d3a21618db96675ee65907941ee172a16f46e0e25ba344edc",
      "assetIds": [
        "41506478881403507969696680653240014914910929820314476107906210059990541021188"
      ]
    },
    {
      "x": 397,
      "y": 238,
      "size": 1,
      "price": "4683000000000000000000",
      "reserved": "",
      "salt": "0x8f5d58e8f68a1abae5411b0d6aa0e7b25f15fde51e3d8c8bdb2544f58b222d82",
      "assetIds": [
        "41506478881403507969696680653240014914910929820314476107906210059990541021186"
      ]
    },
    {
      "x": 397,
      "y": 239,
      "size": 1,
      "price": "4683000000000000000000",
      "reserved": "",
      "salt": "0x8a2035fdcb6c819ad0c217bb438eedb26a169ae5e93c6a4d0c1f66e68a11b6a9",
      "assetIds": [
        "41506478881403507969696680653240014914910929820314476107906210059990541021187"
      ]
    },
    {
      "x": 397,
      "y": 240,
      "size": 1,
      "price": "4683000000000000000000",
      "reserved": "",
      "salt": "0x0a02c65a2b93e777a8c4da622929c9f295e2efdd2adb7bd8f31427b29d5266a7",
      "assetIds": [
        "41506478881403507969696680653240014914910929820314476107906210059990541021187"
      ]
    },
    {
      "x": 397,
      "y": 241,
      "size": 1,
      "price": "4683000000000000000000",
      "reserved": "",
      "salt": "0x8a7aa395fec37f7e718d8cb81f6dac1595d6f2ed9794a357d17c790f6d90fcd7",
      "assetIds": [
        "41506478881403507969696680653240014914910929820314476107906210059990541021186"
      ]
    },
    {
      "x": 397,
      "y": 242,
      "size": 1,
      "price": "4683000000000000000000",
      "reserved": "",
      "salt": "0xe65a9bba4d7655bb8c69dc4f2fd67341a35bc7b8e625d28e2e00c6829f5c9bb9",
      "assetIds": [
        "41506478881403507969696680653240014914910929820314476107906210059990532622336"
      ]
    },
    {
      "x": 397,
      "y": 243,
      "size": 1,
      "price": "4683000000000000000000",
      "reserved": "",
      "salt": "0x9709c5d53c3260f6856750ac6cb0673b85e0fb613c421bd1f8d6d68d67f1cec3",
      "assetIds": [
        "41506478881403507969696680653240014914910929820314476107906210059990541021184"
      ]
    },
    {
      "x": 397,
      "y": 244,
      "size": 1,
      "price": "4683000000000000000000",
      "reserved": "",
      "salt": "0xdf8653c2d639c39f8c9cba1a757580cd291ee8ff4e31a75eb13841a7f872d355",
      "assetIds": [
        "41506478881403507969696680653240014914910929820314476107906210059990541021184"
      ]
    },
    {
      "x": 397,
      "y": 245,
      "size": 1,
      "price": "4683000000000000000000",
      "reserved": "",
      "salt": "0xee53473060b85078626d36312bcd51603a0816d62a15d923e2e86c20e44dfad8",
      "assetIds": [
        "41506478881403507969696680653240014914910929820314476107906210059990541021186"
      ]
    },
    {
      "x": 397,
      "y": 246,
      "size": 1,
      "price": "4683000000000000000000",
      "reserved": "",
      "salt": "0x1d95b7e896cc96412d07f413612b09b48d85f12999298ebb9d211b5fd40d3e03",
      "assetIds": [
        "41506478881403507969696680653240014914910929820314476107906210059990541021189"
      ]
    },
    {
      "x": 397,
      "y": 247,
      "size": 1,
      "price": "4683000000000000000000",
      "reserved": "",
      "salt": "0x22736a94f95c7ed02ba794e60166dcc15b114538be36b1781ae7cf695641f35a",
      "assetIds": [
        "41506478881403507969696680653240014914910929820314476107906210059990541021184"
      ]
    },
    {
      "x": 397,
      "y": 248,
      "size": 1,
      "price": "4683000000000000000000",
      "reserved": "",
      "salt": "0x86c3f55a2752ea522d6bcb0bdb9c3de54b3c878edbc0f29ff6a06fde13550d1d",
      "assetIds": [
        "41506478881403507969696680653240014914910929820314476107906210059990541021188"
      ]
    },
    {
      "x": 397,
      "y": 249,
      "size": 1,
      "price": "4683000000000000000000",
      "reserved": "",
      "salt": "0x216d7b71631550e58736fc887473909c6f99c2aca03a862129a59faed56f5456",
      "assetIds": [
        "41506478881403507969696680653240014914910929820314476107906210059990541021184"
      ]
    },
    {
      "x": 397,
      "y": 250,
      "size": 1,
      "price": "4683000000000000000000",
      "reserved": "",
      "salt": "0x21946cb1ea5af27d1b17a51ca19eedb307a60221e298bdd657141b42a95514c8",
      "assetIds": [
        "41506478881403507969696680653240014914910929820314476107906210059990541021185"
      ]
    },
    {
      "x": 397,
      "y": 251,
      "size": 1,
      "price": "4683000000000000000000",
      "reserved": "",
      "salt": "0xddaca67e2487b8c437103a0f709343bba0bb4a9cc7683687afa267a968156ae6",
      "assetIds": [
        "41506478881403507969696680653240014914910929820314476107906210059990541021185"
      ]
    },
    {
      "x": 397,
      "y": 294,
      "size": 1,
      "price": "4683000000000000000000",
      "reserved": "",
      "salt": "0x07bfa59e846f73955e796e2116053a7c5cf3e25e601467e480534220dd324d43",
      "assetIds": [
        "41506478881403507969696680653240014914910929820314476107906210059990541021188"
      ]
    },
    {
      "x": 397,
      "y": 295,
      "size": 1,
      "price": "4683000000000000000000",
      "reserved": "",
      "salt": "0x44d05242753575413b1289be6f844532a7e2e4ad129450f1e016def89eca4a36",
      "assetIds": [
        "41506478881403507969696680653240014914910929820314476107906210059990541021187"
      ]
    },
    {
      "x": 397,
      "y": 296,
      "size": 1,
      "price": "4683000000000000000000",
      "reserved": "",
      "salt": "0x3b86ec571e58de5b186e37732e9d031fec23f2532fbf4cc96a3dcbe20b28bafd",
      "assetIds": [
        "41506478881403507969696680653240014914910929820314476107906210059990541021187"
      ]
    },
    {
      "x": 397,
      "y": 297,
      "size": 1,
      "price": "4683000000000000000000",
      "reserved": "",
      "salt": "0xc78a47dd8a0379e67373c7ae776b4d47a372e5b3c7f3922b0f94c41dcc8a86b2",
      "assetIds": [
        "41506478881403507969696680653240014914910929820314476107906210059990541021184"
      ]
    },
    {
      "x": 397,
      "y": 298,
      "size": 1,
      "price": "4683000000000000000000",
      "reserved": "",
      "salt": "0x1431716adc8b93f1e4d7e078d81af6c13ab13d29af64821ea0ff0743498fbffc",
      "assetIds": [
        "41506478881403507969696680653240014914910929820314476107906210059990541021188"
      ]
    },
    {
      "x": 397,
      "y": 299,
      "size": 1,
      "price": "4683000000000000000000",
      "reserved": "",
      "salt": "0xd9eb8bb14dffb742d0da0027edfd405c01a0dfd151c9b5a2b4140abded01f2d0",
      "assetIds": [
        "41506478881403507969696680653240014914910929820314476107906210059990541021186"
      ]
    },
    {
      "x": 398,
      "y": 228,
      "size": 1,
      "price": "4683000000000000000000",
      "reserved": "",
      "salt": "0xb23a51e1ae6cba52cbffed65c730eb72c739ae79e93e8da508a789b6ee9a2943",
      "assetIds": [
        "41506478881403507969696680653240014914910929820314476107906210059990532622336"
      ]
    },
    {
      "x": 398,
      "y": 229,
      "size": 1,
      "price": "4683000000000000000000",
      "reserved": "",
      "salt": "0x13e37f37cb9b33ed47e56ed818484c901346142db0a1d8e7bdb6bb47c5040d35",
      "assetIds": [
        "41506478881403507969696680653240014914910929820314476107906210059990541021189"
      ]
    },
    {
      "x": 398,
      "y": 230,
      "size": 1,
      "price": "4683000000000000000000",
      "reserved": "",
      "salt": "0x95318db8c141100e39fae709e40e0eb62946cb4b3fbb1edbb010406d2518426a",
      "assetIds": [
        "41506478881403507969696680653240014914910929820314476107906210059990541021187"
      ]
    },
    {
      "x": 398,
      "y": 231,
      "size": 1,
      "price": "4683000000000000000000",
      "reserved": "",
      "salt": "0x5d544d8391f0c042c6fbfef60f6e2e0110374c74007db473fa842186f2dbe0cc",
      "assetIds": [
        "41506478881403507969696680653240014914910929820314476107906210059990532622336"
      ]
    },
    {
      "x": 398,
      "y": 232,
      "size": 1,
      "price": "4683000000000000000000",
      "reserved": "",
      "salt": "0xa3ceed5628db9f4e9cd7534caa8a63cb35f6fc27b13b34861f958d65f3d0bc82",
      "assetIds": [
        "41506478881403507969696680653240014914910929820314476107906210059990541021188"
      ]
    },
    {
      "x": 398,
      "y": 233,
      "size": 1,
      "price": "4683000000000000000000",
      "reserved": "",
      "salt": "0x8cabdc3fa1b8f99593b3cf89c3c3827c69c06750ac878a839011f9cf67961a91",
      "assetIds": [
        "41506478881403507969696680653240014914910929820314476107906210059990541021186"
      ]
    },
    {
      "x": 398,
      "y": 234,
      "size": 1,
      "price": "4683000000000000000000",
      "reserved": "",
      "salt": "0x7e117da71b2c8f3dbe2dbfb0ce5efbec02b6ab728da58f834c72196b7b1c12c9",
      "assetIds": [
        "41506478881403507969696680653240014914910929820314476107906210059990541021189"
      ]
    },
    {
      "x": 398,
      "y": 235,
      "size": 1,
      "price": "4683000000000000000000",
      "reserved": "",
      "salt": "0x72572977af9aef58c744a0e1391e9821c166eaa1d63a625285e3b3fbbc45c575",
      "assetIds": [
        "41506478881403507969696680653240014914910929820314476107906210059990541021187"
      ]
    },
    {
      "x": 398,
      "y": 236,
      "size": 1,
      "price": "4683000000000000000000",
      "reserved": "",
      "salt": "0x3e492602d10233cc700fad0558b05727bfe38310595e9ed3932f458f80e0b2b9",
      "assetIds": [
        "41506478881403507969696680653240014914910929820314476107906210059990541021188"
      ]
    },
    {
      "x": 398,
      "y": 237,
      "size": 1,
      "price": "4683000000000000000000",
      "reserved": "",
      "salt": "0xfd52d1b5bbec2019afce515885322b9e761813ea6ce13480f282b1ee42fc4994",
      "assetIds": [
        "41506478881403507969696680653240014914910929820314476107906210059990541021188"
      ]
    },
    {
      "x": 398,
      "y": 238,
      "size": 1,
      "price": "4683000000000000000000",
      "reserved": "",
      "salt": "0x73e812d2cf5ee1651c912f7b567a6493f72268af37655d5ef952ace6e75042f5",
      "assetIds": [
        "41506478881403507969696680653240014914910929820314476107906210059990532622336"
      ]
    },
    {
      "x": 398,
      "y": 239,
      "size": 1,
      "price": "4683000000000000000000",
      "reserved": "",
      "salt": "0x522ec130f8572682532c8542745f52b85da453b7169a5079676018482d664604",
      "assetIds": [
        "41506478881403507969696680653240014914910929820314476107906210059990541021189"
      ]
    },
    {
      "x": 398,
      "y": 240,
      "size": 1,
      "price": "4683000000000000000000",
      "reserved": "",
      "salt": "0x02c6b3c27b9f4e0fdfd92664272a50f2ccef5a1b2d9bd996a2c03f8ad56fddba",
      "assetIds": [
        "41506478881403507969696680653240014914910929820314476107906210059990541021187"
      ]
    },
    {
      "x": 398,
      "y": 241,
      "size": 1,
      "price": "4683000000000000000000",
      "reserved": "",
      "salt": "0x2290f10e92beb7083c702ff316d34b4c30248d11a095b48db19a75553f52c390",
      "assetIds": [
        "41506478881403507969696680653240014914910929820314476107906210059990541021187"
      ]
    },
    {
      "x": 398,
      "y": 242,
      "size": 1,
      "price": "4683000000000000000000",
      "reserved": "",
      "salt": "0x151bd89b0b23a47dbc181b0f10513fbfe944eeed27b87488fd8a871d7beffda3",
      "assetIds": [
        "41506478881403507969696680653240014914910929820314476107906210059990541021188"
      ]
    },
    {
      "x": 398,
      "y": 243,
      "size": 1,
      "price": "4683000000000000000000",
      "reserved": "",
      "salt": "0x69ebc6ac0f8877cd35cf47e1c4a27920fd19b09d911b89c54f62e238109f9104",
      "assetIds": [
        "41506478881403507969696680653240014914910929820314476107906210059990541021186"
      ]
    },
    {
      "x": 398,
      "y": 244,
      "size": 1,
      "price": "4683000000000000000000",
      "reserved": "",
      "salt": "0xccfffe1eef0b6901033c68e4c2ee9873be205ec3ac1c54eb322c85b7807a403e",
      "assetIds": [
        "41506478881403507969696680653240014914910929820314476107906210059990541021185"
      ]
    },
    {
      "x": 398,
      "y": 245,
      "size": 1,
      "price": "4683000000000000000000",
      "reserved": "",
      "salt": "0x5d916cc94ac90580a211fc9296c7b5052f0fecc091263865e4de06615549e992",
      "assetIds": [
        "41506478881403507969696680653240014914910929820314476107906210059990541021188"
      ]
    },
    {
      "x": 398,
      "y": 246,
      "size": 1,
      "price": "4683000000000000000000",
      "reserved": "",
      "salt": "0x741a1de36f9329190b679ab287d7825e9788f7024e603282303da5bdb6c10f1e",
      "assetIds": [
        "41506478881403507969696680653240014914910929820314476107906210059990541021188"
      ]
    },
    {
      "x": 398,
      "y": 247,
      "size": 1,
      "price": "4683000000000000000000",
      "reserved": "",
      "salt": "0x1fd0bfc7e20900f75fe12a833bcfc66813d9eacb54505bf67c3bcf66d19121a1",
      "assetIds": [
        "41506478881403507969696680653240014914910929820314476107906210059990532622336"
      ]
    },
    {
      "x": 398,
      "y": 248,
      "size": 1,
      "price": "4683000000000000000000",
      "reserved": "",
      "salt": "0x0e232f052ebb6b9c097679f19f10277d8462c8a23041e67b74ce108ebbe026b1",
      "assetIds": [
        "41506478881403507969696680653240014914910929820314476107906210059990541021189"
      ]
    },
    {
      "x": 398,
      "y": 249,
      "size": 1,
      "price": "4683000000000000000000",
      "reserved": "",
      "salt": "0x91a15870d509969cf5d85c7067697f64f42aefece06a7d189ae1ecca076ded30",
      "assetIds": [
        "41506478881403507969696680653240014914910929820314476107906210059990541021188"
      ]
    },
    {
      "x": 398,
      "y": 250,
      "size": 1,
      "price": "4683000000000000000000",
      "reserved": "",
      "salt": "0xd541e1138d25005febab8c2fc82e98420678437fabff6e23e62097428f82804b",
      "assetIds": [
        "41506478881403507969696680653240014914910929820314476107906210059990541021184"
      ]
    },
    {
      "x": 398,
      "y": 251,
      "size": 1,
      "price": "4683000000000000000000",
      "reserved": "",
      "salt": "0x6629c3f55d93615cd0f15c3b2f946abb9d6358f101f5677af67a0c646d29e0bf",
      "assetIds": [
        "41506478881403507969696680653240014914910929820314476107906210059990541021185"
      ]
    },
    {
      "x": 398,
      "y": 294,
      "size": 1,
      "price": "4683000000000000000000",
      "reserved": "",
      "salt": "0x97512792d90f57a7108f57712939dc05118a2f934a850eecfadbe9f5f23b7d5d",
      "assetIds": [
        "41506478881403507969696680653240014914910929820314476107906210059990541021189"
      ]
    },
    {
      "x": 398,
      "y": 295,
      "size": 1,
      "price": "4683000000000000000000",
      "reserved": "",
      "salt": "0x987bb436286b123ba0b8b3bc4f2d814307d0f99b6b7c60de44dc80d3bdef8f5c",
      "assetIds": [
        "41506478881403507969696680653240014914910929820314476107906210059990541021188"
      ]
    },
    {
      "x": 398,
      "y": 296,
      "size": 1,
      "price": "4683000000000000000000",
      "reserved": "",
      "salt": "0x8527a23c230b410d599c60c4d5f92d9780207c0d53c0ab779c54ddb8975fb6a4",
      "assetIds": [
        "41506478881403507969696680653240014914910929820314476107906210059990541021189"
      ]
    },
    {
      "x": 398,
      "y": 297,
      "size": 1,
      "price": "4683000000000000000000",
      "reserved": "",
      "salt": "0xe7d79dccffb96897b8092416ad883b9030e40e1e23f358fdd6c81cc0788dc00c",
      "assetIds": [
        "41506478881403507969696680653240014914910929820314476107906210059990541021188"
      ]
    },
    {
      "x": 398,
      "y": 298,
      "size": 1,
      "price": "4683000000000000000000",
      "reserved": "",
      "salt": "0xd889e5d4ca60f4876ba504d3ad508318b1e7409c62b61dfc058fbe18b557da00",
      "assetIds": [
        "41506478881403507969696680653240014914910929820314476107906210059990532622336"
      ]
    },
    {
      "x": 398,
      "y": 299,
      "size": 1,
      "price": "4683000000000000000000",
      "reserved": "",
      "salt": "0x5706348a93f5ef8284fb52e04574f9daaae26d182a4ea1571ac38983cdbbe499",
      "assetIds": [
        "41506478881403507969696680653240014914910929820314476107906210059990541021188"
      ]
    },
    {
      "x": 399,
      "y": 228,
      "size": 1,
      "price": "4683000000000000000000",
      "reserved": "",
      "salt": "0xe27b3cf3774644198e2739ca2d127e25b05e0b3743dfe1972355f0bec49068c2",
      "assetIds": [
        "41506478881403507969696680653240014914910929820314476107906210059990541021184"
      ]
    },
    {
      "x": 399,
      "y": 229,
      "size": 1,
      "price": "4683000000000000000000",
      "reserved": "",
      "salt": "0x2e21912c9c0e09d2ec9034107c246778f58076da3e9d92782e76669f12b25371",
      "assetIds": [
        "41506478881403507969696680653240014914910929820314476107906210059990541021189"
      ]
    },
    {
      "x": 399,
      "y": 230,
      "size": 1,
      "price": "4683000000000000000000",
      "reserved": "",
      "salt": "0x21504052910680701e424cc6e3460d690876d6f908f9dd7810e32cc2292a8392",
      "assetIds": [
        "41506478881403507969696680653240014914910929820314476107906210059990541021187"
      ]
    },
    {
      "x": 399,
      "y": 231,
      "size": 1,
      "price": "4683000000000000000000",
      "reserved": "",
      "salt": "0x10c5a8b5e550589bbe658323f75c824ed5697b22c720b722df5646aa608fbcab",
      "assetIds": [
        "41506478881403507969696680653240014914910929820314476107906210059990541021186"
      ]
    },
    {
      "x": 399,
      "y": 232,
      "size": 1,
      "price": "4683000000000000000000",
      "reserved": "",
      "salt": "0x655b05ed44c063d42e5bdb22d375eb77666f60f10b0c3eac1685e17659684f05",
      "assetIds": [
        "41506478881403507969696680653240014914910929820314476107906210059990541021187"
      ]
    },
    {
      "x": 399,
      "y": 233,
      "size": 1,
      "price": "4683000000000000000000",
      "reserved": "",
      "salt": "0x5dc1c570583ba12d16bb943d6942ea03f3cbddc3caaeb91de018a68a0155cdfe",
      "assetIds": [
        "41506478881403507969696680653240014914910929820314476107906210059990541021184"
      ]
    },
    {
      "x": 399,
      "y": 234,
      "size": 1,
      "price": "4683000000000000000000",
      "reserved": "",
      "salt": "0xc3d02f64acb314aef906446831fef1423bf014a1384cfa4ffdf0c895db204810",
      "assetIds": [
        "41506478881403507969696680653240014914910929820314476107906210059990541021188"
      ]
    },
    {
      "x": 399,
      "y": 235,
      "size": 1,
      "price": "4683000000000000000000",
      "reserved": "",
      "salt": "0xf67eba39d456cdadf52f9e15e40713e99d23e07c4c5fb5b004b23f77e9cf6249",
      "assetIds": [
        "41506478881403507969696680653240014914910929820314476107906210059990541021187"
      ]
    },
    {
      "x": 399,
      "y": 236,
      "size": 1,
      "price": "4683000000000000000000",
      "reserved": "",
      "salt": "0x58c83a8935f99d6430026504a02c6b539fea6d1fad790465c53c35c80569ce18",
      "assetIds": [
        "41506478881403507969696680653240014914910929820314476107906210059990532622336"
      ]
    },
    {
      "x": 399,
      "y": 240,
      "size": 1,
      "price": "4683000000000000000000",
      "reserved": "",
      "salt": "0xe404d7362ed12a9fc36ba2f28de1c2b9d196304db80c0b5f57b3c450f7d79fed",
      "assetIds": [
        "41506478881403507969696680653240014914910929820314476107906210059990541021188"
      ]
    },
    {
      "x": 399,
      "y": 241,
      "size": 1,
      "price": "1011000000000000000000",
      "reserved": "0x7a9fe22691c811ea339d9b73150e6911a5343dca",
      "salt": "0x3cce845cbd7678b05c4ea187fd4e918ca4b5de8eb8114483d28bcf2ec71fb586",
      "assetIds": []
    },
    {
      "x": 399,
      "y": 242,
      "size": 1,
      "price": "4683000000000000000000",
      "reserved": "",
      "salt": "0x5848cdf03076a04096ac4a349db7d639ec60162571698809374f6c22d1f473dc",
      "assetIds": [
        "41506478881403507969696680653240014914910929820314476107906210059990541021187"
      ]
    },
    {
      "x": 399,
      "y": 243,
      "size": 1,
      "price": "4683000000000000000000",
      "reserved": "",
      "salt": "0xed92de31d17dde98b634bc0a57c2b44fb92dffa72edd03120f54223baa04169a",
      "assetIds": [
        "41506478881403507969696680653240014914910929820314476107906210059990541021188"
      ]
    },
    {
      "x": 399,
      "y": 244,
      "size": 1,
      "price": "4683000000000000000000",
      "reserved": "",
      "salt": "0x146aef810a38acbef4b99e37a68b2d524d4c2490b73f1e0bb6128809ef92c005",
      "assetIds": [
        "41506478881403507969696680653240014914910929820314476107906210059990541021188"
      ]
    },
    {
      "x": 399,
      "y": 245,
      "size": 1,
      "price": "4683000000000000000000",
      "reserved": "",
      "salt": "0xa963637c5f2117193843d391d87cb73900910c1aeab76f07881567d8f39948ea",
      "assetIds": [
        "41506478881403507969696680653240014914910929820314476107906210059990541021184"
      ]
    },
    {
      "x": 399,
      "y": 246,
      "size": 1,
      "price": "4683000000000000000000",
      "reserved": "",
      "salt": "0x3878b1a32ab27f961bbeafd47a9eeb89b493c53c5725d7a8812cc181021ca0bd",
      "assetIds": [
        "41506478881403507969696680653240014914910929820314476107906210059990532622336"
      ]
    },
    {
      "x": 399,
      "y": 247,
      "size": 1,
      "price": "4683000000000000000000",
      "reserved": "",
      "salt": "0x28b991171d3417156ea1728f1d1758607a65aa87d743bf165ad1b36127df1030",
      "assetIds": [
        "41506478881403507969696680653240014914910929820314476107906210059990541021188"
      ]
    },
    {
      "x": 399,
      "y": 248,
      "size": 1,
      "price": "4683000000000000000000",
      "reserved": "",
      "salt": "0xffb99157eb332a720aee7b7dbce6fa0732608b30a7ad91cbab412041d90d18bd",
      "assetIds": [
        "41506478881403507969696680653240014914910929820314476107906210059990532622336"
      ]
    },
    {
      "x": 399,
      "y": 249,
      "size": 1,
      "price": "4683000000000000000000",
      "reserved": "",
      "salt": "0xcdb75ac11eaf6426a11b2000cb907f044f57981b68e8c99472782d29f0fb14e6",
      "assetIds": [
        "41506478881403507969696680653240014914910929820314476107906210059990541021185"
      ]
    },
    {
      "x": 399,
      "y": 250,
      "size": 1,
      "price": "4683000000000000000000",
      "reserved": "",
      "salt": "0x120b9edfb5bf8fb260162abb8b3d183da0b33be3c49f9309b3ebbdace64fa5aa",
      "assetIds": [
        "41506478881403507969696680653240014914910929820314476107906210059990541021187"
      ]
    },
    {
      "x": 399,
      "y": 251,
      "size": 1,
      "price": "4683000000000000000000",
      "reserved": "",
      "salt": "0x456e3540e17fb7c6c9ad0611452ff0f9a866ae12a8531bc56fc439399bba6aae",
      "assetIds": [
        "41506478881403507969696680653240014914910929820314476107906210059990541021184"
      ]
    },
    {
      "x": 399,
      "y": 294,
      "size": 1,
      "price": "4683000000000000000000",
      "reserved": "",
      "salt": "0x3c16cdaa48474dfc6ade1cc0b23509828d2d48d9ec77d48565b01ae88d010046",
      "assetIds": [
        "41506478881403507969696680653240014914910929820314476107906210059990541021187"
      ]
    },
    {
      "x": 399,
      "y": 295,
      "size": 1,
      "price": "4683000000000000000000",
      "reserved": "",
      "salt": "0xb1297c1e45d90af423f7e83e86080374a700a4576333fc1d609756857733d027",
      "assetIds": [
        "41506478881403507969696680653240014914910929820314476107906210059990541021187"
      ]
    },
    {
      "x": 399,
      "y": 296,
      "size": 1,
      "price": "1011000000000000000000",
      "reserved": "0x7a9fe22691c811ea339d9b73150e6911a5343dca",
      "salt": "0x908c1a7ba3f6a4fa5bdca2c5e55b419d9f55b343f28e85c51b5f24b0eecb34e4",
      "assetIds": []
    },
    {
      "x": 399,
      "y": 297,
      "size": 1,
      "price": "4683000000000000000000",
      "reserved": "",
      "salt": "0x182ac1f21a1fbbf3446b7c72abe828ce2622f0df859cff19e4cab6c5bce9a944",
      "assetIds": [
        "41506478881403507969696680653240014914910929820314476107906210059990541021187"
      ]
    },
    {
      "x": 399,
      "y": 298,
      "size": 1,
      "price": "4683000000000000000000",
      "reserved": "",
      "salt": "0xa7ca574ae1ca32fa47cee544f0070abfe39729288d0feea73036c0e6428d2274",
      "assetIds": [
        "41506478881403507969696680653240014914910929820314476107906210059990541021189"
      ]
    },
    {
      "x": 399,
      "y": 299,
      "size": 1,
      "price": "4683000000000000000000",
      "reserved": "",
      "salt": "0xb02aa678c39d0aeec34ac72e2f21c9a06bfd4741ed1c432c7c28c6a028f2fc00",
      "assetIds": [
        "41506478881403507969696680653240014914910929820314476107906210059990541021185"
      ]
    },
    {
      "x": 400,
      "y": 228,
      "size": 1,
      "price": "4683000000000000000000",
      "reserved": "",
      "salt": "0xabd9a7aa07254fba5bc3269ca3beadc1e24e5f9a0dc659732be50310fdf2528d",
      "assetIds": [
        "41506478881403507969696680653240014914910929820314476107906210059990541021187"
      ]
    },
    {
      "x": 400,
      "y": 229,
      "size": 1,
      "price": "4683000000000000000000",
      "reserved": "",
      "salt": "0xb7be6a8b71e1b9dde0893a17ddee9c4b01b8bcedadebd2b023b457bca5b6aa62",
      "assetIds": [
        "41506478881403507969696680653240014914910929820314476107906210059990541021188"
      ]
    },
    {
      "x": 400,
      "y": 230,
      "size": 1,
      "price": "4683000000000000000000",
      "reserved": "",
      "salt": "0x7b007e5eeb01f4f80227a50c7f7c4c624df80d00aea8d0d2053a467da1bd5a0e",
      "assetIds": [
        "41506478881403507969696680653240014914910929820314476107906210059990541021188"
      ]
    },
    {
      "x": 400,
      "y": 231,
      "size": 1,
      "price": "4683000000000000000000",
      "reserved": "",
      "salt": "0x527bd754dd874aba61f8a28b3175c6153caf18997537791252b1d21bef557cb5",
      "assetIds": [
        "41506478881403507969696680653240014914910929820314476107906210059990541021186"
      ]
    },
    {
      "x": 400,
      "y": 232,
      "size": 1,
      "price": "4683000000000000000000",
      "reserved": "",
      "salt": "0x3a58eac4197c48e68a2c998a3cf61b3c7b569aebb4126ba0f9f6a8be16e1addb",
      "assetIds": [
        "41506478881403507969696680653240014914910929820314476107906210059990541021189"
      ]
    },
    {
      "x": 400,
      "y": 233,
      "size": 1,
      "price": "4683000000000000000000",
      "reserved": "",
      "salt": "0x3eafc91e618a80d7b7d03cea6312a6a0923285575c5a4fbbac8d30150e8e902f",
      "assetIds": [
        "41506478881403507969696680653240014914910929820314476107906210059990532622336"
      ]
    },
    {
      "x": 400,
      "y": 234,
      "size": 1,
      "price": "4683000000000000000000",
      "reserved": "",
      "salt": "0xec6f957f31d666f27e7ba91c9b91db7f7602a16d45c7053a18ed724e887475ab",
      "assetIds": [
        "41506478881403507969696680653240014914910929820314476107906210059990541021188"
      ]
    },
    {
      "x": 400,
      "y": 235,
      "size": 1,
      "price": "4683000000000000000000",
      "reserved": "",
      "salt": "0xd02c0f95fd26ae25c9af566bdc8dd9ba6510c87e94d242f464feb9c6f09f17f2",
      "assetIds": [
        "41506478881403507969696680653240014914910929820314476107906210059990541021184"
      ]
    },
    {
      "x": 400,
      "y": 236,
      "size": 1,
      "price": "4683000000000000000000",
      "reserved": "",
      "salt": "0xc8ec646c2d1ad611937886a50ad1cb63ab6840d0558d000d3742cded9179a2ff",
      "assetIds": [
        "41506478881403507969696680653240014914910929820314476107906210059990532622336"
      ]
    },
    {
      "x": 400,
      "y": 240,
      "size": 1,
      "price": "4683000000000000000000",
      "reserved": "",
      "salt": "0xa990ea20f7c904f9db8ddd376cda8517414f1e2bcb141b3a3952c7ca42511ce0",
      "assetIds": [
        "41506478881403507969696680653240014914910929820314476107906210059990532622336"
      ]
    },
    {
      "x": 400,
      "y": 241,
      "size": 1,
      "price": "4683000000000000000000",
      "reserved": "",
      "salt": "0x419c04616c5c2a7bd42edc5b035b161eca54e3f38ad06a085d3c8b25e5248709",
      "assetIds": [
        "41506478881403507969696680653240014914910929820314476107906210059990541021188"
      ]
    },
    {
      "x": 400,
      "y": 242,
      "size": 1,
      "price": "4683000000000000000000",
      "reserved": "",
      "salt": "0x49c182d79fb24a4e0a65078a5a051c5ff944c53a30c13b210a50dea21357cc69",
      "assetIds": [
        "41506478881403507969696680653240014914910929820314476107906210059990541021184"
      ]
    },
    {
      "x": 400,
      "y": 243,
      "size": 1,
      "price": "4683000000000000000000",
      "reserved": "",
      "salt": "0xb41e2356f0f60a39dddbe4a9cd368a01bb2c9d38133747d1bd5c5ca85c095b21",
      "assetIds": [
        "41506478881403507969696680653240014914910929820314476107906210059990541021189"
      ]
    },
    {
      "x": 400,
      "y": 244,
      "size": 1,
      "price": "4683000000000000000000",
      "reserved": "",
      "salt": "0xad8d65ebc9b237202f6bce6a2f6981c8a1a0fafe724aa29f97e803c8f35aec35",
      "assetIds": [
        "41506478881403507969696680653240014914910929820314476107906210059990541021187"
      ]
    },
    {
      "x": 400,
      "y": 245,
      "size": 1,
      "price": "4683000000000000000000",
      "reserved": "",
      "salt": "0xc66266c70c18acd6809a81a5940de143202c3861dae1298531ffb994e24184e3",
      "assetIds": [
        "41506478881403507969696680653240014914910929820314476107906210059990541021188"
      ]
    },
    {
      "x": 400,
      "y": 246,
      "size": 1,
      "price": "4683000000000000000000",
      "reserved": "",
      "salt": "0x67a1d8800b93b7bbbceefe39516fc97f700a84e515cb8b8ec200188d5284948b",
      "assetIds": [
        "41506478881403507969696680653240014914910929820314476107906210059990541021184"
      ]
    },
    {
      "x": 400,
      "y": 247,
      "size": 1,
      "price": "4683000000000000000000",
      "reserved": "",
      "salt": "0x16163a8831b2a522e6c16277b9581657117eddbf04b17ee9fe7084e48d5af7ad",
      "assetIds": [
        "41506478881403507969696680653240014914910929820314476107906210059990541021185"
      ]
    },
    {
      "x": 400,
      "y": 248,
      "size": 1,
      "price": "4683000000000000000000",
      "reserved": "",
      "salt": "0xeccac961b6d76fcdec83b49c1c484beee98fea7e6eb187a8ceac304cffc5cb25",
      "assetIds": [
        "41506478881403507969696680653240014914910929820314476107906210059990532622336"
      ]
    },
    {
      "x": 400,
      "y": 249,
      "size": 1,
      "price": "4683000000000000000000",
      "reserved": "",
      "salt": "0x13b0134e8cc963db7fb5bf43633e5509f9d84743affe140dd5ad35032d1388e2",
      "assetIds": [
        "41506478881403507969696680653240014914910929820314476107906210059990541021187"
      ]
    },
    {
      "x": 400,
      "y": 250,
      "size": 1,
      "price": "1011000000000000000000",
      "reserved": "0x7a9fe22691c811ea339d9b73150e6911a5343dca",
      "salt": "0xbeca1e1793d9fd126675a232282cef6c1f3a83c868e7c852832923f742be009a",
      "assetIds": []
    },
    {
      "x": 400,
      "y": 251,
      "size": 1,
      "price": "4683000000000000000000",
      "reserved": "",
      "salt": "0xef84e5b363c10f57ffeb62397d480228a2064035d6f972af54f19fd6939b950e",
      "assetIds": [
        "41506478881403507969696680653240014914910929820314476107906210059990541021188"
      ]
    },
    {
      "x": 400,
      "y": 294,
      "size": 1,
      "price": "4683000000000000000000",
      "reserved": "",
      "salt": "0x49d507b9c638d83d4db2e149fe30c9075aeb9d993137d9ae9b966d24b3fc1cd7",
      "assetIds": [
        "41506478881403507969696680653240014914910929820314476107906210059990541021187"
      ]
    },
    {
      "x": 400,
      "y": 295,
      "size": 1,
      "price": "4683000000000000000000",
      "reserved": "",
      "salt": "0xbf622c458599e94830663aa85eb43ebdbb3a84499ded7089eb3b5537c056a37f",
      "assetIds": [
        "41506478881403507969696680653240014914910929820314476107906210059990541021187"
      ]
    },
    {
      "x": 400,
      "y": 296,
      "size": 1,
      "price": "4683000000000000000000",
      "reserved": "",
      "salt": "0xbf185f7515429814e0d5a769f6e103900850a8bc813de22fc49d27145450ae2a",
      "assetIds": [
        "41506478881403507969696680653240014914910929820314476107906210059990532622336"
      ]
    },
    {
      "x": 400,
      "y": 297,
      "size": 1,
      "price": "4683000000000000000000",
      "reserved": "",
      "salt": "0x0d05e6b934fadac0f5ea6f510e3c5783be3532030ec94866a314fdff94233675",
      "assetIds": [
        "41506478881403507969696680653240014914910929820314476107906210059990541021186"
      ]
    },
    {
      "x": 400,
      "y": 298,
      "size": 1,
      "price": "4683000000000000000000",
      "reserved": "",
      "salt": "0xd7d41ecb63c703f2cf1e82728bc2ba81f93bad0d429c4c0b77015f0d8f2e1585",
      "assetIds": [
        "41506478881403507969696680653240014914910929820314476107906210059990541021189"
      ]
    },
    {
      "x": 400,
      "y": 299,
      "size": 1,
      "price": "4683000000000000000000",
      "reserved": "",
      "salt": "0xad68fa4f4dc32a8f142d63db33d4a252688569eb5ec82a3e996e57ce8480350e",
      "assetIds": [
        "41506478881403507969696680653240014914910929820314476107906210059990541021188"
      ]
    },
    {
      "x": 401,
      "y": 228,
      "size": 1,
      "price": "4683000000000000000000",
      "reserved": "",
      "salt": "0x10770e7a9aabe233b53d6636ced22d3041b77542315eb188349f6fd318876eed",
      "assetIds": [
        "41506478881403507969696680653240014914910929820314476107906210059990541021188"
      ]
    },
    {
      "x": 401,
      "y": 229,
      "size": 1,
      "price": "4683000000000000000000",
      "reserved": "",
      "salt": "0x1ac431906edbcc422ca77baa276ff61a32844a82779a95757dbff94db657adde",
      "assetIds": [
        "41506478881403507969696680653240014914910929820314476107906210059990541021189"
      ]
    },
    {
      "x": 401,
      "y": 230,
      "size": 1,
      "price": "4683000000000000000000",
      "reserved": "",
      "salt": "0x648fc90066f5890122805e1ac3f9361453258ff8a7d205a775f21f9aad99ba0e",
      "assetIds": [
        "41506478881403507969696680653240014914910929820314476107906210059990541021188"
      ]
    },
    {
      "x": 401,
      "y": 231,
      "size": 1,
      "price": "1011000000000000000000",
      "reserved": "0x7a9fe22691c811ea339d9b73150e6911a5343dca",
      "salt": "0xb43ded6bfd7e943aef526b3804f09aa4fb5669dbdc3aea5e73700e7888449b27",
      "assetIds": []
    },
    {
      "x": 401,
      "y": 232,
      "size": 1,
      "price": "4683000000000000000000",
      "reserved": "",
      "salt": "0x327447c170294dba3cd817099b5b494ec9275a5dd13d31e01bbbfdfa39f78669",
      "assetIds": [
        "41506478881403507969696680653240014914910929820314476107906210059990541021188"
      ]
    },
    {
      "x": 401,
      "y": 233,
      "size": 1,
      "price": "1011000000000000000000",
      "reserved": "0x7a9fe22691c811ea339d9b73150e6911a5343dca",
      "salt": "0xefa5f613e2e1c058a4bcdae7606fd2157a741d609713d217b1e10f7b3468b07e",
      "assetIds": []
    },
    {
      "x": 401,
      "y": 234,
      "size": 1,
      "price": "4683000000000000000000",
      "reserved": "",
      "salt": "0x2230f99c4aa35043cc73fd4b6141b29c79e2a28c593a574b5285078fc6f44971",
      "assetIds": [
        "41506478881403507969696680653240014914910929820314476107906210059990541021188"
      ]
    },
    {
      "x": 401,
      "y": 235,
      "size": 1,
      "price": "4683000000000000000000",
      "reserved": "",
      "salt": "0x70f736cd2c162161e250f7f61ccd807b72611d6a0acbe2757ca26d8824a45e8c",
      "assetIds": [
        "41506478881403507969696680653240014914910929820314476107906210059990541021187"
      ]
    },
    {
      "x": 401,
      "y": 236,
      "size": 1,
      "price": "4683000000000000000000",
      "reserved": "",
      "salt": "0x9c04ee17a0289eaa876a6357c3b1b1dfe34b2bc9574b86d2cfe682ef8638ce95",
      "assetIds": [
        "41506478881403507969696680653240014914910929820314476107906210059990541021187"
      ]
    },
    {
      "x": 401,
      "y": 240,
      "size": 1,
      "price": "4683000000000000000000",
      "reserved": "",
      "salt": "0xe4467dcd3b09cfc7c83c3a3202058185a527b731999482fcde7185ba7f792943",
      "assetIds": [
        "41506478881403507969696680653240014914910929820314476107906210059990541021185"
      ]
    },
    {
      "x": 401,
      "y": 241,
      "size": 1,
      "price": "4683000000000000000000",
      "reserved": "",
      "salt": "0xf0e16df857e43ffde166185772f0e065cfdef02c88938c651e925b111efa9c13",
      "assetIds": [
        "41506478881403507969696680653240014914910929820314476107906210059990541021186"
      ]
    },
    {
      "x": 401,
      "y": 242,
      "size": 1,
      "price": "4683000000000000000000",
      "reserved": "",
      "salt": "0xefd03655ca82dca1ed7c7df508c05565443eaac24b7085851b4c220e286857d6",
      "assetIds": [
        "41506478881403507969696680653240014914910929820314476107906210059990541021187"
      ]
    },
    {
      "x": 401,
      "y": 243,
      "size": 1,
      "price": "4683000000000000000000",
      "reserved": "",
      "salt": "0x469d5fa27c5f76befcef63eb5f6cdf203b2929cc12cf2b31995bc1bb78b76a79",
      "assetIds": [
        "41506478881403507969696680653240014914910929820314476107906210059990541021185"
      ]
    },
    {
      "x": 401,
      "y": 244,
      "size": 1,
      "price": "4683000000000000000000",
      "reserved": "",
      "salt": "0xa4eaee5e914726ae4379a1d564858bacd1c220dc4b628c1a36a17616d0b4afca",
      "assetIds": [
        "41506478881403507969696680653240014914910929820314476107906210059990541021189"
      ]
    },
    {
      "x": 401,
      "y": 245,
      "size": 1,
      "price": "4683000000000000000000",
      "reserved": "",
      "salt": "0x354b9397457975aff1b93a67d1794d2a2f76f0cb19a80395ef6df31d873d4316",
      "assetIds": [
        "41506478881403507969696680653240014914910929820314476107906210059990541021186"
      ]
    },
    {
      "x": 401,
      "y": 246,
      "size": 1,
      "price": "4683000000000000000000",
      "reserved": "",
      "salt": "0x19fea371a23d283a393d005f40efae4ee02fcf40002d156db30a6dc7358b6766",
      "assetIds": [
        "41506478881403507969696680653240014914910929820314476107906210059990541021186"
      ]
    },
    {
      "x": 401,
      "y": 247,
      "size": 1,
      "price": "4683000000000000000000",
      "reserved": "",
      "salt": "0x2848c441571931340c843585746b83f052ee9985744b99b7688767d8a4f1da08",
      "assetIds": [
        "41506478881403507969696680653240014914910929820314476107906210059990541021189"
      ]
    },
    {
      "x": 401,
      "y": 248,
      "size": 1,
      "price": "4683000000000000000000",
      "reserved": "",
      "salt": "0x885fc72317ed0e6774c00bc3f91cbd7bdd884c175172ded24d62a1245a654149",
      "assetIds": [
        "41506478881403507969696680653240014914910929820314476107906210059990541021184"
      ]
    },
    {
      "x": 401,
      "y": 249,
      "size": 1,
      "price": "4683000000000000000000",
      "reserved": "",
      "salt": "0x54ab88430f2fa4e5c2ef8c8c5b615b204fb62969934ac1c1494d55309d224a74",
      "assetIds": [
        "41506478881403507969696680653240014914910929820314476107906210059990541021184"
      ]
    },
    {
      "x": 401,
      "y": 250,
      "size": 1,
      "price": "4683000000000000000000",
      "reserved": "",
      "salt": "0xf47b365ef534fc889e5be4d7d4b9d543717cd97ae5cb5cdb5c8a69bcc7bc4650",
      "assetIds": [
        "41506478881403507969696680653240014914910929820314476107906210059990532622336"
      ]
    },
    {
      "x": 401,
      "y": 251,
      "size": 1,
      "price": "4683000000000000000000",
      "reserved": "",
      "salt": "0x8f39fe17a28afefeb465372481a8b1a89ea41e1ddba6ad8c04d51c4bd76331ed",
      "assetIds": [
        "41506478881403507969696680653240014914910929820314476107906210059990541021187"
      ]
    },
    {
      "x": 401,
      "y": 294,
      "size": 1,
      "price": "4683000000000000000000",
      "reserved": "",
      "salt": "0xbbe0573a61dec7b12469f43aa4581a708a4b70ff7a5da441e88c8216b77d3914",
      "assetIds": [
        "41506478881403507969696680653240014914910929820314476107906210059990541021188"
      ]
    },
    {
      "x": 401,
      "y": 295,
      "size": 1,
      "price": "4683000000000000000000",
      "reserved": "",
      "salt": "0xe7968eacc3fe48f510abb87132be797476bb582b763052b17c8f301d2cafec81",
      "assetIds": [
        "41506478881403507969696680653240014914910929820314476107906210059990541021188"
      ]
    },
    {
      "x": 401,
      "y": 296,
      "size": 1,
      "price": "4683000000000000000000",
      "reserved": "",
      "salt": "0x9117e2b909003eb3bae84b15af2dc84e5b8610bb600f11f9654676f1074f4a26",
      "assetIds": [
        "41506478881403507969696680653240014914910929820314476107906210059990541021189"
      ]
    },
    {
      "x": 401,
      "y": 297,
      "size": 1,
      "price": "4683000000000000000000",
      "reserved": "",
      "salt": "0xea6a97fb34556ca5754cf701692010921a0665c506ea5e0ce4a5abfd752e9e7a",
      "assetIds": [
        "41506478881403507969696680653240014914910929820314476107906210059990541021187"
      ]
    },
    {
      "x": 401,
      "y": 298,
      "size": 1,
      "price": "4683000000000000000000",
      "reserved": "",
      "salt": "0xce5a46f5cb07a57fa3b988490806883cdad742166ec17a97ef88008d9856f732",
      "assetIds": [
        "41506478881403507969696680653240014914910929820314476107906210059990541021187"
      ]
    },
    {
      "x": 401,
      "y": 299,
      "size": 1,
      "price": "4683000000000000000000",
      "reserved": "",
      "salt": "0xda5fa90f02d27ed4ad4af2394905631e30ed223f257a1dd130a070810dda5316",
      "assetIds": [
        "41506478881403507969696680653240014914910929820314476107906210059990541021185"
      ]
    },
    {
      "x": 402,
      "y": 240,
      "size": 1,
      "price": "4683000000000000000000",
      "reserved": "",
      "salt": "0x0d821be222f86eabce12458c6b113a2f29eaf719458d9c6a4a48e19536112f25",
      "assetIds": [
        "41506478881403507969696680653240014914910929820314476107906210059990541021188"
      ]
    },
    {
      "x": 402,
      "y": 241,
      "size": 1,
      "price": "4683000000000000000000",
      "reserved": "",
      "salt": "0xed599db6676ee24d2d1fc28ed7c7bd07ce11bd57dbee155e36addfe1d6b87c90",
      "assetIds": [
        "41506478881403507969696680653240014914910929820314476107906210059990541021186"
      ]
    },
    {
      "x": 402,
      "y": 242,
      "size": 1,
      "price": "4683000000000000000000",
      "reserved": "",
      "salt": "0x9cafa594a52bbe82581d3214009f8ece5100b9704ba980e852a92bc88bd024ae",
      "assetIds": [
        "41506478881403507969696680653240014914910929820314476107906210059990541021187"
      ]
    },
    {
      "x": 402,
      "y": 243,
      "size": 1,
      "price": "4683000000000000000000",
      "reserved": "",
      "salt": "0xa15b1484fc82abae540b466a5708450a5e3442a43d34fb3f7fd101c5b6eb2738",
      "assetIds": [
        "41506478881403507969696680653240014914910929820314476107906210059990532622336"
      ]
    },
    {
      "x": 402,
      "y": 244,
      "size": 1,
      "price": "4683000000000000000000",
      "reserved": "",
      "salt": "0x61164716e5c7e0b2f8841db45c8aed98d868646c6c4cdcdfe9e41fb7769aed71",
      "assetIds": [
        "41506478881403507969696680653240014914910929820314476107906210059990541021184"
      ]
    },
    {
      "x": 402,
      "y": 245,
      "size": 1,
      "price": "4683000000000000000000",
      "reserved": "",
      "salt": "0x8cba6094e0b302aba96bad4ee1571073f923f86d0ed33651e04fd8d7347c9024",
      "assetIds": [
        "41506478881403507969696680653240014914910929820314476107906210059990541021188"
      ]
    },
    {
      "x": 402,
      "y": 246,
      "size": 1,
      "price": "4683000000000000000000",
      "reserved": "",
      "salt": "0x9aa59d01f4008fd92e05629f403c5a95ecf21100d8a4cf4ffe2b4caae649980e",
      "assetIds": [
        "41506478881403507969696680653240014914910929820314476107906210059990541021189"
      ]
    },
    {
      "x": 402,
      "y": 247,
      "size": 1,
      "price": "4683000000000000000000",
      "reserved": "",
      "salt": "0x8500c1291fcb0380cebf0cc1a90b38a32cac9cfefa940c714df23b1f6df6f751",
      "assetIds": [
        "41506478881403507969696680653240014914910929820314476107906210059990541021188"
      ]
    },
    {
      "x": 402,
      "y": 248,
      "size": 1,
      "price": "4683000000000000000000",
      "reserved": "",
      "salt": "0x3c987e3f7f51f49e59c024f8f31a2272eb1b42748fdbf2d2b3b6113e306e6d18",
      "assetIds": [
        "41506478881403507969696680653240014914910929820314476107906210059990541021184"
      ]
    },
    {
      "x": 402,
      "y": 249,
      "size": 1,
      "price": "4683000000000000000000",
      "reserved": "",
      "salt": "0xd9b104462d8959bc01e9c9f067a4b2e1018ffb840f6f2350001f8034ce7d2f08",
      "assetIds": [
        "41506478881403507969696680653240014914910929820314476107906210059990541021187"
      ]
    },
    {
      "x": 402,
      "y": 250,
      "size": 1,
      "price": "4683000000000000000000",
      "reserved": "",
      "salt": "0x906281f809074b6899d8c54c4c8a5d8a8f43a73a4879cc220e8d59b7e9822b71",
      "assetIds": [
        "41506478881403507969696680653240014914910929820314476107906210059990541021189"
      ]
    },
    {
      "x": 402,
      "y": 251,
      "size": 1,
      "price": "4683000000000000000000",
      "reserved": "",
      "salt": "0xa3b25c2f0ae3ee9ae14f7fe1e711b40352a63bf72f5d54be445f890c8e2d6afe",
      "assetIds": [
        "41506478881403507969696680653240014914910929820314476107906210059990541021188"
      ]
    },
    {
      "x": 402,
      "y": 288,
      "size": 1,
      "price": "4683000000000000000000",
      "reserved": "",
      "salt": "0xf41d94952cabbd7ba506cba5abbcb8bc37da6260e1983f5d42c93bfecc9f88e0",
      "assetIds": [
        "41506478881403507969696680653240014914910929820314476107906210059990541021188"
      ]
    },
    {
      "x": 402,
      "y": 289,
      "size": 1,
      "price": "4683000000000000000000",
      "reserved": "",
      "salt": "0x2b57042238714bae08e2086a67e782a4e0d41ec2e9bfe4184b2ee47dada1f0bb",
      "assetIds": [
        "41506478881403507969696680653240014914910929820314476107906210059990541021188"
      ]
    },
    {
      "x": 402,
      "y": 290,
      "size": 1,
      "price": "4683000000000000000000",
      "reserved": "",
      "salt": "0x3b1e1df68eda52a060ae7a3c75a08c8853cad098ea6606829306f466d15b78e3",
      "assetIds": [
        "41506478881403507969696680653240014914910929820314476107906210059990532622336"
      ]
    },
    {
      "x": 402,
      "y": 291,
      "size": 1,
      "price": "4683000000000000000000",
      "reserved": "",
      "salt": "0xc56625346012bd9cf65c43f3aa1758db0b87f47d6bd6eeb28b003bbd9e997b4b",
      "assetIds": [
        "41506478881403507969696680653240014914910929820314476107906210059990541021187"
      ]
    },
    {
      "x": 402,
      "y": 292,
      "size": 1,
      "price": "4683000000000000000000",
      "reserved": "",
      "salt": "0x67933eaf78cb2491ddd44b20146647c281e8595d09b5b7c2f4e2c437c4518467",
      "assetIds": [
        "41506478881403507969696680653240014914910929820314476107906210059990541021184"
      ]
    },
    {
      "x": 402,
      "y": 293,
      "size": 1,
      "price": "4683000000000000000000",
      "reserved": "",
      "salt": "0x1bbe651bc32c61bf3649d0988e934f68be38cbb969028bb96330969ef3fa6a97",
      "assetIds": [
        "41506478881403507969696680653240014914910929820314476107906210059990541021189"
      ]
    },
    {
      "x": 402,
      "y": 306,
      "size": 1,
      "price": "4683000000000000000000",
      "reserved": "",
      "salt": "0x71b003151943acb7159e3d87362eedc1565d79cca8c6754de6d71a4c2102d749",
      "assetIds": [
        "41506478881403507969696680653240014914910929820314476107906210059990532622336"
      ]
    },
    {
      "x": 402,
      "y": 307,
      "size": 1,
      "price": "4683000000000000000000",
      "reserved": "",
      "salt": "0x861e4c2dfd8bce2b9760a48a21d751404d54b4cf960125d8fd41b3587ac8d497",
      "assetIds": [
        "41506478881403507969696680653240014914910929820314476107906210059990541021184"
      ]
    },
    {
      "x": 402,
      "y": 308,
      "size": 1,
      "price": "4683000000000000000000",
      "reserved": "",
      "salt": "0x0457339642db2a132736728501493f49a3b00d668940f2a3578403a62cb39a76",
      "assetIds": [
        "41506478881403507969696680653240014914910929820314476107906210059990541021185"
      ]
    },
    {
      "x": 402,
      "y": 309,
      "size": 1,
      "price": "4683000000000000000000",
      "reserved": "",
      "salt": "0xe1b5d6905b8dbb0d1552464e3b58838babbf9bad9e98e0e51e617959364305d0",
      "assetIds": [
        "41506478881403507969696680653240014914910929820314476107906210059990541021188"
      ]
    },
    {
      "x": 402,
      "y": 310,
      "size": 1,
      "price": "4683000000000000000000",
      "reserved": "",
      "salt": "0x691b0d56b3708e4e03ecddc73fabf374a751f6aeded00fe27f579e408579bee6",
      "assetIds": [
        "41506478881403507969696680653240014914910929820314476107906210059990541021188"
      ]
    },
    {
      "x": 402,
      "y": 311,
      "size": 1,
      "price": "4683000000000000000000",
      "reserved": "",
      "salt": "0x20af5cabbe57ae42e7a04d73a949a8c83ece74218959f9a3b8ec1ad860dfcf71",
      "assetIds": [
        "41506478881403507969696680653240014914910929820314476107906210059990541021188"
      ]
    },
    {
      "x": 403,
      "y": 240,
      "size": 1,
      "price": "4683000000000000000000",
      "reserved": "",
      "salt": "0x36c63683804c48d6e6aa782b74e4703e6dd1c0a1e2e5d5375b4b1ee39b7d9142",
      "assetIds": [
        "41506478881403507969696680653240014914910929820314476107906210059990532622336"
      ]
    },
    {
      "x": 403,
      "y": 241,
      "size": 1,
      "price": "4683000000000000000000",
      "reserved": "",
      "salt": "0xe6e55a6dd4f4a99311c467012a8543054c0ba1d1f1b4ce79fb3e2eb61ff7d67a",
      "assetIds": [
        "41506478881403507969696680653240014914910929820314476107906210059990541021188"
      ]
    },
    {
      "x": 403,
      "y": 242,
      "size": 1,
      "price": "4683000000000000000000",
      "reserved": "",
      "salt": "0x65cd8c188ac0812135e94ad6727585b7c598131ba0aa0acb04fd168b7d478087",
      "assetIds": [
        "41506478881403507969696680653240014914910929820314476107906210059990541021187"
      ]
    },
    {
      "x": 403,
      "y": 243,
      "size": 1,
      "price": "4683000000000000000000",
      "reserved": "",
      "salt": "0xb86591db4e0b5c65c7292bd44b7312c226e04b8dc3ffa3c41427294adfc91701",
      "assetIds": [
        "41506478881403507969696680653240014914910929820314476107906210059990541021188"
      ]
    },
    {
      "x": 403,
      "y": 244,
      "size": 1,
      "price": "4683000000000000000000",
      "reserved": "",
      "salt": "0x0983fe6b7d1743b78f165f813a27007c137b113bf4f9c1985b753f4526082b67",
      "assetIds": [
        "41506478881403507969696680653240014914910929820314476107906210059990541021188"
      ]
    },
    {
      "x": 403,
      "y": 245,
      "size": 1,
      "price": "4683000000000000000000",
      "reserved": "",
      "salt": "0x4315c958cdcae8aaa11313fb9b2d8b3b37a512fa8a2af0e3eb56d7c65382b1a1",
      "assetIds": [
        "41506478881403507969696680653240014914910929820314476107906210059990541021189"
      ]
    },
    {
      "x": 403,
      "y": 246,
      "size": 1,
      "price": "4683000000000000000000",
      "reserved": "",
      "salt": "0xd469e1df675d7d2ad4b65cd0165a1a3d47868a0bf6bb7f6a4cfd6b8256ad6103",
      "assetIds": [
        "41506478881403507969696680653240014914910929820314476107906210059990541021188"
      ]
    },
    {
      "x": 403,
      "y": 247,
      "size": 1,
      "price": "4683000000000000000000",
      "reserved": "",
      "salt": "0x9e52065270c54e3bd83eb8eb33e7e37f13fcfe57d101b29320c2a2dc8f3beb7d",
      "assetIds": [
        "41506478881403507969696680653240014914910929820314476107906210059990541021185"
      ]
    },
    {
      "x": 403,
      "y": 248,
      "size": 1,
      "price": "4683000000000000000000",
      "reserved": "",
      "salt": "0x60bc007f9958284572af0c82534aa51e3ca4c67c5876139ff303eb052060d5ef",
      "assetIds": [
        "41506478881403507969696680653240014914910929820314476107906210059990541021188"
      ]
    },
    {
      "x": 403,
      "y": 249,
      "size": 1,
      "price": "4683000000000000000000",
      "reserved": "",
      "salt": "0xcd4e022e9db1e404bf4327999145650195a1a703e72acdd3a7f1079b7c2e7003",
      "assetIds": [
        "41506478881403507969696680653240014914910929820314476107906210059990541021187"
      ]
    },
    {
      "x": 403,
      "y": 250,
      "size": 1,
      "price": "4683000000000000000000",
      "reserved": "",
      "salt": "0x6c2f28815230da18b91a67f8e37242afb32326f304b9abad9c524c1975e8e691",
      "assetIds": [
        "41506478881403507969696680653240014914910929820314476107906210059990541021187"
      ]
    },
    {
      "x": 403,
      "y": 251,
      "size": 1,
      "price": "4683000000000000000000",
      "reserved": "",
      "salt": "0x24585ba365d10b018f02eda26fd7d74118f92a0d6114b8442c7d2bb81af3aae4",
      "assetIds": [
        "41506478881403507969696680653240014914910929820314476107906210059990541021186"
      ]
    },
    {
      "x": 403,
      "y": 288,
      "size": 1,
      "price": "4683000000000000000000",
      "reserved": "",
      "salt": "0x8636fcb160b206c95aa1d4866dd9a1261c042563ff6df8a81a5d02a8b89d582a",
      "assetIds": [
        "41506478881403507969696680653240014914910929820314476107906210059990541021184"
      ]
    },
    {
      "x": 403,
      "y": 289,
      "size": 1,
      "price": "4683000000000000000000",
      "reserved": "",
      "salt": "0xac083ae52dc4f01ce5bbc65097b4e82bf47dcdedd6bb7b68a01916859470ea1d",
      "assetIds": [
        "41506478881403507969696680653240014914910929820314476107906210059990541021188"
      ]
    },
    {
      "x": 403,
      "y": 290,
      "size": 1,
      "price": "4683000000000000000000",
      "reserved": "",
      "salt": "0xff48837488caa457fabfd9a0caa4c048d8380ad8dcccf8e4315606bd5d7d670b",
      "assetIds": [
        "41506478881403507969696680653240014914910929820314476107906210059990541021188"
      ]
    },
    {
      "x": 403,
      "y": 291,
      "size": 1,
      "price": "4683000000000000000000",
      "reserved": "",
      "salt": "0x938ac7dbf924c4a8eb5ece229b4baab7d314e3c73c840221b1f5a59750e7a2ce",
      "assetIds": [
        "41506478881403507969696680653240014914910929820314476107906210059990541021187"
      ]
    },
    {
      "x": 403,
      "y": 292,
      "size": 1,
      "price": "4683000000000000000000",
      "reserved": "",
      "salt": "0xccd9635e60a431ddb6ec928fc1372a8b236f314ebda67b6574a114fd2220b7c7",
      "assetIds": [
        "41506478881403507969696680653240014914910929820314476107906210059990541021189"
      ]
    },
    {
      "x": 403,
      "y": 293,
      "size": 1,
      "price": "4683000000000000000000",
      "reserved": "",
      "salt": "0x1aca74da272acd2b38c83f65ff1b475071e419314e284409f210d9848d5f8424",
      "assetIds": [
        "41506478881403507969696680653240014914910929820314476107906210059990541021186"
      ]
    },
    {
      "x": 403,
      "y": 306,
      "size": 1,
      "price": "4683000000000000000000",
      "reserved": "",
      "salt": "0xdaabb63df8ae21f6efc76333282654714ab8f6ecec03eb1e8ca55f8ee3f753d9",
      "assetIds": [
        "41506478881403507969696680653240014914910929820314476107906210059990541021187"
      ]
    },
    {
      "x": 403,
      "y": 307,
      "size": 1,
      "price": "4683000000000000000000",
      "reserved": "",
      "salt": "0x4a3fde25d0b04fe3a2bac8ebfdf64d28c0b16cd2a6b9813429b6915e8f0cb85e",
      "assetIds": [
        "41506478881403507969696680653240014914910929820314476107906210059990541021188"
      ]
    },
    {
      "x": 403,
      "y": 308,
      "size": 1,
      "price": "4683000000000000000000",
      "reserved": "",
      "salt": "0xff19241df80adca3ea10452748c2dd45a6d140fdc2fdac3e42895f78b3d7001d",
      "assetIds": [
        "41506478881403507969696680653240014914910929820314476107906210059990541021188"
      ]
    },
    {
      "x": 403,
      "y": 309,
      "size": 1,
      "price": "1011000000000000000000",
      "reserved": "0x7a9fe22691c811ea339d9b73150e6911a5343dca",
      "salt": "0x1d3507a2d8c72e0bd8b982f742b00ffd93eba117b5fc90c1db0a6adb26d1d9ae",
      "assetIds": []
    },
    {
      "x": 403,
      "y": 310,
      "size": 1,
      "price": "4683000000000000000000",
      "reserved": "",
      "salt": "0x6ca79d601229a59645e02d6de2e5111ea570b8d2618d51d7012261809a39d43a",
      "assetIds": [
        "41506478881403507969696680653240014914910929820314476107906210059990541021187"
      ]
    },
    {
      "x": 403,
      "y": 311,
      "size": 1,
      "price": "4683000000000000000000",
      "reserved": "",
      "salt": "0x292968971c57d0d3240473684ba43c94b73234b88fb81d443f2ea9df1ce81835",
      "assetIds": [
        "41506478881403507969696680653240014914910929820314476107906210059990541021188"
      ]
    },
    {
      "x": 404,
      "y": 240,
      "size": 1,
      "price": "4683000000000000000000",
      "reserved": "",
      "salt": "0x4edb1cf6546db0b1491cc98946cc10befd6ff91c375ea719a4c696adc7d3016e",
      "assetIds": [
        "41506478881403507969696680653240014914910929820314476107906210059990541021187"
      ]
    },
    {
      "x": 404,
      "y": 241,
      "size": 1,
      "price": "4683000000000000000000",
      "reserved": "",
      "salt": "0x377c91d858cf08f3924bb31ff7e7ba0fba6bd328a8ccac9e1694e58c9b666382",
      "assetIds": [
        "41506478881403507969696680653240014914910929820314476107906210059990541021189"
      ]
    },
    {
      "x": 404,
      "y": 242,
      "size": 1,
      "price": "4683000000000000000000",
      "reserved": "",
      "salt": "0x2f20755fc7c55ba96663c9b8dca154249799cb31ca274555fb9f2f60593af1e0",
      "assetIds": [
        "41506478881403507969696680653240014914910929820314476107906210059990541021188"
      ]
    },
    {
      "x": 404,
      "y": 243,
      "size": 1,
      "price": "4683000000000000000000",
      "reserved": "",
      "salt": "0xfbff189fa5924c15cdaeb59b2a0886a244416d045d2abc2157986d2747f8e377",
      "assetIds": [
        "41506478881403507969696680653240014914910929820314476107906210059990541021187"
      ]
    },
    {
      "x": 404,
      "y": 244,
      "size": 1,
      "price": "4683000000000000000000",
      "reserved": "",
      "salt": "0xb8bf0d65a21dd83dfb532d64529b2145fe7abcd63a19744c1f3a2dd073e9d0e4",
      "assetIds": [
        "41506478881403507969696680653240014914910929820314476107906210059990541021184"
      ]
    },
    {
      "x": 404,
      "y": 245,
      "size": 1,
      "price": "4683000000000000000000",
      "reserved": "",
      "salt": "0xb17b3b030abee6c64c4d6b15bd413fe2995f4abc5e406fc434016bfb5d8614a1",
      "assetIds": [
        "41506478881403507969696680653240014914910929820314476107906210059990541021187"
      ]
    },
    {
      "x": 404,
      "y": 246,
      "size": 1,
      "price": "4683000000000000000000",
      "reserved": "",
      "salt": "0xd9b5f7f34e427780576f653e3713034572a9bce7efba32fc470cf1628613fdf5",
      "assetIds": [
        "41506478881403507969696680653240014914910929820314476107906210059990541021184"
      ]
    },
    {
      "x": 404,
      "y": 247,
      "size": 1,
      "price": "4683000000000000000000",
      "reserved": "",
      "salt": "0xd041f7b1a4f25bb6417d1e374cd7081f14691793356632cef7a2879e9824acd2",
      "assetIds": [
        "41506478881403507969696680653240014914910929820314476107906210059990541021187"
      ]
    },
    {
      "x": 404,
      "y": 248,
      "size": 1,
      "price": "4683000000000000000000",
      "reserved": "",
      "salt": "0x164fde3e9de5d77169b22c008d456bdad610b4e8e5c3a56b738b4360ca06a14c",
      "assetIds": [
        "41506478881403507969696680653240014914910929820314476107906210059990541021185"
      ]
    },
    {
      "x": 404,
      "y": 249,
      "size": 1,
      "price": "4683000000000000000000",
      "reserved": "",
      "salt": "0x6386fac929dbe6a15756e63a606099ef2775547c225a7384d93a269a935793af",
      "assetIds": [
        "41506478881403507969696680653240014914910929820314476107906210059990541021189"
      ]
    },
    {
      "x": 404,
      "y": 250,
      "size": 1,
      "price": "4683000000000000000000",
      "reserved": "",
      "salt": "0x5466e4b0980acfe0d2b9681d12b5d1137426f2f8f49c4ca541c4df48758f53d5",
      "assetIds": [
        "41506478881403507969696680653240014914910929820314476107906210059990541021185"
      ]
    },
    {
      "x": 404,
      "y": 251,
      "size": 1,
      "price": "4683000000000000000000",
      "reserved": "",
      "salt": "0x0f3fb46494ad69b0a73499662b4c1111211729ae962ccbd97341b9b910af1f91",
      "assetIds": [
        "41506478881403507969696680653240014914910929820314476107906210059990541021189"
      ]
    },
    {
      "x": 404,
      "y": 288,
      "size": 1,
      "price": "4683000000000000000000",
      "reserved": "",
      "salt": "0xb5f3f336eb81882f950656f85c3c3d964aab4a3d0fad4e5def3e6e38e0b94010",
      "assetIds": [
        "41506478881403507969696680653240014914910929820314476107906210059990532622336"
      ]
    },
    {
      "x": 404,
      "y": 289,
      "size": 1,
      "price": "4683000000000000000000",
      "reserved": "",
      "salt": "0xef7d399b168dfab0feb299640f2e81b62893278d5820f7c297306f8fbd45ef40",
      "assetIds": [
        "41506478881403507969696680653240014914910929820314476107906210059990541021189"
      ]
    },
    {
      "x": 404,
      "y": 290,
      "size": 1,
      "price": "4683000000000000000000",
      "reserved": "",
      "salt": "0xb7d99658bc4884df38ae096a184aaa0b6e40562232edec1d200f57248b1d9713",
      "assetIds": [
        "41506478881403507969696680653240014914910929820314476107906210059990541021188"
      ]
    },
    {
      "x": 404,
      "y": 291,
      "size": 1,
      "price": "4683000000000000000000",
      "reserved": "",
      "salt": "0x4328cad07d8c763264efb5381241cd226fb9be179fdc8db61c1b71f18469b509",
      "assetIds": [
        "41506478881403507969696680653240014914910929820314476107906210059990541021186"
      ]
    },
    {
      "x": 404,
      "y": 292,
      "size": 1,
      "price": "4683000000000000000000",
      "reserved": "",
      "salt": "0x3f08c5252f77099eb3ebf208877fa59ade9d2daae7ce2e5f1756317d829a1d1a",
      "assetIds": [
        "41506478881403507969696680653240014914910929820314476107906210059990541021184"
      ]
    },
    {
      "x": 404,
      "y": 293,
      "size": 1,
      "price": "4683000000000000000000",
      "reserved": "",
      "salt": "0x7dcf1ce512765d9cdefd4b126f8361be028c545b426eb926306e7fa946d50e73",
      "assetIds": [
        "41506478881403507969696680653240014914910929820314476107906210059990541021189"
      ]
    },
    {
      "x": 404,
      "y": 306,
      "size": 1,
      "price": "4683000000000000000000",
      "reserved": "",
      "salt": "0x15dcec3946bdc88cef6d9e7c00a3df1da70cb360ad058614b9210727925315d1",
      "assetIds": [
        "41506478881403507969696680653240014914910929820314476107906210059990541021187"
      ]
    },
    {
      "x": 404,
      "y": 307,
      "size": 1,
      "price": "4683000000000000000000",
      "reserved": "",
      "salt": "0xd929af32e154a9c53af6524ea5a769cbf71894576c2cc9aca61ec2436b96c146",
      "assetIds": [
        "41506478881403507969696680653240014914910929820314476107906210059990541021188"
      ]
    },
    {
      "x": 404,
      "y": 308,
      "size": 1,
      "price": "4683000000000000000000",
      "reserved": "",
      "salt": "0xef572d32e4f5799cd54cf86ef0b629b583998e24e551ae1a998858c4cfc3d21f",
      "assetIds": [
        "41506478881403507969696680653240014914910929820314476107906210059990541021189"
      ]
    },
    {
      "x": 404,
      "y": 309,
      "size": 1,
      "price": "4683000000000000000000",
      "reserved": "",
      "salt": "0xb794d3bf50b7080abffb6b7834d4a4bdd45a538e1f21e75c15c0bc24af90e8d4",
      "assetIds": [
        "41506478881403507969696680653240014914910929820314476107906210059990541021187"
      ]
    },
    {
      "x": 404,
      "y": 310,
      "size": 1,
      "price": "4683000000000000000000",
      "reserved": "",
      "salt": "0x80ff39ea9ecc46bbfcea929a0a76a2b913b278a287b20068f1f84cd6d11edf3f",
      "assetIds": [
        "41506478881403507969696680653240014914910929820314476107906210059990541021187"
      ]
    },
    {
      "x": 404,
      "y": 311,
      "size": 1,
      "price": "4683000000000000000000",
      "reserved": "",
      "salt": "0x4469703b6d3f08b67ae3ddd4f82a78bc76d26ce6d5af80ec8cc5c227b6b79b1a",
      "assetIds": [
        "41506478881403507969696680653240014914910929820314476107906210059990541021189"
      ]
    },
    {
      "x": 405,
      "y": 240,
      "size": 1,
      "price": "4683000000000000000000",
      "reserved": "",
      "salt": "0xecc331d8cc88a934eac7c74fe297bc53081c86a20113f2e95a54e4e95bfe7d2f",
      "assetIds": [
        "41506478881403507969696680653240014914910929820314476107906210059990541021189"
      ]
    },
    {
      "x": 405,
      "y": 241,
      "size": 1,
      "price": "4683000000000000000000",
      "reserved": "",
      "salt": "0xd29862e194d06bc5d2b21c7d29ab9200c9b41f23177c342781af8359640e7d6e",
      "assetIds": [
        "41506478881403507969696680653240014914910929820314476107906210059990541021188"
      ]
    },
    {
      "x": 405,
      "y": 242,
      "size": 1,
      "price": "4683000000000000000000",
      "reserved": "",
      "salt": "0x6a6678476710437473d55041032ae220805eb97d44a78103b42504ce37aa67c7",
      "assetIds": [
        "41506478881403507969696680653240014914910929820314476107906210059990541021189"
      ]
    },
    {
      "x": 405,
      "y": 243,
      "size": 1,
      "price": "4683000000000000000000",
      "reserved": "",
      "salt": "0x55afca66c6b69ccad4854c971eb146623492eba4bcdcd885a8db2036e92e1226",
      "assetIds": [
        "41506478881403507969696680653240014914910929820314476107906210059990541021188"
      ]
    },
    {
      "x": 405,
      "y": 244,
      "size": 1,
      "price": "4683000000000000000000",
      "reserved": "",
      "salt": "0xe6761d261750f2faf829524df916c6b6abb6662cc6ad6615e8308c87906273c0",
      "assetIds": [
        "41506478881403507969696680653240014914910929820314476107906210059990541021187"
      ]
    },
    {
      "x": 405,
      "y": 245,
      "size": 1,
      "price": "4683000000000000000000",
      "reserved": "",
      "salt": "0x8836b6e1272efa3e9db922430c1221fa0826baede295feb682711981f7d1fa4f",
      "assetIds": [
        "41506478881403507969696680653240014914910929820314476107906210059990541021186"
      ]
    },
    {
      "x": 405,
      "y": 246,
      "size": 1,
      "price": "4683000000000000000000",
      "reserved": "",
      "salt": "0x7f1e7a815716de1abafecfc69a20cb29f4926bd05960a2e99cc8cd7ea1ec5fcb",
      "assetIds": [
        "41506478881403507969696680653240014914910929820314476107906210059990541021187"
      ]
    },
    {
      "x": 405,
      "y": 247,
      "size": 1,
      "price": "1011000000000000000000",
      "reserved": "0x7a9fe22691c811ea339d9b73150e6911a5343dca",
      "salt": "0x6af6e55f158b319f08fdd8e2d23bf960569015894960babcd80aa036a1d8e44b",
      "assetIds": []
    },
    {
      "x": 405,
      "y": 248,
      "size": 1,
      "price": "4683000000000000000000",
      "reserved": "",
      "salt": "0xb8c02804393484bce8ce0f3dcd45565a860626d31057596f32ec7144b4e41cdc",
      "assetIds": [
        "41506478881403507969696680653240014914910929820314476107906210059990541021185"
      ]
    },
    {
      "x": 405,
      "y": 249,
      "size": 1,
      "price": "4683000000000000000000",
      "reserved": "",
      "salt": "0x2e733bebd4a6b676c4564119dbcb92f2c9aa72acc37f63914238cbf73b9bf66d",
      "assetIds": [
        "41506478881403507969696680653240014914910929820314476107906210059990541021189"
      ]
    },
    {
      "x": 405,
      "y": 250,
      "size": 1,
      "price": "4683000000000000000000",
      "reserved": "",
      "salt": "0xa9b55a8534f5d0a59318f611f8fcf65c67175e8dbc4530e9710233b98c91f096",
      "assetIds": [
        "41506478881403507969696680653240014914910929820314476107906210059990541021187"
      ]
    },
    {
      "x": 405,
      "y": 251,
      "size": 1,
      "price": "4683000000000000000000",
      "reserved": "",
      "salt": "0xda0455077a1a49274c6a04c40789782e7dd15ae27fe19106744e1f3de5cacd0a",
      "assetIds": [
        "41506478881403507969696680653240014914910929820314476107906210059990541021189"
      ]
    },
    {
      "x": 405,
      "y": 291,
      "size": 1,
      "price": "4683000000000000000000",
      "reserved": "",
      "salt": "0xf2128c52d31caea9fc211989e557e090ccb68b7f95c9a93b4c0e4bfd747a752a",
      "assetIds": [
        "41506478881403507969696680653240014914910929820314476107906210059990541021185"
      ]
    },
    {
      "x": 405,
      "y": 292,
      "size": 1,
      "price": "1011000000000000000000",
      "reserved": "0x7a9fe22691c811ea339d9b73150e6911a5343dca",
      "salt": "0xdd46ba6c7e186d86de3d163bd969bf044330b18093ab66835f827deacfb5b525",
      "assetIds": []
    },
    {
      "x": 405,
      "y": 293,
      "size": 1,
      "price": "4683000000000000000000",
      "reserved": "",
      "salt": "0xd3b699dd61e23fb63837a29f5ac00d8f68a950a36ae2b1d3fc4e2303b4c53137",
      "assetIds": [
        "41506478881403507969696680653240014914910929820314476107906210059990541021187"
      ]
    },
    {
      "x": 405,
      "y": 306,
      "size": 1,
      "price": "4683000000000000000000",
      "reserved": "",
      "salt": "0x563faa1028937d8bc03c19d0f20cb24888ae8fafc6d6cbde3b0bd61d507dd26a",
      "assetIds": [
        "41506478881403507969696680653240014914910929820314476107906210059990541021189"
      ]
    },
    {
      "x": 405,
      "y": 307,
      "size": 1,
      "price": "4683000000000000000000",
      "reserved": "",
      "salt": "0x7a84fb8bb80c28a14ecf12f62cdb0786423291592a4cfd63ef22192f68f5fb47",
      "assetIds": [
        "41506478881403507969696680653240014914910929820314476107906210059990541021187"
      ]
    },
    {
      "x": 405,
      "y": 308,
      "size": 1,
      "price": "4683000000000000000000",
      "reserved": "",
      "salt": "0xb572623b0770553e2b9acb938a5f1a1db840cc3486875997775c619b2151342c",
      "assetIds": [
        "41506478881403507969696680653240014914910929820314476107906210059990541021188"
      ]
    },
    {
      "x": 405,
      "y": 309,
      "size": 1,
      "price": "4683000000000000000000",
      "reserved": "",
      "salt": "0x2b82fef41bfd63b45e8e70abe7f7abded51a59f1d555ec329b99d45090436667",
      "assetIds": [
        "41506478881403507969696680653240014914910929820314476107906210059990541021188"
      ]
    },
    {
      "x": 405,
      "y": 310,
      "size": 1,
      "price": "4683000000000000000000",
      "reserved": "",
      "salt": "0x2d3d841a162c4e628cbfeecc9d3028c0a4e4d858d7e86a4e1bb84c6fd9d7d63d",
      "assetIds": [
        "41506478881403507969696680653240014914910929820314476107906210059990541021188"
      ]
    },
    {
      "x": 405,
      "y": 311,
      "size": 1,
      "price": "4683000000000000000000",
      "reserved": "",
      "salt": "0xa3355fe5a1337e4405cdc6f1fe44abf0fc57d365d5e640148779a277119b97ea",
      "assetIds": [
        "41506478881403507969696680653240014914910929820314476107906210059990541021187"
      ]
    },
    {
      "x": 406,
      "y": 240,
      "size": 1,
      "price": "4683000000000000000000",
      "reserved": "",
      "salt": "0x47441c063fde7647f3f57832ff43bc3ec41decc8eb5113e646219693fba88428",
      "assetIds": [
        "41506478881403507969696680653240014914910929820314476107906210059990541021188"
      ]
    },
    {
      "x": 406,
      "y": 241,
      "size": 1,
      "price": "4683000000000000000000",
      "reserved": "",
      "salt": "0x933629cca1978c8a98a0596d54ccabed910a2fa05c42c40e903ac603d1039b0f",
      "assetIds": [
        "41506478881403507969696680653240014914910929820314476107906210059990541021188"
      ]
    },
    {
      "x": 406,
      "y": 242,
      "size": 1,
      "price": "1011000000000000000000",
      "reserved": "0x7a9fe22691c811ea339d9b73150e6911a5343dca",
      "salt": "0x91150fd47ea3df97739cc498725ed4e98d44e1a78870bcd6b8ac5c303dbf9de1",
      "assetIds": []
    },
    {
      "x": 406,
      "y": 243,
      "size": 1,
      "price": "4683000000000000000000",
      "reserved": "",
      "salt": "0x6f7b843ce236133a7f7fe733c4a3b98b1cdcaafcbbda9220b178b89623731937",
      "assetIds": [
        "41506478881403507969696680653240014914910929820314476107906210059990541021186"
      ]
    },
    {
      "x": 406,
      "y": 244,
      "size": 1,
      "price": "4683000000000000000000",
      "reserved": "",
      "salt": "0x07c6c1ab85f04997d20a4bc9903ff150a8629eab99daa1680a36d01147c8e379",
      "assetIds": [
        "41506478881403507969696680653240014914910929820314476107906210059990541021187"
      ]
    },
    {
      "x": 406,
      "y": 245,
      "size": 1,
      "price": "4683000000000000000000",
      "reserved": "",
      "salt": "0x41acd433678ded607f5c646387cac0be603c691b6440c9c0d2462c93636a6175",
      "assetIds": [
        "41506478881403507969696680653240014914910929820314476107906210059990541021188"
      ]
    },
    {
      "x": 406,
      "y": 246,
      "size": 1,
      "price": "4683000000000000000000",
      "reserved": "",
      "salt": "0x67f4f6f81f589c49723e7c7cdb81b1a25453ade8bd336578d4032a495e69d398",
      "assetIds": [
        "41506478881403507969696680653240014914910929820314476107906210059990541021187"
      ]
    },
    {
      "x": 406,
      "y": 247,
      "size": 1,
      "price": "4683000000000000000000",
      "reserved": "",
      "salt": "0xe9315d191cc48b03bd1fecc92cd089ac5758f22d1366bb4d5f7920d5909275c6",
      "assetIds": [
        "41506478881403507969696680653240014914910929820314476107906210059990541021188"
      ]
    },
    {
      "x": 406,
      "y": 248,
      "size": 1,
      "price": "4683000000000000000000",
      "reserved": "",
      "salt": "0xc035bb97d95f025ab59bada8275f57be05441d8d1fb97c00a280f35a553f71c7",
      "assetIds": [
        "41506478881403507969696680653240014914910929820314476107906210059990541021187"
      ]
    },
    {
      "x": 406,
      "y": 249,
      "size": 1,
      "price": "4683000000000000000000",
      "reserved": "",
      "salt": "0x7b9e79f87b98c6e224219ef3eae1f743fee75337fafc10609d8c4757b400afe1",
      "assetIds": [
        "41506478881403507969696680653240014914910929820314476107906210059990541021189"
      ]
    },
    {
      "x": 406,
      "y": 250,
      "size": 1,
      "price": "4683000000000000000000",
      "reserved": "",
      "salt": "0x95d3240fc2838184081b6eede811f6856a35d90934ce30a72844554bf5df12a4",
      "assetIds": [
        "41506478881403507969696680653240014914910929820314476107906210059990541021188"
      ]
    },
    {
      "x": 406,
      "y": 251,
      "size": 1,
      "price": "4683000000000000000000",
      "reserved": "",
      "salt": "0xc5bdc761c606967680b8fd7bf63bf4764724061d85b9509516d397229c79a54d",
      "assetIds": [
        "41506478881403507969696680653240014914910929820314476107906210059990541021185"
      ]
    },
    {
      "x": 406,
      "y": 291,
      "size": 1,
      "price": "4683000000000000000000",
      "reserved": "",
      "salt": "0x17a24d63cf08dcd65081b8ea8a91ae91f6c54131b40028c4577e654cd7ba509b",
      "assetIds": [
        "41506478881403507969696680653240014914910929820314476107906210059990532622336"
      ]
    },
    {
      "x": 406,
      "y": 292,
      "size": 1,
      "price": "4683000000000000000000",
      "reserved": "",
      "salt": "0xf4d1abe9fe707657d23f132cbb56d153bddb94e6e651edb30be92e074524e1cd",
      "assetIds": [
        "41506478881403507969696680653240014914910929820314476107906210059990541021188"
      ]
    },
    {
      "x": 406,
      "y": 293,
      "size": 1,
      "price": "4683000000000000000000",
      "reserved": "",
      "salt": "0xf034a7b52c8dc0a883bfd0aac8a954bc9eb491038fc637906d6dc97daf390f68",
      "assetIds": [
        "41506478881403507969696680653240014914910929820314476107906210059990541021186"
      ]
    },
    {
      "x": 406,
      "y": 306,
      "size": 1,
      "price": "4683000000000000000000",
      "reserved": "",
      "salt": "0xece9525b23b96aa2e7a94949fb7708eb81f9757d58d31eef4e947cdcf2940b49",
      "assetIds": [
        "41506478881403507969696680653240014914910929820314476107906210059990541021188"
      ]
    },
    {
      "x": 406,
      "y": 307,
      "size": 1,
      "price": "4683000000000000000000",
      "reserved": "",
      "salt": "0xc557aa15ba63f9305d9e8979f09e04cd460d93fe152c8b5c2af648285ab73bdb",
      "assetIds": [
        "41506478881403507969696680653240014914910929820314476107906210059990541021189"
      ]
    },
    {
      "x": 406,
      "y": 308,
      "size": 1,
      "price": "4683000000000000000000",
      "reserved": "",
      "salt": "0xf50c6717d8580f4cef2cc8bc312ae5efe1e6505184118383bc8a9787e4342e34",
      "assetIds": [
        "41506478881403507969696680653240014914910929820314476107906210059990541021188"
      ]
    },
    {
      "x": 406,
      "y": 309,
      "size": 1,
      "price": "4683000000000000000000",
      "reserved": "",
      "salt": "0xdeecd43ce16443bfb7c8fc37e39eade2eecbe98c87381efc4c7c12bc956ae110",
      "assetIds": [
        "41506478881403507969696680653240014914910929820314476107906210059990541021186"
      ]
    },
    {
      "x": 406,
      "y": 310,
      "size": 1,
      "price": "4683000000000000000000",
      "reserved": "",
      "salt": "0xeb954e9d52594522e088c846a5241cf78886d679e6130b9380800dd5eb6fb821",
      "assetIds": [
        "41506478881403507969696680653240014914910929820314476107906210059990541021186"
      ]
    },
    {
      "x": 406,
      "y": 311,
      "size": 1,
      "price": "4683000000000000000000",
      "reserved": "",
      "salt": "0x6023e3419fa0c1ffd83f23e41d2e86fa472ea30764161e2ffcf2b160359863c4",
      "assetIds": [
        "41506478881403507969696680653240014914910929820314476107906210059990541021187"
      ]
    },
    {
      "x": 407,
      "y": 240,
      "size": 1,
      "price": "4683000000000000000000",
      "reserved": "",
      "salt": "0x9c760a38209b17be01519e8003c0f42f28e435ea39165416af361b6639f7b1b1",
      "assetIds": [
        "41506478881403507969696680653240014914910929820314476107906210059990541021185"
      ]
    },
    {
      "x": 407,
      "y": 241,
      "size": 1,
      "price": "4683000000000000000000",
      "reserved": "",
      "salt": "0xb009b6e7649554acf701801e8e7a6d748ed2a15c9df15e0ec6fe9d8059fc257b",
      "assetIds": [
        "41506478881403507969696680653240014914910929820314476107906210059990532622336"
      ]
    },
    {
      "x": 407,
      "y": 242,
      "size": 1,
      "price": "4683000000000000000000",
      "reserved": "",
      "salt": "0xf4464e2265bba7b00097edce81747fa11e015355d47bc4b80148bb78f9f7c942",
      "assetIds": [
        "41506478881403507969696680653240014914910929820314476107906210059990541021185"
      ]
    },
    {
      "x": 407,
      "y": 243,
      "size": 1,
      "price": "4683000000000000000000",
      "reserved": "",
      "salt": "0xf863081b0815e9774f8c14d23dfc6582a3ca68fc9a4a9d284da17e0a8cc854ad",
      "assetIds": [
        "41506478881403507969696680653240014914910929820314476107906210059990541021186"
      ]
    },
    {
      "x": 407,
      "y": 244,
      "size": 1,
      "price": "4683000000000000000000",
      "reserved": "",
      "salt": "0x31566b2ec31fcd0fb03b03c81912a2f2449a7dc34434089b3401969172ebfed4",
      "assetIds": [
        "41506478881403507969696680653240014914910929820314476107906210059990541021184"
      ]
    },
    {
      "x": 407,
      "y": 245,
      "size": 1,
      "price": "4683000000000000000000",
      "reserved": "",
      "salt": "0xa32154d506e04af620d628d0c464b8b628ec9d162982c532ed0588307d431754",
      "assetIds": [
        "41506478881403507969696680653240014914910929820314476107906210059990541021188"
      ]
    },
    {
      "x": 407,
      "y": 246,
      "size": 1,
      "price": "4683000000000000000000",
      "reserved": "",
      "salt": "0xa60e37e5f7544627c50ddb920f35e585092f0cec13ddc531d11f031c6092a7e9",
      "assetIds": [
        "41506478881403507969696680653240014914910929820314476107906210059990541021188"
      ]
    },
    {
      "x": 407,
      "y": 247,
      "size": 1,
      "price": "4683000000000000000000",
      "reserved": "",
      "salt": "0xfdf8ed8570558b0fcaea5930211d6fbdf23ba42d7e7bec6e9729dc2a4786a820",
      "assetIds": [
        "41506478881403507969696680653240014914910929820314476107906210059990532622336"
      ]
    },
    {
      "x": 407,
      "y": 248,
      "size": 1,
      "price": "4683000000000000000000",
      "reserved": "",
      "salt": "0x12b242791b84b2f721fb09ad028dd7b710523730d5830d1166cabdf4b9247530",
      "assetIds": [
        "41506478881403507969696680653240014914910929820314476107906210059990541021186"
      ]
    },
    {
      "x": 407,
      "y": 249,
      "size": 1,
      "price": "4683000000000000000000",
      "reserved": "",
      "salt": "0x6f3f5cd483361468d091245e8713366a26f3bc0f0ee42ffafbbbf33a8adceda8",
      "assetIds": [
        "41506478881403507969696680653240014914910929820314476107906210059990541021189"
      ]
    },
    {
      "x": 407,
      "y": 250,
      "size": 1,
      "price": "4683000000000000000000",
      "reserved": "",
      "salt": "0x256b14830230f609770142aef01b17e904f613f4161aec7cd1578b04e5679f00",
      "assetIds": [
        "41506478881403507969696680653240014914910929820314476107906210059990541021187"
      ]
    },
    {
      "x": 407,
      "y": 251,
      "size": 1,
      "price": "4683000000000000000000",
      "reserved": "",
      "salt": "0x3afb1160d3c156b1edad6e9c0606a41db12ce44a337de370853f7af0d94fea18",
      "assetIds": [
        "41506478881403507969696680653240014914910929820314476107906210059990532622336"
      ]
    },
    {
      "x": 407,
      "y": 291,
      "size": 1,
      "price": "4683000000000000000000",
      "reserved": "",
      "salt": "0x6c3a83124ab76ad769a98818ef2831c3db585b00863d05cde22c5ddacbf16379",
      "assetIds": [
        "41506478881403507969696680653240014914910929820314476107906210059990541021187"
      ]
    },
    {
      "x": 407,
      "y": 292,
      "size": 1,
      "price": "4683000000000000000000",
      "reserved": "",
      "salt": "0xcdc8a60dc89c4a54515b9ceb664ae90c6cf5f3348c3d2978511cde9cb19cc0a8",
      "assetIds": [
        "41506478881403507969696680653240014914910929820314476107906210059990541021187"
      ]
    },
    {
      "x": 407,
      "y": 293,
      "size": 1,
      "price": "4683000000000000000000",
      "reserved": "",
      "salt": "0xbc7ae93a47b97deb7f935673d0980d92df2edc8836cb3be0e676d497aab3c02b",
      "assetIds": [
        "41506478881403507969696680653240014914910929820314476107906210059990541021188"
      ]
    },
    {
      "x": 407,
      "y": 306,
      "size": 1,
      "price": "4683000000000000000000",
      "reserved": "",
      "salt": "0xbf538fb987f934b629c020c16100d2806379a70fc78569e888b5b95ca073747d",
      "assetIds": [
        "41506478881403507969696680653240014914910929820314476107906210059990541021186"
      ]
    },
    {
      "x": 407,
      "y": 307,
      "size": 1,
      "price": "4683000000000000000000",
      "reserved": "",
      "salt": "0x20f87662425841f19e817140087e0d255254a72e11d6efd1458b337fc6fcd75f",
      "assetIds": [
        "41506478881403507969696680653240014914910929820314476107906210059990541021189"
      ]
    },
    {
      "x": 407,
      "y": 308,
      "size": 1,
      "price": "4683000000000000000000",
      "reserved": "",
      "salt": "0xb334e8f76a6b0131a037d17e792c7ef1a91dbe05e9cbc1ac5e6093ce38b22674",
      "assetIds": [
        "41506478881403507969696680653240014914910929820314476107906210059990541021187"
      ]
    },
    {
      "x": 407,
      "y": 309,
      "size": 1,
      "price": "4683000000000000000000",
      "reserved": "",
      "salt": "0x2b7824d47ba36b52d69a5fda54610d389207470d280ce25b43d588d69f40a37e",
      "assetIds": [
        "41506478881403507969696680653240014914910929820314476107906210059990541021187"
      ]
    },
    {
      "x": 407,
      "y": 310,
      "size": 1,
      "price": "4683000000000000000000",
      "reserved": "",
      "salt": "0x2b4e2b0447a726b3842cb8e1b9e2faa393766fb460ae8f26f84047c83a97f08e",
      "assetIds": [
        "41506478881403507969696680653240014914910929820314476107906210059990541021187"
      ]
    },
    {
      "x": 407,
      "y": 311,
      "size": 1,
      "price": "4683000000000000000000",
      "reserved": "",
      "salt": "0x1b0fa03d4ae4c187b65e40ab280be23df0f8036bdb6ffbf063afb3251aded9fd",
      "assetIds": [
        "41506478881403507969696680653240014914910929820314476107906210059990541021187"
      ]
    },
    {
      "x": 333,
      "y": 258,
      "size": 3,
      "price": "8648000000000000000000",
      "reserved": "",
      "salt": "0xa9d38e1ceb918bbeda8f5e2624ffa15cc7e6a72a3afa9d406612fdad8ca45641",
      "assetIds": []
    },
    {
      "x": 333,
      "y": 270,
      "size": 3,
      "price": "8648000000000000000000",
      "reserved": "0x7a9fe22691c811ea339d9b73150e6911a5343dca",
      "salt": "0x9d3ae917294d6f1f60ffcbd03528e5c95879377e693f9d0afb9ef324e6293950",
      "assetIds": []
    },
    {
      "x": 333,
      "y": 273,
      "size": 3,
      "price": "8648000000000000000000",
      "reserved": "",
      "salt": "0x783ef697b60ed0c2a39b0ba8313ba50ec366287b5fd29c95b58e12929c8e9c20",
      "assetIds": []
    },
    {
      "x": 333,
      "y": 291,
      "size": 3,
      "price": "8648000000000000000000",
      "reserved": "",
      "salt": "0xa5b761f42ba54446fb0d5a120f7e5630ccbab59397310a29847f24ec16316139",
      "assetIds": []
    },
    {
      "x": 336,
      "y": 255,
      "size": 3,
      "price": "8648000000000000000000",
      "reserved": "",
      "salt": "0x521a7a985bdb3af6d59195ecfc49864b467af515c79ca32577d3cc1a6912f5da",
      "assetIds": []
    },
    {
      "x": 339,
      "y": 252,
      "size": 3,
      "price": "8648000000000000000000",
      "reserved": "0x7a9fe22691c811ea339d9b73150e6911a5343dca",
      "salt": "0x116d2688b4a7c828a266f49a9219bcdc99686f17a6a87b7ab2d4633064f96cf1",
      "assetIds": []
    },
    {
      "x": 345,
      "y": 294,
      "size": 3,
      "price": "8648000000000000000000",
      "reserved": "0x7a9fe22691c811ea339d9b73150e6911a5343dca",
      "salt": "0xe642b6ec570b8a19de7c3387c78b8cec3d6582f11906704d7148fb39c0828ad6",
      "assetIds": []
    },
    {
      "x": 345,
      "y": 300,
      "size": 3,
      "price": "8648000000000000000000",
      "reserved": "0xdeaddeaddeaddeaddeaddeaddeaddeaddeaddead",
      "salt": "0x23723416dadff3d462d84688efbee485c4f2876fe90d45020e03cb27256ed8e3",
      "assetIds": []
    },
    {
      "x": 348,
      "y": 252,
      "size": 3,
      "price": "8648000000000000000000",
      "reserved": "",
      "salt": "0xcff8496fdd9c1dbb56cddbe3ea4d2bed319e53ee30321539107083c0f870d7c2",
      "assetIds": []
    },
    {
      "x": 357,
      "y": 303,
      "size": 3,
      "price": "8648000000000000000000",
      "reserved": "",
      "salt": "0xafea79e2116f68749e374ed67bf2a52a4b9a0beb4bc58d37ec9c415a384feb24",
      "assetIds": []
    },
    {
      "x": 360,
      "y": 273,
      "size": 3,
      "price": "8648000000000000000000",
      "reserved": "0x7a9fe22691c811ea339d9b73150e6911a5343dca",
      "salt": "0x0867efdbe6ec613d521c507f11a88b5fb0eaf8f5900a5a7b267c9a0bb566c50c",
      "assetIds": []
    },
    {
      "x": 360,
      "y": 294,
      "size": 3,
      "price": "8648000000000000000000",
      "reserved": "",
      "salt": "0x7c03b938ad05cd8ec3148820a8bacf4c377128d0d44c87fd4ba3fe122f20ec03",
      "assetIds": []
    },
    {
      "x": 366,
      "y": 267,
      "size": 3,
      "price": "8648000000000000000000",
      "reserved": "",
      "salt": "0x202209fe90f159636a87c321d0bfe7bfc9db872d7f2822bb41c56a93ff7ef4e1",
      "assetIds": []
    },
    {
      "x": 366,
      "y": 291,
      "size": 3,
      "price": "8648000000000000000000",
      "reserved": "0x7a9fe22691c811ea339d9b73150e6911a5343dca",
      "salt": "0xdd27540ba451c526743abd3c7efda66b06b4cf6d9893c5b66c9681e9c9aa23c1",
      "assetIds": []
    },
    {
      "x": 378,
      "y": 231,
      "size": 3,
      "price": "8648000000000000000000",
      "reserved": "0x7a9fe22691c811ea339d9b73150e6911a5343dca",
      "salt": "0xbd53ce6096ee4bbe407ff3a589f85b5621ea2032855cd7ca54f9331c9f130c83",
      "assetIds": []
    },
    {
      "x": 378,
      "y": 285,
      "size": 3,
      "price": "8648000000000000000000",
      "reserved": "",
      "salt": "0xf79a36256fcdc03801bbb974aae496839fb256b2ae2062b43b6c93c4a0963647",
      "assetIds": []
    },
    {
      "x": 378,
      "y": 291,
      "size": 3,
      "price": "8648000000000000000000",
      "reserved": "0x7a9fe22691c811ea339d9b73150e6911a5343dca",
      "salt": "0xb991515766e0e6cc5e66e59a4f465cbcc76db84ee0b56c425f36c9a810bb40a7",
      "assetIds": []
    },
    {
      "x": 381,
      "y": 285,
      "size": 3,
      "price": "8648000000000000000000",
      "reserved": "0xdeaddeaddeaddeaddeaddeaddeaddeaddeaddead",
      "salt": "0xcd29ba026467b73501d8691540998220d0ce7559287526f5093df0301c628e61",
      "assetIds": []
    },
    {
      "x": 384,
      "y": 252,
      "size": 3,
      "price": "8648000000000000000000",
      "reserved": "",
      "salt": "0x3cf12852181c895a3427c7374c4c548476970628cab6f98abfe7b8bad0b72eca",
      "assetIds": []
    },
    {
      "x": 387,
      "y": 222,
      "size": 3,
      "price": "8648000000000000000000",
      "reserved": "0xdeaddeaddeaddeaddeaddeaddeaddeaddeaddead",
      "salt": "0xa2b440cd7e2cfd97ba866150bc6d232a560147aa19901235bbc1595b0587bea9",
      "assetIds": []
    },
    {
      "x": 390,
      "y": 258,
      "size": 3,
      "price": "8648000000000000000000",
      "reserved": "0x7a9fe22691c811ea339d9b73150e6911a5343dca",
      "salt": "0x01c9e305bcb3667d16e2db4f070dc2ff58a1ba338672edcbd0fd9c0ad56a134e",
      "assetIds": []
    },
    {
      "x": 390,
      "y": 288,
      "size": 3,
      "price": "8648000000000000000000",
      "reserved": "0xdeaddeaddeaddeaddeaddeaddeaddeaddeaddead",
      "salt": "0xc567bd9174adf1bebe04248607d23a10fb27701342a1fc2f0020a0844239fde9",
      "assetIds": []
    },
    {
      "x": 390,
      "y": 303,
      "size": 3,
      "price": "8648000000000000000000",
      "reserved": "0x7a9fe22691c811ea339d9b73150e6911a5343dca",
      "salt": "0x396467e6d02229e3c8e38149effa57a779e5a323f68bee063265aaa63b469776",
      "assetIds": []
    },
    {
      "x": 390,
      "y": 309,
      "size": 3,
      "price": "8648000000000000000000",
      "reserved": "",
      "salt": "0x617f66d5bd70d4bbd35aedf56d3fbc00968e2ff677359bf8ceb42a3239303633",
      "assetIds": []
    },
    {
      "x": 393,
      "y": 261,
      "size": 3,
      "price": "8648000000000000000000",
      "reserved": "0xdeaddeaddeaddeaddeaddeaddeaddeaddeaddead",
      "salt": "0x1bf74a021934e895156e07908babdf77e87604958ddad40537cda2c862850955",
      "assetIds": []
    },
    {
      "x": 393,
      "y": 297,
      "size": 3,
      "price": "8648000000000000000000",
      "reserved": "",
      "salt": "0xbee948b1986f5fabe5cce3aeef1598fa0b7a9600dce862e2946cb4253405487f",
      "assetIds": []
    },
    {
      "x": 399,
      "y": 237,
      "size": 3,
      "price": "8648000000000000000000",
      "reserved": "",
      "salt": "0xf7a08417c1d7b819d1f7770d3ecdca3cce8dfee2e9e019e7f53121f5da2f2f5d",
      "assetIds": []
    },
    {
      "x": 405,
      "y": 288,
      "size": 3,
      "price": "8648000000000000000000",
      "reserved": "0xdeaddeaddeaddeaddeaddeaddeaddeaddeaddead",
      "salt": "0x309343ea0af02d72354fa7ff3e5b5a009f0c4f3e2bb0339a9dd2a7f3217dea9f",
      "assetIds": []
    },
    {
      "x": 168,
      "y": 198,
      "size": 6,
      "price": "32772000000000000000000",
      "reserved": "0x7a9fe22691c811ea339d9b73150e6911a5343dca",
      "salt": "0x29be33ecd2451661224b27e614fbfff3ff2a8d0804fa489277aa795039aefc51",
      "assetIds": []
    },
    {
      "x": 174,
      "y": 198,
      "size": 6,
      "price": "32772000000000000000000",
      "reserved": "0x7a9fe22691c811ea339d9b73150e6911a5343dca",
      "salt": "0x504518478c542cb8bbb9be2cc6e24d213cecae9508979b66739850b1ac0e0f88",
      "assetIds": []
    },
    {
      "x": 180,
      "y": 198,
      "size": 6,
      "price": "32772000000000000000000",
      "reserved": "0x7a9fe22691c811ea339d9b73150e6911a5343dca",
      "salt": "0xf1c9781bf3fea0ac167b1f6de007713bf1adff28cdb8f82a236c10711cbc01f1",
      "assetIds": []
    },
    {
      "x": 186,
      "y": 198,
      "size": 6,
      "price": "32772000000000000000000",
      "reserved": "0x7a9fe22691c811ea339d9b73150e6911a5343dca",
      "salt": "0xb08e29ad6ae836472d837830bc19173180421dce7b1085777188660eefe2e6e3",
      "assetIds": []
    },
    {
      "x": 330,
      "y": 252,
      "size": 6,
      "price": "32772000000000000000000",
      "reserved": "0xdeaddeaddeaddeaddeaddeaddeaddeaddeaddead",
      "salt": "0x3ba74a21cdce82fb375db4c312015f637dbfed9d47b305f76d1ffe7e2db80243",
      "assetIds": []
    },
    {
      "x": 330,
      "y": 264,
      "size": 6,
      "price": "32772000000000000000000",
      "reserved": "0xdeaddeaddeaddeaddeaddeaddeaddeaddeaddead",
      "salt": "0x5fd2dcfee2cac0767d6148a4dbbed7c13fb8ba9ccc4eba4afbb33f94063c1dee",
      "assetIds": []
    },
    {
      "x": 330,
      "y": 294,
      "size": 6,
      "price": "32772000000000000000000",
      "reserved": "0x7a9fe22691c811ea339d9b73150e6911a5343dca",
      "salt": "0x77b016945acab9f73ccddbb5f8d43ba3d9f29217734858a954bd5da7e2be6adc",
      "assetIds": []
    },
    {
      "x": 342,
      "y": 258,
      "size": 6,
      "price": "32772000000000000000000",
      "reserved": "0xdeaddeaddeaddeaddeaddeaddeaddeaddeaddead",
      "salt": "0x2b9d90f20b8aa69c170d90e9f7737a3c24504023787172e772b90e1f53528b12",
      "assetIds": []
    },
    {
      "x": 342,
      "y": 288,
      "size": 6,
      "price": "32772000000000000000000",
      "reserved": "0xdeaddeaddeaddeaddeaddeaddeaddeaddeaddead",
      "salt": "0x3ccf8f3229668122e09bde2720055d5ae6d329382bd759e69ede49fb34a3f854",
      "assetIds": []
    },
    {
      "x": 348,
      "y": 306,
      "size": 6,
      "price": "32772000000000000000000",
      "reserved": "0x7a9fe22691c811ea339d9b73150e6911a5343dca",
      "salt": "0x21976ec010517092506e5e7b89dcf16c4e1dc522398821121d2db454ba8602ef",
      "assetIds": []
    },
    {
      "x": 354,
      "y": 258,
      "size": 6,
      "price": "32772000000000000000000",
      "reserved": "0x716eb921f3b346d2c5749b5380dc740d359055d7",
      "salt": "0x80e3964a7118a85ecaab3a7f08d8b36c701a0390f763d8eebd3fa8fcf5e5d746",
      "assetIds": []
    },
    {
      "x": 360,
      "y": 234,
      "size": 6,
      "price": "32772000000000000000000",
      "reserved": "0xdeaddeaddeaddeaddeaddeaddeaddeaddeaddead",
      "salt": "0x374e0a684ee735b986f187c786bf6b3a5585e9da3e7efcc2240435276b8b9dbe",
      "assetIds": []
    },
    {
      "x": 360,
      "y": 264,
      "size": 6,
      "price": "32772000000000000000000",
      "reserved": "0xdeaddeaddeaddeaddeaddeaddeaddeaddeaddead",
      "salt": "0x05f8b8a7792d8b13eae6e9b3efd797e61e7db5c2ae51c11a338083496731f470",
      "assetIds": []
    },
    {
      "x": 366,
      "y": 270,
      "size": 6,
      "price": "32772000000000000000000",
      "reserved": "0x7a9fe22691c811ea339d9b73150e6911a5343dca",
      "salt": "0xf927a2c2f482e822fa473981b54b5b898fb3ed13e300c8ac8cb9beab1a8ab60b",
      "assetIds": []
    },
    {
      "x": 372,
      "y": 234,
      "size": 6,
      "price": "32772000000000000000000",
      "reserved": "0xdeaddeaddeaddeaddeaddeaddeaddeaddeaddead",
      "salt": "0x252eb36d69b8edc4ac3338cba361bbe02d8c32cb970753b7a82d6de241c8c7b2",
      "assetIds": []
    },
    {
      "x": 372,
      "y": 282,
      "size": 6,
      "price": "32772000000000000000000",
      "reserved": "0x7a9fe22691c811ea339d9b73150e6911a5343dca",
      "salt": "0x6f945eca6eaf0e994aa0be6e5cff1573cf729909fe7d1a0c57379a3185116e15",
      "assetIds": []
    },
    {
      "x": 378,
      "y": 276,
      "size": 6,
      "price": "32772000000000000000000",
      "reserved": "0x7a9fe22691c811ea339d9b73150e6911a5343dca",
      "salt": "0xfcba2a6bb8acf76017d4085bfbbc1d6408ad1e295072df9987edaa2d66f68f7b",
      "assetIds": []
    },
    {
      "x": 378,
      "y": 294,
      "size": 6,
      "price": "32772000000000000000000",
      "reserved": "0x7a9fe22691c811ea339d9b73150e6911a5343dca",
      "salt": "0xd7952c5d96404a5ea0f60127e138889effd5134989b53b4e99b44d1549d6d1f1",
      "assetIds": []
    },
    {
      "x": 384,
      "y": 258,
      "size": 6,
      "price": "32772000000000000000000",
      "reserved": "0x7a9fe22691c811ea339d9b73150e6911a5343dca",
      "salt": "0xd2ba8de21ed1bd6dfc1402309d299aab9ceae0421025e3b959100675abfd5f76",
      "assetIds": []
    },
    {
      "x": 384,
      "y": 288,
      "size": 6,
      "price": "32772000000000000000000",
      "reserved": "0x7a9fe22691c811ea339d9b73150e6911a5343dca",
      "salt": "0x5a4dba53ca90f61fd4f7e4fcffe197fd1876f43fcc08c3e84b2c4d90c0097790",
      "assetIds": []
    },
    {
      "x": 384,
      "y": 300,
      "size": 6,
      "price": "32772000000000000000000",
      "reserved": "0x7a9fe22691c811ea339d9b73150e6911a5343dca",
      "salt": "0x64c6bea2fc148e15a3c6e9d122954e8d69f026793e96f90e682b16bb27a5f8b1",
      "assetIds": []
    },
    {
      "x": 390,
      "y": 216,
      "size": 6,
      "price": "32772000000000000000000",
      "reserved": "0x7a9fe22691c811ea339d9b73150e6911a5343dca",
      "salt": "0x5be28cbce83fcb6f083582a59934b97b876dafc2f244be0614c0e9cec1989417",
      "assetIds": []
    },
    {
      "x": 390,
      "y": 228,
      "size": 6,
      "price": "32772000000000000000000",
      "reserved": "0x7a9fe22691c811ea339d9b73150e6911a5343dca",
      "salt": "0xfa4df2515cd57320d994ddc745c0a46e889e99a2f4707ad0c033ef884ed16b05",
      "assetIds": []
    },
    {
      "x": 396,
      "y": 288,
      "size": 6,
      "price": "32772000000000000000000",
      "reserved": "0x7a9fe22691c811ea339d9b73150e6911a5343dca",
      "salt": "0xabbb959678f79b82cdab70b138beb1f01867d80c348592c389553c18d1dfd55a",
      "assetIds": []
    },
    {
      "x": 396,
      "y": 300,
      "size": 6,
      "price": "32772000000000000000000",
      "reserved": "0x7a9fe22691c811ea339d9b73150e6911a5343dca",
      "salt": "0xf0964079e2e0eed810754c2bdce9e9c7c07029a0a873c735f3aab8ebf4b49a9a",
      "assetIds": []
    },
    {
      "x": 396,
      "y": 306,
      "size": 6,
      "price": "32772000000000000000000",
      "reserved": "0x7a9fe22691c811ea339d9b73150e6911a5343dca",
      "salt": "0xa9e330dbdb884ba02236caa11eec572ea29499fc8bf4a490e71e20eeead27e38",
      "assetIds": []
    },
    {
      "x": 402,
      "y": 228,
      "size": 6,
      "price": "32772000000000000000000",
      "reserved": "0x7a9fe22691c811ea339d9b73150e6911a5343dca",
      "salt": "0xa8aa6a3b77f585fade188938136f2c5c774c6d371689b9ae6b20534602d9b6bd",
      "assetIds": []
    },
    {
      "x": 402,
      "y": 234,
      "size": 6,
      "price": "32772000000000000000000",
      "reserved": "0x7a9fe22691c811ea339d9b73150e6911a5343dca",
      "salt": "0x126eb9ddee08fde2f808ce7034992cdac0e07b86624db5802628c9d733efab21",
      "assetIds": []
    },
    {
      "x": 402,
      "y": 294,
      "size": 6,
      "price": "32772000000000000000000",
      "reserved": "0x7a9fe22691c811ea339d9b73150e6911a5343dca",
      "salt": "0xc5c1878c43a5f7df87f68cd1e54cb4edf96021dc8dbd1d8bd6dc6ddb8a28f460",
      "assetIds": []
    },
    {
      "x": 402,
      "y": 300,
      "size": 6,
      "price": "32772000000000000000000",
      "reserved": "0x7a9fe22691c811ea339d9b73150e6911a5343dca",
      "salt": "0x49795c37238691b93100524d960986ed065ab970fddebf0e964f46c5827f85ca",
      "assetIds": []
    },
    {
      "x": 324,
      "y": 276,
      "size": 12,
      "price": "123806000000000000000000",
      "reserved": "0x7a9fe22691c811ea339d9b73150e6911a5343dca",
      "salt": "0xadbf31ccba3364c46415ae5d94da1db75132c5fe3a0d517e17a02542f1ad0a18",
      "assetIds": []
    },
    {
      "x": 348,
      "y": 240,
      "size": 12,
      "price": "123806000000000000000000",
      "reserved": "0x7a9fe22691c811ea339d9b73150e6911a5343dca",
      "salt": "0x60201a7d8bbbaf8d7e54ca13d842d3eea83dfe151becbd4bd32d7bceab200ec3",
      "assetIds": []
    },
    {
      "x": 348,
      "y": 288,
      "size": 12,
      "price": "123806000000000000000000",
      "reserved": "0x7a9fe22691c811ea339d9b73150e6911a5343dca",
      "salt": "0xfdf61a9764655ba041f5d22e6f69144b5bfa29604c0a1497bfb40220e7bf5df2",
      "assetIds": []
    },
    {
      "x": 360,
      "y": 276,
      "size": 12,
      "price": "123806000000000000000000",
      "reserved": "0xdeaddeaddeaddeaddeaddeaddeaddeaddeaddead",
      "salt": "0x11b69922facdca53213bfd6d569dec6d8ce69923131516583bb443272f9428ac",
      "assetIds": []
    },
    {
      "x": 372,
      "y": 264,
      "size": 12,
      "price": "123806000000000000000000",
      "reserved": "0x7a9fe22691c811ea339d9b73150e6911a5343dca",
      "salt": "0x33e25dfae576793f93403054a89c0f25b0035f279a385e455f549e8bd07104f7",
      "assetIds": []
    },
    {
      "x": 384,
      "y": 240,
      "size": 12,
      "price": "123806000000000000000000",
      "reserved": "0x7a9fe22691c811ea339d9b73150e6911a5343dca",
      "salt": "0x585a1aba75cbd99719d3e73be7989fe92c9865816955f62346dcfceebf334f64",
      "assetIds": []
    },
    {
      "x": 396,
      "y": 216,
      "size": 12,
      "price": "123806000000000000000000",
      "reserved": "0x7a9fe22691c811ea339d9b73150e6911a5343dca",
      "salt": "0x315fdbb8a491e000847142071626ecca6a17e29ef8c16e315ec9861d915d5c0e",
      "assetIds": []
    },
    {
      "x": 396,
      "y": 252,
      "size": 12,
      "price": "123806000000000000000000",
      "reserved": "0xdeaddeaddeaddeaddeaddeaddeaddeaddeaddead",
      "salt": "0x5eeb45f5c638d724eca2e257e59442a8739bec16291c20d453a396cb318cc4a9",
      "assetIds": []
    },
    {
      "x": 336,
      "y": 264,
      "size": 24,
      "price": "466102000000000000000000",
      "reserved": "0xdeaddeaddeaddeaddeaddeaddeaddeaddeaddead",
      "salt": "0x6f499b4eb139db554997687d585b74b6f035e8332cffdfbd62a74caa957af20b",
      "assetIds": []
    },
    {
      "x": 360,
      "y": 240,
      "size": 24,
      "price": "466102000000000000000000",
      "reserved": "0xdeaddeaddeaddeaddeaddeaddeaddeaddeaddead",
      "salt": "0x7073a2470954d26cb2885c5016353db76991846641557d5c722a38c97b8d5bc2",
      "assetIds": []
    },
    {
      "x": 384,
      "y": 264,
      "size": 24,
      "price": "466102000000000000000000",
      "reserved": "0xdeaddeaddeaddeaddeaddeaddeaddeaddeaddead",
      "salt": "0xa8b2cf7eac8f737a376cdd9006b9a2fd7070ee8b5d7ce71a55cac567fb4ad3cf",
      "assetIds": []
    }
  ],
  "solcInputHash": "a4de1e9cf87be8a7daa33c15e9438e26",
  "bytecode": "0x610160604052620d2f006005556103e860075534801561001e57600080fd5b5060405161242e38038061242e833981810160405261018081101561004257600080fd5b50805160208201516040830151606080850151608086015160a08088015160c0808a015160e08b01516101008c01516101208d01516101408e0151610160909e0151600280546001600160a01b0319166001600160a01b03861617905560038390558d8b1b6001600160601b0319908116909852998c901b909616909352999a9899979895979496929590949391926100dc8a600161014a565b600680546001600160a01b03199081166001600160a01b039a8b1617909155610140979097526101209590955260008054909616979096169690961790935550606093841b6001600160601b031990811660e05292841b831660805290921b1661010052506101ae92505050565b6001600160a01b038216600081815260016020908152604091829020805460ff191685151590811790915582519384529083015280517fb21eb88b4e33b3f1281830a7178d74d8aa73220416215726b68ae23d539515cb9281900390910190a15050565b60805160601c60a05160601c60c05160601c60e05160601c6101005160601c61012051610140516121fb610233600039806109375280611d44525080610913528061139a525080611da45250806115d252806116f4525080610c50528061159c5280611dd852508061166152806116c5525080610dfa528061190852506121fb6000f3fe608060405234801561001057600080fd5b50600436106101515760003560e01c8063984d6252116100cd578063dc5074af11610081578063ecb255b511610066578063ecb255b514610857578063f23a6e6114610874578063f2e7b3811461090957610151565b8063dc5074af14610814578063e56f8a9e1461083a57610151565b8063bc197c81116100b2578063bc197c81146105d3578063c10a420814610735578063caed35001461080c57610151565b8063984d6252146104db578063b522ecff146105ad57610151565b80636e9960c3116101245780638a04af6a116101095780638a04af6a1461032a5780638a12b82f146103585780638f283970146104b557610151565b80636e9960c3146102fe57806377f1c3ac1461032257610151565b806325cb5bc014610156578063495906571461017057806358bc29441461017857806365194ce7146101a0575b600080fd5b61015e610911565b60408051918252519081900360200190f35b61015e610935565b61019e6004803603602081101561018e57600080fd5b50356001600160a01b0316610959565b005b610246600480360360208110156101b657600080fd5b8101906020810181356401000000008111156101d157600080fd5b8201836020820111156101e357600080fd5b8035906020019184600183028401116401000000008311171561020557600080fd5b91908080601f016020809104026020016040519081016040528093929190818152602001838380828437600092019190915250929550610a04945050505050565b6040518080602001866001600160a01b03166001600160a01b03168152602001856001600160a01b03166001600160a01b03168152602001848152602001838152602001828103825287818151815260200191508051906020019080838360005b838110156102bf5781810151838201526020016102a7565b50505050905090810190601f1680156102ec5780820380516001836020036101000a031916815260200191505b50965050505050505060405180910390f35b610306610b09565b604080516001600160a01b039092168252519081900360200190f35b61015e610b18565b61019e6004803603604081101561034057600080fd5b506001600160a01b0381351690602001351515610b1e565b61019e600480360361018081101561036f57600080fd5b6001600160a01b038235811692602081013582169260408201359092169160608201359160808101359160a08201359160c08101359160e0820135916101008101359181019061014081016101208201356401000000008111156103d257600080fd5b8201836020820111156103e457600080fd5b8035906020019184602083028401116401000000008311171561040657600080fd5b91939092909160208101903564010000000081111561042457600080fd5b82018360208201111561043657600080fd5b8035906020019184602083028401116401000000008311171561045857600080fd5b91939092909160208101903564010000000081111561047657600080fd5b82018360208201111561048857600080fd5b803590602001918460018302840111640100000000831117156104aa57600080fd5b509092509050610b75565b61019e600480360360208110156104cb57600080fd5b50356001600160a01b0316610cc3565b61019e600480360360608110156104f157600080fd5b6001600160a01b03823516919081019060408101602082013564010000000081111561051c57600080fd5b82018360208201111561052e57600080fd5b8035906020019184602083028401116401000000008311171561055057600080fd5b91939092909160208101903564010000000081111561056e57600080fd5b82018360208201111561058057600080fd5b803590602001918460208302840111640100000000831117156105a257600080fd5b509092509050610d99565b61019e600480360360208110156105c357600080fd5b50356001600160a01b0316610f24565b610700600480360360a08110156105e957600080fd5b6001600160a01b03823581169260208101359091169181019060608101604082013564010000000081111561061d57600080fd5b82018360208201111561062f57600080fd5b8035906020019184602083028401116401000000008311171561065157600080fd5b91939092909160208101903564010000000081111561066f57600080fd5b82018360208201111561068157600080fd5b803590602001918460208302840111640100000000831117156106a357600080fd5b9193909290916020810190356401000000008111156106c157600080fd5b8201836020820111156106d357600080fd5b803590602001918460018302840111640100000000831117156106f557600080fd5b50909250905061100d565b604080517fffffffff000000000000000000000000000000000000000000000000000000009092168252519081900360200190f35b6107f8600480360360a081101561074b57600080fd5b81019060208101813564010000000081111561076657600080fd5b82018360208201111561077857600080fd5b8035906020019184600183028401116401000000008311171561079a57600080fd5b91908080601f016020809104026020016040519081016040528093929190818152602001838380828437600092019190915250929550506001600160a01b03833581169450602084013516926040810135925060600135905061103a565b604080519115158252519081900360200190f35b610306611176565b6107f86004803603602081101561082a57600080fd5b50356001600160a01b0316611185565b61019e6004803603602081101561085057600080fd5b50356111a3565b61019e6004803603602081101561086d57600080fd5b5035611207565b610700600480360360a081101561088a57600080fd5b6001600160a01b03823581169260208101359091169160408201359160608101359181019060a0810160808201356401000000008111156108ca57600080fd5b8201836020820111156108dc57600080fd5b803590602001918460018302840111640100000000831117156108fe57600080fd5b50909250905061126b565b61015e611296565b7f000000000000000000000000000000000000000000000000000000000000000090565b7f000000000000000000000000000000000000000000000000000000000000000090565b6000546001600160a01b031633146109b8576040805162461bcd60e51b815260206004820152601060248201527f53656e646572206e6f742061646d696e00000000000000000000000000000000604482015290519081900360640190fd5b600554600280546001600160a01b03908116600090815260046020526040902042909301909255805473ffffffffffffffffffffffffffffffffffffffff191692909116919091179055565b606060008060008060606000806000808a80602001905160a0811015610a2957600080fd5b8101908080516040519392919084640100000000821115610a4957600080fd5b908301906020820185811115610a5e57600080fd5b8251640100000000811182820188101715610a7857600080fd5b82525081516020918201929091019080838360005b83811015610aa5578181015183820152602001610a8d565b50505050905090810190601f168015610ad25780820380516001836020036101000a031916815260200191505b5060409081526020820151908201516060830151608090930151959f50909d509b5099509197505050505050505091939590929450565b6000546001600160a01b031690565b60035490565b6000546001600160a01b03163314610b675760405162461bcd60e51b815260040180806020018281038252602e815260200180612198602e913960400191505060405180910390fd5b610b71828261129c565b5050565b610b7f898961131e565b610c048f8e8e8e8e8e8d8d8d80806020026020016040519081016040528093929190818152602001838360200280828437600081840152601f19601f820116905080830192505050505050508c8c8080602002602001604051908101604052809392919081815260200183836020028082843760009201919091525061139892505050565b610c458f8984848080601f01602080910402602001604051908101604052809392919081815260200183838082843760009201919091525061157592505050565b610c758f8f8e8e8e8d7f00000000000000000000000000000000000000000000000000000000000000008f6115c6565b610cb28e87878080602002602001604051908101604052809392919081815260200183836020028082843760009201919091525061189192505050565b505050505050505050505050505050565b6000546001600160a01b03163314610d22576040805162461bcd60e51b815260206004820152601b60248201527f6f6e6c792061646d696e2063616e206368616e67652061646d696e0000000000604482015290519081900360640190fd5b600054604080516001600160a01b039283168152918316602083015280517f7e644d79422f17c01e4894b5f4f588d331ebfa28653d42ae832dc59e38c9798f9281900390910190a16000805473ffffffffffffffffffffffffffffffffffffffff19166001600160a01b0392909216919091179055565b6000546001600160a01b03163314610df8576040805162461bcd60e51b815260206004820152600e60248201527f4e4f545f415554484f52495a4544000000000000000000000000000000000000604482015290519081900360640190fd5b7f00000000000000000000000000000000000000000000000000000000000000006001600160a01b0316632eb2c2d63087878787876040518763ffffffff1660e01b815260040180876001600160a01b03166001600160a01b03168152602001866001600160a01b03166001600160a01b031681526020018060200180602001806020018481038452888882818152602001925060200280828437600083820152601f01601f19169091018581038452868152602090810191508790870280828437600081840152601f19601f8201169050808301925050508481038252600081526020016020019950505050505050505050600060405180830381600087803b158015610f0557600080fd5b505af1158015610f19573d6000803e3d6000fd5b505050505050505050565b6001600160a01b038116610f7f576040805162461bcd60e51b815260206004820152600c60248201527f5a45524f5f414444524553530000000000000000000000000000000000000000604482015290519081900360640190fd5b6000546001600160a01b03163314610fde576040805162461bcd60e51b815260206004820152600e60248201527f4e4f545f415554484f52495a4544000000000000000000000000000000000000604482015290519081900360640190fd5b6006805473ffffffffffffffffffffffffffffffffffffffff19166001600160a01b0392909216919091179055565b7fbc197c810000000000000000000000000000000000000000000000000000000098975050505050505050565b600060035482118061105d5750836001600160a01b0316856001600160a01b0316145b8061106757508242115b156110745750600061116d565b60408051606087811b7fffffffffffffffffffffffffffffffffffffffff0000000000000000000000009081166020808501919091529188901b166034830152604882018690526068808301869052835180840390910181526088830184528051908201207f19457468657265756d205369676e6564204d6573736167653a0a33320000000060a884015260c48084018290528451808503909101815260e4909301909352815191012060009061112b9089611a55565b6001600160a01b03811660009081526004602052604090205490915042116111585760019250505061116d565b6002546001600160a01b039081169116149150505b95945050505050565b6002546001600160a01b031690565b6001600160a01b031660009081526001602052604090205460ff1690565b6000546001600160a01b03163314611202576040805162461bcd60e51b815260206004820152601060248201527f53656e646572206e6f742061646d696e00000000000000000000000000000000604482015290519081900360640190fd5b600355565b6000546001600160a01b03163314611266576040805162461bcd60e51b815260206004820152600e60248201527f4e4f545f415554484f52495a4544000000000000000000000000000000000000604482015290519081900360640190fd5b600755565b7ff23a6e61000000000000000000000000000000000000000000000000000000009695505050505050565b60075490565b6001600160a01b03821660008181526001602090815260409182902080547fffffffffffffffffffffffffffffffffffffffffffffffffffffffffffffff001685151590811790915582519384529083015280517fb21eb88b4e33b3f1281830a7178d74d8aa73220416215726b68ae23d539515cb9281900390910190a15050565b6113456103e861133960075485611b2290919063ffffffff16565b9063ffffffff611b9816565b8114610b71576040805162461bcd60e51b815260206004820152600d60248201527f494e56414c49445f505249434500000000000000000000000000000000000000604482015290519081900360640190fd5b7f0000000000000000000000000000000000000000000000000000000000000000421061140c576040805162461bcd60e51b815260206004820152600c60248201527f53414c455f49535f4f5645520000000000000000000000000000000000000000604482015290519081900360640190fd5b6001600160a01b03891633148061143257503360009081526001602052604090205460ff165b611483576040805162461bcd60e51b815260206004820152600e60248201527f4e4f545f415554484f52495a4544000000000000000000000000000000000000604482015290519081900360640190fd5b6001600160a01b03881615806114aa5750886001600160a01b0316886001600160a01b0316145b6114fb576040805162461bcd60e51b815260206004820152600d60248201527f52455345525645445f4c414e4400000000000000000000000000000000000000604482015290519081900360640190fd5b600061150c888888888d8989611bfd565b90506115188282611ca2565b611569576040805162461bcd60e51b815260206004820152600c60248201527f494e56414c49445f4c414e440000000000000000000000000000000000000000604482015290519081900360640190fd5b50505050505050505050565b60006115818484611d6b565b6006549091506115c0908590839085906001600160a01b03167f0000000000000000000000000000000000000000000000000000000000000000611eb8565b50505050565b83600114806115fc57507f00000000000000000000000000000000000000000000000000000000000000006001600160a01b0316155b156116c357604080517f6e1e3bbf0000000000000000000000000000000000000000000000000000000081526001600160a01b03898116600483015260248201879052604482018990526064820188905260a06084830152600060a4830181905292517f000000000000000000000000000000000000000000000000000000000000000090911692636e1e3bbf9260e4808201939182900301818387803b1580156116a657600080fd5b505af11580156116ba573d6000803e3d6000fd5b50505050611827565b7f00000000000000000000000000000000000000000000000000000000000000006001600160a01b0316636e1e3bbf7f00000000000000000000000000000000000000000000000000000000000000008689898c60405160200180826001600160a01b03166001600160a01b031681526020019150506040516020818303038152906040526040518663ffffffff1660e01b815260040180866001600160a01b03166001600160a01b0316815260200185815260200184815260200183815260200180602001828103825283818151815260200191508051906020019080838360005b838110156117be5781810151838201526020016117a6565b50505050905090810190601f1680156117eb5780820380516001836020036101000a031916815260200191505b509650505050505050600060405180830381600087803b15801561180e57600080fd5b505af1158015611822573d6000803e3d6000fd5b505050505b60408051858152602081018590526001600160a01b03848116828401526060820184905291516101988802890192808b1692908c16917fe4dfa6ac11314892f3029b34a25b1a887da3b1cab2bbf8506d87128ba6e3ac029181900360800190a45050505050505050565b6060815167ffffffffffffffff811180156118ab57600080fd5b506040519080825280602002602001820160405280156118d5578160200160208202803683370190505b50905060005b82518110156119055760018282815181106118f257fe5b60209081029190910101526001016118db565b507f00000000000000000000000000000000000000000000000000000000000000006001600160a01b0316632eb2c2d6308585856040518563ffffffff1660e01b815260040180856001600160a01b03166001600160a01b03168152602001846001600160a01b03166001600160a01b03168152602001806020018060200180602001848103845286818151815260200191508051906020019060200280838360005b838110156119c05781810151838201526020016119a8565b50505050905001848103835285818151815260200191508051906020019060200280838360005b838110156119ff5781810151838201526020016119e7565b50505050905001848103825260008152602001602001975050505050505050600060405180830381600087803b158015611a3857600080fd5b505af1158015611a4c573d6000803e3d6000fd5b50505050505050565b60008151604114611a6557600080fd5b60208201516040830151606084015160001a601b811015611a8457601b015b8060ff16601b1480611a9957508060ff16601c145b611aa257600080fd5b6040805160008152602080820180845289905260ff8416828401526060820186905260808201859052915160019260a0808401939192601f1981019281900390910190855afa158015611af9573d6000803e3d6000fd5b5050604051601f1901519450506001600160a01b038416611b1957600080fd5b50505092915050565b600082611b3157506000611b92565b5081810281838281611b3f57fe5b0414611b92576040805162461bcd60e51b815260206004820152600860248201527f6f766572666c6f77000000000000000000000000000000000000000000000000604482015290519081900360640190fd5b92915050565b600081611bec576040805162461bcd60e51b815260206004820152600960248201527f64697662797a65726f0000000000000000000000000000000000000000000000604482015290519081900360640190fd5b818381611bf557fe5b049392505050565b60008787878787878760405160200180888152602001878152602001868152602001858152602001846001600160a01b03166001600160a01b031660601b8152601401838152602001828051906020019060200280838360005b83811015611c6f578181015183820152602001611c57565b50505050905001975050505050505050604051602081830303815290604052805190602001209050979650505050505050565b600081815b8451811015611d41576000858281518110611cbe57fe5b6020026020010151905080831015611d065782816040516020018083815260200182815260200192505050604051602081830303815290604052805190602001209250611d38565b808360405160200180838152602001828152602001925050506040516020818303038152906040528051906020012092505b50600101611ca7565b507f0000000000000000000000000000000000000000000000000000000000000000149392505050565b600080611d84606461133985600563ffffffff611b2216565b604080516323b872dd60e01b81526001600160a01b0387811660048301527f0000000000000000000000000000000000000000000000000000000000000000811660248301526044820184905291519293507f0000000000000000000000000000000000000000000000000000000000000000909116916323b872dd916064808201926020929091908290030181600087803b158015611e2357600080fd5b505af1158015611e37573d6000803e3d6000fd5b505050506040513d6020811015611e4d57600080fd5b5051611ea0576040805162461bcd60e51b815260206004820152601360248201527f4645455f5452414e534645525f4641494c454400000000000000000000000000604482015290519081900360640190fd5b611eb0838263ffffffff61213a16565b949350505050565b82518190859015612062576060600080600080611ed48a610a04565b9398509196509450925090506000611eef868686868661103a565b15611f7d57611f09611f018d84611b22565b612710611b98565b9050886001600160a01b0316846001600160a01b0316866001600160a01b03167fac7a699eb95c3c6d390ec4626de17ef9a67b35891efdb197beba7c7fdd45fac48f858760405180848152602001838152602001828152602001935050505060405180910390a4611f7a878261213a565b96505b801561205b57604080516323b872dd60e01b81526001600160a01b038f811660048301528781166024830152604482018490529151918a16916323b872dd916064808201926020929091908290030181600087803b158015611fde57600080fd5b505af1158015611ff2573d6000803e3d6000fd5b505050506040513d602081101561200857600080fd5b505161205b576040805162461bcd60e51b815260206004820152601960248201527f636f6d6d6973696f6e207472616e73666572206661696c656400000000000000604482015290519081900360640190fd5b5050505050505b604080516323b872dd60e01b81526001600160a01b0389811660048301528681166024830152604482018490529151918416916323b872dd916064808201926020929091908290030181600087803b1580156120bd57600080fd5b505af11580156120d1573d6000803e3d6000fd5b505050506040513d60208110156120e757600080fd5b5051611a4c576040805162461bcd60e51b815260206004820152601760248201527f7061796d656e74207472616e73666572206661696c6564000000000000000000604482015290519081900360640190fd5b600082821115612191576040805162461bcd60e51b815260206004820152600860248201527f756e6465666c6f77000000000000000000000000000000000000000000000000604482015290519081900360640190fd5b5090039056fe6f6e6c792061646d696e2063616e207365747570206d6574615472616e73616374696f6e50726f636573736f7273a26469706673582212200ff38c5741c66b2a22a9a9ee2abe0f55626323082b6b4443921fd3b25484584a64736f6c63430006050033",
  "devdoc": {
    "methods": {
      "buyLandWithSand(address,address,address,uint256,uint256,uint256,uint256,uint256,bytes32,uint256[],bytes32[],bytes)": {
        "params": {
          "buyer": "address that perform the payment",
          "priceInSand": "price in SAND to purchase that Land",
          "proof": "merkleProof for that particular Land",
          "reserved": "the reserved address (if any)",
          "size": "size of the pack of Land to purchase",
          "to": "address that will own the purchased Land",
          "x": "x coordinate of the Land",
          "y": "y coordinate of the Land"
        }
      },
      "changeAdmin(address)": {
        "details": "change the administrator to be `newAdmin`.",
        "params": {
          "newAdmin": "address of the new administrator."
        }
      },
      "getAdmin()": {
        "details": "gives the current administrator of this contract.",
        "returns": {
          "_0": "the current administrator of this contract."
        }
      },
      "getSigningWallet()": {
        "details": "signing wallet authorized for referral",
        "returns": {
          "_0": "the address of the signing wallet"
        }
      },
      "isMetaTransactionProcessor(address)": {
        "details": "check whether address `who` is given meta-transaction execution rights.",
        "params": {
          "who": "The address to query."
        },
        "returns": {
          "_0": "whether the address has meta-transaction execution rights."
        }
      },
      "isReferralValid(bytes,address,address,uint256,uint256)": {
        "params": {
          "commissionRate": "The commissionRate of the referral",
          "expiryTime": "The expiry time of the referral",
          "referee": "The address of the referee",
          "referrer": "The address of the referrer",
          "signature": "The signature to check (signed referral)"
        },
        "returns": {
          "_0": "True if the referral is valid"
        }
      },
      "setMetaTransactionProcessor(address,bool)": {
        "details": "Enable or disable the ability of `metaTransactionProcessor` to perform meta-tx (metaTransactionProcessor rights).",
        "params": {
          "enabled": "set whether the metaTransactionProcessor is enabled or disabled.",
          "metaTransactionProcessor": "address that will be given/removed metaTransactionProcessor rights."
        }
      },
      "setReceivingWallet(address)": {
        "params": {
          "newWallet": "address of the new receiving wallet"
        }
      },
      "updateMaxCommissionRate(uint256)": {
        "details": "Update the maximum commission rate",
        "params": {
          "newMaxCommissionRate": "The new maximum commission rate"
        }
      },
      "updateSigningWallet(address)": {
        "details": "Update the signing wallet",
        "params": {
          "newSigningWallet": "The new address of the signing wallet"
        }
      },
      "withdrawAssets(address,uint256[],uint256[])": {
        "params": {
          "assetIds": "the assetIds to be transferred",
          "to": "intended recipient of the asset tokens",
          "values": "the quantities of the assetIds to be transferred"
        }
      }
    },
    "title": "Estate Sale contract with referral"
  },
  "userdoc": {
    "methods": {
      "buyLandWithSand(address,address,address,uint256,uint256,uint256,uint256,uint256,bytes32,uint256[],bytes32[],bytes)": {
        "notice": "buy Land with SAND using the merkle proof associated with it"
      },
      "getExpiryTime()": {
        "notice": "Gets the expiry time for the current sale"
      },
      "getMaxCommisionRate()": {
        "notice": "the max commision rate"
      },
      "getMerkleRoot()": {
        "notice": "Gets the Merkle root associated with the current sale"
      },
      "isReferralValid(bytes,address,address,uint256,uint256)": {
        "notice": "Check if a referral is valid"
      },
      "setReceivingWallet(address)": {
        "notice": "set the wallet receiving the proceeds"
      },
      "withdrawAssets(address,uint256[],uint256[])": {
        "notice": "enable Admin to withdraw remaining assets from EstateSaleWithFee contract"
      }
    },
    "notice": "This contract manages the sale of our lands as Estates"
  },
  "storageLayout": {
    "storage": [
      {
        "astId": 15353,
        "contract": "src/solc_0.6/EstateSale/EstateSaleWithFee.sol:EstateSaleWithFee",
        "label": "_admin",
        "offset": 0,
        "slot": "0",
        "type": "t_address"
      },
      {
        "astId": 15415,
        "contract": "src/solc_0.6/EstateSale/EstateSaleWithFee.sol:EstateSaleWithFee",
        "label": "_metaTransactionContracts",
        "offset": 0,
        "slot": "1",
        "type": "t_mapping(t_address,t_bool)"
      },
      {
        "astId": 13531,
        "contract": "src/solc_0.6/EstateSale/EstateSaleWithFee.sol:EstateSaleWithFee",
        "label": "_signingWallet",
        "offset": 0,
        "slot": "2",
        "type": "t_address"
      },
      {
        "astId": 13533,
        "contract": "src/solc_0.6/EstateSale/EstateSaleWithFee.sol:EstateSaleWithFee",
        "label": "_maxCommissionRate",
        "offset": 0,
        "slot": "3",
        "type": "t_uint256"
      },
      {
        "astId": 13537,
        "contract": "src/solc_0.6/EstateSale/EstateSaleWithFee.sol:EstateSaleWithFee",
        "label": "_previousSigningWallets",
        "offset": 0,
        "slot": "4",
        "type": "t_mapping(t_address,t_uint256)"
      },
      {
        "astId": 13546,
        "contract": "src/solc_0.6/EstateSale/EstateSaleWithFee.sol:EstateSaleWithFee",
        "label": "_previousSigningDelay",
        "offset": 0,
        "slot": "5",
        "type": "t_uint256"
      },
      {
        "astId": 9918,
        "contract": "src/solc_0.6/EstateSale/EstateSaleWithFee.sol:EstateSaleWithFee",
        "label": "_wallet",
        "offset": 0,
        "slot": "6",
        "type": "t_address_payable"
      },
      {
        "astId": 9928,
        "contract": "src/solc_0.6/EstateSale/EstateSaleWithFee.sol:EstateSaleWithFee",
        "label": "_multiplier",
        "offset": 0,
        "slot": "7",
        "type": "t_uint256"
      }
    ],
    "types": {
      "t_address": {
        "encoding": "inplace",
        "label": "address",
        "numberOfBytes": "20"
      },
      "t_address_payable": {
        "encoding": "inplace",
        "label": "address payable",
        "numberOfBytes": "20"
      },
      "t_bool": {
        "encoding": "inplace",
        "label": "bool",
        "numberOfBytes": "1"
      },
      "t_mapping(t_address,t_bool)": {
        "encoding": "mapping",
        "key": "t_address",
        "label": "mapping(address => bool)",
        "numberOfBytes": "32",
        "value": "t_bool"
      },
      "t_mapping(t_address,t_uint256)": {
        "encoding": "mapping",
        "key": "t_address",
        "label": "mapping(address => uint256)",
        "numberOfBytes": "32",
        "value": "t_uint256"
      },
      "t_uint256": {
        "encoding": "inplace",
        "label": "uint256",
        "numberOfBytes": "32"
      }
    }
  }
}